0161106140999992000010100414+49430+007600FM-16+0238ETAR V02099999999990015019N0016001N1+00201+00201999999ADDGD14991+0015099GF108991999999999999999999MA1102401999999MW1101REMMET068ETAR 010041Z VRB02KT 1600 BR OVC005 02/02 A3024 RMK CIG005 YLO LAST;EQDQ01    003PRSWM1
0254106140999992000010104004+49430+007600FM-15+0238ETAR V0209999V001010015019N0024001N1+00201+00201102531ADDGD12991+0012099GD23991+0015099GD34991+0033099GF108991999999999999999999MA1102441999999MW1511REMMET131ETAR 010355Z COR VRB02KT 2400 -DZ BR FEW004 BKN005 OVC011 02/02 A3025 RMK PK WND 28003/00 SLP253 CIG005 8/6// 9/8// WR// YLO FIRST;EQDQ01    003PRSWM1
0200106140999992000010104374+49430+007600FM-16+0238ETAR V02099999999990015019N0024001N1+00201+00201999999ADDGD12991+0012099GD23991+0015099GD34991+0033099GF108991999999999999999999MA1102441999999MW1101REMMET077ETAR 010437Z VRB02KT 2400 BR FEW004 BKN005 OVC011 02/02 A3025 RMK CIG005 YLO;EQDQ01    003PRSWM1
0240106140999992000010104554+49430+007600FM-15+0238ETAR V0202501N001510015019N0024001N1+00201+00201102521ADDGD12991+0012099GD23991+0015099GD34991+0033099GF108991999999999999999999MA1102401999999MW1101REMMET117ETAR 010455Z 25003KT 2400 BR FEW004 BKN005 OVC011 02/02 A3024 RMK PK WND 28003/57 SLP252 CIG005 8/6// 9/8// WR// YLO;EQDQ01    003PRSWM1
0240106140999992000010106554+49430+007600FM-15+0238ETAR V02099999999990015019N0024001N1+00201+00201102531ADDGD12991+0012099GD23991+0015099GD34991+0033099GF108991999999999999999999MA1102441999999MW1101REMMET117ETAR 010655Z VRB01KT 2400 BR FEW004 BKN005 OVC011 02/02 A3025 RMK PK WND 29003/02 SLP253 CIG005 8/6// 9/8// WR// YLO;EQDQ01    003PRSWM1
0218106140999992000010107554+49430+007600FM-15+0238ETAR V0202601N002110015019N0024001N1+00301+00201102591ADDGD13991+0015099GD24991+0033099GF108991999999999999999999MA1102471999999MW1101REMMET110ETAR 010755Z 26004KT 2400 BR BKN005 OVC011 03/02 A3026 RMK PK WND 26005/50 SLP259 CIG005 8/6// 9/8// WR// YLO;EQDQ01    003PRSWM1
0218106140999992000010108554+49430+007600FM-15+0238ETAR V0202501N002110015019N0024001N1+00301+00301102621ADDGD13991+0015099GD24991+0033099GF108991999999999999999999MA1102511999999MW1101REMMET110ETAR 010855Z 25004KT 2400 BR BKN005 OVC011 03/03 A3027 RMK PK WND 26006/57 SLP262 CIG005 8/6// 9/8// WR// YLO;EQDQ01    003PRSWM1
0218106140999992000010109554+49430+007600FM-15+0238ETAR V0202601N003110015019N0024001N1+00301+00301102641ADDGD13991+0015099GD24991+0033099GF108991999999999999999999MA1102541999999MW1101REMMET110ETAR 010955Z 26006KT 2400 BR BKN005 OVC011 03/03 A3028 RMK PK WND 25006/04 SLP264 CIG005 8/6// 9/8// WR// YLO;EQDQ01    003PRSWM1
0218106140999992000010110554+49430+007600FM-15+0238ETAR V0202501N002610015019N0024001N1+00301+00301102611ADDGD13991+0015099GD24991+0033099GF108991999999999999999999MA1102511999999MW1101REMMET110ETAR 011055Z 25005KT 2400 BR BKN005 OVC011 03/03 A3027 RMK PK WND 26006/55 SLP261 CIG005 8/6// 9/8// WR// YLO;EQDQ01    003PRSWM1
0210106140999992000010111554+49430+007600FM-15+0238ETAR V0202501N002610015019N0024001N1+00301+00301102601ADDGD14991+0015099GF108991999999999999999999MA1102511999999MW1611REMMET117ETAR 011155Z COR 25005KT 2400 -RA BR OVC005 03/03 A3027 RMK PK WND 25007/07 SLP260 CIG005 60001 8/6// 9/8// WR// YLO;EQDQ01    003PRSWM1
0200106140999992000010113004+49430+007600FM-15+0238ETAR V0202701N003610015019N0038001N1+00401+00401102571ADDGD14991+0015099GF108991999999999999999999MA1102471999999MW1611REMMET107ETAR 011255Z 27007KT 3800 -RA BR OVC005 04/04 A3026 RMK PK WND 26008/19 SLP257 CIG005 8/6// 9/8// WR// YLO;EQDQ01    003PRSWM1
0204106140999992000010113464+49430+007600FM-16+0238ETAR V0202701N003610024019N0050001N1+00401+00401999999ADDGD12991+0015099GD23991+0024099GD34991+0033099GF108991999999999999999999MA1102441999999MW1511REMMET081ETAR 011346Z 27007KT 5000 -DZ BR SCT005 BKN008 OVC011 04/04 A3025 RMK CIG008 GRN;EQDQ01    003PRSWM1
0244106140999992000010113554+49430+007600FM-15+0238ETAR V0202801N002610015019N0050001N1+00401+00401102571ADDGD12991+0015099GD23991+0024099GD34991+0033099GF108991999999999999999999MA1102441999999MW1511REMMET121ETAR 011355Z 28005KT 5000 -DZ BR SCT005 BKN008 OVC011 04/04 A3025 RMK PK WND 26009/03 SLP257 CIG005 8/6// 9/8// WR// YLO;EQDQ01    003PRSWM1
0222106140999992000010114554+49430+007600FM-15+0238ETAR V0202901N001510024019N0050001N1+00401+00401102691ADDGD12991+0015099GD24991+0024099GF108991999999999999999999MA1102511999999MW1511REMMET114ETAR 011455Z 29003KT 5000 -DZ BR SCT005 OVC008 04/04 A3027 RMK PK WND 28008/58 SLP269 CIG008 8/6// 9/8// WR// GRN;EQDQ01    003PRSWM1
0218106140999992000010115554+49430+007600FM-15+0238ETAR V0202501N003110015019N0040001N1+00401+00401102651ADDGD13991+0015099GD24991+0021099GF108991999999999999999999MA1102541999999MW1101REMMET110ETAR 011555Z 25006KT 4000 BR BKN005 OVC007 04/04 A3028 RMK PK WND 26008/42 SLP265 CIG005 8/6// 9/8// WR// YLO;EQDQ01    003PRSWM1
0200106140999992000010116554+49430+007600FM-15+0238ETAR V0202701N002610012019N0016001N1+00401+00401102701ADDGD14991+0012099GF108991999999999999999999MA1102611999999MW1611REMMET107ETAR 011655Z 27005KT 1600 -RA BR OVC004 04/04 A3030 RMK PK WND 25008/59 SLP270 CIG004 8/6// 9/8// WR// YLO;EQDQ01    003PRSWM1
0228106140999992000010117554+49430+007600FM-15+0238ETAR V0202601N003110012019N0016001N1+00501+00501102721ADDGD13991+0012099GD24991+0021099GF108991999999999999999999MA1102611999999MW1511REMMET120ETAR 011755Z 26006KT 1600 -DZ BR BKN004 OVC007 05/05 A3030 RMK PK WND 27008/01 SLP272 CIG004 60001 8/6// 9/8// WR// YLO;EQDQ01    003PRSWM1
0222106140999992000010118554+49430+007600FM-15+0238ETAR V0202801N002110012019N0016001N1+00501+00501102801ADDGD13991+0012099GD24991+0021099GF108991999999999999999999MA1102711999999MW1511REMMET114ETAR 011855Z 28004KT 1600 -DZ BR BKN004 OVC007 05/05 A3033 RMK PK WND 26006/59 SLP280 CIG004 8/6// 9/8// WR// YLO;EQDQ01    003PRSWM1
0222106140999992000010119554+49430+007600FM-15+0238ETAR V0202401N003110012019N0016001N1+00401+00401102801ADDGD13991+0012099GD23991+0021099GF107991999999999999999999MA1102711999999MW1511REMMET114ETAR 011955Z 24006KT 1600 -DZ BR BKN004 BKN007 04/04 A3033 RMK PK WND 25008/54 SLP280 CIG004 8/600 9/600 WR// YLO;EQDQ01    003PRSWM1
0226106140999992000010120554+49430+007600FM-15+0238ETAR V0209999V001012200019N0024001N1+00301+00301102821ADDGD12991+0012099GD22991+0021099GF104991999999999999999999MA1102711999999MW1101REMMET118METAR ETAR 012055Z COR VRB02KT 2400 BR FEW004 SCT007 03/03 A3033 RMK PK WND 25006/01 SLP282 8/600 9/300 WR// YLO LAST;EQDQ01    003PRSWM1
0177106140999992000010202464+49430+007600FM-15+0238ETAR V02099999999990001519N0002001N1+00201+00201999999ADDGD15991+0001599GF109991999999000251999999MA1102981999999MW1451REMMET068METAR ETAR 020346Z VRB03KT 0200 FG VV000 02/02 A3041 RMK CIG000 RED;EQDQ01+000003PRSWM1Q02    003PRSWM1
0181106140999992000010203464+49430+007600FM-16+0238ETAR V0209999V001510001519N0002001N1+00201+00201999999ADDGD15991+0001599GF109991999999000251999999MA1102981999999MW1451REMMET072ETAR 020346Z COR VRB03KT 0200 FG VV000 02/02 A3041 RMK CIG000 RED FIRST;EQDQ01+000003PRSWM1Q02    003PRSWM1
0199106140999992000010204004+49430+007600FM-15+0238ETAR V02099999999990001519N0002001N1+00201+00201103061ADDGD15991+0001599GF109991999999000251999999MA1102981999999MW1451REMMET090ETAR 020355Z VRB03KT 0200 FG VV000 02/02 A3041 RMK PK WND 31004/21 SLP306 CIG000 WR// RED;EQDQ01+000003PRSWM1Q02    003PRSWM1
0171106140999992000010204424+49430+007600FM-16+0238ETAR V02099999999990001519N0006001N1+00201+00201999999ADDGD15991+0001599GF109991999999000251999999MA1102981999999MW1451REMMET062ETAR 020442Z VRB02KT 0600 FG VV000 02/02 A3041 RMK CIG000 RED;EQDQ01+000003PRSWM1Q02    003PRSWM1
0199106140999992000010205004+49430+007600FM-15+0238ETAR V02099999999990001519N0006001N1+00201+00201103061ADDGD15991+0001599GF109991999999000251999999MA1102981999999MW1451REMMET090ETAR 020455Z VRB01KT 0600 FG VV000 02/02 A3041 RMK PK WND 26003/55 SLP306 CIG000 WR// RED;EQDQ01+000003PRSWM1Q02    003PRSWM1
0171106140999992000010205224+49430+007600FM-16+0238ETAR V02099999999990001519N0002001N1+00101+00101999999ADDGD15991+0001599GF109991999999000251999999MA1102981999999MW1451REMMET062ETAR 020522Z VRB02KT 0200 FG VV000 01/01 A3041 RMK CIG000 RED;EQDQ01+000003PRSWM1Q02    003PRSWM1
0215106140999992000010205554+49430+007600FM-15+0238ETAR V0209999V001510001519N0002001N1+00101+00101103101ADDGD15991+0001599GF109991999999000251999999MA1103011999999MW1451REMMET106ETAR 020555Z COR VRB03KT 0200 FG VV000 01/01 A3042 RMK PK WND 30003/58 SLP310 CIG000 60001 70003 WR// RED;EQDQ01+000003PRSWM1Q02    003PRSWM1
0199106140999992000010207004+49430+007600FM-15+0238ETAR V0201201N001010001519N0002001N1+00101+00101103131ADDGD15991+0001599GF109991999999000251999999MA1103051999999MW1451REMMET090ETAR 020655Z 12002KT 0200 FG VV000 01/01 A3043 RMK PK WND 21003/59 SLP313 CIG000 WR// RED;EQDQ01+000003PRSWM1Q02    003PRSWM1
0171106140999992000010207244+49430+007600FM-16+0238ETAR V02099999999990001519N0004001N1+00101+00101999999ADDGD15991+0001599GF109991999999000251999999MA1103081999999MW1451REMMET062ETAR 020724Z VRB01KT 0400 FG VV000 01/01 A3044 RMK CIG000 RED;EQDQ01+000003PRSWM1Q02    003PRSWM1
0199106140999992000010208004+49430+007600FM-15+0238ETAR V0201201N001010001519N0004001N1+00201+00201103191ADDGD15991+0001599GF109991999999000251999999MA1103081999999MW1451REMMET090ETAR 020755Z 12002KT 0400 FG VV000 02/02 A3044 RMK PK WND 13003/56 SLP319 CIG000 WR// RED;EQDQ01+000003PRSWM1Q02    003PRSWM1
0172106140999992000010208314+49430+007600FM-16+0238ETAR V02099999999990001519N0010001N1+00201+00201999999ADDGD13991+0001599GF107991999999999999999999MA1103081999999MW1441REMMET063ETAR 020831Z VRB02KT 1000 FG BKN000 02/02 A3044 RMK CIG000 RED;EQDQ01+000003PRSWM1Q02    003PRSWM1
0204106140999992000010208374+49430+007600FM-16+0238ETAR V02099999999990015019N0014001N1+00201+00201999999ADDGD12991+0001599GD24991+0015099GF108991999999999999999999MA1103121999999MW1101REMMET080ETAR 020837Z VRB02KT 1400 BR SCT000 OVC005 02/02 A3045 RMK BR SCT000 CIG005 AMB;EQDQ01+000003PRSWM1Q02    003PRSWM1
0244106140999992000010208554+49430+007600FM-15+0238ETAR V02099999999990015019N0014001N1+00201+00201103201ADDGD12991+0001599GD24991+0015099GF108991999999999999999999MA1103081999999MW1101REMMET120ETAR 020855Z VRB02KT 1400 BR SCT000 OVC005 02/02 A3044 RMK PK WND 12002/55 SLP320 BR SCT000 CIG005 8/6// 9/8// WR// AMB;EQDQ01+000003PRSWM1Q02    003PRSWM1
0254106140999992000010210004+49430+007600FM-15+0238ETAR V0201001N000510015019N0014001N1+00401+00301103241ADDGD12991+0001599GD24991+0015099GF108991999999999999999999MA1103121999999MW1101REMMET130METAR ETAR 020955Z COR 10001KT 1400 BR SCT000 OVC005 04/03 A3045 RMK PK WND 32003/36 SLP324 BR SCT000 CIG005 8/6// 9/8// WR// AMB;EQDQ01+000003PRSWM1Q02    003PRSWM1
0226106140999992000010210294+49430+007600FM-16+0238ETAR V0201401N000510600019N0032001N1+00401+00401999999ADDGD12991+0001599GD22991+0015099GD34991+0600099GF108991999999999999999999MA1103121999999MW1101REMMET087ETAR 021029Z 14001KT 3200 BR FEW000 SCT005 OVC200 04/04 A3045 RMK BR FEW000 CIG200 YLO;EQDQ01+000003PRSWM1Q02    003PRSWM1
0266106140999992000010211004+49430+007600FM-15+0238ETAR V0201401N000510600019N0032001N1+00401+00401103161ADDGD12991+0001599GD22991+0015099GD34991+0600099GF108991999999999999999999MA1103081999999MW1101REMMET127ETAR 021055Z 14001KT 3200 BR FEW000 SCT005 OVC200 04/04 A3044 RMK PK WND 13002/09 SLP316 BR FEW000 CIG200 8/507 9/304 WR// YLO;EQDQ01+000003PRSWM1Q02    003PRSWM1
0255106140999992000010211304+49430+007600FM-15+0238ETAR V02099999999990075019N0038001N1+00401+00401999999ADDGD12991+0001599GD22991+0015099GD32991+0045099GD43991+0075099GF108991999999999999999999MA1103081999999MW1101REMMET101ETAR 021130Z VRB03KT 3800 BR FEW000 FEW005 SCT015 BKN025 OVC200 04/04 A3044 RMK BR FEW000 CIG025 GRN;EQDQ01+000003PRSWM1Q02    003PRSWM1
0295106140999992000010212004+49430+007600FM-15+0238ETAR V02099999999990075019N0038001N1+00501+00501103151ADDGD12991+0001599GD22991+0015099GD32991+0045099GD43991+0075099GF108991999999999999999999MA1103081999999MW1101REMMET141ETAR 021155Z VRB02KT 3800 BR FEW000 FEW005 SCT015 BKN025 OVC200 05/05 A3044 RMK PK WND 27003/15 SLP315 BR FEW000 CIG025 8/507 9/601 WR// GRN;EQDQ01+000003PRSWM1Q02    003PRSWM1
0238106140999992000010212254+49430+007600FM-15+0238ETAR V02099999999990075019N0050001N1+00501+00501999999ADDGD12991+0015099GD22991+0045099GD33991+0075099GD44991+0600099GF108991999999999999999999MA1103081999999MW1101REMMET084ETAR 021225Z VRB01KT 5000 BR FEW005 SCT015 BKN025 OVC200 05/05 A3044 RMK CIG025 WHT;EQDQ01+000003PRSWM1Q02    003PRSWM1
0295106140999992000010213004+49430+007600FM-15+0238ETAR V02099999999990075019N0038001N1+00501+00501103151ADDGD12991+0001599GD22991+0015099GD32991+0045099GD43991+0075099GF108991999999999999999999MA1103081999999MW1101REMMET141ETAR 021155Z VRB02KT 3800 BR FEW000 FEW005 SCT015 BKN025 OVC200 05/05 A3044 RMK PK WND 27003/15 SLP315 BR FEW000 CIG025 8/507 9/601 WR// GRN;EQDQ01+000003PRSWM1Q02    003PRSWM1
0216106140999992000010213174+49430+007600FM-16+0238ETAR V02099999999990210019N0080001N1+00501+00501999999ADDGD12991+0075099GD22991+0120099GD33991+0210099GF107991999999999999999999MA1102981999999MW1101REMMET077ETAR 021317Z VRB04KT 8000 BR FEW025 SCT040 BKN070 05/05 A3041 RMK CIG070 BLU;EQDQ01+000003PRSWM1Q02    003PRSWM1
0230106140999992000010213554+49430+007600FM-15+0238ETAR V02099999999992200019N0112651N1+00601+00301103061ADDGD12991+0075099GD22991+0120099GD32991+0600099GF104991999999999999999999MA1102981999999MW1001REMMET107ETAR 021355Z VRB03KT 9999 FEW025 FEW040 SCT200 06/03 A3041 RMK PK WND 17006/20 SLP306 8/501 9/202 WR// BLU;EQDQ01+000000PRSWM2
0208106140999992000010214554+49430+007600FM-15+0238ETAR V02099999999992200019N0112651N1+00501+00301103111ADDGD12991+0120099GD22991+0600099GF104991999999999999999999MA1103011999999MW1001REMMET100ETAR 021455Z VRB03KT 9999 FEW040 SCT200 05/03 A3042 RMK PK WND 24005/08 SLP311 8/501 9/102 WR// BLU;EQDQ01+000000PRSWM2
0208106140999992000010215554+49430+007600FM-15+0238ETAR V02099999999992200019N0112651N1+00301+00301103111ADDGD12991+0120099GD22991+0600099GF104991999999999999999999MA1103011999999MW1001REMMET100ETAR 021555Z VRB02KT 9999 FEW040 SCT200 03/03 A3042 RMK PK WND 19004/59 SLP311 8/501 9/102 WR// BLU;EQDQ01+000000PRSWM2
0230106140999992000010217004+49430+007600FM-15+0238ETAR V02099999999990120019N0112651N1+00101+00101103161ADDGD12991+0060099GD23991+0120099GD34991+0240099GF108991999999999999999999MA1103051999999MW1001REMMET107ETAR 021655Z VRB02KT 9999 SCT020 BKN040 OVC080 01/01 A3043 RMK PK WND 12003/18 SLP316 8/57/ 9/71/ WR// BLU;EQDQ01+000000PRSWM2
0194106140999992000010217194+49430+007600FM-16+0238ETAR V02099999999990060019N0080001N1+00201+00201999999ADDGD13991+0060099GD24991+0120099GF108991999999999999999999MA1103051999999MW1101REMMET070ETAR 021719Z VRB03KT 8000 BR BKN020 OVC040 02/02 A3043 RMK CIG020 WHT;EQDQ01+000003PRSWM1Q02    003PRSWM1
0234106140999992000010217554+49430+007600FM-15+0238ETAR V02099999999990060019N0080001N1+00201+00201103161ADDGD13991+0060099GD24991+0120099GF108991999999999999999999MA1103051999999MW1101REMMET110ETAR 021755Z VRB02KT 8000 BR BKN020 OVC040 02/02 A3043 RMK PK WND 12004/03 SLP316 CIG020 8/5// 9/8// WR// WHT;EQDQ01+000003PRSWM1Q02    003PRSWM1
0169106140999992000010218504+49430+007600FM-15+0238ETAR V0209999V999992200019N0070001N1+00101+00101999999ADDGD12991+0060099GF104991999999999999999999MA1103011999999MW1101REMMET060ETAR 021850Z COR VRB03KT 7000 BR SCT020 01/01 A3042 RMK WHT;EQDQ01+000003PRSWM1Q02    003PRSWM1
0205106140999992000010219004+49430+007600FM-15+0238ETAR V02099999999992200019N0070001N1+00101+00101103121ADDGD12991+0060099GF104991999999999999999999MA1103011999999MW1101REMMET096ETAR 021855Z VRB02KT 7000 BR SCT020 01/01 A3042 RMK PK WND 18004/05 SLP312 8/500 9/300 WR// WHT;EQDQ01+000003PRSWM1Q02    003PRSWM1
0199106140999992000010219324+49430+007600FM-16+0238ETAR V0200401N001012200019N0040001N1+00001+00001999999ADDGD12991+0001599GD22991+0060099GF104991999999999999999999MA1103011999999MW1101REMMET075ETAR 021932Z 04002KT 4000 BR FEW000 SCT020 M00/M00 A3042 RMK BR FEW000 GRN;EQDQ01+000003PRSWM1Q02    003PRSWM1
0176106140999992000010219504+49430+007600FM-15+0238ETAR V02099999999990060019N0008001N1-00101-00101999999ADDGD13991+0060099GF107991999999999999999999MA1103011999999MW1481REMMET067ETAR 021950Z VRB02KT 0800 FZFG BKN020 M01/M01 A3042 RMK CIG020 AMB;EQDQ01+000003PRSWM1Q02    003PRSWM1
0254106140999992000010220004+49430+007600FM-15+0238ETAR V0209999V001010001519N0005001N1-00101-00101103131ADDGD13991+0001599GD23991+0060099GF107991999999999999999999MA1103011999999MW1481REMMET130ETAR 021955Z COR VRB02KT 0500 FZFG BKN000 BKN020 M01/M01 A3042 RMK PK WND 12003/47 SLP313 FZFG BKN000 CIG000 8/500 9/600 WR// RED;EQDQ01+000003PRSWM1Q02    003PRSWM1
0210106140999992000010220064+49430+007600FM-16+0238ETAR V02099999999990001519N0003001N1-00101-00101999999ADDGD13991+0001599GD23991+0060099GF107991999999999999999999MA1103011999999MW1481REMMET086ETAR 022006Z VRB02KT 0300 FZFG BKN000 BKN020 M01/M01 A3042 RMK FZFG BKN000 CIG000 RED;EQDQ01+000003PRSWM1Q02    003PRSWM1
0216106140999992000010220554+49430+007600FM-15+0238ETAR V02099999999990001519N0003001N1-00201-00201103131ADDGD13991+0001599GF107991999999999999999999MA1103051999999MW1481REMMET107ETAR 022055Z VRB02KT 0300 FZFG BKN000 M02/M02 A3043 RMK PK WND 13002/57 SLP313 FZFG BKN000 CIG000 WR// RED;EQDQ01+000003PRSWM1Q02    003PRSWM1
0216106140999992000010221554+49430+007600FM-15+0238ETAR V02099999999990001519N0003001N1-00201-00201103071ADDGD13991+0001599GF107991999999999999999999MA1102951999999MW1481REMMET107ETAR 022155Z VRB04KT 0300 FZFG BKN000 M02/M02 A3040 RMK PK WND 24004/51 SLP307 FZFG BKN000 CIG000 WR// RED;EQDQ01+000003PRSWM1Q02    003PRSWM1
0216106140999992000010222554+49430+007600FM-15+0238ETAR V02099999999990001519N0003001N1-00101-00101103071ADDGD13991+0001599GF107991999999999999999999MA1102951999999MW1481REMMET107ETAR 022255Z VRB03KT 0300 FZFG BKN000 M01/M01 A3040 RMK PK WND 26004/56 SLP307 FZFG BKN000 CIG000 WR// RED;EQDQ01+000003PRSWM1Q02    003PRSWM1
0196106140999992000010223554+49430+007600FM-15+0238ETAR V02099999999990001519N0001001N1-00101-00101103041ADDGD15991+0001599GF109991999999000251999999MA1102951999999MW1491REMMET087ETAR 022355Z VRB03KT 0100 FZFG VV000 M01/M01 A3040 RMK PK WND 22004/04 SLP304 WR// RED;EQDQ01+000003PRSWM1Q02    003PRSWM1
0102106140999992000010300504+49430+007600FM-16+0238ETAR V02099999999992200019N0001001N1+99999+99999999999ADDMW1001MW2481REMMET059ETAR 030050Z VRB05KT 0100 FZFG VVOOO M01/M01 A3040 RMK RED;EQDQ01+000003PRSWM1
0196106140999992000010300554+49430+007600FM-15+0238ETAR V02099999999990001519N0001001N1-00101-00101103041ADDGD15991+0001599GF109991999999000251999999MA1102951999999MW1491REMMET087ETAR 030055Z VRB05KT 0100 FZFG VV000 M01/M01 A3040 RMK PK WND 27006/18 SLP304 WR// RED;EQDQ01+000003PRSWM1Q02    003PRSWM1
0196106140999992000010301554+49430+007600FM-15+0238ETAR V0202701N001510001519N0001001N1-00101-00101103061ADDGD15991+0001599GF109991999999000251999999MA1102951999999MW1491REMMET087ETAR 030155Z 27003KT 0100 FZFG VV000 M01/M01 A3040 RMK PK WND 26005/56 SLP306 WR// RED;EQDQ01+000003PRSWM1Q02    003PRSWM1
0104106140999992000010302504+49430+007600FM-16+0238ETAR V0202401N002612200019N0003001N1+99999+99999999999ADDMW1001MW2481REMMET061ETAR 030250Z COR 24005KT 0300 FZFG VVOOO 00/00 A3040 RMK RED;EQDQ01+000003PRSWM1
0195106140999992000010303004+49430+007600FM-15+0238ETAR V0202301N002110001519N0003001N1+00001+00001103021ADDGD15991+0001599GF109991999999000251999999MA1102911999999MW1491REMMET086ETAR 030255Z 23004KT 0300 FZFG VV000 00/M00 A3039 RMK PK WND 27007/31 SLP302 WR// RED;EQDQ01+000003PRSWM1Q02    003PRSWM1
0190106140999992000010303404+49430+007600FM-16+0238ETAR V0209999V000510001519N0008001N1+00001+00001999999ADDGD13991+0001599GF107991999999999999999999MA1102841999999MW1481REMMET081ETAR 030340Z COR VRB01KT 0800 FZFG BKN000 00/00 A3037 RMK FZFG BKN000 CIG000 RED;EQDQ01+000003PRSWM1Q02    003PRSWM1
0208106140999992000010304004+49430+007600FM-15+0238ETAR V0200301N001010009019N0030001N1+00001+00001103001ADDGD13991+0009099GF107991999999999999999999MA1102881999999MW1481REMMET099ETAR 030400Z 03002KT 3000 FZFG BKN003 00/M00 A3038 RMK PK WND 24005/00 SLP300 FZFG BKN003 WR// YLO;EQDQ01+000003PRSWM1Q02    003PRSWM1
0241106140999992000010305004+49430+007600FM-15+0238ETAR V02099999999990009019N0030001N1+00001+00001103121ADDGD12991+0001599GD23991+0009099GF107991999999999999999999MA1102981999999MW1481REMMET117ETAR 030455Z VRB01KT 3000 FZFG FEW000 BKN003 00/00 A3041 RMK PK WND 06006/11 SLP312 FZFG FEW000 8/6// 9/8// WR// YLO;EQDQ01+000003PRSWM1Q02    003PRSWM1
0208106140999992000010305104+49430+007600FM-16+0238ETAR V02099999999990009019N0010001N1+00001+00001999999ADDGD12991+0001599GD24991+0009099GF108991999999999999999999MA1102841999999MW1481REMMET084ETAR 030510Z VRB03KT 1000 FZFG SCT000 OVC003 00/00 A3037 RMK FZFG SCT000 CIG003 YLO;EQDQ01+000003PRSWM1Q02    003PRSWM1
0204106140999992000010305484+49430+007600FM-16+0238ETAR V02099999999990009019N0008001N1+00001+00001999999ADDGD12991+0001599GD24991+0009099GF108991999999999999999999MA1102981999999MW1441REMMET080ETAR 030548Z VRB02KT 0800 FG SCT000 OVC003 00/00 A3041 RMK FG SCT000 CIG003 YLO;EQDQ01+000003PRSWM1Q02    003PRSWM1
0247106140999992000010305554+49430+007600FM-15+0238ETAR V0209999V001510009019N0008001N1+00001+00001103101ADDGD12991+0001599GD24991+0009099GF108991999999999999999999MA1102981999999MW1441REMMET123METAR ETAR 030555Z COR VRB03KT 0800 FG SCT000 OVC003 00/00 A3041 RMK PK WND 19004/19 SLP310 FG SCT000 8/6// 9/8// WR// YLO;EQDQ01+000003PRSWM1Q02    003PRSWM1
0208106140999992000010306264+49430+007600FM-16+0238ETAR V0209999V999990009019N0012001N1+00101+00001999999ADDGD12991+0001599GD24991+0009099GF108991999999999999999999MA1102951999999MW1101REMMET084ETAR 030626Z COR VRB02KT 1200 BR SCT000 OVC003 01/00 A3040 RMK BR SCT000 CIG003 AMB;EQDQ01+000003PRSWM1Q02    003PRSWM1
0254106140999992000010306554+49430+007600FM-15+0238ETAR V0209999V000510009019N0014001N1+00101+00101103091ADDGD12991+0001599GD24991+0009099GF108991999999999999999999MA1102981999999MW1101REMMET130METAR ETAR 030655Z COR VRB01KT 1400 BR SCT000 OVC003 01/01 A3041 RMK PK WND 20005/11 SLP309 BR SCT000 CIG003 8/6// 9/8// WR// AMB;EQDQ01+000003PRSWM1Q02    003PRSWM1
0172106140999992000010308064+49430+007600FM-15+0238ETAR V02099999999990006019N0010001N1+00101+00101999999ADDGD14991+0006099GF108991999999999999999999MA1103011999999MW1101REMMET063ETAR 030806Z VRB05KT 1000 BR OVC002 01/01 A3042 RMK CIG002 AMB;EQDQ01+000003PRSWM1Q02    003PRSWM1
0172106140999992000010308414+49430+007600FM-16+0238ETAR V02099999999990006019N0016001N1+00101+00101999999ADDGD14991+0006099GF108991999999999999999999MA1102981999999MW1101REMMET063ETAR 030841Z VRB03KT 1600 BR OVC002 01/01 A3041 RMK CIG002 AMB;EQDQ01+000003PRSWM1Q02    003PRSWM1
0212106140999992000010309004+49430+007600FM-15+0238ETAR V02099999999990006019N0016001N1+00101+00101103121ADDGD14991+0006099GF108991999999999999999999MA1102981999999MW1101REMMET103ETAR 030855Z VRB03KT 1600 BR OVC002 01/01 A3041 RMK PK WND 24008/28 SLP312 CIG002 8/6// 9/8// WR// AMB;EQDQ01+000003PRSWM1Q02    003PRSWM1
0194106140999992000010309014+49430+007600FM-16+0238ETAR V02099999999990006019N0020001N1+00201+00201999999ADDGD13991+0006099GD24991+0012099GF108991999999999999999999MA1102981999999MW1101REMMET070ETAR 030901Z VRB05KT 2000 BR BKN002 OVC004 02/02 A3041 RMK CIG002 AMB;EQDQ01+000003PRSWM1Q02    003PRSWM1
0194106140999992000010309194+49430+007600FM-16+0238ETAR V02099999999990006019N0032001N1+00201+00201999999ADDGD13991+0006099GD24991+0012099GF108991999999999999999999MA1102981999999MW1101REMMET070ETAR 030919Z VRB04KT 3200 BR BKN002 OVC004 02/02 A3041 RMK CIG002 AMB;EQDQ01+000003PRSWM1Q02    003PRSWM1
0194106140999992000010309334+49430+007600FM-16+0238ETAR V0202301N001010012019N0040001N1+00201+00201999999ADDGD12991+0006099GD24991+0012099GF108991999999999999999999MA1102981999999MW1101REMMET070ETAR 030933Z 23002KT 4000 BR SCT002 OVC004 02/02 A3041 RMK CIG004 AMB;EQDQ01+000003PRSWM1Q02    003PRSWM1
0234106140999992000010309564+49430+007600FM-15+0238ETAR V02099999999990015019N0050001N1+00201+00201103101ADDGD12991+0009099GD24991+0015099GF108991999999999999999999MA1102981999999MW1101REMMET110ETAR 030956Z VRB05KT 5000 BR SCT003 OVC005 02/02 A3041 RMK PK WND 23009/21 SLP310 CIG005 8/6// 9/8// WR// YLO;EQDQ01+000003PRSWM1Q02    003PRSWM1
0234106140999992000010311004+49430+007600FM-15+0238ETAR V0202401N004110015019N0070001N1+00201+00201103061ADDGD13991+0015099GD24991+0021099GF108991999999999999999999MA1102951999999MW1101REMMET110ETAR 031055Z 24008KT 7000 BR BKN005 OVC007 02/02 A3040 RMK PK WND 25009/42 SLP306 CIG005 8/6// 9/8// WR// YLO;EQDQ01+000003PRSWM1Q02    003PRSWM1
0194106140999992000010311374+49430+007600FM-16+0238ETAR V0202501N003110018019N0080001N1+00301+00301999999ADDGD13991+0018099GD24991+0024099GF108991999999999999999999MA1102911999999MW1101REMMET070ETAR 031137Z 25006KT 8000 BR BKN006 OVC008 03/03 A3039 RMK CIG006 YLO;EQDQ01+000003PRSWM1Q02    003PRSWM1
0234106140999992000010311554+49430+007600FM-15+0238ETAR V0202501N002610018019N0080001N1+00301+00301103001ADDGD13991+0018099GD24991+0024099GF108991999999999999999999MA1102881999999MW1101REMMET110ETAR 031155Z 25005KT 8000 BR BKN006 OVC008 03/03 A3038 RMK PK WND 26008/37 SLP300 CIG006 8/6// 9/8// WR// YLO;EQDQ01+000003PRSWM1Q02    003PRSWM1
0215106140999992000010313554+49430+007600FM-15+0238ETAR V0202501N003110018019N0112651N1+00401+00301102891ADDGD13991+0018099GD24991+0030099GF108991999999999999999999MA1102781999999MW1001REMMET107ETAR 031355Z 25006KT 9999 BKN006 OVC010 04/03 A3035 RMK PK WND 25011/17 SLP289 CIG006 8/5// 9/8// WR// YLO;EQDQ01+000000PRSWM2
0215106140999992000010314554+49430+007600FM-15+0238ETAR V0202501N002610018019N0112651N1+00401+00301102851ADDGD13991+0018099GD24991+0030099GF108991999999999999999999MA1102741999999MW1001REMMET107ETAR 031455Z 25005KT 9999 BKN006 OVC010 04/03 A3034 RMK PK WND 25009/07 SLP285 CIG006 8/5// 9/8// WR// YLO;EQDQ01+000000PRSWM2
0237106140999992000010315554+49430+007600FM-15+0238ETAR V0202201N002110018019N0112651N1+00401+00301102851ADDGD13991+0018099GD23991+0030099GD34991+0060099GF108991999999999999999999MA1102741999999MW1001REMMET114ETAR 031555Z 22004KT 9999 BKN006 BKN010 OVC020 04/03 A3034 RMK PK WND 24010/16 SLP285 CIG006 8/5// 9/8// WR// YLO;EQDQ01+000000PRSWM2
0197106140999992000010316464+49430+007600FM-16+0238ETAR V0202301N003110030019N0112651N1+00401+00301999999ADDGD12991+0018099GD23991+0030099GD33991+0060099GF107991999999999999999999MA1102681999999MW1001REMMET074ETAR 031646Z 23006KT 9999 SCT006 BKN010 BKN020 04/03 A3032 RMK CIG010 GRN;EQDQ01+000000PRSWM2
0237106140999992000010316554+49430+007600FM-15+0238ETAR V0202201N002610030019N0112651N1+00401+00301102801ADDGD12991+0018099GD23991+0030099GD34991+0060099GF108991999999999999999999MA1102681999999MW1001REMMET114ETAR 031655Z 22005KT 9999 SCT006 BKN010 OVC020 04/03 A3032 RMK PK WND 19010/30 SLP280 CIG010 8/5// 9/8// WR// GRN;EQDQ01+000000PRSWM2
0237106140999992000010317574+49430+007600FM-15+0238ETAR V0202801N003110030019N0112651N1+00401+00301102801ADDGD12991+0018099GD23991+0030099GD34991+0060099GF108991999999999999999999MA1102681999999MW1001REMMET114ETAR 031757Z 28006KT 9999 FEW006 BKN010 OVC020 04/03 A3032 RMK PK WND 25009/45 SLP280 CIG010 8/5// 9/8// WR// GRN;EQDQ01+000000PRSWM2
0237106140999992000010319004+49430+007600FM-15+0238ETAR V0202701N002610030019N0112651N1+00401+00301102761ADDGD12991+0018099GD23991+0030099GD34991+0060099GF108991999999999999999999MA1102641999999MW1001REMMET114ETAR 031855Z 27005KT 9999 FEW006 BKN010 OVC020 04/03 A3031 RMK PK WND 27009/16 SLP276 CIG010 8/5// 9/8// WR// GRN;EQDQ01+000000PRSWM2
0175106140999992000010319434+49430+007600FM-16+0238ETAR V0202101N001010078019N0112651N1+00401+00201999999ADDGD12991+0030099GD24991+0078099GF108991999999999999999999MA1102611999999MW1001REMMET067ETAR 031943Z 21002KT 9999 SCT010 OVC026 04/02 A3030 RMK CIG026 BLU;EQDQ01+000000PRSWM2
0215106140999992000010319554+49430+007600FM-15+0238ETAR V0202101N002610075019N0112651N1+00401+00201102741ADDGD12991+0030099GD24991+0075099GF108991999999999999999999MA1102611999999MW1001REMMET107ETAR 031955Z 21005KT 9999 SCT010 OVC025 04/02 A3030 RMK PK WND 21009/53 SLP274 CIG025 8/5// 9/8// WR// BLU;EQDQ01+000000PRSWM2
0215106140999992000010320554+49430+007600FM-15+0238ETAR V0202501N002610075019N0112651N1+00401+00201102691ADDGD12991+0030099GD24991+0075099GF108991999999999999999999MA1102571999999MW1001REMMET107ETAR 032055Z 25005KT 9999 SCT010 OVC025 04/02 A3029 RMK PK WND 24009/40 SLP269 CIG025 8/5// 9/8// WR// BLU;EQDQ01+000000PRSWM2
0215106140999992000010321554+49430+007600FM-15+0238ETAR V0202401N002110075019N0112651N1+00401+00301102591ADDGD12991+0030099GD24991+0075099GF108991999999999999999999MA1102511999999MW1001REMMET107ETAR 032155Z 24004KT 9999 SCT010 OVC025 04/03 A3027 RMK PK WND 26010/26 SLP259 CIG025 8/5// 9/8// WR// BLU;EQDQ01+000000PRSWM2
0215106140999992000010322554+49430+007600FM-15+0238ETAR V0202501N003610075019N0112651N1+00501+00301102541ADDGD12991+0030099GD24991+0075099GF108991999999999999999999MA1102441999999MW1001REMMET107ETAR 032255Z 25007KT 9999 SCT010 OVC025 05/03 A3025 RMK PK WND 25010/36 SLP254 CIG025 8/5// 9/8// WR// BLU;EQDQ01+000000PRSWM2
0215106140999992000010323554+49430+007600FM-15+0238ETAR V0202501N004110075019N0112651N1+00501+00301102501ADDGD12991+0030099GD24991+0075099GF108991999999999999999999MA1102401999999MW1001REMMET107ETAR 032355Z 25008KT 9999 SCT010 OVC025 05/03 A3024 RMK PK WND 25012/22 SLP250 CIG025 8/5// 9/8// WR// BLU;EQDQ01+000000PRSWM2
0215106140999992000010400594+49430+007600FM-15+0238ETAR V0202201N004110075019N0112651N1+00501+00301102411ADDGD12991+0030099GD24991+0075099GF108991999999999999999999MA1102341999999MW1001REMMET107ETAR 040059Z 22008KT 9999 SCT010 OVC025 05/03 A3022 RMK PK WND 26014/23 SLP241 CIG025 8/5// 9/8// WR// BLU;EQDQ01+000000PRSWM2
0215106140999992000010401554+49430+007600FM-15+0238ETAR V0202501N004610075019N0112651N1+00501+00301102391ADDGD12991+0030099GD24991+0075099GF108991999999999999999999MA1102301999999MW1001REMMET107ETAR 040155Z 25009KT 9999 FEW010 OVC025 05/03 A3021 RMK PK WND 25015/42 SLP239 CIG025 8/5// 9/8// WR// BLU;EQDQ01+000000PRSWM2
0215106140999992000010402554+49430+007600FM-15+0238ETAR V0202401N004110075019N0112651N1+00501+00301102361ADDGD12991+0030099GD24991+0075099GF108991999999999999999999MA1102271999999MW1001REMMET107ETAR 040255Z 24008KT 9999 FEW010 OVC025 05/03 A3020 RMK PK WND 23014/10 SLP236 CIG025 8/5// 9/8// WR// BLU;EQDQ01+000000PRSWM2
0193106140999992000010403554+49430+007600FM-15+0238ETAR V0202501N004610075019N0112651N1+00501+00301102321ADDGD14991+0075099GF108991999999999999999999MA1102241999999MW1001REMMET100ETAR 040355Z 25009KT 9999 OVC025 05/03 A3019 RMK PK WND 25012/42 SLP232 CIG025 8/5// 9/8// WR// BLU;EQDQ01+000000PRSWM2
0193106140999992000010405004+49430+007600FM-15+0238ETAR V0202401N004110075019N0112651N1+00601+00301102291ADDGD14991+0075099GF108991999999999999999999MA1102241999999MW1001REMMET100ETAR 040455Z 24008KT 9999 OVC025 06/03 A3019 RMK PK WND 25014/44 SLP229 CIG025 8/5// 9/8// WR// BLU;EQDQ01+000000PRSWM2
0193106140999992000010405554+49430+007600FM-15+0238ETAR V0202401N004610075019N0112651N1+00601+00301102291ADDGD14991+0075099GF108991999999999999999999MA1102241999999MW1001REMMET100ETAR 040555Z 24009KT 9999 OVC025 06/03 A3019 RMK PK WND 24015/47 SLP229 CIG025 8/5// 9/8// WR// BLU;EQDQ01+000000PRSWM2
0193106140999992000010407004+49430+007600FM-15+0238ETAR V0202301N005110060019N0112651N1+00501+00401102291ADDGD14991+0060099GF108991999999999999999999MA1102201999999MW1001REMMET100ETAR 040655Z 23010KT 9999 OVC020 05/04 A3018 RMK PK WND 25017/20 SLP229 CIG020 8/5// 9/8// WR// WHT;EQDQ01+000000PRSWM2
0217106140999992000010407014+49430+007600FM-16+0238ETAR V0202401N004110060019N0090001N1+00501+00401999999ADDGD12991+0009099GD22991+0030099GD34991+0060099GF108991999999999999999999MA1102241999999MW1611REMMET078ETAR 040701Z 24008KT 9000 -RA FEW003 SCT010 OVC020 05/04 A3019 RMK CIG020 WHT;EQDQ01+000003PRSWM1Q02    003PRSWM1
0215106140999992000010408004+49430+007600FM-15+0238ETAR V0202601N004610012019N0112651N1+00501+00401102321ADDGD13991+0012099GD24991+0045099GF108991999999999999999999MA1102241999999MW1001REMMET107ETAR 040755Z 26009KT 9999 BKN004 OVC015 05/04 A3019 RMK PK WND 26014/38 SLP232 CIG004 8/5// 9/8// WR// YLO;EQDQ01+000000PRSWM2
0203106140999992000010408394+49430+007600FM-16+0238ETAR V0202401N005110015019N0090001N1+00601+00501999999ADDGD13991+0015099GD24991+0036099GF108991999999999999999999MA1102241999999MW1511REMMET079ETAR 040839Z 24010KT 200V260 9000 -DZ BKN005 OVC012 06/05 A3019 RMK CIG005 YLO;EQDQ01+000003PRSWM1Q02    003PRSWM1
0235106140999992000010408554+49430+007600FM-15+0238ETAR V0202301N004110015019N0090001N1+00501+00501102291ADDGD13991+0015099GD24991+0036099GF108991999999999999999999MA1102201999999MW1511REMMET111ETAR 040855Z 23008KT 9000 -DZ BKN005 OVC012 05/05 A3018 RMK PK WND 25015/18 SLP229 CIG005 8/5// 9/8// WR// YLO;EQDQ01+000003PRSWM1Q02    003PRSWM1
0257106140999992000010409554+49430+007600FM-15+0238ETAR V0202401N004110036019N0090001N1+00501+00501102291ADDGD12991+0015099GD23991+0036099GD34991+0051099GF108991999999999999999999MA1102201999999MW1511REMMET118ETAR 040955Z 24008KT 9000 -DZ FEW005 BKN012 OVC017 05/05 A3018 RMK PK WND 25017/32 SLP229 CIG012 8/5// 9/8// WR// GRN;EQDQ01+000003PRSWM1Q02    003PRSWM1
0235106140999992000010411004+49430+007600FM-15+0238ETAR V0202501N005710036019N0080001N1+00601+00501102221ADDGD13991+0036099GD24991+0060099GF108991999999999999999999MA1102171999999MW1611REMMET111ETAR 041055Z 25011KT 8000 -RA BKN012 OVC020 06/05 A3017 RMK PK WND 26017/37 SLP222 CIG012 8/5// 9/8// WR// GRN;EQDQ01+000003PRSWM1Q02    003PRSWM1
0195106140999992000010411334+49430+007600FM-16+0238ETAR V0202401N004110066019N0090001N1+00601+00501999999ADDGD12991+0036099GD24991+0066099GF108991999999999999999999MA1102071999999MW1611REMMET071ETAR 041133Z 24008KT 9000 -RA SCT012 OVC022 06/05 A3014 RMK CIG022 WHT;EQDQ01+000003PRSWM1Q02    003PRSWM1
0197106140999992000010411404+49430+007600FM-16+0238ETAR V0202401N005110066019N0112651N1+00601+00501999999ADDGD12991+0036099GD23991+0066099GD34991+0300099GF108991999999999999999999MA1102031999999MW1001REMMET074ETAR 041140Z 24010KT 9999 SCT012 BKN022 OVC100 06/05 A3013 RMK CIG022 WHT;EQDQ01+000000PRSWM2
0251106140999992000010411554+49430+007600FM-15+0238ETAR V0202401N005710066019N0112651N1+00701+00501102091ADDGD12991+0036099GD23991+0066099GD34991+0150099GF108991999999999999999999MA1102031999999MW1001REMMET128ETAR 041155Z 24011KT 200V260 9999 SCT012 BKN022 OVC050 07/05 A3013 RMK PK WND 25016/43 SLP209 CIG022 60002 8/5// 9/8// WR// WHT;EQDQ01+000000PRSWM2
0237106140999992000010413004+49430+007600FM-15+0238ETAR V0202501N006210066019N0112651N1+00701+00501102021ADDGD12991+0036099GD23991+0066099GD33991+0150099GF107991999999999999999999MA1101961999999MW1001REMMET114ETAR 041255Z 25012KT 9999 FEW012 BKN022 BKN050 07/05 A3011 RMK PK WND 24017/07 SLP202 CIG022 8/500 9/700 WR// WHT;EQDQ01+000000PRSWM2
0197106140999992000010413054+49430+007600FM-16+0238ETAR V0202401N005110150019N0112651N1+00801+00501999999ADDGD12991+0066099GD23991+0150099GD34991+0600099GF108991999999999999999999MA1101931999999MW1001REMMET074ETAR 041305Z 24010KT 9999 SCT022 BKN050 OVC200 08/05 A3010 RMK CIG050 BLU;EQDQ01+000000PRSWM2
0237106140999992000010414004+49430+007600FM-15+0238ETAR V0202401N004610150019N0112651N1+00801+00501101971ADDGD12991+0066099GD23991+0150099GD34991+0600099GF108991999999999999999999MA1101901999999MW1001REMMET114ETAR 041355Z 24009KT 9999 SCT022 BKN050 OVC200 08/05 A3009 RMK PK WND 24016/23 SLP197 CIG050 8/507 9/602 WR// BLU;EQDQ01+000000PRSWM2
0195106140999992000010414194+49430+007600FM-16+0238ETAR V0202301N003610120019N0080001N1+00701+00501999999ADDGD12991+0066099GD24991+0120099GF108991999999999999999999MA1101901999999MW1611REMMET071ETAR 041419Z 23007KT 8000 -RA SCT022 OVC040 07/05 A3009 RMK CIG040 BLU;EQDQ01+000003PRSWM1Q02    003PRSWM1
0239106140999992000010414554+49430+007600FM-15+0238ETAR V0202401N004110090019N0112651N1+00701+00601101971ADDGD12991+0054099GD24991+0090099GF108991999999999999999999MA1101901999999MW1611REMMET115ETAR 041455Z COR 24008KT 9999 -RA SCT018 OVC030 07/06 A3009 RMK PK WND 26016/03 SLP197 CIG030 8/5// 9/8// WR// BLU;EQDQ01+000003PRSWM1Q02    003PRSWM1
0235106140999992000010415554+49430+007600FM-15+0238ETAR V0202501N005110090019N0112651N1+00601+00601101891ADDGD12991+0057099GD24991+0090099GF108991999999999999999999MA1101831999999MW1611REMMET111ETAR 041555Z 25010KT 9999 -RA SCT019 OVC030 06/06 A3007 RMK PK WND 24016/32 SLP189 CIG030 8/5// 9/8// WR// BLU;EQDQ01+000003PRSWM1Q02    003PRSWM1
0222106140999992000010416554+49430+007600FM-15+0238ETAR V0202401N005110060019N0070001N1+00701+00601101881ADDGD14991+0060099GF108991999999999999999999MA1101831999999MW1101MW2611REMMET107ETAR 041655Z 24010KT 7000 -RA BR OVC020 07/06 A3007 RMK PK WND 23018/00 SLP188 CIG020 8/5// 9/8// WR// WHT;EQDQ01+000003PRSWM1Q02    003PRSWM1
0261106140999992000010417554+49430+007600FM-15+0238ETAR V0202501N006210060019N0070001N1+00701+00601101881ADDGD12991+0036099GD24991+0060099GF108991999999999999999999MA1101831999999MW1101MW2611OC100931REMMET123ETAR 041755Z 25012G18KT 7000 -RA BR SCT012 OVC020 07/06 A3007 RMK PK WND 25018/51 SLP188 CIG020 60008 8/5// 9/8// WR// WHT;EQDQ01+000003PRSWM1Q02    003PRSWM1
0245106140999992000010421004+49430+007600FM-15+0238ETAR V0202401N005110063019N0090001N1+00801+00701101981ADDGD12991+0039099GD24991+0063099GF108991999999999999999999MA1101931999999MW1101OC100871REMMET113ETAR 042055Z 24010G17KT 9000 BR FEW013 OVC021 08/07 A3010 RMK PK WND 23017/48 SLP198 CIG021 8/5// 9/8// WR// WHT;EQDQ01+000003PRSWM1Q02    003PRSWM1
0172106140999992000010421394+49430+007600FM-16+0238ETAR V0202401N005110042019N0090001N1+00701+00701999999ADDGD14991+0042099GF108991999999999999999999MA1101931999999MW1101REMMET063ETAR 042139Z 24010KT 9000 BR OVC014 07/07 A3010 RMK CIG014 GRN;EQDQ01+000003PRSWM1Q02    003PRSWM1
0212106140999992000010421554+49430+007600FM-15+0238ETAR V0202401N005110042019N0090001N1+00801+00701102021ADDGD14991+0042099GF108991999999999999999999MA1101961999999MW1101REMMET103ETAR 042155Z 24010KT 9000 BR OVC014 08/07 A3011 RMK PK WND 23016/24 SLP202 CIG014 8/5// 9/8// WR// GRN;EQDQ01+000003PRSWM1Q02    003PRSWM1
0212106140999992000010422554+49430+007600FM-15+0238ETAR V0202401N005110042019N0090001N1+00801+00701102031ADDGD14991+0042099GF108991999999999999999999MA1101961999999MW1101REMMET103ETAR 042255Z 24010KT 9000 BR OVC014 08/07 A3011 RMK PK WND 25014/12 SLP203 CIG014 8/5// 9/8// WR// GRN;EQDQ01+000003PRSWM1Q02    003PRSWM1
0212106140999992000010423554+49430+007600FM-15+0238ETAR V0202401N004110042019N0090001N1+00801+00701101991ADDGD14991+0042099GF108991999999999999999999MA1101931999999MW1101REMMET103ETAR 042355Z 24008KT 9000 BR OVC014 08/07 A3010 RMK PK WND 26014/38 SLP199 CIG014 8/5// 9/8// WR// GRN;EQDQ01+000003PRSWM1Q02    003PRSWM1
0216106140999992000010500554+49430+007600FM-15+0238ETAR V0202501N005110042019N0090001N1+00801+00701102041ADDGD13991+0042099GF107991999999999999999999MA1102001999999MW1101REMMET107ETAR 050055Z COR 25010KT 9000 BR BKN014 08/07 A3012 RMK PK WND 25013/17 SLP204 CIG014 8/500 9/700 WR// GRN;EQDQ01+000003PRSWM1Q02    003PRSWM1
0212106140999992000010502554+49430+007600FM-15+0238ETAR V0202601N004610042019N0090001N1+00701+00601102111ADDGD13991+0042099GF107991999999999999999999MA1102071999999MW1101REMMET103ETAR 050255Z 26009KT 9000 BR BKN014 07/06 A3014 RMK PK WND 25017/06 SLP211 CIG014 8/500 9/700 WR// GRN;EQDQ01+000003PRSWM1Q02    003PRSWM1
0186106140999992000010503554+49430+007600FM-15+0238ETAR V0202601N002612200019N0112651N1+00601+00601102161ADDGD12991+0042099GF102991999999999999999999MA1102101999999MW1001REMMET093ETAR 050355Z 26005KT 9999 FEW014 06/06 A3015 RMK PK WND 26015/06 SLP216 8/500 9/100 WR// BLU;EQDQ01+000000PRSWM2
0186106140999992000010504554+49430+007600FM-15+0238ETAR V0202501N002612200019N0112651N1+00501+00501102211ADDGD12991+0042099GF102991999999999999999999MA1102171999999MW1001REMMET093ETAR 050455Z 25005KT 9999 FEW014 05/05 A3017 RMK PK WND 26008/12 SLP221 8/500 9/100 WR// BLU;EQDQ01+000000PRSWM2
0198106140999992000010505554+49430+007600FM-15+0238ETAR V02099999999992200019N0112651N1+00601+00501102321ADDGD12991+0042099GF102991999999999999999999MA1102271999999MW1001REMMET105METAR ETAR 050555Z VRB05KT 9999 FEW014 06/05 A3020 RMK PK WND 26009/16 SLP232 70010 8/500 9/100 WR// BLU;EQDQ01+000000PRSWM2
0186106140999992000010506554+49430+007600FM-15+0238ETAR V0202501N001512200019N0112651N1+00301+00301102381ADDGD12991+0042099GF104991999999999999999999MA1102301999999MW1001REMMET093ETAR 050655Z 25003KT 9999 SCT014 03/03 A3021 RMK PK WND 28005/32 SLP238 8/500 9/300 WR// BLU;EQDQ01+000000PRSWM2
0208106140999992000010507554+49430+007600FM-15+0238ETAR V0202401N001512200019N0112651N1+00201+00201102431ADDGD12991+0042099GD22991+0600099GF104991999999999999999999MA1102341999999MW1001REMMET100ETAR 050755Z 24003KT 9999 FEW014 SCT200 02/02 A3022 RMK PK WND 28005/38 SLP243 8/501 9/103 WR// BLU;EQDQ01+000000PRSWM2
0237106140999992000010508554+49430+007600FM-15+0238ETAR V02099999999990600019N0112651N1+00301+00201102481ADDGD12991+0042099GD22991+0300099GD33991+0600099GF107991999999999999999999MA1102401999999MW1001REMMET114ETAR 050855Z VRB02KT 9999 FEW014 SCT100 BKN200 03/02 A3024 RMK PK WND 11004/24 SLP248 CIG200 8/571 9/122 WR// BLU;EQDQ01+000000PRSWM2
0237106140999992000010509554+49430+007600FM-15+0238ETAR V0202801N002110600019N0112651N1+00601+00501102481ADDGD12991+0042099GD22991+0300099GD33991+0600099GF107991999999999999999999MA1102441999999MW1001REMMET114ETAR 050955Z 28004KT 9999 FEW014 SCT100 BKN200 06/05 A3025 RMK PK WND 27006/21 SLP248 CIG200 8/571 9/132 WR// BLU;EQDQ01+000000PRSWM2
0237106140999992000010511004+49430+007600FM-15+0238ETAR V02099999999990300019N0112651N1+00701+00401102461ADDGD12991+0090099GD23991+0300099GD33991+0600099GF107991999999999999999999MA1102401999999MW1001REMMET114ETAR 051055Z VRB04KT 9999 SCT030 BKN100 BKN200 07/04 A3024 RMK PK WND 26007/35 SLP246 CIG100 8/578 9/322 WR// BLU;EQDQ01+000000PRSWM2
0197106140999992000010511214+49430+007600FM-16+0238ETAR V0202701N002110075019N0112651N1+00701+00401999999ADDGD13991+0075099GD23991+0300099GD34991+0600099GF108991999999999999999999MA1102371999999MW1001REMMET074ETAR 051121Z 27004KT 9999 BKN025 BKN100 OVC200 07/04 A3023 RMK CIG025 BLU;EQDQ01+000000PRSWM2
0237106140999992000010511554+49430+007600FM-15+0238ETAR V02099999999990075019N0112651N1+00701+00401102391ADDGD13991+0075099GD23991+0300099GD34991+0600099GF108991999999999999999999MA1102341999999MW1001REMMET114ETAR 051155Z VRB04KT 9999 BKN025 BKN100 OVC200 07/04 A3022 RMK PK WND 19008/40 SLP239 CIG025 8/577 9/512 WR// BLU;EQDQ01+000000PRSWM2
0215106140999992000010513004+49430+007600FM-15+0238ETAR V0202301N002110075019N0112651N1+00801+00501102361ADDGD13991+0075099GD24991+0600099GF108991999999999999999999MA1102341999999MW1001REMMET107ETAR 051255Z 23004KT 9999 BKN025 OVC200 08/05 A3022 RMK PK WND 23009/26 SLP236 CIG025 8/507 9/503 WR// BLU;EQDQ01+000000PRSWM2
0197106140999992000010513334+49430+007600FM-16+0238ETAR V02099999999990300019N0112651N1+00701+00501999999ADDGD12991+0075099GD23991+0300099GD34991+0600099GF108991999999999999999999MA1102301999999MW1001REMMET074ETAR 051333Z VRB04KT 9999 SCT025 BKN100 OVC200 07/05 A3021 RMK CIG100 BLU;EQDQ01+000000PRSWM2
0237106140999992000010513554+49430+007600FM-15+0238ETAR V02099999999990300019N0112651N1+00801+00501102331ADDGD12991+0075099GD23991+0300099GD33991+0600099GF107991999999999999999999MA1102301999999MW1001REMMET114ETAR 051355Z VRB03KT 9999 SCT025 BKN100 BKN200 08/05 A3021 RMK PK WND 22007/26 SLP233 CIG100 8/578 9/331 WR// BLU;EQDQ01+000000PRSWM2
0237106140999992000010514554+49430+007600FM-15+0238ETAR V02099999999990300019N0112651N1+00701+00501102321ADDGD12991+0075099GD23991+0300099GD33991+0600099GF107991999999999999999999MA1102271999999MW1001REMMET114ETAR 051455Z VRB03KT 9999 FEW025 BKN100 BKN200 07/05 A3020 RMK PK WND 25004/56 SLP232 CIG100 8/578 9/151 WR// BLU;EQDQ01+000000PRSWM2
0237106140999992000010515554+49430+007600FM-15+0238ETAR V0200901N001010300019N0112651N1+00601+00501102301ADDGD12991+0105099GD23991+0300099GD33991+0600099GF107991999999999999999999MA1102241999999MW1001REMMET114ETAR 051555Z 09002KT 9999 SCT035 BKN100 BKN200 06/05 A3019 RMK PK WND 16003/56 SLP230 CIG100 8/578 9/331 WR// BLU;EQDQ01+000000PRSWM2
0230106140999992000010516554+49430+007600FM-15+0238ETAR V02099999999992200019N0112651N1+00501+00401102291ADDGD12991+0105099GD22991+0300099GD32991+0600099GF104991999999999999999999MA1102241999999MW1001REMMET107ETAR 051655Z VRB02KT 9999 FEW035 SCT100 SCT200 05/04 A3019 RMK PK WND 07004/09 SLP229 8/578 9/121 WR// BLU;EQDQ01+000000PRSWM2
0241106140999992000010517554+49430+007600FM-15+0238ETAR V0209999V001010105019N0112651N1+00301+00301102291ADDGD12991+0072099GD23991+0105099GD33991+0300099GF107991999999999999999999MA1102201999999MW1001REMMET118ETAR 051755Z COR VRB02KT 9999 SCT024 BKN035 BKN100 03/03 A3018 RMK PK WND 11003/10 SLP229 CIG035 8/570 9/610 WR// BLU;EQDQ01+000000PRSWM2
0230106140999992000010518554+49430+007600FM-15+0238ETAR V02099999999992200019N0112651N1+00301+00301102281ADDGD12991+0072099GD22991+0300099GD32991+0600099GF104991999999999999999999MA1102201999999MW1001REMMET107ETAR 051855Z VRB02KT 9999 FEW024 FEW100 SCT200 03/03 A3018 RMK PK WND 03003/03 SLP228 8/578 9/111 WR// BLU;EQDQ01+000000PRSWM2
0175106140999992000010520004+49430+007600FM-15+0238ETAR V02099999999992200019N0060001N1+00301+00301102271ADDGF100991999999999999999999MA1102171999999MW1101REMMET081ETAR 051955Z VRB03KT 6000 BR SKC 03/03 A3017 RMK PK WND 01003/03 SLP227 WR// BLU;EQDQ01+000003PRSWM1Q02    003PRSWM1
0177106140999992000010521004+49430+007600FM-15+0238ETAR V02099999999992200019N0060001N1+00001+00001102281ADDGF100991999999999999999999MA1102171999999MW1101REMMET083ETAR 052055Z VRB01KT 6000 BR SKC M00/M00 A3017 RMK PK WND 34003/56 SLP228 WR// WHT;EQDQ01+000003PRSWM1Q02    003PRSWM1
0183106140999992000010521154+49430+007600FM-16+0238ETAR V0200301N000512200019N0040001N1-00101-00101999999ADDGD12991+0001599GF104991999999999999999999MA1102171999999MW1121REMMET074ETAR 052115Z COR 03001KT 4000 MIFG SCT000 M01/M01 A3017 RMK FG SCT000 GRN;EQDQ01+000003PRSWM1Q02    003PRSWM1
0199106140999992000010600554+49430+007600FM-15+0238ETAR V02099999999990006019N0004001N1+00001+00001102161ADDGD15991+0001599GF109991999999000251999999MA1102101999999MW1451REMMET090ETAR 060055Z VRB03KT 0400 FG VV002 00/00 A3015 RMK PK WND 04004/12 SLP216 CIG002 WR// RED;EQDQ01+000003PRSWM1Q02    003PRSWM1
0199106140999992000010601554+49430+007600FM-15+0238ETAR V02099999999990006019N0004001N1+00101+00101102151ADDGD15991+0001599GF109991999999000251999999MA1102071999999MW1451REMMET090ETAR 060155Z VRB02KT 0400 FG VV002 01/01 A3014 RMK PK WND 26003/56 SLP215 CIG002 WR// RED;EQDQ01+000003PRSWM1Q02    003PRSWM1
0199106140999992000010602554+49430+007600FM-15+0238ETAR V02099999999990006019N0004001N1+00101+00101102151ADDGD15991+0001599GF109991999999000251999999MA1102071999999MW1451REMMET090ETAR 060255Z VRB03KT 0400 FG VV002 01/01 A3014 RMK PK WND 24004/17 SLP215 CIG002 WR// RED;EQDQ01+000003PRSWM1Q02    003PRSWM1
0199106140999992000010603554+49430+007600FM-15+0238ETAR V0202601N001510006019N0004001N1+00101+00101102121ADDGD15991+0001599GF109991999999000251999999MA1102031999999MW1451REMMET090ETAR 060355Z 26003KT 0400 FG VV002 01/01 A3013 RMK PK WND 08004/56 SLP212 CIG002 WR// RED;EQDQ01+000003PRSWM1Q02    003PRSWM1
0199106140999992000010604554+49430+007600FM-15+0238ETAR V02099999999990006019N0004001N1+00201+00201102111ADDGD15991+0001599GF109991999999000251999999MA1102001999999MW1451REMMET090ETAR 060455Z VRB02KT 0400 FG VV002 02/02 A3012 RMK PK WND 26005/59 SLP211 CIG002 WR// RED;EQDQ01+000003PRSWM1Q02    003PRSWM1
0199106140999992000010606004+49430+007600FM-15+0238ETAR V02099999999990006019N0004001N1+00201+00201102121ADDGD15991+0001599GF109991999999000251999999MA1102001999999MW1451REMMET090ETAR 060555Z VRB02KT 0400 FG VV002 02/02 A3012 RMK PK WND 24004/00 SLP212 CIG002 WR// RED;EQDQ01+000003PRSWM1Q02    003PRSWM1
0171106140999992000010606164+49430+007600FM-16+0238ETAR V02099999999990001519N0003001N1+00201+00201999999ADDGD15991+0001599GF109991999999000251999999MA1102031999999MW1451REMMET062ETAR 060616Z VRB02KT 0300 FG VV000 02/02 A3013 RMK CIG000 RED;EQDQ01+000003PRSWM1Q02    003PRSWM1
0199106140999992000010606554+49430+007600FM-15+0238ETAR V02099999999990001519N0004001N1+00201+00201102151ADDGD15991+0001599GF109991999999000251999999MA1102031999999MW1451REMMET090ETAR 060655Z VRB02KT 0400 FG VV000 02/02 A3013 RMK PK WND 06003/38 SLP215 CIG000 WR// RED;EQDQ01+000003PRSWM1Q02    003PRSWM1
0199106140999992000010607554+49430+007600FM-15+0238ETAR V0209999C000010001519N0006001N1+00201+00201102191ADDGD15991+0001599GF109991999999000251999999MA1102101999999MW1451REMMET090ETAR 060755Z 00000KT 0600 FG VV000 02/02 A3015 RMK PK WND 12003/22 SLP219 CIG000 WR// RED;EQDQ01+000003PRSWM1Q02    003PRSWM1
0199106140999992000010608554+49430+007600FM-15+0238ETAR V02099999999990001519N0004001N1+00301+00301102231ADDGD15991+0001599GF109991999999000251999999MA1102131999999MW1451REMMET090ETAR 060855Z VRB02KT 0400 FG VV000 03/03 A3016 RMK PK WND 19004/14 SLP223 CIG000 WR// RED;EQDQ01+000003PRSWM1Q02    003PRSWM1
0171106140999992000010609494+49430+007600FM-16+0238ETAR V02099999999990003019N0010001N1+00401+00401999999ADDGD15991+0001599GF109991999999000251999999MA1102171999999MW1101REMMET062ETAR 060949Z VRB02KT 1000 BR VV001 04/04 A3017 RMK CIG001 RED;EQDQ01+000003PRSWM1Q02    003PRSWM1
0172106140999992000010609524+49430+007600FM-16+0238ETAR V02099999999990006019N0012001N1+00401+00401999999ADDGD14991+0006099GF108991999999999999999999MA1102171999999MW1101REMMET063ETAR 060952Z VRB02KT 1200 BR OVC002 04/04 A3017 RMK CIG002 AMB;EQDQ01+000003PRSWM1Q02    003PRSWM1
0212106140999992000010609554+49430+007600FM-15+0238ETAR V02099999999990006019N0012001N1+00401+00401102281ADDGD14991+0006099GF108991999999999999999999MA1102171999999MW1101REMMET103ETAR 060955Z VRB02KT 1200 BR OVC002 04/04 A3017 RMK PK WND 31004/36 SLP228 CIG002 8/6// 9/8// WR// AMB;EQDQ01+000003PRSWM1Q02    003PRSWM1
0194106140999992000010610004+49430+007600FM-15+0238ETAR V02099999999990006019N0016001N1+00401+00401999999ADDGD13991+0006099GD24991+0300099GF108991999999999999999999MA1102171999999MW1101REMMET070ETAR 061000Z VRB02KT 1600 BR BKN002 OVC100 04/04 A3017 RMK CIG002 AMB;EQDQ01+000003PRSWM1Q02    003PRSWM1
0194106140999992000010610054+49430+007600FM-16+0238ETAR V02099999999990006019N0020001N1+00401+00401999999ADDGD13991+0006099GD24991+0300099GF108991999999999999999999MA1102171999999MW1101REMMET070ETAR 061005Z VRB03KT 2000 BR BKN002 OVC100 04/04 A3017 RMK CIG002 AMB;EQDQ01+000003PRSWM1Q02    003PRSWM1
0194106140999992000010610154+49430+007600FM-16+0238ETAR V02099999999990006019N0024001N1+00401+00401999999ADDGD13991+0006099GD24991+0300099GF108991999999999999999999MA1102171999999MW1101REMMET070ETAR 061015Z VRB03KT 2400 BR BKN002 OVC100 04/04 A3017 RMK CIG002 AMB;EQDQ01+000003PRSWM1Q02    003PRSWM1
0172106140999992000010610484+49430+007600FM-16+0238ETAR V02099999999990030019N0070001N1+00501+00501999999ADDGD14991+0030099GF108991999999999999999999MA1102131999999MW1101REMMET063ETAR 061048Z VRB06KT 7000 BR OVC010 05/05 A3016 RMK CIG010 GRN;EQDQ01+000003PRSWM1Q02    003PRSWM1
0212106140999992000010610554+49430+007600FM-15+0238ETAR V02099999999990030019N0070001N1+00501+00501102231ADDGD14991+0030099GF108991999999999999999999MA1102131999999MW1101REMMET103ETAR 061055Z VRB06KT 7000 BR OVC010 05/05 A3016 RMK PK WND 25006/42 SLP223 CIG010 8/5// 9/8// WR// GRN;EQDQ01+000003PRSWM1Q02    003PRSWM1
0234106140999992000010611554+49430+007600FM-15+0238ETAR V0202601N003610030019N0060001N1+00401+00401102241ADDGD12991+0015099GD24991+0030099GF108991999999999999999999MA1102131999999MW1101REMMET110ETAR 061155Z 26007KT 6000 BR FEW005 OVC010 04/04 A3016 RMK PK WND 24013/36 SLP224 CIG010 8/5// 9/8// WR// GRN;EQDQ01+000003PRSWM1Q02    003PRSWM1
0234106140999992000010612554+49430+007600FM-15+0238ETAR V0202601N003610030019N0050001N1+00501+00401102221ADDGD12991+0015099GD24991+0030099GF108991999999999999999999MA1102131999999MW1101REMMET110ETAR 061255Z 26007KT 5000 BR SCT005 OVC010 05/04 A3016 RMK PK WND 24011/40 SLP222 CIG010 8/5// 9/8// WR// GRN;EQDQ01+000003PRSWM1Q02    003PRSWM1
0234106140999992000010613554+49430+007600FM-15+0238ETAR V0202601N005110030019N0050001N1+00501+00501102211ADDGD12991+0015099GD24991+0030099GF108991999999999999999999MA1102131999999MW1101REMMET110ETAR 061355Z 26010KT 5000 BR SCT005 OVC010 05/05 A3016 RMK PK WND 25013/40 SLP221 CIG010 8/5// 9/8// WR// GRN;EQDQ01+000003PRSWM1Q02    003PRSWM1
0234106140999992000010614554+49430+007600FM-15+0238ETAR V0202401N002610030019N0050001N1+00501+00501102211ADDGD12991+0015099GD24991+0030099GF108991999999999999999999MA1102131999999MW1101REMMET110ETAR 061455Z 24005KT 5000 BR SCT005 OVC010 05/05 A3016 RMK PK WND 26010/56 SLP221 CIG010 8/5// 9/8// WR// GRN;EQDQ01+000003PRSWM1Q02    003PRSWM1
0234106140999992000010615554+49430+007600FM-15+0238ETAR V0202501N003110030019N0050001N1+00501+00501102211ADDGD12991+0015099GD24991+0030099GF108991999999999999999999MA1102131999999MW1101REMMET110ETAR 061555Z 25006KT 5000 BR SCT005 OVC010 05/05 A3016 RMK PK WND 25006/30 SLP221 CIG010 8/5// 9/8// WR// GRN;EQDQ01+000003PRSWM1Q02    003PRSWM1
0256106140999992000010616554+49430+007600FM-15+0238ETAR V0202601N003110030019N0050001N1+00601+00501102221ADDGD12991+0015099GD23991+0030099GD34991+0075099GF108991999999999999999999MA1102131999999MW1101REMMET117ETAR 061655Z 26006KT 5000 BR SCT005 BKN010 OVC025 06/05 A3016 RMK PK WND 26008/06 SLP222 CIG010 8/5// 9/8// WR// GRN;EQDQ01+000003PRSWM1Q02    003PRSWM1
0256106140999992000010618004+49430+007600FM-15+0238ETAR V0202701N004110030019N0050001N1+00501+00501102231ADDGD12991+0015099GD23991+0030099GD34991+0075099GF108991999999999999999999MA1102131999999MW1101REMMET117ETAR 061755Z 27008KT 5000 BR FEW005 BKN010 OVC025 05/05 A3016 RMK PK WND 27008/55 SLP223 CIG010 8/5// 9/8// WR// GRN;EQDQ01+000003PRSWM1Q02    003PRSWM1
0256106140999992000010619004+49430+007600FM-15+0238ETAR V02099999999990030019N0050001N1+00501+00501102241ADDGD12991+0015099GD23991+0030099GD33991+0075099GF107991999999999999999999MA1102171999999MW1101REMMET117ETAR 061855Z VRB04KT 5000 BR FEW005 BKN010 BKN025 05/05 A3017 RMK PK WND 27008/56 SLP224 CIG010 8/500 9/700 WR// GRN;EQDQ01+000003PRSWM1Q02    003PRSWM1
0256106140999992000010619554+49430+007600FM-15+0238ETAR V0202601N003110030019N0050001N1+00601+00501102271ADDGD12991+0015099GD23991+0030099GD33991+0075099GF107991999999999999999999MA1102201999999MW1101REMMET117ETAR 061955Z 26006KT 5000 BR FEW005 BKN010 BKN025 06/05 A3018 RMK PK WND 27007/17 SLP227 CIG010 8/500 9/600 WR// GRN;EQDQ01+000003PRSWM1Q02    003PRSWM1
0278106140999992000010620554+49430+007600FM-15+0238ETAR V0202601N003110075019N0050001N1+00601+00501102251ADDGD12991+0015099GD22991+0030099GD33991+0075099GD44991+0300099GF108991999999999999999999MA1102171999999MW1101REMMET124ETAR 062055Z 26006KT 5000 BR FEW005 SCT010 BKN025 OVC100 06/05 A3017 RMK PK WND 26008/13 SLP225 CIG025 8/72/ 9/62/ WR// WHT;EQDQ01+000003PRSWM1Q02    003PRSWM1
0278106140999992000010622004+49430+007600FM-15+0238ETAR V0202601N005110075019N0060001N1+00701+00501102261ADDGD12991+0015099GD22991+0030099GD33991+0075099GD44991+0300099GF108991999999999999999999MA1102201999999MW1101REMMET124ETAR 062155Z 26010KT 6000 BR FEW005 SCT010 BKN025 OVC100 07/05 A3018 RMK PK WND 26013/54 SLP226 CIG025 8/72/ 9/62/ WR// WHT;EQDQ01+000003PRSWM1Q02    003PRSWM1
0236106140999992000010622184+49430+007600FM-16+0238ETAR V0202501N003610054019N0070001N1+00701+00601999999ADDGD12991+0015099GD22991+0030099GD34991+0054099GF108991999999999999999999MA1102201999999MW1611REMMET081ETAR 062218Z 25007KT 7000 -RA BR FEW005 SCT010 OVC018 07/06 A3018 RMK CIG018 WHT;EQDQ01+000100PRSWM3Q02+000003PRSWM1Q03    003PRSWM1
0244106140999992000010622554+49430+007600FM-15+0238ETAR V0202501N003610054019N0060001N1+00601+00601102291ADDGD12991+0030099GD24991+0054099GF108991999999999999999999MA1102241999999MW1101MW2611REMMET114ETAR 062255Z 25007KT 6000 -RA BR SCT010 OVC018 06/06 A3019 RMK PK WND 25014/04 SLP229 CIG018 8/5// 9/8// WR// WHT;EQDQ01+000003PRSWM1Q02    003PRSWM1
0250106140999992000010700004+49430+007600FM-15+0238ETAR V0202501N002610054019N0050001N1+00601+00601102331ADDGD12991+0030099GD24991+0054099GF108991999999999999999999MA1102271999999MW1101MW2611REMMET120ETAR 062355Z 25005KT 5000 -RA BR SCT010 OVC018 06/06 A3020 RMK PK WND 25011/08 SLP233 CIG018 60001 8/5// 9/8// WR// WHT;EQDQ01+000003PRSWM1Q02    003PRSWM1
0204106140999992000010700254+49430+007600FM-15+0238ETAR V0202401N003110027019N0050001N1+00701+00601999999ADDGD13991+0027099GD24991+0054099GF108991999999999999999999MA1102271999999MW1101MW2611REMMET074ETAR 070025Z 24006KT 5000 -RA BR BKN009 OVC018 07/06 A3020 RMK CIG009 GRN;EQDQ01+000003PRSWM1Q02    003PRSWM1
0250106140999992000010700554+49430+007600FM-15+0238ETAR V0202401N003110027019N0050001N1+00601+00601102331ADDGD13991+0027099GD24991+0054099GF108991999999999999999999MA1102271999999MW1101MW2611REMMET120METAR ETAR 070055Z 24006KT 5000 -RA BR BKN009 OVC018 06/06 A3020 RMK PK WND 25010/44 SLP233 CIG009 8/5// 9/8// WR// GRN;EQDQ01+000003PRSWM1Q02    003PRSWM1
0248106140999992000010701554+49430+007600FM-15+0238ETAR V0202301N003110018019N0032001N1+00601+00601102381ADDGD13991+0018099GD24991+0030099GF108991999999999999999999MA1102301999999MW1101MW2611REMMET118ETAR 070155Z COR 23006KT 3200 -RA BR BKN006 OVC010 06/06 A3021 RMK PK WND 24009/01 SLP238 CIG006 8/6// 9/8// WR// YLO;EQDQ01+000003PRSWM1Q02    003PRSWM1
0244106140999992000010702554+49430+007600FM-15+0238ETAR V0202901N001510018019N0032001N1+00601+00601102481ADDGD13991+0018099GD24991+0030099GF108991999999999999999999MA1102401999999MW1101MW2611REMMET114ETAR 070255Z 29003KT 3200 -RA BR BKN006 OVC010 06/06 A3024 RMK PK WND 24008/00 SLP248 CIG006 8/6// 9/8// WR// YLO;EQDQ01+000003PRSWM1Q02    003PRSWM1
0228106140999992000010703554+49430+007600FM-15+0238ETAR V02099999999990015019N0024001N1+00601+00601102481ADDGD14991+0015099GF108991999999999999999999MA1102401999999MW1101MW2611REMMET113METAR ETAR 070355Z VRB04KT 2400 -RA BR OVC005 06/06 A3024 RMK PK WND 28006/58 SLP248 CIG005 8/6// 9/8// WR// YLO;EQDQ01+000003PRSWM1Q02    003PRSWM1
0234106140999992000010704554+49430+007600FM-15+0238ETAR V0202701N001010030019N0024001N1+00601+00601102471ADDGD12991+0015099GD23991+0030099GF107991999999999999999999MA1102401999999MW1101REMMET110ETAR 070455Z 27002KT 2400 BR SCT005 BKN010 06/06 A3024 RMK PK WND 25006/05 SLP247 CIG010 8/6// 9/8// WR// YLO;EQDQ01+000003PRSWM1Q02    003PRSWM1
0244106140999992000010705004+49430+007600FM-15+0238ETAR V0202701N001010030019N0024001N1+00601+00601102471ADDGD12991+0015099GD23991+0030099GF107991999999999999999999MA1102401999999MW1101REMMET120METAR ETAR 070455Z COR 27002KT 2400 BR SCT005 BKN010 06/06 A3024 RMK PK WND 25006/05 SLP247 CIG010 8/600 9/700 WR// YLO;EQDQ01+000003PRSWM1Q02    003PRSWM1
0278106140999992000010707004+49430+007600FM-15+0238ETAR V0202301N001510030019N0020001N1+00401+00401102601ADDGD12991+0001599GD22991+0015099GD33991+0030099GD43991+0090099GF107991999999999999999999MA1102511999999MW1101REMMET124ETAR 070655Z 23003KT 2000 BR FEW000 SCT005 BKN010 BKN030 04/04 A3027 RMK PK WND 24005/12 SLP260 CIG010 8/500 9/700 WR// YLO;EQDQ01+000003PRSWM1Q02    003PRSWM1
0220106140999992000010707174+49430+007600FM-16+0238ETAR V0202301N001510030019N0030001N1+00401+00401999999ADDGD12991+0001599GD23991+0030099GF107991999999999999999999MA1102541999999MW1101REMMET096ETAR 070717Z COR 23003KT 3000 BR SCT000 BKN010 04/04 A3028 RMK VIS LWR SW BR SCT000 CIG010 WR//;EQDQ01+000003PRSWM1Q02    003PRSWM1
0205106140999992000010707284+49430+007600FM-16+0238ETAR V0202301N001510039019N0050001N1+00501+00501999999ADDGD12991+0001599GD23991+0039099GF107991999999999999999999MA1102541999999MW1101REMMET081ETAR 070728Z 23003KT 5000 BR FEW000 BKN013 05/05 A3028 RMK BR SCT000 CIG013 WR//;EQDQ01+000003PRSWM1Q02    003PRSWM1
0234106140999992000010708004+49430+007600FM-15+0238ETAR V0203101N001010120019N0080001N1+00501+00501102621ADDGD12991+0039099GD23991+0120099GF107991999999999999999999MA1102541999999MW1101REMMET110ETAR 070755Z 31002KT 8000 BR SCT013 BKN040 05/05 A3028 RMK PK WND 22006/15 SLP262 CIG040 8/500 9/600 WR// BLU;EQDQ01+000003PRSWM1Q02    003PRSWM1
0212106140999992000010708424+49430+007600FM-16+0238ETAR V0202301N001510090019N0040001N1+00501+00501999999ADDGD12991+0030099GD24991+0090099GF108991999999999999999999MA1102611999999MW1101REMMET088ETAR 070842Z 23003KT 4000 BR SCT010 OVC030 05/05 A3030 RMK SCT010 V BKN CIG030 WR// GRN;EQDQ01+000003PRSWM1Q02    003PRSWM1
0247106140999992000010709004+49430+007600FM-15+0238ETAR V0202501N002110090019N0040001N1+00501+00501102691ADDGD12991+0030099GD24991+0090099GF108991999999999999999999MA1102611999999MW1101REMMET123ETAR 070855Z 25004KT 4000 BR SCT010 OVC030 05/05 A3030 RMK PK WND 26004/54 SLP269 SCT010 V BKN CIG030 8/5// 9/8// WR// GRN;EQDQ01+000003PRSWM1Q02    003PRSWM1
0212106140999992000010709124+49430+007600FM-16+0238ETAR V0203001N002110090019N0050001N1+00501+00501999999ADDGD12991+0030099GD24991+0090099GF108991999999999999999999MA1102611999999MW1101REMMET088ETAR 070912Z 30004KT 5000 BR SCT010 OVC030 05/05 A3030 RMK SCT010 V BKN CIG030 WR// WHT;EQDQ01+000003PRSWM1Q02    003PRSWM1
0199106140999992000010709254+49430+007600FM-15+0238ETAR V0202901N001510030019N0040001N1+00501+00501999999ADDGD13991+0030099GD24991+0090099GF108991999999999999999999MA1102641999999MW1101REMMET075ETAR 070925Z 29003KT 4000 BR BKN010 OVC030 05/05 A3031 RMK CIG010 WR// GRN;EQDQ01+000003PRSWM1Q02    003PRSWM1
0199106140999992000010709384+49430+007600FM-16+0238ETAR V0202801N001510105019N0050001N1+00601+00501999999ADDGD12991+0030099GD23991+0105099GF107991999999999999999999MA1102611999999MW1101REMMET075ETAR 070938Z 28003KT 5000 BR SCT010 BKN035 06/05 A3030 RMK CIG035 WR// WHT;EQDQ01+000003PRSWM1Q02    003PRSWM1
0234106140999992000010709554+49430+007600FM-15+0238ETAR V0202501N002110105019N0080001N1+00601+00501102681ADDGD12991+0030099GD23991+0105099GF107991999999999999999999MA1102611999999MW1101REMMET110ETAR 070955Z 25004KT 8000 BR SCT010 BKN035 06/05 A3030 RMK PK WND 27006/37 SLP268 CIG035 8/500 9/700 WR// BLU;EQDQ01+000003PRSWM1Q02    003PRSWM1
0256106140999992000010710554+49430+007600FM-15+0238ETAR V0202901N002610105019N0080001N1+00701+00501102651ADDGD12991+0024099GD23991+0105099GD33991+0240099GF107991999999999999999999MA1102571999999MW1101REMMET117ETAR 071055Z 29005KT 8000 BR SCT008 BKN035 BKN080 07/05 A3029 RMK PK WND 28008/41 SLP265 CIG035 8/570 9/610 WR// BLU;EQDQ01+000003PRSWM1Q02    003PRSWM1
0237106140999992000010711554+49430+007600FM-15+0238ETAR V0202801N002110090019N0112651N1+00701+00601102581ADDGD12991+0030099GD22991+0090099GD33991+0240099GF107991999999999999999999MA1102511999999MW1001REMMET114ETAR 071155Z 28004KT 9999 SCT010 SCT030 BKN080 07/06 A3027 RMK PK WND 26009/06 SLP258 CIG030 8/570 9/610 WR// BLU;EQDQ01+000000PRSWM2
0237106140999992000010712554+49430+007600FM-15+0238ETAR V0202801N001510090019N0112651N1+00801+00501102501ADDGD12991+0036099GD23991+0090099GD33991+0240099GF107991999999999999999999MA1102441999999MW1001REMMET114ETAR 071255Z 28003KT 9999 SCT012 BKN030 BKN080 08/05 A3025 RMK PK WND 27008/24 SLP250 CIG030 8/570 9/610 WR// BLU;EQDQ01+000000PRSWM2
0237106140999992000010713554+49430+007600FM-15+0238ETAR V0202601N002110099019N0112651N1+00801+00301102461ADDGD12991+0036099GD23991+0099099GD33991+0240099GF107991999999999999999999MA1102401999999MW1001REMMET114ETAR 071355Z 26004KT 9999 SCT012 BKN033 BKN080 08/03 A3024 RMK PK WND 24007/16 SLP246 CIG033 8/570 9/610 WR// BLU;EQDQ01+000000PRSWM2
0237106140999992000010714554+49430+007600FM-15+0238ETAR V0202301N002110099019N0112651N1+00701+00401102471ADDGD12991+0036099GD23991+0099099GD33991+0240099GF107991999999999999999999MA1102401999999MW1001REMMET114ETAR 071455Z 23004KT 9999 SCT012 BKN033 BKN080 07/04 A3024 RMK PK WND 24006/08 SLP247 CIG033 8/570 9/610 WR// BLU;EQDQ01+000000PRSWM2
0237106140999992000010715554+49430+007600FM-15+0238ETAR V0202301N001510099019N0112651N1+00701+00501102441ADDGD12991+0036099GD23991+0099099GD33991+0240099GF107991999999999999999999MA1102371999999MW1001REMMET114ETAR 071555Z 23003KT 9999 SCT012 BKN033 BKN080 07/05 A3023 RMK PK WND 23004/56 SLP244 CIG033 8/570 9/610 WR// BLU;EQDQ01+000000PRSWM2
0237106140999992000010716554+49430+007600FM-15+0238ETAR V0202101N002110099019N0112651N1+00601+00501102421ADDGD12991+0036099GD23991+0099099GD33991+0240099GF107991999999999999999999MA1102371999999MW1001REMMET114ETAR 071655Z 21004KT 9999 SCT012 BKN033 BKN080 06/05 A3023 RMK PK WND 21004/33 SLP242 CIG033 8/570 9/610 WR// BLU;EQDQ01+000000PRSWM2
0237106140999992000010717554+49430+007600FM-15+0238ETAR V0202201N001510117019N0112651N1+00601+00501102451ADDGD12991+0036099GD23991+0117099GD33991+0240099GF107991999999999999999999MA1102371999999MW1001REMMET114ETAR 071755Z 22003KT 9999 SCT012 BKN039 BKN080 06/05 A3023 RMK PK WND 22004/56 SLP245 CIG039 8/570 9/610 WR// BLU;EQDQ01+000000PRSWM2
0256106140999992000010719004+49430+007600FM-15+0238ETAR V0202401N002110117019N0060001N1+00601+00501102411ADDGD12991+0036099GD23991+0117099GD33991+0240099GF107991999999999999999999MA1102341999999MW1101REMMET117ETAR 071855Z 24004KT 6000 BR SCT012 BKN039 BKN080 06/05 A3022 RMK PK WND 21005/11 SLP241 CIG039 8/570 9/610 WR// WHT;EQDQ01+000003PRSWM1Q02    003PRSWM1
0234106140999992000010719554+49430+007600FM-15+0238ETAR V0202401N002610117019N0060001N1+00601+00501102411ADDGD12991+0036099GD23991+0117099GF107991999999999999999999MA1102341999999MW1101REMMET110ETAR 071955Z 24005KT 6000 BR SCT012 BKN039 06/05 A3022 RMK PK WND 23005/00 SLP241 CIG039 8/500 9/700 WR// WHT;EQDQ01+000003PRSWM1Q02    003PRSWM1
0244106140999992000010720554+49430+007600FM-15+0238ETAR V0202701N001510120019N0060001N1+00501+00501102411ADDGD12991+0045099GD23991+0120099GF107991999999999999999999MA1102341999999MW1101REMMET120METAR ETAR 072055Z COR 27003KT 6000 BR SCT015 BKN040 05/05 A3022 RMK PK WND 24006/28 SLP241 CIG040 8/500 9/700 WR// WHT;EQDQ01+000003PRSWM1Q02    003PRSWM1
0234106140999992000010721554+49430+007600FM-15+0238ETAR V02099999999990120019N0060001N1+00501+00501102381ADDGD12991+0045099GD23991+0120099GF107991999999999999999999MA1102301999999MW1101REMMET110ETAR 072155Z VRB04KT 6000 BR SCT015 BKN040 05/05 A3021 RMK PK WND 22005/34 SLP238 CIG040 8/500 9/700 WR// WHT;EQDQ01+000003PRSWM1Q02    003PRSWM1
0234106140999992000010722554+49430+007600FM-15+0238ETAR V0202701N002610120019N0060001N1+00401+00401102381ADDGD12991+0045099GD23991+0120099GF107991999999999999999999MA1102301999999MW1101REMMET110ETAR 072255Z 27005KT 6000 BR FEW015 BKN040 04/04 A3021 RMK PK WND 27007/47 SLP238 CIG040 8/500 9/700 WR// WHT;EQDQ01+000003PRSWM1Q02    003PRSWM1
0234106140999992000010723554+49430+007600FM-15+0238ETAR V0202501N003110105019N0060001N1+00501+00401102331ADDGD12991+0045099GD23991+0105099GF107991999999999999999999MA1102271999999MW1101REMMET110ETAR 072355Z 25006KT 6000 BR FEW015 BKN035 05/04 A3020 RMK PK WND 26008/10 SLP233 CIG035 8/500 9/700 WR// WHT;EQDQ01+000003PRSWM1Q02    003PRSWM1
0234106140999992000010801004+49430+007600FM-15+0238ETAR V0202501N002610090019N0060001N1+00501+00401102301ADDGD12991+0045099GD24991+0090099GF108991999999999999999999MA1102241999999MW1101REMMET110ETAR 080055Z 25005KT 6000 BR SCT015 OVC030 05/04 A3019 RMK PK WND 24010/38 SLP230 CIG030 8/5// 9/8// WR// WHT;EQDQ01+000003PRSWM1Q02    003PRSWM1
0199106140999992000010801454+49430+007600FM-15+0238ETAR V0202501N003110081019N0060001N1+00501+00401999999ADDGD12991+0030099GD24991+0081099GF108991999999999999999999MA1102241999999MW1101REMMET075ETAR 080145Z 25006KT 6000 BR FEW010 OVC027 05/04 A3019 RMK CIG027 WR// WHT;EQDQ01+000003PRSWM1Q02    003PRSWM1
0234106140999992000010801554+49430+007600FM-15+0238ETAR V0202401N003610081019N0060001N1+00501+00401102301ADDGD12991+0030099GD24991+0081099GF108991999999999999999999MA1102241999999MW1101REMMET110ETAR 080155Z 24007KT 6000 BR FEW010 OVC027 05/04 A3019 RMK PK WND 24011/55 SLP230 CIG027 8/5// 9/8// WR// WHT;EQDQ01+000003PRSWM1Q02    003PRSWM1
0215106140999992000010802554+49430+007600FM-15+0238ETAR V0202501N006210075019N0112651N1+00501+00101102301ADDGD12991+0030099GD23991+0075099GF107991999999999999999999MA1102241999999MW1001REMMET107ETAR 080255Z 25012KT 9999 FEW010 BKN025 05/01 A3019 RMK PK WND 25016/14 SLP230 CIG025 8/500 9/700 WR// BLU;EQDQ01+000000PRSWM2
0215106140999992000010803554+49430+007600FM-15+0238ETAR V0202301N004610075019N0112651N1+00501+00201102261ADDGD12991+0030099GD23991+0075099GF107991999999999999999999MA1102201999999MW1001REMMET107ETAR 080355Z 23009KT 9999 FEW010 BKN025 05/02 A3018 RMK PK WND 24013/56 SLP226 CIG025 8/500 9/700 WR// BLU;EQDQ01+000000PRSWM2
0215106140999992000010804554+49430+007600FM-15+0238ETAR V0202501N003110075019N0112651N1+00501+00201102261ADDGD12991+0030099GD23991+0075099GF107991999999999999999999MA1102201999999MW1001REMMET107ETAR 080455Z 25006KT 9999 FEW010 BKN025 05/02 A3018 RMK PK WND 24012/13 SLP226 CIG025 8/500 9/700 WR// BLU;EQDQ01+000000PRSWM2
0172106140999992000010805474+49430+007600FM-16+0238ETAR V0209999V002612200019N0112651N1+00401+00101999999ADDGD12991+0030099GD22991+0075099GF104991999999999999999999MA1102171999999MW1001REMMET064ETAR 080547Z COR VRB05KT 9999 FEW010 SCT025 04/01 A3017 RMK BLU;EQDQ01+000000PRSWM2
0203106140999992000010805554+49430+007600FM-15+0238ETAR V02099999999992200019N0112651N1+00401+00101102241ADDGD12991+0030099GD22991+0075099GF104991999999999999999999MA1102171999999MW1001REMMET095ETAR 080555Z VRB06KT 9999 FEW010 SCT025 04/01 A3017 RMK PK WND 27009/00 SLP224 8/500 9/300 BLU;EQDQ01+000000PRSWM2
0203106140999992000010806554+49430+007600FM-15+0238ETAR V0202801N002110600019N0112651N1+00401+00201102311ADDGD12991+0075099GD23991+0600099GF107991999999999999999999MA1102241999999MW1001REMMET095ETAR 080655Z 28004KT 9999 SCT025 BKN200 04/02 A3019 RMK PK WND 25007/06 SLP231 8/508 9/304 BLU;EQDQ01+000000PRSWM2
0214106140999992000010807004+49430+007600FM-15+0238ETAR V0202801N002110600019N0112651N1+00401+00201102311ADDGD12991+0075099GD23991+0600099GF107991999999999999999999MA1102241999999MW1001REMMET106ETAR 080655Z COR 28004KT 9999 SCT025 BKN200 04/02 A3019 RMK PK WND 25007/06 SLP231 CIG200 8/508 9/304 BLU;EQDQ01+000000PRSWM2
0244106140999992000010807554+49430+007600FM-15+0238ETAR V0202501N004610075019N0090001N1+00401+00301102361ADDGD12991+0033099GD23991+0075099GD34991+0600099GF108991999999999999999999MA1102301999999MW1101REMMET105ETAR 080755Z 25009KT 9000 BR FEW011 BKN025 OVC200 04/03 A3021 RMK PK WND 23013/28 SLP236 8/507 9/701 BLU;EQDQ01+000003PRSWM1Q02    003PRSWM1
0255106140999992000010808004+49430+007600FM-15+0238ETAR V0202501N004610075019N0090001N1+00401+00301102361ADDGD12991+0033099GD23991+0075099GD34991+0600099GF108991999999999999999999MA1102301999999MW1101REMMET116ETAR 080755Z COR 25009KT 9000 BR FEW011 BKN025 OVC200 04/03 A3021 RMK PK WND 23013/28 SLP236 CIG025 8/507 9/701 BLU;EQDQ01+000003PRSWM1Q02    003PRSWM1
0200106140999992000010808554+49430+007600FM-15+0238ETAR V02099999999990075019N0090001N1+00401+00301102361ADDGD14991+0075099GF108991999999999999999999MA1102271999999MW1101REMMET091ETAR 080855Z VRB05KT 9000 BR OVC025 04/03 A3020 RMK PK WND 25011/04 SLP236 8/5// 9/8// BLU;EQDQ01+000003PRSWM1Q02    003PRSWM1
0211106140999992000010809004+49430+007600FM-15+0238ETAR V0209999V002610075019N0090001N1+00401+00301102361ADDGD14991+0075099GF108991999999999999999999MA1102271999999MW1101REMMET102ETAR 080855Z COR VRB05KT 9000 BR OVC025 04/03 A3020 RMK PK WND 25011/04 SLP236 CIG025 8/5// 9/8// BLU;EQDQ01+000003PRSWM1Q02    003PRSWM1
0222106140999992000010809554+49430+007600FM-15+0238ETAR V02099999999990075019N0090001N1+00501+00301102331ADDGD13991+0075099GD23991+0600099GF107991999999999999999999MA1102271999999MW1101REMMET098ETAR 080955Z VRB05KT 9000 BR BKN025 BKN200 05/03 A3020 RMK PK WND 23010/33 SLP233 8/508 9/502 BLU;EQDQ01+000003PRSWM1Q02    003PRSWM1
0233106140999992000010810004+49430+007600FM-15+0238ETAR V0209999V002610075019N0090001N1+00501+00301102331ADDGD13991+0075099GD23991+0600099GF107991999999999999999999MA1102271999999MW1101REMMET109ETAR 080955Z COR VRB05KT 9000 BR BKN025 BKN200 05/03 A3020 RMK PK WND 23010/33 SLP233 CIG025 8/508 9/502 BLU;EQDQ01+000003PRSWM1Q02    003PRSWM1
0203106140999992000010810554+49430+007600FM-15+0238ETAR V0202401N003610075019N0112651N1+00501+00401102321ADDGD13991+0075099GD23991+0600099GF107991999999999999999999MA1102241999999MW1001REMMET095ETAR 081055Z 24007KT 9999 BKN025 BKN200 05/04 A3019 RMK PK WND 25014/22 SLP232 8/508 9/502 BLU;EQDQ01+000000PRSWM2
0214106140999992000010811004+49430+007600FM-15+0238ETAR V0202401N003610075019N0112651N1+00501+00401102321ADDGD13991+0075099GD23991+0600099GF107991999999999999999999MA1102241999999MW1001REMMET106ETAR 081055Z COR 24007KT 9999 BKN025 BKN200 05/04 A3019 RMK PK WND 25014/22 SLP232 CIG025 8/508 9/502 BLU;EQDQ01+000000PRSWM2
0192106140999992000010812004+49430+007600FM-15+0238ETAR V0202301N004110075019N0112651N1+00601+00401102261ADDGD14991+0075099GF108991999999999999999999MA1102201999999MW1001REMMET099ETAR 081155Z COR 23008KT 9999 OVC025 06/04 A3018 RMK PK WND 24014/09 SLP226 CIG025 8/5// 9/8// BLU;EQDQ01+000000PRSWM2
0179106140999992000010812184+49430+007600FM-16+0238ETAR V0202401N003610075019N0090001N1+00601+00401999999ADDGD14991+0075099GF108991999999999999999999MA1102201999999MW1801REMMET070ETAR 081218Z COR 24007KT 9000 -SHRA OVC025 06/04 A3018 RMK CIG025 BLU;EQDQ01+000003PRSWM1Q02    003PRSWM1
0156106140999992000010812464+49430+007600FM-16+0238ETAR V0202501N002110075019N0112651N1+00501+00501999999ADDGD14991+0075099GF108991999999999999999999MA1102201999999MW1001REMMET063ETAR 081246Z COR 25004KT 9999 OVC025 05/05 A3018 RMK CIG025BLU;EQDQ01+000000PRSWM2
0192106140999992000010812554+49430+007600FM-15+0238ETAR V0202501N002110075019N0112651N1+00501+00501102261ADDGD14991+0075099GF108991999999999999999999MA1102201999999MW1001REMMET099ETAR 081255Z COR 25004KT 9999 OVC025 05/05 A3018 RMK PK WND 24010/23 SLP226 CIG025 8/5// 9/8// BLU;EQDQ01+000000PRSWM2
0222106140999992000010813554+49430+007600FM-15+0238ETAR V0202501N003110075019N0080001N1+00601+00501102241ADDGD14991+0075099GF108991999999999999999999MA1102171999999MW1101MW2511REMMET107ETAR 081355Z 25006KT 8000 -DZ BR OVC025 06/05 A3017 RMK PK WND 25007/49 SLP224 CIG025 8/5// 9/8// WR// BLU;EQDQ01+000003PRSWM1Q02    003PRSWM1
0226106140999992000010815004+49430+007600FM-15+0238ETAR V0209999V003110075019N0080001N1+00601+00501102201ADDGD14991+0075099GF108991999999999999999999MA1102131999999MW1101MW2511REMMET111ETAR 081455Z COR VRB06KT 8000 -DZ BR OVC025 06/05 A3016 RMK PK WND 26007/13 SLP220 CIG025 8/5// 9/8// WR// BLU;EQDQ01+000003PRSWM1Q02    003PRSWM1
0198106140999992000010815224+49430+007600FM-16+0238ETAR V0202401N003610075019N0080001N1+00601+00501999999ADDGD12991+0045099GD24991+0075099GF108991999999999999999999MA1102201999999MW1101REMMET074ETAR 081522Z COR 24007KT 8000 BR FEW015 OVC025 06/05 A3018 RMK CIG025 BLU;EQDQ01+000003PRSWM1Q02    003PRSWM1
0234106140999992000010816004+49430+007600FM-15+0238ETAR V0202501N003110075019N0080001N1+00601+00501102241ADDGD12991+0045099GD24991+0075099GF108991999999999999999999MA1102171999999MW1101REMMET110ETAR 081555Z 25006KT 8000 BR SCT015 OVC025 06/05 A3017 RMK PK WND 25008/16 SLP224 CIG025 8/5// 9/8// WR// BLU;EQDQ01+000003PRSWM1Q02    003PRSWM1
0204106140999992000010816204+49430+007600FM-15+0238ETAR V0202301N002610075019N0080001N1+00601+00501999999ADDGD12991+0045099GD24991+0075099GF108991999999999999999999MA1102201999999MW1101MW2511REMMET074ETAR 081620Z 23005KT 8000 -DZ BR SCT015 OVC025 06/05 A3018 RMK CIG025 BLU;EQDQ01+000003PRSWM1Q02    003PRSWM1
0244106140999992000010816554+49430+007600FM-15+0238ETAR V0202301N002610075019N0080001N1+00601+00501102261ADDGD12991+0045099GD24991+0075099GF108991999999999999999999MA1102201999999MW1101MW2511REMMET114ETAR 081655Z 23005KT 8000 -DZ BR SCT015 OVC025 06/05 A3018 RMK PK WND 25006/56 SLP226 CIG025 8/5// 9/8// WR// BLU;EQDQ01+000003PRSWM1Q02    003PRSWM1
0254106140999992000010817554+49430+007600FM-15+0238ETAR V0209999V002610033019N0060001N1+00601+00501102241ADDGD13991+0033099GD24991+0075099GF108991999999999999999999MA1102171999999MW1101MW2511REMMET124ETAR 081755Z COR VRB05KT 6000 -DZ BR BKN011 OVC025 06/05 A3017 RMK PK WND 23005/00 SLP224 CIG011 60003 8/5// 9/8// WR// GRN;EQDQ01+000003PRSWM1Q02    003PRSWM1
0244106140999992000010818554+49430+007600FM-15+0238ETAR V02099999999990033019N0060001N1+00601+00501102241ADDGD13991+0033099GD24991+0075099GF108991999999999999999999MA1102171999999MW1101MW2511REMMET114ETAR 081855Z VRB04KT 6000 -DZ BR BKN011 OVC025 06/05 A3017 RMK PK WND 22005/56 SLP224 CIG011 8/5// 9/8// WR// GRN;EQDQ01+000003PRSWM1Q02    003PRSWM1
0244106140999992000010819554+49430+007600FM-15+0238ETAR V0202501N002610033019N0050001N1+00601+00501102241ADDGD13991+0033099GD24991+0075099GF108991999999999999999999MA1102171999999MW1101MW2511REMMET114ETAR 081955Z 25005KT 5000 -DZ BR BKN011 OVC025 06/05 A3017 RMK PK WND 25006/30 SLP224 CIG011 8/5// 9/8// WR// GRN;EQDQ01+000003PRSWM1Q02    003PRSWM1
0244106140999992000010820554+49430+007600FM-15+0238ETAR V0202401N002110033019N0050001N1+00601+00601102221ADDGD13991+0033099GD24991+0075099GF108991999999999999999999MA1102171999999MW1101MW2511REMMET114ETAR 082055Z 24004KT 5000 -DZ BR BKN011 OVC025 06/06 A3017 RMK PK WND 25006/02 SLP222 CIG011 8/5// 9/8// WR// GRN;EQDQ01+000003PRSWM1Q02    003PRSWM1
0214106140999992000010821484+49430+007600FM-16+0238ETAR V0202401N001510033019N0050001N1+00601+00601999999ADDGD12991+0021099GD24991+0033099GF108991999999999999999999MA1102171999999MW1511REMMET074ETAR 082148Z 24003KT 5000 -DZ BR SCT007 OVC011 06/06 A3017 RMK CIG011 GRN;EQDQ01+000100PRSWM3Q02+000003PRSWM1Q03    003PRSWM1
0244106140999992000010821554+49430+007600FM-15+0238ETAR V0202401N001510033019N0050001N1+00601+00601102221ADDGD12991+0021099GD24991+0033099GF108991999999999999999999MA1102171999999MW1101MW2511REMMET114ETAR 082155Z 24003KT 5000 -DZ BR SCT007 OVC011 06/06 A3017 RMK PK WND 25006/08 SLP222 CIG011 8/6// 9/8// WR// GRN;EQDQ01+000003PRSWM1Q02    003PRSWM1
0244106140999992000010822554+49430+007600FM-15+0238ETAR V02099999999990021019N0032001N1+00501+00501102191ADDGD13991+0021099GD24991+0033099GF108991999999999999999999MA1102131999999MW1101MW2611REMMET114ETAR 082255Z VRB01KT 3200 -RA BR BKN007 OVC011 05/05 A3016 RMK PK WND 24004/59 SLP219 CIG007 8/6// 9/8// WR// YLO;EQDQ01+000003PRSWM1Q02    003PRSWM1
0250106140999992000010823554+49430+007600FM-15+0238ETAR V0203001N001510021019N0024001N1+00501+00501102171ADDGD13991+0021099GD24991+0033099GF108991999999999999999999MA1102101999999MW1101MW2511REMMET120ETAR 082355Z 30003KT 2400 -DZ BR BKN007 OVC011 05/05 A3015 RMK PK WND 26005/40 SLP217 CIG007 60003 8/6// 9/8// WR// YLO;EQDQ01+000003PRSWM1Q02    003PRSWM1
0232106140999992000010900334+49430+007600FM-15+0238ETAR V02099999999990012019N0008001N1+00501+00501999999ADDGD12991+0006099GD23991+0012099GD34991+0027099GF108991999999999999999999MA1102101999999MW1101MW2511REMMET087METAR ETAR 090133Z VRB02KT 0800 -DZ BR FEW002 BKN004 OVC009 05/05 A3015 RMK CIG004 AMB;EQDQ01+000003PRSWM1Q02    003PRSWM1
0240106140999992000010901334+49430+007600FM-16+0238ETAR V0209999V001010012019N0008001N1+00501+00501999999ADDGD12991+0006099GD23991+0012099GD34991+0027099GF108991999999999999999999MA1102101999999MW1511REMMET085ETAR 090133Z COR VRB02KT 0800 -DZ FG FEW002 BKN004 OVC009 05/05 A3015 RMK CIG004 AMB;EQDQ01+000440PRSWM3Q02+000003PRSWM1Q03    003PRSWM1
0270106140999992000010901554+49430+007600FM-15+0238ETAR V0209999V000510012019N0008001N1+00501+00501102151ADDGD12991+0006099GD23991+0012099GD34991+0024099GF108991999999999999999999MA1102101999999MW1441MW2511REMMET125ETAR 090155Z COR VRB01KT 0800 -DZ FG FEW002 BKN004 OVC008 05/05 A3015 RMK PK WND 32002/02 SLP215 CIG004 8/6// 9/8// WR// AMB;EQDQ01+000003PRSWM1Q02    003PRSWM1
0266106140999992000010902554+49430+007600FM-15+0238ETAR V02099999999990012019N0008001N1+00501+00501102151ADDGD12991+0006099GD23991+0012099GD34991+0024099GF108991999999999999999999MA1102101999999MW1441MW2511REMMET121ETAR 090255Z VRB01KT 0800 -DZ FG FEW002 BKN004 OVC008 05/05 A3015 RMK PK WND 14002/00 SLP215 CIG004 8/6// 9/8// WR// AMB;EQDQ01+000003PRSWM1Q02    003PRSWM1
0266106140999992000010903554+49430+007600FM-15+0238ETAR V0209999C000010012019N0008001N1+00501+00501102131ADDGD12991+0006099GD23991+0012099GD34991+0024099GF108991999999999999999999MA1102071999999MW1441MW2511REMMET121ETAR 090355Z 00000KT 0800 -DZ FG FEW002 BKN004 OVC008 05/05 A3014 RMK PK WND 10002/05 SLP213 CIG004 8/6// 9/8// WR// AMB;EQDQ01+000003PRSWM1Q02    003PRSWM1
0266106140999992000010905004+49430+007600FM-15+0238ETAR V02099999999990012019N0008001N1+00501+00501102131ADDGD12991+0006099GD23991+0012099GD34991+0024099GF108991999999999999999999MA1102071999999MW1441MW2511REMMET121ETAR 090455Z VRB02KT 0800 -DZ FG SCT002 BKN004 OVC008 05/05 A3014 RMK PK WND 28003/42 SLP213 CIG004 8/6// 9/8// WR// AMB;EQDQ01+000003PRSWM1Q02    003PRSWM1
0214106140999992000010905134+49430+007600FM-16+0238ETAR V0202301N001010012019N0012001N1+00501+00501999999ADDGD12991+0006099GD24991+0012099GF108991999999999999999999MA1102071999999MW1611REMMET074ETAR 090513Z 23002KT 1200 -RA BR SCT002 OVC004 05/05 A3014 RMK CIG004 AMB;EQDQ01+000100PRSWM3Q02+000003PRSWM1Q03    003PRSWM1
0214106140999992000010905404+49430+007600FM-16+0238ETAR V0202201N001010012019N0008001N1+00501+00501999999ADDGD12991+0006099GD24991+0012099GF108991999999999999999999MA1102071999999MW1611REMMET074ETAR 090540Z 22002KT 0800 -RA FG SCT002 OVC004 05/05 A3014 RMK CIG004 AMB;EQDQ01+000440PRSWM3Q02+000003PRSWM1Q03    003PRSWM1
0234106140999992000010908004+49430+007600FM-15+0238ETAR V02099999999990012019N0010001N1+00501+00501102221ADDGD12991+0006099GD24991+0012099GF108991999999999999999999MA1102171999999MW1101REMMET110ETAR 090755Z VRB01KT 1000 BR SCT002 OVC004 05/05 A3017 RMK PK WND 32002/18 SLP222 CIG004 8/6// 9/8// WR// AMB;EQDQ01+000003PRSWM1Q02    003PRSWM1
0234106140999992000010909004+49430+007600FM-15+0238ETAR V02099999999990012019N0016001N1+00601+00501102261ADDGD12991+0006099GD24991+0012099GF108991999999999999999999MA1102201999999MW1101REMMET110ETAR 090855Z VRB02KT 1600 BR SCT002 OVC004 06/05 A3018 RMK PK WND 04003/06 SLP226 CIG004 8/6// 9/8// WR// YLO;EQDQ01+000003PRSWM1Q02    003PRSWM1
0205106140999992000010909184+49430+007600FM-16+0238ETAR V02099999999990012019N0032001N1+00601+00601999999ADDGD13991+0012099GD24991+0024099GF108991999999999999999999MA1102241999999MW1101REMMET081ETAR 090918Z VRB03KT 3200 BR BKN004 OVC008 06/06 A3019 RMK VIS W 4000 CIG004 YLO;EQDQ01+000003PRSWM1Q02    003PRSWM1
0245106140999992000010910004+49430+007600FM-15+0238ETAR V02099999999990012019N0032001N1+00601+00501102301ADDGD13991+0012099GD24991+0024099GF108991999999999999999999MA1102241999999MW1101REMMET121ETAR 090955Z VRB03KT 3200 BR BKN004 OVC008 06/05 A3019 RMK PK WND 04007/34 SLP230 VIS W 5000 CIG004 8/6// 9/8// WR// YLO;EQDQ01+000003PRSWM1Q02    003PRSWM1
0238106140999992000010910284+49430+007600FM-16+0238ETAR V02099999999990015019N0032001N1+00501+00501999999ADDGD13991+0015099GD23991+0030099GD34991+0060099GF108991999999999999999999MA1102271999999MW1801REMMET083ETAR 091028Z VRB04KT 3200 -SHRA BR BKN005 BKN010 OVC020 05/05 A3020 RMK CIG005 YLO;EQDQ01+000100PRSWM3Q02+000003PRSWM1Q03    003PRSWM1
0256106140999992000010910554+49430+007600FM-15+0238ETAR V02099999999990015019N0032001N1+00501+00501102341ADDGD13991+0015099GD23991+0030099GD34991+0060099GF108991999999999999999999MA1102271999999MW1101REMMET117ETAR 091055Z VRB04KT 3200 BR BKN005 BKN010 OVC020 05/05 A3020 RMK PK WND 02007/06 SLP234 CIG005 8/6// 9/8// WR// YLO;EQDQ01+000003PRSWM1Q02    003PRSWM1
0270106140999992000010911004+49430+007600FM-15+0238ETAR V0209999V002110015019N0032001N1+00501+00501102341ADDGD13991+0015099GD23991+0030099GD34991+0060099GF108991999999999999999999MA1102271999999MW1101MW2611REMMET125ETAR 091055Z COR VRB04KT 3200 -RA BR BKN005 BKN010 OVC020 05/05 A3020 RMK PK WND 02007/06 SLP234 CIG005 8/6// 9/8// WR// YLO;EQDQ01+000003PRSWM1Q02    003PRSWM1
0216106140999992000010911464+49430+007600FM-16+0238ETAR V02099999999990015019N0032001N1+00601+00601999999ADDGD13991+0015099GD23991+0030099GD34991+0060099GF108991999999999999999999MA1102271999999MW1101REMMET077ETAR 091146Z VRB04KT 3200 BR BKN005 BKN010 OVC020 06/06 A3020 RMK CIG005 YLO;EQDQ01+000003PRSWM1Q02    003PRSWM1
0262106140999992000010912004+49430+007600FM-15+0238ETAR V02099999999990015019N0032001N1+00501+00501102331ADDGD13991+0015099GD23991+0030099GD34991+0060099GF108991999999999999999999MA1102271999999MW1101REMMET123ETAR 091155Z VRB05KT 3200 BR BKN005 BKN010 OVC020 05/05 A3020 RMK PK WND 04008/38 SLP233 CIG005 60003 8/6// 9/8// WR// YLO;EQDQ01+000003PRSWM1Q02    003PRSWM1
0240106140999992000010912354+49430+007600FM-16+0238ETAR V0209999V001510015019N0032001N1+00501+00501999999ADDGD13991+0015099GD23991+0030099GD34991+0060099GF108991999999999999999999MA1102271999999MW1611REMMET085ETAR 091235Z COR VRB03KT 3200 -RA BR BKN005 BKN010 OVC020 05/05 A3020 RMK CIG005 YLO;EQDQ01+000100PRSWM3Q02+000003PRSWM1Q03    003PRSWM1
0157106140999992000010912554+49430+007600FM-15+0238ETAR V0209999999999001501CN0112651N1+99999+99999999999ADDMW1001REMMET120ETAR 091255Z RB04KT 3200 -RA BR BKN005 BKN010 OVC020 05/05 A3020 RMK PK WND 01007/59 SLP234 CIG005 8/6// 9/8// WR// YLO;EQDQ01+000000PRSWM2
0236106140999992000010913514+49430+007600FM-16+0238ETAR V02099999999990030019N0040001N1+00501+00501999999ADDGD12991+0015099GD23991+0030099GD34991+0060099GF108991999999999999999999MA1102301999999MW1611REMMET081ETAR 091351Z VRB02KT 4000 -RA BR SCT005 BKN010 OVC020 05/05 A3021 RMK CIG010 GRN;EQDQ01+000100PRSWM3Q02+000003PRSWM1Q03    003PRSWM1
0266106140999992000010913584+49430+007600FM-15+0238ETAR V02099999999990030019N0060001N1+00501+00501102401ADDGD12991+0015099GD23991+0030099GD34991+0060099GF108991999999999999999999MA1102341999999MW1101MW2611REMMET121ETAR 091358Z VRB02KT 6000 -RA BR SCT005 BKN010 OVC020 05/05 A3022 RMK PK WND 06006/16 SLP240 CIG010 8/7// 9/8// WR// GRN;EQDQ01+000003PRSWM1Q02    003PRSWM1
0266106140999992000010914554+49430+007600FM-15+0238ETAR V02099999999990030019N0090001N1+00501+00501102431ADDGD12991+0015099GD23991+0030099GD34991+0060099GF108991999999999999999999MA1102371999999MW1101MW2611REMMET121ETAR 091455Z VRB03KT 9000 -RA BR SCT005 BKN010 OVC020 05/05 A3023 RMK PK WND 04004/52 SLP243 CIG010 8/7// 9/8// WR// GRN;EQDQ01+000003PRSWM1Q02    003PRSWM1
0244106140999992000010915554+49430+007600FM-15+0238ETAR V02099999999990030019N0090001N1+00501+00501102501ADDGD12991+0015099GD24991+0030099GF108991999999999999999999MA1102441999999MW1101MW2611REMMET114ETAR 091555Z VRB03KT 9000 -RA BR SCT005 OVC010 05/05 A3025 RMK PK WND 06005/36 SLP250 CIG010 8/7// 9/8// WR// GRN;EQDQ01+000003PRSWM1Q02    003PRSWM1
0266106140999992000010916554+49430+007600FM-15+0238ETAR V02099999999990030019N0090001N1+00501+00401102611ADDGD12991+0015099GD23991+0030099GD34991+0060099GF108991999999999999999999MA1102541999999MW1101MW2611REMMET121ETAR 091655Z VRB04KT 9000 -RA BR SCT005 BKN010 OVC020 05/04 A3028 RMK PK WND 05008/43 SLP261 CIG010 8/7// 9/8// WR// GRN;EQDQ01+000003PRSWM1Q02    003PRSWM1
0250106140999992000010917554+49430+007600FM-15+0238ETAR V02099999999990030019N0080001N1+00401+00401102691ADDGD12991+0015099GD24991+0030099GF108991999999999999999999MA1102611999999MW1101MW2611REMMET120ETAR 091755Z VRB04KT 8000 -RA BR SCT005 OVC010 04/04 A3030 RMK PK WND 02008/28 SLP269 CIG010 60009 8/7// 9/8// WR// GRN;EQDQ01+000003PRSWM1Q02    003PRSWM1
0244106140999992000010918554+49430+007600FM-15+0238ETAR V02099999999990030019N0060001N1+00401+00301102741ADDGD12991+0015099GD24991+0030099GF108991999999999999999999MA1102641999999MW1101MW2611REMMET114ETAR 091855Z VRB03KT 6000 -RA BR SCT005 OVC010 04/03 A3031 RMK PK WND 05007/25 SLP274 CIG010 8/7// 9/8// WR// GRN;EQDQ01+000003PRSWM1Q02    003PRSWM1
0222106140999992000010919554+49430+007600FM-15+0238ETAR V02099999999990030019N0050001N1+00301+00301102811ADDGD14991+0030099GF108991999999999999999999MA1102711999999MW1101MW2611REMMET107ETAR 091955Z VRB02KT 5000 -RA BR OVC010 03/03 A3033 RMK PK WND 06005/28 SLP281 CIG010 8/7// 9/8// WR// GRN;EQDQ01+000003PRSWM1Q02    003PRSWM1
0222106140999992000010920554+49430+007600FM-15+0238ETAR V02099999999990030019N0050001N1+00401+00401102811ADDGD14991+0030099GF108991999999999999999999MA1102741999999MW1101MW2611REMMET107ETAR 092055Z VRB04KT 5000 -RA BR OVC010 04/04 A3034 RMK PK WND 03008/27 SLP281 CIG010 8/7// 9/8// WR// GRN;EQDQ01+000003PRSWM1Q02    003PRSWM1
0244106140999992000010921554+49430+007600FM-15+0238ETAR V02099999999990030019N0050001N1+00301+00301102911ADDGD13991+0030099GD24991+0090099GF108991999999999999999999MA1102841999999MW1101MW2611REMMET114ETAR 092155Z VRB03KT 5000 -RA BR BKN010 OVC030 03/03 A3037 RMK PK WND 05007/04 SLP291 CIG010 8/5// 9/8// WR// GRN;EQDQ01+000003PRSWM1Q02    003PRSWM1
0244106140999992000010923004+49430+007600FM-15+0238ETAR V02099999999990030019N0060001N1+00301+00301102981ADDGD13991+0030099GD24991+0090099GF108991999999999999999999MA1102911999999MW1101MW2611REMMET114ETAR 092255Z VRB05KT 6000 -RA BR BKN010 OVC030 03/03 A3039 RMK PK WND 06010/28 SLP298 CIG010 8/5// 9/8// WR// GRN;EQDQ01+000003PRSWM1Q02    003PRSWM1
0214106140999992000010923274+49430+007600FM-16+0238ETAR V02099999999990048019N0060001N1+00301+00301999999ADDGD13991+0048099GD24991+0090099GF108991999999999999999999MA1102911999999MW1611REMMET074ETAR 092327Z VRB03KT 6000 -RA BR BKN016 OVC030 03/03 A3039 RMK CIG016 WHT;EQDQ01+000100PRSWM3Q02+000003PRSWM1Q03    003PRSWM1
0250106140999992000011000004+49430+007600FM-15+0238ETAR V02099999999990048019N0060001N1+00301+00301103021ADDGD13991+0048099GD24991+0090099GF108991999999999999999999MA1102951999999MW1101MW2611REMMET120ETAR 092355Z VRB02KT 6000 -RA BR BKN016 OVC030 03/03 A3040 RMK PK WND 04007/00 SLP302 CIG016 60014 8/5// 9/8// WR// WHT;EQDQ01+000003PRSWM1Q02    003PRSWM1
0236106140999992000011000344+49430+007600FM-16+0238ETAR V02099999999990105019N0080001N1+00301+00301999999ADDGD12991+0048099GD23991+0105099GD34991+0300099GF108991999999999999999999MA1102951999999MW1611REMMET081ETAR 100034Z VRB02KT 8000 -RA BR SCT016 BKN035 OVC100 03/03 A3040 RMK CIG035 BLU;EQDQ01+000100PRSWM3Q02+000003PRSWM1Q03    003PRSWM1
0266106140999992000011000554+49430+007600FM-15+0238ETAR V02099999999990105019N0080001N1+00301+00301103051ADDGD12991+0048099GD23991+0105099GD34991+0300099GF108991999999999999999999MA1102981999999MW1101MW2611REMMET121ETAR 100055Z VRB03KT 8000 -RA BR SCT016 BKN035 OVC100 03/03 A3041 RMK PK WND 06007/14 SLP305 CIG035 8/52/ 9/62/ WR// BLU;EQDQ01+000003PRSWM1Q02    003PRSWM1
0266106140999992000011001554+49430+007600FM-15+0238ETAR V02099999999990300019N0080001N1+00301+00301103121ADDGD12991+0048099GD22991+0105099GD34991+0300099GF108991999999999999999999MA1103051999999MW1101MW2611REMMET121ETAR 100155Z VRB04KT 8000 -RA BR FEW016 SCT035 OVC100 03/03 A3043 RMK PK WND 06009/05 SLP312 CIG100 8/52/ 9/44/ WR// BLU;EQDQ01+000003PRSWM1Q02    003PRSWM1
0244106140999992000011003004+49430+007600FM-15+0238ETAR V02099999999990300019N0090001N1+00201+00201103151ADDGD12991+0105099GD24991+0300099GF108991999999999999999999MA1103051999999MW1101MW2611REMMET114ETAR 100255Z VRB03KT 9000 -RA BR SCT035 OVC100 02/02 A3043 RMK PK WND 05007/02 SLP315 CIG100 8/52/ 9/35/ WR// BLU;EQDQ01+000003PRSWM1Q02    003PRSWM1
0216106140999992000011003174+49430+007600FM-16+0238ETAR V02099999999990300019N0080001N1+00201+00201999999ADDGD12991+0030099GD22991+0105099GD33991+0300099GF107991999999999999999999MA1103081999999MW1101REMMET077ETAR 100317Z VRB03KT 8000 BR FEW010 SCT035 BKN100 02/02 A3044 RMK CIG100 BLU;EQDQ01+000003PRSWM1Q02    003PRSWM1
0256106140999992000011003554+49430+007600FM-15+0238ETAR V0200301N001010300019N0080001N1+00201+00201103201ADDGD12991+0030099GD22991+0105099GD33991+0300099GF107991999999999999999999MA1103121999999MW1101REMMET117ETAR 100355Z 03002KT 8000 BR FEW010 SCT035 BKN100 02/02 A3045 RMK PK WND 02005/01 SLP320 CIG100 8/520 9/340 WR// BLU;EQDQ01+000003PRSWM1Q02    003PRSWM1
0226106140999992000011004504+49430+007600FM-15+0238ETAR V0200201N001510300019N0080001N1+00201+00201999999ADDGD12991+0030099GD22991+0105099GD34991+0300099GF108991999999999999999999MA1103151999999MW1101MW2611REMMET081ETAR 100450Z 02003KT 8000 -RA BR FEW010 SCT035 OVC100 02/02 A3046 RMK CIG100 BLU;EQDQ01+000003PRSWM1Q02    003PRSWM1
0266106140999992000011004554+49430+007600FM-15+0238ETAR V0200101N001010300019N0080001N1+00201+00201103241ADDGD12991+0030099GD22991+0105099GD34991+0300099GF108991999999999999999999MA1103151999999MW1101MW2611REMMET121ETAR 100455Z 01002KT 8000 -RA BR FEW010 SCT035 OVC100 02/02 A3046 RMK PK WND 03006/00 SLP324 CIG100 8/52/ 9/35/ WR// BLU;EQDQ01+000003PRSWM1Q02    003PRSWM1
0216106140999992000011005264+49430+007600FM-16+0238ETAR V02099999999990300019N0080001N1+00201+00201999999ADDGD12991+0030099GD22991+0105099GD34991+0300099GF108991999999999999999999MA1103151999999MW1101REMMET077ETAR 100526Z VRB03KT 8000 BR FEW010 SCT035 OVC100 02/02 A3046 RMK CIG100 BLU;EQDQ01+000003PRSWM1Q02    003PRSWM1
0268106140999992000011005554+49430+007600FM-15+0238ETAR V0200501N001010300019N0080001N1+00201+00201103291ADDGD12991+0030099GD22991+0105099GD34991+0300099GF108991999999999999999999MA1103181999999MW1101REMMET129ETAR 100555Z 05002KT 8000 BR FEW010 SCT035 OVC100 02/02 A3047 RMK PK WND 03006/08 SLP329 CIG100 60003 70027 8/52/ 9/35/ WR// BLU;EQDQ01+000003PRSWM1Q02    003PRSWM1
0256106140999992000011006554+49430+007600FM-15+0238ETAR V02099999999990300019N0090001N1+00201+00101103311ADDGD12991+0030099GD22991+0105099GD33991+0300099GF107991999999999999999999MA1103221999999MW1101REMMET117ETAR 100655Z VRB02KT 9000 BR FEW010 SCT035 BKN100 02/01 A3048 RMK PK WND 05005/16 SLP331 CIG100 8/52/ 9/33/ WR// BLU;EQDQ01+000003PRSWM1Q02    003PRSWM1
0256106140999992000011007554+49430+007600FM-15+0238ETAR V02099999999990120019N0090001N1+00201+00101103421ADDGD12991+0030099GD23991+0120099GD33991+0300099GF107991999999999999999999MA1103321999999MW1101REMMET117ETAR 100755Z VRB03KT 9000 BR FEW010 BKN040 BKN100 02/01 A3051 RMK PK WND 02007/23 SLP342 CIG040 8/52O 9/520 WR// BLU;EQDQ01+000003PRSWM1Q02    003PRSWM1
0256106140999992000011008554+49430+007600FM-15+0238ETAR V02099999999990150019N0090001N1+00201+00101103451ADDGD12991+0030099GD23991+0150099GD33991+0300099GF107991999999999999999999MA1103351999999MW1101REMMET117ETAR 100855Z VRB04KT 9000 BR FEW010 BKN050 BKN100 02/01 A3052 RMK PK WND 07005/08 SLP345 CIG050 8/52O 9/520 WR// BLU;EQDQ01+000003PRSWM1Q02    003PRSWM1
0260106140999992000011009564+49430+007600FM-15+0238ETAR V0209999V001510150019N0090001N1+00201+00201103511ADDGD12991+0030099GD23991+0150099GD34991+0300099GF108991999999999999999999MA1103391999999MW1101REMMET121ETAR 100956Z COR VRB03KT 9000 BR FEW010 BKN050 OVC100 02/02 A3053 RMK PK WND 04008/29 SLP351 CIG050 8/52/ 9/52/ WR// BLU;EQDQ01+000003PRSWM1Q02    003PRSWM1
0256106140999992000011010554+49430+007600FM-15+0238ETAR V02099999999990150019N0090001N1+00301+00201103521ADDGD12991+0030099GD23991+0150099GD34991+0300099GF108991999999999999999999MA1103421999999MW1101REMMET117ETAR 101055Z VRB03KT 9000 BR FEW010 BKN050 OVC100 03/02 A3054 RMK PK WND 04009/22 SLP352 CIG050 8/52/ 9/52/ WR// BLU;EQDQ01+000003PRSWM1Q02    003PRSWM1
0243106140999992000011011554+49430+007600FM-15+0238ETAR V02099999999990150019N0112651N1+00301+00101103451ADDGD12991+0030099GD23991+0150099GD33991+0300099GF107991999999999999999999MA1103351999999MW1001REMMET120METAR ETAR 101155Z VRB03KT 9999 FEW010 BKN050 BKN100 03/01 A3052 RMK PK WND 02009/27 SLP345 CIG050 8/520 9/520 WR// BLU;EQDQ01+000000PRSWM2
0215106140999992000011014004+49430+007600FM-15+0238ETAR V02099999999990090019N0112651N1+00401+00201103501ADDGD13991+0090099GD23991+0300099GF107991999999999999999999MA1103391999999MW1001REMMET107ETAR 101355Z VRB04KT 9999 BKN030 BKN100 04/02 A3053 RMK PK WND 04008/56 SLP350 CIG030 8/520 9/520 WR// BLU;EQDQ01+000000PRSWM2
0215106140999992000011015004+49430+007600FM-15+0238ETAR V02099999999990090019N0112651N1+00401+00201103551ADDGD13991+0090099GD24991+0300099GF108991999999999999999999MA1103451999999MW1001REMMET107ETAR 101455Z VRB04KT 9999 BKN030 OVC100 04/02 A3055 RMK PK WND 06008/03 SLP355 CIG030 8/52/ 9/53/ WR// BLU;EQDQ01+000000PRSWM2
0241106140999992000011015554+49430+007600FM-15+0238ETAR V0200401N001510090019N0112651N1+00301+00101103621ADDGD12991+0045099GD23991+0090099GD33991+0300099GF107991999999999999999999MA1103491999999MW1001REMMET118ETAR 101555Z COR 04003KT 9999 FEW015 BKN030 BKN100 03/01 A3056 RMK PK WND 02009/05 SLP362 CIG030 8/520 9/520 WR// BLU;EQDQ01+000000PRSWM2
0237106140999992000011017004+49430+007600FM-15+0238ETAR V02099999999990090019N0112651N1+00301+00101103651ADDGD12991+0045099GD23991+0090099GD33991+0300099GF107991999999999999999999MA1103521999999MW1001REMMET114ETAR 101655Z VRB04KT 9999 SCT015 BKN030 BKN100 03/01 A3057 RMK PK WND 05005/07 SLP365 CIG030 8/520 9/520 WR// BLU;EQDQ01+000000PRSWM2
0175106140999992000011017144+49430+007600FM-16+0238ETAR V02099999999990045019N0112651N1+00301+00101999999ADDGD13991+0045099GD24991+0090099GF108991999999999999999999MA1103521999999MW1001REMMET067ETAR 101714Z VRB05KT 9999 BKN015 OVC030 03/01 A3057 RMK CIG015 WHT;EQDQ01+000000PRSWM2
0215106140999992000011017554+49430+007600FM-15+0238ETAR V02099999999990045019N0112651N1+00301+00101103631ADDGD13991+0045099GD24991+0090099GF108991999999999999999999MA1103521999999MW1001REMMET107ETAR 101755Z VRB05KT 9999 BKN015 OVC030 03/01 A3057 RMK PK WND 06008/15 SLP363 CIG015 8/5// 9/8// WR// WHT;EQDQ01+000000PRSWM2
0193106140999992000011020004+49430+007600FM-15+0238ETAR V02099999999990045019N0112651N1+00201+00101103741ADDGD14991+0045099GF108991999999999999999999MA1103621999999MW1001REMMET100ETAR 101955Z VRB03KT 9999 OVC015 02/01 A3060 RMK PK WND 09006/38 SLP374 CIG015 8/5// 9/8// WR// WHT;EQDQ01+000000PRSWM2
0193106140999992000011020554+49430+007600FM-15+0238ETAR V02099999999990045019N0112651N1+00201+00001103741ADDGD14991+0045099GF108991999999999999999999MA1103621999999MW1001REMMET100ETAR 102055Z VRB03KT 9999 OVC015 02/00 A3060 RMK PK WND 05005/02 SLP374 CIG015 8/5// 9/8// WR// WHT;EQDQ01+000000PRSWM2
0193106140999992000011021554+49430+007600FM-15+0238ETAR V02099999999990045019N0112651N1+00201+00001103721ADDGD14991+0045099GF108991999999999999999999MA1103621999999MW1001REMMET100ETAR 102155Z VRB03KT 9999 OVC015 02/00 A3060 RMK PK WND 05005/37 SLP372 CIG015 8/5// 9/8// WR// WHT;EQDQ01+000000PRSWM2
0212106140999992000011022554+49430+007600FM-15+0238ETAR V02099999999990045019N0080001N1+00201+00001103701ADDGD14991+0045099GF108991999999999999999999MA1103591999999MW1101REMMET103ETAR 102255Z VRB02KT 8000 BR OVC015 02/00 A3059 RMK PK WND 02003/56 SLP370 CIG015 8/5// 9/8// WR// WHT;EQDQ01+000003PRSWM1Q02    003PRSWM1
0212106140999992000011100004+49430+007600FM-15+0238ETAR V02099999999990045019N0060001N1+00201+00001103701ADDGD14991+0045099GF108991999999999999999999MA1103621999999MW1101REMMET103ETAR 102355Z VRB02KT 6000 BR OVC015 02/00 A3060 RMK PK WND 01003/02 SLP370 CIG015 8/5// 9/8// WR// WHT;EQDQ01+000003PRSWM1Q02    003PRSWM1
0172106140999992000011100384+49430+007600FM-16+0238ETAR V02099999999990039019N0060001N1+00201+00101999999ADDGD14991+0039099GF108991999999999999999999MA1103621999999MW1101REMMET063ETAR 110038Z VRB01KT 6000 BR OVC013 02/01 A3060 RMK CIG013 GRN;EQDQ01+000003PRSWM1Q02    003PRSWM1
0212106140999992000011100554+49430+007600FM-15+0238ETAR V02099999999990039019N0060001N1+00201+00001103731ADDGD14991+0039099GF108991999999999999999999MA1103621999999MW1101REMMET103ETAR 110055Z VRB02KT 6000 BR OVC013 02/00 A3060 RMK PK WND 02002/56 SLP373 CIG013 8/5// 9/8// WR// GRN;EQDQ01+000003PRSWM1Q02    003PRSWM1
0216106140999992000011102004+49430+007600FM-15+0238ETAR V0209999V001010039019N0060001N1+00201+00101103761ADDGD14991+0039099GF108991999999999999999999MA1103661999999MW1101REMMET107ETAR 110155Z COR VRB02KT 6000 BR OVC013 02/01 A3061 RMK PK WND 06003/27 SLP376 CIG013 8/5// 9/8// WR// GRN;EQDQ01+000003PRSWM1Q02    003PRSWM1
