0111111440999992000010100004+47330+012800FM-12+0763LOWZ V0209999C000019999999N9999999N1-00611-00811102881ADDAA106000091MA1999999093361REMSYN054AAXX  01004 11144 36/// /0000 11061 21081 39336 40288;EQDQ01  00002PRCP06
0111111440999992000010103004+47330+012800FM-12+0763LOWZ V0209999C000019999999N9999999N1-00601-00771102931ADDAA106000091MA1999999093411REMSYN054AAXX  01034 11144 36/// /0000 11060 21077 39341 40293;EQDQ01  00002PRCP06
0152111440999992000010106004+47330+012800FM-12+0763LOWZ V0201601N000519999999N9999999N1-00571-00741102981ADDAA106000091IA2999-00209KA1120N-00711MA1999999093471REMSYN070AAXX  01064 11144 36/// /1601 11057 21074 39347 40298 333 21071 3/102;EQDQ01  00002PRCP06
0151111440999992000010107004+47330+012800FM-15+0763LOWZ V0209999C000010150019N0060001N1-00601-00701999999ADDGA1071+015009999GF107991999999999999999999MA1102511999999MW1711REMMET057LOWZ 010700Z 00000KT 6000 -SN BKN050SC M06/M07 Q1025 OVC;EQDQ01    003PRSWM1
0128111440999992000010108004+47330+012800FM-15+0763LOWZ V0209999C000010150019N0080001N1-00601-00701999999ADDGA1071+015009999GF107991999999999999999999MA1102511999999MW1001REMMET053LOWZ 010800Z 00000KT 8000 BKN050SC M06/M07 Q1025 BKN;
0234111440999992000010109004+47330+012800SY-MT+0763LOWZ V0201201N000510150019N0100001N1-00521-00701103031ADDAA106000021GA1021+006009999GA2081+015009999GF108991999999999999999999MA1102511093531MW1001REMSYN064AAXX  01094 11144 36/// /1201 11052 21070 39353 40303 333 55300;MET062LOWZ 010900Z 00000KT 10KM FEW020SC OVC050SC M05/M06 Q1025 OVC;
0157111440999992000010110004+47330+012800FM-15+0763LOWZ V0209999C000010180019N0100001N1-00401-00501999999ADDGA1021+006009999GA2071+018009999GF107991999999999999999999MA1102511999999MW1001REMMET066LOWZ 011000Z 00000KT 10KM -SN FEW020SC BKN060SC M04/M05 Q1025 BKN;
0128111440999992000010111004+47330+012800FM-15+0763LOWZ V0209999C000010180019N0100001N1-00401-00501999999ADDGA1071+018009999GF107991999999999999999999MA1102401999999MW1001REMMET053LOWZ 011100Z 00000KT 10KM BKN060SC M04/M05 Q1024 BKN;
0213111440999992000010112004+47330+012800SY-MT+0763LOWZ V0200501N000510180019N0100001N1-00381-00581102861ADDAA106000021GA1071+018009999GF107991999999999999999999MA1102401093421MW1001REMSYN064AAXX  01124 11144 36/// /0501 11038 21058 39342 40286 333 55300;MET057LOWZ 011200Z 00000KT 10KM -SN BKN060SC M03/M05 Q1024 OVC;
0132111440999992000010113004+47330+012800FM-15+0763LOWZ V0209999C000010180019N0100001N1-00201-00401999999ADDGA1071+018009999GF107991999999999999999999MA1102301999999MW1001REMMET057LOWZ 011300Z 00000KT 10KM -SN BKN060SC M02/M04 Q1023 OVC;
0132111440999992000010114004+47330+012800FM-15+0763LOWZ V0202401N001010150019N0100001N1-00201-00401999999ADDGA1081+015009999GF108991999999999999999999MA1102301999999MW1001REMMET057LOWZ 011400Z 24002KT 10KM -SN OVC050SC M02/M04 Q1023 OVC;
0244111440999992000010115004+47330+012800SY-MT+0763LOWZ V0200401N000510120019N0080001N1-00281-00441102761ADDAA103000191GA1081+012009999GF108991999999999999999999MA1102301093371MW1711REMSYN076AAXX  01154 11144 2//// /0401 11028 21044 39337 40276 7404/ 333 55300 69917;MET057LOWZ 011500Z 25002KT 8000 -SN OVC040SC M02/M04 Q1023 OVC;EQDQ01    003PRSWM1
0151111440999992000010116004+47330+012800FM-15+0763LOWZ V0202401N001010120019N0060001N1-00201-00401999999ADDGA1081+012009999GF108991999999999999999999MA1102301999999MW1711REMMET057LOWZ 011600Z 24002KT 6000 -SN OVC040SC M02/M04 Q1023 OVC;EQDQ01    003PRSWM1
0127111440999992000010118004+47330+012800FM-12+0763LOWZ V0202601N000519999999N9999999N1-00251-00331102721ADDAA112001091KA1999M-00231MA1999999093341REMSYN076AAXX  01184 11144 1//// /2601 11025 21033 39334 40272 60012 7404/ 333 11023;
0108111440999992000010121004+47330+012800FM-12+0763LOWZ V0200401N000519999999N9999999N1-00231-00281102701ADDAA103002091MA1999999093331REMSYN070AAXX  01214 11144 2//// /0401 11023 21028 39333 40270 74044 333 60027;
0104111440999992000010200004+47330+012800FM-12+0763LOWZ V0203201N000519999999N9999999N1-00171-00221102711ADDAA106004191MA1999999093361REMSYN066AAXX  02004 11144 1//// /3201 11017 21022 39336 40271 60041 74044;
0108111440999992000010203004+47330+012800FM-12+0763LOWZ V0203201N000519999999N9999999N1+00021-00021102751ADDAA103001091MA1999999093461REMSYN070AAXX  02034 11144 2//// /3201 10002 21002 39346 40275 7404/ 333 60017;
0238111440999992000010206004+47330+012800FM-12+0763LOWZ V0203201N001519999999N9999999N1+00061-00181102991ADDAA112005191AJ100759199999999AL10601591AY171061AY271061GF108991999999999999999999IA1289IA2999+00009KA1120N-00171MA1999999093691MW1721REMSYN094AAXX  02064 11144 11/// 83203 10006 21018 39369 40299 60052 77277 333 21017 3/100 44075 93115;
0170111440999992000010207004+47330+012800FM-15+0763LOWZ V0203601N001010105019N0100001N1+00201+00001999999ADDGA1071+010509999GA2081+015009999GF108991999999999999999999MA1102711999999MW1001REMMET060LOWZ 020700Z 36002KT 10KM BKN035SC OVC050SC 02/00 Q1027 OVC;EQDQ01+000000PRSWM2
0170111440999992000010208004+47330+012800FM-15+0763LOWZ V0209999C000010090019N0150001N1+00201+00001999999ADDGA1071+009009999GA2081+015009999GF108991999999999999999999MA1102911999999MW1001REMMET060LOWZ 020800Z 00000KT 15KM BKN030SC OVC050SC 02/00 Q1029 OVC;EQDQ01+000000PRSWM2
0272111440999992000010209004+47330+012800SY-MT+0763LOWZ V0209999C000010090019N0200001N1+00051-00171103241ADDAA106000021GA1071+009009999GA2071+015009999GF107991999999999999999999MA1102911093911MW1161REMSYN064AAXX  02094 11144 36/// /0000 10005 21017 39391 40324 333 55300;MET065LOWZ 020900Z 00000KT 20KM VCSH BKN030SC BKN050SC 01/00 Q1029 BKN;EQDQ01+000003PRSWM1Q02    003PRSWM1
0170111440999992000010210004+47330+012800FM-15+0763LOWZ V0209999C000012200019N0200001N1+00201+00001999999ADDGA1021+009009999GA2021+015009999GF104991999999999999999999MA1103011999999MW1001REMMET060LOWZ 021000Z 00000KT 20KM SCT030SC SCT050SC 02/00 Q1030 BKN;EQDQ01+000000PRSWM2
0145111440999992000010211004+47330+012800FM-15+0763LOWZ V0209999C000012200019N0300001N1+00301+00001999999ADDGA1021+015009999GF104991999999999999999999MA1103011999999MW1001REMMET051LOWZ 021100Z 00000KT 30KM SCT050SC 03/00 Q1030 SCT;EQDQ01+000000PRSWM2
0227111440999992000010212004+47330+012800SY-MT+0763LOWZ V0200201N001012200019N0500001N1+00221-00191103161ADDAA106000021GA1021+021009999GF102991999999999999999999MA1102911093891MW1001REMSYN064AAXX  02124 11144 36/// /0202 10022 21019 39389 40316 333 55310;MET052LOWZ 021200Z VRB01KT 50KM FEW070SC 03/M01 Q1029 FEW;EQDQ01+000000PRSWM2
0146111440999992000010213004+47330+012800FM-15+0763LOWZ V02099999999992200019N0500001N1+00301-00201999999ADDGA1021+024009999GF102991999999999999999999MA1102811999999MW1001REMMET052LOWZ 021300Z VRB01KT 50KM FEW080SC 03/M02 Q1028 FEW;EQDQ01+000000PRSWM2
0143111440999992000010214004+47330+012800FM-15+0763LOWZ V02099999999992200019N0500001N1+00101-00201999999ADDGA1021+999999999GF104991999999999999999999MA1102811999999MW1001REMMET049LOWZ 021400Z VRB01KT 50KM SCTCI 01/M02 Q1028 SCT;EQDQ01+000000PRSWM2
0268111440999992000010215004+47330+012800SY-MT+0763LOWZ V0202701N001512200019N0015001N1+00031-00171103231ADDAA106000091GA1021+999999999GF104991999999999999999999MA1102911093901MW1411REMSYN064AAXX  02154 11144 36/// /2703 10003 21017 39390 40323 333 55300;MET061LOWZ 021500Z VRB01KT 1500 0500E BCFG SCTCI M02/M04 Q1029 SCT;EQDQ01+000003PRSWM1Q02  00002PRCP06Q03    003PRSWM1
0181111440999992000010216004+47330+012800FM-15+0763LOWZ V0209999C000012200019N0006001N1-00601-00701999999ADDGA1021+999999999GF102991999999999999999999MA1103892999999MW1481REMMET055LOWZ 021600Z 00000KT 0600 FZFG FEWCI M06/M07 Q1039 FEW;EQDQ01+103893APOA  Q02+000003PRSWM1Q03    003PRSWM1
0134111440999992000010218004+47330+012800FM-12+0763LOWZ V0202801N000519999999N9999999N1-00281-00341103471ADDAA106000091KA1999M+00251MA1999999094011REMSYN064AAXX  02184 11144 36/// /2801 11028 21034 39401 40347 333 10025;EQDQ01  00002PRCP06
0111111440999992000010221004+47330+012800FM-12+0763LOWZ V0209999C000019999999N9999999N1-00441-00461103641ADDAA106000091MA1999999094111REMSYN054AAXX  02214 11144 36/// /0000 11044 21046 39411 40364;EQDQ01  00002PRCP06
0111111440999992000010300004+47330+012800FM-12+0763LOWZ V0201801N000519999999N9999999N1-00561-00601103671ADDAA106000091MA1999999094101REMSYN054AAXX  03004 11144 36/// /1801 11056 21060 39410 40367;EQDQ01  00002PRCP06
0111111440999992000010303004+47330+012800FM-12+0763LOWZ V0201701N000519999999N9999999N1-00651-00701103651ADDAA106000091MA1999999094051REMSYN054AAXX  03034 11144 36/// /1701 11065 21070 39405 40365;EQDQ01  00002PRCP06
0267111440999992000010306004+47330+012800FM-12+0763LOWZ V0201501N000519999999N9999999N1-00751-00831103671ADDAA106000091AJ100729199999999AL10600591AY141061AY241061GA1091+999999999GF109991091999999999999999IA1289IA2999-00509KA1120N-00751MA1999999094031MW1451REMSYN088AAXX  03064 11144 31/// 91501 11075 21083 39403 40367 74544 333 21075 3/105 44072 93105;EQDQ01  00002PRCP06
0161111440999992000010307004+47330+012800FM-15+0763LOWZ V0209999C00001000151CN0005001N1-01001-01101999999ADDGA1091+000159999GF109991999999000251999999MA1103121999999MW1491REMMET051LOWZ 030700Z 00000KT 0500 FZFG VV003 M10/M11 Q1031;EQDQ01+000003PRSWM1Q02    003PRSWM1
0161111440999992000010308004+47330+012800FM-15+0763LOWZ V0209999C00001000151CN0003001N1-01001-01101999999ADDGA1091+000159999GF109991999999000251999999MA1103121999999MW1491REMMET051LOWZ 030800Z 00000KT 0300 FZFG VV003 M10/M11 Q1031;EQDQ01+000003PRSWM1Q02    003PRSWM1
0258111440999992000010309004+47330+012800SY-MT+0763LOWZ V0200801N00051000151CN0005001N1-00811-00901103731ADDAA106000091GA1091+000159999GF109991999999000151999999MA1103121094061MW1491REMSYN064AAXX  03094 11144 36/// /0801 11081 21090 39406 40373 333 55300;MET051LOWZ 030900Z 00000KT 0500 FZFG VV003 M10/M11 Q1031;EQDQ01+000003PRSWM1Q02  00002PRCP06Q03    003PRSWM1
0165111440999992000010310004+47330+012800FM-15+0763LOWZ V02099999999992200019N0006001N1-01001-01101999999ADDGA1021+999999999GF104991999999999999999999MA1103121999999MW1481REMMET055LOWZ 031000Z VRB01KT 0600 FZFG SCTCI M10/M11 Q1031 SCT;EQDQ01+000003PRSWM1Q02    003PRSWM1
0165111440999992000010311004+47330+012800FM-15+0763LOWZ V02099999999992200019N0006001N1-01001-01101999999ADDGA1021+999999999GF104991999999999999999999MA1103121999999MW1481REMMET055LOWZ 031100Z VRB01KT 0600 FZFG SCTCI M10/M11 Q1031 SCT;EQDQ01+000003PRSWM1Q02    003PRSWM1
0262111440999992000010312004+47330+012800SY-MT+0763LOWZ V0209999C000012200019N0040001N1-00571-00651103411ADDAA106000091GA1021+999999999GF104991999999999999999999MA1102811093861MW1481REMSYN064AAXX  03124 11144 36/// /0000 11057 21065 39386 40341 333 55310;MET055LOWZ 031200Z 00000KT 4000 FZBR SCTCI M06/M07 Q1028 SCT;EQDQ01+000003PRSWM1Q02  00002PRCP06Q03    003PRSWM1
0144111440999992000010313004+47330+012800FM-15+0763LOWZ V0209999C000012200019N0100001N1-00501-00601999999ADDGA1021+999999999GF104991999999999999999999MA1102811999999MW1001REMMET050LOWZ 031300Z 00000KT 10KM SCTCI M05/M06 Q1028 SCT;EQDQ01+000000PRSWM2
0144111440999992000010314004+47330+012800FM-15+0763LOWZ V0209999C000012200019N0100001N1-00401-00501999999ADDGA1021+999999999GF102991999999999999999999MA1102811999999MW1001REMMET050LOWZ 031400Z 00000KT 10KM FEWCI M04/M05 Q1028 FEW;EQDQ01+000000PRSWM2
0262111440999992000010315004+47330+012800SY-MT+0763LOWZ V0200601N000512200019N0050001N1-00521-00591103311ADDAA106000091GA1021+999999999GF104991999999999999999999MA1102711093781MW1481REMSYN064AAXX  03154 11144 36/// /0601 11052 21059 39378 40331 333 55300;MET055LOWZ 031500Z 00000KT 5000 FZBR SCTCI M06/M07 Q1027 SCT;EQDQ01+000003PRSWM1Q02  00002PRCP06Q03    003PRSWM1
0165111440999992000010316004+47330+012800FM-15+0763LOWZ V0209999C000012200019N0008001N1-01001-01101999999ADDGA1021+999999999GF102991999999999999999999MA1102711999999MW1481REMMET055LOWZ 031600Z 00000KT 0800 FZFG FEWCI M10/M11 Q1027 FEW;EQDQ01+000003PRSWM1Q02    003PRSWM1
0134111440999992000010318004+47330+012800FM-12+0763LOWZ V0209999C000019999999N9999999N1-00681-00761103361ADDAA106000091KA1999M-00451MA1999999093771REMSYN064AAXX  03184 11144 36/// /0000 11068 21076 39377 40336 333 11045;EQDQ01  00002PRCP06
0111111440999992000010321004+47330+012800FM-12+0763LOWZ V0209999C000019999999N9999999N1-00771-00861103381ADDAA106000091MA1999999093761REMSYN054AAXX  03214 11144 36/// /0000 11077 21086 39376 40338;EQDQ01  00002PRCP06
0111111440999992000010400004+47330+012800FM-12+0763LOWZ V0201701N000519999999N9999999N1-00951-01051103381ADDAA106000091MA1999999093701REMSYN054AAXX  04004 11144 36/// /1701 11095 21105 39370 40338;EQDQ01  00002PRCP06
0111111440999992000010403004+47330+012800FM-12+0763LOWZ V0201101N000519999999N9999999N1-00911-01011103271ADDAA106000091MA1999999093611REMSYN054AAXX  04034 11144 36/// /1101 11091 21101 39361 40327;EQDQ01  00002PRCP06
0161111440999992000010407004+47330+012800FM-15+0763LOWZ V0209999C00001000151CN0003001N1-01001-01101999999ADDGA1091+000159999GF109991999999000251999999MA1102511999999MW1491REMMET051LOWZ 040700Z 00000KT 0300 FZFG VV003 M10/M11 Q1025;EQDQ01+000003PRSWM1Q02    003PRSWM1
0161111440999992000010408004+47330+012800FM-15+0763LOWZ V0209999999999000151CN0003001N1-01001-01101999999ADDGA1091+000159999GF109991999999000251999999MA1102511999999MW1491REMMET051LOWZ 040800Z VRB01KT 0300 FZFG VV003 M10/M11 Q1025;EQDQ01+000003PRSWM1Q02    003PRSWM1
0257111440999992000010409004+47330+012800SY-MT+0763LOWZ V0209999C00001000151CN0003001N1-00881-00981103201ADDAA106000091GA1091+000159999GF109991999999000151999999MA1102611093561MW1491REMSYN063AAXX  04094 11144 36/// /0000 11088 21098 39356 40320 33355300;MET051LOWZ 040900Z VRB01KT 0300 FZFG VV003 M10/M11 Q1026;EQDQ01+000003PRSWM1Q02  00002PRCP06Q03    003PRSWM1
0147111440999992000010410004+47330+012800FM-15+0763LOWZ V0209999C000012200019N0004001N1-00901-01001999999ADDGF100991999999999999999999MA1102611999999MW1481REMMET053LOWZ 041000Z 00000KT 0400 FZFG SKC M09/M10 Q1026 SKC;EQDQ01+000003PRSWM1Q02    003PRSWM1
0147111440999992000010411004+47330+012800FM-15+0763LOWZ V0209999C000012200019N0005001N1-00801-00901999999ADDGF100991999999999999999999MA1102511999999MW1481REMMET053LOWZ 041100Z 00000KT 0500 FZFG SKC M08/M09 Q1025 SKC;EQDQ01+000003PRSWM1Q02    003PRSWM1
0244111440999992000010412004+47330+012800SY-MT+0763LOWZ V0201001N000512200019N0030001N1-00651-00751102981ADDAA106000091GF100991001001999999001001MA1102401093441MW1481REMSYN064AAXX  04124 11144 36/// /1001 11065 21075 39344 40298 333 55310;MET053LOWZ 041200Z VRB01KT 3000 FZBR SKC M06/M07 Q1024 SKC;EQDQ01+000003PRSWM1Q02  00002PRCP06Q03    003PRSWM1
0126111440999992000010413004+47330+012800FM-15+0763LOWZ V0202401N001012200019N0060001N1-00701-00801999999ADDGF100991999999999999999999MA1102301999999MW1001REMMET048LOWZ 041300Z 24002KT 6000 SKC M07/M08 Q1023 SKC;EQDQ01+000000PRSWM2
0126111440999992000010414004+47330+012800FM-15+0763LOWZ V02099999999992200019N0100001N1-00601-00701999999ADDGF100991999999999999999999MA1102201999999MW1001REMMET048LOWZ 041400Z VRB02KT 10KM SKC M06/M07 Q1022 SKC;EQDQ01+000000PRSWM2
0257111440999992000010415004+47330+012800SY-MT+0763LOWZ V0202001N000512200019N0120001N1-00681-00761102851ADDAA106000091MA1999999093311MD1010071+9999MW1001REMSYN064AAXX  04154 11144 36/// /2001 11068 21076 39331 40285 333 55300;MET0941445Z MMVR 0434045G55KT 2SM BLSA FEW040 24/17 A3016 RMK 50007Z COR ISOL LOW STF OCNL GST 70KT;EQDQ01+000000PRSWM2Q02  00002PRCP06
0147111440999992000010416004+47330+012800FM-15+0763LOWZ V0209999C000012200019N0010001N1-01001-01101999999ADDGF100991999999999999999999MA1102301999999MW1481REMMET053LOWZ 041600Z 00000KT 1000 FZBR SKC M10/M11 Q1023 SKC;EQDQ01+000003PRSWM1Q02    003PRSWM1
0134111440999992000010418004+47330+012800FM-12+0763LOWZ V0209999C000019999999N9999999N1-00811-00921102981ADDAA106000091KA1999M-00511MA1999999093381REMSYN064AAXX  04184 11144 36/// /0000 11081 21092 39338 40298 333 11051;EQDQ01  00002PRCP06
0111111440999992000010421004+47330+012800FM-12+0763LOWZ V0202101N000519999999N9999999N1-00921-01021103041ADDAA106000091MA1999999093401REMSYN054AAXX  04214 11144 36/// /2101 11092 21102 39340 40304;EQDQ01  00002PRCP06
0111111440999992000010500004+47330+012800FM-12+0763LOWZ V0202101N000519999999N9999999N1-00751-00861102941ADDAA106000091MA1999999093371REMSYN054AAXX  05004 11144 36/// /2101 11075 21086 39337 40294;EQDQ01  00002PRCP06
0111111440999992000010503004+47330+012800FM-12+0763LOWZ V0202101N000519999999N9999999N1-00671-00771102811ADDAA106000091MA1999999093281REMSYN054AAXX  05034 11144 36/// /2101 11067 21077 39328 40281;EQDQ01  00002PRCP06
0201111440999992000010506004+47330+012800FM-12+0763LOWZ V0209999C000012200019N9999999N1-00531-00601102791ADDAA106000091AJ100709199999999GF102991999999999999999999IA2999-00709KA1120N-00931MA1999999093311REMSYN076AAXX  05064 11144 32/// 20000 11053 21060 39331 40279 333 21093 3/107 44070;EQDQ01  00002PRCP06
0192111440999992000010507004+47330+012800FM-15+0763LOWZ V0209999C000010150019N0050001N1-00401-00501999999ADDGA1021+006009999GA2081+015009999GF108991999999999999999999MA1102401999999MW1711REMMET066LOWZ 050700Z 00000KT 5000 -SN SCT020SC OVC050SC M04/M05 Q1024 OVC;EQDQ01+000003PRSWM1Q02    003PRSWM1
0192111440999992000010508004+47330+012800FM-15+0763LOWZ V0209999C000010090019N0050001N1-00501-00601999999ADDGA1021+004509999GA2081+009009999GF108991999999999999999999MA1102401999999MW1711REMMET066LOWZ 050800Z 00000KT 5000 -SN FEW015SC OVC030SC M05/M06 Q1024 OVC;EQDQ01+000003PRSWM1Q02    003PRSWM1
0284111440999992000010509004+47330+012800SY-MT+0763LOWZ V0200701N000510090019N0050001N1-00391-00451102941ADDAA103000891GA1021+006009999GA2081+009009999GF108991999999999999999999MA1102511093491MW1711REMSYN076AAXX  05094 11144 2//// /0701 11039 21045 39349 40294 7404/ 333 55300 69987;MET065LOWZ 050900Z 00000KT 5000 -SN FEW020SC OVC030SC M03/M04Q1025 OVC;EQDQ01+000003PRSWM1Q02    003PRSWM1
0147111440999992000010510004+47330+012800FM-15+0763LOWZ V02099999999990090019N0070001N1-00201-00301999999ADDGA1081+009009999GF108991999999999999999999MA1102611999999MW1001REMMET053LOWZ 051000Z VRB01KT 7000 OVC030SC M02/M03 Q1026 OVC;EQDQ01+000000PRSWM2
0172111440999992000010511004+47330+012800FM-15+0763LOWZ V0209999C000010090019N0070001N1-00201-00301999999ADDGA1021+003009999GA2071+009009999GF107991999999999999999999MA1102511999999MW1001REMMET062LOWZ 051100Z 00000KT 7000 SCT010SC BKN030SC M02/M03 Q1025 BKN;EQDQ01+000000PRSWM2
0264111440999992000010512004+47330+012800SY-MT+0763LOWZ V0209999C000010120019N0070001N1-00191-00211102881ADDAA106001091GA1021+003009999GA2071+012009999GF107991999999999999999999MA1102511093511MW1001REMSYN076AAXX  05124 11144 1//// /0000 11019 21021 39351 40288 60011 7404/ 333 55300;MET061LOWZ 051200Z VRB01KT 7000 FEW010SC BKN040SC M02/M03 Q1025 BK;EQDQ01+000000PRSWM2
0172111440999992000010513004+47330+012800FM-15+0763LOWZ V0209999C000010120019N0100001N1-00201-00301999999ADDGA1021+009009999GA2071+012009999GF107991999999999999999999MA1102401999999MW1001REMMET062LOWZ 051300Z 00000KT 10KM FEW030SC BKN040SC M02/M03 Q1024 BKN;EQDQ01+000000PRSWM2
0146111440999992000010514004+47330+012800FM-15+0763LOWZ V0209999C000010120019N0060001N1-00201-00301999999ADDGA1071+012009999GF107991999999999999999999MA1102401999999MW1001REMMET052LOWZ 051400Z 00000KT 6KM BKN040SC M02/M03 Q1024 BKN;EQDQ01+000000PRSWM2
0249111440999992000010515004+47330+012800SY-MT+0763LOWZ V0202201N000510090019N0040001N1-00221-00261102831ADDAA106000021GA1071+009009999GF107991999999999999999999MA1102401093451MW1481REMSYN064AAXX  05154 11144 36/// /2201 11022 21026 39345 40283 333 55300;MET058LOWZ 051500Z 25002KT 4000 FZBR BKN030SC M03/M04 Q1024 BKN;EQDQ01+000003PRSWM1Q02    003PRSWM1
0168111440999992000010516004+47330+012800FM-15+0763LOWZ V02099999999990120019N0025001N1-00401-00501999999ADDGA1071+012009999GF107991999999999999999999MA1102401999999MW1481REMMET058LOWZ 051600Z VRB01KT 2500 FZBR BKN040SC M04/M05 Q1024 BKN;EQDQ01+000003PRSWM1Q02    003PRSWM1
0121111440999992000010518004+47330+012800FM-12+0763LOWZ V0200401N000519999999N9999999N1-00241-00291102881ADDAA112001091KA1999M-00121MA1999999093491REMSYN070AAXX  05184 11144 16/// /0401 11024 21029 39349 40288 60012 333 11012;
0111111440999992000010521004+47330+012800FM-12+0763LOWZ V0202501N000519999999N9999999N1-00311-00361102901ADDAA106000091MA1999999093481REMSYN054AAXX  05214 11144 36/// /2501 11031 21036 39348 40290;EQDQ01  00002PRCP06
0111111440999992000010603004+47330+012800FM-12+0763LOWZ V0202101N000519999999N9999999N1-00241-00261102731ADDAA106000091MA1999999093351REMSYN054AAXX  06034 11144 36/// /2101 11024 21026 39335 40273;EQDQ01  00002PRCP06
0245111440999992000010606004+47330+012800FM-12+0763LOWZ V0201801N000519999999N9999999N1-00311-00331102701ADDAA106000091AJ100709199999999AY141061AY241061GA1091+999999999GF109991091999999999999999IA2999-00309KA1120N-00361MA1999999093301MW1451REMSYN082AAXX  06064 11144 31/// 91801 11031 21033 39330 40270 74544 333 21036 3/103 44070;EQDQ01  00002PRCP06
0161111440999992000010607004+47330+012800FM-15+0763LOWZ V0209999C00001000151CN0003001N1-00301-00401999999ADDGA1091+000159999GF109991999999000251999999MA1102401999999MW1491REMMET051LOWZ 060700Z 00000KT 0300 FZFG VV003 M03/M04 Q1024;EQDQ01+000003PRSWM1Q02    003PRSWM1
0161111440999992000010608004+47330+012800FM-15+0763LOWZ V0209999999999000151CN0003001N1-00401-00501999999ADDGA1091+000159999GF109991999999000251999999MA1102511999999MW1491REMMET051LOWZ 060800Z VRB01KT 0300 FZFG VV003 M04/M05 Q1025;EQDQ01+000003PRSWM1Q02    003PRSWM1
0258111440999992000010609004+47330+012800SY-MT+0763LOWZ V0201601N00051000151CN0003001N1-00381-00421102821ADDAA106000091GA1091+000159999GF109991999999000151999999MA1102401093391MW1491REMSYN064AAXX  06094 11144 36/// /1601 11038 21042 39339 40282 333 55300;MET051LOWZ 060900Z 00000KT 0300 FZFG VV003 M04/M05 Q1024;EQDQ01+000003PRSWM1Q02  00002PRCP06Q03    003PRSWM1
0161111440999992000010610004+47330+012800FM-15+0763LOWZ V0209999999999000151CN0003001N1-00401-00501999999ADDGA1091+000159999GF109991999999000251999999MA1102401999999MW1491REMMET051LOWZ 061000Z VRB01KT 0300 FZFG VV003 M04/M05 Q1024;EQDQ01+000003PRSWM1Q02    003PRSWM1
0161111440999992000010611004+47330+012800FM-15+0763LOWZ V0209999999999000151CN0002001N1-00401-00501999999ADDGA1091+000159999GF109991999999000251999999MA1102301999999MW1491REMMET051LOWZ 061100Z VRB01KT 0200 FZFG VV003 M04/M05 Q1023;EQDQ01+000003PRSWM1Q02    003PRSWM1
0258111440999992000010612004+47330+012800SY-MT+0763LOWZ V0200801N00051000151CN0002001N1-00351-00391102731ADDAA106000091GA1091+000159999GF109991999999000151999999MA1102301093321MW1491REMSYN064AAXX  06124 11144 36/// /0801 11035 21039 39332 40273 333 55300;MET051LOWZ 061200Z 00000KT 0200 FZFG VV002 M03/M04 Q1023;EQDQ01+000003PRSWM1Q02  00002PRCP06Q03    003PRSWM1
0161111440999992000010613004+47330+012800FM-15+0763LOWZ V0209999C00001000151CN0002001N1-00301-00401999999ADDGA1091+000159999GF109991999999000251999999MA1102301999999MW1491REMMET051LOWZ 061300Z 00000KT 0200 FZFG VV001 M03/M04 Q1023;EQDQ01+000003PRSWM1Q02    003PRSWM1
0258111440999992000010615004+47330+012800SY-MT+0763LOWZ V0201801N00051000151CN0001001N1-00391-00431102771ADDAA106000091GA1091+000159999GF109991999999000151999999MA1102301093341MW1491REMSYN064AAXX  06154 11144 36/// /1801 11039 21043 39334 40277 333 55300;MET051LOWZ 061500Z 00000KT 0100 FZFG VV001 M04/M05 Q1023;EQDQ01+000003PRSWM1Q02  00002PRCP06Q03    003PRSWM1
0161111440999992000010616004+47330+012800FM-15+0763LOWZ V0209999C00001000151CN0001001N1-00601-00701999999ADDGA1091+000159999GF109991999999000251999999MA1102401999999MW1491REMMET051LOWZ 061600Z 00000KT 0100 FZFG VV001 M06/M07 Q1024;EQDQ01+000003PRSWM1Q02    003PRSWM1
0111111440999992000010621004+47330+012800FM-12+0763LOWZ V0201001N000519999999N9999999N1-00741-00831103061ADDAA106000091MA1999999093481REMSYN054AAXX  06214 11144 36/// /1001 11074 21083 39348 40306;EQDQ01  00002PRCP06
0111111440999992000010700004+47330+012800FM-12+0763LOWZ V0209999C000019999999N9999999N1-00741-00851103131ADDAA106000091MA1999999093541REMSYN054AAXX  07004 11144 36/// /0000 11074 21085 39354 40313;EQDQ01  00002PRCP06
0111111440999992000010703004+47330+012800FM-12+0763LOWZ V0201901N000519999999N9999999N1-00761-00871103211ADDAA106000091MA1999999093611REMSYN054AAXX  07034 11144 36/// /1901 11076 21087 39361 40321;EQDQ01  00002PRCP06
0152111440999992000010706004+47330+012800FM-12+0763LOWZ V0209999C000019999999N9999999N1-00771-00881103321ADDAA106000091IA2999-00509KA1120N-00831MA1999999093711REMSYN070AAXX  07064 11144 36/// /0000 11077 21088 39371 40332 333 21083 3/105;EQDQ01  00002PRCP06
0161111440999992000010707004+47330+012800FM-15+0763LOWZ V0209999C00001000151CN0002001N1-00801-00901999999ADDGA1091+000159999GF109991999999000251999999MA1102811999999MW1491REMMET051LOWZ 070700Z 00000KT 0200 FZFG VV002 M08/M09 Q1028;EQDQ01+000003PRSWM1Q02    003PRSWM1
0161111440999992000010708004+47330+012800FM-15+0763LOWZ V0209999999999000151CN0002001N1-00901-01001999999ADDGA1091+000159999GF109991999999000251999999MA1102811999999MW1491REMMET051LOWZ 070800Z VRB01KT 0200 FZFG VV002 M09/M10 Q1028;EQDQ01+000003PRSWM1Q02    003PRSWM1
0121111440999992000010709004+47330+012800FM-12+0763LOWZ V0200701N000519999999N9999999N1-00841-00951103421ADDAA106000091MA1999999093771REMSYN064AAXX  07094 11144 36/// /0701 11084 21095 39377 40342 333 55300;EQDQ01  00002PRCP06
0147111440999992000010710004+47330+012800FM-15+0763LOWZ V02099999999992200019N0002001N1-00801-00901999999ADDGF100991999999999999999999MA1102811999999MW1481REMMET053LOWZ 071000Z VRB01KT 0200 FZFG SKC M08/M09 Q1028 SKC;EQDQ01+000003PRSWM1Q02    003PRSWM1
0147111440999992000010711004+47330+012800FM-15+0763LOWZ V0209999C000012200019N0015001N1-00701-00801999999ADDGF100991999999999999999999MA1102611999999MW1481REMMET053LOWZ 071100Z 00000KT 1500 FZBR SKC M07/M08 Q1026 SKC;EQDQ01+000003PRSWM1Q02    003PRSWM1
0244111440999992000010712004+47330+012800SY-MT+0763LOWZ V0201701N000512200019N0030001N1-00571-00651103101ADDAA106000091GF100991001001999999001001MA1102511093581MW1481REMSYN064AAXX  07124 11144 36/// /1701 11057 21065 39358 40310 333 55306;MET053LOWZ 071200Z 00000KT 3000 FZBR SKC M04/M05 Q1025 SKC;EQDQ01+000003PRSWM1Q02  00002PRCP06Q03    003PRSWM1
0126111440999992000010713004+47330+012800FM-15+0763LOWZ V0209999C000012200019N0060001N1-00401-00501999999ADDGF100991999999999999999999MA1102511999999MW1001REMMET048LOWZ 071300Z 00000KT 6000 SKC M04/M05 Q1025 SKC;EQDQ01+000000PRSWM2
0126111440999992000010714004+47330+012800FM-15+0763LOWZ V0209999C000012200019N0150001N1-00301-00401999999ADDGF100991999999999999999999MA1102401999999MW1001REMMET048LOWZ 071400Z 00000KT 15KM SKC M03/M04 Q1024 SKC;EQDQ01+000000PRSWM2
0244111440999992000010715004+47330+012800SY-MT+0763LOWZ V0209999C000012200019N0080001N1-00561-00631103011ADDAA106000091GF100991001001999999001001MA1102401093501MW1121REMSYN064AAXX  07154 11144 36/// /0000 11056 21063 39350 40301 333 55300;MET053LOWZ 071500Z VRB01KT 8000 MIFG SKC M06/M07 Q1024 SKC;EQDQ01+000003PRSWM1Q02  00002PRCP06Q03    003PRSWM1
0147111440999992000010716004+47330+012800FM-15+0763LOWZ V0209999C000012200019N0030001N1-00901-01001999999ADDGF100991999999999999999999MA1102511999999MW1481REMMET053LOWZ 071600Z 00000KT 3000 FZBR SKC M09/M10 Q1025 SKC;EQDQ01+000003PRSWM1Q02    003PRSWM1
0134111440999992000010718004+47330+012800FM-12+0763LOWZ V0209999C000019999999N9999999N1-00731-00821103101ADDAA106000091KA1999M-00421MA1999999093521REMSYN064AAXX  07184 11144 36/// /0000 11073 21082 39352 40310 333 11042;EQDQ01  00002PRCP06
0111111440999992000010721004+47330+012800FM-12+0763LOWZ V0200401N000519999999N9999999N1-00861-00961103151ADDAA106000091MA1999999093521REMSYN054AAXX  07214 11144 36/// /0401 11086 21096 39352 40315;EQDQ01  00002PRCP06
0111111440999992000010800004+47330+012800FM-12+0763LOWZ V0200601N000519999999N9999999N1-00881-01001103051ADDAA106000091MA1999999093421REMSYN054AAXX  08004 11144 36/// /0601 11088 21100 39342 40305;EQDQ01  00002PRCP06
0111111440999992000010803004+47330+012800FM-12+0763LOWZ V0201601N000519999999N9999999N1-00951-01071103061ADDAA106000091MA1999999093411REMSYN054AAXX  08034 11144 36/// /1601 11095 21107 39341 40306;EQDQ01  00002PRCP06
0245111440999992000010806004+47330+012800FM-12+0763LOWZ V0202801N000519999999N9999999N1-01011-01121103091ADDAA106000091AJ100709199999999AY141061AY241061GA1091+999999999GF109991091999999999999999IA2999-00709KA1120N-01051MA1999999093411MW1451REMSYN082AAXX  08064 11144 31/// 92801 11101 21112 39341 40309 74544 333 21105 3/107 44070;EQDQ01  00002PRCP06
0161111440999992000010807004+47330+012800FM-15+0763LOWZ V0209999C00001000151CN0002001N1-01201-01201999999ADDGA1091+000159999GF109991999999000251999999MA1102511999999MW1491REMMET051LOWZ 080700Z 00000KT 0200 FZFG VV001 M12/M12 Q1025;EQDQ01+000003PRSWM1Q02    003PRSWM1
0161111440999992000010808004+47330+012800FM-15+0763LOWZ V0209999999999000151CN0003001N1-01301-01301999999ADDGA1091+000159999GF109991999999000251999999MA1102511999999MW1491REMMET051LOWZ 080800Z VRB01KT 0300 FZFG VV001 M13/M13 Q1025;EQDQ01+000003PRSWM1Q02    003PRSWM1
0258111440999992000010809004+47330+012800SY-MT+0763LOWZ V0201901N00051000151CN0006001N1-01001-01131103161ADDAA106000091GA1091+000159999GF109991999999000151999999MA1102511093481MW1491REMSYN064AAXX  08094 11144 36/// /1901 11100 21113 39348 40316 333 55300;MET051LOWZ 080900Z 00000KT 0600 FZFG VV002 M12/M12 Q1025;EQDQ01+000003PRSWM1Q02  00002PRCP06Q03    003PRSWM1
0162111440999992000010810004+47330+012800FM-15+0763LOWZ V0209999C000010006019N0006001N1-01001-01101999999ADDGA1071+000609999GF107991999999999999999999MA1102511999999MW1481REMMET052LOWZ 081000Z 00000KT 0600 FZFG BKN002 M10/M11 Q1025;EQDQ01+000003PRSWM1Q02    003PRSWM1
0166111440999992000010811004+47330+012800FM-15+0763LOWZ V0209999C000012200019N0025001N1-00701-00801999999ADDGA1021+001509999GF104991999999999999999999MA1102401999999MW1101REMMET056LOWZ 081100Z 00000KT 2500 BR SCT005ST M07/M08 Q1024 SCT;EQDQ01+000003PRSWM1Q02    003PRSWM1
0242111440999992000010812004+47330+012800SY-MT+0763LOWZ V0200701N000512200019N0030001N1-00711-00801102901ADDAA106000091GF100991001001999999001001MA1102401093351MW1101REMSYN064AAXX  08124 11144 36/// /0701 11071 21080 39335 40290 333 55310;MET051LOWZ 081200Z 00000KT 3000 BR SKC M06/M07 Q1024 SKC;EQDQ01+000003PRSWM1Q02  00002PRCP06Q03    003PRSWM1
0145111440999992000010813004+47330+012800FM-15+0763LOWZ V0209999C000012200019N0050001N1-00501-00601999999ADDGF100991999999999999999999MA1102201999999MW1101REMMET051LOWZ 081300Z 00000KT 5000 BR SKC M05/M06 Q1022 SKC;EQDQ01+000003PRSWM1Q02    003PRSWM1
0126111440999992000010814004+47330+012800FM-15+0763LOWZ V02099999999992200019N0200001N1-00501-00601999999ADDGF100991999999999999999999MA1102201999999MW1001REMMET048LOWZ 081400Z VRB01KT 20KM SKC M05/M06 Q1022 SKC;EQDQ01+000000PRSWM2
0244111440999992000010815004+47330+012800SY-MT+0763LOWZ V0209999C000012200019N0040001N1-00641-00721102831ADDAA106000091GF100991001001999999001001MA1102201093311MW1121REMSYN064AAXX  08154 11144 36/// /0000 11064 21072 39331 40283 333 55300;MET053LOWZ 081500Z 00000KT 4000 MIFG SKC M07/M08 Q1022 SKC;EQDQ01+000003PRSWM1Q02  00002PRCP06Q03    003PRSWM1
0145111440999992000010816004+47330+012800FM-15+0763LOWZ V0209999C000012200019N0025001N1-01101-01201999999ADDGF100991999999999999999999MA1102301999999MW1101REMMET051LOWZ 081600Z 00000KT 2500 BR SKC M11/M12 Q1023 SKC;EQDQ01+000003PRSWM1Q02    003PRSWM1
0134111440999992000010818004+47330+012800FM-12+0763LOWZ V0209999C000019999999N9999999N1-00811-00921103021ADDAA106000091KA1999M-00481MA1999999093421REMSYN064AAXX  08184 11144 36/// /0000 11081 21092 39342 40302 333 11048;EQDQ01  00002PRCP06
0111111440999992000010821004+47330+012800FM-12+0763LOWZ V0209999C000019999999N9999999N1-00911-01031103071ADDAA106000091MA1999999093431REMSYN054AAXX  08214 11144 36/// /0000 11091 21103 39343 40307;EQDQ01  00002PRCP06
0111111440999992000010900004+47330+012800FM-12+0763LOWZ V0200301N000519999999N9999999N1-01061-01171103071ADDAA106000091MA1999999093381REMSYN054AAXX  09004 11144 36/// /0301 11106 21117 39338 40307;EQDQ01  00002PRCP06
0111111440999992000010903004+47330+012800FM-12+0763LOWZ V0200501N000519999999N9999999N1-01091-01241103091ADDAA106000091MA1999999093381REMSYN054AAXX  09034 11144 36/// /0501 11109 21124 39338 40309;EQDQ01  00002PRCP06
0161111440999992000010907004+47330+012800FM-15+0763LOWZ V0209999C00001000151CN0005001N1-01301-01401999999ADDGA1091+000159999GF109991999999000251999999MA1102401999999MW1491REMMET051LOWZ 090700Z 00000KT 0500 FZFG VV002 M13/M14 Q1024;EQDQ01+000003PRSWM1Q02    003PRSWM1
0166111440999992000010908004+47330+012800FM-15+0763LOWZ V0209999C000012200019N0015001N1-01201-01301999999ADDGA1021+018009999GF104991999999999999999999MA1102401999999MW1101REMMET056LOWZ 090800Z 00000KT 1500 BR SCT060SC M12/M13 Q1024 SCT;EQDQ01+000003PRSWM1Q02    003PRSWM1
0263111440999992000010909004+47330+012800SY-MT+0763LOWZ V0200801N000512200019N0020001N1-01041-01181103071ADDAA106000091GA1021+024009999GF104991999999999999999999MA1102401093381MW1101REMSYN064AAXX  09094 11144 36/// /0801 11104 21118 39338 40307 333 55304;MET056LOWZ 090900Z 00000KT 2000 BR SCT080AC M12/M13 Q1024 SCT;EQDQ01+000003PRSWM1Q02  00002PRCP06Q03    003PRSWM1
0166111440999992000010910004+47330+012800FM-15+0763LOWZ V02099999999992200019N0030001N1-01101-01201999999ADDGA1021+027009999GF104991999999999999999999MA1102401999999MW1101REMMET056LOWZ 091000Z VRB02KT 3000 BR SCT090AC M11/M12 Q1024 SCT;EQDQ01+000003PRSWM1Q02    003PRSWM1
0147111440999992000010911004+47330+012800FM-15+0763LOWZ V0209999C000012200019N0100001N1-00801-00901999999ADDGA1021+027009999GF104991999999999999999999MA1102301999999MW1001REMMET053LOWZ 091100Z 00000KT 10KM SCT090AC M08/M09 Q1023 SCT;EQDQ01+000000PRSWM2
0244111440999992000010912004+47330+012800SY-MT+0763LOWZ V0200401N000512200019N0150001N1-00711-00821102821ADDAA106000091GA1021+027009999GF104991999999999999999999MA1102201093271MW1001REMSYN064AAXX  09124 11144 36/// /0401 11071 21082 39327 40282 333 55306;MET053LOWZ 091200Z VRB01KT 15KM SCT090AC M06/M07 Q1022 SCT;EQDQ01+000000PRSWM2Q02  00002PRCP06
0147111440999992000010913004+47330+012800FM-15+0763LOWZ V0209999C000010270019N0200001N1-00601-00701999999ADDGA1071+027009999GF107991999999999999999999MA1102101999999MW1001REMMET053LOWZ 091300Z 00000KT 20KM BKN090AC M06/M07 Q1021 BKN;EQDQ01+000000PRSWM2
0147111440999992000010914004+47330+012800FM-15+0763LOWZ V02099999999990270019N0200001N1-00601-00701999999ADDGA1071+027009999GF107991999999999999999999MA1102101999999MW1001REMMET053LOWZ 091400Z VRB02KT 20KM BKN090AC M06/M07 Q1021 BKN;EQDQ01+000000PRSWM2
0244111440999992000010915004+47330+012800SY-MT+0763LOWZ V0200301N000510240019N0150001N1-00511-00591102671ADDAA106000091GA1071+024009999GF107991999999999999999999MA1102101093211MW1001REMSYN064AAXX  09154 11144 36/// /0301 11051 21059 39321 40267 333 55300;MET053LOWZ 091500Z 00000KT 15KM BKN080AC M08/M09 Q1021 BKN;EQDQ01+000000PRSWM2Q02  00002PRCP06
0147111440999992000010916004+47330+012800FM-15+0763LOWZ V0209999C000010210019N0100001N1-00801-00901999999ADDGA1071+021009999GF107991999999999999999999MA1102201999999MW1001REMMET053LOWZ 091600Z 00000KT 10KM BKN070AC M08/M09 Q1022 BKN;EQDQ01+000000PRSWM2
0134111440999992000010918004+47330+012800FM-12+0763LOWZ V0200401N000519999999N9999999N1-00471-00541102781ADDAA106000091KA1999M-00461MA1999999093321REMSYN064AAXX  09184 11144 36/// /0401 11047 21054 39332 40278 333 11046;EQDQ01  00002PRCP06
0111111440999992000010921004+47330+012800FM-12+0763LOWZ V0200201N000519999999N9999999N1-00451-00521102881ADDAA106000091MA1999999093421REMSYN054AAXX  09214 11144 36/// /0201 11045 21052 39342 40288;EQDQ01  00002PRCP06
0104111440999992000011000004+47330+012800FM-12+0763LOWZ V0202101N000519999999N9999999N1-00371-00421102991ADDAA106000191MA1999999093551REMSYN066AAXX  10004 11144 1//// /2101 11037 21042 39355 40299 69911 740//;
0108111440999992000011003004+47330+012800FM-12+0763LOWZ V0209999C000019999999N9999999N1-00391-00451103151ADDAA103000591MA1999999093681REMSYN070AAXX  10034 11144 2//// /0000 11039 21045 39368 40315 7404/ 333 69957;
0145111440999992000011006004+47330+012800FM-12+0763LOWZ V0209999C000019999999N9999999N1-00401-00461103241ADDAA112000891IA2999-00309KA1120N-00481MA1999999093761REMSYN082AAXX  10064 11144 1//// /0000 11040 21046 39376 40324 69972 7404/ 333 21048 3/103;
0191111440999992000011007004+47330+012800FM-15+0763LOWZ V02099999999990090019N0025001N1-00401-00501999999ADDGA1021+003009999GA2081+009009999GF108991999999999999999999MA1102911999999MW1101REMMET065LOWZ 100700Z VRB01KT 2500 BR FEW010SC OVC030SC M04/M05 Q1029 OVC;EQDQ01+000003PRSWM1Q02    003PRSWM1
0166111440999992000011008004+47330+012800FM-15+0763LOWZ V0209999C000010090019N0040001N1-00301-00401999999ADDGA1081+009009999GF108991999999999999999999MA1102911999999MW1101REMMET056LOWZ 100800Z 00000KT 4000 BR OVC030SC M03/M04 Q1029 OVC;EQDQ01+000003PRSWM1Q02    003PRSWM1
0288111440999992000011009004+47330+012800SY-MT+0763LOWZ V0200601N000510135019N0050001N1-00331-00381103401ADDAA106000091GA1021+009009999GA2071+013509999GF107991999999999999999999MA1102911093931MW1101REMSYN064AAXX  10094 11144 36/// /0601 11033 21038 39393 40340 333 55300;MET065LOWZ 100900Z 00000KT 5000 BR SCT030SC BKN045SC M03/M04 Q1029 BKN;EQDQ01+000003PRSWM1Q02  00002PRCP06Q03    003PRSWM1
0191111440999992000011010004+47330+012800FM-15+0763LOWZ V0209999C000010150019N0050001N1-00201-00301999999ADDGA1021+009009999GA2071+015009999GF107991999999999999999999MA1103011999999MW1101REMMET065LOWZ 101000Z 00000KT 5000 BR FEW030SC BKN055SC M02/M03 Q1030 BKN;EQDQ01+000003PRSWM1Q02    003PRSWM1
0172111440999992000011011004+47330+012800FM-15+0763LOWZ V0202401N000510180019N0080001N1-00201-00301999999ADDGA1021+009009999GA2071+018009999GF107991999999999999999999MA1103011999999MW1001REMMET062LOWZ 101100Z 24001KT 8000 FEW030SC BKN060SC M02/M03 Q1030 BKN;EQDQ01+000000PRSWM2
0269111440999992000011012004+47330+012800SY-MT+0763LOWZ V0201601N000510180019N0100001N1-00171-00251103391ADDAA106000091GA1021+009009999GA2071+018009999GF107991999999999999999999MA1103011093981MW1001REMSYN064AAXX  10124 11144 36/// /1601 11017 21025 39398 40339 333 55301;MET062LOWZ 101200Z VRB01KT 10KM FEW030SC BKN060SC M02/M03 Q1030 BKN;EQDQ01+000000PRSWM2Q02  00002PRCP06
0147111440999992000011013004+47330+012800FM-15+0763LOWZ V0209999C000010150019N0100001N1-00101-00201999999ADDGA1081+015009999GF108991999999999999999999MA1102911999999MW1001REMMET053LOWZ 101300Z 00000KT 10KM OVC050SC M01/M02 Q1029 OVC;EQDQ01+000000PRSWM2
0147111440999992000011014004+47330+012800FM-15+0763LOWZ V0209999C000010180019N0100001N1-00101-00201999999ADDGA1081+018009999GF108991999999999999999999MA1102911999999MW1001REMMET053LOWZ 101400Z 00000KT 10KM OVC060SC M01/M02 Q1029 OVC;EQDQ01+000000PRSWM2
0244111440999992000011015004+47330+012800SY-MT+0763LOWZ V0200801N000510210019N0100001N1-00121-00271103411ADDAA106000091GA1081+021009999GF108991999999999999999999MA1103011094011MW1001REMSYN064AAXX  10154 11144 36/// /0801 11012 21027 39401 40341 333 55300;MET053LOWZ 101500Z 00000KT 10KM OVC070SC M01/M02 Q1030 OVC;EQDQ01+000000PRSWM2Q02  00002PRCP06
0147111440999992000011016004+47330+012800FM-15+0763LOWZ V0209999C000010210019N0100001N1-00101-00201999999ADDGA1081+021009999GF108991999999999999999999MA1103011999999MW1001REMMET053LOWZ 101600Z 00000KT 10KM OVC075SC M01/M02 Q1030 OVC;EQDQ01+000000PRSWM2
0134111440999992000011018004+47330+012800FM-12+0763LOWZ V0209999C000019999999N9999999N1-00291-00371103581ADDAA106000091KA1999M-00111MA1999999094111REMSYN064AAXX  10184 11144 36/// /0000 11029 21037 39411 40358 333 11011;EQDQ01  00002PRCP06
0111111440999992000011021004+47330+012800FM-12+0763LOWZ V0202401N000519999999N9999999N1-00291-00351103701ADDAA106000091MA1999999094221REMSYN054AAXX  10214 11144 36/// /2401 11029 21035 39422 40370;EQDQ01  00002PRCP06
0111111440999992000011100004+47330+012800FM-12+0763LOWZ V0209999C000019999999N9999999N1-00411-00481103761ADDAA106000091MA1999999094231REMSYN054AAXX  11004 11144 36/// /0000 11041 21048 39423 40376;EQDQ01  00002PRCP06
0111111440999992000011103004+47330+012800FM-12+0763LOWZ V0209999C000019999999N9999999N1-00451-00491103841ADDAA106000091MA1999999094291REMSYN054AAXX  11034 11144 36/// /0000 11045 21049 39429 40384;EQDQ01  00002PRCP06
0245111440999992000011106004+47330+012800FM-12+0763LOWZ V0209999C000019999999N9999999N1-00501-00561103971ADDAA106000091AJ100659199999999AY141061AY241061GA1091+999999999GF109991091999999999999999IA2999-00309KA1120N-00521MA1999999094391MW1451REMSYN082AAXX  11064 11144 31/// 90000 11050 21056 39439 40397 74544 333 21052 3/103 44065;EQDQ01  00002PRCP06
0161111440999992000011107004+47330+012800FM-15+0763LOWZ V0209999C00001000151CN0005001N1-00601-00601999999ADDGA1091+000159999GF109991999999000251999999MA1103491999999MW1491REMMET051LOWZ 110700Z 00000KT 0500 FZFG VV003 M06/M06 Q1035;EQDQ01+000003PRSWM1Q02    003PRSWM1
0161111440999992000011108004+47330+012800FM-15+0763LOWZ V0209999C00001000151CN0005001N1-00501-00501999999ADDGA1091+000159999GF109991999999000251999999MA1103491999999MW1491REMMET051LOWZ 110800Z 00000KT 0500 FZFG VV003 M05/M05 Q1035;EQDQ01+000003PRSWM1Q02    003PRSWM1
0258111440999992000011109004+47330+012800SY-MT+0763LOWZ V0201701N00051000151CN0005001N1-00531-00591104121ADDAA106000091GA1091+000159999GF109991999999000151999999MA1103591094521MW1491REMSYN064AAXX  11094 11144 36/// /1701 11053 21059 39452 40412 333 55300;MET051LOWZ 110900Z 00000KT 0500 FZFG VV003 M05/M05 Q1036;EQDQ01+000003PRSWM1Q02  00002PRCP06Q03    003PRSWM1
0161111440999992000011110004+47330+012800FM-15+0763LOWZ V0209999C00001000151CN0005001N1-00501-00501999999ADDGA1091+000159999GF109991999999000251999999MA1103591999999MW1491REMMET051LOWZ 111000Z 00000KT 0500 FZFG VV003 M05/M05 Q1036;EQDQ01+000003PRSWM1Q02    003PRSWM1
0161111440999992000011111004+47330+012800FM-15+0763LOWZ V0209999C00001000151CN0005001N1-00401-00401999999ADDGA1091+000159999GF109991999999000251999999MA1103491999999MW1491REMMET051LOWZ 111100Z 00000KT 0500 FZFG VV003 M04/M04 Q1035;EQDQ01+000003PRSWM1Q02    003PRSWM1
0258111440999992000011112004+47330+012800SY-MT+0763LOWZ V0200401N00051000151CN0005001N1-00521-00591104001ADDAA106000091GA1091+000159999GF109991999999000151999999MA1103391094411MW1491REMSYN064AAXX  11124 11144 36/// /0401 11052 21059 39441 40400 333 55300;MET051LOWZ 111200Z 00000KT 0500 FZFG VV003 M04/M04 Q1034;EQDQ01+000003PRSWM1Q02  00002PRCP06Q03    003PRSWM1
0147111440999992000011113004+47330+012800FM-15+0763LOWZ V0209999C000012200019N0005001N1-00401-00401999999ADDGF100991999999999999999999MA1103391999999MW1481REMMET053LOWZ 111300Z 00000KT 0500 FZFG SKC M04/M04 Q1034 SKC;EQDQ01+000003PRSWM1Q02    003PRSWM1
0168111440999992000011114004+47330+012800FM-15+0763LOWZ V0209999C000012200019N0018001N1-00401-00401999999ADDGA1021+018009999GF102991999999999999999999MA1103391999999MW1481REMMET058LOWZ 111400Z 00000KT 1800 FZBR FEW060CU M04/M04 Q1034 FEW;EQDQ01+000003PRSWM1Q02    003PRSWM1
0265111440999992000011115004+47330+012800SY-MT+0763LOWZ V0209999C000012200019N0015001N1-00591-00671103981ADDAA106000091GA1021+018009999GF102991999999999999999999MA1103391094371MW1481REMSYN064AAXX  11154 11144 36/// /0000 11059 21067 39437 40398 333 55300;MET058LOWZ 111500Z 00000KT 1500 FZBR FEW060CU M06/M06 Q1034 FEW;EQDQ01+000003PRSWM1Q02  00002PRCP06Q03    003PRSWM1
0168111440999992000011116004+47330+012800FM-15+0763LOWZ V0209999C000012200019N0015001N1-01001-01001999999ADDGA1021+021009999GF102991999999999999999999MA1103391999999MW1481REMMET058LOWZ 111600Z 00000KT 1500 FZBR FEW070CU M10/M10 Q1034 FEW;EQDQ01+000003PRSWM1Q02    003PRSWM1
0134111440999992000011118004+47330+012800FM-12+0763LOWZ V0209999C000019999999N9999999N1-00751-00841104111ADDAA106000091KA1999M-00421MA1999999094431REMSYN064AAXX  11184 11144 36/// /0000 11075 21084 39443 40411 333 11042;EQDQ01  00002PRCP06
0111111440999992000011121004+47330+012800FM-12+0763LOWZ V0200601N000519999999N9999999N1-00951-01071104201ADDAA106000091MA1999999094441REMSYN054AAXX  11214 11144 36/// /0601 11095 21107 39444 40420;EQDQ01  00002PRCP06
0111111440999992000011200004+47330+012800FM-12+0763LOWZ V0202101N000519999999N9999999N1-00931-01051104151ADDAA106000091MA1999999094401REMSYN054AAXX  12004 11144 36/// /2101 11093 21105 39440 40415;EQDQ01  00002PRCP06
0111111440999992000011203004+47330+012800FM-12+0763LOWZ V0201901N000519999999N9999999N1-00971-01091104041ADDAA106000091MA1999999094291REMSYN054AAXX  12034 11144 36/// /1901 11097 21109 39429 40404;EQDQ01  00002PRCP06
0152111440999992000011206004+47330+012800FM-12+0763LOWZ V0201701N000519999999N9999999N1-01041-01151104011ADDAA106000091IA2999-00609KA1120N-01041MA1999999094241REMSYN070AAXX  12064 11144 36/// /1701 11104 21115 39424 40401 333 21104 3/106;EQDQ01  00002PRCP06
0179111440999992000011207004+47330+012800FM-15+0763LOWZ V0209999C000010090019N0015001N1-01101-01201999999ADDGA1021+000909999GA2071+009009999GF107991999999999999999999MA1103291999999MW1001REMMET069LOWZ 120700Z 00000KT 1500 FZBCFG SCT003ST BKN030SC M11/M12 Q1033 BKN;EQDQ01+000000PRSWM2
0179111440999992000011208004+47330+012800FM-15+0763LOWZ V0202601N001010060019N0015001N1-01201-01301999999ADDGA1021+000909999GA2071+006009999GF107991999999999999999999MA1103291999999MW1001REMMET069LOWZ 120800Z 26002KT 1500 FZBCFG SCT003ST BKN020SC M12/M13 Q1033 BKN;EQDQ01+000000PRSWM2
0265111440999992000011209004+47330+012800SY-MT+0763LOWZ V0201701N000512200019N0030001N1-01131-01281104021ADDAA106000091GA1021+000909999GF102991999999999999999999MA1103291094211MW1481REMSYN064AAXX  12094 11144 36/// /1701 11113 21128 39421 40402 333 55300;MET058LOWZ 120900Z 24002KT 3000 FZBR FEW003ST M13/M14 Q1033 FEW;EQDQ01+000003PRSWM1Q02  00002PRCP06Q03    003PRSWM1
0168111440999992000011210004+47330+012800FM-15+0763LOWZ V0209999C000012200019N0030001N1-01101-01201999999ADDGA1021+000909999GF102991999999999999999999MA1103181999999MW1481REMMET058LOWZ 121000Z 00000KT 3000 FZBR FEW003ST M11/M12 Q1032 FEW;EQDQ01+000003PRSWM1Q02    003PRSWM1
0126111440999992000011211004+47330+012800FM-15+0763LOWZ V0209999C000012200019N0300001N1-00901-01001999999ADDGF100991999999999999999999MA1103121999999MW1001REMMET048LOWZ 121100Z 00000KT 30KM SKC M09/M10 Q1031 SKC;EQDQ01+000000PRSWM2
0223111440999992000011212004+47330+012800SY-MT+0763LOWZ V0200501N000512200019N0300001N1-00951-01081103691ADDAA106000091GF100991001001999999001001MA1103011093981MW1001REMSYN064AAXX  12124 11144 36/// /0501 11095 21108 39398 40369 333 55310;MET048LOWZ 121200Z 00000KT 30KM SKC M07/M08 Q1030 SKC;EQDQ01+000000PRSWM2Q02  00002PRCP06
0126111440999992000011213004+47330+012800FM-15+0763LOWZ V0209999C000012200019N0300001N1-00601-00701999999ADDGF100991999999999999999999MA1102911999999MW1001REMMET048LOWZ 121300Z 00000KT 30KM SKC M06/M07 Q1029 SKC;EQDQ01+000000PRSWM2
0126111440999992000011214004+47330+012800FM-15+0763LOWZ V0209999C000012200019N0300001N1-00601-00701999999ADDGF100991999999999999999999MA1102811999999MW1001REMMET048LOWZ 121400Z 00000KT 30KM SKC M06/M07 Q1028 SKC;EQDQ01+000000PRSWM2
0223111440999992000011215004+47330+012800SY-MT+0763LOWZ V0202201N000512200019N0080001N1-00821-00971103441ADDAA106000091GF100991001001999999001001MA1102711093801MW1001REMSYN064AAXX  12154 11144 36/// /2201 11082 21097 39380 40344 333 55300;MET048LOWZ 121500Z 00000KT 8000 SKC M08/M09 Q1027 SKC;EQDQ01+000000PRSWM2Q02  00002PRCP06
0133111440999992000011216004+47330+012800FM-15+0763LOWZ V0209999C000012200019N0015001N1-01201-01301999999ADDGF100991999999999999999999MA1102711999999MW1001REMMET055LOWZ 121600Z 00000KT 1500 FZBCFG SKC M12/M13 Q1027 SKC;EQDQ01+000000PRSWM2
0134111440999992000011218004+47330+012800FM-12+0763LOWZ V0202101N000519999999N9999999N1-01001-01131103481ADDAA106000091KA1999M-00681MA1999999093771REMSYN064AAXX  12184 11144 36/// /2101 11100 21113 39377 40348 333 11068;EQDQ01  00002PRCP06
0111111440999992000011221004+47330+012800FM-12+0763LOWZ V0202201N000519999999N9999999N1-01151-01301103471ADDAA106000091MA1999999093711REMSYN054AAXX  12214 11144 36/// /2201 11115 21130 39371 40347;EQDQ01  00002PRCP06
0111111440999992000011300004+47330+012800FM-12+0763LOWZ V0202401N000519999999N9999999N1-01181-01331103371ADDAA106000091MA1999999093611REMSYN054AAXX  13004 11144 36/// /2401 11118 21133 39361 40337;EQDQ01  00002PRCP06
0111111440999992000011303004+47330+012800FM-12+0763LOWZ V0209999C000019999999N9999999N1-01431-01601103351ADDAA106000091MA1999999093501REMSYN054AAXX  13034 11144 36/// /0000 11143 21160 39350 40335;EQDQ01  00002PRCP06
0217111440999992000011306004+47330+012800FM-12+0763LOWZ V0209999C000012200019N9999999N1-01631-01811103361ADDAA106000091AJ100659199999999GA1001+999999999GF100991001001999999001001IA2999-01009KA1120N-01641MA1999999093431REMSYN076AAXX  13064 11144 32/// 00000 11163 21181 39343 40336 333 21164 3/110 44065;EQDQ01  00002PRCP06
0139111440999992000011307004+47330+012800FM-15+0763LOWZ V0209999C000012200019N0050001N1-02001-02201999999ADDGF100991999999999999999999MA1102511999999MW1001REMMET061LOWZ 130700Z 00000KT 5000 1000E FZBCFG SKC M20/M22 Q1025 SKC;EQDQ01+000000PRSWM2
0133111440999992000011308004+47330+012800FM-15+0763LOWZ V0209999C000012200019N0008001N1-02101-02301999999ADDGF100991999999999999999999MA1102511999999MW1001REMMET055LOWZ 130800Z 00000KT 0800 FZBCFG SKC M21/M23 Q1025 SKC;EQDQ01+000000PRSWM2
0230111440999992000011309004+47330+012800SY-MT+0763LOWZ V0201801N000512200019N0010001N1-01351-01531103221ADDAA106000091GF100991001001999999001001MA1102511093411MW1001REMSYN064AAXX  13094 11144 36/// /1801 11135 21153 39341 40322 333 55310;MET055LOWZ 130900Z 00000KT 1000 FZBCFG SKC M19/M21 Q1025 SKC;EQDQ01+000000PRSWM2Q02  00002PRCP06
0153111440999992000011310004+47330+012800FM-15+0763LOWZ V0209999C000012200019N0050001N1-01401-01501999999ADDGF100991999999999999999999MA1102301999999MW1481REMMET059LOWZ 131000Z 00000KT 5000 1500E FZBR SKC M14/M15 Q1023 SKC;EQDQ01+000003PRSWM1Q02    003PRSWM1
0126111440999992000011311004+47330+012800FM-15+0763LOWZ V02099999999992200019N0060001N1-01201-01301999999ADDGF100991999999999999999999MA1102201999999MW1001REMMET048LOWZ 131100Z VRB02KT 6000 SKC M12/M13 Q1022 SKC;EQDQ01+000000PRSWM2
0223111440999992000011312004+47330+012800SY-MT+0763LOWZ V0200401N000512200019N0100001N1-01031-01301102851ADDAA106000091GF100991001001999999001001MA1102101093191MW1001REMSYN064AAXX  13124 11144 36/// /0401 11103 21130 39319 40285 333 55310;MET048LOWZ 131200Z 00000KT 10KM SKC M10/M11 Q1021 SKC;EQDQ01+000000PRSWM2Q02  00002PRCP06
0126111440999992000011313004+47330+012800FM-15+0763LOWZ V0209999C000012200019N0150001N1-00801-00901999999ADDGF100991999999999999999999MA1102001999999MW1001REMMET048LOWZ 131300Z 00000KT 15KM SKC M08/M09 Q1020 SKC;EQDQ01+000000PRSWM2
0126111440999992000011314004+47330+012800FM-15+0763LOWZ V0209999C000012200019N0300001N1-00901-01001999999ADDGF100991999999999999999999MA1102001999999MW1001REMMET048LOWZ 131400Z 00000KT 30KM SKC M09/M10 Q1020 SKC;EQDQ01+000000PRSWM2
0244111440999992000011315004+47330+012800SY-MT+0763LOWZ V0209999C000012200019N0300001N1-01021-01241102691ADDAA106000091GF100991001001999999001001MA1101901093051MW1121REMSYN064AAXX  13154 11144 36/// /0000 11102 21124 39305 40269 333 55300;MET053LOWZ 131500Z VRB01KT 30KM MIFG SKC M11/M12 Q1019 SKC;EQDQ01+000003PRSWM1Q02  00002PRCP06Q03    003PRSWM1
0147111440999992000011316004+47330+012800FM-15+0763LOWZ V0209999C000012200019N0020001N1-01401-01501999999ADDGF100991999999999999999999MA1102001999999MW1481REMMET053LOWZ 131600Z 00000KT 2000 FZBR SKC M14/M15 Q1020 SKC;EQDQ01+000003PRSWM1Q02    003PRSWM1
0134111440999992000011318004+47330+012800FM-12+0763LOWZ V0202301N000519999999N9999999N1-01231-01391102851ADDAA106000091KA1999M-00811MA1999999093121REMSYN064AAXX  13184 11144 36/// /2301 11123 21139 39312 40285 333 11081;EQDQ01  00002PRCP06
0115111440999992000011321004+47330+012800FM-12+076399999V0209999C00001999999WN9999999N1-01361-01521102931ADDAA199000091MA1999999093141REMSYN058    AAXX  13214 11144 36/// /0000 11136 21152 39314 40293;EQDQ01  00002PRCP99
0115111440999992000011400004+47330+012800FM-12+076399999V0209999C00001999999WN9999999N1-01531-01701103051ADDAA199000091MA1999999093191REMSYN058    AAXX  14004 11144 36/// /0000 11153 21170 39319 40305;EQDQ01  00002PRCP99
0115111440999992000011403004+47330+012800FM-12+076399999V0200501N00051999999WN9999999N1-01681-01851103161ADDAA199000091MA1999999093231REMSYN058    AAXX  14034 11144 36/// /0501 11168 21185 39323 40316;EQDQ01  00002PRCP99
0221111440999992000011406004+47330+012800FM-12+076399999V0209999C00001220001WN9999999N1-01721-01921103241ADDAA199000091AJ100659199999999GA1001+999999999GF100991001001999999001001IA2999-01109KA1120N-01741MA1999999093291REMSYN080    AAXX  14064 11144 33/// 00000 11172 21192 39329 40324 333 21174 3/111 44065;EQDQ01  00002PRCP99
0147111440999992000011407004+47330+012800FM-15+0763LOWZ V02099999999992200019N0040001N1-02001-02201999999ADDGF100991999999999999999999MA1102401999999MW1481REMMET053LOWZ 140700Z VRB01KT 4000 FZBR SKC M20/M22 Q1024 SKC;EQDQ01+000003PRSWM1Q02    003PRSWM1
0147111440999992000011408004+47330+012800FM-15+0763LOWZ V0209999C000012200019N0050001N1-02101-02301999999ADDGF100991999999999999999999MA1102401999999MW1481REMMET053LOWZ 140800Z 00000KT 5000 FZBR SKC M21/M23 Q1024 SKC;EQDQ01+000003PRSWM1Q02    003PRSWM1
0211111440999992000011409004+47330+012800SY-MT+076399999V0200601N00051999999WN0100001N1-01551-01731103241ADDAA199000091MA1999999093351MW1001REMSYN068    AAXX  14094 11144 36/// /0601 11155 21173 39335 40324 333 55310;MET058LOWZ 140900Z 00000KT 10KM 3000E VCG SKC M19/M21 Q1024 SKC;EQDQ01+000000PRSWM2Q02  00002PRCP99
0096111440999992000011410004+47330+012800FM-15+0763LOWZ V02099999999992200019N0150001N1+99999+99999999999ADDMW1001REMMET059LOWZ 141000Z VRB01KT 15KM 3000E VCFG SKC M16/M18 Q1023 SKC;EQDQ01+000000PRSWM2
0094111440999992000011411004+47330+012800FM-15+0763LOWZ V0209999C000012200019N0300001N1+99999+99999999999ADDMW1001REMMET057LOWZ 141100Z 00000KT 30KM 5000E BR SKC M11/M12 Q1022 SKC;EQDQ01+000000PRSWM2
0227111440999992000011412004+47330+012800SY-MT+076399999V0200701N00051220001WN0300001N1-01011-01321102861ADDAA199000091GF100991001001999999001001MA1102101093201MW1001REMSYN068    AAXX  14124 11144 36/// /0701 11101 21132 39320 40286 333 55310;MET048LOWZ 141200Z VRB01KT 30KM SKC M09/M10 Q1021 SKC;EQDQ01+000000PRSWM2Q02  00002PRCP99
0126111440999992000011413004+47330+012800FM-15+0763LOWZ V02099999999992200019N0300001N1-01001-01101999999ADDGF100991999999999999999999MA1102101999999MW1001REMMET048LOWZ 141300Z VRB01KT 30KM SKC M10/M11 Q1021 SKC;EQDQ01+000000PRSWM2
0126111440999992000011414004+47330+012800FM-15+0763LOWZ V0209999C000012200019N0300001N1-00801-00901999999ADDGF100991999999999999999999MA1102001999999MW1001REMMET048LOWZ 141400Z 00000KT 30KM SKC M08/M09 Q1020 SKC;EQDQ01+000000PRSWM2
0227111440999992000011415004+47330+012800SY-MT+0763LOWZ V0202701N000512200019N0200001N1-00961-01201102811ADDAA199000091GF100991999999999999999999MA1102101093181MW1001REMSYN068    AAXX  14154 11144 36/// /2701 11096 21120 39318 40281 333 55300;MET048LOWZ 141500Z 00000KT 20KM SKC M10/M11 Q1021 SKC;EQDQ01+000000PRSWM2Q02  00002PRCP99
0154111440999992000011416004+47330+012800FM-15+0763LOWZ V02099999999992200019N0200001N1-01201-01301999999ADDGF100991999999999999999999MA1102101999999MW1121REMMET060LOWZ 141600Z VRB01KT 20KM MIFG SKC M12/M13 Q1021 MIFG E/SKC;EQDQ01+000003PRSWM1Q02    003PRSWM1
0138111440999992000011418004+47330+012800FM-12+076399999V0202101N00051999999WN9999999N1-01111-01271103031ADDAA199000091KA1999M-00801MA1999999093321REMSYN068    AAXX  14184 11144 36/// /2101 11111 21127 39332 40303 333 11080;EQDQ01  00002PRCP99
0115111440999992000011421004+47330+012800FM-12+076399999V0201901N00051999999WN9999999N1-01261-01411103231ADDAA199000091MA1999999093451REMSYN058    AAXX  14214 11144 36/// /1901 11126 21141 39345 40323;EQDQ01  00002PRCP99
0115111440999992000011500004+47330+012800FM-12+076399999V0209999C00001999999WN9999999N1-01471-01641103391ADDAA199000091MA1999999093521REMSYN058    AAXX  15004 11144 36/// /0000 11147 21164 39352 40339;EQDQ01  00002PRCP99
0115111440999992000011503004+47330+012800FM-12+076399999V0209999C00001999999WN9999999N1-01491-01661103471ADDAA199000091MA1999999093581REMSYN058    AAXX  15034 11144 36/// /0000 11149 21166 39358 40347;EQDQ01  00002PRCP99
0221111440999992000011506004+47330+012800FM-12+076399999V0209999C00001220001WN9999999N1-01571-01751103531ADDAA199000091AJ100659199999999GA1001+999999999GF100991001001999999001001IA2999-01009KA1120N-01591MA1999999093611REMSYN080    AAXX  15064 11144 33/// 00000 11157 21175 39361 40353 333 21159 3/110 44065;EQDQ01  00002PRCP99
0147111440999992000011507004+47330+012800FM-15+0763LOWZ V0209999C000012200019N0030001N1-01901-02101999999ADDGF100991999999999999999999MA1102811999999MW1481REMMET053LOWZ 150700Z 00000KT 3000 FZBR SKC M19/M21 Q1028 SKC;EQDQ01+000003PRSWM1Q02    003PRSWM1
0147111440999992000011508004+47330+012800FM-15+0763LOWZ V0209999C000012200019N0015001N1-01801-02001999999ADDGF100991999999999999999999MA1102811999999MW1481REMMET053LOWZ 150800Z 00000KT 1500 FZBR SKC M18/M20 Q1028 SKC;EQDQ01+000003PRSWM1Q02    003PRSWM1
0248111440999992000011509004+47330+012800SY-MT+076399999V0200701N00051220001WN0050001N1-01371-01551103591ADDAA199000091GF100991001001999999001001MA1102811093741MW1481REMSYN068    AAXX  15094 11144 36/// /0701 11137 21155 39374 40359 333 55310;MET053LOWZ 150900Z 00000KT 5000 FZBR SKC M18/M20 Q1028 SKC;EQDQ01+000003PRSWM1Q02  00002PRCP99Q03    003PRSWM1
0147111440999992000011510004+47330+012800FM-15+0763LOWZ V0209999C000012200019N0050001N1-01601-01801999999ADDGF100991999999999999999999MA1102811999999MW1481REMMET053LOWZ 151000Z 00000KT 5000 FZBR SKC M16/M18 Q1028 SKC;EQDQ01+000003PRSWM1Q02    003PRSWM1
0126111440999992000011511004+47330+012800FM-15+0763LOWZ V0209999C000012200019N0100001N1-01201-01601999999ADDGF100991999999999999999999MA1102811999999MW1001REMMET048LOWZ 151100Z 00000KT 10KM SKC M12/M16 Q1028 SKC;EQDQ01+000000PRSWM2
0227111440999992000011512004+47330+012800SY-MT+076399999V0200601N00051220001WN0300001N1-00881-01191103281ADDAA199000091GF100991001001999999001001MA1102811093631MW1001REMSYN068    AAXX  15124 11144 36/// /0601 11088 21119 39363 40328 333 55310;MET048LOWZ 151200Z 00000KT 30KM SKC M08/M10 Q1028 SKC;EQDQ01+000000PRSWM2Q02  00002PRCP99
0126111440999992000011513004+47330+012800FM-15+0763LOWZ V0209999C000012200019N0300001N1-00601-00801999999ADDGF100991999999999999999999MA1102611999999MW1001REMMET048LOWZ 151300Z 00000KT 30KM SKC M06/M08 Q1026 SKC;EQDQ01+000000PRSWM2
0126111440999992000011514004+47330+012800FM-15+0763LOWZ V0209999C000012200019N0300001N1-00501-00801999999ADDGF100991999999999999999999MA1102511999999MW1001REMMET048LOWZ 151400Z 00000KT 30KM SKC M05/M08 Q1025 SKC;EQDQ01+000000PRSWM2
0227111440999992000011515004+47330+012800SY-MT+076399999V0202301N00051220001WN0300001N1-00771-01011103171ADDAA199000091GF100991001001999999001001MA1102511093571MW1001REMSYN068    AAXX  15154 11144 36/// /2301 11077 21101 39357 40317 333 55300;MET048LOWZ 151500Z 00000KT 30KM SKC M08/M12 Q1025 SKC;EQDQ01+000000PRSWM2Q02  00002PRCP99
0126111440999992000011516004+47330+012800FM-15+0763LOWZ V0209999C000012200019N0300001N1-01201-01401999999ADDGF100991999999999999999999MA1102511999999MW1001REMMET048LOWZ 151600Z 00000KT 30KM SKC M12/M14 Q1025 SKC;EQDQ01+000000PRSWM2
0138111440999992000011518004+47330+012800FM-12+076399999V0200201N00051999999WN9999999N1-01041-01181103431ADDAA199000091KA1999M-00541MA1999999093711REMSYN068    AAXX  15184 11144 36/// /0201 11104 21118 39371 40343 333 11054;EQDQ01  00002PRCP99
0115111440999992000011521004+47330+012800FM-12+076399999V0202201N00051999999WN9999999N1-01051-01161103581ADDAA199000091MA1999999093841REMSYN058    AAXX  15214 11144 36/// /2201 11105 21116 39384 40358;EQDQ01  00002PRCP99
0115111440999992000011600004+47330+012800FM-12+076399999V0200301N00051999999WN9999999N1-01361-01521103761ADDAA199000091MA1999999093891REMSYN058    AAXX  16004 11144 36/// /0301 11136 21152 39389 40376;EQDQ01  00002PRCP99
0115111440999992000011603004+47330+012800FM-12+076399999V0202001N00051999999WN9999999N1-01251-01411103771ADDAA199000091MA1999999093941REMSYN058    AAXX  16034 11144 36/// /2001 11125 21141 39394 40377;EQDQ01  00002PRCP99
0205111440999992000011606004+47330+012800FM-12+076399999V0200501N00051999999WN9999999N1-01131-01291103691ADDAA199000091AJ100639199999999GF107991999999999999999999IA2999-00909KA1120N-01481MA1999999093911REMSYN080    AAXX  16064 11144 32/// 70501 11113 21129 39391 40369 333 21148 3/109 44063;EQDQ01  00002PRCP99
0147111440999992000011607004+47330+012800FM-15+0763LOWZ V0209999C000010210019N0080001N1-01001-01201999999ADDGA1081+021009999GF108991999999999999999999MA1103011999999MW1001REMMET053LOWZ 160700Z 00000KT 8000 OVC070SC M10/M12 Q1030 OVC;EQDQ01+000000PRSWM2
0147111440999992000011608004+47330+012800FM-15+0763LOWZ V0209999C000010210019N0080001N1-01001-01201999999ADDGA1081+021009999GF108991999999999999999999MA1103011999999MW1001REMMET053LOWZ 160800Z 00000KT 8000 OVC070SC M10/M12 Q1030 OVC;EQDQ01+000000PRSWM2
0248111440999992000011609004+47330+012800SY-MT+076399999V0200801N00051021001WN0100001N1-00931-01071103671ADDAA199000091GA1071+021009999GF107991999999999999999999MA1103011093971MW1001REMSYN068    AAXX  16094 11144 36/// /0801 11093 21107 39397 40367 333 55300;MET053LOWZ 160900Z 00000KT 10KM BKN070SC M09/M10 Q1030 BKN;EQDQ01+000000PRSWM2Q02  00002PRCP99
0147111440999992000011610004+47330+012800FM-15+0763LOWZ V0209999C000010210019N0100001N1-00801-00901999999ADDGA1071+021009999GF107991999999999999999999MA1103121999999MW1001REMMET053LOWZ 161000Z 00000KT 10KM BKN070SC M08/M09 Q1031 BKN;EQDQ01+000000PRSWM2
0147111440999992000011611004+47330+012800FM-15+0763LOWZ V0209999C000010240019N0100001N1-00601-00701999999ADDGA1071+024009999GF107991999999999999999999MA1103121999999MW1001REMMET053LOWZ 161100Z 00000KT 10KM BKN080SC M06/M07 Q1031 BKN;EQDQ01+000000PRSWM2
0248111440999992000011612004+47330+012800SY-MT+076399999V0200301N00051220001WN0150001N1-00631-00891103551ADDAA199000091GA1021+024009999GF104991999999999999999999MA1102911093961MW1001REMSYN068    AAXX  16124 11144 36/// /0301 11063 21089 39396 40355 333 55304;MET053LOWZ 161200Z 12002KT 15KM SCT080SC M04/M06 Q1029 SCT;EQDQ01+000000PRSWM2Q02  00002PRCP99
0147111440999992000011613004+47330+012800FM-15+0763LOWZ V02099999999992200019N0200001N1-00401-00701999999ADDGA1021+024009999GF102991999999999999999999MA1102811999999MW1001REMMET053LOWZ 161300Z VRB01KT 20KM FEW080SC M04/M07 Q1028 FEW;EQDQ01+000000PRSWM2
0147111440999992000011614004+47330+012800FM-15+0763LOWZ V02099999999992200019N0200001N1-00401-00701999999ADDGA1021+024009999GF102991999999999999999999MA1102811999999MW1001REMMET053LOWZ 161400Z VRB02KT 20KM FEW080SC M04/M07 Q1028 FEW;EQDQ01+000000PRSWM2
0227111440999992000011615004+47330+012800SY-MT+076399999V0202601N00051220001WN0200001N1-00551-00791103371ADDAA199000091GF100991001001999999001001MA1102811093831MW1001REMSYN068    AAXX  16154 11144 36/// /2601 11055 21079 39383 40337 333 55300;MET048LOWZ 161500Z 00000KT 20KM SKC M03/M06 Q1028 SKC;EQDQ01+000000PRSWM2Q02  00002PRCP99
0126111440999992000011616004+47330+012800FM-15+0763LOWZ V0202501N001012200019N0100001N1-00801-00901999999ADDGF100991999999999999999999MA1102811999999MW1001REMMET048LOWZ 161600Z 25002KT 10KM SKC M08/M09 Q1028 SKC;EQDQ01+000000PRSWM2
0138111440999992000011618004+47330+012800FM-12+076399999V0202101N00051999999WN9999999N1-00851-00981103661ADDAA199000091KA1999M-00411MA1999999093991REMSYN068    AAXX  16184 11144 36/// /2101 11085 21098 39399 40366 333 11041;EQDQ01  00002PRCP99
0147111440999992000011707004+47330+012800FM-15+0763LOWZ V0209999C000010210019N0150001N1-00801-00901999999ADDGA1081+021009999GF108991999999999999999999MA1102611999999MW1001REMMET053LOWZ 170700Z 00000KT 15KM OVC070SC M08/M09 Q1026 OVC;EQDQ01+000000PRSWM2
0147111440999992000011708004+47330+012800FM-15+0763LOWZ V0209999C000010180019N0150001N1-00801-00901999999ADDGA1081+018009999GF108991999999999999999999MA1102611999999MW1001REMMET053LOWZ 170800Z 00000KT 15KM OVC065SC M08/M09 Q1026 OVC;EQDQ01+000000PRSWM2
0147111440999992000011709004+47330+012800FM-15+0763LOWZ V02099999999990150019N0150001N1-00601-00701999999ADDGA1081+015009999GF108991999999999999999999MA1102611999999MW1001REMMET053LOWZ 170900Z VRB01KT 15KM OVC050SC M06/M07 Q1026 OVC;EQDQ01+000000PRSWM2
0147111440999992000011710004+47330+012800FM-15+0763LOWZ V0209999C000010150019N0150001N1-00501-00601999999ADDGA1081+015009999GF108991999999999999999999MA1102511999999MW1001REMMET053LOWZ 171000Z 00000KT 15KM OVC050SC M05/M06 Q1025 OVC;EQDQ01+000000PRSWM2
0172111440999992000011711004+47330+012800FM-15+0763LOWZ V0202401N001010150019N0150001N1-00501-00601999999ADDGA1021+006009999GA2081+015009999GF108991999999999999999999MA1102511999999MW1001REMMET062LOWZ 171100Z 24002KT 15KM FEW020SC OVC050SC M05/M06 Q1025 OVC;EQDQ01+000000PRSWM2
0172111440999992000011712004+47330+012800FM-15+0763LOWZ V02099999999990150019N0150001N1-00401-00601999999ADDGA1021+006009999GA2081+015009999GF108991999999999999999999MA1102401999999MW1001REMMET062LOWZ 171200Z VRB01KT 15KM FEW020SC OVC050SC M04/M06 Q1024 OVC;EQDQ01+000000PRSWM2
0176111440999992000011713004+47330+012800FM-15+0763LOWZ V02099999999990150019N0100001N1-00401-00601999999ADDGA1021+006009999GA2081+015009999GF108991999999999999999999MA1102101999999MW1001REMMET066LOWZ 171300Z VRB01KT 10KM -SN FEW020SC OVC050SC M04/M06 Q1021 OVC;EQDQ01+000000PRSWM2
0172111440999992000011714004+47330+012800FM-15+0763LOWZ V0202001N001010150019N0100001N1-00301-00501999999ADDGA1021+003009999GA2081+015009999GF108991999999999999999999MA1102001999999MW1001REMMET062LOWZ 171400Z 20002KT 10KM FEW010SC OVC050SC M03/M05 Q1020 OVC;EQDQ01+000000PRSWM2
0147111440999992000011715004+47330+012800FM-15+0763LOWZ V0209999C000010150019N0150001N1-00401-00601999999ADDGA1081+015009999GF108991999999999999999999MA1102001999999MW1001REMMET053LOWZ 171500Z 00000KT 15KM OVC050SC M04/M06 Q1020 OVC;EQDQ01+000000PRSWM2
0172111440999992000011716004+47330+012800FM-15+0763LOWZ V0202701N002110150019N0150001N1-00201-00401999999ADDGA1021+009009999GA2081+015009999GF108991999999999999999999MA1101901999999MW1001REMMET062LOWZ 171600Z 27004KT 15KM FEW030SC OVC050SC M02/M04 Q1019 OVC;EQDQ01+000000PRSWM2
0190111440999992000011807004+47330+012800FM-15+0763LOWZ V0203201N002610120019N0080001N1+00601+00001999999ADDGA1021+003009999GA2081+012009999GF108991999999999999999999MA1101191999999MW1611REMMET064LOWZ 180700Z 32005KT 8000 -RA SCT010ST OVC040SC 06/00 Q1012 OVC;EQDQ01+000003PRSWM1Q02    003PRSWM1
0190111440999992000011808004+47330+012800FM-15+0763LOWZ V0203201N005110120019N0080001N1+00601+00101999999ADDGA1021+003009999GA2081+012009999GF108991999999999999999999MA1101081999999MW1611REMMET064LOWZ 180800Z 32010KT 8000 -RA FEW010ST OVC040SC 06/01 Q1011 OVC;EQDQ01+000003PRSWM1Q02    003PRSWM1
0174111440999992000011809004+47330+012800FM-15+0763LOWZ V0203201N005110120019N0150001N1+00601+00101999999ADDGA1021+003009999GA2081+012009999GF108991999999999999999999MA1101081999999MW1001REMMET064LOWZ 180900Z 32010KT 15KM -RA FEW010ST OVC040SC 06/01 Q1011 OVC;EQDQ01+000000PRSWM2
0174111440999992000011810004+47330+012800FM-15+0763LOWZ V0203101N003110090019N0100001N1+00601+00201999999ADDGA1021+003009999GA2081+009009999GF108991999999999999999999MA1101021999999MW1001REMMET064LOWZ 181000Z 31006KT 10KM -RA FEW010ST OVC030SC 06/02 Q1010 OVC;EQDQ01+000000PRSWM2
0189111440999992000011811004+47330+012800FM-15+0763LOWZ V0203301N003110075019N0100001N1+00601+00301999999ADDGA1021+003009999GA2081+007509999GF108991999999999999999999MA1101021999999MW1631REMMET063LOWZ 181100Z 33006KT 10KM RA FEW010ST OVC025SC 06/03 Q1010 OVC;EQDQ01+000003PRSWM1Q02    003PRSWM1
0298111440999992000011812004+47330+012800SY-MT+076399999V0200201N00211007501WN0100001N1+00381+00001101111ADDAA106007191GA1021+003009999GA2081+007509999GF108991999999999999999999MA1101021092081MW1631REMSYN092    AAXX  18124 11144 1//// /0204 10038 20000 39208 40111 60071 74044 333 55300 90402 91115;MET063LOWZ 181200Z 01005KT 10KM RA FEW010ST OVC025SC 05/02 Q1010 OVC;EQDQ01+000003PRSWM1Q02    003PRSWM1
0189111440999992000011813004+47330+012800FM-15+0763LOWZ V0203301N003110060019N0100001N1+00401+00101999999ADDGA1021+001509999GA2081+006009999GF108991999999999999999999MA1100911999999MW1631REMMET063LOWZ 181300Z 33006KT 10KM RA FEW005ST OVC020SC 04/01 Q1009 OVC;EQDQ01+000003PRSWM1Q02    003PRSWM1
0189111440999992000011814004+47330+012800FM-15+0763LOWZ V0203001N004110045019N0100001N1+00401+00101999999ADDGA1021+001509999GA2081+004509999GF108991999999999999999999MA1100911999999MW1631REMMET063LOWZ 181400Z 30008KT 10KM RA FEW005ST OVC015SC 04/01 Q1009 OVC;EQDQ01+000003PRSWM1Q02    003PRSWM1
0300111440999992000011815004+47330+012800SY-MT+076399999V0200201N00151003001WN0080001N1+00291-00131101101ADDAA103002091GA1021+001509999GA2081+003009999GF108991999999999999999999MA1100911092041MW1631REMSYN092    AAXX  18154 11144 2//// /0203 10029 21013 39204 40110 74044 333 55300 60027 90403 91120;MET065LOWZ 181500Z 27006KT 8000 RASN SCT005ST OVC010SC 03/01 Q1009 OVC;EQDQ01+000003PRSWM1Q02    003PRSWM1
0197111440999992000011816004+47330+012800FM-15+0763LOWZ V0202701N005110030019N0050001N1+00301+00101999999ADDGA1021+001509999GA2081+003009999GF108991999999999999999999MA1101021999999MW1631MW2711REMMET065LOWZ 181600Z 27010KT 5000 RASN SCT005ST OVC010SC 03/01 Q1010 OVC;EQDQ01+000003PRSWM1Q02    003PRSWM1
0143111440999992000011818004+47330+012800FM-12+076399999V0200301N00261999999WN9999999N1+00201-00191101331ADDAA112010991KA1120M+00431MA1999999092221REMSYN092    AAXX  18184 11144 1//// /0305 10020 21019 39222 40133 60112 74044 333 10043 90409 91121;
0124111440999992000011821004+47330+012800FM-12+076399999V0200201N00211999999WN9999999N1-00161-00311101921ADDAA103001091MA1999999092641REMSYN086    AAXX  18214 11144 2//// /0204 11016 21031 39264 40192 7404/ 333 60017 90427 91113;
0096111440999992000011903004+47330+012800FM-12+076399999V0200201N00151999999WN9999999N1-00131-00541102171ADDAA199000021MA1999999092881REMSYN058    AAXX  19034 11144 36/// /0203 11013 21054 39288 40217;
0194111440999992000011907004+47330+012800FM-15+0763LOWZ V0203001N004110045019N0080001N1-00101-00501999999ADDGA1021+002409999GA2071+004509999GF107991999999999999999999MA1102101999999MW1851REMMET068LOWZ 190700Z 30008KT 8000 -SHSN FEW008ST BKN015SC M01/M05 Q1021 BKN;EQDQ01+000003PRSWM1Q02    003PRSWM1
0171111440999992000011908004+47330+012800FM-15+0763LOWZ V0203001N004110090019N0150001N1+00001-00501999999ADDGA1021+003009999GA2071+009009999GF107991999999999999999999MA1102201999999MW1001REMMET061LOWZ 190800Z 30008KT 15KM FEW010ST BKN030SC 00/M05 Q1022 BKN;EQDQ01+000000PRSWM2
0177111440999992000011909004+47330+012800FM-15+0763LOWZ V0202801N005110120019N0150001N1+00001-00601999999ADDGA1021+004509999GA2071+012009999GF107991999999999999999999MA1102201999999MW1001REMMET067LOWZ 190900Z 28010KT 15KM -SHSN FEW015ST BKN040SC 00/M06 Q1022 BKN;EQDQ01+000000PRSWM2
0171111440999992000011910004+47330+012800FM-15+0763LOWZ V0203301N003110120019N0150001N1+00001-00601999999ADDGA1021+004509999GA2071+012009999GF107991999999999999999999MA1102301999999MW1001REMMET061LOWZ 191000Z 33006KT 15KM FEW015ST BKN040SC 00/M06 Q1023 BKN;EQDQ01+000000PRSWM2
0171111440999992000011911004+47330+012800FM-15+0763LOWZ V0203001N004110120019N0150001N1+00001-00601999999ADDGA1021+004509999GA2071+012009999GF107991999999999999999999MA1102301999999MW1001REMMET061LOWZ 191100Z 30008KT 15KM FEW015SC BKN040SC 00/M06 Q1023 BKN;EQDQ01+000000PRSWM2
0252111440999992000011912004+47330+012800SY-MT+076399999V0200801N00101012001WN0150001N1-00101-00641102661ADDAA106000191GA1021+004509999GA2071+012009999GF107991999999999999999999MA1102301093331MW1001REMSYN064    AAXX  19124 11144 16/// /0802 11010 21064 39333 40266 69911;MET061LOWZ 191200Z 27006KT 15KM FEW015SC BKN040SC 00/M07 Q1023 BKN;EQDQ01+000000PRSWM2
0171111440999992000011913004+47330+012800FM-15+0763LOWZ V0202701N004110120019N0150001N1+00101-00701999999ADDGA1021+006009999GA2071+012009999GF107991999999999999999999MA1102301999999MW1001REMMET061LOWZ 191300Z 27008KT 15KM FEW020SC BKN040SC 01/M07 Q1023 BKN;EQDQ01+000000PRSWM2
0262111440999992000011915004+47330+012800SY-MT+076399999V0200401N00051015001WN0150001N1-00171-00611102801ADDAA199000021GA1021+006009999GA2071+015009999GF107991999999999999999999MA1102301093441MW1001REMSYN068    AAXX  19154 11144 36/// /0401 11017 21061 39344 40280 333 55300;MET067LOWZ 191500Z 33004KT 15KM -SHSN FEW020SC BKN050SC 00/M08 Q1023 BKN;EQDQ01+000000PRSWM2
0121111440999992000011918004+47330+012800FM-12+0763LOWZ V0202901N000519999999N9999999N1-00291-00641103061ADDAA112000191KA1999M-00061MA1999999093631REMSYN070AAXX  19184 11144 16/// /2901 11029 21064 39363 40306 69912 333 11006;
0111111440999992000011921004+47330+012800FM-12+0763LOWZ V0202901N000519999999N9999999N1-00311-00661103201ADDAA199000091MA1999999093751REMSYN054AAXX  19214 11144 36/// /2901 11031 21066 39375 40320;EQDQ01  00002PRCP99
0187111440999992000012006004+47330+012800FM-12+0763LOWZ V0201601N000512200019N9999999N1-00891-01091103561ADDAJ100509199999999GA1001+999999999GF100991001001999999001001IA2999-00709KA1120N-00901MA1999999093881REMSYN076AAXX  20064 11144 42/// 01601 11089 21109 39388 40356 333 21090 3/107 44050;
0126111440999992000012007004+47330+012800FM-15+0763LOWZ V02099999999992200019N0300001N1-01001-01201999999ADDGF100991999999999999999999MA1102911999999MW1001REMMET048LOWZ 200700Z VRB01KT 30KM SKC M10/M12 Q1029 SKC;EQDQ01+000000PRSWM2
0126111440999992000012008004+47330+012800FM-15+0763LOWZ V02099999999992200019N0500001N1-01201-01401999999ADDGF100991999999999999999999MA1102911999999MW1001REMMET048LOWZ 200800Z VRB01KT 50KM SKC M12/M14 Q1029 SKC;EQDQ01+000000PRSWM2
0223111440999992000012009004+47330+012800SY-MT+0763LOWZ V0200501N000512200019N0500001N1-00891-01091103571ADDAA199000091GF100991001001999999001001MA1102911093891MW1001REMSYN064AAXX  20094 11144 36/// /0501 11089 21109 39389 40357 333 55310;MET048LOWZ 200900Z 00000KT 50KM SKC M10/M12 Q1029 SKC;EQDQ01+000000PRSWM2Q02  00002PRCP99
0126111440999992000012010004+47330+012800FM-15+0763LOWZ V02099999999992200019N0500001N1-00801-01001999999ADDGF100991999999999999999999MA1102811999999MW1001REMMET048LOWZ 201000Z VRB01KT 50KM SKC M08/M10 Q1028 SKC;EQDQ01+000000PRSWM2
0144111440999992000012011004+47330+012800FM-15+0763LOWZ V0202301N001512200019N0500001N1-00601-00901999999ADDGA1021+999999999GF104991999999999999999999MA1102711999999MW1001REMMET050LOWZ 201100Z 23003KT 50KM SCTCI M06/M09 Q1027 SCT;EQDQ01+000000PRSWM2
0241111440999992000012012004+47330+012800SY-MT+0763LOWZ V0200401N001012200019N0500001N1-00521-00941103211ADDAA199000091GA1021+999999999GF104991999999999999999999MA1102611093691MW1001REMSYN064AAXX  20124 11144 36/// /0402 11052 21094 39369 40321 333 55307;MET050LOWZ 201200Z VRB01KT 50KM SCTCI M04/M09 Q1026 SCT;EQDQ01+000000PRSWM2Q02  00002PRCP99
0144111440999992000012013004+47330+012800FM-15+0763LOWZ V0209999C00001220001CN0500001N1-00401-01001999999ADDGA1071+999999999GF107991999999999999999999MA1102511999999MW1001REMMET050LOWZ 201300Z 00000KT 50KM BKNCI M04/M10 Q1025 BKN;EQDQ01+000000PRSWM2
0144111440999992000012014004+47330+012800FM-15+0763LOWZ V0202501N00151220001CN0500001N1-00401-01001999999ADDGA1071+999999999GF107991999999999999999999MA1102401999999MW1001REMMET050LOWZ 201400Z 25003KT 50KM BKNCI M04/M10 Q1024 BKN;EQDQ01+000000PRSWM2
0244111440999992000012015004+47330+012800SY-MT+0763LOWZ V0201301N000510360019N0400001N1-00341-00851102991ADDAA199000091GA1081+036009999GF108991999999999999999999MA1102511093551MW1001REMSYN064AAXX  20154 11144 36/// /1301 11034 21085 39355 40299 333 55300;MET053LOWZ 201500Z 25003KT 40KM OVC120AC M04/M10 Q1025 OVC;EQDQ01+000000PRSWM2Q02  00002PRCP99
0147111440999992000012016004+47330+012800FM-15+0763LOWZ V0202401N001010300019N0200001N1-00501-01001999999ADDGA1081+030009999GF108991999999999999999999MA1102511999999MW1001REMMET053LOWZ 201600Z 24002KT 20KM OVC100AC M05/M10 Q1025 OVC;EQDQ01+000000PRSWM2
0134111440999992000012018004+47330+012800FM-12+0763LOWZ V0202601N000519999999N9999999N1-00341-00651102901ADDAA199000091KA1999M-00311MA1999999093471REMSYN064AAXX  20184 11144 36/// /2601 11034 21065 39347 40290 333 11031;EQDQ01  00002PRCP99
0111111440999992000012021004+47330+012800FM-12+0763LOWZ V0200301N000519999999N9999999N1-00351-00541102871ADDAA199000091MA1999999093441REMSYN054AAXX  20214 11144 36/// /0301 11035 21054 39344 40287;EQDQ01  00002PRCP99
0151111440999992000012107004+47330+012800FM-15+0763LOWZ V02099999999990090019N0100001N1-00101-00501999999ADDGA1081+009009999GF108991999999999999999999MA1101801999999MW1001REMMET057LOWZ 210700Z VRB01KT 10KM -SN OVC030SC M01/M05 Q1018 OVC;EQDQ01+000000PRSWM2
0151111440999992000012108004+47330+012800FM-15+0763LOWZ V0202901N003110090019N0100001N1-00101-00501999999ADDGA1081+009009999GF108991999999999999999999MA1101801999999MW1001REMMET057LOWZ 210800Z 29006KT 10KM -SN OVC030SC M01/M05 Q1018 OVC;EQDQ01+000000PRSWM2
0243111440999992000012109004+47330+012800SY-MT+0763LOWZ V0202801N000510090019N0100001N1-00171-00321102131ADDAA103000591GA1081+009009999GF108991999999999999999999MA1101691092831MW1001REMSYN076AAXX  21094 11144 2//// /2801 11017 21032 39283 40213 74044 333 55300 69967;MET056LOWZ 210900Z VRB02KT 10KM -SN OVC030SC 00/M05 Q1017 OVC;EQDQ01+000000PRSWM2
0150111440999992000012110004+47330+012800FM-15+0763LOWZ V0203101N004110090019N0100001N1+00201-00401999999ADDGA1081+009009999GF108991999999999999999999MA1101691999999MW1001REMMET056LOWZ 211000Z 31008KT 10KM -SN OVC030SC 02/M04 Q1017 OVC;EQDQ01+000000PRSWM2
0150111440999992000012111004+47330+012800FM-15+0763LOWZ V0203001N002610090019N0100001N1+00201-00401999999ADDGA1081+009009999GF108991999999999999999999MA1101591999999MW1001REMMET056LOWZ 211100Z 30005KT 10KM -SN OVC030SC 02/M04 Q1016 OVC;EQDQ01+000000PRSWM2
0237111440999992000012112004+47330+012800SY-MT+0763LOWZ V0200401N000510075019N0100001N1+00051-00321101951ADDAA106000891GA1081+007509999GF108991999999999999999999MA1101591092741MW1001REMSYN070AAXX  21124 11144 16/// /0401 10005 21032 39274 40195 69981 333 55300;MET056LOWZ 211200Z 30010KT 10KM -SN OVC025SC 02/M04 Q1016 OVC;EQDQ01+000000PRSWM2
0166111440999992000012113004+47330+012800FM-15+0763LOWZ V02099999999990060019N0080001N1+00201-00401999999ADDGA1081+006009999GF108991999999999999999999MA1101491999999MW1711REMMET056LOWZ 211300Z VRB02KT 8000 -SN OVC020SC 02/M04 Q1015 OVC;EQDQ01+000003PRSWM1Q02    003PRSWM1
0165111440999992000012114004+47330+012800FM-15+0763LOWZ V0203201N004110060019N0050001N1+00101-00201999999ADDGA1081+006009999GF108991999999999999999999MA1101591999999MW1731REMMET055LOWZ 211400Z 32008KT 5000 SN OVC020SC 01/M02 Q1016 OVC;EQDQ01+000003PRSWM1Q02    003PRSWM1
0251111440999992000012115004+47330+012800SY-MT+0763LOWZ V0201201N00051000151CN0020001N1-00061-00141101931ADDAA103002091GA1091+000159999GF109991999999000151999999MA1101591092691MW1731REMSYN076AAXX  21154 11144 2//// /1201 11006 21014 39269 40193 7404/ 333 55300 60027;MET048LOWZ 211500Z 20008KT 2000 SN VV005 01/M02 Q1016;EQDQ01+000003PRSWM1Q02    003PRSWM1
0165111440999992000012116004+47330+012800FM-15+0763LOWZ V0202701N006710030019N0015001N1+00001-00101999999ADDGA1081+003009999GF108991999999999999999999MA1101691999999MW1731REMMET055LOWZ 211600Z 27013KT 1500 SN OVC010SC 00/M01 Q1017 OVC;EQDQ01+000003PRSWM1Q02    003PRSWM1
0108111440999992000012121004+47330+012800FM-12+0763LOWZ V0200301N000519999999N9999999N1-00121-00221102251ADDAA103003091MA1999999092961REMSYN070AAXX  21214 11144 2//// /0301 11012 21022 39296 40225 74044 333 60037;
0104111440999992000012200004+47330+012800FM-12+0763LOWZ V0209999C000019999999N9999999N1-00201-00251102331ADDAA106005191MA1999999093001REMSYN066AAXX  22004 11144 1//// /0000 11020 21025 39300 40233 60051 74044;
0108111440999992000012203004+47330+012800FM-12+0763LOWZ V0200401N000519999999N9999999N1-00221-00291102141ADDAA103001091MA1999999092821REMSYN070AAXX  22034 11144 2//// /0401 11022 21029 39282 40214 7404/ 333 60017;
0238111440999992000012206004+47330+012800FM-12+0763LOWZ V0200201N000519999999N9999999N1-00231-00281101821ADDAA112007191AJ100709199999999AL10602591AY171061AY271061GF108991999999999999999999IA1289IA2999+00009KA1120N-00241MA1999999092531MW1731REMSYN094AAXX  22064 11144 11/// 80201 11023 21028 39253 40182 60072 77377 333 21024 3/100 44070 93125;
0192111440999992000012207004+47330+012800FM-15+0763LOWZ V0209999C000010045019N0030001N1-00101-00201999999ADDGA1071+004509999GA2081+009009999GF108991999999999999999999MA1101391999999MW1711REMMET066LOWZ 220700Z 00000KT 3000 -SN BKN015SC OVC030SC M01/M02 Q1014 OVC;EQDQ01+000003PRSWM1Q02    003PRSWM1
0166111440999992000012208004+47330+012800FM-15+0763LOWZ V0201301N001010045019N0020001N1-00201-00201999999ADDGA1081+004509999GF108991999999999999999999MA1101391999999MW1731REMMET056LOWZ 220800Z 13002KT 2000 SN OVC015SC M02/M02 Q1014 OVC;EQDQ01+000003PRSWM1Q02    003PRSWM1
0285111440999992000012209004+47330+012800SY-MT+0763LOWZ V0209999C000010024019N0015001N1-00141-00191101641ADDAA103000591GA1071+002409999GA2081+004509999GF108991999999999999999999MA1101291092401MW1711REMSYN076AAXX  22094 11144 2//// /0000 11014 21019 39240 40164 7404/ 333 55300 69957;MET066LOWZ 220900Z 15004KT 1500 -SN BKN008ST OVC015SC M03/M03 Q1013 OVC;EQDQ01+000003PRSWM1Q02    003PRSWM1
0192111440999992000012210004+47330+012800FM-15+0763LOWZ V0200501N002110030019N0020001N1-00201-00301999999ADDGA1071+003009999GA2081+006009999GF108991999999999999999999MA1101291999999MW1711REMMET066LOWZ 221000Z 05004KT 2000 -SN BKN010ST OVC020SC M02/M03 Q1013 OVC;EQDQ01+000003PRSWM1Q02    003PRSWM1
0172111440999992000012211004+47330+012800FM-15+0763LOWZ V0201201N001010030019N0060001N1-00201-00301999999ADDGA1071+003009999GA2081+009009999GF108991999999999999999999MA1101081999999MW1001REMMET062LOWZ 221100Z 12002KT 6000 BKN010ST OVC030SC M02/M03 Q1011 OVC;EQDQ01+000000PRSWM2
0259111440999992000012212004+47330+012800SY-MT+0763LOWZ V0200801N000510021019N0100001N1-00121-00231101341ADDAA106000891GA1071+002109999GA2081+012009999GF108991999999999999999999MA1101021092131MW1001REMSYN070AAXX  22124 11144 16/// /0801 11012 21023 39213 40134 69981 333 55300;MET062LOWZ 221200Z 03002KT 10KM BKN007ST OVC040SC M02/M03 Q1010 OVC;EQDQ01+000000PRSWM2
0192111440999992000012213004+47330+012800FM-15+0763LOWZ V0201001N001010075019N0050001N1-00201-00301999999ADDGA1021+003009999GA2081+007509999GF108991999999999999999999MA1100911999999MW1711REMMET066LOWZ 221300Z 10002KT 5000 -SN SCT010ST OVC025SC M02/M03 Q1009 OVC;EQDQ01+000003PRSWM1Q02    003PRSWM1
0172111440999992000012214004+47330+012800FM-15+0763LOWZ V0201301N001010120019N0100001N1-00201-00301999999ADDGA1021+003009999GA2081+012009999GF108991999999999999999999MA1100811999999MW1001REMMET062LOWZ 221400Z 13002KT 10KM SCT010ST OVC040SC M02/M03 Q1008 OVC;EQDQ01+000000PRSWM2
0285111440999992000012215004+47330+012800SY-MT+0763LOWZ V0209999C000010045019N0020001N1-00171-00271101071ADDAA103000591GA1071+004509999GA2081+009009999GF108991999999999999999999MA1100711091871MW1711REMSYN076AAXX  22154 11144 2//// /0000 11017 21027 39187 40107 7404/ 333 55300 69947;MET066LOWZ 221500Z 15003KT 2000 -SN BKN015SC OVC030SC M02/M03 Q1007 OVC;EQDQ01+000003PRSWM1Q02    003PRSWM1
0167111440999992000012216004+47330+012800FM-15+0763LOWZ V0201401N001010045019N0015001N1-00201-00301999999ADDGA1081+004509999GF108991999999999999999999MA1100711999999MW1711REMMET057LOWZ 221600Z 14002KT 1500 -SN OVC015SC M02/M03 Q1007 OVC;EQDQ01+000003PRSWM1Q02    003PRSWM1
0127111440999992000012218004+47330+012800FM-12+0763LOWZ V0200701N000519999999N9999999N1-00211-00261101031ADDAA112003091KA1999M-00091MA1999999091821REMSYN076AAXX  22184 11144 1//// /0701 11021 21026 39182 40103 60032 7404/ 333 11009;
0108111440999992000012221004+47330+012800FM-12+0763LOWZ V0202501N000519999999N9999999N1-00161-00241100961ADDAA103000591MA1999999091771REMSYN070AAXX  22214 11144 2//// /2501 11016 21024 39177 40096 7404/ 333 69967;
0098111440999992000012300004+47330+012800FM-12+0763LOWZ V0209999C000019999999N9999999N1-00381-00421101011ADDAA106000591MA1999999091741REMSYN060AAXX  23004 11144 16/// /0000 11038 21042 39174 40101 69961;
0092111440999992000012303004+47330+012800FM-12+0763LOWZ V0209999C000019999999N9999999N1-00331-00381100941ADDAA199000021MA1999999091701REMSYN054AAXX  23034 11144 36/// /0000 11033 21038 39170 40094;
0238111440999992000012306004+47330+012800FM-12+0763LOWZ V0209999C000019999999N9999999N1-00351-00401100971ADDAA112002091AJ100789199999999AL10601591AY171061AY271061GF108991999999999999999999IA1289IA2999-00209KA1120N-00421MA1999999091721MW1731REMSYN094AAXX  23064 11144 11/// 80000 11035 21040 39172 40097 60022 77377 333 21042 3/102 44078 93115;
0176111440999992000012307004+47330+012800FM-15+0763LOWZ V0209999C000010135019N0100001N1-00301-00401999999ADDGA1021+006009999GA2081+013509999GF108991999999999999999999MA1100611999999MW1001REMMET066LOWZ 230700Z 00000KT 10KM -SN SCT020SC OVC045SC M03/M04 Q1006 OVC;EQDQ01+000000PRSWM2
0194111440999992000012308004+47330+012800FM-15+0763LOWZ V0202401N001010120019N0060001N1-00201-00301999999ADDGA1021+004509999GA2081+012009999GF108991999999999999999999MA1100611999999MW1851REMMET068LOWZ 230800Z 24002KT 6000 -SHSN SCT015SC OVC040SC M02/M03 Q1006 OVC;EQDQ01+000003PRSWM1Q02    003PRSWM1
0287111440999992000012309004+47330+012800SY-MT+0763LOWZ V0200501N000510120019N0080001N1-00251-00321100991ADDAA103000191GA1021+002409999GA2071+012009999GF107991999999999999999999MA1100611091771MW1851REMSYN076AAXX  23094 11144 2//// /0501 11025 21032 39177 40099 740// 333 55300 69927;MET068LOWZ 230900Z VRB02KT 8000 -SHSN SCT008SC BKN040SC M02/M03 Q1006 BKN;EQDQ01+000003PRSWM1Q02    003PRSWM1
0192111440999992000012310004+47330+012800FM-15+0763LOWZ V02099999999990120019N0080001N1-00101-00201999999ADDGA1021+002409999GA2081+012009999GF108991999999999999999999MA1100611999999MW1711REMMET066LOWZ 231000Z VRB02KT 8000 -SN SCT008SC OVC040SC M01/M02 Q1006 OVC;EQDQ01+000003PRSWM1Q02    003PRSWM1
0176111440999992000012311004+47330+012800FM-15+0763LOWZ V0202701N001510150019N0100001N1-00101-00201999999ADDGA1021+003009999GA2071+015009999GF107991999999999999999999MA1100511999999MW1001REMMET066LOWZ 231100Z 27003KT 10KM -SN SCT010SC BKN050SC M01/M02 Q1005 BKN;EQDQ01+000000PRSWM2
0175111440999992000012312004+47330+012800FM-15+0763LOWZ V0202801N002610150019N0100001N1+00001-00101999999ADDGA1021+004509999GA2081+015009999GF108991999999999999999999MA1100511999999MW1001REMMET065LOWZ 231200Z 28005KT 10KM -SN SCT015SC OVC050SC 00/M01 Q1005 OVC;EQDQ01+000000PRSWM2
0191111440999992000012313004+47330+012800FM-15+0763LOWZ V0202501N002610045019N0050001N1+00001-00101999999ADDGA1071+004509999GA2081+012009999GF108991999999999999999999MA1100511999999MW1711REMMET065LOWZ 231300Z 25005KT 5000 -SN BKN015SC OVC040SC 00/M01 Q1005 OVC;EQDQ01+000003PRSWM1Q02    003PRSWM1
0171111440999992000012314004+47330+012800FM-15+0763LOWZ V0202601N001510150019N0150001N1+00001-00301999999ADDGA1021+009009999GA2081+015009999GF108991999999999999999999MA1100611999999MW1001REMMET061LOWZ 231400Z 26003KT 15KM SCT030SC OVC050SC 00/M03 Q1006 OVC;EQDQ01+000000PRSWM2
0258111440999992000012315004+47330+012800SY-MT+0763LOWZ V0209999C000010150019N0200001N1-00101-00491101031ADDAA103000191GA1021+009009999GA2081+015009999GF108991999999999999999999MA1100611091851MW1001REMSYN070AAXX  23154 11144 26/// /0000 11010 21049 39185 40103 333 55300 69917;MET061LOWZ 231500Z 27005KT 20KM SCT030SC OVC050SC 00/M04 Q1006 OVC;EQDQ01+000000PRSWM2
0175111440999992000012316004+47330+012800FM-15+0763LOWZ V0202901N001010150019N0100001N1+00001-00401999999ADDGA1021+006009999GA2081+015009999GF108991999999999999999999MA1100711999999MW1001REMMET065LOWZ 231600Z 29002KT 10KM -SN SCT020SC OVC050SC 00/M04 Q1007 OVC;EQDQ01+000000PRSWM2
0121111440999992000012318004+47330+012800FM-12+0763LOWZ V0202501N000519999999N9999999N1-00281-00441101231ADDAA112000591KA1999M-00031MA1999999091981REMSYN070AAXX  23184 11144 16/// /2501 11028 21044 39198 40123 69952 333 11003;
0092111440999992000012321004+47330+012800FM-12+0763LOWZ V0200801N000519999999N9999999N1-00331-00461101341ADDAA199000021MA1999999092061REMSYN054AAXX  23214 11144 36/// /0801 11033 21046 39206 40134;
0092111440999992000012400004+47330+012800FM-12+0763LOWZ V0200101N001019999999N9999999N1-00431-00691101501ADDAA199000021MA1999999092171REMSYN054AAXX  24004 11144 36/// /0102 11043 21069 39217 40150;
0111111440999992000012403004+47330+012800FM-12+0763LOWZ V0200101N002119999999N9999999N1-00591-00991101661ADDAA199000091MA1999999092261REMSYN054AAXX  24034 11144 36/// /0104 11059 21099 39226 40166;EQDQ01  00002PRCP99
0223111440999992000012406004+47330+012800FM-12+0763LOWZ V0203601N001012200019N9999999N1-00801-01311101971ADDAA199000091AJ100789199999999AL10600591GF102991999999999999999999IA1289IA2999-00409KA1120N-00821MA1999999092471REMSYN082AAXX  24064 11144 32/// 23602 11080 21131 39247 40197 333 21082 3/104 44078 93105;EQDQ01  00002PRCP99
0147111440999992000012407004+47330+012800FM-15+0763LOWZ V0200601N002110120019N0200001N1-00701-01201999999ADDGA1071+012009999GF107991999999999999999999MA1101491999999MW1001REMMET053LOWZ 240700Z 06004KT 20KM BKN040SC M07/M12 Q1015 BKN;EQDQ01+000000PRSWM2
0199111440999992000012408004+47330+012800FM-15+0763LOWZ V02099999999990150019N0200001N1-00701-01201999999ADDGA1021+009009999GA2071+015009999GF107991999999999999999999MA1101591999999MW1161REMMET073LOWZ 240800Z VRB01KT 20KM VCSH FEW030SC BKN050SC M07/M12 Q1016 SH S/ BKN;EQDQ01+000003PRSWM1Q02    003PRSWM1
0269111440999992000012409004+47330+012800SY-MT+0763LOWZ V0209999C000012200019N0200001N1-00881-01331102281ADDAA199000091GA1021+009009999GA2021+015009999GF104991999999999999999999MA1101591092721MW1001REMSYN064AAXX  24094 11144 36/// /0000 11088 21133 39272 40228 333 55306;MET062LOWZ 240900Z 00000KT 20KM FEW030SC SCT050SC M08/M12 Q1016 BKN;EQDQ01+000000PRSWM2Q02  00002PRCP99
0172111440999992000012410004+47330+012800FM-15+0763LOWZ V0209999C000012200019N0200001N1-00701-01201999999ADDGA1021+009009999GA2021+015009999GF104991999999999999999999MA1101691999999MW1001REMMET062LOWZ 241000Z 00000KT 20KM FEW030SC SCT050SC M07/M12 Q1017 BKN;EQDQ01+000000PRSWM2
0199111440999992000012411004+47330+012800FM-15+0763LOWZ V0200601N001012200019N0080001N1-00601-01101999999ADDGA1021+000909999GA2021+015009999GF104991999999999999999999MA1101691999999MW1161REMMET073LOWZ 241100Z 06002KT 8000 VCSH FEW003ST SCT050SC M06/M11 Q1017 SH W/ BKN;EQDQ01+000003PRSWM1Q02    003PRSWM1
0269111440999992000012412004+47330+012800SY-MT+0763LOWZ V0200201N001512200019N0200001N1-00701-01351102231ADDAA199000091GA1021+009009999GA2021+018009999GF104991999999999999999999MA1101591092741MW1001REMSYN064AAXX  24124 11144 36/// /0203 11070 21135 39274 40223 333 55308;MET062LOWZ 241200Z 04002KT 20KM FEW030SC SCT060SC M06/M13 Q1016 BKN;EQDQ01+000000PRSWM2Q02  00002PRCP99
0172111440999992000012413004+47330+012800FM-15+0763LOWZ V0200201N003612200019N0200001N1-00601-01401999999ADDGA1021+009009999GA2021+018009999GF104991999999999999999999MA1101591999999MW1001REMMET062LOWZ 241300Z 02007KT 20KM FEW030SC SCT060SC M06/M14 Q1016 BKN;EQDQ01+000000PRSWM2
0172111440999992000012414004+47330+012800FM-15+0763LOWZ V0200501N001512200019N0300001N1-00601-01401999999ADDGA1021+009009999GA2021+018009999GF104991999999999999999999MA1101591999999MW1001REMMET062LOWZ 241400Z 05003KT 30KM SCT030SC SCT060SC M06/M14 Q1016 BKN;EQDQ01+000000PRSWM2
0244111440999992000012415004+47330+012800SY-MT+0763LOWZ V0202501N001512200019N0300001N1-00851-01271102391ADDAA199000091GA1021+009009999GF102991999999999999999999MA1101691092831MW1001REMSYN064AAXX  24154 11144 36/// /2503 11085 21127 39283 40239 333 55300;MET053LOWZ 241500Z 13005KT 30KM FEW030SC M08/M14 Q1017 SCT;EQDQ01+000000PRSWM2Q02  00002PRCP99
0147111440999992000012416004+47330+012800FM-15+0763LOWZ V0209999C000012200019N0200001N1-01001-01401999999ADDGA1021+018009999GF102991999999999999999999MA1101801999999MW1001REMMET053LOWZ 241600Z 00000KT 20KM FEW060SC M10/M14 Q1018 SCT;EQDQ01+000000PRSWM2
0134111440999992000012418004+47330+012800FM-12+0763LOWZ V0200401N000519999999N9999999N1-01191-01471102751ADDAA199000091KA1999M-00611MA1999999093041REMSYN064AAXX  24184 11144 36/// /0401 11119 21147 39304 40275 333 11061;EQDQ01  00002PRCP99
0111111440999992000012421004+47330+012800FM-12+0763LOWZ V0200501N000519999999N9999999N1-01451-01661102991ADDAA199000091MA1999999093161REMSYN054AAXX  24214 11144 36/// /0501 11145 21166 39316 40299;EQDQ01  00002PRCP99
0111111440999992000012500004+47330+012800FM-12+0763LOWZ V0200301N000519999999N9999999N1-01901-02091103241ADDAA199000091MA1999999093221REMSYN054AAXX  25004 11144 36/// /0301 11190 21209 39322 40324;EQDQ01  00002PRCP99
0111111440999992000012503004+47330+012800FM-12+0763LOWZ V0201901N000519999999N9999999N1-01831-02001103261ADDAA199000091MA1999999093271REMSYN054AAXX  25034 11144 36/// /1901 11183 21200 39327 40326;EQDQ01  00002PRCP99
0217111440999992000012506004+47330+012800FM-12+0763LOWZ V0202201N000512200019N9999999N1-01961-02141103401ADDAA199000091AJ100789199999999GA1001+999999999GF100991001001999999001001IA2999-01009KA1120N-02271MA1999999093351REMSYN076AAXX  25064 11144 33/// 02201 11196 21214 39335 40340 333 21227 3/110 44078;EQDQ01  00002PRCP99
0147111440999992000012507004+47330+012800FM-15+0763LOWZ V0209999C000012200019N0100001N1-02201-02401999999ADDGA1021+036009999GF102991999999999999999999MA1102511999999MW1001REMMET053LOWZ 250700Z 00000KT 10KM FEW120AC M22/M24 Q1025 FEW;EQDQ01+000000PRSWM2
0133111440999992000012508004+47330+012800FM-15+0763LOWZ V0209999C000012200019N0015001N1-02201-02401999999ADDGF100991999999999999999999MA1102511999999MW1001REMMET055LOWZ 250800Z 00000KT 1500 FZBCFG SKC M22/M24 Q1025 SKC;EQDQ01+000000PRSWM2
0244111440999992000012509004+47330+012800SY-MT+0763LOWZ V0201501N000512200019N0040001N1-01871-02051103611ADDAA199000091GF100991001001999999001001MA1102611093571MW1481REMSYN064AAXX  25094 11144 36/// /1501 11187 21205 39357 40361 333 55310;MET053LOWZ 250900Z 00000KT 4000 FZBR SKC M22/M24 Q1026 SKC;EQDQ01+000003PRSWM1Q02  00002PRCP99Q03    003PRSWM1
0126111440999992000012510004+47330+012800FM-15+0763LOWZ V0202401N001012200019N0100001N1-01701-01901999999ADDGF100991999999999999999999MA1102511999999MW1001REMMET048LOWZ 251000Z 24002KT 10KM SKC M17/M19 Q1025 SKC;EQDQ01+000000PRSWM2
0126111440999992000012511004+47330+012800FM-15+0763LOWZ V02099999999992200019N0200001N1-01601-01801999999ADDGF100991999999999999999999MA1102511999999MW1001REMMET048LOWZ 251100Z VRB02KT 20KM SKC M16/M18 Q1025 SKC;EQDQ01+000000PRSWM2
0223111440999992000012512004+47330+012800SY-MT+0763LOWZ V0200601N000512200019N0400001N1-01501-01781103361ADDAA199000091GF100991001001999999001001MA1102401093481MW1001REMSYN064AAXX  25124 11144 36/// /0601 11150 21178 39348 40336 333 55310;MET048LOWZ 251200Z VRB02KT 40KM SKC M14/M16 Q1024 SKC;EQDQ01+000000PRSWM2Q02  00002PRCP99
0126111440999992000012513004+47330+012800FM-15+0763LOWZ V02099999999992200019N0500001N1-01201-01401999999ADDGF100991999999999999999999MA1102401999999MW1001REMMET048LOWZ 251300Z VRB02KT 50KM SKC M12/M14 Q1024 SKC;EQDQ01+000000PRSWM2
0126111440999992000012514004+47330+012800FM-15+0763LOWZ V0209999C000012200019N0500001N1-01101-01301999999ADDGF100991999999999999999999MA1102401999999MW1001REMMET048LOWZ 251400Z 00000KT 50KM SKC M11/M13 Q1024 SKC;EQDQ01+000000PRSWM2
0223111440999992000012515004+47330+012800SY-MT+0763LOWZ V0209999C000012200019N0500001N1-01331-01621103321ADDAA199000091GF100991001001999999001001MA1102401093511MW1001REMSYN064AAXX  25154 11144 36/// /0000 11133 21162 39351 40332 333 55300;MET048LOWZ 251500Z 00000KT 50KM SKC M11/M14 Q1024 SKC;EQDQ01+000000PRSWM2Q02  00002PRCP99
0126111440999992000012516004+47330+012800FM-15+0763LOWZ V0209999C000012200019N0500001N1-01701-02001999999ADDGF100991999999999999999999MA1102611999999MW1001REMMET048LOWZ 251600Z 00000KT 50KM SKC M17/M20 Q1026 SKC;EQDQ01+000000PRSWM2
0134111440999992000012518004+47330+012800FM-12+0763LOWZ V0209999C000019999999N9999999N1-01561-01751103641ADDAA199000091KA1999M-01221MA1999999093711REMSYN064AAXX  25184 11144 36/// /0000 11156 21175 39371 40364 333 11122;EQDQ01  00002PRCP99
0111111440999992000012521004+47330+012800FM-12+0763LOWZ V0209999C000019999999N9999999N1-01841-02011103871ADDAA199000091MA1999999093821REMSYN054AAXX  25214 11144 36/// /0000 11184 21201 39382 40387;EQDQ01  00002PRCP99
0081111440999992000012600004+47330+012800FM-12+0763LOWZ V0209999C000019999999N9999999N1-02061-02231104071ADDMA1999999093911REMSYN054AAXX  26004 11144 46/// /0000 11206 21223 39391 40407;
0111111440999992000012603004+47330+012800FM-12+0763LOWZ V0200901N000519999999N9999999N1-02181-02361104141ADDAA199000091MA1999999093931REMSYN054AAXX  26034 11144 36/// /0901 11218 21236 39393 40414;EQDQ01  00002PRCP99
0122111440999992000012606004+47330+012800FM-12+0763LOWZ V0209999C000019999999N9999999N1-02161-02341104211ADDIA2999-01209KA1120N-02351MA1999999094001REMSYN070AAXX  26064 11144 46/// /0000 11216 21234 39400 40421 333 21235 3/112;
0147111440999992000012607004+47330+012800FM-15+0763LOWZ V0209999C000012200019N0050001N1-02501-02701999999ADDGF100991999999999999999999MA1103181999999MW1481REMMET053LOWZ 260700Z 00000KT 5000 FZBR SKC M25/M27 Q1032 SKC;EQDQ01+000003PRSWM1Q02    003PRSWM1
0147111440999992000012608004+47330+012800FM-15+0763LOWZ V0209999C000012200019N0050001N1-02401-02601999999ADDGF100991999999999999999999MA1103291999999MW1481REMMET053LOWZ 260800Z 00000KT 5000 FZBR SKC M24/M26 Q1033 SKC;EQDQ01+000003PRSWM1Q02    003PRSWM1
0223111440999992000012609004+47330+012800SY-MT+0763LOWZ V0200801N000512200019N0100001N1-01861-02041104201ADDAA199000091GF100991001001999999001001MA1103181094111MW1001REMSYN064AAXX  26094 11144 36/// /0801 11186 21204 39411 40420 333 55310;MET048LOWZ 260900Z 00000KT 10KM SKC M21/M23 Q1032 SKC;EQDQ01+000000PRSWM2Q02  00002PRCP99
0126111440999992000012610004+47330+012800FM-15+0763LOWZ V0209999C000012200019N0100001N1-01901-02101999999ADDGF100991999999999999999999MA1103181999999MW1001REMMET048LOWZ 261000Z 00000KT 10KM SKC M19/M21 Q1032 SKC;EQDQ01+000000PRSWM2
0126111440999992000012611004+47330+012800FM-15+0763LOWZ V0209999C000012200019N0300001N1-01401-01601999999ADDGF100991999999999999999999MA1103121999999MW1001REMMET048LOWZ 261100Z 00000KT 30KM SKC M14/M16 Q1031 SKC;EQDQ01+000000PRSWM2
0223111440999992000012612004+47330+012800SY-MT+0763LOWZ V0200601N000512200019N0500001N1-01461-01761103941ADDAA199000091GF100991001001999999001001MA1103011094021MW1001REMSYN064AAXX  26124 11144 36/// /0601 11146 21176 39402 40394 333 55310;MET048LOWZ 261200Z 23002KT 50KM SKC M13/M15 Q1030 SKC;EQDQ01+000000PRSWM2Q02  00002PRCP99
0126111440999992000012613004+47330+012800FM-15+0763LOWZ V02099999999992200019N0500001N1-01001-01301999999ADDGF100991999999999999999999MA1103011999999MW1001REMMET048LOWZ 261300Z VRB02KT 50KM SKC M10/M13 Q1030 SKC;EQDQ01+000000PRSWM2
0126111440999992000012614004+47330+012800FM-15+0763LOWZ V02099999999992200019N0500001N1-01001-01401999999ADDGF100991999999999999999999MA1102911999999MW1001REMMET048LOWZ 261400Z VRB02KT 50KM SKC M10/M14 Q1029 SKC;EQDQ01+000000PRSWM2
0223111440999992000012615004+47330+012800SY-MT+0763LOWZ V0202401N000512200019N0500001N1-01111-01451103721ADDAA199000091GF100991001001999999001001MA1102911093951MW1001REMSYN064AAXX  26154 11144 36/// /2401 11111 21145 39395 40372 333 55300;MET048LOWZ 261500Z VRB02KT 50KM SKC M10/M14 Q1029 SKC;EQDQ01+000000PRSWM2Q02  00002PRCP99
0126111440999992000012616004+47330+012800FM-15+0763LOWZ V02099999999992200019N0500001N1-01401-01701999999ADDGF100991999999999999999999MA1103011999999MW1001REMMET048LOWZ 261600Z VRB02KT 50KM SKC M14/M17 Q1030 SKC;EQDQ01+000000PRSWM2
0111111440999992000012621004+47330+012800FM-12+0763LOWZ V0202201N000519999999N9999999N1-01491-01631104131ADDAA199000091MA1999999094181REMSYN054AAXX  26214 11144 36/// /2201 11149 21163 39418 40413;EQDQ01  00002PRCP99
0111111440999992000012700004+47330+012800FM-12+0763LOWZ V0209999C000019999999N9999999N1-01751-01901104221ADDAA199000091MA1999999094171REMSYN054AAXX  27004 11144 36/// /0000 11175 21190 39417 40422;EQDQ01  00002PRCP99
0111111440999992000012703004+47330+012800FM-12+0763LOWZ V0203601N000519999999N9999999N1-01771-01941104171ADDAA199000091MA1999999094111REMSYN054AAXX  27034 11144 36/// /3601 11177 21194 39411 40417;EQDQ01  00002PRCP99
