0173128250999992000010100004+47200+017500FM-12+0146LHPA V0201901N001012200019N0060001N1-01201-01331102721ADDAA106000091GA1001+999999999GF100991001001999999001001MA1999999100771MD1210041+9999REMSYN060AAXX  01001 12825 32956 01901 11120 21133 30077 40272 52004;EQDQ01  00002PRCP06
0159128250999992000010101004+47200+017500FM-12+0146LHPA V0201601N002012200019N0060001N1-01261-01381102711ADDGA1001+999999999GF100991001001999999001001MA1999999100771MD1210031+9999REMSYN076AAXX  01011 12825 42956 01602 11126 21138 30077 40271 52003 555 10091 /7559;
0187128250999992000010102004+47200+017500FM-12+0146LHPA V0201601N001012200019N0050001N1-01151-01261102791ADDAY101999AY201999GA1001+999999999GF100991001001999999001001MA1999999100841MD1210101+9999MW1101REMSYN082AAXX  01021 12825 41950 01601 11115 21126 30084 40279 52010 71000 555 10092 /7564;
0171128250999992000010103004+47200+017500FM-12+0146LHPA V0201701N001012200019N0050001N1-01151-01271102721ADDAY101031AY201031GA1001+999999999GF100991001001999999001001MA1999999100791MD1110061+9999MW1101REMSYN066AAXX  01031 12825 41950 01701 11115 21127 30079 40272 51006 71000;
0187128250999992000010104004+47200+017500FM-12+0146LHPA V0209999C000012200019N0030001N1-01121-01231102801ADDAY101999AY201999GA1001+999999999GF100991001001999999001001MA1999999100861MD1210041+9999MW1101REMSYN082AAXX  01041 12825 41930 00000 11112 21123 30086 40280 52004 71000 555 10092 /7565;
0197128250999992000010105004+47200+017500FM-12+0146LHPA V0201401N001010009019N0001001N1-00991-01081102751ADDAY101999AY201999GA1091+000909999GF109991091999999999999999MA1999999100831MD1310041+9999MW1491REMSYN092AAXX  01051 12825 41/01 91401 11099 21108 30083 40275 53004 74900 333 89/03 555 10093 /7564;
0273128250999992000010106004+47200+017500FM-12+0146LHPA V0203001N001010006019N0001001N1-00881-00961102851ADDAA106000091AJ100049199999999AY141061AY201061GA1091+000609999GF109991091999999999999999GJ104749IA1279KA1120N-01281MA1999999100921MD1310081+9999MW1491REMSYN094AAXX  01061 12825 31/01 93001 11088 21096 30092 40285 53008 74940 333 21128 43004 55079 89/02;EQDQ01  00002PRCP06
0197128250999992000010107004+47200+017500FM-12+0146LHPA V0201701N001010006019N0001001N1-00861-00941102861ADDAY141999AY241999GA1091+000609999GF109991091999999999999999MA1999999100931MD1210071+9999MW1491REMSYN092AAXX  01071 12825 41/01 91701 11086 21094 30093 40286 52007 74944 333 89/02 555 10094 /7570;
0197128250999992000010108004+47200+017500FM-12+0146LHPA V0209999C000010006019N0001001N1-00901-01001102901ADDAY141999AY241999GA1091+000609999GF109991091999999999999999MA1999999100971MD1210091+9999MW1491REMSYN092AAXX  01081 12825 41/01 90000 11090 21100 30097 40290 52009 74944 333 89/02 555 10093 /7573;
0181128250999992000010109004+47200+017500FM-12+0146LHPA V0201501N001010006019N0001001N1-00851-00941102941ADDAY141031AY241031GA1091+000609999GF109991091999999999999999MA1999999101011MD1310091+9999MW1491REMSYN076AAXX  01091 12825 41/01 91501 11085 21094 30101 40294 53009 74944 333 89/02;
0197128250999992000010110004+47200+017500FM-12+0146LHPA V0201601N002010006019N0004001N1-00701-00841102831ADDAY141999AY241999GA1091+000609999GF109991091999999999999999MA1999999100931MD1010001+9999MW1491REMSYN092AAXX  01101 12825 41/04 91602 11070 21084 30093 40283 50000 74944 333 89/02 555 10090 /7571;
0203128250999992000010111004+47200+017500FM-12+0146LHPA V0209999C000010045019N0009001N1-00581-00641102841ADDAY141999AY241999GA1071+004509069GF107991071051004501999999MA1999999100931MD1810041+9999MW1481REMSYN098AAXX  01111 12825 41409 70000 11058 21064 30093 40284 58004 74844 875// 333 87615 555 10096 /7570;
0217128250999992000010112004+47200+017500FM-12+0146LHPA V0209999C000010045019N0009001N1-00391-00431102771ADDAA106000091AY141061AY241061GA1071+004509059GF107991071051004501999999MA1999999100881MD1710131+9999MW1481REMSYN082AAXX  01121 12825 31409 70000 11039 21043 30088 40277 57013 74844 875// 333 87615;EQDQ01  00002PRCP06
0203128250999992000010113004+47200+017500FM-12+0146LHPA V0209999C000010045019N0009001N1-00301-00331102711ADDAY141999AY241999GA1071+004509069GF107991071051004501999999MA1999999100831MD1610161+9999MW1481REMSYN098AAXX  01131 12825 41409 70000 11030 21033 30083 40271 56016 74844 875// 333 87615 555 10097 /7563;
0203128250999992000010114004+47200+017500FM-12+0146LHPA V0209999C000010045019N0009001N1-00231-00261102721ADDAY141999AY241999GA1051+004509069GF108991051051004501071999MA1999999100841MD1510091+9999MW1481REMSYN098AAXX  01141 12825 41409 80000 11023 21026 30084 40272 55009 74844 8557/ 333 85615 555 10098 /7564;
0187128250999992000010115004+47200+017500FM-12+0146LHPA V0209999C000010045019N0009001N1-00271-00311102711ADDAY141031AY241031GA1051+004509059GF108991051051004501071999MA1999999100831MD1710051+9999MW1481REMSYN082AAXX  01151 12825 41409 80000 11027 21031 30083 40271 57005 74844 8557/ 333 85615;
0203128250999992000010116004+47200+017500FM-12+0146LHPA V0201301N001010360019N0009001N1-00271-00301102691ADDAY141999AY241999GA1041+004509069GF108991041051004501071999MA1999999100811MD1810021+9999MW1481REMSYN098AAXX  01161 12825 41409 81301 11027 21030 30081 40269 58002 74844 8457/ 333 84615 555 10098 /7561;
0203128250999992000010117004+47200+017500FM-12+0146LHPA V0201501N001010045019N0009001N1-00261-00291102661ADDAY141999AY241999GA1051+004509069GF108991051051004501071999MA1999999100791MD1810051+9999MW1481REMSYN098AAXX  01171 12825 41409 81501 11026 21029 30079 40266 58005 74844 8557/ 333 85615 555 10098 /7560;
0252128250999992000010118004+47200+017500FM-12+0146LHPA V0202001N001010078019N0008001N1-00251-00281102661ADDAA112000791AJ100049199999999AY171061AY241061GA1081+007809029GF108991081001008001021999IA1279KA1120M-00231MA1999999100781MD1610051+9999MW1711REMSYN100AAXX  01181 12825 11508 82001 11025 21028 30078 40266 56005 69902 77174 8802/ 333 11023 43004 88526;
0203128250999992000010119004+47200+017500FM-12+0146LHPA V0202001N003010078019N0008001N1-00171-00211102611ADDAY171999AY241999GA1081+007809059GF108991081001008001021999MA1999999100751MD1710061+9999MW1701REMSYN098AAXX  01191 12825 41508 82003 11017 21021 30075 40261 57006 77074 8802/ 333 88526 555 10097 /7557;
0203128250999992000010120004+47200+017500FM-12+0146LHPA V0202001N002010078019N0015001N1-00101-00301102621ADDAY171999AY271999GA1081+007809059GF108991081001008001021999MA1999999100751MD1710041+9999MW1701REMSYN098AAXX  01201 12825 41515 82002 11010 21030 30075 40262 57004 77077 8802/ 333 88526 555 10086 /7557;
0187128250999992000010121004+47200+017500FM-12+0146LHPA V0201901N002010078019N0015001N1-00061-00361102611ADDAY171031AY271031GA1081+007809029GF108991081001008001021999MA1999999100741MD1710041+9999MW1221REMSYN082AAXX  01211 12825 41515 81902 11006 21036 30074 40261 57004 72277 8802/ 333 88526;
0177128250999992000010122004+47200+017500FM-12+0146LHPA V0202201N002019999999N0015001N1-00061-00371102611ADDAY121999AY221999GF108991081001999999071999MA1999999100741MD1710011+9999MW1101REMSYN088AAXX  01221 12825 41915 82202 11006 21037 30074 40261 57001 71022 8807/ 555 10079 /7556;
0177128250999992000010123004+47200+017500FM-12+0146LHPA V0202101N003019999999N0015001N1-00091-00291102601ADDAY121999AY221999GF108991081001999999071999MA1999999100731MD1710021+9999MW1101REMSYN088AAXX  01231 12825 41915 82103 11009 21029 30073 40260 57002 71022 8807/ 555 10086 /7555;
0210128250999992000010200004+47200+017500FM-12+0146LHPA V0202001N002010021019N0010001N1-00131-00241102591ADDAA106000391AY171061AY241061GA1051+002109079GF108991051071002501021999MA1999999100721MD1810021+9999MW1711REMSYN094AAXX  02001 12825 11310 82002 11013 21024 30072 40259 58002 69931 77174 8572/ 333 85707 88520;
0231128250999992000010201004+47200+017500FM-12+0146LHPA V0202001N003010021019N0010001N1-00151-00201102581ADDAY171999AY271999GA1051+002109079GA2081+006009059GF108991051071002501021999MA1999999100711MD1710031+9999MW1701REMSYN110AAXX  02011 12825 41310 82003 11015 21020 30071 40258 57003 77077 8572/ 333 85707 88520 555 10096 6993/ /7554;
0231128250999992000010202004+47200+017500FM-12+0146LHPA V0201801N002010021019N0010001N1-00141-00191102571ADDAY171999AY271999GA1051+002109079GA2081+006009059GF108991051071002501021999MA1999999100701MD1710031+9999MW1711REMSYN110AAXX  02021 12825 41310 81802 11014 21019 30070 40257 57003 77177 8572/ 333 85707 88520 555 10097 6993/ /7553;
0193128250999992000010203004+47200+017500FM-12+0146LHPA V0201601N001010021019N0010001N1-00131-00171102581ADDAY171031AY271031GA1051+002109079GF108991051071002501021999MA1999999100711MD1510011+9999MW1711REMSYN088AAXX  02031 12825 41310 81601 11013 21017 30071 40258 55001 77177 8572/ 333 85707 88520;
0231128250999992000010204004+47200+017500FM-12+0146LHPA V0201701N001010021019N0010001N1-00121-00151102601ADDAY171999AY271999GA1051+002109069GA2081+006009059GF108991051071002501021999MA1999999100731MD1310021+9999MW1711REMSYN110AAXX  02041 12825 41310 81701 11012 21015 30073 40260 53002 77177 8572/ 333 85607 88520 555 10098 6995/ /7555;
0278128250999992000010206004+47200+017500FM-12+0146LHPA V0209999C000010021019N0010001N1-00131-00161102621ADDAA112003091AJ100069199999999AY171061AY271061GA1051+002109079GF108991051071002501021999GJ100009IA1279KA1120N-00251MA1999999100761MD1210111+9999MW1711REMSYN118AAXX  02061 12825 11310 80000 11013 21016 30076 40262 52011 60032 77177 8572/ 333 21025 43006 55000 70032 85707 88520;
0231128250999992000010207004+47200+017500FM-12+0146LHPA V0203401N001010021019N0010001N1-00151-00181102841ADDAY171011AY271011GA1051+002109079GA2081+006009059GF108991051071002501021999MA1999999100961MD1310231+9999MW1711REMSYN110AAXX  02071 12825 41310 83401 11015 21018 30096 40284 53023 77177 8572/ 333 85707 88520 555 10098 6994/ /7573;
0231128250999992000010208004+47200+017500FM-12+0146LHPA V0209999C000010021019N0010001N1-00131-00161102901ADDAY171021AY271021GA1051+002109079GA2081+006009059GF108991051071002501021999MA1999999101021MD1210241+9999MW1711REMSYN110AAXX  02081 12825 41310 80000 11013 21016 30102 40290 52024 77177 8572/ 333 85707 88520 555 10098 6993/ /7577;
0193128250999992000010209004+47200+017500FM-12+0146LHPA V0203401N00101036001CN0015001N1-00111-00141102961ADDAY171031AY271031GA1041+002109079GF108991041071002501021999MA1999999101091MD1210231+9999MW1711REMSYN088AAXX  02091 12825 41315 83401 11011 21014 30109 40296 52023 77177 8472/ 333 84707 88520;
0231128250999992000010210004+47200+017500FM-12+0146LHPA V0203501N002010060019N0015001N1-00081-00141103001ADDAY171999AY271999GA1031+002409079GA2081+006009059GF108991031071002501021999MA1999999101131MD1210171+9999MW1711REMSYN110AAXX  02101 12825 41315 83502 11008 21014 30113 40300 52017 77177 8372/ 333 83708 88520 555 10096 6991/ /7585;
0225128250999992000010211004+47200+017500FM-12+0146LHPA V0203401N002010078019N0015001N1-00161-00241103011ADDAY171999AY271999GA1021+003009079GA2081+007809059GF108991021071004501021999MA1999999101131MD1110111+9999MW1701REMSYN104AAXX  02111 12825 41415 83402 11016 21024 30113 40301 51011 77077 8272/ 333 82710 88526 555 10094 /7585;
0204128250999992000010212004+47200+017500FM-12+0146LHPA V0203401N002010060019N0015001N1-00201-00301103051ADDAA106000591AY171061AY271061GA1081+006009029GF108991081001008001021999MA1999999101171MD1210081+9999MW1221REMSYN088AAXX  02121 12825 11515 83402 11020 21030 30117 40305 52008 69941 72277 8802/ 333 88520;
0209128250999992000010213004+47200+017500FM-12+0146LHPA V0203501N002010060019N0015001N1-00201-00341102951ADDAY121999AY221999GA1081+006009059GF108991081001008001021999MA1999999101081MD1110021+9999MW1101REMSYN104AAXX  02131 12825 41515 83502 11020 21034 30108 40295 51002 71022 8802/ 333 88520 555 10090 99999 /7583;
0203128250999992000010214004+47200+017500FM-12+0146LHPA V0203301N002010060019N0010001N1-00231-00321103091ADDAY121999AY221999GA1081+006009059GF108991081001008001021999MA1999999101201MD1210071+9999MW1101REMSYN098AAXX  02141 12825 41510 83302 11023 21032 30120 40309 52007 71022 8802/ 333 88520 555 10094 /7591;
0187128250999992000010215004+47200+017500FM-12+0146LHPA V0203601N001010060019N0010001N1-00281-00361103121ADDAY121031AY221031GA1081+006009029GF108991081001008001021999MA1999999101231MD1310061+9999MW1101REMSYN082AAXX  02151 12825 41510 83601 11028 21036 30123 40312 53006 71022 8802/ 333 88520;
0203128250999992000010216004+47200+017500FM-12+0146LHPA V0203501N001010060019N0010001N1-00301-00371103191ADDAY121999AY221999GA1081+006009059GF108991081001008001021999MA1999999101301MD1310131+9999MW1101REMSYN098AAXX  02161 12825 41510 83501 11030 21037 30130 40319 53013 71022 8802/ 333 88520 555 10095 /7598;
0203128250999992000010217004+47200+017500FM-12+0146LHPA V0203501N001010045019N0010001N1-00281-00381103141ADDAY121999AY221999GA1081+004509059GF108991081001004501021999MA1999999101261MD1310131+9999MW1711REMSYN098AAXX  02171 12825 41410 83501 11028 21038 30126 40314 53013 77122 8802/ 333 88515 555 10093 /7596;
0258128250999992000010218004+47200+017500FM-12+0146LHPA V0203501N00101036001CN0010001N1-00301-00411103161ADDAA112000891AJ100099199999999AY171061AY221061GA1041+000909079GF108991041071002501021999IA1279KA1120M-00161MA1999999101281MD1210121+9999MW1711REMSYN106AAXX  02181 12825 11310 83501 11030 21041 30128 40316 52012 69972 77172 8472/ 333 11016 43009 84703 88515;
0225128250999992000010219004+47200+017500FM-12+0146LHPA V0202001N001010045019N0010001N1-00291-00341103221ADDAY171999AY271999GA1021+002409079GA2081+004509059GF108991021071002501021999MA1999999101331MD1010031+9999MW1701REMSYN104AAXX  02191 12825 41310 82001 11029 21034 30133 40322 50003 77077 8272/ 333 82708 88515 555 10097 /7600;
0203128250999992000010220004+47200+017500FM-12+0146LHPA V0202401N001010045019N0010001N1-00271-00311103271ADDAY171999AY271999GA1081+004509059GF108991081001004501021999MA1999999101381MD1210061+9999MW1221REMSYN098AAXX  02201 12825 41410 82401 11027 21031 30138 40327 52006 72277 8802/ 333 88515 555 10097 /7604;
0187128250999992000010221004+47200+017500FM-12+0146LHPA V0202001N001010045019N0010001N1-00251-00301103271ADDAY171031AY221031GA1081+004509029GF108991081001004501021999MA1999999101381MD1210041+9999MW1101REMSYN082AAXX  02211 12825 41410 82001 11025 21030 30138 40327 52004 71072 8802/ 333 88515;
0203128250999992000010222004+47200+017500FM-12+0146LHPA V0202101N002010018019N0010001N1-00241-00291103261ADDAY121999AY221999GA1081+001809079GF108991081061001501999999MA1999999101371MD1010041+9999MW1101REMSYN098AAXX  02221 12825 41210 82102 11024 21029 30137 40326 50004 71022 886// 333 88706 555 10096 /7603;
0203128250999992000010223004+47200+017500FM-12+0146LHPA V0202201N002010018019N0010001N1-00211-00281103231ADDAY121999AY221999GA1081+001809079GF108991081061001501999999MA1999999101351MD1210051+9999MW1101REMSYN098AAXX  02231 12825 41210 82202 11021 21028 30135 40323 52005 71022 886// 333 88706 555 10095 /7603;
0204128250999992000010300004+47200+017500FM-12+0146LHPA V0201801N002010018019N0010001N1-00201-00311103191ADDAA106000791AY171061AY221061GA1081+001809069GF108991081061001501999999MA1999999101311MD1410001+9999MW1101REMSYN088AAXX  03001 12825 11210 81802 11020 21031 30131 40319 54000 69901 71072 886// 333 88706;
0203128250999992000010301004+47200+017500FM-12+0146LHPA V0201801N002010018019N0010001N1-00181-00281103131ADDAY121999AY221999GA1081+001809079GF108991081061001501999999MA1999999101251MD1810061+9999MW1101REMSYN098AAXX  03011 12825 41210 81802 11018 21028 30125 40313 58006 71022 886// 333 88706 555 10093 /7596;
0203128250999992000010302004+47200+017500FM-12+0146LHPA V0201901N002010018019N0010001N1-00201-00301103111ADDAY121999AY221999GA1081+001809079GF108991081061001501999999MA1999999101241MD1710121+9999MW1101REMSYN098AAXX  03021 12825 41210 81902 11020 21030 30124 40311 57012 71022 886// 333 88706 555 10093 /7594;
0187128250999992000010303004+47200+017500FM-12+0146LHPA V0202101N002010018019N0010001N1-00201-00281103121ADDAY121031AY221031GA1081+001809069GF108991081061001501999999MA1999999101251MD1510061+9999MW1101REMSYN082AAXX  03031 12825 41210 82102 11020 21028 30125 40312 55006 71022 886// 333 88706;
0203128250999992000010304004+47200+017500FM-12+0146LHPA V0202301N004010018019N0010001N1-00251-00271103121ADDAY121999AY221999GA1081+001809079GF108991081061001501999999MA1999999101231MD1810051+9999MW1101REMSYN098AAXX  03041 12825 41210 82304 11025 21027 30123 40312 58005 71022 886// 333 88706 555 10098 /7593;
0203128250999992000010305004+47200+017500FM-12+0146LHPA V0202201N004010018019N0005001N1-00241-00261103121ADDAY121021AY221021GA1081+001809079GF108991081061001501999999MA1999999101231MD1610101+9999MW1441REMSYN098AAXX  03051 12825 41205 82204 11024 21026 30123 40312 56010 74422 886// 333 88706 555 10099 /7593;
0272128250999992000010306004+47200+017500FM-12+0146LHPA V0202101N004010012019N0003001N1-00221-00241103111ADDAA112000791AJ100099199999999AY121061AY221061GA1081+001209069GF108991081061001501999999GJ100009IA1279KA1120N-00301MA1999999101221MD1710051+9999MW1461REMSYN112AAXX  03061 12825 11203 82104 11022 21024 30122 40311 57005 69902 74622 886// 333 21030 43009 55000 70008 88704;
0203128250999992000010307004+47200+017500FM-12+0146LHPA V0201901N002010006019N0003001N1-00161-00171103081ADDAY141999AY241999GA1091+000609999GF109991091999999999999999MA1999999101211MD1710061+9999MW1471REMSYN098AAXX  03071 12825 41/03 91902 11016 21017 30121 40308 57006 74744 333 89/02 555 10099 99999 /7592;
0197128250999992000010308004+47200+017500FM-12+0146LHPA V0202201N004010006019N0003001N1-00191-00201103091ADDAY141999AY241999GA1091+000609999GF109991091999999999999999MA1999999101211MD1710021+9999MW1451REMSYN092AAXX  03081 12825 41/03 92204 11019 21020 30121 40309 57002 74544 333 89/02 555 10099 /7591;
0181128250999992000010309004+47200+017500FM-12+0146LHPA V0202101N003010006019N0003001N1-00181-00201103101ADDAY141031AY241031GA1091+000609999GF109991091999999999999999MA1999999101221MD1410001+9999MW1451REMSYN076AAXX  03091 12825 41/03 92103 11018 21020 30122 40310 54000 74544 333 89/02;
0203128250999992000010310004+47200+017500FM-12+0146LHPA V0202101N003010015019N0012001N1-00161-00171103041ADDAY141999AY241999GA1081+001509079GF108991081061001501999999MA1999999101151MD1710091+9999MW1281REMSYN098AAXX  03101 12825 41212 82103 11016 21017 30115 40304 57009 72844 886// 333 88705 555 10099 /7587;
0203128250999992000010311004+47200+017500FM-12+0146LHPA V0202301N003010015019N0015001N1-00121-00141102991ADDAY121999AY221999GA1071+001509079GF107991071061001501999999MA1999999101111MD1810101+9999MW1101REMSYN098AAXX  03111 12825 41215 72303 11012 21014 30111 40299 58010 71022 876// 333 87705 555 10099 /7584;
0217128250999992000010312004+47200+017500FM-12+0146LHPA V0202301N003010900019N0030001N1-00141-00241102941ADDAA106000091AY141061AY221061GA1021+002109069GF107991021061002501001021MA1999999101061MD1710161+9999MW1101REMSYN082AAXX  03121 12825 31330 72303 11014 21024 30106 40294 57016 71042 82602 333 82707;EQDQ01  00002PRCP06
0203128250999992000010313004+47200+017500FM-12+0146LHPA V0202401N003010900019N0030001N1-00141-00291102881ADDAY121999AY221999GA1021+002109079GF106991021061002501001021MA1999999101001MD1810151+9999MW1101REMSYN098AAXX  03131 12825 41330 62403 11014 21029 30100 40288 58015 71022 82602 333 82707 555 10090 /7576;
0203128250999992000010314004+47200+017500FM-12+0146LHPA V0202401N002010900019N0030001N1-00191-00331102861ADDAY121999AY221999GA1021+002109079GF106991021061002501001021MA1999999100981MD1710131+9999MW1101REMSYN098AAXX  03141 12825 41330 62402 11019 21033 30098 40286 57013 71022 82602 333 82707 555 10090 /7574;
0183128250999992000010316004+47200+017500FM-12+0146LHPA V0201901N001019999999N0002001N1-00411-00461102821ADDAY121999AY221999GF107991021001999999041061MA1999999100941MD1510031+9999MW1461REMSYN094AAXX  03161 12825 41902 71901 11041 21046 30094 40282 55003 74622 82046 555 10096 99999 /7572;
0177128250999992000010317004+47200+017500FM-12+0146LHPA V0209999C000019999999N0002001N1-00711-00751102881ADDAY141999AY241999GF107991021001999999041021MA1999999100961MD1810021+9999MW1441REMSYN088AAXX  03171 12825 41902 70000 11071 21075 30096 40288 58002 74444 82042 555 10096 /7573;
0243128250999992000010318004+47200+017500FM-12+0146LHPA V0203401N001019999999N0002001N1-00771-00831102851ADDAA106000091AJ100099199999999AY141061AY221061GF106991021001999999041021IA1279KA1120M-00121MA1999999100921MD1810071+9999MW1441REMSYN088AAXX  03181 12825 31902 63401 11077 21083 30092 40285 58007 74442 82042 333 11012 43009;EQDQ01  00002PRCP06
0203128250999992000010319004+47200+017500FM-12+0146LHPA V0200801N001010012019N0002001N1-00771-00831102841ADDAY141999AY241999GA1081+001209079GF108991081061001501999999MA1999999100921MD1710061+9999MW1441REMSYN098AAXX  03191 12825 41202 80801 11077 21083 30092 40284 57006 74444 886// 333 88704 555 10095 /7570;
0203128250999992000010320004+47200+017500FM-12+0146LHPA V0209999C000010012019N0002001N1-00741-00811102821ADDAY141999AY241999GA1081+001209079GF108991081061001501999999MA1999999100901MD1710061+9999MW1441REMSYN098AAXX  03201 12825 41202 80000 11074 21081 30090 40282 57006 74444 886// 333 88704 555 10095 /7568;
0187128250999992000010321004+47200+017500FM-12+0146LHPA V0201001N001010012019N0002001N1-00721-00791102801ADDAY141031AY241031GA1081+001209069GF108991081061001501999999MA1999999100891MD1410001+9999MW1441REMSYN082AAXX  03211 12825 41202 81001 11072 21079 30089 40280 54000 74444 886// 333 88704;
0203128250999992000010322004+47200+017500FM-12+0146LHPA V0201701N001010012019N0002001N1-00701-00761102821ADDAY141999AY241999GA1081+001209079GF108991081061001501999999MA1999999100911MD1710011+9999MW1441REMSYN098AAXX  03221 12825 41202 81701 11070 21076 30091 40282 57001 74444 886// 333 88704 555 10095 /7569;
0203128250999992000010323004+47200+017500FM-12+0146LHPA V0209999C000010012019N0002001N1-00641-00691102781ADDAY141999AY241999GA1081+001209079GF108991081061001501999999MA1999999100881MD1810021+9999MW1441REMSYN098AAXX  03231 12825 41202 80000 11064 21069 30088 40278 58002 74444 886// 333 88704 555 10096 /7567;
0217128250999992000010400004+47200+017500FM-12+0146LHPA V0209999C000010012019N0002001N1-00641-00711102741ADDAA106000091AY141061AY241061GA1081+001209069GF108991081061001501999999MA1999999100831MD1810101+9999MW1441REMSYN082AAXX  04001 12825 31202 80000 11064 21071 30083 40274 58010 74444 886// 333 88704;EQDQ01  00002PRCP06
0203128250999992000010401004+47200+017500FM-12+0146LHPA V0209999C000010012019N0002001N1-00781-00801102741ADDAY141999AY241999GA1081+001209079GF108991081061001501999999MA1999999100821MD1710091+9999MW1441REMSYN098AAXX  04011 12825 41202 80000 11078 21080 30082 40274 57009 74444 886// 333 88704 555 10094 /7562;
0197128250999992000010402004+47200+017500FM-12+0146LHPA V0209999C000010006019N0001001N1-00881-00971102751ADDAY141999AY241999GA1091+000609999GF109991091999999999999999MA1999999100821MD1610061+9999MW1471REMSYN092AAXX  04021 12825 41/01 90000 11088 21097 30082 40275 56006 74744 333 89/02 555 10093 /7562;
0181128250999992000010403004+47200+017500FM-12+0146LHPA V0209999C000010006019N0001001N1-00851-00921102701ADDAY141031AY241031GA1091+000609999GF109991091999999999999999MA1999999100781MD1610041+9999MW1471REMSYN076AAXX  04031 12825 41/01 90000 11085 21092 30078 40270 56004 74744 333 89/02;
0203128250999992000010404004+47200+017500FM-12+0146LHPA V0209999C000010006019N0002001N1-00861-00941102691ADDAY141999AY241999GA1091+000609999GF109991091999999999999999MA1999999100771MD1810011+9999MW1431REMSYN098AAXX  04041 12825 41/02 90000 11086 21094 30077 40269 58001 74344 333 89/02 555 10094 99999 /7560;
0197128250999992000010405004+47200+017500FM-12+0146LHPA V0202401N001010006019N0001001N1-00851-00931102671ADDAY141999AY241999GA1091+000609999GF109991091999999999999999MA1999999100751MD1710071+9999MW1471REMSYN092AAXX  04051 12825 41/01 92401 11085 21093 30075 40267 57007 74744 333 89/02 555 10094 /7557;
0273128250999992000010406004+47200+017500FM-12+0146LHPA V0202101N001010006019N0001001N1-00911-01001102671ADDAA106000091AJ100099199999999AY141061AY241061GA1091+000609999GF109991091999999999999999GJ100009IA1279KA1120N-00911MA1999999100741MD1710041+9999MW1491REMSYN094AAXX  04061 12825 31/01 92101 11091 21100 30074 40267 57004 74944 333 21091 43009 55000 89/02;EQDQ01  00002PRCP06
0197128250999992000010407004+47200+017500FM-12+0146LHPA V0201701N001010006019N0002001N1-01011-01111102691ADDAY141999AY241999GA1091+000609999GF109991091999999999999999MA1999999100761MD1510011+9999MW1491REMSYN092AAXX  04071 12825 41/02 91701 11101 21111 30076 40269 55001 74944 333 89/02 555 10092 /7558;
0197128250999992000010408004+47200+017500FM-12+0146LHPA V0209999C000010006019N0002001N1-00931-01041102691ADDAY141999AY241999GA1091+000609999GF109991091999999999999999MA1999999100771MD1310041+9999MW1491REMSYN092AAXX  04081 12825 41/02 90000 11093 21104 30077 40269 53004 74944 333 89/02 555 10092 /7560;
0181128250999992000010409004+47200+017500FM-12+0146LHPA V0201901N001010006019N0006001N1-00891-00981102751ADDAY141031AY241031GA1091+000609999GF109991091999999999999999MA1999999100821MD1210081+9999MW1491REMSYN076AAXX  04091 12825 41/06 91901 11089 21098 30082 40275 52008 74944 333 89/02;
0203128250999992000010410004+47200+017500FM-12+0146LHPA V0209999C000010012019N0008001N1-00651-00721102731ADDAY141999AY241999GA1071+001209079GF107991071061001501999999MA1999999100821MD1110061+9999MW1481REMSYN098AAXX  04101 12825 41208 70000 11065 21072 30082 40273 51006 74844 876// 333 87704 555 10095 /7562;
0203128250999992000010411004+47200+017500FM-12+0146LHPA V0209999C000010012019N0008001N1-00471-00521102671ADDAY141999AY241999GA1061+001209079GF106991061061001501001021MA1999999100781MD1810031+9999MW1481REMSYN098AAXX  04111 12825 41208 60000 11047 21052 30078 40267 58003 74844 86602 333 86704 555 10096 /7559;
0191128250999992000010412004+47200+017500FM-12+0146LHPA V0202001N001012200019N0006001N1-00421-00461102641ADDAA106000091AY141061AY241061GF104991001001999999001021MA1999999100751MD1710071+9999MW1481REMSYN072AAXX  04121 12825 31906 42001 11042 21046 30075 40264 57007 74844 80002;EQDQ01  00002PRCP06
0177128250999992000010413004+47200+017500FM-12+0146LHPA V0209999C000012200019N0008001N1-00311-00341102551ADDAY141999AY241999GF104991001001999999001021MA1999999100671MD1710151+9999MW1481REMSYN088AAXX  04131 12825 41908 40000 11031 21034 30067 40255 57015 74844 80002 555 10098 /7551;
0177128250999992000010414004+47200+017500FM-12+0146LHPA V0202001N001019999999N0008001N1-00331-00401102521ADDAY141999AY241999GF105991021001999999041021MA1999999100651MD1710121+9999MW1481REMSYN088AAXX  04141 12825 41908 52001 11033 21040 30065 40252 57012 74844 82042 555 10095 /7550;
0161128250999992000010415004+47200+017500FM-12+0146LHPA V0202501N001019999999N0008001N1-00431-00501102521ADDAY141031AY241031GF105991011001999999041021MA1999999100641MD1610081+9999MW1481REMSYN072AAXX  04151 12825 41908 52501 11043 21050 30064 40252 56008 74844 81042;
0177128250999992000010416004+47200+017500FM-12+0146LHPA V0202801N001012200019N0008001N1-00611-00661102561ADDAY141999AY241999GF103991001001999999001021MA1999999100661MD1810011+9999MW1481REMSYN088AAXX  04161 12825 41908 32801 11061 21066 30066 40256 58001 74844 80002 555 10096 /7550;
0177128250999992000010417004+47200+017500FM-12+0146LHPA V0201601N002012200019N0008001N1-00681-00731102551ADDAY141999AY241999GF102991001001999999001021MA1999999100641MD1810041+9999MW1481REMSYN088AAXX  04171 12825 41908 21602 11068 21073 30064 40255 58004 74844 80002 555 10096 /7549;
0243128250999992000010418004+47200+017500FM-12+0146LHPA V0201901N001012200019N0006001N1-00751-00801102521ADDAA106000091AJ100089199999999AY141061AY241061GF102991001001999999001021IA1279KA1120M-00251MA1999999100621MD1610011+9999MW1481REMSYN088AAXX  04181 12825 31906 21901 11075 21080 30062 40252 56001 74844 80002 333 11025 43008;EQDQ01  00002PRCP06
0177128250999992000010419004+47200+017500FM-12+0146LHPA V0202001N002012200019N0006001N1-00791-00891102551ADDAY141999AY241999GF102991001001999999001021MA1999999100631MD1710031+9999MW1481REMSYN088AAXX  04191 12825 41906 22002 11079 21089 30063 40255 57003 74844 80002 555 10093 /7548;
0187128250999992000010420004+47200+017500FM-12+0146LHPA V0201901N002012200019N0008001N1-00551-00611102521ADDAY141999AY241999GA1001+999999999GF100991001001999999001001MA1999999100621MD1810021+9999MW1481REMSYN082AAXX  04201 12825 41908 01902 11055 21061 30062 40252 58002 74844 555 10096 /7547;
0171128250999992000010421004+47200+017500FM-12+0146LHPA V0202001N003012200019N0008001N1-00481-00521102471ADDAY141031AY241031GA1001+999999999GF100991001001999999001001MA1999999100581MD1710071+9999MW1481REMSYN066AAXX  04211 12825 41908 02003 11048 21052 30058 40247 57007 74844;
0187128250999992000010422004+47200+017500FM-12+0146LHPA V0202001N003012200019N0008001N1-00471-00511102491ADDAY141999AY241999GA1001+999999999GF100991001001999999001001MA1999999100601MD1510031+9999MW1481REMSYN082AAXX  04221 12825 41908 02003 11047 21051 30060 40249 55003 74844 555 10097 /7546;
0187128250999992000010423004+47200+017500FM-12+0146LHPA V0201901N003012200019N0008001N1-00471-00521102441ADDAY141999AY241999GA1001+999999999GF100991001001999999001001MA1999999100551MD1710071+9999MW1481REMSYN082AAXX  04231 12825 41908 01903 11047 21052 30055 40244 57007 74844 555 10097 /7542;
0201128250999992000010500004+47200+017500FM-12+0146LHPA V0201901N003012200019N0010001N1-00411-00441102431ADDAA106000091AY141061AY241061GA1001+999999999GF100991001001999999001001MA1999999100541MD1810041+9999MW1281REMSYN066AAXX  05001 12825 31910 01903 11041 21044 30054 40243 58004 72844;EQDQ01  00002PRCP06
0187128250999992000010501004+47200+017500FM-12+0146LHPA V0201901N003012200019N0010001N1-00301-00341102381ADDAY101999AY201999GA1001+999999999GF100991001001999999001001MA1999999100501MD1710101+9999MW1101REMSYN082AAXX  05011 12825 41910 01903 11030 21034 30050 40238 57010 71000 555 10098 /7538;
0187128250999992000010502004+47200+017500FM-12+0146LHPA V0202001N003012200019N0012001N1-00351-00381102361ADDAY101999AY201999GA1001+999999999GF100991001001999999001001MA1999999100481MD1710071+9999MW1101REMSYN082AAXX  05021 12825 41912 02003 11035 21038 30048 40236 57007 71000 555 10097 /7537;
0171128250999992000010503004+47200+017500FM-12+0146LHPA V0202001N003012200019N0012001N1-00311-00351102311ADDAY101031AY201031GA1001+999999999GF100991001001999999001001MA1999999100431MD1710111+9999MW1101REMSYN066AAXX  05031 12825 41912 02003 11031 21035 30043 40231 57011 71000;
0177128250999992000010504004+47200+017500FM-12+0146LHPA V0202201N004019999999N0020001N1-00231-00271102331ADDAY101999AY201999GF105991051001999999071001MA1999999100461MD1510041+9999MW1101REMSYN088AAXX  05041 12825 41920 52204 11023 21027 30046 40233 55004 71000 85070 555 10097 /7535;
0209128250999992000010505004+47200+017500FM-12+0146LHPA V0202101N00401036001CN0035001N1-00111-00201102311ADDAY121999AY221999GA1031+015009069GF108991031051017501071999MA1999999100451MD1710031+9999MW1101REMSYN104AAXX  05051 12825 41735 82104 11011 21020 30045 40231 57003 71022 8357/ 333 83650 555 10094 55074 /7534;
0279128250999992000010506004+47200+017500FM-12+0146LHPA V0202201N00401036001CN0035001N1-00171-00301102361ADDAA106000091AJ100089199999999AY111061AY211061GA1021+015009059GF106991021051017501071001GJ100009IA1279KA1120N-00871MA1999999100491MD1210061+9999MW1101REMSYN100AAXX  05061 12825 31735 62204 11017 21030 30049 40236 52006 71011 82570 333 21087 43008 55000 82650;EQDQ01  00002PRCP06
0183128250999992000010507004+47200+017500FM-12+0146LHPA V0202101N005019999999N0035001N1-00171-00321102321ADDAY121999AY221999GF107991071001999999071999MA1999999100461MD1410001+9999MW1101REMSYN094AAXX  05071 12825 41935 72105 11017 21032 30046 40232 54000 71022 8707/ 555 10090 55074 /7535;
0183128250999992000010508004+47200+017500FM-12+0146LHPA V0202101N006019999999N0035001N1-00161-00331102351ADDAY121999AY221999GF106991061001999999071001MA1999999100481MD1210031+9999MW1101REMSYN094AAXX  05081 12825 41935 62106 11016 21033 30048 40235 52003 71022 86070 555 10088 55084 /7537;
0161128250999992000010509004+47200+017500FM-12+0146LHPA V0202301N004019999999N0040001N1-00161-00321102401ADDAY121031AY221031GF107991071001999999071999MA1999999100541MD1310051+9999MW1101REMSYN072AAXX  05091 12825 41940 72304 11016 21032 30054 40240 53005 71022 8707/;
0155128250999992000010510004+47200+017500FM-12+0146LHPA V0202101N005019999999N0060001N1-00031-00281102391ADDGF107991071001999999071999MA1999999100531MD1010071+9999REMSYN088AAXX  05101 12825 42956 72105 11003 21028 30053 40239 50007 8707/ 555 10083 55064 /7540;
0149128250999992000010511004+47200+017500FM-12+0146LHPA V0202201N004019999999N0060001N1-00021-00231102431ADDGF108991081001999999071999MA1999999100571MD1210091+9999REMSYN082AAXX  05111 12825 42956 82204 11002 21023 30057 40243 52009 8807/ 555 10082 /7543;
0163128250999992000010512004+47200+017500FM-12+0146LHPA V0202101N003019999999N0060001N1-00031-00291102411ADDAA106000091GF106991061001999999071001MA1999999100551MD1210011+9999REMSYN066AAXX  05121 12825 32956 62103 11003 21029 30055 40241 52001 86070;EQDQ01  00002PRCP06
0149128250999992000010513004+47200+017500FM-12+0146LHPA V0202201N004019999999N0060001N1+00021-00241102401ADDGF106991061001999999071001MA1999999100541MD1010011+9999REMSYN082AAXX  05131 12825 42956 62204 10002 21024 30054 40240 50001 86070 555 10083 /7541;
0149128250999992000010514004+47200+017500FM-12+0146LHPA V0202101N002019999999N0060001N1+00021-00231102381ADDGF106991061001999999071001MA1999999100531MD1310011+9999REMSYN082AAXX  05141 12825 42956 62102 10002 21023 30053 40238 53001 86070 555 10083 /7542;
0161128250999992000010515004+47200+017500FM-12+0146LHPA V0202001N002019999999N0040001N1+00011-00201102461ADDAY121031AY221031GF107991071001999999071999MA1999999100601MD1310051+9999MW1101REMSYN072AAXX  05151 12825 41940 72002 10001 21020 30060 40246 53005 71022 8707/;
0177128250999992000010516004+47200+017500FM-12+0146LHPA V0202101N002019999999N0040001N1+00021-00171102521ADDAY121999AY221999GF108991081001999999071999MA1999999100661MD1210121+9999MW1101REMSYN088AAXX  05161 12825 41940 82102 10002 21017 30066 40252 52012 71022 8807/ 555 10087 /7550;
0177128250999992000010517004+47200+017500FM-12+0146LHPA V0201901N002019999999N0040001N1+00021-00171102541ADDAY121999AY221999GF108991081001999999071999MA1999999100681MD1210091+9999MW1101REMSYN088AAXX  05171 12825 41940 81902 10002 21017 30068 40254 52009 71022 8807/ 555 10087 /7552;
0177128250999992000010519004+47200+017500FM-12+0146LHPA V0201701N001012200019N0040001N1-00161-00261102621ADDAY121999AY221999GF104991041001999999071001MA1999999100751MD1210091+9999MW1101REMSYN088AAXX  05191 12825 41940 41701 11016 21026 30075 40262 52009 71022 84070 555 10093 /7557;
0171128250999992000010521004+47200+017500FM-12+0146LHPA V0201601N001012200019N0020001N1-00611-00651102721ADDAY101031AY201031GA1001+999999999GF100991001001999999001001MA1999999100811MD1210091+9999MW1101REMSYN066AAXX  05211 12825 41920 01601 11061 21065 30081 40272 52009 71000;
0187128250999992000010522004+47200+017500FM-12+0146LHPA V0202201N001012200019N0020001N1-00821-00921102751ADDAY101999AY201999GA1001+999999999GF100991001001999999001001MA1999999100831MD1110081+9999MW1101REMSYN082AAXX  05221 12825 41920 02201 11082 21092 30083 40275 51008 71000 555 10093 /7563;
0177128250999992000010601004+47200+017500FM-12+0146LHPA V0201901N002012200019N0010001N1-00571-00621102721ADDAY101999AY201999GF102991021001999999041001MA1999999100821MD1510011+9999MW1101REMSYN088AAXX  06011 12825 41910 21902 11057 21062 30082 40272 55001 71000 82040 555 10096 /7562;
0187128250999992000010602004+47200+017500FM-12+0146LHPA V0201601N002012200019N0010001N1-00741-00811102711ADDAY101999AY201999GA1001+999999999GF100991001001999999001001MA1999999100801MD1710011+9999MW1101REMSYN082AAXX  06021 12825 41910 01602 11074 21081 30080 40271 57001 71000 555 10095 /7561;
0171128250999992000010603004+47200+017500FM-12+0146LHPA V0209999C000012200019N0010001N1-00961-01061102671ADDAY101031AY201031GA1001+999999999GF100991001001999999001001MA1999999100751MD1710011+9999MW1101REMSYN066AAXX  06031 12825 41910 00000 11096 21106 30075 40267 57001 71000;
0187128250999992000010604004+47200+017500FM-12+0146LHPA V0200801N001012200019N0010001N1-01021-01121102681ADDAY101999AY201999GA1001+999999999GF100991001001999999001001MA1999999100751MD1710011+9999MW1101REMSYN082AAXX  06041 12825 41910 00801 11102 21112 30075 40268 57001 71000 555 10092 /7558;
0197128250999992000010605004+47200+017500FM-12+0146LHPA V0202001N001010009019N0002001N1-00871-00951102721ADDAY101999AY201999GA1091+000909999GF109991091999999999999999MA1999999100791MD1710011+9999MW1491REMSYN092AAXX  06051 12825 41/02 92001 11087 21095 30079 40272 57001 74900 333 89/03 555 10094 /7560;
0273128250999992000010606004+47200+017500FM-12+0146LHPA V0202701N001010006019N0000001N1-00641-00711102691ADDAA106000091AJ100089199999999AY141061AY241061GA1091+000609999GF109991091999999999999999GJ100369IA1279KA1120N-01031MA1999999100781MD1710021+9999MW1491REMSYN094AAXX  06061 12825 31/00 92701 11064 21071 30078 40269 57002 74944 333 21103 43008 55006 89/02;EQDQ01  00002PRCP06
0197128250999992000010607004+47200+017500FM-12+0146LHPA V0209999C000010006019N0000001N1-00601-00641102681ADDAY141999AY241999GA1091+000609999GF109991091999999999999999MA1999999100791MD1210031+9999MW1491REMSYN092AAXX  06071 12825 41/00 90000 11060 21064 30079 40268 52003 74944 333 89/02 555 10097 /7561;
0197128250999992000010608004+47200+017500FM-12+0146LHPA V0209999C000010006019N0000001N1-00411-00441102731ADDAY141999AY241999GA1091+000609999GF109991091999999999999999MA1999999100841MD1310051+9999MW1491REMSYN092AAXX  06081 12825 41/00 90000 11041 21044 30084 40273 53005 74944 333 89/02 555 10097 /7564;
0181128250999992000010609004+47200+017500FM-12+0146LHPA V0209999C000010006019N0000001N1-00361-00391102751ADDAY141031AY241031GA1091+000609999GF109991091999999999999999MA1999999100861MD1110081+9999MW1491REMSYN076AAXX  06091 12825 41/00 90000 11036 21039 30086 40275 51008 74944 333 89/02;
0197128250999992000010610004+47200+017500FM-12+0146LHPA V0209999C000010006019N0000001N1-00281-00311102711ADDAY141999AY241999GA1091+000609999GF109991091999999999999999MA1999999100831MD1010011+9999MW1491REMSYN092AAXX  06101 12825 41/00 90000 11028 21031 30083 40271 50001 74944 333 89/02 555 10098 /7563;
0197128250999992000010611004+47200+017500FM-12+0146LHPA V0209999C000010006019N0000001N1-00251-00281102691ADDAY141999AY241999GA1091+000609999GF109991091999999999999999MA1999999100811MD1810031+9999MW1491REMSYN092AAXX  06111 12825 41/00 90000 11025 21028 30081 40269 58003 74944 333 89/02 555 10098 /7561;
0211128250999992000010612004+47200+017500FM-12+0146LHPA V0200801N001010006019N0000001N1-00281-00311102681ADDAA106000091AY141061AY241061GA1091+000609999GF109991091999999999999999MA1999999100801MD1610061+9999MW1491REMSYN076AAXX  06121 12825 31/00 90801 11028 21031 30080 40268 56006 74944 333 89/02;EQDQ01  00002PRCP06
0197128250999992000010613004+47200+017500FM-12+0146LHPA V0200901N001010006019N0000001N1-00271-00301102651ADDAY141999AY241999GA1091+000609999GF109991091999999999999999MA1999999100781MD1710051+9999MW1491REMSYN092AAXX  06131 12825 41/00 90901 11027 21030 30078 40265 57005 74944 333 89/02 555 10098 /7559;
0187128250999992000010614004+47200+017500FM-12+0146LHPA V0203401N001012200019N0001001N1-00381-00421102601ADDAY141999AY241999GA1001+999999999GF100991001001999999001001MA1999999100731MD1710051+9999MW1481REMSYN082AAXX  06141 12825 41901 03401 11038 21042 30073 40260 57005 74844 555 10097 /7556;
0171128250999992000010615004+47200+017500FM-12+0146LHPA V0200401N001012200019N0001001N1-00491-00531102681ADDAY141031AY241031GA1001+999999999GF100991001001999999001001MA1999999100781MD1510021+9999MW1481REMSYN066AAXX  06151 12825 41901 00401 11049 21053 30078 40268 55002 74844;
0193128250999992000010616004+47200+017500FM-12+0146LHPA V0200501N001012200019N0000001N1-00711-00791102621ADDAY141999AY241999GA1001+999999999GF100991001001999999001001MA1999999100721MD1610011+9999MW1481REMSYN088AAXX  06161 12825 41900 00501 11071 21079 30072 40262 56001 74844 555 10094 99999 /7556;
0187128250999992000010617004+47200+017500FM-12+0146LHPA V0203501N002012200019N0010001N1-00771-00841102691ADDAY141999AY241999GA1001+999999999GF100991001001999999001001MA1999999100781MD1210021+9999MW1281REMSYN082AAXX  06171 12825 41910 03502 11077 21084 30078 40269 52002 72844 555 10094 /7559;
0193128250999992000010619004+47200+017500FM-12+0146LHPA V0209999C000012200019N0005001N1-01031-01131102711ADDAY141999AY241999GA1001+999999999GF100991001001999999001001MA1999999100791MD1210061+9999MW1481REMSYN088AAXX  06191 12825 41905 00000 11103 21113 30079 40271 52006 74844 555 10097 99999 /7561;
0197128250999992000010620004+47200+017500FM-12+0146LHPA V0202901N001010006019N0000001N1-01071-01171102821ADDAY141999AY241999GA1091+000609999GF109991091999999999999999MA1999999100871MD1210091+9999MW1491REMSYN092AAXX  06201 12825 41/00 92901 11107 21117 30087 40282 52009 74944 333 89/02 555 10092 /7566;
0197128250999992000010622004+47200+017500FM-12+0146LHPA V0209999C000010006019N0000001N1-01171-01301102851ADDAY141999AY241999GA1091+000609999GF109991091999999999999999MA1999999100901MD1210061+9999MW1491REMSYN092AAXX  06221 12825 41/00 90000 11117 21130 30090 40285 52006 74944 333 89/02 555 10090 /7568;
0206128250999992000010623004+47200+017500FM-12+0146LHPA V0201401N001012200019N0005001N1-01271-01421999999ADDAY141999AY241999GA1001+999999999GF100991001001999999001001MA1999999100891MD1010021+9999MW1481REMSYN082AAXX  06231 12825 41905 01401 11127 21142 30089 40205 50002 74844 555 10089 /7567;EQDQ01+102053APOSLP
0201128250999992000010700004+47200+017500FM-12+0146LHPA V0209999C000012200019N0005001N1-01261-01391102811ADDAA106000091AY141061AY241061GA1001+999999999GF100991001001999999001001MA1999999100861MD1010021+9999MW1481REMSYN066AAXX  07001 12825 31905 00000 11126 21139 30086 40281 50002 74844;EQDQ01  00002PRCP06
0222128250999992000010701004+47200+017500FM-12+0146LHPA V0209999C000012200019N0008001N1+99999+99999102871ADDAY141999AY241999GA1001+999999999GF100991001001999999001001MA1999999100921MD1310021+9999MW1481REMSYN082AAXX  07011 12825 41908 00000 11031 21046 30092 40287 53002 74844 555 10089 /7570;EQDQ01-000313ATOT  Q02-000463ATOD  
0187128250999992000010702004+47200+017500FM-12+0146LHPA V0201401N004012200019N0008001N1-01341-01481102891ADDAY141999AY241999GA1001+999999999GF100991001001999999001001MA1999999100941MD1310051+9999MW1481REMSYN082AAXX  07021 12825 41908 01404 11134 21148 30094 40289 53005 74844 555 10089 /7571;
0181128250999992000010703004+47200+017500FM-12+0146LHPA V0202101N002010009019N0002001N1-01011-01081102881ADDAY141031AY241031GA1091+000909999GF109991091999999999999999MA1999999100931MD1010051+9999MW1491REMSYN076AAXX  07031 12825 41/02 92102 11101 21108 30093 40288 50005 74944 333 89/03;
0203128250999992000010704004+47200+017500FM-12+0146LHPA V0202001N002010012019N0005001N1-00571-00621102861ADDAY141999AY241999GA1081+001209079GF108991081061001501999999MA1999999100961MD1210041+9999MW1481REMSYN098AAXX  07041 12825 41205 82002 11057 21062 30096 40286 52004 74844 886// 333 88704 555 10096 /7573;
0203128250999992000010705004+47200+017500FM-12+0146LHPA V0202001N002010012019N0010001N1-00511-00561102881ADDAY141999AY241999GA1081+001209079GF108991081061001501999999MA1999999100991MD1310051+9999MW1281REMSYN098AAXX  07051 12825 41210 82002 11051 21056 30099 40288 53005 72844 886// 333 88704 555 10096 /7575;
0279128250999992000010706004+47200+017500FM-12+0146LHPA V0201601N001010360019N0010001N1-00571-00621102771ADDAA106000091AJ100089199999999AY141061AY221061GA1021+009909059GF106991021051012501071001GJ100009IA1279KA1120N-01341MA1999999100881MD1810011+9999MW1101REMSYN100AAXX  07061 12825 31610 61601 11057 21062 30088 40277 58001 71042 82570 333 21134 43008 55000 82633;EQDQ01  00002PRCP06
0177128250999992000010707004+47200+017500FM-12+0146LHPA V0201401N001019999999N0010001N1-00611-00671102991ADDAY121011AY221011GF107991071001999999071999MA1999999101081MD1310121+9999MW1101REMSYN088AAXX  07071 12825 41910 71401 11061 21067 30108 40299 53012 71022 8707/ 555 10096 /7582;
0177128250999992000010708004+47200+017500FM-12+0146LHPA V0209999C000019999999N0012001N1-00551-00611103041ADDAY121999AY221999GF107991071001999999071999MA1999999101131MD1210141+9999MW1101REMSYN088AAXX  07081 12825 41912 70000 11055 21061 30113 40304 52014 71022 8707/ 555 10096 /7585;
0187128250999992000010709004+47200+017500FM-12+0146LHPA V0201501N001010360019N0012001N1-00451-00491103011ADDAY121031AY221031GA1041+001209069GF107991041061001501071999MA1999999101121MD1110241+9999MW1101REMSYN082AAXX  07091 12825 41212 71501 11045 21049 30112 40301 51024 71022 8467/ 333 84704;
0203128250999992000010710004+47200+017500FM-12+0146LHPA V0202101N003010012019N0012001N1-00261-00291103021ADDAY121999AY221999GA1081+001209079GF108991081061001501999999MA1999999101121MD1010041+9999MW1101REMSYN098AAXX  07101 12825 41212 82103 11026 21029 30112 40302 50004 71022 886// 333 88704 555 10098 /7585;
0203128250999992000010711004+47200+017500FM-12+0146LHPA V0202201N003010012019N0015001N1-00221-00251102981ADDAY121999AY221999GA1081+001209079GF108991081061001501999999MA1999999101101MD1810031+9999MW1101REMSYN098AAXX  07111 12825 41215 82203 11022 21025 30110 40298 58003 71022 886// 333 88704 555 10098 /7583;
0217128250999992000010712004+47200+017500FM-12+0146LHPA V0202401N003010012019N0015001N1-00181-00211102951ADDAA106000091AY121061AY221061GA1081+001209069GF108991081061001501999999MA1999999101071MD1710081+9999MW1101REMSYN082AAXX  07121 12825 31215 82403 11018 21021 30107 40295 57008 71022 886// 333 88704;EQDQ01  00002PRCP06
0203128250999992000010713004+47200+017500FM-12+0146LHPA V0202101N001010012019N0015001N1-00141-00161102951ADDAY121999AY221999GA1081+001209079GF108991081061001501999999MA1999999101071MD1710051+9999MW1101REMSYN098AAXX  07131 12825 41215 82101 11014 21016 30107 40295 57005 71022 886// 333 88704 555 10098 /7581;
0203128250999992000010714004+47200+017500FM-12+0146LHPA V0200901N001010012019N0015001N1-00131-00151102971ADDAY121999AY221999GA1081+001209079GF108991081061001501999999MA1999999101101MD1510001+9999MW1101REMSYN098AAXX  07141 12825 41215 80901 11013 21015 30110 40297 55000 71022 886// 333 88704 555 10098 /7583;
0187128250999992000010715004+47200+017500FM-12+0146LHPA V0200901N001010012019N0015001N1-00161-00181103001ADDAY121031AY221031GA1081+001209069GF108991081061001501999999MA1999999101121MD1210051+9999MW1101REMSYN082AAXX  07151 12825 41215 80901 11016 21018 30112 40300 52005 71022 886// 333 88704;
0203128250999992000010716004+47200+017500FM-12+0146LHPA V0209999C000010012019N0010001N1-00161-00181103001ADDAY121999AY221999GA1081+001209079GF108991081061001501999999MA1999999101121MD1110051+9999MW1101REMSYN098AAXX  07161 12825 41210 80000 11016 21018 30112 40300 51005 71022 886// 333 88704 555 10098 /7585;
0203128250999992000010717004+47200+017500FM-12+0146LHPA V0209999C000010012019N0010001N1-00151-00171103011ADDAY121999AY221999GA1081+001209079GF108991081061001501999999MA1999999101131MD1210031+9999MW1101REMSYN098AAXX  07171 12825 41210 80000 11015 21017 30113 40301 52003 71022 886// 333 88704 555 10098 /7585;
0265128250999992000010718004+47200+017500FM-12+0146LHPA V0209999C000010012019N0015001N1-00151-00181102931ADDAA106000091AJ100089199999999AY121061AY221061GA1081+001209069GF108991081061001501999999IA1279KA1120M-00131MA1999999101061MD1710021+9999MW1101REMSYN094AAXX  07181 12825 31215 80000 11015 21018 30106 40293 57002 71022 886// 333 11013 43008 88704;EQDQ01  00002PRCP06
0203128250999992000010719004+47200+017500FM-12+0146LHPA V0209999C000010012019N0012001N1-00141-00171102931ADDAY121999AY221999GA1081+001209079GF108991081061001501999999MA1999999101071MD1410001+9999MW1101REMSYN098AAXX  07191 12825 41212 80000 11014 21017 30107 40293 54000 71022 886// 333 88704 555 10098 /7582;
0203128250999992000010720004+47200+017500FM-12+0146LHPA V0200101N001010012019N0010001N1-00141-00171102951ADDAY121999AY221999GA1081+001209079GF108991081061001501999999MA1999999101091MD1510001+9999MW1101REMSYN098AAXX  07201 12825 41210 80101 11014 21017 30109 40295 55000 71022 886// 333 88704 555 10098 /7583;
0187128250999992000010721004+47200+017500FM-12+0146LHPA V0201001N001010012019N0010001N1-00141-00171102951ADDAY121031AY221031GA1081+001209069GF108991081061001501999999MA1999999101081MD1010021+9999MW1101REMSYN082AAXX  07211 12825 41210 81001 11014 21017 30108 40295 50002 71022 886// 333 88704;
0203128250999992000010722004+47200+017500FM-12+0146LHPA V0201001N001010012019N0010001N1-00151-00171103021ADDAY121999AY221999GA1081+001209079GF108991081061001501999999MA1999999101141MD1010011+9999MW1101REMSYN098AAXX  07221 12825 41210 81001 11015 21017 30114 40302 50001 71022 886// 333 88704 555 10098 /7586;
0203128250999992000010723004+47200+017500FM-12+0146LHPA V0201001N002010012019N0010001N1-00151-00181102991ADDAY121999AY221999GA1081+001209079GF108991081061001501999999MA1999999101101MD1810061+9999MW1101REMSYN098AAXX  07231 12825 41210 81002 11015 21018 30110 40299 58006 71022 886// 333 88704 555 10098 /7583;
0217128250999992000010800004+47200+017500FM-12+0146LHPA V0209999C000010012019N0010001N1-00241-00271102961ADDAA106000091AY121061AY221061GA1061+001209069GF106991061061001501001001MA1999999101081MD1710081+9999MW1101REMSYN082AAXX  08001 12825 31210 60000 11024 21027 30108 40296 57008 71022 86600 333 86704;EQDQ01  00002PRCP06
0203128250999992000010801004+47200+017500FM-12+0146LHPA V0202001N001010012019N0010001N1-00251-00271102931ADDAY121999AY221999GA1061+001209079GF106991061061001501001001MA1999999101051MD1710091+9999MW1101REMSYN098AAXX  08011 12825 41210 62001 11025 21027 30105 40293 57009 71022 86600 333 86704 555 10098 /7579;
0209128250999992000010802004+47200+017500FM-12+0146LHPA V0209999C000010012019N0010001N1-00231-00261102831ADDAY121999AY221999GA1061+001209079GF106991061061001501001001MA1999999100961MD1710101+9999MW1101REMSYN104AAXX  08021 12825 41210 60000 11023 21026 30096 40283 57010 71022 86600 333 86704 555 10098 99999 /7573;
0187128250999992000010803004+47200+017500FM-12+0146LHPA V0209999C000010012019N0010001N1-00221-00251102821ADDAY121031AY221031GA1081+001209069GF108991081061001501999999MA1999999100951MD1610081+9999MW1101REMSYN082AAXX  08031 12825 41210 80000 11022 21025 30095 40282 56008 71022 886// 333 88704;
0203128250999992000010804004+47200+017500FM-12+0146LHPA V0201801N001010012019N0010001N1-00301-00331102911ADDAY121999AY221999GA1081+001209079GF108991081061001501999999MA1999999101021MD1810031+9999MW1101REMSYN098AAXX  08041 12825 41210 81801 11030 21033 30102 40291 58003 71022 886// 333 88704 555 10098 /7577;
0193128250999992000010805004+47200+017500FM-12+0146LHPA V0209999C000012200019N0003001N1-00641-00671102871ADDAY121999AY221999GA1001+999999999GF100991001001999999001001MA1999999100971MD1210011+9999MW1461REMSYN088AAXX  08051 12825 41903 00000 11064 21067 30097 40287 52001 74622 555 10098 99999 /7574;
0279128250999992000010806004+47200+017500FM-12+0146LHPA V0201701N001010009019N0002001N1-00691-00741102911ADDAA106000091AJ100089199999999AY141061AY221061GA1061+000909069GF106991061061000751001001GJ100009IA1279KA1120N-00731MA1999999101001MD1610041+9999MW1461REMSYN100AAXX  08061 12825 31102 61701 11069 21074 30100 40291 56004 74642 86600 333 21073 43008 55000 86703;EQDQ01  00002PRCP06
0203128250999992000010807004+47200+017500FM-12+0146LHPA V0209999C000010009019N0008001N1-00501-00551102921ADDAY141999AY241999GA1071+000909079GF107991071061000751999999MA1999999101021MD1510001+9999MW1421REMSYN098AAXX  08071 12825 41108 70000 11050 21055 30102 40292 55000 74244 876// 333 87703 555 10097 /7577;
0187128250999992000010809004+47200+017500FM-12+0146LHPA V0209999C000010012019N0008001N1-00151-00191102991ADDAY141031AY241031GA1061+001209069GF108991061061001501071999MA1999999101121MD1310141+9999MW1441REMSYN082AAXX  08091 12825 41208 80000 11015 21019 30112 40299 53014 74444 8667/ 333 86704;
0177128250999992000010810004+47200+017500FM-12+0146LHPA V0201901N003019999999N0010001N1+00041-00181102961ADDAY141999AY241999GF107991071001999999071999MA1999999101091MD1110071+9999MW1281REMSYN088AAXX  08101 12825 41910 71903 10004 21018 30109 40296 51007 72844 8707/ 555 10085 /7582;
0177128250999992000010811004+47200+017500FM-12+0146LHPA V0201801N001019999999N0020001N1+00101-00121102901ADDAY121999AY221999GF108991081001999999071999MA1999999101051MD1210031+9999MW1101REMSYN088AAXX  08111 12825 41920 81801 10010 21012 30105 40290 52003 71022 8807/ 555 10085 /7581;
0191128250999992000010812004+47200+017500FM-12+0146LHPA V0202201N002019999999N0020001N1+00121-00121102881ADDAA106000091AY141061AY221061GF108991081001999999071999MA1999999101021MD1810061+9999MW1101REMSYN072AAXX  08121 12825 31920 82202 10012 21012 30102 40288 58006 71042 8807/;EQDQ01  00002PRCP06
0177128250999992000010813004+47200+017500FM-12+0146LHPA V0202201N003012200019N0020001N1+00151-00101102851ADDAY121999AY221999GF104991041001999999041001MA1999999100981MD1710111+9999MW1101REMSYN088AAXX  08131 12825 41920 42203 10015 21010 30098 40285 57011 71022 84040 555 10083 /7574;
0177128250999992000010814004+47200+017500FM-12+0146LHPA V0201801N001019999999N0020001N1+00141-00171102781ADDAY111999AY211999GF105991051001999999071001MA1999999100941MD1610121+9999MW1101REMSYN088AAXX  08141 12825 41920 51801 10014 21017 30094 40278 56012 71011 85070 555 10080 /7572;
0161128250999992000010815004+47200+017500FM-12+0146LHPA V0202201N001019999999N0020001N1+00121-00141102841ADDAY111031AY211031GF105991031001999999041021MA1999999100981MD1510041+9999MW1101REMSYN072AAXX  08151 12825 41920 52201 10012 21014 30098 40284 55004 71011 83042;
0177128250999992000010816004+47200+017500FM-12+0146LHPA V0209999V001019999999N0020001N1+00051-00151102851ADDAY121999AY221999GF107991071001999999071999MA1999999100991MD1310011+9999MW1101REMSYN088AAXX  08161 12825 41920 79901 10005 21015 30099 40285 53001 71022 8707/ 555 10086 /7575;
0177128250999992000010817004+47200+017500FM-12+0146LHPA V0202101N002019999999N0020001N1+00001-00191102881ADDAY121999AY221999GF108991081001999999071999MA1999999101011MD1310041+9999MW1101REMSYN088AAXX  08171 12825 41920 82102 10000 21019 30101 40288 53004 71022 8807/ 555 10087 /7576;
0243128250999992000010818004+47200+017500FM-12+0146LHPA V0202301N002019999999N0020001N1-00031-00191102901ADDAA106000091AJ100079199999999AY121061AY221061GF108991081001999999071999IA1279KA1120M+00171MA1999999101031MD1310051+9999MW1101REMSYN088AAXX  08181 12825 31920 82302 11003 21019 30103 40290 53005 71022 8807/ 333 10017 43007;EQDQ01  00002PRCP06
0177128250999992000010820004+47200+017500FM-12+0146LHPA V0209999C000019999999N0020001N1-00051-00181102911ADDAY121999AY221999GF108991081001999999071999MA1999999101041MD1010031+9999MW1101REMSYN088AAXX  08201 12825 41920 80000 11005 21018 30104 40291 50003 71022 8807/ 555 10091 /7579;
0161128250999992000010821004+47200+017500FM-12+0146LHPA V0200801N001019999999N0020001N1-00071-00171102921ADDAY121031AY221031GF108991081001999999071999MA1999999101051MD1210021+9999MW1101REMSYN072AAXX  08211 12825 41920 80801 11007 21017 30105 40292 52002 71022 8807/;
0177128250999992000010822004+47200+017500FM-12+0146LHPA V0200401N001019999999N0020001N1-00091-00171102931ADDAY121999AY221999GF108991081001999999071999MA1999999101061MD1310011+9999MW1101REMSYN088AAXX  08221 12825 41920 80401 11009 21017 30106 40293 53001 71022 8807/ 555 10094 /7580;
0177128250999992000010823004+47200+017500FM-12+0146LHPA V0209999C000019999999N0020001N1-00091-00161102911ADDAY121999AY221999GF108991081001999999071999MA1999999101041MD1010001+9999MW1101REMSYN088AAXX  08231 12825 41920 80000 11009 21016 30104 40291 50000 71022 8807/ 555 10095 /7579;
0191128250999992000010900004+47200+017500FM-12+0146LHPA V0201801N001019999999N0020001N1-00101-00161102881ADDAA106000091AY121061AY221061GF108991081001999999071999MA1999999101011MD1810041+9999MW1101REMSYN072AAXX  09001 12825 31920 81801 11010 21016 30101 40288 58004 71022 8807/;EQDQ01  00002PRCP06
0177128250999992000010901004+47200+017500FM-12+0146LHPA V0202001N001019999999N0020001N1-00081-00161102851ADDAY121999AY221999GF108991081001999999071999MA1999999100981MD1810081+9999MW1101REMSYN088AAXX  09011 12825 41920 82001 11008 21016 30098 40285 58008 71022 8807/ 555 10095 /7574;
0177128250999992000010902004+47200+017500FM-12+0146LHPA V0202001N002019999999N0020001N1-00051-00161102851ADDAY121999AY221999GF108991081001999999071999MA1999999100981MD1610061+9999MW1101REMSYN088AAXX  09021 12825 41920 82002 11005 21016 30098 40285 56006 71022 8807/ 555 10092 /7574;
0161128250999992000010903004+47200+017500FM-12+0146LHPA V0202001N002019999999N0015001N1-00061-00171102801ADDAY121031AY221031GF108991081001999999071999MA1999999100951MD1710091+9999MW1101REMSYN072AAXX  09031 12825 41915 82002 11006 21017 30095 40280 57009 71022 8807/;
0177128250999992000010904004+47200+017500FM-12+0146LHPA V0202201N002019999999N0010001N1-00081-00141102841ADDAY121999AY221999GF108991081001999999071999MA1999999100961MD1810021+9999MW1101REMSYN088AAXX  09041 12825 41910 82202 11008 21014 30096 40284 58002 71022 8807/ 555 10095 /7573;
0177128250999992000010905004+47200+017500FM-12+0146LHPA V0202301N002019999999N0010001N1-00081-00151102831ADDAY121999AY221999GF108991081001999999071999MA1999999100961MD1610021+9999MW1101REMSYN088AAXX  09051 12825 41910 82302 11008 21015 30096 40283 56002 71022 8807/ 555 10095 /7573;
0203128250999992000010908004+47200+017500FM-12+0146LHPA V0202201N002010030019N0010001N1-00071-00201102901ADDAY121999AY221999GA1081+003009079GF108991081061004501999999MA1999999101031MD1310071+9999MW1101REMSYN098AAXX  09081 12825 41410 82202 11007 21020 30103 40290 53007 71022 886// 333 88710 555 10091 /7578;
0187128250999992000010909004+47200+017500FM-12+0146LHPA V0202701N002010030019N0010001N1-00091-00171102921ADDAY121031AY221031GA1081+003009069GF108991081061004501999999MA1999999101051MD1110081+9999MW1101REMSYN082AAXX  09091 12825 41410 82702 11009 21017 30105 40292 51008 71022 886// 333 88710;
0203128250999992000010910004+47200+017500FM-12+0146LHPA V0202701N002010030019N0010001N1-00121-00171102911ADDAY121999AY221999GA1081+003009079GF108991081061004501999999MA1999999101041MD1010041+9999MW1101REMSYN098AAXX  09101 12825 41410 82702 11012 21017 30104 40291 50004 71022 886// 333 88710 555 10096 /7579;
0203128250999992000010911004+47200+017500FM-12+0146LHPA V0202901N002010030019N0010001N1-00131-00181102901ADDAY121999AY221999GA1081+003009079GF108991081061004501999999MA1999999101021MD1810011+9999MW1101REMSYN098AAXX  09111 12825 41410 82902 11013 21018 30102 40290 58001 71022 886// 333 88710 555 10097 /7577;
0217128250999992000010912004+47200+017500FM-12+0146LHPA V0202701N001010030019N0010001N1-00121-00151102861ADDAA106000091AY121061AY221061GA1081+003009069GF108991081061004501999999MA1999999100981MD1810071+9999MW1101REMSYN082AAXX  09121 12825 31410 82701 11012 21015 30098 40286 58007 71022 886// 333 88710;EQDQ01  00002PRCP06
0203128250999992000010913004+47200+017500FM-12+0146LHPA V0209999C000010018019N0006001N1-00101-00131102831ADDAY121999AY221999GA1081+001809079GF108991081061001501999999MA1999999100961MD1710081+9999MW1461REMSYN098AAXX  09131 12825 41206 80000 11010 21013 30096 40283 57008 74622 886// 333 88706 555 10098 /7573;
0203128250999992000010914004+47200+017500FM-12+0146LHPA V0209999C000010018019N0003001N1-00091-00121102841ADDAY141999AY241999GA1081+001809079GF108991081061001501999999MA1999999100971MD1510001+9999MW1461REMSYN098AAXX  09141 12825 41203 80000 11009 21012 30097 40284 55000 74644 886// 333 88706 555 10098 /7573;
0203128250999992000010916004+47200+017500FM-12+0146LHPA V0203301N001010018019N0003001N1-00121-00151102871ADDAY141999AY241999GA1081+001809079GF108991081061001501999999MA1999999101001MD1210041+9999MW1441REMSYN098AAXX  09161 12825 41203 83301 11012 21015 30100 40287 52004 74444 886// 333 88706 555 10098 /7576;
0203128250999992000010917004+47200+017500FM-12+0146LHPA V0203601N001010012019N0003001N1-00121-00151102881ADDAY141999AY241999GA1081+001209079GF108991081061001501999999MA1999999101011MD1210041+9999MW1441REMSYN098AAXX  09171 12825 41203 83601 11012 21015 30101 40288 52004 74444 886// 333 88704 555 10098 /7576;
0265128250999992000010918004+47200+017500FM-12+0146LHPA V0209999C000010012019N0003001N1-00131-00151102881ADDAA106000091AJ100079199999999AY141061AY221061GA1081+001209069GF108991081061001501999999IA1279KA1120M-00051MA1999999101011MD1110041+9999MW1441REMSYN094AAXX  09181 12825 31203 80000 11013 21015 30101 40288 51004 74442 886// 333 11005 43007 88704;EQDQ01  00002PRCP06
0203128250999992000010919004+47200+017500FM-12+0146LHPA V0201701N001010012019N0003001N1-00141-00161102941ADDAY141999AY241999GA1081+001209079GF108991081061001501999999MA1999999101071MD1210071+9999MW1441REMSYN098AAXX  09191 12825 41203 81701 11014 21016 30107 40294 52007 74444 886// 333 88704 555 10098 /7581;
0203128250999992000010920004+47200+017500FM-12+0146LHPA V0202301N001010012019N0003001N1-00141-00171102971ADDAY141999AY241999GA1081+001209079GF108991081061001501999999MA1999999101091MD1210081+9999MW1441REMSYN098AAXX  09201 12825 41203 82301 11014 21017 30109 40297 52008 74444 886// 333 88704 555 10098 /7582;
0187128250999992000010921004+47200+017500FM-12+0146LHPA V0202201N002010012019N0003001N1-00141-00221102981ADDAY141031AY241031GA1081+001209069GF108991081061001501999999MA1999999101101MD1110091+9999MW1441REMSYN082AAXX  09211 12825 41203 82202 11014 21022 30110 40298 51009 74444 886// 333 88704;
0203128250999992000010922004+47200+017500FM-12+0146LHPA V0202201N001010012019N0006001N1-00141-00251103011ADDAY141999AY241999GA1081+001209079GF108991081061001501999999MA1999999101131MD1210061+9999MW1441REMSYN098AAXX  09221 12825 41206 82201 11014 21025 30113 40301 52006 74444 886// 333 88704 555 10093 /7585;
0217128250999992000011000004+47200+017500FM-12+0146LHPA V0202101N001010012019N0006001N1-00161-00231103041ADDAA106000091AY141061AY241061GA1081+001209069GF108991081061001501999999MA1999999101161MD1210061+9999MW1441REMSYN082AAXX  10001 12825 31206 82101 11016 21023 30116 40304 52006 74444 886// 333 88704;EQDQ01  00002PRCP06
0203128250999992000011001004+47200+017500FM-12+0146LHPA V0202101N001010012019N0006001N1-00171-00201103081ADDAY141999AY241999GA1081+001209079GF108991081061001501999999MA1999999101201MD1310071+9999MW1441REMSYN098AAXX  10011 12825 41206 82101 11017 21020 30120 40308 53007 74444 886// 333 88704 555 10098 /7591;
0203128250999992000011002004+47200+017500FM-12+0146LHPA V0202001N002010012019N0006001N1-00191-00211103121ADDAY141999AY241999GA1081+001209079GF108991081061001501999999MA1999999101241MD1310101+9999MW1441REMSYN098AAXX  10021 12825 41206 82002 11019 21021 30124 40312 53010 74444 886// 333 88704 555 10098 /7594;
0187128250999992000011003004+47200+017500FM-12+0146LHPA V0202101N002010012019N0006001N1-00181-00201103121ADDAY141031AY241031GA1081+001209069GF108991081061001501999999MA1999999101241MD1110081+9999MW1441REMSYN082AAXX  10031 12825 41206 82102 11018 21020 30124 40312 51008 74444 886// 333 88704;
0203128250999992000011004004+47200+017500FM-12+0146LHPA V0203301N003010012019N0006001N1-00191-00211103171ADDAY141999AY241999GA1081+001209079GF108991081061001501999999MA1999999101291MD1210091+9999MW1441REMSYN098AAXX  10041 12825 41206 83303 11019 21021 30129 40317 52009 74444 886// 333 88704 555 10099 /7597;
0203128250999992000011005004+47200+017500FM-12+0146LHPA V0203301N003010012019N0006001N1-00221-00241103221ADDAY141999AY241999GA1081+001209079GF108991081061001501999999MA1999999101331MD1210091+9999MW1441REMSYN098AAXX  10051 12825 41206 83303 11022 21024 30133 40322 52009 74444 886// 333 88704 555 10099 /7600;
0279128250999992000011006004+47200+017500FM-12+0146LHPA V0203501N003010012019N0006001N1-00241-00261103271ADDAA106000091AJ100079199999999AY141061AY241061GA1081+001209069GF108991081061001501999999GJ100009IA1279KA1120N-00241MA1999999101381MD1210141+9999MW1441REMSYN100AAXX  10061 12825 31206 83503 11024 21026 30138 40327 52014 74444 886// 333 21024 43007 55000 88704;EQDQ01  00002PRCP06
0203128250999992000011007004+47200+017500FM-12+0146LHPA V0200301N002010012019N0006001N1-00231-00261103321ADDAY141999AY241999GA1081+001209079GF108991081061001501999999MA1999999101431MD1310141+9999MW1441REMSYN098AAXX  10071 12825 41206 80302 11023 21026 30143 40332 53014 74444 886// 333 88704 555 10098 /7608;
0203128250999992000011008004+47200+017500FM-12+0146LHPA V0200301N001010012019N0008001N1-00221-00251103381ADDAY141999AY241999GA1081+001209079GF108991081061001501999999MA1999999101491MD1310161+9999MW1421REMSYN098AAXX  10081 12825 41208 80301 11022 21025 30149 40338 53016 74244 886// 333 88704 555 10098 /7612;
0193128250999992000011009004+47200+017500FM-12+0146LHPA V0203401N00201036001CN0008001N1-00201-00241103351ADDAY141031AY241031GA1031+001209079GF108991031071001501021999MA1999999101471MD1210151+9999MW1711REMSYN088AAXX  10091 12825 41208 83402 11020 21024 30147 40335 52015 77144 8372/ 333 83704 88526;
0225128250999992000011010004+47200+017500FM-12+0146LHPA V0200101N001010078019N0010001N1-00161-00231103371ADDAY171999AY241999GA1011+001209079GA2081+007809059GF108991011071001501021999MA1999999101491MD1110131+9999MW1221REMSYN104AAXX  10101 12825 41210 80101 11016 21023 30149 40337 51013 72274 8172/ 333 81704 88526 555 10095 /7614;
0225128250999992000011011004+47200+017500FM-12+0146LHPA V0203601N001010078019N0010001N1-00111-00221103471ADDAY121999AY221999GA1011+001209079GA2081+007809059GF108991011071001501021999MA1999999101591MD1210101+9999MW1101REMSYN104AAXX  10111 12825 41210 83601 11011 21022 30159 40347 52010 71022 8172/ 333 81704 88526 555 10093 /7620;
0210128250999992000011012004+47200+017500FM-12+0146LHPA V0203301N00101036001CN0010001N1-00101-00171103481ADDAA106000791AY171061AY241061GA1021+001209079GF108991021071001501021999MA1999999101601MD1210051+9999MW1711REMSYN094AAXX  10121 12825 11210 83301 11010 21017 30160 40348 52005 69901 77174 8272/ 333 82704 88526;
0203128250999992000011013004+47200+017500FM-12+0146LHPA V0209999C000010012019N0010001N1-00041-00111103451ADDAY171999AY271999GA1081+001209079GF108991081061001501999999MA1999999101571MD1010011+9999MW1221REMSYN098AAXX  10131 12825 41210 80000 11004 21011 30157 40345 50001 72277 886// 333 88704 555 10095 /7618;
0203128250999992000011014004+47200+017500FM-12+0146LHPA V0201701N001010012019N0010001N1-00051-00131103471ADDAY121999AY221999GA1081+001209079GF108991081061001501999999MA1999999101591MD1410001+9999MW1101REMSYN098AAXX  10141 12825 41210 81701 11005 21013 30159 40347 54000 71022 886// 333 88704 555 10095 /7620;
0187128250999992000011015004+47200+017500FM-12+0146LHPA V0202501N001010012019N0010001N1-00081-00131103501ADDAY171031AY221031GA1081+001209069GF108991081061001501999999MA1999999101621MD1310021+9999MW1101REMSYN082AAXX  10151 12825 41210 82501 11008 21013 30162 40350 53002 71072 886// 333 88704;
0203128250999992000011016004+47200+017500FM-12+0146LHPA V0202401N001010012019N0010001N1-00081-00121103541ADDAY121999AY221999GA1081+001209079GF108991081061001501999999MA1999999101661MD1310091+9999MW1101REMSYN098AAXX  10161 12825 41210 82401 11008 21012 30166 40354 53009 71022 886// 333 88704 555 10097 /7625;
0203128250999992000011017004+47200+017500FM-12+0146LHPA V0202501N001010012019N0010001N1-00071-00121103571ADDAY121999AY221999GA1081+001209079GF108991081061001501999999MA1999999101691MD1210101+9999MW1101REMSYN098AAXX  10171 12825 41210 82501 11007 21012 30169 40357 52010 71022 886// 333 88704 555 10097 /7627;
0252128250999992000011018004+47200+017500FM-12+0146LHPA V0202701N001010012019N0010001N1-00061-00131103611ADDAA112000791AJ100079199999999AY171061AY221061GA1081+001209069GF108991081061001501999999IA1279KA1120M-00021MA1999999101731MD1210111+9999MW1101REMSYN100AAXX  10181 12825 11210 82701 11006 21013 30173 40361 52011 69902 71072 886// 333 11002 43007 88704;
0203128250999992000011019004+47200+017500FM-12+0146LHPA V0202501N001010012019N0015001N1-00081-00151103641ADDAY121999AY221999GA1081+001209079GF108991081061001501999999MA1999999101751MD1210091+9999MW1101REMSYN098AAXX  10191 12825 41215 82501 11008 21015 30175 40364 52009 71022 886// 333 88704 555 10095 /7632;
0203128250999992000011020004+47200+017500FM-12+0146LHPA V0201801N001010012019N0015001N1-00111-00161103671ADDAY121999AY221999GA1081+001209079GF108991081061001501999999MA1999999101781MD1210091+9999MW1101REMSYN098AAXX  10201 12825 41215 81801 11011 21016 30178 40367 52009 71022 886// 333 88704 555 10096 /7634;
0187128250999992000011021004+47200+017500FM-12+0146LHPA V0201901N001010024019N0015001N1-00121-00161103701ADDAY121031AY221031GA1081+002409069GF108991081061002501999999MA1999999101811MD1310081+9999MW1101REMSYN082AAXX  10211 12825 41315 81901 11012 21016 30181 40370 53008 71022 886// 333 88708;
0203128250999992000011022004+47200+017500FM-12+0146LHPA V0202101N001010024019N0015001N1-00121-00171103731ADDAY121999AY221999GA1081+002409079GF108991081061002501999999MA1999999101841MD1210091+9999MW1101REMSYN098AAXX  10221 12825 41315 82101 11012 21017 30184 40373 52009 71022 886// 333 88708 555 10097 /7639;
0161128250999992000011023004+47200+017500FM-12+0146LHPA V0209999C000019999999N0015001N1-00141-00181103701ADDAY121999AY221999GF106991061001999999071001MA1999999101821MD1210081+9999MW1101REMSYN072AAXX  10231 12825 41915 60000 11014 21018 30182 40370 52008 71022 86070;
0191128250999992000011100004+47200+017500FM-12+0146LHPA V0209999C000019999999N0015001N1-00201-00241103751ADDAA106000091AY121061AY221061GF106991061001999999071001MA1999999101861MD1210101+9999MW1101REMSYN072AAXX  11001 12825 31915 60000 11020 21024 30186 40375 52010 71022 86070;EQDQ01  00002PRCP06
0177128250999992000011101004+47200+017500FM-12+0146LHPA V0209999C000019999999N0015001N1-00201-00231103771ADDAY121999AY221999GF106991061001999999071001MA1999999101871MD1210031+9999MW1101REMSYN088AAXX  11011 12825 41915 60000 11020 21023 30187 40377 52003 71022 86070 555 10098 /7641;
0177128250999992000011102004+47200+017500FM-12+0146LHPA V0202001N001012200019N0010001N1-00311-00341103771ADDAY121999AY221999GF102991021001999999041001MA1999999101871MD1110021+9999MW1101REMSYN088AAXX  11021 12825 41910 22001 11031 21034 30187 40377 51002 71022 82040 555 10098 /7641;
0171128250999992000011103004+47200+017500FM-12+0146LHPA V0202101N001012200019N0006001N1-00451-00471103791ADDAY121031AY221031GA1001+999999999GF100991001001999999001001MA1999999101881MD1210021+9999MW1461REMSYN066AAXX  11031 12825 41906 02101 11045 21047 30188 40379 52002 74622;
0187128250999992000011104004+47200+017500FM-12+0146LHPA V0201701N001012200019N0006001N1-00571-00611103761ADDAY141999AY241999GA1001+999999999GF100991001001999999001001MA1999999101871MD1410001+9999MW1441REMSYN082AAXX  11041 12825 41906 01701 11057 21061 30187 40376 54000 74444 555 10097 /7640;
0187128250999992000011105004+47200+017500FM-12+0146LHPA V0202201N001012200019N0001001N1-00641-00701103851ADDAY141999AY241999GA1001+999999999GF100991001001999999001001MA1999999101921MD1310051+9999MW1461REMSYN082AAXX  11051 12825 41901 02201 11064 21070 30192 40385 53005 74644 555 10096 /7645;
0273128250999992000011106004+47200+017500FM-12+0146LHPA V0201901N001010006019N0000001N1-00601-00651103911ADDAA106000091AJ100079199999999AY141061AY221061GA1091+000609999GF109991091999999999999999GJ100009IA1279KA1120N-00671MA1999999101981MD1310101+9999MW1491REMSYN094AAXX  11061 12825 31/00 91901 11060 21065 30198 40391 53010 74942 333 21067 43007 55000 89/02;EQDQ01  00002PRCP06
0197128250999992000011107004+47200+017500FM-12+0146LHPA V0202001N001010006019N0000001N1-00551-00601103931ADDAY141999AY241999GA1091+000609999GF109991091999999999999999MA1999999102021MD1210121+9999MW1491REMSYN092AAXX  11071 12825 41/00 92001 11055 21060 30202 40393 52012 74944 333 89/02 555 10097 /7652;
0197128250999992000011108004+47200+017500FM-12+0146LHPA V0201901N001010006019N0000001N1-00521-00571103981ADDAY141999AY241999GA1091+000609999GF109991091999999999999999MA1999999102061MD1110141+9999MW1491REMSYN092AAXX  11081 12825 41/00 91901 11052 21057 30206 40398 51014 74944 333 89/02 555 10097 /7655;
0185128250999992000011109004+47200+017500FM-12+0146LHPA V0202801N001010006019N0000001N1-00501-00551104031ADDAY141031AY241031GA1091+000609999GF109991091999999999999999MD1310131+9999MW1491REMSYN076AAXX  11091 12825 41/00 92801 11050 21055 30021 40403 53013 74944 333 89/02;EQDQ01+100213APOSP 
0203128250999992000011110004+47200+017500FM-12+0146LHPA V0209999C000010360019N0006001N1-00391-00421104021ADDAY141999AY241999GA1031+001209079GF107991031061001501071999MA1999999102111MD1210091+9999MW1421REMSYN098AAXX  11101 12825 41206 70000 11039 21042 30211 40402 52009 74244 8367/ 333 83704 555 10097 /7659;
0203128250999992000011111004+47200+017500FM-12+0146LHPA V0203001N001010012019N0010001N1-00271-00301104001ADDAY141999AY241999GA1081+001209079GF108991081061001501999999MA1999999102091MD1010031+9999MW1281REMSYN098AAXX  11111 12825 41210 83001 11027 21030 30209 40400 50003 72844 886// 333 88704 555 10098 /7657;
0217128250999992000011112004+47200+017500FM-12+0146LHPA V0209999C000010012019N0010001N1-00281-00311103991ADDAA106000091AY141061AY241061GA1081+001209069GF108991081061001501999999MA1999999102081MD1710031+9999MW1101REMSYN082AAXX  11121 12825 31210 80000 11028 21031 30208 40399 57003 71044 886// 333 88704;EQDQ01  00002PRCP06
0203128250999992000011113004+47200+017500FM-12+0146LHPA V0209999V001010012019N0010001N1-00301-00331103991ADDAY121999AY221999GA1081+001209079GF108991081061001501999999MA1999999102081MD1610031+9999MW1101REMSYN098AAXX  11131 12825 41210 89901 11030 21033 30208 40399 56003 71022 886// 333 88704 555 10098 /7657;
0203128250999992000011114004+47200+017500FM-12+0146LHPA V0203601N001010012019N0010001N1-00301-00321104011ADDAY121999AY221999GA1081+001209079GF108991081061001501999999MA1999999102101MD1310011+9999MW1101REMSYN098AAXX  11141 12825 41210 83601 11030 21032 30210 40401 53001 71022 886// 333 88704 555 10098 /7658;
0187128250999992000011115004+47200+017500FM-12+0146LHPA V0209999C000010012019N0010001N1-00281-00311104001ADDAY121031AY221031GA1081+001209069GF108991081061001501999999MA1999999102091MD1210011+9999MW1101REMSYN082AAXX  11151 12825 41210 80000 11028 21031 30209 40400 52001 71022 886// 333 88704;
0203128250999992000011116004+47200+017500FM-12+0146LHPA V0209999C000010012019N0010001N1-00291-00351104021ADDAY121999AY221999GA1081+001209079GF108991081061001501999999MA1999999102111MD1210031+9999MW1101REMSYN098AAXX  11161 12825 41210 80000 11029 21035 30211 40402 52003 71022 886// 333 88704 555 10097 /7659;
0203128250999992000011117004+47200+017500FM-12+0146LHPA V0209999C000010012019N0010001N1-00281-00321104031ADDAY121999AY221999GA1081+001209079GF108991081061001501999999MA1999999102121MD1310031+9999MW1101REMSYN098AAXX  11171 12825 41210 80000 11028 21032 30212 40403 53003 71022 886// 333 88704 555 10098 /7660;
0265128250999992000011118004+47200+017500FM-12+0146LHPA V0200201N001010012019N0010001N1-00261-00291104051ADDAA106000091AJ100079199999999AY121061AY221061GA1081+001209069GF108991081061001501999999IA1279KA1120M-00261MA1999999102141MD1210051+9999MW1101REMSYN094AAXX  11181 12825 31210 80201 11026 21029 30214 40405 52005 71022 886// 333 11026 43007 88704;EQDQ01  00002PRCP06
0203128250999992000011119004+47200+017500FM-12+0146LHPA V0200701N001010012019N0010001N1-00241-00271104051ADDAY121999AY221999GA1081+001209079GF108991081061001501999999MA1999999102151MD1210041+9999MW1101REMSYN098AAXX  11191 12825 41210 80701 11024 21027 30215 40405 52004 71022 886// 333 88704 555 10098 /7662;
0203128250999992000011120004+47200+017500FM-12+0146LHPA V0209999C000010012019N0010001N1-00241-00271104041ADDAY121999AY221999GA1081+001209079GF108991081061001501999999MA1999999102141MD1010021+9999MW1101REMSYN098AAXX  11201 12825 41210 80000 11024 21027 30214 40404 50002 71022 886// 333 88704 555 10098 /7661;
0187128250999992000011121004+47200+017500FM-12+0146LHPA V0203401N001010012019N0010001N1-00281-00311104051ADDAY121031AY221031GA1081+001209069GF108991081061001501999999MA1999999102141MD1410001+9999MW1101REMSYN082AAXX  11211 12825 41210 83401 11028 21031 30214 40405 54000 71022 886// 333 88704;
0209128250999992000011122004+47200+017500FM-12+0146LHPA V0203601N001010012019N0006001N1-00261-00291103971ADDAY121999AY221999GA1081+001209079GF108991081061001501999999MA1999999102081MD1310011+9999MW1461REMSYN104AAXX  11221 12825 41206 83601 11026 21029 30208 40397 53001 74622 886// 333 88704 555 10098 99999 /7658;
0197128250999992000011123004+47200+017500FM-12+0146LHPA V0200101N001010003019N0001001N1-00251-00271104031ADDAY141999AY241999GA1091+000309999GF109991091999999999999999MA1999999102131MD1710011+9999MW1471REMSYN092AAXX  11231 12825 41/01 90101 11025 21027 30213 40403 57001 74744 333 89/01 555 10098 /7660;
0197128250999992000011201004+47200+017500FM-12+0146LHPA V0209999C000010003019N0001001N1-00271-00301103981ADDAY141999AY241999GA1091+000309999GF109991091999999999999999MA1999999102071MD1710091+9999MW1491REMSYN092AAXX  12011 12825 41/01 90000 11027 21030 30207 40398 57009 74944 333 89/01 555 10098 /7656;
0197128250999992000011202004+47200+017500FM-12+0146LHPA V0209999C000010003019N0001001N1-00281-00301103941ADDAY141999AY241999GA1091+000309999GF109991091999999999999999MA1999999102041MD1710091+9999MW1491REMSYN092AAXX  12021 12825 41/01 90000 11028 21030 30204 40394 57009 74944 333 89/01 555 10098 /7654;
0181128250999992000011203004+47200+017500FM-12+0146LHPA V0209999C000010003019N0001001N1-00301-00331103811ADDAY141031AY241031GA1091+000309999GF109991091999999999999999MA1999999101911MD1810151+9999MW1491REMSYN076AAXX  12031 12825 41/01 90000 11030 21033 30191 40381 58015 74944 333 89/01;
0197128250999992000011204004+47200+017500FM-12+0146LHPA V0209999C000010003019N0000001N1-00321-00331103841ADDAY141999AY241999GA1091+000309999GF109991091999999999999999MA1999999101941MD1510091+9999MW1491REMSYN092AAXX  12041 12825 41/00 90000 11032 21033 30194 40384 55009 74944 333 89/01 555 10099 /7647;
0197128250999992000011205004+47200+017500FM-12+0146LHPA V0209999C000010003019N0000001N1-00361-00391103881ADDAY141999AY241999GA1091+000309999GF109991091999999999999999MA1999999101971MD1610071+9999MW1491REMSYN092AAXX  12051 12825 41/00 90000 11036 21039 30197 40388 56007 74944 333 89/01 555 10098 /7648;
0273128250999992000011206004+47200+017500FM-12+0146LHPA V0200101N001010001519N0000001N1-00351-00381103901ADDAA106000091AJ100079199999999AY141061AY241061GA1091+000159999GF109991091999999999999999GJ100009IA1279KA1120N-00371MA1999999101991MD1510001+9999MW1491REMSYN094AAXX  12061 12825 31/00 90101 11035 21038 30199 40390 55000 74944 333 21037 43007 55000 89/00;EQDQ01  00002PRCP06
0197128250999992000011207004+47200+017500FM-12+0146LHPA V0200201N001010003019N0000001N1-00361-00391103921ADDAY141999AY241999GA1091+000309999GF109991091999999999999999MA1999999102011MD1310031+9999MW1491REMSYN092AAXX  12071 12825 41/00 90201 11036 21039 30201 40392 53003 74944 333 89/01 555 10098 /7651;
0197128250999992000011208004+47200+017500FM-12+0146LHPA V0201101N001010003019N0000001N1-00341-00371103941ADDAY141999AY241999GA1091+000309999GF109991091999999999999999MA1999999102031MD1210061+9999MW1491REMSYN092AAXX  12081 12825 41/00 91101 11034 21037 30203 40394 52006 74944 333 89/01 555 10098 /7653;
0181128250999992000011209004+47200+017500FM-12+0146LHPA V0201801N001010003019N0000001N1-00311-00341103861ADDAY141031AY241031GA1091+000309999GF109991091999999999999999MA1999999101971MD1210011+9999MW1491REMSYN076AAXX  12091 12825 41/00 91801 11031 21034 30197 40386 52001 74944 333 89/01;
0197128250999992000011210004+47200+017500FM-12+0146LHPA V0209999C000010003019N0000001N1-00321-00341103891ADDAY141999AY241999GA1091+000309999GF109991091999999999999999MA1999999101981MD1810031+9999MW1491REMSYN092AAXX  12101 12825 41/00 90000 11032 21034 30198 40389 58003 74944 333 89/01 555 10098 /7649;
0197128250999992000011211004+47200+017500FM-12+0146LHPA V0209999C000010003019N0000001N1-00311-00331103851ADDAY141999AY241999GA1091+000309999GF109991091999999999999999MA1999999101941MD1810091+9999MW1491REMSYN092AAXX  12111 12825 41/00 90000 11031 21033 30194 40385 58009 74944 333 89/01 555 10098 /7646;
0211128250999992000011212004+47200+017500FM-12+0146LHPA V0203101N001010009019N0001001N1-00261-00291103791ADDAA106000091AY141061AY241061GA1091+000909999GF109991091999999999999999MA1999999101891MD1810131+9999MW1491REMSYN076AAXX  12121 12825 31/01 93101 11026 21029 30189 40379 58013 74944 333 89/03;EQDQ01  00002PRCP06
0197128250999992000011214004+47200+017500FM-12+0146LHPA V0203401N001010009019N0001001N1-00331-00351103711ADDAY141999AY241999GA1091+000909999GF109991091999999999999999MA1999999101811MD1710131+9999MW1491REMSYN092AAXX  12141 12825 41/01 93401 11033 21035 30181 40371 57013 74944 333 89/03 555 10098 /7636;
0181128250999992000011215004+47200+017500FM-12+0146LHPA V0209999C000010009019N0002001N1-00301-00331103711ADDAY141031AY241031GA1091+000909999GF109991091999999999999999MA1999999101811MD1710021+9999MW1491REMSYN076AAXX  12151 12825 41/02 90000 11030 21033 30181 40371 57002 74944 333 89/03;
0203128250999992000011216004+47200+017500FM-12+0146LHPA V0200401N001010012019N0005001N1-00361-00401103671ADDAY141999AY241999GA1071+001209079GF107991071061001501999999MA1999999101761MD1710061+9999MW1481REMSYN098AAXX  12161 12825 41205 70401 11036 21040 30176 40367 57006 74844 876// 333 87704 555 10098 /7633;
0203128250999992000011217004+47200+017500FM-12+0146LHPA V0209999V001010012019N0005001N1-00381-00411103681ADDAY141999AY241999GA1081+001209079GF108991081061001501999999MA1999999101771MD1510041+9999MW1481REMSYN098AAXX  12171 12825 41205 89901 11038 21041 30177 40368 55004 74844 886// 333 88704 555 10098 /7633;
0265128250999992000011218004+47200+017500FM-12+0146LHPA V0209999C000010012019N0006001N1-00401-00441103661ADDAA106000091AJ100079199999999AY141061AY241061GA1081+001209069GF108991081061001501999999IA1279KA1120M-00191MA1999999101751MD1710031+9999MW1481REMSYN094AAXX  12181 12825 31206 80000 11040 21044 30175 40366 57003 74844 886// 333 11019 43007 88704;EQDQ01  00002PRCP06
0203128250999992000011219004+47200+017500FM-12+0146LHPA V0201401N001010012019N0006001N1-00501-00541103631ADDAY141011AY241011GA1061+001209079GF106991061061001501001001MA1999999101721MD1810041+9999MW1481REMSYN098AAXX  12191 12825 41206 61401 11050 21054 30172 40363 58004 74844 86600 333 86704 555 10097 /7630;
0187128250999992000011220004+47200+017500FM-12+0146LHPA V0201701N001012200019N0008001N1-00691-00761103631ADDAY141999AY241999GA1001+999999999GF100991001001999999001001MA1999999101701MD1710071+9999MW1481REMSYN082AAXX  12201 12825 41908 01701 11069 21076 30170 40363 57007 74844 555 10095 /7628;
0171128250999992000011221004+47200+017500FM-12+0146LHPA V0201401N002012200019N0008001N1-00731-00791103601ADDAY141031AY241031GA1001+999999999GF100991001001999999001001MA1999999101671MD1710081+9999MW1481REMSYN066AAXX  12211 12825 41908 01402 11073 21079 30167 40360 57008 74844;
0187128250999992000011222004+47200+017500FM-12+0146LHPA V0201501N002012200019N0008001N1-00671-00731103561ADDAY141999AY241999GA1001+999999999GF100991001001999999001001MA1999999101631MD1810091+9999MW1481REMSYN082AAXX  12221 12825 41908 01502 11067 21073 30163 40356 58009 74844 555 10095 /7623;
0187128250999992000011223004+47200+017500FM-12+0146LHPA V0201801N003012200019N0010001N1-00531-00591103521ADDAY141999AY241999GA1001+999999999GF100991001001999999001001MA1999999101611MD1710091+9999MW1281REMSYN082AAXX  12231 12825 41910 01803 11053 21059 30161 40352 57009 72844 555 10096 /7621;
0201128250999992000011300004+47200+017500FM-12+0146LHPA V0201701N005012200019N0010001N1-00511-00571103471ADDAA106000091AY141061AY221061GA1001+999999999GF100991001001999999001001MA1999999101561MD1710111+9999MW1101REMSYN066AAXX  13001 12825 31910 01705 11051 21057 30156 40347 57011 71042;EQDQ01  00002PRCP06
0193128250999992000011301004+47200+017500FM-12+0146LHPA V0201701N001012200019N0015001N1-00641-00711103441ADDAY101999AY201999GA1001+999999999GF100991001001999999001001MA1999999101531MD1710101+9999MW1101REMSYN088AAXX  13011 12825 41915 01701 11064 21071 30153 40344 57010 71000 555 10095 99999 /7616;
0193128250999992000011302004+47200+017500FM-12+0146LHPA V0209999C000012200019N0020001N1-00611-00681103431ADDAY101999AY201999GA1001+999999999GF100991001001999999001001MA1999999101531MD1610101+9999MW1101REMSYN088AAXX  13021 12825 41920 00000 11061 21068 30153 40343 56010 71000 555 10095 99999 /7616;
0171128250999992000011303004+47200+017500FM-12+0146LHPA V0201401N001012200019N0020001N1-00701-00771103401ADDAY101031AY201031GA1001+999999999GF100991001001999999001001MA1999999101491MD1810041+9999MW1101REMSYN066AAXX  13031 12825 41920 01401 11070 21077 30149 40340 58004 71000;
0203128250999992000011304004+47200+017500FM-12+0146LHPA V0201601N002010012019N0010001N1-00461-00501103351ADDAY111999AY211999GA1081+001209079GF108991081061001501999999MA1999999101441MD1710111+9999MW1101REMSYN098AAXX  13041 12825 41210 81602 11046 21050 30144 40335 57011 71011 886// 333 88704 555 10097 /7609;
0209128250999992000011305004+47200+017500FM-12+0146LHPA V0201601N005010012019N0015001N1-00351-00441103261ADDAY121999AY221999GA1081+001209079GF108991081061001501999999MA1999999101361MD1810131+9999MW1101REMSYN104AAXX  13051 12825 41215 81605 11035 21044 30136 40326 58013 71022 886// 333 88704 555 10093 55074 /7603;
0279128250999992000011306004+47200+017500FM-12+0146LHPA V0201801N004010012019N0020001N1-00361-00491103271ADDAA106000091AJ100079199999999AY111061AY211061GA1071+001209069GF107991071061001501999999GJ100009IA1279KA1120N-00781MA1999999101371MD1510111+9999MW1101REMSYN100AAXX  13061 12825 31220 71804 11036 21049 30137 40327 55011 71011 876// 333 21078 43007 55000 87704;EQDQ01  00002PRCP06
0203128250999992000011307004+47200+017500FM-12+0146LHPA V0201401N001010012019N0020001N1-00491-00591103271ADDAY121999AY221999GA1071+001209079GF107991071061001501999999MA1999999101361MD1710081+9999MW1101REMSYN098AAXX  13071 12825 41220 71401 11049 21059 30136 40327 57008 71022 876// 333 87704 555 10093 /7603;
0187128250999992000011309004+47200+017500FM-12+0146LHPA V0201401N005010021019N0020001N1-00231-00381103211ADDAY121031AY221031GA1071+002109069GF107991071061002501999999MA1999999101311MD1810061+9999MW1101REMSYN082AAXX  13091 12825 41320 71405 11023 21038 30131 40321 58006 71022 876// 333 87707;
0209128250999992000011310004+47200+017500FM-12+0146LHPA V0201401N005010021019N0020001N1-00171-00381103171ADDAY121999AY221999GA1071+002109079GF107991071061002501999999MA1999999101291MD1710071+9999MW1101REMSYN104AAXX  13101 12825 41320 71405 11017 21038 30129 40317 57007 71022 876// 333 87707 555 10085 55081 /7597;
0209128250999992000011311004+47200+017500FM-12+0146LHPA V0201501N004010021019N0020001N1-00141-00361103111ADDAY121999AY221999GA1071+002109079GF107991071061002501999999MA1999999101231MD1710121+9999MW1101REMSYN104AAXX  13111 12825 41320 71504 11014 21036 30123 40311 57012 71022 876// 333 87707 555 10085 55071 /7593;
0217128250999992000011312004+47200+017500FM-12+0146LHPA V0201501N004010021019N0020001N1-00151-00371103051ADDAA106000091AY121061AY221061GA1081+002109069GF108991081061002501999999MA1999999101161MD1810151+9999MW1101REMSYN082AAXX  13121 12825 31320 81504 11015 21037 30116 40305 58015 71022 886// 333 88707;EQDQ01  00002PRCP06
0209128250999992000011313004+47200+017500FM-12+0146LHPA V0201501N005010021019N0020001N1-00161-00371102981ADDAY121999AY221999GA1081+002109079GF108991081061002501999999MA1999999101101MD1710191+9999MW1101REMSYN104AAXX  13131 12825 41320 81505 11016 21037 30110 40298 57019 71022 886// 333 88707 555 10085 55064 /7583;
0203128250999992000011314004+47200+017500FM-12+0146LHPA V0201601N004010021019N0020001N1-00171-00401102941ADDAY121999AY221999GA1081+002109079GF108991081061002501999999MA1999999101061MD1610171+9999MW1101REMSYN098AAXX  13141 12825 41320 81604 11017 21040 30106 40294 56017 71022 886// 333 88707 555 10084 /7580;
0187128250999992000011315004+47200+017500FM-12+0146LHPA V0201501N004010021019N0020001N1-00171-00411102921ADDAY121031AY221031GA1081+002109069GF108991081061002501999999MA1999999101041MD1610121+9999MW1101REMSYN082AAXX  13151 12825 41320 81504 11017 21041 30104 40292 56012 71022 886// 333 88707;
0203128250999992000011316004+47200+017500FM-12+0146LHPA V0201601N004010021019N0020001N1-00171-00421102901ADDAY121999AY221999GA1081+002109079GF108991081061002501999999MA1999999101021MD1610081+9999MW1101REMSYN098AAXX  13161 12825 41320 81604 11017 21042 30102 40290 56008 71022 886// 333 88707 555 10083 /7577;
0203128250999992000011317004+47200+017500FM-12+0146LHPA V0201501N003010021019N0020001N1-00121-00451102901ADDAY121999AY221999GA1081+002109079GF108991081061002501999999MA1999999101021MD1610041+9999MW1101REMSYN098AAXX  13171 12825 41320 81503 11012 21045 30102 40290 56004 71022 886// 333 88707 555 10083 /7577;
0265128250999992000011318004+47200+017500FM-12+0146LHPA V0201501N003010021019N0020001N1-00191-00471102891ADDAA106000091AJ100079199999999AY121061AY221061GA1081+002109069GF108991081061002501999999IA1279KA1120M-00141MA1999999101011MD1710031+9999MW1101REMSYN094AAXX  13181 12825 31320 81503 11019 21047 30101 40289 57003 71022 886// 333 11014 43007 88707;EQDQ01  00002PRCP06
0203128250999992000011319004+47200+017500FM-12+0146LHPA V0201501N003010021019N0020001N1-00181-00431102871ADDAY121999AY221999GA1081+002109079GF108991081061002501999999MA1999999100991MD1810031+9999MW1101REMSYN098AAXX  13191 12825 41320 81503 11018 21043 30099 40287 58003 71022 886// 333 88707 555 10083 /7575;
0207128250999992000011320004+47200+017500FM-12+014699999V0201501N003010021019N0020001N1-00171-00411102861ADDAY121999AY221999GA1081+002109079GF108991081061002501999999MA1999999100981MD1710041+9999MW1101REMSYN102    AAXX  13201 12825 41320 81503 11017 21041 30098 40286 57004 71022 886// 333 88707 555 10084 /7574;
0191128250999992000011321004+47200+017500FM-12+014699999V0201601N002010021019N0020001N1-00171-00391102811ADDAY121031AY221031GA1081+002109069GF108991081061002501999999MA1999999100931MD1710081+9999MW1101REMSYN086    AAXX  13211 12825 41320 81602 11017 21039 30093 40281 57008 71022 886// 333 88707;
0207128250999992000011322004+47200+017500FM-12+014699999V0202001N003010021019N0020001N1-00171-00401102841ADDAY121999AY221999GA1081+002109079GF108991081061002501999999MA1999999100961MD1510031+9999MW1101REMSYN102    AAXX  13221 12825 41320 82003 11017 21040 30096 40284 55003 71022 886// 333 88707 555 10084 /7573;
0207128250999992000011323004+47200+017500FM-12+014699999V0201801N003010021019N0020001N1-00221-00411102801ADDAY121999AY221999GA1081+002109079GF108991081061002501999999MA1999999100921MD1710061+9999MW1101REMSYN102    AAXX  13231 12825 41320 81803 11022 21041 30092 40280 57006 71022 886// 333 88707 555 10087 /7570;
0221128250999992000011400004+47200+017500FM-12+014699999V0201401N003010021019N0020001N1-00231-00431102771ADDAA199000091AY121061AY221061GA1081+002109069GF108991081061002501999999MA1999999100891MD1810041+9999MW1101REMSYN086    AAXX  14001 12825 31320 81403 11023 21043 30089 40277 58004 71022 886// 333 88707;EQDQ01  00002PRCP99
0207128250999992000011401004+47200+017500FM-12+014699999V0201501N003010021019N0020001N1-00231-00431102771ADDAY121999AY221999GA1081+002109079GF108991081061002501999999MA1999999100901MD1610041+9999MW1101REMSYN102    AAXX  14011 12825 41320 81503 11023 21043 30090 40277 56004 71022 886// 333 88707 555 10086 /7569;
0207128250999992000011402004+47200+017500FM-12+014699999V0201501N003010021019N0020001N1-00251-00421102761ADDAY121999AY221999GA1081+002109079GF108991081061002501999999MA1999999100891MD1710031+9999MW1101REMSYN102    AAXX  14021 12825 41320 81503 11025 21042 30089 40276 57003 71022 886// 333 88707 555 10088 /7569;
0191128250999992000011403004+47200+017500FM-12+014699999V0201801N003010021019N0020001N1-00161-00341102731ADDAY121031AY221031GA1081+002109069GF108991081061002501999999MA1999999100861MD1810031+9999MW1101REMSYN086    AAXX  14031 12825 41320 81803 11016 21034 30086 40273 58003 71022 886// 333 88707;
0207128250999992000011404004+47200+017500FM-12+014699999V0201701N002010021019N0020001N1-00171-00331102681ADDAY121999AY221999GA1081+002109079GF108991081061002501999999MA1999999100821MD1710081+9999MW1101REMSYN102    AAXX  14041 12825 41320 81702 11017 21033 30082 40268 57008 71022 886// 333 88707 555 10089 /7563;
0207128250999992000011405004+47200+017500FM-12+014699999V0201701N003010021019N0020001N1-00131-00271102651ADDAY121999AY221999GA1081+002109079GF108991081061002501999999MA1999999100791MD1810101+9999MW1101REMSYN102    AAXX  14051 12825 41320 81703 11013 21027 30079 40265 58010 71022 886// 333 88707 555 10090 /7561;
0283128250999992000011406004+47200+017500FM-12+014699999V0201601N003010021019N0010001N1-00131-00241102711ADDAA199000091AJ100079199999999AY121061AY221061GA1081+002109069GF108991081061002501999999GJ100009IA1279KA1120N-00241MA1999999100841MD1510021+9999MW1101REMSYN104    AAXX  14061 12825 31310 81603 11013 21024 30084 40271 55002 71022 886// 333 21024 43007 55000 88707;EQDQ01  00002PRCP99
0207128250999992000011407004+47200+017500FM-12+014699999V0201601N003010021019N0015001N1-00131-00231102741ADDAY121999AY221999GA1081+002109079GF108991081061002501999999MA1999999100871MD1310041+9999MW1101REMSYN102    AAXX  14071 12825 41315 81603 11013 21023 30087 40274 53004 71022 886// 333 88707 555 10093 /7566;
0191128250999992000011409004+47200+017500FM-12+014699999V0201601N004010021019N0020001N1-00051-00231102811ADDAY121031AY221031GA1081+002109069GF108991081061002501999999MA1999999100941MD1210101+9999MW1101REMSYN086    AAXX  14091 12825 41320 81604 11005 21023 30094 40281 52010 71022 886// 333 88707;
0207128250999992000011410004+47200+017500FM-12+014699999V0201801N003010060019N0030001N1-00031-00241102831ADDAY121999AY221999GA1081+006009059GF108991081001008001021999MA1999999100951MD1210081+9999MW1101REMSYN102    AAXX  14101 12825 41530 81803 11003 21024 30095 40283 52008 71022 8802/ 333 88520 555 10086 /7572;
0181128250999992000011411004+47200+017500FM-12+014699999V0201701N003019999999N0040001N1-00011-00231102771ADDAY121999AY221999GF108991081001999999021999MA1999999100901MD1010011+9999MW1101REMSYN092    AAXX  14111 12825 41940 81703 11001 21023 30090 40277 50001 71022 8802/ 555 10085 /7568;
0195128250999992000011412004+47200+017500FM-12+014699999V0202101N002019999999N0040001N1+00011-00231102761ADDAA199000091AY121061AY221061GF108991081001999999021999MA1999999100901MD1710041+9999MW1101REMSYN076    AAXX  14121 12825 31940 82102 10001 21023 30090 40276 57004 71022 8802/;EQDQ01  00002PRCP99
0181128250999992000011413004+47200+017500FM-12+014699999V0202001N002019999999N0035001N1+00031-00211102741ADDAY121999AY221999GF108991081001999999021999MA1999999100881MD1710071+9999MW1101REMSYN092    AAXX  14131 12825 41935 82002 10003 21021 30088 40274 57007 71022 8802/ 555 10084 /7567;
0181128250999992000011414004+47200+017500FM-12+014699999V0201801N002019999999N0035001N1+00041-00241102741ADDAY121999AY221999GF108991081001999999021999MA1999999100881MD1710021+9999MW1101REMSYN092    AAXX  14141 12825 41935 81802 10004 21024 30088 40274 57002 71022 8802/ 555 10082 /7567;
0165128250999992000011415004+47200+017500FM-12+014699999V0201701N001019999999N0030001N1+00041-00251102761ADDAY121031AY221031GF108991081001999999021999MA1999999100901MD1510001+9999MW1101REMSYN076    AAXX  14151 12825 41930 81701 10004 21025 30090 40276 55000 71022 8802/;
0181128250999992000011416004+47200+017500FM-12+014699999V0201301N001019999999N0030001N1+00021-00241102781ADDAY121999AY221999GF108991081001999999021999MA1999999100921MD1310041+9999MW1101REMSYN092    AAXX  14161 12825 41930 81301 10002 21024 30092 40278 53004 71022 8802/ 555 10083 /7570;
0181128250999992000011417004+47200+017500FM-12+014699999V0209999V001019999999N0030001N1+00001-00201102811ADDAY121999AY221999GF108991081001999999021999MA1999999100941MD1210061+9999MW1101REMSYN092    AAXX  14171 12825 41930 89901 11000 21020 30094 40281 52006 71022 8802/ 555 10086 /7571;
0247128250999992000011418004+47200+017500FM-12+014699999V0201601N001019999999N0030001N1-00031-00261102861ADDAA199000091AJ100079199999999AY121061AY221061GF108991081001999999021999IA1279KA1120M+00051MA1999999100991MD1310091+9999MW1101REMSYN092    AAXX  14181 12825 31930 81601 11003 21026 30099 40286 53009 71022 8802/ 333 10005 43007;EQDQ01  00002PRCP99
0187128250999992000011419004+47200+017500FM-12+014699999V0201701N002019999999N0030001N1-00061-00251102801ADDAY121011AY221011GF108991081001999999021999MA1999999100941MD1210101+9999MW1101REMSYN098    AAXX  14191 12825 41930 81702 11006 21025 30094 40280 52010 71022 8802/ 555 10087 99999 /7572;
0181128250999992000011420004+47200+017500FM-12+014699999V0202101N001019999999N0030001N1-00071-00261102901ADDAY121999AY221999GF108991081001999999021999MA1999999101031MD1210091+9999MW1101REMSYN092    AAXX  14201 12825 41930 82101 11007 21026 30103 40290 52009 71022 8802/ 555 10087 /7578;
0191128250999992000011421004+47200+017500FM-12+014699999V0202201N001010030019N0020001N1-00111-00241102931ADDAY121031AY221031GA1081+003009069GF108991081061004501999999MA1999999101061MD1310071+9999MW1101REMSYN086    AAXX  14211 12825 41420 82201 11011 21024 30106 40293 53007 71022 886// 333 88710;
0213128250999992000011422004+47200+017500FM-12+014699999V0209999C000010030019N0020001N1-00111-00241102921ADDAY121999AY221999GA1081+003009079GF108991081061004501999999MA1999999101061MD1210121+9999MW1101REMSYN108    AAXX  14221 12825 41420 80000 11011 21024 30106 40292 52012 71022 886// 333 88710 555 10091 99999 /7581;
0207128250999992000011423004+47200+017500FM-12+014699999V0200801N001010030019N0020001N1-00121-00201102961ADDAY121999AY221999GA1081+003009079GF108991081061004501999999MA1999999101081MD1110051+9999MW1101REMSYN102    AAXX  14231 12825 41420 80801 11012 21020 30108 40296 51005 71022 886// 333 88710 555 10094 /7582;
0221128250999992000011500004+47200+017500FM-12+014699999V0200601N001010024019N0020001N1-00121-00181102951ADDAA199000091AY121061AY221061GA1081+002409069GF108991081061002501999999MA1999999101071MD1010011+9999MW1101REMSYN086    AAXX  15001 12825 31320 80601 11012 21018 30107 40295 50001 71022 886// 333 88708;EQDQ01  00002PRCP99
0207128250999992000011501004+47200+017500FM-12+014699999V0200801N001010024019N0020001N1-00141-00201102971ADDAY121999AY221999GA1081+002409079GF108991081061002501999999MA1999999101091MD1010021+9999MW1101REMSYN102    AAXX  15011 12825 41320 80801 11014 21020 30109 40297 50002 71022 886// 333 88708 555 10086 /7581;
0207128250999992000011502004+47200+017500FM-12+014699999V0203601N001010021019N0015001N1-00131-00161102961ADDAY121999AY221999GA1081+002109079GF108991081061002501999999MA1999999101081MD1410001+9999MW1101REMSYN102    AAXX  15021 12825 41315 83601 11013 21016 30108 40296 54000 71022 886// 333 88707 555 10097 /7582;
0191128250999992000011503004+47200+017500FM-12+014699999V0200201N001010021019N0015001N1-00131-00151102951ADDAY121031AY221031GA1081+002109069GF108991081061002501999999MA1999999101071MD1010001+9999MW1101REMSYN086    AAXX  15031 12825 41315 80201 11013 21015 30107 40295 50000 71022 886// 333 88707;
0207128250999992000011504004+47200+017500FM-12+014699999V0200101N001010021019N0015001N1-00121-00151102941ADDAY121999AY221999GA1081+002109079GF108991081061002501999999MA1999999101061MD1810021+9999MW1101REMSYN102    AAXX  15041 12825 41315 80101 11012 21015 30106 40294 58002 71022 886// 333 88707 555 10098 /7580;
0207128250999992000011505004+47200+017500FM-12+014699999V0203601N002010021019N0010001N1-00121-00141102951ADDAY121999AY221999GA1081+002109079GF108991081061002501999999MA1999999101071MD1510011+9999MW1101REMSYN102    AAXX  15051 12825 41310 83602 11012 21014 30107 40295 55001 71022 886// 333 88707 555 10098 /7581;
0276128250999992000011506004+47200+017500FM-12+014699999V0203401N002010021019N0006001N1-00131-00151102971ADDAA112000791AJ100079199999999AY141061AY221061GA1081+002109069GF108991081061002501999999GJ100009IA1279KA1120N-00131MA1999999101091MD1310021+9999MW1511REMSYN116    AAXX  15061 12825 11306 83402 11013 21015 30109 40297 53002 69902 75142 886// 333 21013 43007 55000 79999 88707;
0207128250999992000011507004+47200+017500FM-12+014699999V0203601N002010012019N0004001N1-00171-00191103011ADDAY151999AY241999GA1081+001209079GF108991081061001501999999MA1999999101131MD1310071+9999MW1461REMSYN102    AAXX  15071 12825 41204 83602 11017 21019 30113 40301 53007 74654 886// 333 88704 555 10099 /7585;
