0177143030999992000010106004+45050+013620FM-12+000899999V0200901N001012200019N0200001N1+00361+00021102501ADDAA106000091GF102991021081012501041001KA1999N+00351MD1410001+9999REMSYN082AAXX  01061 14303 32698 20901 10036 20002 40250 54000 82840 333 20035 92301 92418;EQDQ01  00002PRCP06
0138143030999992000010109004+45050+013620FM-12+000899999V0200901N002012200019N0000001N1+00561+00001102601ADDGA1001+999999999GF100991001001999999001001MD1210101+9999REMSYN070AAXX  01091 14303 42090 00902 10056 20000 40260 52010 333 92301 92418;
0158143030999992000010112004+45050+013620FM-12+000899999V0203201N003012200019N0200001N1+00741+00001102601ADDAA106000091GF103991031001017501001041MD1410001+9999REMSYN076AAXX  01121 14303 32798 33203 10074 20000 40260 54000 83004 333 92311 92418;EQDQ01  00002PRCP06
0118143030999992000010115004+45050+013620FM-12+000899999V0203401N004012200019N0200001N1+00761-00101102501ADDGF104991041001017501001041MD1710101+9999REMSYN066AAXX  01151 14303 42798 43404 10076 21010 40250 57010 84004 92312;
0177143030999992000010206004+45050+013620FM-12+000899999V0200701N002012200019N0200001N1+00481+00001102501ADDAA106000091GF104991041041012501071001KA1999N+00401MD1410001+9999REMSYN082AAXX  02061 14303 32698 40702 10048 20000 40250 54000 84470 333 20040 92301 92418;EQDQ01  00002PRCP06
0128143030999992000010209004+45050+013620FM-12+000899999V0200901N002019999999N0200001N1+00541+00001102701ADDGF107991071001012501071001MD1210201+9999REMSYN076AAXX  02091 14303 42698 70902 10054 20000 40270 52020 87070 333 92301 92418;
0158143030999992000010212004+45050+013620FM-12+000899999V0203201N003012200019N0200001N1+00741+00101102701ADDAA106000091GF101991011011012501021999MD1410001+9999REMSYN076AAXX  02121 14303 32698 13203 10074 20010 40270 54000 8112/ 333 92301 92418;EQDQ01  00002PRCP06
0138143030999992000010215004+45050+013620FM-12+000899999V0203401N003012200019N0200001N1+00801+00101102801ADDGA1001+999999999GF100991001001999999001001MD1210101+9999REMSYN070AAXX  02151 14303 42098 03403 10080 20010 40280 52010 333 92311 92418;
0177143030999992000010306004+45050+013620FM-12+000899999V0200901N002012200019N0200001N1+00481+00201103001ADDAA106000091GF104991041081012501041001KA1999N+00421MD1210101+9999REMSYN082AAXX  03061 14303 32698 40902 10048 20020 40300 52010 84840 333 20042 92301 92418;EQDQ01  00002PRCP06
0153143030999992000010309004+45050+013620FM-12+000899999V0201101N001019999999N0200001N1+00701+00301103001ADDGF108991001001999999001081MD1410001+9999REMSYN082AAXX  03091 14303 42698 81101 10070 20030 3//// 40300 54000 80008 333 92301 92418;EQDQ01+012502SCOLCB
0153143030999992000010315004+45050+013620FM-12+000899999V0203401N003010150019N0200001N1+00781+00401102801ADDGF108991999081012501041999MD1710101+9999REMSYN082AAXX  03151 14303 42698 83403 10078 20040 3//// 40280 57010 8884/ 333 92301 92418;EQDQ01+000082SCOTLC
0197143030999992000010406004+45050+013620FM-12+000899999V0200901N002019999999N0100001N1+00461+00301102501ADDAA106000091GF105991051001012501071001KA1999N+00351MD1410001+9999SA1+1109REMSYN094AAXX  04061 14303 32697 50902 10046 20030 40250 54000 85070 222// 00110 333 20035 92301 92417;EQDQ01  00002PRCP06
0156143030999992000010409004+45050+013620FM-12+000899999V0200901N002010075019N0040001N1+00541+00401102401ADDAY141031AY221031GF108991081061008001999999MD1710101+9999MW1101REMSYN082AAXX  04091 14303 41596 80902 10054 20040 40240 57010 71042 886// 333 92301 92416;
0186143030999992000010412004+45050+013620FM-12+000899999V0202901N001012200019N0040001N1+00741+00401102301ADDAA106000091AY121061AY211061GF104991041001017501071001MD1710101+9999MW1101REMSYN082AAXX  04121 14303 31796 42901 10074 20040 40230 57010 71021 84070 333 92301 92416;EQDQ01  00002PRCP06
0156143030999992000010415004+45050+013620FM-12+000899999V0203201N002019999999N0040001N1+00741+00401102201ADDAY121031AY221031GF105991051001012501071001MD1710101+9999MW1101REMSYN082AAXX  04151 14303 41696 53202 10074 20040 40220 57010 71022 85070 333 92301 92416;
0237143030999992000010506004+45050+013620FM-12+000899999V0200501N002019999999N0040001N1+00461+00301100221ADDAA106000091AY121061AY211061GF108991081001012501071001IA1119KA1999N+00401MD1410001+9999MW1101SA1+1089REMSYN106AAXX  05061 14303 31696 80502 10046 20030 3//// 40022 54000 71021 88070 222// 00108 333 20040 32301 92416;EQDQ01  00002PRCP06
0197143030999992000010509004+45050+013620FM-12+000899999V0200501N002012200019N0100001N1+00621+00301102302ADDAY111031AY201031GF101991001001999999001041MD1210101+9999MW1101REMSYN088AAXX  05091 14303 41797 10502 10062 20030 3//// 40230 52010 71010 80004 333 92301 92417;EQDQ01+017502SCOLCBQ02+102303APOSLP
0174143030999992000010512004+45050+013620FM-12+000899999V0203201N003012200019N0100001N1+00761+00201102201ADDAA106000091GA1001+999999999GF100991001001999999001001MD1710101+9999REMSYN076AAXX  05121 14303 32997 03203 10076 20020 3//// 40220 57010 333 92311 92417;EQDQ01  00002PRCP06
0144143030999992000010515004+45050+013620FM-12+000899999V0203201N003012200019N0100001N1+00881+00401102201ADDGA1001+999999999GF100991001001999999001001MD1410001+9999REMSYN076AAXX  05151 14303 42997 03203 10088 20040 3//// 40220 54000 333 92311 92417;
0235143030999992000010606004+45050+013620FM-12+000899999V0200501N002012200019N0040001N1+00581+00401102301ADDAA106000091AY101061AY201061GA1001+999999999GF100991001001999999001001KA1999N+00551MD1410001+9999MW1101SA1+1069REMSYN094AAXX  06061 14303 31996 00502 10058 20040 40230 54000 71000 222// 00106 333 20055 92301 92416;EQDQ01  00002PRCP06
0166143030999992000010609004+45050+013620FM-12+000899999V0200901N001012200019N0020001N1+00701+00501102401ADDAY101031AY201031GA1001+999999999GF100991001001999999001001MD1210101+9999MW1101REMSYN076AAXX  06091 14303 41995 00901 10070 20050 40240 52010 71000 333 92301 92415;
0196143030999992000010612004+45050+013620FM-12+000899999V0202701N002012200019N0040001N1+00901+00501102301ADDAA106000091AY101061AY201061GA1001+999999999GF100991001001999999001001MD1710101+9999MW1101REMSYN076AAXX  06121 14303 31996 02702 10090 20050 40230 57010 71000 333 92301 92418;EQDQ01  00002PRCP06
0156143030999992000010615004+45050+013620FM-12+000899999V0202501N001012200019N0020001N1+00781+00401102301ADDAY101031AY201031GF102991021001012501071001MD1410001+9999MW1101REMSYN082AAXX  06151 14303 41695 22501 10078 2004/ 40230 54000 71000 82070 333 92301 92415;
0215143030999992000010706004+45050+013620FM-12+000899999V0203601N002012200019N0020001N1+00621+00501102301ADDAA106000091AY141061AY241061GA1001+999999999GF100991001001999999001001KA1999N+00461MD1410001+9999MW1101REMSYN082AAXX  07061 14303 31095 03602 10062 20050 40230 54000 71044 333 20046 92301 92415;EQDQ01  00002PRCP06
0156143030999992000010709004+45050+013620FM-12+000899999V0203401N002012200019N0040001N1+00681+00501102401ADDAY141031AY211031GF103991031001017501001041MD1210101+9999MW1101REMSYN082AAXX  07091 14303 41796 33402 10068 20050 40240 52010 71041 83004 333 92301 92416;
0196143030999992000010712004+45050+013620FM-12+000899999V0203201N003012200019N0040001N1+00881+00501102401ADDAA106000091AY111061AY201061GA1001+999999999GF100991001001999999001001MD1410001+9999MW1101REMSYN076AAXX  07121 14303 31096 03203 10088 20050 40240 54000 71010 333 92301 91416;EQDQ01  00002PRCP06
0156143030999992000010715004+45050+013620FM-12+000899999V0203201N001012200019N0100001N1+01001+00601102401ADDAY111031AY211031GF103991031021017501001051MD1410001+9999MW1101REMSYN082AAXX  07151 14303 41797 33201 10100 20060 40240 54000 71011 83205 333 92301 92417;
0189143030999992000010806004+45050+013620FM-12+000899999V0200701N001019999999N0200001N1+00801+00301102401ADDAA106000091GF108991081001012501081999KA1999N+00651MD1410001+9999REMSYN094AAXX  08061 14303 32698 80701 10080 20030 3//// 40240 54000 8808/ 333 20065 92300 92408 00106;EQDQ01  00002PRCP06
0134143030999992000010809004+45050+013620FM-12+000899999V0200901N003010120019N0200001N1+00881+00501102501ADDGF107991071021012501091001MD1210101+9999REMSYN082AAXX  08091 14303 42698 70903 10088 20050 3//// 40250 52010 87290 333 92311 92418;
0192143030999992000010812004+45050+013620FM-12+000899999V0201601N003019999999N0020001N1+00981+00801102401ADDAA106000091AY121061AY221061GF108991081001012501071999MD1710101+9999MW1101REMSYN088AAXX  08121 14303 31695 81603 10098 20080 3//// 40240 57010 71022 8807/ 333 92311 92415;EQDQ01  00002PRCP06
0208143030999992000010815004+45050+013620FM-12+000899999V0202301N002010120019N0020001N1+00921+00701102401ADDAA106000091AY121031AY221031GF108991999021012501091999MD1410001+9999MW1101REMSYN088AAXX  08151 14303 31695 82302 10092 20070 3//// 40240 54000 71022 8829/ 333 92301 92415;EQDQ01+000082SCOTLCQ02  00002PRCP06
0186143030999992000010912004+45050+013620FM-12+000899999V0202901N002010150019N0040001N1+00861+00501102401ADDAA106000091AY121061AY221061GF108991081081012501999999MD1410001+9999MW1101REMSYN082AAXX  09121 14303 31696 82902 10086 20050 40240 54000 71022 888// 333 92300 92406;EQDQ01  00002PRCP06
0175143030999992000010915004+45050+013620FM-12+000899999V0203201N001010075019N0040001N1+00861+00501102301ADDAY161031AY211031GF108991999071008001021999MD1710101+9999MW1101REMSYN082AAXX  09151 14303 41596 83201 10086 20050 40230 57010 71061 8872/ 333 92300 92406;EQDQ01+000082SCOTLC
0218143030999992000011006004+45050+013620FM-12+000899999V0200901N001012200019N0100001N1+00621+00501102601ADDAA124000791AY121061AY211061GF103991031001008001071001KA1999N+00601MD1210101+9999MW1101SA1+1059REMSYN112AAXX  10061 14303 11597 30901 10062 20050 3//// 40260 52010 69904 71021 83070 222// 00105 333 20060 92300 92407;
0164143030999992000011012004+45050+013620FM-12+000899999V0203201N002010075019N0100001N1+00861+00501102701ADDAA106000091GF107991071021008001001001MD1210101+9999REMSYN082AAXX  10121 14303 32597 73202 10086 20050 3//// 40270 52010 87200 333 92311 92417;EQDQ01  00002PRCP06
0134143030999992000011015004+45050+013620FM-12+000899999V0203201N002010075019N0200001N1+00961+00601102801ADDGF107991071021008001001001MD1210101+9999REMSYN082AAXX  10151 14303 42598 73202 10096 20060 3//// 40280 52010 87200 333 92311 92418;
0207143030999992000011106004+45050+013620FM-12+000899999V0200501N002012200019N0200001N1+00541+00401103201ADDAA106000091GA1001+999999999GF100991001001999999001001KA1999N+00401MD1210101+9999SA1+1059REMSYN088AAXX  11061 14303 32998 00502 10054 20040 40320 52010 222// 00105 333 20040 92311 92418;EQDQ01  00002PRCP06
0147143030999992000011109004+45050+013620FM-12+000899999V0203601N002012200019N0200001N1+00641-00101103301ADDGF102991001001999999001041MD1210101+9999REMSYN076AAXX  11091 14303 42698 23602 10064 21010 40330 52010 80004 333 92311 92418;EQDQ01+012502SCOLCB
0158143030999992000011112004+45050+013620FM-12+000899999V0201501N005012200019N0200001N1+00861+00101103301ADDAA106000091GF103991001001999999001041MD1410001+9999REMSYN076AAXX  11121 14303 32998 31505 10086 20010 40330 54000 80004 333 92312 92428;EQDQ01  00002PRCP06
0187143030999992000011206004+45050+013620FM-12+000899999V0200501N003012200019N0200001N1+00421-00101103301ADDAA106000091GA1001+999999999GF100991001001999999001001KA1999N+00301MD1410001+9999REMSYN076AAXX  12061 14303 32098 00503 10042 21010 40330 54000 333 20030 92312 92428;EQDQ01  00002PRCP06
0138143030999992000011209004+45050+013620FM-12+000899999V0200501N003012200019N0200001N1+00541-00201103301ADDGA1001+999999999GF100991001001999999001001MD1410001+9999REMSYN070AAXX  12091 14303 42098 00503 10054 21020 40330 54000 333 92312 92428;
0128143030999992000011215004+45050+013620FM-12+000899999V0202901N002012200019N0200001N1+00701+00001103101ADDGF103991031001008001041001MD1710101+9999REMSYN076AAXX  12151 14303 42598 32902 10070 20000 40310 57010 83040 333 92311 92418;
0197143030999992000011306004+45050+013620FM-12+000899999V0201501N001010075019N0200001N1+00221-00101102801ADDAA106000091GF107991071041008001071001KA1999N+00101MD1710101+9999SA1+1049REMSYN094AAXX  13061 14303 32598 71501 10022 21010 40280 57010 87470 222// 00104 333 20010 92311 92418;EQDQ01  00002PRCP06
0134143030999992000011309004+45050+013620FM-12+000899999V0203601N001010075019N0200001N1+00341-00201102801ADDGF108991081021008001999999MD1410001+9999REMSYN082AAXX  13091 14303 42598 83601 10034 21020 3//// 40280 54000 882// 333 92311 92418;
0164143030999992000011312004+45050+013620FM-12+000899999V0202601N001010075019N0200001N1+00441-00101102601ADDAA106000091GF108991081051008001999999MD1710201+9999REMSYN082AAXX  13121 14303 32598 82601 10044 21010 3//// 40260 57020 885// 333 92311 92418;EQDQ01  00002PRCP06
0134143030999992000011315004+45050+013620FM-12+000899999V0203601N002010075019N0200001N1+00481-00101102501ADDGF108991081051008001999999MD1710101+9999REMSYN082AAXX  13151 14303 42598 83602 10048 21010 3//// 40250 57010 885// 333 92311 92418;
0201143030999992000011406004+45050+013620FM-12+000899999V0203601N002010075019N0200001N1+00621+00101102301ADDAA199000091GF108991081051008001999999KA1999N+00201MD1410001+9999SA1+1049REMSYN098    AAXX  14061 14303 32598 83602 10062 20010 40230 54000 885// 222// 00104 333 20020 92312 92428;EQDQ01  00002PRCP99
0138143030999992000011409004+45050+013620FM-12+000899999V0203601N004010075019N0200001N1+00681+00101102301ADDGF108991081051008001999999MD1410001+9999REMSYN086    AAXX  14091 14303 42598 83604 10068 20010 3//// 40230 54000 885// 333 92312 92428;
0162143030999992000011412004+45050+013620FM-12+000899999V0203601N004010075019N0200001N1+00801+00301102301ADDAA199000091GF108991081051008001999999MD1410001+9999REMSYN080    AAXX  14121 14303 32598 83604 10080 20030 40230 54000 885// 333 92323 92438;EQDQ01  00002PRCP99
0132143030999992000011415004+45050+013620FM-12+000899999V0203601N004010075019N0200001N1+00841+00301102201ADDGF107991071091008001061001MD1710101+9999REMSYN080    AAXX  14151 14303 42598 73604 10084 20030 40220 57010 87960 333 92323 92438;
0223143030999992000011506004+45050+013620FM-12+000899999V0203601N001012200019N0200001N1+00641+00401102301ADDAA199000091GF102991001001999999001041KA1999N+00251MD1410001+9999SA1+1059REMSYN104    AAXX  15061 14303 32698 23601 10064 20040 3//// 40230 54000 80004 222// 00105 333 20025 92312 92428;EQDQ01+012502SCOLCBQ02  00002PRCP99
0148143030999992000011509004+45050+013620FM-12+000899999V0203601N001012200019N0200001N1+00841+00501102301ADDGA1001+999999999GF100991001001999999001001MD1410001+9999REMSYN080    AAXX  15091 14303 42998 03601 10084 20050 3//// 40230 54000 333 92312 92428;
0178143030999992000011512004+45050+013620FM-12+000899999V0202901N003012200019N0200001N1+00881+00501102301ADDAA199000091GA1001+999999999GF100991001001999999001001MD1410001+9999REMSYN080    AAXX  15121 14303 32998 02903 10088 20050 3//// 40230 54000 333 92323 92438;EQDQ01  00002PRCP99
0148143030999992000011515004+45050+013620FM-12+000899999V0202901N002012200019N0200001N1+00941+00401102301ADDGA1001+999999999GF100991001001999999001001MD1410001+9999REMSYN080    AAXX  15151 14303 42998 02902 10094 20040 3//// 40230 54000 333 92312 92428;
0181143030999992000011606004+45050+013620FM-12+000899999V0200501N004010075019N0200001N1+00441-00101102401ADDAA199000091GF106991061041008001071001KA1999N+00301MD1210101+9999REMSYN086    AAXX  16061 14303 32598 60504 10044 21010 40240 52010 86470 333 20030 92322 92428;EQDQ01  00002PRCP99
0132143030999992000011609004+45050+013620FM-12+000899999V0200501N005010075019N0200001N1+00561+00001102501ADDGF105991051091008001061001MD1210101+9999REMSYN080    AAXX  16091 14303 42598 50505 10056 20000 40250 52010 85960 333 92322 92428;
0162143030999992000011612004+45050+013620FM-12+000899999V0200501N003012200019N0200001N1+00641-00101102601ADDAA199000091GF103991031001012501001041MD1210101+9999REMSYN080    AAXX  16121 14303 32698 30503 10064 21010 40260 52010 83004 333 92312 92428;EQDQ01  00002PRCP99
0142143030999992000011615004+45050+013620FM-12+000899999V0200501N004012200019N0200001N1+00641-00101102601ADDGA1001+999999999GF100991001001999999001001MD1410001+9999REMSYN074    AAXX  16151 14303 42098 00504 10064 21010 40260 54000 333 92322 92428;
0162143030999992000011812004+45050+013620FM-12+000899999V0200901N003019999999N0100001N1+00661+00301100201ADDAA199000091GF107991071001008001081001MD1710301+9999REMSYN080    AAXX  18121 14303 32597 70903 10066 20030 40020 57030 87080 333 92312 92427;EQDQ01  00002PRCP99
0132143030999992000011815004+45050+013620FM-12+000899999V0201101N002010120019N0200001N1+00761+00401100101ADDGF107991071081008001041001MD1710101+9999REMSYN080    AAXX  18151 14303 42598 71102 10076 20040 40010 57010 87840 333 92312 92428;
0211143030999992000011906004+45050+013620FM-12+000899999V0200501N003012200019N0200001N1+00741-00601101401ADDAA199000091GA1001+999999999GF100991001001999999001001KA1999N+00401MD1210201+9999SA1+1009REMSYN092    AAXX  19061 14303 32998 00503 10074 21060 40140 52020 222// 00100 333 20040 92312 92428;EQDQ01  00002PRCP99
0142143030999992000011909004+45050+013620FM-12+000899999V0203601N002012200019N0200001N1+00921-00301101601ADDGA1001+999999999GF100991001001999999001001MD1210201+9999REMSYN074    AAXX  19091 14303 42998 03602 10092 21030 40160 52020 333 92312 92428;
0172143030999992000011912004+45050+013620FM-12+000899999V0203201N003012200019N0200001N1+00961+00201101701ADDAA199000091GA1001+999999999GF100991001001999999001001MD1210101+9999REMSYN074    AAXX  19121 14303 32998 03203 10096 20020 40170 52010 333 92312 92428;EQDQ01  00002PRCP99
0138143030999992000011915004+45050+013620FM-12+000899999V0202501N002012200019N0200001N1+00981+00101101801ADDGA1001+999999999GF100991001001999999001001MD1210101+9999REMSYN070AAXX  19151 14303 42998 02502 10098 20010 40180 52010 333 92312 92428;
0144143030999992000012009004+45050+013620FM-12+000899999V0200501N003012200019N0200001N1+00681-00101102601ADDGA1001+999999999GF100991001001999999001001MD1210101+9999REMSYN076AAXX  20091 14303 42998 00503 10068 21010 3//// 40260 52010 333 92312 92428;
0180143030999992000012012004+45050+013620FM-12+000899999V0201101N003019999999N0200001N1+00941+00101102601ADDAA199000091GF106991001001999999001081MD1410001+9999REMSYN082AAXX  20121 14303 32698 61103 10094 20010 3//// 40260 54000 80008 333 92312 92428;EQDQ01+012502SCOLCBQ02  00002PRCP99
0134143030999992000012015004+45050+013620FM-12+000899999V0201601N003010075019N0200001N1+00881+00101102401ADDGF108991081041008001001001MD1710201+9999REMSYN082AAXX  20151 14303 42598 81603 10088 20010 3//// 40240 57020 88400 333 92322 92428;
0207143030999992000012106004+45050+013620FM-12+000899999V0202501N003012200019N0200001N1+00661+00201101601ADDAA199000091GA1001+999999999GF100991001001999999001001KA1999N+00421MD1710201+9999SA1+1029REMSYN088AAXX  21061 14303 32998 02503 10066 20020 40160 57020 222// 00102 333 20042 92312 92428;EQDQ01  00002PRCP99
0144143030999992000012109004+45050+013620FM-12+000899999V0202501N003012200019N0200001N1+00681+00101101501ADDGA1001+999999999GF100991001001999999001001MD1710101+9999REMSYN076AAXX  21091 14303 42998 02503 10068 20010 3//// 40150 57010 333 92312 92428;
0168143030999992000012112004+45050+013620FM-12+000899999V0202501N002012200019N0100001N1+00461+00201101301ADDAA199000091GA1001+999999999GF100991001001999999001001MD1710201+9999REMSYN070AAXX  21121 14303 32997 02502 10046 20020 40130 57020 333 92312 92427;EQDQ01  00002PRCP99
0138143030999992000012115004+45050+013620FM-12+000899999V0202001N001012200019N0100001N1+00741+00201101201ADDGA1001+999999999GF100991001001999999001001MD1710101+9999REMSYN070AAXX  21151 14303 42997 02001 10074 20020 40120 57010 333 92311 92417;
0187143030999992000012206004+45050+013620FM-12+000899999V0200501N004012200019N0200001N1+00361-00201101501ADDAA199000091GA1001+999999999GF100991001001999999001001KA1999N+00201MD1410001+9999REMSYN076AAXX  22061 14303 32098 00504 10036 21020 40150 54000 333 20020 92323 92438;EQDQ01  00002PRCP99
0128143030999992000012209004+45050+013620FM-12+000899999V0202501N004010075019N0200001N1+00421-00101101601ADDGF108991081021008001001001MD1210101+9999REMSYN076AAXX  22091 14303 42598 82504 10042 21010 40160 52010 88200 333 92323 92438;
0158143030999992000012212004+45050+013620FM-12+000899999V0200901N005010075019N0200001N1+00601+00001101401ADDAA199000091GF107991071041008001041001MD1710201+9999REMSYN076AAXX  22121 14303 32598 70905 10060 20000 40140 57020 87440 333 92323 92438;EQDQ01  00002PRCP99
0128143030999992000012215004+45050+013620FM-12+000899999V0200901N005010075019N0200001N1+00601+00001101101ADDGF108991081051008001999999MD1710301+9999REMSYN076AAXX  22151 14303 42598 80905 10060 20000 40110 57030 885// 333 92323 92438;
0128143030999992000012309004+45050+013620FM-12+000899999V0203401N004019999999N0200001N1+00661+00101100101ADDGF107991071001008001071001MD1210201+9999REMSYN076AAXX  23091 14303 42598 73404 10066 20010 40010 52020 87070 333 92323 92438;
0158143030999992000012312004+45050+013620FM-12+000899999V0203401N005010075019N0200001N1+00921+00101100101ADDAA199000091GF105991051041008001001999MD1410001+9999REMSYN076AAXX  23121 14303 32598 53405 10092 20010 40010 54000 8540/ 333 92323 92438;EQDQ01  00002PRCP99
0128143030999992000012315004+45050+013620FM-12+000899999V0203601N005012200019N0200001N1+00861+00001100301ADDGF104991041081008001041001MD1210201+9999REMSYN076AAXX  23151 14303 42598 43605 10086 20000 40030 52020 84840 333 92323 92438;
0197143030999992000012406004+45050+013620FM-12+000899999V0200501N004010075019N0200001N1+00201-00501101001ADDAA199000091GF107991071011008001001001KA1999N+00061MD1210101+9999SA1+0959REMSYN094AAXX  24061 14303 32598 70504 10020 21050 40100 52010 87100 222// 00095 333 20006 92312 92428;EQDQ01  00002PRCP99
0128143030999992000012409004+45050+013620FM-12+000899999V0200501N003010075019N0200001N1+00221-00701101301ADDGF107991071041008001071001MD1210301+9999REMSYN076AAXX  24091 14303 42598 70503 10022 21070 40130 52030 87470 333 92312 92428;
0158143030999992000012412004+45050+013620FM-12+000899999V0203601N006012200019N0200001N1+00201-01001101401ADDAA199000091GF104991041081008001041001MD1210101+9999REMSYN076AAXX  24121 14303 32598 43606 10020 21100 40140 52010 84840 333 92323 92438;EQDQ01  00002PRCP99
0138143030999992000012415004+45050+013620FM-12+000899999V0203601N005012200019N0200001N1+00241-01201101601ADDGA1001+999999999GF100991001001999999001001MD1210201+9999REMSYN070AAXX  24151 14303 42998 03605 10024 21120 40160 52020 333 92323 92438;
0207143030999992000012506004+45050+013620FM-12+000899999V0200501N002012200019N0200001N1-00221-00801102401ADDAA199000091GA1001+999999999GF100991001001999999001001KA1999N-00321MD1210101+9999SA1+0929REMSYN088AAXX  25061 14303 32998 00502 11022 21080 40240 52010 222// 00092 333 21032 92311 92418;EQDQ01  00002PRCP99
0144143030999992000012509004+45050+013620FM-12+000899999V0200701N003012200019N0200001N1-00081-00801102801ADDGA1001+999999999GF100991001001999999001001MD1210401+9999REMSYN076AAXX  25091 14303 42998 00703 11008 21080 3//// 40280 52040 333 92311 92418;
0174143030999992000012512004+45050+013620FM-12+000899999V0200901N002012200019N0200001N1+00161-00901102701ADDAA199000091GA1001+999999999GF100991001001999999001001MD1710101+9999REMSYN076AAXX  25121 14303 32998 00902 10016 21090 3//// 40270 57010 333 92311 92418;EQDQ01  00002PRCP99
0134143030999992000012515004+45050+013620FM-12+000899999V0202501N001012200019N0200001N1+00321-00601102701ADDGF101991011011008001001001MD1410001+9999REMSYN082AAXX  25151 14303 42598 12501 10032 21060 3//// 40270 54000 81100 333 92311 92418;
0193143030999992000012606004+45050+013620FM-12+000899999V0200501N003012200019N0200001N1-00181-00501103001ADDAA199000091GA1001+999999999GF100991001001999999001001KA1999N-00381MD1410001+9999REMSYN082AAXX  26061 14303 32998 00503 11018 21050 40300 54000 333 21038 92311 92418 00086;EQDQ01  00002PRCP99
0138143030999992000012609004+45050+013620FM-12+000899999V0203601N003012200019N0200001N1+00161-00501103101ADDGA1001+999999999GF100991001001999999001001MD1210101+9999REMSYN070AAXX  26091 14303 42998 03603 10016 21050 40310 52010 333 92312 92428;
0168143030999992000012612004+45050+013620FM-12+000899999V0203201N004012200019N0200001N1+00281-00401103101ADDAA199000091GA1001+999999999GF100991001001999999001001MD1410001+9999REMSYN070AAXX  26121 14303 32998 03204 10028 21040 40310 54000 333 92312 92428;EQDQ01  00002PRCP99
0138143030999992000012615004+45050+013620FM-12+000899999V0203201N001012200019N0200001N1+00321-00401103001ADDGA1001+999999999GF100991001001999999001001MD1710101+9999REMSYN070AAXX  26151 14303 42998 03201 10032 21040 40300 57010 333 92312 92428;
0138143030999992000012709004+45050+013620FM-12+000899999V0202901N003012200019N0100001N1+00381+00001103201ADDGA1001+999999999GF100991001001999999001001MD1410001+9999REMSYN070AAXX  27091 14303 42097 02903 10038 20000 40320 54000 333 92312 92427;
0168143030999992000012712004+45050+013620FM-12+000899999V0202701N003012200019N0100001N1+00501-00101103101ADDAA199000091GA1001+999999999GF100991001001999999001001MD1710101+9999REMSYN070AAXX  27121 14303 32097 02703 10050 21010 40310 57010 333 92311 92417;EQDQ01  00002PRCP99
0138143030999992000012715004+45050+013620FM-12+000899999V0202701N002012200019N0100001N1+00541-00201102901ADDGA1001+999999999GF100991001001999999001001MD1710201+9999REMSYN070AAXX  27151 14303 42097 02702 10054 21020 40290 57020 333 92311 92417;
0206143030999992000012806004+45050+013620FM-12+000899999V0201401N003010075019N0100001N1+00461+00101102501ADDAA199000021AY121061AY201061GF108991999071008001021999MD1710101+9999MW1611SA1+0909REMSYN094AAXX  28061 14303 31597 81403 10046 20010 40250 57010 76120 8872/ 222// 00090 333 92311 92417;EQDQ01+000082SCOTLC
0128143030999992000012809004+45050+013620FM-12+000899999V0201101N003010075019N0100001N1+00581+00201102501ADDGF108991081051008001999999MD1410001+9999REMSYN076AAXX  28091 14303 42597 81103 10058 20020 40250 54000 885// 333 92311 92417;
0139143030999992000012812004+45050+013620FM-12+000899999V0200901N002010075019N0100001N1+00721+00401102401ADDAA199000021GF108991081051008001999999MD1710101+9999REMSYN076AAXX  28121 14303 32597 80902 10072 20040 40240 57010 885// 333 92311 92417;
0139143030999992000012815004+45050+013620FM-12+000899999V0203201N001012200019N0200001N1+00801+00301102301ADDAA199000021GF101991011011012501021999MD1710101+9999REMSYN076AAXX  28151 14303 32698 13201 10080 20030 40230 57010 8112/ 333 92301 92418;
0184143030999992000012906004+45050+013620FM-12+000899999V0203601N003010075019N0200001N1+00601+00301102001ADDAA124000791GF108991081061008001999999KA1999N+00501MD1710101+9999SA1+0889REMSYN100AAXX  29061 14303 12598 83603 10060 20030 40200 57010 69904 886// 222// 00088 333 20050 92311 92418;
0128143030999992000012909004+45050+013620FM-12+000899999V0202901N003010075019N0100001N1+00661+00301102001ADDGF108991081051008001999999MD1410001+9999REMSYN076AAXX  29091 14303 42597 82903 10066 20030 40200 54000 885// 333 92311 92417;
0211143030999992000013006004+45050+013620FM-12+000899999V0202501N002010075019N0020001N1+00641+00301101401ADDAA199000091AY121061AY221061GF108991081061008001999999KA1999N+00601MD1710101+9999MW1101REMSYN094AAXX  30061 14303 31595 82502 10064 20030 3//// 40140 57010 71022 886// 333 20060 92312 92425;EQDQ01  00002PRCP99
0162143030999992000013009004+45050+013620FM-12+000899999V0202301N002019999999N0020001N1+00701+00301101501ADDAY121031AY221031GF107991071001012501071001MD1210101+9999MW1101REMSYN088AAXX  30091 14303 41695 72302 10070 20030 3//// 40150 52010 71022 87070 333 92311 92415;
0181143030999992000013015004+45050+013620FM-12+000899999V0202701N002012200019N0020001N1+00721+00401101701ADDAY111031AY201031GF102991001001999999001071MD1210101+9999MW1101REMSYN088AAXX  30151 14303 41795 22702 10072 20040 3//// 40170 52010 71010 80007 333 92311 92415;EQDQ01+017502SCOLCB
0247143030999992000013106004+45050+013620FM-12+000899999V0203301N999990075019N0040001N1+00761+00601102301ADDAA199000091AY121061AY221061GF106991061061008001999999KA1999N+00501MD1210101+9999MW1101SA1+0889REMSYN106AAXX  31061 14303 31596 63360 10076 20060 3//// 40230 52010 71022 866// 222// 00088 333 20050 92301 92416;EQDQ01+006003WOSPD Q02  00002PRCP99
0156143030999992000013109004+45050+013620FM-12+000899999V0201101N001012200019N0020001N1+00901+00701102401ADDAY121031AY221031GF104991041001012501071001MD1210101+9999MW1101REMSYN082AAXX  31091 14303 41695 41101 10090 20070 40240 52010 71022 84070 333 92301 92415;
0186143030999992000013112004+45050+013620FM-12+000899999V0202901N002019999999N0020001N1+00921+00701102401ADDAA199000091AY121061AY221061GF108991081001012501071999MD1410001+9999MW1101REMSYN082AAXX  31121 14303 31695 82902 10092 20070 40240 54000 71022 8807/ 333 92301 92415;EQDQ01  00002PRCP99
0166143030999992000013115004+45050+013620FM-12+000899999V0200901N001012200019N0020001N1+00901+00701102401ADDAY121031AY211031GA1001+999999999GF100991001001999999001001MD1410001+9999MW1101REMSYN076AAXX  31151 14303 41995 00901 10090 20070 40240 54000 71021 333 92301 92415;
0225143030999992000020106004+45050+013620FM-12+000899999V0200501N001010075019N0020001N1+00821+00701102801ADDAA199000091AY121061AY221061GF108991081051008001999999KA1999N+00681MD1410001+9999MW1101SA1+0909REMSYN100AAXX  01061 14303 31595 80501 10082 20070 40280 54000 71022 885// 222// 00090 333 20068 92311 92416;EQDQ01  00002PRCP99
0192143030999992000020112004+45050+013620FM-12+000899999V0202901N002010075019N0005001N1+00801+00701102801ADDAA199000091AY141061AY241061GF108991081051008001999999MD1710101+9999MW1121REMSYN088AAXX  01121 14303 31593 82902 10080 20070 3//// 40280 57010 71244 885// 333 92312 92423;EQDQ01  00002PRCP99
0162143030999992000020115004+45050+013620FM-12+000899999V0202701N002010075019N0005001N1+00701+00601102801ADDAY141031AY221031GF108991081051008001999999MD1410001+9999MW1121REMSYN088AAXX  01151 14303 41593 82702 10070 20060 3//// 40280 54000 71242 885// 333 92312 92423;
0206143030999992000020206004+45050+013620FM-12+000899999V0200901N002010075019N0020001N1+00721+00601102301ADDAA199000091AY141061AY221061GF108991081051008001999999MD1710201+9999MW1101SA1+0889REMSYN094AAXX  02061 14303 31595 80902 10072 20060 40230 57020 71042 885// 222// 00088 333 92311 92415;EQDQ01  00002PRCP99
0156143030999992000020209004+45050+013620FM-12+000899999V0203601N002010075019N0020001N1+00781+00701102301ADDAY121031AY221031GF108991081051008001999999MD1410001+9999MW1101REMSYN082AAXX  02091 14303 41595 83602 10078 20070 40230 54000 71022 885// 333 92301 92415;
0186143030999992000020212004+45050+013620FM-12+000899999V0201101N001010075019N0020001N1+00941+00801102201ADDAA199000091AY121061AY221061GF108991081051008001999999MD1710101+9999MW1101REMSYN082AAXX  02121 14303 31595 81101 10094 20080 40220 57010 71022 885// 333 92301 92415;EQDQ01  00002PRCP99
0156143030999992000020215004+45050+013620FM-12+000899999V0201801N002010075019N0040001N1+00961+00901102001ADDAY121031AY221031GF108991081051008001999999MD1710201+9999MW1101REMSYN082AAXX  02151 14303 41596 81802 10096 20090 40200 57020 71022 885// 333 92412 92426;
0186143030999992000020312004+45050+013620FM-12+000899999V0203401N003010075019N0010001N1+00801+00701102401ADDAA199000091AY141061AY221061GF108991081051008001999999MD1210101+9999MW1121REMSYN082AAXX  03121 14303 31594 83403 10080 20070 40240 52010 71242 885// 333 92312 92424;EQDQ01  00002PRCP99
0156143030999992000020315004+45050+013620FM-12+000899999V0203401N003010075019N0010001N1+00741+00601102501ADDAY141031AY221031GF108991081051008001999999MD1210101+9999MW1121REMSYN082AAXX  03151 14303 41594 83403 10074 20060 40250 52010 71242 885// 333 92312 92424;
0194143030999992000020406004+45050+013620FM-12+000899999V0200901N002012200019N0200001N1+00561+00501103501ADDAA124000391GA1001+999999999GF100991001001999999001001KA1999N+00501MD1210201+9999SA1+0859REMSYN094AAXX  04061 14303 12998 00902 10056 20050 40350 52020 69934 222// 00085 333 20050 92301 92418;
0144143030999992000020409004+45050+013620FM-12+000899999V0203601N002012200019N0200001N1+00881+00701103701ADDGA1001+999999999GF100991001001999999001001MD1210201+9999REMSYN076AAXX  04091 14303 42998 03602 10088 20070 3//// 40370 52020 333 92301 92418;
0174143030999992000020412004+45050+013620FM-12+000899999V0203201N003012200019N0200001N1+00921+00701103801ADDAA199000091GA1001+999999999GF100991001001999999001001MD1210101+9999REMSYN076AAXX  04121 14303 32998 03203 10092 20070 3//// 40380 52010 333 92311 92418;EQDQ01  00002PRCP99
0144143030999992000020415004+45050+013620FM-12+000899999V0202901N003012200019N0100001N1+00801+00701103701ADDGA1001+999999999GF100991001001999999001001MD1710101+9999REMSYN076AAXX  04151 14303 42997 02903 10080 20070 3//// 40370 57010 333 92312 92427;
0191143030999992000020506004+45050+013620FM-12+000899999V0203601N001019999999N0200001N1+00441+00301103501ADDAA199000091GF106991999999012501999999KA1999N+00401MD1410001+9999SA1+0849REMSYN088AAXX  05061 14303 32698 63601 10044 20030 40350 54000 222// 00084 333 20040 92301 92418;EQDQ01  00002PRCP99
0156143030999992000020509004+45050+013620FM-12+000899999V0203201N002010075019N0040001N1+00641+00501103401ADDAY121031AY221031GF107991071051008001001001MD1710101+9999MW1101REMSYN082AAXX  05091 14303 41596 73202 10064 20050 40340 57010 71022 87500 333 92301 92416;
0202143030999992000020512004+45050+013620FM-12+000899999V0202901N003019999999N0040001N1+00621+00501103401ADDAA199000091AY121061AY221061GF107991999051008001999999MD1410001+9999MW1101REMSYN082AAXX  05121 14303 31596 72903 10062 20050 40340 54000 71022 885// 333 92311 92416;EQDQ01+000082SCOTLCQ02  00002PRCP99
0156143030999992000020515004+45050+013620FM-12+000899999V0202901N003010075019N0040001N1+00601+00501103301ADDAY121031AY221031GF108991081051008001999999MD1710101+9999MW1101REMSYN082AAXX  05151 14303 41596 82903 10060 20050 40330 57010 71022 885// 333 92312 92426;
0231143030999992000020606004+45050+013620FM-12+000899999V0203601N003010042019N0010001N1+00541+00401103101ADDAA199000091AY141061AY221061GF108991081051004501999999KA1999N+00461MD1410001+9999MW1121SA1+0839REMSYN106AAXX  06061 14303 31494 83603 10054 20040 3//// 40310 54000 71242 885// 222// 00083 333 20046 92312 92424;EQDQ01  00002PRCP99
0162143030999992000020609004+45050+013620FM-12+000899999V0203401N003010042019N0005001N1+00521+00401103001ADDAY141031AY221031GF108991081051004501999999MD1710101+9999MW1121REMSYN088AAXX  06091 14303 41493 83403 10052 20040 3//// 40300 57010 71242 885// 333 92312 92423;
0192143030999992000020612004+45050+013620FM-12+000899999V0203601N003010075019N0020001N1+00561+00501102901ADDAA199000091AY141061AY221061GF108991081051008001999999MD1710101+9999MW1101REMSYN088AAXX  06121 14303 31595 83603 10056 20050 3//// 40290 57010 71042 885// 333 92312 92425;EQDQ01  00002PRCP99
0162143030999992000020615004+45050+013620FM-12+000899999V0203601N003010075019N0020001N1+00541+00401102801ADDAY121031AY221031GF108991081051008001999999MD1710101+9999MW1101REMSYN088AAXX  06151 14303 41595 83603 10054 20040 3//// 40280 57010 71022 885// 333 92312 92425;
0231143030999992000020706004+45050+013620FM-12+000899999V0203401N001010075019N0020001N1+00541+00401102401ADDAA199000091AY121061AY221061GF108991081051008001999999KA1999N+00521MD1710101+9999MW1101SA1+0849REMSYN106AAXX  07061 14303 31595 83401 10054 20040 3//// 40240 57010 71022 885// 222// 00084 333 20052 92311 92415;EQDQ01  00002PRCP99
0156143030999992000020709004+45050+013620FM-12+000899999V0202301N002010075019N0020001N1+00621+00501102501ADDAY121031AY221031GF108991081051008001999999MD1210101+9999MW1101REMSYN082AAXX  07091 14303 41595 82302 10062 20050 40250 52010 71022 885// 333 92301 92415;
0186143030999992000020712004+45050+013620FM-12+000899999V0201801N002010075019N0040001N1+00721+00601102501ADDAA199000091AY121061AY221061GF108991081051008001999999MD1410001+9999MW1101REMSYN082AAXX  07121 14303 31596 81802 10072 20060 40250 54000 71022 885// 333 92301 92416;EQDQ01  00002PRCP99
0156143030999992000020715004+45050+013620FM-12+000899999V0201801N002010075019N0040001N1+00721+00601102401ADDAY121031AY221031GF108991081051008001999999MD1710101+9999MW1101REMSYN082AAXX  07151 14303 41596 81802 10072 20060 40240 57010 71022 885// 333 92301 92416;
0239143030999992000020806004+45050+013620FM-12+000899999V0201401N003010075019N0040001N1+00881+00801102101ADDAA199000091AY121061AY221061GF108991999071008001021999KA1999N+00601MW1101REMSYN088AAXX  08061 14303 31596 81403 10088 20080 40210 53000 71022 8872/ 333 20060 92312 92426;EQDQ01+000082SCOTLCQ02+000032APCTENQ03+000002APC3  Q04  00002PRCP99
0186143030999992000020812004+45050+013620FM-12+000899999V0202501N002010075019N0020001N1+00841+00701102101ADDAA199000091AY121061AY221061GF108991081051008001999999MD1410001+9999MW1101REMSYN082AAXX  08121 14303 31595 82502 10084 20070 40210 54000 71022 885// 333 92301 92415;EQDQ01  00002PRCP99
0156143030999992000020815004+45050+013620FM-12+000899999V0201601N002010075019N0020001N1+00821+00701101901ADDAY121031AY221031GF108991081051008001999999MD1710201+9999MW1101REMSYN082AAXX  08151 14303 41595 81602 10082 20070 40190 57020 71022 885// 333 92301 92415;
0231143030999992000020906004+45050+013620FM-12+000899999V0201601N002010075019N0040001N1+00841+00701101401ADDAA124005191AY161061AY221061GF108991999071008001021999KA1999N+00801MD1410001+9999MW1611SA1+0839REMSYN106AAXX  09061 14303 11596 81602 10084 20070 40140 54000 60054 76162 8872/ 222// 00083 333 20080 92312 92426;EQDQ01+000082SCOTLC
0191143030999992000020909004+45050+013620FM-12+000899999V0202301N002010075019N0020001N1+00901+00801999999ADDAY161031AY221031GF108991999071008001021999MD1410001+9999MW1501REMSYN082AAXX  09091 14303 41595 82302 10090 20080 40240 54000 75062 8872/ 333 92312 92425;EQDQ01+000082SCOTLCQ02+102403APOSLP
0173143030999992000020912004+45050+013620FM-12+000899999V0203401N004010075019N0020001N1+00761+00701101401ADDAA199000021AY161061AY221061GF108991081071008001999999MD1410001+9999MW1511REMSYN088AAXX  09121 14303 31595 83404 10076 20070 3//// 40140 54000 75162 887// 333 92312 92425;
0162143030999992000020915004+45050+013620FM-12+000899999V0203601N003010075019N0020001N1+00741+00601101501ADDAY121031AY221031GF108991081051008001999999MD1210101+9999MW1101REMSYN088AAXX  09151 14303 41595 83603 10074 20060 3//// 40150 52010 71022 885// 333 92312 92425;
0194143030999992000021006004+45050+013620FM-12+000899999V0203601N003012200019N0200001N1+00561+00201102401ADDAA124005191GA1001+999999999GF100991001001999999001001KA1999N+00451MD1210101+9999SA1+0829REMSYN094AAXX  10061 14303 12998 03603 10056 20020 40240 52010 60054 222// 00082 333 20045 92312 92428;
0138143030999992000021009004+45050+013620FM-12+000899999V0203601N003012200019N0200001N1+00821+00501102501ADDGA1001+999999999GF100991001001999999001001MD1210101+9999REMSYN070AAXX  10091 14303 42998 03603 10082 20050 40250 52010 333 92312 92428;
0138143030999992000021015004+45050+013620FM-12+000899999V0203201N003012200019N0200001N1+00981+00801102401ADDGA1001+999999999GF100991001001999999001001MD1710101+9999REMSYN070AAXX  10151 14303 42998 03203 10098 20080 40240 57010 333 92312 92428;
0197143030999992000021106004+45050+013620FM-12+000899999V0200901N002012200019N0200001N1+00441+00101102201ADDAA199000091GF103991031081012501041001KA1999N+00421MD1710011+9999SA1+0829REMSYN094AAXX  11061 14303 32698 30902 10044 20010 40220 57001 83840 222// 00082 333 20042 92301 92418;EQDQ01  00002PRCP99
0147143030999992000021109004+45050+013620FM-12+000899999V0200501N001019999999N0200001N1+00681+00501102301ADDGF107991001001999999001081MD1210101+9999REMSYN076AAXX  11091 14303 42798 70501 10068 20050 40230 52010 80008 333 92301 92418;EQDQ01+017502SCOLCB
0180143030999992000021112004+45050+013620FM-12+000899999V0203401N002019999999N0200001N1+00841+00601102301ADDAA199000091GF107991001001999999001081MD1410001+9999REMSYN082AAXX  11121 14303 32798 73402 10084 20060 3//// 40230 54000 80008 333 92301 92418;EQDQ01+017502SCOLCBQ02  00002PRCP99
0153143030999992000021115004+45050+013620FM-12+000899999V0203601N003019999999N0200001N1+00841+00601102301ADDGF108991001001999999001081MD1410001+9999REMSYN082AAXX  11151 14303 42798 83603 10084 20060 3//// 40230 54000 80008 333 92312 92428;EQDQ01+017502SCOLCB
0213143030999992000021206004+45050+013620FM-12+000899999V0203601N002010075019N0200001N1+00801+00701102401ADDAA199000091GF108991999071008001021999KA1999N+00781MD1410001+9999SA1+0839REMSYN094AAXX  12061 14303 32598 83602 10080 20070 40240 54000 8872/ 222// 00083 333 20078 923// 9244/;EQDQ01+000082SCOTLCQ02  00002PRCP99
0128143030999992000021209004+45050+013620FM-12+000899999V0203401N002010075019N0200001N1+00841+00601102301ADDGF108991081051008001999999MD1710101+9999REMSYN076AAXX  12091 14303 42598 83402 10084 20060 40230 57010 885// 333 92312 92428;
0174143030999992000021212004+45050+013620FM-12+000899999V0203201N002010120019N0200001N1+00901+00701102301ADDAA199000091GF108991999071012501011999MD1410001+9999REMSYN076AAXX  12121 14303 32698 83202 10090 20070 40230 54000 8871/ 333 92301 92418;EQDQ01+000082SCOTLCQ02  00002PRCP99
0187143030999992000021306004+45050+013620FM-12+000899999V0200501N001012200019N0200001N1+00461+00401102201ADDAA199000091GA1001+999999999GF100991001001999999001001KA1999N+00461MD1410001+9999REMSYN076AAXX  13061 14303 32098 00501 10046 20040 40220 54000 333 20046 92301 92418;EQDQ01  00002PRCP99
0138143030999992000021309004+45050+013620FM-12+000899999V0203401N001012200019N0200001N1+00681+00501102301ADDGA1001+999999999GF100991001001999999001001MD1210101+9999REMSYN070AAXX  13091 14303 42098 03401 10068 20050 40230 52010 333 92301 92418;
0158143030999992000021312004+45050+013620FM-12+000899999V0203201N003012200019N0200001N1+00881+00701102201ADDAA199000091GF101991011001017501001011MD1710101+9999REMSYN076AAXX  13121 14303 32798 13203 10088 20070 40220 57010 81001 333 92312 92428;EQDQ01  00002PRCP99
0128143030999992000021315004+45050+013620FM-12+000899999V0203201N003019999999N0200001N1+00901+00701102001ADDGF107991071001012501071001MD1710201+9999REMSYN076AAXX  13151 14303 42698 73203 10090 20070 40200 57020 87070 333 92312 92428;
0199143030999992000021406004+45050+013620FM-12+000899999V0200901N002012200019N0100001N1+00521+00301101901ADDAA199000091GA1001+999999999GF100991001001999999001001KA1999N+00501MD1210101+9999REMSYN088AAXX  14061 14303 32997 00902 10052 20030 3//// 40190 52010 333 20050 92301 92417 00082;EQDQ01  00002PRCP99
0144143030999992000021409004+45050+013620FM-12+000899999V0200501N001012200019N0100001N1+00721+00501102001ADDGA1001+999999999GF100991001001999999001001MD1210101+9999REMSYN076AAXX  14091 14303 42997 00501 10072 20050 3//// 40200 52010 333 92301 92412;
0202143030999992000021412004+45050+013620FM-12+000899999V0203201N002012200019N0040001N1+00881+00701102001ADDAA199000091AY101061AY201061GA1001+999999999GF100991001001999999001001MD1410001+9999MW1101REMSYN082AAXX  14121 14303 32996 03202 10088 20070 3//// 40200 54000 71000 333 92301 92416;EQDQ01  00002PRCP99
0172143030999992000021415004+45050+013620FM-12+000899999V0203601N002012200019N0040001N1+00981+00801101801ADDAY101031AY201031GA1001+999999999GF100991001001999999001001MD1710201+9999MW1101REMSYN082AAXX  14151 14303 42996 03602 10098 20080 3//// 40180 57020 71000 333 92312 92426;
0197143030999992000021506004+45050+013620FM-12+000899999V0202301N001010075019N0200001N1+00661+00501101901ADDAA199000091GF108991081051008001999999KA1999N+00621MD1410001+9999SA1+0829REMSYN094AAXX  15061 14303 32598 82301 10066 20050 40190 54000 885// 222// 00082 333 20062 92301 92418;EQDQ01  00002PRCP99
0128143030999992000021509004+45050+013620FM-12+000899999V0201401N002012200019N0200001N1+00961+00801102001ADDGF104991001001999999001041MD1210101+9999REMSYN076AAXX  15091 14303 42998 41402 10096 20080 40200 52010 80004 333 92312 92428;
0158143030999992000021512004+45050+013620FM-12+000899999V0201601N002019999999N0200001N1+01021+00801101901ADDAA199000091GF105991051001012501031001MD1710101+9999REMSYN076AAXX  15121 14303 32698 51602 10102 20080 40190 57010 85030 333 92312 92428;EQDQ01  00002PRCP99
0128143030999992000021515004+45050+013620FM-12+000899999V0201401N003010075019N0200001N1+00961+00801101801ADDGF108991081051008001999999MD1710101+9999REMSYN076AAXX  15151 14303 42598 81403 10096 20080 40180 57010 885// 333 92312 92428;
0225143030999992000021606004+45050+013620FM-12+000899999V0202301N003010075019N0040001N1+00901+00801101201ADDAA199000091AY121061AY221061GF108991081051008001999999KA1999N+00751MD1710201+9999MW1101SA1+0939REMSYN100AAXX  16061 14303 32596 82303 10090 20080 40120 57020 71022 885// 222// 00093 333 20075 92312 92426;EQDQ01  00002PRCP99
0162143030999992000021609004+45050+013620FM-12+000899999V0200901N001010075019N0040001N1+00881+00601101001ADDAY111031AY221031GF108991081051008001999999MD1710201+9999MW1101REMSYN088AAXX  16091 14303 41596 80901 10088 20060 3//// 40100 57020 71012 885// 333 92311 92416;
0164143030999992000021612004+45050+013620FM-12+000899999V0201001N004010075019N0200001N1+00981+00801100701ADDAA199000091GF108991081051008001999999MD1710301+9999REMSYN082AAXX  16121 14303 32598 81004 10098 20080 3//// 40070 57030 885// 333 92323 92428;EQDQ01  00002PRCP99
0134143030999992000021615004+45050+013620FM-12+000899999V0201601N006010075019N0200001N1+01101+00801100301ADDGF108991081051008001999999MD1710401+9999REMSYN082AAXX  16151 14303 42598 81606 10110 20080 3//// 40030 57040 885// 333 92323 92438;
0184143030999992000021706004+45050+013620FM-12+000899999V0200901N003010075019N0200001N1+00481+00001100201ADDAA124007991GF108991081051008001999999KA1999N+00201MD1710201+9999SA1+0839REMSYN100AAXX  17061 14303 12598 80903 10048 2000/ 40020 57020 60084 885// 222// 00083 333 20020 92323 92438;
0128143030999992000021709004+45050+013620FM-12+000899999V0202901N004010360019N0200001N1+00621+00101100401ADDGF105991041081008001041001MD1210201+9999REMSYN076AAXX  17091 14303 42598 52904 10062 20010 40040 52020 84840 333 92312 92428;
0158143030999992000021712004+45050+013620FM-12+000899999V0202901N006012200019N0200001N1+00701+00201100401ADDAA199000091GF103991031001008001041061MD1410001+9999REMSYN076AAXX  17121 14303 32598 32906 10070 20020 40040 54000 83046 333 92334 92448;EQDQ01  00002PRCP99
0128143030999992000021715004+45050+013620FM-12+000899999V0202901N004019999999N0200001N1+00781+00101100401ADDGF105991041001008001041061MD1410001+9999REMSYN076AAXX  17151 14303 42598 52904 10078 20010 40040 54000 84046 333 92323 92438;
0207143030999992000021806004+45050+013620FM-12+000899999V0203601N001012200019N0200001N1+00381+00001101301ADDAA199000091GA1001+999999999GF100991001001999999001001KA1999N+00221MD1210201+9999SA1+0829REMSYN088AAXX  18061 14303 32998 03601 10038 20000 40130 52020 222// 00082 333 20022 92311 92418;EQDQ01  00002PRCP99
0138143030999992000021809004+45050+013620FM-12+000899999V0202701N001012200019N0200001N1+00701+00001101501ADDGA1001+999999999GF100991001001999999001001MD1210201+9999REMSYN070AAXX  18091 14303 42098 02701 10070 20000 40150 52020 333 92311 92418;
0158143030999992000021812004+45050+013620FM-12+000899999V0202301N003012200019N0200001N1+00901+00001101501ADDAA199000091GF104991041001012501001041MD1410001+9999REMSYN076AAXX  18121 14303 32698 42303 10090 20000 40150 54000 84004 333 92312 92428;EQDQ01  00002PRCP99
0128143030999992000021815004+45050+013620FM-12+000899999V0202301N003012200019N0200001N1+00841+00301101401ADDGF103991031001012501001041MD1710101+9999REMSYN076AAXX  18151 14303 42698 32303 10084 20030 40140 57010 83004 333 92312 92428;
0197143030999992000021906004+45050+013620FM-12+000899999V0200901N003010075019N0200001N1+00781+00401100801ADDAA199000091GF108991081051008001999999KA1999N+00401MD1410001+9999SA1+0889REMSYN094AAXX  19061 14303 32598 80903 10078 20040 40080 54000 885// 222// 00088 333 20040 92322 92428;EQDQ01  00002PRCP99
0128143030999992000021909004+45050+013620FM-12+000899999V0201401N004010075019N0200001N1+00901+00501100801ADDGF108991081051008001999999MD1410001+9999REMSYN076AAXX  19091 14303 42598 81404 10090 20050 40080 54000 885// 333 92323 92438;
0186143030999992000021912004+45050+013620FM-12+000899999V0200901N004010075019N0200001N1+00901+00701100801ADDAA199000021AY151061AY251061GF108991999071008001021999MD1410001+9999MW1501REMSYN082AAXX  19121 14303 31598 80904 10090 20070 40080 54000 75055 8872/ 333 92323 92438;EQDQ01+000082SCOTLC
0128143030999992000021915004+45050+013620FM-12+000899999V0200901N004010075019N0200001N1+00881+00501100801ADDGF108991081051008001999999MD1410001+9999REMSYN076AAXX  19151 14303 42598 80904 10088 20050 40080 54000 885// 333 92323 92438;
0200143030999992000022006004+45050+013620FM-12+000899999V0203601N003012200019N0200001N1+00541+00201100901ADDAA118005191GA1001+999999999GF100991001001999999001001KA1999N+00351MD1210101+9999SA1+0829REMSYN100AAXX  20061 14303 12998 03603 10054 20020 3//// 40090 52010 60053 222// 00082 333 20035 92312 92428;
0144143030999992000022009004+45050+013620FM-12+000899999V0202901N002012200019N0200001N1+00781+00301101101ADDGA1001+999999999GF100991001001999999001001MD1210201+9999REMSYN076AAXX  20091 14303 42998 02902 10078 20030 3//// 40110 52020 333 92312 92428;
0164143030999992000022012004+45050+013620FM-12+000899999V0202901N004012200019N0200001N1+00921+00501101201ADDAA199000091GF103991031001008001041061MD1210101+9999REMSYN082AAXX  20121 14303 32598 32904 10092 20050 3//// 40120 52010 83046 333 92322 92428;EQDQ01  00002PRCP99
0134143030999992000022015004+45050+013620FM-12+000899999V0202701N002012200019N0200001N1+01021+00401101401ADDGF102991021001012501041061MD1210201+9999REMSYN082AAXX  20151 14303 42698 22702 10102 20040 3//// 40140 52020 82046 333 92312 92428;
0213143030999992000022106004+45050+013620FM-12+000899999V0200501N002012200019N0200001N1+00401+00101102201ADDAA199000091GA1001+999999999GF100991001001999999001001KA1999N+00301MD1210201+9999SA1+0809REMSYN094AAXX  21061 14303 32998 00502 10040 20010 3//// 40220 52020 222// 00080 333 20030 92301 92418;EQDQ01  00002PRCP99
0144143030999992000022109004+45050+013620FM-12+000899999V0200901N001012200019N0200001N1+00641+00101102301ADDGA1001+999999999GF100991001001999999001001MD1210101+9999REMSYN076AAXX  21091 14303 42998 00901 10064 20010 3//// 40230 52010 333 92301 92418;
0134143030999992000022115004+45050+013620FM-12+000899999V0202301N003012200019N0200001N1+00821+00101102401ADDGF103991031081008001041001MD1410001+9999REMSYN082AAXX  21151 14303 42598 32303 10082 20010 3//// 40240 54000 83840 333 92312 92428;
0203143030999992000022206004+45050+013620FM-12+000899999V0200501N002010075019N0200001N1+00381-00301102601ADDAA199000091GF107991071041008001041001KA1999N+00201MD1410001+9999SA1+0809REMSYN100AAXX  22061 14303 32598 70502 10038 21030 3//// 40260 54000 87440 222// 00080 333 20020 92312 92428;EQDQ01  00002PRCP99
0128143030999992000022209004+45050+013620FM-12+000899999V0200501N001010120019N0200001N1+00541-00301102701ADDGF105991051081008001041001MD1210101+9999REMSYN076AAXX  22091 14303 42598 50501 10054 21030 40270 52010 85840 333 92311 92418;
0168143030999992000022212004+45050+013620FM-12+000899999V0202701N003012200019N0200001N1+00621-00401102601ADDAA199000091GA1001+999999999GF100991001001999999001001MD1710101+9999REMSYN070AAXX  22121 14303 32998 02703 10062 21040 40260 57010 333 92312 92428;EQDQ01  00002PRCP99
0144143030999992000022215004+45050+013620FM-12+000899999V0202301N002012200019N0200001N1+00741+00001102501ADDGA1001+999999999GF100991001001999999001001MD1710101+9999REMSYN076AAXX  22151 14303 42998 02302 10074 20000 3//// 40250 57010 333 92312 92428;
0187143030999992000022306004+45050+013620FM-12+000899999V0200501N002012200019N0200001N1+00221-00101102501ADDAA199000091GA1001+999999999GF100991001001999999001001KA1999N+00151MD1410001+9999REMSYN076AAXX  23061 14303 32098 00502 10022 21010 40250 54000 333 20015 92301 92418;EQDQ01  00002PRCP99
0128143030999992000022309004+45050+013620FM-12+000899999V0203601N002010120019N0200001N1+00521-00201102501ADDGF106991061081008001041001MD1410001+9999REMSYN076AAXX  23091 14303 42598 63602 10052 21020 40250 54000 86840 333 92311 94218;
0164143030999992000022312004+45050+013620FM-12+000899999V0203201N003010120019N0200001N1+00621-00101102501ADDAA199000091GF107991061081008001061001MD1410001+9999REMSYN082AAXX  23121 14303 32598 73203 10062 21010 3//// 40250 54000 86860 333 92322 92428;EQDQ01  00002PRCP99
0138143030999992000022315004+45050+013620FM-12+000899999V0203201N004012200019N0200001N1+00741+00001102501ADDGA1001+999999999GF100991001001999999001001MD1410001+9999REMSYN070AAXX  23151 14303 42098 03204 10074 20000 40250 54000 333 92323 92438;
0213143030999992000022406004+45050+013620FM-12+000899999V0203601N002012200019N0200001N1+00441+00001102801ADDAA199000091GA1001+999999999GF100991001001999999001001KA1999N+00151MD1210101+9999SA1+0849REMSYN094AAXX  24061 14303 32998 03602 10044 20000 3//// 40280 52010 222// 00084 333 20015 92311 92418;EQDQ01  00002PRCP99
0144143030999992000022409004+45050+013620FM-12+000899999V0203601N001012200019N0200001N1+00701+99999102301ADDGA1001+999999999GF100991001001999999001001MD1210101+9999REMSYN076AAXX  24091 14303 42998 03601 10070 2//// 3//// 40230 52010 333 92301 92418;
0134143030999992000022415004+45050+013620FM-12+000899999V0202901N003010120019N0200001N1+00801+00201102901ADDGF105991051081008001041001MD1410001+9999REMSYN082AAXX  24151 14303 42598 52903 10080 20020 3//// 40290 54000 85840 333 92322 92428;
0168143030999992000022512004+45050+013620FM-12+000899999V0202301N003012200019N0100001N1+00941+00401102801ADDAA199000091GA1001+999999999GF100991001001999999001001MD1710101+9999REMSYN070AAXX  25121 14303 32997 02303 10094 20040 40280 57010 333 92312 92427;EQDQ01  00002PRCP99
0128143030999992000022515004+45050+013620FM-12+000899999V0202001N003010075019N0100001N1+00881+00501102701ADDGF108991081021008001001001MD1710101+9999REMSYN076AAXX  25151 14303 42597 82003 10088 20050 40270 57010 88200 333 92312 92427;
0219143030999992000022606004+45050+013620FM-12+000899999V0209999V003012200019N0200001N1+00761+00301102901ADDAA199000091GA1021+003609079GF103991031021012501001051KA1999N+00401MD1210101+9999SA1+0859REMSYN100AAXX  26061 14303 32698 39903 10076 20030 3//// 40290 52010 83205 222// 00085 333 20040 82312 92428;EQDQ01  00002PRCP99
0164143030999992000022612004+45050+013620FM-12+000899999V0201601N003010075019N0200001N1+00981+00601103101ADDAA199000091GF108991081011008001001001MD1210101+9999REMSYN082AAXX  26121 14303 32598 81603 10098 20060 3//// 40310 52010 88100 333 92312 92428;EQDQ01  00002PRCP99
0134143030999992000022615004+45050+013620FM-12+000899999V0203601N001010075019N0100001N1+01001+00601103001ADDGF108991081021008001001001MD1710101+9999REMSYN082AAXX  26151 14303 42597 83601 10100 20060 3//// 40300 57010 88200 333 92311 92417;
0203143030999992000022706004+45050+013620FM-12+000899999V0203601N001012200019N0100001N1+00801+00601103001ADDAA199000091GF103991031081008001061001KA1999N+00451MD1410001+9999SA1+0859REMSYN100AAXX  27061 14303 32597 33601 10080 20060 3//// 40300 54000 83860 222// 00085 333 20045 92301 92417;EQDQ01  00002PRCP99
0138143030999992000022709004+45050+013620FM-12+000899999V0202701N001012200019N0100001N1+00881+00501103001ADDGA1001+999999999GF100991001001999999001001MD1410001+9999REMSYN070AAXX  27091 14303 42997 02701 10088 20050 40300 54000 333 92300 92407;
0196143030999992000022712004+45050+013620FM-12+000899999V0202701N002012200019N0040001N1+01021+00801103001ADDAA199000091AY111061AY221061GA1001+999999999GF100991001001999999001001MD1410001+9999MW1101REMSYN076AAXX  27121 14303 31996 02702 10102 20080 40300 54000 71012 333 92311 92416;EQDQ01  00002PRCP99
0166143030999992000022715004+45050+013620FM-12+000899999V0202701N001012200019N0040001N1+01081+00701103001ADDAY111031AY221031GA1001+999999999GF100991001001999999001001MD1410001+9999MW1101REMSYN076AAXX  27151 14303 41996 02701 10108 20070 40300 54000 71012 333 92311 92416;
0207143030999992000022806004+45050+013620FM-12+000899999V0200501N001012200019N0100001N1+00581+00201103201ADDAA199000091GA1001+999999999GF100991001001999999001001KA1999N+00341MD1410001+9999SA1+0859REMSYN088AAXX  28061 14303 32997 00501 10058 20020 40320 54000 222// 00085 333 20034 92301 92417;EQDQ01  00002PRCP99
0122143030999992000022809004+45050+013620FM-12+000899999V0209999C000019999999N0100001N1+00981+99999103201ADDGF105991999999000251999999MD1410001+9999REMSYN070AAXX  28091 14303 42097 50000 10098 2040/ 40320 54000 333 92301 92417;
0168143030999992000022812004+45050+013620FM-12+000899999V0202701N002012200019N0200001N1+00961+00601103201ADDAA199000091GA1001+999999999GF100991001001999999001001MD1410001+9999REMSYN070AAXX  28121 14303 32998 02702 10096 20060 40320 54000 333 92311 92418;EQDQ01  00002PRCP99
0138143030999992000022815004+45050+013620FM-12+000899999V0209999C000012200019N0200001N1+01001+00701103201ADDGA1001+999999999GF100991001001999999001001MD1410001+9999REMSYN070AAXX  28151 14303 42098 00000 10100 20070 40320 54000 333 92300 92408;
0213143030999992000022906004+45050+013620FM-12+000899999V0200901N003012200019N0100001N1+00721+00501102901ADDAA199000091GA1001+999999999GF100991001001999999001001KA1999N+00401MD1710101+9999SA1+0889REMSYN094AAXX  29061 14303 32997 00903 10072 20050 3//// 40290 57010 222// 00088 333 20040 92312 92427;EQDQ01  00002PRCP99
0128143030999992000022909004+45050+013620FM-12+000899999V0201401N004012200019N0200001N1+00961+00701102901ADDGF102991021071008001011999MD1410001+9999REMSYN076AAXX  29091 14303 42598 21404 10096 20070 40290 54000 8271/ 333 92312 92428;
0180143030999992000022912004+45050+013620FM-12+000899999V0202001N003012200019N0002001N1+00901+99999102701ADDAA199000091AY141061AY261061GF102991021001012501001041MD1710201+9999MW1401REMSYN076AAXX  29121 14303 31692 22003 10090 40270 57020 74046 82004 333 92323 92432;EQDQ01  00002PRCP99
0166143030999992000022915004+45050+013620FM-12+000899999V0201801N002012200019N0002001N1+00941+00701102501ADDAY141031AY261031GA1001+999999999GF100991001001999999001001MD1710201+9999MW1401REMSYN076AAXX  29151 14303 41992 01802 10094 20070 40250 57020 74046 333 92323 92432;
0212143030999992000030106004+45050+013620FM-12+000899999V0201801N006010075019N0100001N1+01001+00601101401ADDAA124000591AY151061AY211061GF108991081071008001999999KA1999N+00551MD1710201+9999MW1501SA1+0909REMSYN106AAXX  01061 14303 11597 81806 10100 20060 40140 57020 69954 75051 887// 222// 00090 333 20055 92334 92447;
0153143030999992000030109004+45050+013620FM-12+000899999V0201801N007010075019N0200001N1+01001+00801101201ADDGF108991999071008001021999MD1710201+9999REMSYN082AAXX  01091 14303 42598 81807 10100 20080 3//// 40120 57020 8872/ 333 92334 92448;EQDQ01+000082SCOTLC
0186143030999992000030112004+45050+013620FM-12+000899999V0201801N006010075019N0200001N1+00981+00801100901ADDAA199000021AY151061AY221061GF108991999071008001021999MD1710301+9999MW1501REMSYN082AAXX  01121 14303 31598 81806 10098 20080 40090 57030 75052 8872/ 333 92334 92448;EQDQ01+000082SCOTLC
0147143030999992000030115004+45050+013620FM-12+000899999V0201601N007010075019N0200001N1+00981+00801100501ADDGF108991999071008001021999MD1710401+9999REMSYN076AAXX  01151 14303 42598 81607 10098 20080 40050 57040 8872/ 333 92344 92448;EQDQ01+000082SCOTLC
0184143030999992000030206004+45050+013620FM-12+000899999V0203601N003010075019N0200001N1+00841+00601100601ADDAA124010991GF108991081051008001999999KA1999N+00551MD1210401+9999SA1+0909REMSYN100AAXX  02061 14303 12598 83603 10084 20060 40060 52040 60114 885// 222// 00090 333 20055 92323 92438;
0134143030999992000030209004+45050+013620FM-12+000899999V0203601N003019999999N0200001N1+00881+00501101101ADDGF108991081001012501071001MD1210501+9999REMSYN082AAXX  02091 14303 42698 83603 10088 20050 3//// 40110 52050 88070 333 92323 92438;
0164143030999992000030212004+45050+013620FM-12+000899999V0200501N004012200019N0200001N1+01281-00201101301ADDAA199000091GF104991041011017501001061MD1210201+9999REMSYN082AAXX  02121 14303 32798 40504 10128 21020 3//// 40130 52020 84106 333 92323 92428;EQDQ01  00002PRCP99
0144143030999992000030215004+45050+013620FM-12+000899999V0203201N004012200019N0200001N1+01141+00401101501ADDGA1001+999999999GF100991001001999999001001MD1210201+9999REMSYN076AAXX  02151 14303 42998 03204 10114 20040 3//// 40150 52020 333 92312 92428;
0183143030999992000030306004+45050+013620FM-12+000899999V0200701N003012200019N0200001N1+00481+00001102101ADDAA199000091GF104991001001999999001011KA1999N+00441MD1410001+9999REMSYN088AAXX  03061 14303 32998 40703 10048 20000 40210 54000 80001 333 20044 92312 92428 00090;EQDQ01  00002PRCP99
0128143030999992000030309004+45050+013620FM-12+000899999V0201401N003010150019N0200001N1+00941+00001102101ADDGF106991061021017501001051MD1410001+9999REMSYN076AAXX  03091 14303 42798 61403 10094 20000 40210 54000 86205 333 92312 92428;
0158143030999992000030312004+45050+013620FM-12+000899999V0201801N004012200019N0200001N1+01061+00301102001ADDAA199000091GF104991001001999999001081MD1710101+9999REMSYN076AAXX  03121 14303 32998 41804 10106 20030 40200 57010 80008 333 92312 92428;EQDQ01  00002PRCP99
0128143030999992000030315004+45050+013620FM-12+000899999V0201801N003019999999N0200001N1+01001+00701101801ADDGF108991001001999999001081MD1710201+9999REMSYN076AAXX  03151 14303 42998 81803 10100 20070 40180 57020 80008 333 92312 92428;
0203143030999992000030406004+45050+013620FM-12+000899999V0202001N004010075019N0200001N1+01001+00701101301ADDAA199000091GF108991081051008001999999KA1999N+00801MD1710101+9999SA1+0929REMSYN100AAXX  04061 14303 32598 82004 10100 20070 3//// 40130 57010 885// 222// 00092 333 20080 92323 92438;EQDQ01  00002PRCP99
0134143030999992000030409004+45050+013620FM-12+000899999V0202301N004010075019N0200001N1+01041+00701101301ADDGF108991081051008001999999MD1410001+9999REMSYN082AAXX  04091 14303 42598 82304 10104 20070 3//// 40130 54000 885// 333 92323 92438;
0134143030999992000030415004+45050+013620FM-12+000899999V0201801N002010075019N0200001N1+01001+00801101201ADDGF108991081051008001999999MD1410001+9999REMSYN082AAXX  04151 14303 42598 81802 10100 20080 3//// 40120 54000 885// 333 92323 92438;
0194143030999992000030506004+45050+013620FM-12+000899999V0200501N002012200019N0200001N1+00501-00101102301ADDAA124000191GA1001+999999999GF100991001001999999001001KA1999N+00451MD1210301+9999SA1+0909REMSYN094AAXX  05061 14303 12998 00502 10050 21010 40230 52030 69914 222// 00090 333 20045 92312 92428;
0138143030999992000030509004+45050+013620FM-12+000899999V0203201N003012200019N0200001N1+00701-00201102601ADDGA1001+999999999GF100991001001999999001001MD1210301+9999REMSYN070AAXX  05091 14303 42998 03203 10070 21020 40260 52030 333 92312 92428;
0158143030999992000030512004+45050+013620FM-12+000899999V0202701N004012200019N0200001N1+00821+00101102701ADDAA199000091GF102991021011008001001001MD1210101+9999REMSYN076AAXX  05121 14303 32598 22704 10082 20010 40270 52010 82100 333 92312 92428;EQDQ01  00002PRCP99
0128143030999992000030515004+45050+013620FM-12+000899999V0202701N004012200019N0200001N1+00921+00201102701ADDGF101991011041008001041001MD1410001+9999REMSYN076AAXX  05151 14303 42598 12704 10092 20020 40270 54000 81440 333 92312 92428;
0134143030999992000030609004+45050+013620FM-12+000899999V0201801N003010075019N0200001N1+00841+00301103501ADDGF108991081051008001999999MD1210101+9999REMSYN082AAXX  06091 14303 42598 81803 10084 20030 3//// 40350 52010 885// 333 92312 92428;
0164143030999992000030612004+45050+013620FM-12+000899999V0201801N004010075019N0200001N1+00901+00201103501ADDAA199000091GF108991081051008001999999MD1410001+9999REMSYN082AAXX  06121 14303 32598 81804 10090 20020 3//// 40350 54000 885// 333 92312 92428;EQDQ01  00002PRCP99
0134143030999992000030615004+45050+013620FM-12+000899999V0202401N001012200019N0200001N1+01121+00401103401ADDGF102991021041012501071001MD1710101+9999REMSYN082AAXX  06151 14303 42698 22401 10112 20040 3//// 40340 57010 82470 333 92312 92428;
0197143030999992000030706004+45050+013620FM-12+000899999V0200901N003012200019N0200001N1+00581+00401103091ADDAA199000091GF102991021081012501041001KA1999N+00501MD1710101+9999SA1+0889REMSYN094AAXX  07061 14303 32698 20903 10058 20040 40309 57010 82840 222// 00088 333 20050 92312 92428;EQDQ01  00002PRCP99
0128143030999992000030715004+45050+013620FM-12+000899999V0202301N003019999999N0100001N1+00941+00601102701ADDGF107991071001999999051001MD1710201+9999REMSYN076AAXX  07151 14303 42997 72303 10094 20060 40270 57020 87050 333 92312 92427;
0144143030999992000030809004+45050+013620FM-12+000899999V0201801N002012200019N0200001N1+01041+00801102801ADDGA1001+999999999GF100991001001999999001001MD1210101+9999REMSYN076AAXX  08091 14303 42998 01802 10104 20080 3//// 40280 52010 333 92311 92417;
0202143030999992000030812004+45050+013620FM-12+000899999V0202701N002012200019N0002001N1+00941+00701102801ADDAA199000091AY111061AY201061GA1001+999999999GF100991001001999999001001MD1410001+9999MW1461REMSYN082AAXX  08121 14303 31992 02702 10094 20070 3//// 40280 54000 74610 333 92311 92412;EQDQ01  00002PRCP99
0197143030999992000030906004+45050+013620FM-12+000899999V0201401N004019999999N0100001N1+00941+00801102301ADDAA199000091GF108991081001012501071999KA1999N+00721MD1410001+9999SA1+0909REMSYN094AAXX  09061 14303 32697 81404 10094 20080 40230 54000 8807/ 222// 00090 333 20072 92312 92427;EQDQ01  00002PRCP99
0156143030999992000030909004+45050+013620FM-12+000899999V0202301N002019999999N0020001N1+00941+00801102401ADDAY121031AY221031GF108991081001012501071999MD1210101+9999MW1101REMSYN082AAXX  09091 14303 41695 82302 10094 20080 40240 52010 71022 8807/ 333 92312 92425;
0166143030999992000030912004+45050+013620FM-12+000899999V0202301N003012200019N0020001N1+00961+00801102301ADDAY121061AY211061GA1001+999999999GF100991001001999999001001MD1710101+9999MW1101REMSYN076AAXX  09121 14303 41995 02303 10096 20080 40230 57010 71021 333 92312 92425;
0175143030999992000030915004+45050+013620FM-12+000899999V0202301N002019999999N0020001N1+01041+00801102101ADDAY121031AY211031GF106991001001999999001071MD1710201+9999MW1101REMSYN082AAXX  09151 14303 41795 62302 10104 20080 40210 57020 71021 80007 333 92311 92415;EQDQ01+017502SCOLCB
0203143030999992000031006004+45050+013620FM-12+000899999V0201101N004010075019N0100001N1+01041+00901101701ADDAA199000091GF108991081051008001999999KA1999N+00951MD1210101+9999SA1+0929REMSYN100AAXX  10061 14303 32597 81104 10104 20090 3//// 40170 52010 885// 222// 00092 333 20095 9212/ 92427;EQDQ01  00002PRCP99
0134143030999992000031009004+45050+013620FM-12+000899999V0201401N004012200019N0100001N1+01141+00901101901ADDGF104991041071012501011999MD1210201+9999REMSYN082AAXX  10091 14303 42697 41404 10114 20090 3//// 40190 52020 8471/ 333 92312 92427;
0172143030999992000031015004+45050+013620FM-12+000899999V0202301N003012200019N0002001N1+01041+00901101801ADDAY111031AY201031GA1001+999999999GF100991001001999999001001MD1410001+9999MW1441REMSYN082AAXX  10151 14303 41992 02303 10104 20090 3//// 40180 54000 74410 333 92312 92422;
0197143030999992000031106004+45050+013620FM-12+000899999V0203601N002010075019N0100001N1+00781+00601102001ADDAA199000091GF108991081051008001999999KA1999N+00651MD1410001+9999SA1+0929REMSYN094AAXX  11061 14303 32597 83602 10078 20060 40200 54000 885// 222// 00092 333 20065 92301 92417;EQDQ01  00002PRCP99
0128143030999992000031109004+45050+013620FM-12+000899999V0201101N002010075019N0100001N1+01021+00801101901ADDGF108991081051008001999999MD1710101+9999REMSYN076AAXX  11091 14303 42597 81102 10102 20080 40190 57010 885// 333 92311 92417;
0158143030999992000031112004+45050+013620FM-12+000899999V0201801N003010075019N0100001N1+01121+00901101801ADDAA199000091GF108991081051008001999999MD1710101+9999REMSYN076AAXX  11121 14303 32597 81803 10112 20090 40180 57010 885// 333 92311 92417;EQDQ01  00002PRCP99
0156143030999992000031115004+45050+013620FM-12+000899999V0202301N003010075019N0040001N1+01021+00301101601ADDAY121031AY221031GF108991081051008001999999MD1710201+9999MW1101REMSYN082AAXX  11151 14303 41596 82303 10102 20030 40160 57020 71022 885// 333 92311 92416;
0231143030999992000031206004+45050+013620FM-12+000899999V0203601N003010075019N0020001N1+00921+00801101801ADDAA199000091AY121061AY221061GF108991081051008001999999KA1999N+00841MD1210101+9999MW1101SA1+0959REMSYN106AAXX  12061 14303 31595 83603 10092 20080 3//// 40180 52010 71022 885// 222// 00095 333 20084 92311 92415;EQDQ01  00002PRCP99
0162143030999992000031209004+45050+013620FM-12+000899999V0203401N003012200019N0010001N1+00981+00801102001ADDAY141031AY221031GF102991021081012501041001MD1210201+9999MW1411REMSYN088AAXX  12091 14303 41694 23403 10098 20080 3//// 40200 52020 74142 82840 333 92311 92414;
0202143030999992000031212004+45050+013620FM-12+000899999V0203401N003012200019N0002001N1+00981+00801102001ADDAA199000091AY141061AY221061GA1001+999999999GF100991001001999999001001MD1410001+9999MW1411REMSYN082AAXX  12121 14303 31992 03403 10098 20080 3//// 40200 54000 74142 333 92312 92422;EQDQ01  00002PRCP99
0213143030999992000031306004+45050+013620FM-12+000899999V0200501N001012200019N0200001N1+00841+00501102401ADDAA199000091GF102991001001999999001091KA1999N+00661MD1210101+9999SA1+0969REMSYN094AAXX  13061 14303 32798 20501 10084 20050 40240 52010 80009 222// 00096 333 20066 92301 92418;EQDQ01+017502SCOLCBQ02  00002PRCP99
0138143030999992000031309004+45050+013620FM-12+000899999V0203601N001012200019N0200001N1+01101+00501102501ADDGA1001+999999999GF100991001001999999001001MD1210101+9999REMSYN070AAXX  13091 14303 42998 03601 10110 20050 40250 52010 333 92301 92418;
0168143030999992000031312004+45050+013620FM-12+000899999V0203201N002012200019N0200001N1+01141+00801102501ADDAA199000091GA1001+999999999GF100991001001999999001001MD1410001+9999REMSYN070AAXX  13121 14303 32998 03202 10114 20080 40250 54000 333 92301 92418;EQDQ01  00002PRCP99
0138143030999992000031315004+45050+013620FM-12+000899999V0203201N001012200019N0200001N1+01281+00701102301ADDGA1001+999999999GF100991001001999999001001MD1710201+9999REMSYN070AAXX  13151 14303 42998 03201 10128 20070 40230 57020 333 92301 92418;
0162143030999992000031409004+45050+013620FM-12+000899999V0201801N004010075019N0040001N1+00841+00701102401ADDAY141031AY241031GF108991081051008001999999MD1410001+9999MW1101REMSYN088AAXX  14091 14303 41596 81804 10084 20070 3//// 40240 54000 71044 885// 333 92311 92416;
0180143030999992000031412004+45050+013620FM-12+000899999V0202001N003012200019N0100001N1+01181+00801102201ADDAA199000091GF102991001001999999001071MD1710201+9999REMSYN082AAXX  14121 14303 32797 22003 10118 20080 3//// 40220 57020 80007 333 92311 92417;EQDQ01+017502SCOLCBQ02  00002PRCP99
0153143030999992000031415004+45050+013620FM-12+000899999V0201801N003019999999N0100001N1+01161+00801102201ADDGF108991001001999999001081MD1410001+9999REMSYN082AAXX  14151 14303 42797 81803 10116 20080 3//// 40220 54000 80008 333 92311 92417;EQDQ01+017502SCOLCB
0219143030999992000031506004+45050+013620FM-12+000899999V0202001N002010075019N0020001N1+00921+00801101401ADDAA199000091AY141061AY221061GF108991081051008001999999KA1999N+00861MD1410001+9999MW1101SA1+1059REMSYN094AAXX  15061 14303 31595 82002 10092 20080 40140 54000 71042 885// 222// 00105 333 20086 92312;EQDQ01  00002PRCP99
0186143030999992000031509004+45050+013620FM-12+000899999V0201801N002010075019N0010001N1+00981+00801101401ADDAA199000091AY141031AY221031GF108991081051008001999999MD1410001+9999MW1281REMSYN082AAXX  15091 14303 31594 81802 10098 20080 40140 54000 72842 885// 333 92312 92424;EQDQ01  00002PRCP99
0186143030999992000031512004+45050+013620FM-12+000899999V0202501N001010075019N0020001N1+01001+00801101401ADDAA199000091AY141061AY221061GF108991081051008001999999MD1410001+9999MW1101REMSYN082AAXX  15121 14303 31595 82501 10100 20080 40140 54000 71042 885// 333 92312 92425;EQDQ01  00002PRCP99
0156143030999992000031515004+45050+013620FM-12+000899999V0200501N003010120019N0100001N1+01021+00801101501ADDAY141031AY221031GF108991081081008001001001MD1210101+9999MW1171REMSYN082AAXX  15151 14303 41597 80503 10102 20080 40150 52010 71742 88800 333 92312 92427;
0190143030999992000031606004+45050+013620FM-12+000899999V0200501N003012200019N0200001N1+00521+00001102101ADDAA118000791GF101991011081012501041001KA1999N+00461MD1710101+9999SA1+1029REMSYN106AAXX  16061 14303 12698 10503 10052 20000 3//// 40210 57010 69903 81840 222// 00102 333 20046 92312 92428;
0144143030999992000031609004+45050+013620FM-12+000899999V0202001N001012200019N0200001N1+00941+00201102001ADDGA1001+999999999GF100991001001999999001001MD1710101+9999REMSYN076AAXX  16091 14303 42998 02001 10094 20020 3//// 40200 57010 333 92311 92418;
0164143030999992000031612004+45050+013620FM-12+000899999V0201801N002010150019N0200001N1+01041+00301101801ADDAA199000091GF107991071021017501001051MD1710201+9999REMSYN082AAXX  16121 14303 32798 71802 10104 20030 3//// 40180 57020 87205 333 92311 92418;EQDQ01  00002PRCP99
0134143030999992000031615004+45050+013620FM-12+000899999V0201801N002010150019N0200001N1+01101+00201101601ADDGF106991061021017501001051MD1710201+9999REMSYN082AAXX  16151 14303 42798 61802 10110 20020 3//// 40160 57020 86205 333 92311 92418;
0197143030999992000031706004+45050+013620FM-12+000899999V0200901N003012200019N0200001N1+00561+00101101901ADDAA199000091GF104991041041012501071001KA1999N+00461MD1710101+9999SA1+1009REMSYN094AAXX  17061 14303 32698 40903 10056 20010 40190 57010 84470 222// 00100 333 20046 92312 92428;EQDQ01  00002PRCP99
0128143030999992000031709004+45050+013620FM-12+000899999V0201601N003012200019N0200001N1+00921+00401101701ADDGF101991011041012501071001MD1710201+9999REMSYN076AAXX  17091 14303 42698 11603 10092 20040 40170 57020 81470 333 92312 92428;
0158143030999992000031712004+45050+013620FM-12+000899999V0202001N003012200019N0200001N1+01061+00501101501ADDAA199000091GF101991011011008001001001MD1710201+9999REMSYN076AAXX  17121 14303 32598 12003 10106 20050 40150 57020 81100 333 92312 92428;EQDQ01  00002PRCP99
0128143030999992000031715004+45050+013620FM-12+000899999V0202001N001012200019N0200001N1+01121+00501101301ADDGF104991041011008001001001MD1710201+9999REMSYN076AAXX  17151 14303 42598 42001 10112 20050 40130 57020 84100 333 92312 92428;
0203143030999992000031806004+45050+013620FM-12+000899999V0201101N002012200019N0200001N1+00581+00301101601ADDAA199000091GF102991021041012501071001KA1999N+00501MD1410001+9999SA1+1009REMSYN100AAXX  18061 14303 32698 21102 10058 20030 3//// 40160 54000 82470 222// 00100 333 20050 92312 92428;EQDQ01  00002PRCP99
0134143030999992000031809004+45050+013620FM-12+000899999V0201401N002010075019N0200001N1+00801+00201101801ADDGF107991071051008001999999MD1210201+9999REMSYN082AAXX  18091 14303 42598 71402 10080 20020 3//// 40180 52020 875// 333 92312 92428;
0164143030999992000031812004+45050+013620FM-12+000899999V0202001N002010075019N0200001N1+00941+00201101801ADDAA199000091GF105991051041008001001001MD1410001+9999REMSYN082AAXX  18121 14303 32598 52002 10094 20020 3//// 40180 54000 85400 333 92312 92428;EQDQ01  00002PRCP99
0144143030999992000031815004+45050+013620FM-12+000899999V0202901N002012200019N0200001N1+00981+00401101801ADDGA1001+999999999GF100991001001999999001001MD1410001+9999REMSYN076AAXX  18151 14303 42998 02902 10098 20040 3//// 40180 54000 333 92312 92428;
0203143030999992000031906004+45050+013620FM-12+000899999V0200501N001010075019N0200001N1+00561+00101102301ADDAA199000091GF108991081051008001999999KA1999N+00441MD1410001+9999SA1+1009REMSYN100AAXX  19061 14303 32598 80501 10056 20010 3//// 40230 54000 885// 222// 00100 333 20044 92312 92428;EQDQ01  00002PRCP99
0128143030999992000031909004+45050+013620FM-12+000899999V0201401N001010075019N0200001N1+00701+00201102301ADDGF108991081051008001999999MD1410001+9999REMSYN076AAXX  19091 14303 42598 81401 10070 20020 40230 54000 885// 333 92301 92418;
0158143030999992000031912004+45050+013620FM-12+000899999V0201601N002010075019N0200001N1+00921+00401102201ADDAA199000091GF107991071051008001001001MD1710101+9999REMSYN076AAXX  19121 14303 32598 71602 10092 20040 40220 57010 87500 333 92312 92428;EQDQ01  00002PRCP99
0128143030999992000031915004+45050+013620FM-12+000899999V0201401N002010075019N0200001N1+00941+00401102001ADDGF108991081051008001999999MD1710201+9999REMSYN076AAXX  19151 14303 42598 81402 10094 20040 40200 57020 885// 333 92312 92428;
0197143030999992000032006004+45050+013620FM-12+000899999V0200501N002012200019N0200001N1+00521+00001102501ADDAA199000091GF102991021041012501071001KA1999N+00501MD1210101+9999SA1+1009REMSYN094AAXX  20061 14303 32698 20502 10052 20000 40250 52010 82470 222// 00100 333 20050 92312 92428;EQDQ01  00002PRCP99
0134143030999992000032009004+45050+013620FM-12+000899999V0203201N002012200019N0200001N1+00741+00201102601ADDGF104991041021008001001001MD1210101+9999REMSYN082AAXX  20091 14303 42598 43202 10074 20020 3//// 40260 52010 84200 333 92312 92428;
0164143030999992000032012004+45050+013620FM-12+000899999V0202501N003012200019N0200001N1+00861+00301102601ADDAA199000091GF103991031041008001001001MD1410001+9999REMSYN082AAXX  20121 14303 32598 32503 10086 20030 3//// 40260 54000 83400 333 92312 92428;EQDQ01  00002PRCP99
0134143030999992000032015004+45050+013620FM-12+000899999V0202501N003012200019N0200001N1+00921+00201102401ADDGF102991021011008001001001MD1710201+9999REMSYN082AAXX  20151 14303 42598 22503 10092 20020 3//// 40240 57020 82100 333 92312 92428;
0197143030999992000032106004+45050+013620FM-12+000899999V0200901N001019999999N0200001N1+00641+00401102201ADDAA199000091GF106991061001012501051001KA1999N+00451MD1410001+9999SA1+0989REMSYN094AAXX  21061 14303 32698 60901 10064 20040 40220 54000 86050 222// 00098 333 20045 92301 92418;EQDQ01  00002PRCP99
0128143030999992000032109004+45050+013620FM-12+000899999V0202901N002012200019N0200001N1+00861+00501102301ADDGF101991011041012501071001MD1210101+9999REMSYN076AAXX  21091 14303 42698 12902 10086 20050 40230 52010 81470 333 92312 92428;
0168143030999992000032112004+45050+013620FM-12+000899999V0203201N003012200019N0200001N1+01001+00401102201ADDAA199000091GA1001+999999999GF100991001001999999001001MD1710101+9999REMSYN070AAXX  21121 14303 32998 03203 10100 20040 40220 57010 333 92312 92428;EQDQ01  00002PRCP99
0138143030999992000032115004+45050+013620FM-12+000899999V0203201N003012200019N0200001N1+01001+00401102101ADDGA1001+999999999GF100991001001999999001001MD1710101+9999REMSYN070AAXX  21151 14303 42998 03203 10100 20040 40210 57010 333 92312 92428;
0138143030999992000032209004+45050+013620FM-12+000899999V0202301N002012200019N0200001N1+00941+00501102201ADDGA1001+999999999GF100991001001999999001001MD1410001+9999REMSYN070AAXX  22091 14303 42998 02302 10094 20050 40220 54000 333 92301 92418;
0168143030999992000032212004+45050+013620FM-12+000899999V0202901N002012200019N0100001N1+01121+00701102201ADDAA199000091GA1001+999999999GF100991001001999999001001MD1410001+9999REMSYN070AAXX  22121 14303 32997 02902 10112 20070 40220 54000 333 92301 92417;EQDQ01  00002PRCP99
0123143030999992000032215004+45050+013620FM-12+000899999V0202901N002012200019N0100001N1+01301+00901102101ADDGA1001+999999999GF100991001001999999001001REMSYN069AAXX  22151 14303 42997 02902 10130 20090 40210 5010 333 92301 92417;
0207143030999992000032306004+45050+013620FM-12+000899999V0200901N002012200019N0200001N1+00721+00301102001ADDAA199000091GA1001+999999999GF100991001001999999001001KA1999N+00641MD1410001+9999SA1+0969REMSYN088AAXX  23061 14303 32998 00902 10072 20030 40200 54000 222// 00096 333 20064 92301 92418;EQDQ01  00002PRCP99
0144143030999992000032309004+45050+013620FM-12+000899999V0201401N002012200019N0200001N1+01121+00601102001ADDGA1001+999999999GF100991001001999999001001MD1410001+9999REMSYN076AAXX  23091 14303 42998 01402 10112 20060 3//// 40200 54000 333 92301 92418;
0174143030999992000032312004+45050+013620FM-12+000899999V0201801N003012200019N0200001N1+01241+00901102001ADDAA199000091GA1001+999999999GF100991001001999999001001MD1410001+9999REMSYN076AAXX  23121 14303 32998 01803 10124 20090 3//// 40200 54000 333 92312 92428;EQDQ01  00002PRCP99
0134143030999992000032315004+45050+013620FM-12+000899999V0201801N003012200019N0100001N1+01201+01001101801ADDGF102991001001999999001041MD1710201+9999REMSYN082AAXX  23151 14303 42997 21803 10120 20100 3//// 40180 57020 80004 333 92312 92427;
0203143030999992000032406004+45050+013620FM-12+000899999V0201101N003019999999N0100001N1+01021+00801101601ADDAA199000091GF108991081001012501051001KA1999N+00941MD1410001+9999SA1+1009REMSYN100AAXX  24061 14303 32697 81103 10102 20080 3//// 40160 54000 88050 222// 00100 333 20094 92312 92427;EQDQ01  00002PRCP99
0158143030999992000032409004+45050+013620FM-12+000899999V0201401N003010075019N0100001N1+01161+01001101701ADDAA199000091GF107991071041008001001001MD1210101+9999REMSYN076AAXX  24091 14303 32597 71403 10116 20100 40170 52010 87400 333 92312 92427;EQDQ01  00002PRCP99
0202143030999992000032412004+45050+013620FM-12+000899999V0201801N002019999999N0020001N1+01101+00901101701ADDAA199000091AY121061AY221061GF108991001001999999001071MD1410001+9999MW1101REMSYN082AAXX  24121 14303 31995 81802 10110 20090 40170 54000 71022 88007 333 92312 92425;EQDQ01+000082SCOTLCQ02  00002PRCP99
0156143030999992000032415004+45050+013620FM-12+000899999V0201401N001019999999N0010001N1+01121+00801101701ADDAY121031AY221031GF108991001001999999001071MD1410001+9999MW1101REMSYN082AAXX  24151 14303 41994 81401 10112 20080 40170 54000 71022 80007 333 92301 92414;
0218143030999992000032506004+45050+013620FM-12+000899999V0201101N002010075019N0040001N1+01061+00701101701ADDAA112000591AY121061AY221061GF107991071051008001999999KA1999N+00981MD1410001+9999MW1101SA1+1029REMSYN112AAXX  25061 14303 12596 71102 10106 20070 3//// 40170 54000 69962 71022 875// 222// 00102 333 20098 92312 92426;
0162143030999992000032509004+45050+013620FM-12+000899999V0201401N002010075019N0100001N1+01161+01001101801ADDAY121031AY221031GF107991071051008001999999MD1210101+9999MW1601REMSYN088AAXX  25091 14303 41597 71402 10116 20100 3//// 40180 52010 76022 875// 333 92312 92427;
0145143030999992000032512004+45050+013620FM-12+000899999V0201801N002010120019N0100001N1+01161+01001101901ADDAA199000021GF107991071021012501091001MD1210101+9999REMSYN082AAXX  25121 14303 32697 71802 10116 20100 3//// 40190 52010 87290 333 92301 92417;
0134143030999992000032515004+45050+013620FM-12+000899999V0202001N002012200019N0040001N1+01261+01101101801ADDGF102991021021008001001011MD1710101+9999REMSYN082AAXX  25151 14303 42596 22002 10126 20110 3//// 40180 57010 82201 333 92301 92416;
0186143030999992000032606004+45050+013620FM-12+000899999V0201101N002010075019N0100001N1+01121+01001101501ADDGF108991999071008001021999KA1999N+00951MD1710101+9999SA1+1029REMSYN094AAXX  26061 14303 12597 81102 10112 20100 40150 57010 8872/ 222// 00102 333 20095 92312 92427;EQDQ01+000082SCOTLC
0175143030999992000032609004+45050+013620FM-12+000899999V0201401N002010075019N0040001N1+01121+01001101501ADDAY161031AY221031GF108991999071008001021999MD1410001+9999MW1601REMSYN082AAXX  26091 14303 41596 81402 10112 20100 40150 54000 76062 8872/ 333 92312 92426;EQDQ01+000082SCOTLC
0186143030999992000032612004+45050+013620FM-12+000899999V0201601N003010075019N0040001N1+01161+01001101301ADDAA199000021AY161061AY221061GF108991999071008001021999MD1710201+9999MW1101REMSYN082AAXX  26121 14303 31596 81603 10116 20100 40130 57020 71062 8872/ 333 92312 92426;EQDQ01+000082SCOTLC
0175143030999992000032615004+45050+013620FM-12+000899999V0201601N002010075019N0040001N1+01141+01001101101ADDAY161031AY221031GF108991999071008001021999MD1710201+9999MW1101REMSYN082AAXX  26151 14303 41596 81602 10114 20100 40110 57020 71062 8872/ 333 92312 92426;EQDQ01+000082SCOTLC
0184143030999992000032706004+45050+013620FM-12+000899999V0202301N003010075019N0200001N1+01081+00901100501ADDAA124006191GF108991071071008001021999KA1999N+01021MD1710101+9999SA1+1059REMSYN100AAXX  27061 14303 12598 82303 10108 20090 40050 57010 60064 8772/ 222// 00105 333 20102 92323 92438;
0128143030999992000032709004+45050+013620FM-12+000899999V0201601N003010075019N0200001N1+01081+00901100501ADDGF107991071051008001001001MD1410001+9999REMSYN076AAXX  27091 14303 42598 71603 10108 20090 40050 54000 87500 333 92323 92438;
0158143030999992000032712004+45050+013620FM-12+000899999V0201401N002010210019N0200001N1+01161+00801100401ADDAA199000091GF105991051001022501051001MD1710101+9999REMSYN076AAXX  27121 14303 32898 51402 10116 20080 40040 57010 85050 333 92312 92428;EQDQ01  00002PRCP99
0128143030999992000032715004+45050+013620FM-12+000899999V0201601N004010075019N0200001N1+00981+00401100401ADDGF108991081091008001999999MD1410001+9999REMSYN076AAXX  27151 14303 42598 81604 10098 20040 40040 54000 889// 333 92323 92438;
0183143030999992000032806004+45050+013620FM-12+000899999V0200901N002019999999N0200001N1+00901+00701100901ADDAA199000091GF107991071001012501051001KA1999N+00851MD1210101+9999REMSYN088AAXX  28061 14303 32698 70902 10090 20070 40090 52010 87050 333 20085 92312 92428 00105;EQDQ01  00002PRCP99
0128143030999992000032809004+45050+013620FM-12+000899999V0201601N003010120019N0200001N1+01081+00901101001ADDGF106991061021012501091001MD1210101+9999REMSYN076AAXX  28091 14303 42698 61603 10108 20090 40100 52010 86290 333 92312 92428;
0158143030999992000032812004+45050+013620FM-12+000899999V0201801N003010075019N0200001N1+01081+00901101101ADDAA199000091GF108991081051008001999999MD1210101+9999REMSYN076AAXX  28121 14303 32598 81803 10108 20090 40110 52010 885// 333 92312 92428;EQDQ01  00002PRCP99
0147143030999992000032815004+45050+013620FM-12+000899999V0201401N002010075019N0200001N1+01101+00701101001ADDGF108991999071008001021999MD1710101+9999REMSYN076AAXX  28151 14303 42598 81402 10110 20070 40100 57010 8872/ 333 92312 92428;EQDQ01+000082SCOTLC
0225143030999992000032906004+45050+013620FM-12+000899999V0201801N006010075019N0040001N1+01181+01001100801ADDAA199000021AY121061AY201061GF108991999071008001021999KA1999N+01001MD1210101+9999MW1621SA1+1059REMSYN100AAXX  29061 14303 31596 81806 10118 20100 40080 52010 76220 8872/ 222// 00105 333 20100 92323 92436;EQDQ01+000082SCOTLC
0175143030999992000032909004+45050+013620FM-12+000899999V0201401N006010075019N0040001N1+01141+01001100701ADDAY161031AY221031GF108991999071008001021999MD1710101+9999MW1601REMSYN082AAXX  29091 14303 41596 81406 10114 20100 40070 57010 76062 8872/ 333 92323 92436;EQDQ01+000082SCOTLC
0158143030999992000032912004+45050+013620FM-12+000899999V0201601N005010075019N0200001N1+01141+01001100601ADDAA199000021GF108991999071008001021999MD1710101+9999REMSYN076AAXX  29121 14303 32598 81605 10114 20100 40060 57010 8872/ 333 92323 92438;EQDQ01+000082SCOTLC
0128143030999992000032915004+45050+013620FM-12+000899999V0202701N002010075019N0100001N1+01041+00901100601ADDGF108991081051008001999999MD1410001+9999REMSYN076AAXX  29151 14303 42597 82702 10104 20090 40060 54000 885// 333 92312 94237;
0170143030999992000033006004+45050+013620FM-12+000899999V0202301N005012200019N0200001N1+01041+99999101001ADDAA118025991GF102991021091012501061001KA1999N+01021MD1410001+9999REMSYN094AAXX  30061 14303 12698 22305 10104 22006 3//// 40100 54000 60263 82960 333 20102 92323 92438;
0134143030999992000033009004+45050+013620FM-12+000899999V0202301N005010075019N0200001N1+01081+00701101101ADDGF107991071051008001001001MD1210101+9999REMSYN082AAXX  30091 14303 42598 72305 10108 20070 3//// 40110 52010 87500 333 92323 92438;
0164143030999992000033012004+45050+013620FM-12+000899999V0202001N003012200019N0200001N1+01181+00801101101ADDAA199000091GF101991011041012501071001MD1410001+9999REMSYN082AAXX  30121 14303 32698 12003 10118 20080 3//// 40110 54000 81470 333 92323 92438;EQDQ01  00002PRCP99
0134143030999992000033015004+45050+013620FM-12+000899999V0202301N004012200019N0200001N1+01221+00701101001ADDGF104991041021008001001001MD1710101+9999REMSYN082AAXX  30151 14303 42598 42304 10122 20070 3//// 40100 57010 84200 333 92323 92438;
0207143030999992000033106004+45050+013620FM-12+000899999V0202301N003012200019N0200001N1+01061+00701101001ADDAA199000091GA1001+999999999GF100991001001999999001001KA1999N+01051MD1410001+9999SA1+1069REMSYN088AAXX  31061 14303 32998 02303 10106 20070 40100 54000 222// 00106 333 20105 92323 92438;EQDQ01  00002PRCP99
0138143030999992000033109004+45050+013620FM-12+000899999V0202001N003012200019N0200001N1+01161+00701101101ADDGA1001+999999999GF100991001001999999001001MD1210101+9999REMSYN070AAXX  31091 14303 42998 02003 10116 20070 40110 52010 333 92323 92438;
0158143030999992000033112004+45050+013620FM-12+000899999V0202001N003010150019N0200001N1+01201+00801101101ADDAA199000091GF107991071011017501001061MD1010001+9999REMSYN076AAXX  31121 14303 32798 72003 10120 20080 40110 50000 87106 333 92312 92428;EQDQ01  00002PRCP99
0128143030999992000033115004+45050+013620FM-12+000899999V0201601N002012200019N0200001N1+01221+00901101001ADDGF104991041021017501001051MD1710101+9999REMSYN076AAXX  31151 14303 42798 41602 10122 20090 40100 57010 84205 333 92312 92428;
0213143030999992000040106004+45050+013620FM-12+000899999V0200501N002010120019N0200001N1+01061+00701100201ADDAA199000091GF108991999071012501011999KA1999N+01021MD1710201+9999SA1+1049REMSYN094AAXX  01061 14303 32698 80502 10106 20070 40020 57020 8871/ 222// 00104 333 20102 92312 92428;EQDQ01+000082SCOTLCQ02  00002PRCP99
0175143030999992000040109004+45050+013620FM-12+000899999V0200901N002010075019N0200001N1+00981+00601100201ADDAY161031AY261031GF108991999071008001021999MD1410001+9999MW1601REMSYN082AAXX  01091 14303 41598 80902 10098 20060 40020 54000 76066 8872/ 333 92312 92428;EQDQ01+000082SCOTLC
0175143030999992000040112004+45050+013620FM-12+000899999V0203201N005010075019N0200001N1+00841+00601100201ADDAY161061AY261061GF108991999071008001021999MD1410001+9999MW1601REMSYN082AAXX  01121 14303 41598 83205 10084 20060 40020 54000 76066 8872/ 333 92323 92438;EQDQ01+000082SCOTLC
0175143030999992000040115004+45050+013620FM-12+000899999V0203201N005010075019N0200001N1+00801+00601100201ADDAY161031AY211031GF108991999071008001021999MD1410001+9999MW1601REMSYN082AAXX  01151 14303 41598 83205 10080 20060 40020 54000 76061 8872/ 333 92333 92438;EQDQ01+000082SCOTLC
0128143030999992000040209004+45050+013620FM-12+000899999V0201601N004012200019N0200001N1+01081+00701101101ADDGF102991021001012501001041MD1210101+9999REMSYN076AAXX  02091 14303 42698 21604 10108 20070 40110 52010 82004 333 92312 92428;
0158143030999992000040212004+45050+013620FM-12+000899999V0201801N004010075019N0200001N1+01181+00801101101ADDAA199000091GF106991061091008001061001MD1410001+9999REMSYN076AAXX  02121 14303 32598 61804 10118 20080 40110 54000 86960 333 92312 92428;EQDQ01  00002PRCP99
0128143030999992000040215004+45050+013620FM-12+000899999V0201801N005010075019N0200001N1+01201+00801101001ADDGF105991051091008001061001MD1710101+9999REMSYN076AAXX  02151 14303 42598 51805 10120 20080 40100 57010 85960 333 92323 92438;
0237143030999992000040306004+45050+013620FM-12+000899999V0200901N004010075019N0200001N1+01041+00801100601ADDAA118002091AY161061AY211061GF108991999071008001021999KA1999N+00641MD1410001+9999MW1601SA1+1059REMSYN112AAXX  03061 14303 11598 80904 10104 20080 3//// 40060 54000 60023 76061 8872/ 222// 00105 333 20064 92323 92438;EQDQ01+000082SCOTLC
0181143030999992000040309004+45050+013620FM-12+000899999V0201401N006010075019N0200001N1+01181+00801100401ADDAY151031AY221031GF108991999071008001021999MD1710201+9999MW1501REMSYN088AAXX  03091 14303 41598 81406 10118 20080 3//// 40040 57020 75052 8872/ 333 92334 92448;EQDQ01+000082SCOTLC
0164143030999992000040312004+45050+013620FM-12+000899999V0201601N007010075019N0200001N1+01221+01001100201ADDAA199000021GF108991999071008001021999MD1710201+9999REMSYN082AAXX  03121 14303 32598 81607 10122 20100 3//// 40020 57020 8872/ 333 92334 92448;EQDQ01+000082SCOTLC
0134143030999992000040315004+45050+013620FM-12+000899999V0201601N007010075019N0200001N1+01261+00801100101ADDGF108991061071008001021999MD1710101+9999REMSYN082AAXX  03151 14303 42598 81607 10126 20080 3//// 40010 57010 8672/ 333 92334 92448;
0203143030999992000040406004+45050+013620FM-12+000899999V0201801N004010075019N0100001N1+01141+01001100101ADDAA112005191GF108991999071008001021999KA1999N+00601MD1410001+9999SA1+1049REMSYN100AAXX  04061 14303 12597 81804 10114 20100 40010 54000 60052 8872/ 222// 00104 333 20060 92323 92437;EQDQ01+000082SCOTLC
0147143030999992000040409004+45050+013620FM-12+000899999V0201801N002010075019N0100001N1+01161+01001100201ADDGF108991999071008001021999MD1210101+9999REMSYN076AAXX  04091 14303 42597 81802 10116 20100 40020 52010 8872/ 333 92323 92437;EQDQ01+000082SCOTLC
0186143030999992000040412004+45050+013620FM-12+000899999V0201801N002019999999N0040001N1+01201+01101100201ADDAA199000091AY111061AY211061GF107991071001008001081001MD1410001+9999MW1101REMSYN082AAXX  04121 14303 31596 71802 10120 20110 40020 54000 71011 87080 333 92312 92426;EQDQ01  00002PRCP99
0147143030999992000040415004+45050+013620FM-12+000899999V0201801N005010075019N0100001N1+01221+01101100001ADDGF108991999071008001021999MD1710201+9999REMSYN076AAXX  04151 14303 42597 81805 10122 20110 40000 57020 8872/ 333 92323 92437;EQDQ01+000082SCOTLC
0225143030999992000040506004+45050+013620FM-12+000899999V0202901N005019999999N0020001N1+01001+00801099931ADDAA199000091AY111061AY221061GF108991081001008001081001KA1999N+00601MD1410001+9999MW1101SA1+1059REMSYN100AAXX  05061 14303 31595 82905 10100 20080 49993 54000 71012 88080 222// 00105 333 20060 92323 92435;EQDQ01  00002PRCP99
0128143030999992000040509004+45050+013620FM-12+000899999V0202701N005019999999N0100001N1+01041+00801099971ADDGF107991071001008001081001MD1210401+9999REMSYN076AAXX  05091 14303 42597 72705 10104 20080 49997 52040 87080 333 92323 92437;
0138143030999992000040512004+45050+013620FM-12+000899999V0201801N001019999999N0200001N1+01321+00901099991ADDAA199000091GF105991051001008001071001REMSYN070AAXX  05121 14303 32598 51801 10132 20090 49999 85070 333 92323 92437;EQDQ01  00002PRCP99
0138143030999992000040515004+45050+013620FM-12+000899999V0201601N002012200019N0200001N1+01401+01001100101ADDGA1001+999999999GF100991001001999999001001MD1210201+9999REMSYN070AAXX  05151 14303 42998 01602 10140 20100 40010 52020 333 92312 92428;
0197143030999992000040606004+45050+013620FM-12+000899999V0200901N002010075019N0200001N1+01081+00901100901ADDAA199000091GF107991071021008001001001KA1999N+00581MD1210201+9999SA1+1089REMSYN094AAXX  06061 14303 32598 70902 10108 20090 40090 52020 87200 222// 00108 333 20058 92312 92428;EQDQ01  00002PRCP99
0128143030999992000040609004+45050+013620FM-12+000899999V0202001N002010075019N0200001N1+01241+01001101101ADDGF105991051091008001061001MD1210201+9999REMSYN076AAXX  06091 14303 42598 52002 10124 20100 40110 52020 85960 333 92312 92428;
0158143030999992000040612004+45050+013620FM-12+000899999V0202001N004010075019N0200001N1+01281+01101101101ADDAA199000091GF105991051041008001041001MD1410001+9999REMSYN076AAXX  06121 14303 32598 52004 10128 20110 40110 54000 85440 333 92312 92428;EQDQ01  00002PRCP99
0156143030999992000040615004+45050+013620FM-12+000899999V0202301N003010075019N0040001N1+01261+01001101201ADDAY111031AY211031GF105991051031008001041001MD1210101+9999MW1101REMSYN082AAXX  06151 14303 41596 52303 10126 20100 40120 52010 71011 85340 333 92312 92426;
0177143030999992000040706004+45050+013620FM-12+000899999V0200501N003012200019N0200001N1+00821+00001102401ADDAA199000091GF103991031081012501041001KA1999N+00681MD1210301+9999REMSYN082AAXX  07061 14303 32698 30503 10082 20000 40240 52030 83840 333 20068 92312 92428;EQDQ01  00002PRCP99
0128143030999992000040709004+45050+013620FM-12+000899999V0203101N004012200019N0200001N1+01001-00101102401ADDGF101991011081012501041001MD1410001+9999REMSYN076AAXX  07091 14303 42698 13104 10100 21010 40240 54000 81840 333 92312 92428;
0168143030999992000040712004+45050+013620FM-12+000899999V0202501N004012200019N0200001N1+01261+00001102301ADDAA199000091GA1001+999999999GF100991001001999999001001MD1710101+9999REMSYN070AAXX  07121 14303 32698 02504 10126 20000 40230 57010 333 92312 92428;EQDQ01  00002PRCP99
0138143030999992000040715004+45050+013620FM-12+000899999V0203201N004012200019N0200001N1+01181+00401102201ADDGA1001+999999999GF100991001001999999001001MD1710101+9999REMSYN070AAXX  07151 14303 42098 03204 10118 20040 40220 57010 333 92323 92438;
0183143030999992000040806004+45050+013620FM-12+000899999V0200901N002012200019N0200001N1+00801+00601102401ADDAA199000091GF102991021081012501041001KA1999N+00691MD1210101+9999REMSYN088AAXX  08061 14303 32698 20902 10080 20060 40240 52010 82840 333 20069 92311 92418 00110;EQDQ01  00002PRCP99
0138143030999992000040809004+45050+013620FM-12+000899999V0203201N003012200019N0200001N1+01081+00501102301ADDGA1001+999999999GF100991001001999999001001MD1710101+9999REMSYN070AAXX  08091 14303 42998 03203 10108 20050 40230 57010 333 92311 92418;
0168143030999992000040812004+45050+013620FM-12+000899999V0202901N003012200019N0200001N1+01181+00401102301ADDAA199000091GA1001+999999999GF100991001001999999001001MD1410001+9999REMSYN070AAXX  08121 14303 32998 02903 10118 20040 40230 54000 333 92311 92418;EQDQ01  00002PRCP99
0138143030999992000040815004+45050+013620FM-12+000899999V0202701N002012200019N0200001N1+01401+00601102001ADDGA1001+999999999GF100991001001999999001001MD1710301+9999REMSYN070AAXX  08151 14303 42998 02702 10140 20060 40200 57030 333 92311 92418;
0219143030999992000040906004+45050+013620FM-12+000899999V0200901N004019999999N0200001N1+01001+00401101701ADDAA199000091GF108991001001999999001041KA1999N+00761MD1710101+9999SA1+1129REMSYN100AAXX  09061 14303 32798 80904 10100 20040 3//// 40170 57010 80004 222// 00112 333 20076 92312 92428;EQDQ01+017502SCOLCBQ02  00002PRCP99
0169143030999992000040909004+45050+013620FM-12+000899999V0201401N004019999999N0200001N1+01261+00501101701ADDGF108991001001999999001071MD1410001+9999REMSYN082AAXX  09091 14303 42798 81404 10126 20050 3//// 40170 56000 80007 333 92323 92438;EQDQ01+017502SCOLCBQ02+000062APCTEN
0164143030999992000040912004+45050+013620FM-12+000899999V0201601N004010150019N0200001N1+01301+00901101601ADDAA199000091GF108991061011017501001061MD1710101+9999REMSYN082AAXX  09121 14303 32798 81604 10130 20090 3//// 40160 57010 86106 333 92323 92438;EQDQ01  00002PRCP99
0153143030999992000040915004+45050+013620FM-12+000899999V0201401N004010120019N0200001N1+01261+00801101501ADDGF108991999071012501011999MD1710101+9999REMSYN082AAXX  09151 14303 42698 81404 10126 20080 3//// 40150 57010 8871/ 333 92323 92438;EQDQ01+000082SCOTLC
0212143030999992000041006004+45050+013620FM-12+000899999V0201101N003010075019N0200001N1+01101+00701101101ADDAA124000791AY161061AY221061GF108991081061008001999999KA1999N+01041MD1710101+9999MW1601SA1+1109REMSYN106AAXX  10061 14303 11598 81103 10110 20070 40110 57010 69904 76062 886// 222// 00110 333 20104 92323 92438;
0128143030999992000041009004+45050+013620FM-12+000899999V0201401N003010075019N0200001N1+01101+00701101101ADDGF108991081051008001999999MD1410001+9999REMSYN076AAXX  10091 14303 42598 81403 10110 20070 40110 54000 885// 333 92323 92438;
0186143030999992000041012004+45050+013620FM-12+000899999V0201401N004010075019N0200001N1+01081+00701101001ADDAA199000021AY161061AY221061GF108991999071008001021999MD1710101+9999MW1601REMSYN082AAXX  10121 14303 31598 81404 10108 20070 40100 57010 76062 8872/ 333 92334 92448;EQDQ01+000082SCOTLC
0175143030999992000041015004+45050+013620FM-12+000899999V0200901N003010075019N0200001N1+01081+00701100801ADDAY161031AY221031GF108991999071008001021999MD1710201+9999MW1601REMSYN082AAXX  10151 14303 41598 80903 10108 20070 40080 57020 76062 8872/ 333 92323 92438;EQDQ01+000082SCOTLC
0237143030999992000041106004+45050+013620FM-12+000899999V0201401N004010075019N0100001N1+01001+00801100301ADDAA112000191AY161061AY221061GF108991999071008001021999KA1999N+00921MD1710101+9999MW1501SA1+1089REMSYN112AAXX  11061 14303 11597 81404 10100 20080 3//// 40030 57010 69922 75062 8872/ 222// 00108 333 20092 92323 92437;EQDQ01+000082SCOTLC
0124143030999992000041109004+45050+013620FM-12+000899999V0202001N003010075019N0100001N1+01101+00901100301ADDGF108991081071008001999999MD1410001+9999REMSYN072AAXX  11091 14303 42597 82003 10110 20090 3//// 40030 54000 887// 92312;
0145143030999992000041112004+45050+013620FM-12+000899999V0201801N003010075019N0200001N1+01241+00901100301ADDAA199000021GF108991081021008001999999MD1410001+9999REMSYN082AAXX  11121 14303 32598 81803 10124 20090 3//// 40030 54000 882// 333 92312 92428;
0162143030999992000041115004+45050+013620FM-12+000899999V0201801N003010075019N0200001N1+01161+01001100201ADDAY121031AY221031GF108991081071008001999999MD1710101+9999MW1611REMSYN088AAXX  11151 14303 41598 81803 10116 20100 3//// 40020 57010 76122 887// 333 92312 92428;
