0166167260999992000010100504+37070+022020FM-15+0008LGKL V0202801N002110240019N0080001N1+00601+00401999999ADDGA1021+006009999GA2021+009009999GA3071+024009999GF107991999999999999999999MA1101691999999MW1001REMMET059LGKL 010050Z 28004KT 8000 FEW020 SCT030 BKN080 06/04 Q1017;
0166167260999992000010101504+37070+022020FM-15+0008LGKL V0203001N002110240019N0080001N1+00701+00501999999ADDGA1021+006009999GA2021+009009999GA3071+024009999GF107991999999999999999999MA1101691999999MW1001REMMET059LGKL 010150Z 30004KT 8000 FEW020 SCT030 BKN080 07/05 Q1017;
0166167260999992000010102504+37070+022020FM-15+0008LGKL V0209999C000010240019N0080001N1+00701+00401999999ADDGA1021+006009999GA2021+009009999GA3071+024009999GF107991999999999999999999MA1101691999999MW1001REMMET059LGKL 010250Z 00000KT 8000 FEW020 SCT030 BKN080 07/04 Q1017;
0166167260999992000010104504+37070+022020FM-15+0008LGKL V0209999C000010210019N0080001N1+00601+00401999999ADDGA1021+003009999GA2021+006009999GA3071+021009999GF107991999999999999999999MA1101801999999MW1001REMMET059LGKL 010450Z 00000KT 8000 FEW010 SCT020 BKN070 06/04 Q1018;
0173167260999992000010105504+37070+022020FM-15+0008LGKL V0209999C000010210019N0080001N1+00701+00401999999ADDGA1021+003009999GA2021+006009999GA3071+021009999GF107991999999999999999999MA1101801999999MW1001REMMET066LGKL 010550Z 00000KT 8000 FEW010 SCT020 BKN070 07/04 Q1018 SCT030;
0166167260999992000010106504+37070+022020FM-15+0008LGKL V0209999C000010540019N0070001N1+00701+00401999999ADDGA1021+006009999GA2021+010509999GA3071+054009999GF107991999999999999999999MA1101901999999MW1001REMMET059LGKL 010650Z 00000KT 7000 FEW020 SCT035 BKN180 07/04 Q1019;
0143167260999992000010107504+37070+022020FM-15+0008LGKL V0209999C000012200019N0112651N1+00701+00401999999ADDGA1021+006009999GA2021+054009999GF104991999999999999999999MA1101901999999MW1001REMMET052LGKL 010750Z 00000KT 9999 FEW020 SCT180 07/04 Q1019;
0143167260999992000010108504+37070+022020FM-15+0008LGKL V0209999C000010540019N0112651N1+00901+00501999999ADDGA1021+006009999GA2071+054009999GF107991999999999999999999MA1101901999999MW1001REMMET052LGKL 010850Z 00000KT 9999 FEW020 BKN180 09/05 Q1019;
0166167260999992000010112204+37070+022020FM-15+0008LGKL V0209999C000010540019N0112651N1+01201+00301999999ADDGA1021+006009999GA2021+024009999GA3071+054009999GF107991999999999999999999MA1101801999999MW1001REMMET059LGKL 011220Z 00000KT 9999 FEW020 SCT080 BKN180 12/03 Q1018;
0166167260999992000010112504+37070+022020FM-15+0008LGKL V0209999C000010540019N0112651N1+01201+00301999999ADDGA1021+006009999GA2021+010509999GA3071+054009999GF107991999999999999999999MA1101801999999MW1001REMMET059LGKL 011250Z 00000KT 9999 FEW020 SCT035 BKN180 12/03 Q1018;
0166167260999992000010113504+37070+022020FM-15+0008LGKL V0203301N002110540019N0112651N1+01101+00401999999ADDGA1021+006009999GA2021+024009999GA3071+054009999GF107991999999999999999999MA1101901999999MW1001REMMET059LGKL 011350Z 33004KT 9999 FEW020 SCT080 BKN180 11/04 Q1019;
0166167260999992000010114504+37070+022020FM-15+0008LGKL V0209999C000010540019N0112651N1+01101+00501999999ADDGA1021+006009999GA2021+024009999GA3071+054009999GF107991999999999999999999MA1101901999999MW1001REMMET059LGKL 011450Z 00000KT 9999 FEW020 SCT080 BKN180 11/05 Q1019;
0166167260999992000010115504+37070+022020FM-15+0008LGKL V0209999C000010540019N0112651N1+00901+00601999999ADDGA1021+006009999GA2021+024009999GA3071+054009999GF107991999999999999999999MA1101901999999MW1001REMMET059LGKL 011550Z 00000KT 9999 FEW020 SCT080 BKN180 09/06 Q1019;
0166167260999992000010116504+37070+022020FM-15+0008LGKL V0209999C000010540019N0112651N1+00901+00601999999ADDGA1021+006009999GA2021+024009999GA3071+054009999GF107991999999999999999999MA1101901999999MW1001REMMET059LGKL 011650Z 00000KT 9999 FEW020 SCT080 BKN180 09/06 Q1019;
0166167260999992000010117504+37070+022020FM-15+0008LGKL V0209999C000010540019N0080001N1+00701+00501999999ADDGA1021+006009999GA2021+024009999GA3071+054009999GF107991999999999999999999MA1101901999999MW1001REMMET059LGKL 011750Z 00000KT 8000 FEW020 SCT080 BKN180 07/05 Q1019;
0166167260999992000010118504+37070+022020FM-15+0008LGKL V0203001N002110540019N0080001N1+00701+00501999999ADDGA1021+006009999GA2021+024009999GA3071+054009999GF107991999999999999999999MA1102001999999MW1001REMMET059LGKL 011850Z 30004KT 8000 FEW020 SCT080 BKN180 07/05 Q1020;
0166167260999992000010119504+37070+022020FM-15+0008LGKL V0203001N003610540019N0080001N1+00701+00501999999ADDGA1021+006009999GA2021+024009999GA3071+054009999GF107991999999999999999999MA1102001999999MW1001REMMET059LGKL 011950Z 30007KT 8000 FEW020 SCT080 BKN180 07/05 Q1020;
0166167260999992000010120504+37070+022020FM-15+0008LGKL V0209999C000010240019N0080001N1+00701+00501999999ADDGA1021+006009999GA2021+010509999GA3071+024009999GF107991999999999999999999MA1102001999999MW1001REMMET059LGKL 012050Z 00000KT 8000 FEW020 SCT035 BKN080 07/05 Q1020;
0166167260999992000010121504+37070+022020FM-15+0008LGKL V0209999C000010240019N0080001N1+00601+00501999999ADDGA1021+006009999GA2021+010509999GA3071+024009999GF107991999999999999999999MA1102001999999MW1001REMMET059LGKL 012150Z 00000KT 8000 FEW020 SCT035 BKN080 06/05 Q1020;
0143167260999992000010123504+37070+022020FM-15+0008LGKL V0203001N002612200019N0080001N1+00601+00501999999ADDGA1021+006009999GA2021+010509999GF104991999999999999999999MA1101901999999MW1001REMMET052LGKL 012350Z 30005KT 8000 FEW020 SCT035 06/05 Q1019;
0154167260999992000010200504+37070+022020FM-15+0008LGKL V0202801N002612200019N0080001N1+99999+99999999999ADDGA1021+006009999GA2021+010509999GF104991999999999999999999MW1001REMMET059LGKL 020050Z 28005KT 8000 FEW020 SCT035 BJM080 05/04 Q1019;EQDQ01+000000PRSWM2
0162167260999992000010201504+37070+022020FM-15+0008LGKL V0202801N003612200019N0080001N1+00501+00401999999ADDGA1021+006009999GA2021+010509999GF104991999999999999999999MA1101901999999MW1001REMMET052LGKL 020150Z 28007KT 8000 FEW020 SCT035 05/04 Q1019;EQDQ01+000000PRSWM2
0162167260999992000010202504+37070+022020FM-15+0008LGKL V0203201N002612200019N0080001N1+00401+00401999999ADDGA1021+006009999GA2021+010509999GF104991999999999999999999MA1101901999999MW1001REMMET052LGKL 020250Z 32005KT 8000 FEW020 SCT035 04/04 Q1019;EQDQ01+000000PRSWM2
0154167260999992000010205204+37070+022020FM-15+0008LGKL V0202801N004112200019N0080001N1+99999+99999999999ADDGA1021+006009999GA2021+021009999GF104991999999999999999999MW1001REMMET059LGKL 020520Z 28008KT 8000 FEW020 SCT070 ?  180 04/04 Q1019;EQDQ01+000000PRSWM2
0154167260999992000010205504+37070+022020FM-15+0008LGKL V0202901N003612200019N0080001N1+99999+99999999999ADDGA1021+006009999GA2021+021009999GF104991999999999999999999MW1001REMMET059LGKL 020550Z 29007KT 8000 FEW020 SCT070 ?  180 05/03 Q1019;EQDQ01+000000PRSWM2
0154167260999992000010206504+37070+022020FM-15+0008LGKL V0202901N003612200019N0080001N1+99999+99999999999ADDGA1021+006009999GA2021+021009999GF104991999999999999999999MW1001REMMET059LGKL 020650Z 29007KT 8000 FEW020 SCT070 BJM180 04/03 Q1019;EQDQ01+000000PRSWM2
0162167260999992000010207504+37070+022020FM-15+0008LGKL V0203001N002612200019N0080001N1+00701+00401999999ADDGA1021+007509999GA2021+024009999GF104991999999999999999999MA1101901999999MW1001REMMET052LGKL 020750Z 30005KT 8000 FEW025 SCT080 07/04 Q1019;EQDQ01+000000PRSWM2
0162167260999992000010208504+37070+022020FM-15+0008LGKL V0202801N002612200019N0080001N1+00801+00501999999ADDGA1021+007509999GA2021+024009999GF104991999999999999999999MA1101901999999MW1001REMMET052LGKL 020850Z 28005KT 8000 FEW025 SCT080 08/05 Q1019;EQDQ01+000000PRSWM2
0162167260999992000010209504+37070+022020FM-15+0008LGKL V0203201N003112200019N0080001N1+01201+00201999999ADDGA1021+007509999GA2021+024009999GF104991999999999999999999MA1101901999999MW1001REMMET052LGKL 020950Z 32006KT 8000 FEW025 SCT080 12/02 Q1019;EQDQ01+000000PRSWM2
0185167260999992000010210504+37070+022020FM-15+0008LGKL V0203501N004610240019N0080001N1+01301+00301999999ADDGA1021+006009999GA2021+010509999GA3071+024009999GF107991999999999999999999MA1101801999999MW1001REMMET059LGKL 021050Z 35009KT 8000 FEW020 SCT035 BKN080 13/03 Q1018;EQDQ01+000000PRSWM2
0185167260999992000010211504+37070+022020FM-15+0008LGKL V0203201N003110240019N0080001N1+01301+00001999999ADDGA1021+006009999GA2021+010509999GA3071+024009999GF107991999999999999999999MA1101801999999MW1001REMMET059LGKL 021150Z 32006KT 8000 FEW020 SCT035 BKN080 13/00 Q1018;EQDQ01+000000PRSWM2
0185167260999992000010212504+37070+022020FM-15+0008LGKL V0202701N003610240019N0112651N1+01301+00001999999ADDGA1021+006009999GA2021+010509999GA3071+024009999GF107991999999999999999999MA1101801999999MW1001REMMET059LGKL 021250Z 27007KT 9999 FEW020 SCT035 BKN080 13/00 Q1018;EQDQ01+000000PRSWM2
0162167260999992000010214504+37070+022020FM-15+0008LGKL V0203301N002112200019N0112651N1+01001+00201999999ADDGA1021+006009999GA2021+012009999GF104991999999999999999999MA1101801999999MW1001REMMET052LGKL 021450Z 33004KT 9999 FEW020 SCT040 10/02 Q1018;EQDQ01+000000PRSWM2
0162167260999992000010216204+37070+022020FM-15+0008LGKL V0203201N002112200019N0112651N1+01001+00201999999ADDGA1021+006009999GA2021+012009999GF104991999999999999999999MA1101801999999MW1001REMMET052LGKL 021620Z 32004KT 9999 FEW020 SCT040 10/02 Q1018;EQDQ01+000000PRSWM2
0162167260999992000010216504+37070+022020FM-15+0008LGKL V0209999C000012200019N0112651N1+00701+00401999999ADDGA1021+006009999GA2021+012009999GF104991999999999999999999MA1101801999999MW1001REMMET052LGKL 021650Z 00000KT 9999 FEW020 SCT040 07/04 Q1018;EQDQ01+000000PRSWM2
0139167260999992000010217504+37070+022020FM-15+0008LGKL V0202801N003612200019N0112651N1+00601+00301999999ADDGA1021+006009999GF102991999999999999999999MA1101801999999MW1001REMMET045LGKL 021750Z 28007KT 9999 FEW020 06/03 Q1018;EQDQ01+000000PRSWM2
0139167260999992000010219204+37070+022020FM-15+0008LGKL V0209999C000012200019N0112651N1+00601+00301999999ADDGA1021+006009999GF102991999999999999999999MA1101801999999MW1001REMMET045LGKL 021920Z 00000KT 9999 FEW020 06/03 Q1018;EQDQ01+000000PRSWM2
0139167260999992000010220204+37070+022020FM-15+0008LGKL V0203001N003112200019N0112651N1+00501+00301999999ADDGA1021+006009999GF102991999999999999999999MA1101801999999MW1001REMMET045LGKL 022020Z 30006KT 9999 FEW020 05/03 Q1018;EQDQ01+000000PRSWM2
0139167260999992000010220504+37070+022020FM-15+0008LGKL V0203001N003612200019N0112651N1+00401+00201999999ADDGA1021+006009999GF102991999999999999999999MA1101801999999MW1001REMMET045LGKL 022050Z 30007KT 9999 FEW020 04/02 Q1018;EQDQ01+000000PRSWM2
0139167260999992000010223204+37070+022020FM-15+0008LGKL V0202901N003612200019N0112651N1+00401+00201999999ADDGA1021+006009999GF102991999999999999999999MA1101801999999MW1001REMMET045LGKL 022320Z 29007KT 9999 FEW020 04/02 Q1018;EQDQ01+000000PRSWM2
0139167260999992000010223504+37070+022020FM-15+0008LGKL V0202901N004112200019N0112651N1+00401+00201999999ADDGA1021+006009999GF102991999999999999999999MA1101801999999MW1001REMMET045LGKL 022350Z 29008KT 9999 FEW020 04/02 Q1018;EQDQ01+000000PRSWM2
0139167260999992000010300504+37070+022020FM-15+0008LGKL V0202901N003612200019N0112651N1+00401+00201999999ADDGA1021+006009999GF102991999999999999999999MA1101801999999MW1001REMMET045LGKL 030050Z 29007KT 9999 FEW020 04/02 Q1018;EQDQ01+000000PRSWM2
0139167260999992000010301504+37070+022020FM-15+0008LGKL V0202901N003112200019N0112651N1+00301+00101999999ADDGA1021+006009999GF102991999999999999999999MA1101801999999MW1001REMMET045LGKL 030150Z 29006KT 9999 FEW020 03/01 Q1018;EQDQ01+000000PRSWM2
0139167260999992000010302504+37070+022020FM-15+0008LGKL V0202801N003612200019N0112651N1+00401+00101999999ADDGA1021+006009999GF102991999999999999999999MA1101801999999MW1001REMMET045LGKL 030250Z 28007KT 9999 FEW020 04/01 Q1018;EQDQ01+000000PRSWM2
0139167260999992000010303504+37070+022020FM-15+0008LGKL V0202901N003612200019N0112651N1+00501+00001999999ADDGA1021+006009999GF102991999999999999999999MA1101801999999MW1001REMMET045LGKL 030350Z 29007KT 9999 FEW020 05/00 Q1018;EQDQ01+000000PRSWM2
0139167260999992000010304504+37070+022020FM-15+0008LGKL V0202901N004112200019N0112651N1+00501+00001999999ADDGA1021+006009999GF102991999999999999999999MA1101801999999MW1001REMMET045LGKL 030450Z 29008KT 9999 FEW020 05/00 Q1018;EQDQ01+000000PRSWM2
0140167260999992000010305504+37070+022020FM-15+0008LGKL V0203401N003112200019N0112651N1+00701-00301999999ADDGA1021+006009999GF102991999999999999999999MA1101901999999MW1001REMMET046LGKL 030550Z 34006KT 9999 FEW020 07/M03 Q1019;EQDQ01+000000PRSWM2
0140167260999992000010306504+37070+022020FM-15+0008LGKL V0203401N005112200019N0112651N1+00701-00301999999ADDGA1021+006009999GF102991999999999999999999MA1101901999999MW1001REMMET046LGKL 030650Z 34010KT 9999 FEW020 07/M03 Q1019;EQDQ01+000000PRSWM2
0140167260999992000010307504+37070+022020FM-15+0008LGKL V0203401N005112200019N0112651N1+00801-00201999999ADDGA1021+006009999GF102991999999999999999999MA1101901999999MW1001REMMET046LGKL 030750Z 34010KT 9999 FEW020 08/M02 Q1019;EQDQ01+000000PRSWM2
0140167260999992000010308504+37070+022020FM-15+0008LGKL V0203001N004112200019N0112651N1+00901-00201999999ADDGA1021+006009999GF102991999999999999999999MA1101901999999MW1001REMMET046LGKL 030850Z 30008KT 9999 FEW020 09/M02 Q1019;EQDQ01+000000PRSWM2
0140167260999992000010309504+37070+022020FM-15+0008LGKL V0203001N004112200019N0112651N1+01001-00101999999ADDGA1021+006009999GF102991999999999999999999MA1102001999999MW1001REMMET046LGKL 030950Z 30008KT 9999 FEW020 10/M01 Q1020;EQDQ01+000000PRSWM2
0140167260999992000010310504+37070+022020FM-15+0008LGKL V0203001N004112200019N0112651N1+01101-00101999999ADDGA1021+006009999GF102991999999999999999999MA1102001999999MW1001REMMET046LGKL 031050Z 30008KT 9999 FEW020 11/M01 Q1020;EQDQ01+000000PRSWM2
0140167260999992000010311504+37070+022020FM-15+0008LGKL V0203001N006212200019N0112651N1+01101-00101999999ADDGA1021+006009999GF102991999999999999999999MA1102001999999MW1001REMMET046LGKL 031150Z 30012KT 9999 FEW020 11/M01 Q1020;EQDQ01+000000PRSWM2
0140167260999992000010312504+37070+022020FM-15+0008LGKL V0203501N003112200019N0112651N1+01101-00101999999ADDGA1021+009009999GF102991999999999999999999MA1101901999999MW1001REMMET046LGKL 031250Z 35006KT 9999 FEW030 11/M01 Q1019;EQDQ01+000000PRSWM2
0140167260999992000010313504+37070+022020FM-15+0008LGKL V0203501N002612200019N0112651N1+01101-00301999999ADDGA1021+009009999GF102991999999999999999999MA1101901999999MW1001REMMET046LGKL 031350Z 35005KT 9999 FEW030 11/M03 Q1019;EQDQ01+000000PRSWM2
0092167260999992000010314504+37070+022020FM-15+0008LGKL V0203301N00311220001CN0099001N1+01001-00301999999ADDMA1101901999999MW1001REMMET040LGKL 031450Z 33006KT CAVOK 10/M03 Q1019;EQDQ01+000000PRSWM2
0092167260999992000010315504+37070+022020FM-15+0008LGKL V0203001N00261220001CN0099001N1+00901-00201999999ADDMA1101901999999MW1001REMMET040LGKL 031550Z 30005KT CAVOK 09/M02 Q1019;EQDQ01+000000PRSWM2
0092167260999992000010316504+37070+022020FM-15+0008LGKL V0203001N00361220001CN0099001N1+00501-00101999999ADDMA1101901999999MW1001REMMET040LGKL 031650Z 30007KT CAVOK 05/M01 Q1019;EQDQ01+000000PRSWM2
0092167260999992000010317504+37070+022020FM-15+0008LGKL V0203001N00411220001CN0099001N1+00401-00101999999ADDMA1102001999999MW1001REMMET040LGKL 031750Z 30008KT CAVOK 04/M01 Q1020;EQDQ01+000000PRSWM2
0092167260999992000010318504+37070+022020FM-15+0008LGKL V0203101N00411220001CN0099001N1+00401-00101999999ADDMA1102001999999MW1001REMMET040LGKL 031850Z 31008KT CAVOK 04/M01 Q1020;EQDQ01+000000PRSWM2
0092167260999992000010320504+37070+022020FM-15+0008LGKL V0202901N00461220001CN0099001N1+00301-00301999999ADDMA1102101999999MW1001REMMET040LGKL 032050Z 29009KT CAVOK 03/M03 Q1021;EQDQ01+000000PRSWM2
0092167260999992000010323504+37070+022020FM-15+0008LGKL V0203001N00261220001CN0099001N1+00101-00301999999ADDMA1102001999999MW1001REMMET040LGKL 032350Z 30005KT CAVOK 01/M03 Q1020;EQDQ01+000000PRSWM2
0092167260999992000010400504+37070+022020FM-15+0008LGKL V0203101N00211220001CN0099001N1+00201-00401999999ADDMA1102001999999MW1001REMMET040LGKL 040050Z 31004KT CAVOK 02/M04 Q1020;EQDQ01+000000PRSWM2
0092167260999992000010401504+37070+022020FM-15+0008LGKL V0203001N00461220001CN0099001N1+00201-00401999999ADDMA1102001999999MW1001REMMET040LGKL 040150Z 30009KT CAVOK 02/M04 Q1020;EQDQ01+000000PRSWM2
0092167260999992000010403204+37070+022020FM-15+0008LGKL V0209999C00001220001CN0099001N1+00201-00501999999ADDMA1102001999999MW1001REMMET040LGKL 040320Z 00000KT CAVOK 02/M05 Q1020;EQDQ01+000000PRSWM2
0092167260999992000010403504+37070+022020FM-15+0008LGKL V0203101N00261220001CN0099001N1+00201-00501999999ADDMA1102001999999MW1001REMMET040LGKL 040350Z 31005KT CAVOK 02/M05 Q1020;EQDQ01+000000PRSWM2
0092167260999992000010404504+37070+022020FM-15+0008LGKL V0203301N00211220001CN0099001N1+00201-00501999999ADDMA1102001999999MW1001REMMET040LGKL 040450Z 33004KT CAVOK 02/M05 Q1020;EQDQ01+000000PRSWM2
0092167260999992000010405504+37070+022020FM-15+0008LGKL V0203101N00261220001CN0099001N1+00201-00501999999ADDMA1102001999999MW1001REMMET040LGKL 040550Z 31005KT CAVOK 02/M05 Q1020;EQDQ01+000000PRSWM2
0092167260999992000010406504+37070+022020FM-15+0008LGKL V0203101N00261220001CN0099001N1+00301-00501999999ADDMA1102001999999MW1001REMMET040LGKL 040650Z 31005KT CAVOK 03/M05 Q1020;EQDQ01+000000PRSWM2
0092167260999992000010407504+37070+022020FM-15+0008LGKL V0203101N00311220001CN0099001N1+00401-00501999999ADDMA1102001999999MW1001REMMET040LGKL 040750Z 31006KT CAVOK 04/M05 Q1020;EQDQ01+000000PRSWM2
0092167260999992000010408504+37070+022020FM-15+0008LGKL V0203301N00411220001CN0099001N1+00701-00501999999ADDMA1102101999999MW1001REMMET040LGKL 040850Z 33008KT CAVOK 07/M05 Q1021;EQDQ01+000000PRSWM2
0092167260999992000010410204+37070+022020FM-15+0008LGKL V0209999C00001220001CN0099001N1+01001-00601999999ADDMA1102001999999MW1001REMMET040LGKL 041020Z 00000KT CAVOK 10/M06 Q1020;EQDQ01+000000PRSWM2
0092167260999992000010410504+37070+022020FM-15+0008LGKL V0209999C00001220001CN0099001N1+01001-00601999999ADDMA1102001999999MW1001REMMET040LGKL 041050Z 00000KT CAVOK 10/M06 Q1020;EQDQ01+000000PRSWM2
0092167260999992000010411504+37070+022020FM-15+0008LGKL V0201201N00261220001CN0099001N1+01101-00601999999ADDMA1101901999999MW1001REMMET040LGKL 041150Z 12005KT CAVOK 11/M06 Q1019;EQDQ01+000000PRSWM2
0092167260999992000010412504+37070+022020FM-15+0008LGKL V0201601N00261220001CN0099001N1+01101-00401999999ADDMA1101901999999MW1001REMMET040LGKL 041250Z 16005KT CAVOK 11/M04 Q1019;EQDQ01+000000PRSWM2
0091167260999992000010413504+37070+022020FM-15+0008LGKL V0201601N00311220001CN0099001N1+01101+00001999999ADDMA1101901999999MW1001REMMET039LGKL 041350Z 16006KT CAVOK 11/00 Q1019;EQDQ01+000000PRSWM2
0091167260999992000010414504+37070+022020FM-15+0008LGKL V0201601N00211220001CN0099001N1+01001+00101999999ADDMA1101901999999MW1001REMMET039LGKL 041450Z 16004KT CAVOK 10/01 Q1019;EQDQ01+000000PRSWM2
0091167260999992000010415504+37070+022020FM-15+0008LGKL V0209999C00001220001CN0099001N1+00801+00201999999ADDMA1101901999999MW1001REMMET039LGKL 041550Z 00000KT CAVOK 08/02 Q1019;EQDQ01+000000PRSWM2
0091167260999992000010416504+37070+022020FM-15+0008LGKL V0209999C00001220001CN0099001N1+00601+00201999999ADDMA1101901999999MW1001REMMET039LGKL 041650Z 00000KT CAVOK 06/02 Q1019;EQDQ01+000000PRSWM2
0092167260999992000010417504+37070+022020FM-15+0008LGKL V0209999C00001220001CN0099001N1+00501-00101999999ADDMA1101901999999MW1001REMMET040LGKL 041750Z 00000KT CAVOK 05/M01 Q1019;EQDQ01+000000PRSWM2
0092167260999992000010418504+37070+022020FM-15+0008LGKL V0209999C00001220001CN0099001N1+00401+00001999999ADDMA1101901999999MW1001REMMET040LGKL 041850Z 00000KT CAVOK 04/M00 Q1019;EQDQ01+000000PRSWM2
0092167260999992000010419504+37070+022020FM-15+0008LGKL V0209999C00001220001CN0099001N1+00401+00001999999ADDMA1101901999999MW1001REMMET040LGKL 041950Z 00000KT CAVOK 04/M00 Q1019;EQDQ01+000000PRSWM2
0092167260999992000010420504+37070+022020FM-15+0008LGKL V0209999C00001220001CN0099001N1+00401+00001999999ADDMA1102001999999MW1001REMMET040LGKL 042050Z 00000KT CAVOK 04/M00 Q1020;EQDQ01+000000PRSWM2
0092167260999992000010423204+37070+022020FM-15+0008LGKL V0209999C00001220001CN0099001N1+00401+00001999999ADDMA1102001999999MW1001REMMET040LGKL 042320Z 00000KT CAVOK 04/M00 Q1020;EQDQ01+000000PRSWM2
0092167260999992000010423504+37070+022020FM-15+0008LGKL V0209999C00001220001CN0099001N1+00301-00101999999ADDMA1102001999999MW1001REMMET040LGKL 042350Z 00000KT CAVOK 03/M01 Q1020;EQDQ01+000000PRSWM2
0092167260999992000010500504+37070+022020FM-15+0008LGKL V0209999C00001220001CN0099001N1+00301-00101999999ADDMA1102001999999MW1001REMMET040LGKL 050050Z 00000KT CAVOK 03/M01 Q1020;EQDQ01+000000PRSWM2
0092167260999992000010501504+37070+022020FM-15+0008LGKL V0209999C00001220001CN0099001N1+00301-00101999999ADDMA1102001999999MW1001REMMET040LGKL 050150Z 00000KT CAVOK 03/M01 Q1020;EQDQ01+000000PRSWM2
0092167260999992000010502504+37070+022020FM-15+0008LGKL V0203601N00311220001CN0099001N1+00101-00201999999ADDMA1101901999999MW1001REMMET040LGKL 050250Z 36006KT CAVOK 01/M02 Q1019;EQDQ01+000000PRSWM2
0092167260999992000010503504+37070+022020FM-15+0008LGKL V0203601N00411220001CN0099001N1+00001-00201999999ADDMA1101901999999MW1001REMMET040LGKL 050350Z 36008KT CAVOK 00/M02 Q1019;EQDQ01+000000PRSWM2
0076167260999992000010504504+37070+022020FM-15+0008LGKL V0203601N00411220001CN0099001N1+99999+99999999999ADDMW1001REMMET039LGKL 050450Z 36008KT CAVOK 00M02 Q1019;EQDQ01+000000PRSWM2
0092167260999992000010505504+37070+022020FM-15+0008LGKL V0203601N00261220001CN0099001N1+00001-00201999999ADDMA1101901999999MW1001REMMET040LGKL 050550Z 36005KT CAVOK 00/M02 Q1019;EQDQ01+000000PRSWM2
0092167260999992000010506504+37070+022020FM-15+0008LGKL V0203001N00261220001CN0099001N1+00201-00101999999ADDMA1101901999999MW1001REMMET040LGKL 050650Z 30005KT CAVOK 02/M01 Q1019;EQDQ01+000000PRSWM2
0092167260999992000010507504+37070+022020FM-15+0008LGKL V0203001N00261220001CN0099001N1+00301-00101999999ADDMA1101901999999MW1001REMMET040LGKL 050750Z 30005KT CAVOK 03/M01 Q1019;EQDQ01+000000PRSWM2
0091167260999992000010508504+37070+022020FM-15+0008LGKL V0203101N00211220001CN0099001N1+00701+00001999999ADDMA1102001999999MW1001REMMET039LGKL 050850Z 31004KT CAVOK 07/00 Q1020;EQDQ01+000000PRSWM2
0091167260999992000010509504+37070+022020FM-15+0008LGKL V0203101N00211220001CN0099001N1+01001+00001999999ADDMA1102001999999MW1001REMMET039LGKL 050950Z 31004KT CAVOK 10/00 Q1020;EQDQ01+000000PRSWM2
0091167260999992000010510504+37070+022020FM-15+0008LGKL V0209999C00001220001CN0099001N1+01001+00001999999ADDMA1101901999999MW1001REMMET039LGKL 051050Z 00000KT CAVOK 10/00 Q1019;EQDQ01+000000PRSWM2
0092167260999992000010511504+37070+022020FM-15+0008LGKL V0209999C00001220001CN0099001N1+01401+00001999999ADDMA1101801999999MW1001REMMET040LGKL 051150Z 00000KT CAVOK 14/M00 Q1018;EQDQ01+000000PRSWM2
0092167260999992000010512504+37070+022020FM-15+0008LGKL V0209999C00001220001CN0099001N1+01401+00001999999ADDMA1101801999999MW1001REMMET040LGKL 051250Z 00000KT CAVOK 14/M00 Q1018;EQDQ01+000000PRSWM2
0091167260999992000010513504+37070+022020FM-15+0008LGKL V0201801N00261220001CN0099001N1+01301+00101999999ADDMA1101801999999MW1001REMMET039LGKL 051350Z 18005KT CAVOK 13/01 Q1018;EQDQ01+000000PRSWM2
0091167260999992000010514504+37070+022020FM-15+0008LGKL V0209999C00001220001CN0099001N1+01301+00101999999ADDMA1101801999999MW1001REMMET039LGKL 051450Z 00000KT CAVOK 13/01 Q1018;EQDQ01+000000PRSWM2
0091167260999992000010515504+37070+022020FM-15+0008LGKL V0209999C00001220001CN0099001N1+01101+00201999999ADDMA1101801999999MW1001REMMET039LGKL 051550Z 00000KT CAVOK 11/02 Q1018;EQDQ01+000000PRSWM2
0091167260999992000010516504+37070+022020FM-15+0008LGKL V0209999C00001220001CN0099001N1+00801+00301999999ADDMA1101801999999MW1001REMMET039LGKL 051650Z 00000KT CAVOK 08/03 Q1018;EQDQ01+000000PRSWM2
0091167260999992000010517504+37070+022020FM-15+0008LGKL V0203001N00211220001CN0099001N1+00601+00101999999ADDMA1101801999999MW1001REMMET039LGKL 051750Z 30004KT CAVOK 06/01 Q1018;EQDQ01+000000PRSWM2
0091167260999992000010518504+37070+022020FM-15+0008LGKL V0203001N00211220001CN0099001N1+00401+00101999999ADDMA1101801999999MW1001REMMET039LGKL 051850Z 30004KT CAVOK 04/01 Q1018;EQDQ01+000000PRSWM2
0091167260999992000010520504+37070+022020FM-15+0008LGKL V0203001N00211220001CN0099001N1+00301+00101999999ADDMA1101801999999MW1001REMMET039LGKL 052050Z 30004KT CAVOK 03/01 Q1018;EQDQ01+000000PRSWM2
0092167260999992000010521504+37070+022020FM-15+0008LGKL V0209999C00001220001CN0099001N1+00301-00101999999ADDMA1101801999999MW1001REMMET040LGKL 052150Z 00000KT CAVOK 03/M01 Q1018;EQDQ01+000000PRSWM2
0092167260999992000010601504+37070+022020FM-15+0008LGKL V0209999C00001220001CN0099001N1+00201+00001999999ADDMA1101801999999MW1001REMMET040LGKL 060150Z 00000KT CAVOK 02/M00 Q1018;EQDQ01+000000PRSWM2
0092167260999992000010606504+37070+022020FM-15+0008LGKL V0209999C00001220001CN0099001N1+00301-00301999999ADDMA1101901999999MW1001REMMET040LGKL 060650Z 00000KT CAVOK 03/M03 Q1019;EQDQ01+000000PRSWM2
0092167260999992000010607504+37070+022020FM-15+0008LGKL V0203101N00261220001CN0099001N1+00601-00301999999ADDMA1102001999999MW1001REMMET040LGKL 060750Z 31005KT CAVOK 06/M03 Q1020;EQDQ01+000000PRSWM2
0091167260999992000010608504+37070+022020FM-15+0008LGKL V0203001N00311220001CN0099001N1+00801+00502999999ADDMA1102101999999MW1001REMMET039LGKL 060850Z 30006KT CAVOK 08/05 Q1021;EQDQ01+000000PRSWM2
0091167260999992000010609504+37070+022020FM-15+0008LGKL V0203301N00211220001CN0099001N1+01001+00401999999ADDMA1102101999999MW1001REMMET039LGKL 060950Z 33004KT CAVOK 10/04 Q1021;EQDQ01+000000PRSWM2
0091167260999992000010610504+37070+022020FM-15+0008LGKL V0203301N00211220001CN0099001N1+01201+00501999999ADDMA1102101999999MW1001REMMET039LGKL 061050Z 33004KT CAVOK 12/05 Q1021;EQDQ01+000000PRSWM2
0139167260999992000010611504+37070+022020FM-15+0008LGKL V0209999C000012200019N0112651N1+01301+00501999999ADDGA1021+006009999GF102991999999999999999999MA1101901999999MW1001REMMET045LGKL 061150Z 00000KT 9999 FEW020 13/05 Q1019;EQDQ01+000000PRSWM2
0139167260999992000010612504+37070+022020FM-15+0008LGKL V0209999C000012200019N0112651N1+01301+00401999999ADDGA1021+006009999GF102991999999999999999999MA1101901999999MW1001REMMET045LGKL 061250Z 00000KT 9999 FEW020 13/04 Q1019;EQDQ01+000000PRSWM2
0139167260999992000010613504+37070+022020FM-15+0008LGKL V0209999C000012200019N0112651N1+01401+00401999999ADDGA1021+006009999GF102991999999999999999999MA1101901999999MW1001REMMET045LGKL 061350Z 00000KT 9999 FEW020 14/04 Q1019;EQDQ01+000000PRSWM2
0139167260999992000010615204+37070+022020FM-15+0008LGKL V0209999C000012200019N0112651N1+01201+00801999999ADDGA1021+006009999GF102991999999999999999999MA1101901999999MW1001REMMET045LGKL 061520Z 00000KT 9999 FEW020 12/08 Q1019;EQDQ01+000000PRSWM2
0139167260999992000010615504+37070+022020FM-15+0008LGKL V0209999C000012200019N0112651N1+01201+00801999999ADDGA1021+006009999GF102991999999999999999999MA1101901999999MW1001REMMET045LGKL 061550Z 00000KT 9999 FEW020 12/08 Q1019;EQDQ01+000000PRSWM2
0139167260999992000010617204+37070+022020FM-15+0008LGKL V0209999C000012200019N0112651N1+00901+00701999999ADDGA1021+006009999GF102991999999999999999999MA1101901999999MW1001REMMET045LGKL 061720Z 00000KT 9999 FEW020 09/07 Q1019;EQDQ01+000000PRSWM2
0139167260999992000010617504+37070+022020FM-15+0008LGKL V0209999C000012200019N0112651N1+00901+00701999999ADDGA1021+006009999GF102991999999999999999999MA1101901999999MW1001REMMET045LGKL 061750Z 00000KT 9999 FEW020 09/07 Q1019;EQDQ01+000000PRSWM2
0091167260999992000010619504+37070+022020FM-15+0008LGKL V0209999C00001220001CN0099001N1+00701+00401999999ADDMA1101901999999MW1001REMMET039LGKL 061950Z 00000KT CAVOK 07/04 Q1019;EQDQ01+000000PRSWM2
0091167260999992000010620504+37070+022020FM-15+0008LGKL V0209999C00001220001CN0099001N1+00601+00301999999ADDMA1101901999999MW1001REMMET039LGKL 062050Z 00000KT CAVOK 06/03 Q1019;EQDQ01+000000PRSWM2
0091167260999992000010621504+37070+022020FM-15+0008LGKL V0202901N00211220001CN0099001N1+00501+00301999999ADDMA1101901999999MW1001REMMET039LGKL 062150Z 29004KT CAVOK 05/03 Q1019;EQDQ01+000000PRSWM2
0091167260999992000010622504+37070+022020FM-15+0008LGKL V0203101N00211220001CN0099001N1+00401+00301999999ADDMA1101901999999MW1001REMMET039LGKL 062250Z 31004KT CAVOK 04/03 Q1019;EQDQ01+000000PRSWM2
0091167260999992000010623504+37070+022020FM-15+0008LGKL V0203001N00211220001CN0099001N1+00301+00201999999ADDMA1101901999999MW1001REMMET039LGKL 062350Z 30004KT CAVOK 03/02 Q1019;EQDQ01+000000PRSWM2
0091167260999992000010700504+37070+022020FM-15+0008LGKL V0209999C00001220001CN0099001N1+00301+00201999999ADDMA1101901999999MW1001REMMET039LGKL 070050Z 00000KT CAVOK 03/02 Q1019;EQDQ01+000000PRSWM2
0139167260999992000010701504+37070+022020FM-15+0008LGKL V0209999C000012200019N0112651N1+00301+00201999999ADDGA1021+009009999GF102991999999999999999999MA1101901999999MW1001REMMET045LGKL 070150Z 00000KT 9999 FEW030 03/02 Q1019;EQDQ01+000000PRSWM2
0139167260999992000010702504+37070+022020FM-15+0008LGKL V0209999C000012200019N0112651N1+00501+00201999999ADDGA1021+009009999GF102991999999999999999999MA1101901999999MW1001REMMET045LGKL 070250Z 00000KT 9999 FEW030 05/02 Q1019;EQDQ01+000000PRSWM2
0139167260999992000010703504+37070+022020FM-15+0008LGKL V0209999C000012200019N0112651N1+00501+00401999999ADDGA1021+009009999GF102991999999999999999999MA1101801999999MW1001REMMET045LGKL 070350Z 00000KT 9999 FEW030 05/04 Q1018;EQDQ01+000000PRSWM2
0139167260999992000010704504+37070+022020FM-15+0008LGKL V0209999C000012200019N0112651N1+00501+00401999999ADDGA1021+012009999GF104991999999999999999999MA1101801999999MW1001REMMET045LGKL 070450Z 00000KT 9999 SCT040 05/04 Q1018;EQDQ01+000000PRSWM2
0185167260999992000010705504+37070+022020FM-15+0008LGKL V0202801N002610240019N0112651N1+00801+00401999999ADDGA1021+009009999GA2021+012009999GA3071+024009999GF107991999999999999999999MA1101901999999MW1001REMMET059LGKL 070550Z 28005KT 9999 SCT030 SCT040 BKN080 08/04 Q1019;EQDQ01+000000PRSWM2
0185167260999992000010706504+37070+022020FM-15+0008LGKL V0209999C000010240019N0080001N1+00801+00601999999ADDGA1021+007509999GA2021+010509999GA3071+024009999GF107991999999999999999999MA1102001999999MW1001REMMET059LGKL 070650Z 00000KT 8000 SCT025 SCT035 BKN080 08/06 Q1020;EQDQ01+000000PRSWM2
0185167260999992000010707504+37070+022020FM-15+0008LGKL V0209999C000010240019N0080001N1+00801+00601999999ADDGA1021+004509999GA2021+007509999GA3071+024009999GF107991999999999999999999MA1102001999999MW1001REMMET059LGKL 070750Z 00000KT 8000 FEW015 SCT025 BKN080 08/06 Q1020;EQDQ01+000000PRSWM2
0162167260999992000010708504+37070+022020FM-15+0008LGKL V0209999C000012200019N0080001N1+00901+00601999999ADDGA1021+007509999GA2021+010509999GF104991999999999999999999MA1102001999999MW1001REMMET052LGKL 070850Z 00000KT 8000 FEW025 SCT035 09/06 Q1020;EQDQ01+000000PRSWM2
0162167260999992000010709504+37070+022020FM-15+0008LGKL V0209999C000012200019N0112651N1+01001+00601999999ADDGA1021+007509999GA2021+010509999GF104991999999999999999999MA1102001999999MW1001REMMET052LGKL 070950Z 00000KT 9999 FEW025 SCT035 10/06 Q1020;EQDQ01+000000PRSWM2
0181167260999992000010710504+37070+022020FM-15+0008LGKL V0201801N002612200019N0050001N1+01301+00601999999ADDGA1021+007509999GA2021+010509999GF104991999999999999999999MA1102001999999MW1101REMMET055LGKL 071050Z 18005KT 5000 BR FEW025 SCT035 13/06 Q1020;EQDQ01+000003PRSWM1Q02    003PRSWM1
0162167260999992000010711504+37070+022020FM-15+0008LGKL V0201801N002612200019N0080001N1+01301+00601999999ADDGA1021+007509999GA2021+010509999GF104991999999999999999999MA1102001999999MW1001REMMET052LGKL 071150Z 18005KT 8000 FEW025 SCT035 13/06 Q1020;EQDQ01+000000PRSWM2
0162167260999992000010712504+37070+022020FM-15+0008LGKL V0201801N002612200019N0112651N1+01301+00601999999ADDGA1021+007509999GA2021+010509999GF104991999999999999999999MA1102001999999MW1001REMMET052LGKL 071250Z 18005KT 9999 FEW025 SCT035 13/06 Q1020;EQDQ01+000000PRSWM2
0162167260999992000010714204+37070+022020FM-15+0008LGKL V0201801N002612200019N0112651N1+01301+00601999999ADDGA1021+007509999GA2021+010509999GF104991999999999999999999MA1102001999999MW1001REMMET052LGKL 071420Z 18005KT 9999 FEW025 SCT035 13/06 Q1020;EQDQ01+000000PRSWM2
0162167260999992000010714504+37070+022020FM-15+0008LGKL V0209999C000012200019N0112651N1+01101+00701999999ADDGA1021+007509999GA2021+010509999GF104991999999999999999999MA1102001999999MW1001REMMET052LGKL 071450Z 00000KT 9999 FEW025 SCT035 11/07 Q1020;EQDQ01+000000PRSWM2
0162167260999992000010715504+37070+022020FM-15+0008LGKL V0209999C000012200019N0112651N1+01101+00701999999ADDGA1021+007509999GA2021+010509999GF104991999999999999999999MA1102001999999MW1001REMMET052LGKL 071550Z 00000KT 9999 FEW025 SCT035 11/07 Q1020;EQDQ01+000000PRSWM2
0139167260999992000010717204+37070+022020FM-15+0008LGKL V0203601N003112200019N0112651N1+00701+00201999999ADDGA1021+007509999GF104991999999999999999999MA1102101999999MW1001REMMET045LGKL 071720Z 36006KT 9999 SCT025 07/02 Q1021;EQDQ01+000000PRSWM2
0139167260999992000010717504+37070+022020FM-15+0008LGKL V0203601N003112200019N0112651N1+00701+00201999999ADDGA1021+007509999GF104991999999999999999999MA1102101999999MW1001REMMET045LGKL 071750Z 36006KT 9999 SCT025 07/02 Q1021;EQDQ01+000000PRSWM2
0139167260999992000010719204+37070+022020FM-15+0008LGKL V0203601N003112200019N0112651N1+00601+00201999999ADDGA1021+007509999GF104991999999999999999999MA1102101999999MW1001REMMET045LGKL 071920Z 36006KT 9999 SCT025 06/02 Q1021;EQDQ01+000000PRSWM2
0083167260999992000010719504+37070+022020FM-15+0008LGKL V0203601N003112200019N0112651N1+99999+99999999999ADDMW1001REMMET046LGKL 071950Z 36006KT 9999 FEWQ25 05/M00 Q1022;EQDQ01+000000PRSWM2
0083167260999992000010720504+37070+022020FM-15+0008LGKL V0203601N003112200019N0112651N1+99999+99999999999ADDMW1001REMMET046LGKL 072050Z 36006KT 9999 FEWQ25 05/M00 Q1022;EQDQ01+000000PRSWM2
0083167260999992000010721504+37070+022020FM-15+0008LGKL V0203601N003112200019N0112651N1+99999+99999999999ADDMW1001REMMET046LGKL 072150Z 36006KT 9999 FEWQ25 05/M00 Q1022;EQDQ01+000000PRSWM2
0083167260999992000010803504+37070+022020FM-15+0008LGKL V0203601N003112200019N0112651N1+99999+99999999999ADDMW1001REMMET046LGKL 080350Z 36006KT 9999 FEWQ25 04/M00 Q1022;EQDQ01+000000PRSWM2
0083167260999992000010804504+37070+022020FM-15+0008LGKL V0203601N003112200019N0112651N1+99999+99999999999ADDMW1001REMMET046LGKL 080450Z 36006KT 9999 FEWQ25 04/M00 Q1022;EQDQ01+000000PRSWM2
0140167260999992000010805504+37070+022020FM-15+0008LGKL V0209999C000012200019N0112651N1+00401-00201999999ADDGA1021+007509999GF102991999999999999999999MA1102301999999MW1001REMMET046LGKL 080550Z 00000KT 9999 FEW025 04/M02 Q1023;EQDQ01+000000PRSWM2
0140167260999992000010806504+37070+022020FM-15+0008LGKL V0209999C000012200019N0112651N1+00401-00201999999ADDGA1021+007509999GF102991999999999999999999MA1102301999999MW1001REMMET046LGKL 080650Z 00000KT 9999 FEW025 04/M02 Q1023;EQDQ01+000000PRSWM2
0163167260999992000010807504+37070+022020FM-15+0008LGKL V0203401N004112200019N0112651N1+00501-00201999999ADDGA1021+007509999GA2021+024009999GF104991999999999999999999MA1102301999999MW1001REMMET053LGKL 080750Z 34008KT 9999 FEW025 SCT080 05/M02 Q1023;EQDQ01+000000PRSWM2
0163167260999992000010808504+37070+022020FM-15+0008LGKL V0202701N002110240019N0112651N1+00601+00001999999ADDGA1021+007509999GA2071+024009999GF107991999999999999999999MA1102301999999MW1001REMMET053LGKL 080850Z 27004KT 9999 FEW025 BKN080 06/M00 Q1023;EQDQ01+000000PRSWM2
0162167260999992000010809504+37070+022020FM-15+0008LGKL V0202701N002610240019N0112651N1+00701+00301999999ADDGA1021+007509999GA2071+024009999GF107991999999999999999999MA1102511999999MW1001REMMET052LGKL 080950Z 27005KT 9999 FEW025 BKN080 07/03 Q1025;EQDQ01+000000PRSWM2
0162167260999992000010810504+37070+022020FM-15+0008LGKL V0202701N002610240019N0112651N1+00701+00301999999ADDGA1021+007509999GA2071+024009999GF107991999999999999999999MA1102511999999MW1001REMMET052LGKL 081050Z 27005KT 9999 FEW025 BKN080 07/03 Q1025;EQDQ01+000000PRSWM2
0162167260999992000010811504+37070+022020FM-15+0008LGKL V0209999C000012200019N0112651N1+00901+00201999999ADDGA1021+007509999GA2021+010509999GF104991999999999999999999MA1102401999999MW1001REMMET052LGKL 081150Z 00000KT 9999 FEW025 SCT035 09/02 Q1024;EQDQ01+000000PRSWM2
0139167260999992000010812504+37070+022020FM-15+0008LGKL V0209999C000012200019N0112651N1+01001+00201999999ADDGA1021+010509999GF104991999999999999999999MA1102301999999MW1001REMMET045LGKL 081250Z 00000KT 9999 SCT035 10/02 Q1023;EQDQ01+000000PRSWM2
0139167260999992000010813504+37070+022020FM-15+0008LGKL V0209999C000012200019N0112651N1+01001+00201999999ADDGA1021+010509999GF104991999999999999999999MA1102301999999MW1001REMMET045LGKL 081350Z 00000KT 9999 SCT035 10/02 Q1023;EQDQ01+000000PRSWM2
0139167260999992000010814504+37070+022020FM-15+0008LGKL V0209999C000012200019N0112651N1+01101+00201999999ADDGA1021+009009999GF102991999999999999999999MA1102301999999MW1001REMMET045LGKL 081450Z 00000KT 9999 FEW030 11/02 Q1023;EQDQ01+000000PRSWM2
0139167260999992000010815504+37070+022020FM-15+0008LGKL V0209999C000012200019N0112651N1+01001+00301999999ADDGA1021+009009999GF102991999999999999999999MA1102301999999MW1001REMMET045LGKL 081550Z 00000KT 9999 FEW030 10/03 Q1023;EQDQ01+000000PRSWM2
0139167260999992000010816504+37070+022020FM-15+0008LGKL V0209999C000012200019N0112651N1+00701+00201999999ADDGA1021+009009999GF102991999999999999999999MA1102301999999MW1001REMMET045LGKL 081650Z 00000KT 9999 FEW030 07/02 Q1023;EQDQ01+000000PRSWM2
0139167260999992000010817504+37070+022020FM-15+0008LGKL V0209999C000012200019N0112651N1+00501+00301999999ADDGA1021+009009999GF102991999999999999999999MA1102401999999MW1001REMMET045LGKL 081750Z 00000KT 9999 FEW030 05/03 Q1024;EQDQ01+000000PRSWM2
0139167260999992000010818504+37070+022020FM-15+0008LGKL V0209999C000012200019N0112651N1+00401+00301999999ADDGA1021+009009999GF102991999999999999999999MA1102401999999MW1001REMMET045LGKL 081850Z 00000KT 9999 FEW030 04/03 Q1024;EQDQ01+000000PRSWM2
0139167260999992000010819504+37070+022020FM-15+0008LGKL V0209999C000012200019N0112651N1+00401+00301999999ADDGA1021+009009999GF102991999999999999999999MA1102401999999MW1001REMMET045LGKL 081950Z 00000KT 9999 FEW030 04/03 Q1024;EQDQ01+000000PRSWM2
0162167260999992000010821504+37070+022020FM-15+0008LGKL V0209999C000012200019N0112651N1+00301+00101999999ADDGA1021+009009999GA2021+012009999GF104991999999999999999999MA1102401999999MW1001REMMET052LGKL 082150Z 00000KT 9999 FEW030 SCT040 03/01 Q1024;EQDQ01+000000PRSWM2
0140167260999992000010907204+37070+022020FM-15+0008LGKL V0203001N002112200019N0112651N1+00201-00101999999ADDGA1021+009009999GF102991999999999999999999MA1102401999999MW1001REMMET046LGKL 090720Z 30004KT 9999 FEW030 02/M01 Q1024;EQDQ01+000000PRSWM2
0140167260999992000010907504+37070+022020FM-15+0008LGKL V0209999C000012200019N0112651N1+00301-00101999999ADDGA1021+009009999GF102991999999999999999999MA1102401999999MW1001REMMET046LGKL 090750Z 00000KT 9999 FEW030 03/M01 Q1024;EQDQ01+000000PRSWM2
0139167260999992000010908504+37070+022020FM-15+0008LGKL V0209999C000012200019N0112651N1+00901+00301999999ADDGA1021+009009999GF102991999999999999999999MA1102511999999MW1001REMMET045LGKL 090850Z 00000KT 9999 FEW030 09/03 Q1025;EQDQ01+000000PRSWM2
0139167260999992000010909504+37070+022020FM-15+0008LGKL V0209999C000012200019N0112651N1+01101+00301999999ADDGA1021+009009999GF102991999999999999999999MA1102511999999MW1001REMMET045LGKL 090950Z 00000KT 9999 FEW030 11/03 Q1025;EQDQ01+000000PRSWM2
0139167260999992000010910504+37070+022020FM-15+0008LGKL V0209999C000012200019N0112651N1+01301+00301999999ADDGA1021+009009999GF102991999999999999999999MA1102401999999MW1001REMMET045LGKL 091050Z 00000KT 9999 FEW030 13/03 Q1024;EQDQ01+000000PRSWM2
0139167260999992000010911504+37070+022020FM-15+0008LGKL V0201601N002112200019N0112651N1+01401+00301999999ADDGA1021+009009999GF102991999999999999999999MA1102301999999MW1001REMMET045LGKL 091150Z 16004KT 9999 FEW030 14/03 Q1023;EQDQ01+000000PRSWM2
0139167260999992000010912504+37070+022020FM-15+0008LGKL V0209999C000012200019N0112651N1+01401+00301999999ADDGA1021+009009999GF102991999999999999999999MA1102301999999MW1001REMMET045LGKL 091250Z 00000KT 9999 FEW030 14/03 Q1023;EQDQ01+000000PRSWM2
0139167260999992000010913504+37070+022020FM-15+0008LGKL V0201701N002612200019N0112651N1+01401+00401999999ADDGA1021+009009999GF104991999999999999999999MA1102301999999MW1001REMMET045LGKL 091350Z 17005KT 9999 SCT030 14/04 Q1023;EQDQ01+000000PRSWM2
0139167260999992000010914504+37070+022020FM-15+0008LGKL V0201601N002112200019N0112651N1+01301+00501999999ADDGA1021+009009999GF104991999999999999999999MA1102301999999MW1001REMMET045LGKL 091450Z 16004KT 9999 SCT030 13/05 Q1023;EQDQ01+000000PRSWM2
0139167260999992000010915504+37070+022020FM-15+0008LGKL V0209999C000012200019N0112651N1+01101+00601999999ADDGA1021+009009999GF104991999999999999999999MA1102301999999MW1001REMMET045LGKL 091550Z 00000KT 9999 SCT030 11/06 Q1023;EQDQ01+000000PRSWM2
0162167260999992000010916504+37070+022020FM-15+0008LGKL V0202701N002112200019N0112651N1+00801+00501999999ADDGA1021+009009999GA2021+024009999GF104991999999999999999999MA1102301999999MW1001REMMET052LGKL 091650Z 27004KT 9999 FEW030 SCT080 08/05 Q1023;EQDQ01+000000PRSWM2
0162167260999992000010917504+37070+022020FM-15+0008LGKL V0202901N002112200019N0080001N1+00701+00301999999ADDGA1021+009009999GA2021+024009999GF104991999999999999999999MA1102401999999MW1001REMMET052LGKL 091750Z 29004KT 8000 FEW030 SCT080 07/03 Q1024;EQDQ01+000000PRSWM2
0162167260999992000010918504+37070+022020FM-15+0008LGKL V0209999C000012200019N0080001N1+00601+00301999999ADDGA1021+009009999GA2021+024009999GF104991999999999999999999MA1102401999999MW1001REMMET052LGKL 091850Z 00000KT 8000 FEW030 SCT080 06/03 Q1024;EQDQ01+000000PRSWM2
0139167260999992000010919504+37070+022020FM-15+0008LGKL V0203001N002112200019N0080001N1+00501+00301999999ADDGA1021+009009999GF102991999999999999999999MA1102511999999MW1001REMMET045LGKL 091950Z 30004KT 8000 FEW030 05/03 Q1025;EQDQ01+000000PRSWM2
0139167260999992000010920504+37070+022020FM-15+0008LGKL V0203001N002612200019N0080001N1+00401+00201999999ADDGA1021+009009999GF102991999999999999999999MA1102511999999MW1001REMMET045LGKL 092050Z 30005KT 8000 FEW030 04/02 Q1025;EQDQ01+000000PRSWM2
0139167260999992000010921504+37070+022020FM-15+0008LGKL V0203001N002612200019N0080001N1+00401+00101999999ADDGA1021+009009999GF102991999999999999999999MA1102511999999MW1001REMMET045LGKL 092150Z 30005KT 8000 FEW030 04/01 Q1025;EQDQ01+000000PRSWM2
0139167260999992000010922504+37070+022020FM-15+0008LGKL V0203001N002112200019N0080001N1+00301+00101999999ADDGA1021+009009999GF102991999999999999999999MA1102511999999MW1001REMMET045LGKL 092250Z 30004KT 8000 FEW030 03/01 Q1025;EQDQ01+000000PRSWM2
0139167260999992000010923504+37070+022020FM-15+0008LGKL V0203001N003112200019N0080001N1+00301+00101999999ADDGA1021+009009999GF102991999999999999999999MA1102511999999MW1001REMMET045LGKL 092350Z 30006KT 8000 FEW030 03/01 Q1025;EQDQ01+000000PRSWM2
0139167260999992000011000504+37070+022020FM-15+0008LGKL V0202901N002612200019N0080001N1+00201+00101999999ADDGA1021+009009999GF102991999999999999999999MA1102511999999MW1001REMMET045LGKL 100050Z 29005KT 8000 FEW030 02/01 Q1025;EQDQ01+000000PRSWM2
0139167260999992000011001504+37070+022020FM-15+0008LGKL V0202901N003112200019N0080001N1+00201+00101999999ADDGA1021+009009999GF102991999999999999999999MA1102511999999MW1001REMMET045LGKL 100150Z 29006KT 8000 FEW030 02/01 Q1025;EQDQ01+000000PRSWM2
0139167260999992000011002504+37070+022020FM-15+0008LGKL V0202901N003112200019N0080001N1+00201+00101999999ADDGA1021+009009999GF102991999999999999999999MA1102511999999MW1001REMMET045LGKL 100250Z 29006KT 8000 FEW030 02/01 Q1025;EQDQ01+000000PRSWM2
0139167260999992000011003504+37070+022020FM-15+0008LGKL V0202901N002612200019N0080001N1+00201+00101999999ADDGA1021+009009999GF102991999999999999999999MA1102511999999MW1001REMMET045LGKL 100350Z 29005KT 8000 FEW030 02/01 Q1025;EQDQ01+000000PRSWM2
0139167260999992000011004504+37070+022020FM-15+0008LGKL V0202901N003112200019N0080001N1+00201+00101999999ADDGA1021+009009999GF102991999999999999999999MA1102611999999MW1001REMMET045LGKL 100450Z 29006KT 8000 FEW030 02/01 Q1026;EQDQ01+000000PRSWM2
0139167260999992000011005504+37070+022020FM-15+0008LGKL V0202801N002112200019N0112651N1+00201+00101999999ADDGA1021+009009999GF102991999999999999999999MA1102511999999MW1001REMMET045LGKL 100550Z 28004KT 9999 FEW030 02/01 Q1025;EQDQ01+000000PRSWM2
0139167260999992000011007204+37070+022020FM-15+0008LGKL V0202901N002612200019N0112651N1+00601+00201999999ADDGA1021+009009999GF102991999999999999999999MA1102511999999MW1001REMMET045LGKL 100720Z 29005KT 9999 FEW030 06/02 Q1025;EQDQ01+000000PRSWM2
0139167260999992000011007504+37070+022020FM-15+0008LGKL V0202901N002112200019N0112651N1+00701+00101999999ADDGA1021+009009999GF102991999999999999999999MA1102611999999MW1001REMMET045LGKL 100750Z 29004KT 9999 FEW030 07/01 Q1026;EQDQ01+000000PRSWM2
0139167260999992000011008504+37070+022020FM-15+0008LGKL V0203101N002112200019N0112651N1+00901+00501999999ADDGA1021+009009999GF102991999999999999999999MA1102611999999MW1001REMMET045LGKL 100850Z 31004KT 9999 FEW030 09/05 Q1026;EQDQ01+000000PRSWM2
0139167260999992000011009504+37070+022020FM-15+0008LGKL V0209999C000012200019N0112651N1+01001+00501999999ADDGA1021+009009999GF102991999999999999999999MA1102611999999MW1001REMMET045LGKL 100950Z 00000KT 9999 FEW030 10/05 Q1026;EQDQ01+000000PRSWM2
0139167260999992000011010504+37070+022020FM-15+0008LGKL V0209999C000012200019N0112651N1+01301+00501999999ADDGA1021+009009999GF102991999999999999999999MA1102611999999MW1001REMMET045LGKL 101050Z 00000KT 9999 FEW030 13/05 Q1026;EQDQ01+000000PRSWM2
0139167260999992000011011504+37070+022020FM-15+0008LGKL V0209999C000012200019N0112651N1+01301+00501999999ADDGA1021+009009999GF102991999999999999999999MA1102511999999MW1001REMMET045LGKL 101150Z 00000KT 9999 FEW030 13/05 Q1025;EQDQ01+000000PRSWM2
0139167260999992000011012504+37070+022020FM-15+0008LGKL V0209999C000012200019N0112651N1+01301+00501999999ADDGA1021+009009999GF102991999999999999999999MA1102511999999MW1001REMMET045LGKL 101250Z 00000KT 9999 FEW030 13/05 Q1025;EQDQ01+000000PRSWM2
0139167260999992000011013504+37070+022020FM-15+0008LGKL V0201801N002612200019N0112651N1+01301+00501999999ADDGA1021+009009999GF102991999999999999999999MA1102511999999MW1001REMMET045LGKL 101350Z 18005KT 9999 FEW030 13/05 Q1025;EQDQ01+000000PRSWM2
0162167260999992000011015204+37070+022020FM-15+0008LGKL V0201801N002612200019N0112651N1+01201+00601999999ADDGA1021+009009999GA2021+027009999GF104991999999999999999999MA1102511999999MW1001REMMET052LGKL 101520Z 18005KT 9999 FEW030 SCT090 12/06 Q1025;EQDQ01+000000PRSWM2
0162167260999992000011015504+37070+022020FM-15+0008LGKL V0209999C000012200019N0112651N1+01201+00601999999ADDGA1021+009009999GA2021+027009999GF104991999999999999999999MA1102511999999MW1001REMMET052LGKL 101550Z 00000KT 9999 FEW030 SCT090 12/06 Q1025;EQDQ01+000000PRSWM2
0162167260999992000011016504+37070+022020FM-15+0008LGKL V0209999C000012200019N0112651N1+00901+00601999999ADDGA1021+009009999GA2021+027009999GF104991999999999999999999MA1102511999999MW1001REMMET052LGKL 101650Z 00000KT 9999 FEW030 SCT090 09/06 Q1025;EQDQ01+000000PRSWM2
0162167260999992000011017504+37070+022020FM-15+0008LGKL V0209999C000012200019N0112651N1+00801+00501999999ADDGA1021+009009999GA2021+027009999GF104991999999999999999999MA1102511999999MW1001REMMET052LGKL 101750Z 00000KT 9999 FEW030 SCT090 08/05 Q1025;EQDQ01+000000PRSWM2
0139167260999992000011019204+37070+022020FM-15+0008LGKL V0202801N002112200019N0080001N1+00601+00501999999ADDGA1021+009009999GF104991999999999999999999MA1102611999999MW1001REMMET045LGKL 101920Z 28004KT 8000 SCT030 06/05 Q1026;EQDQ01+000000PRSWM2
0139167260999992000011019504+37070+022020FM-15+0008LGKL V0203101N002112200019N0112651N1+00601+00501999999ADDGA1021+012009999GF104991999999999999999999MA1102611999999MW1001REMMET045LGKL 101950Z 31004KT 9999 SCT040 06/05 Q1026;EQDQ01+000000PRSWM2
0139167260999992000011020504+37070+022020FM-15+0008LGKL V0209999C000012200019N0112651N1+00501+00401999999ADDGA1021+012009999GF104991999999999999999999MA1102611999999MW1001REMMET045LGKL 102050Z 00000KT 9999 SCT040 05/04 Q1026;EQDQ01+000000PRSWM2
0139167260999992000011021504+37070+022020FM-15+0008LGKL V0209999C000012200019N0112651N1+00401+00301999999ADDGA1021+012009999GF104991999999999999999999MA1102611999999MW1001REMMET045LGKL 102150Z 00000KT 9999 SCT040 04/03 Q1026;EQDQ01+000000PRSWM2
0139167260999992000011022504+37070+022020FM-15+0008LGKL V0209999C000012200019N0112651N1+00401+00301999999ADDGA1021+012009999GF104991999999999999999999MA1102611999999MW1001REMMET045LGKL 102250Z 00000KT 9999 SCT040 04/03 Q1026;EQDQ01+000000PRSWM2
0139167260999992000011023504+37070+022020FM-15+0008LGKL V0209999C000012200019N0112651N1+00301+00201999999ADDGA1021+012009999GF104991999999999999999999MA1102611999999MW1001REMMET045LGKL 102350Z 00000KT 9999 SCT040 03/02 Q1026;EQDQ01+000000PRSWM2
0139167260999992000011100504+37070+022020FM-15+0008LGKL V0203001N002112200019N0112651N1+00301+00201999999ADDGA1021+012009999GF104991999999999999999999MA1102511999999MW1001REMMET045LGKL 110050Z 30004KT 9999 SCT040 03/02 Q1025;EQDQ01+000000PRSWM2
0139167260999992000011101504+37070+022020FM-15+0008LGKL V0202901N003112200019N0112651N1+00201+00101999999ADDGA1021+012009999GF104991999999999999999999MA1102511999999MW1001REMMET045LGKL 110150Z 29006KT 9999 SCT040 02/01 Q1025;EQDQ01+000000PRSWM2
0139167260999992000011102504+37070+022020FM-15+0008LGKL V0202901N002612200019N0112651N1+00301+00101999999ADDGA1021+012009999GF104991999999999999999999MA1102611999999MW1001REMMET045LGKL 110250Z 29005KT 9999 SCT040 03/01 Q1026;EQDQ01+000000PRSWM2
0162167260999992000011103504+37070+022020FM-15+0008LGKL V0203201N002112200019N0112651N1+00401+00301999999ADDGA1021+009009999GA2021+012009999GF104991999999999999999999MA1102611999999MW1001REMMET052LGKL 110350Z 32004KT 9999 SCT030 SCT040 04/03 Q1026;EQDQ01+000000PRSWM2
0162167260999992000011104504+37070+022020FM-15+0008LGKL V0203101N002612200019N0112651N1+00401+00201999999ADDGA1021+009009999GA2021+012009999GF104991999999999999999999MA1102711999999MW1001REMMET052LGKL 110450Z 31005KT 9999 FEW030 SCT040 04/02 Q1027;EQDQ01+000000PRSWM2
0139167260999992000011105504+37070+022020FM-15+0008LGKL V0203401N002612200019N0112651N1+00501+00201999999ADDGA1021+009009999GF102991999999999999999999MA1102711999999MW1001REMMET045LGKL 110550Z 34005KT 9999 FEW030 05/02 Q1027;EQDQ01+000000PRSWM2
0139167260999992000011106504+37070+022020FM-15+0008LGKL V0203401N002612200019N0112651N1+00501+00201999999ADDGA1021+009009999GF102991999999999999999999MA1102711999999MW1001REMMET045LGKL 110650Z 34005KT 9999 FEW030 05/02 Q1027;EQDQ01+000000PRSWM2
0139167260999992000011107504+37070+022020FM-15+0008LGKL V0203401N002612200019N0080001N1+00901+00301999999ADDGA1021+009009999GF102991999999999999999999MA1102711999999MW1001REMMET045LGKL 110750Z 34005KT 8000 FEW030 09/03 Q1027;EQDQ01+000000PRSWM2
0139167260999992000011108504+37070+022020FM-15+0008LGKL V0203401N002612200019N0080001N1+01101+00201999999ADDGA1021+009009999GF102991999999999999999999MA1102711999999MW1001REMMET045LGKL 110850Z 34005KT 8000 FEW030 11/02 Q1027;EQDQ01+000000PRSWM2
0139167260999992000011110204+37070+022020FM-15+0008LGKL V0203401N002612200019N0080001N1+01201+00201999999ADDGA1021+009009999GF102991999999999999999999MA1102711999999MW1001REMMET045LGKL 111020Z 34005KT 8000 FEW030 12/02 Q1027;EQDQ01+000000PRSWM2
0139167260999992000011110504+37070+022020FM-15+0008LGKL V0203001N001512200019N0112651N1+01401+00201999999ADDGA1021+009009999GF102991999999999999999999MA1102711999999MW1001REMMET045LGKL 111050Z 30003KT 9999 FEW030 14/02 Q1027;EQDQ01+000000PRSWM2
0139167260999992000011111504+37070+022020FM-15+0008LGKL V0209999C000012200019N0112651N1+01501+00001999999ADDGA1021+009009999GF102991999999999999999999MA1102611999999MW1001REMMET045LGKL 111150Z 00000KT 9999 FEW030 15/00 Q1026;EQDQ01+000000PRSWM2
0139167260999992000011112504+37070+022020FM-15+0008LGKL V0201601N003112200019N0112651N1+01501+00401999999ADDGA1021+009009999GF102991999999999999999999MA1102611999999MW1001REMMET045LGKL 111250Z 16006KT 9999 FEW030 15/04 Q1026;EQDQ01+000000PRSWM2
0139167260999992000011113504+37070+022020FM-15+0008LGKL V0202101N002612200019N0112651N1+01301+00501999999ADDGA1021+009009999GF104991999999999999999999MA1102611999999MW1001REMMET045LGKL 111350Z 21005KT 9999 SCT030 13/05 Q1026;EQDQ01+000000PRSWM2
0139167260999992000011114504+37070+022020FM-15+0008LGKL V0201401N002112200019N0112651N1+01301+00601999999ADDGA1021+009009999GF104991999999999999999999MA1102611999999MW1001REMMET045LGKL 111450Z 14004KT 9999 SCT030 13/06 Q1026;EQDQ01+000000PRSWM2
0139167260999992000011115504+37070+022020FM-15+0008LGKL V0201401N002112200019N0112651N1+01101+00701999999ADDGA1021+009009999GF104991999999999999999999MA1102711999999MW1001REMMET045LGKL 111550Z 14004KT 9999 SCT030 11/07 Q1027;EQDQ01+000000PRSWM2
0139167260999992000011116504+37070+022020FM-15+0008LGKL V0209999C000012200019N0112651N1+01001+00601999999ADDGA1021+009009999GF104991999999999999999999MA1102711999999MW1001REMMET045LGKL 111650Z 00000KT 9999 SCT030 10/06 Q1027;EQDQ01+000000PRSWM2
0139167260999992000011117504+37070+022020FM-15+0008LGKL V0209999C000012200019N0112651N1+00801+00501999999ADDGA1021+009009999GF104991999999999999999999MA1102711999999MW1001REMMET045LGKL 111750Z 00000KT 9999 SCT030 08/05 Q1027;EQDQ01+000000PRSWM2
0162167260999992000011118504+37070+022020FM-15+0008LGKL V0209999C000012200019N0112651N1+00801+00201999999ADDGA1021+009009999GA2021+012009999GF104991999999999999999999MA1102811999999MW1001REMMET052LGKL 111850Z 00000KT 9999 FEW030 SCT040 08/02 Q1028;EQDQ01+000000PRSWM2
0162167260999992000011120204+37070+022020FM-15+0008LGKL V0209999C000012200019N0112651N1+00801+00201999999ADDGA1021+009009999GA2021+012009999GF104991999999999999999999MA1102811999999MW1001REMMET052LGKL 112020Z 00000KT 9999 FEW030 SCT040 08/02 Q1028;EQDQ01+000000PRSWM2
0162167260999992000011120504+37070+022020FM-15+0008LGKL V0203101N002612200019N0112651N1+00601+00201999999ADDGA1021+009009999GA2021+012009999GF104991999999999999999999MA1102911999999MW1001REMMET052LGKL 112050Z 31005KT 9999 FEW030 SCT040 06/02 Q1029;EQDQ01+000000PRSWM2
0139167260999992000011121504+37070+022020FM-15+0008LGKL V0202901N004612200019N0112651N1+00501+00101999999ADDGA1021+009009999GF104991999999999999999999MA1102911999999MW1001REMMET045LGKL 112150Z 29009KT 9999 SCT030 05/01 Q1029;EQDQ01+000000PRSWM2
0139167260999992000011122504+37070+022020FM-15+0008LGKL V0203001N003612200019N0112651N1+00501+00101999999ADDGA1021+009009999GF104991999999999999999999MA1102911999999MW1001REMMET045LGKL 112250Z 30007KT 9999 SCT030 05/01 Q1029;EQDQ01+000000PRSWM2
0139167260999992000011123504+37070+022020FM-15+0008LGKL V0202901N004112200019N0112651N1+00401+00101999999ADDGA1021+009009999GF104991999999999999999999MA1102811999999MW1001REMMET045LGKL 112350Z 29008KT 9999 SCT030 04/01 Q1028;EQDQ01+000000PRSWM2
0139167260999992000011200504+37070+022020FM-15+0008LGKL V0202801N004612200019N0112651N1+00401+00001999999ADDGA1021+009009999GF104991999999999999999999MA1102811999999MW1001REMMET045LGKL 120050Z 28009KT 9999 SCT030 04/00 Q1028;EQDQ01+000000PRSWM2
0139167260999992000011201504+37070+022020FM-15+0008LGKL V0203001N005112200019N0112651N1+00401+00001999999ADDGA1021+009009999GF104991999999999999999999MA1102811999999MW1001REMMET045LGKL 120150Z 30010KT 9999 SCT030 04/00 Q1028;EQDQ01+000000PRSWM2
0139167260999992000011202504+37070+022020FM-15+0008LGKL V0203001N005112200019N0112651N1+00701+00001999999ADDGA1021+009009999GF104991999999999999999999MA1102811999999MW1001REMMET045LGKL 120250Z 30010KT 9999 SCT030 07/00 Q1028;EQDQ01+000000PRSWM2
0139167260999992000011203504+37070+022020FM-15+0008LGKL V0202901N005112200019N0112651N1+00501+00001999999ADDGA1021+009009999GF102991999999999999999999MA1102811999999MW1001REMMET045LGKL 120350Z 29010KT 9999 FEW030 05/00 Q1028;EQDQ01+000000PRSWM2
0140167260999992000011205204+37070+022020FM-15+0008LGKL V0202701N003612200019N0112651N1+00701-00101999999ADDGA1021+009009999GF102991999999999999999999MA1102811999999MW1001REMMET046LGKL 120520Z 27007KT 9999 FEW030 07/M01 Q1028;EQDQ01+000000PRSWM2
0140167260999992000011205504+37070+022020FM-15+0008LGKL V0202801N003612200019N0112651N1+00701-00101999999ADDGA1021+009009999GF102991999999999999999999MA1102811999999MW1001REMMET046LGKL 120550Z 28007KT 9999 FEW030 07/M01 Q1028;EQDQ01+000000PRSWM2
0140167260999992000011206504+37070+022020FM-15+0008LGKL V0202801N003612200019N0112651N1+00801+00001999999ADDGA1021+009009999GF102991999999999999999999MA1102811999999MW1001REMMET046LGKL 120650Z 28007KT 9999 FEW030 08/M00 Q1028;EQDQ01+000000PRSWM2
0139167260999992000011207504+37070+022020FM-15+0008LGKL V0203001N003112200019N0112651N1+01001+00101999999ADDGA1021+009009999GF102991999999999999999999MA1102911999999MW1001REMMET045LGKL 120750Z 30006KT 9999 FEW030 10/01 Q1029;EQDQ01+000000PRSWM2
0139167260999992000011208504+37070+022020FM-15+0008LGKL V0203001N003112200019N0112651N1+01101+00101999999ADDGA1021+009009999GF102991999999999999999999MA1102911999999MW1001REMMET045LGKL 120850Z 30006KT 9999 FEW030 11/01 Q1029;EQDQ01+000000PRSWM2
0139167260999992000011209504+37070+022020FM-15+0008LGKL V0203001N003112200019N0112651N1+01201+00101999999ADDGA1021+009009999GF102991999999999999999999MA1102911999999MW1001REMMET045LGKL 120950Z 30006KT 9999 FEW030 12/01 Q1029;EQDQ01+000000PRSWM2
0163167260999992000011210504+37070+022020FM-15+0008LGKL V0203201N001512200019N0112651N1+01301-00101999999ADDGA1021+009009999GA2021+012009999GF104991999999999999999999MA1102811999999MW1001REMMET053LGKL 121050Z 32003KT 9999 FEW030 SCT040 13/M01 Q1028;EQDQ01+000000PRSWM2
0140167260999992000011211504+37070+022020FM-15+0008LGKL V0203001N002612200019N0112651N1+01301-00101999999ADDGA1021+009009999GF102991999999999999999999MA1102611999999MW1001REMMET046LGKL 121150Z 30005KT 9999 FEW030 13/M01 Q1026;EQDQ01+000000PRSWM2
0139167260999992000011212504+37070+022020FM-15+0008LGKL V0202901N003112200019N0112651N1+01301+00101999999ADDGA1021+009009999GF102991999999999999999999MA1102611999999MW1001REMMET045LGKL 121250Z 29006KT 9999 FEW030 13/01 Q1026;EQDQ01+000000PRSWM2
0139167260999992000011213504+37070+022020FM-15+0008LGKL V0203001N004112200019N0112651N1+01301+00101999999ADDGA1021+009009999GF102991999999999999999999MA1102611999999MW1001REMMET045LGKL 121350Z 30008KT 9999 FEW030 13/01 Q1026;EQDQ01+000000PRSWM2
0139167260999992000011214504+37070+022020FM-15+0008LGKL V0202901N003612200019N0112651N1+01101+00201999999ADDGA1021+009009999GF102991999999999999999999MA1102711999999MW1001REMMET045LGKL 121450Z 29007KT 9999 FEW030 11/02 Q1027;EQDQ01+000000PRSWM2
0139167260999992000011215504+37070+022020FM-15+0008LGKL V0203001N003112200019N0112651N1+00901+00201999999ADDGA1021+013509999GF104991999999999999999999MA1102711999999MW1001REMMET045LGKL 121550Z 30006KT 9999 SCT045 09/02 Q1027;EQDQ01+000000PRSWM2
0139167260999992000011216504+37070+022020FM-15+0008LGKL V0203001N003112200019N0112651N1+00701+00301999999ADDGA1021+013509999GF104991999999999999999999MA1102711999999MW1001REMMET045LGKL 121650Z 30006KT 9999 SCT045 07/03 Q1027;EQDQ01+000000PRSWM2
0139167260999992000011217504+37070+022020FM-15+0008LGKL V0203001N003112200019N0112651N1+00601+00301999999ADDGA1021+013509999GF104991999999999999999999MA1102711999999MW1001REMMET045LGKL 121750Z 30006KT 9999 SCT045 06/03 Q1027;EQDQ01+000000PRSWM2
0139167260999992000011218504+37070+022020FM-15+0008LGKL V0203001N003112200019N0112651N1+00601+00301999999ADDGA1021+013509999GF104991999999999999999999MA1102711999999MW1001REMMET045LGKL 121850Z 30006KT 9999 SCT045 06/03 Q1027;EQDQ01+000000PRSWM2
0139167260999992000011220204+37070+022020FM-15+0008LGKL V0203001N003112200019N0112651N1+00601+00301999999ADDGA1021+013509999GF104991999999999999999999MA1102711999999MW1001REMMET045LGKL 122020Z 30006KT 9999 SCT045 06/03 Q1027;EQDQ01+000000PRSWM2
0139167260999992000011220504+37070+022020FM-15+0008LGKL V0203601N003112200019N0112651N1+00401+00101999999ADDGA1021+009009999GF102991999999999999999999MA1102811999999MW1001REMMET045LGKL 122050Z 36006KT 9999 FEW030 04/01 Q1028;EQDQ01+000000PRSWM2
0139167260999992000011221504+37070+022020FM-15+0008LGKL V0203601N003112200019N0112651N1+00401+00101999999ADDGA1021+009009999GF102991999999999999999999MA1102811999999MW1001REMMET045LGKL 122150Z 36006KT 9999 FEW030 04/01 Q1028;EQDQ01+000000PRSWM2
0139167260999992000011223204+37070+022020FM-15+0008LGKL V0203601N003112200019N0112651N1+00401+00101999999ADDGA1021+009009999GF102991999999999999999999MA1102811999999MW1001REMMET045LGKL 122320Z 36006KT 9999 FEW030 04/01 Q1028;EQDQ01+000000PRSWM2
0139167260999992000011300204+37070+022020FM-15+0008LGKL V0203601N004112200019N0112651N1+00301+00001999999ADDGA1021+009009999GF102991999999999999999999MA1102811999999MW1001REMMET045LGKL 130020Z 36008KT 9999 FEW030 03/00 Q1028;EQDQ01+000000PRSWM2
0139167260999992000011302204+37070+022020FM-15+0008LGKL V0203601N004112200019N0112651N1+00301+00101999999ADDGA1021+009009999GF102991999999999999999999MA1102711999999MW1001REMMET045LGKL 130220Z 36008KT 9999 FEW030 03/01 Q1027;EQDQ01+000000PRSWM2
0139167260999992000011302504+37070+022020FM-15+0008LGKL V0203601N004112200019N0112651N1+00301+00101999999ADDGA1021+009009999GF102991999999999999999999MA1102711999999MW1001REMMET045LGKL 130250Z 36008KT 9999 FEW030 03/01 Q1027;EQDQ01+000000PRSWM2
0162167260999992000011303504+37070+022020FM-15+0008LGKL V0203601N004112200019N0112651N1+00501+00001999999ADDGA1021+009009999GA2021+024009999GF104991999999999999999999MA1102711999999MW1001REMMET052LGKL 130350Z 36008KT 9999 FEW030 SCT080 05/00 Q1027;EQDQ01+000000PRSWM2
0162167260999992000011304504+37070+022020FM-15+0008LGKL V0203601N004112200019N0112651N1+00501+00001999999ADDGA1021+009009999GA2021+024009999GF104991999999999999999999MA1102711999999MW1001REMMET052LGKL 130450Z 36008KT 9999 FEW030 SCT080 05/00 Q1027;EQDQ01+000000PRSWM2
0140167260999992000011305504+37070+022020FM-15+0008LGKL V0202901N004612200019N0112651N1+00401-00101999999ADDGA1021+013509999GF104991999999999999999999MA1102711999999MW1001REMMET046LGKL 130550Z 29009KT 9999 SCT045 04/M01 Q1027;EQDQ01+000000PRSWM2
0139167260999992000011306504+37070+022020FM-15+0008LGKL V0202801N003612200019N0112651N1+00601+00001999999ADDGA1021+013509999GF104991999999999999999999MA1102711999999MW1001REMMET045LGKL 130650Z 28007KT 9999 SCT045 06/00 Q1027;EQDQ01+000000PRSWM2
0139167260999992000011307504+37070+022020FM-15+0008LGKL V0203101N002112200019N0112651N1+00901+00101999999ADDGA1021+009009999GF102991999999999999999999MA1102711999999MW1001REMMET045LGKL 130750Z 31004KT 9999 FEW030 09/01 Q1027;EQDQ01+000000PRSWM2
0163167260999992000011308504+37070+022020FM-15+0008LGKL V0203201N002110540019N0112651N1+01101-00201999999ADDGA1021+009009999GA2071+054009999GF107991999999999999999999MA1102711999999MW1001REMMET053LGKL 130850Z 32004KT 9999 FEW030 BKN180 11/M02 Q1027;EQDQ01+000000PRSWM2
0163167260999992000011309504+37070+022020FM-15+0008LGKL V0209999C000010540019N0112651N1+01101-00201999999ADDGA1021+009009999GA2071+054009999GF107991999999999999999999MA1102711999999MW1001REMMET053LGKL 130950Z 00000KT 9999 FEW030 BKN180 11/M02 Q1027;EQDQ01+000000PRSWM2
0162167260999992000011310504+37070+022020FM-15+0008LGKL V0209999C000012200019N0112651N1+01101+00001999999ADDGA1021+009009999GA2021+054009999GF104991999999999999999999MA1102711999999MW1001REMMET052LGKL 131050Z 00000KT 9999 FEW030 SCT180 11/00 Q1027;EQDQ01+000000PRSWM2
0163167260999992000011311504+37070+022020FM-15+0008LGKL V0203401N003612200019N0112651N1+01301-00101999999ADDGA1021+009009999GA2021+054009999GF104991999999999999999999MA1102511999999MW1001REMMET053LGKL 131150Z 34007KT 9999 FEW030 SCT180 13/M01 Q1025;EQDQ01+000000PRSWM2
0162167260999992000011312504+37070+022020FM-15+0008LGKL V02099999999992200019N0112651N1+01301+00001999999ADDGA1021+009009999GA2021+054009999GF104991999999999999999999MA1102401999999MW1001REMMET052LGKL 131250Z 010011T 9999 FEW030 SCT180 13/00 Q1024;EQDQ01+000000PRSWM2
0162167260999992000011313504+37070+022020FM-15+0008LGKL V0203501N004112200019N0112651N1+01301+00001999999ADDGA1021+009009999GA2021+054009999GF104991999999999999999999MA1102401999999MW1001REMMET052LGKL 131350Z 35008KT 9999 FEW030 SCT180 13/00 Q1024;EQDQ01+000000PRSWM2
0162167260999992000011314504+37070+022020FM-15+0008LGKL V0200401N002612200019N0112651N1+01201+00001999999ADDGA1021+009009999GA2021+054009999GF104991999999999999999999MA1102401999999MW1001REMMET052LGKL 131450Z 04005KT 9999 FEW030 SCT180 12/00 Q1024;EQDQ01+000000PRSWM2
0162167260999992000011315504+37070+022020FM-15+0008LGKL V0209999C000012200019N0112651N1+01001+00201999999ADDGA1021+009009999GA2021+054009999GF104991999999999999999999MA1102401999999MW1001REMMET052LGKL 131550Z 00000KT 9999 FEW030 SCT180 10/02 Q1024;EQDQ01+000000PRSWM2
0162167260999992000011317204+37070+022020FM-15+0008LGKL V0203201N002612200019N0112651N1+00901+00101999999ADDGA1021+009009999GA2021+054009999GF104991999999999999999999MA1102401999999MW1001REMMET052LGKL 131720Z 32005KT 9999 FEW030 SCT180 09/01 Q1024;EQDQ01+000000PRSWM2
0162167260999992000011317504+37070+022020FM-15+0008LGKL V0203301N004612200019N0112651N1+00901+00001999999ADDGA1021+009009999GA2021+054009999GF104991999999999999999999MA1102401999999MW1001REMMET052LGKL 131750Z 33009KT 9999 FEW030 SCT180 09/00 Q1024;EQDQ01+000000PRSWM2
0162167260999992000011318504+37070+022020FM-15+0008LGKL V0203101N004112200019N0112651N1+00901+00001999999ADDGA1021+009009999GA2021+054009999GF104991999999999999999999MA1102401999999MW1001REMMET052LGKL 131850Z 31008KT 9999 FEW030 SCT180 09/00 Q1024;EQDQ01+000000PRSWM2
0139167260999992000011319504+37070+022020FM-15+0008LGKL V0202901N002112200019N0112651N1+00801+00101999999ADDGA1021+009009999GF104991999999999999999999MA1102301999999MW1001REMMET045LGKL 131950Z 29004KT 9999 SCT030 08/01 Q1023;EQDQ01+000000PRSWM2
0139167260999992000011320504+37070+022020FM-15+0008LGKL V0202901N004112200019N0112651N1+00801+00001999999ADDGA1021+009009999GF104991999999999999999999MA1102301999999MW1001REMMET045LGKL 132050Z 29008KT 9999 SCT030 08/00 Q1023;EQDQ01+000000PRSWM2
0139167260999992000011321504+37070+022020FM-15+0008LGKL V0202901N004612200019N0112651N1+00701+00001999999ADDGA1021+009009999GF104991999999999999999999MA1102301999999MW1001REMMET045LGKL 132150Z 29009KT 9999 SCT030 07/00 Q1023;EQDQ01+000000PRSWM2
0139167260999992000011322504+37070+022020FM-15+0008LGKL V0203101N004112200019N0112651N1+00801+00001999999ADDGA1021+009009999GF104991999999999999999999MA1102301999999MW1001REMMET045LGKL 132250Z 31008KT 9999 SCT030 08/00 Q1023;EQDQ01+000000PRSWM2
0139167260999992000011323504+37070+022020FM-15+0008LGKL V0203301N004112200019N0112651N1+00701+00001999999ADDGA1021+009009999GF104991999999999999999999MA1102301999999MW1001REMMET045LGKL 132350Z 33008KT 9999 SCT030 07/00 Q1023;EQDQ01+000000PRSWM2
0140167260999992000011400504+37070+022020FM-15+0008LGKL V0203101N004612200019N0112651N1+00801-00101999999ADDGA1021+009009999GF104991999999999999999999MA1102201999999MW1001REMMET046LGKL 140050Z 31009KT 9999 SCT030 08/M01 Q1022;EQDQ01+000000PRSWM2
0140167260999992000011401504+37070+022020FM-15+0008LGKL V0203001N005112200019N0112651N1+00801-00101999999ADDGA1021+009009999GF104991999999999999999999MA1102101999999MW1001REMMET046LGKL 140150Z 30010KT 9999 SCT030 08/M01 Q1021;EQDQ01+000000PRSWM2
0140167260999992000011402504+37070+022020FM-15+0008LGKL V0203101N005112200019N0112651N1+00901-00101999999ADDGA1021+009009999GF104991999999999999999999MA1102001999999MW1001REMMET046LGKL 140250Z 31010KT 9999 SCT030 09/M01 Q1020;EQDQ01+000000PRSWM2
0163167260999992000011404204+37070+022020FM-15+0008LGKL V0202301N003112200019N0112651N1+00901-00101999999ADDGA1021+009009999GA2021+054009999GF104991999999999999999999MA1101901999999MW1001REMMET053LGKL 140420Z 23006KT 9999 FEW030 SCT180 09/M01 Q1019;EQDQ01+000000PRSWM2
0162167260999992000011404504+37070+022020FM-15+0008LGKL V0202301N003112200019N0112651N1+00901+00101999999ADDGA1021+009009999GA2021+054009999GF104991999999999999999999MA1101901999999MW1001REMMET052LGKL 140450Z 23006KT 9999 FEW030 SCT180 09/01 Q1019;EQDQ01+000000PRSWM2
0162167260999992000011405504+37070+022020FM-15+0008LGKL V0202801N003112200019N0112651N1+00901+00101999999ADDGA1021+009009999GA2021+054009999GF104991999999999999999999MA1101901999999MW1001REMMET052LGKL 140550Z 28006KT 9999 FEW030 SCT180 09/01 Q1019;EQDQ01+000000PRSWM2
0186167260999992000011407204+37070+022020FM-15+0008LGKL V0203601N004110240019N0112651N1+01001-00301999999ADDGA1021+009009999GA2071+024009999GA3081+054009999GF108991999999999999999999MA1102001999999MW1001REMMET060LGKL 140720Z 36008KT 9999 FEW030 BKN080 OVC180 10/M03 Q1020;EQDQ01+000000PRSWM2
0186167260999992000011408204+37070+022020FM-15+0008LGKL V0209999C000010240019N0112651N1+01001-00301999999ADDGA1021+009009999GA2071+024009999GA3081+048009999GF108991999999999999999999MA1102001999999MW1001REMMET060LGKL 140820Z 00000KT 9999 FEW030 BKN080 OVC160 10/M03 Q1020;EQDQ01+000000PRSWM2
0186167260999992000011408504+37070+022020FM-15+0008LGKL V0209999C000010240019N0112651N1+01101-00201999999ADDGA1021+009009999GA2071+024009999GA3081+048009999GF108991999999999999999999MA1102001999999MW1001REMMET060LGKL 140850Z 00000KT 9999 FEW030 BKN080 OVC160 11/M02 Q1020;EQDQ01+000000PRSWM2
0186167260999992000011409504+37070+022020FM-15+0008LGKL V0200401N003110240019N0112651N1+01101-00201999999ADDGA1021+009009999GA2071+024009999GA3081+048009999GF108991999999999999999999MA1102001999999MW1001REMMET060LGKL 140950Z 04006KT 9999 FEW030 BKN080 OVC160 11/M02 Q1020;EQDQ01+000000PRSWM2
0186167260999992000011410504+37070+022020FM-15+0008LGKL V0200601N007710240019N0112651N1+01101-00201999999ADDGA1021+009009999GA2071+024009999GA3081+048009999GF108991999999999999999999MA1102001999999MW1001REMMET060LGKL 141050Z 06015KT 9999 FEW030 BKN080 OVC160 11/M02 Q1020;EQDQ01+000000PRSWM2
0186167260999992000011411504+37070+022020FM-15+0008LGKL V0200601N007710240019N0112651N1+01101-00201999999ADDGA1021+009009999GA2071+024009999GA3081+048009999GF108991999999999999999999MA1102001999999MW1001REMMET060LGKL 141150Z 06015KT 9999 FEW030 BKN080 OVC160 11/M02 Q1020;EQDQ01+000000PRSWM2
0185167260999992000011412504+37070+022020FM-15+0008LGKL V0203001N003110240019N0112651N1+01201+00101999999ADDGA1021+009009999GA2071+024009999GA3081+048009999GF108991999999999999999999MA1101901999999MW1001REMMET059LGKL 141250Z 30006KT 9999 FEW030 BKN080 OVC160 12/01 Q1019;EQDQ01+000000PRSWM2
0185167260999992000011413504+37070+022020FM-15+0008LGKL V0200201N006210240019N0112651N1+01201+00101999999ADDGA1021+009009999GA2071+024009999GA3081+048009999GF108991999999999999999999MA1101901999999MW1001REMMET059LGKL 141350Z 02012KT 9999 FEW030 BKN080 OVC160 12/01 Q1019;EQDQ01+000000PRSWM2
0186167260999992000011415204+37070+022020FM-15+0008LGKL V0200301N005110240019N0112651N1+01001-00101999999ADDGA1021+009009999GA2071+024009999GA3081+048009999GF108991999999999999999999MA1101591999999MW1001REMMET060LGKL 141520Z 03010KT 9999 FEW030 BKN080 OVC160 10/M01 Q1016;EQDQ01+000000PRSWM2
0185167260999992000011415504+37070+022020FM-15+0008LGKL V0200301N004110240019N0112651N1+00901+00001999999ADDGA1021+009009999GA2071+024009999GA3081+048009999GF108991999999999999999999MA1101591999999MW1001REMMET059LGKL 141550Z 03008KT 9999 FEW030 BKN080 OVC160 09/00 Q1016;EQDQ01+000000PRSWM2
0185167260999992000011416504+37070+022020FM-15+0008LGKL V0200601N006210210019N0112651N1+00701+00201999999ADDGA1021+009009999GA2071+021009999GA3081+048009999GF108991999999999999999999MA1101691999999MW1001REMMET059LGKL 141650Z 06012KT 9999 FEW030 BKN070 OVC160 07/02 Q1017;EQDQ01+000000PRSWM2
0185167260999992000011417504+37070+022020FM-15+0008LGKL V0200501N005110210019N0112651N1+01001+00201999999ADDGA1021+009009999GA2071+021009999GA3081+048009999GF108991999999999999999999MA1101691999999MW1001REMMET059LGKL 141750Z 05010KT 9999 FEW030 BKN070 OVC160 10/02 Q1017;EQDQ01+000000PRSWM2
0186167260999992000011418504+37070+022020FM-15+0008LGKL V0200501N006710210019N0112651N1+01101-00101999999ADDGA1021+009009999GA2071+021009999GA3081+048009999GF108991999999999999999999MA1101691999999MW1001REMMET060LGKL 141850Z 05013KT 9999 FEW030 BKN070 OVC160 11/M01 Q1017;EQDQ01+000000PRSWM2
0186167260999992000011419504+37070+022020FM-15+0008LGKL V0200601N005110210019N0112651N1+01101-00101999999ADDGA1021+009009999GA2071+021009999GA3081+048009999GF108991999999999999999999MA1101591999999MW1001REMMET060LGKL 141950Z 06010KT 9999 FEW030 BKN070 OVC160 11/M01 Q1016;EQDQ01+000000PRSWM2
0185167260999992000011420504+37070+022020FM-15+0008LGKL V0202901N005710210019N0112651N1+01001-00101999999ADDGA1021+009009999GA2071+021009999GA3081+048009999GF108991999999999999999999MA1101591999999MW1001REMMET059LGKL 142050 29011KT 9999 FEW030 BKN070 OVC160 10/M01 Q1016;EQDQ01+000000PRSWM2
0185167260999992000011422204+37070+022020FM-15+0008LGKL V0203001N007210210019N0112651N1+01001-00101999999ADDGA1021+009009999GA2071+021009999GA3081+048009999GF108991999999999999999999MA1101591999999MW1001REMMET059LGKL 142220 30014KT 9999 FEW030 BKN070 OVC160 10/M01 Q1016;EQDQ01+000000PRSWM2
0185167260999992000011422504+37070+022020FM-15+0008LGKL V0202901N007210210019N0112651N1+01001-00101999999ADDGA1021+009009999GA2071+021009999GA3081+048009999GF108991999999999999999999MA1101591999999MW1001REMMET059LGKL 142250 29014KT 9999 FEW030 BKN070 OVC160 10/M01 Q1016;EQDQ01+000000PRSWM2
0185167260999992000011423504+37070+022020FM-15+0008LGKL V0203101N008210210019N0112651N1+01001-00201999999ADDGA1021+009009999GA2071+021009999GA3081+048009999GF108991999999999999999999MA1101591999999MW1001REMMET059LGKL 142350 31016KT 9999 FEW030 BKN070 OVC160 10/M02 Q1016;EQDQ01+000000PRSWM2
0186167260999992000011500504+37070+022020FM-15+0008LGKL V0203201N006710210019N0112651N1+01101-00201999999ADDGA1021+009009999GA2071+021009999GA3081+048009999GF108991999999999999999999MA1101591999999MW1001REMMET060LGKL 150050Z 32013KT 9999 FEW030 BKN070 OVC160 11/M02 Q1016;EQDQ01+000000PRSWM2
0197167260999992000011501504+37070+022020FM-15+0008LGKL V0203101N007210210019N0112651N1+01101-00201999999ADDGA1021+009009999GA2071+021009999GA3081+048009999GF108991999999999999999999MA1101591999999MW1001OC101231REMMET063LGKL 150150Z 31014G24KT 9999 FEW030 BKN070 OVC160 11/M02 Q1016;EQDQ01+000000PRSWM2
0186167260999992000011502504+37070+022020FM-15+0008LGKL V0203101N006710210019N0112651N1+01101-00201999999ADDGA1021+009009999GA2071+021009999GA3081+048009999GF108991999999999999999999MA1101591999999MW1001REMMET060LGKL 150250Z 31013KT 9999 FEW030 BKN070 OVC160 11/M02 Q1016;EQDQ01+000000PRSWM2
0186167260999992000011503504+37070+022020FM-15+0008LGKL V0203201N006210210019N0112651N1+01001-00101999999ADDGA1021+009009999GA2071+021009999GA3081+048009999GF108991999999999999999999MA1101591999999MW1001REMMET060LGKL 150350Z 32012KT 9999 FEW030 BKN070 OVC160 10/M01 Q1016;EQDQ01+000000PRSWM2
0186167260999992000011504504+37070+022020FM-15+0008LGKL V0203101N007210210019N0112651N1+01001-00101999999ADDGA1021+009009999GA2071+021009999GA3081+048009999GF108991999999999999999999MA1101591999999MW1001REMMET060LGKL 150450Z 31014KT 9999 FEW030 BKN070 OVC160 10/M01 Q1016;EQDQ01+000000PRSWM2
0185167260999992000011505504+37070+022020FM-15+0008LGKL V0203101N007710210019N0112651N1+01001-00101999999ADDGA1021+009009999GA2071+021009999GA3081+048009999GF108991999999999999999999MA1101591999999MW1001REMMET059LGKL 150550 31015KT 9999 FEW030 BKN070 OVC160 10/M01 Q1016;EQDQ01+000000PRSWM2
0196167260999992000011506504+37070+022020FM-15+0008LGKL V0203201N007710210019N0112651N1+01001-00101999999ADDGA1021+009009999GA2071+021009999GA3081+048009999GF108991999999999999999999MA1101591999999MW1001OC101291REMMET062LGKL 150650 32015G25KT 9999 FEW030 BKN070 OVC160 10/M01 Q1016;EQDQ01+000000PRSWM2
0195167260999992000011507504+37070+022020FM-15+0008LGKL V0203301N006210210019N0112651N1+01001+00001999999ADDGA1021+009009999GA2071+021009999GA3081+048009999GF108991999999999999999999MA1101691999999MW1001OC101291REMMET061LGKL 150750 33012G25KT 9999 FEW030 BKN070 OVC160 10/00 Q1017;EQDQ01+000000PRSWM2
0195167260999992000011508504+37070+022020FM-15+0008LGKL V0203401N007210210019N0112651N1+01001+00001999999ADDGA1021+009009999GA2071+021009999GA3081+048009999GF108991999999999999999999MA1101691999999MW1001OC101541REMMET061LGKL 150850 34014G30KT 9999 FEW030 BKN070 OVC160 10/00 Q1017;EQDQ01+000000PRSWM2
0196167260999992000011509504+37070+022020FM-15+0008LGKL V0203401N005110210019N0112651N1+01101-00201999999ADDGA1021+009009999GA2071+021009999GA3081+048009999GF108991999999999999999999MA1101801999999MW1001OC101291REMMET062LGKL 150950 34010G25KT 9999 FEW030 BKN070 OVC160 11/M02 Q1018;EQDQ01+000000PRSWM2
0195167260999992000011510504+37070+022020FM-15+0008LGKL V0203401N006210180019N0112651N1+01201+00101999999ADDGA1021+009009999GA2071+018009999GA3081+048009999GF108991999999999999999999MA1101691999999MW1001OC101291REMMET061LGKL 151050 34012G25KT 9999 FEW030 BKN060 OVC160 12/01 Q1017;EQDQ01+000000PRSWM2
0195167260999992000011511504+37070+022020FM-15+0008LGKL V0203201N005110210019N0112651N1+01301+00101999999ADDGA1021+009009999GA2071+021009999GA3081+048009999GF108991999999999999999999MA1101691999999MW1001OC101231REMMET061LGKL 151150 32010G24KT 9999 FEW030 BKN070 OVC160 13/01 Q1017;EQDQ01+000000PRSWM2
0195167260999992000011512504+37070+022020FM-15+0008LGKL V0203201N005110210019N0112651N1+01201+00101999999ADDGA1021+009009999GA2071+021009999GA3081+048009999GF108991999999999999999999MA1101691999999MW1001OC101231REMMET061LGKL 151250 32010G24KT 9999 FEW030 BKN070 OVC160 12/01 Q1017;EQDQ01+000000PRSWM2
0195167260999992000011513504+37070+022020FM-15+0008LGKL V0203201N005110210019N0112651N1+01201+00101999999ADDGA1021+009009999GA2071+021009999GA3081+048009999GF108991999999999999999999MA1101691999999MW1001OC101231REMMET061LGKL 151350 32010G24KT 9999 FEW030 BKN070 OVC160 12/01 Q1017;EQDQ01+000000PRSWM2
0184167260999992000011515504+37070+022020FM-15+0008LGKL V0203201N004110240019N0112651N1+01001+00301999999ADDGA1021+009009999GA2071+024009999GA3071+048009999GF107991999999999999999999MA1101801999999MW1001REMMET058LGKL 151550 32008KT 9999 FEW030 BKN080 BKN160 10/03 Q1018;EQDQ01+000000PRSWM2
0184167260999992000011516504+37070+022020FM-15+0008LGKL V0203201N003110240019N0112651N1+01001+00301999999ADDGA1021+009009999GA2071+024009999GA3071+048009999GF107991999999999999999999MA1101801999999MW1001REMMET058LGKL 151650 32006KT 9999 FEW030 BKN080 BKN160 10/03 Q1018;EQDQ01+000000PRSWM2
0161167260999992000011518504+37070+022020FM-15+0008LGKL V0203101N002610240019N0112651N1+00801+00201999999ADDGA1021+009009999GA2071+024009999GF107991999999999999999999MA1101901999999MW1001REMMET051LGKL 151850 31005KT 9999 FEW030 BKN080 08/02 Q1019;EQDQ01+000000PRSWM2
0184167260999992000011522204+37070+022020FM-15+0008LGKL V0203101N003110210019N0112651N1+00701+00201999999ADDGA1021+009009999GA2071+021009999GA3071+048009999GF107991999999999999999999MA1102001999999MW1001REMMET058LGKL 152220 31006KT 9999 FEW030 BKN070 BKN160 07/02 Q1020;EQDQ01+000000PRSWM2
0184167260999992000011523504+37070+022020FM-15+0008LGKL V0203201N003110210019N0112651N1+00701+00101999999ADDGA1021+009009999GA2071+021009999GA3071+048009999GF107991999999999999999999MA1102001999999MW1001REMMET058LGKL 152350 32006KT 9999 FEW030 BKN070 BKN160 07/01 Q1020;EQDQ01+000000PRSWM2
0185167260999992000011602504+37070+022020FM-15+0008LGKL V0203301N002110240019N0112651N1+00701+00201999999ADDGA1021+009009999GA2021+012009999GA3071+024009999GF107991999999999999999999MA1102001999999MW1001REMMET059LGKL 160250Z 33004KT 9999 FEW030 SCT040 BKN080 07/02 Q1020;EQDQ01+000000PRSWM2
0184167260999992000011605504+37070+022020FM-15+0008LGKL V0203101N002610240019N0112651N1+00501+00201999999ADDGA1021+009009999GA2021+012009999GA3071+024009999GF107991999999999999999999MA1102001999999MW1001REMMET058LGKL 160550 31005KT 9999 FEW030 SCT040 BKN080 05/02 Q1020;EQDQ01+000000PRSWM2
0184167260999992000011606504+37070+022020FM-15+0008LGKL V0202901N002610240019N0112651N1+00601+00201999999ADDGA1021+009009999GA2021+012009999GA3071+024009999GF107991999999999999999999MA1102101999999MW1001REMMET058LGKL 160650 29005KT 9999 FEW030 SCT040 BKN080 06/02 Q1021;EQDQ01+000000PRSWM2
0184167260999992000011607504+37070+022020FM-15+0008LGKL V0203001N002610210019N0080001N1+00801+00301999999ADDGA1021+009009999GA2021+012009999GA3071+021009999GF107991999999999999999999MA1102101999999MW1001REMMET058LGKL 160750 30005KT 8000 FEW030 SCT040 BKN070 08/03 Q1021;EQDQ01+000000PRSWM2
0161167260999992000011608504+37070+022020FM-15+0008LGKL V0209999C000012200019N0080001N1+01101+00401999999ADDGA1021+009009999GA2021+012009999GF104991999999999999999999MA1102101999999MW1001REMMET051LGKL 160850 00000KT 8000 FEW030 SCT040 11/04 Q1021;EQDQ01+000000PRSWM2
0161167260999992000011611504+37070+022020FM-15+0008LGKL V0201501N002612200019N0112651N1+01501+00601999999ADDGA1021+009009999GA2021+012009999GF104991999999999999999999MA1101901999999MW1001REMMET051LGKL 161150 15005KT 9999 FEW030 SCT040 15/06 Q1019;EQDQ01+000000PRSWM2
0161167260999992000011612504+37070+022020FM-15+0008LGKL V0201401N002612200019N0112651N1+01501+00601999999ADDGA1021+009009999GA2021+012009999GF104991999999999999999999MA1101901999999MW1001REMMET051LGKL 161250 14005KT 9999 FEW030 SCT040 15/06 Q1019;EQDQ01+000000PRSWM2
0161167260999992000011614504+37070+022020FM-15+0008LGKL V0200701N003610210019N0112651N1+01401+00501999999ADDGA1021+009009999GA2071+021009999GF107991999999999999999999MA1101901999999MW1001REMMET051LGKL 161450 07007KT 9999 FEW030 BKN070 14/05 Q1019;EQDQ01+000000PRSWM2
0184167260999992000011616504+37070+022020FM-15+0008LGKL V0203401N003610480019N0112651N1+01201+00601999999ADDGA1021+009009999GA2021+021009999GA3071+048009999GF107991999999999999999999MA1102001999999MW1001REMMET058LGKL 161650 34007KT 9999 FEW030 SCT070 BKN160 12/06 Q1020;EQDQ01+000000PRSWM2
0184167260999992000011617504+37070+022020FM-15+0008LGKL V0203101N003110480019N0112651N1+01201+00501999999ADDGA1021+009009999GA2021+021009999GA3071+048009999GF107991999999999999999999MA1101901999999MW1001REMMET058LGKL 161750 31006KT 9999 FEW030 SCT070 BKN160 12/05 Q1019;EQDQ01+000000PRSWM2
0184167260999992000011618504+37070+022020FM-15+0008LGKL V0203001N002610480019N0112651N1+01201+00501999999ADDGA1021+009009999GA2021+021009999GA3071+048009999GF107991999999999999999999MA1101901999999MW1001REMMET058LGKL 161850 30005KT 9999 FEW030 SCT070 BKN160 12/05 Q1019;EQDQ01+000000PRSWM2
0161167260999992000011619504+37070+022020FM-15+0008LGKL V0209999C000010240019N0112651N1+00901+00501999999ADDGA1021+009009999GA2071+024009999GF107991999999999999999999MA1101901999999MW1001REMMET051LGKL 161950 00000KT 9999 FEW030 BKN080 09/05 Q1019;EQDQ01+000000PRSWM2
0138167260999992000011620504+37070+022020FM-15+0008LGKL V0209999C000012200019N0112651N1+00801+00501999999ADDGA1021+012009999GF104991999999999999999999MA1101901999999MW1001REMMET044LGKL 162050 00000KT 9999 SCT040 08/05 Q1019;EQDQ01+000000PRSWM2
0138167260999992000011621504+37070+022020FM-15+0008LGKL V0209999C000012200019N0112651N1+00701+00401999999ADDGA1021+012009999GF104991999999999999999999MA1101901999999MW1001REMMET044LGKL 162150 00000KT 9999 SCT040 07/04 Q1019;EQDQ01+000000PRSWM2
0138167260999992000011622504+37070+022020FM-15+0008LGKL V0209999C000012200019N0112651N1+00701+00401999999ADDGA1021+012009999GF104991999999999999999999MA1101901999999MW1001REMMET044LGKL 162250 00000KT 9999 SCT040 07/04 Q1019;EQDQ01+000000PRSWM2
0138167260999992000011700204+37070+022020FM-15+0008LGKL V0203301N002112200019N0112651N1+00601+00301999999ADDGA1021+012009999GF104991999999999999999999MA1101801999999MW1001REMMET044LGKL 170020 33004KT 9999 SCT040 06/03 Q1018;EQDQ01+000000PRSWM2
0161167260999992000011700504+37070+022020FM-15+0008LGKL V0203001N002610240019N0112651N1+00601+00301999999ADDGA1021+012009999GA2071+024009999GF107991999999999999999999MA1101801999999MW1001REMMET051LGKL 170050 30005KT 9999 SCT040 BKN080 06/03 Q1018;EQDQ01+000000PRSWM2
0161167260999992000011701504+37070+022020FM-15+0008LGKL V0203001N002610240019N0112651N1+00601+00301999999ADDGA1021+012009999GA2071+024009999GF107991999999999999999999MA1101801999999MW1001REMMET051LGKL 170150 30005KT 9999 SCT040 BKN080 06/03 Q1018;EQDQ01+000000PRSWM2
0161167260999992000011702504+37070+022020FM-15+0008LGKL V0209999C000010240019N0112651N1+00701+00601999999ADDGA1021+012009999GA2071+024009999GF107991999999999999999999MA1101691999999MW1001REMMET051LGKL 170250 00000KT 9999 SCT040 BKN080 07/06 Q1017;EQDQ01+000000PRSWM2
0181167260999992000011703504+37070+022020FM-15+0008LGKL V0203001N002110240019N0080001N1+00701+00701999999ADDGA1021+012009999GA2081+024009999GF108991999999999999999999MA1101591999999MW1631REMMET055LGKL 170350Z 30004KT 8000 RA SCT040 OVC080 07/07 Q1016;EQDQ01+000003PRSWM1Q02    003PRSWM1
0180167260999992000011704504+37070+022020FM-15+0008LGKL V0203001N003110240019N0080001N1+00701+00701999999ADDGA1021+012009999GA2081+024009999GF108991999999999999999999MA1101491999999MW1631REMMET054LGKL 170450 30006KT 8000 RA SCT040 OVC080 07/07 Q1015;EQDQ01+000003PRSWM1Q02    003PRSWM1
0181167260999992000011705504+37070+022020FM-15+0008LGKL V0203001N001510240019N0080001N1+00701+00701999999ADDGA1021+009009999GA2081+024009999GF108991999999999999999999MA1101391999999MW1611REMMET055LGKL 170550 30003KT 8000 -RA SCT030 OVC080 07/07 Q1014;EQDQ01+000003PRSWM1Q02    003PRSWM1
0184167260999992000011706504+37070+022020FM-15+0008LGKL V0203001N001510240019N0080001N1+00801+00701999999ADDGA1021+006009999GA2021+009009999GA3081+024009999GF108991999999999999999999MA1101391999999MW1001REMMET058LGKL 170650 30003KT 8000 FEW020 SCT030 OVC080 08/07 Q1014;EQDQ01+000000PRSWM2
0184167260999992000011707504+37070+022020FM-15+0008LGKL V0203101N001510240019N0080001N1+00901+00801999999ADDGA1021+006009999GA2021+009009999GA3081+024009999GF108991999999999999999999MA1101391999999MW1001REMMET058LGKL 170750 31003KT 8000 FEW020 SCT030 OVC080 09/08 Q1014;EQDQ01+000000PRSWM2
0184167260999992000011708504+37070+022020FM-15+0008LGKL V0203401N002110240019N0080001N1+00901+00701999999ADDGA1021+006009999GA2021+009009999GA3081+024009999GF108991999999999999999999MA1101291999999MW1001REMMET058LGKL 170850 34004KT 8000 FEW020 SCT030 OVC080 09/07 Q1013;EQDQ01+000000PRSWM2
0184167260999992000011709504+37070+022020FM-15+0008LGKL V0203101N002110240019N0080001N1+00901+00701999999ADDGA1021+002409999GA2021+006009999GA3081+024009999GF108991999999999999999999MA1101191999999MW1001REMMET058LGKL 170950 31004KT 8000 FEW008 SCT020 OVC080 09/07 Q1012;EQDQ01+000000PRSWM2
0184167260999992000011710504+37070+022020FM-15+0008LGKL V0203201N002110240019N0080001N1+00901+00701999999ADDGA1021+002409999GA2021+006009999GA3081+024009999GF108991999999999999999999MA1101081999999MW1001REMMET058LGKL 171050 32004KT 8000 FEW008 SCT020 OVC080 09/07 Q1011;EQDQ01+000000PRSWM2
0184167260999992000011711504+37070+022020FM-15+0008LGKL V0203201N002610240019N0080001N1+01001+00601999999ADDGA1021+002409999GA2021+006009999GA3081+024009999GF108991999999999999999999MA1101021999999MW1001REMMET058LGKL 171150 32005KT 8000 FEW008 SCT020 OVC080 10/06 Q1010;EQDQ01+000000PRSWM2
0184167260999992000011712504+37070+022020FM-15+0008LGKL V0203201N002610240019N0080001N1+01001+00601999999ADDGA1021+002409999GA2021+006009999GA3071+024009999GF107991999999999999999999MA1101021999999MW1001REMMET058LGKL 171250 32005KT 8000 FEW008 SCT020 BKN080 10/06 Q1010;EQDQ01+000000PRSWM2
0184167260999992000011713504+37070+022020FM-15+0008LGKL V0203401N002610240019N0080001N1+01101+00601999999ADDGA1021+002409999GA2021+006009999GA3071+024009999GF107991999999999999999999MA1100811999999MW1001REMMET058LGKL 171350 34005KT 8000 FEW008 SCT020 BKN080 11/06 Q1008;EQDQ01+000000PRSWM2
0184167260999992000011714504+37070+022020FM-15+0008LGKL V0203401N002610240019N0080001N1+01101+00601999999ADDGA1021+002409999GA2021+006009999GA3071+024009999GF107991999999999999999999MA1100811999999MW1001REMMET058LGKL 171450 34005KT 8000 FEW008 SCT020 BKN080 11/06 Q1008;EQDQ01+000000PRSWM2
0184167260999992000011715504+37070+022020FM-15+0008LGKL V0203401N002610240019N0080001N1+01101+00601999999ADDGA1021+002409999GA2021+006009999GA3071+024009999GF107991999999999999999999MA1100811999999MW1001REMMET058LGKL 171550 34005KT 8000 FEW008 SCT020 BKN080 11/06 Q1008;EQDQ01+000000PRSWM2
0185167260999992000011716504+37070+022020FM-15+0008LGKL V0203401N002610240019N0080001N1+00901+00601999999ADDGA1021+002409999GA2021+006009999GA3071+024009999GF107991999999999999999999MA1100711999999MW1001REMMET059LGKL 171650Z 34005KT 8000 FEW008 SCT020 BKN080 09/06 Q1007;EQDQ01+000000PRSWM2
0184167260999992000011717504+37070+022020FM-15+0008LGKL V0203201N002610240019N0080001N1+00901+00501999999ADDGA1021+002409999GA2021+006009999GA3071+024009999GF107991999999999999999999MA1100711999999MW1001REMMET058LGKL 171750 32005KT 8000 FEW008 SCT020 BKN080 09/05 Q1007;EQDQ01+000000PRSWM2
0161167260999992000011718504+37070+022020FM-15+0008LGKL V0203201N002610240019N0080001N1+00701+00501999999ADDGA1021+006009999GA2071+024009999GF107991999999999999999999MA1100711999999MW1001REMMET051LGKL 171850 32005KT 8000 SCT020 BKN080 07/05 Q1007;EQDQ01+000000PRSWM2
0161167260999992000011719504+37070+022020FM-15+0008LGKL V0203001N002612200019N0080001N1+00601+00401999999ADDGA1021+002409999GA2021+006009999GF104991999999999999999999MA1100711999999MW1001REMMET051LGKL 171950 30005KT 8000 FEW008 SCT020 06/04 Q1007;EQDQ01+000000PRSWM2
0161167260999992000011721204+37070+022020FM-15+0008LGKL V0202801N002610240019N0080001N1+00501+00401999999ADDGA1021+006009999GA2071+024009999GF107991999999999999999999MA1100611999999MW1001REMMET051LGKL 172120 28005KT 8000 FEW020 BKN080 05/04 Q1006;EQDQ01+000000PRSWM2
0161167260999992000011721504+37070+022020FM-15+0008LGKL V0202901N003110240019N0080001N1+00501+00301999999ADDGA1021+006009999GA2071+024009999GF107991999999999999999999MA1100611999999MW1001REMMET051LGKL 172150 29006KT 8000 FEW020 BKN080 05/03 Q1006;EQDQ01+000000PRSWM2
0161167260999992000011722504+37070+022020FM-15+0008LGKL V0203001N002610240019N0080001N1+00501+00401999999ADDGA1021+006009999GA2071+024009999GF107991999999999999999999MA1100511999999MW1001REMMET051LGKL 172250 30005KT 8000 FEW020 BKN080 05/04 Q1005;EQDQ01+000000PRSWM2
0184167260999992000011723504+37070+022020FM-15+0008LGKL V0202901N002110240019N0080001N1+00501+00401999999ADDGA1021+006009999GA2021+012009999GA3071+024009999GF107991999999999999999999MA1100511999999MW1001REMMET058LGKL 172350 29004KT 8000 FEW020 SCT040 BKN080 05/04 Q1005;EQDQ01+000000PRSWM2
0203167260999992000011800504+37070+022020FM-15+0008LGKL V0202901N002610240019N0080001N1+00601+00401999999ADDGA1021+006009999GA2021+012009999GA3071+024009999GF107991999999999999999999MA1100411999999MW1631REMMET061LGKL 180050 29005KT 8000 RA FEW020 SCT040 BKN080 06/04 Q1004;EQDQ01+000003PRSWM1Q02    003PRSWM1
0204167260999992000011801504+37070+022020FM-15+0008LGKL V0203001N004110240019N0080001N1+00701+00501999999ADDGA1021+006009999GA2021+012009999GA3071+024009999GF107991999999999999999999MA1100311999999MW1631REMMET062LGKL 180150Z 30008KT 8000 RA FEW020 SCT040 BKN080 07/05 Q1003;EQDQ01+000003PRSWM1Q02    003PRSWM1
0204167260999992000011802504+37070+022020FM-15+0008LGKL V0203401N003610240019N0080001N1+00701+00501999999ADDGA1021+006009999GA2021+012009999GA3071+024009999GF107991999999999999999999MA1100311999999MW1631REMMET062LGKL 180250Z 34007KT 8000 RA FEW020 SCT040 BKN080 07/05 Q1003;EQDQ01+000003PRSWM1Q02    003PRSWM1
0204167260999992000011803504+37070+022020FM-15+0008LGKL V0209999C000010240019N0080001N1+00701+00601999999ADDGA1021+006009999GA2021+012009999GA3081+024009999GF108991999999999999999999MA1100201999999MW1631REMMET062LGKL 180350Z 00000KT 8000 RA FEW020 SCT040 OVC080 07/06 Q1002;EQDQ01+000003PRSWM1Q02    003PRSWM1
0162167260999992000011804504+37070+022020FM-15+0008LGKL V0209999C000012200019N0080001N1+00601+00501999999ADDGA1021+006009999GA2021+024009999GF104991999999999999999999MA1100201999999MW1001REMMET052LGKL 180450Z 00000KT 8000 FEW020 SCT080 06/05 Q1002;EQDQ01+000000PRSWM2
0161167260999992000011805504+37070+022020FM-15+0008LGKL V0209999C000012200019N0112651N1+00501+00401999999ADDGA1021+006009999GA2021+009009999GF104991999999999999999999MA1100201999999MW1001REMMET051LGKL 180550 00000KT 9999 SCT020 SCT030 05/04 Q1002;EQDQ01+000000PRSWM2
0161167260999992000011806504+37070+022020FM-15+0008LGKL V0209999C000012200019N0080001N1+00501+00401999999ADDGA1021+006009999GA2021+009009999GF104991999999999999999999MA1100201999999MW1001REMMET051LGKL 180650 00000KT 8000 FEW020 SCT030 05/04 Q1002;EQDQ01+000000PRSWM2
0138167260999992000011807504+37070+022020FM-15+0008LGKL V0203301N002612200019N0080001N1+00801+00501999999ADDGA1021+006009999GF102991999999999999999999MA1100201999999MW1001REMMET044LGKL 180750 33005KT 8000 FEW020 08/05 Q1002;EQDQ01+000000PRSWM2
0138167260999992000011808504+37070+022020FM-15+0008LGKL V0203201N004112200019N0112651N1+01001+00201999999ADDGA1021+006009999GF102991999999999999999999MA1100311999999MW1001REMMET044LGKL 180850 32008KT 9999 FEW020 10/02 Q1003;EQDQ01+000000PRSWM2
0138167260999992000011809504+37070+022020FM-15+0008LGKL V0203101N003612200019N0112651N1+01101+00101999999ADDGA1021+006009999GF104991999999999999999999MA1100311999999MW1001REMMET044LGKL 180950 31007KT 9999 SCT020 11/01 Q1003;EQDQ01+000000PRSWM2
0161167260999992000011810504+37070+022020FM-15+0008LGKL V0202901N003612200019N0112651N1+01201+00401999999ADDGA1021+006009999GA2021+009009999GF104991999999999999999999MA1100201999999MW1001REMMET051LGKL 181050 29007KT 9999 FEW020 SCT030 12/04 Q1002;EQDQ01+000000PRSWM2
0161167260999992000011811504+37070+022020FM-15+0008LGKL V0203001N006212200019N0112651N1+01201+00401999999ADDGA1021+006009999GA2021+009009999GF104991999999999999999999MA1100201999999MW1001REMMET051LGKL 181150 30012KT 9999 FEW020 SCT030 12/04 Q1002;EQDQ01+000000PRSWM2
0172167260999992000011812504+37070+022020FM-15+0008LGKL V0203001N005112200019N0112651N1+01301+00501999999ADDGA1021+006009999GA2021+009009999GF104991999999999999999999MA1100201999999MW1001OC101031REMMET054LGKL 181250 30010G20KT 9999 SCT020 SCT030 13/05 Q1002;EQDQ01+000000PRSWM2
0162167260999992000011813504+37070+022020FM-15+0008LGKL V0203001N005110090019N0112651N1+01101+00401999999ADDGA1021+006009999GA2071+009009999GF107991999999999999999999MA1100201999999MW1001REMMET052LGKL 181350Z 30010KT 9999 SCT020 BKN030 11/04 Q1002;EQDQ01+000000PRSWM2
0167167260999992000011814504+37070+022020FM-15+0008LGKL V0203001N005710090019N0112651N1+01201+00501999999ADDGA1021+006009999GA2071+009009999GF107991999999999999999999MA1100311999999MW1001REMMET057LGKL 181450Z 30011KT 9999 SCT020 BKN030 12/05 Q1003 RERA;EQDQ01+000000PRSWM2
0162167260999992000011815504+37070+022020FM-15+0008LGKL V0203201N003612200019N0112651N1+01001+00601999999ADDGA1021+006009999GA2021+009009999GF104991999999999999999999MA1100311999999MW1001REMMET052LGKL 181550Z 32007KT 9999 FEW020 SCT030 10/06 Q1003;EQDQ01+000000PRSWM2
0162167260999992000011816504+37070+022020FM-15+0008LGKL V0203001N002112200019N0112651N1+00901+00601999999ADDGA1021+006009999GA2021+009009999GF104991999999999999999999MA1100311999999MW1001REMMET052LGKL 181650Z 30004KT 9999 FEW020 SCT030 09/06 Q1003;EQDQ01+000000PRSWM2
0161167260999992000011818504+37070+022020FM-15+0008LGKL V0209999C000012200019N0112651N1+00801+00601999999ADDGA1021+006009999GA2021+009009999GF104991999999999999999999MA1100511999999MW1001REMMET051LGKL 181850 00000KT 9999 SCT020 SCT030 08/06 Q1005;EQDQ01+000000PRSWM2
0161167260999992000011819504+37070+022020FM-15+0008LGKL V0209999C000012200019N0112651N1+00701+00501999999ADDGA1021+006009999GA2021+009009999GF104991999999999999999999MA1100611999999MW1001REMMET051LGKL 181950 00000KT 9999 SCT020 SCT030 07/05 Q1006;EQDQ01+000000PRSWM2
0161167260999992000011820504+37070+022020FM-15+0008LGKL V0209999C000010090019N0112651N1+00701+00501999999ADDGA1021+006009999GA2071+009009999GF107991999999999999999999MA1100611999999MW1001REMMET051LGKL 182050 00000KT 9999 SCT020 BKN030 07/05 Q1006;EQDQ01+000000PRSWM2
0161167260999992000011821504+37070+022020FM-15+0008LGKL V0209999C000012200019N0112651N1+00601+00501999999ADDGA1021+006009999GA2021+009009999GF104991999999999999999999MA1100611999999MW1001REMMET051LGKL 182150 00000KT 9999 FEW020 SCT030 06/05 Q1006;EQDQ01+000000PRSWM2
0161167260999992000011822504+37070+022020FM-15+0008LGKL V0209999C000012200019N0112651N1+00401+00401999999ADDGA1021+006009999GA2021+009009999GF104991999999999999999999MA1100511999999MW1001REMMET051LGKL 182250 00000KT 9999 FEW020 SCT030 04/04 Q1005;EQDQ01+000000PRSWM2
0161167260999992000011823504+37070+022020FM-15+0008LGKL V0209999C000010090019N0112651N1+00501+00401999999ADDGA1021+006009999GA2071+009009999GF107991999999999999999999MA1100511999999MW1001REMMET051LGKL 182350 00000KT 9999 SCT020 BKN030 05/04 Q1005;EQDQ01+000000PRSWM2
0181167260999992000011900504+37070+022020FM-15+0008LGKL V0209999C000010090019N0112651N1+00501+00401999999ADDGA1021+006009999GA2071+009009999GF107991999999999999999999MA1100511999999MW1631REMMET055LGKL 190050Z 00000KT 9999 RA SCT020 BKN030 05/04 Q1005;EQDQ01+000003PRSWM1Q02    003PRSWM1
0181167260999992000011902204+37070+022020FM-15+0008LGKL V0209999C000010090019N0112651N1+00601+00501999999ADDGA1021+006009999GA2071+009009999GF107991999999999999999999MA1100411999999MW1631REMMET055LGKL 190220Z 00000KT 9999 RA SCT020 BKN030 06/05 Q1004;EQDQ01+000003PRSWM1Q02    003PRSWM1
0181167260999992000011902504+37070+022020FM-15+0008LGKL V0209999C000010090019N0112651N1+00601+00601999999ADDGA1021+006009999GA2071+009009999GF107991999999999999999999MA1100411999999MW1631REMMET055LGKL 190250Z 00000KT 9999 RA SCT020 BKN030 06/06 Q1004;EQDQ01+000003PRSWM1Q02    003PRSWM1
0162167260999992000011903504+37070+022020FM-15+0008LGKL V0209999C000010090019N0112651N1+00701+00601999999ADDGA1021+006009999GA2071+009009999GF107991999999999999999999MA1100311999999MW1001REMMET052LGKL 190350Z 00000KT 9999 SCT020 BKN030 07/06 Q1003;EQDQ01+000000PRSWM2
0161167260999992000011905204+37070+022020FM-15+0008LGKL V0209999C000010090019N0112651N1+00701+00601999999ADDGA1021+006009999GA2071+009009999GF107991999999999999999999MA1100311999999MW1001REMMET051LGKL 190520 00000KT 9999 SCT020 BKN030 07/06 Q1003;EQDQ01+000000PRSWM2
0162167260999992000011906204+37070+022020FM-15+0008LGKL V0209999C000010090019N0112651N1+00801+00801999999ADDGA1021+006009999GA2071+009009999GF107991999999999999999999MA1100311999999MW1001REMMET052LGKL 190620Z 00000KT 9999 SCT020 BKN030 08/08 Q1003;EQDQ01+000000PRSWM2
0162167260999992000011906504+37070+022020FM-15+0008LGKL V0209999C000010090019N0112651N1+00801+00801999999ADDGA1021+006009999GA2071+009009999GF107991999999999999999999MA1100311999999MW1001REMMET052LGKL 190650Z 00000KT 9999 SCT020 BKN030 08/08 Q1003;EQDQ01+000000PRSWM2
0208167260999992000011907504+37070+022020FM-15+0008LGKL V0209999C000010090019N0050001N1+00901+00901999999ADDGA1021+002409999GA2021+006009029GA3071+009009999GF107991999999999999999999MA1100311999999MW1611REMMET066LGKL 190750Z 00000KT 5000 -RA FEW008 SCT020TCU BKN030 09/09 Q1003;EQDQ01+000003PRSWM1Q02    003PRSWM1
0165167260999992000011908504+37070+022020FM-15+0008LGKL V0209999C000010120019N0050001N1+01101+00701999999ADDGA1021+006009029GA2071+012009999GF107991999999999999999999MA1100311999999MW1001REMMET055LGKL 190850Z 00000KT 5000 SCT020TCU BKN040 11/07 Q1003;EQDQ01+000000PRSWM2
0162167260999992000011909504+37070+022020FM-15+0008LGKL V0209999C000010150019N0080001N1+01101+00701999999ADDGA1021+006009999GA2071+015009999GF107991999999999999999999MA1100311999999MW1001REMMET052LGKL 190950Z 00000KT 8000 SCT020 BKN050 11/07 Q1003;EQDQ01+000000PRSWM2
0162167260999992000011910504+37070+022020FM-15+0008LGKL V0202801N006710120019N0080001N1+01301+00501999999ADDGA1021+006009999GA2071+012009999GF107991999999999999999999MA1100411999999MW1001REMMET052LGKL 191050Z 28013KT 8000 SCT020 BKN040 13/05 Q1004;EQDQ01+000000PRSWM2
0185167260999992000011911504+37070+022020FM-15+0008LGKL V0203201N005110240019N0080001N1+01301+00201999999ADDGA1021+006009999GA2021+007509999GA3071+024009999GF107991999999999999999999MA1100411999999MW1001REMMET059LGKL 191150Z 32010KT 8000 FEW020 SCT025 BKN080 13/02 Q1004;EQDQ01+000000PRSWM2
0185167260999992000011912504+37070+022020FM-15+0008LGKL V0203201N005110240019N0080001N1+01301+00201999999ADDGA1021+005409999GA2021+007509999GA3071+024009999GF107991999999999999999999MA1100411999999MW1001REMMET059LGKL 191250Z 32010KT 8000 FEW018 SCT025 BKN080 13/02 Q1004;EQDQ01+000000PRSWM2
