0192172050999992000010100004+38480+042300FM-12+166599999V0209999C000012200019N0300001N1-00121-00231999999ADDAA106000091GA1001+999999999GF100991001001999999001001MA1999999083701MD1610101+9999ME1315439REMSYN070AAXX  01004 17205 32980 00000 11012 21023 38370 48543 56010 333 10243;EQDQ01  00002PRCP06
0241172050999992000010106004+38480+042300FM-12+166599999V0209999C000012200019N0300001N1-00141-00201999999ADDAA106000091GA1001+999999999GF100991001001999999001001IA1149IA2999-00409KA1120N-00301MA1999999083601MD1410001+9999ME1315329REMSYN088AAXX  01064 17205 32980 00000 11014 21020 38360 48532 54000 333 21030 34104 55008 92418;EQDQ01  00002PRCP06
0192172050999992000010112004+38480+042300FM-12+166599999V0209999C000012200019N0300001N1+00561+00051999999ADDAA106000091GA1001+999999999GF100991001001999999001001MA1999999083501MD1610101+9999ME1315199REMSYN070AAXX  01124 17205 32980 00000 10056 20005 38350 48519 56010 333 10219;EQDQ01  00002PRCP06
0211172050999992000010118004+38480+042300FM-12+166599999V0209999C000012200019N0300001N1+00081-00051999999ADDAA106000091GA1001+999999999GF100991001001999999001001KA1120M+00701MA1999999083501MD1410001+9999ME1315239REMSYN076AAXX  01184 17205 32980 00000 10008 21005 38350 48523 54000 333 10070 92418;EQDQ01  00002PRCP06
0192172050999992000010200004+38480+042300FM-12+166599999V0209999C000012200019N0300001N1-00101-00161999999ADDAA106000091GA1001+999999999GF100991001001999999001001MA1999999083501MD1710061+9999ME1315249REMSYN070AAXX  02004 17205 32980 00000 11010 21016 38350 48524 57006 333 10219;EQDQ01  00002PRCP06
0303172050999992000010206004+38480+042300FM-12+166599999V0209999C000010105019N0080001N1-00101-00121999999ADDAA106000091AY101061AY201061GA1051+010509069GA2071+027009039GF107991051051012501071001IA1129IA2999-00409KA1120N-00301MA1999999083581MD1110081+9999ME1315339MW1101REMSYN112AAXX  02064 17205 31658 70000 11010 21012 38358 48533 51008 71000 85570 333 21030 33104 55006 85635 87359 92416;EQDQ01  00002PRCP06
0254172050999992000010212004+38480+042300FM-12+166599999V0209999C000010300019N0150001N1+00421-00011999999ADDAA106000091AY141061AY221061GA1041+012009069GA2061+030009039GF106991041051012501051001MA1999999083401MD1810181+9999ME1315119MW1011REMSYN094AAXX  02124 17205 31665 60000 10042 21001 38340 48511 58018 70142 84550 333 84640 86360 92417;EQDQ01  00002PRCP06
0295172050999992000010218004+38480+042300FM-12+166599999V0209999C000010300019N0040001N1+00101+00011999999ADDAA106000091AY121061AY221061GA1021+003609079GA2041+010509069GA3061+030009039GF106991041061004501071001KA1120M+00541MA1999999083401MD1410001+9999ME1315129MW1101REMSYN106AAXX  02184 17205 31440 60000 10010 20001 38340 48512 54000 71022 84670 333 10054 82712 84635 86360 92415;EQDQ01  00002PRCP06
0276172050999992000010300004+38480+042300FM-12+166599999V0209999C000010090019N0004001N1+00121+00061999999ADDAA106000091AY141061AY241061GA1021+003009079GA2051+009009069GA3081+024009049GF108991061061004501021999MA1999999083301MD1710101+9999ME1315029MW1441REMSYN100AAXX  03004 17205 31404 80000 10012 20006 38330 48502 57010 74444 8662/ 333 82710 85630 88458 92412;EQDQ01  00002PRCP06
0275172050999992000010306004+38480+042300FM-12+166599999V0209999C000010105019N0250001N1+00121+00061999999ADDAA106000091GA1051+010509069GA2081+027009049GF108991051051012501021999IA1019IA2999-00209KA1120N-00101MA1999999083201MD1410001+9999ME1314929REMSYN106AAXX  03064 17205 32675 80000 10012 20006 38320 48492 54000 8552/ 333 21010 30102 55000 85635 88459 92417;EQDQ01  00002PRCP06
0226172050999992000010312004+38480+042300FM-12+166599999V0202701N001510270019N0250001N1+00441-00421999999ADDAA106000091GA1041+012009069GA2061+027009039GF106991041051012501051001MA1999999083101MD1810101+9999ME1314819REMSYN088AAXX  03124 17205 32675 62703 10044 21042 38310 48481 58010 84550 333 84640 86359 92417;EQDQ01  00002PRCP06
0245172050999992000010318004+38480+042300FM-12+166599999V0202001N001010105019N0250001N1+00441-00421999999ADDAA106000091GA1051+010509069GA2081+027009049GF108991051051012501021999KA1120M+00601MA1999999082901MD1710101+9999ME1314629REMSYN094AAXX  03184 17205 32675 82002 10044 21042 38290 48462 57010 8552/ 333 10060 85635 88459 92417;EQDQ01  00002PRCP06
0241172050999992000010400004+38480+042300FM-12+166599999V0202001N001010105019N0100001N1+00281+00061999999ADDAA106005191AY161061AY261061GA1051+010509069GA2081+027009049GF108991051051012501021999MA1999999082801MD1410001+9999ME1314639MW1601REMSYN100AAXX  04004 17205 11660 82002 10028 20006 38280 48463 54000 60051 76066 8552/ 333 85635 88459 92416;
0348172050999992000010406004+38480+042300FM-12+166599999V0209999C000010105019N0080001N1+00081+00011999999ADDAA112017091AJ100029199999999AL10600291AY171061AY221061GA1051+010509069GA2081+024009049GF108991051051012501021999IA1239IA2999+00009KA1120N+00041MA1999999082701MD1410001+9999ME1314459MW1701UA1M999999019REMSYN136AAXX  04064 17205 11658 80000 10008 20001 38270 48445 54000 60172 77072 8552/ 333 20004 3/000 47002 55000 70170 85635 88458 92416 93102;
0270172050999992000010412004+38480+042300FM-12+166599999V0200201N001010105019N0080001N1+00341+00041999999ADDAA106005191AL10600091AY161061AY261061GA1051+010509069GA2081+024009049GF108991051051012501021999MA1999999082401MD1610201+9999ME1314129MW1601UA1M999999019REMSYN106AAXX  04124 17205 11658 80202 10034 20004 38240 48412 56020 60051 76066 8552/ 333 85635 88458 92416 93100;
0241172050999992000010418004+38480+042300FM-12+166599999V0209999C000010105019N0080001N1+00101+00011999999ADDAA112009991AY161061AY261061GA1051+010509069GA2081+024009049GF108991051051012501021999MA1999999082401MD1410001+9999ME1314149MW1601REMSYN100AAXX  04184 17205 11658 80000 10010 20001 38240 48414 54000 60102 76066 8552/ 333 85635 88458 92416;
0241172050999992000010500004+38480+042300FM-12+166599999V0209999C000010105019N0080001N1+00101+00011999999ADDAA106002091AY161061AY261061GA1051+010509069GA2081+024009049GF108991051051012501021999MA1999999082401MD1410001+9999ME1314149MW1601REMSYN100AAXX  05004 17205 11658 80000 10010 20001 38240 48414 54000 60021 76066 8552/ 333 85635 88458 92416;
0348172050999992000010506004+38480+042300FM-12+166599999V0209999C000010090019N0080001N1+00061+00021999999ADDAA112007191AJ100029199999999AL10600291AY171061AY261061GA1051+009009069GA2071+027009039GF107991051051008001071001IA1289IA2999-00209KA1120N-00101MA1999999082501MD1310101+9999ME1314259MW1701UA1M999999019REMSYN136AAXX  05064 17205 11558 70000 10006 20002 38250 48425 53010 60072 77076 85570 333 21010 3/102 44002 55000 70165 85630 87359 92416 93102;
0270172050999992000010512004+38480+042300FM-12+166599999V0202501N001510105019N0200001N1+00201-00271999999ADDAA106000391AL10600091AY171061AY221061GA1051+010509069GA2071+027009039GF107991051051012501071001MA1999999082501MD1410001+9999ME1314259MW1021UA1M999999019REMSYN106AAXX  05124 17205 11670 72503 10020 21027 38250 48425 54000 69931 70272 85570 333 85635 87359 92418 93100;
0226172050999992000010612004+38480+042300FM-12+166599999V0202501N003110105019N0200001N1+00001-00481999999ADDAA106000091GA1051+010509069GA2081+024009049GF108991051051012501021999MA1999999082551MD1810051+9999ME1314369REMSYN088AAXX  06124 17205 32670 82506 10000 21048 38255 48436 58005 8552/ 333 85635 88458 92427;EQDQ01  00002PRCP06
0308172050999992000010706004+38480+042300FM-12+166599999V0209999C000012200019N0300001N1-00241-00731999999ADDAA106000091AJ199999999999999GA1051+012009069GF199999021051012501001001IA1219IA2999-00509KA1120N-00381MA1999999083201MD1210201+9999ME1314929REMSYN106AAXX  07064 17205 32680 20000 11024 21073 38320 48492 52020 82500 333 21038 3/105 45995 55000 85640 92418;EQDQ01+000022SCOTCVQ02  00002PRCP06Q03  09952SNDP  
0226172050999992000010712004+38480+042300FM-12+166599999V0202501N001010105019N0200001N1+00001-00561999999ADDAA106000091GA1051+010509069GA2071+027009039GF107991051051012501071001MA1999999083301MD1410001+9999ME1315039REMSYN088AAXX  07124 17205 32670 72502 10000 21056 38330 48503 54000 85570 333 85635 87359 92418;EQDQ01  00002PRCP06
0223172050999992000010718004+38480+042300FM-12+166599999V0209999C000012200019N0300001N1-00121-00821999999ADDAA106000091GA1041+012009069GF104991041051012501051001KA1120M+00161MA1999999083401MD1410001+9999ME1315149REMSYN088AAXX  07184 17205 32680 40000 11012 21082 38340 48514 54000 84550 333 10016 84640 92418;EQDQ01  00002PRCP06
0192172050999992000010800004+38480+042300FM-12+166599999V0209999C000012200019N0300001N1-00421-00671999999ADDAA106000091GA1001+999999999GF100991001001999999001001MA1999999083461MD1110061+9999ME1315259REMSYN070AAXX  08004 17205 32980 00000 11042 21067 38346 48525 51006 333 10245;EQDQ01  00002PRCP06
0275172050999992000010806004+38480+042300FM-12+166599999V0209999C000010300019N0300001N1-00201-00521999999ADDAA106000091GA1041+012009069GA2061+030009039GF106991041051012501051001IA1149IA2999-00609KA1120N-00501MA1999999083501MD1210101+9999ME1315249REMSYN106AAXX  08064 17205 32680 60000 11020 21052 38350 48524 52010 84550 333 21050 34106 55005 84640 86360 92418;EQDQ01  00002PRCP06
0226172050999992000010812004+38480+042300FM-12+166599999V0200701N001510300019N0300001N1+00101-00561999999ADDAA106000091GA1041+012009069GA2061+030009039GF106991041051012501051001MA1999999083401MD1610101+9999ME1315129REMSYN088AAXX  08124 17205 32680 60703 10010 21056 38340 48512 56010 84550 333 84640 86360 92418;EQDQ01  00002PRCP06
0223172050999992000010818004+38480+042300FM-12+166599999V0209999C000012200019N0300001N1-00101-00701999999ADDAA106000091GA1041+012009069GF104991041051012501001001KA1120M+00241MA1999999083401MD1410001+9999ME1315149REMSYN088AAXX  08184 17205 32680 40000 11010 21070 38340 48514 54000 84500 333 10024 84640 92418;EQDQ01  00002PRCP06
0226172050999992000010900004+38480+042300FM-12+166599999V0209999C000010120019N0300001N1-00101-00611999999ADDAA106000091GA1051+012009069GA2071+027009039GF107991051051012501071001MA1999999083401MD1610101+9999ME1315149REMSYN088AAXX  09004 17205 32680 70000 11010 21061 38340 48514 56010 85570 333 85640 87359 92418;EQDQ01  00002PRCP06
0204172050999992000010912004+38480+042300FM-12+166599999V0200701N001012200019N0300001N1+00001-00561999999ADDAA106000091GA1041+012009069GF104991041051012501001001MA1999999083301MD1410001+9999ME1315039REMSYN082AAXX  09124 17205 32680 40702 10000 21056 38330 48503 54000 84500 333 84640 92418;EQDQ01  00002PRCP06
0196172050999992000010915004+38480+042300FM-12+166599999V0209999C000010300019N0300001N1-00241-00731999999ADDGA1041+012009069GA2061+030009039GF106991041051012501051001MA1999999083301MD1410001+9999ME1315059REMSYN088AAXX  09154 17205 42680 60000 11024 21073 38330 48505 54000 84550 333 84640 86360 92418;
0211172050999992000010918004+38480+042300FM-12+166599999V0209999C000012200019N0300001N1-00241-00731999999ADDAA106000091GA1001+999999999GF100991001001999999001001KA1120M+00161MA1999999083301MD1410001+9999ME1315059REMSYN076AAXX  09184 17205 32980 00000 11024 21073 38330 48505 54000 333 10016 92418;EQDQ01  00002PRCP06
0174172050999992000010921004+38480+042300FM-12+166599999V0209999C000012200019N0300001N1-00361-00711999999ADDGA1021+012009069GF102991021051012501001001MA1999999083301MD1410001+9999ME1315059REMSYN082AAXX  09214 17205 42680 20000 11036 21071 38330 48505 54000 82500 333 82640 92418;
0226172050999992000011000004+38480+042300FM-12+166599999V0209999C000010300019N0300001N1-00301-00641999999ADDAA106000091GA1041+012009069GA2061+030009039GF106991041051012501051001MA1999999083301MD1410001+9999ME1315069REMSYN088AAXX  10004 17205 32680 60000 11030 21064 38330 48506 54000 84550 333 84640 86360 92418;EQDQ01  00002PRCP06
0196172050999992000011003004+38480+042300FM-12+166599999V0209999C000010120019N0300001N1-00301-00641999999ADDGA1051+012009069GA2081+030009049GF108991051051012501021999MA1999999083301MD1410001+9999ME1315069REMSYN088AAXX  10034 17205 42680 80000 11030 21064 38330 48506 54000 8552/ 333 85640 88460 92418;
0275172050999992000011006004+38480+042300FM-12+166599999V0209999C000010120019N0300001N1-00321-00661999999ADDAA106000091GA1051+012009069GA2081+030009049GF108991051051012501021999IA1019IA2999-00609KA1120N-00461MA1999999083301MD1410001+9999ME1315069REMSYN106AAXX  10064 17205 32680 80000 11032 21066 38330 48506 54000 8552/ 333 21046 30106 55004 85640 88460 92418;EQDQ01  00002PRCP06
0196172050999992000011009004+38480+042300FM-12+166599999V0209999C000010300019N0300001N1+00041-00571999999ADDGA1041+012009069GA2061+030009039GF106991041051012501051001MA1999999083301MD1410001+9999ME1315039REMSYN088AAXX  10094 17205 42680 60000 10004 21057 38330 48503 54000 84550 333 84640 86360 92418;
0174172050999992000011012004+38480+042300FM-12+166599999V0202901N001512200019N0300001N1+00001-00601999999ADDGA1041+012009069GF104991041051012501001001MA1999999083201MD1610101+9999ME1314949REMSYN082AAXX  10124 17205 42680 42903 10000 21060 38320 48494 56010 84500 333 84640 92418;
0174172050999992000011015004+38480+042300FM-12+166599999V0202701N001012200019N0300001N1-00341-00691999999ADDGA1021+012009069GF102991021051012501001001MA1999999083201MD1410001+9999ME1314969REMSYN082AAXX  10154 17205 42680 22702 11034 21069 38320 48496 54000 82500 333 82640 92418;
0211172050999992000011018004+38480+042300FM-12+166599999V0209999C000012200019N0300001N1-00441-00801999999ADDAA106000091GA1001+999999999GF100991001001999999001001KA1120M+00161MA1999999083201MD1410001+9999ME1314969REMSYN076AAXX  10184 17205 32980 00000 11044 21080 38320 48496 54000 333 10016 92418;EQDQ01  00002PRCP06
0162172050999992000011021004+38480+042300FM-12+166599999V0209999C000012200019N0300001N1-00441-00801999999ADDGA1001+999999999GF100991001001999999001001MA1999999083201MD1410001+9999ME1314969REMSYN070AAXX  10214 17205 42980 00000 11044 21080 38320 48496 54000 333 10213;
0192172050999992000011100004+38480+042300FM-12+166599999V0209999C000012200019N0300001N1-00481-00801999999ADDAA106000091GA1001+999999999GF100991001001999999001001MA1999999083201MD1410001+9999ME1314969REMSYN070AAXX  11004 17205 32980 00000 11048 21080 38320 48496 54000 333 10213;EQDQ01  00002PRCP06
0125172050999992000011103004+38480+042300FM-12+166599999V0202501N001519999999N0300001N1-00601-00871999999ADDGF106991999999012501999999REMSYN087AAXX  11034 17205 42680 62503 11060 21087 3830 48498 54000 84550 333 84640 86360 92418;
0275172050999992000011106004+38480+042300FM-12+166599999V0202701N001510105019N0300001N1-00601-00841999999ADDAA106000091GA1051+010509069GA2071+027009039GF107991051051012501071001IA1019IA2999-00809KA1120N-00761MA1999999083201MD1410001+9999ME1314979REMSYN106AAXX  11064 17205 32680 72703 11060 21084 38320 48497 54000 85570 333 21076 30108 55005 85635 87359 92418;EQDQ01  00002PRCP06
0196172050999992000011109004+38480+042300FM-12+166599999V0202701N002610105019N0150001N1-00401-00841999999ADDGA1051+010509069GA2071+027009039GF107991051051012501071001MA1999999083201MD1410001+9999ME1314979REMSYN088AAXX  11094 17205 42665 72705 11040 21084 38320 48497 54000 85570 333 85635 87359 92417;
0226172050999992000011112004+38480+042300FM-12+166599999V0202701N003110105019N0150001N1-00341-00831999999ADDAA106000091GA1051+010509069GA2071+027009039GF107991051051012501071001MA1999999083201MD1410001+9999ME1314969REMSYN088AAXX  11124 17205 32665 72706 11034 21083 38320 48496 54000 85570 333 85635 87359 92427;EQDQ01  00002PRCP06
0196172050999992000011115004+38480+042300FM-12+166599999V0202701N002610300019N0200001N1-00461-00841999999ADDGA1031+012009069GA2051+030009039GF105991031051012501051001MA1999999083201MD1410001+9999ME1314979REMSYN088AAXX  11154 17205 42670 52705 11046 21084 38320 48497 54000 83550 333 83640 85360 92418;
0211172050999992000011118004+38480+042300FM-12+166599999V0209999C000012200019N0250001N1-00541-00991999999ADDAA106000091GA1001+999999999GF100991001001999999001001KA1120M-00261MA1999999083301MD1110101+9999ME1315079REMSYN076AAXX  11184 17205 32975 00000 11054 21099 38330 48507 51010 333 11026 92417;EQDQ01  00002PRCP06
0162172050999992000011121004+38480+042300FM-12+166599999V0202701N002112200019N0250001N1-00601-01141999999ADDGA1001+999999999GF100991001001999999001001MA1999999083301MD1410001+9999ME1315079REMSYN070AAXX  11214 17205 42975 02704 11060 21114 38330 48507 54000 333 10250;
0192172050999992000011200004+38480+042300FM-12+166599999V0202701N001512200019N0250001N1-00601-01141999999ADDAA106000091GA1001+999999999GF100991001001999999001001MA1999999083301MD1410001+9999ME1315079REMSYN070AAXX  12004 17205 32975 02703 11060 21114 38330 48507 54000 333 10250;EQDQ01  00002PRCP06
0196172050999992000011203004+38480+042300FM-12+166599999V0202701N001510270019N0250001N1-00661-01171999999ADDGA1041+012009069GA2061+027009039GF106991041051012501051001MA1999999083301MD1410001+9999ME1315079REMSYN088AAXX  12034 17205 42675 62703 11066 21117 38330 48507 54000 84550 333 84640 86359 92417;
0245172050999992000011206004+38480+042300FM-12+166599999V0202701N001510300019N0250001N1-00601-01141999999ADDGA1041+012009069GA2061+030009039GF106991041051012501051001IA1149IA2999-00809KA1120N-00761MA1999999083301MD1410001+9999ME1315079REMSYN106AAXX  12064 17205 42675 62703 11060 21114 38330 48507 54000 84550 333 21076 34108 55003 84640 86360 92417;
0174172050999992000011209004+38480+042300FM-12+166599999V0202701N001512200019N0250001N1-00401+99999999999ADDGA1041+012009069GF104991041051012501001001MA1999999083301MD1410001+9999ME1425069REMSYN082AAXX  12094 17205 42675 42703 11040 21014 38330 47506 54000 84500 333 84640 92417;
0204172050999992000011212004+38480+042300FM-12+166599999V0202701N001512200019N0250001N1-00301-00941999999ADDAA106000091GA1041+012009069GF104991041051012501001001MA1999999083301MD1410001+9999ME1315069REMSYN082AAXX  12124 17205 32675 42703 11030 21094 38330 48506 54000 84500 333 84640 92417;EQDQ01  00002PRCP06
0196172050999992000011215004+38480+042300FM-12+166599999V0202701N001510270019N0250001N1-00441-00871999999ADDGA1041+012009069GA2061+027009039GF106991041051012501051001MA1999999083301MD1410001+9999ME1315069REMSYN088AAXX  12154 17205 42675 62703 11044 21087 38330 48506 54000 84550 333 84640 86359 92417;
0245172050999992000011218004+38480+042300FM-12+166599999V0202701N001510300019N0250001N1-00501-01081999999ADDAA106000091GA1031+012009069GA2051+030009039GF105991031051012501051001KA1120M-00201MA1999999083301MD1410001+9999ME1315079REMSYN094AAXX  12184 17205 32675 52703 11050 21108 38330 48507 54000 83550 333 11020 83640 85360 92417;EQDQ01  00002PRCP06
0196172050999992000011221004+38480+042300FM-12+166599999V0202701N001510300019N0250001N1-00501-01081999999ADDGA1031+012009069GA2051+030009039GF105991031051012501051001MA1999999083301MD1410001+9999ME1315079REMSYN088AAXX  12214 17205 42675 52703 11050 21108 38330 48507 54000 83550 333 83640 85360 92417;
0226172050999992000011300004+38480+042300FM-12+166599999V0202701N001510300019N0250001N1-00641-01131999999ADDAA106000091GA1031+012009069GA2051+030009039GF105991031051012501051001MA1999999083301MD1410001+9999ME1315089REMSYN088AAXX  13004 17205 32675 52703 11064 21113 38330 48508 54000 83550 333 83640 85360 92417;EQDQ01  00002PRCP06
0196172050999992000011303004+38480+042300FM-12+166599999V0202701N001510120019N0250001N1-00701-00991999999ADDGA1051+012009069GA2081+027009049GF108991051051012501021999MA1999999083301MD1410001+9999ME1315089REMSYN088AAXX  13034 17205 42675 82703 11070 21099 38330 48508 54000 8552/ 333 85640 88459 92417;
0196172050999992000011309004+38480+042300FM-12+166599999V0202701N001010105019N0150001N1-00501-00821999999ADDGA1051+010509069GA2071+027009039GF107991051051012501071001MA1999999083401MD1410001+9999ME1315169REMSYN088AAXX  13094 17205 42665 72702 11050 21082 38340 48516 54000 85570 333 85635 87359 92417;
0215172050999992000011315004+38480+042300FM-12+166599999V0202701N001510105019N0150001N1-00621-00901999999ADDGA1051+010509069GA2071+027009039GF199999051051012501071001MA1999999083401MD1410001+9999ME1315169REMSYN088AAXX  13154 17205 42665 62703 11062 21090 38340 48516 54000 85570 333 85635 87359 92417;EQDQ01+000062SCOTCV
0223172050999992000011318004+38480+042300FM-12+166599999V0202701N001012200019N0250001N1-00661-00941999999ADDAA106000091GA1041+012009069GF104991041051012501001001KA1120M-00401MA1999999083481MD1110081+9999ME1315269REMSYN088AAXX  13184 17205 32675 42702 11066 21094 38348 48526 51008 84500 333 11040 84640 92418;EQDQ01  00002PRCP06
0228172050999992000011321004+38480+042300FM-12+166599999V0202701N001010090019N0080001N1-00621-00831999999ADDAY171031AY221031GA1051+009009069GA2081+027009049GF108991051051008001021999MA1999999083501MD1110021+9999ME1315269MW1701REMSYN098    AAXX  13214 17205 41558 82702 11062 21083 38350 48526 51002 77072 8552/ 333 85630 88459 92415;
0274172050999992000011400004+38480+042300FM-12+166599999V0209999C000010090019N0080001N1-00681-00901999999ADDAA106000391AL10600391AY171061AY271061GA1051+009009069GA2081+027009049GF108991051051008001021999MA1999999083501MD1410001+9999ME1315269MW1701UA1M999999019REMSYN110    AAXX  14004 17205 11558 80000 11068 21090 38350 48526 54000 69931 77077 8552/ 333 85630 88459 92415 93103;
0228172050999992000011403004+38480+042300FM-12+166599999V0209999C000010090019N0080001N1-00721-00891999999ADDAY171031AY271031GA1051+009009069GA2081+027009049GF108991051051008001021999MA1999999083501MD1410001+9999ME1315279MW1701REMSYN098    AAXX  14034 17205 42558 80000 11072 21089 38350 48527 54000 77077 8552/ 333 85630 88459 92415;
0250172050999992000011409004+38480+042300FM-12+166599999V0202701N001010090019N0050001N1-00641-00891999999ADDAY171031AY271031GA1021+003009079GA2051+009009069GA3081+024009049GF108991061071004501021999MA1999999083501MD1410001+9999ME1315279MW1711REMSYN104    AAXX  14094 17205 41450 82702 11064 21089 38350 48527 54000 77177 8672/ 333 82710 85630 88458 92416;
0274172050999992000011412004+38480+042300FM-12+166599999V0202701N001010105019N0100001N1-00601-00911999999ADDAA106002091AL10600691AY171061AY271061GA1051+010509069GA2071+027009039GF107991051051012501071001MA1999999083401MD1210101+9999ME1315169MW1221UA1M999999019REMSYN110    AAXX  14124 17205 11660 72702 11060 21091 38340 48516 52010 60021 72277 85570 333 85635 87359 92416 93106;
0200172050999992000011415004+38480+042300FM-12+166599999V0209999C000010300019N0150001N1-00701-00981999999ADDGA1041+012009069GA2061+030009039GF106991041051012501051001MA1999999083401MD1410001+9999ME1315189REMSYN092    AAXX  14154 17205 42665 60000 11070 21098 38340 48518 54000 84550 333 84640 86360 92417;
0236172050999992000011418004+38480+042300FM-12+166599999V0209999C000010105019N0150001N1-00801-01011999999ADDAA112002091GA1051+010509069GA2081+027009049GF108991051051012501021999KA1120M-00441MA1999999083401MD1410001+9999ME1315189REMSYN104    AAXX  14184 17205 12665 80000 11080 21101 38340 48518 54000 60022 8552/ 333 11044 85635 88459 92416;
0250172050999992000011421004+38480+042300FM-12+166599999V0209999C000010090019N0030001N1-00701-00861999999ADDAY171031AY221031GA1021+003009079GA2051+009009069GA3081+024009049GF108991061071002501021999MA1999999083401MD1410001+9999ME1315189MW1701REMSYN104    AAXX  14214 17205 41330 80000 11070 21086 38340 48518 54000 77072 8672/ 333 82710 85630 88458 92414;
0296172050999992000011500004+38480+042300FM-12+166599999V0209999C000010090019N0020001N1-00701-00861999999ADDAA106004191AL10600791AY171061AY271061GA1021+003009079GA2051+009009069GA3081+024009049GF108991061071002501021999MA1999999083401MD1410001+9999ME1315189MW1711UA1M999999019REMSYN116    AAXX  15004 17205 11320 80000 11070 21086 38340 48518 54000 60041 77177 8672/ 333 82710 85630 88458 92414 93107;
0250172050999992000011503004+38480+042300FM-12+166599999V0209999C000010090019N0020001N1-00801-00911999999ADDAY171031AY271031GA1021+003009079GA2051+009009069GA3081+024009049GF108991061071002501021999MA1999999083301MD1710101+9999ME1315089MW1711REMSYN104    AAXX  15034 17205 41320 80000 11080 21091 38330 48508 57010 77177 8672/ 333 82710 85630 88458 92413;
0374172050999992000011506004+38480+042300FM-12+166599999V0202701N001510090019N0020001N1-00961-01131999999ADDAA112006191AJ100209199999999AL10600291AY171061AY271061GA1021+003009079GA2051+009009069GA3081+024009049GF108991061071004501021999IA1239IA2999-01109KA1120N-01001MA1999999083201MD1610101+9999ME1315009MW1701UA1M999999019REMSYN146    AAXX  15064 17205 11420 82703 11096 21113 38320 48500 56010 60062 77077 8672/ 333 21100 3/111 47020 55000 70084 82710 85630 88458 92414 93102;
0228172050999992000011509004+38480+042300FM-12+166599999V0202701N001510105019N0150001N1-00801-01181999999ADDAY171031AY271031GA1051+010509069GA2081+027009049GF108991051051012501021999MA1999999083101MD1710101+9999ME1314909MW1021REMSYN098    AAXX  15094 17205 41665 82703 11080 21118 38310 48490 57010 70277 8552/ 333 85635 88459 92416;
0274172050999992000011512004+38480+042300FM-12+166599999V0202701N002110105019N0150001N1-00701-01121999999ADDAA106001091AL10600391AY171061AY221061GA1051+010509069GA2081+027009049GF108991051051012501021999MA1999999083001MD1710101+9999ME1314809MW1021UA1M999999019REMSYN110    AAXX  15124 17205 11665 82704 11070 21112 38300 48480 57010 60011 70272 8552/ 333 85635 88459 92416 93103;
0200172050999992000011515004+38480+042300FM-12+166599999V0209999C000010300019N0200001N1-00901-01371999999ADDGA1041+012009069GA2061+030009039GF106991041051012501051001MA1999999082941MD1710061+9999ME1314729REMSYN092    AAXX  15154 17205 42670 60000 11090 21137 38294 48472 57006 84550 333 84640 86360 92417;
0214172050999992000011518004+38480+042300FM-12+166599999V0202501N001012200019N0200001N1-01001-01611999999ADDAA112001091GA1021+012009069GF102991021051012501001001KA1120M-00501MA1999999082941MD1410001+9999ME1314729REMSYN098    AAXX  15184 17205 12670 22502 11100 21161 38294 48472 54000 60012 82500 333 11050 82640 92417;
0178172050999992000011521004+38480+042300FM-12+166599999V0202701N001012200019N0200001N1-00901-01651999999ADDGA1041+012009069GF104991041051012501001001MA1999999082901MD1610041+9999ME1314729REMSYN086    AAXX  15214 17205 42670 42702 11090 21165 38290 48472 56004 84500 333 84640 92417;
0196172050999992000011600004+38480+042300FM-12+166599999V0209999C000012200019N0200001N1-01101-01871999999ADDAA199000091GA1001+999999999GF100991001001999999001001MA1999999082901MD1410001+9999ME1314749REMSYN074    AAXX  16004 17205 32970 00000 11110 21187 38290 48474 54000 333 10241;EQDQ01  00002PRCP99
0166172050999992000011603004+38480+042300FM-12+166599999V0209999C000012200019N0200001N1-01401-01861999999ADDGA1001+999999999GF100991001001999999001001MA1999999082901MD1410001+9999ME1314759REMSYN074    AAXX  16034 17205 42970 00000 11140 21186 38290 48475 54000 333 10258;
0267172050999992000011606004+38480+042300FM-12+166599999V0209999C000012200019N0300001N1-01001-01711999999ADDAA124001091AJ100179199999999GA1021+012009069GF102991021051012501001001IA1239IA2999-01709KA1120N-01501MA1999999083001MD1210101+9999ME1314829REMSYN116    AAXX  16064 17205 32680 20000 11100 21171 38300 48482 52010 82500 333 21150 3/117 47017 55000 70010 82640 92418;
0178172050999992000011609004+38480+042300FM-12+166599999V0202501N001012200019N0300001N1-00641-01741999999ADDGA1041+012009069GF104991041051012501001001MA1999999083001MD1410001+9999ME1314799REMSYN086    AAXX  16094 17205 42680 42502 11064 21174 38300 48479 54000 84500 333 84640 92418;
0208172050999992000011612004+38480+042300FM-12+166599999V0202501N001012200019N0300001N1-00541-01771999999ADDAA199000091GA1021+012009069GF102991021051012501001001MA1999999082901MD1610101+9999ME1314699REMSYN086    AAXX  16124 17205 32680 22502 11054 21177 38290 48469 56010 82500 333 82640 92418;EQDQ01  00002PRCP99
0178172050999992000011615004+38480+042300FM-12+166599999V0203401N001012200019N0300001N1-00841-01891999999ADDGA1021+012009069GF102991021051012501001001MA1999999083001MD1210101+9999ME1314809REMSYN086    AAXX  16154 17205 42680 23402 11084 21189 38300 48480 52010 82500 333 82640 92418;
0215172050999992000011618004+38480+042300FM-12+166599999V0200201N001012200019N0200001N1-00901-02011999999ADDAA199000091GA1001+999999999GF100991001001999999001001KA1120M-00401MA1999999083101MD1110101+9999ME1314919REMSYN080    AAXX  16184 17205 32970 00202 11090 21201 38310 48491 51010 333 11040 92417;EQDQ01  00002PRCP99
0166172050999992000011621004+38480+042300FM-12+166599999V0202501N001512200019N0200001N1-00841-01891999999ADDGA1001+999999999GF100991001001999999001001MA1999999083101MD1410001+9999ME1314909REMSYN074    AAXX  16214 17205 42970 02503 11084 21189 38310 48490 54000 333 10241;
0196172050999992000011700004+38480+042300FM-12+166599999V0209999C000012200019N0200001N1-01201-02241999999ADDAA199000091GA1001+999999999GF100991001001999999001001MA1999999083101MD1410001+9999ME1314929REMSYN074    AAXX  17004 17205 32970 00000 11120 21224 38310 48492 54000 333 10249;EQDQ01  00002PRCP99
0166172050999992000011703004+38480+042300FM-12+166599999V0209999C000012200019N0200001N1-01321-01861999999ADDGA1001+999999999GF100991001001999999001001MA1999999083001MD1610101+9999ME1314849REMSYN074    AAXX  17034 17205 42970 00000 11132 21186 38300 48484 56010 333 10262;
0166172050999992000011709004+38480+042300FM-12+166599999V0209999C000012200019N0300001N1-00621-01181999999ADDGA1001+999999999GF100991001001999999001001MA1999999082901MD1810101+9999ME1314709REMSYN074    AAXX  17094 17205 42980 00000 11062 21118 38290 48470 58010 333 10217;
0196172050999992000011712004+38480+042300FM-12+166599999V0202701N001012200019N0300001N1-00501-01291999999ADDAA199000091GA1001+999999999GF100991001001999999001001MA1999999082801MD1810101+9999ME1314619REMSYN074    AAXX  17124 17205 32980 02702 11050 21129 38280 48461 58010 333 10212;EQDQ01  00002PRCP99
0166172050999992000011715004+38480+042300FM-12+166599999V0202701N001512200019N0300001N1-00661-01621999999ADDGA1001+999999999GF100991001001999999001001MA1999999082701MD1710101+9999ME1314509REMSYN074    AAXX  17154 17205 42980 02703 11066 21162 38270 48450 57010 333 10216;
0215172050999992000011718004+38480+042300FM-12+166599999V0202701N001512200019N0300001N1-00781-01721999999ADDAA199000091GA1001+999999999GF100991001001999999001001KA1120M-00401MA1999999082701MD1410001+9999ME1314529REMSYN080    AAXX  17184 17205 32980 02703 11078 21172 38270 48452 54000 333 11040 92418;EQDQ01  00002PRCP99
0166172050999992000011721004+38480+042300FM-12+166599999V0202701N001512200019N0300001N1-00721-01671999999ADDGA1001+999999999GF100991001001999999001001MA1999999082701MD1410001+9999ME1314529REMSYN074    AAXX  17214 17205 42980 02703 11072 21167 38270 48452 54000 333 10192;
0196172050999992000011800004+38480+042300FM-12+166599999V0202701N003112200019N0300001N1-00901-01661999999ADDAA199000091GA1001+999999999GF100991001001999999001001MA1999999082601MD1710101+9999ME1314449REMSYN074    AAXX  18004 17205 32980 02706 11090 21166 38260 48444 57010 333 10180;EQDQ01  00002PRCP99
0166172050999992000011803004+38480+042300FM-12+166599999V0202701N002112200019N0300001N1-00901-01761999999ADDGA1001+999999999GF100991001001999999001001MA1999999082501MD1710101+9999ME1314359REMSYN074    AAXX  18034 17205 42980 02704 11090 21176 38250 48435 57010 333 10175;
0280172050999992000011806004+38480+042300FM-12+166599999V0202701N001512200019N0300001N1-00901-01761999999ADDAA199000091AJ100129199999999GA1031+012009069GF103991031051012501001001IA1239IA2999-01209KA1120N-01061MA1999999082501MD1410001+9999ME1314359REMSYN110    AAXX  18064 17205 32680 32703 11090 21176 38250 48435 54000 83500 333 21106 3/112 47012 55013 83640 92418;EQDQ01  00002PRCP99
0200172050999992000011809004+38480+042300FM-12+166599999V0202001N002610300019N0300001N1-00301-02321999999ADDGA1041+012009069GA2061+030009039GF106991041051012501051001MA1999999082401MD1710101+9999ME1314209REMSYN092    AAXX  18094 17205 42680 62005 11030 21232 38240 48420 57010 84550 333 84640 86360 92418;
0230172050999992000011812004+38480+042300FM-12+166599999V0202001N003110105019N0200001N1-00261-01931999999ADDAA199000091GA1051+010509069GA2081+027009049GF108991051051012501021999MA1999999082201MD1710201+9999ME1314019REMSYN092    AAXX  18124 17205 32670 82006 11026 21193 38220 48401 57020 8552/ 333 85635 88459 92427;EQDQ01  00002PRCP99
0250172050999992000011815004+38480+042300FM-12+166599999V0201601N00311004501CN0030001N1-00401-01441999999ADDAY171031AY221031GA1021+002409079GA2031+004509079GA3051+009909039GF108991061071002501021999MA1999999082101MD1710101+9999ME1313919MW1701REMSYN104    AAXX  18154 17205 41330 81606 11040 21144 38210 48391 57010 77072 8672/ 333 82708 85333 83715 85630;
0293172050999992000011818004+38480+042300FM-12+166599999V0202001N004110105019N0100001N1-00241-01291999999ADDAA112000591AL10600291AY171061AY221061GA1051+010509069GA2081+024009049GF108991051051012501021999KA1120M-00201MA1999999082101MD1410001+9999ME1313899MW1221UA1M999999029REMSYN116    AAXX  18184 17205 11660 82008 11024 21129 38210 48389 54000 69962 72272 8552/ 333 11020 85635 88458 92425 93102;
0250172050999992000011821004+38480+042300FM-12+166599999V0202001N002110075019N0010001N1-00461-00821999999ADDAY121031AY221031GA1021+002409079GA2051+007509069GA3081+021009049GF108991061071002501021999MA1999999082001MD1610101+9999ME1313819MW1701REMSYN104    AAXX  18214 17205 41310 82004 11046 21082 38200 48381 56010 77022 8672/ 333 82708 85625 88457 92424;
0296172050999992000011900004+38480+042300FM-12+166599999V0201601N002610075019N0010001N1-00401-00591999999ADDAA106002091AL10600491AY171061AY271061GA1021+002409079GA2051+007509069GA3081+021009049GF108991061071002501021999MA1999999081701MD1710301+9999ME1313529MW1701UA1M999999029REMSYN116    AAXX  19004 17205 11310 81605 11040 21059 38170 48352 57030 60021 77077 8672/ 333 82708 85625 88457 92423 93104;
0250172050999992000011903004+38480+042300FM-12+166599999V0201601N002610075019N0010001N1-00401-00591999999ADDAY171031AY271031GA1021+002409079GA2051+007509069GA3081+021009049GF108991061071002501021999MA1999999081601MD1710101+9999ME1313439MW1701REMSYN104    AAXX  19034 17205 41310 81605 11040 21059 38160 48343 57010 77077 8672/ 333 82708 85625 88457 92423;
0342172050999992000011906004+38480+042300FM-12+166599999V0201601N00101002101CN0010001N1-00301-00441999999ADDAA112007191AJ100309199999999AL10601091AY171061AY271061GA1061+999999079GF108991061071002501021999IA1239IA2999-00809KA1120N-00701MA1999999081501MD1610101+9999ME1313339MW1701UA1M999999029REMSYN146    AAXX  19064 17205 11310 81602 11030 21044 38150 48333 56010 60072 77077 8672/ 333 21070 3/108 47030 55002 70078 82708 85625 88457 92423 93110;
0250172050999992000011909004+38480+042300FM-12+166599999V0202001N001510075019N0010001N1-00261-00421999999ADDAY171031AY271031GA1021+002409079GA2051+007509069GA3081+021009049GF108991061071002501021999MA1999999081501MD1410001+9999ME1313319MW1711REMSYN104    AAXX  19094 17205 41310 82003 11026 21042 38150 48331 54000 77177 8672/ 333 82708 85625 88457 92423;
0302172050999992000011912004+38480+042300FM-12+166599999V0202001N003110075019N0010001N1-00301-00611999999ADDAA106007191AL19901591AY171061AY271061GA1021+002409079GA2051+007509069GA3081+021009049GF108991061071002501021999MA1999999081801MD1210301+9999ME1313629MW1711UA1M999999029REMSYN122    AAXX  19124 17205 11310 82006 11030 21061 38180 48362 52030 60071 77177 8672/ 333 82708 85625 88457 92423 93115 96039;
0279172050999992000011915004+38480+042300FM-12+166599999V0202001N002112200019N0200001N1-00321-01111999999ADDAY171031AY271031GA1021+012009069GA2081+027009049GF199999021051012501051001MA1999999082401MD1410001+9999ME1314209MW1221REMSYN098    AAXX  19154 17205 41670 42004 11032 21111 38240 48420 52060 72277 82550 333 82640 88459 92417;EQDQ01+000042SCOTCVQ02+000022APCTENQ03+000602APC3  
0267172050999992000011918004+38480+042300FM-12+166599999V0202501N001512200019N0200001N1-00581-01061999999ADDAA112007191AL10600391AY171061AY271061GA1021+012009069GF102991021051012501001001KA1120M-00201MA1999999082401MD1410001+9999ME1314229MW1011UA1M999999019REMSYN106AAXX  19184 17205 11670 22503 11058 21106 38240 48422 54000 60072 70177 82500 333 11020 82640 92417 93103;
0174172050999992000011921004+38480+042300FM-12+166599999V0202001N004112200019N0200001N1-00401-01301999999ADDGA1021+012009069GF102991021051012501001001MA1999999082601MD1210201+9999ME1314399REMSYN082AAXX  19214 17205 42670 22008 11040 21130 38260 48439 52020 82500 333 82640 92417;
0185172050999992000012000004+38480+042300FM-12+166599999V0201601N004112200019N0200001N1-00301-01221999999ADDAA199000021GA1041+012009069GF104991041051012501001001MA1999999082301MD1710301+9999ME1314109REMSYN082AAXX  20004 17205 32670 41608 11030 21122 38230 48410 57030 84500 333 84640 92417;
0246172050999992000012003004+38480+042300FM-12+166599999V0201601N004610075019N0010001N1-00401-00541999999ADDAY171031AY221031GA1021+002409079GA2051+007509069GA3081+021009049GF108991061071002501021999MA1999999082101MD1610201+9999ME1313919MW1701REMSYN100AAXX  20034 17205 41310 81609 11040 21054 38210 48391 56020 77072 8672/ 333 82708 85625 88457 92424;
0376172050999992000012006004+38480+042300FM-12+166599999V0201601N004610075019N0010001N1-00381-00471999999ADDAA112002091AJ100359199999999AL19900591AY171061AY271061GA1021+002409079GA2051+007509069GA3081+021009049GF108991061071002501021999IA1239IA2999-00709KA1120N-00561MA1999999082001MD1610101+9999ME1314179MW1701UA1M999999029REMSYN148AAXX  20064 17205 11310 81609 11038 21047 38200 48417 56010 60022 77077 8672/ 333 21056 3/107 47035 55000 70096 82708 85625 88457 92424 93105 96039;
0265172050999992000012009004+38480+042300FM-12+166599999V0201601N006210090019N0010001N1-00341-00421999999ADDAY171031AY231031GA1021+002409079GA2051+009009069GA3081+024009049GF108991061071002501021999MA1999999081801MD1810201+9999ME1313639MW1711UA1M999999029REMSYN106AAXX  20094 17205 41310 81612 11034 21042 38180 48363 58020 77173 8672/ 333 82708 85630 88458 92424 96037;
0315172050999992000012012004+38480+042300FM-12+166599999V0201601N005110090019N0010001N1-00141-00211999999ADDAA106004191AL19901591AY171061AY231061GA1021+002409079GA2051+009009069GA3081+024009049GF108991061071002501021999MA1999999081701MD1810101+9999ME1313519MW1711OA149901031UA1M999999029REMSYN124AAXX  20124 17205 11310 81610 11014 21021 38170 48351 58010 60041 77173 8672/ 333 82708 85630 88458 91120 92424 93115 96037;
0246172050999992000012015004+38480+042300FM-12+166599999V0202001N003110090019N0020001N1-00141-00211999999ADDAY171031AY231031GA1021+003009079GA2051+009009069GA3081+024009049GF108991061071004501021999MA1999999081601MD1710101+9999ME1313409MW1711REMSYN100AAXX  20154 17205 41420 82006 11014 21021 38160 48340 57010 77173 8672/ 333 82710 85630 88458 92424;
0317172050999992000012018004+38480+042300FM-12+166599999V0202001N004610075019N0010001N1-00081-00201999999ADDAA112008991AL19902091AY171061AY231061GA1021+002409079GA2051+007509069GA3081+021009049GF108991061071002501021999KA1120M+00001MA1999999081501MD1710101+9999ME1313319MW1711UA1M999999039REMSYN124AAXX  20184 17205 11310 82009 11008 21020 38150 48331 57010 60092 77173 8672/ 333 10000 82708 85625 88457 92433 93120 96037;
0265172050999992000012021004+38480+042300FM-12+166599999V0202001N005110075019N0010001N1-00201-00421999999ADDAY171031AY231031GA1021+002409079GA2051+007509069GA3081+024009049GF108991061071002501021999MA1999999081501MD1410001+9999ME1313319MW1711UA1M999999039REMSYN106AAXX  20214 17205 41310 82010 11020 21042 38150 48331 54000 77173 8672/ 333 82708 85625 88458 92433 96037;
0266172050999992000012100004+38480+042300FM-12+166599999V0202501N00511002101CN0010001N1-00461-00831999999ADDAA106004191AL19902091AY171061AY231061GA1061+999999079GF108991061071002501021999MA1999999081501MD1410001+9999ME1313339MW1711UA1M999999039REMSYN118AAXX  21004 17205 11310 82510 11046 21083 38150 48333 54000 60041 77173 8672/ 333 82708 85625 88458 92433 93120 96037;
0265172050999992000012103004+38480+042300FM-12+166599999V0202501N005110075019N0010001N1-00701-00861999999ADDAY171031AY231031GA1021+002409079GA2051+007509069GA3081+024009049GF108991061071002501021999MA1999999081601MD1210101+9999ME1313489MW1711UA1M999999039REMSYN106AAXX  21034 17205 41310 82510 11070 21086 38160 48348 52010 77173 8672/ 333 82708 85625 88458 92433 96037;
0376172050999992000012106004+38480+042300FM-12+166599999V0202501N005110075019N0010001N1-00801-00941999999ADDAA112007191AJ100709199999999AL19901591AY171061AY231061GA1021+002409079GA2051+007509069GA3081+024009049GF108991061071002501021999IA1239IA2999-01109KA1120N-00901MA1999999081901MD1210301+9999ME1313769MW1711UA1M999999039REMSYN148AAXX  21064 17205 11310 82510 11080 21094 38190 48376 52030 60072 77173 8672/ 333 21090 3/111 47070 55000 70158 82708 85625 88458 92433 93115 96037;
0224172050999992000012109004+38480+042300FM-12+166599999V0202501N002110300019N0100001N1-00801-00941999999ADDAY171031AY231031GA1041+012009069GA2061+030009039GF106991041051012501051001MA1999999082201MD1210301+9999ME1314059MW1271REMSYN094AAXX  21094 17205 41660 62504 11080 21094 38220 48405 52030 72773 84550 333 84640 86360 92426;
0248172050999992000012112004+38480+042300FM-12+166599999V0202701N002612200019N0200001N1-00821-01201999999ADDAA106001091AL10600591AY171061AY231061GA1031+012009069GF103991031051012501001001MA1999999082201MD1410001+9999ME1314059MW1021UA1M999999029REMSYN100AAXX  21124 17205 11670 32705 11082 21120 38220 48405 54000 60011 70273 83500 333 83640 92427 93105;
0162172050999992000012115004+38480+042300FM-12+166599999V0202701N001512200019N0250001N1-01061-01601999999ADDGA1001+999999999GF100991001001999999001001MA1999999082401MD1210201+9999ME1314269REMSYN070AAXX  21154 17205 42975 02703 11106 21160 38240 48426 52020 333 10171;
0198172050999992000012118004+38480+042300FM-12+166599999V0209999C000012200019N0250001N1-01201-01601999999ADDAA112001091GA1001+999999999GF100991001001999999001001KA1120M-00041MA1999999082501MD1210101+9999ME1314379REMSYN082AAXX  21184 17205 12975 00000 11120 21160 38250 48437 52010 60012 333 11004 92417;
0174172050999992000012121004+38480+042300FM-12+166599999V0201301N001012200019N0250001N1-00901-01511999999ADDGA1031+012009069GF103991031051012501001001MA1999999082601MD1210101+9999ME1314449REMSYN082AAXX  21214 17205 42675 31302 11090 21151 38260 48444 52010 83500 333 83640 92417;
0226172050999992000012200004+38480+042300FM-12+166599999V0202001N001510300019N0250001N1-00801-01361999999ADDAA199000091GA1041+012009069GA2061+030009039GF106991041051012501051001MA1999999082601MD1410001+9999ME1314439REMSYN088AAXX  22004 17205 32675 62003 11080 21136 38260 48443 54000 84550 333 84640 86360 92417;EQDQ01  00002PRCP99
0125172050999992000012203004+38480+042300FM-12+166599999V0202001N002619999999N0250001N1-00801+99999999999ADDGF106991999999012501999999REMSYN087AAXX  22034 17205 42675 62005 11080 2113 38260 48443 54000 84550 333 84640 86360 92427;
0263172050999992000012206004+38480+042300FM-12+166599999V0202201N002112200019N0250001N1-00801-01491999999ADDAA124001091AJ100679199999999GA1041+012009069GF104991041051012501001001IA1239IA2999-01509KA1120N-01341MA1999999082701MD1210101+9999ME1314529REMSYN112AAXX  22064 17205 32675 42204 11080 21149 38270 48452 52010 84500 333 21134 3/115 47067 55000 70010 84640 92417;
0196172050999992000012209004+38480+042300FM-12+166599999V0202001N002110300019N0200001N1-00561-01301999999ADDGA1041+012009069GA2061+030009039GF106991041051012501051001MA1999999082701MD1410001+9999ME1314509REMSYN088AAXX  22094 17205 42670 62004 11056 21130 38270 48450 54000 84550 333 84640 86360 92417;
0226172050999992000012212004+38480+042300FM-12+166599999V0202201N002610300019N0200001N1-00601-01281999999ADDAA199000091GA1041+012009069GA2061+030009039GF106991041051012501051001MA1999999082701MD1410001+9999ME1314509REMSYN088AAXX  22124 17205 32670 62205 11060 21128 38270 48450 54000 84550 333 84640 86360 92417;EQDQ01  00002PRCP99
0196172050999992000012215004+38480+042300FM-12+166599999V0202001N002110300019N0200001N1-00701-01231999999ADDGA1041+012009069GA2061+030009039GF106991041051012501051001MA1999999082701MD1410001+9999ME1314529REMSYN088AAXX  22154 17205 42670 62004 11070 21123 38270 48452 54000 84550 333 84640 86360 92417;
0245172050999992000012218004+38480+042300FM-12+166599999V0201601N005110300019N0150001N1-00661-01061999999ADDAA199000091GA1041+012009069GA2061+030009039GF106991041051012501051001KA1120M-00401MA1999999082601MD1710101+9999ME1314419REMSYN094AAXX  22184 17205 32665 61610 11066 21106 38260 48441 57010 84550 333 11040 84640 86360 92436;EQDQ01  00002PRCP99
0196172050999992000012221004+38480+042300FM-12+166599999V0202201N003610105019N0150001N1-00461-00951999999ADDGA1051+010509069GA2071+027009039GF107991051051012501071001MA1999999082601MD1410001+9999ME1314399REMSYN088AAXX  22214 17205 42665 72207 11046 21095 38260 48439 54000 85570 333 85635 87359 92433;
0292172050999992000012300004+38480+042300FM-12+166599999V0202501N003110075019N0010001N1-00541-00861999999ADDAA106000591AL10600291AY171061AY221061GA1021+002409079GA2051+007509069GA3081+021009049GF108991061071002501021999MA1999999082701MD1110101+9999ME1314509MW1701UA1M999999029REMSYN112AAXX  23004 17205 11310 82506 11054 21086 38270 48450 51010 69951 77072 8672/ 333 82708 85625 88457 92423 93102;
0246172050999992000012303004+38480+042300FM-12+166599999V0202501N002610075019N0010001N1-00541-00861999999ADDAY171031AY271031GA1021+002409079GA2051+007509069GA3081+021009049GF108991061071002501021999MA1999999082701MD1410001+9999ME1314509MW1701REMSYN100AAXX  23034 17205 41310 82505 11054 21086 38270 48450 54000 77077 8672/ 333 82708 85625 88457 92423;
0341172050999992000012306004+38480+042300FM-12+166599999V0200701N001010090019N0020001N1-00461-00861999999ADDAA112002091AJ100709199999999AY171061AY271061GA1021+003009079GA2051+009009069GA3081+024009049GF108991061071004501021999IA1239IA2999-00909KA1120N-00801MA1999999082701MD1410001+9999ME1314509MW1701REMSYN136AAXX  23064 17205 11420 80702 11046 21086 38270 48450 54000 60022 77077 8672/ 333 21080 3/109 47070 55008 70020 82710 85630 88458 92424;
0224172050999992000012309004+38480+042300FM-12+166599999V0202001N002110090019N0050001N1-00241-00831999999ADDAY171031AY271031GA1051+009009069GA2081+024009049GF108991051051008001021999MA1999999082801MD1110101+9999ME1314579MW1701REMSYN094AAXX  23094 17205 41550 82004 11024 21083 38280 48457 51010 77077 8552/ 333 85630 88458 92426;
0270172050999992000012312004+38480+042300FM-12+166599999V0202701N003610090019N0060001N1-00101-00721999999ADDAA106001091AL10600391AY171061AY271061GA1051+009009069GA2081+024009049GF108991051051008001021999MA1999999082801MD1410001+9999ME1314579MW1701UA1M999999029REMSYN106AAXX  23124 17205 11556 82707 11010 21072 38280 48457 54000 60011 77077 8552/ 333 85630 88458 92426 93103;
0243172050999992000012315004+38480+042300FM-12+166599999V0202501N004610090019N0060001N1-00301-00661999999ADDAY171031AY271031GA1051+009009069GA2081+024009049GF199999051051008001021999MA1999999083001MD1210201+9999ME1314779MW1701REMSYN094AAXX  23154 17205 41556 62509 11030 21066 38300 48477 52020 77077 8552/ 333 85630 88458 92426;EQDQ01+000062SCOTCV
0289172050999992000012318004+38480+042300FM-12+166599999V0202001N001510270019N0100001N1-00261-00761999999ADDAA112003091AL10600591AY171061AY271061GA1041+012009069GA2061+027009039GF106991041051012501051001KA1120M-00061MA1999999083201MD1210201+9999ME1314959MW1221UA1M999999019REMSYN112AAXX  23184 17205 11660 62003 11026 21076 38320 48495 52020 60032 72277 84550 333 11006 84640 86359 92417 93105;
0196172050999992000012321004+38480+042300FM-12+166599999V0202001N003110270019N0100001N1-00261-00651999999ADDGA1041+012009069GA2061+027009039GF106991041051012501051001MA1999999083401MD1210201+9999ME1315149REMSYN088AAXX  23214 17205 42660 62006 11026 21065 38340 48514 52020 84550 333 84640 86359 92427;
0207172050999992000012400004+38480+042300FM-12+166599999V0202701N003110270019N0100001N1-00341-00631999999ADDAA199000021GA1041+012009069GA2061+027009039GF106991041051012501051001MA1999999083501MD1210101+9999ME1315249REMSYN088AAXX  24004 17205 32660 62706 11034 21063 38350 48524 52010 84550 333 84640 86359 92427;
0196172050999992000012403004+38480+042300FM-12+166599999V0202701N003110270019N0100001N1-00441-00751999999ADDGA1041+012009069GA2061+027009039GF106991041051012501051001MA1999999083501MD1410001+9999ME1315259REMSYN088AAXX  24034 17205 42660 62706 11044 21075 38350 48525 54000 84550 333 84640 86359 92427;
0285172050999992000012406004+38480+042300FM-12+166599999V0202701N001510300019N0200001N1-00341-00741999999ADDAA124002891AJ100709199999999GA1041+012009069GA2061+030009039GF106991041051012501051001IA1239IA2999-00709KA1120N-00541MA1999999083701MD1210201+9999ME1315449REMSYN118AAXX  24064 17205 32670 62703 11034 21074 38370 48544 52020 84550 333 21054 3/107 47070 55000 70028 84640 86360 92417;
0174172050999992000012409004+38480+042300FM-12+166599999V0202701N001512200019N0200001N1-00081-01041999999ADDGA1031+012009069GF103991031051012501001001MA1999999083601MD1610101+9999ME1315339REMSYN082AAXX  24094 17205 42670 32703 11008 21104 38360 48533 56010 83500 333 83640 92417;
0226172050999992000012412004+38480+042300FM-12+166599999V0202701N001510120019N0200001N1-00061-00651999999ADDAA199000091GA1051+012009069GA2081+030009049GF108991051051012501021999MA1999999083601MD1410001+9999ME1315329REMSYN088AAXX  24124 17205 32670 82703 11006 21065 38360 48532 54000 8552/ 333 85640 88460 92417;EQDQ01  00002PRCP99
0196172050999992000012415004+38480+042300FM-12+166599999V0202701N001510120019N0200001N1-00141-00731999999ADDGA1051+012009069GA2081+027009049GF108991051051012501021999MA1999999083601MD1410001+9999ME1315339REMSYN088AAXX  24154 17205 42670 82703 11014 21073 38360 48533 54000 8552/ 333 85640 88459 92417;
0245172050999992000012418004+38480+042300FM-12+166599999V0201601N001510120019N0200001N1-00101-00511999999ADDAA199000091GA1051+012009069GA2081+027009049GF108991051051012501021999KA1120M+00041MA1999999083501MD1610101+9999ME1315249REMSYN094AAXX  24184 17205 32670 81603 11010 21051 38350 48524 56010 8552/ 333 10004 85640 88459 92417;EQDQ01  00002PRCP99
0196172050999992000012421004+38480+042300FM-12+166599999V0209999C000010120019N0200001N1-00101-00511999999ADDGA1051+012009069GA2081+027009049GF108991051051012501021999MA1999999083501MD1410001+9999ME1315249REMSYN088AAXX  24214 17205 42670 80000 11010 21051 38350 48524 54000 8552/ 333 85640 88459 92417;
0292172050999992000012500004+38480+042300FM-12+166599999V0209999C000010075019N0020001N1-00101-00311999999ADDAA106000891AL10600291AY121061AY221061GA1021+003009079GA2051+007509069GA3081+024009049GF108991061071004501021999MA1999999083401MD1610101+9999ME1315149MW1701UA1M999999019REMSYN112AAXX  25004 17205 11420 80000 11010 21031 38340 48514 56010 69971 77022 8672/ 333 82710 85625 88458 92414 93102;
0224172050999992000012503004+38480+042300FM-12+166599999V0209999C000010105019N0150001N1-00161-00581999999ADDAY171031AY221031GA1051+010509069GA2081+024009049GF108991051051012501021999MA1999999083301MD1710101+9999ME1315059MW1221REMSYN094AAXX  25034 17205 41665 80000 11016 21058 38330 48505 57010 72272 8552/ 333 85635 88458 92416;
0348172050999992000012506004+38480+042300FM-12+166599999V0201601N001510105019N0200001N1-00021-00521999999ADDAA112004191AJ100709199999999AL10600491AY171061AY221061GA1051+010509069GA2081+024009049GF108991051051012501021999IA1239IA2999-00409KA1120N-00301MA1999999083201MD1610101+9999ME1314949MW1021UA1M999999019REMSYN136AAXX  25064 17205 11670 81603 11002 21052 38320 48494 56010 60042 70272 8552/ 333 21030 3/104 47070 55010 70040 85635 88458 92417 93104;
0224172050999992000012509004+38480+042300FM-12+166599999V0201601N002110105019N0050001N1+00081-00471999999ADDAY171031AY271031GA1051+010509069GA2081+024009049GF108991051051012501021999MA1999999083141MD1610061+9999ME1314849MW1701REMSYN094AAXX  25094 17205 41650 81604 10008 21047 38314 48484 56006 77077 8552/ 333 85635 88458 92416;
0270172050999992000012512004+38480+042300FM-12+166599999V0202001N002110105019N0050001N1+00061-00501999999ADDAA106000891AL10600491AY171061AY271061GA1051+010509069GA2081+024009049GF108991051051012501021999MA1999999083001MD1710141+9999ME1314749MW1701UA1M999999019REMSYN106AAXX  25124 17205 11650 82004 10006 21050 38300 48474 57014 69981 77077 8552/ 333 85635 88458 92416 93104;
0246172050999992000012515004+38480+042300FM-12+166599999V0202701N001010090019N0030001N1-00061-00321999999ADDAY171031AY271031GA1021+003009079GA2051+009009069GA3081+024009049GF108991061071004501021999MA1999999082901MD1610101+9999ME1314669MW1701REMSYN100AAXX  25154 17205 41430 82702 11006 21032 38290 48466 56010 77077 8672/ 333 82710 85630 88458 92416;
0311172050999992000012518004+38480+042300FM-12+166599999V0209999C000010090019N0030001N1-00021-00271999999ADDAA112004191AL10600691AY171061AY271061GA1021+003009079GA2051+009009069GA3081+024009049GF108991061071004501021999KA1120M+00161MA1999999082901MD1410001+9999ME1314659MW1701UA1M999999019REMSYN118AAXX  25184 17205 11430 80000 11002 21027 38290 48465 54000 60042 77077 8672/ 333 10016 82710 85630 88458 92415 93106;
0246172050999992000012521004+38480+042300FM-12+166599999V0209999C000010090019N0030001N1+00001-00341999999ADDAY171031AY271031GA1021+003009079GA2051+009009069GA3081+024009049GF108991061071004501021999MA1999999082801MD1710101+9999ME1314559MW1701REMSYN100AAXX  25214 17205 41430 80000 10000 21034 38280 48455 57010 77077 8672/ 333 82710 85630 88458 92415;
0292172050999992000012600004+38480+042300FM-12+166599999V0201601N004110090019N0030001N1-00021-00321999999ADDAA106001091AL10600391AY171061AY271061GA1021+003009079GA2051+009009069GA3081+024009049GF108991061071004501021999MA1999999082251MD1610301+9999ME1314269MW1701UA1M999999029REMSYN112AAXX  26004 17205 11430 81608 11002 21032 38225 48426 56030 60011 77077 8672/ 333 82710 85630 88458 92424 93103;
0246172050999992000012603004+38480+042300FM-12+166599999V0201601N002610090019N0030001N1+00001-00231999999ADDAY171031AY271031GA1021+003009079GA2051+009009069GA3081+024009049GF108991061071004501021999MA1999999082401MD1710101+9999ME1314169MW1701REMSYN100AAXX  26034 17205 41430 81605 10000 21023 38240 48416 57010 77077 8672/ 333 82710 85630 88458 92415;
0370172050999992000012606004+38480+042300FM-12+166599999V0202001N003110090019N0030001N1+00001-00371999999ADDAA112006191AJ100709199999999AL10601091AY171061AY271061GA1021+003009079GA2051+009009069GA3081+024009049GF108991061071004501021999IA1239IA2999-00309KA1120N-00201MA1999999082301MD1610101+9999ME1314129MW1701UA1M999999029REMSYN142AAXX  26064 17205 11430 82006 10000 21037 38230 48412 56010 60062 77077 8672/ 333 21020 3/103 47070 55000 70097 82710 85630 88458 92423 93110;
0292172050999992000012609004+38480+042300FM-12+166599999V0202001N003110090019N0010001N1-00101-00701999999ADDAA106002091AL10600591AY171031AY271031GA1021+003009079GA2051+009009069GA3081+024009049GF108991061071004501021999MA1999999082301MD1410001+9999ME1314089MW1701UA1M999999029REMSYN112AAXX  26094 17205 11410 82006 11010 21070 38230 48408 54000 60021 77077 8672/ 333 82710 85630 88458 92424 93105;
0292172050999992000012612004+38480+042300FM-12+166599999V0202001N003110090019N0010001N1-00101-00701999999ADDAA106002091AL10600591AY171061AY271061GA1021+003009079GA2051+009009069GA3081+024009049GF108991061071004501021999MA1999999082301MD1410001+9999ME1314089MW1701UA1M999999029REMSYN112AAXX  26124 17205 11410 82006 11010 21070 38230 48408 54000 60021 77077 8672/ 333 82710 85630 88458 92424 93105;
0265172050999992000012615004+38480+042300FM-12+166599999V0202001N003110090019N0010001N1-00141-00601999999ADDAY171031AY271031GA1021+003009079GA2051+009009069GA3081+024009049GF108991061071004501021999MA1999999082301MD1410001+9999ME1314089MW1701UA1M999999029REMSYN106AAXX  26154 17205 41410 82006 11014 21060 38230 48408 54000 77077 8672/ 333 82710 85630 88458 92424 96037;
0317172050999992000012618004+38480+042300FM-12+166599999V0202001N004610090019N0010001N1-00241-00561999999ADDAA112004191AL19900691AY171061AY271061GA1021+003009079GA2051+009009069GA3081+024009049GF108991061071004501021999KA1120M+00141MA1999999082301MD1410001+9999ME1314089MW1701UA1M999999039REMSYN124AAXX  26184 17205 11410 82009 11024 21056 38230 48408 54000 60042 77077 8672/ 333 10014 82710 85630 88458 92434 93106 96037;
0265172050999992000012621004+38480+042300FM-12+166599999V0202001N004610090019N0005001N1-00241-00561999999ADDAY171031AY271031GA1021+003009079GA2051+009009069GA3081+024009049GF108991061071004501021999MA1999999082301MD1410001+9999ME1314089MW1701UA1M999999049REMSYN106AAXX  26214 17205 41405 82009 11024 21056 38230 48408 54000 77077 8672/ 333 82710 85630 88458 92441 96037;
0298172050999992000012700004+38480+042300FM-12+166599999V0202501N004610090019N0010001N1-00401-00641999999ADDAA106002091AL19900891AY171061AY231061GA1021+003009079GA2051+009009069GA3081+024009049GF108991061071004501021999MA1999999082301MD1410001+9999ME1314019MW1701UA1M999999049REMSYN118AAXX  27004 17205 11410 82509 11040 21064 38230 48401 54000 60021 77073 8672/ 333 82710 85630 88458 92441 93108 96037;
0265172050999992000012703004+38480+042300FM-12+166599999V0202001N003110090019N0010001N1-00461-00831999999ADDAY171031AY231031GA1021+003009079GA2051+009009069GA3081+024009049GF108991061071004501021999MA1999999082301MD1410001+9999ME1314019MW1701UA1M999999049REMSYN106AAXX  27034 17205 41410 82006 11046 21083 38230 48401 54000 77073 8672/ 333 82710 85630 88458 92441 96037;
0370172050999992000012706004+38480+042300FM-12+166599999V0202001N002610090019N0010001N1-00401-00641999999ADDAA112007191AJ100829199999999AL10600791AY171061AY231061GA1021+003009079GA2051+009009069GA3081+024009049GF108991061071004501021999IA1239IA2999-00709KA1120N-00561MA1999999082301MD1410001+9999ME1314019MW1701UA1M999999029REMSYN142AAXX  27064 17205 11410 82005 11040 21064 38230 48401 54000 60072 77073 8672/ 333 21056 3/107 47082 55003 70109 82710 85630 88458 92423 93107;
0224172050999992000012709004+38480+042300FM-12+166599999V0202501N002610300019N0200001N1-00301-01001999999ADDAY171031AY271031GA1041+012009069GA2061+030009039GF106991041051012501051001MA1999999082401MD1210101+9999ME1314209MW1221REMSYN094AAXX  27094 17205 41670 62505 11030 21100 38240 48420 52010 72277 84550 333 84640 86360 92427;
0270172050999992000012712004+38480+042300FM-12+166599999V0202001N001510300019N0200001N1-00201-00991999999ADDAA106001091AL10600491AY171061AY221061GA1041+012009069GA2061+030009039GF106991041051012501051001MA1999999082301MD1810101+9999ME1314089MW1021UA1M999999019REMSYN106AAXX  27124 17205 11670 62003 11020 21099 38230 48408 58010 60011 70272 84550 333 84640 86360 92417 93104;
0232172050999992000012718004+38480+042300FM-12+166599999V0202701N001510300019N0200001N1-00401-00951999999ADDAA112001091GA1041+012009069GA2061+030009039GF106991041051012501051001KA1120M-00101MA1999999082501MD1310101+9999ME1314309REMSYN100AAXX  27184 17205 12670 62703 11040 21095 38250 48430 53010 60012 84550 333 11010 84640 86360 92417;
0196172050999992000012721004+38480+042300FM-12+166599999V0202701N001510300019N0200001N1-00461-00831999999ADDGA1041+012009069GA2061+030009039GF106991041051012501051001MA1999999082501MD1410001+9999ME1314309REMSYN088AAXX  27214 17205 42670 62703 11046 21083 38250 48430 54000 84550 333 84640 86360 92417;
0226172050999992000012800004+38480+042300FM-12+166599999V0209999C000010105019N0200001N1-00501-00811999999ADDAA199000091GA1051+010509069GA2081+024009049GF108991051051012501021999MA1999999082501MD1410001+9999ME1314319REMSYN088AAXX  28004 17205 32670 80000 11050 21081 38250 48431 54000 8552/ 333 85635 88458 92417;EQDQ01  00002PRCP99
0224172050999992000012803004+38480+042300FM-12+166599999V0202701N001510090019N0030001N1-00601-00781999999ADDAY121031AY221031GA1051+009009069GA2081+024009049GF108991051051008001021999MA1999999082501MD1410001+9999ME1314319MW1701REMSYN094AAXX  28034 17205 41530 82703 11060 21078 38250 48431 54000 77022 8552/ 333 85630 88458 92413;
0348172050999992000012806004+38480+042300FM-12+166599999V0209999C000010090019N0030001N1-00561-00821999999ADDAA112004191AJ100829199999999AL10600791AY171061AY271061GA1051+009009069GA2081+024009049GF108991051051008001021999IA1239IA2999-00909KA1120N-00741MA1999999082601MD1210101+9999ME1314419MW1701UA1M999999019REMSYN136AAXX  28064 17205 11530 80000 11056 21082 38260 48441 52010 60042 77077 8552/ 333 21074 3/109 47082 55003 70050 85630 88458 92414 93107;
0224172050999992000012809004+38480+042300FM-12+166599999V0200401N002110090019N0030001N1-00201-00771999999ADDAY171031AY271031GA1051+009009069GA2081+024009049GF108991051051008001021999MA1999999082701MD1110101+9999ME1314479MW1701REMSYN094AAXX  28094 17205 41530 80404 11020 21077 38270 48447 51010 77077 8552/ 333 85630 88458 92415;
0270172050999992000012812004+38480+042300FM-12+166599999V0202701N001510120019N0150001N1-00441-00871999999ADDAA106000891AL10600391AY171061AY271061GA1051+012009069GA2081+027009049GF108991051051012501021999MA1999999082701MD1410001+9999ME1314499MW1021UA1M999999019REMSYN106AAXX  28124 17205 11665 82703 11044 21087 38270 48449 54000 69981 70277 8552/ 333 85640 88459 92417 93103;
0196172050999992000012815004+38480+042300FM-12+166599999V0202701N003110270019N0150001N1-00661-00941999999ADDGA1041+012009069GA2061+027009039GF106991041051012501051001MA1999999082801MD1210101+9999ME1314609REMSYN088AAXX  28154 17205 42665 62706 11066 21094 38280 48460 52010 84550 333 84640 86359 92417;
0251172050999992000012818004+38480+042300FM-12+166599999V0202701N001510120019N0150001N1-00701-00931999999ADDAA112000891GA1051+012009069GA2081+027009049GF108991051051012501021999KA1120M-00161MA1999999082901MD1210101+9999ME1314719UA1M999999059REMSYN106AAXX  28184 17205 12665 82703 11070 21093 38290 48471 52010 69982 8552/ 333 11016 85640 88459 92459 92417;
0196172050999992000012821004+38480+042300FM-12+166599999V0202701N001510120019N0150001N1-00741-01031999999ADDGA1051+012009069GA2081+024009049GF108991051051012501021999MA1999999083001MD1110101+9999ME1314719REMSYN088AAXX  28214 17205 42665 82703 11074 21103 38300 48471 51010 8552/ 333 85640 88458 92417;
0226172050999992000012900004+38480+042300FM-12+166599999V0202701N001510120019N0150001N1-00641-01051999999ADDAA199000091GA1051+012009069GA2081+027009049GF108991051051012501021999MA1999999083001MD1410001+9999ME1314799REMSYN088AAXX  29004 17205 32665 82703 11064 21105 38300 48479 54000 8552/ 333 85640 88459 92417;EQDQ01  00002PRCP99
0196172050999992000012903004+38480+042300FM-12+166599999V0200201N002110120019N0150001N1-00401-00871999999ADDGA1051+012009069GA2081+027009049GF108991051051012501021999MA1999999083001MD1410001+9999ME1314779REMSYN088AAXX  29034 17205 42665 80204 11040 21087 38300 48477 54000 8552/ 333 85640 88459 92417;
0285172050999992000012906004+38480+042300FM-12+166599999V0200201N001510120019N0150001N1-00701-01161999999ADDAA124000891AJ100809199999999GA1051+012009069GA2081+027009049GF108991051051012501021999IA1239IA2999-00909KA1120N-00841MA1999999083101MD1110101+9999ME1314909REMSYN118AAXX  29064 17205 32665 80203 11070 21116 38310 48490 51010 8552/ 333 21084 3/109 47080 55000 70008 85640 88459 92417;
0196172050999992000012909004+38480+042300FM-12+166599999V0202701N001010105019N0150001N1-00601-01161999999ADDGA1051+010509069GA2081+027009049GF108991051051012501021999MA1999999083201MD1310101+9999ME1314989REMSYN088AAXX  29094 17205 42665 82702 11060 21116 38320 48498 53010 8552/ 333 85635 88459 92417;
0204172050999992000012912004+38480+042300FM-12+166599999V0202701N001512200019N0200001N1-00441-01081999999ADDAA199000091GA1041+012009069GF104991041051012501001001MA1999999083201MD1410001+9999ME1314989REMSYN082AAXX  29124 17205 32670 42703 11044 21108 38320 48498 54000 84500 333 84640 92417;EQDQ01  00002PRCP99
0162172050999992000012915004+38480+042300FM-12+166599999V0209999C000012200019N0300001N1-00761-01121999999ADDGA1001+999999999GF100991001001999999001001MA1999999083401MD1210101+9999ME1315189REMSYN070AAXX  29154 17205 42980 00000 11076 21112 38340 48518 52010 333 10270;
0211172050999992000012918004+38480+042300FM-12+166599999V0209999C000012200019N0300001N1-00941-01201999999ADDAA199000091GA1001+999999999GF100991001001999999001001KA1120M-00301MA1999999083601MD1210201+9999ME1315379REMSYN076AAXX  29184 17205 32980 00000 11094 21120 38360 48537 52020 333 11030 92417;EQDQ01  00002PRCP99
0162172050999992000012921004+38480+042300FM-12+166599999V0209999C000012200019N0300001N1-01001-01171999999ADDGA1001+999999999GF100991001001999999001001MA1999999083601MD1410001+9999ME1315379REMSYN070AAXX  29214 17205 42980 00000 11100 21117 38360 48537 54000 333 10311;
0192172050999992000013000004+38480+042300FM-12+166599999V0209999C000012200019N0300001N1-00861-01121999999ADDAA199000091GA1001+999999999GF100991001001999999001001MA1999999083801MD1210201+9999ME1315559REMSYN070AAXX  30004 17205 32980 00000 11086 21112 38380 48555 52020 333 10327;EQDQ01  00002PRCP99
0162172050999992000013003004+38480+042300FM-12+166599999V0209999C000012200019N0300001N1-00941-01171999999ADDGA1001+999999999GF100991001001999999001001MA1999999083901MD1210101+9999ME1315659REMSYN070AAXX  30034 17205 42980 00000 11094 21117 38390 48565 52010 333 10356;
0264172050999992000013006004+38480+042300FM-12+166599999V0209999C000012200019N0300001N1-00941-01171999999ADDAA199000091AJ100809199999999GA1001+999999999GF100991001001999999001001IA1239IA2999-01409KA1120N-01101MA1999999084001MD1210101+9999ME1315749REMSYN094AAXX  30064 17205 32980 00000 11094 21117 38400 48574 52010 333 21110 3/114 47080 55006 92418;EQDQ01  00002PRCP99
0162172050999992000013009004+38480+042300FM-12+166599999V0209999C000012200019N0300001N1-00101-00861999999ADDGA1001+999999999GF100991001001999999001001MA1999999084001MD1410001+9999ME1315719REMSYN070AAXX  30094 17205 42980 00000 11010 21086 38400 48571 54000 333 10344;
0192172050999992000013012004+38480+042300FM-12+166599999V0202701N001512200019N0300001N1-00141-00951999999ADDAA199000091GA1001+999999999GF100991001001999999001001MA1999999084001MD1410001+9999ME1315719REMSYN070AAXX  30124 17205 32980 02703 11014 21095 38400 48571 54000 333 10336;EQDQ01  00002PRCP99
0162172050999992000013015004+38480+042300FM-12+166599999V0202701N001512200019N0300001N1-00361-00901999999ADDGA1001+999999999GF100991001001999999001001MA1999999084001MD1410001+9999ME1315729REMSYN070AAXX  30154 17205 42980 02703 11036 21090 38400 48572 54000 333 10352;
0211172050999992000013018004+38480+042300FM-12+166599999V0209999C000012200019N0300001N1-00701-00991999999ADDAA199000091GA1001+999999999GF100991001001999999001001KA1120M+00001MA1999999084101MD1110101+9999ME1315839REMSYN076AAXX  30184 17205 32980 00000 11070 21099 38410 48583 51010 333 10000 92418;EQDQ01  00002PRCP99
0162172050999992000013021004+38480+042300FM-12+166599999V0209999C000012200019N0300001N1-00941-01171999999ADDGA1001+999999999GF100991001001999999001001MA1999999084101MD1410001+9999ME1315839REMSYN070AAXX  30214 17205 42980 00000 11094 21117 38410 48583 54000 333 10340;
0192172050999992000013100004+38480+042300FM-12+166599999V0209999C000012200019N0300001N1-01101-01201999999ADDAA199000091GA1001+999999999GF100991001001999999001001MA1999999084001MD1610101+9999ME1315759REMSYN070AAXX  31004 17205 32980 00000 11110 21120 38400 48575 56010 333 10344;EQDQ01  00002PRCP99
0298172050999992000013106004+38480+042300FM-12+166599999V0209999C000010300019N0300001N1-00961-01161999999ADDAA199000091AJ100759199999999GA1041+012009069GA2061+030009039GF106991041051012501051001IA1239IA2999-01409KA1120N-01261MA1999999083961MD1610041+9999ME1315749REMSYN112AAXX  31064 17205 32680 60000 11096 21116 38396 48574 56004 84550 333 21126 3/114 47075 55005 84640 86360 92418;EQDQ01  00002PRCP99
0196172050999992000013109004+38480+042300FM-12+166599999V0209999C000010300019N0300001N1-00301-00761999999ADDGA1041+012009069GA2061+030009039GF106991041051012501051001MA1999999083961MD1410001+9999ME1315729REMSYN088AAXX  31094 17205 42680 60000 11030 21076 38396 48572 54000 84550 333 84640 86360 92418;
0226172050999992000013112004+38480+042300FM-12+166599999V0202701N002110300019N0300001N1-00641-00981999999ADDAA199000091GA1041+012009069GA2061+030009039GF106991041051012501051001MA1999999083701MD1710261+9999ME1315459REMSYN088AAXX  31124 17205 32680 62704 11064 21098 38370 48545 57026 84550 333 84640 86360 92418;EQDQ01  00002PRCP99
0196172050999992000013115004+38480+042300FM-12+166599999V0202701N001510300019N0300001N1-00601-00931999999ADDGA1041+012009069GA2061+030009039GF106991041051012501051001MA1999999083501MD1610201+9999ME1315269REMSYN088AAXX  31154 17205 42680 62703 11060 21093 38350 48526 56020 84550 333 84640 86360 92418;
0223172050999992000013118004+38480+042300FM-12+166599999V0209999C000012200019N0300001N1-00721-01011999999ADDAA199000091GA1041+012009069GF104991041051012501001001KA1120M-00201MA1999999083601MD1110101+9999ME1315369REMSYN088AAXX  31184 17205 32680 40000 11072 21101 38360 48536 51010 84500 333 11020 84640 92418;EQDQ01  00002PRCP99
0174172050999992000013121004+38480+042300FM-12+166599999V0209999C000012200019N0300001N1-00501-01291999999ADDGA1041+012009069GF104991041051012501001001MA1999999083501MD1710101+9999ME1315269REMSYN082AAXX  31214 17205 42680 40000 11050 21129 38350 48526 57010 84500 333 84640 92418;
0204172050999992000020100004+38480+042300FM-12+166599999V0209999C000012200019N0250001N1-00341-01471999999ADDAA199000091GA1041+012009089GF104991041051012501001001MA1999999083401MD1610101+9999ME1315159REMSYN082AAXX  01004 17205 32675 40000 11034 21147 38340 48515 56010 84500 333 84840 92418;EQDQ01  00002PRCP99
0196172050999992000020103004+38480+042300FM-12+166599999V0209999C000010300019N0200001N1-00341-01061999999ADDGA1041+012009069GA2061+030009039GF106991041051012501051001MA1999999083301MD1710101+9999ME1315069REMSYN088AAXX  01034 17205 42670 60000 11034 21106 38330 48506 57010 84550 333 84640 86360 92417;
0298172050999992000020106004+38480+042300FM-12+166599999V0202701N001510300019N0200001N1-00301-00671999999ADDAA199000091AJ100729199999999GA1041+012009069GA2061+030009039GF106991041051012501051001IA1239IA2999-01009KA1120N-00801MA1999999083301MD1410001+9999ME1315069REMSYN112AAXX  01064 17205 32670 62703 11030 21067 38330 48506 54000 84550 333 21080 3/110 47072 55000 84640 86360 92417;EQDQ01  00002PRCP99
0196172050999992000020109004+38480+042300FM-12+166599999V0202001N001510300019N0200001N1+00001-00761999999ADDGA1041+012009069GA2061+030009039GF106991041051012501051001MA1999999083201MD1810101+9999ME1314969REMSYN088AAXX  01094 17205 42670 62003 10000 21076 38320 48496 58010 84550 333 84640 86360 92417;
0226172050999992000020112004+38480+042300FM-12+166599999V0202501N002610300019N0200001N1-00141-00831999999ADDAA199000091GA1041+012009069GA2061+030009039GF106991041051012501051001MA1999999083101MD1810101+9999ME1314869REMSYN088AAXX  01124 17205 32670 62505 11014 21083 38310 48486 58010 84550 333 84640 86360 92417;EQDQ01  00002PRCP99
0196172050999992000020115004+38480+042300FM-12+166599999V0202501N002110300019N0200001N1-00361-00771999999ADDGA1041+012009069GA2061+030009039GF106991041051012501051001MA1999999083101MD1410001+9999ME1314879REMSYN088AAXX  01154 17205 42670 62504 11036 21077 38310 48487 54000 84550 333 84640 86360 92417;
0245172050999992000020118004+38480+042300FM-12+166599999V0202501N003110300019N0200001N1-00361-00651999999ADDAA199000091GA1041+012009069GA2061+030009039GF106991041051012501051001KA1120M+00101MA1999999083201MD1110101+9999ME1314969REMSYN094AAXX  01184 17205 32670 62506 11036 21065 38320 48496 51010 84550 333 10010 84640 86360 92427;EQDQ01  00002PRCP99
0174172050999992000020121004+38480+042300FM-12+166599999V0202501N003112200019N0200001N1-00401-01111999999ADDGA1041+012009069GF104991041051012501001001MA1999999083201MD1410001+9999ME1314969REMSYN082AAXX  01214 17205 42670 42506 11040 21111 38320 48496 54000 84500 333 84640 92427;
0192172050999992000020200004+38480+042300FM-12+166599999V0202501N003112200019N0200001N1-00501-01261999999ADDAA199000091GA1001+999999999GF100991001001999999001001MA1999999083201MD1410001+9999ME1314989REMSYN070AAXX  02004 17205 32970 02506 11050 21126 38320 48498 54000 333 10213;EQDQ01  00002PRCP99
0162172050999992000020203004+38480+042300FM-12+166599999V0202501N001512200019N0200001N1-00561-01281999999ADDGA1001+999999999GF100991001001999999001001MA1999999083101MD1810101+9999ME1314889REMSYN070AAXX  02034 17205 42970 02503 11056 21128 38310 48488 58010 333 10224;
0264172050999992000020206004+38480+042300FM-12+166599999V0209999C000012200019N0300001N1-00901-01431999999ADDAA199000091AJ100689199999999GA1001+999999999GF100991001001999999001001IA1239IA2999-01209KA1120N-01001MA1999999083201MD1210101+9999ME1315009REMSYN094AAXX  02064 17205 32980 00000 11090 21143 38320 48500 52010 333 21100 3/112 47068 55003 92418;EQDQ01  00002PRCP99
0196172050999992000020209004+38480+042300FM-12+166599999V0203401N001510300019N0300001N1-00301-01161999999ADDGA1041+012009069GA2061+030009039GF106991041051012501051001MA1999999083201MD1410001+9999ME1314969REMSYN088AAXX  02094 17205 42680 63403 11030 21116 38320 48496 54000 84550 333 84640 86360 92418;
0204172050999992000020212004+38480+042300FM-12+166599999V0202901N001512200019N0300001N1-00401-01081999999ADDAA199000091GA1031+012009069GF103991031051012501001001MA1999999083241MD1110041+9999ME1314969REMSYN082AAXX  02124 17205 32680 32903 11040 21108 38324 48496 51004 83500 333 83640 92418;EQDQ01  00002PRCP99
0162172050999992000020215004+38480+042300FM-12+166599999V0202501N001512200019N0300001N1-00561-01451999999ADDGA1001+999999999GF100991001001999999001001MA1999999083301MD1210061+9999ME1315079REMSYN070AAXX  02154 17205 42980 02503 11056 21145 38330 48507 52006 333 10258;
0211172050999992000020218004+38480+042300FM-12+166599999V0209999C000012200019N0300001N1-00781-01561999999ADDAA199000091GA1001+999999999GF100991001001999999001001KA1120M-00201MA1999999083401MD1210101+9999ME1315189REMSYN076AAXX  02184 17205 32980 00000 11078 21156 38340 48518 52010 333 11020 92418;EQDQ01  00002PRCP99
0162172050999992000020221004+38480+042300FM-12+166599999V0209999C000012200019N0300001N1-01001-01561999999ADDGA1001+999999999GF100991001001999999001001MA1999999083401MD1410001+9999ME1315199REMSYN070AAXX  02214 17205 42980 00000 11100 21156 38340 48519 54000 333 10270;
0192172050999992000020300004+38480+042300FM-12+166599999V0209999C000012200019N0300001N1-01101-01471999999ADDAA199000091GA1001+999999999GF100991001001999999001001MA1999999083501MD1110101+9999ME1315299REMSYN070AAXX  03004 17205 32980 00000 11110 21147 38350 48529 51010 333 10299;EQDQ01  00002PRCP99
0196172050999992000020303004+38480+042300FM-12+166599999V0209999C000010300019N0300001N1-00901-01301999999ADDGA1041+012009069GA2061+030009039GF106991041051012501051001MA1999999083501MD1410001+9999ME1315289REMSYN088AAXX  03034 17205 42680 60000 11090 21130 38350 48528 54000 84550 333 84640 86360 92418;
0298172050999992000020306004+38480+042300FM-12+166599999V0209999C000010300019N0300001N1-00681-01031999999ADDAA199000091AJ100659199999999GA1041+012009069GA2061+030009039GF106991041051012501051001IA1239IA2999-01409KA1120N-01261MA1999999083601MD1210101+9999ME1315369REMSYN112AAXX  03064 17205 32680 60000 11068 21103 38360 48536 52010 84550 333 21126 3/114 47065 55014 84640 86360 92417;EQDQ01  00002PRCP99
0196172050999992000020309004+38480+042300FM-12+166599999V0200201N001510300019N0200001N1-00201-00751999999ADDGA1041+012009069GA2061+030009039GF106991041051012501051001MA1999999083701MD1110101+9999ME1315439REMSYN088AAXX  03094 17205 42670 60203 11020 21075 38370 48543 51010 84550 333 84640 86360 92417;
0204172050999992000020312004+38480+042300FM-12+166599999V0200901N001512200019N0300001N1-00101-00561999999ADDAA199000091GA1031+012009069GF103991031051012501001001MA1999999083501MD1610201+9999ME1315249REMSYN082AAXX  03124 17205 32680 30903 11010 21056 38350 48524 56020 83500 333 83640 92418;EQDQ01  00002PRCP99
0162172050999992000020315004+38480+042300FM-12+166599999V0209999C000012200019N0300001N1-00341-00931999999ADDGA1001+999999999GF100991001001999999001001MA1999999083561MD1410001+9999ME1315349REMSYN070AAXX  03154 17205 42980 00000 11034 21093 38356 48534 54000 333 10290;
0211172050999992000020318004+38480+042300FM-12+166599999V0202501N001512200019N0250001N1-00961-01301999999ADDAA199000091GA1001+999999999GF100991001001999999001001KA1120M+00101MA1999999083601MD1110041+9999ME1315379REMSYN076AAXX  03184 17205 32975 02503 11096 21130 38360 48537 51004 333 10010 92417;EQDQ01  00002PRCP99
0162172050999992000020321004+38480+042300FM-12+166599999V0209999C000012200019N0250001N1-00941-01201999999ADDGA1001+999999999GF100991001001999999001001MA1999999083601MD1410001+9999ME1315379REMSYN070AAXX  03214 17205 42975 00000 11094 21120 38360 48537 54000 333 10327;
0204172050999992000020400004+38480+042300FM-12+166599999V0209999C000012200019N0200001N1-01081-01291999999ADDAA199000091GA1031+012009069GF103991031051012501001001MA1999999083501MD1610101+9999ME1315289REMSYN082AAXX  04004 17205 32670 30000 11108 21129 38350 48528 56010 83500 333 83640 92417;EQDQ01  00002PRCP99
0174172050999992000020403004+38480+042300FM-12+166599999V0209999C000012200019N0200001N1-01101-01281999999ADDGA1031+012009069GF103991031051012501001001MA1999999083501MD1410001+9999ME1315299REMSYN082AAXX  04034 17205 42670 30000 11110 21128 38350 48529 54000 83500 333 83640 92417;
0264172050999992000020406004+38480+042300FM-12+166599999V0209999C000012200019N0150001N1-00941-01091999999ADDAA199000091AJ100629199999999GA1001+999999999GF100991001001999999001001IA1239IA2999-01409KA1120N-01201MA1999999083501MD1410001+9999ME1315279REMSYN094AAXX  04064 17205 32965 00000 11094 21109 38350 48527 54000 333 21120 3/114 47062 55012 92417;EQDQ01  00002PRCP99
0162172050999992000020409004+38480+042300FM-12+166599999V0209999C000012200019N0200001N1-00201-00621999999ADDGA1001+999999999GF100991001001999999001001MA1999999083501MD1410001+9999ME1315279REMSYN070AAXX  04094 17205 42970 00000 11020 21062 38350 48527 54000 333 10282;
0192172050999992000020412004+38480+042300FM-12+166599999V0209999C000012200019N0300001N1-00181-00821999999ADDAA199000091GA1001+999999999GF100991001001999999001001MA1999999083401MD1810101+9999ME1315159REMSYN070AAXX  04124 17205 32980 00000 11018 21082 38340 48515 58010 333 10270;EQDQ01  00002PRCP99
0162172050999992000020415004+38480+042300FM-12+166599999V0209999C000012200019N0300001N1-00201-01071999999ADDGA1001+999999999GF100991001001999999001001MA1999999083401MD1410001+9999ME1315149REMSYN070AAXX  04154 17205 42980 00000 11020 21107 38340 48514 54000 333 10278;
0211172050999992000020418004+38480+042300FM-12+166599999V0209999C000012200019N0250001N1-00341-01251999999ADDAA199000091GA1001+999999999GF100991001001999999001001KA1120M-00041MA1999999083401MD1410001+9999ME1315159REMSYN076AAXX  04184 17205 32975 00000 11034 21125 38340 48515 54000 333 11004 92417;EQDQ01  00002PRCP99
0162172050999992000020421004+38480+042300FM-12+166599999V0202001N001512200019N0250001N1-00301-01281999999ADDGA1001+999999999GF100991001001999999001001MA1999999083401MD1410001+9999ME1315159REMSYN070AAXX  04214 17205 42975 02003 11030 21128 38340 48515 54000 333 10246;
0192172050999992000020500004+38480+042300FM-12+166599999V0202001N003112200019N0250001N1-00421-01261999999ADDAA199000091GA1001+999999999GF100991001001999999001001MA1999999083301MD1610101+9999ME1315069REMSYN070AAXX  05004 17205 32975 02006 11042 21126 38330 48506 56010 333 10234;EQDQ01  00002PRCP99
0174172050999992000020503004+38480+042300FM-12+166599999V0202001N002112200019N0250001N1-00501-01151999999ADDGA1041+012009069GF104991041051012501001001MA1999999083201MD1710101+9999ME1314989REMSYN082AAXX  05034 17205 42675 42004 11050 21115 38320 48498 57010 84500 333 84640 92427;
0298172050999992000020506004+38480+042300FM-12+166599999V0202001N001510120019N0250001N1-00261-01021999999ADDAA199000091AJ100609199999999GA1051+012009069GA2081+030009049GF108991051051012501021999IA1239IA2999-00809KA1120N-00661MA1999999083201MD1410001+9999ME1314959REMSYN112AAXX  05064 17205 32675 82003 11026 21102 38320 48495 54000 8552/ 333 21066 3/108 47060 55011 85640 88460 92417;EQDQ01  00002PRCP99
0196172050999992000020509004+38480+042300FM-12+166599999V0202701N001510120019N0250001N1-00041-00891999999ADDGA1051+012009069GA2081+030009049GF108991051051012501021999MA1999999083201MD1410001+9999ME1314949REMSYN088AAXX  05094 17205 42675 82703 11004 21089 38320 48494 54000 8552/ 333 85640 88460 92417;
0226172050999992000020512004+38480+042300FM-12+166599999V0202701N002110120019N0250001N1-00081-00861999999ADDAA199000091GA1051+012009069GA2081+030009049GF108991051051012501021999MA1999999083001MD1710201+9999ME1314769REMSYN088AAXX  05124 17205 32675 82704 11008 21086 38300 48476 57020 8552/ 333 85640 88460 92417;EQDQ01  00002PRCP99
0196172050999992000020515004+38480+042300FM-12+166599999V0202701N001510120019N0250001N1-00201-00901999999ADDGA1051+012009069GA2081+030009049GF108991051051012501021999MA1999999083001MD1410001+9999ME1314769REMSYN088AAXX  05154 17205 42675 82703 11020 21090 38300 48476 54000 8552/ 333 85640 88460 92417;
0245172050999992000020518004+38480+042300FM-12+166599999V0202701N002110105019N0200001N1-00261-00591999999ADDAA199000091GA1051+010509069GA2081+027009049GF108991051051012501021999KA1120M+00041MA1999999083001MD1410001+9999ME1314769REMSYN094AAXX  05184 17205 32670 82704 11026 21059 38300 48476 54000 8552/ 333 10004 85635 88459 92417;EQDQ01  00002PRCP99
0224172050999992000020521004+38480+042300FM-12+166599999V0202701N002110090019N0030001N1-00261-00491999999ADDAY121031AY221031GA1051+009009069GA2081+024009049GF108991051051008001021999MA1999999082841MD1710161+9999ME1314579MW1701REMSYN094AAXX  05214 17205 41530 82704 11026 21049 38284 48457 57016 77022 8552/ 333 85630 88458 92414;
0270172050999992000020600004+38480+042300FM-12+166599999V0202901N002110090019N0030001N1-00261-00491999999ADDAA106000591AL10600191AY171061AY221061GA1051+009009069GA2081+024009049GF108991051051008001021999MA1999999082641MD1710201+9999ME1314379MW1701UA1M999999019REMSYN106AAXX  06004 17205 11530 82904 11026 21049 38264 48437 57020 69961 77072 8552/ 333 85630 88458 92414 93101;
0224172050999992000020603004+38480+042300FM-12+166599999V0202501N002110090019N0080001N1-00261-00491999999ADDAY171031AY271031GA1051+009009069GA2081+024009049GF108991051051008001021999MA1999999082561MD1710081+9999ME1314379MW1701REMSYN094AAXX  06034 17205 41558 82504 11026 21049 38256 48437 57008 77077 8552/ 333 85630 88458 92415;
0348172050999992000020606004+38480+042300FM-12+166599999V0202701N001510075019N0030001N1-00241-00441999999ADDAA112001091AJ100609199999999AL10600391AY171061AY271061GA1051+007509069GA2081+021009049GF108991051051004501021999IA1239IA2999-00409KA1120N-00341MA1999999082401MD1710161+9999ME1314189MW1701UA1M999999019REMSYN136AAXX  06064 17205 11430 82703 11024 21044 38240 48418 57016 60012 77077 8552/ 333 21034 3/104 47060 55000 70014 85625 88457 92413 93103;
0224172050999992000020609004+38480+042300FM-12+166599999V0202701N001510075019N0030001N1-00241-00471999999ADDAY171031AY271031GA1051+007509069GA2081+021009049GF108991051051004501021999MA1999999082301MD1610101+9999ME1314089MW1701REMSYN094AAXX  06094 17205 41430 82703 11024 21047 38230 48408 56010 77077 8552/ 333 85625 88457 92413;
0270172050999992000020612004+38480+042300FM-12+166599999V0202701N001510060019N0030001N1-00321-00561999999ADDAA106007191AL10602091AY171061AY271061GA1051+006009069GA2081+021009049GF108991051051008001021999MA1999999082201MD1710101+9999ME1314019MW1701UA1M999999019REMSYN106AAXX  06124 17205 11530 82703 11032 21056 38220 48401 57010 60071 77077 8552/ 333 85620 88457 92414 93120;
0224172050999992000020615004+38480+042300FM-12+166599999V0202501N004110060019N0030001N1-00661-00941999999ADDAY171031AY271031GA1051+006009069GA2081+021009049GF108991051051008001021999MA1999999082301MD1110101+9999ME1314129MW1701REMSYN094AAXX  06154 17205 41530 82508 11066 21094 38230 48412 51010 77077 8552/ 333 85620 88457 92414;
0289172050999992000020618004+38480+042300FM-12+166599999V0202701N001510270019N0050001N1-00601-00871999999ADDAA112007991AL10600591AY171061AY271061GA1041+007509069GA2061+027009039GF106991041051008001051001KA1120M-00161MA1999999082501MD1210201+9999ME1314319MW1221UA1M999999019REMSYN112AAXX  06184 17205 11550 62703 11060 21087 38250 48431 52020 60082 72277 84550 333 11016 84625 86359 92416 93105;
0196172050999992000020621004+38480+042300FM-12+166599999V0202001N001510270019N0200001N1-00581-01341999999ADDGA1041+009009069GA2061+027009039GF106991041051012501051001MA1999999082501MD1410001+9999ME1314319REMSYN088AAXX  06214 17205 42670 62003 11058 21134 38250 48431 54000 84550 333 84630 86359 92416;
0207172050999992000020700004+38480+042300FM-12+166599999V0202001N003110270019N0100001N1-00641-01381999999ADDAA199000021GA1041+009009069GA2061+027009039GF106991041051012501051001MA1999999082501MD1410001+9999ME1314319REMSYN088AAXX  07004 17205 32660 62006 11064 21138 38250 48431 54000 84550 333 84630 86359 92416;
0174172050999992000020703004+38480+042300FM-12+166599999V0203401N004112200019N0200001N1-00801-01551999999ADDGA1031+012009069GF103991031051012501001001MA1999999082601MD1610101+9999ME1314439REMSYN082AAXX  07034 17205 42670 33408 11080 21155 38260 48443 56010 83500 333 83640 92423;
0263172050999992000020706004+38480+042300FM-12+166599999V0203401N003112200019N0200001N1-00741-01501999999ADDAA124008991AJ100659199999999GA1041+012009069GF104991041051012501001001IA1239IA2999-01409KA1120N-00941MA1999999082801MD1210201+9999ME1314619REMSYN112AAXX  07064 17205 32670 43406 11074 21150 38280 48461 52020 84500 333 21094 3/114 47065 55000 70090 84640 92427;
0174172050999992000020709004+38480+042300FM-12+166599999V0203401N005112200019N0300001N1-00521-01601999999ADDGA1031+012009069GF103991031051012501001001MA1999999083001MD1310201+9999ME1314789REMSYN082AAXX  07094 17205 42680 33410 11052 21160 38300 48478 53020 83500 333 83640 92438;
0204172050999992000020712004+38480+042300FM-12+166599999V0203401N002612200019N0300001N1-00521-01601999999ADDAA199000091GA1021+012009069GF102991021051012501001001MA1999999082901MD1810101+9999ME1314699REMSYN082AAXX  07124 17205 32680 23405 11052 21160 38290 48469 58010 82500 333 82640 92438;EQDQ01  00002PRCP99
0174172050999992000020715004+38480+042300FM-12+166599999V0203401N003112200019N0300001N1-00701-01861999999ADDGA1021+012009069GF102991021051012501001001MA1999999083101MD1210201+9999ME1314909REMSYN082AAXX  07154 17205 42680 23406 11070 21186 38310 48490 52020 82500 333 82640 92438;
0211172050999992000020718004+38480+042300FM-12+166599999V0203401N002612200019N0300001N1-00761-01801999999ADDAA199000091GA1001+999999999GF100991001001999999001001KA1120M-00401MA1999999083201MD1210101+9999ME1314999REMSYN076AAXX  07184 17205 32980 03405 11076 21180 38320 48499 52010 333 11040 92428;EQDQ01  00002PRCP99
0162172050999992000020721004+38480+042300FM-12+166599999V0200201N001512200019N0300001N1-00701-01631999999ADDGA1001+999999999GF100991001001999999001001MA1999999083301MD1210101+9999ME1315089REMSYN070AAXX  07214 17205 42980 00203 11070 21163 38330 48508 52010 333 10258;
0192172050999992000020800004+38480+042300FM-12+166599999V0209999C000012200019N0300001N1-00921-01741999999ADDAA199000091GA1001+999999999GF100991001001999999001001MA1999999083401MD1210101+9999ME1315199REMSYN070AAXX  08004 17205 32980 00000 11092 21174 38340 48519 52010 333 10278;EQDQ01  00002PRCP99
0162172050999992000020803004+38480+042300FM-12+166599999V0209999C000012200019N0300001N1-00921-01321999999ADDGA1001+999999999GF100991001001999999001001MA1999999083401MD1410001+9999ME1315199REMSYN070AAXX  08034 17205 42980 00000 11092 21132 38340 48519 54000 333 10286;
0298172050999992000020806004+38480+042300FM-12+166599999V0200201N001510300019N0300001N1-00701-01201999999ADDAA199000091AJ100629199999999GA1041+012009069GA2061+030009039GF106991041051012501051001IA1239IA2999-01309KA1120N-01101MA1999999083501MD1210101+9999ME1315279REMSYN112AAXX  08064 17205 32680 60203 11070 21120 38350 48527 52010 84550 333 21110 3/113 47062 55029 84640 86360 92418;EQDQ01  00002PRCP99
0196172050999992000020809004+38480+042300FM-12+166599999V0200701N001510300019N0300001N1-00301-00871999999ADDGA1041+012009069GA2061+030009039GF106991041051012501051001MA1999999083501MD1410001+9999ME1315259REMSYN088AAXX  08094 17205 42680 60703 11030 21087 38350 48525 54000 84550 333 84640 86360 92418;
0204172050999992000020812004+38480+042300FM-12+166599999V0200701N001512200019N0300001N1-00261-00951999999ADDAA199000091GA1031+012009069GF103991031051012501001001MA1999999083401MD1810101+9999ME1315149REMSYN082AAXX  08124 17205 32680 30703 11026 21095 38340 48514 58010 83500 333 83640 92418;EQDQ01  00002PRCP99
0174172050999992000020815004+38480+042300FM-12+166599999V0200201N001512200019N0300001N1-00501-00941999999ADDGA1021+012009069GF102991021051012501001001MA1999999083401MD1410001+9999ME1315169REMSYN082AAXX  08154 17205 42680 20203 11050 21094 38340 48516 54000 82500 333 82640 92418;
0211172050999992000020818004+38480+042300FM-12+166599999V0209999C000012200019N0300001N1-00801-01181999999ADDAA199000091GA1001+999999999GF100991001001999999001001KA1120M-00201MA1999999083401MD1410001+9999ME1315189REMSYN076AAXX  08184 17205 32980 00000 11080 21118 38340 48518 54000 333 11020 92418;EQDQ01  00002PRCP99
0162172050999992000020821004+38480+042300FM-12+166599999V0209999C000012200019N0300001N1-01001-01231999999ADDGA1001+999999999GF100991001001999999001001MA1999999083401MD1410001+9999ME1315199REMSYN070AAXX  08214 17205 42980 00000 11100 21123 38340 48519 54000 333 10270;
0192172050999992000020900004+38480+042300FM-12+166599999V0209999C000012200019N0300001N1-01001-01231999999ADDAA199000091GA1001+999999999GF100991001001999999001001MA1999999083401MD1410001+9999ME1315199REMSYN070AAXX  09004 17205 32980 00000 11100 21123 38340 48519 54000 333 10270;EQDQ01  00002PRCP99
0196172050999992000020903004+38480+042300FM-12+166599999V0209999C000010300019N0300001N1-00701-00841999999ADDGA1041+012009069GA2061+030009039GF106991041051012501051001MA1999999083401MD1410001+9999ME1315189REMSYN088AAXX  09034 17205 42680 60000 11070 21084 38340 48518 54000 84550 333 84640 86360 92418;
0298172050999992000020906004+38480+042300FM-12+166599999V0209999C000010300019N0200001N1-00441-00751999999ADDAA199000091AJ100609199999999GA1041+012009069GA2061+030009039GF106991041051012501051001IA1239IA2999-01309KA1120N-01161MA1999999083441MD1110041+9999ME1315159REMSYN112AAXX  09064 17205 32670 60000 11044 21075 38344 48515 51004 84550 333 21116 3/113 47060 55017 84640 86360 92418;EQDQ01  00002PRCP99
0196172050999992000020909004+38480+042300FM-12+166599999V0200401N001010300019N0200001N1-00141-00671999999ADDGA1041+012009069GA2061+030009039GF106991041051012501051001MA1999999083501MD1210061+9999ME1315249REMSYN088AAXX  09094 17205 42670 60402 11014 21067 38350 48524 52006 84550 333 84640 86360 92418;
0192172050999992000020912004+38480+042300FM-12+166599999V0200401N001012200019N0300001N1-00101-00761999999ADDAA199000091GA1001+999999999GF100991001001999999001001MA1999999083501MD1410001+9999ME1315249REMSYN070AAXX  09124 17205 32980 00402 11010 21076 38350 48524 54000 333 10282;EQDQ01  00002PRCP99
0162172050999992000020915004+38480+042300FM-12+166599999V0209999C000012200019N0300001N1-00301-00821999999ADDGA1001+999999999GF100991001001999999001001MA1999999083541MD1110041+9999ME1315259REMSYN070AAXX  09154 17205 42980 00000 11030 21082 38354 48525 51004 333 10279;
0211172050999992000020918004+38480+042300FM-12+166599999V0209999C000012200019N0300001N1-00701-00931999999ADDAA199000091GA1001+999999999GF100991001001999999001001KA1120M+00001MA1999999083601MD1210061+9999ME1315369REMSYN076AAXX  09184 17205 32980 00000 11070 21093 38360 48536 52006 333 10000 92418;EQDQ01  00002PRCP99
0162172050999992000020921004+38480+042300FM-12+166599999V0209999C000012200019N0250001N1-00801-01011999999ADDGA1001+999999999GF100991001001999999001001MA1999999083741MD1110141+9999ME1315469REMSYN070AAXX  09214 17205 42975 00000 11080 21101 38374 48546 51014 333 10304;
0192172050999992000021000004+38480+042300FM-12+166599999V0209999C000012200019N0250001N1-00901+99999999999ADDAA199000091GA1001+999999999GF100991001001999999001001MA1999999083801MD1210061+9999ME1315569REMSYN070AAXX  10004 17205 32975 00000 11090 20102 38380 48556 52006 333 10311;EQDQ01  00002PRCP99
0174172050999992000021003004+38480+042300FM-12+166599999V0209999C000012200019N0200001N1-00701-00781999999ADDGA1041+012009089GF104991041051012501001001MA1999999083801MD1410001+9999ME1315559REMSYN082AAXX  10034 17205 42670 40000 11070 21078 38380 48555 54000 84500 333 84840 92418;
0298172050999992000021006004+38480+042300FM-12+166599999V0209999C000010120019N0200001N1-00421-00541999999ADDAA199000091AJ100579199999999GA1051+012009069GA2081+027009049GF108991051051012501021999IA1239IA2999-01209KA1120N-01001MA1999999083901MD1110101+9999ME1315639REMSYN112AAXX  10064 17205 32670 80000 11042 21054 38390 48563 51010 8552/ 333 21100 3/112 47057 55011 85640 88459 92417;EQDQ01  00002PRCP99
0196172050999992000021009004+38480+042300FM-12+166599999V0209999C000010300019N0300001N1+00041-00561999999ADDGA1041+012009069GA2061+030009039GF106991041051012501051001MA1999999083901MD1410001+9999ME1315639REMSYN088AAXX  10094 17205 42680 60000 10004 21056 38390 48563 54000 84550 333 84640 86360 92418;
0192172050999992000021012004+38480+042300FM-12+166599999V0200201N001012200019N0300001N1+00041-00561999999ADDAA199000091GA1001+999999999GF100991001001999999001001MA1999999083901MD1410001+9999ME1315619REMSYN070AAXX  10124 17205 32980 00202 10004 21056 38390 48561 54000 333 10315;EQDQ01  00002PRCP99
0174172050999992000021015004+38480+042300FM-12+166599999V0209999C000012200019N0300001N1-00201-00691999999ADDGA1041+012009069GF104991041051012501001001MA1999999083901MD1410001+9999ME1315629REMSYN082AAXX  10154 17205 42680 40000 11020 21069 38390 48562 54000 84500 333 84640 92418;
0211172050999992000021018004+38480+042300FM-12+166599999V0209999C000012200019N0300001N1-00501-00761999999ADDAA199000091GA1001+999999999GF100991001001999999001001KA1120M+00121MA1999999084001MD1110101+9999ME1315729REMSYN076AAXX  10184 17205 32980 00000 11050 21076 38400 48572 51010 333 10012 92418;EQDQ01  00002PRCP99
0162172050999992000021021004+38480+042300FM-12+166599999V0209999C000012200019N0300001N1-00721-00891999999ADDGA1001+999999999GF100991001001999999001001MA1999999084001MD1410001+9999ME1315739REMSYN070AAXX  10214 17205 42980 00000 11072 21089 38400 48573 54000 333 10328;
0192172050999992000021100004+38480+042300FM-12+166599999V0209999C000012200019N0300001N1-00821-00941999999ADDAA199000091GA1001+999999999GF100991001001999999001001MA1999999083901MD1810101+9999ME1315679REMSYN070AAXX  11004 17205 32980 00000 11082 21094 38390 48567 58010 333 10315;EQDQ01  00002PRCP99
0196172050999992000021103004+38480+042300FM-12+166599999V0209999C000010120019N0200001N1-00601-00701999999ADDGA1051+012009069GA2081+027009049GF108991051051012501021999MA1999999083901MD1410001+9999ME1315639REMSYN088AAXX  11034 17205 42670 80000 11060 21070 38390 48563 54000 8552/ 333 85640 88459 92417;
0298172050999992000021106004+38480+042300FM-12+166599999V0209999C000010120019N0200001N1-00421-00521999999ADDAA199000091AJ100559199999999GA1051+012009069GA2081+027009049GF108991051051012501021999IA1239IA2999-01209KA1120N-00941MA1999999083801MD1810101+9999ME1315639REMSYN112AAXX  11064 17205 32670 80000 11042 21052 38380 48563 58010 8552/ 333 21094 3/112 47055 55010 85640 88459 92417;EQDQ01  00002PRCP99
0196172050999992000021109004+38480+042300FM-12+166599999V0209999C000010300019N0300001N1+00041-00561999999ADDGA1041+012009069GA2061+030009039GF106991041051012501051001MA1999999083801MD1410001+9999ME1315519REMSYN088AAXX  11094 17205 42680 60000 10004 21056 38380 48551 54000 84550 333 84640 86360 92418;
0226172050999992000021112004+38480+042300FM-12+166599999V0200401N001010300019N0300001N1+00101-00511999999ADDAA199000091GA1041+012009069GA2061+030009039GF106991041051012501051001MA1999999083701MD1610101+9999ME1315419REMSYN088AAXX  11124 17205 32680 60402 10010 21051 38370 48541 56010 84550 333 84640 86360 92418;EQDQ01  00002PRCP99
0196172050999992000021115004+38480+042300FM-12+166599999V0209999C000010300019N0300001N1+00001-00461999999ADDGA1041+012009069GA2061+030009039GF106991041051012501051001MA1999999083701MD1410001+9999ME1315429REMSYN088AAXX  11154 17205 42680 60000 10000 21046 38370 48542 54000 84550 333 84640 86360 92418;
0211172050999992000021118004+38480+042300FM-12+166599999V0209999C000012200019N0300001N1-00401-00701999999ADDAA199000091GA1001+999999999GF100991001001999999001001KA1120M+00141MA1999999083801MD1210101+9999ME1315539REMSYN076AAXX  11184 17205 32980 00000 11040 21070 38380 48553 52010 333 10014 92418;EQDQ01  00002PRCP99
0162172050999992000021121004+38480+042300FM-12+166599999V0209999C000012200019N0300001N1-00601-00701999999ADDGA1001+999999999GF100991001001999999001001MA1999999083801MD1410001+9999ME1315549REMSYN070AAXX  11214 17205 42980 00000 11060 21070 38380 48554 54000 333 10295;
0226172050999992000021200004+38480+042300FM-12+166599999V0209999C000010300019N0300001N1-00421-00521999999ADDAA199000091GA1041+012009069GA2061+030009039GF106991041051012501051001MA1999999083801MD1410001+9999ME1315539REMSYN088AAXX  12004 17205 32680 60000 11042 21052 38380 48553 54000 84550 333 84640 86360 92418;EQDQ01  00002PRCP99
0196172050999992000021203004+38480+042300FM-12+166599999V0209999C000010300019N0300001N1-00301-00441999999ADDGA1041+012009069GA2061+030009039GF106991041051012501051001MA1999999083701MD1610101+9999ME1315449REMSYN088AAXX  12034 17205 42680 60000 11030 21044 38370 48544 56010 84550 333 84640 86360 92418;
0298172050999992000021206004+38480+042300FM-12+166599999V0209999C000010300019N0300001N1-00401-00551999999ADDAA199000091AJ100509199999999GA1041+012009069GA2061+030009039GF106991041051012501051001IA1239IA2999-01009KA1120N-00761MA1999999083741MD1110041+9999ME1315449REMSYN112AAXX  12064 17205 32680 60000 11040 21055 38374 48544 51004 84550 333 21076 3/110 47050 55000 84640 86360 92418;EQDQ01  00002PRCP99
0196172050999992000021209004+38480+042300FM-12+166599999V0200401N001010300019N0300001N1+00081-00531999999ADDGA1041+012009069GA2061+030009039GF106991041051012501051001MA1999999083701MD1710041+9999ME1315429REMSYN088AAXX  12094 17205 42680 60402 10008 21053 38370 48542 57004 84550 333 84640 86360 92418;
0204172050999992000021212004+38480+042300FM-12+166599999V0200401N001512200019N0300001N1+00041-00581999999ADDAA199000091GA1021+012009069GF102991021051012501001001MA1999999083501MD1610201+9999ME1315239REMSYN082AAXX  12124 17205 32680 20403 10004 21058 38350 48523 56020 82500 333 82640 92418;EQDQ01  00002PRCP99
0193172050999992000021215004+38480+042300FM-12+166599999V0209999C000012200019N0300001N1-00101-00611999999ADDGA1041+012009069GF199999021051012501001001MA1999999083461MD1610041+9999ME1315249REMSYN082AAXX  12154 17205 42680 20000 11010 21061 38346 48524 56004 82500 333 84640 92418;EQDQ01+000022SCOTCV
0211172050999992000021218004+38480+042300FM-12+166599999V0209999C000012200019N0300001N1-00421-00721999999ADDAA199000091GA1001+999999999GF100991001001999999001001KA1120M+00201MA1999999083401MD1810061+9999ME1315159REMSYN076AAXX  12184 17205 32980 00000 11042 21072 38340 48515 58006 333 10020 92418;EQDQ01  00002PRCP99
0226172050999992000021300004+38480+042300FM-12+166599999V0209999C000010300019N0200001N1-00421-00561999999ADDAA199000091GA1041+012009069GA2061+030009039GF106991041051012501051001MA1999999083201MD1610101+9999ME1314969REMSYN088AAXX  13004 17205 32670 60000 11042 21056 38320 48496 56010 84550 333 84640 86360 92417;EQDQ01  00002PRCP99
0224172050999992000021303004+38480+042300FM-12+166599999V0209999C000010090019N0080001N1-00261-00391999999ADDAY121031AY221031GA1051+009009069GA2081+024009049GF108991051051008001021999MA1999999083101MD1610101+9999ME1314859MW1701REMSYN094AAXX  13034 17205 41558 80000 11026 21039 38310 48485 56010 77022 8552/ 333 85630 88458 92416;
0370172050999992000021306004+38480+042300FM-12+166599999V0200201N001510090019N0030001N1-00201-00291999999ADDAA112004191AJ100509199999999AL10600591AY171061AY221061GA1021+003009079GA2051+009009069GA3081+024009049GF108991061071004501021999IA1239IA2999-00909KA1120N-00701MA1999999083001MD1610101+9999ME1314769MW1701UA1M999999019REMSYN142AAXX  13064 17205 11430 80203 11020 21029 38300 48476 56010 60042 77072 8672/ 333 21070 3/109 47050 55014 70036 82710 85630 88458 92415 93105;
0224172050999992000021309004+38480+042300FM-12+166599999V0200401N001010090019N0080001N1-00101-00421999999ADDAY171031AY271031GA1051+009009069GA2081+024009049GF108991051051008001021999MA1999999082901MD1810101+9999ME1314679MW1701REMSYN094AAXX  13094 17205 41558 80402 11010 21042 38290 48467 58010 77077 8552/ 333 85630 88458 92416;
