0152173500999992000010100004+37000+035420FM-12+0066LTAG V0200101N001012200019N0100001N1+00701+00441101671ADDAA106000091GA1001+999999999GF100991001001999999001001MD1610041+9999REMSYN054AAXX  01004 17350 32960 00102 10070 20044 40167 56004;EQDQ01  00002PRCP06
0078173500999992000010100504+37000+035420FM-15+0066LTAG V0200301N00101220001CN0099001N1+00701+00401999999ADDMA1101591999999MW1001REMMET045LTAG 010050Z 03002KT CAVOK 07/04 Q1016 NOSIG;
0078173500999992000010101504+37000+035420FM-15+0066LTAG V0200101N00101220001CN0099001N1+00801+00401999999ADDMA1101591999999MW1001REMMET045LTAG 010150Z 01002KT CAVOK 08/04 Q1016 NOSIG;
0078173500999992000010102504+37000+035420FM-15+0066LTAG V0203301N00151220001CN0099001N1+00701+00301999999ADDMA1101591999999MW1001REMMET045LTAG 010250Z 33003KT CAVOK 07/03 Q1016 NOSIG;
0122173500999992000010103004+37000+035420FM-12+0066LTAG V0203301N001512200019N0100001N1+00721+00331101611ADDGA1001+999999999GF100991001001999999001001MD1710061+9999REMSYN054AAXX  01034 17350 42960 03303 10072 20033 40161 57006;
0078173500999992000010103504+37000+035420FM-15+0066LTAG V0203101N00261220001CN0099001N1+00701+00301999999ADDMA1101591999999MW1001REMMET045LTAG 010350Z 31005KT CAVOK 07/03 Q1016 NOSIG;
0078173500999992000010104504+37000+035420FM-15+0066LTAG V0200401N00261220001CN0099001N1+00601+00201999999ADDMA1101591999999MW1001REMMET045LTAG 010450Z 04005KT CAVOK 06/02 Q1016 NOSIG;
0078173500999992000010105504+37000+035420FM-15+0066LTAG V0203501N00311220001CN0099001N1+00701+00301999999ADDMA1101591999999MW1001REMMET045LTAG 010550Z 35006KT CAVOK 07/03 Q1016 NOSIG;
0199173500999992000010106004+37000+035420FM-12+0066LTAG V0203501N003110600019N0100001N1+00701+00261101701ADDAA106000091GA1051+060009019GF105991001001999999001011IA1019KA1120N+00601MD1110091+9999REMSYN082AAXX  01064 17350 32960 53506 10070 20026 40170 51009 80001 333 20060 30/// 85070;EQDQ01  00002PRCP06
0078173500999992000010106504+37000+035420FM-15+0066LTAG V0200201N00211220001CN0099001N1+01101+00701999999ADDMA1101691999999MW1001REMMET045LTAG 010650Z 02004KT CAVOK 11/07 Q1017 NOSIG;
0078173500999992000010107504+37000+035420FM-15+0066LTAG V0200601N00151220001CN0099001N1+01501+00601999999ADDMA1101691999999MW1001REMMET045LTAG 010750Z 06003KT CAVOK 15/06 Q1017 NOSIG;
0078173500999992000010108504+37000+035420FM-15+0066LTAG V0202901N00211220001CN0099001N1+01701+00601999999ADDMA1101691999999MW1001REMMET045LTAG 010850Z 29004KT CAVOK 17/06 Q1017 NOSIG;
0138173500999992000010109004+37000+035420FM-12+0066LTAG V0202901N002110600019N0100001N1+01721+00631101771ADDGA1051+060009019GF105991001001999999001011MD1110081+9999REMSYN070AAXX  01094 17350 42960 52904 10172 20063 40177 51008 80001 333 85070;
0078173500999992000010109504+37000+035420FM-15+0066LTAG V0201701N00211220001CN0099001N1+01901+00801999999ADDMA1101591999999MW1001REMMET045LTAG 010950Z 17004KT CAVOK 19/08 Q1016 NOSIG;
0078173500999992000010110504+37000+035420FM-15+0066LTAG V0201901N00151220001CN0099001N1+02001+00801999999ADDMA1101591999999MW1001REMMET045LTAG 011050Z 19003KT CAVOK 20/08 Q1016 NOSIG;
0078173500999992000010111504+37000+035420FM-15+0066LTAG V0201701N00151220001CN0099001N1+01901+00901999999ADDMA1101491999999MW1001REMMET045LTAG 011150Z 17003KT CAVOK 19/09 Q1015 NOSIG;
0168173500999992000010112004+37000+035420FM-12+0066LTAG V0201701N001510600019N0100001N1+01921+00891101591ADDAA106000091GA1051+060009019GF105991001001999999001011MD1710181+9999REMSYN070AAXX  01124 17350 32960 51703 10192 20089 40159 57018 80001 333 85070;EQDQ01  00002PRCP06
0078173500999992000010112504+37000+035420FM-15+0066LTAG V0202101N00101220001CN0099001N1+01901+01101999999ADDMA1101591999999MW1001REMMET045LTAG 011250Z 21002KT CAVOK 19/11 Q1016 NOSIG;
0078173500999992000010113504+37000+035420FM-15+0066LTAG V0202401N00151220001CN0099001N1+01701+01001999999ADDMA1101591999999MW1001REMMET045LTAG 011350Z 24003KT CAVOK 17/10 Q1016 NOSIG;
0078173500999992000010114504+37000+035420FM-15+0066LTAG V0200501N00151220001CN0099001N1+01501+01001999999ADDMA1101591999999MW1001REMMET045LTAG 011450Z 05003KT CAVOK 15/10 Q1016 NOSIG;
0138173500999992000010115004+37000+035420FM-12+0066LTAG V0200501N001510600019N0100001N1+01501+00961101611ADDGA1061+060009019GF106991001001999999001011MD1110021+9999REMSYN070AAXX  01154 17350 42960 60503 10150 20096 40161 51002 80001 333 86070;
0078173500999992000010115504+37000+035420FM-15+0066LTAG V0200501N00261220001CN0099001N1+01301+00901999999ADDMA1101591999999MW1001REMMET045LTAG 011550Z 05005KT CAVOK 13/09 Q1016 NOSIG;
0078173500999992000010116504+37000+035420FM-15+0066LTAG V0200501N00261220001CN0099001N1+01201+01001999999ADDMA1101591999999MW1001REMMET045LTAG 011650Z 05005KT CAVOK 12/10 Q1016 NOSIG;
0078173500999992000010117504+37000+035420FM-15+0066LTAG V0200501N00211220001CN0099001N1+01001+00801999999ADDMA1101591999999MW1001REMMET045LTAG 011750Z 05004KT CAVOK 10/08 Q1016 NOSIG;
0187173500999992000010118004+37000+035420FM-12+0066LTAG V0200501N002112200019N0100001N1+01041+00811101661ADDAA106000091GA1041+060009019GF104991001001999999001011KA1120M+01981MD1110041+9999REMSYN076AAXX  01184 17350 32960 40504 10104 20081 40166 51004 80001 333 10198 84070;EQDQ01  00002PRCP06
0078173500999992000010118504+37000+035420FM-15+0066LTAG V0200201N00151220001CN0099001N1+01001+00701999999ADDMA1101591999999MW1001REMMET045LTAG 011850Z 02003KT CAVOK 10/07 Q1016 NOSIG;
0078173500999992000010119504+37000+035420FM-15+0066LTAG V0200501N00211220001CN0099001N1+00901+00801999999ADDMA1101691999999MW1001REMMET045LTAG 011950Z 05004KT CAVOK 09/08 Q1017 NOSIG;
0078173500999992000010120504+37000+035420FM-15+0066LTAG V0200201N00151220001CN0099001N1+00901+00601999999ADDMA1101591999999MW1001REMMET045LTAG 012050Z 02003KT CAVOK 09/06 Q1016 NOSIG;
0122173500999992000010121004+37000+035420FM-12+0066LTAG V0200201N001512200019N0100001N1+00881+00641101671ADDGA1001+999999999GF100991001001999999001001MD1410001+9999REMSYN054AAXX  01214 17350 42960 00203 10088 20064 40167 54000;
0078173500999992000010122504+37000+035420FM-15+0066LTAG V0200201N00151220001CN0099001N1+00801+00601999999ADDMA1101591999999MW1001REMMET045LTAG 012250Z 02003KT CAVOK 08/06 Q1016 NOSIG;
0078173500999992000010123504+37000+035420FM-15+0066LTAG V0200501N00151220001CN0099001N1+00701+00501999999ADDMA1101591999999MW1001REMMET045LTAG 012350Z 05003KT CAVOK 07/05 Q1016 NOSIG;
0152173500999992000010200004+37000+035420FM-12+0066LTAG V0200501N001512200019N0100001N1+00741+00541101651ADDAA106000091GA1001+999999999GF100991001001999999001001MD1810021+9999REMSYN054AAXX  02004 17350 32960 00503 10074 20054 40165 58002;EQDQ01  00002PRCP06
0097173500999992000010200504+37000+035420FM-15+0066LTAG V0200301N00211220001CN0099001N1+00801+00601999999ADDMA1101591999999MW1001REMMET045LTAG 020050Z 03004KT CAVOK 08/06 Q1016 NOSIG;EQDQ01+000000PRSWM2
0097173500999992000010202504+37000+035420FM-15+0066LTAG V0200301N00211220001CN0099001N1+00801+00601999999ADDMA1101591999999MW1001REMMET045LTAG 020250Z 03004KT CAVOK 08/06 Q1016 NOSIG;EQDQ01+000000PRSWM2
0122173500999992000010203004+37000+035420FM-12+0066LTAG V0200301N002112200019N0100001N1+00761+00561101631ADDGA1001+999999999GF100991001001999999001001MD1510031+9999REMSYN054AAXX  02034 17350 42960 00304 10076 20056 40163 55003;
0097173500999992000010203504+37000+035420FM-15+0066LTAG V0200301N00151220001CN0099001N1+00801+00601999999ADDMA1101591999999MW1001REMMET045LTAG 020350Z 03003KT CAVOK 08/06 Q1016 NOSIG;EQDQ01+000000PRSWM2
0097173500999992000010204504+37000+035420FM-15+0066LTAG V0200201N00101220001CN0099001N1+00801+00601999999ADDMA1101591999999MW1001REMMET045LTAG 020450Z 02002KT CAVOK 08/06 Q1016 NOSIG;EQDQ01+000000PRSWM2
0097173500999992000010205504+37000+035420FM-15+0066LTAG V0200501N00101220001CN0099001N1+00901+00601999999ADDMA1101591999999MW1001REMMET045LTAG 020550Z 05002KT CAVOK 09/06 Q1016 NOSIG;EQDQ01+000000PRSWM2
0215173500999992000010206004+37000+035420FM-12+0066LTAG V0200501N001010600019N0100001N1+00901+00581101691ADDAA106000091GA1061+060009099GF106991999001999999001091IA1019KA1120N+00681MD1310061+9999REMSYN082AAXX  02064 17350 32960 60502 10090 20058 40169 53006 80009 333 20068 30/// 86170;EQDQ01+000002SCOTLCQ02  00002PRCP06
0097173500999992000010206504+37000+035420FM-15+0066LTAG V0203201N00211220001CN0099001N1+01101+00601999999ADDMA1101591999999MW1001REMMET045LTAG 020650Z 32004KT CAVOK 11/06 Q1016 NOSIG;EQDQ01+000000PRSWM2
0097173500999992000010207504+37000+035420FM-15+0066LTAG V0200101N00101220001CN0099001N1+01201+00601999999ADDMA1101591999999MW1001REMMET045LTAG 020750Z 01002KT CAVOK 12/06 Q1016 NOSIG;EQDQ01+000000PRSWM2
0097173500999992000010208504+37000+035420FM-15+0066LTAG V0200901N00151220001CN0099001N1+01501+00701999999ADDMA1101591999999MW1001REMMET045LTAG 020850Z 09003KT CAVOK 15/07 Q1016 NOSIG;EQDQ01+000000PRSWM2
0144173500999992000010209004+37000+035420FM-12+0066LTAG V0200901N001519999999N0100001N1+01541+00721101671ADDGA1031+030009039GF106991031001999999031061MD1810011+9999REMSYN076AAXX  02094 17350 42960 60903 10154 20072 40167 58001 83036 333 83360 86270;
0097173500999992000010209504+37000+035420FM-15+0066LTAG V0200901N00151220001CN0099001N1+01601+00701999999ADDMA1101491999999MW1001REMMET045LTAG 020950Z 09003KT CAVOK 16/07 Q1015 NOSIG;EQDQ01+000000PRSWM2
0097173500999992000010210504+37000+035420FM-15+0066LTAG V0201301N00101220001CN0099001N1+01701+00801999999ADDMA1101491999999MW1001REMMET045LTAG 021050Z 13002KT CAVOK 17/08 Q1015 NOSIG;EQDQ01+000000PRSWM2
0097173500999992000010211504+37000+035420FM-15+0066LTAG V0200201N00211220001CN0099001N1+01701+00701999999ADDMA1101391999999MW1001REMMET045LTAG 021150Z 02004KT CAVOK 17/07 Q1014 NOSIG;EQDQ01+000000PRSWM2
0174173500999992000010212004+37000+035420FM-12+0066LTAG V0200201N002119999999N0100001N1+01661+00691101471ADDAA106000091GA1031+030009039GF106991031001999999031061MD1710201+9999REMSYN076AAXX  02124 17350 32960 60204 10166 20069 40147 57020 83036 333 83360 86270;EQDQ01  00002PRCP06
0097173500999992000010212504+37000+035420FM-15+0066LTAG V0200401N00261220001CN0099001N1+01601+00701999999ADDMA1101391999999MW1001REMMET045LTAG 021250Z 04005KT CAVOK 16/07 Q1014 NOSIG;EQDQ01+000000PRSWM2
0097173500999992000010213504+37000+035420FM-15+0066LTAG V0200601N00151220001CN0099001N1+01501+00801999999ADDMA1101391999999MW1001REMMET045LTAG 021350Z 06003KT CAVOK 15/08 Q1014 NOSIG;EQDQ01+000000PRSWM2
0097173500999992000010214504+37000+035420FM-15+0066LTAG V0203201N00101220001CN0099001N1+01401+00901999999ADDMA1101291999999MW1001REMMET045LTAG 021450Z 32002KT CAVOK 14/09 Q1013 NOSIG;EQDQ01+000000PRSWM2
0144173500999992000010215004+37000+035420FM-12+0066LTAG V0203201N001019999999N0100001N1+01361+00891101391ADDGA1031+030009039GF106991031001999999031061MD1610081+9999REMSYN076AAXX  02154 17350 42960 63202 10136 20089 40139 56008 83036 333 83360 86270;
0166173500999992000010216504+37000+035420FM-15+0066LTAG V0203101N001010300019N0112651N1+01101+01001999999ADDGD12991+0105099GD23991+0300099GF107991999999999999999999MA1101291999999MW1001REMMET058LTAG 021650Z 31002KT 9999 FEW035 BKN100 11/10 Q1013 NOSIG;EQDQ01+000000PRSWM2
0166173500999992000010217504+37000+035420FM-15+0066LTAG V0200601N002610300019N0112651N1+01201+00801999999ADDGD12991+0105099GD23991+0300099GF107991999999999999999999MA1101291999999MW1001REMMET058LTAG 021750Z 06005KT 9999 SCT035 BKN100 12/08 Q1013 NOSIG;EQDQ01+000000PRSWM2
0193173500999992000010218004+37000+035420FM-12+0066LTAG V0200601N00261036001CN0100001N1+01201+00821101391ADDAA106000091GA1031+010509089GF106991031021012501051001KA1120M+01701MD1410001+9999REMSYN082AAXX  02184 17350 32660 60605 10120 20082 40139 54000 83250 333 10170 83835 86360;EQDQ01  00002PRCP06
0188173500999992000010218504+37000+035420FM-15+0066LTAG V0202701N004110300019N0112651N1+01201+00801999999ADDGD12991+0105099GD23991+0300099GF107991999999999999999999MA1101391999999MW1801REMMET064LTAG 021850Z 27008KT 9999 -SHRA SCT035 BKN100 12/08 Q1014 NOSIG;EQDQ01+000003PRSWM1Q02    003PRSWM1
0171173500999992000010219504+37000+035420FM-15+0066LTAG V0202001N001010300019N0112651N1+01301+00801999999ADDGD12991+0105099GD23991+0300099GF107991999999999999999999MA1101291999999MW1001REMMET063LTAG 021950Z 20002KT 9999 SCT035 BKN100 13/08 Q1013 RERA NOSIG;EQDQ01+000000PRSWM2
0188173500999992000010220504+37000+035420FM-15+0066LTAG V0200701N004610300019N0112651N1+01301+00801999999ADDGD12991+0105099GD23991+0300099GF107991999999999999999999MA1101291999999MW1801REMMET064LTAG 022050Z 07009KT 9999 -SHRA SCT035 BKN100 13/08 Q1013 NOSIG;EQDQ01+000003PRSWM1Q02    003PRSWM1
0172173500999992000010221004+37000+035420FM-12+0066LTAG V0200701N00461036001CN0100001N1+01251+00821101361ADDAY181031AY221031GA1041+010509089GF107991041021012501071001MD1810021+9999MW1801REMSYN082AAXX  02214 17350 41660 70709 10125 20082 40136 58002 78082 84270 333 84835 87360;
0188173500999992000010221504+37000+035420FM-15+0066LTAG V0203401N003110300019N0112651N1+01401+00801999999ADDGD12991+0105099GD23991+0300099GF107991999999999999999999MA1101291999999MW1801REMMET064LTAG 022150Z 34006KT 9999 -SHRA SCT035 BKN100 14/08 Q1013 NOSIG;EQDQ01+000003PRSWM1Q02    003PRSWM1
0188173500999992000010222504+37000+035420FM-15+0066LTAG V0203101N002610300019N0112651N1+01201+01001999999ADDGD12991+0105099GD23991+0300099GF107991999999999999999999MA1101291999999MW1801REMMET064LTAG 022250Z 31005KT 9999 -SHRA SCT035 BKN100 12/10 Q1013 NOSIG;EQDQ01+000003PRSWM1Q02    003PRSWM1
0188173500999992000010223504+37000+035420FM-15+0066LTAG V0200201N003610300019N0112651N1+01101+01001999999ADDGD12991+0105099GD23991+0300099GF107991999999999999999999MA1101291999999MW1801REMMET064LTAG 022350Z 02007KT 9999 -SHRA SCT035 BKN100 11/10 Q1013 NOSIG;EQDQ01+000003PRSWM1Q02    003PRSWM1
0189173500999992000010300004+37000+035420FM-12+0066LTAG V0200201N00361036001CN0100001N1+01101+00951101371ADDAA106001091AY181061AY221061GA1041+010509089GF107991041021012501071001MD1110011+9999MW1801REMSYN088AAXX  03004 17350 11660 70207 10110 20095 40137 51001 60011 78082 84270 333 84835 87460;
0188173500999992000010300504+37000+035420FM-15+0066LTAG V0200401N003610300019N0112651N1+01101+01001999999ADDGD12991+0105099GD23991+0300099GF107991999999999999999999MA1101291999999MW1801REMMET064LTAG 030050Z 04007KT 9999 -SHRA SCT035 BKN100 11/10 Q1013 NOSIG;EQDQ01+000003PRSWM1Q02    003PRSWM1
0188173500999992000010301504+37000+035420FM-15+0066LTAG V0200401N003610300019N0112651N1+01101+01001999999ADDGD12991+0105099GD23991+0300099GF107991999999999999999999MA1101191999999MW1801REMMET064LTAG 030150Z 04007KT 9999 -SHRA SCT035 BKN100 11/10 Q1012 NOSIG;EQDQ01+000003PRSWM1Q02    003PRSWM1
0188173500999992000010302504+37000+035420FM-15+0066LTAG V0200501N004110300019N0112651N1+01101+01001999999ADDGD12991+0105099GD23991+0300099GF107991999999999999999999MA1101191999999MW1801REMMET064LTAG 030250Z 05008KT 9999 -SHRA SCT035 BKN100 11/10 Q1012 NOSIG;EQDQ01+000003PRSWM1Q02    003PRSWM1
0172173500999992000010303004+37000+035420FM-12+0066LTAG V0200501N00411036001CN0100001N1+01061+00981101211ADDAY181031AY281031GA1041+010509089GF107991041021012501071001MD1710171+9999MW1801REMSYN082AAXX  03034 17350 41660 70508 10106 20098 40121 57017 78088 84270 333 84835 87460;
0188173500999992000010303504+37000+035420FM-15+0066LTAG V0200301N002610300019N0112651N1+01001+00901999999ADDGD12991+0105099GD23991+0300099GF107991999999999999999999MA1101081999999MW1801REMMET064LTAG 030350Z 03005KT 9999 -SHRA SCT035 BKN100 10/09 Q1011 NOSIG;EQDQ01+000003PRSWM1Q02    003PRSWM1
0188173500999992000010304504+37000+035420FM-15+0066LTAG V0200401N003110300019N0112651N1+01101+01001999999ADDGD12991+0105099GD23991+0300099GF107991999999999999999999MA1101081999999MW1801REMMET064LTAG 030450Z 04006KT 9999 -SHRA SCT035 BKN100 11/10 Q1011 NOSIG;EQDQ01+000003PRSWM1Q02    003PRSWM1
0188173500999992000010305504+37000+035420FM-15+0066LTAG V0200301N003110300019N0112651N1+01101+00901999999ADDGD12991+0105099GD23991+0300099GF107991999999999999999999MA1101081999999MW1801REMMET064LTAG 030550Z 03006KT 9999 -SHRA SCT035 BKN100 11/09 Q1011 NOSIG;EQDQ01+000003PRSWM1Q02    003PRSWM1
0226173500999992000010306004+37000+035420FM-12+0066LTAG V0200301N00311036001CN0100001N1+01081+00931101141ADDAA112007191AY181061AY281061GA1041+010509089GF107991041021012501071001IA1099KA1120N+00981MD1710071+9999MW1801REMSYN106AAXX  03064 17350 11660 70306 10108 20093 40114 57007 60072 78088 84270 333 20098 31/// 70067 84835 87460;
0171173500999992000010306504+37000+035420FM-15+0066LTAG V0200401N004110300019N0112651N1+01101+00901999999ADDGD12991+0120099GD23991+0300099GF107991999999999999999999MA1101081999999MW1001REMMET063LTAG 030650Z 04008KT 9999 SCT040 BKN100 11/09 Q1011 RERA NOSIG;EQDQ01+000000PRSWM2
0166173500999992000010307504+37000+035420FM-15+0066LTAG V0200301N004110300019N0112651N1+01201+00901999999ADDGD12991+0120099GD23991+0300099GF107991999999999999999999MA1101081999999MW1001REMMET058LTAG 030750Z 03008KT 9999 FEW040 BKN100 12/09 Q1011 NOSIG;EQDQ01+000000PRSWM2
0166173500999992000010308504+37000+035420FM-15+0066LTAG V0200601N002610300019N0112651N1+01201+00901999999ADDGD12991+0120099GD23991+0300099GF107991999999999999999999MA1101021999999MW1001REMMET058LTAG 030850Z 06005KT 9999 FEW040 BKN100 12/09 Q1010 NOSIG;EQDQ01+000000PRSWM2
0172173500999992000010309004+37000+035420FM-12+0066LTAG V0200601N00261036001CN0100001N1+01201+00901101091ADDAY181031AY221031GA1021+012009069GF107991021051012501071001MD1810051+9999MW1021REMSYN082AAXX  03094 17350 41660 70605 10120 20090 40109 58005 70282 82570 333 82640 87460;
0186173500999992000010309504+37000+035420FM-15+0066LTAG V0200601N001510300019N0112651N1+01201+00901999999ADDGD12991+0120099GD23991+0300099GF107991999999999999999999MA1101021999999MW1611REMMET062LTAG 030950Z 06003KT 9999 -RA SCT040 BKN100 12/09 Q1010 NOSIG;EQDQ01+000003PRSWM1Q02    003PRSWM1
0186173500999992000010310504+37000+035420FM-15+0066LTAG V0201001N002610300019N0112651N1+01301+00901999999ADDGD12991+0120099GD23991+0300099GF107991999999999999999999MA1100911999999MW1611REMMET062LTAG 031050Z 10005KT 9999 -RA SCT040 BKN100 13/09 Q1009 NOSIG;EQDQ01+000003PRSWM1Q02    003PRSWM1
0186173500999992000010311504+37000+035420FM-15+0066LTAG V0200801N002610300019N0112651N1+01301+00901999999ADDGD12991+0120099GD23991+0300099GF107991999999999999999999MA1100811999999MW1611REMMET062LTAG 031150Z 08005KT 9999 -RA SCT040 BKN100 13/09 Q1008 NOSIG;EQDQ01+000003PRSWM1Q02    003PRSWM1
0189173500999992000010312004+37000+035420FM-12+0066LTAG V0200801N00261036001CN0100001N1+01301+00941100901ADDAA106000191AY181061AY221061GA1031+012009069GF107991031051012501071001MD1710191+9999MW1601REMSYN088AAXX  03124 17350 11660 70805 10130 20094 40090 57019 69921 76082 83570 333 83640 87460;
0186173500999992000010312504+37000+035420FM-15+0066LTAG V0200601N003610300019N0112651N1+01301+01001999999ADDGD12991+0120099GD23991+0300099GF107991999999999999999999MA1100811999999MW1611REMMET062LTAG 031250Z 06007KT 9999 -RA SCT040 BKN100 13/10 Q1008 NOSIG;EQDQ01+000003PRSWM1Q02    003PRSWM1
0166173500999992000010313504+37000+035420FM-15+0066LTAG V0200201N004110300019N0112651N1+01201+01001999999ADDGD12991+0120099GD23991+0300099GF107991999999999999999999MA1100711999999MW1001REMMET058LTAG 031350Z 02008KT 9999 SCT040 BKN100 12/10 Q1007 NOSIG;EQDQ01+000000PRSWM2
0186173500999992000010314504+37000+035420FM-15+0066LTAG V0200201N002110300019N0112651N1+01101+01001999999ADDGD12991+0120099GD23991+0300099GF107991999999999999999999MA1100711999999MW1611REMMET062LTAG 031450Z 02004KT 9999 -RA SCT040 BKN100 11/10 Q1007 NOSIG;EQDQ01+000003PRSWM1Q02    003PRSWM1
0172173500999992000010315004+37000+035420FM-12+0066LTAG V0200201N00211036001CN0100001N1+01121+00971100761ADDAY161031AY221031GA1031+012009069GF107991031051012501071001MD1510141+9999MW1601REMSYN082AAXX  03154 17350 41660 70204 10112 20097 40076 55014 76062 83570 333 83640 87460;
0186173500999992000010315504+37000+035420FM-15+0066LTAG V0200201N002110300019N0112651N1+01201+01101999999ADDGD12991+0105099GD24991+0300099GF108991999999999999999999MA1100711999999MW1611REMMET062LTAG 031550Z 02004KT 9999 -RA SCT035 OVC100 12/11 Q1007 NOSIG;EQDQ01+000003PRSWM1Q02    003PRSWM1
0163173500999992000010316504+37000+035420FM-15+0066LTAG V0203301N002112200019N0112651N1+01101+00901999999ADDGD12991+0105099GF104991999999999999999999MA1100711999999MW1631REMMET054LTAG 031650Z 33004KT 9999 RA SCT035 11/09 Q1007 NOSIG;EQDQ01+000003PRSWM1Q02    003PRSWM1
0191173500999992000010317504+37000+035420FM-15+0066LTAG V0203401N002110270019N0112651N1+01101+00901999999ADDGD12991+0090099GD24991+0270099GF108991999999999999999999MA1100711999999MW1611REMMET067LTAG 031750Z 34004KT 9999 -RA SCT030 OVC090 11/09 Q1007 RERA NOSIG;EQDQ01+000003PRSWM1Q02    003PRSWM1
0208173500999992000010318004+37000+035420FM-12+0066LTAG V0203401N00211036001CN0100001N1+01061+00991100781ADDAA112005191AY161061AY221061GA1031+009009069GF108991031051008001021999KA1120M+01321MD1310021+9999MW1601REMSYN094AAXX  03184 17350 11560 83404 10106 20099 40078 53002 60052 76062 8352/ 333 10132 83630 88459;
0186173500999992000010318504+37000+035420FM-15+0066LTAG V0203501N002610270019N0112651N1+01101+01001999999ADDGD12991+0090099GD24991+0270099GF108991999999999999999999MA1100711999999MW1611REMMET062LTAG 031850Z 35005KT 9999 -RA SCT030 OVC090 11/10 Q1007 NOSIG;EQDQ01+000003PRSWM1Q02    003PRSWM1
0171173500999992000010319504+37000+035420FM-15+0066LTAG V0203301N004610270019N0112651N1+01101+01001999999ADDGD12991+0090099GD24991+0270099GF108991999999999999999999MA1100711999999MW1001REMMET063LTAG 031950Z 33009KT 9999 SCT030 OVC090 11/10 Q1007 RERA NOSIG;EQDQ01+000000PRSWM2
0172173500999992000010320004+37000+035420FM-12+0066LTAG V0203201N00151036001CN0100001N1+01061+00931100831ADDAY161999AY221999GA1041+009009069GF108991041051008001021999MD1310051+9999MW1021REMSYN082AAXX  03204 17350 41560 83203 10106 20093 40083 53005 70262 8452/ 333 84630 88459;
0166173500999992000010320504+37000+035420FM-15+0066LTAG V0203201N001510270019N0112651N1+01101+00901999999ADDGD12991+0090099GD24991+0270099GF108991999999999999999999MA1100811999999MW1001REMMET058LTAG 032050Z 32003KT 9999 SCT030 OVC090 11/09 Q1008 NOSIG;EQDQ01+000000PRSWM2
0172173500999992000010321004+37000+035420FM-12+0066LTAG V0203201N00151036001CN0100001N1+01061+00931100831ADDAY161031AY221031GA1041+009009069GF108991041051008001021999MD1310051+9999MW1021REMSYN082AAXX  03214 17350 41560 83203 10106 20093 40083 53005 70262 8452/ 333 84630 88459;
0166173500999992000010321504+37000+035420FM-15+0066LTAG V0203101N001510270019N0112651N1+01001+00901999999ADDGD12991+0090099GD24991+0270099GF108991999999999999999999MA1100811999999MW1001REMMET058LTAG 032150Z 31003KT 9999 SCT030 OVC090 10/09 Q1008 NOSIG;EQDQ01+000000PRSWM2
0166173500999992000010322504+37000+035420FM-15+0066LTAG V0203501N001010270019N0112651N1+01001+00901999999ADDGD12991+0090099GD23991+0270099GF107991999999999999999999MA1100811999999MW1001REMMET058LTAG 032250Z 35002KT 9999 SCT030 BKN090 10/09 Q1008 NOSIG;EQDQ01+000000PRSWM2
0166173500999992000010323504+37000+035420FM-15+0066LTAG V0200401N001010270019N0112651N1+01001+00901999999ADDGD12991+0090099GD23991+0270099GF107991999999999999999999MA1100811999999MW1001REMMET058LTAG 032350Z 04002KT 9999 SCT030 BKN090 10/09 Q1008 NOSIG;EQDQ01+000000PRSWM2
0189173500999992000010400004+37000+035420FM-12+0066LTAG V0200401N00101036001CN0100001N1+01001+00881100841ADDAA106000591AY161061AY221061GA1041+009009069GF108991041051008001021999MD1010011+9999MW1021REMSYN088AAXX  04004 17350 11560 80402 10100 20088 40084 50001 69941 70262 8452/ 333 84630 88459;
0166173500999992000010400504+37000+035420FM-15+0066LTAG V0201301N001010270019N0112651N1+00901+00801999999ADDGD12991+0090099GD23991+0270099GF107991999999999999999999MA1100811999999MW1001REMMET058LTAG 040050Z 13002KT 9999 SCT030 BKN090 09/08 Q1008 NOSIG;EQDQ01+000000PRSWM2
0166173500999992000010401504+37000+035420FM-15+0066LTAG V0200401N001010270019N0112651N1+00901+00801999999ADDGD12991+0090099GD23991+0270099GF107991999999999999999999MA1100811999999MW1001REMMET058LTAG 040150Z 04002KT 9999 SCT030 BKN090 09/08 Q1008 NOSIG;EQDQ01+000000PRSWM2
0166173500999992000010402504+37000+035420FM-15+0066LTAG V0200201N001010300019N0112651N1+00801+00701999999ADDGD12991+0105099GD23991+0300099GF107991999999999999999999MA1100711999999MW1001REMMET058LTAG 040250Z 02002KT 9999 SCT035 BKN100 08/07 Q1007 NOSIG;EQDQ01+000000PRSWM2
0144173500999992000010403004+37000+035420FM-12+0066LTAG V0200201N00101036001CN0100001N1+00841+00721100791ADDGA1031+010509069GF107991031051012501071001MD1710051+9999REMSYN076AAXX  04034 17350 42660 70202 10084 20072 40079 57005 83570 333 83635 87460;
0166173500999992000010404504+37000+035420FM-15+0066LTAG V0200401N003110300019N0112651N1+00801+00701999999ADDGD12991+0105099GD23991+0300099GF107991999999999999999999MA1100711999999MW1001REMMET058LTAG 040450Z 04006KT 9999 SCT035 BKN100 08/07 Q1007 NOSIG;EQDQ01+000000PRSWM2
0166173500999992000010405504+37000+035420FM-15+0066LTAG V0203401N003110300019N0112651N1+00801+00601999999ADDGD12991+0105099GD23991+0300099GF107991999999999999999999MA1100711999999MW1001REMMET058LTAG 040550Z 34006KT 9999 SCT035 BKN100 08/06 Q1007 NOSIG;EQDQ01+000000PRSWM2
0210173500999992000010406004+37000+035420FM-12+0066LTAG V0203401N00311036001CN0100001N1+00821+00621100761ADDAA112000591GA1041+010509089GF106991041021012501071001IA1119IA2999+00009KA1120N+00771MD1810031+9999REMSYN100AAXX  04064 17350 12660 63406 10082 20062 40076 58003 69942 84270 333 20077 32000 70051 84835 86360;
0166173500999992000010406504+37000+035420FM-15+0066LTAG V0203201N004110300019N0112651N1+01001+00601999999ADDGD12991+0105099GD23991+0300099GF107991999999999999999999MA1100711999999MW1001REMMET058LTAG 040650Z 32008KT 9999 SCT035 BKN100 10/06 Q1007 NOSIG;EQDQ01+000000PRSWM2
0166173500999992000010407504+37000+035420FM-15+0066LTAG V0200101N004110300019N0112651N1+01201+00601999999ADDGD12991+0105099GD23991+0300099GF107991999999999999999999MA1100811999999MW1001REMMET058LTAG 040750Z 01008KT 9999 SCT035 BKN100 12/06 Q1008 NOSIG;EQDQ01+000000PRSWM2
0166173500999992000010408504+37000+035420FM-15+0066LTAG V0200601N004110300019N0112651N1+01201+00701999999ADDGD12991+0105099GD23991+0300099GF107991999999999999999999MA1100711999999MW1001REMMET058LTAG 040850Z 06008KT 9999 SCT035 BKN100 12/07 Q1007 NOSIG;EQDQ01+000000PRSWM2
0144173500999992000010409004+37000+035420FM-12+0066LTAG V0200601N00411036001CN0100001N1+01241+00701100791ADDGA1041+010509089GF106991041021012501071001MD1010031+9999REMSYN076AAXX  04094 17350 42660 60608 10124 20070 40079 50003 84270 333 84835 86360;
0166173500999992000010409504+37000+035420FM-15+0066LTAG V0200601N002110300019N0112651N1+01301+00701999999ADDGD12991+0105099GD23991+0300099GF107991999999999999999999MA1100711999999MW1001REMMET058LTAG 040950Z 06004KT 9999 SCT035 BKN100 13/07 Q1007 NOSIG;EQDQ01+000000PRSWM2
0228173500999992000010410504+37000+035420FM-15+0066LTAG V0200601N003110270019N0112651N1+01401+00601999999ADDGA1999+007509099GD12991+0075099GD22991+0090099GD33991+0270099GF107991999999999999999999MA1100511999999MW1801REMMET073LTAG 041050Z 06006KT 9999 -SHRA FEW025CB SCT030 BKN090 14/06 Q1005 NOSIG;EQDQ01+000003PRSWM1Q02    003PRSWM1
0228173500999992000010411504+37000+035420FM-15+0066LTAG V0200801N003110270019N0112651N1+01001+00801999999ADDGA1999+007509099GD12991+0075099GD22991+0090099GD33991+0270099GF107991999999999999999999MA1100411999999MW1801REMMET073LTAG 041150Z 08006KT 9999 -SHRA FEW025CB SCT030 BKN090 10/08 Q1004 NOSIG;EQDQ01+000003PRSWM1Q02    003PRSWM1
0211173500999992000010412004+37000+035420FM-12+0066LTAG V0200801N003110090019N0100001N1+01001+00811100491ADDAA106000191AY121061AY221061GA1021+007509099GA2041+009009089GF107991061091008001071001MD1710301+9999MW1801REMSYN094AAXX  04124 17350 11560 70806 10100 20081 40049 57030 69921 78022 86970 333 82925 84830 86359;
0235173500999992000010412504+37000+035420FM-15+0066LTAG V0201201N004610270019N0080001N1+01001+00701999999ADDGA1999+007509099GD12991+0075099GD22991+0090099GD33991+0270099GF107991999999999999999999MA1100511999999MW1801REMMET080LTAG 041250Z 12009KT 8000 -SHRA FEW025CB SCT030 BKN090 10/07 Q1005 RETSRA NOSIG;EQDQ01+000003PRSWM1Q02    003PRSWM1
0228173500999992000010413504+37000+035420FM-15+0066LTAG V0201401N003110270019N0080001N1+01001+00801999999ADDGA1999+007509099GD12991+0075099GD22991+0090099GD33991+0270099GF107991999999999999999999MA1100411999999MW1801REMMET073LTAG 041350Z 14006KT 8000 -SHRA FEW025CB SCT030 BKN090 10/08 Q1004 NOSIG;EQDQ01+000003PRSWM1Q02    003PRSWM1
0166173500999992000010414504+37000+035420FM-15+0066LTAG V0202801N004610270019N0112651N1+00901+00501999999ADDGD12991+0090099GD23991+0270099GF107991999999999999999999MA1100511999999MW1001REMMET058LTAG 041450Z 28009KT 9999 SCT030 BKN090 09/05 Q1005 NOSIG;EQDQ01+000000PRSWM2
0172173500999992000010415004+37000+035420FM-12+0066LTAG V0202801N00461036001CN0100001N1+00921+00471100531ADDAY191031AY281031GA1041+009009089GF106991041021008001051001MD1310041+9999MW1011REMSYN082AAXX  04154 17350 41560 62809 10092 20047 40053 53004 70198 84250 333 84830 86359;
0188173500999992000010415504+37000+035420FM-15+0066LTAG V0202201N002110270019N0112651N1+00801+00501999999ADDGD12991+0105099GD23991+0270099GF107991999999999999999999MA1100511999999MW1801REMMET064LTAG 041550Z 22004KT 9999 -SHRA SCT035 BKN090 08/05 Q1005 NOSIG;EQDQ01+000003PRSWM1Q02    003PRSWM1
0171173500999992000010416504+37000+035420FM-15+0066LTAG V0200601N003110270019N0112651N1+00801+00601999999ADDGD12991+0090099GD23991+0270099GF107991999999999999999999MA1100611999999MW1001REMMET063LTAG 041650Z 06006KT 9999 SCT030 BKN090 08/06 Q1006 RERA NOSIG;EQDQ01+000000PRSWM2
0166173500999992000010417504+37000+035420FM-15+0066LTAG V0200701N002610300019N0112651N1+00801+00501999999ADDGD12991+0105099GD23991+0300099GF107991999999999999999999MA1100611999999MW1001REMMET058LTAG 041750Z 07005KT 9999 SCT035 BKN100 08/05 Q1006 NOSIG;EQDQ01+000000PRSWM2
0208173500999992000010418004+37000+035420FM-12+0066LTAG V0200701N00261036001CN0100001N1+00801+00511100611ADDAA112004191AY191061AY281061GA1041+010509089GF106991041021012501051001KA1120M+01401MD1010081+9999MW1011REMSYN094AAXX  04184 17350 11660 60705 10080 20051 40061 50008 60042 70198 84250 333 10140 84835 86360;
0225173500999992000010418504+37000+035420FM-15+0066LTAG V0200501N004110300019N0112651N1+00801+00601999999ADDGA1999+007509099GD12991+0075099GD22991+0105099GD33991+0300099GF107991999999999999999999MA1100611999999MW1171REMMET070LTAG 041850Z 05008KT 9999 TS FEW025CB SCT035 BKN100 08/06 Q1006 NOSIG;EQDQ01+000003PRSWM1Q02    003PRSWM1
0171173500999992000010419504+37000+035420FM-15+0066LTAG V0200201N003110300019N0112651N1+00701+00601999999ADDGD12991+0150099GD23991+0300099GF107991999999999999999999MA1100611999999MW1001REMMET063LTAG 041950Z 02006KT 9999 SCT050 BKN100 07/06 Q1006 RETS NOSIG;EQDQ01+000000PRSWM2
0166173500999992000010420504+37000+035420FM-15+0066LTAG V0200201N004110300019N0112651N1+00701+00601999999ADDGD12991+0150099GD23991+0300099GF107991999999999999999999MA1100611999999MW1001REMMET058LTAG 042050Z 02008KT 9999 SCT050 BKN100 07/06 Q1006 NOSIG;EQDQ01+000000PRSWM2
0144173500999992000010421004+37000+035420FM-12+0066LTAG V0200201N00411036001CN0100001N1+00701+00571100621ADDGA1031+015009089GF105991031021017501051001MD1010011+9999REMSYN076AAXX  04214 17350 42760 50208 10070 20057 40062 50001 83250 333 83850 85360;
0166173500999992000010421504+37000+035420FM-15+0066LTAG V0200701N006210300019N0112651N1+00701+00601999999ADDGD12991+0150099GD23991+0300099GF107991999999999999999999MA1100611999999MW1001REMMET058LTAG 042150Z 07012KT 9999 FEW050 BKN100 07/06 Q1006 NOSIG;EQDQ01+000000PRSWM2
0166173500999992000010422504+37000+035420FM-15+0066LTAG V0200501N005110300019N0112651N1+00701+00501999999ADDGD12991+0150099GD23991+0300099GF107991999999999999999999MA1100511999999MW1001REMMET058LTAG 042250Z 05010KT 9999 FEW050 BKN100 07/05 Q1005 NOSIG;EQDQ01+000000PRSWM2
0166173500999992000010423504+37000+035420FM-15+0066LTAG V0200501N005110300019N0112651N1+00701+00501999999ADDGD12991+0105099GD23991+0300099GF107991999999999999999999MA1100511999999MW1001REMMET058LTAG 042350Z 05010KT 9999 SCT035 BKN100 07/05 Q1005 NOSIG;EQDQ01+000000PRSWM2
0202173500999992000010500004+37000+035420FM-12+0066LTAG V0200501N00511036001CN0100001N1+00701+00491100571ADDAA106000091AY191061AY221061GA1031+010509089GF106991031021012501051001MD1610051+9999MW1031REMSYN082AAXX  05004 17350 31660 60510 10070 20049 40057 56005 70392 83250 333 83835 86360;EQDQ01  00002PRCP06
0186173500999992000010500504+37000+035420FM-15+0066LTAG V0200501N007210105019N0112651N1+00701+00501999999ADDGD13991+0105099GD23991+0300099GF107991999999999999999999MA1100511999999MW1611REMMET062LTAG 050050Z 05014KT 9999 -RA BKN035 BKN100 07/05 Q1005 NOSIG;EQDQ01+000003PRSWM1Q02    003PRSWM1
0186173500999992000010501504+37000+035420FM-15+0066LTAG V0200901N006210105019N0112651N1+00701+00501999999ADDGD13991+0105099GD23991+0300099GF107991999999999999999999MA1100511999999MW1611REMMET062LTAG 050150Z 09012KT 9999 -RA BKN035 BKN100 07/05 Q1005 NOSIG;EQDQ01+000003PRSWM1Q02    003PRSWM1
0171173500999992000010502504+37000+035420FM-15+0066LTAG V0200501N007212200019N0112651N1+00701+00501999999ADDGD12991+0120099GD22991+0300099GF104991999999999999999999MA1100411999999MW1001REMMET063LTAG 050250Z 05014KT 9999 FEW040 SCT100 07/05 Q1004 RERA NOSIG;EQDQ01+000000PRSWM2
0172173500999992000010503004+37000+035420FM-12+0066LTAG V0200501N007212200019N0100001N1+00721+00521100461ADDAY161031AY221031GA1021+012009089GF104991021011012501031001MD1710111+9999MW1211REMSYN082AAXX  05034 17350 41660 40514 10072 20052 40046 57011 72162 82130 333 82840 84360;
0166173500999992000010504504+37000+035420FM-15+0066LTAG V0200601N006210300019N0112651N1+00801+00501999999ADDGD12991+0090099GD23991+0300099GF107991999999999999999999MA1100411999999MW1001REMMET058LTAG 050450Z 06012KT 9999 SCT030 BKN100 08/05 Q1004 NOSIG;EQDQ01+000000PRSWM2
0234173500999992000010505504+37000+035420FM-15+0066LTAG V0200701N005710300019N0112651N1+00801+00601999999ADDGA1999+007509099GD12991+0075099GD22991+0090099GD33991+0300099GF107991999999999999999999MA1100511999999MW1801MW2951REMMET073LTAG 050550Z 07011KT 9999 -TSRA SCT025CB SCT030 BKN100 08/06 Q1005 NOSIG;EQDQ01+000003PRSWM1Q02    003PRSWM1
0260173500999992000010506004+37000+035420FM-12+0066LTAG V0200701N005710105019N0100001N1+00801+00591100571ADDAA112001091AY161061AY221061GA1031+007509099GA2031+010509089GF107991061091008001051001IA1119IA2999+00009KA1120N+00661MD1210111+9999MW1951REMSYN112AAXX  05064 17350 11560 70711 10080 20059 40057 52011 60012 79562 86950 333 20066 32000 70051 83925 83835 85360;
0234173500999992000010506504+37000+035420FM-15+0066LTAG V0200601N003610240019N0080001N1+00701+00501999999ADDGA1999+007509099GD12991+0075099GD22991+0090099GD33991+0240099GF107991999999999999999999MA1100611999999MW1801MW2951REMMET073LTAG 050650Z 06007KT 8000 -TSRA SCT025CB SCT030 BKN080 07/05 Q1006 NOSIG;EQDQ01+000003PRSWM1Q02    003PRSWM1
0234173500999992000010507504+37000+035420FM-15+0066LTAG V0200201N006710240019N0060001N1+00701+00601999999ADDGA1999+007509099GD12991+0075099GD22991+0090099GD33991+0240099GF107991999999999999999999MA1100611999999MW1801MW2951REMMET073LTAG 050750Z 02013KT 6000 -TSRA SCT025CB SCT030 BKN080 07/06 Q1006 NOSIG;EQDQ01+000003PRSWM1Q02    003PRSWM1
0213173500999992000010508504+37000+035420FM-15+0066LTAG V0200501N004610270019N0112651N1+00901+00601999999ADDGA1999+007509099GD12991+0075099GD22991+0090099GD33991+0270099GF107991999999999999999999MA1100611999999MW1001REMMET074LTAG 050850Z 05009KT 9999 FEW025CB SCT030 BKN090 09/06 Q1006 RETSRA NOSIG;EQDQ01+000000PRSWM2
0194173500999992000010509004+37000+035420FM-12+0066LTAG V0200501N004610090019N0100001N1+00861+00571100691ADDAY191031AY291031GA1021+007509099GA2031+009009089GF107991051091008001071001MD1010111+9999MW1291REMSYN088AAXX  05094 17350 41560 70509 10086 20057 40069 50011 72999 85970 333 82925 83830 86359;
0221173500999992000010509504+37000+035420FM-15+0066LTAG V0200501N005710270019N0112651N1+00901+00701999999ADDGA1999+007509099GD12991+0075099GD22991+0090099GD33991+0270099GF107991999999999999999999MA1100511999999MW1001REMMET082LTAG 050950Z 05011KT 9999 FEW025CB SCT030 BKN090 09/07 Q1005 RERA TEMPO 5000 TSRA;EQDQ01+000000PRSWM2
0241173500999992000010511504+37000+035420FM-15+0066LTAG V0202501N006710240019N0020001N1+00701+00601999999ADDGA1999+006009099GD12991+0060099GD22991+0090099GD33991+0240099GF107991999999999999999999MA1100611999999MW1101MW2811MW3951REMMET090LTAG 051050Z 25013KT 2000 R05////// TSRA BR SCT020CB SCT030 BKN080 07/06 Q1006 RERA NOSIG;EQDQ01+000003PRSWM1
0233173500999992000010512004+37000+035420FM-12+0066LTAG V0203201N004610090019N0050001N1+00701+00621100651ADDAA106018091AY191061AY281061GA1021+006009099GA2051+009009089GA3051+024009039GF107991071091008001071001MD1710041+9999MW1811REMSYN100AAXX  05124 17350 11550 73209 10070 20062 40065 57004 60181 78198 87970 333 82920 85830 85358 96010;
0231173500999992000010512504+37000+035420FM-15+0066LTAG V0203201N005110090019N0050001N1+00701+00601999999ADDGA1999+006009099GD12991+0060099GD23991+0090099GD33991+0240099GF107991999999999999999999MA1100611999999MW1101MW2811MW3951REMMET080LTAG 051250Z 32010KT 5000 TSRA BR FEW020CB BKN030 BKN080 07/06 Q1006 RERA NOSIG;EQDQ01+000003PRSWM1
0228173500999992000010514504+37000+035420FM-15+0066LTAG V0203501N006210240019N0080001N1+00701+00601999999ADDGA1999+007509099GD12991+0075099GD22991+0090099GD33991+0240099GF107991999999999999999999MA1100711999999MW1801REMMET073LTAG 051450Z 35012KT 8000 -SHRA FEW025CB SCT030 BKN080 07/06 Q1007 NOSIG;EQDQ01+000003PRSWM1Q02    003PRSWM1
0216173500999992000010515004+37000+035420FM-12+0066LTAG V0203501N00621024001CN0080001N1+00701+00621100751ADDAY191031AY281031GA1011+007509099GA2041+009009089GA3061+024009039GF107991051091008001071001MD1210101+9999MW1801REMSYN094AAXX  05154 17350 41558 73512 10070 20062 40075 52010 78098 85970 333 81925 84830 86358 96010;
0188173500999992000010516504+37000+035420FM-15+0066LTAG V0203301N002610270019N0080001N1+00701+00501999999ADDGD12991+0090099GD23991+0270099GF107991999999999999999999MA1100811999999MW1801REMMET064LTAG 051650Z 33005KT 8000 -SHRA SCT030 BKN090 07/05 Q1008 NOSIG;EQDQ01+000003PRSWM1Q02    003PRSWM1
0171173500999992000010517504+37000+035420FM-15+0066LTAG V0203401N003110270019N0080001N1+00801+00601999999ADDGD12991+0090099GD23991+0270099GF107991999999999999999999MA1100811999999MW1001REMMET063LTAG 051750Z 34006KT 8000 SCT030 BKN090 08/06 Q1008 RERA NOSIG;EQDQ01+000000PRSWM2
0166173500999992000010518504+37000+035420FM-15+0066LTAG V0200101N001510270019N0080001N1+00801+00601999999ADDGD12991+0090099GD23991+0270099GF107991999999999999999999MA1100811999999MW1001REMMET058LTAG 051850Z 01003KT 8000 SCT030 BKN090 08/06 Q1008 NOSIG;EQDQ01+000000PRSWM2
0188173500999992000010520504+37000+035420FM-15+0066LTAG V0200201N003610270019N0112651N1+00801+00601999999ADDGD12991+0090099GD23991+0270099GF107991999999999999999999MA1100811999999MW1801REMMET064LTAG 052050Z 02007KT 9999 -SHRA SCT030 BKN090 08/06 Q1008 NOSIG;EQDQ01+000003PRSWM1Q02    003PRSWM1
0172173500999992000010521004+37000+035420FM-12+0066LTAG V0200201N00361036001CN0100001N1+00801+00601100881ADDAY121031AY221031GA1041+009009089GF107991041021008001071001MD1210031+9999MW1801REMSYN082AAXX  05214 17350 41560 70207 10080 20060 40088 52003 78022 84270 333 84830 87359;
0188173500999992000010521504+37000+035420FM-15+0066LTAG V0200701N001510270019N0112651N1+00801+00601999999ADDGD12991+0090099GD23991+0270099GF107991999999999999999999MA1100911999999MW1801REMMET064LTAG 052150Z 07003KT 9999 -SHRA SCT030 BKN090 08/06 Q1009 NOSIG;EQDQ01+000003PRSWM1Q02    003PRSWM1
0171173500999992000010600504+37000+035420FM-15+0066LTAG V0202001N003610270019N0112651N1+00801+00501999999ADDGD12991+0090099GD23991+0270099GF107991999999999999999999MA1100911999999MW1001REMMET063LTAG 060050Z 20007KT 9999 SCT030 BKN090 08/05 Q1009 RERA NOSIG;EQDQ01+000000PRSWM2
0166173500999992000010601504+37000+035420FM-15+0066LTAG V0200301N001510270019N0112651N1+00701+00501999999ADDGD12991+0090099GD23991+0270099GF107991999999999999999999MA1101021999999MW1001REMMET058LTAG 060150Z 03003KT 9999 SCT030 BKN090 07/05 Q1010 NOSIG;EQDQ01+000000PRSWM2
0166173500999992000010602504+37000+035420FM-15+0066LTAG V0200201N002110270019N0112651N1+00601+00401999999ADDGD12991+0090099GD23991+0270099GF107991999999999999999999MA1100911999999MW1001REMMET058LTAG 060250Z 02004KT 9999 SCT030 BKN090 06/04 Q1009 NOSIG;EQDQ01+000000PRSWM2
0172173500999992000010603004+37000+035420FM-12+0066LTAG V0200201N00211036001CN0100001N1+00601+00381101051ADDAY181031AY221031GA1041+009009089GF107991041021008001051001MD1310091+9999MW1021REMSYN082AAXX  06034 17350 41560 70204 10060 20038 40105 53009 70282 84250 333 84830 87360;
0166173500999992000010603504+37000+035420FM-15+0066LTAG V0209999C000010270019N0112651N1+00701+00501999999ADDGD12991+0090099GD23991+0270099GF107991999999999999999999MA1101021999999MW1001REMMET058LTAG 060350Z 00000KT 9999 SCT030 BKN090 07/05 Q1010 NOSIG;EQDQ01+000000PRSWM2
0166173500999992000010604504+37000+035420FM-15+0066LTAG V0200301N001510300019N0112651N1+00601+00501999999ADDGD12991+0105099GD23991+0300099GF107991999999999999999999MA1101081999999MW1001REMMET058LTAG 060450Z 03003KT 9999 SCT035 BKN100 06/05 Q1011 NOSIG;EQDQ01+000000PRSWM2
0166173500999992000010605504+37000+035420FM-15+0066LTAG V0200801N001510300019N0112651N1+00701+00501999999ADDGD12991+0105099GD23991+0300099GF107991999999999999999999MA1101191999999MW1001REMMET058LTAG 060550Z 08003KT 9999 SCT035 BKN100 07/05 Q1012 NOSIG;EQDQ01+000000PRSWM2
0238173500999992000010606004+37000+035420FM-12+0066LTAG V0200801N00151036001CN0100001N1+00661+00491101261ADDAA112002091AY181061AY221061GA1031+010509089GF105991031021012501051001IA1119IA2999+00009KA1120N+00561MD1210211+9999MW1021REMSYN106AAXX  06064 17350 11660 50803 10066 20049 40126 52021 60022 70282 83250 333 20056 32000 70252 83835 85360;
0166173500999992000010606504+37000+035420FM-15+0066LTAG V0200601N001510300019N0112651N1+00801+00601999999ADDGD12991+0105099GD23991+0300099GF107991999999999999999999MA1101291999999MW1001REMMET058LTAG 060650Z 06003KT 9999 SCT035 BKN100 08/06 Q1013 NOSIG;EQDQ01+000000PRSWM2
0206173500999992000010607504+37000+035420FM-15+0066LTAG V0200801N002110300019N0112651N1+00901+00601999999ADDGA1999+009009099GD12991+0090099GD22991+0105099GD33991+0300099GF107991999999999999999999MA1101291999999MW1001REMMET067LTAG 060750Z 08004KT 9999 FEW030CB SCT035 BKN100 09/06 Q1013 NOSIG;EQDQ01+000000PRSWM2
0206173500999992000010608504+37000+035420FM-15+0066LTAG V0200501N002610300019N0112651N1+01101+00601999999ADDGA1999+009009099GD12991+0090099GD22991+0105099GD33991+0300099GF107991999999999999999999MA1101391999999MW1001REMMET067LTAG 060850Z 05005KT 9999 FEW030CB SCT035 BKN100 11/06 Q1014 NOSIG;EQDQ01+000000PRSWM2
0166173500999992000010609004+37000+035420FM-12+0066LTAG V0200501N002610105019N0100001N1+01141+00641101431ADDGA1021+009009099GA2031+010509089GF106991051091008001051001MD1210171+9999REMSYN082AAXX  06094 17350 42560 60505 10114 20064 40143 52017 85950 333 82930 83835 86360;
0206173500999992000010609504+37000+035420FM-15+0066LTAG V0200701N002110300019N0112651N1+01101+00601999999ADDGA1999+009009099GD12991+0090099GD22991+0105099GD33991+0300099GF107991999999999999999999MA1101391999999MW1001REMMET067LTAG 060950Z 07004KT 9999 FEW030CB SCT035 BKN100 11/06 Q1014 NOSIG;EQDQ01+000000PRSWM2
0166173500999992000010610504+37000+035420FM-15+0066LTAG V0200701N001012200019N0112651N1+01201+00601999999ADDGD12991+0105099GD22991+0300099GF104991999999999999999999MA1101291999999MW1001REMMET058LTAG 061050Z 07002KT 9999 SCT035 SCT100 12/06 Q1013 NOSIG;EQDQ01+000000PRSWM2
0144173500999992000010611504+37000+035420FM-15+0066LTAG V0200101N001512200019N0112651N1+01201+00701999999ADDGD12991+0105099GF102991999999999999999999MA1101291999999MW1001REMMET051LTAG 061150Z 01003KT 9999 FEW035 12/07 Q1013 NOSIG;EQDQ01+000000PRSWM2
0168173500999992000010612004+37000+035420FM-12+0066LTAG V0200101N001512200019N0100001N1+01241+00661101401ADDAA106000091GA1021+010509029GF102991021011012501001001MD1610021+9999REMSYN070AAXX  06124 17350 32660 20103 10124 20066 40140 56002 82100 333 82835;EQDQ01  00002PRCP06
0144173500999992000010612504+37000+035420FM-15+0066LTAG V0201201N002112200019N0112651N1+01301+00501999999ADDGD12991+0105099GF102991999999999999999999MA1101291999999MW1001REMMET051LTAG 061250Z 12004KT 9999 FEW035 13/05 Q1013 NOSIG;EQDQ01+000000PRSWM2
0144173500999992000010613504+37000+035420FM-15+0066LTAG V0200301N002112200019N0112651N1+01201+00501999999ADDGD12991+0105099GF102991999999999999999999MA1101391999999MW1001REMMET051LTAG 061350Z 03004KT 9999 FEW035 12/05 Q1014 NOSIG;EQDQ01+000000PRSWM2
0166173500999992000010614504+37000+035420FM-15+0066LTAG V0200501N001512200019N0112651N1+01101+00601999999ADDGD12991+0105099GD22991+0300099GF104991999999999999999999MA1101391999999MW1001REMMET058LTAG 061450Z 05003KT 9999 FEW035 SCT100 11/06 Q1014 NOSIG;EQDQ01+000000PRSWM2
0144173500999992000010615004+37000+035420FM-12+0066LTAG V0200501N001512200019N0100001N1+01141+00561101481ADDGA1021+010509089GF104991021011012501031001MD1310071+9999REMSYN076AAXX  06154 17350 42660 40503 10114 20056 40148 53007 82130 333 82835 84360;
0166173500999992000010615504+37000+035420FM-15+0066LTAG V0201701N001012200019N0112651N1+01001+00601999999ADDGD12991+0105099GD22991+0300099GF104991999999999999999999MA1101391999999MW1001REMMET058LTAG 061550Z 17002KT 9999 FEW035 SCT100 10/06 Q1014 NOSIG;EQDQ01+000000PRSWM2
0166173500999992000010616504+37000+035420FM-15+0066LTAG V0200401N002612200019N0112651N1+00801+00501999999ADDGD12991+0105099GD22991+0300099GF104991999999999999999999MA1101491999999MW1001REMMET058LTAG 061650Z 04005KT 9999 FEW035 SCT100 08/05 Q1015 NOSIG;EQDQ01+000000PRSWM2
0166173500999992000010617504+37000+035420FM-15+0066LTAG V0200401N002612200019N0112651N1+00701+00501999999ADDGD12991+0105099GD22991+0300099GF104991999999999999999999MA1101491999999MW1001REMMET058LTAG 061750Z 04005KT 9999 FEW035 SCT100 07/05 Q1015 NOSIG;EQDQ01+000000PRSWM2
0166173500999992000010619504+37000+035420FM-15+0066LTAG V0200201N001512200019N0112651N1+00701+00501999999ADDGD12991+0105099GD22991+0300099GF104991999999999999999999MA1101591999999MW1001REMMET058LTAG 061950Z 02003KT 9999 FEW035 SCT100 07/05 Q1016 NOSIG;EQDQ01+000000PRSWM2
0166173500999992000010620504+37000+035420FM-15+0066LTAG V0200401N002612200019N0112651N1+00601+00501999999ADDGD12991+0105099GD22991+0300099GF104991999999999999999999MA1101591999999MW1001REMMET058LTAG 062050Z 04005KT 9999 FEW035 SCT100 06/05 Q1016 NOSIG;EQDQ01+000000PRSWM2
0144173500999992000010621004+37000+035420FM-12+0066LTAG V0200401N002612200019N0100001N1+00581+00451101681ADDGA1021+010509089GF104991021011012501031001MD1310081+9999REMSYN076AAXX  06214 17350 42660 40405 10058 20045 40168 53008 82130 333 82835 84360;
0166173500999992000010621504+37000+035420FM-15+0066LTAG V0200201N002112200019N0112651N1+00601+00501999999ADDGD12991+0105099GD22991+0300099GF104991999999999999999999MA1101591999999MW1001REMMET058LTAG 062150Z 02004KT 9999 FEW035 SCT100 06/05 Q1016 NOSIG;EQDQ01+000000PRSWM2
0166173500999992000010622504+37000+035420FM-15+0066LTAG V0200101N002612200019N0112651N1+00601+00501999999ADDGD12991+0105099GD22991+0300099GF104991999999999999999999MA1101591999999MW1001REMMET058LTAG 062250Z 01005KT 9999 FEW035 SCT100 06/05 Q1016 NOSIG;EQDQ01+000000PRSWM2
0166173500999992000010623504+37000+035420FM-15+0066LTAG V0200501N002612200019N0112651N1+00701+00401999999ADDGD12991+0105099GD22991+0300099GF104991999999999999999999MA1101691999999MW1001REMMET058LTAG 062350Z 05005KT 9999 FEW035 SCT100 07/04 Q1017 NOSIG;EQDQ01+000000PRSWM2
0174173500999992000010700004+37000+035420FM-12+0066LTAG V0200501N002612200019N0100001N1+00681+00381101711ADDAA106000091GA1021+010509089GF104991021011012501031001MD1210031+9999REMSYN076AAXX  07004 17350 32660 40505 10068 20038 40171 52003 82130 333 82835 84360;EQDQ01  00002PRCP06
0166173500999992000010700504+37000+035420FM-15+0066LTAG V0200701N001012200019N0112651N1+00701+00401999999ADDGD12991+0105099GD22991+0300099GF104991999999999999999999MA1101691999999MW1001REMMET058LTAG 070050Z 07002KT 9999 FEW035 SCT100 07/04 Q1017 NOSIG;EQDQ01+000000PRSWM2
0166173500999992000010701504+37000+035420FM-15+0066LTAG V0203501N001510300019N0112651N1+00701+00501999999ADDGD12991+0105099GD23991+0300099GF107991999999999999999999MA1101691999999MW1001REMMET058LTAG 070150Z 35003KT 9999 SCT035 BKN100 07/05 Q1017 NOSIG;EQDQ01+000000PRSWM2
0166173500999992000010702504+37000+035420FM-15+0066LTAG V0200501N003612200019N0112651N1+00701+00401999999ADDGD12991+0105099GD22991+0300099GF104991999999999999999999MA1101691999999MW1001REMMET058LTAG 070250Z 05007KT 9999 FEW035 SCT100 07/04 Q1017 NOSIG;EQDQ01+000000PRSWM2
0144173500999992000010703004+37000+035420FM-12+0066LTAG V0200501N003612200019N0100001N1+00661+00441101721ADDGA1021+010509089GF104991021011012501031001MD1110011+9999REMSYN076AAXX  07034 17350 42660 40507 10066 20044 40172 51001 82130 333 82835 84360;
0166173500999992000010703504+37000+035420FM-15+0066LTAG V0200501N003110300019N0112651N1+00701+00401999999ADDGD12991+0105099GD23991+0300099GF107991999999999999999999MA1101591999999MW1001REMMET058LTAG 070350Z 05006KT 9999 SCT035 BKN100 07/04 Q1016 NOSIG;EQDQ01+000000PRSWM2
0166173500999992000010704504+37000+035420FM-15+0066LTAG V0200201N002110300019N0112651N1+00801+00401999999ADDGD12991+0105099GD23991+0300099GF107991999999999999999999MA1101691999999MW1001REMMET058LTAG 070450Z 02004KT 9999 SCT035 BKN100 08/04 Q1017 NOSIG;EQDQ01+000000PRSWM2
0188173500999992000010705504+37000+035420FM-15+0066LTAG V0200301N001510300019N0112651N1+00801+00401999999ADDGD12991+0105099GD23991+0300099GF107991999999999999999999MA1101691999999MW1801REMMET064LTAG 070550Z 03003KT 9999 -SHRA SCT035 BKN100 08/04 Q1017 NOSIG;EQDQ01+000003PRSWM1Q02    003PRSWM1
0214173500999992000010706004+37000+035420FM-12+0066LTAG V0200301N00151036001CN0100001N1+00801+00421101791ADDAA106000021AY111061AY211061GA1041+010509089GF107991041021012501071001IA1099KA1120N+00501MD1310061+9999MW1801REMSYN094AAXX  07064 17350 31660 70303 10080 20042 40179 53006 78011 84270 333 20050 31/// 84835 87360;
0188173500999992000010706504+37000+035420FM-15+0066LTAG V0200801N004610300019N0112651N1+00801+00601999999ADDGD12991+0090099GD23991+0300099GF107991999999999999999999MA1101801999999MW1801REMMET064LTAG 070650Z 08009KT 9999 -SHRA SCT030 BKN100 08/06 Q1018 NOSIG;EQDQ01+000003PRSWM1Q02    003PRSWM1
0171173500999992000010707504+37000+035420FM-15+0066LTAG V0200701N004110300019N0112651N1+00901+00801999999ADDGD12991+0090099GD23991+0300099GF107991999999999999999999MA1101801999999MW1001REMMET063LTAG 070750Z 07008KT 9999 SCT030 BKN100 09/08 Q1018 RERA NOSIG;EQDQ01+000000PRSWM2
0166173500999992000010708504+37000+035420FM-15+0066LTAG V0200501N004610300019N0112651N1+01001+00801999999ADDGD12991+0090099GD23991+0300099GF107991999999999999999999MA1101801999999MW1001REMMET058LTAG 070850Z 05009KT 9999 SCT030 BKN100 10/08 Q1018 NOSIG;EQDQ01+000000PRSWM2
0172173500999992000010709004+37000+035420FM-12+0066LTAG V0200501N00461036001CN0100001N1+01021+00791101811ADDAY181031AY221031GA1041+009009089GF107991041021008001071001MD1010031+9999MW1021REMSYN082AAXX  07094 17350 41560 70509 10102 20079 40181 50003 70282 84270 333 84830 87360;
0172173500999992000010709504+37000+035420FM-15+0066LTAG V0200601N003610300019N0112651N1+01001+00801999999ADDGD12991+0090099GD23991+0300099GF107991999999999999999999MA1101691999999MW1001REMMET064LTAG 070950Z 06007KT 9999 SCT030 BKN100 10/08 Q1017 BECMG -SHRA;EQDQ01+000000PRSWM2
0186173500999992000010710504+37000+035420FM-15+0066LTAG V0200501N003110240019N0060001N1+01001+00801999999ADDGD12991+0090099GD24991+0240099GF108991999999999999999999MA1101591999999MW1611REMMET062LTAG 071050Z 05006KT 6000 -RA SCT030 OVC080 10/08 Q1016 NOSIG;EQDQ01+000003PRSWM1Q02    003PRSWM1
0186173500999992000010711504+37000+035420FM-15+0066LTAG V0203401N003610240019N0080001N1+00901+00501999999ADDGD12991+0090099GD24991+0240099GF108991999999999999999999MA1101691999999MW1611REMMET062LTAG 071150Z 34007KT 8000 -RA SCT030 OVC080 09/05 Q1017 NOSIG;EQDQ01+000003PRSWM1Q02    003PRSWM1
0189173500999992000010712004+37000+035420FM-12+0066LTAG V0203401N00361036001CN0080001N1+00921+00721101701ADDAA106003091AY181061AY221061GA1041+009009069GF108991041041008001021999MD1610111+9999MW1601REMSYN088AAXX  07124 17350 11558 83407 10092 20072 40170 56011 60031 76082 8442/ 333 84630 88458;
0186173500999992000010712504+37000+035420FM-15+0066LTAG V0200201N004110240019N0080001N1+00901+00801999999ADDGD12991+0090099GD24991+0240099GF108991999999999999999999MA1101591999999MW1611REMMET062LTAG 071250Z 02008KT 8000 -RA SCT030 OVC080 09/08 Q1016 NOSIG;EQDQ01+000003PRSWM1Q02    003PRSWM1
0186173500999992000010713504+37000+035420FM-15+0066LTAG V0200501N003110240019N0080001N1+00901+00801999999ADDGD12991+0090099GD24991+0240099GF108991999999999999999999MA1101591999999MW1611REMMET062LTAG 071350Z 05006KT 8000 -RA SCT030 OVC080 09/08 Q1016 NOSIG;EQDQ01+000003PRSWM1Q02    003PRSWM1
0186173500999992000010714504+37000+035420FM-15+0066LTAG V0203301N003110240019N0070001N1+00901+00801999999ADDGD12991+0090099GD24991+0240099GF108991999999999999999999MA1101591999999MW1611REMMET062LTAG 071450Z 33006KT 7000 -RA SCT030 OVC080 09/08 Q1016 NOSIG;EQDQ01+000003PRSWM1Q02    003PRSWM1
0172173500999992000010715004+37000+035420FM-12+0066LTAG V0203301N00311036001CN0070001N1+00941+00781101621ADDAY161031AY261031GA1041+009009069GF108991041051008001021999MD1710081+9999MW1611REMSYN082AAXX  07154 17350 41557 83306 10094 20078 40162 57008 76166 8452/ 333 84630 88458;
0186173500999992000010715504+37000+035420FM-15+0066LTAG V0203301N003110240019N0090001N1+00901+00801999999ADDGD12991+0090099GD24991+0240099GF108991999999999999999999MA1101591999999MW1611REMMET062LTAG 071550Z 33006KT 9000 -RA SCT030 OVC080 09/08 Q1016 NOSIG;EQDQ01+000003PRSWM1Q02    003PRSWM1
0186173500999992000010716504+37000+035420FM-15+0066LTAG V0200801N004110240019N0080001N1+00901+00801999999ADDGD12991+0090099GD24991+0240099GF108991999999999999999999MA1101591999999MW1611REMMET062LTAG 071650Z 08008KT 8000 -RA SCT030 OVC080 09/08 Q1016 NOSIG;EQDQ01+000003PRSWM1Q02    003PRSWM1
0185173500999992000010717504+37000+035420FM-15+0066LTAG V0200801N003610240019N0080001N1+00901+00801999999ADDGD12991+0090099GD24991+0240099GF108991999999999999999999MA1101591999999MW1611REMMET061LTAG 071750Z 08007KT 8000 -RA SCT030 OVC080 09/08 Q1016 NOSG;EQDQ01+000003PRSWM1Q02    003PRSWM1
0208173500999992000010718004+37000+035420FM-12+0066LTAG V0200801N00361036001CN0080001N1+00901+00821101621ADDAA112007991AY161061AY261061GA1041+009009069GF108991041051008001021999KA1120M+01061MD1410001+9999MW1611REMSYN094AAXX  07184 17350 11558 80807 10090 20082 40162 54000 60082 76166 8452/ 333 10106 84630 88458;
0171173500999992000010718504+37000+035420FM-15+0066LTAG V0200701N005110090019N0112651N1+00901+00801999999ADDGD13991+0090099GD24991+0240099GF108991999999999999999999MA1101491999999MW1001REMMET063LTAG 071850Z 07010KT 9999 BKN030 OVC080 09/08 Q1015 RERA NOSIG;EQDQ01+000000PRSWM2
0217173500999992000010720504+37000+035420FM-15+0066LTAG V0200801N005110090019N0112651N1+00901+00801999999ADDGA1999+007509099GD12991+0075099GD23991+0090099GF107991999999999999999999MA1101491999999MW1801MW2951REMMET071LTAG 072050Z 08010KT 9999 -TSRA SCT025CB BKN030 09/08 Q1015 RERA NOSIG;EQDQ01+000003PRSWM1Q02    003PRSWM1
0172173500999992000010721004+37000+035420FM-12+0066LTAG V0200801N00511007501CN0100001N1+00901+00781101561ADDAY181031AY261031GA1031+007509099GF108991081091008001999999MD1510061+9999MW1951REMSYN082AAXX  07214 17350 41560 80810 10090 20078 40156 55006 79586 889// 333 83925 85830;
0212173500999992000010721504+37000+035420FM-15+0066LTAG V0200801N004110090019N0112651N1+00901+00801999999ADDGA1999+007509099GD12991+0075099GD23991+0090099GF107991999999999999999999MA1101491999999MW1801MW2951REMMET066LTAG 072150Z 08008KT 9999 -TSRA SCT025CB BKN030 09/08 Q1015 NOSIG;EQDQ01+000003PRSWM1Q02    003PRSWM1
0212173500999992000010722504+37000+035420FM-15+0066LTAG V0201201N002110090019N0112651N1+00901+00801999999ADDGA1999+007509099GD12991+0075099GD23991+0090099GF107991999999999999999999MA1101491999999MW1801MW2951REMMET066LTAG 072250Z 12004KT 9999 -TSRA SCT025CB BKN030 09/08 Q1015 NOSIG;EQDQ01+000003PRSWM1Q02    003PRSWM1
0212173500999992000010723504+37000+035420FM-15+0066LTAG V0201201N004110090019N0112651N1+01001+00801999999ADDGA1999+007509099GD12991+0075099GD23991+0090099GF107991999999999999999999MA1101591999999MW1801MW2951REMMET066LTAG 072350Z 12008KT 9999 -TSRA SCT025CB BKN030 10/08 Q1016 NOSIG;EQDQ01+000003PRSWM1Q02    003PRSWM1
0189173500999992000010800004+37000+035420FM-12+0066LTAG V0201201N00411007501CN0100001N1+00961+00841101611ADDAA106016091AY181061AY261061GA1031+007509099GF108991081091008001999999MD1210051+9999MW1951REMSYN088AAXX  08004 17350 11560 81208 10096 20084 40161 52005 60161 79586 889// 333 83925 85830;
0213173500999992000010800504+37000+035420FM-15+0066LTAG V0201101N002110090019N0112651N1+00901+00801999999ADDGA1999+007509099GD12991+0075099GD23991+0090099GF107991999999999999999999MA1101591999999MW1801REMMET073LTAG 080050Z 11004KT 9999 -SHRA SCT025CB BKN030 09/08 Q1016 RETSRA NOSIG;EQDQ01+000003PRSWM1Q02    003PRSWM1
0206173500999992000010801504+37000+035420FM-15+0066LTAG V0203501N000510090019N0112651N1+00901+00801999999ADDGA1999+007509099GD12991+0075099GD23991+0090099GF107991999999999999999999MA1101691999999MW1801REMMET066LTAG 080150Z 35001KT 9999 -SHRA SCT025CB BKN030 09/08 Q1017 NOSIG;EQDQ01+000003PRSWM1Q02    003PRSWM1
0172173500999992000010803004+37000+035420FM-12+0066LTAG V0200301N00461007501CN0100001N1+00801+00721101681ADDAY191031AY291031GA1031+007509099GF108991081091008001999999MD1010071+9999MW1801REMSYN082AAXX  08034 17350 41560 80309 10080 20072 40168 50007 78099 889// 333 83925 85830;
0191173500999992000010804504+37000+035420FM-15+0066LTAG V0203501N004610090019N0112651N1+00801+00701999999ADDGA1999+007509099GD12991+0075099GD23991+0090099GF107991999999999999999999MA1101691999999MW1001REMMET067LTAG 080450Z 35009KT 9999 SCT025CB BKN030 08/07 Q1017 RETSRA NOSIG;EQDQ01+000000PRSWM2
0206173500999992000010805504+37000+035420FM-15+0066LTAG V0200301N004610090019N0112651N1+00801+00701999999ADDGA1999+007509099GD12991+0075099GD23991+0090099GF107991999999999999999999MA1101801999999MW1801REMMET066LTAG 080550Z 03009KT 9999 -SHRA FEW025CB BKN030 08/07 Q1018 NOSIG;EQDQ01+000003PRSWM1Q02    003PRSWM1
0226173500999992000010806004+37000+035420FM-12+0066LTAG V0200301N00461007501CN0100001N1+00801+00661101841ADDAA112019191AY191061AY281061GA1021+007509099GF107991071091008001001001IA1119KA1120N+00731MD1210161+9999MW1801REMSYN106AAXX  08064 17350 11560 70309 10080 20066 40184 52016 60192 78098 87900 333 20073 32/// 70284 82925 85830;
0189173500999992000010806504+37000+035420FM-15+0066LTAG V0203501N002610090019N0112651N1+00801+00701999999ADDGA1999+007509099GD12991+0075099GD23991+0090099GF107991999999999999999999MA1101901999999MW1001REMMET065LTAG 080650Z 35005KT 9999 FEW025CB BKN030 08/07 Q1019 RERA NOSIG;EQDQ01+000000PRSWM2
0206173500999992000010808504+37000+035420FM-15+0066LTAG V0200701N003610270019N0112651N1+01001+00601999999ADDGA1999+007509099GD12991+0075099GD22991+0105099GD33991+0270099GF107991999999999999999999MA1101901999999MW1001REMMET067LTAG 080850Z 07007KT 9999 FEW025CB SCT035 BKN090 10/06 Q1019 NOSIG;EQDQ01+000000PRSWM2
0166173500999992000010809004+37000+035420FM-12+0066LTAG V0200701N003610105019N0100001N1+01001+00561101941ADDGA1011+007509099GA2041+010509089GF107991051091008001051001MD1110101+9999REMSYN082AAXX  08094 17350 42560 70707 10100 20056 40194 51010 85950 333 81925 84835 86359;
0193173500999992000010809504+37000+035420FM-15+0066LTAG V0200801N004610270019N0112651N1+01001+00701999999ADDGD12991+0105099GD23991+0270099GF107991999999999999999999MA1101691999999MW1801REMMET069LTAG 080950Z 08009KT 9999 -SHRA SCT035 BKN090 10/07 Q1017 BECMG TSRA;EQDQ01+000003PRSWM1Q02    003PRSWM1
0239173500999992000010810504+37000+035420FM-15+0066LTAG V0200801N004610270019N0112651N1+00901+00701999999ADDGA1999+007509099GD12991+0075099GD22991+0090099GD33991+0270099GF107991999999999999999999MA1101801999999MW1801MW2951REMMET078LTAG 081050Z 08009KT 9999 -TSRA FEW025CB SCT030 BKN090 09/07 Q1018 RERA NOSIG;EQDQ01+000003PRSWM1Q02    003PRSWM1
0235173500999992000010811504+37000+035420FM-15+0066LTAG V0200801N005710270019N0112651N1+00901+00701999999ADDGA1999+007509099GD12991+0075099GD22991+0090099GD33991+0270099GF107991999999999999999999MA1101691999999MW1801REMMET080LTAG 081150Z 08011KT 9999 -SHRA FEW025CB SCT030 BKN090 09/07 Q1017 RETSRA NOSIG;EQDQ01+000003PRSWM1Q02    003PRSWM1
0211173500999992000010812004+37000+035420FM-12+0066LTAG V0200801N005710090019N0100001N1+00881+00721101791ADDAA106003091AY191061AY281061GA1021+007509099GA2041+009009089GF107991061091008001051001MD1710141+9999MW1801REMSYN094AAXX  08124 17350 11560 70811 10088 20072 40179 57014 60031 78098 86950 333 82925 84830 86359;
0189173500999992000010812504+37000+035420FM-15+0066LTAG V0200801N006212200019N0112651N1+00901+00601999999ADDGA1999+007509099GD12991+0075099GD22991+0090099GF104991999999999999999999MA1101691999999MW1001REMMET065LTAG 081250Z 08012KT 9999 FEW025CB SCT030 09/06 Q1017 RERA NOSIG;EQDQ01+000000PRSWM2
0188173500999992000010813504+37000+035420FM-15+0066LTAG V0201001N005110270019N0112651N1+00801+00701999999ADDGD12991+0105099GD23991+0270099GF107991999999999999999999MA1101691999999MW1801REMMET064LTAG 081350Z 10010KT 9999 -SHRA SCT035 BKN090 08/07 Q1017 NOSIG;EQDQ01+000003PRSWM1Q02    003PRSWM1
0188173500999992000010814504+37000+035420FM-15+0066LTAG V0202901N004610270019N0112651N1+00801+00701999999ADDGD12991+0105099GD23991+0270099GF107991999999999999999999MA1101691999999MW1801REMMET064LTAG 081550Z 29009KT 9999 -SHRA SCT035 BKN090 08/07 Q1017 NOSIG;EQDQ01+000003PRSWM1Q02    003PRSWM1
0172173500999992000010815004+37000+035420FM-12+0066LTAG V0200101N00411036001CN0100001N1+00801+00661101801ADDAY181031AY221031GA1031+010509089GF106991031021012501051001MD1510001+9999MW1251REMSYN082AAXX  08154 17350 41660 60108 10080 20066 40180 55000 72582 83250 333 83835 86359;
0188173500999992000010815504+37000+035420FM-15+0066LTAG V0202901N004610270019N0112651N1+00801+00701999999ADDGD12991+0105099GD23991+0270099GF107991999999999999999999MA1101691999999MW1801REMMET064LTAG 081550Z 29009KT 9999 -SHRA SCT035 BKN090 08/07 Q1017 NOSIG;EQDQ01+000003PRSWM1Q02    003PRSWM1
0166173500999992000010816504+37000+035420FM-15+0066LTAG V0200401N003110270019N0112651N1+00701+00501999999ADDGD13991+0270099GF107991999999999999999999MA1101691999999MW1801REMMET057LTAG 081650Z 04006KT 9999 -SHRA BKN090 07/05 Q1017 NOSIG;EQDQ01+000003PRSWM1Q02    003PRSWM1
0171173500999992000010817504+37000+035420FM-15+0066LTAG V0200401N002112200019N0112651N1+00601+00501999999ADDGD12991+0120099GD22991+0300099GF104991999999999999999999MA1101801999999MW1001REMMET063LTAG 081750Z 04004KT 9999 FEW040 SCT100 06/05 Q1018 RERA NOSIG;EQDQ01+000000PRSWM2
0208173500999992000010818004+37000+035420FM-12+0066LTAG V0200401N002112200019N0100001N1+00621+00491101881ADDAA112006191AY181061AY221061GA1021+012009089GF104991021011012501031001KA1120M+01041MD1310071+9999MW1251REMSYN094AAXX  08184 17350 11660 40404 10062 20049 40188 53007 60062 72582 82130 333 10104 82840 84360;
0166173500999992000010818504+37000+035420FM-15+0066LTAG V0200101N002612200019N0112651N1+00501+00401999999ADDGD12991+0120099GD22991+0300099GF104991999999999999999999MA1101801999999MW1001REMMET058LTAG 081850Z 01005KT 9999 FEW040 SCT100 05/04 Q1018 NOSIG;EQDQ01+000000PRSWM2
0097173500999992000010819504+37000+035420FM-15+0066LTAG V0200501N00261220001CN0099001N1+00501+00401999999ADDMA1101901999999MW1001REMMET045LTAG 081950Z 05005KT CAVOK 05/04 Q1019 NOSIG;EQDQ01+000000PRSWM2
0097173500999992000010820504+37000+035420FM-15+0066LTAG V0200301N00411220001CN0099001N1+00501+00401999999ADDMA1101901999999MW1001REMMET045LTAG 082050Z 03008KT CAVOK 05/04 Q1019 NOSIG;EQDQ01+000000PRSWM2
0122173500999992000010821004+37000+035420FM-12+0066LTAG V0200301N004112200019N0100001N1+00541+00411101961ADDGA1001+999999999GF100991001001999999001001MD1210081+9999REMSYN054AAXX  08214 17350 42960 00308 10054 20041 40196 52008;
0097173500999992000010821504+37000+035420FM-15+0066LTAG V0200501N00411220001CN0099001N1+00601+00501999999ADDMA1101901999999MW1001REMMET045LTAG 082150Z 05008KT CAVOK 06/05 Q1019 NOSIG;EQDQ01+000000PRSWM2
0097173500999992000010822504+37000+035420FM-15+0066LTAG V0200301N00311220001CN0099001N1+00601+00401999999ADDMA1101901999999MW1001REMMET045LTAG 082250Z 03006KT CAVOK 06/04 Q1019 NOSIG;EQDQ01+000000PRSWM2
0097173500999992000010823504+37000+035420FM-15+0066LTAG V0203301N00211220001CN0099001N1+00501+00401999999ADDMA1101901999999MW1001REMMET045LTAG 082350Z 33004KT CAVOK 05/04 Q1019 NOSIG;EQDQ01+000000PRSWM2
0133173500999992000010900004+37000+035420FM-12+0066LTAG V0203301N002112200019N0100001N1+00521+00391101931ADDAA106000021GA1001+999999999GF100991001001999999001001MD1810031+9999REMSYN054AAXX  09004 17350 32960 03304 10052 20039 40193 58003;
0144173500999992000010900504+37000+035420FM-15+0066LTAG V0203601N003612200019N0112651N1+00501+00401999999ADDGD12991+0120099GF104991999999999999999999MA1101901999999MW1001REMMET051LTAG 090050Z 36007KT 9999 SCT040 05/04 Q1019 NOSIG;EQDQ01+000000PRSWM2
0174173500999992000010901504+37000+035420FM-15+0066LTAG V0202701N002110300019N0112651N1+00601+00401999999ADDGD12991+0120099GD23991+0300099GF107991999999999999999999MA1101801999999MW1001REMMET066LTAG 090150Z 27004KT 260V340 9999 SCT040 BKN100 06/04 Q1018 NOSIG;EQDQ01+000000PRSWM2
0166173500999992000010902504+37000+035420FM-15+0066LTAG V0203501N002610300019N0112651N1+00601+00301999999ADDGD12991+0120099GD23991+0300099GF107991999999999999999999MA1101801999999MW1001REMMET058LTAG 090250Z 35005KT 9999 FEW040 BKN100 06/03 Q1018 NOSIG;EQDQ01+000000PRSWM2
0144173500999992000010903004+37000+035420FM-12+0066LTAG V0203501N00261036001CN0100001N1+00561+00341101891ADDGA1021+012009089GF106991021011012501031001MD1810041+9999REMSYN076AAXX  09034 17350 42660 63505 10056 20034 40189 58004 82130 333 82840 86360;
0166173500999992000010903504+37000+035420FM-15+0066LTAG V0200501N002110300019N0112651N1+00501+00301999999ADDGD12991+0150099GD23991+0300099GF107991999999999999999999MA1101801999999MW1001REMMET058LTAG 090350Z 05004KT 9999 SCT050 BKN100 05/03 Q1018 NOSIG;EQDQ01+000000PRSWM2
0166173500999992000010904504+37000+035420FM-15+0066LTAG V0200301N002610240019N0112651N1+00501+00301999999ADDGD12991+0150099GD23991+0240099GF107991999999999999999999MA1101801999999MW1001REMMET058LTAG 090450Z 03005KT 9999 SCT050 BKN080 05/03 Q1018 NOSIG;EQDQ01+000000PRSWM2
0166173500999992000010907504+37000+035420FM-15+0066LTAG V0203401N002610300019N0112651N1+00801+00401999999ADDGD12991+0120099GD23991+0300099GF107991999999999999999999MA1101901999999MW1001REMMET058LTAG 090750Z 34005KT 9999 SCT040 BKN100 08/04 Q1019 NOSIG;EQDQ01+000000PRSWM2
0166173500999992000010908504+37000+035420FM-15+0066LTAG V0203201N004110300019N0112651N1+00801+00501999999ADDGD12991+0105099GD23991+0300099GF107991999999999999999999MA1101901999999MW1001REMMET058LTAG 090850Z 32008KT 9999 SCT035 BKN100 08/05 Q1019 NOSIG;EQDQ01+000000PRSWM2
0144173500999992000010909004+37000+035420FM-12+0066LTAG V0203201N00411036001CN0100001N1+00841+00461101961ADDGA1041+010509089GF107991041021012501051001MD1110051+9999REMSYN076AAXX  09094 17350 42660 73208 10084 20046 40196 51005 84250 333 84835 87360;
0166173500999992000010909504+37000+035420FM-15+0066LTAG V0203201N003610300019N0112651N1+00901+00501999999ADDGD12991+0105099GD23991+0300099GF107991999999999999999999MA1101801999999MW1001REMMET058LTAG 090950Z 32007KT 9999 SCT035 BKN100 09/05 Q1018 NOSIG;EQDQ01+000000PRSWM2
0188173500999992000010910504+37000+035420FM-15+0066LTAG V0202001N002610300019N0112651N1+00801+00501999999ADDGD12991+0105099GD23991+0300099GF107991999999999999999999MA1101801999999MW1801REMMET064LTAG 091050Z 20005KT 9999 -SHRA SCT035 BKN100 08/05 Q1018 NOSIG;EQDQ01+000003PRSWM1Q02    003PRSWM1
0171173500999992000010911504+37000+035420FM-15+0066LTAG V0203501N004110300019N0112651N1+00801+00501999999ADDGD12991+0105099GD23991+0300099GF107991999999999999999999MA1101801999999MW1001REMMET063LTAG 091150Z 35008KT 9999 SCT035 BKN100 08/05 Q1018 RERA NOSIG;EQDQ01+000000PRSWM2
0189173500999992000010912004+37000+035420FM-12+0066LTAG V0203501N00411036001CN0100001N1+00761+00511101901ADDAA106004191AY181061AY221061GA1041+010509089GF107991041021012501071001MD1610061+9999MW1251REMSYN088AAXX  09124 17350 11660 73508 10076 20051 40190 56006 60041 72582 84270 333 84835 87360;
0166173500999992000010912504+37000+035420FM-15+0066LTAG V0203601N002610300019N0112651N1+00901+00401999999ADDGD12991+0105099GD23991+0300099GF107991999999999999999999MA1101801999999MW1001REMMET058LTAG 091250Z 36005KT 9999 SCT035 BKN100 09/04 Q1018 NOSIG;EQDQ01+000000PRSWM2
0166173500999992000010913504+37000+035420FM-15+0066LTAG V0201401N002110300019N0112651N1+00901+00601999999ADDGD12991+0105099GD23991+0300099GF107991999999999999999999MA1101801999999MW1001REMMET058LTAG 091350Z 14004KT 9999 SCT035 BKN100 09/06 Q1018 NOSIG;EQDQ01+000000PRSWM2
0166173500999992000010914504+37000+035420FM-15+0066LTAG V0201301N002110300019N0112651N1+00901+00501999999ADDGD12991+0105099GD23991+0300099GF107991999999999999999999MA1101801999999MW1001REMMET058LTAG 091450Z 13004KT 9999 SCT035 BKN100 09/05 Q1018 NOSIG;EQDQ01+000000PRSWM2
0144173500999992000010915004+37000+035420FM-12+0066LTAG V0201301N00211036001CN0100001N1+00861+00531101911ADDGA1041+010509089GF106991041021012501051001MD1310011+9999REMSYN076AAXX  09154 17350 42660 61304 10086 20053 40191 53001 84250 333 84835 86360;
0166173500999992000010915504+37000+035420FM-15+0066LTAG V0201201N001510300019N0112651N1+00801+00601999999ADDGD12991+0105099GD23991+0300099GF107991999999999999999999MA1101901999999MW1001REMMET058LTAG 091550Z 12003KT 9999 SCT035 BKN100 08/06 Q1019 NOSIG;EQDQ01+000000PRSWM2
0166173500999992000010916504+37000+035420FM-15+0066LTAG V0200801N002110300019N0112651N1+00701+00501999999ADDGD12991+0105099GD23991+0300099GF107991999999999999999999MA1101901999999MW1001REMMET058LTAG 091650Z 08004KT 9999 SCT035 BKN100 07/05 Q1019 NOSIG;EQDQ01+000000PRSWM2
0166173500999992000010917504+37000+035420FM-15+0066LTAG V0203101N002110300019N0112651N1+00601+00501999999ADDGD12991+0105099GD23991+0300099GF107991999999999999999999MA1102001999999MW1001REMMET058LTAG 091750Z 31004KT 9999 SCT035 BKN100 06/05 Q1020 NOSIG;EQDQ01+000000PRSWM2
0180173500999992000010918004+37000+035420FM-12+0066LTAG V0203101N00211036001CN0100001N1+00621+00451102041ADDAA112004191GA1041+010509089GF106991041021012501051001KA1120M+00941MD1210131+9999REMSYN088AAXX  09184 17350 12660 63104 10062 20045 40204 52013 60042 84250 333 10094 84835 86360;
0166173500999992000010918504+37000+035420FM-15+0066LTAG V0203401N002112200019N0112651N1+00501+00401999999ADDGD12991+0105099GD22991+0300099GF104991999999999999999999MA1102001999999MW1001REMMET058LTAG 091850Z 34004KT 9999 FEW035 SCT100 05/04 Q1020 NOSIG;EQDQ01+000000PRSWM2
0166173500999992000010919504+37000+035420FM-15+0066LTAG V0200401N003112200019N0112651N1+00401+00301999999ADDGD12991+0105099GD22991+0300099GF104991999999999999999999MA1102001999999MW1001REMMET058LTAG 091950Z 04006KT 9999 FEW035 SCT100 04/03 Q1020 NOSIG;EQDQ01+000000PRSWM2
0166173500999992000010920504+37000+035420FM-15+0066LTAG V0200501N003612200019N0112651N1+00401+00201999999ADDGD12991+0105099GD22991+0300099GF104991999999999999999999MA1102001999999MW1001REMMET058LTAG 092050Z 05007KT 9999 FEW035 SCT100 04/02 Q1020 NOSIG;EQDQ01+000000PRSWM2
0144173500999992000010921004+37000+035420FM-12+0066LTAG V0200501N003612200019N0100001N1+00401+00171102111ADDGA1021+010509089GF104991021021012501051001MD1210071+9999REMSYN076AAXX  09214 17350 42660 40507 10040 20017 40211 52007 82250 333 82835 84360;
0166173500999992000010921504+37000+035420FM-15+0066LTAG V0200301N003112200019N0112651N1+00401+00201999999ADDGD12991+0105099GD22991+0300099GF104991999999999999999999MA1102001999999MW1001REMMET058LTAG 092150Z 03006KT 9999 FEW035 SCT100 04/02 Q1020 NOSIG;EQDQ01+000000PRSWM2
0097173500999992000010922504+37000+035420FM-15+0066LTAG V0200401N00211220001CN0099001N1+00401+00201999999ADDMA1102001999999MW1001REMMET045LTAG 092250Z 04004KT CAVOK 04/02 Q1020 NOSIG;EQDQ01+000000PRSWM2
0144173500999992000010923504+37000+035420FM-15+0066LTAG V0203201N002612200019N0112651N1+00401+00201999999ADDGD12991+0105099GF102991999999999999999999MA1102101999999MW1001REMMET051LTAG 092350Z 32005KT 9999 FEW035 04/02 Q1021 NOSIG;EQDQ01+000000PRSWM2
0168173500999992000011000004+37000+035420FM-12+0066LTAG V0203201N002612200019N0100001N1+00401+00211102131ADDAA106000091GA1021+010509029GF102991021011012501001001MD1310021+9999REMSYN070AAXX  10004 17350 32660 23205 10040 20021 40213 53002 82100 333 82835;EQDQ01  00002PRCP06
0144173500999992000011000504+37000+035420FM-15+0066LTAG V0203501N002112200019N0112651N1+00301+00201999999ADDGD12991+0105099GF102991999999999999999999MA1102001999999MW1001REMMET051LTAG 100050Z 35004KT 9999 FEW035 03/02 Q1020 NOSIG;EQDQ01+000000PRSWM2
0144173500999992000011001504+37000+035420FM-15+0066LTAG V0203301N001012200019N0112651N1+00301+00201999999ADDGD12991+0105099GF102991999999999999999999MA1102101999999MW1001REMMET051LTAG 100150Z 33002KT 9999 FEW035 03/02 Q1021 NOSIG;EQDQ01+000000PRSWM2
0144173500999992000011002504+37000+035420FM-15+0066LTAG V0203401N001512200019N0112651N1+00301+00201999999ADDGD12991+0105099GF102991999999999999999999MA1102101999999MW1001REMMET051LTAG 100250Z 34003KT 9999 FEW035 03/02 Q1021 NOSIG;EQDQ01+000000PRSWM2
0138173500999992000011003004+37000+035420FM-12+0066LTAG V0203401N001512200019N0100001N1+00301+00161102131ADDGA1021+010509029GF102991021011012501001001MD1010001+9999REMSYN070AAXX  10034 17350 42660 23403 10030 20016 40213 50000 82100 333 82835;
0144173500999992000011003504+37000+035420FM-15+0066LTAG V0203401N002612200019N0112651N1+00301+00201999999ADDGD12991+0105099GF102991999999999999999999MA1102101999999MW1001REMMET051LTAG 100350Z 34005KT 9999 FEW035 03/02 Q1021 NOSIG;EQDQ01+000000PRSWM2
0166173500999992000011004504+37000+035420FM-15+0066LTAG V0203201N002612200019N0112651N1+00301+00101999999ADDGD12991+0105099GD22991+0600099GF104991999999999999999999MA1102101999999MW1001REMMET058LTAG 100450Z 32005KT 9999 FEW035 SCT200 03/01 Q1021 NOSIG;EQDQ01+000000PRSWM2
0188173500999992000011005504+37000+035420FM-15+0066LTAG V0203501N003110600019N0112651N1+00401+00101999999ADDGD12991+0105099GD22991+0300099GD33991+0600099GF107991999999999999999999MA1102101999999MW1001REMMET065LTAG 100550Z 35006KT 9999 FEW035 SCT100 BKN200 04/01 Q1021 NOSIG;EQDQ01+000000PRSWM2
0233173500999992000011006004+37000+035420FM-12+0066LTAG V0203501N00311090001CN0100001N1+00441+00111102181ADDAA106000091GA1021+010509089GA2031+030009039GF106991021011012501031041IA1119KA1120N+00271MD1210041+9999REMSYN100AAXX  10064 17350 32660 63506 10044 20011 40218 52004 82134 333 20027 32/// 70041 82835 83360 86070;EQDQ01  00002PRCP06
0188173500999992000011006504+37000+035420FM-15+0066LTAG V0200301N002110600019N0112651N1+00601+00101999999ADDGD12991+0105099GD22991+0300099GD33991+0600099GF107991999999999999999999MA1102101999999MW1001REMMET065LTAG 100650Z 03004KT 9999 FEW035 SCT100 BKN200 06/01 Q1021 NOSIG;EQDQ01+000000PRSWM2
0188173500999992000011007504+37000+035420FM-15+0066LTAG V0200101N003110600019N0112651N1+00701+00201999999ADDGD12991+0105099GD22991+0300099GD33991+0600099GF107991999999999999999999MA1102101999999MW1001REMMET065LTAG 100750Z 01006KT 9999 FEW035 SCT100 BKN200 07/02 Q1021 NOSIG;EQDQ01+000000PRSWM2
0188173500999992000011008504+37000+035420FM-15+0066LTAG V0203101N001510600019N0112651N1+00801+00201999999ADDGD12991+0105099GD22991+0300099GD33991+0600099GF107991999999999999999999MA1102101999999MW1001REMMET065LTAG 100850Z 31003KT 9999 FEW035 SCT100 BKN200 08/02 Q1021 NOSIG;EQDQ01+000000PRSWM2
0166173500999992000011009004+37000+035420FM-12+0066LTAG V0203101N001510300019N0100001N1+00821+00211102211ADDGA1021+010509089GA2041+030009039GF107991021011012501031041MD1110041+9999REMSYN082AAXX  10094 17350 42660 73103 10082 20021 40221 51004 82134 333 82835 84360 87070;
0188173500999992000011009504+37000+035420FM-15+0066LTAG V0200101N002610600019N0112651N1+00801+00301999999ADDGD12991+0105099GD22991+0300099GD33991+0600099GF107991999999999999999999MA1102101999999MW1001REMMET065LTAG 100950Z 01005KT 9999 FEW035 SCT100 BKN200 08/03 Q1021 NOSIG;EQDQ01+000000PRSWM2
0188173500999992000011010504+37000+035420FM-15+0066LTAG V0203101N002110600019N0112651N1+00801+00401999999ADDGD12991+0105099GD22991+0300099GD33991+0600099GF107991999999999999999999MA1102001999999MW1001REMMET065LTAG 101050Z 31004KT 9999 FEW035 SCT100 BKN200 08/04 Q1020 NOSIG;EQDQ01+000000PRSWM2
0188173500999992000011011504+37000+035420FM-15+0066LTAG V0201601N002110300019N0112651N1+00801+00401999999ADDGD12991+0105099GD23991+0300099GF107991999999999999999999MA1102001999999MW1801REMMET064LTAG 101150Z 16004KT 9999 -SHRA SCT035 BKN100 08/04 Q1020 NOSIG;EQDQ01+000003PRSWM1Q02    003PRSWM1
0189173500999992000011012004+37000+035420FM-12+0066LTAG V0201601N00211036001CN0100001N1+00841+00381102071ADDAA106000791AY121061AY221061GA1031+010509089GF107991031021012501041001MD1710141+9999MW1801REMSYN088AAXX  10124 17350 11660 71604 10084 20038 40207 57014 69901 78022 83240 333 83835 87360;
0171173500999992000011012504+37000+035420FM-15+0066LTAG V0202801N002610300019N0112651N1+00901+00401999999ADDGD12991+0105099GD23991+0300099GF107991999999999999999999MA1102001999999MW1001REMMET063LTAG 101250Z 28005KT 9999 SCT035 BKN100 09/04 Q1020 RERA NOSIG;EQDQ01+000000PRSWM2
0166173500999992000011013504+37000+035420FM-15+0066LTAG V0203301N003610300019N0112651N1+00901+00201999999ADDGD12991+0105099GD23991+0300099GF107991999999999999999999MA1102001999999MW1001REMMET058LTAG 101350Z 33007KT 9999 SCT035 BKN100 09/02 Q1020 NOSIG;EQDQ01+000000PRSWM2
0166173500999992000011014504+37000+035420FM-15+0066LTAG V0203301N003110300019N0112651N1+00801+00101999999ADDGD12991+0105099GD23991+0300099GF107991999999999999999999MA1102001999999MW1001REMMET058LTAG 101450Z 33006KT 9999 SCT035 BKN100 08/01 Q1020 NOSIG;EQDQ01+000000PRSWM2
0172173500999992000011015004+37000+035420FM-12+0066LTAG V0203301N00311036001CN0100001N1+00781+00101102071ADDAY181031AY221031GA1031+010509089GF107991031021012501041001MD1410001+9999MW1021REMSYN082AAXX  10154 17350 41660 73306 10078 20010 40207 54000 70282 83240 333 83835 87360;
0166173500999992000011015504+37000+035420FM-15+0066LTAG V0200601N003110300019N0112651N1+00701+00101999999ADDGD12991+0105099GD23991+0300099GF107991999999999999999999MA1102001999999MW1001REMMET058LTAG 101550Z 06006KT 9999 SCT035 BKN100 07/01 Q1020 NOSIG;EQDQ01+000000PRSWM2
0167173500999992000011016504+37000+035420FM-15+0066LTAG V0203501N002610300019N0112651N1+00601+00001999999ADDGD12991+0105099GD23991+0300099GF107991999999999999999999MA1102001999999MW1001REMMET059LTAG 101650Z 35005KT 9999 SCT035 BKN100 06/M00 Q1020 NOSIG;EQDQ01+000000PRSWM2
0167173500999992000011017504+37000+035420FM-15+0066LTAG V0203501N003610300019N0112651N1+00601-00301999999ADDGD12991+0105099GD23991+0300099GF107991999999999999999999MA1102001999999MW1001REMMET059LTAG 101750Z 35007KT 9999 FEW035 BKN100 06/M03 Q1020 NOSIG;EQDQ01+000000PRSWM2
0208173500999992000011018004+37000+035420FM-12+0066LTAG V0203501N00361036001CN0100001N1+00621-00281102071ADDAA112000791AY181061AY221061GA1021+010509089GF105991021011012501031001KA1120M+00921MD1510001+9999MW1011REMSYN094AAXX  10184 17350 11660 53507 10062 21028 40207 55000 69902 70182 82130 333 10092 82835 85360;
0098173500999992000011019504+37000+035420FM-15+0066LTAG V0203401N00261220001CN0099001N1+00501-00301999999ADDMA1102101999999MW1001REMMET046LTAG 101950Z 34005KT CAVOK 05/M03 Q1021 NOSIG;EQDQ01+000000PRSWM2
0098173500999992000011020504+37000+035420FM-15+0066LTAG V0203501N00411220001CN0099001N1+00601-00401999999ADDMA1102101999999MW1001REMMET046LTAG 102050Z 35008KT CAVOK 06/M04 Q1021 NOSIG;EQDQ01+000000PRSWM2
0122173500999992000011021004+37000+035420FM-12+0066LTAG V0203501N004112200019N0100001N1+00561-00371102141ADDGA1001+999999999GF100991001001999999001001MD1110081+9999REMSYN054AAXX  10214 17350 42960 03508 10056 21037 40214 51008;
0098173500999992000011021504+37000+035420FM-15+0066LTAG V0202701N00211220001CN0099001N1+00501-00201999999ADDMA1102101999999MW1001REMMET046LTAG 102150Z 27004KT CAVOK 05/M02 Q1021 NOSIG;EQDQ01+000000PRSWM2
0098173500999992000011022504+37000+035420FM-15+0066LTAG V0203401N00211220001CN0099001N1+00401-00301999999ADDMA1102101999999MW1001REMMET046LTAG 102250Z 34004KT CAVOK 04/M03 Q1021 NOSIG;EQDQ01+000000PRSWM2
0098173500999992000011023504+37000+035420FM-15+0066LTAG V0203401N00311220001CN0099001N1+00201-00301999999ADDMA1102101999999MW1001REMMET046LTAG 102350Z 34006KT CAVOK 02/M03 Q1021 NOSIG;EQDQ01+000000PRSWM2
0152173500999992000011100004+37000+035420FM-12+0066LTAG V0203401N003112200019N0100001N1+00241-00281102221ADDAA106000091GA1001+999999999GF100991001001999999001001MD1210061+9999REMSYN054AAXX  11004 17350 32960 03406 10024 21028 40222 52006;EQDQ01  00002PRCP06
0098173500999992000011100504+37000+035420FM-15+0066LTAG V0200301N00311220001CN0099001N1+00101-00201999999ADDMA1102201999999MW1001REMMET046LTAG 110050Z 03006KT CAVOK 01/M02 Q1022 NOSIG;EQDQ01+000000PRSWM2
0098173500999992000011102504+37000+035420FM-15+0066LTAG V0200501N00361220001CN0099001N1+00201-00301999999ADDMA1102201999999MW1001REMMET046LTAG 110250Z 05007KT CAVOK 02/M03 Q1022 NOSIG;EQDQ01+000000PRSWM2
0122173500999992000011103004+37000+035420FM-12+0066LTAG V0200501N003612200019N0100001N1+00201-00271102241ADDGA1001+999999999GF100991001001999999001001MD1110021+9999REMSYN054AAXX  11034 17350 42960 00507 10020 21027 40224 51002;
0098173500999992000011103504+37000+035420FM-15+0066LTAG V0203201N00261220001CN0099001N1+00201-00201999999ADDMA1102201999999MW1001REMMET046LTAG 110350Z 32005KT CAVOK 02/M02 Q1022 NOSIG;EQDQ01+000000PRSWM2
0098173500999992000011104504+37000+035420FM-15+0066LTAG V0200501N00261220001CN0099001N1+00101-00201999999ADDMA1102301999999MW1001REMMET046LTAG 110450Z 05005KT CAVOK 01/M02 Q1023 NOSIG;EQDQ01+000000PRSWM2
0098173500999992000011105504+37000+035420FM-15+0066LTAG V0203301N00311220001CN0099001N1+00401-00301999999ADDMA1102301999999MW1001REMMET046LTAG 110550Z 33006KT CAVOK 04/M03 Q1023 NOSIG;EQDQ01+000000PRSWM2
0193173500999992000011106004+37000+035420FM-12+0066LTAG V0203301N003112200019N0100001N1+00401-00331102401ADDAA106000091GA1001+999999999GF100991001001999999001001IA1019KA1120N+00121MD1210161+9999REMSYN076AAXX  11064 17350 32960 03306 10040 21033 40240 52016 333 20012 30/// 79999;EQDQ01  00002PRCP06
0098173500999992000011106504+37000+035420FM-15+0066LTAG V0200601N00151220001CN0099001N1+00601-00201999999ADDMA1102301999999MW1001REMMET046LTAG 110650Z 06003KT CAVOK 06/M02 Q1023 NOSIG;EQDQ01+000000PRSWM2
0098173500999992000011107504+37000+035420FM-15+0066LTAG V0200101N00311220001CN0099001N1+01001-00201999999ADDMA1102301999999MW1001REMMET046LTAG 110750Z 01006KT CAVOK 10/M02 Q1023 NOSIG;EQDQ01+000000PRSWM2
0098173500999992000011108504+37000+035420FM-15+0066LTAG V0200201N00361220001CN0099001N1+01101-00101999999ADDMA1102401999999MW1001REMMET046LTAG 110850Z 02007KT CAVOK 11/M01 Q1024 NOSIG;EQDQ01+000000PRSWM2
0122173500999992000011109004+37000+035420FM-12+0066LTAG V0200201N003612200019N0100001N1+01081-00121102421ADDGA1001+999999999GF100991001001999999001001MD1110031+9999REMSYN054AAXX  11094 17350 42960 00207 10108 21012 40242 51003;
0098173500999992000011109504+37000+035420FM-15+0066LTAG V0200301N00361220001CN0099001N1+01201-00301999999ADDMA1102301999999MW1001REMMET046LTAG 110950Z 03007KT CAVOK 12/M03 Q1023 NOSIG;EQDQ01+000000PRSWM2
0098173500999992000011110504+37000+035420FM-15+0066LTAG V0200201N00211220001CN0099001N1+01201-00201999999ADDMA1102201999999MW1001REMMET046LTAG 111050Z 02004KT CAVOK 12/M02 Q1022 NOSIG;EQDQ01+000000PRSWM2
0098173500999992000011111504+37000+035420FM-15+0066LTAG V0202501N00311220001CN0099001N1+01301-00201999999ADDMA1102201999999MW1001REMMET046LTAG 111150Z 25006KT CAVOK 13/M02 Q1022 NOSIG;EQDQ01+000000PRSWM2
0152173500999992000011112004+37000+035420FM-12+0066LTAG V0202501N003112200019N0100001N1+01261-00161102231ADDAA106000091GA1001+999999999GF100991001001999999001001MD1710191+9999REMSYN054AAXX  11124 17350 32960 02506 10126 21016 40223 57019;EQDQ01  00002PRCP06
0098173500999992000011112504+37000+035420FM-15+0066LTAG V0202501N00261220001CN0099001N1+01301-00101999999ADDMA1102201999999MW1001REMMET046LTAG 111250Z 25005KT CAVOK 13/M01 Q1022 NOSIG;EQDQ01+000000PRSWM2
0098173500999992000011113504+37000+035420FM-15+0066LTAG V0202801N00211220001CN0099001N1+01201-00401999999ADDMA1102201999999MW1001REMMET046LTAG 111350Z 28004KT CAVOK 12/M04 Q1022 NOSIG;EQDQ01+000000PRSWM2
0097173500999992000011114504+37000+035420FM-15+0066LTAG V0202901N00211220001CN0099001N1+01001+00201999999ADDMA1102201999999MW1001REMMET045LTAG 111450Z 29004KT CAVOK 10/02 Q1022 NOSIG;EQDQ01+000000PRSWM2
0122173500999992000011115004+37000+035420FM-12+0066LTAG V0202901N002112200019N0100001N1+00981+00151102241ADDGA1001+999999999GF100991001001999999001001MD1110011+9999REMSYN054AAXX  11154 17350 42960 02904 10098 20015 40224 51001;
0097173500999992000011115504+37000+035420FM-15+0066LTAG V0200401N00151220001CN0099001N1+00801+00101999999ADDMA1102201999999MW1001REMMET045LTAG 111550Z 04003KT CAVOK 08/01 Q1022 NOSIG;EQDQ01+000000PRSWM2
0098173500999992000011116504+37000+035420FM-15+0066LTAG V0203601N00311220001CN0099001N1+00601-00101999999ADDMA1102301999999MW1001REMMET046LTAG 111650Z 36006KT CAVOK 06/M01 Q1023 NOSIG;EQDQ01+000000PRSWM2
0098173500999992000011117504+37000+035420FM-15+0066LTAG V0200101N00261220001CN0099001N1+00501-00201999999ADDMA1102301999999MW1001REMMET046LTAG 111750Z 01005KT CAVOK 05/M02 Q1023 NOSIG;EQDQ01+000000PRSWM2
0175173500999992000011118004+37000+035420FM-12+0066LTAG V0200101N002612200019N0100001N1+00521-00231102371ADDAA106000091GA1001+999999999GF100991001001999999001001KA1999M+01321MD1210121+9999REMSYN064AAXX  11184 17350 32960 00105 10052 21023 40237 52012 333 10132;EQDQ01  00002PRCP06
0098173500999992000011118504+37000+035420FM-15+0066LTAG V0200301N00211220001CN0099001N1+00401-00201999999ADDMA1102301999999MW1001REMMET046LTAG 111850Z 03004KT CAVOK 04/M02 Q1023 NOSIG;EQDQ01+000000PRSWM2
0098173500999992000011119504+37000+035420FM-15+0066LTAG V0200201N00311220001CN0099001N1+00401-00301999999ADDMA1102301999999MW1001REMMET046LTAG 111950Z 02006KT CAVOK 04/M03 Q1023 NOSIG;EQDQ01+000000PRSWM2
0098173500999992000011120504+37000+035420FM-15+0066LTAG V0200101N00311220001CN0099001N1+00301-00201999999ADDMA1102301999999MW1001REMMET046LTAG 112050Z 01006KT CAVOK 03/M02 Q1023 NOSIG;EQDQ01+000000PRSWM2
0122173500999992000011121004+37000+035420FM-12+0066LTAG V0200101N003112200019N0100001N1+00321-00241102401ADDGA1001+999999999GF100991001001999999001001MD1110041+9999REMSYN054AAXX  11214 17350 42960 00106 10032 21024 40240 51004;
0098173500999992000011121504+37000+035420FM-15+0066LTAG V0200301N00211220001CN0099001N1+00301-00201999999ADDMA1102301999999MW1001REMMET046LTAG 112150Z 03004KT CAVOK 03/M02 Q1023 NOSIG;EQDQ01+000000PRSWM2
0098173500999992000011122504+37000+035420FM-15+0066LTAG V0200301N00411220001CN0099001N1+00401-00301999999ADDMA1102301999999MW1001REMMET046LTAG 112250Z 03008KT CAVOK 04/M03 Q1023 NOSIG;EQDQ01+000000PRSWM2
0098173500999992000011123504+37000+035420FM-15+0066LTAG V0200301N00411220001CN0099001N1+00401-00301999999ADDMA1102301999999MW1001REMMET046LTAG 112350Z 03008KT CAVOK 04/M03 Q1023 NOSIG;EQDQ01+000000PRSWM2
0152173500999992000011200004+37000+035420FM-12+0066LTAG V0200301N004112200019N0100001N1+00401-00331102391ADDAA106000091GA1001+999999999GF100991001001999999001001MD1610011+9999REMSYN054AAXX  12004 17350 32960 00308 10040 21033 40239 56001;EQDQ01  00002PRCP06
0098173500999992000011200504+37000+035420FM-15+0066LTAG V0200201N00361220001CN0099001N1+00401-00401999999ADDMA1102301999999MW1001REMMET046LTAG 120050Z 02007KT CAVOK 04/M04 Q1023 NOSIG;EQDQ01+000000PRSWM2
0098173500999992000011201504+37000+035420FM-15+0066LTAG V0200201N00361220001CN0099001N1+00501-00401999999ADDMA1102301999999MW1001REMMET046LTAG 120150Z 02007KT CAVOK 05/M04 Q1023 NOSIG;EQDQ01+000000PRSWM2
0098173500999992000011202504+37000+035420FM-15+0066LTAG V0200201N00411220001CN0099001N1+00401-00401999999ADDMA1102301999999MW1001REMMET046LTAG 120250Z 02008KT CAVOK 04/M04 Q1023 NOSIG;EQDQ01+000000PRSWM2
0122173500999992000011203004+37000+035420FM-12+0066LTAG V0200201N004112200019N0100001N1+00381-00351102341ADDGA1001+999999999GF100991001001999999001001MD1710051+9999REMSYN054AAXX  12034 17350 42960 00208 10038 21035 40234 57005;
0098173500999992000011203504+37000+035420FM-15+0066LTAG V0200301N00361220001CN0099001N1+00301-00501999999ADDMA1102301999999MW1001REMMET046LTAG 120350Z 03007KT CAVOK 03/M05 Q1023 NOSIG;EQDQ01+000000PRSWM2
0098173500999992000011204504+37000+035420FM-15+0066LTAG V0200301N00461220001CN0099001N1+00301-00501999999ADDMA1102301999999MW1001REMMET046LTAG 120450Z 03009KT CAVOK 03/M05 Q1023 NOSIG;EQDQ01+000000PRSWM2
0098173500999992000011205504+37000+035420FM-15+0066LTAG V0200301N00411220001CN0099001N1+00501-00501999999ADDMA1102401999999MW1001REMMET046LTAG 120550Z 03008KT CAVOK 05/M05 Q1024 NOSIG;EQDQ01+000000PRSWM2
0199173500999992000011206004+37000+035420FM-12+0066LTAG V0200301N004110300019N0100001N1+00501-00531102431ADDAA106000091GA1051+030009079GF105991051001999999031001IA1019KA1120N+00321MD1210081+9999REMSYN082AAXX  12064 17350 32960 50308 10050 21053 40243 52008 85030 333 20032 30/// 85360;EQDQ01  00002PRCP06
0098173500999992000011206504+37000+035420FM-15+0066LTAG V0200101N00151220001CN0099001N1+00901-00701999999ADDMA1102401999999MW1001REMMET046LTAG 120650Z 01003KT CAVOK 09/M07 Q1024 NOSIG;EQDQ01+000000PRSWM2
0098173500999992000011207504+37000+035420FM-15+0066LTAG V0203401N00511220001CN0099001N1+01001-00501999999ADDMA1102401999999MW1001REMMET046LTAG 120750Z 34010KT CAVOK 10/M05 Q1024 NOSIG;EQDQ01+000000PRSWM2
0098173500999992000011208504+37000+035420FM-15+0066LTAG V0200301N00461220001CN0099001N1+01001-00501999999ADDMA1102401999999MW1001REMMET046LTAG 120850Z 03009KT CAVOK 10/M05 Q1024 NOSIG;EQDQ01+000000PRSWM2
0138173500999992000011209004+37000+035420FM-12+0066LTAG V0200301N004610300019N0100001N1+00981-00491102441ADDGA1051+030009079GF105991051001999999031001MD1010031+9999REMSYN070AAXX  12094 17350 42960 50309 10098 21049 40244 50003 85030 333 85360;
0098173500999992000011209504+37000+035420FM-15+0066LTAG V0200101N00621220001CN0099001N1+01101-00401999999ADDMA1102401999999MW1001REMMET046LTAG 120950Z 01012KT CAVOK 11/M04 Q1024 NOSIG;EQDQ01+000000PRSWM2
0098173500999992000011210504+37000+035420FM-15+0066LTAG V0200201N00461220001CN0099001N1+01101-00401999999ADDMA1102201999999MW1001REMMET046LTAG 121050Z 02009KT CAVOK 11/M04 Q1022 NOSIG;EQDQ01+000000PRSWM2
0098173500999992000011211504+37000+035420FM-15+0066LTAG V0203401N00571220001CN0099001N1+01101-00401999999ADDMA1102201999999MW1001REMMET046LTAG 121150Z 34011KT CAVOK 11/M04 Q1022 NOSIG;EQDQ01+000000PRSWM2
0168173500999992000011212004+37000+035420FM-12+0066LTAG V0203401N005710300019N0100001N1+01081-00391102311ADDAA106000091GA1051+030009079GF105991051001999999031001MD1810151+9999REMSYN070AAXX  12124 17350 32960 53411 10108 21039 40231 58015 85030 333 85360;EQDQ01  00002PRCP06
0097173500999992000011212504+37000+035420FM-15+0066LTAG V0200101N00571220001CN0099001N1+01201-00201999999ADDMA1102201999999MW1001REMMET045LTAG 121250Z 01011KT CAVOK 12/M02 Q1022 NOSG;EQDQ01+000000PRSWM2
0097173500999992000011213504+37000+035420FM-15+0066LTAG V0203501N00571220001CN0099001N1+01101-00401999999ADDMA1102301999999MW1001REMMET045LTAG 121350Z 35011KT CAVOK 11/M04 Q1023 NOSG;EQDQ01+000000PRSWM2
0098173500999992000011214504+37000+035420FM-15+0066LTAG V0203601N00571220001CN0099001N1+00901-00801999999ADDMA1102301999999MW1001REMMET046LTAG 121450Z 36011KT CAVOK 09/M08 Q1023 NOSIG;EQDQ01+000000PRSWM2
0138173500999992000011215004+37000+035420FM-12+0066LTAG V0203601N005710300019N0100001N1+00881-00761102351ADDGA1051+030009079GF105991051001999999031001MD1210051+9999REMSYN070AAXX  12154 17350 42960 53611 10088 21076 40235 52005 85030 333 85360;
0098173500999992000011215504+37000+035420FM-15+0066LTAG V0203401N00671220001CN0099001N1+00601-00401999999ADDMA1102301999999MW1001REMMET046LTAG 121550Z 34013KT CAVOK 06/M04 Q1023 NOSIG;EQDQ01+000000PRSWM2
0098173500999992000011216504+37000+035420FM-15+0066LTAG V0203601N00621220001CN0099001N1+00601-00701999999ADDMA1102401999999MW1001REMMET046LTAG 121650Z 36012KT CAVOK 06/M07 Q1024 NOSIG;EQDQ01+000000PRSWM2
0098173500999992000011217504+37000+035420FM-15+0066LTAG V0203601N00621220001CN0099001N1+00501-00701999999ADDMA1102401999999MW1001REMMET046LTAG 121750Z 36012KT CAVOK 05/M07 Q1024 NOSIG;EQDQ01+000000PRSWM2
0175173500999992000011218004+37000+035420FM-12+0066LTAG V0203601N006212200019N0100001N1+00501-00681102491ADDAA106000091GA1001+999999999GF100991001001999999001001KA1999M+01201MD1210131+9999REMSYN064AAXX  12184 17350 32960 03612 10050 21068 40249 52013 333 10120;EQDQ01  00002PRCP06
0098173500999992000011218504+37000+035420FM-15+0066LTAG V0200101N00571220001CN0099001N1+00401-00601999999ADDMA1102401999999MW1001REMMET046LTAG 121850Z 01011KT CAVOK 04/M06 Q1024 NOSIG;EQDQ01+000000PRSWM2
0098173500999992000011219504+37000+035420FM-15+0066LTAG V0200201N00411220001CN0099001N1+00301-00601999999ADDMA1102511999999MW1001REMMET046LTAG 121950Z 02008KT CAVOK 03/M06 Q1025 NOSIG;EQDQ01+000000PRSWM2
0098173500999992000011220504+37000+035420FM-15+0066LTAG V0200101N00361220001CN0099001N1+00201-00601999999ADDMA1102511999999MW1001REMMET046LTAG 122050Z 01007KT CAVOK 02/M06 Q1025 NOSIG;EQDQ01+000000PRSWM2
0122173500999992000011221004+37000+035420FM-12+0066LTAG V0200101N003612200019N0100001N1+00241-00551102551ADDGA1001+999999999GF100991001001999999001001MD1210061+9999REMSYN054AAXX  12214 17350 42960 00107 10024 21055 40255 52006;
0098173500999992000011221504+37000+035420FM-15+0066LTAG V0203601N00411220001CN0099001N1+00101-00601999999ADDMA1102511999999MW1001REMMET046LTAG 122150Z 36008KT CAVOK 01/M06 Q1025 NOSIG;EQDQ01+000000PRSWM2
0098173500999992000011222504+37000+035420FM-15+0066LTAG V0203101N00211220001CN0099001N1+00301-00701999999ADDMA1102511999999MW1001REMMET046LTAG 122250Z 31004KT CAVOK 03/M07 Q1025 NOSIG;EQDQ01+000000PRSWM2
0098173500999992000011223504+37000+035420FM-15+0066LTAG V0203601N00621220001CN0099001N1+00301-00701999999ADDMA1102511999999MW1001REMMET046LTAG 122350Z 36012KT CAVOK 03/M07 Q1025 NOSIG;EQDQ01+000000PRSWM2
0152173500999992000011300004+37000+035420FM-12+0066LTAG V0203601N006212200019N0100001N1+00301-00681102541ADDAA106000091GA1001+999999999GF100991001001999999001001MD1410001+9999REMSYN054AAXX  13004 17350 32960 03612 10030 21068 40254 54000;EQDQ01  00002PRCP06
0098173500999992000011300504+37000+035420FM-15+0066LTAG V0200201N00361220001CN0099001N1+00201-00701999999ADDMA1102511999999MW1001REMMET046LTAG 130050Z 02007KT CAVOK 02/M07 Q1025 NOSIG;EQDQ01+000000PRSWM2
0098173500999992000011301504+37000+035420FM-15+0066LTAG V0200301N00311220001CN0099001N1+00101-00601999999ADDMA1102511999999MW1001REMMET046LTAG 130150Z 03006KT CAVOK 01/M06 Q1025 NOSIG;EQDQ01+000000PRSWM2
0098173500999992000011302504+37000+035420FM-15+0066LTAG V0200101N00411220001CN0099001N1+00201-00701999999ADDMA1102511999999MW1001REMMET046LTAG 130250Z 01008KT CAVOK 02/M07 Q1025 NOSIG;EQDQ01+000000PRSWM2
0122173500999992000011303004+37000+035420FM-12+0066LTAG V0200101N004112200019N0100001N1+00181-00701102541ADDGA1001+999999999GF100991001001999999001001MD1810011+9999REMSYN054AAXX  13034 17350 42960 00108 10018 21070 40254 58001;
0098173500999992000011303504+37000+035420FM-15+0066LTAG V0200101N00361220001CN0099001N1+00201-00601999999ADDMA1102511999999MW1001REMMET046LTAG 130350Z 01007KT CAVOK 02/M06 Q1025 NOSIG;EQDQ01+000000PRSWM2
0098173500999992000011304504+37000+035420FM-15+0066LTAG V0200201N00461220001CN0099001N1+00101-00501999999ADDMA1102511999999MW1001REMMET046LTAG 130450Z 02009KT CAVOK 01/M05 Q1025 NOSIG;EQDQ01+000000PRSWM2
0098173500999992000011305504+37000+035420FM-15+0066LTAG V0200101N00621220001CN0099001N1+00301-00701999999ADDMA1102511999999MW1001REMMET046LTAG 130550Z 01012KT CAVOK 03/M07 Q1025 NOSIG;EQDQ01+000000PRSWM2
0098173500999992000011306504+37000+035420FM-15+0066LTAG V0203601N00511220001CN0099001N1+00601-00801999999ADDMA1102611999999MW1001REMMET046LTAG 130650Z 36010KT CAVOK 06/M08 Q1026 NOSIG;EQDQ01+000000PRSWM2
0098173500999992000011307504+37000+035420FM-15+0066LTAG V0203601N00461220001CN0099001N1+00901-01001999999ADDMA1102611999999MW1001REMMET046LTAG 130750Z 36009KT CAVOK 09/M10 Q1026 NOSIG;EQDQ01+000000PRSWM2
0122173500999992000011309004+37000+035420FM-12+0066LTAG V0202001N006212200019N0100001N1+00921-00691102651ADDGA1001+999999999GF100991001001999999001001MD1010041+9999REMSYN054AAXX  13094 17350 42960 02012 10092 21069 40265 50004;
0152173500999992000011312004+37000+035420FM-12+0066LTAG V0200301N003112200019N0100001N1+01041-00711102481ADDAA106000091GA1001+999999999GF100991001001999999001001MD1710161+9999REMSYN054AAXX  13124 17350 32960 00306 10104 21071 40248 57016;EQDQ01  00002PRCP06
0098173500999992000011313504+37000+035420FM-15+0066LTAG V0200101N00361220001CN0099001N1+01001-00501999999ADDMA1102401999999MW1001REMMET046LTAG 131350Z 01007KT CAVOK 10/M05 Q1024 NOSIG;EQDQ01+000000PRSWM2
0098173500999992000011314504+37000+035420FM-15+0066LTAG V0203601N00411220001CN0099001N1+00901-00401999999ADDMA1102401999999MW1001REMMET046LTAG 131450Z 36008KT CAVOK 09/M04 Q1024 NOSIG;EQDQ01+000000PRSWM2
0122173500999992000011315004+37000+035420FM-12+0066LTAG V0203601N004112200019N0100001N1+00901-00401102511ADDGA1001+999999999GF100991001001999999001001MD1310021+9999REMSYN054AAXX  13154 17350 42960 03608 10090 21040 40251 53002;
0097173500999992000011315504+37000+035420FM-15+0066LTAG V0203601N00461220001CN0099001N1+00601+00101999999ADDMA1102401999999MW1001REMMET045LTAG 131550Z 36009KT CAVOK 06/01 Q1024 NOSIG;EQDQ01+000000PRSWM2
0098173500999992000011316504+37000+035420FM-15+0066LTAG V0203501N00361220001CN0099001N1+00401-00601999999ADDMA1102511999999MW1001REMMET046LTAG 131650Z 35007KT CAVOK 04/M06 Q1025 NOSIG;EQDQ01+000000PRSWM2
0098173500999992000011317504+37000+035420FM-15+0066LTAG V0203401N00361220001CN0099001N1+00401-00501999999ADDMA1102511999999MW1001REMMET046LTAG 131750Z 34007KT CAVOK 04/M05 Q1025 NOSIG;EQDQ01+000000PRSWM2
0175173500999992000011318004+37000+035420FM-12+0066LTAG V0203401N003612200019N0100001N1+00421-00501102561ADDAA106000091GA1001+999999999GF100991001001999999001001KA1999M+01141MD1210051+9999REMSYN064AAXX  13184 17350 32960 03407 10042 21050 40256 52005 333 10114;EQDQ01  00002PRCP06
0098173500999992000011318504+37000+035420FM-15+0066LTAG V0203301N00261220001CN0099001N1+00401-00801999999ADDMA1102511999999MW1001REMMET046LTAG 131850Z 33005KT CAVOK 04/M08 Q1025 NOSIG;EQDQ01+000000PRSWM2
0098173500999992000011319504+37000+035420FM-15+0066LTAG V0203001N00151220001CN0099001N1+00401-00601999999ADDMA1102511999999MW1001REMMET046LTAG 131950Z 30003KT CAVOK 04/M06 Q1025 NOSIG;EQDQ01+000000PRSWM2
0098173500999992000011320504+37000+035420FM-15+0066LTAG V0203201N00211220001CN0099001N1+00301-00601999999ADDMA1102611999999MW1001REMMET046LTAG 132050Z 32004KT CAVOK 03/M06 Q1026 NOSIG;EQDQ01+000000PRSWM2
0126173500999992000011321004+37000+035420FM-12+006699999V0203401N00101220001AN0100001N1+00321-00581102641ADDGA1001+999999999GF100991001001999999001001MD1210081+9999REMSYN058    AAXX  13214 17350 42960 03402 10032 21058 40264 52008;
0098173500999992000011321504+37000+035420FM-15+0066LTAG V0200101N00151220001CN0099001N1+00301-00601999999ADDMA1102611999999MW1001REMMET046LTAG 132150Z 01003KT CAVOK 03/M06 Q1026 NOSIG;EQDQ01+000000PRSWM2
0098173500999992000011322504+37000+035420FM-15+0066LTAG V0200101N00311220001CN0099001N1+00201-00601999999ADDMA1102511999999MW1001REMMET046LTAG 132250Z 01006KT CAVOK 02/M06 Q1025 NOSIG;EQDQ01+000000PRSWM2
0098173500999992000011323504+37000+035420FM-15+0066LTAG V0203201N00311220001CN0099001N1+00201-00601999999ADDMA1102511999999MW1001REMMET046LTAG 132350Z 32006KT CAVOK 02/M06 Q1025 NOSIG;EQDQ01+000000PRSWM2
0156173500999992000011400004+37000+035420FM-12+006699999V0203201N00311220001AN0100001N1+00181-00631102601ADDAA199000091GA1001+999999999GF100991001001999999001001MD1810041+9999REMSYN058    AAXX  14004 17350 32960 03206 10018 21063 40260 58004;EQDQ01  00002PRCP99
