0139220030999992000010112004+69950+032030FM-12+000899999V0201801N007012200019N0500001N1-00881-01121102011ADDGF103991031051012501001001MD1310071+9999OA140100901REMSYN076AAXX  01121 22003 42699 31807 11088 21112 40201 53007 83500 333 91009 91111;
0189220030999992000010212004+69950+032030FM-12+000899999V0202001N012010123019N0200001N1-00731-00981100661ADDAY131061AY221061GA1081+012309069GF108991081051012501999999MD1710131+9999MW1361OA140101801REMSYN088AAXX  02121 22003 41698 82012 11073 21098 40066 57013 73632 885// 333 88641 91018 91121;
0167220030999992000010412004+69950+032030FM-12+000899999V0201801N011010075019N0500001N1-00661-00861093001ADDAY131061AY221061GF106991051051008001031001MD1610041+9999MW1021OA140101401REMSYN082AAXX  04121 22003 41599 61811 11066 21086 4930/ 56004 70232 85530 333 91014 91114;
0122220030999992000010612004+69950+032030FM-12+000899999V0201701N007010042019N0200001N1-00661-00741100311ADDGF107991051091004501071001MD1710081+9999REMSYN070AAXX  06121 22003 42498 71707 11066 21074 40031 57008 85970 333 91008;
0147220030999992000010712004+69950+032030FM-12+000899999V0201801N008010075019N0040001N1-00201-00231098541ADDAY181061AY231061GF108991061051008001071999MW1711OA140101001REMSYN076AAXX  07121 22003 41596 81808 1102/ 21023 49854 77183 8657/ 333 91010 91113;
0189220030999992000010812004+69950+032030FM-12+000899999V0201601N007010024019N0010001N1-00121-00121097831ADDAY171061AY221061GA1061+002409079GF108991061071002501021999MD1710251+9999MW1751OA140100901REMSYN088AAXX  08121 22003 41394 81607 11012 21012 49783 57025 77572 8672/ 333 86708 91009 91115;
0217220030999992000011006004+69950+032030FM-12+000899999V0202701N010010300019N0500001N1+00201-00301098931ADDAA106000091AJ100159199999999GF105991021051008001031001IA1289KA1120N+00151MD1210281+9999OA140101201REMSYN088AAXX  10061 22003 32584 52710 10020 21030 49893 52028 82530 333 20015 44015 91012 91116;EQDQ01  00002PRCP06
0139220030999992000011012004+69950+032030FM-12+000899999V0203101N012010075019N0200001N1+00171-00341099511ADDGF106991051051008001031001MD1210281+9999OA140101701REMSYN076AAXX  10121 22003 42598 63112 10017 21034 49951 52028 85530 333 91017 91119;
0171220030999992000011412004+69950+032030FM-12+000899999V0202301N008010300019N0500001N1-00311-00771100811ADDAY131061AY211061GF107991011051008001041081MD1810041+9999MW1361OA140101001REMSYN086    AAXX  14121 22003 41599 72308 11031 21077 40081 58004 73631 81548 333 91010 91112;
0171220030999992000011712004+69950+032030FM-12+000899999V0200901N009010300019N9999999N1-00121-00381098301ADDAY181061AY231061GF108991031061004501071081MD1219999+9999MW1851OA140101301REMSYN086    AAXX  17121 22003 4149/ 80909 11012 21038 4983/ 520/2 78583 83678 333 91013 91114;
0126220030999992000011812004+69950+032030FM-12+000899999V0200501N003010075019N0500001N1-00201-00821100321ADDGF107991061091008001031001MD1110031+9999REMSYN074    AAXX  18121 22003 42599 70503 11020 21082 40032 51003 86930 333 91005;
0171220030999992000011912004+69950+032030FM-12+000899999V0203201N007012200019N0500001N1-00351-01101100131ADDAY131061AY211061GF102991021091008001001011MD1810021+9999MW1361OA140100901REMSYN086    AAXX  19121 22003 41599 23207 11035 21110 40013 58002 73631 82901 333 91009 91112;
0189220030999992000012112004+69950+032030FM-12+000899999V0200201N010010057019N0200001N1-00371-01181100451ADDAY131061AY221061GA1051+005709099GF108991081091004501999999MD1210051+9999MW1361OA140101301REMSYN088AAXX  21121 22003 41498 80210 11037 21118 40045 52005 73632 889// 333 85919 91013 91117;
0167220030999992000012212004+69950+032030FM-12+000899999V0202401N006010042019N0040001N1-00571-00641099481ADDAY181061AY231061GF108991061091004501071001MD1710201+9999MW1851OA140100801REMSYN082AAXX  22121 22003 41496 82406 11057 21064 49948 57020 78583 86970 333 91008 91116;
0189220030999992000012812004+69950+032030FM-12+000899999V0202701N012010057019N0010001N1-00341-00341097361ADDAY181061AY231061GA1081+005709099GF108991081091004501999999MD1210091+9999MW1861OA140101601REMSYN088AAXX  28121 22003 41494 82712 11034 21034 49736 52009 78683 889// 333 88919 91016 91120;
0150220030999992000013112004+69950+032030FM-12+000899999V0201501N003019999999N0020001N1-00101-00101096441ADDAY171061AY221061GF108991081001999999021999MD1710061+9999MW1731REMSYN076AAXX  31121 22003 41995 81503 11010 21010 49644 57006 77372 8802/ 333 91005;
0232220030999992000020106004+69950+032030FM-12+000899999V0203501N004010042019N0400001N1+00041-00101096551ADDAA112000391AJ100419199999999AY131061AY221061GF108991061091004501071999IA1249KA1120N-00501MD1110031+9999MW1021OA140100601REMSYN100AAXX  01061 22003 11482 83504 10004 21010 49655 51003 69932 70232 8697/ 333 21050 48041 91006 91111;
0167220030999992000020212004+69950+032030FM-12+000899999V0202601N010010075019N0200001N1-00161-00181097361ADDAY181061AY231061GF106991061091008001001001MD1410001+9999MW1361OA140101401REMSYN082AAXX  02121 22003 41598 62610 11016 21018 49736 54000 73683 86900 333 91014 91114;
0139220030999992000020412004+69950+032030FM-12+000899999V0202001N008019999999N0500001N1-00681-01011098661ADDGF108991051001999999071081MD1810231+9999OA140101001REMSYN076AAXX  04121 22003 42999 82008 11068 21101 49866 58023 85078 333 91010 91111;
0118220030999992000020812004+69950+032030FM-12+000899999V0202201N015010075019N0500001N1+99999+99999097361ADDGF108991061051008001071001MD1710151+9999REMSYN066AAXX  08121 22003 41599 82215 11012 21838 49736 57015 70/73 86570;
0217220030999992000021306004+69950+032030FM-12+000899999V0202101N010010300019N0500001N1-00011-00371099291ADDAA199000091AJ100209199999999GF106991021051012501041011IA1289KA1120N-00301MD1710081+9999OA140101301REMSYN088AAXX  13061 22003 32684 62110 11001 21037 49929 57008 82541 333 21030 44020 91013 91120;EQDQ01  00002PRCP99
0226220030999992000021506004+69950+032030FM-12+000899999V0201501N006010120019N0500001N1-00211-00461099811ADDAA112000791AJ100219199999999GA1071+999999069GF107991071051012501001001IA1249KA1120N-00461MD1210081+9999OA140100801REMSYN100AAXX  15061 22003 12684 71506 11021 21046 49981 52008 69902 87500 333 21046 48021 8763/ 91008 91110;
0181220030999992000021706004+69950+032030FM-12+000899999V0202101N005010300019N0500001N1-00621-00771100291ADDAA199000091AJ100219199999999GF105991041051012501041001IA1249MD1410001+9999REMSYN076AAXX  17061 22003 32699 52105 11062 21077 40029 54000 84540 333 2107/ 48021;EQDQ01  00002PRCP99
0167220030999992000022312004+69950+032030FM-12+000899999V0202301N008010075019N0500001N1-00801-01071102281ADDAY131061AY221061GF106991051091008001001011MD1310051+9999MW1361OA140101001REMSYN082AAXX  23121 22003 41599 62308 11080 21107 40228 53005 73632 85901 333 91010 91112;
0150220030999992000022712004+69950+032030FM-12+000899999V0201501N004010300019N0500001N1-00821-01141100631ADDAY171061AY231061GF108991031051012501071999MD1710051+9999MW1021REMSYN076AAXX  27121 22003 41699 81504 11082 21114 40063 57005 70273 8357/ 333 91005;
0122220030999992000030112004+69950+032030FM-12+000899999V0201401N004010075019N0500001N1-00991-01301099421ADDGF108991061051008001071999MD1810081+9999REMSYN070AAXX  01121 22003 42599 81404 11099 21130 49942 58008 8657/ 333 91005;
0208220030999992000030212004+69950+032030FM-12+000899999V0200701N015010027019N0010001N1-00191-00211098141ADDAY171061AY231061GA1051+002709079GF108991999071002501021999MD1710101+9999MW1751OA140102901REMSYN088AAXX  02121 22003 41394 80715 11019 21021 49814 57010 77573 8872/ 333 85709 91029 91121;EQDQ01+000082SCOTLC
0232220030999992000030306004+69950+032030FM-12+000899999V0200501N015010021019N0020001N1-00371-00391098291ADDAA112000591AJ100329199999999GA1061+002109079GF108991081091002501999999IA1249KA1120N-00451MD1210021+9999OA140101901REMSYN106AAXX  03061 22003 11395 80515 11037 21039 49829 52002 69962 78/83 889// 333 21045 48032 86707 91019 91121;
0139220030999992000030612004+69950+032030FM-12+000899999V0201901N005012200019N0500001N1-00721-01061100011ADDGF105991011051012501001011MD1810171+9999OA140100701REMSYN076AAXX  06121 22003 42699 51905 11072 21106 40001 58017 81501 333 91007 91111;
0200220030999992000030706004+69950+032030FM-12+000899999V0202601N005010075019N0500001N1-00711+99999098771ADDAA199000091AJ100219199999999GF106991051091008001031081IA1249KA1120N-01101MD1710111+9999REMSYN082AAXX  07061 22003 32599 62605 11071 210/4 49877 57011 85938 333 21110 48021 91009;EQDQ01  00002PRCP99
0167220030999992000030712004+69950+032030FM-12+000899999V0201501N003012200019N0500001N1-00471-00871098851ADDAY181061AY211061GF103991021091008001001011MD1110011+9999MW1021OA140100501REMSYN082AAXX  07121 22003 41599 31503 11047 21087 49885 51001 70281 82901 333 91005 91110;
0237220030999992000030806004+69950+032030FM-12+000899999V0200801N012010048019N0010001N1-00151-00261098611ADDAA112000891AY181061AY231061GA1061+004809099GF108991061091004501051999IA1249KA1120N-00581MD1710081+9999MW1861OA140101501REMSYN106AAXX  08061 22003 11494 80812 11015 21026 49861 57008 69982 78683 8695/ 333 21058 488/5 86916 91015 91120;
0254220030999992000030906004+69950+032030FM-12+000899999V0200401N012010054019N0040001N1-00121-00121098191ADDAA112000191AJ100279199999999AY181061AY231061GA1051+005409099GF108991081091004501999999IA1249KA1120N-00221MD1810071+9999MW1851OA140101501REMSYN106AAXX  09061 22003 11496 80412 11012 21012 49819 58007 69922 78583 889// 333 21022 48027 85918 91015 91116;
0240220030999992000031006004+69950+032030FM-12+000899999V0203501N015010051019N0020001N1-00171-00171099341ADDAA112000591AJ100299199999999AY181061GA1061+005109099GF108991999999004501999999IA1249KA1120N-00201MD1210141+9999MW1861OA140101901REMSYN100AAXX  10061 22003 11495 83515 11017 21017 49934 52014 69952 7868/ 333 21020 48029 86917 91019 91120;
0239220030999992000031306004+69950+032030FM-12+000899999V0202201N007010075019N0200001N1-00521-00551999999ADDAA199000091AJ100489199999999AY131061AY211061GF107991061091008001041001IA1249KA1120N-00591MD1710261+9999MW1021OA140100901REMSYN088AAXX  13061 22003 31598 72207 11052 21055 57026 70231 86940 333 21059 48048 91009 91113;EQDQ01  00002PRCP99
0167220030999992000031312004+69950+032030FM-12+000899999V0202001N014010300019N0200001N1-00391-00511098471ADDAY181061AY231061GF107991021051008001081999MD1710271+9999MW1371OA140101801REMSYN082AAXX  13121 22003 41598 72014 11039 21051 49847 57027 73783 8258/ 333 91018 91120;
0146220030999992000031406004+69950+032030FM-12+000899999V0202201N012019999999N0500001N1-00081-00501097941ADDGF107991999999999999999999MD1310191+9999REMSYN094AAXX  14061 22003 11/99 72212 11008 21050 49794 53019 6992= 82541 333 21024 48031 91016 91118;
0167220030999992000031412004+69950+032030FM-12+000899999V0202201N009019999999N0500001N1-00061-00471098391ADDAY131061AY221061GF108991081001999999071999MD1210211+9999MW1021OA140101201REMSYN082AAXX  14121 22003 41999 82209 11006 21047 49839 52021 70232 8807/ 333 91012 91116;
0187220030999992000031606004+69950+032030FM-12+000899999V0201801N003012200019N0500001N1-00611-00721100931ADDAA112000391AJ100329199999999GF102991001001999999001011IA1249KA1120N-00811MD1210281+9999REMSYN088AAXX  16061 22003 12999 21803 11061 21072 40093 52028 69932 80001 333 21081 48032 91005;
0150220030999992000031712004+69950+032030FM-12+000899999V0201901N002012200019N0500001N1-00491-00771102261ADDAY181061AY211061GF102991011051012501001011MD1810081+9999MW1021REMSYN076AAXX  17121 22003 41699 21902 11049 21077 40226 58008 70281 81501 333 91003;
0169220030999992000031812004+69950+032030FM-12+000899999V0202201N086029999999N0500001N1-00091-00271101951ADDAY131061AY221061GF108991999999008001999999MD1210111+9999MW1021REMSYN076AAXX  18121 22003 41599 82286 11009 21027 40195 52011 70232 333 91007 91110;EQDQ01+008603WOSPD 
0245220030999992000031906004+69950+032030FM-12+000899999V0202001N008010300019N0500001N1-00321-00601100791ADDAA199000091AJ100349199999999AY131061AY211061GF106991031051012501041001IA1249KA1120N-00371MD1710341+9999MW1361OA140101101REMSYN094AAXX  19061 22003 31699 62008 11032 21060 40079 57034 73631 83540 333 21037 48034 91011 91114;EQDQ01  00002PRCP99
0167220030999992000031912004+69950+032030FM-12+000899999V0201901N012010075019N0500001N1-00041-00311100021ADDAY131061AY221061GF107991061051008001001081MD1710381+9999MW1361OA140101501REMSYN082AAXX  19121 22003 41599 71912 11004 21031 40002 57038 73632 86508 333 91015 91118;
0139220030999992000032112004+69950+032030FM-12+000899999V0202601N012010075019N0500001N1-00061-00541098371ADDGF106991051051008001031001MD1210121+9999OA140101501REMSYN076AAXX  21121 22003 42599 62612 11006 21054 49837 52012 85530 333 91015 91117;
0167220030999992000032212004+69950+032030FM-12+000899999V0202301N012010120019N0500001N1-00041-00481098341ADDAY171061AY231061GF107991061051012501071001MD1210041+9999MW1021OA140101501REMSYN082AAXX  22121 22003 41699 72312 11004 21048 49834 52004 70273 86570 333 91015 91115;
0172220030999992000032512004+69950+032030FM-12+000899999V0200701N004010060019N0200001N1-00141-00251100501ADDAY181061AY221061GA1061+006009099GF108991081091008001999999MD1210151+9999MW1261REMSYN082AAXX  25121 22003 41598 80704 11014 21025 40050 52015 72682 889// 333 86920 91005;
0232220030999992000032706004+69950+032030FM-12+000899999V0202801N010010300019N0500001N1-00331-00721101551ADDAA112000391AJ100379199999999AY131061AY211061GF106991041091004501031001IA1249KA1120N-00441MD1810061+9999MW1361OA140101201REMSYN100AAXX  27061 22003 11499 62810 11033 21072 40155 58006 69932 73631 84930 333 21044 48037 91012 91112;
0231220030999992000033106004+69950+032030FM-12+000899999V0203201N012010075019N0200001N1-00511-01011100031ADDAA112000191AJ100369199999999AY181061AY231061GF106991061091008001001001IA1249KA1120N-00551MD1210221+9999MW1361OA140101501REMSYN099AAXX  31061 22003 11598 63212 11051 21101 40003 52022 69922 73683 86900 333 21055 48036 91015 1117;
0167220030999992000033112004+69950+032030FM-12+000899999V0202801N009012200019N0500001N1-00541-01051100361ADDAY131061AY221061GF105991031091008001001011MD1210141+9999MW1361OA140101201REMSYN082AAXX  31121 22003 41599 52809 11054 21105 40036 52014 73632 83901 333 91012 91118;
0232220030999992000040106004+69950+032030FM-12+000899999V0202301N003010075019N0040001N1-00471-00601100241ADDAA112000891AJ100359199999999AY181061AY231061GF107991061091008001031011IA1249KA1120N-00691MD1210061+9999MW1871OA140100401REMSYN100AAXX  01061 22003 11596 72303 11047 21060 40024 52006 69982 78783 86931 333 21069 48035 91004 91116;
0232220030999992000040206004+69950+032030FM-12+000899999V0200401N011010075019N0040001N1-00321-00711100361ADDAA112000791AJ100339199999999AY181061AY231061GF107991061091008001001011IA1249KA1120N-00411MD1210131+9999MW1851OA140101501REMSYN100AAXX  02061 22003 11596 70411 11032 21071 40036 52013 69902 78583 86901 333 21041 48033 91015 91117;
0232220030999992000040506004+69950+032030FM-12+000899999V0201701N009019999999N0040001N1-00091-00221099951ADDAA112002091AJ100349199999999AY171061AY231061GF108991081001999999071999IA1249KA1120N-00451MD1710101+9999MW1711OA140101101REMSYN100AAXX  05061 22003 11996 81709 11009 21022 49995 57010 60022 77173 8807/ 333 21045 48034 91011 91113;
