0159224220999992000010100004+65900+034770FM-12+001099999V0200901N006010036019N0130001N1-00631-00821102031ADDGA1071+003609059GF107991071051004501001001MA1999999101881MD1210121+9999REMSYN076AAXX  01001 22422 42463 70906 11063 21082 30188 40203 52012 87500 333 87612;
0166224220999992000010103004+65900+034770FM-12+001099999V0201301N003010030019N0060001N1-00461-00621102071ADDAY171031AY221031GA1081+003009069GF108991999071004501021999MD1210041+9999MW1711REMSYN076AAXX  01031 22422 41456 81303 11046 21062 40207 52004 77172 8872/ 333 88710;
0149224220999992000010106004+65900+034770FM-12+001099999V0201201N003010030019N0100001N1-00421-00601102251ADDAA106000021GA1071+003009059GF107991071051004501001001MD1210181+9999REMSYN070AAXX  01061 22422 31460 71203 11042 21060 40225 52018 87500 333 87610;
0166224220999992000010109004+65900+034770FM-12+001099999V0209999C000010033019N0060001N1-00951-01111102421ADDAY171031AY221031GA1071+003309059GF107991071051004501001001MD1210161+9999MW1711REMSYN076AAXX  01091 22422 41456 70000 11095 21111 40242 52016 77172 87500 333 87611;
0187224220999992000010112004+65900+034770FM-12+001099999V0201801N002010060019N0060001N1-00951-01111102331ADDAY171061AY221061GA1051+006009059GF108991051051008001071999MA1999999102171MD1810091+9999MW1711REMSYN082AAXX  01121 22422 41556 81802 11095 21111 30217 40233 58009 77172 8557/ 333 85620;
0166224220999992000010115004+65900+034770FM-12+001099999V0201801N002010048019N0060001N1-01181-01311102411ADDAY171031AY221031GA1071+004809059GF107991071051004501001001MD1310081+9999MW1711REMSYN076AAXX  01151 22422 41456 71802 11118 21131 40241 53008 77172 87500 333 87616;
0152224220999992000010118004+65900+034770FM-12+001099999V0201801N002010210019N0130001N1-01261-01461102581ADDAA112000391GF108991081001022501021999KA1999M-00931MD1210171+9999REMSYN076AAXX  01181 22422 12863 81802 11126 21146 40258 52017 69932 8802/ 333 11093;
0133224220999992000010200004+65900+034770FM-12+001099999V0201901N002010210019N0140001N1-01281-01451102631ADDGF107991071001022501021999MA1999999102481MD1410001+9999REMSYN066AAXX  02001 22422 42864 71902 11128 21145 30248 40263 54000 8702/;
0140224220999992000010309004+65900+034770FM-12+001099999V0201801N010010210019N0080001N1-01101-01341101341ADDAY131031AY231031GF106991061001022501031001MD1610221+9999MW1381REMSYN066AAXX  03091 22422 41858 61810 1111/ 21134 40134 56022 73833 86030;
0161224220999992000010312004+65900+034770FM-12+001099999V0201801N011010300019N0070001N1-01111-01311101241ADDAY131061AY231061GF108991031051004501021999MA1999999101081MD1710101+9999MW1381REMSYN072AAXX  03121 22422 41457 81811 11111 21131 30108 40124 57010 73833 8352/;
0150224220999992000010315004+65900+034770FM-12+001099999V0201701N008012200019N0120001N1-01251-01451101181ADDAY131031AY231031GA1001+999999999GF100991001001999999001001MD1710061+9999MW1371REMSYN060AAXX  03151 22422 41962 01708 11125 21145 40118 57006 73733;
0215224220999992000010318004+65900+034770FM-12+001099999V0201501N008010045019N0110001N1-01181-01381101031ADDAA106000091AY131061AY231061GA1071+004509059GF107991071051004501001001KA1120M-01101MD1710151+9999MW1371REMSYN082AAXX  03181 22422 31461 71508 11118 21138 40103 57015 73733 87500 333 11110 87615;EQDQ01  00002PRCP06
0206224220999992000010400004+65900+034770FM-12+001099999V0201401N008010030019N0080001N1-01061-01261100761ADDAY171061AY231061GA1081+003009069GF108991999071001501021999MA1999999100601MD1710141+9999MW1711REMSYN082AAXX  04001 22422 41258 81408 11106 21126 30060 40076 57014 77173 8872/ 333 88710;EQDQ01+000082SCOTLC
0185224220999992000010403004+65900+034770FM-12+001099999V0202601N009010027019N0042001N1-01011-01141100531ADDAY171031AY271031GA1081+002709069GF108991999071002501021999MD1710231+9999MW1711REMSYN076AAXX  04031 22422 41342 82609 11101 21114 40053 57023 77177 8872/ 333 88709;EQDQ01+000082SCOTLC
0177224220999992000010406004+65900+034770FM-12+001099999V0201201N003010042019N0140001N1-01101-01301100281ADDAA106000021AY131061AY221061GA1061+004209059GF106991061051001501031001MD1210251+9999MW1361REMSYN076AAXX  04061 22422 31264 61203 11110 21130 40028 52025 73632 86530 333 86614;
0166224220999992000010409004+65900+034770FM-12+001099999V0202001N010010030019N0042001N1-01011-01211100141ADDAY171031AY231031GA1051+003009069GF108991051071004501021999MD1710141+9999MW1711REMSYN076AAXX  04091 22422 41442 82010 11101 21121 40014 57014 77173 8572/ 333 85710;
0161224220999992000010412004+65900+034770FM-12+001099999V0201901N009010210019N0048001N1-01021-01151099801ADDAY171061AY231061GF108991081001022501021999MA1999999099641MD1710341+9999MW1381REMSYN072AAXX  04121 22422 41848 81909 11102 21115 39964 49980 57034 73873 8802/;
0185224220999992000010415004+65900+034770FM-12+001099999V0201801N009010033019N0036001N1-01011-01141099661ADDAY171031AY231031GA1081+003309069GF108991999071004501021999MD1710141+9999MW1711REMSYN076AAXX  04151 22422 41436 81809 11101 21114 49966 57014 77173 8872/ 333 88711;EQDQ01+000082SCOTLC
0221224220999992000010418004+65900+034770FM-12+001099999V0201701N006010027019N0035001N1-00981-01151099461ADDAA112000891AY171061AY231061GA1081+002709069GF108991999071002501021999KA1120M-00961MD1710201+9999MW1711REMSYN088AAXX  04181 22422 11335 81706 11098 21115 49946 57020 69982 77173 8872/ 333 11096 88709;EQDQ01+000082SCOTLC
0206224220999992000010500004+65900+034770FM-12+001099999V0201601N007010030019N0036001N1-00821-00961099381ADDAY171061AY231061GA1081+003009069GF108991999071004501021999MA1999999099211MD1410001+9999MW1711REMSYN082AAXX  05001 22422 41436 81607 11082 21096 39921 49938 54000 77173 8872/ 333 88710;EQDQ01+000082SCOTLC
0185224220999992000010503004+65900+034770FM-12+001099999V0201601N002010021019N0040001N1-01061-01191099391ADDAY171031AY271031GA1081+002109069GF108991999071002501021999MD1310031+9999MW1711REMSYN076AAXX  05031 22422 41340 81602 11106 21119 49939 53003 77177 8872/ 333 88707;EQDQ01+000082SCOTLC
0149224220999992000010506004+65900+034770FM-12+001099999V0201701N002010042019N0140001N1-01041-01241099481ADDAA106000021GA1081+004209059GF108991081051004501001001MD1210081+9999REMSYN070AAXX  05061 22422 32464 81702 11104 21124 49948 52008 88500 333 88614;
0166224220999992000010509004+65900+034770FM-12+001099999V0201801N001010042019N0060001N1-00951-01071099601ADDAY171031AY221031GA1071+004209059GF107991071051004501001001MD1210131+9999MW1711REMSYN076AAXX  05091 22422 41456 71801 11095 21107 49960 52013 77172 87500 333 87614;
0159224220999992000010512004+65900+034770FM-12+001099999V0202001N001010042019N0160001N1-00941-01101099741ADDGA1061+004209059GF107991061051004501031001MA1999999099591MD1210141+9999REMSYN076AAXX  05121 22422 42466 72001 11094 21110 39959 49974 52014 86530 333 86614;
0166224220999992000010515004+65900+034770FM-12+001099999V0202201N002010033019N0050001N1-00921-01081099981ADDAY171031AY271031GA1071+003309059GF107991071051004501001001MD1210231+9999MW1711REMSYN076AAXX  05151 22422 41450 72202 11092 21108 49998 52023 77177 87500 333 87611;
0183224220999992000010518004+65900+034770FM-12+001099999V0202001N002010033019N0060001N1-00881-01031100161ADDAA112000591AY171061AY271061GA1071+003309059GF107991071051004501001001MD1210181+9999MW1711REMSYN082AAXX  05181 22422 11456 72002 11088 21103 40016 52018 69962 77177 87500 333 87611;
0138224220999992000010603004+65900+034770FM-12+001099999V0202201N001010039019N0140001N1-00811-00991100801ADDGA1071+003909059GF107991071051004501001001MD1210111+9999REMSYN070AAXX  06031 22422 42464 72201 11081 21099 40080 52011 87500 333 87613;
0168224220999992000010606004+65900+034770FM-12+001099999V0202201N001010039019N0160001N1-00801-00981100841ADDAA106000091GA1071+003909059GF107991071051004501001001MD1210141+9999REMSYN070AAXX  06061 22422 32466 72201 11080 21098 40084 52014 87500 333 87613;EQDQ01  00002PRCP06
0138224220999992000010609004+65900+034770FM-12+001099999V0202701N001010048019N0140001N1-00881-00991101031ADDGA1071+004809059GF107991071051004501001001MD1210091+9999REMSYN070AAXX  06091 22422 42464 72701 11088 21099 40103 52009 87500 333 87616;
0187224220999992000010612004+65900+034770FM-12+001099999V0202201N002010033019N0050001N1-00931-01051101061ADDAY171061AY221061GA1071+003309059GF107991071051004501001001MA1999999100901MD1210031+9999MW1711REMSYN082AAXX  06121 22422 /1450 72202 11093 21105 30090 40106 52003 77172 87500 333 87611;
0112224220999992000010615004+65900+034770FM-12+001099999V0201401N004012200019N0140001N1-01321-01451100911ADDGF103991031001022501031001MD1810151+9999REMSYN060AAXX  06151 22422 42864 31404 11132 21145 40091 58015 83030;
0187224220999992000010700004+65900+034770FM-12+001099999V0201501N007010045019N0100001N1-00741-00871100151ADDAY131061AY231061GA1071+004509059GF107991071051004501001001MA1999999099991MD1710191+9999MW1361REMSYN082AAXX  07001 22422 41460 71507 11074 21087 39999 40015 57019 73633 87500 333 87615;
0220224220999992000010703004+65900+034770FM-12+001099999V0201401N006010027019N0044001N1-00321-00391999999ADDAY171031AY231031GA1081+002709079GF108991999071002501021999MD1810562+9999ME1559589MW1711REMSYN086AAXX  07031 22422 41344 81406 11032 21039 45958 58056 77173 8872/ 333 88709 555 7002/;EQDQ01+000082SCOTLCQ02+000562APC3  
0185224220999992000010706004+65900+034770FM-12+001099999V0201401N005010027019N0045001N1-00101-00171099281ADDAY171061AY231061GA1081+002709069GF108991999071004501021999MD1710301+9999MW1711REMSYN076AAXX  07061 22422 11445 81405 11010 21017 49928 57030 77173 8872/ 333 88709;EQDQ01+000082SCOTLC
0138224220999992000010709004+65900+034770FM-12+001099999V0202001N004010030019N0130001N1+00011-00021099191ADDGA1071+003009059GF107991071051004501001001MD1710091+9999REMSYN070AAXX  07091 22422 42463 72004 10001 21002 49919 57009 87500 333 87610;
0184224220999992000010712004+65900+034770FM-12+001099999V0202001N003010021019N0060001N1+00051-00051099031ADDAY171061AY231061GF108991999071002501021999MA1999999098881MD1710161+9999MW1711REMSYN076AAXX  07121 22422 41356 82003 10005 21005 39888 49903 57016 77173 8872/ 333;EQDQ01+000082SCOTLC
0138224220999992000010715004+65900+034770FM-12+001099999V0201801N004010033019N0120001N1+00051-00051098951ADDGA1071+003309059GF107991071051004501001001MD1710081+9999REMSYN070AAXX  07151 22422 42462 71804 10005 21005 49895 57008 87500 333 87611;
0152224220999992000010718004+65900+034770FM-12+001099999V0201801N003010300019N0120001N1+00041-00021099021ADDAA112001091GF105991021051004501031001KA1999M+00071MD1310071+9999REMSYN076AAXX  07181 22422 12462 51803 10004 21002 49902 53007 69992 82530 333 10007;
0143224220999992000010800004+65900+034770FM-12+001099999V0209999C000012200019N0140001N1-00381-00561099281ADDGA1001+999999999GF100991001001999999001001MA1999999099131MD1210061+9999REMSYN060AAXX  08001 22422 42964 00000 11038 21056 39913 49928 52006;
0168224220999992000010806004+65900+034770FM-12+001099999V0202601N004010045019N0140001N1-00201-00291099251ADDAA106000091GA1071+004509059GF107991071051004501001001MD1610011+9999REMSYN070AAXX  08061 22422 32464 72604 11020 21029 49925 56001 87500 333 87615;EQDQ01  00002PRCP06
0138224220999992000010809004+65900+034770FM-12+001099999V0202401N004010045019N0150001N1-00151-00381099121ADDGA1051+004509059GF107991051051004501031001MD1710301+9999REMSYN070AAXX  08091 22422 42465 72404 11015 21038 49912 57030 85530 333 85615;
0159224220999992000010812004+65900+034770FM-12+001099999V0201801N004010042019N0100001N1-00111-00271098741ADDGA1081+004209099GF108991081091004501999999MA1999999098591MD1710381+9999REMSYN076AAXX  08121 22422 42460 81804 11011 21027 39859 49874 57038 889// 333 88914;
0138224220999992000010815004+65900+034770FM-12+001099999V0201501N007010039019N0100001N1-00081-00241098301ADDGA1081+003909059GF108991081051004501001001MD1710441+9999REMSYN070AAXX  08151 22422 42460 81507 11008 21024 49830 57044 88500 333 88613;
0187224220999992000010818004+65900+034770FM-12+001099999V0201601N005010039019N0100001N1+00181+00021097991ADDAA106000091GA1081+003909059GF108991081051004501001001KA1120M+00161MD1710311+9999REMSYN076AAXX  08181 22422 32460 81605 10018 20002 49799 57031 88500 333 10016 88613;EQDQ01  00002PRCP06
0106224220999992000010903004+65900+034770FM-12+001099999V0201901N006012200019N0150001N1+00141-00031098231ADDGF103991999999022501999999MD1310151+9999REMSYN054AAXX  09031 22422 42865 31906 10014 21003 49823 53015;
0112224220999992000010909004+65900+034770FM-12+001099999V0202701N007012200019N0200001N1+00251-00211098461ADDGF105991031001022501031011MD1210181+9999REMSYN060AAXX  09091 22422 42870 52707 10025 21021 49846 52018 83031;
0143224220999992000010912004+65900+034770FM-12+001099999V0202801N006012200019N0190001N1+00181-00361098651ADDGA1001+999999999GF100991001001999999001001MA1999999098501MD1210191+9999REMSYN060AAXX  09121 22422 42969 02806 10018 21036 39850 49865 52019;
0122224220999992000010915004+65900+034770FM-12+001099999V0202601N007012200019N0170001N1+00141-00411098771ADDGA1001+999999999GF100991001001999999001001MD1210121+9999REMSYN054AAXX  09151 22422 42967 02607 10014 21041 49877 52012;
0143224220999992000011000004+65900+034770FM-12+001099999V0202401N006012200019N0150001N1-00181-00641100351ADDGA1001+999999999GF100991001001999999001001MA1999999100201MD1210211+9999REMSYN060AAXX  10001 22422 42965 02406 11018 21064 30020 40035 52021;
0122224220999992000011003004+65900+034770FM-12+001099999V0202301N006012200019N0170001N1-00211-00641099661ADDGA1001+999999999GF100991001001999999001001MD1210151+9999REMSYN054AAXX  10031 22422 42967 02306 11021 21064 49966 52015;
0181224220999992000011006004+65900+034770FM-12+001099999V0202301N007012200019N0180001N1-00201-00621099851ADDAA106000091AJ100509199999999GF102991001001999999001011IA1249MD1219999+9999REMSYN076AAXX  10061 22422 32968 22307 11020 21062 49985 520/9 80001 555 21023 48050;EQDQ01  00002PRCP06
0112224220999992000011009004+65900+034770FM-12+001099999V0202601N006012200019N0210001N1-00161-00501100041ADDGF103991001001999999001011MD1210191+9999REMSYN060AAXX  10091 22422 42971 32606 11016 21050 40004 52019 80001;
0133224220999992000011012004+65900+034770FM-12+001099999V0202701N006012200019N0190001N1-00241-00641100261ADDGF103991001001999999001011MA1999999100111MD1210221+9999REMSYN066AAXX  10121 22422 42969 32706 11024 21064 30011 40026 52022 80001;
0122224220999992000011015004+65900+034770FM-12+001099999V0202701N005012200019N0170001N1-00491-00851100431ADDGA1001+999999999GF100991001001999999001001MD1210171+9999REMSYN054AAXX  10151 22422 42967 02705 11049 21085 40043 52017;
0175224220999992000011018004+65900+034770FM-12+001099999V0202801N005012200019N0160001N1-00451-00761100571ADDAA106000091GA1001+999999999GF100991001001999999001001KA1999M-00141MD1210151+9999REMSYN064AAXX  10181 22422 32966 02805 11045 21076 40057 52015 333 11014;EQDQ01  00002PRCP06
0143224220999992000011100004+65900+034770FM-12+001099999V0202401N003012200019N0150001N1-00941-01291100951ADDGA1001+999999999GF100991001001999999001001MA1999999100841MD1210251+9999REMSYN060AAXX  11001 22422 42965 02403 11094 21129 30084 40095 52025;
0122224220999992000011103004+65900+034770FM-12+001099999V0202401N003012200019N0190001N1-01021-01381101031ADDGA1001+999999999GF100991001001999999001001MD1210041+9999REMSYN054AAXX  11031 22422 42969 02403 11102 21138 40103 52004;
0142224220999992000011106004+65900+034770FM-12+001099999V0202501N003010210019N0200001N1-00781-01091101081ADDAA106000091GF105991051001022501031001MD1210041+9999REMSYN060AAXX  11061 22422 32870 52503 11078 21109 40108 52004 85030;EQDQ01  00002PRCP06
0131224220999992000011109004+65900+034770FM-12+001099999V0202301N003012200019N0180001N1-00521-00591100911ADDGF101991999001022501031001MD1810161+9999REMSYN060AAXX  11091 22422 42868 12303 11052 21059 40091 58016 84030;EQDQ01+000042SCOTLC
0161224220999992000011112004+65900+034770FM-12+001099999V0202101N003010210019N0050001N1-00401-00521100781ADDAY171061AY221061GF108991081001022501021999MA1999999100651MD1710131+9999MW1711REMSYN072AAXX  11121 22422 /1850 82103 11040 21052 30065 40078 57013 77172 8802/;
0112224220999992000011115004+65900+034770FM-12+001099999V0202001N003012200019N0130001N1-00491-00661100581ADDGF102991001001999999001011MD1710201+9999REMSYN060AAXX  11151 22422 42963 22003 11049 21066 40058 57020 80001;
0162224220999992000011118004+65900+034770FM-12+001099999V0202101N003012200019N0150001N1-00561-00741100511ADDAA112000791GA1001+999999999GF100991001001999999001001KA1999M-00371MD1710071+9999REMSYN070AAXX  11181 22422 31965 02103 11056 21074 40051 57007 69902 333 11037;
0143224220999992000011200004+65900+034770FM-12+001099999V0201901N002012200019N0150001N1-00811-01041100351ADDGA1001+999999999GF100991001001999999001001MA1999999100201MD1710081+9999REMSYN060AAXX  12001 22422 42965 01902 11081 21104 30020 40035 57008;
0157224220999992000011203004+65900+034770FM-12+001099999V0201801N002010042019N0170001N1-00511-00721100631ADDGA1071+004209059GF199999051051004501031001MD1310281+9999REMSYN070AAXX  12031 22422 42467 61802 11051 21072 40063 53028 85530 333 87614;EQDQ01+000062SCOTCV
0142224220999992000011206004+65900+034770FM-12+001099999V0202701N002012200019N0160001N1-00351-00461100721ADDAA106000091GF102991021001022501031001MD1210091+9999REMSYN060AAXX  12061 22422 32866 22702 11035 21046 40072 52009 82030;EQDQ01  00002PRCP06
0112224220999992000011209004+65900+034770FM-12+001099999V0202601N002010210019N0200001N1-00381-00531100781ADDGF106991061001022501031001MD1210061+9999REMSYN060AAXX  12091 22422 42870 62602 11038 21053 40078 52006 86030;
0159224220999992000011212004+65900+034770FM-12+001099999V0202601N002010051019N0180001N1-00251-00411100651ADDGA1071+005109059GF107991071051004501001001MA1999999100501MD1810131+9999REMSYN076AAXX  12121 22422 42468 72602 11025 21041 30050 40065 58013 87500 333 87617;
0138224220999992000011215004+65900+034770FM-12+001099999V0202601N002010039019N0150001N1-00181-00291100491ADDGA1071+003909059GF107991071051004501001001MD1710161+9999REMSYN070AAXX  12151 22422 42465 72602 11018 21029 40049 57016 87500 333 87613;
0202224220999992000011218004+65900+034770FM-12+001099999V0202401N002010039019N0060001N1-00141-00221100101ADDAA112000791AY171061AY221061GA1081+003909059GF108991081051004501001001KA1120M-00131MD1710391+9999MW1711REMSYN088AAXX  12181 22422 11456 82402 11014 21022 40010 57039 69902 77172 88500 333 11013 88613;
0159224220999992000011300004+65900+034770FM-12+001099999V0202401N001010042019N0130001N1-00141-00221099661ADDGA1081+004209059GF108991081051004501001001MA1999999099511MD1710141+9999REMSYN076AAXX  13001 22422 42463 82401 11014 21022 39951 49966 57014 88500 333 88614;
0138224220999992000011303004+65900+034770FM-12+001099999V0202401N001010039019N0160001N1-00141-00311099531ADDGA1081+003909059GF108991081051004501001001MD1710271+9999REMSYN070AAXX  13031 22422 42466 82401 11014 21031 49953 57027 88500 333 88613;
0138224220999992000011306004+65900+034770FM-12+001099999V0209999C000010048019N0190001N1-00021-00051099631ADDGA1071+004809099GF107991071091004501001001MD1310101+9999REMSYN070AAXX  13061 22422 12469 70000 11002 21005 49963 53010 87900 333 87916;
0138224220999992000011309004+65900+034770FM-12+001099999V0202901N005010042019N0190001N1-00221-00361100081ADDGA1051+004209059GF106991051051004501031001MD1310451+9999REMSYN070AAXX  13091 22422 42469 62905 11022 21036 40008 53045 85530 333 85614;
0159224220999992000011312004+65900+034770FM-12+001099999V0203001N004010300019N0200001N1-00271-00461100441ADDGA1041+004809059GF106991041051004501031001MA1999999100291MD1210361+9999REMSYN076AAXX  13121 22422 42470 63004 11027 21046 30029 40044 52036 84530 333 84616;
0112224220999992000011315004+65900+034770FM-12+001099999V0203401N002010210019N0180001N1-00731-00901100921ADDGF108991081001022501011999MD1210281+9999REMSYN060AAXX  13151 22422 42868 83402 11073 21090 40092 52028 8801/;
0165224220999992000011318004+65900+034770FM-12+001099999V0202801N001010210019N0140001N1-00521-00591100831ADDAA106000091GF108991081001022501021999KA1999M+00001MD1210111+9999REMSYN070AAXX  13181 22422 32864 82801 11052 21059 40083 52011 8802/ 333 10000;EQDQ01  00002PRCP06
0116224220999992000011403004+65900+034770FM-12+001099999V0209999C000010210019N0150001N1-00531-00631101021ADDGF108991081001022501021999MD1410001+9999REMSYN064    AAXX  14031 22422 42865 80000 11053 21063 40102 54000 8802/;
0169224220999992000011406004+65900+034770FM-12+001099999V0209999C000010210019N0170001N1-00561-00701101061ADDAA199000091GF108991081001022501021999KA1999M-00451MD1310041+9999REMSYN074    AAXX  14061 22422 32867 80000 11056 21070 40106 53004 8802/ 333 11045;EQDQ01  00002PRCP99
0142224220999992000011409004+65900+034770FM-12+001099999V0202701N001010045019N0190001N1-00621-00741101181ADDGA1071+004509059GF107991071051004501001001MD1210121+9999REMSYN074    AAXX  14091 22422 42469 72701 11062 21074 40118 52012 87500 333 87615;
0163224220999992000011412004+65900+034770FM-12+001099999V0202701N001010051019N0180001N1-00551-00691101281ADDGA1071+005109059GF107991071051004501001001MA1999999101151MD1210101+9999REMSYN080    AAXX  14121 22422 42468 72701 11055 21069 30115 40128 52010 87500 333 87617;
0116224220999992000011415004+65900+034770FM-12+001099999V0202801N001010210019N0170001N1-00591-00701101351ADDGF106991061001022501031001MD1210071+9999REMSYN064    AAXX  14151 22422 42867 62801 11059 21070 40135 52007 86030;
0179224220999992000011418004+65900+034770FM-12+001099999V0202601N002012200019N0170001N1-00821-01051101331ADDAA199000091GA1001+999999999GF100991001001999999001001KA1999M-00531MD1810021+9999REMSYN068    AAXX  14181 22422 32967 02602 11082 21105 40133 58002 333 11053;EQDQ01  00002PRCP99
0147224220999992000011500004+65900+034770FM-12+001099999V0202501N003012200019N0160001N1-01261-01461101281ADDGA1001+999999999GF100991001001999999001001MA1999999101121MD1710051+9999REMSYN064    AAXX  15001 22422 42966 02503 11126 21146 30112 40128 57005;
0154224220999992000011503004+65900+034770FM-12+001099999V0202401N003010210019N0060001N1-00781-00931100881ADDAY171031AY211031GF108991081001022501021999MD1710391+9999MW1711REMSYN080    AAXX  15031 22422 41856 82403 11078 21093 40088 57039 77171 8802/ 555 7990/;
0142224220999992000011506004+65900+034770FM-12+001099999V0202501N003010042019N0130001N1-00651-00821100771ADDGA1071+004209059GF107991071051004501001001MD1710111+9999REMSYN074    AAXX  15061 22422 12463 72503 11065 21082 40077 57011 87500 333 87614;
0142224220999992000011509004+65900+034770FM-12+001099999V0202801N003010042019N0150001N1-00631-00821100701ADDGA1071+004209029GF107991071051004501001001MD1710121+9999REMSYN074    AAXX  15091 22422 42465 72803 11063 21082 40070 57012 87500 333 87514;
0137224220999992000011512004+65900+034770FM-12+001099999V0202701N003010300019N0190001N1-00531-00721100611ADDGF106991031071004501051001MA1999999100461MD1710071+9999REMSYN070    AAXX  15121 22422 42469 62703 11053 21072 30046 40061 57007 83750;
0151224220999992000011515004+65900+034770FM-12+001099999V0202801N999992200019N0002001N1-00581-00771100691ADDGF104991999001000251051001MD1310081+9999REMSYN064    AAXX  15151 22422 22002 42868 11058 21077 40069 53008 82050;EQDQ01+006803WOSPD Q02+000022SCOTLC
0168224220999992000011518004+65900+034770FM-12+001099999V0202101N002012200019N0180001N1-00781-00961100741ADDGA1001+999999999GF100991001001999999001001KA1999M+99999MD1210051+9999REMSYN068    AAXX  15181 22422 42968 02102 11078 21096 40074 52005 333 11087;EQDQ01 -00872ATMX  
0147224220999992000011600004+65900+034770FM-12+001099999V0202101N002012200019N0150001N1-01301-01501100701ADDGA1001+999999999GF100991001001999999001001MA1999999100541MD1810051+9999REMSYN064    AAXX  16001 22422 42965 02102 11130 21150 30054 40070 58005;
0116224220999992000011609004+65900+034770FM-12+001099999V0201901N002012200019N0240001N1-01401-01601100301ADDGF102991021001022501031001MD1810011+9999REMSYN064    AAXX  16091 22422 42874 21902 11140 21160 40030 58001 82030;
0137224220999992000011612004+65900+034770FM-12+001099999V0201801N003010210019N0190001N1-00961-01171099671ADDGF108991081001022501021999MA1999999099521MD1810621+9999REMSYN070    AAXX  16121 22422 42869 81803 11096 21117 39952 49967 58062 8802/;
0116224220999992000011615004+65900+034770FM-12+001099999V0201501N006010210019N0170001N1-00581-00711098951ADDGF108991081001022501021999MD1710721+9999REMSYN064    AAXX  16151 22422 42867 81506 11058 21071 49895 57072 8802/;
0203224220999992000011618004+65900+034770FM-12+001099999V0201501N008010210019N0048001N1-00421-00511098211ADDAA112000391AY171061AY231061GF108991081001022501021999KA1999M+99999MD1710741+9999MW1381REMSYN086    AAXX  16181 22422 11848 81508 11042 21051 49821 57074 69932 73873 8802/ 333 11140;EQDQ01 -01402ATMX  
0165224220999992000011700004+65900+034770FM-12+001099999V0201401N002010210019N0060001N1-00381-00461097391ADDAY171061AY221061GF108991081001022501021999MA1999999097242MD1710381+9999MW1711REMSYN076    AAXX  17001 22422 41856 81402 11038 21046 39724 49739 57038 77172 8802/;
0116224220999992000011703004+65900+034770FM-12+001099999V0201601N002010210019N0130001N1-00361-00471097231ADDGF108991081001022501021999MD1710141+9999REMSYN064    AAXX  17031 22422 42863 81602 11036 21047 49723 57014 8802/;
0165224220999992000011712004+65900+034770FM-12+001099999V0200901N006010210019N0100001N1-00201-00221097391ADDAY131061AY221061GF108991081001022501021999MA1999999097241MD1210071+9999MW1361REMSYN076    AAXX  17121 22422 41860 80906 11020 21022 39724 49739 52007 73632 8802/;
0144224220999992000011715004+65900+034770FM-12+001099999V0200901N012010210019N0120001N1-00321-00491097901ADDAY131031AY221031GF108991081001022501021999MD1310511+9999MW1381REMSYN070    AAXX  17151 22422 41862 80912 11032 21049 49790 53051 73832 8802/;
0184224220999992000011718004+65900+034770FM-12+001099999V0200401N013010210019N0120001N1-00531-00741098331ADDAA112000591AY131061AY221061GF108991081001022501021999KA1999M-00521MD1210431+9999MW1381REMSYN086    AAXX  17181 22422 11862 80413 11053 21074 49833 52043 69952 73832 8802/ 333 11052;
0165224220999992000011800004+65900+034770FM-12+001099999V0200301N012010210019N0110001N1-00681-00841098991ADDAY131061AY221061GF108991081001022501021999MA1999999098831MD1210321+9999MW1381REMSYN076    AAXX  18001 22422 41861 80312 11068 21084 39883 49899 52032 73832 8802/;
0144224220999992000011803004+65900+034770FM-12+001099999V0200401N012010210019N0130001N1-00721-00931099041ADDAY131031AY221031GF108991081001022501021999MD1210061+9999MW1381REMSYN070    AAXX  18031 22422 41863 80412 11072 21093 49904 52006 73832 8802/;
0170224220999992000011806004+65900+034770FM-12+001099999V0200401N011010039019N0140001N1-00761-00981099351ADDAY131061AY221061GA1071+003909059GF107991071051004501021001MD1210211+9999MW1381REMSYN080    AAXX  18061 22422 11464 70411 11076 21098 49935 52021 73832 87520 333 87613;
0144224220999992000011809004+65900+034770FM-12+001099999V0200201N011010300019N0070001N1-00941-01291099531ADDAY131031AY221031GF105991031051004501031001MD1210171+9999MW1361REMSYN070    AAXX  18091 22422 41457 50211 11094 21129 49953 52017 73632 83530;
0144224220999992000011815004+65900+034770FM-12+001099999V0200301N013010210019N0060001N1-01011-01251099091ADDAY171031AY231031GF108991081001022501021999MD1210041+9999MW1711REMSYN070    AAXX  18151 22422 41856 80313 11101 21125 49909 52004 77173 8802/;
0184224220999992000011818004+65900+034770FM-12+001099999V0200501N012010210019N0120001N1-01121-01341099851ADDAA112001091AY171061AY231061GF108991081001022501021999KA1999M-00901MD1210051+9999MW1361REMSYN086    AAXX  18181 22422 11862 80512 11112 21134 49985 52005 60012 73673 8802/ 333 11090;
0165224220999992000011900004+65900+034770FM-12+001099999V0201501N010010210019N0150001N1-01321-01431099951ADDAY131061AY231061GF106991061001022501031001MA1999999099801MD1210101+9999MW1371REMSYN076    AAXX  19001 22422 41865 61510 11132 21143 39980 49995 52010 73733 86030;
0116224220999992000011903004+65900+034770FM-12+001099999V0201401N006010210019N0160001N1-01301-01421100001ADDGF105991051001022501031001MD1210051+9999REMSYN064    AAXX  19031 22422 42866 51406 11130 21142 40000 52005 85030;
0146224220999992000011906004+65900+034770FM-12+001099999V0201301N005012200019N0190001N1-01271-01391100061ADDAA199000091GF102991001001999999001011MD1210061+9999REMSYN064    AAXX  19061 22422 32969 21305 11127 21139 40006 52006 80001;EQDQ01  00002PRCP99
0116224220999992000011909004+65900+034770FM-12+001099999V0200301N003012200019N0220001N1-01021-01301100151ADDGF106991031051004501001011MD1210091+9999REMSYN064    AAXX  19091 22422 42472 60303 11102 21130 40015 52009 83501;
0163224220999992000011912004+65900+034770FM-12+001099999V0200401N006010300019N0200001N1-00991-01251100101ADDGA1041+004509059GF106991041051004501031001MA1999999099941MD1810051+9999REMSYN080    AAXX  19121 22422 42470 60406 11099 21125 39994 40010 58005 84530 333 84615;
0112224220999992000011915004+65900+034770FM-12+001099999V0200401N005010210019N0190001N1-01051-01251100091ADDGF108991081001022501021999MD1610011+9999REMSYN060AAXX  19151 22422 42869 80405 11105 21125 40009 56001 8802/;
0165224220999992000011918004+65900+034770FM-12+001099999V0200401N004010210019N0180001N1-01541-01731099991ADDAA199000091GF108991081001022501021999KA1999M-01531MD1710101+9999REMSYN070AAXX  19181 22422 32868 80404 11154 21173 49999 57010 8802/ 333 11153;EQDQ01  00002PRCP99
0133224220999992000012000004+65900+034770FM-12+001099999V0200901N002010210019N0170001N1-01951-02141099721ADDGF108991081001022501021999MA1999999099561MD1710131+9999REMSYN066AAXX  20001 22422 42867 80902 11195 21214 39956 49972 57013 8802/;
0140224220999992000012003004+65900+034770FM-12+001099999V0200701N002010210019N0060001N1-01721-01911099541ADDAY171031AY221031GF108991081001022501021999MD1710181+9999MW1711REMSYN066AAXX  20031 22422 41856 80702 11172 21191 49954 57018 77172 8802/;
0159224220999992000012006004+65900+034770FM-12+001099999V0203201N002010210019N0050001N1+99999-01621099371ADDAY171061AY221061GF108991081001022501021999MD1710171+9999MW1711REMSYN066AAXX  20061 22422 11850 83202 10142 21162 49937 57017 77172 8802/;EQDQ01+001423ATOT  
0140224220999992000012009004+65900+034770FM-12+001099999V0203001N002010210019N0060001N1-01241-01441099281ADDAY171031AY221031GF108991081001022501071001MD1710091+9999MW1711REMSYN066AAXX  20091 22422 41856 83002 11124 21144 49928 57009 77172 88070;
0161224220999992000012012004+65900+034770FM-12+001099999V0203401N002010210019N0060001N1-01351-01551099271ADDAY171061AY271061GF108991081001022501071999MA1999999099111MD1610011+9999MW1711REMSYN072AAXX  20121 22422 41856 83402 11135 21155 39911 49927 56001 77177 8807/;
0112224220999992000012015004+65900+034770FM-12+001099999V0203401N001012200019N0180001N1-01821-02011099241ADDGF104991041001022501031001MD1710031+9999REMSYN060AAXX  20151 22422 42868 43401 11182 21201 49924 57003 84030;
0152224220999992000012018004+65900+034770FM-12+001099999V0203201N004010210019N0150001N1-01641-01831099301ADDAA112000191GF108991081001022501011999KA1999M-01231MD1310061+9999REMSYN076AAXX  20181 22422 12865 83204 11164 21183 49930 53006 69922 8801/ 333 11123;
0133224220999992000012100004+65900+034770FM-12+001099999V0202801N002010210019N0160001N1-01841-02031099021ADDGF108991081001022501021999MA1999999098861MD1710191+9999REMSYN066AAXX  21001 22422 42866 82802 11184 21203 39886 49902 57019 8802/;
0139224220999992000012103004+65900+034770FM-12+001099999V0202901N005019999999N0190001N1-01261-01461099281ADDAY121031GF108991999999022501999999MD1310261+9999REMSYN060AAXX  21031 22422 42869 82905 11126 21146 49928 53026 7802/;EQDQ01+000802PRSWM1
0140224220999992000012106004+65900+034770FM-12+001099999V0200401N007010210019N0120001N1-00851-01081099241ADDAY171061AY231061GF106991061001022501031001MD1810031+9999MW1371REMSYN066AAXX  21061 22422 11862 60407 11085 21108 49924 58003 73773 86030;
0166224220999992000012109004+65900+034770FM-12+001099999V0200101N008010057019N0130001N1-00701-00991099271ADDAY131031AY231031GA1061+005709059GF108991061051004501021999MD1310031+9999MW1371REMSYN076AAXX  21091 22422 41463 80108 11070 21099 49927 53003 73733 8652/ 333 86619;
0187224220999992000012112004+65900+034770FM-12+001099999V0203601N010010039019N0080001N1-00581-00881099201ADDAY131061AY231061GA1071+003909059GF107991071051004501001001MA1999999099051MD1810071+9999MW1381REMSYN082AAXX  21121 22422 41458 73610 11058 21088 39905 49920 58007 73833 87500 333 87613;
0166224220999992000012115004+65900+034770FM-12+001099999V0203601N011010036019N0070001N1-00581-00881099191ADDAY131031AY231031GA1071+003609059GF107991071051004501001001MD1610011+9999MW1381REMSYN076AAXX  21151 22422 41457 73611 11058 21088 49919 56001 73833 87500 333 87612;
0215224220999992000012118004+65900+034770FM-12+001099999V0203301N010010039019N0070001N1-00541-00831099141ADDAA199000091AY131061AY231061GA1071+003909059GF107991071051004501001001KA1120M-00531MD1710051+9999MW1381REMSYN082AAXX  21181 22422 32457 73310 11054 21083 49914 57005 73833 87500 333 11053 87613;EQDQ01  00002PRCP99
0159224220999992000012200004+65900+034770FM-12+001099999V0203101N011010036019N0070001N1-00481-00761099041ADDGA1071+003609059GF107991071051004501001001MA1999999098891MD1710061+9999REMSYN076AAXX  22001 22422 41457 73111 11048 21076 39889 49904 57006 87500 333 87612;
0175224220999992000012203004+65900+034770FM-12+001099999V0200101N999992200019N0090001N1-00621-00931099341ADDAY131031AY231031GF103991999001022501021999MD1310301+9999MW1381REMSYN066AAXX  22031 22422 41859 35123 11062 21093 49934 53030 73833 8802/;EQDQ01+012301WOSPD Q02+000082SCOTLC
0196224220999992000012206004+65900+034770FM-12+001099999V0203501N012010054019N0080001N1-00651-00971099391ADDAA199000091AY131061AY231061GA1061+005409059GF108991061051004501021999MD1210051+9999MW1381REMSYN076AAXX  22061 22422 31458 83512 11065 21097 49939 52005 73833 8652/ 333 86618;EQDQ01  00002PRCP99
0166224220999992000012209004+65900+034770FM-12+001099999V0203501N009010048019N0120001N1-00751-01101099461ADDAY131031AY231031GA1071+004809059GF107991071051004501001001MD1210071+9999MW1371REMSYN076AAXX  22091 22422 41462 73509 11075 21110 49946 52007 73733 87500 333 87616;
0161224220999992000012212004+65900+034770FM-12+001099999V0203401N007010210019N0140001N1-00841-01161099531ADDAY131061AY231061GF106991061001022501031001MA1999999099381MD1210071+9999MW1361REMSYN072AAXX  22121 22422 41864 63407 11084 21116 39938 49953 52007 73633 86030;
0112224220999992000012215004+65900+034770FM-12+001099999V0203201N006010210019N0140001N1-01201-01471099571ADDGF105991051001022501021999MD1210031+9999REMSYN060AAXX  22151 22422 42864 53206 11120 21147 49957 52003 8502/;
0165224220999992000012218004+65900+034770FM-12+001099999V0203001N005010210019N0120001N1-01341-01611099591ADDAA199000091GF108991081001022501021999KA1999M-01331MD1110021+9999REMSYN070AAXX  22181 22422 32862 83005 11134 21161 49959 51002 8802/ 333 11133;EQDQ01  00002PRCP99
0133224220999992000012300004+65900+034770FM-12+001099999V0203001N004010210019N0140001N1-01561-01831099811ADDGF108991081001022501021999MA1999999099651MD1210091+9999REMSYN066AAXX  23001 22422 42864 83004 11156 21183 39965 49981 52009 8802/;
0112224220999992000012303004+65900+034770FM-12+001099999V0203001N002010210019N0150001N1-01511-01771099741ADDGF108991081001022501021999MD1810071+9999REMSYN060AAXX  23031 22422 42865 83002 11151 21177 49974 58007 8802/;
0142224220999992000012306004+65900+034770FM-12+001099999V0203401N001012200019N0170001N1-01281-01481099931ADDAA199000091GF103991021001022501031011MD1210191+9999REMSYN060AAXX  23061 22422 32867 33401 11128 21148 49993 52019 82031;EQDQ01  00002PRCP99
0112224220999992000012309004+65900+034770FM-12+001099999V0203501N002012200019N0190001N1-01081-01361100331ADDGF103991031001999999031001MD1210401+9999REMSYN060AAXX  23091 22422 42969 33502 11108 21136 40033 52040 83030;
0133224220999992000012312004+65900+034770FM-12+001099999V0200201N002010210019N0190001N1-01151-01351100621ADDGF106991061001022501031001MA1999999100461MD1210291+9999REMSYN066AAXX  23121 22422 42869 60202 11115 21135 30046 40062 52029 86030;
0112224220999992000012315004+65900+034770FM-12+001099999V0200201N002012200019N0160001N1-01101-01381100831ADDGF102991001001999999001011MD1210211+9999REMSYN060AAXX  23151 22422 42966 20202 11110 21138 40083 52021 80001;
0191224220999992000012318004+65900+034770FM-12+001099999V0200201N002012200019N0150001N1-01131-01411999999ADDAA199000091GA1001+999999999GF100991001001999999001001KA1999M-01131MD1210171+9999REMSYN064AAXX  23181 22422 32965 00202 11113 21141 40010 52017 333 11113;EQDQ01+100103APOSLPQ02  00002PRCP99
0143224220999992000012400004+65900+034770FM-12+001099999V0200201N001012200019N0150001N1-01451-01721101231ADDGA1001+999999999GF100991001001999999001001MA1999999101071MD1210121+9999REMSYN060AAXX  24001 22422 42965 00201 11145 21172 30107 40123 52012;
0122224220999992000012403004+65900+034770FM-12+001099999V0209999C000012200019N0170001N1-01721-02061101351ADDGA1001+999999999GF100991001001999999001001MD1210121+9999REMSYN054AAXX  24031 22422 42967 00000 11172 21206 40135 52012;
0152224220999992000012406004+65900+034770FM-12+001099999V0200501N001012200019N0180001N1-01461-01731101151ADDAA199000091GA1001+999999999GF100991001001999999001001MD1210121+9999REMSYN054AAXX  24061 22422 32968 00501 11146 21173 40115 52012;EQDQ01  00002PRCP99
0112224220999992000012409004+65900+034770FM-12+001099999V0200501N001010210019N0210001N1-01421-01551101651ADDGF107991071001022501071011MD1210181+9999REMSYN060AAXX  24091 22422 42871 70501 11142 21155 40165 52018 87071;
0133224220999992000012412004+65900+034770FM-12+001099999V0200801N001010750019N0200001N1-01551-01681101751ADDGF108991021001022501031031MA1999999101591MD1210101+9999REMSYN066AAXX  24121 22422 42870 80801 11155 21168 30159 40175 52010 82033;
0122224220999992000012415004+65900+034770FM-12+001099999V0200801N001012200019N0180001N1-01621-01751101761ADDGA1001+999999999GF100991001001999999001001MD1210111+9999REMSYN054AAXX  24151 22422 42968 00801 11162 21175 40176 52011;
0175224220999992000012418004+65900+034770FM-12+001099999V0200901N001012200019N0170001N1-01951-02071101871ADDAA199000091GA1001+999999999GF100991001001999999001001KA1999M-01411MD1110011+9999REMSYN064AAXX  24181 22422 32967 00901 11195 21207 40187 51001 333 11141;EQDQ01  00002PRCP99
0143224220999992000012500004+65900+034770FM-12+001099999V0209999C000012200019N0160001N1-02181-02341102021ADDGA1001+999999999GF100991001001999999001001MA1999999101851MD1210061+9999REMSYN060AAXX  25001 22422 42966 00000 11218 21234 30185 40202 52006;
0131224220999992000012503004+65900+034770FM-12+001099999V0200701N002019999999N0090001N1-02011-02201101581ADDGF105991999001022501021999MD1810431+9999REMSYN060AAXX  25031 22422 42859 50702 11201 21220 40158 58043 8602/;EQDQ01+000062SCOTLC
0142224220999992000012506004+65900+034770FM-12+001099999V0202301N002019999999N0200001N1-01881-02071100991ADDAA199000091GF106991001001999999001011MD1710591+9999REMSYN060AAXX  25061 22422 32970 62302 11188 21207 40099 57059 80001;EQDQ01  00002PRCP99
0112224220999992000012509004+65900+034770FM-12+001099999V0202301N004010210019N0190001N1-01821-02011100811ADDGF108991081001022501071999MD1710181+9999REMSYN060AAXX  25091 22422 42869 82304 11182 21201 40081 57018 8807/;
0133224220999992000012512004+65900+034770FM-12+001099999V0202101N005010210019N0180001N1-01611-01741100581ADDGF108991081001022501071999MA1999999100421MD1710231+9999REMSYN066AAXX  25121 22422 42868 82105 11161 21174 30042 40058 57023 8807/;
0112224220999992000012515004+65900+034770FM-12+001099999V0201901N005010210019N0170001N1-01681-01871100551ADDGF108991081001022501021999MD1710031+9999REMSYN060AAXX  25151 22422 42867 81905 11168 21187 40055 57003 8802/;
0181224220999992000012518004+65900+034770FM-12+001099999V0202101N005010210019N0150001N1-01431-01631100501ADDAA199000091GF108991081001022501021999KA1999M+99999MD1710051+9999REMSYN070AAXX  25181 22422 32865 82105 11143 21163 40050 57005 8802/ 333 11167;EQDQ01  00002PRCP99Q02 -01672ATMX  
0113224220999992000012600004+65900+034770FM-12+001099999V0202501N005010210019N0160001N1-01301-01501100351ADDGF108991081001022501021999MA1999999100191REMSYN060AAXX  26001 22422 42866 82505 11130 21150 30019 40035 8802/;
0140224220999992000012603004+65900+034770FM-12+001099999V0202601N005010210019N0080001N1-01221-01421100251ADDAY171031AY231031GF108991081001022501021999MD1710101+9999MW1361REMSYN066AAXX  26031 22422 41858 82605 11122 21142 40025 57010 73673 8802/;
0140224220999992000012606004+65900+034770FM-12+001099999V0202501N006010210019N0100001N1-01281-01411099721ADDAY171061AY231061GF108991081001022501021999MD1810531+9999MW1371REMSYN066AAXX  26061 22422 11860 82506 11128 21141 49972 58053 73773 8802/;
0140224220999992000012609004+65900+034770FM-12+001099999V0202101N009010210019N0025001N1-01381-01581099451ADDAY171031AY231031GF108991081001022501021999MD1710271+9999MW1711REMSYN066AAXX  26091 22422 41825 82109 11138 21158 49945 57027 77173 8802/;
0161224220999992000012612004+65900+034770FM-12+001099999V0202101N009010210019N0025001N1-01201-01401098941ADDAY171061AY221061GF108991081001022501021999MA1999999098781MD1710511+9999MW1711REMSYN072AAXX  26121 22422 42825 82109 11120 21140 39878 49894 57051 77172 8802/;
0185224220999992000012615004+65900+034770FM-12+001099999V0202001N010010030019N0020001N1-01151-01281098621ADDAY171031AY271031GA1081+003009069GF108991999071004501021999MD1710311+9999MW1711REMSYN076AAXX  26151 22422 41420 82010 11115 21128 49862 57031 77177 8872/ 333 88710;EQDQ01+000082SCOTLC
0202224220999992000012618004+65900+034770FM-12+001099999V0202101N007010036019N0120001N1-01131-01261098341ADDAA112007991AY171061AY231061GA1071+003609059GF107991071051004501001001KA1120M-01101MD1710261+9999MW1371REMSYN088AAXX  26181 22422 11462 72107 11113 21126 49834 57026 60082 73773 87500 333 11110 87612;
0159224220999992000012700004+65900+034770FM-12+001099999V0202101N003010042019N0130001N1-01001-01131098241ADDGA1071+004209059GF107991071051004501001001MA1999999098081MD1710061+9999REMSYN076AAXX  27001 22422 42463 72103 11100 21113 39808 49824 57006 87500 333 87614;
0138224220999992000012703004+65900+034770FM-12+001099999V0202201N002010039019N0160001N1-00851-01041098081ADDGA1071+003909059GF107991071051004501001001MD1710151+9999REMSYN070AAXX  27031 22422 42466 72202 11085 21104 49808 57015 87500 333 87613;
0168224220999992000012706004+65900+034770FM-12+001099999V0202901N002010051019N0150001N1-00371-00481097991ADDAA199000091GA1071+005109059GF107991071051004501001001MD1710091+9999REMSYN070AAXX  27061 22422 32465 72902 11037 21048 49799 57009 87500 333 87617;EQDQ01  00002PRCP99
0112224220999992000012709004+65900+034770FM-12+001099999V0202901N002010210019N0200001N1-00451-00801098171ADDGF105991051001022501031001MD1310181+9999REMSYN060AAXX  27091 22422 42870 52902 11045 21080 49817 53018 85030;
0133224220999992000012712004+65900+034770FM-12+001099999V0202701N002012200019N0200001N1-00621-00971098201ADDGF103991031001022501031001MA1999999098051MD1210031+9999REMSYN066AAXX  27121 22422 42870 32702 11062 21097 39805 49820 52003 83030;
0112224220999992000012715004+65900+034770FM-12+001099999V0202701N001012200019N0180001N1-00911-01161098221ADDGF103991001001999999001011MD1110021+9999REMSYN060AAXX  27151 22422 42968 32701 11091 21116 49822 51002 80001;
0175224220999992000012718004+65900+034770FM-12+001099999V0202501N001012200019N0180001N1-01101-01301098241ADDAA199000091GA1001+999999999GF100991001001999999001001KA1999M-01101MD1210041+9999REMSYN064AAXX  27181 22422 32968 02501 11110 21130 49824 52004 333 11110;EQDQ01  00002PRCP99
0143224220999992000012800004+65900+034770FM-12+001099999V0202401N001012200019N0190001N1-01481-01681098521ADDGA1001+999999999GF100991001001999999001001MA1999999098381MD1210101+9999REMSYN060AAXX  28001 22422 42969 02401 11148 21168 39838 49852 52010;
0152224220999992000012803004+65900+034770FM-12+001099999V0202501N002012200019N0190001N1-01531-01801098361ADDAA199000091GA1001+999999999GF100991001001999999001001MD1810181+9999REMSYN054AAXX  28031 22422 32969 02502 11153 21180 49836 58018;EQDQ01  00002PRCP99
0174224220999992000012806004+65900+034770FM-12+001099999V0202701N002012200019N0200001N1+99999-01841098331ADDAA199000091GF102991999001022501031001MD1710031+9999REMSYN060AAXX  28061 22422 32870 22702 10165 21184 49833 57003 83030;EQDQ01+000032SCOTLCQ02+001653ATOT  Q03  00002PRCP99
0112224220999992000012809004+65900+034770FM-12+001099999V0202701N002012200019N0240001N1-01451-01721098411ADDGF102991001001999999001011MD1310081+9999REMSYN060AAXX  28091 22422 42974 22702 11145 21172 49841 53008 80001;
0143224220999992000012812004+65900+034770FM-12+001099999V0202601N002012200019N0250001N1-01401-01751098461ADDGA1001+999999999GF100991001001999999001001MA1999999098301MD1210051+9999REMSYN060AAXX  28121 22422 42975 02602 11140 21175 39830 49846 52005;
0122224220999992000012815004+65900+034770FM-12+001099999V0202701N002012200019N0180001N1-01721-01981098521ADDGA1001+999999999GF100991001001999999001001MD1210061+9999REMSYN054AAXX  28151 22422 42968 02702 11172 21198 49852 52006;
0175224220999992000012818004+65900+034770FM-12+001099999V0202701N001012200019N0170001N1-01901-02091098641ADDAA199000091GA1001+999999999GF100991001001999999001001KA1999M-01381MD1210121+9999REMSYN064AAXX  28181 22422 32967 02701 11190 21209 49864 52012 333 11138;EQDQ01  00002PRCP99
0143224220999992000012900004+65900+034770FM-12+001099999V0209999C000012200019N0190001N1-02131-02311098801ADDGA1001+999999999GF100991001001999999001001MA1999999098641MD1210091+9999REMSYN060AAXX  29001 22422 42969 00000 11213 21231 39864 49880 52009;
0122224220999992000012903004+65900+034770FM-12+001099999V0209999C000012200019N0190001N1-02181-02361098851ADDGA1001+999999999GF100991001001999999001001MD1210051+9999REMSYN054AAXX  29031 22422 42969 00000 11218 21236 49885 52005;
0142224220999992000012906004+65900+034770FM-12+001099999V0209999C000012200019N0200001N1-02241-02421098891ADDAA199000091GF102991011001022501031011MD1210041+9999REMSYN060AAXX  29061 22422 32870 20000 11224 21242 49889 52004 81031;EQDQ01  00002PRCP99
0112224220999992000012909004+65900+034770FM-12+001099999V0202601N001012200019N0250001N1-01961-02151099011ADDGF102991001001999999001011MD1210121+9999REMSYN060AAXX  29091 22422 42975 22601 11196 21215 49901 52012 80001;
0122224220999992000012912004+65900+034770FM-12+001099999V0202701N001012200019N0240001N1-01751-01941099131ADDGA1001+999999999GF100991001001999999001001MD1210121+9999REMSYN054AAXX  29121 22422 42974 02701 11175 21194 49913 52012;
0112224220999992000012915004+65900+034770FM-12+001099999V0202801N002010210019N0170001N1-01951-02051098971ADDGF106991061001022501031001MD1810161+9999REMSYN060AAXX  29151 22422 42867 62802 11195 21205 49897 58016 86030;
0165224220999992000012918004+65900+034770FM-12+001099999V0202701N002012200019N0150001N1-01841-01961098721ADDAA199000091GF104991041001022501031001KA1999M-01731MD1710251+9999REMSYN070AAXX  29181 22422 32865 42702 11184 21196 49872 57025 84030 333 11173;EQDQ01  00002PRCP99
0133224220999992000013000004+65900+034770FM-12+001099999V0202101N002010210019N0160001N1-01631-01751098391ADDGF105991051001022501031001MA1999999098231MD1710191+9999REMSYN066AAXX  30001 22422 42866 52102 11163 21175 39823 49839 57019 85030;
0166224220999992000013006004+65900+034770FM-12+001099999V0201701N010010036019N0027001N1-00321-00391097581ADDAY171061AY231061GA1061+003609069GF108991061071004501021999MD1810471+9999MW1711REMSYN076AAXX  30061 22422 11427 81710 11032 21039 49758 58047 77173 8672/ 333 86712;
0185224220999992000013009004+65900+034770FM-12+001099999V0201801N014010033019N0014001N1-00251-00311097381ADDAY171031AY271031GA1081+003309069GF108991999071004501021999MD1210201+9999MW1711REMSYN076AAXX  30091 22422 41414 81814 11025 21031 49738 52020 77177 8872/ 333 88711;EQDQ01+000082SCOTLC
0206224220999992000013012004+65900+034770FM-12+001099999V0201801N015010027019N0011001N1-00111-00151097261ADDAY171061AY271061GA1081+002709069GF108991999071002501021999MA1999999097111MD1710121+9999MW1711REMSYN082AAXX  30121 22422 41311 81815 11011 21015 39711 49726 57012 77177 8872/ 333 88709;EQDQ01+000082SCOTLC
0185224220999992000013015004+65900+034770FM-12+001099999V0201801N011010033019N0035001N1-00101-00141097281ADDAY171031AY231031GA1081+003309069GF108991999071004501021999MD1310021+9999MW1711REMSYN076AAXX  30151 22422 41435 81811 11010 21014 49728 53002 77173 8872/ 333 88711;EQDQ01+000082SCOTLC
0221224220999992000013018004+65900+034770FM-12+001099999V0201601N008010039019N0041001N1-00061-00121097261ADDAA112002091AY171061AY231061GA1081+003909069GF108991999071004501021999KA1120M-00041MD1810021+9999MW1711REMSYN088AAXX  30181 22422 11441 81608 11006 21012 49726 58002 60022 77173 8872/ 333 11004 88713;EQDQ01+000082SCOTLC
0187224220999992000013100004+65900+034770FM-12+001099999V0201701N005010042019N0120001N1-00171-00221097221ADDAY171061AY231061GA1071+004209059GF107991071051004501001001MA1999999097071MD1710031+9999MW1361REMSYN082AAXX  31001 22422 41462 71705 11017 21022 39707 49722 57003 73673 87500 333 87614;
0168224220999992000013103004+65900+034770FM-12+001099999V0201701N004010042019N0150001N1-00221-00291096871ADDAA199000021GA1081+004209059GF199999071051004501001001MD1710351+9999REMSYN070AAXX  31031 22422 31465 71704 11022 21029 49687 57035 87500 333 88614;EQDQ01+000072SCOTCV
0140224220999992000013106004+65900+034770FM-12+001099999V0201701N008010210019N0044001N1-00101-00141096691ADDAY171061AY231061GF108991081001022501021999MD1710181+9999MW1711REMSYN066AAXX  31061 22422 11844 81708 11010 21014 49669 57018 77173 8802/;
0140224220999992000013109004+65900+034770FM-12+001099999V0201701N007010210019N0038001N1-00051-00081096561ADDAY171031AY231031GF108991081001022501021999MD1710131+9999MW1711REMSYN066AAXX  31091 22422 41838 81707 11005 21008 49656 57013 77173 8802/;
0187224220999992000013112004+65900+034770FM-12+001099999V0202301N005010036019N0140001N1-00351-00461096711ADDAY171061AY231061GA1071+003609059GF107991071051004501001001MA1999999096551MD1310141+9999MW1361REMSYN082AAXX  31121 22422 41464 72305 11035 21046 39655 49671 53014 73673 87500 333 87612;
0166224220999992000013115004+65900+034770FM-12+001099999V0202301N005010039019N0100001N1-00751-00881096961ADDAY171031AY231031GA1071+003909059GF107991071051004501001001MD1210261+9999MW1711REMSYN076AAXX  31151 22422 41460 72305 11075 21088 49696 52026 77173 87500 333 87613;
0221224220999992000013118004+65900+034770FM-12+001099999V0202401N007010033019N0041001N1-00841-01161097271ADDAA112001091AY171061AY231061GA1081+003309069GF108991999071004501021999KA1120M-00031MD1210311+9999MW1381REMSYN088AAXX  31181 22422 11441 82407 11084 21116 49727 52031 60012 73873 8872/ 333 11003 88711;EQDQ01+000082SCOTLC
0171224220999992000020100004+65900+034770FM-12+001099999V0201901N004012200019N0140001N1-01261-01531097541ADDAY171061AY231061GA1001+999999999GF100991001001999999001001MA1999999097381MD1210121+9999MW1361REMSYN066AAXX  01001 22422 41964 01904 11126 21153 39738 49754 52012 73673;
0138224220999992000020103004+65900+034770FM-12+001099999V0202001N002010039019N0160001N1-01021-01341097421ADDGA1071+003909059GF107991071051004501001001MD1810121+9999REMSYN070AAXX  01031 22422 42466 72002 11102 21134 49742 58012 87500 333 87613;
0138224220999992000020106004+65900+034770FM-12+001099999V0202301N002010054019N0170001N1-01101-01161097351ADDGA1061+005409059GF106991061051004501001001MD1710061+9999REMSYN070AAXX  01061 22422 12467 62302 11110 21116 49735 57006 86500 333 86618;
0112224220999992000020109004+65900+034770FM-12+001099999V0202401N001010300019N0210001N1-01151-01281097401ADDGF106991031051004501031001MD1310051+9999REMSYN060AAXX  01091 22422 42471 62401 11115 21128 49740 53005 83530;
0133224220999992000020112004+65900+034770FM-12+001099999V0202501N001012200019N0190001N1-00881-01071097481ADDGF106991031001022501031011MA1999999097331MD1210081+9999REMSYN066AAXX  01121 22422 42869 62501 11088 21107 39733 49748 52008 83031;
0112224220999992000020115004+65900+034770FM-12+001099999V0202401N001010300019N0120001N1-00901-01401097491ADDGF106991031051004501031001MD1110011+9999REMSYN060AAXX  01151 22422 42462 62401 11090 21140 49749 51001 83530;
0165224220999992000020118004+65900+034770FM-12+001099999V0202501N003012200019N0130001N1-00561-00861097441ADDAA199000091GF102991021001022501031001KA1999M-00551MD1810051+9999REMSYN070AAXX  01181 22422 32863 22503 11056 21086 49744 58005 82030 333 11055;EQDQ01  00002PRCP99
0159224220999992000020200004+65900+034770FM-12+001099999V0202501N005010054019N0130001N1-00391-00651097561ADDGA1071+005409059GF107991071051004501001001MA1999999097411MD1210031+9999REMSYN076AAXX  02001 22422 42463 72505 11039 21065 39741 49756 52003 87500 333 87618;
0112224220999992000020203004+65900+034770FM-12+001099999V0202601N002012200019N0140001N1-00521-00811097811ADDGF102991021001022501031001MD1210251+9999REMSYN060AAXX  02031 22422 42864 22602 11052 21081 49781 52025 82030;
0142224220999992000020206004+65900+034770FM-12+001099999V0202701N002010300019N0170001N1-00851-01001097881ADDAA199000091GF106991021051004501031001MD1210071+9999REMSYN060AAXX  02061 22422 32467 62702 11085 21100 49788 52007 82530;EQDQ01  00002PRCP99
0112224220999992000020209004+65900+034770FM-12+001099999V0202701N002010300019N0250001N1-00751-00921097941ADDGF106991021051004501031001MD1210061+9999REMSYN060AAXX  02091 22422 42475 62702 11075 21092 49794 52006 82530;
0140224220999992000020212004+65900+034770FM-12+001099999V0202701N003010210019N0035001N1-00621-00771097951ADDAY171061AY221061GF108991081001022501021999MD1210051+9999MW1711REMSYN066AAXX  02121 22422 41835 82703 11062 21077 49795 52005 77172 8802/;
0112224220999992000020215004+65900+034770FM-12+001099999V0202801N002010210019N0140001N1-00651-00771097961ADDGF108991081001022501071999MD1810031+9999REMSYN060AAXX  02151 22422 42864 82802 11065 21077 49796 58003 8807/;
0162224220999992000020218004+65900+034770FM-12+001099999V0202801N001012200019N0130001N1-00961-01171097981ADDAA112000591GA1001+999999999GF100991001001999999001001KA1999M-00601MD1110021+9999REMSYN070AAXX  02181 22422 12963 02801 11096 21117 49798 51002 69962 333 11060;
0143224220999992000020300004+65900+034770FM-12+001099999V0209999C000012200019N0150001N1-01281-01481098221ADDGA1001+999999999GF100991001001999999001001MA1999999098061MD1210141+9999REMSYN060AAXX  03001 22422 42965 00000 11128 21148 39806 49822 52014;
0122224220999992000020303004+65900+034770FM-12+001099999V0209999C000012200019N0170001N1-01411-01611098271ADDGA1001+999999999GF100991001001999999001001MD1210051+9999REMSYN054AAXX  03031 22422 42967 00000 11141 21161 49827 52005;
0142224220999992000020306004+65900+034770FM-12+001099999V0202701N001012200019N0180001N1-01651-01781098221ADDAA199000091GF103991031001022501031001MD1810051+9999REMSYN060AAXX  03061 22422 32868 32701 11165 21178 49822 58005 83030;EQDQ01  00002PRCP99
0112224220999992000020309004+65900+034770FM-12+001099999V0202701N001012200019N0260001N1-01601-01791098451ADDGF102991001001999999001011MD1310231+9999REMSYN060AAXX  03091 22422 42976 22701 11160 21179 49845 53023 80001;
0101224220999992000020312004+65900+034770FM-12+001099999V0202701N001019999999N0240001N1-01351-01551999999ADDMA1999999098541MD1210301+9999REMSYN060AAXX  03121 22422 42474 /2701 11135 21155 39854 52030 82531;
0131224220999992000020315004+65900+034770FM-12+001099999V0202701N002012200019N0190001N1-01551-01741098921ADDGF102991001001999999001011MD1210171+9999REMSYN060AAXX  03151 22422 42969 22702 11155 21174 49892 52017 82001;EQDQ01+000022SCOTLC
0181224220999992000020318004+65900+034770FM-12+001099999V0202701N004012200019N0180001N1-01541-01731098981ADDAA199000091GF101991001001999999001011KA1999M-01331MD1210061+9999REMSYN070AAXX  03181 22422 32968 12704 11154 21173 49898 52006 81001 333 11133;EQDQ01+000012SCOTLCQ02  00002PRCP99
0143224220999992000020400004+65900+034770FM-12+001099999V0202601N004012200019N0160001N1-01671-01861099161ADDGA1001+999999999GF100991001001999999001001MA1999999099001MD1210081+9999REMSYN060AAXX  04001 22422 42966 02604 11167 21186 39900 49916 52008;
0122224220999992000020403004+65900+034770FM-12+001099999V0202701N003012200019N0180001N1-01491-01691099561ADDGA1001+999999999GF100991001001999999001001MD1210391+9999REMSYN054AAXX  04031 22422 42968 02703 11149 21169 49956 52039;
0152224220999992000020406004+65900+034770FM-12+001099999V0202801N002012200019N0190001N1-01201-01331099541ADDAA199000091GA1001+999999999GF100991001001999999001001MD1810011+9999REMSYN054AAXX  04061 22422 32969 02802 11120 21133 49954 58001;EQDQ01  00002PRCP99
0112224220999992000020409004+65900+034770FM-12+001099999V0202701N002019999999N0260001N1-01051-01251099531ADDGF105991001001999999001011MD1410001+9999REMSYN060AAXX  04091 22422 42976 52702 11105 21125 49953 54000 80001;
0133224220999992000020412004+65900+034770FM-12+001099999V0202701N001019999999N0250001N1-01261-01461099331ADDGF105991001001999999001011MA1999999099171MD1810211+9999REMSYN066AAXX  04121 22422 42975 52701 11126 21146 39917 49933 58021 80001;
0112224220999992000020415004+65900+034770FM-12+001099999V0202401N001010210019N0160001N1-01561-01691099161ADDGF106991061001022501031001MD1710171+9999REMSYN060AAXX  04151 22422 42866 62401 11156 21169 49916 57017 86030;
0187224220999992000020418004+65900+034770FM-12+001099999V0201901N003010042019N0140001N1-01001-01121098751ADDAA199000091GA1071+004209059GF107991071051004501001001KA1120M-01031MD1810401+9999REMSYN076AAXX  04181 22422 32464 71903 11100 21112 49875 58040 87500 333 11103 87614;EQDQ01  00002PRCP99
0159224220999992000020500004+65900+034770FM-12+001099999V0201001N006010036019N0140001N1-00791-00891098531ADDGA1071+003609059GF107991071051004501001001MA1999999098381MD1710121+9999REMSYN076AAXX  05001 22422 42464 71006 11079 21089 39838 49853 57012 87500 333 87612;
0166224220999992000020503004+65900+034770FM-12+001099999V0201501N001010039019N0080001N1-00611-00691098861ADDAY171031AY221031GA1071+003909059GF107991071051004501001001MD1310331+9999MW1711REMSYN076AAXX  05031 22422 41458 71501 11061 21069 49886 53033 77172 87500 333 87613;
0140224220999992000020506004+65900+034770FM-12+001099999V0201401N001010300019N0120001N1-00801-00861099081ADDAY171061AY221061GF108991031051004501071999MD1210221+9999MW1221REMSYN066AAXX  05061 22422 11462 81401 11080 21086 49908 52022 72272 8357/;
0140224220999992000020509004+65900+034770FM-12+001099999V0201401N001010300019N0050001N1-00831-00891099371ADDAY171031AY221031GF108991021051004501071999MD1210191+9999MW1711REMSYN066AAXX  05091 22422 41450 81401 11083 21089 49937 52019 77172 8257/;
0161224220999992000020512004+65900+034770FM-12+001099999V0209999C000010210019N0047001N1-00751-00841099701ADDAY171061AY221061GF108991081001022501021999MA1999999099551MD1210331+9999MW1711REMSYN072AAXX  05121 22422 41847 80000 11075 21084 39955 49970 52033 77172 8802/;
0166224220999992000020515004+65900+034770FM-12+001099999V0202601N002010066019N0120001N1-00941-00971099901ADDAY171031AY221031GA1061+006609059GF106991061051008001001001MD1210191+9999MW1221REMSYN076AAXX  05151 22422 41562 62602 11094 21097 49990 52019 72272 86500 333 86622;
0152224220999992000020518004+65900+034770FM-12+001099999V0202501N002010210019N0140001N1-01051-01111100061ADDAA112000591GF106991061001022501031001KA1999M-00731MD1210161+9999REMSYN076AAXX  05181 22422 12864 62502 11105 21111 40006 52016 69962 86030 333 11073;
0133224220999992000020600004+65900+034770FM-12+001099999V0202101N001010210019N0150001N1-01281-01341100311ADDGF105991051001022501031001MA1999999100151MD1210111+9999REMSYN066AAXX  06001 22422 42865 52101 11128 21134 30015 40031 52011 85030;
0112224220999992000020603004+65900+034770FM-12+001099999V0202501N003010210019N0160001N1-01341-01471100331ADDGF107991071001022501031001MD1110021+9999REMSYN060AAXX  06031 22422 42866 72503 11134 21147 40033 51002 87030;
0142224220999992000020606004+65900+034770FM-12+001099999V0209999C000010300019N0180001N1-01101-01161100201ADDAA199000091GF106991021051004501031011MD1810131+9999REMSYN060AAXX  06061 22422 32468 60000 11110 21116 40020 58013 82531;EQDQ01  00002PRCP99
0112224220999992000020609004+65900+034770FM-12+001099999V0202301N001012200019N0240001N1-01201-01331100051ADDGF106991041001022501031011MD1710151+9999REMSYN060AAXX  06091 22422 42874 62301 11120 21133 40005 57015 84031;
0133224220999992000020612004+65900+034770FM-12+001099999V0202201N002012200019N0220001N1-01101-01231099801ADDGF106991031001022501031011MA1999999099641MD1710251+9999REMSYN066AAXX  06121 22422 42872 62202 11110 21123 39964 49980 57025 83031;
0166224220999992000020615004+65900+034770FM-12+001099999V0201801N005010042019N0180001N1-00801-00981099351ADDAY131031AY221031GA1071+004209059GF107991071051004501031001MD1810441+9999MW1361REMSYN076AAXX  06151 22422 41468 71805 11080 21098 49935 58044 73632 87530 333 87614;
0215224220999992000020618004+65900+034770FM-12+001099999V0201701N005010039019N0140001N1-00641-00721098941ADDAA199000091AY131061AY221061GA1061+003909059GF107991061051004501031001KA1120M-00631MD1710231+9999MW1361REMSYN082AAXX  06181 22422 31464 71705 11064 21072 49894 57023 73632 86530 333 11063 86613;EQDQ01  00002PRCP99
0187224220999992000020700004+65900+034770FM-12+001099999V0201801N005010039019N0130001N1-00491-00551098741ADDAY131061AY221061GA1051+003909059GF107991051051004501031001MA1999999098591MD1710161+9999MW1361REMSYN082AAXX  07001 22422 41463 71805 11049 21055 39859 49874 57016 73632 85530 333 85613;
0157224220999992000020703004+65900+034770FM-12+001099999V0201801N003010042019N0150001N1-00521-00621098102ADDGA1051+004209059GF106991051051004501031001MD1410001+9999REMSYN070AAXX  07031 22422 42465 61803 11052 21062 49810 54000 85530 333 85614;EQDQ01+098103APOSLP
0112224220999992000020706004+65900+034770FM-12+001099999V0202701N002010210019N0150001N1-00801-00861098521ADDGF106991061001022501031001MD1310421+9999REMSYN060AAXX  07061 22422 12865 62702 11080 21086 49852 53042 86030;
0112224220999992000020709004+65900+034770FM-12+001099999V0202701N001010300019N0260001N1-00361-00471098691ADDGF106991021051004501031001MD1210171+9999REMSYN060AAXX  07091 22422 42476 62701 11036 21047 49869 52017 82530;
0143224220999992000020712004+65900+034770FM-12+001099999V0209999C000012200019N0250001N1-00251-00471098961ADDGA1001+999999999GF100991001001999999001001MA1999999098841MD1210301+9999REMSYN060AAXX  07121 22422 42975 00000 11025 21047 39884 49896 52030;
0131224220999992000020715004+65900+034770FM-12+001099999V0202601N002019999999N0200001N1-00351-00531099001ADDGF106991001001999999001011MD1110011+9999REMSYN060AAXX  07151 22422 42970 62602 11035 21053 49900 51001 86001;EQDQ01+000062SCOTLC
0165224220999992000020718004+65900+034770FM-12+001099999V0201801N002010210019N0190001N1-00461-00621099001ADDAA199000091GF106991061001022501031001KA1999M-00231MD1410001+9999REMSYN070AAXX  07181 22422 32869 61802 11046 21062 49900 54000 86030 333 11023;EQDQ01  00002PRCP99
0159224220999992000020800004+65900+034770FM-12+001099999V0201801N003010042019N0160001N1-00201-00261098581ADDGA1071+004209059GF107991071051004501001001MA1999999098431MD1710221+9999REMSYN076AAXX  08001 22422 42466 71803 11020 21026 39843 49858 57022 87500 333 87614;
0177224220999992000020803004+65900+034770FM-12+001099999V0201901N003010039019N0060001N1-00151-00201098301ADDAA199000021AY171031AY221031GA1071+003909059GF107991071051004501001001MD1710281+9999MW1711REMSYN076AAXX  08031 22422 31456 71903 11015 21020 49830 57028 77172 87500 333 87613;
0160224220999992000020806004+65900+034770FM-12+001099999V0201801N002010210019N0130001N1-00051-00081098061ADDAY171061AY231061GF108991081001022501021999MD1710241+9999MW1221REMSYN086AAXX  08061 22422 11863 81802 11005 21008 49806 57024 72273 8802/ 555 81028 49082 600;
0159224220999992000020809004+65900+034770FM-12+001099999V0201801N002019999999N0016001N1-00041-00071097991ADDAY171031AY221031GF105991999001022501021999MD1710071+9999MW1731REMSYN066AAXX  08091 22422 41816 51802 11004 21007 49799 57007 77372 8802/;EQDQ01+000082SCOTLC
0159224220999992000020812004+65900+034770FM-12+001099999V0201901N002010045019N0180001N1+00051+00021097931ADDGA1071+004509059GF108991071051004501001001MA1999999097781MD1710061+9999REMSYN076AAXX  08121 22422 42468 81902 10005 20002 39778 49793 57006 87500 333 87615;
0161224220999992000020815004+65900+034770FM-12+001099999V0201901N003010042019N0090001N1+00061-00021097391ADDAA124069191AY181031AY221031GF107991071091004501001001MD1710141+9999MW1801REMSYN076AAXX  08151 22422 41459 71903 10006 21002 49739 57014 78082 87900 333 77911;
0174224220999992000020818004+65900+034770FM-12+001099999V0201901N003010036019N0120001N1+00051+00021097761ADDAA112002091GA1081+003609099GF108991081091004501999999KA1120M+00081MD1710031+9999REMSYN082AAXX  08181 22422 12462 81903 10005 20002 49776 57003 60022 889// 333 10008 88912;
0189224220999992000020900004+65900+034770FM-12+001099999V0201901N002010042019N0140001N1+00001-00061097841ADDAA100999999GA1071+004209059GF107991999999004501999999MA1999999096691MD1310081+9999REMSYN076AAXX  09001 22422 42464 71902 11000 21006 39669 49784 53008 67500 333 87614;EQDQ01  75012PRCP00
0112224220999992000020903004+65900+034770FM-12+001099999V0201901N002010210019N0130001N1+00021-00041097851ADDGF108991081001022501021999MD1110011+9999REMSYN060AAXX  09031 22422 42863 81902 10002 21004 49785 51001 8802/;
0138224220999992000020906004+65900+034770FM-12+001099999V0202201N003010039019N0140001N1+00051-00091097991ADDGA1071+003909099GF107991071091008001001001MD1210141+9999REMSYN070AAXX  09061 22422 12564 72203 10005 21009 49799 52014 87900 333 87913;
0138224220999992000020909004+65900+034770FM-12+001099999V0202701N001010045019N0180001N1-00131-00391098231ADDGA1071+004509059GF107991071051004501001001MD1210241+9999REMSYN070AAXX  09091 22422 42468 72701 11013 21039 49823 52024 87500 333 87615;
0133224220999992000020912004+65900+034770FM-12+001099999V0202901N002012200019N0230001N1-00251-00521098451ADDGF106991031001022501031011MA1999999098301MD1210221+9999REMSYN066AAXX  09121 22422 42873 62902 11025 21052 39830 49845 52022 83031;
0112224220999992000020915004+65900+034770FM-12+001099999V0202701N002012200019N0180001N1-00491-00701098631ADDGF106991031001022501031011MD1210181+9999REMSYN060AAXX  09151 22422 42868 62702 11049 21070 49863 52018 83031;
0181224220999992000020918004+65900+034770FM-12+001099999V0202601N001019999999N0170001N1-00721-00931098801ADDAA199000091GF105991001001999999001011KA1999M-00101MD1210171+9999REMSYN070AAXX  09181 22422 32967 52601 11072 21093 49880 52017 85001 333 11010;EQDQ01+000052SCOTLCQ02  00002PRCP99
0152224220999992000021000004+65900+034770FM-12+001099999V0202601N002012200019N0170001N1-00931-01141098971ADDGF104991001001999999001011MA1999999098821MD1210091+9999REMSYN066AAXX  10001 22422 42967 42602 11093 21114 39882 49897 52009 84001;EQDQ01+000042SCOTLC
0122224220999992000021003004+65900+034770FM-12+001099999V0202601N001012200019N0190001N1-01041-01241099181ADDGA1001+999999999GF100991001001999999001001MD1210201+9999REMSYN054AAXX  10031 22422 42969 02601 11104 21124 49918 52020;
0142224220999992000021006004+65900+034770FM-12+001099999V0202701N002012200019N0200001N1-01031-01231099291ADDAA199000091GF102991021001022501031001MD1210121+9999REMSYN060AAXX  10061 22422 32870 22702 11103 21123 49929 52012 82030;EQDQ01  00002PRCP99
0131224220999992000021009004+65900+034770FM-12+001099999V0202701N003012200019N0260001N1-00951+99999099511ADDGF102991001001999999001999MD1210221+9999REMSYN060AAXX  10091 22422 42976 22703 11095 21025 49951 52022 8080/;EQDQ01+000082SCOLCG
0133224220999992000021012004+65900+034770FM-12+001099999V0202801N003012200019N0250001N1-00861-01191099721ADDGF104991001001999999001011MA1999999099561MD1210201+9999REMSYN066AAXX  10121 22422 42975 42803 11086 21119 39956 49972 52020 80001;
0112224220999992000021015004+65900+034770FM-12+001099999V0202601N002012200019N0190001N1-00751-00971099761ADDGF105991031001022501031011MD1210051+9999REMSYN060AAXX  10151 22422 42869 52602 11075 21097 49976 52005 83031;
0187224220999992000021018004+65900+034770FM-12+001099999V0202601N005010042019N0180001N1-00751-00881099671ADDAA199000091GA1051+004209059GF106991051031004501051001KA1120M-00731MD1810091+9999REMSYN076AAXX  10181 22422 32468 62605 11075 21088 49967 58009 85350 333 11073 85614;EQDQ01  00002PRCP99
0157224220999992000021103004+65900+034770FM-12+001099999V0202701N006010042019N0170001N1-00361-00551098991ADDGA1071+004209059GF107991071051004501001001MD1710702+9999REMSYN070AAXX  11031 22422 42467 72706 11036 21055 49899 57070 87500 333 87614;EQDQ01+000702APC3  
0168224220999992000021106004+65900+034770FM-12+001099999V0202101N005010048019N0170001N1+00051-00331098721ADDAA199000091GA1071+004809059GF107991071051004501001001MD1710171+9999REMSYN070AAXX  11061 22422 32467 72105 10005 21033 49872 57017 87500 333 87616;EQDQ01  00002PRCP99
0143224220999992000021112004+65900+034770FM-12+001099999V02099999999990042019N0150001N1+00251-00211098451ADDGF106991061051004501001001MA1999999098301MD1610021+9999REMSYN076AAXX  11121 22422 42465 6209/ 10025 21021 39830 49845 56002 86500 333 8/615;
0138224220999992000021115004+65900+034770FM-12+001099999V0202101N007010048019N0170001N1+00221-00181098501ADDGA1051+004809059GF106991051051004501031001MD1310051+9999REMSYN070AAXX  11151 22422 42467 62107 10022 21018 49850 53005 85530 333 85616;
0135224220999992000021118004+65900+034770FM-12+001099999V0202101N003010210019N0160001N1+00201-00371098541ADDGF106991061001022501031001KA1999M+00291MD1210041+9999REMSYN070AAXX  11181 22422 13866 62103 10020 21037 49854 52004 86030 333 10029;
0133224220999992000021200004+65900+034770FM-12+001099999V0202001N004012200019N0150001N1+00101-00321098781ADDGF102991021001022501031001MA1999999098631MD1210161+9999REMSYN066AAXX  12001 22422 42865 22004 10010 21032 39863 49878 52016 82030;
0112224220999992000021203004+65900+034770FM-12+001099999V0202101N005012200019N0170001N1-00051-00431098691ADDGF104991041001022501031001MD1810091+9999REMSYN060AAXX  12031 22422 42867 42105 11005 21043 49869 58009 84030;
0168224220999992000021206004+65900+034770FM-12+001099999V0202301N003010051019N0180001N1+00001-00391098821ADDAA199000091GA1061+005109059GF106991061051004501001001MD1310131+9999REMSYN070AAXX  12061 22422 32468 62303 10000 21039 49882 53013 86500 333 86617;EQDQ01  00002PRCP99
0112224220999992000021209004+65900+034770FM-12+001099999V0202101N002012200019N0260001N1+00101-00291099141ADDGF105991021001022501031011MD1210321+9999REMSYN060AAXX  12091 22422 42876 52102 10010 21029 49914 52032 82031;
0133224220999992000021212004+65900+034770FM-12+001099999V0202101N002012200019N0250001N1+00151-00361099511ADDGF104991041001022501031001MA1999999099361MD1210371+9999REMSYN066AAXX  12121 22422 42875 42102 10015 21036 39936 49951 52037 84030;
0112224220999992000021215004+65900+034770FM-12+001099999V0202601N002012200019N0180001N1-00141-00541099911ADDGF102991001001999999001011MD1210401+9999REMSYN060AAXX  12151 22422 42968 22602 11014 21054 49991 52040 80001;
0165224220999992000021218004+65900+034770FM-12+001099999V0202701N002012200019N0180001N1-00301-00571100151ADDAA199000091GF102991001001999999001011KA1999M+00181MD1210241+9999REMSYN070AAXX  12181 22422 32968 22702 11030 21057 40015 52024 80001 333 10018;EQDQ01  00002PRCP99
0143224220999992000021300004+65900+034770FM-12+001099999V0202701N002012200019N0170001N1-00361-00651100371ADDGA1001+999999999GF100991001001999999001001MA1999999100221MD1210071+9999REMSYN060AAXX  13001 22422 42967 02702 11036 21065 30022 40037 52007;
0112224220999992000021303004+65900+034770FM-12+001099999V0202701N001019999999N0160001N1-00751-00971100351ADDGF108991001001999999001031MD1810021+9999REMSYN060AAXX  13031 22422 42966 82701 11075 21097 40035 58002 80003;
0168224220999992000021306004+65900+034770FM-12+001099999V0201901N002010051019N0180001N1-00661-00711100341ADDAA199000091GA1071+005109059GF107991071051004501001001MD1610011+9999REMSYN070AAXX  13061 22422 32468 71902 11066 21071 40034 56001 87500 333 87617;EQDQ01  00002PRCP99
0138224220999992000021309004+65900+034770FM-12+001099999V0201901N002010039019N0200001N1-00251-00281100241ADDGA1071+003909059GF107991071051004501001001MD1710101+9999REMSYN070AAXX  13091 22422 42470 71902 11025 21028 40024 57010 87500 333 87613;
0159224220999992000021312004+65900+034770FM-12+001099999V0201901N002010042019N0210001N1-00101-00141100191ADDGA1071+004209059GF107991071051004501001001MA1999999100041MD1710051+9999REMSYN076AAXX  13121 22422 42471 71902 11010 21014 30004 40019 57005 87500 333 87614;
0112224220999992000021315004+65900+034770FM-12+001099999V0201801N003010300019N0170001N1-00201-00291100101ADDGF106991031051004501031011MD1710091+9999REMSYN060AAXX  13151 22422 42467 61803 11020 21029 40010 57009 83531;
0165224220999992000021318004+65900+034770FM-12+001099999V0201801N002010300019N0150001N1-00101-00221100011ADDAA199000091GF107991041051004501031001KA1999M-00081MD1710091+9999REMSYN070AAXX  13181 22422 32465 71802 11010 21022 40001 57009 84530 333 11008;EQDQ01  00002PRCP99
0178224220999992000021400004+65900+034770FM-12+001099999V0201901N004010042019N0170001N1-00081-00201999999ADDGA1061+004209059GF107991061051012501031001MA1999999099841MD1210061+9999REMSYN076AAXX  14001 22422 42667 71904 11008 21020 39984 49889 52006 86530 333 86614;EQDQ01+098893APOSLP
0138224220999992000021403004+65900+034770FM-12+001099999V0201901N003010300019N0180001N1-00121-00271099791ADDGA1041+003909059GF106991041051004501031001MD1710101+9999REMSYN070AAXX  14031 22422 42468 61903 11012 21027 49979 57010 84530 333 84613;
0140224220999992000021406004+65900+034770FM-12+001099999V0201901N003010210019N0050001N1-00101-00171099791ADDAY171061AY221061GF108991081001022501021999MD1410001+9999MW1711REMSYN066AAXX  14061 22422 11850 81903 11010 21017 49979 54000 77172 8802/;
0140224220999992000021409004+65900+034770FM-12+001099999V0201901N002010210019N0050001N1-00101-00181099731ADDAY171031AY221031GF108991081001022501021999MD1810061+9999MW1711REMSYN066AAXX  14091 22422 41850 81902 11010 21018 49973 58006 77172 8802/;
0161224220999992000021412004+65900+034770FM-12+001099999V0201901N002010210019N0050001N1-00121-00191099571ADDAY171061AY221061GF108991081001022501021999MA1999999099501MD1710081+9999MW1711REMSYN072AAXX  14121 22422 41850 81902 11012 21019 39950 49957 57008 77172 8802/;
0112224220999992000021415004+65900+034770FM-12+001099999V0201801N003010210019N0160001N1-00161-00241099751ADDGF108991081001022501021999MD1310101+9999REMSYN060AAXX  14151 22422 42866 81803 11016 21024 49975 53010 8802/;
0174224220999992000021418004+65900+034770FM-12+001099999V0201801N002010042019N0150001N1-00171-00281099801ADDAA112000191GA1051+004209059GF106991051051004501031001KA1120M-00081MD1210051+9999REMSYN082AAXX  14181 22422 31465 61802 11017 21028 49980 52005 69912 85530 333 11008 85614;
0133224220999992000021500004+65900+034770FM-12+001099999V0201801N002010300019N0160001N1-00181-00261099961ADDGF106991031051004501031001MA1999999099811MD1210091+9999REMSYN066AAXX  15001 22422 42466 61802 11018 21026 39981 49996 52009 83530;
0133224220999992000021503004+65900+034770FM-12+001099999V0201801N001012200019N0180001N1-00321-00491099961ADDAA124999999GF103991031001022501021999MD1410001+9999REMSYN070AAXX  15031 22422 42868 31801 11032 21049 49996 54000 8302/ 333 7991/;
0142224220999992000021506004+65900+034770FM-12+001099999V0201901N001010210019N0210001N1-00531-00671099901ADDAA199000091GF106991061001022501021999MD1810061+9999REMSYN060AAXX  15061 22422 32871 61901 11053 21067 49990 58006 8602/;EQDQ01  00002PRCP99
0112224220999992000021509004+65900+034770FM-12+001099999V0201901N002010210019N0210001N1-00451-00651099921ADDGF108991081001022501021999MD1310021+9999REMSYN060AAXX  15091 22422 42871 81902 11045 21065 49992 53002 8802/;
0133224220999992000021512004+65900+034770FM-12+001099999V0201801N001010210019N0210001N1-00301-00471099951ADDGF108991081001022501021999MA1999999099801MD1210031+9999REMSYN066AAXX  15121 22422 42871 81801 11030 21047 39980 49995 52003 8802/;
0112224220999992000021515004+65900+034770FM-12+001099999V0202101N001010210019N0200001N1-00251-00411099981ADDGF108991081001022501021999MD1210031+9999REMSYN060AAXX  15151 22422 42870 82101 11025 21041 49998 52003 8802/;
0165224220999992000021518004+65900+034770FM-12+001099999V0201901N001010210019N0180001N1-00251-00341099931ADDAA199000091GF108991081001022501021999KA1999M-00231MD1810051+9999REMSYN070AAXX  15181 22422 32868 81901 11025 21034 49993 58005 8802/ 333 11023;EQDQ01  00002PRCP99
0152224220999992000021600004+65900+034770FM-12+001099999V0201801N001010210019N0170001N1-00191-00271999999ADDGF108991081001022501021999MA1999999099751MD1410001+9999REMSYN066AAXX  16001 22422 42867 81801 11019 21027 39975 49900 54000 8802/;EQDQ01+099003APOSLP
0112224220999992000021603004+65900+034770FM-12+001099999V0201801N001010210019N0190001N1-00231-00351100061ADDGF108991081001022501021999MD1310161+9999REMSYN060AAXX  16031 22422 42869 81801 11023 21035 40006 53016 8802/;
0142224220999992000021606004+65900+034770FM-12+001099999V0209999C000010300019N0220001N1-00401-00591100091ADDAA199000091GF106991021051004501031001MD1210031+9999REMSYN060AAXX  16061 22422 32472 60000 11040 21059 40009 52003 82530;EQDQ01  00002PRCP99
0112224220999992000021609004+65900+034770FM-12+001099999V0209999C000010300019N0220001N1-00301-00571100091ADDGF106991021051004501031001MD1410001+9999REMSYN060AAXX  16091 22422 42472 60000 11030 21057 40009 54000 82530;
0133224220999992000021612004+65900+034770FM-12+001099999V0201801N001010210019N0200001N1-00201-00481100151ADDGF108991081001022501021999MA1999999100001MD1310061+9999REMSYN066AAXX  16121 22422 42870 81801 11020 21048 30000 40015 53006 8802/;
0138224220999992000021615004+65900+034770FM-12+001099999V0201801N002010042019N0200001N1-00321-00601100221ADDGA1051+004209059GF106991051051004501031001MD1210071+9999REMSYN070AAXX  16151 22422 42470 61802 11032 21060 40022 52007 85530 333 85614;
0187224220999992000021618004+65900+034770FM-12+001099999V0201801N003010042019N0190001N1-00421-00671100291ADDAA199000091GA1051+004209059GF106991051051004501031001KA1120M-00181MD1210071+9999REMSYN076AAXX  16181 22422 32469 61803 11042 21067 40029 52007 85530 333 11018 85614;EQDQ01  00002PRCP99
0159224220999992000021700004+65900+034770FM-12+001099999V0201801N003010300019N0190001N1-00621-00851100381ADDGA1041+004809059GF105991041051004501031001MA1999999100231MD1210031+9999REMSYN076AAXX  17001 22422 42469 51803 11062 21085 30023 40038 52003 84530 333 84616;
0138224220999992000021703004+65900+034770FM-12+001099999V0201901N003010300019N0190001N1-00531-00781100361ADDGA1041+003909059GF106991041051004501031001MD1210181+9999REMSYN070AAXX  17031 22422 42469 61903 11053 21078 40036 52018 84530 333 84613;
0194224220999992000021706004+65900+034770FM-12+001099999V0201901N003012200019N0210001N1-00901-01191100641ADDAA199000091AJ100759199999999GF104991031051004501031001IA1299KA1120N-00911MD1210081+9999REMSYN076AAXX  17061 22422 32471 41903 11090 21119 40064 52008 83530 333 21091 49075;EQDQ01  00002PRCP99
0138224220999992000021709004+65900+034770FM-12+001099999V0201801N001010048019N0220001N1-00751-01101100731ADDGA1061+004809059GF108991061051004501021001MD1210091+9999REMSYN070AAXX  17091 22422 42472 81801 11075 21110 40073 52009 86520 333 86616;
0159224220999992000021712004+65900+034770FM-12+001099999V0201501N002010045019N0220001N1-00351-00631100731ADDGA1061+004509059GF108991061051004501021001MA1999999100581MD1410001+9999REMSYN076AAXX  17121 22422 42472 81502 11035 21063 30058 40073 54000 86520 333 86615;
0138224220999992000021715004+65900+034770FM-12+001099999V0201101N004010300019N0200001N1-00411-00671100781ADDGA1041+003909059GF107991041051004501031001MD1310051+9999REMSYN070AAXX  17151 22422 42470 71104 11041 21067 40078 53005 84530 333 84613;
0187224220999992000021718004+65900+034770FM-12+001099999V0201201N003010039019N0180001N1-00351-00561100811ADDAA199000091GA1071+003909059GF107991071051004501001001KA1120M-00341MD1210031+9999REMSYN076AAXX  17181 22422 32468 71203 11035 21056 40081 52003 87500 333 11034 87613;EQDQ01  00002PRCP99
0159224220999992000021800004+65900+034770FM-12+001099999V0201301N003010042019N0180001N1-00271-00461100831ADDGA1071+004209059GF107991071051004501001001MA1999999100681MD1410001+9999REMSYN076AAXX  18001 22422 42468 71303 11027 21046 30068 40083 54000 87500 333 87614;
0166224220999992000021803004+65900+034770FM-12+001099999V0201501N003010036019N0060001N1-00221-00371100601ADDAY171031AY221031GA1071+003609059GF107991071051004501001001MD1810231+9999MW1711REMSYN076AAXX  18031 22422 41456 71503 11022 21037 40060 58023 77172 87500 333 87612;
0149224220999992000021806004+65900+034770FM-12+001099999V0201701N002010042019N0170001N1-00251-00441100201ADDAA199000021GA1071+004209059GF107991071051004501001001MD1710401+9999REMSYN070AAXX  18061 22422 32467 71702 11025 21044 40020 57040 87500 333 87614;
0138224220999992000021809004+65900+034770FM-12+001099999V0201801N002010036019N0160001N1-00181-00361100191ADDGA1071+003609059GF107991071051004501001001MD1610011+9999REMSYN070AAXX  18091 22422 42466 71802 11018 21036 40019 56001 87500 333 87612;
0126224220999992000021812004+65900+034770FM-12+001099999V0201801N002010042019N0170001N1+99999+99999100101ADDGA1071+004209059GF107991071051004501001001MD1710091+9999REMSYN058AAXX  18121 22422 42467 71802 40010 57009 87500 333 87614;
0138224220999992000021815004+65900+034770FM-12+001099999V0201801N002010042019N0170001N1-00051-00201100071ADDGA1071+004209059GF107991071051004501001001MD1710031+9999REMSYN070AAXX  18151 22422 42467 71802 11005 21020 40007 57003 87500 333 87614;
0174224220999992000021818004+65900+034770FM-12+001099999V0201301N002010045019N0160001N1-00061-00221099911ADDAA112003091GA1071+004509059GF107991071051004501001001KA1120M-00041MD1710161+9999REMSYN082AAXX  18181 22422 12466 71302 11006 21022 49991 57016 60032 87500 333 11004 87615;
0133224220999992000021900004+65900+034770FM-12+001099999V0209999C000012200019N0180001N1-00481-00721099881ADDGF104991041001022501031999MA1999999099731MD1410001+9999REMSYN066AAXX  19001 22422 42868 40000 11048 21072 39973 49988 54000 8403/;
0112224220999992000021903004+65900+034770FM-12+001099999V0201901N002012200019N0190001N1-00121-00701099971ADDGF104991041001022501031001MD1310091+9999REMSYN060AAXX  19031 22422 42869 41902 11012 21070 49997 53009 84030;
0142224220999992000021906004+65900+034770FM-12+001099999V0201901N002012200019N0210001N1-00781-01091100031ADDAA199000091GF102991021001022501031001MD1210061+9999REMSYN060AAXX  19061 22422 32871 21902 11078 21109 40003 52006 82030;EQDQ01  00002PRCP99
0112224220999992000021909004+65900+034770FM-12+001099999V0201801N002010210019N0210001N1-00511-00881100131ADDGF108991081001022501021999MD1210101+9999REMSYN060AAXX  19091 22422 42871 81802 11051 21088 40013 52010 8802/;
0133224220999992000021912004+65900+034770FM-12+001099999V0201901N002012200019N0230001N1-00571-00951100401ADDGF104991041001022501031001MA1999999100251MD1210271+9999REMSYN066AAXX  19121 22422 42873 41902 11057 21095 30025 40040 52027 84030;
0122224220999992000021915004+65900+034770FM-12+001099999V0202101N002012200019N0230001N1-00971-01331100641ADDGA1001+999999999GF100991001001999999001001MD1210241+9999REMSYN054AAXX  19151 22422 42973 02102 11097 21133 40064 52024;
0175224220999992000021918004+65900+034770FM-12+001099999V0202101N001012200019N0210001N1-01031-01391100791ADDAA199000091GA1001+999999999GF100991001001999999001001KA1999M-00501MD1210151+9999REMSYN064AAXX  19181 22422 32971 02101 11103 21139 40079 52015 333 11050;EQDQ01  00002PRCP99
0143224220999992000022000004+65900+034770FM-12+001099999V0201901N002012200019N0200001N1-01181-01531100961ADDGA1001+999999999GF100991001001999999001001MA1999999100911MD1210091+9999REMSYN060AAXX  20001 22422 42970 01902 11118 21153 30091 40096 52009;
0122224220999992000022003004+65900+034770FM-12+001099999V0201901N001012200019N0220001N1-01081-01441101071ADDGA1001+999999999GF100991001001999999001001MD1210111+9999REMSYN054AAXX  20031 22422 42972 01901 11108 21144 40107 52011;
0164224220999992000022006004+65900+034770FM-12+001099999V0201801N001010300019N0230001N1-01021-01301101071ADDAJ100789199999999GF105991031051004501031001IA1299KA1120N-01281MD1410001+9999REMSYN076AAXX  20061 22422 42473 51801 11102 21130 40107 54000 83530 333 21128 49078;
0132224220999992000022009004+65900+034770FM-12+001099999V0201901N002019999999N0250001N1-00581-00971101011ADDGA1041+004209059GF105991999999004501999999MD1810051+9999REMSYN064AAXX  20091 22422 42475 51902 11058 21097 40101 58005 333 84614;
0112224220999992000022015004+65900+034770FM-12+001099999V0201801N001012200019N0230001N1-00611-00961101151ADDGF104991021051004501031001MD1310211+9999REMSYN060AAXX  20151 22422 42473 41801 11061 21096 40115 53021 82530;
0187224220999992000022018004+65900+034770FM-12+001099999V0201801N001010042019N0190001N1-00451-00721101191ADDAA199000091GA1071+004209059GF107991071051004501001001KA1120M-00441MD1210041+9999REMSYN076AAXX  20181 22422 32469 71801 11045 21072 40119 52004 87500 333 11044 87614;EQDQ01  00002PRCP99
0133224220999992000022100004+65900+034770FM-12+001099999V0209999C000010300019N0180001N1-00641-00921101351ADDGF105991011051004501031001MA1999999101201MD1210111+9999REMSYN066AAXX  21001 22422 42468 50000 11064 21092 30120 40135 52011 81530;
0133224220999992000022103004+65900+034770FM-12+001099999V0209999C000012200019N0200001N1-00831-01111101431ADDAA124999999GF104991021051004501031001MD1210081+9999REMSYN070AAXX  21031 22422 42470 40000 11083 21111 40143 52008 82530 333 7000/;
0168224220999992000022106004+65900+034770FM-12+001099999V0202601N002010039019N0200001N1-01201-01471101461ADDAA199000091GA1071+003909059GF107991071051004501001001MD1210041+9999REMSYN070AAXX  21061 22422 32470 72602 11120 21147 40146 52004 87500 333 87613;EQDQ01  00002PRCP99
0138224220999992000022109004+65900+034770FM-12+001099999V0202501N001010042019N0210001N1-00951-01211101491ADDGA1061+004209059GF108991061051004501021001MD1110021+9999REMSYN070AAXX  21091 22422 42471 82501 11095 21121 40149 51002 86520 333 86614;
0112224220999992000022115004+65900+034770FM-12+001099999V0202701N001010300019N0210001N1-00971-01281101581ADDGF105991031051004501031001MD1210041+9999REMSYN060AAXX  21151 22422 42471 52701 11097 21128 40158 52004 83530;
0165224220999992000022118004+65900+034770FM-12+001099999V0202701N001012200019N0200001N1-01121-01401101601ADDAA199000091GF102991021001022501031001KA1999M-00941MD1110021+9999REMSYN070AAXX  21181 22422 32870 22701 11112 21140 40160 51002 82030 333 11094;EQDQ01  00002PRCP99
0133224220999992000022200004+65900+034770FM-12+001099999V0202701N001012200019N0180001N1-01381-01651101761ADDGF102991021001022501031001MA1999999101601MD1210081+9999REMSYN066AAXX  22001 22422 42868 22701 11138 21165 30160 40176 52008 82030;
0112224220999992000022203004+65900+034770FM-12+001099999V0202801N002012200019N0200001N1-01411-01651101761ADDGF102991021001022501031001MD1410001+9999REMSYN060AAXX  22031 22422 42870 22802 11141 21165 40176 54000 82030;
0112224220999992000022209004+65900+034770FM-12+001099999V0203001N002012200019N0250001N1-01151-01501102011ADDGF104991021051004501031001MD1210111+9999REMSYN060AAXX  22091 22422 42475 43002 11115 21150 40201 52011 82530;
0133224220999992000022212004+65900+034770FM-12+001099999V0203001N001012200019N0250001N1-01051-01411102121ADDGF102991021001022501031001MA1999999101961MD1210111+9999REMSYN066AAXX  22121 22422 42875 23001 11105 21141 30196 40212 52011 82030;
0112224220999992000022215004+65900+034770FM-12+001099999V0203001N004012200019N0230001N1-01181-01531102201ADDGF102991021001022501021001MD1210081+9999REMSYN060AAXX  22151 22422 42873 23004 11118 21153 40220 52008 82020;
0175224220999992000022218004+65900+034770FM-12+001099999V0203001N004012200019N0230001N1-01251-01521102251ADDAA199000091GA1001+999999999GF100991001001999999001001KA1999M-01041MD1210051+9999REMSYN064AAXX  22181 22422 32973 03004 11125 21152 40225 52005 333 11104;EQDQ01  00002PRCP99
0143224220999992000022300004+65900+034770FM-12+001099999V0202901N003012200019N0200001N1-01461-01731102341ADDGA1001+999999999GF100991001001999999001001MA1999999102181MD1210041+9999REMSYN060AAXX  23001 22422 42970 02903 11146 21173 30218 40234 52004;
0122224220999992000022303004+65900+034770FM-12+001099999V0202901N002012200019N0200001N1-01511-01781102361ADDGA1001+999999999GF100991001001999999001001MD1110021+9999REMSYN054AAXX  23031 22422 42970 02902 11151 21178 40236 51002;
0152224220999992000022306004+65900+034770FM-12+001099999V0202801N001012200019N0250001N1-01351-01701102471ADDAA199000091GA1001+999999999GF100991001001999999001001MD1210111+9999REMSYN054AAXX  23061 22422 32975 02801 11135 21170 40247 52011;EQDQ01  00002PRCP99
0122224220999992000022309004+65900+034770FM-12+001099999V0202701N001012200019N0250001N1-01061-01421102541ADDGA1001+999999999GF100991001001999999001001MD1210081+9999REMSYN054AAXX  23091 22422 42975 02701 11106 21142 40254 52008;
0143224220999992000022312004+65900+034770FM-12+001099999V0202701N001012200019N0270001N1-00851-01231102551ADDGA1001+999999999GF100991001001999999001001MA1999999102401MD1110011+9999REMSYN060AAXX  23121 22422 42977 02701 11085 21123 30240 40255 51001;
0122224220999992000022315004+65900+034770FM-12+001099999V0202601N001012200019N0230001N1-00931-01281102451ADDGA1001+999999999GF100991001001999999001001MD1810021+9999REMSYN054AAXX  23151 22422 42973 02601 11093 21128 40245 58002;
0175224220999992000022318004+65900+034770FM-12+001099999V0202401N001012200019N0200001N1-01061-01341102441ADDAA199000091GA1001+999999999GF100991001001999999001001KA1999M-00841MD1610021+9999REMSYN064AAXX  23181 22422 32970 02401 11106 21134 40244 56002 333 11084;EQDQ01  00002PRCP99
0143224220999992000022400004+65900+034770FM-12+001099999V0202501N001012200019N0190001N1-01361-01711102521ADDGA1001+999999999GF100991001001999999001001MA1999999102361MD1210081+9999REMSYN060AAXX  24001 22422 42969 02501 11136 21171 30236 40252 52008;
0122224220999992000022403004+65900+034770FM-12+001099999V0202201N001012200019N0200001N1-01581-01921102501ADDGA1001+999999999GF100991001001999999001001MD1110021+9999REMSYN054AAXX  24031 22422 42970 02201 11158 21192 40250 51002;
0152224220999992000022406004+65900+034770FM-12+001099999V0201901N001012200019N0230001N1-01751-02091102411ADDAA199000091GA1001+999999999GF100991001001999999001001MD1710091+9999REMSYN054AAXX  24061 22422 32973 01901 11175 21209 40241 57009;EQDQ01  00002PRCP99
0143224220999992000022412004+65900+034770FM-12+001099999V0201801N001012200019N0300001N1-01211-01561102211ADDGA1001+999999999GF100991001001999999001001MA1999999102051MD1710091+9999REMSYN060AAXX  24121 22422 42980 01801 11121 21156 30205 40221 57009;
0122224220999992000022415004+65900+034770FM-12+001099999V0209999C000012200019N0230001N1-01351-01701102101ADDGA1001+999999999GF100991001001999999001001MD1710111+9999REMSYN054AAXX  24151 22422 42973 00000 11135 21170 40210 57011;
0175224220999992000022418004+65900+034770FM-12+001099999V0202401N002012200019N0200001N1-01581-01921102021ADDAA199000091GA1001+999999999GF100991001001999999001001KA1999M-01201MD1710081+9999REMSYN064AAXX  24181 22422 32970 02402 11158 21192 40202 57008 333 11120;EQDQ01  00002PRCP99
0143224220999992000022500004+65900+034770FM-12+001099999V0202001N002012200019N0190001N1-01781-02111101821ADDGA1001+999999999GF100991001001999999001001MA1999999101661MD1710091+9999REMSYN060AAXX  25001 22422 42969 02002 11178 21211 30166 40182 57009;
0122224220999992000022503004+65900+034770FM-12+001099999V0201901N002012200019N0190001N1-01911-02241101711ADDGA1001+999999999GF100991001001999999001001MD1710111+9999REMSYN054AAXX  25031 22422 42969 01902 11191 21224 40171 57011;
0152224220999992000022506004+65900+034770FM-12+001099999V0202101N001012200019N0220001N1-02051-02381101661ADDAA199000091GA1001+999999999GF100991001001999999001001MD1710041+9999REMSYN054AAXX  25061 22422 32972 02101 11205 21238 40166 57004;EQDQ01  00002PRCP99
0122224220999992000022509004+65900+034770FM-12+001099999V0202601N001012200019N0250001N1-01551-01891101611ADDGA1001+999999999GF100991001001999999001001MD1710061+9999REMSYN054AAXX  25091 22422 42975 02601 11155 21189 40161 57006;
0122224220999992000022515004+65900+034770FM-12+001099999V0202901N002012200019N0230001N1-01721-02081101621ADDGA1001+999999999GF100991001001999999001001MD1310051+9999REMSYN054AAXX  25151 22422 42973 02902 11172 21208 40162 53005;
0175224220999992000022518004+65900+034770FM-12+001099999V0202901N001012200019N0200001N1-01861-02191101621ADDAA199000091GA1001+999999999GF100991001001999999001001KA1999M-01351MD1410001+9999REMSYN064AAXX  25181 22422 32970 02901 11186 21219 40162 54000 333 11135;EQDQ01  00002PRCP99
0143224220999992000022600004+65900+034770FM-12+001099999V0202801N001012200019N0190001N1-02061-02391101481ADDGA1001+999999999GF100991001001999999001001MA1999999101321MD1710051+9999REMSYN060AAXX  26001 22422 42969 02801 11206 21239 30132 40148 57005;
0122224220999992000022603004+65900+034770FM-12+001099999V0202701N001012200019N0190001N1-02131-02361101741ADDGA1001+999999999GF100991001001999999001001MD1310261+9999REMSYN054AAXX  26031 22422 42969 02701 11213 21236 40174 53026;
0181224220999992000022606004+65900+034770FM-12+001099999V0203301N001019999999N0210001N1-02201-02321101811ADDAA199000091AJ100779199999999GF106991001001999999001011IA1299MD1210071+9999REMSYN076AAXX  26061 22422 32971 63301 11220 21232 40181 52007 80001 555 21225 49077;EQDQ01  00002PRCP99
0112224220999992000022609004+65900+034770FM-12+001099999V0203201N001019999999N0250001N1-01701-01891101691ADDGF106991061001022501001011MD1210081+9999REMSYN060AAXX  26091 22422 42875 63201 11170 21189 40169 52008 86001;
0133224220999992000022612004+65900+034770FM-12+001099999V0209999C000019999999N0240001N1-01681-01871101941ADDGF105991001001999999001011MA1999999101781MD1210051+9999REMSYN066AAXX  26121 22422 42974 50000 11168 21187 30178 40194 52005 80001;
0112224220999992000022615004+65900+034770FM-12+001099999V0209999C000012200019N0200001N1-01641-01831101911ADDGF104991001001999999001011MD1810031+9999REMSYN060AAXX  26151 22422 42970 40000 11164 21183 40191 58003 80001;
0175224220999992000022618004+65900+034770FM-12+001099999V0209999C000012200019N0190001N1-01931-02141101841ADDAA199000091GA1001+999999999GF100991001001999999001001KA1999M-01621MD1710071+9999REMSYN064AAXX  26181 22422 32969 00000 11193 21214 40184 57007 333 11162;EQDQ01  00002PRCP99
0143224220999992000022700004+65900+034770FM-12+001099999V0209999C000012200019N0190001N1-02121-02301101681ADDGA1001+999999999GF100991001001999999001001MA1999999101521MD1710071+9999REMSYN060AAXX  27001 22422 42969 00000 11212 21230 30152 40168 57007;
0140224220999992000022703004+65900+034770FM-12+001099999V0202601N002010210019N0050001N1-01871-01991101481ADDAY171031AY221031GF108991081001022501021999MD1710201+9999MW1711REMSYN066AAXX  27031 22422 41850 82602 11187 21199 40148 57020 77172 8802/;
0140224220999992000022706004+65900+034770FM-12+001099999V0202601N001010210019N0120001N1-01221-01351101331ADDAY171061AY221061GF108991081001022501071999MD1710151+9999MW1221REMSYN066AAXX  27061 22422 11862 82601 11122 21135 40133 57015 72272 8807/;
0112224220999992000022709004+65900+034770FM-12+001099999V0202601N001010210019N0260001N1-01021-01221101131ADDGF106991061001022501031001MD1710201+9999REMSYN060AAXX  27091 22422 42876 62601 11102 21122 40113 57020 86030;
0112224220999992000022712004+65900+034770FM-12+001099999V0201901N001010300019N0250001N1-01051-01291100921ADDGF106991021051004501031001MD1710211+9999REMSYN060AAXX  27121 22422 42475 61901 11105 21129 40092 57021 82530;
0138224220999992000022715004+65900+034770FM-12+001099999V0201801N002010042019N0180001N1-01101-01301100701ADDGA1071+004209059GF107991071051004501001001MD1710161+9999REMSYN070AAXX  27151 22422 42468 71802 11110 21130 40070 57016 87500 333 87614;
0168224220999992000022718004+65900+034770FM-12+001099999V0201801N002010045019N0160001N1-01161-01361100481ADDAA199000021GA1071+004509059GF107991071051004501001001KA1120M-01031MD1710221+9999REMSYN076AAXX  27181 22422 32466 71802 11116 21136 40048 57022 87500 333 11103 87615;
0159224220999992000022800004+65900+034770FM-12+001099999V0201801N002010042019N0150001N1-01231-01431100271ADDGA1071+004209059GF107991071051004501001001MA1999999100111MD1710111+9999REMSYN076AAXX  28001 22422 42465 71802 11123 21143 30011 40027 57011 87500 333 87614;
0185224220999992000022803004+65900+034770FM-12+001099999V0201701N002010039019N0050001N1-01121-01251099741ADDAY171031AY211031GA1071+003909059GF107991071051004501001001MD1810532+9999MW1711REMSYN076AAXX  28031 22422 41450 71702 11112 21125 49974 58053 77171 87500 333 87613;EQDQ01+000532APC3  
0140224220999992000022806004+65900+034770FM-12+001099999V0201501N005010210019N0016001N1-00691-00741098831ADDAY171061AY231061GF108991081001022501021999MD1810901+9999MW1731REMSYN066AAXX  28061 22422 11816 81505 11069 21074 49883 58090 77373 8802/;
0185224220999992000022809004+65900+034770FM-12+001099999V0201501N006010030019N0019001N1-00671-00721098591ADDAY171031AY271031GA1081+003009069GF108991999071004501021999MD1710241+9999MW1731REMSYN076AAXX  28091 22422 41419 81506 11067 21072 49859 57024 77377 8872/ 333 88710;EQDQ01+000082SCOTLC
0206224220999992000022812004+65900+034770FM-12+001099999V0201301N006010033019N0015001N1-00651-00731098291ADDAY171061AY271061GA1081+003309069GF108991999071004501021999MA1999999098141MD1710301+9999MW1731REMSYN082AAXX  28121 22422 41415 81306 11065 21073 39814 49829 57030 77377 8872/ 333 88711;EQDQ01+000082SCOTLC
0185224220999992000022815004+65900+034770FM-12+001099999V0201001N006010027019N0021001N1-01822+99999098241ADDAY171031AY271031GA1081+002709069GF108991999071002501021999MD1710051+9999MW1711REMSYN076AAXX  28151 22422 41321 81006 11182 21088 49824 57005 77177 8872/ 333 88709;EQDQ01+000082SCOTLC
0174224220999992000022818004+65900+034770FM-12+001099999V0201201N004010039019N0130001N1-00951-01111098361ADDAA112003091GA1071+003909059GF107991071051004501001001KA1120M-00631MD1310131+9999REMSYN082AAXX  28181 22422 13463 71204 11095 21111 49836 53013 60032 87500 333 11063 87613;
0180224220999992000022900004+65900+034770FM-12+001099999V0201601N002010042019N0150001N1-01081-01281098711ADDGA1071+004209059GF107991071051004501001001MA1999999098551REMSYN076AAXX  29001 22422 42465 71602 11108 21128 39855 49871 52913 87500 333 87614;EQDQ01+000027APCTENQ02+009137APC3  
0138224220999992000022903004+65900+034770FM-12+001099999V0201601N002010045019N0150001N1-01141-01341098501ADDGA1071+004509059GF107991071051004501001001MD1810211+9999REMSYN070AAXX  29031 22422 42465 71602 11114 21134 49850 58021 87500 333 87615;
0185224220999992000022906004+65900+034770FM-12+001099999V0200801N005010030019N0022001N1-01201-01401098511ADDAY171061AY231061GA1081+003009069GF108991999071004501021999MD1310021+9999MW1711REMSYN076AAXX  29061 22422 11422 80805 11120 21140 49851 53002 77173 8872/ 333 88710;EQDQ01+000082SCOTLC
0140224220999992000022909004+65900+034770FM-12+001099999V0200601N006010210019N0035001N1-01411-01611098891ADDAY171031AY271031GF108991081001022501021999MD1210371+9999MW1711REMSYN066AAXX  29091 22422 41835 80606 11141 21161 49889 52037 77177 8802/;
0133224220999992000022912004+65900+034770FM-12+001099999V0200401N002010210019N0150001N1-01501-01771099191ADDGF108991081001022501021999MA1999999099031MD1210301+9999REMSYN066AAXX  29121 22422 42865 80402 11150 21177 39903 49919 52030 8802/;
0112224220999992000022915004+65900+034770FM-12+001099999V0200301N001010210019N0150001N1-01681-01941099551ADDGF108991081001022501021999MD1210361+9999REMSYN060AAXX  29151 22422 42865 80301 11168 21194 49955 52036 8802/;
0162224220999992000022918004+65900+034770FM-12+001099999V0209999C000012200019N0150001N1-01841-02101099851ADDAA112000791GA1001+999999999GF100991001001999999001001KA1999M-01181MD1210271+9999REMSYN070AAXX  29181 22422 12965 00000 11184 21210 49985 52027 69902 333 11118;
0133224220999992000030100004+65900+034770FM-12+001099999V0209999C000012200019N0180001N1-01981-02241100031ADDGF103991031001022501031001MA1999999099871MD1210101+9999REMSYN066AAXX  01001 22422 42868 30000 11198 21224 39987 40003 52010 83030;
0148224220999992000030103004+65900+034770FM-12+001099999V0201201N002010042019N0180001N1-01641-01831099771ADDGA1071+004209069GF107991071051004501001001MD1810261+9999REMSYN080AAXX  01031 22422 42468 71202 11164 21183 49977 58026 87500 333 87614 555 7996/;
0166224220999992000030106004+65900+034770FM-12+001099999V0201301N005010036019N0021001N1-01321-01521099431ADDAY171061AY231061GA1061+003609069GF108991061071004501021999MD1710341+9999MW1731REMSYN076AAXX  01061 22422 11421 81305 11132 21152 49943 57034 77373 8672/ 333 86712;
