0152227270999992000022618004+62170+034300FM-12+004099999V0209999C000012200019N0500001N1-02001-02261102181ADDAA199000091GA1001+999999999GF100991001001999999001001MD1210031+9999REMSYN054AAXX  26181 22727 32984 02700 11200 21226 40218 52003;EQDQ01  00002PRCP99
0187227270999992000030300004+62170+034300FM-12+004099999V0202501N003010075019N0180001N1-00511-00651097691ADDAY181061AY271061GA1051+007509059GF108991061091004501071999MA1999999095701MD1210091+9999MW1021REMSYN082AAXX  03001 22727 41468 82503 11051 21065 39570 49769 52009 70287 8697/ 333 85625;
0187227270999992000031012004+62170+034300FM-12+004099999V0203001N00201004201CN0070001N1-00711-01191099281ADDAY181061AY211061GA1041+005709099GF106991061091004501001001MA1999999098251MD1210101+9999MW1851REMSYN082AAXX  10121 22727 41457 63002 11071 21119 39825 49928 52010 78581 86900 333 84919;
0174227270999992000102606004+62170+034300FM-12+004099999V0202001N003010051019N0200001N1+00771+00551099211ADDAA112000591GA1071+005109059GF107991071081004501001001KA1120N+00761MD1410001+9999REMSYN082AAXX  26061 22727 12498 72003 10077 20055 49921 54000 69942 87800 333 20076 87617;
