0187227210999992000010100004+62900+034400FM-12+008099999V0209999C000010054019N0210001N1-01021-01221101861ADDAY181061AY221061GA1061+005409099GF108991081091004501999999MA1999999100791MD1210191+9999MW1851REMSYN082AAXX  01001 22721 41471 80000 11102 21122 30079 40186 52019 78582 889// 333 86918;
0172227210999992000010103004+62900+034400FM-12+008099999V0209999C000010054019N0210001N1-01021-01221102051ADDAY181031AY221031GA1061+005409099GF108991081091004501999999MD1210191+9999MW1851REMSYN082AAXX  01031 22721 41471 80000 11102 21122 40205 52019 78582 889// 333 55/// 86918;
0231227210999992000010106004+62900+034400FM-12+008099999V0209999C000010087019N0350001N1-01041-01241102101ADDAA112000391AJ100489199999999AY181061AY221061GA1061+008709059GF108991061051008001051999IA1239KA1120N-01051MD1210051+9999MW1021REMSYN094AAXX  01061 22721 11581 80000 11104 21124 40210 52005 69932 70282 8655/ 333 21105 47048 86629;
0166227210999992000010109004+62900+034400FM-12+008099999V0200901N001010063019N0120001N1-01041-01241102251ADDAY181031AY221031GA1061+006309099GF108991061091008001071999MD1210151+9999MW1851REMSYN076AAXX  01091 22721 41562 80901 11104 21124 40225 52015 78582 8697/ 333 86921;
0187227210999992000010112004+62900+034400FM-12+008099999V0201101N001010054019N0060001N1-01111-01311102381ADDAY181061AY221061GA1061+005409099GF108991061091004501051999MA1999999101311MD1210131+9999MW1851REMSYN082AAXX  01121 22721 41456 81101 11111 21131 30131 40238 52013 78582 8695/ 333 86918;
0140227210999992000010115004+62900+034400FM-12+008099999V0200901N001012200019N0300001N1-01441-01571102491ADDAY181031AY211031GF103991031001999999031001MD1210091+9999MW1261REMSYN066AAXX  01151 22721 41980 30901 11144 21157 40249 52009 72681 83030;
0202227210999992000010118004+62900+034400FM-12+008099999V0201301N001010060019N0140001N1-01711-01831102601ADDAA112000391AY181061AY211061GA1051+006009099GF105991051091008001001001KA1120M-01041MD1210091+9999MW1851REMSYN088AAXX  01181 22721 11564 51301 11171 21183 40260 52009 69932 78581 85900 333 11104 85920;
0150227210999992000010121004+62900+034400FM-12+008099999V0209999C000012200019N0170001N1-01901-02091102741ADDAY181031AY211031GA1001+999999999GF100991001001999999001001MD1310141+9999MW1021REMSYN060AAXX  01211 22721 41967 00000 11190 21209 40274 53014 70281;
0171227210999992000010200004+62900+034400FM-12+008099999V0209999C000012200019N0230001N1-02041-02231102801ADDAY181061AY211061GA1001+999999999GF100991001001999999001001MA1999999101681MD1210051+9999MW1021REMSYN066AAXX  02001 22721 41973 00000 11204 21223 30168 40280 52005 70281;
0172227210999992000010203004+62900+034400FM-12+008099999V0209999C000010018019N0080001N1-01831-01951102811ADDAY181031AY211031GA1051+001809069GF108991081091001501999999MD1210021+9999MW1851REMSYN082AAXX  02031 22721 41258 80000 11183 21195 40281 52002 78581 889// 333 55/// 85706;
0231227210999992000010206004+62900+034400FM-12+008099999V0200901N001010018019N0080001N1-01751-01941102811ADDAA112000791AJ100489199999999AY181061AY221061GA1061+001809069GF108991081091001501999999IA1239KA1120N-02051MD1410001+9999MW1851REMSYN094AAXX  02061 22721 11258 80901 11175 21194 40281 54000 69902 78582 889// 333 21205 47048 86706;
0159227210999992000010209004+62900+034400FM-12+008099999V0201001N001019999999N0027001N1-01791-01981102821ADDAY181031AY211031GF108991999091008001001001MD1310011+9999MW1851REMSYN066AAXX  02091 22721 41527 81001 11179 21198 40282 53001 78581 84900;EQDQ01+000042SCOTLC
0171227210999992000010212004+62900+034400FM-12+008099999V0201201N001012200019N0200001N1-02121-02301102741ADDAY181061AY211061GA1001+999999999GF100991001001999999001001MA1999999101611MD1710101+9999MW1021REMSYN066AAXX  02121 22721 41970 01201 11212 21230 30161 40274 57010 70281;
0166227210999992000010215004+62900+034400FM-12+008099999V0201201N001010054019N0200001N1-02081-02261102661ADDAY181031AY211031GA1061+005409099GF106991061091004501001001MD1710071+9999MW1851REMSYN076AAXX  02151 22721 41470 61201 11208 21226 40266 57007 78581 86900 333 86918;
0202227210999992000010218004+62900+034400FM-12+008099999V0200901N002010024019N0150001N1-01701-01891102451ADDAA112000191AY181061AY211061GA1061+002409069GF108991081091002501999999KA1120M-01701MD1710191+9999MW1851REMSYN088AAXX  02181 22721 11365 80902 11170 21189 40245 57019 69922 78581 889// 333 11170 86708;
0166227210999992000010221004+62900+034400FM-12+008099999V0201001N002010027019N0120001N1-01561-01751102331ADDAY181031AY221031GA1061+002709069GF108991081091002501999999MD1710111+9999MW1851REMSYN076AAXX  02211 22721 41362 81002 11156 21175 40233 57011 78582 889// 333 86709;
0187227210999992000010300004+62900+034400FM-12+008099999V0201201N002010018019N0060001N1-01551-01681102191ADDAY181061AY221061GA1061+001809069GF108991081091002501999999MA1999999101101MD1710141+9999MW1851REMSYN082AAXX  03001 22721 41356 81202 11155 21168 30110 40219 57014 78582 889// 333 86706;
0172227210999992000010303004+62900+034400FM-12+008099999V0201101N002010018019N0045001N1-01321-01451102001ADDAY181031AY221031GA1061+001809069GF108991081091001501999999MD1710191+9999MW1851REMSYN082AAXX  03031 22721 41245 81102 11132 21145 40200 57019 78582 889// 333 55/// 86706;
0237227210999992000010306004+62900+034400FM-12+008099999V0201101N002010018019N0042001N1-01221-01351101911ADDAA112000391AJ100509199999999AY181061AY221061GA1061+001809079GF108991081091002501999999IA1239KA1120N-01721MD1710081+9999MW1851REMSYN100AAXX  03061 22721 11342 81102 11122 21135 40191 57008 69932 78582 889// 333 21172 47050 86706 91111;
0166227210999992000010309004+62900+034400FM-12+008099999V0201401N002010048019N0019001N1-01161-01291101891ADDAY181031AY221031GA1061+004809099GF107991061091004501031001MD1710021+9999MW1851REMSYN076AAXX  03091 22721 41419 71402 11116 21129 40189 57002 78582 86930 333 86916;
0187227210999992000010312004+62900+034400FM-12+008099999V0201101N002010030019N0022001N1-01111-01241101751ADDAY181061AY221061GA1061+003009069GF108991081091004501999999MA1999999100691MD1710121+9999MW1851REMSYN082AAXX  03121 22721 41422 81102 11111 21124 30069 40175 57012 78582 889// 333 86710;
0166227210999992000010315004+62900+034400FM-12+008099999V0200901N002010030019N0028001N1-01151-01281101691ADDAY181031AY221031GA1061+003009069GF108991081091004501999999MD1710071+9999MW1851REMSYN076AAXX  03151 22721 41428 80902 11115 21128 40169 57007 78582 889// 333 86710;
0202227210999992000010318004+62900+034400FM-12+008099999V0201101N003010018019N0020001N1-01261-01391101531ADDAA112000891AY181061AY221061GA1061+001809069GF108991081091001501999999KA1120M-01111MD1710161+9999MW1851REMSYN088AAXX  03181 22721 11220 81103 11126 21139 40153 57016 69972 78582 889// 333 11111 86706;
0166227210999992000010321004+62900+034400FM-12+008099999V0201101N002010018019N0037001N1-01381-01511101421ADDAY181031AY221031GA1061+001809069GF108991081091001501999999MD1710121+9999MW1851REMSYN076AAXX  03211 22721 41237 81102 11138 21151 40142 57012 78582 889// 333 86706;
0187227210999992000010400004+62900+034400FM-12+008099999V0201201N002010015019N0030001N1-01411-01541101231ADDAY181061AY221061GA1061+001509069GF108991081091001501999999MA1999999100161MD1710181+9999MW1851REMSYN082AAXX  04001 22721 41230 81202 11141 21154 30016 40123 57018 78582 889// 333 86705;
0172227210999992000010403004+62900+034400FM-12+008099999V0201301N003010015019N0024001N1-01421-01551100981ADDAY181031AY221031GA1061+001509069GF108991081091001501999999MD1710251+9999MW1851REMSYN082AAXX  04031 22721 41224 81303 11142 21155 40098 57025 78582 889// 333 55/// 86705;
0231227210999992000010406004+62900+034400FM-12+008099999V0201201N003010024019N0020001N1-01381-01511100641ADDAA112000591AJ100509199999999AY181061AY231061GA1051+002409069GF108991081091002501999999IA1239KA1120N-01441MD1710341+9999MW1851REMSYN094AAXX  04061 22721 11320 81203 11138 21151 40064 57034 69962 78583 889// 333 21144 47050 85708;
0185227210999992000010409004+62900+034400FM-12+008099999V0201201N003010018019N0021001N1-01271-01401100351ADDAY181031AY271031GA1051+001809069GF108991999071001501021999MD1710281+9999MW1711REMSYN076AAXX  04091 22721 41221 81203 11127 21140 40035 57028 77187 8872/ 333 85706;EQDQ01+000082SCOTLC
0212227210999992000010412004+62900+034400FM-12+008099999V0201101N004010027019N0012001N1-01211-01341100021ADDAY181061AY271061GA1061+002709079GF108991999071002501021999MA1999999098961MD1710331+9999MW1711REMSYN088AAXX  04121 22721 41312 81104 11121 21134 39896 40002 57033 77187 8872/ 333 86709 91111;EQDQ01+000082SCOTLC
0185227210999992000010415004+62900+034400FM-12+008099999V0201101N003010015019N0011001N1-01141-01271099731ADDAY171031AY231031GA1071+001509069GF108991999071001501021999MD1710281+9999MW1731REMSYN076AAXX  04151 22721 41211 81103 11114 21127 49973 57028 77373 8872/ 333 87705;EQDQ01+000082SCOTLC
0221227210999992000010418004+62900+034400FM-12+008099999V0201201N003010012019N0022001N1-01081-01211099461ADDAA112003091AY171061AY231061GA1071+001209069GF108991999071001501021999KA1120M-01081MD1710261+9999MW1711REMSYN088AAXX  04181 22721 11222 81203 11108 21121 49946 57026 60032 77173 8872/ 333 11108 87704;EQDQ01+000082SCOTLC
0185227210999992000010421004+62900+034400FM-12+008099999V0201101N003010012019N0024001N1-00971-01181099351ADDAY171031AY231031GA1061+001209069GF108991999071001501021999MD1610111+9999MW1711REMSYN076AAXX  04211 22721 41224 81103 11097 21118 49935 56011 77173 8872/ 333 86704;EQDQ01+000082SCOTLC
0206227210999992000010500004+62900+034400FM-12+008099999V0201101N003010024019N0021001N1-00911-01111099241ADDAY171061AY231061GA1061+002409069GF108991999071002501021999MA1999999098211MD1710101+9999MW1711REMSYN082AAXX  05001 22721 41321 81103 11091 21111 39821 49924 57010 77173 8872/ 333 86708;EQDQ01+000082SCOTLC
0191227210999992000010503004+62900+034400FM-12+008099999V0201001N002010021019N0050001N1-00851-01041099221ADDAY171031AY231031GA1061+002109069GF108991999071002501021999MD1710021+9999MW1711REMSYN082AAXX  05031 22721 41350 81002 11085 21104 49922 57002 77173 8872/ 333 55/// 86707;EQDQ01+000082SCOTLC
0250227210999992000010506004+62900+034400FM-12+008099999V0201101N002010024019N0100001N1-00861-00971099241ADDAA112003091AJ100549199999999AY171061AY231061GA1061+002409069GF108991999071002501021999IA1239KA1120N-01091MD1310021+9999MW1711REMSYN094AAXX  05061 22721 11360 81102 11086 21097 49924 53002 60032 77173 8872/ 333 21109 47054 86708;EQDQ01+000082SCOTLC
0185227210999992000010509004+62900+034400FM-12+008099999V0201001N001010018019N0021001N1-00861-00971099421ADDAY171031AY221031GA1061+001809069GF108991999071001501021999MD1210181+9999MW1711REMSYN076AAXX  05091 22721 41221 81001 11086 21097 49942 52018 77172 8872/ 333 86706;EQDQ01+000082SCOTLC
0187227210999992000010512004+62900+034400FM-12+008099999V0202701N001010039019N0060001N1-00821-00921099581ADDAY171061AY221061GA1061+003909069GF108991061071004501021999MA1999999098551MD1210161+9999MW1711REMSYN082AAXX  05121 22721 41456 82701 11082 21092 39855 49958 52016 77172 8672/ 333 86713;
0166227210999992000010515004+62900+034400FM-12+008099999V0202701N001010033019N0080001N1-00781-00921099851ADDAY181031AY271031GA1051+003309069GF108991081091004501999999MD1210261+9999MW1851REMSYN076AAXX  05151 22721 41458 82701 11078 21092 49985 52026 78587 889// 333 85711;
0172227210999992000010518004+62900+034400FM-12+008099999V0203101N002010042019N0090001N1-00801-00941100161ADDAA112001091AY181061AY271061GF108991081091004501999999MD1210311+9999MW1851REMSYN087AAXX  05181 22721 11459 83102 11080 21094 40016 52031 60012 78587 889// 333 1077 85710;
0166227210999992000010521004+62900+034400FM-12+008099999V0202601N001010054019N0150001N1-00871-00981100481ADDAY181031AY221031GA1051+005409099GF107991051091004501031001MD1210321+9999MW1021REMSYN076AAXX  05211 22721 41465 72601 11087 21098 40048 52032 70282 85930 333 85918;
0172227210999992000010603004+62900+034400FM-12+008099999V0203201N001010036019N0110001N1-00851-01001101061ADDAY181031AY221031GA1051+003609069GF108991081091004501999999MD1210291+9999MW1021REMSYN082AAXX  06031 22721 41461 83201 11085 21100 40106 52029 70282 889// 333 55/// 85712;
0231227210999992000010606004+62900+034400FM-12+008099999V0209999C000010033019N0160001N1-00851-01041101181ADDAA112000191AJ100539199999999AY181061AY221061GA1061+003309069GF108991081091004501999999IA1239KA1120N-00891MD1210121+9999MW1261REMSYN094AAXX  06061 22721 11466 80000 11085 21104 40118 52012 69922 72682 889// 333 21089 47053 86711;
0166227210999992000010609004+62900+034400FM-12+008099999V0209999C000010036019N0043001N1-00801-00941101341ADDAY181031AY221031GA1051+003609069GF108991081091004501999999MD1210151+9999MW1851REMSYN076AAXX  06091 22721 41443 80000 11080 21094 40134 52015 78582 889// 333 85712;
0187227210999992000010612004+62900+034400FM-12+008099999V0209999C000010030019N0070001N1-00741-00871101351ADDAY181061AY221061GA1081+003009069GF108991081091004501999999MA1999999100291MD1210011+9999MW1851REMSYN082AAXX  06121 22721 41457 80000 11074 21087 30029 40135 52001 78582 889// 333 88710;
0166227210999992000010615004+62900+034400FM-12+008099999V0200901N001010012019N0060001N1-00681-00761101241ADDAY181031AY221031GA1081+001209069GF108991081061001501999999MD1710091+9999MW1101REMSYN076AAXX  06151 22721 41256 80901 11068 21076 40124 57009 71082 886// 333 88704;
0193227210999992000010700004+62900+034400FM-12+008099999V0201401N002010015019N0019001N1-00031-00061100491ADDAY181061AY221061GA1061+001509079GF108991081091001501999999MA1999999099481MD1710231+9999MW1851REMSYN088AAXX  07001 22721 41219 81402 11003 21006 39948 40049 57023 78582 889// 333 86705 93701;
0178227210999992000010703004+62900+034400FM-12+008099999V0201801N002010021019N0036001N1-00011-00041100301ADDAY181031AY221031GA1061+002109079GF108991081091002501999999MD1710191+9999MW1101REMSYN088AAXX  07031 22721 41336 81802 11001 21004 40030 57019 71082 889// 333 55/// 86707 93702;
0237227210999992000010706004+62900+034400FM-12+008099999V0201601N002010027019N0080001N1-00061-00101100091ADDAA112001091AJ100529199999999AY181061AY221061GA1061+002709079GF108991081091002501999999IA1239KA1120N-00571MD1710211+9999MW1851REMSYN100AAXX  07061 22721 11358 81602 11006 21010 40009 57021 60012 78582 889// 333 21057 47052 86709 93702;
0166227210999992000010709004+62900+034400FM-12+008099999V0201601N002010018019N0019001N1-00081-00121099931ADDAY181031AY221031GA1061+001809069GF108991081091001501999999MD1710161+9999MW1851REMSYN076AAXX  07091 22721 41219 81602 11008 21012 49993 57016 78582 889// 333 86706;
0187227210999992000010712004+62900+034400FM-12+008099999V0201801N001010021019N0017001N1-00081-00151099761ADDAY181061AY221061GA1061+002109069GF108991081091002501999999MA1999999098751MD1710171+9999MW1851REMSYN082AAXX  07121 22721 41317 81801 11008 21015 39875 49976 57017 78582 889// 333 86707;
0166227210999992000010715004+62900+034400FM-12+008099999V0201801N001010048019N0140001N1-00021-00111099701ADDAY181031AY221031GA1071+004809099GF107991071091004501001001MD1310051+9999MW1021REMSYN076AAXX  07151 22721 41464 71801 11002 21011 49970 53005 70282 87900 333 87916;
0180227210999992000010718004+62900+034400FM-12+008099999V0202601N002012200019N0250001N1+00021-00071099681ADDAA112002091AY181061AY211061GF102991021091008001001001KA1999M+00051MD1710021+9999MW1011REMSYN082AAXX  07181 22721 11575 22602 10002 21007 49968 57002 60022 70181 82900 333 10005;
0166227210999992000010721004+62900+034400FM-12+008099999V0202701N002010057019N0200001N1+00061-00021099781ADDAY181031AY211031GA1071+005709099GF107991071091004501001001MD1310101+9999MW1851REMSYN076AAXX  07211 22721 41470 72702 10006 21002 49978 53010 78581 87900 333 87919;
0187227210999992000010800004+62900+034400FM-12+008099999V0202601N002010006019N0500001N1-00021-00141099921ADDAY181061AY211061GA1071+000609099GF107991071091008001001001MA1999999098911MD1210131+9999MW1021REMSYN082AAXX  08001 22721 41584 72602 11002 21014 39891 49992 52013 70281 87900 333 87902;
0132227210999992000010803004+62900+034400FM-12+008099999V0209999C000012200019N0500001N1-00151-00291100001ADDGA1001+999999999GF100991001001999999001001MD1210071+9999REMSYN064AAXX  08031 22721 42984 00000 11015 21029 40000 52007 333 55///;
0186227210999992000010806004+62900+034400FM-12+008099999V0201801N001019999999N0500001N1-00131-00211099921ADDAA112000791AJ100519199999999GF108991999999002501999999IA1239KA1120N-00261MD1710071+9999REMSYN087AAXX  08061 22721 12384 81801 11013 21021 49992 57007 69902 889/ 333 21026 47051 85709;
0166227210999992000010809004+62900+034400FM-12+008099999V0201901N001010027019N0350001N1+00041-00021099811ADDAY181031AY221031GA1061+002709069GF108991081091002501999999MD1710111+9999MW1851REMSYN076AAXX  08091 22721 41381 81901 10004 21002 49981 57011 78582 889// 333 86709;
0187227210999992000010812004+62900+034400FM-12+008099999V0201601N001010012019N0060001N1+00081+00051099621ADDAY181061AY221061GA1061+001209069GF108991081091001501999999MA1999999098621MD1710181+9999MW1101REMSYN082AAXX  08121 22721 41256 81601 10008 20005 39862 49962 57018 71082 889// 333 86704;
0166227210999992000010815004+62900+034400FM-12+008099999V0201401N002010027019N0029001N1+00151+00121099411ADDAY181031AY221031GA1071+002709069GF108991081091002501999999MD1710211+9999MW1801REMSYN076AAXX  08151 22721 41329 81402 10015 20012 49941 57021 78082 889// 333 87709;
0202227210999992000010818004+62900+034400FM-12+008099999V0202101N001010027019N0080001N1+00221+00171099311ADDAA112000591AY181061AY221061GA1061+002709069GF108991081091002501999999KA1120M+00231MD1710101+9999MW1021REMSYN088AAXX  08181 22721 11358 82101 10022 20017 49931 57010 69942 70282 889// 333 10023 86709;
0144227210999992000010821004+62900+034400FM-12+008099999V0202201N003010054019N0500001N1+00291+00161099211ADDGA1071+005409099GF107991071091004501001001MD1710081+9999REMSYN076AAXX  08211 22721 42484 72203 10029 20016 49921 57008 87900 333 87918 91111;
0171227210999992000010900004+62900+034400FM-12+008099999V0202701N002012200019N0500001N1+00281+00101099381ADDAY181061AY211061GF102991021091008001001001MA1999999098391MD1310161+9999MW1011REMSYN082AAXX  09001 22721 41584 22702 10028 20010 39839 49938 53016 70181 82900 333 91111;
0138227210999992000010903004+62900+034400FM-12+008099999V0202601N002010066019N0500001N1+00241+00051099471ADDGA1081+006609099GF108991081091008001999999MD1110081+9999REMSYN070AAXX  09031 22721 42584 82602 10024 20005 49947 51008 889// 333 88922;
0144227210999992000010909004+62900+034400FM-12+008099999V0202501N003010072019N0500001N1+00301-00151099721ADDGA1061+007209069GF108991081091008001999999MD1210211+9999REMSYN076AAXX  09091 22721 42599 82503 10030 21015 49972 52021 889// 333 86624 91111;
0165227210999992000010912004+62900+034400FM-12+008099999V0202401N003010072019N0500001N1+00331-00181099901ADDGA1051+007209069GF107991071091008001001001MA1999999098911MD1210181+9999REMSYN082AAXX  09121 22721 42599 72403 10033 21018 39891 49990 52018 87900 333 85624 91112;
0122227210999992000010915004+62900+034400FM-12+008099999V0202501N003012200019N0500001N1+00251-00241100121ADDGF102991021001999999031001MD1210211+9999REMSYN070AAXX  09151 22721 42984 22503 10025 21024 40012 52021 82030 333 91112;
0210227210999992000010918004+62900+034400FM-12+008099999V0202401N004010072019N0500001N1+00261-00231100251ADDAA106000091GA1061+007209069GF106991061051008001001001KA1120M+00341MD1210131+9999OA140101101REMSYN088AAXX  09181 22721 32584 62404 10026 21023 40025 52013 86500 333 10034 86624 91011 91113;EQDQ01  00002PRCP06
0144227210999992000010921004+62900+034400FM-12+008099999V0202601N003010090019N0500001N1+00281-00271100441ADDGA1071+009009069GF107991071051008001001001MD1210191+9999REMSYN076AAXX  09211 22721 42584 72603 10028 21027 40044 52019 87500 333 87630 91112;
0165227210999992000011000004+62900+034400FM-12+008099999V0202501N002010081019N0500001N1+00251-00271100531ADDGA1071+008109069GF107991071051008001001001MA1999999099521MD1210081+9999REMSYN082AAXX  10001 22721 42584 72502 10025 21027 39952 40053 52008 87500 333 87627 91112;
0144227210999992000011003004+62900+034400FM-12+008099999V0202701N004010093019N0500001N1+00231-00301100661ADDGA1071+009309059GF107991071051008001001001MD1210131+9999REMSYN076AAXX  10031 22721 42584 72704 10023 21030 40066 52013 87500 333 55/// 87631;
0216227210999992000011006004+62900+034400FM-12+008099999V0202801N002010084019N0500001N1+00141-00341100781ADDAA106000091AJ100439199999999GA1071+008409029GF107991071051008001001001IA1279KA1120N+00131MD1210121+9999REMSYN082AAXX  10061 22721 32584 72802 10014 21034 40078 52012 87500 333 20013 43043 87528;EQDQ01  00002PRCP06
0144227210999992000011009004+62900+034400FM-12+008099999V0202501N003010090019N0500001N1+00091-00371100931ADDGA1061+009009069GF106991061051008001001001MD1210151+9999REMSYN076AAXX  10091 22721 42599 62503 10009 21037 40093 52015 86500 333 86630 91111;
0143227210999992000011012004+62900+034400FM-12+008099999V0202701N003012200019N0500001N1+00011-00471101051ADDGF102991021051008001001001MA1999999100031MD1210111+9999REMSYN076AAXX  10121 22721 42599 22703 10001 21047 30003 40105 52011 82500 333 91111;
0122227210999992000011015004+62900+034400FM-12+008099999V0202601N003012200019N0500001N1-00141-00541101171ADDGA1001+999999999GF100991001001999999001001MD1210111+9999REMSYN054AAXX  10151 22721 42984 02603 11014 21054 40117 52011;
0175227210999992000011018004+62900+034400FM-12+008099999V0202601N002012200019N0500001N1-00231-00571101251ADDAA106000091GA1001+999999999GF100991001001999999001001KA1999M+00161MD1210081+9999REMSYN064AAXX  10181 22721 32984 02602 11023 21057 40125 52008 333 10016;EQDQ01  00002PRCP06
0122227210999992000011021004+62900+034400FM-12+008099999V0202601N004012200019N0500001N1-00311-00551101441ADDGF104991041051008001001001MD1310191+9999REMSYN070AAXX  10211 22721 42584 42604 11031 21055 40144 53019 84500 333 91112;
0153227210999992000011100004+62900+034400FM-12+008099999V0202701N001012200019N0500001N1-00371-00591101571ADDGA1001+999999999GF100991001001999999001001MA1999999100531MD1210121+9999REMSYN070AAXX  11001 22721 42984 02701 11037 21059 30053 40157 52012 333 91112;
0132227210999992000011103004+62900+034400FM-12+008099999V0202701N002012200019N0500001N1-00451-00611101631ADDGA1001+999999999GF100991001001999999001001MD1210061+9999REMSYN064AAXX  11031 22721 42984 02702 11045 21061 40163 52006 333 55///;
0194227210999992000011106004+62900+034400FM-12+008099999V0202601N001012200019N0500001N1-00421-00581101721ADDAA106000091AJ100439199999999GF103991031051008001001001IA1279KA1120N-00531MD1210091+9999REMSYN076AAXX  11061 22721 32584 32601 11042 21058 40172 52009 83500 333 21053 43043;EQDQ01  00002PRCP06
0138227210999992000011109004+62900+034400FM-12+008099999V0209999C000010048019N0500001N1-00321-00491101621ADDGA1051+004809099GF107991071091004501001001MD1810091+9999REMSYN070AAXX  11091 22721 42499 70000 11032 21049 40162 58009 87900 333 85916;
0187227210999992000011112004+62900+034400FM-12+008099999V0201701N001010033019N0034001N1-00171-00311101431ADDAY181061AY221061GA1061+003309069GF108991081091004501999999MA1999999100401MD1710191+9999MW1851REMSYN082AAXX  11121 22721 41434 81701 11017 21031 30040 40143 57019 78582 889// 333 86711;
0166227210999992000011115004+62900+034400FM-12+008099999V0202301N001010021019N0040001N1+00021-00091101251ADDAY181031AY221031GA1061+002109069GF108991081091002501999999MD1710171+9999MW1851REMSYN076AAXX  11151 22721 41340 82301 10002 21009 40125 57017 78582 889// 333 86707;
0202227210999992000011118004+62900+034400FM-12+008099999V0202801N001010036019N0140001N1+00061-00021101141ADDAA112001091AY181061AY221061GA1051+003609069GF108991081091004501999999KA1120M+00061MD1710101+9999MW1261REMSYN088AAXX  11181 22721 11464 82801 10006 21002 40114 57010 60012 72682 889// 333 10006 85712;
0138227210999992000011121004+62900+034400FM-12+008099999V0202601N001010051019N0500001N1+00101+00021101171ADDGA1081+005109099GF108991081091004501999999MD1210031+9999REMSYN070AAXX  11211 22721 42484 82601 10010 20002 40117 52003 889// 333 88917;
0187227210999992000011200004+62900+034400FM-12+008099999V0202701N002010060019N0350001N1+00081+00031101301ADDAY181061AY221061GA1071+006009099GF107991071091008001001001MA1999999100281MD1210121+9999MW1801REMSYN082AAXX  12001 22721 41581 72702 10008 20003 30028 40130 52012 78082 87900 333 87920;
0172227210999992000011203004+62900+034400FM-12+008099999V0202201N001010054019N0500001N1+00101-00101101431ADDAY181031AY221031GA1061+005409099GF106991061091004501001001MD1210131+9999MW1021REMSYN082AAXX  12031 22721 41484 62201 10010 21010 40143 52013 70282 86900 333 55/// 86918;
0209227210999992000011206004+62900+034400FM-12+008099999V0202901N001012200019N0500001N1-00061-00241101501ADDAA112000191AJ100439199999999AY181061AY211061GF102991021051008001001001IA1279KA1120N-00061MD1210071+9999MW1011REMSYN088AAXX  12061 22721 11584 22901 11006 21024 40150 52007 69912 70181 82500 333 21006 43043;
0138227210999992000011209004+62900+034400FM-12+008099999V0202401N00201004201CN0500001N1+00001-00241101561ADDGA1041+004509099GF106991061091004501001001MD1210061+9999REMSYN070AAXX  12091 22721 42499 62402 10000 21024 40156 52006 86900 333 84915;
0159227210999992000011212004+62900+034400FM-12+008099999V0202601N002010048019N0500001N1+00061-00171101481ADDGA1061+004809099GF107991071091004501001001MA1999999100461MD1710081+9999REMSYN076AAXX  12121 22721 42499 72602 10006 21017 30046 40148 57008 87900 333 86916;
0138227210999992000011215004+62900+034400FM-12+008099999V0209999C000010045019N0500001N1+00131-00131101151ADDGA1081+004509099GF108991081091004501999999MD1710321+9999REMSYN070AAXX  12151 22721 42484 80000 10013 21013 40115 57032 889// 333 88915;
0202227210999992000011218004+62900+034400FM-12+008099999V0202001N002010042019N0260001N1+00141+00091100861ADDAA112000791AY181061AY221061GA1061+004209069GF108991081091004501999999KA1120M+00151MD1710291+9999MW1851REMSYN088AAXX  12181 22721 11476 82002 10014 20009 40086 57029 69902 78582 889// 333 10015 86714;
0166227210999992000011221004+62900+034400FM-12+008099999V0202101N002010030019N0110001N1+00071+00011100591ADDAY181031AY221031GA1061+003009069GF108991081091004501999999MD1710271+9999MW1851REMSYN076AAXX  12211 22721 41461 82102 10007 20001 40059 57027 78582 889// 333 86710;
0187227210999992000011300004+62900+034400FM-12+008099999V0202001N001010039019N0180001N1+00081+00031100471ADDAY181061AY221061GA1061+003909069GF108991081091004501999999MA1999999099461MD1710121+9999MW1851REMSYN082AAXX  13001 22721 41468 82001 10008 20003 39946 40047 57012 78582 889// 333 86713;
0150227210999992000011303004+62900+034400FM-12+008099999V0202201N001012200019N0300001N1+00121+00011100291ADDAY181031AY211031GF103991031091008001001001MD1710181+9999MW1021REMSYN076AAXX  13031 22721 41580 32201 10012 20001 40029 57018 70281 83900 333 55///;
0231227210999992000011306004+62900+034400FM-12+008099999V0202401N002010069019N0500001N1+00121-00111100201ADDAA112001091AJ100439199999999AY181061AY211061GA1071+006909099GF107991071091008001001001IA1279KA1120N+00051MD1710081+9999MW1261REMSYN094AAXX  13061 22721 11584 72402 10012 21011 40020 57008 60012 72681 87900 333 20005 43043 87923;
0189227210999992000011309004+62900+034400FM-12+008099999V0202601N004010063019N0500001N1+00021-00241100361ADDAY181031AY221031GA1051+006309099GF107991051091008001031001MD1310151+9999MW1261OA140101101REMSYN088AAXX  13091 22721 41599 72604 10002 21024 40036 53015 72682 85930 333 85921 91011 91113;
0171227210999992000011312004+62900+034400FM-12+008099999V0202901N003010300019N0500001N1+00081-00571100781ADDAY181061AY221061GF106991031051008001031001MA1999999099771MD1210421+9999MW1021REMSYN082AAXX  13121 22721 41599 62903 10008 21057 39977 40078 52042 70282 83530 333 91113;
0138227210999992000011315004+62900+034400FM-12+008099999V0202701N001010102019N0500001N1-00041-00491101041ADDGA1051+010209059GF108991051051012501051999MD1210251+9999REMSYN070AAXX  13151 22721 42684 82701 11004 21049 40104 52025 8555/ 333 85634;
0174227210999992000011318004+62900+034400FM-12+008099999V0209999C000010090019N0500001N1-00121-00481101141ADDAA112000391GA1071+009009059GF107991071051008001999999KA1120M+00161MD1210101+9999REMSYN082AAXX  13181 22721 12584 70000 11012 21048 40114 52010 69932 875// 333 10016 87630;
0142227210999992000011321004+62900+034400FM-12+008099999V0209999C000010087019N0500001N1-00101-00321101091ADDGA1071+008709059GF107991071051008001999999MD1710051+9999REMSYN074    AAXX  13211 22721 42584 70000 11010 21032 40109 57005 875// 333 87629;
0163227210999992000011400004+62900+034400FM-12+008099999V0209999C000010045019N0500001N1-00141-00401101021ADDGA1051+004509099GF108991081091004501999999MA1999999100001MD1710071+9999REMSYN080    AAXX  14001 22721 42484 80000 11014 21040 30000 40102 57007 889// 333 85915;
0148227210999992000011403004+62900+034400FM-12+008099999V0202701N00101004201CN0500001N1-00171-00391101001ADDGA1041+004809099GF108991081091004501999999MD1710031+9999REMSYN080    AAXX  14031 22721 42484 82701 11017 21039 40100 57003 889// 333 55/// 84916;
0235227210999992000011406004+62900+034400FM-12+008099999V0203201N001010048019N0500001N1-00181-00361101181ADDAA112000791AJ100439199999999AY181061AY221061GA1061+004809099GF107991061091004501001001IA1239KA1120N-00201MD1310181+9999MW1261REMSYN098    AAXX  14061 22721 11484 73201 11018 21036 40118 53018 69902 72682 86900 333 21020 47043 86916;
0142227210999992000011409004+62900+034400FM-12+008099999V0203501N001010048019N0500001N1-00281-00581101491ADDGA1051+004809099GF108991081091004501999999MD1210311+9999REMSYN074    AAXX  14091 22721 42499 83501 11028 21058 40149 52031 889// 333 85916;
0163227210999992000011412004+62900+034400FM-12+008099999V0203001N003010036019N0500001N1-00341-00591101711ADDGA1051+003609069GF108991051071004501071999MA1999999100671MD1210211+9999REMSYN080    AAXX  14121 22721 42499 83003 11034 21059 30067 40171 52021 8577/ 333 85712;
0142227210999992000011415004+62900+034400FM-12+008099999V0202701N003010048019N0500001N1-00401-00701101861ADDGA1051+004809099GF108991051091004501071999MD1210151+9999REMSYN074    AAXX  14151 22721 42484 82703 11040 21070 40186 52015 8597/ 333 85916;
0172227210999992000011418004+62900+034400FM-12+008099999V0202701N003010033019N0500001N1-00571-00751101961ADDAA199000021GA1051+003309069GF108991081091004501999999KA1120M-00171MD1210091+9999REMSYN080    AAXX  14181 22721 32484 82703 11057 21075 40196 52009 889// 333 11017 85711;
0116227210999992000011421004+62900+034400FM-12+008099999V0202601N001012200019N0500001N1-00641-00801101961ADDGF104991041001999999031001MD1410001+9999REMSYN064    AAXX  14211 22721 42984 42601 11064 21080 40196 54000 84030;
0163227210999992000011500004+62900+034400FM-12+008099999V0202701N002010027019N0500001N1-00611-00761101901ADDGA1061+002709069GF108991081091002501999999MA1999999100851MD1710061+9999REMSYN080    AAXX  15001 22721 42384 82702 11061 21076 30085 40190 57006 889// 333 86709;
0220227210999992000011506004+62900+034400FM-12+008099999V0202501N001010039019N0500001N1-00531-00781101601ADDAA199000091AJ100429199999999GA1061+003909069GF108991081091004501999999IA1239KA1120N-00701MD1710191+9999REMSYN086    AAXX  15061 22721 32484 82501 11053 21078 40160 57019 889// 333 21070 47042 86713;EQDQ01  00002PRCP99
0142227210999992000011509004+62900+034400FM-12+008099999V0202301N002010036019N0500001N1-00591-00811101501ADDGA1051+003609069GF108991061091004501051999MD1710101+9999REMSYN074    AAXX  15091 22721 42499 82302 11059 21081 40150 57010 8695/ 333 85712;
0191227210999992000011512004+62900+034400FM-12+008099999V0202301N001010036019N0250001N1-00571-00791101381ADDAY181061AY221061GA1051+003609069GF108991061091004501071999MA1999999100331MD1710121+9999MW1851REMSYN086    AAXX  15121 22721 41475 82301 11057 21079 30033 40138 57012 78582 8697/ 333 85712;
0170227210999992000011515004+62900+034400FM-12+008099999V0209999C000010039019N0300001N1-00511-00681101261ADDAY181031AY221031GA1061+003909069GF108991081091004501999999MD1710101+9999MW1851REMSYN080    AAXX  15151 22721 41480 80000 11051 21068 40126 57010 78582 889// 333 86713;
0206227210999992000011518004+62900+034400FM-12+008099999V0202701N001010033019N0400001N1-00371-00481101201ADDAA112000591AY181061AY221061GA1051+003309069GF108991081091004501999999KA1120M-00361MD1710061+9999MW1261REMSYN092    AAXX  15181 22721 11482 82701 11037 21048 40120 57006 69962 72682 889// 333 11036 85711;
0189227210999992000011521004+62900+034400FM-12+008099999V0202701N001010048019N0500001N1-00321-00491101171ADDAY181031AY221031GA1081+004809099GF108991081091004501999999MD1810031+9999REMSYN086    AAXX  15211 22721 41484 82701 11032 21049 40117 58003 78082 889// 333 88916 93400;EQDQ01+000802PRSWM1
0191227210999992000011600004+62900+034400FM-12+008099999V0202801N002010051019N0300001N1-00321-00491101161ADDAY181061AY221061GA1071+005109099GF107991071091004501001001MA1999999100131MD1710011+9999MW1851REMSYN086    AAXX  16001 22721 41480 72802 11032 21049 30013 40116 57001 78582 87900 333 87917;
0176227210999992000011603004+62900+034400FM-12+008099999V0202801N002010033019N0500001N1-00341-00551101161ADDAY181031AY221031GA1061+003309069GF108991081091004501999999MD1410001+9999MW1021REMSYN086    AAXX  16031 22721 41484 82802 11034 21055 40116 54000 70282 889// 333 55/// 86711;
0235227210999992000011606004+62900+034400FM-12+008099999V0202601N001010030019N0500001N1-00401-00591101071ADDAA112000791AJ100439199999999AY181061AY221061GA1051+003009069GF108991081091004501999999IA1239KA1120N-00411MD1710091+9999MW1021REMSYN098    AAXX  16061 22721 11484 82601 11040 21059 40107 57009 69902 70282 889// 333 21041 47043 85710;
0170227210999992000011609004+62900+034400FM-12+008099999V0202501N001010030019N0500001N1-00481-00581100811ADDAY181031AY221031GA1051+003009069GF108991081091004501999999MD1710261+9999MW1851REMSYN080    AAXX  16091 22721 41499 82501 11048 21058 40081 57026 78582 889// 333 85710;
0191227210999992000011612004+62900+034400FM-12+008099999V0201601N002010015019N0500001N1-00461-00521100321ADDAY181061AY221061GA1061+001509069GF108991081091001501999999MA1999999099291MD1710491+9999MW1851REMSYN086    AAXX  16121 22721 41299 81602 11046 21052 39929 40032 57049 78582 889// 333 86705;
0170227210999992000011615004+62900+034400FM-12+008099999V0201501N001010015019N0032001N1-00431-00491099611ADDAY181031AY221031GA1071+001509069GF108991081091001501999999MD1710701+9999MW1851REMSYN080    AAXX  16151 22721 41232 81501 11043 21049 49961 57070 78582 889// 333 87705;
0206227210999992000011618004+62900+034400FM-12+008099999V0201401N001010018019N0012001N1-00331-00371098771ADDAA112003091AY181061AY221061GA1071+001809069GF108991081091002501999999KA1120M-00331MD1710831+9999MW1851REMSYN092    AAXX  16181 22721 11312 81401 11033 21037 49877 57083 60032 78582 889// 333 11033 87706;
0170227210999992000011621004+62900+034400FM-12+008099999V0201201N001010015019N0025001N1-00251-00281098181ADDAY181031AY221031GA1071+001509069GF108991081091001501999999MD1710581+9999MW1851REMSYN080    AAXX  16211 22721 41225 81201 11025 21028 49818 57058 78582 889// 333 87705;
0191227210999992000011700004+62900+034400FM-12+008099999V0201201N001010024019N0032001N1-00211-00241097831ADDAY181061AY221061GA1071+002409069GF108991081091002501999999MA1999999096831MD1710351+9999MW1851REMSYN086    AAXX  17001 22721 41332 81201 11021 21024 39683 49783 57035 78582 889// 333 87708;
0176227210999992000011703004+62900+034400FM-12+008099999V0209999C000010018019N0060001N1-00191-00211097611ADDAY181031AY221031GA1071+001809069GF108991081091001501999999MD1710211+9999MW1101REMSYN086    AAXX  17031 22721 41256 80000 11019 21021 49761 57021 71082 889// 333 55/// 87706;
0235227210999992000011706004+62900+034400FM-12+008099999V0209999C000010033019N0160001N1-00141-00161097421ADDAA112003091AJ100509199999999AY181061AY221061GA1061+003309069GF108991081091004501999999IA1239KA1120N-00351MD1710181+9999MW1021REMSYN098    AAXX  17061 22721 11466 80000 11014 21016 49742 57018 60032 70282 889// 333 21035 47050 86711;
0170227210999992000011709004+62900+034400FM-12+008099999V0209999C000010066019N0070001N1-00071-00071097401ADDAY181031AY221031GA1061+006609099GF108991061091008001051999MD1610021+9999MW1851REMSYN080    AAXX  17091 22721 41557 80000 11007 21007 49740 56002 78582 8695/ 333 86922;
0191227210999992000011712004+62900+034400FM-12+008099999V0209999C000010036019N0042001N1-00071-00071097381ADDAY181061AY221061GA1061+003609069GF108991081091004501999999MA1999999096401MD1710021+9999MW1851REMSYN086    AAXX  17121 22721 41442 80000 11007 21007 39640 49738 57002 78582 889// 333 86712;
0176227210999992000011715004+62900+034400FM-12+008099999V0209999C000010009019N0011001N1-00061-00061097481ADDAY181031AY221031GA1071+000909079GF108991081091001501999999MD1210101+9999MW1851REMSYN086    AAXX  17151 22721 41211 80000 11006 21006 49748 52010 78582 889// 333 87703 93707;
0212227210999992000011718004+62900+034400FM-12+008099999V0203301N001010036019N0030001N1-00121-00141097601ADDAA112002091AY181061AY241061GA1051+003609079GF108991081091004501999999KA1120M+00001MD1210121+9999MW1851REMSYN098    AAXX  17181 22721 11430 83301 11012 21014 49760 52012 60022 78584 889// 333 10000 85712 93708;
0176227210999992000011721004+62900+034400FM-12+008099999V0202601N001010030019N0023001N1-00331-00401097771ADDAY181031AY221031GA1061+003009079GF108991081091004501999999MD1210151+9999MW1851REMSYN086    AAXX  17211 22721 41423 82601 11033 21040 49777 52015 78582 889// 333 86710 93706;
0197227210999992000011800004+62900+034400FM-12+008099999V0203001N001010057019N0032001N1-00431-00521097921ADDAY181061AY221061GA1081+005709099GF108991081091004501999999MA1999999097921MD1210151+9999MW1851REMSYN092    AAXX  18001 22721 41432 83001 11043 21052 39792 49792 52015 78582 889// 333 88919 93705;
0182227210999992000011803004+62900+034400FM-12+008099999V0209999C000010042019N0030001N1-00391-00471098141ADDAY181031AY221031GA1081+004209099GF108991081091004501999999MD1210221+9999MW1851REMSYN092    AAXX  18031 22721 41430 80000 11039 21047 49814 52022 78582 889// 333 55/// 88914 93704;
0241227210999992000011806004+62900+034400FM-12+008099999V0209999C000010048019N0041001N1-00471-00601098431ADDAA112004191AJ100569199999999AY181061AY221061GA1081+004809099GF108991081091004501999999IA1239KA1120N-00481MD1210281+9999MW1851REMSYN104    AAXX  18061 22721 11441 80000 11047 21060 49843 52028 60042 78582 889// 333 21048 47056 88916 93704;
0191227210999992000011812004+62900+034400FM-12+008099999V0202901N001010048019N0034001N1-00681-00881099001ADDAY181061AY221061GA1061+004809099GF108991061091004501051999MA1999999097981MD1210221+9999MW1851REMSYN086    AAXX  18121 22721 41434 82901 11068 21088 39798 49900 52022 78582 8695/ 333 86916;
0170227210999992000011815004+62900+034400FM-12+008099999V0202901N001010048019N0050001N1-00731-00981099241ADDAY181031AY221031GA1061+004809099GF108991061091004501051999MD1210231+9999MW1851REMSYN080    AAXX  18151 22721 41450 82901 11073 21098 49924 52023 78582 8695/ 333 86916;
0206227210999992000011818004+62900+034400FM-12+008099999V0203501N001010048019N0120001N1-00821-01091099461ADDAA112000591AY181061AY221061GA1081+004809099GF108991081091004501999999KA1120M-00461MD1210221+9999MW1851REMSYN092    AAXX  18181 22721 11462 83501 11082 21109 49946 52022 69962 78582 889// 333 11046 88916;
0170227210999992000011821004+62900+034400FM-12+008099999V0203301N001010048019N0140001N1-00841-01121099551ADDAY181031AY221031GA1071+004809099GF107991071091004501001001MD1210091+9999MW1851REMSYN080    AAXX  18211 22721 41464 73301 11084 21112 49955 52009 78582 87900 333 87916;
0191227210999992000011900004+62900+034400FM-12+008099999V0203301N002010048019N0120001N1-00921-01221099611ADDAY181061AY221061GA1071+004809099GF107991071091004501001001MA1999999098571MD1210051+9999MW1851REMSYN086    AAXX  19001 22721 41462 73302 11092 21122 39857 49961 52005 78582 87900 333 87916;
0176227210999992000011903004+62900+034400FM-12+008099999V0203301N001010045019N0100001N1-00901-01151099631ADDAY181031AY221031GA1081+004509099GF108991081091004501999999MD1210031+9999MW1851REMSYN086    AAXX  19031 22721 41460 83301 11090 21115 49963 52003 78582 889// 333 55/// 88915;
0235227210999992000011906004+62900+034400FM-12+008099999V0203101N001010036019N0080001N1-00901-01101099691ADDAA112001091AJ100569199999999AY181061AY221061GA1061+003609069GF108991081091004501999999IA1239KA1120N-00951MD1210061+9999MW1851REMSYN098    AAXX  19061 22721 11458 83101 11090 21110 49969 52006 60012 78582 889// 333 21095 47056 86712;
0144227210999992000011909004+62900+034400FM-12+008099999V0203101N001010300019N0060001N1-00881-01071099711ADDAY181031AY221031GF108991041091004501071999MD1210021+9999MW1851REMSYN070    AAXX  19091 22721 41456 83101 11088 21107 49971 52002 78582 8497/;
0165227210999992000011912004+62900+034400FM-12+008099999V0203501N001019999999N0031001N1-00861-01101099751ADDAY181061AY271061GF108991081001999999021999MA1999999098721MD1210041+9999MW1711REMSYN076    AAXX  19121 22721 41931 83501 11086 21110 39872 49975 52004 77187 8802/;
0140227210999992000011915004+62900+034400FM-12+008099999V0203101N001019999999N0035001N1-01021-01221099851ADDAY171031AY221031GF108991081001999999021999MD1210081+9999MW1711REMSYN066AAXX  19151 22721 41935 83101 11102 21122 49985 52008 77172 8802/;
0180227210999992000011918004+62900+034400FM-12+008099999V0202601N001019999999N0041001N1-01181-01381099861ADDAA112001091AY171061AY221061GF108991081001999999011999KA1999M-00861MD1410001+9999MW1711REMSYN082AAXX  19181 22721 11941 82601 11118 21138 49986 54000 60012 77172 8801/ 333 11086;
0140227210999992000011921004+62900+034400FM-12+008099999V0202901N002019999999N0050001N1-01221-01421099821ADDAY171031AY221031GF108991081001999999011999MD1810041+9999MW1711REMSYN066AAXX  19211 22721 41950 82902 11122 21142 49982 58004 77172 8801/;
0161227210999992000012000004+62900+034400FM-12+008099999V0202801N002019999999N0050001N1-01361-01561099721ADDAY171061AY221061GF108991081001999999011999MA1999999098661MD1710101+9999MW1711REMSYN072AAXX  20001 22721 41950 82802 11136 21156 39866 49972 57010 77172 8801/;
0150227210999992000012003004+62900+034400FM-12+008099999V0202601N001019999999N0070001N1-01381-01581099641ADDAY171031AY221031GF108991081001999999011999MD1710081+9999MW1711REMSYN076AAXX  20031 22721 41957 82601 11138 21158 49964 57008 77172 8801/ 333 55///;
0209227210999992000012006004+62900+034400FM-12+008099999V0200301N002019999999N0250001N1-01401-01601099471ADDAA112000891AJ100559199999999AY171061AY221061GF108991081001999999071999IA1239KA1120N-01401MD1710171+9999MW1711REMSYN088AAXX  20061 22721 11975 80302 11140 21160 49947 57017 69982 77172 8807/ 333 21140 47055;
0140227210999992000012009004+62900+034400FM-12+008099999V0203001N002019999999N0140001N1-01621-01811099381ADDAY171031AY221031GF107991071001999999071001MD1710101+9999MW1711REMSYN066AAXX  20091 22721 41964 73002 11162 21181 49938 57010 77172 87070;
0161227210999992000012012004+62900+034400FM-12+008099999V0203001N002019999999N0300001N1-01601-01791099251ADDAY171061AY221061GF106991001001999999001011MA1999999098191MD1710121+9999MW1021REMSYN072AAXX  20121 22721 41980 63002 11160 21179 39819 49925 57012 70272 80001;
0112227210999992000012015004+62900+034400FM-12+008099999V0202601N002019999999N0180001N1-01921-02111099191ADDGF106991001001999999001011MD1710081+9999REMSYN060AAXX  20151 22721 42968 62602 11192 21211 49919 57008 80001;
0152227210999992000012018004+62900+034400FM-12+008099999V0202401N002019999999N0300001N1-02001-02191099081ADDAA112000791GF108991001001999999001071KA1999M-01401MD1710111+9999REMSYN076AAXX  20181 22721 12980 82402 11200 21219 49908 57011 69902 80007 333 11140;
0112227210999992000012021004+62900+034400FM-12+008099999V0202701N002012200019N0500001N1-02141-02391099041ADDGF102991001001999999001011MD1710051+9999REMSYN060AAXX  20211 22721 42984 22702 11214 21239 49904 57005 80001;
0133227210999992000012100004+62900+034400FM-12+008099999V0202701N003019999999N0500001N1-02101-02281098961ADDGF108991001001999999001011MA1999999097881MD1710071+9999REMSYN066AAXX  21001 22721 42984 82703 11210 21228 39788 49896 57007 80001;
0150227210999992000012103004+62900+034400FM-12+008099999V0203001N003019999999N0260001N1-01761-01951098801ADDAY171031AY221031GF108991081001999999021999MD1710141+9999MW1701REMSYN076AAXX  21031 22721 41976 83003 11176 21195 49880 57014 77072 8802/ 333 55///;
0237227210999992000012106004+62900+034400FM-12+008099999V0203001N003010036019N0070001N1-01461-01731098681ADDAA112000391AJ100569199999999AY171061AY231061GA1061+003609079GF108991061071004501021999IA1239KA1120N-02141MD1710111+9999MW1711REMSYN100AAXX  21061 22721 11457 83003 11146 21173 49868 57011 69932 77173 8672/ 333 21214 47056 86712 91111;
0189227210999992000012109004+62900+034400FM-12+008099999V0202901N003010036019N0028001N1-01201-01471098681ADDAY171031AY231031GA1061+003609079GF108991061071004501021999MD1310011+9999MW1711OA140101101REMSYN088AAXX  21091 22721 41428 82903 11120 21147 49868 53001 77173 8672/ 333 86712 91011 91111;
0229227210999992000012112004+62900+034400FM-12+008099999V0203001N003010036019N0026001N1-00911-01211098641ADDAY171061AY231061GA1061+003609079GF108991999071004501021999MA1999999097621MD1710021+9999MW1711OA140101101REMSYN094AAXX  21121 22721 41426 83003 11091 21121 39762 49864 57002 77173 8872/ 333 86712 91011 91112;EQDQ01+000082SCOTLC
0191227210999992000012115004+62900+034400FM-12+008099999V0202901N003010030019N0029001N1-00821-01091098671ADDAY171031AY231031GA1061+003009079GF108991999071004501021999MD1210031+9999MW1711REMSYN082AAXX  21151 22721 41429 82903 11082 21109 49867 52003 77173 8872/ 333 86710 91112;EQDQ01+000082SCOTLC
0208227210999992000012118004+62900+034400FM-12+008099999V0203201N003010018019N0022001N1-00741-00911098671ADDAA112001091AY171061AY231061GA1061+001809079GF108991061071001501021999KA1120M-00741MD1410001+9999MW1711REMSYN094AAXX  21181 22721 11222 83203 11074 21091 49867 54000 60012 77173 8672/ 333 11074 86706 91112;
0172227210999992000012121004+62900+034400FM-12+008099999V0203001N003010015019N0025001N1-00761-00941098681ADDAY171031AY231031GA1061+001509079GF108991061071001501021999MD1210011+9999MW1711REMSYN082AAXX  21211 22721 41225 83003 11076 21094 49868 52001 77173 8672/ 333 86705 91111;
0193227210999992000012200004+62900+034400FM-12+008099999V0203101N003010015019N0032001N1-00771-00991098791ADDAY171061AY231061GA1061+001509079GF108991061071001501021999MA1999999097761MD1310101+9999MW1711REMSYN088AAXX  22001 22721 41232 83103 11077 21099 39776 49879 53010 77173 8672/ 333 86705 91111;
0172227210999992000012203004+62900+034400FM-12+008099999V0202901N003010030019N0060001N1-00791-01011098951ADDAY171031AY231031GA1051+003009069GF108991051071004501021999MD1210161+9999MW1711REMSYN082AAXX  22031 22721 41456 82903 11079 21101 49895 52016 77173 8572/ 333 55/// 85710;
0231227210999992000012206004+62900+034400FM-12+008099999V0203001N002010030019N0037001N1-00821-01051099111ADDAA112003091AJ100619199999999AY171061AY231061GA1061+003009069GF108991061071004501021999IA1239KA1120N-00851MD1210161+9999MW1711REMSYN094AAXX  22061 22721 11437 83002 11082 21105 49911 52016 60032 77173 8672/ 333 21085 47061 86710;
0166227210999992000012209004+62900+034400FM-12+008099999V0203101N001010018019N0020001N1-00731-00861099241ADDAY181031AY271031GA1061+001809069GF108991081091002501999999MD1210131+9999MW1851REMSYN076AAXX  22091 22721 41320 83101 11073 21086 49924 52013 78587 889// 333 86706;
0161227210999992000012212004+62900+034400FM-12+008099999V0202801N003010300019N0028001N1-00841-01121099441ADDAY181061AY271061GF107991041091004501011001MA1999999098411MD1210201+9999MW1851REMSYN072AAXX  22121 22721 41428 72803 11084 21112 39841 49944 52020 78587 84910;
0140227210999992000012215004+62900+034400FM-12+008099999V0202801N003012200019N0120001N1-01021-01221099561ADDAY181031AY231031GF102991021091008001001001MD1210111+9999MW1361REMSYN066AAXX  22151 22721 41562 22803 11102 21122 49956 52011 73683 82900;
0186227210999992000012218004+62900+034400FM-12+008099999V0202801N003012200019N0500001N1-01231-01501099741ADDAA112002091AY181061AY231061GF103991001001999999001021KA1120M-00711MD1210171+9999MW1361REMSYN088AAXX  22181 22721 11984 32803 11123 21150 49974 52017 60022 73683 80002 333 11071 91111;
0150227210999992000012221004+62900+034400FM-12+008099999V0202801N003012200019N0500001N1-01511-01701099951ADDAY131031AY211031GA1001+999999999GF100991001001999999001001MD1210201+9999MW1021REMSYN060AAXX  22211 22721 41984 02803 11151 21170 49995 52020 70231;
0171227210999992000012300004+62900+034400FM-12+008099999V0202801N003012200019N0500001N1-01511-01701100101ADDAY131061AY211061GA1001+999999999GF100991001001999999001001MA1999999099061MD1210171+9999MW1021REMSYN066AAXX  23001 22721 41984 02803 11151 21170 39906 40010 52017 70231;
0132227210999992000012303004+62900+034400FM-12+008099999V0203101N003012200019N0500001N1-01801-01991100241ADDGA1001+999999999GF100991001001999999001001MD1210101+9999REMSYN064AAXX  23031 22721 42984 03103 11180 21199 40024 52010 333 55///;
0194227210999992000012306004+62900+034400FM-12+008099999V0202701N002012200019N0500001N1-02021-02211100401ADDAA199000091AJ100629199999999GF102991001001999999001011IA1239KA1120N-02021MD1210151+9999REMSYN076AAXX  23061 22721 32999 22702 11202 21221 40040 52015 80001 333 21202 47062;EQDQ01  00002PRCP99
0112227210999992000012309004+62900+034400FM-12+008099999V0202801N001012200019N0500001N1-02121-02371100641ADDGF103991001001999999001011MD1210231+9999REMSYN060AAXX  23091 22721 42999 32801 11212 21237 40064 52023 80001;
0143227210999992000012312004+62900+034400FM-12+008099999V0202801N001012200019N0500001N1-01921-02181100711ADDGA1001+999999999GF100991001001999999001001MA1999999099621MD1210081+9999REMSYN060AAXX  23121 22721 42999 02801 11192 21218 39962 40071 52008;
0122227210999992000012315004+62900+034400FM-12+008099999V0202701N002012200019N0500001N1-02271-02521100831ADDGA1001+999999999GF100991001001999999001001MD1210111+9999REMSYN054AAXX  23151 22721 42984 02702 11227 21252 40083 52011;
0202227210999992000012318004+62900+034400FM-12+008099999V0202701N002010018019N0200001N1-01961-02221100861ADDAA112000791AY171061AY211061GA1061+001809069GF108991061071002501021999KA1120M-01811MD1210031+9999MW1701REMSYN088AAXX  23181 22721 11370 82702 11196 21222 40086 52003 69902 77071 8672/ 333 11181 86706;
0140227210999992000012321004+62900+034400FM-12+008099999V0202901N002019999999N0170001N1-01781-01971100961ADDAY171031AY221031GF107991071001999999011001MD1210111+9999MW1221REMSYN066AAXX  23211 22721 41967 72902 11178 21197 40096 52011 72272 87010;
0187227210999992000012400004+62900+034400FM-12+008099999V0209999C000010018019N0060001N1-01661-01851101021ADDAY171061AY221061GA1061+001809069GF108991061071001501021999MA1999999099941MD1210071+9999MW1711REMSYN082AAXX  24001 22721 41256 80000 11166 21185 39994 40102 52007 77172 8672/ 333 86706;
0150227210999992000012403004+62900+034400FM-12+008099999V0200101N002019999999N0200001N1-01421-01621101021ADDAY171031AY221031GF107991071001999999071001MD1210011+9999MW1021REMSYN076AAXX  24031 22721 41970 70102 11142 21162 40102 52001 70272 87070 333 55///;
0209227210999992000012406004+62900+034400FM-12+008099999V0202901N002019999999N0180001N1-01681-01941101201ADDAA112000891AJ100629199999999AY171061AY221061GF108991061001999999011011IA1239KA1120N-01961MD1210171+9999MW1221REMSYN088AAXX  24061 22721 11968 82902 11168 21194 40120 52017 69972 72272 86011 333 21196 47062;
0140227210999992000012409004+62900+034400FM-12+008099999V0200101N001019999999N0160001N1-01641-01901101351ADDAY171031AY221031GF108991081001999999071999MD1210141+9999MW1701REMSYN066AAXX  24091 22721 41966 80101 11164 21190 40135 52014 77072 8807/;
0161227210999992000012412004+62900+034400FM-12+008099999V0203501N001019999999N0300001N1-01691-01951101511ADDAY171061AY221061GF108991081001999999071999MA1999999100421MD1210161+9999MW1021REMSYN072AAXX  24121 22721 41980 83501 11169 21195 30042 40151 52016 70272 8807/;
0112227210999992000012415004+62900+034400FM-12+008099999V0202901N002012200019N0500001N1-01971-02161101691ADDGF102991001001999999001011MD1210161+9999REMSYN060AAXX  24151 22721 42984 22902 11197 21216 40169 52016 80001;
0162227210999992000012418004+62900+034400FM-12+008099999V0202701N001012200019N0500001N1-02081-02331101881ADDAA112000191GA1001+999999999GF100991001001999999001001KA1999M-01641MD1210191+9999REMSYN070AAXX  24181 22721 12984 02701 11208 21233 40188 52019 69922 333 11164;
0138227210999992000012421004+62900+034400FM-12+008099999V0202601N002010045019N0260001N1-02411-02661101991ADDGA1051+004509069GF108991061091004501051999MD1210091+9999REMSYN070AAXX  24211 22721 42476 82602 11241 21266 40199 52009 8695/ 333 85715;
0159227210999992000012500004+62900+034400FM-12+008099999V0202801N001010027019N0210001N1-02191-02441101981ADDGA1061+002709069GF108991081091002501999999MA1999999100861MD1410001+9999REMSYN076AAXX  25001 22721 42371 82801 11219 21244 30086 40198 54000 889// 333 86709;
0144227210999992000012503004+62900+034400FM-12+008099999V0202001N001010018019N0240001N1-02121-02371101881ADDGA1051+001809069GF108991061091002501051999MD1810101+9999REMSYN076AAXX  25031 22721 42374 82001 11212 21237 40188 58010 8695/ 333 55/// 85706;
0216227210999992000012506004+62900+034400FM-12+008099999V0201101N001010018019N0080001N1-02271-02451101811ADDAA199000091AJ100629199999999GA1051+001809069GF108991081091002501999999IA1239KA1120N-02411MD1710061+9999REMSYN082AAXX  25061 22721 32358 81101 11227 21245 40181 57006 889// 333 21241 47062 85706;EQDQ01  00002PRCP99
0138227210999992000012509004+62900+034400FM-12+008099999V0201201N001010036019N0100001N1-02451-02701101791ADDGA1051+003609069GF108991051071004501071999MD1710031+9999REMSYN070AAXX  25091 22721 42460 81201 11245 21270 40179 57003 8577/ 333 85712;
0133227210999992000012512004+62900+034400FM-12+008099999V0201201N001019999999N0230001N1-02481-02731101621ADDGF106991021001999999011011MA1999999100501MD1710171+9999REMSYN066AAXX  25121 22721 42973 61201 11248 21273 30050 40162 57017 82011;
0112227210999992000012515004+62900+034400FM-12+008099999V0201201N001012200019N0250001N1-02671-02911101621ADDGF103991021091008001001011MD1710011+9999REMSYN060AAXX  25151 22721 42575 31201 11267 21291 40162 57001 82901;
0175227210999992000012518004+62900+034400FM-12+008099999V0201101N001012200019N0120001N1-02811-03041101631ADDAA199000091GA1001+999999999GF100991001001999999001001KA1999M-02261MD1410001+9999REMSYN064AAXX  25181 22721 32962 01101 11281 21304 40163 54000 333 11226;EQDQ01  00002PRCP99
0138227210999992000012521004+62900+034400FM-12+008099999V0201501N001010048019N0160001N1-02751-02991101621ADDGA1051+004809099GF107991051091004501031001MD1710011+9999REMSYN070AAXX  25211 22721 42466 71501 11275 21299 40162 57001 85930 333 85916;
0159227210999992000012600004+62900+034400FM-12+008099999V0201301N001010018019N0110001N1-02671-02911101501ADDGA1061+001809069GF108991061091002501051999MA1999999100371MD1710111+9999REMSYN076AAXX  26001 22721 42361 81301 11267 21291 30037 40150 57011 8695/ 333 86706;
0150227210999992000012603004+62900+034400FM-12+008099999V0209999C000019999999N0070001N1-02791-03031101361ADDAY121031AY221031GF108991081001999999071011MD1710151+9999MW1101REMSYN076AAXX  26031 22721 41957 80000 11279 21303 40136 57015 71022 88071 333 55///;
0216227210999992000012606004+62900+034400FM-12+008099999V0201501N001010021019N0060001N1-02721-02961101131ADDAA199000091AJ100609199999999GA1061+002109069GF108991061071002501021999IA1239KA1120N-02921MD1710231+9999REMSYN082AAXX  26061 22721 31356 81501 11272 21296 40113 57023 8672/ 333 21292 47060 86707;EQDQ01  00002PRCP99
0138227210999992000012609004+62900+034400FM-12+008099999V0200701N001010024019N0200001N1-02501-02741100851ADDGA1061+002409069GF108991061071002501021999MD1710251+9999REMSYN070AAXX  26091 22721 42370 80701 11250 21274 40085 57025 8672/ 333 86708;
0187227210999992000012612004+62900+034400FM-12+008099999V0201201N001010039019N0140001N1-02141-02391100311ADDAY171061AY221061GA1051+003909069GF108991051071004501071999MA1999999099211MD1710531+9999MW1701REMSYN082AAXX  26121 22721 41464 81201 11214 21239 39921 40031 57053 77072 8577/ 333 85713;
0185227210999992000012615004+62900+034400FM-12+008099999V0200801N001010036019N0050001N1-01841-02031099851ADDAY171031AY221031GA1061+003609069GF108991999071004501021999MD1710441+9999MW1711REMSYN076AAXX  26151 22721 41450 80801 11184 21203 49985 57044 77172 8872/ 333 86712;EQDQ01+000082SCOTLC
0221227210999992000012618004+62900+034400FM-12+008099999V0200901N002010012019N0014001N1-01721-01911099451ADDAA112004191AY171061AY221061GA1071+001209069GF108991999071001501021999KA1120M-01721MD1710401+9999MW1731REMSYN088AAXX  26181 22721 11214 80902 11172 21191 49945 57040 60042 77372 8872/ 333 11172 87704;EQDQ01+000082SCOTLC
0185227210999992000012621004+62900+034400FM-12+008099999V0201201N001010036019N0031001N1-01661-01851099141ADDAY171031AY221031GA1061+003609069GF108991999071004501021999MD1710291+9999MW1711REMSYN076AAXX  26211 22721 41431 81201 11166 21185 49914 57029 77172 8872/ 333 86712;EQDQ01+000082SCOTLC
0206227210999992000012700004+62900+034400FM-12+008099999V0201201N001010018019N0050001N1-01581-01711098871ADDAY171061AY221061GA1051+001809069GF108991999071001501021999MA1999999097811MD1710271+9999MW1711REMSYN082AAXX  27001 22721 41250 81201 11158 21171 39781 49887 57027 77172 8872/ 333 85706;EQDQ01+000082SCOTLC
0191227210999992000012703004+62900+034400FM-12+008099999V0200901N001010012019N0030001N1-01501-01631098711ADDAY171031AY221031GA1061+001209069GF108991999071001501021999MD1710151+9999MW1711REMSYN082AAXX  27031 22721 41230 80901 11150 21163 49871 57015 77172 8872/ 333 55/// 86704;EQDQ01+000082SCOTLC
0250227210999992000012706004+62900+034400FM-12+008099999V0209999C000010030019N0030001N1-01401-01531098701ADDAA112001091AJ100639199999999AY171061AY221061GA1061+003009069GF108991999071004501021999IA1239KA1120N-01721MD1710011+9999MW1701REMSYN094AAXX  27061 22721 11430 80000 11140 21153 49870 57001 60012 77072 8872/ 333 21172 47063 86710;EQDQ01+000082SCOTLC
0122227210999992000012709004+62900+034400FM-12+008099999V0209999C000012200019N0080001N1-01641-01831098751ADDGA1001+999999999GF100991001001999999001001MD1210041+9999REMSYN054AAXX  27091 22721 41958 00000 11164 21183 49875 52004;
0171227210999992000012712004+62900+034400FM-12+008099999V0202801N003012200019N0500001N1-00801-00941098731ADDAY171061AY211061GA1001+999999999GF100991001001999999001001MA1999999097711MD1210021+9999MW1021REMSYN066AAXX  27121 22721 41999 02803 11080 21094 39771 49873 52002 70271;
0112227210999992000012715004+62900+034400FM-12+008099999V0202801N002019999999N0500001N1-00921-01031098841ADDGF107991071001999999031001MD1210101+9999REMSYN060AAXX  27151 22721 42984 72802 11092 21103 49884 52010 87030;
0152227210999992000012718004+62900+034400FM-12+008099999V0202801N002019999999N0500001N1-00901-01061098881ADDAA112000791GF107991071001999999031001KA1999M-00801MD1210041+9999REMSYN076AAXX  27181 22721 12984 72802 11090 21106 49888 52004 69902 87030 333 11080;
0112227210999992000012721004+62900+034400FM-12+008099999V0202701N002012200019N0500001N1-00731-00861098981ADDGF103991031001999999031001MD1210101+9999REMSYN060AAXX  27211 22721 42984 32702 11073 21086 49898 52010 83030;
0143227210999992000012800004+62900+034400FM-12+008099999V0203101N001012200019N0500001N1-01151-01281099021ADDGA1001+999999999GF100991001001999999001001MA1999999097971MD1210021+9999REMSYN060AAXX  28001 22721 42984 03101 11115 21128 39797 49902 52002;
0122227210999992000012803004+62900+034400FM-12+008099999V0209999C000019999999N0500001N1-01091-01221099041ADDGF108991081001999999071999MD1210031+9999REMSYN070AAXX  28031 22721 42984 80000 11109 21122 49904 52003 8807/ 333 55///;
0216227210999992000012806004+62900+034400FM-12+008099999V0201801N001010030019N0300001N1-00921-01031099021ADDAA199000091AJ100639199999999GA1061+003009069GF108991081091004501999999IA1239KA1120N-01271MD1710011+9999REMSYN082AAXX  28061 22721 32480 81801 11092 21103 49902 57001 889// 333 21127 47063 86710;EQDQ01  00002PRCP99
0166227210999992000012809004+62900+034400FM-12+008099999V0202001N001010030019N0350001N1-00821-00921099021ADDAY181031AY221031GA1061+003009069GF108991081091004501999999MD1410001+9999MW1021REMSYN076AAXX  28091 22721 41481 82001 11082 21092 49902 54000 70282 889// 333 86710;
0187227210999992000012812004+62900+034400FM-12+008099999V0209999C000010030019N0250001N1-00711-00801098931ADDAY181061AY221061GA1061+003009069GF108991081091004501999999MA1999999097911MD1710081+9999MW1261REMSYN082AAXX  28121 22721 41475 80000 11071 21080 39791 49893 57008 72682 889// 333 86710;
0166227210999992000012815004+62900+034400FM-12+008099999V0200901N001010021019N0028001N1-00691-00741098871ADDAY181031AY221031GA1061+002109069GF108991081091002501999999MD1710061+9999MW1851REMSYN076AAXX  28151 22721 41328 80901 11069 21074 49887 57006 78582 889// 333 86707;
0202227210999992000012818004+62900+034400FM-12+008099999V0209999C000010036019N0032001N1-00651-00731098871ADDAA112002091AY181061AY221061GA1061+003609069GF108991081091004501999999KA1120M-00651MD1410001+9999MW1851REMSYN088AAXX  28181 22721 11432 80000 11065 21073 49887 54000 60022 78582 889// 333 11065 86712;
0166227210999992000012821004+62900+034400FM-12+008099999V0209999C000010018019N0025001N1-00691-00781098921ADDAY181031AY221031GA1061+001809069GF108991081091001501999999MD1210051+9999MW1851REMSYN076AAXX  28211 22721 41225 80000 11069 21078 49892 52005 78582 889// 333 86706;
0161227210999992000012900004+62900+034400FM-12+008099999V0202701N002012200019N0200001N1-00961-01081099121ADDAY181061AY211061GF102991021091008001001001MA1999999098081MD1210181+9999MW1021REMSYN072AAXX  29001 22721 41570 22702 11096 21108 39808 49912 52018 70281 82900;
0132227210999992000012903004+62900+034400FM-12+008099999V0203201N002012200019N0500001N1-01431-01561099351ADDGA1001+999999999GF100991001001999999001001MD1210211+9999REMSYN064AAXX  29031 22721 42984 03202 11143 21156 49935 52021 333 55///;
0191227210999992000012906004+62900+034400FM-12+008099999V0202701N001012200019N0500001N1-01811-02001099511ADDAA112002091AJ100669199999999GA1001+999999999GF100991001001999999001001IA1239KA1120N-01821MD1210141+9999REMSYN076AAXX  29061 22721 12999 02701 11181 21200 49951 52014 60022 333 21182 47066;
0112227210999992000012909004+62900+034400FM-12+008099999V0209999C000012200019N0280001N1-01841-01961099691ADDGF103991031051008001001001MD1210181+9999REMSYN060AAXX  29091 22721 42578 30000 11184 21196 49969 52018 83500;
0133227210999992000012912004+62900+034400FM-12+008099999V0201401N001019999999N0500001N1-01851-01971099721ADDGF108991001001999999001021MA1999999098641MD1210031+9999REMSYN066AAXX  29121 22721 42999 81401 11185 21197 39864 49972 52003 80002;
0112227210999992000012915004+62900+034400FM-12+008099999V0200701N002010300019N0300001N1-01821-02011099601ADDGF107991031051008001031001MD1710121+9999REMSYN060AAXX  29151 22721 42580 70702 11182 21201 49960 57012 83530;
0215227210999992000012918004+62900+034400FM-12+008099999V0201001N002010021019N0060001N1-01421-01551099341ADDAA199000091AY121061AY221061GA1061+002109069GF108991081091002501999999KA1120M-01411MD1710241+9999MW1101REMSYN082AAXX  29181 22721 31356 81002 11142 21155 49934 57024 71022 889// 333 11141 86707;EQDQ01  00002PRCP99
0166227210999992000012921004+62900+034400FM-12+008099999V0200901N003010018019N0080001N1-01041-01171098941ADDAY181031AY221031GA1061+001809069GF108991081091002501999999MD1710381+9999MW1851REMSYN076AAXX  29211 22721 41358 80903 11104 21117 49894 57038 78582 889// 333 86706;
0187227210999992000013000004+62900+034400FM-12+008099999V0201101N003010018019N0160001N1-00781-00881098561ADDAY181061AY231061GA1061+001809069GF108991081091001501999999MA1999999097541MD1710361+9999MW1361REMSYN082AAXX  30001 22721 41266 81103 11078 21088 39754 49856 57036 73683 889// 333 86706;
0178227210999992000013003004+62900+034400FM-12+008099999V0201101N004010018019N0070001N1-00391-00411098131ADDAY181031AY231031GA1061+001809079GF108991081091001501999999MD1710411+9999MW1851REMSYN088AAXX  30031 22721 41257 81104 11039 21041 49813 57041 78583 889// 333 55/// 86706 91112;
0254227210999992000013006004+62900+034400FM-12+008099999V0201401N003010018019N0033001N1-00141-00161097871ADDAA112001091AJ100689199999999AY181061AY231061GA1061+001809079GF108991081091001501999999IA1239KA1120N-01421MD1710251+9999MW1851OA140101101REMSYN106AAXX  30061 22721 11233 81403 11014 21016 49787 57025 60012 78583 889// 333 21142 47068 86706 91011 91112;
0172227210999992000013009004+62900+034400FM-12+008099999V0201201N003010018019N0014001N1-00091-00131097821ADDAY181031AY231031GA1061+001809079GF108991081091001501999999MD1710051+9999MW1851REMSYN082AAXX  30091 22721 41214 81203 11009 21013 49782 57005 78583 889// 333 86706 91112;
0193227210999992000013012004+62900+034400FM-12+008099999V0201201N002010024019N0019001N1-00071-00111097721ADDAY181061AY231061GA1061+002409079GF108991081091002501999999MA1999999096741MD1710091+9999MW1851REMSYN088AAXX  30121 22721 41319 81202 11007 21011 39674 49772 57009 78583 889// 333 86708 91112;
0113227210999992000013015004+62900+034400FM-12+008099999V0201301N001019999999N0031001N1-00061+99999999999ADDGF108991999999002501999999REMSYN075AAXX  30151 22721 41331 81301 11006 2100 49772 54000 78583 889// 333 86709;
0202227210999992000013018004+62900+034400FM-12+008099999V0201301N002010030019N0050001N1-00041-00101097701ADDAA112004191AY181061AY231061GA1051+003009069GF108991081091004501999999KA1120M-00031MD1710021+9999MW1851REMSYN088AAXX  30181 22721 11450 81302 11004 21010 49770 57002 60042 78583 889// 333 11003 85710;
0166227210999992000013021004+62900+034400FM-12+008099999V0201401N002010033019N0047001N1-00041-00071097571ADDAY181031AY221031GA1061+003309069GF108991081091004501999999MD1810131+9999MW1851REMSYN076AAXX  30211 22721 41447 81402 11004 21007 49757 58013 78582 889// 333 86711;
0187227210999992000013100004+62900+034400FM-12+008099999V0201401N002010033019N0060001N1-00041-00071097371ADDAY181061AY221061GA1051+003309069GF108991081091004501999999MA1999999096391MD1710201+9999MW1851REMSYN082AAXX  31001 22721 41456 81402 11004 21007 39639 49737 57020 78582 889// 333 85711;
0178227210999992000013103004+62900+034400FM-12+008099999V0201201N001010030019N0042001N1+00001-00031097181ADDAY181031AY221031GA1061+003009079GF108991081091004501999999MD1710191+9999MW1851REMSYN088AAXX  31031 22721 41442 81201 10000 21003 49718 57019 78582 889// 333 55/// 86710 93701;
0254227210999992000013106004+62900+034400FM-12+008099999V0202801N004010015019N0011001N1-00211-00271097241ADDAA112003091AJ100699199999999AY181061AY231061GA1071+001509079GF108991081091001501999999IA1239KA1120N-00221MD1310051+9999MW1851OA140101101REMSYN106AAXX  31061 22721 11211 82804 11021 21027 49724 53005 60032 78583 889// 333 21022 47069 87705 91011 91111;
0172227210999992000013109004+62900+034400FM-12+008099999V0202401N003010039019N0070001N1-00471-00751097631ADDAY181031AY231031GA1051+003909079GF108991061091004501051999MD1210381+9999MW1851REMSYN082AAXX  31091 22721 41457 82403 11047 21075 49763 52038 78583 8695/ 333 85713 91112;
0193227210999992000013112004+62900+034400FM-12+008099999V0202601N00201004201CN0030001N1-00641-00871097951ADDAY181061AY231061GA1041+003009079GF108991061091004501051999MA1999999096941MD1210311+9999MW1851REMSYN088AAXX  31121 22721 41430 82602 11064 21087 39694 49795 52031 78583 8695/ 333 84710 91112;
0140227210999992000013115004+62900+034400FM-12+008099999V0202601N003019999999N0500001N1-00821-01341098301ADDAY181031AY231031GF106991051001999999031011MD1210341+9999MW1361REMSYN066AAXX  31151 22721 41999 62603 11082 21134 49830 52034 73683 85031;
0190227210999992000013118004+62900+034400FM-12+008099999V0202301N002012200019N0500001N1-01031-01311098561ADDAA112001091AY181061AY231061GA1001+999999999GF100991001001999999001001KA1999M-00181MD1210251+9999MW1021REMSYN076AAXX  31181 22721 11984 02302 11103 21131 49856 52025 60012 70283 333 11018;
0112227210999992000013121004+62900+034400FM-12+008099999V0202601N002019999999N0500001N1-01041-01321098621ADDGF108991081001999999051999MD1210061+9999REMSYN060AAXX  31211 22721 42984 82602 11104 21132 49862 52006 8805/;
0161227210999992000020100004+62900+034400FM-12+008099999V0202101N001019999999N0130001N1-00871-01201098431ADDAY171061AY211061GF108991081001999999021999MA1999999097411MD1710181+9999MW1711REMSYN072AAXX  01001 22721 41963 82101 11087 21120 39741 49843 57018 77171 8802/;
0150227210999992000020103004+62900+034400FM-12+008099999V0202301N001019999999N0250001N1-00731-01031098161ADDAY171031AY221031GF107991071001999999071001MD1710271+9999MW1701REMSYN076AAXX  01031 22721 41975 72301 11073 21103 49816 57027 77072 87070 333 55///;
0231227210999992000020106004+62900+034400FM-12+008099999V0202301N002010060019N0280001N1-00631-00941098071ADDAA112000591AJ100709199999999AY181061AY271061GA1061+006009099GF108991061091008001051999IA1239KA1120N-01091MD1710081+9999MW1261REMSYN094AAXX  01061 22721 11578 82302 11063 21094 49807 57008 69962 72687 8695/ 333 21109 47070 86920;
0166227210999992000020109004+62900+034400FM-12+008099999V0202401N002010033019N0050001N1-00461-00701097981ADDAY181031AY221031GA1061+003309069GF108991081091004501999999MD1710081+9999MW1851REMSYN076AAXX  01091 22721 41450 82402 11046 21070 49798 57008 78582 889// 333 86711;
0210227210999992000020112004+62900+034400FM-12+008099999V0202701N004010060019N0120001N1-00361-00611098081ADDAY181061AY231061GA1061+006009099GF106991061091008001001001MA1999999097081MD1310101+9999MW1361OA140101101REMSYN094AAXX  01121 22721 41562 62704 11036 21061 39708 49808 53010 73683 86900 333 86920 91011 91114;
0150227210999992000020115004+62900+034400FM-12+008099999V0202701N003010300019N0500001N1-00491-01021098491ADDAY131031AY221031GF106991021091008001031011MD1210401+9999MW1361REMSYN076AAXX  01151 22721 41599 62703 11049 21102 49849 52040 73632 82931 333 91112;
0196227210999992000020118004+62900+034400FM-12+008099999V0202401N003012200019N0500001N1-00431-00941098661ADDAA112000891AY131061AY211061GA1001+999999999GF100991001001999999001001KA1120M-00341MD1210171+9999MW1021REMSYN082AAXX  01181 22721 11984 02403 11043 21094 49866 52017 69972 70231 333 11034 91112;
0122227210999992000020121004+62900+034400FM-12+008099999V0202301N003012200019N0500001N1-00551-00971098811ADDGA1001+999999999GF100991001001999999001001MD1210141+9999REMSYN054AAXX  01211 22721 42984 02303 11055 21097 49881 52014;
0143227210999992000020200004+62900+034400FM-12+008099999V0202601N003012200019N0500001N1-00691-01061098891ADDGA1001+999999999GF100991001001999999001001MA1999999097871MD1210081+9999REMSYN060AAXX  02001 22721 42984 02603 11069 21106 39787 49889 52008;
0132227210999992000020203004+62900+034400FM-12+008099999V0202601N002012200019N0500001N1-00841-01121098921ADDGA1001+999999999GF100991001001999999001001MD1210021+9999REMSYN064AAXX  02031 22721 42984 02602 11084 21112 49892 52002 333 55///;
0216227210999992000020206004+62900+034400FM-12+008099999V0202601N003010042019N0500001N1-00741-01001098801ADDAA199000091AJ100709199999999GA1051+004209099GF105991051091004501001001IA1239KA1120N-00941MD1710121+9999REMSYN082AAXX  02061 22721 32499 52603 11074 21100 49880 57012 85900 333 21094 47070 85914;EQDQ01  00002PRCP99
0138227210999992000020209004+62900+034400FM-12+008099999V0202801N001010078019N0500001N1-00631-00991098721ADDGA1071+007809059GF107991071051008001001001MD1710071+9999REMSYN070AAXX  02091 22721 42599 72801 11063 21099 49872 57007 87500 333 87626;
0159227210999992000020212004+62900+034400FM-12+008099999V0209999C000010072019N0500001N1-00651-01011098571ADDGA1071+007209059GF107991071051008001001001MA1999999097551MD1710151+9999REMSYN076AAXX  02121 22721 42599 70000 11065 21101 39755 49857 57015 87500 333 87624;
0138227210999992000020215004+62900+034400FM-12+008099999V0209999C000010051019N0500001N1-00741-01041098461ADDGA1051+005109099GF108991081091004501999999MD1610111+9999REMSYN070AAXX  02151 22721 42499 80000 11074 21104 49846 56011 889// 333 85917;
0187227210999992000020218004+62900+034400FM-12+008099999V0209999C000010060019N0500001N1-00801-01071098421ADDAA199000091GA1061+006009099GF108991081091008001999999KA1120M-00631MD1710041+9999REMSYN076AAXX  02181 22721 32584 80000 11080 21107 49842 57004 889// 333 11063 86920;EQDQ01  00002PRCP99
0112227210999992000020221004+62900+034400FM-12+008099999V0209999C000012200019N0500001N1-00891-01181098381ADDGF104991041001999999031001MD1710041+9999REMSYN060AAXX  02211 22721 42984 40000 11089 21118 49838 57004 84030;
0187227210999992000020300004+62900+034400FM-12+008099999V0209999C000010051019N0120001N1-01061-01261098421ADDAY181061AY211061GA1061+005109099GF108991061091004501071999MA1999999097391MD1310031+9999MW1851REMSYN082AAXX  03001 22721 41462 80000 11106 21126 39739 49842 53003 78581 8697/ 333 86917;
0150227210999992000020303004+62900+034400FM-12+008099999V0202701N002012200019N0500001N1-01221-01351098461ADDAY181031AY211031GF102991021001999999031001MD1210031+9999MW1021REMSYN076AAXX  03031 22721 41984 22702 11122 21135 49846 52003 70281 82030 333 55///;
0209227210999992000020306004+62900+034400FM-12+008099999V0202901N002012200019N0500001N1-01291-01491098641ADDAA112000191AJ100669199999999AY181061AY211061GF102991021001999999031001IA1239KA1120N-01351MD1210181+9999MW1021REMSYN088AAXX  03061 22721 11999 22902 11129 21149 49864 52018 69922 70281 82030 333 21135 47066;
0112227210999992000020309004+62900+034400FM-12+008099999V0202801N002019999999N0500001N1-01081-01361098721ADDGF107991001001999999001011MD1210091+9999REMSYN060AAXX  03091 22721 42999 72802 11108 21136 49872 52009 80001;
0187227210999992000020312004+62900+034400FM-12+008099999V0202901N002010042019N0070001N1-01011-01371098881ADDAY181061AY211061GA1051+004209099GF107991051091004501031001MA1999999097841MD1310151+9999MW1851REMSYN082AAXX  03121 22721 41457 72902 11101 21137 39784 49888 53015 78581 85930 333 85914;
0150227210999992000020315004+62900+034400FM-12+008099999V0202901N002012200019N0500001N1-01281-01551099261ADDAY181031AY231031GA1001+999999999GF100991001001999999001001MD1210371+9999MW1261REMSYN060AAXX  03151 22721 41999 02902 11128 21155 49926 52037 72683;
0190227210999992000020318004+62900+034400FM-12+008099999V0202601N003012200019N0500001N1-01371-01571099581ADDAA112000191AY181061AY231061GA1001+999999999GF100991001001999999001001KA1999M-00951MD1210311+9999MW1021REMSYN076AAXX  03181 22721 11984 02603 11137 21157 49958 52031 69922 70283 333 11095;
0166227210999992000020321004+62900+034400FM-12+008099999V0202601N003010063019N0500001N1-00921-01121099701ADDAY181031AY211031GA1071+006309099GF107991071091008001001001MD1210151+9999MW1851REMSYN076AAXX  03211 22721 41584 72603 11092 21112 49970 52015 78581 87900 333 87921;
0187227210999992000020400004+62900+034400FM-12+008099999V0202601N003010054019N0500001N1-00611-00881099901ADDAY181061AY211061GA1081+005409099GF108991081091004501999999MA1999999098871MD1210201+9999MW1851REMSYN082AAXX  04001 22721 41484 82603 11061 21088 39887 49990 52020 78581 889// 333 88918;
0160227210999992000020403004+62900+034400FM-12+008099999V0202601N003012200019N0500001N1-01001-01261100061ADDAY181031AY221031GA1001+999999999GF100991001001999999001001MD1210191+9999MW1261REMSYN070AAXX  04031 22721 41984 02603 11100 21126 40006 52019 72682 333 55///;
0219227210999992000020406004+62900+034400FM-12+008099999V0202901N002012200019N0500001N1-01221-01421100131ADDAA112000791AJ100659199999999AY181061AY211061GA1001+999999999GF100991001001999999001001IA1239KA1120N-01441MD1210051+9999MW1021REMSYN082AAXX  04061 22721 11999 02902 11122 21142 40013 52005 69902 70281 333 21144 47065;
0112227210999992000020409004+62900+034400FM-12+008099999V0203101N001012200019N0500001N1-01121-01401100131ADDGF103991001001999999001011MD1410001+9999REMSYN060AAXX  04091 22721 42999 33101 11112 21140 40013 54000 80001;
0133227210999992000020412004+62900+034400FM-12+008099999V0209999C000019999999N0500001N1-01121-01471099921ADDGF108991001001999999001061MA1999999098861MD1810211+9999REMSYN066AAXX  04121 22721 42999 80000 11112 21147 39886 49992 58021 80006;
0138227210999992000020415004+62900+034400FM-12+008099999V0200901N001010030019N0500001N1-01381-01581099581ADDGA1051+003009069GF108991061091004501071999MD1710341+9999REMSYN070AAXX  04151 22721 42499 80901 11138 21158 49958 57034 8697/ 333 85710;
0202227210999992000020418004+62900+034400FM-12+008099999V0201301N002010015019N0011001N1-00921-01031099121ADDAA112002091AY181061AY221061GA1061+001509069GF108991081091001501999999KA1120M-00911MD1710431+9999MW1861REMSYN088AAXX  04181 22721 11211 81302 11092 21103 49912 57043 60022 78682 889// 333 11091 86705;
0166227210999992000020421004+62900+034400FM-12+008099999V0201101N002010033019N0037001N1-00801-00941098751ADDAY181031AY221031GA1061+003309069GF108991081091004501999999MD1710361+9999MW1851REMSYN076AAXX  04211 22721 41437 81102 11080 21094 49875 57036 78582 889// 333 86711;
0171227210999992000020500004+62900+034400FM-12+008099999V0201201N003010006019N0007001N1-00771-00871098561ADDAY181061AY231061GA1091+999999999GF109991091999999999999999MA1999999097541MD1710191+9999MW1861REMSYN066AAXX  05001 22721 41/07 91203 11077 21087 39754 49856 57019 78683;
0172227210999992000020503004+62900+034400FM-12+008099999V0201301N003010030019N0037001N1-00671-00751098541ADDAY181031AY231031GA1051+003009069GF108991081091004501999999MD1710021+9999MW1851REMSYN082AAXX  05031 22721 41437 81303 11067 21075 49854 57002 78583 889// 333 55/// 85710;
0231227210999992000020506004+62900+034400FM-12+008099999V0201001N002010027019N0033001N1-00701-00791098741ADDAA112003091AJ100709199999999AY181061AY231061GA1061+002709069GF108991081091002501999999IA1239KA1120N-00991MD1210201+9999MW1851REMSYN094AAXX  05061 22721 11333 81002 11070 21079 49874 52020 60032 78583 889// 333 21099 47070 86709;
0166227210999992000020509004+62900+034400FM-12+008099999V0203101N001010042019N0180001N1-00631-00751099161ADDAY181031AY221031GA1051+004209069GF108991081091004501999999MD1210421+9999MW1851REMSYN076AAXX  05091 22721 41468 83101 11063 21075 49916 52042 78582 889// 333 85714;
0187227210999992000020512004+62900+034400FM-12+008099999V0202901N002010042019N0140001N1-00571-00751099591ADDAY181061AY221061GA1061+004209069GF108991081091004501999999MA1999999098561MD1210421+9999MW1851REMSYN082AAXX  05121 22721 41464 82902 11057 21075 39856 49959 52042 78582 889// 333 86714;
0166227210999992000020515004+62900+034400FM-12+008099999V0202901N003010039019N0160001N1-00761-00981100011ADDAY181031AY221031GA1051+003909069GF108991061091004501051999MD1210411+9999MW1851REMSYN076AAXX  05151 22721 41466 82903 11076 21098 40001 52041 78582 8695/ 333 85713;
0190227210999992000020518004+62900+034400FM-12+008099999V0202901N002012200019N0500001N1-01041-01241100331ADDAA112001091AY181061AY211061GA1001+999999999GF100991001001999999001001KA1999M-00521MD1110311+9999MW1011REMSYN076AAXX  05181 22721 11984 02902 11104 21124 40033 51031 60012 70181 333 11052;
0166227210999992000020521004+62900+034400FM-12+008099999V0202901N001010042019N0300001N1-01161-01361100561ADDAY181031AY211031GA1061+004209069GF108991081091004501999999MD1210221+9999MW1851REMSYN076AAXX  05211 22721 41480 82901 11116 21136 40056 52022 78581 889// 333 86714;
0187227210999992000020600004+62900+034400FM-12+008099999V0203201N001010036019N0400001N1-00981-01151100641ADDAY181061AY211061GA1061+003609069GF108991081091004501999999MA1999999099591MD1210091+9999MW1021REMSYN082AAXX  06001 22721 41482 83201 11098 21115 39959 40064 52009 70281 889// 333 86712;
0144227210999992000020603004+62900+034400FM-12+008099999V0203101N001010024019N0500001N1-00901-01061100661ADDGA1061+002409069GF108991081091002501999999MD1210031+9999REMSYN076AAXX  06031 22721 42384 83101 11090 21106 40066 52003 889// 333 55/// 86708;
0181227210999992000020606004+62900+034400FM-12+008099999V0209999C000010300019N0500001N1-01071-01201100671ADDAA112000791AJ100709199999999GF108991031091008001071999IA1239KA1120N-01341MD1410001+9999REMSYN082AAXX  06061 22721 12599 80000 11107 21120 40067 54000 69902 8397/ 333 21134 47070;
0086227210999992000020609004+62900+034400FM-12+008099999V0201501N001012200019N0500001N1-01171-01371100661ADDGF104991999999999999999999REMSYN048AAXX  06091 22721 42999 41501 11117 21137 40066;
0133227210999992000020612004+62900+034400FM-12+008099999V0201301N001019999999N0500001N1-01181-01381100491ADDGF108991061001999999031011MA1999999099431MD1710171+9999REMSYN066AAXX  06121 22721 42999 81301 11118 21138 39943 40049 57017 86031;
0166227210999992000020615004+62900+034400FM-12+008099999V0201101N003010021019N0060001N1-01071-01201100201ADDAY181031AY221031GA1061+002109069GF108991081091002501999999MD1710281+9999MW1851REMSYN076AAXX  06151 22721 41356 81103 11107 21120 40020 57028 78582 889// 333 86707;
0202227210999992000020618004+62900+034400FM-12+008099999V0201101N003010012019N0011001N1-00881-00991099541ADDAA112000591AY181061AY221061GA1061+001209069GF108991081091001501999999KA1120M-00881MD1710641+9999MW1851REMSYN088AAXX  06181 22721 11211 81103 11088 21099 49954 57064 69942 78582 889// 333 11088 86704;
0166227210999992000020621004+62900+034400FM-12+008099999V0201201N002010033019N0033001N1-00611-00691099021ADDAY181031AY221031GA1061+003309069GF108991081091004501999999MD1710511+9999MW1851REMSYN076AAXX  06211 22721 41433 81202 11061 21069 49902 57051 78582 889// 333 86711;
0187227210999992000020700004+62900+034400FM-12+008099999V0200701N001010015019N0013001N1-00501-00571098681ADDAY181061AY221061GA1061+001509069GF108991081091001501999999MA1999999097671MD1710331+9999MW1961REMSYN082AAXX  07001 22721 41213 80701 11050 21057 39767 49868 57033 79682 889// 333 86705;
0195227210999992000020703004+62900+034400FM-12+008099999V0202701N004010045019N0500001N1+00031-00051098811ADDAY181031AY221031GA1071+004509099GF107991071091004501001001MD1310141+9999MW1021OA140101201REMSYN094AAXX  07031 22721 41484 72704 10003 21005 49881 53014 70282 87900 333 55/// 87915 91012 91112;
0215227210999992000020706004+62900+034400FM-12+008099999V0202701N003012200019N0500001N1+00111-00031099121ADDAA112010991AJ100779199999999AY181061AY211061GF104991041091004501001001IA1279KA1120N-00931MD1210321+9999MW1021REMSYN094AAXX  07061 22721 11499 42703 10011 21003 49912 52032 60112 70281 84900 333 21093 43077 91112;
0122227210999992000020709004+62900+034400FM-12+008099999V0203001N002012200019N0500001N1+00111-00181099451ADDGF102991021011008001001001MD1210321+9999REMSYN070AAXX  07091 22721 42599 23002 10011 21018 49945 52032 82100 333 91112;
0143227210999992000020712004+62900+034400FM-12+008099999V0202601N003012200019N0500001N1+00141-00271099651ADDGF103991001001999999001011MA1999999098651MD1210201+9999REMSYN076AAXX  07121 22721 42999 32603 10014 21027 39865 49965 52020 80001 333 91112;
0187227210999992000020718004+62900+034400FM-12+008099999V0200701N001010030019N0500001N1-00241-00301099631ADDAA199000091GA1051+003009069GF108991081091004501999999KA1120M+00191MD1710111+9999REMSYN076AAXX  07181 22721 32484 80701 11024 21030 49963 57011 889// 333 10019 85710;EQDQ01  00002PRCP99
0138227210999992000020721004+62900+034400FM-12+008099999V0201601N002010030019N0500001N1-00021-00081099371ADDGA1051+003009069GF108991081091004501999999MD1710251+9999REMSYN070AAXX  07211 22721 42484 81602 11002 21008 49937 57025 889// 333 85710;
0187227210999992000020800004+62900+034400FM-12+008099999V0201101N002010030019N0037001N1+00001-00081099121ADDAY181061AY221061GA1061+003009069GF108991081091004501999999MA1999999098121MD1710251+9999MW1851REMSYN082AAXX  08001 22721 41437 81102 10000 21008 39812 49912 57025 78582 889// 333 86710;
0178227210999992000020803004+62900+034400FM-12+008099999V0201301N002010015019N0023001N1-00051-00081098791ADDAY181031AY221031GA1071+001509079GF108991081091001501999999MD1710331+9999MW1851REMSYN088AAXX  08031 22721 41223 81302 11005 21008 49879 57033 78582 889// 333 55/// 87705 93703;
0237227210999992000020806004+62900+034400FM-12+008099999V0201601N001010018019N0160001N1+00001+00001098611ADDAA112001091AJ100779199999999AY181061AY221061GA1061+001809079GF108991081091002501999999IA1279KA1120N-00261MD1710171+9999MW1261REMSYN100AAXX  08061 22721 11366 81601 10000 20000 49861 57017 60012 72682 889// 333 21026 43077 86706 93702;
0138227210999992000020809004+62900+034400FM-12+008099999V0201701N001010051019N0500001N1+00121+00071098581ADDGA1071+005109099GF107991071091004501001001MD1710031+9999REMSYN070AAXX  08091 22721 42499 71701 10012 20007 49858 57003 87900 333 87917;
0159227210999992000020812004+62900+034400FM-12+008099999V0201601N001010036019N0500001N1+00121+00071098521ADDGA1061+003609069GF108991081091004501999999MA1999999097531MD1710061+9999REMSYN076AAXX  08121 22721 42499 81601 10012 20007 39753 49852 57006 889// 333 86712;
0166227210999992000020815004+62900+034400FM-12+008099999V0201201N002010024019N0070001N1+00091+00061098491ADDAY181031AY221031GA1061+002409069GF108991081091002501999999MD1710031+9999MW1801REMSYN076AAXX  08151 22721 41357 81202 10009 20006 49849 57003 78082 889// 333 86708;
0202227210999992000020818004+62900+034400FM-12+008099999V0209999C000010030019N0070001N1+00081+00051098441ADDAA112001091AY181061AY221061GA1061+003009069GF108991081091004501999999KA1120M+00151MD1710051+9999MW1801REMSYN088AAXX  08181 22721 11457 80000 10008 20005 49844 57005 60012 78082 889// 333 10015 86710;
0166227210999992000020821004+62900+034400FM-12+008099999V0202701N001010030019N0150001N1+00091+00061098441ADDAY181031AY221031GA1061+003009069GF108991081091004501999999MD1410001+9999MW1021REMSYN076AAXX  08211 22721 41465 82701 10009 20006 49844 54000 70282 889// 333 86710;
0187227210999992000020900004+62900+034400FM-12+008099999V0202401N001010048019N0500001N1+00031-00051098481ADDAY181061AY221061GA1061+004809099GF106991061091004501001001MA1999999097491MD1210041+9999MW1021REMSYN082AAXX  09001 22721 41484 62401 10003 21005 39749 49848 52004 70282 86900 333 86916;
0144227210999992000020903004+62900+034400FM-12+008099999V0201701N001010027019N0500001N1+00051-00031098501ADDGA1061+002709069GF108991081091002501999999MD1210021+9999REMSYN076AAXX  09031 22721 42384 81701 10005 21003 49850 52002 889// 333 55/// 86709;
0231227210999992000020906004+62900+034400FM-12+008099999V0209999C000010021019N0026001N1+00061+00011098551ADDAA112000591AJ100759199999999AY181061AY221061GA1061+002109069GF108991081091002501999999IA1279KA1120N-00011MD1210051+9999MW1851REMSYN094AAXX  09061 22721 11326 80000 10006 20001 49855 52005 69942 78582 889// 333 21001 43075 86707;
0166227210999992000020909004+62900+034400FM-12+008099999V0201101N001010006019N0008001N1+00021+00021098631ADDAY181031AY241031GA1091+999999999GF109991091999999999999999MD1210081+9999MW1851REMSYN076AAXX  09091 22721 41/08 91101 10002 20002 49863 52008 78584 333 93706 96047;
0187227210999992000020912004+62900+034400FM-12+008099999V0209999C000010015019N0032001N1+00101+00071098761ADDAY181061AY241061GA1061+001509069GF108991081091001501999999MA1999999097771MD1210131+9999MW1851REMSYN082AAXX  09121 22721 41232 80000 10010 20007 39777 49876 52013 78584 889// 333 86705;
0166227210999992000020915004+62900+034400FM-12+008099999V0209999C000010030019N0050001N1+00061+00031098961ADDAY181031AY221031GA1061+003009069GF108991081091004501999999MD1210201+9999MW1101REMSYN076AAXX  09151 22721 41450 80000 10006 20003 49896 52020 71082 889// 333 86710;
0208227210999992000020918004+62900+034400FM-12+008099999V0209999C000010108019N0080001N1+00001+00001099181ADDAA112001091AY181061AY221061GA1051+010809099GF108991061091012501051999KA1120M+00121MD1210211+9999MW1101REMSYN094AAXX  09181 22721 11658 80000 10000 20000 49918 52021 60012 71082 8695/ 333 10012 85936 93701;
0172227210999992000020921004+62900+034400FM-12+008099999V0203101N001010099019N0090001N1-00041-00071099351ADDAY121031AY221031GA1081+009909099GF108991081091012501999999MD1210171+9999MW1101REMSYN082AAXX  09211 22721 41659 83101 11004 21007 49935 52017 71022 889// 333 88933 93701;
0143227210999992000021000004+62900+034400FM-12+008099999V0203401N001012200019N0210001N1-00191-00301099551ADDGA1001+999999999GF100991001001999999001001MA1999999098541MD1210191+9999REMSYN060AAXX  10001 22721 42971 03401 11019 21030 39854 49955 52019;
0132227210999992000021003004+62900+034400FM-12+008099999V0203101N001012200019N0500001N1-00571-00681099801ADDGA1001+999999999GF100991001001999999001001MD1210231+9999REMSYN064AAXX  10031 22721 42984 03101 11057 21068 49980 52023 333 55///;
0204227210999992000021006004+62900+034400FM-12+008099999V0209999C000012200019N0500001N1-00941-01061099981ADDAA199000091AJ100749199999999GA1001+999999999GF100991001001999999001001IA1279KA1120N-01011MD1210161+9999REMSYN070AAXX  10061 22721 32999 00000 11094 21106 49998 52016 333 21101 43074;EQDQ01  00002PRCP99
0122227210999992000021009004+62900+034400FM-12+008099999V0202701N002012200019N0500001N1-00731-00941100221ADDGA1001+999999999GF100991001001999999001001MD1210251+9999REMSYN054AAXX  10091 22721 42999 02702 11073 21094 40022 52025;
0143227210999992000021012004+62900+034400FM-12+008099999V0202601N002012200019N0500001N1-00571-00911100441ADDGA1001+999999999GF100991001001999999001001MA1999999099401MD1210221+9999REMSYN060AAXX  10121 22721 42999 02602 11057 21091 39940 40044 52022;
0112227210999992000021015004+62900+034400FM-12+008099999V0209999C000012200019N0500001N1-00851-01001100601ADDGF102991021041012501001001MD1210161+9999REMSYN060AAXX  10151 22721 42699 20000 11085 21100 40060 52016 82400;
0215227210999992000021018004+62900+034400FM-12+008099999V0200901N001010012019N0030001N1-01171-01231100621ADDAA199000091AY111061AY211061GA1081+001209069GF108991081061001501999999KA1120M-00431MD1410001+9999MW1101REMSYN082AAXX  10181 22721 31230 80901 11117 21123 40062 54000 71011 886// 333 11043 88704;EQDQ01  00002PRCP99
0166227210999992000021021004+62900+034400FM-12+008099999V0201001N001010039019N0080001N1-01041-01101100501ADDAY121031AY221031GA1061+003909069GF108991081091004501999999MD1810111+9999MW1101REMSYN076AAXX  10211 22721 41458 81001 11104 21110 40050 58011 71022 889// 333 86713;
0159227210999992000021100004+62900+034400FM-12+008099999V0201201N001010042019N0300001N1-00591-00661100331ADDGA1061+004209099GF106991061091004501001001MA1999999099291MD1710161+9999REMSYN076AAXX  11001 22721 42480 61201 11059 21066 39929 40033 57016 86900 333 86914;
0144227210999992000021103004+62900+034400FM-12+008099999V0201601N001010039019N0500001N1-00441-00501100081ADDGA1061+003909069GF108991081091004501999999MD1710231+9999REMSYN076AAXX  11031 22721 42484 81601 11044 21050 40008 57023 889// 333 55/// 86713;
0231227210999992000021106004+62900+034400FM-12+008099999V0201301N003010036019N0400001N1-00171-00341099811ADDAA112000791AJ100739199999999AY181061AY221061GA1061+003609069GF108991081091004501999999IA1239KA1120N-01181MD1710271+9999MW1851REMSYN094AAXX  11061 22721 11482 81303 11017 21034 49981 57027 69902 78582 889// 333 21118 47073 86712;
0166227210999992000021109004+62900+034400FM-12+008099999V0201701N002010030019N0070001N1-00101-00291099711ADDAY181031AY221031GA1061+003009069GF108991081091004501999999MD1710081+9999MW1851REMSYN076AAXX  11091 22721 41457 81702 11010 21029 49971 57008 78582 889// 333 86710;
0187227210999992000021112004+62900+034400FM-12+008099999V0201601N002010024019N0080001N1-00081-00301099631ADDAY181061AY231061GA1061+002409069GF108991081091002501999999MA1999999098631MD1710081+9999MW1851REMSYN082AAXX  11121 22721 41358 81602 11008 21030 39863 49963 57008 78583 889// 333 86708;
0172227210999992000021115004+62900+034400FM-12+008099999V0201901N002010024019N0060001N1-00021-00141099591ADDAY181031AY231031GA1061+002409079GF108991081091002501999999MD1710041+9999MW1851REMSYN082AAXX  11151 22721 41356 81902 11002 21014 49959 57004 78583 889// 333 86708 91111;
0208227210999992000021118004+62900+034400FM-12+008099999V0202101N001010060019N0500001N1+00081-00031099601ADDAA112000391AY181061AY231061GA1071+006009099GF107991071091008001001001KA1120M+00101MD1210011+9999MW1021REMSYN094AAXX  11181 22721 11584 72101 10008 21003 49960 52001 69932 70283 87900 333 10010 87920 91111;
0118227210999992000021121004+62900+034400FM-12+008099999V0202301N002010108019N0500001N1+00101-00041099921ADDGA1071+010809059GF107991071051012501999999REMSYN064AAXX  11211 22721 42684 72302 10010 21004 49992 875// 333 87636;
0159227210999992000021200004+62900+034400FM-12+008099999V0202301N001010096019N0500001N1+00071-00131099651ADDGA1071+009609059GF107991071051008001999999MA1999999098651MD1210041+9999REMSYN076AAXX  12001 22721 42584 72301 10007 21013 39865 49965 52004 875// 333 87632;
0122227210999992000021203004+62900+034400FM-12+008099999V0202401N001012200019N0500001N1-00061-00301099711ADDGF103991031091008001001001MD1210061+9999REMSYN070AAXX  12031 22721 42584 32401 11006 21030 49971 52006 83900 333 55///;
0216227210999992000021206004+62900+034400FM-12+008099999V0202501N002010096019N0500001N1+00011-00281099781ADDAA199000091AJ100729199999999GA1061+009609099GF108991081091008001999999IA1239KA1120N-00101MD1210061+9999REMSYN082AAXX  12061 22721 32599 82502 10001 21028 49978 52006 889// 333 21010 47072 86932;EQDQ01  00002PRCP99
0140227210999992000021209004+62900+034400FM-12+008099999V0202701N003012200019N0500001N1+00061-00411099861ADDAY181031AY221031GF106991041091008001001011MD1210091+9999MW1021REMSYN066AAXX  12091 22721 41599 62703 10006 21041 49986 52009 70282 84901;
0193227210999992000021212004+62900+034400FM-12+008099999V0202701N003010099019N0500001N1+00121-00261100131ADDAY181061AY221061GA1061+009909099GF107991071091012501001001MA1999999099131MD1210271+9999MW1021REMSYN088AAXX  12121 22721 41699 72703 10012 21026 39913 40013 52027 70282 87900 333 86933 91111;
0112227210999992000021215004+62900+034400FM-12+008099999V0202401N002012200019N0500001N1+00121-00331100441ADDGF103991021091008001031001MD1210301+9999REMSYN060AAXX  12151 22721 42599 32402 10012 21033 40044 52030 82930;
0162227210999992000021218004+62900+034400FM-12+008099999V0202601N003012200019N0500001N1-00151-00511100641ADDAA112000791GA1001+999999999GF100991001001999999001001KA1999M+00221MD1210191+9999REMSYN070AAXX  12181 22721 12984 02603 11015 21051 40064 52019 69902 333 10022;
0122227210999992000021221004+62900+034400FM-12+008099999V0209999C000012200019N0500001N1-00441-00621100831ADDGA1001+999999999GF100991001001999999001001MD1210181+9999REMSYN054AAXX  12211 22721 42984 00000 11044 21062 40083 52018;
0143227210999992000021300004+62900+034400FM-12+008099999V0209999C000012200019N0300001N1-00851-00921100921ADDGA1001+999999999GF100991001001999999001001MA1999999099871MD1210071+9999REMSYN060AAXX  13001 22721 42980 00000 11085 21092 39987 40092 52007;
0172227210999992000021303004+62900+034400FM-12+008099999V0209999C000010024019N0050001N1-00661-00711100931ADDAY181031AY221031GA1061+002409069GF108991081091002501999999MD1210021+9999MW1851REMSYN082AAXX  13031 22721 41350 80000 11066 21071 40093 52002 78582 889// 333 55/// 86708;
0221227210999992000021306004+62900+034400FM-12+008099999V0201101N001010018019N0070001N1-00491-00521100821ADDAA112000791AY181061AY211061GA1061+001809069GF108991081091001501999999KA1120N+99999MD1710101+9999MW1851REMSYN088AAXX  13061 22721 11257 81101 11049 21052 40082 57010 69902 78581 889// 333 21647 86706;EQDQ01 -06472ATMN  
0166227210999992000021309004+62900+034400FM-12+008099999V0201101N001010018019N0080001N1-00201-00231100681ADDAY181031AY221031GA1051+001809069GF108991081091001501999999MD1710131+9999MW1851REMSYN076AAXX  13091 22721 41258 81101 11020 21023 40068 57013 78582 889// 333 85706;
0187227210999992000021312004+62900+034400FM-12+008099999V0201701N001010045019N0220001N1+00021-00041100591ADDAY181061AY221061GA1051+004509069GF108991081091004501999999MA1999999099581MD1710081+9999MW1021REMSYN082AAXX  13121 22721 41472 81701 10002 21004 39958 40059 57008 70282 889// 333 85715;
0138227210999992000021315004+62900+034400FM-12+008099999V0200901N001010066019N0180001N1+00001-00081100451ADDGA1051+006609099GF108991081091008001999999MD1710141+9999REMSYN070AAXX  13151 22721 42568 80901 10000 21008 40045 57014 889// 333 85922;
0202227210999992000021318004+62900+034400FM-12+008099999V0201301N001010081019N0260001N1+00021-00091100351ADDAA112000791AY181061AY221061GA1061+008109099GF108991081091008001999999KA1120M+00081MD1710101+9999MW1021REMSYN088AAXX  13181 22721 11576 81301 10002 21009 40035 57010 69902 70282 889// 333 10008 86927;
0138227210999992000021321004+62900+034400FM-12+008099999V0201601N001010138019N0300001N1+00001-00211100241ADDGA1071+013809059GF107991071051012501999999MD1710111+9999REMSYN070AAXX  13211 22721 42680 71601 10000 21021 40024 57011 875// 333 87646;
0133227210999992000021400004+62900+034400FM-12+008099999V0201401N001010300019N0500001N1-00081-00241100071ADDGF108991041091008001051999MA1999999099061MD1710171+9999REMSYN066AAXX  14001 22721 42584 81401 11008 21024 39906 40007 57017 8495/;
0172227210999992000021403004+62900+034400FM-12+008099999V0209999C000010015019N0018001N1-00151-00201099931ADDAY181031AY221031GA1071+001509069GF108991081091001501999999MD1710151+9999MW1851REMSYN082AAXX  14031 22721 41218 80000 11015 21020 49993 57015 78582 889// 333 55/// 87705;
0231227210999992000021406004+62900+034400FM-12+008099999V0201201N002010015019N0013001N1-00171-00191099851ADDAA112001091AJ100749199999999AY181061AY221061GA1061+001509069GF108991081091001501999999IA1239KA1120N-00221MD1710081+9999MW1851REMSYN094AAXX  14061 22721 11213 81202 11017 21019 49985 57008 69992 78582 889// 333 21022 47074 86705;
0187227210999992000021412004+62900+034400FM-12+008099999V0201801N001010021019N0030001N1+00021-00091099901ADDAY181061AY221061GA1061+002109069GF108991081091002501999999MA1999999098891MD1210051+9999MW1851REMSYN082AAXX  14121 22721 41330 81801 10002 21009 39889 49990 52005 78582 889// 333 86707;
0172227210999992000021415004+62900+034400FM-12+008099999V0202201N001010048019N0300001N1-00081-00121100011ADDAY181031AY221031GA1051+004809099GF108991051091004501051999MD1210111+9999MW1021REMSYN082AAXX  14151 22721 41480 82201 11008 21012 40001 52011 70282 8595/ 333 85916 93403;
0208227210999992000021418004+62900+034400FM-12+008099999V0201901N001010033019N0050001N1-00171-00191100051ADDAA112002091AY181061AY221061GA1051+003309079GF108991081091004501999999KA1120M+00051MD1210031+9999MW1851REMSYN094AAXX  14181 22721 11450 81901 11017 21019 40005 52003 60022 78582 889// 333 10005 85711 93703;
0172227210999992000021421004+62900+034400FM-12+008099999V0201601N001010093019N0150001N1-00141-00221100121ADDAY181031AY221031GA1051+009309069GF107991071091008001001001MD1210081+9999MW1021REMSYN082AAXX  14211 22721 41565 71601 11014 21022 40012 52008 70282 87900 333 85631 93701;
0193227210999992000021500004+62900+034400FM-12+008099999V0201201N00101002101CN0044001N1-00181-00201100121ADDAY181061AY221061GA1041+002709079GF108991081091002501999999MA1999999099101MD1710011+9999MW1851REMSYN088AAXX  15001 22721 41344 81201 11018 21020 39910 40012 57001 78582 889// 333 84709 93701;
0172227210999992000021503004+62900+034400FM-12+008099999V0201201N001010015019N0011001N1-00231-00261100081ADDAY181031AY221031GA1061+001509069GF108991081091001501999999MD1710041+9999MW1851REMSYN082AAXX  15031 22721 41211 81201 11023 21026 40008 57004 78582 889// 333 55/// 86705;
0231227210999992000021506004+62900+034400FM-12+008099999V0201101N001010021019N0022001N1-00231-00231100041ADDAA112000891AJ100759199999999AY181061AY221061GA1061+002109069GF108991081091002501999999IA1239KA1120N-00261MD1710041+9999MW1851REMSYN094AAXX  15061 22721 11322 81101 11023 21023 40004 57004 69982 78582 889// 333 21026 47075 86707;
0166227210999992000021509004+62900+034400FM-12+008099999V0209999C000010018019N0026001N1-00151-00151100061ADDAY181031AY221031GA1061+001809069GF108991081091001501999999MD1210021+9999MW1851REMSYN076AAXX  15091 22721 41226 80000 11015 21015 40006 52002 78582 889// 333 86706;
0187227210999992000021512004+62900+034400FM-12+008099999V0202601N001010054019N0500001N1-00141-00371100051ADDAY181061AY221061GA1061+005409099GF107991061091004501031001MA1999999099041MD1410001+9999MW1261REMSYN082AAXX  15121 22721 41499 72601 11014 21037 39904 40005 54000 72682 86930 333 86918;
0140227210999992000021515004+62900+034400FM-12+008099999V0209999C000010300019N0080001N1-00211-00331100111ADDAY181031AY221031GF107991041091008001031001MD1210051+9999MW1851REMSYN066AAXX  15151 22721 41558 70000 11021 21033 40011 52005 78582 84930;
0202227210999992000021518004+62900+034400FM-12+008099999V0209999C000010018019N0050001N1-00251-00341100111ADDAA112001091AY181061AY221061GA1061+001809069GF108991081091002501999999KA1120M-00091MD1410001+9999MW1851REMSYN088AAXX  15181 22721 11350 80000 11025 21034 40011 54000 60012 78582 889// 333 11009 86706;
