0175233050999992000010206004+66250+052580FM-12+002099999V0201701N003012200019N0500001N1-03031-03341103651ADDAA106000091GA1001+999999999GF100991001001999999001001KA1999N-03301MD1810041+9999REMSYN064AAXX  02061 23305 32999 01703 11303 21334 40365 58004 333 21330;EQDQ01  00002PRCP06
0112233050999992000010209004+66250+052580FM-12+002099999V0201601N003012200019N0500001N1-02951-03261103641ADDGF102991021001022501041001MD1610011+9999REMSYN060AAXX  02091 23305 42899 21603 11295 21326 40364 56001 82040;
0133233050999992000010212004+66250+052580FM-12+002099999V0202001N002012200019N0500001N1-02831-03131103611ADDGF102991021001022501041001MA1999999103321MD1710031+9999REMSYN066AAXX  02121 23305 42884 22002 11283 21313 30332 40361 57003 82040;
0166233050999992000010309004+66250+052580FM-12+002099999V0202001N004010024019N0032001N1-02131-02381103081ADDAY171031AY221031GA1081+002409069GF108991081061002501999999MD1610021+9999MW1771REMSYN076AAXX  03091 23305 41332 82004 11213 21238 40308 56002 77772 886// 333 88708;
0133233050999992000010312004+66250+052580FM-12+002099999V0201701N004012200019N0500001N1-02351+99999103101ADDGF102991021999999999041001MA1999999102831MD1010271+9999REMSYN066AAXX  03121 23305 41984 21704 11235 28253 30283 40310 50027 82/40;
0112233050999992000010409004+66250+052580FM-12+002099999V0200901N003019999999N0500001N1-02881-03181102311ADDGF106991021001999999031051MD1710151+9999REMSYN060AAXX  04091 23305 42999 60903 11288 21318 40231 57015 82035;
0187233050999992000010412004+66250+052580FM-12+002099999V0200801N003010039019N0210001N1-02601-02911102081ADDAY171061AY221061GA1081+003909059GF108991081051004501999999MA1999999101801MD1710231+9999MW1711REMSYN082AAXX  04121 23305 41471 80803 11260 21291 30180 40208 57023 77172 885// 333 88613;
0133233050999992000010600004+66250+052580FM-12+002099999V0200901N002012200019N0500001N1-03361+99999101981ADDGF102991021001022501031001MA1999999101691MD1710101+9999REMSYN066AAXX  07121 23305 42884 20902 11336 21272 30169 40198 57010 82030;
0161233050999992000010612004+66250+052580FM-12+002099999V0201001N002012200019N0500001N1-02531-02841101921ADDAY171061AY211061GF104991021001022501041051MA1999999101641MD1210081+9999MW1021REMSYN072AAXX  06121 23305 41884 41002 11253 21284 30164 40192 52008 70271 82045;
0187233050999992000010812004+66250+052580FM-12+002099999V0201301N006010042019N0500001N1-02491-02811100781ADDAY171061AY231061GA1061+004209059GF107991061051004501031011MA1999999100511MD1810111+9999MW1361REMSYN082AAXX  08121 23305 41484 71306 11249 21281 30051 40078 58011 73673 86531 333 86614;
0187233050999992000011012004+66250+052580FM-12+002099999V0203201N004010084019N0500001N1-01121-01321099551ADDAY181061AY221061GA1071+008409059GF107991071051008001001001MA1999999099291MD1310361+9999MW1261REMSYN082AAXX  10121 23305 41584 73204 11112 21132 39929 49955 53036 72682 87500 333 87628;
0201233050999992000011306004+66250+052580FM-12+002099999V0200801N005010021019N0030001N1-02271-02481100321ADDAA100002091AY171061AY221061GA1081+002109069GF108991999071002501021999KA1120N-02801MW1731REMSYN082AAXX  13061 23305 11330 80805 11227 21248 40032 60020 77372 8872/ 333 21280 88707;EQDQ01+000082SCOTLC
0147233050999992000011412004+66250+052580FM-12+002099999V0209999C000012200019N0500001N1-03461-03741101731ADDGA1001+999999999GF100991001001999999001001MA1999999101441MD1210171+9999REMSYN064    AAXX  14121 23305 42999 00000 11346 21374 30144 40173 52017;
0191233050999992000011812004+66250+052580FM-12+002099999V0200801N003010036019N0050001N1-01161-01291099761ADDAY171061AY221061GA1081+003609029GF108991081001004501021999MA1999999099501MD1210141+9999MW1711REMSYN086    AAXX  18121 23305 41450 80803 11116 21129 39950 49976 52014 77172 8802/ 333 88512;
0191233050999992000011912004+66250+052580FM-12+002099999V0209999C000010036019N0170001N1-02261-02511100311ADDAY171061AY221061GA1081+003609059GF108991081051004501999999MA1999999100041MD1110011+9999MW1711REMSYN086    AAXX  19121 23305 41467 80000 11226 21251 30004 40031 51001 77172 885// 333 88612;
0161233050999992000012112004+66250+052580FM-12+002099999V0201201N003010210019N0240001N1-00881-01071098921ADDAY171061AY221061GF108991081001022501021999MA1999999098671MD1310131+9999MW1711REMSYN072AAXX  21121 23305 41874 81203 11088 21107 39867 49892 53013 77172 8802/;
0187233050999992000012212004+66250+052580FM-12+002099999V0201201N002010045019N0500001N1-01531-01721100071ADDAY171061AY221061GA1081+004509059GF108991081051004501999999MA1999999099811MD1210111+9999MW1021REMSYN082AAXX  22121 23305 41499 81202 11153 21172 39981 40007 52011 70272 885// 333 88615;
0133233050999992000012612004+66250+052580FM-12+002099999V0201101N003012200019N0500001N1+99999+99999101311ADDGF102991021001999999031001MA1999999101031MD1810221+9999REMSYN066AAXX  26121 23305 42999 21103 18//0 21274 30103 40131 58022 82030;
0202233050999992000020106004+66250+052580FM-12+002099999V0201401N007010054019N0500001N1-00201-00291098171ADDAA100001091AY171061AY231061GA1081+005409059GF108991081051004501999999KA1120N-00331MD1610061+9999MW1361REMSYN088AAXX  01061 23305 11499 81407 11020 21029 49817 56006 60010 73673 885// 333 21033 88618;
0155233050999992000020312004+66250+052580FM-12+002099999V0201101N003010210019N0500001N1-01101-01231999999ADDAY171061AY211061GF106991061001022501031001MA1999999098371MD1810051+9999MW1021REMSYN066AAXX  03121 23305 41899 61103 11110 21123 39837 58005 70271 86030;
0202233050999992000020806004+66250+052580FM-12+002099999V0201401N003010048019N0110001N1-01141-01261099811ADDAA100000891AY171061AY221061GA1081+004809059GF108991081051004501999999KA1120N-01661MD1610031+9999MW1711REMSYN088AAXX  08061 23305 11461 81403 11114 21126 49981 56003 69970 77172 885// 333 21166 88616;
0171233050999992000021306004+66250+052580FM-12+002099999V0201501N003019999999N0500001N1-00521-00661100531ADDAA100000791GF107991071001999999071001KA1999N+99999MD1210061+9999REMSYN076AAXX  13061 23305 12999 71503 11052 21066 40053 52006 69900 87070 333 21045;EQDQ01 -00452ATMN  
0205233050999992000021603004+66250+052580FM-12+002099999V0201001N002010045019N0120001N1-00801-00971100571ADDAA112000391AA224000391AY171031GA1081+004509069GF108991051999004501999081MD1610061+9999MW1711REMSYN101AAXX  16031 23305 /1462 81002 1108/ 21097 40057 56006 7717/ 85//8 333 88615 555 2102# 69932 7993/ /-;
0082233050999992000022012004+66250+052580FM-12+002099999V0202101N005019999999N0290001N1-00971+99999999999ADDGF107991999999004501999999REMSYN044AAXX  20121 23305 41479 72105 11097 21079 3;
0133233050999992000022312004+66250+052580FM-12+002099999V0201601N001012200019N0500001N1-01421-01771102161ADDGF101991001001999999001011MA1999999101891MD1810061+9999REMSYN066AAXX  23121 23305 42999 11601 11142 21177 30189 40216 58006 80001;
0106233050999992000022709004+66250+052580FM-12+002099999V0203301N002012200019N0500001N1-02541+99999101811ADDGF101991011011012501001001MD1210111+9999REMSYN054AAXX  27091 23305 42699 13302 11254 40181 52011 81100;
0158233050999992000030103004+66250+052580FM-12+002099999V0201901N001012200019N0500001N1-03251-03481100321ADDAA199000091GF105991031001022501041011MD1210221+9999REMSYN076AAXX  01031 23305 32899 51901 11325 21348 40032 52022 83041 555 21332 7990/;EQDQ01  00002PRCP99
0140233050999992000030109004+66250+052580FM-12+002099999V0201501N003019999999N0500001N1-02231-02621100561ADDAY131031AY221031GF106991031001999999031011MD1310111+9999MW1021REMSYN066AAXX  01091 23305 41999 61503 11223 21262 40056 53011 70232 83031;
0161233050999992000030112004+66250+052580FM-12+002099999V0201801N004019999999N0500001N1-01911-02401100611ADDAY171061AY221061GF106991021001999999031011MA1999999100341MD1210051+9999MW1021REMSYN072AAXX  01121 23305 41999 61804 11191 21240 30034 40061 52005 70272 82031;
0202233050999992000030206004+66250+052580FM-12+002099999V0200801N003010042019N0180001N1-01421-01621100191ADDAA100001091AY171061AY221061GA1081+004209059GF108991081051004501999999KA1120N-01991MD1610061+9999MW1711REMSYN088AAXX  02061 23305 11468 80803 11142 21162 40019 56006 60010 77172 885// 333 21199 88614;
0152233050999992000030306004+66250+052580FM-12+002099999V0201801N005010300019N0500001N1+00131-00051099561ADDAA100000191GF106991021051012501031011KA1999N-00801MD1210081+9999REMSYN076AAXX  03061 23305 12699 61805 10013 21005 49956 52008 69920 82531 333 21080;
0092233050999992000030309004+66250+052580FM-12+002099999V0201901N006010300019N0500001N1+00161-00031099661ADDGF107991031011012501031001REMSYN054AAXX  03091 23305 42699 71906 10016 21003 49966 83130;
0161233050999992000030312004+66250+052580FM-12+002099999V0201801N004010210019N0500001N1+00201-00021099641ADDAY181061AY221061GF108991081001022501071999MA1999999099391MD1810021+9999MW1021REMSYN072AAXX  03121 23305 41899 81804 10020 21002 39939 49964 58002 70282 8807/;
0187233050999992000030612004+66250+052580FM-12+002099999V0201001N001010036019N0500001N1+00051-00031100231ADDAY121061AY221061GA1081+003609099GF108991081031004501999999MA1999999099981MD1810061+9999MW1261REMSYN082AAXX  06121 23305 41499 81001 10005 21003 39998 40023 58006 72622 883// 333 88912;
0180233050999992000030706004+66250+052580FM-12+002099999V0201901N004012200019N0500001N1-00611-00801100161ADDAA100006191AY181061AY211061GF104991021051012501031001KA1999N-00591MD1210051+9999MW1021REMSYN082AAXX  07061 23305 11699 41904 11061 21080 40016 52005 60060 70281 82530 333 21059;
0166233050999992000030709004+66250+052580FM-12+002099999V0201801N004010048019N0180001N1-00401-00621100251ADDAY171031AY211031GA1081+004809059GF108991081051004501999999MD1210091+9999MW1711REMSYN076AAXX  07091 23305 41468 81804 11040 21062 40025 52009 77171 885// 333 88616;
0187233050999992000030712004+66250+052580FM-12+002099999V0201501N006010066019N0500001N1-00421-00761100241ADDAY171061AY231061GA1061+006609059GF107991061051008001031001MA1999999099991MD1810011+9999MW1361REMSYN082AAXX  07121 23305 41599 71506 11042 21076 39999 40024 58001 73673 86530 333 86622;
0215233050999992000030806004+66250+052580FM-12+002099999V0201001N006010024019N0025001N1-00341-00551099261ADDAA199000021AY171061AY231061GA1081+002409069GF108991999071002501021999KA1120N-00461MD1810291+9999MW1731REMSYN082AAXX  08061 23305 31325 81006 11034 21055 49926 58029 77373 8872/ 333 21046 88708;EQDQ01+000082SCOTLC
0173233050999992000030809004+66250+052580FM-12+002099999V02099999999990024019N0023001N1+99999+99999098891ADDAY131031AY231031GA1081+002409069GF108991999071002501021999MD1710361+9999MW1731REMSYN064AAXX  08091 23305 41323 810// 49889 57036 77333 8872/ 333 88708;EQDQ01+000082SCOTLC
0199233050999992000030906004+66250+052580FM-12+002099999V0201201N003010210019N0500001N1-00321-00461098771ADDAA100000591AY171061AY221061GF106991061001022501031001KA1999N+99999MD1110011+9999MW1021REMSYN082AAXX  09061 23305 11899 61203 11032 21046 49877 51001 69940 70272 86030 333 20052;EQDQ01 +00522ATMN  
0152233050999992000031006004+66250+052580FM-12+002099999V0201201N002012200019N0500001N1-01041-01241099651ADDAA100000891GF103991001001999999001011KA1999N-01361MD1319999+9999REMSYN076AAXX  10061 23305 12999 31202 11104 21124 49965 530/2 69980 80001 333 21136;
0112233050999992000031009004+66250+052580FM-12+002099999V0200601N004019999999N0500001N1-00791-01151099701ADDGF105991001001999999001999MD1310051+9999REMSYN060AAXX  10091 23305 42999 50604 11079 21115 49970 53005 8000/;
0193233050999992000031306004+66250+052580FM-12+002099999V0203501N006012200019N0500001N1-00801-01071101101ADDAA199000091AY181061AY231061GF103991031011012501001001KA1999N-00981MD1210211+9999MW1361REMSYN076AAXX  13061 23305 31699 33506 11080 21107 40110 52021 73683 83100 333 21098;EQDQ01  00002PRCP99
0140233050999992000031309004+66250+052580FM-12+002099999V0201601N006012200019N0500001N1-00521-01021101091ADDAY131031AY201031GF101991011011012501001001MD1210251+9999MW1361REMSYN066AAXX  13091 23305 41699 11606 11052 21102 40109 52025 73630 81100;
0161233050999992000031312004+66250+052580FM-12+002099999V0201601N006012200019N0500001N1-00381-01001101381ADDAY131061AY201061GF102991021011012501001001MA1999999101131MD1110041+9999MW1361REMSYN072AAXX  13121 23305 41699 21606 11038 21100 30113 40138 51004 73630 82100;
0165233050999992000031406004+66250+052580FM-12+002099999V0201501N004012200019N0500001N1-01011-01211101911ADDAA199000091GF102991021001022501031001KA1999N-01261MD1410001+9999REMSYN070AAXX  14061 23305 32899 21504 11101 21121 40191 54000 82030 333 21126;EQDQ01  00002PRCP99
0122233050999992000031409004+66250+052580FM-12+002099999V0201701N005012200019N0500001N1-00491-00981101861ADDGA1001+999999999GF100991001001999999001001MD1810051+9999REMSYN054AAXX  14091 23305 42999 01705 11049 21098 40186 58005;
0162233050999992000031412004+66250+052580FM-12+002099999V0201801N005012200019N0500001N1-03402+99999101821ADDGA1001+999999999GF100991001001999999001001MA1999999101561MD1710041+9999REMSYN060AAXX  14121 23305 42999 01805 1134/ 21094 30156 40182 57004;EQDQ01-003403ATOT  
0158233050999992000031603004+66250+052580FM-12+002099999V0201601N003012200019N0500001N1-01751-01871102031ADDAA199000091GF101991011001999999041001MD1110081+9999REMSYN076AAXX  16031 23305 32999 11603 11175 21187 40203 51008 81040 555 21175 7000/;EQDQ01  00002PRCP99
0165233050999992000031606004+66250+052580FM-12+002099999V0209999C000012200019N0500001N1-00901-01191102171ADDAA199000091GF102991011001999999031011KA1999N-01751MD1310141+9999REMSYN070AAXX  16061 23305 32999 20000 11090 21119 40217 53014 81031 333 21175;EQDQ01  00002PRCP99
0143233050999992000031612004+66250+052580FM-12+002099999V0209999C000012200019N9999999N1+00001-00901102271ADDGA1001+999999999GF100991001001999999001001MA1999999102021MD1110041+9999REMSYN060AAXX  16121 23305 4/9// 00000 10000 21090 30202 40227 51004;
0152233050999992000031706004+66250+052580FM-12+002099999V0203501N001012200019N0500001N1-01491-01551102971ADDAA199000091GF102991021061004501001001MD1110071+9999REMSYN070AAXX  17061 23305 32499 23501 11149 21155 40297 51007 82600 333 2/188;EQDQ01  00002PRCP99
0141233050999992000031709004+66250+052580FM-12+002099999V0203601N001012200019N0500001N1+99999+99999103001ADDGA1001+999999999GF100991001001999999001001MD1110031+9999REMSYN054AAXX  17091 23305 42999 03601 110/5 21097 40300 5100/;EQDQ01+000002APC3  
0143233050999992000031712004+66250+052580FM-12+002099999V0203401N002012200019N0500001N1-00171-00741102951ADDGA1001+999999999GF100991001001999999001001MA1999999102701MD1810041+9999REMSYN060AAXX  17121 23305 42999 03402 11017 21074 30270 40295 58004;
0182233050999992000031806004+66250+052580FM-12+002099999V0202101N001010039019N0080001N1-01461-01521103101ADDAA100000791AY171061AY221061GA1071+003909059GF107991071051004501001001KA1120N-01951MW1101REMSYN082AAXX  18061 23305 11458 72101 11146 21152 40310 69900 71072 87500 333 21195 87613;
0122233050999992000031809004+66250+052580FM-12+002099999V0202401N001012200019N0500001N1-00751-01101103091ADDGA1001+999999999GF100991001001999999001001MD1410001+9999REMSYN054AAXX  18091 23305 42999 02401 11075 21110 40309 54000;
0143233050999992000031812004+66250+052580FM-12+002099999V0201601N003012200019N0500001N1-00031-00691103061ADDGA1001+999999999GF100991001001999999001001MA1999999102811MD1810021+9999REMSYN060AAXX  18121 23305 42999 01603 11003 21069 30281 40306 58002;
0112233050999992000031909004+66250+052580FM-12+002099999V0201801N004012200019N0500001N1-00081-00611102601ADDGF102991001001999999001051MD1710191+9999REMSYN060AAXX  19091 23305 42999 21804 11008 21061 40260 57019 80005;
0167233050999992000031912004+66250+052580FM-12+002099999V0201701N004010039019N0031001N1-00071-00711102371ADDAY171061AY221061GA1081+003909029GF108991081001004501021999MA1999999102121MW1701REMSYN076AAXX  19121 23305 41431 81704 11007 21071 30212 40237 77072 8802/ 333 88513;
0180233050999992000032012004+66250+052580FM-12+002099999V0201701N007010210019N0500001N1-00081-00401999999ADDAY131061AY221061GF108991081001022501071999MA1999999099511MD1710522+9999MW1361REMSYN072AAXX  20121 23305 41899 81707 11008 21040 39951 49/76 57052 73632 8807/;EQDQ01+000522APC3  
0161233050999992000032112004+66250+052580FM-12+002099999V0202401N008012200019N0500001N1+00091-00631099381ADDAY181061AY231061GF107991041051008001001011MA1999999099131MD1210191+9999MW1361REMSYN072AAXX  21121 23305 41599 72408 10009 21063 39913 49938 52019 73683 84501;
0158233050999992000032203004+66250+052580FM-12+002099999V0201801N004012200019N0500001N1-00801-01021099641ADDAA199000091GF102991021001022501031001MD1110021+9999REMSYN076AAXX  22031 23305 32899 21804 11080 21102 49964 51002 82030 555 21080 7990/;EQDQ01  00002PRCP99
0165233050999992000032206004+66250+052580FM-12+002099999V0201501N003010300019N0500001N1-00581-00931099611ADDAA199000091GF105991011011012501031001KA1999N-00801MD1810021+9999REMSYN070AAXX  22061 23305 32699 51503 11058 21093 49961 58002 81130 333 21080;EQDQ01  00002PRCP99
0094233050999992000032209004+66250+052580FM-12+002099999V0201501N017010300019N0500001N1+99999+99999999999ADDGF106991021011012501031001MD1310021+9999REMSYN042AAXX  22091 23305 42699 61517 53002 82130;
0161233050999992000032212004+66250+052580FM-12+002099999V0202801N003010300019N0500001N1-00161-00611099651ADDAY181061AY221061GF106991031011008001031001MA1999999099401MD1210021+9999MW1021REMSYN072AAXX  22121 23305 41599 62803 11016 21061 39940 49965 52002 70282 83130;
0161233050999992000032706004+66250+052580FM-12+002099999V0209999C000012200019N0500001N1-01291-01491100791ADDAA100001091AY181061AY211061GF102991001001999999001051MD1810011+9999MW1021REMSYN076AAXX  27061 23305 11999 20000 11129 21149 40079 58001 60010 70281 80005 333;
0202233050999992000033106004+66250+052580FM-12+002099999V0200601N003010087019N0500001N1-00401-00521098341ADDAA100001091AY171061AY221061GA1081+008709059GF108991081051008001999999KA1120N-00591MD1610131+9999MW1221REMSYN088AAXX  31061 23305 11599 80603 11040 21052 49834 56013 60010 72272 885// 333 21059 88629;
0166233050999992000033109004+66250+052580FM-12+002099999V0200101N003010036019N0047001N1-00321-00461098461ADDAY181031AY221031GA1081+003609099GF108991081031004501999999MD1310121+9999MW1851REMSYN076AAXX  31091 23305 41447 80103 11032 21046 49846 53012 78582 883// 333 88912;
0187233050999992000033112004+66250+052580FM-12+002099999V0203301N004010027019N0060001N1-00431-00551098781ADDAY181061AY221061GA1081+002709069GF108991081031002501999999MA1999999098471MD1310261+9999MW1851REMSYN082AAXX  31121 23305 42356 83304 11043 21055 39847 49878 53026 78582 883// 333 88709;
0132233050999992000040103004+66250+052580FM-12+002099999V0201701N002019999999N0500001N1+99999+99999101161ADDGF105991021001999999031051MD1210211+9999REMSYN080AAXX  01031 23305 /2999 51702 1//10 21192 40116 52021 82035 555 QIY 69902 7003/;
0146233050999992000040106004+66250+052580FM-12+002099999V0201501N002019999999N0033001N1-01361+99999101261ADDAA100000791GF107991031001002501031051KA1999N-01861MD1110111+9999REMSYN070AAXX  01061 23305 12333 71502 11136 40126 51011 69900 83035 333 21186;
0112233050999992000040109004+66250+052580FM-12+002099999V0201801N004019999999N0500001N1-00841-01311101201ADDGF107991031001999999031051MD1810061+9999REMSYN060AAXX  01091 23305 42999 71804 11084 21131 40120 58006 83035;
0165233050999992000040506004+66250+052580FM-12+002099999V0203201N002012200019N0500001N1-01601-01791102501ADDAA199000091GF102991001001999999001011KA1999N-02121MD1210041+9999REMSYN070AAXX  05061 23305 32999 23202 11160 21179 40250 52004 80001 333 21212;EQDQ01  00002PRCP99
