0219239330999992000010103004+60970+069070FM-12+0040USHH V0209999C000012200019N0040001N1-03791-03971103731ADDAA106000091AJ100369199999999AY101031AY201031GA1001+999999999GF100991001001999999001001IA1239MD1710091+9999MW1041REMSYN076AAXX  01031 23933 31996 00000 11379 21397 40373 57009 70400 333 47036 55000;EQDQ01  00002PRCP06
0165239330999992000010106004+60970+069070FM-12+0040USHH V0209999C000019999999N0100001N1-03571-03861103791ADDAA106000091GF106991061001999999031001KA1999N-03821MD1310061+9999REMSYN070AAXX  01061 23933 32997 60000 11357 21386 40379 53006 86030 333 21382;EQDQ01  00002PRCP06
0112239330999992000010109004+60970+069070FM-12+0040USHH V0200301N001019999999N0100001N1-03311-03601103711ADDGF106991061001999999031001MD1810061+9999REMSYN060AAXX  01091 23933 42997 60301 11331 21360 40371 58006 86030;
0133239330999992000010112004+60970+069070FM-12+0040USHH V0209999C000012200019N0100001N1-03211-03371103731ADDGF102991021001999999031001MA1999999103051MD1310021+9999REMSYN066AAXX  01121 23933 42997 20000 11321 21337 30305 40373 53002 82030;
0175239330999992000010115004+60970+069070FM-12+0040USHH V0200301N001012200019N0100001N1-03321-03501103851ADDAA106000091GA1001+999999999GF100991001001999999001001KA1999M-03211MD1210121+9999REMSYN064AAXX  01151 23933 32997 00301 11332 21350 40385 52012 333 11321;EQDQ01  00002PRCP06
0165239330999992000010118004+60970+069070FM-12+0040USHH V0209999C000012200019N0100001N1-03351-03531103711ADDAA106000091GF103991031001999999031001KA1999M-03211MD1810141+9999REMSYN070AAXX  01181 23933 32997 30000 11335 21353 40371 58014 83030 333 11321;EQDQ01  00002PRCP06
0112239330999992000010121004+60970+069070FM-12+0040USHH V0209999C000012200019N0100001N1-03271-03441103751ADDGF103991031001999999031001MD1310041+9999REMSYN060AAXX  01211 23933 42997 30000 11327 21344 40375 53004 83030;
0133239330999992000010200004+60970+069070FM-12+0040USHH V0202701N001012200019N0100001N1-03221-03391103831ADDGF103991031001999999031001MA1999999103151MD1210081+9999REMSYN066AAXX  02001 23933 42997 32701 11322 21339 30315 40383 52008 83030;
0179239330999992000010203004+60970+069070FM-12+0040USHH V0202701N001019999999N0100001N1-03291-03441103751ADDAJ100369199999999AY171031AY211031GF106991061001999999031001IA1239MD1810081+9999MW1711REMSYN082AAXX  02031 23933 /1997 62701 11329 21344 40375 58008 77171 86030 333 47036 55000;
0180239330999992000010206004+60970+069070FM-12+0040USHH V0209999C000019999999N0100001N1-03281-03441103721ADDAA100000391AY171061AY211061GF107991071001999999031001KA1999N-03411MD1710031+9999MW1021REMSYN082AAXX  02061 23933 11997 70000 11328 21344 40372 57003 69930 70271 87030 333 21341;
0112239330999992000010209004+60970+069070FM-12+0040USHH V0203001N001019999999N0100001N1-03261-03421103731ADDGF108991001001999999001011MD1310011+9999REMSYN060AAXX  02091 23933 42997 83001 11326 21342 40373 53001 80001;
0133239330999992000010212004+60970+069070FM-12+0040USHH V0209999C000019999999N0100001N1-03191-03371103751ADDGF106991001001999999001011MA1999999103071MD1210021+9999REMSYN066AAXX  02121 23933 42997 60000 11319 21337 30307 40375 52002 80001;
0135239330999992000010215004+60970+069070FM-12+0040USHH V0201001N001019999999N0100001N1-03161-03321103751ADDGF105991001001999999001011KA1999M-03161MD1410001+9999REMSYN070AAXX  02151 23933 /2997 51001 11316 21332 40375 54000 80001 333 11316;
0152239330999992000010218004+60970+069070FM-12+0040USHH V0209999C000019999999N0100001N1-03111-03281103751ADDAA100000791GF108991001001999999001071KA1999M-03161MD1410001+9999REMSYN076AAXX  02181 23933 12997 80000 11311 21328 40375 54000 69900 80007 333 11316;
0122239330999992000010221004+60970+069070FM-12+0040USHH V0201301N001012200019N0100001N1-03411-03581103851ADDGA1001+999999999GF100991001001999999001001MD1310101+9999REMSYN054AAXX  02211 23933 42997 01301 11341 21358 40385 53010;
0143239330999992000010300004+60970+069070FM-12+0040USHH V0209999C000012200019N0100001N1-03421-03641104001ADDGA1001+999999999GF100991001001999999001001MA1999999103321MD1210151+9999REMSYN060AAXX  03001 23933 42997 00000 11342 21364 30332 40400 52015;
0191239330999992000010303004+60970+069070FM-12+0040USHH V0209999C000012200019N0100001N1-03561-03771104231ADDAA106000091AJ100369199999999GA1001+999999999GF100991001001999999001001IA1239MD1210201+9999REMSYN070AAXX  03031 23933 32997 00000 11356 21377 40423 52020 333 47036 55000;EQDQ01  00002PRCP06
0203239330999992000010306004+60970+069070FM-12+0040USHH V0209999C000012200019N0040001N1-03621-03901104371ADDAA106000091AY101061AY201061GA1001+999999999GF100991001001999999001001KA1999N-03571MD1210141+9999MW1041REMSYN070AAXX  03061 23933 31996 00000 11362 21390 40437 52014 70400 333 21357;EQDQ01  00002PRCP06
0140239330999992000010309004+60970+069070FM-12+0040USHH V0209999C000012200019N0040001N1-03601-03901104471ADDAY101031AY201031GF102991001001999999001011MD1210101+9999MW1041REMSYN066AAXX  03091 23933 41996 20000 11360 21390 40447 52010 70400 80001;
0161239330999992000010312004+60970+069070FM-12+0040USHH V0209999C000012200019N0020001N1-03681-03971104561ADDAY101061AY201061GF102991001001999999001011MA1999999103851MD1210091+9999MW1041REMSYN072AAXX  03121 23933 41995 20000 11368 21397 30385 40456 52009 70400 80001;
0193239330999992000010315004+60970+069070FM-12+0040USHH V0201001N001012200019N0010001N1-03911-04171104551ADDAA106000091AY101031AY201031GF103991001001999999001011KA1999M-03601MD1810011+9999MW1041REMSYN076AAXX  03151 23933 31994 31001 11391 21417 40455 58001 70400 80001 333 11360;EQDQ01  00002PRCP06
0193239330999992000010318004+60970+069070FM-12+0040USHH V0201101N001012200019N0010001N1-03901-04171104441ADDAA106000091AY101061AY201061GF103991001001999999001011KA1999M-03601MD1710111+9999MW1041REMSYN076AAXX  03181 23933 31994 31101 11390 21417 40444 57011 70400 80001 333 11360;EQDQ01  00002PRCP06
0140239330999992000010321004+60970+069070FM-12+0040USHH V0209999C000012200019N0010001N1-03911-04111104361ADDAY101031AY201031GF102991001001999999001011MD1710081+9999MW1041REMSYN066AAXX  03211 23933 41994 20000 11391 21411 40436 57008 70400 80001;
0161239330999992000010400004+60970+069070FM-12+0040USHH V0200901N001019999999N0020001N1-03761-04051104231ADDAY111061AY211061GF106991001001999999001011MA1999999103521MD1710131+9999MW1041REMSYN072AAXX  04001 23933 41995 60901 11376 21405 30352 40423 57013 70411 80001;
0181239330999992000010403004+60970+069070FM-12+0040USHH V0201201N001019999999N0100001N1-03291-03571104031ADDAA106000091AJ100369199999999GF106991001001999999001011IA1239MD1710171+9999REMSYN076AAXX  04031 23933 32997 61201 11329 21357 40403 57017 80001 333 47036 55000;EQDQ01  00002PRCP06
0165239330999992000010406004+60970+069070FM-12+0040USHH V0201401N001019999999N0100001N1-03311-03601104011ADDAA106000091GF106991001001999999001011KA1999N-03921MD1710021+9999REMSYN070AAXX  04061 23933 32997 61401 11331 21360 40401 57002 80001 333 21392;EQDQ01  00002PRCP06
0112239330999992000010409004+60970+069070FM-12+0040USHH V0201001N001019999999N0100001N1-03161-03451103851ADDGF106991001001999999001011MD1710161+9999REMSYN060AAXX  04091 23933 42997 61001 11316 21345 40385 57016 80001;
0143239330999992000010412004+60970+069070FM-12+0040USHH V0201201N001012200019N0100001N1-03341-03621103841ADDGA1001+999999999GF100991001001999999001001MA1999999103141MD1710031+9999REMSYN060AAXX  04121 23933 42997 01201 11334 21362 30314 40384 57003;
0175239330999992000010415004+60970+069070FM-12+0040USHH V0201201N001012200019N0100001N1-03441-03741103801ADDAA106000091GA1001+999999999GF100991001001999999001001KA1999M-03161MD1710021+9999REMSYN064AAXX  04151 23933 32597 01201 11344 21374 40380 57002 333 11316;EQDQ01  00002PRCP06
0122239330999992000010421004+60970+069070FM-12+0040USHH V0201301N001012200019N0100001N1-03381-03681103501ADDGA1001+999999999GF100991001001999999001001MD1710151+9999REMSYN054AAXX  04211 23933 42997 01301 11338 21368 40350 57015;
0133239330999992000010500004+60970+069070FM-12+0040USHH V0201201N002012200019N0100001N1-03191-03501103331ADDGF102991001001999999001021MA1999999102651MD1710171+9999REMSYN066AAXX  05001 23933 42997 21202 11319 21350 30265 40333 57017 80002;
0179239330999992000010503004+60970+069070FM-12+0040USHH V0201101N004019999999N0100001N1-02811-03111103091ADDAJ100369199999999AY171031AY231031GF108991081001999999021999IA1239MD1710231+9999MW1711REMSYN082AAXX  05031 23933 /1997 81104 11281 21311 40309 57023 77173 8802/ 333 47036 55000;
0180239330999992000010506004+60970+069070FM-12+0040USHH V0201201N005019999999N0040001N1-02671-02851102971ADDAA100000791AY171061AY231061GF108991081001999999021999KA1999N-03441MD1710111+9999MW1711REMSYN082AAXX  05061 23933 11996 81205 11267 21285 40297 57011 69900 77173 8802/ 333 21344;
0140239330999992000010509004+60970+069070FM-12+0040USHH V0201101N005019999999N0040001N1-02491-02671102861ADDAY171031AY231031GF108991081001999999021999MD1710111+9999MW1711REMSYN066AAXX  05091 23933 41996 81105 11249 21267 40286 57011 77173 8802/;
0161239330999992000010512004+60970+069070FM-12+0040USHH V0201101N005019999999N0040001N1-02481-02661102741ADDAY171061AY231061GF108991081001999999021999MA1999999102081MD1710121+9999MW1711REMSYN072AAXX  05121 23933 41996 81105 11248 21266 30208 40274 57012 77173 8802/;
0163239330999992000010515004+60970+069070FM-12+0040USHH V0201101N006019999999N0040001N1-02581-02761102651ADDAY171031AY231031GF108991081001999999021999KA1999M-02481MD1710091+9999MW1711REMSYN076AAXX  05151 23933 /1996 81106 11258 21276 40265 57009 77173 8802/ 333 11248;
0180239330999992000010518004+60970+069070FM-12+0040USHH V0200801N003019999999N0040001N1-02771-02941102641ADDAA100003091AY171061AY231061GF108991081001999999021999KA1999M-02481MD1710011+9999MW1711REMSYN082AAXX  05181 23933 11996 80803 11277 21294 40264 57001 60030 77173 8802/ 333 11248;
0140239330999992000010521004+60970+069070FM-12+0040USHH V0200701N002019999999N0040001N1-03161-03321102731ADDAY171031AY231031GF108991081001999999021999MD1310071+9999MW1711REMSYN066AAXX  05211 23933 41996 80702 11316 21332 40273 53007 77173 8802/;
0161239330999992000010603004+60970+069070FM-12+0040USHH V0200701N002012200019N0100001N1-03481-03581102791ADDAJ100329199999999GA1001+999999999GF100991001001999999001001IA1239MD1310061+9999REMSYN070AAXX  06031 23933 /2997 00702 11348 21358 40279 53006 333 47032 55000;
0180239330999992000010606004+60970+069070FM-12+0040USHH V0200701N002019999999N0100001N1-03471-03701102781ADDAA100001091AY171061AY211061GF108991051001999999031091KA1999N-03421MD1810011+9999MW1701REMSYN082AAXX  06061 23933 11997 80702 11347 21370 40278 58001 60010 77071 85039 333 21342;
0140239330999992000010609004+60970+069070FM-12+0040USHH V0200801N002019999999N0100001N1-03411-03641102771ADDAY171031AY221031GF108991061001999999051091MD1410001+9999MW1701REMSYN066AAXX  06091 23933 41997 80802 11341 21364 40277 54000 77072 86059;
0161239330999992000010612004+60970+069070FM-12+0040USHH V0200701N002019999999N0040001N1-03441-03671102811ADDAY171061AY221061GF108991081001999999021999MA1999999102131MD1310041+9999MW1711REMSYN072AAXX  06121 23933 41996 80702 11344 21367 30213 40281 53004 77172 8802/;
0163239330999992000010615004+60970+069070FM-12+0040USHH V0200701N002019999999N0040001N1-03401-03611102811ADDAY171031AY231031GF108991081001999999021999KA1999M-03401MD1410001+9999MW1711REMSYN076AAXX  06151 23933 /1996 80702 11340 21361 40281 54000 77173 8802/ 333 11340;
0140239330999992000010621004+60970+069070FM-12+0040USHH V0200601N001019999999N0100001N1-03271-03441102731ADDAY171031AY231031GF108991081001999999021999MD1410001+9999MW1711REMSYN066AAXX  06211 23933 41997 80601 11327 21344 40273 54000 77173 8802/;
0190239330999992000010700004+60970+069070FM-12+0040USHH V02099999999992200019N0100001N1-03391-03551102691ADDAY171061AY231061GA1001+999999999GF100991001001999999001001MA1999999102011MD1810041+9999REMSYN072AAXX  07001 23933 41997 08701 11339 21355 30201 40269 58004 77073 8807/;EQDQ01+000702PRSWM1
0179239330999992000010703004+60970+069070FM-12+0040USHH V0200601N001019999999N0100001N1-03481-03641102751ADDAJ100329199999999AY171031AY221031GF108991081001999999071999IA1239MD1310051+9999MW1021REMSYN082AAXX  07031 23933 /1997 80601 11348 21364 40275 53005 70272 8807/ 333 47032 55000;
0199239330999992000010706004+60970+069070FM-12+0040USHH V0201001N002019999999N0100001N1-03571-03801102861ADDAA100000591AY171061AY221061GF108991081001999999071999KA1999N+99999MD1210111+9999MW1711REMSYN082AAXX  07061 23933 11997 81002 11357 21380 40286 52011 69940 77172 8807/ 333 21349;EQDQ01 -03492ATMN  
0140239330999992000010709004+60970+069070FM-12+0040USHH V0200401N001019999999N0100001N1-03531-03711102851ADDAY171031AY221031GF108991081001999999071999MD1810011+9999MW1701REMSYN066AAXX  07091 23933 41997 80401 11353 21371 40285 58001 77072 8807/;
0161239330999992000010712004+60970+069070FM-12+0040USHH V0200701N001019999999N0100001N1-03591-03741102861ADDAY171061AY221061GF108991001001999999001071MA1999999102171MD1310011+9999MW1221REMSYN072AAXX  07121 23933 41997 80701 11359 21374 30217 40286 53001 72272 80007;
0163239330999992000010715004+60970+069070FM-12+0040USHH V0200501N001019999999N0100001N1-03581-03741102831ADDAY171031AY221031GF108991081001999999021999KA1999M-03531MD1810031+9999MW1701REMSYN076AAXX  07151 23933 /1997 80501 11358 21374 40283 58003 77072 8802/ 333 11353;
0180239330999992000010718004+60970+069070FM-12+0040USHH V0200601N001019999999N0100001N1-03591-03741102791ADDAA100000791AY171061AY221061GF108991081001999999021999KA1999M-03531MD1710041+9999MW1711REMSYN082AAXX  07181 23933 11997 80601 11359 21374 40279 57004 69900 77172 8802/ 333 11353;
0140239330999992000010721004+60970+069070FM-12+0040USHH V0200901N001019999999N0500001N1-03551-03711102751ADDAY171031AY221031GF108991081001999999021999MD1710041+9999MW1711REMSYN066AAXX  07211 23933 41999 80901 11355 21371 40275 57004 77172 8802/;
0161239330999992000010800004+60970+069070FM-12+0040USHH V0200801N001019999999N0100001N1-03571-03741102711ADDAY171061AY221061GF108991081001999999021999MA1999999102021MD1710041+9999MW1711REMSYN072AAXX  08001 23933 41997 80801 11357 21374 30202 40271 57004 77172 8802/;
0179239330999992000010803004+60970+069070FM-12+0040USHH V0200901N001019999999N0100001N1-03671-03851102641ADDAJ100329199999999AY171031AY221031GF106991061001999999031001IA1239MD1710071+9999MW1021REMSYN082AAXX  08031 23933 /1997 60901 11367 21385 40264 57007 70272 86030 333 47032 55000;
0180239330999992000010806004+60970+069070FM-12+0040USHH V0200301N001019999999N0100001N1-03691-03851102611ADDAA100000891AY171061AY221061GF108991001001999999001081KA1999N-03671MD1710031+9999MW1701REMSYN082AAXX  08061 23933 11997 80301 11369 21385 40261 57003 69970 77072 80008 333 21367;
0140239330999992000010809004+60970+069070FM-12+0040USHH V0200301N002019999999N0100001N1-03751-03931102611ADDAY171031AY221031GF108991001001999999001081MD1410001+9999MW1701REMSYN066AAXX  08091 23933 41997 80302 11375 21393 40261 54000 77072 80008;
0171239330999992000010812004+60970+069070FM-12+0040USHH V0200401N001012200019N0100001N1-03811-03971102631ADDAY171061AY221061GA1001+999999999GF100991001001999999001001MA1999999101941MD1210021+9999MW1011REMSYN066AAXX  08121 23933 41997 00401 11381 21397 30194 40263 52002 70172;
0173239330999992000010815004+60970+069070FM-12+0040USHH V0209999C000012200019N0010001N1-04001-04151102651ADDAY101031AY201031GA1001+999999999GF100991001001999999001001KA1999M-03691MD1410001+9999MW1041REMSYN070AAXX  08151 23933 /1994 00000 11400 21415 40265 54000 70400 333 11369;
0190239330999992000010818004+60970+069070FM-12+0040USHH V0209999C000012200019N0010001N1-04111-04261102661ADDAA100000591AY101061AY201061GA1001+999999999GF100991001001999999001001KA1999M-03691MD1310011+9999MW1041REMSYN076AAXX  08181 23933 11994 00000 11411 21426 40266 53001 69960 70400 333 11369;
0150239330999992000010821004+60970+069070FM-12+0040USHH V0209999C000012200019N0010001N1-04181-04311102641ADDAY101031AY201031GA1001+999999999GF100991001001999999001001MD1810021+9999MW1041REMSYN060AAXX  08211 23933 41994 00000 11418 21431 40264 58002 70400;
0171239330999992000010900004+60970+069070FM-12+0040USHH V0209999C000012200019N0010001N1-04071-04201102671ADDAY101061AY201061GA1001+999999999GF100991001001999999001001MA1999999101961MD1310031+9999MW1041REMSYN066AAXX  09001 23933 41994 00000 11407 21420 30196 40267 53003 70400;
0219239330999992000010903004+60970+069070FM-12+0040USHH V0201201N001012200019N0010001N1-03841-04011102521ADDAA106000091AJ100329199999999AY101031AY201031GA1001+999999999GF100991001001999999001001IA1239MD1710101+9999MW1041REMSYN076AAXX  09031 23933 31994 01201 11384 21401 40252 57010 70400 333 47032 55000;EQDQ01  00002PRCP06
0140239330999992000010909004+60970+069070FM-12+0040USHH V0201401N002019999999N0100001N1-03621-03781102271ADDAY171031AY221031GF108991001001999999001081MD1710221+9999MW1021REMSYN066AAXX  09091 23933 41997 81402 11362 21378 40227 57022 70272 80008;
0161239330999992000010912004+60970+069070FM-12+0040USHH V0201201N002019999999N0100001N1-03401-03551101941ADDAY171061AY221061GF105991001001999999001011MA1999999101271MD1710311+9999MW1011REMSYN072AAXX  09121 23933 41997 51202 11340 21355 30127 40194 57031 70172 80001;
0163239330999992000010915004+60970+069070FM-12+0040USHH V0201401N003019999999N0040001N1-03051-03211101521ADDAY171031AY231031GF108991051001999999021071KA1999M-03051MD1710421+9999MW1711REMSYN076AAXX  09151 23933 /1996 81403 11305 21321 40152 57042 77173 85027 333 11305;
0199239330999992000010918004+60970+069070FM-12+0040USHH V0201401N004019999999N0040001N1-02701-02881101001ADDAA100001091AY171061AY231061GF108991081001999999021999KA1999M+99999MD1710501+9999MW1711REMSYN082AAXX  09181 23933 11996 81404 11270 21288 40100 57050 60010 77173 8802/ 333 11305;EQDQ01 -03052ATMX  
0140239330999992000010921004+60970+069070FM-12+0040USHH V0201201N003019999999N0020001N1-02331-02511100641ADDAY171031AY231031GF108991081001999999021999MD1710351+9999MW1711REMSYN066AAXX  09211 23933 41995 81203 11233 21251 40064 57035 77173 8802/;
0161239330999992000011000004+60970+069070FM-12+0040USHH V0201001N002019999999N0040001N1-01971-02091100451ADDAY171061AY231061GF108991081001999999021999MA1999999099811MD1710191+9999MW1711REMSYN072AAXX  10001 23933 41996 81002 11197 21209 39981 40045 57019 77173 8802/;
0179239330999992000011003004+60970+069070FM-12+0040USHH V0202101N002010300019N0040001N1-01561-01691100301ADDAJ100349199999999AY171031AY221031GF108991021071004501021999IA1239MD1710141+9999MW1711REMSYN082AAXX  10031 23933 /1496 82102 11156 21169 40030 57014 77172 8272/ 333 47034 55000;
0180239330999992000011006004+60970+069070FM-12+0040USHH V0202601N002019999999N0040001N1-01291-01421100261ADDAA100002091AY171061AY221061GF108991081001999999021999KA1999N-03051MD1710021+9999MW1711REMSYN082AAXX  10061 23933 11996 82602 11129 21142 40026 57002 60020 77172 8802/ 333 21305;
0140239330999992000011009004+60970+069070FM-12+0040USHH V0202601N002019999999N0100001N1-01161-01291100281ADDAY171031AY221031GF108991081001999999021999MD1310021+9999MW1711REMSYN066AAXX  10091 23933 41997 82602 11116 21129 40028 53002 77172 8802/;
0161239330999992000011012004+60970+069070FM-12+0040USHH V0202901N001019999999N0100001N1-01271-01401100331ADDAY171061AY221061GF108991081001999999021999MA1999999099721MD1210051+9999MW1711REMSYN072AAXX  10121 23933 41997 82901 11127 21140 39972 40033 52005 77172 8802/;
0163239330999992000011015004+60970+069070FM-12+0040USHH V0209999C000019999999N0100001N1-01241-01371100301ADDAY171031AY221031GF108991081001999999071999KA1999M-01161MD1810031+9999MW1701REMSYN076AAXX  10151 23933 /1997 80000 11124 21137 40030 58003 77072 8807/ 333 11116;
0199239330999992000011018004+60970+069070FM-12+0040USHH V0201101N001019999999N0100001N1-01091-01221100241ADDAA100001091AY171061AY221061GF108991081001999999021999KA1999M+99999MD1710061+9999MW1021REMSYN082AAXX  10181 23933 11997 81101 11109 21122 40024 57006 60010 70272 8802/ 333 11116;EQDQ01 -01162ATMX  
0140239330999992000011021004+60970+069070FM-12+0040USHH V0202301N001019999999N0100001N1-00321-00391100141ADDAY171031AY221031GF108991081001999999071999MD1710081+9999MW1711REMSYN066AAXX  10211 23933 41997 82301 11032 21039 40014 57008 77172 8807/;
0161239330999992000011100004+60970+069070FM-12+0040USHH V0202501N002010021019N0040001N1-00241-00271100111ADDAY171061AY221061GF108991081001002501021999MA1999999099521MD1710031+9999MW1711REMSYN072AAXX  11001 23933 41396 82502 11024 21027 39952 40011 57003 77172 8802/;
0179239330999992000011103004+60970+069070FM-12+0040USHH V0202401N002010021019N0040001N1-00281-00281100111ADDAJ100389199999999AY171031AY221031GF108991081001002501021999IA1239MD1410001+9999MW1711REMSYN082AAXX  11031 23933 /1396 82402 11028 21028 40011 54000 77172 8802/ 333 47038 55000;
0180239330999992000011106004+60970+069070FM-12+0040USHH V0202601N004019999999N0040001N1-00321-00391100191ADDAA100001091AY171061AY221061GF108991081001999999071999KA1999N-01241MD1310081+9999MW1711REMSYN082AAXX  11061 23933 11996 82604 11032 21039 40019 53008 69990 77172 8807/ 333 21124;
0140239330999992000011109004+60970+069070FM-12+0040USHH V0202901N003019999999N0100001N1-00311-00381100251ADDAY171031AY221031GF107991071001999999071001MD1210061+9999MW1701REMSYN066AAXX  11091 23933 41997 72903 11031 21038 40025 52006 77072 87070;
0161239330999992000011112004+60970+069070FM-12+0040USHH V0200201N001019999999N0100001N1-01021-01151100561ADDAY171061AY221061GF106991061001999999071001MA1999999099951MD1210291+9999MW1711REMSYN072AAXX  11121 23933 41997 60201 11102 21115 39995 40056 52029 77172 86070;
0163239330999992000011115004+60970+069070FM-12+0040USHH V0200301N001019999999N0040001N1-01451-01581100761ADDAY171031AY221031GF108991081001999999071999KA1999M-00281MD1210201+9999MW1711REMSYN076AAXX  11151 23933 /1996 80301 11145 21158 40076 52020 77172 8807/ 333 11028;
0180239330999992000011118004+60970+069070FM-12+0040USHH V0200601N001019999999N0100001N1-01911-02031100921ADDAA100001091AY171061AY221061GF108991081001999999021999KA1999M-00281MD1210141+9999MW1021REMSYN082AAXX  11181 23933 11997 80601 11191 21203 40092 52014 60010 70272 8802/ 333 11028;
0112239330999992000011121004+60970+069070FM-12+0040USHH V0200901N001012200019N0100001N1-02301-02421100981ADDGF103991001001999999001011MD1210061+9999REMSYN060AAXX  11211 23933 42997 30901 11230 21242 40098 52006 80001;
0161239330999992000011200004+60970+069070FM-12+0040USHH V0200301N001019999999N0100001N1-02341-02521101191ADDAY171061AY211061GF108991081001999999021999MA1999999100551MD1210201+9999MW1711REMSYN072AAXX  12001 23933 41997 80301 11234 21252 30055 40119 52020 77171 8802/;
0179239330999992000011203004+60970+069070FM-12+0040USHH V0200901N001019999999N0100001N1-02141-02331101071ADDAJ100409199999999AY171031AY221031GF108991081001999999021999IA1239MD1810121+9999MW1021REMSYN082AAXX  12031 23933 /1997 80901 11214 21233 40107 58012 70272 8802/ 333 47040 55000;
0180239330999992000011206004+60970+069070FM-12+0040USHH V0201101N001019999999N0100001N1-02111-02291101121ADDAA100000591AY171061AY221061GF108991081001999999021999KA1999N-02451MD1310051+9999MW1701REMSYN082AAXX  12061 23933 11997 81101 11211 21229 40112 53005 69940 77072 8802/ 333 21245;
0140239330999992000011209004+60970+069070FM-12+0040USHH V0200301N001019999999N0100001N1-01911-02101101101ADDAY171031AY221031GF108991081001999999021999MD1810011+9999MW1701REMSYN066AAXX  12091 23933 41997 80301 11191 21210 40110 58001 77072 8802/;
0161239330999992000011212004+60970+069070FM-12+0040USHH V0200101N001019999999N0100001N1-01991-02181101221ADDAY171061AY221061GF108991081001999999021999MA1999999100581MD1310111+9999MW1701REMSYN072AAXX  12121 23933 41997 80101 11199 21218 30058 40122 53011 77072 8802/;
0163239330999992000011215004+60970+069070FM-12+0040USHH V0200801N001019999999N0100001N1-02081-02261101231ADDAY171031AY221031GF108991081001999999021999KA1999M-01911MD1210011+9999MW1701REMSYN076AAXX  12151 23933 /1997 80801 11208 21226 40123 52001 77072 8802/ 333 11191;
0140239330999992000011221004+60970+069070FM-12+0040USHH V0200501N001019999999N0100001N1-02201-02381101361ADDAY171031AY221031GF108991081001999999021999MD1210071+9999MW1021REMSYN066AAXX  12211 23933 41997 80501 11220 21238 40136 52007 70272 8802/;
0161239330999992000011300004+60970+069070FM-12+0040USHH V0200601N001012200019N0100001N1-02401-02581101511ADDAY171061AY211061GF102991001001999999001011MA1999999100871MD1210151+9999MW1011REMSYN072AAXX  13001 23933 41997 20601 11240 21258 30087 40151 52015 70171 80001;
0151239330999992000011303004+60970+069070FM-12+0040USHH V0200701N002019999999N0100001N1-02601-02771101641ADDAJ100419199999999GF108991081001999999021999IA1239MD1210111+9999REMSYN076AAXX  13031 23933 /2997 80702 11260 21277 40164 52011 8802/ 333 47041 55000;
0171239330999992000011306004+60970+069070FM-12+0040USHH V0200601N001019999999N0100001N1-02841-03081101821ADDAA100000391GF108991031001999999031011KA1999N+99999MD1210181+9999REMSYN076AAXX  13061 23933 12997 80601 11284 21308 40182 52018 69930 83031 333 21261;EQDQ01 -02612ATMN  
0112239330999992000011309004+60970+069070FM-12+0040USHH V0200301N001012200019N0100001N1-03001-03171101841ADDGF103991001001999999001011MD1210011+9999REMSYN060AAXX  13091 23933 42997 30301 11300 21317 40184 52001 80001;
0161239330999992000011312004+60970+069070FM-12+0040USHH V0200901N001019999999N0100001N1-03051-03211101881ADDAY171061AY211061GF108991001001999999001071MA1999999101211MD1210041+9999MW1701REMSYN072AAXX  13121 23933 41997 80901 11305 21321 30121 40188 52004 77071 80007;
0163239330999992000011315004+60970+069070FM-12+0040USHH V0201401N002019999999N0040001N1-02741-02911101671ADDAY171031AY221031GF108991081001999999021999KA1999M-02601MD1810201+9999MW1711REMSYN076AAXX  13151 23933 /1996 81402 11274 21291 40167 58020 77172 8802/ 333 11260;
0199239330999992000011318004+60970+069070FM-12+0040USHH V0201201N002019999999N0040001N1-02411-02601101331ADDAA100000791AY171061AY221061GF108991081001999999021999KA1999M+99999MD1710321+9999MW1711REMSYN082AAXX  13181 23933 11996 81202 11241 21260 40133 57032 69900 77172 8802/ 333 11260;EQDQ01 -02602ATMX  
0184239330999992000011400004+60970+069070FM-12+004099999V0201401N004019999999N0040001N1-01551-01681100341ADDAY171061AY251061GF108991081001999999021999MA1999999099781MD1710502+9999MW1711REMSYN076    AAXX  14001 23933 41996 81404 11155 21168 39978 40034 57050 77175 8802/;EQDQ01+000502APC3  
0183239330999992000011403004+60970+069070FM-12+004099999V0201401N004019999999N0040001N1-01161-01291099891ADDAJ100409199999999AY171031AY231031GF108991081001999999021999IA1239MD1710481+9999MW1711REMSYN086    AAXX  14031 23933 /1996 81404 11116 21129 49989 57048 77173 8802/ 333 47040 55000;
0184239330999992000011406004+60970+069070FM-12+004099999V0201201N003019999999N0040001N1-00901-01061099631ADDAA100001091AY171061AY231061GF108991081001999999021999KA1999N-02741MD1710251+9999MW1711REMSYN086    AAXX  14061 23933 11996 81203 11090 21106 49963 57025 60010 77173 8802/ 333 21274;
0144239330999992000011409004+60970+069070FM-12+004099999V0201101N002019999999N0040001N1-00631-00781099471ADDAY171031AY231031GF108991081001999999021999MD1710161+9999MW1711REMSYN070    AAXX  14091 23933 41996 81102 11063 21078 49947 57016 77173 8802/;
0165239330999992000011412004+60970+069070FM-12+004099999V0203301N003019999999N0020001N1-01221-01351099681ADDAY171061AY231061GF108991081001999999021999MA1999999099071MD1310201+9999MW1711REMSYN076    AAXX  14121 23933 41995 83303 11122 21135 39907 49968 53020 77173 8802/;
0167239330999992000011415004+60970+069070FM-12+004099999V0203201N004019999999N0040001N1-02031-02281100101ADDAY171031AY231031GF108991081001999999021999KA1999M-00591MD1210391+9999MW1711REMSYN080    AAXX  14151 23933 /1996 83204 11203 21228 40010 52039 77173 8802/ 333 11059;
0184239330999992000011418004+60970+069070FM-12+004099999V0203401N003019999999N0040001N1-02401-02651100391ADDAA100005191AY171061AY231061GF108991081001999999071999KA1999M-00591MD1210291+9999MW1711REMSYN086    AAXX  14181 23933 11996 83403 11240 21265 40039 52029 60050 77173 8807/ 333 11059;
0144239330999992000011421004+60970+069070FM-12+004099999V0203201N003019999999N0040001N1-02751-02991100671ADDAY171031AY231031GF108991081001999999071999MD1210271+9999MW1711REMSYN070    AAXX  14211 23933 41996 83203 11275 21299 40067 52027 77173 8807/;
0165239330999992000011500004+60970+069070FM-12+004099999V0203201N003019999999N0040001N1-02691-02931100841ADDAY171061AY231061GF108991081001999999021999MA1999999100191MD1210171+9999MW1711REMSYN076    AAXX  15001 23933 41996 83203 11269 21293 30019 40084 52017 77173 8802/;
0193239330999992000011503004+60970+069070FM-12+004099999V0203301N004012200019N0100001N1-02801-03041101151ADDAJ100439199999999AY131031AY231031GA1001+999999999GF100991001001999999001001IA1239MD1210301+9999MW1381REMSYN080    AAXX  15031 23933 /1997 03304 11280 21304 40115 52030 73833 333 47043 55000;
0213239330999992000011506004+60970+069070FM-12+004099999V0203101N003012200019N0100001N1-02871-03051101531ADDAA100000591AY171061AY231061GA1001+999999999GF100991001001999999001001KA1999N+99999MD1210381+9999MW1021REMSYN080    AAXX  15061 23933 11997 03103 11287 21305 40153 52038 69940 70273 333 21281;EQDQ01 -02812ATMN  
0126239330999992000011509004+60970+069070FM-12+004099999V0203201N003012200019N0100001N1-02811-03041101771ADDGA1001+999999999GF100991001001999999001001MD1210241+9999REMSYN058    AAXX  15091 23933 42997 03203 11281 21304 40177 52024;
0157239330999992000011512004+60970+069070FM-12+004099999V0203001N002012200019N0100001N1-02991-03171102121ADDGA1001+999999999GF100991001001999999001001MA1999999101441MD1210331+9999REMSYN074    AAXX  15121 23933 42997 03002 11299 21317 30144 40212 52033 333 1/132;
0179239330999992000011515004+60970+069070FM-12+004099999V0202901N002012200019N0100001N1-03301-03531102321ADDAA199000091GA1001+999999999GF100991001001999999001001KA1999M-02791MD1210201+9999REMSYN068    AAXX  15151 23933 32997 02902 11330 21353 40232 52020 333 11279;EQDQ01  00002PRCP99
0179239330999992000011518004+60970+069070FM-12+004099999V0203001N002012200019N0100001N1-03331-03561102441ADDAA199000091GA1001+999999999GF100991001001999999001001KA1999M-02791MD1210121+9999REMSYN068    AAXX  15181 23933 32997 03002 11333 21356 40244 52012 333 11279;EQDQ01  00002PRCP99
0126239330999992000011521004+60970+069070FM-12+004099999V0202901N001012200019N0100001N1-03351-03591102521ADDGA1001+999999999GF100991001001999999001001MD1210081+9999REMSYN058    AAXX  15211 23933 42997 02901 11335 21359 40252 52008;
0126239330999992000011600004+60970+069070FM-12+004099999V0209999C000012200019N0100001N1-03661-03871102531ADDGA1001+999999999GF100991001001999999001001MD1410001+9999REMSYN058    AAXX  16001 23933 42997 00000 11366 21387 40253 54000;
0195239330999992000011603004+60970+069070FM-12+004099999V0209999C000012200019N0100001N1-03841-04071102461ADDAA199000091AJ100439199999999GA1001+999999999GF100991001001999999001001IA1239MD1810071+9999REMSYN074    AAXX  16031 23933 32997 00000 11384 21407 40246 58007 333 47043 55021;EQDQ01  00002PRCP99
0169239330999992000011606004+60970+069070FM-12+004099999V0201201N002019999999N0100001N1-03601-03841102301ADDAA199000091GF105991001001999999001011KA1999N-03851MD1710161+9999REMSYN074    AAXX  16061 23933 32997 51202 11360 21384 40230 57016 80001 333 21385;EQDQ01  00002PRCP99
0144239330999992000011609004+60970+069070FM-12+004099999V0201401N003019999999N0100001N1-03001-03231101961ADDAY171031AY221031GF108991001001999999001061MD1710311+9999MW1701REMSYN070    AAXX  16091 23933 41997 81403 11300 21323 40196 57031 77072 80006;
0165239330999992000011612004+60970+069070FM-12+004099999V0201501N002019999999N0040001N1-02401-02581101761ADDAY171061AY221061GF108991081001999999021999MA1999999101121MD1710181+9999MW1711REMSYN076    AAXX  16121 23933 41996 81502 11240 21258 30112 40176 57018 77172 8802/;
0167239330999992000011615004+60970+069070FM-12+004099999V0201201N002019999999N0040001N1-02231-02411101621ADDAY171031AY221031GF108991081001999999021999KA1999M-02231MD1710141+9999MW1711REMSYN080    AAXX  16151 23933 /1996 81202 11223 21241 40162 57014 77172 8802/ 333 11223;
0203239330999992000011618004+60970+069070FM-12+004099999V0201201N002019999999N0040001N1-01981-02171101421ADDAA100000591AY171061AY221061GF108991081001999999021999KA1999M+99999MD1710201+9999MW1711REMSYN086    AAXX  16181 23933 11996 81202 11198 21217 40142 57020 69940 77172 8802/ 333 11223;EQDQ01 -02232ATMX  
0144239330999992000011621004+60970+069070FM-12+004099999V0201201N001019999999N0040001N1-01791-01981101181ADDAY171031AY221031GF108991081001999999021999MD1710231+9999MW1711REMSYN070    AAXX  16211 23933 41996 81201 11179 21198 40118 57023 77172 8802/;
0184239330999992000011700004+60970+069070FM-12+004099999V0200301N003012200019N0040001N1-01521-01651101001ADDAY171061AY221061GF101991999001999999021999MA1999999100371MD1710181+9999MW1711REMSYN076    AAXX  17001 23933 41996 10303 11152 21165 30037 40100 57018 77172 8802/;EQDQ01+000082SCOTLC
0183239330999992000011703004+60970+069070FM-12+004099999V0200201N003019999999N0040001N1-01281-01411100771ADDAJ100439199999999AY171031AY231031GF108991081001999999021999IA1239MD1710211+9999MW1711REMSYN086    AAXX  17031 23933 /1996 80203 11128 21141 40077 57021 77173 8802/ 333 47043 55000;
0184239330999992000011706004+60970+069070FM-12+004099999V0203001N003019999999N0040001N1-01211-01341100641ADDAA100001091AY171061AY231061GF108991081001999999021999KA1999N-02231MD1710131+9999MW1711REMSYN086    AAXX  17061 23933 11996 83003 11121 21134 40064 57013 60010 77173 8802/ 333 21223;
0144239330999992000011709004+60970+069070FM-12+004099999V0202401N003019999999N0040001N1-01101-01231100541ADDAY171031AY231031GF108991081001999999021999MD1710101+9999MW1711REMSYN070    AAXX  17091 23933 41996 82403 11110 21123 40054 57010 77173 8802/;
0165239330999992000011712004+60970+069070FM-12+004099999V0202101N004019999999N0040001N1-01071-01201100541ADDAY171061AY231061GF108991051001999999021071MA1999999099931MD1410001+9999MW1711REMSYN076    AAXX  17121 23933 41996 82104 11107 21120 39993 40054 54000 77173 85027;
0167239330999992000011715004+60970+069070FM-12+004099999V0202101N004019999999N0100001N1-01041-01171100631ADDAY171031AY231031GF108991081001999999021999KA1999M-01041MD1310091+9999MW1711REMSYN080    AAXX  17151 23933 /1997 82104 11104 21117 40063 53009 77173 8802/ 333 11104;
0184239330999992000011718004+60970+069070FM-12+004099999V0202401N003019999999N0100001N1-01071-01201100671ADDAA100001091AY171061AY231061GF108991081001999999071999KA1999M-01041MD1210041+9999MW1711REMSYN086    AAXX  17181 23933 11997 82403 11107 21120 40067 52004 60010 77173 8807/ 333 11104;
0144239330999992000011721004+60970+069070FM-12+004099999V0202201N003010075019N0100001N1-01141-01271100721ADDAY171031AY231031GF108991061051008001021999MD1210051+9999MW1711REMSYN070    AAXX  17211 23933 41597 82203 11114 21127 40072 52005 77173 8652/;
0165239330999992000011800004+60970+069070FM-12+004099999V0202401N001010075019N0100001N1-01221-01351100771ADDAY171061AY231061GF108991051051008001031999MA1999999100161MD1210051+9999MW1021REMSYN076    AAXX  18001 23933 41597 82401 11122 21135 30016 40077 52005 70273 8553/;
0183239330999992000011803004+60970+069070FM-12+004099999V0202001N001019999999N0040001N1-01271-01401100841ADDAJ100439199999999AY171031AY221031GF108991081001999999071999IA1239MD1210071+9999MW1711REMSYN086    AAXX  18031 23933 /1996 82001 11127 21140 40084 52007 77172 8807/ 333 47043 55000;
0203239330999992000011806004+60970+069070FM-12+004099999V0202201N001019999999N0100001N1-01541-01811100941ADDAA100000191AY171061AY221061GF108991081001999999071999KA1999N+99999MD1210081+9999MW1711REMSYN086    AAXX  18061 23933 11997 82201 11154 21181 40094 52008 69920 77172 8807/ 333 21127;EQDQ01 -01272ATMN  
0144239330999992000011809004+60970+069070FM-12+004099999V0201501N002019999999N0100001N1-01691-01881100971ADDAY171031AY221031GF108991001001999999001091MD1210031+9999MW1021REMSYN070    AAXX  18091 23933 41997 81502 11169 21188 40097 52003 70272 80009;
0165239330999992000011812004+60970+069070FM-12+004099999V0200801N002019999999N0100001N1-01801-01991101061ADDAY171061AY221061GF108991021001999999031071MA1999999100431MD1210091+9999MW1021REMSYN076    AAXX  18121 23933 41997 80802 11180 21199 30043 40106 52009 70272 82037;
0139239330999992000011815004+60970+069070FM-12+004099999V0201201N001019999999N0100001N1-01771-01961101061ADDGF107991071001999999031001KA1999M-01541MD1410001+9999REMSYN074    AAXX  18151 23933 12997 71201 11177 21196 40106 54000 87030 333 11154;
0156239330999992000011818004+60970+069070FM-12+004099999V0201201N001019999999N0100001N1-01621-01811101141ADDAA100000791GF108991081001999999021999KA1999M-01541MD1210081+9999REMSYN080    AAXX  18181 23933 12997 81201 11162 21181 40114 52008 69900 8802/ 333 11154;
0116239330999992000011821004+60970+069070FM-12+004099999V0201301N001019999999N0100001N1-01401-01601101171ADDGF108991081001999999071999MD1210041+9999REMSYN064    AAXX  18211 23933 42997 81301 11140 21160 40117 52004 8807/;
0137239330999992000011900004+60970+069070FM-12+004099999V0202201N001019999999N0100001N1-01341-01541101241ADDGF108991081001999999021999MA1999999100621MD1210071+9999REMSYN070    AAXX  19001 23933 42997 82201 11134 21154 30062 40124 52007 8802/;
0185239330999992000011903004+60970+069070FM-12+004099999V0202201N001010075019N0100001N1-01401-01601101331ADDAA199000091AJ100439199999999GF107991071051008001001001IA1239MD1210091+9999REMSYN080    AAXX  19031 23933 32597 72201 11140 21160 40133 52009 87500 333 47043 55000;EQDQ01  00002PRCP99
0169239330999992000011906004+60970+069070FM-12+004099999V0202201N001010075019N0100001N1-01501-01631101451ADDAA199000091GF107991071051008001001001KA1999N-01771MD1210111+9999REMSYN074    AAXX  19061 23933 32597 72201 11150 21163 40145 52011 87500 333 21177;EQDQ01  00002PRCP99
0116239330999992000011909004+60970+069070FM-12+004099999V0201401N001019999999N0100001N1-01371-01501101551ADDGF107991071001999999051001MD1210111+9999REMSYN064    AAXX  19091 23933 42997 71401 11137 21150 40155 52011 87050;
0137239330999992000011912004+60970+069070FM-12+004099999V0201201N001019999999N0100001N1-01421-01551101721ADDGF105991001001999999001011MA1999999101101MD1210171+9999REMSYN070    AAXX  19121 23933 42997 51201 11142 21155 30110 40172 52017 80001;
0165239330999992000011915004+60970+069070FM-12+0040USHH V0201001N003012200019N0100001N1-01661-01791101731ADDAA199000091GF103991001001999999001011KA1999M-01371MD1410001+9999REMSYN070AAXX  19151 23933 32997 31003 11166 21179 40173 54000 80001 333 11137;EQDQ01  00002PRCP99
0175239330999992000011918004+60970+069070FM-12+0040USHH V0201001N002012200019N0100001N1-01541-01671101851ADDAA199000091GA1001+999999999GF100991001001999999001001KA1999M-01371MD1210121+9999REMSYN064AAXX  19181 23933 32997 01002 11154 21167 40185 52012 333 11137;EQDQ01  00002PRCP99
0122239330999992000011921004+60970+069070FM-12+0040USHH V0202401N002012200019N0100001N1-01641-01771101891ADDGA1001+999999999GF100991001001999999001001MD1210041+9999REMSYN054AAXX  19211 23933 42997 02402 11164 21177 40189 52004;
0193239330999992000012000004+60970+069070FM-12+0040USHH V0201201N004019999999N0020001N1-00831-01021999999ADDAA199000021AY171061AY231061GF108991081001999999021999KA1999N-00991MD1310121+9999MW1711REMSYN076AAXX  10601 23933 31995 81204 11083 21102 40080 53012 77173 8802/ 333 21099;EQDQ01+100803APOSLP
0172239330999992000012003004+60970+069070FM-12+0040USHH V0201101N002012200019N0100001N1-01781-01901101831ADDAA199000021AJ100439199999999GA1001+999999999GF100991001001999999001001IA1239MD1810071+9999REMSYN070AAXX  20031 23933 32997 01102 11178 21190 40183 58007 333 47043 55000;
0146239330999992000012006004+60970+069070FM-12+0040USHH V0201401N004019999999N0100001N1-01491-01621101771ADDAA199000021GF108991081001999999021999KA1999N-01821MD1710061+9999REMSYN070AAXX  20061 23933 32997 81404 11149 21162 40177 57006 8802/ 333 21182;
0112239330999992000012009004+60970+069070FM-12+0040USHH V0201301N004019999999N0100001N1-01321-01451101701ADDGF108991081001999999021999MD1710061+9999REMSYN060AAXX  20091 23933 42997 81304 11132 21145 40170 57006 8802/;
0133239330999992000012012004+60970+069070FM-12+0040USHH V0201501N004019999999N0100001N1-01101-01231101561ADDGF108991081001999999021999MA1999999100941MD1710141+9999REMSYN066AAXX  20121 23933 42997 81504 11110 21123 30094 40156 57014 8802/;
0193239330999992000012015004+60970+069070FM-12+0040USHH V0201401N005019999999N0100001N1-00991-01161101311ADDAA199000091AY131031AY221031GF108991001001999999001071KA1999M-00991MD1710251+9999MW1361REMSYN076AAXX  20151 23933 31997 81405 11099 21116 40131 57025 73632 80007 333 11099;EQDQ01  00002PRCP99
0209239330999992000012018004+60970+069070FM-12+0040USHH V0201501N005019999999N0100001N1-00921-01081101141ADDAA199000091AY131061AY221061GF108991001001999999001071KA1999M+99999MD1710161+9999MW1361REMSYN076AAXX  20181 23933 31997 81505 11092 21108 40114 57016 73632 80007 333 11099;EQDQ01  00002PRCP99Q02 -00992ATMX  
0140239330999992000012021004+60970+069070FM-12+0040USHH V0201401N005019999999N0100001N1-00871-01061100961ADDAY131031AY221031GF106991001001999999001011MD1710171+9999MW1361REMSYN066AAXX  20211 23933 41997 61405 11087 21106 40096 57017 73632 80001;
0161239330999992000012100004+60970+069070FM-12+0040USHH V0201301N006019999999N0100001N1-00871-01111100751ADDAY131061AY221061GF108991001001999999001081MA1999999100151MD1710211+9999MW1361REMSYN072AAXX  21001 23933 41997 81306 11087 21111 30015 40075 57021 73632 80008;
0209239330999992000012103004+60970+069070FM-12+0040USHH V0201401N005019999999N0100001N1-00891-01121100681ADDAA199000091AJ100399199999999AY131031AY221031GF108991001001999999001081IA1239MD1710071+9999MW1361REMSYN082AAXX  21031 23933 31997 81405 11089 21112 40068 57007 73632 80008 333 47039 55000;EQDQ01  00002PRCP99
0140239330999992000012109004+60970+069070FM-12+0040USHH V0200401N003019999999N0040001N1-00871-01061101101ADDAY171031AY231031GF108991041001999999021071MD1210291+9999MW1711REMSYN066AAXX  21091 23933 41996 80403 11087 21106 40110 52029 77173 84027;
0161239330999992000012112004+60970+069070FM-12+0040USHH V0201201N003019999999N0100001N1-00901-01061101471ADDAY171061AY231061GF108991021001999999021071MA1999999100861MD1210371+9999MW1361REMSYN072AAXX  21121 23933 41997 81203 11090 21106 30086 40147 52037 73673 82027;
0163239330999992000012115004+60970+069070FM-12+0040USHH V0201001N003019999999N0100001N1-00951-01111101671ADDAY131031AY221031GF108991001001999999001071KA1999M-00831MD1210201+9999MW1361REMSYN076AAXX  21151 23933 /1997 81003 11095 21111 40167 52020 73632 80007 333 11083;
0180239330999992000012118004+60970+069070FM-12+0040USHH V0201501N004019999999N0100001N1-00871-01021101721ADDAA100000591AY131061AY221061GF108991081001999999021999KA1999M-00831MD1210051+9999MW1361REMSYN082AAXX  21181 23933 11997 81504 11087 21102 40172 52005 69960 73632 8802/ 333 11083;
0161239330999992000012200004+60970+069070FM-12+0040USHH V0201301N004019999999N0100001N1-00861-01051101581ADDAY131061AY221061GF108991081001999999021999MA1999999100971MD1810151+9999MW1361REMSYN072AAXX  22001 23933 41997 81304 11086 21105 30097 40158 58015 73632 8802/;
0179239330999992000012203004+60970+069070FM-12+0040USHH V0201301N005019999999N0100001N1-00911-01111101391ADDAJ100389199999999AY131031AY221031GF108991051001999999021071IA1239MD1710191+9999MW1361REMSYN082AAXX  22031 23933 /1997 81305 11091 21111 40139 57019 73632 85027 333 47038 55000;
0163239330999992000012206004+60970+069070FM-12+0040USHH V0201401N004019999999N0040001N1-00911-01061101421ADDAY171061AY231061GF108991081001999999021999KA1999N-00991MD1310031+9999MW1711REMSYN076AAXX  22061 23933 11996 81404 11091 21106 40142 53003 77173 8802/ 333 21099;
0140239330999992000012209004+60970+069070FM-12+0040USHH V0201301N003019999999N0040001N1-00731-00901101511ADDAY171031AY231031GF108991081001999999021999MD1210111+9999MW1711REMSYN066AAXX  22091 23933 41996 81303 11073 21090 40151 52011 77173 8802/;
0161239330999992000012212004+60970+069070FM-12+0040USHH V0201201N002019999999N0040001N1-00681-00801101511ADDAY171061AY231061GF108991081001999999021999MA1999999100901MD1410001+9999MW1711REMSYN072AAXX  22121 23933 41996 81202 11068 21080 30090 40151 54000 77173 8802/;
0163239330999992000012215004+60970+069070FM-12+0040USHH V0201401N003019999999N0040001N1-00601-00791101471ADDAY171031AY231031GF108991081001999999021999KA1999M-00591MD1810041+9999MW1711REMSYN076AAXX  22151 23933 /1996 81403 11060 21079 40147 58004 77173 8802/ 333 11059;
0180239330999992000012218004+60970+069070FM-12+0040USHH V0201401N003019999999N0040001N1-00601-00751101521ADDAA100000591AY171061AY231061GF108991081001999999021999KA1999M-00591MD1310051+9999MW1711REMSYN082AAXX  22181 23933 11996 81403 11060 21075 40152 53005 69950 77173 8802/ 333 11059;
0140239330999992000012221004+60970+069070FM-12+0040USHH V0201401N003019999999N0040001N1-00631-00781101601ADDAY171031AY221031GF108991081001999999021999MD1210081+9999MW1711REMSYN066AAXX  22211 23933 41996 81403 11063 21078 40160 52008 77172 8802/;
0161239330999992000012300004+60970+069070FM-12+0040USHH V0201401N003019999999N0010001N1-00671-00791101701ADDAY171061AY221061GF108991081001999999021999MA1999999101091MD1210101+9999MW1751REMSYN072AAXX  23001 23933 41994 81403 11067 21079 30109 40170 52010 77572 8802/;
0179239330999992000012303004+60970+069070FM-12+0040USHH V0201401N001019999999N0100001N1-00761-00941101701ADDAJ100439199999999AY171031AY221031GF108991031001999999031071IA1239MD1410001+9999MW1021REMSYN082AAXX  23031 23933 /1997 81401 11076 21094 40170 54000 70272 83037 333 47043 55000;
0199239330999992000012306004+60970+069070FM-12+0040USHH V0201301N002019999999N0100001N1-00831-01061101741ADDAA100004191AY171061AY221061GF108991081001999999071999KA1999N+99999MD1210041+9999MW1021REMSYN082AAXX  23061 23933 11997 81302 11083 21106 40174 52004 60040 70272 8807/ 333 21076;EQDQ01 -00762ATMN  
0112239330999992000012309004+60970+069070FM-12+0040USHH V0201401N001019999999N0100001N1-00671-00951101691ADDGF108991081001999999071999MD1810051+9999REMSYN060AAXX  23091 23933 42997 81401 11067 21095 40169 58005 8807/;
0133239330999992000012312004+60970+069070FM-12+0040USHH V0201201N003019999999N0100001N1-00751-01051101661ADDGF108991081001999999071999MA1999999101051MD1710031+9999REMSYN066AAXX  23121 23933 42997 81203 11075 21105 30105 40166 57003 8807/;
0165239330999992000012315004+60970+069070FM-12+0040USHH V0201301N003019999999N0100001N1-00781-01091101581ADDAA199000091GF108991081001999999021999KA1999M-00671MD1710081+9999REMSYN070AAXX  23151 23933 32997 81303 11078 21109 40158 57008 8802/ 333 11067;EQDQ01  00002PRCP99
0174239330999992000012318004+60970+069070FM-12+0040USHH V0201301N003019999999N0100001N1-00901-01191101571ADDAA199000021AY171061AY221061GF108991081001999999071999KA1999M-00671MD1710011+9999MW1711REMSYN076AAXX  23181 23933 31997 81303 11090 21119 40157 57001 77172 8807/ 333 11067;
0140239330999992000012321004+60970+069070FM-12+0040USHH V0201401N003019999999N0100001N1-00921-01081101561ADDAY171031AY221031GF108991081001999999071999MD1710011+9999MW1711REMSYN066AAXX  23211 23933 41997 81403 11092 21108 40156 57001 77172 8807/;
0161239330999992000012400004+60970+069070FM-12+0040USHH V0201401N003010075019N0100001N1-00851-01001101511ADDAY171061AY221061GF108991051051008001011999MA1999999100901MD1710051+9999MW1701REMSYN072AAXX  24001 23933 41597 81403 11085 21100 30090 40151 57005 77072 8551/;
0179239330999992000012403004+60970+069070FM-12+0040USHH V0201301N003019999999N0100001N1-00981-01101101451ADDAJ100439199999999AY171031AY221031GF108991081001999999011999IA1239MD1710071+9999MW1701REMSYN082AAXX  24031 23933 /1997 81303 11098 21110 40145 57007 77072 8801/ 333 47043 55000;
0199239330999992000012406004+60970+069070FM-12+0040USHH V0201301N002019999999N0100001N1-01161-01291101401ADDAA100000391AY171061AY221061GF108991081001999999071999KA1999N+99999MD1710051+9999MW1701REMSYN082AAXX  24061 23933 11997 81302 11116 21129 40140 57005 69930 77072 8807/ 333 21098;EQDQ01 -00982ATMN  
0140239330999992000012409004+60970+069070FM-12+0040USHH V0201401N002019999999N0040001N1-01201-01331101311ADDAY171031AY221031GF108991081001999999021999MD1710091+9999MW1711REMSYN066AAXX  24091 23933 41996 81402 11120 21133 40131 57009 77172 8802/;
0161239330999992000012412004+60970+069070FM-12+0040USHH V0201101N002019999999N0040001N1-01291-01421101271ADDAY171061AY221061GF108991081001999999021999MA1999999100651MD1710041+9999MW1711REMSYN072AAXX  24121 23933 41996 81102 11129 21142 30065 40127 57004 77172 8802/;
0163239330999992000012415004+60970+069070FM-12+0040USHH V0201301N002019999999N0040001N1-01391-01521101261ADDAY171031AY221031GF108991081001999999021999KA1999M-00981MD1710011+9999MW1711REMSYN076AAXX  24151 23933 /1996 81302 11139 21152 40126 57001 77172 8802/ 333 11098;
0180239330999992000012418004+60970+069070FM-12+0040USHH V0201401N002019999999N0040001N1-01461-01591101211ADDAA100002091AY171061AY221061GF108991081001999999011999KA1999M-00981MD1710051+9999MW1711REMSYN082AAXX  24181 23933 11996 81402 11146 21159 40121 57005 60020 77172 8801/ 333 11098;
0140239330999992000012421004+60970+069070FM-12+0040USHH V0201301N001019999999N0040001N1-01511-01631101201ADDAY171031AY221031GF108991081001999999011999MD1710011+9999MW1711REMSYN066AAXX  24211 23933 41996 81301 11151 21163 40120 57001 77172 8801/;
0161239330999992000012500004+60970+069070FM-12+0040USHH V0202101N002019999999N0040001N1-01471-01601101201ADDAY171061AY221061GF108991081001999999011999MA1999999100571MD1310031+9999MW1711REMSYN072AAXX  25001 23933 41996 82102 11147 21160 30057 40120 53003 77172 8801/;
0179239330999992000012503004+60970+069070FM-12+0040USHH V0202101N001019999999N0040001N1-01571-01701101201ADDAJ100449199999999AY171031AY221031GF108991081001999999071999IA1239MD1410001+9999MW1711REMSYN082AAXX  25031 23933 /1996 82101 11157 21170 40120 54000 77172 8807/ 333 47044 55000;
0199239330999992000012506004+60970+069070FM-12+0040USHH V0201501N001019999999N0040001N1-01741-01861101251ADDAA100000591AY171061AY221061GF108991041001999999011071KA1999N+99999MD1310051+9999MW1711REMSYN082AAXX  25061 23933 11996 81501 11174 21186 40125 53005 69960 77172 84017 333 21158;EQDQ01 -01582ATMN  
0140239330999992000012509004+60970+069070FM-12+0040USHH V0202101N002019999999N0100001N1-01811-01931101361ADDAY171031AY221031GF108991021001999999011071MD1210111+9999MW1701REMSYN066AAXX  25091 23933 41997 82102 11181 21193 40136 52011 77072 82017;
0161239330999992000012512004+60970+069070FM-12+0040USHH V0202101N003019999999N0100001N1-01731-01851101521ADDAY171061AY221061GF108991031001999999011071MA1999999100891MD1210161+9999MW1701REMSYN072AAXX  25121 23933 41997 82103 11173 21185 30089 40152 52016 77072 83017;
0163239330999992000012515004+60970+069070FM-12+0040USHH V0202101N004019999999N0040001N1-01551-01681101671ADDAY171031AY231031GF108991081001999999021999KA1999M-01551MD1210151+9999MW1711REMSYN076AAXX  25151 23933 /1996 82104 11155 21168 40167 52015 77173 8802/ 333 11155;
0180239330999992000012518004+60970+069070FM-12+0040USHH V0202301N004019999999N0040001N1-01651-01781101861ADDAA100000191AY171061AY231061GF108991081001999999021999KA1999M-01551MD1210191+9999MW1711REMSYN082AAXX  25181 23933 11996 82304 11165 21178 40186 52019 69920 77173 8802/ 333 11155;
0140239330999992000012521004+60970+069070FM-12+0040USHH V0202401N004019999999N0100001N1-01781-01901102121ADDAY171031AY231031GF108991051001999999021071MD1210251+9999MW1701REMSYN066AAXX  25211 23933 41997 82404 11178 21190 40212 52025 77073 85027;
0161239330999992000012600004+60970+069070FM-12+0040USHH V0202401N004019999999N0100001N1-01911-02101102381ADDAY171061AY231061GF108991001001999999001071MA1999999101741MD1210261+9999MW1361REMSYN072AAXX  26001 23933 41997 82404 11191 21210 30174 40238 52026 73673 80007;
0179239330999992000012603004+60970+069070FM-12+0040USHH V0202401N004019999999N0100001N1-02011-02201102661ADDAJ100439199999999AY131031AY221031GF108991001001999999001081IA1239MD1210271+9999MW1011REMSYN082AAXX  26031 23933 /1997 82404 11201 21220 40266 52027 70132 80008 333 47043 55000;
0171239330999992000012606004+60970+069070FM-12+0040USHH V0202301N003019999999N0100001N1-02141-02331102911ADDAA100000191GF108991001001999999001081KA1999N+99999MD1210251+9999REMSYN076AAXX  26061 23933 12997 82303 11214 21233 40291 52025 69920 80008 333 21204;EQDQ01 -02042ATMN  
0112239330999992000012609004+60970+069070FM-12+0040USHH V0201301N001019999999N0100001N1-01911-02171103041ADDGF107991001001999999001011MD1210141+9999REMSYN060AAXX  26091 23933 42997 71301 11191 21217 40304 52014 80001;
0133239330999992000012612004+60970+069070FM-12+0040USHH V0201301N002019999999N0100001N1-01971-02161103081ADDGF108991081001999999021999MA1999999102421MD1210021+9999REMSYN066AAXX  26121 23933 42997 81302 11197 21216 30242 40308 52002 8802/;
0165239330999992000012615004+60970+069070FM-12+0040USHH V0200301N003019999999N0100001N1-01671-01861102851ADDAA199000091GF105991001001999999001011KA1999M-01671MD1810211+9999REMSYN070AAXX  26151 23933 32997 50303 11167 21186 40285 58021 80001 333 11167;EQDQ01  00002PRCP99
0209239330999992000012618004+60970+069070FM-12+0040USHH V0200201N004019999999N0100001N1-01331-01601102641ADDAA199000091AY131061AY221061GF108991081001999999071999KA1999M+99999MD1710201+9999MW1361REMSYN076AAXX  26181 23933 31997 80204 11133 21160 40264 57020 73632 8807/ 333 11167;EQDQ01  00002PRCP99Q02 -01672ATMX  
0140239330999992000012621004+60970+069070FM-12+0040USHH V0200101N004019999999N0100001N1-01401-01671102411ADDAY131031AY221031GF108991001001999999001071MD1710231+9999MW1361REMSYN066AAXX  26211 23933 41997 80104 11140 21167 40241 57023 73632 80007;
0161239330999992000012700004+60970+069070FM-12+0040USHH V0200601N003019999999N0100001N1-01411-01681102261ADDAY131061AY221061GF108991001001999999001071MA1999999101631MD1710151+9999MW1361REMSYN072AAXX  27001 23933 41997 80603 11141 21168 30163 40226 57015 73632 80007;
0209239330999992000012703004+60970+069070FM-12+0040USHH V0200901N004019999999N0100001N1-01231-01431102031ADDAA199000091AJ100449199999999AY131031AY221031GF108991021001999999031071IA1239MD1710231+9999MW1361REMSYN082AAXX  27031 23933 31997 80904 11123 21143 40203 57023 73632 82037 333 47044 55000;EQDQ01  00002PRCP99
0193239330999992000012706004+60970+069070FM-12+0040USHH V0200901N003019999999N0100001N1-01201-01401101941ADDAA199000091AY131061AY221061GF108991031001999999031081KA1999N-01681MD1710081+9999MW1361REMSYN076AAXX  27061 23933 31997 80903 11120 21140 40194 57008 73632 83038 333 21168;EQDQ01  00002PRCP99
0140239330999992000012709004+60970+069070FM-12+0040USHH V0201201N002019999999N0100001N1-01211-01411101751ADDAY131031AY221031GF108991011001999999031081MD1710191+9999MW1361REMSYN066AAXX  27091 23933 41997 81202 11121 21141 40175 57019 73632 81038;
0161239330999992000012712004+60970+069070FM-12+0040USHH V0200701N003019999999N0100001N1-01031-01231101601ADDAY131061AY221061GF108991081001999999011999MA1999999100981MD1710151+9999MW1361REMSYN072AAXX  27121 23933 41997 80703 11103 21123 30098 40160 57015 73632 8801/;
0163239330999992000012715004+60970+069070FM-12+0040USHH V0203001N003019999999N0040001N1-00851-01081101471ADDAY171031AY231031GF108991081001999999021999KA1999M-00841MD1710121+9999MW1711REMSYN076AAXX  27151 23933 /1996 83003 11085 21108 40147 57012 77173 8802/ 333 11084;
0199239330999992000012718004+60970+069070FM-12+0040USHH V0203101N002019999999N0040001N1-00761-00941101421ADDAA100000791AY171061AY231061GF108991081001999999021999KA1999M+99999MD1710051+9999MW1711REMSYN082AAXX  27181 23933 11996 83102 11076 21094 40142 57005 69900 77173 8802/ 333 11084;EQDQ01 -00842ATMX  
0140239330999992000012721004+60970+069070FM-12+0040USHH V0201701N004010300019N0100001N1-00741-00921101471ADDAY171031AY231031GF108991031071004501021999MD1310051+9999MW1361REMSYN066AAXX  27211 23933 41497 81704 11074 21092 40147 53005 73673 8372/;
0161239330999992000012800004+60970+069070FM-12+0040USHH V0201801N004012200019N0100001N1-00751-00921101511ADDAY171061AY231061GF103991031051008001001001MA1999999100901MD1210041+9999MW1361REMSYN072AAXX  28001 23933 41597 31804 11075 21092 30090 40151 52004 73673 83500;
0179239330999992000012803004+60970+069070FM-12+0040USHH V0202001N003012200019N0100001N1-00771-00911101781ADDAJ100409199999999AY131031AY201031GF102991021051008001001001IA1239MD1210271+9999MW1361REMSYN082AAXX  28031 23933 /1597 22003 11077 21091 40178 52027 73630 82500 333 47040 55000;
0180239330999992000012806004+60970+069070FM-12+0040USHH V0202101N003019999999N0100001N1-00811-00951101831ADDAA100000591AY131061AY211061GF108991031001999999031081KA1999N-00841MD1210051+9999MW1031REMSYN082AAXX  28061 23933 11997 82103 11081 21095 40183 52005 69950 70331 83038 333 21084;
0140239330999992000012809004+60970+069070FM-12+0040USHH V0203301N002019999999N0100001N1-00801-00941101781ADDAY171031AY221031GF108991001001999999001081MD1810051+9999MW1701REMSYN066AAXX  28091 23933 41997 83302 11080 21094 40178 58005 77072 80008;
0135239330999992000012815004+60970+069070FM-12+0040USHH V0202201N001019999999N0100001N1-00961-01071101561ADDGF108991081001999999021999KA1999M-00751MD1710171+9999REMSYN070AAXX  28151 23933 /2997 82201 11096 21107 40156 57017 8802/ 333 11075;
0180239330999992000012818004+60970+069070FM-12+0040USHH V0200901N001019999999N0040001N1-00951-01071101421ADDAA100000791AY171061AY221061GF108991081001999999091021KA1999M-00751MD1710141+9999MW1711REMSYN082AAXX  28181 23933 11996 80901 11095 21107 40142 57014 69900 77172 88092 333 11075;
0140239330999992000012821004+60970+069070FM-12+0040USHH V0202101N002019999999N0100001N1-00951-01071101311ADDAY171031AY221031GF108991081001999999021999MD1710121+9999MW1021REMSYN066AAXX  28211 23933 41997 82102 11095 21107 40131 57012 70272 8802/;
0161239330999992000012900004+60970+069070FM-12+0040USHH V0202101N002012200019N0100001N1-01181-01311101411ADDAY171061AY211061GF103991001001999999001011MA1999999100791MD1310101+9999MW1011REMSYN072AAXX  29001 23933 41997 32102 11118 21131 30079 40141 53010 70171 80001;
0151239330999992000012903004+60970+069070FM-12+0040USHH V0202201N003012200019N0100001N1-01471-01671101541ADDAJ100419199999999GF103991001001999999001011IA1239MD1210121+9999REMSYN076AAXX  29031 23933 /2997 32203 11147 21167 40154 52012 80001 333 47041 55000;
0171239330999992000012906004+60970+069070FM-12+0040USHH V0202001N003012200019N0100001N1-01661-01851101661ADDAA100001091GF102991001001999999001011KA1999N+99999MD1210121+9999REMSYN076AAXX  29061 23933 12997 22003 11166 21185 40166 52012 60010 80001 333 21147;EQDQ01 -01472ATMN  
0112239330999992000012909004+60970+069070FM-12+0040USHH V0202301N001012200019N0100001N1-01521-01721101701ADDGF102991001001999999001011MD1210041+9999REMSYN060AAXX  29091 23933 42997 22301 11152 21172 40170 52004 80001;
0133239330999992000012912004+60970+069070FM-12+0040USHH V0202501N002012200019N0100001N1-01641-01771101771ADDGF103991001001999999001011MA1999999101141MD1210071+9999REMSYN066AAXX  29121 23933 42997 32502 11164 21177 30114 40177 52007 80001;
0165239330999992000012915004+60970+069070FM-12+0040USHH V0202601N002012200019N0100001N1-01651-01781101821ADDAA199000091GF103991001001999999001011KA1999M-01471MD1210051+9999REMSYN070AAXX  29151 23933 32997 32602 11165 21178 40182 52005 80001 333 11147;EQDQ01  00002PRCP99
0174239330999992000012918004+60970+069070FM-12+0040USHH V0202701N003019999999N0100001N1-01581-01711101791ADDAA199000021AY171061AY211061GF108991041001999999011071KA1999M-01471MD1810031+9999MW1701REMSYN076AAXX  29181 23933 31997 82703 11158 21171 40179 58003 77071 84017 333 11147;
0140239330999992000012921004+60970+069070FM-12+0040USHH V0202801N003019999999N0100001N1-01531-01661101691ADDAY171031AY221031GF108991021001999999011071MD1710101+9999MW1021REMSYN066AAXX  29211 23933 41997 82803 11153 21166 40169 57010 70272 82017;
0161239330999992000013000004+60970+069070FM-12+0040USHH V0202901N002019999999N0100001N1-01531-01661101551ADDAY171061AY221061GF108991001001999999001071MA1999999100921MD1710141+9999MW1021REMSYN072AAXX  30001 23933 41997 82902 11153 21166 30092 40155 57014 70272 80007;
0179239330999992000013003004+60970+069070FM-12+0040USHH V0202701N003019999999N0100001N1-01521-01651101451ADDAJ100419199999999AY131031AY221031GF108991051001999999011071IA1239MD1710101+9999MW1361REMSYN082AAXX  30031 23933 /1997 82703 11152 21165 40145 57010 73632 85017 333 47041 55052;
0180239330999992000013006004+60970+069070FM-12+0040USHH V0202601N002019999999N0100001N1-01451-01581101381ADDAA100000791AY171061AY231061GF107991041001999999031011KA1999N-01671MD1710061+9999MW1221REMSYN082AAXX  30061 23933 11997 72602 11145 21158 40138 57006 69900 72273 84031 333 21167;
0140239330999992000013009004+60970+069070FM-12+0040USHH V0202401N001019999999N0100001N1-01311-01441101311ADDAY171031AY231031GF108991081001999999021999MD1710071+9999MW1731REMSYN066AAXX  30091 23933 41997 82401 11131 21144 40131 57007 77373 8802/;
0161239330999992000013012004+60970+069070FM-12+0040USHH V0209999C000019999999N0100001N1-01351-01481101351ADDAY171061AY221061GF108991041001999999031051MA1999999100731MD1310041+9999MW1221REMSYN072AAXX  30121 23933 41997 80000 11135 21148 30073 40135 53004 72272 84035;
0163239330999992000013015004+60970+069070FM-12+0040USHH V0202401N002019999999N0100001N1-01351-01481101421ADDAY171031AY221031GF108991081001999999071999KA1999M-01271MD1210071+9999MW1711REMSYN076AAXX  30151 23933 /1997 82402 11135 21148 40142 52007 77172 8807/ 333 11127;
0180239330999992000013018004+60970+069070FM-12+0040USHH V0202701N002019999999N0100001N1-01341-01471101491ADDAA100001091AY171061AY221061GF108991081001999999071999KA1999M-01271MD1210071+9999MW1021REMSYN082AAXX  30181 23933 11997 82702 11134 21147 40149 52007 60010 70272 8807/ 333 11127;
0112239330999992000013021004+60970+069070FM-12+0040USHH V0202601N001019999999N0100001N1-01491-01621101631ADDGF108991001001999999001071MD1210131+9999REMSYN060AAXX  30211 23933 42997 82601 11149 21162 40163 52013 80007;
0143239330999992000013100004+60970+069070FM-12+0040USHH V0202601N001012200019N0100001N1-01741-01861101821ADDGA1001+999999999GF100991001001999999001001MA1999999101191MD1210191+9999REMSYN060AAXX  31001 23933 42997 02601 11174 21186 30119 40182 52019;
0162239330999992000013106004+60970+069070FM-12+0040USHH V0202701N002012200019N0100001N1-01841-01961102161ADDAA100000791GA1001+999999999GF100991001001999999001001KA1999N-01851MD1210151+9999REMSYN070AAXX  31061 23933 12997 02702 11184 21196 40216 52015 69900 333 21185;
0122239330999992000013109004+60970+069070FM-12+0040USHH V0203201N001012200019N0100001N1-01711-01831102231ADDGA1001+999999999GF100991001001999999001001MD1210071+9999REMSYN054AAXX  31091 23933 42997 03201 11171 21183 40223 52007;
0171239330999992000013112004+60970+069070FM-12+0040USHH V0209999C000012200019N0100001N1-02311-02421102311ADDAY101061AY201061GA1001+999999999GF100991001001999999001001MA1999999101661MD1210071+9999MW1101REMSYN066AAXX  31121 23933 41997 00000 11231 21242 30166 40231 52007 71000;
0193239330999992000013115004+60970+069070FM-12+0040USHH V0201101N002012200019N0100001N1-02491-02611102341ADDAA199000091AY101031AY201031GF102991001001999999001011KA1999M-01701MD1210021+9999MW1101REMSYN076AAXX  31151 23933 31997 21102 11249 21261 40234 52002 71000 80001 333 11170;EQDQ01  00002PRCP99
0165239330999992000013118004+60970+069070FM-12+0040USHH V0201201N003019999999N0100001N1-02341-02461102261ADDAA199000091GF108991001001999999001071KA1999M-01701MD1810071+9999REMSYN070AAXX  31181 23933 32997 81203 11234 21246 40226 58007 80007 333 11170;EQDQ01  00002PRCP99
0140239330999992000013121004+60970+069070FM-12+0040USHH V0201201N002019999999N0100001N1-02281-02401102111ADDAY171031AY221031GF108991001001999999001071MD1710151+9999MW1761REMSYN066AAXX  31211 23933 41997 81202 11228 21240 40211 57015 77672 80007;
0161239330999992000020100004+60970+069070FM-12+0040USHH V0201101N003019999999N0100001N1-01641-01771101941ADDAY171061AY221061GF108991081001999999021999MA1999999101311MD1710151+9999MW1021REMSYN072AAXX  01001 23933 41997 81103 11164 21177 30131 40194 57015 70272 8802/;
0151239330999992000020103004+60970+069070FM-12+0040USHH V0201301N003019999999N0100001N1-01301-01431101791ADDAJ100429199999999GF108991081001999999021999IA1239MD1710141+9999REMSYN076AAXX  01031 23933 /2997 81303 11130 21143 40179 57014 8802/ 333 47042 55000;
0180239330999992000020106004+60970+069070FM-12+0040USHH V0201501N003019999999N0100001N1-01221-01281101641ADDAA100000791AY171061AY221061GF108991031001999999071021KA1999N-02521MD1710151+9999MW1701REMSYN082AAXX  01061 23933 11997 81503 11122 21128 40164 57015 69900 77072 83072 333 21252;
0140239330999992000020109004+60970+069070FM-12+0040USHH V0201201N003019999999N0100001N1-01001-01061101451ADDAY171031AY221031GF108991001001999999001071MD1710191+9999MW1701REMSYN066AAXX  01091 23933 41997 81203 11100 21106 40145 57019 77072 80007;
0161239330999992000020112004+60970+069070FM-12+0040USHH V0201401N003019999999N0100001N1-00981-01061101341ADDAY171061AY221061GF106991041001999999031011MA1999999100721MD1710111+9999MW1021REMSYN072AAXX  01121 23933 41997 61403 11098 21106 30072 40134 57011 70272 84031;
0163239330999992000020115004+60970+069070FM-12+0040USHH V0201001N003019999999N0040001N1-00711-00761101201ADDAY171031AY221031GF108991081001999999021999KA1999M-00711MD1710131+9999MW1711REMSYN076AAXX  01151 23933 /1996 81003 11071 21076 40120 57013 77172 8802/ 333 11071;
0199239330999992000020118004+60970+069070FM-12+0040USHH V0203001N002019999999N0040001N1-00591-00661101091ADDAA100000191AY171061AY231061GF108991081001999999021999KA1999M+99999MD1710111+9999MW1711REMSYN082AAXX  01181 23933 11996 83002 11059 21066 40109 57011 69920 77173 8802/ 333 11071;EQDQ01 -00712ATMX  
0140239330999992000020121004+60970+069070FM-12+0040USHH V0202901N002019999999N0040001N1-00491-00551101051ADDAY171031AY231031GF108991081001999999021999MD1710041+9999MW1711REMSYN066AAXX  01211 23933 41996 82902 11049 21055 40105 57004 77173 8802/;
0161239330999992000020200004+60970+069070FM-12+0040USHH V0202701N003010042019N0100001N1-00431-00491100971ADDAY171061AY231061GF108991081001004501021999MA1999999100381MD1710061+9999MW1701REMSYN072AAXX  02001 23933 41497 82703 11043 21049 30038 40097 57006 77073 8802/;
0179239330999992000020203004+60970+069070FM-12+0040USHH V0202701N003019999999N0100001N1-00431-00521100951ADDAJ100429199999999AY171031AY221031GF108991051001999999021071IA1239MD1710021+9999MW1711REMSYN082AAXX  02031 23933 /1997 82703 11043 21052 40095 57002 77172 85027 333 47042 55000;
0180239330999992000020206004+60970+069070FM-12+0040USHH V0203001N003019999999N0100001N1-00341-00451100921ADDAA100001091AY171061AY231061GF108991081001999999021999KA1999N-00711MD1710031+9999MW1711REMSYN082AAXX  02061 23933 11997 83003 11034 21045 40092 57003 60010 77173 8802/ 333 21071;
0140239330999992000020209004+60970+069070FM-12+0040USHH V0202501N003019999999N0100001N1-00331-00501100821ADDAY171031AY231031GF108991081001999999021999MD1710111+9999MW1711REMSYN066AAXX  02091 23933 41997 82503 11033 21050 40082 57011 77173 8802/;
0161239330999992000020212004+60970+069070FM-12+0040USHH V0202401N003019999999N0100001N1-00451-00651100771ADDAY171061AY231061GF108991081001999999021999MA1999999100181MD1710041+9999MW1381REMSYN072AAXX  02121 23933 41997 82403 11045 21065 30018 40077 57004 73873 8802/;
0163239330999992000020215004+60970+069070FM-12+0040USHH V0203101N003019999999N0100001N1-00521-00811100761ADDAY131031AY221031GF108991001001999999001071KA1999M-00301MD1710021+9999MW1361REMSYN076AAXX  02151 23933 /1997 83103 11052 21081 40076 57002 73632 80007 333 11030;
0180239330999992000020218004+60970+069070FM-12+0040USHH V0202501N003019999999N0100001N1-00601-00751100721ADDAA100000591AY171061AY231061GF108991081001999999021999KA1999M-00301MD1710041+9999MW1711REMSYN082AAXX  02181 23933 11997 82503 11060 21075 40072 57004 69940 77173 8802/ 333 11030;
0159239330999992000020221004+60970+069070FM-12+0040USHH V0203301N003019999999N0100001N1-00611-00841100711ADDAY171031AY231031GF108991999001999999031001MD1710011+9999MW1361REMSYN066AAXX  02211 23933 41997 83303 11061 21084 40071 57001 73673 86030;EQDQ01+000062SCOTLC
0161239330999992000020300004+60970+069070FM-12+0040USHH V0203101N003019999999N0100001N1-00711-00961100671ADDAY131061AY221061GF107991071001999999031001MA1999999100071MD1710041+9999MW1361REMSYN072AAXX  03001 23933 41997 73103 11071 21096 30007 40067 57004 73632 87030;
0179239330999992000020303004+60970+069070FM-12+0040USHH V0203301N003019999999N0100001N1-00751-00921100671ADDAJ100439199999999AY171031AY231031GF108991081001999999071999IA1239MD1410001+9999MW1711REMSYN082AAXX  03031 23933 /1997 83303 11075 21092 40067 54000 77173 8807/ 333 47043 55000;
0199239330999992000020306004+60970+069070FM-12+0040USHH V0203501N003019999999N0100001N1-00811-00951100671ADDAA100000591AY171061AY231061GF108991081001999999021999KA1999N+99999MD1410001+9999MW1711REMSYN082AAXX  03061 23933 11997 83503 11081 21095 40067 54000 69950 77173 8802/ 333 21074;EQDQ01 -00742ATMN  
0140239330999992000020309004+60970+069070FM-12+0040USHH V0201501N002019999999N0100001N1-00881-01031100621ADDAY171031AY231031GF108991081001999999021999MD1710051+9999MW1711REMSYN066AAXX  03091 23933 41997 81502 11088 21103 40062 57005 77173 8802/;
0161239330999992000020312004+60970+069070FM-12+0040USHH V0201601N002019999999N0040001N1-00921-01031100571ADDAY171061AY231061GF108991081001999999021999MA1999999099971MD1710051+9999MW1711REMSYN072AAXX  03121 23933 41996 81602 11092 21103 39997 40057 57005 77173 8802/;
0163239330999992000020315004+60970+069070FM-12+0040USHH V0201501N002019999999N0040001N1-01001-01131100541ADDAY171031AY221031GF108991081001999999011999KA1999M-00751MD1710041+9999MW1711REMSYN076AAXX  03151 23933 /1996 81502 11100 21113 40054 57004 77172 8801/ 333 11075;
0180239330999992000020318004+60970+069070FM-12+0040USHH V0201401N002019999999N0040001N1-01131-01261100471ADDAA100001091AY171061AY221061GF108991081001999999011999KA1999M-00751MD1710071+9999MW1711REMSYN082AAXX  03181 23933 11996 81402 11113 21126 40047 57007 60010 77172 8801/ 333 11075;
0140239330999992000020321004+60970+069070FM-12+0040USHH V0201601N003019999999N0100001N1-01261-01391100361ADDAY171031AY221031GF108991001001999999001021MD1710111+9999MW1701REMSYN066AAXX  03211 23933 41997 81603 11126 21139 40036 57011 77072 80002;
0161239330999992000020400004+60970+069070FM-12+0040USHH V0201201N003019999999N0100001N1-01361-01491100181ADDAY171061AY231061GF108991001001999999001071MA1999999099571MD1710181+9999MW1361REMSYN072AAXX  04001 23933 41997 81203 11136 21149 39957 40018 57018 73673 80007;
0179239330999992000020403004+60970+069070FM-12+0040USHH V0201401N004019999999N0100001N1-01331-01461100011ADDAJ100449199999999AY131031AY221031GF108991001001999999001071IA1239MD1710171+9999MW1361REMSYN082AAXX  04031 23933 /1997 81404 11133 21146 40001 57017 73632 80007 333 47044 55000;
0180239330999992000020406004+60970+069070FM-12+0040USHH V0201401N005019999999N0100001N1-01231-01361099721ADDAA100000591AY171061AY231061GF108991051001999999021071KA1999N-01371MD1710291+9999MW1711REMSYN082AAXX  04061 23933 11997 81405 11123 21136 49972 57029 69940 77173 85027 333 21137;
0140239330999992000020409004+60970+069070FM-12+0040USHH V0201601N003019999999N0040001N1-01081-01221099661ADDAY171031AY231031GF108991001001999999001071MD1710061+9999MW1711REMSYN066AAXX  04091 23933 41996 81603 11108 21122 49966 57006 77173 80007;
0161239330999992000020412004+60970+069070FM-12+0040USHH V0201201N002019999999N0040001N1-01101-01231099621ADDAY171061AY231061GF108991001001999999001071MA1999999099011MD1710041+9999MW1711REMSYN072AAXX  04121 23933 41996 81202 11110 21123 39901 49962 57004 77173 80007;
0163239330999992000020415004+60970+069070FM-12+0040USHH V0201301N002019999999N0040001N1-01061-01191099541ADDAY171031AY231031GF108991031001999999011071KA1999M-01061MD1710081+9999MW1711REMSYN076AAXX  04151 23933 /1996 81302 11106 21119 49954 57008 77173 83017 333 11106;
0180239330999992000020418004+60970+069070FM-12+0040USHH V0201701N002019999999N0040001N1-01031-01161099441ADDAA100001091AY171061AY231061GF108991081001999999021999KA1999M-01061MD1710101+9999MW1711REMSYN082AAXX  04181 23933 11996 81702 11103 21116 49944 57010 60010 77173 8802/ 333 11106;
0140239330999992000020421004+60970+069070FM-12+0040USHH V0201801N002019999999N0040001N1-01171-01231099411ADDAY171031AY221031GF108991081001999999021999MD1710031+9999MW1711REMSYN066AAXX  04211 23933 41996 81802 11117 21123 49941 57003 77172 8802/;
0161239330999992000020500004+60970+069070FM-12+0040USHH V0201801N003019999999N0100001N1-01221-01281099461ADDAY171061AY221061GF108991081001999999021999MA1999999098851MD1310051+9999MW1021REMSYN072AAXX  05001 23933 41997 81803 11122 21128 39885 49946 53005 70272 8802/;
0179239330999992000020503004+60970+069070FM-12+0040USHH V0201801N003019999999N0040001N1-01241-01371099561ADDAJ100459199999999AY171031AY231031GF108991081001999999011999IA1239MD1210101+9999MW1711REMSYN082AAXX  05031 23933 /1996 81803 11124 21137 49956 52010 77173 8801/ 333 47045 55000;
0180239330999992000020506004+60970+069070FM-12+0040USHH V0201801N003019999999N0040001N1-01341-01471099801ADDAA100000591AY171061AY231061GF108991081001999999071999KA1999N-01291MD1210241+9999MW1711REMSYN082AAXX  05061 23933 11996 81803 11134 21147 49980 52024 69950 77173 8807/ 333 21129;
0140239330999992000020509004+60970+069070FM-12+0040USHH V0201801N003019999999N0100001N1-01401-01531099951ADDAY171031AY231031GF106991021051999999031001MD1210151+9999MW1361REMSYN066AAXX  05091 23933 41997 61803 11140 21153 49995 52015 73673 82530;
0180239330999992000020512004+60970+069070FM-12+0040USHH V0201901N004012200019N0100001N1-01381-01521999999ADDAY131061AY221061GF102991021001999999031001MA1999999099521MD1210181+9999MW1361REMSYN072AAXX  05121 23933 41997 21904 11138 21152 39952 40113 52018 73632 82030;EQDQ01+101133APOSLP
0173239330999992000020515004+60970+069070FM-12+0040USHH V0201801N005012200019N0100001N1-01441-01571100351ADDAY131031AY221031GA1001+999999999GF100991001001999999001001KA1999M-01241MD1210221+9999MW1361REMSYN070AAXX  05151 23933 /1997 01805 11144 21157 40035 52022 73632 333 11124;
0209239330999992000020518004+60970+069070FM-12+0040USHH V0201701N003012200019N0100001N1-01521-01651100441ADDAA100000791AY131061AY221061GA1001+999999999GF100991001001999999001001KA1999N+99999MD1210071+9999MW1361REMSYN076AAXX  05181 23933 11997 01703 11152 21165 40044 52007 69900 73632 333 21124;EQDQ01 -01242ATMN  
0150239330999992000020521004+60970+069070FM-12+0040USHH V0201701N002012200019N0100001N1-01561-01691100531ADDAY131031AY221031GA1001+999999999GF100991001001999999001001MD1210091+9999MW1021REMSYN060AAXX  05211 23933 41997 01702 11156 21169 40053 52009 70232;
0143239330999992000020600004+60970+069070FM-12+0040USHH V0201701N001012200019N0100001N1-01741-01861100691ADDGA1001+999999999GF100991001001999999001001MA1999999100061MD1210161+9999REMSYN060AAXX  06001 23933 42997 01701 11174 21186 30006 40069 52016;
0191239330999992000020603004+60970+069070FM-12+0040USHH V0209999C000012200019N0100001N1-01921-02041100871ADDAA199000091AJ100469199999999GA1001+999999999GF100991001001999999001001IA1239MD1210181+9999REMSYN070AAXX  06031 23933 32997 00000 11192 21204 40087 52018 333 47046 55020;EQDQ01  00002PRCP99
0175239330999992000020606004+60970+069070FM-12+0040USHH V0201801N002012200019N0100001N1-01891-02011101041ADDAA199000091GA1001+999999999GF100991001001999999001001KA1999N-01951MD1210171+9999REMSYN064AAXX  06061 23933 32997 01802 11189 21201 40104 52017 333 21195;EQDQ01  00002PRCP99
0122239330999992000020609004+60970+069070FM-12+0040USHH V0202101N002012200019N0100001N1-01661-01791101221ADDGA1001+999999999GF100991001001999999001001MD1210181+9999REMSYN054AAXX  06091 23933 42997 02102 11166 21179 40122 52018;
0133239330999992000020612004+60970+069070FM-12+0040USHH V0202201N001012200019N0100001N1-01701-01831101391ADDGF103991001001999999001011MA1999999100761MD1210171+9999REMSYN066AAXX  06121 23933 42997 32201 11170 21183 30076 40139 52017 80001;
0165239330999992000020615004+60970+069070FM-12+0040USHH V0202301N004012200019N0100001N1-01601-01731101551ADDAA199000091GF102991001001999999001011KA1999M-01631MD1210161+9999REMSYN070AAXX  06151 23933 32997 22304 11160 21173 40155 52016 80001 333 11163;EQDQ01  00002PRCP99
0137239330999992000020618004+60970+069070FM-12+0040USHH V0202701N002019999999N0100001N1+99999+99999999999ADDAA199000091GF107991999999008001999999REMSYN069AAXX  06181 23933 32597 72702 1116 21176 40171 52016 87500 333 11163;EQDQ01  00002PRCP99
0122239330999992000020621004+60970+069070FM-12+0040USHH V0201001N001012200019N0100001N1-02241-02361101791ADDGA1001+999999999GF100991001001999999001001MD1210071+9999REMSYN054AAXX  06211 23933 42997 01001 11224 21236 40179 52007;
0133239330999992000020700004+60970+069070FM-12+0040USHH V0201201N002019999999N0100001N1-02191-02311101811ADDGF108991001001999999001071MA1999999101171MD1210021+9999REMSYN066AAXX  07001 23933 42997 81202 11219 21231 30117 40181 52002 80007;
0179239330999992000020703004+60970+069070FM-12+0040USHH V0200901N002019999999N0100001N1-01841-01961101801ADDAJ100469199999999AY171031AY221031GF108991081001999999021999IA1239MD1410001+9999MW1711REMSYN082AAXX  07031 23933 /1997 80902 11184 21196 40180 54000 77172 8802/ 333 47046 55056;
0180239330999992000020706004+60970+069070FM-12+0040USHH V0201401N002019999999N0100001N1-01601-01731101761ADDAA100000591AY171061AY221061GF107991001001999999001081KA1999N-02371MD1810041+9999MW1021REMSYN082AAXX  07061 23933 11997 71402 11160 21173 40176 58004 69940 70272 80008 333 21237;
0112239330999992000020709004+60970+069070FM-12+0040USHH V0201501N001019999999N0100001N1-01441-01571101751ADDGF106991031001999999031011MD1410001+9999REMSYN060AAXX  07091 23933 42997 61501 11144 21157 40175 54000 83031;
0133239330999992000020712004+60970+069070FM-12+0040USHH V0201001N002019999999N0100001N1-01471-01601101761ADDGF106991051001999999031011MA1999999101131MD1410001+9999REMSYN066AAXX  07121 23933 42997 61002 11147 21160 30113 40176 54000 85031;
0135239330999992000020715004+60970+069070FM-12+0040USHH V0201201N001019999999N0100001N1-01581-01711101761ADDGF107991061001999999031011KA1999M-01441MD1410001+9999REMSYN070AAXX  07151 23933 /2997 71201 11158 21171 40176 54000 86031 333 11144;
0152239330999992000020718004+60970+069070FM-12+0040USHH V0200901N001019999999N0100001N1-01461-01591101751ADDAA100000591GF106991051001999999031011KA1999M-01441MD1410001+9999REMSYN076AAXX  07181 23933 12997 60901 11146 21159 40175 54000 69940 85031 333 11144;
0112239330999992000020721004+60970+069070FM-12+0040USHH V0201201N002012200019N0100001N1-02061-02181101771ADDGF103991001001999999001011MD1410001+9999REMSYN060AAXX  07211 23933 42997 31202 11206 21218 40177 54000 80001;
0133239330999992000020800004+60970+069070FM-12+0040USHH V0201601N002019999999N0100001N1-01771-01891101741ADDGF105991001001999999001011MA1999999101111MD1810021+9999REMSYN066AAXX  08001 23933 42997 51602 11177 21189 30111 40174 58002 80001;
0151239330999992000020803004+60970+069070FM-12+0040USHH V0200901N001019999999N0100001N1-01761-01881101761ADDAJ100469199999999GF108991001001999999001071IA1239MD1310021+9999REMSYN076AAXX  08031 23933 /2997 80901 11176 21188 40176 53002 80007 333 47046 55031;
0174239330999992000020806004+60970+069070FM-12+0040USHH V0201001N002019999999N0100001N1-01841-02031101871ADDAA199000021AY171061AY221061GF106991031001999999031081KA1999N-02141MD1210111+9999MW1711REMSYN076AAXX  08061 23933 31997 61002 11184 21203 40187 52011 77172 83038 333 21214;
0150239330999992000020809004+60970+069070FM-12+0040USHH V0201001N001012200019N0100001N1-01691-01881101821ADDAY171031AY211031GA1001+999999999GF100991001001999999001001MD1810051+9999MW1021REMSYN060AAXX  08091 23933 41997 01001 11169 21188 40182 58005 70271;
0171239330999992000020812004+60970+069070FM-12+0040USHH V0201301N001012200019N0100001N1-01951-02141101841ADDAY171061AY211061GA1001+999999999GF100991001001999999001001MA1999999101211MD1310021+9999MW1021REMSYN066AAXX  08121 23933 41997 01301 11195 21214 30121 40184 53002 70271;
0182239330999992000020815004+60970+069070FM-12+0040USHH V0201401N001019999999N0100001N1-01881-02071999999ADDAY171031AY271031GF106991031001999999031081KA1999M-01691MD1810061+9999MW1711REMSYN076AAXX  08151 23933 /1997 61401 11188 21207 40278 58006 77177 83038 333 11169;EQDQ01+102783APOSLP
0180239330999992000020818004+60970+069070FM-12+0040USHH V0201001N001012200019N0100001N1-02101-02281101841ADDAA112000191AY171061AY211061GF102991001001999999001081KA1999M-01691MD1310051+9999MW1021REMSYN082AAXX  08181 23933 11997 21001 11210 21228 40184 53005 69922 70271 80008 333 11169;
0140239330999992000020821004+60970+069070FM-12+0040USHH V0200801N001019999999N0100001N1-02311-02491101841ADDAY171031AY211031GF108991081001999999021999MD1410001+9999MW1711REMSYN066AAXX  08211 23933 41997 80801 11231 21249 40184 54000 77171 8802/;
0161239330999992000020900004+60970+069070FM-12+0040USHH V0201101N001019999999N0100001N1-02371-02551101821ADDAY171061AY211061GF106991041001999999021011MA1999999101181MD1710021+9999MW1711REMSYN072AAXX  09001 23933 41997 61101 11237 21255 30118 40182 57002 77171 84021;
0150239330999992000020903004+60970+069070FM-12+0040USHH V0209999C000012200019N0100001N1-02501-02671101861ADDAY171031AY211031GF102991001001999999001011MD1310021+9999MW1021REMSYN076AAXX  09031 23933 /1997 20000 11250 21267 40186 53002 70271 80001 333 55041;
0180239330999992000020906004+60970+069070FM-12+0040USHH V0201101N001019999999N0100001N1-02551-02671101891ADDAA100000791AY111061AY211061GF108991001001999999001071KA1999N-02501MD1210031+9999MW1101REMSYN082AAXX  09061 23933 11997 81101 11255 21267 40189 52003 69900 71011 80007 333 21250;
0140239330999992000020909004+60970+069070FM-12+0040USHH V0209999C000019999999N0100001N1-02151-02271101901ADDAY171031AY221031GF108991001001999999001081MD1210031+9999MW1701REMSYN066AAXX  09091 23933 41997 80000 11215 21227 40190 52003 77072 80008;
0161239330999992000020912004+60970+069070FM-12+0040USHH V0201201N001012200019N0100001N1-02231-02341101941ADDAY171061AY211061GF103991001001999999001011MA1999999101301MD1210041+9999MW1021REMSYN072AAXX  09121 23933 41997 31201 11223 21234 30130 40194 52004 70271 80001;
0135239330999992000020915004+60970+069070FM-12+0040USHH V0209999C000012200019N0100001N1-02571-02681102071ADDGF102991001001999999001011KA1999M-02151MD1210111+9999REMSYN070AAXX  09151 23933 /2997 20000 11257 21268 40207 52011 80001 333 11215;
0152239330999992000020918004+60970+069070FM-12+0040USHH V0209999C000019999999N0100001N1-02481-02601102151ADDAA100000791GF106991001001999999001011KA1999M-02151MD1210081+9999REMSYN076AAXX  09181 23933 12997 60000 11248 21260 40215 52008 69900 80001 333 11215;
0112239330999992000020921004+60970+069070FM-12+0040USHH V0201101N001019999999N0100001N1-02551-02671102211ADDGF108991001001999999001071MD1210061+9999REMSYN060AAXX  09211 23933 42997 81101 11255 21267 40221 52006 80007;
0133239330999992000021000004+60970+069070FM-12+0040USHH V0209999C000019999999N0100001N1-02631-02741102361ADDGF108991001001999999001071MA1999999101701MD1210151+9999REMSYN066AAXX  10001 23933 42997 80000 11263 21274 30170 40236 52015 80007;
0181239330999992000021003004+60970+069070FM-12+0040USHH V0201201N002019999999N0100001N1-02601-02711102331ADDAA199000091AJ100459199999999GF108991081001999999021999IA1239MD1810031+9999REMSYN076AAXX  10031 23933 32997 81202 11260 21271 40233 58003 8802/ 333 47045 55043;EQDQ01  00002PRCP99
0174239330999992000021006004+60970+069070FM-12+0040USHH V0201101N001019999999N0100001N1-02531-02641102381ADDAA199000021AY171061AY221061GF108991081001999999011999KA1999N-02641MD1310051+9999MW1711REMSYN076AAXX  10061 23933 31997 81101 11253 21264 40238 53005 77172 8801/ 333 21264;
0140239330999992000021009004+60970+069070FM-12+0040USHH V0201101N002019999999N0100001N1-02451-02571102381ADDAY171031AY221031GF106991001001999999001011MD1210011+9999MW1021REMSYN066AAXX  10091 23933 41997 61102 11245 21257 40238 52001 70272 80001;
0161239330999992000021012004+60970+069070FM-12+0040USHH V0200801N001019999999N0100001N1-02241-02361102371ADDAY171061AY221061GF106991001001999999001011MA1999999101721MD1810011+9999MW1021REMSYN072AAXX  10121 23933 41997 60801 11224 21236 30172 40237 58001 70272 80001;
0135239330999992000021015004+60970+069070FM-12+0040USHH V0201101N002019999999N0100001N1-02051-02171102351ADDGF105991001001999999001011KA1999M-02051MD1710021+9999REMSYN070AAXX  10151 23933 /2997 51102 11205 21217 40235 57002 80001 333 11205;
0152239330999992000021018004+60970+069070FM-12+0040USHH V0200901N002019999999N0100001N1-02191-02311102351ADDAA100000791GF106991001001999999001011KA1999M-02051MD1410001+9999REMSYN076AAXX  10181 23933 12997 60902 11219 21231 40235 54000 69900 80001 333 11205;
0112239330999992000021021004+60970+069070FM-12+0040USHH V0200901N002019999999N0100001N1-02261-02381102351ADDGF108991001001999999001071MD1410001+9999REMSYN060AAXX  10211 23933 42997 80902 11226 21238 40235 54000 80007;
0133239330999992000021100004+60970+069070FM-12+0040USHH V0200901N002019999999N0100001N1-02231-02341102391ADDGF106991001001999999001011MA1999999101741MD1310041+9999REMSYN066AAXX  11001 23933 42997 60902 11223 21234 30174 40239 53004 80001;
0181239330999992000021103004+60970+069070FM-12+0040USHH V0200901N001019999999N0100001N1-01961-02081102411ADDAA199000091AJ100449199999999GF106991031001999999031011IA1239MD1210021+9999REMSYN076AAXX  11031 23933 32997 60901 11196 21208 40241 52002 83031 333 47044 55035;EQDQ01  00002PRCP99
0193239330999992000021106004+60970+069070FM-12+0040USHH V0201001N001019999999N0100001N1-02141-02331102541ADDAA199000091AY171061AY221061GF106991001001999999001011KA1999N-02351MD1210131+9999MW1021REMSYN076AAXX  11061 23933 31997 61001 11214 21233 40254 52013 70272 80001 333 21235;EQDQ01  00002PRCP99
0112239330999992000021109004+60970+069070FM-12+0040USHH V0201001N001019999999N0100001N1-01811-02001102501ADDGF106991021001999999031011MD1810031+9999REMSYN060AAXX  11091 23933 42997 61001 11181 21200 40250 58003 82031;
0161239330999992000021112004+60970+069070FM-12+0040USHH V0201101N002019999999N0100001N1-01581-01771102451ADDAY171061AY221061GF108991081001999999021999MA1999999101811MD1710051+9999MW1711REMSYN072AAXX  11121 23933 41997 81102 11158 21177 30181 40245 57005 77172 8802/;
0163239330999992000021115004+60970+069070FM-12+0040USHH V0201101N002019999999N0100001N1-01551-01741102481ADDAY171031AY221031GF106991061001999999031001KA1999M-01551MD1310031+9999MW1021REMSYN076AAXX  11151 23933 /1997 61102 11155 21174 40248 53003 70272 86030 333 11155;
0180239330999992000021118004+60970+069070FM-12+0040USHH V0201101N002019999999N0100001N1-01761-01951102411ADDAA100000391AY171061AY221061GF107991071001999999031001KA1999M-01551MD1810071+9999MW1711REMSYN082AAXX  11181 23933 11997 71102 11176 21195 40241 58007 69930 77172 87030 333 11155;
0140239330999992000021121004+60970+069070FM-12+0040USHH V0201201N002019999999N0100001N1-01571-01761102331ADDAY171031AY221031GF108991081001999999021999MD1710081+9999MW1711REMSYN066AAXX  11211 23933 41997 81202 11157 21176 40233 57008 77172 8802/;
0161239330999992000021200004+60970+069070FM-12+0040USHH V0201201N002019999999N0100001N1-01421-01621102251ADDAY171061AY221061GF108991081001999999021999MA1999999101621MD1710071+9999MW1711REMSYN072AAXX  12001 23933 41997 81202 11142 21162 30162 40225 57007 77172 8802/;
0179239330999992000021203004+60970+069070FM-12+0040USHH V0201101N002019999999N0100001N1-01401-01601102071ADDAJ100449199999999AY171031AY221031GF108991081001999999021999IA1239MD1710181+9999MW1711REMSYN082AAXX  12031 23933 /1997 81102 11140 21160 40207 57018 77172 8802/ 333 47044 55016;
0180239330999992000021206004+60970+069070FM-12+0040USHH V0201101N003019999999N0100001N1-01331-01461102091ADDAA100001091AY171061AY221061GF107991071001999999051001KA1999N-01881MD1710081+9999MW1021REMSYN082AAXX  12061 23933 11997 71103 11133 21146 40209 57008 60010 70272 87050 333 21188;
0180239330999992000021209004+60970+069070FM-12+0040USHH V0201101N003019999999N0100001N1-01331-01461102091ADDAA100001091AY171031AY221031GF107991071001999999051001KA1999N-01881MD1710081+9999MW1021REMSYN082AAXX  12091 23933 11997 71103 11133 21146 40209 57008 60010 70272 87050 333 21188;
0161239330999992000021212004+60970+069070FM-12+0040USHH V0201001N004019999999N0100001N1-01311-01371101911ADDAY171061AY221061GF107991071001999999031001MA1999999101291MD1710071+9999MW1021REMSYN072AAXX  12121 23933 41997 71004 11131 21137 30129 40191 57007 70272 87030;
0161239330999992000021215004+60970+069070FM-12+0040USHH V0201001N004019999999N0100001N1-01311-01371101911ADDAY171031AY221031GF107991071001999999031001MA1999999101291MD1710071+9999MW1021REMSYN072AAXX  12151 23933 41997 71004 11131 21137 30129 40191 57007 70272 87030;
0180239330999992000021218004+60970+069070FM-12+0040USHH V0200901N003019999999N0100001N1-01261-01321101771ADDAA100000891AY171061AY221061GF108991081001999999021999KA1999M-01211MD1710041+9999MW1711REMSYN082AAXX  12181 23933 11997 80903 11126 21132 40177 57004 69980 77172 8802/ 333 11121;
0157239330999992000021221004+60970+069070FM-12+0040USHH V0200901N002019999999N0100001N1-00671+99999101411ADDAA100000891AY171031AY221031GF108991081001999999021999MD1710071+9999MW1711REMSYN072AAXX  12211 23933 11997 80902 11067 20070 40141 57007 69980 77172 8802/;
0161239330999992000021300004+60970+069070FM-12+0040USHH V0201001N001019999999N0100001N1-01391-01451101601ADDAY171061AY221061GF107991071001999999031001MA1999999101981MD1710081+9999MW1221REMSYN072AAXX  13001 23933 41997 71001 11139 21145 30198 40160 57008 72272 87030;
0151239330999992000021303004+60970+069070FM-12+0040USHH V0201001N002019999999N0100001N1-01251-01311101481ADDAJ100479199999999GF108991081001999999021999IA1289MD1710121+9999REMSYN076AAXX  13031 23933 /2997 81002 11125 21131 40148 57012 8802/ 333 44047 55000;
0180239330999992000021306004+60970+069070FM-12+0040USHH V0200901N002019999999N0100001N1-01191-01321101391ADDAA100000591AY171061AY221061GF108991081001999999071999KA1999N-01451MD1710091+9999MW1701REMSYN082AAXX  13061 23933 11997 80902 11119 21132 40139 57009 69950 77072 8807/ 333 21145;
0140239330999992000021309004+60970+069070FM-12+0040USHH V0200301N002019999999N0100001N1-01191-01321101331ADDAY171031AY221031GF108991081001999999071999MD1710061+9999MW1701REMSYN066AAXX  13091 23933 41997 80302 11119 21132 40133 57006 77072 8807/;
0161239330999992000021312004+60970+069070FM-12+0040USHH V0200701N001019999999N0100001N1-01361-01491101341ADDAY171061AY221061GF108991081001999999071999MA1999999100721MD1310011+9999MW1711REMSYN072AAXX  13121 23933 41997 80701 11136 21149 30072 40134 53001 77172 8807/;
0163239330999992000021315004+60970+069070FM-12+0040USHH V0209999C000019999999N0040001N1-01461-01591101341ADDAY171031AY221031GF108991081001999999071999KA1999M-01191MD1410001+9999MW1711REMSYN076AAXX  13151 23933 /1996 80000 11146 21159 40134 54000 77172 8807/ 333 11119;
0180239330999992000021318004+60970+069070FM-12+0040USHH V0200101N001019999999N0040001N1-01631-01761101341ADDAA100000591AY171061AY221061GF108991081001999999071999KA1999M-01191MD1810011+9999MW1711REMSYN082AAXX  13181 23933 11996 80101 11163 21176 40134 58001 69940 77172 8807/ 333 11119;
0140239330999992000021321004+60970+069070FM-12+0040USHH V0209999C000019999999N0040001N1-01751-01871101341ADDAY171031AY221031GF108991081001999999021999MD1410001+9999MW1711REMSYN066AAXX  13211 23933 41996 80000 11175 21187 40134 54000 77172 8802/;
0161239330999992000021400004+60970+069070FM-12+0040USHH V0209999C000019999999N0040001N1-01691-01811101361ADDAY171061AY221061GF108991081001999999021999MA1999999100731MD1310021+9999MW1711REMSYN072AAXX  14001 23933 41996 80000 11169 21181 30073 40136 53002 77172 8802/;
0179239330999992000021403004+60970+069070FM-12+0040USHH V0202601N001019999999N0100001N1-01711-01831101351ADDAJ100479199999999AY171031AY221031GF108991081001999999071999IA1239MD1810011+9999MW1021REMSYN082AAXX  14031 23933 /1997 82601 11171 21183 40135 58001 70272 8807/ 333 47047 55000;
0180239330999992000021406004+60970+069070FM-12+0040USHH V0209999C000019999999N0100001N1-01641-01841101431ADDAA100000891AY171061AY221061GF106991021001999999031081KA1999N-01771MD1310081+9999MW1711REMSYN082AAXX  14061 23933 11997 60000 11164 21184 40143 53008 69970 77172 82038 333 21177;
0140239330999992000021409004+60970+069070FM-12+0040USHH V0202701N001019999999N0100001N1-01501-01771101411ADDAY171031AY221031GF106991001001999999001011MD1810021+9999MW1021REMSYN066AAXX  14091 23933 41997 62701 11150 21177 40141 58002 70272 80001;
0161239330999992000021412004+60970+069070FM-12+0040USHH V0202601N001019999999N0100001N1-01571-01841101461ADDAY171061AY221061GF106991031001999999031081MA1999999100831MD1310051+9999MW1701REMSYN072AAXX  14121 23933 41997 62601 11157 21184 30083 40146 53005 77072 83038;
0180239330999992000021418004+60970+069070FM-12+0040USHH V0202701N001019999999N0100001N1-01731-01921101451ADDAA100000791AY171061AY221061GF106991041001999999021081KA1999M-01501MD1710011+9999MW1701REMSYN082AAXX  14181 23933 11997 62701 11173 21192 40145 57001 69900 77072 84028 333 11150;
0140239330999992000021421004+60970+069070FM-12+0040USHH V0209999C000019999999N0100001N1-01951-02141101411ADDAY171031AY221031GF106991061001999999021001MD1710041+9999MW1701REMSYN066AAXX  14211 23933 41997 60000 11195 21214 40141 57004 77072 86020;
0161239330999992000021500004+60970+069070FM-12+0040USHH V0209999C000019999999N0100001N1-01771-01961101461ADDAY171061AY221061GF108991081001999999021999MA1999999100831MD1310051+9999MW1701REMSYN072AAXX  15001 23933 41997 80000 11177 21196 30083 40146 53005 77072 8802/;
0179239330999992000021503004+60970+069070FM-12+0040USHH V0202801N001019999999N0100001N1-01701-01891101381ADDAJ100479199999999AY171031AY221031GF106991061001999999031001IA1239MD1810081+9999MW1701REMSYN082AAXX  15031 23933 /1997 62801 11170 21189 40138 58008 77072 86030 333 47047 55006;
0180239330999992000021506004+60970+069070FM-12+0040USHH V0202901N002019999999N0100001N1-01681-01811101321ADDAA100000391AY171061AY221061GF107991071001999999051001KA1999N-02041MD1710061+9999MW1701REMSYN082AAXX  15061 23933 11997 72902 11168 21181 40132 57006 69930 77072 87050 333 21204;
0140239330999992000021509004+60970+069070FM-12+0040USHH V0209999C000019999999N0100001N1-01631-01821101331ADDAY171031AY221031GF108991031001999999031071MD1310011+9999MW1021REMSYN066AAXX  15091 23933 41997 80000 11163 21182 40133 53001 70272 83037;
0161239330999992000021512004+60970+069070FM-12+0040USHH V0202001N001019999999N0100001N1-01751-01941101361ADDAY171061AY221061GF108991031001999999031071MA1999999100731MD1210031+9999MW1701REMSYN072AAXX  15121 23933 41997 82001 11175 21194 30073 40136 52003 77072 83037;
0163239330999992000021515004+60970+069070FM-12+0040USHH V0209999C000019999999N0100001N1-01861-01981101381ADDAY171031AY221031GF108991001001999999001071KA1999M-01631MD1210021+9999MW1021REMSYN076AAXX  15151 23933 /1997 80000 11186 21198 40138 52002 70272 80007 333 11163;
0180239330999992000021518004+60970+069070FM-12+0040USHH V0209999C000019999999N0100001N1-01901-02021101561ADDAA100000791AY171061AY221061GF108991001001999999001071KA1999M-01631MD1210181+9999MW1021REMSYN082AAXX  15181 23933 11997 80000 11190 21202 40156 52018 69900 70272 80007 333 11163;
0122239330999992000021521004+60970+069070FM-12+0040USHH V0209999C000012200019N0100001N1-02091-02211101551ADDGA1001+999999999GF100991001001999999001001MD1810021+9999REMSYN054AAXX  15211 23933 42997 00000 11209 21221 40155 58002;
0143239330999992000021600004+60970+069070FM-12+0040USHH V0209999C000012200019N0100001N1-01961-02081101661ADDGA1001+999999999GF100991001001999999001001MA1999999101021MD1310111+9999REMSYN060AAXX  16001 23933 42997 00000 11196 21208 30102 40166 53011;
0181239330999992000021603004+60970+069070FM-12+0040USHH V0209999C000012200019N0100001N1-02181-02301101791ADDAA199000091AJ100469199999999GF103991001001999999001011IA1239MD1210131+9999REMSYN076AAXX  16031 23933 32997 30000 11218 21230 40179 52013 80001 333 47046 55017;EQDQ01  00002PRCP99
0174239330999992000021606004+60970+069070FM-12+0040USHH V0201001N001019999999N0100001N1-02111-02231101841ADDAA199000021AY171061AY221061GF108991021001999999031071KA1999N-02241MD1210051+9999MW1701REMSYN076AAXX  16061 23933 31997 81001 11211 21223 40184 52005 77072 82037 333 21224;
0161239330999992000021612004+60970+069070FM-12+0040USHH V0200901N002019999999N0100001N1-02131-02251101961ADDAY171061AY221061GF108991021001999999031071MA1999999101321MD1210061+9999MW1711REMSYN072AAXX  16121 23933 41997 80902 11213 21225 30132 40196 52006 77172 82037;
0163239330999992000021615004+60970+069070FM-12+0040USHH V0201001N002019999999N0040001N1-01861-01981101961ADDAY171031AY221031GF108991081001999999021999KA1999M-01861MD1210011+9999MW1711REMSYN076AAXX  16151 23933 /1996 81002 11186 21198 40196 52001 77172 8802/ 333 11186;
0199239330999992000021618004+60970+069070FM-12+0040USHH V0201201N001019999999N0100001N1-01361-01421101861ADDAA100000191AY171061AY221061GF108991081001999999021999KA1999M+99999MD1810091+9999MW1711REMSYN082AAXX  16181 23933 11997 81201 11136 21142 40186 58009 69920 77172 8802/ 333 11186;EQDQ01 -01862ATMX  
0140239330999992000021621004+60970+069070FM-12+0040USHH V0201201N002019999999N0040001N1-01141-01201101811ADDAY171031AY221031GF108991081001999999021999MD1710051+9999MW1711REMSYN066AAXX  16211 23933 41996 81202 11114 21120 40181 57005 77172 8802/;
0161239330999992000021700004+60970+069070FM-12+0040USHH V0201101N002019999999N0040001N1-01261-01321101771ADDAY171061AY221061GF108991081001999999021999MA1999999101151MD1710041+9999MW1711REMSYN072AAXX  17001 23933 41996 81102 11126 21132 30115 40177 57004 77172 8802/;
0179239330999992000021703004+60970+069070FM-12+0040USHH V0201101N002019999999N0100001N1-01191-01251101751ADDAJ100489199999999AY171031AY221031GF108991081001999999021999IA1239MD1710021+9999MW1711REMSYN082AAXX  17031 23933 /1997 81102 11119 21125 40175 57002 77172 8802/ 333 47048 55050;
0180239330999992000021706004+60970+069070FM-12+0040USHH V0201001N002019999999N0100001N1-01131-01261101781ADDAA100001091AY171061AY221061GF106991021001999999031081KA1999N-01871MD1310031+9999MW1701REMSYN082AAXX  17061 23933 11997 61002 11113 21126 40178 53003 60010 77072 82038 333 21187;
0140239330999992000021709004+60970+069070FM-12+0040USHH V0201001N001019999999N0100001N1-01001-01221101801ADDAY171031AY221031GF106991001001999999001081MD1210021+9999MW1701REMSYN066AAXX  17091 23933 41997 61001 11100 21122 40180 52002 77072 80008;
0161239330999992000021712004+60970+069070FM-12+0040USHH V0209999C000019999999N0100001N1-01031-01231101851ADDAY171061AY221061GF106991041001999999031011MA1999999101231MD1210051+9999MW1221REMSYN072AAXX  17121 23933 41997 60000 11103 21123 30123 40185 52005 72272 84031;
0163239330999992000021715004+60970+069070FM-12+0040USHH V0209999C000019999999N0100001N1-01051-01181101931ADDAY171031AY221031GF108991081001999999021999KA1999M-00991MD1210081+9999MW1711REMSYN076AAXX  17151 23933 21997 80000 11105 21118 40193 52008 77172 8802/ 333 11099;
0180239330999992000021718004+60970+069070FM-12+0040USHH V0209999C000019999999N0100001N1-01401-01601101991ADDAA100000591AY171061AY221061GF108991081001999999021999KA1999M-00991MD1210061+9999MW1701REMSYN082AAXX  17181 23933 11997 80000 11140 21160 40199 52006 69950 77072 8802/ 333 11099;
0140239330999992000021721004+60970+069070FM-12+0040USHH V0209999C000019999999N0100001N1-01391-01521102031ADDAY171031AY221031GF106991001001999999001081MD1210031+9999MW1701REMSYN066AAXX  17211 23933 41997 60000 11139 21152 40203 52003 77072 80008;
0161239330999992000021800004+60970+069070FM-12+0040USHH V0209999C000019999999N0100001N1-01491-01621102161ADDAY171061AY221061GF108991081001999999021999MA1999999101521MD1210121+9999MW1701REMSYN072AAXX  18001 23933 41997 80000 11149 21162 30152 40216 52012 77072 8802/;
0179239330999992000021803004+60970+069070FM-12+0040USHH V0209999C000019999999N0100001N1-01361-01561102241ADDAJ100489199999999AY171031AY221031GF107991071001999999021001IA1239MD1210091+9999MW1701REMSYN082AAXX  18031 23933 /1997 70000 11136 21156 40224 52009 77072 87020 333 47048 55000;
0180239330999992000021806004+60970+069070FM-12+0040USHH V0202601N003019999999N0100001N1-01201-01401102301ADDAA100000391AY171061AY221061GF108991001001999999001051KA1999N-01521MD1210061+9999MW1711REMSYN082AAXX  18061 23933 11997 82603 11120 21140 40230 52006 69930 77172 80005 333 21152;
