0208239730999992000010100004+61000+089750FM-12+004699999V0209999C000012200019N0200001N1-04241-04481104681ADDAA106000091GA1001+999999999GF100991001001999999001001IA1249KA1120N-04351MA1999999103941MD1210031+9999REMSYN076AAXX  01001 23973 32998 00000 11424 21448 30394 40468 52003 333 21435 48048;EQDQ01  00002PRCP06
0150239730999992000010103004+61000+089750FM-12+004699999V0202101N002012200019N0100001N1-04111-04381104661ADDAY101031AY201031GA1001+999999999GF100991001001999999001001MD1810021+9999MW1041REMSYN060AAXX  01031 23973 41997 02102 11411 21438 40466 58002 70400;
0122239730999992000010106004+61000+089750FM-12+004699999V0202201N002012200019N0200001N1-04001-04211104531ADDGA1001+999999999GF100991001001999999001001MD1710131+9999REMSYN054AAXX  01061 23973 42998 02202 11400 21421 40453 57013;
0112239730999992000010109004+61000+089750FM-12+004699999V0202001N002012200019N0200001N1-03951-04161104411ADDGF103991001001999999001011MD1710121+9999REMSYN060AAXX  01091 23973 42998 32002 11395 21416 40441 57012 80001;
0186239730999992000010112004+61000+089750FM-12+004699999V0209999C000012200019N0200001N1-03991-04271104341ADDAA106000091GF102991001001999999001011KA1999M-03951MA1999999103601MD1710071+9999REMSYN076AAXX  01121 23973 32998 20000 11399 21427 30360 40434 57007 80001 333 11395;EQDQ01  00002PRCP06
0122239730999992000010115004+61000+089750FM-12+004699999V0209999C000012200019N0500001N1-04391-04611104671ADDGA1001+999999999GF100991001001999999001001MD1710061+9999REMSYN054AAXX  01151 23973 42999 00000 11439 21461 40467 57006;
0122239730999992000010118004+61000+089750FM-12+004699999V0209999C000012200019N0200001N1-04301-04551104051ADDGA1001+999999999GF100991001001999999001001MD1710171+9999REMSYN054AAXX  01181 23973 42998 00000 11430 21455 40405 57017;
0122239730999992000010121004+61000+089750FM-12+004699999V0209999C000012200019N0200001N1-04211-04481104211ADDGA1001+999999999GF100991001001999999001001MD1710131+9999REMSYN054AAXX  01211 23973 42998 00000 11421 21448 40421 57013;
0208239730999992000010200004+61000+089750FM-12+004699999V0209999C000012200019N0200001N1-04411-04691103771ADDAA106000091GA1001+999999999GF100991001001999999001001IA1249KA1120N-04441MA1999999103021MD1710211+9999REMSYN076AAXX  02001 23973 32998 00000 11441 21469 30302 40377 57021 333 21444 48048;EQDQ01  00002PRCP06
0150239730999992000010203004+61000+089750FM-12+004699999V0209999C000012200019N0100001N1-04321-04611103631ADDAY101031AY201031GA1001+999999999GF100991001001999999001001MD1710141+9999MW1041REMSYN060AAXX  02031 23973 41997 00000 11432 21461 40363 57014 70400;
0150239730999992000010206004+61000+089750FM-12+004699999V0209999C000012200019N0100001N1-04351-04611103551ADDAY101061AY201061GA1001+999999999GF100991001001999999001001MD1710081+9999MW1041REMSYN060AAXX  02061 23973 41997 00000 11435 21461 40355 57008 70400;
0150239730999992000010209004+61000+089750FM-12+004699999V0203501N001012200019N0100001N1-04211-04481103521ADDAY101031AY201031GA1001+999999999GF100991001001999999001001MD1710021+9999MW1041REMSYN060AAXX  02091 23973 41997 03501 11421 21448 40352 57002 70400;
0224239730999992000010212004+61000+089750FM-12+004699999V0200101N002012200019N0100001N1-04281-04551103501ADDAA106000091AY101061AY201061GA1001+999999999GF100991001001999999001001KA1999M-04211MA1999999102751MD1710031+9999MW1041REMSYN076AAXX  02121 23973 31997 00102 11428 21455 30275 40350 57003 70400 333 11421;EQDQ01  00002PRCP06
0150239730999992000010215004+61000+089750FM-12+004699999V0209999C000012200019N0100001N1-04361-04611103451ADDAY101031AY201031GA1001+999999999GF100991001001999999001001MD1710051+9999MW1041REMSYN060AAXX  02151 23973 41997 00000 11436 21461 40345 57005 70400;
0122239730999992000010218004+61000+089750FM-12+004699999V0200101N002012200019N0200001N1-04261-04551103411ADDGA1001+999999999GF100991001001999999001001MD1710041+9999REMSYN054AAXX  02181 23973 42998 00102 11426 21455 40341 57004;
0122239730999992000010221004+61000+089750FM-12+004699999V0209999C000012200019N0200001N1-04301-04551103391ADDGA1001+999999999GF100991001001999999001001MD1710021+9999REMSYN054AAXX  02211 23973 42998 00000 11430 21455 40339 57002;
0208239730999992000010300004+61000+089750FM-12+004699999V0209999C000012200019N0200001N1-04201-04331103551ADDAA106000091GA1001+999999999GF100991001001999999001001IA1239KA1120N-04361MA1999999102811MD1310171+9999REMSYN076AAXX  03001 23973 32998 00000 11420 21433 30281 40355 53017 333 21436 47048;EQDQ01  00002PRCP06
0150239730999992000010303004+61000+089750FM-12+004699999V0209999C000012200019N0100001N1-04301-04491103761ADDAY101031AY201031GA1001+999999999GF100991001001999999001001MD1210201+9999MW1041REMSYN060AAXX  03031 23973 41997 00000 11430 21449 40376 52020 70400;
0150239730999992000010306004+61000+089750FM-12+004699999V0209999C000012200019N0100001N1-04271-04491103851ADDAY101061AY201061GA1001+999999999GF100991001001999999001001MD1210091+9999MW1041REMSYN060AAXX  03061 23973 41997 00000 11427 21449 40385 52009 70400;
0150239730999992000010309004+61000+089750FM-12+004699999V0209999C000012200019N0100001N1-04221-04431104031ADDAY101031AY201031GA1001+999999999GF100991001001999999001001MD1210191+9999MW1041REMSYN060AAXX  03091 23973 41997 00000 11422 21443 40403 52019 70400;
0224239730999992000010312004+61000+089750FM-12+004699999V0209999C000012200019N0100001N1-04251-04481104221ADDAA106000091AY101061AY201061GA1001+999999999GF100991001001999999001001KA1999M-04221MA1999999103471MD1210181+9999MW1041REMSYN076AAXX  03121 23973 31997 00000 11425 21448 30347 40422 52018 70400 333 11422;EQDQ01  00002PRCP06
0140239730999992000010315004+61000+089750FM-12+004699999V0209999C000019999999N0100001N1-04241-04481104331ADDAY171031AY211031GF108991001001999999001071MD1210121+9999MW1711REMSYN066AAXX  03151 23973 41997 80000 11424 21448 40433 52012 77171 80007;
0140239730999992000010318004+61000+089750FM-12+004699999V0209999C000019999999N0100001N1-04341-04621104371ADDAY171061AY211061GF108991001001999999001071MD1210021+9999MW1711REMSYN066AAXX  03181 23973 41997 80000 11434 21462 40437 52002 77171 80007;
0140239730999992000010321004+61000+089750FM-12+004699999V0209999C000019999999N0100001N1-04391-04611104471ADDAY171031AY221031GF108991001001999999001071MD1210101+9999MW1711REMSYN066AAXX  03211 23973 41997 80000 11439 21461 40447 52010 77172 80007;
0223239730999992000010400004+61000+089750FM-12+004699999V0209999C000012200019N0200001N1-04581-04851104661ADDAA112000391AY171061AY211061GA1001+999999999GF100991001001999999001001IA1249KA1120N-04581MA1999999103901MD1210191+9999MW1011REMSYN088AAXX  04001 23973 11998 00000 11458 21485 30390 40466 52019 69932 70171 333 21458 48048;
0150239730999992000010403004+61000+089750FM-12+004699999V0209999C000012200019N0100001N1-04671-04941104731ADDAY101031AY201031GA1001+999999999GF100991001001999999001001MD1210071+9999MW1041REMSYN060AAXX  04031 23973 41997 00000 11467 21494 40473 52007 70400;
0150239730999992000010406004+61000+089750FM-12+004699999V0209999C000012200019N0100001N1-04581-04851104821ADDAY101061AY201061GA1001+999999999GF100991001001999999001001MD1210091+9999MW1041REMSYN060AAXX  04061 23973 41997 00000 11458 21485 40482 52009 70400;
0150239730999992000010409004+61000+089750FM-12+004699999V0209999C000012200019N0100001N1-04431-04691105001ADDAY101031AY201031GA1001+999999999GF100991001001999999001001MD1210181+9999MW1041REMSYN060AAXX  04091 23973 41997 00000 11443 21469 40500 52018 70400;
0196239730999992000010412004+61000+089750FM-12+004699999V0209999C000012200019N0100001N1-04501-04761105141ADDAA106000091GA1001+999999999GF100991001001999999001001KA1999M-04431MA1999999104381MD1210141+9999REMSYN070AAXX  04121 23973 32997 00000 11450 21476 30438 40514 52014 333 11443;EQDQ01  00002PRCP06
0150239730999992000010415004+61000+089750FM-12+004699999V0209999C000012200019N0100001N1-04561-04851105211ADDAY101031AY201031GA1001+999999999GF100991001001999999001001MD1210071+9999MW1041REMSYN060AAXX  04151 23973 41597 00000 11456 21485 40521 52007 70400;
0150239730999992000010418004+61000+089750FM-12+004699999V0209999C000012200019N0100001N1-04681-04941105331ADDAY101061AY201061GA1001+999999999GF100991001001999999001001MD1210111+9999MW1041REMSYN060AAXX  04181 23973 41997 00000 11468 21494 40533 52011 70400;
0150239730999992000010421004+61000+089750FM-12+004699999V0209999C000012200019N0100001N1-04761-05051105411ADDAY101031AY201031GA1001+999999999GF100991001001999999001001MD1210081+9999MW1041REMSYN060AAXX  04211 23973 41997 00000 11476 21505 40541 52008 70400;
0208239730999992000010500004+61000+089750FM-12+004699999V0209999C000012200019N0200001N1-04801-05051105481ADDAA106000091GA1001+999999999GF100991001001999999001001IA1249KA1120N-04801MA1999999104711MD1210071+9999REMSYN076AAXX  05001 23973 32998 00000 11480 21505 30471 40548 52007 333 21480 48048;EQDQ01  00002PRCP06
0122239730999992000010503004+61000+089750FM-12+004699999V0209999C000012200019N0200001N1-04891-05161105491ADDGA1001+999999999GF100991001001999999001001MD1410001+9999REMSYN054AAXX  05031 23973 42998 00000 11489 21516 40549 54000;
0122239730999992000010506004+61000+089750FM-12+004699999V0209999C000012200019N0200001N1-04641-04851105491ADDGA1001+999999999GF100991001001999999001001MD1310011+9999REMSYN054AAXX  05061 23973 42998 00000 11464 21485 40549 53001;
0122239730999992000010509004+61000+089750FM-12+004699999V0209999C000012200019N0200001N1-04511-04761105531ADDGA1001+999999999GF100991001001999999001001MD1210041+9999REMSYN054AAXX  05091 23973 42998 00000 11451 21476 40553 52004;
0196239730999992000010512004+61000+089750FM-12+004699999V0209999C000012200019N0200001N1-04581-04851105561ADDAA106000091GA1001+999999999GF100991001001999999001001KA1999M-04511MA1999999104791MD1210031+9999REMSYN070AAXX  05121 23973 32998 00000 11458 21485 30479 40556 52003 333 11451;EQDQ01  00002PRCP06
0122239730999992000010515004+61000+089750FM-12+004699999V0209999C000012200019N0200001N1-04521-04761105471ADDGA1001+999999999GF100991001001999999001001MD1810091+9999REMSYN054AAXX  05151 23973 42998 00000 11452 21476 40547 58009;
0122239730999992000010518004+61000+089750FM-12+004699999V0209999C000012200019N0200001N1-04671-04851105431ADDGA1001+999999999GF100991001001999999001001MD1710041+9999REMSYN054AAXX  05181 23973 42998 00000 11467 21485 40543 57004;
0122239730999992000010521004+61000+089750FM-12+004699999V0209999C000012200019N0200001N1-04611-04861105281ADDGA1001+999999999GF100991001001999999001001MD1710151+9999REMSYN054AAXX  05211 23973 42998 00000 11461 21486 40528 57015;
0150239730999992000010603004+61000+089750FM-12+004699999V0200501N003012200019N0100001N1-04441-04691104941ADDAY101031AY201031GA1001+999999999GF100991001001999999001001MD1710191+9999MW1041REMSYN060AAXX  06031 23973 41997 00503 11444 21469 40494 57019 70400;
0150239730999992000010606004+61000+089750FM-12+004699999V0200501N001012200019N0100001N1-04301-04551104711ADDAY101061AY201061GA1001+999999999GF100991001001999999001001MD1710231+9999MW1041REMSYN060AAXX  06061 23973 41997 00501 11430 21455 40471 57023 70400;
0150239730999992000010609004+61000+089750FM-12+004699999V0200401N002012200019N0100001N1-03991-04271104541ADDAY101031AY201031GA1001+999999999GF100991001001999999001001MD1710151+9999MW1041REMSYN060AAXX  06091 23973 41997 00402 11399 21427 40454 57015 70400;
0212239730999992000010612004+61000+089750FM-12+004699999V0209999C000012200019N0200001N1-03941-04161104351ADDAA106000091GA1001+999999999GF100991001001999999001001KA1999M+99999MA1999999103611MD1710191+9999REMSYN070AAXX  06121 23973 32998 00000 11394 21416 30361 40435 57019 333 11457;EQDQ01  00002PRCP06Q02 -04572ATMX  
0150239730999992000010615004+61000+089750FM-12+004699999V0200401N003012200019N0100001N1-03881-04111104221ADDAY101031AY201031GA1001+999999999GF100991001001999999001001MD1710131+9999MW1041REMSYN060AAXX  06151 23973 41997 00403 11388 21411 40422 57013 70400;
0122239730999992000010621004+61000+089750FM-12+004699999V0200501N002012200019N0500001N1-03441-03671103991ADDGA1001+999999999GF100991001001999999001001MD1710071+9999REMSYN054AAXX  06211 23973 42999 00502 11344 21367 40399 57007;
0208239730999992000010700004+61000+089750FM-12+004699999V0200101N002012200019N0500001N1-03631-03841103871ADDAA106000091GA1001+999999999GF100991001001999999001001IA1249KA1120N-03961MA1999999103151MD1710121+9999REMSYN076AAXX  07001 23973 32999 00102 11363 21384 30315 40387 57012 333 21396 48048;EQDQ01  00002PRCP06
0122239730999992000010703004+61000+089750FM-12+004699999V0200201N003012200019N0500001N1-03481-03701103711ADDGA1001+999999999GF100991001001999999001001MD1710161+9999REMSYN054AAXX  07031 23973 42999 00203 11348 21370 40371 57016;
0112239730999992000010706004+61000+089750FM-12+004699999V0200101N002012200019N0500001N1-03461-03671103601ADDGF102991001001999999001011MD1710111+9999REMSYN060AAXX  07061 23973 42999 20102 11346 21367 40360 57011 80001;
0112239730999992000010709004+61000+089750FM-12+004699999V0200301N004019999999N0500001N1-03061-03291103461ADDGF106991001001999999001021MD1710131+9999REMSYN060AAXX  07091 23973 42999 60304 11306 21329 40346 57013 80002;
0186239730999992000010712004+61000+089750FM-12+004699999V0200201N003012200019N0500001N1-03321-03561103311ADDAA106000091GF103991001001999999001021KA1999M-03061MA1999999102591MD1710161+9999REMSYN076AAXX  07121 23973 32999 30203 11332 21356 30259 40331 57016 80002 333 11306;EQDQ01  00002PRCP06
0122239730999992000010715004+61000+089750FM-12+004699999V0200401N002012200019N0500001N1-03411-03641103181ADDGA1001+999999999GF100991001001999999001001MD1710121+9999REMSYN054AAXX  07151 23973 42999 00402 11341 21364 40318 57012;
0122239730999992000010718004+61000+089750FM-12+004699999V0201201N002012200019N0500001N1-04401-04631103181ADDGA1001+999999999GF100991001001999999001001MD1710041+9999REMSYN054AAXX  07181 23973 42999 01202 11440 21463 40318 57004;
0122239730999992000010721004+61000+089750FM-12+004699999V0209999C000012200019N0500001N1-03871-04071103161ADDGA1001+999999999GF100991001001999999001001MD1410001+9999REMSYN054AAXX  07211 23973 42999 00000 11387 21407 40316 54000;
0208239730999992000010800004+61000+089750FM-12+004699999V0209999C000012200019N0500001N1-03551-03771103161ADDAA106000091GA1001+999999999GF100991001001999999001001IA1239KA1120N-04481MA1999999102461MD1310021+9999REMSYN076AAXX  08001 23973 32999 00000 11355 21377 30246 40316 53002 333 21448 47076;EQDQ01  00002PRCP06
0112239730999992000010803004+61000+089750FM-12+004699999V0209999C000012200019N0500001N1-03891-04111103251ADDGF103991001001999999001021MD1210061+9999REMSYN060AAXX  08031 23973 42999 30000 11389 21411 40325 52006 80002;
0112239730999992000010806004+61000+089750FM-12+004699999V0209999C000012200019N0500001N1-03751-03991103191ADDGF102991001001999999001021MD1810041+9999REMSYN060AAXX  08061 23973 42999 20000 11375 21399 40319 58004 80002;
0112239730999992000010809004+61000+089750FM-12+004699999V0209999C000012200019N0500001N1-03571-03801103141ADDGF102991001001999999001021MD1710041+9999REMSYN060AAXX  08091 23973 42999 20000 11357 21380 40314 57004 80002;
0186239730999992000010812004+61000+089750FM-12+004699999V0209999C000012200019N0500001N1-03711-03951103101ADDAA106000091GF103991001001999999001021KA1999M-03571MA1999999102391MD1710041+9999REMSYN076AAXX  08121 23973 32999 30000 11371 21395 30239 40310 57004 80002 333 11357;EQDQ01  00002PRCP06
0122239730999992000010815004+61000+089750FM-12+004699999V0209999C000012200019N0500001N1-03801-04031103001ADDGA1001+999999999GF100991001001999999001001MD1710121+9999REMSYN054AAXX  08151 23973 42999 00000 11380 21403 40300 57012;
0141239730999992000010818004+61000+089750FM-12+004699999V0209999C000012200019N0500001N1-04021-04211999999ADDGA1001+999999999GF100991001001999999001001MD1710081+9999REMSYN054AAXX  08181 23973 41999 00000 11402 21421 40392 57008;EQDQ01+103923APOSLP
0122239730999992000010821004+61000+089750FM-12+004699999V0209999C000012200019N0500001N1-04071-04261102851ADDGA1001+999999999GF100991001001999999001001MD1710071+9999REMSYN054AAXX  08211 23973 42999 00000 11407 21426 40285 57007;
0208239730999992000010900004+61000+089750FM-12+004699999V0209999C000012200019N0500001N1-03841-04071102841ADDAA106000091GA1001+999999999GF100991001001999999001001IA1249KA1120N-04081MA1999999102111MD1710011+9999REMSYN076AAXX  09001 23973 32999 00000 11384 21407 30211 40284 57001 333 21408 48048;EQDQ01  00002PRCP06
0112239730999992000010903004+61000+089750FM-12+004699999V0209999C000012200019N0500001N1-03821-04031102801ADDGF103991001001999999001011MD1710041+9999REMSYN060AAXX  09031 23973 42999 30000 11382 21403 40280 57004 80001;
0140239730999992000010909004+61000+089750FM-12+004699999V0209999C000019999999N0100001N1-03841-04071102981ADDAY111031AY211031GF106991001001999999001011MD1210101+9999MW1041REMSYN066AAXX  09091 23973 41997 60000 11384 21407 40298 52010 70411 80001;
0214239730999992000010912004+61000+089750FM-12+004699999V0209999C000019999999N0100001N1-03881-04111103101ADDAA106000091AY111061AY211061GF105991001001999999001011KA1999M-03821MA1999999102371MD1210121+9999MW1041REMSYN082AAXX  09121 23973 31997 50000 11388 21411 30237 40310 52012 70411 80001 333 11382;EQDQ01  00002PRCP06
0150239730999992000010915004+61000+089750FM-12+004699999V0209999C000012200019N0100001N1-03951-04161103211ADDAY111031AY211031GA1001+999999999GF100991001001999999001001MD1210111+9999MW1041REMSYN060AAXX  09151 23973 41997 00000 11395 21416 40321 52011 70411;
0140239730999992000010918004+61000+089750FM-12+004699999V0209999C000019999999N0100001N1-03841-04071103281ADDAY171061AY211061GF108991001001999999001071MD1210061+9999MW1711REMSYN066AAXX  09181 23973 41997 80000 11384 21407 40328 52006 77171 80007;
0140239730999992000010921004+61000+089750FM-12+004699999V0202301N002019999999N0100001N1-03691-03911103301ADDAY171031AY221031GF108991001001999999001071MD1210041+9999MW1711REMSYN066AAXX  09211 23973 41997 82302 11369 21391 40330 52004 77172 80007;
0213239730999992000011000004+61000+089750FM-12+004699999V0202101N002019999999N0500001N1-03721-03951103301ADDAA112000791AY171061AY221061GF108991001001999999001081IA1249KA1120N-04011MA1999999102581MD1410001+9999MW1021REMSYN094AAXX  10001 23973 11999 82102 11372 21395 30258 40330 54000 69902 70272 80008 333 21401 48048;
0122239730999992000011003004+61000+089750FM-12+004699999V0202001N002012200019N0500001N1-03711-03951103191ADDGA1001+999999999GF100991001001999999001001MD1810101+9999REMSYN054AAXX  10031 23973 42999 02002 11371 21395 40319 58010;
0112239730999992000011006004+61000+089750FM-12+004699999V0201901N001019999999N0500001N1-03411-03641102961ADDGF108991001001999999001081MD1710231+9999REMSYN060AAXX  10061 23973 42999 81901 11341 21364 40296 57023 80008;
0140239730999992000011009004+61000+089750FM-12+004699999V0209999C000019999999N0100001N1-03151-03381102681ADDAY171031AY221031GF108991001001999999001071MD1710271+9999MW1711REMSYN066AAXX  10091 23973 41997 80000 11315 21338 40268 57027 77172 80007;
0201239730999992000011012004+61000+089750FM-12+004699999V0202101N003019999999N0100001N1-02611-02851102361ADDAA112000191AY171061AY221061GF108991001001999999001071KA1999M-02611MA1999999101671MD1710311+9999MW1711REMSYN088AAXX  10121 23973 11997 82103 11261 21285 30167 40236 57031 69922 77172 80007 333 11261;
0140239730999992000011018004+61000+089750FM-12+004699999V0202001N006019999999N0100001N1-02211-02401101781ADDAY171061AY221061GF108991081001999999021999MD1710251+9999MW1711REMSYN066AAXX  10181 23973 41997 82006 11221 21240 40178 57025 77172 8802/;
0140239730999992000011021004+61000+089750FM-12+004699999V0202101N007019999999N0100001N1-02361-02551102041ADDAY171031AY221031GF108991081001999999021999MD1710311+9999MW1711REMSYN066AAXX  10211 23973 41997 82107 11236 21255 40204 57031 77172 8802/;
0213239730999992000011100004+61000+089750FM-12+004699999V0202101N005019999999N0100001N1-01811-02001101431ADDAA112007191AY171061AY221061GF108991081001999999011999IA1249KA1120N-02611MA1999999100771MD1710121+9999MW1711REMSYN094AAXX  11001 23973 11997 82105 11181 21200 30077 40143 57012 60072 77172 8801/ 333 21261 48048;
0140239730999992000011103004+61000+089750FM-12+004699999V0202001N005019999999N0100001N1-01601-01791101341ADDAY171031AY221031GF108991081001999999011999MD1710071+9999MW1711REMSYN066AAXX  11031 23973 41997 82005 11160 21179 40134 57007 77172 8801/;
0140239730999992000011106004+61000+089750FM-12+004699999V0202101N005019999999N0100001N1-01391-01591101211ADDAY171061AY221061GF108991081001999999011999MD1710131+9999MW1711REMSYN066AAXX  11061 23973 41997 82105 11139 21159 40121 57013 77172 8801/;
0140239730999992000011109004+61000+089750FM-12+004699999V0202001N005019999999N0100001N1-01261-01391101191ADDAY171031AY221031GF108991001001999999001071MD1710011+9999MW1711REMSYN066AAXX  11091 23973 41997 82005 11126 21139 40119 57001 77172 80007;
0207239730999992000011112004+61000+089750FM-12+004699999V0202101N006019999999N0100001N1-01121-01251101191ADDAA112002091AY171061AY231061GF108991081001999999021999KA1120M-01121MA1999999100551MD1410001+9999MW1711REMSYN094AAXX  11121 23973 11997 82106 11112 21125 30055 40119 54000 60022 77173 8802/ 333 11112 91112;
0150239730999992000011115004+61000+089750FM-12+004699999V0202201N007019999999N0100001N1-01031-01171101201ADDAY171031AY231031GF108991081001999999021999MD1310011+9999MW1711REMSYN076AAXX  11151 23973 41997 82207 11103 21117 40120 53001 77173 8802/ 333 91112;
0140239730999992000011118004+61000+089750FM-12+004699999V0202101N006019999999N0100001N1-01141-01271101151ADDAY171061AY231061GF108991081001999999021999MD1810051+9999MW1711REMSYN066AAXX  11181 23973 41997 82106 11114 21127 40115 58005 77173 8802/;
0140239730999992000011121004+61000+089750FM-12+004699999V0202001N008019999999N0100001N1-01111-01241101171ADDAY171031AY231031GF108991081001999999021999MD1310021+9999MW1711REMSYN066AAXX  11211 23973 41997 82008 11111 21124 40117 53002 77173 8802/;
0236239730999992000011200004+61000+089750FM-12+004699999V0202101N006019999999N0100001N1-01041-01171101181ADDAA112002091AJ100509199999999AY171061AY231061GF108991081001999999021999IA1249KA1120N-01141MA1999999100541MD1210011+9999MW1711REMSYN100AAXX  12001 23973 11997 82106 11104 21117 30054 40118 52001 60022 77173 8802/ 333 21114 48050 91112;
0150239730999992000011203004+61000+089750FM-12+004699999V0202201N006019999999N0100001N1-01041-01241101161ADDAY171031AY231031GF108991081001999999021999MD1810021+9999MW1711REMSYN076AAXX  12031 23973 41997 82206 11104 21124 40116 58002 77173 8802/ 333 91112;
0140239730999992000011209004+61000+089750FM-12+004699999V0202201N004019999999N0100001N1-01001-01131101091ADDAY171031AY231031GF108991081001999999021999MD1710041+9999MW1711REMSYN066AAXX  12091 23973 41997 82204 11100 21113 40109 57004 77173 8802/;
0201239730999992000011212004+61000+089750FM-12+004699999V0202201N006019999999N0100001N1-00991-01111101051ADDAA112001091AY171061AY231061GF108991081001999999021999KA1999M-00991MA1999999100421MD1710041+9999MW1711REMSYN088AAXX  12121 23973 11997 82206 11099 21111 30042 40105 57004 60012 77173 8802/ 333 11099;
0140239730999992000011215004+61000+089750FM-12+004699999V0202101N005019999999N0100001N1-00951-01071101001ADDAY171031AY231031GF108991081001999999021999MD1710051+9999MW1711REMSYN066AAXX  12151 23973 41997 82105 11095 21107 40100 57005 77173 8802/;
0140239730999992000011218004+61000+089750FM-12+004699999V0202201N006019999999N0100001N1-00941-01101100881ADDAY171061AY231061GF108991081001999999021999MD1710121+9999MW1711REMSYN066AAXX  12181 23973 41997 82206 11094 21110 40088 57012 77173 8802/;
0150239730999992000011221004+61000+089750FM-12+004699999V0202401N006019999999N0100001N1-00941-01061100811ADDAY171031AY231031GF108991081001999999021999MD1710071+9999MW1711REMSYN076AAXX  12211 23973 41997 82406 11094 21106 40081 57007 77173 8802/ 333 91112;
0213239730999992000011300004+61000+089750FM-12+004699999V0202301N005019999999N0100001N1-00971-01091100781ADDAA112001091AY171061AY231061GF108991081001999999021999IA1249KA1120N-00991MA1999999100151MD1710031+9999MW1711REMSYN094AAXX  13001 23973 11997 82305 11097 21109 30015 40078 57003 69992 77173 8802/ 333 21099 48058;
0140239730999992000011303004+61000+089750FM-12+004699999V0202301N004019999999N0500001N1-01281-01481100891ADDAY171031AY231031GF108991041001999999051071MD1310091+9999MW1221REMSYN066AAXX  13031 23973 41999 82304 11128 21148 40089 53009 72273 84057;
0140239730999992000011306004+61000+089750FM-12+004699999V0203401N002010075019N0100001N1-01481-01681100991ADDAY181061AY271061GF107991071091008001001001MD1210101+9999MW1851REMSYN066AAXX  13061 23973 41597 73402 11148 21168 40099 52010 78587 87900;
0140239730999992000011309004+61000+089750FM-12+004699999V0203601N002010075019N0100001N1-01681-01871101121ADDAY121031AY221031GF107991071091008001001001MD1210131+9999MW1851REMSYN066AAXX  13091 23973 41597 73602 11168 21187 40112 52013 78522 87900;
0220239730999992000011312004+61000+089750FM-12+004699999V0203601N003010075019N0100001N1-01821+99999101271ADDAA112000591AY181061AY221061GF107991071091008001001001KA1999M+99999MA1999999100601MD1210131+9999MW1851REMSYN088AAXX  13121 23973 11597 73603 11182 21101 30060 40127 52013 69952 78582 87900 333 11197;EQDQ01 -01972ATMX  
0140239730999992000011315004+61000+089750FM-12+004699999V0203501N004010075019N0100001N1-02121-02301101431ADDAY181031AY221031GF106991061091008001001001MD1210161+9999MW1851REMSYN066AAXX  13151 23973 41597 63504 11212 21230 40143 52016 78582 86900;
0150239730999992000011318004+61000+089750FM-12+004699999V0203301N006012200019N0500001N1-02571-02741101681ADDAY181061AY211061GA1001+999999999GF100991001001999999001001MD1210241+9999MW1021REMSYN060AAXX  13181 23973 41999 03306 11257 21274 40168 52024 70281;
0126239730999992000011321004+61000+089750FM-12+004699999V0203401N004012200019N0500001N1-03261-03421101941ADDGA1001+999999999GF100991001001999999001001MD1210231+9999REMSYN058    AAXX  13211 23973 42999 03404 11326 21342 40194 52023;
0216239730999992000011400004+61000+089750FM-12+004699999V0203501N002012200019N0500001N1-03451-03671102091ADDAA112000391AJ100599199999999GA1001+999999999GF100991001001999999001001IA1249KA1120N-03451MA1999999101381MD1210151+9999REMSYN086    AAXX  14001 23973 12999 03502 11345 21367 30138 40209 52015 69932 333 21345 48059;
0126239730999992000011403004+61000+089750FM-12+004699999V0203501N001012200019N0500001N1-03621-03841102231ADDGA1001+999999999GF100991001001999999001001MD1210141+9999REMSYN058    AAXX  14031 23973 42999 03501 11362 21384 40223 52014;
0126239730999992000011406004+61000+089750FM-12+004699999V0209999C000012200019N0500001N1-03631-03841102311ADDGA1001+999999999GF100991001001999999001001MD1210081+9999REMSYN058    AAXX  14061 23973 42999 00000 11363 21384 40231 52008;
0126239730999992000011409004+61000+089750FM-12+004699999V0209999C000012200019N0500001N1-03601-03841102261ADDGA1001+999999999GF100991001001999999001001MD1810051+9999REMSYN058    AAXX  14091 23973 42999 00000 11360 21384 40226 58005;
0200239730999992000011412004+61000+089750FM-12+004699999V0209999C000012200019N0500001N1-03591-03801102281ADDAA199000091GA1001+999999999GF100991001001999999001001KA1999M-03591MA1999999101571MD1310021+9999REMSYN074    AAXX  14121 23973 32999 00000 11359 21380 30157 40228 53002 333 11359;EQDQ01  00002PRCP99
0126239730999992000011415004+61000+089750FM-12+004699999V0209999C000012200019N0500001N1-03541-03831102091ADDGA1001+999999999GF100991001001999999001001MD1810191+9999REMSYN058    AAXX  14151 23973 42999 00000 11354 21383 40209 58019;
0126239730999992000011418004+61000+089750FM-12+004699999V0200101N002012200019N0500001N1-03221-03461101811ADDGA1001+999999999GF100991001001999999001001MD1710261+9999REMSYN058    AAXX  14181 23973 42999 00102 11322 21346 40181 57026;
0144239730999992000011421004+61000+089750FM-12+004699999V0209999C000019999999N0100001N1-02871-03121101531ADDAY171031AY211031GF108991001001999999001071MD1710281+9999MW1711REMSYN070    AAXX  14211 23973 41997 80000 11287 21312 40153 57028 77171 80007;
0234239730999992000011500004+61000+089750FM-12+004699999V0209999C000019999999N0100001N1-02381-02561101341ADDAA112000891AJ100609199999999AY171061AY211061GF108991081001999999011999IA1249KA1120N-03591MA1999999100661MD1710181+9999MW1711REMSYN098    AAXX  15001 23973 11997 80000 11238 21256 30066 40134 57018 69972 77171 8801/ 333 21359 48060;
0154239730999992000011503004+61000+089750FM-12+004699999V0201501N006019999999N0100001N1-01361-01561101131ADDAY171031AY221031GF107991071001999999071999MD1710181+9999MW1711REMSYN080    AAXX  15031 23973 41997 71506 11136 21156 40113 57018 77172 8707/ 333 91112;
0154239730999992000011506004+61000+089750FM-12+004699999V0201601N007019999999N0100001N1-01171-01371100861ADDAY171061AY231061GF107991071001999999071999MD1710251+9999MW1711REMSYN080    AAXX  15061 23973 41997 71607 11117 21137 40086 57025 77173 8707/ 333 91112;
0154239730999992000011509004+61000+089750FM-12+004699999V0201801N005019999999N0100001N1-01141-01271100741ADDAY171031AY231031GF107991071001999999071999MD1710121+9999MW1711REMSYN080    AAXX  15091 23973 41997 71805 11114 21127 40074 57012 77173 8707/ 333 91112;
0205239730999992000011512004+61000+089750FM-12+004699999V0201801N004019999999N0100001N1-01171-01301100671ADDAA112000591AY171061AY231061GF108991081001999999011999KA1999M-01141MA1999999100041MD1710071+9999MW1711REMSYN092    AAXX  15121 23973 11997 81804 11117 21130 30004 40067 57007 69952 77173 8801/ 333 11114;
0144239730999992000011515004+61000+089750FM-12+004699999V0201801N004019999999N0100001N1-01011-01141100571ADDAY171031AY221031GF108991081001999999011999MD1710101+9999MW1711REMSYN070    AAXX  15151 23973 41997 81804 11101 21114 40057 57010 77172 8801/;
0144239730999992000011518004+61000+089750FM-12+004699999V0201801N004019999999N0100001N1-01001-01131100491ADDAY171061AY221061GF108991081001999999021999MD1710081+9999MW1711REMSYN070    AAXX  15181 23973 41997 81804 11100 21113 40049 57008 77172 8802/;
0144239730999992000011521004+61000+089750FM-12+004699999V0201801N005019999999N0100001N1-00871-00981100421ADDAY171031AY221031GF108991081001999999021999MD1710071+9999MW1711REMSYN070    AAXX  15211 23973 41997 81805 11087 21098 40042 57007 77172 8802/;
0234239730999992000011600004+61000+089750FM-12+004699999V0201901N004019999999N0100001N1-00851-00961100471ADDAA112000591AJ100609199999999AY171061AY221061GF108991081001999999011999IA1249KA1120N-01211MA1999999099841MD1310051+9999MW1711REMSYN098    AAXX  16001 23973 11997 81904 11085 21096 39984 40047 53005 69962 77172 8801/ 333 21121 48060;
0144239730999992000011603004+61000+089750FM-12+004699999V0201801N003019999999N0100001N1-00841-00941100531ADDAY171031AY221031GF108991081001999999021999MD1210061+9999MW1711REMSYN070    AAXX  16031 23973 41997 81803 11084 21094 40053 52006 77172 8802/;
0144239730999992000011606004+61000+089750FM-12+004699999V0203301N006019999999N0100001N1-01101-01231100681ADDAY171061AY221061GF108991081001999999021999MD1210151+9999MW1711REMSYN070    AAXX  16061 23973 41997 83306 11110 21123 40068 52015 77172 8802/;
0144239730999992000011609004+61000+089750FM-12+004699999V0203001N005019999999N0100001N1-01481-01611101041ADDAY171031AY221031GF108991081001999999021999MD1210241+9999MW1711REMSYN070    AAXX  16091 23973 41997 83005 11148 21161 40104 52024 77172 8802/;
0205239730999992000011612004+61000+089750FM-12+004699999V0203001N004019999999N0100001N1-02141-02391101611ADDAA112003091AY171061AY221061GF108991001001999999001071KA1999M-00841MA1999999100941MD1210551+9999MW1711REMSYN092    AAXX  16121 23973 11997 83004 11214 21239 30094 40161 52055 60032 77172 80007 333 11084;
0144239730999992000011615004+61000+089750FM-12+004699999V0202501N003019999999N0500001N1-02591-02841102071ADDAY171031AY221031GF108991001001999999001081MD1210451+9999MW1021REMSYN070    AAXX  16151 23973 41999 82503 11259 21284 40207 52045 70272 80008;
0154239730999992000011618004+61000+089750FM-12+004699999V0209999C000012200019N0500001N1-02871-03121102411ADDAY171061AY211061GA1001+999999999GF100991001001999999001001MD1210321+9999MW1021REMSYN064    AAXX  16181 23973 41999 00000 11287 21312 40241 52032 70271;
0126239730999992000011621004+61000+089750FM-12+004699999V0202101N002012200019N0500001N1-03221-03511102761ADDGA1001+999999999GF100991001001999999001001MD1210351+9999REMSYN058    AAXX  16211 23973 42999 02102 11322 21351 40276 52035;
0216239730999992000011700004+61000+089750FM-12+004699999V0202001N002012200019N0500001N1-03391-03611103041ADDAA112000791AJ100629199999999GA1001+999999999GF100991001001999999001001IA1249KA1120N-03391MA1999999102331MD1210241+9999REMSYN086    AAXX  17001 23973 12999 02002 11339 21361 30233 40304 52024 69902 333 21339 48062;
0126239730999992000011703004+61000+089750FM-12+004699999V0201901N001012200019N0500001N1-03491-03701103241ADDGA1001+999999999GF100991001001999999001001MD1210191+9999REMSYN058    AAXX  17031 23973 42999 01901 11349 21370 40324 52019;
0126239730999992000011706004+61000+089750FM-12+004699999V0201901N003012200019N0500001N1-03211-03431103321ADDGA1001+999999999GF100991001001999999001001MD1210091+9999REMSYN058    AAXX  17061 23973 42999 01903 11321 21343 40332 52009;
0126239730999992000011709004+61000+089750FM-12+004699999V0202001N004012200019N0500001N1-03141-03361103371ADDGA1001+999999999GF100991001001999999001001MD1210051+9999REMSYN058    AAXX  17091 23973 42999 02004 11314 21336 40337 52005;
0200239730999992000011712004+61000+089750FM-12+004699999V0202001N005012200019N0500001N1-03051-03271103361ADDAA199000091GA1001+999999999GF100991001001999999001001KA1999M-03051MA1999999102651MD1810011+9999REMSYN074    AAXX  17121 23973 32999 02005 11305 21327 30265 40336 58001 333 11305;EQDQ01  00002PRCP99
0136239730999992000011715004+61000+089750FM-12+004699999V0202101N006012200019N0500001N1-02951-03191103231ADDGA1001+999999999GF100991001001999999001001MD1710131+9999REMSYN068    AAXX  17151 23973 42999 02106 11295 21319 40323 57013 333 91112;
0136239730999992000011718004+61000+089750FM-12+004699999V0202201N007012200019N0500001N1-02771-03011103061ADDGA1001+999999999GF100991001001999999001001MD1710161+9999REMSYN068    AAXX  17181 23973 42999 02207 11277 21301 40306 57016 333 91112;
0136239730999992000011721004+61000+089750FM-12+004699999V0202101N006012200019N0500001N1-02581-02821102751ADDGA1001+999999999GF100991001001999999001001MD1710311+9999REMSYN068    AAXX  17211 23973 42999 02106 11258 21282 40275 57031 333 91112;
0219239730999992000011800004+61000+089750FM-12+004699999V0202001N005019999999N0500001N1-02481-02731102451ADDAA199000091AJ100609199999999GF108991081001999999011999IA1249KA1120N-03051MA1999999101761MD1710291+9999REMSYN086    AAXX  18001 23973 32999 82005 11248 21273 30176 40245 57029 8801/ 333 21305 48060;EQDQ01  00002PRCP99
0154239730999992000011803004+61000+089750FM-12+004699999V0202101N006019999999N0100001N1-02051-02301102181ADDAY171031AY231031GF108991081001999999021999MD1710251+9999MW1711REMSYN080    AAXX  18031 23973 41997 82106 11205 21230 40218 57025 77173 8802/ 333 91112;
0144239730999992000011806004+61000+089750FM-12+004699999V0202101N005019999999N0100001N1-02031-02281102081ADDAY171061AY231061GF108991081001999999021999MD1710101+9999MW1711REMSYN070    AAXX  18061 23973 41997 82105 11203 21228 40208 57010 77173 8802/;
0144239730999992000011809004+61000+089750FM-12+004699999V0202201N003019999999N0100001N1-02041-02291102051ADDAY171031AY221031GF108991001001999999001081MD1710031+9999MW1711REMSYN070    AAXX  18091 23973 41997 82203 11204 21229 40205 57003 77172 80008;
0205239730999992000011812004+61000+089750FM-12+004699999V0202301N003019999999N0100001N1-02091-02281102061ADDAA112002091AY171061AY221061GF107991071001999999071999KA1999M-02031MA1999999101391MD1310011+9999MW1711REMSYN092    AAXX  18121 23973 11997 72303 11209 21228 30139 40206 53001 60022 77172 8707/ 333 11203;
0144239730999992000011815004+61000+089750FM-12+004699999V0202301N003019999999N0100001N1-01941-02131102021ADDAY171031AY221031GF107991071001999999071999MD1810041+9999MW1711REMSYN070    AAXX  18151 23973 41997 72303 11194 21213 40202 58004 77172 8707/;
0144239730999992000011818004+61000+089750FM-12+004699999V0202301N002019999999N0100001N1-02021-02211102021ADDAY171061AY221061GF108991081001999999011999MD1410001+9999MW1711REMSYN070    AAXX  18181 23973 41997 82302 11202 21221 40202 54000 77172 8801/;
0144239730999992000011821004+61000+089750FM-12+004699999V0202401N001019999999N0100001N1-01941-02131101961ADDAY171031AY221031GF107991071001999999071999MD1810061+9999MW1711REMSYN070    AAXX  18211 23973 41997 72401 11194 21213 40196 58006 77172 8707/;
0234239730999992000011900004+61000+089750FM-12+004699999V0209999C000019999999N0100001N1-01881-02071101951ADDAA112000191AJ100609199999999AY171061AY221061GF108991081001999999011999IA1249KA1120N-02091MA1999999101281MD1710011+9999MW1711REMSYN098    AAXX  19001 23973 11997 80000 11188 21207 30128 40195 57001 69922 77172 8801/ 333 21209 48060;
0144239730999992000011903004+61000+089750FM-12+004699999V0209999C000019999999N0100001N1-02011-02201101961ADDAY171031AY221031GF107991071001999999071999MD1310011+9999MW1711REMSYN070    AAXX  19031 23973 41997 70000 11201 21220 40196 53001 77172 8707/;
0144239730999992000011906004+61000+089750FM-12+004699999V0209999C000019999999N0500001N1-02131-02311102001ADDAY171061AY221061GF108991001001999999001081MD1210041+9999MW1021REMSYN070    AAXX  19061 23973 41999 80000 11213 21231 40200 52004 70272 80008;
0116239730999992000011909004+61000+089750FM-12+004699999V0209999C000012200019N0500001N1-02281-02461102081ADDGF103991031001999999031001MD1210071+9999REMSYN064    AAXX  19091 23973 42999 30000 11228 21246 40208 52007 83030;
0177239730999992000011912004+61000+089750FM-12+004699999V0209999C000019999999N0500001N1-02201-02381102261ADDAA112000191GF108991001001999999001081KA1999M-01881MA1999999101591MD1210191+9999REMSYN086    AAXX  19121 23973 12999 80000 11220 21238 30159 40226 52019 69922 80008 333 11188;
0112239730999992000011915004+61000+089750FM-12+004699999V0209999C000019999999N0500001N1-02241-02421102371ADDGF107991071001999999051001MD1210111+9999REMSYN060AAXX  19151 23973 42999 70000 11224 21242 40237 52011 87050;
0112239730999992000011918004+61000+089750FM-12+004699999V0209999C000019999999N0500001N1-02491-02671102531ADDGF106991061001999999031001MD1210141+9999REMSYN060AAXX  19181 23973 42999 60000 11249 21267 40253 52014 86030;
0112239730999992000011921004+61000+089750FM-12+004699999V0209999C000019999999N0500001N1-02411-02601102671ADDGF108991001001999999001081MD1210141+9999REMSYN060AAXX  19211 23973 42999 80000 11241 21260 40267 52014 80008;
0215239730999992000012000004+61000+089750FM-12+004699999V0209999C000019999999N0500001N1-02491-02671102771ADDAA199000091AJ100609199999999GF108991001001999999001081IA1249KA1120N-02491MA1999999102081MD1210101+9999REMSYN082AAXX  20001 23973 32999 80000 11249 21267 30208 40277 52010 80008 333 21249 48060;EQDQ01  00002PRCP99
0140239730999992000012003004+61000+089750FM-12+004699999V0209999C000019999999N0100001N1-02581-02761102981ADDAY121031AY221031GF108991001001999999001071MD1210211+9999MW1711REMSYN066AAXX  20031 23973 41997 80000 11258 21276 40298 52021 77122 80007;
0140239730999992000012006004+61000+089750FM-12+004699999V0209999C000012200019N0500001N1-01711-01901103021ADDAY171061AY211061GF103991031001999999031001MD1210071+9999MW1021REMSYN066AAXX  20061 23973 41999 30000 11171 21190 40302 52007 70271 83030;
0140239730999992000012009004+61000+089750FM-12+004699999V0201901N003019999999N0100001N1-01911-02101103141ADDAY171031AY211031GF108991001001999999001071MD1210111+9999MW1711REMSYN066AAXX  20091 23973 41997 81903 11191 21210 40314 52011 77171 80007;
0201239730999992000012012004+61000+089750FM-12+004699999V0201201N002019999999N0500001N1-01941-02131103301ADDAA112000591AY171061AY211061GF105991051001999999031001KA1999M-01711MA1999999102621MD1210151+9999MW1021REMSYN088AAXX  20121 23973 11999 51202 11194 21213 30262 40330 52015 69942 70271 85030 333 11171;
0122239730999992000012018004+61000+089750FM-12+004699999V0202101N002012200019N0500001N1-02151-02331103531ADDGA1001+999999999GF100991001001999999001001MD1210121+9999REMSYN054AAXX  20181 23973 42999 02102 11215 21233 40353 52012;
0122239730999992000012021004+61000+089750FM-12+004699999V0209999C000012200019N0500001N1-02611-02791103651ADDGA1001+999999999GF100991001001999999001001MD1210111+9999REMSYN054AAXX  20211 23973 42999 00000 11261 21279 40365 52011;
0225239730999992000012100004+61000+089750FM-12+004699999V0209999C000012200019N0500001N1-02881-03071103741ADDAA199000091AJ100619199999999GA1001+999999999GF100991001001999999001001IA1249KA1120N-02971MA1999999103041MD1210071+9999REMSYN076AAXX  21001 23973 32999 00000 11288 21307 30304 40374 52007 333 21297 48061;EQDQ01  00002PRCP99
0122239730999992000012103004+61000+089750FM-12+004699999V0209999C000012200019N0500001N1-02941-03111104031ADDGA1001+999999999GF100991001001999999001001MD1210291+9999REMSYN054AAXX  21031 23973 42999 00000 11294 21311 40403 52029;
0122239730999992000012106004+61000+089750FM-12+004699999V0209999C000012200019N0500001N1-02741-02911104091ADDGA1001+999999999GF100991001001999999001001MD1210081+9999REMSYN054AAXX  21061 23973 42999 00000 11274 21291 40409 52008;
0122239730999992000012109004+61000+089750FM-12+004699999V0209999C000012200019N0500001N1-02671-02851104161ADDGA1001+999999999GF100991001001999999001001MD1210071+9999REMSYN054AAXX  21091 23973 42999 00000 11267 21285 40416 52007;
0196239730999992000012112004+61000+089750FM-12+004699999V0209999C000012200019N0500001N1-02791-02961104251ADDAA199000091GA1001+999999999GF100991001001999999001001KA1999M-02671MA1999999103541MD1210071+9999REMSYN070AAXX  21121 23973 32999 00000 11279 21296 30354 40425 52007 333 11267;EQDQ01  00002PRCP99
0141239730999992000012115004+61000+089750FM-12+004699999V0209999C000012200019N0500001N1-02941-03111999999ADDGA1001+999999999GF100991001001999999001001MD1210191+9999REMSYN054AAXX  21151 23973 42999 00000 11294 21311 40344 52019;EQDQ01+103443APOSLP
0122239730999992000012118004+61000+089750FM-12+004699999V0203601N001012200019N0500001N1-02951-03191104551ADDGA1001+999999999GF100991001001999999001001MD1210111+9999REMSYN054AAXX  21181 23973 42999 03601 11295 21319 40455 52011;
0122239730999992000012121004+61000+089750FM-12+004699999V0209999C000012200019N0500001N1-03151-03381104711ADDGA1001+999999999GF100991001001999999001001MD1210161+9999REMSYN054AAXX  21211 23973 42999 00000 11315 21338 40471 52016;
0212239730999992000012200004+61000+089750FM-12+004699999V0209999C000012200019N0500001N1-03211-03431104771ADDAA124999999AJ100619199999999GA1001+999999999GF100991001001999999001001IA1249KA1120N-03221MA1999999104061MD1210061+9999REMSYN082AAXX  22001 23973 32999 00000 11321 21343 30406 40477 52006 333 21322 48061 7000/;
0122239730999992000012203004+61000+089750FM-12+004699999V0209999C000012200019N0500001N1-03361-03591104981ADDGA1001+999999999GF100991001001999999001001MD1210191+9999REMSYN054AAXX  22031 23973 42999 00000 11336 21359 40498 52019;
0122239730999992000012206004+61000+089750FM-12+004699999V0209999C000012200019N0500001N1-03111-03341105081ADDGA1001+999999999GF100991001001999999001001MD1210121+9999REMSYN054AAXX  22061 23973 42999 00000 11311 21334 40508 52012;
0122239730999992000012209004+61000+089750FM-12+004699999V0209999C000012200019N0500001N1-02951-03191105091ADDGA1001+999999999GF100991001001999999001001MD1210011+9999REMSYN054AAXX  22091 23973 42999 00000 11295 21319 40509 52001;
0196239730999992000012212004+61000+089750FM-12+004699999V0209999C000012200019N0500001N1-03131-03361105081ADDAA199000091GA1001+999999999GF100991001001999999001001KA1999M-02951MA1999999104371MD1810011+9999REMSYN070AAXX  22121 23973 32999 00000 11313 21336 30437 40508 58001 333 11295;EQDQ01  00002PRCP99
0122239730999992000012215004+61000+089750FM-12+004699999V0209999C000012200019N0500001N1-03281-03511105161ADDGA1001+999999999GF100991001001999999001001MD1310061+9999REMSYN054AAXX  22151 23973 42999 00000 11328 21351 40516 53006;
0122239730999992000012218004+61000+089750FM-12+004699999V0209999C000012200019N0500001N1-03411-03641105241ADDGA1001+999999999GF100991001001999999001001MD1210071+9999REMSYN054AAXX  22181 23973 42999 00000 11341 21364 40524 52007;
0122239730999992000012221004+61000+089750FM-12+004699999V0209999C000012200019N0500001N1-03561-03771105271ADDGA1001+999999999GF100991001001999999001001MD1210031+9999REMSYN054AAXX  22211 23973 42999 00000 11356 21377 40527 52003;
0225239730999992000012300004+61000+089750FM-12+004699999V0209999C000012200019N0500001N1-03541-03771105271ADDAA199000091AJ100619199999999GA1001+999999999GF100991001001999999001001IA1249KA1120N-03571MA1999999104531MD1410001+9999REMSYN076AAXX  23001 23973 32999 00000 11354 21377 30453 40527 54000 333 21357 48061;EQDQ01  00002PRCP99
0122239730999992000012303004+61000+089750FM-12+004699999V0209999C000012200019N0500001N1-03411-03641105301ADDGA1001+999999999GF100991001001999999001001MD1310031+9999REMSYN054AAXX  23031 23973 42999 00000 11341 21364 40530 53003;
0122239730999992000012306004+61000+089750FM-12+004699999V0209999C000012200019N0500001N1-03361-03591105241ADDGA1001+999999999GF100991001001999999001001MD1810061+9999REMSYN054AAXX  23061 23973 42999 00000 11336 21359 40524 58006;
0122239730999992000012309004+61000+089750FM-12+004699999V0200301N002012200019N0500001N1-03021-03251105141ADDGA1001+999999999GF100991001001999999001001MD1710071+9999REMSYN054AAXX  23091 23973 42999 00302 11302 21325 40514 57007;
0196239730999992000012312004+61000+089750FM-12+004699999V0209999C000012200019N0500001N1-03051-03271105111ADDAA199000091GA1001+999999999GF100991001001999999001001KA1999M-03021MA1999999104401MD1710031+9999REMSYN070AAXX  23121 23973 32999 00000 11305 21327 30440 40511 57003 333 11302;EQDQ01  00002PRCP99
0122239730999992000012315004+61000+089750FM-12+004699999V0203601N002012200019N0500001N1-03261-03481105061ADDGA1001+999999999GF100991001001999999001001MD1710071+9999REMSYN054AAXX  23151 23973 42999 03602 11326 21348 40506 57007;
0122239730999992000012318004+61000+089750FM-12+004699999V0209999C000012200019N0500001N1-03271-03511104941ADDGA1001+999999999GF100991001001999999001001MD1710141+9999REMSYN054AAXX  23181 23973 42999 00000 11327 21351 40494 57014;
0122239730999992000012321004+61000+089750FM-12+004699999V0209999C000012200019N0500001N1-03271-03511104761ADDGA1001+999999999GF100991001001999999001001MD1710101+9999REMSYN054AAXX  23211 23973 42999 00000 11327 21351 40476 57010;
0225239730999992000012400004+61000+089750FM-12+004699999V0209999C000012200019N0005001N1-02251-02481104671ADDAA199000091AJ100619199999999GA1001+999999999GF100991001001999999001001IA1249KA1120N-02351MA1999999103941MD1710071+9999REMSYN076AAXX  24001 23973 32993 00000 11225 21248 30394 40467 57007 333 21235 48061;EQDQ01  00002PRCP99
0122239730999992000012403004+61000+089750FM-12+004699999V0209999C000012200019N0500001N1-03091-03321104521ADDGA1001+999999999GF100991001001999999001001MD1710131+9999REMSYN054AAXX  24031 23973 42999 00000 11309 21332 40452 57013;
0122239730999992000012406004+61000+089750FM-12+004699999V0209999C000012200019N0500001N1-02421-02661104291ADDGA1001+999999999GF100991001001999999001001MD1710221+9999REMSYN054AAXX  24061 23973 42999 00000 11242 21266 40429 57022;
0122239730999992000012409004+61000+089750FM-12+004699999V0209999C000012200019N0500001N1-02301-02491104101ADDGA1001+999999999GF100991001001999999001001MD1710181+9999REMSYN054AAXX  24091 23973 42999 00000 11230 21249 40410 57018;
0196239730999992000012412004+61000+089750FM-12+004699999V0209999C000012200019N0500001N1-02421-02601103871ADDAA199000091GA1001+999999999GF100991001001999999001001KA1999M-02301MA1999999103181MD1710231+9999REMSYN070AAXX  24121 23973 32999 00000 11242 21260 30318 40387 57023 333 11230;EQDQ01  00002PRCP99
0122239730999992000012415004+61000+089750FM-12+004699999V0209999C000012200019N0500001N1-02701-02881103741ADDGA1001+999999999GF100991001001999999001001MD1710131+9999REMSYN054AAXX  24151 23973 42999 00000 11270 21288 40374 57013;
0122239730999992000012418004+61000+089750FM-12+004699999V0209999C000012200019N0500001N1-02441-02621103501ADDGA1001+999999999GF100991001001999999001001MD1710241+9999REMSYN054AAXX  24181 23973 42999 00000 11244 21262 40350 57024;
0122239730999992000012421004+61000+089750FM-12+004699999V0209999C000012200019N0500001N1-02841-03021103251ADDGA1001+999999999GF100991001001999999001001MD1710271+9999REMSYN054AAXX  24211 23973 42999 00000 11284 21302 40325 57027;
0225239730999992000012500004+61000+089750FM-12+004699999V0209999C000012200019N0500001N1-02681-02861103001ADDAA199000091AJ100619199999999GA1001+999999999GF100991001001999999001001IA1249KA1120N-02881MA1999999102311MD1710231+9999REMSYN076AAXX  25001 23973 32999 00000 11268 21286 30231 40300 57023 333 21288 48061;EQDQ01  00002PRCP99
0150239730999992000012503004+61000+089750FM-12+004699999V0201901N007019999999N0100001N1-01501-01701102941ADDAY171031AY231031GF108991001001999999001071MD1710031+9999MW1711REMSYN076AAXX  25031 23973 41997 81907 11150 21170 40294 57003 77173 80007 333 91114;
0140239730999992000012506004+61000+089750FM-12+004699999V0201901N006019999999N0100001N1-01431-01631103021ADDAY171061AY231061GF108991061001999999051081MD1310081+9999MW1711REMSYN066AAXX  25061 23973 41997 81906 11143 21163 40302 53008 77173 86058;
0150239730999992000012509004+61000+089750FM-12+004699999V0201801N006019999999N0100001N1-01231-01361102981ADDAY171031AY231031GF107991071001999999071999MD1810031+9999MW1711REMSYN076AAXX  25091 23973 41997 71806 11123 21136 40298 58003 77173 8707/ 333 91113;
0207239730999992000012512004+61000+089750FM-12+004699999V0201901N006019999999N0100001N1-01111-01241102951ADDAA112001091AY171061AY231061GF108991081001999999011999KA1120M-01111MA1999999102301MD1710031+9999MW1711REMSYN094AAXX  25121 23973 11997 81906 11111 21124 30230 40295 57003 69992 77173 8801/ 333 11111 91112;
0150239730999992000012515004+61000+089750FM-12+004699999V0202001N008019999999N0100001N1-01001-01121102821ADDAY171031AY231031GF108991081001999999021999MD1710131+9999MW1711REMSYN076AAXX  25151 23973 41997 82008 11100 21112 40282 57013 77173 8802/ 333 91112;
0150239730999992000012518004+61000+089750FM-12+004699999V0201901N006019999999N0100001N1-00891-01001102641ADDAY171061AY231061GF108991081001999999021999MD1710181+9999MW1711REMSYN076AAXX  25181 23973 41997 81906 11089 21100 40264 57018 77173 8802/ 333 91112;
0150239730999992000012521004+61000+089750FM-12+004699999V0202101N006019999999N0500001N1-01031-01161102561ADDAY171031AY231031GF107991071001999999041001MD1710081+9999MW1021REMSYN076AAXX  25211 23973 41999 72106 11103 21116 40256 57008 70273 87040 333 91112;
0230239730999992000012600004+61000+089750FM-12+004699999V0202301N004019999999N0100001N1-00951-01161102581ADDAA112000591AJ100589199999999AY171061AY231061GF108991081001999999011999IA1249KA1120N-01111MA1999999101931MD1310021+9999MW1711REMSYN094AAXX  26001 23973 11997 82304 11095 21116 30193 40258 53002 69942 77173 8801/ 333 21111 48058;
0140239730999992000012603004+61000+089750FM-12+004699999V0202301N003019999999N0500001N1-01231-01501102731ADDAY171031AY221031GF107991051001999999041011MD1210151+9999MW1021REMSYN066AAXX  26031 23973 41999 72303 11123 21150 40273 52015 70272 85041;
0140239730999992000012606004+61000+089750FM-12+004699999V0202201N003019999999N0100001N1-01351-01621102911ADDAY171061AY221061GF108991031001999999051071MD1210171+9999MW1711REMSYN066AAXX  26061 23973 41997 82203 11135 21162 40291 52017 77172 83057;
0150239730999992000012609004+61000+089750FM-12+004699999V0202201N003019999999N0100001N1-01501-01771103071ADDAY171031AY221031GF108991001001999999001071MD1210161+9999MW1711REMSYN076AAXX  26091 23973 41997 82203 11150 21177 40307 52016 77172 80007 333 91112;
0201239730999992000012612004+61000+089750FM-12+004699999V0202201N004019999999N0100001N1-01581-01851103171ADDAA112000591AY171061AY221061GF108991081001999999011999KA1999M-00951MA1999999102501MD1210091+9999MW1711REMSYN088AAXX  26121 23973 11997 82204 11158 21185 30250 40317 52009 69942 77172 8801/ 333 11095;
0140239730999992000012615004+61000+089750FM-12+004699999V0202101N005019999999N0100001N1-01741-02001103371ADDAY171031AY221031GF108991001001999999001071MD1210201+9999MW1711REMSYN066AAXX  26151 23973 41997 82105 11174 21200 40337 52020 77172 80007;
0140239730999992000012618004+61000+089750FM-12+004699999V0201901N003019999999N0100001N1-01841-02101103571ADDAY171061AY221061GF108991001001999999001071MD1210191+9999MW1711REMSYN066AAXX  26181 23973 41997 81903 11184 21210 40357 52019 77172 80007;
0150239730999992000012621004+61000+089750FM-12+004699999V0201901N002012200019N0500001N1-02211-02471103771ADDAY171031AY211031GA1001+999999999GF100991001001999999001001MD1210201+9999MW1021REMSYN060AAXX  26211 23973 41999 01902 11221 21247 40377 52020 70271;
0240239730999992000012700004+61000+089750FM-12+004699999V0201801N003012200019N0500001N1-02291-02481103971ADDAA112001091AJ100599199999999AY171061AY211061GA1001+999999999GF100991001001999999001001IA1249KA1120N-02291MA1999999103281MD1210191+9999MW1021REMSYN088AAXX  27001 23973 11999 01803 11229 21248 30328 40397 52019 60012 70271 333 21229 48059;
0122239730999992000012703004+61000+089750FM-12+004699999V0201901N003012200019N0500001N1-02371-02551104201ADDGA1001+999999999GF100991001001999999001001MD1210221+9999REMSYN054AAXX  27031 23973 42999 01903 11237 21255 40420 52022;
0140239730999992000012706004+61000+089750FM-12+004699999V0202201N003019999999N0100001N1-02341-02521104331ADDAY171061AY211061GF108991001001999999001071MD1210131+9999MW1711REMSYN066AAXX  27061 23973 41997 82203 11234 21252 40433 52013 77171 80007;
0112239730999992000012709004+61000+089750FM-12+004699999V0201801N005019999999N0100001N1-02241-02421104351ADDGF108991001001999999001071MD1210031+9999REMSYN060AAXX  27091 23973 42997 81805 11224 21242 40435 52003 80007;
0201239730999992000012712004+61000+089750FM-12+004699999V0202001N005012200019N0500001N1-02241-02421104381ADDAA112000791AY171061AY211061GF102991001001999999001011KA1999M-02241MA1999999103691MD1210031+9999MW1021REMSYN088AAXX  27121 23973 11999 22005 11224 21242 30369 40438 52003 69902 70271 80001 333 11224;
0112239730999992000012715004+61000+089750FM-12+004699999V0202001N005012200019N0500001N1-02151-02331104381ADDGF102991001001999999001011MD1410001+9999REMSYN060AAXX  27151 23973 42999 22005 11215 21233 40438 54000 80001;
0150239730999992000012718004+61000+089750FM-12+004699999V0201901N007019999999N0500001N1-02041-02291104301ADDAY131061AY211061GF107991001001999999001081MD1810081+9999MW1361REMSYN076AAXX  27181 23973 41999 71907 11204 21229 40430 58008 73631 80008 333 91113;
0140239730999992000012721004+61000+089750FM-12+004699999V0202201N006012200019N0500001N1-02031-02281104161ADDAY131031AY211031GF102991001001999999001011MD1710131+9999MW1021REMSYN066AAXX  27211 23973 41999 22206 11203 21228 40416 57013 70231 80001;
0243239730999992000012800004+61000+089750FM-12+004699999V0202201N003019999999N0500001N1-02041-02291104131ADDAA199000091AJ100599199999999AY131061AY211061GF105991001001999999001011IA1249KA1120N-02241MA1999999103451MD1710031+9999MW1021REMSYN088AAXX  28001 23973 31999 52203 11204 21229 30345 40413 57003 70231 80001 333 21224 48059;EQDQ01  00002PRCP99
0122239730999992000012803004+61000+089750FM-12+004699999V0201801N007019999999N0500001N1-02021-02281104131ADDGF108991031001999999041081MD1710011+9999REMSYN070AAXX  28031 23973 42999 81807 11202 21228 40413 57001 83048 333 91113;
0121239730999992000012806004+61000+089750FM-12+004699999V0201801N006012200019N0500001N1-01801-02141104161ADDGF103991031001999999041001MD1310041+9999REMSYN069AAXX  28061 23973 42999 31806 11180 21214 40416 53004 83040 33 91112;
0122239730999992000012809004+61000+089750FM-12+004699999V0201801N006012200019N0500001N1-01651-01991104161ADDGF102991001001999999001021MD1210011+9999REMSYN070AAXX  28091 23973 42999 21806 11165 21199 40416 52001 80002 333 91112;
0186239730999992000012812004+61000+089750FM-12+004699999V0201801N005012200019N0500001N1-01681-02021104171ADDAA199000091GF102991001001999999001021KA1999M-01651MA1999999103501MD1210011+9999REMSYN076AAXX  28121 23973 32999 21805 11168 21202 30350 40417 52001 80002 333 11165;EQDQ01  00002PRCP99
0131239730999992000012815004+61000+089750FM-12+004699999V0201901N006012200019N0500001N1-01741-02081999999ADDGA1001+999999999GF100991001001999999001001MD1610401+9999ME1102589REMSYN054AAXX  28151 23973 42999 01906 11174 21208 41258 56040;
0128239730999992000012818004+61000+089750FM-12+004699999V0201801N008012200019N0500001N1-01561-01901104021ADDGA1001+999999999GF100991001001999999001001MD1710101+9999REMSYN060AAXX  28181 23973 42999 01808 11156 21190 40402 57010 81112;
0132239730999992000012821004+61000+089750FM-12+004699999V0201301N003012200019N0500001N1-01411-01681103881ADDGA1001+999999999GF100991001001999999001001MD1710131+9999REMSYN064AAXX  28211 23973 42999 01303 11141 21168 40388 57013 333 91114;
0215239730999992000012900004+61000+089750FM-12+004699999V0201801N005012200019N0500001N1-01391-01741103721ADDAA199000091AJ100609199999999GF102991001001999999001011IA1249KA1120N-01741MA1999999103051MD1710161+9999REMSYN082AAXX  29001 23973 32999 21805 11139 21174 30305 40372 57016 80001 333 21174 48060;EQDQ01  00002PRCP99
0150239730999992000012903004+61000+089750FM-12+004699999V0201901N011012200019N0500001N1-01111-01641103511ADDAY131031AY201031GF102991001001999999001011MD1710191+9999MW1361REMSYN076AAXX  29031 23973 41999 21911 11111 21164 40351 57019 73630 80001 333 91117;
0150239730999992000012906004+61000+089750FM-12+004699999V0201901N009012200019N0500001N1-01121-01651103341ADDAY131061AY201061GF103991001001999999001011MD1710171+9999MW1361REMSYN076AAXX  29061 23973 41999 31909 11112 21165 40334 57017 73630 80001 333 91117;
0150239730999992000012909004+61000+089750FM-12+004699999V0202001N008012200019N0500001N1-00961-01601103141ADDAY131031AY201031GF103991001001999999001011MD1710201+9999MW1361REMSYN076AAXX  29091 23973 41999 32008 11096 21160 40314 57020 73630 80001 333 91115;
0220239730999992000012912004+61000+089750FM-12+004699999V0201901N010012200019N0500001N1-00891-01491102951ADDAA199000091AY131061AY201061GF103991001001999999001011KA1120M-00891MA1999999102301MD1710191+9999MW1361REMSYN088AAXX  29121 23973 31999 31910 11089 21149 30230 40295 57019 73630 80001 333 11089 91117;EQDQ01  00002PRCP99
0144239730999992000012915004+61000+089750FM-12+004699999V0201101N011012200019N0500001N1-01061-01591102931ADDAY131031AY201031GF102991999999999999999999MD1710021+9999MW1361REMSYN070AAXX  29151 23973 41999 21111 11106 21159 40293 57002 73630 333 91118;
0160239730999992000012918004+61000+089750FM-12+004699999V0201901N009012200019N0500001N1-01211-01731102901ADDAY131061AY201061GA1001+999999999GF100991001001999999001001MD1710041+9999MW1021REMSYN070AAXX  29181 23973 41999 01909 11121 21173 40290 57004 70230 333 91116;
0122239730999992000012921004+61000+089750FM-12+004699999V0201901N006012200019N0500001N1-01311-01741102911ADDGA1001+999999999GF100991001001999999001001MD1310011+9999REMSYN054AAXX  29211 23973 42999 01906 11131 21174 40291 53001;
0215239730999992000013000004+61000+089750FM-12+004699999V0202001N005019999999N0500001N1-01191-01631102881ADDAA199000091AJ100539199999999GF108991081001999999021999IA1249KA1120N-01311MA1999999102231MD1810021+9999REMSYN082AAXX  30001 23973 32999 82005 11119 21163 30223 40288 58002 8802/ 333 21131 48053;EQDQ01  00002PRCP99
0140239730999992000013003004+61000+089750FM-12+004699999V0201501N006019999999N0100001N1-01241-01441102881ADDAY171031AY221031GF108991081001999999011999MD1410001+9999MW1711REMSYN066AAXX  30031 23973 41997 81506 11124 21144 40288 54000 77172 8801/;
0140239730999992000013006004+61000+089750FM-12+004699999V0201701N006019999999N0100001N1-01201-01401102801ADDAY171061AY221061GF108991081001999999021999MD1810081+9999MW1711REMSYN066AAXX  30061 23973 41997 81706 11120 21140 40280 58008 77172 8802/;
0140239730999992000013009004+61000+089750FM-12+004699999V0201701N003010300019N0500001N1-01081-01361102631ADDAY171031AY221031GF108991021051008001021999MD1710171+9999MW1021REMSYN066AAXX  30091 23973 41599 81703 11108 21136 40263 57017 70272 8252/;
0201239730999992000013012004+61000+089750FM-12+004699999V0201801N002019999999N0500001N1-01151-01431102451ADDAA112002091AY171061AY221061GF108991081001999999021999KA1999M-01081MA1999999101801MD1710181+9999MW1021REMSYN088AAXX  30121 23973 11999 81802 11115 21143 30180 40245 57018 60022 70272 8802/ 333 11108;
0112239730999992000013015004+61000+089750FM-12+004699999V0201801N003019999999N0500001N1-01001-01311102181ADDGF108991081001999999021999MD1710271+9999REMSYN060AAXX  30151 23973 42999 81803 11100 21131 40218 57027 8802/;
0112239730999992000013018004+61000+089750FM-12+004699999V0201701N002019999999N0500001N1-00951-01301101901ADDGF108991081001999999011999MD1710271+9999REMSYN060AAXX  30181 23973 42999 81702 11095 21130 40190 57027 8801/;
0112239730999992000013021004+61000+089750FM-12+004699999V0201701N002019999999N0500001N1-00941-01341101561ADDGF108991081001999999011999MD1710341+9999REMSYN060AAXX  30211 23973 42999 81702 11094 21134 40156 57034 8801/;
0221239730999992000013100004+61000+089750FM-12+004699999V0201801N004019999999N0500001N1-00901-01451101411ADDAA199000091AJ100529199999999GF108991001001999999001081IA1249KA1120N-01211MA1999999100771MD1710151+9999REMSYN088AAXX  31001 23973 32999 81804 11090 21145 30077 40141 57015 80008 333 21121 48052 91113;EQDQ01  00002PRCP99
0122239730999992000013103004+61000+089750FM-12+004699999V0201801N007019999999N0500001N1-00991-01461101331ADDGF107991071001999999071999MD1710081+9999REMSYN070AAXX  31031 23973 42999 71807 11099 21146 40133 57008 8707/ 333 91112;
0150239730999992000013106004+61000+089750FM-12+004699999V0201801N007019999999N0100001N1-01061-01261101361ADDAY171061AY221061GF108991081001999999011999MD1310031+9999MW1711REMSYN076AAXX  31061 23973 41997 81807 11106 21126 40136 53003 77172 8801/ 333 91112;
0140239730999992000013109004+61000+089750FM-12+004699999V0201701N005019999999N0100001N1-01061-01261101371ADDAY171031AY231031GF108991001001999999001071MD1210011+9999MW1711REMSYN066AAXX  31091 23973 41997 81705 11106 21126 40137 52001 77173 80007;
0201239730999992000013112004+61000+089750FM-12+004699999V0201701N003019999999N0100001N1-01011-01141101501ADDAA112001091AY171061AY231061GF108991081001999999011999KA1999M-00901MA1999999100861MD1210131+9999MW1711REMSYN088AAXX  31121 23973 11997 81703 11101 21114 30086 40150 52013 60012 77173 8801/ 333 11090;
0140239730999992000013115004+61000+089750FM-12+004699999V0202701N003012200019N0500001N1-01131-01261101661ADDAY171031AY211031GF103991001001999999001011MD1210161+9999MW1021REMSYN066AAXX  31151 23973 41999 32703 11113 21126 40166 52016 70271 80001;
0140239730999992000013118004+61000+089750FM-12+004699999V0202501N004012200019N0500001N1-01321-01451101841ADDAY171061AY211061GF103991001001999999001011MD1210171+9999MW1021REMSYN066AAXX  31181 23973 41999 32504 11132 21145 40184 52017 70271 80001;
0112239730999992000013121004+61000+089750FM-12+004699999V0202201N003019999999N0500001N1-01451-01581101981ADDGF106991001001999999001021MD1210141+9999REMSYN060AAXX  31211 23973 42999 62203 11145 21158 40198 52014 80002;
0230239730999992000020100004+61000+089750FM-12+004699999V0209999C000019999999N0100001N1-01461-01661102131ADDAA112000191AJ100559199999999AY171061AY211061GF108991001001999999001071IA1249KA1120N-01461MA1999999101481MD1210151+9999MW1711REMSYN094AAXX  01001 23973 11997 80000 11146 21166 30148 40213 52015 69922 77171 80007 333 21146 48055;
0140239730999992000020103004+61000+089750FM-12+004699999V0209999C000019999999N0100001N1-01441-01641102291ADDAY171031AY221031GF108991001001999999001071MD1210151+9999MW1711REMSYN066AAXX  01031 23973 41997 80000 11144 21164 40229 52015 77172 80007;
0140239730999992000020106004+61000+089750FM-12+004699999V0202301N001019999999N0100001N1-01351-01551102391ADDAY171061AY221061GF108991081001999999011999MD1210101+9999MW1711REMSYN066AAXX  01061 23973 41997 82301 11135 21155 40239 52010 77172 8801/;
0140239730999992000020109004+61000+089750FM-12+004699999V0202401N001019999999N0100001N1-01251-01451102491ADDAY171031AY221031GF108991001001999999001071MD1210111+9999MW1711REMSYN066AAXX  01091 23973 41997 82401 11125 21145 40249 52011 77172 80007;
0192239730999992000020112004+61000+089750FM-12+004699999V0209999C000019999999N0500001N1-01421-01621102691ADDAA112002091GF108991001001999999001071KA1999M-01241MA1999999102031MD1210181+9999REMSYN082AAXX  01121 23973 11199 80000 11142 21162 30203 40269 52018 60022 80007 333 11124;EQDQ01+000752SCOLCB
0140239730999992000020115004+61000+089750FM-12+004699999V0209999C000019999999N0100001N1-01561-01751102741ADDAY171031AY221031GF108991001001999999001071MD1210051+9999MW1711REMSYN066AAXX  01151 23973 41997 80000 11156 21175 40274 52005 77172 80007;
0150239730999992000020118004+61000+089750FM-12+004699999V0209999C000012200019N0500001N1-01871-01991102851ADDAY171061AY211061GA1001+999999999GF100991001001999999001001MD1210101+9999MW1021REMSYN060AAXX  01181 23973 41999 00000 11187 21199 40285 52010 70271;
0140239730999992000020121004+61000+089750FM-12+004699999V0202201N001019999999N0100001N1-01841-01961102921ADDAY171031AY211031GF108991001001999999001071MD1210071+9999MW1711REMSYN066AAXX  01211 23973 41997 82201 11184 21196 40292 52007 77171 80007;
0230239730999992000020200004+61000+089750FM-12+004699999V0209999C000019999999N0100001N1-01981-02101102941ADDAA112000591AJ100589199999999AY171061AY211061GF108991081001999999011999IA1249KA1120N-02061MA1999999102271MD1210021+9999MW1711REMSYN094AAXX  02001 23973 11997 80000 11198 21210 30227 40294 52002 69952 77171 8801/ 333 21206 48058;
0140239730999992000020203004+61000+089750FM-12+004699999V0209999C000019999999N0100001N1-01991-02181102981ADDAY171031AY221031GF107991071001999999071999MD1210041+9999MW1711REMSYN066AAXX  02031 23973 41997 70000 11199 21218 40298 52004 77172 8707/;
0140239730999992000020206004+61000+089750FM-12+004699999V0202201N001019999999N0100001N1-01881-02001102991ADDAY171061AY221061GF108991001001999999001081MD1210011+9999MW1711REMSYN066AAXX  02061 23973 41997 82201 11188 21200 40299 52001 77172 80008;
0150239730999992000020209004+61000+089750FM-12+004699999V0202301N003012200019N0500001N1-01841-02031102941ADDAY171031AY211031GA1001+999999999GF100991001001999999001001MD1810051+9999MW1021REMSYN060AAXX  02091 23973 41999 02303 11184 21203 40294 58005 70271;
0201239730999992000020212004+61000+089750FM-12+004699999V0202201N003019999999N0100001N1-02061-02181102841ADDAA112000791AY171061AY211061GF108991001001999999001081KA1999M-01841MA1999999102171MD1710101+9999MW1711REMSYN088AAXX  02121 23973 11997 82203 11206 21218 30217 40284 57010 69902 77171 80008 333 11184;
0140239730999992000020215004+61000+089750FM-12+004699999V0202101N004019999999N0500001N1-01901-02021102911ADDAY171031AY221031GF108991001001999999001071MD1310071+9999MW1021REMSYN066AAXX  02151 23973 41999 82104 11190 21202 40291 53007 70272 80007;
0140239730999992000020218004+61000+089750FM-12+004699999V0202001N003019999999N0100001N1-01881-02001102881ADDAY171061AY221061GF108991001001999999001071MD1810031+9999MW1711REMSYN066AAXX  02181 23973 41997 82003 11188 21200 40288 58003 77172 80007;
0140239730999992000020221004+61000+089750FM-12+004699999V0202001N005019999999N0100001N1-01761-01881102881ADDAY171031AY221031GF108991081001999999011999MD1410001+9999MW1711REMSYN066AAXX  02211 23973 41997 82005 11176 21188 40288 54000 77172 8801/;
0249239730999992000020300004+61000+089750FM-12+004699999V0201901N005019999999N0100001N1-01611-01801102811ADDAA112000591AJ199999999999999AY171061AY221061GF108991081001999999011999IA1179KA1120N-02101MA1999999102151MD1810061+9999MW1711REMSYN094AAXX  03001 23973 11997 81905 11161 21180 30215 40281 58006 69942 77172 8801/ 333 21210 40857;EQDQ01  08572SNDP  
0150239730999992000020303004+61000+089750FM-12+004699999V0201801N005019999999N0100001N1-01601-01731102831ADDAY171031AY231031GF107991071001999999071999MD1310021+9999MW1711REMSYN076AAXX  03031 23973 41997 71805 11160 21173 40283 53002 77173 8707/ 333 91112;
0150239730999992000020306004+61000+089750FM-12+004699999V0201801N006019999999N0100001N1-01541-01731102831ADDAY171061AY231061GF108991061001999999051081MD1410001+9999MW1711REMSYN076AAXX  03061 23973 41997 81806 11154 21173 40283 54000 77173 86058 333 91112;
0140239730999992000020309004+61000+089750FM-12+004699999V0201801N004019999999N0100001N1-01451-01651102861ADDAY171031AY231031GF108991061001999999051081MD1310031+9999MW1711REMSYN066AAXX  03091 23973 41997 81804 11145 21165 40286 53003 77173 86058;
0140239730999992000020315004+61000+089750FM-12+004699999V0201801N003019999999N0100001N1-01511-01701102931ADDAY171031AY221031GF108991001001999999001071MD1210031+9999MW1711REMSYN066AAXX  03151 23973 41997 81803 11151 21170 40293 52003 77172 80007;
0140239730999992000020318004+61000+089750FM-12+004699999V0201901N005019999999N0500001N1-01541-01731102911ADDAY171061AY221061GF108991001001999999001071MD1810021+9999MW1021REMSYN066AAXX  03181 23973 41999 81905 11154 21173 40291 58002 70272 80007;
0112239730999992000020321004+61000+089750FM-12+004699999V0202101N002012200019N0500001N1-01711-01901102901ADDGF103991001001999999001011MD1710011+9999REMSYN060AAXX  03211 23973 42999 32102 11171 21190 40290 57001 80001;
0202239730999992000020400004+61000+089750FM-12+004699999V0209999C000012200019N0500001N1-01691-01881102981ADDAA112000791AJ100579199999999GF103991001001999999001011IA1249KA1120N-01781MA1999999102321MD1310081+9999REMSYN088AAXX  04001 23973 12999 30000 11169 21188 30232 40298 53008 69902 80001 333 21178 48057;
0112239730999992000020403004+61000+089750FM-12+004699999V0209999C000012200019N0500001N1-02011-02201102941ADDGF102991001001999999001011MD1810051+9999REMSYN060AAXX  04031 23973 42999 20000 11201 21220 40294 58005 80001;
0122239730999992000020406004+61000+089750FM-12+004699999V0201801N003012200019N0500001N1-01671-01791102901ADDGA1001+999999999GF100991001001999999001001MD1710031+9999REMSYN054AAXX  04061 23973 42999 01803 11167 21179 40290 57003;
0122239730999992000020409004+61000+089750FM-12+004699999V0209999C000012200019N0500001N1-01631-01891102781ADDGA1001+999999999GF100991001001999999001001MD1710121+9999REMSYN054AAXX  04091 23973 42999 00000 11163 21189 40278 57012;
0186239730999992000020412004+61000+089750FM-12+004699999V0209999C000012200019N0500001N1-02071-02261102761ADDAA199000091GF101991001001999999001011KA1999M-01631MA1999999102091MD1710031+9999REMSYN076AAXX  04121 23973 32999 10000 11207 21226 30209 40276 57003 80001 333 11163;EQDQ01  00002PRCP99
0122239730999992000020415004+61000+089750FM-12+004699999V0209999C000012200019N0500001N1-02411-02601102721ADDGA1001+999999999GF100991001001999999001001MD1710061+9999REMSYN054AAXX  04151 23973 42999 00000 11241 21260 40272 57006;
0122239730999992000020418004+61000+089750FM-12+004699999V0209999C000012200019N0500001N1-02571-02741102641ADDGA1001+999999999GF100991001001999999001001MD1710081+9999REMSYN054AAXX  04181 23973 42999 00000 11257 21274 40264 57008;
0112239730999992000020421004+61000+089750FM-12+004699999V0201801N004019999999N0500001N1-01811-02001102521ADDGF108991001001999999001071MD1710101+9999REMSYN060AAXX  04211 23973 42999 81804 11181 21200 40252 57010 80007;
0230239730999992000020500004+61000+089750FM-12+004699999V0201801N006019999999N0100001N1-01621-01811102351ADDAA112000191AJ100569199999999AY171061AY211061GF108991081001999999011999IA1249KA1120N-02581MA1999999101691MD1710161+9999MW1711REMSYN094AAXX  05001 23973 11997 81806 11162 21181 30169 40235 57016 69922 77171 8801/ 333 21258 48056;
0150239730999992000020503004+61000+089750FM-12+004699999V0201701N008019999999N0100001N1-01531-01721102201ADDAY171031AY231031GF108991081001999999011999MD1710151+9999MW1711REMSYN076AAXX  05031 23973 41997 81708 11153 21172 40220 57015 77173 8801/ 333 91114;
0150239730999992000020506004+61000+089750FM-12+004699999V0201801N008010300019N0100001N1-01311-01511101821ADDAY171061AY231061GF108991031071008001011999MD1710371+9999MW1711REMSYN076AAXX  05061 23973 41597 81808 11131 21151 40182 57037 77173 8371/ 333 91113;
0150239730999992000020509004+61000+089750FM-12+004699999V0201801N010019999999N0100001N1-01171-01371101591ADDAY171031AY231031GF108991081001999999021999MD1710221+9999MW1711REMSYN076AAXX  05091 23973 41997 81810 11117 21137 40159 57022 77173 8802/ 333 91118;
0207239730999992000020512004+61000+089750FM-12+004699999V0202001N009019999999N0100001N1-01071-01201101531ADDAA112001091AY171061AY231061GF108991081001999999021999KA1120M-01071MA1999999100891MD1710061+9999MW1711REMSYN094AAXX  05121 23973 11997 82009 11107 21120 30089 40153 57006 60012 77173 8802/ 333 11107 91117;
0150239730999992000020515004+61000+089750FM-12+004699999V0202001N007019999999N0100001N1-01111-01241101531ADDAY171031AY231031GF108991081001999999021999MD1410001+9999MW1711REMSYN076AAXX  05151 23973 41997 82007 11111 21124 40153 54000 77173 8802/ 333 91116;
0150239730999992000020518004+61000+089750FM-12+004699999V0201901N007019999999N0100001N1-01061-01191101521ADDAY171061AY231061GF108991081001999999021999MD1810011+9999MW1711REMSYN076AAXX  05181 23973 41997 81907 11106 21119 40152 58001 77173 8802/ 333 91114;
0150239730999992000020521004+61000+089750FM-12+004699999V0202001N006019999999N0100001N1-00921-01031101561ADDAY171031AY231031GF108991081001999999021999MD1310041+9999MW1711REMSYN076AAXX  05211 23973 41997 82006 11092 21103 40156 53004 77173 8802/ 333 91113;
0230239730999992000020600004+61000+089750FM-12+004699999V0201801N006019999999N0100001N1-00921-01031101571ADDAA112000591AJ100569199999999AY171061AY231061GF108991081001999999021999IA1249KA1120N-01241MA1999999101581MD1410001+9999MW1711REMSYN094AAXX  06001 23973 11997 81806 11092 21103 30158 40157 54000 69952 77173 8802/ 333 21124 48056;
0140239730999992000020603004+61000+089750FM-12+004699999V0201801N005019999999N0100001N1-00671-00751101501ADDAY171031AY221031GF108991081001999999021999MD1810111+9999MW1711REMSYN066AAXX  06031 23973 41997 81805 11067 21075 40150 58011 77172 8802/;
0175239730999992000020606004+61000+089750FM-12+004699999V0201901N006010075019N0100001N1-00511-00581101301ADDAY181061AY271061GF108991081091008001999999MD1710201+9999MW1851REMSYN066AAXX  06061 23973 41597 81906 11051 21058 40130 52070 78587 889//;EQDQ01+000022APCTENQ02+000702APC3  
0140239730999992000020609004+61000+089750FM-12+004699999V0201901N005010075019N0100001N1-00441-00501101041ADDAY181031AY221031GF108991081091008001999999MD1710251+9999MW1851REMSYN066AAXX  06091 23973 41597 81905 11044 21050 40104 57025 78582 889//;
0201239730999992000020612004+61000+089750FM-12+004699999V0202001N005010075019N0100001N1-00491-00551100931ADDAA112002091AY181061AY221061GF108991081091008001999999KA1999M-00421MA1999999100311MD1710111+9999MW1851REMSYN088AAXX  06121 23973 11597 82005 11049 21055 30031 40093 57011 60022 78582 889// 333 11042;
0140239730999992000020615004+61000+089750FM-12+004699999V0201901N005010075019N0100001N1-00551-00661100781ADDAY181031AY221031GF108991081091008001999999MD1710151+9999MW1851REMSYN066AAXX  06151 23973 41597 81905 11055 21066 40078 57015 78582 889//;
0140239730999992000020618004+61000+089750FM-12+004699999V0202001N003010075019N0100001N1-00531-00631100711ADDAY181061AY221061GF108991081091008001999999MD1710071+9999MW1851REMSYN066AAXX  06181 23973 41597 82003 11053 21063 40071 57007 78582 889//;
0140239730999992000020621004+61000+089750FM-12+004699999V0209999C000010075019N0100001N1-00511-00611100801ADDAY181031AY221031GF108991081091008001999999MD1310091+9999MW1851REMSYN066AAXX  06211 23973 41597 80000 11051 21061 40080 53009 78582 889//;
0236239730999992000020700004+61000+089750FM-12+004699999V0203301N006010075019N0500001N1-00781-01001101231ADDAA112003091AJ100569199999999AY181061AY231061GF108991081091008001999999IA1249KA1120N-00781MA1999999100591MD1210411+9999MW1361REMSYN100AAXX  07001 23973 11599 83306 11078 21100 30059 40123 52041 60032 73683 889// 333 21078 48056 91112;
0140239730999992000020703004+61000+089750FM-12+004699999V0203301N005012200019N0500001N1-01361-01561101731ADDAY131031AY211031GF102991021071008001001001MD1210491+9999MW1361REMSYN066AAXX  07031 23973 41599 23305 11136 21156 40173 52049 73631 82700;
0140239730999992000020706004+61000+089750FM-12+004699999V0203201N001012200019N0500001N1-01371-01641102081ADDAY131061AY211061GF102991021011008001001001MD1210351+9999MW1021REMSYN066AAXX  07061 23973 41599 23201 11137 21164 40208 52035 70231 82100;
0112239730999992000020709004+61000+089750FM-12+004699999V0202601N002012200019N0500001N1-01241-01671102351ADDGF102991021011008001001001MD1210271+9999REMSYN060AAXX  07091 23973 42599 22602 11124 21167 40235 52027 82100;
0186239730999992000020712004+61000+089750FM-12+004699999V0209999C000012200019N0500001N1-01701-01891102601ADDAA199000091GF101991001001999999001011KA1999M-00781MA1999999101941MD1210241+9999REMSYN076AAXX  07121 23973 32999 10000 11170 21189 30194 40260 52024 80001 333 11078;EQDQ01  00002PRCP99
0122239730999992000020715004+61000+089750FM-12+004699999V0202201N003012200019N0500001N1-02011-02201102741ADDGA1001+999999999GF100991001001999999001001MD1210131+9999REMSYN054AAXX  07151 23973 42999 02203 11201 21220 40274 52013;
0122239730999992000020718004+61000+089750FM-12+004699999V0202101N002012200019N0500001N1-02161-02341102811ADDGA1001+999999999GF100991001001999999001001MD1210071+9999REMSYN054AAXX  07181 23973 42999 02102 11216 21234 40281 52007;
0122239730999992000020721004+61000+089750FM-12+004699999V0209999C000012200019N0500001N1-02531-02701102871ADDGA1001+999999999GF100991001001999999001001MD1210041+9999REMSYN054AAXX  07211 23973 42999 00000 11253 21270 40287 52004;
0230239730999992000020800004+61000+089750FM-12+004699999V0209999C000019999999N0100001N1-02461-02631102921ADDAA112000791AJ100569199999999AY111061AY211061GF108991081001999999011999IA1249KA1120N-02631MA1999999102231MD1710051+9999MW1711REMSYN094AAXX  08001 23973 11997 80000 11246 21263 30223 40292 57005 69902 77111 8801/ 333 21263 48056;
0140239730999992000020803004+61000+089750FM-12+004699999V0209999C000019999999N0100001N1-02431-02611103001ADDAY171031AY221031GF107991071001999999071999MD1210081+9999MW1711REMSYN066AAXX  08031 23973 41997 70000 11243 21261 40300 52008 77172 8707/;
0140239730999992000020806004+61000+089750FM-12+004699999V0209999C000019999999N0100001N1-02191-02371103021ADDAY171061AY221061GF107991071001999999071999MD1210041+9999MW1711REMSYN066AAXX  08061 23973 41997 70000 11219 21237 40302 52004 77172 8707/;
0140239730999992000020809004+61000+089750FM-12+004699999V0209999C000019999999N0500001N1-01801-01991103001ADDAY171031AY221031GF108991001001999999001081MD1810021+9999MW1021REMSYN066AAXX  08091 23973 41999 80000 11180 21199 40300 58002 70272 80008;
0201239730999992000020812004+61000+089750FM-12+004699999V0209999C000012200019N0500001N1-02291-02481102991ADDAA112000791AY171061AY271061GF102991001001999999001011KA1999M-01801MA1999999102301MD1710031+9999MW1021REMSYN088AAXX  08121 23973 11999 20000 11229 21248 30230 40299 57003 69902 70277 80001 333 11180;
0112239730999992000020815004+61000+089750FM-12+004699999V0209999C000012200019N0500001N1-02551-02731102961ADDGF102991001001999999001011MD1710031+9999REMSYN060AAXX  08151 23973 42999 20000 11255 21273 40296 57003 80001;
0112239730999992000020818004+61000+089750FM-12+004699999V0203001N002012200019N0500001N1-02721-02961102981ADDGF102991001001999999001011MD1310021+9999REMSYN060AAXX  08181 23973 42999 23002 11272 21296 40298 53002 80001;
0122239730999992000020821004+61000+089750FM-12+004699999V0203301N002012200019N0500001N1-02781-03031102951ADDGA1001+999999999GF100991001001999999001001MD1810041+9999REMSYN054AAXX  08211 23973 42999 03302 11278 21303 40295 58004;
0225239730999992000020900004+61000+089750FM-12+004699999V0203401N001012200019N0500001N1-02911-03151102871ADDAA199000091AJ100569199999999GA1001+999999999GF100991001001999999001001IA1249KA1120N-02911MA1999999102171MD1710081+9999REMSYN076AAXX  09001 23973 32999 03401 11291 21315 30217 40287 57008 333 21291 48056;EQDQ01  00002PRCP99
0112239730999992000020903004+61000+089750FM-12+004699999V0203301N002012200019N0500001N1-02881-03121102791ADDGF101991001001999999001021MD1710081+9999REMSYN060AAXX  09031 23973 42999 13302 11288 21312 40279 57008 80002;
0112239730999992000020906004+61000+089750FM-12+004699999V0203401N003012200019N0500001N1-02191-02441102651ADDGF102991001001999999001011MD1710111+9999REMSYN060AAXX  09061 23973 42999 23403 11219 21244 40265 57011 80001;
0112239730999992000020909004+61000+089750FM-12+004699999V0203501N001012200019N0500001N1-01861-02121102571ADDGF103991001001999999001011MD1710081+9999REMSYN060AAXX  09091 23973 42999 33501 11186 21212 40257 57008 80001;
0173239730999992000020912004+61000+089750FM-12+004699999V0203501N002012200019N0500001N1-02031-02221102461ADDAA199000091GF103991001001999999001011MA1999999101791MD1710111+9999REMSYN076AAXX  09121 23973 32999 33502 11203 21222 30179 40246 57011 80001 333 01186;EQDQ01  00002PRCP99
0112239730999992000020915004+61000+089750FM-12+004699999V0203501N003012200019N0500001N1-02071-02321102391ADDGF103991001001999999001011MD1710071+9999REMSYN060AAXX  09151 23973 42999 33503 11207 21232 40239 57007 80001;
0112239730999992000020918004+61000+089750FM-12+004699999V0203501N002012200019N0500001N1-01981-02241102311ADDGF103991001001999999001011MD1310041+9999REMSYN060AAXX  09181 23973 42999 33502 11198 21224 40231 53004 80001;
0112239730999992000020921004+61000+089750FM-12+004699999V0200101N003012200019N0500001N1-02041-02291102301ADDGF102991001001999999001011MD1710011+9999REMSYN060AAXX  09211 23973 42999 20103 11204 21229 40230 57001 80001;
0215239730999992000021000004+61000+089750FM-12+004699999V0203601N003012200019N0500001N1-02051-02301102361ADDAA199000091AJ100569199999999GF103991001001999999001011IA1249KA1120N-02111MA1999999101691MD1310061+9999REMSYN082AAXX  10001 23973 32999 33603 11205 21230 30169 40236 53006 80001 333 21211 48056;EQDQ01  00002PRCP99
0112239730999992000021003004+61000+089750FM-12+004699999V0203601N004019999999N0500001N1-01851-02111102451ADDGF108991001001999999001081MD1210091+9999REMSYN060AAXX  10031 23973 42999 83604 11185 21211 40245 52009 80008;
0112239730999992000021006004+61000+089750FM-12+004699999V0200601N002019999999N0500001N1-01401-01831102521ADDGF108991001001999999001081MD1210081+9999REMSYN060AAXX  10061 23973 42999 80602 11140 21183 40252 52008 80008;
0112239730999992000021009004+61000+089750FM-12+004699999V0200301N002019999999N0500001N1-01141-01671102601ADDGF105991001001999999001011MD1210091+9999REMSYN060AAXX  10091 23973 42999 50302 11114 21167 40260 52009 80001;
0186239730999992000021012004+61000+089750FM-12+004699999V0200201N004012200019N0500001N1-01551-01971102831ADDAA199000091GF102991001001999999001011KA1999M-01141MA1999999102171MD1210221+9999REMSYN076AAXX  10121 23973 32999 20204 11155 21197 30217 40283 52022 80001 333 11114;EQDQ01  00002PRCP99
0122239730999992000021015004+61000+089750FM-12+004699999V0200301N002012200019N0500001N1-01891-02221102991ADDGA1001+999999999GF100991001001999999001001MD1210151+9999REMSYN054AAXX  10151 23973 42999 00302 11189 21222 40299 52015;
0122239730999992000021018004+61000+089750FM-12+004699999V0209999C000012200019N0500001N1-02151-02471103121ADDGA1001+999999999GF100991001001999999001001MD1210131+9999REMSYN054AAXX  10181 23973 42999 00000 11215 21247 40312 52013;
0122239730999992000021021004+61000+089750FM-12+004699999V0209999C000012200019N0500001N1-02321-02641103281ADDGA1001+999999999GF100991001001999999001001MD1210141+9999REMSYN054AAXX  10211 23973 42999 00000 11232 21264 40328 52014;
0215239730999992000021100004+61000+089750FM-12+004699999V0209999C000012200019N0500001N1-02661-02831103341ADDAA199000091AJ100569199999999GF102991001001999999001011IA1249KA1120N-02661MA1999999102651MD1210061+9999REMSYN082AAXX  11001 23973 32999 20000 11266 21283 30265 40334 52006 80001 333 21266 48056;EQDQ01  00002PRCP99
0112239730999992000021103004+61000+089750FM-12+004699999V0209999C000012200019N0500001N1-02711-02941103521ADDGF101991001001999999001011MD1210181+9999REMSYN060AAXX  11031 23973 42999 10000 11271 21294 40352 52018 80001;
0112239730999992000021106004+61000+089750FM-12+004699999V0209999C000012200019N0500001N1-02121-02371103621ADDGF101991001001999999001011MD1210111+9999REMSYN060AAXX  11061 23973 42999 10000 11212 21237 40362 52011 80001;
0112239730999992000021109004+61000+089750FM-12+004699999V0200201N003012200019N0500001N1-01851-02261103631ADDGF101991001001999999001011MD1210011+9999REMSYN060AAXX  11091 23973 42999 10203 11185 21226 40363 52001 80001;
0186239730999992000021112004+61000+089750FM-12+004699999V0209999C000012200019N0500001N1-02241-02491103721ADDAA199000091GF101991001001999999001011KA1999M-01851MA1999999103041MD1210091+9999REMSYN076AAXX  11121 23973 32999 10000 11224 21249 30304 40372 52009 80001 333 11185;EQDQ01  00002PRCP99
0112239730999992000021115004+61000+089750FM-12+004699999V0209999C000012200019N0500001N1-02671-02851103381ADDGF102991001001999999001011MD1210071+9999REMSYN060AAXX  11151 23973 42999 20000 11267 21285 40338 52007 80001;
0122239730999992000021118004+61000+089750FM-12+004699999V0209999C000012200019N0500001N1-02971-03211103851ADDGA1001+999999999GF100991001001999999001001MD1210021+9999REMSYN054AAXX  11181 23973 42999 00000 11297 21321 40385 52002;
0122239730999992000021121004+61000+089750FM-12+004699999V0209999C000012200019N0500001N1-03161-03381103931ADDGA1001+999999999GF100991001001999999001001MD1210081+9999REMSYN054AAXX  11211 23973 42999 00000 11316 21338 40393 52008;
0225239730999992000021200004+61000+089750FM-12+004699999V0209999C000012200019N0500001N1-03271-03511104021ADDAA199000091AJ100569199999999GA1001+999999999GF100991001001999999001001IA1249KA1120N-03271MA1999999103301MD1210081+9999REMSYN076AAXX  12001 23973 32999 00000 11327 21351 30330 40402 52008 333 21327 48056;EQDQ01  00002PRCP99
0112239730999992000021203004+61000+089750FM-12+004699999V0209999C000012200019N0500001N1-03341-03561104091ADDGF102991001001999999001011MD1210071+9999REMSYN060AAXX  12031 23973 42999 20000 11334 21356 40409 52007 80001;
0122239730999992000021206004+61000+089750FM-12+004699999V0209999C000012200019N0500001N1-02901-03131104111ADDGA1001+999999999GF100991001001999999001001MD1210031+9999REMSYN054AAXX  12061 23973 42999 00000 11290 21313 40411 52003;
0122239730999992000021209004+61000+089750FM-12+004699999V0200201N001012200019N0500001N1-02501-02741104061ADDGA1001+999999999GF100991001001999999001001MD1810031+9999REMSYN054AAXX  12091 23973 42999 00201 11250 21274 40406 58003;
0196239730999992000021212004+61000+089750FM-12+004699999V0209999C000012200019N0500001N1-02681-02931104071ADDAA199000091GA1001+999999999GF100991001001999999001001KA1999M-02501MA1999999103381MD1310011+9999REMSYN070AAXX  12121 23973 32999 00000 11268 21293 30338 40407 53001 333 11250;EQDQ01  00002PRCP99
0122239730999992000021215004+61000+089750FM-12+004699999V0209999C000012200019N0500001N1-03121-03361104101ADDGA1001+999999999GF100991001001999999001001MD1210011+9999REMSYN054AAXX  12151 23973 42999 00000 11312 21336 40410 52001;
0122239730999992000021218004+61000+089750FM-12+004699999V0209999C000012200019N0500001N1-03241-03421103951ADDGA1001+999999999GF100991001001999999001001MD1810061+9999REMSYN054AAXX  12181 23973 42999 00000 11324 21342 40395 58006;
0122239730999992000021221004+61000+089750FM-12+004699999V0209999C000012200019N0500001N1-03421-03581104061ADDGA1001+999999999GF100991001001999999001001MD1310011+9999REMSYN054AAXX  12211 23973 42999 00000 11342 21358 40406 53001;
0225239730999992000021300004+61000+089750FM-12+004699999V0209999C000012200019N0500001N1-03391-03611104031ADDAA199000091AJ100569199999999GA1001+999999999GF100991001001999999001001IA1239KA1120N-03421MA1999999103311MD1810031+9999REMSYN076AAXX  13001 23973 32999 00000 11339 21361 30331 40403 58003 333 21342 47056;EQDQ01  00002PRCP99
0122239730999992000021303004+61000+089750FM-12+004699999V0209999C000012200019N0500001N1-03481-03701104001ADDGA1001+999999999GF100991001001999999001001MD1710031+9999REMSYN054AAXX  13031 23973 42999 00000 11348 21370 40400 57003;
0122239730999992000021306004+61000+089750FM-12+004699999V0209999C000012200019N0500001N1-02901-03131103901ADDGA1001+999999999GF100991001001999999001001MD1710091+9999REMSYN054AAXX  13061 23973 42999 00000 11290 21313 40390 57009;
0122239730999992000021309004+61000+089750FM-12+004699999V0209999C000012200019N0500001N1-02161-02481103711ADDGA1001+999999999GF100991001001999999001001MD1710161+9999REMSYN054AAXX  13091 23973 42999 00000 11216 21248 40371 57016;
0196239730999992000021312004+61000+089750FM-12+004699999V0209999C000012200019N0500001N1-02491-02811103581ADDAA199000091GA1001+999999999GF100991001001999999001001KA1999M-02161MA1999999102891MD1710141+9999REMSYN070AAXX  13121 23973 32999 00000 11249 21281 30289 40358 57014 333 11216;EQDQ01  00002PRCP99
0122239730999992000021315004+61000+089750FM-12+004699999V0209999C000012200019N0500001N1-02931-03241103531ADDGA1001+999999999GF100991001001999999001001MD1710071+9999REMSYN054AAXX  13151 23973 42999 00000 11293 21324 40353 57007;
0122239730999992000021318004+61000+089750FM-12+004699999V0209999C000012200019N0500001N1-03171-03471103391ADDGA1001+999999999GF100991001001999999001001MD1710141+9999REMSYN054AAXX  13181 23973 42999 00000 11317 21347 40339 57014;
0122239730999992000021321004+61000+089750FM-12+004699999V0209999C000012200019N0500001N1-03221-03461103301ADDGA1001+999999999GF100991001001999999001001MD1710091+9999REMSYN054AAXX  13211 23973 42999 00000 11322 21346 40330 57009;
0215239730999992000021400004+61000+089750FM-12+004699999V0203101N002012200019N0500001N1-03201-03431103081ADDAA199000091AJ100569199999999GF102991001001999999001011IA1249KA1120N-03221MA1999999102381MD1710211+9999REMSYN082AAXX  14001 23973 32999 23102 11320 21343 30238 40308 57021 80001 333 21322 48056;EQDQ01  00002PRCP99
0112239730999992000021403004+61000+089750FM-12+004699999V0209999C000012200019N0500001N1-03121-03361102951ADDGF102991001001999999001011MD1710131+9999REMSYN060AAXX  14031 23973 42999 20000 11312 21336 40295 57013 80001;
0112239730999992000021406004+61000+089750FM-12+004699999V0209999C000012200019N0500001N1-02021-02211102691ADDGF104991001001999999001091MD1710231+9999REMSYN060AAXX  14061 23973 42999 40000 11202 21221 40269 57023 80009;
0112239730999992000021409004+61000+089750FM-12+004699999V0209999C000019999999N0500001N1-01681-02021102461ADDGF107991071001999999071999MD1710221+9999REMSYN060AAXX  14091 23973 42999 70000 11168 21202 40246 57022 8707/;
0186239730999992000021412004+61000+089750FM-12+004699999V0209999C000019999999N0500001N1-01491-01761102331ADDAA199000091GF108991081001999999011999KA1999M-01491MA1999999101671MD1710131+9999REMSYN076AAXX  14121 23973 32999 80000 11149 21176 30167 40233 57013 8801/ 333 11149;EQDQ01  00002PRCP99
0140239730999992000021415004+61000+089750FM-12+004699999V0202001N002019999999N0100001N1-01071-01271102211ADDAY171031AY221031GF108991081001999999011999MD1710111+9999MW1711REMSYN066AAXX  14151 23973 41997 82002 11107 21127 40221 57011 77172 8801/;
0140239730999992000021418004+61000+089750FM-12+004699999V0209999C000019999999N0100001N1-01181-01311102081ADDAY171061AY221061GF108991081001999999011999MD1710121+9999MW1711REMSYN066AAXX  14181 23973 41997 80000 11118 21131 40208 57012 77172 8801/;
0140239730999992000021421004+61000+089750FM-12+004699999V0202001N002019999999N0100001N1-01221-01351101931ADDAY171031AY221031GF108991081001999999011999MD1710151+9999MW1711REMSYN066AAXX  14211 23973 41997 82002 11122 21135 40193 57015 77172 8801/;
0230239730999992000021500004+61000+089750FM-12+004699999V0209999C000019999999N0100001N1-01311-01441101851ADDAA112001091AJ100579199999999AY171061AY221061GF108991001001999999001071IA1249KA1120N-01491MA1999999101201MD1710091+9999MW1711REMSYN094AAXX  15001 23973 11997 80000 11131 21144 30120 40185 57009 60012 77172 80007 333 21149 48057;
0140239730999992000021503004+61000+089750FM-12+004699999V0209999C000019999999N0100001N1-01431-02491101781ADDAY171031AY221031GF107991071001999999071999MD1710071+9999MW1711REMSYN066AAXX  15031 23973 41997 70000 11143 21249 40178 57007 77172 8707/;
0140239730999992000021506004+61000+089750FM-12+004699999V0201801N005019999999N0100001N1-01091-01291101651ADDAY171061AY221061GF108991081001999999011999MD1710121+9999MW1711REMSYN066AAXX  15061 23973 41997 81805 11109 21129 40165 57012 77172 8801/;
0140239730999992000021509004+61000+089750FM-12+004699999V0201801N004019999999N0100001N1-00991-01161101591ADDAY171031AY221031GF108991081001999999011999MD1710061+9999MW1711REMSYN066AAXX  15091 23973 41997 81804 11099 21116 40159 57006 77172 8801/;
0201239730999992000021512004+61000+089750FM-12+004699999V0201801N003019999999N0500001N1-00961-01081101561ADDAA112001091AY171061AY221061GF108991081001999999011999KA1999M-00961MA1999999100921MD1710031+9999MW1221REMSYN088AAXX  15121 23973 11999 81803 11096 21108 30092 40156 57003 60012 72272 8801/ 333 11096;
0140239730999992000021515004+61000+089750FM-12+004699999V0201901N005019999999N0100001N1-01031-01161101791ADDAY171031AY221031GF108991001001999999001071MD1710031+9999MW1711REMSYN066AAXX  15151 23973 41997 81905 11103 21116 40179 57003 77172 80007;
0140239730999992000021518004+61000+089750FM-12+004699999V0201801N004019999999N0100001N1-00991-01161101531ADDAY171061AY211061GF108991001001999999001071MD1810061+9999MW1711REMSYN066AAXX  15181 23973 41997 81804 11099 21116 40153 58006 77171 80007;
0140239730999992000021521004+61000+089750FM-12+004699999V0202001N003019999999N0100001N1-01021-01151101361ADDAY171031AY221031GF108991001001999999001071MD1710171+9999MW1711REMSYN066AAXX  15211 23973 41997 82003 11102 21115 40136 57017 77172 80007;
0230239730999992000021600004+61000+089750FM-12+004699999V0209999C000019999999N0100001N1-01031-01161101281ADDAA112002091AJ100619199999999AY171061AY221061GF108991001001999999001071IA1249KA1120N-01051MA1999999100641MD1710081+9999MW1711REMSYN094AAXX  16001 23973 11997 80000 11103 21116 30064 40128 57008 60022 77172 80007 333 21105 48061;
0140239730999992000021603004+61000+089750FM-12+004699999V0209999C000019999999N0100001N1-01251-01381101231ADDAY171031AY221031GF108991001001999999001071MD1710051+9999MW1711REMSYN066AAXX  16031 23973 41997 80000 11125 21138 40123 57005 77172 80007;
0140239730999992000021606004+61000+089750FM-12+004699999V0200601N003019999999N0100001N1-00961-01121101111ADDAY171061AY221061GF108991001001999999001071MD1710111+9999MW1711REMSYN066AAXX  16061 23973 41997 80603 11096 21112 40111 57011 77172 80007;
0140239730999992000021609004+61000+089750FM-12+004699999V0203601N003019999999N0100001N1-00951-01161101061ADDAY171031AY221031GF108991001001999999001071MD1710051+9999MW1711REMSYN066AAXX  16091 23973 41997 83603 11095 21116 40106 57005 77172 80007;
0201239730999992000021612004+61000+089750FM-12+004699999V0203601N004019999999N0100001N1-01111-01311101151ADDAA112000591AY171061AY221061GF108991001001999999001071KA1999M-00951MA1999999100511MD1310081+9999MW1711REMSYN088AAXX  16121 23973 11997 83604 11111 21131 30051 40115 53008 69942 77172 80007 333 11095;
0140239730999992000021615004+61000+089750FM-12+004699999V0203501N004019999999N0100001N1-01471-01671101261ADDAY171031AY221031GF108991001001999999001071MD1210101+9999MW1711REMSYN066AAXX  16151 23973 41997 83504 11147 21167 40126 52010 77172 80007;
0140239730999992000021618004+61000+089750FM-12+004699999V0203601N003012200019N0500001N1-01631-01821101471ADDAY171061AY211061GF102991001001999999001011MD1210211+9999MW1021REMSYN066AAXX  16181 23973 41999 23603 11163 21182 40147 52021 70271 80001;
0112239730999992000021621004+61000+089750FM-12+004699999V0209999C000019999999N0500001N1-01731-01921101701ADDGF106991001001999999001021MD1210231+9999REMSYN060AAXX  16211 23973 42999 60000 11173 21192 40170 52023 80002;
0230239730999992000021700004+61000+089750FM-12+004699999V0209999C000019999999N0100001N1-01711-01831101941ADDAA112000391AJ100629199999999AY171061AY211061GF108991001001999999001081IA1249KA1120N-01811MA1999999101291MD1210241+9999MW1711REMSYN094AAXX  17001 23973 11997 80000 11171 21183 30129 40194 52024 69932 77171 80008 333 21181 48062;
0140239730999992000021703004+61000+089750FM-12+004699999V0209999C000019999999N0100001N1-01871-01991102211ADDAY171031AY221031GF108991001001999999001081MD1210251+9999MW1711REMSYN066AAXX  17031 23973 41997 80000 11187 21199 40221 52025 77172 80008;
0140239730999992000021706004+61000+089750FM-12+004699999V0201801N002019999999N0100001N1-01651-01841102381ADDAY171061AY221061GF108991001001999999001081MD1210181+9999MW1711REMSYN066AAXX  17061 23973 41997 81802 11165 21184 40238 52018 77172 80008;
0140239730999992000021709004+61000+089750FM-12+004699999V0201801N004019999999N0100001N1-01721-01981102531ADDAY171031AY221031GF108991001001999999001081MD1210151+9999MW1711REMSYN066AAXX  17091 23973 41997 81804 11172 21198 40253 52015 77172 80008;
0201239730999992000021712004+61000+089750FM-12+004699999V0202401N002019999999N0500001N1-01911-02101102661ADDAA112000391AY171061AY221061GF108991001001999999001081KA1999M-01651MA1999999101991MD1210121+9999MW1021REMSYN088AAXX  17121 23973 11999 82402 11191 21210 30199 40266 52012 69932 70272 80008 333 11165;
0150239730999992000021715004+61000+089750FM-12+004699999V0202201N003012200019N0500001N1-01891-02011102701ADDAY171031AY211031GA1001+999999999GF100991001001999999001001MD1210041+9999MW1221REMSYN060AAXX  17151 23973 41999 02203 11189 21201 40270 52004 72271;
0140239730999992000021718004+61000+089750FM-12+004699999V0209999C000019999999N0100001N1-02281-02461102761ADDAY171061AY211061GF108991001001999999001071MD1210041+9999MW1711REMSYN066AAXX  17181 23973 41997 80000 11228 21246 40276 52004 77171 80007;
0140239730999992000021721004+61000+089750FM-12+004699999V0209999C000019999999N0500001N1-02571-02741102781ADDAY171031AY221031GF108991001001999999001071MD1210021+9999MW1021REMSYN066AAXX  17211 23973 41999 80000 11257 21274 40278 52002 70272 80007;
0230239730999992000021800004+61000+089750FM-12+004699999V0209999C000019999999N0500001N1-02701-02881102851ADDAA112000791AJ100629199999999AY171061AY221061GF108991001001999999001081IA1249KA1120N-02701MA1999999102161MD1210071+9999MW1021REMSYN094AAXX  18001 23973 11999 80000 11270 21288 30216 40285 52007 69902 70272 80008 333 21270 48062;
0112239730999992000021803004+61000+089750FM-12+004699999V0209999C000012200019N0500001N1-02581-02761102841ADDGF101991001001999999001011MD1810011+9999REMSYN060AAXX  18031 23973 42999 10000 11258 21276 40284 58001 80001;
0122239730999992000021806004+61000+089750FM-12+004699999V0209999C000012200019N0500001N1-02221-02401102831ADDGA1001+999999999GF100991001001999999001001MD1310011+9999REMSYN054AAXX  18061 23973 42999 00000 11222 21240 40283 53001;
0122239730999992000021809004+61000+089750FM-12+004699999V0209999C000012200019N0500001N1-02031-02221102811ADDGA1001+999999999GF100991001001999999001001MD1810021+9999REMSYN054AAXX  18091 23973 42999 00000 11203 21222 40281 58002;
0196239730999992000021812004+61000+089750FM-12+004699999V0209999C000012200019N0500001N1-02181-02361102831ADDAA199000091GA1001+999999999GF100991001001999999001001KA1999M-02031MA1999999102161MD1310021+9999REMSYN070AAXX  18121 23973 32999 00000 11218 21236 30216 40283 53002 333 11203;EQDQ01  00002PRCP99
0122239730999992000021815004+61000+089750FM-12+004699999V0203501N001012200019N0500001N1-02411-02601102881ADDGA1001+999999999GF100991001001999999001001MD1210031+9999REMSYN054AAXX  18151 23973 42999 03501 11241 21260 40288 52003;
0122239730999992000021818004+61000+089750FM-12+004699999V0203601N001012200019N0500001N1-02651-02831102851ADDGA1001+999999999GF100991001001999999001001MD1810031+9999REMSYN054AAXX  18181 23973 42999 03601 11265 21283 40285 58003;
0122239730999992000021821004+61000+089750FM-12+004699999V0203601N002012200019N0500001N1-02821-03001102851ADDGA1001+999999999GF100991001001999999001001MD1710011+9999REMSYN054AAXX  18211 23973 42999 03602 11282 21300 40285 57001;
0225239730999992000021900004+61000+089750FM-12+004699999V0203601N001012200019N0500001N1-02821-03001102871ADDAA199000091AJ100629199999999GA1001+999999999GF100991001001999999001001IA1249KA1120N-02841MA1999999102171MD1310021+9999REMSYN076AAXX  19001 23973 32999 03601 11282 21300 30217 40287 53002 333 21284 48062;EQDQ01  00002PRCP99
0112239730999992000021903004+61000+089750FM-12+004699999V0203601N001012200019N0500001N1-02791-02961102891ADDGF102991001001999999001011MD1210021+9999REMSYN060AAXX  19031 23973 42999 23601 11279 21296 40289 52002 80001;
