0197268250999992000010100004+53680+023830FM-12+013599999V0202401N002010021019N0045001N1-00251-00381102371ADDAY171061AY271061GA1081+002109079GF108991999071002501021999MA1999999100651MD1210071+9999MW1711REMSYN092AAXX  01001 26825 41345 82402 11025 21038 30065 40237 52007 77177 8872/ 333 88707 555 1/103;
0166268250999992000010103004+53680+023830FM-12+013599999V0209999C000010021019N0032001N1-00201-00331102421ADDAY171031AY271031GA1081+002109069GF108991999071002501021999MD1210051+9999MW1711REMSYN076AAXX  01031 26825 /1332 80000 11020 21033 40242 52005 77177 8872/ 333 88707;
0241268250999992000010106004+53680+023830FM-12+013599999V0209999C000010018019N0020001N1-00201-00261102321ADDAA112001091AJ100159199999999AY171061AY271061GA1081+001809079GF108991999071002501021999IA1239KA1120N-00251MD1410001+9999MW1711REMSYN104AAXX  01061 26825 11320 80000 11020 21026 40232 54000 60012 77177 8872/ 333 21025 47015 88706 555 90011;
0166268250999992000010109004+53680+023830FM-12+013599999V0209999C000010018019N0018001N1-00241-00301102321ADDAY171031AY271031GA1081+001809069GF108991999071001501021999MD1410001+9999MW1711REMSYN076AAXX  01091 26825 41218 80000 11024 21030 40232 54000 77177 8872/ 333 88706;
0197268250999992000010112004+53680+023830FM-12+013599999V0209999C000010015019N0015001N1-00141-00201102301ADDAY171061AY271061GA1081+001509079GF108991999071001501021999MA1999999100601MD1410001+9999MW1711REMSYN092AAXX  01121 26825 41215 80000 11014 21020 30060 40230 54000 77177 8872/ 333 88705 555 1/100;
0166268250999992000010115004+53680+023830FM-12+013599999V0209999C000010018019N0025001N1-00191-00251102321ADDAY171031AY271031GA1081+001809069GF108991999071002501021999MD1410001+9999MW1711REMSYN076AAXX  01151 26825 41325 80000 11019 21025 40232 54000 77177 8872/ 333 88706;
0202268250999992000010118004+53680+023830FM-12+013599999V0209999C000010012019N0021001N1-00201-00261102401ADDAA112000891AY171061AY271061GA1081+001209069GF108991999071001501021999KA1120M-00121MD1310081+9999MW1711REMSYN088AAXX  01181 26825 11221 80000 11020 21026 40240 53008 69982 77177 8872/ 333 11012 88704;
0166268250999992000010121004+53680+023830FM-12+013599999V0201501N002010009019N0011001N1-00221-00281102491ADDAY121031AY221031GA1081+000909069GF108991081061000751999999MD1210091+9999MW1101REMSYN076AAXX  01211 26825 41111 81502 11022 21028 40249 52009 71022 886// 333 88703;
0197268250999992000010200004+53680+023830FM-12+013599999V0209999C000010006019N0004001N1-00291-00291102521ADDAY171061AY241061GA1091+000609999GF109991091999999999999999MA1999999100801MD1210031+9999MW1451REMSYN092AAXX  02001 26825 41/04 90000 11029 21029 30080 40252 52003 74574 333 89/02 93401 555 1/103;
0224268250999992000010203004+53680+023830FM-12+013599999V0209999C000010012019N0014001N1-00241-00301102601ADDAA112000291AY141031AY221031GA1081+001209079GF108991081061001501999999MD1210081+9999MW1421REMSYN104AAXX  02031 26825 /1214 80000 11024 21030 40260 52008 74342 886// 333 88704 93401 555 21032 69922 7001/;EQDQ01+000432PRSWM1
0266268250999992000010206004+53680+023830FM-12+013599999V0202301N002010015019N0018001N1-00281-00321102621ADDAA112001091AJ100159199999999AY171061AY241061GA1081+001509079GF108991999071001501021999IA1239KA1120N-00321MD1210021+9999MW1711REMSYN110AAXX  02061 26825 11218 82302 11028 21032 40262 52002 60012 77174 8872/ 333 21032 47015 88705 93401 555 90011;EQDQ01+000082SCOTLC
0150268250999992000010209004+53680+023830FM-12+013599999V0202501N003019999999N0060001N1-00211-00301102621ADDAY171031AY221031GF107991071001999999031999MD1410001+9999MW1101REMSYN076AAXX  02091 26825 41956 72503 11021 21030 40262 54000 71072 8703/ 333 93401;
0181268250999992000010212004+53680+023830FM-12+013599999V0202401N002019999999N0060001N1-00261-00361102671ADDAY171061AY221061GF107991071001999999031999MA1999999100951MD1310051+9999MW1101REMSYN092AAXX  02121 26825 41956 72402 11026 21036 30095 40267 53005 71072 8703/ 333 93401 555 1/101;
0166268250999992000010215004+53680+023830FM-12+013599999V0202201N002010024019N0050001N1-00391-00491102721ADDAY121031AY221031GA1081+002409069GF108991081061002501999999MD1210031+9999MW1101REMSYN076AAXX  02151 26825 41350 82202 11039 21049 40272 52003 71022 886// 333 88708;
0202268250999992000010218004+53680+023830FM-12+013599999V0202001N004010015019N0025001N1-00581-00621102561ADDAA112000791AY121061AY221061GA1081+001509069GF108991081061001501999999KA1120M-00051MD1810171+9999MW1101REMSYN088AAXX  02181 26825 11225 82004 11058 21062 40256 58017 69902 71022 886// 333 11005 88705;
0166268250999992000010221004+53680+023830FM-12+013599999V0202001N004010099019N0050001N1-00551-00621102291ADDAY121031AY221031GA1081+009909059GF108991081051012501999999MD1710261+9999MW1101REMSYN076AAXX  02211 26825 41650 82004 11055 21062 40229 57026 71022 885// 333 88633;
0129268250999992000010300004+53680+023830FM-12+013599999V0202001N005019999999N0040001N1-00471+99999999999ADDGF108991999999004501999999REMSYN091AAXX  03001 26825 41440 82005 11047 2103 30032 40205 57023 71022 886// 333 88712 555 1/105;
0218268250999992000010303004+53680+023830FM-12+013599999V0202201N005010021019N0028001N1-00311-00351101671ADDAA112000391AY171031AY221031GA1081+002109079GF108991999071002501021999MD1710361+9999MW1711REMSYN098AAXX  03031 26825 /1328 82205 11031 21035 40167 57036 77172 8872/ 333 88707 555 21058 69932 7002/;EQDQ01+000082SCOTLC
0241268250999992000010306004+53680+023830FM-12+013599999V0202701N004010021019N0050001N1+00021-00041101521ADDAA112000391AJ100169199999999AY171061AY221061GA1081+002109079GF108991081061002501999999IA1239KA1120N-00581MD1610131+9999MW1101REMSYN104AAXX  03061 26825 11350 82704 10002 21004 40152 56013 69932 71072 886// 333 21058 47016 88707 555 90011;
0138268250999992000010309004+53680+023830FM-12+013599999V0202701N005010024019N0100001N1+00161+00081101601ADDGA1081+002409069GF108991081061002501999999MD1310091+9999REMSYN070AAXX  03091 26825 42360 82705 10016 20008 40160 53009 886// 333 88708;
0169268250999992000010312004+53680+023830FM-12+013599999V0202801N005010048019N0100001N1+00231+00101101641ADDGA1081+004809079GF108991081061004501999999MA1999999099961MD1210041+9999REMSYN086AAXX  03121 26825 42460 82805 10023 20010 39996 40164 52004 886// 333 88716 555 1/002;
0138268250999992000010315004+53680+023830FM-12+013599999V0202701N004010060019N0100001N1+00181+00051101681ADDGA1071+006009059GF107991071051008001999999MD1210041+9999REMSYN070AAXX  03151 26825 42560 72704 10018 20005 40168 52004 875// 333 87620;
0187268250999992000010318004+53680+023830FM-12+013599999V0202401N002010069019N0100001N1+00121+00041101681ADDAA106000091GA1071+006909059GF107991071051008001999999KA1120M+00251MD1410001+9999REMSYN076AAXX  03181 26825 32560 72402 10012 20004 40168 54000 875// 333 10025 87623;EQDQ01  00002PRCP06
0138268250999992000010321004+53680+023830FM-12+013599999V0201901N002010063019N0100001N1+00151+00071101681ADDGA1071+006309059GF107991071051008001999999MD1410001+9999REMSYN070AAXX  03211 26825 42560 71902 10015 20007 40168 54000 875// 333 87621;
0175268250999992000010400004+53680+023830FM-12+013599999V0202101N005010042019N0060001N1+00101+00051101511ADDAY121061AY221061GF108991081061004501999999MA1999999099831MD1810171+9999MW1101REMSYN086AAXX  04001 26825 41456 82105 10010 20005 39983 40151 58017 71022 886// 333 555 1/001;
0212268250999992000010403004+53680+023830FM-12+013599999V0202001N005010015019N0045001N1+00111+00061101411ADDAA106000091AY121031AY221031GA1081+001509079GF108991081061001501999999MD1710091+9999MW1101REMSYN092AAXX  04031 26825 31245 82005 10011 20006 40141 57009 71022 886// 333 88705 555 20010 7990/;EQDQ01  00002PRCP06
0222268250999992000010406004+53680+023830FM-12+013599999V0202101N004010012019N0042001N1+00121+00091101291ADDAA112000791AJ100159199999999AY151061AY221061GA1081+001209079GF108991081061001501999999IA1239MD1710121+9999MW1511REMSYN098AAXX  04061 26825 11242 82104 10012 20009 40129 57012 69902 75152 886// 333 47015 88704 555 90010;
0194268250999992000010412004+53680+023830FM-12+013599999V0202401N002010012019N0060001N1+00191+00111101181ADDAY161061AY251061GF108991999071001501021999MA1999999099511MD1710061+9999MW1611REMSYN086AAXX  04121 26825 41256 82402 10019 20011 39951 40118 57006 76165 8872/ 333 555 1/001;EQDQ01+000082SCOTLC
0166268250999992000010415004+53680+023830FM-12+013599999V0202701N004010018019N0100001N1+00231+00151101291ADDAY161031AY221031GA1081+001809069GF108991081061001501999999MD1310111+9999MW1211REMSYN076AAXX  04151 26825 41260 82704 10023 20015 40129 53011 72162 886// 333 88706;
0166268250999992000010418004+53680+023830FM-12+013599999V0202701N004010018019N0100001N1+00231+00151101291ADDAY161061AY221061GA1081+001809069GF108991081061001501999999MD1310111+9999MW1211REMSYN076AAXX  04181 26825 41260 82704 10023 20015 40129 53011 72162 886// 333 88706;
0138268250999992000010421004+53680+023830FM-12+013599999V0202601N003010060019N0100001N1+00171+00061101441ADDGA1061+006009059GF106991061051008001001001MD1210061+9999REMSYN070AAXX  04211 26825 42560 62603 10017 20006 40144 52006 86500 333 86620;
0169268250999992000010500004+53680+023830FM-12+013599999V0202501N003010060019N0100001N1+00161+00051101481ADDGA1071+006009069GF107991071051008001999999MA1999999099801MD1210041+9999REMSYN086AAXX  05001 26825 42560 72503 10016 20005 39980 40148 52004 875// 333 87620 555 1/001;
0184268250999992000010503004+53680+023830FM-12+013599999V0202101N003010063019N0100001N1+00181+00071101361ADDAA106000091GA1071+006309069GF107991071051008001999999MD1810111+9999REMSYN086AAXX  05031 26825 32560 72103 10018 20007 40136 58011 875// 333 87621 555 20014 7002/;EQDQ01  00002PRCP06
0226268250999992000010506004+53680+023830FM-12+013599999V0201801N004010039019N0100001N1+00141+00061101201ADDAA106000091AJ100139199999999GA1081+003909079GF108991081061004501999999IA1239KA1120N+00121MD1710161+9999REMSYN092AAXX  05061 26825 32460 81804 10014 20006 40120 57016 886// 333 20012 47013 88713 555 90010;EQDQ01  00002PRCP06
0185268250999992000010509004+53680+023830FM-12+013599999V0201701N004010015019N0034001N1+00081+00031101041ADDAY171031AY221031GA1081+001509069GF108991999071001501021999MD1710161+9999MW1711REMSYN076AAXX  05091 26825 41234 81704 10008 20003 40104 57016 77172 8872/ 333 88705;EQDQ01+000082SCOTLC
0216268250999992000010512004+53680+023830FM-12+013599999V0201701N003010009019N0022001N1+00041-00021100951ADDAY171061AY221061GA1081+000909079GF108991999071001501021999MA1999999099271MD1710101+9999MW1731REMSYN092AAXX  05121 26825 41222 81703 10004 21002 39927 40095 57010 77372 8872/ 333 88703 555 1/000;EQDQ01+000082SCOTLC
0185268250999992000010515004+53680+023830FM-12+013599999V0201701N003010012019N0028001N1+00031-00031101031ADDAY171031AY221031GA1081+001209069GF108991999071001501021999MD1310071+9999MW1711REMSYN076AAXX  05151 26825 41228 81703 10003 21003 40103 53007 77172 8872/ 333 88704;EQDQ01+000082SCOTLC
0166268250999992000010521004+53680+023830FM-12+013599999V0203301N002010015019N0060001N1+00141+00111101531ADDAY121031AY221031GA1081+001509069GF108991081061001501999999MD1210291+9999MW1101REMSYN076AAXX  05211 26825 41256 83302 10014 20011 40153 52029 71022 886// 333 88705;
0199268250999992000010603004+53680+023830FM-12+013599999V0203401N003010015019N0060001N1+00081+00031102161ADDAA112001091AY121031AY221031GA1081+001509079GF108991081061001501999999MD1210281+9999MW1101REMSYN098AAXX  06031 26825 31256 83403 10008 20003 40216 52028 71022 886// 333 88705 555 20008 60012 7007/;
0254268250999992000010606004+53680+023830FM-12+013599999V0203301N002010018019N0060001N1+00061+00011102351ADDAA106000091AJ100139199999999AY121061AY221061GA1081+001809079GF108991081061001501999999IA1279KA1120N+00061MD1210191+9999MW1101REMSYN098AAXX  06061 26825 31256 83302 10006 20001 40235 52019 71022 886// 333 20006 43013 88706 555 90011;EQDQ01  00002PRCP06
0166268250999992000010609004+53680+023830FM-12+013599999V0209999C000010027019N0060001N1-00021-00141102531ADDAY121031AY221031GA1081+002709069GF108991081061002501999999MD1210161+9999MW1101REMSYN076AAXX  06091 26825 41356 80000 11002 21014 40253 52016 71022 886// 333 88709;
0197268250999992000010612004+53680+023830FM-12+013599999V0201201N002010030019N0060001N1-00041-00251102571ADDAY121061AY221061GA1081+003009079GF108991081061004501999999MA1999999100861MD1210041+9999MW1101REMSYN092AAXX  06121 26825 41456 81202 11004 21025 30086 40257 52004 71022 886// 333 88710 555 1/000;
0166268250999992000010615004+53680+023830FM-12+013599999V0201901N003010030019N0060001N1-00061-00271102571ADDAY121031AY221031GA1081+003009069GF108991081061004501999999MD1410001+9999MW1101REMSYN076AAXX  06151 26825 41456 81903 11006 21027 40257 54000 71022 886// 333 88710;
0166268250999992000010621004+53680+023830FM-12+013599999V0202001N005010024019N0060001N1-00111-00291102491ADDAY121031AY221031GA1081+002409069GF108991081061002501999999MD1710061+9999MW1101REMSYN076AAXX  06211 26825 41356 82005 11011 21029 40249 57006 71022 886// 333 88708;
0169268250999992000010700004+53680+023830FM-12+013599999V0201901N006010030019N0100001N1-00141-00331102431ADDGA1081+003009079GF108991081061004501999999MA1999999100731MD1710051+9999REMSYN086AAXX  07001 26825 42460 81906 11014 21033 30073 40243 57005 886// 333 88710 555 1/102;
0243268250999992000010706004+53680+023830FM-12+013599999V0202001N006010033019N0100001N1-00101-00251102211ADDAA106000091AJ100129199999999GA1081+003309079GF108991081061004501999999IA1279KA1120N-00151MD1710111+9999OA149901001REMSYN098AAXX  07061 26825 32460 82006 11010 21025 40221 57011 886// 333 21015 43012 88711 91110 555 90011;EQDQ01  00002PRCP06
0122268250999992000010709004+53680+023830FM-12+013599999V0202001N005012200019N0100001N1-00031-00271102181ADDGF102991021001999999031001MD1510031+9999REMSYN070AAXX  07091 26825 42960 22005 11003 21027 40218 55003 82030 333 91110;
0169268250999992000010712004+53680+023830FM-12+013599999V0202001N005010045019N0100001N1+00021-00221102161ADDGA1081+004509079GF108991081061004501999999MA1999999100461MD1810021+9999REMSYN086AAXX  07121 26825 42460 82005 10002 21022 30046 40216 58002 886// 333 88715 555 1/001;
0138268250999992000010715004+53680+023830FM-12+013599999V0202101N004010021019N0050001N1+00031-00111102231ADDGA1081+002109069GF108991081061002501999999MD1310071+9999REMSYN070AAXX  07151 26825 42350 82104 10003 21011 40223 53007 886// 333 88707;
0215268250999992000010718004+53680+023830FM-12+013599999V0202001N002010021019N0050001N1+00031-00081102251ADDAA106000091AY121061AY221061GA1081+002109069GF108991081061002501999999KA1120M+00041MD1210021+9999MW1101REMSYN082AAXX  07181 26825 31350 82002 10003 21008 40225 52002 71022 886// 333 10004 88707;EQDQ01  00002PRCP06
0191268250999992000010800004+53680+023830FM-12+013599999V0202201N002010006019N0004001N1+99999+99999102361ADDAY141061AY221061GA1091+000609999GF109991091999999999999999MA1999999100671MD1210021+9999MW1451REMSYN086AAXX  08001 26825 41/04 92202 18085 20005 30067 40236 52002 74542 333 89/02 555 1/080;
0206268250999992000010803004+53680+023830FM-12+013599999V0202001N002010006019N0008001N1+00061+99999102311ADDAA106000091AY141031AY241031GA1091+000609999GF109991091999999999999999MD1810051+9999MW1431REMSYN086AAXX  08031 26825 31/08 92002 10006 20086 40231 58005 74344 333 89/02 555 20003 7000/;EQDQ01  00002PRCP06
0254268250999992000010806004+53680+023830FM-12+013599999V0202101N004010009019N0025001N1+00091+00061102281ADDAA106000091AJ100119199999999AY141061AY221061GA1081+000909079GF108991081061001501999999IA1279KA1120N+00031MD1710031+9999MW1101REMSYN098AAXX  08061 26825 31225 82104 10009 20006 40228 57003 71042 886// 333 20003 43011 88703 555 90011;EQDQ01  00002PRCP06
0160268250999992000010809004+53680+023830FM-12+013599999V0201801N003010003019N0003001N1+00141+00141102321ADDAY141031AY221031GA1091+000309999GF109991091999999999999999MD1310041+9999MW1471REMSYN070AAXX  08091 26825 41/03 91803 10014 20014 40232 53004 74742 333 89/01;
0197268250999992000010812004+53680+023830FM-12+013599999V0202101N005010009019N0040001N1+00191+00111102211ADDAY141061AY221061GA1081+000909079GF108991081061001501999999MA1999999100521MD1810111+9999MW1101REMSYN092AAXX  08121 26825 41240 82105 10019 20011 30052 40221 58011 71042 886// 333 88703 555 1/000;
0166268250999992000010815004+53680+023830FM-12+013599999V0202001N003010009019N0040001N1+00171+00091102181ADDAY121031AY221031GA1081+000909069GF108991081061001501999999MD1710031+9999MW1101REMSYN076AAXX  08151 26825 41240 82003 10017 20009 40218 57003 71022 886// 333 88703;
0215268250999992000010818004+53680+023830FM-12+013599999V0202001N003010015019N0042001N1+00161+00051102221ADDAA106000091AY121061AY221061GA1081+001509069GF108991081061001501999999KA1120M+00201MD1310041+9999MW1101REMSYN082AAXX  08181 26825 31242 82003 10016 20005 40222 53004 71022 886// 333 10020 88705;EQDQ01  00002PRCP06
0166268250999992000010821004+53680+023830FM-12+013599999V0202101N003010018019N0040001N1+00131+00021102201ADDAY121031AY221031GA1081+001809069GF108991081061002501999999MD1810021+9999MW1101REMSYN076AAXX  08211 26825 41340 82103 10013 20002 40220 58002 71022 886// 333 88706;
0218268250999992000010900004+53680+023830FM-12+013599999V0209999C000010018019N0040001N1+00131+00021102201ADDAY121061AY221061GA1081+001809079GF108991081061002501999999MA1999999100511MW1101REMSYN092AAXX  09001 26825 41340 80000 10013 20002 30051 40220 56000 71022 886// 333 88706 555 1/001;EQDQ01+000062APCTENQ02+000002APC3  
0212268250999992000010903004+53680+023830FM-12+013599999V0202101N003010018019N0040001N1+00121-00021102201ADDAA106000091AY121031AY221031GA1081+001809079GF108991081061001501999999MD1410001+9999MW1101REMSYN092AAXX  09031 26825 31240 82103 10012 21002 40220 54000 71022 886// 333 88706 555 20010 7000/;EQDQ01  00002PRCP06
0166268250999992000010909004+53680+023830FM-12+013599999V0202001N002010018019N0035001N1+00121-00021102321ADDAY121031AY221031GA1081+001809069GF108991081061001501999999MD1210081+9999MW1101REMSYN076AAXX  09091 26825 41235 82002 10012 21002 40232 52008 71022 886// 333 88706;
0216268250999992000010912004+53680+023830FM-12+013599999V0202001N003010024019N0038001N1+00171-00021102321ADDAY121061AY221061GA1081+002409079GF108991081061002501999999MA1999999100611MD1410001+9999MW1101REMSYN092AAXX  09121 26825 41338 82003 10017 21002 30061 40232 51000 71022 886// 333 88708 555 1/001;EQDQ01+000012APCTEN
0166268250999992000010915004+53680+023830FM-12+013599999V0201901N003010024019N0038001N1+00201+00011102361ADDAY121031AY221031GA1081+002409069GF108991081061002501999999MD1310061+9999MW1101REMSYN076AAXX  09151 26825 41338 81903 10020 20001 40236 53006 71022 886// 333 88708;
0215268250999992000010918004+53680+023830FM-12+013599999V0201701N002010030019N0032001N1+00121-00021102371ADDAA106000091AY121061AY221061GA1081+003009069GF108991081061004501999999KA1120M+00251MD1210011+9999MW1101REMSYN082AAXX  09181 26825 31432 81702 10012 21002 40237 52001 71022 886// 333 10025 88710;EQDQ01  00002PRCP06
0166268250999992000010921004+53680+023830FM-12+013599999V0201901N003010021019N0032001N1+00101-00011102381ADDAY121031AY221031GA1081+002109069GF108991081061002501999999MD1210011+9999MW1101REMSYN076AAXX  09211 26825 41332 81903 10010 21001 40238 52001 71022 886// 333 88707;
0197268250999992000011000004+53680+023830FM-12+013599999V0202701N002010021019N0031001N1+00101-00011102431ADDAY121061AY221061GA1081+002109079GF108991081061002501999999MA1999999100741MD1210051+9999MW1101REMSYN092AAXX  10001 26825 41331 82702 10010 21001 30074 40243 52005 71022 886// 333 88707 555 1/000;
0199268250999992000011003004+53680+023830FM-12+013599999V0202801N002010009019N0012001N1+00141+00091102501ADDAA112999929AY151031AY221031GA1081+000909079GF108991081061001501999999MD1210061+9999MW1511REMSYN098AAXX  10031 26825 /1212 82802 10014 20009 40250 52006 75152 886// 333 88703 555 20010 69902 7990/;
0241268250999992000011006004+53680+023830FM-12+013599999V0202801N003010009019N0015001N1+00081+00031102631ADDAA112000791AJ100059199999999AY151061AY221061GA1081+000909079GF108991081061001501999999IA1309KA1120N+00081MD1210131+9999MW1511REMSYN104AAXX  10061 26825 11215 82803 10008 20003 40263 52013 69902 75152 886// 333 20008 42005 88703 555 90011;
0166268250999992000011009004+53680+023830FM-12+013599999V0202701N003010015019N0030001N1+00121+00071102821ADDAY151031AY221031GA1081+001509069GF108991081061001501999999MD1210191+9999MW1101REMSYN076AAXX  10091 26825 41230 82703 10012 20007 40282 52019 71052 886// 333 88705;
0175268250999992000011012004+53680+023830FM-12+013599999V0202601N002010021019N0050001N1+00171+00091102871ADDAY151061AY221061GF107991071061002501031999MA1999999101171MD1210051+9999MW1101REMSYN086AAXX  10121 26825 41350 72602 10017 20009 30117 40287 52005 71052 8763/ 333 555 1/001;
0166268250999992000011015004+53680+023830FM-12+013599999V0202701N003010024019N0060001N1+00161+00051103041ADDAY121031AY221031GA1081+002409069GF108991081061002501999999MD1210161+9999MW1101REMSYN076AAXX  10151 26825 41356 82703 10016 20005 40304 52016 71022 886// 333 88708;
0183268250999992000011018004+53680+023830FM-12+013599999V0202701N003010033019N0060001N1+00151+00071103201ADDAA112000791AY121061AY221061GA1081+003309069GF108991081061004501999999MD1210161+9999MW1101REMSYN082AAXX  10181 26825 11456 82703 10015 20007 40320 52016 69902 71022 886// 333 88711;
0166268250999992000011021004+53680+023830FM-12+013599999V0202501N003010030019N0060001N1+00131+00051103301ADDAY121031AY221031GA1081+003009069GF108991081061004501999999MD1210101+9999MW1101REMSYN076AAXX  10211 26825 41456 82503 10013 20005 40330 52010 71022 886// 333 88710;
0174268250999992000011100004+53680+023830FM-12+013599999V0202501N002010042019N0060001N1+00101+00021103411ADDAY121061AY221061GF108991081061004501999999MA1999999101701MD1210111+9999MW1101REMSYN085AAXX  11001 26825 41456 82502 1001020002 30170 40341 52011 71022 886// 333 555 1/000;
0212268250999992000011103004+53680+023830FM-12+013599999V0202401N002010048019N0060001N1+00081+00001103481ADDAA106000091AY121031AY221031GA1081+004809079GF108991081061004501999999MD1210061+9999MW1101REMSYN092AAXX  11031 26825 31456 82402 10008 21000 40348 52006 71022 886// 333 88716 555 20008 7990/;EQDQ01  00002PRCP06
0254268250999992000011106004+53680+023830FM-12+013599999V0202201N002010066019N0060001N1+00101+00021103581ADDAA106000091AJ100029199999999AY121061AY221061GA1081+006609079GF108991081061008001999999IA1309KA1120N+00081MD1210101+9999MW1101REMSYN098AAXX  11061 26825 31556 82202 10010 20002 40358 52010 71022 886// 333 20008 42002 88722 555 90011;EQDQ01  00002PRCP06
0138268250999992000011109004+53680+023830FM-12+013599999V0202401N002010099019N0100001N1+00101-00011103681ADDGA1071+009909059GF107991071051012501999999MD1210101+9999REMSYN070AAXX  11091 26825 42660 72402 10010 21001 40368 52010 875// 333 87633;
0169268250999992000011112004+53680+023830FM-12+013599999V0202601N002010108019N0100001N1+00171-00021103661ADDGA1071+010809069GF107991071051012501999999MA1999999101941MD1810021+9999REMSYN086AAXX  11121 26825 42660 72602 10017 21002 30194 40366 58002 875// 333 87636 555 1/001;
0157268250999992000011115004+53680+023830FM-12+013599999V0202401N002010120019N0100001N1+00211-00011103661ADDGA1071+012009059GF107991071051012501999999MD1410001+9999REMSYN070AAXX  11151 26825 42660 72402 10021 21001 40366 56000 875// 333 87640;EQDQ01+000062APCTEN
0215268250999992000011118004+53680+023830FM-12+013599999V0202401N002010093019N0060001N1+00061-00301103711ADDAA106000091AY121061AY221061GA1071+009309059GF107991071051008001999999KA1120M+00211MD1310051+9999MW1101REMSYN082AAXX  11181 26825 31556 72402 10006 21030 40371 53005 71022 875// 333 10021 87631;EQDQ01  00002PRCP06
0159268250999992000011200004+53680+023830FM-12+013599999V0202201N002010078019N0100001N1-00111-00461103721ADDGA1051+007809059GF105991051051008001001001MA1999999101991MD1410001+9999REMSYN076AAXX  12001 26825 42560 52202 11011 21046 30199 40372 54000 85500 333 85626;
0168268250999992000011203004+53680+023830FM-12+013599999V0202201N003012200019N0100001N1-00201-00391103621ADDAA106000091GA1001+999999999GF100991001001999999001001MD1810111+9999REMSYN070AAXX  12031 26825 32960 02203 11020 21039 40362 58011 555 21024 7000/;EQDQ01  00002PRCP06
0226268250999992000011206004+53680+023830FM-12+013599999V0202301N003010042019N0100001N1-00201-00391103651ADDAA106000091AJ100029199999999GA1081+004209079GF108991081061004501999999IA1279KA1120N-00251MD1310021+9999REMSYN092AAXX  12061 26825 32460 82303 11020 21039 40365 53002 886// 333 21025 43002 88714 555 90011;EQDQ01  00002PRCP06
0138268250999992000011209004+53680+023830FM-12+013599999V0202201N003010036019N0100001N1-00141-00461103601ADDGA1071+003609069GF107991071061004501001001MD1810041+9999REMSYN070AAXX  12091 26825 42460 72203 11014 21046 40360 58004 87600 333 87712;
0153268250999992000011212004+53680+023830FM-12+013599999V0202101N004012200019N0100001N1+00131-00391103421ADDGA1001+999999999GF100991001001999999001001MA1999999101711MD1710151+9999REMSYN070AAXX  12121 26825 42960 02104 10013 21039 30171 40342 57015 555 1/001;
0112268250999992000011215004+53680+023830FM-12+013599999V0202101N004019999999N0100001N1-00081-00401103391ADDGF105991001001999999001011MD1710041+9999REMSYN060AAXX  12151 26825 42960 52104 11008 21040 40339 57004 80001;
0175268250999992000011218004+53680+023830FM-12+013599999V0202001N004012200019N0100001N1-00221-00441103401ADDAA106000091GA1001+999999999GF100991001001999999001001KA1999M+00181MD1410001+9999REMSYN064AAXX  12181 26825 32960 02004 11022 21044 40340 54000 333 10018;EQDQ01  00002PRCP06
0122268250999992000011221004+53680+023830FM-12+013599999V0202001N004012200019N0100001N1-00341-00511103361ADDGA1001+999999999GF100991001001999999001001MD1810051+9999REMSYN054AAXX  12211 26825 42960 02004 11034 21051 40336 58005;
0153268250999992000011300004+53680+023830FM-12+013599999V0202001N004012200019N0100001N1-00371-00521103301ADDGA1001+999999999GF100991001001999999001001MA1999999101551MD1710071+9999REMSYN070AAXX  13001 26825 42960 02004 11037 21052 30155 40330 57007 555 1/105;
0168268250999992000011303004+53680+023830FM-12+013599999V0201801N003012200019N0100001N1-00501-00671103151ADDAA106000091GA1001+999999999GF100991001001999999001001MD1710151+9999REMSYN070AAXX  13031 26825 32960 01803 11050 21067 40315 57015 555 21051 7000/;EQDQ01  00002PRCP06
0194268250999992000011306004+53680+023830FM-12+013599999V0201701N004019999999N0100001N1-00521-00691103141ADDAA106000091AJ100009199999999GF105991001001999999001011IA1259KA1120N-00521MD1610011+9999REMSYN076AAXX  13061 26825 32960 51704 11052 21069 40314 56001 80001 333 21052 41000;EQDQ01  00002PRCP06
0112268250999992000011309004+53680+023830FM-12+013599999V0201801N005019999999N0100001N1-00441-00641103091ADDGF106991001001999999001011MD1810051+9999REMSYN060AAXX  13091 26825 42960 61805 11044 21064 40309 58005 80001;
0143268250999992000011312004+53680+023830FM-12+013599999V0201701N005019999999N0100001N1-00201-00451102961ADDGF105991001001999999001011MA1999999101241MD1710101+9999REMSYN076AAXX  13121 26825 42960 51705 11020 21045 30124 40296 57010 80001 555 1/102;
0112268250999992000011315004+53680+023830FM-12+013599999V0201601N006019999999N0100001N1-00351-00561102921ADDGF105991001001999999001011MD1710061+9999REMSYN060AAXX  13151 26825 42960 51606 11035 21056 40292 57006 80001;
0193268250999992000011318004+53680+023830FM-12+013599999V0201801N006010030019N0100001N1-00401-00551103001ADDAA106000091GA1081+003009069GF108991081071004501999999KA1120M-00201MD1310071+9999REMSYN082AAXX  13181 26825 32460 81806 11040 21055 40300 53007 887// 333 11020 88610 91110;EQDQ01  00002PRCP06
0126268250999992000011321004+53680+023830FM-12+013599999V0209999C000012200019N0100001N1-00401-00451103061ADDGA1001+999999999GF100991001001999999001001MD1210061+9999REMSYN058    AAXX  13211 26825 42960 00000 11040 21045 40306 52006;
0157268250999992000011400004+53680+023830FM-12+013599999V0209999C000012200019N0100001N1-00691-00751102921ADDGA1001+999999999GF100991001001999999001001MA1999999101181MD1210041+9999REMSYN074    AAXX  14001 26825 42960 00000 11069 21075 30118 40292 52004 555 1/109;
0172268250999992000011403004+53680+023830FM-12+013599999V0202001N999992200019N0100001N1-00691-00781102921ADDAA199000091GF101991999999999999999999MD1410001+9999REMSYN074    AAXX  14031 26825 32960 17002 11069 21078 40292 54000 555 21069 7000/;EQDQ01+010201WOSPD Q02  00002PRCP99
0208268250999992000011406004+53680+023830FM-12+013599999V0201501N002012200019N0100001N1-00831-00891102971ADDAA199000091AJ100009199999999GA1001+999999999GF100991001001999999001001IA1259KA1120N-00831MD1310031+9999REMSYN074    AAXX  14061 26825 32960 01502 11083 21089 40297 53003 333 21083 41000;EQDQ01  00002PRCP99
0126268250999992000011409004+53680+023830FM-12+013599999V0201801N003012200019N0100001N1-00711-00841102961ADDGA1001+999999999GF100991001001999999001001MD1410001+9999REMSYN058    AAXX  14091 26825 42960 01803 11071 21084 40296 54000;
0147268250999992000011412004+53680+023830FM-12+013599999V0201601N004019999999N0100001N1-00501-00741102921ADDGF105991001001999999001011MA1999999101181MD1810031+9999REMSYN080    AAXX  14121 26825 42960 51604 11050 21074 30118 40292 58003 80001 555 1/103;
0170268250999992000011415004+53680+023830FM-12+013599999V0201601N004010030019N0050001N1-00541-00681102961ADDAY121031AY221031GA1081+003009069GF108991081061004501999999MD1310031+9999MW1101REMSYN080    AAXX  14151 26825 41450 81604 11054 21068 40296 53003 71022 886// 333 88710;
0235268250999992000011418004+53680+023830FM-12+013599999V0201501N004010030019N0042001N1-00561-00631102961ADDAA199000091AY121061AY221061GA1081+003009069GF108991081061004501999999KA1120M-00441MD1410001+9999MW1101REMSYN086    AAXX  14181 26825 31442 81504 11056 21063 40296 51000 71022 886// 333 11044 88710;EQDQ01+000012APCTENQ02  00002PRCP99
0170268250999992000011421004+53680+023830FM-12+013599999V0201601N003010030019N0042001N1-00601-00641103031ADDAY121031AY221031GA1081+003009069GF108991081061004501999999MD1310061+9999MW1101REMSYN080    AAXX  14211 26825 41442 81603 11060 21064 40303 53006 71022 886// 333 88710;
0220268250999992000011500004+53680+023830FM-12+013599999V0201501N002010030019N0042001N1-00661-00711103031ADDAY121061AY221061GA1081+003009079GF108991081061004501999999MA1999999101271MD1410001+9999MW1101REMSYN096    AAXX  15001 26825 41442 81502 11066 21071 30127 40303 51000 71022 886// 333 88710 555 1/106;EQDQ01+000012APCTEN
0216268250999992000011503004+53680+023830FM-12+013599999V0201501N002010027019N0050001N1-00661-00711103031ADDAA199000091AY121031AY221031GA1081+002709079GF108991081061002501999999MD1410001+9999MW1101REMSYN096    AAXX  15031 26825 31350 81502 11066 21071 40303 54000 71022 886// 333 88709 555 21070 7000/;EQDQ01  00002PRCP99
0248268250999992000011506004+53680+023830FM-12+013599999V0201501N002010024019N0050001N1-00501-00741102841ADDAA199000091AJ100009199999999AY121061AY221061GA1081+002409069GF108991081061002501999999IA1259KA1120N-00701MD1810171+9999MW1101REMSYN092    AAXX  15061 26825 31350 81502 11050 21074 40284 58017 71022 886// 333 21070 41000 88708;EQDQ01  00002PRCP99
0189268250999992000011509004+53680+023830FM-12+013599999V0201601N002010018019N0042001N1-00441-00531102821ADDAY171031AY221031GA1081+001809069GF108991999071001501021999MD1710021+9999MW1711REMSYN080    AAXX  15091 26825 41242 81602 11044 21053 40282 57002 77172 8872/ 333 88706;EQDQ01+000082SCOTLC
0220268250999992000011512004+53680+023830FM-12+013599999V0201901N001010018019N0060001N1-00321-00491102691ADDAY171061AY221061GA1081+001809079GF108991999071002501021999MA1999999100971MD1710111+9999MW1711REMSYN096    AAXX  15121 26825 41356 81901 11032 21049 30097 40269 57011 77172 8872/ 333 88706 555 1/102;EQDQ01+000082SCOTLC
0189268250999992000011515004+53680+023830FM-12+013599999V0201901N001010018019N0050001N1-00341-00481102561ADDAY171031AY221031GA1081+001809069GF108991999071001501021999MD1710131+9999MW1711REMSYN080    AAXX  15151 26825 41250 81901 11034 21048 40256 57013 77172 8872/ 333 88706;EQDQ01+000082SCOTLC
0225268250999992000011518004+53680+023830FM-12+013599999V0209999C000010018019N0060001N1-00361-00541102571ADDAA112000591AY171061AY271061GA1081+001809069GF108991999071001501021999KA1120M-00201MD1610011+9999MW1711REMSYN092    AAXX  15181 26825 11256 80000 11036 21054 40257 56001 69942 77177 8872/ 333 11020 88706;EQDQ01+000082SCOTLC
0189268250999992000011521004+53680+023830FM-12+013599999V0202601N001010018019N0060001N1-00461-00591102611ADDAY171031AY271031GA1081+001809069GF108991999071001501021999MD1310041+9999MW1711REMSYN080    AAXX  15211 26825 41256 82601 11046 21059 40261 53004 77177 8872/ 333 88706;EQDQ01+000082SCOTLC
0220268250999992000011600004+53680+023830FM-12+013599999V0202601N001010015019N0060001N1-00471-00601102611ADDAY171061AY271061GA1081+001509079GF108991999071001501021999MA1999999100871MD1410001+9999MW1711REMSYN096    AAXX  16001 26825 41256 82601 11047 21060 30087 40261 54000 77177 8872/ 333 88705 555 1/104;EQDQ01+000082SCOTLC
0222268250999992000011603004+53680+023830FM-12+013599999V0202501N002010018019N0060001N1-00371-00451102611ADDAA112000591AY171031AY271031GA1081+001809079GF108991999071001501021999MD1410001+9999MW1711REMSYN102    AAXX  16031 26825 /1256 82502 11037 21045 40261 54000 77177 8872/ 333 88706 555 21047 69952 7997/;EQDQ01+000082SCOTLC
0235268250999992000011606004+53680+023830FM-12+013599999V0202501N003010018019N0060001N1-00341-00421102601ADDAA112000591AJ101119199999999AY171061AY271061GA1081+001809069GF108991081061001501999999IA1239KA1120N-00471MD1410001+9999MW1221REMSYN098    AAXX  16061 26825 11256 82503 11034 21042 40260 54000 69952 72277 886// 333 21047 47111 88706;
0170268250999992000011609004+53680+023830FM-12+013599999V0202501N003010084019N0060001N1-00231-00351102591ADDAY121031AY221031GA1071+008409059GF107991071051008001999999MD1410001+9999MW1101REMSYN080    AAXX  16091 26825 41556 72503 11023 21035 40259 54000 71022 875// 333 87628;
0192268250999992000011612004+53680+023830FM-12+013599999V0202501N002010030019N0100001N1-00081-00291102421ADDGA1081+003009079GF199999081061004501999999MA1999999100721MD1810151+9999REMSYN090    AAXX  16121 26825 42460 72502 11008 21029 30072 40242 58015 886// 333 88710 555 1/000;EQDQ01+000072SCOTCV
0170268250999992000011615004+53680+023830FM-12+013599999V0202501N003010021019N0060001N1-00141-00201102231ADDAY121031AY221031GA1081+002109069GF108991081061002501999999MD1710191+9999MW1101REMSYN080    AAXX  16151 26825 41356 82503 11014 21020 40223 57019 71022 886// 333 88707;
0172268250999992000011618004+53680+023830FM-12+013599999V0202201N005010021019N0060001N1-00161-00221101891ADDAA199000021GA1081+002109069GF108991081061002501999999KA1120M-00041MD1710351+9999REMSYN080    AAXX  16181 26825 31356 82205 11016 21022 40189 57035 886// 333 11004 88707;
0176268250999992000011621004+53680+023830FM-12+013599999V0202501N007010033019N0060001N1-00161-00221101601ADDAY121031AY221031GA1081+003309079GF108991081061004501999999MD1710291+9999MW1101REMSYN086    AAXX  16211 26825 41456 82507 11016 21022 40160 57029 71022 886// 333 88711 91111;
0196268250999992000011700004+53680+023830FM-12+013599999V0202301N008010021019N0060001N1-00101-00161100671ADDAY121061AY221061GF108991081061002501999999MA1999999098991MD1710901+9999MW1101OA149901401REMSYN096    AAXX  17001 26825 41356 82308 11010 21016 39899 40067 57090 71022 886// 333 91114 555 1/100;
0238268250999992000011703004+53680+023830FM-12+013599999V0202401N009010024019N0060001N1-00041-00101099962ADDAA112000391AY171031AY221031GA1081+002409079GF108991999071002501021999MD1710701+9999MW1711REMSYN102    AAXX  17031 26825 /1356 82409 11004 21010 49996 57070 77172 8872/ 333 88708 555 21016 69932 7995/;EQDQ01+000082SCOTLCQ02+099963APOSLP
0241268250999992000011706004+53680+023830FM-12+013599999V0202701N006010015019N0030001N1+00131+00101099501ADDAA112002091AJ100049199999999AY171061AY261061GA1081+001509079GF108991999071001501021999IA1279MD1710441+9999MW1611REMSYN098    AAXX  17061 26825 11230 82706 10013 20010 49950 57044 60022 76176 8872/ 333 43004 88705 91113;EQDQ01+000082SCOTLC
0170268250999992000011709004+53680+023830FM-12+013599999V0202801N008010018019N0100001N1+00171+00091099311ADDAY181031AY271031GA1081+001809069GF108991081031001501999999MD1710181+9999MW1261REMSYN080    AAXX  17091 26825 41260 82808 10017 20009 49931 57018 72687 883// 333 88706;
0196268250999992000011712004+53680+023830FM-12+013599999V0202701N006010042019N0100001N1+00181+00071099041ADDAY181061AY271061GF108991081061004501999999MA1999999097401MD1710271+9999MW1031OA149901101REMSYN096    AAXX  17121 26825 41460 82706 10018 20007 39740 49904 57027 70387 886// 333 91111 555 1/001;
0176268250999992000011715004+53680+023830FM-12+013599999V0203201N009010048019N0050001N1+00081+00001999999ADDAY181031AY221031GA1081+004809039GF108991081031004501999999MD1710141+9999MW1851REMSYN086    AAXX  17151 26825 41450 83209 10008 21000 40989 57014 78582 883// 333 88316 91114;
0218268250999992000011718004+53680+023830FM-12+013599999V0202701N006010033019N0100001N1+00181+00071099041ADDAY181061AY271061GA1081+003309079GF108991081061004501999999MA1999999097401MD1710271+9999MW1031OA149901101REMSYN102    AAXX  17181 26825 41460 82706 10018 20007 39740 49904 57027 70387 886// 333 88711 91111 555 1/001;
0148268250999992000011721004+53680+023830FM-12+013599999V0203001N009010099019N0100001N1-00021-00201098801ADDGA1071+009909069GF107991071051012501999999MD1710061+9999REMSYN080    AAXX  17211 26825 42660 73009 11002 21020 49880 57006 875// 333 87633 91113;
0190268250999992000011800004+53680+023830FM-12+013599999V0203101N009010078019N0100001N1+00001-00181098761ADDGA1071+007809069GF107991071051008001999999MA1999999097121MD1710041+9999OA149901201REMSYN096    AAXX  18001 26825 42560 73109 10000 21018 39712 49876 57004 875// 333 87626 91112 555 1/101;
0192268250999992000011803004+53680+023830FM-12+013599999V0203101N009010078019N0100001N1-00031-00181098741ADDAA112999929GA1071+007809069GF107991071051008001999999MD1710021+9999OA149901301REMSYN102    AAXX  18031 26825 /2560 73109 11003 21018 49874 57002 875// 333 87626 91113 555 21003 69902 7004/;
0241268250999992000011806004+53680+023830FM-12+013599999V0202901N009010024019N0050001N1-00021-00111098571ADDAA112000591AJ100039199999999AY181061AY221061GA1081+002409099GF108991081031002501999999IA1239KA1120N-00031MD1710171+9999MW1851REMSYN104    AAXX  18061 26825 11350 82909 11002 21011 49857 57017 69952 78582 883// 333 21003 47003 88908 91113;
0176268250999992000011809004+53680+023830FM-12+013599999V0202901N009010033019N0100001N1+00021-00071098491ADDAY181031AY281031GA1081+003309099GF108991081031004501999999MD1710081+9999MW1851REMSYN086    AAXX  18091 26825 41460 82909 10002 21007 49849 57008 78588 883// 333 88911 91113;
0218268250999992000011812004+53680+023830FM-12+013599999V0203001N009010039019N0100001N1+00041-00101098511ADDAY181061AY281061GA1081+003909099GF108991081031004501999999MA1999999096871MD1310021+9999MW1851OA149901301REMSYN102    AAXX  18121 26825 41460 83009 10004 21010 39687 49851 53002 78588 883// 333 88913 91113 555 1/000;
0176268250999992000011815004+53680+023830FM-12+013599999V0203101N008010054019N0100001N1-00031-00211098651ADDAY181031AY221031GA1081+005409099GF108991081031004501999999MD1210141+9999MW1851REMSYN086    AAXX  18151 26825 41460 83108 11003 21021 49865 52014 78582 883// 333 88918 91113;
0212268250999992000011818004+53680+023830FM-12+013599999V0203201N010010054019N0100001N1-00231-00451099031ADDAA112001091AY181061AY221061GA1061+005409099GF106991061031004501001001KA1120M+00051MD1210361+9999MW1851REMSYN098    AAXX  18181 26825 11460 63210 11023 21045 49903 52036 60012 78582 86300 333 10005 86918 91113;
0176268250999992000011821004+53680+023830FM-12+013599999V0203301N009010075019N0100001N1-00311-00551099401ADDAY181031AY221031GA1071+007509069GF107991071051008001999999MD1210371+9999MW1021REMSYN086    AAXX  18211 26825 41560 73309 11031 21055 49940 52037 70282 875// 333 87625 91112;
0218268250999992000011900004+53680+023830FM-12+013599999V0203201N008010078019N0100001N1-00351-00601099701ADDAY181061AY221061GA1071+007809069GF107991071051008001999999MA1999999098011MD1210271+9999MW1021OA149901201REMSYN102    AAXX  19001 26825 41560 73208 11035 21060 39801 49970 52027 70282 875// 333 87626 91112 555 1/101;
0192268250999992000011903004+53680+023830FM-12+013599999V0203101N008010069019N0100001N1-00351-00531099901ADDAA112000391GA1071+006909069GF107991071051008001999999MD1210201+9999OA149901101REMSYN102    AAXX  19031 26825 /2560 73108 11035 21053 49990 52020 875// 333 87623 91111 555 21036 69932 7002/;
0241268250999992000011906004+53680+023830FM-12+013599999V0203001N008010045019N0060001N1-00441-00571100051ADDAA112000591AJ100049199999999AY181061AY221061GA1081+004509099GF108991081031004501999999IA1239KA1120N-00441MD1210151+9999MW1851REMSYN104    AAXX  19061 26825 11456 83008 11044 21057 40005 52015 69942 78582 883// 333 21044 47004 88915 91111;
0176268250999992000011909004+53680+023830FM-12+013599999V0203201N009010069019N0100001N1-00511-00761100261ADDAY181031AY231031GA1061+006909099GF106991061031008001001001MD1210211+9999MW1851REMSYN086    AAXX  19091 26825 41560 63209 11051 21076 40026 52021 78583 86300 333 86923 91113;
0218268250999992000011912004+53680+023830FM-12+013599999V0203201N009010078019N0100001N1-00531-00781100471ADDAY181061AY231061GA1061+007809069GF106991061051008001001001MA1999999098761MD1210191+9999MW1361OA149901401REMSYN102    AAXX  19121 26825 41560 63209 11053 21078 39876 40047 52019 73683 86500 333 86626 91114 555 1/000;
0176268250999992000011915004+53680+023830FM-12+013599999V0203101N009010078019N0100001N1-00561-00861100641ADDAY181031AY231031GA1071+007809069GF107991071051008001999999MD1210161+9999MW1361REMSYN086    AAXX  19151 26825 41560 73109 11056 21086 40064 52016 73683 875// 333 87626 91114;
0196268250999992000011918004+53680+023830FM-12+013599999V0203001N007012200019N0100001N1-00681-01101100861ADDAA112000591AY181061AY231061GA1001+999999999GF100991001001999999001001KA1120M-00231MD1210221+9999MW1021REMSYN082AAXX  19181 26825 11960 03007 11068 21110 40086 52022 69942 70283 333 11023 91114;
0122268250999992000011921004+53680+023830FM-12+013599999V0203001N008019999999N0100001N1-00641-01051100871ADDGF106991061001999999031001MD1110011+9999REMSYN070AAXX  19211 26825 42960 63008 11064 21105 40087 51001 86030 333 91112;
0186268250999992000012000004+53680+023830FM-12+013599999V0202801N005010099019N0100001N1-00641-00921101061ADDGA1051+009909069GF105991051051012501001001MA1999999099341MD1210191+9999OA149901101REMSYN092AAXX  20001 26825 42660 52805 11064 21092 39934 40106 52019 85500 333 85633 91111 555 1/108;
0179268250999992000012003004+53680+023830FM-12+013599999V0202701N005012200019N0100001N1-00761-00851101081ADDAA199000091GF103991031001999999031001MD1410001+9999OA149901101REMSYN086AAXX  20031 26825 32960 32705 11076 21085 40108 54000 83030 333 91111 555 21076 7998/;EQDQ01  00002PRCP99
0216268250999992000012006004+53680+023830FM-12+013599999V0202701N005010021019N0100001N1-00561-00631101011ADDAA199000091AJ100069199999999GA1081+002109069GF108991081061002501999999IA1239KA1120N-00771MD1810051+9999REMSYN082AAXX  20061 26825 32360 82705 11056 21063 40101 58005 886// 333 21077 47006 88707;EQDQ01  00002PRCP99
0166268250999992000012009004+53680+023830FM-12+013599999V0202301N004010024019N0100001N1-00311-00411100661ADDAY181031AY221031GA1081+002409099GF108991081031002501999999MD1710321+9999MW1851REMSYN076AAXX  20091 26825 41360 82304 11031 21041 40066 57032 78582 883// 333 88908;
0214268250999992000012012004+53680+023830FM-12+013599999V0202301N007010021019N0025001N1-00131-00231100041ADDAY181061AY231061GA1081+002109099GF108991081031002501999999MA1999999098371MD1710601+9999MW1851OA149901101REMSYN098AAXX  20121 26825 41325 82307 11013 21023 39837 40004 57060 78583 883// 333 88907 91111 555 1/100;
0172268250999992000012015004+53680+023830FM-12+013599999V0202601N007010024019N0042001N1-00051-00141099741ADDAY181031AY231031GA1081+002409099GF108991081031002501999999MD1710291+9999MW1851REMSYN082AAXX  20151 26825 41342 82607 11005 21014 49974 57029 78583 883// 333 88908 91111;
0208268250999992000012018004+53680+023830FM-12+013599999V0202601N007010030019N0042001N1+00021-00031099431ADDAA112001091AY181061AY231061GA1081+003009099GF108991081031004501999999KA1120M+00051MD1710311+9999MW1851REMSYN094AAXX  20181 26825 11442 82607 10002 21003 49943 57031 69992 78583 883// 333 10005 88910 91113;
0172268250999992000012021004+53680+023830FM-12+013599999V0203201N008010036019N0042001N1+00041-00061099311ADDAY181031AY231031GA1081+003609099GF108991081031004501999999MD1710111+9999MW1851REMSYN082AAXX  20211 26825 41442 83208 10004 21006 49931 57011 78583 883// 333 88912 91114;
0214268250999992000012100004+53680+023830FM-12+013599999V0203101N009010069019N0100001N1+00001-00051099351ADDAY181061AY231061GA1071+006909069GF107991071051008001999999MA1999999097701MD1310041+9999MW1021OA149901401REMSYN098AAXX  21001 26825 42560 73109 10000 21005 39770 49935 53004 70283 875// 333 87623 91114 555 1/101;
0173268250999992000012103004+53680+023830FM-12+013599999V0203001N008012200019N0100001N1+00001-00031099351ADDAA199000021GF102991021001999999031001MD1410001+9999OA149901201REMSYN080AAXX  21031 26825 32960 23008 10000 21003 49935 51000 82030 333 91112 555 21005;EQDQ01+000012APCTEN
0197268250999992000012106004+53680+023830FM-12+013599999V0203101N006012200019N0100001N1-00561-00741099391ADDAA199000021AJ100079199999999GA1041+007809059GF104991041051008001001001IA1239KA1120N-00561MD1410001+9999REMSYN082AAXX  21061 26825 32560 43106 11056 21074 49939 54000 84500 333 21056 47007 84626;
0138268250999992000012109004+53680+023830FM-12+013599999V0203301N005010048019N0100001N1-00721-00931099581ADDGA1061+004809069GF108991061061004501031001MD1310111+9999REMSYN070AAXX  21091 26825 42460 83305 11072 21093 49958 53011 86630 333 86716;
0169268250999992000012112004+53680+023830FM-12+013599999V0203201N005010300019N0100001N1-00661-00981099851ADDGA1031+006009069GF105991031051008001031001MA1999999098151MD1210271+9999REMSYN086AAXX  21121 26825 42560 53205 11066 21098 39815 49985 52027 83530 333 83620 555 1/107;
0112268250999992000012115004+53680+023830FM-12+013599999V0203101N004012200019N0100001N1-00981-01191100131ADDGF103991031001999999031001MD1210251+9999REMSYN060AAXX  21151 26825 42960 33104 11098 21119 40013 52025 83030;
0202268250999992000012118004+53680+023830FM-12+013599999V0203101N005010048019N0100001N1-00791-00931100301ADDAA112001091AY181061AY211061GA1051+004809099GF105991051031004501001001KA1120M-00561MD1210181+9999MW1261REMSYN088AAXX  21181 26825 11460 53105 11079 21093 40030 52018 60012 72681 85300 333 11056 85916;
0132268250999992000012121004+53680+023830FM-12+013599999V0203101N007012200019N0100001N1-00911-01061100461ADDGA1001+999999999GF100991001001999999001001MD1210161+9999REMSYN064AAXX  21211 26825 42960 03107 11091 21106 40046 52016 333 91110;
0174268250999992000012200004+53680+023830FM-12+013599999V0203101N007012200019N0100001N1-01091-01221100731ADDGA1001+999999999GF100991001001999999001001MA1999999098991MD1210251+9999OA149901001REMSYN080AAXX  22001 26825 42960 03107 11109 21122 39899 40073 52025 333 91110 555 1/111;
0145268250999992000012203004+53680+023830FM-12+013599999V0202801N005019999999N0100001N1-01141-01271100831ADDAA112001091GF106991001001999999001021MD1110081+9999REMSYN082AAXX  22031 26825 /2960 62805 11114 21127 40083 51008 80002 555 21116 60012 7001/;
0185268250999992000012206004+53680+023830FM-12+013599999V0202801N005012200019N0100001N1-01261-01391100921ADDAA199000021AJ100079199999999GA1001+999999999GF100991001001999999001001IA1239KA1120N-01261MD1210091+9999REMSYN070AAXX  22061 26825 32960 02805 11126 21139 40092 52009 333 21126 47007;
0112268250999992000012209004+53680+023830FM-12+013599999V0202801N005019999999N0100001N1-01041-01241100971ADDGF106991001001999999001021MD1210071+9999REMSYN060AAXX  22091 26825 42960 62805 11104 21124 40097 52007 80002;
0143268250999992000012212004+53680+023830FM-12+013599999V0202701N005012200019N0100001N1-00641-00921100951ADDGF103991031061004501001001MA1999999099231MD1410001+9999REMSYN076AAXX  22121 26825 42460 32705 11064 21092 39923 40095 54000 83600 555 1/105;
0166268250999992000012215004+53680+023830FM-12+013599999V0203001N004010048019N0050001N1-00631-00821100951ADDAY181031AY221031GA1061+004809099GF106991061031004501001001MD1410001+9999MW1851REMSYN076AAXX  22151 26825 41450 63004 11063 21082 40095 54000 78582 86300 333 86916;
0161268250999992000012218004+53680+023830FM-12+013599999V0202801N004012200019N0100001N1-00921-01081101071ADDAA112000191AY181061AY211061GF103991031031004501001001MD1310101+9999MW1011REMSYN076AAXX  22181 26825 11460 32804 11092 21108 40107 53010 69922 70181 83300 333;
0122268250999992000012221004+53680+023830FM-12+013599999V0202601N003012200019N0100001N1-01471-01601101251ADDGA1001+999999999GF100991001001999999001001MD1210141+9999REMSYN054AAXX  22211 26825 42960 02603 11147 21160 40125 52014;
0153268250999992000012300004+53680+023830FM-12+013599999V0202801N003012200019N0100001N1-01561-01691101321ADDGA1001+999999999GF100991001001999999001001MA1999999099551MD1210081+9999REMSYN070AAXX  23001 26825 42960 02803 11156 21169 39955 40132 52008 555 1/116;
0155268250999992000012303004+53680+023830FM-12+013599999V0202401N003012200019N0100001N1-01761-01881101431ADDAA112999929GA1001+999999999GF100991001001999999001001MD1210071+9999REMSYN076AAXX  23031 26825 /2960 02403 11176 21188 40143 52007 555 21178 69902 7992/;
0194268250999992000012306004+53680+023830FM-12+013599999V0209999C000012200019N0100001N1-01741-01861101521ADDAA199000091AJ100079199999999GF103991001001999999001021IA1239KA1120N-01761MD1210091+9999REMSYN076AAXX  23061 26825 32960 30000 11174 21186 40152 52009 80002 333 21176 47007;EQDQ01  00002PRCP99
0112268250999992000012309004+53680+023830FM-12+013599999V0202501N003019999999N0100001N1-01351-01621101541ADDGF105991001001999999001021MD1210041+9999REMSYN060AAXX  23091 26825 42960 52503 11135 21162 40154 52004 80002;
0143268250999992000012312004+53680+023830FM-12+013599999V0202601N002019999999N0100001N1-00941-01341101581ADDGF105991001001999999001021MA1999999099821MD1210071+9999REMSYN076AAXX  23121 26825 42960 52602 11094 21134 39982 40158 52007 80002 555 1/108;
0112268250999992000012315004+53680+023830FM-12+013599999V0202601N002012200019N0100001N1-01621-01961101701ADDGF102991001001999999001011MD1210081+9999REMSYN060AAXX  23151 26825 42960 22602 11162 21196 40170 52008 80001;
0175268250999992000012318004+53680+023830FM-12+013599999V0202301N002012200019N0100001N1-01541-01731101791ADDAA199000091GA1001+999999999GF100991001001999999001001KA1999M-00901MD1210091+9999REMSYN064AAXX  23181 26825 32960 02302 11154 21173 40179 52009 333 11090;EQDQ01  00002PRCP99
0112268250999992000012321004+53680+023830FM-12+013599999V0202801N002012200019N0100001N1-01511-01641101871ADDGF102991021001999999031001MD1210091+9999REMSYN060AAXX  23211 26825 42960 22802 11151 21164 40187 52009 82030;
0143268250999992000012400004+53680+023830FM-12+013599999V0203101N002012200019N0100001N1-01711-01831101881ADDGF102991021001999999031001MA1999999100081MD1410001+9999REMSYN076AAXX  24001 26825 42960 23102 11171 21183 30008 40188 54000 82030 555 1/120;
0186268250999992000012403004+53680+023830FM-12+013599999V0202701N001012200019N0060001N1-02001-02061101951ADDAA199000091AY101031AY201031GF102991021001999999031001MD1310041+9999MW1101REMSYN082AAXX  24031 26825 31956 22701 11200 21206 40195 53004 71000 82030 555 21205 7000/;EQDQ01  00002PRCP99
0193268250999992000012406004+53680+023830FM-12+013599999V0202101N001012200019N0060001N1-02101-02161101971ADDAA199000091AY101061AY201061GF102991021001999999031001KA1999N-02141MD1210021+9999MW1101REMSYN076AAXX  24061 26825 31956 22101 11210 21216 40197 52002 71000 82030 333 21214;EQDQ01  00002PRCP99
0112268250999992000012409004+53680+023830FM-12+013599999V0202301N001019999999N0100001N1-01621-01751102001ADDGF106991061001999999031001MD1210061+9999REMSYN060AAXX  24091 26825 42960 62301 11162 21175 40200 52006 86030;
0143268250999992000012412004+53680+023830FM-12+013599999V0203201N002019999999N0100001N1-01051-01331101891ADDGF105991001001999999001011MA1999999100131MD1810071+9999REMSYN076AAXX  24121 26825 42960 53202 11105 21133 30013 40189 58007 80001 555 1/110;
0166268250999992000012415004+53680+023830FM-12+013599999V0202001N002010039019N0040001N1-01151-01281101901ADDAY181031AY221031GA1061+003909099GF106991061031004501001001MD1410001+9999MW1851REMSYN076AAXX  24151 26825 41440 62002 11115 21128 40190 54000 78582 86300 333 86913;
0173268250999992000012418004+53680+023830FM-12+013599999V0202801N002012200019N0100001N1-01911-02031102101ADDAY181061AY221061GA1001+999999999GF100991001001999999001001KA1999M-01041MD1310141+9999MW1011REMSYN070AAXX  24181 26825 11960 02802 11191 21203 40210 53014 70182 333 11104;
0166268250999992000012421004+53680+023830FM-12+013599999V0203301N002010039019N0042001N1-01481-01541102201ADDAY181031AY221031GA1081+003909099GF108991081031004501999999MD1210131+9999MW1851REMSYN076AAXX  24211 26825 41442 83302 11148 21154 40220 52013 78582 883// 333 88913;
0197268250999992000012500004+53680+023830FM-12+013599999V0209999C000010036019N0042001N1-01531-01591102231ADDAY181061AY211061GA1081+003609099GF108991081031004501999999MA1999999100421MD1210021+9999MW1851REMSYN092AAXX  25001 26825 41442 80000 11153 21159 30042 40223 52002 78581 883// 333 88912 555 1/112;
0199268250999992000012503004+53680+023830FM-12+013599999V0202701N002010069019N0100001N1-01721-01781102241ADDAA112000591AY181031AY221031GA1051+006909069GF105991051051008001001001MD1410001+9999MW1021REMSYN098AAXX  25031 26825 /1560 52702 11172 21178 40224 54000 70282 85500 333 85623 555 21191 69952 7997/;
0231268250999992000012506004+53680+023830FM-12+013599999V0202401N002010069019N0100001N1-02001-02121102251ADDAA112000391AJ100079199999999AY181061AY221061GA1051+006909059GF105991051051008001001001IA1239KA1120N-02021MD1810011+9999MW1021REMSYN094AAXX  25061 26825 31560 52402 11200 21212 40225 58001 69932 70282 85500 333 21202 47007 85623;
0112268250999992000012509004+53680+023830FM-12+013599999V0202101N004019999999N0100001N1-01231-01361102131ADDGF105991051001999999031001MD1710061+9999REMSYN060AAXX  25091 26825 42960 52104 11123 21136 40213 57006 85030;
0171268250999992000012512004+53680+023830FM-12+013599999V0202101N005019999999N0050001N1-00801-00981101741ADDAY171061AY221061GF108991081001999999021999MA1999999099991MD1710361+9999MW1711REMSYN082AAXX  25121 26825 41950 82105 11080 21098 39999 40174 57036 77172 8802/ 555 1/105;
0185268250999992000012515004+53680+023830FM-12+013599999V0202701N004010033019N0040001N1-00501-00601101451ADDAY171031AY271031GA1061+003309069GF108991999071004501021999MD1710251+9999MW1711REMSYN076AAXX  25151 26825 41440 82704 11050 21060 40145 57025 77177 8872/ 333 86711;EQDQ01+000082SCOTLC
0227268250999992000012518004+53680+023830FM-12+013599999V0202701N006010006019N0012001N1-00451-00511101341ADDAA112002091AY171061AY271061GA1081+000609079GF108991999071000751021999KA1120M-00451MD1710111+9999MW1731REMSYN094AAXX  25181 26825 11112 82706 11045 21051 40134 57011 60022 77377 8872/ 333 11045 88702 91111;EQDQ01+000082SCOTLC
0185268250999992000012521004+53680+023830FM-12+013599999V0202601N005010024019N0025001N1-00371-00421101301ADDAY171031AY271031GA1081+002409069GF108991999071002501021999MD1710041+9999MW1711REMSYN076AAXX  25211 26825 41325 82605 11037 21042 40130 57004 77177 8872/ 333 88708;EQDQ01+000082SCOTLC
0216268250999992000012600004+53680+023830FM-12+013599999V0202601N004010030019N0030001N1-00251-00311101291ADDAY171061AY271061GA1081+003009079GF108991999071004501021999MA1999999099591MD1410001+9999MW1711REMSYN092AAXX  26001 26825 41430 82604 11025 21031 39959 40129 54000 77177 8872/ 333 88710 555 1/102;EQDQ01+000082SCOTLC
0218268250999992000012603004+53680+023830FM-12+013599999V0202701N001010039019N0032001N1-00281-00351101291ADDAA112003091AY171031AY271031GA1081+003909079GF108991999071004501021999MD1410001+9999MW1711REMSYN098AAXX  26031 26825 /1432 82701 11028 21035 40129 54000 77177 8872/ 333 88713 555 21045 60032 7004/;EQDQ01+000082SCOTLC
0250268250999992000012606004+53680+023830FM-12+013599999V0209999C000010021019N0032001N1-00301-00371101241ADDAA112002091AJ100189199999999AY171061AY271061GA1081+002109069GF108991999071002501021999IA1239KA1120N-00451MD1810051+9999MW1711REMSYN094AAXX  26061 26825 11332 80000 11030 21037 40124 58005 60022 77177 8872/ 333 21045 47018 88707;EQDQ01+000082SCOTLC
0166268250999992000012609004+53680+023830FM-12+013599999V0202701N002010015019N0040001N1-00161-00251101271ADDAY181031AY271031GA1081+001509069GF108991081031001501999999MD1310031+9999MW1851REMSYN076AAXX  26091 26825 41240 82702 11016 21025 40127 53003 78587 883// 333 88705;
0197268250999992000012612004+53680+023830FM-12+013599999V0202801N005010039019N0100001N1+00081+00001101211ADDAY181061AY271061GA1081+003909079GF108991081061004501999999MA1999999099541MD1810031+9999MW1261REMSYN092AAXX  26121 26825 41460 82805 10008 21000 39954 40121 58003 72687 886// 333 88713 555 1/001;
0166268250999992000012615004+53680+023830FM-12+013599999V0202801N005010027019N0060001N1+00061+00011101211ADDAY181031AY271031GA1081+002709069GF108991081061002501999999MD1410001+9999MW1101REMSYN076AAXX  26151 26825 41356 82805 10006 20001 40121 54000 71087 886// 333 88709;
0202268250999992000012618004+53680+023830FM-12+013599999V0202701N005010024019N0100001N1+00081+00031101111ADDAA112000391AY181061AY221061GA1081+002409069GF108991081061002501999999KA1120M+00131MD1810101+9999MW1021REMSYN088AAXX  26181 26825 11360 82705 10008 20003 40111 58010 69932 70282 886// 333 10013 88708;
0144268250999992000012621004+53680+023830FM-12+013599999V0202601N006010027019N0100001N1+00081-00031100961ADDGA1081+002709079GF108991081061002501999999MD1710151+9999REMSYN076AAXX  26211 26825 42360 82606 10008 21003 40096 57015 886// 333 88709 91110;
0233268250999992000012700004+53680+023830FM-12+013599999V0202801N007010021019N0050001N1+00061+00031100961ADDAY171061AY221061GA1081+002109079GF108991999071002501021999MA1999999099281MD1610011+9999MW1711OA149901101REMSYN098AAXX  27001 26825 41350 82807 10006 20003 39928 40096 56001 77172 8872/ 333 88707 91111 555 1/000;EQDQ01+000082SCOTLC
0216268250999992000012703004+53680+023830FM-12+013599999V0202701N008010021019N0100001N1+00101+00071100951ADDAA112000791AY171031AY221031GA1081+002109079GF108991081061002501999999MD1410001+9999MW1021OA149901301REMSYN104AAXX  27031 26825 /1360 82708 10010 20007 40095 54000 70272 886// 333 88707 91113 555 20006 69972 7001/;
0237268250999992000012706004+53680+023830FM-12+013599999V0202901N006010024019N0100001N1+00141+00091100971ADDAA112000891AJ100159199999999AY171061AY221061GA1081+002409079GF108991081061002501999999IA1279KA1120N+00061MD1310021+9999MW1021REMSYN100AAXX  27061 26825 11360 82906 10014 20009 40097 53002 69972 70272 886// 333 20006 43015 88708 91111;
0144268250999992000012709004+53680+023830FM-12+013599999V0202701N007010027019N0100001N1+00161+00081101121ADDGA1081+002709079GF108991081061002501999999MD1210151+9999REMSYN076AAXX  27091 26825 42360 82707 10016 20008 40112 52015 886// 333 88709 91111;
0186268250999992000012712004+53680+023830FM-12+013599999V0202701N007010027019N0100001N1+00161+00081101151ADDGA1081+002709079GF108991081061002501999999MA1999999099481MD1210031+9999OA149901101REMSYN092AAXX  27121 26825 42360 82707 10016 20008 39948 40115 52003 886// 333 88709 91111 555 1/000;
0144268250999992000012715004+53680+023830FM-12+013599999V0202601N006010027019N0100001N1+00181+00051101151ADDGA1081+002709079GF108991081061002501999999MD1410001+9999REMSYN076AAXX  27151 26825 42360 82606 10018 20005 40115 54000 886// 333 88709 91110;
0193268250999992000012718004+53680+023830FM-12+013599999V0202601N006010030019N0100001N1+00181+00071101111ADDAA199000091GA1081+003009079GF108991081061004501999999KA1120M+00181MD1810041+9999REMSYN082AAXX  27181 26825 32460 82606 10018 20007 40111 58004 886// 333 10018 88710 91110;EQDQ01  00002PRCP99
0138268250999992000012721004+53680+023830FM-12+013599999V0202401N005010030019N0100001N1+00161+00081100931ADDGA1081+003009069GF108991081061004501999999MD1710181+9999REMSYN070AAXX  27211 26825 42460 82405 10016 20008 40093 57018 886// 333 88710;
0186268250999992000012800004+53680+023830FM-12+013599999V0202501N006010024019N0100001N1+00151+00101100731ADDGA1081+002409079GF108991081061002501999999MA1999999099061MD1710201+9999OA149901101REMSYN092AAXX  28001 26825 42360 82506 10015 20010 39906 40073 57020 886// 333 88708 91111 555 1/000;
0201268250999992000012803004+53680+023830FM-12+013599999V0202401N006010030019N0100001N1+00151+00071100641ADDAA199000091GA1081+003009079GF108991081061004501999999MD1710091+9999OA149901001REMSYN092AAXX  28031 26825 32460 82406 10015 20007 40064 57009 886// 333 88710 91110 555 20013 7000/;EQDQ01  00002PRCP99
0222268250999992000012806004+53680+023830FM-12+013599999V0202401N007010036019N0100001N1+00171+00031100561ADDAA199000091AJ100079199999999GA1081+003609079GF108991081061004501999999IA1279KA1120N+00131MD1710081+9999REMSYN088AAXX  28061 26825 32460 82407 10017 20003 40056 57008 886// 333 20013 43007 88712 91111;EQDQ01  00002PRCP99
0166268250999992000012809004+53680+023830FM-12+013599999V0202401N007010036019N0060001N1+00151+00071100581ADDAY181031AY281031GA1081+003609069GF108991081061004501999999MD1310021+9999MW1251REMSYN076AAXX  28091 26825 41456 82407 10015 20007 40058 53002 72588 886// 333 88712;
0214268250999992000012812004+53680+023830FM-12+013599999V0202501N008010033019N0100001N1+00181+00011100561ADDAY181061AY281061GA1081+003309079GF108991081061004501999999MA1999999098891MD1810021+9999MW1021OA149901101REMSYN098AAXX  28121 26825 41460 82508 10018 20001 39889 40056 58002 70288 886// 333 88711 91111 555 1/001;
0144268250999992000012815004+53680+023830FM-12+013599999V0202501N006010042019N0100001N1+00141+00061100561ADDGA1081+004209079GF108991081061004501999999MD1410001+9999REMSYN076AAXX  28151 26825 42460 82506 10014 20006 40056 54000 886// 333 88714 91111;
0208268250999992000012818004+53680+023830FM-12+013599999V0202501N006010030019N0042001N1+00101+00051100701ADDAA112001091AY181061AY221061GA1081+003009099GF108991081031004501999999KA1120M+00221MD1310141+9999MW1831REMSYN094AAXX  28181 26825 11442 82506 10010 20005 40070 53014 60012 78382 883// 333 10022 88910 91111;
0166268250999992000012821004+53680+023830FM-12+013599999V0202401N005010030019N0042001N1+00121+00071100701ADDAY181031AY281031GA1081+003009099GF108991081031004501999999MD1410001+9999MW1831REMSYN076AAXX  28211 26825 41442 82405 10012 20007 40070 54000 78388 883// 333 88910;
0197268250999992000012900004+53680+023830FM-12+013599999V0202201N005010030019N0035001N1+00091+00041100701ADDAY181061AY281061GA1081+003009099GF108991081031004501999999MA1999999099031MD1410001+9999MW1831REMSYN092AAXX  29001 26825 41435 82205 10009 20004 39903 40070 54000 78388 883// 333 88910 555 1/000;
0199268250999992000012903004+53680+023830FM-12+013599999V0202201N004010030019N0035001N1+00001-00061100631ADDAA112003091AY181031AY281031GA1081+003009099GF108991081031004501999999MD1810081+9999MW1831REMSYN098AAXX  29031 26825 /1435 82204 10000 21006 40063 58008 78388 883// 333 88910 555 20000 60032 7003/;
0231268250999992000012906004+53680+023830FM-12+013599999V0202201N004010030019N0035001N1-00021-00111100521ADDAA112002091AJ100039199999999AY181061AY281061GA1081+003009099GF108991081031004501999999IA1279KA1120N-00021MD1710091+9999MW1851REMSYN094AAXX  29061 26825 11435 82204 11002 21011 40052 57009 60022 78588 883// 333 21002 43003 88910;
0166268250999992000012909004+53680+023830FM-12+013599999V0202101N007010030019N0100001N1-00021-00111100471ADDAY181031AY281031GA1081+003009069GF108991081061004501999999MD1710071+9999MW1261REMSYN076AAXX  29091 26825 41460 82107 11002 21011 40047 57007 72688 886// 333 88710;
0214268250999992000012912004+53680+023830FM-12+013599999V0201901N007010045019N0100001N1+00041-00101100111ADDAY181061AY221061GA1081+004509079GF108991081061004501999999MA1999999098441MD1710351+9999MW1021OA149901101REMSYN098AAXX  29121 26825 41460 81907 10004 21010 39844 40011 57035 70282 886// 333 88715 91111 555 1/001;
0144268250999992000012915004+53680+023830FM-12+013599999V0201801N007010045019N0100001N1+00071-00101099791ADDGA1081+004509079GF108991081061004501999999MD1710301+9999REMSYN076AAXX  29151 26825 42460 81807 10007 21010 49979 57030 886// 333 88715 91111;
0180268250999992000012918004+53680+023830FM-12+013599999V0201801N008010048019N0100001N1+00011-00171099351ADDAA112000791GA1081+004809079GF108991081061004501999999KA1120M+00071MD1710441+9999REMSYN088AAXX  29181 26825 12460 81808 10001 21017 49935 57044 69902 886// 333 10007 88716 91112;
0185268250999992000012921004+53680+023830FM-12+013599999V0201801N009010012019N0042001N1+00021-00011098901ADDAY171031AY221031GA1081+001209069GF108991999071001501021999MD1710451+9999MW1711REMSYN076AAXX  29211 26825 41242 81809 10002 21001 49890 57045 77172 8872/ 333 88704;EQDQ01+000082SCOTLC
0233268250999992000013000004+53680+023830FM-12+013599999V0202001N008010018019N0050001N1+00011-00051098671ADDAY171061AY221061GA1081+001809079GF108991999071001501021999MA1999999097031MD1710221+9999MW1711OA149901201REMSYN098AAXX  30001 26825 41250 82008 10001 21005 39703 49867 57022 77172 8872/ 333 88706 91112 555 1/000;EQDQ01+000082SCOTLC
0199268250999992000013003004+53680+023830FM-12+013599999V0202001N004010018019N0100001N1+00101-00011098531ADDAA112003091AY171031AY221031GA1081+001809079GF108991081061001501999999MD1710131+9999MW1021REMSYN098AAXX  30031 26825 /1260 82004 10010 21001 49853 57013 70272 886// 333 88706 555 20000 60032 7004/;
0231268250999992000013006004+53680+023830FM-12+013599999V0202001N005010033019N0100001N1+00201+00091098471ADDAA112003091AJ100049199999999AY171061AY221061GA1061+003309069GF106991061061004501001001IA1279KA1120N+00001MD1710061+9999MW1011REMSYN094AAXX  30061 26825 11460 62005 10020 20009 49847 57006 60032 70172 86600 333 20000 43004 86711;
0122268250999992000013009004+53680+023830FM-12+013599999V0202301N007010300019N0100001N1+00361+00071098601ADDGF105991031051008001031001MD1310141+9999REMSYN070AAXX  30091 26825 42560 52307 10036 20007 49860 53014 83530 333 91111;
0186268250999992000013012004+53680+023830FM-12+013599999V0202201N009010078019N0100001N1+00301+00011098651ADDGA1071+007809069GF107991071051008001999999MA1999999097031MD1210051+9999OA149901401REMSYN092AAXX  30121 26825 42560 72209 10030 20001 39703 49865 52005 875// 333 87626 91114 555 1/002;
0172268250999992000013015004+53680+023830FM-12+013599999V0202401N009010030019N0100001N1+00231+00031098771ADDAY181031AY281031GA1081+003009099GF108991081031004501999999MD1210111+9999MW1801REMSYN082AAXX  30151 26825 41460 82409 10023 20003 49877 52011 78088 883// 333 88910 91114;
0208268250999992000013018004+53680+023830FM-12+013599999V0202801N007010099019N0100001N1+00131+00071099361ADDAA112001091AY181061AY221061GA1081+009909099GF108991081031012501999999KA1120M+00401MD1210581+9999MW1251REMSYN094AAXX  30181 26825 11660 82807 10013 20007 49936 52058 69992 72582 883// 333 10040 88933 91113;
0172268250999992000013021004+53680+023830FM-12+013599999V0202901N008010048019N0100001N1+00011-00021099891ADDAY181031AY221031GA1081+004809099GF108991081031004501999999MD1210511+9999MW1801REMSYN082AAXX  30211 26825 41460 82908 10001 21002 49989 52051 78082 883// 333 88916 91117;
0202268250999992000013100004+53680+023830FM-12+013599999V0202801N004012200019N0100001N1+00011-00171100261ADDAY181061AY211061GA1001+999999999GF100991001001999999001001MA1999999098591MD1210361+9999MW1021OA149901301REMSYN086AAXX  31001 26825 41960 02804 10001 21017 39859 40026 52036 70281 333 91113 555 1/102;
0176268250999992000013103004+53680+023830FM-12+013599999V0202501N002012200019N0100001N1-00111-00301100361ADDAA112000991GA1001+999999999GF100991001001999999001001MD1210101+9999OA149901001REMSYN086AAXX  31031 26825 /2960 02502 11011 21030 40036 52010 333 91110 555 21011 69992 7999/;
0181268250999992000013106004+53680+023830FM-12+013599999V0202301N004019999999N0100001N1-00131-00301100291ADDAA112000791AJ100019199999999GF107991071001999999031999IA1279KA1120N-00131MD1810071+9999REMSYN082AAXX  31061 26825 12960 72304 11013 21030 40029 58007 69902 8703/ 333 21013 43001;
0166268250999992000013109004+53680+023830FM-12+013599999V0201401N006010027019N0028001N1-00181-00361099791ADDAY181031AY221031GA1071+002709069GF108991081031002501999999MD1710501+9999MW1851REMSYN076AAXX  31091 26825 41328 81406 11018 21036 49979 57050 78582 883// 333 87709;
0233268250999992000013112004+53680+023830FM-12+013599999V0201701N005010015019N0042001N1-00081-00241099001ADDAY181061AY271061GA1081+001509079GF108991999071001501021999MA1999999097351MD1710771+9999MW1711OA149901001REMSYN098AAXX  31121 26825 41242 81705 11008 21024 39735 49900 57077 77187 8872/ 333 88705 91110 555 1/100;EQDQ01+000082SCOTLC
0185268250999992000013115004+53680+023830FM-12+013599999V0202501N006010039019N0100001N1+00311+00211098971ADDAY171031AY261031GA1081+003909069GF108991999071004501021999MD1710011+9999MW1611REMSYN076AAXX  31151 26825 41460 82506 10031 20021 49897 57001 76176 8872/ 333 88713;EQDQ01+000082SCOTLC
0227268250999992000013118004+53680+023830FM-12+013599999V0203401N010010030019N0100001N1-00031-00211099711ADDAA112006191AY171061AY261061GA1081+003009079GF108991999071004501021999KA1120M+00321MD1310711+9999MW1021REMSYN094AAXX  31181 26825 11460 83410 11003 21021 49971 53071 60062 70276 8872/ 333 10032 88710 91114;EQDQ01+000082SCOTLC
0144268250999992000013121004+53680+023830FM-12+013599999V0203301N008010042019N0100001N1-00171-00341100811ADDGA1081+004209079GF108991081061004501999999MD1211081+9999REMSYN076AAXX  31211 26825 42460 83308 11017 21034 40081 52108 886// 333 88714 91112;
0174268250999992000020100004+53680+023830FM-12+013599999V0203201N005012200019N0100001N1-00361-00611101391ADDGA1001+999999999GF100991001001999999001001MA1999999099691MD1210561+9999OA149901001REMSYN080AAXX  01001 26825 42960 03205 11036 21061 39969 40139 52056 333 91110 555 1/102;
0139268250999992000020103004+53680+023830FM-12+013599999V0202301N002012200019N0100001N1-00381-00671101501ADDAA199000021GF102991021001999999031001MD1210101+9999REMSYN076AAXX  01031 26825 32960 22302 11038 21067 40150 52010 82030 555 21042 7006/;
0216268250999992000020106004+53680+023830FM-12+013599999V0202101N003010042019N0100001N1-00111-00301101531ADDAA199000091AJ100019199999999GA1081+004209069GF108991081061004501999999IA1279KA1120N-00421MD1210051+9999REMSYN082AAXX  01061 26825 32460 82103 11011 21030 40153 52005 886// 333 21042 43001 88714;EQDQ01  00002PRCP99
0157268250999992000020109004+53680+023830FM-12+013599999V0202201N004010060019N0100001N1+00031-00221101531ADDGA1071+006009059GF107991071051008001999999MD1410001+9999REMSYN070AAXX  01091 26825 42560 72204 10003 21022 40153 51000 875// 333 87620;EQDQ01+000012APCTEN
0169268250999992000020112004+53680+023830FM-12+013599999V0202301N003010030019N0100001N1+00121-00081101421ADDGA1081+003009079GF108991081061004501999999MA1999999099751MD1810091+9999REMSYN086AAXX  01121 26825 42460 82303 10012 21008 39975 40142 58009 886// 333 88710 555 1/001;
0138268250999992000020115004+53680+023830FM-12+013599999V0202201N003010024019N0100001N1+00141+00031101321ADDGA1081+002409069GF108991081061002501999999MD1710101+9999REMSYN070AAXX  01151 26825 42360 82203 10014 20003 40132 57010 886// 333 88708;
0202268250999992000020118004+53680+023830FM-12+013599999V0201801N003010012019N0030001N1+00121+00071101141ADDAA112000791AY151061AY221061GA1081+001209069GF108991081061001501999999KA1120M+00161MD1710191+9999MW1511REMSYN088AAXX  01181 26825 11230 81803 10012 20007 40114 57019 69902 75152 886// 333 10016 88704;
0166268250999992000020121004+53680+023830FM-12+013599999V0202001N003010009019N0014001N1+00141+00111100941ADDAY151031AY221031GA1081+000909069GF108991081061001501999999MD1710201+9999MW1101REMSYN076AAXX  01211 26825 41214 82003 10014 20011 40094 57020 71052 886// 333 88703;
0197268250999992000020200004+53680+023830FM-12+013599999V0202301N004010015019N0020001N1+00271+00241100681ADDAY151061AY221061GA1081+001509079GF108991081061001501999999MA1999999099031MD1710241+9999MW1101REMSYN092AAXX  02001 26825 41220 82304 10027 20024 39903 40068 57024 71052 886// 333 88705 555 1/002;
0199268250999992000020203004+53680+023830FM-12+013599999V0202301N004010018019N0020001N1+00341+00291100491ADDAA112999929AY121031AY221031GA1081+001809079GF108991081061001501999999MD1710191+9999MW1101REMSYN098AAXX  02031 26825 /1220 82304 10034 20029 40049 57019 71022 886// 333 88706 555 20012 69902 7990/;
0231268250999992000020206004+53680+023830FM-12+013599999V0202401N005010033019N0050001N1+00381+00311100321ADDAA112001091AJ100009199999999AY161061AY221061GA1081+003309069GF108991081061004501999999IA1309KA1120N+00121MD1710161+9999MW1211REMSYN094AAXX  02061 26825 11450 82405 10038 20031 40032 57016 69992 72162 886// 333 20012 42000 88711;
0166268250999992000020209004+53680+023830FM-12+013599999V0202401N005010021019N0060001N1+00401+00301100241ADDAY161031AY221031GA1081+002109069GF108991081061002501999999MD1710081+9999MW1101REMSYN076AAXX  02091 26825 41356 82405 10040 20030 40024 57008 71062 886// 333 88707;
0138268250999992000020215004+53680+023830FM-12+013599999V0202301N003010750019N0100001N1+00411+00261100171ADDGA1041+004809069GF107991041061004501001021MD1810051+9999REMSYN070AAXX  02151 26825 42460 72303 10041 20026 40017 58005 84602 333 84716;
0174268250999992000020218004+53680+023830FM-12+013599999V0202301N003010750019N0100001N1+00311+00261100151ADDAA112000791GA1041+005709069GF106991041061004501001021KA1120M+00501MD1710021+9999REMSYN082AAXX  02181 26825 12460 62303 10031 20026 40015 57002 69902 84602 333 10050 84719;
0112268250999992000020221004+53680+023830FM-12+013599999V0202201N003019999999N0100001N1+00211+00131100081ADDGF106991001001999999001021MD1710091+9999REMSYN060AAXX  02211 26825 42960 62203 10021 20013 40008 57009 80002;
0143268250999992000020300004+53680+023830FM-12+013599999V0202301N005012200019N0100001N1+00201+00121099991ADDGF103991001001999999001021MA1999999098331MD1710091+9999REMSYN076AAXX  03001 26825 42960 32305 10020 20012 39833 49999 57009 80002 555 1/001;
0179268250999992000020303004+53680+023830FM-12+013599999V0202401N005012200019N0100001N1+00121+00041099951ADDAA199000091GF103991001001999999001021MD1710041+9999OA149901101REMSYN086AAXX  03031 26825 32960 32405 10012 20004 49995 57004 80002 333 91111 555 20012 7999/;EQDQ01  00002PRCP99
0218268250999992000020306004+53680+023830FM-12+013599999V0202601N006010057019N0100001N1-00051-00141099971ADDAA112000791AJ100009199999999AY181061AY231061GA1061+005709099GF106991061031004501001001IA1309MD1310011+9999MW1261REMSYN094AAXX  03061 26825 11460 62606 11005 21014 49997 53001 69902 72683 86300 333 42000 86919 91111;
0166268250999992000020309004+53680+023830FM-12+013599999V0202801N014010051019N0100001N1+00201-00081100131ADDAY181031AY221031GA1081+005109099GF108991081031004501999999MD1210171+9999MW1851REMSYN076AAXX  03091 26825 41460 82814 10020 21008 40013 52017 78582 883// 333 88917;
0192268250999992000020312004+53680+023830FM-12+013599999V0203001N015010075019N0100001N1+00181-00291100541ADDAY181061AY221061GF106991061051008001001001MA1999999098871MD1210401+9999MW1021OA149901801REMSYN092AAXX  03121 26825 41560 63015 10018 21029 39887 40054 52040 70282 86500 333 91118 555 1/004;
0166268250999992000020315004+53680+023830FM-12+013599999V0203001N012010060019N0100001N1+00061-00141100941ADDAY181031AY221031GA1081+006009099GF108991081031008001999999MD1210401+9999MW1851REMSYN076AAXX  03151 26825 41560 83012 10006 21014 40094 52040 78582 883// 333 88920;
0167268250999992000020318004+53680+023830FM-12+013599999V0203001N005012200019N0100001N1-00191-00371101441ADDAA112000591AY181061AY221061GF103991031001999999031001MD1210471+9999MW1021REMSYN082AAXX  03181 26825 11960 33005 11019 21037 40144 52047 69942 70282 83030 333 91115;
0132268250999992000020321004+53680+023830FM-12+013599999V0203001N008012200019N0100001N1-00251-00411101901ADDGA1001+999999999GF100991001001999999001001MD1210451+9999REMSYN064AAXX  03211 26825 42960 03008 11025 21041 40190 52045 333 91111;
0214268250999992000020400004+53680+023830FM-12+013599999V0202801N005010039019N0050001N1-00151-00261102131ADDAY181061AY221061GA1081+003909099GF108991081031004501999999MA1999999100421MD1210231+9999MW1851OA149901101REMSYN098AAXX  04001 26825 41450 82805 11015 21026 30042 40213 52023 78582 883// 333 88913 91111 555 1/101;
0199268250999992000020403004+53680+023830FM-12+013599999V0203001N008010060019N0100001N1-00051-00261102391ADDAA112000691AY181031AY281031GA1081+006009099GF108991081031008001999999MD1210271+9999MW1851REMSYN098AAXX  04031 26825 /1560 83008 11005 21026 40239 52027 78588 883// 333 88920 555 21028 69962 7996/;
0215268250999992000020406004+53680+023830FM-12+013599999V0203001N004012200019N0100001N1-00181-00461102631ADDAA112000191AJ100029199999999AY181061AY211061GF102991001001999999001021IA1239KA1120N-00281MD1210221+9999MW1031REMSYN094AAXX  04061 26825 11960 23004 11018 21046 40263 52022 69922 70381 80002 333 21028 47002 91111;
0112268250999992000020409004+53680+023830FM-12+013599999V0202701N005019999999N0100001N1+00021-00351102661ADDGF106991001001999999001021MD1010041+9999REMSYN060AAXX  04091 26825 42960 62705 10002 21035 40266 50004 80002;
0143268250999992000020412004+53680+023830FM-12+013599999V0202201N006019999999N0100001N1+00081-00381102461ADDGF107991071001999999031999MA1999999100761MD1710191+9999REMSYN076AAXX  04121 26825 42960 72206 10008 21038 30076 40246 57019 8703/ 555 1/001;
0122268250999992000020415004+53680+023830FM-12+013599999V0202201N009019999999N0100001N1+00041-00321102111ADDGF107991071001999999031999MD1710351+9999REMSYN070AAXX  04151 26825 42960 72209 10004 21032 40211 57035 8703/ 333 91111;
0227268250999992000020418004+53680+023830FM-12+013599999V0201201N006010030019N0042001N1+00061-00021101551ADDAA112000591AY171061AY221061GA1081+003009079GF108991999071004501021999KA1120M+00061MD1710541+9999MW1711REMSYN094AAXX  04181 26825 11442 81206 10006 21002 40155 57054 69942 77172 8872/ 333 10006 88710 91111;EQDQ01+000082SCOTLC
0172268250999992000020421004+53680+023830FM-12+013599999V0202001N007010033019N0100001N1+00081+00001101101ADDAY171031AY221031GA1081+003309079GF108991081061004501999999MD1710441+9999MW1021REMSYN082AAXX  04211 26825 41460 82007 10008 21000 40110 57044 70272 886// 333 88711 91111;
0214268250999992000020500004+53680+023830FM-12+013599999V0202201N007010021019N0100001N1+00111+00031100691ADDAY171061AY221061GA1081+002109079GF108991081061002501999999MA1999999099021MD1710411+9999MW1021OA149901101REMSYN098AAXX  05001 26825 41360 82207 10011 20003 39902 40069 57041 70272 886// 333 88707 91111 555 1/001;
0216268250999992000020503004+53680+023830FM-12+013599999V0202701N006010021019N0100001N1+00331+00261100561ADDAA112000491AY151031AY221031GA1081+002109079GF108991081061002501999999MD1610111+9999MW1511OA149901101REMSYN104AAXX  05031 26825 /1360 82706 10033 20026 40056 56011 75152 886// 333 88707 91111 555 20006 69942 7994/;
0237268250999992000020506004+53680+023830FM-12+013599999V0202701N007010030019N0100001N1+00391+00321100611ADDAA112001091AJ100009199999999AY161061AY251061GA1081+003009079GF108991081061004501999999IA1259KA1120N+00061MD1310051+9999MW1511REMSYN100AAXX  05061 26825 11460 82707 10039 20032 40061 53005 60012 75165 886// 333 20006 41000 88710 91111;
0166268250999992000020509004+53680+023830FM-12+013599999V0203001N006010033019N0100001N1+00381+00281101011ADDAY151031AY221031GA1081+003309069GF108991081061004501999999MD1210391+9999MW1021REMSYN076AAXX  05091 26825 41460 83006 10038 20028 40101 52039 70252 886// 333 88711;
0171268250999992000020512004+53680+023830FM-12+013599999V0203101N005012200019N0100001N1+00471+00141101311ADDAY151061AY211061GF103991021061004501001011MA1999999099661MD1210311+9999MW1011REMSYN082AAXX  05121 26825 41460 33105 10047 20014 39966 40131 52031 70151 82601 555 12003;
0112268250999992000020515004+53680+023830FM-12+013599999V0203001N005012200019N0100001N1+00391+00021101511ADDGF103991031051008001001001MD1210181+9999REMSYN060AAXX  05151 26825 42560 33005 10039 20002 40151 52018 83500;
0162268250999992000020518004+53680+023830FM-12+013599999V0202901N005012200019N0100001N1+00241+00001101711ADDAA112000791GA1001+999999999GF100991001001999999001001KA1999M+00501MD1210191+9999REMSYN070AAXX  05181 26825 12960 02905 10024 21000 40171 52019 69902 333 10050;
0122268250999992000020521004+53680+023830FM-12+013599999V0202501N004012200019N0100001N1+00051-00091101851ADDGA1001+999999999GF100991001001999999001001MD1210141+9999REMSYN054AAXX  05211 26825 42960 02504 10005 21009 40185 52014;
0185268250999992000020600004+53680+023830FM-12+013599999V0202201N003010006019N0008001N1+00201+00201101791ADDAY141061AY211061GA1091+999999999GF109991091999999999999999MA1999999100111MD1810061+9999MW1451REMSYN080AAXX  06001 26825 41/08 92203 10020 20020 30011 40179 58006 74541 333 555 12001;
0199268250999992000020603004+53680+023830FM-12+013599999V0202301N002010012019N0025001N1+00291+00271101711ADDAA112999929AY151031AY241031GA1081+001209079GF108991081061001501999999MD1710071+9999MW1511REMSYN098AAXX  06031 26825 /1225 82302 10029 20027 40171 57007 75154 886// 333 88704 555 20005 69902 7001/;
0231268250999992000020606004+53680+023830FM-12+013599999V0202701N003010012019N0060001N1+00421+00401101651ADDAA112000791AJ100009199999999AY151061AY241061GA1081+001209069GF108991081061001501999999IA1259KA1120N+00051MD1710061+9999MW1101REMSYN094AAXX  06061 26825 11256 82703 10042 20040 40165 57006 69902 71054 886// 333 20005 41000 88704;
0166268250999992000020609004+53680+023830FM-12+013599999V0202401N002010012019N0042001N1+00451+00431101671ADDAY181031AY221031GA1081+001209069GF108991081061001501999999MD1310031+9999MW1211REMSYN076AAXX  06091 26825 41242 82402 10045 20043 40167 53003 72182 886// 333 88704;
0197268250999992000020612004+53680+023830FM-12+013599999V0202301N004010012019N0042001N1+00551+00501101571ADDAY181061AY221061GA1081+001209079GF108991081061001501999999MA1999999099911MD1810101+9999MW1101REMSYN092AAXX  06121 26825 41242 82304 10055 20050 39991 40157 58010 71082 886// 333 88704 555 12004;
0166268250999992000020615004+53680+023830FM-12+013599999V0202101N004010018019N0060001N1+00471+00351101481ADDAY121031AY221031GA1051+001809069GF106991051061001501001011MD1710071+9999MW1101REMSYN076AAXX  06151 26825 41256 62104 10047 20035 40148 57007 71022 85601 333 85706;
0202268250999992000020618004+53680+023830FM-12+013599999V0202701N003010069019N0060001N1+00481+00311101601ADDAA112000391AY121061AY221061GA1071+006909059GF107991071051008001999999KA1120M+00581MD1310101+9999MW1101REMSYN088AAXX  06181 26825 11556 72703 10048 20031 40160 53010 69932 71022 875// 333 10058 87623;
0138268250999992000020621004+53680+023830FM-12+013599999V0202701N004010054019N0100001N1+00471+00271101641ADDGA1081+005409069GF108991081061004501999999MD1210041+9999REMSYN070AAXX  06211 26825 42460 82704 10047 20027 40164 52004 886// 333 88718;
0169268250999992000020700004+53680+023830FM-12+013599999V0202401N003010048019N0100001N1+00421+00171101611ADDGA1081+004809079GF108991081061004501999999MA1999999099941MD1810041+9999REMSYN086AAXX  07001 26825 42460 82403 10042 20017 39994 40161 58004 886// 333 88716 555 12002;
0169268250999992000020703004+53680+023830FM-12+013599999V0202401N003010048019N0100001N1+00421+00171101611ADDGA1081+004809079GF108991081061004501999999MA1999999099941MD1810041+9999REMSYN086AAXX  07031 26825 42460 82403 10042 20017 39994 40161 58004 886// 333 88716 555 12002;
0215268250999992000020706004+53680+023830FM-12+013599999V0201801N002010069019N0050001N1+00231+00151101581ADDAA199000091AY121061AY221061GA1071+006909059GF108991071051008001999999KA1120N+00231MD1810061+9999MW1101REMSYN082AAXX  07061 26825 31550 81802 10023 20015 40158 58006 71022 875// 333 20023 87623;EQDQ01  00002PRCP99
0160268250999992000020709004+53680+023830FM-12+013599999V0201701N004010003019N0004001N1+00221+00221101451ADDAY141031AY221031GA1091+000309999GF109991091999999999999999MD1710131+9999MW1471REMSYN070AAXX  07091 26825 41/04 91704 10022 20022 40145 57013 74742 333 89/01;
0197268250999992000020712004+53680+023830FM-12+013599999V0201801N004010006019N0014001N1+00391+00371101191ADDAY141061AY221061GA1081+000609079GF108991081061000751999999MA1999999099541MD1710231+9999MW1101REMSYN092AAXX  07121 26825 41114 81804 10039 20037 39954 40119 57023 71042 886// 333 88702 555 12003;
0166268250999992000020715004+53680+023830FM-12+013599999V0201901N005010033019N0042001N1+00441+00391101021ADDAY121031AY221031GA1081+003309069GF108991081061004501999999MD1710171+9999MW1101REMSYN076AAXX  07151 26825 41442 81905 10044 20039 40102 57017 71022 886// 333 88711;
0215268250999992000020718004+53680+023830FM-12+013599999V0201701N004010057019N0060001N1+00491+00371100981ADDAA199000091AY121061AY221061GA1081+005709069GF108991081061004501999999KA1120M+00491MD1710041+9999MW1101REMSYN082AAXX  07181 26825 31456 81704 10049 20037 40098 57004 71022 886// 333 10049 88719;EQDQ01  00002PRCP99
0112268250999992000020721004+53680+023830FM-12+013599999V0202001N005019999999N0100001N1+00691+00491100871ADDGF108991081001999999031999MD1710091+9999REMSYN060AAXX  07211 26825 42960 82005 10069 20049 40087 57009 8803/;
0169268250999992000020800004+53680+023830FM-12+013599999V0203001N006010078019N0100001N1+00711+00511100871ADDGA1071+007809069GF107991071051008001999999MA1999999099241MD1410001+9999REMSYN086AAXX  08001 26825 42560 73006 10071 20051 39924 40087 54000 875// 333 87626 555 12005;
0158268250999992000020803004+53680+023830FM-12+013599999V0202001N004019999999N0100001N1+00281+00181100841ADDAA199000091GF107991071001999999031999MD1810051+9999REMSYN076AAXX  08031 26825 32960 72004 10028 20018 40084 58005 8703/ 555 20028 7000/;EQDQ01  00002PRCP99
0193268250999992000020806004+53680+023830FM-12+013599999V0201801N003019999999N0060001N1+00201+00091100681ADDAA199000091AY121061AY221061GF106991061001999999031001KA1999N+00201MD1710181+9999MW1101REMSYN076AAXX  08061 26825 31956 61803 10020 20009 40068 57018 71022 86030 333 20020;EQDQ01  00002PRCP99
0112268250999992000020809004+53680+023830FM-12+013599999V0202001N005019999999N0100001N1+00321+00191100421ADDGF107991071001999999031999MD1710241+9999REMSYN060AAXX  08091 26825 42960 72005 10032 20019 40042 57024 8703/;
0164268250999992000020812004+53680+023830FM-12+013599999V0202001N007019999999N0100001N1+00511+00241099971ADDGF107991071001999999031999MA1999999098341MD1710431+9999OA149901101REMSYN086AAXX  08121 26825 42960 72007 10051 20024 39834 49997 57043 8703/ 333 91111 555 12004;
0172268250999992000020815004+53680+023830FM-12+013599999V0202001N005010036019N0100001N1+00431+00361099711ADDAY181031AY221031GA1081+003609099GF108991081031004501999999MD1710251+9999MW1801REMSYN082AAXX  08151 26825 41460 82005 10043 20036 49971 57025 78082 883// 333 88912 91111;
0208268250999992000020818004+53680+023830FM-12+013599999V0202801N007010039019N0100001N1+00351+00221099751ADDAA112003091AY181061AY221061GA1081+003909099GF108991081031004501999999KA1120M+00521MD1310021+9999MW1801REMSYN094AAXX  08181 26825 11460 82807 10035 20022 49975 53002 60032 78082 883// 333 10052 88913 91111;
0166268250999992000020821004+53680+023830FM-12+013599999V0202201N003010060019N0100001N1+00311+00151099751ADDAY181031AY221031GA1081+006009099GF108991081031008001999999MD1410001+9999MW1021REMSYN076AAXX  08211 26825 41560 82203 10031 20015 49975 54000 70282 883// 333 88920;
0197268250999992000020900004+53680+023830FM-12+013599999V0202101N003010060019N0100001N1+00311+00151099751ADDAY181061AY221061GA1071+006009069GF107991071051008001999999MA1999999098111MD1410001+9999MW1021REMSYN092AAXX  09001 26825 41560 72103 10031 20015 39811 49975 54000 70282 875// 333 87620 555 12002;
0172268250999992000020903004+53680+023830FM-12+013599999V0201701N004010069019N0100001N1+00271+00191099481ADDAA112002091GA1071+006909069GF107991071051008001999999MD1810271+9999REMSYN093AAXX  09031 26825 /2560 71704 10027 20019 49948 58027 875// 333 87623 555 /20020 60022 7004/;
0202268250999992000020906004+53680+023830FM-12+013599999V0201701N003010018019N0020001N1+00271+00241099371ADDAA112000891AY181061AY221061GA1081+001809099GF108991081031001501999999KA1120N+00201MD1710101+9999MW1801REMSYN088AAXX  09061 26825 11220 81703 10027 20024 49937 57010 69972 78082 883// 333 20020 88906;
0166268250999992000020909004+53680+023830FM-12+013599999V0202101N003010009019N0013001N1+00311+00281099491ADDAY181031AY241031GA1061+000909069GF108991081031001501999999MD1310111+9999MW1801REMSYN076AAXX  09091 26825 41213 82103 10031 20028 49949 53011 78084 883// 333 86703;
0214268250999992000020912004+53680+023830FM-12+013599999V0202701N008010036019N0100001N1+00391+00271099881ADDAY181061AY241061GA1061+003609079GF108991081031004501999999MA1999999098241MD1210391+9999MW1801OA149901401REMSYN098AAXX  09121 26825 41460 82708 10039 20027 39824 49988 52039 78084 883// 333 86712 91114 555 12004;
0150268250999992000020915004+53680+023830FM-12+013599999V0202601N003019999999N0100001N1+00391+00081100211ADDAY181031AY221031GF106991061001999999031001MD1210331+9999MW1021REMSYN076AAXX  09151 26825 41960 62603 10039 20008 40021 52033 70282 86030 333 91112;
0180268250999992000020918004+53680+023830FM-12+013599999V0202201N002019999999N0100001N1+00271+00031100461ADDAA112003091AY181061AY221061GF106991061001999999031001KA1999M+00481MD1210241+9999MW1021REMSYN082AAXX  09181 26825 11960 62202 10027 20003 40046 52024 60032 70282 86030 333 10048;
0122268250999992000020921004+53680+023830FM-12+013599999V0202401N002012200019N0100001N1+00211+00021100721ADDGA1001+999999999GF100991001001999999001001MD1210241+9999REMSYN054AAXX  09211 26825 42960 02402 10021 20002 40072 52024;
0153268250999992000021000004+53680+023830FM-12+013599999V0202601N002012200019N0100001N1+00181+00021100891ADDGA1001+999999999GF100991001001999999001001MA1999999099221MD1210171+9999REMSYN070AAXX  10001 26825 42960 02602 10018 20002 39922 40089 52017 555 12001;
0168268250999992000021003004+53680+023830FM-12+013599999V0202401N002012200019N0100001N1+00101-00041101131ADDAA199000091GA1001+999999999GF100991001001999999001001MD1210241+9999REMSYN070AAXX  10031 26825 32960 02402 10010 21004 40113 52024 555 20010 7003/;EQDQ01  00002PRCP99
0165268250999992000021006004+53680+023830FM-12+013599999V0202301N004019999999N0100001N1+00101-00041101331ADDAA199000091GF107991071001999999031999KA1999N+00061MD1210201+9999REMSYN070AAXX  10061 26825 32960 72304 10010 21004 40133 52020 8703/ 333 20006;EQDQ01  00002PRCP99
0166268250999992000021009004+53680+023830FM-12+013599999V0202701N004010030019N0100001N1+00151+00011101651ADDAY181031AY221031GA1081+003009069GF108991081031004501999999MD1210311+9999MW1801REMSYN076AAXX  10091 26825 41460 82704 10015 20001 40165 52031 78082 883// 333 88710;
0197268250999992000021012004+53680+023830FM-12+013599999V0202701N003010024019N0100001N1+00251+00121101831ADDAY181061AY221061GA1081+002409079GF108991081061002501999999MA1999999100161MD1210191+9999MW1021REMSYN092AAXX  10121 26825 41360 82703 10025 20012 30016 40183 52019 70282 886// 333 88708 555 12002;
0138268250999992000021015004+53680+023830FM-12+013599999V0202601N003010060019N0100001N1+00261+00101101941ADDGA1071+006009059GF107991071051008001999999MD1210101+9999REMSYN070AAXX  10151 26825 42560 72603 10026 20010 40194 52010 875// 333 87620;
0174268250999992000021018004+53680+023830FM-12+013599999V0202301N002010069019N0100001N1+00221+00001101971ADDAA112000791GA1071+006909059GF107991071051008001999999KA1120M+00291MD1110021+9999REMSYN082AAXX  10181 26825 12560 72302 10022 20000 40197 51002 69902 875// 333 10029 87623;
0138268250999992000021021004+53680+023830FM-12+013599999V0201901N003010099019N0100001N1+00201-00051101951ADDGA1071+009909059GF107991071051012501999999MD1810021+9999REMSYN070AAXX  10211 26825 42660 71903 10020 21005 40195 58002 875// 333 87633;
0143268250999992000021100004+53680+023830FM-12+013599999V0201801N004019999999N0100001N1+00091-00051101811ADDGF107991071001999999031999MA1999999100131MD1710131+9999REMSYN076AAXX  11001 26825 42960 71804 10009 21005 30013 40181 57013 8703/ 555 14101;
0168268250999992000021103004+53680+023830FM-12+013599999V0201801N005012200019N0100001N1+00001-00121101591ADDAA199000091GA1001+999999999GF100991001001999999001001MD1710231+9999REMSYN070AAXX  11031 26825 32960 01805 10000 21012 40159 57023 555 20000 7990/;EQDQ01  00002PRCP99
0165268250999992000021106004+53680+023830FM-12+013599999V0202001N005019999999N0100001N1+00041-00101101511ADDAA199000091GF107991071001999999031001KA1999N+00001MD1710081+9999REMSYN070AAXX  11061 26825 32960 72005 10004 21010 40151 57008 87030 333 20000;EQDQ01  00002PRCP99
0138268250999992000021109004+53680+023830FM-12+013599999V0202201N004010045019N0100001N1+00181-00071101551ADDGA1081+004509069GF108991081061004501999999MD1310051+9999REMSYN070AAXX  11091 26825 42460 82204 10018 21007 40155 53005 886// 333 88715;
0216268250999992000021112004+53680+023830FM-12+013599999V0202601N003010021019N0100001N1+00201+00091101851ADDAY171061AY261061GA1061+002109079GF108991999071002501021999MA1999999100171MD1210301+9999MW1611REMSYN092AAXX  11121 26825 41360 82603 10020 20009 30017 40185 52030 76176 8872/ 333 86707 555 12002;EQDQ01+000082SCOTLC
0166268250999992000021115004+53680+023830FM-12+013599999V0202701N004010048019N0100001N1+00311+00151102031ADDAY161031AY221031GA1051+004809069GF105991051061004501001001MD1210181+9999MW1011REMSYN076AAXX  11151 26825 41460 52704 10031 20015 40203 52018 70162 85600 333 85716;
0190268250999992000021118004+53680+023830FM-12+013599999V0202701N004012200019N0100001N1+00181+00071102311ADDAA112000391AY161061AY211061GA1001+999999999GF100991001001999999001001KA1999M+00341MD1210271+9999MW1011REMSYN076AAXX  11181 26825 11960 02704 10018 20007 40231 52027 69932 70161 333 10034;
0122268250999992000021121004+53680+023830FM-12+013599999V0202601N003012200019N0100001N1+00031-00051102461ADDGA1001+999999999GF100991001001999999001001MD1210131+9999REMSYN054AAXX  11211 26825 42960 02603 10003 21005 40246 52013;
0169268250999992000021200004+53680+023830FM-12+013599999V0202301N002010093019N0100001N1+00141+00061102581ADDGA1071+009309069GF107991071051008001999999MA1999999100881MD1210131+9999REMSYN086AAXX  12001 26825 42560 72302 10014 20006 30088 40258 52013 875// 333 87631 555 14101;
0184268250999992000021203004+53680+023830FM-12+013599999V0202201N002010108019N0100001N1+00171+00091102581ADDAA199000091GA1071+010809069GF107991071051012501999999MD1410001+9999REMSYN086AAXX  12031 26825 32660 72202 10017 20009 40258 54000 875// 333 87636 555 20003 7993/;EQDQ01  00002PRCP99
0187268250999992000021206004+53680+023830FM-12+013599999V0202101N002010120019N0100001N1+00151+00011102621ADDAA199000091GA1071+012009059GF107991071051012501999999KA1120N+00031MD1310041+9999REMSYN076AAXX  12061 26825 32660 72102 10015 20001 40262 53004 875// 333 20003 87640;EQDQ01  00002PRCP99
0138268250999992000021209004+53680+023830FM-12+013599999V0202101N003010150019N0100001N1+00161-00061102651ADDGA1071+015009059GF107991071051017501999999MD1210031+9999REMSYN070AAXX  12091 26825 42760 72103 10016 21006 40265 52003 875// 333 87650;
0169268250999992000021212004+53680+023830FM-12+013599999V0202001N003010150019N0100001N1+00381+00011102581ADDGA1071+015009069GF107991071051017501999999MA1999999100891MD1810061+9999REMSYN086AAXX  12121 26825 42760 72003 10038 20001 30089 40258 58006 875// 333 87650 555 12003;
0112268250999992000021215004+53680+023830FM-12+013599999V0201801N003019999999N0100001N1+00271+00091102491ADDGF107991071001999999031999MD1710091+9999REMSYN060AAXX  12151 26825 42960 71803 10027 20009 40249 57009 8703/;
0187268250999992000021218004+53680+023830FM-12+013599999V0201901N003010099019N0100001N1+00091-00051102431ADDAA199000091GA1061+009909059GF106991061051012501001001KA1120M+00381MD1710061+9999REMSYN076AAXX  12181 26825 32660 61903 10009 21005 40243 57006 86500 333 10038 86633;EQDQ01  00002PRCP99
0138268250999992000021221004+53680+023830FM-12+013599999V0202001N003010108019N0100001N1+00121+00011102241ADDGA1061+010809059GF106991061051012501001001MD1710191+9999REMSYN070AAXX  12211 26825 42660 62003 10012 20001 40224 57019 86500 333 86636;
0169268250999992000021300004+53680+023830FM-12+013599999V0201601N003010120019N0100001N1+00101-00011102021ADDGA1061+012009069GF106991061051012501001001MA1999999100331MD1710221+9999REMSYN086AAXX  13001 26825 42660 61603 10010 21001 30033 40202 57022 86500 333 86640 555 12000;
0184268250999992000021303004+53680+023830FM-12+013599999V0201701N005010120019N0100001N1+00141+00061101681ADDAA199000091GA1071+012009069GF107991071051012501999999MD1710331+9999REMSYN086AAXX  13031 26825 32660 71705 10014 20006 40168 57033 875// 333 87640 555 20009 7000/;EQDQ01  00002PRCP99
0187268250999992000021306004+53680+023830FM-12+013599999V0201801N005010060019N0100001N1+00091-00171101411ADDAA199000091GA1071+006009059GF107991071051008001999999KA1120N+00091MD1710261+9999REMSYN076AAXX  13061 26825 32560 71805 10009 21017 40141 57026 875// 333 20009 87620;EQDQ01  00002PRCP99
0112268250999992000021309004+53680+023830FM-12+013599999V0201901N005019999999N0100001N1+00121-00141101321ADDGF107991071001999999031999MD1710091+9999REMSYN060AAXX  13091 26825 42960 71905 10012 21014 40132 57009 8703/;
0197268250999992000021312004+53680+023830FM-12+013599999V0202401N002010030019N0060001N1+00161-00031101191ADDAY181061AY221061GA1081+003009099GF108991081031004501999999MA1999999099521MD1710131+9999MW1851REMSYN092AAXX  13121 26825 41456 82402 10016 21003 39952 40119 57013 78582 883// 333 88910 555 12001;
0140268250999992000021315004+53680+023830FM-12+013599999V0202401N002019999999N0100001N1+00251-00141101141ADDAY181031AY221031GF105991051001999999031001MD1710041+9999MW1011REMSYN066AAXX  13151 26825 41960 52402 10025 21014 40114 57004 70182 85030;
0180268250999992000021318004+53680+023830FM-12+013599999V0201901N002012200019N0100001N1+00051-00211101201ADDAA112000791AY181061AY221061GF102991021001999999031001KA1999M+00291MD1310031+9999MW1011REMSYN082AAXX  13181 26825 31960 21902 10005 21021 40120 53003 69902 70182 82030 333 10029;
0112268250999992000021321004+53680+023830FM-12+013599999V0201901N004019999999N0100001N1-00041-00221101071ADDGF106991061001999999031001MD1810141+9999REMSYN060AAXX  13211 26825 42960 61904 11004 21022 40107 58014 86030;
0197268250999992000021400004+53680+023830FM-12+013599999V0201801N004010030019N0060001N1+00011-00021100871ADDAY181061AY211061GA1081+003009099GF108991081031004501999999MA1999999099191MD1710191+9999MW1851REMSYN092AAXX  14001 26825 41456 81804 10001 21002 39919 40087 57019 78581 883// 333 88910 555 1/000;
0199268250999992000021403004+53680+023830FM-12+013599999V0202501N002010099019N0100001N1+00081-00061100771ADDAA112000291AY181031AY221031GA1071+009909069GF107991071051012501999999MD1710101+9999MW1021REMSYN098AAXX  14031 26825 /2660 72502 10008 21006 40077 57010 70282 875// 333 87633 555 21004 69922 7992/;
0203268250999992000021406004+53680+023830FM-12+013599999V0202201N003010033019N0100001N1+00011-00141100771ADDAA112000191AJ100019199999999GA1081+003309069GF108991081061004501999999IA1259KA1120N-00041MD1410001+9999REMSYN088AAXX  14061 26825 32460 82203 10001 21014 40077 54000 69922 886// 333 21004 41001 88711;
0169268250999992000021412004+53680+023830FM-12+013599999V0202601N004010069019N0100001N1+00221-00181100771ADDGA1051+006909069GF105991051051008001001001MA1999999099101MD1410001+9999REMSYN086AAXX  14121 26825 42560 52604 10022 21018 39910 40077 54000 85500 333 85623 555 12002;
0166268250999992000021415004+53680+023830FM-12+013599999V0202601N005010048019N0100001N1+00071-00161100841ADDAY181031AY221031GA1061+004809099GF106991061031004501001001MD1310071+9999MW1261REMSYN076AAXX  14151 26825 41460 62605 10007 21016 40084 53007 72682 86300 333 86916;
0183268250999992000021418004+53680+023830FM-12+013599999V0202701N004010099019N0100001N1-00021-00171101081ADDAA112000891AY181061AY221061GA1071+009909059GF107991071051012501001001MD1210221+9999MW1021REMSYN082AAXX  14181 26825 11660 72704 11002 21017 40108 52022 69972 70282 87500 333 87633;
0138268250999992000021421004+53680+023830FM-12+013599999V0202701N003010099019N0100001N1-00121-00241101271ADDGA1061+009909059GF106991061051012501001001MD1210191+9999REMSYN070AAXX  14211 26825 42660 62703 11012 21024 40127 52019 86500 333 86633;
