0315298460999992000010100004+53730+087180SY-MT+0308UNWW V0209999C000012200019N0010001N1-03891-04111104431ADDAA106000091AY101061AY201061GF100991001001999999001001IA1239KA1120N-03891MA1104401099841MD1710341+9999MW1101REMSYN082AAXX  01001 29846 31994 00000 11389 21411 39984 40443 57034 71000 333 21389 47014;MET073UNWW 010000Z 00000MPS 1500 R2400 BR SKC M39/M41 Q1044 NOSIG QFE749 SC055;EQDQ01  00002PRCP06Q02    003PRSWM1
0129298460999992000010101004+53730+087180FM-15+0308UNWW V0209999C000012200019N0025001N1-03901-04101999999ADDGF100991999999999999999999MW1101REMMET066UNWW 010100Z 00000MPS 2500 BR SKC M39/M41 Q102 NOSIG QFE748 SC055;EQDQ01    003PRSWM1
0249298460999992000010103004+53730+087180SY-MT+0308UNWW V0209999C000012200019N0005001N1-03881-04111104061ADDAY141031AY201031GF100991001001999999001001MA1104001999999MD1710371+9999MW1461MW2481REMSYN060AAXX  01031 29846 41993 00000 11388 21411 40406 57037 74640;MET069UNWW 010300Z 00000MPS 0600 FZFG SKC M39/M41 Q1040 NOSIG QFE746 SC055;EQDQ01    003PRSWM1
0147298460999992000010104004+53730+087180FM-15+0308UNWW V0209999C000012200019N0006001N1-03901-04101999999ADDGF100991999999999999999999MA1103691999999MW1481REMMET069UNWW 010400Z 00000MPS 0600 FZFG SKC M39/M41 Q1037 NOSIG QFE744 SC055;EQDQ01    003PRSWM1
0147298460999992000010105004+53730+087180FM-15+0308UNWW V0209999C000012200019N0006001N1-03801-04001999999ADDGF100991999999999999999999MA1103591999999MW1481REMMET069UNWW 010500Z 00000MPS 0600 FZFG SKC M38/M40 Q1036 NOSIG QFE743 SC055;EQDQ01    003PRSWM1
0254298460999992000010106004+53730+087180SY-MT+0308UNWW V0203501N001012200019N0005001N1-03301-03531103271ADDAY141061AY241061GF103991031001999999031001MA1103181999999MD1710621+9999MW1461MW2481REMSYN066AAXX  01061 29846 41993 33501 11330 21353 40327 57062 74644 83030;MET068UNWW 010600Z 33002MPS 0900 FZFG SKC M33/M35 Q1032 NOSIG QFE741 SC06;EQDQ01    003PRSWM1
0146298460999992000010107004+53730+087180FM-15+0308UNWW V0203501N001012200019N0009001N1-03101-03301999999ADDGF100991999999999999999999MA1103121999999MW1481REMMET068UNWW 010700Z 35001MPS 0900 FZFG SKC M31/M33 Q1031 NOSIG QFE741 SC06;EQDQ01    003PRSWM1
0089298460999992000010108004+53730+087180FM-15+0308UNWW V0203601N001012200019N0030001N1+99999+99999999999ADDMW1001REMMET071UNWW 010800Z 36001MPS 30000 BR SCT100 M30/M323 Q1030 NOSIG QFE740 SC06;
0265298460999992000010109004+53730+087180SY-MT+0308UNWW V0203601N001010300019N0020001N1-03071-03291102991ADDAY141031AY221031GA1081+030009999GF108991081001999999071999MA1102911999999MD1710231+9999MW1101REMSYN066AAXX  01091 29846 41995 83601 11307 21329 40299 57023 71042 8807/;MET069UNWW 010900Z 36001MPS 3000 BR OVC100 M31/M33 Q1029 NOSIG QFE739 SC06;EQDQ01    003PRSWM1
0163298460999992000010111004+53730+087180FM-15+0308UNWW V0209999C000010300019N0025001N1-03101-03301999999ADDGA1081+030009999GF108991999999999999999999MA1102811999999MW1101REMMET069UNWW 011100Z 00000MPS 2500 BR OVC100 M31/M33 Q1028 NOSIG QFE738 SC06;EQDQ01    003PRSWM1
0321298460999992000010112004+53730+087180SY-MT+0308UNWW V0209999C00001030001CN0020001N1-03061-03291102801ADDAA106000091AY141061AY221061GA1081+030009999GF108991031001999999031011KA1999M-03001MA1102811098441MD1710181+9999MW1101REMSYN082AAXX  01121 29846 31995 80000 11306 21329 39844 40280 57018 71042 83031 333 11300;MET069UNWW 011200Z 00000MPS 2500 BR OVC100 M31/M33 Q1028 NOSIG QFE738 SC06;EQDQ01  00002PRCP06Q02    003PRSWM1
0163298460999992000010113004+53730+087180FM-15+0308UNWW V0209999C000010390019N0025001N1-03101-03301999999ADDGA1081+039009999GF108991999999999999999999MA1102811999999MW1101REMMET069UNWW 011300Z 00000MPS 2500 BR OVC130 M31/M33 Q1028 NOSIG QFE738 SC06;EQDQ01    003PRSWM1
0163298460999992000010114004+53730+087180FM-15+0308UNWW V0209999C000010390019N0025001N1-03101-03301999999ADDGA1081+039009999GF108991999999999999999999MA1102711999999MW1101REMMET069UNWW 011400Z 00000MPS 2500 BR OVC130 M31/M33 Q1027 NOSIG QFE737 SC06;EQDQ01    003PRSWM1
0265298460999992000010115004+53730+087180SY-MT+0308UNWW V0209999C00001039001CN0020001N1-02891-03131102581ADDAY121031AY221031GA1081+039009999GF108991031001999999031011MA1102511999999MD1710181+9999MW1101REMSYN066AAXX  01151 29846 41995 80000 11289 21313 40258 57018 71022 83031;MET069UNWW 011500Z 00000MPS 2500 BR OVC130 M29/M31 Q1025 NOSIG QFE737 SC06;EQDQ01    003PRSWM1
0163298460999992000010116004+53730+087180FM-15+0308UNWW V0209999C000010390019N0025001N1-02901-03101999999ADDGA1081+039009999GF108991999999999999999999MA1102511999999MW1101REMMET069UNWW 011600Z 00000MPS 2500 BR OVC130 M29/M31 Q1025 NOSIG QFE736 SC06;EQDQ01    003PRSWM1
0163298460999992000010117004+53730+087180FM-15+0308UNWW V0209999C000010390019N0025001N1-02801-03101999999ADDGA1081+039009999GF108991999999999999999999MA1102511999999MW1101REMMET069UNWW 011700Z 00000MPS 2500 BR OVC130 M28/M31 Q1025 NOSIG QFE736 SC06;EQDQ01    003PRSWM1
0265298460999992000010118004+53730+087180SY-MT+0308UNWW V0209999C00001039001CN0020001N1-02771-02941102301ADDAY121061AY221061GA1081+039009999GF108991031001999999031011MA1102301999999MD1710251+9999MW1101REMSYN066AAXX  01181 29846 41995 80000 11277 21294 40230 57025 71022 83031;MET069UNWW 011800Z 00000MPS 2500 BR OVC130 M28/M29 Q1023 NOSIG QFE735 SC06;EQDQ01    003PRSWM1
0163298460999992000010119004+53730+087180FM-15+0308UNWW V0203601N001010390019N0025001N1-02801-02901999999ADDGA1081+039009999GF108991999999999999999999MA1102301999999MW1101REMMET069UNWW 011900Z 36001MPS 2500 BR OVC130 M28/M29 Q1023 NOSIG QFE735 SC06;EQDQ01    003PRSWM1
0173298460999992000010120004+53730+087180FM-15+0308UNWW V0209999C000010390019N0025001N1-02701-02901999999ADDGA1081+039009999GF108991999999999999999999MA1102201999999MW1101MW2711REMMET073UNWW 012000Z 00000MPS 2500 BR -SN OVC130 M27/M29 Q1022 NOSIG QFE734 SC06;EQDQ01    003PRSWM1
0275298460999992000010121004+53730+087180SY-MT+0308UNWW V0209999C00001039001CN0020001N1-02651-02831102171ADDAY171031AY221031GA1081+039009999GF108991081001999999071999MA1102101999999MD1710091+9999MW1101MW2701REMSYN066AAXX  01211 29846 41995 80000 11265 21283 40217 57009 77072 8807/;MET073UNWW 012100Z 00000MPS 2500 BR -SN OVC130 M27/M29 Q1021 NOSIG QFE734 SC06;EQDQ01    003PRSWM1
0173298460999992000010122004+53730+087180FM-15+0308UNWW V0209999C000010390019N0025001N1-02601-02801999999ADDGA1081+039009999GF108991999999999999999999MA1102101999999MW1101MW2711REMMET073UNWW 012200Z 00000MPS 2500 BR -SN OVC130 M26/M28 Q1021 NOSIG QFE734 SC06;EQDQ01    003PRSWM1
0196298460999992000010123004+53730+087180FM-15+0308UNWW V0209999C000010390019N0025001N1-02601-02701999999ADDGA1021+010809999GA2081+039009999GF108991999999999999999999MA1102001999999MW1101MW2711REMMET080UNWW 012300Z 00000MPS 2500 BR -SN SCT036 OVC130 M26/M27 Q1020 NOSIG QFE733 SC06;EQDQ01    003PRSWM1
0361298460999992000010200004+53730+087180SY-MT+0308UNWW V0209999C00001039001CN0020001N1-02571-02741101961ADDAA112000191AY171061AY271061GA1021+010809999GA2081+039009999GF108991081001999999071999IA1239KA1120N-03061MA1101901097721MD1710201+9999MW1101MW2701REMSYN094AAXX  02001 29846 11995 80000 11257 21274 39772 40196 57020 69922 77077 8807/ 333 21306 47014;MET085UNWW 020000Z 00000MPS 2500 BR -SN SCT036 OVC130 M26/M27 Q1019 NOSIG RMK QFE733 SC045;EQDQ01    003PRSWM1
0217298460999992000010201004+53730+087180FM-15+0308UNWW V0209999C000010390019N0025001N1-02501-02701999999ADDGA1021+010809999GA2081+039009999GF108991999999999999999999MA1101901999999MW1101MW2711REMMET085UNWW 020100Z 00000MPS 2500 BR -SN SCT036 OVC130 M25/M27 Q1019 NOSIG RMK QFE733 SC045;EQDQ01+000003PRSWM1Q02    003PRSWM1
0217298460999992000010202004+53730+087180FM-15+0308UNWW V0209999C000010390019N0025001N1-02501-02701999999ADDGA1021+010809999GA2081+039009999GF108991999999999999999999MA1101901999999MW1101MW2711REMMET085UNWW 020200Z 00000MPS 2500 BR -SN SCT036 OVC130 M25/M27 Q1019 NOSIG RMK QFE733 SC040;EQDQ01+000003PRSWM1Q02    003PRSWM1
0291298460999992000010203004+53730+087180SY-MT+0308UNWW V0209999C00001039001CN0020001N1-02451-02631101791ADDGA1021+010809999GA2081+039009999GF108991021051012501051999MA1101691999999MD1710131+9999MW1101REMSYN060AAXX  02031 29846 41695 80000 11245 21263 40179 57013 8255/;MET085UNWW 020300Z 00000MPS 2500 BR -SN SCT036 OVC130 M25/M26 Q1017 NOSIG RMK QFE732 SC040;EQDQ01+000003PRSWM1Q02    003PRSWM1
0217298460999992000010204004+53730+087180FM-15+0308UNWW V0209999C000010390019N0025001N1-02401-02601999999ADDGA1021+010809999GA2081+039009999GF108991999999999999999999MA1101691999999MW1101MW2711REMMET085UNWW 020400Z 00000MPS 2500 BR -SN SCT036 OVC130 M24/M26 Q1017 NOSIG RMK QFE732 SC040;EQDQ01+000003PRSWM1Q02    003PRSWM1
0217298460999992000010205004+53730+087180FM-15+0308UNWW V0209999C000010390019N0025001N1-02301-02501999999ADDGA1021+010809999GA2081+039009999GF108991999999999999999999MA1101691999999MW1101MW2711REMMET085UNWW 020500Z 00000MPS 2500 BR -SN SCT036 OVC130 M23/M25 Q1017 NOSIG RMK QFE731 SC040;EQDQ01+000003PRSWM1Q02    003PRSWM1
0303298460999992000010206004+53730+087180SY-MT+0308UNWW V0201201N00101039001CN0020001N1-02161-02341101641ADDAY171061AY271061GA1021+010809999GA2081+039009999GF108991021051012501021999MA1101591999999MD1710111+9999MW1101MW2711REMSYN066AAXX  02061 29846 41695 81201 11216 21234 40164 57011 77177 8252/;MET085UNWW 020600Z 00000MPS 2500 BR -SN SCT036 OVC130 M22/M23 Q1016 NOSIG RMK QFE731 SC040;EQDQ01    003PRSWM1
0217298460999992000010207004+53730+087180FM-15+0308UNWW V0209999C000010390019N0025001N1-02001-02201999999ADDGA1021+010809999GA2081+039009999GF108991999999999999999999MA1101591999999MW1101MW2711REMMET085UNWW 020700Z 00000MPS 2500 BR -SN SCT036 OVC130 M20/M22 Q1016 NOSIG RMK QFE731 SC040;EQDQ01+000003PRSWM1Q02    003PRSWM1
0217298460999992000010208004+53730+087180FM-15+0308UNWW V0209999C000010390019N0025001N1-02001-02201999999ADDGA1021+010809999GA2081+039009999GF108991999999999999999999MA1101591999999MW1101MW2711REMMET085UNWW 020800Z 00000MPS 2500 BR -SN SCT036 OVC130 M20/M22 Q1016 NOSIG RMK QFE731 SC045;EQDQ01+000003PRSWM1Q02    003PRSWM1
0303298460999992000010209004+53730+087180SY-MT+0308UNWW V0209999C000010300019N0020001N1-01901-02091101591ADDAY171031AY271031GA1021+010809999GA2081+030009999GF108991021051012501021999MA1101491999999MD1410001+9999MW1101MW2711REMSYN066AAXX  02091 29846 41695 80000 11190 21209 40159 54000 77177 8252/;MET085UNWW 020900Z 00000MPS 2500 BR -SN SCT036 OVC100 M19/M21 Q1015 NOSIG RMK QFE731 SC045;EQDQ01    003PRSWM1
0217298460999992000010210004+53730+087180FM-15+0308UNWW V0209999C000010300019N0025001N1-01901-02101999999ADDGA1021+010809999GA2081+030009999GF108991999999999999999999MA1101491999999MW1101MW2711REMMET085UNWW 021000Z 00000MPS 2500 BR -SN SCT036 OVC100 M19/M21 Q1015 NOSIG RMK QFE731 SC045;EQDQ01+000003PRSWM1Q02    003PRSWM1
0217298460999992000010211004+53730+087180FM-15+0308UNWW V0209999C000010300019N0025001N1-02001-02201999999ADDGA1021+010809999GA2081+030009999GF108991999999999999999999MA1101491999999MW1101MW2711REMMET085UNWW 021100Z 00000MPS 2500 BR -SN SCT036 OVC100 M20/M22 Q1015 NOSIG RMK QFE731 SC045;EQDQ01+000003PRSWM1Q02    003PRSWM1
0349298460999992000010212004+53730+087180SY-MT+0308UNWW V0203501N004010300019N0020001N1-02351-02531101901ADDAA112003091AY171061AY271061GA1021+009909999GA2081+030009999GF108991031051012501021999KA1999M-01901MA1101901097711MD1310231+9999MW1101MW2711REMSYN088AAXX  02121 29846 11695 83504 11235 21253 39771 40190 53023 60032 77177 8352/ 333 11190;MET085UNWW 021200Z 35004MPS 2500 BR -SN SCT033 OVC100 M24/M25 Q1019 NOSIG RMK QFE733 SC045;EQDQ01    003PRSWM1
0216298460999992000010213004+53730+087180FM-15+0308UNWW V0203501N003010300019N0025001N1-02501-02701999999ADDGA1021+009909999GA2081+030009999GF108991999999999999999999MA1102001999999MW1101MW2711REMMET084UNWW 021300Z 35003MPS 2500 BR -SN SCT033 OVC100 M25/M27 Q1020 NOSIG RMK QFE734 SC04;EQDQ01+000003PRSWM1Q02    003PRSWM1
0216298460999992000010214004+53730+087180FM-15+0308UNWW V0203501N003010300019N0025001N1-02601-02801999999ADDGA1021+009909999GA2081+030009999GF108991999999999999999999MA1102101999999MW1101MW2711REMMET084UNWW 021400Z 35003MPS 2500 BR -SN SCT033 OVC100 M26/M28 Q1021 NOSIG RMK QFE734 SC04;EQDQ01+000003PRSWM1Q02    003PRSWM1
0298298460999992000010215004+53730+087180SY-MT+0308UNWW V0203501N002010300019N0020001N1-02631-02801102291ADDAY171031AY221031GA1021+009909999GA2081+030009999GF108991031051012501071999MA1102201999999MD1210321+9999MW1101MW2221REMSYN066AAXX  02151 29846 41695 83502 11263 21280 40229 52032 72272 8357/;MET080UNWW 021500Z 35003MPS 2500 BR SCT033 OVC100 M26/M28 Q1022 NOSIG RMK QFE735 SC04;EQDQ01    003PRSWM1
0216298460999992000010216004+53730+087180FM-15+0308UNWW V0203601N003010300019N0025001N1-02601-02801999999ADDGA1021+009909999GA2081+030009999GF108991999999999999999999MA1102201999999MW1101MW2711REMMET084UNWW 021600Z 36003MPS 2500 BR -SN SCT033 OVC100 M26/M28 Q1022 NOSIG RMK QFE736 SC04;EQDQ01+000003PRSWM1Q02    003PRSWM1
0216298460999992000010217004+53730+087180FM-15+0308UNWW V0203601N002010300019N0025001N1-02701-02901999999ADDGA1021+009909999GA2081+030009999GF108991999999999999999999MA1102201999999MW1101MW2711REMMET084UNWW 021700Z 36002MPS 2500 BR -SN SCT033 OVC100 M27/M29 Q1022 NOSIG RMK QFE736 SC04;EQDQ01+000003PRSWM1Q02    003PRSWM1
0298298460999992000010218004+53730+087180SY-MT+0308UNWW V0203501N001010300019N0020001N1-02741-02981102591ADDAY171061AY221061GA1021+009909999GA2081+030009999GF108991031051012501071999MA1102511999999MD1210281+9999MW1101MW2221REMSYN066AAXX  02181 29846 41695 83501 11274 21298 40259 52028 72272 8357/;MET080UNWW 021800Z 35001MPS 2500 BR SCT033 OVC100 M27/M30 Q1025 NOSIG RMK QFE737 SC04;EQDQ01    003PRSWM1
0206298460999992000010219004+53730+087180FM-15+0308UNWW V0209999C000010300019N0025001N1-02801-02901999999ADDGA1021+009909999GA2081+030009999GF108991999999999999999999MA1102811999999MW1101REMMET080UNWW 021900Z 00000MPS 2500 BR SCT033 OVC100 M28/M29 Q1028 NOSIG RMK QFE738 SC04;EQDQ01+000003PRSWM1Q02    003PRSWM1
0206298460999992000010220004+53730+087180FM-15+0308UNWW V0202501N004010300019N0025001N1-02801-02901999999ADDGA1021+009909999GA2081+030009999GF108991999999999999999999MA1102911999999MW1101REMMET080UNWW 022000Z 25004MPS 2500 BR SCT033 OVC100 M28/M29 Q1029 NOSIG RMK QFE739 SC04;EQDQ01+000003PRSWM1Q02    003PRSWM1
0297298460999992000010221004+53730+087180SY-MT+0308UNWW V0202301N006010300019N0020001N1-02731-02981103031ADDAY181031AY221031GA1021+009009099GA2081+030009999GF108991021091008001051999MA1103011999999MD1210421+9999MW1851REMSYN066AAXX  02211 29846 41595 82306 11273 21298 40303 52042 78582 8295/;MET085UNWW 022100Z 23006MPS 2500 -SHSN SCT030CB OVC100 M27/M30 Q1030 NOSIG RMK QFE740 SC04;EQDQ01    003PRSWM1
0211298460999992000010223004+53730+087180FM-15+0308UNWW V0202401N005010300019N0025001N1-02801-03101999999ADDGA1021+009009099GA2081+030009999GF108991999999999999999999MA1103121999999MW1851REMMET085UNWW 022300Z 24005MPS 2500 -SHSN SCT030CB OVC100 M28/M31 Q1031 NOSIG RMK QFE742 SC04;EQDQ01+000003PRSWM1Q02    003PRSWM1
0355298460999992000010300004+53730+087180SY-MT+0308UNWW V0202501N005010300019N0020001N1-02781-03031103381ADDAA112000191AY181061AY221061GA1021+009009099GA2081+030009999GF108991021091008001051999IA1239KA1120N-02731MA1103291099051MD1210321+9999MW1851REMSYN094AAXX  03001 29846 11595 82505 11278 21303 39905 40338 52032 69922 78582 8295/ 333 21273 47014;MET085UNWW 030000Z 25005MPS 2500 -SHSN SCT030CB OVC100 M28/M30 Q1033 NOSIG RMK QFE743 SC04;EQDQ01    003PRSWM1
0212298460999992000010301004+53730+087180FM-15+0308UNWW V0202401N003010300019N0025001N1-02801-03001999999ADDGA1021+009009099GA2081+030009999GF108991999999999999999999MA1103291999999MW1851REMMET086UNWW 030100Z 24003MPS 2500 -SHSN SCT030CB OVC100 M28/M30 Q1033 NOSIG RMK QFE743 SC045;EQDQ01+000003PRSWM1Q02    003PRSWM1
0212298460999992000010302004+53730+087180FM-15+0308UNWW V0202301N005010300019N0025001N1-02901-03201999999ADDGA1021+009009099GA2081+030009999GF108991999999999999999999MA1103391999999MW1851REMMET086UNWW 030200Z 23005MPS 2500 -SHSN SCT030CB OVC100 M29/M32 Q1034 NOSIG RMK QFE744 SC045;EQDQ01+000003PRSWM1Q02    003PRSWM1
0140298460999992000010303004+53730+087180FM-12+0308UNWW V0202401N006010300019N0040001N1-03051-03341103711ADDAY181031AY221031GF108991021051008001051999MD1210261+9999MW1261REMSYN066AAXX  03031 29846 41596 82406 11305 21334 40371 52026 72682 8255/;
0183298460999992000010304004+53730+087180FM-15+0308UNWW V0202101N003010390019N0070001N1-03101-03301999999ADDGA1081+039009999GF108991999999999999999999MA1103691999999MW1101REMMET073UNWW 030400Z 21003MPS 7000 BR OVC130 M31/M33 Q1037 NOSIG RMK QFE745 SC04;EQDQ01+000003PRSWM1Q02    003PRSWM1
0165298460999992000010305004+53730+087180FM-15+0308UNWW V0202001N005010390019N0112651N1-03101-03301999999ADDGA1081+039009999GF108991999999999999999999MA1103791999999MW1001REMMET071UNWW 030500Z 20005MPS 9999 OVC130 M31/M33 Q10380 NOSIG RMK QFE745 SC04;EQDQ01+000000PRSWM2
0261298460999992000010306004+53730+087180SY-MT+0308UNWW V0202001N00501220001CN0100001N1-03131-03501104001ADDAY181061AY221061GF108991031001999999051011MA1104001999999MD1210271+9999MW1021REMSYN066AAXX  03061 29846 41997 82005 11313 21350 40400 52027 70282 83051;MET065UNWW 030600Z 19005MPS CAVOK M31/M35 Q1040 NOSIG RMK QFE747 SC045;EQDQ01+000000PRSWM2Q02    003PRSWM1
0117298460999992000010307004+53730+087180FM-15+0308UNWW V0202001N00401220001CN0099001N1-03201-03501999999ADDMA1104001999999MW1001REMMET065UNWW 030700Z 20004MPS CAVOK M32/M35 Q1040 NOSIG RMK QFE747 SC045;EQDQ01+000000PRSWM2
0117298460999992000010308004+53730+087180FM-15+0308UNWW V0201901N00301220001CN0099001N1-03201-03501999999ADDMA1104001999999MW1001REMMET065UNWW 030800Z 19003MPS CAVOK M32/M35 Q1040 NOSIG RMK QFE747 SC045;EQDQ01+000000PRSWM2
0268298460999992000010309004+53730+087180SY-MT+0308UNWW V0202001N00601030001CN0100001N1-03101-03471104131ADDGA1021+009909999GA2081+030009999GF108991041001999999031011MA1104101999999MD1210131+9999MW1001REMSYN060AAXX  03091 29846 42997 82006 11310 21347 40413 52013 84031;MET078UNWW 030900Z 21005MPS 9999 SCT033 OVC100 M31/M35 Q1041 NOSIG RMK QFE748 SC045;EQDQ01+000000PRSWM2
0208298460999992000010310004+53730+087180FM-15+0308UNWW V0202001N005010300019N0070001N1-03101-03501999999ADDGA1021+009909999GA2081+030009999GF108991999999999999999999MA1104101999999MW1711REMMET082UNWW 031000Z 20005MPS 7000 -SN SCT033 OVC100 M31/M35 Q1041 NOSIG RMK QFE748 SC045;EQDQ01+000003PRSWM1Q02    003PRSWM1
0208298460999992000010311004+53730+087180FM-15+0308UNWW V0202101N003010300019N0112651N1-03101-03501999999ADDGA1021+009909999GA2081+030009999GF108991999999999999999999MA1104201999999MW1711REMMET082UNWW 031100Z 21003MPS 9999 -SN SCT033 OVC100 M31/M35 Q1042 NOSIG RMK QFE749 SC045;EQDQ01+000003PRSWM1Q02    003PRSWM1
0201298460999992000010312004+53730+087180FM-12+0308UNWW V0202201N002010300019N0100001N1-03121-03421104331ADDAA112000791AY171061AY221061GF108991031051012501071999KA1999M-02781MA1999999099911MD1210201+9999MW1711REMSYN088AAXX  03121 29846 11697 82202 11312 21342 39991 40433 52020 69902 77172 8357/ 333 11278;
0208298460999992000010313004+53730+087180FM-15+0308UNWW V0202001N002010300019N0112651N1-03101-03401999999ADDGA1021+009909999GA2081+030009999GF108991999999999999999999MA1104301999999MW1711REMMET082UNWW 031300Z 20002MPS 9999 -SN SCT033 OVC100 M31/M34 Q1043 NOSIG RMK QFE749 SC045;EQDQ01+000003PRSWM1Q02    003PRSWM1
0208298460999992000010314004+53730+087180FM-15+0308UNWW V0202201N002010300019N0112651N1-03201-03501999999ADDGA1021+009909999GA2081+030009999GF108991999999999999999999MA1104301999999MW1711REMMET082UNWW 031400Z 22002MPS 9999 -SN SCT033 OVC100 M32/M35 Q1043 NOSIG RMK QFE750 SC045;EQDQ01+000003PRSWM1Q02    003PRSWM1
0294298460999992000010315004+53730+087180SY-MT+0308UNWW V0202101N002010300019N0100001N1-03181-03471104481ADDAY171031AY271031GA1021+009909999GA2081+030009999GF108991021051012501071999MA1104401999999MD1210121+9999MW1711REMSYN066AAXX  03151 29846 41697 82102 11318 21347 40448 52012 77177 8257/;MET082UNWW 031500Z 21001MPS 9999 -SN SCT033 OVC100 M32/M35 Q1044 NOSIG RMK QFE750 SC045;EQDQ01    003PRSWM1
0208298460999992000010316004+53730+087180FM-15+0308UNWW V0209999C000010300019N0112651N1-03201-03501999999ADDGA1021+009909999GA2081+030009999GF108991999999999999999999MA1104501999999MW1711REMMET082UNWW 031600Z 00000MPS 9999 -SN SCT033 OVC100 M32/M35 Q1045 NOSIG RMK QFE750 SC045;EQDQ01+000003PRSWM1Q02    003PRSWM1
0188298460999992000010317004+53730+087180FM-15+0308UNWW V0201701N001010300019N0112651N1-03201-03501999999ADDGA1021+009909999GA2081+030009999GF108991999999999999999999MA1104501999999MW1001REMMET078UNWW 031700Z 17001MPS 9999 SCT033 OVC100 M32/M35 Q1045 NOSIG RMK QFE751 SC045;EQDQ01+000000PRSWM2
0306298460999992000010318004+53730+087180SY-MT+0308UNWW V0201701N002010300019N0100001N1-03241-03551104591ADDAY171061AY221061GA1021+009909999GA2081+030009999GF108991021051012501071999MA1104501999999MD1210111+9999MW1021REMSYN066AAXX  03181 29846 41697 81702 11324 21355 40459 52011 70272 8257/;MET078UNWW 031800Z 17001MPS 9999 SCT033 OVC100 M32/M36 Q1045 NOSIG RMK QFE751 SC045;EQDQ01+000000PRSWM2Q02    003PRSWM1
0208298460999992000010319004+53730+087180FM-15+0308UNWW V0209999C000010300019N0112651N1-03201-03601999999ADDGA1021+009909999GA2081+030009999GF108991999999999999999999MA1104611999999MW1711REMMET082UNWW 031900Z 00000MPS 9999 -SN SCT033 OVC100 M32/M36 Q1046 NOSIG RMK QFE751 SC045;EQDQ01+000003PRSWM1Q02    003PRSWM1
0208298460999992000010320004+53730+087180FM-15+0308UNWW V0209999C000010300019N0112651N1-03301-03601999999ADDGA1021+009909999GA2081+030009999GF108991999999999999999999MA1104611999999MW1711REMMET082UNWW 032000Z 00000MPS 9999 -SN SCT033 OVC100 M33/M36 Q1046 NOSIG RMK QFE751 SC045;EQDQ01+000003PRSWM1Q02    003PRSWM1
0140298460999992000010321004+53730+087180FM-12+0308UNWW V0209999C000010300019N0100001N1-03261-03551104721ADDAY171031AY221031GF108991021051012501071999MD1210101+9999MW1711REMSYN066AAXX  03211 29846 41697 80000 11326 21355 40472 52010 77172 8257/;
0165298460999992000010322004+53730+087180FM-15+0308UNWW V0201401N001010300019N0112651N1-03301-03601999999ADDGA1071+030009999GF107991999999999999999999MA1104711999999MW1001REMMET071UNWW 032200Z 14001MPS 9999 BKN100 M33/M36 Q1047 NOSIG RMK QFE752 SC045;EQDQ01+000000PRSWM2
0165298460999992000010323004+53730+087180FM-15+0308UNWW V0209999C000010300019N0112651N1-03401-03601999999ADDGA1071+030009999GF107991999999999999999999MA1104711999999MW1001REMMET071UNWW 032300Z 00000MPS 9999 BKN100 M34/M36 Q1047 NOSIG RMK QFE752 SC045;EQDQ01+000000PRSWM2
0357298460999992000010400004+53730+087180SY-MT+0308UNWW V0201901N00201030001CN0100001N1-03461-03671104901ADDAA112000791AY171061AY221061GA1071+030009999GF199999031001999999031011IA1239KA1120N-03461MA1104911100371MD1210131+9999MW1021REMSYN094AAXX  04001 29846 11997 61902 11346 21367 30037 40490 52013 69902 70272 83031 333 21346 47014;MET071UNWW 040000Z 20003MPS 9999 BKN100 M35/M37 Q1049 NOSIG RMK QFE753 SC045;EQDQ01+000062SCOTCVQ02+000000PRSWM2Q03    003PRSWM1
0185298460999992000010401004+53730+087180FM-15+0308UNWW V0201701N002010300019N0112651N1-03501-03701999999ADDGA1081+030009999GF108991999999999999999999MA1104911999999MW1711REMMET075UNWW 040100Z 17002MPS 9999 -SN OVC100 M35/M37 Q1049 NOSIG RMK QFE753 SC045;EQDQ01+000003PRSWM1Q02    003PRSWM1
0165298460999992000010402004+53730+087180FM-15+0308UNWW V0201601N002010300019N0112651N1-03501-03701999999ADDGA1081+030009999GF108991999999999999999999MA1104911999999MW1001REMMET071UNWW 040200Z 16002MPS 9999 OVC100 M35/M37 Q1049 NOSIG RMK QFE753 SC045;EQDQ01+000000PRSWM2
0283298460999992000010403004+53730+087180SY-MT+0308UNWW V0201701N00201030001CN0100001N1-03571-03801105131ADDAY171031AY221031GA1081+030009999GF108991031001999999031011MA1105111999999MD1210201+9999MW1021REMSYN066AAXX  04031 29846 41997 81702 11357 21380 40513 52020 70272 83031;MET071UNWW 040300Z 16002MPS 9999 OVC100 M36/M38 Q1051 NOSIG RMK QFE754 SC045;EQDQ01+000000PRSWM2Q02    003PRSWM1
0165298460999992000010404004+53730+087180FM-15+0308UNWW V0201401N002010300019N0112651N1-03601-03801999999ADDGA1081+030009999GF108991999999999999999999MA1105111999999MW1001REMMET071UNWW 040400Z 14002MPS 9999 OVC100 M36/M38 Q1051 NOSIG RMK QFE754 SC045;EQDQ01+000000PRSWM2
0165298460999992000010405004+53730+087180FM-15+0308UNWW V0201501N002010300019N0112651N1-03401-03701999999ADDGA1071+030009999GF107991999999999999999999MA1105111999999MW1001REMMET071UNWW 040500Z 15002MPS 9999 BKN100 M34/M37 Q1051 NOSIG RMK QFE754 SC045;EQDQ01+000000PRSWM2
0357298460999992000010406004+53730+087180SY-MT+0308UNWW V0201901N002010300019N0100001N1-03461-03671104901ADDAA112000791AY171061AY221061GA1071+030009999GF199999031001999999999011IA1239KA1120N-03461MA1105111100371MD1210131+9999MW1021REMSYN094AAXX  04061 29846 11997 61902 11346 21367 30037 40490 52013 69902 70272 830/1 333 21346 47014;MET071UNWW 040600Z 15003MPS 9999 BKN100 M34/M37 Q1051 NOSIG RMK QFE755 SC045;EQDQ01+000062SCOTCVQ02+000000PRSWM2Q03    003PRSWM1
0165298460999992000010407004+53730+087180FM-15+0308UNWW V0201501N003010300019N0112651N1-03301-03601999999ADDGA1071+030009999GF107991999999999999999999MA1105111999999MW1001REMMET071UNWW 040700Z 15003MPS 9999 BKN100 M33/M36 Q1051 NOSIG RMK QFE755 SC045;EQDQ01+000000PRSWM2
0165298460999992000010408004+53730+087180FM-15+0308UNWW V0201501N003010600019N0112651N1-03301-03501999999ADDGA1071+060009999GF107991999999999999999999MA1105111999999MW1001REMMET071UNWW 040800Z 15003MPS 9999 BKN200 M33/M35 Q1051 NOSIG RMK QFE755 SC045;EQDQ01+000000PRSWM2
0223298460999992000010409004+53730+087180SY-MT+0308UNWW V0201701N003012200019N0100001N1-03211-03501105261ADDGF103991001001999999001011MA1105221999999MD1210111+9999MW1001REMSYN060AAXX  04091 29846 42997 31703 11321 21350 40526 52011 80001;MET065UNWW 040900Z 17002MPS CAVOK M32/M35 Q1052 NOSIG RMK QFE756 SC045;EQDQ01+000000PRSWM2
0117298460999992000010410004+53730+087180FM-15+0308UNWW V0201701N00301220001CN0099001N1-03201-03501999999ADDMA1105221999999MW1001REMMET065UNWW 041000Z 17003MPS CAVOK M32/M35 Q1052 NOSIG RMK QFE756 SC045;EQDQ01+000000PRSWM2
0117298460999992000010411004+53730+087180FM-15+0308UNWW V0201801N00301220001CN0099001N1-03301-03601999999ADDMA1105221999999MW1001REMMET065UNWW 041100Z 18003MPS CAVOK M33/M36 Q1052 NOSIG RMK QFE756 SC045;EQDQ01+000000PRSWM2
0307298460999992000010412004+53730+087180SY-MT+0308UNWW V0201801N003019999999N0100001N1-03281-03511105401ADDAA112000791AY171061AY211061GF106991001001999999001011KA1999M-03211MA1105381100891MD1210121+9999MW1021REMSYN088AAXX  04121 29846 11997 61803 11328 21351 30089 40540 52012 69902 70271 80001 333 11321;MET065UNWW 041200Z 19002MPS CAVOK M33/M35 Q1054 NOSIG RMK QFE756 SC045;EQDQ01+000000PRSWM2Q02    003PRSWM1
0185298460999992000010413004+53730+087180FM-15+0308UNWW V0202001N001010390019N0112651N1-03301-03501999999ADDGA1081+039009999GF108991999999999999999999MA1105381999999MW1711REMMET075UNWW 041300Z 20001MPS 9999 -SN OVC130 M33/M35 Q1054 NOSIG RMK QFE757 SC045;EQDQ01+000003PRSWM1Q02    003PRSWM1
0185298460999992000010414004+53730+087180FM-15+0308UNWW V0201501N001010390019N0112651N1-03301-03501999999ADDGA1081+039009999GF108991999999999999999999MA1105381999999MW1711REMMET075UNWW 041400Z 15001MPS 9999 -SN OVC130 M33/M35 Q1054 NOSIG RMK QFE757 SC045;EQDQ01+000003PRSWM1Q02    003PRSWM1
0271298460999992000010415004+53730+087180SY-MT+0308UNWW V0201701N00301039001CN0100001N1-03341-03561105391ADDAY171031AY221031GA1081+039009999GF108991081001999999021999MA1105321999999MD1810011+9999MW1711REMSYN066AAXX  04151 29846 41997 81703 11334 21356 40539 58001 77172 8802/;MET075UNWW 041500Z 17003MPS 9999 -SN OVC130 M33/M36 Q1053 NOSIG RMK QFE756 SC045;EQDQ01    003PRSWM1
0185298460999992000010416004+53730+087180FM-15+0308UNWW V0201601N002010390019N0112651N1-03301-03601999999ADDGA1081+039009999GF108991999999999999999999MA1105321999999MW1711REMMET075UNWW 041600Z 16002MPS 9999 -SN OVC130 M33/M36 Q1053 NOSIG RMK QFE756 SC045;EQDQ01+000003PRSWM1Q02    003PRSWM1
0165298460999992000010417004+53730+087180FM-15+0308UNWW V0201501N002010300019N0112651N1-03401-03601999999ADDGA1081+030009999GF108991999999999999999999MA1105321999999MW1001REMMET071UNWW 041700Z 15002MPS 9999 OVC100 M34/M36 Q1053 NOSIG RMK QFE756 SC045;EQDQ01+000000PRSWM2
0283298460999992000010418004+53730+087180SY-MT+0308UNWW V0201401N00301030001CN0100001N1-03401-03611105331ADDAY171061AY221061GA1081+030009999GF108991031001999999031011MA1105321999999MD1710081+9999MW1021REMSYN066AAXX  04181 29846 41997 81403 11340 21361 40533 57008 70272 83031;MET071UNWW 041800Z 16002MPS 9999 OVC100 M34/M36 Q1053 NOSIG RMK QFE756 SC045;EQDQ01+000000PRSWM2Q02    003PRSWM1
0165298460999992000010420004+53730+087180FM-15+0308UNWW V0201401N001010300019N0112651N1-03401-03601999999ADDGA1081+030009999GF108991999999999999999999MA1105221999999MW1001REMMET071UNWW 042000Z 14001MPS 9999 OVC100 M34/M36 Q1052 NOSIG RMK QFE755 SC045;EQDQ01+000000PRSWM2
0271298460999992000010421004+53730+087180SY-MT+0308UNWW V0201301N001010300019N0100001N1-03421-03641105191ADDAY171031AY221031GA1081+030009999GF108991081001999999071999MA1105111999999MD1710131+9999MW1711REMSYN066AAXX  04211 29846 41997 81301 11342 21364 40519 57013 77172 8807/;MET075UNWW 042100Z 13001MPS 9999 -SN OVC100 M34/M36 Q1051 NOSIG RMK QFE755 SC045;EQDQ01    003PRSWM1
0185298460999992000010422004+53730+087180FM-15+0308UNWW V0201301N001010300019N0112651N1-03401-03701999999ADDGA1081+030009999GF108991999999999999999999MA1105111999999MW1711REMMET075UNWW 042200Z 13001MPS 9999 -SN OVC100 M34/M37 Q1051 NOSIG RMK QFE754 SC045;EQDQ01+000003PRSWM1Q02    003PRSWM1
0185298460999992000010423004+53730+087180FM-15+0308UNWW V0209999C000010300019N0112651N1-03501-03601999999ADDGA1081+030009999GF108991999999999999999999MA1105111999999MW1711REMMET075UNWW 042300Z 00000MPS 9999 -SN OVC100 M35/M36 Q1051 NOSIG RMK QFE754 SC045;EQDQ01+000003PRSWM1Q02    003PRSWM1
0329298460999992000010500004+53730+087180SY-MT+0308UNWW V0209999C000010300019N0100001N1-03411-03641105081ADDAA112000391AY171061AY221061GA1081+030009999GF108991081001999999071999IA1239KA1120N-03451MA1105011100561MD1710111+9999MW1711REMSYN094AAXX  05001 29846 11997 80000 11341 21364 30056 40508 57011 69932 77172 8807/ 333 21345 47017;MET075UNWW 050000Z 00000MPS 9999 -SN OVC100 M34/M36 Q1050 NOSIG RMK QFE754 SC045;EQDQ01    003PRSWM1
0193298460999992000010502004+53730+087180FM-15+0308UNWW V0209999C000010300019N0040001N1-03401-03701999999ADDGA1081+030009999GF108991999999999999999999MA1105011999999MW1101MW2711REMMET077UNWW 050200Z 00000MPS 4000 BR-SN OVC100 M34/M37 Q1050 NOSIG RMK QFE753 SC045;EQDQ01+000003PRSWM1Q02    003PRSWM1
0276298460999992000010503004+53730+087180SY-MT+0308UNWW V0209999C00001030001CN0020001N1-03501-03671104961ADDAY171031AY221031GA1081+030009999GF108991041001999999031011MA1104911999999MD1710131+9999MW1101MW2221REMSYN066AAXX  05031 29846 41995 80000 11350 21367 40496 57013 72272 84031;MET074UNWW 050300Z 00000MPS 2500 BR OVC100 M35/M37 Q1049 NOSIG RMK QFE753 SC045;EQDQ01    003PRSWM1
0184298460999992000010504004+53730+087180FM-15+0308UNWW V0209999C000010390019N0025001N1-03501-03701999999ADDGA1081+039009999GF108991999999999999999999MA1104911999999MW1101REMMET074UNWW 050400Z 00000MPS 2500 BR OVC130 M35/M37 Q1049 NOSIG RMK QFE753 SC045;EQDQ01+000003PRSWM1Q02    003PRSWM1
0184298460999992000010505004+53730+087180FM-15+0308UNWW V0209999C000010390019N0025001N1-03501-03701999999ADDGA1081+039009999GF108991999999999999999999MA1104811999999MW1101REMMET074UNWW 050500Z 00000MPS 2500 BR OVC130 M35/M37 Q1048 NOSIG RMK QFE752 SC045;EQDQ01+000003PRSWM1Q02    003PRSWM1
0286298460999992000010506004+53730+087180SY-MT+0308UNWW V0209999C000019999999N0020001N1-03471-03701104681ADDAY171061AY211061GA1071+039009999GF104991001001999999001011MA1104611999999MD1710271+9999MW1101REMSYN066AAXX  05061 29846 41995 40000 11347 21370 40468 57027 71071 80001;MET074UNWW 050600Z 00000MPS 2500 BR BKN130 M35/M37 Q1046 NOSIG RMK QFE751 SC045;EQDQ01 039003SCOCIGQ02    003PRSWM1
0184298460999992000010507004+53730+087180FM-15+0308UNWW V0209999C000012200019N0025001N1-03501-03701999999ADDGA1021+039009999GF104991999999999999999999MA1104611999999MW1101REMMET074UNWW 050700Z 00000MPS 2500 BR SCT130 M35/M37 Q1046 NOSIG RMK QFE751 SC045;EQDQ01+000003PRSWM1Q02    003PRSWM1
0271298460999992000010509004+53730+087180SY-MT+0308UNWW V0209999C000012200019N0020001N1-03061-03361104431ADDAY101031AY201031GA1021+039009999GF102991001001999999001011MA1104401999999MD1710161+9999MW1101REMSYN066AAXX  05091 29846 41995 20000 11306 21336 40443 57016 71000 80001;MET075UNWW 050900Z 000000MPS 2500 BR SCT130 M31/M34 Q1044 NOSIG RMK QFE750 SC045;EQDQ01    003PRSWM1
0184298460999992000010510004+53730+087180FM-15+0308UNWW V0209999C000012200019N0025001N1-03201-03501999999ADDGA1021+039009999GF104991999999999999999999MA1104401999999MW1101REMMET074UNWW 051000Z 00000MPS 2500 BR SCT130 M32/M35 Q1044 NOSIG RMK QFE750 SC045;EQDQ01+000003PRSWM1Q02    003PRSWM1
0184298460999992000010511004+53730+087180FM-15+0308UNWW V0203401N002012200019N0025001N1-03301-03501999999ADDGA1021+039009999GF104991999999999999999999MA1104401999999MW1101REMMET074UNWW 051100Z 34002MPS 2500 BR SCT130 M33/M35 Q1044 NOSIG RMK QFE749 SC045;EQDQ01+000003PRSWM1Q02    003PRSWM1
0316298460999992000010512004+53730+087180SY-MT+0308UNWW V0209999C000012200019N0020001N1-03241-03551104271ADDAA112000791AY101061AY201061GA1021+039009999GF102991001001999999001011KA1999M-03061MA1104201099831MD1710171+9999MW1101REMSYN088AAXX  05121 29846 11995 20000 11324 21355 39983 40427 57017 69902 71000 80001 333 11306;MET074UNWW 051200Z 00000MPS 2500 BR SCT130 M33/M35 Q1042 NOSIG RMK QFE748 SC045;EQDQ01    003PRSWM1
0184298460999992000010513004+53730+087180FM-15+0308UNWW V0209999C000012200019N0025001N1-03301-03501999999ADDGA1021+039009999GF104991999999999999999999MA1104201999999MW1101REMMET074UNWW 051300Z 00000MPS 2500 BR SCT130 M33/M35 Q1042 NOSIG RMK QFE748 SC045;EQDQ01+000003PRSWM1Q02    003PRSWM1
0184298460999992000010514004+53730+087180FM-15+0308UNWW V0209999C000012200019N0025001N1-03301-03501999999ADDGA1021+039009999GF104991999999999999999999MA1104201999999MW1101REMMET074UNWW 051400Z 00000MPS 2500 BR SCT130 M33/M35 Q1042 NOSIG RMK QFE748 SC045;EQDQ01+000003PRSWM1Q02    003PRSWM1
0184298460999992000010515004+53730+087180FM-15+0308UNWW V0209999C000012200019N0025001N1-03401-03601999999ADDGA1021+039009999GF104991999999999999999999MA1104101999999MW1101REMMET074UNWW 051500Z 00000MPS 2500 BR SCT130 M34/M36 Q1041 NOSIG RMK QFE747 SC045;EQDQ01+000003PRSWM1Q02    003PRSWM1
0184298460999992000010516004+53730+087180FM-15+0308UNWW V0209999C000012200019N0025001N1-03401-03601999999ADDGA1021+039009999GF104991999999999999999999MA1104101999999MW1101REMMET074UNWW 051600Z 00000MPS 2500 BR SCT130 M34/M36 Q1041 NOSIG RMK QFE746 SC045;EQDQ01+000003PRSWM1Q02    003PRSWM1
0184298460999992000010517004+53730+087180FM-15+0308UNWW V0209999C000012200019N0025001N1-03401-03601999999ADDGA1021+039009999GF104991999999999999999999MA1103891999999MW1101REMMET074UNWW 051700Z 00000MPS 2500 BR SCT130 M34/M36 Q1039 NOSIG RMK QFE745 SC045;EQDQ01+000003PRSWM1Q02    003PRSWM1
0270298460999992000010518004+53730+087180SY-MT+0308UNWW V0209999C000012200019N0020001N1-03361-03591103801ADDAY101061AY201061GA1021+039009999GF102991001001999999001011MA1103791999999MD1710291+9999MW1101REMSYN066AAXX  05181 29846 41995 20000 11336 21359 40380 57029 71000 80001;MET074UNWW 051800Z 00000MPS 2500 BR SCT130 M34/M36 Q1038 NOSIG RMK QFE745 SC045;EQDQ01    003PRSWM1
0184298460999992000010519004+53730+087180FM-15+0308UNWW V0209999C000012200019N0025001N1-03301-03601999999ADDGA1021+039009999GF104991999999999999999999MA1103591999999MW1101REMMET074UNWW 051900Z 00000MPS 2500 BR SCT130 M33/M36 Q1036 NOSIG RMK QFE744 SC045;EQDQ01+000003PRSWM1Q02    003PRSWM1
0270298460999992000010521004+53730+087180SY-MT+0308UNWW V0209999C00001039001CN0020001N1-03241-03481103431ADDAY111031AY211031GA1081+039009999GF108991031001999999031011MA1103391999999MD1710321+9999MW1101REMSYN066AAXX  05211 29846 41995 80000 11324 21348 40343 57032 71011 83031;MET074UNWW 052100Z 00000MPS 2500 BR OVC130 M32/M35 Q1034 NOSIG RMK QFE742 SC045;EQDQ01    003PRSWM1
0184298460999992000010522004+53730+087180FM-15+0308UNWW V0209999C000010390019N0025001N1-03201-03501999999ADDGA1081+039009999GF108991999999999999999999MA1103391999999MW1101REMMET074UNWW 052200Z 00000MPS 2500 BR OVC130 M32/M35 Q1034 NOSIG RMK QFE742 SC045;EQDQ01+000003PRSWM1Q02    003PRSWM1
0184298460999992000010601004+53730+087180FM-15+0308UNWW V0209999C000010390019N0025001N1-03001-03301999999ADDGA1081+039009999GF108991999999999999999999MA1103011999999MW1101REMMET074UNWW 060100Z 00000MPS 2500 BR OVC130 M30/M33 Q1030 NOSIG RMK QFE740 SC045;EQDQ01+000003PRSWM1Q02    003PRSWM1
0184298460999992000010602004+53730+087180FM-15+0308UNWW V0209999C000010390019N0025001N1-03001-03201999999ADDGA1081+039009999GF108991999999999999999999MA1103011999999MW1101REMMET074UNWW 060200Z 00000MPS 2500 BR OVC130 M30/M32 Q1030 NOSIG RMK QFE739 SC045;EQDQ01+000003PRSWM1Q02    003PRSWM1
0270298460999992000010603004+53730+087180SY-MT+0308UNWW V0209999C000010300019N0020001N1-02771-02941102671ADDAY121031AY221031GA1081+030009999GF108991051001999999031011MA1102611999999MD1710351+9999MW1101REMSYN066AAXX  06031 29846 41995 80000 11277 21294 40267 57035 71022 85031;MET074UNWW 060300Z 00000MPS 2500 BR OVC100 M28/M29 Q1026 NOSIG RMK QFE738 SC045;EQDQ01    003PRSWM1
0184298460999992000010604004+53730+087180FM-15+0308UNWW V0209999C000010300019N0025001N1-02701-02901999999ADDGA1081+030009999GF108991999999999999999999MA1102511999999MW1101REMMET074UNWW 060400Z 00000MPS 2500 BR OVC100 M27/M29 Q1025 NOSIG RMK QFE737 SC045;EQDQ01+000003PRSWM1Q02    003PRSWM1
0184298460999992000010605004+53730+087180FM-15+0308UNWW V0209999C000010300019N0025001N1-02601-02801999999ADDGA1081+030009999GF108991999999999999999999MA1102401999999MW1101REMMET074UNWW 060500Z 00000MPS 2500 BR OVC100 M26/M28 Q1024 NOSIG RMK QFE736 SC045;EQDQ01+000003PRSWM1Q02    003PRSWM1
0293298460999992000010606004+53730+087180SY-MT+0308UNWW V0209999C000010300019N0020001N1-02461-02701102281ADDAY181061AY221061GA1021+009009099GA2081+030009999GF108991031091012501051999MD1710321+9999MW1101MW2851REMSYN066AAXX  06061 29846 41695 80000 11246 21270 40228 57032 78582 8395/;MET090UNWW 060600Z 00000MPS 2500 BR -SHSN SCT030CB OVC100 M25/M27 Q1 022 NOSIG RMK QFE735 SC045;EQDQ01    003PRSWM1
0207298460999992000010607004+53730+087180FM-15+0308UNWW V0203501N001010300019N0025001N1-02401-02701999999ADDGA1021+009009099GA2081+030009999GF108991999999999999999999MW1101MW2851REMMET090UNWW 060700Z 35001MPS 2500 BR -SHSN SCT030CB OVC100 M24/M27 Q1 021 NOSIG RMK QFE735 SC045;EQDQ01+000003PRSWM1Q02    003PRSWM1
0212298460999992000010608004+53730+087180FM-15+0308UNWW V0203501N002010300019N0025001N1-02301-02501999999ADDGA1021+009009099GA2081+030009999GF108991999999999999999999MA1102001999999MW1851REMMET086UNWW 060800Z 35002MPS 2500 -SHSN SCT030CB OVC100 M23/M25 Q1020 NOSIG RMK QFE734 SC045;EQDQ01+000003PRSWM1Q02    003PRSWM1
0297298460999992000010609004+53730+087180SY-MT+0308UNWW V0203301N003010300019N0020001N1-02261-02511102081ADDAY181031AY221031GA1021+009009099GA2081+030009999GF108991021091008001051999MA1102001999999MD1710161+9999MW1851REMSYN066AAXX  06091 29846 41595 83303 11226 21251 40208 57016 78582 8295/;MET085UNWW 060900Z 34003MPS 2500 -SHSN SCT030CB OVC100 M23/M25 Q1020 NOSIG RMK QFE734 SC05;EQDQ01    003PRSWM1
0211298460999992000010610004+53730+087180FM-15+0308UNWW V0203401N002010300019N0025001N1-02201-02501999999ADDGA1021+009009099GA2081+030009999GF108991999999999999999999MA1102001999999MW1851REMMET085UNWW 061000Z 34002MPS 2500 -SHSN SCT030CB OVC100 M22/M25 Q1020 NOSIG RMK QFE734 SC05;EQDQ01+000003PRSWM1Q02    003PRSWM1
0211298460999992000010611004+53730+087180FM-15+0308UNWW V0203601N002010300019N0025001N1-02201-02501999999ADDGA1021+009009099GA2081+030009999GF108991999999999999999999MA1102001999999MW1851REMMET085UNWW 061100Z 36002MPS 2500 -SHSN SCT030CB OVC100 M22/M25 Q1020 NOSIG RMK QFE734 SC05;EQDQ01+000003PRSWM1Q02    003PRSWM1
0349298460999992000010612004+53730+087180SY-MT+0308UNWW V0203601N002010054019N0020001N1-02141-02331101951ADDAA112001091AY181061AY281061GA1071+005409099GA2081+030009999GF108991061091004501051999KA1120M-02141MA1101901097791MD1710091+9999MW1851REMSYN094AAXX  06121 29846 11495 83602 11214 21233 39779 40195 57009 69992 78588 8695/ 333 11214 86918;MET085UNWW 061200Z 02002MPS 2500 -SHSN BKN018CB OVC100 M21/M23 Q1019 NOSIG RMK QFE733 SC05;EQDQ01    003PRSWM1
0211298460999992000010613004+53730+087180FM-15+0308UNWW V0209999C000010060019N0025001N1-02101-02301999999ADDGA1071+006009099GA2081+030009999GF108991999999999999999999MA1101901999999MW1851REMMET085UNWW 061300Z 00000MPS 2500 -SHSN BKN020CB OVC100 M21/M23 Q1019 NOSIG RMK QFE733 SC05;EQDQ01+000003PRSWM1Q02    003PRSWM1
0212298460999992000010614004+53730+087180FM-15+0308UNWW V0203601N003010060019N0025001N1-02001-02201999999ADDGA1071+006009099GA2081+030009999GF108991999999999999999999MA1101901999999MW1851REMMET086UNWW 061400Z 36003MPS 2500 -SHSN BKN020CB OVC100 M20/M22 Q1019 NOSIG RMK QFE733 SC045;EQDQ01+000003PRSWM1Q02    003PRSWM1
0308298460999992000010615004+53730+087180SY-MT+0308UNWW V0203301N001010060019N0020001N1-02081-02261101831ADDAY181031AY281031GA1071+006009099GA2081+030009999GF108991061091999999051999MA1101801999999MD1710111+9999MW1851REMSYN076AAXX  06151 29846 41995 83301 11208 21226 40183 57011 78588 8695/ 333 86920;MET086UNWW 061500Z 33002MPS 2500 -SHSN BKN020CB OVC100 M21/M23 Q1018 NOSIG RMK QFE732 SC045;EQDQ01    003PRSWM1
0212298460999992000010616004+53730+087180FM-15+0308UNWW V0209999C000010060019N0025001N1-02001-02201999999ADDGA1071+006009099GA2081+030009999GF108991999999999999999999MA1101801999999MW1851REMMET086UNWW 061600Z 00000MPS 2500 -SHSN BKN020CB OVC100 M20/M22 Q1018 NOSIG RMK QFE732 SC045;EQDQ01+000003PRSWM1Q02    003PRSWM1
0212298460999992000010617004+53730+087180FM-15+0308UNWW V0203501N002010060019N0025001N1-02001-02201999999ADDGA1071+006009099GA2081+030009999GF108991999999999999999999MA1101801999999MW1851REMMET086UNWW 061700Z 35002MPS 2500 -SHSN BKN020CB OVC100 M20/M22 Q1018 NOSIG RMK QFE732 SC045;EQDQ01+000003PRSWM1Q02    003PRSWM1
0140298460999992000010618004+53730+087180FM-12+0308UNWW V0203501N003010075019N0020001N1-02061-02251101751ADDAY181061AY281061GF108991061091008001051999MD1710081+9999MW1851REMSYN066AAXX  06181 29846 41595 83503 11206 21225 40175 57008 78588 8695/;
0212298460999992000010620004+53730+087180FM-15+0308UNWW V0209999C000010057019N0025001N1-02101-02301999999ADDGA1071+005709099GA2081+030009999GF108991999999999999999999MA1101691999999MW1851REMMET086UNWW 062000Z 00000MPS 2500 -SHSN BKN019CB OVC100 M21/M23 Q1017 NOSIG RMK QFE732 SC045;EQDQ01+000003PRSWM1Q02    003PRSWM1
0308298460999992000010621004+53730+087180SY-MT+0308UNWW V0209999C000010057019N0020001N1-02071-02261101781ADDAY181031AY281031GA1071+005709099GA2081+030009999GF108991061091008001051999MA1101691999999MD1310031+9999MW1851REMSYN076AAXX  06211 29846 41595 80000 11207 21226 40178 53003 78588 8695/ 333 86919;MET086UNWW 062100Z 00000MPS 2500 -SHSN BKN019CB OVC100 M21/M23 Q1017 NOSIG RMK QFE732 SC045;EQDQ01    003PRSWM1
0212298460999992000010622004+53730+087180FM-15+0308UNWW V0209999C000010060019N0025001N1-02101-02301999999ADDGA1071+006009099GA2081+030009999GF108991999999999999999999MA1101691999999MW1851REMMET086UNWW 062200Z 00000MPS 2500 -SHSN BKN020CB OVC100 M21/M23 Q1017 NOSIG RMK QFE732 SC045;EQDQ01+000003PRSWM1Q02    003PRSWM1
0220298460999992000010623004+53730+087180FM-15+0308UNWW V0209999C000010063019N0025001N1-02001-02201999999ADDGA1071+006309099GA2081+030009999GF108991999999999999999999MA1101591999999MW1851REMMET094UNWW 062300Z 00000MPS 2500 -SHSN BKN021CB OVC100 M20/M22 Q1016 NOSIG RMK QFE731 SC032 032 033;EQDQ01+000003PRSWM1Q02    003PRSWM1
0387298460999992000010700004+53730+087180SY-MT+0308UNWW V0209999C000010075019N0020001N1-01871-02061101591ADDAA112001091AJ100179199999999AY181061AY281061GA1071+007509099GA2081+030009999GF108991051091008001051999IA1239KA1120N-02141MA1101491097481MD1810151+9999MW1851REMSYN100AAXX  07001 29846 11595 80000 11187 21206 39748 40159 58015 60012 78588 8595/ 333 21214 47017 85925;MET094UNWW 070000Z 00000MPS 2500 -SHSN BKN025CB OVC100 M19/M21 Q1015 NOSIG RMK QFE731 SC032 032 033;EQDQ01    003PRSWM1
0220298460999992000010701004+53730+087180FM-15+0308UNWW V0201601N001010300019N0025001N1-01701-01901999999ADDGA1021+007809099GA2081+030009999GF108991999999999999999999MA1101491999999MW1851REMMET094UNWW 070100Z 16001MPS 2500 -SHSN SCT026CB OVC100 M17/M19 Q1015 NOSIG RMK QFE731 SC032 032 033;EQDQ01+000003PRSWM1Q02    003PRSWM1
0220298460999992000010702004+53730+087180FM-15+0308UNWW V0201401N001010069019N0025001N1-01701-01901999999ADDGA1071+006909099GA2081+030009999GF108991999999999999999999MA1101491999999MW1851REMMET094UNWW 070200Z 14001MPS 2500 -SHSN BKN023CB OVC100 M17/M19 Q1015 NOSIG RMK QFE731 SC032 032 033;EQDQ01+000003PRSWM1Q02    003PRSWM1
0316298460999992000010703004+53730+087180SY-MT+0308UNWW V0201501N002010300019N0100001N1-01821-02011101571ADDAY181031AY221031GA1021+007809099GA2081+030009999GF108991031091008001051999MA1101491999999MD1410001+9999MW1261REMSYN066AAXX  07031 29846 41597 81502 11182 21201 40157 54000 72682 8395/;MET088UNWW 070300Z 11001MPS 9999 SCT026CB OVC100 M18/M20 Q1015 NOSIG RMK QFE731 SC032 032 033;EQDQ01+000000PRSWM2Q02    003PRSWM1
0220298460999992000010704004+53730+087180FM-15+0308UNWW V0201401N002010300019N0025001N1-01701-01801999999ADDGA1021+007809099GA2081+030009999GF108991999999999999999999MA1101491999999MW1851REMMET094UNWW 070400Z 14002MPS 2500 -SHSN SCT026CB OVC100 M17/M18 Q1015 NOSIG RMK QFE731 SC032 032 033;EQDQ01+000003PRSWM1Q02    003PRSWM1
0225298460999992000010705004+53730+087180FM-15+0308UNWW V0201301N004010300019N0070001N1-01601-01801999999ADDGA1021+007809999GA2081+030009999GF108991999999999999999999MA1101491999999MW1101MW2711REMMET093UNWW 070500Z 13004MPS 7000 -SN BR SCT026 OVC100 M16/M18 Q1015 NOSIG RMK QFE731 SC032 032 033;EQDQ01+000003PRSWM1Q02    003PRSWM1
0269298460999992000010706004+53730+087180SY-MT+0308UNWW V0201401N004019999999N0100001N1-01451-01651101471ADDAY181061AY271061GF108991051001999999031011MA1101391999999MD1810041+9999MW1221REMSYN066AAXX  07061 29846 41997 81404 11145 21165 40147 58004 72287 85031;MET073UNWW 070600Z 14003MPS CAVOK M15/M17 Q1014 NOSIG RMK QFE731 SC035 036 036;EQDQ01+000000PRSWM2Q02    003PRSWM1
0193298460999992000010707004+53730+087180FM-15+0308UNWW V0202101N004010300019N0070001N1-01401-01601999999ADDGA1081+030009999GF108991999999999999999999MA1101391999999MW1711REMMET083UNWW 070700Z 21004MPS 7000 -SN OVC100 M14/M16 Q1014 NOSIG RMK QFE731 SC035 036 036;EQDQ01+000003PRSWM1Q02    003PRSWM1
0242298460999992000010708004+53730+087180FM-15+0308UNWW V0202301N008010300019N0070001N1-01401-01601999999ADDGA1021+009009099GA2081+030009999GF108991999999999999999999MA1101491999999MW1361MW2851OC101301REMMET102UNWW 070800Z 23008G13MPS 7000 -SHSN DRSN SCT030CB OVC100 M14/M16 Q1015 NOSIG RMK QFE731 SC035 036 036;EQDQ01+000003PRSWM1Q02    003PRSWM1
0311298460999992000010709004+53730+087180SY-MT+0308UNWW V0202301N007010300019N0100001N1-01251-01521101531ADDAY181031AY271031GA1021+009009099GA2081+030009999GF108991031091008001051999MA1101491999999MD1310091+9999MW1851REMSYN066AAXX  07091 29846 41597 82307 11125 21152 40153 53009 78587 8395/;MET099UNWW 070900Z 21008MPS 9999 -SHSN DRSN SCT030CB OVC100 M13/M15 Q1015 NOSIG RMK QFE731 SC035 036 036;EQDQ01    003PRSWM1
0231298460999992000010710004+53730+087180FM-15+0308UNWW V0202301N009010300019N0112651N1-01501-01701999999ADDGA1021+009009099GA2081+030009999GF108991999999999999999999MA1101591999999MW1361MW2851REMMET099UNWW 071000Z 23009MPS 9999 -SHSN DRSN SCT030CB OVC100 M15/M17 Q1016 NOSIG RMK QFE732 SC045 045 045;EQDQ01+000003PRSWM1Q02    003PRSWM1
0242298460999992000010711004+53730+087180FM-15+0308UNWW V0202401N008010300019N0112651N1-01601-01901999999ADDGA1021+009009099GA2081+030009999GF108991999999999999999999MA1101691999999MW1361MW2851OC101301REMMET102UNWW 071100Z 24008G13MPS 9999 -SHSN DRSN SCT030CB OVC100 M16/M19 Q1017 NOSIG RMK QFE733 SC045 045 045;EQDQ01+000003PRSWM1Q02    003PRSWM1
0368298460999992000010712004+53730+087180SY-MT+0308UNWW V0202401N009010300019N0020001N1-01671-02011102041ADDAA112000391AY181061AY271061GA1021+009009099GA2081+030009999GF108991031091008001051999KA1999M-01251MA1101901097941MD1210411+9999MW1851OC101301REMSYN088AAXX  07121 29846 11595 82409 11167 21201 39794 40204 52041 69932 78587 8395/ 333 11125;MET102UNWW 071200Z 24008G13MPS 2500 -SHSN BLSN SCT030CB OVC100 M17/M20 Q1019 NOSIG RMK QFE734 SC045 045 045;EQDQ01    003PRSWM1
0242298460999992000010713004+53730+087180FM-15+0308UNWW V0202401N007010300019N0025001N1-01701-02101999999ADDGA1021+009009099GA2081+030009999GF108991999999999999999999MA1102101999999MW1381MW2851OC101201REMMET102UNWW 071300Z 24007G12MPS 2500 -SHSN BLSN SCT030CB OVC100 M17/M21 Q1021 NOSIG RMK QFE735 SC045 045 045;EQDQ01+000003PRSWM1Q02    003PRSWM1
0231298460999992000010714004+53730+087180FM-15+0308UNWW V0202301N008010300019N0112651N1-01801-02101999999ADDGA1021+009009099GA2081+030009999GF108991999999999999999999MA1102101999999MW1361MW2851REMMET099UNWW 071400Z 23008MPS 9999 -SHSN DRSN SCT030CB OVC100 M18/M21 Q1021 NOSIG RMK QFE735 SC045 045 045;EQDQ01+000003PRSWM1Q02    003PRSWM1
0306298460999992000010715004+53730+087180SY-MT+0308UNWW V0202301N006010300019N0100001N1-01991-02321102371ADDAY181031AY231031GA1021+009009099GA2081+030009999GF108991031091008001051999MA1102301999999MD1210271+9999MW1851REMSYN066AAXX  07151 29846 41597 82306 11199 21232 40237 52027 78583 8395/;MET094UNWW 071500Z 21003MPS 9999 -SHSN SCT030CB OVC100 M20/M23 Q1023 NOSIG RMK QFE736 SC045 045 045;EQDQ01    003PRSWM1
0220298460999992000010716004+53730+087180FM-15+0308UNWW V0202301N005010300019N0112651N1-02001-02301999999ADDGA1021+009009099GA2081+030009999GF108991999999999999999999MA1102401999999MW1851REMMET094UNWW 071600Z 23005MPS 9999 -SHSN SCT030CB OVC100 M20/M23 Q1024 NOSIG RMK QFE737 SC045 045 045;EQDQ01+000003PRSWM1Q02    003PRSWM1
0220298460999992000010717004+53730+087180FM-15+0308UNWW V0202401N005010300019N0112651N1-02001-02301999999ADDGA1021+009009099GA2081+030009999GF108991999999999999999999MA1102401999999MW1851REMMET094UNWW 071700Z 24005MPS 9999 -SHSN SCT030CB OVC100 M20/M23 Q1024 NOSIG RMK QFE737 SC045 045 045;EQDQ01+000003PRSWM1Q02    003PRSWM1
0316298460999992000010718004+53730+087180SY-MT+0308UNWW V0202401N005010063019N0100001N1-02081-02411102591ADDAY181061AY231061GA1071+006309099GA2081+030009999GF108991051091008001051999MA1102511999999MD1210191+9999MW1851REMSYN076AAXX  07181 29846 41597 82405 11208 21241 40259 52019 78583 8595/ 333 85921;MET094UNWW 071800Z 25004MPS 9999 -SHSN BKN021CB OVC100 M21/M24 Q1025 NOSIG RMK QFE738 SC045 045 045;EQDQ01    003PRSWM1
0220298460999992000010719004+53730+087180FM-15+0308UNWW V0202101N004010066019N0112651N1-02201-02501999999ADDGA1071+006609099GA2081+030009999GF108991999999999999999999MA1102511999999MW1851REMMET094UNWW 071900Z 21004MPS 9999 -SHSN BKN022CB OVC100 M22/M25 Q1025 NOSIG RMK QFE738 SC045 045 045;EQDQ01+000003PRSWM1Q02    003PRSWM1
0198298460999992000010720004+53730+087180FM-15+0308UNWW V0202001N004010300019N0112651N1-02301-02601999999ADDGA1021+007809099GA2071+030009999GF107991999999999999999999MA1102611999999MW1001REMMET088UNWW 072000Z 20004MPS 9999 SCT026CB BKN100 M23/M26 Q1026 NOSIG RMK QFE739 SC045 045 045;EQDQ01+000000PRSWM2
0330298460999992000010721004+53730+087180SY-MT+0308UNWW V0202001N00401030001CN0100001N1-02361-02611102791ADDAY181031AY221031GA1021+009909999GA2071+030009999GF199999021051012501031011MA1102711999999MD1210151+9999MW1021REMSYN066AAXX  07211 29846 41697 52004 11236 21261 40279 52015 70282 82531;MET086UNWW 072100Z 21003MPS 9999 SCT033 BKN100 M24/M26 Q1027 NOSIG RMK QFE739 SC045 045 045;EQDQ01+000052SCOTCVQ02+000000PRSWM2Q03    003PRSWM1
0196298460999992000010722004+53730+087180FM-15+0308UNWW V0201901N004010300019N0112651N1-02401-02601999999ADDGA1021+009909999GA2071+030009999GF107991999999999999999999MA1102711999999MW1001REMMET086UNWW 072200Z 19004MPS 9999 SCT033 BKN100 M24/M26 Q1027 NOSIG RMK QFE739 SC045 045 045;EQDQ01+000000PRSWM2
0196298460999992000010723004+53730+087180FM-15+0308UNWW V0202001N004010300019N0112651N1-02401-02701999999ADDGA1021+009909999GA2071+030009999GF107991999999999999999999MA1102711999999MW1001REMMET086UNWW 072300Z 20004MPS 9999 SCT033 BKN100 M24/M27 Q1027 NOSIG RMK QFE739 SC045 045 045;EQDQ01+000000PRSWM2
0213298460999992000010800004+53730+087180FM-12+0308UNWW V0202001N003010300019N0100001N1-02421-02661102761ADDAA118000191AY181061AY221061GF106991021051012501031001IA1239KA1120N-02431MA1999999098521MD1810031+9999MW1021REMSYN094AAXX  08001 29846 11697 62003 11242 21266 39852 40276 58003 69923 70282 82530 333 21243 47018;
0207298460999992000010801004+53730+087180FM-15+0308UNWW V0201901N002010300019N0112651N1-02501-02701999999ADDGA1021+009909999GA2081+030009999GF108991999999999999999999MA1102711999999MW1711REMMET081UNWW 080100Z 19002MPS 9999 -SN SCT033 OVC100 M25/M27 Q1027 NOSIG RMK QFE739 SC05;EQDQ01+000003PRSWM1Q02    003PRSWM1
0207298460999992000010802004+53730+087180FM-15+0308UNWW V0201301N002010300019N0112651N1-02501-02701999999ADDGA1021+007809999GA2081+030009999GF108991999999999999999999MA1102711999999MW1711REMMET081UNWW 080200Z 13002MPS 9999 -SN SCT026 OVC100 M25/M27 Q1027 NOSIG RMK QFE739 SC05;EQDQ01+000003PRSWM1Q02    003PRSWM1
0140298460999992000010803004+53730+087180FM-12+0308UNWW V0201301N001010300019N0100001N1-02501-02741102731ADDAY171031AY221031GF108991021051012501051999MD1710051+9999MW1221REMSYN066AAXX  08031 29846 41697 81301 11250 21274 40273 57005 72272 8255/;
0117298460999992000010804004+53730+087180FM-15+0308UNWW V0209999C00001220001CN0099001N1-02301-02601999999ADDMA1102711999999MW1001REMMET065UNWW 080400Z 00000MPS CAVOK M23/M26 Q1027 NOSIG RMK QFE738 SC045;EQDQ01+000000PRSWM2
0117298460999992000010805004+53730+087180FM-15+0308UNWW V0209999C00001220001CN0099001N1-02201-02501999999ADDMA1102611999999MW1001REMMET065UNWW 080500Z 00000MPS CAVOK M22/M25 Q1026 NOSIG RMK QFE737 SC045;EQDQ01+000000PRSWM2
0261298460999992000010806004+53730+087180SY-MT+0308UNWW V0209999C000019999999N0100001N1-02201-02451102381ADDAY171061AY221061GF106991031001999999031011MA1102301999999MD1710291+9999MW1021REMSYN066AAXX  08061 29846 41997 60000 11220 21245 40238 57029 70272 83031;MET065UNWW 080600Z 00000MPS CAVOK M22/M25 Q1023 NOSIG RMK QFE736 SC045;EQDQ01+000000PRSWM2Q02    003PRSWM1
0117298460999992000010807004+53730+087180FM-15+0308UNWW V0209999C00001220001CN0099001N1-02101-02401999999ADDMA1102201999999MW1001REMMET065UNWW 080700Z 00000MPS CAVOK M21/M24 Q1022 NOSIG RMK QFE735 SC045;EQDQ01+000000PRSWM2
0118298460999992000010808004+53730+087180FM-15+0308UNWW V0209999C00001220001CN0099001N1-02101-02401999999ADDMA1102101999999MW1001REMMET066UNWW 080800Z 00000MPS CAVOK M21/M24 Q1021 NOSIG RMK QFE734 SC0 45;EQDQ01+000000PRSWM2
0260298460999992000010809004+53730+087180SY-MT+0308UNWW V0209999C000019999999N0100001N1-02111-02441102031ADDAY121031AY221031GF108991031001999999051011MD1710311+9999MW1101REMSYN066AAXX  08091 29846 41997 80000 11211 21244 40203 57031 71022 83051;MET079UNWW 080900Z 35002MPS 7000 DYMKA 8SRWH/// M21/M24 Q1020 NOSIG RMK QFE734 SC045;EQDQ01+000000PRSWM2Q02    003PRSWM1
0144298460999992000010810004+53730+087180FM-15+0308UNWW V0203501N00201075001CN0070001N1-02201-02501999999ADDGA1081+999999019MA1101901999999MW1001REMMET076UNWW 081000Z 35002MPS 7000 DYMKA 8SR// M22/M25 Q1019 NOSIG RMK QFE733 SC045;EQDQ01+000000PRSWM2
0118298460999992000010811004+53730+087180FM-15+0308UNWW V0203501N00201220001CN0099001N1-02201-02601999999ADDMA1101801999999MW1001REMMET066UNWW 081100Z 35002MPS CAVOK M22/M26 Q1018 NOSIG RMK QFE732 SC0 45;EQDQ01+000000PRSWM2
0270298460999992000010812004+53730+087180SY-MT+0308UNWW V0203401N003019999999N0100001N1-02161-02481101751ADDAA112000791GF108991081001999999051999KA1999M-02101MA1101691097581MD1710291+9999MW1001REMSYN082AAXX  08121 29846 12997 83403 11216 21248 39758 40175 57029 69902 8805/ 333 11210;MET066UNWW 081200Z 35004MPS CAVOK M22/M25 Q1017 NOSIG RMK QFE732 SC0 45;EQDQ01+000000PRSWM2
0118298460999992000010813004+53730+087180FM-15+0308UNWW V0203601N00301220001CN0099001N1-02201-02401999999ADDMA1101591999999MW1001REMMET066UNWW 081300Z 36003MPS CAVOK M22/M24 Q1016 NOSIG RMK QFE731 SC0 45;EQDQ01+000000PRSWM2
0188298460999992000010814004+53730+087180FM-15+0308UNWW V0203501N003010300019N0112651N1-02001-02201999999ADDGA1021+009909999GA2081+030009999GF108991999999999999999999MA1101391999999MW1001REMMET078UNWW 081400Z 35003MPS 9999 SCT033 OVC100 M20/M22 Q1014 NOSIG RMK QFE730 SC045;EQDQ01+000000PRSWM2
0268298460999992000010815004+53730+087180SY-MT+0308UNWW V0203401N003010300019N0100001N1-01981-02241101351ADDGA1021+009909999GA2081+030009999GF108991031051012501051999MA1101291999999MD1710351+9999MW1001REMSYN060AAXX  08151 29846 42697 83403 11198 21224 40135 57035 8355/;MET078UNWW 081500Z 34003MPS 9999 SCT033 OVC100 M20/M22 Q1013 NOSIG RMK QFE729 SC045;EQDQ01+000000PRSWM2
0188298460999992000010816004+53730+087180FM-15+0308UNWW V0203101N002010300019N0112651N1-02001-02201999999ADDGA1021+009909999GA2081+030009999GF108991999999999999999999MA1101291999999MW1001REMMET078UNWW 081600Z 31002MPS 9999 SCT033 OVC100 M20/M22 Q1013 NOSIG RMK QFE729 SC045;EQDQ01+000000PRSWM2
0188298460999992000010817004+53730+087180FM-15+0308UNWW V0200101N002010300019N0112651N1-02001-02201999999ADDGA1021+009009999GA2081+030009999GF108991999999999999999999MA1101191999999MW1001REMMET078UNWW 081700Z 01002MPS 9999 SCT030 OVC100 M20/M22 Q1012 NOSIG RMK QFE728 SC045;EQDQ01+000000PRSWM2
0268298460999992000010818004+53730+087180SY-MT+0308UNWW V0200101N002010300019N0100001N1-02021-02281101221ADDGA1021+009009999GA2081+030009999GF108991031051012501051999MA1101191999999MD1710121+9999MW1001REMSYN060AAXX  08181 29846 42697 80102 11202 21228 40122 57012 8355/;MET078UNWW 081800Z 01002MPS 9999 SCT030 OVC100 M20/M23 Q1012 NOSIG RMK QFE728 SC045;EQDQ01+000000PRSWM2
0188298460999992000010819004+53730+087180FM-15+0308UNWW V0203501N003010300019N0112651N1-02001-02301999999ADDGA1021+009009999GA2081+030009999GF108991999999999999999999MA1101081999999MW1001REMMET078UNWW 081900Z 35003MPS 9999 SCT030 OVC100 M20/M23 Q1011 NOSIG RMK QFE728 SC045;EQDQ01+000000PRSWM2
0208298460999992000010820004+53730+087180FM-15+0308UNWW V0203501N004010300019N0112651N1-02001-02301999999ADDGA1021+009009999GA2081+030009999GF108991999999999999999999MA1101081999999MW1711REMMET082UNWW 082000Z 35004MPS 9999 -SN SCT030 OVC100 M20/M23 Q1011 NOSIG RMK QFE728 SC045;EQDQ01+000003PRSWM1Q02    003PRSWM1
0294298460999992000010821004+53730+087180SY-MT+0308UNWW V0203501N003010300019N0100001N1-02011-02201101251ADDAY171031AY221031GA1021+007809999GA2081+030009999GF108991031051008001071999MA1101191999999MD1310031+9999MW1711REMSYN066AAXX  08211 29846 41597 83503 11201 21220 40125 53003 77172 8357/;MET082UNWW 082100Z 34004MPS 9999 -SN SCT026 OVC100 M20/M22 Q1012 NOSIG RMK QFE728 SC045;EQDQ01    003PRSWM1
0212298460999992000010822004+53730+087180FM-15+0308UNWW V0203501N003010060019N0025001N1-02001-02201999999ADDGA1071+006009099GA2081+030009999GF108991999999999999999999MA1101291999999MW1851REMMET086UNWW 082200Z 35003MPS 2500 -SHSN BKN020CB OVC100 M20/M22 Q1013 NOSIG RMK QFE729 SC042;EQDQ01+000003PRSWM1Q02    003PRSWM1
0212298460999992000010823004+53730+087180FM-15+0308UNWW V0203601N004010060019N0025001N1-02101-02201999999ADDGA1071+006009099GA2081+030009999GF108991999999999999999999MA1101491999999MW1851REMMET086UNWW 082300Z 36004MPS 2500 -SHSN BKN020CB OVC100 M21/M22 Q1015 NOSIG RMK QFE730 SC042;EQDQ01+000003PRSWM1Q02    003PRSWM1
0352298460999992000010900004+53730+087180SY-MT+0308UNWW V0203401N003010300019N0020001N1-02101-02281101631ADDAA112001091AY181061AY271061GA1021+007809999GA2081+030009999GF108991031051008001071999IA1239KA1120N-02171MA1101591097491MD1210351+9999MW1711REMSYN094AAXX  09001 29846 11595 83403 11210 21228 39749 40163 52035 60012 77187 8357/ 333 21217 47019;MET082UNWW 090000Z 34003MPS 2500 -SN SCT026 OVC100 M21/M23 Q1016 NOSIG RMK QFE731 SC042;EQDQ01    003PRSWM1
0208298460999992000010901004+53730+087180FM-15+0308UNWW V0203601N003010300019N0025001N1-02101-02301999999ADDGA1021+007809999GA2081+030009999GF108991999999999999999999MA1101801999999MW1711REMMET082UNWW 090100Z 36003MPS 2500 -SN SCT026 OVC100 M21/M23 Q1018 NOSIG RMK QFE733 SC042;EQDQ01+000003PRSWM1Q02    003PRSWM1
0207298460999992000010902004+53730+087180FM-15+0308UNWW V0203201N001010300019N0012001N1-02101-02301999999ADDGA1021+007809999GA2081+030009999GF108991999999999999999999MA1101901999999MW1731REMMET081UNWW 090200Z 32001MPS 1200 SN SCT026 OVC100 M21/M23 Q1019 NOSIG RMK QFE734 SC032;EQDQ01+000003PRSWM1Q02    003PRSWM1
0315298460999992000010903004+53730+087180SY-MT+0308UNWW V0201101N001010300019N0010001N1-02101-02281102211ADDAY171031AY221031GA1021+009009999GA2081+030009999GF108991031051008001071999MA1102201999999MD1210552+9999MW1711MW2731REMSYN066AAXX  09031 29846 41594 81101 11210 21228 40221 52055 77172 8357/;MET081UNWW 090300Z 00000MPS 1000 SN SCT030 OVC100 M21/M23 Q1022 NOSIG RMK QFE735 SC032;EQDQ01+000552APC3  Q02    003PRSWM1
0207298460999992000010904004+53730+087180FM-15+0308UNWW V0200101N001010300019N0025001N1-02101-02301999999ADDGA1021+009009999GA2081+030009999GF108991999999999999999999MA1102511999999MW1731REMMET081UNWW 090400Z 01001MPS 2500 SN SCT030 OVC100 M21/M23 Q1025 NOSIG RMK QFE737 SC032;EQDQ01+000003PRSWM1Q02    003PRSWM1
0208298460999992000010905004+53730+087180FM-15+0308UNWW V0209999C000010300019N0070001N1-02001-02201999999ADDGA1021+009009999GA2081+030009999GF108991999999999999999999MA1102611999999MW1711REMMET082UNWW 090500Z 00000MPS 7000 -SN SCT030 OVC100 M20/M22 Q1026 NOSIG RMK QFE738 SC032;EQDQ01+000003PRSWM1Q02    003PRSWM1
0207298460999992000010907004+53730+087180FM-15+0308UNWW V0202301N005010300019N0025001N1-01901-02101999999ADDGA1021+009009999GA2081+030009999GF108991999999999999999999MA1102811999999MW1731REMMET081UNWW 090700Z 23005MPS 2500 SN SCT030 OVC100 M19/M21 Q1028 NOSIG RMK QFE740 SC032;EQDQ01+000003PRSWM1Q02    003PRSWM1
0207298460999992000010908004+53730+087180FM-15+0308UNWW V0202301N006010300019N0025001N1-01801-02101999999ADDGA1021+009909999GA2081+030009999GF108991999999999999999999MA1102911999999MW1731REMMET081UNWW 090800Z 23006MPS 2500 SN SCT033 OVC100 M18/M21 Q1029 NOSIG RMK QFE741 SC032;EQDQ01+000003PRSWM1Q02    003PRSWM1
0299298460999992000010909004+53730+087180SY-MT+0308UNWW V0202301N004010300019N0040001N1-01901-02231103121ADDAY181031AY281031GA1021+009909999GA2081+030009999GF108991031091012501051999MA1103121999999MD1210361+9999MW1731MW2851REMSYN066AAXX  09091 29846 41696 82304 11190 21223 40312 52036 78588 8395/;MET081UNWW 090900Z 22004MPS 2500 SN SCT033 OVC100 M19/M22 Q1031 NOSIG RMK QFE742 SC032;EQDQ01    003PRSWM1
0207298460999992000010910004+53730+087180FM-15+0308UNWW V0202001N003010300019N0025001N1-02001-02201999999ADDGA1021+009909999GA2081+030009999GF108991999999999999999999MA1103291999999MW1731REMMET081UNWW 091000Z 20003MPS 2500 SN SCT033 OVC100 M20/M22 Q1033 NOSIG RMK QFE743 SC032;EQDQ01+000003PRSWM1Q02    003PRSWM1
0207298460999992000010911004+53730+087180FM-15+0308UNWW V0202001N005010300019N0025001N1-02101-02301999999ADDGA1021+009909999GA2081+030009999GF108991999999999999999999MA1103291999999MW1731REMMET081UNWW 091100Z 20005MPS 2500 SN SCT033 OVC100 M21/M23 Q1033 NOSIG RMK QFE744 SC032;EQDQ01+000003PRSWM1Q02    003PRSWM1
0345298460999992000010912004+53730+087180SY-MT+0308UNWW V0202001N005010300019N0020001N1-02001-02261103521ADDAA112002091AY181061AY281061GA1021+009909999GA2081+030009999GF108991031091012501051999KA1999M-01831MA1103491099321MD1210371+9999MW1731MW2851REMSYN088AAXX  09121 29846 11695 82005 11200 21226 39932 40352 52037 60022 78588 8395/ 333 11183;MET081UNWW 091200Z 22006MPS 2500 SN SCT033 OVC100 M20/M23 Q1035 NOSIG RMK QFE745 SC032;EQDQ01    003PRSWM1
0206298460999992000010913004+53730+087180FM-15+0308UNWW V0202101N005010300019N0025001N1-02001-02301999999ADDGA1021+009909999GA2081+030009999GF108991999999999999999999MA1103491999999MW1731REMMET080UNWW 091300Z 21005MPS 2500 SN SCT033 OVC100 M20/M23 Q1035 NOSIG RMK QFE745 SC05;EQDQ01+000003PRSWM1Q02    003PRSWM1
0299298460999992000010915004+53730+087180SY-MT+0308UNWW V0202001N004010300019N0020001N1-01971-02231103721ADDAY181031AY281031GA1021+009909999GA2081+030009999GF108991031051012501051999MA1103691999999MD1210191+9999MW1731MW2851REMSYN066AAXX  09151 29846 41695 82004 11197 21223 40372 52019 78588 8355/;MET081UNWW 091500Z 190044MPS 2500 SN SCT033 OVC100 M20/M22 Q1037 NOSIG RMK QFE746 SC45;EQDQ01    003PRSWM1
0206298460999992000010916004+53730+087180FM-15+0308UNWW V0202301N005010300019N0025001N1-02001-02201999999ADDGA1021+009909999GA2081+030009999GF108991999999999999999999MA1103691999999MW1731REMMET080UNWW 091600Z 23005MPS 2500 SN SCT033 OVC100 M20/M22 Q1037 NOSIG RMK QFE746 SC45;EQDQ01+000003PRSWM1Q02    003PRSWM1
0206298460999992000010917004+53730+087180FM-15+0308UNWW V0201701N003010300019N0025001N1-02001-02201999999ADDGA1021+009909999GA2081+030009999GF108991999999999999999999MA1103691999999MW1731REMMET080UNWW 091700Z 17003MPS 2500 SN SCT033 OVC100 M20/M22 Q1037 NOSIG RMK QFE746 SC45;EQDQ01+000003PRSWM1Q02    003PRSWM1
0298298460999992000010918004+53730+087180SY-MT+0308UNWW V0202101N006010300019N0020001N1-01981-02241103761ADDAY181061AY281061GA1021+009009999GA2081+030009999GF108991031091008001051999MA1103691999999MD1110041+9999MW1731MW2851REMSYN066AAXX  09181 29846 41595 82106 11198 21224 40376 51004 78588 8395/;MET080UNWW 091800Z 19005MPS 2500 SN SCT030 OVC100 M20/M22 Q1037 NOSIG RMK QFE746 SC45;EQDQ01    003PRSWM1
0206298460999992000010919004+53730+087180FM-15+0308UNWW V0201901N006010300019N0025001N1-02001-02201999999ADDGA1021+009009999GA2081+030009999GF108991999999999999999999MA1103691999999MW1731REMMET080UNWW 091900Z 19006MPS 2500 SN SCT030 OVC100 M20/M22 Q1037 NOSIG RMK QFE746 SC45;EQDQ01+000003PRSWM1Q02    003PRSWM1
0206298460999992000010920004+53730+087180FM-15+0308UNWW V0201801N005010300019N0025001N1-02001-02201999999ADDGA1021+009009999GA2081+030009999GF108991999999999999999999MA1103691999999MW1731REMMET080UNWW 092000Z 18005MPS 2500 SN SCT030 OVC100 M20/M22 Q1037 NOSIG RMK QFE746 SC45;EQDQ01+000003PRSWM1Q02    003PRSWM1
0298298460999992000010921004+53730+087180SY-MT+0308UNWW V0201601N004010300019N0020001N1-02091-02341103851ADDAY181031AY281031GA1021+009009999GA2081+030009999GF108991031091008001051999MA1103791999999MD1310061+9999MW1731MW2851REMSYN066AAXX  09211 29846 41595 81604 11209 21234 40385 53006 78588 8395/;MET080UNWW 092100Z 17004MPS 2500 SN SCT030 OVC100 M21/M23 Q1038 NOSIG RMK QFE747 SC45;EQDQ01    003PRSWM1
0206298460999992000010922004+53730+087180FM-15+0308UNWW V0201801N006010300019N0025001N1-02101-02401999999ADDGA1021+009009999GA2081+030009999GF108991999999999999999999MA1103791999999MW1731REMMET080UNWW 092200Z 18006MPS 2500 SN SCT030 OVC100 M21/M24 Q1038 NOSIG RMK QFE747 SC05;EQDQ01+000003PRSWM1Q02    003PRSWM1
0206298460999992000010923004+53730+087180FM-15+0308UNWW V0201601N005010300019N0025001N1-02101-02401999999ADDGA1021+009009999GA2071+030009999GF107991999999999999999999MA1103791999999MW1731REMMET080UNWW 092300Z 16005MPS 2500 SN SCT030 BKN100 M21/M24 Q1038 NOSIG RMK QFE747 SC05;EQDQ01+000003PRSWM1Q02    003PRSWM1
0379298460999992000011000004+53730+087180SY-MT+0308UNWW V0201601N005010300019N0100001N1-02181-02431103881ADDAA112000891AY181061AY221061GA1021+009909999GA2071+030009999GF199999021041012501031011IA1239KA1120N-02181MA1103791099621MD1110011+9999MW1261REMSYN094AAXX  10001 29846 11697 61605 11218 21243 39962 40388 51001 69982 72682 82431 333 21218 47021;MET077UNWW 100000Z 16004MPS 9999 SCT033 BKN100 M22/M24 Q1038 NOSIG RMK QFE747 SC05;EQDQ01+000062SCOTCVQ02+000000PRSWM2Q03    003PRSWM1
0209298460999992000011001004+53730+087180FM-15+0308UNWW V0201701N004010300019N0112651N1-02101-02401999999ADDGA1021+009909999GA2071+030009999GF107991999999999999999999MA1103791999999MW1851REMMET083UNWW 100100Z 17004MPS 9999 -SHSN SCT033 BKN100 M21/M24 Q1038 NOSIG RMK QFE747 SC05;EQDQ01+000003PRSWM1Q02    003PRSWM1
0211298460999992000011002004+53730+087180FM-15+0308UNWW V0201601N004010600019N0112651N1-02101-02301999999ADDGA1021+009909099GA2081+060009999GF108991999999999999999999MA1103791999999MW1851REMMET085UNWW 100200Z 16004MPS 9999 -SHSN SCT033CB OVC200 M21/M23 Q1038 NOSIG RMK QFE747 SC05;EQDQ01+000003PRSWM1Q02    003PRSWM1
0297298460999992000011003004+53730+087180SY-MT+0308UNWW V0201701N00601060001CN0100001N1-02021-02281103821ADDAY181031AY221031GA1021+009909099GA2081+060009999GF108991021091012501001011MA1103791999999MD1310031+9999MW1851REMSYN066AAXX  10031 29846 41697 81706 11202 21228 40382 53003 78582 82901;MET085UNWW 100300Z 16004MPS 9999 -SHSN SCT033CB OVC200 M20/M23 Q1038 NOSIG RMK QFE747 SC05;EQDQ01    003PRSWM1
0187298460999992000011004004+53730+087180FM-15+0308UNWW V0201501N005010600019N0112651N1-01901-02201999999ADDGA1021+009909999GA2081+060009999GF108991999999999999999999MA1103791999999MW1001REMMET077UNWW 100400Z 15005MPS 9999 SCT033 OVC200 M19/M22 Q1038 NOSIG RMK QFE747 SC05;EQDQ01+000000PRSWM2
0188298460999992000011005004+53730+087180FM-15+0308UNWW V0201601N005010600019N0112651N1-01801-02101999999ADDGA1021+009909999GA2081+060009999GF108991999999999999999999MA1103591999999MW1001REMMET078UNWW 100500Z 16005MPS 9999 SCT033 OVC200 M18/M21 Q1036 NOSIG RMK QFE746 SC055;EQDQ01+000000PRSWM2
0306298460999992000011006004+53730+087180SY-MT+0308UNWW V0201501N00501039001CN0100001N1-01761-02021103671ADDAY181061AY221061GA1021+009909999GA2081+039009999GF108991021041012501031011MA1103591999999MD1810161+9999MW1021REMSYN066AAXX  10061 29846 41697 81505 11176 21202 40367 58016 70282 82431;MET078UNWW 100600Z 16005MPS 9999 SCT033 OVC130 M18/M20 Q1036 NOSIG RMK QFE746 SC055;EQDQ01+000000PRSWM2Q02    003PRSWM1
0117298460999992000011007004+53730+087180FM-15+0308UNWW V0201601N00401220001CN0099001N1-01701-02001999999ADDMA1103491999999MW1001REMMET065UNWW 100700Z 16004MPS CAVOK M17/M20 Q1035 NOSIG RMK QFE745 SC055;EQDQ01+000000PRSWM2
0117298460999992000011008004+53730+087180FM-15+0308UNWW V0201601N00401220001CN0099001N1-01501-01901999999ADDMA1103591999999MW1001REMMET065UNWW 100800Z 16004MPS CAVOK M15/M19 Q1036 NOSIG RMK QFE745 SC055;EQDQ01+000000PRSWM2
0223298460999992000011009004+53730+087180SY-MT+0308UNWW V0201601N004019999999N0100001N1-01491-01761103511ADDGF108991041001999999031011MA1103491999999MD1710111+9999MW1001REMSYN060AAXX  10091 29846 42997 81604 11149 21176 40351 57011 84031;MET065UNWW 100900Z 17004MPS CAVOK M15/M18 Q1035 NOSIG RMK QFE745 SC055;EQDQ01+000000PRSWM2
0117298460999992000011010004+53730+087180FM-15+0308UNWW V0201701N00601220001CN0099001N1-01501-01801999999ADDMA1103491999999MW1001REMMET065UNWW 101000Z 17006MPS CAVOK M15/M18 Q1035 NOSIG RMK QFE745 SC055;EQDQ01+000000PRSWM2
0117298460999992000011011004+53730+087180FM-15+0308UNWW V0201501N00401220001CN0099001N1-01501-01801999999ADDMA1103491999999MW1001REMMET065UNWW 101100Z 15004MPS CAVOK M15/M18 Q1035 NOSIG RMK QFE745 SC055;EQDQ01+000000PRSWM2
0269298460999992000011012004+53730+087180SY-MT+0308UNWW V0201501N004019999999N0100001N1-01501-01771103371ADDAA112000191GF108991051001999999031011KA1999M-01491MA1103291099251MD1710131+9999MW1001REMSYN082AAXX  10121 29846 12997 81504 11150 21177 39925 40337 57013 69912 85031 333 11149;MET065UNWW 101200Z 16002MPS CAVOK M15/M18 Q1033 NOSIG RMK QFE744 SC055;EQDQ01+000000PRSWM2
0117298460999992000011013004+53730+087180FM-15+0308UNWW V0201701N00301220001CN0099001N1-01501-01801999999ADDMA1103291999999MW1001REMMET065UNWW 101300Z 17003MPS CAVOK M15/M18 Q1033 NOSIG RMK QFE744 SC055;EQDQ01+000000PRSWM2
0117298460999992000011014004+53730+087180FM-15+0308UNWW V0201701N00301220001CN0099001N1-01401-01701999999ADDMA1103181999999MW1001REMMET065UNWW 101400Z 17003MPS CAVOK M14/M17 Q1032 NOSIG RMK QFE744 SC055;EQDQ01+000000PRSWM2
0223298460999992000011015004+53730+087180SY-MT+0308UNWW V0201801N004019999999N0100001N1-01401-01671103211ADDGF108991081001999999051999MA1103181999999MD1710141+9999MW1001REMSYN060AAXX  10151 29846 42997 81804 11140 21167 40321 57014 8805/;MET065UNWW 101500Z 19004MPS CAVOK M14/M17 Q1032 NOSIG RMK QFE743 SC055;EQDQ01+000000PRSWM2
0117298460999992000011016004+53730+087180FM-15+0308UNWW V0201901N00601220001CN0099001N1-01401-01701999999ADDMA1103181999999MW1001REMMET065UNWW 101600Z 19006MPS CAVOK M14/M17 Q1032 NOSIG RMK QFE743 SC055;EQDQ01+000000PRSWM2
0117298460999992000011017004+53730+087180FM-15+0308UNWW V0201601N00301220001CN0099001N1-01401-01701999999ADDMA1103181999999MW1001REMMET065UNWW 101700Z 16003MPS CAVOK M14/M17 Q1032 NOSIG RMK QFE742 SC055;EQDQ01+000000PRSWM2
0223298460999992000011018004+53730+087180SY-MT+0308UNWW V0201701N00401220001CN0100001N1-01311-01661103071ADDGF108991081001999999051999MA1103011999999MD1710121+9999MW1001REMSYN060AAXX  10181 29846 42997 81704 11131 21166 40307 57012 8805/;MET065UNWW 101800Z 17004MPS CAVOK M13/M17 Q1030 NOSIG RMK QFE742 SC055;EQDQ01+000000PRSWM2
0117298460999992000011019004+53730+087180FM-15+0308UNWW V0201501N00401220001CN0099001N1-01301-01701999999ADDMA1103011999999MW1001REMMET065UNWW 101900Z 15004MPS CAVOK M13/M17 Q1030 NOSIG RMK QFE742 SC055;EQDQ01+000000PRSWM2
0117298460999992000011020004+53730+087180FM-15+0308UNWW V0201601N00501220001CN0099001N1-01301-01701999999ADDMA1103011999999MW1001REMMET065UNWW 102000Z 16005MPS CAVOK M13/M17 Q1030 NOSIG RMK QFE742 SC055;EQDQ01+000000PRSWM2
0223298460999992000011021004+53730+087180SY-MT+0308UNWW V0201601N003019999999N0100001N1-01341-01691102991ADDGF108991081001999999051999MA1102911999999MD1710071+9999MW1001REMSYN060AAXX  10211 29846 42997 81603 11134 21169 40299 57007 8805/;MET065UNWW 102100Z 16004MPS CAVOK M13/M17 Q1029 NOSIG RMK QFE742 SC055;EQDQ01+000000PRSWM2
0117298460999992000011022004+53730+087180FM-15+0308UNWW V0201701N00501220001CN0099001N1-01401-01701999999ADDMA1102911999999MW1001REMMET065UNWW 102200Z 17005MPS CAVOK M14/M17 Q1029 NOSIG RMK QFE741 SC055;EQDQ01+000000PRSWM2
0117298460999992000011023004+53730+087180FM-15+0308UNWW V0201501N00401220001CN0099001N1-01401-01801999999ADDMA1102911999999MW1001REMMET065UNWW 102300Z 15004MPS CAVOK M14/M18 Q1029 NOSIG RMK QFE741 SC055;EQDQ01+000000PRSWM2
0291298460999992000011100004+53730+087180SY-MT+0308UNWW V0201301N003019999999N0100001N1-01491-01831102871ADDAA106000091GF108991051001999999031011IA1239KA1120N-01501MA1102811098771MD1710151+9999MW1001REMSYN082AAXX  11001 29846 32997 81303 11149 21183 39877 40287 57015 85031 333 21150 47021;MET065UNWW 110000Z 14003MPS CAVOK M15/M18 Q1028 NOSIG RMK QFE741 SC055;EQDQ01+000000PRSWM2Q02  00002PRCP06
0117298460999992000011101004+53730+087180FM-15+0308UNWW V0201801N00401220001CN0099001N1-01501-01801999999ADDMA1102711999999MW1001REMMET065UNWW 110100Z 18004MPS CAVOK M15/M18 Q1027 NOSIG RMK QFE740 SC055;EQDQ01+000000PRSWM2
0117298460999992000011102004+53730+087180FM-15+0308UNWW V0201601N00301220001CN0099001N1-01501-01801999999ADDMA1102711999999MW1001REMMET065UNWW 110200Z 16003MPS CAVOK M15/M18 Q1027 NOSIG RMK QFE740 SC055;EQDQ01+000000PRSWM2
0270298460999992000011103004+53730+087180SY-MT+0308UNWW V0201401N004010300019N0100001N1-01461-01811102841ADDGA1021+009009099GA2081+030009999GF108991031091008001051999MA1102811999999MD1610031+9999MW1001REMSYN060AAXX  11031 29846 42597 81404 11146 21181 40284 56003 8395/;MET080UNWW 110300Z 14003MPS 9999 SCT030CB OVC100 M15/M18 Q1028 NOSIG RMK QFE740 SC055;EQDQ01+000000PRSWM2
0190298460999992000011104004+53730+087180FM-15+0308UNWW V0201601N003010300019N0112651N1-01501-01801999999ADDGA1021+009009099GA2081+030009999GF108991999999999999999999MA1102811999999MW1001REMMET080UNWW 110400Z 16003MPS 9999 SCT030CB OVC100 M15/M18 Q1028 NOSIG RMK QFE740 SC055;EQDQ01+000000PRSWM2
0190298460999992000011105004+53730+087180FM-15+0308UNWW V0201801N004010300019N0112651N1-01401-01801999999ADDGA1021+009009099GA2081+030009999GF108991999999999999999999MA1102811999999MW1001REMMET080UNWW 110500Z 18004MPS 9999 SCT030CB OVC100 M14/M18 Q1028 NOSIG RMK QFE740 SC055;EQDQ01+000000PRSWM2
0270298460999992000011106004+53730+087180SY-MT+0308UNWW V0201701N004010300019N0100001N1-01331-01681102761ADDGA1021+009009099GA2081+030009999GF108991031091008001051999MA1102711999999MD1610041+9999MW1001REMSYN060AAXX  11061 29846 42597 81704 11133 21168 40276 56004 8395/;MET080UNWW 110600Z 18005MPS 9999 SCT030CB OVC100 M13/M17 Q1027 NOSIG RMK QFE740 SC055;EQDQ01+000000PRSWM2
0188298460999992000011107004+53730+087180FM-15+0308UNWW V0201701N002010300019N0112651N1-01201-01701999999ADDGA1021+009909999GA2081+030009999GF108991999999999999999999MA1102711999999MW1001REMMET078UNWW 110700Z 17002MPS 9999 SCT033 OVC100 M12/M17 Q1027 NOSIG RMK QFE740 SC055;EQDQ01+000000PRSWM2
0188298460999992000011108004+53730+087180FM-15+0308UNWW V0201701N002010300019N0112651N1-01201-01601999999ADDGA1021+009909999GA2081+030009999GF108991999999999999999999MA1102711999999MW1001REMMET078UNWW 110800Z 17002MPS 9999 SCT033 OVC100 M12/M16 Q1027 NOSIG RMK QFE740 SC055;EQDQ01+000000PRSWM2
0268298460999992000011109004+53730+087180SY-MT+0308UNWW V0201901N005010300019N0100001N1-01071-01601102651ADDGA1021+009909999GA2081+030009999GF108991031051012501051999MA1102611999999MD1710081+9999MW1001REMSYN060AAXX  11091 29846 42697 81905 11107 21160 40265 57008 8355/;MET078UNWW 110900Z 15002MPS 9999 SCT033 OVC100 M11/M16 Q1026 NOSIG RMK QFE739 SC055;EQDQ01+000000PRSWM2
0188298460999992000011110004+53730+087180FM-15+0308UNWW V0201501N004010300019N0112651N1-01101-01701999999ADDGA1021+009909999GA2081+030009999GF108991999999999999999999MA1102611999999MW1001REMMET078UNWW 111000Z 15004MPS 9999 SCT033 OVC100 M11/M17 Q1026 NOSIG RMK QFE739 SC055;EQDQ01+000000PRSWM2
0188298460999992000011111004+53730+087180FM-15+0308UNWW V0201601N005010300019N0112651N1-01201-01601999999ADDGA1021+009909999GA2081+030009999GF108991999999999999999999MA1102611999999MW1001REMMET078UNWW 111100Z 16005MPS 9999 SCT033 OVC100 M12/M16 Q1026 NOSIG RMK QFE739 SC055;EQDQ01+000000PRSWM2
0324298460999992000011112004+53730+087180SY-MT+0308UNWW V0201701N005010300019N0100001N1-01181-01701102691ADDAA106000091GA1021+009909999GA2081+030009999GF108991031051012501051999KA1999M-01061MA1102611098641MD1310021+9999MW1001REMSYN076AAXX  11121 29846 32697 81705 11118 21170 39864 40269 53002 8355/ 333 11106;MET078UNWW 111200Z 17005MPS 9999 SCT033 OVC100 M12/M17 Q1026 NOSIG RMK QFE740 SC055;EQDQ01+000000PRSWM2Q02  00002PRCP06
0188298460999992000011113004+53730+087180FM-15+0308UNWW V0201601N006010300019N0112651N1-01201-01701999999ADDGA1021+009909999GA2081+030009999GF108991999999999999999999MA1102611999999MW1001REMMET078UNWW 111300Z 16006MPS 9999 SCT033 OVC100 M12/M17 Q1026 NOSIG RMK QFE740 SC055;EQDQ01+000000PRSWM2
0188298460999992000011114004+53730+087180FM-15+0308UNWW V0201601N005010300019N0112651N1-01201-01701999999ADDGA1021+009909999GA2081+030009999GF108991999999999999999999MA1102611999999MW1001REMMET078UNWW 111400Z 16005MPS 9999 SCT033 OVC100 M12/M17 Q1026 NOSIG RMK QFE740 SC055;EQDQ01+000000PRSWM2
0270298460999992000011115004+53730+087180SY-MT+0308UNWW V0201501N004010300019N0100001N1-01121-01561102631ADDGA1021+009009099GA2081+030009999GF108991031091008001051999MA1102611999999MD1810041+9999MW1001REMSYN060AAXX  11151 29846 42597 81504 11112 21156 40263 58004 8395/;MET080UNWW 111500Z 16004MPS 9999 SCT030CB OVC100 M11/M16 Q1026 NOSIG RMK QFE739 SC055;EQDQ01+000000PRSWM2
0212298460999992000011116004+53730+087180FM-15+0308UNWW V0201701N004010300019N0112651N1-01201-01601999999ADDGA1021+009009099GA2081+030009999GF108991999999999999999999MA1102611999999MW1851REMMET086UNWW 111600Z 17004MPS 9999 -SHSN SCT030CB OVC100 M12/M16 Q1026 NOSIG RMK QFE739 SC055;EQDQ01+000003PRSWM1Q02    003PRSWM1
0212298460999992000011117004+53730+087180FM-15+0308UNWW V0201901N004010300019N0112651N1-01201-01601999999ADDGA1021+009009099GA2081+030009999GF108991999999999999999999MA1102611999999MW1851REMMET086UNWW 111700Z 19004MPS 9999 -SHSN SCT030CB OVC100 M12/M16 Q1026 NOSIG RMK QFE739 SC055;EQDQ01+000003PRSWM1Q02    003PRSWM1
0298298460999992000011118004+53730+087180SY-MT+0308UNWW V0202001N005010300019N0100001N1-01201-01471102581ADDAY181061AY221061GA1021+009009099GA2081+030009999GF108991031091008001051999MA1102511999999MD1710061+9999MW1851REMSYN066AAXX  11181 29846 41597 82005 11120 21147 40258 57006 78582 8395/;MET086UNWW 111800Z 20006MPS 9999 -SHSN SCT030CB OVC100 M12/M15 Q1025 NOSIG RMK QFE739 SC055;EQDQ01    003PRSWM1
0212298460999992000011119004+53730+087180FM-15+0308UNWW V0202101N007010300019N0112651N1-01201-01401999999ADDGA1021+009009099GA2081+030009999GF108991999999999999999999MA1102511999999MW1851REMMET086UNWW 111900Z 21007MPS 9999 -SHSN SCT030CB OVC100 M12/M14 Q1025 NOSIG RMK QFE739 SC055;EQDQ01+000003PRSWM1Q02    003PRSWM1
0212298460999992000011120004+53730+087180FM-15+0308UNWW V0202001N006010300019N0112651N1-01101-01401999999ADDGA1021+009009099GA2081+030009999GF108991999999999999999999MA1102511999999MW1851REMMET086UNWW 112000Z 20006MPS 9999 -SHSN SCT030CB OVC100 M11/M14 Q1025 NOSIG RMK QFE739 SC055;EQDQ01+000003PRSWM1Q02    003PRSWM1
0298298460999992000011121004+53730+087180SY-MT+0308UNWW V0202101N005010300019N0100001N1-01071-01351102571ADDAY181031AY281031GA1021+009009099GA2081+030009999GF108991031091008001051999MA1102511999999MD1310011+9999MW1851REMSYN066AAXX  11211 29846 41597 82105 11107 21135 40257 53001 78588 8395/;MET086UNWW 112100Z 20005MPS 9999 -SHSN SCT030CB OVC100 M11/M14 Q1025 NOSIG RMK QFE739 SC055;EQDQ01    003PRSWM1
0212298460999992000011123004+53730+087180FM-15+0308UNWW V0201801N006010300019N0112651N1-01001-01301999999ADDGA1021+009009099GA2081+030009999GF108991999999999999999999MA1102511999999MW1851REMMET086UNWW 112300Z 18006MPS 9999 -SHSN SCT030CB OVC100 M10/M13 Q1025 NOSIG RMK QFE739 SC055;EQDQ01+000003PRSWM1Q02    003PRSWM1
0356298460999992000011200004+53730+087180SY-MT+0308UNWW V0201801N003010300019N0100001N1-01041-01321102541ADDAA112000591AY181061AY281061GA1021+009009099GA2081+030009999GF108991031091008001051999IA1239KA1120N-01251MA1102511098531MD1810021+9999MW1851REMSYN094AAXX  12001 29846 11597 81803 11104 21132 39853 40254 58002 69962 78588 8395/ 333 21125 47022;MET086UNWW 120000Z 21005MPS 9999 -SHSN SCT030CB OVC100 M10/M13 Q1025 NOSIG RMK QFE739 SC055;EQDQ01    003PRSWM1
0212298460999992000011201004+53730+087180FM-15+0308UNWW V0202201N006010066019N0112651N1-01001-01301999999ADDGA1071+006609099GA2081+030009999GF108991999999999999999999MA1102511999999MW1851REMMET086UNWW 120100Z 22006MPS 9999 -SHSN BKN022CB OVC100 M10/M13 Q1025 NOSIG RMK QFE739 SC055;EQDQ01+000003PRSWM1Q02    003PRSWM1
0220298460999992000011202004+53730+087180FM-15+0308UNWW V0202001N006010063019N0025001N1-01001+99999999999ADDGA1071+006309099GA2081+030009999GF108991999999999999999999MW1381MW2851OC101101REMMET095UNWW 120200Z 20006G11MPS 2500 -SHSN BLSN BKN021CB OVC100 M10/M 13 Q1025 NOSIG RMK QFE739 SC055;EQDQ01+000003PRSWM1Q02    003PRSWM1
0297298460999992000011203004+53730+087180SY-MT+0308UNWW V0202101N006010069019N0040001N1-01011-01291102511ADDAY181031AY231031GA1071+006909099GA2081+030009999GF108991031091008001051999MD1610031+9999MW1361MW2851REMSYN066AAXX  12031 29846 41596 82106 11101 21129 40251 56003 73683 8395/;MET094UNWW 120300Z 24006/11MPS 7000 -SHSN DRSN BKN023CB OVC100 M10/M 13 Q1025 NOSIG RMK QFE738 SC05;EQDQ01    003PRSWM1
0219298460999992000011204004+53730+087180FM-15+0308UNWW V0202201N006010069019N0070001N1-01001+99999999999ADDGA1071+006909099GA2081+030009999GF108991999999999999999999MW1361MW2851OC101101REMMET094UNWW 120400Z 22006/11MPS 7000 -SHSN DRSN BKN023CB OVC100 M10/M 13 Q1025 NOSIG RMK QFE738 SC05;EQDQ01+000003PRSWM1Q02    003PRSWM1
0219298460999992000011205004+53730+087180FM-15+0308UNWW V0202201N006010078019N0070001N1-00901+99999999999ADDGA1071+007809099GA2081+030009999GF108991999999999999999999MW1361MW2851OC101101REMMET094UNWW 120500Z 22006/11MPS 7000 -SHSN DRSN BKN026CB OVC100 M09/M 12 Q1024 NOSIG RMK QFE738 SC05;EQDQ01+000003PRSWM1Q02    003PRSWM1
0307298460999992000011206004+53730+087180SY-MT+0308UNWW V0202201N00701009001CN0100001N1-00911-01211102441ADDAY181061AY231061GA1071+009009099GA2081+030009999GF108991031091008001051999MA1102401999999MD1810051+9999MW1361OC101201REMSYN066AAXX  12061 29846 41597 82207 11091 21121 40244 58005 73683 8395/;MET087UNWW 120600Z 23007/12MPS 9999 DRSN BKN030CB OVC100 M09/M12 Q1024 NOSIG RMK QFE738 SC05;EQDQ01    003PRSWM1
0221298460999992000011207004+53730+087180FM-15+0308UNWW V0202301N006010090019N0112651N1-00801-01201999999ADDGA1071+009009099GA2081+030009999GF108991999999999999999999MA1102401999999MW1361OC101101REMMET087UNWW 120700Z 23006G11MPS 9999 DRSN BKN030CB OVC100 M08/M12 Q1024 NOSIG RMK QFE738 SC05;EQDQ01+000003PRSWM1Q02    003PRSWM1
0219298460999992000011208004+53730+087180FM-15+0308UNWW V0202201N008010090019N0112651N1-00801-01101999999ADDGA1071+009009999GA2081+030009999GF108991999999999999999999MA1102401999999MW1361OC101301REMMET085UNWW 120800Z 22008G13MPS 9999 DRSN BKN030 OVC100 M08/M11 Q1024 NOSIG RMK QFE738 SC05;EQDQ01+000003PRSWM1Q02    003PRSWM1
0305298460999992000011209004+53730+087180SY-MT+0308UNWW V0202201N00701009001CN0100001N1-00841-01261102341ADDAY131031AY231031GA1071+009009999GA2081+030009999GF108991021051008001051999MA1102301999999MD1710091+9999MW1361OC101201REMSYN066AAXX  12091 29846 41597 82207 11084 21126 40234 57009 73633 8255/;MET085UNWW 120900Z 22007G12MPS 9999 DRSN BKN030 OVC100 M08/M13 Q1023 NOSIG RMK QFE738 SC05;EQDQ01    003PRSWM1
0219298460999992000011210004+53730+087180FM-15+0308UNWW V0201801N005010090019N0112651N1-00901-01301999999ADDGA1071+009009999GA2081+030009999GF108991999999999999999999MA1102301999999MW1361OC101001REMMET085UNWW 121000Z 18005G10MPS 9999 DRSN BKN030 OVC100 M09/M13 Q1023 NOSIG RMK QFE738 SC05;EQDQ01+000003PRSWM1Q02    003PRSWM1
0351298460999992000011212004+53730+087180SY-MT+0308UNWW V0201501N003010300019N0100001N1-00991-01301999999ADDAA112000791AY131061AY221061GA1021+009909999GA2081+030009999GF108991021051008001051999KA1999M-00761MA1102301098321MD1610041+9999MW1021REMSYN088AAXX  12121 29846 11597 81503 11099 21130 39832 46004 56004 69902 70232 8255/ 333 11076;MET077UNWW 121200Z 15002MPS 9999 SCT033 OVC100 M10/M13 Q1023 NOSIG RMK QFE737 SC05;EQDQ01+000000PRSWM2Q02    003PRSWM1
0187298460999992000011213004+53730+087180FM-15+0308UNWW V0201501N003010300019N0112651N1-01001-01301999999ADDGA1021+009909999GA2081+030009999GF108991999999999999999999MA1102301999999MW1001REMMET077UNWW 121300Z 15003MPS 9999 SCT033 OVC100 M10/M13 Q1023 NOSIG RMK QFE737 SC05;EQDQ01+000000PRSWM2
0211298460999992000011214004+53730+087180FM-15+0308UNWW V0201701N003010300019N0112651N1-01001-01201999999ADDGA1021+009009999GA2081+030009999GF108991999999999999999999MA1102301999999MW1851REMMET085UNWW 121400Z 17003MPS 9999 -SHSN SCT030SW OVC100 M10/M12 Q1023 NOSIG RMK QFE737 SC05;EQDQ01+000003PRSWM1Q02    003PRSWM1
0304298460999992000011215004+53730+087180SY-MT+0308UNWW V0202201N00701008401CN0100001N1-00841-01261102341ADDAY131031AY231031GA1071+008409999GA2081+030009999GF108991021051008001051999MA1102201999999MD1710091+9999MW1361MW2851REMSYN066AAXX  12151 29846 41597 82207 11084 21126 40234 57009 73633 8255/;MET086UNWW 121500Z 17003MPS 9999 -SHSN BKN028SW OVC100 M10/M12 Q1022 NOSIG RMK QFE736 SC045;EQDQ01    003PRSWM1
0212298460999992000011216004+53730+087180FM-15+0308UNWW V0201801N003010090019N0112651N1-01101-01301999999ADDGA1071+009009999GA2081+030009999GF108991999999999999999999MA1102201999999MW1851REMMET086UNWW 121600Z 18003MPS 9999 -SHSN BKN030SW OVC100 M11/M13 Q1022 NOSIG RMK QFE736 SC045;EQDQ01+000003PRSWM1Q02    003PRSWM1
0212298460999992000011217004+53730+087180FM-15+0308UNWW V0201401N003010300019N0112651N1-01101-01201999999ADDGA1021+009009999GA2081+030009999GF108991999999999999999999MA1102201999999MW1851REMMET086UNWW 121700Z 14003MPS 9999 -SHSN SCT030SW OVC100 M11/M12 Q1022 NOSIG RMK QFE736 SC045;EQDQ01+000003PRSWM1Q02    003PRSWM1
0298298460999992000011218004+53730+087180SY-MT+0308UNWW V0201301N002010300019N0100001N1-01091-01291102041ADDAY181061AY221061GA1021+009009999GA2081+030009999GF108991031091008001051999MA1102001999999MD1710171+9999MW1851REMSYN066AAXX  12181 29846 41597 81302 11109 21129 40204 57017 78582 8395/;MET086UNWW 121800Z 13001MPS 9999 -SHSN SCT030SW OVC100 M11/M13 Q1020 NOSIG RMK QFE735 SC045;EQDQ01    003PRSWM1
0212298460999992000011219004+53730+087180FM-15+0308UNWW V0201301N002010300019N0112651N1-01101-01301999999ADDGA1021+009009999GA2081+030009999GF108991999999999999999999MA1102001999999MW1851REMMET086UNWW 121900Z 13002MPS 9999 -SHSN SCT030SW OVC100 M11/M13 Q1020 NOSIG RMK QFE735 SC045;EQDQ01+000003PRSWM1Q02    003PRSWM1
0298298460999992000011221004+53730+087180SY-MT+0308UNWW V0201301N002010300019N0100001N1-01081-01211101971ADDAY181031AY281031GA1021+009009999GA2081+030009999GF108991031091008001051999MA1101901999999MD1710071+9999MW1851REMSYN066AAXX  12211 29846 41597 81302 11108 21121 40197 57007 78588 8395/;MET086UNWW 122100Z 15002MPS 9999 -SHSN SCT030SW OVC100 M11/M12 Q1019 NOSIG RMK QFE735 SC045;EQDQ01    003PRSWM1
0356298460999992000011300004+53730+087180SY-MT+0308UNWW V0201501N002010300019N0100001N1-01031-01231101781ADDAA112000891AY181061AY281061GA1021+009009999GA2081+030009999GF108991031091008001051999IA1239KA1120N-01091MA1101691097801MD1710161+9999MW1851REMSYN094AAXX  13001 29846 11597 81502 11103 21123 39780 40178 57016 69982 78588 8395/ 333 21109 47023;MET086UNWW 130000Z 17003MPS 9999 -SHSN SCT030SW OVC100 M10/M12 Q1017 NOSIG RMK QFE733 SC045;EQDQ01    003PRSWM1
0212298460999992000011301004+53730+087180FM-15+0308UNWW V0201701N003010300019N0112651N1-01001-01201999999ADDGA1021+009009999GA2081+030009999GF108991999999999999999999MA1101691999999MW1851REMMET086UNWW 130100Z 17003MPS 9999 -SHSN SCT030SW OVC100 M10/M12 Q1017 NOSIG RMK QFE733 SC045;EQDQ01+000003PRSWM1Q02    003PRSWM1
0208298460999992000011302004+53730+087180FM-15+0308UNWW V0201901N003010300019N0112651N1-01001-01201999999ADDGA1021+009009999GA2081+030009999GF108991999999999999999999MA1101691999999MW1711REMMET082UNWW 130200Z 19003MPS 9999 -SN SCT030 OVC100 M10/M12 Q1017 NOSIG RMK QFE733 SC045;EQDQ01+000003PRSWM1Q02    003PRSWM1
0306298460999992000011303004+53730+087180SY-MT+0308UNWW V0201901N003010300019N0100001N1-01101-01301101841ADDAY181031AY271031GA1021+009909999GA2071+030009999GF107991021051012501031001MA1101801999999MD1310041+9999MW1221REMSYN066AAXX  13031 29846 41697 71903 11110 21130 40184 53004 72287 82530;MET078UNWW 130300Z 21003MPS 9999 FEW033 BKN100 M11/M13 Q1018 NOSIG RMK QFE734 SC045;EQDQ01+000000PRSWM2Q02    003PRSWM1
0208298460999992000011304004+53730+087180FM-15+0308UNWW V0202401N007010300019N0070001N1-01001-01101999999ADDGA1021+009909999GA2081+030009999GF108991999999999999999999MA1101801999999MW1711REMMET082UNWW 130400Z 24007MPS 7000 -SN SCT033 OVC100 M10/M11 Q1018 NOSIG RMK QFE734 SC045;EQDQ01+000003PRSWM1Q02    003PRSWM1
0208298460999992000011305004+53730+087180FM-15+0308UNWW V0202401N006010300019N0112651N1-01001-01101999999ADDGA1021+009009999GA2081+030009999GF108991999999999999999999MA1101801999999MW1711REMMET082UNWW 130500Z 24006MPS 9999 -SN SCT030 OVC100 M10/M11 Q1018 NOSIG RMK QFE734 SC045;EQDQ01+000003PRSWM1Q02    003PRSWM1
0306298460999992000011306004+53730+087180SY-MT+0308UNWW V0202201N005010390019N0100001N1-01031-01391101931ADDAY181061AY271061GA1021+009009999GA2071+039009999GF107991021051008001031011MA1101901999999MD1210111+9999MW1221REMSYN066AAXX  13061 29846 41597 72205 11103 21139 40193 52011 72287 82531;MET078UNWW 130600Z 21005MPS 9999 SCT030 BKN130 M10/M14 Q1019 NOSIG RMK QFE734 SC045;EQDQ01+000000PRSWM2Q02    003PRSWM1
0208298460999992000011307004+53730+087180FM-15+0308UNWW V0202201N005010390019N0112651N1-01101-01301999999ADDGA1021+009909999GA2071+039009999GF107991999999999999999999MA1101901999999MW1711REMMET082UNWW 130700Z 22005MPS 9999 -SN SCT033 BKN130 M11/M13 Q1019 NOSIG RMK QFE735 SC045;EQDQ01+000003PRSWM1Q02    003PRSWM1
0188298460999992000011308004+53730+087180FM-15+0308UNWW V0202201N007010390019N0112651N1-01101-01401999999ADDGA1021+009909999GA2071+039009999GF107991999999999999999999MA1101901999999MW1001REMMET078UNWW 130800Z 22007MPS 9999 SCT033 BKN130 M11/M14 Q1019 NOSIG RMK QFE735 SC045;EQDQ01+000000PRSWM2
0322298460999992000011309004+53730+087180SY-MT+0308UNWW V0202201N00701039001CN0100001N1-01071-01511102131ADDAY171031AY221031GA1021+009909999GA2071+039009999GF199999021051012501031011MA1102101999999MD1210171+9999MW1021REMSYN066AAXX  13091 29846 41697 62207 11107 21151 40213 52017 70272 82531;MET078UNWW 130900Z 22007MPS 9999 SCT033 BKN130 M11/M16 Q1021 NOSIG RMK QFE736 SC045;EQDQ01+000062SCOTCVQ02+000000PRSWM2Q03    003PRSWM1
0117298460999992000011310004+53730+087180FM-15+0308UNWW V0201901N00501220001CN0099001N1-01301-01701999999ADDMA1102201999999MW1001REMMET065UNWW 131000Z 19005MPS CAVOK M13/M17 Q1022 NOSIG RMK QFE737 SC045;EQDQ01+000000PRSWM2
0118298460999992000011311004+53730+087180FM-15+0308UNWW V0202001N00401220001CN0099001N1-01401-01701999999ADDMA1102201999999MW1001REMMET066UNWW 131100Z 20004MPS CAVOK M14/M17 Q1022 NOSIG RMK QFE737 SC0 45;EQDQ01+000000PRSWM2
0308298460999992000011312004+53730+087180SY-MT+0308UNWW V0201501N003019999999N0100001N1-01361-01631102391ADDAA112000791AY171061AY221061GF108991031001999999031011KA1999M-00961MA1102301098341MD1210221+9999MW1021REMSYN088AAXX  13121 29846 11997 81503 11136 21163 39834 40239 52022 69902 70272 83031 333 11096;MET066UNWW 131200Z 17004MPS CAVOK M14/M16 Q1023 NOSIG RMK QFE737 SC0 45;EQDQ01+000000PRSWM2Q02    003PRSWM1
0118298460999992000011313004+53730+087180FM-15+0308UNWW V0201901N00401220001CN0099001N1-01301-01501999999ADDMA1102401999999MW1001REMMET066UNWW 131300Z 19004MPS CAVOK M13/M15 Q1024 NOSIG RMK QFE738 SC0 45;EQDQ01+000000PRSWM2
0208298460999992000011314004+53730+087180FM-15+0308UNWW V0202101N005010300019N0112651N1-01301-01501999999ADDGA1021+009909999GA2081+030009999GF108991999999999999999999MA1102401999999MW1711REMMET082UNWW 131400Z 21005MPS 9999 -SN SCT033 OVC100 M13/M15 Q1024 NOSIG RMK QFE738 SC045;EQDQ01+000003PRSWM1Q02    003PRSWM1
0293298460999992000011315004+53730+087180SY-MT+0308UNWW V0202101N005010300019N0100001N1-01261-01531102571ADDAY171031AY221031GA1021+009909999GA2081+030009999GF108991031051012501071999MA1102511999999MD1210191+9999MW1711REMSYN066AAXX  13151 29846 41697 82105 11126 21153 40257 52019 77172 8357/;MET081UNWW 131500Z 21007MPS 9999 -SN SCT033 OVC100 M13/M15 Q1025 NOSIG RMK QFE739 SC05;EQDQ01    003PRSWM1
0207298460999992000011316004+53730+087180FM-15+0308UNWW V0202201N009010300019N0112651N1-01201-01401999999ADDGA1021+009909999GA2081+030009999GF108991999999999999999999MA1102611999999MW1711REMMET081UNWW 131600Z 22009MPS 9999 -SN SCT033 OVC100 M12/M14 Q1026 NOSIG RMK QFE739 SC05;EQDQ01+000003PRSWM1Q02    003PRSWM1
0187298460999992000011317004+53730+087180FM-15+0308UNWW V0201801N004010300019N0112651N1-01201-01401999999ADDGA1021+009909999GA2081+030009999GF108991999999999999999999MA1102611999999MW1001REMMET077UNWW 131700Z 18004MPS 9999 SCT033 OVC100 M12/M14 Q1026 NOSIG RMK QFE739 SC05;EQDQ01+000000PRSWM2
0140298460999992000011318004+53730+087180FM-12+0308UNWW V0202001N005010300019N0100001N1-01141-01341102461ADDAY171061AY221061GF108991021051008001071999MD1810091+9999MW1021REMSYN066AAXX  13181 29846 41597 82005 11114 21134 40246 58009 70272 8257/;
0117298460999992000011319004+53730+087180FM-15+0308UNWW V02099999999992200019N0009001N1+99999+99999999999ADDMW1001REMMET080UNWW 31900Z 21006MPS 9999 -SN SCT033 OVC100 M11/M13 Q1024 NOSIG RMK QFE738 SC05;EQDQ01+000000PRSWM2
0207298460999992000011320004+53730+087180FM-15+0308UNWW V0202301N007010300019N0112651N1-01001-01201999999ADDGA1021+007809999GA2081+030009999GF108991999999999999999999MA1102401999999MW1711REMMET081UNWW 132000Z 23007MPS 9999 -SN SCT026 OVC100 M10/M12 Q1024 NOSIG RMK QFE738 SC05;EQDQ01+000003PRSWM1Q02    003PRSWM1
0311298460999992000011321004+53730+087180SY-MT+030899999V0202301N00801006001WN0020001N1-00971-01231102531ADDAY171031AY231031GA1071+006009999GA2081+030009999GF108991051051008001071999MA1102511999999MD1310081+9999MW1731REMSYN080    AAXX  13211 29846 41595 82308 11097 21123 40253 53008 77373 8557/ 333 85520;MET085UNWW 132100Z 22007MPS 2500 SN DRSN BKN020 OVC100 M10/M12 Q1025 NOSIG RMK QFE739 SC05;EQDQ01    003PRSWM1
0209298460999992000011322004+53730+087180FM-15+0308UNWW V0202201N006010060019N0112651N1-01001-01201999999ADDGA1071+006009999GA2081+030009999GF108991999999999999999999MA1102511999999MW1851REMMET083UNWW 132200Z 22006MPS 9999 -SHSN BKN020 OVC100 M10/M12 Q1025 NOSIG RMK QFE739 SC05;EQDQ01+000003PRSWM1Q02    003PRSWM1
0211298460999992000011323004+53730+087180FM-15+0308UNWW V0202101N006010063019N0112651N1-01001-01201999999ADDGA1071+006309099GA2081+030009999GF108991999999999999999999MA1102511999999MW1851REMMET085UNWW 132300Z 21006MPS 9999 -SHSN BKN021CB OVC100 M10/M12 Q1025 NOSIG RMK QFE739 SC05;EQDQ01+000003PRSWM1Q02    003PRSWM1
0382298460999992000011400004+53730+087180SY-MT+030899999V0202101N00701006301CN0100001N1-00931-01181102521ADDAA112000391AJ100239199999999AY181061AY271061GA1071+006309099GA2081+030009999GF108991051091008001051999IA1239KA1120N-01361MA1102511098531MD1110011+9999MW1851REMSYN104    AAXX  14001 29846 11597 82107 11093 21118 39853 40252 51001 69932 78587 8595/ 333 21136 47023 85920;MET085UNWW 140000Z 23007MPS 9999 -SHSN BKN021CB OVC100 M09/M12 Q1025 NOSIG RMK QFE739 SC05;EQDQ01    003PRSWM1
0222298460999992000011401004+53730+087180FM-15+0308UNWW V0202301N007010066019N0112651N1-00901-01201999999ADDGA1071+006609099GA2081+030009999GF108991999999999999999999MA1102511999999MW1361MW2851REMMET090UNWW 140100Z 23007MPS 9999 -SHSN DRSN BKN022CB OVC100 M09/M12 Q1025 NOSIG RMK QFE739 SC05;EQDQ01+000003PRSWM1Q02    003PRSWM1
0222298460999992000011402004+53730+087180FM-15+0308UNWW V0202201N006010300019N0112651N1-00901-01201999999ADDGA1021+007809099GA2081+030009999GF108991999999999999999999MA1102511999999MW1361MW2851REMMET090UNWW 140200Z 22006MPS 9999 -SHSN DRSN SCT026CB OVC100 M09/M12 Q1025 NOSIG RMK QFE739 SC05;EQDQ01+000003PRSWM1Q02    003PRSWM1
0144298460999992000011403004+53730+087180FM-12+030899999V0202201N00701030001WN0100001N1-00911-01211102581ADDAY181031AY231031GF108991031091008001051999MD1210051+9999MW1851REMSYN070    AAXX  14031 29846 41597 82207 11091 21121 40258 52005 78583 8395/;
0211298460999992000011404004+53730+087180FM-15+0308UNWW V0202201N008010300019N0112651N1-00901-01201999999ADDGA1021+007809099GA2081+030009999GF108991999999999999999999MA1102511999999MW1851REMMET085UNWW 140400Z 22008MPS 9999 -SHSN SCT026CB OVC100 M09/M12 Q1025 NOSIG RMK QFE739 SC05;EQDQ01+000003PRSWM1Q02    003PRSWM1
0222298460999992000011405004+53730+087180FM-15+0308UNWW V0202301N009010300019N0112651N1-00901-01201999999ADDGA1021+009909099GA2081+030009999GF108991999999999999999999MA1102511999999MW1361MW2851REMMET090UNWW 140500Z 23009MPS 9999 -SHSN DRSN SCT033CB OVC100 M09/M12 Q1025 NOSIG RMK QFE739 SC05;EQDQ01+000003PRSWM1Q02    003PRSWM1
0307298460999992000011406004+53730+087180SY-MT+030899999V0202301N00701030001WN0040001N1-00851-01131102551ADDAY181061AY231061GA1021+009909099GA2081+030009999GF108991031091012501051999MA1102511999999MD1810021+9999MW1851REMSYN070    AAXX  14061 29846 41696 82307 11085 21113 40255 58002 78583 8395/;MET091UNWW 140600Z 23008MPS 7000 -SHSN DRSN SCT033CB OVC100 M09/M11 Q1025 NOSIG RMK QFE739 SC055;EQDQ01    003PRSWM1
0223298460999992000011407004+53730+087180FM-15+0308UNWW V0202301N007010300019N0070001N1-00801-01101999999ADDGA1021+009009099GA2081+030009999GF108991999999999999999999MA1102511999999MW1361MW2851REMMET091UNWW 140700Z 23007MPS 7000 -SHSN DRSN SCT030CB OVC100 M08/M11 Q1025 NOSIG RMK QFE739 SC055;EQDQ01+000003PRSWM1Q02    003PRSWM1
0116298460999992000011409004+53730+087180FM-12+030899999V0202201N00501008401WN0100001N1-00781-01091999999ADDGA1051+008409099GF108991051091008001051999REMSYN062    AAXX  14091 29846 41597 82205 11078 21109 8595/ 333 85928;
0212298460999992000011411004+53730+087180FM-15+0308UNWW V0201901N005010078019N0112651N1-00801-01101999999ADDGA1071+007809099GA2081+030009999GF108991999999999999999999MA1102401999999MW1851REMMET086UNWW 141100Z 19005MPS 9999 -SHSN BKN026CB OVC100 M08/M11 Q1024 NOSIG RMK QFE738 SC055;EQDQ01+000003PRSWM1Q02    003PRSWM1
