0231306920999992000010100004+54000+123970FM-12+040099999V0209999C000012200019N0500001N1-04001-04271104531ADDAA106000091AJ100269199999999GA1001+999999999GF100991001001999999001001IA1239KA1120N-04111MA1999999098651MD1210081+9999REMSYN082AAXX  01001 30692 32999 00000 11400 21427 39865 40453 52008 333 21411 47026 55045;EQDQ01  00002PRCP06
0116306920999992000010103004+54000+123970FM-12+040099999V0209999C000012200019N0500001N1+99999+99999104341ADDGA1001+999999999GF100991001001999999001001MD1810061+9999REMSYN048AAXX  01031 30692 42999 00000 21390 40434 58006;
0112306920999992000010106004+54000+123970FM-12+040099999V0209999C000012200019N0500001N1-02931-03311104061ADDGF102991001001999999001011MD1710121+9999REMSYN060AAXX  01061 30692 42999 20000 11293 21331 40406 57012 80001;
0122306920999992000010109004+54000+123970FM-12+040099999V0209999C000012200019N0500001N1-03321-03621104171ADDGA1001+999999999GF100991001001999999001001MD1310011+9999REMSYN054AAXX  01091 30692 42999 00000 11332 21362 40417 53001;
0196306920999992000010112004+54000+123970FM-12+040099999V0200901N001012200019N0500001N1-03451-03741104231ADDAA106000091GA1001+999999999GF100991001001999999001001KA1999M-02901MA1999999098491MD1210011+9999REMSYN070AAXX  01121 30692 32999 00901 11345 21374 39849 40423 52001 333 11290;EQDQ01  00002PRCP06
0122306920999992000010115004+54000+123970FM-12+040099999V0200901N002012200019N0500001N1-03731-04011104151ADDGA1001+999999999GF100991001001999999001001MD1810131+9999REMSYN054AAXX  01151 30692 42999 00902 11373 21401 40415 58013;
0122306920999992000010118004+54000+123970FM-12+040099999V0200701N002012200019N0500001N1-03751-04051104041ADDGA1001+999999999GF100991001001999999001001MD1710121+9999REMSYN054AAXX  01181 30692 42999 00702 11375 21405 40404 57012;
0122306920999992000010121004+54000+123970FM-12+040099999V0200701N002012200019N0500001N1-03631-03801103801ADDGA1001+999999999GF100991001001999999001001MD1710181+9999REMSYN054AAXX  01211 30692 42999 00702 11363 21380 40380 57018;
0237306920999992000010200004+54000+123970FM-12+040099999V0200501N002019999999N0500001N1-03521-03801103671ADDAA106000091AJ100269199999999GF107991001001999999001011IA1239KA1120N-03841MA1999999097961MD1710101+9999REMSYN104AAXX  02001 30692 32999 70502 11352 21380 39796 40367 57010 80001 333 21384 47026 55504 555 1/136 7000/;EQDQ01  00002PRCP06
0112306920999992000010203004+54000+123970FM-12+040099999V0200501N002019999999N0500001N1-03321-03621103421ADDGF108991001001999999001071MD1710191+9999REMSYN060AAXX  02031 30692 42999 80502 11332 21362 40342 57019 80007;
0112306920999992000010206004+54000+123970FM-12+040099999V0209999C000019999999N0500001N1-02761-03061103131ADDGF108991081001999999021999MD1710161+9999REMSYN060AAXX  02061 30692 42999 80000 11276 21306 40313 57016 8802/;
0112306920999992000010209004+54000+123970FM-12+040099999V0200501N002019999999N0200001N1-02651-02971102991ADDGF108991081001999999021999MD1710101+9999REMSYN060AAXX  02091 30692 42998 80502 11265 21297 40299 57010 8802/;
0186306920999992000010212004+54000+123970FM-12+040099999V0200501N002019999999N0200001N1-02531-02841102871ADDAA106000091GF108991081001999999021999KA1999M-02521MA1999999097421MD1710091+9999REMSYN076AAXX  02121 30692 32998 80502 11253 21284 39742 40287 57009 8802/ 333 11252;EQDQ01  00002PRCP06
0140306920999992000010215004+54000+123970FM-12+040099999V0209999C000019999999N0200001N1-02341-02601102661ADDAY171031AY221031GF108991081001999999021999MD1710151+9999MW1711REMSYN066AAXX  02151 30692 41998 80000 11234 21260 40266 57015 77172 8802/;
0140306920999992000010218004+54000+123970FM-12+040099999V0209999C000019999999N0100001N1-02241-02491102561ADDAY171061AY271061GF108991081001999999021999MD1710081+9999MW1711REMSYN066AAXX  02181 30692 41997 80000 11224 21249 40256 57008 77177 8802/;
0140306920999992000010221004+54000+123970FM-12+040099999V0209999C000019999999N0100001N1-02321-02571102441ADDAY171031AY221031GF108991081001999999021999MD1710131+9999MW1711REMSYN066AAXX  02211 30692 41997 80000 11232 21257 40244 57013 77172 8802/;
0260306920999992000010300004+54000+123970FM-12+040099999V0209999C000019999999N0100001N1-02281-02521102421ADDAA112003091AJ100249199999999AY171061AY221061GF108991081001999999021999GJ100009IA1239KA1120N-02531MA1999999097041MD1710021+9999MW1711REMSYN116AAXX  03001 30692 11997 80000 11228 21252 39704 40242 57002 60032 77172 8802/ 333 21253 47024 55000 555 1/122 7003/;
0140306920999992000010303004+54000+123970FM-12+040099999V0200501N001019999999N0040001N1-02121-02371102351ADDAY171031AY221031GF108991081001999999021999MD1710021+9999MW1711REMSYN066AAXX  03031 30692 41996 80501 11212 21237 40235 57002 77172 8802/;
0140306920999992000010306004+54000+123970FM-12+040099999V0200901N001019999999N0040001N1-01961-02221102251ADDAY171061AY221061GF108991081001999999021999MD1710081+9999MW1711REMSYN066AAXX  03061 30692 41996 80901 11196 21222 40225 57008 77172 8802/;
0140306920999992000010309004+54000+123970FM-12+040099999V0202501N002019999999N0040001N1-02001-02261102341ADDAY171031AY221031GF108991081001999999021999MD1310081+9999MW1711REMSYN066AAXX  03091 30692 41996 82502 11200 21226 40234 53008 77172 8802/;
0201306920999992000010312004+54000+123970FM-12+040099999V0202701N002019999999N0100001N1-02141-02391102561ADDAA112002091AY171061AY221061GF108991001001999999001071KA1999M-01931MA1999999097211MD1210181+9999MW1711REMSYN088AAXX  03121 30692 11997 82702 11214 21239 39721 40256 52018 60022 77172 80007 333 11193;
0140306920999992000010315004+54000+123970FM-12+040099999V0200501N002019999999N0100001N1-02571-02811102861ADDAY171031AY221031GF108991001001999999001071MD1210181+9999MW1711REMSYN066AAXX  03151 30692 41997 80502 11257 21281 40286 52018 77172 80007;
0140306920999992000010318004+54000+123970FM-12+040099999V0209999C000012200019N0100001N1-02911-03151103131ADDAY171061AY211061GF103991001001999999001011MD1210191+9999MW1021REMSYN066AAXX  03181 30692 41997 30000 11291 21315 40313 52019 70271 80001;
0122306920999992000010321004+54000+123970FM-12+040099999V0209999C000012200019N0200001N1-03331-03621103391ADDGA1001+999999999GF100991001001999999001001MD1210161+9999REMSYN054AAXX  03211 30692 42998 00000 11333 21362 40339 52016;
0208306920999992000010400004+54000+123970FM-12+040099999V0209999C000012200019N0200001N1-03631-03901103641ADDAA112000391AJ100259199999999GF101991001001999999001011IA1239KA1120N-03631MA1999999097901MD1210161+9999REMSYN094AAXX  04001 30692 12998 10000 11363 21390 39790 40364 52016 69932 80001 333 21363 47025 50000;
0122306920999992000010403004+54000+123970FM-12+040099999V0209999C000012200019N0500001N1-03271-03571103691ADDGA1001+999999999GF100991001001999999001001MD1210121+9999REMSYN054AAXX  04031 30692 42999 00000 11327 21357 40369 52012;
0122306920999992000010406004+54000+123970FM-12+040099999V0209999C000012200019N0100001N1-02631-03011103521ADDGA1001+999999999GF100991001001999999001001MD1410001+9999REMSYN054AAXX  04061 30692 42997 00000 11263 21301 40352 54000;
0122306920999992000010409004+54000+123970FM-12+040099999V0209999C000012200019N0100001N1-03241-03551103821ADDGA1001+999999999GF100991001001999999001001MD1310151+9999REMSYN054AAXX  04091 30692 42997 00000 11324 21355 40382 53015;
0196306920999992000010412004+54000+123970FM-12+040099999V0200901N002012200019N0500001N1-03661-03941104011ADDAA106000091GA1001+999999999GF100991001001999999001001KA1999M-02731MA1999999098231MD1210071+9999REMSYN070AAXX  04121 30692 32999 00902 11366 21394 39823 40401 52007 333 11273;EQDQ01  00002PRCP06
0122306920999992000010415004+54000+123970FM-12+040099999V0200901N002012200019N0500001N1-03901-04171104051ADDGA1001+999999999GF100991001001999999001001MD1710011+9999REMSYN054AAXX  04151 30692 42999 00902 11390 21417 40405 57001;
0122306920999992000010418004+54000+123970FM-12+040099999V0200701N001012200019N0500001N1-03981-04271104081ADDGA1001+999999999GF100991001001999999001001MD1310011+9999REMSYN054AAXX  04181 30692 42999 00701 11398 21427 40408 53001;
0122306920999992000010421004+54000+123970FM-12+040099999V0200701N002012200019N0500001N1-04081-04381104121ADDGA1001+999999999GF100991001001999999001001MD1210011+9999REMSYN054AAXX  04211 30692 42999 00702 11408 21438 40412 52001;
0259306920999992000010500004+54000+123970FM-12+040099999V0200201N002012200019N0100001N1-04041-04321104121ADDAA106000091AA224000091AJ100259199999999GF102991001001999999001011GJ102169IA1239KA1120N-04151MA1999999098271MD1210031+9999REMSYN107AAXX  05001 30692 32997 20202 11404 21432 39827 40412 52003 80001 333 21415 47025 55036 555 1/143 7000/ /-;EQDQ01  00002PRCP06
0112306920999992000010503004+54000+123970FM-12+040099999V0209999C000019999999N0100001N1-03581-03861103981ADDGF107991001001999999001091MD1810041+9999REMSYN060AAXX  05031 30692 42997 70000 11358 21386 40398 58004 80009;
0140306920999992000010506004+54000+123970FM-12+040099999V0209999C000019999999N0040001N1-03071-03361103731ADDAY171061AY211061GF108991001001999999001071MD1710131+9999MW1711REMSYN066AAXX  05061 30692 41996 80000 11307 21336 40373 57013 77171 80007;
0140306920999992000010509004+54000+123970FM-12+040099999V0209999C000019999999N0040001N1-02981-03281103681ADDAY171031AY221031GF108991001001999999001071MD1710011+9999MW1711REMSYN066AAXX  05091 30692 41996 80000 11298 21328 40368 57001 77172 80007;
0201306920999992000010512004+54000+123970FM-12+040099999V0209999C000019999999N0100001N1-02951-03261103671ADDAA112000591AY171061AY221061GF108991001001999999001061KA1999M-02951MA1999999098081MD1710011+9999MW1711REMSYN088AAXX  05121 30692 11997 80000 11295 21326 39808 40367 57001 69962 77172 80006 333 11295;
0140306920999992000010515004+54000+123970FM-12+040099999V0203601N002019999999N0200001N1-02761-03061103521ADDAY171031AY221031GF108991081001999999021999MD1710111+9999MW1711REMSYN066AAXX  05151 30692 41998 83602 11276 21306 40352 57011 77172 8802/;
0140306920999992000010521004+54000+123970FM-12+040099999V0209999C000019999999N0100001N1-02521-02821103101ADDAY171031AY221031GF108991001001999999001071MD1710201+9999MW1711REMSYN066AAXX  05211 30692 41997 80000 11252 21282 40310 57020 77172 80007;
0140306920999992000010603004+54000+123970FM-12+040099999V0200501N002019999999N0100001N1-02101-02351102851ADDAY171031AY221031GF108991001001999999001071MD1710081+9999MW1021REMSYN066AAXX  06031 30692 41997 80502 11210 21235 40285 57008 70272 80007;
0112306920999992000010606004+54000+123970FM-12+040099999V0203401N002019999999N0500001N1-01331-01601102401ADDGF108991061001999999031071MD1710281+9999REMSYN060AAXX  06061 30692 42999 83402 11133 21160 40240 57028 86037;
0112306920999992000010609004+54000+123970FM-12+040099999V0209999C000019999999N0500001N1-01661-01921102391ADDGF105991051001999999031001MD1710091+9999REMSYN060AAXX  06091 30692 42999 50000 11166 21192 40239 57009 85030;
0173306920999992000010612004+54000+123970FM-12+040099999V0200501N002019999999N0500001N1-01521-01861102141ADDAA112000391GF108991001001999999001041KA1999M-01301MA1999999096931MD1710021+9999REMSYN082AAXX  06121 30692 12999 80502 11152 21186 39693 40214 57002 69932 80004 333 11130;
0112306920999992000010615004+54000+123970FM-12+040099999V0203601N004019999999N0200001N1-01441-01791101851ADDGF108991081001999999021999MD1710251+9999REMSYN060AAXX  06151 30692 42998 83604 11144 21179 40185 57025 8802/;
0140306920999992000010618004+54000+123970FM-12+040099999V0203401N004019999999N0100001N1-01381-01731101621ADDAY171061AY221061GF108991081001999999021999MD1710221+9999MW1711REMSYN066AAXX  06181 30692 41997 83404 11138 21173 40162 57022 77172 8802/;
0140306920999992000010621004+54000+123970FM-12+040099999V0203601N004019999999N0100001N1-01401-01751101391ADDAY171031AY221031GF108991081001999999021999MD1710211+9999MW1711REMSYN066AAXX  06211 30692 41997 83604 11140 21175 40139 57021 77172 8802/;
0236306920999992000010700004+54000+123970FM-12+040099999V0203601N004019999999N0100001N1-01401-01751101251ADDAA112000391AJ100279199999999AY171061AY221061GF108991081001999999021999IA1239KA1120N-01651MA1999999096111MD1710141+9999MW1711REMSYN100AAXX  07001 30692 11997 83604 11140 21175 39611 40125 57014 69932 77172 8802/ 333 21165 47027 55000;
0140306920999992000010703004+54000+123970FM-12+040099999V0203601N006019999999N0100001N1-01361-01711101051ADDAY171031AY221031GF108991081001999999021999MD1710171+9999MW1701REMSYN066AAXX  07031 30692 41997 83606 11136 21171 40105 57017 77072 8802/;
0140306920999992000010706004+54000+123970FM-12+040099999V0203601N006019999999N0100001N1-01331-01681100921ADDAY171061AY221061GF108991081001999999021999MD1710121+9999MW1711REMSYN066AAXX  07061 30692 41997 83606 11133 21168 40092 57012 77172 8802/;
0140306920999992000010709004+54000+123970FM-12+040099999V0203601N002019999999N0200001N1-01401-01921100911ADDAY171031AY221031GF108991081001999999021999MD1710031+9999MW1021REMSYN066AAXX  07091 30692 41998 83602 11140 21192 40091 57003 70272 8802/;
0201306920999992000010712004+54000+123970FM-12+040099999V0203601N002019999999N0200001N1-01421-01831100911ADDAA112000191AY171061AY221061GF108991081001999999021999KA1999M-01331MA1999999095791MD1410001+9999MW1021REMSYN088AAXX  07121 30692 11998 83602 11142 21183 39579 40091 54000 69922 70272 8802/ 333 11133;
0112306920999992000010715004+54000+123970FM-12+040099999V0200501N002019999999N0500001N1-01461-01891100821ADDGF108991081001999999021999MD1810101+9999REMSYN060AAXX  07151 30692 42999 80502 11146 21189 40082 58010 8802/;
0112306920999992000010718004+54000+123970FM-12+040099999V0203601N002019999999N0500001N1-01461-01891100791ADDGF108991081001999999021999MD1710031+9999REMSYN060AAXX  07181 30692 42999 83602 11146 21189 40079 57003 8802/;
0112306920999992000010721004+54000+123970FM-12+040099999V0203401N004019999999N0200001N1-01521-01941100771ADDGF108991081001999999021999MD1710021+9999REMSYN060AAXX  07211 30692 42998 83404 11152 21194 40077 57002 8802/;
0221306920999992000010800004+54000+123970FM-12+040099999V0203201N002019999999N0500001N1-01561-01981100871ADDAA106000091AJ100259199999999GF105991051001999999071001IA1239KA1120N-01561MA1999999095711MD1310071+9999REMSYN088AAXX  08001 30692 32999 53202 11156 21198 39571 40087 53007 85070 333 21156 47025 55000;EQDQ01  00002PRCP06
0112306920999992000010803004+54000+123970FM-12+040099999V0209999C000019999999N0500001N1-01291-01901100861ADDGF108991081001999999071999MD1410001+9999REMSYN060AAXX  08031 30692 42999 80000 11129 21190 40086 54000 8807/;
0112306920999992000010806004+54000+123970FM-12+040099999V0209999C000019999999N0500001N1-01291-01901100861ADDGF108991081001999999071999MD1410001+9999REMSYN060AAXX  08061 30692 42999 80000 11129 21190 40086 54000 8807/;
0112306920999992000010809004+54000+123970FM-12+040099999V0202701N002019999999N0500001N1-01391-02001100971ADDGF108991061001999999051011MD1310091+9999REMSYN060AAXX  08091 30692 42999 82702 11139 21200 40097 53009 86051;
0186306920999992000010812004+54000+123970FM-12+040099999V0209999C000019999999N0500001N1-01501-02101101071ADDAA106000091GF108991001001999999001071KA1999M-01291MA1999999095921MD1210071+9999REMSYN076AAXX  08121 30692 32999 80000 11150 21210 39592 40107 52007 80007 333 11129;EQDQ01  00002PRCP06
0122306920999992000010815004+54000+123970FM-12+040099999V0209999C000012200019N0500001N1-01631-02131101081ADDGA1001+999999999GF100991001001999999001001MD1810021+9999REMSYN054AAXX  08151 30692 42999 00000 11163 21213 40108 58002;
0122306920999992000010818004+54000+123970FM-12+040099999V0203601N002012200019N0500001N1-01821-02411101131ADDGA1001+999999999GF100991001001999999001001MD1310011+9999REMSYN054AAXX  08181 30692 42999 03602 11182 21241 40113 53001;
0122306920999992000010821004+54000+123970FM-12+040099999V0209999C000012200019N0500001N1-02071-02641101241ADDGA1001+999999999GF100991001001999999001001MD1210041+9999REMSYN054AAXX  08211 30692 42999 00000 11207 21264 40124 52004;
0221306920999992000010900004+54000+123970FM-12+040099999V0202901N002019999999N0500001N1-01891-02471101301ADDAA106000091AJ100269199999999GF108991001001999999001041IA1239KA1120N-02071MA1999999096061MD1210101+9999REMSYN088AAXX  09001 30692 32999 82902 11189 21247 39606 40130 52010 80004 333 21207 47026 55000;EQDQ01  00002PRCP06
0122306920999992000010909004+54000+123970FM-12+040099999V0203401N002012200019N0500001N1-01951-02531101711ADDGA1001+999999999GF100991001001999999001001MD1210241+9999REMSYN054AAXX  09091 30692 42999 03402 11195 21253 40171 52024;
0196306920999992000010912004+54000+123970FM-12+040099999V0209999C000012200019N0200001N1-02361-02921102031ADDAA106000091GA1001+999999999GF100991001001999999001001KA1999M-01501MA1999999096651MD1210201+9999REMSYN070AAXX  09121 30692 32998 00000 11236 21292 39665 40203 52020 333 11150;EQDQ01  00002PRCP06
0122306920999992000010915004+54000+123970FM-12+040099999V0209999C000012200019N0500001N1-02531-03471102461ADDGA1001+999999999GF100991001001999999001001MD1210191+9999REMSYN054AAXX  09151 30692 42999 00000 11253 21347 40246 52019;
0122306920999992000010918004+54000+123970FM-12+040099999V0200501N002012200019N0500001N1-03501-03941102681ADDGA1001+999999999GF100991001001999999001001MD1210181+9999REMSYN054AAXX  09181 30692 42999 00502 11350 21394 40268 52018;
0122306920999992000010921004+54000+123970FM-12+040099999V0200501N002012200019N0200001N1-03671-04111102921ADDGA1001+999999999GF100991001001999999001001MD1210181+9999REMSYN054AAXX  09211 30692 42998 00502 11367 21411 40292 52018;
0255306920999992000011000004+54000+123970FM-12+040099999V0200501N002012200019N0200001N1-03721-04151102081ADDAA106000091AJ100269199999999GA1001+999999999GF100991001001999999001001GJ102709IA1239KA1120N-03731MA1999999097351MD1210151+9999REMSYN098AAXX  10001 30692 32998 00502 11372 21415 39735 40208 52015 333 21373 47026 55045 555 1/140 7000/;EQDQ01  00002PRCP06
0112306920999992000011003004+54000+123970FM-12+040099999V0203201N002019999999N0500001N1-02851-03331101951ADDGF105991001001999999001011MD1210041+9999REMSYN060AAXX  10031 30692 42999 53202 11285 21333 40195 52004 80001;
0112306920999992000011006004+54000+123970FM-12+040099999V0203201N002012200019N0500001N1-02621+99999102731ADDGF103991001001999999001011MD1410001+9999REMSYN060AAXX  10061 30692 42999 33202 11262 21171 40273 54000 80001;
0122306920999992000011009004+54000+123970FM-12+040099999V0209999C000012200019N0500001N1-02401-02871103061ADDGA1001+999999999GF100991001001999999001001MD1310241+9999REMSYN054AAXX  10091 30692 42999 00000 11240 21287 40306 53024;
0196306920999992000011012004+54000+123970FM-12+040099999V0202901N002012200019N0500001N1-02801-03111103341ADDAA106000091GA1001+999999999GF100991001001999999001001KA1999M-02001MA1999999097801MD1210171+9999REMSYN070AAXX  10121 30692 32999 02902 11280 21311 39780 40334 52017 333 11200;EQDQ01  00002PRCP06
0122306920999992000011015004+54000+123970FM-12+040099999V0202901N002012200019N0500001N1-03131-03421103491ADDGA1001+999999999GF100991001001999999001001MD1210091+9999REMSYN054AAXX  10151 30692 42999 02902 11313 21342 40349 52009;
0122306920999992000011018004+54000+123970FM-12+040099999V0200901N002012200019N0500001N1-03411-03881103681ADDGA1001+999999999GF100991001001999999001001MD1210111+9999REMSYN054AAXX  10181 30692 42999 00902 11341 21388 40368 52011;
0122306920999992000011021004+54000+123970FM-12+040099999V0200901N003012200019N0500001N1-03411-03981103901ADDGA1001+999999999GF100991001001999999001001MD1210071+9999REMSYN054AAXX  10211 30692 42999 00903 11341 21398 40390 52007;
0231306920999992000011100004+54000+123970FM-12+040099999V0209999C000012200019N0500001N1-03671-04041103931ADDAA106000091AJ100269199999999GA1001+999999999GF100991001001999999001001IA1239KA1120N-03841MA1999999098151MD1210091+9999REMSYN082AAXX  11001 30692 32999 00000 11367 21404 39815 40393 52009 333 21384 47026 55046;EQDQ01  00002PRCP06
0122306920999992000011103004+54000+123970FM-12+040099999V0209999C000012200019N0200001N1-02641-03021103531ADDGA1001+999999999GF100991001001999999001001MD1710081+9999REMSYN054AAXX  11031 30692 42998 00000 11264 21302 40353 57008;
0122306920999992000011106004+54000+123970FM-12+040099999V0209999C000012200019N0200001N1-02371-02841103431ADDGA1001+999999999GF100991001001999999001001MD1710171+9999REMSYN054AAXX  11061 30692 42998 00000 11237 21284 40343 57017;
0112306920999992000011109004+54000+123970FM-12+040099999V0209999C000012200019N0100001N1-02831-03201103561ADDGF101991001001999999001011MD1310041+9999REMSYN060AAXX  11091 30692 42997 10000 11283 21320 40356 53004 80001;
0196306920999992000011112004+54000+123970FM-12+040099999V0209999C000012200019N0100001N1-03341-03691103661ADDAA106000091GA1001+999999999GF100991001001999999001001KA1999M-02211MA1999999097991MD1810021+9999REMSYN070AAXX  11121 30692 32997 00000 11334 21369 39799 40366 58002 333 11221;EQDQ01  00002PRCP06
0122306920999992000011115004+54000+123970FM-12+040099999V0209999C000012200019N0100001N1-03511-03871103581ADDGA1001+999999999GF100991001001999999001001MD1710111+9999REMSYN054AAXX  11151 30692 42997 00000 11351 21387 40358 57011;
0122306920999992000011118004+54000+123970FM-12+040099999V0200501N002012200019N0500001N1-03761-04111103571ADDGA1001+999999999GF100991001001999999001001MD1710091+9999REMSYN054AAXX  11181 30692 42999 00502 11376 21411 40357 57009;
0245306920999992000011200004+54000+123970FM-12+040099999V0209999C000012200019N0500001N1-03871-04201103461ADDAA106000091AJ100269199999999GF103991001001999999001011GJ103369IA1239KA1120N-03961MA1999999097671MD1110051+9999REMSYN104AAXX  12001 30692 32999 30000 11387 21420 39767 40346 51005 80001 333 21396 47026 55056 555 1/143 7000/;EQDQ01  00002PRCP06
0122306920999992000011206004+54000+123970FM-12+040099999V0202701N002012200019N0500001N1-01932-02611102701ADDGA1001+999999999GF100991001001999999001001MD1710171+9999REMSYN054AAXX  12061 30692 42999 02702 11193 21261 40270 57017;
0122306920999992000011209004+54000+123970FM-12+040099999V0209999C000012200019N0500001N1-02401-02961102831ADDGA1001+999999999GF100991001001999999001001MD1310021+9999REMSYN054AAXX  12091 30692 42999 00000 11240 21296 40283 53002;
0209306920999992000011212004+54000+123970FM-12+040099999V0209999C000012200019N0500001N1-02831-03201102901ADDAA106000091GA1001+999999999GF100991001001999999001001KA1120M-01931MA1999999097391MD1810021+9999REMSYN083AAXX  12121 30692 32999 00000 11283 21320 39739 40290 58002 333 11193 555 1/135 /-;EQDQ01  00002PRCP06
0122306920999992000011215004+54000+123970FM-12+040099999V0209999C000012200019N0500001N1-03311-03671102991ADDGA1001+999999999GF100991001001999999001001MD1710031+9999REMSYN054AAXX  12151 30692 42999 00000 11331 21367 40299 57003;
0122306920999992000011218004+54000+123970FM-12+040099999V0209999C000012200019N0500001N1-03501-03871103011ADDGA1001+999999999GF100991001001999999001001MD1710031+9999REMSYN054AAXX  12181 30692 42999 00000 11350 21387 40301 57003;
0122306920999992000011221004+54000+123970FM-12+040099999V0202701N002012200019N0500001N1-03781-04111103061ADDGA1001+999999999GF100991001001999999001001MD1710021+9999REMSYN054AAXX  12211 30692 42999 02702 11378 21411 40306 57002;
0255306920999992000011300004+54000+123970FM-12+040099999V0200701N002012200019N0500001N1-03951-04691103161ADDAA106000091AJ100259199999999GA1001+999999999GF100991001001999999001001GJ103909IA1239KA1120N-03991MA1999999097361MD1310051+9999REMSYN098AAXX  13001 30692 32999 00702 11395 21469 39736 40316 53005 333 21399 47025 55065 555 1/143 7000/;EQDQ01  00002PRCP06
0141306920999992000011303004+54000+123970FM-12+040099999V0209999C000012200019N0500001N1-03151-03522102981ADDGA1001+999999999GF100991001001999999001001MD1210011+9999REMSYN054AAXX  13031 30692 42999 00000 11315 21352 40298 52001;EQDQ01-003523ATOD  
0122306920999992000011306004+54000+123970FM-12+040099999V0202501N002012200019N0500001N1-02401-02951102681ADDGA1001+999999999GF100991001001999999001001MD1810101+9999REMSYN054AAXX  13061 30692 42999 02502 11240 21295 40268 58010;
0112306920999992000011309004+54000+123970FM-12+040099999V0200501N001012200019N0500001N1-02981-03351102881ADDGF101991001001999999001011MD1310041+9999REMSYN060AAXX  13091 30692 42999 10501 11298 21335 40288 53004 80001;
0186306920999992000011312004+54000+123970FM-12+040099999V0200501N002012200019N0200001N1-03341-03691102971ADDAA106000091GF102991001001999999001011KA1999M-02261MA1999999097341MD1210031+9999REMSYN076AAXX  13121 30692 32998 20502 11334 21369 39734 40297 52003 80001 333 11226;EQDQ01  00002PRCP06
0112306920999992000011315004+54000+123970FM-12+040099999V0200901N002012200019N0500001N1-03151-03521102981ADDGF102991001001999999001011MD1210031+9999REMSYN060AAXX  13151 30692 42999 20902 11315 21352 40298 52003 80001;
0122306920999992000011318004+54000+123970FM-12+040099999V0200901N002012200019N0200001N1-03361-03721103071ADDGA1001+999999999GF100991001001999999001001MD1210051+9999REMSYN054AAXX  13181 30692 42998 00902 11336 21372 40307 52005;
0126306920999992000011321004+54000+123970FM-12+040099999V0200901N002012200019N0200001N1-03551-03901103151ADDGA1001+999999999GF100991001001999999001001MD1210031+9999REMSYN058    AAXX  13211 30692 42998 00902 11355 21390 40315 52003;
0249306920999992000011400004+54000+123970FM-12+040099999V0200901N002019999999N0500001N1-03581-03931103281ADDAA199000091AJ100259199999999GF106991001001999999001011GJ103489IA1239KA1120N-03631MA1999999097561MD1210111+9999REMSYN108    AAXX  14001 30692 32999 60902 11358 21393 39756 40328 52011 80001 333 21363 47025 55058 555 1/139 7000/;EQDQ01  00002PRCP99
0116306920999992000011403004+54000+123970FM-12+040099999V0209999C000019999999N0500001N1-03151-03521103241ADDGF108991001001999999001011MD1210071+9999REMSYN064    AAXX  14031 30692 42999 80000 11315 21352 40324 52007 80001;
0116306920999992000011406004+54000+123970FM-12+040099999V0209999C000019999999N0200001N1-02571-03031103011ADDGF108991001001999999001071MD1810091+9999REMSYN064    AAXX  14061 30692 42998 80000 11257 21303 40301 58009 80007;
0116306920999992000011409004+54000+123970FM-12+040099999V0200501N001019999999N0100001N1-02901-03271103171ADDGF108991001001999999001011MD1310091+9999REMSYN064    AAXX  14091 30692 42997 80501 11290 21327 40317 53009 80001;
0190306920999992000011412004+54000+123970FM-12+040099999V0200501N001019999999N0100001N1-02961-03261103291ADDAA199000091GF108991001001999999001071KA1999M-02451MA1999999097711MD1210091+9999REMSYN080    AAXX  14121 30692 32997 80501 11296 21326 39771 40329 52009 80007 333 11245;EQDQ01  00002PRCP99
0116306920999992000011415004+54000+123970FM-12+040099999V0200901N002019999999N0100001N1-02931-03241103291ADDGF108991001001999999001071MD1210021+9999REMSYN064    AAXX  14151 30692 42997 80902 11293 21324 40329 52002 80007;
0116306920999992000011418004+54000+123970FM-12+040099999V0200901N002019999999N0100001N1-02991-03301103321ADDGF108991001001999999001071MD1210011+9999REMSYN064    AAXX  14181 30692 42997 80902 11299 21330 40332 52001 80007;
0116306920999992000011421004+54000+123970FM-12+040099999V0200901N001019999999N0100001N1-02971-03281103311ADDGF108991001001999999001071MD1810011+9999REMSYN064    AAXX  14211 30692 42997 80901 11297 21328 40331 58001 80007;
0225306920999992000011500004+54000+123970FM-12+040099999V0209999C000019999999N0500001N1-03201-03501103451ADDAA199000091AJ100259199999999GF108991001001999999001071IA1239KA1120N-03201MA1999999097821MD1310091+9999REMSYN092    AAXX  15001 30692 32999 80000 11320 21350 39782 40345 53009 80007 333 21320 47025 55024;EQDQ01  00002PRCP99
0116306920999992000011503004+54000+123970FM-12+040099999V0209999C000019999999N0200001N1-02821-03201103321ADDGF108991001001999999001011MD1810011+9999REMSYN064    AAXX  15031 30692 42998 80000 11282 21320 40332 58001 80001;
0116306920999992000011506004+54000+123970FM-12+040099999V0209999C000019999999N0100001N1-02401-02871103151ADDGF106991001001999999001071MD1710111+9999REMSYN064    AAXX  15061 30692 42997 60000 11240 21287 40315 57011 80007;
0116306920999992000011509004+54000+123970FM-12+040099999V0209999C000019999999N0100001N1-02851-03221103291ADDGF105991001001999999001071MD1310031+9999REMSYN064    AAXX  15091 30692 42997 50000 11285 21322 40329 53003 80007;
0200306920999992000011512004+54000+123970FM-12+040099999V0209999C000012200019N0200001N1-03331-03691103521ADDAA199000091GA1001+999999999GF100991001001999999001001KA1999M-02401MA1999999097871MD1210141+9999REMSYN074    AAXX  15121 30692 32998 00000 11333 21369 39787 40352 52014 333 11240;EQDQ01  00002PRCP99
0126306920999992000011515004+54000+123970FM-12+040099999V0209999C000012200019N0200001N1-03661-04001103621ADDGA1001+999999999GF100991001001999999001001MD1410001+9999REMSYN058    AAXX  15151 30692 42998 00000 11366 21400 40362 54000;
0126306920999992000011518004+54000+123970FM-12+040099999V0209999C000012200019N0200001N1-03851-04201103681ADDGA1001+999999999GF100991001001999999001001MD1310011+9999REMSYN058    AAXX  15181 30692 42998 00000 11385 21420 40368 53001;
0126306920999992000011521004+54000+123970FM-12+040099999V0209999C000012200019N0200001N1-03961-04291103771ADDGA1001+999999999GF100991001001999999001001MD1210051+9999REMSYN058    AAXX  15211 30692 42998 00000 11396 21429 40377 52005;
0235306920999992000011600004+54000+123970FM-12+040099999V0209999C000012200019N0500001N1-03901-04241103791ADDAA199000091AJ100259199999999GA1001+999999999GF100991001001999999001001IA1239KA1120N-03991MA1999999097881MD1210051+9999REMSYN086    AAXX  16001 30692 32999 00000 11390 21424 39788 40379 52005 333 21399 47025 55059;EQDQ01  00002PRCP99
0116306920999992000011606004+54000+123970FM-12+040099999V0209999C000012200019N0100001N1-02651-03121103281ADDGF102991001001999999001011MD1710171+9999REMSYN064    AAXX  16061 30692 42997 20000 11265 21312 40328 57017 80001;
0126306920999992000011609004+54000+123970FM-12+040099999V0200701N002012200019N0200001N1-03141-03501103401ADDGA1001+999999999GF100991001001999999001001MD1310021+9999REMSYN058    AAXX  16091 30692 42998 00702 11314 21350 40340 53002;
0200306920999992000011612004+54000+123970FM-12+040099999V0200701N002012200019N0100001N1-03671-03971103521ADDAA199000091GA1001+999999999GF100991001001999999001001KA1999M-02561MA1999999097871MD1210011+9999REMSYN074    AAXX  16121 30692 32997 00702 11367 21397 39787 40352 52001 333 11256;EQDQ01  00002PRCP99
0126306920999992000011615004+54000+123970FM-12+040099999V0200901N002012200019N0200001N1-03741-04071103531ADDGA1001+999999999GF100991001001999999001001MD1810021+9999REMSYN058    AAXX  16151 30692 42998 00902 11374 21407 40353 58002;
0126306920999992000011618004+54000+123970FM-12+040099999V0200901N002012200019N0200001N1-03831-04151103531ADDGA1001+999999999GF100991001001999999001001MD1710031+9999REMSYN058    AAXX  16181 30692 42998 00902 11383 21415 40353 57003;
0126306920999992000011621004+54000+123970FM-12+040099999V0200901N002012200019N0200001N1-03751-04291103591ADDGA1001+999999999GF100991001001999999001001MD1310011+9999REMSYN058    AAXX  16211 30692 42998 00902 11375 21429 40359 53001;
0235306920999992000011700004+54000+123970FM-12+040099999V0200501N002012200019N0500001N1-03871-04201103561ADDAA199000091AJ100259199999999GA1001+999999999GF100991001001999999001001IA1239KA1120N-04031MA1999999097761MD1410001+9999REMSYN086    AAXX  17001 30692 32999 00502 11387 21420 39776 40356 54000 333 21403 47025 55058;EQDQ01  00002PRCP99
0145306920999992000011703004+54000+123970FM-12+040099999V0209999C000012200019N0500001N1-03391-03751102392ADDGA1001+999999999GF100991001001999999001001MD1810051+9999REMSYN058    AAXX  17031 30692 42999 00000 11339 21375 40239 58005;EQDQ01+102393APOSLP
0116306920999992000011706004+54000+123970FM-12+040099999V0209999C000012200019N0100001N1-02461-03011103061ADDGF102991001001999999001011MD1710111+9999REMSYN064    AAXX  17061 30692 42997 20000 11246 21301 40306 57011 80001;
0116306920999992000011709004+54000+123970FM-12+040099999V0209999C000012200019N0100001N1-03061-03431103221ADDGF102991001001999999001011MD1310031+9999REMSYN064    AAXX  17091 30692 42997 20000 11306 21343 40322 53003 80001;
0190306920999992000011712004+54000+123970FM-12+040099999V0200501N002012200019N0100001N1-03551-03901103411ADDAA199000091GF102991001001999999001011KA1999M-02351MA1999999097691MD1210061+9999REMSYN080    AAXX  17121 30692 32997 20502 11355 21390 39769 40341 52006 80001 333 11235;EQDQ01  00002PRCP99
0116306920999992000011715004+54000+123970FM-12+040099999V0200501N002012200019N0100001N1-03721-04071103451ADDGF104991001001999999001071MD1210011+9999REMSYN064    AAXX  17151 30692 42997 40502 11372 21407 40345 52001 80007;
0116306920999992000011718004+54000+123970FM-12+040099999V0209999C000012200019N0100001N1-03821-04151103421ADDGF104991001001999999001011MD1810041+9999REMSYN064    AAXX  17181 30692 42997 40000 11382 21415 40342 58004 80001;
0110306920999992000011721004+54000+123970FM-12+040099999V0209999C000019999999N0100001N1-03891-04241103401ADDGF108991999999999999999999MD1710051+9999REMSYN058    AAXX  17211 30692 42997 80000 11389 21424 40340 57005;
0249306920999992000011800004+54000+123970FM-12+040099999V0209999C000012200019N0200001N1-03921-04241103411ADDAA199000091AJ100259199999999GF102991001001999999001011GJ103429IA1239KA1120N-03991MA1999999097621MD1310011+9999REMSYN108    AAXX  18001 30692 32998 20000 11392 21424 39762 40341 53001 80001 333 21399 47025 55057 555 1/143 7000/;EQDQ01  00002PRCP99
0116306920999992000011803004+54000+123970FM-12+040099999V0209999C000012200019N0200001N1-03381-03751103201ADDGF102991001001999999001011MD1810091+9999REMSYN064    AAXX  18031 30692 42998 20000 11338 21375 40320 58009 80001;
0116306920999992000011806004+54000+123970FM-12+040099999V0209999C000019999999N0500001N1-02751-03211102941ADDGF105991001001999999001011MD1710151+9999REMSYN064    AAXX  18061 30692 42999 50000 11275 21321 40294 57015 80001;
0116306920999992000011809004+54000+123970FM-12+040099999V0209999C000019999999N0100001N1-03031-03411103041ADDGF108991001001999999001011MD1310051+9999REMSYN064    AAXX  18091 30692 42997 80000 11303 21341 40304 53005 80001;
0190306920999992000011812004+54000+123970FM-12+040099999V0209999C000012200019N0500001N1-03481-03841103161ADDAA199000091GF102991001001999999001011KA1999M-02751MA1999999097481MD1410001+9999REMSYN080    AAXX  18121 30692 32999 20000 11348 21384 39748 40316 54000 80001 333 11275;EQDQ01  00002PRCP99
0116306920999992000011815004+54000+123970FM-12+040099999V0200501N002019999999N0500001N1-03431-03781103181ADDGF108991999001999999001071MD1310031+9999REMSYN064    AAXX  18151 30692 42999 80502 11343 21378 40318 53003 8/007;
0116306920999992000011818004+54000+123970FM-12+040099999V0200501N002019999999N0200001N1-03431-03781103131ADDGF108991001001999999001071MD1810031+9999REMSYN064    AAXX  18181 30692 42998 80502 11343 21378 40313 58003 80007;
0116306920999992000011821004+54000+123970FM-12+040099999V0200501N002019999999N0200001N1-03471-03841103161ADDGF105991001001999999001011MD1410001+9999REMSYN064    AAXX  18211 30692 42998 50502 11347 21384 40316 54000 80001;
0249306920999992000011900004+54000+123970FM-12+040099999V0200501N002019999999N0500001N1-03541-03901103241ADDAA199000091AJ100259199999999GF107991001001999999001041GJ102889IA1239KA1120N-03661MA1999999097551MD1310071+9999REMSYN108    AAXX  19001 30692 32999 70502 11354 21390 39755 40324 53007 80004 333 21366 47025 55048 555 1/136 7000/;EQDQ01  00002PRCP99
0116306920999992000011903004+54000+123970FM-12+040099999V0200701N002012200019N0500001N1-02951-03331103121ADDGF103991001001999999001011MD1410001+9999REMSYN064    AAXX  19031 30692 42999 30702 11295 21333 40312 54000 80001;
0126306920999992000011906004+54000+123970FM-12+040099999V0209999C000012200019N0500001N1-02061-02731102851ADDGA1001+999999999GF100991001001999999001001MD1810051+9999REMSYN058    AAXX  19061 30692 42999 00000 11206 21273 40285 58005;
0102306920999992000011909004+54000+123970FM-12+040099999V0200501N001012200019N0500001N1-02701-03161103141ADDGF102991001001999999001011REMSYN064    AAXX  19091 30692 42999 20501 11270 21316 40314 5/015 80001;
0200306920999992000011912004+54000+123970FM-12+040099999V0200801N002012200019N0500001N1-03351-03721103411ADDAA199000091GA1001+999999999GF100991001001999999001001KA1999M-02051MA1999999097731MD1210091+9999REMSYN074    AAXX  19121 30692 32999 00802 11335 21372 39773 40341 52009 333 11205;EQDQ01  00002PRCP99
0126306920999992000011915004+54000+123970FM-12+040099999V0200901N002012200019N0500001N1-03601-03981103511ADDGA1001+999999999GF100991001001999999001001MD1210051+9999REMSYN058    AAXX  19151 30692 42999 00902 11360 21398 40351 52005;
0122306920999992000011918004+54000+123970FM-12+040099999V0200901N002012200019N0500001N1-03801-04151103621ADDGA1001+999999999GF100991001001999999001001MD1210061+9999REMSYN054AAXX  19181 30692 42999 00902 11380 21415 40362 52006;
0122306920999992000011921004+54000+123970FM-12+040099999V0200501N002012200019N0500001N1-03861-04201103671ADDGA1001+999999999GF100991001001999999001001MD1210031+9999REMSYN054AAXX  19211 30692 42999 00502 11386 21420 40367 52003;
0255306920999992000012000004+54000+123970FM-12+040099999V0200501N002012200019N0200001N1-03951-04291103841ADDAA199000091AJ100259199999999GA1001+999999999GF100991001001999999001001GJ103669IA1239KA1120N-04061MA1999999098001MD1210131+9999REMSYN098AAXX  20001 30692 32998 00502 11395 21429 39800 40384 52013 333 21406 47025 55061 555 1/144 7000/;EQDQ01  00002PRCP99
0122306920999992000012003004+54000+123970FM-12+040099999V0209999C000012200019N0500001N1-03541-03691103651ADDGA1001+999999999GF100991001001999999001001MD1810021+9999REMSYN054AAXX  20031 30692 42999 00000 11354 21369 40365 58002;
0112306920999992000012006004+54000+123970FM-12+040099999V0201601N002012200019N0200001N1-02402-02961103321ADDGF103991001001999999001011MD1710111+9999REMSYN060AAXX  20061 30692 42998 31602 11240 21296 40332 57011 80001;
0112306920999992000012009004+54000+123970FM-12+040099999V0209999C000012200019N0100001N1-02921-03291103441ADDGF103991001001999999001011MD1310011+9999REMSYN060AAXX  20091 30692 42997 30000 11292 21329 40344 53001 80001;
0186306920999992000012012004+54000+123970FM-12+040099999V0200501N002019999999N0100001N1-03391-03751103561ADDAA199000091GF108991001001999999001071KA1999M-02311MA1999999097881MD1410001+9999REMSYN076AAXX  20121 30692 32997 80502 11339 21375 39788 40356 54000 80007 333 11231;EQDQ01  00002PRCP99
0112306920999992000012015004+54000+123970FM-12+040099999V0200501N002019999999N0100001N1-03151-03521103431ADDGF108991001001999999001071MD1810081+9999REMSYN060AAXX  20151 30692 42997 80502 11315 21352 40343 58008 80007;
0122306920999992000012018004+54000+123970FM-12+040099999V0209999C000012200019N0100001N1-03401-03751103461ADDGA1001+999999999GF100991001001999999001001MD1710021+9999REMSYN054AAXX  20181 30692 42997 00000 11340 21375 40346 57002;
0122306920999992000012021004+54000+123970FM-12+040099999V0209999C000012200019N0100001N1-03761-04111103571ADDGA1001+999999999GF100991001001999999001001MD1310011+9999REMSYN054AAXX  20211 30692 42997 00000 11376 21411 40357 53001;
0225306920999992000012100004+54000+123970FM-12+040099999V0209999C000019999999N0500001N1-04051-04381103741ADDAA199000091AJ100259199999999GF105991001001999999001011GJ100309IA1239KA1120N-04051MA1999999097891REMSYN098AAXX  21001 30692 32999 50000 11405 21438 39789 40374 80001 333 21405 47025 55005 555 1/145 7000/;EQDQ01  00002PRCP99
0112306920999992000012103004+54000+123970FM-12+040099999V0209999C000012200019N0500001N1-03201-03571103581ADDGF102991001001999999001011MD1210081+9999REMSYN060AAXX  21031 30692 42999 20000 11320 21357 40358 52008 80001;
0122306920999992000012106004+54000+123970FM-12+040099999V0200501N002012200019N0100001N1-02211-02691103241ADDGA1001+999999999GF100991001001999999001001MD1810101+9999REMSYN054AAXX  21061 30692 42997 00502 11221 21269 40324 58010;
0122306920999992000012109004+54000+123970FM-12+040099999V0209999C000012200019N0200001N1-02831-03201103501ADDGA1001+999999999GF100991001001999999001001MD1310111+9999REMSYN054AAXX  21091 30692 42998 00000 11283 21320 40350 53011;
0196306920999992000012112004+54000+123970FM-12+040099999V0209999C000012200019N0200001N1-03411-03781103771ADDAA199000091GA1001+999999999GF100991001001999999001001KA1999M-02211MA1999999098081MD1210131+9999REMSYN070AAXX  21121 30692 32998 00000 11341 21378 39808 40377 52013 333 11221;EQDQ01  00002PRCP99
0122306920999992000012115004+54000+123970FM-12+040099999V0209999C000012200019N0200001N1-03901-04241104001ADDGA1001+999999999GF100991001001999999001001MD1210091+9999REMSYN054AAXX  21151 30692 42998 00000 11390 21424 40400 52009;
0122306920999992000012118004+54000+123970FM-12+040099999V0209999C000012200019N0200001N1-03831-04151103781ADDGA1001+999999999GF100991001001999999001001MD1810051+9999REMSYN054AAXX  21181 30692 42998 00000 11383 21415 40378 58005;
0122306920999992000012121004+54000+123970FM-12+040099999V0209999C000012200019N0200001N1-04001-04331103911ADDGA1001+999999999GF100991001001999999001001MD1710021+9999REMSYN054AAXX  21211 30692 42998 00000 11400 21433 40391 57002;
0255306920999992000012200004+54000+123970FM-12+040099999V0202701N001012200019N0500001N1-03881-04241103971ADDAA199000091AJ100259199999999GA1001+999999999GF100991001001999999001001GJ103549IA1239KA1120N-04111MA1999999098141MD1310071+9999REMSYN098AAXX  22001 30692 32999 02701 11388 21424 39814 40397 53007 333 21411 47025 55059 555 1/144 7000/;EQDQ01  00002PRCP99
0157306920999992000012203004+54000+123970FM-12+040099999V0203401N002012200019N0500001N1-02362-03022103571ADDGA1001+999999999GF100991001001999999001001MD1810041+9999REMSYN054AAXX  22031 30692 42999 03402 11236 21302 40357 58004;EQDQ01-002363ATOT  Q02-003023ATOD  
0122306920999992000012206004+54000+123970FM-12+040099999V0203401N004012200019N0500001N1-02121-03001103531ADDGA1001+999999999GF100991001001999999001001MD1310031+9999REMSYN054AAXX  22061 30692 42999 03404 11212 21300 40353 53003;
0122306920999992000012209004+54000+123970FM-12+040099999V0201401N002012200019N0500001N1-02321-03181103601ADDGA1001+999999999GF100991001001999999001001MD1210131+9999REMSYN054AAXX  22091 30692 42999 01402 11232 21318 40360 52013;
0196306920999992000012212004+54000+123970FM-12+040099999V0203201N002012200019N0500001N1-02501-03241103631ADDAA199000091GA1001+999999999GF100991001001999999001001KA1999M-02121MA1999999098331MD1210071+9999REMSYN070AAXX  22121 30692 32999 03202 11250 21324 39833 40363 52007 333 11212;EQDQ01  00002PRCP99
0122306920999992000012215004+54000+123970FM-12+040099999V0209999C000012200019N0500001N1-02601-03431103941ADDGA1001+999999999GF100991001001999999001001MD1210061+9999REMSYN054AAXX  22151 30692 42999 00000 11260 21343 40394 52006;
0122306920999992000012218004+54000+123970FM-12+040099999V0203401N004012200019N0500001N1-02681-03421103951ADDGA1001+999999999GF100991001001999999001001MD1210011+9999REMSYN054AAXX  22181 30692 42999 03404 11268 21342 40395 52001;
0122306920999992000012221004+54000+123970FM-12+040099999V0202701N001012200019N0500001N1-02871-03601103871ADDGA1001+999999999GF100991001001999999001001MD1810021+9999REMSYN054AAXX  22211 30692 42999 02701 11287 21360 40387 58002;
0255306920999992000012300004+54000+123970FM-12+040099999V0202701N002012200019N0500001N1-02921-03541103951ADDAA199000091AJ100259199999999GA1001+999999999GF100991001001999999001001GJ103669IA1239KA1120N-03021MA1999999098361MD1710021+9999REMSYN098AAXX  23001 30692 32999 02702 11292 21354 39836 40395 57002 333 21302 47025 55061 555 1/136 7000/;EQDQ01  00002PRCP99
0122306920999992000012303004+54000+123970FM-12+040099999V0202701N002012200019N0500001N1-02381-03131103751ADDGA1001+999999999GF100991001001999999001001MD1710081+9999REMSYN054AAXX  23031 30692 42999 02702 11238 21313 40375 57008;
0132306920999992000012306004+54000+123970FM-12+040099999V0203601N006012200019N0500001N1-02091-02971103601ADDGA1001+999999999GF100991001001999999001001MD1710081+9999REMSYN064AAXX  23061 30692 42999 03606 11209 21297 40360 57008 333 91010;
0122306920999992000012309004+54000+123970FM-12+040099999V0203201N002012200019N0500001N1-02291-03161103731ADDGA1001+999999999GF100991001001999999001001MD1310071+9999REMSYN054AAXX  23091 30692 42999 03202 11229 21316 40373 53007;
0196306920999992000012312004+54000+123970FM-12+040099999V0203201N002012200019N0500001N1-02401-03151103821ADDAA199000091GA1001+999999999GF100991001001999999001001KA1999M-02061MA1999999098341MD1210071+9999REMSYN070AAXX  23121 30692 32999 03202 11240 21315 39834 40382 52007 333 11206;EQDQ01  00002PRCP99
0112306920999992000012315004+54000+123970FM-12+040099999V0203201N002012200019N0500001N1-03151-03591103961ADDGF103991001001999999001011MD1810041+9999REMSYN060AAXX  23151 30692 42999 33202 11315 21359 40396 58004 80001;
0112306920999992000012318004+54000+123970FM-12+040099999V0203201N002019999999N0200001N1-03151-03521103941ADDGF108991001001999999001071MD1710011+9999REMSYN060AAXX  23181 30692 42998 83202 11315 21352 40394 57001 80007;
0112306920999992000012321004+54000+123970FM-12+040099999V0203201N002012200019N0500001N1-03121-03501103961ADDGF101991001001999999001011MD1310031+9999REMSYN060AAXX  23211 30692 42999 13202 11312 21350 40396 53003 80001;
0231306920999992000012400004+54000+123970FM-12+040099999V0202701N002012200019N0500001N1-02831-03281103941ADDAA199000091AJ100259199999999GA1001+999999999GF100991001001999999001001IA1239KA1120N-03301MA1999999098371MD1210051+9999REMSYN082AAXX  24001 30692 32999 02702 11283 21328 39837 40394 52005 333 21330 47025 55074;EQDQ01  00002PRCP99
0112306920999992000012403004+54000+123970FM-12+040099999V0202701N002012200019N0500001N1-01941-02641103711ADDGF103991001001999999001011MD1810021+9999REMSYN060AAXX  24031 30692 42999 32702 11194 21264 40371 58002 80001;
0112306920999992000012406004+54000+123970FM-12+040099999V0202701N002012200019N0500001N1-01621-02541103461ADDGF103991001001999999001011MD1710171+9999REMSYN060AAXX  24061 30692 42999 32702 11162 21254 40346 57017 80001;
0112306920999992000012409004+54000+123970FM-12+040099999V0209999C000019999999N0500001N1-01831-02621103331ADDGF108991001001999999001011MD1710171+9999REMSYN060AAXX  24091 30692 42999 80000 11183 21262 40333 57017 80001;
0186306920999992000012412004+54000+123970FM-12+040099999V0209999C000019999999N0200001N1-02241-02721103201ADDAA199000091GF106991001001999999001011KA1999M-01621MA1999999097801MD1710201+9999REMSYN076AAXX  24121 30692 32998 60000 11224 21272 39780 40320 57020 80001 333 11162;EQDQ01  00002PRCP99
0112306920999992000012415004+54000+123970FM-12+040099999V0209999C000019999999N0200001N1-01831-02331102961ADDGF108991081001999999021999MD1710141+9999REMSYN060AAXX  24151 30692 42998 80000 11183 21233 40296 57014 8802/;
0122306920999992000012421004+54000+123970FM-12+040099999V0203601N004012200019N0500001N1-01441-02051103181ADDGA1001+999999999GF100991001001999999001001MD1210231+9999REMSYN054AAXX  24211 30692 42999 03604 11144 21205 40318 52023;
0255306920999992000012500004+54000+123970FM-12+040099999V0202701N002012200019N0500001N1-01851-02541103421ADDAA199000091AJ100259199999999GA1001+999999999GF100991001001999999001001GJ103249IA1239KA1120N-02241MA1999999098071MD1210121+9999REMSYN098AAXX  25001 30692 32999 02702 11185 21254 39807 40342 52012 333 21224 47025 55054 555 1/129 7000/;EQDQ01  00002PRCP99
0122306920999992000012503004+54000+123970FM-12+040099999V0202901N002012200019N0500001N1-01161-01991103361ADDGA1001+999999999GF100991001001999999001001MD1210081+9999REMSYN054AAXX  25031 30692 42999 02902 11116 21199 40336 52008;
0122306920999992000012506004+54000+123970FM-12+040099999V0203201N005012200019N0500001N1-00951-02021103321ADDGF102991001001999999001011MD1210021+9999REMSYN070AAXX  25061 30692 42999 23205 11095 21202 40332 52002 80001 333 91010;
0112306920999992000012509004+54000+123970FM-12+040099999V0209999C000012200019N0500001N1-01221-02171103551ADDGF101991001001999999001011MD1210161+9999REMSYN060AAXX  25091 30692 42999 10000 11122 21217 40355 52016 80001;
0196306920999992000012512004+54000+123970FM-12+040099999V0202701N002012200019N0500001N1-01421-02131103651ADDAA199000091GA1001+999999999GF100991001001999999001001KA1999M-00941MA1999999098391MD1210081+9999REMSYN070AAXX  25121 30692 32999 02702 11142 21213 39839 40365 52008 333 11094;EQDQ01  00002PRCP99
0122306920999992000012515004+54000+123970FM-12+040099999V0203201N002012200019N0500001N1-01681-02371103791ADDGA1001+999999999GF100991001001999999001001MD1210071+9999REMSYN054AAXX  25151 30692 42999 03202 11168 21237 40379 52007;
0122306920999992000012518004+54000+123970FM-12+040099999V0202701N002012200019N0500001N1-02181-02581103961ADDGA1001+999999999GF100991001001999999001001MD1210081+9999REMSYN054AAXX  25181 30692 42999 02702 11218 21258 40396 52008;
0122306920999992000012521004+54000+123970FM-12+040099999V0202901N002012200019N0500001N1-02601-02911103991ADDGA1001+999999999GF100991001001999999001001MD1810051+9999REMSYN054AAXX  25211 30692 42999 02902 11260 21291 40399 58005;
0221306920999992000012600004+54000+123970FM-12+040099999V0202901N001019999999N0500001N1-02641-02951104001ADDAA199000091AJ100259199999999GF106991001001999999001011IA1239KA1120N-02941MA1999999098491MD1310011+9999REMSYN088AAXX  26001 30692 32999 62901 11264 21295 39849 40400 53001 80001 333 21294 47025 55074;EQDQ01  00002PRCP99
0112306920999992000012603004+54000+123970FM-12+040099999V0202801N001019999999N0500001N1-02161-02431103821ADDGF106991001001999999001011MD1810071+9999REMSYN060AAXX  26031 30692 42999 62801 11216 21243 40382 58007 80001;
0112306920999992000012606004+54000+123970FM-12+040099999V0209999C000012200019N0500001N1-00862-01851103321ADDGF101991001001999999001011MD1710241+9999REMSYN060AAXX  26061 30692 42999 10000 11086 21185 40332 57024 80001;
0122306920999992000012609004+54000+123970FM-12+040099999V0202701N002012200019N0200001N1-01331-02271103231ADDGA1001+999999999GF100991001001999999001001MD1710161+9999REMSYN054AAXX  26091 30692 42998 02702 11133 21227 40323 57016;
0206306920999992000012612004+54000+123970FM-12+040099999V0200501N002012200019N0200001N1-02561-02881103371ADDAA199000091GA1001+999999999GF100991001001999999001001KA1120M-00801MA1999999097881MD1710131+9999REMSYN080AAXX  26121 30692 32998 00502 11256 21288 39788 40337 57013 333 11080 555 1/133;EQDQ01  00002PRCP99
0122306920999992000012615004+54000+123970FM-12+040099999V0200901N002012200019N0200001N1-03011-03321103351ADDGA1001+999999999GF100991001001999999001001MD1710111+9999REMSYN054AAXX  26151 30692 42998 00902 11301 21332 40335 57011;
0122306920999992000012618004+54000+123970FM-12+040099999V0200701N002012200019N0200001N1-03251-03551103421ADDGA1001+999999999GF100991001001999999001001MD1410001+9999REMSYN054AAXX  26181 30692 42998 00702 11325 21355 40342 54000;
0122306920999992000012621004+54000+123970FM-12+040099999V0200901N002012200019N0200001N1-03301-03601103391ADDGA1001+999999999GF100991001001999999001001MD1810031+9999REMSYN054AAXX  26211 30692 42998 00902 11330 21360 40339 58003;
0255306920999992000012700004+54000+123970FM-12+040099999V0200901N002012200019N0500001N1-03351-03651103471ADDAA199000091AJ100259199999999GA1001+999999999GF100991001001999999001001GJ102589IA1239KA1120N-03471MA1999999097941MD1310051+9999REMSYN098AAXX  27001 30692 32999 00902 11335 21365 39794 40347 53005 333 21347 47025 55043 555 1/138 7000/;EQDQ01  00002PRCP99
0122306920999992000012703004+54000+123970FM-12+040099999V0209999C000012200019N0500001N1-02561-02881103171ADDGA1001+999999999GF100991001001999999001001MD1810101+9999REMSYN054AAXX  27031 30692 42999 00000 11256 21288 40317 58010;
0122306920999992000012706004+54000+123970FM-12+040099999V0209999C000012200019N0500001N1-01501-02201102741ADDGA1001+999999999GF100991001001999999001001MD1710191+9999REMSYN054AAXX  27061 30692 42999 00000 11150 21220 40274 57019;
0122306920999992000012709004+54000+123970FM-12+040099999V0209999C000012200019N0200001N1-01951-02531102751ADDGA1001+999999999GF100991001001999999001001MD1710061+9999REMSYN054AAXX  27091 30692 42998 00000 11195 21253 40275 57006;
0206306920999992000012712004+54000+123970FM-12+040099999V0209999C000012200019N0200001N1-02841-03221102911ADDAA199000091GA1001+999999999GF100991001001999999001001KA1120M-01571MA1999999097401MD1710041+9999REMSYN080AAXX  27121 30692 32998 00000 11284 21322 39740 40291 57004 333 11157 555 1/135;EQDQ01  00002PRCP99
0122306920999992000012715004+54000+123970FM-12+040099999V0200501N002012200019N0200001N1-02801-03181102841ADDGA1001+999999999GF100991001001999999001001MD1710071+9999REMSYN054AAXX  27151 30692 42998 00502 11280 21318 40284 57007;
0112306920999992000012718004+54000+123970FM-12+040099999V0200501N002019999999N0200001N1-02931-03311102851ADDGF105991001001999999001011MD1710021+9999REMSYN060AAXX  27181 30692 42998 50502 11293 21331 40285 57002 80001;
0112306920999992000012721004+54000+123970FM-12+040099999V0200501N002019999999N0200001N1-02901-03121102811ADDGF108991081001999999031999MD1710031+9999REMSYN060AAXX  27211 30692 42998 80502 11290 21312 40281 57003 8803/;
0245306920999992000012800004+54000+123970FM-12+040099999V0200501N002019999999N0500001N1-02691-03001102861ADDAA199000091AJ100259199999999GF108991031001999999031011GJ102889IA1239KA1120N-03061MA1999999097371MD1310081+9999REMSYN104AAXX  28001 30692 32999 80502 11269 21300 39737 40286 53008 83031 333 21306 47025 55048 555 1/129 700#/;EQDQ01  00002PRCP99
0122306920999992000012809004+54000+123970FM-12+040099999V0203401N006019999999N0500001N1-01231-01951102571ADDGF108991001001999999001041MD1210031+9999REMSYN070AAXX  28091 30692 42999 83406 11123 21195 40257 52003 80004 333 91012;
0196306920999992000012812004+54000+123970FM-12+040099999V0203601N005012200019N0500001N1-01581-02501103161ADDAA199000091GA1001+999999999GF100991001001999999001001KA1999M-01101MA1999999097891MD1210151+9999REMSYN070AAXX  28121 30692 32999 03605 11158 21250 39789 40316 52015 333 11110;EQDQ01  00002PRCP99
0112306920999992000012815004+54000+123970FM-12+040099999V0203601N002012200019N0500001N1-01721-02731103311ADDGF102991001001999999001011MD1210121+9999REMSYN060AAXX  28151 30692 42999 23602 11172 21273 40331 52012 80001;
0112306920999992000012818004+54000+123970FM-12+040099999V02099999999992200019N0500001N1-01821-02821103511ADDGF102991001001999999001011MD1210181+9999REMSYN060AAXX  28181 30692 42999 23704 11182 21282 40351 52018 80001;
0112306920999992000012821004+54000+123970FM-12+040099999V0200201N002012200019N0200001N1-02001-02781103771ADDGF101991001001999999001011MD1210211+9999REMSYN060AAXX  28211 30692 42998 10202 11200 21278 40377 52021 80001;
0245306920999992000012900004+54000+123970FM-12+040099999V0203601N006012200019N0500001N1-02121-02891104061ADDAA199000091AJ100259199999999GF101991001001999999001011GJ100789IA1239KA1120N-02161MA1999999098641MD1210261+9999REMSYN104AAXX  29001 30692 32999 13606 11212 21289 39864 40406 52026 80001 333 21216 47025 55013 555 1/130 7000/;EQDQ01  00002PRCP99
0122306920999992000012906004+54000+123970FM-12+040099999V0200201N004012200019N0500001N1-01641-02561104131ADDGA1001+999999999GF100991001001999999001001MD1410001+9999REMSYN054AAXX  29061 30692 42999 00204 11164 21256 40413 54000;
0122306920999992000012909004+54000+123970FM-12+040099999V0200501N001012200019N0500001N1-01911-02811104251ADDGA1001+999999999GF100991001001999999001001MD1310061+9999REMSYN054AAXX  29091 30692 42999 00501 11191 21281 40425 53006;
0196306920999992000012912004+54000+123970FM-12+040099999V0203601N004012200019N0200001N1-01921-02821104311ADDAA199000091GA1001+999999999GF100991001001999999001001KA1999M-01601MA1999999098911MD1210051+9999REMSYN070AAXX  29121 30692 32998 03604 11192 21282 39891 40431 52005 333 11160;EQDQ01  00002PRCP99
0122306920999992000012915004+54000+123970FM-12+040099999V0203201N002012200019N0200001N1-02101-02871999999ADDGA1001+999999999GF100991001001999999001001MD1210011+9999REMSYN054AAXX  29151 30692 42998 03202 11210 21287 404/6 52001;
0122306920999992000012918004+54000+123970FM-12+040099999V0202301N002012200019N0200001N1+99999+99999104361ADDGA1001+999999999GF100991001001999999001001MD1810041+9999REMSYN054AAXX  29181 30692 42998 02302 17/26 21302 40436 58004;
0122306920999992000012921004+54000+123970FM-12+040099999V0202301N001012200019N0200001N1-02401-03051104351ADDGA1001+999999999GF100991001001999999001001MD1710031+9999REMSYN054AAXX  29211 30692 42998 02301 11240 21305 40435 57003;
0255306920999992000013000004+54000+123970FM-12+040099999V0202701N002012200019N0500001N1-02331-02981104331ADDAA199000091AJ100259199999999GA1001+999999999GF100991001001999999001001GJ104569IA1239KA1120N-02461MA1999999098851MD1410001+9999REMSYN098AAXX  30001 30692 32999 02702 11233 21298 39885 40433 54000 333 21246 47025 55076 555 1/130 7000/;EQDQ01  00002PRCP99
0122306920999992000013003004+54000+123970FM-12+040099999V0203201N002012200019N0500001N1-01731-02521104201ADDGA1001+999999999GF100991001001999999001001MD1310011+9999REMSYN054AAXX  30031 30692 42999 03202 11173 21252 40420 53001;
0112306920999992000013006004+54000+123970FM-12+040099999V0203201N004019999999N0500001N1-01371-02311103951ADDGF106991061001999999031001MD1810171+9999REMSYN060AAXX  30061 30692 42999 63204 11137 21231 40395 58017 86030;
0112306920999992000013009004+54000+123970FM-12+040099999V0203201N002019999999N0500001N1-01521-02331103891ADDGF105991001001999999001011MD1710081+9999REMSYN060AAXX  30091 30692 42999 53202 11152 21233 40389 57008 80001;
0196306920999992000013012004+54000+123970FM-12+040099999V0209999C000012200019N0500001N1-02221-02781104001ADDAA199000091GA1001+999999999GF100991001001999999001001KA1999M-01371MA1999999098561MD1710041+9999REMSYN070AAXX  30121 30692 32999 00000 11222 21278 39856 40400 57004 333 11137;EQDQ01  00002PRCP99
0122306920999992000013015004+54000+123970FM-12+040099999V0202701N002012200019N0500001N1-02411-02891103901ADDGA1001+999999999GF100991001001999999001001MD1710141+9999REMSYN054AAXX  30151 30692 42999 02702 11241 21289 40390 57014;
0122306920999992000013018004+54000+123970FM-12+040099999V0202701N004012200019N0500001N1-02221-02691103871ADDGA1001+999999999GF100991001001999999001001MD1310021+9999REMSYN054AAXX  30181 30692 42999 02704 11222 21269 40387 53002;
0122306920999992000013021004+54000+123970FM-12+040099999V0203201N002012200019N0500001N1-02531-02901103821ADDGA1001+999999999GF100991001001999999001001MD1810101+9999REMSYN054AAXX  30211 30692 42999 03202 11253 21290 40382 58010;
0245306920999992000013100004+54000+123970FM-12+040099999V0202901N002012200019N0500001N1-02701-03011103821ADDAA199000091AJ100249199999999GF102991001001999999001011GJ103429IA1239KA1120N-02701MA1999999098281MD1710061+9999REMSYN104AAXX  31001 30692 32999 22902 11270 21301 39828 40382 57006 80001 333 21270 47024 55057 555 1/130 7000/;EQDQ01  00002PRCP99
0112306920999992000013103004+54000+123970FM-12+040099999V0202701N001012200019N0200001N1-01701-02291103451ADDGF102991001001999999001011MD1710071+9999REMSYN060AAXX  31031 30692 42998 22701 11170 21229 40345 57007 80001;
0112306920999992000013106004+54000+123970FM-12+040099999V0202501N004012200019N0500001N1-00881-01891103011ADDGF102991001001999999001011MD1710261+9999REMSYN060AAXX  31061 30692 42999 22504 11088 21189 40301 57026 80001;
0112306920999992000013109004+54000+123970FM-12+040099999V0202701N001012200019N0500001N1-01501-02311103051ADDGF101991001001999999001011MD1710081+9999REMSYN060AAXX  31091 30692 42999 12701 11150 21231 40305 57008 80001;
0206306920999992000013112004+54000+123970FM-12+040099999V0203201N002012200019N0500001N1-02451-02851103161ADDAA199000091GA1001+999999999GF100991001001999999001001KA1120M-00821MA1999999097711MD1710091+9999REMSYN080AAXX  31121 30692 32999 03202 11245 21285 39771 40316 57009 333 11082 555 1/128;EQDQ01  00002PRCP99
0122306920999992000013115004+54000+123970FM-12+040099999V0200501N002012200019N0500001N1-02651-02901103171ADDGA1001+999999999GF100991001001999999001001MD1710031+9999REMSYN054AAXX  31151 30692 42999 00502 11265 21290 40317 57003;
0122306920999992000013118004+54000+123970FM-12+040099999V0200701N002012200019N0500001N1-03151-03381103201ADDGA1001+999999999GF100991001001999999001001MD1710101+9999REMSYN054AAXX  31181 30692 42999 00702 11315 21338 40320 57010;
0122306920999992000013121004+54000+123970FM-12+040099999V0209999C000012200019N0500001N1-03101-03401103131ADDGA1001+999999999GF100991001001999999001001MD1719999+9999REMSYN054AAXX  31211 30692 42999 00000 11310 21340 40313 570/4;
0245306920999992000020100004+54000+123970FM-12+040099999V0209999C000012200019N0200001N1-03261-03551103201ADDAA199000091AJ100249199999999GF101991001001999999001011GJ104569IA1239KA1120N-03261MA1999999097561MD1310021+9999REMSYN104AAXX  01001 30692 32998 10000 11326 21355 39756 40320 53002 80001 333 21326 47024 55076 555 1/136 7000/;EQDQ01  00002PRCP99
0112306920999992000020103004+54000+123970FM-12+040099999V0209999C000012200019N0500001N1-02351-02551102861ADDGF101991001001999999001011MD1810041+9999REMSYN060AAXX  01031 30692 42999 10000 11235 21255 40286 58004 80001;
0122306920999992000020106004+54000+123970FM-12+040099999V0209999C000012200019N0500001N1-01002-01971102371ADDGA1001+999999999GF100991001001999999001001MD1710221+9999REMSYN054AAXX  01061 30692 42999 00000 11100 21197 40237 57022;
0122306920999992000020109004+54000+123970FM-12+040099999V0209999C000012200019N0200001N1-01771-02361102491ADDGA1001+999999999GF100991001001999999001001MD1710041+9999REMSYN054AAXX  01091 30692 42998 00000 11177 21236 40249 57004;
0196306920999992000020112004+54000+123970FM-12+040099999V0200501N002012200019N0200001N1-02611-02851102701ADDAA199000091GA1001+999999999GF100991001001999999001001KA1999M-00891MA1999999097241MD1310031+9999REMSYN070AAXX  01121 30692 32998 00502 11261 21285 39724 40270 53003 333 11089;EQDQ01  00002PRCP99
0122306920999992000020115004+54000+123970FM-12+040099999V0200501N002012200019N0200001N1-03001-03231102771ADDGA1001+999999999GF100991001001999999001001MD1810021+9999REMSYN054AAXX  01151 30692 42998 00502 11300 21323 40277 58002;
0122306920999992000020118004+54000+123970FM-12+040099999V0200501N002012200019N0500001N1-03101-03401102811ADDGA1001+999999999GF100991001001999999001001MD1310021+9999REMSYN054AAXX  01181 30692 42999 00502 11310 21340 40281 53002;
0122306920999992000020121004+54000+123970FM-12+040099999V0200501N002012200019N0200001N1-03271-03571102831ADDGA1001+999999999GF100991001001999999001001MD1810031+9999REMSYN054AAXX  01211 30692 42998 00502 11327 21357 40283 58003;
0255306920999992000020200004+54000+123970FM-12+040099999V0200501N002012200019N0200001N1-03271-03571102941ADDAA199000091AJ100249199999999GA1001+999999999GF100991001001999999001001GJ103369IA1239KA1120N-03351MA1999999097311MD1310101+9999REMSYN098AAXX  02001 30692 32998 00502 11327 21357 39731 40294 53010 333 21335 47024 55056 555 1/137 7000/;EQDQ01  00002PRCP99
0122306920999992000020203004+54000+123970FM-12+040099999V0209999C000012200019N0500001N1-02431-02751102751ADDGA1001+999999999GF100991001001999999001001MD1210021+9999REMSYN054AAXX  02031 30692 42999 00000 11243 21275 40275 52002;
0122306920999992000020206004+54000+123970FM-12+040099999V0209999C000012200019N0500001N1-01332-02041102371ADDGA1001+999999999GF100991001001999999001001MD1810141+9999REMSYN054AAXX  02061 30692 42999 00000 11133 21204 40237 58014;
0122306920999992000020209004+54000+123970FM-12+040099999V0209999C000012200019N0500001N1-01881-02461102491ADDGA1001+999999999GF100991001001999999001001MD1410001+9999REMSYN054AAXX  02091 30692 42999 00000 11188 21246 40249 54000;
0196306920999992000020212004+54000+123970FM-12+040099999V0209999C000012200019N0500001N1-02651-03121102731ADDAA199000091GA1001+999999999GF100991001001999999001001KA1999M-01311MA1999999097251MD1310061+9999REMSYN070AAXX  02121 30692 32999 00000 11265 21312 39725 40273 53006 333 11131;EQDQ01  00002PRCP99
0122306920999992000020215004+54000+123970FM-12+040099999V0209999C000012200019N0500001N1-02901-03271102151ADDGA1001+999999999GF100991001001999999001001MD1810021+9999REMSYN054AAXX  02151 30692 42999 00000 11290 21327 40215 58002;
0122306920999992000020218004+54000+123970FM-12+040099999V0209999C000012200019N0500001N1-03051-03411102761ADDGA1001+999999999GF100991001001999999001001MD1710041+9999REMSYN054AAXX  02181 30692 42999 00000 11305 21341 40276 57004;
0122306920999992000020221004+54000+123970FM-12+040099999V0209999C000012200019N0500001N1+99999+99999102761ADDGA1001+999999999GF100991001001999999001001MD1710031+9999REMSYN054AAXX  02211 30692 42999 00000 17321 21357 40276 57003;
0245306920999992000020300004+54000+123970FM-12+040099999V0200601N002012200019N0500001N1-03361-03661102891ADDAA199000091AJ100249199999999GF102991001001999999001011GJ103189IA1239KA1120N-03361MA1999999097251MD1310091+9999REMSYN104AAXX  03001 30692 32999 20602 11336 21366 39725 40289 53009 80001 333 21336 47024 55053 555 1/136 7000/;EQDQ01  00002PRCP99
0112306920999992000020306004+54000+123970FM-12+040099999V0209999C000019999999N0500001N1-02751-02971102741ADDGF105991001001999999001041MD1210031+9999REMSYN060AAXX  03061 30692 42999 50000 11275 21297 40274 52003 80004;
0112306920999992000020309004+54000+123970FM-12+040099999V0209999C000019999999N0500001N1-01721-02731102711ADDGF105991001001999999001011MD1310061+9999REMSYN060AAXX  03091 30692 42999 50000 11172 21273 40271 53006 80001;
0196306920999992000020312004+54000+123970FM-12+040099999V0209999C000012200019N0500001N1-02751-03061102781ADDAA199000091GA1001+999999999GF100991001001999999001001KA1999M-01251MA1999999098281MD1210021+9999REMSYN070AAXX  03121 30692 32999 00000 11275 21306 39828 40278 52002 333 11125;EQDQ01  00002PRCP99
0122306920999992000020315004+54000+123970FM-12+040099999V0200701N002012200019N0500001N1-03051-03361102701ADDGA1001+999999999GF100991001001999999001001MD1210041+9999REMSYN054AAXX  03151 30692 42999 00702 11305 21336 40270 52004;
0122306920999992000020318004+54000+123970FM-12+040099999V0200901N002012200019N0500001N1-03201-03401102951ADDGA1001+999999999GF100991001001999999001001MD1210051+9999REMSYN054AAXX  03181 30692 42999 00902 11320 21340 40295 52005;
0122306920999992000020321004+54000+123970FM-12+040099999V0200901N002012200019N0500001N1-03401-03681103061ADDGA1001+999999999GF100991001001999999001001MD1210041+9999REMSYN054AAXX  03211 30692 42999 00902 11340 21368 40306 52004;
0255306920999992000020400004+54000+123970FM-12+040099999V0200501N002012200019N0200001N1-03651-03941103171ADDAA199000091AJ100249199999999GA1001+999999999GF100991001001999999001001GJ102229IA1239KA1120N-03651MA1999999097441MD1210031+9999REMSYN098AAXX  04001 30692 32998 00502 11365 21394 39744 40317 52003 333 21365 47024 55037 555 1/140 7000/;EQDQ01  00002PRCP99
0122306920999992000020406004+54000+123970FM-12+040099999V0209999C000012200019N0500001N1-01502-02202102621ADDGA1001+999999999GF100991001001999999001001MD1710031+9999REMSYN054AAXX  04061 30692 42999 00000 11150 21220 40262 57003;
0122306920999992000020409004+54000+123970FM-12+040099999V0209999C000012200019N0200001N1-01941-02521102731ADDGA1001+999999999GF100991001001999999001001MD1310031+9999REMSYN054AAXX  04091 30692 42998 00000 11194 21252 40273 53003;
0209306920999992000020412004+54000+123970FM-12+040099999V0200501N002012200019N0200001N1-03061-03361103091ADDAA199000091GA1001+999999999GF100991001001999999001001KA1120M-01401MA1999999097501MD1210081+9999REMSYN083AAXX  04121 30692 32998 00502 11306 21336 39750 40309 52008 333 11140 555 1/136 /-;EQDQ01  00002PRCP99
0112306920999992000020415004+54000+123970FM-12+040099999V0209999C000019999999N0500001N1-03431-03711103201ADDGF108991001001999999001011MD1210031+9999REMSYN060AAXX  04151 30692 42984 80000 11343 21371 40320 52003 80001;
0122306920999992000020418004+54000+123970FM-12+040099999V0200501N002012200019N0200001N1-03601-03901103301ADDGA1001+999999999GF100991001001999999001001MD1210051+9999REMSYN054AAXX  04181 30692 42998 00502 11360 21390 40330 52005;
0122306920999992000020421004+54000+123970FM-12+040099999V0200701N002012200019N0500001N1-03621-03901103291ADDGA1001+999999999GF100991001001999999001001MD1810011+9999REMSYN054AAXX  04211 30692 42999 00702 11362 21390 40329 58001;
0255306920999992000020500004+54000+123970FM-12+040099999V0200701N002012200019N0500001N1-03731-04071103391ADDAA199000091AJ100249199999999GA1001+999999999GF100991001001999999001001GJ103309IA1239KA1120N-03731MA1999999097651MD1310081+9999REMSYN098AAXX  05001 30692 32999 00702 11373 21407 39765 40339 53008 333 21373 47024 55055 555 1/141 7000/;EQDQ01  00002PRCP99
0141306920999992000020503004+54000+123970FM-12+040099999V0209999C000012200019N0500001N1-02632-03211103261ADDGA1001+999999999GF100991001001999999001001MD1810061+9999REMSYN054AAXX  05031 30692 42999 00000 11263 21321 40326 58006;EQDQ01-002633ATOT  
0122306920999992000020506004+54000+123970FM-12+040099999V0209999C000012200019N0500001N1-01701-02391102851ADDGA1001+999999999GF100991001001999999001001MD1310021+9999REMSYN054AAXX  05061 30692 42999 00000 11170 21239 40285 53002;
0122306920999992000020509004+54000+123970FM-12+040099999V0209999C000012200019N0200001N1-02211-02781102981ADDGA1001+999999999GF100991001001999999001001MD1210021+9999REMSYN054AAXX  05091 30692 42998 00000 11221 21278 40298 52002;
0209306920999992000020512004+54000+123970FM-12+040099999V0209999C000012200019N0200001N1-03101-03471103281ADDAA199000091GA1001+999999999GF100991001001999999001001KA1120M-01671MA1999999097691MD1210101+9999REMSYN083AAXX  05121 30692 32998 00000 11310 21347 39769 40328 52010 333 11167 555 1/136 /-;EQDQ01  00002PRCP99
0122306920999992000020515004+54000+123970FM-12+040099999V0200501N002012200019N0200001N1-03351-03721103151ADDGA1001+999999999GF100991001001999999001001MD1710131+9999REMSYN054AAXX  05151 30692 42998 00502 11335 21372 40315 57013;
0122306920999992000020518004+54000+123970FM-12+040099999V0200501N002012200019N0200001N1-03501-03871103411ADDGA1001+999999999GF100991001001999999001001MD1310021+9999REMSYN054AAXX  05181 30692 42998 00502 11350 21387 40341 53002;
0122306920999992000020521004+54000+123970FM-12+040099999V0200701N002012200019N0200001N1-03621-03971103431ADDGA1001+999999999GF100991001001999999001001MD1410001+9999REMSYN054AAXX  05211 30692 42998 00702 11362 21397 40343 54000;
0231306920999992000020600004+54000+123970FM-12+040099999V0200501N002012200019N0500001N1-03711-04071103481ADDAA199000091AJ100249199999999GA1001+999999999GF100991001001999999001001IA1239KA1120N-03801MA1999999097731MD1310021+9999REMSYN082AAXX  06001 30692 32999 00502 11371 21407 39773 40348 53002 333 21380 47024 55054;EQDQ01  00002PRCP99
0122306920999992000020603004+54000+123970FM-12+040099999V0209999C000012200019N0500001N1-02761-03131103191ADDGA1001+999999999GF100991001001999999001001MD1810061+9999REMSYN054AAXX  06031 30692 42999 00000 11276 21313 40319 58006;
0122306920999992000020606004+54000+123970FM-12+040099999V0202701N002012200019N0500001N1-01871-02471102781ADDGA1001+999999999GF100991001001999999001001MD1710111+9999REMSYN054AAXX  06061 30692 42999 02702 11187 21247 40278 57011;
0122306920999992000020609004+54000+123970FM-12+040099999V0202901N002012200019N0500001N1-02011-02681102791ADDGA1001+999999999GF100991001001999999001001MD1710051+9999REMSYN054AAXX  06091 30692 42999 02902 11201 21268 40279 57005;
0206306920999992000020612004+54000+123970FM-12+040099999V0202901N002012200019N0500001N1-02791-03271102991ADDAA199000091GA1001+999999999GF100991001001999999001001KA1120M-01651MA1999999097481MD1310031+9999REMSYN080AAXX  06121 30692 32999 02902 11279 21327 39748 40299 53003 333 11165 555 1/133;EQDQ01  00002PRCP99
0122306920999992000020615004+54000+123970FM-12+040099999V0202701N002012200019N0500001N1-02761-03401103061ADDGA1001+999999999GF100991001001999999001001MD1810061+9999REMSYN054AAXX  06151 30692 42999 02702 11276 21340 40306 58006;
0122306920999992000020618004+54000+123970FM-12+040099999V0202701N002012200019N0500001N1-03261-03551102981ADDGA1001+999999999GF100991001001999999001001MD1710071+9999REMSYN054AAXX  06181 30692 42999 02702 11326 21355 40298 57007;
0122306920999992000020621004+54000+123970FM-12+040099999V0202701N002012200019N0500001N1-03301-03501102931ADDGA1001+999999999GF100991001001999999001001MD1710051+9999REMSYN054AAXX  06211 30692 42999 02702 11330 21350 40293 57005;
0245306920999992000020700004+54000+123970FM-12+040099999V0202701N001019999999N0200001N1-03301-03601102931ADDAA199000091AJ100249199999999GF106991001001999999001011GJ103009IA1239KA1120N-03391MA1999999097301MD1410001+9999REMSYN104AAXX  07001 30692 32998 62701 11330 21360 39730 40293 54000 80001 333 21339 47024 55050 555 1/139 70009;EQDQ01  00002PRCP99
0147306920999992000020703004+54000+123970FM-12+040099999V0203201N002012200019N0500001N1-01822-02502102491ADDGF102991001001999999001011MD1810091+9999REMSYN060AAXX  07031 30692 42999 23202 11182 21250 40249 58009 80001;EQDQ01-001823ATOT  Q02-002503ATOD  
0122306920999992000020706004+54000+123970FM-12+040099999V0203201N004012200019N0500001N1-01411-02351102311ADDGA1001+999999999GF100991001001999999001001MD1810101+9999REMSYN054AAXX  07061 30692 42999 03204 11141 21235 40231 58010;
0122306920999992000020709004+54000+123970FM-12+040099999V0200201N002012200019N0500001N1-01521-02441102381ADDGA1001+999999999GF100991001001999999001001MD1310051+9999REMSYN054AAXX  07091 30692 42999 00202 11152 21244 40238 53005;
0206306920999992000020712004+54000+123970FM-12+040099999V0202001N002012200019N0500001N1-01901-02681102471ADDAA199000091GA1001+999999999GF100991001001999999001001KA1120M-01391MA1999999097171MD1210011+9999REMSYN080AAXX  07121 30692 32999 02002 11190 21268 39717 40247 52001 333 11139 555 1/131;EQDQ01  00002PRCP99
0116306920999992000020715004+54000+123970FM-12+040099999V0209999C000012200019N0500001N1-02141+99999102381ADDGA1001+999999999GF100991001001999999001001MD1810121+9999REMSYN048AAXX  07151 30692 42999 00000 11214 40238 58012;
0122306920999992000020718004+54000+123970FM-12+040099999V0202701N002012200019N0500001N1-02141-02711102351ADDGA1001+999999999GF100991001001999999001001MD1710031+9999REMSYN054AAXX  07181 30692 42999 02702 11214 21271 40235 57003;
0122306920999992000020721004+54000+123970FM-12+040099999V0202701N001012200019N0200001N1-03051-03411102491ADDGA1001+999999999GF100991001001999999001001MD1710101+9999REMSYN054AAXX  07211 30692 42998 02701 11305 21341 40249 57010;
0213306920999992000020800004+54000+123970FM-12+040099999V0209999C000019999999N0500001N1-03231-03591102521ADDAA199000091AJ100249199999999GJ104209IA1239KA1120N-03311MA1999999096941MD1310021+9999REMSYN098AAXX  08001 30692 32999 /0000 11323 21359 39694 40252 53002 333 21331 47024 55070 555 1/137 7000/;EQDQ01  00002PRCP99
0122306920999992000020803004+54000+123970FM-12+040099999V0209999C000012200019N0200001N1-02051-02621102111ADDGA1001+999999999GF100991001001999999001001MD1810131+9999REMSYN054AAXX  08031 30692 42998 00000 11205 21262 40211 58013;
0122306920999992000020806004+54000+123970FM-12+040099999V0209999C000012200019N0500001N1-00952-01841101671ADDGA1001+999999999GF100991001001999999001001MD1710211+9999REMSYN054AAXX  08061 30692 42999 00000 11095 21184 40167 57021;
0122306920999992000020809004+54000+123970FM-12+040099999V0209999C000012200019N0500001N1-01201-02291101691ADDGA1001+999999999GF100991001001999999001001MD1710041+9999REMSYN054AAXX  08091 30692 42999 00000 11120 21229 40169 57004;
0196306920999992000020812004+54000+123970FM-12+040099999V0209999C000012200019N0500001N1-01951-02631101871ADDAA199000091GA1001+999999999GF100991001001999999001001KA1999M-00931MA1999999098601MD1310041+9999REMSYN070AAXX  08121 30692 32999 00000 11195 21263 39860 40187 53004 333 11093;EQDQ01  00002PRCP99
0122306920999992000020815004+54000+123970FM-12+040099999V0209999C000012200019N0500001N1-01751-02541101831ADDGA1001+999999999GF100991001001999999001001MD1410001+9999REMSYN054AAXX  08151 30692 42999 00000 11175 21254 40183 54000;
0122306920999992000020818004+54000+123970FM-12+040099999V0202701N002012200019N0500001N1-02401-03051102021ADDGA1001+999999999GF100991001001999999001001MD1310041+9999REMSYN054AAXX  08181 30692 42999 02702 11240 21305 40202 53004;
0122306920999992000020821004+54000+123970FM-12+040099999V0202701N002012200019N0500001N1-02591-03061102031ADDGA1001+999999999GF100991001001999999001001MD1810031+9999REMSYN054AAXX  08211 30692 42999 02702 11259 21306 40203 58003;
0245306920999992000020900004+54000+123970FM-12+040099999V0203201N002019999999N0500001N1-02751-02971102021ADDAA199000091AJ100249199999999GF105991001001999999001011GJ104809IA1239KA1120N-02761MA1999999096601MD1710011+9999REMSYN104AAXX  09001 30692 32999 53202 11275 21297 39660 40202 57001 80001 333 21276 47024 55080 555 1/131 7000/;EQDQ01  00002PRCP99
0131306920999992000020903004+54000+123970FM-12+040099999V0209999C000019999999N0500001N1-01302-02011101691ADDGF106991001001999999001041MD1710061+9999REMSYN060AAXX  09031 30692 42999 60000 11130 21201 40169 57006 80004;EQDQ01-001303ATOT  
0112306920999992000020906004+54000+123970FM-12+040099999V0203401N004012200019N0500001N1-00971-01981101461ADDGF103991001001999999001041MD1710161+9999REMSYN060AAXX  09061 30692 42999 33404 11097 21198 40146 57016 80004;
0112306920999992000020909004+54000+123970FM-12+040099999V0202901N002012200019N0500001N1-01121-01951101441ADDGF104991001001999999001041MD1810041+9999REMSYN060AAXX  09091 30692 42999 42902 11112 21195 40144 58004 80004;
0196306920999992000020912004+54000+123970FM-12+040099999V0209999C000012200019N0500001N1-01461-02171101501ADDAA199000091GA1001+999999999GF100991001001999999001001KA1999M-00921MA1999999096321MD1810021+9999REMSYN070AAXX  09121 30692 32999 00000 11146 21217 39632 40150 58002 333 11092;EQDQ01  00002PRCP99
0122306920999992000020915004+54000+123970FM-12+040099999V0202701N002012200019N0500001N1-01461-02071101451ADDGA1001+999999999GF100991001001999999001001MD1710041+9999REMSYN054AAXX  09151 30692 42999 02702 11146 21207 40145 57004;
0122306920999992000020918004+54000+123970FM-12+040099999V0209999C000012200019N0500001N1-01901-02391101491ADDGA1001+999999999GF100991001001999999001001MD1710041+9999REMSYN054AAXX  09181 30692 42999 00000 11190 21239 40149 57004;
0122306920999992000020921004+54000+123970FM-12+040099999V0202301N002012200019N0500001N1-02231-02711101541ADDGA1001+999999999GF100991001001999999001001MD1710011+9999REMSYN054AAXX  09211 30692 42999 02302 11223 21271 40154 57001;
0247306920999992000021000004+54000+123970FM-12+040099999V0209999C000012200019N0500001N1-02261-02661101681ADDAA199000091AJ100249199999999GA1001+999999999GF100991001001999999001001IA1239KA1120N-02471MA1999999096331MD1310101+9999REMSYN098AAXX  10001 30692 32999 00000 11226 21266 39633 40168 53010 333 21247 47024 555 57555 1/132 7000/;EQDQ01  00002PRCP99
0122306920999992000021003004+54000+123970FM-12+040099999V0203601N004012200019N0500001N1-01341-02161101411ADDGA1001+999999999GF100991001001999999001001MD1810041+9999REMSYN054AAXX  10031 30692 42999 03604 11134 21216 40141 58004;
0122306920999992000021006004+54000+123970FM-12+040099999V0203201N004012200019N0500001N1-01061-02021101271ADDGA1001+999999999GF100991001001999999001001MD1710101+9999REMSYN054AAXX  10061 30692 42999 03204 11106 21202 40127 57010;
0112306920999992000021009004+54000+123970FM-12+040099999V0202701N001012200019N0500001N1-01301-02241101371ADDGF101991001001999999001011MD1310061+9999REMSYN060AAXX  10091 30692 42999 12701 11130 21224 40137 53006 80001;
0196306920999992000021012004+54000+123970FM-12+040099999V0209999C000012200019N0500001N1-01881-02561101571ADDAA199000091GA1001+999999999GF100991001001999999001001KA1999M-01041MA1999999096311MD1210061+9999REMSYN070AAXX  10121 30692 32999 00000 11188 21256 39631 40157 52006 333 11104;EQDQ01  00002PRCP99
0122306920999992000021015004+54000+123970FM-12+040099999V0209999C000012200019N0500001N1-02581-02971101791ADDGA1001+999999999GF100991001001999999001001MD1210011+9999REMSYN054AAXX  10151 30692 42999 00000 11258 21297 40179 52001;
0122306920999992000021018004+54000+123970FM-12+040099999V0209999C000012200019N0500001N1-03001-03301101781ADDGA1001+999999999GF100991001001999999001001MD1810031+9999REMSYN054AAXX  10181 30692 42999 00000 11300 21330 40178 58003;
0122306920999992000021021004+54000+123970FM-12+040099999V0209999C000012200019N0500001N1-02481-02801101661ADDGA1001+999999999GF100991001001999999001001MD1710011+9999REMSYN054AAXX  10211 30692 42999 00000 11248 21280 40166 57001;
0274306920999992000021100004+54000+123970FM-12+040099999V0202501N002012200019N0500001N1-02301-02701101671ADDAA124000091AJ100249199999999GA1001+999999999GF100991001001999999001001GJ104809IA1239KA1120N-03211MA1999999096321MD1310041+9999REMSYN101AAXX  11001 30692 32999 02502 11230 21270 39632 40167 53004 333 21321 47024 55080 555 1/134 7000/ /-;EQDQ01  00002PRCP99Q02  00003PRCP99
0122306920999992000021103004+54000+123970FM-12+040099999V0209999C000012200019N0500001N1-01751-02541101551ADDGA1001+999999999GF100991001001999999001001MD1210011+9999REMSYN054AAXX  11031 30692 42999 00000 11175 21254 40155 52001;
0122306920999992000021106004+54000+123970FM-12+040099999V0203601N006012200019N0500001N1-01601-02521101581ADDGA1001+999999999GF100991001001999999001001MD1210051+9999REMSYN054AAXX  11061 30692 42999 03606 11160 21252 40158 52005;
0122306920999992000021109004+54000+123970FM-12+040099999V0203601N004012200019N0500001N1-01751-02661101751ADDGA1001+999999999GF100991001001999999001001MD1210141+9999REMSYN054AAXX  11091 30692 42999 03604 11175 21266 40175 52014;
0196306920999992000021112004+54000+123970FM-12+040099999V0203601N002012200019N0500001N1-02011-02901101951ADDAA199000091GA1001+999999999GF100991001001999999001001KA1999M-01601MA1999999096661MD1210141+9999REMSYN070AAXX  11121 30692 32999 03602 11201 21290 39666 40195 52014 333 11160;EQDQ01  00002PRCP99
0122306920999992000021115004+54000+123970FM-12+040099999V0202701N002012200019N0500001N1-02181-03061102091ADDGA1001+999999999GF100991001001999999001001MD1210081+9999REMSYN054AAXX  11151 30692 42999 02702 11218 21306 40209 52008;
0122306920999992000021118004+54000+123970FM-12+040099999V0202701N002012200019N0500001N1-02311-03061102131ADDGA1001+999999999GF100991001001999999001001MD1210021+9999REMSYN054AAXX  11181 30692 42999 02702 11231 21306 40213 52002;
0122306920999992000021121004+54000+123970FM-12+040099999V0209999C000012200019N0500001N1-02181-02941102071ADDGA1001+999999999GF100991001001999999001001MD1210061+9999REMSYN054AAXX  11211 30692 42999 00000 11218 21294 40207 52006;
0221306920999992000021200004+54000+123970FM-12+040099999V0202901N001019999999N0500001N1-02061-02831102161ADDAA199000091AJ100249199999999GF106991001001999999001011IA1239KA1120N-02591MA1999999096841MD1210021+9999REMSYN088AAXX  12001 30692 32999 62901 11206 21283 39684 40216 52002 80001 333 21259 47024 55068;EQDQ01  00002PRCP99
0112306920999992000021206004+54000+123970FM-12+040099999V0202001N001012200019N0500001N1-01761-02551101131ADDGF103991001001999999001011MD1310031+9999REMSYN060AAXX  12061 30692 42999 32001 11176 21255 40113 53003 80001;
0112306920999992000021209004+54000+123970FM-12+040099999V0203201N004019999999N0500001N1-01651-02801102171ADDGF106991001001999999001011MD1310091+9999REMSYN060AAXX  12091 30692 42999 63204 11165 21280 40217 53009 80001;
0206306920999992000021212004+54000+123970FM-12+040099999V0209999C000012200019N0500001N1-01991-02771102261ADDAA199000091GA1001+999999999GF100991001001999999001001KA1120M-01551MA1999999096951MD1210011+9999REMSYN080AAXX  12121 30692 32999 00000 11199 21277 39695 40226 52001 333 11155 555 1/129;EQDQ01  00002PRCP99
0112306920999992000021215004+54000+123970FM-12+040099999V0203201N002012200019N0500001N1-01971-02641102251ADDGF102991001001999999001011MD1810011+9999REMSYN060AAXX  12151 30692 42999 23202 11197 21264 40225 58001 80001;
0122306920999992000021218004+54000+123970FM-12+040099999V0202501N002012200019N0500001N1-03001-03371102521ADDGA1001+999999999GF100991001001999999001001MD1310071+9999REMSYN054AAXX  12181 30692 42999 02502 11300 21337 40252 53007;
0122306920999992000021221004+54000+123970FM-12+040099999V0202301N002012200019N0500001N1-02821-03131102431ADDGA1001+999999999GF100991001001999999001001MD1810061+9999REMSYN054AAXX  12211 30692 42999 02302 11282 21313 40243 58006;
0221306920999992000021300004+54000+123970FM-12+040099999V0202701N001012200019N9999999N1-02431-02901102401ADDAA199000091AJ100249199999999GF102991001001999999001011IA1239KA1120N-03321MA1999999097001MD1310061+9999REMSYN088AAXX  13001 30692 3299/ 22701 11243 21290 39700 40240 53006 80001 333 21332 47024 55072;EQDQ01  00002PRCP99
0112306920999992000021303004+54000+123970FM-12+040099999V0203201N006019999999N0500001N1-01751-02541102211ADDGF106991001001999999001021MD1810061+9999REMSYN060AAXX  13031 30692 42999 63206 11175 21254 40221 58006 80002;
0112306920999992000021306004+54000+123970FM-12+040099999V0203601N002012200019N0500001N1-01551-02481102111ADDGF103991001001999999001011MD1710061+9999REMSYN060AAXX  13061 30692 42999 33602 11155 21248 40211 57006 80001;
0112306920999992000021309004+54000+123970FM-12+040099999V0203201N006019999999N0500001N1-01541-02471102141ADDGF108991001001999999001071MD1310031+9999REMSYN060AAXX  13091 30692 42999 83206 11154 21247 40214 53003 80007;
0186306920999992000021312004+54000+123970FM-12+040099999V0203401N004019999999N0500001N1-01701-02611102331ADDAA199000091GF108991001001999999001071KA1999M-01451MA1999999096891MD1810041+9999REMSYN076AAXX  13121 30692 32999 83404 11170 21261 39689 40233 58004 80007 333 11145;EQDQ01  00002PRCP99
0112306920999992000021315004+54000+123970FM-12+040099999V0203201N004012200019N0500001N1-01861-02651102121ADDGF103991001001999999001011MD1710051+9999REMSYN060AAXX  13151 30692 42999 33204 11186 21265 40212 57005 80001;
0122306920999992000021318004+54000+123970FM-12+040099999V0203201N002012200019N0500001N1-02501-02961102251ADDGA1001+999999999GF100991001001999999001001MD1410001+9999REMSYN054AAXX  13181 30692 42999 03202 11250 21296 40225 54000;
0122306920999992000021321004+54000+123970FM-12+040099999V0202701N001012200019N0500001N1-02761-03131102201ADDGA1001+999999999GF100991001001999999001001MD1810121+9999REMSYN054AAXX  13211 30692 42999 02701 11276 21313 40220 58012;
0221306920999992000021400004+54000+123970FM-12+040099999V0209999C000012200019N0500001N1-02331-02891102101ADDAA199000091AJ100249199999999GF101991001001999999001011IA1239KA1120N-02841MA1999999096731MD1310011+9999REMSYN088AAXX  14001 30692 32999 10000 11233 21289 39673 40210 53001 80001 333 21284 47024 55053;EQDQ01  00002PRCP99
0112306920999992000021406004+54000+123970FM-12+040099999V0203601N006012200019N0500001N1-01361-02301101711ADDGF104991001001999999001011MD1710111+9999REMSYN060AAXX  14061 30692 42999 43606 11136 21230 40171 57011 80001;
0186306920999992000021412004+54000+123970FM-12+040099999V0202701N006019999999N0500001N1-01521-02451101751ADDAA199000091GF108991001001999999001071KA1999M-01361MA1999999096561MD1810011+9999REMSYN076AAXX  14121 30692 32999 82706 11152 21245 39656 40175 58001 80007 333 11136;EQDQ01  00002PRCP99
0112306920999992000021415004+54000+123970FM-12+040099999V0203601N004019999999N0500001N1-01651-02571101751ADDGF108991001001999999001071MD1710021+9999REMSYN060AAXX  14151 30692 42999 83604 11165 21257 40175 57002 80007;
0112306920999992000021418004+54000+123970FM-12+040099999V0203601N002019999999N0500001N1-01631-02551101741ADDGF108991001001999999001071MD1710011+9999REMSYN060AAXX  14181 30692 42999 83602 11163 21255 40174 57001 80007;
0112306920999992000021421004+54000+123970FM-12+040099999V0203601N004019999999N0500001N1-01631-02551101721ADDGF108991001001999999001071MD1710031+9999REMSYN060AAXX  14211 30692 42999 83604 11163 21255 40172 57003 80007;
0251306920999992000021500004+54000+123970FM-12+040099999V0203601N006019999999N0500001N1-01641-02571101841ADDAA124000091AJ100249199999999GF108991001001999999001041GJ104989IA1239MA1999999097531MD1310031+9999REMSYN107AAXX  15001 30692 32999 83606 11164 21257 39753 40184 53003 80004 333 2118/ 47024 55083 555 1/119 7000/ /-;EQDQ01  00002PRCP99Q02  00003PRCP99
0131306920999992000021503004+54000+123970FM-12+040099999V0203201N002012200019N0500001N1-01311-02051101751ADDGF103991999001999999011001MD1210011+9999REMSYN060AAXX  15031 30692 42999 33202 11131 21205 40175 52001 81010;EQDQ01+000012SCOTLC
0112306920999992000021506004+54000+123970FM-12+040099999V0200201N008012200019N0500001N1-01321-02261101701ADDGF103991011001999999031011MD1810041+9999REMSYN060AAXX  15061 30692 42999 30208 11132 21226 40170 58004 81031;
0112306920999992000021509004+54000+123970FM-12+040099999V0203401N002012200019N0500001N1-01371-02441101811ADDGF103991001001999999001011MD1310091+9999REMSYN060AAXX  15091 30692 42999 33402 11137 21244 40181 53009 80001;
0199306920999992000021512004+54000+123970FM-12+040099999V0200901N002012200019N0500001N1-01991-02771102011ADDAA199000091GF102991001001999999001011KA1120M-01261MA1999999096711MD1210071+9999REMSYN089AAXX  15121 30692 32999 20902 11199 21277 39671 40201 52007 80001 333 11126 555 1/130 /-;EQDQ01  00002PRCP99
0112306920999992000021515004+54000+123970FM-12+040099999V0200901N002012200019N0500001N1-01761-02541101941ADDGF102991001001999999001011MD1810021+9999REMSYN060AAXX  15151 30692 42999 20902 11176 21254 40194 58002 80001;
0122306920999992000021518004+54000+123970FM-12+040099999V0202301N002012200019N0500001N1-01931-02711101941ADDGA1001+999999999GF100991001001999999001001MD1710021+9999REMSYN054AAXX  15181 30692 42999 02302 11193 21271 40194 57002;
0122306920999992000021521004+54000+123970FM-12+040099999V0200301N002012200019N0500001N1-02051-02821102011ADDGA1001+999999999GF100991001001999999001001MD1310041+9999REMSYN054AAXX  15211 30692 42999 00302 11205 21282 40201 53004;
0274306920999992000021600004+54000+123970FM-12+040099999V0209999C000012200019N0500001N1-02441-03001102191ADDAA124000091AJ100249199999999GA1001+999999999GF100991001001999999001001GJ101809IA1239KA1120N-02481MA1999999096801MD1210091+9999REMSYN101AAXX  16001 30692 32999 00000 11244 21300 39680 40219 52009 333 21248 47024 55030 555 1/132 7000/ /-;EQDQ01  00002PRCP99Q02  00003PRCP99
0122306920999992000021606004+54000+123970FM-12+040099999V0203201N002012200019N0200001N1-01221-02311101951ADDGA1001+999999999GF100991001001999999001001MD1310011+9999REMSYN054AAXX  16061 30692 42998 03202 11122 21231 40195 53001;
0122306920999992000021609004+54000+123970FM-12+040099999V0209999C000012200019N0500001N1-01291-02371102081ADDGA1001+999999999GF100991001001999999001001MD1210101+9999REMSYN054AAXX  16091 30692 42999 00000 11129 21237 40208 52010;
0196306920999992000021612004+54000+123970FM-12+040099999V0209999C000012200019N0500001N1-02101-02771102331ADDAA199000091GA1001+999999999GF100991001001999999001001KA1999M-01151MA1999999097001MD1210091+9999REMSYN070AAXX  16121 30692 32999 00000 11210 21277 39700 40233 52009 333 11115;EQDQ01  00002PRCP99
0122306920999992000021615004+54000+123970FM-12+040099999V0200501N002012200019N0500001N1-02821-03201102531ADDGA1001+999999999GF100991001001999999001001MD1210041+9999REMSYN054AAXX  16151 30692 42999 00502 11282 21320 40253 52004;
0122306920999992000021618004+54000+123970FM-12+040099999V0200901N002012200019N0500001N1-03151-03521102711ADDGA1001+999999999GF100991001001999999001001MD1210071+9999REMSYN054AAXX  16181 30692 42999 00902 11315 21352 40271 52007;
0122306920999992000021621004+54000+123970FM-12+040099999V0200501N002012200019N0500001N1-03201-03571102761ADDGA1001+999999999GF100991001001999999001001MD1210051+9999REMSYN054AAXX  16211 30692 42999 00502 11320 21357 40276 52005;
0231306920999992000021700004+54000+123970FM-12+040099999V0200501N002012200019N0500001N1-03231-03591102761ADDAA199000091AJ100249199999999GA1001+999999999GF100991001001999999001001IA1239KA1120N-03331MA1999999097161MD1410001+9999REMSYN082AAXX  17001 30692 32999 00502 11323 21359 39716 40276 54000 333 21333 47024 55087;EQDQ01  00002PRCP99
0122306920999992000021709004+54000+123970FM-12+040099999V0209999C000012200019N0500001N1-01171-02261102231ADDGA1001+999999999GF100991001001999999001001MD1310041+9999REMSYN054AAXX  17091 30692 42999 00000 11117 21226 40223 53004;
0196306920999992000021712004+54000+123970FM-12+040099999V0209999C000012200019N0500001N1-01821-02611102461ADDAA199000091GA1001+999999999GF100991001001999999001001KA1999M-01101MA1999999097181MD1210101+9999REMSYN070AAXX  17121 30692 32999 00000 11182 21261 39718 40246 52010 333 11110;EQDQ01  00002PRCP99
0122306920999992000021715004+54000+123970FM-12+040099999V0209999C000012200019N0500001N1-01851-02641102481ADDGA1001+999999999GF100991001001999999001001MD1210021+9999REMSYN054AAXX  17151 30692 42999 00000 11185 21264 40248 52002;
0112306920999992000021718004+54000+123970FM-12+040099999V0202701N002012200019N0500001N1-02511-03061102581ADDGF101991001001999999001011MD1810141+9999REMSYN060AAXX  17181 30692 42999 12702 11251 21306 40258 58014 80001;
0112306920999992000021721004+54000+123970FM-12+040099999V0209999C000012200019N0500001N1-02721-03261102501ADDGF103991001001999999001011MD1710031+9999REMSYN060AAXX  17211 30692 42999 30000 11272 21326 40250 57003 80001;
0245306920999992000021800004+54000+123970FM-12+040099999V0203201N002012200019N0500001N1-02511-02821102391ADDAA199000091AJ100239199999999GF102991001001999999001011GJ104569IA1239KA1120N-02851MA1999999095971MD1710061+9999REMSYN104AAXX  18001 30692 32999 23202 11251 21282 39597 40239 57006 80001 333 21285 47023 55076 555 1/129 7000/;EQDQ01  00002PRCP99
0112306920999992000021803004+54000+123970FM-12+040099999V0203401N004019999999N0500001N1-01501-02221102091ADDGF108991001001999999001011MD1710081+9999REMSYN060AAXX  18031 30692 42999 83404 11150 21222 40209 57008 80001;
0112306920999992000021806004+54000+123970FM-12+040099999V0203601N006012200019N0500001N1-01081-02041101921ADDGF102991001001999999001011MD1710101+9999REMSYN060AAXX  18061 30692 42999 23606 11108 21204 40192 57010 80001;
0112306920999992000021809004+54000+123970FM-12+040099999V0203401N002012200019N0500001N1-01211-02161101971ADDGF102991001001999999001011MD1310031+9999REMSYN060AAXX  18091 30692 42999 23402 11121 21216 40197 53003 80001;
0196306920999992000021812004+54000+123970FM-12+040099999V0202301N001012200019N0500001N1-01741-02531102151ADDAA199000091GF101991001001999999001011KA1120M-01021MA1999999096901MD1210071+9999REMSYN086AAXX  18121 30692 32999 12301 11174 21253 39690 40215 52007 80001 333 11102 555 1/129;EQDQ01  00002PRCP99
0112306920999992000021815004+54000+123970FM-12+040099999V0209999C000012200019N0500001N1-01701-02391102161ADDGF101991001001999999001011MD1210011+9999REMSYN060AAXX  18151 30692 42999 10000 11170 21239 40216 52001 80001;
0112306920999992000021821004+54000+123970FM-12+040099999V0202601N002012200019N0500001N1-01941-02431102311ADDGF103991001001999999001011MD1210081+9999REMSYN060AAXX  18211 30692 42999 32602 11194 21243 40231 52008 80001;
0245306920999992000021900004+54000+123970FM-12+040099999V0203201N001019999999N0500001N1-01761-02351102181ADDAA199000091AJ100239199999999GF108991021001999999031091GJ104509IA1239KA1120N-02261MA1999999096911MD1810111+9999REMSYN104AAXX  19001 30692 32999 83201 11176 21235 39691 40218 58011 82039 333 21226 47023 55075 555 1/125 7000/;EQDQ01  00002PRCP99
0112306920999992000021903004+54000+123970FM-12+040099999V0203601N006019999999N0500001N1-01521-02141102041ADDGF106991001001999999001011MD1710021+9999REMSYN060AAXX  19031 30692 42999 63606 11152 21214 40204 57002 80001;
0122306920999992000021906004+54000+123970FM-12+040099999V0203601N008019999999N0500001N1-01131-02221101891ADDGF106991001001999999001011MD1710111+9999REMSYN070AAXX  19061 30692 42999 63608 11113 21222 40189 57011 80001 333 91010;
0112306920999992000021909004+54000+123970FM-12+040099999V0203201N004012200019N0500001N1-01251-02331101921ADDGF102991001001999999001011MD1310011+9999REMSYN060AAXX  19091 30692 42999 23204 11125 21233 40192 53001 80001;
0199306920999992000021912004+54000+123970FM-12+040099999V0202701N001012200019N0500001N1-01581-02501102001ADDAA199000091GF102991001001999999001011KA1120M-01151MA1999999096781MD1410001+9999REMSYN089AAXX  19121 30692 32999 22701 11158 21250 39678 40200 54000 80001 333 11115 555 1/128 /-;EQDQ01  00002PRCP99
0112306920999992000021915004+54000+123970FM-12+040099999V0209999C000019999999N0500001N1-02381-02941102131ADDGF105991001001999999001011MD1810041+9999REMSYN060AAXX  19151 30692 42999 50000 11238 21294 40213 58004 80001;
0112306920999992000021918004+54000+123970FM-12+040099999V0209999C000019999999N0500001N1-02161-02731102011ADDGF108991001001999999001071MD1710061+9999REMSYN060AAXX  19181 30692 42999 80000 11216 21273 40201 57006 80007;
0112306920999992000021921004+54000+123970FM-12+040099999V0203201N002012200019N0500001N1-02151-02631101991ADDGF104991001001999999001011MD1410001+9999REMSYN060AAXX  19211 30692 42999 43202 11215 21263 40199 54000 80001;
0221306920999992000022000004+54000+123970FM-12+040099999V0209999C000019999999N0500001N1-02401-02801102071ADDAA199000091AJ100239199999999GF106991061001999999031001IA1239KA1120N-02521MA1999999096631MD1310011+9999REMSYN088AAXX  20001 30692 32999 60000 11240 21280 39663 40207 53001 86030 333 21252 47023 55065;EQDQ01  00002PRCP99
0112306920999992000022003004+54000+123970FM-12+040099999V0203601N002019999999N0500001N1-01391-02211101831ADDGF108991081001999999051999MD1810031+9999REMSYN060AAXX  20031 30692 42999 83602 11139 21221 40183 58003 8805/;
0112306920999992000022006004+54000+123970FM-12+040099999V0209999C000019999999N0500001N1-01251-02201101851ADDGF106991061001999999031011MD1310051+9999REMSYN060AAXX  20061 30692 42999 60000 11125 21220 40185 53005 86031;
0112306920999992000022009004+54000+123970FM-12+040099999V0203601N006019999999N0500001N1-01271-02221101791ADDGF106991061001999999031001MD1810071+9999REMSYN060AAXX  20091 30692 42999 63606 11127 21222 40179 58007 86030;
0199306920999992000022012004+54000+123970FM-12+040099999V0203601N002019999999N0500001N1-01551-02481101761ADDAA199000091GF108991001001999999001021KA1120M-01251MA1999999096671MD1310031+9999REMSYN089AAXX  20121 30692 32999 83602 11155 21248 39667 40176 53003 80002 333 11125 555 1/102 /-;EQDQ01  00002PRCP99
0086306920999992000022015004+54000+123970FM-12+040099999V0209999C000019999999N9999999N1-02071-02841102051ADDMD1210061+9999REMSYN060AAXX  20151 30692 4299/ /0000 11207 21284 40205 52006 80002;
0112306920999992000022018004+54000+123970FM-12+040099999V0200101N002019999999N0500001N1-02531-03071102241ADDGF108991001001999999001021MD1210101+9999REMSYN060AAXX  20181 30692 42999 80102 11253 21307 40224 52010 80002;
0112306920999992000022021004+54000+123970FM-12+040099999V0209999C000012200019N0500001N1-02921-03371102351ADDGF102991001001999999001011MD1210021+9999REMSYN060AAXX  20211 30692 42999 20000 11292 21337 40235 52002 80001;
0202306920999992000022100004+54000+123970FM-12+040099999V0209999C000012200019N0500001N1-02921-03231102371ADDAA199000091GA1001+999999999GF100991001001999999001001KA1120N-03041MA1999999096871MD1210021+9999REMSYN076AAXX  21001 30692 32999 00000 11292 21323 39687 40237 52002 333 21304 55022;EQDQ01  00002PRCP99
0122306920999992000022106004+54000+123970FM-12+040099999V0203201N001012200019N0500001N1-01062-02171101981ADDGA1001+999999999GF100991001001999999001001MD1810061+9999REMSYN054AAXX  21061 30692 42999 03201 11106 21217 40198 58006;
0112306920999992000022109004+54000+123970FM-12+040099999V0202901N001012200019N0500001N1-01181-02271101991ADDGF101991001001999999001011MD1710011+9999REMSYN060AAXX  21091 30692 42999 12901 11118 21227 40199 57001 80001;
0196306920999992000022112004+54000+123970FM-12+040099999V0200501N002012200019N0500001N1-02451-03001102311ADDAA199000091GA1001+999999999GF100991001001999999001001KA1999M-01011MA1999999096911MD1310061+9999REMSYN070AAXX  21121 30692 32999 00502 11245 21300 39691 40231 53006 333 11101;EQDQ01  00002PRCP99
0122306920999992000022115004+54000+123970FM-12+040099999V0200501N001012200019N0500001N1-02851-03151102461ADDGA1001+999999999GF100991001001999999001001MD1210041+9999REMSYN054AAXX  21151 30692 42999 00501 11285 21315 40246 52004;
0122306920999992000022118004+54000+123970FM-12+040099999V0200701N002012200019N0500001N1-03201-03501102571ADDGA1001+999999999GF100991001001999999001001MD1210031+9999REMSYN054AAXX  21181 30692 42999 00702 11320 21350 40257 52003;
0122306920999992000022121004+54000+123970FM-12+040099999V0200701N001012200019N0500001N1-03341-03621102551ADDGA1001+999999999GF100991001001999999001001MD1810041+9999REMSYN054AAXX  21211 30692 42999 00701 11334 21362 40255 58004;
0216306920999992000022200004+54000+123970FM-12+040099999V0200501N001012200019N0200001N1-03401-03681102601ADDAA199000091GF101991001001999999001011MA1999999096971MD1310031+9999UA1M992809999REMSYN106AAXX  22001 30692 32998 10501 11340 21368 39697 40260 53003 80001 222// 21356 47023 55065 555 1/137 7000/;EQDQ01  00002PRCP99
