0269313000999992000010100004+53750+127230FM-12+023299999V0209999C000012200019N0200001N1-03671-03911104291ADDAA106000091AJ100219199999999AY101061AY201061GA1001+999999999GF100991001001999999001001IA1239KA1120N-03711MA1999999100901MD1310031+9999MW1401REMSYN098AAXX  01001 31300 31998 00000 11367 21391 30090 40429 53003 74000 333 21371 47021 555 1/138 7000/;EQDQ01  00002PRCP06
0122313000999992000010103004+53750+127230FM-12+023299999V0209999C000012200019N0500001N1-03161-03381104221ADDGA1001+999999999GF100991001001999999001001MD1410001+9999REMSYN054AAXX  01031 31300 42999 00000 11316 21338 40422 54000;
0122313000999992000010106004+53750+127230FM-12+023299999V0209999C000012200019N0500001N1-02951-03191104091ADDGA1001+999999999GF100991001001999999001001MD1810111+9999REMSYN054AAXX  01061 31300 42999 00000 11295 21319 40409 58011;
0122313000999992000010109004+53750+127230FM-12+023299999V0209999C000012200019N0500001N1-03131-03361104071ADDGA1001+999999999GF100991001001999999001001MD1610031+9999REMSYN054AAXX  01091 31300 42984 00000 11313 21336 40407 56003;
0224313000999992000010112004+53750+127230FM-12+023299999V0209999C000012200019N0500001N1-03441-03671104051ADDAA106000091AY101061AY201061GA1001+999999999GF100991001001999999001001KA1999M-02941MA1999999100701MD1810091+9999MW1401REMSYN076AAXX  01121 31300 31984 00000 11344 21367 30070 40405 58009 74000 333 11294;EQDQ01  00002PRCP06
0150313000999992000010115004+53750+127230FM-12+023299999V0209999C000012200019N0500001N1-03471-03701103971ADDAY101031AY201031GA1001+999999999GF100991001001999999001001MD1710091+9999MW1401REMSYN060AAXX  01151 31300 41984 00000 11347 21370 40397 57009 74000;
0150313000999992000010118004+53750+127230FM-12+023299999V0200401N001012200019N0500001N1-03401-03611103751ADDAY101061AY201061GA1001+999999999GF100991001001999999001001MD1710201+9999MW1401REMSYN060AAXX  01181 31300 41984 00401 11340 21361 40375 57020 74000;
0144313000999992000010121004+53750+127230FM-12+023299999V0209999C000012200019N0100001N1-03481+99999103691ADDAY101031AY201031GA1001+999999999GF100991001001999999001001MD1710071+9999MW1401REMSYN054AAXX  01211 31300 41960 00000 11348 40369 57007 74000;
0269313000999992000010200004+53750+127230FM-12+023299999V0209999C000012200019N0200001N1-03451-03671103561ADDAA106000091AJ100219199999999AY101061AY201061GA1001+999999999GF100991001001999999001001IA1239KA1120N-03531MA1999999100211MD1710131+9999MW1401REMSYN098AAXX  02001 31300 31998 00000 11345 21367 30021 40356 57013 74000 333 21353 47021 555 1/136 7000/;EQDQ01  00002PRCP06
0122313000999992000010203004+53750+127230FM-12+023299999V0202001N001012200019N0500001N1-03011-03251103291ADDGA1001+999999999GF100991001001999999001001MD1710191+9999REMSYN054AAXX  02031 31300 42999 02001 11301 21325 40329 57019;
0112313000999992000010206004+53750+127230FM-12+023299999V0202201N001019999999N0500001N1-02791-03031103081ADDGF106991001001999999001021MD1710181+9999REMSYN060AAXX  02061 31300 42999 62201 11279 21303 40308 57018 80002;
0112313000999992000010209004+53750+127230FM-12+023299999V0202201N001019999999N0500001N1-02681-02931102961ADDGF108991001001999999001071MD1610101+9999REMSYN060AAXX  02091 31300 42984 82201 11268 21293 40296 56010 80007;
0196313000999992000010212004+53750+127230FM-12+023299999V0201801N001019999999N0500001N1-02191-02371102701ADDAA106000091GF108991001001999999001071KA1120M-02191MA1999999099551MD1810101+9999REMSYN086AAXX  02121 31300 32984 81801 11219 21237 39955 40270 5801/ 80007 333 11219 555 19120;EQDQ01  00002PRCP06
0140313000999992000010215004+53750+127230FM-12+023299999V0200601N001019999999N0170001N1-01971-02161102461ADDAY171031AY221031GF108991081001999999021999MD1710211+9999MW1711REMSYN066AAXX  02151 31300 41967 80601 11197 21216 40246 57021 77172 8802/;
0140313000999992000010218004+53750+127230FM-12+023299999V0209999C000019999999N0200001N1-01891-02081102361ADDAY171061AY221061GF108991081001999999021999MD1710081+9999MW1711REMSYN066AAXX  02181 31300 41970 80000 11189 21208 40236 57008 77172 8802/;
0140313000999992000010221004+53750+127230FM-12+023299999V0200401N003019999999N0110001N1-01621-01651102241ADDAY171031AY221031GF108991021001999999021999MD1710091+9999MW1711REMSYN066AAXX  02211 31300 41961 80403 11162 21165 40224 57009 77172 8202/;
0246313000999992000010300004+53750+127230FM-12+023299999V0200401N003019999999N0040001N1-01541-01671102191ADDAA112002091AJ100239199999999AY171061AY221061GF108991081001999999021999IA1239KA1120N-02201MA1999999099141MD1610031+9999MW1731REMSYN110AAXX  03001 31300 11996 80403 11154 21167 39914 40219 56003 60022 77372 8802/ 333 21220 47023 555 1/116 7002/;
0140313000999992000010303004+53750+127230FM-12+023299999V0200501N003019999999N0020001N1-01291-01421102201ADDAY171031AY221031GF108991081001999999021999MD1310031+9999MW1731REMSYN066AAXX  03031 31300 41995 80503 11129 21142 40220 53003 77372 8802/;
0140313000999992000010306004+53750+127230FM-12+023299999V0200601N002019999999N0040001N1-01261-01391102241ADDAY171061AY221061GF108991081001999999021999MD1110031+9999MW1731REMSYN066AAXX  03061 31300 41996 80602 11126 21139 40224 51003 77372 8802/;
0140313000999992000010309004+53750+127230FM-12+023299999V0200601N002019999999N0060001N1-01231-01361102391ADDAY171031AY221031GF108991081001999999011999MD1210171+9999MW1711REMSYN066AAXX  03091 31300 41956 80602 11123 21136 40239 52017 77172 8801/;
0201313000999992000010312004+53750+127230FM-12+023299999V0202201N001019999999N0100001N1-01411-01541102581ADDAA112005191AY171061AY221061GF108991081001999999021999KA1999M-01191MA1999999099551MD1210161+9999MW1711REMSYN088AAXX  03121 31300 11960 82201 11141 21154 39955 40258 52016 60052 77172 8802/ 333 11119;
0140313000999992000010315004+53750+127230FM-12+023299999V0209999C000019999999N0110001N1-01681-01811102791ADDAY171031AY221031GF108991081001999999021999MD1210171+9999MW1711REMSYN066AAXX  03151 31300 41961 80000 11168 21181 40279 52017 77172 8802/;
0140313000999992000010318004+53750+127230FM-12+023299999V0209999C000019999999N0150001N1-01731-01921102891ADDAY171061AY221061GF108991081001999999021999MD1110091+9999MW1711REMSYN066AAXX  03181 31300 41965 80000 11173 21192 40289 51009 77172 8802/;
0140313000999992000010321004+53750+127230FM-12+023299999V0209999C000019999999N0250001N1-01811-01931103021ADDAY171031AY221031GF108991081001999999021999MD1310121+9999MW1711REMSYN066AAXX  03211 31300 41975 80000 11181 21193 40302 53012 77172 8802/;
0246313000999992000010400004+53750+127230FM-12+023299999V0209999C000019999999N0200001N1-02221-02331103221ADDAA112002091AJ100299199999999AY171061AY221061GF108991081001999999021999IA1239KA1120N-02221MA1999999100051MD1210141+9999MW1711REMSYN110AAXX  04001 31300 11998 80000 11222 21233 30005 40322 52014 60022 77172 8802/ 333 21222 47029 555 1/127 7007/;
0140313000999992000010403004+53750+127230FM-12+023299999V0209999C000019999999N0500001N1-02021-02211103301ADDAY171031AY221031GF108991001001999999001071MD1210101+9999MW1021REMSYN066AAXX  04031 31300 41999 80000 11202 21221 40330 52010 70272 80007;
0140313000999992000010406004+53750+127230FM-12+023299999V0209999C000019999999N0500001N1-01911-02101103291ADDAY171061AY221061GF108991081001999999071999MD1110011+9999MW1021REMSYN066AAXX  04061 31300 41999 80000 11191 21210 40329 51001 70272 8807/;
0140313000999992000010409004+53750+127230FM-12+023299999V0209999C000019999999N0500001N1-02021-02211103351ADDAY171031AY221031GF108991001001999999001071MD1310041+9999MW1021REMSYN066AAXX  04091 31300 41984 80000 11202 21221 40335 53004 70272 80007;
0201313000999992000010412004+53750+127230FM-12+023299999V0209999C000019999999N0190001N1-02191-02371103421ADDAA112000591AY171061AY221061GF108991001001999999001071KA1999M-01801MA1999999100251MD1210051+9999MW1711REMSYN088AAXX  04121 31300 11969 80000 11219 21237 30025 40342 52005 69962 77172 80007 333 11180;
0159313000999992000010415004+53750+127230FM-12+023299999V0202201N001019999999N0220001N1-02261-02441999999ADDAY171031AY221031GF108991001001999999001071MD1810011+9999MW1711REMSYN066AAXX  04151 31300 41972 82201 11226 21244 40239 58001 77172 80007;EQDQ01+102393APOSLP
0137313000999992000010418004+53750+127230FM-12+023299999V0203501N001019999999N0005001N1-02131-02311103391ADDGF108991001001999999001071MD1610011+9999REMSYN066AAXX  04181 31300 4/605 83501 11213 21231 40339 56001 77172 80007;EQDQ01+012502SCOLCB
0140313000999992000010421004+53750+127230FM-12+023299999V0209999C000019999999N0190001N1-02391-02571103431ADDAY171031AY221031GF108991001001999999001051MD1410001+9999MW1711REMSYN066AAXX  04211 31300 41969 80000 11239 21257 40343 54000 77172 80005;
0213313000999992000010500004+53750+127230FM-12+023299999V0209999C000019999999N0200001N1-02391-02571103481ADDAA112000591AY171061AY221061GF108991031001999999031071IA1239KA1120N-02421MA1999999100281MD1310051+9999MW1711REMSYN094AAXX  05001 31300 11998 80000 11239 21257 30028 40348 53005 69942 77172 83037 333 21242 47029;
0140313000999992000010503004+53750+127230FM-12+023299999V0209999C000019999999N0100001N1-02161-02341103401ADDAY171031AY221031GF108991041001999999071071MD1810051+9999MW1711REMSYN066AAXX  05031 31300 41997 80000 11216 21234 40340 58005 77172 84077;
0140313000999992000010506004+53750+127230FM-12+023299999V0200901N001019999999N0200001N1-01911-02171103291ADDAY171061AY221061GF108991031001999999031071MD1710071+9999MW1711REMSYN066AAXX  05061 31300 41998 80901 11191 21217 40329 57007 77172 83037;
0140313000999992000010509004+53750+127230FM-12+023299999V0209999C000019999999N0500001N1-02301-02491103341ADDAY171031AY221031GF108991001001999999001011MD1410001+9999MW1021REMSYN066AAXX  05091 31300 41984 80000 11230 21249 40334 54000 70272 80001;
0198313000999992000010512004+53750+127230FM-12+023299999V0209999C000019999999N0500001N1-02091-02281103301ADDAA112000191AY171061AY221061GF108991051001999999031071MA1999999100141MD1810021+9999MW1021REMSYN098AAXX  05121 31300 11984 80000 11209 21228 30014 40330 58002 69922 70272 85037 333 1189/ 555 1/120;
0112313000999992000010515004+53750+127230FM-12+023299999V0202601N001019999999N0500001N1-01991-02181103161ADDGF108991081001999999071999MD1710121+9999REMSYN060AAXX  05151 31300 42984 82601 11199 21218 40316 57012 8807/;
0140313000999992000010521004+53750+127230FM-12+023299999V0200601N001019999999N0160001N1-01461-01661102961ADDAY171031AY221031GF108991081001999999021999MD1810101+9999MW1711REMSYN066AAXX  05211 31300 41966 80601 11146 21166 40296 58010 77172 8802/;
0140313000999992000010603004+53750+127230FM-12+023299999V0200301N003019999999N0500001N1-01171-01521102691ADDAY171031AY221031GF108991081001999999021999MD1710111+9999MW1021REMSYN066AAXX  06031 31300 41999 80303 11117 21152 40269 57011 70272 8802/;
0140313000999992000010606004+53750+127230FM-12+023299999V0200101N004019999999N0500001N1-01111-01551102381ADDAY171061AY221061GF108991031001999999031071MD1810291+9999MW1021REMSYN066AAXX  06061 31300 41999 80104 11111 21155 40238 58029 70272 83037;
0112313000999992000010609004+53750+127230FM-12+023299999V0200101N003019999999N0500001N1-01111-01471102081ADDGF108991041001999999031071MD1710291+9999REMSYN060AAXX  06091 31300 42984 80103 11111 21147 40208 57029 84037;
0245313000999992000010612004+53750+127230FM-12+023299999V0200301N005019999999N0170001N1-01011-01371101801ADDAA112000191AY131061AY221061GF108991081001999999021999KA1120M-01001MA1999999098821MD1710261+9999MW1361OA140101001OA249901401REMSYN110AAXX  06121 31300 11967 80305 11101 21137 39882 40180 57026 69922 73632 8802/ 333 11100 91010 91114 555 1/111;
0156313000999992000010615004+53750+127230FM-12+023299999V0200201N005019999999N0080001N1-00911-01301101541ADDAY171031AY231031GF108991081001999999021999MD1710251+9999MW1711REMSYN082AAXX  06151 31300 41958 80205 11091 21130 40154 57025 77173 8802/ 333 91011 91013;
0167313000999992000010621004+53750+127230FM-12+023299999V0203601N006019999999N0150001N1-00671-01091100921ADDAY171031AY231031GF108991081001999999021999MD1710401+9999MW1361OA140101201REMSYN082AAXX  06211 31300 41965 83606 11067 21109 40092 57040 73673 8802/ 333 91012 91112;
0294313000999992000010700004+53750+127230FM-12+023299999V0203501N006019999999N0040001N1-00621-01061100671ADDAA112000391AA224000591AJ100269199999999AY171061AY231061GF108991081001999999021999IA1239KA1120N-01021MA1999999097761MD1710241+9999MW1711OA140101201OA249901401REMSYN125AAXX  07001 31300 11996 83506 11062 21106 39776 40067 57024 69932 77173 8802/ 333 21102 47026 91012 91114 555 1/108 7995/ /-;
0167313000999992000010703004+53750+127230FM-12+023299999V0200201N005019999999N0100001N1-00511-01151100461ADDAY171031AY231031GF108991081001999999021999MD1710191+9999MW1361OA140101201REMSYN082AAXX  07031 31300 41997 80205 11051 21115 40046 57019 73673 8802/ 333 91012 91113;
0167313000999992000010706004+53750+127230FM-12+023299999V0200201N006019999999N0100001N1-00511-01101100331ADDAY171061AY231061GF108991081001999999071999MD1710131+9999MW1361OA140101201REMSYN082AAXX  07061 31300 41997 80206 11051 21110 40033 57013 73673 8807/ 333 91012 91112;
0167313000999992000010709004+53750+127230FM-12+023299999V0200101N007019999999N0140001N1-00511-01151100271ADDAY131031AY221031GF108991081001999999021011MD1610061+9999MW1361OA140101101REMSYN082AAXX  07091 31300 41964 80107 11051 21115 40027 56006 73632 88021 333 91011 91115;
0245313000999992000010712004+53750+127230FM-12+023299999V0203601N007019999999N0150001N1-00601-01101100191ADDAA112000191AY131061AY221061GF108991081001999999021999KA1120M-00471MA1999999097271MD1810111+9999MW1361OA140101501OA249901501REMSYN110AAXX  07121 31300 11965 83607 11060 21110 39727 40019 58011 69922 73632 8802/ 333 11047 91015 91115 555 1/107;
0167313000999992000010715004+53750+127230FM-12+023299999V0200601N007019999999N0150001N1-00571-01001100001ADDAY131031AY221031GF108991081001999999021999MD1710171+9999MW1361OA140101701REMSYN082AAXX  07151 31300 41965 80607 11057 21100 40000 57017 73632 8802/ 333 91017 91117;
0167313000999992000010718004+53750+127230FM-12+023299999V0203601N006019999999N0090001N1-00551-01161099931ADDAY171061AY231061GF108991081001999999021999MD1710071+9999MW1711OA140101701REMSYN082AAXX  07181 31300 41959 83606 11055 21116 49993 57007 77173 8802/ 333 91017 91118;
0167313000999992000010721004+53750+127230FM-12+023299999V0200101N007019999999N0150001N1-00681-01351099951ADDAY171031AY231031GF108991081001999999021999MD1410001+9999MW1361OA140101701REMSYN082AAXX  07211 31300 41965 80107 11068 21135 49995 54000 73673 8802/ 333 91017 91118;
0293313000999992000010800004+53750+127230FM-12+023299999V0203601N005010120019N0100001N1-00591-01631999999ADDAA112000391AJ100249199999999AY171061AY231061GF108991081051012501999999IA1299KA1120N-00751MA1999999999999MD1410001+9999MW1361OA140101501OA249901801REMSYN116AAXX  08001 31300 11697 83605 11059 21163 39999 54000 69932 73673 885// 333 21075 49024 91015 91118 555 1/108 7995/;EQDQ01 099993APOSP 
0176313000999992000010803004+53750+127230FM-12+023299999V0203601N006010300019N0500001N1-00491-01441999999ADDAY131031AY221031GF106991031051012501031011MD1310151+9999ME1310069MW1361OA140101401REMSYN082AAXX  08031 31300 41699 63606 11049 21144 48006 53015 73632 83531 333 91014 91117;
0167313000999992000010806004+53750+127230FM-12+023299999V0203501N006010300019N0500001N1-00441-01471100071ADDAY131061AY221061GF107991021051012501031011MD1210021+9999MW1361OA140101201REMSYN082AAXX  08061 31300 41699 73506 11044 21147 40007 52002 73632 82531 333 91012 91114;
0167313000999992000010809004+53750+127230FM-12+023299999V0203601N006010300019N0500001N1-00621-01551100231ADDAY131031AY221031GF107991021051012501031011MD1210141+9999MW1361OA140101401REMSYN082AAXX  08091 31300 41684 73606 11062 21155 40023 52014 73632 82531 333 91014 91114;
0258313000999992000010812004+53750+127230FM-12+023299999V0200101N005019999999N0500001N1-00701-01631100371ADDAA106000091AY131061AY221061GF108991081001999999071999KA1120M-00441MA1999999097461MD1210121+9999MW1361OA140101101OA249901401REMSYN104AAXX  08121 31300 31984 80105 11070 21163 39746 40037 52012 73632 8807/ 333 11044 91011 91114 555 1/109;EQDQ01  00002PRCP06
0167313000999992000010815004+53750+127230FM-12+023299999V0203401N005019999999N0500001N1-00771-01681100381ADDAY131031AY221031GF108991051001999999041071MD1410001+9999MW1361OA140101101REMSYN082AAXX  08151 31300 41984 83405 11077 21168 40038 54000 73632 85047 333 91011 91112;
0150313000999992000010818004+53750+127230FM-12+023299999V0203501N004019999999N0500001N1-00881-01741100421ADDAY131061AY221061GF108991061001999999041031MD1310031+9999MW1021REMSYN076AAXX  08181 31300 41984 83504 11088 21174 40042 53003 70232 86043 333 91114;
0122313000999992000010821004+53750+127230FM-12+023299999V0201101N003019999999N0500001N1-02052-02621101141ADDGF108991011001999999041051MD1210571+9999REMSYN070AAXX  08211 31300 42984 81103 11205 21262 40114 52057 81045 333 91111;
0202313000999992000010900004+53750+127230FM-12+023299999V0201201N001019999999N0500001N1-02011-02501101271ADDAA106000091GF108991081001999999071999KA1120N-02061MA1999999098191MD1210131+9999REMSYN092AAXX  09001 31300 32999 81201 11201 21250 39819 40127 52013 8807/ 333 21206 555 1/118 7000/;EQDQ01  00002PRCP06
0112313000999992000010903004+53750+127230FM-12+023299999V0200601N001012200019N0500001N1-01871-02451101371ADDGF103991001001999999001011MD1210101+9999REMSYN060AAXX  09031 31300 42999 30601 11187 21245 40137 52010 80001;
0112313000999992000010909004+53750+127230FM-12+023299999V0201101N002012200019N0500001N1-01971-02461101751ADDGF103991001001999999001021MD1310271+9999REMSYN060AAXX  09091 31300 42984 31102 11197 21246 40175 53027 80002;
0206313000999992000010912004+53750+127230FM-12+023299999V0209999C000012200019N0500001N1-02121-02521101911ADDAA106000091GA1001+999999999GF100991001001999999001001KA1120M-01771MA1999999098801MD1210151+9999REMSYN080AAXX  09121 31300 32984 00000 11212 21252 39880 40191 52015 333 11177 555 1/122;EQDQ01  00002PRCP06
0122313000999992000010915004+53750+127230FM-12+023299999V0209999C000012200019N0500001N1-02441-02691102131ADDGA1001+999999999GF100991001001999999001001MD1210171+9999REMSYN054AAXX  09151 31300 42984 00000 11244 21269 40213 52017;
0150313000999992000010918004+53750+127230FM-12+023299999V0209999C000012200019N0500001N1-02661-02901102331ADDAY101061AY201061GA1001+999999999GF100991001001999999001001MD1210161+9999MW1401REMSYN060AAXX  09181 31300 41984 00000 11266 21290 40233 52016 74000;
0150313000999992000010921004+53750+127230FM-12+023299999V0209999C000012200019N0060001N1-02831-03001102341ADDAY101031AY201031GA1001+999999999GF100991001001999999001001MD1410001+9999MW1101REMSYN060AAXX  09211 31300 41956 00000 11283 21300 40234 54000 71000;
0253313000999992000011000004+53750+127230FM-12+023299999V0209999C000019999999N0040001N1-02951-03191102551ADDAA106000091AJ100239199999999AY101061AY201061GF108991999999999999999999IA1299KA1120N-02981MA1999999099301MD1310171+9999MW1101REMSYN098AAXX  10001 31300 31996 80000 11295 21319 39930 40255 53017 71000 333 21298 49023 555 1/135 7000/;EQDQ01  00002PRCP06
0134313000999992000011003004+53750+127230FM-12+023299999V0209999C000019999999N0040001N1-02591-02841102581ADDAY101031AY201031GF108991999999999999999999MD1210091+9999MW1101REMSYN060AAXX  10031 31300 41996 80000 11259 21284 40258 52009 71000;
0112313000999992000011006004+53750+127230FM-12+023299999V0201801N001012200019N0500001N1-02361+99999102561ADDGF102991001001999999001021MD1410001+9999REMSYN060AAXX  10061 31300 42999 21801 11236 21235 40256 54000 80002;
0112313000999992000011009004+53750+127230FM-12+023299999V0209999C000012200019N0500001N1-02471+99999102821ADDGF102991001001999999001021MD1310241+9999REMSYN060AAXX  10091 31300 42984 20000 11247 21246 40282 53024 80002;
0234313000999992000011012004+53750+127230FM-12+023299999V02099999999992200019N0080001N1-02711-02941103071ADDAA106000091AY101061AY201061GA1001+999999999GF100991001001999999001001KA1120M-02361MA1999999099841MD1210211+9999MW1101REMSYN086AAXX  10121 31300 31958 0000/ 11271 21294 39984 40307 52021 71000 333 11236 555 8/033;EQDQ01  00002PRCP06
0150313000999992000011015004+53750+127230FM-12+023299999V0209999C000012200019N0007001N1-02831-03061103191ADDAY141031AY201031GA1001+999999999GF100991001001999999001001MD1210111+9999MW1441REMSYN060AAXX  10151 31300 41907 00000 11283 21306 40319 52011 74440;
0150313000999992000011018004+53750+127230FM-12+023299999V0209999C000012200019N0015001N1-02951-03191103381ADDAY141061AY201061GA1001+999999999GF100991001001999999001001MD1210151+9999MW1101REMSYN060AAXX  10181 31300 41915 00000 11295 21319 40338 52015 71040;
0150313000999992000011021004+53750+127230FM-12+023299999V0209999C000012200019N0032001N1-03131-03361103481ADDAY101031AY201031GA1001+999999999GF100991001001999999001001MD1210091+9999MW1101REMSYN060AAXX  10211 31300 41932 00000 11313 21336 40348 52009 71000;
0269313000999992000011100004+53750+127230FM-12+023299999V0209999C000012200019N0040001N1-03211-03431103581ADDAA106000091AJ100239199999999AY101061AY201061GA1001+999999999GF100991001001999999001001IA1299KA1120N-03211MA1999999100281MD1210091+9999MW1101REMSYN098AAXX  11001 31300 31996 00000 11321 21343 30028 40358 52009 71000 333 21321 49023 555 1/135 7000/;EQDQ01  00002PRCP06
0150313000999992000011103004+53750+127230FM-12+023299999V0209999C000012200019N0200001N1-02791-03031103621ADDAY101031AY201031GA1001+999999999GF100991001001999999001001MD1110081+9999MW1401REMSYN060AAXX  11031 31300 41998 00000 11279 21303 40362 51008 74000;
0122313000999992000011106004+53750+127230FM-12+023299999V0209999C000012200019N0500001N1-02391-02641103361ADDGA1001+999999999GF100991001001999999001001MD1810201+9999REMSYN054AAXX  11061 31300 42999 00000 11239 21264 40336 58020;
0150313000999992000011109004+53750+127230FM-12+023299999V0209999C000012200019N0025001N1-02541-02781103391ADDAY101031AY201031GA1001+999999999GF100991001001999999001001MD1310021+9999MW1101REMSYN060AAXX  11091 31300 41925 00000 11254 21278 40339 53002 71000;
0224313000999992000011112004+53750+127230FM-12+023299999V0209999C000012200019N0025001N1-02741-02981103361ADDAA106000091AY101061AY201061GA1001+999999999GF100991001001999999001001KA1999M-02361MA1999999100121MD1810061+9999MW1101REMSYN076AAXX  11121 31300 31925 00000 11274 21298 30012 40336 58006 71000 333 11236;EQDQ01  00002PRCP06
0180313000999992000011115004+53750+127230FM-12+023299999V0209999C000012200019N0033001N1-02951-03191103311ADDAA106000091AY101031AY201031GA1001+999999999GF100991001001999999001001MD1710081+9999MW1101REMSYN060AAXX  11151 31300 31933 00000 11295 21319 40331 57008 71000;EQDQ01  00002PRCP06
0269313000999992000011200004+53750+127230FM-12+023299999V0209999C000012200019N0100001N1-03331-03561103011ADDAA106000091AJ100239199999999AY101061AY201061GA1001+999999999GF100991001001999999001001IA1299KA1120N-03351MA1999999099711MD1610081+9999MW1401REMSYN098AAXX  12001 31300 31997 00000 11333 21356 39971 40301 56008 74000 333 21335 49023 555 1/136 7000/;EQDQ01  00002PRCP06
0150313000999992000011203004+53750+127230FM-12+023299999V0209999C000012200019N0100001N1-02971-03211102851ADDAY101031AY201031GA1001+999999999GF100991001001999999001001MD1810121+9999MW1401REMSYN060AAXX  12031 31300 41997 00000 11297 21321 40285 58012 74000;
0122313000999992000011206004+53750+127230FM-12+023299999V0209999C000012200019N0500001N1-02661-02901102631ADDGA1001+999999999GF100991001001999999001001MD1710171+9999REMSYN054AAXX  12061 31300 42999 00000 11266 21290 40263 57017;
0122313000999992000011209004+53750+127230FM-12+023299999V0209999C000012200019N0500001N1-02881-03121102631ADDGA1001+999999999GF100991001001999999001001MD1610021+9999REMSYN054AAXX  12091 31300 42984 00000 11288 21312 40263 56002;
0234313000999992000011212004+53750+127230FM-12+023299999V0209999C000012200019N0270001N1-03031-03271102661ADDAA106000091AY101061AY201061GA1001+999999999GF100991001001999999001001KA1120M-02661MA1999999099411MD1310011+9999MW1401REMSYN086AAXX  12121 31300 31977 00000 11303 21327 39941 40266 53001 74000 333 11266 555 1/133;EQDQ01  00002PRCP06
0150313000999992000011215004+53750+127230FM-12+023299999V0209999C000012200019N0080001N1-03171-03411102651ADDAY101031AY201031GA1001+999999999GF100991001001999999001001MD1810031+9999MW1101REMSYN060AAXX  12151 31300 41958 00000 11317 21341 40265 58003 71000;
0150313000999992000011218004+53750+127230FM-12+023299999V0209999C000012200019N0130001N1-03351-03591102691ADDAY101061AY201061GA1001+999999999GF100991001001999999001001MD1310011+9999MW1401REMSYN060AAXX  12181 31300 41963 00000 11335 21359 40269 53001 74000;
0150313000999992000011221004+53750+127230FM-12+023299999V0209999C000012200019N0070001N1-03361-03591102681ADDAY101031AY201031GA1001+999999999GF100991001001999999001001MD1810011+9999MW1101REMSYN060AAXX  12211 31300 41957 00000 11336 21359 40268 58001 71000;
0236313000999992000011300004+53750+127230FM-12+023299999V0209999C000012200019N0100001N1-03451-03671102811ADDAA106000091AY101061AY201061GA1001+999999999GF100991001001999999001001IA1299KA1120N-03481MA1999999099481MD1310101+9999MW1401REMSYN082AAXX  13001 31300 31997 00000 11345 21367 39948 40281 53010 74000 333 21348 49023;EQDQ01  00002PRCP06
0150313000999992000011303004+53750+127230FM-12+023299999V0209999C000012200019N0200001N1-02991-03231102771ADDAY101031AY201031GA1001+999999999GF100991001001999999001001MD1110031+9999MW1401REMSYN060AAXX  13031 31300 41998 00000 11299 21323 40277 51003 74000;
0122313000999992000011306004+53750+127230FM-12+023299999V0209999C000012200019N0500001N1-02631-02871102711ADDGA1001+999999999GF100991001001999999001001MD1410001+9999REMSYN054AAXX  13061 31300 42999 00000 11263 21287 40271 54000;
0122313000999992000011309004+53750+127230FM-12+023299999V0209999C000012200019N0500001N1-02871-03121102841ADDGA1001+999999999GF100991001001999999001001MD1310091+9999REMSYN054AAXX  13091 31300 42984 00000 11287 21312 40284 53009;
0224313000999992000011312004+53750+127230FM-12+023299999V0209999C000012200019N0500001N1-03031-03271102921ADDAA106000091AY101061AY201061GA1001+999999999GF100991001001999999001001KA1999M-02621MA1999999099661MD1210061+9999MW1401REMSYN076AAXX  13121 31300 31984 00000 11303 21327 39966 40292 52006 74000 333 11262;EQDQ01  00002PRCP06
0150313000999992000011315004+53750+127230FM-12+023299999V0209999C000012200019N0500001N1-03151-03381103021ADDAY101031AY201031GA1001+999999999GF100991001001999999001001MD1210081+9999MW1401REMSYN060AAXX  13151 31300 41984 00000 11315 21338 40302 52008 74000;
0150313000999992000011318004+53750+127230FM-12+023299999V0209999C000012200019N0500001N1-03171-03411103041ADDAY101061AY201061GA1001+999999999GF100991001001999999001001MD1110011+9999MW1401REMSYN060AAXX  13181 31300 41984 00000 11317 21341 40304 51001 74000;
0154313000999992000011321004+53750+127230FM-12+023299999V0209999C000012200019N0500001N1-03271-03511103091ADDAY101031AY201031GA1001+999999999GF100991001001999999001001MD1310031+9999MW1401REMSYN064    AAXX  13211 31300 41984 00000 11327 21351 40309 53003 74000;
0245313000999992000011400004+53750+127230FM-12+023299999V0209999C000012200019N0500001N1-03371-03591103221ADDAA199000091AJ100239199999999GA1001+999999999GF100991001001999999001001IA1299KA1120N-03381MA1999999099901MD1210121+9999REMSYN096    AAXX  14001 31300 31999 00000 11337 21359 39990 40322 52012 333 21338 49023 555 1/135 7000/;EQDQ01  00002PRCP99
0116313000999992000011403004+53750+127230FM-12+023299999V0209999C000012200019N0500001N1-02731-02981103221ADDGF102991001001999999001021MD1210091+9999REMSYN064    AAXX  14031 31300 42999 20000 11273 21298 40322 52009 80002;
0116313000999992000011406004+53750+127230FM-12+023299999V0209999C000012200019N0500001N1-02611-02851103131ADDGF102991001001999999001021MD1810071+9999REMSYN064    AAXX  14061 31300 42999 20000 11261 21285 40313 58007 80002;
0144313000999992000011409004+53750+127230FM-12+023299999V0209999C000012200019N0500001N1-02811-03041103221ADDAY101031AY201031GF102991001001999999001021MD1310061+9999MW1401REMSYN070    AAXX  14091 31300 42984 20000 11281 21304 40322 53006 74000 80002;
0238313000999992000011412004+53750+127230FM-12+023299999V0209999C000012200019N0200001N1-02961-03191103311ADDAA199000091AY101061AY201061GA1001+999999999GF100991001001999999001001KA1120M-02561MA1999999100041MD1210061+9999MW1401REMSYN090    AAXX  14121 31300 31970 00000 11296 21319 30004 40331 52006 74000 333 11256 555 1/134;EQDQ01  00002PRCP99
0154313000999992000011415004+53750+127230FM-12+023299999V0209999C000012200019N0160001N1-03031-03271103341ADDAY101031AY201031GA1001+999999999GF100991001001999999001001MD1110021+9999MW1401REMSYN064    AAXX  14151 31300 41966 00000 11303 21327 40334 51002 74000;
0154313000999992000011418004+53750+127230FM-12+023299999V0209999C000012200019N0140001N1-03071-03291103351ADDAY101061AY201061GA1001+999999999GF100991001001999999001001MD1410001+9999MW1401REMSYN064    AAXX  14181 31300 41964 00000 11307 21329 40335 54000 74000;
0116313000999992000011421004+53750+127230FM-12+023299999V0209999C000012200019N0180001N1-03071-03291103351ADDGF103991001001999999001011MD1410001+9999REMSYN064    AAXX  14211 31300 41968 30000 11307 21329 40335 54000 80001;
0235313000999992000011500004+53750+127230FM-12+023299999V0209999C000012200019N9999999N1-03041-03271103341ADDAA199000091AJ100239199999999GF102991001001999999001011IA1299KA1120N-03101MA1999999098061MD1410001+9999REMSYN102    AAXX  15001 31300 3//// 20000 11304 21327 30806 40334 54000 80001 333 21310 49023 555 1/131 7000/;EQDQ01  00002PRCP99
0144313000999992000011503004+53750+127230FM-12+023299999V0209999C000019999999N0040001N1-02691-02931103301ADDAY171031AY211031GF108991001001999999001051MD1410001+9999MW1711REMSYN070    AAXX  15031 31300 41996 80000 11269 21293 40330 54000 77171 80005;
0144313000999992000011506004+53750+127230FM-12+023299999V0209999C000019999999N0100001N1-02521-02771103171ADDAY171061AY211061GF108991001001999999001071MD1810091+9999MW1711REMSYN070    AAXX  15061 31300 41997 80000 11252 21277 40317 58009 77171 80007;
0144313000999992000011509004+53750+127230FM-12+023299999V0209999C000019999999N0130001N1-02661-02901103221ADDAY171031AY221031GF108991001001999999001051MD1310021+9999MW1711REMSYN070    AAXX  15091 31300 41963 80000 11266 21290 40322 53002 77172 80005;
0215313000999992000011512004+53750+127230FM-12+023299999V0209999C000019999999N0140001N1-02771-03011103321ADDAA112000191AY171061AY221061GF108991001001999999001051KA1120M-02501MA1999999100082MD1110091+9999MW1711REMSYN102    AAXX  15121 31300 11964 80000 11277 21301 30008 40332 51009 69922 77172 80005 333 11250 555 1/131;
0144313000999992000011515004+53750+127230FM-12+023299999V0209999C000012200019N0500001N1-02931-03171103331ADDAY171031AY211031GF103991001001999999001011MD1410001+9999MW1021REMSYN070    AAXX  15151 31300 41984 30000 11293 21317 40333 54000 70271 80001;
0154313000999992000011518004+53750+127230FM-12+023299999V0209999C000012200019N0500001N1-03131-03361103321ADDAY171061AY211061GA1001+999999999GF100991001001999999001001MD1810031+9999MW1021REMSYN064    AAXX  15181 31300 41984 00000 11313 21336 40332 58003 70271;
0126313000999992000011521004+53750+127230FM-12+023299999V0209999C000012200019N0500001N1-03231-03481103341ADDGA1001+999999999GF100991001001999999001001MD1410001+9999REMSYN058    AAXX  15211 31300 42984 00000 11323 21348 40334 54000;
0244313000999992000011600004+53750+127230FM-12+023299999V0209999C000012200019N0100001N1-03311-03531103371ADDAA112000191AJ100239199999999AY101061AY201061GA1001+999999999GF100991001001999999001001IA1299KA1120N-03331MA1999999100051MD1410001+9999MW1401REMSYN092    AAXX  16001 31300 11997 00000 11331 21353 30005 40337 54000 69922 74000 333 21333 49023;
0154313000999992000011603004+53750+127230FM-12+023299999V0209999C000012200019N0500001N1-02881-03121103291ADDAY101031AY201031GA1001+999999999GF100991001001999999001001MD1810011+9999MW1401REMSYN064    AAXX  16031 31300 41999 00000 11288 21312 40329 58001 74000;
0126313000999992000011606004+53750+127230FM-12+023299999V0209999C000012200019N0500001N1-02631-02871103161ADDGA1001+999999999GF100991001001999999001001MD1710091+9999REMSYN058    AAXX  16061 31300 42599 00000 11263 21287 40316 57009;
0154313000999992000011609004+53750+127230FM-12+023299999V0209999C000012200019N0500001N1-02751-02991103141ADDAY101031AY201031GA1001+999999999GF100991001001999999001001MD1710041+9999MW1401REMSYN064    AAXX  16091 31300 41984 00000 11275 21299 40314 57004 74000;
0228313000999992000011612004+53750+127230FM-12+023299999V0209999C000012200019N0190001N1-02881-03121103281ADDAA199000091AY101061AY201061GA1001+999999999GF100991001001999999001001KA1999M-02551MA1999999100031MD1310121+9999MW1401REMSYN080    AAXX  16121 31300 31969 00000 11288 21312 30003 40328 53012 74000 333 11255;EQDQ01  00002PRCP99
0154313000999992000011615004+53750+127230FM-12+023299999V0209999C000012200019N0170001N1-03141-03361103351ADDAY101031AY201031GA1001+999999999GF100991001001999999001001MD1110031+9999MW1401REMSYN064    AAXX  16151 31300 41967 00000 11314 21336 40335 51003 74000;
0154313000999992000011618004+53750+127230FM-12+023299999V0209999C000012200019N0200001N1-03271-03511103381ADDAY101061AY201061GA1001+999999999GF100991001001999999001001MD1410001+9999MW1401REMSYN064    AAXX  16181 31300 41970 00000 11327 21351 40338 54000 74000;
0154313000999992000011621004+53750+127230FM-12+023299999V0209999C000012200019N0210001N1-03331-03561103231ADDAY101031AY201031GA1001+999999999GF100991001001999999001001MD1810141+9999MW1401REMSYN064    AAXX  16211 31300 41971 00000 11333 21356 40323 58014 74000;
0257313000999992000011700004+53750+127230FM-12+023299999V0209999C000012200019N0100001N1-03351-03591103241ADDAA199000091AJ100239199999999AY101061AY201061GA1001+999999999GF100991001001999999001001IA1299KA1120N-03381MA1999999099921MD1410001+9999MW1401REMSYN086    AAXX  17001 31300 31997 00000 11335 21359 39992 40324 54000 74000 333 21338 49023;EQDQ01  00002PRCP99
0154313000999992000011703004+53750+127230FM-12+023299999V0209999C000012200019N0200001N1-02891-03131103161ADDAY101031AY201031GA1001+999999999GF100991001001999999001001MD1810011+9999MW1401REMSYN064    AAXX  17031 31300 41998 00000 11289 21313 40316 58001 74000;
0126313000999992000011706004+53750+127230FM-12+023299999V0209999C000012200019N0500001N1-02531-02771103001ADDGA1001+999999999GF100991001001999999001001MD1710111+9999REMSYN058    AAXX  17061 31300 42999 00000 11253 21277 40300 57011;
0126313000999992000011709004+53750+127230FM-12+023299999V0209999C000012200019N0500001N1-02721-02961103061ADDGA1001+999999999GF100991001001999999001001MD1310031+9999REMSYN058    AAXX  17091 31300 42984 00000 11272 21296 40306 53003;
0228313000999992000011712004+53750+127230FM-12+023299999V0209999C000012200019N0080001N1-02911-03151103091ADDAA199000091AY101061AY201061GA1001+999999999GF100991001001999999001001KA1999M-02521MA1999999099841MD1110011+9999MW1101REMSYN080    AAXX  17121 31300 31958 00000 11291 21315 39984 40309 51001 71000 333 11252;EQDQ01  00002PRCP99
0154313000999992000011715004+53750+127230FM-12+023299999V0209999C000012200019N0090001N1-03151-03381103131ADDAY101031AY281031GA1001+999999999GF100991001001999999001001MD1410001+9999MW1001REMSYN064    AAXX  17151 31300 41959 00000 11315 21338 40313 54000 70008;
0140313000999992000011718004+53750+127230FM-12+023299999V0209999C000012200019N0060001N1-03251-03481999999ADDAY101061AY201061GA1001+999999999GF100991001001999999001001MW1101REMSYN064    AAXX  17181 31300 41956 00000 11325 21348 4/306 5/009 71000;
0173313000999992000011721004+53750+127230FM-12+023299999V0209999C000012200019N0160001N1-03371+99999999999ADDAY101031AY201031GA1001+999999999GF100991001001999999001001MD1710071+9999MW1401REMSYN064    AAXX  17211 31300 41966 00000 11337 27359 40899 57007 74000;EQDQ01+108993APOSLP
0273313000999992000011800004+53750+127230FM-12+023299999V0209999C000012200019N0100001N1-03401-03611103071ADDAA199000091AJ100239199999999AY101061AY201061GA1001+999999999GF100991001001999999001001IA1299KA1120N-03441MA1999999099761MD1310081+9999MW1401REMSYN102    AAXX  18001 31300 31997 00000 11340 21361 39976 40307 53008 74000 333 21344 49023 555 1/137 7000/;EQDQ01  00002PRCP99
0154313000999992000011803004+53750+127230FM-12+023299999V0209999C000012200019N0500001N1-02911-03151102941ADDAY101031AY201031GA1001+999999999GF100991001001999999001001MD1810061+9999MW1401REMSYN064    AAXX  18031 31300 41999 00000 11291 21315 40294 58006 74000;
0126313000999992000011806004+53750+127230FM-12+023299999V0209999C000012200019N0500001N1-02521-02771102781ADDGA1001+999999999GF100991001001999999001001MD1710111+9999REMSYN058    AAXX  18061 31300 42999 00000 11252 21277 40278 57011;
0126313000999992000011809004+53750+127230FM-12+023299999V0209999C000012200019N0500001N1-02701-02941102811ADDGA1001+999999999GF100991001001999999001001MD1410001+9999REMSYN058    AAXX  18091 31300 42984 00000 11270 21294 40281 54000;
0228313000999992000011812004+53750+127230FM-12+023299999V0209999C000012200019N0200001N1-02831-03061102871ADDAA199000091AY101061AY201061GF103991001001999999001011KA1120M-02491MA1999999099641MD1310051+9999MW1401REMSYN096    AAXX  18121 31300 31970 30000 11283 21306 39964 40287 53005 74000 80001 333 11249 555 1/132;EQDQ01  00002PRCP99
0154313000999992000011815004+53750+127230FM-12+023299999V0209999C000012200019N0160001N1-03111-03341102911ADDAY101031AY201031GA1001+999999999GF100991001001999999001001MD1410001+9999MW1401REMSYN064    AAXX  18151 31300 41966 00000 11311 21334 40291 54000 74000;
0154313000999992000011818004+53750+127230FM-12+023299999V0209999C000012200019N0120001N1-03151-03381102921ADDAY101061AY201061GA1001+999999999GF100991001001999999001001MD1410001+9999MW1401REMSYN064    AAXX  18181 31300 41962 00000 11315 21338 40292 54000 74000;
0154313000999992000011821004+53750+127230FM-12+023299999V0209999C000012200019N0140001N1-03371-03591102951ADDAY101031AY201031GA1001+999999999GF100991001001999999001001MD1410001+9999MW1401REMSYN064    AAXX  18211 31300 41964 00000 11337 21359 40295 54000 74000;
0273313000999992000011900004+53750+127230FM-12+023299999V0209999C000012200019N0040001N1-03381-03611103071ADDAA199000091AJ100239199999999AY101061AY201061GA1001+999999999GF100991001001999999001001IA1299KA1120N-03481MA1999999099751MD1310111+9999MW1101REMSYN102    AAXX  19001 31300 31996 00000 11338 21361 39975 40307 53011 71000 333 21348 49023 555 1/135 7000/;EQDQ01  00002PRCP99
0154313000999992000011903004+53750+127230FM-12+023299999V0209999C000012200019N0040001N1-02911-03151103011ADDAY101031AY201031GA1001+999999999GF100991001001999999001001MD1110011+9999MW1101REMSYN064    AAXX  19031 31300 41996 00000 11291 21315 40301 51001 71000;
0116313000999992000011906004+53750+127230FM-12+023299999V0201901N001012200019N0500001N1-02451-02701102851ADDGF102991001001999999001011MD1810091+9999REMSYN064    AAXX  19061 31300 42999 21901 11245 21270 40285 58009 80001;
0154313000999992000011909004+53750+127230FM-12+023299999V0209999C000012200019N0220001N1-02651-02901103071ADDAY101031AY201031GA1001+999999999GF100991001001999999001001MD1310191+9999MW1401REMSYN064    AAXX  19091 31300 41972 00000 11265 21290 40307 53019 74000;
0175313000999992000011912004+53750+127230FM-12+023299999V02099999999999999999N0200001N1-02851-03071103131ADDAA199000091AY101061AY201061KA1120M-02421MD1210021+9999MW1401REMSYN084    AAXX  19121 31300 31970 /0/// 11285 21307 40313 52002 74000 333 11242 555 6/133;EQDQ01  00002PRCP99
0154313000999992000011915004+53750+127230FM-12+023299999V0209999C000012200019N0160001N1-03111-03341103211ADDAY101031AY201031GA1001+999999999GF100991001001999999001001MD1210051+9999MW1401REMSYN064    AAXX  19151 31300 41966 00000 11311 21334 40321 52005 74000;
0150313000999992000011918004+53750+127230FM-12+023299999V0209999C000012200019N0170001N1-03271-03511103291ADDAY101061AY201061GA1001+999999999GF100991001001999999001001MD1210051+9999MW1401REMSYN060AAXX  19181 31300 41967 00000 11327 21351 40329 52005 74000;
0150313000999992000011921004+53750+127230FM-12+023299999V0209999C000012200019N0200001N1-03231-03461103271ADDAY101031AY201031GA1001+999999999GF100991001001999999001001MD1410001+9999MW1401REMSYN060AAXX  19211 31300 41970 00000 11323 21346 40327 54000 74000;
0269313000999992000012000004+53750+127230FM-12+023299999V0209999C000012200019N0040001N1-03281-03511103341ADDAA199000091AJ100239199999999AY101061AY201061GA1001+999999999GF100991001001999999001001IA1299KA1120N-03331MA1999999100031MD1310051+9999MW1101REMSYN098AAXX  20001 31300 31996 00000 11328 21351 30003 40334 53005 71000 333 21333 49023 555 1/138 7000/;EQDQ01  00002PRCP99
0122313000999992000012003004+53750+127230FM-12+023299999V0209999C000012200019N0500001N1-02811-03041103381ADDGA1001+999999999GF100991001001999999001001MD1110101+9999REMSYN054AAXX  20031 31300 42999 00000 11281 21304 40338 51010;
0122313000999992000012006004+53750+127230FM-12+023299999V0209999C000012200019N0500001N1-02441-02691103201ADDGA1001+999999999GF100991001001999999001001MD1810121+9999REMSYN054AAXX  20061 31300 42999 00000 11244 21269 40320 58012;
0150313000999992000012009004+53750+127230FM-12+023299999V0209999C000012200019N0140001N1-02661-02901103241ADDAY101031AY201031GA1001+999999999GF100991001001999999001001MD1410001+9999MW1401REMSYN060AAXX  20091 31300 41964 00000 11266 21290 40324 54000 74000;
0224313000999992000012012004+53750+127230FM-12+023299999V0209999C000012200019N0110001N1-02771-03011103411ADDAA199000091AY101061AY201061GA1001+999999999GF100991001001999999001001KA1999M-02331MA1999999100161MD1310151+9999MW1401REMSYN076AAXX  20121 31300 31961 00000 11277 21301 30016 40341 53015 74000 333 11233;EQDQ01  00002PRCP99
0122313000999992000012015004+53750+127230FM-12+023299999V0209999C000012200019N0200001N1-03091-03321103441ADDGA1001+999999999GF100991001001999999001001MD1810011+9999REMSYN054AAXX  20151 31300 41970 00000 11309 21332 40344 58001;
0140313000999992000012018004+53750+127230FM-12+023299999V0209999C000019999999N0090001N1-03221-03461103451ADDAY101061AY201061GF108991001001999999001051MD1410001+9999MW1101REMSYN066AAXX  20181 31300 41959 80000 11322 21346 40345 54000 71000 80005;
0140313000999992000012021004+53750+127230FM-12+023299999V0209999C000019999999N0080001N1-03161-03381103301ADDAY171031AY221031GF108991001001999999001071MD1810141+9999MW1711REMSYN066AAXX  20211 31300 41958 80000 11316 21338 40330 58014 77172 80007;
0246313000999992000012100004+53750+127230FM-12+023299999V0209999C000012200019N0100001N1-03311-03531103401ADDAA112000791AJ100239199999999AY171061AY211061GF103991001001999999001021IA1299KA1120N-03321MA1999999100081MD1310071+9999MW1401REMSYN110AAXX  21001 31300 11997 30000 11331 21353 30008 40340 53007 69902 74071 80002 333 21332 49023 555 1/138 7990/;
0150313000999992000012103004+53750+127230FM-12+023299999V0209999C000012200019N0200001N1-02631-02871103271ADDAY101031AY201031GA1001+999999999GF100991001001999999001001MD1810031+9999MW1401REMSYN060AAXX  21031 31300 41998 00000 11263 21287 40327 58003 74000;
0122313000999992000012106004+53750+127230FM-12+023299999V0209999C000012200019N0500001N1-02471-02711103191ADDGA1001+999999999GF100991001001999999001001MD1710061+9999REMSYN054AAXX  21061 31300 42999 00000 11247 21271 40319 57006;
0122313000999992000012109004+53750+127230FM-12+023299999V0209999C000012200019N0500001N1-02731-02981103301ADDGA1001+999999999GF100991001001999999001001MD1310071+9999REMSYN054AAXX  21091 31300 42984 00000 11273 21298 40330 53007;
0234313000999992000012112004+53750+127230FM-12+023299999V0209999C000012200019N0200001N1-02881-03121103261ADDAA199000091AY101061AY201061GA1001+999999999GF100991001001999999001001KA1120M-02471MA1999999100011MD1810051+9999MW1401REMSYN086AAXX  21121 31300 31970 00000 11288 21312 30001 40326 58005 74000 333 11247 555 1/135;EQDQ01  00002PRCP99
0150313000999992000012115004+53750+127230FM-12+023299999V0209999C000012200019N0500001N1-03281-03511103321ADDAY101031AY201031GA1001+999999999GF100991001001999999001001MD1410001+9999MW1401REMSYN060AAXX  21151 31300 41984 00000 11328 21351 40332 54000 74000;
0150313000999992000012118004+53750+127230FM-12+023299999V0209999C000012200019N0500001N1-03411-03641103331ADDAY101061AY201061GA1001+999999999GF100991001001999999001001MD1410001+9999MW1401REMSYN060AAXX  21181 31300 41984 00000 11341 21364 40333 54000 74000;
0150313000999992000012121004+53750+127230FM-12+023299999V0209999C000012200019N0500001N1-03591-03801103351ADDAY101031AY201031GA1001+999999999GF100991001001999999001001MD1810011+9999MW1401REMSYN060AAXX  21211 31300 41984 00000 11359 21380 40335 58001 74000;
0269313000999992000012200004+53750+127230FM-12+023299999V0209999C000012200019N0100001N1-03551-03771103421ADDAA199000091AJ100239199999999AY101061AY201061GA1001+999999999GF100991001001999999001001IA1299KA1120N-03591MA1999999100061MD1310061+9999MW1401REMSYN098AAXX  22001 31300 31997 00000 11355 21377 30006 40342 53006 74000 333 21359 49023 555 1/142 7000/;EQDQ01  00002PRCP99
0122313000999992000012203004+53750+127230FM-12+023299999V0209999C000012200019N0500001N1-02561-02811103281ADDGA1001+999999999GF100991001001999999001001MD1410001+9999REMSYN054AAXX  22031 31300 42999 00000 11256 21281 40328 54000;
0122313000999992000012206004+53750+127230FM-12+023299999V0203301N003012200019N0500001N1-02201-02521103231ADDGA1001+999999999GF100991001001999999001001MD1410001+9999REMSYN054AAXX  22061 31300 42999 03303 11220 21252 40323 54000;
0122313000999992000012209004+53750+127230FM-12+023299999V0203001N003012200019N0500001N1-02211-02871103351ADDGA1001+999999999GF100991001001999999001001MD1310121+9999REMSYN054AAXX  22091 31300 42984 03003 11221 21287 40335 53012;
0196313000999992000012212004+53750+127230FM-12+023299999V0203101N002012200019N0500001N1-02511-02981103391ADDAA199000091GA1001+999999999GF100991001001999999001001KA1999M-02161MA1999999100181MD1410001+9999REMSYN070AAXX  22121 31300 32984 03102 11251 21298 30018 40339 54000 333 11216;EQDQ01  00002PRCP99
0122313000999992000012215004+53750+127230FM-12+023299999V0203301N003012200019N0500001N1-02411-03071103411ADDGA1001+999999999GF100991001001999999001001MD1310031+9999REMSYN054AAXX  22151 31300 42984 03303 11241 21307 40341 53003;
0132313000999992000012218004+53750+127230FM-12+023299999V0203301N003012200019N0500001N1-02441-03091103361ADDGA1001+999999999GF100991001001999999001001MD1810051+9999REMSYN064AAXX  22181 31300 42984 03303 11244 21309 40336 58005 333 91110;
0160313000999992000012221004+53750+127230FM-12+023299999V0203301N004012200019N0500001N1-02591-03331103381ADDAY131031AY201031GA1001+999999999GF100991001001999999001001MD1410001+9999MW1361REMSYN070AAXX  22211 31300 41984 03304 11259 21333 40338 54000 73630 333 91110;
0286313000999992000012300004+53750+127230FM-12+023299999V0202901N003012200019N0500001N1-02681-03421103511ADDAA199000091AJ100239199999999AY131061AY201061GA1001+999999999GF100991001001999999001001IA1299KA1120N-02721MA1999999100271MD1310111+9999MW1021OA149901001REMSYN104AAXX  23001 31300 31999 02903 11268 21342 30027 40351 53011 70230 333 21272 49023 91110 555 1/133 7000/;EQDQ01  00002PRCP99
0122313000999992000012303004+53750+127230FM-12+023299999V0203301N004012200019N0500001N1-02481-03331103371ADDGA1001+999999999GF100991001001999999001001MD1810111+9999REMSYN054AAXX  23031 31300 42999 03304 11248 21333 40337 58011;
0122313000999992000012306004+53750+127230FM-12+023299999V0203301N003012200019N0500001N1-02341-03211103301ADDGA1001+999999999GF100991001001999999001001MD1610041+9999REMSYN054AAXX  23061 31300 42999 03303 11234 21321 40330 56004;
0122313000999992000012309004+53750+127230FM-12+023299999V0203201N001012200019N0500001N1-02381-03241103421ADDGA1001+999999999GF100991001001999999001001MD1310101+9999REMSYN054AAXX  23091 31300 42984 03201 11238 21324 40342 53010;
0196313000999992000012312004+53750+127230FM-12+023299999V0203201N002012200019N0500001N1-02371-03121103371ADDAA199000091GA1001+999999999GF100991001001999999001001KA1999M-02281MA1999999100171MD1810051+9999REMSYN070AAXX  23121 31300 32984 03202 11237 21312 30017 40337 58005 333 11228;EQDQ01  00002PRCP99
0122313000999992000012315004+53750+127230FM-12+023299999V0203001N002012200019N0500001N1-02531-03011103321ADDGA1001+999999999GF100991001001999999001001MD1810061+9999REMSYN054AAXX  23151 31300 42984 03002 11253 21301 40332 58006;
0122313000999992000012318004+53750+127230FM-12+023299999V0201701N001012200019N0500001N1-02531-02991103371ADDGA1001+999999999GF100991001001999999001001MD1810051+9999REMSYN054AAXX  23181 31300 42984 01701 11253 21299 40337 58005;
0157313000999992000012321004+53750+127230FM-12+023299999V0202601N002012200019N0500001N1-02291-03051103341ADDGA1001+999999999GF100991001001999999001001MD1710031+9999REMSYN054AAXX  23211 31300 42984 02602 11229 21305 40334 56000;EQDQ01+000062APCTENQ02+000002APC3  
0241313000999992000012400004+53750+127230FM-12+023299999V0203001N002012200019N0500001N1-02351-03111103411ADDAA199000091AJ100239199999999GA1001+999999999GF100991001001999999001001IA1299KA1120N-02551MA1999999100211MD1310051+9999REMSYN092AAXX  24001 31300 32999 03002 11235 21311 30021 40341 53005 333 21255 49023 555 1/132 7000/;EQDQ01  00002PRCP99
0122313000999992000012403004+53750+127230FM-12+023299999V0203001N002012200019N0500001N1-02131-02901103291ADDGA1001+999999999GF100991001001999999001001MD1810081+9999REMSYN054AAXX  24031 31300 42999 03002 11213 21290 40329 58008;
0112313000999992000012406004+53750+127230FM-12+023299999V0202401N002019999999N0500001N1-01851-02751103151ADDGF105991021001999999031011MD1710091+9999REMSYN060AAXX  24061 31300 42999 52402 11185 21275 40315 57009 82031;
0112313000999992000012409004+53750+127230FM-12+023299999V0202401N001012200019N0500001N1-02041-02811103051ADDGF103991021001999999031021MD1710131+9999REMSYN060AAXX  24091 31300 42984 32401 11204 21281 40305 57013 82032;
0196313000999992000012412004+53750+127230FM-12+023299999V0200601N001012200019N0500001N1-02351-02831102931ADDAA199000091GF102991001001999999001011KA1120M-01841MA1999999099761MD1710151+9999REMSYN086AAXX  24121 31300 32984 20601 11235 21283 39976 40293 57015 80001 333 11184 555 1/132;EQDQ01  00002PRCP99
0112313000999992000012415004+53750+127230FM-12+023299999V0209999C000019999999N0500001N1-02581-02891102701ADDGF108991001001999999001051MD1710261+9999REMSYN060AAXX  24151 31300 42984 80000 11258 21289 40270 57026 80005;
0132313000999992000012421004+53750+127230FM-12+023299999V0203101N003012200019N0500001N1-01531-02341102611ADDGA1001+999999999GF100991001001999999001001MD1310081+9999REMSYN064AAXX  24211 31300 42984 03103 11153 21234 40261 53008 333 91111;
0303313000999992000012500004+53750+127230FM-12+023299999V0203401N007012200019N0500001N1-01411-02351102681ADDAA199000091AJ100229199999999AY131061AY201061GA1001+999999999GF100991001001999999001001IA1299KA1120N-02661MA1999999099631MD1210091+9999MW1361OA140101301OA249901301REMSYN110AAXX  25001 31300 31999 03407 11141 21235 39963 40268 52009 73630 333 21266 49022 91013 91113 555 1/120 7000/;EQDQ01  00002PRCP99
0150313000999992000012503004+53750+127230FM-12+023299999V0203401N005012200019N0500001N1-01131-02091102781ADDAY131031AY201031GA1001+999999999GF100991001001999999001001MD1210121+9999MW1361REMSYN060AAXX  25031 31300 41999 03405 11113 21209 40278 52012 73630;
0167313000999992000012506004+53750+127230FM-12+023299999V0203301N005012200019N0500001N1-01001-02101102831ADDAY131061AY201061GF102991001001999999001011MD1210061+9999MW1021OA140101001REMSYN082AAXX  25061 31300 41999 23305 11100 21210 40283 52006 70230 80001 333 91010 91113;
0122313000999992000012509004+53750+127230FM-12+023299999V0202801N002012200019N0500001N1-01291-02241103001ADDGF103991021001999999041011MD1210141+9999REMSYN070AAXX  25091 31300 42984 32802 11129 21224 40300 52014 82041 333 91112;
0234313000999992000012512004+53750+127230FM-12+023299999V0203301N006012200019N0500001N1-01111+99999102971ADDAA199000091GA1001+999999999GF100991001001999999001001KA1120M-00991MA1999999099941MD1810011+9999OA140101101OA249901101REMSYN086AAXX  25121 31300 32984 03306 11111 39994 40297 58001 333 11099 91011 91111 555 1/115;EQDQ01  00002PRCP99
0132313000999992000012515004+53750+127230FM-12+023299999V0203101N005012200019N0500001N1-01151-02111103151ADDGA1001+999999999GF100991001001999999001001MD1310071+9999REMSYN064AAXX  25151 31300 42984 03105 11115 21211 40315 53007 333 91111;
0132313000999992000012518004+53750+127230FM-12+023299999V0203001N004012200019N0500001N1-01111-02071103151ADDGA1001+999999999GF100991001001999999001001MD1410001+9999REMSYN064AAXX  25181 31300 42984 03004 11111 21207 40315 54000 333 91111;
0122313000999992000012521004+53750+127230FM-12+023299999V0209999C000012200019N0500001N1-02051-02541103361ADDGA1001+999999999GF100991001001999999001001MD1310101+9999REMSYN054AAXX  25211 31300 42984 00000 11205 21254 40336 53010;
0269313000999992000012600004+53750+127230FM-12+023299999V0209999C000012200019N0040001N1-02271-02501103441ADDAA199000091AJ100229199999999AY101061AY201061GA1001+999999999GF100991001001999999001001IA1299KA1120N-02301MA1999999100261MD1110051+9999MW1101REMSYN098AAXX  26001 31300 31996 00000 11227 21250 30026 40344 51005 71000 333 21230 49022 555 1/130 7000/;EQDQ01  00002PRCP99
0140313000999992000012603004+53750+127230FM-12+023299999V0201201N001019999999N0040001N1-01711-01901103251ADDAY101031AY201031GF105991001001999999001011MD1810121+9999MW1101REMSYN066AAXX  26031 31300 41996 51201 11171 21190 40325 58012 71000 80001;
0112313000999992000012606004+53750+127230FM-12+023299999V0201901N001019999999N0500001N1-01021-01851102981ADDGF106991001001999999001011MD1710181+9999REMSYN060AAXX  26061 31300 42999 61901 11102 21185 40298 57018 80001;
0112313000999992000012609004+53750+127230FM-12+023299999V0202701N001012200019N0500001N1-01381-02091102951ADDGF102991001001999999001011MD1710071+9999REMSYN060AAXX  26091 31300 42984 22701 11138 21209 40295 57007 80001;
0206313000999992000012612004+53750+127230FM-12+023299999V0203001N001012200019N0500001N1-01951-02361102881ADDAA199000091GA1001+999999999GF100991001001999999001001KA1120M-01021MA1999999099761MD1710131+9999REMSYN080AAXX  26121 31300 32984 03001 11195 21236 39976 40288 57013 333 11102 555 1/129;EQDQ01  00002PRCP99
0150313000999992000012615004+53750+127230FM-12+023299999V0209999C000012200019N0004001N1-02311-02491102741ADDAY141031AY201031GA1001+999999999GF100991001001999999001001MD1710181+9999MW1441REMSYN060AAXX  26151 31300 41904 00000 11231 21249 40274 57018 74440;
0150313000999992000012618004+53750+127230FM-12+023299999V0209999C000012200019N0022001N1-02471-02651102681ADDAY141061AY201061GA1001+999999999GF100991001001999999001001MD1710091+9999MW1101REMSYN060AAXX  26181 31300 41922 00000 11247 21265 40268 57009 71040;
0150313000999992000012621004+53750+127230FM-12+023299999V0209999C000012200019N0006001N1-02391-02571102671ADDAY141031AY201031GA1001+999999999GF100991001001999999001001MD1410001+9999MW1441REMSYN060AAXX  26211 31300 41906 00000 11239 21257 40267 54000 74440;
0269313000999992000012700004+53750+127230FM-12+023299999V0209999C000012200019N0040001N1-02551-02801102611ADDAA199000091AJ100229199999999AY141061AY201061GA1001+999999999GF100991001001999999001001IA1299KA1120N-02561MA1999999099431MD1810061+9999MW1101REMSYN098AAXX  27001 31300 31996 00000 11255 21280 39943 40261 58006 71040 333 21256 49022 555 1/129 7000/;EQDQ01  00002PRCP99
0169313000999992000012703004+53750+127230FM-12+023299999V0201501N001012200019N0200001N1-01561-01692102441ADDAY101031AY201031GA1001+999999999GF100991001001999999001001MD1710051+9999MW1401REMSYN060AAXX  27031 31300 41998 01501 11156 21169 40244 57005 74000;EQDQ01-001693ATOD  
0122313000999992000012706004+53750+127230FM-12+023299999V0200701N001012200019N0500001N1-00811-01321102271ADDGA1001+999999999GF100991001001999999001001MD1710081+9999REMSYN054AAXX  27061 31300 42999 00701 11081 21132 40227 57008;
0122313000999992000012709004+53750+127230FM-12+023299999V0202101N001012200019N0230001N1-01171-01611102381ADDGA1001+999999999GF100991001001999999001001MD1310061+9999REMSYN054AAXX  27091 31300 42973 02101 11117 21161 40238 53006;
0206313000999992000012712004+53750+127230FM-12+023299999V0203101N001012200019N0500001N1-01471-01741102371ADDAA199000091GA1001+999999999GF100991001001999999001001KA1120M-00721MA1999999099311MD1810051+9999REMSYN080AAXX  27121 31300 32984 03101 11147 21174 39931 40237 58005 333 11072 555 1/123;EQDQ01  00002PRCP99
0122313000999992000012715004+53750+127230FM-12+023299999V0200601N003012200019N0500001N1-01511-01781102331ADDGA1001+999999999GF100991001001999999001001MD1710041+9999REMSYN054AAXX  27151 31300 41984 00603 11151 21178 40233 57004;
0122313000999992000012718004+53750+127230FM-12+023299999V0202701N001012200019N0500001N1-02131-02331102401ADDGA1001+999999999GF100991001001999999001001MD1410001+9999REMSYN054AAXX  27181 31300 42984 02701 11213 21233 40240 54000;
0131313000999992000012721004+53750+127230FM-12+023299999V0203401N001019999999N0500001N1-01951-02141102381ADDGF106991999001999999031001MD1110011+9999REMSYN060AAXX  27211 31300 42984 63401 11195 21214 40238 51001 80030;EQDQ01+000002SCOTLC
0225313000999992000012800004+53750+127230FM-12+023299999V0209999C000019999999N0500001N1-02001-02191102481ADDAA199000091AJ100229199999999GF107991061001999999031011IA1299KA1120N-02151MA1999999099361MD1310081+9999REMSYN092AAXX  28001 31300 32999 70000 11200 21219 39936 40248 53008 86031 333 21215 49022 555 1/123;EQDQ01  00002PRCP99
0112313000999992000012803004+53750+127230FM-12+023299999V0200901N001019999999N0500001N1-01571-01841102501ADDGF107991071001999999051001MD1210071+9999REMSYN060AAXX  28031 31300 42999 70901 11157 21184 40250 52007 87050;
0112313000999992000012806004+53750+127230FM-12+023299999V0209999C000019999999N0500001N1-01331-01761102311ADDGF108991081001999999071999MD1810151+9999REMSYN060AAXX  28061 31300 42999 80000 11133 21176 40231 58015 8807/;
0112313000999992000012809004+53750+127230FM-12+023299999V0202201N002019999999N0500001N1-01331-01801102581ADDGF105991031001999999031011MD1310261+9999REMSYN060AAXX  28091 31300 42984 52202 11133 2118/ 40258 53026 83031;
0196313000999992000012812004+53750+127230FM-12+023299999V0203201N002019999999N0500001N1-01131-02091102871ADDAA199000091GF107991051001999999031011KA1120M-01121MA1999999099841MD1219999+9999REMSYN086AAXX  28121 31300 32984 73202 11113 21209 39984 40287 520// 85031 333 11112 555 1/117;EQDQ01  00002PRCP99
0112313000999992000012815004+53750+127230FM-12+023299999V0203301N002019999999N0500001N1-01261-02211102991ADDGF107991031001999999031011MD1210101+9999REMSYN060AAXX  28151 31300 42984 73302 11126 21221 40299 52010 83031;
0112313000999992000012818004+53750+127230FM-12+023299999V0200101N004019999999N0500001N1-01431-02251103151ADDGF108991021001999999041051MD1210141+9999REMSYN060AAXX  28181 31300 42984 80104 11143 21225 40315 52014 82045;
0122313000999992000012821004+53750+127230FM-12+023299999V0200201N005019999999N0500001N1-01551-02481103361ADDGF108991021001999999041021MD1210201+9999REMSYN070AAXX  28211 31300 42984 80205 11155 21248 40336 52020 82042 333 91111;
0241313000999992000012900004+53750+127230FM-12+023299999V0203601N003012200019N0500001N1-01651-02451103641ADDAA199000091AJ100229199999999GA1001+999999999GF100991001001999999001001IA1299KA1120N-01661MA1999999100541MD1210261+9999REMSYN092AAXX  29001 31300 32999 03603 11165 21245 30054 40364 52026 333 21166 49022 555 1/117 7000/;EQDQ01  00002PRCP99
0122313000999992000012903004+53750+127230FM-12+023299999V0200301N004012200019N0500001N1-01471-02401103791ADDGA1001+999999999GF100991001001999999001001MD1210151+9999REMSYN054AAXX  29031 31300 42999 00304 11147 21240 40379 52015;
0122313000999992000012906004+53750+127230FM-12+023299999V0203601N003012200019N0500001N1-01451-02381103821ADDGA1001+999999999GF100991001001999999001001MD1110041+9999REMSYN054AAXX  29061 31300 42999 03603 11145 21238 40382 51004;
0122313000999992000012909004+53750+127230FM-12+023299999V0201701N002012200019N0500001N1-01531-02461103831ADDGA1001+999999999GF100991001001999999001001MD1410001+9999REMSYN054AAXX  29091 31300 42984 01702 11153 21246 40383 54000;
0196313000999992000012912004+53750+127230FM-12+023299999V0202701N003012200019N0500001N1-01591-02511103851ADDAA199000091GA1001+999999999GF100991001001999999001001KA1999M-01371MA1999999100741MD1310011+9999REMSYN070AAXX  29121 31300 32984 02703 11159 21251 30074 40385 53001 333 11137;EQDQ01  00002PRCP99
0122313000999992000012915004+53750+127230FM-12+023299999V0201801N002012200019N9999999N1-01721-02631103871ADDGA1001+999999999GF100991001001999999001001MD1410001+9999REMSYN054AAXX  29151 31300 4290/ 01802 11172 21263 40387 54000;
0132313000999992000012921004+53750+127230FM-12+023299999V0200601N002012200019N0500001N1-01931-02871103891ADDGA1001+999999999GF100991001001999999001001MD1510001+9999REMSYN064AAXX  29211 31300 42984 00602 11193 21287 40389 55000 333 91111;
0231313000999992000013000004+53750+127230FM-12+023299999V0200301N001012200019N0500001N1-02121-02791103921ADDAA199000091AJ100219199999999GF101991001001999999001011IA1299KA1120N-02201MA1999999100741MD1410001+9999REMSYN098AAXX  30001 31300 32999 10301 11212 21279 30074 40392 54000 80001 333 21220 49021 555 1/130 7000/;EQDQ01  00002PRCP99
0141313000999992000013003004+53750+127230FM-12+023299999V0203501N002012200019N0500001N1-01511-02321103142ADDGA1001+999999999GF100991001001999999001001MD1810041+9999REMSYN054AAXX  30031 31300 41999 03502 11151 21232 40314 58004;EQDQ01+103143APOSLP
0112313000999992000013006004+53750+127230FM-12+023299999V0202201N001012200019N0500001N1-01231-02181103581ADDGF102991001001999999001011MD1710181+9999REMSYN060AAXX  30061 31300 41999 22201 11123 21218 40358 57018 80001;
0112313000999992000013009004+53750+127230FM-12+023299999V0202301N001019999999N0500001N1-01521-02331103491ADDGF106991011001999999041011MD1710121+9999REMSYN060AAXX  30091 31300 42984 62301 11152 21233 40349 57012 81041;
0196313000999992000013012004+53750+127230FM-12+023299999V0209999C000012200019N0500001N1-01831-02331103441ADDAA199000091GF103991001001999999001011KA1120M-01201MA1999999100321MD1610081+9999REMSYN086AAXX  30121 31300 32984 30000 11183 21233 30032 40344 56008 80001 333 11120 555 1/128;EQDQ01  00002PRCP99
0122313000999992000013015004+53750+127230FM-12+023299999V0209999C000012200019N0500001N1-02101-02431103341ADDGA1001+999999999GF100991001001999999001001MD1810141+9999REMSYN054AAXX  30151 31300 42984 00000 11210 21243 40334 58014;
0112313000999992000013018004+53750+127230FM-12+023299999V0201701N001019999999N0500001N1-01961-02371103231ADDGF106991001001999999001021MD1710101+9999REMSYN060AAXX  30181 31300 42984 61701 11196 21237 40323 57010 80002;
0112313000999992000013021004+53750+127230FM-12+023299999V0203101N001019999999N0500001N1-01971-02301103051ADDGF106991021001999999041011MD1710171+9999REMSYN060AAXX  30211 31300 42984 63101 11197 21230 40305 57017 82041;
0231313000999992000013100004+53750+127230FM-12+023299999V0202201N002019999999N0500001N1-01811-02221102901ADDAA199000091AJ100219199999999GF107991021001999999041011IA1299KA1120N-02001MA1999999097792MD1710121+9999REMSYN098AAXX  31001 31300 32999 72202 11181 21222 39779 40290 57012 82041 333 21200 49021 555 1/123 7000/;EQDQ01  00002PRCP99
0131313000999992000013103004+53750+127230FM-12+023299999V0202701N002012200019N0500001N1-00652-01481102641ADDGF102991001001999999001011MD1710111+9999REMSYN060AAXX  31031 31300 42999 22702 11065 21148 40264 57011 80001;EQDQ01-000653ATOT  
0112313000999992000013106004+53750+127230FM-12+023299999V0202501N002019999999N0500001N1-00251-01241102401ADDGF106991001001999999001011MD1710201+9999REMSYN060AAXX  31061 31300 42999 62502 11025 21124 40240 57020 80001;
0112313000999992000013109004+53750+127230FM-12+023299999V0202401N001012200019N0500001N1-00641-01521102361ADDGF102991001001999999001011MD1610071+9999REMSYN060AAXX  31091 31300 42984 22401 11064 21152 40236 56007 80001;
0196313000999992000013112004+53750+127230FM-12+023299999V0203001N002012200019N0500001N1-01111-02732102341ADDAA199000091GA1001+999999999GF100991001001999999001001KA1999M-00051MA1999999099331MD1810081+9999REMSYN070AAXX  31121 31300 32984 03002 11111 21273 39933 40234 58008 333 11005;EQDQ01  00002PRCP99
0131313000999992000013115004+53750+127230FM-12+023299999V0209999C000012200019N0500001N1-01201-01821999999ADDGA1001+999999999GF100991001001999999001001MD1410001+9999ME1202359REMSYN054AAXX  31151 31300 41984 00000 11120 21182 42235 54000;
0122313000999992000013118004+53750+127230FM-12+023299999V0209999C000012200019N0500001N1-01461-01971102361ADDGA1001+999999999GF100991001001999999001001MD1810031+9999REMSYN054AAXX  31181 31300 42984 00000 11146 21197 40236 58003;
0112313000999992000013121004+53750+127230FM-12+023299999V0209999C000019999999N0500001N1-01501-01921102291ADDGF105991001001999999001011MD1710071+9999REMSYN060AAXX  31211 31300 42984 50000 11150 21192 40229 57007 80001;
0231313000999992000020100004+53750+127230FM-12+023299999V0209999C000012200019N0500001N1-01551-01891102341ADDAA199000091AJ100219199999999GF103991021001999999031091IA1299KA1120N-01601MA1999999099281MD1310051+9999REMSYN098AAXX  01001 31300 32999 30000 11155 21189 39928 40234 53005 82039 333 21160 49021 555 1/122 7000/;EQDQ01  00002PRCP99
0112313000999992000020103004+53750+127230FM-12+023299999V0202201N002012200019N0500001N1-01051-01681102281ADDGF101991001001999999001011MD1410001+9999REMSYN060AAXX  01031 31300 42999 12202 11105 21168 40228 54000 80001;
0122313000999992000020106004+53750+127230FM-12+023299999V0202201N002012200019N0500001N1-00771-01751102181ADDGA1001+999999999GF100991001001999999001001MD1810071+9999REMSYN054AAXX  01061 31300 42999 02202 11077 21175 40218 58007;
0122313000999992000020109004+53750+127230FM-12+023299999V0203301N001012200019N0500001N1-01111-01731102111ADDGA1001+999999999GF100991001001999999001001MD1610101+9999REMSYN054AAXX  01091 31300 42999 03301 11111 21173 40211 56010;
0196313000999992000020111004+53750+127230FM-12+023299999V0209999C000012200019N0500001N1-01681-01941102311ADDAA199000091GA1001+999999999GF100991001001999999001001KA1999M-00771MA1999999099231MD1310121+9999REMSYN070AAXX  01111 31300 32984 00000 11168 21194 39923 40231 53012 333 11077;EQDQ01  00002PRCP99
0196313000999992000020112004+53750+127230FM-12+023299999V0209999C000012200019N0500001N1-01681-01941102311ADDAA199000091GA1001+999999999GF100991001001999999001001KA1999M-00771MA1999999099231MD1310121+9999REMSYN070AAXX  01121 31300 32984 00000 11168 21194 39923 40231 53012 333 11077;EQDQ01  00002PRCP99
0122313000999992000020115004+53750+127230FM-12+023299999V0209999C000012200019N0500001N1-02021-02211102341ADDGA1001+999999999GF100991001001999999001001MD1810011+9999REMSYN054AAXX  01151 31300 42984 00000 11202 21221 40234 58001;
0122313000999992000020118004+53750+127230FM-12+023299999V0202501N001012200019N0450001N1-02231-02411102361ADDGA1001+999999999GF100991001001999999001001MD1410001+9999REMSYN054AAXX  01181 31300 42983 02501 11223 21241 40236 54000;
0150313000999992000020121004+53750+127230FM-12+023299999V0209999C000012200019N0280001N1-02411-02601102461ADDAY101031AY201031GA1001+999999999GF100991001001999999001001MD1310071+9999MW1401REMSYN060AAXX  01211 31300 41978 00000 11241 21260 40246 53007 74000;
0263313000999992000020200004+53750+127230FM-12+023299999V0209999C000012200019N0200001N1-02481-02661102571ADDAA199000091AJ100209199999999AY101061AY201061GA1001+999999999GF100991001001999999001001IA1299KA1120N-02501MA1999999099391MD1210101+9999MW1401REMSYN092AAXX  02001 31300 31998 00000 11248 21266 39939 40257 52010 74000 333 21250 49020 555 1/132;EQDQ01  00002PRCP99
0122313000999992000020203004+53750+127230FM-12+023299999V0209999C000012200019N0500001N1-01611-01741102481ADDGA1001+999999999GF100991001001999999001001MD1110021+9999REMSYN054AAXX  02031 31300 42999 00000 11161 21174 40248 51002;
0122313000999992000020206004+53750+127230FM-12+023299999V0202001N001012200019N0500001N1-01311-01741102331ADDGA1001+999999999GF100991001001999999001001MD1810111+9999REMSYN054AAXX  02061 31300 42999 02001 11131 21174 40233 58011;
0122313000999992000020209004+53750+127230FM-12+023299999V0209999C000012200019N0500001N1-01511-01931102361ADDGA1001+999999999GF100991001001999999001001MD1410001+9999REMSYN054AAXX  02091 31300 42999 00000 11151 21193 40236 54000;
0196313000999992000020212004+53750+127230FM-12+023299999V0209999C000012200019N0500001N1-01951-02071102431ADDAA199000091GA1001+999999999GF100991001001999999001001KA1999M-01281MA1999999099331MD1310031+9999REMSYN070AAXX  02121 31300 32984 00000 11195 21207 39933 40243 53003 333 11128;EQDQ01  00002PRCP99
0122313000999992000020215004+53750+127230FM-12+023299999V0209999C000012200019N0500001N1-02251-02431102471ADDGA1001+999999999GF100991001001999999001001MD1410001+9999REMSYN054AAXX  02151 31300 42984 00000 11225 21243 40247 54000;
0122313000999992000020218004+53750+127230FM-12+023299999V0209999C000012200019N0500001N1-02411+99999102471ADDGA1001+999999999GF100991001001999999001001MD1810031+9999REMSYN054AAXX  02181 31300 42984 00000 11241 21/60 40247 58003;
0122313000999992000020221004+53750+127230FM-12+023299999V0209999C000012200019N0500001N1-02531-02701102511ADDGA1001+999999999GF100991001001999999001001MD1310031+9999REMSYN054AAXX  02211 31300 42984 00000 11253 21270 40251 53003;
0240313000999992000020300004+53750+127230FM-12+023299999V0209999C000012200019N0500001N1-02571-02741102611ADDAA199000091AJ100209199999999AY101061AY201061GF103991001001999999001011IA1299MA1999999099421MD1210091+9999MW1401REMSYN098AAXX  03001 31300 31999 30000 11257 21274 39942 40261 52009 74000 80001 333 49020 555 1/131 7000/;EQDQ01  00002PRCP99
0112313000999992000020303004+53750+127230FM-12+023299999V0201901N001019999999N0500001N1-01731-01851102501ADDGF106991001001999999001011MD1410001+9999REMSYN060AAXX  03031 31300 42999 61901 11173 21185 40250 54000 80001;
0106313000999992000020306004+53750+127230FM-12+023299999V0202201N001019999999N0500001N1-01271+99999102371ADDGF108991999999999999999999MD1810081+9999REMSYN054AAXX  03061 31300 42999 82201 11127 20170 40237 58008;
0112313000999992000020309004+53750+127230FM-12+023299999V0209999C000019999999N0500001N1-01611-01951102491ADDGF107991001001999999001011MD1310081+9999REMSYN060AAXX  03091 31300 42984 70000 11161 21195 40249 53008 80001;
0186313000999992000020312004+53750+127230FM-12+023299999V0209999C000019999999N0500001N1-01931-02121102621ADDAA199000091GF106991001001999999001011KA1999M-01221MA1999999099511MD1210091+9999REMSYN076AAXX  03121 31300 32984 60000 11193 21212 39951 40262 52009 80001 333 11122;EQDQ01  00002PRCP99
0140313000999992000020315004+53750+127230FM-12+023299999V0209999C000019999999N0180001N1-02191-02371102621ADDAY121031AY221031GF108991001001999999001071MD1810041+9999MW1401REMSYN066AAXX  03151 31300 41968 80000 11219 21237 40262 58004 74022 80007;
0140313000999992000020318004+53750+127230FM-12+023299999V0209999C000019999999N0140001N1-02371-02551102671ADDAY121061AY221061GF105991001001999999001011MD1310021+9999MW1401REMSYN066AAXX  03181 31300 41964 50000 11237 21255 40267 53002 74022 80001;
0150313000999992000020321004+53750+127230FM-12+023299999V0209999C000012200019N0200001N1-02631-02801102691ADDAY111031AY211031GA1001+999999999GF100991001001999999001001MD1410001+9999MW1401REMSYN060AAXX  03211 31300 41970 00000 11263 21280 40269 54000 74011;
0269313000999992000020400004+53750+127230FM-12+023299999V0209999C000012200019N0100001N1-02751-02931102761ADDAA199000091AJ100209199999999AY111061AY211061GA1001+999999999GF100991001001999999001001IA1249KA1120N-02841MA1999999099541MD1310051+9999MW1401REMSYN098AAXX  04001 31300 31997 00000 11275 21293 39954 40276 53005 74011 333 21284 48020 555 1/133 7000/;EQDQ01  00002PRCP99
0150313000999992000020403004+53750+127230FM-12+023299999V0201801N001012200019N0200001N1-02011-02201102601ADDAY101031AY201031GA1001+999999999GF100991001001999999001001MD1810071+9999MW1401REMSYN060AAXX  04031 31300 41998 01801 11201 21220 40260 58007 74000;
0122313000999992000020406004+53750+127230FM-12+023299999V0209999C000012200019N0500001N1-01661-01851102591ADDGA1001+999999999GF100991001001999999001001MD1310031+9999REMSYN054AAXX  04061 31300 42999 00000 11166 21185 40259 53003;
0122313000999992000020409004+53750+127230FM-12+023299999V0200401N001012200019N0500001N1-01841-02031102711ADDGA1001+999999999GF100991001001999999001001MD1210111+9999REMSYN054AAXX  04091 31300 42984 00401 11184 21203 40271 52011;
0206313000999992000020412004+53750+127230FM-12+023299999V0209999C000012200019N0500001N1-02291-02481102801ADDAA199000091GA1001+999999999GF100991001001999999001001KA1120M-01611MA1999999099641MD1210031+9999REMSYN080AAXX  04121 31300 32984 00000 11229 21248 39964 40280 52003 333 11161 555 1/131;EQDQ01  00002PRCP99
0150313000999992000020415004+53750+127230FM-12+023299999V0200901N001012200019N0180001N1-02591-02771102861ADDAY101031AY201031GA1001+999999999GF100991001001999999001001MD1110021+9999MW1401REMSYN060AAXX  04151 31300 41968 00901 11259 21277 40286 51002 74000;
0150313000999992000020418004+53750+127230FM-12+023299999V0209999C000012200019N0150001N1-02821-03001102981ADDAY101061AY201061GA1001+999999999GF100991001001999999001001MD1110081+9999MW1401REMSYN060AAXX  04181 31300 41965 00000 11282 21300 40298 51008 74000;
0150313000999992000020421004+53750+127230FM-12+023299999V0209999C000012200019N0190001N1-02911-03151103021ADDAY101031AY201031GA1001+999999999GF100991001001999999001001MD1210031+9999MW1401REMSYN060AAXX  04211 31300 41969 00000 11291 21315 40302 52003 74000;
0269313000999992000020500004+53750+127230FM-12+023299999V0209999C000012200019N0100001N1-03051-03271103111ADDAA199000091AJ100209199999999AY101061AY201061GA1001+999999999GF100991001001999999001001IA1249KA1120N-03111MA1999999099831MD1210061+9999MW1401REMSYN098AAXX  05001 31300 31997 00000 11305 21327 39983 40311 52006 74000 333 21311 48020 555 1/135 7000/;EQDQ01  00002PRCP99
0150313000999992000020503004+53750+127230FM-12+023299999V0201801N001012200019N0500001N1-02301-02491103051ADDAY101031AY201031GA1001+999999999GF100991001001999999001001MD1210051+9999MW1401REMSYN060AAXX  05031 31300 41999 01801 11230 21249 40305 52005 74000;
0122313000999992000020506004+53750+127230FM-12+023299999V0209999C000012200019N0500001N1-01941-02131103001ADDGA1001+999999999GF100991001001999999001001MD1410001+9999REMSYN054AAXX  05061 31300 42999 00000 11194 21213 40300 54000;
0122313000999992000020509004+53750+127230FM-12+023299999V0209999C000012200019N0500001N1-02071-02261103031ADDGA1001+999999999GF100991001001999999001001MD1410001+9999REMSYN054AAXX  05091 31300 42999 00000 11207 21226 40303 54000;
0224313000999992000020512004+53750+127230FM-12+023299999V0200901N001012200019N0110001N1-02391-02571103111ADDAA199000091AY101061AY201061GA1001+999999999GF100991001001999999001001KA1999M-01811MA1999999099921MD1310041+9999MW1401REMSYN076AAXX  05121 31300 31961 00901 11239 21257 39992 40311 53004 74000 333 11181;EQDQ01  00002PRCP99
0150313000999992000020515004+53750+127230FM-12+023299999V0209999C000012200019N0070001N1-02721-02901103181ADDAY101031AY201031GA1001+999999999GF100991001001999999001001MD1110031+9999MW1101REMSYN060AAXX  05151 31300 41957 00000 11272 21290 40318 51003 71000;
0150313000999992000020518004+53750+127230FM-12+023299999V0209999C000012200019N0060001N1-02931-03111999999ADDAY101061AY201061GA1001+999999999GF100991001001999999001001MD1410001+9999MW1101REMSYN060AAXX  05181 31300 41956 00000 11293 21311 40/20 54000 71000;
0150313000999992000020521004+53750+127230FM-12+023299999V0209999C000012200019N0140001N1-03061-03291103161ADDAY101031AY201031GA1001+999999999GF100991001001999999001001MD1810071+9999MW1401REMSYN060AAXX  05211 31300 41964 00000 11306 21329 40316 58007 74000;
0253313000999992000020600004+53750+127230FM-12+023299999V0209999C000012200019N0100001N1-03011-03251103131ADDAA199000091AJ100209199999999AY101061AY201061GA1001+999999999GF100991001001999999001001IA1249KA1120N-03111MA1999999099861MD1610021+9999MW1401REMSYN082AAXX  06001 31300 31997 00000 11301 21325 39986 40313 56002 74000 333 21311 48020;EQDQ01  00002PRCP99
0150313000999992000020603004+53750+127230FM-12+023299999V0209999C000012200019N0200001N1-02331-02511102931ADDAY101031AY201031GA1001+999999999GF100991001001999999001001MD1810101+9999MW1401REMSYN060AAXX  06031 31300 41998 00000 11233 21251 40293 58010 74000;
0122313000999992000020606004+53750+127230FM-12+023299999V0203001N001012200019N0500001N1-01901-02091102671ADDGA1001+999999999GF100991001001999999001001MD1710201+9999REMSYN054AAXX  06061 31300 42999 03001 11190 21209 40267 57020;
0122313000999992000020609004+53750+127230FM-12+023299999V0203001N001012200019N0500001N1-02011-02201102611ADDGA1001+999999999GF100991001001999999001001MD1610081+9999REMSYN054AAXX  06091 31300 42999 03001 11201 21220 40261 56008;
0234313000999992000020612004+53750+127230FM-12+023299999V0209999C000012200019N0060001N1-02331-02511102571ADDAA199000091AY101061AY201061GA1001+999999999GF100991001001999999001001KA1120M-01861MA1999999099421MD1810061+9999MW1101REMSYN086AAXX  06121 31300 31956 00000 11233 21251 39942 40257 58006 71000 333 11186 555 1/128;EQDQ01  00002PRCP99
0150313000999992000020615004+53750+127230FM-12+023299999V0209999C000012200019N0060001N1-02601-02771102451ADDAY101031AY201031GA1001+999999999GF100991001001999999001001MD1710161+9999MW1101REMSYN060AAXX  06151 31300 41956 00000 11260 21277 40245 57016 71000;
0150313000999992000020618004+53750+127230FM-12+023299999V0209999C000012200019N0070001N1-02661-02831102441ADDAY101061AY201061GA1001+999999999GF100991001001999999001001MD1610031+9999MW1101REMSYN060AAXX  06181 31300 41957 00000 11266 21283 40244 56003 71000;
0150313000999992000020621004+53750+127230FM-12+023299999V0209999C000012200019N0160001N1-02961-03131102431ADDAY101031AY201031GA1001+999999999GF100991001001999999001001MD1810051+9999MW1401REMSYN060AAXX  06211 31300 41966 00000 11296 21313 40243 58005 74000;
0269313000999992000020700004+53750+127230FM-12+023299999V0209999C000012200019N0200001N1-03011-03251102471ADDAA199000091AJ100209199999999AY101061AY201061GA1001+999999999GF100991001001999999001001IA1249KA1120N-03061MA1999999099221MD1310041+9999MW1401REMSYN098AAXX  07001 31300 31998 00000 11301 21325 39922 40247 53004 74000 333 21306 48020 555 1/134 7000/;EQDQ01  00002PRCP99
0150313000999992000020703004+53750+127230FM-12+023299999V0202101N001012200019N0200001N1-02131-02311102261ADDAY101031AY201031GA1001+999999999GF100991001001999999001001MD1810081+9999MW1401REMSYN060AAXX  07031 31300 41998 02101 11213 21231 40226 58008 74000;
0122313000999992000020706004+53750+127230FM-12+023299999V0202101N001012200019N0500001N1-01451-01651102051ADDGA1001+999999999GF100991001001999999001001MD1710121+9999REMSYN054AAXX  07061 31300 42999 02101 11145 21165 40205 57012;
0122313000999992000020709004+53750+127230FM-12+023299999V0202701N001012200019N0500001N1-01631-01971102181ADDGA1001+999999999GF100991001001999999001001MD1310101+9999REMSYN054AAXX  07091 31300 42999 02701 11163 21197 40218 53010;
0196313000999992000020712004+53750+127230FM-12+023299999V0203101N002012200019N0500001N1-01621-02121102071ADDAA199000091GA1001+999999999GF100991001001999999001001KA1999M-01401MA1999999099011MD1810111+9999REMSYN070AAXX  07121 31300 32984 03102 11162 21212 39901 40207 58011 333 11140;EQDQ01  00002PRCP99
0116313000999992000020715004+53750+127230FM-12+023299999V0203301N002012200019N0500001N1-02011+99999102011ADDGA1001+999999999GF100991001001999999001001MD1710111+9999REMSYN048AAXX  07151 31300 42984 03302 11201 40201 57011;
0122313000999992000020718004+53750+127230FM-12+023299999V0200601N002012200019N0500001N1-01991-02401101981ADDGA1001+999999999GF100991001001999999001001MD1610031+9999REMSYN054AAXX  07181 31300 42984 00602 11199 21240 40198 56003;
0122313000999992000020721004+53750+127230FM-12+023299999V0203101N001012200019N0500001N1-02271-02591101941ADDGA1001+999999999GF100991001001999999001001MD1810071+9999REMSYN054AAXX  07211 31300 42984 03101 11227 21259 40194 58007;
0269313000999992000020800004+53750+127230FM-12+023299999V0202001N002012200019N0100001N1-02411-02601101931ADDAA199000091AJ100209199999999AY101061AY201061GA1001+999999999GF100991001001999999001001IA1249KA1120N-02551MA1999999098781MD1210021+9999MW1401REMSYN098AAXX  08001 31300 31997 02002 11241 21260 39878 40193 52002 74000 333 21255 48020 555 1/129 7000/;EQDQ01  00002PRCP99
0122313000999992000020803004+53750+127230FM-12+023299999V0201801N001012200019N0500001N1-01331-01851101671ADDGA1001+999999999GF100991001001999999001001MD1210121+9999REMSYN054AAXX  08031 31300 42999 01801 11133 21185 40167 52012;
0122313000999992000020806004+53750+127230FM-12+023299999V0202701N001012200019N0500001N1-00891-01751101461ADDGA1001+999999999GF100991001001999999001001MD1210161+9999REMSYN054AAXX  08061 31300 42999 02701 11089 21175 40146 52016;
0122313000999992000020809004+53750+127230FM-12+023299999V0202001N002012200019N0500001N1-01251-01871101491ADDGA1001+999999999GF100991001001999999001001MD1410001+9999REMSYN054AAXX  08091 31300 42999 02002 11125 21187 40149 54000;
0206313000999992000020812004+53750+127230FM-12+023299999V0200301N001012200019N0500001N1-01811-02141101581ADDAA199000091GA1001+999999999GF100991001001999999001001KA1120M-00891MA1999999098521MD1310021+9999REMSYN080AAXX  08121 31300 32984 00301 11181 21214 39852 40158 53002 333 11089 555 1/128;EQDQ01  00002PRCP99
0150313000999992000020815004+53750+127230FM-12+023299999V0201801N001012200019N0190001N1-02271-02451101581ADDAY101031AY201031GA1001+999999999GF100991001001999999001001MD1810071+9999MW1401REMSYN060AAXX  08151 31300 41969 01801 11227 21245 40158 58007 74000;
0122313000999992000020818004+53750+127230FM-12+023299999V0200801N002012200019N0500001N1-02171-02351101561ADDGA1001+999999999GF100991001001999999001001MD1410001+9999REMSYN054AAXX  08181 31300 42984 00802 11217 21235 40156 54000;
0122313000999992000020821004+53750+127230FM-12+023299999V0200601N002012200019N0500001N1-02031-02441101521ADDGA1001+999999999GF100991001001999999001001MD1810021+9999REMSYN054AAXX  08211 31300 42984 00602 11203 21244 40152 58002;
0246313000999992000020900004+53750+127230FM-12+023299999V0200401N002012200019N0500001N1-02151-02471999999ADDAA199000091AJ100199199999999GF102991001001999999001011IA1249KA1120N-02331MA1999999099431MD1410001+9999REMSYN097AAXX  09001 31300 32999 20402 11215 21247 39943 40256 54000 80001 333 21233 48019 555 1/1+9 #0-.;EQDQ01+102563APOSLPQ02  00002PRCP99
0112313000999992000020903004+53750+127230FM-12+023299999V0203301N001012200019N0500001N1-01201-01921101381ADDGF103991001001999999001011MD1810041+9999REMSYN060AAXX  09031 31300 42999 33301 11120 21192 40138 58004 80001;
0112313000999992000020906004+53750+127230FM-12+023299999V0202401N002012200019N0500001N1-00791-01871101201ADDGF101991001001999999001011MD1710141+9999REMSYN060AAXX  09061 31300 42999 12402 11079 21187 40120 57014 80001;
0112313000999992000020909004+53750+127230FM-12+023299999V0203601N002012200019N0500001N1-01061-02021101231ADDGF102991001001999999001021MD1510001+9999REMSYN060AAXX  09091 31300 42999 23602 11106 21202 40123 55000 80002;
0206313000999992000020912004+53750+127230FM-12+023299999V0200601N002012200019N0500001N1-01281-02231101251ADDAA199000091GA1001+999999999GF100991001001999999001001KA1120M-00771MA1999999098251MD1410001+9999REMSYN080AAXX  09121 31300 32984 00602 11128 21223 39825 40125 54000 333 11077 555 1/123;EQDQ01  00002PRCP99
0122313000999992000020915004+53750+127230FM-12+023299999V0200801N001012200019N0500001N1-01701-02131101241ADDGA1001+999999999GF100991001001999999001001MD1810051+9999REMSYN054AAXX  09151 31300 42984 00801 1117/ 21213 40124 58005;
0122313000999992000020918004+53750+127230FM-12+023299999V0203301N001012200019N0500001N1-01411-02021101161ADDGA1001+999999999GF100991001001999999001001MD1710051+9999REMSYN054AAXX  09181 31300 42984 03301 11141 21202 40116 57005;
0122313000999992000020921004+53750+127230FM-12+023299999V0200201N003012200019N0500001N1-01391-02101101091ADDGA1001+999999999GF100991001001999999001001MD1710071+9999REMSYN054AAXX  09211 31300 42984 00203 11139 21210 40109 57007;
0250313000999992000021000004+53750+127230FM-12+023299999V0200301N002012200019N0500001N1-01411-02121101131ADDAA124000091AJ100199199999999GF103991001001999999001011IA1249KA1120N-01711MA1999999098121MD1310041+9999REMSYN101AAXX  10001 31300 32999 30302 11141 21212 39812 40113 53004 80001 333 21171 48019 555 1/122 7000/ /-;EQDQ01  00002PRCP99Q02  00003PRCP99
0112313000999992000021003004+53750+127230FM-12+023299999V0200601N001012200019N0500001N1-01011-01981101081ADDGF102991001001999999001011MD1410001+9999REMSYN060AAXX  10031 31300 42999 20601 11101 21198 40108 54000 80001;
0112313000999992000021006004+53750+127230FM-12+023299999V0203101N003019999999N0500001N1-00911-02021101011ADDGF105991001001999999001011MD1810061+9999REMSYN060AAXX  10061 31300 42999 53103 11091 21202 40101 58006 80001;
0112313000999992000021009004+53750+127230FM-12+023299999V0203501N002012200019N0500001N1-01091-02051101081ADDGF102991001001999999001021MD1610051+9999REMSYN060AAXX  10091 31300 42999 23502 11109 21205 40108 56005 80002;
0206313000999992000021012004+53750+127230FM-12+023299999V0209999C000012200019N0500001N1-01551-02251101161ADDAA199000091GA1001+999999999GF100991001001999999001001KA1120M-00901MA1999999098141MD1310031+9999REMSYN080AAXX  10121 31300 32984 00000 11155 21225 39814 40116 53003 333 11090 555 1/124;EQDQ01  00002PRCP99
0122313000999992000021015004+53750+127230FM-12+023299999V0201201N001012200019N0500001N1-01771-02031101191ADDGA1001+999999999GF100991001001999999001001MD1410001+9999REMSYN054AAXX  10151 31300 42984 01201 11177 21203 40119 54000;
0122313000999992000021018004+53750+127230FM-12+023299999V0201801N002012200019N0500001N1-01711-02131101151ADDGA1001+999999999GF100991001001999999001001MD1810031+9999REMSYN054AAXX  10181 31300 42984 01802 11171 21213 40115 58003;
0122313000999992000021021004+53750+127230FM-12+023299999V0200301N001012200019N0500001N1-01851-02341101161ADDGA1001+999999999GF100991001001999999001001MD1410001+9999REMSYN054AAXX  10211 31300 42984 00301 11185 21234 40116 54000;
0231313000999992000021100004+53750+127230FM-12+023299999V0200601N003012200019N0500001N1-01701-02391101161ADDAA199000091AJ100199199999999GF101991001001999999001021IA1249KA1120N-01901MA1999999098121MD1310011+9999REMSYN098AAXX  11001 31300 32999 10603 11170 21239 39812 40116 53001 80002 333 21190 48019 555 1/121 7000/;EQDQ01  00002PRCP99
0122313000999992000021103004+53750+127230FM-12+023299999V0200301N002012200019N0500001N1-01311-02251101151ADDGA1001+999999999GF100991001001999999001001MD1110031+9999REMSYN054AAXX  11031 31300 42999 00302 11131 21225 40115 51003;
0112313000999992000021106004+53750+127230FM-12+023299999V0203201N003012200019N0500001N1-01161-01991101131ADDGF101991001001999999001011MD1410001+9999REMSYN060AAXX  11061 31300 42999 13203 11116 21199 40113 54000 80001;
0112313000999992000021109004+53750+127230FM-12+023299999V0203401N004012200019N0500001N1-01451-02381101381ADDGF101991001001999999001011MD1310211+9999REMSYN060AAXX  11091 31300 42999 13404 11145 21238 40138 53021 80001;
0186313000999992000021112004+53750+127230FM-12+023299999V0203201N004012200019N0500001N1-01571-02491101421ADDAA199000091GF103991001001999999001011KA1999M-01161MA1999999098381MD1110021+9999REMSYN076AAXX  11121 31300 32984 33204 11157 21249 39838 40142 51002 80001 333 11116;EQDQ01  00002PRCP99
0112313000999992000021115004+53750+127230FM-12+023299999V0203201N004012200019N0500001N1-01751-02661101531ADDGF102991001001999999001011MD1310101+9999REMSYN060AAXX  11151 31300 42984 23204 11175 21266 40153 53010 80001;
0122313000999992000021118004+53750+127230FM-12+023299999V0203401N005012200019N0500001N1-01831-02861101581ADDGF102991001001999999001011MD1110041+9999REMSYN070AAXX  11181 31300 42984 23405 11183 21286 40158 51004 80001 333 91111;
0112313000999992000021121004+53750+127230FM-12+023299999V0203301N004012200019N0500001N1-01951-02841101661ADDGF102991001001999999001011MD1310051+9999REMSYN060AAXX  11211 31300 42984 23304 11195 21284 40166 53005 80001;
0231313000999992000021200004+53750+127230FM-12+023299999V0202201N001012200019N0500001N1-02171-02931101771ADDAA199000091AJ100199199999999GF102991001001999999001011IA1249KA1120N-02201MA1999999098651MD1210081+9999REMSYN098AAXX  12001 31300 32999 22201 11217 21293 39865 40177 52008 80001 333 21220 48019 555 1/127 7000/;EQDQ01  00002PRCP99
0147313000999992000021203004+53750+127230FM-12+023299999V0203401N004012200019N0500001N1-01691-02601999999ADDGF102991001001999999001011MD1210071+9999REMSYN060AAXX  12031 31300 42999 23404 11169 21260 40078 52007 80001;EQDQ01+100783APOSLPQ02 100783APOSLP
0112313000999992000021206004+53750+127230FM-12+023299999V0203301N003019999999N0500001N1-01601-02521101801ADDGF108991001001999999001071MD1110031+9999REMSYN060AAXX  12061 31300 42999 83303 11160 21252 40180 51003 80007;
0147313000999992000021209004+53750+127230FM-12+023299999V0203601N002019999999N0500001N1-01671-02591101941ADDGF108991999001999999041001MD1210141+9999REMSYN060AAXX  12091 31300 42999 83602 11167 21259 40194 52062 86040;EQDQ01+000062SCOTLCQ02+000622APC3  
0186313000999992000021212004+53750+127230FM-12+023299999V0202901N002012200019N0500001N1-01851-02751101951ADDAA199000091GF102991001001999999001021KA1999M-01571MA1999999098871MD1410001+9999REMSYN076AAXX  12121 31300 32984 22902 11185 21275 39887 40195 54000 80002 333 11157;EQDQ01  00002PRCP99
0112313000999992000021215004+53750+127230FM-12+023299999V0203401N003019999999N0500001N1-01941-02831102001ADDGF108991001001999999001051MD1310031+9999REMSYN060AAXX  12151 31300 42984 83403 11194 21283 40200 53003 80005;
0112313000999992000021218004+53750+127230FM-12+023299999V02099999999999999999N0500001N1-02111-02881102021ADDGF108991001001999999001021MD1410001+9999REMSYN060AAXX  12181 31300 42984 84502 11211 21288 40202 54000 80002;
0112313000999992000021221004+53750+127230FM-12+023299999V0203201N002019999999N0500001N1-02181-02941102081ADDGF106991001001999999001021MD1310051+9999REMSYN060AAXX  12211 31300 42984 63202 11218 21294 40208 53005 80002;
0231313000999992000021300004+53750+127230FM-12+023299999V0200101N001012200019N0500001N1-02081-02851101941ADDAA199000091AJ100189199999999GF101991001001999999001011IA1249KA1120N-02341MA1999999098831MD1810121+9999REMSYN098AAXX  13001 31300 32999 10101 11208 21285 39883 40194 58012 80001 333 21234 48018 555 1/127 7000/;EQDQ01  00002PRCP99
0112313000999992000021303004+53750+127230FM-12+023299999V0200101N001012200019N0500001N1-01661-02581101891ADDGF101991001001999999001011MD1410001+9999REMSYN060AAXX  13031 31300 42999 10101 11166 21258 40189 54000 80001;
0112313000999992000021306004+53750+127230FM-12+023299999V0203301N002012200019N0500001N1-01481-02541101871ADDGF101991001001999999001011MD1410001+9999REMSYN060AAXX  13061 31300 42999 13302 11148 21254 40187 54000 80001;
0112313000999992000021309004+53750+127230FM-12+023299999V0203301N003012200019N0500001N1-01581-02631101971ADDGF103991001001999999001021MD1310081+9999REMSYN060AAXX  13091 31300 42999 33303 11158 21263 40197 53008 80002;
0165313000999992000021312004+53750+127230FM-12+023299999V0202801N002019999999N0500001N1-02041-02611101921ADDAA199000091GF105991001001999999001021KA1999M-01611MD1710081+9999REMSYN070AAXX  13121 31300 32984 52802 11204 21261 40192 57008 80002 333 11161;EQDQ01  00002PRCP99
0122313000999992000021315004+53750+127230FM-12+023299999V0201801N001012200019N0500001N1-02451-02851101881ADDGA1001+999999999GF100991001001999999001001MD1710081+9999REMSYN054AAXX  13151 31300 42984 01801 11245 21285 40188 57008;
0122313000999992000021318004+53750+127230FM-12+023299999V0202401N001012200019N0500001N1-02091-02661101791ADDGA1001+999999999GF100991001001999999001001MD1710051+9999REMSYN054AAXX  13181 31300 42984 02401 11209 21266 40179 57005;
0122313000999992000021321004+53750+127230FM-12+023299999V0200401N001012200019N0500001N1-01971-02641101691ADDGA1001+999999999GF100991001001999999001001MD1710091+9999REMSYN054AAXX  13211 31300 42984 00401 11197 21264 40169 57009;
0225313000999992000021400004+53750+127230FM-12+023299999V0200701N002012200019N0500001N1-01871-02551101621ADDAA199000091AJ100189199999999GA1001+999999999GF100991001001999999001001IA1249KA1120N-02461MA1999999098541MD1710051+9999REMSYN076AAXX  14001 31300 32999 00702 11187 21255 39854 40162 57005 333 21246 48018;EQDQ01  00002PRCP99
0142313000999992000021403004+53750+127230FM-12+023299999V0203201N001019999999N0500001N1-01431-02361101481ADDAA199000091GF108991001001999999001071MD1710081+9999REMSYN060AAXX  14031 31300 32999 83201 11143 21236 40148 57008 80007;EQDQ01  00002PRCP99
0112313000999992000021406004+53750+127230FM-12+023299999V0203401N001019999999N0500001N1-01271-02221101381ADDGF108991001001999999001071MD1710081+9999REMSYN060AAXX  14061 31300 42999 83401 11127 21222 40138 57008 80007;
0229313000999992000021412004+53750+127230FM-12+023299999V0203201N003012200019N0500001N1-01351-02291101221ADDAA199000091GA1001+999999999GF100991001001999999001001KA1120M-01191MA1999999098221MD1710111+9999OA149901001REMSYN092AAXX  14121 31300 32984 03203 11135 21229 39822 40122 57011 80007 333 11119 91110 555 1/116;EQDQ01  00002PRCP99
0112313000999992000021415004+53750+127230FM-12+023299999V0203301N002019999999N0500001N1-01441-02371101201ADDGF108991001001999999001071MD1610031+9999REMSYN060AAXX  14151 31300 42984 83302 11144 21237 40120 56003 80007;
0112313000999992000021418004+53750+127230FM-12+023299999V02099999999999999999N0500001N1-01551-02481101241ADDGF108991021001999999031071MD1310031+9999REMSYN060AAXX  14181 31300 42984 83/03 11155 21248 40124 53003 82037;
0112313000999992000021421004+53750+127230FM-12+023299999V0200101N001019999999N0500001N1-01671-02471101261ADDGF108991081001999999071999MD1410001+9999REMSYN060AAXX  14211 31300 42984 80101 11167 21247 40126 54000 8807/;
0225313000999992000021500004+53750+127230FM-12+023299999V02099999999999999999N0500001N1-01101+99999101431ADDAA199000091AJ100189199999999GF106991031001999999041021IA1249KA1120N-01721MA1999999098381MD1310161+9999REMSYN092AAXX  15001 31300 32999 6//// 1111/ 39838 40143 53016 83042 333 21172 48018 555 1/121 7000/;EQDQ01  00002PRCP99
0112313000999992000021503004+53750+127230FM-12+023299999V0200101N003012200019N0500001N1-01191-02141101371ADDGF104991031001999999041021MD1410001+9999REMSYN060AAXX  15031 31300 42999 40103 11119 21214 40137 54000 83042;
0112313000999992000021506004+53750+127230FM-12+023299999V0200201N002019999999N0500001N1-01151-02111101381ADDGF107991021001999999041071MD1310021+9999REMSYN060AAXX  15061 31300 42999 70202 11115 21211 40138 53002 82047;
0112313000999992000021509004+53750+127230FM-12+023299999V0203501N004019999999N0500001N1-01231-02061101461ADDGF108991081001999999011999MD1210071+9999REMSYN060AAXX  15091 31300 42999 83504 11123 21206 40146 52007 8801/;
0196313000999992000021512004+53750+127230FM-12+023299999V0203201N003019999999N0500001N1-01311-02251101491ADDAA199000091GF108991001001999999001071KA1120M-01111MA1999999098491MD1210021+9999REMSYN086AAXX  15121 31300 32984 83203 11131 21225 39849 40149 52002 80007 333 11111 555 1/115;EQDQ01  00002PRCP99
0112313000999992000021515004+53750+127230FM-12+023299999V0203201N002019999999N0500001N1-01481-02291101541ADDGF105991001001999999001011MD1210021+9999REMSYN060AAXX  15151 31300 42984 53202 11148 21229 40154 52002 80001;
0122313000999992000021518004+53750+127230FM-12+023299999V0203301N003012200019N0500001N1-01611-02411101571ADDGA1001+999999999GF100991001001999999001001MD1210021+9999REMSYN054AAXX  15181 31300 42984 03303 11161 21241 40157 52002;
0122313000999992000021521004+53750+127230FM-12+023299999V0203201N003012200019N0500001N1-01751-02541101641ADDGA1001+999999999GF100991001001999999001001MD1210051+9999REMSYN054AAXX  15211 31300 42984 03203 11175 21254 40164 52005;
0231313000999992000021600004+53750+127230FM-12+023299999V0209999C000012200019N0500001N1-01991-02571999999ADDAA199000091AJ100189199999999GF102991001001999999001011IA1249KA1120N-02121MA1999999098751MD1210171+9999REMSYN082AAXX  16001 31300 32999 20000 11199 21257 39875 49185 52017 80001 333 21212 48018;EQDQ01+091853APOSLPQ02  00002PRCP99
0112313000999992000021603004+53750+127230FM-12+023299999V0209999C002012200019N0500001N1-01131-02091101691ADDGF103991001001999999001011MD1810051+9999REMSYN060AAXX  16031 31300 42999 30002 11113 21209 40169 58005 80001;
0112313000999992000021606004+53750+127230FM-12+023299999V0200401N004019999999N0500001N1-00911-01861101691ADDGF106991001001999999001011MD1310021+9999REMSYN060AAXX  16061 31300 42999 60404 11091 21186 40169 53002 80001;
0112313000999992000021609004+53750+127230FM-12+023299999V0200101N003019999999N0500001N1-01051-02011101911ADDGF107991001001999999001051MD1210201+9999REMSYN060AAXX  16091 31300 42999 70103 11105 21201 40191 52020 80005;
0186313000999992000021612004+53750+127230FM-12+023299999V0202401N001012200019N0500001N1-01291-02241101941ADDAA199000091GF102991001001999999001011KA1999M-00861MA1999999098921MD1410001+9999REMSYN076AAXX  16121 31300 32984 22401 11129 21224 39892 40194 54000 80001 333 11086;EQDQ01  00002PRCP99
0122313000999992000021615004+53750+127230FM-12+023299999V0202101N001012200019N0500001N1-01251-02201101931ADDGA1001+999999999GF100991001001999999001001MD1410001+9999REMSYN054AAXX  16151 31300 42984 02101 11125 21220 40193 54000;
0122313000999992000021618004+53750+127230FM-12+023299999V0209999C000012200019N0500001N1-01451-02381102021ADDGA1001+999999999GF100991001001999999001001MD1310071+9999REMSYN054AAXX  16181 31300 42984 00000 11145 21238 40202 53007;
0112313000999992000021621004+53750+127230FM-12+023299999V0203101N003012200019N0500001N1-01471-02281102101ADDGF102991001001999999001011MD1210061+9999REMSYN060AAXX  16211 31300 42984 23103 11147 21228 40210 52006 80001;
0215313000999992000021700004+53750+127230FM-12+023299999V0203301N003012200019N0500001N1-01501-02311102151ADDAA199000091AJ100189199999999GF101991001001999999001011IA1249KA1120N-01651MA1999999099101MD1210051+9999REMSYN082AAXX  17001 31300 32999 13303 11150 21231 39910 40215 52005 80001 333 21165 48018;EQDQ01  00002PRCP99
0122313000999992000021703004+53750+127230FM-12+023299999V0203601N002012200019N0500001N1-01011-01981102091ADDGA1001+999999999GF100991001001999999001001MD1410001+9999REMSYN054AAXX  17031 31300 42999 03602 11101 21198 40209 54000;
0122313000999992000021706004+53750+127230FM-12+023299999V0201301N001012200019N9999999N1-00721-01741101951ADDGA1001+999999999GF100991001001999999001001MD1810101+9999REMSYN054AAXX  17061 31300 429/9 01301 11072 21174 40195 58010;
0122313000999992000021709004+53750+127230FM-12+023299999V0203501N001012200019N0500001N1-00911-01941101981ADDGA1001+999999999GF100991001001999999001001MD1410001+9999REMSYN054AAXX  17091 31300 42999 03501 11091 21194 40198 54000;
0205313000999992000021712004+53750+127230FM-12+023299999V0200601N001012200019N0500001N1-01201-02151102001ADDAA199000091GA1001+999999999GF100991001001999999001001KA1120M-00701MA1999999098991MD1810011+9999REMSYN079AAXX  17121 31300 32984 00601 11120 21215 39899 40200 58001 333 11070 555 1/87;EQDQ01  00002PRCP99
0122313000999992000021715004+53750+127230FM-12+023299999V0203501N001012200019N0500001N1-01711-02401102031ADDGA1001+999999999GF100991001001999999001001MD1610031+9999REMSYN054AAXX  17151 31300 42984 03501 11171 21240 40203 56003;
0144313000999992000021718004+53750+127230FM-12+023299999V0201601N001012200019N0500001N1-02051-02541999999ADDAY101061AY201061GA1001+999999999GF100991001001999999001001MD1810011+9999MW1401REMSYN054AAXX  17181 31300 41984 01601 11205 21254 58001 74000;
0150313000999992000021721004+53750+127230FM-12+023299999V0200401N001012200019N0280001N1-02321-02571102101ADDAY101031AY201031GA1001+999999999GF100991001001999999001001MD1410001+9999MW1401REMSYN060AAXX  17211 31300 41978 00401 11232 21257 40210 54000 74000;
0260313000999992000021800004+53750+127230FM-12+023299999V0209999C000012200019N0500001N1-02361-02551101991ADDAA124000091AJ100179199999999GA1001+999999999GF100991001001999999001001IA1249KA1120N-02441MA1999999098931MD1810021+9999REMSYN095AAXX  18001 31300 32999 00000 11236 21255 39893 40199 58002 333 21244 48017 555 1/125 7000/ /-;EQDQ01  00002PRCP99Q02  00003PRCP99
0122313000999992000021803004+53750+127230FM-12+023299999V0202601N002012200019N0500001N1-01381-01901101881ADDGA1001+999999999GF100991001001999999001001MD1710081+9999REMSYN054AAXX  18031 31300 42999 02602 11138 21190 40188 57008;
0112313000999992000021806004+53750+127230FM-12+023299999V0202201N003012200019N0500001N1-00951-01781101691ADDGF102991001001999999001011MD1710131+9999REMSYN060AAXX  18061 31300 42999 22203 11095 21178 40169 57013 80001;
