0208315940999992000010100004+49420+130080FM-12+013599999V0209999C000012200019N0100001N1-03511-03671104051ADDAA106000091GA1001+999999999GF100991001001999999001001IA1239KA1120N-03581MA1999999102061MD1310061+9999REMSYN076AAXX  01001 31594 32997 00000 11351 21367 30206 40405 53006 333 21358 47015;EQDQ01  00002PRCP06
0122315940999992000010103004+49420+130080FM-12+013599999V0209999C000012200019N0200001N1-02791-02961103931ADDGA1001+999999999GF100991001001999999001001MD1810071+9999REMSYN054AAXX  01031 31594 42998 00000 11279 21296 40393 58007;
0122315940999992000010106004+49420+130080FM-12+013599999V0202801N002012200019N0200001N1-02381-02701103791ADDGA1001+999999999GF100991001001999999001001MD1710111+9999REMSYN054AAXX  01061 31594 42998 02802 11238 21270 40379 57011;
0122315940999992000010109004+49420+130080FM-12+013599999V0200401N002012200019N0230001N1-02611-02791103741ADDGA1001+999999999GF100991001001999999001001MD1810061+9999REMSYN054AAXX  01091 31594 42973 00402 11261 21279 40374 58006;
0122315940999992000010115004+49420+130080FM-12+013599999V0209999C000012200019N0170001N1-03161-03321103591ADDGA1001+999999999GF100991001001999999001001MD1710131+9999REMSYN054AAXX  01151 31594 42967 00000 11316 21332 40359 57013;
0122315940999992000010118004+49420+130080FM-12+013599999V0209999C000012200019N0180001N1-03441-03611999999ADDGA1001+999999999GF100991001001999999001001MD1710161+9999REMSYN054AAXX  01181 31594 42968 00000 11344 21361 49345 57016;
0122315940999992000010121004+49420+130080FM-12+013599999V0209999C000012200019N0150001N1-03331-03501103311ADDGA1001+999999999GF100991001001999999001001MD1710131+9999REMSYN054AAXX  01211 31594 42965 00000 11333 21350 40331 57013;
0198315940999992000010200004+49420+130080FM-12+013599999V0209999C000019999999N0100001N1-03241+99999103121ADDAA106000091GF108991001001999999001041IA1239KA1120N-03511MA1999999101171MD1710171+9999REMSYN082AAXX  02001 31594 32997 80000 11324 21242 30117 40312 57017 80004 333 21351 47015;EQDQ01  00002PRCP06
0112315940999992000010203004+49420+130080FM-12+013599999V0200301N001019999999N0100001N1-02751-02931102881ADDGF108991081001999999021999MD1710201+9999REMSYN060AAXX  02031 31594 42997 80301 11275 21293 40288 57020 8802/;
0112315940999992000010206004+49420+130080FM-12+013599999V0200101N001019999999N0100001N1-02261-02441102461ADDGF108991081001999999021999MD1710381+9999REMSYN060AAXX  02061 31594 42997 80101 11226 21244 40246 57038 8802/;
0140315940999992000010209004+49420+130080FM-12+013599999V0209999C000010042019N0044001N1-02111-02231102311ADDAY171031AY221031GF108991081001004501021999MD1710131+9999MW1711REMSYN066AAXX  02091 31594 41444 80000 11211 21223 40231 57013 77172 8802/;
0201315940999992000010212004+49420+130080FM-12+013599999V0200101N001010042019N0028001N1-01951-02071102111ADDAA112001091AY171061AY221061GF108991081001004501021999KA1999M-01891MA1999999100271MD1810191+9999MW1731REMSYN088AAXX  02121 31594 11428 80101 11195 21207 30027 40211 58019 60012 77372 8802/ 333 11189;
0166315940999992000010215004+49420+130080FM-12+013599999V0201801N002010048019N0026001N1-01921-02041102121ADDAY171031AY221031GA1081+004809029GF108991081001004501021999MD1310011+9999MW1731REMSYN076AAXX  02151 31594 41426 81802 11192 21204 40212 53001 77372 8802/ 333 88516;
0166315940999992000010218004+49420+130080FM-12+013599999V0201801N001010048019N0034001N1-01941-02061102151ADDAY171061AY221061GA1081+004809029GF108991081001004501021999MD1210031+9999MW1731REMSYN076AAXX  02181 31594 41434 81801 11194 21206 40215 52003 77372 8802/ 333 88516;
0166315940999992000010221004+49420+130080FM-12+013599999V0201601N001010051019N0036001N1-01731-01851102171ADDAY171031AY221031GA1081+005109029GF108991081001004501021999MD1310041+9999MW1731REMSYN076AAXX  02211 31594 41436 81601 11173 21185 40217 53004 77372 8802/ 333 88517;
0252315940999992000010300004+49420+130080FM-12+013599999V0201601N001010054019N0020001N1-01611-01741102341ADDAA112004191AJ100179199999999AY171061AY221061GA1081+005409029GF108991081001004501021999IA1239KA1120N-01981MA1999999100531MD1210181+9999MW1731REMSYN100AAXX  03001 31594 11495 81601 11161 21174 30053 40234 52018 60042 77372 8802/ 333 21198 47017 88518;
0140315940999992000010303004+49420+130080FM-12+013599999V0201801N001019999999N0040001N1-01481-01611102401ADDAY171031AY221031GF108991001001999999001071MD1210061+9999MW1711REMSYN066AAXX  03031 31594 41996 81801 11148 21161 40240 52006 77172 80007;
0140315940999992000010306004+49420+130080FM-12+013599999V0203501N003019999999N0040001N1-01441-01641102421ADDAY171061AY221061GF108991001001999999001071MD1210031+9999MW1711REMSYN066AAXX  03061 31594 41996 83503 11144 21164 40242 52003 77172 80007;
0140315940999992000010309004+49420+130080FM-12+013599999V0203501N004019999999N0035001N1-01711-01831102641ADDAY171031AY221031GF108991081001999999021999MD1210191+9999MW1731REMSYN066AAXX  03091 31594 41935 83504 11171 21183 40264 52019 77372 8802/;
0201315940999992000010312004+49420+130080FM-12+013599999V0203501N001019999999N0050001N1-01891-02081102891ADDAA112001091AY171061AY221061GF108991081001999999021999KA1999M-01391MA1999999101041MD1210231+9999MW1711REMSYN088AAXX  03121 31594 11950 83501 11189 21208 30104 40289 52023 60012 77172 8802/ 333 11139;
0140315940999992000010315004+49420+130080FM-12+013599999V0203101N002019999999N0060001N1-02081-02211102991ADDAY171031AY221031GF108991081001999999021999MD1210091+9999MW1711REMSYN066AAXX  03151 31594 41956 83102 11208 21221 40299 52009 77172 8802/;
0140315940999992000010318004+49420+130080FM-12+013599999V0203401N002019999999N0070001N1-02121-02241103091ADDAY171061AY221061GF108991081001999999021999MD1210101+9999MW1711REMSYN066AAXX  03181 31594 41957 83402 11212 21224 40309 52010 77172 8802/;
0140315940999992000010321004+49420+130080FM-12+013599999V0203301N003019999999N0060001N1-02201-02381103191ADDAY171031AY221031GF108991081001999999021999MD1210081+9999MW1711REMSYN066AAXX  03211 31594 41956 83303 11220 21238 40319 52008 77172 8802/;
0213315940999992000010400004+49420+130080FM-12+013599999V0203401N002019999999N0040001N1-02361-02481103281ADDAA112001091AY171061AY221061GF108991031001999999051071IA1239KA1120N-02361MA1999999101381MD1210071+9999MW1711REMSYN094AAXX  04001 31594 11996 83402 11236 21248 30138 40328 52007 60012 77172 83057 333 21236 47020;
0140315940999992000010403004+49420+130080FM-12+013599999V0203301N003019999999N0040001N1-02261-02531103301ADDAY171031AY221031GF108991001001999999001071MD1210031+9999MW1711REMSYN066AAXX  04031 31594 41996 83303 11226 21253 40330 52003 77172 80007;
0140315940999992000010406004+49420+130080FM-12+013599999V0203201N003019999999N0040001N1-02161-02341103291ADDAY171061AY221061GF108991041001999999051071MD1410001+9999MW1711REMSYN066AAXX  04061 31594 41996 83203 11216 21234 40329 54000 77172 84057;
0140315940999992000010409004+49420+130080FM-12+013599999V0203401N002019999999N0050001N1-02241-02421103391ADDAY171031AY221031GF108991061001999999051071MD1310101+9999MW1711REMSYN066AAXX  04091 31594 41950 83402 11224 21242 40339 53010 77172 86057;
0201315940999992000010412004+49420+130080FM-12+013599999V0203501N002019999999N0050001N1-02371-02551103371ADDAA112000891AY171061AY221061GF108991001001999999001071KA1999M-01891MA1999999101471MD1810041+9999MW1711REMSYN088AAXX  04121 31594 11950 83502 11237 21255 30147 40337 58004 69972 77172 80007 333 11189;
0140315940999992000010415004+49420+130080FM-12+013599999V0203501N002019999999N0100001N1-02461-02631103401ADDAY171031AY221031GF108991001001999999001071MD1310031+9999MW1711REMSYN066AAXX  04151 31594 41960 83502 11246 21263 40340 53003 77172 80007;
0140315940999992000010418004+49420+130080FM-12+013599999V0203301N002019999999N0049001N1-02401-02581103451ADDAY171061AY221061GF108991081001999999021999MD1210051+9999MW1711REMSYN066AAXX  04181 31594 41949 83302 11240 21258 40345 52005 77172 8802/;
0140315940999992000010421004+49420+130080FM-12+013599999V0203301N001019999999N0050001N1-02451-02631103441ADDAY171031AY221031GF108991081001999999021999MD1810011+9999MW1711REMSYN066AAXX  04211 31594 41950 83301 11245 21263 40344 58001 77172 8802/;
0232315940999992000010500004+49420+130080FM-12+013599999V0203201N001019999999N0040001N1-02411-02601103431ADDAA112000591AY171061AY221061GF108991081001999999071999IA1239KA1120M+99999MA1999999101531MD1510011+9999MW1711REMSYN094AAXX  05001 31594 11996 83201 11241 21260 30153 40343 55001 69952 77172 8807/ 333 11250 47022;EQDQ01 -02502ATMX  
0140315940999992000010503004+49420+130080FM-12+013599999V0202801N001019999999N0040001N1-02161-02411103371ADDAY171031AY221031GF108991001001999999001071MD1810041+9999MW1711REMSYN066AAXX  05031 31594 41996 82801 11216 21241 40337 58004 77172 80007;
0140315940999992000010506004+49420+130080FM-12+013599999V0202901N001019999999N0100001N1-02171-02491103281ADDAY171061AY221061GF108991001001999999001061MD1510091+9999MW1021REMSYN066AAXX  05061 31594 41997 82901 11217 21249 40328 55009 70272 80006;
0112315940999992000010509004+49420+130080FM-12+013599999V0209999C000012200019N0160001N1-02441-02621103311ADDGF103991031001999999031001MD1010011+9999REMSYN060AAXX  05091 31594 42966 30000 11244 21262 40331 50001 83030;
0223315940999992000010512004+49420+130080FM-12+013599999V0201001N001010069019N0070001N1-02361-02551103331ADDAA112000591AY171061AY211061GA1051+006909059GF108991051051008001071999KA1120M-02021MA1999999101431MD1310021+9999MW1711REMSYN094AAXX  05121 31594 11557 81001 11236 21255 30143 40333 53002 69942 77171 8557/ 333 11202 85623;
0140315940999992000010515004+49420+130080FM-12+013599999V0201001N001019999999N0140001N1-02361-02551103261ADDAY171031AY221031GF108991081001999999071999MD1810071+9999MW1021REMSYN066AAXX  05151 31594 41964 81001 11236 21255 40326 58007 70272 8807/;
0150315940999992000010518004+49420+130080FM-12+013599999V0209999C000012200019N0170001N1-02771+99999103091ADDAY171061AY211061GA1001+999999999GF100991001001999999001001MD1710191+9999MW1021REMSYN060AAXX  05181 31594 41967 00000 11277 21234 40309 57019 70271;
0112315940999992000010521004+49420+130080FM-12+013599999V0209999C000019999999N0160001N1-02471-02591102771ADDGF108991001001999999001071MD1710291+9999REMSYN060AAXX  05211 31594 42966 80000 11247 21259 40277 57029 80007;
0159315940999992000010603004+49420+130080FM-12+013599999V0209999C000019999999N0020001N1-01851-01971101971ADDAY171031AY221031GF108991081001999999021999MD1710502+9999MW1731REMSYN066AAXX  06031 31594 41995 80000 11185 21197 40197 57050 77372 8802/;EQDQ01+000502APC3  
0140315940999992000010606004+49420+130080FM-12+013599999V0200701N003019999999N0040001N1-01421-01551101551ADDAY171061AY221061GF108991081001999999021999MD1710381+9999MW1711REMSYN066AAXX  06061 31594 41996 80703 11142 21155 40155 57038 77172 8802/;
0140315940999992000010609004+49420+130080FM-12+013599999V0201401N003019999999N0070001N1-00651-01061100951ADDAY171031AY221031GF108991081001999999021999MD1710541+9999MW1711REMSYN066AAXX  06091 31594 41957 81403 11065 21106 40095 57054 77172 8802/;
0223315940999992000010612004+49420+130080FM-12+013599999V0203501N002010051019N0029001N1-01171-01231100851ADDAA112002091AY171061AY221061GA1081+005109029GF108991081001004501021999KA1120M-00631MA1999999099091MD1710131+9999MW1731REMSYN094AAXX  06121 31594 11429 83502 11117 21123 39909 40085 57013 60022 77372 8802/ 333 11063 88517;
0185315940999992000010615004+49420+130080FM-12+013599999V0203601N999990042019N0018001N1-01061-01061100601ADDAY171031AY221031GA1081+004209029GF108991081001004501021999MD1710231+9999MW1731REMSYN076AAXX  06151 31594 41418 88602 11106 21106 40060 57023 77372 8802/ 333 88514;EQDQ01+010201WOSPD 
0167315940999992000010621004+49420+130080FM-12+013599999V0203001N006010042019N0017001N1-01661-01791100211ADDAY171031AY231031GF108991081001004501021011MD1710141+9999MW1731OA149901101REMSYN082AAXX  06211 31594 41417 83006 11166 21179 40021 57014 77373 88021 333 91111 92982;
0216315940999992000010700004+49420+130080FM-12+013599999V0202901N003010042019N0010001N1-01951-02071100121ADDAA112007991AJ100329199999999AY171061AY221061GF108991081001004501021999IA1239KA1120N-01981MA1999999098321MW1731REMSYN094AAXX  07001 31594 11494 82903 11195 21207 39832 40012 60082 77372 8802/ 333 21198 47032 91110;
0140315940999992000010703004+49420+130080FM-12+013599999V0202701N004010042019N0010001N1-01891-02011100061ADDAY171031AY231031GF108991081001004501021999MD1710061+9999MW1731REMSYN066AAXX  07031 31594 41494 82704 11189 21201 40006 57006 77373 8802/;
0150315940999992000010706004+49420+130080FM-12+013599999V0202401N005010042019N0010001N1-02021-02141100031ADDAY171061AY231061GF108991081001004501021999MD1610031+9999MW1731REMSYN076AAXX  07061 31594 41494 82405 11202 21214 40003 56003 77373 8802/ 333 91110;
0172315940999992000010709004+49420+130080FM-12+013599999V0202501N008010036019N0050001N1-02251-02501100141ADDAY171031AY231031GA1081+003609059GF108991081001004501021999MD1310091+9999MW1711REMSYN082AAXX  07091 31594 41450 82508 11225 21250 40014 53009 77173 8802/ 333 88512 91110;
0201315940999992000010712004+49420+130080FM-12+013599999V0202301N005019999999N0050001N1-02211-02331100241ADDAA112006191AY171061AY231061GF108991081001999999021999KA1999M-01881MA1999999098421MD1210101+9999MW1711REMSYN088AAXX  07121 31594 11950 82305 11221 21233 39842 40024 52010 60062 77173 8802/ 333 11188;
0140315940999992000010715004+49420+130080FM-12+013599999V0201701N006019999999N0050001N1-02271-02451100271ADDAY171031AY231031GF108991081001999999021999MD1210021+9999MW1711REMSYN066AAXX  07151 31594 41950 81706 11227 21245 40027 52002 77173 8802/;
0140315940999992000010718004+49420+130080FM-12+013599999V0201601N004019999999N0070001N1-02311-02491100331ADDAY171061AY231061GF108991081001999999021999MD1210061+9999MW1711REMSYN066AAXX  07181 31594 41957 81604 11231 21249 40033 52006 77173 8802/;
0150315940999992000010721004+49420+130080FM-12+013599999V0201101N003012200019N0120001N1-02331-02511100361ADDAY171031AY211031GA1001+999999999GF100991001001999999001001MD1210031+9999MW1011REMSYN060AAXX  07211 31594 41962 01103 11233 21251 40036 52003 70171;
0223315940999992000010800004+49420+130080FM-12+013599999V0201301N004012200019N0100001N1-02321-02501100471ADDAA100001091AY171061AY211061GA1001+999999999GF100991001001999999001001IA1239KA1120N-02351MA1999999098641MD1210111+9999MW1021REMSYN088AAXX  08001 31594 11997 01304 11232 21250 39864 40047 52011 69990 70271 333 21235 47035;
0122315940999992000010803004+49420+130080FM-12+013599999V0201201N003012200019N0200001N1-02161-02561100531ADDGA1001+999999999GF100991001001999999001001MD1210071+9999REMSYN054AAXX  08031 31594 42998 01203 11216 21256 40053 52007;
0112315940999992000010806004+49420+130080FM-12+013599999V0202501N002019999999N0200001N1-02021-02511100731ADDGF108991001001999999001011MD1210201+9999REMSYN060AAXX  08061 31594 42998 82502 11202 21251 40073 52020 80001;
0140315940999992000010809004+49420+130080FM-12+013599999V0209999C000019999999N0070001N1-02351-02671100861ADDAY171031AY221031GF108991081001999999021999MD1110111+9999MW1711REMSYN066AAXX  08091 31594 41957 80000 11235 21267 40086 51011 77172 8802/;
0201315940999992000010812004+49420+130080FM-12+013599999V0201601N002019999999N0060001N1-02261-02441100801ADDAA112000791AY171061AY221061GF108991001001999999001071KA1999M-01901MA1999999098961MD1810061+9999MW1711REMSYN088AAXX  08121 31594 11956 81602 11226 21244 39896 40080 58006 69902 77172 80007 333 11190;
0140315940999992000010815004+49420+130080FM-12+013599999V0201401N003019999999N0050001N1-02121-02301100831ADDAY171031AY221031GF108991081001999999021999MD1310041+9999MW1711REMSYN066AAXX  08151 31594 41950 81403 11212 21230 40083 53004 77172 8802/;
0140315940999992000010818004+49420+130080FM-12+013599999V0201501N001019999999N0070001N1-02071-02261100801ADDAY171061AY221061GF108991001001999999001071MD1810031+9999MW1711REMSYN066AAXX  08181 31594 41957 81501 11207 21226 40080 58003 77172 80007;
0140315940999992000010821004+49420+130080FM-12+013599999V0201301N002010042019N0028001N1-01951-02071101021ADDAY171031AY221031GF108991081001004501021999MD1310241+9999MW1731REMSYN066AAXX  08211 31594 41428 81302 11195 21207 40102 53024 77372 8802/;
0200315940999992000010900004+49420+130080FM-12+013599999V0201601N002019999999N0100001N1-01771-01891101261ADDAA112002091AY121061AY271061GF108991081001999999021999IA1239MA1999999099451MD1210241+9999MW1271REMSYN094AAXX  09001 31594 11997 81602 11177 21189 39945 40126 52024 60022 72727 8802/ 333 2/233 47036;
0140315940999992000010903004+49420+130080FM-12+013599999V0202601N004019999999N0200001N1-01531-01871101411ADDAY171031AY221031GF108991081001999999021999MD1210171+9999MW1221REMSYN066AAXX  09031 31594 41998 82604 11153 21187 40141 52017 72272 8802/;
0149315940999992000010909004+49420+130080FM-12+013599999V0202201N001019999999N0029001N1-01571-01701999999ADDAY171031AY221031GF108991081001999999021999MD1210181+9999ME1101679MW1731REMSYN066AAXX  09091 31594 41929 82201 11157 21170 41167 52018 77372 8802/;
0201315940999992000010912004+49420+130080FM-12+013599999V0201701N002019999999N0070001N1-01591-01721101791ADDAA112001091AY171061AY221061GF108991081001999999021999KA1999M-01401MA1999999099981MD1210121+9999MW1711REMSYN088AAXX  09121 31594 11957 81702 11159 21172 39998 40179 52012 60012 77172 8802/ 333 11140;
0140315940999992000010915004+49420+130080FM-12+013599999V0203401N003019999999N0028001N1-01751-01871101881ADDAY171031AY221031GF108991081001999999021999MD1210081+9999MW1731REMSYN066AAXX  09151 31594 41928 83403 11175 21187 40188 52008 77372 8802/;
0140315940999992000010918004+49420+130080FM-12+013599999V0209999C000019999999N0060001N1-01981-02101101981ADDAY171061AY221061GF108991001001999999001071MD1210091+9999MW1711REMSYN066AAXX  09181 31594 41956 80000 11198 21210 40198 52009 77172 80007;
0140315940999992000010921004+49420+130080FM-12+013599999V0200201N002019999999N0080001N1-02421-02551102131ADDAY171031AY221031GF108991001001999999001071MD1210111+9999MW1711REMSYN066AAXX  09211 31594 41958 80202 11242 21255 40213 52011 77172 80007;
0213315940999992000011000004+49420+130080FM-12+013599999V0203601N002012200019N0100001N1-02441-02561102371ADDAA100000591AY171061AY211061GF102991001001999999001011IA1239KA1120N-02441MA1999999100491MD1210231+9999MW1021REMSYN094AAXX  10001 31594 11997 23602 11244 21256 30049 40237 52023 69960 70271 80001 333 21244 47036;
0122315940999992000011003004+49420+130080FM-12+013599999V0203501N003012200019N0100001N1-02591-02711102571ADDGA1001+999999999GF100991001001999999001001MD1210191+9999REMSYN054AAXX  10031 31594 42997 03503 11259 21271 40257 52019;
0122315940999992000011006004+49420+130080FM-12+013599999V0203401N003012200019N0200001N1-02071-02321102691ADDGA1001+999999999GF100991001001999999001001MD1210071+9999REMSYN054AAXX  10061 31594 42998 03403 11207 21232 40269 52007;
0122315940999992000011009004+49420+130080FM-12+013599999V0200101N002012200019N0180001N1-02821-03001103011ADDGA1001+999999999GF100991001001999999001001MD1210341+9999REMSYN054AAXX  10091 31594 42968 00102 11282 21300 40301 52034;
0196315940999992000011012004+49420+130080FM-12+013599999V0200401N003012200019N0160001N1-02961-03071103201ADDAA106000091GA1001+999999999GF100991001001999999001001KA1999M-01571MA1999999101261MD1210171+9999REMSYN070AAXX  10121 31594 32966 00403 11296 21307 30126 40320 52017 333 11157;EQDQ01  00002PRCP06
0122315940999992000011015004+49420+130080FM-12+013599999V0209999C000012200019N0150001N1-03371-03531103321ADDGA1001+999999999GF100991001001999999001001MD1110081+9999REMSYN054AAXX  10151 31594 42965 00000 11337 21353 40332 51008;
0122315940999992000011018004+49420+130080FM-12+013599999V0209999C000012200019N0160001N1-03341-03501103361ADDGA1001+999999999GF100991001001999999001001MD1310051+9999REMSYN054AAXX  10181 31594 42966 00000 11334 21350 40336 53005;
0122315940999992000011021004+49420+130080FM-12+013599999V0209999C000012200019N0140001N1-03631-03781103471ADDGA1001+999999999GF100991001001999999001001MD1210091+9999REMSYN054AAXX  10211 31594 42964 00000 11363 21378 40347 52009;
0236315940999992000011100004+49420+130080FM-12+013599999V0209999C000012200019N0020001N1-03691-03851103601ADDAA106000091AY101061AY201061GA1001+999999999GF100991001001999999001001IA1239KA1120N-03871MA1999999101601MD1210121+9999MW1101REMSYN082AAXX  11001 31594 31995 00000 11369 21385 30160 40360 52012 71000 333 21387 47034;EQDQ01  00002PRCP06
0122315940999992000011103004+49420+130080FM-12+013599999V0209999C000012200019N0100001N1-03221-03391103661ADDGA1001+999999999GF100991001001999999001001MD1210101+9999REMSYN054AAXX  11031 31594 42997 00000 11322 21339 40366 52010;
0122315940999992000011106004+49420+130080FM-12+013599999V0203101N002012200019N0100001N1-02561-02811103581ADDGA1001+999999999GF100991001001999999001001MD1810031+9999REMSYN054AAXX  11061 31594 42997 03102 11256 21281 40358 58003;
0122315940999992000011109004+49420+130080FM-12+013599999V0203501N001012200019N0110001N1-02651-02831103591ADDGA1001+999999999GF100991001001999999001001MD1310011+9999REMSYN054AAXX  11091 31594 42961 03501 11265 21283 40359 53001;
0196315940999992000011112004+49420+130080FM-12+013599999V0209999C000012200019N0110001N1-03131-03301103691ADDAA106000091GA1001+999999999GF100991001001999999001001KA1999M-02401MA1999999101741MD1210061+9999REMSYN070AAXX  11121 31594 32961 00000 11313 21330 30174 40369 52006 333 11240;EQDQ01  00002PRCP06
0122315940999992000011115004+49420+130080FM-12+013599999V0201501N001012200019N0130001N1-03411-03581103591ADDGA1001+999999999GF100991001001999999001001MD1810131+9999REMSYN054AAXX  11151 31594 42963 01501 11341 21358 40359 58013;
0122315940999992000011118004+49420+130080FM-12+013599999V0209999C000012200019N0140001N1-03551-03711103451ADDGA1001+999999999GF100991001001999999001001MD1710151+9999REMSYN054AAXX  11181 31594 42964 00000 11355 21371 40345 57015;
0122315940999992000011121004+49420+130080FM-12+013599999V0209999C000012200019N0130001N1-03501-03671103261ADDGA1001+999999999GF100991001001999999001001MD1710181+9999REMSYN054AAXX  11211 31594 42963 00000 11350 21367 40326 57018;
0208315940999992000011200004+49420+130080FM-12+013599999V0209999C000012200019N0100001N1-03511-03671103121ADDAA106000091GA1001+999999999GF100991001001999999001001IA1239KA1120N-03771MA1999999101151MD1610131+9999REMSYN076AAXX  12001 31594 32997 00000 11351 21367 30115 40312 56013 333 21377 47034;EQDQ01  00002PRCP06
0122315940999992000011203004+49420+130080FM-12+013599999V0209999C000012200019N0100001N1-02761-02931102901ADDGA1001+999999999GF100991001001999999001001MD1710171+9999REMSYN054AAXX  12031 31594 42997 00000 11276 21293 40290 57017;
0122315940999992000011206004+49420+130080FM-12+013599999V0209999C000012200019N0200001N1-02531-02841102711ADDGA1001+999999999GF100991001001999999001001MD1710161+9999REMSYN054AAXX  12061 31594 42998 00000 11253 21284 40271 57016;
0122315940999992000011209004+49420+130080FM-12+013599999V0200201N001012200019N0140001N1-02981-03151102761ADDGA1001+999999999GF100991001001999999001001MD1310011+9999REMSYN054AAXX  12091 31594 42964 00201 11298 21315 40276 53001;
0196315940999992000011212004+49420+130080FM-12+013599999V0200101N001012200019N0120001N1-03101-03281102791ADDAA106000091GA1001+999999999GF100991001001999999001001KA1999M-02281MA1999999100851MD1110021+9999REMSYN070AAXX  12121 31594 32962 00101 11310 21328 30085 40279 51002 333 11228;EQDQ01  00002PRCP06
0122315940999992000011215004+49420+130080FM-12+013599999V0209999C000012200019N0150001N1-03251-03421102811ADDGA1001+999999999GF100991001001999999001001MD1410001+9999REMSYN054AAXX  12151 31594 42965 00000 11325 21342 40281 54000;
0122315940999992000011218004+49420+130080FM-12+013599999V0200401N001012200019N0150001N1-03561-03711102831ADDGA1001+999999999GF100991001001999999001001MD1410001+9999REMSYN054AAXX  12181 31594 42965 00401 11356 21371 40283 54000;
0122315940999992000011221004+49420+130080FM-12+013599999V0201501N001012200019N0130001N1-03891-04111102841ADDGA1001+999999999GF100991001001999999001001MD1810021+9999REMSYN054AAXX  12211 31594 42963 01501 11389 21411 40284 58002;
0236315940999992000011300004+49420+130080FM-12+013599999V0209999C000012200019N0020001N1-03981-04211102911ADDAA106000091AY101061AY201061GA1001+999999999GF100991001001999999001001IA1239KA1120N-04061MA1999999100891MD1310061+9999MW1101REMSYN082AAXX  13001 31594 31995 00000 11398 21421 30089 40291 53006 71000 333 21406 47034;EQDQ01  00002PRCP06
0150315940999992000011303004+49420+130080FM-12+013599999V0201801N002012200019N0040001N1-03181-03341102851ADDAY101031AY201031GA1001+999999999GF100991001001999999001001MD1010011+9999MW1101REMSYN060AAXX  13031 31594 41996 01802 11318 21334 40285 50001 71000;
0122315940999992000011306004+49420+130080FM-12+013599999V0203401N002012200019N0100001N1-02881-03121102821ADDGA1001+999999999GF100991001001999999001001MD1410001+9999REMSYN054AAXX  13061 31594 42997 03402 11288 21312 40282 54000;
0122315940999992000011309004+49420+130080FM-12+013599999V0203601N001012200019N0160001N1-03161-03321102931ADDGA1001+999999999GF100991001001999999001001MD1310081+9999REMSYN054AAXX  13091 31594 42966 03601 11316 21332 40293 53008;
0196315940999992000011312004+49420+130080FM-12+013599999V0209999C000012200019N0150001N1-03321-03501102971ADDAA106000091GA1001+999999999GF100991001001999999001001KA1999M-02761MA1999999101011MD1210031+9999REMSYN070AAXX  13121 31594 32965 00000 11332 21350 30101 40297 52003 333 11276;EQDQ01  00002PRCP06
0122315940999992000011315004+49420+130080FM-12+013599999V0209999C000012200019N0140001N1-03551-03711103041ADDGA1001+999999999GF100991001001999999001001MD1210051+9999REMSYN054AAXX  13151 31594 42964 00000 11355 21371 40304 52005;
0122315940999992000011318004+49420+130080FM-12+013599999V0209999C000012200019N0170001N1-03871-04011103121ADDGA1001+999999999GF100991001001999999001001MD1210051+9999REMSYN054AAXX  13181 31594 42967 00000 11387 21401 40312 52005;
0126315940999992000011321004+49420+130080FM-12+013599999V0209999C000012200019N0100001N1-03931-04161103061ADDGA1001+999999999GF100991001001999999001001MD1210031+9999REMSYN058    AAXX  13211 31594 42960 00000 11393 21416 40306 52003;
0257315940999992000011400004+49420+130080FM-12+013599999V0209999C000012200019N0040001N1-03901-04111103191ADDAA199000091AJ100349199999999AY101061AY201061GA1001+999999999GF100991001001999999001001IA1239KA1120N-04041MA1999999101181MD1210041+9999MW1101REMSYN086    AAXX  14001 31594 31996 00000 11390 21411 30118 40319 52004 71000 333 21404 47034;EQDQ01  00002PRCP99
0154315940999992000011403004+49420+130080FM-12+013599999V0209999C000012200019N0040001N1-03091-03321103091ADDAY101031AY201031GA1001+999999999GF100991001001999999001001MD1810031+9999MW1101REMSYN064    AAXX  14031 31594 41996 00000 11309 21332 40309 58003 71000;
0126315940999992000011406004+49420+130080FM-12+013599999V0202701N001012200019N0100001N1-02871-03251103051ADDGA1001+999999999GF100991001001999999001001MD1710021+9999REMSYN058    AAXX  14061 31594 42997 02701 11287 21325 40305 57002;
0126315940999992000011409004+49420+130080FM-12+013599999V0200201N001012200019N0140001N1-03051-03271103141ADDGA1001+999999999GF100991001001999999001001MD1310071+9999REMSYN058    AAXX  14091 31594 42964 00201 11305 21327 40314 53007;
0200315940999992000011412004+49420+130080FM-12+013599999V0209999C000012200019N0120001N1-03271-03441103241ADDAA199000091GA1001+999999999GF100991001001999999001001KA1999M-02861MA1999999101271MD1210071+9999REMSYN074    AAXX  14121 31594 32962 00000 11327 21344 30127 40324 52007 333 11286;EQDQ01  00002PRCP99
0126315940999992000011415004+49420+130080FM-12+013599999V0209999C000012200019N0130001N1-03611-03781103311ADDGA1001+999999999GF100991001001999999001001MD1010051+9999REMSYN058    AAXX  14151 31594 42963 00000 11361 21378 40331 50005;
0126315940999992000011418004+49420+130080FM-12+013599999V0209999C000012200019N0150001N1-03551-03711103361ADDGA1001+999999999GF100991001001999999001001MD1310051+9999REMSYN058    AAXX  14181 31594 42965 00000 11355 21371 40336 53005;
0126315940999992000011421004+49420+130080FM-12+013599999V0209999C000012200019N0170001N1-03751-03991103381ADDGA1001+999999999GF100991001001999999001001MD1410001+9999REMSYN058    AAXX  14211 31594 42967 00000 11375 21399 40338 54000;
0247315940999992000011500004+49420+130080FM-12+013599999V0209999C000019999999N0040001N1-03691-03901103461ADDAA199000091AJ100349199999999AY111061AY211061GF108991001001999999001011IA1239KA1120N-03891MA1999999101461MD1310091+9999MW1101REMSYN092    AAXX  15001 31594 31996 80000 11369 2139/ 30146 40346 53009 71011 80001 333 21389 47034;EQDQ01  00002PRCP99
0116315940999992000011503004+49420+130080FM-12+013599999V0200101N001019999999N0100001N1-03001-03171103441ADDGF108991001001999999001011MD1110041+9999REMSYN064    AAXX  15031 31594 42997 80101 11300 21317 40344 51004 80001;
0116315940999992000011506004+49420+130080FM-12+013599999V0202401N002019999999N0200001N1-02721-03031103251ADDGF108991001001999999001011MD1810171+9999REMSYN064    AAXX  15061 31594 42998 82402 11272 21303 40325 58017 80001;
0116315940999992000011509004+49420+130080FM-12+013599999V0209999C000019999999N0160001N1-03011-03251103281ADDGF108991001001999999001011MD1310011+9999REMSYN064    AAXX  15091 31594 42966 80000 11301 21325 40328 53001 80001;
0190315940999992000011512004+49420+130080FM-12+013599999V0209999C000012200019N0140001N1-03471-03701103351ADDAA199000091GF102991001001999999001011KA1999M-02651MA1999999101371MD1210031+9999REMSYN080    AAXX  15121 31594 32964 20000 11347 21370 30137 40335 52003 80001 333 11265;EQDQ01  00002PRCP99
0116315940999992000011515004+49420+130080FM-12+013599999V0200101N001019999999N0130001N1-03511-03671103361ADDGF108991001001999999001011MD1210011+9999REMSYN064    AAXX  15151 31594 42963 80101 11351 21367 40336 52001 80001;
0126315940999992000011518004+49420+130080FM-12+013599999V0209999C000012200019N0100001N1-03741-03881103411ADDGA1001+999999999GF100991001001999999001001MD1210031+9999REMSYN058    AAXX  15181 31594 42960 00000 11374 21388 40341 52003;
0126315940999992000011521004+49420+130080FM-12+013599999V0209999C000012200019N0100001N1-03751-03991103421ADDGA1001+999999999GF100991001001999999001001MD1410001+9999REMSYN058    AAXX  15211 31594 42960 00000 11375 21399 40342 54000;
0247315940999992000011600004+49420+130080FM-12+013599999V0200201N001012200019N0040001N1-03481-03641103451ADDAA199000091AJ100349199999999AY101061AY201061GF102991001001999999001011IA1239KA1120N-04061MA1999999101471MD1210061+9999MW1101REMSYN092    AAXX  16001 31594 31996 20201 11348 21364 30147 40345 52006 71000 80001 333 21406 47034;EQDQ01  00002PRCP99
0126315940999992000011603004+49420+130080FM-12+013599999V0203501N002012200019N0100001N1-03141-03301103361ADDGA1001+999999999GF100991001001999999001001MD1810061+9999REMSYN058    AAXX  16031 31594 42997 03502 11314 21330 40336 58006;
0126315940999992000011606004+49420+130080FM-12+013599999V0203301N002012200019N0100001N1-02701-02941103251ADDGA1001+999999999GF100991001001999999001001MD1710081+9999REMSYN058    AAXX  16061 31594 42997 03302 11270 21294 40325 57008;
0126315940999992000011609004+49420+130080FM-12+013599999V0200401N001012200019N0100001N1-02841-03021103271ADDGA1001+999999999GF100991001001999999001001MD1310011+9999REMSYN058    AAXX  16091 31594 42960 00401 11284 21302 40327 53001;
0200315940999992000011612004+49420+130080FM-12+013599999V0200201N001012200019N0120001N1-03291-03441103261ADDAA199000091GA1001+999999999GF100991001001999999001001KA1999M-02661MA1999999101291MD1810051+9999REMSYN074    AAXX  16121 31594 32962 00201 11329 21344 30129 40326 58005 333 11266;EQDQ01  00002PRCP99
0126315940999992000011615004+49420+130080FM-12+013599999V0209999C000012200019N0110001N1-03441-03611103241ADDGA1001+999999999GF100991001001999999001001MD1710031+9999REMSYN058    AAXX  16151 31594 42961 00000 11344 21361 40324 57003;
0126315940999992000011618004+49420+130080FM-12+013599999V0201601N001012200019N0130001N1-03511-03671103231ADDGA1001+999999999GF100991001001999999001001MD1310011+9999REMSYN058    AAXX  16181 31594 42963 01601 11351 21367 40323 53001;
0126315940999992000011621004+49420+130080FM-12+013599999V0201501N001012200019N0100001N1-03811-03971103261ADDGA1001+999999999GF100991001001999999001001MD1410001+9999REMSYN058    AAXX  16211 31594 42960 01501 11381 21397 40326 54000;
0257315940999992000011700004+49420+130080FM-12+013599999V0209999C000012200019N0020001N1-03681-03851103231ADDAA199000091AJ100349199999999AY101061AY201061GA1001+999999999GF100991001001999999001001IA1239KA1120N-03881MA1999999101241MD1510011+9999MW1101REMSYN086    AAXX  17001 31594 31995 00000 11368 21385 30124 40323 55001 71000 333 21388 47034;EQDQ01  00002PRCP99
0144315940999992000011703004+49420+130080FM-12+013599999V0209999C000012200019N0040001N1-02881-03121103121ADDAY101031AY201031GF102991001001999999001011MD1810041+9999MW1101REMSYN070    AAXX  17031 31594 41996 20000 11288 21312 40312 58004 71000 80001;
0144315940999992000011706004+49420+130080FM-12+013599999V0203501N002019999999N0100001N1-02781-03031103061ADDAY171061AY211061GF108991001001999999001071MD1710061+9999MW1221REMSYN070    AAXX  17061 31594 41997 83502 11278 21303 40306 57006 72271 80007;
0126315940999992000011709004+49420+130080FM-12+013599999V0200401N002012200019N0180001N1-03031-03211103081ADDGA1001+999999999GF100991001001999999001001MD1310011+9999REMSYN058    AAXX  17091 31594 42968 00402 11303 21321 40308 53001;
0187315940999992000011712004+49420+130080FM-12+013599999V0209999C000012200019N0110001N1-03401-03551103141ADDAA100000791GA1001+999999999GF100991001001999999001001KA1999M-02661MA1999999101171MD1210021+9999REMSYN080    AAXX  17121 31594 12961 00000 11340 21355 30117 40314 52002 69900 333 11266;
0126315940999992000011715004+49420+130080FM-12+013599999V0209999C000012200019N0120001N1-03501-03671103161ADDGA1001+999999999GF100991001001999999001001MD1210021+9999REMSYN058    AAXX  17151 31594 42962 00000 11350 21367 40316 52002;
0126315940999992000011718004+49420+130080FM-12+013599999V0209999C000012200019N0110001N1-03711-03951103161ADDGA1001+999999999GF100991001001999999001001MD1810021+9999REMSYN058    AAXX  17181 31594 42961 00000 11371 21395 40316 58002;
0126315940999992000011721004+49420+130080FM-12+013599999V0209999C000012200019N0100001N1-03851-04071103121ADDGA1001+999999999GF100991001001999999001001MD1710061+9999REMSYN058    AAXX  17211 31594 42960 00000 11385 21407 40312 57006;
0257315940999992000011800004+49420+130080FM-12+013599999V0209999C000012200019N0040001N1-03941-04161103121ADDAA199000091AJ100339199999999AY101061AY201061GA1001+999999999GF100991001001999999001001IA1239KA1120N-03941MA1999999101111MD1410001+9999MW1101REMSYN086    AAXX  18001 31594 31996 00000 11394 21416 30111 40312 54000 71000 333 21394 47033;EQDQ01  00002PRCP99
0154315940999992000011803004+49420+130080FM-12+013599999V0209999C000012200019N0040001N1-03451-03671103091ADDAY101031AY201031GA1001+999999999GF100991001001999999001001MD1310011+9999MW1101REMSYN064    AAXX  18031 31594 41996 00000 11345 21367 40309 53001 71000;
0115315940999992000011806004+49420+130080FM-12+013599999V0200201N001012200019N0100001N1-02521-02841999999ADDGA1001+999999999GF100991001001999999001001ME1552049REMSYN052    AAXX  18061 31594 42997 00201 11252 21284 45204;
0116315940999992000011809004+49420+130080FM-12+013599999V0209999C000019999999N0110001N1-03291-03441102961ADDGF108991001001999999001011MD1710161+9999REMSYN064    AAXX  18091 31594 42961 80000 11329 21344 40296 57016 80001;
0200315940999992000011812004+49420+130080FM-12+013599999V0209999C000012200019N0120001N1-03511-03671102891ADDAA199000091GA1001+999999999GF100991001001999999001001KA1999M-02511MA1999999100921MD1710081+9999REMSYN074    AAXX  18121 31594 32962 00000 11351 21367 30092 40289 57008 333 11251;EQDQ01  00002PRCP99
0126315940999992000011815004+49420+130080FM-12+013599999V0209999C000012200019N0140001N1-03651-03811102901ADDGA1001+999999999GF100991001001999999001001MD1610011+9999REMSYN058    AAXX  18151 31594 42964 00000 11365 21381 40290 56001;
0116315940999992000011818004+49420+130080FM-12+013599999V0209999C000012200019N0120001N1-03741-03951102891ADDGF103991001001999999001011MD1810011+9999REMSYN064    AAXX  18181 31594 42962 30000 11374 21395 40289 58001 80001;
0116315940999992000011821004+49420+130080FM-12+013599999V0209999C000012200019N0100001N1-03901-04111102861ADDGF102991001001999999001011MD1710051+9999REMSYN064    AAXX  18211 31594 42960 20000 11390 21411 40286 57005 80001;
0247315940999992000011900004+49420+130080FM-12+013599999V0209999C000019999999N0040001N1-04031-04261103061ADDAA199000091AJ100339199999999AY111061AY211061GF106991001001999999001011IA1239KA1120N-04031MA1999999101041MD1310191+9999MW1101REMSYN092    AAXX  19001 31594 31996 60000 11403 21426 30104 40306 53019 71011 80001 333 21403 47033;EQDQ01  00002PRCP99
0144315940999992000011903004+49420+130080FM-12+013599999V0209999C000012200019N0040001N1-03401-03611103021ADDAY111031AY211031GF102991001001999999001011MD1110011+9999MW1101REMSYN070    AAXX  19031 31594 41996 20000 11340 21361 40302 51001 71011 80001;
0116315940999992000011906004+49420+130080FM-12+013599999V0203001N002012200019N0200001N1-02921-03221102881ADDGF102991001001999999001011MD1810091+9999REMSYN064    AAXX  19061 31594 42998 23002 11292 21322 40288 58009 80001;
0116315940999992000011909004+49420+130080FM-12+013599999V0203501N002012200019N0150001N1-03361-03591102941ADDGF102991001001999999001011MD1310011+9999REMSYN064    AAXX  19091 31594 42965 23502 11336 21359 40294 53001 80001;
0200315940999992000011912004+49420+130080FM-12+013599999V0200101N001012200019N0200001N1-03441-03671103041ADDAA199000091GA1001+999999999GF100991001001999999001001KA1999M-02871MA1999999101071MD1210101+9999REMSYN074    AAXX  19121 31594 32970 00101 11344 21367 30107 40304 52010 333 11287;EQDQ01  00002PRCP99
0122315940999992000011915004+49420+130080FM-12+013599999V0209999C000012200019N0170001N1-03571-03741103141ADDGA1001+999999999GF100991001001999999001001MD1210091+9999REMSYN054AAXX  19151 31594 42967 00000 11357 21374 40314 52009;
0122315940999992000011918004+49420+130080FM-12+013599999V0200201N001012200019N0160001N1-03591-03741103211ADDGA1001+999999999GF100991001001999999001001MD1210071+9999REMSYN054AAXX  19181 31594 42966 00201 11359 21374 40321 52007;
0112315940999992000011921004+49420+130080FM-12+013599999V0209999C000012200019N0150001N1-03851-04071103351ADDGF102991001001999999001011MD1210101+9999REMSYN060AAXX  19211 31594 42965 20000 11385 21407 40335 52010 80001;
0243315940999992000012000004+49420+130080FM-12+013599999V0209999C000012200019N0040001N1-03611-03841103461ADDAA199000091AJ100339199999999AY101061AY201061GF102991001001999999001011IA1239KA1120N-03991MA1999999101471MD1210141+9999MW1101REMSYN088AAXX  20001 31594 31996 20000 11361 21384 30147 40346 52014 71000 80001 333 21399 47033;EQDQ01  00002PRCP99
0080315940999992000012003004+49420+130080FM-12+013599999V0209999C000019999999N0100001N1-03241+99999103521ADDMD1210081+9999REMSYN054AAXX  20031 31594 42997 /0000 11324 2348/ 40352 52008;
0122315940999992000012006004+49420+130080FM-12+013599999V0203501N002012200019N0100001N1-02971-03281103451ADDGA1001+999999999GF100991001001999999001001MD1810041+9999REMSYN054AAXX  20061 31594 12997 03502 11297 21328 40345 58004;
0122315940999992000012009004+49420+130080FM-12+013599999V0209999C000012200019N0120001N1-03231-03461103561ADDGA1001+999999999GF100991001001999999001001MD1310091+9999REMSYN054AAXX  20091 31594 42962 00000 11323 21346 40356 53009;
0196315940999992000012012004+49420+130080FM-12+013599999V0201601N001012200019N0140001N1-03321-03561103561ADDAA199000091GA1001+999999999GF100991001001999999001001KA1999M-02911MA1999999101591MD1810011+9999REMSYN070AAXX  20121 31594 32964 01601 11332 21356 30159 40356 58001 333 11291;EQDQ01  00002PRCP99
0122315940999992000012015004+49420+130080FM-12+013599999V0201601N001012200019N0160001N1-03461-03611103641ADDGA1001+999999999GF100991001001999999001001MD1310071+9999REMSYN054AAXX  20151 31594 42966 01601 11346 21361 40364 53007;
0122315940999992000012018004+49420+130080FM-12+013599999V0209999C000012200019N0130001N1-03651-03811103701ADDGA1001+999999999GF100991001001999999001001MD1210041+9999REMSYN054AAXX  20181 31594 42963 00000 11365 21381 40370 52004;
0122315940999992000012021004+49420+130080FM-12+013599999V0209999C000012200019N0130001N1-03911-04011103721ADDGA1001+999999999GF100991001001999999001001MD1410001+9999REMSYN054AAXX  20211 31594 42963 00000 11391 21401 40372 54000;
0253315940999992000012100004+49420+130080FM-12+013599999V0209999C000012200019N0040001N1-03861-04071103711ADDAA199000091AJ100339199999999AY101061AY201061GA1001+999999999GF100991001001999999001001IA1239KA1120N-04071MA1999999101691MD1810011+9999MW1101REMSYN082AAXX  21001 31594 31996 00000 11386 21407 30169 40371 58001 71000 333 21407 47033;EQDQ01  00002PRCP99
0157315940999992000012103004+49420+130080FM-12+013599999V0201501N002012200019N0100001N1-02572-02882103551ADDGA1001+999999999GF100991001001999999001001MD1710051+9999REMSYN054AAXX  21031 31594 42997 01502 11257 21288 40355 57005;EQDQ01-002573ATOT  Q02-002883ATOD  
0122315940999992000012106004+49420+130080FM-12+013599999V0201601N002012200019N0100001N1-02161-02561103381ADDGA1001+999999999GF100991001001999999001001MD1710141+9999REMSYN054AAXX  21061 31594 42997 01602 11216 21256 40338 57014;
0112315940999992000012109004+49420+130080FM-12+013599999V0201201N001012200019N0140001N1-02451-02771103351ADDGF102991001001999999001011MD1710051+9999REMSYN060AAXX  21091 31594 42964 21201 11245 21277 40335 57005 80001;
0186315940999992000012112004+49420+130080FM-12+013599999V0209999C000012200019N0170001N1-02821-03001103351ADDAA199000091GF103991001001999999001091KA1999M-02151MA1999999101421MD1510031+9999REMSYN076AAXX  21121 31594 32967 30000 11282 21300 30142 40335 55003 80009 333 11215;EQDQ01  00002PRCP99
0112315940999992000012115004+49420+130080FM-12+013599999V0209999C000019999999N0130001N1-02921-03091103381ADDGF108991001001999999001011MD1210031+9999REMSYN060AAXX  21151 31594 42963 80000 11292 21309 40338 52003 80001;
0112315940999992000012118004+49420+130080FM-12+013599999V0209999C000012200019N0140001N1-03021-03191103411ADDGF102991001001999999001011MD1210021+9999REMSYN060AAXX  21181 31594 42964 20000 11302 21319 40341 52002 80001;
0122315940999992000012121004+49420+130080FM-12+013599999V0209999C000012200019N0150001N1-03241-03421103401ADDGA1001+999999999GF100991001001999999001001MD1710031+9999REMSYN054AAXX  21211 31594 42965 00000 11324 21342 40340 57003;
0225315940999992000012200004+49420+130080FM-12+013599999V0209999C000012200019N0100001N1-03641-03871103441ADDAA199000091AJ100339199999999GA1001+999999999GF100991001001999999001001IA1239KA1120N-03711MA1999999101451MD1310011+9999REMSYN076AAXX  22001 31594 32997 00000 11364 21387 30145 40344 53001 333 21371 47033;EQDQ01  00002PRCP99
0157315940999992000012203004+49420+130080FM-12+013599999V0209999C000012200019N0100001N1-02472-02712103391ADDGA1001+999999999GF100991001001999999001001MD1210041+9999REMSYN054AAXX  22031 31594 42997 00000 11247 21271 40339 52004;EQDQ01-002473ATOT  Q02-002713ATOD  
0122315940999992000012206004+49420+130080FM-12+013599999V0203201N002012200019N0200001N1-02371-02841103251ADDGA1001+999999999GF100991001001999999001001MD1710131+9999REMSYN054AAXX  22061 31594 42998 03202 11237 21284 40325 57013;
0122315940999992000012209004+49420+130080FM-12+013599999V0200201N002012200019N0100001N1-02791-03031103201ADDGA1001+999999999GF100991001001999999001001MD1710091+9999REMSYN054AAXX  22091 31594 42960 00202 11279 21303 40320 57009;
0196315940999992000012212004+49420+130080FM-12+013599999V0200101N002012200019N0120001N1-03521-03671103341ADDAA199000091GA1001+999999999GF100991001001999999001001KA1999M-02351MA1999999101361MD1310091+9999REMSYN070AAXX  22121 31594 32962 00102 11352 21367 30136 40334 53009 333 11235;EQDQ01  00002PRCP99
0122315940999992000012215004+49420+130080FM-12+013599999V0203601N003012200019N0140001N1-03301-03471103271ADDGA1001+999999999GF100991001001999999001001MD1810061+9999REMSYN054AAXX  22151 31594 42964 03603 11330 21347 40327 58006;
0122315940999992000012218004+49420+130080FM-12+013599999V0200201N002012200019N0130001N1-03541-03711103311ADDGA1001+999999999GF100991001001999999001001MD1310031+9999REMSYN054AAXX  22181 31594 42963 00202 11354 21371 40331 53003;
0122315940999992000012221004+49420+130080FM-12+013599999V0200301N002012200019N0110001N1-03641-03811103291ADDGA1001+999999999GF100991001001999999001001MD1810031+9999REMSYN054AAXX  22211 31594 42961 00302 11364 21381 40329 58003;
0253315940999992000012300004+49420+130080FM-12+013599999V0200101N001012200019N0020001N1-03841-04071103391ADDAA199000091AJ100339199999999AY101061AY201061GA1001+999999999GF100991001001999999001001IA1239KA1120N-03901MA1999999101381MD1310081+9999MW1101REMSYN082AAXX  23001 31594 31995 00101 11384 21407 30138 40339 53008 71000 333 21390 47033;EQDQ01  00002PRCP99
0122315940999992000012303004+49420+130080FM-12+013599999V0203401N002012200019N0200001N1-03231-03461103381ADDGA1001+999999999GF100991001001999999001001MD1110041+9999REMSYN054AAXX  23031 31594 42998 03402 11323 21346 40338 51004;
0122315940999992000012306004+49420+130080FM-12+013599999V0203101N004012200019N0200001N1-02751-02991103251ADDGA1001+999999999GF100991001001999999001001MD1810091+9999REMSYN054AAXX  23061 31594 42998 03104 11275 21299 40325 58009;
0122315940999992000012309004+49420+130080FM-12+013599999V0203201N004012200019N0180001N1-02931-03241103361ADDGA1001+999999999GF100991001001999999001001MD1310101+9999REMSYN054AAXX  23091 31594 42968 03204 11293 21324 40336 53010;
0196315940999992000012312004+49420+130080FM-12+013599999V0203601N002012200019N0150001N1-03281-03441103451ADDAA199000091GA1001+999999999GF100991001001999999001001KA1999M-02611MA1999999101481MD1210051+9999REMSYN070AAXX  23121 31594 32965 03602 11328 21344 30148 40345 52005 333 11261;EQDQ01  00002PRCP99
0122315940999992000012315004+49420+130080FM-12+013599999V0203601N001012200019N0150001N1-03441-03611103371ADDGA1001+999999999GF100991001001999999001001MD1810091+9999REMSYN054AAXX  23151 31594 42965 03601 11344 21361 40337 58009;
0122315940999992000012318004+49420+130080FM-12+013599999V0200101N002012200019N0170001N1-03581-03741103361ADDGA1001+999999999GF100991001001999999001001MD1710021+9999REMSYN054AAXX  23181 31594 42967 00102 11358 21374 40336 57002;
0122315940999992000012321004+49420+130080FM-12+013599999V0209999C000012200019N0110001N1-03981-04211103371ADDGA1001+999999999GF100991001001999999001001MD1710031+9999REMSYN054AAXX  23211 31594 42961 00000 11398 21421 40337 57003;
0253315940999992000012400004+49420+130080FM-12+013599999V0200201N002012200019N0020001N1-03911-04111103421ADDAA199000091AJ100329199999999AY101061AY201061GA1001+999999999GF100991001001999999001001IA1239KA1120N-04101MA1999999101401MD1310061+9999MW1101REMSYN082AAXX  24001 31594 31995 00202 11391 21411 30140 40342 53006 71000 333 21410 47032;EQDQ01  00002PRCP99
0122315940999992000012403004+49420+130080FM-12+013599999V0203401N003012200019N0100001N1-03301-03531103371ADDGA1001+999999999GF100991001001999999001001MD1010001+9999REMSYN054AAXX  24031 31594 42997 03403 11330 21353 40337 50000;
0122315940999992000012406004+49420+130080FM-12+013599999V0203501N003012200019N0200001N1-02871-03151103271ADDGA1001+999999999GF100991001001999999001001MD1710061+9999REMSYN054AAXX  24061 31594 42998 03503 11287 21315 40327 57006;
0122315940999992000012409004+49420+130080FM-12+013599999V0203401N003012200019N0170001N1-02931-03171999999ADDGA1001+999999999GF100991001001999999001001MD1310011+9999REMSYN054AAXX  24091 31594 42967 03403 11293 21317 43128 53001;
0196315940999992000012412004+49420+130080FM-12+013599999V0203501N002012200019N0160001N1-03241-03481103261ADDAA199000091GA1001+999999999GF100991001001999999001001KA1999M-02811MA1999999101301MD1810051+9999REMSYN070AAXX  24121 31594 32966 03502 11324 21348 30130 40326 58005 333 11281;EQDQ01  00002PRCP99
0122315940999992000012415004+49420+130080FM-12+013599999V0200301N002012200019N0150001N1-03461-03671103191ADDGA1001+999999999GF100991001001999999001001MD1710081+9999REMSYN054AAXX  24151 31594 42965 00302 11346 21367 40319 57008;
0122315940999992000012418004+49420+130080FM-12+013599999V0209999C000012200019N0130001N1-03751-03931103091ADDGA1001+999999999GF100991001001999999001001MD1710131+9999REMSYN054AAXX  24181 31594 42963 00000 11375 21393 40309 57013;
0122315940999992000012421004+49420+130080FM-12+013599999V0209999C000012200019N0100001N1-03791-04031102921ADDGA1001+999999999GF100991001001999999001001MD1710111+9999REMSYN054AAXX  24211 31594 42960 00000 11379 21403 40292 57011;
0253315940999992000012500004+49420+130080FM-12+013599999V0200501N003012200019N0040001N1-03521-03741102871ADDAA199000091AJ100329199999999AY101061AY201061GA1001+999999999GF100991001001999999001001IA1239KA1120N-03991MA1999999100901MD1510021+9999MW1101REMSYN082AAXX  25001 31594 31996 00503 11352 21374 30090 40287 55002 71000 333 21399 47032;EQDQ01  00002PRCP99
0122315940999992000012503004+49420+130080FM-12+013599999V0203001N002012200019N0100001N1-02931-03241102811ADDGA1001+999999999GF100991001001999999001001MD1810011+9999REMSYN054AAXX  25031 31594 42997 03002 11293 21324 40281 58001;
0122315940999992000012506004+49420+130080FM-12+013599999V0203401N004012200019N0200001N1-02461-02771102771ADDGA1001+999999999GF100991001001999999001001MD1610011+9999REMSYN054AAXX  25061 31594 42998 03404 11246 21277 40277 56001;
0122315940999992000012509004+49420+130080FM-12+013599999V0203501N003012200019N0220001N1-02641-02881102861ADDGA1001+999999999GF100991001001999999001001MD1310081+9999REMSYN054AAXX  25091 31594 42972 03503 11264 21288 40286 53008;
0196315940999992000012512004+49420+130080FM-12+013599999V0203601N004012200019N0210001N1-02661-02771102951ADDAA199000091GA1001+999999999GF100991001001999999001001KA1999M-02351MA1999999101041MD1210081+9999REMSYN070AAXX  25121 31594 32971 03604 11266 21277 30104 40295 52008 333 11235;EQDQ01  00002PRCP99
0112315940999992000012515004+49420+130080FM-12+013599999V0203401N003019999999N0230001N1-02771-02881103021ADDGF106991001001999999001011MD1210061+9999REMSYN060AAXX  25151 31594 42973 63403 11277 21288 40302 52006 80001;
0122315940999992000012518004+49420+130080FM-12+013599999V0209999C000012200019N0220001N1-02761-02931103081ADDGA1001+999999999GF100991001001999999001001MD1210061+9999REMSYN054AAXX  25181 31594 42972 00000 11276 21293 40308 52006;
0122315940999992000012521004+49420+130080FM-12+013599999V0200901N001012200019N0200001N1-03501-03671103281ADDGA1001+999999999GF100991001001999999001001MD1210141+9999REMSYN054AAXX  25211 31594 42970 00901 11350 21367 40328 52014;
0225315940999992000012600004+49420+130080FM-12+013599999V0209999C000012200019N0100001N1-03481-03641103441ADDAA199000091AJ100329199999999GA1001+999999999GF100991001001999999001001IA1239KA1120N-03641MA1999999101461MD1210161+9999REMSYN076AAXX  26001 31594 32997 00000 11348 21364 30146 40344 52016 333 21364 47032;EQDQ01  00002PRCP99
0122315940999992000012603004+49420+130080FM-12+013599999V0200101N001012200019N0100001N1-02791-03031103331ADDGA1001+999999999GF100991001001999999001001MD1710061+9999REMSYN054AAXX  26031 31594 42997 00101 11279 21303 40333 57006;
0122315940999992000012606004+49420+130080FM-12+013599999V0203101N001012200019N0100001N1-02101-02501103211ADDGA1001+999999999GF100991001001999999001001MD1710061+9999REMSYN054AAXX  26061 31594 42997 03101 11210 21250 40321 57006;
0122315940999992000012609004+49420+130080FM-12+013599999V0201701N001012200019N0150001N1-02531-02841103271ADDGA1001+999999999GF100991001001999999001001MD1310031+9999REMSYN054AAXX  26091 31594 42965 01701 11253 21284 40327 53003;
0196315940999992000012612004+49420+130080FM-12+013599999V0201501N002012200019N0180001N1-02531-02771103241ADDAA199000091GA1001+999999999GF100991001001999999001001KA1999M-02001MA1999999101341MD1810031+9999REMSYN070AAXX  26121 31594 32968 01502 11253 21277 30134 40324 58003 333 11200;EQDQ01  00002PRCP99
0122315940999992000012615004+49420+130080FM-12+013599999V0209999C000012200019N0160001N1-03201-03371103161ADDGA1001+999999999GF100991001001999999001001MD1710131+9999REMSYN054AAXX  26151 31594 42966 00000 11320 21337 40316 57013;
0122315940999992000012618004+49420+130080FM-12+013599999V0209999C000012200019N0140001N1-03171-03341103041ADDGA1001+999999999GF100991001001999999001001MD1710121+9999REMSYN054AAXX  26181 31594 42964 00000 11317 21334 40304 57012;
0122315940999992000012621004+49420+130080FM-12+013599999V0201401N002012200019N0150001N1-03311-03471102901ADDGA1001+999999999GF100991001001999999001001MD1710151+9999REMSYN054AAXX  26211 31594 42965 01402 11331 21347 40290 57015;
0225315940999992000012700004+49420+130080FM-12+013599999V0201301N001012200019N0200001N1-03261-03421102861ADDAA199000091AJ100319199999999GA1001+999999999GF100991001001999999001001IA1239KA1120N-03381MA1999999100901MD1710041+9999REMSYN076AAXX  27001 31594 32998 01301 11326 21342 30090 40286 57004 333 21338 47031;EQDQ01  00002PRCP99
0122315940999992000012703004+49420+130080FM-12+013599999V0201401N002012200019N0200001N1-02551-02801102721ADDGA1001+999999999GF100991001001999999001001MD1710071+9999REMSYN054AAXX  27031 31594 42998 01402 11255 21280 40272 57007;
0122315940999992000012706004+49420+130080FM-12+013599999V0203601N003012200019N0200001N1-01711-02131102561ADDGA1001+999999999GF100991001001999999001001MD1710101+9999REMSYN054AAXX  27061 31594 42998 03603 11171 21213 40256 57010;
0122315940999992000012709004+49420+130080FM-12+013599999V0203501N002012200019N0220001N1-02271-02671102531ADDGA1001+999999999GF100991001001999999001001MD1710071+9999REMSYN054AAXX  27091 31594 42972 03502 11227 21267 40253 57007;
0196315940999992000012712004+49420+130080FM-12+013599999V0209999C000012200019N0200001N1-02351-02601102711ADDAA199000091GA1001+999999999GF100991001001999999001001KA1999M-01651MA1999999100831MD1310171+9999REMSYN070AAXX  27121 31594 32970 00000 11235 21260 30083 40271 53017 333 11165;EQDQ01  00002PRCP99
0122315940999992000012718004+49420+130080FM-12+013599999V0201301N001012200019N0170001N1-02721-02901102811ADDGA1001+999999999GF100991001001999999001001MD1110021+9999REMSYN054AAXX  27181 31594 42967 01301 11272 21290 40281 51002;
0122315940999992000012721004+49420+130080FM-12+013599999V0201601N003012200019N0130001N1-02051-02241102751ADDGA1001+999999999GF100991001001999999001001MD1410001+9999REMSYN054AAXX  27211 31594 42963 01603 11205 21224 40275 54000;
0225315940999992000012800004+49420+130080FM-12+013599999V0201401N002012200019N0100001N1-02511-02691102801ADDAA199000091AJ100319199999999GA1001+999999999GF100991001001999999001001IA1239KA1120N-02941MA1999999100911MD1310011+9999REMSYN076AAXX  28001 31594 32997 01402 11251 21269 30091 40280 53001 333 21294 47031;EQDQ01  00002PRCP99
0122315940999992000012803004+49420+130080FM-12+013599999V0201601N003012200019N0100001N1-01471-01901102651ADDGA1001+999999999GF100991001001999999001001MD1810081+9999REMSYN054AAXX  28031 31594 42997 01603 11147 21190 40265 58008;
0122315940999992000012806004+49420+130080FM-12+013599999V0201701N002012200019N0100001N1-01271-01791102521ADDGA1001+999999999GF100991001001999999001001MD1710111+9999REMSYN054AAXX  28061 31594 42997 01702 11127 21179 40252 57011;
0122315940999992000012809004+49420+130080FM-12+013599999V0209999C000012200019N0110001N1-01751-02171102561ADDGA1001+999999999GF100991001001999999001001MD1310021+9999REMSYN054AAXX  28091 31594 42961 00000 11175 21217 40256 53002;
0224315940999992000012812004+49420+130080FM-12+013599999V0200601N002012200019N0050001N1-02101-02351102611ADDAA199000091AY101061AY201061GA1001+999999999GF100991001001999999001001KA1999M-01191MA1999999100751MD1110011+9999MW1101REMSYN076AAXX  28121 31594 31950 00602 11210 21235 30075 40261 51001 71000 333 11119;EQDQ01  00002PRCP99
0150315940999992000012815004+49420+130080FM-12+013599999V0200301N001012200019N0060001N1-02341-02521102721ADDAY101031AY201031GA1001+999999999GF100991001001999999001001MD1210091+9999MW1101REMSYN060AAXX  28151 31594 41956 00301 11234 21252 40272 52009 71000;
0122315940999992000012818004+49420+130080FM-12+013599999V0209999C000012200019N0120001N1-02671-02851102811ADDGA1001+999999999GF100991001001999999001001MD1210061+9999REMSYN054AAXX  28181 31594 42962 00000 11267 21285 40281 52006;
0112315940999992000012821004+49420+130080FM-12+013599999V0209999C000019999999N0100001N1-02891-03071102971ADDGF108991001001999999001011MD1210151+9999REMSYN060AAXX  28211 31594 42960 80000 11289 21307 40297 52015 80001;
0243315940999992000012900004+49420+130080FM-12+013599999V0200701N001019999999N0040001N1-02791-02901103101ADDAA199000091AJ100319199999999AY111061AY211061GF108991001001999999001071IA1239KA1120N-03041MA1999999101181MD1210131+9999MW1101REMSYN088AAXX  29001 31594 31996 80701 11279 21290 30118 40310 52013 71011 80007 333 21304 47031;EQDQ01  00002PRCP99
0140315940999992000012903004+49420+130080FM-12+013599999V0203501N003019999999N0040001N1-02261-02381103171ADDAY121031AY221031GF108991001001999999001071MD1110101+9999MW1101REMSYN066AAXX  29031 31594 41996 83503 11226 21238 40317 51010 71022 80007;
0140315940999992000012906004+49420+130080FM-12+013599999V0203201N002019999999N0040001N1-02091-02341103131ADDAY121061AY221061GF108991001001999999001071MD1810021+9999MW1101REMSYN066AAXX  29061 31594 41996 83202 11209 21234 40313 58002 71022 80007;
0140315940999992000012909004+49420+130080FM-12+013599999V0203601N002019999999N0050001N1-02401-02581103291ADDAY121031AY221031GF108991001001999999001071MD1310131+9999MW1101REMSYN066AAXX  29091 31594 41950 83602 11240 21258 40329 53013 71022 80007;
0220315940999992000012912004+49420+130080FM-12+013599999V0200101N002019999999N0040001N1-02561-02681103992ADDAA112000791AY171061AY221061GF108991001001999999001071KA1999M-02051MA1999999101481MD1210091+9999MW1711REMSYN088AAXX  29121 31594 11940 80102 11256 21268 30148 40399 52009 69902 77172 80007 333 11205;EQDQ01+103993APOSLP
0140315940999992000012915004+49420+130080FM-12+013599999V0209999C000012200019N0060001N1-02921-03031103441ADDAY171031AY211031GF102991001001999999001011MD1210031+9999MW1021REMSYN066AAXX  29151 31594 41956 20000 11292 21303 40344 52003 70271 80001;
0150315940999992000012918004+49420+130080FM-12+013599999V0201601N001012200019N0070001N1-03081-03251103471ADDAY171061AY211061GA1001+999999999GF100991001001999999001001MD1110011+9999MW1021REMSYN060AAXX  29181 31594 41957 01601 11308 21325 40347 51001 70271;
0112315940999992000012921004+49420+130080FM-12+013599999V0201901N001019999999N0050001N1-03211-03371103491ADDGF108991001001999999001011MD1310011+9999REMSYN060AAXX  29211 31594 42950 81901 11321 21337 40349 53001 80001;
0240315940999992000013000004+49420+130080FM-12+013599999V0209999C000012200019N0040001N1-03361-03531103581ADDAA100000791AJ100319199999999AY111061AY211061GA1001+999999999GF100991001001999999001001IA1239KA1120N-03391MA1999999101601MD1210071+9999MW1101REMSYN088AAXX  30001 31594 11996 00000 11336 21353 30160 40358 52007 69900 71011 333 21339 47031;
0150315940999992000013003004+49420+130080FM-12+013599999V0203401N001012200019N0040001N1-02681-02861103581ADDAY101031AY201031GA1001+999999999GF100991001001999999001001MD1210061+9999MW1101REMSYN060AAXX  30031 31594 41996 03401 11268 21286 40358 52006 71000;
0122315940999992000013006004+49420+130080FM-12+013599999V0203401N002012200019N0100001N1-02331-02801103421ADDGA1001+999999999GF100991001001999999001001MD1810141+9999REMSYN054AAXX  30061 31594 42997 03402 11233 21280 40342 58014;
0122315940999992000013009004+49420+130080FM-12+013599999V0203401N001012200019N0180001N1-02401-02721103521ADDGA1001+999999999GF100991001001999999001001MD1310101+9999REMSYN054AAXX  30091 31594 42968 03401 11240 21272 40352 53010;
0196315940999992000013012004+49420+130080FM-12+013599999V0200101N002012200019N0160001N1-02731-02851103561ADDAA199000091GA1001+999999999GF100991001001999999001001KA1999M-02171MA1999999101641MD1210021+9999REMSYN070AAXX  30121 31594 32966 00102 11273 21285 30164 40356 52002 333 11217;EQDQ01  00002PRCP99
0122315940999992000013015004+49420+130080FM-12+013599999V0200201N002012200019N0180001N1-02811-02921103511ADDGA1001+999999999GF100991001001999999001001MD1810061+9999REMSYN054AAXX  30151 31594 42968 00202 11281 21292 40351 58006;
0122315940999992000013018004+49420+130080FM-12+013599999V0209999C000012200019N0150001N1-03251-03421103511ADDGA1001+999999999GF100991001001999999001001MD1610041+9999REMSYN054AAXX  30181 31594 42965 00000 11325 21342 40351 56004;
0122315940999992000013021004+49420+130080FM-12+013599999V0209999C000012200019N0120001N1-03441-03611103431ADDGA1001+999999999GF100991001001999999001001MD1810091+9999REMSYN054AAXX  30211 31594 42962 00000 11344 21361 40343 58009;
0253315940999992000013100004+49420+130080FM-12+013599999V0209999C000012200019N0020001N1-03221-03391103431ADDAA199000091AJ100319199999999AY101061AY201061GA1001+999999999GF100991001001999999001001IA1239KA1120N-03581MA1999999101471MD1310021+9999MW1101REMSYN082AAXX  31001 31594 31995 00000 11322 21339 30147 40343 53002 71000 333 21358 47031;EQDQ01  00002PRCP99
0122315940999992000013103004+49420+130080FM-12+013599999V0209999C000012200019N0100001N1-02331-02511103331ADDGA1001+999999999GF100991001001999999001001MD1810031+9999REMSYN054AAXX  31031 31594 42997 00000 11233 21251 40333 58003;
0122315940999992000013106004+49420+130080FM-12+013599999V0203501N003012200019N0200001N1-01661-02081103021ADDGA1001+999999999GF100991001001999999001001MD1710241+9999REMSYN054AAXX  31061 31594 42998 03503 11166 21208 40302 57024;
0122315940999992000013109004+49420+130080FM-12+013599999V0200201N001012200019N0200001N1-01741-02151102961ADDGA1001+999999999GF100991001001999999001001MD1710071+9999REMSYN054AAXX  31091 31594 42970 00201 11174 21215 40296 57007;
0196315940999992000013112004+49420+130080FM-12+013599999V0201501N002012200019N0190001N1-02231-02551102921ADDAA199000091GA1001+999999999GF100991001001999999001001KA1999M-01521MA1999999101051MD1710081+9999REMSYN070AAXX  31121 31594 32969 01502 11223 21255 30105 40292 57008 333 11152;EQDQ01  00002PRCP99
0122315940999992000013115004+49420+130080FM-12+013599999V0201601N002012200019N0170001N1-02321-02641102821ADDGA1001+999999999GF100991001001999999001001MD1710111+9999REMSYN054AAXX  31151 31594 42967 01602 11232 21264 40282 57011;
0122315940999992000013118004+49420+130080FM-12+013599999V0201301N002012200019N0170001N1-02071-02321102711ADDGA1001+999999999GF100991001001999999001001MD1710091+9999REMSYN054AAXX  31181 31594 42967 01302 11207 21232 40271 57009;
0122315940999992000013121004+49420+130080FM-12+013599999V0201401N002012200019N0200001N1-02041-02291102581ADDGA1001+999999999GF100991001001999999001001MD1710111+9999REMSYN054AAXX  31211 31594 42970 01402 11204 21229 40258 57011;
0225315940999992000020100004+49420+130080FM-12+013599999V0201401N002012200019N0100001N1-01971-02231102661ADDAA199000091AJ100319199999999GA1001+999999999GF100991001001999999001001IA1239KA1120N-02681MA1999999100811MD1310071+9999REMSYN076AAXX  01001 31594 32997 01402 11197 21223 30081 40266 53007 333 21268 47031;EQDQ01  00002PRCP99
0122315940999992000020103004+49420+130080FM-12+013599999V0201701N001012200019N0100001N1-01511-01931102601ADDGA1001+999999999GF100991001001999999001001MD1810031+9999REMSYN054AAXX  01031 31594 42997 01701 11151 21193 40260 58003;
0122315940999992000020106004+49420+130080FM-12+013599999V0203501N002012200019N0200001N1-01191-01811102431ADDGA1001+999999999GF100991001001999999001001MD1710141+9999REMSYN054AAXX  01061 31594 42998 03502 11119 21181 40243 57014;
0122315940999992000020109004+49420+130080FM-12+013599999V0209999C000012200019N0200001N1-01551-01971102471ADDGA1001+999999999GF100991001001999999001001MD1310021+9999REMSYN054AAXX  01091 31594 42998 00000 11155 21197 40247 53002;
0196315940999992000020112004+49420+130080FM-12+013599999V0209999C000012200019N0160001N1-02261-02441102531ADDAA199000091GA1001+999999999GF100991001001999999001001KA1999M-01101MA1999999100661MD1410001+9999REMSYN070AAXX  01121 31594 32966 00000 11226 21244 30066 40253 54000 333 11110;EQDQ01  00002PRCP99
0122315940999992000020115004+49420+130080FM-12+013599999V0209999C000012200019N0140001N1-02351-02531102591ADDGA1001+999999999GF100991001001999999001001MD1310061+9999REMSYN054AAXX  01151 31594 42964 00000 11235 21253 40259 53006;
0122315940999992000020118004+49420+130080FM-12+013599999V0209999C000012200019N0170001N1-02561-02741102631ADDGA1001+999999999GF100991001001999999001001MD1110021+9999REMSYN054AAXX  01181 31594 42967 00000 11256 21274 40263 51002;
0122315940999992000020121004+49420+130080FM-12+013599999V0201501N001012200019N0150001N1-02671-02791102691ADDGA1001+999999999GF100991001001999999001001MD1310041+9999REMSYN054AAXX  01211 31594 42965 01501 11267 21279 40269 53004;
0253315940999992000020200004+49420+130080FM-12+013599999V0201301N001012200019N0040001N1-02811-02921102701ADDAA199000091AJ100319199999999AY101061AY201061GA1001+999999999GF100991001001999999001001IA1239KA1120N-02821MA1999999100781MD1410001+9999MW1101REMSYN082AAXX  02001 31594 31996 01301 11281 21292 30078 40270 54000 71000 333 21282 47031;EQDQ01  00002PRCP99
0141315940999992000020203004+49420+130080FM-12+013599999V0201901N002012200019N0100001N1-01562-01901102591ADDGA1001+999999999GF100991001001999999001001MD1810011+9999REMSYN054AAXX  02031 31594 42997 01902 11156 21190 40259 58001;EQDQ01-001563ATOT  
0122315940999992000020206004+49420+130080FM-12+013599999V0200401N001012200019N0100001N1-01191-01711102491ADDGA1001+999999999GF100991001001999999001001MD1710071+9999REMSYN054AAXX  02061 31594 42997 00401 11119 21171 40249 57007;
0122315940999992000020209004+49420+130080FM-12+013599999V0209999C000012200019N0100001N1-01761-02101102541ADDGA1001+999999999GF100991001001999999001001MD1310011+9999REMSYN054AAXX  02091 31594 42997 00000 11176 21210 40254 53001;
0196315940999992000020212004+49420+130080FM-12+013599999V0200401N001012200019N0110001N1-02291-02481102631ADDAA199000091GA1001+999999999GF100991001001999999001001KA1999M-01151MA1999999100751MD1210041+9999REMSYN070AAXX  02121 31594 32961 00401 11229 21248 30075 40263 52004 333 11115;EQDQ01  00002PRCP99
0122315940999992000020215004+49420+130080FM-12+013599999V0203501N001012200019N0120001N1-02561-02701102661ADDGA1001+999999999GF100991001001999999001001MD1010011+9999REMSYN054AAXX  02151 31594 42962 03501 11256 21270 40266 50001;
0122315940999992000020218004+49420+130080FM-12+013599999V0209999C000012200019N0110001N1-02761-02871102681ADDGA1001+999999999GF100991001001999999001001MD1410001+9999REMSYN054AAXX  02181 31594 42961 00000 11276 21287 40268 54000;
0122315940999992000020221004+49420+130080FM-12+013599999V0209999C000012200019N0100001N1-02971-03151102671ADDGA1001+999999999GF100991001001999999001001MD1810021+9999REMSYN054AAXX  02211 31594 42960 00000 11297 21315 40267 58002;
0253315940999992000020300004+49420+130080FM-12+013599999V0209999C000012200019N0040001N1-03001-03171102691ADDAA199000091AJ100319199999999AY101061AY201061GA1001+999999999GF100991001001999999001001IA1239KA1120N-03021MA1999999100761MD1310021+9999MW1101REMSYN082AAXX  03001 31594 31996 00000 11300 21317 30076 40269 53002 71000 333 21302 47031;EQDQ01  00002PRCP99
0122315940999992000020303004+49420+130080FM-12+013599999V0202901N002012200019N0100001N1-02041-02371102641ADDGA1001+999999999GF100991001001999999001001MD1210031+9999REMSYN054AAXX  03031 31594 42997 02902 11204 21237 40264 52003;
0122315940999992000020306004+49420+130080FM-12+013599999V0202701N001012200019N0100001N1-01631-02051102441ADDGA1001+999999999GF100991001001999999001001MD1710161+9999REMSYN054AAXX  03061 31594 42997 02701 11163 21205 40244 57016;
0122315940999992000020309004+49420+130080FM-12+013599999V0201401N001012200019N0100001N1-02041-02291102561ADDGA1001+999999999GF100991001001999999001001MD1310091+9999REMSYN054AAXX  03091 31594 42997 01401 11204 21229 40256 53009;
0196315940999992000020312004+49420+130080FM-12+013599999V0201701N002012200019N0120001N1-02631-02801102631ADDAA199000091GA1001+999999999GF100991001001999999001001KA1999M-01591MA1999999100741MD1210021+9999REMSYN070AAXX  03121 31594 32962 01702 11263 21280 30074 40263 52002 333 11159;EQDQ01  00002PRCP99
0122315940999992000020315004+49420+130080FM-12+013599999V0209999C000012200019N0100001N1-02531-02641102711ADDGA1001+999999999GF100991001001999999001001MD1210081+9999REMSYN054AAXX  03151 31594 42960 00000 11253 21264 40271 52008;
0122315940999992000020318004+49420+130080FM-12+013599999V0201501N001012200019N0140001N1-02931-03051102781ADDGA1001+999999999GF100991001001999999001001MD1210041+9999REMSYN054AAXX  03181 31594 42964 01501 11293 21305 40278 52004;
0122315940999992000020321004+49420+130080FM-12+013599999V0201501N001012200019N0120001N1-02851-03021102781ADDGA1001+999999999GF100991001001999999001001MD1410001+9999REMSYN054AAXX  03211 31594 42962 01501 11285 21302 40278 54000;
0243315940999992000020400004+49420+130080FM-12+013599999V0209999C000012200019N0040001N1-02861-03031102911ADDAA199000091AJ100309199999999AY101061AY201061GF103991031001999999031001IA1239KA1120N-03041MA1999999100991MD1310131+9999MW1101REMSYN088AAXX  04001 31594 31996 30000 11286 21303 30099 40291 53013 71000 83030 333 21304 47030;EQDQ01  00002PRCP99
0112315940999992000020403004+49420+130080FM-12+013599999V0209999C000019999999N0100001N1-01921-02181102911ADDGF108991001001999999001011MD1210071+9999REMSYN060AAXX  04031 31594 42997 80000 11192 21218 40291 52007 80001;
0150315940999992000020406004+49420+130080FM-12+013599999V0203501N002012200019N0040001N1-01791-02121102761ADDAY101061AY201061GA1001+999999999GF100991001001999999001001MD1810141+9999MW1101REMSYN060AAXX  04061 31594 41996 03502 11179 21212 40276 58014 71000;
0150315940999992000020409004+49420+130080FM-12+013599999V0203201N001012200019N0040001N1-02091-02341102761ADDAY101031AY201031GA1001+999999999GF100991001001999999001001MD1610021+9999MW1101REMSYN060AAXX  04091 31594 41996 03201 11209 21234 40276 56002 71000;
0196315940999992000020412004+49420+130080FM-12+013599999V0200101N001012200019N0110001N1-02261-02441102911ADDAA199000091GA1001+999999999GF100991001001999999001001KA1999M-01701MA1999999101041MD1210141+9999REMSYN070AAXX  04121 31594 32961 00101 11226 21244 30104 40291 52014 333 11170;EQDQ01  00002PRCP99
0122315940999992000020415004+49420+130080FM-12+013599999V0201601N001012200019N0100001N1-02841-03021103021ADDGA1001+999999999GF100991001001999999001001MD1210061+9999REMSYN054AAXX  04151 31594 42960 01601 11284 21302 40302 52006;
0122315940999992000020418004+49420+130080FM-12+013599999V0201601N001012200019N0100001N1-03101-03381103151ADDGA1001+999999999GF100991001001999999001001MD1210111+9999REMSYN054AAXX  04181 31594 42960 01601 11310 21338 40315 52011;
0122315940999992000020421004+49420+130080FM-12+013599999V0209999C000012200019N0100001N1-03241-03421103151ADDGA1001+999999999GF100991001001999999001001MD1810011+9999REMSYN054AAXX  04211 31594 42960 00000 11324 21342 40315 58001;
0253315940999992000020500004+49420+130080FM-12+013599999V0209999C000012200019N0020001N1-03201-03371103221ADDAA199000091AJ100309199999999AY101061AY201061GA1001+999999999GF100991001001999999001001IA1239KA1120N-03331MA1999999101261MD1310061+9999MW1101REMSYN082AAXX  05001 31594 31995 00000 11320 21337 30126 40322 53006 71000 333 21333 47030;EQDQ01  00002PRCP99
0141315940999992000020503004+49420+130080FM-12+013599999V0209999C000012200019N0020001N1-02022-02281103161ADDGA1001+999999999GF100991001001999999001001MD1010041+9999REMSYN054AAXX  05031 31594 41995 00000 11202 21228 40316 50004;EQDQ01-002023ATOT  
0140315940999992000020506004+49420+130080FM-12+013599999V0203001N001019999999N0040001N1-01721-02141103011ADDAY111061AY211061GF105991001001999999001011MD1710121+9999MW1101REMSYN066AAXX  05061 31594 41996 53001 11172 21214 40301 57012 71011 80001;
0140315940999992000020509004+49420+130080FM-12+013599999V0209999C000019999999N0040001N1-02091-02421103021ADDAY121031AY221031GF108991001001999999001011MD1510021+9999MW1101REMSYN066AAXX  05091 31594 41996 80000 11209 21242 40302 55002 71022 80001;
0188315940999992000020512004+49420+130080FM-12+013599999V0203401N001012200019N0050001N1-02601-02771103021ADDAA199000091GA1001+999999999GF100991001001999999001001MA1999999101121MD1810041+9999REMSYN075AAXX  05121 31594 31950 03401 11260 21277 30112 40302 58004 1011 333 11159;EQDQ01  00002PRCP99
0150315940999992000020515004+49420+130080FM-12+013599999V0201501N001012200019N0060001N1-02781-02961102941ADDAY101031AY201031GA1001+999999999GF100991001001999999001001MD1710101+9999MW1101REMSYN060AAXX  05151 31594 41956 01501 11278 21296 40294 57010 71000;
0150315940999992000020518004+49420+130080FM-12+013599999V0200401N001012200019N0060001N1-02961-03131102941ADDAY101061AY201061GA1001+999999999GF100991001001999999001001MD1610011+9999MW1101REMSYN060AAXX  05181 31594 41956 00401 11296 21313 40294 56001 71000;
0150315940999992000020521004+49420+130080FM-12+013599999V0200101N002012200019N0050001N1-03231-03391102841ADDAY101031AY201031GA1001+999999999GF100991001001999999001001MD1810121+9999MW1101REMSYN060AAXX  05211 31594 41950 00102 11323 21339 40284 58012 71000;
0243315940999992000020600004+49420+130080FM-12+013599999V0209999C000019999999N0020001N1-03151-03321102801ADDAA199000091AJ100309199999999AY111061AY211061GF108991001001999999001011IA1239KA1120N-03331MA1999999100851MD1510041+9999MW1101REMSYN088AAXX  06001 31594 31995 80000 11315 21332 30085 40280 55004 71011 80001 333 21333 47030;EQDQ01  00002PRCP99
0140315940999992000020603004+49420+130080FM-12+013599999V0203401N002019999999N0040001N1-02351-02531102631ADDAY121031AY221031GF108991001001999999001011MD1810101+9999MW1101REMSYN066AAXX  06031 31594 41996 83402 11235 21253 40263 58010 71022 80001;
0140315940999992000020606004+49420+130080FM-12+013599999V0203401N004019999999N0040001N1-01901-02231102391ADDAY121061AY221061GF108991001001999999001071MD1710201+9999MW1101REMSYN066AAXX  06061 31594 41996 83404 11190 21223 40239 57020 71022 80007;
0112315940999992000020609004+49420+130080FM-12+013599999V0200201N003012200019N0100001N1-02111-02361102351ADDGF102991001001999999001011MD1710051+9999REMSYN060AAXX  06091 31594 42997 20203 11211 21236 40235 57005 80001;
0186315940999992000020612004+49420+130080FM-12+013599999V0203401N003012200019N0120001N1-02291-02481102371ADDAA199000091GF102991001001999999001011KA1999M-01791MA1999999100501MD1410001+9999REMSYN076AAXX  06121 31594 32962 23403 11229 21248 30050 40237 54000 80001 333 11179;EQDQ01  00002PRCP99
0122315940999992000020615004+49420+130080FM-12+013599999V0203301N004012200019N0150001N1-02361-02551102301ADDGA1001+999999999GF100991001001999999001001MD1810081+9999REMSYN054AAXX  06151 31594 42965 03304 11236 21255 40230 58008;
0122315940999992000020618004+49420+130080FM-12+013599999V0203501N003012200019N0160001N1-02521-02601102291ADDGA1001+999999999GF100991001001999999001001MD1610011+9999REMSYN054AAXX  06181 31594 42966 03503 11252 21260 40229 56001;
0122315940999992000020621004+49420+130080FM-12+013599999V0203501N002012200019N0140001N1-02741-02851102231ADDGA1001+999999999GF100991001001999999001001MD1710081+9999REMSYN054AAXX  06211 31594 42964 03502 11274 21285 40223 57008;
0215315940999992000020700004+49420+130080FM-12+013599999V0203601N003019999999N0100001N1-02881-03051102211ADDAA199000091AJ100309199999999GF108991001001999999001011IA1239KA1120N-02891MA1999999100291MD1710041+9999REMSYN082AAXX  07001 31594 32997 83603 11288 21305 30029 40221 57004 80001 333 21289 47030;EQDQ01  00002PRCP99
0099315940999992000020721004+49420+130080FM-12+013599999V0200301N060029999999N0110001N1-03031-03211101891ADDMD1810031+9999REMSYN054AAXX  07211 31594 42961 /0360 11303 21321 40189 58003;EQDQ01+006003WOSPD 
0099315940999992000020800004+49420+130080FM-12+013599999V0200301N060029999999N0110001N1-03031-03211101891ADDMD1810031+9999REMSYN054AAXX  08001 31594 42961 /0360 11303 21321 40189 58003;EQDQ01+006003WOSPD 
0122315940999992000020803004+49420+130080FM-12+013599999V0203401N001012200019N0200001N1-02531-02771101941ADDGA1001+999999999GF100991001001999999001001MD1110031+9999REMSYN054AAXX  08031 31594 42998 03401 11253 21277 40194 51003;
0112315940999992000020806004+49420+130080FM-12+013599999V0203401N002012200019N0200001N1-02391-02641101621ADDGF103991001001999999001011MD1710121+9999REMSYN060AAXX  08061 31594 42998 33402 11239 21264 40162 57012 80001;
0122315940999992000020821004+49420+130080FM-12+013599999V0209999C000012200019N0100001N1-03181-03341101701ADDGA1001+999999999GF100991001001999999001001MD1710021+9999REMSYN054AAXX  08211 31594 42960 00000 11318 21334 40170 57002;
0253315940999992000020900004+49420+130080FM-12+013599999V0209999C000012200019N0040001N1-03091-03251101721ADDAA199000091AJ100299199999999AY101061AY201061GA1001+999999999GF100991001001999999001001IA1239KA1120N-03291MA1999999099801MD1310031+9999MW1101REMSYN082AAXX  09001 31594 31996 00000 11309 21325 39980 40172 53003 71000 333 21329 47029;EQDQ01  00002PRCP99
0122315940999992000020903004+49420+130080FM-12+013599999V0202001N002012200019N0100001N1-02071-02321101561ADDGA1001+999999999GF100991001001999999001001MD1810071+9999REMSYN054AAXX  09031 31594 42997 02002 11207 21232 40156 58007;
0186315940999992000042612004+49420+130080FM-12+013599999V0209999C000019999999N0250001N1+00891+00381101181ADDAA199000091GF107991071051999999001001KA1999M+01341MA1999999099551MD1810071+9999REMSYN076AAXX  26121 31594 32975 70000 10089 20038 39955 40118 58007 87500 333 10134;EQDQ01  00002PRCP99
0131315940999992000042615004+49420+130080FM-12+013599999V02099999999992200019N0280001N1+00761+00151101201ADDGF101991999001999999031011MD1310011+9999REMSYN060AAXX  26151 31594 42978 15002 10076 20015 40120 53001 83031;EQDQ01+000032SCOTLC
0112315940999992000042618004+49420+130080FM-12+013599999V0201401N001019999999N0200001N1+00651+00091101291ADDGF107991071001999999051999MD1310021+9999REMSYN060AAXX  26181 31594 42970 71401 10065 20009 40129 53002 8705/;
0138315940999992000042621004+49420+130080FM-12+013599999V0201501N001010120019N0200001N1+00541+00051101261ADDGA1051+012009059GF108991051051012501031011MD1210031+9999REMSYN070AAXX  26211 31594 42698 81501 10054 20005 40126 52003 85531 333 85640;
0186315940999992000042700004+49420+130080FM-12+013599999V0202101N002019999999N0200001N1+00721+00091101321ADDAA199000091GF106991051001999999031011KA1999N+00471MA1999999099681MD1210071+9999REMSYN076AAXX  27001 31594 32998 62102 10072 20009 39968 40132 52007 85031 333 20047;EQDQ01  00002PRCP99
0122315940999992000042703004+49420+130080FM-12+013599999V0202001N003012200019N0200001N1+01191+00091101331ADDGA1001+999999999GF100991001001999999001001MD1110041+9999REMSYN054AAXX  27031 31594 42998 02003 10119 20009 40133 51004;
0112315940999992000042706004+49420+130080FM-12+013599999V0203501N004012200019N0500001N1+01701+00151100931ADDGF106991021021012501001011MD1810371+9999REMSYN060AAXX  27061 31594 42699 63504 10170 20015 40093 58037 82201;
0112315940999992000042709004+49420+130080FM-12+013599999V0202801N003012200019N0500001N1+01741+00091100731ADDGF102991011051012501001011MD1710201+9999REMSYN060AAXX  27091 31594 42699 22803 10174 20009 40073 57020 81501;
0186315940999992000042712004+49420+130080FM-12+013599999V0203601N002012200019N0140001N1+01121+00321100811ADDAA199000091GF101991011001999999031001KA1999M+01761MA1999999099201MD1310051+9999REMSYN076AAXX  27121 31594 32964 13602 10112 20032 39920 40081 53005 81030 333 10176;EQDQ01  00002PRCP99
0122315940999992000042715004+49420+130080FM-12+013599999V0200401N002012200019N0160001N1+00711+00231100861ADDGA1001+999999999GF100991001001999999001001MD1210021+9999REMSYN054AAXX  27151 31594 42966 00402 10071 20023 40086 52002;
0122315940999992000042718004+49420+130080FM-12+013599999V0200201N003012200019N0170001N1+00701+00111100881ADDGA1001+999999999GF100991001001999999001001MD1210021+9999REMSYN054AAXX  27181 31594 42967 00203 10070 20011 40088 52002;
0106315940999992000042721004+49420+130080FM-12+013599999V0201701N002019999999N0200001N1+00251+00041100961ADDGF105991999999999999999999MD1210051+9999REMSYN054AAXX  27211 31594 42998 51702 10025 20004 40096 52005;
0186315940999992000042800004+49420+130080FM-12+013599999V0203101N002019999999N0200001N1+01041+00271100921ADDAA199000091GF106991061001999999031001KA1999N+00101MA1999999099301MD1010011+9999REMSYN076AAXX  28001 31594 32998 63102 10104 20027 39930 40092 50001 86030 333 20010;EQDQ01  00002PRCP99
0112315940999992000042803004+49420+130080FM-12+013599999V0203601N004012200019N0200001N1+01831+00211100791ADDGF102991011021008001031001MD1710081+9999REMSYN060AAXX  28031 31594 42598 23604 10183 20021 40079 57008 81230;
0112315940999992000042806004+49420+130080FM-12+013599999V0203501N004012200019N0200001N1+02001+00061100621ADDGF102991021021012501001001MD1710161+9999REMSYN060AAXX  28061 31594 42698 23504 10200 20006 40062 57016 82200;
0112315940999992000042809004+49420+130080FM-12+013599999V0203601N004012200019N0200001N1+01911+00111100561ADDGF103991001001999999001011MD1510071+9999REMSYN060AAXX  28091 31594 42998 33604 10191 20011 40056 55007 80001;
0186315940999992000042812004+49420+130080FM-12+013599999V0200401N002019999999N0110001N1+01381+00191100651ADDAA199000091GF105991001001999999001011KA1999M+02061MA1999999099051MD1210061+9999REMSYN076AAXX  28121 31594 32961 50402 10138 20019 39905 40065 52006 80001 333 10206;EQDQ01  00002PRCP99
0112315940999992000042815004+49420+130080FM-12+013599999V0209999C000012200019N0130001N1+01021+00611100711ADDGF102991001001999999001011MD1110041+9999REMSYN060AAXX  28151 31594 42963 20000 10102 20061 40071 51004 80001;
0122315940999992000042818004+49420+130080FM-12+013599999V0201501N002012200019N0170001N1+00751+00481100851ADDGA1001+999999999GF100991001001999999001001MD1210131+9999REMSYN054AAXX  28181 31594 42967 01502 10075 20048 40085 52013;
0144315940999992000042821004+49420+130080FM-12+013599999V0201401N002012200019N0040001N1+00711+00191999999ADDAY101031AY201031GA1001+999999999GF100991001001999999001001MD1210051+9999MW1041REMSYN054AAXX  28211 31594 41996 01402 10071 20019 52005 70400;
0224315940999992000042900004+49420+130080FM-12+013599999V0201801N003012200019N0040001N1+01301+00231100891ADDAA199000091AY101061AY201061GA1001+999999999GF100991001001999999001001KA1999N+00451MA1999999099281MD1010011+9999MW1041REMSYN076AAXX  29001 31594 31996 01803 10130 20023 39928 40089 50001 70400 333 20045;EQDQ01  00002PRCP99
0122315940999992000042903004+49420+130080FM-12+013599999V0201701N003012200019N0100001N1+01961+00131100721ADDGA1001+999999999GF100991001001999999001001MD1710131+9999REMSYN054AAXX  29031 31594 42997 01703 10196 20013 40072 57013;
0160315940999992000042906004+49420+130080FM-12+013599999V0201801N005012200019N0040001N1+02181-00051100491ADDAY101061AY201061GA1001+999999999GF100991001001999999001001MD1710211+9999MW1041REMSYN070AAXX  29061 31594 41996 01805 10218 21005 40049 57021 70400 333 91111;
0147315940999992000042909004+49420+130080FM-12+013599999V0201701N999992200019N0100001N1+02191+00021100271ADDGF102991001001999999001011MD1710211+9999REMSYN076AAXX  29091 31594 42997 21786 10219 20002 40027 57021 80001 333 91010 91110;EQDQ01+008603WOSPD 
0192315940999992000042912004+49420+130080FM-12+013599999V0201601N005019999999N0120001N1+01581-00021100451ADDAA199000091GF108991031001999999051011KA1120M+02311MA1999999098861MD1310131+9999REMSYN082AAXX  29121 31594 32962 81605 10158 21002 39886 40045 53013 83051 333 10231 91110;EQDQ01  00002PRCP99
0112315940999992000042915004+49420+130080FM-12+013599999V0201501N004019999999N0130001N1+01581-00051100481ADDGF108991001001999999001011MD1110031+9999REMSYN060AAXX  29151 31594 42963 81504 10158 21005 40048 51003 80001;
0112315940999992000042918004+49420+130080FM-12+013599999V0201301N004012200019N0120001N1+01421+00021100481ADDGF108991021051012501001011MD1510011+9999REMSYN060AAXX  29181 31594 42662 81304 10142 20002 40048 55001 82501;
0166315940999992000042921004+49420+130080FM-12+013599999V0201401N003010102019N0100001N1+01351+00111100561ADDAY191031AY281031GA1051+010209099GF108991051091012501001071MD1210081+9999MW1171REMSYN076AAXX  29211 31594 41697 81403 10135 20011 40056 52008 71798 85907 333 85934;
0201315940999992000043000004+49420+130080FM-12+013599999V0201701N002019999999N0100001N1+01621+00341100721ADDAA112000391AY191061AY281061GF108991021001999999051071KA1999N+01071MA1999999099141MD1210181+9999MW1021REMSYN088AAXX  30001 31594 11997 81702 10162 20034 39914 40072 52018 69932 70298 82057 333 20107;
0112315940999992000043003004+49420+130080FM-12+013599999V0201201N002019999999N0100001N1+01991+00411100691ADDGF108991001001999999001071MD1810011+9999REMSYN060AAXX  30031 31594 42997 81202 10199 20041 40069 58001 80007;
0106315940999992000043006004+49420+130080FM-12+013599999V0203101N002019999999N0100001N1+02231+99999100461ADDGF108991021001999999031071MD1710221+9999REMSYN054AAXX  30061 31594 42997 83102 10223 40046 57022 82037;
0112315940999992000043009004+49420+130080FM-12+013599999V0202801N004019999999N0100001N1+02181+00511100451ADDGF108991031001999999031071MD1710011+9999REMSYN060AAXX  30091 31594 42997 82804 10218 20051 40045 57001 83037;
0186315940999992000043012004+49420+130080FM-12+013599999V0203201N001019999999N0140001N1+01331+00921100731ADDAA199000091GF108991001001999999001011KA1999M+02361MA1999999099131MD1310231+9999REMSYN076AAXX  30121 31594 32964 83201 10133 20092 39913 40073 53023 80001 333 10236;EQDQ01  00002PRCP99
0112315940999992000043015004+49420+130080FM-12+013599999V0203201N001019999999N0120001N1+01081+00841100851ADDGF108991001001999999001011MD1210111+9999REMSYN060AAXX  30151 31594 42962 83201 10108 20084 40085 52011 80001;
0112315940999992000043018004+49420+130080FM-12+013599999V0201501N001012200019N0120001N1+00831+00771100941ADDGF102991001001999999001011MD1210071+9999REMSYN060AAXX  30181 31594 42962 21501 10083 20077 40094 52007 80001;
0140315940999992000043021004+49420+130080FM-12+013599999V0209999C000019999999N0020001N1+00541+00451101121ADDAY111031AY211031GF108991021001999999031011MD1210161+9999MW1101REMSYN066AAXX  30211 31594 41995 80000 10054 20045 40112 52016 71011 82031;
0214315940999992000050100004+49420+130080FM-12+013599999V0201601N001019999999N0020001N1+01051+00801101221ADDAA199000091AY111061AY211061GF108991001001999999001071KA1999N+00511MA1999999099601MD1210131+9999MW1101REMSYN082AAXX  01001 31594 31995 81601 10105 20080 39960 40122 52013 71011 80007 333 20051;EQDQ01  00002PRCP99
0112315940999992000050103004+49420+130080FM-12+013599999V0201301N002019999999N0200001N1+01831+01181101281ADDGF108991001001999999001011MD1210101+9999REMSYN060AAXX  01031 31594 42998 81302 10183 20118 40128 52010 80001;
0112315940999992000050106004+49420+130080FM-12+013599999V0202901N003019999999N0200001N1+02241+00711100971ADDGF108991021001012501001071MD1810281+9999REMSYN060AAXX  01061 31594 42698 82903 10224 20071 40097 58028 82007;
0150315940999992000050109004+49420+130080FM-12+013599999V0200601N003012200019N0200001N1+02181+00321100921ADDAY191031AY221031GF106991031091008001001011MD1610061+9999MW1021REMSYN076AAXX  01091 31594 41598 60603 10218 20032 40092 56006 70292 83901 333 91110;
0193315940999992000050112004+49420+130080FM-12+013599999V0203501N001019999999N0160001N1+01751+00841101011ADDAA199000091AY191061AY221061GF106991021001999999031011KA1999M+02361MD1310071+9999MW1021REMSYN076AAXX  01121 31594 31966 63501 10175 20084 40101 53007 70292 82031 333 10236;EQDQ01  00002PRCP99
0112315940999992000050115004+49420+130080FM-12+013599999V0201501N001012200019N0140001N1+01261+00651101091ADDGF102991001001999999001011MD1210051+9999REMSYN060AAXX  01151 31594 42964 21501 10126 20065 40109 52005 80001;
0122315940999992000050118004+49420+130080FM-12+013599999V0200201N001012200019N0120001N1+00701+00461101181ADDGA1001+999999999GF100991001001999999001001MD1210061+9999REMSYN054AAXX  01181 31594 42962 00201 10070 20046 40118 52006;
0111315940999992000050121004+49420+130080FM-12+013599999V0201101N002012200019N0040001N1+00591+00431101201ADDGF103991011001999999031011MD1110011+9999REMSYN059AAXX  01211 31594 42996 31102 10059 20043 4012051001 81031;
0224315940999992000050200004+49420+130080FM-12+013599999V0201701N001012200019N0040001N1+01411+00671101201ADDAA199000091AY101061AY201061GA1001+999999999GF100991001001999999001001KA1999N+00481MA1999999099601MD1210051+9999MW1101REMSYN076AAXX  02001 31594 31996 01701 10141 20067 39960 40120 52005 71000 333 20048;EQDQ01  00002PRCP99
0122315940999992000050203004+49420+130080FM-12+013599999V0202401N001012200019N0100001N1+02121+00851101021ADDGA1001+999999999GF100991001001999999001001MD1710141+9999REMSYN054AAXX  02031 31594 42997 02401 10212 20085 40102 57014;
0112315940999992000050206004+49420+130080FM-12+013599999V0202401N002012200019N0100001N1+02541+00671100731ADDGF102991001001999999001031MD1710261+9999REMSYN060AAXX  02061 31594 42997 22402 10254 20067 40073 57026 80003;
0112315940999992000050209004+49420+130080FM-12+013599999V0202701N001012200019N0100001N1+02501+00511100581ADDGF101991011001999999031001MD1710161+9999REMSYN060AAXX  02091 31594 42997 12701 10250 20051 40058 57016 81030;
0214315940999992000050212004+49420+130080FM-12+013599999V0201001N002012200019N0060001N1+01881+00671100591ADDAA199000091AY101061AY201061GF102991021001999999031001KA1999M+02601MA1999999099021MD1610021+9999MW1041REMSYN082AAXX  02121 31594 31956 21002 10188 20067 39902 40059 56002 70400 82030 333 10260;EQDQ01  00002PRCP99
0150315940999992000050215004+49420+130080FM-12+013599999V0209999C000012200019N0060001N1+01311+00671100621ADDAY101031AY201031GA1001+999999999GF100991001001999999001001MD1410001+9999MW1041REMSYN060AAXX  02151 31594 41956 00000 10131 20067 40062 54000 70400;
0150315940999992000050218004+49420+130080FM-12+013599999V0201101N002012200019N0060001N1+00931+00711100641ADDAY101061AY201061GA1001+999999999GF100991001001999999001001MD1410001+9999MW1041REMSYN060AAXX  02181 31594 41956 01102 10093 20071 40064 54000 70400;
0112315940999992000050221004+49420+130080FM-12+013599999V0201301N003019999999N0100001N1+01181+00681100601ADDGF106991011001999999031011MD1810031+9999REMSYN060AAXX  02211 31594 42997 61303 10118 20068 40060 58003 81031;
0209315940999992000050300004+49420+130080FM-12+013599999V0201401N006019999999N0100001N1+01701+00381100511ADDAA199000091GF108991021001999999031071KA1120N+00891MA1999999098931MD1810061+9999OA140101001REMSYN088AAXX  03001 31594 32997 81406 10170 20038 39893 40051 58006 82037 333 20089 91010 91110;EQDQ01  00002PRCP99
0174315940999992000050303004+49420+130080FM-12+013599999V0202901N008010360019N0100001N1+02131+99999100441ADDGF108991021091012501031071MD1710051+9999OA140101201REMSYN076AAXX  03031 31594 42697 82908 10213 2018/ 40044 57005 82937 333 91012 91113;EQDQ01+001803ATOD  Q02 +01803ATOD  
0161315940999992000050306004+49420+130080FM-12+013599999V0203101N007010096019N0100001N1+01431+00561100581ADDGA1061+009609099GF108991061091008001051999MD1310101+9999OA140101201REMSYN082AAXX  03061 31594 42597 83107 10143 20056 40058 53010 8695/ 333 86932 91012 91113;
0144315940999992000050309004+49420+130080FM-12+013599999V0203601N004010087019N0200001N1+01091+00551100781ADDGA1071+008709099GF108991071091008001051999MD1210191+9999REMSYN076AAXX  03091 31594 42598 83604 10109 20055 40078 52019 8795/ 333 87929 91112;
0208315940999992000050312004+49420+130080FM-12+013599999V0200701N002010090019N0180001N1+00971+00301101021ADDAA199000091GA1081+009009099GF108991081091999999999999KA1120M+02291MA1999999099401MD1210231+9999REMSYN082AAXX  03121 31594 32968 80702 10097 20030 39940 40102 52023 889// 333 10229 88930;EQDQ01  00002PRCP99
0112315940999992000050315004+49420+130080FM-12+013599999V0203601N002010360019N0150001N1+00791+00481101151ADDGF108991031051012501071999MD1210111+9999REMSYN060AAXX  03151 31594 42665 83602 10079 20048 40115 52011 8357/;
0112315940999992000050318004+49420+130080FM-12+013599999V0200201N002019999999N0140001N1+00471+00301101251ADDGF108991021001999999031011MD1210091+9999REMSYN060AAXX  03181 31594 42964 80202 10047 20030 40125 52009 82031;
0112315940999992000050321004+49420+130080FM-12+013599999V0200301N002019999999N0200001N1+00501-00061101341ADDGF108991031001999999051011MD1210091+9999REMSYN060AAXX  03211 31594 42998 80302 10050 21006 40134 52009 83051;
0209315940999992000050400004+49420+130080FM-12+013599999V0200701N006019999999N0200001N1+01051-00781101451ADDAA199000091GF108991021001999999031011KA1120N+00351MA1999999099821MD1210131+9999OA140101101REMSYN088AAXX  04001 31594 32998 80706 10105 21078 39982 40145 52013 82031 333 20035 91011 91113;EQDQ01  00002PRCP99
0122315940999992000050403004+49420+130080FM-12+013599999V0200401N005019999999N0200001N1+01291-00671101511ADDGF108991001001999999001071MD1210071+9999REMSYN070AAXX  04031 31594 42998 80405 10129 21067 40151 52007 80007 333 91111;
0122315940999992000050406004+49420+130080FM-12+013599999V0200201N007019999999N0200001N1+01201-01071101541ADDGF108991081001999999071999MD1210021+9999REMSYN070AAXX  04061 31594 42998 80207 10120 21107 40154 52002 8807/ 333 91111;
0122315940999992000050409004+49420+130080FM-12+013599999V0200201N005019999999N0200001N1+01081-00781101611ADDGF108991021091999999071999MD1210071+9999REMSYN070AAXX  04091 31594 42998 80205 10108 21078 40161 52007 8297/ 333 91111;
0224315940999992000050412004+49420+130080FM-12+013599999V0203501N003010084019N0180001N1+00801-00861999999ADDAA199000091GA1071+008409099GF107991071091008001001001KA1120M+01411MA1999999100091MD1310111+9999REMSYN082AAXX  04121 31594 32568 73503 10080 21086 30009 40074 53011 87900 333 10141 87928;EQDQ01+100743APOSLPQ02  00002PRCP99
0112315940999992000050415004+49420+130080FM-12+013599999V0203501N002010360019N0200001N1+00601-00801101771ADDGF108991031051012501031011MD1010021+9999REMSYN060AAXX  04151 31594 42670 83502 10060 21080 40177 50002 83531;
0138315940999992000050418004+49420+130080FM-12+013599999V0200501N003010081019N0180001N1+00651-01071101781ADDGA1061+008109059GF108991061051008001051999MD1310011+9999REMSYN070AAXX  04181 31594 42568 80503 10065 21107 40178 53001 8655/ 333 86627;
0112315940999992000050421004+49420+130080FM-12+013599999V0200501N003019999999N0200001N1+00511-01151101811ADDGF108991031001999999031011MD1210021+9999REMSYN060AAXX  04211 31594 42998 80503 10051 21115 40181 52002 83031;
0186315940999992000050500004+49420+130080FM-12+013599999V0200401N004019999999N0200001N1+00991-01071101851ADDAA199000091GF108991021001999999031011KA1999N+00441MA1999999100211MD1210071+9999REMSYN076AAXX  05001 31594 32998 80404 10099 21107 30021 40185 52007 82031 333 20044;EQDQ01  00002PRCP99
0112315940999992000050503004+49420+130080FM-12+013599999V0200501N005012200019N0200001N1+01361-00821101861ADDGF102991001001999999001011MD1210031+9999REMSYN060AAXX  05031 31594 42998 20505 10136 21082 40186 52003 80001;
0112315940999992000050506004+49420+130080FM-12+013599999V0203201N005012200019N0200001N1+01741-00711101531ADDGF102991001001999999001011MD1810301+9999REMSYN060AAXX  05061 31594 42998 23205 10174 21071 40153 58030 80001;
0132315940999992000050509004+49420+130080FM-12+013599999V0203201N005012200019N0200001N1+01671-00331101441ADDGA1001+999999999GF100991001001999999001001MD1710101+9999REMSYN064AAXX  05091 31594 42998 03205 10167 21033 40144 57010 333 91110;
0186315940999992000050512004+49420+130080FM-12+013599999V0203201N002012200019N0240001N1+00911-00501101601ADDAA199000091GF103991011001999999031011KA1999M+01791MA1999999099961MD1310121+9999REMSYN076AAXX  05121 31594 32974 33202 10091 21050 39996 40160 53012 81031 333 10179;EQDQ01  00002PRCP99
0122315940999992000050515004+49420+130080FM-12+013599999V0201601N002012200019N0250001N1+00581+00181101601ADDGA1001+999999999GF100991001001999999001001MD1810021+9999REMSYN054AAXX  05151 31594 42975 01602 10058 20018 40160 58002;
0116315940999992000050518004+49420+130080FM-12+013599999V0201601N003012200019N0210001N1+00491+99999101581ADDGA1001+999999999GF100991001001999999001001MD1710021+9999REMSYN048AAXX  05181 31594 42971 01603 10049 40158 57002;
0147315940999992000050521004+49420+130080FM-12+013599999V0201601N003019999999N0100001N1+00291+00051999999ADDGF108991001001999999001011MD1011542+9999REMSYN060AAXX  05211 31594 42997 81603 10029 20005 49987 50154 80001;EQDQ01+099873APOSLPQ02+001542APC3  
0186315940999992000050600004+49420+130080FM-12+013599999V0201801N005019999999N0200001N1+00991-00051101371ADDAA199000091GF108991001001999999001011KA1999N+00251MA1999999099741MD1710131+9999REMSYN076AAXX  06001 31594 32998 81805 10099 21005 39974 40137 57013 80001 333 20025;EQDQ01  00002PRCP99
0122315940999992000050603004+49420+130080FM-12+013599999V0202001N006019999999N0200001N1+01691-00251101161ADDGF108991001001999999001011MD1710171+9999REMSYN070AAXX  06031 31594 42998 82006 10169 21025 40116 57017 80001 333 91110;
0122315940999992000050606004+49420+130080FM-12+013599999V0202301N006019999999N0200001N1+02261-00121100851ADDGF108991001001999999001081MD1710281+9999REMSYN070AAXX  06061 31594 42998 82306 10226 21012 40085 57028 80008 333 91110;
0122315940999992000050609004+49420+130080FM-12+013599999V0202401N004019999999N0200001N1+02161+00091100751ADDGF108991001001999999001071MD1610101+9999REMSYN070AAXX  06091 31594 42998 82404 10216 20009 40075 56010 80007 333 91111;
0186315940999992000050612004+49420+130080FM-12+013599999V0202401N005019999999N0200001N1+01531+00271100841ADDAA199000091GF108991001001999999001071KA1999M+02361MA1999999099251MD1310061+9999REMSYN076AAXX  06121 31594 32970 82405 10153 20027 39925 40084 53006 80007 333 10236;EQDQ01  00002PRCP99
0112315940999992000050615004+49420+130080FM-12+013599999V0202201N004019999999N0180001N1+01311+00431100871ADDGF108991081001999999071999MD1110011+9999REMSYN060AAXX  06151 31594 42968 82204 10131 20043 40087 51001 8807/;
0112315940999992000050618004+49420+130080FM-12+013599999V0201601N003019999999N0150001N1+01151+00171101101ADDGF108991001001999999001071MD1210221+9999REMSYN060AAXX  06181 31594 42965 81603 10115 20017 40110 52022 80007;
0112315940999992000050621004+49420+130080FM-12+013599999V0201701N004019999999N0200001N1+00941+00291101011ADDGF108991001001999999001011MD1810101+9999REMSYN060AAXX  06211 31594 42998 81704 10094 20029 40101 58010 80001;
0167315940999992000050700004+49420+130080FM-12+013599999V0201701N006019999999N0200001N1+01671+00381100801ADDAA199000091GF108991001001999999001071MA1999999099221MD1710161+9999REMSYN070AAXX  07001 31594 32998 81706 10167 20038 39922 40080 57016 80007 333;EQDQ01  00002PRCP99
0139315940999992000050703004+49420+130080FM-12+013599999V0201601N008019999999N0100001N1+02281+00301100671ADDGF108991001001999999001071MD1710101+9999OA140101301REMSYN076AAXX  07031 31594 42997 81608 10228 20030 40067 57010 80007 333 91013 91113;
0139315940999992000050706004+49420+130080FM-12+013599999V0202201N008019999999N0100001N1+02501+00551100451ADDGF108991001001999999001061MD1710211+9999OA140101401REMSYN076AAXX  07061 31594 42997 82208 10250 20055 40045 57021 80006 333 91014 91114;
0139315940999992000050709004+49420+130080FM-12+013599999V0201701N009019999999N0100001N1+02301+00591100281ADDGF108991001001999999001061MD1610171+9999OA140101501REMSYN076AAXX  07091 31594 42997 81709 10230 20059 40028 56017 80006 333 91015 91118;
0209315940999992000050712004+49420+130080FM-12+013599999V0201801N009019999999N0120001N1+01741+00891100371ADDAA199000091GF108991001001999999001011KA1120M+02501MA1999999098801MD1310061+9999OA140101501REMSYN088AAXX  07121 31594 32962 81809 10174 20089 39880 40037 53006 80001 333 10250 91015 91115;EQDQ01  00002PRCP99
0122315940999992000050715004+49420+130080FM-12+013599999V0201601N005019999999N0110001N1+01711+00881100281ADDGF105991001001999999001011MD1810091+9999REMSYN070AAXX  07151 31594 42961 51605 10171 20088 40028 58009 80001 333 91115;
0122315940999992000050718004+49420+130080FM-12+013599999V0201701N005019999999N0120001N1+01411+00711100381ADDGF108991001001999999001011MD1110071+9999REMSYN070AAXX  07181 31594 42962 81705 10141 20071 40038 51007 80001 333 91111;
0167315940999992000050721004+49420+130080FM-12+013599999V0203501N010019999999N0040001N1+00851+00301100831ADDAY121031AY221031GF108991081001999999071999MD1210321+9999MW1041OA140101501REMSYN082AAXX  07211 31594 41996 83510 10085 20030 40083 52032 70422 8807/ 333 91015 91115;
0246315940999992000050800004+49420+130080FM-12+013599999V0203601N008010033019N0040001N1+00541+00401101221ADDAA112000391AY161061AY221061GA1081+003309059GF108991081001004501021999KA1120N+00541MA1999999099571MD1210371+9999MW1611OA140101301REMSYN106AAXX  08001 31594 11496 83608 10054 20040 39957 40122 52037 69932 76162 8802/ 333 20054 88511 91013 91115;
