0116333760999992000011509004+50370+033980FM-12+015699999V0201901N002019999999N0140001N1-00491-00661102991ADDGF107991071001999999011001MD1710081+9999REMSYN064    AAXX  15091 33376 42964 71902 11049 21066 40299 57008 87010;
