0151378640999992000010315304+40450+050070FM-15-0001UBBB V0201601N003010093019N0112651N1+00801+00701999999ADDGA1081+009309999GF108991999999999999999999MA1101491999999MW1001REMMET057UBBB 031530Z 16003MPS 9999 OVC031 08/07 Q1015 NOSIG SC06;EQDQ01+000000PRSWM2
0193378640999992000010318004+40450+050070FM-15-0001UBBB V0202901N004010015019N0060001N1+00801+00701999999ADDGA1071+001509999GA2081+009909999GF108991999999999999999999MA1101591999999MW1101REMMET067UBBB 031800Z 29004MPS 6000 BR BKN005 OVC033 08/07 Q1016 NOSIG SC06;EQDQ01+000003PRSWM1Q02    003PRSWM1
0166378640999992000010607504+40450+050070FM-15-0001UBBB V0203201N008010018019N0112651N1+00601+00501999999ADDGA1081+001809999GF108991999999999999999999MA1101691999999MW1001REMMET072UBBB 060750Z 32008MPS 9999 OVC006 06/05 Q1017 TEMPO 1000 BR OVC003 SC06;EQDQ01+000000PRSWM2
0193378640999992000012105534+40450+050070FM-16-0001UBBB V0203201N013010030019N0112651N1+00301+00101999999ADDGA1071+003009999GA2081+004209999GF108991999999999999999999MA1100511999999MW1531REMMET067UBBB 210553Z 32013MPS 9999 DZ BKN010 OVC014 03/01 Q1005 NOSIG SC06;EQDQ01+000003PRSWM1Q02    003PRSWM1
0104378640999992000012213354+40450+050070FM-16-0001UBBB V0202301N01401220001CN0099001N1+00601-00301999999ADDMA1100611999999MW1001REMMET052UBBB 221335Z 23014MPS CAVOK 06/M03 Q1006 NOSIG SC06;EQDQ01+000000PRSWM2
0115378640999992000012214184+40450+050070FM-16-0001UBBB V0202401N01501220001CN0099001N1+00701-00701999999ADDMA1100611999999MW1001OC102001REMMET055UBBB 221418Z 24015G20MPS CAVOK 07/M07 Q1006 NOSIG SC06;EQDQ01+000000PRSWM2
0155378640999992000012804454+40450+050070FM-16-0001UBBB V0203301N005010015019N0015001N1+99999+99999999999ADDGA1081+001509999GF108991999999999999999999MA1102301999999MW1001MW2731REMMET055UBBB 280445Z 33005MPS 1500 SN OVC005 Q1023 SC055 NOSIG;EQDQ01+000003PRSWM1
0205378640999992000020702004+40450+050070FM-15-0001UBBB V0203301N013010075019N0112651N1+00401+00301999999ADDGA1021+003309999GA2081+007509999GF108991999999999999999999MA1101491999999MW1631OC101801REMMET071UBBB 070200Z 33013G18MPS 9999 RA SCT011 OVC025 04/03 Q1015 NOSIG SC055;EQDQ01+000003PRSWM1Q02    003PRSWM1
0152378640999992000020713004+40450+050070FM-15-0001UBBB V0203401N011010138019N0112651N1+00501-00201999999ADDGA1071+013809999GF107991999999999999999999MA1102101999999MW1001REMMET058UBBB 071300Z 34011MPS 9999 BKN046 05/M02 Q1021 NOSIG SC06;EQDQ01+000000PRSWM2
0099378640999992000021011304+40450+050070FM-15-0001UBBB V0201801N00701220001CN0099001N1+01001+00201999999ADDMA1102301999999MW1001REMMET047UBBB 101230Z 18007MPS CAVOK 10/02 Q1023 NOSIG ;EQDQ01+000000PRSWM2
0099378640999992000021012304+40450+050070FM-15-0001UBBB V0201901N00601220001CN0099001N1+00901+00301999999ADDMA1102301999999MW1001REMMET047UBBB 101330Z 19006MPS CAVOK 09/03 Q1023 NOSIG ;EQDQ01+000000PRSWM2
0099378640999992000021013304+40450+050070FM-15-0001UBBB V0201901N00401220001CN0099001N1+00801+00301999999ADDMA1102401999999MW1001REMMET047UBBB 101430Z 19004MPS CAVOK 08/03 Q1024 NOSIG ;EQDQ01+000000PRSWM2
0099378640999992000021016004+40450+050070FM-15-0001UBBB V0201801N00301220001CN0099001N1+00701+00201999999ADDMA1102511999999MW1001REMMET047UBBB 101600Z 18003MPS CAVOK 07/02 Q1025 NOSIG ;EQDQ01+000000PRSWM2
0099378640999992000021017004+40450+050070FM-15-0001UBBB V0201701N00201220001CN0099001N1+00601+00201999999ADDMA1102511999999MW1001REMMET047UBBB 101700Z 17002MPS CAVOK 06/02 Q1025 NOSIG ;EQDQ01+000000PRSWM2
0099378640999992000021018004+40450+050070FM-15-0001UBBB V0209999C00001220001CN0099001N1+00501+00201999999ADDMA1102511999999MW1001REMMET047UBBB 101800Z 00000MPS CAVOK 05/02 Q1025 NOSIG ;EQDQ01+000000PRSWM2
0099378640999992000021018304+40450+050070FM-15-0001UBBB V0209999C00001220001CN0099001N1+00601+00301999999ADDMA1102511999999MW1001REMMET047UBBB 101930Z 00000MPS CAVOK 06/03 Q1025 NOSIG ;EQDQ01+000000PRSWM2
0099378640999992000021019304+40450+050070FM-15-0001UBBB V0209999C00001220001CN0099001N1+00601+00401999999ADDMA1102511999999MW1001REMMET047UBBB 102030Z 00000MPS CAVOK 06/04 Q1025 NOSIG ;EQDQ01+000000PRSWM2
0099378640999992000021020304+40450+050070FM-15-0001UBBB V0200501N00101220001CN0099001N1+00501+00301999999ADDMA1102511999999MW1001REMMET047UBBB 102130Z 05001MPS CAVOK 05/03 Q1025 NOSIG ;EQDQ01+000000PRSWM2
0099378640999992000021021304+40450+050070FM-15-0001UBBB V0209999C00001220001CN0099001N1+00401+00401999999ADDMA1102401999999MW1001REMMET047UBBB 102230Z 00000MPS CAVOK 04/04 Q1024 NOSIG ;EQDQ01+000000PRSWM2
0088378640999992000021023004+40450+050070FM-16-0001UBBB V0209999C000012200019N0112651N1+99999+99999999999ADDMW1001REMMET051UBBB 102300Z 00000MPS /// CAVOK 05/04 Q1024 NOSIG ;EQDQ01+000000PRSWM2
0101378640999992000021023304+40450+050070FM-16-0001UBBB V0201601N002012200019N0080461N1+99999+99999999999ADDMW1001REMMET064UBBB 102330Z 16002MPS /// 800 FG R18/P3000N 04/03 Q1024 NOSI G ;EQDQ01+000000PRSWM2
0117378640999992000021100004+40450+050070FM-15-0001UBBB V0201501N004012200019N0013001N1+00401+00401999999ADDMA1102401999999MW1101REMMET049UBBB 110000Z 15004MPS 1300 BR 04/04 Q1024 NOSIG ;EQDQ01+000003PRSWM1Q02    003PRSWM1
0109378640999992000021100304+40450+050070FM-16-0001UBBB V0201601N004012200019N0500001N1+99999+99999999999ADDMW1001REMMET072UBBB 110030Z 16004MPS /// 3000 BR BKN002 05/05 Q1024 BESMG06 00FG SC06 ;EQDQ01+000000PRSWM2
0177378640999992000021101004+40450+050070FM-15-0001UBBB V0201501N003010009019N0024001N1+00601+00501999999ADDGA1071+000909999GF107991999999999999999999MA1102301999999MW1101REMMET067UBBB 110100Z 15003MPS 2400 BR BKN003 06/05 Q1023 BESMG0600FG SC06 ;EQDQ01+000003PRSWM1Q02    003PRSWM1
0109378640999992000021102004+40450+050070FM-15-0001UBBB V0201801N005012200019N0003001N1+99999+99999999999ADDMW1001MW2441REMMET066UBBB 110200Z 18005MPS 0300 FG VVOO2 05/05 Q1023 BESMG0600FG SC06 ;EQDQ01+000003PRSWM1
0170378640999992000021102304+40450+050070FM-15-0001UBBB V0201801N00401000151CN0002001N1+00501+00501999999ADDGA1091+000159999GF109991999999000251999999MA1102301999999MW1451REMMET060UBBB 110330Z 18004MPS 0200 FG VV002 05/05 Q1023 NOSIG SC06 ;EQDQ01+000003PRSWM1Q02    003PRSWM1
0170378640999992000021104004+40450+050070FM-15-0001UBBB V0201801N00401000151CN0002001N1+00501+00501999999ADDGA1091+000159999GF109991999999000251999999MA1102401999999MW1451REMMET060UBBB 110400Z 18004MPS 0200 FG VV002 05/05 Q1024 NOSIG SC06 ;EQDQ01+000003PRSWM1Q02    003PRSWM1
0116378640999992000021117534+40450+050070FM-16-0001UBBB V0203101N004012200019N0032001N1+99999+99999999999ADDMW1001REMMET079UBBB 111753Z AUTO 31004MPS 32004MPS R36/0650VP3000D R34/0650D 000 04/04 Q1022 ;EQDQ01+000000PRSWM2
0115378640999992000021120504+40450+050070FM-15-0001UBBB V0203301N002012200019N0032001N1+99999+99999999999ADDMW1001REMMET078UBBB 112050Z AUTO 33002MPS 32002MPS R36/0450N R34/0500V0750U 000 03/03 Q1021 ;EQDQ01+000000PRSWM2
0110378640999992000021121524+40450+050070FM-16-0001UBBB V0203201N003012200019N0031001N1+99999+99999999999ADDMW1001REMMET073UBBB 112152Z AUTO 32003MPS 31003MPS R36/0450N R34/0650N 000 03/03 Q1021 ;EQDQ01+000000PRSWM2
0134378640999992000021822464+40450+050070FM-16-0001UBBB V0201701N002012200019N0015001N1+99999+99999999999ADDED199U24009GF100991999999999999999999MW1001MW2101REMMET054UBBB 182246Z 17002MPS 1500 R18/2400 R16/P3000 BR SKC ;EQDQ01+000003PRSWM1
0133378640999992000021823204+40450+050070FM-16-0001UBBB V0201701N004012200019N0015001N1+99999+99999999999ADDED199U24009GF100991999999999999999999MW1001MW2101REMMET053UBBB 182320Z 17004MPS 1500 R18/2400 R16/P3000 BR SKC;EQDQ01+000003PRSWM1
0151378640999992000022018204+40450+050070FM-15-0001UBBB V0203201N010010030019N0112651N1+00801+00601999999ADDGA1071+003009999GF107991999999999999999999MA1101691999999MW1001REMMET057UBBB 201820Z 32010MPS 9999 BKN010 08/06 Q1017 NOSIG SC06;EQDQ01+000000PRSWM2
0174378640999992000022020504+40450+050070FM-15-0001UBBB V0203301N010010300019N0112651N1+00701+00601999999ADDGA1021+003009999GA2071+030009999GF107991999999999999999999MA1101691999999MW1001REMMET064UBBB 202050Z 33010MPS 9999 SCT010 BKN100 07/06 Q1017 NOSIG SC06;EQDQ01+000000PRSWM2
0152378640999992000022205374+40450+050070FM-16-0001UBBB V0201601N009010015019N0112651N1+00901+00801999999ADDGA1081+001509999GF108991999999999999999999MA1101391999999MW1001REMMET058UBBB 220537Z 16009MPS 9999 OVC005 09/08 Q1014 NOSIG SC06 ;EQDQ01+000000PRSWM2
0164378640999992000022814004+40450+050070FM-16-0001UBBB V0203201N012010033019N0008001N1+99999+99999999999ADDED199U10009GA1081+003309999GF108991999999999999999999MW1001MW2861OC101701REMMET060UBBB 281400Z 32012G17MPS 0800 R36/1000 R34/1000 SHSN OVC011;EQDQ01+000003PRSWM1
0151378640999992000030323554+40450+050070FM-15-0001UBBB V0202101N002010027019N0112651N1+00401+00301999999ADDGA1071+002709999GF107991999999999999999999MA1102201999999MW1001REMMET057UBBB 032355Z 21002MPS 9999 BKN009 04/03 Q1022 NOSIG SC06;EQDQ01+000000PRSWM2
0185378640999992000030401004+40450+050070FM-15-0001UBBB V0201601N002012200019N0011001N1+00401+00401999999ADDED199U23009GF100991999999999999999999MA1102201999999MW1101REMMET080UBBB 040100Z 16002MPS 1100 R18/2300 BR SKC 04/04 Q1022 TEMPO 800FG OVC003 SC06 ;EQDQ01+000003PRSWM1Q02    003PRSWM1
0165378640999992000030422254+40450+050070FM-15-0001UBBB V0202101N002012200019N0030001N1+00501+00501999999ADDGF100991999999999999999999MA1101801999999MW1101REMMET071UBBB 042225Z 21002MPS 3000 BR SKC 05/05 Q1018 BECMG 0800FG BKN002 SC06;EQDQ01+000003PRSWM1Q02    003PRSWM1
0152378640999992000030504154+40450+050070FM-16-0001UBBB V0209999C000012200019N0020001N1+00301+00301999999ADDGF100991999999999999999999MA1102101999999MW1101REMMET058UBBB 050415Z 00000MPS 2000 BR SKC 03/03 Q1021 NOSIG SC06 ;EQDQ01+000003PRSWM1Q02    003PRSWM1
0205378640999992000030521304+40450+050070FM-15-0001UBBB V0201701N004012200019N0015001N1+00701+00601999999ADDED199U35009GA1021+000309999GF104991999999999999999999MA1101691999999MW1101REMMET084UBBB 052130Z 17004MPS 1500 R18/3500 BR SCT001 07/06 Q1017 TEMPO 0400 FG OVC003 SC06;EQDQ01+000003PRSWM1Q02    003PRSWM1
0197378640999992000030522304+40450+050070FM-15-0001UBBB V0201801N00401000151CN0006501N1+00601+00601999999ADDED199U13009GA1091+000159999GF109991999999000251999999MA1101691999999MW1451REMMET076UBBB 052230Z 18004MPS 0650 R16/1300 FG VV002 06/06 Q1017 TEMPO 0400 FG SC06;EQDQ01+000003PRSWM1Q02    003PRSWM1
0198378640999992000030523304+40450+050070FM-15-0001UBBB V0201701N005012200019N0014001N1+00601+00601999999ADDED199U32009GA1021+000309999GF104991999999999999999999MA1101591999999MW1101REMMET077UBBB 052330Z 17005MPS 1400 R18/3200 BR SCT001 06/06 Q1016 TEMPO 0400 FG SC06;EQDQ01+000003PRSWM1Q02    003PRSWM1
0151378640999992000030603004+40450+050070FM-16-0001UBBB V0201601N003010009019N0005001N1+99999+99999999999ADDED199U13009GA1081+000909999GF108991999999999999999999MW1001MW2441REMMET055UBBB 060300Z 16003MPS 0500 R18/1300 R16/1500 FG OVC003;EQDQ01+000003PRSWM1
0142378640999992000030618004+40450+050070FM-12-0001UBBB V0201801N005112200019N0100001N1+00831+00771100871ADDAA115701092GA1001+999999999GF100991001001999999001001KA1999M+01071REMSYN064AAXX  06184 37864 32997 01810 10083 20077 40087 67019 333 10107;
0170378640999992000030700504+40450+050070FM-15-0001UBBB V0203201N010010009019N0022001N1+00601+00501999999ADDGA1071+000909999GF107991999999999999999999MA1100911999999MW1101REMMET060UBBB 070050Z 32010MPS 2200 BR BKN003 06/05 Q1009 NOSIG SC06;EQDQ01+000003PRSWM1Q02    003PRSWM1
0104378640999992000031001004+40450+050070FM-15-0001UBBB V0202001N01101220001CN0099001N1+00701+00201999999ADDMA1100811999999MW1001REMMET052UBBB 100100Z 20011MPS CAVOK 07/02 Q1008 NOSIG SC06 ;EQDQ01+000000PRSWM2
0104378640999992000031002004+40450+050070FM-15-0001UBBB V0202201N01001220001CN0099001N1+00601+00101999999ADDMA1100811999999MW1001REMMET052UBBB 100200Z 22010MPS CAVOK 06/01 Q1008 NOSIG SC06 ;EQDQ01+000000PRSWM2
0116378640999992000031016304+40450+050070FM-15-0001UBBB V0202001N01101220001CN0099001N1+01201+00001999999ADDMA1100201999999MW1001OC101601REMMET056UBBB 101630Z 20011G16MPS CAVOK 12/M00 Q1002 NOSIG SC06 ;EQDQ01+000000PRSWM2
0198378640999992000031018004+40450+050070FM-12-0001UBBB V0202101N006712200019N0100001N1+00901+00401100401ADDAA199000091GA1001+999999999GF100991001001999999001001KA1120M+01901MD1710021+9999OA140101801REMSYN076AAXX  10184 37864 32997 02113 10090 20040 40040 57002 333 10190 91018 91118;EQDQ01  00002PRCP99
0175378640999992000031113004+40450+050070FM-15-0001UBBB V0203201N013010300019N0112651N1+00901+00601999999ADDGA1021+003309999GA2071+030009999GF107991999999999999999999MA1101021999999MW1001REMMET065UBBB 111300Z 32013MPS 9999 SCT011 BKN100 09/06 Q1010 NOSIG SC06 ;EQDQ01+000000PRSWM2
0114378640999992000031203554+40450+050070FM-16-0001UBBB V0203301N008012200019N0112651N1+99999+99999999999ADDGA1021+007809999GF104991999999999999999999MW1001REMMET035UBBB 120355Z 33008MPS 9999 SCT026 ;EQDQ01+000000PRSWM2
0172378640999992000031820524+40450+050070FM-16-0001UBBB V0201601N00301000151CN0000751N1+00701+00701999999ADDED199U03509GA1091+000159999GF109991999999000251999999MW1451REMMET066UBBB 182052Z 16003MPS 0075 R16/M0350 R18/3000 FG VV002 07/07 1008;EQDQ01+000003PRSWM1Q02    003PRSWM1
0103378640999992000031908204+40450+050070FM-15-0001UBBB V0203101N01001220001CN0099001N1+01201+00701999999ADDMA1100911999999MW1001REMMET051UBBB 190820Z 31010MPS CAVOK 12/07 Q1009 NOSIG SC06;EQDQ01+000000PRSWM2
0179378640999992000031915004+40450+050070FM-12-0001UBBB V0203401N010312200019N0100001N1+00921+00511101761ADDAA199000091GA1001+999999999GF100991001001999999001001MD1210301+9999OA140102501REMSYN070AAXX  19154 37864 32997 03420 10092 20051 40176 52030 333 91025 91125;EQDQ01  00002PRCP99
0177378640999992000032221004+40450+050070FM-12-0001UBBB V0203501N004110360019N0100001N1+00621+00511101411ADDAA199000021AY181031AY221031GA1031+009909099GF108991031091012501071999MD1610081+9999MW1251REMSYN076AAXX  22214 37864 31697 83508 10062 20051 40141 56008 72582 8397/ 333 83933;
0194378640999992000032415384+40450+050070FM-16-0001UBBB V0203501N005010015019N0112651N1+00701+00601999999ADDGA1071+001509999GA2081+004209999GF108991999999999999999999MA1101291999999MW1631REMMET068UBBB 241538Z 35005MPS 9999 RA BKN005 OVC014 07/06 Q1013 NOSIG SC055;EQDQ01+000003PRSWM1Q02    003PRSWM1
0177378640999992000032603264+40450+050070FM-16-0001UBBB V0203401N009010090019N0112651N1+00501+00201999999ADDGA1071+009009099GA2071+030009999GF107991999999999999999999MA1102511999999MW1001REMMET067UBBB 260326Z 34009MPS 9999 BKN030CB BKN100 05/02 Q1025 NOSIG SC06 ;EQDQ01+000000PRSWM2
0122378640999992000032903304+40450+050070FM-16-0001UBBB V0201901N005010009019N0080001N1+99999+99999999999ADDGA1081+000909999GF108991999999999999999999MW1001MW2101REMMET037UBBB 290330Z 19005MPS 8000 BR OVC003;EQDQ01+000003PRSWM1
0113378640999992000032905004+40450+050070FM-16-0001UBBB V0201901N009010015019N0112651N1+99999+99999999999ADDGA1081+001509999GF108991999999999999999999MW1001REMMET034UBBB 290500Z 19009MPS 9999 OVC005;EQDQ01+000000PRSWM2
0165378640999992000032913504+40450+050070FM-15-0001UBBB V0200501N002010015019N0112651N1+01001+00801999999ADDGA1081+001509999GF108991999999999999999999MA1101691999999MW1001REMMET071UBBB 291350Z 05002MPS 9999 OVC005 10/08 Q1017 BECMG 0800 FG VV002 SC06;EQDQ01+000000PRSWM2
0212378640999992000032914454+40450+050070FM-15-0001UBBB V0201801N00301000151CN0006001N1+00801+00801999999ADDED199U10009GA1091+000159999GF109991999999000251999999MA1101691999999MW1451REMMET091UBBB 291445Z 18003MPS 0600 R18/1000 R16/0900 FG VV002 08/08 Q1017 TEMPO 0400 FG VV001 SC06;EQDQ01+000003PRSWM1Q02    003PRSWM1
0212378640999992000032915244+40450+050070FM-16-0001UBBB V0202101N00201000151CN0001501N1+00801+00801999999ADDED199U04509GA1091+000159999GF109991999999000251999999MA1101691999999MW1451REMMET091UBBB 291524Z 21002MPS 0150 R18/0450 R16/0900 FG VV002 08/08 Q1017 TEMPO 0400 FG VV001 SC06;EQDQ01+000003PRSWM1Q02    003PRSWM1
0199378640999992000032919254+40450+050070FM-15-0001UBBB V0209999C00001000151CN0003001N1+00801+00701999999ADDED199U07509GA1091+000159999GF109991999999000251999999MA1101801999999MW1451REMMET078UBBB 291925Z 00000MPS 0300 R16/0750 R18/2500 FG VV002 08/07 Q1018 NOSIG SC06 ;EQDQ01+000003PRSWM1Q02    003PRSWM1
0210378640999992000032922554+40450+050070FM-15-0001UBBB V0203301N00401000151CN0003751N1+00701+00701999999ADDED199U14009GA1091+000159999GF109991999999000251999999MA1101691999999MW1451REMMET089UBBB 292255Z 33004MPS 0375 R36/1400 R34/0900 FG VV001 07/07 Q1017 TEMPO 0400 VV001 SC06 ;EQDQ01+000003PRSWM1Q02    003PRSWM1
0209378640999992000033000054+40450+050070FM-16-0001UBBB V0203201N00601000151CN0011001N1+00701+00701999999ADDED199U23009GA1091+000159999GF109991999999000251999999MA1101801999999MW1101REMMET088UBBB 300005Z 32006MPS 1100 R36/2300 R34/2500 BR VV001 07/07 Q1018 TEMPO 0400 VV001 SC06;EQDQ01+000003PRSWM1Q02    003PRSWM1
0206378640999992000033003004+40450+050070FM-12-0001UBBB V0203401N005110012019N0020001N1+00661+00621102021ADDAA199000091AY141031AY241031GA1081+001209079GF108991081061001501999999MD1110111+9999MW1101REMSYN086AAXX  30034 37864 31295 83410 10066 20062 40202 51011 71044 886// 333 88704 555 20060;EQDQ01  00002PRCP99
0150378640999992000033018004+40450+050070FM-16-0001UBBB V0209999C00001000151CN0001501N1+99999+99999999999ADDED199U06509GA1091+000159999GF109991999999000251999999MW1001MW2451REMMET054UBBB 301800Z 00000MPS 0150 R36/0650 R34/M350 FG VV002;EQDQ01+000003PRSWM1
0136378640999992000040100504+40450+050070FM-16-0001UBBB V0201601N002010012019N0112651N1+99999+99999999999ADDGA1071+001209999GA2071+030009999GF107991999999999999999999MW1001REMMET041UBBB 010050Z 16002MPS 9999 BKN004 BKN100;EQDQ01+000000PRSWM2
0122378640999992000040102204+40450+050070FM-16-0001UBBB V0201701N003010009019N0035001N1+99999+99999999999ADDGA1071+000909999GF107991999999999999999999MW1001MW2101REMMET037UBBB 010220Z 17003MPS 3500 BR BKN003;EQDQ01+000003PRSWM1
0184378640999992000040103004+40450+050070FM-15-0001UBBB V0201701N004010006019N0020001N1+00801+00801999999ADDGA1081+000609999GF108991999999999999999999MA1102101999999MW1101REMMET074UBBB 010300Z 17004MPS 2000 BR OVC002 08/08 Q1021 TEMPO 0600 FG VV003 SC06;EQDQ01+000003PRSWM1Q02    003PRSWM1
0183378640999992000040103504+40450+050070FM-15-0001UBBB V0201601N00301000151CN0006001N1+00801+00801999999ADDGA1091+000159999GF109991999999000251999999MA1102101999999MW1451REMMET073UBBB 010350Z 16003MPS 0600 FG VV006 08/08 Q1021 TEMPO 0600 FG VV003 SC06;EQDQ01+000003PRSWM1Q02    003PRSWM1
0198378640999992000040122454+40450+050070FM-15-0001UBBB V0201801N005010003019N0015001N1+01001+00901999999ADDED199U29009GA1071+000309999GF107991999999999999999999MA1102101999999MW1101REMMET077UBBB 012245Z 18005MPS 1500 R18/2900 BR BKN001 10/09 Q1021 BECMG 0800 FG SC06;EQDQ01+000003PRSWM1Q02    003PRSWM1
0113378640999992000040213204+40450+050070FM-16-0001UBBB V0201701N007010006019N0112651N1+99999+99999999999ADDGA1071+000609999GF107991999999999999999999MW1001REMMET034UBBB 021320Z 17007MPS 9999 BKN002;EQDQ01+000000PRSWM2
0103378640999992000040223474+40450+050070FM-16-0001UBBB V0201401N003012200019N0023001N1+99999+99999999999ADDGF100991999999999999999999MW1001MW2101REMMET034UBBB 022347Z 14003MPS 2300 BR SKC;EQDQ01+000003PRSWM1
0076378640999992000040806244+40450+050070FM-16-0001UBBB V0203201N01201220001CN0099001N1+99999+99999999999ADDMW1001OC101701REMMET031UBBB 080624Z 32012G17MPS CAVOK;EQDQ01+000000PRSWM2
0144378640999992000041005234+40450+050070FM-16-0001UBBB V02099999999992200019N0112651N1+99999+99999999999ADDGA1021+015009099GF104991999999999999999999MW1001REMMET065UBBB 100523Z 32008MS 9999 SCT050CB 0VC100 11/10 Q1007 NOSIG SC06;EQDQ01+000000PRSWM2
0176378640999992000041013304+40450+050070FM-15-0001UBBB V0203401N006010300019N0112651N1+01001+00601999999ADDGA1021+007209999GA2071+030009999GF107991999999999999999999MA1101081999999MW1001REMMET066UBBB 101430Z 34006MPS 9999 SCT024 BKN100 10/06 Q1011 NOSIG SC065 ;EQDQ01+000000PRSWM2
0105378640999992000041015004+40450+050070FM-15-0001UBBB V0203501N00601220001CN0099001N1+01001+00601999999ADDMA1101081999999MW1001REMMET053UBBB 101500Z 35006MPS CAVOK 10/06 Q1011 NOSIG SC065 ;EQDQ01+000000PRSWM2
0153378640999992000041016004+40450+050070FM-15-0001UBBB V0203501N005010144019N0112651N1+01001+00601999999ADDGA1071+014409999GF107991999999999999999999MA1101191999999MW1001REMMET059UBBB 101600Z 35005MPS 9999 BKN048 10/06 Q1012 NOSIG SC065 ;EQDQ01+000000PRSWM2
0102378640999992000041017004+40450+050070FM-15-0001UBBB V0203601N00201220001CN0099001N1+99999+99999999999ADDMW1001REMMET065UBBB 101700Z 36002MPS CAVOK R18/P3000N 09/06 Q1013 NOSIG S C065 ;EQDQ01+000000PRSWM2
0105378640999992000041018004+40450+050070FM-15-0001UBBB V0203501N00201220001CN0099001N1+00801+00601999999ADDMA1101291999999MW1001REMMET053UBBB 101800Z 35002MPS CAVOK 08/06 Q1013 NOSIG SC065 ;EQDQ01+000000PRSWM2
0105378640999992000041019004+40450+050070FM-15-0001UBBB V0202501N00101220001CN0099001N1+00801+00501999999ADDMA1101291999999MW1001REMMET053UBBB 101900Z 25001MPS CAVOK 08/05 Q1013 NOSIG SC065 ;EQDQ01+000000PRSWM2
0105378640999992000041020004+40450+050070FM-15-0001UBBB V0201801N00201220001CN0099001N1+00701+00501999999ADDMA1101191999999MW1001REMMET053UBBB 102000Z 18002MPS CAVOK 07/05 Q1012 NOSIG SC065 ;EQDQ01+000000PRSWM2
0152378640999992000041021004+40450+050070FM-15-0001UBBB V0201701N002012200019N0112651N1+00801+00601999999ADDGA1021+009609999GF104991999999999999999999MA1101191999999MW1001REMMET058UBBB 102100Z 17002MPS 9999 SCT032 08/06 Q1012 NOSIG SC065;EQDQ01+000000PRSWM2
0105378640999992000041022004+40450+050070FM-15-0001UBBB V0201501N00301220001CN0099001N1+00901+00601999999ADDMA1101191999999MW1001REMMET053UBBB 102200Z 15003MPS CAVOK 09/06 Q1012 NOSIG SC065 ;EQDQ01+000000PRSWM2
0152378640999992000041023004+40450+050070FM-15-0001UBBB V0201601N006012200019N0112651N1+00901+00701999999ADDGA1021+004509999GF104991999999999999999999MA1101081999999MW1001REMMET058UBBB 102300Z 16006MPS 9999 SCT015 09/07 Q1011 NOSIG SC065;EQDQ01+000000PRSWM2
0105378640999992000041100004+40450+050070FM-15-0001UBBB V0201801N00601220001CN0099001N1+01001+00801999999ADDMA1101021999999MW1001REMMET053UBBB 100000Z 18006MPS CAVOK 10/08 Q1010 NOSIG SC065 ;EQDQ01+000000PRSWM2
0105378640999992000041101004+40450+050070FM-15-0001UBBB V0201701N00701220001CN0099001N1+01001+00501999999ADDMA1100911999999MW1001REMMET053UBBB 110100Z 17007MPS CAVOK 10/05 Q1009 NOSIG SC065 ;EQDQ01+000000PRSWM2
0105378640999992000041102004+40450+050070FM-15-0001UBBB V0201901N00801220001CN0099001N1+01001+00401999999ADDMA1100911999999MW1001REMMET053UBBB 110200Z 19008MPS CAVOK 10/04 Q1009 NOSIG SC065 ;EQDQ01+000000PRSWM2
0105378640999992000041103004+40450+050070FM-15-0001UBBB V0202201N00601220001CN0099001N1+01101+00201999999ADDMA1100911999999MW1001REMMET053UBBB 110300Z 22006MPS CAVOK 11/02 Q1009 NOSIG SC065 ;EQDQ01+000000PRSWM2
0105378640999992000041104004+40450+050070FM-15-0001UBBB V0203001N00501220001CN0099001N1+01101+00601999999ADDMA1101021999999MW1001REMMET053UBBB 110400Z 30005MPS CAVOK 11/06 Q1010 NOSIG SC065 ;EQDQ01+000000PRSWM2
0088378640999992000041105004+40450+050070FM-15-0001UBBB V02099999999992200019N0112651N1+99999+99999999999ADDMW1001REMMET051UBBB 110500Z /////S CAVOK 12/07 Q1010 NOSIG SC065 ;EQDQ01+000000PRSWM2
0105378640999992000041106004+40450+050070FM-15-0001UBBB V0203101N00501220001CN0099001N1+01301+00801999999ADDMA1101081999999MW1001REMMET053UBBB 110600Z 31005MPS CAVOK 13/08 Q1011 NOSIG SC065 ;EQDQ01+000000PRSWM2
0105378640999992000041107004+40450+050070FM-15-0001UBBB V0203001N00401220001CN0099001N1+01401+00601999999ADDMA1101081999999MW1001REMMET053UBBB 110700Z 30004MPS CAVOK 14/06 Q1011 NOSIG SC065 ;EQDQ01+000000PRSWM2
0105378640999992000041108004+40450+050070FM-15-0001UBBB V0202801N00201220001CN0099001N1+01401+00701999999ADDMA1101081999999MW1001REMMET053UBBB 110800Z 28002MPS CAVOK 14/07 Q1011 NOSIG SC065 ;EQDQ01+000000PRSWM2
0105378640999992000041109004+40450+050070FM-15-0001UBBB V0203101N00201220001CN0099001N1+01601+00501999999ADDMA1101021999999MW1001REMMET053UBBB 110900Z 31002MPS CAVOK 16/05 Q1010 NOSIG SC065 ;EQDQ01+000000PRSWM2
0105378640999992000041110004+40450+050070FM-15-0001UBBB V0200301N00501220001CN0099001N1+01501+00701999999ADDMA1100911999999MW1001REMMET053UBBB 111000Z 03005MPS CAVOK 15/07 Q1009 NOSIG SC065 ;EQDQ01+000000PRSWM2
0105378640999992000041111004+40450+050070FM-15-0001UBBB V0200501N00401220001CN0099001N1+01501+00701999999ADDMA1100911999999MW1001REMMET053UBBB 111100Z 05004MPS CAVOK 15/07 Q1009 NOSIG SC065 ;EQDQ01+000000PRSWM2
0105378640999992000041112004+40450+050070FM-15-0001UBBB V0200401N00501220001CN0099001N1+01501+00801999999ADDMA1100811999999MW1001REMMET053UBBB 111200Z 04005MPS CAVOK 15/08 Q1008 NOSIG SC065 ;EQDQ01+000000PRSWM2
0132378640999992000041112354+40450+050070FM-16-0001UBBB V0202401N01001220001CN0099001N1+02101-00702999999ADDMA1100811999999MW1001OC101501REMMET056UBBB 111235Z 24010G15MPS CAVOK 21/M07 Q1008 NOSIG SC065;EQDQ01-000703ATOD  Q02+000000PRSWM2
0094378640999992000041113004+40450+050070FM-15-0001UBBB V02099999999992200019N9999999N1+99999+99999999999ADDMW1001REMMET057UBBB 111300Z 23010Q15MPS CAVOK 22/M06 Q1008 NOSIG SC065 ;EQDQ01+000000PRSWM2
0106378640999992000041114004+40450+050070FM-15-0001UBBB V0202501N01301220001CN0099001N1+02101-00401999999ADDMA1100811999999MW1001REMMET054UBBB 111400Z 25013MPS CAVOK 21/M04 Q1008 NOSIG SC065 ;EQDQ01+000000PRSWM2
0065378640999992000041114204+40450+050070FM-16-0001UBBB V0202901N00701220001CN0099001N1+99999+99999999999ADDMW1001REMMET028UBBB 111420Z 29007MPS CAVOK;EQDQ01+000000PRSWM2
0191378640999992000041115004+40450+050070FM-15-0001UBBB V0203101N005010300019N0112651N1+01101+00802999999ADDGA1021+002109999GA2071+030009999GF107991999999999999999999MA1101021999999MW1001REMMET065UBBB 111500Z 31005MPS 9999 FEW007 BKN100 11/08 Q1010 NOSIG SC065;EQDQ01+000803ATOD  Q02+000000PRSWM2
0113378640999992000041115084+40450+050070FM-16-0001UBBB V0203001N005010021019N0112651N1+99999+99999999999ADDGA1071+002109999GF107991999999999999999999MW1001REMMET034UBBB 111508Z 30005MPS 9999 BKN007;EQDQ01+000000PRSWM2
0112378640999992000041116004+40450+050070FM-15-0001UBBB V0203001N00501220001CN0099001N1+01001+00901999999ADDMA1101021999999MW1001REMMET060UBBB 111600Z 30005MPS CAVOK 10/09 Q1010 TEMPO OVC005 SC065 ;EQDQ01+000000PRSWM2
0159378640999992000041117004+40450+050070FM-15-0001UBBB V0203001N003012200019N0112651N1+00901+00901999999ADDGA1021+002109999GF104991999999999999999999MA1101081999999MW1001REMMET065UBBB 111700Z 30003MPS 9999 SCT007 09/09 Q1011 TEMPO OVC005 SC065;EQDQ01+000000PRSWM2
0159378640999992000041118004+40450+050070FM-15-0001UBBB V0202801N003012200019N0112651N1+00901+00901999999ADDGA1021+002409999GF104991999999999999999999MA1101191999999MW1001REMMET065UBBB 111800Z 28003MPS 9999 SCT008 09/09 Q1012 TEMPO OVC005 SC065;EQDQ01+000000PRSWM2
0112378640999992000041119004+40450+050070FM-15-0001UBBB V0202901N00201220001CN0099001N1+00901+00801999999ADDMA1101191999999MW1001REMMET060UBBB 111900Z 29002MPS CAVOK 09/08 Q1012 TEMPO OVC005 SC065 ;EQDQ01+000000PRSWM2
0105378640999992000041120004+40450+050070FM-15-0001UBBB V0202701N00101220001CN0099001N1+00901+00801999999ADDMA1101191999999MW1001REMMET053UBBB 112000Z 27001MPS CAVOK 09/08 Q1012 NOSIG SC065 ;EQDQ01+000000PRSWM2
0105378640999992000041121004+40450+050070FM-15-0001UBBB V0209999C00001220001CN0099001N1+00701+00701999999ADDMA1101081999999MW1001REMMET053UBBB 112100Z 00000MPS CAVOK 07/07 Q1011 NOSIG SC065 ;EQDQ01+000000PRSWM2
0174378640999992000041122004+40450+050070FM-15-0001UBBB V0209999C000012200019N0007001N1+00701+00601999999ADDED199U14009GF100991999999999999999999MA1101081999999MW1441REMMET069UBBB 112200Z 00000MPS 0700 R34/1400 FG SKC 07/06 Q1011 NOSIG SC0 65 ;EQDQ01+000003PRSWM1Q02    003PRSWM1
0167378640999992000041123004+40450+050070FM-15-0001UBBB V0209999C000012200019N0035001N1+00701+00601999999ADDGF100991999999999999999999MA1101081999999MW1101REMMET073UBBB 112300Z 00000MPS 3500 BR SKC 07/06 Q1011 BECMG 0800FG VV003 S C065 ;EQDQ01+000003PRSWM1Q02    003PRSWM1
0197378640999992000041200004+40450+050070FM-15-0001UBBB V0209999C000012200019N0015001N1+00701+00601999999ADDED199U30009GF100991999999999999999999MA1101021999999MW1101REMMET092UBBB 120000Z 00000MPS 1500 R36/P3000N R34/3500 BR SKC 07/06 Q1010 BECMG 0800FG VV003 SC065 ;EQDQ01+000003PRSWM1Q02    003PRSWM1
0166378640999992000041201004+40450+050070FM-15-0001UBBB V0209999C000012200019N0040001N1+00601+00501999999ADDGF100991999999999999999999MA1101021999999MW1101REMMET072UBBB 120100Z 00000MPS 4000 BR SKC 06/05 Q1010 BECMG 0800FG VV003 SC065 ;EQDQ01+000003PRSWM1Q02    003PRSWM1
0118378640999992000041202004+40450+050070FM-15-0001UBBB V0209999C00001220001CN0099001N1+00601+00501999999ADDMA1101021999999MW1001REMMET066UBBB 120200Z 00000MPS CAVOK 06/05 Q1010 BECMG 0800FG VV003 SC065 ;EQDQ01+000000PRSWM2
0118378640999992000041203004+40450+050070FM-15-0001UBBB V0209999C00001220001CN0099001N1+00701+00601999999ADDMA1101081999999MW1001REMMET066UBBB 120300Z 00000MPS CAVOK 07/06 Q1011 BECMG 0800FG VV003 SC065 ;EQDQ01+000000PRSWM2
0104378640999992000041204004+40450+050070FM-15-0001UBBB V0209999C00001220001CN0099001N1+01101+01001999999ADDMA1101081999999MW1001REMMET052UBBB 120400Z 00000MPS CAVOK 11/10 Q1011 NOSIG SC06 ;EQDQ01+000000PRSWM2
0104378640999992000041205004+40450+050070FM-15-0001UBBB V0203001N00201220001CN0099001N1+01201+00901999999ADDMA1101081999999MW1001REMMET052UBBB 120500Z 30002MPS CAVOK 12/09 Q1011 NOSIG SC06 ;EQDQ01+000000PRSWM2
0104378640999992000041206004+40450+050070FM-15-0001UBBB V0202901N00301220001CN0099001N1+01201+00901999999ADDMA1101081999999MW1001REMMET052UBBB 120600Z 29003MPS CAVOK 12/09 Q1011 NOSIG SC06 ;EQDQ01+000000PRSWM2
0104378640999992000041207004+40450+050070FM-15-0001UBBB V0202901N00301220001CN0099001N1+01401+00801999999ADDMA1101081999999MW1001REMMET052UBBB 120700Z 29003MPS CAVOK 14/08 Q1011 NOSIG SC06 ;EQDQ01+000000PRSWM2
0104378640999992000041208004+40450+050070FM-15-0001UBBB V0203001N00201220001CN0099001N1+01501+00701999999ADDMA1101081999999MW1001REMMET052UBBB 120800Z 30002MPS CAVOK 15/07 Q1011 NOSIG SC06 ;EQDQ01+000000PRSWM2
0104378640999992000041209004+40450+050070FM-15-0001UBBB V0203001N00301220001CN0099001N1+01501+00701999999ADDMA1101081999999MW1001REMMET052UBBB 120900Z 30003MPS CAVOK 15/07 Q1011 NOSIG SC06 ;EQDQ01+000000PRSWM2
0104378640999992000041210004+40450+050070FM-15-0001UBBB V0203201N00501220001CN0099001N1+01501+00801999999ADDMA1101081999999MW1001REMMET052UBBB 121000Z 32005MPS CAVOK 15/08 Q1011 NOSIG SC06 ;EQDQ01+000000PRSWM2
0104378640999992000041211004+40450+050070FM-15-0001UBBB V0203401N00401220001CN0099001N1+01401+00801999999ADDMA1101081999999MW1001REMMET052UBBB 121100Z 34004MPS CAVOK 14/08 Q1011 NOSIG SC06 ;EQDQ01+000000PRSWM2
0104378640999992000041212004+40450+050070FM-15-0001UBBB V0203201N00401220001CN0099001N1+01401+00701999999ADDMA1101081999999MW1001REMMET052UBBB 121200Z 32004MPS CAVOK 14/07 Q1011 NOSIG SC06 ;EQDQ01+000000PRSWM2
0104378640999992000041213004+40450+050070FM-15-0001UBBB V0203401N00501220001CN0099001N1+01301+00901999999ADDMA1101081999999MW1001REMMET052UBBB 121300Z 34005MPS CAVOK 13/09 Q1011 NOSIG SC06 ;EQDQ01+000000PRSWM2
0152378640999992000041214004+40450+050070FM-15-0001UBBB V0203401N006012200019N0112651N1+01201+00901999999ADDGA1021+006009999GF104991999999999999999999MA1101191999999MW1001REMMET058UBBB 121400Z 34006MPS 9999 SCT020 12/09 Q1012 NOSIG SC06 ;EQDQ01+000000PRSWM2
0152378640999992000041215004+40450+050070FM-15-0001UBBB V0203601N005012200019N0112651N1+01101+01001999999ADDGA1021+003009999GF104991999999999999999999MA1101191999999MW1001REMMET058UBBB 121500Z 36005MPS 9999 SCT010 11/10 Q1012 NOSIG SC06 ;EQDQ01+000000PRSWM2
0104378640999992000041216004+40450+050070FM-15-0001UBBB V0203501N00501220001CN0099001N1+01001+00901999999ADDMA1101291999999MW1001REMMET052UBBB 121600Z 35005MPS CAVOK 10/09 Q1013 NOSIG SC06 ;EQDQ01+000000PRSWM2
0104378640999992000041217004+40450+050070FM-15-0001UBBB V0203501N00401220001CN0099001N1+01001+00801999999ADDMA1101391999999MW1001REMMET052UBBB 121700Z 35004MPS CAVOK 10/08 Q1014 NOSIG SC06 ;EQDQ01+000000PRSWM2
0104378640999992000041218004+40450+050070FM-15-0001UBBB V0203601N00201220001CN0099001N1+00901+00801999999ADDMA1101391999999MW1001REMMET052UBBB 121800Z 36002MPS CAVOK 09/08 Q1014 NOSIG SC06 ;EQDQ01+000000PRSWM2
0104378640999992000041219004+40450+050070FM-15-0001UBBB V0209999C00001220001CN0099001N1+00901+00801999999ADDMA1101391999999MW1001REMMET052UBBB 121900Z 00000MPS CAVOK 09/08 Q1014 NOSIG SC06 ;EQDQ01+000000PRSWM2
0104378640999992000041220004+40450+050070FM-15-0001UBBB V0202801N00201220001CN0099001N1+00901+00801999999ADDMA1101391999999MW1001REMMET052UBBB 122000Z 28002MPS CAVOK 09/08 Q1014 NOSIG SC06 ;EQDQ01+000000PRSWM2
0104378640999992000041221004+40450+050070FM-15-0001UBBB V0209999C00001220001CN0099001N1+00801+00701999999ADDMA1101391999999MW1001REMMET052UBBB 122100Z 00000MPS CAVOK 08/07 Q1014 NOSIG SC06 ;EQDQ01+000000PRSWM2
0104378640999992000041222004+40450+050070FM-15-0001UBBB V0209999C00001220001CN0099001N1+00701+00701999999ADDMA1101291999999MW1001REMMET052UBBB 122200Z 00000MPS CAVOK 07/07 Q1013 NOSIG SC06 ;EQDQ01+000000PRSWM2
0104378640999992000041223004+40450+050070FM-15-0001UBBB V0203401N00201220001CN0099001N1+00601+00601999999ADDMA1101291999999MW1001REMMET052UBBB 122300Z 34002MPS CAVOK 06/06 Q1013 NOSIG SC06 ;EQDQ01+000000PRSWM2
0104378640999992000041300004+40450+050070FM-15-0001UBBB V0209999C00001220001CN0099001N1+00601+00601999999ADDMA1101291999999MW1001REMMET052UBBB 130000Z 00000MPS CAVOK 06/06 Q1013 NOSIG SC06 ;EQDQ01+000000PRSWM2
0104378640999992000041301004+40450+050070FM-15-0001UBBB V0203001N00101220001CN0099001N1+00601+00601999999ADDMA1101291999999MW1001REMMET052UBBB 130100Z 30001MPS CAVOK 06/06 Q1013 NOSIG SC06 ;EQDQ01+000000PRSWM2
0118378640999992000041302004+40450+050070FM-15-0001UBBB V0209999C00001220001CN0099001N1+00601+00601999999ADDMA1101391999999MW1001REMMET066UBBB 130200Z 00000MPS CAVOK 06/06 Q1014 TEMPO 0800FG OVC003 SC06 ;EQDQ01+000000PRSWM2
0104378640999992000041303004+40450+050070FM-15-0001UBBB V0209999C00001220001CN0099001N1+00701+00701999999ADDMA1101391999999MW1001REMMET052UBBB 130300Z 00000MPS CAVOK 07/07 Q1014 NOSIG SC06 ;EQDQ01+000000PRSWM2
0104378640999992000041304004+40450+050070FM-15-0001UBBB V0209999C00001220001CN0099001N1+01101+01001999999ADDMA1101391999999MW1001REMMET052UBBB 130400Z 00000MPS CAVOK 11/10 Q1014 NOSIG SC06 ;EQDQ01+000000PRSWM2
0104378640999992000041305004+40450+050070FM-15-0001UBBB V0201101N00301220001CN0099001N1+01401+00501999999ADDMA1101391999999MW1001REMMET052UBBB 130500Z 11003MPS CAVOK 14/05 Q1014 NOSIG SC06 ;EQDQ01+000000PRSWM2
0112378640999992000041306004+40450+050070FM-15-0001UBBB V0201101N00301220001CN0099001N1+01501+00701999999ADDMA1101491999999MW1001REMMET060UBBB 130600Z 11003MPS 070V150 CAVOK 15/07 Q1015 NOSIG SC06 ;EQDQ01+000000PRSWM2
0112378640999992000041307004+40450+050070FM-15-0001UBBB V0200801N00301220001CN0099001N1+01501+00701999999ADDMA1101491999999MW1001REMMET060UBBB 130700Z 08003MPS 050V120 CAVOK 15/07 Q1015 NOSIG SC06 ;EQDQ01+000000PRSWM2
0104378640999992000041308004+40450+050070FM-15-0001UBBB V0201001N00301220001CN0099001N1+01501+00801999999ADDMA1101391999999MW1001REMMET052UBBB 130800Z 10003MPS CAVOK 15/08 Q1014 NOSIG SC06 ;EQDQ01+000000PRSWM2
0104378640999992000041308304+40450+050070FM-15-0001UBBB V0200901N00401220001CN0099001N1+01601+00901999999ADDMA1101391999999MW1001REMMET052UBBB 130930Z 09004MPS CAVOK 16/09 Q1014 NOSIG SC06 ;EQDQ01+000000PRSWM2
0098378640999992000041309004+40450+050070FM-16-0001UBBB V0200601N00401220001CN0099001N1+99999+99999999999ADDMA1101391999999MW1001REMMET046UBBB 130900Z 06004MPS CAVOK Q1014 NOSIG SC06 ;EQDQ01+000000PRSWM2
0104378640999992000041310004+40450+050070FM-15-0001UBBB V0201001N00401220001CN0099001N1+01601+00901999999ADDMA1101391999999MW1001REMMET052UBBB 131000Z 10004MPS CAVOK 16/09 Q1014 NOSIG SC06 ;EQDQ01+000000PRSWM2
0104378640999992000041311004+40450+050070FM-15-0001UBBB V0201001N00301220001CN0099001N1+01601+00901999999ADDMA1101391999999MW1001REMMET052UBBB 131100Z 10003MPS CAVOK 16/09 Q1014 NOSIG SC06 ;EQDQ01+000000PRSWM2
0104378640999992000041312004+40450+050070FM-15-0001UBBB V0200901N00401220001CN0099001N1+01601+00901999999ADDMA1101391999999MW1001REMMET052UBBB 131200Z 09004MPS CAVOK 16/09 Q1014 NOSIG SC06 ;EQDQ01+000000PRSWM2
0104378640999992000041313004+40450+050070FM-15-0001UBBB V0201001N00401220001CN0099001N1+01501+00901999999ADDMA1101391999999MW1001REMMET052UBBB 131300Z 10004MPS CAVOK 15/09 Q1014 NOSIG SC06 ;EQDQ01+000000PRSWM2
0104378640999992000041314004+40450+050070FM-15-0001UBBB V0200901N00301220001CN0099001N1+01401+00901999999ADDMA1101391999999MW1001REMMET052UBBB 131400Z 09003MPS CAVOK 14/09 Q1014 NOSIG SC06 ;EQDQ01+000000PRSWM2
0104378640999992000041315004+40450+050070FM-15-0001UBBB V0200901N00301220001CN0099001N1+01301+01001999999ADDMA1101391999999MW1001REMMET052UBBB 131500Z 09003MPS CAVOK 13/10 Q1014 NOSIG SC06 ;EQDQ01+000000PRSWM2
0104378640999992000041316004+40450+050070FM-15-0001UBBB V0209999C00001220001CN0099001N1+01301+01101999999ADDMA1101391999999MW1001REMMET052UBBB 131600Z 00000MPS CAVOK 13/11 Q1014 NOSIG SC06 ;EQDQ01+000000PRSWM2
0104378640999992000041317004+40450+050070FM-15-0001UBBB V0209999C00001220001CN0099001N1+01201+01101999999ADDMA1101491999999MW1001REMMET052UBBB 131700Z 00000MPS CAVOK 12/11 Q1015 NOSIG SC06 ;EQDQ01+000000PRSWM2
0104378640999992000041318004+40450+050070FM-15-0001UBBB V0209999C00001220001CN0099001N1+01201+01101999999ADDMA1101491999999MW1001REMMET052UBBB 131800Z 00000MPS CAVOK 12/11 Q1015 NOSIG SC06 ;EQDQ01+000000PRSWM2
0104378640999992000041319004+40450+050070FM-15-0001UBBB V0209999C00001220001CN0099001N1+01101+01001999999ADDMA1101491999999MW1001REMMET052UBBB 131900Z 00000MPS CAVOK 11/10 Q1015 NOSIG SC06 ;EQDQ01+000000PRSWM2
0104378640999992000041320004+40450+050070FM-15-0001UBBB V0209999C00001220001CN0099001N1+01101+01001999999ADDMA1101391999999MW1001REMMET052UBBB 132000Z 00000MPS CAVOK 11/10 Q1014 NOSIG SC06 ;EQDQ01+000000PRSWM2
0104378640999992000041321004+40450+050070FM-15-0001UBBB V0200301N00101220001CN0099001N1+01001+01001999999ADDMA1101391999999MW1001REMMET052UBBB 132100Z 03001MPS CAVOK 10/10 Q1014 NOSIG SC06 ;EQDQ01+000000PRSWM2
0104378640999992000041322004+40450+050070FM-15-0001UBBB V0209999C00001220001CN0099001N1+01001+01001999999ADDMA1101391999999MW1001REMMET052UBBB 132200Z 00000MPS CAVOK 10/10 Q1014 NOSIG SC06 ;EQDQ01+000000PRSWM2
0104378640999992000041323004+40450+050070FM-15-0001UBBB V0200601N00201220001CN0099001N1+01001+01001999999ADDMA1101391999999MW1001REMMET052UBBB 132300Z 06002MPS CAVOK 10/10 Q1014 NOSIG SC06 ;EQDQ01+000000PRSWM2
0104378640999992000041400004+40450+050070FM-15-0001UBBB V0209999C00001220001CN0099001N1+01001+01001999999ADDMA1101291999999MW1001REMMET052UBBB 140000Z 00000MPS CAVOK 10/10 Q1013 NOSIG SC06 ;EQDQ01+000000PRSWM2
0104378640999992000041401004+40450+050070FM-15-0001UBBB V0200501N00201220001CN0099001N1+00901+00901999999ADDMA1101191999999MW1001REMMET052UBBB 140100Z 05002MPS CAVOK 09/09 Q1012 NOSIG SC06 ;EQDQ01+000000PRSWM2
0118378640999992000041402004+40450+050070FM-15-0001UBBB V0209999C00001220001CN0099001N1+00901+00901999999ADDMA1101191999999MW1001REMMET066UBBB 140200Z 00000MPS CAVOK 09/09 Q1012 TEMPO 0800 FG BKN003 SC06;EQDQ01+000000PRSWM2
0104378640999992000041402304+40450+050070FM-15-0001UBBB V0209999C00001220001CN0099001N1+01101+01001999999ADDMA1101291999999MW1001REMMET052UBBB 140330Z 00000MPS CAVOK 11/10 Q1013 NOSIG SC06 ;EQDQ01+000000PRSWM2
0104378640999992000041404004+40450+050070FM-15-0001UBBB V0209999C00001220001CN0099001N1+01101+01101999999ADDMA1101291999999MW1001REMMET052UBBB 140400Z 00000MPS CAVOK 11/11 Q1013 NOSIG SC06 ;EQDQ01+000000PRSWM2
0104378640999992000041405004+40450+050070FM-15-0001UBBB V0209999C00001220001CN0099001N1+01301+01101999999ADDMA1101291999999MW1001REMMET052UBBB 140500Z 00000MPS CAVOK 13/11 Q1013 NOSIG SC06 ;EQDQ01+000000PRSWM2
0104378640999992000041406004+40450+050070FM-15-0001UBBB V0201201N00301220001CN0099001N1+01601+01001999999ADDMA1101191999999MW1001REMMET052UBBB 140600Z 12003MPS CAVOK 16/10 Q1012 NOSIG SC06 ;EQDQ01+000000PRSWM2
0104378640999992000041407004+40450+050070FM-15-0001UBBB V0201301N00301220001CN0099001N1+01901+00801999999ADDMA1101191999999MW1001REMMET052UBBB 140700Z 13003MPS CAVOK 19/08 Q1012 NOSIG SC06 ;EQDQ01+000000PRSWM2
0104378640999992000041408004+40450+050070FM-15-0001UBBB V0201701N00301220001CN0099001N1+02001+00801999999ADDMA1101081999999MW1001REMMET052UBBB 140800Z 17003MPS CAVOK 20/08 Q1011 NOSIG SC06 ;EQDQ01+000000PRSWM2
0104378640999992000041409004+40450+050070FM-15-0001UBBB V0201701N00301220001CN0099001N1+02001+00601999999ADDMA1101081999999MW1001REMMET052UBBB 140900Z 17003MPS CAVOK 20/06 Q1011 NOSIG SC06 ;EQDQ01+000000PRSWM2
0104378640999992000041410004+40450+050070FM-15-0001UBBB V0201401N00301220001CN0099001N1+02001+00501999999ADDMA1101021999999MW1001REMMET052UBBB 141000Z 14003MPS CAVOK 20/05 Q1010 NOSIG SC06 ;EQDQ01+000000PRSWM2
0104378640999992000041411004+40450+050070FM-15-0001UBBB V0201701N00401220001CN0099001N1+02101+00501999999ADDMA1100911999999MW1001REMMET052UBBB 141100Z 17004MPS CAVOK 21/05 Q1009 NOSIG SC06 ;EQDQ01+000000PRSWM2
0104378640999992000041413004+40450+050070FM-15-0001UBBB V0201201N00301220001CN0099001N1+02001+00501999999ADDMA1100811999999MW1001REMMET052UBBB 141300Z 12003MPS CAVOK 20/05 Q1008 NOSIG SC06 ;EQDQ01+000000PRSWM2
0104378640999992000041414004+40450+050070FM-15-0001UBBB V0201201N00301220001CN0099001N1+01901+00901999999ADDMA1100811999999MW1001REMMET052UBBB 141400Z 12003MPS CAVOK 19/09 Q1008 NOSIG SC06 ;EQDQ01+000000PRSWM2
0104378640999992000041414304+40450+050070FM-15-0001UBBB V0200501N00201220001CN0099001N1+01501+00801999999ADDMA1100811999999MW1001REMMET052UBBB 141530Z 05002MPS CAVOK 15/08 Q1008 NOSIG SC06 ;EQDQ01+000000PRSWM2
0104378640999992000041416004+40450+050070FM-15-0001UBBB V0200601N00201220001CN0099001N1+01501+00801999999ADDMA1100811999999MW1001REMMET052UBBB 141600Z 06002MPS CAVOK 15/08 Q1008 NOSIG SC06 ;EQDQ01+000000PRSWM2
0104378640999992000041417004+40450+050070FM-15-0001UBBB V0200501N00201220001CN0099001N1+01301+01101999999ADDMA1100911999999MW1001REMMET052UBBB 141700Z 05002MPS CAVOK 13/11 Q1009 NOSIG SC06 ;EQDQ01+000000PRSWM2
0104378640999992000041417304+40450+050070FM-15-0001UBBB V0209999C00001220001CN0099001N1+01301+01001999999ADDMA1100911999999MW1001REMMET052UBBB 141830Z 00000MPS CAVOK 13/10 Q1009 NOSIG SC06 ;EQDQ01+000000PRSWM2
0104378640999992000041419004+40450+050070FM-15-0001UBBB V0203001N00401220001CN0099001N1+01301+01001999999ADDMA1101021999999MW1001REMMET052UBBB 141900Z 30004MPS CAVOK 13/10 Q1010 NOSIG SC06 ;EQDQ01+000000PRSWM2
0179378640999992000041420004+40450+050070FM-15-0001UBBB V0203301N006010300019N0112651N1+01301+01001999999ADDGA1021+015009099GA2071+030009999GF107991999999999999999999MA1100911999999MW1001REMMET069UBBB 142000Z 33006MPS 9999 SCT050CB BKN100 13/10 Q1009 BECMG TZ SC06;EQDQ01+000000PRSWM2
0181378640999992000041421004+40450+050070FM-15-0001UBBB V0203301N009010300019N0112651N1+01201+01101999999ADDGA1021+015009099GA2071+030009999GF107991999999999999999999MA1100911999999MW1001REMMET071UBBB 142100Z 33009MPS 9999 SCT050CB BKN100 12/11 Q1009 BECMG TZ SC 06 ;EQDQ01+000000PRSWM2
0182378640999992000041422004+40450+050070FM-15-0001UBBB V0203301N010010150019N0112651N1+01101+01101999999ADDGA1071+015009099GA2071+030009999GF107991999999999999999999MA1100811999999MW1001REMMET072UBBB 142200Z 33010MPS 9999 BKN050CB BKN1000 11/11 Q1008 BECMG TZ SC0 6 ;EQDQ01+000000PRSWM2
0157378640999992000041423004+40450+050070FM-15-0001UBBB V0203301N009012200019N0112651N1+01101+01001999999ADDGA1021+015009099GF104991999999999999999999MA1100811999999MW1001REMMET063UBBB 142300Z 33009MPS 9999 SCT050CB 11/10 Q1008 TEMPO TZ SC06 ;EQDQ01+000000PRSWM2
0107378640999992000041500004+40450+050070FM-15-0001UBBB V0203201N00901220001CN0099001N1+01101+01001999999ADDMA1100811999999MW1001REMMET055UBBB 150000Z 32009MPS CAVOK 11/10 Q1008 TEMPO TZ SC06 ;EQDQ01+000000PRSWM2
0107378640999992000041501004+40450+050070FM-15-0001UBBB V0203201N00801220001CN0099001N1+01201+00801999999ADDMA1100811999999MW1001REMMET055UBBB 150100Z 32008MPS CAVOK 12/08 Q1008 TEMPO TZ SC06 ;EQDQ01+000000PRSWM2
0107378640999992000041502004+40450+050070FM-15-0001UBBB V0203201N00701220001CN0099001N1+01201+00801999999ADDMA1100811999999MW1001REMMET055UBBB 150200Z 32007MPS CAVOK 12/08 Q1008 TEMPO TZ SC06 ;EQDQ01+000000PRSWM2
0104378640999992000041503004+40450+050070FM-15-0001UBBB V0203201N00701220001CN0099001N1+01201+00701999999ADDMA1100911999999MW1001REMMET052UBBB 150300Z 32007MPS CAVOK 12/07 Q1009 NOSIG SC06 ;EQDQ01+000000PRSWM2
0104378640999992000041504004+40450+050070FM-15-0001UBBB V0203301N00901220001CN0099001N1+01301+00801999999ADDMA1100911999999MW1001REMMET052UBBB 150400Z 33009MPS CAVOK 13/08 Q1009 NOSIG SC06 ;EQDQ01+000000PRSWM2
0104378640999992000041505004+40450+050070FM-15-0001UBBB V0203301N01001220001CN0099001N1+01301+00801999999ADDMA1100911999999MW1001REMMET052UBBB 150500Z 33010MPS CAVOK 13/08 Q1009 NOSIG SC06 ;EQDQ01+000000PRSWM2
0104378640999992000041506004+40450+050070FM-15-0001UBBB V0203201N01101220001CN0099001N1+01501+00701999999ADDMA1100911999999MW1001REMMET052UBBB 150600Z 32011MPS CAVOK 15/07 Q1009 NOSIG SC06 ;EQDQ01+000000PRSWM2
0104378640999992000041507004+40450+050070FM-15-0001UBBB V0203201N01101220001CN0099001N1+01501+00801999999ADDMA1100911999999MW1001REMMET052UBBB 150700Z 32011MPS CAVOK 15/08 Q1009 NOSIG SC06 ;EQDQ01+000000PRSWM2
0104378640999992000041508004+40450+050070FM-15-0001UBBB V0203201N01101220001CN0099001N1+01601+00801999999ADDMA1100911999999MW1001REMMET052UBBB 150800Z 32011MPS CAVOK 16/08 Q1009 NOSIG SC06 ;EQDQ01+000000PRSWM2
0104378640999992000041509004+40450+050070FM-15-0001UBBB V0203201N01101220001CN0099001N1+01701+00801999999ADDMA1100911999999MW1001REMMET052UBBB 150900Z 32011MPS CAVOK 17/08 Q1009 NOSIG SC06 ;EQDQ01+000000PRSWM2
0104378640999992000041510004+40450+050070FM-15-0001UBBB V0203301N01201220001CN0099001N1+01601+00801999999ADDMA1100911999999MW1001REMMET052UBBB 151000Z 33012MPS CAVOK 16/08 Q1009 NOSIG SC06 ;EQDQ01+000000PRSWM2
0115378640999992000041511004+40450+050070FM-15-0001UBBB V0203301N00901220001CN0099001N1+01501+00801999999ADDMA1100811999999MW1001OC101401REMMET055UBBB 151100Z 33009G14MPS CAVOK 15/08 Q1008 NOSIG SC06 ;EQDQ01+000000PRSWM2
0104378640999992000041512004+40450+050070FM-15-0001UBBB V0203301N01201220001CN0099001N1+01501+00801999999ADDMA1100911999999MW1001REMMET052UBBB 151200Z 33012MPS CAVOK 15/08 Q1009 NOSIG SC06 ;EQDQ01+000000PRSWM2
0104378640999992000041513004+40450+050070FM-15-0001UBBB V0203301N01201220001CN0099001N1+01501+00801999999ADDMA1100811999999MW1001REMMET052UBBB 151300Z 33012MPS CAVOK 15/08 Q1008 NOSIG SC06 ;EQDQ01+000000PRSWM2
0104378640999992000041514004+40450+050070FM-15-0001UBBB V0203301N01001220001CN0099001N1+01501+00701999999ADDMA1100911999999MW1001REMMET052UBBB 151400Z 33010MPS CAVOK 15/07 Q1009 NOSIG SC06 ;EQDQ01+000000PRSWM2
0104378640999992000041515004+40450+050070FM-15-0001UBBB V0203301N01001220001CN0099001N1+01401+00701999999ADDMA1101021999999MW1001REMMET052UBBB 151500Z 33010MPS CAVOK 14/07 Q1010 NOSIG SC06 ;EQDQ01+000000PRSWM2
0104378640999992000041516004+40450+050070FM-15-0001UBBB V0203301N01001220001CN0099001N1+01301+00701999999ADDMA1101021999999MW1001REMMET052UBBB 151600Z 33010MPS CAVOK 13/07 Q1010 NOSIG SC06 ;EQDQ01+000000PRSWM2
0104378640999992000041517004+40450+050070FM-15-0001UBBB V0203301N00801220001CN0099001N1+01301+00801999999ADDMA1101081999999MW1001REMMET052UBBB 151700Z 33008MPS CAVOK 13/08 Q1011 NOSIG SC06 ;EQDQ01+000000PRSWM2
0104378640999992000041518004+40450+050070FM-15-0001UBBB V0203201N01001220001CN0099001N1+01301+00801999999ADDMA1101081999999MW1001REMMET052UBBB 151800Z 32010MPS CAVOK 13/08 Q1011 NOSIG SC06 ;EQDQ01+000000PRSWM2
0104378640999992000041519004+40450+050070FM-15-0001UBBB V0203201N00901220001CN0099001N1+01301+00801999999ADDMA1101191999999MW1001REMMET052UBBB 151900Z 32009MPS CAVOK 13/08 Q1012 NOSIG SC06 ;EQDQ01+000000PRSWM2
0104378640999992000041520004+40450+050070FM-15-0001UBBB V0203201N00901220001CN0099001N1+01201+00901999999ADDMA1101191999999MW1001REMMET052UBBB 152000Z 32009MPS CAVOK 12/09 Q1012 NOSIG SC06 ;EQDQ01+000000PRSWM2
0104378640999992000041521004+40450+050070FM-15-0001UBBB V0203201N00701220001CN0099001N1+01301+00901999999ADDMA1101191999999MW1001REMMET052UBBB 152100Z 32007MPS CAVOK 13/09 Q1012 NOSIG SC06 ;EQDQ01+000000PRSWM2
0104378640999992000041522004+40450+050070FM-15-0001UBBB V0203201N00801220001CN0099001N1+01201+00901999999ADDMA1101191999999MW1001REMMET052UBBB 152200Z 32008MPS CAVOK 12/09 Q1012 NOSIG SC06 ;EQDQ01+000000PRSWM2
0104378640999992000041523004+40450+050070FM-15-0001UBBB V0203201N00701220001CN0099001N1+01201+00901999999ADDMA1101081999999MW1001REMMET052UBBB 152300Z 32007MPS CAVOK 12/09 Q1011 NOSIG SC06 ;EQDQ01+000000PRSWM2
0104378640999992000041600004+40450+050070FM-15-0001UBBB V0203001N00601220001CN0099001N1+01101+00901999999ADDMA1101191999999MW1001REMMET052UBBB 160000Z 30006MPS CAVOK 11/09 Q1012 NOSIG SC06 ;EQDQ01+000000PRSWM2
0104378640999992000041601004+40450+050070FM-15-0001UBBB V0203001N00501220001CN0099001N1+01101+00901999999ADDMA1101191999999MW1001REMMET052UBBB 160100Z 30005MPS CAVOK 11/09 Q1012 NOSIG SC06 ;EQDQ01+000000PRSWM2
0104378640999992000041602004+40450+050070FM-15-0001UBBB V0202901N00401220001CN0099001N1+01101+01001999999ADDMA1101291999999MW1001REMMET052UBBB 160200Z 29004MPS CAVOK 11/10 Q1013 NOSIG SC06 ;EQDQ01+000000PRSWM2
0104378640999992000041603004+40450+050070FM-15-0001UBBB V0203201N00701220001CN0099001N1+01201+00901999999ADDMA1101291999999MW1001REMMET052UBBB 160300Z 32007MPS CAVOK 12/09 Q1013 NOSIG SC06 ;EQDQ01+000000PRSWM2
0104378640999992000041604004+40450+050070FM-15-0001UBBB V0203201N00601220001CN0099001N1+01401+00901999999ADDMA1101391999999MW1001REMMET052UBBB 160400Z 32006MPS CAVOK 14/09 Q1014 NOSIG SC06 ;EQDQ01+000000PRSWM2
0104378640999992000041605004+40450+050070FM-15-0001UBBB V0203101N00601220001CN0099001N1+01501+00901999999ADDMA1101491999999MW1001REMMET052UBBB 160500Z 31006MPS CAVOK 15/09 Q1015 NOSIG SC06 ;EQDQ01+000000PRSWM2
0104378640999992000041606004+40450+050070FM-15-0001UBBB V0203201N00601220001CN0099001N1+01601+00901999999ADDMA1101491999999MW1001REMMET052UBBB 160600Z 32006MPS CAVOK 16/09 Q1015 NOSIG SC06 ;EQDQ01+000000PRSWM2
0104378640999992000041607004+40450+050070FM-15-0001UBBB V0203301N00701220001CN0099001N1+01701+00801999999ADDMA1101491999999MW1001REMMET052UBBB 160700Z 33007MPS CAVOK 17/08 Q1015 NOSIG SC06 ;EQDQ01+000000PRSWM2
0104378640999992000041608004+40450+050070FM-15-0001UBBB V0203301N00801220001CN0099001N1+01701+00801999999ADDMA1101391999999MW1001REMMET052UBBB 160800Z 33008MPS CAVOK 17/08 Q1014 NOSIG SC06 ;EQDQ01+000000PRSWM2
0104378640999992000041609004+40450+050070FM-15-0001UBBB V0203301N00801220001CN0099001N1+01801+00801999999ADDMA1101391999999MW1001REMMET052UBBB 160900Z 33008MPS CAVOK 18/08 Q1014 NOSIG SC06 ;EQDQ01+000000PRSWM2
0104378640999992000041610004+40450+050070FM-15-0001UBBB V0203401N00801220001CN0099001N1+01801+01001999999ADDMA1101391999999MW1001REMMET052UBBB 161000Z 34008MPS CAVOK 18/10 Q1014 NOSIG SC06 ;EQDQ01+000000PRSWM2
0104378640999992000041611004+40450+050070FM-15-0001UBBB V0203501N00801220001CN0099001N1+01701+01001999999ADDMA1101391999999MW1001REMMET052UBBB 161100Z 35008MPS CAVOK 17/10 Q1014 NOSIG SC06 ;EQDQ01+000000PRSWM2
0104378640999992000041612004+40450+050070FM-15-0001UBBB V0203501N00701220001CN0099001N1+01701+01001999999ADDMA1101391999999MW1001REMMET052UBBB 161200Z 35007MPS CAVOK 17/10 Q1014 NOSIG SC06 ;EQDQ01+000000PRSWM2
0104378640999992000041613004+40450+050070FM-15-0001UBBB V0203401N00801220001CN0099001N1+01501+01001999999ADDMA1101291999999MW1001REMMET052UBBB 161300Z 34008MPS CAVOK 15/10 Q1013 NOSIG SC06 ;EQDQ01+000000PRSWM2
0104378640999992000041614004+40450+050070FM-15-0001UBBB V0203401N00701220001CN0099001N1+01401+01001999999ADDMA1101391999999MW1001REMMET052UBBB 161400Z 34007MPS CAVOK 14/10 Q1014 NOSIG SC06 ;EQDQ01+000000PRSWM2
0104378640999992000041615004+40450+050070FM-15-0001UBBB V0203301N00401220001CN0099001N1+01301+01001999999ADDMA1101391999999MW1001REMMET052UBBB 161500Z 33004MPS CAVOK 13/10 Q1014 NOSIG SC06 ;EQDQ01+000000PRSWM2
0104378640999992000041616004+40450+050070FM-15-0001UBBB V0203301N00401220001CN0099001N1+01201+01001999999ADDMA1101491999999MW1001REMMET052UBBB 161600Z 33004MPS CAVOK 12/10 Q1015 NOSIG SC06 ;EQDQ01+000000PRSWM2
0104378640999992000041617004+40450+050070FM-15-0001UBBB V0203201N00401220001CN0099001N1+01201+01001999999ADDMA1101491999999MW1001REMMET052UBBB 161700Z 32004MPS CAVOK 12/10 Q1015 NOSIG SC06 ;EQDQ01+000000PRSWM2
0104378640999992000041618004+40450+050070FM-15-0001UBBB V0203301N00501220001CN0099001N1+01201+01001999999ADDMA1101491999999MW1001REMMET052UBBB 161800Z 33005MPS CAVOK 12/10 Q1015 NOSIG SC06 ;EQDQ01+000000PRSWM2
0104378640999992000041619004+40450+050070FM-15-0001UBBB V0203401N00501220001CN0099001N1+01301+01001999999ADDMA1101491999999MW1001REMMET052UBBB 161900Z 34005MPS CAVOK 13/10 Q1015 NOSIG SC06 ;EQDQ01+000000PRSWM2
0198378640999992000041619254+40450+050070FM-15-0001UBBB V0203401N006010300019N0112651N1+01301+01001999999ADDGA1021+015009099GA2071+030009999GF107991999999999999999999MA1101491999999MW1171REMMET072UBBB 161925Z 34006MPS 9999 TS SCT050CB BKN100 13/10 Q1015 BECMG TS SC06;EQDQ01+000003PRSWM1Q02    003PRSWM1
0176378640999992000041620004+40450+050070FM-15-0001UBBB V0203401N005010300019N0112651N1+01301+01001999999ADDGA1021+015009099GA2071+030009999GF107991999999999999999999MA1101591999999MW1001REMMET066UBBB 162000Z 34005MPS 9999 SCT050CB BKN100 13/10 Q1016 NOSIG SC06;EQDQ01+000000PRSWM2
0157378640999992000041621004+40450+050070FM-15-0001UBBB V0203301N003012200019N0112651N1+01201+00901999999ADDGA1021+015009099GF104991999999999999999999MA1101491999999MW1001REMMET063UBBB 162100Z 33003MPS 9999 SCT050CB 12/09 Q1015 TEMPO TS SC06 ;EQDQ01+000000PRSWM2
0157378640999992000041622004+40450+050070FM-15-0001UBBB V0203101N004012200019N0112651N1+01201+01001999999ADDGA1021+015009099GF104991999999999999999999MA1101491999999MW1001REMMET063UBBB 162200Z 31004MPS 9999 SCT050CB 12/10 Q1015 TEMPO TS SC06 ;EQDQ01+000000PRSWM2
0154378640999992000041623004+40450+050070FM-15-0001UBBB V0203301N003012200019N0112651N1+01201+01001999999ADDGA1021+015009099GF102991999999999999999999MA1101491999999MW1001REMMET060UBBB 162300Z 33003MPS 9999 FEW050CB 12/10 Q1015 NOSIG SC06 ;EQDQ01+000000PRSWM2
0154378640999992000041700004+40450+050070FM-15-0001UBBB V0202901N003012200019N0112651N1+01201+01101999999ADDGA1021+015009099GF102991999999999999999999MA1101491999999MW1001REMMET060UBBB 170000Z 29003MPS 9999 FEW050CB 12/11 Q1015 NOSIG SC06 ;EQDQ01+000000PRSWM2
0153378640999992000041701004+40450+050070FM-15-0001UBBB V0203501N002012200019N0112651N1+01201+01101999999ADDGA1021+015009099GF102991999999999999999999MA1101491999999MW1001REMMET059UBBB 170100Z 35002MPS 9999 FEW050CB 12/11 Q1015 NOSIG SC06;EQDQ01+000000PRSWM2
0104378640999992000041702004+40450+050070FM-15-0001UBBB V0209999C00001220001CN0099001N1+01201+01101999999ADDMA1101491999999MW1001REMMET052UBBB 170200Z 00000MPS CAVOK 12/11 Q1015 NOSIG SC06 ;EQDQ01+000000PRSWM2
0104378640999992000041703004+40450+050070FM-15-0001UBBB V0209999C00001220001CN0099001N1+01201+01101999999ADDMA1101591999999MW1001REMMET052UBBB 170300Z 00000MPS CAVOK 12/11 Q1016 NOSIG SC06 ;EQDQ01+000000PRSWM2
0104378640999992000041704004+40450+050070FM-15-0001UBBB V0209999C00001220001CN0099001N1+01601+01201999999ADDMA1101691999999MW1001REMMET052UBBB 170400Z 00000MPS CAVOK 16/12 Q1017 NOSIG SC06 ;EQDQ01+000000PRSWM2
0104378640999992000041705004+40450+050070FM-15-0001UBBB V0203301N00201220001CN0099001N1+01801+01101999999ADDMA1101691999999MW1001REMMET052UBBB 170500Z 33002MPS CAVOK 18/11 Q1017 NOSIG SC06 ;EQDQ01+000000PRSWM2
0089378640999992000041705304+40450+050070FM-15-0001UBBB V0203501N00301220001CN0099001N1+02001+01101999999ADDMW1001REMMET052UBBB 170630Z 35003MPS CAVOK 20/11 /Q101 NOSIG SC06 ;EQDQ01+000000PRSWM2
0085378640999992000041706004+40450+050070FM-16-0001UBBB V0203201N00201220001CN0099001N1+99999+99999999999ADDMW1001REMMET048UBBB 170600Z 32002MPS CAVOK /// /// NOSIG SC06 ;EQDQ01+000000PRSWM2
0104378640999992000041707004+40450+050070FM-15-0001UBBB V0203501N00201220001CN0099001N1+02001+01101999999ADDMA1101691999999MW1001REMMET052UBBB 170700Z 35002MPS CAVOK 20/11 Q1017 NOSIG SC06 ;EQDQ01+000000PRSWM2
0152378640999992000041707304+40450+050070FM-15-0001UBBB V0200301N003012200019N0112651N1+02101+01101999999ADDGA1021+008109999GF102991999999999999999999MA1101591999999MW1001REMMET058UBBB 170830Z 03003MPS 9999 FEW027 21/11 Q1016 NOSIG SC06 ;EQDQ01+000000PRSWM2
0152378640999992000041709004+40450+050070FM-15-0001UBBB V0200401N004012200019N0112651N1+02101+01001999999ADDGA1021+008409999GF102991999999999999999999MA1101591999999MW1001REMMET058UBBB 170900Z 04004MPS 9999 FEW028 21/10 Q1016 NOSIG SC06 ;EQDQ01+000000PRSWM2
0104378640999992000041710004+40450+050070FM-15-0001UBBB V0200401N00401220001CN0099001N1+02101+01001999999ADDMA1101591999999MW1001REMMET052UBBB 171000Z 04004MPS CAVOK 21/10 Q1016 NOSIG SC06 ;EQDQ01+000000PRSWM2
0104378640999992000041711004+40450+050070FM-15-0001UBBB V0200201N00301220001CN0099001N1+02101+01001999999ADDMA1101591999999MW1001REMMET052UBBB 171100Z 02003MPS CAVOK 21/10 Q1016 NOSIG SC06 ;EQDQ01+000000PRSWM2
0231378640999992000041712004+40450+050070SY-MT-0001UBBB V0200501N002112200019N0100001N1+02181+01101101741ADDAA199000091GF100991001001999999001001MA1101591999999MD1810061+9999MW1001REMSYN054AAXX  17124 37864 32997 00504 10218 20110 40174 58006;MET052UBBB 171200Z 05005MPS CAVOK 19/10 Q1016 NOSIG SC06 ;EQDQ01+000000PRSWM2Q02  00002PRCP99
0104378640999992000041713004+40450+050070FM-15-0001UBBB V0200601N00401220001CN0099001N1+01801+01001999999ADDMA1101591999999MW1001REMMET052UBBB 171300Z 06004MPS CAVOK 18/10 Q1016 NOSIG SC06 ;EQDQ01+000000PRSWM2
0104378640999992000041714004+40450+050070FM-15-0001UBBB V0200501N00301220001CN0099001N1+01701+01001999999ADDMA1101591999999MW1001REMMET052UBBB 171400Z 05003MPS CAVOK 17/10 Q1016 NOSIG SC06 ;EQDQ01+000000PRSWM2
0103378640999992000041715004+40450+050070FM-15-0001UBBB V0200201N00301220001CN0099001N1+01501+01001999999ADDMA1101591999999MW1001REMMET051UBBB 171500Z 02003MPS CAVOK 15/10 Q1016 NOSIG SC07;EQDQ01+000000PRSWM2
0104378640999992000041716004+40450+050070FM-15-0001UBBB V0209999C00001220001CN0099001N1+01401+01001999999ADDMA1101591999999MW1001REMMET052UBBB 171600Z 00000MPS CAVOK 14/10 Q1016 NOSIG SC06 ;EQDQ01+000000PRSWM2
0104378640999992000041717004+40450+050070FM-15-0001UBBB V0209999C00001220001CN0099001N1+01401+01001999999ADDMA1101691999999MW1001REMMET052UBBB 171700Z 00000MPS CAVOK 14/10 Q1017 NOSIG SC06 ;EQDQ01+000000PRSWM2
0104378640999992000041718004+40450+050070FM-15-0001UBBB V0209999C00001220001CN0099001N1+01301+01001999999ADDMA1101691999999MW1001REMMET052UBBB 171800Z 00000MPS CAVOK 13/10 Q1017 NOSIG SC06 ;EQDQ01+000000PRSWM2
0104378640999992000041719004+40450+050070FM-15-0001UBBB V0209999C00001220001CN0099001N1+01201+00901999999ADDMA1101691999999MW1001REMMET052UBBB 171900Z 00000MPS CAVOK 12/09 Q1017 NOSIG SC06 ;EQDQ01+000000PRSWM2
0104378640999992000041719304+40450+050070FM-15-0001UBBB V0209999C00001220001CN0099001N1+01201+01001999999ADDMA1101591999999MW1001REMMET052UBBB 172030Z 00000MPS CAVOK 12/10 Q1016 NOSIG SC06 ;EQDQ01+000000PRSWM2
0104378640999992000041721004+40450+050070FM-15-0001UBBB V0209999C00001220001CN0099001N1+01201+01101999999ADDMA1101591999999MW1001REMMET052UBBB 172100Z 00000MPS CAVOK 12/11 Q1016 NOSIG SC06 ;EQDQ01+000000PRSWM2
0104378640999992000041722004+40450+050070FM-15-0001UBBB V0209999C00001220001CN0099001N1+01101+01001999999ADDMA1101591999999MW1001REMMET052UBBB 172200Z 00000MPS CAVOK 11/10 Q1016 NOSIG SC06 ;EQDQ01+000000PRSWM2
0104378640999992000041723004+40450+050070FM-15-0001UBBB V0209999C00001220001CN0099001N1+01101+01001999999ADDMA1101491999999MW1001REMMET052UBBB 172300Z 00000MPS CAVOK 11/10 Q1015 NOSIG SC06 ;EQDQ01+000000PRSWM2
0104378640999992000041800004+40450+050070FM-15-0001UBBB V0201201N00201220001CN0099001N1+01101+01001999999ADDMA1101491999999MW1001REMMET052UBBB 180000Z 12002MPS CAVOK 11/10 Q1015 NOSIG SC06 ;EQDQ01+000000PRSWM2
0104378640999992000041801004+40450+050070FM-15-0001UBBB V0209999C00001220001CN0099001N1+00901+00901999999ADDMA1101491999999MW1001REMMET052UBBB 180100Z 00000MPS CAVOK 09/09 Q1015 NOSIG SC06 ;EQDQ01+000000PRSWM2
0104378640999992000041802004+40450+050070FM-15-0001UBBB V0209999C00001220001CN0099001N1+01001+00901999999ADDMA1101491999999MW1001REMMET052UBBB 180200Z 00000MPS CAVOK 10/09 Q1015 NOSIG SC06 ;EQDQ01+000000PRSWM2
0104378640999992000041803004+40450+050070FM-15-0001UBBB V0209999C00001220001CN0099001N1+01101+01101999999ADDMA1101491999999MW1001REMMET052UBBB 180300Z 00000MPS CAVOK 11/11 Q1015 NOSIG SC06 ;EQDQ01+000000PRSWM2
0104378640999992000041804004+40450+050070FM-15-0001UBBB V0201401N00201220001CN0099001N1+01301+01301999999ADDMA1101491999999MW1001REMMET052UBBB 180400Z 14002MPS CAVOK 13/13 Q1015 NOSIG SC06 ;EQDQ01+000000PRSWM2
0104378640999992000041805004+40450+050070FM-15-0001UBBB V0201701N00201220001CN0099001N1+01601+01201999999ADDMA1101491999999MW1001REMMET052UBBB 180500Z 17002MPS CAVOK 16/12 Q1015 NOSIG SC06 ;EQDQ01+000000PRSWM2
0104378640999992000041806004+40450+050070FM-15-0001UBBB V0201601N00401220001CN0099001N1+01701+01101999999ADDMA1101491999999MW1001REMMET052UBBB 180600Z 16004MPS CAVOK 17/11 Q1015 NOSIG SC06 ;EQDQ01+000000PRSWM2
0104378640999992000041807004+40450+050070FM-15-0001UBBB V0201701N00401220001CN0099001N1+01701+01101999999ADDMA1101591999999MW1001REMMET052UBBB 180700Z 17004MPS CAVOK 17/11 Q1016 NOSIG SC06 ;EQDQ01+000000PRSWM2
0104378640999992000041808004+40450+050070FM-15-0001UBBB V0201701N00501220001CN0099001N1+01801+01001999999ADDMA1101491999999MW1001REMMET052UBBB 180800Z 17005MPS CAVOK 18/10 Q1015 NOSIG SC06 ;EQDQ01+000000PRSWM2
0104378640999992000041809004+40450+050070FM-15-0001UBBB V0201701N00501220001CN0099001N1+01901+00901999999ADDMA1101391999999MW1001REMMET052UBBB 180900Z 17005MPS CAVOK 19/09 Q1014 NOSIG SC06 ;EQDQ01+000000PRSWM2
0104378640999992000041809304+40450+050070FM-15-0001UBBB V0201701N00501220001CN0099001N1+01901+00901999999ADDMA1101391999999MW1001REMMET052UBBB 181030Z 17005MPS CAVOK 19/09 Q1014 NOSIG SC06 ;EQDQ01+000000PRSWM2
0104378640999992000041811004+40450+050070FM-15-0001UBBB V0201501N00501220001CN0099001N1+01901+01001999999ADDMA1101391999999MW1001REMMET052UBBB 181100Z 15005MPS CAVOK 19/10 Q1014 NOSIG SC06 ;EQDQ01+000000PRSWM2
0104378640999992000041812004+40450+050070FM-15-0001UBBB V0201701N00501220001CN0099001N1+01901+01001999999ADDMA1101391999999MW1001REMMET052UBBB 181200Z 17005MPS CAVOK 19/10 Q1014 NOSIG SC06 ;EQDQ01+000000PRSWM2
0104378640999992000041813004+40450+050070FM-15-0001UBBB V0201701N00501220001CN0099001N1+01801+01101999999ADDMA1101291999999MW1001REMMET052UBBB 181300Z 17005MPS CAVOK 18/11 Q1013 NOSIG SC06 ;EQDQ01+000000PRSWM2
0104378640999992000041814004+40450+050070FM-15-0001UBBB V0201701N00401220001CN0099001N1+01701+01101999999ADDMA1101291999999MW1001REMMET052UBBB 181400Z 17004MPS CAVOK 17/11 Q1013 NOSIG SC06 ;EQDQ01+000000PRSWM2
0104378640999992000041815004+40450+050070FM-15-0001UBBB V0201701N00401220001CN0099001N1+01601+01201999999ADDMA1101291999999MW1001REMMET052UBBB 181500Z 17004MPS CAVOK 16/12 Q1013 NOSIG SC06 ;EQDQ01+000000PRSWM2
0104378640999992000041816004+40450+050070FM-15-0001UBBB V0201801N00401220001CN0099001N1+01501+01301999999ADDMA1101391999999MW1001REMMET052UBBB 181600Z 18004MPS CAVOK 15/13 Q1014 NOSIG SC06 ;EQDQ01+000000PRSWM2
0107378640999992000041817004+40450+050070FM-15-0001UBBB V0201801N00301220001CN0099001N1+01401+01401999999ADDMA1101391999999MW1001REMMET055UBBB 181700Z 18003MPS CAVOK 14/14 Q1014 TEMPO TZ SC06 ;EQDQ01+000000PRSWM2
0107378640999992000041818004+40450+050070FM-15-0001UBBB V0201701N00401220001CN0099001N1+01401+01301999999ADDMA1101391999999MW1001REMMET055UBBB 181800Z 17004MPS CAVOK 14/13 Q1014 TEMPO TZ SC06 ;EQDQ01+000000PRSWM2
0104378640999992000041819004+40450+050070FM-15-0001UBBB V0201601N00301220001CN0099001N1+01401+01301999999ADDMA1101391999999MW1001REMMET052UBBB 181900Z 16003MPS CAVOK 14/13 Q1014 NOSIG SC06 ;EQDQ01+000000PRSWM2
0104378640999992000041820004+40450+050070FM-15-0001UBBB V0201601N00401220001CN0099001N1+01401+01301999999ADDMA1101291999999MW1001REMMET052UBBB 182000Z 16004MPS CAVOK 14/13 Q1013 NOSIG SC06 ;EQDQ01+000000PRSWM2
0104378640999992000041821004+40450+050070FM-15-0001UBBB V0201501N00401220001CN0099001N1+01401+01301999999ADDMA1101191999999MW1001REMMET052UBBB 182100Z 15004MPS CAVOK 14/13 Q1012 NOSIG SC06 ;EQDQ01+000000PRSWM2
0104378640999992000041822004+40450+050070FM-15-0001UBBB V0201901N00201220001CN0099001N1+01401+01301999999ADDMA1101191999999MW1001REMMET052UBBB 182200Z 19002MPS CAVOK 14/13 Q1012 NOSIG SC06 ;EQDQ01+000000PRSWM2
0104378640999992000041823004+40450+050070FM-15-0001UBBB V0201501N00201220001CN0099001N1+01301+01201999999ADDMA1101191999999MW1001REMMET052UBBB 182300Z 15002MPS CAVOK 13/12 Q1012 NOSIG SC06 ;EQDQ01+000000PRSWM2
0104378640999992000041823304+40450+050070FM-15-0001UBBB V0201501N00201220001CN0099001N1+01301+01301999999ADDMA1101191999999MW1001REMMET052UBBB 190030Z 15002MPS CAVOK 13/13 Q1012 NOSIG SC06 ;EQDQ01+000000PRSWM2
0104378640999992000041901004+40450+050070FM-15-0001UBBB V0201501N00301220001CN0099001N1+01301+01301999999ADDMA1101081999999MW1001REMMET052UBBB 190100Z 15003MPS CAVOK 13/13 Q1011 NOSIG SC06 ;EQDQ01+000000PRSWM2
0104378640999992000041902004+40450+050070FM-15-0001UBBB V0201701N00401220001CN0099001N1+01401+01301999999ADDMA1101191999999MW1001REMMET052UBBB 190200Z 17004MPS CAVOK 14/13 Q1012 NOSIG SC06 ;EQDQ01+000000PRSWM2
0104378640999992000041903004+40450+050070FM-15-0001UBBB V0201701N00501220001CN0099001N1+01401+01301999999ADDMA1101191999999MW1001REMMET052UBBB 190300Z 17005MPS CAVOK 14/13 Q1012 NOSIG SC06 ;EQDQ01+000000PRSWM2
0104378640999992000041904004+40450+050070FM-15-0001UBBB V0201801N00501220001CN0099001N1+01501+01301999999ADDMA1101191999999MW1001REMMET052UBBB 190400Z 18005MPS CAVOK 15/13 Q1012 NOSIG SC06 ;EQDQ01+000000PRSWM2
0104378640999992000041905004+40450+050070FM-15-0001UBBB V0201801N00601220001CN0099001N1+01701+01301999999ADDMA1101191999999MW1001REMMET052UBBB 190500Z 18006MPS CAVOK 17/13 Q1012 NOSIG SC06 ;EQDQ01+000000PRSWM2
0099378640999992000041906004+40450+050070FM-15-0001UBBB V0201801N00701220001CN0099001N1+99999+99999999999ADDMW1001REMMET062UBBB 190600Z 18007MPS CAVOK R18/3000N 18/12 Q1012 NOSIG SC06 ;EQDQ01+000000PRSWM2
0104378640999992000041907004+40450+050070FM-15-0001UBBB V0201801N00901220001CN0099001N1+01901+01001999999ADDMA1101191999999MW1001REMMET052UBBB 190700Z 18009MPS CAVOK 19/10 Q1012 NOSIG SC06 ;EQDQ01+000000PRSWM2
0104378640999992000041908004+40450+050070FM-15-0001UBBB V0201901N00901220001CN0099001N1+01901+01001999999ADDMA1101081999999MW1001REMMET052UBBB 190800Z 19009MPS CAVOK 19/10 Q1011 NOSIG SC06 ;EQDQ01+000000PRSWM2
0104378640999992000041909004+40450+050070FM-15-0001UBBB V0201901N00801220001CN0099001N1+02001+01101999999ADDMA1101021999999MW1001REMMET052UBBB 190900Z 19008MPS CAVOK 20/11 Q1010 NOSIG SC06 ;EQDQ01+000000PRSWM2
0104378640999992000041910004+40450+050070FM-15-0001UBBB V0201701N00701220001CN0099001N1+02101+01301999999ADDMA1100911999999MW1001REMMET052UBBB 191000Z 17007MPS CAVOK 21/13 Q1009 NOSIG SC06 ;EQDQ01+000000PRSWM2
0104378640999992000041911004+40450+050070FM-15-0001UBBB V0201801N00601220001CN0099001N1+02001+01301999999ADDMA1101021999999MW1001REMMET052UBBB 191100Z 18006MPS CAVOK 20/13 Q1010 NOSIG SC06 ;EQDQ01+000000PRSWM2
0104378640999992000041912004+40450+050070FM-15-0001UBBB V0201701N00501220001CN0099001N1+01801+01301999999ADDMA1100911999999MW1001REMMET052UBBB 191200Z 17005MPS CAVOK 18/13 Q1009 NOSIG SC06 ;EQDQ01+000000PRSWM2
0104378640999992000041913004+40450+050070FM-15-0001UBBB V0201901N00401220001CN0099001N1+01901+01201999999ADDMA1101021999999MW1001REMMET052UBBB 191300Z 19004MPS CAVOK 19/12 Q1010 NOSIG SC06 ;EQDQ01+000000PRSWM2
0104378640999992000041914004+40450+050070FM-15-0001UBBB V0201501N00401220001CN0099001N1+01801+01201999999ADDMA1100911999999MW1001REMMET052UBBB 191400Z 15004MPS CAVOK 18/12 Q1009 NOSIG SC06 ;EQDQ01+000000PRSWM2
0104378640999992000041915004+40450+050070FM-15-0001UBBB V0201601N00301220001CN0099001N1+01701+01201999999ADDMA1100911999999MW1001REMMET052UBBB 191500Z 16003MPS CAVOK 17/12 Q1009 NOSIG SC06 ;EQDQ01+000000PRSWM2
0104378640999992000041916004+40450+050070FM-15-0001UBBB V0201601N00401220001CN0099001N1+01501+01201999999ADDMA1100911999999MW1001REMMET052UBBB 191600Z 16004MPS CAVOK 15/12 Q1009 NOSIG SC06 ;EQDQ01+000000PRSWM2
0104378640999992000041917004+40450+050070FM-15-0001UBBB V0201701N00401220001CN0099001N1+01501+01201999999ADDMA1100911999999MW1001REMMET052UBBB 191700Z 17004MPS CAVOK 15/12 Q1009 NOSIG SC06 ;EQDQ01+000000PRSWM2
0104378640999992000041918004+40450+050070FM-15-0001UBBB V0201701N00401220001CN0099001N1+01501+01201999999ADDMA1100911999999MW1001REMMET052UBBB 191800Z 17004MPS CAVOK 15/12 Q1009 NOSIG SC06 ;EQDQ01+000000PRSWM2
0104378640999992000041919004+40450+050070FM-15-0001UBBB V0201801N00601220001CN0099001N1+01501+01401999999ADDMA1100911999999MW1001REMMET052UBBB 191900Z 18006MPS CAVOK 15/14 Q1009 NOSIG SC06 ;EQDQ01+000000PRSWM2
0104378640999992000041920004+40450+050070FM-15-0001UBBB V0201801N00501220001CN0099001N1+01501+01401999999ADDMA1100811999999MW1001REMMET052UBBB 192000Z 18005MPS CAVOK 15/14 Q1008 NOSIG SC06 ;EQDQ01+000000PRSWM2
0104378640999992000041921004+40450+050070FM-15-0001UBBB V0201801N00401220001CN0099001N1+01401+01401999999ADDMA1100811999999MW1001REMMET052UBBB 192100Z 18004MPS CAVOK 14/14 Q1008 NOSIG SC06 ;EQDQ01+000000PRSWM2
0104378640999992000041922004+40450+050070FM-15-0001UBBB V0201701N00501220001CN0099001N1+01401+01301999999ADDMA1100711999999MW1001REMMET052UBBB 192200Z 17005MPS CAVOK 14/13 Q1007 NOSIG SC06 ;EQDQ01+000000PRSWM2
0104378640999992000041923004+40450+050070FM-15-0001UBBB V0201701N00401220001CN0099001N1+01401+01301999999ADDMA1100711999999MW1001REMMET052UBBB 192300Z 17004MPS CAVOK 14/13 Q1007 NOSIG SC06 ;EQDQ01+000000PRSWM2
0104378640999992000042000004+40450+050070FM-15-0001UBBB V0201801N00501220001CN0099001N1+01401+01401999999ADDMA1100711999999MW1001REMMET052UBBB 200000Z 18005MPS CAVOK 14/14 Q1007 NOSIG SC06 ;EQDQ01+000000PRSWM2
0104378640999992000042000304+40450+050070FM-15-0001UBBB V0201901N00501220001CN0099001N1+01401+01301999999ADDMA1100711999999MW1001REMMET052UBBB 200130Z 19005MPS CAVOK 14/13 Q1007 NOSIG SC06 ;EQDQ01+000000PRSWM2
0104378640999992000042002004+40450+050070FM-15-0001UBBB V0201901N00601220001CN0099001N1+01401+01301999999ADDMA1100811999999MW1001REMMET052UBBB 200200Z 19006MPS CAVOK 14/13 Q1008 NOSIG SC06 ;EQDQ01+000000PRSWM2
0103378640999992000042003004+40450+050070FM-15-0001UBBB V0201701N00501220001CN0099001N1+01501+01401999999ADDMA1100711999999MW1001REMMET051UBBB 200300Z 17005MPS CAVOK 15/14 Q1007 NOSIG SC06;EQDQ01+000000PRSWM2
0104378640999992000042004004+40450+050070FM-15-0001UBBB V0201901N00701220001CN0099001N1+01601+01401999999ADDMA1100811999999MW1001REMMET052UBBB 200400Z 19007MPS CAVOK 16/14 Q1008 NOSIG SC06 ;EQDQ01+000000PRSWM2
0176378640999992000042005004+40450+050070FM-15-0001UBBB V0201801N009010300019N0112651N1+01701+01301999999ADDGA1021+015009099GA2081+030009999GF108991999999999999999999MA1100711999999MW1001REMMET066UBBB 200500Z 18009MPS 9999 FEW050CB OVC100 17/13 Q1007 NOSIG SC06;EQDQ01+000000PRSWM2
0176378640999992000042006004+40450+050070FM-15-0001UBBB V0201701N008010300019N0112651N1+01701+01301999999ADDGA1021+015009099GA2081+030009999GF108991999999999999999999MA1100711999999MW1001REMMET066UBBB 200600Z 17008MPS 9999 FEW050CB OVC100 17/13 Q1007 NOSIG SC06;EQDQ01+000000PRSWM2
0175378640999992000042007004+40450+050070FM-15-0001UBBB V02099999999990300019N0112651N1+01701+01301999999ADDGA1021+015009099GA2081+030009999GF108991999999999999999999MA1100711999999MW1001REMMET065UBBB 200700Z 1009MPS 9999 FEW050CB OVC100 17/13 Q1007 NOSIG SC06;EQDQ01+000000PRSWM2
0104378640999992000042008004+40450+050070FM-15-0001UBBB V0201801N00801220001CN0099001N1+01901+01301999999ADDMA1100611999999MW1001REMMET052UBBB 200800Z 18008MPS CAVOK 19/13 Q1006 NOSIG SC06 ;EQDQ01+000000PRSWM2
0104378640999992000042009004+40450+050070FM-15-0001UBBB V0201801N00701220001CN0099001N1+01901+01301999999ADDMA1100511999999MW1001REMMET052UBBB 200900Z 18007MPS CAVOK 19/13 Q1005 NOSIG SC06 ;EQDQ01+000000PRSWM2
0104378640999992000042010004+40450+050070FM-15-0001UBBB V0201701N00901220001CN0099001N1+01901+01301999999ADDMA1100511999999MW1001REMMET052UBBB 201000Z 17009MPS CAVOK 19/13 Q1005 NOSIG SC06 ;EQDQ01+000000PRSWM2
0104378640999992000042011004+40450+050070FM-15-0001UBBB V0201701N00801220001CN0099001N1+01901+01301999999ADDMA1100511999999MW1001REMMET052UBBB 201100Z 17008MPS CAVOK 19/13 Q1005 NOSIG SC06 ;EQDQ01+000000PRSWM2
0114378640999992000042011504+40450+050070FM-15-0001UBBB V0201801N01001220001CN0099001N1+01901+01401999999ADDMA1100511999999MW1001OC101501REMMET054UBBB 201150Z 18010G15MPS CAVOK 19/14 Q1005 NOSIG SC06;EQDQ01+000000PRSWM2
0115378640999992000042012004+40450+050070FM-15-0001UBBB V0201801N01001220001CN0099001N1+01801+01401999999ADDMA1100511999999MW1001OC101501REMMET055UBBB 201200Z 18010G15MPS CAVOK 18/14 Q1005 NOSIG SC06 ;EQDQ01+000000PRSWM2
0115378640999992000042013004+40450+050070FM-15-0001UBBB V0201701N00701220001CN0099001N1+01801+01401999999ADDMA1100411999999MW1001OC101201REMMET055UBBB 201300Z 17007G12MPS CAVOK 18/14 Q1004 NOSIG SC06 ;EQDQ01+000000PRSWM2
0104378640999992000042014004+40450+050070FM-15-0001UBBB V0201601N00601220001CN0099001N1+01801+01401999999ADDMA1100411999999MW1001REMMET052UBBB 201400Z 16006MPS CAVOK 18/14 Q1004 NOSIG SC06 ;EQDQ01+000000PRSWM2
0104378640999992000042015004+40450+050070FM-15-0001UBBB V0201901N00901220001CN0099001N1+01801+01401999999ADDMA1100511999999MW1001REMMET052UBBB 201500Z 19009MPS CAVOK 18/14 Q1005 NOSIG SC06 ;EQDQ01+000000PRSWM2
0104378640999992000042016004+40450+050070FM-15-0001UBBB V0202001N00401220001CN0099001N1+01901+01301999999ADDMA1100411999999MW1001REMMET052UBBB 201600Z 20004MPS CAVOK 19/13 Q1004 NOSIG SC06 ;EQDQ01+000000PRSWM2
0104378640999992000042017004+40450+050070FM-15-0001UBBB V0201801N00201220001CN0099001N1+01801+01401999999ADDMA1100511999999MW1001REMMET052UBBB 201700Z 18002MPS CAVOK 18/14 Q1005 NOSIG SC06 ;EQDQ01+000000PRSWM2
0104378640999992000042018004+40450+050070FM-15-0001UBBB V0201701N00401220001CN0099001N1+01601+01401999999ADDMA1100411999999MW1001REMMET052UBBB 201800Z 17004MPS CAVOK 16/14 Q1004 NOSIG SC06 ;EQDQ01+000000PRSWM2
0104378640999992000042019004+40450+050070FM-15-0001UBBB V0201701N00501220001CN0099001N1+01501+01501999999ADDMA1100411999999MW1001REMMET052UBBB 201900Z 17005MPS CAVOK 15/15 Q1004 NOSIG SC06 ;EQDQ01+000000PRSWM2
0104378640999992000042020004+40450+050070FM-15-0001UBBB V0201701N00401220001CN0099001N1+01501+01501999999ADDMA1100511999999MW1001REMMET052UBBB 202000Z 17004MPS CAVOK 15/15 Q1005 NOSIG SC06 ;EQDQ01+000000PRSWM2
0119378640999992000042021004+40450+050070FM-15-0001UBBB V0201601N00501220001CN0099001N1+01501+99999999999ADDMA1100311999999MW1001REMMET051UBBB 202100Z 16005MPS CAVOK 15/5 Q1003 NOSIG SC06 ;EQDQ01+000503ATOD  Q02+000000PRSWM2
0104378640999992000042022004+40450+050070FM-15-0001UBBB V0201901N00601220001CN0099001N1+01701+01401999999ADDMA1100311999999MW1001REMMET052UBBB 202200Z 19006MPS CAVOK 17/14 Q1003 NOSIG SC06 ;EQDQ01+000000PRSWM2
0104378640999992000042023004+40450+050070FM-15-0001UBBB V0201501N00301220001CN0099001N1+01601+01401999999ADDMA1100201999999MW1001REMMET052UBBB 202300Z 15003MPS CAVOK 16/14 Q1002 NOSIG SC06 ;EQDQ01+000000PRSWM2
0104378640999992000042101004+40450+050070FM-15-0001UBBB V0201601N00301220001CN0099001N1+01701+01401999999ADDMA1100101999999MW1001REMMET052UBBB 210100Z 16003MPS CAVOK 17/14 Q1001 NOSIG SC06 ;EQDQ01+000000PRSWM2
0104378640999992000042102004+40450+050070FM-15-0001UBBB V0201701N00401220001CN0099001N1+01701+01401999999ADDMA1100101999999MW1001REMMET052UBBB 210200Z 17004MPS CAVOK 17/14 Q1001 NOSIG SC06 ;EQDQ01+000000PRSWM2
0104378640999992000042103004+40450+050070FM-15-0001UBBB V0201501N00601220001CN0099001N1+01601+01401999999ADDMA1100201999999MW1001REMMET052UBBB 210300Z 15006MPS CAVOK 16/14 Q1002 NOSIG SC06 ;EQDQ01+000000PRSWM2
0103378640999992000042104004+40450+050070FM-15-0001UBBB V0201701N00601220001CN0099001N1+01601+01401999999ADDMA1100201999999MW1001REMMET051UBBB 210400Z 17006MPS CAVOK 16/14 Q1002 NOSIG SC06;EQDQ01+000000PRSWM2
0103378640999992000042105004+40450+050070FM-15-0001UBBB V0201901N00301220001CN0099001N1+01901+01301999999ADDMA1100311999999MW1001REMMET051UBBB 210500Z 19003MPS CAVOK 19/13 Q1003 SC06 NOSIG;EQDQ01+000000PRSWM2
0114378640999992000042105474+40450+050070FM-16-0001UBBB V0203101N00801220001CN0099001N1+01701+01101999999ADDMA1100511999999MW1001OC101301REMMET054UBBB 210547Z 31008G13MPS CAVOK 17/11 Q1005 SC06 NOSIG;EQDQ01+000000PRSWM2
0104378640999992000042106004+40450+050070FM-15-0001UBBB V0203101N00901220001CN0099001N1+01501+01101999999ADDMA1100511999999MW1001REMMET052UBBB 210600Z 31009MPS CAVOK 15/11 Q1005 NOSIG SC06 ;EQDQ01+000000PRSWM2
0104378640999992000042107004+40450+050070FM-15-0001UBBB V0203301N00601220001CN0099001N1+01501+01201999999ADDMA1100511999999MW1001REMMET052UBBB 210700Z 33006MPS CAVOK 15/12 Q1005 NOSIG SC06 ;EQDQ01+000000PRSWM2
0104378640999992000042108004+40450+050070FM-15-0001UBBB V0203301N00401220001CN0099001N1+01801+01301999999ADDMA1100511999999MW1001REMMET052UBBB 210800Z 33004MPS CAVOK 18/13 Q1005 NOSIG SC06 ;EQDQ01+000000PRSWM2
0104378640999992000042109004+40450+050070FM-15-0001UBBB V0203401N00301220001CN0099001N1+01901+01301999999ADDMA1100511999999MW1001REMMET052UBBB 210900Z 34003MPS CAVOK 19/13 Q1005 NOSIG SC06 ;EQDQ01+000000PRSWM2
0177378640999992000042110004+40450+050070FM-15-0001UBBB V0203301N005010300019N0112651N1+01901+01201999999ADDGA1021+015009099GA2071+030009999GF107991999999999999999999MA1100411999999MW1001REMMET067UBBB 211000Z 33005MPS 9999 FEW050CB BKN100 19/12 Q1004 NOSIG SC06 ;EQDQ01+000000PRSWM2
0177378640999992000042111004+40450+050070FM-15-0001UBBB V0203301N005010300019N0112651N1+02001+01201999999ADDGA1021+015009099GA2081+030009999GF108991999999999999999999MA1100311999999MW1001REMMET067UBBB 211100Z 33005MPS 9999 FEW050CB OVC100 20/12 Q1003 NOSIG SC06 ;EQDQ01+000000PRSWM2
0104378640999992000042112004+40450+050070FM-15-0001UBBB V0203601N00401220001CN0099001N1+01801+01201999999ADDMA1100311999999MW1001REMMET052UBBB 211200Z 36004MPS CAVOK 18/12 Q1003 NOSIG SC06 ;EQDQ01+000000PRSWM2
0104378640999992000042113004+40450+050070FM-15-0001UBBB V0203501N00201220001CN0099001N1+01901+01301999999ADDMA1100311999999MW1001REMMET052UBBB 211300Z 35002MPS CAVOK 19/13 Q1003 NOSIG SC06 ;EQDQ01+000000PRSWM2
0104378640999992000042114004+40450+050070FM-15-0001UBBB V0209999C00001220001CN0099001N1+02001+01301999999ADDMA1100411999999MW1001REMMET052UBBB 211400Z 00000MPS CAVOK 20/13 Q1004 NOSIG SC06 ;EQDQ01+000000PRSWM2
0176378640999992000042115004+40450+050070FM-15-0001UBBB V0201601N004010300019N0112651N1+01801+01301999999ADDGA1021+015009099GA2081+030009999GF108991999999999999999999MA1100411999999MW1001REMMET066UBBB 211500Z 16004MPS 9999 SCT050CB OVC100 18/13 Q1004 NOSIG SC06;EQDQ01+000000PRSWM2
0176378640999992000042116004+40450+050070FM-15-0001UBBB V0201401N004010300019N0112651N1+01601+01401999999ADDGA1021+015009099GA2081+030009999GF108991999999999999999999MA1100411999999MW1001REMMET066UBBB 211600Z 14004MPS 9999 SCT050CB OVC100 16/14 Q1004 NOSIG SC06;EQDQ01+000000PRSWM2
0176378640999992000042117004+40450+050070FM-15-0001UBBB V0209999C000010300019N0112651N1+01501+01401999999ADDGA1021+015009099GA2081+030009999GF108991999999999999999999MA1100411999999MW1001REMMET066UBBB 211700Z 00000MPS 9999 SCT050CB OVC100 15/14 Q1004 NOSIG SC06;EQDQ01+000000PRSWM2
0104378640999992000042118004+40450+050070FM-15-0001UBBB V0202201N00101220001CN0099001N1+01601+01401999999ADDMA1100511999999MW1001REMMET052UBBB 211800Z 22001MPS CAVOK 16/14 Q1005 NOSIG SC06 ;EQDQ01+000000PRSWM2
0100378640999992000042118304+40450+050070FM-15-0001UBBB V0200601N00301220001CN0099001N1+99999+99999999999ADDMW1001REMMET063UBBB 211930Z 06003MPS CAVOK R18/P3000N 14/13 Q1004 NOSIG SC06 ;EQDQ01+000000PRSWM2
0104378640999992000042120004+40450+050070FM-15-0001UBBB V0209999C00001220001CN0099001N1+01301+01301999999ADDMA1100511999999MW1001REMMET052UBBB 212000Z 00000MPS CAVOK 13/13 Q1005 NOSIG SC06 ;EQDQ01+000000PRSWM2
0104378640999992000042121004+40450+050070FM-15-0001UBBB V0201801N00201220001CN0099001N1+01301+01301999999ADDMA1100511999999MW1001REMMET052UBBB 212100Z 18002MPS CAVOK 13/13 Q1005 NOSIG SC06 ;EQDQ01+000000PRSWM2
0104378640999992000042122004+40450+050070FM-15-0001UBBB V0201301N00201220001CN0099001N1+01301+01301999999ADDMA1100511999999MW1001REMMET052UBBB 212200Z 13002MPS CAVOK 13/13 Q1005 NOSIG SC06 ;EQDQ01+000000PRSWM2
0104378640999992000042123004+40450+050070FM-15-0001UBBB V0209999C00001220001CN0099001N1+01201+01101999999ADDMA1100511999999MW1001REMMET052UBBB 212300Z 00000MPS CAVOK 12/11 Q1005 NOSIG SC06 ;EQDQ01+000000PRSWM2
0104378640999992000042200004+40450+050070FM-15-0001UBBB V0201401N00201220001CN0099001N1+01201+01101999999ADDMA1100611999999MW1001REMMET052UBBB 220000Z 14002MPS CAVOK 12/11 Q1006 NOSIG SC06 ;EQDQ01+000000PRSWM2
0104378640999992000042200304+40450+050070FM-15-0001UBBB V0209999C00001220001CN0099001N1+01101+01101999999ADDMA1100611999999MW1001REMMET052UBBB 220130Z 00000MPS CAVOK 11/11 Q1006 NOSIG SC06 ;EQDQ01+000000PRSWM2
0104378640999992000042202004+40450+050070FM-15-0001UBBB V0209999C00001220001CN0099001N1+01101+01101999999ADDMA1100711999999MW1001REMMET052UBBB 220200Z 00000MPS CAVOK 11/11 Q1007 NOSIG SC06 ;EQDQ01+000000PRSWM2
0172378640999992000042203004+40450+050070FM-15-0001UBBB V0203401N003012200019N0112651N1+01301+01301999999ADDED199U29009GA1021+010809999GF104991999999999999999999MA1100711999999MW1001REMMET067UBBB 220300Z 34003MPS 9999 R36/2900N SCT036 13/13 Q1007 NOSIG SC06;EQDQ01+000000PRSWM2
0104378640999992000042204004+40450+050070FM-15-0001UBBB V0209999C00001220001CN0099001N1+01601+01501999999ADDMA1100811999999MW1001REMMET052UBBB 220400Z 00000MPS CAVOK 16/15 Q1008 NOSIG SC06 ;EQDQ01+000000PRSWM2
0104378640999992000042205004+40450+050070FM-15-0001UBBB V0203301N00301220001CN0099001N1+02001+01401999999ADDMA1100811999999MW1001REMMET052UBBB 220500Z 33003MPS CAVOK 20/14 Q1008 NOSIG SC06 ;EQDQ01+000000PRSWM2
0264378640999992000042206004+40450+050070SY-MT-0001UBBB V0200101N001512200019N0100001N1+01941+01381100981ADDAA199000091GF100991001001999999001001KA1120N+01141MA1100911999999MD1210171+9999MW1001REMSYN074AAXX  22064 37864 32997 00103 10194 20138 40098 52017 333 20114 555 30///;MET052UBBB 220600Z 36004MPS CAVOK 20/13 Q1009 NOSIG SC06 ;EQDQ01+000000PRSWM2Q02  00002PRCP99
0103378640999992000042207004+40450+050070FM-15-0001UBBB V0200301N00301220001CN0099001N1+02101+01301999999ADDMA1100911999999MW1001REMMET051UBBB 220700Z 03003MPS CAOK 21/13 Q1009 NOSIG SC06 ;EQDQ01+000000PRSWM2
0104378640999992000042208004+40450+050070FM-15-0001UBBB V0200501N00201220001CN0099001N1+02101+01301999999ADDMA1100911999999MW1001REMMET052UBBB 220800Z 05002MPS CAVOK 21/13 Q1009 NOSIG SC06 ;EQDQ01+000000PRSWM2
0104378640999992000042209004+40450+050070FM-15-0001UBBB V0200501N00401220001CN0099001N1+02201+01301999999ADDMA1100911999999MW1001REMMET052UBBB 220900Z 05004MPS CAVOK 22/13 Q1009 NOSIG SC06 ;EQDQ01+000000PRSWM2
0104378640999992000042211004+40450+050070FM-15-0001UBBB V0200901N00501220001CN0099001N1+02201+01301999999ADDMA1100911999999MW1001REMMET052UBBB 221100Z 09005MPS CAVOK 22/13 Q1009 NOSIG SC06 ;EQDQ01+000000PRSWM2
0104378640999992000042213004+40450+050070FM-15-0001UBBB V0200501N00601220001CN0099001N1+02001+01301999999ADDMA1100911999999MW1001REMMET052UBBB 221300Z 05006MPS CAVOK 20/13 Q1009 NOSIG SC06 ;EQDQ01+000000PRSWM2
0104378640999992000042214004+40450+050070FM-15-0001UBBB V0200501N00501220001CN0099001N1+01801+01301999999ADDMA1100911999999MW1001REMMET052UBBB 221400Z 05005MPS CAVOK 18/13 Q1009 NOSIG SC06 ;EQDQ01+000000PRSWM2
0104378640999992000042214304+40450+050070FM-15-0001UBBB V0200601N00201220001CN0099001N1+01601+01301999999ADDMA1101021999999MW1001REMMET052UBBB 221530Z 06002MPS CAVOK 16/13 Q1010 NOSIG SC06 ;EQDQ01+000000PRSWM2
0104378640999992000042216004+40450+050070FM-15-0001UBBB V0209999C00001220001CN0099001N1+01501+01301999999ADDMA1101021999999MW1001REMMET052UBBB 221600Z 00000MPS CAVOK 15/13 Q1010 NOSIG SC06 ;EQDQ01+000000PRSWM2
0104378640999992000042217004+40450+050070FM-15-0001UBBB V0209999C00001220001CN0099001N1+01401+01301999999ADDMA1101021999999MW1001REMMET052UBBB 221700Z 00000MPS CAVOK 14/13 Q1010 NOSIG SC06 ;EQDQ01+000000PRSWM2
0104378640999992000042218004+40450+050070FM-15-0001UBBB V0203401N00201220001CN0099001N1+01401+01301999999ADDMA1101021999999MW1001REMMET052UBBB 221800Z 34002MPS CAVOK 14/13 Q1010 NOSIG SC06 ;EQDQ01+000000PRSWM2
0104378640999992000042219004+40450+050070FM-15-0001UBBB V0203601N00201220001CN0099001N1+01301+01201999999ADDMA1101021999999MW1001REMMET052UBBB 221900Z 36002MPS CAVOK 13/12 Q1010 NOSIG SC06 ;EQDQ01+000000PRSWM2
0104378640999992000042220004+40450+050070FM-15-0001UBBB V0209999C00001220001CN0099001N1+01301+01201999999ADDMA1101021999999MW1001REMMET052UBBB 222000Z 00000MPS CAVOK 13/12 Q1010 NOSIG SC06 ;EQDQ01+000000PRSWM2
0104378640999992000042221004+40450+050070FM-15-0001UBBB V0209999C00001220001CN0099001N1+01201+01101999999ADDMA1101021999999MW1001REMMET052UBBB 222100Z 00000MPS CAVOK 12/11 Q1010 NOSIG SC06 ;EQDQ01+000000PRSWM2
0104378640999992000042222004+40450+050070FM-15-0001UBBB V0209999C00001220001CN0099001N1+01201+01101999999ADDMA1101021999999MW1001REMMET052UBBB 222200Z 00000MPS CAVOK 12/11 Q1010 NOSIG SC06 ;EQDQ01+000000PRSWM2
0178378640999992000042223004+40450+050070FM-15-0001UBBB V0209999C000012200019N0025001N1+01201+01201999999ADDGA1021+030009999GF104991999999999999999999MA1101021999999MW1101REMMET068UBBB 232300Z 00000MPS 2500 BR SCT100 12/12 Q1010 BECMG 0800 FG SC06;EQDQ01+000003PRSWM1Q02    003PRSWM1
0103378640999992000042300004+40450+050070FM-15-0001UBBB V0209999C00001220001CN0099001N1+01301+01301999999ADDMA1101021999999MW1001REMMET051UBBB 220000Z 00000MPS CAVOK 13/13 Q1010 NOSIG SC06;EQDQ01+000000PRSWM2
0089378640999992000042301004+40450+050070FM-15-0001UBBB V0203201N00201220001CN0099001N1+01301+01301999999ADDMW1001REMMET052UBBB 230100Z 32002MPS CAVOK 13/13 Q101 NOSIG SC0 6 ;EQDQ01+000000PRSWM2
0167378640999992000042302004+40450+050070FM-16-0001UBBB V0203301N002012200019N0112651N1+99999+99999999999ADDGA1021+015009099GF104991999999999999999999MW1001MW2801REMMET082UBBB 230200Z 33002MPS 300V360 9999 -SHRA SCT050CB BKN 100 13/13 Q1011 NOSIG SC06 ;EQDQ01+000003PRSWM1
0181378640999992000042302304+40450+050070FM-16-0001UBBB V0202501N004010300019N0112651N1+99999+99999999999ADDGA1021+001509999GA2021+015009099GA3071+030009999GF107991999999999999999999MW1001REMMET070UBBB 230230Z 25004MPS 9999 FEW005 SCT050CB BKN100 /// /// NOSIG SC06 ;EQDQ01+000000PRSWM2
0163378640999992000042303004+40450+050070FM-15-0001UBBB V0202901N002010300019N0112651N1+01301+01301999999ADDGA1021+015009099GA2071+030009999GF107991999999999999999999MW1001REMMET068UBBB 230300Z 29002MPS 9999 SCT050CB BKN100 13/13 Q 1011 NOSIG SC06 ;EQDQ01+000000PRSWM2
0104378640999992000042304004+40450+050070FM-15-0001UBBB V0203101N00101220001CN0099001N1+01501+01501999999ADDMA1101081999999MW1001REMMET052UBBB 230400Z 31001MPS CAVOK 15/15 Q1011 NOSIG SC06 ;EQDQ01+000000PRSWM2
0104378640999992000042305004+40450+050070FM-15-0001UBBB V0203201N00201220001CN0099001N1+01801+01501999999ADDMA1101081999999MW1001REMMET052UBBB 230500Z 32002MPS CAVOK 18/15 Q1011 NOSIG SC06 ;EQDQ01+000000PRSWM2
0104378640999992000042306004+40450+050070FM-15-0001UBBB V0209999C00001220001CN0099001N1+02001+01501999999ADDMA1101081999999MW1001REMMET052UBBB 230600Z 00000MPS CAVOK 20/15 Q1011 NOSIG SC06 ;EQDQ01+000000PRSWM2
0104378640999992000042307004+40450+050070FM-15-0001UBBB V0209999C00001220001CN0099001N1+02201+01501999999ADDMA1101021999999MW1001REMMET052UBBB 230700Z 00000MPS CAVOK 22/15 Q1010 NTSIX FC06 ;EQDQ01+000000PRSWM2
0104378640999992000042308304+40450+050070FM-15-0001UBBB V0200601N00501220001CN0099001N1+02201+01401999999ADDMA1101021999999MW1001REMMET052UBBB 230930Z 06005MPS CAVOK 22/14 Q1010 NOSIG SC06 ;EQDQ01+000000PRSWM2
0104378640999992000042310004+40450+050070FM-15-0001UBBB V0200601N00401220001CN0099001N1+02201+01401999999ADDMA1101021999999MW1001REMMET052UBBB 231000Z 06004MPS CAVOK 22/14 Q1010 NOSIG SC06 ;EQDQ01+000000PRSWM2
0099378640999992000042311304+40450+050070FM-15-0001UBBB V0202901N00501220001CN0099001N1+99999+99999999999ADDMW1001REMMET062UBBB 231230Z 29005MPS CAVOK R36/P3000N 20/13 Q1010 NOSIG SC06;EQDQ01+000000PRSWM2
0104378640999992000042313004+40450+050070FM-15-0001UBBB V0203301N00501220001CN0099001N1+01801+01301999999ADDMA1101021999999MW1001REMMET052UBBB 231300Z 33005MPS CAVOK 18/13 Q1010 NOSIG SC06 ;EQDQ01+000000PRSWM2
0104378640999992000042315004+40450+050070FM-15-0001UBBB V0203201N00301220001CN0099001N1+01701+01201999999ADDMA1101081999999MW1001REMMET052UBBB 231500Z 32003MPS CAVOK 17/12 Q1011 NOSIG SC06 ;EQDQ01+000000PRSWM2
0104378640999992000042316004+40450+050070FM-15-0001UBBB V0202901N00201220001CN0099001N1+01601+01201999999ADDMA1101081999999MW1001REMMET052UBBB 231600Z 29002MPS CAVOK 16/12 Q1011 NOSIG SC06 ;EQDQ01+000000PRSWM2
0104378640999992000042317004+40450+050070FM-15-0001UBBB V0203201N00201220001CN0099001N1+01501+01201999999ADDMA1101081999999MW1001REMMET052UBBB 231700Z 32002MPS CAVOK 15/12 Q1011 NOSIG SC06 ;EQDQ01+000000PRSWM2
0104378640999992000042318004+40450+050070FM-15-0001UBBB V0203101N00201220001CN0099001N1+01501+01201999999ADDMA1101081999999MW1001REMMET052UBBB 231800Z 31002MPS CAVOK 15/12 Q1011 NOSIG SC06 ;EQDQ01+000000PRSWM2
0104378640999992000042319004+40450+050070FM-15-0001UBBB V0203001N00201220001CN0099001N1+01501+01201999999ADDMA1101081999999MW1001REMMET052UBBB 231900Z 30002MPS CAVOK 15/12 Q1011 NOSIG SC06 ;EQDQ01+000000PRSWM2
0099378640999992000042319304+40450+050070FM-15-0001UBBB V0203201N00401220001CN0099001N1+99999+99999999999ADDMW1001REMMET062UBBB 232030Z 32004MPS CAVOK R18/P3000N 14/13 Q1012 NOSIG SC06;EQDQ01+000000PRSWM2
0098378640999992000042321004+40450+050070FM-15-0001UBBB V0203201N00401220001CN0099001N1+99999+99999999999ADDMW1001REMMET061UBBB 232100Z 32004MPS CAVOK CB SCT050 14/13 Q1012 NOSIG SC06;EQDQ01+000000PRSWM2
0059378640999992000042321344+40450+050070FM-16-0001UBBB V02099999999992200019N0040001N1+99999+99999999999ADDMW1001REMMET022UBBB 232134Z310 04MPS;EQDQ01+000000PRSWM2
0198378640999992000042322004+40450+050070FM-15-0001UBBB V0203401N004010300019N0112651N1+01401+01201999999ADDGA1021+015009099GA2071+030009999GF107991999999999999999999MA1101191999999MW1171REMMET072UBBB 232200Z 34004MPS 9999 TS SCT050CB BKN100 14/12 Q1012 TEMPO TS SC06;EQDQ01+000003PRSWM1Q02    003PRSWM1
0065378640999992000042322504+40450+050070FM-16-0001UBBB V0203301N00501220001CN0099001N1+99999+99999999999ADDMW1001REMMET028UBBB 232250Z 33005MPS CAVOK;EQDQ01+000000PRSWM2
0107378640999992000042323004+40450+050070FM-15-0001UBBB V0203301N00501220001CN0099001N1+01401+01201999999ADDMA1101081999999MW1001REMMET055UBBB 232300Z 33005MPS CAVOK 14/12 Q1011 TEMPO TS SC06 ;EQDQ01+000000PRSWM2
0107378640999992000042400004+40450+050070FM-15-0001UBBB V0203201N00501220001CN0099001N1+01401+01201999999ADDMA1101081999999MW1001REMMET055UBBB 240000Z 32005MPS CAVOK 14/12 Q1011 TEMPO TS SC06 ;EQDQ01+000000PRSWM2
0104378640999992000042401004+40450+050070FM-15-0001UBBB V0203201N00401220001CN0099001N1+01301+01201999999ADDMA1101191999999MW1001REMMET052UBBB 240100Z 32004MPS CAVOK 13/12 Q1012 NOSIG SC06 ;EQDQ01+000000PRSWM2
0104378640999992000042402004+40450+050070FM-15-0001UBBB V0203501N00401220001CN0099001N1+01301+01201999999ADDMA1101191999999MW1001REMMET052UBBB 240200Z 35004MPS CAVOK 13/12 Q1012 NOSIG SC06 ;EQDQ01+000000PRSWM2
0104378640999992000042403004+40450+050070FM-15-0001UBBB V0203601N00401220001CN0099001N1+01401+01201999999ADDMA1101191999999MW1001REMMET052UBBB 240300Z 36004MPS CAVOK 14/12 Q1012 NOSIG SC06 ;EQDQ01+000000PRSWM2
0104378640999992000042404004+40450+050070FM-15-0001UBBB V0203601N00501220001CN0099001N1+01601+01101999999ADDMA1101291999999MW1001REMMET052UBBB 240400Z 36005MPS CAVOK 16/11 Q1013 NOSIG SC06 ;EQDQ01+000000PRSWM2
0104378640999992000042405004+40450+050070FM-15-0001UBBB V0203401N00701220001CN0099001N1+01801+01101999999ADDMA1101291999999MW1001REMMET052UBBB 240500Z 34007MPS CAVOK 18/11 Q1013 NOSIG SC06 ;EQDQ01+000000PRSWM2
0104378640999992000042406004+40450+050070FM-15-0001UBBB V0203301N00601220001CN0099001N1+01801+01101999999ADDMA1101291999999MW1001REMMET052UBBB 240600Z 33006MPS CAVOK 18/11 Q1013 NOSIG SC06 ;EQDQ01+000000PRSWM2
0104378640999992000042407004+40450+050070FM-15-0001UBBB V0203301N00701220001CN0099001N1+01901+01201999999ADDMA1101291999999MW1001REMMET052UBBB 240700Z 33007MPS CAVOK 19/12 Q1013 NOSIG SC06 ;EQDQ01+000000PRSWM2
0103378640999992000042408004+40450+050070FM-15-0001UBBB V0203301N00701220001CN0099001N1+02001+01201999999ADDMA1101191999999MW1001REMMET051UBBB 240800Z 33007MPS CAVOK 20/12 Q1012 NOSIG SC06;EQDQ01+000000PRSWM2
0104378640999992000042409004+40450+050070FM-15-0001UBBB V0203401N00801220001CN0099001N1+02001+01201999999ADDMA1101291999999MW1001REMMET052UBBB 240900Z 34008MPS CAVOK 20/12 Q1013 NOSIG SC06 ;EQDQ01+000000PRSWM2
0104378640999992000042410004+40450+050070FM-15-0001UBBB V0203401N00701220001CN0099001N1+02001+01201999999ADDMA1101191999999MW1001REMMET052UBBB 241000Z 34007MPS CAVOK 20/12 Q1012 NOSIG SC06 ;EQDQ01+000000PRSWM2
0107378640999992000042411004+40450+050070FM-15-0001UBBB V0203501N00501220001CN0099001N1+02001+01201999999ADDMA1101191999999MW1001REMMET055UBBB 241100Z 35005MPS CAVOK 20/12 Q1012 TEMPO TS SC06 ;EQDQ01+000000PRSWM2
0174378640999992000042414004+40450+050070FM-15-0001UBBB V0203601N004010300019N0112651N1+01701+01201999999ADDGA1021+015009099GA2071+030009999GF107991999999999999999999MW1001REMMET079UBBB 241400Z 36004MPS 330V040 9999 FEW050CB BKN100 17/12 Q101 2 TEMPO TS SC06 ;EQDQ01+000000PRSWM2
0107378640999992000042415004+40450+050070FM-15-0001UBBB V0203301N00401220001CN0099001N1+01501+01201999999ADDMA1101191999999MW1001REMMET055UBBB 241500Z 33004MPS CAVOK 15/12 Q1012 TEMPO TS SC06 ;EQDQ01+000000PRSWM2
0104378640999992000042416004+40450+050070FM-15-0001UBBB V0203301N00501220001CN0099001N1+01401+01201999999ADDMA1101291999999MW1001REMMET052UBBB 241600Z 33005MPS CAVOK 14/12 Q1013 NOSIG SC06 ;EQDQ01+000000PRSWM2
0104378640999992000042417004+40450+050070FM-15-0001UBBB V0203201N00301220001CN0099001N1+01401+01301999999ADDMA1101291999999MW1001REMMET052UBBB 241700Z 32003MPS CAVOK 14/13 Q1013 NOSIG SC06 ;EQDQ01+000000PRSWM2
0104378640999992000042418004+40450+050070FM-15-0001UBBB V0203201N00301220001CN0099001N1+01401+01201999999ADDMA1101391999999MW1001REMMET052UBBB 241800Z 32003MPS CAVOK 14/12 Q1014 NOSIG SC06 ;EQDQ01+000000PRSWM2
0104378640999992000042419004+40450+050070FM-15-0001UBBB V0203101N00201220001CN0099001N1+01401+01201999999ADDMA1101291999999MW1001REMMET052UBBB 241900Z 31002MPS CAVOK 14/12 Q1013 NOSIG SC06 ;EQDQ01+000000PRSWM2
0104378640999992000042420004+40450+050070FM-15-0001UBBB V0203001N00201220001CN0099001N1+01301+01101999999ADDMA1101291999999MW1001REMMET052UBBB 242000Z 30002MPS CAVOK 13/11 Q1013 NOSIG SC06 ;EQDQ01+000000PRSWM2
0104378640999992000042421004+40450+050070FM-15-0001UBBB V0202801N00201220001CN0099001N1+01401+01201999999ADDMA1101291999999MW1001REMMET052UBBB 242100Z 28002MPS CAVOK 14/12 Q1013 NOSIG SC06 ;EQDQ01+000000PRSWM2
0103378640999992000042422004+40450+050070FM-15-0001UBBB V0203001N00201220001CN0099001N1+01201+01101999999ADDMA1101191999999MW1001REMMET051UBBB 242200Z 30002MPS CAVOK 12/11 Q1012 NOSIG SC06;EQDQ01+000000PRSWM2
0104378640999992000042423004+40450+050070FM-15-0001UBBB V0203201N00201220001CN0099001N1+01301+01201999999ADDMA1101291999999MW1001REMMET052UBBB 242300Z 32002MPS CAVOK 13/12 Q1013 NOSIG SC06 ;EQDQ01+000000PRSWM2
0104378640999992000042423304+40450+050070FM-15-0001UBBB V0209999C00001220001CN0099001N1+01201+01201999999ADDMA1101291999999MW1001REMMET052UBBB 250030Z 00000MPS CAVOK 12/12 Q1013 NOSIG SC06 ;EQDQ01+000000PRSWM2
0104378640999992000042501004+40450+050070FM-15-0001UBBB V0209999C00001220001CN0099001N1+01201+01101999999ADDMA1101291999999MW1001REMMET052UBBB 250100Z 00000MPS CAVOK 12/11 Q1013 NOSIG SC06 ;EQDQ01+000000PRSWM2
0096378640999992000042502004+40450+050070FM-15-0001UBBB V02099999999992200019N0112651N1+99999+99999999999ADDMW1001REMMET059UBBB 250200Z 25020Z 00000MPS CAVOK 12/11 Q1001 NOSIG SC06 ;EQDQ01+000000PRSWM2
0104378640999992000042503004+40450+050070FM-15-0001UBBB V0209999C00001220001CN0099001N1+01301+01201999999ADDMA1101291999999MW1001REMMET052UBBB 250300Z 00000MPS CAVOK 13/12 Q1013 NOSIG SC06 ;EQDQ01+000000PRSWM2
0104378640999992000042504004+40450+050070FM-15-0001UBBB V0209999C00001220001CN0099001N1+01501+01301999999ADDMA1101391999999MW1001REMMET052UBBB 250400Z 00000MPS CAVOK 15/13 Q1014 NOSIG SC06 ;EQDQ01+000000PRSWM2
0104378640999992000042505004+40450+050070FM-15-0001UBBB V0209999C00001220001CN0099001N1+01701+01301999999ADDMA1101391999999MW1001REMMET052UBBB 250500Z 00000MPS CAVOK 17/13 Q1014 NOSIG SC06 ;EQDQ01+000000PRSWM2
0104378640999992000042506004+40450+050070FM-15-0001UBBB V0209999C00001220001CN0099001N1+01901+01101999999ADDMA1101391999999MW1001REMMET052UBBB 250600Z 00000MPS CAVOK 19/11 Q1014 NOSIG SC06 ;EQDQ01+000000PRSWM2
0104378640999992000042507004+40450+050070FM-15-0001UBBB V0202601N00201220001CN0099001N1+02001+01201999999ADDMA1101391999999MW1001REMMET052UBBB 250700Z 26002MPS CAVOK 20/12 Q1014 NOSIG SC06 ;EQDQ01+000000PRSWM2
0104378640999992000042508004+40450+050070FM-15-0001UBBB V0201801N00201220001CN0099001N1+02201+01101999999ADDMA1101391999999MW1001REMMET052UBBB 250800Z 18002MPS CAVOK 22/11 Q1014 NOSIG SC06 ;EQDQ01+000000PRSWM2
0104378640999992000042509004+40450+050070FM-15-0001UBBB V0201801N00301220001CN0099001N1+02201+01001999999ADDMA1101391999999MW1001REMMET052UBBB 250900Z 18003MPS CAVOK 22/10 Q1014 NOSIG SC06 ;EQDQ01+000000PRSWM2
0104378640999992000042510004+40450+050070FM-15-0001UBBB V0201701N00401220001CN0099001N1+02201+01001999999ADDMA1101391999999MW1001REMMET052UBBB 251000Z 17004MPS CAVOK 22/10 Q1014 NOSIG SC06 ;EQDQ01+000000PRSWM2
0104378640999992000042511004+40450+050070FM-15-0001UBBB V0201601N00401220001CN0099001N1+02201+00901999999ADDMA1101291999999MW1001REMMET052UBBB 251100Z 16004MPS CAVOK 22/09 Q1013 NOSIG SC06 ;EQDQ01+000000PRSWM2
0104378640999992000042512004+40450+050070FM-15-0001UBBB V0201701N00501220001CN0099001N1+02201+00901999999ADDMA1101291999999MW1001REMMET052UBBB 251200Z 17005MPS CAVOK 22/09 Q1013 NOSIG SC06 ;EQDQ01+000000PRSWM2
0104378640999992000042513004+40450+050070FM-15-0001UBBB V0201701N00401220001CN0099001N1+02201+01001999999ADDMA1101291999999MW1001REMMET052UBBB 251300Z 17004MPS CAVOK 22/10 Q1013 NOSIG SC06 ;EQDQ01+000000PRSWM2
0104378640999992000042514004+40450+050070FM-15-0001UBBB V0201801N00401220001CN0099001N1+02001+01101999999ADDMA1101391999999MW1001REMMET052UBBB 251400Z 18004MPS CAVOK 20/11 Q1014 NOSIG SC06 ;EQDQ01+000000PRSWM2
0176378640999992000042515004+40450+050070FM-15-0001UBBB V0201701N002010300019N0112651N1+01801+01201999999ADDGA1021+015009099GA2071+030009999GF107991999999999999999999MA1101391999999MW1001REMMET066UBBB 251500Z 17002MPS 9999 SCT050CB BKN100 18/12 Q1014 NOSIG SC06;EQDQ01+000000PRSWM2
0176378640999992000042516004+40450+050070FM-15-0001UBBB V0201701N002010300019N0112651N1+01701+01301999999ADDGA1021+015009099GA2071+030009999GF107991999999999999999999MA1101391999999MW1001REMMET066UBBB 251600Z 17002MPS 9999 SCT050CB BKN100 17/13 Q1014 NOSIG SC06;EQDQ01+000000PRSWM2
0104378640999992000042517004+40450+050070FM-15-0001UBBB V0201801N00201220001CN0099001N1+01701+01401999999ADDMA1101391999999MW1001REMMET052UBBB 251700Z 18002MPS CAVOK 17/14 Q1014 NOSIG SC06 ;EQDQ01+000000PRSWM2
0104378640999992000042518004+40450+050070FM-15-0001UBBB V0201401N00201220001CN0099001N1+01701+01301999999ADDMA1101491999999MW1001REMMET052UBBB 251800Z 14002MPS CAVOK 17/13 Q1015 NOSIG SC06 ;EQDQ01+000000PRSWM2
0103378640999992000042519004+40450+050070FM-15-0001UBBB V0201801N00201220001CN0099001N1+01601+01401999999ADDMA1101491999999MW1001REMMET051UBBB 251900Z 18002MPS CAVOK 16/14 Q1015 NOSIG SC06;EQDQ01+000000PRSWM2
