0193385790999992000010100004+40120+067830FM-12+0345UTED V0209999C000012200019N9999999N1+00371+00141102371ADDAA106000091GA1001+999999999GF100991001001999999001001MA1999999098121MD1710011+9999REMSYN080AAXX  01001 38579 329// 00000 10037 20014 39812 40237 57001 333 04102 555 14102;EQDQ01  00002PRCP06
0188385790999992000010103004+40120+067830FM-12+0345UTED V0209999C000012200019N0500001N1+00411+00101102421ADDAA106000091GF103991001001999999001011GJ104869MD1210071+9999REMSYN098AAXX  01031 38579 32999 30000 10041 20010 40242 52007 80001 333 55081 555 20037 50104 53004 7000/;EQDQ01  00002PRCP06
0175385790999992000010106004+40120+067830FM-12+0345UTED V0203401N001012200019N0500001N1+01702+00481102231ADDAA106000091GA1001+999999999GF100991001001999999001001KA1999N+00371MD1410001+9999REMSYN064AAXX  01061 38579 32999 03401 10170 20048 40223 54000 333 20037;EQDQ01  00002PRCP06
0152385790999992000010109004+40120+067830FM-12+0345UTED V0203401N002012200019N0500001N1+01601+00611102021ADDAA106000091GA1001+999999999GF100991001001999999001001MD1710221+9999REMSYN054AAXX  01091 38579 32999 03402 10160 20061 40202 57022;EQDQ01  00002PRCP06
0173385790999992000010112004+40120+067830FM-12+0345UTED V0203101N001019999999N0200001N1+01441+00771102061ADDAA106000091GF107991001001999999001011MA1999999098001MD1210031+9999REMSYN076AAXX  01121 38579 32998 73101 10144 20077 39800 40206 52003 80001 555 10009;EQDQ01  00002PRCP06
0185385790999992000010115004+40120+067830FM-12+0345UTED V0202301N003012200019N9999999N1+01221+00191102091ADDAA106000091GA1001+999999999GF100991001001999999001001KA1120M+01701MD1710011+9999REMSYN074AAXX  01151 38579 329// 02303 10122 20019 40209 57001 333 10170 555 53005;EQDQ01  00002PRCP06
0175385790999992000010118004+40120+067830FM-12+0345UTED V0202701N003012200019N9999999N1+01161+00111102091ADDAA106000091GA1001+999999999GF100991001001999999001001KA1999M+01701MD1710021+9999REMSYN064AAXX  01181 38579 329// 02703 10116 20011 40209 57002 333 10170;EQDQ01  00002PRCP06
0152385790999992000010121004+40120+067830FM-12+0345UTED V0202601N001012200019N9999999N1+00591+00301102271ADDAA106000091GA1001+999999999GF100991001001999999001001MD1210111+9999REMSYN054AAXX  01211 38579 329// 02601 10059 20030 40227 52011;EQDQ01  00002PRCP06
0202385790999992000010200004+40120+067830FM-12+0345UTED V0201601N001012200019N9999999N1+00491+00191102291ADDAA106000091GA1001+999999999GF100991001001999999001001KA1999M+01011MA1999999098081MD1410001+9999REMSYN076AAXX  02001 38579 329// 01601 10049 20019 39808 40229 54000 333 04101 14101;EQDQ01  00002PRCP06
0188385790999992000010203004+40120+067830FM-12+0345UTED V0202801N001012200019N0500001N1+00271+00141102321ADDAA106000091GF102991001001999999001011GJ104449MD1510011+9999REMSYN098AAXX  02031 38579 32999 22801 10027 20014 40232 55001 80001 333 55074 555 20022 50103 53006 7000/;EQDQ01  00002PRCP06
0165385790999992000010206004+40120+067830FM-12+0345UTED V0209999C000019999999N0100001N1+00681+00381102401ADDAA106000091GF107991001001999999001061KA1999N+00171MD1210141+9999REMSYN070AAXX  02061 38579 32997 70000 10068 20038 40240 52014 80006 333 20017;EQDQ01  00002PRCP06
0142385790999992000010209004+40120+067830FM-12+0345UTED V0200301N001019999999N0100001N1+01081+00481102201ADDAA106000091GF107991001001999999001061MD1710131+9999REMSYN060AAXX  02091 38579 32997 70301 10108 20048 40220 57013 80006;EQDQ01  00002PRCP06
0173385790999992000010212004+40120+067830FM-12+0345UTED V0200301N002019999999N0200001N1+00861+00501102211ADDAA106000091GF107991001001999999001061MA1999999098061MD1610021+9999REMSYN076AAXX  02121 38579 32998 70302 10086 20050 39806 40221 56002 80006 555 11008;EQDQ01  00002PRCP06
0185385790999992000010215004+40120+067830FM-12+0345UTED V0203401N001012200019N9999999N1+00521+00331102271ADDAA106000091GA1001+999999999GF100991001001999999001001KA1120M+01141MD1410001+9999REMSYN074AAXX  02151 38579 329// 03401 10052 20033 40227 54000 333 10114 555 53004;EQDQ01  00002PRCP06
0203385790999992000010218004+40120+067830FM-12+0345UTED V0209999C000012200019N9999999N1+00181+00101102331ADDAA106000091AY141061AY201061GA1001+999999999GF100991001001999999001001KA1999M+01141MD1210021+9999MW1441REMSYN070AAXX  02181 38579 319// 00000 10018 20010 40233 52002 74440 333 10114;EQDQ01  00002PRCP06
0170385790999992000010221004+40120+067830FM-12+0345UTED V0209999C000019999999N9999999N1+00081+00031102221ADDAA106000091AY141031AY211031GF106991001001999999001061MD1810151+9999MW1021REMSYN066AAXX  02211 38579 319// 60000 10008 20003 40222 58015 70241 80006;EQDQ01  00002PRCP06
0221385790999992000010300004+40120+067830FM-12+0345UTED V0209999C000019999999N9999999N1+00001-00011102271ADDAA106000091AY141061AY241061GA1091+999999999GF109991091999999999999999MA1999999097981MD1010051+9999MW1451REMSYN086AAXX  03001 38579 319// 90000 10000 21001 39798 40227 50005 74544 333 04000 555 14000;EQDQ01  00002PRCP06
0226385790999992000010303004+40120+067830FM-12+0345UTED V0209999C000010003019N0002001N1+00071+00071102261ADDAA106000091AY141031AY241031GA1091+999999999GF109991091999999999999999GJ104449MD1710011+9999MW1451REMSYN098AAXX  03031 38579 31992 90000 10007 20007 40226 57001 74544 333 55074 555 20000 50085 53002 7000/;EQDQ01  00002PRCP06
0193385790999992000010306004+40120+067830FM-12+0345UTED V0200801N001019999999N0020001N1+00411+00361102231ADDAA106000091AY141061AY221061GF107991001001999999001061KA1999N+00001MD1210041+9999MW1101REMSYN076AAXX  03061 38579 31995 70801 10041 20036 40223 52004 71042 80006 333 20000;EQDQ01  00002PRCP06
0152385790999992000010309004+40120+067830FM-12+0345UTED V0200801N002012200019N0100001N1+01041+00461101951ADDAA106000091GA1001+999999999GF100991001001999999001001MD1710181+9999REMSYN054AAXX  03091 38579 32997 00802 10104 20046 40195 57018;EQDQ01  00002PRCP06
0211385790999992000010312004+40120+067830FM-12+0345UTED V0209999C000010003019N0002001N1+00511+00461102011ADDAA106000091AY141061AY201061GA1091+999999999GF109991091999999999999999MA1999999097811MD1710021+9999MW1471REMSYN076AAXX  03121 38579 31/92 90000 10051 20046 39781 40201 57002 74740 555 11007;EQDQ01  00002PRCP06
0213385790999992000010315004+40120+067830FM-12+0345UTED V0209999C000019999999N9999999N1+00401+00381102061ADDAA106000091AY141031AY241031GA1091+999999999GF109991091999999999999999KA1120M+01131MD1210031+9999MW1451REMSYN080AAXX  03151 38579 31/// 90000 10040 20038 40206 52003 74544 333 10113 555 53004;EQDQ01  00002PRCP06
0183385790999992000010318004+40120+067830FM-12+0345UTED V0209999C000019999999N9999999N1+00341+00321101981ADDAA106000091AY141061AY241061GA1091+999999999GF109991091999999999999999KA1999M+01131MW1451REMSYN064AAXX  03181 38579 31/// 90000 10034 20032 40198 74544 333 10113;EQDQ01  00002PRCP06
0180385790999992000010321004+40120+067830FM-12+0345UTED V0201001N001019999999N9999999N1+00271+00201101921ADDAA106000091AY141031AY241031GA1091+999999999GF109991091999999999999999MD1710071+9999MW1451REMSYN060AAXX  03211 38579 31/// 91001 10027 20020 40192 57007 74544;EQDQ01  00002PRCP06
0221385790999992000010400004+40120+067830FM-12+0345UTED V0209999C000019999999N9999999N1+00201+00201101891ADDAA106000091AY141061AY241061GA1091+999999999GF109991091999999999999999MA1999999097651MD1710031+9999MW1451REMSYN086AAXX  04001 38579 31/// 90000 10020 20020 39765 40189 57003 74544 333 01003 555 11003;EQDQ01  00002PRCP06
0226385790999992000010403004+40120+067830FM-12+0345UTED V0203601N001010003019N0002001N1+00151+00151101861ADDAA106000091AY141031AY241031GA1091+999999999GF109991091999999999999999GJ102889MD1710041+9999MW1451REMSYN098AAXX  04031 38579 31/92 93601 10015 20015 40186 57004 74544 333 55048 555 20015 50034 53002 7000/;EQDQ01  00002PRCP06
0203385790999992000010406004+40120+067830FM-12+0345UTED V0209999C000010003019N0002001N1+00161+99999101861ADDAA106000091AY141061AY241061GA1091+999999999GF109991091999999999999999KA1999N+00081MD1410001+9999MW1451REMSYN070AAXX  04061 38579 31/92 90000 10016 29913 40186 54000 74544 333 20008;EQDQ01  00002PRCP06
0180385790999992000010409004+40120+067830FM-12+0345UTED V0203601N002012200019N0020001N1+00551+00361101611ADDAA106000091AY141031AY201031GA1001+999999999GF100991001001999999001001MD1710181+9999MW1101REMSYN060AAXX  04091 38579 31995 03602 10055 20036 40161 57018 71040;EQDQ01  00002PRCP06
0211385790999992000010412004+40120+067830FM-12+0345UTED V0209999C000012200019N0020001N1+00761+00481101521ADDAA106000091AY101061AY201061GA1001+999999999GF100991001001999999001001MA1999999097381MD1710051+9999MW1101REMSYN076AAXX  04121 38579 32995 00000 10076 20048 39738 40152 57005 71000 555 11007;EQDQ01  00002PRCP06
0185385790999992000010415004+40120+067830FM-12+0345UTED V0201701N001012200019N9999999N1+00511+00371101541ADDAA106000091GA1001+999999999GF100991001001999999001001KA1120M+00781MD1710021+9999REMSYN074AAXX  04151 38579 329// 01701 10051 20037 40154 57002 333 10078 555 53003;EQDQ01  00002PRCP06
0175385790999992000010418004+40120+067830FM-12+0345UTED V0201801N003012200019N9999999N1+00781+00021101371ADDAA106000091GA1001+999999999GF100991001001999999001001KA1999M+00781MD1710131+9999REMSYN064AAXX  04181 38579 329// 01803 10078 20002 40137 57013 333 10078;EQDQ01  00002PRCP06
0152385790999992000010421004+40120+067830FM-12+0345UTED V0201801N001012200019N9999999N1+00841+00061101301ADDAA106000091GA1001+999999999GF100991001001999999001001MD1710061+9999REMSYN054AAXX  04211 38579 329// 01801 10084 20006 40130 57006;EQDQ01  00002PRCP06
0183385790999992000010500004+40120+067830FM-12+0345UTED V0201901N002019999999N9999999N1+00901-00271101281ADDAA106000091GF105991001001999999001011MA1999999097171MD1410001+9999REMSYN086AAXX  05001 38579 329// 51902 10090 21027 39717 40128 54000 80001 333 01000 555 11001;EQDQ01  00002PRCP06
0188385790999992000010503004+40120+067830FM-12+0345UTED V0202201N003019999999N0500001N1+01041-00141101311ADDAA106000091GF107991051001999999031061GJ102589MD1310041+9999REMSYN098AAXX  05031 38579 32999 72203 10104 21014 40131 53004 85036 333 55043 555 20068 50037 53006 7000/;EQDQ01  00002PRCP06
0165385790999992000010506004+40120+067830FM-12+0345UTED V0202401N004019999999N0500001N1+01351-00171101301ADDAA106000091GF107991071001999999071001KA1999N+00451MD1210031+9999REMSYN070AAXX  05061 38579 32999 72404 10135 21017 40130 52003 87070 333 20045;EQDQ01  00002PRCP06
0142385790999992000010509004+40120+067830FM-12+0345UTED V0202401N005010075019N0500001N1+01381-00121101311ADDAA106000091GF107991051091008001071001MD1310011+9999REMSYN060AAXX  05091 38579 32599 72405 10138 21012 40131 53001 85970;EQDQ01  00002PRCP06
0173385790999992000010512004+40120+067830FM-12+0345UTED V0202301N003019999999N0500001N1+01311-00091101321ADDAA106000091GF107991071001999999071001MA1999999097261MD1210011+9999REMSYN076AAXX  05121 38579 32999 72303 10131 21009 39726 40132 52001 87070 555 11007;EQDQ01  00002PRCP06
0175385790999992000010515004+40120+067830FM-12+0345UTED V0202001N003019999999N9999999N1+01141-00121101491ADDAA106000091GF107991041001999999081011KA1120M+01481MD1210141+9999REMSYN080AAXX  05151 38579 329// 72003 10114 21012 40149 52014 84081 333 10148 555 53008;EQDQ01  00002PRCP06
0165385790999992000010518004+40120+067830FM-12+0345UTED V0200201N001019999999N9999999N1+00661+00221101591ADDAA106000091GF107991051001999999081011KA1999M+01481MD1210021+9999REMSYN070AAXX  05181 38579 329// 70201 10066 20022 40159 52002 85081 333 10148;EQDQ01  00002PRCP06
0142385790999992000010521004+40120+067830FM-12+0345UTED V0202301N001019999999N9999999N1+00461+00101101591ADDAA106000091GF107991001001999999001031MD1710031+9999REMSYN060AAXX  05211 38579 329// 72301 10046 20010 40159 57003 80003;EQDQ01  00002PRCP06
0188385790999992000010603004+40120+067830FM-12+0345UTED V0202201N002019999999N0200001N1+00931-00071101471ADDAA106000091GF107991071001999999071001GJ100069MD1710021+9999REMSYN098AAXX  06031 38579 32998 72202 10093 21007 40147 57002 87070 333 55001 555 20035 50109 53006 7000/;EQDQ01  00002PRCP06
0165385790999992000010606004+40120+067830FM-12+0345UTED V0209999C000019999999N0200001N1+00711+00291101581ADDAA106000091GF107991071001999999071001KA1999N+00371MD1210081+9999REMSYN070AAXX  06061 38579 32998 70000 10071 20029 40158 52008 87070 333 20037;EQDQ01  00002PRCP06
0142385790999992000010609004+40120+067830FM-12+0345UTED V0203001N002019999999N0200001N1+01801+00151101251ADDAA106000091GF107991071001999999071001MD1710171+9999REMSYN060AAXX  06091 38579 32998 73002 10180 20015 40125 57017 87070;EQDQ01  00002PRCP06
0173385790999992000010612004+40120+067830FM-12+0345UTED V0202801N002010075019N0200001N1+01501+00301101321ADDAA106000091GF107991051091008001071001MA1999999097291MD1210031+9999REMSYN076AAXX  06121 38579 32598 72802 10150 20030 39729 40132 52003 85970 555 11010;EQDQ01  00002PRCP06
0175385790999992000010615004+40120+067830FM-12+0345UTED V0203301N002019999999N9999999N1+00711+00381101631ADDAA106000091GF107991071001999999071001KA1120M+01801MD1310191+9999REMSYN080AAXX  06151 38579 329// 73302 10071 20038 40163 53019 87070 333 10180 555 53009;EQDQ01  00002PRCP06
0158385790999992000010621004+40120+067830FM-12+0345UTED V0201501N001012200019N9999999N1+00491+00301101581ADDAA106000091GF102991999001999999041001MD1710021+9999REMSYN060AAXX  06211 38579 329// 21501 10049 20030 40158 57002 83040;EQDQ01+000032SCOTLCQ02  00002PRCP06
0183385790999992000010700004+40120+067830FM-12+0345UTED V0200101N001019999999N9999999N1+00331+00281101571ADDAA106000091GF107991071001999999071001MA1999999097361MD1710041+9999REMSYN086AAXX  07001 38579 329// 70101 10033 20028 39736 40157 57004 87070 333 01000 555 11002;EQDQ01  00002PRCP06
0208385790999992000010703004+40120+067830FM-12+0345UTED V0209999C000010075019N0005001N1+00291+00241101471ADDAA106000091AY141031AY221031GF107991071051008001001001MD1710091+9999MW1421REMSYN104AAXX  07031 38579 31593 70000 10029 20024 40147 57009 74242 87500 333 55/// 555 20029 50089 53006 7000/;EQDQ01  00002PRCP06
0193385790999992000010706004+40120+067830FM-12+0345UTED V0201101N001019999999N0200001N1+00521+00271101391ADDAA106000091AY141061AY221061GF107991071001999999071001KA1999N+00291MD1810051+9999MW1021REMSYN076AAXX  07061 38579 31998 71101 10052 20027 40139 58005 70242 87070 333 20029;EQDQ01  00002PRCP06
0142385790999992000010709004+40120+067830FM-12+0345UTED V0209999C000019999999N0200001N1+01371+00361100911ADDAA106000091GF107991071001999999071001MD1710331+9999REMSYN060AAXX  07091 38579 32998 70000 10137 20036 40091 57033 87070;EQDQ01  00002PRCP06
0173385790999992000010712004+40120+067830FM-12+0345UTED V0203601N001010075019N0020001N1+01231+00681100801ADDAA106000091GF107991051091008001061001MA1999999096751MD1710141+9999REMSYN076AAXX  07121 38579 32595 73601 10123 20068 39675 40080 57014 85960 555 11011;EQDQ01  00002PRCP06
0163385790999992000010718004+40120+067830FM-12+0345UTED V0202701N005010075019N9999999N1+01401+00451100741ADDAY101061AY221061GF107991071091008001041001KA1999M+01461MD1310081+9999MW1621REMSYN076AAXX  07181 38579 415// 72705 10140 20045 40074 53008 76202 87940 333 10146;
0134385790999992000010721004+40120+067830FM-12+0345UTED V0203201N006019999999N9999999N1+00701+00271101261ADDAY181031AY221031GF107991999999004501999999MD1210401+9999MW1811REMSYN060AAXX  07211 38579 414// 73206 10070 20027 40126 52040 78182;
0200385790999992000010800004+40120+067830FM-12+0345UTED V0202901N005019999999N9999999N1+00621+00231101601ADDAY181061AY221061GF107991999091004501999999MA1999999097431MD1210311+9999MW1021REMSYN092AAXX  08001 38579 414// 72905 10062 20023 39743 40160 52031 70282 889// 333 02004 555 12004;EQDQ01+000082SCOTLC
0156385790999992000010803004+40120+067830FM-12+0345UTED V0203001N008010075019N0200001N1+00641-00071101681ADDGF105991051091008001001001MD1210071+9999REMSYN104AAXX  08031 38579 /2598 53008 10064 21007 40168 52007 85900 333 55036 555 20056 50071 53013 60012 7001/;
0152385790999992000010806004+40120+067830FM-12+0345UTED V0203401N006010075019N0100001N1+00431-00051102261ADDAA112001091GF106991061091008001001001KA1999N+00381MD1210541+9999REMSYN076AAXX  08061 38579 12597 63406 10043 21005 40226 52054 60012 86900 333 20038;
0142385790999992000010809004+40120+067830FM-12+0345UTED V0200301N003010075019N0100001N1+00261-00101102461ADDAA106000091GF107991071051008001001001MD1210161+9999REMSYN060AAXX  08091 38579 32597 70303 10026 21010 40246 52016 87500;EQDQ01  00002PRCP06
0173385790999992000010812004+40120+067830FM-12+0345UTED V0200901N001010075019N0100001N1+00061-00141102641ADDAA106000091GF108991081091008001999999MA1999999098341MD1210141+9999REMSYN076AAXX  08121 38579 32597 80901 10006 21014 39834 40264 52014 889// 555 11001;EQDQ01  00002PRCP06
0179385790999992000010815004+40120+067830FM-12+0345UTED V0203401N004010075019N9999999N1-00061-00061102891ADDAY181031AY221031GF108991081091008001999999KA1120M+00691MD1210221+9999MW1881REMSYN092AAXX  08151 38579 /15// 83404 11006 21006 40289 52022 78882 889// 333 10069 555 53012 69942;
0180385790999992000010818004+40120+067830FM-12+0345UTED V0202801N003010075019N9999999N1-00271-00301103121ADDAA112000591AY181061AY221061GF108991081091008001999999KA1999M+00691MD1210191+9999MW1861REMSYN082AAXX  08181 38579 115// 82803 11027 21030 40312 52019 69942 78682 889// 333 10069;
0140385790999992000010821004+40120+067830FM-12+0345UTED V0203301N002010075019N9999999N1-00311-00481103211ADDAY181031AY281031GF108991081091008001999999MD1210071+9999MW1861REMSYN066AAXX  08211 38579 415// 83302 11031 21048 40321 52007 78688 889//;
0181385790999992000010900004+40120+067830FM-12+0345UTED V0203301N001010075019N9999999N1-00341-00421103321ADDAY181061AY271061GF108991081001008001021999MA1999999098921MD1210101+9999MW1711REMSYN092AAXX  09001 38579 415// 83301 11034 21042 39892 40332 52010 77187 8802/ 333 0/103 555 1/103;
0232385790999992000010903004+40120+067830FM-12+0345UTED V0203101N001010042019N0020001N1-00341-00451103411ADDAA112005091AJ100069199999999AY171031AY271031GF108991081001004501021999GJ100489IA1239MD1210091+9999MW1711REMSYN116AAXX  09031 38579 /1495 83101 11034 21045 40341 52009 77177 8802/ 333 47006 55008 555 21034 50051 53005 60052 7005/;
0123385790999992000010909004+40120+067830FM-12+0345UTED V0201501N003010075019N0100001N1-00121-00381103311ADDAA106000021GF107991071051008001001001MD1710131+9999REMSYN060AAXX  09091 38579 32597 71503 11012 21038 40331 57013 87500;
0173385790999992000010912004+40120+067830FM-12+0345UTED V0201601N001010075019N0100001N1-00141-00341103271ADDAA106000091GF107991071051008001001001MA1999999098911MD1710041+9999REMSYN076AAXX  09121 38579 32597 71601 11014 21034 39891 40327 57004 87500 555 1/101;EQDQ01  00002PRCP06
0151385790999992000010915004+40120+067830FM-12+0345UTED V0201601N001010075019N9999999N1-00131-00391103171ADDGF107991071051008001001001KA1120M-00121MD1810091+9999REMSYN086AAXX  09151 38579 /25// 71601 11013 21039 40317 58009 87500 333 11012 555 53005 69902;
0152385790999992000010918004+40120+067830FM-12+0345UTED V0201601N002010075019N9999999N1-00161-00331103001ADDAA112000791GF107991071051008001001001KA1999M-00121MD1710161+9999REMSYN076AAXX  09181 38579 125// 71602 11016 21033 40300 57016 69902 87500 333 11012;
0152385790999992000010921004+40120+067830FM-12+0345UTED V0201901N001012200019N9999999N1-00291-00461102821ADDAA106000091GA1001+999999999GF100991001001999999001001MD1710211+9999REMSYN054AAXX  09211 38579 329// 01901 11029 21046 40282 57021;EQDQ01  00002PRCP06
0183385790999992000011000004+40120+067830FM-12+0345UTED V0203401N001019999999N9999999N1-00321-00461102721ADDAA106000091GF107991071001999999071001MA1999999098351MD1710101+9999REMSYN086AAXX  10001 38579 329// 73401 11032 21046 39835 40272 57010 87070 333 0/104 555 1/103;EQDQ01  00002PRCP06
0209385790999992000011003004+40120+067830FM-12+0345UTED V0201401N001010075019N0020001N1-00271-00431102681ADDAA106000091AJ100029199999999GF107991071051008001001001IA1239MD1710021+9999REMSYN104AAXX  10031 38579 32595 71401 11027 21043 40268 57002 87500 333 47002 55/// 555 21037 51023 53004 7990/;EQDQ01  00002PRCP06
0165385790999992000011006004+40120+067830FM-12+0345UTED V0200701N001010075019N0020001N1-00161-00431102711ADDAA106000091GF107991071051008001001001KA1999N-00371MD1210041+9999REMSYN070AAXX  10061 38579 32595 70701 11016 21043 40271 52004 87500 333 21037;EQDQ01  00002PRCP06
0142385790999992000011009004+40120+067830FM-12+0345UTED V0201401N001010075019N0020001N1-00111-00401102521ADDAA106000091GF107991071051008001001001MD1710181+9999REMSYN060AAXX  10091 38579 32595 71401 11011 21040 40252 57018 87500;EQDQ01  00002PRCP06
0173385790999992000011012004+40120+067830FM-12+0345UTED V0202001N001010075019N0020001N1-00131-00391102521ADDAA106000091GF107991071051008001001001MA1999999098191MD1410001+9999REMSYN076AAXX  10121 38579 32595 72001 11013 21039 39819 40252 54000 87500 555 1/001;EQDQ01  00002PRCP06
0175385790999992000011015004+40120+067830FM-12+0345UTED V0201701N001010075019N9999999N1-00111-00361102521ADDAA106000091GF107991071051008001001001KA1120M-00091MD1410001+9999REMSYN080AAXX  10151 38579 325// 71701 11011 21036 40252 54000 87500 333 11009 555 53003;EQDQ01  00002PRCP06
0165385790999992000011018004+40120+067830FM-12+0345UTED V0203601N001010075019N9999999N1-00181-00391102571ADDAA106000091GF107991071051008001001001KA1999M-00091MD1210051+9999REMSYN070AAXX  10181 38579 325// 73601 11018 21039 40257 52005 87500 333 11009;EQDQ01  00002PRCP06
0142385790999992000011021004+40120+067830FM-12+0345UTED V0203601N001010075019N9999999N1-00211-00491102581ADDAA106000091GF107991071051008001001001MD1410001+9999REMSYN060AAXX  10211 38579 325// 73601 11021 21049 40258 54000 87500;EQDQ01  00002PRCP06
0183385790999992000011100004+40120+067830FM-12+0345UTED V0203601N002010075019N9999999N1-00331-00541102651ADDAA106000091GF107991071051008001001001MA1999999098291MD1210051+9999REMSYN086AAXX  11001 38579 325// 73602 11033 21054 39829 40265 52005 87500 333 04102 555 14102;EQDQ01  00002PRCP06
0225385790999992000011103004+40120+067830FM-12+0345UTED V0203601N001019999999N0100001N1-00511-00721102861ADDAA106000091AJ199992999999999GF105991051001999999031001IA1259MD1210171+9999REMSYN104AAXX  11031 38579 32997 53601 11051 21072 40286 52017 85030 333 41998 55/// 555 21051 51019 53004 7000/;EQDQ01  00002PRCP06Q02  09972SNDP  
0175385790999992000011106004+40120+067830FM-12+0345UTED V0200101N001012200019N0100001N1-00271-00611102911ADDAA106000091GA1001+999999999GF100991001001999999001001KA1999N-00511MD1210091+9999REMSYN064AAXX  11061 38579 32997 00101 11027 21061 40291 52009 333 21051;EQDQ01  00002PRCP06
0158385790999992000011109004+40120+067830FM-12+0345UTED V0203601N002019999999N0100001N1-00131-00421102741ADDAA106000091GF106991999001008001021001MD1710161+9999REMSYN060AAXX  11091 38579 32597 63602 11013 21042 40274 57016 88020;EQDQ01+000082SCOTLCQ02  00002PRCP06
0173385790999992000011112004+40120+067830FM-12+0345UTED V0200101N002010075019N0100001N1-00231-00521102801ADDAA106000091GF107991071051008001001001MA1999999098451MD1210051+9999REMSYN076AAXX  11121 38579 32597 70102 11023 21052 39845 40280 52005 87500 555 14101;EQDQ01  00002PRCP06
0175385790999992000011115004+40120+067830FM-12+0345UTED V0203601N003010075019N9999999N1-00241-00501102881ADDAA106000091GF107991071051008001001001KA1120M-00071MD1210071+9999REMSYN080AAXX  11151 38579 325// 73603 11024 21050 40288 52007 87500 333 11007 555 53005;EQDQ01  00002PRCP06
0165385790999992000011118004+40120+067830FM-12+0345UTED V0203401N002010075019N9999999N1-00321-00601102891ADDAA106000091GF107991071051008001001001KA1999M-00071MD1810011+9999REMSYN070AAXX  11181 38579 325// 73402 11032 21060 40289 58001 87500 333 11007;EQDQ01  00002PRCP06
0142385790999992000011121004+40120+067830FM-12+0345UTED V0209999C000010075019N9999999N1-00411-00601102831ADDAA106000091GF107991071051008001001001MD1710071+9999REMSYN060AAXX  11211 38579 325// 70000 11041 21060 40283 57007 87500;EQDQ01  00002PRCP06
0183385790999992000011200004+40120+067830FM-12+0345UTED V0200501N001010075019N9999999N1-00431-00591102741ADDAA106000091GF107991071051008001001001MA1999999098351MD1710091+9999REMSYN086AAXX  12001 38579 325// 70501 11043 21059 39835 40274 57009 87500 333 04102 555 14102;EQDQ01  00002PRCP06
0188385790999992000011203004+40120+067830FM-12+0345UTED V0209999C000010075019N0100001N1-00411-00531102741ADDAA106000091GF107991071051008001001001GJ103249MD1410001+9999REMSYN098AAXX  12031 38579 32597 70000 11041 21053 40274 54000 87500 333 55054 555 21043 51026 53006 7000/;EQDQ01  00002PRCP06
0163385790999992000011206004+40120+067830FM-12+0345UTED V0200401N001010042019N0020001N1-00341-00511102721ADDAY171061AY221061GF108991081061004501999999KA1999N-00431MD1410001+9999MW1771REMSYN076AAXX  12061 38579 41495 80401 11034 21051 40272 54000 77772 886// 333 21043;
0123385790999992000011209004+40120+067830FM-12+0345UTED V0203601N001010042019N0020001N1-00161-00461102501ADDAA106000021GF108991081061004501999999MD1710181+9999REMSYN060AAXX  12091 38579 32495 83601 11016 21046 40250 57018 886//;
0154385790999992000011212004+40120+067830FM-12+0345UTED V0203601N001010042019N0020001N1-00161-00461102501ADDAA106000021GF108991081061004501999999MA1999999098171MD1410001+9999REMSYN076AAXX  12121 38579 32495 83601 11016 21046 39817 40250 54000 886// 555 14101;
0151385790999992000011215004+40120+067830FM-12+0345UTED V0203601N002010042019N9999999N1-00231-00321102641ADDGF107991071051004501001001KA1120M-00161MD1210131+9999REMSYN086AAXX  12151 38579 /24// 73602 11023 21032 40264 52013 87500 333 11016 555 53004 69902;
0152385790999992000011218004+40120+067830FM-12+0345UTED V0203501N001010042019N9999999N1-00251-00411102701ADDAA112000791GF107991071051004501001001KA1999M-00161MD1210051+9999REMSYN076AAXX  12181 38579 124// 73501 11025 21041 40270 52005 69902 87500 333 11016;
0142385790999992000011221004+40120+067830FM-12+0345UTED V0200301N002010042019N9999999N1-00271-00431102781ADDAA106000091GF107991071051004501001001MD1210081+9999REMSYN060AAXX  12211 38579 324// 70302 11027 21043 40278 52008 87500;EQDQ01  00002PRCP06
0183385790999992000011300004+40120+067830FM-12+0345UTED V0209999C000010042019N9999999N1-00291-00421102961ADDAA106000091GF107991071051004501001001MA1999999098581MD1210151+9999REMSYN086AAXX  13001 38579 324// 70000 11029 21042 39858 40296 52015 87500 333 04102 555 14102;EQDQ01  00002PRCP06
0180385790999992000011303004+40120+067830FM-12+0345UTED V0200901N002010042019N0020001N1-00271-00431103071ADDAA106000091GF107991071051004501001001MD1210081+9999REMSYN098AAXX  13031 38579 32495 70902 11027 21043 40307 52008 87500 333 55/// 555 21029 51031 53003 7000/;EQDQ01  00002PRCP06
0182385790999992000011306004+40120+067830FM-12+0345UTED V0200901N001019999999N0020001N1-00291-00421103261ADDAY171061AY221061GF107991999061004501999999KA1999N-00291MD1210211+9999MW1771REMSYN076AAXX  13061 38579 41495 70901 11029 21042 40326 52021 77772 886// 333 21029;EQDQ01+000082SCOTLC
0140385790999992000011309004+40120+067830FM-12+0345UTED V0201101N002010042019N0020001N1-00191-00371103141ADDAY171031AY221031GF107991071051004501001001MD1710081+9999MW1021REMSYN066AAXX  13091 38579 41495 71102 11019 21037 40314 57008 70272 87500;
0122385790999992000011312004+40120+067830FM-12+0345UTED V0201601N001010042019N0020001N1-00101-00291103201ADDGF107991071051004501001001MD1510061+9999REMSYN070AAXX  13121 38579 42495 71601 11010 21029 40320 55006 87500 555 14101;
0145385790999992000011315004+40120+067830FM-12+0345UTED V0201401N002010042019N9999999N1-00171-00311103261ADDGF107991071051004501001001KA1120M-00101MD1210051+9999REMSYN080AAXX  13151 38579 /24// 71402 11017 21031 40326 52005 87500 333 11010 555 53005;
0152385790999992000011318004+40120+067830FM-12+0345UTED V0201201N001010042019N9999999N1-00151-00421103261ADDAA112000391GF107991071051004501001001KA1999M-00101MD1410001+9999REMSYN076AAXX  13181 38579 124// 71201 11015 21042 40326 54000 69932 87500 333 11010;
0146385790999992000011321004+40120+067830FM-12+034599999V0202201N00101004201EN9999999N1-00131-00271103111ADDAA199000091GF107991071051004501001001MD1710141+9999REMSYN064    AAXX  13211 38579 324// 72201 11013 21027 40311 57014 87500;EQDQ01  00002PRCP99
0187385790999992000011400004+40120+067830FM-12+034599999V0202701N00201004201EN9999999N1-00231-00321103131ADDAA199000091GF107991071051004501001001MA1999999098761MD1410001+9999REMSYN090    AAXX  14001 38579 324// 72702 11023 21032 39876 40313 54000 87500 333 04102 555 14101;EQDQ01  00002PRCP99
0184385790999992000011403004+40120+067830FM-12+034599999V0203201N00201004201EN0020001N1-00271-00371103181ADDAA199000091GF107991071051004501001001MD1310051+9999REMSYN102    AAXX  14031 38579 32495 73202 11027 21037 40318 53005 87500 333 55/// 555 21027 51023 53004 7993/;EQDQ01  00002PRCP99
0169385790999992000011406004+40120+067830FM-12+034599999V0200101N00101007501EN0100001N1-00181-00361103231ADDAA199000091GF107991071051008001001001KA1999N-00271MD1110071+9999REMSYN074    AAXX  14061 38579 32597 70101 11018 21036 40323 51007 87500 333 21027;EQDQ01  00002PRCP99
0146385790999992000011409004+40120+067830FM-12+034599999V0203301N00101007501EN0100001N1+00031-00221103151ADDAA199000091GF106991061021008001001001MD1710051+9999REMSYN064    AAXX  14091 38579 32597 63301 10003 21022 40315 57005 86200;EQDQ01  00002PRCP99
0177385790999992000011412004+40120+067830FM-12+034599999V0200101N00101007501EN0100001N1+00031-00321103171ADDAA199000091GF107991071051008001001001MA1999999098851MD1310021+9999REMSYN080    AAXX  14121 38579 32597 70101 10003 21032 39885 40317 53002 87500 555 11001;EQDQ01  00002PRCP99
0179385790999992000011415004+40120+067830FM-12+034599999V0203401N00101007501EN9999999N1-00101-00321103291ADDAA199000091GF107991071051008001001001KA1120M+00031MD1210081+9999REMSYN084    AAXX  14151 38579 325// 73401 11010 21032 40329 52008 87500 333 10003 555 53003;EQDQ01  00002PRCP99
0169385790999992000011418004+40120+067830FM-12+034599999V0200501N00101007501EN9999999N1-00131-00361103331ADDAA199000091GF107991071051008001001001KA1999M+00031MD1210041+9999REMSYN074    AAXX  14181 38579 325// 70501 11013 21036 40333 52004 87500 333 10003;EQDQ01  00002PRCP99
0146385790999992000011421004+40120+067830FM-12+034599999V0203601N00101007501EN9999999N1-00171-00311103341ADDAA199000091GF107991071051008001001001MD1210011+9999REMSYN064    AAXX  14211 38579 325// 73601 11017 21031 40334 52001 87500;EQDQ01  00002PRCP99
0187385790999992000011500004+40120+067830FM-12+034599999V0200201N00101007501EN9999999N1-00191-00321103341ADDAA199000091GF107991071051008001001001MA1999999098981MD1410001+9999REMSYN090    AAXX  15001 38579 325// 70201 11019 21032 39898 40334 54000 87500 333 04101 555 14101;EQDQ01  00002PRCP99
0196385790999992000011503004+40120+067830FM-12+034599999V0209999C00001007501EN0020001N1-00301-00401103401ADDAA124999999AY121031AY221031GF107991071051008001001001KA1120N-00321MD1210021+9999MW1101REMSYN098    AAXX  15031 38579 31595 70000 11030 21040 40340 52002 71022 87500 333 21032 51013 53002 7000/;
0197385790999992000011506004+40120+067830FM-12+034599999V0203201N00201007501EN0020001N1-00181-00421103401ADDAA199000091AY121061AY221061GF107991071051008001001001KA1999N-00321MD1210041+9999MW1101REMSYN080    AAXX  15061 38579 31595 73202 11018 21042 40340 52004 71022 87500 333 21032;EQDQ01  00002PRCP99
0174385790999992000011509004+40120+067830FM-12+034599999V0209999C00001007501EN0020001N1-00011-00341103221ADDAA199000091AY121031AY221031GF107991071051008001001001MD1710161+9999MW1101REMSYN070    AAXX  15091 38579 31595 70000 11001 21034 40322 57016 71022 87500;EQDQ01  00002PRCP99
0215385790999992000011512004+40120+067830FM-12+034599999V0202601N00101220001EN0020001N1+00071-00371103261ADDAA199000091AY111061AY201061GA1001+999999999GF100991001001999999001001MA1999999098931MD1310051+9999MW1101REMSYN080    AAXX  15121 38579 31995 02601 10007 21037 39893 40326 53005 71010 555 11001;EQDQ01  00002PRCP99
0207385790999992000011515004+40120+067830FM-12+034599999V0209999C00001999999EN9999999N1-00071-00381103281ADDAA199000091AY121031AY211031GF107991071001999999071001KA1120M+00101MD1410001+9999MW1101REMSYN090    AAXX  15151 38579 319// 70000 11007 21038 40328 54000 71021 87070 333 10010 555 53004;EQDQ01  00002PRCP99
0197385790999992000011518004+40120+067830FM-12+034599999V0200701N00101999999EN9999999N1-00091-00481103281ADDAA199000091AY121061AY211061GF107991071001999999071001KA1999M+00101MD1710011+9999MW1101REMSYN080    AAXX  15181 38579 319// 70701 11009 21048 40328 57001 71021 87070 333 10010;EQDQ01  00002PRCP99
0174385790999992000011521004+40120+067830FM-12+034599999V0209999C00001999999EN9999999N1-00121-00411103221ADDAA199000091AY121031AY221031GF107991071001999999071001MD1710051+9999MW1101REMSYN070    AAXX  15211 38579 319// 70000 11012 21041 40322 57005 71022 87070;EQDQ01  00002PRCP99
0215385790999992000011600004+40120+067830FM-12+034599999V0200801N00101999999EN9999999N1-00191-00401103171ADDAA199000091AY121061AY221061GF107991071001999999071001MA1999999098821MD1710051+9999MW1101REMSYN096    AAXX  16001 38579 319// 70801 11019 21040 39882 40317 57005 71022 87070 333 04103 555 14103;EQDQ01  00002PRCP99
0230385790999992000011603004+40120+067830FM-12+034599999V0209999C00001220001EN0020001N1-00411-00571103201ADDAA199000091AY111031AY201031GA1001+999999999GF100991001001999999001001GJ101449MD1710021+9999MW1101REMSYN102    AAXX  16031 38579 31995 00000 11041 21057 40320 57002 71010 333 55024 555 21041 51012 53004 7000/;EQDQ01  00002PRCP99
0207385790999992000011606004+40120+067830FM-12+034599999V0201401N00101220001EN0020001N1-00121-00521103121ADDAA199000091AY111061AY201061GA1001+999999999GF100991001001999999001001KA1999N-00411MD1710031+9999MW1101REMSYN074    AAXX  16061 38579 31995 01401 11012 21052 40312 57003 71010 333 21041;EQDQ01  00002PRCP99
0184385790999992000011609004+40120+067830FM-12+034599999V0200901N00301220001EN0020001N1+00261-00481102741ADDAA199000091AY101031AY201031GA1001+999999999GF100991001001999999001001MD1710301+9999MW1101REMSYN064    AAXX  16091 38579 31995 00903 10026 21048 40274 57030 71000;EQDQ01  00002PRCP99
0187385790999992000011612004+40120+067830FM-12+034599999V0200901N00301220001EN0100001N1+00281-00301102621ADDAA199000091GA1001+999999999GF100991001001999999001001MA1999999098331MD1710141+9999REMSYN074    AAXX  16121 38579 32997 00903 10028 21030 39833 40262 57014 555 11001;EQDQ01  00002PRCP99
0189385790999992000011615004+40120+067830FM-12+034599999V0209999C00001220001EN9999999N1-00191-00371102571ADDAA199000091GA1001+999999999GF100991001001999999001001KA1120M+00281MD1710091+9999REMSYN078    AAXX  16151 38579 329// 00000 11019 21037 40257 57009 333 10028 555 53006;EQDQ01  00002PRCP99
0179385790999992000011618004+40120+067830FM-12+034599999V0203301N00101220001EN9999999N1-00271-00571102411ADDAA199000091GA1001+999999999GF100991001001999999001001KA1999M+00281MD1710161+9999REMSYN068    AAXX  16181 38579 329// 03301 11027 21057 40241 57016 333 10028;EQDQ01  00002PRCP99
0146385790999992000011621004+40120+067830FM-12+034599999V0203301N00101999999EN9999999N1-00311-00591102311ADDAA199000091GF106991061001999999041001MD1710121+9999REMSYN064    AAXX  16211 38579 329// 63301 11031 21059 40231 57012 86040;EQDQ01  00002PRCP99
0197385790999992000011700004+40120+067830FM-12+034599999V0209999C00001220001EN9999999N1-00441-00601102251ADDAA199000091GA1001+999999999GF100991001001999999001001MA1999999097891MD1710071+9999REMSYN084    AAXX  17001 38579 329// 00000 11044 21060 39789 40225 57007 333 04105 555 14105;EQDQ01  00002PRCP99
0192385790999992000011703004+40120+067830FM-12+034599999V0201901N00101220001EN0200001N1-00311-00621102201ADDAA199000091GF103991001001999999001011GJ103789MD1710031+9999REMSYN102    AAXX  17031 38579 32998 31901 11031 21062 40220 57003 80001 333 55063 555 21045 51007 53003 7000/;EQDQ01  00002PRCP99
0169385790999992000011706004+40120+067830FM-12+034599999V0201801N00201999999EN0200001N1+00161-00281102181ADDAA199000091GF106991061001999999031001KA1999N-00451MD1110051+9999REMSYN074    AAXX  17061 38579 32998 61802 10016 21028 40218 51005 86030 333 21045;EQDQ01  00002PRCP99
0146385790999992000011709004+40120+067830FM-12+034599999V0201001N00201999999EN0200001N1+00681-00291101831ADDAA199000091GF105991051001999999031001MD1710261+9999REMSYN064    AAXX  17091 38579 32998 51002 10068 21029 40183 57026 85030;EQDQ01  00002PRCP99
0147385790999992000011712004+40120+067830FM-12+034599999V0202901N00101999999EN0200001N1+99999+99999999999ADDAA199000091GF107991999999999999999999REMSYN079    AAXX  17121 38579 32998 72901 1006 21004 39745 40162 56020 80006 555 11003;EQDQ01  00002PRCP99
0179385790999992000011715004+40120+067830FM-12+034599999V0209999C00001999999EN9999999N1+00121-00141101591ADDAA199000091GF107991001001999999001061KA1120M+00891MD1710101+9999REMSYN084    AAXX  17151 38579 329// 70000 10012 21014 40159 57010 80006 333 10089 555 53004;EQDQ01  00002PRCP99
0169385790999992000011718004+40120+067830FM-12+034599999V0203401N00101999999EN9999999N1+00361-00301101361ADDAA199000091GF107991051001999999071061KA1999M+00891MD1710211+9999REMSYN074    AAXX  17181 38579 329// 73401 10036 21030 40136 57021 85076 333 10089;EQDQ01  00002PRCP99
0146385790999992000011721004+40120+067830FM-12+034599999V0200201N00101007501EN9999999N1+00331-00341101381ADDAA199000091GF107991071051008001001001MD1310041+9999REMSYN064    AAXX  17211 38579 325// 70201 10033 21034 40138 53004 87500;EQDQ01  00002PRCP99
0204385790999992000011800004+40120+067830FM-12+034599999V0202901N00201999999EN9999999N1+00491-00271101631ADDAY181061AY221061GF107991999091004501999999MA1999999097431MD1310251+9999MW1801REMSYN096    AAXX  18001 38579 414// 72902 10049 21027 39743 40163 53025 78082 889// 333 01001 555 11001;EQDQ01+000082SCOTLC
0188385790999992000011803004+40120+067830FM-12+034599999V0201801N00301007501EN0100001N1+00231-00231101751ADDAY181031AY221031GF107991061091008001071001MD1210081+9999MW1021REMSYN114    AAXX  18031 38579 /1597 71803 10023 21023 40175 52008 70282 86970 333 55049 555 20012 50004 53005 69942 7994/;
0184385790999992000011806004+40120+067830FM-12+034599999V0203301N00201007501EN0100001N1+00241+00001102061ADDAA112000591AY181061AY221061GF107991071051008001001001KA1999N+00121MD1210301+9999MW1021REMSYN086    AAXX  18061 38579 11597 73302 10024 21000 40206 52030 69942 70282 87500 333 20012;
0144385790999992000011809004+40120+067830FM-12+034599999V0203201N00201004201EN0020001N1+00131+00021102191ADDAY181031AY221031GF108991081091004501999999MD1210111+9999MW1871REMSYN070    AAXX  18091 38579 41495 83202 10013 20002 40219 52011 78782 889//;
0175385790999992000011812004+40120+067830FM-12+034599999V0203201N00101004201EN0020001N1+00051-00031102321ADDAY181061AY271061GF108991081001004501021999MA1999999098031MD1210111+9999MW1711REMSYN086    AAXX  18121 38579 41495 83201 10005 21003 39803 40232 52011 77187 8802/ 555 12001;
0183385790999992000011815004+40120+067830FM-12+034599999V0201701N00301004201EN9999999N1+00081+00001102451ADDAY171031AY221031GF107991071051004501001001KA1120M+00471MD1210121+9999MW1021REMSYN096    AAXX  18151 38579 /14// 71703 10008 21000 40245 52012 70272 87500 333 10047 555 53007 60012;
0184385790999992000011818004+40120+067830FM-12+034599999V0200901N00101004201EN9999999N1+00051-00011102431ADDAA112001091AY171061AY221061GF107991071051004501001001KA1999M+00471MD1710021+9999MW1021REMSYN086    AAXX  18181 38579 114// 70901 10005 21001 40243 57002 60012 70272 87500 333 10047;
0155385790999992000011821004+40120+067830FM-12+034599999V0201301N00101004201EN9999999N1+00031-00031102431ADDAA199000021AY141031AY221031GF107991071051004501001001MD1510001+9999MW1421REMSYN070    AAXX  18211 38579 314// 71301 10003 21003 40243 55000 74242 87500;
0185385790999992000011900004+40120+067830FM-12+034599999V0200801N00101999999EN9999999N1+00051-00031102331ADDAY181061AY241061GF106991061001999999071001MA1999999098041MD1710091+9999MW1101REMSYN096    AAXX  19001 38579 419// 60801 10005 21003 39804 40233 57009 71084 86070 333 04101 555 14101;
0169385790999992000011906004+40120+067830FM-12+034599999V0202501N00101004201EN0020001N1+00841+00191102381ADDAA199000091GF105991051021004501001001KA1999N-00011MD1210051+9999REMSYN074    AAXX  19061 38579 32495 52501 10084 20019 40238 52005 85200 333 21001;EQDQ01  00002PRCP99
0156385790999992000011909004+40120+067830FM-12+034599999V0201601N00101220001EN0200001N1+00931+00211102071ADDAA199000091GA1001+999999999GF100991001001999999001001MD1710211+9999REMSYN058    AAXX  19091 38579 32998 01601 10093 20021 40207 57021;EQDQ01  00002PRCP99
0177385790999992000011912004+40120+067830FM-12+034599999V0201101N00201220001EN0200001N1+00921+00271101931ADDAA199000091GF101991001001999999001061MA1999999097791MD1710131+9999REMSYN080    AAXX  19121 38579 32998 11102 10092 20027 39779 40193 57013 80006 555 11008;EQDQ01  00002PRCP99
0185385790999992000011915004+40120+067830FM-12+0345UTED V0201801N001012200019N9999999N1+00471-00071101811ADDAA199000091GA1001+999999999GF100991001001999999001001KA1120M+01021MD1710191+9999REMSYN074AAXX  19151 38579 329// 01801 10047 21007 40181 57019 333 10102 555 53005;EQDQ01  00002PRCP99
0175385790999992000011918004+40120+067830FM-12+0345UTED V0202601N002012200019N9999999N1+00191+00031101661ADDAA199000091GA1001+999999999GF100991001001999999001001KA1999M+01021MD1710171+9999REMSYN064AAXX  19181 38579 329// 02602 10019 20003 40166 57017 333 10102;EQDQ01  00002PRCP99
0142385790999992000011921004+40120+067830FM-12+0345UTED V0202601N001019999999N9999999N1+00031-00081101611ADDAA199000091GF105991001001999999001011MD1710081+9999REMSYN060AAXX  19211 38579 329// 52601 10003 21008 40161 57008 80001;EQDQ01  00002PRCP99
0183385790999992000012000004+40120+067830FM-12+0345UTED V0202701N001019999999N9999999N1+00151-00131101301ADDAA199000091GF107991061001999999041011MA1999999097071MD1710281+9999REMSYN086AAXX  20001 38579 329// 72701 10015 21013 39707 40130 57028 86041 333 04103 555 14103;EQDQ01  00002PRCP99
0188385790999992000012003004+40120+067830FM-12+0345UTED V0202401N001019999999N0500001N1-00021-00171101271ADDAA199000091GF106991041001999999071011GJ104809MD1710061+9999REMSYN098AAXX  20031 38579 32999 62401 11002 21017 40127 57006 84071 333 55080 555 21002 50035 53003 7000/;EQDQ01  00002PRCP99
0165385790999992000012006004+40120+067830FM-12+0345UTED V0203201N003010075019N0200001N1+00621+00001101361ADDAA199000091GF107991051051008001071001KA1999N-00021MD1310191+9999REMSYN070AAXX  20061 38579 32598 73203 10062 20000 40136 53019 85570 333 21002;EQDQ01  00002PRCP99
0140385790999992000012009004+40120+067830FM-12+0345UTED V0201801N003010075019N0100001N1+01191+00271101191ADDAY181031AY221031GF106991051091008001071001MD1710081+9999MW1251REMSYN066AAXX  20091 38579 41597 61803 10119 20027 40119 57008 72582 85970;
0182385790999992000012012004+40120+067830FM-12+0345UTED V0203301N004010075019N0200001N1+01321+00501101321ADDAA199000021AY181061AY221061GF106991061091008001001001MA1999999097261MD1210141+9999MW1021REMSYN082AAXX  20121 38579 31598 63304 10132 20050 39726 40132 52014 70282 86900 555 11011;
0161385790999992000012015004+40120+067830FM-12+0345UTED V0202001N002012200019N9999999N1+00921+00341101571ADDGA1001+999999999GF100991001001999999001001KA1120M+01451MD1210191+9999REMSYN080AAXX  20151 38579 /29// 02002 10092 20034 40157 52019 333 10145 555 53008 69902;
0162385790999992000012018004+40120+067830FM-12+0345UTED V0202301N005012200019N9999999N1+00981+00251101561ADDAA112000791GA1001+999999999GF100991001001999999001001KA1999M+01451MD1410001+9999REMSYN070AAXX  20181 38579 129// 02305 10098 20025 40156 54000 69902 333 10145;
0133385790999992000012021004+40120+067830FM-12+0345UTED V0201701N002012200019N9999999N1+00741+00171101481ADDAA199000021GA1001+999999999GF100991001001999999001001MD1710121+9999REMSYN054AAXX  20211 38579 329// 01702 10074 20017 40148 57012;
0193385790999992000012100004+40120+067830FM-12+0345UTED V0201001N001012200019N9999999N1+00071-00131101591ADDAA199000091GA1001+999999999GF100991001001999999001001MA1999999097331MD1410001+9999REMSYN080AAXX  21001 38579 329// 01001 10007 21013 39733 40159 54000 333 04101 555 14101;EQDQ01  00002PRCP99
0198385790999992000012103004+40120+067830FM-12+0345UTED V0209999C000012200019N0500001N1-00041-00251101421ADDAA199000091GA1001+999999999GF100991001001999999001001GJ101629MD1710181+9999REMSYN092AAXX  21031 38579 32999 00000 11004 21025 40142 57018 333 55027 555 21012 50055 53009 7990/;EQDQ01  00002PRCP99
0165385790999992000012106004+40120+067830FM-12+0345UTED V0201701N003019999999N0500001N1+01001-00191101071ADDAA199000091GF105991001001999999001011KA1999N-00121MD1710171+9999REMSYN070AAXX  21061 38579 32999 51703 10100 21019 40107 57017 80001 333 21012;EQDQ01  00002PRCP99
0142385790999992000012109004+40120+067830FM-12+0345UTED V0201001N010019999999N0100001N1+01281-00381100821ADDAA199000091GF107991001001999999001031MD1710211+9999REMSYN060AAXX  21091 38579 32997 71010 10128 21038 40082 57021 80003;EQDQ01  00002PRCP99
0194385790999992000012112004+40120+067830FM-12+0345UTED V0201001N004019999999N0100001N1+01141-00071100781ADDAA199000091GF107991001001999999001071MA1999999096711MD1710061+9999OA149901801REMSYN086AAXX  21121 38579 32997 71004 10114 21007 39671 40078 57006 80007 333 91118 555 11008;EQDQ01  00002PRCP99
0175385790999992000012115004+40120+067830FM-12+0345UTED V0209999C000019999999N9999999N1+00511+00041100921ADDAA199000091GF107991001001999999001061KA1120M+01281MD1210051+9999REMSYN080AAXX  21151 38579 329// 70000 10051 20004 40092 52005 80006 333 10128 555 53018;EQDQ01  00002PRCP99
0165385790999992000012118004+40120+067830FM-12+0345UTED V0201901N001019999999N9999999N1+00211+00181101051ADDAA199000091GF105991001001999999001081KA1999M+01281MD1210091+9999REMSYN070AAXX  21181 38579 329// 51901 10021 20018 40105 52009 80008 333 10128;EQDQ01  00002PRCP99
0142385790999992000012121004+40120+067830FM-12+0345UTED V0200501N001019999999N9999999N1+00761+00041100981ADDAA199000091GF107991071001999999071001MD1410001+9999REMSYN060AAXX  21211 38579 329// 70501 10076 20004 40098 54000 87070;EQDQ01  00002PRCP99
0183385790999992000012200004+40120+067830FM-12+0345UTED V0201301N002019999999N9999999N1+00711+00021101061ADDAA199000091GF106991061001999999071001MA1999999096921MD1010071+9999REMSYN086AAXX  22001 38579 329// 61302 10071 20002 39692 40106 50007 86070 333 01102 555 11002;EQDQ01  00002PRCP99
0188385790999992000012203004+40120+067830FM-12+0345UTED V0200901N001019999999N0200001N1+00431+00061101141ADDAA199000091GF106991061001999999071001GJ104509MD1310041+9999REMSYN098AAXX  22031 38579 32998 60901 10043 20006 40114 53004 86070 333 55075 555 20021 50071 53004 7000/;EQDQ01  00002PRCP99
0165385790999992000012206004+40120+067830FM-12+0345UTED V0200901N001012200019N0200001N1+01571+00131101061ADDAA199000091GF102991021001999999071001KA1999N+00211MD1110101+9999REMSYN070AAXX  22061 38579 32998 20901 10157 20013 40106 51010 82070 333 20021;EQDQ01  00002PRCP99
0142385790999992000012209004+40120+067830FM-12+0345UTED V0202701N004019999999N0200001N1+01981+00021100911ADDAA199000091GF105991051001999999071001MD1710101+9999REMSYN060AAXX  22091 38579 32998 52704 10198 20002 40091 57010 85070;EQDQ01  00002PRCP99
0176385790999992000012212004+40120+067830FM-12+0345UTED V0202501N004019999999N0200001N1+01641+00021101101ADDAA199000021AY171061AY201061GF107991999999999999999999MA1999999097051MD1310091+9999MW1601REMSYN076AAXX  22121 38579 32998 72504 10164 20002 39705 40110 53009 76070 555 10016;
0156385790999992000012215004+40120+067830FM-12+0345UTED V0202301N006019999999N9999999N1+01521+00021101241ADDAA199000021GF108991081091999999999999KA1120M+02001MD1210161+9999REMSYN080AAXX  22151 38579 329// 82306 10152 20002 40124 52016 889// 333 10200 555 53012;
0163385790999992000012218004+40120+067830FM-12+0345UTED V0203401N004010075019N9999999N1+01081+00381101501ADDAY181061AY221061GF107991071051008001001001KA1999M+02001MD1210201+9999MW1021REMSYN076AAXX  22181 38579 415// 73404 10108 20038 40150 52020 70282 87500 333 10200;
0140385790999992000012221004+40120+067830FM-12+0345UTED V0202001N004010075019N9999999N1+00981+00411101671ADDAY181031AY221031GF108991081091008001999999MD1210141+9999MW1251REMSYN066AAXX  22211 38579 415// 82004 10098 20041 40167 52014 72582 889//;
0192385790999992000012300004+40120+067830FM-12+0345UTED V0209999C000010075019N9999999N1+00781+00561101791ADDAA199000021AY181061AY221061GF107991071051008001001001MA1999999097641MD1110091+9999MW1021REMSYN092AAXX  23001 38579 315// 70000 10078 20056 39764 40179 51009 70282 87500 333 01006 555 11006;
0156385790999992000012303004+40120+067830FM-12+0345UTED V0203301N003010075019N0100001N1+00511+00421101881ADDGF107991061051008001071001MD1210051+9999REMSYN104AAXX  23031 38579 /2597 73303 10051 20042 40188 52005 86570 333 55067 555 20051 50111 53012 69972 7997/;
0152385790999992000012306004+40120+067830FM-12+0345UTED V0202801N001010075019N0100001N1+00641+00461101971ADDAA112000891GF107991071051008001001001KA1999N+00501MD1210101+9999REMSYN076AAXX  23061 38579 12597 72801 10064 20046 40197 52010 69972 87500 333 20050;
0123385790999992000012309004+40120+067830FM-12+0345UTED V0200101N004010075019N0100001N1+00721+00461101951ADDAA199000021GF107991071051008001001001MD1510011+9999REMSYN060AAXX  23091 38579 32597 70104 10072 20046 40195 55001 87500;
0171385790999992000012312004+40120+067830FM-12+0345UTED V0201901N001010075019N0100001N1+00621+00411102111ADDAY181061AY221061GF108991081091008001999999MA1999999097921MD1210141+9999MW1801REMSYN082AAXX  23121 38579 41597 81901 10062 20041 39792 40211 52014 78082 889// 555 11007;
0179385790999992000012315004+40120+067830FM-12+0345UTED V0203401N003010075019N9999999N1+00491+00401102291ADDAY181031AY201031GF108991081091008001999999KA1120M+00801MD1210161+9999MW1821REMSYN092AAXX  23151 38579 /15// 83403 10049 20040 40229 52016 78280 889// 333 10080 555 53005 60022;
0180385790999992000012318004+40120+067830FM-12+0345UTED V0203601N001010075019N9999999N1+00481+00411102361ADDAA112002091AY181061AY221061GF107991071051008001001001KA1999M+00801MD1110061+9999MW1021REMSYN082AAXX  23181 38579 115// 73601 10048 20041 40236 51006 60022 70282 87500 333 10080;
0123385790999992000012321004+40120+067830FM-12+0345UTED V0200501N001010075019N9999999N1+00461+00441102421ADDAA199000021GF107991071051008001001001MD1310051+9999REMSYN060AAXX  23211 38579 325// 70501 10046 20044 40242 53005 87500;
0181385790999992000012400004+40120+067830FM-12+0345UTED V0203601N002010075019N9999999N1+00471+00421102391ADDAY141061AY221061GF107991071051008001001001MA1999999098171MD1510021+9999MW1441REMSYN092AAXX  24001 38579 415// 73602 10047 20042 39817 40239 55002 74442 87500 333 01005 555 11005;
0180385790999992000012406004+40120+067830FM-12+0345UTED V0209999C000010075019N0020001N1+00371+00271102531ADDAA112000591AY151061AY241061GF107991071051008001001001KA1999N+00331MD1210051+9999MW1101REMSYN082AAXX  24061 38579 11595 70000 10037 20027 40253 52005 69942 71054 87500 333 20033;
0170385790999992000012409004+40120+067830FM-12+0345UTED V0203601N002010075019N0020001N1+00371+00271102451ADDAA199000091AY121031AY221031GF108991081061008001999999MD1710081+9999MW1101REMSYN066AAXX  24091 38579 31595 83602 10037 20027 40245 57008 71022 886//;EQDQ01  00002PRCP99
0190385790999992000012412004+40120+067830FM-12+0345UTED V0203501N001010075019N0020001N1+00341+00211999999ADDAY151061AY221061GF107991071051008001001001MA1999999098271MD1210071+9999MW1101REMSYN082AAXX  24121 38579 41595 73501 10034 20021 39827 40152 52007 71052 87500 555 11005;EQDQ01+101523APOSLP
0151385790999992000012415004+40120+067830FM-12+0345UTED V0200201N001010075019N9999999N1+00291+00191102641ADDGF107991071091008001001001KA1120M+00371MD1210111+9999REMSYN086AAXX  24151 38579 /25// 70201 10029 20019 40264 52011 87900 333 10037 555 53003 69902;
0180385790999992000012418004+40120+067830FM-12+0345UTED V0203501N002010075019N9999999N1+00351+00221102781ADDAA112000791AY121061AY221061GF107991071051008001001001KA1999M+00371MD1210131+9999MW1101REMSYN082AAXX  24181 38579 115// 73502 10035 20022 40278 52013 69902 71022 87500 333 10037;
0170385790999992000012421004+40120+067830FM-12+0345UTED V0209999C000010075019N9999999N1+00391+00241102791ADDAA199000091AY121031AY221031GF107991071051008001001001MD1210031+9999MW1101REMSYN066AAXX  24211 38579 315// 70000 10039 20024 40279 52003 71022 87500;EQDQ01  00002PRCP99
0211385790999992000012500004+40120+067830FM-12+0345UTED V0203501N001010075019N9999999N1+00261+00131102911ADDAA199000091AY121061AY221061GF107991071051008001001001MA1999999097631MD1210091+9999MW1101REMSYN092AAXX  25001 38579 315// 73501 10026 20013 39763 40291 52009 71022 87500 333 01002 555 11002;EQDQ01  00002PRCP99
0180385790999992000012503004+40120+067830FM-12+0345UTED V0203601N002019999999N0100001N1+00071-00101103161ADDAA199000091GF107991071001999999071001MD1210211+9999REMSYN098AAXX  25031 38579 32997 73602 10007 21010 40316 52021 87070 333 55/// 555 20007 50039 53004 7990/;EQDQ01  00002PRCP99
0142385790999992000012509004+40120+067830FM-12+0345UTED V0200201N001019999999N0100001N1+00211-00041103291ADDAA199000091GF107991071001999999071001MD1710041+9999REMSYN060AAXX  25091 38579 32997 70201 10021 21004 40329 57004 87070;EQDQ01  00002PRCP99
0173385790999992000012512004+40120+067830FM-12+0345UTED V0200501N001019999999N0100001N1+00311+00021103271ADDAA199000091GF107991071001999999071001MA1999999098991MD1410001+9999REMSYN076AAXX  25121 38579 32997 70501 10031 20002 39899 40327 54000 87070 555 11005;EQDQ01  00002PRCP99
0175385790999992000012515004+40120+067830FM-12+0345UTED V0209999C000010075019N9999999N1+00031-00081103271ADDAA199000091GF107991071051008001001001KA1120M+00311MD1710051+9999REMSYN080AAXX  25151 38579 325// 70000 10003 21008 40327 57005 87500 333 10031 555 53004;EQDQ01  00002PRCP99
0165385790999992000012518004+40120+067830FM-12+0345UTED V0201201N001010075019N9999999N1+00071-00011103241ADDAA199000091GF107991071051008001001001KA1999M+00311MD1710031+9999REMSYN070AAXX  25181 38579 325// 71201 10007 21001 40324 57003 87500 333 10031;EQDQ01  00002PRCP99
0142385790999992000012521004+40120+067830FM-12+0345UTED V0209999C000010075019N9999999N1+00041+00011103031ADDAA199000091GF107991071051008001001001MD1710201+9999REMSYN060AAXX  25211 38579 325// 70000 10004 20001 40303 57020 87500;EQDQ01  00002PRCP99
0183385790999992000012600004+40120+067830FM-12+0345UTED V0209999C000010075019N9999999N1+00091+00041102811ADDAA199000091GF107991071051008001001001MA1999999098511MD1710201+9999REMSYN086AAXX  26001 38579 325// 70000 10009 20004 39851 40281 57020 87500 333 01001 555 11001;EQDQ01  00002PRCP99
0188385790999992000012603004+40120+067830FM-12+0345UTED V0201001N001010042019N0020001N1+00141+00001102811ADDAA199000091GF108991081061004501999999GJ100969MD1210011+9999REMSYN098AAXX  26031 38579 32495 81001 10014 20000 40281 52001 886// 333 55016 555 20003 50021 53003 7000/;EQDQ01  00002PRCP99
0193385790999992000012606004+40120+067830FM-12+0345UTED V0200201N001010075019N0020001N1+00291+00081102781ADDAA199000091AY121061AY221061GF106991061051008001001001KA1999N+00031MD1510001+9999MW1101REMSYN076AAXX  26061 38579 31595 60201 10029 20008 40278 55000 71022 86500 333 20003;EQDQ01  00002PRCP99
0170385790999992000012609004+40120+067830FM-12+0345UTED V0209999C000012200019N0020001N1+00641+00281102481ADDAA199000091AY111031AY201031GF102991021021008001001001MD1710231+9999MW1101REMSYN066AAXX  26091 38579 31595 20000 10064 20028 40248 57023 71010 82200;EQDQ01  00002PRCP99
0211385790999992000012612004+40120+067830FM-12+0345UTED V0200301N001012200019N0020001N1+00681+00381102451ADDAA199000091AY111061AY201061GA1001+999999999GF100991001001999999001001MA1999999098261MD1710021+9999MW1101REMSYN076AAXX  26121 38579 31595 00301 10068 20038 39826 40245 57002 71010 555 11007;EQDQ01  00002PRCP99
0203385790999992000012615004+40120+067830FM-12+0345UTED V0200901N001019999999N9999999N1+00311+00231102571ADDAA199000091AY121031AY211031GF107991071001008001071001KA1120M+00841MD1210051+9999MW1101REMSYN086AAXX  26151 38579 315// 70901 10031 20023 40257 52005 71021 87070 333 10084 555 53004;EQDQ01  00002PRCP99
0193385790999992000012618004+40120+067830FM-12+0345UTED V0201801N001019999999N9999999N1+00131+00101102531ADDAA199000091AY141061AY221061GF107991071001999999071001KA1999M+00841MD1710061+9999MW1441REMSYN076AAXX  26181 38579 319// 71801 10013 20010 40253 57006 74442 87070 333 10084;EQDQ01  00002PRCP99
0170385790999992000012621004+40120+067830FM-12+0345UTED V0201601N001019999999N9999999N1+00171+00121102361ADDAA199000091AY141031AY221031GF107991071001999999071001MD1710161+9999MW1441REMSYN066AAXX  26211 38579 319// 71601 10017 20012 40236 57016 74442 87070;EQDQ01  00002PRCP99
0227385790999992000012700004+40120+067830FM-12+0345UTED V0209999C000019999999N9999999N1-00091-00091102311ADDAA199000091AY141061AY221061GF107991999001999999071001MA1999999098011MD1710081+9999MW1461REMSYN092AAXX  27001 38579 319// 70000 11009 21009 39801 40231 57008 74642 86070 333 01000 555 11000;EQDQ01+000062SCOTLCQ02  00002PRCP99
0226385790999992000012703004+40120+067830FM-12+0345UTED V0201701N001012200019N0500001N1-00191-00341102231ADDAA199000091AY141031AY211031GA1001+999999999GF100991001001999999001001GJ103189MD1710101+9999MW1021REMSYN098AAXX  27031 38579 31999 01701 11019 21034 40223 57010 70241 333 55053 555 21029 50028 53003 7000/;EQDQ01  00002PRCP99
0152385790999992000012709004+40120+067830FM-12+0345UTED V0201401N001012200019N0500001N1+01161-00171101871ADDAA199000091GA1001+999999999GF100991001001999999001001MD1710171+9999REMSYN054AAXX  27091 38579 32999 01401 10116 21017 40187 57017;EQDQ01  00002PRCP99
0173385790999992000012712004+40120+067830FM-12+0345UTED V0201401N001019999999N0500001N1+01181-00441101841ADDAA199000091GF107991001001999999001071MA1999999097731MD1710031+9999REMSYN076AAXX  27121 38579 32999 71401 10118 21044 39773 40184 57003 80007 555 11010;EQDQ01  00002PRCP99
0185385790999992000012715004+40120+067830FM-12+0345UTED V0200701N001012200019N9999999N1+00531+00071101921ADDAA199000091GA1001+999999999GF100991001001999999001001KA1120M+01281MD1510011+9999REMSYN074AAXX  27151 38579 329// 00701 10053 20007 40192 55001 333 10128 555 53004;EQDQ01  00002PRCP99
0175385790999992000012718004+40120+067830FM-12+0345UTED V0209999C000012200019N9999999N1+00141-00051102021ADDAA199000091GA1001+999999999GF100991001001999999001001KA1999M+01281MD1210041+9999REMSYN064AAXX  27181 38579 329// 00000 10014 21005 40202 52004 333 10128;EQDQ01  00002PRCP99
0142385790999992000012721004+40120+067830FM-12+0345UTED V0201701N002012200019N9999999N1+00221-00211102031ADDAA199000091GF103991001001999999001011MD1310021+9999REMSYN060AAXX  27211 38579 329// 31702 10022 21021 40203 53002 80001;EQDQ01  00002PRCP99
0183385790999992000012800004+40120+067830FM-12+0345UTED V02099999999999999999N9999999N1+00541-00421101991ADDAA199000091GF105991051001999999071001MA1999999097791MD1210021+9999REMSYN086AAXX  28001 38579 329// 54302 10054 21042 39779 40199 52002 85070 333 04103 555 14101;EQDQ01  00002PRCP99
0188385790999992000012803004+40120+067830FM-12+0345UTED V0200901N001019999999N0200001N1+00231-00101102121ADDAA199000091GF106991061001999999071001GJ104809MD1210081+9999REMSYN098AAXX  28031 38579 32998 60901 10023 21010 40212 52008 86070 333 55080 555 20010 53004 50044 7000/;EQDQ01  00002PRCP99
0175385790999992000012806004+40120+067830FM-12+0345UTED V0201801N001019999999N0200001N1+00811+00021102161ADDAA199000091GF106991999999999999999999KA1999N+00101MD1210041+9999REMSYN064AAXX  28061 38579 32998 61801 10081 20002 40216 52079 333 20010;EQDQ01+000792APC3  Q02  00002PRCP99
0142385790999992000012809004+40120+067830FM-12+0345UTED V0201801N001019999999N0200001N1+01621+00041101871ADDAA199000091GF106991001001999999001091MD1710181+9999REMSYN060AAXX  28091 38579 32998 61801 10162 20004 40187 57018 80009;EQDQ01  00002PRCP99
0173385790999992000012812004+40120+067830FM-12+0345UTED V0201101N002019999999N0200001N1+01321-00051101861ADDAA199000091GF107991051001999999071091MA1999999097781MD1710051+9999REMSYN076AAXX  28121 38579 32998 71102 10132 21005 39778 40186 57005 85079 555 11013;EQDQ01  00002PRCP99
0185385790999992000012815004+40120+067830FM-12+0345UTED V0201601N001012200019N9999999N1+00851-00121101921ADDAA199000091GA1001+999999999GF100991001001999999001001KA1120M+01711MD1710011+9999REMSYN074AAXX  28151 38579 329// 01601 10085 21012 40192 57001 333 10171 555 53006;EQDQ01  00002PRCP99
0165385790999992000012818004+40120+067830FM-12+0345UTED V0209999C000010075019N9999999N1+00781+00021101881ADDAA199000091GF107991071051008001001001KA1999M+01711MD1710061+9999REMSYN070AAXX  28181 38579 325// 70000 10078 20002 40188 57006 87500 333 10171;EQDQ01  00002PRCP99
0142385790999992000012821004+40120+067830FM-12+0345UTED V0202601N001010075019N9999999N1+00721+00001101801ADDAA199000091GF107991071051008001001001MD1710071+9999REMSYN060AAXX  28211 38579 325// 72601 10072 21000 40180 57007 87500;EQDQ01  00002PRCP99
0183385790999992000012900004+40120+067830FM-12+0345UTED V0202601N001010075019N9999999N1+00781+00001101761ADDAA199000091GF107991071051008001001001MA1999999097601MD1710041+9999REMSYN086AAXX  29001 38579 325// 72601 10078 20000 39760 40176 57004 87500 333 01003 555 11005;EQDQ01  00002PRCP99
0188385790999992000012903004+40120+067830FM-12+0345UTED V0202801N001019999999N0200001N1+00701+00061101791ADDAA199000091GF107991051001999999071071GJ103369MD1310031+9999REMSYN098AAXX  29031 38579 32998 72801 10070 20006 40179 53003 85077 333 55056 555 20068 50072 53005 7000/;EQDQ01  00002PRCP99
0165385790999992000012906004+40120+067830FM-12+0345UTED V0201101N001019999999N0200001N1+01101+00151101841ADDAA199000091GF107991071001999999071001KA1999N+00681MD1210101+9999REMSYN070AAXX  29061 38579 32998 71101 10110 20015 40184 52010 87070 333 20068;EQDQ01  00002PRCP99
0142385790999992000012909004+40120+067830FM-12+0345UTED V0203601N002010075019N0200001N1+01381+00361101361ADDAA199000091GF107991051091008001071001MD1210061+9999REMSYN060AAXX  29091 38579 32598 73602 10138 20036 40136 52006 85970;EQDQ01  00002PRCP99
0173385790999992000012912004+40120+067830FM-12+0345UTED V0201401N002010075019N0200001N1+01301+00501101921ADDAA199000091GF107991051091008001071001MA1999999097841MD1210051+9999REMSYN076AAXX  29121 38579 32598 71402 10130 20050 39784 40192 52005 85970 555 11010;EQDQ01  00002PRCP99
0179385790999992000012915004+40120+067830FM-12+0345UTED V0203401N002010075019N9999999N1+01091+00361101991ADDAY121031AY251031GF108991081091008001999999KA1120M+01541MD1310031+9999MW1801REMSYN092AAXX  29151 38579 /15// 83402 10109 20036 40199 53003 78025 889// 333 10154 555 53009 69902;
0199385790999992000012918004+40120+067830FM-12+0345UTED V0200201N999990075019N9999999N1+00711+00531102061ADDAA112000791AY181061AY221061GF107991071051008001001001KA1999M+01541MD1310021+9999MW1021REMSYN082AAXX  29181 38579 115// 75203 10071 20053 40206 53002 69902 70282 87500 333 10154;EQDQ01+010301WOSPD 
0142385790999992000012921004+40120+067830FM-12+0345UTED V0202701N001019999999N9999999N1+00631+00471102031ADDAA199000021GF107991999001999999071001MD1710041+9999REMSYN060AAXX  29211 38579 329// 72701 10063 20047 40203 57004 86070;EQDQ01+000062SCOTLC
0164385790999992000013000004+40120+067830FM-12+0345UTED V0203601N001019999999N9999999N1+00551+00411102021ADDAA199000021GF107991071001999999071001MA1999999097821MD1810031+9999REMSYN086AAXX  30001 38579 329// 73601 10055 20041 39782 40202 58003 87070 333 01005 555 11005;
0184385790999992000013003004+40120+067830FM-12+0345UTED V0203301N002010075019N0020001N1+00491+00441102011ADDAY161031AY221031GF108991081001008001021999MD1710011+9999MW1611REMSYN110AAXX  30031 38579 /1595 83302 10049 20044 40201 57001 76162 8802/ 333 55/// 555 20049 50098 53007 60022 7002/;
0180385790999992000013006004+40120+067830FM-12+0345UTED V0203201N001010042019N0020001N1+00511+00441102031ADDAA112002091AY161061AY221061GF108991081001004501021999KA1999N+00491MD1210021+9999MW1631REMSYN082AAXX  30061 38579 11495 83201 10051 20044 40203 52002 60022 76362 8802/ 333 20049;
0140385790999992000013009004+40120+067830FM-12+0345UTED V0203201N002010042019N0020001N1+00381+00331102001ADDAY161031AY261031GF108991081001004501021999MD1710051+9999MW1611REMSYN066AAXX  30091 38579 41495 83202 10038 20033 40200 57005 76166 8802/;
0171385790999992000013012004+40120+067830FM-12+0345UTED V0203201N002010042019N0020001N1+00191+00111102101ADDAY161061AY261061GF108991081001004501021999MA1999999097851MD1210071+9999MW1611REMSYN082AAXX  30121 38579 41495 83202 10019 20011 39785 40210 52007 76166 8802/ 555 12003;
0179385790999992000013015004+40120+067830FM-12+0345UTED V0203301N003010042019N9999999N1+00061+00011102261ADDAY171031AY261031GF108991081001004501021999KA1120M+00511MD1310121+9999MW1711REMSYN092AAXX  30151 38579 /14// 83303 10006 20001 40226 53012 77176 8802/ 333 10051 555 53004 60102;
0180385790999992000013018004+40120+067830FM-12+0345UTED V0203401N004010042019N9999999N1-00051-00081102401ADDAA112009991AY171061AY261061GF108991081001004501021999KA1999M+00511MD1210131+9999MW1731REMSYN082AAXX  30181 38579 114// 83404 11005 21008 40240 52013 60102 77376 8802/ 333 10051;
0140385790999992000013021004+40120+067830FM-12+0345UTED V0203201N003010042019N9999999N1-00141-00191102591ADDAY171031AY271031GF108991081001004501021999MD1210161+9999MW1731REMSYN066AAXX  30211 38579 414// 83203 11014 21019 40259 52016 77377 8802/;
0181385790999992000013100004+40120+067830FM-12+0345UTED V0203201N002010042019N9999999N1-00161-00211102061ADDAY171061AY271061GF108991081001004501021999MA1999999098421MD1210161+9999MW1731REMSYN092AAXX  31001 38579 414// 83202 11016 21021 39842 40206 52016 77377 8802/ 333 0/102 555 1/102;
0243385790999992000013103004+40120+067830FM-12+0345UTED V0202701N002010042019N0020001N1-00201-00231103032ADDAA112014091AJ100089199999999AY171031AY271031GF108991081001004501021999IA1239MD1210251+9999MW1711REMSYN116AAXX  31031 38579 /1495 82702 11020 21023 40303 52025 77177 8802/ 333 47008 55/// 555 21020 50044 53007 60142 7024/;EQDQ01+103033APOSLP
0180385790999992000013106004+40120+067830FM-12+0345UTED V0203401N001010075019N0100001N1-00171+99999103171ADDAA112014091AY171061AY221061GF107991071051008001001001KA1999N-00201MD1210161+9999MW1221REMSYN082AAXX  31061 38579 11597 73401 11017 21014 40317 52016 60142 72272 87500 333 21020;
0123385790999992000013109004+40120+067830FM-12+0345UTED V0203601N001010075019N0100001N1-00051-00111103221ADDAA199000021GF107991071051008001001001MD1210051+9999REMSYN060AAXX  31091 38579 32597 73601 11005 21011 40322 52005 87500;
0154385790999992000013112004+40120+067830FM-12+0345UTED V0203601N001010075019N0100001N1-00191-00271103281ADDAA199000021GF107991071051008001001001MA1999999098921MD1210041+9999REMSYN076AAXX  31121 38579 32597 73601 11019 21027 39892 40328 52004 87500 555 1/000;
0179385790999992000013115004+40120+067830FM-12+0345UTED V0201401N002010075019N9999999N1-00191-00211103271ADDAY171031AY221031GF107991071051008001001001KA1120M-00051MD1810011+9999MW1021REMSYN092AAXX  31151 38579 /15// 71402 11019 21021 40327 58001 70272 87500 333 11005 555 53004 69962;
0190385790999992000013118004+40120+067830FM-12+0345UTED V0202301N002012200019N9999999N1-00091-00411103061ADDAA112000591AY171061AY221061GA1001+999999999GF100991001001999999001001KA1999M-00051MD1710201+9999MW1021REMSYN076AAXX  31181 38579 119// 02302 11009 21041 40306 57020 69962 70272 333 11005;
0142385790999992000013121004+40120+067830FM-12+0345UTED V0202301N001010075019N9999999N1-00311-00351102941ADDAA199000091GF107991071051008001001001MD1710151+9999REMSYN060AAXX  31211 38579 315// 72301 11031 21035 40294 57015 87500;EQDQ01  00002PRCP99
0245385790999992000020103004+40120+067830FM-12+0345UTED V0200101N001010075019N0005001N1-00471-00501102791ADDAA199000091AJ100079199999999AY141031AY221031GF107991071051008001001001GJ100069IA1239MD1710091+9999MW1481REMSYN110AAXX  01031 38579 31593 70101 11047 21050 40279 57009 74842 87500 333 47007 55001 555 21047 51013 53004 7996/;EQDQ01  00002PRCP99
0173385790999992000020106004+40120+067830FM-12+0345UTED V0200301N001010075019N0005001N1-00331-00331102631ADDAA199000091AY141061AY221061GF107991071051008001001001KA1999N-00471MW1481REMSYN070AAXX  01061 38579 31593 70301 11033 21033 40263 74842 87500 333 21047;EQDQ01  00002PRCP99
0170385790999992000020109004+40120+067830FM-12+0345UTED V0200501N001010075019N0100001N1-00211-00301102361ADDAA199000091AY141031AY221031GF107991071051008001001001MD1710241+9999MW1021REMSYN066AAXX  01091 38579 31597 70501 11021 21030 40236 57024 70242 87500;EQDQ01  00002PRCP99
0201385790999992000020112004+40120+067830FM-12+0345UTED V0202701N001010075019N0100001N1-00171-00251102161ADDAA199000091AY141061AY221061GF107991071051008001001001MA1999999097851MD1710181+9999MW1021REMSYN082AAXX  01121 38579 31597 72701 11017 21025 39785 40216 57018 70242 87500 555 1/100;EQDQ01  00002PRCP99
0161385790999992000020115004+40120+067830FM-12+0345UTED V0209999C000012200019N0001001N1-00131-00271102071ADDGA1001+999999999GF100991001001999999001001KA1120M-00131MD1710091+9999REMSYN080AAXX  01151 38579 /1601 00000 11013 21027 40207 57009 87500 333 11013 555 53003;
0152385790999992000020118004+40120+067830FM-12+0345UTED V0201601N001010075019N9999999N1-00141-00251101921ADDAA199000091GF107991071051008001001001MD1710141+9999REMSYN070AAXX  01181 38579 325// 71601 11014 21025 40192 57014 87500 333 1/013;EQDQ01  00002PRCP99
0142385790999992000020121004+40120+067830FM-12+0345UTED V0201801N002010075019N9999999N1-00271-00371101761ADDAA199000091GF107991071051008001001001MD1710171+9999REMSYN060AAXX  01211 38579 325// 71802 11027 21037 40176 57017 87500;EQDQ01  00002PRCP99
0193385790999992000020200004+40120+067830FM-12+0345UTED V0209999C000012200019N9999999N1-00511-00611101711ADDAA199000091GA1001+999999999GF100991001001999999001001MA1999999097351MD1710101+9999REMSYN080AAXX  02001 38579 329// 00000 11051 21061 39735 40171 57010 333 0/110 555 1/110;EQDQ01  00002PRCP99
0209385790999992000020203004+40120+067830FM-12+0345UTED V0209999C000019999999N0500001N1-00721-00811101791ADDAA199000091AJ100079199999999GF106991001001999999001011IA1239MD1710011+9999REMSYN104AAXX  02031 38579 32999 60000 11072 21081 40179 57001 80001 333 47007 55/// 555 21072 51026 53004 7000/;EQDQ01  00002PRCP99
0165385790999992000020206004+40120+067830FM-12+0345UTED V0200501N001019999999N0500001N1+00211-00381101601ADDAA199000091GF106991001001999999001011KA1999N-00721MD1210031+9999REMSYN070AAXX  02061 38579 32999 60501 10021 21038 40160 52003 80001 333 21072;EQDQ01  00002PRCP99
0142385790999992000020209004+40120+067830FM-12+0345UTED V0201201N003019999999N0500001N1+00571-00201101491ADDAA199000091GF106991001001999999001071MD1710061+9999REMSYN060AAXX  02091 38579 32999 61203 10057 21020 40149 57006 80007;EQDQ01  00002PRCP99
0173385790999992000020212004+40120+067830FM-12+0345UTED V0201401N002019999999N0200001N1+00431-00431101511ADDAA199000091GF107991071001999999071001MA1999999097311MD1410001+9999REMSYN076AAXX  02121 38579 32998 71402 10043 21043 39731 40151 54000 87070 555 1/003;EQDQ01  00002PRCP99
0175385790999992000020215004+40120+067830FM-12+0345UTED V0202701N002019999999N9999999N1+00231-00171101601ADDAA199000091GF107991071001999999071001KA1120M+00621MD1310061+9999REMSYN080AAXX  02151 38579 329// 72702 10023 21017 40160 53006 87070 333 10062 555 53004;EQDQ01  00002PRCP99
0165385790999992000020218004+40120+067830FM-12+0345UTED V0202601N004010075019N9999999N1+00531-00401101681ADDAA199000091GF107991071051008001001001KA1999M+00621MD1210131+9999REMSYN070AAXX  02181 38579 325// 72604 10053 21040 40168 52013 87500 333 10062;EQDQ01  00002PRCP99
0142385790999992000020221004+40120+067830FM-12+0345UTED V0200901N002010075019N9999999N1+00631-00021101781ADDAA199000091GF107991071051008001001001MD1210101+9999REMSYN060AAXX  02211 38579 325// 70902 10063 21002 40178 52010 87500;EQDQ01  00002PRCP99
0183385790999992000020300004+40120+067830FM-12+0345UTED V0202901N003010075019N9999999N1+00261+00081102121ADDAA199000091GF107991051041008001071001MA1999999097871MD1210271+9999REMSYN086AAXX  03001 38579 325// 72903 10026 20008 39787 40212 52027 85470 333 0/000 555 1/001;EQDQ01  00002PRCP99
0217385790999992000020303004+40120+067830FM-12+0345UTED V0209999C000010075019N0100001N1+00251+00151102421ADDAA199000091AJ100029199999999GF107991071051008001001001GJ103129IA1309MD1210291+9999REMSYN104AAXX  03031 38579 32597 70000 10025 20015 40242 52029 87500 333 42002 55052 555 20015 51003 53009 7000/;EQDQ01  00002PRCP99
0163385790999992000020306004+40120+067830FM-12+0345UTED V0203001N002010075019N0100001N1+00241+00031102621ADDAY161061AY221061GF107991071051008001001001KA1999N+00151MD1210191+9999MW1021REMSYN076AAXX  03061 38579 41597 73002 10024 20003 40262 52019 70262 87500 333 20015;
0142385790999992000020309004+40120+067830FM-12+0345UTED V0203501N002010042019N0020001N1+00241+00111102661ADDAA199000091GF107991071051004501001001MD1210041+9999REMSYN060AAXX  03091 38579 32495 73502 10024 20011 40266 52004 87500;EQDQ01  00002PRCP99
0173385790999992000020312004+40120+067830FM-12+0345UTED V0200601N001010042019N0020001N1+00291+00131102751ADDAA199000091GF107991071051004501001001MA1999999098491MD1210101+9999REMSYN076AAXX  03121 38579 32495 70601 10029 20013 39849 40275 52010 87500 555 12004;EQDQ01  00002PRCP99
0181385790999992000020315004+40120+067830FM-12+0345UTED V0201301N001010042019N9999999N1+00271+00171102861ADDAA199000091GF107991071051004501001001KA1120M+00291MD1210091+9999REMSYN086AAXX  03151 38579 324// 71301 10027 20017 40286 52009 87500 333 10029 555 53004 699//;EQDQ01  00002PRCP99
0152385790999992000020318004+40120+067830FM-12+0345UTED V0201401N001010042019N9999999N1+00241+00161102961ADDAA112000391GF107991071051004501001001KA1999M+00291MD1210081+9999REMSYN076AAXX  03181 38579 124// 71401 10024 20016 40296 52008 69932 87500 333 10029;
0142385790999992000020321004+40120+067830FM-12+0345UTED V0201401N001010042019N9999999N1+00231+00071102971ADDAA199000091GF107991071051004501001001MD1210031+9999REMSYN060AAXX  03211 38579 324// 71401 10023 20007 40297 52003 87500;EQDQ01  00002PRCP99
0183385790999992000020400004+40120+067830FM-12+0345UTED V0201301N001010042019N9999999N1+00231+00041102861ADDAA199000091GF107991071051004501001001MA1999999098581MD1710111+9999REMSYN086AAXX  04001 38579 324// 71301 10023 20004 39858 40286 57011 87500 333 02002 555 12002;EQDQ01  00002PRCP99
0158385790999992000020403004+40120+067830FM-12+0345UTED V0209999C000010075019N0100001N1+00191+00031102911ADDAA124999999GF107991071051008001001001KA1120N+00191MD1310051+9999REMSYN082AAXX  04031 38579 32597 70000 10019 20003 40291 53005 87500 333 20019 50034 7003/;
0165385790999992000020406004+40120+067830FM-12+0345UTED V0200801N001010075019N0100001N1+00381+00041102961ADDAA199000091GF107991071051008001001001KA1999N+00191MD1210081+9999REMSYN070AAXX  04061 38579 32597 70801 10038 20004 40296 52008 87500 333 20019;EQDQ01  00002PRCP99
0142385790999992000020409004+40120+067830FM-12+0345UTED V0201201N002010075019N0100001N1+00511+00041102761ADDAA199000091GF107991071051008001001001MD1710161+9999REMSYN060AAXX  04091 38579 32597 71202 10051 20004 40276 57016 87500;EQDQ01  00002PRCP99
0173385790999992000020412004+40120+067830FM-12+0345UTED V0200801N004010075019N0100001N1+00541+00221102661ADDAA199000091GF106991061051008001001001MA1999999098431MD1710101+9999REMSYN076AAXX  04121 38579 32597 60804 10054 20022 39843 40266 57010 86500 555 12006;EQDQ01  00002PRCP99
0175385790999992000020415004+40120+067830FM-12+0345UTED V0200601N001010075019N9999999N1+00251+00041102661ADDAA199000091GF107991071051008001001001KA1120M+00641MD1210041+9999REMSYN080AAXX  04151 38579 325// 70601 10025 20004 40266 52004 87500 333 10064 555 53007;EQDQ01  00002PRCP99
0165385790999992000020418004+40120+067830FM-12+0345UTED V0209999C000010075019N9999999N1+00211+00051102501ADDAA199000091GF107991071051008001001001KA1999M+00641MD1710151+9999REMSYN070AAXX  04181 38579 325// 70000 10021 20005 40250 57015 87500 333 10064;EQDQ01  00002PRCP99
0152385790999992000020421004+40120+067830FM-12+0345UTED V0209999C000012200019N9999999N1-00031-00091102421ADDAA199000091GA1001+999999999GF100991001001999999001001MD1710131+9999REMSYN054AAXX  04211 38579 329// 00000 11003 21009 40242 57013;EQDQ01  00002PRCP99
0193385790999992000020500004+40120+067830FM-12+0345UTED V0209999C000012200019N9999999N1-00161-00221102271ADDAA199000091GA1001+999999999GF100991001001999999001001MA1999999097951MD1710161+9999REMSYN080AAXX  05001 38579 329// 00000 11016 21022 39795 40227 57016 333 04102 555 14102;EQDQ01  00002PRCP99
0198385790999992000020503004+40120+067830FM-12+0345UTED V0209999C000012200019N0200001N1-00241-00301102231ADDAA199000091GA1001+999999999GF100991001001999999001001GJ100669MD1710051+9999REMSYN092AAXX  05031 38579 32998 00000 11024 21030 40223 57005 333 55011 555 21024 50032 53003 7000/;EQDQ01  00002PRCP99
0175385790999992000020506004+40120+067830FM-12+0345UTED V0203001N001012200019N0100001N1+00381-00021102081ADDAA199000091GA1001+999999999GF100991001001999999001001KA1999N-00241MD1710051+9999REMSYN064AAXX  05061 38579 32997 03001 10038 21002 40208 57005 333 21024;EQDQ01  00002PRCP99
0152385790999992000020509004+40120+067830FM-12+0345UTED V0202801N001012200019N0200001N1+00821+00111101791ADDAA199000091GA1001+999999999GF100991001001999999001001MD1710211+9999REMSYN054AAXX  05091 38579 32998 02801 10082 20011 40179 57021;EQDQ01  00002PRCP99
0183385790999992000020512004+40120+067830FM-12+0345UTED V0209999C000012200019N0200001N1+00941+00171101711ADDAA199000091GA1001+999999999GF100991001001999999001001MA1999999097581MD1710061+9999REMSYN070AAXX  05121 38579 32998 00000 10094 20017 39758 40171 57006 555 12011;EQDQ01  00002PRCP99
0185385790999992000020515004+40120+067830FM-12+0345UTED V0209999C000012200019N9999999N1+00361+00101101831ADDAA199000091GA1001+999999999GF100991001001999999001001KA1120M+00981MD1310031+9999REMSYN074AAXX  05151 38579 329// 00000 10036 20010 40183 53003 333 10098 555 53003;EQDQ01  00002PRCP99
0175385790999992000020518004+40120+067830FM-12+0345UTED V0201801N001012200019N9999999N1+00171+00061101801ADDAA199000091GA1001+999999999GF100991001001999999001001KA1999M+00981MD1710061+9999REMSYN064AAXX  05181 38579 329// 01801 10017 20006 40180 57006 333 10098;EQDQ01  00002PRCP99
0152385790999992000020521004+40120+067830FM-12+0345UTED V0201801N002012200019N9999999N1+00171-00061101801ADDAA199000091GA1001+999999999GF100991001001999999001001MD1410001+9999REMSYN054AAXX  05211 38579 329// 01802 10017 21006 40180 54000;EQDQ01  00002PRCP99
0193385790999992000020600004+40120+067830FM-12+0345UTED V0202701N002012200019N9999999N1+00521-00201101771ADDAA199000091GA1001+999999999GF100991001001999999001001MA1999999097591MD1210041+9999REMSYN080AAXX  06001 38579 329// 02702 10052 21020 39759 40177 52004 333 04101 555 14101;EQDQ01  00002PRCP99
0188385790999992000020603004+40120+067830FM-12+0345UTED V0201801N003019999999N0500001N1+00531-00251101811ADDAA199000091GF106991001001999999001011GJ104929MD1210031+9999REMSYN098AAXX  06031 38579 32999 61803 10053 21025 40181 52003 80001 333 55082 555 20008 50029 53007 7000/;EQDQ01  00002PRCP99
0165385790999992000020606004+40120+067830FM-12+0345UTED V0202301N003019999999N0200001N1+01001-00091101791ADDAA199000091GF107991001001999999001011KA1999N+00081MD1210051+9999REMSYN070AAXX  06061 38579 32998 72303 10100 21009 40179 52005 80001 333 20008;EQDQ01  00002PRCP99
0142385790999992000020609004+40120+067830FM-12+0345UTED V0202201N003019999999N0200001N1+01351+00171101551ADDAA199000091GF107991001001999999001011MD1710181+9999REMSYN060AAXX  06091 38579 32998 72203 10135 20017 40155 57018 80001;EQDQ01  00002PRCP99
0173385790999992000020612004+40120+067830FM-12+0345UTED V0202701N002019999999N0200001N1+01201+00231101541ADDAA199000091GF107991071001999999071001MA1999999097461MD1710031+9999REMSYN076AAXX  06121 38579 32998 72702 10120 20023 39746 40154 57003 87070 555 12011;EQDQ01  00002PRCP99
0185385790999992000020615004+40120+067830FM-12+0345UTED V0202601N001012200019N9999999N1+00721+00211101661ADDAA199000091GA1001+999999999GF100991001001999999001001KA1120M+01401MD1210041+9999REMSYN074AAXX  06151 38579 329// 02601 10072 20021 40166 52004 333 10140 555 53007;EQDQ01  00002PRCP99
0175385790999992000020618004+40120+067830FM-12+0345UTED V0202301N001012200019N9999999N1+00431+00181101751ADDAA199000091GA1001+999999999GF100991001001999999001001KA1999M+01401MD1210041+9999REMSYN064AAXX  06181 38579 329// 02301 10043 20018 40175 52004 333 10140;EQDQ01  00002PRCP99
0152385790999992000020621004+40120+067830FM-12+0345UTED V0209999C000012200019N9999999N1+00111+00001101711ADDAA199000091GA1001+999999999GF100991001001999999001001MD1710071+9999REMSYN054AAXX  06211 38579 329// 00000 10011 20000 40171 57007;EQDQ01  00002PRCP99
0183385790999992000020700004+40120+067830FM-12+0345UTED V0209999C000012200019N9999999N1+00021-00071101631ADDAA199000091GA1001+999999999GF100991001001999999001001MA1999999097371MD1710101+9999REMSYN070AAXX  07001 38579 329// 00000 10002 21007 39737 40163 57010 555 14102;EQDQ01  00002PRCP99
0198385790999992000020703004+40120+067830FM-12+0345UTED V0209999C000012200019N0500001N1-00141-00221101591ADDAA199000091GA1001+999999999GF100991001001999999001001GJ104209MD1710071+9999REMSYN092AAXX  07031 38579 32999 00000 11014 21022 40159 57007 333 55070 555 21014 50072 53007 7000/;EQDQ01  00002PRCP99
0165385790999992000020706004+40120+067830FM-12+0345UTED V0203301N002019999999N0500001N1+00641+00251101411ADDAA199000091GF106991001001999999001081KA1999N-00141MD1710051+9999REMSYN070AAXX  07061 38579 32999 63302 10064 20025 40141 57005 80008 333 21014;EQDQ01  00002PRCP99
0142385790999992000020709004+40120+067830FM-12+0345UTED V0201801N002019999999N0500001N1+00941+00211100981ADDAA199000091GF107991001001999999001081MD1710371+9999REMSYN060AAXX  07091 38579 32999 71802 10094 20021 40098 57037 80008;EQDQ01  00002PRCP99
0173385790999992000020712004+40120+067830FM-12+0345UTED V0201101N001019999999N0500001N1+01061+00361100991ADDAA199000091GF107991001001999999001081MA1999999096911MD1710081+9999REMSYN076AAXX  07121 38579 32999 71101 10106 20036 39691 40099 57008 80008 555 12011;EQDQ01  00002PRCP99
0185385790999992000020715004+40120+067830FM-12+0345UTED V0209999C000012200019N9999999N1+00551+00311101111ADDAA199000091GA1001+999999999GF100991001001999999001001KA1120M+01061MD1710031+9999REMSYN074AAXX  07151 38579 329// 00000 10055 20031 40111 57003 333 10106 555 53004;EQDQ01  00002PRCP99
0152385790999992000020721004+40120+067830FM-12+0345UTED V0209999C000012200019N9999999N1+00171-00021100981ADDAA199000091GA1001+999999999GF100991001001999999001001MD1710161+9999REMSYN054AAXX  07211 38579 329// 00000 10017 21002 40098 57016;EQDQ01  00002PRCP99
0183385790999992000020800004+40120+067830FM-12+0345UTED V0201201N001019999999N9999999N1+00451+00091100961ADDAA199000091GF107991071001999999071001MA1999999096791MD1210031+9999REMSYN086AAXX  08001 38579 329// 71201 10045 20009 39679 40096 52003 87070 333 02101 555 12101;EQDQ01  00002PRCP99
0188385790999992000020803004+40120+067830FM-12+0345UTED V0201401N002010360019N0500001N1+00781+00021100921ADDAA199000091GF107991031091008001071001GJ103369MD1410001+9999REMSYN098AAXX  08031 38579 32599 71402 10078 20002 40092 54000 83970 333 55056 555 20012 50045 53004 7000/;EQDQ01  00002PRCP99
0142385790999992000020809004+40120+067830FM-12+0345UTED V0200901N002019999999N0200001N1+01561+00211100771ADDAA199000091GF107991001001999999001051MD1710171+9999REMSYN060AAXX  08091 38579 32998 70902 10156 20021 40077 57017 80005;EQDQ01  00002PRCP99
0173385790999992000020812004+40120+067830FM-12+0345UTED V0203601N004019999999N0100001N1+00821+00461100981ADDAA199000091GF107991061001999999071051MA1999999096871MD1210111+9999REMSYN076AAXX  08121 38579 32997 73604 10082 20046 39687 40098 52011 86075 555 11009;EQDQ01  00002PRCP99
0175385790999992000020815004+40120+067830FM-12+0345UTED V0203301N003019999999N9999999N1+00451+00141101281ADDAA199000091GF107991071051999999001001KA1120M+01601MD1210231+9999REMSYN080AAXX  08151 38579 329// 73303 10045 20014 40128 52023 87500 333 10160 555 53008;EQDQ01  00002PRCP99
0165385790999992000020818004+40120+067830FM-12+0345UTED V0203401N002010075019N9999999N1+00391+00191101461ADDAA199000091GF108991081091008001999999KA1999M+01601MD1210171+9999REMSYN070AAXX  08181 38579 325// 83402 10039 20019 40146 52017 889// 333 10160;EQDQ01  00002PRCP99
0140385790999992000020821004+40120+067830FM-12+0345UTED V0203001N001010075019N9999999N1+00051-00011101731ADDAY181031AY271031GF108991081001008001021999MD1210201+9999MW1731REMSYN066AAXX  08211 38579 415// 83001 10005 21001 40173 52020 77387 8802/;
0181385790999992000020900004+40120+067830FM-12+0345UTED V0203101N001010075019N9999999N1+00031-00031101991ADDAY181061AY271061GF108991081001008001021999MA1999999097711MD1210241+9999MW1731REMSYN092AAXX  09001 38579 415// 83101 10003 21003 39771 40199 52024 77387 8802/ 333 0/000 555 1/000;
0237385790999992000020903004+40120+067830FM-12+0345UTED V0203301N001019999999N0010001N1-00121-00171102401ADDAA112009091AJ100069199999999AY171031AY271031GF107991999001008001021999IA1239MD1210371+9999MW1731REMSYN110AAXX  09031 38579 /1594 73301 11012 21017 40240 52037 77377 8802/ 333 47006 555 21012 50073 53007 60092 7009/;EQDQ01+000082SCOTLC
0146385790999992000020906004+40120+067830FM-12+0345UTED V0203301N002019999999N0010001N1-00121-00171102621ADDAA112008991GF108991999999008001999999KA1999N-00121MD1210211+9999REMSYN070AAXX  09061 38579 11594 83302 11012 21017 40262 52021 60092 333 21012;
0140385790999992000020909004+40120+067830FM-12+0345UTED V0200601N001010075019N0010001N1-00061-00151102711ADDAY171031AY221031GF108991081001008001021999MD1210101+9999MW1711REMSYN066AAXX  09091 38579 41594 80601 11006 21015 40271 52010 77172 8802/;
0171385790999992000020912004+40120+067830FM-12+0345UTED V0201301N002010075019N0100001N1-00121-00171102821ADDAY171061AY221061GF106991061051008001001001MA1999999098481MD1210071+9999MW1021REMSYN082AAXX  09121 38579 41597 61302 11012 21017 39848 40282 52007 70272 86500 555 1/101;
0151385790999992000020915004+40120+067830FM-12+0345UTED V0209999C000010075019N9999999N1-00231-00381103021ADDGF107991071051008001001001KA1120M-00021MD1210181+9999REMSYN086AAXX  09151 38579 /25// 70000 11023 21038 40302 52018 87500 333 11002 555 53004 6002/;
0162385790999992000020918004+40120+067830FM-12+0345UTED V0201801N002012200019N9999999N1-00201-00591103051ADDAA112002091GA1001+999999999GF100991001001999999001001KA1999M-00021MD1210031+9999REMSYN070AAXX  09181 38579 129// 01802 11020 21059 40305 52003 60022 333 11002;
0133385790999992000020921004+40120+067830FM-12+0345UTED V0201801N003012200019N9999999N1-00201-00451103021ADDAA199000021GA1001+999999999GF100991001001999999001001MD1710031+9999REMSYN054AAXX  09211 38579 329// 01803 11020 21045 40302 57003;
0193385790999992000021000004+40120+067830FM-12+0345UTED V0202201N003012200019N9999999N1-00291-00461103041ADDAA199000091GA1001+999999999GF100991001001999999001001MA1999999098661MD1410001+9999REMSYN080AAXX  10001 38579 329// 02203 11029 21046 39866 40304 54000 333 0/107 555 1/106;EQDQ01  00002PRCP99
0219385790999992000021003004+40120+067830FM-12+0345UTED V0202801N002012200019N0200001N1-00371-00551103131ADDAA199000091AJ100059199999999GA1001+999999999GF100991001001999999001001IA1239MD1310081+9999REMSYN098AAXX  10031 38579 32998 02802 11037 21055 40313 53008 333 47005 55/// 555 21038 51002 53007 7002/;EQDQ01  00002PRCP99
0175385790999992000021006004+40120+067830FM-12+0345UTED V0202701N004012200019N0500001N1+00211-00411103101ADDAA199000091GA1001+999999999GF100991001001999999001001KA1999N-00381MD1210071+9999REMSYN064AAXX  10061 38579 32999 02704 10021 21041 40310 52007 333 21038;EQDQ01  00002PRCP99
0142385790999992000021009004+40120+067830FM-12+0345UTED V0202201N002012200019N0100001N1+00491-00461103061ADDAA199000091GF102991021021008001001001MD1710011+9999REMSYN060AAXX  10091 38579 32597 22202 10049 21046 40306 57001 82200;EQDQ01  00002PRCP99
0173385790999992000021012004+40120+067830FM-12+0345UTED V0209999C000010075019N0100001N1+00311-00201103101ADDAA199000091GF106991061021008001001001MA1999999098831MD1210031+9999REMSYN076AAXX  10121 38579 32597 60000 10031 21020 39883 40310 52003 86200 555 1/004;EQDQ01  00002PRCP99
0175385790999992000021015004+40120+067830FM-12+0345UTED V0203101N002019999999N9999999N1+00001-00371103321ADDAA199000091GF106991061001999999061001KA1120M+00511MD1210161+9999REMSYN080AAXX  10151 38579 329// 63102 10000 21037 40332 52016 86060 333 10051 555 53005;EQDQ01  00002PRCP99
0165385790999992000021018004+40120+067830FM-12+0345UTED V0203401N002019999999N9999999N1-00041-00191103331ADDAA199000091GF105991051001999999041001KA1999M+00511MD1710011+9999REMSYN070AAXX  10181 38579 329// 53402 11004 21019 40333 57001 85040 333 10051;EQDQ01  00002PRCP99
0142385790999992000021021004+40120+067830FM-12+0345UTED V0203601N002019999999N9999999N1-00061-00241103331ADDAA199000091GF107991071001999999071001MD1410001+9999REMSYN060AAXX  10211 38579 329// 73602 11006 21024 40333 54000 87070;EQDQ01  00002PRCP99
0183385790999992000021100004+40120+067830FM-12+0345UTED V0209999C000019999999N9999999N1-00221-00311103331ADDAA199000091GF107991071001999999071001MA1999999098911MD1710011+9999REMSYN086AAXX  11001 38579 329// 70000 11022 21031 39891 40333 57001 87070 333 0/101 555 1/101;EQDQ01  00002PRCP99
0217385790999992000021103004+40120+067830FM-12+0345UTED V0209999C000019999999N0200001N1-00301-00341103441ADDAA199000091AJ100029199999999GF107991071001999999051001GJ104389IA1309MD1210071+9999REMSYN104AAXX  11031 38579 32998 70000 11030 21034 40344 52007 87050 333 42002 55073 555 21030 51001 53004 7000/;EQDQ01  00002PRCP99
0175385790999992000021106004+40120+067830FM-12+0345UTED V0203501N001012200019N0100001N1+00131-00321103401ADDAA199000091GA1001+999999999GF100991001001999999001001KA1999N-00301MD1210051+9999REMSYN064AAXX  11061 38579 32997 03501 10013 21032 40340 52005 333 21030;EQDQ01  00002PRCP99
0142385790999992000021109004+40120+067830FM-12+0345UTED V0201001N002010075019N0100001N1+00371-00191103261ADDAA199000091GF107991071021008001001001MD1710111+9999REMSYN060AAXX  11091 38579 32597 71002 10037 21019 40326 57011 87200;EQDQ01  00002PRCP99
0173385790999992000021112004+40120+067830FM-12+0345UTED V0200801N002010075019N0100001N1+00461-00111103201ADDAA199000091GF105991051021008001001001MA1999999098931MD1610051+9999REMSYN076AAXX  11121 38579 32597 50802 10046 21011 39893 40320 56005 85200 555 12007;EQDQ01  00002PRCP99
0185385790999992000021115004+40120+067830FM-12+0345UTED V0209999C000012200019N9999999N1+00151-00131103321ADDAA199000091GA1001+999999999GF100991001001999999001001KA1120M+00561MD1210081+9999REMSYN074AAXX  11151 38579 329// 00000 10015 21013 40332 52008 333 10056 555 53007;EQDQ01  00002PRCP99
0175385790999992000021118004+40120+067830FM-12+0345UTED V0209999C000012200019N9999999N1-00051-00171103301ADDAA199000091GA1001+999999999GF100991001001999999001001KA1999M+00561MD1710061+9999REMSYN064AAXX  11181 38579 329// 00000 11005 21017 40330 57006 333 10056;EQDQ01  00002PRCP99
0152385790999992000021121004+40120+067830FM-12+0345UTED V0209999C000012200019N9999999N1-00151-00271103141ADDAA199000091GA1001+999999999GF100991001001999999001001MD1710161+9999REMSYN054AAXX  11211 38579 329// 00000 11015 21027 40314 57016;EQDQ01  00002PRCP99
0193385790999992000021200004+40120+067830FM-12+0345UTED V0203401N001012200019N9999999N1-00321-00461103131ADDAA199000091GA1001+999999999GF100991001001999999001001MA1999999098741MD1710051+9999REMSYN080AAXX  12001 38579 329// 03401 11032 21046 39874 40313 57005 333 04103 555 14103;EQDQ01  00002PRCP99
0198385790999992000021203004+40120+067830FM-12+0345UTED V0203401N001012200019N0200001N1-00291-00391103101ADDAA199000091GA1001+999999999GF100991001001999999001001GJ104149MD1710011+9999REMSYN092AAXX  12031 38579 32998 03401 11029 21039 40310 57001 333 55069 555 21036 50006 53002 7000/;EQDQ01  00002PRCP99
0175385790999992000021206004+40120+067830FM-12+0345UTED V0200401N002012200019N0100001N1+00171-00301102981ADDAA199000091GA1001+999999999GF100991001001999999001001KA1999N-00361MD1810051+9999REMSYN064AAXX  12061 38579 32997 00402 10017 21030 40298 58005 333 21036;EQDQ01  00002PRCP99
0142385790999992000021209004+40120+067830FM-12+0345UTED V0201201N004012200019N0100001N1+00761-00331102661ADDAA199000091GF103991001001999999001011MD1810211+9999REMSYN060AAXX  12091 38579 32997 31204 10076 21033 40266 58021 80001;EQDQ01  00002PRCP99
0173385790999992000021212004+40120+067830FM-12+0345UTED V0201101N003019999999N0200001N1+00721-00381102641ADDAA199000091GF107991001001999999001011MA1999999098451MD1610021+9999REMSYN076AAXX  12121 38579 32998 71103 10072 21038 39845 40264 56002 80001 555 12007;EQDQ01  00002PRCP99
0185385790999992000021215004+40120+067830FM-12+0345UTED V0201001N002012200019N9999999N1+00291-00221102791ADDAA199000091GA1001+999999999GF100991001001999999001001KA1120M+00781MD1210061+9999REMSYN074AAXX  12151 38579 329// 01002 10029 21022 40279 52006 333 10078 555 53008;EQDQ01  00002PRCP99
0175385790999992000021218004+40120+067830FM-12+0345UTED V0201001N002012200019N9999999N1+00011-00201102751ADDAA199000091GA1001+999999999GF100991001001999999001001KA1999M+00721MD1710061+9999REMSYN064AAXX  12181 38579 329// 01002 10001 21020 40275 57006 333 10072;EQDQ01  00002PRCP99
0152385790999992000021221004+40120+067830FM-12+0345UTED V0209999C000012200019N9999999N1-00171-00291102691ADDAA199000091GA1001+999999999GF100991001001999999001001MD1710101+9999REMSYN054AAXX  12211 38579 329// 00000 11017 21029 40269 57010;EQDQ01  00002PRCP99
0193385790999992000021300004+40120+067830FM-12+0345UTED V0201801N001012200019N9999999N1-00051-00361102641ADDAA199000091GA1001+999999999GF100991001001999999001001MA1999999098321MD1710031+9999REMSYN080AAXX  13001 38579 329// 01801 11005 21036 39832 40264 57003 333 04102 555 14102;EQDQ01  00002PRCP99
0188385790999992000021303004+40120+067830FM-12+0345UTED V0201601N002019999999N0500001N1+00041-00501102611ADDAA199000091GF106991001001999999001041GJ105229MD1710011+9999REMSYN098AAXX  13031 38579 32999 61602 10004 21050 40261 57001 80004 333 55087 555 21023 50014 53004 7000/;EQDQ01  00002PRCP99
0165385790999992000021306004+40120+067830FM-12+0345UTED V0209999C000019999999N0500001N1+00601-00261102581ADDAA199000091GF105991001001999999001041KA1999N-00231MD1210061+9999REMSYN070AAXX  13061 38579 32999 50000 10060 21026 40258 52006 80004 333 21023;EQDQ01  00002PRCP99
0142385790999992000021309004+40120+067830FM-12+0345UTED V0203401N002012200019N0500001N1+00901-00331102441ADDAA199000091GF103991001001999999001041MD1810091+9999REMSYN060AAXX  13091 38579 32999 33402 10090 21033 40244 58009 80004;EQDQ01  00002PRCP99
0183385790999992000021312004+40120+067830FM-12+0345UTED V0200201N001012200019N0500001N1+00921-00301102311ADDAA199000091GA1001+999999999GF100991001001999999001001MA1999999098151MD1710131+9999REMSYN070AAXX  13121 38579 32999 00201 10092 21030 39815 40231 57013 555 12011;EQDQ01  00002PRCP99
0185385790999992000021315004+40120+067830FM-12+0345UTED V0209999C000012200019N9999999N1+00291-00041102311ADDAA199000091GA1001+999999999GF100991001001999999001001KA1120M+00921MD1710081+9999REMSYN074AAXX  13151 38579 329// 00000 10029 21004 40231 57008 333 10092 555 53004;EQDQ01  00002PRCP99
0175385790999992000021318004+40120+067830FM-12+0345UTED V0202201N002012200019N9999999N1+00011-00231102201ADDAA199000091GA1001+999999999GF100991001001999999001001KA1999M+00921MD1710161+9999REMSYN064AAXX  13181 38579 329// 02202 10001 21023 40220 57016 333 10092;EQDQ01  00002PRCP99
0184385790999992000021321004+40120+067830FM-12+0345UTED V0201701N002012200019N9999999N1+00111-00311102011ADDAA199000091GA1001+999999999GF100991001001999999001001MD1710191+9999REMSYN054AAXX  13211 38579 329// 01702 10011 21031 40201 50916;EQDQ01+000007APCTENQ02+009167APC3  Q03  00002PRCP99
0189385790999992000021400004+40120+067830FM-12+0345UTED V0201901N001012200019N9999999N1-00191-00381101941ADDAA199000091GA1001+999999999GF100991001001999999001001MA1999999097641MD1710111+9999REMSYN076AAXX  14001 38579 329// 01901 11019 21038 39764 40194 57011 333 04102 55514;EQDQ01  00002PRCP99
0188385790999992000021403004+40120+067830FM-12+0345UTED V0201201N001019999999N0500001N1+00071-00471101811ADDAA199000091GF107991001001999999001011GJ105529MD1710101+9999REMSYN098AAXX  14031 38579 32999 71201 10007 21047 40181 57010 80001 333 55092 555 21028 50032 53003 7000/;EQDQ01  00002PRCP99
0165385790999992000021406004+40120+067830FM-12+0345UTED V0209999C000019999999N0500001N1+00941-00221101481ADDAA199000091GF107991001001999999001011KA1999N-00281MD1710181+9999REMSYN070AAXX  14061 38579 32999 70000 10094 21022 40148 57018 80001 333 21028;EQDQ01  00002PRCP99
0175385790999992000021415004+40120+067830FM-12+0345UTED V0203201N001019999999N9999999N1+00801+00251101081ADDAA199000091GF107991071001999999051001KA1120M+01331MD1510071+9999REMSYN080AAXX  14151 38579 329// 73201 10080 20025 40108 55007 87050 333 10133 555 53003;EQDQ01  00002PRCP99
0165385790999992000021418004+40120+067830FM-12+0345UTED V0200201N002019999999N9999999N1+00981-00171101211ADDAA199000091GF107991071001999999071001KA1999M+01331MD1210141+9999REMSYN070AAXX  14181 38579 329// 70202 10098 21017 40121 52014 87070 333 10133;EQDQ01  00002PRCP99
0142385790999992000021421004+40120+067830FM-12+0345UTED V0202601N006019999999N9999999N1+00841+00191101271ADDAA199000091GF107991071001999999071001MD1210041+9999REMSYN060AAXX  14211 38579 329// 72606 10084 20019 40127 52004 87070;EQDQ01  00002PRCP99
0183385790999992000021500004+40120+067830FM-12+0345UTED V0202401N002019999999N9999999N1+00741+00361101491ADDAA199000091GF107991071001999999071001MA1999999097341MD1210201+9999REMSYN086AAXX  15001 38579 329// 72402 10074 20036 39734 40149 52020 87070 333 01005 555 11005;EQDQ01  00002PRCP99
0184385790999992000021503004+40120+067830FM-12+0345UTED V0203201N003010042019N0020001N1+00291+00131101821ADDAY181031AY221031GF108991081091004501999999MD1210261+9999MW1811REMSYN110AAXX  15031 38579 /1495 83203 10029 20013 40182 52026 78182 889// 333 55040 555 20029 50054 53011 60032 7003/;
0199385790999992000021506004+40120+067830FM-12+0345UTED V0202901N001010042019N0020001N1+00081+00031102181ADDAA112003091AY181061AY221061GF108991081091004501999999KA1999N+99999MD1210301+9999MW1861REMSYN082AAXX  15061 38579 11495 82901 10008 20003 40218 52030 60032 78682 889// 333 20029;EQDQ01 +00292ATMN  
0140385790999992000021509004+40120+067830FM-12+0345UTED V0203401N003010042019N0020001N1+00211+00111102311ADDAY181031AY281031GF108991081091004501999999MD1210161+9999MW1831REMSYN066AAXX  15091 38579 41495 83403 10021 20011 40231 52016 78388 889//;
0171385790999992000021512004+40120+067830FM-12+0345UTED V0203601N003010042019N0020001N1+00091+00041102611ADDAY181061AY281061GF108991081091004501999999MA1999999098321MD1210261+9999MW1851REMSYN082AAXX  15121 38579 41495 83603 10009 20004 39832 40261 52026 78588 889// 555 12002;
0179385790999992000021515004+40120+067830FM-12+0345UTED V0203401N002010042019N9999999N1+00011-00051102891ADDAY181031AY271031GF108991081001004501021999KA1120M+00291MD1210261+9999MW1731REMSYN092AAXX  15151 38579 /14// 83402 10001 21005 40289 52026 77387 8802/ 333 10029 555 53005 60142;
0180385790999992000021518004+40120+067830FM-12+0345UTED V0203601N003010042019N9999999N1-00091-00111103061ADDAA112014091AY181061AY271061GF108991081001004501021999KA1999M+00291MD1210161+9999MW1711REMSYN082AAXX  15181 38579 114// 83603 11009 21011 40306 52016 60142 77187 8802/ 333 10029;
0129385790999992000021521004+40120+067830FM-12+0345UTED V0203601N001010042019N9999999N1-00131-00181999999ADDAY171031AY271031GF108991081001004501021999ME1210049MW1711REMSYN060AAXX  15211 38579 414// 83601 11013 21018 42004 77177 8802/;
0181385790999992000021600004+40120+067830FM-12+0345UTED V0203201N001010042019N9999999N1-00171-00191103131ADDAY171061AY271061GF108991081001004501021999MA1999999098781MD1410001+9999MW1711REMSYN092AAXX  16001 38579 414// 83201 11017 21019 39878 40313 54000 77177 8802/ 333 0/101 555 1/101;
0196385790999992000021603004+40120+067830FM-12+0345UTED V0203501N001010075019N0100001N1-00161-00211103201ADDAA112002091AJ100029199999999GF107991071051008001001001IA1239MD1210071+9999REMSYN110AAXX  16031 38579 /1597 73501 11016 21021 40320 52007 87500 333 47002 55/// 555 21017 50041 53005 60022 7017/;
0152385790999992000021606004+40120+067830FM-12+0345UTED V0203601N002010075019N0100001N1-00041-00251103261ADDAA112002091GF107991071051008001001001KA1999N-00171MD1210061+9999REMSYN076AAXX  16061 38579 11597 73602 11004 21025 40326 52006 60022 87500 333 21017;
0123385790999992000021609004+40120+067830FM-12+0345UTED V0201801N002010075019N0100001N1+00101-00261103141ADDAA199000021GF107991071051008001001001MD1710081+9999REMSYN060AAXX  16091 38579 32597 71802 10010 21026 40314 57008 87500;
