0122387590999992000011209004+37630+054780FM-12+003299999V0202701N002012200019N0200001N1+00761-00091102531ADDGA1001+999999999GF100991001001999999001001MD1810031+9999REMSYN054AAXX  12091 38759 42998 02702 10076 21009 40253 58003;
0175387590999992000012115004+37630+054780FM-12+003299999V02099999999992200019N9999999N1+01121+00231100301ADDAA199000091GA1001+999999999GF100991001001999999001001KA1999M+02241MD1310301+9999REMSYN064AAXX  21151 38759 329// 0//// 10112 20023 40030 53030 333 10224;EQDQ01  00002PRCP99
0143387590999992000012212004+37630+054780FM-12+003299999V0201101N001012200019N0500001N1+01081+00481101401ADDGF101991011011008001001001MA1999999101681MD1710081+9999REMSYN076AAXX  22121 38759 42599 11101 10108 20048 30168 40140 57008 81100 555 10016;
0175387590999992000021906004+37630+054780FM-12+003299999V0209999C000012200019N0100001N1+00821+00041102561ADDAA199000091GA1001+999999999GF100991001001999999001001KA1999N-00041MD1210241+9999REMSYN064AAXX  19061 38759 32997 00000 10082 20004 40256 52024 333 21004;EQDQ01  00002PRCP99
0175387590999992000030118004+37630+054780FM-12+003299999V0203601N002012200019N0100001N1+00471-00901102761ADDAA199000091GA1001+999999999GF100991001001999999001001KA1999M+02281MD1810061+9999REMSYN064AAXX  01181 38759 32997 03602 10047 2109/ 40276 58006 333 10228;EQDQ01  00002PRCP99
0164387590999992000031600004+37630+054780FM-12+003299999V0202301N005012200019N0100001N1+00271+00171102691ADDGF103991999051008001001001MA1999999100311MD1210011+9999REMSYN078AAXX  16001 38759 42597 32305 10027 20017 30031 40269 52001 88500 555 5 11003;EQDQ01+000082SCOTLC
0153387590999992000053000004+37630+054780FM-12+003299999V02099999999992200019N9999999N1+01961+01611101071ADDGA1001+999999999GF100991001001999999001001MA1999999100711MD1710021+9999REMSYN070AAXX  30001 38759 4/9// 0//// 10196 20161 30071 40107 57002 555 10017;
0175387590999992000061606004+37630+054780FM-12+003299999V0200501N002012200019N0200001N1+02501+00591101761ADDAA199000091GA1001+999999999GF100991001001999999001001KA1999N+01891MD1810021+9999REMSYN064AAXX  16061 38759 32998 00502 10250 20059 40176 58002 333 20189;EQDQ01  00002PRCP99
0175387590999992000071706004+37630+054780FM-12+003299999V0201401N002012200019N0200001N1+03101+02121100941ADDAA199000091GA1001+999999999GF100991001001999999001001KA1999N+02491MD1210091+9999REMSYN064AAXX  17061 38759 32998 01402 10310 20212 40094 52009 333 20249;EQDQ01  00002PRCP99
0175387590999992000072515004+37630+054780FM-12+003299999V0203601N002012200019N0500001N1+03701+00171100891ADDAA199000091GA1001+999999999GF100991001001999999001001KA1999M+03821MD1710071+9999REMSYN064AAXX  25151 38759 32999 03602 10370 20017 40089 57007 333 10382;EQDQ01  00002PRCP99
0175387590999992000082015004+37630+054780FM-12+003299999V0201701N002012200019N0200001N1+03391+01621101061ADDAA199000091GA1001+999999999GF100991001001999999001001KA1999M+03681MD1710081+9999REMSYN064AAXX  20151 38759 32998 01702 10339 20162 40106 57008 333 10368;EQDQ01  00002PRCP99
0175387590999992000082018004+37630+054780FM-12+003299999V02099999999992200019N9999999N1+02931+01871101111ADDAA199000091GA1001+999999999GF100991001001999999001001KA1999M+03681MD1310051+9999REMSYN064AAXX  20181 38759 329// 0//// 10293 20187 40111 53005 333 10368;EQDQ01  00002PRCP99
0175387590999992000091515004+37630+054780FM-12+003299999V0202701N004012200019N0100001N1+02991+01941100821ADDAA199000091GA1001+999999999GF100991001001999999001001KA1999M+03361MD1710071+9999REMSYN064AAXX  15151 38759 3/997 02704 10299 20194 40082 57007 333 10336;EQDQ01  00002PRCP99
0146387590999992000092315004+37630+054780FM-12+003299999V0203401N004012200019N0100001N1+00891+99999101481ADDAA199000091GF102991021001999999031001MD1310051+9999REMSYN064AAXX  23151 38759 32/97 23404 10089 20233 40148 53005 82030 333;EQDQ01  00002PRCP99
0165387590999992000092518004+37630+054780FM-12+003299999V02099999999992200019N9999999N1+02141+00611101881ADDAA199000091GF103991031001999999031001KA1999M+02761MD1310061+9999REMSYN070AAXX  25181 38759 329// 3//// 10214 20061 40188 53006 83030 333 10276;EQDQ01  00002PRCP99
0182387590999992000103103004+37630+054780FM-12+003299999V0200901N002010075019N0100001N1+01331+00881102111ADDAA199000091GF108991081051008001999999IA1019IA2999+01009MD1710081+9999REMSYN082AAXX  31031 38759 32597 80902 10133 20088 40211 57008 885// 555 20120 30010 7000/;EQDQ01  00002PRCP99
0121387590999992000110209004+37630+054780FM-12+003299999V0202501N002010120019N0200001N1+02181+01141999999ADDGF105991051021012501001001MD1810131+9999ME1210209REMSYN060AAXX  02091 38759 42698 52502 10218 20114 42020 58013 85200;
0143387590999992000111912004+37630+054780FM-12+003299999V0203201N004019999999N0200001N1+01581+00361102721ADDGF105991001001999999001011MA1999999102361MD1710011+9999REMSYN076AAXX  19121 38759 42998 53204 10158 20036 30236 40272 57001 80001 555 10020;
0153387590999992000112612004+37630+054780FM-12+003299999V0203401N003012200019N0100001N1+01701+00701102201ADDGA1001+999999999GF100991001001999999001001MA1999999102471MD1710071+9999REMSYN070AAXX  26121 38759 42997 03403 10170 20070 30247 40220 57007 555 10022;
0188387590999992000120103004+37630+054780FM-12+003299999V0202701N002010075019N0100001N1+00811+00511101721ADDAA199000091GF108991081051008001999999GJ100369IA1019MD1310061+9999REMSYN092AAXX  01031 38759 32597 82702 10081 20051 40172 53006 885// 333 55006 555 20056 30083 7800/;EQDQ01  00002PRCP99
