0183407000999992000012412004+39650+048130FM-12+004599999V0209999C000012200019N0100001N1+00601+00001102141ADDAA199000091GA1001+999999999GF100991001001999999001001MA1999999101731MD1610191+9999REMSYN070AAXX  24121 40700 32960 00000 10060 20000 30173 40214 56019 91145 333;EQDQ01  00002PRCP99
0189407000999992000012418004+39650+048130FM-12+004599999V0209999C000012200019N0100001N1+00001-00051102051ADDAA199000091GA1001+999999999GF100991001001999999001001MA1999999101641MD1810061+9999REMSYN076AAXX  24181 40700 32960 00000 10000 21005 30164 40205 58006 91745 333 55081;EQDQ01  00002PRCP99
0173407000999992000012500004+39650+048130FM-12+004599999V0202101N002012200019N0100001N1+00261-00261101831ADDAA199000091GF102991021001999999031001MA1999999101421MD1710121+9999REMSYN076AAXX  25001 40700 32960 22102 10026 21026 30142 40183 57012 82030 92345 333;EQDQ01  00002PRCP99
0207407000999992000012606004+39650+048130FM-12+004599999V0209999C000012200019N0100001N1+00101-00061100461ADDAA124000091GA1021+027009079GF102991021001999999031001MA1999999100061MD1310071+9999REMSYN094AAXX  26061 40700 32960 20000 10010 21006 30006 40046 53007 82030 90545 333 34104 70000 82359;EQDQ01  00002PRCP24
0189407000999992000020418004+39650+048130FM-12+004599999V0202801N002012200019N0100001N1+00561+00381101151ADDAA199000091GA1001+999999999GF100991001001999999001001MA1999999100761MD1210171+9999REMSYN076AAXX  04181 40700 32960 02802 10056 20038 30076 40115 52017 91745 333 55097;EQDQ01  00002PRCP99
0213407000999992000020506004+39650+048130FM-12+004599999V0209999C000019999999N0100001N1+00261-00071101761ADDAA124000091GA1021+012009069GF106991021051999999071001MA1999999101371MD1210361+9999REMSYN100AAXX  05061 40700 32960 60000 10026 21007 30137 40176 52036 82570 90545 333 30106 70000 82640 86359;EQDQ01  00002PRCP24
0195407000999992000020806004+39650+048130FM-12+004599999V0202401N002012200019N0100001N1+00081-00361102151ADDAA124000091GA1001+999999999GF100991001001999999001001MA1999999101741MD1110061+9999REMSYN082AAXX  08061 40700 32960 02402 10008 21036 30174 40215 51006 90545 333 30108 70000;EQDQ01  00002PRCP24
0183407000999992000020900004+39650+048130FM-12+004599999V0200601N002012200019N0100001N1-00301-00341101761ADDAA199000091GA1001+999999999GF100991001001999999001001MA1999999101371MD1810061+9999REMSYN070AAXX  09001 40700 32960 00602 11030 21034 30137 40176 58006 92345 333;EQDQ01  00002PRCP99
0153407000999992000020912004+39650+048130FM-12+004599999V0209999C000012200019N0100001N1+01201+00161101551ADDGA1001+999999999GF100991001001999999001001MA1999999101161MD1710131+9999REMSYN070AAXX  09121 40700 /2960 00000 10120 20016 30116 40155 57013 91145 333;
0189407000999992000021206004+39650+048130FM-12+004599999V0202401N004012200019N0100001N1+00661+00001102021ADDAA124000091GA1001+999999999GF100991001001999999001001MA1999999101621MD1210151+9999REMSYN076AAXX  12061 40700 32960 02404 10066 20000 30162 40202 52015 90545 333 70000;EQDQ01  00002PRCP24
0183407000999992000021212004+39650+048130FM-12+004599999V0200601N003012200019N0100001N1+01421+00521101851ADDAA199000091GA1001+999999999GF100991001001999999001001MA1999999101351MD1710151+9999REMSYN070AAXX  12121 40700 32960 00603 10142 20052 30135 40185 57015 91145 333;EQDQ01  00002PRCP99
0189407000999992000021218004+39650+048130FM-12+004599999V0200901N006012200019N0100001N1+00541+00411101841ADDAA199000091GA1001+999999999GF100991001001999999001001MA1999999101441MD1110041+9999REMSYN076AAXX  12181 40700 32960 00906 10054 20041 30144 40184 51004 91745 333 55097;EQDQ01  00002PRCP99
0190407000999992000021221004+39650+048130FM-12+004599999V0209999C000012200019N0100001N1-00341-00832102492ADDGF101991001001999999001011MA1999999086652MD1710151+9999REMSYN072AAXX  12211 40700 2/960 10000 11034 21083 38665 40249 57015 80001 92045;EQDQ01-000833ATOD  Q02+086653APOSP Q03+102493APOSLP
0210407000999992000021400004+39650+048130FM-12+004599999V0209999C000010240019N0060001N1+00361+99999101421ADDAA106002091AY161061AY261061GA1081+024009029GF108991031051012501021999MA1999999101031MD1410001+9999MW1631REMSYN094AAXX  14001 40700 11656 80000 10036 30103 40142 54000 60021 76366 8352/ 92345 333 73635 88558;
0228407000999992000021406004+39650+048130FM-12+004599999V0209999C00001036001CN0100001N1+00341+00301101671ADDAA106006191AY161061AY221061GA1031+012009069GF107991031051012501011001MA1999999101281MD1210221+9999MW1601REMSYN112AAXX  14061 40700 11660 70000 10034 20030 30128 40167 52022 60061 76062 83510 90545 333 31001 70077 83640 87459;
0216407000999992000021412004+39650+048130FM-12+004599999V0209999C00001036001CN0100001N1+00561+00381101651ADDAA106000391AY121061AY221061GA1031+012009069GF107991031051012501011001MA1999999101261MD1610021+9999MW1601REMSYN100AAXX  14121 40700 11660 70000 10056 20038 30126 40165 56002 69931 76022 83510 91145 333 83640 87459;
0190407000999992000021418004+39650+048130FM-12+004599999V0209999C000012200019N0100001N1+00461+00371101781ADDAA199000021GA1041+027009079GF104991041001999999031001GJ100309MA1999999101391MD1310071+9999REMSYN088AAXX  14181 40700 32960 40000 10046 20037 30139 40178 53007 84030 91745 333 55005 84359;
0164407000999992000021500004+39650+048130FM-12+004599999V0201001N002012200019N0100001N1+00041+00021101791ADDAA199000021GA1001+999999999GF100991001001999999001001MA1999999101391MD1810041+9999REMSYN070AAXX  15001 40700 32960 01002 10004 20002 30139 40179 58004 92345 333;
0176407000999992000021506004+39650+048130FM-12+004599999V0209999C000012200019N0100001N1+00101+00051101871ADDAA124000391GA1001+999999999GF100991001001999999001001MA1999999101461MD1110071+9999REMSYN082AAXX  15061 40700 32960 00000 10010 20005 30146 40187 51007 90545 333 31104 70003;
0183407000999992000021512004+39650+048130FM-12+004599999V0209999C000012200019N0100001N1+00941+00381101611ADDAA199000091GA1001+999999999GF100991001001999999001001MA1999999101211MD1710161+9999REMSYN070AAXX  15121 40700 32960 00000 10094 20038 30121 40161 57016 91145 333;EQDQ01  00002PRCP99
0189407000999992000021518004+39650+048130FM-12+004599999V0209999C000012200019N0100001N1+00201+00101101601ADDAA199000091GA1001+999999999GF100991001001999999001001MA1999999101201MD1010001+9999REMSYN076AAXX  15181 40700 32960 00000 10020 20010 30120 40160 50000 91745 333 55085;EQDQ01  00002PRCP99
0183407000999992000021600004+39650+048130FM-12+004599999V0209999C000012200019N0100001N1+00001-00031101491ADDAA199000091GA1001+999999999GF100991001001999999001001MA1999999101101MD1810081+9999REMSYN070AAXX  16001 40700 32960 00000 10000 21003 30110 40149 58008 92345 333;EQDQ01  00002PRCP99
0213407000999992000021718004+39650+048130FM-12+004599999V0200901N00201036001CN0090001N1+00641+00641101441ADDAY161061AY221061GA1041+009009069GF108991041051008001021999GJ101029MA1999999101051MD1210241+9999MW1631REMSYN100AAXX  17181 40700 11559 80902 10064 20064 30105 40144 52024 76362 8452/ 91745 333 55017 84630 88558;
0176407000999992000021806004+39650+048130FM-12+004599999V0202101N002012200019N0100001N1+00661+00561101781ADDAA124011291GA1001+999999999GF100991001001999999001001MA1999999101391MD1110081+9999REMSYN082AAXX  18061 40700 32960 02102 10066 20056 30139 40178 51008 90545 333 32001 70112;
0189407000999992000021918004+39650+048130FM-12+004599999V0209999C000012200019N0100001N1+00541+00541101201ADDAA199000091GA1001+999999999GF100991001001999999001001MA1999999100811MD1610041+9999REMSYN076AAXX  19181 40700 32960 00000 10054 20054 30081 40120 56004 91745 333 55033;EQDQ01  00002PRCP99
0201407000999992000022000004+39650+048130FM-12+004599999V0209999C00001036001CN0100001N1+00441+00441100981ADDAA199000091GA1031+003009079GF106991031061012501031001MA1999999100591MD1810141+9999REMSYN088AAXX  20001 40700 32660 60000 10044 20044 30059 40098 58014 83630 92345 333 83710 84359;EQDQ01  00002PRCP99
0215407000999992000022018004+39650+048130FM-12+004599999V0200601N00201036001CN0100001N1+00921+00611101301ADDAA199000091GA1021+012009069GF106991021051012501031001GJ101929MA1999999100911MD1210191+9999REMSYN094AAXX  20181 40700 32660 60602 10092 20061 30091 40130 52019 82530 91745 333 55032 82640 86359;EQDQ01  00002PRCP99
0195407000999992000022106004+39650+048130FM-12+004599999V0202201N002012200019N0100001N1+00641+00361101691ADDAA124000091GA1001+999999999GF100991001001999999001001MA1999999101301MD1210071+9999REMSYN082AAXX  21061 40700 32960 02202 10064 20036 30130 40169 52007 90545 333 30101 70000;EQDQ01  00002PRCP24
0235407000999992000022206004+39650+048130FM-12+004599999V0209999C000012200019N0100001N1+00201+00151101111ADDAA124000091AY141061AY221061GA1041+027009079GF104991041001999999031001MA1999999100721MD1110051+9999MW1011REMSYN100AAXX  22061 40700 31960 40000 10020 20015 30072 40111 51005 70142 84030 90545 333 31103 70000 84359;EQDQ01  00002PRCP24
0183407000999992000022212004+39650+048130FM-12+004599999V0209999C000012200019N0100001N1+01501+00501100711ADDAA199000091GA1001+999999999GF100991001001999999001001MA1999999100321MD1710211+9999REMSYN070AAXX  22121 40700 32960 00000 10150 20050 30032 40071 57021 91145 333;EQDQ01  00002PRCP99
0189407000999992000022218004+39650+048130FM-12+004599999V0209999C000012200019N0030001N1+00681+00411100741ADDAA199000091GA1001+999999999GF100991001001999999001001MA1999999100451MD1110031+9999REMSYN076AAXX  22181 40700 32930 00000 10068 20041 30045 40074 51003 91745 333 55087;EQDQ01  00002PRCP99
0183407000999992000022300004+39650+048130FM-12+004599999V0209999C000012200019N0100001N1+00301+00151100761ADDAA199000091GA1001+999999999GF100991001001999999001001MA1999999100371MD1110021+9999REMSYN070AAXX  23001 40700 32960 00000 10030 20015 30037 40076 51002 92345 333;EQDQ01  00002PRCP99
0195407000999992000022306004+39650+048130FM-12+004599999V0202201N003012200019N0100001N1+00901+00231100811ADDAA124000091GA1001+999999999GF100991001001999999001001MA1999999100421MD1310051+9999REMSYN082AAXX  23061 40700 32960 02203 10090 20023 30042 40081 53005 90545 333 30000 70000;EQDQ01  00002PRCP24
0209407000999992000022318004+39650+048130FM-12+004599999V0200801N008012200019N0100001N1+00761+00341100751ADDAA199000091GA1021+027009079GF102991021001999999031001GJ106069MA1999999100361MD1110241+9999REMSYN088AAXX  23181 40700 32960 20808 10076 20034 30036 40075 51024 82030 91745 333 55101 82359;EQDQ01  00002PRCP99
0217407000999992000022400004+39650+048130FM-12+004599999V0200901N00801036001CN0100001N1+00721+00501101521ADDAA199000091GA1021+012009069GF108991021051012501021999MA1999999101141MD1210582+9999REMSYN088AAXX  24001 40700 32660 80908 10072 20050 30114 40152 52058 8252/ 92345 333 82640 88459;EQDQ01+000582APC3  Q02  00002PRCP99
0212407000999992000022406004+39650+048130FM-12+004599999V0201001N008010360019N0100001N1+00601+00371101961ADDAA199000091GA1041+012009069GF108991041051012501021999MA1999999101571MD1310281+9999REMSYN099AAXX  24061 40700 32660 81008 10060 20037 30157 40196 53028 8452/ 90545 333 0006 70000 84640 88459;EQDQ01  00002PRCP99
0201407000999992000022412004+39650+048130FM-12+004599999V0200901N00601036001CN0100001N1+00621+00391101971ADDAA199000091GA1041+012009069GF108991041051012501021999MA1999999101571MD1610041+9999REMSYN088AAXX  24121 40700 32660 80906 10062 20039 30157 40197 56004 8452/ 91145 333 84640 88459;EQDQ01  00002PRCP99
0215407000999992000022418004+39650+048130FM-12+004599999V0201001N00401036001CN0100001N1+00401+00151102271ADDAA199000091GA1041+012009069GF108991041051012501021999GJ100009MA1999999101871MD1110141+9999REMSYN094AAXX  24181 40700 32660 81004 10040 20015 30187 40227 51014 8452/ 91745 333 55000 84640 88459;EQDQ01  00002PRCP99
0213407000999992000022506004+39650+048130FM-12+004599999V0200901N00401036001CN0100001N1+00361+00111102051ADDAA124000091GA1041+012009069GF108991041051012501021999MA1999999101651MD1310031+9999REMSYN100AAXX  25061 40700 32660 80904 10036 20011 30165 40205 53003 8452/ 90545 333 30003 70000 84640 88459;EQDQ01  00002PRCP24
0244407000999992000022518004+39650+048130FM-12+004599999V0209999C000010120019N0030001N1+00341+00341101581ADDAA106002091AY151061AY221061GA1031+004509079GA2031+012009069GF108991061071008001021999MA1999999101191MD1210101+9999MW1531REMSYN112AAXX  25181 40700 11530 80000 10034 20034 30119 40158 52010 60021 75352 8672/ 91745 333 5500/ 83715 83640 88459;
0216407000999992000022600004+39650+048130FM-12+004599999V0209999C00001036001CN0100001N1+00241+00241101621ADDAA106003091AY151061AY251061GA1041+012009069GF108991041051012501021999MA1999999101231MD1810041+9999MW1021REMSYN100AAXX  26001 40700 11660 80000 10024 20024 30123 40162 58004 60031 70255 8452/ 92345 333 84640 88459;
0194407000999992000022606004+39650+048130FM-12+004599999V0209999C00001036001CN0100001N1+00381+00221101741ADDAA124005191GA1041+012009069GF108991041051012501041999MA1999999101351MD1110101+9999REMSYN100AAXX  26061 40700 32660 80000 10038 20022 30135 40174 51010 8454/ 90545 333 32003 70050 84640 88459;
0195407000999992000022612004+39650+048130FM-12+004599999V0209999C000012200019N0100001N1+00741+00151101521ADDAA199000091GA1041+012009059GF104991041051012501001001MA1999999101131MD1710161+9999REMSYN082AAXX  26121 40700 32660 40000 10074 20015 30113 40152 57016 84500 91145 333 84640;EQDQ01  00002PRCP99
0189407000999992000022618004+39650+048130FM-12+004599999V0209999C000012200019N0100001N1+00321+00171101441ADDAA199000091GA1001+999999999GF100991001001999999001001MA1999999101051MD1810051+9999REMSYN076AAXX  26181 40700 32960 00000 10032 20017 30105 40144 58005 91745 333 55044;EQDQ01  00002PRCP99
0195407000999992000022706004+39650+048130FM-12+004599999V0209999C000012200019N0100001N1+00241+99999101381ADDAA124000091GA1001+999999999GF100991001001999999001001MA1999999100981MD1210131+9999REMSYN082AAXX  27061 40700 32960 00000 10024 2008/ 30098 40138 52013 90545 333 31105 70000;EQDQ01  00002PRCP24
0195407000999992000022712004+39650+048130FM-12+004599999V0202501N003012200019N0100001N1+01081+00001101191ADDAA199000091GA1021+027009079GF102991021001999999031001MA1999999100801MD1610121+9999REMSYN082AAXX  27121 40700 32960 22503 10108 20000 30080 40119 56012 82030 91145 333 82359;EQDQ01  00002PRCP99
0189407000999992000022718004+39650+048130FM-12+004599999V0209999C000012200019N0100001N1+00661+00071101421ADDAA199000091GA1001+999999999GF100991001001999999001001MA1999999101031MD1210131+9999REMSYN076AAXX  27181 40700 32960 00000 10066 20007 30103 40142 52013 91745 333 55071;EQDQ01  00002PRCP99
0201407000999992000022800004+39650+048130FM-12+004599999V0209999C00001036001CN0100001N1+00441+00341101261ADDAA199000091GA1031+012009069GF108991031051012501021999MA1999999101271MD1210111+9999REMSYN088AAXX  28001 40700 32660 80000 10044 20034 30127 40126 52011 8352/ 92345 333 83640 83459;EQDQ01  00002PRCP99
0213407000999992000022806004+39650+048130FM-12+004599999V0209999C00001036001CN0100001N1+00521-00411102291ADDAA124000091GA1021+012009069GF106991021051012501031001MA1999999101891MD1210351+9999REMSYN100AAXX  28061 40700 32660 60000 10052 21041 30189 40229 52035 82530 90545 333 30001 70000 82640 86359;EQDQ01  00002PRCP24
0215407000999992000022818004+39650+048130FM-12+004599999V0201201N00501036001CN0100001N1+00401-00021103061ADDAA199000091GA1031+012009069GF108991031051012501021999GJ100309MA1999999102661MD1210301+9999REMSYN094AAXX  28181 40700 32660 81205 10040 21002 30266 40306 52030 8352/ 91745 333 55005 83640 88459;EQDQ01  00002PRCP99
0207407000999992000022906004+39650+048130FM-12+004599999V0201001N005010270019N0100001N1+00101-00191103451ADDAA124000091GA1051+027009079GF105991051001999999061001MA1999999103041MD1210131+9999REMSYN094AAXX  29061 40700 32960 51005 10010 21019 30304 40345 52013 85060 90545 333 30100 70000 85359;EQDQ01  00002PRCP24
0171407000999992000022912004+39650+048130FM-12+004599999V0209999C00001036001CN9999999N1+00601-00071103141ADDGA1041+012009069GF107991041051012501071001MA1999999102741MD1710241+9999REMSYN088AAXX  29121 40700 2660/ 70000 10060 21007 30274 40314 57024 84570 91145 333 84640 87359;
0207407000999992000030106004+39650+048130FM-12+004599999V0202201N002012200019N0100001N1+00181-00091102631ADDAA124000091GA1021+027009079GF102991021001999999031001MA1999999102221MD1810031+9999REMSYN094AAXX  01061 40700 32960 22202 10018 21009 30222 40263 58003 82030 90545 333 30106 70000 82359;EQDQ01  00002PRCP24
0223407000999992000030112004+39650+048130FM-12+004599999V0209999C00001036001CN0100001N1+00901-00141102001ADDAA199000091GA1011+009009099GA2031+012009069GF105991031031012501031001MA1999999101591MD1710391+9999REMSYN094AAXX  01121 40700 32660 50000 10090 21014 30159 40200 57039 83330 91145 333 81930 83640 84359;EQDQ01  00002PRCP99
0189407000999992000030118004+39650+048130FM-12+004599999V0200901N002012200019N0100001N1+00221+00121101891ADDAA199000091GA1001+999999999GF100991001001999999001001MA1999999101481MD1110021+9999REMSYN076AAXX  01181 40700 32960 00902 10022 20012 30148 40189 51002 91745 333 55064;EQDQ01  00002PRCP99
0216407000999992000030200004+39650+048130FM-12+004599999V0209999C00001036001CN0080001N1+00301+00301101601ADDAA106003091AY161061AY221061GA1031+009009069GF108991041051012501021999MA1999999101211MD1810151+9999MW1631REMSYN100AAXX  02001 40700 11658 80000 10030 20030 30121 40160 58015 60031 76362 8452/ 92345 333 83630 88557;
0269407000999992000030206004+39650+048130FM-12+004599999V0209999C000010090019N0050001N1+00081+00051101701ADDAA106002091AJ100019199999999AY171061AY261061GA1051+009009069GF108991051051008001021999IA1259IA2999-00109MA1999999101301MD1310091+9999MW1711REMSYN118AAXX  02061 40700 11550 80000 10008 20005 30130 40170 53009 60021 77176 8552/ 90545 333 3/101 41001 70078 85630 88557;
0216407000999992000030212004+39650+048130FM-12+004599999V0209999C00001036001CN0100001N1+00401+00301101651ADDAA106003091AY171061AY261061GA1041+009009069GF108991041051008001021999MA1999999101261MD1610041+9999MW1021REMSYN100AAXX  02121 40700 11560 80000 10040 20030 30126 40165 56004 60031 70276 8452/ 91145 333 84630 88458;
0181407000999992000030218004+39650+048130FM-12+004599999V0202201N002019999999N0100001N1+00301+00201999999ADDAA199000021GA1021+010509069GF108991999999012501999999GJ100009MA1999999101501REMSYN093AAXX  02181 40700 32660 82202 10030 20020 30150 4191 52015 8252/ 91745 333 55000 82635 88458;
0183407000999992000030300004+39650+048130FM-12+004599999V0202101N002012200019N0100001N1+00021-00031101901ADDAA199000091GA1001+999999999GF100991001001999999001001MA1999999101491MD1510011+9999REMSYN070AAXX  03001 40700 32960 02102 10002 21003 30149 40190 55001 92345 333;EQDQ01  00002PRCP99
0176407000999992000030306004+39650+048130FM-12+004599999V0202301N003012200019N0100001N1+00261-00071102211ADDAA124008191GA1001+999999999GF100991001001999999001001MA1999999101801MD1210221+9999REMSYN082AAXX  03061 40700 32960 02303 10026 21007 30180 40221 52022 90545 333 31102 70082;
0189407000999992000030318004+39650+048130FM-12+004599999V0209999C000012200019N0100001N1+00301+00041101941ADDAA199000091GA1001+999999999GF100991001001999999001001MA1999999101531MD1810011+9999REMSYN076AAXX  03181 40700 32960 00000 10030 20004 30153 40194 58001 91745 333 55103;EQDQ01  00002PRCP99
0207407000999992000030406004+39650+048130FM-12+004599999V0202701N002012200019N0100001N1+00401+00031101661ADDAA124000091GA1041+027009079GF104991041001999999031001MA1999999101271MD1010021+9999REMSYN094AAXX  04061 40700 32960 42702 10040 20003 30127 40166 50002 84030 90545 333 31105 70000 84359;EQDQ01  00002PRCP24
0207407000999992000030506004+39650+048130FM-12+004599999V0202601N003012200019N0100001N1+00661+00231101661ADDAA124000091GA1011+027009079GF101991011001999999031001MA1999999101271MD1210141+9999REMSYN094AAXX  05061 40700 32960 12603 10066 20023 30127 40166 52014 81030 90545 333 30101 70000 81359;EQDQ01  00002PRCP24
0183407000999992000030512004+39650+048130FM-12+004599999V0203001N003012200019N0100001N1+01501+00321101391ADDAA199000091GA1001+999999999GF100991001001999999001001MA1999999101001MD1610191+9999REMSYN070AAXX  05121 40700 32960 03003 10150 20032 30100 40139 56019 91145 333;EQDQ01  00002PRCP99
0189407000999992000030518004+39650+048130FM-12+004599999V0209999C000012200019N0100001N1+00721+00381101361ADDAA199000091GA1001+999999999GF100991001001999999001001MA1999999100971MD1010011+9999REMSYN076AAXX  05181 40700 32960 00000 10072 20038 30097 40136 50001 91745 333 55098;EQDQ01  00002PRCP99
0182407000999992000030600004+39650+048130FM-12+004599999V0209999C000012200019N0100001N1+00241+00201101181ADDAA199000091GA1001+999999999GF100991001001999999001001MA1999999100791MD1810151+9999REMSYN069AAXX  06001 40700 32960 00000 10024 20020 30079 40118 58015 92345 33;EQDQ01  00002PRCP99
0195407000999992000030606004+39650+048130FM-12+004599999V0202401N002012200019N0100001N1+00781+00311101091ADDAA124000091GA1001+999999999GF100991001001999999001001MA1999999100701MD1410001+9999REMSYN082AAXX  06061 40700 32960 02402 10078 20031 30070 40109 54000 90545 333 30102 70000;EQDQ01  00002PRCP24
0183407000999992000030612004+39650+048130FM-12+004599999V0200601N003012200019N0100001N1+01681+00821100461ADDAA199000091GA1001+999999999GF100991001001999999001001MA1999999100071MD1710331+9999REMSYN070AAXX  06121 40700 32960 00603 10168 20082 30007 40046 57033 91145 333;EQDQ01  00002PRCP99
0189407000999992000030618004+39650+048130FM-12+004599999V0209999C000012200019N0100001N1+00741+00471100461ADDAA199000091GA1001+999999999GF100991001001999999001001MA1999999100071MD1110041+9999REMSYN076AAXX  06181 40700 32960 00000 10074 20047 30007 40046 51004 91745 333 55100;EQDQ01  00002PRCP99
0183407000999992000030700004+39650+048130FM-12+004599999V0200901N002012200019N0100001N1+00601+00421100361ADDAA199000091GA1001+999999999GF100991001001999999001001MA1999999099971MD1810011+9999REMSYN070AAXX  07001 40700 32960 00902 10060 20042 39997 40036 58001 92345 333;EQDQ01  00002PRCP99
0207407000999992000030706004+39650+048130FM-12+004599999V0209999C000010270019N0100001N1+01221+00351100781ADDAA124000091GA1071+027009079GF107991071001999999071001MA1999999100391MD1210251+9999REMSYN094AAXX  07061 40700 32960 70000 10122 20035 30039 40078 52025 87070 90545 333 30101 70000 87359;EQDQ01  00002PRCP24
0195407000999992000030712004+39650+048130FM-12+004599999V0200901N010012200019N0100001N1+01241+00511100571ADDAA199000091GA1031+057009019GF103991001001999999001021MA1999999100181MD1610211+9999REMSYN082AAXX  07121 40700 32960 30910 10124 20051 30018 40057 56021 80002 91145 333 83069;EQDQ01  00002PRCP99
0215407000999992000030718004+39650+048130FM-12+004599999V0200901N01401036001CN0100001N1+00681+00411100901ADDAA199000091GA1031+009009069GF106991031051008001031001GJ102889MA1999999100511MD1210231+9999REMSYN094AAXX  07181 40700 32560 60914 10068 20041 30051 40090 52023 83530 91745 333 55048 83630 84359;EQDQ01  00002PRCP99
0201407000999992000030800004+39650+048130FM-12+004599999V0201001N01001036001CN0100001N1+00521+00341101411ADDAA199000091GA1031+010509069GF108991031051012501021999MA1999999101021MD1210211+9999REMSYN088AAXX  08001 40700 32660 81010 10052 20034 30102 40141 52021 8352/ 92345 333 83635 88459;EQDQ01  00002PRCP99
0213407000999992000030806004+39650+048130FM-12+004599999V0201001N01401036001CN0100001N1+00461+00161101631ADDAA124000091GA1031+010509069GF108991031051012501021999MA1999999101241MD1110181+9999REMSYN100AAXX  08061 40700 32660 81014 10046 20016 30124 40163 51018 8352/ 90545 333 30004 70000 83635 88459;EQDQ01  00002PRCP24
0175407000999992000030809004+39650+048130FM-12+004599999V0200501N01001036001CN0100001N1+00541+00081101531ADDGA1041+010509069GF108991041041012501071999MD1810101+9999REMSYN088AAXX  08091 40700 42660 80510 10054 20008 30714 40153 58010 8447/ 90845 333 84635 88459;EQDQ01+097143APOSP 
0201407000999992000030812004+39650+048130FM-12+004599999V0201001N00801036001CN0100001N1+00641+00041101381ADDAA199000091GA1041+010509069GF108991041051012501021999MA1999999100991MD1710151+9999REMSYN088AAXX  08121 40700 32660 81008 10064 20004 30099 40138 57015 8452/ 91145 333 84635 88459;EQDQ01  00002PRCP99
0222407000999992000030818004+39650+048130FM-12+004599999V0209999C00001036001CN0100001N1+00401+00251101511ADDAA106000891AY161061AY221061GA1041+010509069GF108991041051012501021999MA1999999101121MD1010041+9999MW1021REMSYN106AAXX  08181 40700 11660 80000 10040 20025 30112 40151 50004 69981 70262 8452/ 91745 333 55500 84635 88459;
0195407000999992000030900004+39650+048130FM-12+004599999V0209999C000010270019N0100001N1+00281+00181101431ADDAA199000091GA1061+027009079GF106991061001999999071001MA1999999101041MD1810071+9999REMSYN082AAXX  09001 40700 32960 60000 10028 20018 30104 40143 58007 86070 92345 333 86359;EQDQ01  00002PRCP99
0194407000999992000030906004+39650+048130FM-12+004599999V0202401N00301036001CN0100001N1+00421+99999101631ADDAA124000891GA1021+010509069GF106991021051012501061001MA1999999101241MD1110101+9999REMSYN100AAXX  09061 40700 32660 62403 10042 2022/ 30124 40163 51010 82560 90545 333 31101 70008 82635 86359;
0183407000999992000030912004+39650+048130FM-12+004599999V0202501N003012200019N0100001N1+01341+00181101321ADDAA199000091GA1001+999999999GF100991001001999999001001MA1999999100931MD1710221+9999REMSYN070AAXX  09121 40700 32960 02503 10134 20018 30093 40132 57022 91145 333;EQDQ01  00002PRCP99
0126407000999992000030918004+39650+048130FM-12+004599999V0209999C000012200019N0100001N1+00481+00181999999ADDAA199000091GA1001+999999999GF100991001001999999001001REMSYN042AAXX  09181 40700 32960 00000 10048 20018;EQDQ01  00002PRCP99
0183407000999992000031000004+39650+048130FM-12+004599999V0209999C000012200019N0100001N1+00221+00181100981ADDAA199000091GA1001+999999999GF100991001001999999001001MA1999999100591MD1710151+9999REMSYN070AAXX  10001 40700 32960 00000 10022 20018 30059 40098 57015 92345 333;EQDQ01  00002PRCP99
0195407000999992000031006004+39650+048130FM-12+004599999V0202501N003012200019N0100001N1+00921+00201100831ADDAA124000091GA1001+999999999GF100991001001999999001001MA1999999100441MD1610061+9999REMSYN082AAXX  10061 40700 32960 02503 10092 20020 30044 40083 56006 90545 333 30103 70000;EQDQ01  00002PRCP24
0183407000999992000031012004+39650+048130FM-12+004599999V0203601N003012200019N0100001N1+01881+00421100261ADDAA199000091GA1001+999999999GF100991001001999999001001MA1999999099881MD1710301+9999REMSYN070AAXX  10121 40700 32960 03603 10188 20042 39988 40026 57030 91145 333;EQDQ01  00002PRCP99
0073407000999992000031015004+39650+048130FM-12+004599999V0202201N005019999999N0100001N1+01611+99999999999REMSYN064AAXX  10151 40700 42560 /2205 10161 31/// 95001 82200 333 82826;
0189407000999992000031018004+39650+048130FM-12+004599999V0209999C000012200019N0100001N1+00941+00381100481ADDAA199000091GA1001+999999999GF100991001001999999001001MA1999999100091MD1210191+9999REMSYN076AAXX  10181 40700 32960 00000 10094 20038 30009 40048 52019 91745 333 55108;EQDQ01  00002PRCP99
0183407000999992000031100004+39650+048130FM-12+004599999V0209999C000012200019N0100001N1+00701+00471100571ADDAA199000091GA1001+999999999GF100991001001999999001001MA1999999100191MD1310081+9999REMSYN070AAXX  11001 40700 32960 00000 10070 20047 30019 40057 53008 92345 333;EQDQ01  00002PRCP99
0207407000999992000031106004+39650+048130FM-12+004599999V0202401N003012200019N0100001N1+01181+00501100611ADDAA124000091GA1021+057009019GF102991001001999999001011MA1999999100211MD1210031+9999REMSYN094AAXX  11061 40700 32960 22403 10118 20050 30021 40061 52003 80001 90545 333 30102 70000 82069;EQDQ01  00002PRCP24
0201407000999992000031112004+39650+048130FM-12+004599999V0202401N006019999999N0100001N1+02321+00771100201ADDAA199000091GA1031+027009039GF105991031001999999031041MA1999999099641MD1610191+9999REMSYN088AAXX  11121 40700 32960 52406 10232 20077 39964 40020 56019 83034 91145 333 83359 84069;EQDQ01  00002PRCP99
0263407000999992000031118004+39650+048130FM-12+004599999V0200101N005012200019N0100001N1+00741+00261101182ADDAA199000091GA1011+010509099GF104991011031012501031001GJ105409MA1999999100782MD1310822+9999REMSYN094AAXX  11181 40700 32660 40105 10074 20026 30078 40118 53082 81330 91745 333 55090 81935 84359;EQDQ01+100783APOSP Q02+101183APOSLPQ03+000822APC3  Q04  00002PRCP99
0228407000999992000031206004+39650+048130FM-12+004599999V0202501N00301036001CN0100001N1+00521+00061102001ADDAA106000791AY161061AY221061GA1021+010509069GF108991021051012501011999MA1999999101601MD1210151+9999MW1021REMSYN112AAXX  12061 40700 11660 82503 10052 20006 30160 40200 52015 69901 70262 8251/ 90545 333 30002 79999 82635 88459;
0201407000999992000031212004+39650+048130FM-12+004599999V0209999C00001036001CN0100001N1+00801-00121101691ADDAA199000091GA1021+010509089GF105991021021012501051001MA1999999101301MD1710241+9999REMSYN088AAXX  12121 40700 32660 50000 10080 21012 30130 40169 57024 82250 91145 333 82835 84359;EQDQ01  00002PRCP99
0189407000999992000031218004+39650+048130FM-12+004599999V0209999C000012200019N0100001N1+00341+00141101591ADDAA199000091GA1001+999999999GF100991001001999999001001MA1999999101201MD1810061+9999REMSYN076AAXX  12181 40700 32960 00000 10034 20014 30120 40159 58006 91745 333 55011;EQDQ01  00002PRCP99
0183407000999992000031300004+39650+048130FM-12+004599999V0209999C000012200019N0100001N1-00081-00181101131ADDAA199000091GA1001+999999999GF100991001001999999001001MA1999999100741MD1710201+9999REMSYN070AAXX  13001 40700 32960 00000 11008 21018 30074 40113 57020 92345 333;EQDQ01  00002PRCP99
0195407000999992000031306004+39650+048130FM-12+004599999V0202401N003012200019N0100001N1+00481+00131101081ADDAA124000091GA1001+999999999GF100991001001999999001001MA1999999100691MD1010031+9999REMSYN082AAXX  13061 40700 32960 02403 10048 20013 30069 40108 50003 90545 333 30105 70000;EQDQ01  00002PRCP24
0195407000999992000031312004+39650+048130FM-12+004599999V0202601N003012200019N0100001N1+01521+00271100671ADDAA199000091GA1021+027009079GF102991021001999999031001MA1999999100281MD1610141+9999REMSYN082AAXX  13121 40700 32960 22603 10152 20027 30028 40067 56014 82030 91145 333 82359;EQDQ01  00002PRCP99
0209407000999992000031318004+39650+048130FM-12+004599999V0200901N005012200019N0100001N1+00861+00251100961ADDAA199000091GA1021+027009079GF102991021001999999031001GJ106429MA1999999100571MD1110281+9999REMSYN088AAXX  13181 40700 32960 20905 10086 20025 30057 40096 51028 82030 91745 333 55107 82359;EQDQ01  00002PRCP99
0213407000999992000031406004+39650+048130FM-12+004599999V0203601N00301036001CN0100001N1+00561-00251101531ADDAA124000091GA1031+010509069GF108991031051012501021999MA1999999101141MD1110141+9999REMSYN100AAXX  14061 40700 32660 83603 10056 21025 30114 40153 51014 8352/ 90545 333 30002 70000 83635 88459;EQDQ01  00002PRCP24
0183407000999992000031500004+39650+048130FM-12+004599999V0209999C000012200019N0100001N1-00021-00311102201ADDAA199000091GA1001+999999999GF100991001001999999001001MA1999999101791MD1110061+9999REMSYN070AAXX  15001 40700 32960 00000 11002 21031 30179 40220 51006 92345 333;EQDQ01  00002PRCP99
0195407000999992000031506004+39650+048130FM-12+004599999V0209999C000012200019N0100001N1+00221-00391102471ADDAA124000091GA1001+999999999GF100991001001999999001001MA1999999102061MD1310221+9999REMSYN082AAXX  15061 40700 32960 00000 10022 21039 30206 40247 53022 90545 333 30109 70000;EQDQ01  00002PRCP24
0183407000999992000031512004+39650+048130FM-12+004599999V0202001N002012200019N0100001N1+01021-00381102111ADDAA199000091GA1001+999999999GF100991001001999999001001MA1999999101731MD1710221+9999REMSYN070AAXX  15121 40700 32960 02002 10102 21038 30173 40211 57022 91145 333;EQDQ01  00002PRCP99
0189407000999992000031518004+39650+048130FM-12+004599999V0209999C000012200019N0100001N1+00101-00421102061ADDAA199000091GA1001+999999999GF100991001001999999001001MA1999999101651MD1810021+9999REMSYN076AAXX  15181 40700 32960 00000 10010 21042 30165 40206 58002 91745 333 55108;EQDQ01  00002PRCP99
0183407000999992000031600004+39650+048130FM-12+004599999V0209999C000012200019N0100001N1-00321-00661101901ADDAA199000091GA1001+999999999GF100991001001999999001001MA1999999101501MD1810151+9999REMSYN070AAXX  16001 40700 32960 00000 11032 21066 30150 40190 58015 92345 333;EQDQ01  00002PRCP99
0195407000999992000031606004+39650+048130FM-12+004599999V0201101N004012200019N0100001N1+00421+00001101921ADDAA124000091GA1001+999999999GF100991001001999999001001MA1999999101511MD1110031+9999REMSYN082AAXX  16061 40700 32960 01104 10042 20000 30151 40192 51003 90545 333 30109 70000;EQDQ01  00002PRCP24
0239407000999992000031706004+39650+048130FM-12+004599999V0200801N002012200019N0100001N1+00481+00131101341ADDAA124000091GA1021+057009019GF199999001001999999001999MA1999999100951MD1810011+9999REMSYN094AAXX  17061 40700 32960 00802 10048 20013 30095 40134 58001 80001 90545 333 30108 70000 82069;EQDQ01+000002SCOTCVQ02+000002SCOHCGQ03  00002PRCP24
0227407000999992000031712004+39650+048130FM-12+004599999V0209999C000010057019N0100001N1+01321+00491100921ADDAA199000091GA1061+005709089GF106991999999999999001061MA1999999100531MD1710251+9999REMSYN082AAXX  17121 40700 32960 60000 10132 20049 30053 40092 57025 80006 91145 333 86219;EQDQ01+000002SCOTLCQ02+000002SCOLCGQ03  00002PRCP99
0183407000999992000031800004+39650+048130FM-12+004599999V0209999C000012200019N0100001N1+00321+00061100781ADDAA199000091GA1001+999999999GF100991001001999999001001MA1999999100391MD1610061+9999REMSYN070AAXX  18001 40700 32960 00000 10032 20006 30039 40078 56006 92345 333;EQDQ01  00002PRCP99
0183407000999992000031812004+39650+048130FM-12+004599999V0203301N002012200019N0100001N1+01541+00721100391ADDAA199000091GA1001+999999999GF100991001001999999001001MA1999999100001MD1710231+9999REMSYN070AAXX  18121 40700 32960 03302 10154 20072 30000 40039 57023 91145 333;EQDQ01  00002PRCP99
0189407000999992000031818004+39650+048130FM-12+004599999V0209999C000012200019N0100001N1+00761+00401100371ADDAA199000091GA1001+999999999GF100991001001999999001001MA1999999099981MD1210061+9999REMSYN076AAXX  18181 40700 32960 00000 10076 20040 39998 40037 52006 91745 333 55085;EQDQ01  00002PRCP99
0195407000999992000031900004+39650+048130FM-12+004599999V0203301N004012200019N0100001N1+00681+00341100301ADDAA199000091GA1041+027009079GF104991041001999999031001MA1999999099921MD1610041+9999REMSYN082AAXX  19001 40700 32960 43304 10068 20034 39992 40030 56004 84030 92345 333 84359;EQDQ01  00002PRCP99
0183407000999992000031912004+39650+048130FM-12+004599999V0203401N002012200019N0100001N1+02061+00691100541ADDAA199000091GA1001+999999999GF100991001001999999001001MA1999999100161MD1710071+9999REMSYN070AAXX  19121 40700 32960 03402 10206 20069 30016 40054 57007 91145 333;EQDQ01  00002PRCP99
0189407000999992000032018004+39650+048130FM-12+004599999V0209999C000012200019N0100001N1+00961+00841101201ADDAA199000091GA1001+999999999GF100991001001999999001001MA1999999100811MD1210141+9999REMSYN076AAXX  20181 40700 32960 00000 10096 20084 30081 40120 52014 91745 333 55102;EQDQ01  00002PRCP99
0183407000999992000032100004+39650+048130FM-12+004599999V0203301N002012200019N0100001N1+00661+00531101281ADDAA199000091GA1001+999999999GF100991001001999999001001MA1999999100901MD1010001+9999REMSYN070AAXX  21001 40700 32960 03302 10066 20053 30090 40128 50000 92345 333;EQDQ01  00002PRCP99
0195407000999992000032106004+39650+048130FM-12+004599999V0200801N002012200019N0100001N1+01181+00591101391ADDAA124000091GA1001+999999999GF100991001001999999001001MA1999999101011MD1010061+9999REMSYN082AAXX  21061 40700 32960 00802 10118 20059 30101 40139 50006 90545 333 30001 70000;EQDQ01  00002PRCP24
0211407000999992000032112004+39650+048130FM-12+004599999V0200901N011010600019N0100001N1+01401+00791101051ADDAA199000091GA1081+060009089GF108991999001999999001071MA1999999100661MD1610161+9999REMSYN082AAXX  21121 40700 32960 80911 10140 20079 30066 40105 56016 80007 91145 333 88270;EQDQ01+000002SCOTLCQ02  00002PRCP99
0225407000999992000032118004+39650+048130FM-12+004599999V0200801N004010270019N0100001N1+00781+00571101141ADDAA199000091GA1061+027009079GF108991999001999999001061GJ103189MA1999999100751MD1210081+9999REMSYN088AAXX  21181 40700 32960 80804 10078 20057 30075 40114 52008 80006 91745 333 55053 86359;EQDQ01+000002SCOTLCQ02  00002PRCP99
0181407000999992000032318004+39650+048130FM-12+004599999V0201801N004010078019N0060001N1+00981+99999999999ADDAA106007191AY161061AY221061GA1051+007809089GF105991051021008001001001MW1011REMSYN094AAXX  23181 40700 11556 51804 10098 200/7 4/072 60071 70162 85200 918// 333 3/67/ 85826 92441;
0183407000999992000032812004+39650+048130FM-12+004599999V0209999C000012200019N0100001N1+01561+00581101641ADDAA199000091GA1001+999999999GF100991001001999999001001MA1999999101351MD1710271+9999REMSYN070AAXX  28121 40700 32960 00000 10156 20058 30135 40164 57027 91145 333;EQDQ01  00002PRCP99
0138407000999992000032815004+39650+048130FM-12+004599999V0200301N005012200019N0100001N1+01921+00951101981ADDGA1001+999999999GF100991001001999999001001MD1610021+9999REMSYN070AAXX  28151 40700 42960 00305 10192 20095 40198 56002 915// 333 9)427;
0223407000999992000032906004+39650+048130FM-12+004599999V0209999C000012200019N0100001N1+01141+00681101481ADDAA124000091AY141061AY201061GA1001+999999999GF100991001001999999001001MA1999999101091MD1110021+9999MW1011REMSYN088AAXX  29061 40700 31960 00000 10114 20068 30109 40148 51002 70140 90545 333 30101 70000;EQDQ01  00002PRCP24
0189407000999992000032918004+39650+048130FM-12+004599999V0209999C000012200019N0100001N1+01081+00841101131ADDAA199000091GA1001+999999999GF100991001001999999001001MA1999999100751MD1210081+9999REMSYN076AAXX  29181 40700 32960 00000 10108 20084 30075 40113 52008 91745 333 55095;EQDQ01  00002PRCP99
0183407000999992000033000004+39650+048130FM-12+004599999V0209999C000012200019N0100001N1+00881+00801101291ADDAA199000091GA1001+999999999GF100991001001999999001001MA1999999100911MD1210071+9999REMSYN070AAXX  30001 40700 32960 00000 10088 20080 30091 40129 52007 92345 333;EQDQ01  00002PRCP99
0213407000999992000033006004+39650+048130FM-12+004599999V0201201N003012200019N0100001N1+01161+00941101511ADDAA124000091GA1021+012009069GF104991021051012501031001MA1999999101121MD1210101+9999REMSYN100AAXX  30061 40700 32660 41203 10116 20094 30112 40151 52010 82530 90545 333 30005 70000 82640 83359;EQDQ01  00002PRCP24
0183407000999992000040212004+39650+048130FM-12+004599999V0200901N002012200019N0100001N1+02041+01111101421ADDAA199000091GA1001+999999999GF100991001001999999001001MA1999999101041MD1710261+9999REMSYN070AAXX  02121 40700 32960 00902 10204 20111 30104 40142 57026 91145 333;EQDQ01  00002PRCP99
0225407000999992000040218004+39650+048130FM-12+004599999V0209999C000010570019N0100001N1+01181+00961101481ADDAA199000091GA1061+057009089GF106991999001999999001061GJ103909MA1999999101091MD1110111+9999REMSYN088AAXX  02181 40700 32960 60000 10118 20096 30109 40148 51011 80006 91745 333 55065 86269;EQDQ01+000002SCOTLCQ02  00002PRCP99
0201407000999992000040300004+39650+048130FM-12+004599999V0209999C00001036001CN0100001N1+01101+01021101471ADDAA199000091GA1041+012009069GF108991041051012501021999MA1999999101091MD1610051+9999REMSYN088AAXX  03001 40700 32660 80000 10110 20102 30109 40147 56005 8452/ 92345 333 84640 88459;EQDQ01  00002PRCP99
0195407000999992000040312004+39650+048130FM-12+004599999V0200601N002012200019N0100001N1+01741+01101101301ADDAA199000091GA1031+060009019GF103991001001999999001011MA1999999100921MD1710221+9999REMSYN082AAXX  03121 40700 32960 30602 10174 20110 30092 40130 57022 80001 91145 333 83070;EQDQ01  00002PRCP99
0195407000999992000040406004+39650+048130FM-12+004599999V0209999C000012200019N0100001N1+01601+01201101391ADDAA124000091GA1001+999999999GF100991001001999999001001MA1999999101341MD1110121+9999REMSYN082AAXX  04061 40700 32960 00000 10160 20120 30134 40139 51012 90545 333 30006 70000;EQDQ01  00002PRCP24
0195407000999992000040412004+39650+048130FM-12+004599999V0200901N003012200019N0100001N1+02541+01301101101ADDAA199000091GA1041+060009019GF104991001001999999001041MA1999999100721MD1710221+9999REMSYN082AAXX  04121 40700 32960 40903 10254 20130 30072 40110 57022 80004 91145 333 84070;EQDQ01  00002PRCP99
0209407000999992000040418004+39650+048130FM-12+004599999V0200901N003012200019N0100001N1+01361+01151101171ADDAA199000091GA1031+060009019GF103991001001999999001011GJ104989MA1999999100791MD1310071+9999REMSYN088AAXX  04181 40700 32960 30903 10136 20115 30079 40117 53007 80001 91745 333 55083 83070;EQDQ01  00002PRCP99
0211407000999992000040500004+39650+048130FM-12+004599999V0209999C000012200019N0100001N1+00961+00921101131ADDAA199000091GA1041+060009089GF104991999001999999001061MA1999999100751MD1810061+9999REMSYN082AAXX  05001 40700 32960 40000 10096 20092 30075 40113 58006 80006 92345 333 84270;EQDQ01+000002SCOTLCQ02  00002PRCP99
0229407000999992000040506004+39650+048130FM-12+004599999V0209999C000012200019N0100001N1+01541+01161101191ADDAA124000091GA1041+057009089GF104991999001999999001011MA1999999100851MD1310061+9999REMSYN100AAXX  05061 40700 32960 40000 10154 20116 30085 40119 53006 80001 90545 333 30005 50511 70000 84269;EQDQ01+000002SCOTLCQ02  00002PRCP24
0189407000999992000040518004+39650+048130FM-12+004599999V0209999C000012200019N0100001N1+01601+01181100841ADDAA199000091GA1001+999999999GF100991001001999999001001MA1999999100641MD1310061+9999REMSYN076AAXX  05181 40700 32960 00000 10160 20118 30064 40084 53006 91745 333 55100;EQDQ01  00002PRCP99
0183407000999992000040600004+39650+048130FM-12+004599999V0209999C000012200019N0100001N1+00981+00811100811ADDAA199000091GA1001+999999999GF100991001001999999001001MA1999999100431MD1810031+9999REMSYN070AAXX  06001 40700 32960 00000 10098 20081 30043 40081 58003 92345 333;EQDQ01  00002PRCP99
0201407000999992000040606004+39650+048130FM-12+004599999V0209999C000012200019N0100001N1+01741+01101100751ADDAA124000091GA1001+999999999GF100991001001999999001001MA1999999100771MD1110011+9999REMSYN088AAXX  06061 40700 32960 00000 10174 20110 30077 40075 51001 90545 333 30006 50461 70000;EQDQ01  00002PRCP24
0183407000999992000040612004+39650+048130FM-12+004599999V0209999C000012200019N0100001N1+02761+01231100331ADDAA199000091GA1001+999999999GF100991001001999999001001MA1999999099951MD1710191+9999REMSYN070AAXX  06121 40700 32960 00000 10276 20123 39995 40033 57019 91145 333;EQDQ01  00002PRCP99
0189407000999992000040618004+39650+048130FM-12+004599999V0209999C000012200019N0100001N1+01801+01351100331ADDAA199000091GA1001+999999999GF100991001001999999001001MA1999999099951MD1010031+9999REMSYN076AAXX  06181 40700 32960 00000 10180 20135 39995 40033 50003 91745 333 55095;EQDQ01  00002PRCP99
0213407000999992000040706004+39650+048130FM-12+004599999V0201001N003012200019N0100001N1+02021+01321100151ADDAA124000091GA1041+060009019GF104991001001999999001011MA1999999099781MD1710161+9999REMSYN100AAXX  07061 40700 32960 41003 10202 20132 39978 40015 57016 80001 90545 333 30009 50521 70000 84070;EQDQ01  00002PRCP24
0195407000999992000040712004+39650+048130FM-12+004599999V0200901N004012200019N0100001N1+02861+01711099681ADDAA199000091GA1031+060009019GF103991001001999999001021MA1999999099311MD1710251+9999REMSYN082AAXX  07121 40700 32960 30904 10286 20171 39931 49968 57025 80002 91145 333 83070;EQDQ01  00002PRCP99
0189407000999992000040718004+39650+048130FM-12+004599999V0209999C000012200019N0100001N1+01921+01421100131ADDAA199000091GA1001+999999999GF100991001001999999001001MA1999999099731MD1210411+9999REMSYN076AAXX  07181 40700 32960 00000 10192 20142 39973 40013 52041 91745 333 55077;EQDQ01  00002PRCP99
0183407000999992000040800004+39650+048130FM-12+004599999V0200701N003012200019N0100001N1+01521+01271100271ADDAA199000091GA1001+999999999GF100991001001999999001001MA1999999099901MD1310171+9999REMSYN070AAXX  08001 40700 32960 00703 10152 20127 39990 40027 53017 92345 333;EQDQ01  00002PRCP99
0229407000999992000040806004+39650+048130FM-12+004599999V0203601N002010570019N0100001N1+01721+01011100531ADDAA124000091GA1051+057009089GF105991999001999999001061MA1999999100151MD1110131+9999REMSYN100AAXX  08061 40700 32960 53602 10172 20101 30015 40053 51013 80006 90545 333 30012 50721 70000 85269;EQDQ01+000002SCOTLCQ02  00002PRCP24
0211407000999992000040812004+39650+048130FM-12+004599999V0203601N005010570019N0100001N1+02541+01271100331ADDAA199000091GA1051+057009089GF105991999001999999001061MA1999999099951MD1610071+9999REMSYN082AAXX  08121 40700 32960 53605 10254 20127 39995 40033 56007 80006 91145 333 85269;EQDQ01+000002SCOTLCQ02  00002PRCP99
0189407000999992000040818004+39650+048130FM-12+004599999V0201001N010012200019N0100001N1+01501+00831100471ADDAA199000091GA1001+999999999GF100991001001999999001001MA1999999100091MD1110071+9999REMSYN076AAXX  08181 40700 32960 01010 10150 20083 30009 40047 51007 91745 333 55075;EQDQ01  00002PRCP99
0178407000999992000040900004+39650+048130FM-12+004599999V0209999C000019999999N0100001N1+01081+00841100431ADDAA199000091GF108991999999999999999999MA1999999100051MD1410001+9999REMSYN081AAXX  09001 40700 32960 80000 10108 20084 30005 40043 54000 8006 92345 333 88269;EQDQ01  00002PRCP99
0213407000999992000040906004+39650+048130FM-12+004599999V0209999C000010300019N0100001N1+01141+00951100581ADDAA124000091GA1081+030009019GF108991081001999999021999MA1999999100201MD1210151+9999REMSYN100AAXX  09061 40700 32960 80000 10114 20095 30020 40058 52015 8802/ 90545 333 30009 50501 70000 88460;EQDQ01  00002PRCP24
0204407000999992000040918004+39650+048130FM-12+004599999V0209999C000012200019N0100001N1+01101+00941100161ADDAA106000591AY161061AY211061GA1001+999999999GF100991001001999999001001MA1999999099781MD1510131+9999MW1011REMSYN088AAXX  09181 40700 11960 00000 10110 20094 39978 40016 55013 69941 70161 91745 333 55000;
0201407000999992000041012004+39650+048130FM-12+004599999V0203401N005010270019N0100001N1+01641+00651100511ADDAA199000091GA1061+027009049GF108991061001999999021061MA1999999100131MD1310151+9999REMSYN088AAXX  10121 40700 32960 83405 10164 20065 30013 40051 53015 86026 91145 333 86459 88270;EQDQ01  00002PRCP99
0209407000999992000041018004+39650+048130FM-12+004599999V0209999C000012200019N0100001N1+01001+00651100931ADDAA199000091GA1031+027009079GF103991021001999999041001GJ102649MA1999999100551MD1310251+9999REMSYN088AAXX  10181 40700 32960 30000 10100 20065 30055 40093 53025 82040 91745 333 55044 83359;EQDQ01  00002PRCP99
0201407000999992000041100004+39650+048130FM-12+004599999V0209999C000012200019N0100001N1+00761+00241100961ADDAA199000091GA1001+999999999GF100991001001999999001001MA1999999100601REMSYN070AAXX  11001 40700 32960 00000 10076 20024 30060 40096 51000 92345 333;EQDQ01+000012APCTENQ02+000002APC3  Q03  00002PRCP99
0201407000999992000041106004+39650+048130FM-12+004599999V0203601N004012200019N0100001N1+01281+00401101081ADDAA124000091GA1001+999999999GF100991001001999999001001MA1999999100701MD1210091+9999REMSYN088AAXX  11061 40700 32960 03604 10128 20040 30070 40108 52009 90545 333 30001 50411 70000;EQDQ01  00002PRCP24
0183407000999992000041112004+39650+048130FM-12+004599999V0203401N005012200019N0100001N1+01741+00541100671ADDAA199000091GA1001+999999999GF100991001001999999001001MA1999999100291MD1710261+9999REMSYN070AAXX  11121 40700 32960 03405 10174 20054 30029 40067 57026 91145 333;EQDQ01  00002PRCP99
0189407000999992000041118004+39650+048130FM-12+004599999V0209999C000012200019N0100001N1+00961+00271100831ADDAA199000091GA1001+999999999GF100991001001999999001001MA1999999100351MD1310071+9999REMSYN076AAXX  11181 40700 32960 00000 10096 20027 30035 40083 53007 91745 333 55120;EQDQ01  00002PRCP99
0183407000999992000041200004+39650+048130FM-12+004599999V0202401N003012200019N0100001N1+00681+00501100681ADDAA199000091GA1001+999999999GF100991001001999999001001MA1999999100301MD1810051+9999REMSYN070AAXX  12001 40700 32960 02403 10068 20050 30030 40068 58005 92345 333;EQDQ01  00002PRCP99
0153407000999992000041212004+39650+048130FM-12+004599999V0209999C000012200019N0100001N1+02101+00331100481ADDGA1001+999999999GF100991001001999999001001MA1999999100101MD1710101+9999REMSYN070AAXX  12121 40700 /2960 00000 10210 20033 30010 40048 57010 91145 333;
0201407000999992000041312004+39650+048130FM-12+004599999V0209999C000019999999N0100001N1+02021+01361100831ADDAA199000091GA1031+030009039GF106991031001012501031061MA1999999100451MD1810101+9999REMSYN088AAXX  13121 40700 32660 60000 10202 20136 30045 40083 58010 83036 91145 333 83360 86270;EQDQ01  00002PRCP99
0215407000999992000041318004+39650+048130FM-12+004599999V0209999C000019999999N0100001N1+01581+01061100851ADDAA199000091GA1041+030009039GF106991041001999999071061GJ101869MA1999999100471MD1010041+9999REMSYN094AAXX  13181 40700 32960 60000 10158 20106 30047 40085 50004 84076 91745 333 55031 84360 86270;EQDQ01  00002PRCP99
0211407000999992000041400004+39650+048130FM-12+004599999V0209999C000010600019N0100001N1+01161+00901100721ADDAA199000091GA1081+060009089GF108991999001999999001071MA1999999100341MD1610011+9999REMSYN082AAXX  14001 40700 32960 80000 10116 20090 30034 40072 56001 80007 92345 333 88270;EQDQ01+000002SCOTLCQ02  00002PRCP99
0219407000999992000041406004+39650+048130FM-12+004599999V0200901N00201090001CN0100001N1+01541+01161100781ADDAA124000091GA1021+004509079GF105991021061004501001051MA1999999100401MD1510011+9999REMSYN106AAXX  14061 40700 32460 50902 10154 20116 30040 40078 55001 82605 90545 333 30009 50321 70000 82715 83270;EQDQ01  00002PRCP24
0225407000999992000041418004+39650+048130FM-12+004599999V0209999C000010600019N0100001N1+01341+00951100311ADDAA199000091GA1051+060009099GF105991999001999999001091GJ102469MA1999999099931MD1310081+9999REMSYN088AAXX  14181 40700 32960 50000 10134 20095 39993 40031 53008 80009 91745 333 55041 85170;EQDQ01+000002SCOTLCQ02  00002PRCP99
0211407000999992000041500004+39650+048130FM-12+004599999V0209999C000010600019N0100001N1+00961+00671100561ADDAA199000091GA1051+060009089GF105991999001999999001081MA1999999100181MD1210151+9999REMSYN082AAXX  15001 40700 32960 50000 10096 20067 30018 40056 52015 80008 92345 333 85270;EQDQ01+000002SCOTLCQ02  00002PRCP99
0201407000999992000041506004+39650+048130FM-12+004599999V0203301N004012200019N0100001N1+01701+01021100161ADDAA124000091GA1001+999999999GF100991001001999999001001MA1999999100181MD1410001+9999REMSYN088AAXX  15061 40700 32960 03304 10170 20102 30018 40016 54000 90545 333 30007 50521 70000;EQDQ01  00002PRCP24
0211407000999992000041512004+39650+048130FM-12+004599999V0209999C000010600019N0100001N1+02461+01221100331ADDAA199000091GA1051+060009099GF105991999001999999001091MA1999999099951MD1710101+9999REMSYN082AAXX  15121 40700 32960 50000 10246 20122 39995 40033 57010 80009 91146 333 85170;EQDQ01+000002SCOTLCQ02  00002PRCP99
0189407000999992000041518004+39650+048130FM-12+004599999V0209999C000012200019N0100001N1+01561+01201100551ADDAA199000091GA1001+999999999GF100991001001999999001001MA1999999100171MD1210231+9999REMSYN076AAXX  15181 40700 32960 00000 10156 20120 30017 40055 52023 91745 333 55091;EQDQ01  00002PRCP99
0183407000999992000041600004+39650+048130FM-12+004599999V0209999C000012200019N0100001N1+01101+00841100741ADDAA199000091GA1001+999999999GF100991001001999999001001MA1999999100361MD1210101+9999REMSYN070AAXX  16001 40700 32960 00000 10110 20084 30036 40074 52010 92345 333;EQDQ01  00002PRCP99
0195407000999992000041606004+39650+048130FM-12+004599999V0209999C000012200019N0100001N1+01781+01041100941ADDAA199000091GA1001+999999999GF100991001001999999001001MA1999999100561MD1210101+9999REMSYN082AAXX  16061 40700 32960 00000 10178 20104 30056 40094 52010 90545 333 30009 50461;EQDQ01  00002PRCP99
0209407000999992000041618004+39650+048130FM-12+004599999V0200901N002012200019N0100001N1+01361+01061101031ADDAA199000091GA1021+030009079GF102991021001999999041001GJ106309MA1999999100651MD1210281+9999REMSYN088AAXX  16181 40700 32960 20902 10136 20106 30065 40103 52028 82040 91745 333 55105 82360;EQDQ01  00002PRCP99
0195407000999992000041700004+39650+048130FM-12+004599999V0209999C000012200019N0100001N1+01161+00941101071ADDAA199000091GA1031+030009079GF103991031001999999041001MA1999999100691MD1310011+9999REMSYN082AAXX  17001 40700 32960 30000 10116 20094 30069 40107 53001 83040 92345 333 83360;EQDQ01  00002PRCP99
0201407000999992000041706004+39650+048130FM-12+004599999V0209999C000012200019N0100001N1+01681+01101101251ADDAA124000091GA1001+999999999GF100991001001999999001001MA1999999100881MD1210111+9999REMSYN088AAXX  17061 40700 32960 00000 10168 20110 30088 40125 52011 90545 333 30007 50451 70000;EQDQ01  00002PRCP24
0195407000999992000041712004+39650+048130FM-12+004599999V0200701N002012200019N0100001N1+02501+01261100921ADDAA199000091GA1021+060009019GF102991001001999999001011MA1999999100541MD1710211+9999REMSYN082AAXX  17121 40700 32960 20702 10250 20126 30054 40092 57021 80001 91145 333 82070;EQDQ01  00002PRCP99
0183407000999992000041718004+39650+048130FM-12+004599999V0200901N004012200019N0100001N1+01481+99999101051ADDAA199000091GA1001+999999999GF100991001001999999001001MA1999999100671MD1210181+9999REMSYN070AAXX  17181 40700 32960 00904 10148 30067 40105 52018 91745 333 55113;EQDQ01  00002PRCP99
0183407000999992000041800004+39650+048130FM-12+004599999V0209999C000012200019N0100001N1+01061+00951100971ADDAA199000091GA1001+999999999GF100991001001999999001001MA1999999100591MD1610061+9999REMSYN070AAXX  18001 40700 32960 00000 10106 20095 30059 40097 56006 92345 333;EQDQ01  00002PRCP99
0219407000999992000041806004+39650+048130FM-12+004599999V0209999C00001036001CN0050001N1+01181+00931101091ADDAA124000091GA1031+006009079GF108991031061008001021999MA1999999100711MD1110111+9999REMSYN106AAXX  18061 40700 32550 80000 10118 20093 30071 40109 51011 8362/ 90545 333 30006 50621 70000 83720 88457;EQDQ01  00002PRCP24
0195407000999992000041812004+39650+048130FM-12+004599999V0209999C000010270019N0100001N1+02041+01391100851ADDAA199000091GA1051+027009079GF105991051001999999031001MA1999999100471MD1710201+9999REMSYN082AAXX  18121 40700 32960 50000 10204 20139 30047 40085 57020 85030 91145 333 85359;EQDQ01  00002PRCP99
0203407000999992000041918004+39650+048130FM-12+004599999V0209999C000012200019N0100001N1+01661+01361100361ADDAA199000091GA1031+090009019GF103991999999999999999999GJ101509MA1999999099981MD1010001+9999REMSYN082AAXX  19181 40700 32960 30000 10166 20136 39998 40036 50000 91745 333 55025 83080;EQDQ01  00002PRCP99
0211407000999992000042000004+39650+048130FM-12+004599999V0209999C000012200019N0100001N1+01241+01181100401ADDAA199000091GA1041+060009089GF104991999001999999001061MA1999999100021MD1510011+9999REMSYN082AAXX  20001 40700 32960 40000 10124 20118 30002 40040 55001 80006 92345 333 84270;EQDQ01+000002SCOTLCQ02  00002PRCP99
0234407000999992000042006004+39650+048130FM-12+004599999V0209999C00001036001CN0100001N1+01861+01521100491ADDAA106000791AY121061AY211061GA1031+012009069GF108991031051012501011999MA1999999100111MD1510101+9999MW1211REMSYN118AAXX  20061 40700 11660 80000 10186 20152 30011 40049 55010 69901 72121 8351/ 90545 333 30010 50291 79999 83640 88459;
0196407000999992000042018004+39650+048130FM-12+004599999V0209999C000012200019N0100001N1+01981+01591100221ADDAA199000021GA1021+027009039GF104991021001999999031011GJ101149MA1999999099851MD1310281+9999REMSYN094AAXX  20181 40700 32960 40000 10198 20159 39985 40022 53028 82031 91745 333 55019 82359 83070;
0234407000999992000042106004+39650+048130FM-12+004599999V0209999C00001036001CN0100001N1+01801+01491100641ADDAA106000591AY161061AY221061GA1031+006009079GF108991031061008001071001MA1999999099731MD1010121+9999MW1251REMSYN118AAXX  21061 40700 11560 80000 10180 20149 39973 40064 50012 69941 72562 83670 90545 333 31014 50301 70004 83720 88360;
0204407000999992000042118004+39650+048130FM-12+004599999V0202401N003012200019N0100001N1+01621+01331100031ADDAA106000591AY181061AY221061GA1001+999999999GF100991001001999999001001MA1999999099651MD1010071+9999MW1011REMSYN088AAXX  21181 40700 11960 02403 10162 20133 39965 40003 50007 69941 70182 91745 333 55007;
0183407000999992000042200004+39650+048130FM-12+004599999V0209999C000012200019N0100001N1+01101+00921100311ADDAA199000091GA1001+999999999GF100991001001999999001001MA1999999099931MD1110021+9999REMSYN070AAXX  22001 40700 32960 00000 10110 20092 39993 40031 51002 92345 333;EQDQ01  00002PRCP99
0182407000999992000042206004+39650+048130FM-12+004599999V0209999C000012200019N0100001N1+02021+01271100421ADDAA124000591GA1001+999999999GF100991001001999999001001MA1999999100041MD1210081+9999REMSYN088AAXX  22061 40700 32960 00000 10202 20127 30004 40042 52008 90545 333 30008 50321 70004;
0189407000999992000042218004+39650+048130FM-12+004599999V0209999C000012200019N0100001N1+01721+01091100331ADDAA199000091GA1001+999999999GF100991001001999999001001MA1999999099961MD1210081+9999REMSYN076AAXX  22181 40700 32960 00000 10172 20109 39996 40033 52008 91745 333 55112;EQDQ01  00002PRCP99
0201407000999992000042300004+39650+048130FM-12+004599999V0209999C000012200019N0100001N1+01301+01271100531ADDAA199000091GA1021+010509099GF103991021091012501041001MA1999999100161MD1010131+9999REMSYN088AAXX  23001 40700 32660 30000 10130 20127 30016 40053 50013 82940 92345 333 82935 83360;EQDQ01  00002PRCP99
0201407000999992000042312004+39650+048130FM-12+004599999V0200201N00401090001CN0100001N1+02641+01321100321ADDAA199000091GA1021+012009099GF105991021091012501001031MA1999999099951MD1710231+9999REMSYN088AAXX  23121 40700 32660 50204 10264 20132 39995 40032 57023 82903 91145 333 82940 84070;EQDQ01  00002PRCP99
0189407000999992000042318004+39650+048130FM-12+004599999V0209999C000012200019N0100001N1+01761+01271100581ADDAA199000091GA1001+999999999GF100991001001999999001001MA1999999100211MD1210131+9999REMSYN076AAXX  23181 40700 32960 00000 10176 20127 30021 40058 52013 91745 333 55096;EQDQ01  00002PRCP99
0189407000999992000042406004+39650+048130FM-12+004599999V0209999C000012200019N0100001N1+99999+99999100841ADDAA199000091GA1001+999999999GF100991001001999999001001MA1999999100461MD1210051+9999REMSYN076AAXX  24061 40700 32960 00000 20112 30046 40084 52005 90545 333 30008 50621;EQDQ01  00002PRCP99
0183407000999992000042500004+39650+048130FM-12+004599999V0201001N002012200019N0100001N1+01461+01081100871ADDAA199000091GA1001+999999999GF100991001001999999001001MA1999999100501MD1110021+9999REMSYN070AAXX  25001 40700 32960 01002 10146 20108 30050 40087 51002 92345 333;EQDQ01  00002PRCP99
0213407000999992000042606004+39650+048130FM-12+004599999V0200601N002012200019N0100001N1+01741+01471101221ADDAA124000091GA1031+030009079GF103991031001999999071001MA1999999100841MD1210141+9999REMSYN100AAXX  26061 40700 32960 30602 10174 20147 30084 40122 52014 83070 90545 333 30008 50481 70000 83360;EQDQ01  00002PRCP24
0201407000999992000042612004+39650+048130FM-12+004599999V0200801N00301220001CN0100001N1+02661+01371100891ADDAA199000091GA1031+012009099GF105991031011012501001041MA1999999100521MD1710231+9999REMSYN088AAXX  26121 40700 32660 50803 10266 20137 30052 40089 57023 83104 91145 333 83940 84070;EQDQ01  00002PRCP99
0189407000999992000042618004+39650+048130FM-12+004599999V0209999C000012200019N0100001N1+01701+01431101111ADDAA199000091GA1001+999999999GF100991001001999999001001MA1999999100731MD1110061+9999REMSYN076AAXX  26181 40700 32960 00000 10170 20143 30073 40111 51006 91745 333 55101;EQDQ01  00002PRCP99
0183407000999992000042700004+39650+048130FM-12+004599999V0209999C000012200019N0100001N1+01261+01171101121ADDAA199000091GA1001+999999999GF100991001001999999001001MA1999999100751MD1410001+9999REMSYN070AAXX  27001 40700 32960 00000 10126 20117 30075 40112 54000 92345 333;EQDQ01  00002PRCP99
0201407000999992000042706004+39650+048130FM-12+004599999V0209999C000012200019N0100001N1+01941+01531101281ADDAA124000091GA1001+999999999GF100991001001999999001001MA1999999100901MD1010091+9999REMSYN088AAXX  27061 40700 32960 00000 10194 20153 30090 40128 50009 90545 333 30007 50561 70000;EQDQ01  00002PRCP24
0195407000999992000042712004+39650+048130FM-12+004599999V0209999C000012200019N0100001N1+02761+01271101001ADDAA199000091GA1021+060009019GF102991001001999999001011MA1999999100631MD1710191+9999REMSYN082AAXX  27121 40700 32960 20000 10276 20127 30063 40100 57019 80001 91145 333 82070;EQDQ01  00002PRCP99
0211407000999992000042912004+39650+048130FM-12+004599999V0200901N003010600019N0100001N1+02541+01091100221ADDAA199000091GA1071+060009089GF107991999001999999001071MA1999999099851MD1710291+9999REMSYN082AAXX  29121 40700 32960 70903 10254 20109 39985 40022 57029 80007 91145 333 87270;EQDQ01+000002SCOTLCQ02  00002PRCP99
0204407000999992000042918004+39650+048130FM-12+004599999V0209999C000012200019N0100001N1+01661+01351100441ADDAA106000791AY181061AY261061GA1001+999999999GF100991001001999999001001MA1999999100061MD1310141+9999MW1011REMSYN088AAXX  29181 40700 11960 00000 10166 20135 30006 40044 53014 69901 70186 91745 333 55025;
0183407000999992000043000004+39650+048130FM-12+004599999V0209999C000012200019N0100001N1+01321+01261100401ADDAA199000091GA1001+999999999GF100991001001999999001001MA1999999100031MD1610041+9999REMSYN070AAXX  30001 40700 32960 00000 10132 20126 30003 40040 56004 92345 333;EQDQ01  00002PRCP99
0201407000999992000043006004+39650+048130FM-12+004599999V0209999C000012200019N0100001N1+02021+01371100441ADDAA124000091GA1001+999999999GF100991001001999999001001MA1999999100061MD1010031+9999REMSYN088AAXX  30061 40700 32960 00000 10202 20137 30006 40044 50003 90545 333 30011 50421 70000;EQDQ01  00002PRCP24
0201407000999992000043012004+39650+048130FM-12+004599999V0209999C000019999999N0100001N1+02661+01401100131ADDAA199000091GA1041+027009039GF106991041001999999031061MA1999999099761MD1710141+9999REMSYN088AAXX  30121 40700 32960 60000 10266 20140 39976 40013 57014 84036 91145 333 84359 86270;EQDQ01  00002PRCP99
0230407000999992000043018004+39650+048130FM-12+004599999V0201001N003012200019N0100001N1+01821+01431100411ADDAA106000791AY181061AY261061GA1031+030009039GF104991031001999999021051GJ103909MA1999999100041MD1210141+9999MW1011REMSYN106AAXX  30181 40700 11960 41003 10182 20143 30004 40041 52014 69901 70186 83025 91745 333 55065 83360 84270;
0211407000999992000050100004+39650+048130FM-12+004599999V0209999C000010300019N0100001N1+01581+01371100841ADDAA199000091GA1071+030009019GF107991071001999999021999MA1999999100311MD1010041+9999REMSYN082AAXX  01001 40700 32960 70000 10158 20137 30031 40084 50004 87020 92345 333 87460;EQDQ01+000002SCOHCGQ02  00002PRCP99
0194407000999992000050106004+39650+048130FM-12+004599999V0201001N002012200019N0100001N1+01861+01491100881ADDAA124000791GA1031+030009079GF103991031001999999061001MA1999999100511MD1010071+9999REMSYN100AAXX  01061 40700 32960 31002 10186 20149 30051 40088 50007 83060 90545 333 30015 50481 79999 83360;
0201407000999992000050112004+39650+048130FM-12+004599999V0203601N00201090001CN0100001N1+02301+01201100691ADDAA199000091GA1021+010509099GF105991031091012501001031MA1999999100321MD1610071+9999REMSYN088AAXX  01121 40700 32660 53602 10230 20120 30032 40069 56007 83903 91145 333 82935 84070;EQDQ01  00002PRCP99
0189407000999992000050118004+39650+048130FM-12+004599999V0209999C000012200019N0100001N1+01761+01371100611ADDAA199000091GA1001+999999999GF100991001001999999001001MA1999999100231MD1310021+9999REMSYN076AAXX  01181 40700 32960 00000 10176 20137 30023 40061 53002 91745 333 55073;EQDQ01  00002PRCP99
0183407000999992000050200004+39650+048130FM-12+004599999V0201001N002012200019N0100001N1+01341+01191100681ADDAA199000091GA1001+999999999GF100991001001999999001001MA1999999100301MD1310051+9999REMSYN070AAXX  02001 40700 32960 01002 10134 20119 30030 40068 53005 92345 333;EQDQ01  00002PRCP99
0201407000999992000050206004+39650+048130FM-12+004599999V0209999C000012200019N0100001N1+02001+00741100791ADDAA124000091GA1001+999999999GF100991001001999999001001MA1999999100421MD1010031+9999REMSYN088AAXX  02061 40700 32960 00000 10200 20074 30042 40079 50003 90545 333 30010 50361 70000;EQDQ01  00002PRCP24
0183407000999992000050212004+39650+048130FM-12+004599999V0209999C000012200019N0100001N1+02701+01031100501ADDAA199000091GA1001+999999999GF100991001001999999001001MA1999999100131MD1710201+9999REMSYN070AAXX  02121 40700 32960 00000 10270 20103 30013 40050 57020 91145 333;EQDQ01  00002PRCP99
0189407000999992000050218004+39650+048130FM-12+004599999V0209999C000012200019N0100001N1+01921+01271100451ADDAA199000091GA1001+999999999GF100991001001999999001001MA1999999100081MD1010041+9999REMSYN076AAXX  02181 40700 32960 00000 10192 20127 30008 40045 50004 91745 333 55110;EQDQ01  00002PRCP99
0211407000999992000050300004+39650+048130FM-12+004599999V0209999C000010300019N0100001N1+01621+01491100331ADDAA199000091GA1061+030009019GF106991061001999999021999MA1999999099961MD1710061+9999REMSYN082AAXX  03001 40700 32960 60000 10162 20149 39996 40033 57006 86020 92345 333 86460;EQDQ01+000002SCOHCGQ02  00002PRCP99
0219407000999992000050306004+39650+048130FM-12+004599999V0209999C000010300019N0100001N1+01901+01441100491ADDAA124000091GA1061+030009039GF107991061001999999081061MA1999999100121MD1210081+9999REMSYN106AAXX  03061 40700 32960 70000 10190 20144 30012 40049 52008 86086 90545 333 30014 50531 70000 86360 87270;EQDQ01  00002PRCP24
0179407000999992000050312004+39650+048130FM-12+004599999V0209999C000012200019N0100001N1+02541+01631100191ADDAA199000091GF102991001001999999001061MA1999999099821MD1710281+9999REMSYN082AAXX  03121 40700 32960 20000 10254 20163 39982 40019 57028 80006 91145 333 8269/;EQDQ01  00002PRCP99
0230407000999992000050318004+39650+048130FM-12+004599999V0209999C00001036001CN0100001N1+01761+01631100641ADDAA106001091AY181061AY211061GA1041+012009099GF108991041091012501091999GJ103729MA1999999100261MD1110391+9999MW1171REMSYN106AAXX  03181 40700 11660 80000 10176 20163 30026 40064 51039 60011 71781 8499/ 91745 333 55062 84940 88360;
0201407000999992000050400004+39650+048130FM-12+004599999V0209999C00001036001CN0100001N1+01361+01341101241ADDAA199000091GA1031+010509079GF108991031061012501021999MA1999999100871MD1210131+9999REMSYN088AAXX  04001 40700 32660 80000 10136 20134 30087 40124 52013 8362/ 92345 333 83735 88460;EQDQ01  00002PRCP99
0234407000999992000050406004+39650+048130FM-12+004599999V0209999C00001036001CN0100001N1+01021+00901101701ADDAA106000891AY121061AY221061GA1041+007509079GF108991041061008001021999MA1999999101321MD1110291+9999MW1211REMSYN118AAXX  04061 40700 11560 80000 10102 20090 30132 40170 51029 69981 72122 8462/ 90545 333 31011 50621 70062 84725 88460;
0229407000999992000050606004+39650+048130FM-12+004599999V0209999C000019999999N0100001N1+01561+01001101031ADDAA124000091GA1021+060009089GF105991999001999999001071MA1999999100651MD1810031+9999REMSYN100AAXX  06061 40700 32960 50000 10156 20100 30065 40103 58003 80007 90545 333 30009 50321 70000 82270;EQDQ01+000002SCOTLCQ02  00002PRCP24
0169407000999992000050612004+39650+048130FM-12+004599999V0209999C000019999999N0100001N1+02121+01011100741ADDAA199000091GA1021+060009089MA1999999100061MD1710111+9999REMSYN082AAXX  06121 40700 32960 /2000 10212 20101 30006 40074 57011 80007 91145 333 82270;EQDQ01  00002PRCP99
0183407000999992000050700004+39650+048130FM-12+004599999V0209999C000012200019N0100001N1+01341+01191100761ADDAA199000091GA1001+999999999GF100991001001999999001001MA1999999100381MD1110101+9999REMSYN070AAXX  07001 40700 32960 00000 10134 20119 30038 40076 51010 92345 333;EQDQ01  00002PRCP99
0183407000999992000050712004+39650+048130FM-12+004599999V0209999C000012200019N0100001N1+02581+01271100741ADDAA199000091GA1001+999999999GF100991001001999999001001MA1999999100371MD1710141+9999REMSYN070AAXX  07121 40700 32960 00000 10258 20127 30037 40074 57014 91145 333;EQDQ01  00002PRCP99
0153407000999992000050721004+39650+048130FM-12+004599999V0209999C000012200019N0100001N1+01521+01311101001ADDGA1001+999999999GF100991001001999999001001MA1999999100631MD1010011+9999REMSYN070AAXX  07211 40700 42960 00000 10152 20131 30063 40100 50001 92045 333;
0227407000999992000050800004+39650+048130FM-12+004599999V0209999C000012200019N0100001N1+01441+01261999999ADDAA199000091GA1031+030009079GF103991031001999999061001MA1999999100591MD1510041+9999REMSYN082AAXX  08001 40700 32960 30000 10144 20126 30059 40006 55004 83060 92345 333 83360;EQDQ01+100063APOSLPQ02  00002PRCP99Q03 100063APOSLP
0219407000999992000050806004+39650+048130FM-12+004599999V0200901N003019999999N0100001N1+01841+01221101841ADDAA124000091GA1011+030009039GF108991011001999999031071MA1999999100461MD1810041+9999REMSYN106AAXX  08061 40700 32960 80903 10184 20122 30046 40184 58004 81037 90545 333 30011 50661 70000 81360 88270;EQDQ01  00002PRCP24
0199407000999992000050812004+39650+048130FM-12+004599999V0201001N005012200019N0100001N1+02061+01181100342ADDAA199000091GA1001+999999999GF100991001001999999001001MA1999999099961MD1710251+9999REMSYN070AAXX  08121 40700 32960 01005 10206 20118 39996 40034 57025 91145 333;EQDQ01+100343APOSLPQ02  00002PRCP99
0209407000999992000050818004+39650+048130FM-12+004599999V0203601N007010300019N0100001N1+01401+00881100721ADDAA199000091GA1071+030009079GF107991071001999999071001GJ104209MA1999999100341MD1110281+9999REMSYN088AAXX  08181 40700 32960 73607 10140 20088 30034 40072 51028 87070 91748 333 55070 87360;EQDQ01  00002PRCP99
0234407000999992000050906004+39650+048130FM-12+004599999V0209999C00001036001CN0100001N1+01161+00751101111ADDAA106002091AY121061AY221061GA1021+012009069GF108991021051012501021999MA1999999100721MD1110181+9999MW1211REMSYN118AAXX  09061 40700 11660 80000 10116 20075 30072 40111 51018 60021 72122 8252/ 90545 333 31010 50511 70028 82640 88459;
0179407000999992000050918004+39650+048130FM-12+004599999V0209999C000012200019N0100001N1+01461+00931999999ADDAA199000021GA1031+027009079GF103991031001999999031001GJ104209MA1999999101051ME1104309REMSYN082AAXX  09181 40700 32960 30000 10146 20093 30105 4143/ 83030 91745 333 55070 83359;
0183407000999992000051000004+39650+048130FM-12+004599999V0209999C000012200019N0100001N1+01241+01041101541ADDAA199000091GA1001+999999999GF100991001001999999001001MA1999999101161MD1410001+9999REMSYN070AAXX  10001 40700 32960 00000 10124 20104 30116 40154 54000 92350 333;EQDQ01  00002PRCP99
0182407000999992000051006004+39650+048130FM-12+004599999V0203501N002012200019N0100001N1+01561+01401101541ADDAA124000191GA1001+999999999GF100991001001999999001001MA1999999101161MD1010031+9999REMSYN088AAXX  10061 40700 32960 03502 10156 20140 30116 40154 50003 90545 333 30003 50501 70001;
0183407000999992000051012004+39650+048130FM-12+004599999V0209999C000012200019N0100001N1+02101+01281101211ADDAA199000091GA1001+999999999GF100991001001999999001001MA1999999100831MD1710181+9999REMSYN070AAXX  10121 40700 32960 00000 10210 20128 30083 40121 57018 91145 333;EQDQ01  00002PRCP99
0189407000999992000051018004+39650+048130FM-12+004599999V0209999C000012200019N0100001N1+01441+00741101331ADDAA199000091GA1001+999999999GF100991001001999999001001MA1999999100951MD1210121+9999REMSYN076AAXX  10181 40700 32960 00000 10144 20074 30095 40133 52012 91745 333 55130;EQDQ01  00002PRCP99
0183407000999992000051100004+39650+048130FM-12+004599999V0209999C000012200019N0100001N1+00901+00691101421ADDAA199000091GA1001+999999999GF100991001001999999001001MA1999999101041MD1610051+9999REMSYN070AAXX  11001 40700 32960 00000 10090 20069 30104 40142 56005 92345 333;EQDQ01  00002PRCP99
0201407000999992000051106004+39650+048130FM-12+004599999V0203401N002012200019N0100001N1+01821+00581101481ADDAA124000091GA1001+999999999GF100991001001999999001001MA1999999101101MD1010011+9999REMSYN088AAXX  11061 40700 32960 03402 10182 20058 30110 40148 50001 90545 333 30003 50451 70000;EQDQ01  00002PRCP24
0183407000999992000051112004+39650+048130FM-12+004599999V0200901N002012200019N0100001N1+02321+00651101221ADDAA199000091GA1001+999999999GF100991001001999999001001MA1999999100841MD1710151+9999REMSYN070AAXX  11121 40700 32960 00902 10232 20065 30084 40122 57015 91145 333;EQDQ01  00002PRCP99
0225407000999992000051118004+39650+048130FM-12+004599999V0209999C000012200019N0100001N1+01481+00811101251ADDAA199000091GA1021+060009089GF102991999001999999001051GJ107809MA1999999100871MD1210141+9999REMSYN088AAXX  11181 40700 32960 20000 10148 20081 30087 40125 52014 80005 91745 333 55130 82270;EQDQ01+000002SCOTLCQ02  00002PRCP99
0195407000999992000051200004+39650+048130FM-12+004599999V0200901N003010270019N0100001N1+01501+01211101241ADDAA199000091GA1061+027009079GF106991061001999999071001MA1999999100871MD1810031+9999REMSYN082AAXX  12001 40700 32960 60903 10150 20121 30087 40124 58003 86070 92345 333 86359;EQDQ01  00002PRCP99
0219407000999992000051206004+39650+048130FM-12+004599999V0209999C00001036001CN0100001N1+01681+01331101261ADDAA124000091GA1031+006009079GF107991031061008001031001MA1999999100881MD1810011+9999REMSYN106AAXX  12061 40700 32560 70000 10168 20133 30088 40126 58001 83630 90545 333 30011 51021 70000 83720 86359;EQDQ01  00002PRCP24
0183407000999992000051212004+39650+048130FM-12+004599999V0209999C000012200019N0100001N1+02361+01191100761ADDAA199000091GA1001+999999999GF100991001001999999001001MA1999999100391MD1710311+9999REMSYN070AAXX  12121 40700 32960 00000 10236 20119 30039 40076 57031 91145 333;EQDQ01  00002PRCP99
0189407000999992000051218004+39650+048130FM-12+004599999V0209999C000012200019N0100001N1+01801+01181100691ADDAA199000091GA1001+999999999GF100991001001999999001001MA1999999100311MD1310071+9999REMSYN076AAXX  12181 40700 32960 00000 10180 20118 30031 40069 53007 91745 333 55082;EQDQ01  00002PRCP99
0183407000999992000051300004+39650+048130FM-12+004599999V0209999C000012200019N0100001N1+01341+01221100731ADDAA199000091GA1001+999999999GF100991001001999999001001MA1999999100351MD1010021+9999REMSYN070AAXX  13001 40700 32960 00000 10134 20122 30035 40073 50002 92345 333;EQDQ01  00002PRCP99
0213407000999992000051306004+39650+048130FM-12+004599999V0201601N002012200019N0100001N1+02461+01011100711ADDAA124000091GA1011+060009019GF101991001001999999001011MA1999999100341MD1110071+9999REMSYN100AAXX  13061 40700 32960 11602 10246 20101 30034 40071 51007 80001 90545 333 30013 50961 70000 81070;EQDQ01  00002PRCP24
0195407000999992000051312004+39650+048130FM-12+004599999V0203301N002012200019N0100001N1+02921+00521100471ADDAA199000091GA1011+060009019GF101991001001999999001011MA1999999100101MD1710161+9999REMSYN082AAXX  13121 40700 32960 13302 10292 20052 30010 40047 57016 80001 91145 333 81070;EQDQ01  00002PRCP99
0189407000999992000051318004+39650+048130FM-12+004599999V0209999C000012200019N0100001N1+02061+01181100591ADDAA199000091GA1001+999999999GF100991001001999999001001MA1999999100221MD1210161+9999REMSYN076AAXX  13181 40700 32960 00000 10206 20118 30022 40059 52016 91745 333 55110;EQDQ01  00002PRCP99
0201407000999992000051406004+39650+048130FM-12+004599999V0201001N008012200019N0100001N1+02001+00961101191ADDAA124000091GA1001+999999999GF100991001001999999001001MA1999999100821MD1110111+9999REMSYN088AAXX  14061 40700 32960 01008 10200 20096 30082 40119 51011 90545 333 30010 50121 70000;EQDQ01  00002PRCP24
0215407000999992000051418004+39650+048130FM-12+004599999V0200901N005019999999N0100001N1+01401+00921101221ADDAA199000091GA1041+030009039GF107991041001999999071061GJ106489MA1999999100841MD1110101+9999REMSYN094AAXX  14181 40700 32960 70905 10140 20092 30084 40122 51010 84076 91745 333 55108 84360 86270;EQDQ01  00002PRCP99
0201407000999992000051500004+39650+048130FM-12+004599999V0201001N00401036001CN0100001N1+01281+00951101161ADDAA199000091GA1021+012009069GF108991021051012501021999MA1999999100781MD1810071+9999REMSYN088AAXX  15001 40700 32660 81004 10128 20095 30078 40116 58007 8252/ 92345 333 82640 88460;EQDQ01  00002PRCP99
0219407000999992000051506004+39650+048130FM-12+004599999V0209999C00001036001CN0100001N1+01621+00831101221ADDAA124000091GA1021+012009069GF107991021051012501071001MA1999999100841MD1210041+9999REMSYN106AAXX  15061 40700 32660 70000 10162 20083 30084 40122 52004 82570 90545 333 30013 51201 70000 82640 87360;EQDQ01  00002PRCP24
0195407000999992000051512004+39650+048130FM-12+004599999V0209999C000012200019N0100001N1+02101+00601101021ADDAA199000091GA1021+060009019GF102991001001999999001051MA1999999100641MD1610131+9999REMSYN082AAXX  15121 40700 32960 20000 10210 20060 30064 40102 56013 80005 91145 333 82070;EQDQ01  00002PRCP99
0230407000999992000051518004+39650+048130FM-12+004599999V0209999C00001036001CN0080001N1+01341+01131101291ADDAA106003091AY161061AY201061GA1021+012009069GF108991021051012501021001GJ102109MA1999999100911MD1110151+9999MW1211REMSYN106AAXX  15181 40700 11658 80000 10134 20113 30091 40129 51015 60031 72160 82520 91745 333 55035 82640 88459;
0182407000999992000051600004+39650+048130FM-12+004599999V0209999C00001036001CN0100001N1+01201+00851101201ADDAA199000021GA1021+012009069GF108991021051012501071001MA1999999100821MD1710061+9999REMSYN088AAXX  16001 40700 32660 80000 10120 20085 30082 40120 57006 82570 92345 333 82640 87359;
0194407000999992000051606004+39650+048130FM-12+004599999V0209999C000010300019N0100001N1+01381+01231101221ADDAA124003691GA1081+030009019GF108991081001999999021999MA1999999100841MD1110061+9999REMSYN100AAXX  16061 40700 32960 80000 10138 20123 30084 40122 51006 8802/ 90545 333 31012 50681 70036 88460;
0201407000999992000051612004+39650+048130FM-12+004599999V0209999C00001036001CN0100001N1+01821+01191101061ADDAA199000091GA1021+012009069GF107991021051012501081001MA1999999100681MD1710121+9999REMSYN088AAXX  16121 40700 32660 70000 10182 20119 30068 40106 57012 82580 91145 333 82640 87360;EQDQ01  00002PRCP99
0209407000999992000051618004+39650+048130FM-12+004599999V0209999C000010300019N0100001N1+01601+01391101101ADDAA199000091GA1061+030009079GF106991061001999999031001GJ100729MA1999999100721MD1210101+9999REMSYN088AAXX  16181 40700 32960 60000 10160 20139 30072 40110 52010 86030 91745 333 55012 86360;EQDQ01  00002PRCP99
0211407000999992000051700004+39650+048130FM-12+004599999V0209999C000010300019N0100001N1+01361+01261100931ADDAA199000091GA1071+030009019GF107991071001999999021999MA1999999100551MD1710141+9999REMSYN082AAXX  17001 40700 32960 70000 10136 20126 30055 40093 57014 87020 92345 333 87460;EQDQ01+000002SCOHCGQ02  00002PRCP99
0260407000999992000051706004+39650+048130FM-12+004599999V0203201N002010120019N0100001N1+01681+01371100931ADDAA106000791AY161061AY221061GA1061+012009059GF106991061051012501001001KA1120M+99999MA1999999100551MD1110011+9999MW1021REMSYN112AAXX  17061 40700 11660 63202 10168 20137 30055 40093 51001 69901 70262 86500 90545 333 11012 50531 79999 86640;EQDQ01 -00122ATMX  
0201407000999992000051712004+39650+048130FM-12+004599999V0200801N00201090001CN0100001N1+02181+01091100571ADDAA199000091GA1021+012009069GF107991021051012501001061MA1999999100191MD1710171+9999REMSYN088AAXX  17121 40700 32660 70802 10218 20109 30019 40057 57017 82506 91145 333 82640 86270;EQDQ01  00002PRCP99
0230407000999992000051718004+39650+048130FM-12+004599999V0209999C00001036001CN0080001N1+01801+01611100831ADDAA106000891AY161061AY221061GA1041+012009069GF108991041051012501021999GJ104989MA1999999100451MD1210221+9999MW1611REMSYN106AAXX  17181 40700 11658 80000 10180 20161 30045 40083 52022 69971 76162 8452/ 91745 333 55083 84640 88559;
0216407000999992000051800004+39650+048130FM-12+004599999V0209999C00001036001CN0070001N1+01541+01441100961ADDAA106003091AY161061AY221061GA1041+012009069GF108991041051012501021999MA1999999100581MD1310021+9999MW1621REMSYN100AAXX  18001 40700 11657 80000 10154 20144 30058 40096 53002 60031 76262 8452/ 92345 333 84640 88459;
0234407000999992000051806004+39650+048130FM-12+004599999V0201001N00601036001CN0080001N1+01461+01141100921ADDAA106001091AY161061AY221061GA1041+007509079GF108991041061008001021999MA1999999100541MD1810021+9999MW1211REMSYN118AAXX  18061 40700 11558 81006 10146 20114 30054 40092 58002 60011 72162 8462/ 90545 333 31013 50721 70059 84725 88459;
0182407000999992000051812004+39650+048130FM-12+004599999V0200901N00201036001CN0100001N1+01521+01141100671ADDAA199000021GA1031+012009039GF105991031051012501091999MA1999999100301MD1710101+9999REMSYN088AAXX  18121 40700 32660 50902 10152 20114 30030 40067 57010 8359/ 91445 333 83340 88459;
0224407000999992000051818004+39650+048130FM-12+004599999V0209999C000012200019N0100001N1+01281+01281100771ADDAA106003091AY161061AY221061GA1021+027009079GF102991021001999999031001GJ100009MA1999999100391MD1410001+9999MW1211REMSYN100AAXX  18181 40700 11960 20000 10128 20128 30039 40077 54000 60031 72162 82030 91745 333 55000 82359;
0176407000999992000051900004+39650+048130FM-12+004599999V0209999C000012200019N0100001N1+01141+01061100641ADDAA199000021GA1041+027009079GF104991041001999999031001MA1999999100261MD1810111+9999REMSYN082AAXX  19001 40700 32960 40000 10114 20106 30026 40064 58011 84030 92345 333 84359;
0200407000999992000051906004+39650+048130FM-12+004599999V0209999C000019999999N0100001N1+01421+01211100731ADDAA124003091GA1041+030009039GF107991041001999999061061MA1999999100351MD1210081+9999REMSYN106AAXX  19061 40700 32960 70000 10142 20121 30035 40073 52008 84066 90545 333 31011 50541 70030 84360 87270;
0216407000999992000051912004+39650+048130FM-12+004599999V0209999C00001036001CN0100001N1+01581+01421100631ADDAA106002091AY161061AY221061GA1041+012009069GF108991041051012501021999MA1999999100251MD1610101+9999MW1211REMSYN100AAXX  19121 40700 11660 80000 10158 20142 30025 40063 56010 60021 72162 8452/ 91145 333 84640 88460;
0196407000999992000051918004+39650+048130FM-12+004599999V0209999C00001036001CN0100001N1+01381+01131100791ADDAA199000021GA1031+012009069GF107991031051012501021001GJ100249MA1999999100411MD1510131+9999REMSYN094AAXX  19181 40700 32660 70000 10138 20113 30041 40079 55013 83520 91745 333 55004 83640 87460;
0201407000999992000052100004+39650+048130FM-12+004599999V0209999C000012200019N0100001N1+01241+01081101111ADDAA199000091GA1001+999999999GF100991001001999999001001MA1999999100731REMSYN070AAXX  21001 40700 3/960 00000 10124 20108 30073 40111 53000 92345 333;EQDQ01+000032APCTENQ02+000002APC3  Q03  00002PRCP99
0219407000999992000052106004+39650+048130FM-12+004599999V0201001N00201036001CN0100001N1+01741+01271101181ADDAA124000091GA1021+010509069GF105991021041012501071001MA1999999100801MD1010021+9999REMSYN106AAXX  21061 40700 32660 51002 10174 20127 30080 40118 50002 82470 90545 333 30010 50821 70000 82635 85360;EQDQ01  00002PRCP24
0195407000999992000052112004+39650+048130FM-12+004599999V0209999C000012200019N0100001N1+02481+01371100931ADDAA199000091GA1021+060009019GF102991001001999999001021MA1999999100551MD1710141+9999REMSYN082AAXX  21121 40700 32960 20000 10248 20137 30055 40093 57014 80002 91145 333 82070;EQDQ01  00002PRCP99
0201407000999992000052206004+39650+048130FM-12+004599999V0209999C000012200019N0100001N1+02101+01541101071ADDAA124000091GA1001+999999999GF100991001001999999001001MA1999999100701MD1010031+9999REMSYN088AAXX  22061 40700 32960 00000 10210 20154 30070 40107 50003 90545 333 30011 51151 70000;EQDQ01  00002PRCP24
0189407000999992000052218004+39650+048130FM-12+004599999V0209999C000012200019N0100001N1+02021+01581100861ADDAA199000091GA1001+999999999GF100991001001999999001001MA1999999100491MD1210091+9999REMSYN076AAXX  22181 40700 32960 00000 10202 20158 30049 40086 52009 91745 333 55105;EQDQ01  00002PRCP99
0219407000999992000052318004+39650+048130FM-12+004599999V0209999C000010600019N0100001N1+01941+01461100741ADDAA199000091GA1061+060009089GF106991999001999999001061GJ103489MA1999999100361MD1210121+9999REMSYN082AAXX  23181 40700 32960 60000 10194 20146 30036 40074 52012 80006 333 55058 86270;EQDQ01+000002SCOTLCQ02  00002PRCP99
0157407000999992000052406004+39650+048130FM-12+004599999V0209999C000019999999N0100001N1+01841+01741100881ADDAA199000091GF108991999999999999999999MA1999999100511MD1110101+9999REMSYN060AAXX  24061 40700 32960 80000 10184 20174 30051 40088 5101/;EQDQ01  00002PRCP99
0234407000999992000052506004+39650+048130FM-12+004599999V0209999C000012200019N0090001N1+02001+01501100621ADDAA106000191AY181061AY201061GA1011+012009099GF102991011031012501021001MA1999999100251MD1610051+9999MW1801REMSYN118AAXX  25061 40700 11659 20000 10200 20150 30025 40062 56005 69921 78080 81320 90545 333 31011 50821 70002 81940 82360;
0179407000999992000052600004+39650+048130FM-12+004599999V0209999C000012200019N0100001N1+01761+01301100261ADDAA199000091GA1001+999999999GF100991001001999999001001MA1999999099891MD1610021+9999REMSYN066AAXX  26001 40700 32960 00000 10176 20130 39989 40026 56002 92345;EQDQ01  00002PRCP99
0213407000999992000052606004+39650+048130FM-12+004599999V0209999C000012200019N0100001N1+02681+01281100231ADDAA124000021GA1051+060009019GF199999001001999999001011MA1999999099861MD1610031+9999REMSYN100AAXX  26061 40700 32960 20000 10268 20128 39986 40023 56003 80001 90545 333 30014 51021 70000 85070;EQDQ01+000022SCOTCV
0183407000999992000052612004+39650+048130FM-12+004599999V0200601N003012200019N0100001N1+03281+01071099831ADDAA199000091GA1001+999999999GF100991001001999999001001MA1999999099461MD1710221+9999REMSYN070AAXX  26121 40700 32960 00603 10328 20107 39946 49983 57022 91145 333;EQDQ01  00002PRCP99
0177407000999992000052618004+39650+048130FM-12+004599999V02099999999999999999N0100001N1+99999+99999999999ADDAA199000091GF108991999999999999999999MA1999999095242MD1210061+9999REMSYN064AAXX  26181 40700 32960 8//// 20120 39524 52006 91745 333 55118;EQDQ01+095243APOSP Q02  00002PRCP99
0201407000999992000052812004+39650+048130FM-12+004599999V0202001N00401036001CN0100001N1+02781+01441100891ADDAA199000091GA1021+012009069GF105991021051012501061001MA1999999100521MD1510021+9999REMSYN088AAXX  28121 40700 32660 52004 10278 20144 30052 40089 55002 82560 91145 333 82640 85360;EQDQ01  00002PRCP99
0213407000999992000053006004+39650+048130FM-12+004599999V0209999C000012200019N0100001N1+02501+01561100601ADDAA124000091GA1021+060009019GF102991001001999999001021MA1999999100231MD1810021+9999REMSYN100AAXX  30061 40700 32960 20000 10250 20156 30023 40060 58002 80002 90545 333 30013 51001 70000 82070;EQDQ01  00002PRCP24
0177407000999992000053012004+39650+048130FM-12+004599999V0209999C000012200019N0100001N1+99999+99999100331ADDAA199000091GA1001+999999999GF100991001001999999001001MA1999999099961MD1710171+9999REMSYN064AAXX  30121 40700 32960 00000 1324/ 20170 39996 40033 57017 333;EQDQ01  00002PRCP99
0189407000999992000053018004+39650+048130FM-12+004599999V0209999C000012200019N0100001N1+02081+01451100311ADDAA199000091GA1001+999999999GF100991001001999999001001MA1999999099941MD1310061+9999REMSYN076AAXX  30181 40700 32960 00000 10208 20145 39994 40031 53006 91745 333 55125;EQDQ01  00002PRCP99
0183407000999992000053100004+39650+048130FM-12+004599999V0209999C000012200019N0100001N1+01821+01491100421ADDAA199000091GA1001+999999999GF100991001001999999001001MA1999999100051MD1810121+9999REMSYN070AAXX  31001 40700 32960 00000 10182 20149 30005 40042 58012 92345 333;EQDQ01  00002PRCP99
0201407000999992000053106004+39650+048130FM-12+004599999V0209999C000012200019N0100001N1+02621+01121100451ADDAA124000091GA1001+999999999GF100991001001999999001001MA1999999100081MD1110021+9999REMSYN088AAXX  31061 40700 32960 00000 10262 20112 30008 40045 51002 90545 333 30015 51001 70000;EQDQ01  00002PRCP24
0195407000999992000053112004+39650+048130FM-12+004599999V0209999C000012200019N0100001N1+03141+01271100201ADDAA199000091GA1021+060009019GF102991001001999999001021MA1999999099831MD1710131+9999REMSYN082AAXX  31121 40700 32960 20000 10314 20127 39983 40020 57013 80002 91145 333 82070;EQDQ01  00002PRCP99
0252407000999992000053118004+39650+048130FM-12+004599999V0209999C000010270019N0100001N1+02081+01721100441ADDAA106000891AY121061AY201061GA1031+012009069GA2051+027009039GF108991031041012501031061GJ106549MA1999999100071MD1010131+9999MW1211REMSYN112AAXX  31181 40700 11660 80000 10208 20172 30007 40044 50013 69981 72120 83436 91745 333 55109 83640 85359 86270;
0176407000999992000060100004+39650+048130FM-12+004599999V0209999C000012200019N0100001N1+01801+01561100491ADDAA199000021GA1031+060009019GF103991001001999999001031MA1999999100121MD1610021+9999REMSYN082AAXX  01001 40700 32960 30000 10180 20156 30012 40049 56002 80003 92234 333 83070;
0201407000999992000060112004+39650+048130FM-12+004599999V0209999C00001036001CN0100001N1+02581+01531100841ADDAA199000091GA1021+012009069GF105991021021012501061001MA1999999100471MD1510011+9999REMSYN088AAXX  01121 40700 32660 50000 10258 20153 30047 40084 55001 82260 91145 333 82640 85360;EQDQ01  00002PRCP99
0183407000999992000060200004+39650+048130FM-12+004599999V0209999C000012200019N0100001N1+01621+01461100861ADDAA199000091GA1001+999999999GF100991001001999999001001MA1999999100491MD1610041+9999REMSYN070AAXX  02001 40700 32960 00000 10162 20146 30049 40086 56004 92345 333;EQDQ01  00002PRCP99
0209407000999992000060218004+39650+048130FM-12+004599999V0200901N002012200019N0100001N1+02241+00931100781ADDAA199000091GA1021+060009019GF102991001001999999001011GJ107509MA1999999100411MD1210171+9999REMSYN088AAXX  02181 40700 32960 20902 10224 20093 30041 40078 52017 80001 91745 333 55125 82070;EQDQ01  00002PRCP99
0183407000999992000060312004+39650+048130FM-12+004599999V0200601N004012200019N0100001N1+03301+01451100591ADDAA199000091GA1001+999999999GF100991001001999999001001MA1999999100221MD1710211+9999REMSYN070AAXX  03121 40700 32960 00604 10330 20145 30022 40059 57021 91145 333;EQDQ01  00002PRCP99
0189407000999992000060318004+39650+048130FM-12+004599999V0209999C000012200019N0100001N1+02261+01601100691ADDAA199000091GA1001+999999999GF100991001001999999001001MA1999999100321MD1210201+9999REMSYN076AAXX  03181 40700 32960 00000 10226 20160 30032 40069 52020 91745 333 55125;EQDQ01  00002PRCP99
0183407000999992000060400004+39650+048130FM-12+004599999V0209999C000012200019N0100001N1+01741+01631100711ADDAA199000091GA1001+999999999GF100991001001999999001001MA1999999100341MD1710031+9999REMSYN070AAXX  04001 40700 32960 00000 10174 20163 30034 40071 57003 92345 333;EQDQ01  00002PRCP99
0213407000999992000060406004+39650+048130FM-12+004599999V0200901N002012200019N0100001N1+02701+01531100541ADDAA124000091GA1011+030009079GF101991011001999999031001MA1999999100171MD1810071+9999REMSYN100AAXX  04061 40700 32960 10902 10270 20153 30017 40054 58007 81030 90545 333 30016 51071 70000 81360;EQDQ01  00002PRCP24
0189407000999992000060418004+39650+048130FM-12+004599999V0200801N003012200019N0100001N1+02301+01531099891ADDAA199000091GA1001+999999999GF100991001001999999001001MA1999999099521MD1310031+9999REMSYN076AAXX  04181 40700 32960 00803 10230 20153 39952 49989 53003 91745 333 55123;EQDQ01  00002PRCP99
0183407000999992000060500004+39650+048130FM-12+004599999V0209999C000012200019N0100001N1+01881+01581100031ADDAA199000091GA1001+999999999GF100991001001999999001001MA1999999099671MD1210081+9999REMSYN070AAXX  05001 40700 32960 00000 10188 20158 39967 40003 52008 92345 333;EQDQ01  00002PRCP99
0201407000999992000060506004+39650+048130FM-12+004599999V0209999C000012200019N0100001N1+02481+01751100261ADDAA124000091GA1001+999999999GF100991001001999999001001MA1999999099891MD1010011+9999REMSYN088AAXX  05061 40700 32960 00000 10248 20175 39989 40026 50001 90545 333 30015 51201 70000;EQDQ01  00002PRCP24
0183407000999992000060512004+39650+048130FM-12+004599999V0201001N002012200019N0100001N1+03441+01251100031ADDAA199000091GA1001+999999999GF100991001001999999001001MA1999999099671MD1710121+9999REMSYN070AAXX  05121 40700 32960 01002 10344 20125 39967 40003 57012 91145 333;EQDQ01  00002PRCP99
0183407000999992000060600004+39650+048130FM-12+004599999V0209999C000012200019N0100001N1+01841+01401100411ADDAA199000091GA1001+999999999GF100991001001999999001001MA1999999100041MD1210121+9999REMSYN070AAXX  06001 40700 32960 00000 10184 20140 30004 40041 52012 92345 333;EQDQ01  00002PRCP99
0201407000999992000060606004+39650+048130FM-12+004599999V0209999C000012200019N0100001N1+02721+00961100401ADDAA124000091GA1001+999999999GF100991001001999999001001MA1999999100031MD1010041+9999REMSYN088AAXX  06061 40700 32960 00000 10272 20096 30003 40040 50004 90545 333 30014 51401 70000;EQDQ01  00002PRCP24
0189407000999992000060618004+39650+048130FM-12+004599999V0209999C000012200019N0100001N1+02541+01271100361ADDAA199000091GA1001+999999999GF100991001001999999001001MA1999999100001MD1210131+9999REMSYN076AAXX  06181 40700 32960 00000 10254 20127 30000 40036 52013 91745 333 55120;EQDQ01  00002PRCP99
0183407000999992000060700004+39650+048130FM-12+004599999V0209999C000012200019N0100001N1+01761+99999100441ADDAA199000091GA1001+999999999GF100991001001999999001001MA1999999100031MD1710051+9999REMSYN070AAXX  07001 40700 32960 00000 10176 20640 30003 40044 57005 92345 333;EQDQ01  00002PRCP99
0183407000999992000060712004+39650+048130FM-12+004599999V0200701N002012200019N0100001N1+03501+00251100031ADDAA199000091GA1001+999999999GF100991001001999999001001MA1999999099671MD1710151+9999REMSYN070AAXX  07121 40700 32960 00702 10350 20025 39967 40003 57015 91145 333;EQDQ01  00002PRCP99
0189407000999992000060818004+39650+048130FM-12+004599999V0209999C000012200019N0100001N1+02561+01311100171ADDAA199000091GA1001+999999999GF100991001001999999001001MA1999999099811MD1210201+9999REMSYN076AAXX  08181 40700 32960 00000 10256 20131 39981 40017 52020 91745 333 55121;EQDQ01  00002PRCP99
0183407000999992000060900004+39650+048130FM-12+004599999V0209999C000012200019N0100001N1+01801+01311100261ADDAA199000091GA1001+999999999GF100991001001999999001001MA1999999099901MD1110081+9999REMSYN070AAXX  09001 40700 32960 00000 10180 20131 39990 40026 51008 92345 333;EQDQ01  00002PRCP99
0201407000999992000060906004+39650+048130FM-12+004599999V0203201N002012200019N0100001N1+02861+01581100381ADDAA124000091GA1001+999999999GF100991001001999999001001MA1999999100021MD1010031+9999REMSYN088AAXX  09061 40700 32960 03202 10286 20158 30002 40038 50003 90545 333 30014 51511 70000;EQDQ01  00002PRCP24
0189407000999992000060918004+39650+048130FM-12+004599999V0209999C000012200019N0100001N1+02621+01341100501ADDAA199000091GA1001+999999999GF100991001001999999001001MA1999999100141MD1210251+9999REMSYN076AAXX  09181 40700 32960 00000 10262 20134 30014 40050 52025 91745 333 55114;EQDQ01  00002PRCP99
0195407000999992000061000004+39650+048130FM-12+004599999V0209999C000012200019N0100001N1+01841+01171100741ADDAA199000091GA1031+030009079GF103991031001999999021001MA1999999100381MD1210071+9999REMSYN082AAXX  10001 40700 32960 30000 10184 20117 30038 40074 52007 83020 92345 333 83360;EQDQ01  00002PRCP99
0213407000999992000061006004+39650+048130FM-12+004599999V0209999C000010300019N0100001N1+02481+01621100931ADDAA124000091GA1071+030009079GF107991071001999999071001MA1999999100571MD1210131+9999REMSYN100AAXX  10061 40700 32960 70000 10248 20162 30057 40093 52013 87070 90545 333 30021 51211 70000 87360;EQDQ01  00002PRCP24
0201407000999992000061012004+39650+048130FM-12+004599999V0201001N00401036001CN0100001N1+02741+01571100891ADDAA199000091GA1021+012009069GF106991021041012501071001MA1999999100521MD1510041+9999REMSYN088AAXX  10121 40700 32660 61004 10274 20157 30052 40089 55004 82470 91145 333 82640 86360;EQDQ01  00002PRCP99
0201407000999992000061100004+39650+048130FM-12+004599999V0201001N00601036001CN0100001N1+01981+01441101171ADDAA199000091GA1021+012009069GF108991021051012501011999MA1999999100801MD1110011+9999REMSYN088AAXX  11001 40700 32660 81006 10198 20144 30080 40117 51001 8251/ 92345 333 82640 88460;EQDQ01  00002PRCP99
0192407000999992000061106004+39650+048130FM-12+004599999V0201001N00201036001CN0100001N1+02161+00951101441ADDAA124000091GA1021+012009069GF108991021051012501021999MD1210121+9999REMSYN094AAXX  11061 40700 32660 81002 10216 20095 30/07 40144 52012 8252/ 333 5/901 70000 82640 88460;EQDQ01  00002PRCP24
0201407000999992000061112004+39650+048130FM-12+004599999V0200301N00401036001CN0100001N1+02261+01251101271ADDAA199000091GA1021+012009069GF106991021051012501071001MA1999999100901MD1710101+9999REMSYN088AAXX  11121 40700 32660 60304 10226 20125 30090 40127 57010 82570 91145 333 82640 86359;EQDQ01  00002PRCP99
0215407000999992000061118004+39650+048130FM-12+004599999V0200901N00201036001CN0100001N1+02021+01091101321ADDAA199000091GA1021+012009069GF105991021051012501071001GJ100009MA1999999100951MD1310071+9999REMSYN094AAXX  11181 40700 32660 50902 10202 20109 30095 40132 53007 82570 91745 333 55000 82640 85359;EQDQ01  00002PRCP99
0201407000999992000061200004+39650+048130FM-12+004599999V0209999C00001036001CN0100001N1+01801+01361101271ADDAA199000091GA1021+012009069GF105991021051012501071001MA1999999100871MD1710061+9999REMSYN088AAXX  12001 40700 32660 50000 10180 20136 30087 40127 57006 82570 92345 333 82640 85359;EQDQ01  00002PRCP99
0183407000999992000061312004+39650+048130FM-12+004599999V0202801N002012200019N0100001N1+02541+00851101221ADDAA199000091GA1001+999999999GF100991001001999999001001MA1999999100851MD1710301+9999REMSYN070AAXX  13121 40700 32960 02802 10254 20085 30085 40122 57030 91145 333;EQDQ01  00002PRCP99
0183407000999992000061400004+39650+048130FM-12+004599999V0209999C000012200019N0100001N1+01581+01181100771ADDAA199000091GA1001+999999999GF100991001001999999001001MA1999999100401MD1810071+9999REMSYN070AAXX  14001 40700 32960 00000 10158 20118 30040 40077 58007 92345 333;EQDQ01  00002PRCP99
0206407000999992000061500004+39650+048130FM-12+004599999V0209999C000010300019N0100001N1+99999+99999101091ADDAA199000091GA1061+030009019GF106991999071012501001999MD1310051+9999REMSYN076AAXX  15001 40700 32660 60000 20125 30//2 40109 53005 82700 92345 333 86460;EQDQ01+000022SCOTLCQ02+000002SCOHCGQ03  00002PRCP99
0194407000999992000061506004+39650+048130FM-12+004599999V0209999C000012200019N0100001N1+02001+01371101331ADDAA124001091GA1021+030009079GF102991021001999999071001MA1999999100961MD1110091+9999REMSYN100AAXX  15061 40700 32960 20000 10200 20137 30096 40133 51009 82070 90545 333 30015 50931 70010 82360;
0195407000999992000061512004+39650+048130FM-12+004599999V0203101N002012200019N0100001N1+02681+01091101181ADDAA199000091GA1021+030009079GF102991021001999999081001MA1999999100811MD1710111+9999REMSYN082AAXX  15121 40700 32960 23102 10268 20109 30081 40118 57011 82080 91145 333 82360;EQDQ01  00002PRCP99
0189407000999992000061518004+39650+048130FM-12+004599999V0209999C000012200019N0100001N1+02041+01391101181ADDAA199000091GA1001+999999999GF100991001001999999001001MA1999999100811MD1210061+9999REMSYN076AAXX  15181 40700 32960 00000 10204 20139 30081 40118 52006 91745 333 55105;EQDQ01  00002PRCP99
0183407000999992000061600004+39650+048130FM-12+004599999V0209999C000012200019N0100001N1+01641+01321101261ADDAA199000091GA1001+999999999GF100991001001999999001001MA1999999100821MD1110021+9999REMSYN070AAXX  16001 40700 32960 00000 10164 20132 30082 40126 51002 92345 333;EQDQ01  00002PRCP99
0183407000999992000061612004+39650+048130FM-12+004599999V0209999C000012200019N0100001N1+03121+01151100821ADDAA199000091GA1001+999999999GF100991001001999999001001MA1999999100451MD1710261+9999REMSYN070AAXX  16121 40700 32960 00000 10312 20115 30045 40082 57026 91145 333;EQDQ01  00002PRCP99
0189407000999992000061618004+39650+048130FM-12+004599999V0200901N002012200019N0100001N1+02121+01511100911ADDAA199000091GA1001+999999999GF100991001001999999001001MA1999999100541MD1310121+9999REMSYN076AAXX  16181 40700 32960 00902 10212 20151 30054 40091 53012 91745 333 55132;EQDQ01  00002PRCP99
0195407000999992000061700004+39650+048130FM-12+004599999V0209999C000010060019N0100001N1+01941+01581100901ADDAA199000091GA1071+006009069GF107991071061008001001001MA1999999100531MD1110011+9999REMSYN082AAXX  17001 40700 32560 70000 10194 20158 30053 40090 51001 87600 92345 333 87720;EQDQ01  00002PRCP99
0201407000999992000061706004+39650+048130FM-12+004599999V0209999C000012200019N0100001N1+02361+01691100931ADDAA124000091GA1001+999999999GF100991001001999999001001MA1999999100561MD1410001+9999REMSYN088AAXX  17061 40700 32960 00000 10236 20169 30056 40093 54000 90545 333 30016 51201 70000;EQDQ01  00002PRCP24
0189407000999992000061718004+39650+048130FM-12+004599999V0209999C000012200019N0100001N1+02401+01681100511ADDAA199000091GA1001+999999999GF100991001001999999001001MA1999999100141MD1210081+9999REMSYN076AAXX  17181 40700 32960 00000 10240 20168 30014 40051 52008 91745 333 55123;EQDQ01  00002PRCP99
0201407000999992000061806004+39650+048130FM-12+004599999V0209999C000012200019N0100001N1+02521+01641100471ADDAA124000091GA1001+999999999GF100991001001999999001001MA1999999100101MD1010011+9999REMSYN088AAXX  18061 40700 32960 00000 10252 20164 30010 40047 50001 90545 333 30015 51241 70000;EQDQ01  00002PRCP24
0183407000999992000061912004+39650+048130FM-12+004599999V0200801N006012200019N0100001N1+03281+01361100001ADDAA199000091GA1001+999999999GF100991001001999999001001MA1999999099641MD1510111+9999REMSYN070AAXX  19121 40700 32960 00806 10328 20136 39964 40000 55011 91145 333;EQDQ01  00002PRCP99
0209407000999992000061918004+39650+048130FM-12+004599999V0201201N007012200019N0100001N1+02141+01621100331ADDAA199000091GA1021+030009079GF102991021001999999061001GJ107389MA1999999099961MD1210161+9999REMSYN088AAXX  19181 40700 32960 21207 10214 20162 39996 40033 52016 82060 91745 333 55123 82360;EQDQ01  00002PRCP99
