0172408290999992000010103004+31330+061480FM-12+0489OIZB V0203201N005012200019N0100001N1+00541-00291102021ADDGA1001+999999999GF100991001001999999001001KA1999N+00501MA1999999096211MD1310071+9999REMSYN076AAXX  01031 40829 42960 03205 10054 21029 39621 40202 53007 90250 333 20050;
0183408290999992000012412004+31330+061480FM-12+0489OIZB V0203401N007012200019N0100001N1+01581-00321101901ADDAA199000091GA1001+999999999GF100991001001999999001001MA1999999096161MD1610041+9999REMSYN070AAXX  24121 40829 32960 03407 10158 21032 39616 40190 56004 91150 333;EQDQ01  00002PRCP99
0189408290999992000012418004+31330+061480FM-12+0489OIZB V0203201N005012200019N0100001N1+00741-00291102531ADDAA199000091GA1001+999999999GF100991001001999999001001MA1999999096681MD1210281+9999REMSYN076AAXX  24181 40829 32960 03205 10074 21029 39668 40253 52028 91750 333 55082;EQDQ01  00002PRCP99
0183408290999992000012500004+31330+061480FM-12+0489OIZB V0203201N009012200019N0100001N1+00461-00401102421ADDAA199000091GA1001+999999999GF100991001001999999001001MA1999999096611MD1610031+9999REMSYN070AAXX  25001 40829 32960 03209 10046 21040 39661 40242 56003 92350 333;EQDQ01  00002PRCP99
0223408290999992000012506004+31330+061480FM-12+0489OIZB V0203101N011012200019N0070001N1+01021-00211102681ADDAA124000091AY101061AY201061GA1001+999999999GF100991001001999999001001MA1999999096801MD1110071+9999MW1071REMSYN088AAXX  25061 40829 31957 03111 10102 21021 39680 40268 51007 70700 90850 333 30004 70000;EQDQ01  00002PRCP24
0183408290999992000020200004+31330+061480FM-12+0489OIZB V0203601N004012200019N0100001N1+00421-00171101341ADDAA199000091GA1001+999999999GF100991001001999999001001MA1999999095571MD1310031+9999REMSYN070AAXX  02001 40829 32960 03604 10042 21017 39557 40134 53003 92350 333;EQDQ01  00002PRCP99
0189408290999992000020418004+31330+061480FM-12+0489OIZB V0209999C000012200019N0100001N1+00641-00181102121ADDAA199000091GA1001+999999999GF100991001001999999001001MA1999999096361MD1310181+9999REMSYN076AAXX  04181 40829 32960 00000 10064 21018 39636 40212 53018 91750 333 55098;EQDQ01  00002PRCP99
0183408290999992000020500004+31330+061480FM-12+0489OIZB V0202401N004012200019N0100001N1+00161-00541101981ADDAA199000091GA1001+999999999GF100991001001999999001001MA1999999096141MD1610101+9999REMSYN070AAXX  05001 40829 32960 02404 10016 21054 39614 40198 56010 92350 333;EQDQ01  00002PRCP99
0195408290999992000020506004+31330+061480FM-12+0489OIZB V0203101N003012200019N0100001N1+00921-00441102181ADDAA124000091GA1001+999999999GF100991001001999999001001MA1999999096321MD1210111+9999REMSYN082AAXX  05061 40829 32960 03103 10092 21044 39632 40218 52011 90550 333 30104 70000;EQDQ01  00002PRCP24
0195408290999992000020806004+31330+061480FM-12+0489OIZB V0203201N003012200019N0100001N1+01221+00351100981ADDAA124000091GA1001+999999999GF100991001001999999001001MA1999999095271MD1110131+9999REMSYN082AAXX  08061 40829 32960 03203 10122 20035 39527 40098 51013 90550 333 30003 70000;EQDQ01  00002PRCP24
0212408290999992000021206004+31330+061480FM-12+0489OIZB V0203101N007012200019N0100001N1+01161-00641102321ADDAA124000091GA1011+012009039GF104991011041999999031001MA1999999096481MD1010261+9999REMSYN099AAXX  12061 40829 32960 43107 10116 21064 39648 4023250026 81430 90550 333 30001 70000 81340 83660;EQDQ01  00002PRCP24
0189408290999992000021218004+31330+061480FM-12+0489OIZB V0202601N003012200019N0100001N1+00741-00701102181ADDAA199000091GA1001+999999999GF100991001001999999001001MA1999999096381MD1210091+9999REMSYN076AAXX  12181 40829 32960 02603 10074 21070 39638 40218 52009 91750 333 55057;EQDQ01  00002PRCP99
0179408290999992000021300004+31330+061480FM-12+0489OIZB V0209999C000012200019N0100001N1+00141-00751102191ADDAA199000091GA1001+999999999GF100991001001999999001001MA1999999096341MD1610041+9999REMSYN066AAXX  13001 40829 32960 00000 10014 21075 39634 40219 56004 92350;EQDQ01  00002PRCP99
0183408290999992000021312004+31330+061480FM-12+0489OIZB V0209999C000012200019N9999999N1+99999+99999102151ADDAA199000091GA1041+060009019GF104991999999999999999999MA1999999096321MD1610181+9999REMSYN070AAXX  13121 40829 329/0 40000 110// 39632 40215 56018 91150 333 84070;EQDQ01  00002PRCP99
0223408290999992000021412004+31330+061480FM-12+0489OIZB V0201201N00401036001CN0100001N1+02041-00621101581ADDAA199000091GA1011+012009089GA2031+030009039GF106991011011012501031081MA1999999095711MD1710281+9999REMSYN094AAXX  14121 40829 32660 61204 10204 21062 39571 40158 57028 81138 91150 333 81840 83360 85270;EQDQ01  00002PRCP99
0189408290999992000021418004+31330+061480FM-12+0489OIZB V0203401N003012200019N0100001N1+00821-00641101421ADDAA199000091GA1001+999999999GF100991001001999999001001MA1999999095621MD1110021+9999REMSYN076AAXX  14181 40829 32960 03403 10082 21064 39562 40142 51002 91750 333 55015;EQDQ01  00002PRCP99
0179408290999992000021500004+31330+061480FM-12+0489OIZB V0203201N006012200019N0100001N1+01001-00551101571ADDAA199000091GA1001+999999999GF100991001001999999001001MA1999999095891MD1210221+9999REMSYN066AAXX  15001 40829 32960 03206 10100 21055 39589 40157 52022 92350;EQDQ01  00002PRCP99
0195408290999992000021512004+31330+061480FM-12+0489OIZB V0203401N007012200019N0100001N1+01801+00141101851ADDAA199000091GA1011+012009029GF101991011011012501001001MA1999999096141MD1810111+9999REMSYN082AAXX  15121 40829 32660 13407 10180 20014 39614 40185 58011 81100 91150 333 81840;EQDQ01  00002PRCP99
0189408290999992000021518004+31330+061480FM-12+0489OIZB V0203201N005012200019N0100001N1+01001-00081102191ADDAA199000091GA1001+999999999GF100991001001999999001001MA1999999096431MD1210201+9999REMSYN076AAXX  15181 40829 32960 03205 10100 21008 39643 40219 52020 91750 333 55084;EQDQ01  00002PRCP99
0179408290999992000021600004+31330+061480FM-12+0489OIZB V0203301N005012200019N0100001N1+00521-00141102261ADDAA199000091GA1001+999999999GF100991001001999999001001MA1999999096491MD1010011+9999REMSYN066AAXX  16001 40829 32960 03305 10052 21014 39649 40226 50001 92350;EQDQ01  00002PRCP99
0195408290999992000021900004+31330+061480FM-12+0489OIZB V0200901N002012200019N0100001N1-00521-00631999999ADDAA199000091GA1001+999999999GF100991001001999999001001MA1999999083901REMSYN064AAXX  19001 40829 32960 00902 11052 21063 38390 58802 92345 333;EQDQ01+000087APCTENQ02+008027APC3  Q03  00002PRCP99
0211408290999992000021912004+31330+061480FM-12+0489OIZB V0203401N015012200019N0015001N1+01601+00281101601ADDAA199000091AY131061AY231061GA1001+999999999GF100991001001999999001001MA1999999095891MD1810121+9999MW1071REMSYN076AAXX  19121 40829 31915 03415 10160 20028 39589 40160 58012 70733 91150 333;EQDQ01  00002PRCP99
0217408290999992000021918004+31330+061480FM-12+0489OIZB V0203001N009012200019N0060001N1+01041+00321101861ADDAA199000091AY101061AY201061GA1001+999999999GF100991001001999999001001MA1999999096191MD1210181+9999MW1071REMSYN082AAXX  19181 40829 31956 03009 10104 20032 39619 40186 52018 70700 91750 333 55094;EQDQ01  00002PRCP99
0211408290999992000022000004+31330+061480FM-12+0489OIZB V0203201N008012200019N0080001N1+00621-00241101901ADDAA199000091AY101061AY201061GA1001+999999999GF100991001001999999001001MA1999999096141MD1510101+9999MW1071REMSYN076AAXX  20001 40829 31958 03208 10062 21024 39614 40190 55010 70700 92350 333;EQDQ01  00002PRCP99
0189408290999992000022018004+31330+061480FM-12+0489OIZB V0201501N004012200019N0100001N1+00841-00261101571ADDAA199000091GA1001+999999999GF100991001001999999001001MA1999999095811MD1110031+9999REMSYN076AAXX  20181 40829 32960 01504 10084 21026 39581 40157 51003 91750 333 55103;EQDQ01  00002PRCP99
0183408290999992000022100004+31330+061480FM-12+0489OIZB V0209999C000012200019N0100001N1+00201-00411101541ADDAA199000091GA1001+999999999GF100991001001999999001001MA1999999095781MD1610031+9999REMSYN070AAXX  21001 40829 32960 00000 10020 21041 39578 40154 56003 92350 333;EQDQ01  00002PRCP99
0195408290999992000022106004+31330+061480FM-12+0489OIZB V0201401N002012200019N0100001N1+01401-00631101811ADDAA124000091GA1001+999999999GF100991001001999999001001MA1999999096041MD1210161+9999REMSYN082AAXX  21061 40829 32960 01402 10140 21063 39604 40181 52016 90550 333 30102 70000;EQDQ01  00002PRCP24
0229408290999992000022206004+31330+061480FM-12+0489OIZB V0203201N009012200019N0080001N1+01401+00261102181ADDAA124000091AY101061AY201061GA1001+999999999GF100991001001999999001001MA1999999096411MD1210231+9999MW1071REMSYN094AAXX  22061 40829 31958 03209 10140 20026 39641 40218 52023 70700 90550 333 30004 50180 70000;EQDQ01  00002PRCP24
0183408290999992000022212004+31330+061480FM-12+0489OIZB V0203201N004012200019N0100001N1+01881-00071101921ADDAA199000091GA1001+999999999GF100991001001999999001001MA1999999096081MD1710221+9999REMSYN070AAXX  22121 40829 32960 03204 10188 21007 39608 40192 57022 91150 333;EQDQ01  00002PRCP99
0189408290999992000022218004+31330+061480FM-12+0489OIZB V0209999C000012200019N0100001N1+00761-00311102011ADDAA199000091GA1001+999999999GF100991001001999999001001MA1999999096231MD1210141+9999REMSYN076AAXX  22181 40829 32960 00000 10076 21031 39623 40201 52014 91750 333 55105;EQDQ01  00002PRCP99
0179408290999992000022300004+31330+061480FM-12+0489OIZB V0209999C000012200019N0100001N1+00301-00401101951ADDAA199000091GA1001+999999999GF100991001001999999001001MA1999999096171MD1610021+9999REMSYN066AAXX  23001 40829 32960 00000 10030 21040 39617 40195 56002 92350;EQDQ01  00002PRCP99
0183408290999992000022312004+31330+061480FM-12+0489OIZB V0209999C000012200019N0100001N1+02221-00761101701ADDAA199000091GA1001+999999999GF100991001001999999001001MA1999999095991MD1710211+9999REMSYN070AAXX  23121 40829 32960 00000 10222 21076 39599 40170 57021 91150 333;EQDQ01  00002PRCP99
0209408290999992000022318004+31330+061480FM-12+0489OIZB V0203601N004012200019N0100001N1+01041-00261101901ADDAA199000091GA1011+030009079GF101991011001999999031001GJ106009MA1999999096161MD1310171+9999REMSYN088AAXX  23181 40829 32960 13604 10104 21026 39616 40190 53017 81030 91750 333 55100 81360;EQDQ01  00002PRCP99
0183408290999992000022400004+31330+061480FM-12+0489OIZB V0203301N004012200019N0100001N1+00601-00081101881ADDAA199000091GA1001+999999999GF100991001001999999001001MA1999999096151MD1510041+9999REMSYN070AAXX  24001 40829 32960 03304 10060 21008 39615 40188 55004 92350 333;EQDQ01  00002PRCP99
0183408290999992000022412004+31330+061480FM-12+0489OIZB V0209999C000012200019N0100001N1+02381-00361101861ADDAA199000091GA1001+999999999GF100991001001999999001001MA1999999096151MD1810171+9999REMSYN070AAXX  24121 40829 32960 00000 10238 21036 39615 40186 58017 91150 333;EQDQ01  00002PRCP99
0189408290999992000022418004+31330+061480FM-12+0489OIZB V0209999C000012200019N0100001N1+01281+00081101981ADDAA199000091GA1001+999999999GF100991001001999999001001MA1999999096271MD1210071+9999REMSYN076AAXX  24181 40829 32960 00000 10128 20008 39627 40198 52007 91750 333 55103;EQDQ01  00002PRCP99
0183408290999992000022500004+31330+061480FM-12+0489OIZB V0209999C000012200019N0100001N1+00661-00521101911ADDAA199000091GA1001+999999999GF100991001001999999001001MA1999999096221MD1610051+9999REMSYN070AAXX  25001 40829 32960 00000 10066 21052 39622 40191 56005 92350 333;EQDQ01  00002PRCP99
0201408290999992000022506004+31330+061480FM-12+0489OIZB V0209999C000012200019N0100001N1+01521-00581102211ADDAA124000091GA1001+999999999GF100991001001999999001001MA1999999096471MD1210171+9999REMSYN088AAXX  25061 40829 32960 00000 10152 21058 39647 40221 52017 90550 333 30001 50700 70000;EQDQ01  00002PRCP24
0183408290999992000022512004+31330+061480FM-12+0489OIZB V0209999C000012200019N0100001N1+02421-00231101611ADDAA199000091GA1001+999999999GF100991001001999999001001MA1999999095931MD1710301+9999REMSYN070AAXX  25121 40829 32960 00000 10242 21023 39593 40161 57030 91150 333;EQDQ01  00002PRCP99
0183408290999992000022600004+31330+061480FM-12+0489OIZB V0209999C000012200019N0100001N1+00921-00141101051ADDAA199000091GA1001+999999999GF100991001001999999001001MA1999999095431MD1710201+9999REMSYN070AAXX  26001 40829 32960 00000 10092 21014 39543 40105 57020 92350 333;EQDQ01  00002PRCP99
0201408290999992000022606004+31330+061480FM-12+0489OIZB V0203201N007012200019N0100001N1+01741-00401101281ADDAA124000091GA1001+999999999GF100991001001999999001001MA1999999095621MD1210151+9999REMSYN088AAXX  26061 40829 32960 03207 10174 21040 39562 40128 52015 90550 333 30005 50620 70000;EQDQ01  00002PRCP24
0207408290999992000022612004+31330+061480FM-12+0489OIZB V0200901N003012200019N0080001N1+02701+00211100741ADDAA199000091AY101061AY201061GA1001+999999999GF100991001001999999001001MA1999999095181MD1710241+9999MW1051REMSYN072AAXX  26121 40829 31958 00903 10270 20021 39518 40074 57024 70500 91150;EQDQ01  00002PRCP99
0189408290999992000022618004+31330+061480FM-12+0489OIZB V0209999C000012200019N0100001N1+01501+00151100941ADDAA199000091GA1001+999999999GF100991001001999999001001MA1999999095341MD1210111+9999REMSYN076AAXX  26181 40829 32960 00000 10150 20015 39534 40094 52011 91750 333 55100;EQDQ01  00002PRCP99
0229408290999992000022706004+31330+061480FM-12+0489OIZB V0203301N017012200019N0006001N1+01581+00401101481ADDAA124000091AY131061AY201061GA1001+999999999GF100991001001999999001001MA1999999095811MD1310241+9999MW1311REMSYN094AAXX  27061 40829 31906 03317 10158 20040 39581 40148 53024 73130 90550 333 30008 51140 70000;EQDQ01  00002PRCP24
0183408290999992000022712004+31330+061480FM-12+0489OIZB V0203601N006012200019N0100001N1+02381+00521101111ADDAA199000091GA1001+999999999GF100991001001999999001001MA1999999095541MD1710201+9999REMSYN070AAXX  27121 40829 32960 03606 10238 20052 39554 40111 57020 91150 333;EQDQ01  00002PRCP99
0189408290999992000022718004+31330+061480FM-12+0489OIZB V0203201N003012200019N0100001N1+01341+00201101361ADDAA199000091GA1001+999999999GF100991001001999999001001MA1999999095691MD1310151+9999REMSYN076AAXX  27181 40829 32960 03203 10134 20020 39569 40136 53015 91750 333 55092;EQDQ01  00002PRCP99
0183408290999992000022800004+31330+061480FM-12+0489OIZB V0209999C000012200019N0100001N1+00801+00121101321ADDAA199000091GA1001+999999999GF100991001001999999001001MA1999999095591MD1610101+9999REMSYN070AAXX  28001 40829 32960 00000 10080 20012 39559 40132 56010 92350 333;EQDQ01  00002PRCP99
0213408290999992000022806004+31330+061480FM-12+0489OIZB V0203201N006012200019N0100001N1+01841+00061101381ADDAA124000091GA1011+060009019GF101991001001999999001011MA1999999095721MD1310091+9999REMSYN100AAXX  28061 40829 32960 13206 10184 20006 39572 40138 53009 80001 90550 333 30006 50790 70000 81070;EQDQ01  00002PRCP24
0195408290999992000022812004+31330+061480FM-12+0489OIZB V0203401N005012200019N0100001N1+02701+00411101161ADDAA199000091GA1011+060009019GF101991001001999999001011MA1999999095511MD1710061+9999REMSYN082AAXX  28121 40829 32960 13405 10270 20041 39551 40116 57006 80001 91150 333 81070;EQDQ01  00002PRCP99
0189408290999992000022818004+31330+061480FM-12+0489OIZB V0203401N007012200019N0100001N1+01801+00301101601ADDAA199000091GA1001+999999999GF100991001001999999001001MA1999999095991MD1210211+9999REMSYN076AAXX  28181 40829 32960 03407 10180 20030 39599 40160 52021 91750 333 55091;EQDQ01  00002PRCP99
0211408290999992000022900004+31330+061480FM-12+0489OIZB V0203301N016012200019N0010001N1+01141+00261101681ADDAA199000091AY101061AY201061GA1001+999999999GF100991001001999999001001MA1999999096081MD1110041+9999MW1071REMSYN076AAXX  29001 40829 31910 03316 10114 20026 39608 40168 51004 70700 92350 333;EQDQ01  00002PRCP99
0211408290999992000022912004+31330+061480FM-12+0489OIZB V0203001N013012200019N0010001N1+01801+00321101911ADDAA199000091AY101061AY201061GA1001+999999999GF100991001001999999001001MA1999999096211MD1710141+9999MW1071REMSYN076AAXX  29121 40829 31910 03013 10180 20032 39621 40191 57014 70700 91150 333;EQDQ01  00002PRCP99
0189408290999992000030118004+31330+061480FM-12+0489OIZB V0203201N004012200019N0100001N1+01041-00681102301ADDAA199000091GA1001+999999999GF100991001001999999001001MA1999999096281MD1210191+9999REMSYN076AAXX  01181 40829 32960 03204 10104 21068 39628 40230 52019 91750 333 55027;EQDQ01  00002PRCP99
0183408290999992000030200004+31330+061480FM-12+0489OIZB V0203301N007012200019N0100001N1+00661-00231101871ADDAA199000091GA1001+999999999GF100991001001999999001001MA1999999096121MD1610071+9999REMSYN070AAXX  02001 40829 32960 03307 10066 21023 39612 40187 56007 92350 333;EQDQ01  00002PRCP99
0213408290999992000030206004+31330+061480FM-12+0489OIZB V0203301N005012200019N0100001N1+01181-00521999999ADDAA199000091AY101061AY201061GA1001+999999999GF100991001001999999001001MA1999999096231MW1001REMSYN060AAXX  02061 40829 32960 03305 10118 21052 39623 50880 70000;EQDQ01+000007APCTENQ02+008807APC3  Q03  00002PRCP99
0183408290999992000030212004+31330+061480FM-12+0489OIZB V0201401N003012200019N0100001N1+01901-00661101131ADDAA199000091GA1001+999999999GF100991001001999999001001MA1999999095431MD1710451+9999REMSYN070AAXX  02121 40829 32960 01403 10190 21066 39543 40113 57045 91150 333;EQDQ01  00002PRCP99
0189408290999992000030218004+31330+061480FM-12+0489OIZB V0209999C000012200019N0100001N1+01001-00081100931ADDAA199000091GA1001+999999999GF100991001001999999001001MA1999999095221MD1710081+9999REMSYN076AAXX  02181 40829 32960 00000 10100 21008 39522 40093 57008 91750 333 55098;EQDQ01  00002PRCP99
0183408290999992000030300004+31330+061480FM-12+0489OIZB V0203201N004012200019N0100001N1+00741-00381100651ADDAA199000091GA1001+999999999GF100991001001999999001001MA1999999094981MD1610061+9999REMSYN070AAXX  03001 40829 32960 03204 10074 21038 39498 40065 56006 92350 333;EQDQ01  00002PRCP99
0201408290999992000030306004+31330+061480FM-12+0489OIZB V0203301N007012200019N0100001N1+01501+00121101331ADDAA124000091GA1001+999999999GF100991001001999999001001MA1999999095611MD1210371+9999REMSYN088AAXX  03061 40829 32960 03307 10150 20012 39561 40133 52037 90550 333 30006 50790 70000;EQDQ01  00002PRCP24
0211408290999992000030312004+31330+061480FM-12+0489OIZB V0203101N008012200019N0080001N1+02001+00091101241ADDAA199000091AY101061AY201061GA1001+999999999GF100991001001999999001001MA1999999095561MD1110061+9999MW1071REMSYN076AAXX  03121 40829 31958 03108 10200 20009 39556 40124 51006 70700 91150 333;EQDQ01  00002PRCP99
0229408290999992000030406004+31330+061480FM-12+0489OIZB V0203201N010012200019N0040001N1+01101-00141102381ADDAA124000091AY101061AY201061GA1001+999999999GF100991001001999999001001MA1999999096541MD1110061+9999MW1071REMSYN094AAXX  04061 40829 31940 03210 10110 21014 39654 40238 51006 70700 90550 333 30003 50970 70000;EQDQ01  00002PRCP24
0183408290999992000030500004+31330+061480FM-12+0489OIZB V0209999C000012200019N0100001N1+00301-00401101701ADDAA199000091GA1001+999999999GF100991001001999999001001MA1999999095891MD1710181+9999REMSYN070AAXX  05001 40829 32960 00000 10030 21040 39589 40170 57018 92350 333;EQDQ01  00002PRCP99
0201408290999992000030506004+31330+061480FM-12+0489OIZB V0209999C000012200019N0100001N1+01261-00291101471ADDAA124000091GA1001+999999999GF100991001001999999001001MA1999999095971MD1810041+9999REMSYN088AAXX  05061 40829 32960 00000 10126 21029 39597 40147 58004 90550 333 30104 50440 70000;EQDQ01  00002PRCP24
0183408290999992000030512004+31330+061480FM-12+0489OIZB V0200801N004012200019N0100001N1+01961-00401101301ADDAA199000091GA1001+999999999GF100991001001999999001001MA1999999095301MD1710331+9999REMSYN070AAXX  05121 40829 32960 00804 10196 21040 39530 40130 57033 91150 333;EQDQ01  00002PRCP99
0229408290999992000030606004+31330+061480FM-12+0489OIZB V0203201N018012200019N0005001N1+01261+00001101681ADDAA124000091AY101061AY201061GA1001+999999999GF100991001001999999001001MA1999999095971MD1210211+9999MW1311REMSYN094AAXX  06061 40829 31905 03218 10126 20000 39597 40168 52021 73100 90550 333 30006 50880 70000;EQDQ01  00002PRCP24
0211408290999992000030612004+31330+061480FM-12+0489OIZB V0203201N013012200019N0020001N1+01721+00421101491ADDAA199000091AY131061AY231061GA1001+999999999GF100991001001999999001001MA1999999095801MD1610101+9999MW1071REMSYN076AAXX  06121 40829 31920 03213 10172 20042 39580 40149 56010 70733 91150 333;EQDQ01  00002PRCP99
0189408290999992000030618004+31330+061480FM-12+0489OIZB V0202901N002012200019N0100001N1+01081-00441101731ADDAA199000091GA1001+999999999GF100991001001999999001001MA1999999095981MD1310181+9999REMSYN076AAXX  06181 40829 32960 02902 10108 21044 39598 40173 53018 91750 333 55094;EQDQ01  00002PRCP99
0183408290999992000030700004+31330+061480FM-12+0489OIZB V0203201N003012200019N0100001N1+00561-00321101691ADDAA199000091GA1001+999999999GF100991001001999999001001MA1999999095941MD1810011+9999REMSYN070AAXX  07001 40829 32960 03203 10056 21032 39594 40169 58001 92350 333;EQDQ01  00002PRCP99
0189408290999992000030718004+31330+061480FM-12+0489OIZB V0209999C000012200019N0100001N1+00981-00391101931ADDAA199000091GA1001+999999999GF100991001001999999001001MA1999999096171MD1310131+9999REMSYN076AAXX  07181 40829 32960 00000 10098 21039 39617 40193 53013 91750 333 55095;EQDQ01  00002PRCP99
0183408290999992000030800004+31330+061480FM-12+0489OIZB V0209999C000012200019N0100001N1+00641-00221101941ADDAA199000091GA1001+999999999GF100991001001999999001001MA1999999096191MD1010021+9999REMSYN070AAXX  08001 40829 32960 00000 10064 21022 39619 40194 50002 92350 333;EQDQ01  00002PRCP99
0183408290999992000030812004+31330+061480FM-12+0489OIZB V0201301N005012200019N0100001N1+02521-00151101511ADDAA199000091GA1001+999999999GF100991001001999999001001MA1999999095831MD1710331+9999REMSYN070AAXX  08121 40829 32960 01305 10252 21015 39583 40151 57033 91150 333;EQDQ01  00002PRCP99
0159408290999992000030818004+31330+061480FM-12+0489OIZB V0200401N002012200019N0100001N1+01401-00201999999ADDAA199000091GA1001+999999999GF100991001001999999001001REMSYN075AAXX  08181 40829 32960 00402 10140 21020 9587 40157 52012 91750 333 55102;EQDQ01  00002PRCP99
0201408290999992000030900004+31330+061480FM-12+0489OIZB V0209999C000012200019N0100001N1+01281-00261101051ADDAA199000091GA1001+999999999GF100991001001999999001001MA1999999095481REMSYN070AAXX  09001 40829 32960 00000 10128 21026 39548 40105 57819 92350 333;EQDQ01+000077APCTENQ02+008197APC3  Q03  00002PRCP99
0229408290999992000031006004+31330+061480FM-12+0489OIZB V0203301N014012200019N0020001N1+01601+00021101521ADDAA124000091AY101061AY201061GA1001+999999999GF100991001001999999001001MA1999999095911MD1210231+9999MW1071REMSYN094AAXX  10061 40829 31920 03314 10160 20002 39591 40152 52023 70700 90550 333 30011 51760 70000;EQDQ01  00002PRCP24
0183408290999992000031012004+31330+061480FM-12+0489OIZB V0200301N005012200019N0100001N1+02141+00441101251ADDAA199000091GA1001+999999999GF100991001001999999001001MA1999999095641MD1710181+9999REMSYN070AAXX  10121 40829 32960 00305 10214 20044 39564 40125 57018 91150 333;EQDQ01  00002PRCP99
0189408290999992000031018004+31330+061480FM-12+0489OIZB V0203301N005012200019N0100001N1+01041+00251101521ADDAA199000091GA1001+999999999GF100991001001999999001001MA1999999095821MD1310121+9999REMSYN076AAXX  10181 40829 32960 03305 10104 20025 39582 40152 53012 91750 333 55090;EQDQ01  00002PRCP99
0183408290999992000031100004+31330+061480FM-12+0489OIZB V0203201N004012200019N0100001N1+00521-00601101451ADDAA199000091GA1001+999999999GF100991001001999999001001MA1999999095761MD1410001+9999REMSYN070AAXX  11001 40829 32960 03204 10052 21060 39576 40145 54000 92350 333;EQDQ01  00002PRCP99
0183408290999992000031112004+31330+061480FM-12+0489OIZB V0209999C000012200019N0100001N1+02261-00091101221ADDAA199000091GA1001+999999999GF100991001001999999001001MA1999999095521MD1810181+9999REMSYN070AAXX  11121 40829 32960 00000 10226 21009 39552 40122 58018 91150 333;EQDQ01  00002PRCP99
0189408290999992000031118004+31330+061480FM-12+0489OIZB V0209999C000012200019N0100001N1+01221-00241101351ADDAA199000091GA1001+999999999GF100991001001999999001001MA1999999095641MD1210111+9999REMSYN076AAXX  11181 40829 32960 00000 10122 21024 39564 40135 52011 91750 333 55098;EQDQ01  00002PRCP99
0183408290999992000031200004+31330+061480FM-12+0489OIZB V0209999C000012200019N0100001N1+00461-00301101131ADDAA199000091GA1001+999999999GF100991001001999999001001MA1999999095451MD1610091+9999REMSYN070AAXX  12001 40829 32960 00000 10046 21030 39545 40113 56009 92350 333;EQDQ01  00002PRCP99
0201408290999992000031206004+31330+061480FM-12+0489OIZB V0203301N005012200019N0100001N1+01641-00421101401ADDAA124000091GA1001+999999999GF100991001001999999001001MA1999999095721MD1310141+9999REMSYN088AAXX  12061 40829 32960 03305 10164 21042 39572 40140 53014 90550 333 30002 50530 70000;EQDQ01  00002PRCP24
0183408290999992000031212004+31330+061480FM-12+0489OIZB V0209999C000012200019N0100001N1+02501-00021100981ADDAA199000091GA1001+999999999GF100991001001999999001001MA1999999095341MD1710231+9999REMSYN070AAXX  12121 40829 32960 00000 10250 21002 39534 40098 57023 91150 333;EQDQ01  00002PRCP99
0189408290999992000031218004+31330+061480FM-12+0489OIZB V0209999C000012200019N0100001N1+01341+00011101081ADDAA199000091GA1001+999999999GF100991001001999999001001MA1999999095421MD1310031+9999REMSYN076AAXX  12181 40829 32960 00000 10134 20001 39542 40108 53003 91750 333 55102;EQDQ01  00002PRCP99
0207408290999992000031300004+31330+061480FM-12+0489OIZB V0203301N009012200019N0080001N1+01161+00221101011ADDAA199000091AY101061AY201061GA1001+999999999GF100991001001999999001001MA1999999095421MD1110031+9999MW1071REMSYN072AAXX  13001 40829 31958 03309 10116 20022 39542 40101 51003 70700 92350;EQDQ01  00002PRCP99
0189408290999992000031318004+31330+061480FM-12+0489OIZB V0201201N003012200019N0100001N1+01281+00211100901ADDAA199000091GA1001+999999999GF100991001001999999001001MA1999999095261MD1310041+9999REMSYN076AAXX  13181 40829 32960 01203 10128 20021 39526 40090 53004 91750 333 55100;EQDQ01  00002PRCP99
0183408290999992000031400004+31330+061480FM-12+0489OIZB V0203301N004012200019N0100001N1+00801-00051100771ADDAA199000091GA1001+999999999GF100991001001999999001001MA1999999095181MD1610141+9999REMSYN070AAXX  14001 40829 32960 03304 10080 21005 39518 40077 56014 92350 333;EQDQ01  00002PRCP99
0189408290999992000031418004+31330+061480FM-12+0489OIZB V0202701N002012200019N0100001N1+02081+00561100881ADDAA199000091GA1001+999999999GF100991001001999999001001MA1999999095311MD1210181+9999REMSYN076AAXX  14181 40829 32960 02702 10208 20056 39531 40088 52018 91750 333 55092;EQDQ01  00002PRCP99
0183408290999992000031500004+31330+061480FM-12+0489OIZB V0209999C000012200019N0100001N1+01181+00301100801ADDAA199000091GA1001+999999999GF100991001001999999001001MA1999999095331MD1610011+9999REMSYN070AAXX  15001 40829 32960 00000 10118 20030 39533 40080 56001 92350 333;EQDQ01  00002PRCP99
0201408290999992000031506004+31330+061480FM-12+0489OIZB V0203301N005012200019N0100001N1+01881+00591101071ADDAA124000091GA1001+999999999GF100991001001999999001001MA1999999095521MD1110111+9999REMSYN088AAXX  15061 40829 32960 03305 10188 20059 39552 40107 51011 90550 333 30007 50880 70000;EQDQ01  00002PRCP24
0217408290999992000031518004+31330+061480FM-12+0489OIZB V0203301N011012200019N0030001N1+01581+00811101161ADDAA199000091AY101061AY201061GA1001+999999999GF100991001001999999001001MA1999999095541MD1210241+9999MW1071REMSYN082AAXX  15181 40829 31930 03311 10158 20081 39554 40116 52024 70700 91750 333 55100;EQDQ01  00002PRCP99
0207408290999992000031600004+31330+061480FM-12+0489OIZB V0203301N018012200019N0005001N1+00581-00031101551ADDAA199000091AY131061AY201061GA1001+999999999GF100991001001999999001001MA1999999095911MD1210221+9999MW1311REMSYN072AAXX  16001 40829 31905 03318 10058 21003 39591 40155 52022 73130 92350;EQDQ01  00002PRCP99
0226408290999992000031618004+31330+061480FM-12+0489OIZB V0203201N005012200019N0100001N1+00941-00191101991ADDAA199000091GA1001+999999999GF100991001001999999001001KA1120N-00411MA1999999096171MD1310101+9999REMSYN100AAXX  16181 40829 32960 03205 10094 21019 39617 40199 53010 91750 333 21041 30135 40168 53007 91750;EQDQ01  00002PRCP99
0201408290999992000031706004+31330+061480FM-12+0489OIZB V0203101N007012200019N0100001N1+01421-00021102061ADDAA124000091GA1001+999999999GF100991001001999999001001MA1999999096291MD1310121+9999REMSYN088AAXX  17061 40829 32960 03107 10142 21002 39629 40206 53012 90550 333 30001 50790 70000;EQDQ01  00002PRCP24
0183408290999992000031712004+31330+061480FM-12+0489OIZB V0203201N004012200019N0100001N1+02181-00361101561ADDAA199000091GA1001+999999999GF100991001001999999001001MA1999999095851MD1710271+9999REMSYN070AAXX  17121 40829 32960 03204 10218 21036 39585 40156 57027 91150 333;EQDQ01  00002PRCP99
0215408290999992000031818004+31330+061480FM-12+0489OIZB V0203301N003012200019N0100001N1+01501-00341101471ADDAA199000091GA1011+012009069GF104991011041012501031001GJ104149MA1999999095801MD1310071+9999REMSYN094AAXX  18181 40829 32660 43303 10150 21034 39580 40147 53007 81430 91750 333 55069 81640 83360;EQDQ01  00002PRCP99
0195408290999992000031900004+31330+061480FM-12+0489OIZB V0203601N002012200019N0100001N1+00921-00431101361ADDAA199000091GA1021+030009079GF102991021001999999031001MA1999999095711MD1810041+9999REMSYN082AAXX  19001 40829 32960 23602 10092 21043 39571 40136 58004 82030 92350 333 82360;EQDQ01  00002PRCP99
0213408290999992000031906004+31330+061480FM-12+0489OIZB V0203201N003010300019N0100001N1+01941-00631101591ADDAA124000091GA1051+030009079GF105991051001999999051001MA1999999095961MD1210171+9999REMSYN100AAXX  19061 40829 32960 53203 10194 21063 39596 40159 52017 85050 90550 333 30005 50710 70000 85360;EQDQ01  00002PRCP24
0195408290999992000031912004+31330+061480FM-12+0489OIZB V0201801N003010270019N0100001N1+02601-00451101021ADDAA199000091GA1071+027009079GF107991071001999999071001MA1999999095431MD1810171+9999REMSYN082AAXX  19121 40829 32960 71803 10260 21045 39543 40102 58017 87070 91150 333 87359;EQDQ01  00002PRCP99
0201408290999992000032006004+31330+061480FM-12+0489OIZB V0203201N003012200019N0100001N1+02201+00261101271ADDAA124000091GA1001+999999999GF100991001001999999001001MA1999999095721MD1210141+9999REMSYN088AAXX  20061 40829 32960 03203 10220 20026 39572 40127 52014 90550 333 30010 50440 70000;EQDQ01  00002PRCP24
0209408290999992000032018004+31330+061480FM-12+0489OIZB V0203301N004012200019N0100001N1+01561+00131101021ADDAA199000091GA1011+030009079GF101991011001999999031001GJ105769MA1999999095521MD1310221+9999REMSYN088AAXX  20181 40829 32960 13304 10156 20013 39552 40102 53022 81030 91750 333 55096 81360;EQDQ01  00002PRCP99
0183408290999992000032100004+31330+061480FM-12+0489OIZB V0203301N004012200019N0100001N1+01201+00011101321ADDAA199000091GA1001+999999999GF100991001001999999001001MA1999999095771MD1410001+9999REMSYN070AAXX  21001 40829 32960 03304 10120 20001 39577 40132 54000 92350 333;EQDQ01  00002PRCP99
0229408290999992000032106004+31330+061480FM-12+0489OIZB V0203201N009012200019N0080001N1+02141+00371101591ADDAA124000091AY101061AY201061GA1001+999999999GF100991001001999999001001MA1999999095971MD1110091+9999MW1071REMSYN094AAXX  21061 40829 31958 03209 10214 20037 39597 40159 51009 70700 90550 333 30009 51850 70000;EQDQ01  00002PRCP24
0189408290999992000032118004+31330+061480FM-12+0489OIZB V0203101N005012200019N0100001N1+01701+00111101491ADDAA199000091GA1001+999999999GF100991001001999999001001MA1999999095891MD1210231+9999REMSYN076AAXX  21181 40829 32960 03105 10170 20011 39589 40149 52023 91750 333 55096;EQDQ01  00002PRCP99
0201408290999992000032812004+31330+061480FM-12+0489OIZB V0203301N00801036001CN0100001N1+01261+00831101901ADDAA199000091GA1011+012009089GF105991011011012501071001MA1999999096131MD1710191+9999REMSYN088AAXX  28121 40829 32660 53308 10126 20083 39613 40190 57019 81170 91150 333 81840 85360;EQDQ01  00002PRCP99
0202408290999992000032818004+31330+061480FM-12+0489OIZB V0203301N00401036001CN0100001N1+00941+00761102081ADDAA106000191GA1021+012009079GF108991021071012501021999GJ100129MA1999999096361MD1310141+9999REMSYN100AAXX  28181 40829 12660 83304 10094 20076 39636 40208 53014 69921 8272/ 91750 333 55002 82740 88459;
0195408290999992000032912004+31330+061480FM-12+0489OIZB V0209999C000012200019N0100001N1+02081+00811101041ADDAA199000091GA1011+012009059GF101991011041012501001001MA1999999096041MD1710181+9999REMSYN082AAXX  29121 40829 32660 10000 10208 20081 39604 40104 57018 81400 91150 333 81640;EQDQ01  00002PRCP99
0205408290999992000032918004+31330+061480FM-12+0489OIZB V0209999C000012200019N0100001N1+01421+00841101922ADDAA199000091GA1001+999999999GF100991001001999999001001MA1999999096221MD1210121+9999REMSYN076AAXX  29181 40829 32960 00000 10142 20084 39622 40192 52012 91750 333 55110;EQDQ01+101923APOSLPQ02  00002PRCP99
0183408290999992000033000004+31330+061480FM-12+0489OIZB V0209999C000012200019N0100001N1+00981+00771101731ADDAA199000091GA1001+999999999GF100991001001999999001001MA1999999096041MD1610101+9999REMSYN070AAXX  30001 40829 32960 00000 10098 20077 39604 40173 56010 92350 333;EQDQ01  00002PRCP99
0201408290999992000033006004+31330+061480FM-12+0489OIZB V0203401N003012200019N0100001N1+01981+00681101991ADDAA124000091GA1001+999999999GF100991001001999999001001MA1999999096321MD1310081+9999REMSYN088AAXX  30061 40829 32960 03403 10198 20068 39632 40199 53008 90550 333 30006 51140 70000;EQDQ01  00002PRCP24
0195408290999992000040212004+31330+061480FM-12+0489OIZB V0209999C000012200019N0100001N1+03061+00431101121ADDAA199000091GA1021+012009059GF102991021041012501001001MA1999999095591MD1710261+9999REMSYN082AAXX  02121 40829 32660 20000 10306 20043 39559 40112 57026 82400 91150 333 82640;EQDQ01  00002PRCP99
0207408290999992000040300004+31330+061480FM-12+0489OIZB V0203301N014012200019N0080001N1+01601+00821101411ADDAA199000091AY101061AY201061GA1001+999999999GF100991001001999999001001MA1999999095891MD1110101+9999MW1071REMSYN072AAXX  03001 40829 31958 03314 10160 20082 39589 40141 51010 70700 92350;EQDQ01  00002PRCP99
0229408290999992000040406004+31330+061480FM-12+0489OIZB V0203201N013012200019N0030001N1+02101+00831101731ADDAA124000091AY101061AY201061GA1001+999999999GF100991001001999999001001MA1999999096161MD1010091+9999MW1071REMSYN094AAXX  04061 40829 31930 03213 10210 20083 39616 40173 50009 70700 90550 333 30012 50120 70000;EQDQ01  00002PRCP24
0195408290999992000040412004+31330+061480FM-12+0489OIZB V0203201N004012200019N0100001N1+02741+01021101251ADDAA199000091GA1021+060009019GF102991001001999999001021MA1999999095721MD1710371+9999REMSYN082AAXX  04121 40829 32960 23204 10274 20102 39572 40125 57037 80002 91150 333 82070;EQDQ01  00002PRCP99
0189408290999992000040418004+31330+061480FM-12+0489OIZB V0203201N004012200019N0100001N1+01801+00361101321ADDAA199000091GA1001+999999999GF100991001001999999001001MA1999999095771MD1310101+9999REMSYN076AAXX  04181 40829 32960 03204 10180 20036 39577 40132 53010 91750 333 55108;EQDQ01  00002PRCP99
0183408290999992000040500004+31330+061480FM-12+0489OIZB V0203201N007012200019N0100001N1+01501+00411101231ADDAA199000091GA1001+999999999GF100991001001999999001001MA1999999095701MD1810051+9999REMSYN070AAXX  05001 40829 32960 03207 10150 20041 39570 40123 58005 92350 333;EQDQ01  00002PRCP99
0201408290999992000040506004+31330+061480FM-12+0489OIZB V0203301N007012200019N0100001N1+02381+00901101391ADDAA124000091GA1001+999999999GF100991001001999999001001MA1999999095831MD1110031+9999REMSYN088AAXX  05061 40829 32960 03307 10238 20090 39583 40139 51003 90550 333 30013 52290 70000;EQDQ01  00002PRCP24
0189408290999992000040512004+31330+061480FM-12+0489OIZB V0203601N003012200019N0100001N1+03061+99999100921ADDAA199000091GA1031+060009019GF103991001001999999001021MA1999999095421MD1710251+9999REMSYN076AAXX  05121 40829 32960 33603 10306 39542 40092 57025 80002 91150 333 83070;EQDQ01  00002PRCP99
0169408290999992000040518004+31330+061480FM-12+0489OIZB V0203201N005012200019N0100001N1+02001+00741100941ADDAA199000091GF102991001001999999001021MA1999999095481MD1310141+9999REMSYN072AAXX  05181 40829 32960 23205 10200 20074 39548 40094 53014 80002 91750;EQDQ01  00002PRCP99
0183408290999992000040600004+31330+061480FM-12+0489OIZB V0203301N007012200019N0100001N1+01541+00591100791ADDAA199000091GA1001+999999999GF100991001001999999001001MA1999999095321MD1610021+9999REMSYN070AAXX  06001 40829 32960 03307 10154 20059 39532 40079 56002 92350 333;EQDQ01  00002PRCP99
0213408290999992000040606004+31330+061480FM-12+0489OIZB V0203201N00701036001CN0100001N1+02741+00631100951ADDAA199000091GA1011+012009069GF105991011041012501031001MA1999999095461MD1110041+9999REMSYN100AAXX  06061 40829 32660 53207 10274 20063 39546 40095 51004 81430 90550 333 30014 51670 81640 84360;EQDQ01  00002PRCP99
0201408290999992000040612004+31330+061480FM-12+0489OIZB V0203201N00401036001CN0100001N1+02981+00371100611ADDAA199000091GA1011+012009069GF106991011041012501021001MA1999999095121MD1710181+9999REMSYN088AAXX  06121 40829 32660 63204 10298 20037 39512 40061 57018 81420 91150 333 81640 86460;EQDQ01  00002PRCP99
0189408290999992000040618004+31330+061480FM-12+0489OIZB V0209999C000012200019N0100001N1+02001+00411100731ADDAA199000091GA1001+999999999GF100991001001999999001001MA1999999095261MD1210121+9999REMSYN076AAXX  06181 40829 32960 00000 10200 20041 39526 40073 52012 91750 333 55030;EQDQ01  00002PRCP99
0201408290999992000040706004+31330+061480FM-12+0489OIZB V0203401N004012200019N0100001N1+02601+00061101111ADDAA124000091GA1001+999999999GF100991001001999999001001MA1999999095611MD1310141+9999REMSYN088AAXX  07061 40829 32960 03404 10260 20006 39561 40111 53014 90550 333 30011 50790 70000;EQDQ01  00002PRCP24
0179408290999992000040712004+31330+061480FM-12+0489OIZB V0209999C000012200019N0100001N1+03301+00381100681ADDAA199000091GA1001+999999999GF100991001001999999001001MA1999999095231MD1710191+9999REMSYN066AAXX  07121 40829 32960 00000 10330 20038 39523 40068 57019 91150;EQDQ01  00002PRCP99
0189408290999992000040718004+31330+061480FM-12+0489OIZB V0200901N003012200019N0100001N1+02181+00291100871ADDAA199000091GA1001+999999999GF100991001001999999001001MA1999999095411MD1310181+9999REMSYN076AAXX  07181 40829 32960 00903 10218 20029 39541 40087 53018 91750 333 55110;EQDQ01  00002PRCP99
0179408290999992000040800004+31330+061480FM-12+0489OIZB V0203301N003012200019N0100001N1+01581+00291101101ADDAA199000091GA1001+999999999GF100991001001999999001001MA1999999095601MD1110141+9999REMSYN066AAXX  08001 40829 32960 03303 10158 20029 39560 40110 51014 92350;EQDQ01  00002PRCP99
0201408290999992000040806004+31330+061480FM-12+0489OIZB V0200401N003012200019N0100001N1+02881+00561101411ADDAA124000091GA1001+999999999GF100991001001999999001001MA1999999095921MD1210171+9999REMSYN088AAXX  08061 40829 32960 00403 10288 20056 39592 40141 52017 90550 333 30012 51410 70000;EQDQ01  00002PRCP24
0189408290999992000040818004+31330+061480FM-12+0489OIZB V0209999C000012200019N0100001N1+02541+00801100941ADDAA199000091GA1001+999999999GF100991001001999999001001MA1999999095531MD1110041+9999REMSYN076AAXX  08181 40829 32960 00000 10254 20080 39553 40094 51004 91750 333 55106;EQDQ01  00002PRCP99
0183408290999992000040900004+31330+061480FM-12+0489OIZB V0209999C000012200019N0100001N1+01741+00401100961ADDAA199000091GA1001+999999999GF100991001001999999001001MA1999999095551MD1110021+9999REMSYN070AAXX  09001 40829 32960 00000 10174 20040 39555 40096 51002 92350 333;EQDQ01  00002PRCP99
0229408290999992000040906004+31330+061480FM-12+0489OIZB V0200601N003010600019N0100001N1+03141+00581101151ADDAA124000091GA1051+060009089GF105991999001999999001061MA1999999095741MD1110161+9999REMSYN100AAXX  09061 40829 32960 50603 10314 20058 39574 40115 51016 80006 90550 333 30013 50790 70000 85270;EQDQ01+000002SCOTLCQ02  00002PRCP24
0211408290999992000040912004+31330+061480FM-12+0489OIZB V0209999C000010600019N0100001N1+03661+00911100801ADDAA199000091GA1061+060009089GF106991999001999999001061MA1999999095381MD1710181+9999REMSYN082AAXX  09121 40829 32960 60000 10366 20091 39538 40080 57018 80006 91150 333 86270;EQDQ01+000002SCOTLCQ02  00002PRCP99
0189408290999992000040918004+31330+061480FM-12+0489OIZB V0200601N003012200019N0100001N1+02441+00671100861ADDAA199000091GA1001+999999999GF100991001001999999001001MA1999999095411MD1110051+9999REMSYN076AAXX  09181 40829 32960 00603 10244 20067 39541 40086 51005 91750 333 55050;EQDQ01  00002PRCP99
0179408290999992000041000004+31330+061480FM-12+0489OIZB V0209999C000012200019N0100001N1+01961+00451100711ADDAA199000091GA1001+999999999GF100991001001999999001001MA1999999095311MD1410001+9999REMSYN066AAXX  10001 40829 32960 00000 10196 20045 39531 40071 54000 92350;EQDQ01  00002PRCP99
0195408290999992000041112004+31330+061480FM-12+0489OIZB V0201601N002012200019N0100001N1+04021+01221100221ADDAA199000091GA1031+060009019GF103991001001999999001021MA1999999094871MD1710241+9999REMSYN082AAXX  11121 40829 32960 31602 10402 20122 39487 40022 57024 80002 91150 333 83070;EQDQ01  00002PRCP99
0188408290999992000041118004+31330+061480FM-12+0489OIZB V0203201N005012200019N0100001N1+02641+00681100221ADDAA199000091GA1001+999999999GF100991001001999999001001MA1999999094901MD1110031+9999REMSYN075AAXX  11181 40829 32960 03205 10264 20068 39490 40022 51003 9750 333 55091;EQDQ01  00002PRCP99
0241408290999992000041206004+31330+061480FM-12+0489OIZB V0203201N013012200019N0030001N1+03001+01101100551ADDAA124000091AY101061AY201061GA1011+060009019GF101991001001999999001011MA1999999095171MD1110121+9999MW1071REMSYN106AAXX  12061 40829 31930 13213 10300 20110 39517 40055 51012 70700 80001 90550 333 30019 51450 70000 81070;EQDQ01  00002PRCP24
0189408290999992000041218004+31330+061480FM-12+0489OIZB V0203001N005012200019N0100001N1+02721+01381100551ADDAA199000091GA1001+999999999GF100991001001999999001001MA1999999095191MD1210341+9999REMSYN076AAXX  12181 40829 32960 03005 10272 20138 39519 40055 52034 91750 333 55105;EQDQ01  00002PRCP99
0229408290999992000041306004+31330+061480FM-12+0489OIZB V0203201N005012200019N0060001N1+03021+00551101101ADDAA124000091AY111061AY201061GA1001+999999999GF100991001001999999001001MA1999999095721MD1310091+9999MW1071REMSYN094AAXX  13061 40829 31956 03205 10302 20055 39572 40110 53009 70710 90550 333 30016 52020 70000;EQDQ01  00002PRCP24
0211408290999992000041312004+31330+061480FM-12+0489OIZB V0209999C000010600019N0100001N1+03361+01221100651ADDAA199000091GA1051+060009089GF105991999001999999001061MA1999999095281MD1710291+9999REMSYN082AAXX  13121 40829 32960 50000 10336 20122 39528 40065 57029 80006 91150 333 85270;EQDQ01+000002SCOTLCQ02  00002PRCP99
0225408290999992000041318004+31330+061480FM-12+0489OIZB V0203401N002010600019N0100001N1+02361+00891100871ADDAA199000091GA1061+060009089GF106991999001999999001061GJ105349MA1999999095441MD1310181+9999REMSYN088AAXX  13181 40829 32960 63402 10236 20089 39544 40087 53018 80006 91750 333 55089 86270;EQDQ01+000002SCOTLCQ02  00002PRCP99
0189408290999992000041418004+31330+061480FM-12+0489OIZB V0202401N003012200019N0100001N1+02141+00821100861ADDAA199000091GA1001+999999999GF100991001001999999001001MA1999999095421MD1210131+9999REMSYN076AAXX  14181 40829 32960 02403 10214 20082 39542 40086 52013 91750 333 55093;EQDQ01  00002PRCP99
0179408290999992000041500004+31330+061480FM-12+0489OIZB V0202701N004012200019N0100001N1+01601+00361100881ADDAA199000091GA1001+999999999GF100991001001999999001001MA1999999095421MD1610051+9999REMSYN066AAXX  15001 40829 32960 02704 10160 20036 39542 40088 56005 92350;EQDQ01  00002PRCP99
0167408290999992000041506004+31330+061480FM-12+0489OIZB V0203201N007012200019N0100001N1+03181+99999999999ADDAA199000091GF103991999999999999999999REMSYN099AAXX  15061 40829 32960 33207 10318 2007 39560 40106 51006 80001 90550 333 30014 51940 70000 83070;EQDQ01  00002PRCP99
0195408290999992000041512004+31330+061480FM-12+0489OIZB V0203201N003012200019N0100001N1+03561+01361100661ADDAA199000091GA1011+060009019GF101991001001999999001011MA1999999095211MD1710221+9999REMSYN082AAXX  15121 40829 32960 13203 10356 20136 39521 40066 57022 80001 91150 333 81070;EQDQ01  00002PRCP99
0189408290999992000041518004+31330+061480FM-12+0489OIZB V0209999C000012200019N0100001N1+02681+01241100741ADDAA199000091GA1001+999999999GF100991001001999999001001MA1999999095361MD1210181+9999REMSYN076AAXX  15181 40829 32960 00000 10268 20124 39536 40074 52018 91750 333 55095;EQDQ01  00002PRCP99
0183408290999992000041600004+31330+061480FM-12+0489OIZB V0209999C000012200019N0100001N1+01941+00991100701ADDAA199000091GA1001+999999999GF100991001001999999001001MA1999999095321MD1410001+9999REMSYN070AAXX  16001 40829 32960 00000 10194 20099 39532 40070 54000 92350 333;EQDQ01  00002PRCP99
0201408290999992000041606004+31330+061480FM-12+0489OIZB V0203301N003012200019N0100001N1+03241+01121100891ADDAA124000091GA1001+999999999GF100991001001999999001001MA1999999095531MD1310111+9999REMSYN088AAXX  16061 40829 32960 03303 10324 20112 39553 40089 53011 90550 333 30015 51140 70000;EQDQ01  00002PRCP24
0183408290999992000041612004+31330+061480FM-12+0489OIZB V0209999C000012200019N0100001N1+03861+01241100441ADDAA199000091GA1001+999999999GF100991001001999999001001MA1999999095101MD1710221+9999REMSYN070AAXX  16121 40829 32960 00000 10386 20124 39510 40044 57022 91150 333;EQDQ01  00002PRCP99
0159408290999992000041618004+31330+061480FM-12+0489OIZB V0200901N003012200019N0100001N1+02701+01111100491ADDGA1001+999999999GF100991001001999999001001MA1999999095141MD1310071+9999REMSYN076AAXX  16181 40829 /2960 00903 10270 20111 39514 40049 53007 91750 333 55105;
0179408290999992000041700004+31330+061480FM-12+0489OIZB V0203401N004012200019N0100001N1+02261+00971100471ADDAA199000091GA1001+999999999GF100991001001999999001001MA1999999095121MD1110021+9999REMSYN066AAXX  17001 40829 32960 03404 10226 20097 39512 40047 51002 92350;EQDQ01  00002PRCP99
0195408290999992000041712004+31330+061480FM-12+0489OIZB V0203501N005012200019N0100001N1+03861+02181100281ADDAA199000091GA1031+060009019GF103991001001999999001021MA1999999094961MD1710271+9999REMSYN082AAXX  17121 40829 32960 33505 10386 20218 39496 40028 57027 80002 91150 333 83070;EQDQ01  00002PRCP99
0225408290999992000041718004+31330+061480FM-12+0489OIZB V0203301N007010300019N0100001N1+02941+01381100491ADDAA199000091GA1071+030009019GF107991071001999999011999GJ105769MA1999999095181MD1210131+9999REMSYN088AAXX  17181 40829 32960 73307 10294 20138 39518 40049 52013 87010 91750 333 55096 87460;EQDQ01+000002SCOHCGQ02  00002PRCP99
0211408290999992000041800004+31330+061480FM-12+0489OIZB V0203301N008010600019N0100001N1+02621+01361100391ADDAA199000091GA1061+060009089GF106991999001999999001061MA1999999095101MD1710051+9999REMSYN082AAXX  18001 40829 32960 63308 10262 20136 39510 40039 57005 80006 92350 333 86270;EQDQ01+000002SCOTLCQ02  00002PRCP99
0241408290999992000041806004+31330+061480FM-12+0489OIZB V0203301N010010300019N0030001N1+03081+00901100751ADDAA124000091AY121061AY221061GA1061+030009079GF106991061001999999051001MA1999999095381MD1110081+9999MW1071REMSYN106AAXX  18061 40829 31930 63310 10308 20090 39538 40075 51008 70722 86050 90550 333 30025 52550 70000 86360;EQDQ01  00002PRCP24
0211408290999992000041812004+31330+061480FM-12+0489OIZB V0203401N007010600019N0100001N1+03581+01551100331ADDAA199000091GA1061+060009089GF106991999001999999001061MA1999999095001MD1810181+9999REMSYN082AAXX  18121 40829 32960 63407 10358 20155 39500 40033 58018 80006 91150 333 86270;EQDQ01+000002SCOTLCQ02  00002PRCP99
0211408290999992000041912004+31330+061480FM-12+0489OIZB V0203501N003010300019N0100001N1+03721+01781100481ADDAA199000091GA1071+030009019GF107991071001999999011999MA1999999095151MD1710231+9999REMSYN082AAXX  19121 40829 32960 73503 10372 20178 39515 40048 57023 87010 91150 333 87460;EQDQ01+000002SCOHCGQ02  00002PRCP99
0215408290999992000041918004+31330+061480FM-12+0489OIZB V0203201N004012200019N0100001N1+02741+01151100551ADDAA199000091GA1011+030009039GF104991011001999999031011GJ102349MA1999999095191MD1310091+9999REMSYN094AAXX  19181 40829 32960 43204 10274 20115 39519 40055 53009 81031 91750 333 55039 81360 83070;EQDQ01  00002PRCP99
0183408290999992000042000004+31330+061480FM-12+0489OIZB V0203301N006012200019N0100001N1+02261+01041999999ADDAA199000091GA1001+999999999GF100991001001999999001001MA1999999095121MD1810071+9999REMSYN070AAXX  20001 40829 32960 03306 10226 20104 39512 40/47 58007 92350 333;EQDQ01  00002PRCP99
0207408290999992000042006004+31330+061480FM-12+0489OIZB V0203301N009010600019N0100001N1+03261+00671100701ADDAA124000091GA1061+060009089GF106991999999999999999999MA1999999095351MD1310071+9999REMSYN094AAXX  20061 40829 32960 63309 10326 20067 39535 40070 53007 90550 333 30018 51320 70000 86270;EQDQ01  00002PRCP24
0209408290999992000042018004+31330+061480FM-12+0489OIZB V0203101N003012200019N0100001N1+02701+00941100301ADDAA199000091GA1011+030009079GF101991011001999999031001GJ104449MA1999999094981MD1410001+9999REMSYN088AAXX  20181 40829 32960 13103 10270 20094 39498 40030 54000 81030 91750 333 55074 81360;EQDQ01  00002PRCP99
0189408290999992000042118004+31330+061480FM-12+0489OIZB V0209999C000012200019N0100001N1+02701+01101100171ADDAA199000091GA1001+999999999GF100991001001999999001001MA1999999094851MD1210171+9999REMSYN076AAXX  21181 40829 32960 00000 10270 20110 39485 40017 52017 91750 333 55102;EQDQ01  00002PRCP99
0177408290999992000042200004+31330+061480FM-12+0489OIZB V0203301N003012200019N0100001N1+02241+00921100271ADDAA199000091GA1001+999999999GF100991001001999999001001MA1999999094951MD1110081+9999REMSYN064AAXX  22001 40829 32960 03303 10224 20092 39495 40027 51008 333;EQDQ01  00002PRCP99
0189408290999992000042218004+31330+061480FM-12+0489OIZB V0209999C000012200019N0100001N1+02761+00991100211ADDAA199000091GA1001+999999999GF100991001001999999001001MA1999999094891MD1310181+9999REMSYN076AAXX  22181 40829 32960 00000 10276 20099 39489 40021 53018 91750 333 55114;EQDQ01  00002PRCP99
0183408290999992000042300004+31330+061480FM-12+0489OIZB V0203401N005012200019N0100001N1+02281+00781100241ADDAA199000091GA1001+999999999GF100991001001999999001001MA1999999094921MD1110031+9999REMSYN070AAXX  23001 40829 32960 03405 10228 20078 39492 40024 51003 92350 333;EQDQ01  00002PRCP99
0162408290999992000042312004+31330+061480FM-12+0489OIZB V0209999C000012200019N0100001N1+04161+01621099921ADDAA199000091GA1001+999999999GF100991001001999999001001MD1019999+9999REMSYN064AAXX  23121 40829 32960 00000 10416 20162 3/472 49992 50/10 333;EQDQ01  00002PRCP99
0189408290999992000042318004+31330+061480FM-12+0489OIZB V0202701N004012200019N0100001N1+02841+00861100081ADDAA199000091GA1001+999999999GF100991001001999999001001MA1999999094801MD1310131+9999REMSYN076AAXX  23181 40829 32960 02704 10284 20086 39480 40008 53013 91750 333 55106;EQDQ01  00002PRCP99
0229408290999992000042406004+31330+061480FM-12+0489OIZB V0203301N010012200019N0060001N1+03301+01461100701ADDAA124000091AY101061AY201061GA1001+999999999GF100991001001999999001001MA1999999095351MD1210221+9999MW1071REMSYN094AAXX  24061 40829 31956 03310 10330 20146 39535 40070 52022 70700 90550 333 30020 51600 70000;EQDQ01  00002PRCP24
0183408290999992000042500004+31330+061480FM-12+0489OIZB V0203201N005012200019N0100001N1+02201+00841100341ADDAA199000091GA1001+999999999GF100991001001999999001001MA1999999095991MD1410001+9999REMSYN070AAXX  25001 40829 32960 03205 10220 20084 39599 40034 54000 92350 333;EQDQ01  00002PRCP99
0195408290999992000042612004+31330+061480FM-12+0489OIZB V0209999C000012200019N0100001N1+03721+01121100201ADDAA199000091GA1021+060009019GF102991001001999999001011MA1999999094881MD1710221+9999REMSYN082AAXX  26121 40829 32960 20000 10372 20112 39488 40020 57022 80001 91150 333 82070;EQDQ01  00002PRCP99
0207408290999992000042712004+31330+061480FM-12+0489OIZB V0203301N008012200019N0080001N1+03421+00811100701ADDAA199000091AY101061AY201061GA1001+999999999GF100991001001999999001001MA1999999095331MD1710211+9999MW1071REMSYN072AAXX  27121 40829 31958 03308 10342 20081 39533 40070 57021 70700 91150;EQDQ01  00002PRCP99
0189408290999992000042918004+31330+061480FM-12+0489OIZB V0203501N002012200019N0100001N1+02601+00731100641ADDAA199000091GA1001+999999999GF100991001001999999001001MA1999999095271MD1110051+9999REMSYN076AAXX  29181 40829 32960 03502 10260 20073 39527 40064 51005 91750 333 55105;EQDQ01  00002PRCP99
0183408290999992000043000004+31330+061480FM-12+0489OIZB V0200801N003012200019N0100001N1+02001+00531100571ADDAA199000091GA1001+999999999GF100991001001999999001001MA1999999095191MD1610041+9999REMSYN070AAXX  30001 40829 32960 00803 10200 20053 39519 40057 56004 92350 333;EQDQ01  00002PRCP99
0213408290999992000043006004+31330+061480FM-12+0489OIZB V0203301N004012200019N0100001N1+03301+00701100831ADDAA124000091GA1011+030009079GF101991011001999999031001MA1999999095481MD1310111+9999REMSYN100AAXX  30061 40829 32960 13304 10330 20070 39548 40083 53011 81030 90550 333 30017 51140 70000 81360;EQDQ01  00002PRCP24
0189408290999992000043018004+31330+061480FM-12+0489OIZB V0201201N002012200019N0100001N1+02841+00801100381ADDAA199000091GA1001+999999999GF100991001001999999001001MA1999999095041MD1310101+9999REMSYN076AAXX  30181 40829 32960 01202 10284 20080 39504 40038 53010 91750 333 55115;EQDQ01  00002PRCP99
0183408290999992000050100004+31330+061480FM-12+0489OIZB V0209999C000012200019N0100001N1+02141+00661100411ADDAA199000091GA1001+999999999GF100991001001999999001001MA1999999095061MD1110021+9999REMSYN070AAXX  01001 40829 32960 00000 10214 20066 39506 40041 51002 92350 333;EQDQ01  00002PRCP99
0195408290999992000050112004+31330+061480FM-12+0489OIZB V0201201N007012200019N0100001N1+04221+01471100111ADDAA199000091GA1031+012009029GF103991031011012501001021MA1999999094811MD1710311+9999REMSYN082AAXX  01121 40829 32660 31207 10422 20147 39481 40011 57031 83102 91150 333 83840;EQDQ01  00002PRCP99
0189408290999992000050118004+31330+061480FM-12+0489OIZB V0209999C000012200019N0100001N1+02901+01121100111ADDAA199000091GA1001+999999999GF100991001001999999001001MA1999999094831MD1410001+9999REMSYN076AAXX  01181 40829 32960 00000 10290 20112 39483 40011 54000 91750 333 55103;EQDQ01  00002PRCP99
0183408290999992000050200004+31330+061480FM-12+0489OIZB V0203301N007012200019N0100001N1+02681+00901100151ADDAA199000091GA1001+999999999GF100991001001999999001001MA1999999094921MD1110051+9999REMSYN070AAXX  02001 40829 32960 03307 10268 20090 39492 40015 51005 92350 333;EQDQ01  00002PRCP99
0213408290999992000050206004+31330+061480FM-12+0489OIZB V0203401N004012200019N0100001N1+03541+01421100521ADDAA124000091GA1031+060009019GF103991001001999999001011MA1999999095221MD1210161+9999REMSYN100AAXX  02061 40829 32960 33404 10354 20142 39522 40052 52016 80001 90550 333 30021 51760 70000 83070;EQDQ01  00002PRCP24
0195408290999992000050212004+31330+061480FM-12+0489OIZB V02099999999990600019N0100001N1+04101+01431100081ADDAA199000091GA1051+060009019GF105991001001999999001021MA1999999094821MD1710251+9999REMSYN082AAXX  02121 40829 32960 500/0 10410 20143 39482 40008 57025 80002 91150 333 85070;EQDQ01  00002PRCP99
0225408290999992000050218004+31330+061480FM-12+0489OIZB V0209999C000010600019N0100001N1+03301+01411100171ADDAA199000091GA1051+060009089GF105991999001999999001081GJ103609MA1999999094941MD1310121+9999REMSYN088AAXX  02181 40829 32960 50000 10330 20141 39494 40017 53012 80008 91750 333 55060 85270;EQDQ01+000002SCOTLCQ02  00002PRCP99
0207408290999992000050300004+31330+061480FM-12+0489OIZB V0203301N010012200019N0080001N1+02641+01221100141ADDAA199000091AY101061AY201061GA1001+999999999GF100991001001999999001001MA1999999094921MD1510061+9999MW1071REMSYN072AAXX  03001 40829 31/58 03310 10264 20122 39492 40014 55006 70700 92350;EQDQ01  00002PRCP99
0247408290999992000050306004+31330+061480FM-12+0489OIZB V0203401N011019999999N0020001N1+03381+00621100561ADDAA124000091AY121061AY211061GA1011+030009039GF105991011001999999031061MA1999999095231MD1110041+9999MW1071REMSYN112AAXX  03061 40829 31920 53411 10338 20062 39523 40056 51004 70721 81036 90550 333 30020 52550 70000 81360 85270;EQDQ01  00002PRCP24
0201408290999992000050312004+31330+061480FM-12+0489OIZB V0203301N007019999999N0100001N1+03821+01141100261ADDAA199000091GA1021+030009039GF105991021001999999031081MA1999999094961MD1710141+9999REMSYN088AAXX  03121 40829 32960 53307 10382 20114 39496 40026 57014 82038 91450 333 82360 84270;EQDQ01  00002PRCP99
0189408290999992000050318004+31330+061480FM-12+0489OIZB V0203101N004012200019N0100001N1+02761+00901100521ADDAA199000091GA1001+999999999GF100991001001999999001001MA1999999095251MD1210241+9999REMSYN076AAXX  03181 40829 32960 03104 10276 20090 39525 40052 52024 91750 333 55020;EQDQ01  00002PRCP99
0183408290999992000050400004+31330+061480FM-12+0489OIZB V0203101N004012200019N0100001N1+02441+01111100521ADDAA199000091GA1001+999999999GF100991001001999999001001MA1999999095191MD1610031+9999REMSYN070AAXX  04001 40829 32960 03104 10244 20111 39519 40052 56003 92350 333;EQDQ01  00002PRCP99
0210408290999992000050406004+31330+061480FM-12+0489OIZB V0203501N010012200019N0070001N1+03601+01281100791ADDAA124999999AY101061AY201061GA1001+999999999GF100991001001999999001001MA1999999095481MD1110051+9999MW1071REMSYN094AAXX  04061 40829 31957 03510 10360 20128 39548 40079 51005 70700 90550 333 30022 51850 7000/;
0229408290999992000050606004+31330+061480FM-12+0489OIZB V0203201N012012200019N0040001N1+03081+00781101141ADDAA124000091AY101061AY201061GA1001+999999999GF100991001001999999001001MA1999999095741MD1110081+9999MW1071REMSYN094AAXX  06061 40829 31940 03212 10308 20078 39574 40114 51008 70700 90550 333 30021 52640 70000;EQDQ01  00002PRCP24
0179408290999992000050612004+31330+061480FM-12+0489OIZB V0203201N006012200019N0100001N1+03801+00961100571ADDAA199000091GA1001+999999999GF100991001001999999001001MA1999999095211MD1710301+9999REMSYN066AAXX  06121 40829 32960 03206 10380 20096 39521 40057 57030 91150;EQDQ01  00002PRCP99
0189408290999992000050618004+31330+061480FM-12+0489OIZB V0202701N003012200019N0100001N1+02701+01041100621ADDAA199000091GA1001+999999999GF100991001001999999001001MA1999999095281MD1110141+9999REMSYN076AAXX  06181 40829 32960 02703 10270 20104 39528 40062 51014 91750 333 55115;EQDQ01  00002PRCP99
0177408290999992000050700004+31330+061480FM-12+0489OIZB V0202201N004012200019N0100001N1+99999+99999100521ADDAA199000091GA1001+999999999GF100991001001999999001001MA1999999095201MD1410001+9999REMSYN064AAXX  07001 40829 32960 02204 20064 39520 40052 54000 92350 333;EQDQ01  00002PRCP99
0183408290999992000050712004+31330+061480FM-12+0489OIZB V0209999C000012200019N0100001N1+04221+01331100211ADDAA199000091GA1001+999999999GF100991001001999999001001MA1999999094891MD1810271+9999REMSYN070AAXX  07121 40829 32960 00000 10422 20133 39489 40021 58027 91150 333;EQDQ01  00002PRCP99
0173408290999992000050800004+31330+061480FM-12+0489OIZB V0209999C000012200019N0100001N1+02601+00701100071ADDAA199000091GA1001+999999999GF100991001001999999001001MA1999999094811MD1710101+9999REMSYN060AAXX  08001 40829 32960 00000 10260 20070 39481 40007 5701/;EQDQ01  00002PRCP99
0229408290999992000050806004+31330+061480FM-12+0489OIZB V0203201N014012200019N0100001N1+03541+01421100371ADDAA124000091AY101061AY201061GA1001+999999999GF100991001001999999001001MA1999999095131MD1110061+9999MW1071REMSYN094AAXX  08061 40829 32960 03214 10354 20142 39513 40037 51006 70700 90550 333 30022 51410 70000;EQDQ01  00002PRCP24
0179408290999992000050812004+31330+061480FM-12+0489OIZB V0203601N002012200019N0100001N1+04401+01181099921ADDAA199000091GA1001+999999999GF100991001001999999001001MA1999999094711MD1710231+9999REMSYN066AAXX  08121 40829 32960 03602 10440 20118 39471 49992 57023 91150;EQDQ01  00002PRCP99
0189408290999992000050818004+31330+061480FM-12+0489OIZB V0203101N003012200019N0100001N1+02741+00981100121ADDAA199000091GA1001+999999999GF100991001001999999001001MA1999999094801MD1110141+9999REMSYN076AAXX  08181 40829 32960 03103 10274 20098 39480 40012 51014 91750 333 55113;EQDQ01  00002PRCP99
0179408290999992000050900004+31330+061480FM-12+0489OIZB V0203501N003012200019N0100001N1+02401+00891100061ADDAA199000091GA1001+999999999GF100991001001999999001001MA1999999094801MD1110051+9999REMSYN066AAXX  09001 40829 32960 03503 10240 20089 39480 40006 51005 92350;EQDQ01  00002PRCP99
0201408290999992000050906004+31330+061480FM-12+0489OIZB V0209999C000012200019N0100001N1+03801+01191100311ADDAA124000091GA1001+999999999GF100991001001999999001001MA1999999095031MD1110091+9999REMSYN088AAXX  09061 40829 32960 00000 10380 20119 39503 40031 51009 90550 333 30021 51320 70000;EQDQ01  00002PRCP24
0179408290999992000050912004+31330+061480FM-12+0489OIZB V0200901N004012200019N0100001N1+04561+01561099841ADDAA199000091GA1001+999999999GF100991001001999999001001MA1999999094631MD1710221+9999REMSYN066AAXX  09121 40829 32960 00904 10456 20156 39463 49984 57022 91150;EQDQ01  00002PRCP99
0189408290999992000050918004+31330+061480FM-12+0489OIZB V0209999C000012200019N0100001N1+03301+01161099811ADDAA199000091GA1001+999999999GF100991001001999999001001MA1999999094621MD1310081+9999REMSYN076AAXX  09181 40829 32960 00000 10330 20116 39462 49981 53008 91750 333 55118;EQDQ01  00002PRCP99
0183408290999992000051000004+31330+061480FM-12+0489OIZB V0203301N005012200019N0100001N1+02781+00801099811ADDAA199000091GA1001+999999999GF100991001001999999001001MA1999999094631MD1610051+9999REMSYN070AAXX  10001 40829 32960 03305 10278 20080 39463 49981 56005 92350 333;EQDQ01  00002PRCP99
0229408290999992000051006004+31330+061480FM-12+0489OIZB V0203301N013012200019N0008001N1+03241+01361100351ADDAA124000091AY101061AY201061GA1001+999999999GF100991001001999999001001MA1999999095061MD1210181+9999MW1071REMSYN094AAXX  10061 40829 31908 03313 10324 20136 39506 40035 52018 70700 90550 333 30025 51320 70000;EQDQ01  00002PRCP24
0211408290999992000051012004+31330+061480FM-12+0489OIZB V0203401N007012200019N0050001N1+03901+02161099951ADDAA199000091AY101061AY201061GA1001+999999999GF100991001001999999001001MA1999999094691MD1710201+9999MW1071REMSYN076AAXX  10121 40829 31950 03407 10390 20216 39469 49995 57020 70700 91150 333;EQDQ01  00002PRCP99
0187408290999992000051018004+31330+061480FM-12+0489OIZB V0203201N012012200019N0040001N1+02901+02011100291ADDAY101061AY201061GA1001+999999999GF100991001001999999001001MA1999999095011MD1210221+9999MW1071REMSYN082AAXX  10181 40829 41940 03212 10290 20201 39501 40029 52022 70700 91750 333 55030;
0211408290999992000051100004+31330+061480FM-12+0489OIZB V0203301N012012200019N0040001N1+02401+01161100261ADDAA199000091AY101061AY201061GA1001+999999999GF100991001001999999001001MA1999999094981MD1110041+9999MW1071REMSYN076AAXX  11001 40829 31940 03312 10240 20116 39498 40026 51004 70700 92350 333;EQDQ01  00002PRCP99
0217408290999992000051118004+31330+061480FM-12+0489OIZB V0203301N015012200019N0006001N1+02941+01331100401ADDAA199000091AY101061AY201061GA1001+999999999GF100991001001999999001001MA1999999095051MD1210301+9999MW1071REMSYN082AAXX  11181 40829 31906 03315 10294 20133 39505 40040 52030 70700 91750 333 55075;EQDQ01  00002PRCP99
0207408290999992000051200004+31330+061480FM-12+0489OIZB V0203301N017012200019N0001001N1+02401+01201100291ADDAA199000091AY131061AY231061GA1001+999999999GF100991001001999999001001MA1999999094991MD1610091+9999MW1311REMSYN072AAXX  12001 40829 31901 03317 10240 20120 39499 40029 56009 73133 92350;EQDQ01  00002PRCP99
0182408290999992000051206004+31330+061480FM-12+0489OIZB V0203301N013012200019N0040001N1+03041+99999999999ADDAA124000091AY101061AY201061GA1001+999999999GF100991001001999999001001MW1071REMSYN076AAXX  12061 40829 31940 03313 10304 20510 70700 90550 333 30021 52300 70000;EQDQ01  00002PRCP24
0207408290999992000051212004+31330+061480FM-12+0489OIZB V0203301N010012200019N0080001N1+03801+01041100041ADDAA199000091AY101061AY201061GA1001+999999999GF100991001001999999001001MA1999999094751MD1610261+9999MW1071REMSYN072AAXX  12121 40829 31958 03310 10380 20104 39475 40004 56026 70700 91150;EQDQ01  00002PRCP99
0189408290999992000051218004+31330+061480FM-12+0489OIZB V0203201N009012200019N0100001N1+02901+01071100181ADDAA199000091GA1001+999999999GF100991001001999999001001MA1999999094841MD1310191+9999REMSYN076AAXX  12181 40829 32960 03209 10290 20107 39484 40018 53019 91750 333 55085;EQDQ01  00002PRCP99
0211408290999992000051300004+31330+061480FM-12+0489OIZB V0203301N014012200019N0060001N1+02521+01031100181ADDAA199000091AY101061AY201061GA1001+999999999GF100991001001999999001001MA1999999094861MD1410001+9999MW1071REMSYN076AAXX  13001 40829 31956 03314 10252 20103 39486 40018 54000 70700 92350 333;EQDQ01  00002PRCP99
0229408290999992000051306004+31330+061480FM-12+0489OIZB V0203201N015012200019N0008001N1+03101+00751100581ADDAA124000091AY131061AY201061GA1001+999999999GF100991001001999999001001MA1999999095241MD1310151+9999MW1301REMSYN094AAXX  13061 40829 31908 03215 10310 20075 39524 40058 53015 73030 90550 333 30022 52640 70000;EQDQ01  00002PRCP24
0223408290999992000051312004+31330+061480FM-12+0489OIZB V0203301N010012200019N0060001N1+03901+01411100191ADDAA199000091AY101061AY201061GA1021+060009019GF102991001001999999001021MA1999999094911MD1710181+9999MW1071REMSYN088AAXX  13121 40829 31956 23310 10390 20141 39491 40019 57018 70700 80002 91150 333 82070;EQDQ01  00002PRCP99
0189408290999992000051318004+31330+061480FM-12+0489OIZB V0203301N008012200019N0100001N1+02821+00961100261ADDAA199000091GA1001+999999999GF100991001001999999001001MA1999999094941MD1310061+9999REMSYN076AAXX  13181 40829 32960 03308 10282 20096 39494 40026 53006 91750 333 55113;EQDQ01  00002PRCP99
0211408290999992000051400004+31330+061480FM-12+0489OIZB V0203301N011012200019N0070001N1+02521+00441100311ADDAA199000091AY101061AY201061GA1001+999999999GF100991001001999999001001MA1999999095021MD1110031+9999MW1071REMSYN076AAXX  14001 40829 31957 03311 10252 20044 39502 40031 51003 70700 92350 333;EQDQ01  00002PRCP99
0229408290999992000051406004+31330+061480FM-12+0489OIZB V0203401N012012200019N0030001N1+03321+00721100821ADDAA124000091AY101061AY201061GA1001+999999999GF100991001001999999001001MA1999999095471MD1210261+9999MW1071REMSYN094AAXX  14061 40829 31930 03412 10332 20072 39547 40082 52026 70700 90550 333 30023 53420 70000;EQDQ01  00002PRCP24
0183408290999992000051412004+31330+061480FM-12+0489OIZB V0203401N009012200019N0100001N1+03901+01601100321ADDAA199000091GA1001+999999999GF100991001001999999001001MA1999999095011MD1710211+9999REMSYN070AAXX  14121 40829 32960 03409 10390 20160 39501 40032 57021 91150 333;EQDQ01  00002PRCP99
0189408290999992000051418004+31330+061480FM-12+0489OIZB V0203201N005012200019N0100001N1+02741+00981100501ADDAA199000091GA1001+999999999GF100991001001999999001001MA1999999095181MD1310191+9999REMSYN076AAXX  14181 40829 32960 03205 10274 20098 39518 40050 53019 91750 333 55118;EQDQ01  00002PRCP99
0195408290999992000051500004+31330+061480FM-12+0489OIZB V0203301N005012200019N0100001N1+02201-00641100451ADDAA199000091GA1021+060009019GF102991001001999999001021MA1999999095091MD1610051+9999REMSYN082AAXX  15001 40829 32960 23305 10220 21064 39509 40045 56005 80002 92350 333 82070;EQDQ01  00002PRCP99
0240408290999992000051506004+31330+061480FM-12+0489OIZB V0203301N012012200019N0060001N1+03501+00021100591ADDAA124000091AY111061AY201061GA1031+060009019GF103991001001999999001021MA1999999095251MD1110011+9999MW1071REMSYN105AAXX  15061 4082931956 33312 10350 20002 39525 40059 51001 70710 80002 90550 333 30019 52820 70000 83070;EQDQ01  00002PRCP24
0206408290999992000051512004+31330+061480FM-12+0489OIZB V0203601N008019999999N0080001N1+03921+00791100231ADDAA199000091AY121061AY211061GF106991001001999999001061MA1999999094901MD1710201+9999MW1071REMSYN087AAXX  15121 40829 31958 63608 10392 20079 39490 40023 57020 70721 80006 9150 333 86270;EQDQ01  00002PRCP99
0189408290999992000051518004+31330+061480FM-12+0489OIZB V0202801N002012200019N0100001N1+02701+00451100291ADDAA199000091GA1001+999999999GF100991001001999999001001MA1999999094971MD1210141+9999REMSYN076AAXX  15181 40829 32960 02802 10270 20045 39497 40029 52014 91750 333 55098;EQDQ01  00002PRCP99
0183408290999992000051600004+31330+061480FM-12+0489OIZB V0203201N002012200019N0100001N1+02221+00241100031ADDAA199000091GA1001+999999999GF100991001001999999001001MA1999999094721MD1610071+9999REMSYN070AAXX  16001 40829 32960 03202 10222 20024 39472 40003 56007 92350 333;EQDQ01  00002PRCP99
0213408290999992000051606004+31330+061480FM-12+0489OIZB V0203501N008012200019N0100001N1+03601+00301100151ADDAA124000091GA1031+060009019GF103991001001999999001021MA1999999094821MD1110051+9999REMSYN100AAXX  16061 40829 32960 33508 10360 20030 39482 40015 51005 80002 90550 333 30017 51760 70000 83070;EQDQ01  00002PRCP24
0225408290999992000051618004+31330+061480FM-12+0489OIZB V0200801N003010300019N0100001N1+02901+00521099811ADDAA199000091GA1061+030009019GF106991061001999999021999GJ104569MA1999999094531MD1310071+9999REMSYN088AAXX  16181 40829 32960 60803 10290 20052 39453 49981 53007 86020 91750 333 55076 86460;EQDQ01+000002SCOHCGQ02  00002PRCP99
0223408290999992000051700004+31330+061480FM-12+0489OIZB V0203301N011012200019N0080001N1+02621+00921099721ADDAA199000091AY111061AY201061GA1031+030009079GF103991031001999999031001MA1999999094471MD1810061+9999MW1071REMSYN088AAXX  17001 40829 31958 33311 10262 20092 39447 49972 58006 70710 83030 92350 333 83360;EQDQ01  00002PRCP99
0203408290999992000051712004+31330+061480FM-12+0489OIZB V0203201N012012200019N0060001N1+03761+01041099701ADDAA199000091AY101061GA1001+999999999GF100991001001999999001001MA1999999094391MD1710161+9999MW1071REMSYN076AAXX  17121 40829 31956 03212 10376 20104 39439 49970 57016 7070/ 91150 333;EQDQ01  00002PRCP99
0243408290999992000051718004+31330+061480FM-12+0489OIZB V0203401N00801036001CN0080001N1+02941+00801099811ADDAA199000091AY121061AY211061GA1021+012009089GF105991021011012501031001GJ103129MA1999999094511MD1110011+9999MW1071REMSYN100AAXX  17181 40829 31658 53408 10294 20080 39451 49981 51001 70721 82130 91750 333 55052 82840 83360;EQDQ01  00002PRCP99
0223408290999992000051800004+31330+061480FM-12+0489OIZB V0203201N012012200019N0070001N1+02541+00711099791ADDAA199000091AY111061AY211061GA1011+012009059GF103991011041012501031001MA1999999094531MD1110021+9999MW1071REMSYN088AAXX  18001 40829 31657 33212 10254 20071 39453 49979 51002 70711 81430 92350 333 81640;EQDQ01  00002PRCP99
0229408290999992000051806004+31330+061480FM-12+0489OIZB V0203301N015012200019N0004001N1+03161+00841100211ADDAA124000091AY111061AY211061GA1001+999999999GF100991001001999999001001MA1999999094881MD1210171+9999MW1071REMSYN094AAXX  18061 40829 31904 03315 10316 20084 39488 40021 52017 70711 90550 333 30023 52020 70000;EQDQ01  00002PRCP24
0189408290999992000051818004+31330+061480FM-12+0489OIZB V0203201N004012200019N0100001N1+02701+00861099951ADDAA199000091GA1001+999999999GF100991001001999999001001MA1999999094651MD1310141+9999REMSYN076AAXX  18181 40829 32960 03204 10270 20086 39465 49995 53014 91750 333 55054;EQDQ01  00002PRCP99
0183408290999992000051900004+31330+061480FM-12+0489OIZB V0203201N007012200019N0100001N1+02401+00621099921ADDAA199000091GA1001+999999999GF100991001001999999001001MA1999999094631MD1410001+9999REMSYN070AAXX  19001 40829 32960 03207 10240 20062 39463 49992 54000 92350 333;EQDQ01  00002PRCP99
0229408290999992000051906004+31330+061480FM-12+0489OIZB V0203501N009012200019N0080001N1+03601+00531100221ADDAA124000091AY101061AY201061GA1001+999999999GF100991001001999999001001MA1999999094901MD1110061+9999MW1071REMSYN094AAXX  19061 40829 31958 03509 10360 20053 39490 40022 51006 70700 90550 333 30021 52550 70000;EQDQ01  00002PRCP24
0195408290999992000051912004+31330+061480FM-12+0489OIZB V0200601N002012200019N0100001N1+04221+00921099771ADDAA199000091GA1011+060009019GF101991001001999999001011MA1999999094511MD1710201+9999REMSYN082AAXX  19121 40829 32960 10602 10422 20092 39451 49977 57020 80001 91150 333 81070;EQDQ01  00002PRCP99
0189408290999992000051918004+31330+061480FM-12+0489OIZB V0209999C000012200019N0100001N1+02901+01281099891ADDAA199000091GA1001+999999999GF100991001001999999001001MA1999999094621MD1210161+9999REMSYN076AAXX  19181 40829 32960 00000 10290 20128 39462 49989 52016 91750 333 55108;EQDQ01  00002PRCP99
0183408290999992000052000004+31330+061480FM-12+0489OIZB V0203201N005012200019N0100001N1+02601+00901099601ADDAA199000091GA1001+999999999GF100991001001999999001001MA1999999094631MD1610101+9999REMSYN070AAXX  20001 40829 32960 03205 10260 20090 39463 49960 56010 92350 333;EQDQ01  00002PRCP99
0189408290999992000052006004+31330+061480FM-12+0489OIZB V0203601N004012200019N0100001N1+03641+99999100061ADDAA199000091GA1001+999999999GF100991001001999999001001MA1999999094761MD1110071+9999REMSYN076AAXX  20061 40829 32960 03604 10364 2/074 39476 40006 51007 90550 333 90019;EQDQ01  00002PRCP99
0207408290999992000052100004+31330+061480FM-12+0489OIZB V0203301N014012200019N0070001N1+03001+00841099751ADDAA199000091AY101061AY201061GA1001+999999999GF100991001001999999001001MA1999999094561MD1110181+9999MW1071REMSYN072AAXX  21001 40829 31957 03314 10300 20084 39456 49975 51018 70700 92350;EQDQ01  00002PRCP99
0211408290999992000052112004+31330+061480FM-12+0489OIZB V0203301N014012200019N0020001N1+03901+01781099831ADDAA199000091AY101061AY201061GA1001+999999999GF100991001001999999001001MA1999999094621MD1610121+9999MW1071REMSYN076AAXX  21121 40829 31920 03314 10390 20178 39462 49983 56012 70700 91150 333;EQDQ01  00002PRCP99
0217408290999992000052118004+31330+061480FM-12+0489OIZB V0203201N014012200019N0040001N1+03141+00781099971ADDAA199000091AY101061AY201061GA1001+999999999GF100991001001999999001001MA1999999094701MD1310081+9999MW1071REMSYN082AAXX  21181 40829 31940 03214 10314 20078 39470 49997 53008 70700 91750 333 55064;EQDQ01  00002PRCP99
0217408290999992000052218004+31330+061480FM-12+0489OIZB V0203201N012012200019N0070001N1+03041+01091100351ADDAA199000091AY101061AY201061GA1001+999999999GF100991001001999999001001MA1999999095031MD1210251+9999MW1071REMSYN082AAXX  22181 40829 31957 03212 10304 20109 39503 40035 52025 70700 91750 333 55046;EQDQ01  00002PRCP99
0183408290999992000052300004+31330+061480FM-12+0489OIZB V0203201N005012200019N0100001N1+03901+00681100011ADDAA199000091GA1001+999999999GF100991001001999999001001MA1999999094741MD1710201+9999REMSYN070AAXX  24121 40829 32960 03205 10390 20068 39474 40001 57020 91150 333;EQDQ01  00002PRCP99
0189408290999992000052318004+31330+061480FM-12+0489OIZB V0203101N005012200019N0100001N1+02941+99999100381ADDAA199000091GA1001+999999999GF100991001001999999001001MA1999999095031MD1210151+9999REMSYN076AAXX  23181 40829 32960 03105 10294 20/49 39503 40038 52015 91750 333 55045;EQDQ01  00002PRCP99
0211408290999992000052400004+31330+061480FM-12+0489OIZB V0203301N012012200019N0070001N1+99999+99999100241ADDAA199000091AY101061AY201061GA1001+999999999GF100991001001999999001001MA1999999094991MD1110041+9999MW1071REMSYN076AAXX  24001 40829 31957 03312 1058/ 20048 39499 40024 51004 70700 92350 333;EQDQ01  00002PRCP99
0217408290999992000052406004+31330+061480FM-12+0489OIZB V0203301N014012200019N0030001N1+03261+00581100461ADDAA124000091AY101061AY201061GA1001+999999999GF100991001001999999001001MA1999999095151MD1110041+9999MW1071REMSYN082AAXX  24061 40829 31930 03314 10326 20058 39515 40046 51004 70700 333 52820 70000;EQDQ01  00002PRCP24
0183408290999992000052418004+31330+061480FM-12+0489OIZB V0203301N006012200019N0100001N1+03101+00141999999ADDAA199000091GA1001+999999999GF100991001001999999001001MA1999999094881MD1210171+9999REMSYN070AAXX  24181 40829 32960 03306 10310 20014 39488 52017 91750 333 55107;EQDQ01  00002PRCP99
0211408290999992000052500004+31330+061480FM-12+0489OIZB V0203301N002012200019N0100001N1+02681+00381100201ADDAA199000091GA1001+999999999GF100991001001999999001001MA1999999999999MD1110021+9999REMSYN066AAXX  25001 40829 32960 03302 10268 20038 39991 40020 51002 92350;EQDQ01+099913APOSP Q02  00002PRCP99Q03 099913APOSP 
0203408290999992000052506004+31330+061480FM-12+0489OIZB V0200301N031029999999N0015001N1+03401+00991100411ADDAA124000091MA1999999095132MD1110091+9999MW1071REMSYN094AAXX  25061 40829 31915 /0331 10340 20099 39513 40041 51009 707/0 90550 333 30023 52640 70000;EQDQ01+003103WOSPD Q02+095133APOSP Q03  00002PRCP24
0207408290999992000052512004+31330+061480FM-12+0489OIZB V0203301N010012200019N0070001N1+04021+01641100181ADDAA199000091AY101061AY201061GA1001+999999999GF100991001001999999001001MA1999999094831MD1610161+9999MW1071REMSYN072AAXX  25121 40829 31957 03310 10402 20164 39483 40018 56016 70700 91150;EQDQ01  00002PRCP99
0229408290999992000052606004+31330+061480FM-12+0489OIZB V0203301N012012200019N9999999N1+03661+00891100211ADDAA124000091AY101061AY201061GA1001+999999999GF100991001001999999001001MA1999999094941MD1110071+9999MW1071REMSYN094AAXX  26061 40829 3190/ 03312 10366 20089 39494 40021 51007 70700 90550 333 30025 51980 70000;EQDQ01  00002PRCP24
0183408290999992000052612004+31330+061480FM-12+0489OIZB V0203101N006012200019N0100001N1+04181+01571099831ADDAA199000091GA1001+999999999GF100991001001999999001001MA1999999094591MD1710191+9999REMSYN070AAXX  26121 40829 32960 03106 10418 20157 39459 49983 57019 91150 333;EQDQ01  00002PRCP99
0126408290999992000052618004+31330+061480FM-12+0489OIZB V0203001N004012200019N0100001N1+02901+01011999999ADDAA199000091GA1001+999999999GF100991001001999999001001REMSYN042AAXX  26181 40829 32960 03004 10290 20101;EQDQ01  00002PRCP99
0162408290999992000052700004+31330+061480FM-12+0489OIZB V0203201N005012200019N0100001N1+02501+00671099761ADDAA199000091GA1001+999999999GF100991001001999999001001MD1510051+9999REMSYN064AAXX  27001 40829 32960 03205 10250 20067 49976 55005 92350 333;EQDQ01  00002PRCP99
0179408290999992000052812004+31330+061480FM-12+0489OIZB V0202801N003012200019N0100001N1+04581+01061099391ADDAA199000091GA1001+999999999GF100991001001999999001001MA1999999094201MD1710251+9999REMSYN066AAXX  28121 40829 32960 02803 10458 20106 39420 49939 57025 91150;EQDQ01  00002PRCP99
0189408290999992000052818004+31330+061480FM-12+0489OIZB V0203301N004012200019N0100001N1+03181+00671099571ADDAA199000091GA1001+999999999GF100991001001999999001001MA1999999094361MD1210201+9999REMSYN076AAXX  28181 40829 32960 03304 10318 20067 39436 49957 52020 91750 333 55119;EQDQ01  00002PRCP99
0207408290999992000052900004+31330+061480FM-12+0489OIZB V0203201N019012200019N0015001N1+02981+00821099691ADDAA199000091AY101061AY201061GA1001+999999999GF100991001001999999001001MA1999999094511MD1110071+9999MW1071REMSYN072AAXX  29001 40829 31915 03219 10298 20082 39451 49969 51007 70700 92350;EQDQ01  00002PRCP99
0189408290999992000052918004+31330+061480FM-12+0489OIZB V0203301N007012200019N0100001N1+03221+00641099691ADDAA199000091GA1001+999999999GF100991001001999999001001MA1999999094481MD1310051+9999REMSYN076AAXX  29181 40829 32960 03307 10322 20064 39448 49969 53005 91750 333 55097;EQDQ01  00002PRCP99
0195408290999992000053000004+31330+061480FM-12+0489OIZB V0203301N011012200019N0100001N1+02901+00781100692ADDAA199000091GA1001+999999999GF100991001001999999001001MA1999999094501MD1410001+9999REMSYN066AAXX  30001 40829 32960 03311 10290 20078 39450 40069 54000 92350;EQDQ01+100693APOSLPQ02  00002PRCP99
0229408290999992000053006004+31330+061480FM-12+0489OIZB V0203301N013012200019N0020001N1+03601+00711099921ADDAA124000091AY101061AY201061GA1001+999999999GF100991001001999999001001MA1999999094741MD1210141+9999MW1071REMSYN094AAXX  30061 40829 31920 03313 10360 20071 39474 49992 52014 70700 90550 333 30026 52550 70000;EQDQ01  00002PRCP24
0179408290999992000053012004+31330+061480FM-12+0489OIZB V0203401N005012200019N0100001N1+04261+00461099571ADDAA199000091GA1001+999999999GF100991001001999999001001MA1999999094381MD1710271+9999REMSYN066AAXX  30121 40829 32960 03405 10426 20046 39438 49957 57027 91150;EQDQ01  00002PRCP99
0217408290999992000053018004+31330+061480FM-12+0489OIZB V0203201N010012200019N0080001N1+03341+01071099701ADDAA199000091AY101061AY201061GA1001+999999999GF100991001001999999001001MA1999999094501MD1210211+9999MW1071REMSYN082AAXX  30181 40829 31958 03210 10334 20107 39450 49970 52021 70700 91750 333 55098;EQDQ01  00002PRCP99
0155408290999992000053100004+31330+061480FM-12+0489OIZB V0203201N003012200019N9999999N1+02801+00841099891ADDGA1001+999999999GF100991001001999999001001MA1999999094601MD1110051+9999REMSYN072AAXX  31001 40829 1/58/ 03203 10280 20084 39460 49989 51005 70700 92350;
0229408290999992000053106004+31330+061480FM-12+0489OIZB V0203501N012012200019N0030001N1+03701+01101100111ADDAA124000091AY111061AY201061GA1001+999999999GF100991001001999999001001MA1999999094861MD1110071+9999MW1071REMSYN094AAXX  31061 40829 31/30 03512 10370 20110 39486 40011 51007 70710 90550 333 30026 53170 70000;EQDQ01  00002PRCP24
0183408290999992000053112004+31330+061480FM-12+0489OIZB V0209999C000012200019N0100001N1+04281+01651099701ADDAA199000091GA1001+999999999GF100991001001999999001001MA1999999094481MD1810191+9999REMSYN070AAXX  31121 40829 32960 00000 10428 20165 39448 49970 58019 91150 333;EQDQ01  00002PRCP99
0189408290999992000053118004+31330+061480FM-12+0489OIZB V0202901N004012200019N0100001N1+03001+01001099781ADDAA199000091GA1001+999999999GF100991001001999999001001MA1999999094591MD1210171+9999REMSYN076AAXX  31181 40829 32960 02904 10300 20100 39459 49978 52017 91750 333 55104;EQDQ01  00002PRCP99
0179408290999992000060100004+31330+061480FM-12+0489OIZB V0203401N008012200019N0100001N1+02821+00791099681ADDAA199000091GA1001+999999999GF100991001001999999001001MA1999999094451MD1110011+9999REMSYN066AAXX  01001 40829 32960 03408 10282 20079 39445 49968 51001 92350;EQDQ01  00002PRCP99
0163408290999992000060106004+31330+061480FM-12+0489OIZB V02099999999999999999N0040001N1+03761+01201099811ADDAA199000091AY101061AY201061MA1999999094591MD1110031+9999MW1071REMSYN070AAXX  01061 40829 31940 //8/1 10376 20120 39459 49981 51003 70700 333;EQDQ01  00002PRCP99
0217408290999992000060118004+31330+061480FM-12+0489OIZB V0203201N010012200019N0040001N1+03561+00981099461ADDAA199000091AY101061AY201061GA1001+999999999GF100991001001999999001001MA1999999094281MD1310171+9999MW1071REMSYN082AAXX  01181 40829 31940 03210 10356 20098 39428 49946 53017 70700 91750 333 55117;EQDQ01  00002PRCP99
0211408290999992000060200004+31330+061480FM-12+0489OIZB V0203301N010012200019N0015001N1+02881+01061099731ADDAA199000091AY101061AY201061GA1001+999999999GF100991001001999999001001MA1999999094521MD1110071+9999MW1071REMSYN076AAXX  02001 40829 31915 03310 10288 20106 39452 49973 51007 70700 92350 333;EQDQ01  00002PRCP99
0217408290999992000060218004+31330+061480FM-12+0489OIZB V0203401N013012200019N0020001N1+03201+01061100161ADDAA199000091AY101061AY201061GA1001+999999999GF100991001001999999001001MA1999999094901MD1210241+9999MW1071REMSYN082AAXX  02181 40829 31920 03413 10320 20106 39490 40016 52024 70700 91750 333 55062;EQDQ01  00002PRCP99
0207408290999992000060312004+31330+061480FM-12+0489OIZB V0203301N013012200019N0060001N1+03601+00951100431ADDAA199000091AY101061AY201061GA1001+999999999GF100991001001999999001001MA1999999095091MD1710231+9999MW1071REMSYN072AAXX  03121 40829 31956 03313 10360 20095 39509 40043 57023 70700 91150;EQDQ01  00002PRCP99
0217408290999992000060318004+31330+061480FM-12+0489OIZB V0203301N015012200019N0040001N1+02901+00641100441ADDAA199000091AY101061AY201061GA1001+999999999GF100991001001999999001001MA1999999095121MD1110051+9999MW1071REMSYN082AAXX  03181 40829 31940 03315 10290 20064 39512 40044 51005 70700 91750 333 55090;EQDQ01  00002PRCP99
0207408290999992000060400004+31330+061480FM-12+0489OIZB V0203201N013012200019N0050001N1+02501+00541100441ADDAA199000091AY101061AY201061GA1001+999999999GF100991001001999999001001MA1999999095141MD1410001+9999MW1071REMSYN072AAXX  04001 40829 31950 03213 10250 20054 39514 40044 54000 70700 92350;EQDQ01  00002PRCP99
0229408290999992000060406004+31330+061480FM-12+0489OIZB V0203301N017012200019N0015001N1+03161+01031100491ADDAA124000091AY101061AY201061GA1001+999999999GF100991001001999999001001MA1999999095141MD1810081+9999MW1071REMSYN094AAXX  04061 40829 31915 03317 10316 20103 39514 40049 58008 70700 90550 333 30022 53430 70000;EQDQ01  00002PRCP24
0217408290999992000060418004+31330+061480FM-12+0489OIZB V0203101N010012200019N0070001N1+02901+00701100231ADDAA199000091AY101061AY201061GA1001+999999999GF100991001001999999001001MA1999999094891MD1210161+9999MW1071REMSYN082AAXX  04181 40829 31957 03110 10290 20070 39489 40023 52016 70700 91750 333 55098;EQDQ01  00002PRCP99
0211408290999992000060500004+31330+061480FM-12+0489OIZB V0203101N010012200019N0080001N1+02501+00821100191ADDAA199000091AY101061AY201061GA1001+999999999GF100991001001999999001001MA1999999094851MD1610091+9999MW1071REMSYN076AAXX  05001 40829 31958 03110 10250 20082 39485 40019 56009 70700 92350 333;EQDQ01  00002PRCP99
0199408290999992000060512004+31330+061480FM-12+0489OIZB V0203201N006012200019N0100001N1+03841+01001099791ADDAA199000091GA1001+999999999GF100991001001999999001001MA1999999999999MD1710171+9999REMSYN070AAXX  05121 40829 32960 03206 10384 20100 38453 49979 57017 91150 333;EQDQ01  00002PRCP99Q02 084533APOSP 
0179408290999992000060600004+31330+061480FM-12+0489OIZB V0203301N004012200019N0100001N1+02001+00141099941ADDAA199000091GA1001+999999999GF100991001001999999001001MA1999999094611MD1810021+9999REMSYN066AAXX  06001 40829 32960 03304 10200 20014 39461 49994 58002 92350;EQDQ01  00002PRCP99
0229408290999992000060606004+31330+061480FM-12+0489OIZB V0203201N013012200019N0060001N1+03401+00551100101ADDAA124000091AY101061AY201061GA1001+999999999GF100991001001999999001001MA1999999094791MD1110071+9999MW1071REMSYN094AAXX  06061 40829 31956 03213 10340 20055 39479 40010 51007 70700 90550 333 30018 52640 70000;EQDQ01  00002PRCP24
0183408290999992000060612004+31330+061480FM-12+0489OIZB V0203201N007012200019N0100001N1+03941+01081099801ADDAA199000091GA1001+999999999GF100991001001999999001001MA1999999094501MD1610161+9999REMSYN070AAXX  06121 40829 32960 03207 10394 20108 39450 49980 56016 91150 333;EQDQ01  00002PRCP99
0207408290999992000060700004+31330+061480FM-12+0489OIZB V0203201N011012200019N0070001N1+02501+00301099771ADDAA199000091AY101061AY201061GA1001+999999999GF100991001001999999001001MA1999999094511MD1410001+9999MW1071REMSYN072AAXX  07001 40829 31957 03211 10250 20030 39451 49977 54000 70700 92350;EQDQ01  00002PRCP99
0179408290999992000060712004+31330+061480FM-12+0489OIZB V0203301N010012200019N0100001N1+04041+01321099741ADDAA199000091GA1001+999999999GF100991001001999999001001MA1999999094491MD1710171+9999REMSYN066AAXX  07121 40829 32960 03310 10404 20132 39449 49974 57017 91150;EQDQ01  00002PRCP99
0183408290999992000060818004+31330+061480FM-12+0489OIZB V0203001N005012200019N0100001N1+03001+00721099801ADDAA199000091GA1001+999999999GF100991001001999999001001MA1999999094541MD1310211+9999REMSYN070AAXX  08181 40829 32960 03005 10300 20072 39454 49980 53021 333 55115;EQDQ01  00002PRCP99
0245408290999992000060906004+31330+061480FM-12+0489OIZB V0200401N003012200019N0030001N1+03781+01001099891ADDAA124000091AY101061AY201061GA1001+999999999GF100991001001999999001001MA1999999094671MD1111012+9999MW1071REMSYN094AAXX  09061 40829 31930 00403 10378 20100 39467 49989 51101 70700 90550 333 30022 52990 70000;EQDQ01+001012APC3  Q02  00002PRCP24
0207408290999992000060912004+31330+061480FM-12+0489OIZB V0203301N014012200019N0070001N1+04181+00861099661ADDAA199000091AY101061AY201061GA1001+999999999GF100991001001999999001001MA1999999094411MD1710141+9999MW1071REMSYN072AAXX  09121 40829 31957 03314 10418 20086 39441 49966 57014 70700 91150;EQDQ01  00002PRCP99
0189408290999992000060918004+31330+061480FM-12+0489OIZB V0203101N004012200019N0100001N1+02941+00491099841ADDAA199000091GA1001+999999999GF100991001001999999001001MA1999999094591MD1310161+9999REMSYN076AAXX  09181 40829 32960 03104 10294 20049 39459 49984 53016 91750 333 55126;EQDQ01  00002PRCP99
0179408290999992000061000004+31330+061480FM-12+0489OIZB V0203101N005012200019N0100001N1+02541+00461099911ADDAA199000091GA1001+999999999GF100991001001999999001001MA1999999094651MD1410001+9999REMSYN066AAXX  10001 40829 32960 03105 10254 20046 39465 49991 54000 92350;EQDQ01  00002PRCP99
0211408290999992000061100004+31330+061480FM-12+0489OIZB V0203301N011012200019N0080001N1+02761+00981099941ADDAA199000091AY101061AY201061GA1001+999999999GF100991001001999999001001MA1999999094711MD1110021+9999MW1071REMSYN076AAXX  11001 40829 31958 03311 10276 20098 39471 49994 51002 70700 92350 333;EQDQ01  00002PRCP99
0214408290999992000061106004+31330+061480FM-12+0489OIZB V0203301N015012200019N0010001N1+03521+01001100221ADDAA199000091AY101061AY201061GA1001+999999999GF100991001001999999001001IA1019IA2999+02909MD1110071+9999MW1071REMSYN076AAXX  11061 40829 31910 03315 10352 20100 40022 51007 70700 90550 333 30029;EQDQ01  00002PRCP99
0183408290999992000061112004+31330+061480FM-12+0489OIZB V0203301N005012200019N0100001N1+04101+02331099851ADDAA199000091GA1001+999999999GF100991001001999999001001MA1999999094611MD1710251+9999REMSYN070AAXX  11121 40829 32960 03305 10410 20233 39461 49985 57025 91150 333;EQDQ01  00002PRCP99
0163408290999992000061118004+31330+061480FM-12+0489OIZB V0203201N005012200019N0100001N1+99999+99999999999ADDAA199000091GF102991999999999999999999GJ105709REMSYN087AAXX  11181 40829 32960 23205 0296 20124 39468 49982 53019 80002 91750 333 55095 82070;EQDQ01  00002PRCP99
0229408290999992000061206004+31330+061480FM-12+0489OIZB V0203301N014012200019N0010001N1+03341+01011100211ADDAA124000091AY101061AY201061GA1001+999999999GF100991001001999999001001MA1999999094891MD1110061+9999MW1071REMSYN094AAXX  12061 40829 31910 03314 10334 20101 39489 40021 51006 70700 90550 333 30024 52260 70000;EQDQ01  00002PRCP24
0183408290999992000061212004+31330+061480FM-12+0489OIZB V0203101N006012200019N0100001N1+04021+01441099701ADDAA199000091GA1001+999999999GF100991001001999999001001MA1999999094461MD1710251+9999REMSYN070AAXX  12121 40829 32960 03106 10402 20144 39446 49970 57025 91150 333;EQDQ01  00002PRCP99
0207408290999992000061312004+31330+061480FM-12+0489OIZB V0203401N020012200019N0010001N1+03141+01021099781ADDAA199000091AY131061AY201061GA1001+999999999GF100991001001999999001001MA1999999094481MD1710141+9999MW1071REMSYN072AAXX  13121 40829 31910 03420 10314 20102 39448 49978 57014 70730 91150;EQDQ01  00002PRCP99
0217408290999992000061318004+31330+061480FM-12+0489OIZB V0203201N021012200019N0007001N1+02001+00981100441ADDAA199000091AY131061AY201061GA1001+999999999GF100991001001999999001001MA1999999094971MD1210351+9999MW1321REMSYN082AAXX  13181 40829 31907 03221 10200 20098 39497 40044 52035 73230 91750 333 55000;EQDQ01  00002PRCP99
0239408290999992000061400004+31320+061480FM-12+0489OIZB V0203301N019010600019N0040001N1+99999+99999100981ADDAA199000091AY131061AY211061GA1051+060009089GF105991999001999999001061MA1999999095131MD1110121+9999MW1071REMSYN088AAXX  14001 40829 31940 53319 1/180 20086 39513 40098 51012 70731 80006 92350 333 85270;EQDQ01+000002SCOTLCQ02  00002PRCP99
0189408290999992000061418004+31320+061480FM-12+0489OIZB V0203301N004012200019N0100001N1+04201+00161100331ADDAA199000091GA1001+999999999GF100991001001999999001001MA1999999094901MD1110031+9999REMSYN076AAXX  14181 40829 32960 03304 10420 20016 39490 40033 51003 91750 333 55032;EQDQ01  00002PRCP99
0199408290999992000061500004+31320+061480FM-12+0489OIZB V0203301N004012200019N0100001N1+02022+00391100311ADDAA199000091GA1001+999999999GF100991001001999999001001MA1999999094921MD1110021+9999REMSYN070AAXX  15001 40829 32960 03304 10202 20039 39492 40031 51002 92350 333;EQDQ01+002023ATOT  Q02  00002PRCP99
0229408290999992000061506004+31320+061480FM-12+0489OIZB V0203201N014012200019N0015001N1+03001+00721100601ADDAA124000091AY101061AY201061GA1001+999999999GF100991001001999999001001MA1999999095211MD1110131+9999MW1071REMSYN094AAXX  15061 40829 31915 03214 10300 20072 39521 40060 51013 70700 90550 333 30098 52200 70000;EQDQ01  00002PRCP24
0201408290999992000061512004+31320+061480FM-12+0489OIZB V0203201N009012200019N0060001N1+03581+01061100231ADDAA199000091AY101061AY201061GA1001+999999999GF100991001001999999001001MA1999999094841MD1710161+9999MW1071REMSYN066AAXX  15121 40829 31956 03209 10358 20106 39484 40023 57016 70700;EQDQ01  00002PRCP99
0217408290999992000061518004+31320+061480FM-12+0489OIZB V0203201N012012200019N0060001N1+02901+00581100451ADDAA199000091AY101061AY201061GA1001+999999999GF100991001001999999001001MA1999999095121MD1210261+9999MW1071REMSYN082AAXX  15181 40829 31956 03212 10290 20058 39512 40045 52026 70700 91750 333 55040;EQDQ01  00002PRCP99
0126408290999992000061600004+31320+061480FM-12+0489OIZB V0203201N014012200019N9999999N1+02401+99999999999ADDAA199000091GA1001+999999999GF100991001001999999001001REMSYN042AAXX  16001 40829 319/0 03214 10240 20/56;EQDQ01  00002PRCP99
0186408290999992000061612004+31320+061480FM-12+0489OIZB V0203101N016012200019N0030001N1+03461+01511100371ADDAA199000091AY131061AY201061GA1001+999999999GF100991001001999999001001MD1710211+9999MW1071REMSYN066AAXX  16121 40829 31030 03116 10346 20151 40037 57021 70730 91150;EQDQ01  00002PRCP99
0217408290999992000061618004+31320+061480FM-12+0489OIZB V0203201N015012200019N0030001N1+02801+01321100451ADDAA199000091AY101061AY201061GA1001+999999999GF100991001001999999001001MA1999999095081MD1110081+9999MW1071REMSYN082AAXX  16181 40829 31930 03215 10280 20132 39508 40045 51008 70700 91750 333 55060;EQDQ01  00002PRCP99
0211408290999992000061700004+31320+061480FM-12+0489OIZB V0203301N013012200019N0080001N1+02241+01151100371ADDAA199000091AY101061AY201061GA1001+999999999GF100991001001999999001001MA1999999095011MD1610011+9999MW1071REMSYN076AAXX  17001 40829 31958 03313 10224 20115 39501 40037 56001 70700 92350 333;EQDQ01  00002PRCP99
0229408290999992000061706004+31320+061480FM-12+0489OIZB V0203401N016012200019N0020001N1+99999+99999100531ADDAA124000091AY101061AY201061GA1001+999999999GF100991001001999999001001MA1999999095191MD1610051+9999MW1071REMSYN094AAXX  17061 40829 31920 03416 1096/ 20125 39519 40053 56005 70700 90550 333 30021 53340 70000;EQDQ01  00002PRCP24
0202408290999992000061718004+31320+061480FM-12+0489OIZB V0203201N012012200019N0080001N1+02861+99999100261ADDAA199000091AY101061AY201061GA1001+999999999GF100991001001999999001001MD1110131+9999MW1071REMSYN082AAXX  17181 40829 31958 03212 10286 201/3 3/491 40026 51013 70700 91750 333 55116;EQDQ01  00002PRCP99
0173408290999992000061800004+31320+061480FM-12+0489OIZB V0203201N008012200019N0100001N1+02421+01131100211ADDAA199000091GA1001+999999999GF100991001001999999001001MA1999999094861MD1810021+9999REMSYN060AAXX  18001 40829 32960 03208 10242 20113 39486 40021 58002;EQDQ01  00002PRCP99
0208408290999992000061806004+31320+061480FM-12+0489OIZB V0203201N011012200019N0070001N1+03141+01541100251ADDAA124000091AY101061AY201061GA1001+999999999GF100991001001999999001001MD1510041+9999MW1071REMSYN088AAXX  18061 40829 31957 03211 10314 20154 40025 55004 70700 90550 333 30022 52640 70000;EQDQ01  00002PRCP24
0189408290999992000061818004+31320+061480FM-12+0489OIZB V0203401N007012200019N0100001N1+02981+01431099911ADDAA199000091GA1001+999999999GF100991001001999999001001MA1999999094631MD1410001+9999REMSYN076AAXX  18181 40829 32960 03407 10298 20143 39463 49991 54000 91750 333 55123;EQDQ01  00002PRCP99
0179408290999992000061900004+31320+061480FM-12+0489OIZB V0203301N007012200019N0100001N1+02501+01121099951ADDAA199000091GA1001+999999999GF100991001001999999001001MA1999999094651MD1410001+9999REMSYN066AAXX  19001 40829 32960 03307 10250 20112 39465 49995 54000 92350;EQDQ01  00002PRCP99
0229408290999992000061906004+31320+061480FM-12+0489OIZB V0203101N010012200019N0050001N1+03381+01331100171ADDAA124000091AY101061AY201061GA1001+999999999GF100991001001999999001001MA1999999094831MD1210101+9999MW1071REMSYN094AAXX  19061 40829 31950 03110 10338 20133 39483 40017 52010 70700 90550 333 30022 53170 70000;EQDQ01  00002PRCP24
0179408290999992000061912004+31320+061480FM-12+0489OIZB V0203101N008012200019N0100001N1+03801+02171099821ADDAA199000091GA1001+999999999GF100991001001999999001001MA1999999094531MD1710191+9999REMSYN066AAXX  19121 40829 32960 03108 10380 20217 39453 49982 57019 91150;EQDQ01  00002PRCP99
0183408290999992000062000004+31320+061480FM-12+0489OIZB V0203101N005012200019N0100001N1+02461+01341099941ADDAA199000091GA1001+999999999GF100991001001999999001001MA1999999094691MD1510031+9999REMSYN070AAXX  20001 40829 32960 03105 10246 20134 39469 49994 55003 92350 333;EQDQ01  00002PRCP99
0229408290999992000062006004+31320+061480FM-12+0489OIZB V0203201N013012200019N0040001N1+03661+00751100071ADDAA124000091AY101061AY201061GA1001+999999999GF100991001001999999001001MA1999999094781MD1810031+9999MW1071REMSYN094AAXX  20061 40829 31940 03213 10366 20075 39478 40007 58003 70700 90550 333 30021 51760 70000;EQDQ01  00002PRCP24
0183408290999992000062012004+31320+061480FM-12+0489OIZB V0203101N005012200019N0100001N1+04121+01221100211ADDAA199000091GA1001+999999999GF100991001001999999001001MA1999999094541MD1710111+9999REMSYN070AAXX  20121 40829 32960 03105 10412 20122 39454 40021 57011 91150 333;EQDQ01  00002PRCP99
0189408290999992000062018004+31320+061480FM-12+0489OIZB V0203201N008012200019N0100001N1+03201+01221099951ADDAA199000091GA1001+999999999GF100991001001999999001001MA1999999094701MD1210151+9999REMSYN076AAXX  20181 40829 32960 03208 10320 20122 39470 49995 52015 91750 333 55120;EQDQ01  00002PRCP99
0183408290999992000062100004+31320+061480FM-12+0489OIZB V0203201N007012200019N0100001N1+02501+01191099901ADDAA199000091GA1001+999999999GF100991001001999999001001MA1999999094651MD1110011+9999REMSYN070AAXX  21001 40829 32960 03207 10250 20119 39465 49990 51001 92350 333;EQDQ01  00002PRCP99
0189408290999992000062118004+31320+061480FM-12+0489OIZB V0203201N009012200019N0100001N1+03341+01331100071ADDAA199000091GA1001+999999999GF100991001001999999001001MA1999999094681MD1110141+9999REMSYN076AAXX  21181 40829 32960 03209 10334 20133 39468 40007 51014 91750 333 55114;EQDQ01  00002PRCP99
0189408290999992000062218004+31320+061480FM-12+0489OIZB V0203101N011012200019N0100001N1+03461+00831099551ADDAA199000091GA1001+999999999GF100991001001999999001001MA1999999094381MD1310071+9999REMSYN076AAXX  22181 40829 32960 03111 10346 20083 39438 49955 53007 91750 333 55115;EQDQ01  00002PRCP99
0205408290999992000062300004+31320+061480FM-12+0489OIZB V0203201N013012200019N0070001N1+03041+00821099611ADDAA199000091AY101061AY201061GA1001+999999999GF100991001001999999001001MA1999999094421MD1110041+9999MW1071REMSYN070AAXX  23001 40829 31957 03213 10304 20082 39442 49961 51004 70700 333;EQDQ01  00002PRCP99
0229408290999992000062306004+31320+061480FM-12+0489OIZB V0203301N015012200019N0030001N1+03661+01061099811ADDAA124000091AY101061AY201061GA1001+999999999GF100991001001999999001001MA1999999094591MD1110091+9999MW1071REMSYN094AAXX  23061 40829 31930 03315 10366 20106 39459 49981 51009 70700 90550 333 30028 52640 70000;EQDQ01  00002PRCP24
0189408290999992000062318004+31320+061480FM-12+0489OIZB V0203301N007012200019N0100001N1+03381+00531099551ADDAA199000091GA1001+999999999GF100991001001999999001001MA1999999094561MD1110091+9999REMSYN076AAXX  23181 40829 32960 03307 10338 20053 39456 49955 51009 91750 333 55110;EQDQ01  00002PRCP99
0179408290999992000062400004+31320+061480FM-12+0489OIZB V0203101N005012200019N0100001N1+03061+00881099431ADDAA199000091GA1001+999999999GF100991001001999999001001MA1999999094281MD1510081+9999REMSYN066AAXX  24001 40829 32960 03105 10306 20088 39428 49943 55008 92350;EQDQ01  00002PRCP99
0229408290999992000062406004+31320+061480FM-12+0489OIZB V0203401N013012200019N0040001N1+03961+01161099531ADDAA124000091AY101061AY201061GA1001+999999999GF100991001001999999001001MA1999999094341MD1810081+9999MW1071REMSYN094AAXX  24061 40829 31940 03413 10396 20116 39434 49953 58008 70700 90550 333 30026 51760 70000;EQDQ01  00002PRCP24
0189408290999992000062518004+31320+061480FM-12+0489OIZB V0209999C000012200019N0100001N1+03181+01041099281ADDAA199000091GA1001+999999999GF100991001001999999001001MA1999999094091MD1110081+9999REMSYN076AAXX  25181 40829 32960 00000 10318 20104 39409 49928 51008 91750 333 55112;EQDQ01  00002PRCP99
0114408290999992000062600004+31320+061480FM-12+0489OIZB V0203301N016012200019N0030001N1+99999+99999999999ADDAA199000091GA1001+999999999GF100991001001999999001001REMSYN030AAXX  26001 40829 31930 03316;EQDQ01  00002PRCP99
0229408290999992000062606004+31320+061480FM-12+0489OIZB V0203201N013012200019N0015001N1+03381+01421099711ADDAA124000091AY101061AY201061GA1001+999999999GF100991001001999999001001MA1999999094501MD1810121+9999MW1071REMSYN094AAXX  26061 40829 31915 03213 10338 20142 39450 49971 58012 70700 90550 333 30025 52640 70000;EQDQ01  00002PRCP24
0189408290999992000062618004+31320+061480FM-12+0489OIZB V0203201N004012200019N0100001N1+03321+01161099281ADDAA199000091GA1001+999999999GF100991001001999999001001MA1999999094071MD1410001+9999REMSYN076AAXX  26181 40829 32960 03204 10332 20116 39407 49928 54000 91750 333 55093;EQDQ01  00002PRCP99
