0183408750999992000010100004+27220+056370FM-12+0010OIKB V0203601N003012200019N0100001N1+01421-00451101441ADDAA106000091GA1001+999999999GF100991001001999999001001MA1999999101321MD1610021+9999REMSYN070AAXX  01001 40875 32960 03603 10142 21045 30132 40144 56002 92350 333;EQDQ01  00002PRCP06
0078408750999992000010107004+27220+056370FM-15+0010OIKB V0200301N00701220001CN0099001N1+02601-01101999999ADDMA1101691999999MW1001REMMET045OIKB 0700Z 03007MPS CAVOK 26/M11 Q1017 A3003;
0078408750999992000010108004+27220+056370FM-15+0010OIKB V0200401N00601220001CN0099001N1+02801-01001999999ADDMA1101591999999MW1001REMMET045OIKB 0800Z 04006MPS CAVOK 28/M10 Q1016 A3001;
0078408750999992000010109004+27220+056370FM-15+0010OIKB V0201001N00601220001CN0099001N1+02901-00401999999ADDMA1101491999999MW1001REMMET045OIKB 0900Z 10006MPS CAVOK 29/M04 Q1015 A2998;
0078408750999992000010110004+27220+056370FM-15+0010OIKB V0200601N00301220001CN0099001N1+03001-01001999999ADDMA1101391999999MW1001REMMET045OIKB 1000Z 06003MPS CAVOK 30/M10 Q1014 A2995;
0078408750999992000010111004+27220+056370FM-15+0010OIKB V0201901N00401220001CN0099001N1+02901-00101999999ADDMA1101291999999MW1001REMMET045OIKB 1100Z 19004MPS CAVOK 29/M01 Q1013 A2993;
0077408750999992000010112004+27220+056370FM-15+0010OIKB V0201901N00401220001CN0099001N1+02701+00501999999ADDMA1101291999999MW1001REMMET044OIKB 1200Z 19004MPS CAVOK 27/05 Q1013 A2994;
0077408750999992000010113004+27220+056370FM-15+0010OIKB V0202101N00201220001CN0099001N1+02501+01001999999ADDMA1101291999999MW1001REMMET044OIKB 1300Z 21002MPS CAVOK 25/10 Q1013 A2994;
0077408750999992000010114004+27220+056370FM-15+0010OIKB V0202401N00201220001CN0099001N1+02201+01201999999ADDMA1101291999999MW1001REMMET044OIKB 1400Z 24002MPS CAVOK 22/12 Q1013 A2994;
0077408750999992000010115004+27220+056370FM-15+0010OIKB V0202501N00201220001CN0099001N1+02101+01101999999ADDMA1101291999999MW1001REMMET044OIKB 1500Z 25002MPS CAVOK 21/11 Q1013 A2994;
0077408750999992000010116004+27220+056370FM-15+0010OIKB V0202601N00201220001CN0099001N1+01601+00801999999ADDMA1101391999999MW1001REMMET044OIKB 1600Z 26002MPS CAVOK 16/08 Q1014 A2996;
0077408750999992000010117004+27220+056370FM-15+0010OIKB V0202501N00201220001CN0099001N1+01501+00901999999ADDMA1101491999999MW1001REMMET044OIKB 1700Z 25002MPS CAVOK 15/09 Q1015 A2999;
0077408750999992000010118004+27220+056370FM-15+0010OIKB V0200101N00301220001CN0099001N1+01401+00601999999ADDMA1101491999999MW1001REMMET044OIKB 1800Z 01003MPS CAVOK 14/06 Q1015 A2999;
0077408750999992000010119004+27220+056370FM-15+0010OIKB V0203501N00201220001CN0099001N1+01501+00401999999ADDMA1101591999999MW1001REMMET044OIKB 1900Z 35002MPS CAVOK 15/04 Q1016 A3000;
0079408750999992000010119504+27220+056370FM-15+0010OIKB V0203501N00201220001CN0099001N1+01501+00401999999ADDMA1101491999999MW1001REMMET046OIKB 011950Z 35002MPS CAVOK 15/04 Q1015 A3000;
0079408750999992000010120504+27220+056370FM-15+0010OIKB V0209999C00001220001CN0099001N1+01601+00401999999ADDMA1101491999999MW1001REMMET046OIKB 012050Z 00000MPS CAVOK 16/04 Q1015 A2999;
0096408750999992000010200004+27220+056370FM-15+0010OIKB V0209999C00001220001CN0099001N1+01101+00201999999ADDMA1101491999999MW1001REMMET044OIKB 0000Z 00000MPS CAVOK 11/02 Q1015 A2997;EQDQ01+000000PRSWM2
0099408750999992000010200504+27220+056370FM-15+0010OIKB V0209999C00001220001CN0099001N1+01101+00001999999ADDMA1101491999999MW1001REMMET047OIKB 020050Z 00000MPS CAVOK 11/M00 Q1015 A2997;EQDQ01+000000PRSWM2
0098408750999992000010201504+27220+056370FM-15+0010OIKB V0209999C00001220001CN0099001N1+01101+00301999999ADDMA1101491999999MW1001REMMET046OIKB 020150Z 00000MPS CAVOK 11/03 Q1015 A2998;EQDQ01+000000PRSWM2
0098408750999992000010202504+27220+056370FM-15+0010OIKB V0209999C00001220001CN0099001N1+01201+00301999999ADDMA1101491999999MW1001REMMET046OIKB 020250Z 00000MPS CAVOK 12/03 Q1015 A2999;EQDQ01+000000PRSWM2
0172408750999992000010203004+27220+056370FM-12+0010OIKB V0209999C000012200019N0100001N1+01181+00331101551ADDGA1001+999999999GF100991001001999999001001KA1999N+01041MA1999999101431MD1310051+9999REMSYN076AAXX  02031 40875 42960 00000 10118 20033 30143 40155 53005 90250 333 20104;
0096408750999992000010205004+27220+056370FM-15+0010OIKB V0209999C00001220001CN0099001N1+01801+00401999999ADDMA1101691999999MW1001REMMET044OIKB 0500Z 00000MPS CAVOK 18/04 Q1017 A3003;EQDQ01+000000PRSWM2
0144408750999992000010206004+27220+056370FM-15+0010OIKB V0209999C000012200019N0112651N1+02201+00301999999ADDGA1021+010509999GF102991999999999999999999MA1101691999999MW1001REMMET050OIKB 0600Z 00000MPS 9999 FEW035 22/03 Q1017 A3006;EQDQ01+000000PRSWM2
0144408750999992000010207004+27220+056370FM-15+0010OIKB V0209999C000012200019N0112651N1+02401+00301999999ADDGA1021+010509999GF102991999999999999999999MA1101691999999MW1001REMMET050OIKB 0700Z 00000MPS 9999 FEW035 24/03 Q1017 A3005;EQDQ01+000000PRSWM2
0144408750999992000010208004+27220+056370FM-15+0010OIKB V0209999C000012200019N0112651N1+02601+00501999999ADDGA1021+010509999GF102991999999999999999999MA1101691999999MW1001REMMET050OIKB 0800Z 00000MPS 9999 FEW035 26/05 Q1017 A3003;EQDQ01+000000PRSWM2
0096408750999992000010209004+27220+056370FM-15+0010OIKB V0202101N00201220001CN0099001N1+02401+01301999999ADDMA1101491999999MW1001REMMET044OIKB 0900Z 21002MPS CAVOK 24/13 Q1015 A3000;EQDQ01+000000PRSWM2
0096408750999992000010210004+27220+056370FM-15+0010OIKB V0201801N00301220001CN0099001N1+02301+01501999999ADDMA1101491999999MW1001REMMET044OIKB 1000Z 18003MPS CAVOK 23/15 Q1015 A2998;EQDQ01+000000PRSWM2
0096408750999992000010211004+27220+056370FM-15+0010OIKB V0201801N00401220001CN0099001N1+02401+01401999999ADDMA1101391999999MW1001REMMET044OIKB 1100Z 18004MPS CAVOK 24/14 Q1014 A2995;EQDQ01+000000PRSWM2
0239408750999992000010212004+27220+056370SY-MT+0010OIKB V0201901N004012200019N0100001N1+02401+01321101431ADDAA106000091GF100991001001999999001001MA1101391101311MD1610151+9999MW1001REMSYN070AAXX  02121 40875 32960 01904 10240 20132 30131 40143 56015 91150 333;MET044OIKB 1200Z 19004MPS CAVOK 24/13 Q1014 A2995;EQDQ01+000000PRSWM2Q02  00002PRCP06
0144408750999992000010213004+27220+056370FM-15+0010OIKB V0201901N003012200019N0112651N1+02301+01301999999ADDGA1021+007509999GF102991999999999999999999MA1101391999999MW1001REMMET050OIKB 1300Z 19003MPS 9999 FEW025 23/13 Q1014 A2995;EQDQ01+000000PRSWM2
0096408750999992000010214004+27220+056370FM-15+0010OIKB V0202101N00201220001CN0099001N1+02201+01401999999ADDMA1101391999999MW1001REMMET044OIKB 1400Z 21002MPS CAVOK 22/14 Q1014 A2995;EQDQ01+000000PRSWM2
0231408750999992000010215004+27220+056370SY-MT+0010OIKB V0202101N002012200019N0100001N1+01961+01441101471ADDGF100991001001999999001001KA1999M+02621MA1101391101351MD1310041+9999MW1001REMSYN076AAXX  02151 40875 42960 02102 10196 20144 30135 40147 53004 91450 333 10262;MET044OIKB 1500Z 21002MPS CAVOK 20/14 Q1014 A2997;EQDQ01+000000PRSWM2
0096408750999992000010216004+27220+056370FM-15+0010OIKB V0209999C00001220001CN0099001N1+01501+01201999999ADDMA1101491999999MW1001REMMET044OIKB 1600Z 00000MPS CAVOK 15/12 Q1015 A2997;EQDQ01+000000PRSWM2
0096408750999992000010217004+27220+056370FM-15+0010OIKB V0203301N00201220001CN0099001N1+01501+01301999999ADDMA1101491999999MW1001REMMET044OIKB 1700Z 33002MPS CAVOK 15/13 Q1015 A3000;EQDQ01+000000PRSWM2
0096408750999992000010218004+27220+056370FM-15+0010OIKB V0203501N00201220001CN0099001N1+01501+01301999999ADDMA1101491999999MW1001REMMET044OIKB 1800Z 35002MPS CAVOK 15/13 Q1015 A3000;EQDQ01+000000PRSWM2
0096408750999992000010220004+27220+056370FM-15+0010OIKB V0209999C00001220001CN0099001N1+01501+01201999999ADDMA1101591999999MW1001REMMET044OIKB 2000Z 00000MPS CAVOK 15/12 Q1016 A3000;EQDQ01+000000PRSWM2
0096408750999992000010221004+27220+056370FM-15+0010OIKB V0209999C00001220001CN0099001N1+01301+01101999999ADDMA1101491999999MW1001REMMET044OIKB 2100Z 00000MPS CAVOK 13/11 Q1015 A2999;EQDQ01+000000PRSWM2
0239408750999992000010300004+27220+056370SY-MT+0010OIKB V0203601N002012200019N0100001N1+01261+01001101561ADDAA106000091GF100991001001999999001001MA1101491101441MD1410001+9999MW1001REMSYN070AAXX  03001 40875 32960 03602 10126 20100 30144 40156 54000 92350 333;MET044OIKB 0000Z 36002MPS CAVOK 13/10 Q1015 A2999;EQDQ01+000000PRSWM2Q02  00002PRCP06
0096408750999992000010301004+27220+056370FM-15+0010OIKB V0203601N00201220001CN0099001N1+01301+01001999999ADDMA1101491999999MW1001REMMET044OIKB 0100Z 36002MPS CAVOK 13/10 Q1015 A2999;EQDQ01+000000PRSWM2
0096408750999992000010302004+27220+056370FM-15+0010OIKB V0203601N00201220001CN0099001N1+01301+01001999999ADDMA1101491999999MW1001REMMET044OIKB 0200Z 36002MPS CAVOK 13/10 Q1015 A2999;EQDQ01+000000PRSWM2
0144408750999992000010303004+27220+056370FM-15+0010OIKB V0209999C000012200019N0112651N1+01201+01101999999ADDGA1021+009009999GF102991999999999999999999MA1101591999999MW1001REMMET050OIKB 0300Z 00000MPS 9999 FEW030 12/11 Q1016 A3000;EQDQ01+000000PRSWM2
0146408750999992000010303504+27220+056370FM-15+0010OIKB V0209999C000012200019N0112651N1+01501+01101999999ADDGA1021+009009999GF102991999999999999999999MA1101591999999MW1001REMMET052OIKB 030350Z 00000MPS 9999 FEW030 15/11 Q1016 A3003;EQDQ01+000000PRSWM2
0144408750999992000010305004+27220+056370FM-15+0010OIKB V0203601N002012200019N0112651N1+01801+01201999999ADDGA1021+009009999GF102991999999999999999999MA1101691999999MW1001REMMET050OIKB 0500Z 36002MPS 9999 FEW030 18/12 Q1017 A3004;EQDQ01+000000PRSWM2
0146408750999992000010305504+27220+056370FM-15+0010OIKB V0200101N002012200019N0112651N1+02101+01101999999ADDGA1021+009009999GF102991999999999999999999MA1101691999999MW1001REMMET052OIKB 030550Z 01002MPS 9999 FEW030 21/11 Q1017 A3006;EQDQ01+000000PRSWM2
0213408750999992000010306004+27220+056370FM-12+0010OIKB V0200101N002012200019N0100001N1+02101+01131101791ADDAA106000091GA1021+009009059GF102991021041008001001001MA1999999101671MD1210191+9999REMSYN100AAXX  03061 40875 32560 20102 10210 20113 30167 40179 52019 82400 90550 333 30009 50301 70000 82630;EQDQ01  00002PRCP06
0144408750999992000010307004+27220+056370FM-15+0010OIKB V0200501N002012200019N0112651N1+02301+01501999999ADDGA1021+009009999GF104991999999999999999999MA1101691999999MW1001REMMET050OIKB 0700Z 05002MPS 9999 SCT030 23/15 Q1017 A3006;EQDQ01+000000PRSWM2
0144408750999992000010308004+27220+056370FM-15+0010OIKB V0201501N002012200019N0112651N1+02401+01601999999ADDGA1021+009009999GF104991999999999999999999MA1101591999999MW1001REMMET050OIKB 0800Z 15002MPS 9999 SCT030 24/16 Q1016 A3003;EQDQ01+000000PRSWM2
0246408750999992000010309004+27220+056370SY-MT+0010OIKB V0201701N002012200019N0100001N1+02481+01571101561ADDGA1021+009009999GF103991031041008001001001MA1101491101441MD1810231+9999MW1001REMSYN082AAXX  03091 40875 42560 31702 10248 20157 30144 40156 58023 83400 90850 333 83630;MET050OIKB 0900Z 17002MPS 9999 SCT030 25/16 Q1015 A2999;EQDQ01+000000PRSWM2
0146408750999992000010309554+27220+056370FM-15+0010OIKB V0201801N004012200019N0112651N1+02501+01701999999ADDGA1021+009009999GF104991999999999999999999MA1101391999999MW1001REMMET052OIKB 030955Z 18004MPS 9999 SCT030 25/17 Q1014 A2997;EQDQ01+000000PRSWM2
0144408750999992000010311004+27220+056370FM-15+0010OIKB V0201901N004012200019N0112651N1+02401+01701999999ADDGA1021+009009999GF104991999999999999999999MA1101391999999MW1001REMMET050OIKB 1100Z 19004MPS 9999 SCT030 24/17 Q1014 A2995;EQDQ01+000000PRSWM2
0289408750999992000010312004+27220+056370SY-MT+0010OIKB V0201901N004012200019N0100001N1+02401+01681101411ADDAA106000091GA1021+009009999GF199999011011008001001001MA1101391101291MD1610151+9999MW1001REMSYN082AAXX  03121 40875 32560 11904 10240 20168 30129 40141 56015 81100 91150 333 81830;MET050OIKB 1200Z 19004MPS 9999 FEW030 24/17 Q1014 A2995;EQDQ01+000012SCOTCVQ02+000000PRSWM2Q03  00002PRCP06
0144408750999992000010313004+27220+056370FM-15+0010OIKB V0201901N004012200019N0112651N1+02301+01701999999ADDGA1021+009009999GF102991999999999999999999MA1101391999999MW1001REMMET050OIKB 1300Z 19004MPS 9999 FEW030 23/17 Q1014 A2994;EQDQ01+000000PRSWM2
0144408750999992000010314004+27220+056370FM-15+0010OIKB V0202101N003012200019N0112651N1+02201+01801999999ADDGA1021+009009999GF102991999999999999999999MA1101291999999MW1001REMMET050OIKB 1400Z 21003MPS 9999 FEW030 22/18 Q1013 A2994;EQDQ01+000000PRSWM2
0096408750999992000010315004+27220+056370FM-15+0010OIKB V0209999C00001220001CN0099001N1+02001+01701999999ADDMA1101391999999MW1001REMMET044OIKB 1500Z 00000MPS CAVOK 20/17 Q1014 A2995;EQDQ01+000000PRSWM2
0075408750999992000010316004+27220+056370FM-15+0010OIKB V02099999999992200019N0050001N1+99999+99999999999ADDMW1001REMMET038OIKB 1600Z PS CAVOK 18/15 Q1014 A2996;EQDQ01+000000PRSWM2
0096408750999992000010317004+27220+056370FM-15+0010OIKB V0202101N00201220001CN0099001N1+01801+01601999999ADDMA1101491999999MW1001REMMET044OIKB 1700Z 21002MPS CAVOK 18/16 Q1015 A2997;EQDQ01+000000PRSWM2
0274408750999992000010318004+27220+056370SY-MT+0010OIKB V0209999C00001220001CN0100001N1+01601+01381101501ADDAA106000091GF100991001001999999001001KA1999N+99999MA1101491101381MD1110091+9999MW1001REMSYN076AAXX  03181 40875 32960 00000 10160 20138 30138 40150 51009 91750 333 21249;MET044OIKB 1800Z 00000MPS CAVOK 16/14 Q1015 A2997;EQDQ01+000000PRSWM2Q02  00002PRCP06Q03 -02492ATMN  
0096408750999992000010319004+27220+056370FM-15+0010OIKB V0200101N00201220001CN0099001N1+01601+01501999999ADDMA1101491999999MW1001REMMET044OIKB 1900Z 01002MPS CAVOK 16/15 Q1015 A2997;EQDQ01+000000PRSWM2
0096408750999992000010320004+27220+056370FM-15+0010OIKB V0203601N00201220001CN0099001N1+01501+01401999999ADDMA1101491999999MW1001REMMET044OIKB 2000Z 36002MPS CAVOK 15/14 Q1015 A2997;EQDQ01+000000PRSWM2
0212408750999992000010321004+27220+056370SY-MT+0010OIKB V0203601N002012200019N0100001N1+01581+01521101501ADDGF100991001001999999001001MA1101491101381MD1410001+9999MW1001REMSYN070AAXX  03211 40875 42960 03602 10158 20152 30138 40150 54000 92050 333;MET044OIKB 2100Z 36002MPS CAVOK 16/15 Q1015 A2997;EQDQ01+000000PRSWM2
0096408750999992000010322004+27220+056370FM-15+0010OIKB V0203601N00201220001CN0099001N1+01601+01501999999ADDMA1101491999999MW1001REMMET044OIKB 2200Z 36002MPS CAVOK 16/15 Q1015 A2997;EQDQ01+000000PRSWM2
0239408750999992000010400004+27220+056370SY-MT+0010OIKB V0209999C000012200019N0100001N1+01281+01201101501ADDAA106000091GF100991001001999999001001MA1101491101381MD1410001+9999MW1001REMSYN070AAXX  04001 40875 32960 00000 10128 20120 30138 40150 54000 92350 333;MET044OIKB 0000Z 00000MPS CAVOK 13/12 Q1015 A2997;EQDQ01+000000PRSWM2Q02  00002PRCP06
0096408750999992000010401004+27220+056370FM-15+0010OIKB V0203501N00201220001CN0099001N1+01301+01301999999ADDMA1101391999999MW1001REMMET044OIKB 0100Z 35002MPS CAVOK 13/13 Q1014 A2997;EQDQ01+000000PRSWM2
0096408750999992000010402004+27220+056370FM-15+0010OIKB V0203501N00201220001CN0099001N1+01201+01201999999ADDMA1101491999999MW1001REMMET044OIKB 0200Z 35002MPS CAVOK 12/12 Q1015 A2997;EQDQ01+000000PRSWM2
0231408750999992000010403004+27220+056370SY-MT+0010OIKB V0203501N002012200019N0100001N1+01161+01051101541ADDGF100991001001999999001001KA1999N+01161MA1101491101421MD1310041+9999MW1001REMSYN076AAXX  04031 40875 42960 03502 10116 20105 30142 40154 53004 90250 333 20116;MET044OIKB 0300Z 35002MPS CAVOK 12/11 Q1015 A2999;EQDQ01+000000PRSWM2
0096408750999992000010404004+27220+056370FM-15+0010OIKB V0209999C00001220001CN0099001N1+01201+01201999999ADDMA1101591999999MW1001REMMET044OIKB 0400Z 00000MPS CAVOK 12/12 Q1016 A3000;EQDQ01+000000PRSWM2
0096408750999992000010405004+27220+056370FM-15+0010OIKB V0209999C00001220001CN0099001N1+01701+01401999999ADDMA1101591999999MW1001REMMET044OIKB 0500Z 00000MPS CVAOK 17/14 Q1016 A3002;EQDQ01+000000PRSWM2
0276408750999992000010406004+27220+056370SY-MT+0010OIKB V0200601N00201220001CN0100001N1+01921+01471101701ADDAA106000091GF101991001001999999001011MA1101691101581MD1210161+9999MW1001REMSYN100AAXX  04061 40875 32960 10602 10192 20147 30158 40170 52016 80001 90550 333 30008 50301 70000 81070;MET051OIKB 0600Z 06002MPS CAVOK 19/15 Q1017 A3003 FEW200;EQDQ01+000000PRSWM2Q02  00002PRCP06
0103408750999992000010407004+27220+056370FM-15+0010OIKB V0200401N00201220001CN0099001N1+02201+01501999999ADDMA1101691999999MW1001REMMET051OIKB 0700Z 04002MPS CAVOK 22/15 Q1017 A3004 FEW200;EQDQ01+000000PRSWM2
0103408750999992000010408004+27220+056370FM-15+0010OIKB V0201801N00201220001CN0099001N1+02301+01501999999ADDMA1101591999999MW1001REMMET051OIKB 0800Z 18002MPS CAVOK 23/15 Q1016 A3003 FEW200;EQDQ01+000000PRSWM2
0144408750999992000010409004+27220+056370FM-15+0010OIKB V0202101N003012200019N0112651N1+02301+01301999999ADDGA1021+009009999GF102991999999999999999999MA1101491999999MW1001REMMET050OIKB 0900Z 21003MPS 9999 FEW030 23/13 Q1015 A2999;EQDQ01+000000PRSWM2
0146408750999992000010410504+27220+056370FM-15+0010OIKB V0202101N003012200019N0112651N1+02401+01401999999ADDGA1021+009009999GF102991999999999999999999MA1101291999999MW1001REMMET052OIKB 041050Z 21003MPS 9999 FEW030 24/14 Q1013 A2993;EQDQ01+000000PRSWM2
0105408750999992000010411504+27220+056370FM-15+0010OIKB V0202101N00301220001CN0099001N1+02401+01301999999ADDMA1101291999999MW1001REMMET053OIKB 041150Z 21003MPS CAVOK 24/13 Q1013 A2993 FEW200;EQDQ01+000000PRSWM2
0195408750999992000010412004+27220+056370FM-12+0010OIKB V0202101N003012200019N0100001N1+02381+01281101361ADDAA106000091GA1011+060009019GF101991001001999999001011MA1999999101241MD1610201+9999REMSYN082AAXX  04121 40875 32960 12103 10238 20128 30124 40136 56020 80001 91150 333 81070;EQDQ01  00002PRCP06
0105408750999992000010412504+27220+056370FM-15+0010OIKB V0202001N00301220001CN0099001N1+02301+01501999999ADDMA1101291999999MW1001REMMET053OIKB 041250Z 20003MPS CAVOK 23/15 Q1013 A2994 FEW200;EQDQ01+000000PRSWM2
0105408750999992000010413504+27220+056370FM-15+0010OIKB V0201901N00301220001CN0099001N1+02201+01701999999ADDMA1101291999999MW1001REMMET053OIKB 041350Z 19003MPS CAVOK 22/17 Q1013 A2994 FEW200;EQDQ01+000000PRSWM2
0105408750999992000010414504+27220+056370FM-15+0010OIKB V0202001N00201220001CN0099001N1+02101+01701999999ADDMA1101291999999MW1001REMMET053OIKB 041450Z 20002MPS CAVOK 21/17 Q1013 A2994 FEW200;EQDQ01+000000PRSWM2
0184408750999992000010415004+27220+056370FM-12+0010OIKB V0202001N002012200019N0100001N1+02061+01661101391ADDGA1011+060009019GF101991001001999999001011KA1120M+02461MA1999999101271MD1310031+9999REMSYN088AAXX  04151 40875 42960 12002 10206 20166 30127 40139 53003 80001 91450 333 10246 81070;
0098408750999992000010416504+27220+056370FM-15+0010OIKB V0209999C00001220001CN0099001N1+01701+01501999999ADDMA1101391999999MW1001REMMET046OIKB 041650Z 00000MPS CAVOK 17/15 Q1014 A2997;EQDQ01+000000PRSWM2
0274408750999992000010418004+27220+056370SY-MT+0010OIKB V0209999C00001220001CN0100001N1+01621+01371101501ADDAA106000091GF100991001001999999001001KA1999N+99999MA1101491101381MD1210111+9999MW1001REMSYN076AAXX  04181 40875 32960 00000 10162 20137 30138 40150 52011 91750 333 21257;MET044OIKB 1800Z 00000MPS CAVOK 16/14 Q1015 A2997;EQDQ01+000000PRSWM2Q02  00002PRCP06Q03 -02572ATMN  
0096408750999992000010419004+27220+056370FM-15+0010OIKB V0209999C00001220001CN0099001N1+01501+01401999999ADDMA1101491999999MW1001REMMET044OIKB 1900Z 00000MPS CAVOK 15/14 Q1015 A2991;EQDQ01+000000PRSWM2
0096408750999992000010420004+27220+056370FM-15+0010OIKB V0203601N00201220001CN0099001N1+01501+01401999999ADDMA1101491999999MW1001REMMET044OIKB 2000Z 36002MPS CAVOK 15/14 Q1015 A2997;EQDQ01+000000PRSWM2
0212408750999992000010421004+27220+056370SY-MT+0010OIKB V0203601N002012200019N0100001N1+01501+01441101501ADDGF100991001001999999001001MA1101491101381MD1410001+9999MW1001REMSYN070AAXX  04211 40875 42960 03602 10150 20144 30138 40150 54000 92050 333;MET044OIKB 2100Z 36002MPS CAVOK 15/14 Q1015 A2997;EQDQ01+000000PRSWM2
0096408750999992000010500004+27220+056370FM-15+0010OIKB V0209999C00001220001CN0099001N1+01201+01201999999ADDMA1101391999999MW1001REMMET044OIKB 0000Z 00000MPS CAVOK 12/12 Q1014 A2997;EQDQ01+000000PRSWM2
0096408750999992000010501004+27220+056370FM-15+0010OIKB V0209999C00001220001CN0099001N1+01201+01201999999ADDMA1101391999999MW1001REMMET044OIKB 0100Z 00000MPS CAVOK 12/12 Q1014 A2997;EQDQ01+000000PRSWM2
0096408750999992000010502004+27220+056370FM-15+0010OIKB V0209999C00001220001CN0099001N1+01201+01201999999ADDMA1101391999999MW1001REMMET044OIKB 0200Z 00000MPS CAVOK 12/12 Q1014 A2997;EQDQ01+000000PRSWM2
0144408750999992000010503004+27220+056370FM-15+0010OIKB V0203501N002012200019N0080001N1+01401+01401999999ADDGA1021+010509999GF102991999999999999999999MA1101491999999MW1001REMMET050OIKB 0300Z 35002MPS 8000 FEW035 14/14 Q1015 A2999;EQDQ01+000000PRSWM2
0144408750999992000010504004+27220+056370FM-15+0010OIKB V0203501N003012200019N0060001N1+01501+01401999999ADDGA1021+009009999GF102991999999999999999999MA1101591999999MW1001REMMET050OIKB 0400Z 35003MPS 6000 FEW030 15/14 Q1016 A3000;EQDQ01+000000PRSWM2
0144408750999992000010505004+27220+056370FM-15+0010OIKB V0209999C000012200019N0080001N1+01701+01601999999ADDGA1021+060009999GF102991999999999999999999MA1101591999999MW1001REMMET050OIKB 0500Z 00000MPS 8000 FEW200 17/16 Q1016 A3002;EQDQ01+000000PRSWM2
0291408750999992000010506004+27220+056370SY-MT+0010OIKB V0200201N002012200019N0080001N1+02021+01581101721ADDAA106000091GA1021+060009999GF103991001001999999001011MA1101691101601MD1210161+9999MW1001REMSYN100AAXX  05061 40875 31958 30202 10202 20158 30160 40172 52016 80001 90550 333 30009 50251 70000 83070;MET050OIKB 0600Z 02002MPS 8000 SCT200 20/16 Q1017 A3004;EQDQ01+000000PRSWM2Q02  00002PRCP06
0103408750999992000010507004+27220+056370FM-15+0010OIKB V0200501N00201220001CN0099001N1+02201+01601999999ADDMA1101691999999MW1001REMMET051OIKB 0700Z 05002MPS CAVOK 22/16 Q1017 A3005 SCT200;EQDQ01+000000PRSWM2
0103408750999992000010508004+27220+056370FM-15+0010OIKB V0201901N00201220001CN0099001N1+02401+01601999999ADDMA1101691999999MW1001REMMET051OIKB 0800Z 19002MPS CAVOK 24/16 Q1017 A3003 SCT200;EQDQ01+000000PRSWM2
0247408750999992000010509004+27220+056370SY-MT+0010OIKB V0201901N003012200019N0100001N1+02401+01571101571ADDGA1031+060009019GF103991001001999999001011MA1101491101451MD1810151+9999MW1001REMSYN082AAXX  05091 40875 42960 31903 10240 20157 30145 40157 58015 80001 90850 333 83070;MET051OIKB 0900Z 19003MPS CAVOK 24/16 Q1015 A2999 SCT200;EQDQ01+000000PRSWM2
0103408750999992000010510004+27220+056370FM-15+0010OIKB V0201901N00401220001CN0099001N1+02401+01601999999ADDMA1101491999999MW1001REMMET051OIKB 1000Z 19004MPS CAVOK 24/16 Q1015 A2997 SCT190;EQDQ01+000000PRSWM2
0103408750999992000010511004+27220+056370FM-15+0010OIKB V0201901N00401220001CN0099001N1+02401+01601999999ADDMA1101391999999MW1001REMMET051OIKB 1100Z 19004MPS CAVOK 24/16 Q1014 A2996 SCT190;EQDQ01+000000PRSWM2
0103408750999992000010512004+27220+056370FM-15+0010OIKB V0201901N00401220001CN0099001N1+02401+01601999999ADDMA1101391999999MW1001REMMET051OIKB 1200Z 19004MPS CAVOK 24/16 Q1014 A2995 BKN180;EQDQ01+000000PRSWM2
0103408750999992000010513004+27220+056370FM-15+0010OIKB V0201901N00301220001CN0099001N1+02301+01501999999ADDMA1101391999999MW1001REMMET051OIKB 1300Z 19003MPS CAVOK 23/15 Q1014 A2996 BKN180;EQDQ01+000000PRSWM2
0096408750999992000010514004+27220+056370FM-15+0010OIKB V0201901N00201220001CN0099001N1+02201+01701999999ADDMA1101391999999MW1001REMMET044OIKB 1400Z 19002MPS CAVOK 22/17 Q1014 A2997;EQDQ01+000000PRSWM2
0103408750999992000010515004+27220+056370FM-15+0010OIKB V0201901N00301220001CN0099001N1+02201+01801999999ADDMA1101491999999MW1001REMMET051OIKB 1500Z 19003MPS CAVOK 22/18 Q1015 A2998 SCT180;EQDQ01+000000PRSWM2
0103408750999992000010516004+27220+056370FM-15+0010OIKB V0202001N00201220001CN0099001N1+02101+01801999999ADDMA1101491999999MW1001REMMET051OIKB 1600Z 20002MPS CAVOK 21/18 Q1015 A2999 FEW180;EQDQ01+000000PRSWM2
0098408750999992000010518504+27220+056370FM-15+0010OIKB V0203201N00301220001CN0099001N1+01801+01601999999ADDMA1101591999999MW1001REMMET046OIKB 051850Z 32003MPS CAVOK 18/16 Q1016 A3001;EQDQ01+000000PRSWM2
0098408750999992000010520504+27220+056370FM-15+0010OIKB V0209999C00001220001CN0099001N1+01601+01401999999ADDMA1101591999999MW1001REMMET046OIKB 052050Z 00000MPS CAVOK 16/14 Q1016 A3002;EQDQ01+000000PRSWM2
0153408750999992000010521004+27220+056370FM-12+0010OIKB V0209999C000012200019N0100001N1+01621+01431101641ADDGA1001+999999999GF100991001001999999001001MA1999999101521MD1310021+9999REMSYN070AAXX  05211 40875 42960 00000 10162 20143 30152 40164 53002 92050 333;
0098408750999992000010600504+27220+056370FM-15+0010OIKB V0209999C00001220001CN0099001N1+01401+01301999999ADDMA1101591999999MW1001REMMET046OIKB 060050Z 00000MPS CAVOK 14/13 Q1016 A3001;EQDQ01+000000PRSWM2
0098408750999992000010601504+27220+056370FM-15+0010OIKB V0209999C00001220001CN0099001N1+01301+01301999999ADDMA1101591999999MW1001REMMET046OIKB 060150Z 00000MPS CAVOK 13/13 Q1016 A3001;EQDQ01+000000PRSWM2
0105408750999992000010602504+27220+056370FM-15+0010OIKB V0203601N00201220001CN0099001N1+01401+01401999999ADDMA1101591999999MW1001REMMET053OIKB 060250Z 36002MPS CAVOK 14/14 Q1016 A3001 FEW200;EQDQ01+000000PRSWM2
0184408750999992000010603004+27220+056370FM-12+0010OIKB V0203601N002012200019N0100001N1+01441+01361101611ADDGA1021+060009019GF102991001001999999001011KA1120N+01341MA1999999101491MD1410001+9999REMSYN088AAXX  06031 40875 42960 23602 10144 20136 30149 40161 54000 80001 90250 333 20134 82070;
0167408750999992000010604004+27220+056370FM-15+0010OIKB V0203501N002010600019N0070001N1+01601+01401999999ADDGA1021+012009999GA2071+060009999GF107991999999999999999999MA1101691999999MW1001REMMET057OIKB 0400Z 35002MPS 7000 FEW040 BKN200 16/14 Q1017 A3005;EQDQ01+000000PRSWM2
0167408750999992000010605004+27220+056370FM-15+0010OIKB V0200101N002010600019N0070001N1+01801+01401999999ADDGA1021+012009999GA2071+060009999GF107991999999999999999999MA1101801999999MW1001REMMET057OIKB 0500Z 01002MPS 7000 FEW040 BKN200 18/14 Q1018 A3007;EQDQ01+000000PRSWM2
0374408750999992000010606004+27220+056370SY-MT+0010OIKB V0209999C000010540019N0080001N1+02181+01101101881ADDAA106000091AY111061AY201061GA1021+012009999GA2071+054009999GF199999011041012501001011MA1101801101761MD1210271+9999MW1051REMSYN112AAXX  06061 40875 31658 50000 10218 20110 30176 40188 52027 70510 81401 90550 333 30010 50331 70000 81640 85068;MET057OIKB 0600Z 00000MPS 8000 FEW040 BKN180 22/11 Q1018 A3009;EQDQ01+000052SCOTCVQ02+000000PRSWM2Q03  00002PRCP06Q04    003PRSWM1
0144408750999992000010607004+27220+056370FM-15+0010OIKB V0209999C000010540019N0080001N1+02301+01701999999ADDGA1071+054009999GF107991999999999999999999MA1101801999999MW1001REMMET050OIKB 0700Z 00000MPS 8000 BKN180 23/17 Q1018 A3007;EQDQ01+000000PRSWM2
0190408750999992000010608004+27220+056370FM-15+0010OIKB V0201801N003010540019N0080001N1+02401+01701999999ADDGA1021+009009999GA2021+030009999GA3071+054009999GF107991999999999999999999MA1101691999999MW1001REMMET064OIKB 0800Z 18003MPS 8000 FEW030 SCT100 BKN180 24/17 Q1017 A3005;EQDQ01+000000PRSWM2
0358408750999992000010609004+27220+056370SY-MT+0010OIKB V0201801N00201054001CN0080001N1+02461+01831101641ADDAY121031AY211031GA1021+009009999GA2021+030009999GA3071+054009999GF199999011041008001031081MA1101591101521MD1710241+9999MW1051REMSYN100AAXX  06091 40875 41558 61802 10246 20183 30152 40164 57024 70521 81438 90850 333 8130/ 83360 85268;MET064OIKB 0900Z 18002MPS 8000 FEW030 SCT100 BKN180 25/18 Q1016 A3002;EQDQ01+000062SCOTCVQ02+000000PRSWM2Q03    003PRSWM1
0190408750999992000010610004+27220+056370FM-15+0010OIKB V0201801N004010540019N0080001N1+02501+01901999999ADDGA1021+009009999GA2021+030009999GA3071+054009999GF107991999999999999999999MA1101491999999MW1001REMMET064OIKB 1000Z 18004MPS 8000 FEW030 SCT100 BKN180 25/19 Q1015 A2999;EQDQ01+000000PRSWM2
0190408750999992000010611004+27220+056370FM-15+0010OIKB V0201901N004010540019N0080001N1+02501+01901999999ADDGA1021+009009999GA2021+030009999GA3071+054009999GF107991999999999999999999MA1101391999999MW1001REMMET064OIKB 1100Z 19004MPS 8000 FEW030 SCT100 BKN180 25/19 Q1014 A2997;EQDQ01+000000PRSWM2
0167408750999992000010612004+27220+056370FM-15+0010OIKB V0201901N005012200019N0080001N1+02501+01601999999ADDGA1021+010509999GA2021+054009999GF104991999999999999999999MA1101391999999MW1001REMMET057OIKB 1200Z 19005MPS 8000 FEW035 SCT180 25/16 Q1014 A2996;EQDQ01+000000PRSWM2
0167408750999992000010613004+27220+056370FM-15+0010OIKB V0201901N004012200019N0070001N1+02401+01901999999ADDGA1021+010509999GA2021+054009999GF104991999999999999999999MA1101391999999MW1001REMMET057OIKB 1300Z 19004MPS 7000 FEW035 SCT180 24/19 Q1014 A2996;EQDQ01+000000PRSWM2
0167408750999992000010614004+27220+056370FM-15+0010OIKB V0201801N003012200019N0070001N1+02201+01901999999ADDGA1021+012009999GA2021+057009999GF104991999999999999999999MA1101391999999MW1001REMMET057OIKB 1400Z 18003MPS 7000 FEW040 SCT190 22/19 Q1014 A2996;EQDQ01+000000PRSWM2
0332408750999992000010615004+27220+056370SY-MT+0010OIKB V0202101N002012200019N0070001N1+02101+01801101501ADDAY111031AY211031GA1021+012009999GA2021+060009999GF103991011041012501001011KA1120M+02551MA1101491101381MD1310051+9999MW1101REMSYN100AAXX  06151 40875 41657 32102 10210 20180 30138 40150 53005 71011 81401 91450 333 10255 81640 83070;MET057OIKB 1500Z 21002MPS 7000 FEW040 SCT200 21/18 Q1015 A2997;EQDQ01+000000PRSWM2Q02    003PRSWM1
0144408750999992000010616004+27220+056370FM-15+0010OIKB V0202401N002012200019N0070001N1+02001+01801999999ADDGA1021+060009999GF102991999999999999999999MA1101491999999MW1001REMMET050OIKB 1600Z 24002MPS 7000 FEW200 20/18 Q1015 A2998;EQDQ01+000000PRSWM2
0144408750999992000010617004+27220+056370FM-15+0010OIKB V0203501N002012200019N0060001N1+01801+01701999999ADDGA1021+060009999GF102991999999999999999999MA1101491999999MW1001REMMET050OIKB 1700Z 35002MPS 6000 FEW200 18/17 Q1015 A2999;EQDQ01+000000PRSWM2
0163408750999992000010620004+27220+056370FM-15+0010OIKB V0203601N002012200019N0040001N1+01601+01501999999ADDGA1021+060009999GF102991999999999999999999MA1101491999999MW1101REMMET053OIKB 2000Z 36002MPS 4000 BR FEW200 16/15 Q1015 A2998;EQDQ01+000003PRSWM1Q02    003PRSWM1
0271408750999992000010621004+27220+056370SY-MT+0010OIKB V0203401N002012200019N0040001N1+01601+01501101511ADDAY101031AY201031GA1021+060009999GF103991001001999999001011MA1101491101391MD1710091+9999MW1101REMSYN088AAXX  06211 40875 41940 33402 10160 20150 30139 40151 57009 71000 80001 92050 333 83070;MET053OIKB 2100Z 34002MPS 4000 BR FEW200 16/15 Q1015 A2998;EQDQ01    003PRSWM1
0163408750999992000010700004+27220+056370FM-15+0010OIKB V0209999C000012200019N0020001N1+01501+01401999999ADDGA1021+060009999GF102991999999999999999999MA1101391999999MW1101REMMET053OIKB 0000Z 00000MPS 2000 BR FEW200 15/14 Q1014 A2996;EQDQ01+000003PRSWM1Q02    003PRSWM1
0163408750999992000010701004+27220+056370FM-15+0010OIKB V0209999C000012200019N0020001N1+01501+01401999999ADDGA1021+060009999GF102991999999999999999999MA1101391999999MW1101REMMET053OIKB 0100Z 00000MPS 2000 BR FEW200 15/14 Q1014 A2996;EQDQ01+000003PRSWM1Q02    003PRSWM1
0163408750999992000010702004+27220+056370FM-15+0010OIKB V0209999C000012200019N0020001N1+01501+01401999999ADDGA1021+060009999GF102991999999999999999999MA1101391999999MW1101REMMET053OIKB 0200Z 00000MPS 2000 BR FEW200 15/14 Q1014 A2996;EQDQ01+000003PRSWM1Q02    003PRSWM1
0290408750999992000010703004+27220+056370SY-MT+0010OIKB V0209999C000012200019N0015001N1+01281+01171101511ADDAY101031AY201031GA1021+060009999GF102991001001999999001011KA1120N+01281MA1101491101391MD1310051+9999MW1101REMSYN094AAXX  07031 40875 41915 20000 10128 20117 30139 40151 53005 71000 80001 90250 333 20128 82070;MET053OIKB 0300Z 00000MPS 1500 BR FEW200 13/12 Q1015 A2998;EQDQ01    003PRSWM1
0188408750999992000010704004+27220+056370FM-15+0010OIKB V0203601N002012200019N0025001N1+01401+01301999999ADDGA1021+012009999GA2021+060009999GF104991999999999999999999MA1101491999999MW1101REMMET062OIKB 070355Z 36002MPS 2500 BR FEW040 SCT200 14/13 Q1015 A2999;EQDQ01+000003PRSWM1Q02    003PRSWM1
0188408750999992000010705004+27220+056370FM-15+0010OIKB V0209999C000012200019N0050001N1+01601+01401999999ADDGA1021+012009999GA2021+060009999GF104991999999999999999999MA1101591999999MW1101REMMET062OIKB 070455Z 00000MPS 5000 BR FEW040 SCT200 16/14 Q1016 A3001;EQDQ01+000003PRSWM1Q02    003PRSWM1
0169408750999992000010705504+27220+056370FM-15+0010OIKB V0209999C000010600019N0060001N1+02001+01501999999ADDGA1021+030009999GA2071+060009999GF107991999999999999999999MA1101591999999MW1001REMMET059OIKB 070550Z 00000MPS 6000 FEW100 BKN200 20/15 Q1016 A3001;EQDQ01+000000PRSWM2
0162408750999992000010707004+27220+056370FM-15+0010OIKB V0209999C000010600019N9999999N1+02401+01501999999ADDGA1071+060009999GF107991999999999999999999MA1101591999999MW1001REMMET052OIKB 070655Z 00000MPS 7000 BKN200 24/15 Q1016 A3002;EQDQ01+070002VODIS Q02+000000PRSWM2
0185408750999992000010707554+27220+056370FM-15+0010OIKB V0202101N003010600019N9999999N1+02401+01401999999ADDGA1021+030009999GA2071+060009999GF107991999999999999999999MA1101491999999MW1001REMMET059OIKB 070755Z 21003MPS 7000 FEW100 BKN200 24/14 Q1015 A2999;EQDQ01+070002VODIS Q02+000000PRSWM2
0185408750999992000010708504+27220+056370FM-15+0010OIKB V0202201N003012200019N9999999N1+02401+01201999999ADDGA1021+030009999GA2021+060009999GF104991999999999999999999MA1101391999999MW1001REMMET059OIKB 070850Z 22003MPS 7000 FEW100 SCT200 24/12 Q1014 A2996;EQDQ01+070002VODIS Q02+000000PRSWM2
0185408750999992000010709554+27220+056370FM-15+0010OIKB V0202001N003012200019N9999999N1+02401+01301999999ADDGA1021+030009999GA2021+057009999GF104991999999999999999999MA1101291999999MW1001REMMET059OIKB 070955Z 20003MPS 7000 FEW100 SCT190 24/13 Q1013 A2993;EQDQ01+070002VODIS Q02+000000PRSWM2
0183408750999992000010711004+27220+056370FM-15+0010OIKB V0202101N005012200019N9999999N1+02401+01001999999ADDGA1021+030009999GA2021+057009999GF104991999999999999999999MA1101191999999MW1001REMMET057OIKB 1100Z 21005MPS 7000 FEW100 SCT190 24/10 Q1012 A2991;EQDQ01+070002VODIS Q02+000000PRSWM2
0183408750999992000010712004+27220+056370FM-15+0010OIKB V0202001N004012200019N9999999N1+02301+01301999999ADDGA1021+030009999GA2021+057009999GF104991999999999999999999MA1101191999999MW1001REMMET057OIKB 1200Z 20004MPS 7000 FEW100 SCT190 23/13 Q1012 A2991;EQDQ01+070002VODIS Q02+000000PRSWM2
0183408750999992000010713004+27220+056370FM-15+0010OIKB V0201901N005012200019N9999999N1+02301+01501999999ADDGA1021+030009999GA2021+057009999GF104991999999999999999999MA1101191999999MW1001REMMET057OIKB 1300Z 19005MPS 7000 FEW100 SCT190 23/15 Q1012 A2991;EQDQ01+070002VODIS Q02+000000PRSWM2
0183408750999992000010714004+27220+056370FM-15+0010OIKB V0209999C000012200019N9999999N1+02201+01601999999ADDGA1021+030009999GA2021+060009999GF104991999999999999999999MA1101191999999MW1001REMMET057OIKB 1400Z 00000MPS 7000 FEW100 SCT200 22/16 Q1012 A2991;EQDQ01+070002VODIS Q02+000000PRSWM2
0332408750999992000010715004+27220+056370SY-MT+0010OIKB V0209999C000019999999N0070001N1+02121+01511101381ADDAY121031AY221031GA1021+030009999GA2021+057009999GF105991021001999999031021KA1120M+02501MA1101291101261MD1310111+9999MW1051REMSYN100AAXX  07151 40875 41957 50000 10212 20151 30126 40138 53011 70522 82032 91450 333 10250 82360 84069;MET057OIKB 1500Z 00000MPS 7000 FEW100 SCT190 21/15 Q1013 A2994;EQDQ01+000000PRSWM2Q02    003PRSWM1
0183408750999992000010716004+27220+056370FM-15+0010OIKB V0202401N002012200019N9999999N1+02201+01301999999ADDGA1021+030009999GA2021+057009999GF104991999999999999999999MA1101391999999MW1001REMMET057OIKB 1600Z 24002MPS 7000 FEW100 SCT190 22/13 Q1014 A2995;EQDQ01+070002VODIS Q02+000000PRSWM2
0183408750999992000010717004+27220+056370FM-15+0010OIKB V0209999C000012200019N9999999N1+02101+01501999999ADDGA1021+030009999GA2021+057009999GF104991999999999999999999MA1101391999999MW1001REMMET057OIKB 1700Z 00000MPS 7000 FEW100 SCT190 21/15 Q1014 A2997;EQDQ01+070002VODIS Q02+000000PRSWM2
0346408750999992000010718004+27220+056370SY-MT+0010OIKB V0209999C000019999999N0070001N1+02041+01521101471ADDAA106000091AY111061AY211061GA1021+030009999GA2021+057009999GF105991021001999999031021MA1101391101351MD1110091+9999MW1051REMSYN100AAXX  07181 40875 31957 50000 10204 20152 30135 40147 51009 70511 82032 91750 333 20984 82360 84069;MET057OIKB 1800Z 00000MPS 7000 FEW100 SCT190 20/15 Q1014 A2997;EQDQ01+000000PRSWM2Q02  00002PRCP06Q03    003PRSWM1
0167408750999992000010719004+27220+056370FM-15+0010OIKB V0209999C000012200019N0070001N1+02001+01501999999ADDGA1021+030009999GA2021+057009999GF104991999999999999999999MA1101391999999MW1001REMMET057OIKB 1900Z 00000MPS 7000 FEW100 SCT190 20/15 Q1014 A2995;EQDQ01+000000PRSWM2
0193408750999992000010720004+27220+056370FM-15+0010OIKB V0209999C000012200019N0070001N1+01901+01401999999ADDGA1021+009009029GA2021+030009999GA3021+057009999GF104991999999999999999999MA1101391999999MW1001REMMET067OIKB 2000Z 00000MPS 7000 FEW030TCU SCT100 SCT190 19/14 Q1014 A2995;EQDQ01+000000PRSWM2
0339408750999992000010721004+27220+056370SY-MT+0010OIKB V0209999C000010570019N0070001N1+01841+01391101401ADDAY111031AY211031GA1021+009009029GA2021+030009999GA3021+057009999GF105991021001999999031021MA1101391101281MD1710071+9999MW1051REMSYN094AAXX  07211 40875 41957 50000 10184 20139 30128 40140 57007 70511 82032 92050 333 82360 84069;MET067OIKB 2100Z 00000MPS 7000 FEW030TCU SCT100 SCT190 19/14 Q1014 A2995;EQDQ01+000000PRSWM2Q02    003PRSWM1
0229408750999992000010800004+27220+056370FM-12+0010OIKB V0209999C000019999999N0070001N1+01601+01261101341ADDAA106000091AY121061AY221061GA1021+030009039GF105991021001999999031021MA1999999101221MD1810061+9999MW1051REMSYN094AAXX  08001 40875 31957 50000 10160 20126 30122 40134 58006 70522 82032 92350 333 82360 84069;EQDQ01  00002PRCP06
0167408750999992000010801004+27220+056370FM-15+0010OIKB V0209999C000012200019N0070001N1+01501+01201999999ADDGA1021+030009999GA2021+060009999GF104991999999999999999999MA1101291999999MW1001REMMET057OIKB 0100Z 00000MPS 7000 SCT100 SCT200 15/12 Q1013 A2993;EQDQ01+000000PRSWM2
0167408750999992000010802004+27220+056370FM-15+0010OIKB V0209999C000012200019N0070001N1+01401+01101999999ADDGA1021+030009999GA2021+060009999GF104991999999999999999999MA1101291999999MW1001REMMET057OIKB 0200Z 00000MPS 7000 SCT100 SCT200 14/11 Q1013 A2992;EQDQ01+000000PRSWM2
0167408750999992000010803004+27220+056370FM-15+0010OIKB V0209999C000012200019N0060001N1+01501+01201999999ADDGA1021+030009999GA2021+060009999GF104991999999999999999999MA1101291999999MW1001REMMET057OIKB 0300Z 00000MPS 6000 SCT100 SCT200 15/12 Q1013 A2994;EQDQ01+000000PRSWM2
0190408750999992000010804004+27220+056370FM-15+0010OIKB V0209999C000012200019N0080001N1+01501+01301999999ADDGA1021+010509999GA2021+030009999GA3021+060009999GF104991999999999999999999MA1101391999999MW1001REMMET064OIKB 0400Z 00000MPS 8000 FEW035 FEW100 SCT200 15/13 Q1014 A2996;EQDQ01+000000PRSWM2
0190408750999992000010806004+27220+056370FM-15+0010OIKB V0209999C000012200019N0112651N1+02101+01501999999ADDGA1021+010509999GA2021+030009999GA3021+060009999GF102991999999999999999999MA1101591999999MW1001REMMET064OIKB 0600Z 00000MPS 9999 FEW035 SCT100 FEW200 21/15 Q1016 A3001;EQDQ01+000000PRSWM2
0167408750999992000010807004+27220+056370FM-15+0010OIKB V0200301N002010300019N0112651N1+02201+01501999999ADDGA1021+010509999GA2071+030009999GF107991999999999999999999MA1101491999999MW1001REMMET057OIKB 0700Z 03002MPS 9999 FEW035 BKN100 22/15 Q1015 A2999;EQDQ01+000000PRSWM2
0167408750999992000010808004+27220+056370FM-15+0010OIKB V0200601N002010300019N0112651N1+02401+01301999999ADDGA1021+010509999GA2071+030009999GF107991999999999999999999MA1101391999999MW1001REMMET057OIKB 0800Z 06002MPS 9999 FEW035 BKN100 24/13 Q1014 A2997;EQDQ01+000000PRSWM2
0275408750999992000010809004+27220+056370SY-MT+0010OIKB V0201801N002010300019N0100001N1+02381+01481101391ADDGA1021+010509999GA2071+030009999GF107991011041012501031001MA1101291101271MD1710231+9999MW1001REMSYN088AAXX  08091 40875 42660 71802 10238 20148 30127 40139 57023 81430 90850 333 81635 86360;MET057OIKB 0900Z 18002MPS 9999 FEW035 BKN100 24/15 Q1013 A2994;EQDQ01+000000PRSWM2
0167408750999992000010810004+27220+056370FM-15+0010OIKB V0209999C000010300019N0112651N1+02501+01401999999ADDGA1021+010509999GA2071+030009999GF107991999999999999999999MA1101291999999MW1001REMMET057OIKB 1000Z 00000MPS 9999 FEW035 BKN100 25/14 Q1013 A2992;EQDQ01+000000PRSWM2
0105408750999992000010810504+27220+056370FM-15+0010OIKB V0202101N00301220001CN0099001N1+02601+01001999999ADDMA1101191999999MW1001REMMET053OIKB 081050Z 21003MPS CAVOK 26/10 Q1012 A2991 BKN200;EQDQ01+000000PRSWM2
0105408750999992000010811504+27220+056370FM-15+0010OIKB V0201901N00401220001CN0099001N1+02501+01501999999ADDMA1101191999999MW1001REMMET053OIKB 081150Z 19004MPS CAVOK 25/15 Q1012 A2991 BKN200;EQDQ01+000000PRSWM2
0205408750999992000010812004+27220+056370FM-12+0010OIKB V0201901N004010600019N0180001N1+99999+99999101291ADDAA106000091GA1061+060009099GF106991999001999999001091MA1999999101171MD1610101+9999REMSYN076AAXX  08121 40875 32968 61904 10//9 30117 40129 56010 80009 91150 333 86170;EQDQ01+000002SCOTLCQ02  00002PRCP06
0105408750999992000010812504+27220+056370FM-15+0010OIKB V0202101N00301220001CN0099001N1+02401+01501999999ADDMA1101291999999MW1001REMMET053OIKB 081250Z 21003MPS CAVOK 24/15 Q1013 A2992 BKN200;EQDQ01+000000PRSWM2
0105408750999992000010813504+27220+056370FM-15+0010OIKB V0201901N00201220001CN0099001N1+02301+01601999999ADDMA1101291999999MW1001REMMET053OIKB 081350Z 19002MPS CAVOK 23/16 Q1013 A2994 BKN200;EQDQ01+000000PRSWM2
0105408750999992000010814504+27220+056370FM-15+0010OIKB V0202601N00201220001CN0099001N1+02201+01501999999ADDMA1101391999999MW1001REMMET053OIKB 081450Z 26002MPS CAVOK 22/15 Q1014 A2994 BKN200;EQDQ01+000000PRSWM2
0203408750999992000010815004+27220+056370FM-12+0010OIKB V0202601N002010600019N0100001N1+02161+01501101401ADDGA1051+060009099GF105991999001999999001091KA1120M+02661MA1999999101281MD1210111+9999REMSYN088AAXX  08151 40875 42960 52602 10216 20150 30128 40140 52011 80009 91450 333 10266 85170;EQDQ01+000002SCOTLC
0105408750999992000010815504+27220+056370FM-15+0010OIKB V0209999C00001220001CN0099001N1+01901+01401999999ADDMA1101391999999MW1001REMMET053OIKB 081550Z 00000MPS CAVOK 19/14 Q1014 A2996 BKN200;EQDQ01+000000PRSWM2
0105408750999992000010816504+27220+056370FM-15+0010OIKB V0209999C00001220001CN0099001N1+01901+01501999999ADDMA1101491999999MW1001REMMET053OIKB 081650Z 00000MPS CAVOK 19/15 Q1015 A2997 BKN200;EQDQ01+000000PRSWM2
0273408750999992000010818004+27220+056370SY-MT+0010OIKB V0209999C00001220001CN0100001N1+01721+01391101521ADDAA106000091GF104991999001999999001091MA1101491101401MD1210121+9999MW1001REMSYN088AAXX  08181 40875 32960 40000 10172 20139 30140 40152 52012 80009 91750 333 20778 84170;MET044OIKB 1800Z 00000MPS CAVOK 17/14 Q1015 A2998;EQDQ01+000000PRSWM2Q02+000002SCOTLCQ03  00002PRCP06
0103408750999992000010819004+27220+056370FM-15+0010OIKB V0209999C00001220001CN0099001N1+01701+01301999999ADDMA1101491999999MW1001REMMET051OIKB 1900Z 00000MPS CAVOK 17/13 Q1015 A2998 FEW200;EQDQ01+000000PRSWM2
0103408750999992000010820004+27220+056370FM-15+0010OIKB V0209999C00001220001CN0099001N1+01601+01301999999ADDMA1101391999999MW1001REMMET051OIKB 2000Z 00000MPS CAVOK 16/13 Q1014 A2996 FEW200;EQDQ01+000000PRSWM2
0231408750999992000010821004+27220+056370SY-MT+0010OIKB V0200501N003012200019N0100001N1+01781+01091101421ADDGF103991001001999999001021MA1101391101301MD1810101+9999MW1001REMSYN082AAXX  08211 40875 42960 30503 10178 20109 30130 40142 58010 80002 92050 333 83070;MET051OIKB 2100Z 00000MPS CAVOK 18/11 Q1014 A2995 FEW200;EQDQ01+000000PRSWM2
0258408750999992000010900004+27220+056370SY-MT+0010OIKB V0209999C00001220001CN0100001N1+01661+01381101331ADDAA106000091GF103991001001999999001011MA1101291101211MD1810091+9999MW1001REMSYN082AAXX  09001 40875 32960 30000 10166 20138 30121 40133 58009 80001 92350 333 83070;MET051OIKB 0000Z 00000MPS CAVOK 17/14 Q1013 A2992 FEW200;EQDQ01+000000PRSWM2Q02  00002PRCP06
0103408750999992000010901004+27220+056370FM-15+0010OIKB V0209999C00001220001CN0099001N1+01701+01401999999ADDMA1101291999999MW1001REMMET051OIKB 0100Z 00000MPS CAVOK 17/14 Q1013 A2992 FEW200;EQDQ01+000000PRSWM2
0103408750999992000010902004+27220+056370FM-15+0010OIKB V0209999C00001220001CN0099001N1+01701+01401999999ADDMA1101291999999MW1001REMMET051OIKB 0200Z 00000MPS CAVOK 17/14 Q1013 A2992 FEW200;EQDQ01+000000PRSWM2
0103408750999992000010903004+27220+056370FM-15+0010OIKB V0209999C00001220001CN0099001N1+01501+01001999999ADDMA1101291999999MW1001REMMET051OIKB 0300Z 00000MPS CAVOK 15/10 Q1013 A2993 SCT200;EQDQ01+000000PRSWM2
0103408750999992000010904004+27220+056370FM-15+0010OIKB V0203601N00201220001CN0099001N1+01601+00901999999ADDMA1101391999999MW1001REMMET051OIKB 0400Z 36002MPS CAVOK 16/09 Q1014 A2996 SCT190;EQDQ01+000000PRSWM2
0103408750999992000010905004+27220+056370FM-15+0010OIKB V0203601N00301220001CN0099001N1+02001+00701999999ADDMA1101491999999MW1001REMMET051OIKB 0500Z 36003MPS CAVOK 20/07 Q1015 A2999 SCT190;EQDQ01+000000PRSWM2
0103408750999992000010907004+27220+056370FM-15+0010OIKB V0200101N00401220001CN0099001N1+02501+00501999999ADDMA1101491999999MW1001REMMET051OIKB 0700Z 01004MPS CAVOK 25/05 Q1015 A2999 SCT190;EQDQ01+000000PRSWM2
0103408750999992000010908004+27220+056370FM-15+0010OIKB V0200201N00401220001CN0099001N1+02601+00501999999ADDMA1101391999999MW1001REMMET051OIKB 0800Z 02004MPS CAVOK 26/05 Q1014 A2996 BKN190;EQDQ01+000000PRSWM2
0105408750999992000010908554+27220+056370FM-15+0010OIKB V0200701N00301220001CN0099001N1+02701+00501999999ADDMA1101291999999MW1001REMMET053OIKB 090855Z 07003MPS CAVOK 27/05 Q1013 A2992 BKN190;EQDQ01+000000PRSWM2
0103408750999992000010910004+27220+056370FM-15+0010OIKB V0200901N00601220001CN0099001N1+02801+00201999999ADDMA1101191999999MW1001REMMET051OIKB 1000Z 09006MPS CAVOK 28/02 Q1012 A2989 BKN190;EQDQ01+000000PRSWM2
0103408750999992000010911004+27220+056370FM-15+0010OIKB V0200801N00501220001CN0099001N1+02801+00101999999ADDMA1101081999999MW1001REMMET051OIKB 1100Z 08005MPS CAVOK 28/01 Q1011 A2988 BKN190;EQDQ01+000000PRSWM2
0284408750999992000010912004+27220+056370SY-MT+0010OIKB V0200801N006010570019N0100001N1+02761+00261101131ADDAA106000091GA1051+057009099GF105991999001999999001091MA1101081101011MD1710201+9999MW1001REMSYN076AAXX  09121 40875 32960 50806 10276 20026 30101 40113 57020 80009 333 85169;MET051OIKB 1200Z 08006MPS CAVOK 28/03 Q1011 A2986 BKN190;EQDQ01+000002SCOTLCQ02+000000PRSWM2Q03  00002PRCP06
0103408750999992000010913004+27220+056370FM-15+0010OIKB V0200801N00501220001CN0099001N1+02701+00101999999ADDMA1101081999999MW1001REMMET051OIKB 1300Z 08005MPS CAVOK 27/01 Q1011 A2986 SCT200;EQDQ01+000000PRSWM2
0110408750999992000010914004+27220+056370FM-15+0010OIKB V0200601N00301220001CN0099001N1+02501+00201999999ADDMA1101081999999MW1001REMMET058OIKB 1400Z 06003MPS CAVOK 25/02 Q1011 A2986 FEW120 SCT200;EQDQ01+000000PRSWM2
0295408750999992000010915004+27220+056370SY-MT+0010OIKB V0200201N003012200019N0100001N1+02241+00491101161ADDGA1011+036009079GA2031+060009099GF104991011001999999031091KA1120M+02861MA1101081101041MD1310031+9999MW1001REMSYN094AAXX  09151 40875 42960 40203 10224 20049 30104 40116 53003 81039 91450 333 10286 81362 83170;MET058OIKB 1500Z 02003MPS CAVOK 22/05 Q1011 A2987 FEW120 SCT200;EQDQ01+000000PRSWM2
0103408750999992000010916004+27220+056370FM-15+0010OIKB V0203601N00201220001CN0099001N1+02201+00301999999ADDMA1101191999999MW1001REMMET051OIKB 1600Z 36002MPS CAVOK 22/03 Q1012 A2989 FEW120;EQDQ01+000000PRSWM2
0103408750999992000010917004+27220+056370FM-15+0010OIKB V0209999C00001220001CN0099001N1+02201+00401999999ADDMA1101191999999MW1001REMMET051OIKB 1700Z 00000MPS CAVOK 22/04 Q1012 A2989 FEW100;EQDQ01+000000PRSWM2
0309408750999992000010918004+27220+056370SY-MT+0010OIKB V0209999C000012200019N0100001N1+01961+00241101201ADDAA106000091GA1021+030009079GF103991021001999999031011KA1120N+99999MA1101191101081MD1110041+9999MW1001REMSYN088AAXX  09181 40875 32960 30000 10196 20024 30108 40120 51004 82031 91750 333 21195 82360;MET051OIKB 1800Z 00000MPS CAVOK 20/02 Q1012 A2989 FEW100;EQDQ01+000000PRSWM2Q02  00002PRCP06Q03 -01952ATMN  
0112408750999992000010918504+27220+056370FM-15+0010OIKB V0209999C00001220001CN0099001N1+01801+00101999999ADDMA1101191999999MW1001REMMET060OIKB 091850Z 00000MPS CAVOK 18/01 Q1012 A2989 SCT100 FEW200;EQDQ01+000000PRSWM2
0112408750999992000010919504+27220+056370FM-15+0010OIKB V0209999C00001220001CN0099001N1+01701+00201999999ADDMA1101191999999MW1001REMMET060OIKB 091950Z 00000MPS CAVOK 17/02 Q1012 A2989 SCT100 FEW200;EQDQ01+000000PRSWM2
0105408750999992000010920504+27220+056370FM-15+0010OIKB V0209999C00001220001CN0099001N1+01801+00201999999ADDMA1101081999999MW1001REMMET053OIKB 092050Z 00000MPS CAVOK 18/02 Q1011 A2988 SCT100;EQDQ01+000000PRSWM2
0165408750999992000010921004+27220+056370FM-12+0010OIKB V0209999C000012200019N0100001N1+01761+00231101181ADDGA1031+030009079GF104991021001999999031011MA1999999101061MD1810021+9999REMSYN082AAXX  09211 40875 42960 40000 10176 20023 30106 40118 58002 82031 92050 333 83360;
0258408750999992000011000004+27220+056370SY-MT+0010OIKB V0209999C000012200019N0100001N1+01801+00401101091ADDAA106000091GF103991031001999999031001MA1999999100971MD1810091+9999MW1001REMSYN082AAXX  10001 40875 32960 30000 10180 20040 30097 40109 58009 83030 92350 333 83360;MET051OIKB 0000Z 00000MPS CAVOK SCT200 18/04 Q1010 A2985;EQDQ01+000000PRSWM2Q02  00002PRCP06
0167408750999992000011001004+27220+056370FM-15+0010OIKB V0209999C000012200019N0112651N1+01701+00601999999ADDGA1021+010509999GA2021+030009999GF104991999999999999999999MA1101021999999MW1001REMMET057OIKB 0100Z 00000MPS 9999 FEW035 SCT100 17/06 Q1010 A2985;EQDQ01+000000PRSWM2
0167408750999992000011002004+27220+056370FM-15+0010OIKB V0209999C000012200019N0112651N1+01701+00601999999ADDGA1021+010509999GA2021+030009999GF104991999999999999999999MA1101021999999MW1001REMMET057OIKB 0200Z 00000MPS 9999 FEW035 SCT100 17/06 Q1010 A2985;EQDQ01+000000PRSWM2
0167408750999992000011003004+27220+056370FM-15+0010OIKB V0209999C000012200019N0112651N1+01701+00601999999ADDGA1021+010509999GA2021+030009999GF104991999999999999999999MA1101081999999MW1001REMMET057OIKB 0300Z 00000MPS 9999 SCT035 SCT100 17/06 Q1011 A2988;EQDQ01+000000PRSWM2
0169408750999992000011003504+27220+056370FM-15+0010OIKB V0209999C000010300019N0112651N1+01601+01301999999ADDGA1021+009009999GA2071+030009999GF107991999999999999999999MA1101191999999MW1001REMMET059OIKB 100350Z 00000MPS 9999 FEW030 BKN100 16/13 Q1012 A2990;EQDQ01+000000PRSWM2
0167408750999992000011005004+27220+056370FM-15+0010OIKB V0209999C000010300019N0112651N1+01801+00901999999ADDGA1021+009009999GA2071+030009999GF107991999999999999999999MA1101191999999MW1001REMMET057OIKB 0500Z 00000MPS 9999 SCT030 BKN100 18/09 Q1012 A2991;EQDQ01+000000PRSWM2
0167408750999992000011006004+27220+056370FM-15+0010OIKB V0200901N003010300019N0112651N1+02201+00401999999ADDGA1021+009009999GA2071+030009999GF107991999999999999999999MA1101191999999MW1001REMMET057OIKB 0600Z 09003MPS 9999 SCT030 BKN100 22/04 Q1012 A2991;EQDQ01+000000PRSWM2
0167408750999992000011007004+27220+056370FM-15+0010OIKB V0200601N002010300019N0112651N1+02401+00501999999ADDGA1021+009009999GA2071+030009999GF107991999999999999999999MA1101191999999MW1001REMMET057OIKB 0700Z 06002MPS 9999 SCT030 BKN100 24/05 Q1012 A2991;EQDQ01+000000PRSWM2
0167408750999992000011008004+27220+056370FM-15+0010OIKB V0201301N002010300019N0112651N1+02501+00701999999ADDGA1021+009009999GA2071+030009999GF107991999999999999999999MA1101191999999MW1001REMMET057OIKB 0800Z 13002MPS 9999 FEW030 BKN100 25/07 Q1012 A2989;EQDQ01+000000PRSWM2
0167408750999992000011009004+27220+056370FM-15+0010OIKB V0202101N003012200019N0112651N1+02501+00301999999ADDGA1021+009009999GA2021+030009999GF104991999999999999999999MA1101021999999MW1001REMMET057OIKB 0900Z 21003MPS 9999 FEW030 SCT100 25/03 Q1010 A2985;EQDQ01+000000PRSWM2
0146408750999992000011009504+27220+056370FM-15+0010OIKB V0201801N004012200019N0112651N1+02501+00801999999ADDGA1021+009009999GF102991999999999999999999MA1101021999999MW1001REMMET052OIKB 100950Z 18004MPS 9999 FEW030 25/08 Q1010 A2983;EQDQ01+000000PRSWM2
0167408750999992000011011004+27220+056370FM-15+0010OIKB V0202101N003012200019N0112651N1+02501+01101999999ADDGA1021+009009999GA2021+030009999GF104991999999999999999999MA1100911999999MW1001REMMET057OIKB 1100Z 21003MPS 9999 FEW030 SCT100 25/11 Q1009 A2981;EQDQ01+000000PRSWM2
0302408750999992000011012004+27220+056370SY-MT+0010OIKB V0201901N003012200019N0100001N1+02521+01281100901ADDAA106000091GA1021+009009999GA2021+030009999GF103991011041008001031001MA1100911100781MD1710171+9999MW1001REMSYN088AAXX  10121 40875 32560 31903 10252 20128 30078 40090 57017 81430 91150 333 81630 83360;MET057OIKB 1200Z 19003MPS 9999 FEW030 SCT100 25/13 Q1009 A2980;EQDQ01+000000PRSWM2Q02  00002PRCP06
0167408750999992000011013004+27220+056370FM-15+0010OIKB V0201801N003012200019N0112651N1+02401+01301999999ADDGA1021+009009999GA2021+030009999GF104991999999999999999999MA1100911999999MW1001REMMET057OIKB 1300Z 18003MPS 9999 FEW030 SCT100 24/13 Q1009 A2980;EQDQ01+000000PRSWM2
0167408750999992000011014004+27220+056370FM-15+0010OIKB V0209999C000012200019N0112651N1+02301+01701999999ADDGA1021+009009999GA2021+030009999GF104991999999999999999999MA1100911999999MW1001REMMET057OIKB 1400Z 00000MPS 9999 FEW030 SCT100 23/17 Q1009 A2980;EQDQ01+000000PRSWM2
0294408750999992000011015004+27220+056370SY-MT+0010OIKB V0202101N003012200019N0100001N1+02221+01511100901ADDGA1021+009009999GA2021+030009999GF103991011041008001031001KA1120M+02651MA1100911100781MD1410001+9999MW1001REMSYN094AAXX  10151 40875 42560 32103 10222 20151 30078 40090 54000 81430 91450 333 10265 81630 83360;MET057OIKB 1500Z 21003MPS 9999 FEW030 SCT100 22/15 Q1009 A2980;EQDQ01+000000PRSWM2
0183408750999992000011016004+27220+056370FM-15+0010OIKB V0202701N006012200019N9999999N1+02301+01601999999ADDGA1021+009009999GA2021+030009999GF104991999999999999999999MA1100911999999MW1001REMMET057OIKB 1600Z 27006MPS 7000 FEW030 SCT100 23/16 Q1009 A2980;EQDQ01+070002VODIS Q02+000000PRSWM2
0208408750999992000011017004+27220+056370FM-15+0010OIKB V0202201N005012200019N9999999N1+02201+01401999999ADDGA1021+009009099GA2021+009009999GA3021+030009999GF104991999999999999999999MA1100911999999MW1001REMMET066OIKB 1700Z 22005MPS 7000 FEW030CB FEW030 SCT100 22/14 Q1009 A2980;EQDQ01+070002VODIS Q02+000000PRSWM2
0390408750999992000011018004+27220+056370SY-MT+0010OIKB V0202301N006012200019N0070001N1+02101+01461100891ADDAA106000091AY111061AY211061GA1021+009009099GA2021+009009999GA3021+030009999GF104991031031008001031001KA1120N-00451MA1100811100771MD1810011+9999MW1051REMSYN106AAXX  10181 40875 31557 42306 10210 20146 30077 40089 58001 70511 83330 91750 333 21045 81930 82630 83360;MET066OIKB 1800Z 23006MPS 7000 FEW030CB FEW030 SCT100 21/15 Q1008 A2979;EQDQ01+000000PRSWM2Q02  00002PRCP06Q03    003PRSWM1
0208408750999992000011019004+27220+056370FM-15+0010OIKB V0202201N006012200019N9999999N1+02001+01401999999ADDGA1021+009009099GA2021+009009999GA3021+030009999GF104991999999999999999999MA1100811999999MW1001REMMET066OIKB 1900Z 22006MPS 7000 FEW030CB FEW030 SCT100 20/14 Q1008 A2978;EQDQ01+070002VODIS Q02+000000PRSWM2
0208408750999992000011020004+27220+056370FM-15+0010OIKB V0202501N006012200019N9999999N1+02001+01401999999ADDGA1021+009009099GA2021+009009999GA3021+030009999GF104991999999999999999999MA1100811999999MW1001REMMET066OIKB 2000Z 25006MPS 7000 FEW030CB FEW030 SCT100 20/14 Q1008 A2977;EQDQ01+070002VODIS Q02+000000PRSWM2
0344408750999992000011021004+27220+056370SY-MT+0010OIKB V0203101N005012200019N0060001N1+01941+01331100811ADDAY111031AY211031GA1021+009009099GA2021+009009999GA3021+030009999GF104991031031008001031001MA1100811100691MD1610081+9999MW1051REMSYN100AAXX  10211 40875 41556 43105 10194 20133 30069 40081 56008 70511 83330 92050 333 81930 82630 83360;MET066OIKB 2100Z 31005MPS 6000 FEW030CB FEW030 SCT100 19/13 Q1008 A2977;EQDQ01+000000PRSWM2Q02    003PRSWM1
0192408750999992000011101004+27220+056370FM-15+0010OIKB V0209999C000012200019N0060001N1+01801+01301999999ADDGA1021+009009099GA2021+009009999GA3021+030009999GF104991999999999999999999MA1100811999999MW1001REMMET066OIKB 0100Z 00000MPS 6000 FEW030CB FEW030 SCT100 18/13 Q1008 A2978;EQDQ01+000000PRSWM2
0144408750999992000011102004+27220+056370FM-15+0010OIKB V0209999C000012200019N0060001N1+01701+01201999999ADDGA1021+009009999GF104991999999999999999999MA1100811999999MW1001REMMET050OIKB 0200Z 00000MPS 6000 SCT030 17/12 Q1008 A2979;EQDQ01+000000PRSWM2
0111408750999992000011103004+27220+056370FM-15+0010OIKB V0209999C000012200019N9999999N1+01401+00801999999ADDMA1101021999999MW1001REMMET043OIKB 0300Z 00000MPS 6000 14/08 Q1010 A2983;EQDQ01+060002VODIS Q02+000000PRSWM2
0165408750999992000011103504+27220+056370FM-15+0010OIKB V0203201N002012200019N0050001N1+01501+01101999999ADDGA1021+010509999GF104991999999999999999999MA1101081999999MW1051REMMET055OIKB 110350Z 32002MPS 5000 HZ SCT035 15/11 Q1011 A2987;EQDQ01+000003PRSWM1Q02    003PRSWM1
0145408750999992000011104504+27220+056370FM-15+0010OIKB V0209999C000012200019N0060001N1+01801+01301999999ADDGA1021+010509999GF104991999999999999999999MA1101191999999MW1001REMMET051OIKB 110450Z 00000MPS 6000 SCT035 18/13 Q1012 2991;EQDQ01+000000PRSWM2
0162408750999992000011105504+27220+056370FM-15+0010OIKB V0203601N003012200019N9999999N1+01901+01201999999ADDGA1021+010509999GF104991999999999999999999MA1101291999999MW1001REMMET052OIKB 110550Z 36003MPS 6000 SCT035 19/12 Q1013 A2992;EQDQ01+060002VODIS Q02+000000PRSWM2
0188408750999992000011106504+27220+056370FM-15+0010OIKB V0200601N005012200019N9999999N1+02101+01101999999ADDGA1021+009009029GA2021+010509999GF104991999999999999999999MA1101291999999MW1001REMMET062OIKB 110650Z 06005MPS 6000 FEW030TCU SCT035 21/11 Q1013 A2992;EQDQ01+060002VODIS Q02+000000PRSWM2
0188408750999992000011107504+27220+056370FM-15+0010OIKB V0200301N002012200019N9999999N1+02201+01101999999ADDGA1021+009009029GA2021+010509999GF104991999999999999999999MA1101191999999MW1001REMMET062OIKB 110750Z 03002MPS 7000 FEW030TCU SCT035 22/11 Q1012 A2991;EQDQ01+070002VODIS Q02+000000PRSWM2
0188408750999992000011108504+27220+056370FM-15+0010OIKB V0201201N003012200019N9999999N1+02201+01001999999ADDGA1021+007509029GA2021+009009999GF104991999999999999999999MA1101081999999MW1001REMMET062OIKB 110850Z 12003MPS 7000 FEW025TCU SCT030 22/10 Q1011 A2988;EQDQ01+070002VODIS Q02+000000PRSWM2
0199408750999992000011109004+27220+056370FM-12+0010OIKB V0201201N003012200019N0070001N1+02241+01021101181ADDAY111031AY211031GA1011+007509089GF104991041021008001001001MA1999999101061MD1810131+9999MW1051REMSYN094AAXX  11091 40875 41557 41203 10224 20102 30106 40118 58013 70511 84200 90850 333 81825 83630;
0188408750999992000011109504+27220+056370FM-15+0010OIKB V0209999C000012200019N9999999N1+02301+01301999999ADDGA1021+007509029GA2021+009009999GF104991999999999999999999MA1101081999999MW1001REMMET062OIKB 110950Z 00000MPS 7000 FEW025TCU SCT030 23/13 Q1011 A2986;EQDQ01+070002VODIS Q02+000000PRSWM2
0163408750999992000011111004+27220+056370FM-15+0010OIKB V0202101N003010090019N0050001N1+02301+01301999999ADDGA1071+009009999GF107991999999999999999999MA1101021999999MW1051REMMET053OIKB 1100Z 21003MPS 5000 HZ BKN030 23/13 Q1010 A2985;EQDQ01+000003PRSWM1Q02    003PRSWM1
0298408750999992000011112004+27220+056370SY-MT+0010OIKB V0202301N002012200019N0050001N1+02241+01241101091ADDAA106000091AY111061AY211061GA1021+009009999GF104991041041008001001001MA1101021100971MD1510091+9999MW1051REMSYN088AAXX  11121 40875 31550 42302 10224 20124 30097 40109 55009 70511 84400 91150 333 84630;MET053OIKB 1200Z 23002MPS 5000 HZ SCT030 22/12 Q1010 A2985;EQDQ01  00002PRCP06Q02    003PRSWM1
0163408750999992000011113004+27220+056370FM-15+0010OIKB V0202101N003012200019N0050001N1+02201+01201999999ADDGA1021+009009999GF102991999999999999999999MA1101021999999MW1051REMMET053OIKB 1300Z 21003MPS 5000 HZ FEW030 22/12 Q1010 A2985;EQDQ01+000003PRSWM1Q02    003PRSWM1
0163408750999992000011114004+27220+056370FM-15+0010OIKB V0202101N004012200019N0050001N1+02101+01001999999ADDGA1021+009009999GF102991999999999999999999MA1101081999999MW1051REMMET053OIKB 1400Z 21004MPS 5000 HZ FEW030 21/10 Q1011 A2986;EQDQ01+000003PRSWM1Q02    003PRSWM1
0163408750999992000011115004+27220+056370FM-15+0010OIKB V0202101N003012200019N0050001N1+02101+01001999999ADDGA1021+009009999GF102991999999999999999999MA1101191999999MW1051REMMET053OIKB 1500Z 21003MPS 5000 HZ FEW030 21/10 Q1012 A2989;EQDQ01+000003PRSWM1Q02    003PRSWM1
0163408750999992000011116004+27220+056370FM-15+0010OIKB V0202401N003012200019N0050001N1+02001+01001999999ADDGA1021+009009999GF102991999999999999999999MA1101291999999MW1051REMMET053OIKB 1600Z 24003MPS 5000 HZ FEW030 20/10 Q1013 A2992;EQDQ01+000003PRSWM1Q02    003PRSWM1
0163408750999992000011117004+27220+056370FM-15+0010OIKB V0202801N002012200019N0050001N1+01901+01001999999ADDGA1021+009009999GF102991999999999999999999MA1101291999999MW1051REMMET053OIKB 1700Z 28002MPS 5000 HZ FEW030 19/10 Q1013 A2993;EQDQ01+000003PRSWM1Q02    003PRSWM1
0286408750999992000011118004+27220+056370SY-MT+0010OIKB V0209999C000012200019N0050001N1+01581+00971101351ADDAA106000091AY101061AY201061GF100991001001999999001001KA1999N+99999MA1101291101231MD1110141+9999MW1051REMSYN082AAXX  11181 40875 31950 00000 10158 20097 30123 40135 51014 70500 91750 333 20984;MET050OIKB 1800Z 00000MPS 5000 HZ SKC 16/10 Q1013 A2993;EQDQ01  00002PRCP06Q02    003PRSWM1
0144408750999992000011119004+27220+056370FM-15+0010OIKB V0200101N002012200019N0050001N1+01601+00601999999ADDGF100991999999999999999999MA1101291999999MW1051REMMET050OIKB 1900Z 01002MPS 5000 HZ SKC 16/06 Q1013 A2993;EQDQ01+000003PRSWM1Q02    003PRSWM1
0144408750999992000011120004+27220+056370FM-15+0010OIKB V0200101N002012200019N0050001N1+01501+00701999999ADDGF100991999999999999999999MA1101291999999MW1051REMMET050OIKB 2000Z 01002MPS 5000 HZ SKC 15/07 Q1013 A2993;EQDQ01+000003PRSWM1Q02    003PRSWM1
0240408750999992000011121004+27220+056370SY-MT+0010OIKB V0203601N002012200019N0050001N1+01441+00601101351ADDAY101031AY201031GF100991001001999999001001MA1101291101231MD1410001+9999MW1051REMSYN076AAXX  11211 40875 41950 03602 10144 20060 30123 40135 54000 70500 92050 333;MET050OIKB 2100Z 36002MPS 5000 HZ SKC 14/06 Q1013 A2993;EQDQ01    003PRSWM1
0141408750999992000011200004+27220+056370FM-15+0010OIKB V0200101N002012200019N9999999N1+01301+00501999999ADDGF100991999999999999999999MA1101291999999MW1001REMMET047OIKB 0000Z 01002MPS 6000 SKC 13/05 Q1013 A2992;EQDQ01+060002VODIS Q02+000000PRSWM2
0141408750999992000011201004+27220+056370FM-15+0010OIKB V0200101N002012200019N9999999N1+01301+00501999999ADDGF100991999999999999999999MA1101291999999MW1001REMMET047OIKB 0100Z 01002MPS 6000 SKC 13/05 Q1013 A2992;EQDQ01+060002VODIS Q02+000000PRSWM2
0141408750999992000011202004+27220+056370FM-15+0010OIKB V0200101N002012200019N0099001N1+01201+00401999999ADDGF100991999999999999999999MA1101291999999MW1001REMMET047OIKB 0200Z 01002MPS 7000 SKC 12/04 Q1013 A2994;EQDQ01+070002VODIS Q02+000000PRSWM2
0096408750999992000011203004+27220+056370FM-15+0010OIKB V0200101N00301220001CN0099001N1+01301+00501999999ADDMA1101391999999MW1001REMMET044OIKB 0300Z 01003MPS CAVOK 13/05 Q1014 A2996;EQDQ01+000000PRSWM2
0127408750999992000011204004+27220+056370FM-15+0010OIKB V0209999C000012200019N0080001N1+01301+00501999999ADDGF100991999999999999999999MA1101491999999MW1001REMMET049OIKB 120355Z 00000MPS 8000 SKC 13/05 Q1015 A2999;EQDQ01+000000PRSWM2
0125408750999992000011205004+27220+056370FM-15+0010OIKB V0200401N005012200019N0080001N1+01501+00401999999ADDGF100991999999999999999999MA1101491999999MW1001REMMET047OIKB 0500Z 04005MPS 8000 SKC 15/04 Q1015 A3000;EQDQ01+000000PRSWM2
0298408750999992000011206004+27220+056370SY-MT+0010OIKB V0200601N005012200019N0080001N1+01861+00471101661ADDAA106000091AY101061AY201061GF100991001001999999001001MA1101591101541MD1210201+9999MW1051REMSYN094AAXX  12061 40875 31958 00605 10186 20047 30154 40166 52020 70500 90550 333 30090 50631 70000;MET047OIKB 0600Z 06005MPS 8000 SKC 19/05 Q1016 A3002;EQDQ01+000000PRSWM2Q02  00002PRCP06Q03    003PRSWM1
0102408750999992000011207004+27220+056370FM-15+0010OIKB V0200601N004012200019N0080001N1+02001+00501999999ADDMA1101591999999MW1001REMMET050OIKB 0700Z 06004MPS 8000 20/05 Q1016 A3001 FEW030;EQDQ01+000000PRSWM2
0144408750999992000011208004+27220+056370FM-15+0010OIKB V0200601N002012200019N0080001N1+02201+00601999999ADDGA1021+009009999GF102991999999999999999999MA1101491999999MW1001REMMET050OIKB 0800Z 06002MPS 8000 FEW030 22/06 Q1015 A3000;EQDQ01+000000PRSWM2
0146408750999992000011208504+27220+056370FM-15+0010OIKB V0209999C000012200019N0080001N1+02201+00701999999ADDGA1021+009009999GF102991999999999999999999MA1101391999999MW1001REMMET052OIKB 120850Z 00000MPS 8000 FEW030 22/07 Q1014 A2996;EQDQ01+000000PRSWM2
0193408750999992000011209004+27220+056370FM-12+0010OIKB V0209999C000012200019N0080001N1+02201+00671101461ADDAY101031AY201031GA1011+009009029GF101991011011008001001001MA1999999101341MD1710201+9999MW1051REMSYN088AAXX  12091 40875 41558 10000 10220 20067 30134 40146 57020 70500 81100 90850 333 81830;
0144408750999992000011210004+27220+056370FM-15+0010OIKB V0201801N005012200019N0080001N1+02301+00601999999ADDGA1021+009009999GF102991999999999999999999MA1101291999999MW1001REMMET050OIKB 1000Z 18005MPS 8000 FEW030 23/06 Q1013 A2993;EQDQ01+000000PRSWM2
0146408750999992000011210504+27220+056370FM-15+0010OIKB V0201801N006012200019N0112651N1+02301+00601999999ADDGA1021+009009999GF102991999999999999999999MA1101291999999MW1001REMMET052OIKB 121050Z 18006MPS 9999 FEW030 23/06 Q1013 A2992;EQDQ01+000000PRSWM2
0146408750999992000011211504+27220+056370FM-15+0010OIKB V0201801N005012200019N0112651N1+02201+00501999999ADDGA1021+009009999GF102991999999999999999999MA1101291999999MW1001REMMET052OIKB 121150Z 18005MPS 9999 FEW030 22/05 Q1013 A2992;EQDQ01+000000PRSWM2
0195408750999992000011212004+27220+056370FM-12+0010OIKB V0201801N005012200019N0100001N1+02241+00541101331ADDAA106000091GA1011+009009059GF102991011041008001031001MA1999999101211MD1610131+9999REMSYN082AAXX  12121 40875 32560 21805 10224 20054 30121 40133 56013 81430 91150 333 81630;EQDQ01  00002PRCP06
0146408750999992000011212504+27220+056370FM-15+0010OIKB V0201901N004012200019N0112651N1+02201+00801999999ADDGA1021+009009999GF102991999999999999999999MA1101291999999MW1001REMMET052OIKB 121250Z 19004MPS 9999 FEW030 22/08 Q1013 A2992;EQDQ01+000000PRSWM2
0146408750999992000011213504+27220+056370FM-15+0010OIKB V0201901N003012200019N0112651N1+02101+01001999999ADDGA1021+009009999GF102991999999999999999999MA1101291999999MW1001REMMET052OIKB 121350Z 19003MPS 9999 FEW030 21/10 Q1013 A2994;EQDQ01+000000PRSWM2
0098408750999992000011214504+27220+056370FM-15+0010OIKB V0209999C00001220001CN0099001N1+01801+00901999999ADDMA1101391999999MW1001REMMET046OIKB 121450Z 00000MPS CAVOK 18/09 Q1014 A2996;EQDQ01+000000PRSWM2
0172408750999992000011215004+27220+056370FM-12+0010OIKB V0209999C000012200019N0100001N1+01761+00931101441ADDGA1001+999999999GF100991001001999999001001KA1999M+02361MA1999999101321MD1310111+9999REMSYN076AAXX  12151 40875 42960 00000 10176 20093 30132 40144 53011 91450 333 10236;
0098408750999992000011215504+27220+056370FM-15+0010OIKB V0202201N00201220001CN0099001N1+01601+01001999999ADDMA1101491999999MW1001REMMET046OIKB 121550Z 22002MPS CAVOK 16/10 Q1015 A2997;EQDQ01+000000PRSWM2
0096408750999992000011217004+27220+056370FM-15+0010OIKB V0209999C00001220001CN0099001N1+01501+00901999999ADDMA1101491999999MW1001REMMET044OIKB 1700Z 00000MPS CAVOK 15/09 Q1015 A2999;EQDQ01+000000PRSWM2
0096408750999992000011218004+27220+056370FM-15+0010OIKB V0209999C00001220001CN0099001N1+01401+00901999999ADDMA1101491999999MW1001REMMET044OIKB 1800Z 00000MPS CAVOK 14/09 Q1015 A2999;EQDQ01+000000PRSWM2
0096408750999992000011219004+27220+056370FM-15+0010OIKB V0200101N00201220001CN0099001N1+01501+00801999999ADDMA1101591999999MW1001REMMET044OIKB 1900Z 01002MPS CAVOK 15/08 Q1016 A3001;EQDQ01+000000PRSWM2
0103408750999992000011220004+27220+056370FM-15+0010OIKB V0203601N00201220001CN0099001N1+01501+00401999999ADDMA1101591999999MW1001REMMET051OIKB 2000Z 36002MPS CAVOK 15/04 Q1016 A3001 FEW200;EQDQ01+000000PRSWM2
0103408750999992000011221004+27220+056370FM-15+0010OIKB V0203601N00201220001CN0099001N1+01501+00401999999ADDMA1101591999999MW1001REMMET051OIKB 2100Z 36002MPS CAVOK 15/04 Q1016 A3001 FEW200;EQDQ01+000000PRSWM2
0096408750999992000011300004+27220+056370FM-15+0010OIKB V0200501N00201220001CN0099001N1+01401+00201999999ADDMA1101591999999MW1001REMMET044OIKB 0000Z 05002MPS CAVOK 14/02 Q1016 A3001;EQDQ01+000000PRSWM2
0096408750999992000011301004+27220+056370FM-15+0010OIKB V0200501N00201220001CN0099001N1+01401+00201999999ADDMA1101591999999MW1001REMMET044OIKB 0100Z 05002MPS CAVOK 14/02 Q1016 A3001;EQDQ01+000000PRSWM2
0096408750999992000011302004+27220+056370FM-15+0010OIKB V0200501N00201220001CN0099001N1+01401+00401999999ADDMA1101591999999MW1001REMMET044OIKB 0200Z 05002MPS CAVOK 14/04 Q1016 A3001;EQDQ01+000000PRSWM2
0161408750999992000011303004+27220+056370FM-15+0010OIKB V0200301N003012200019N0112651N1+01501-00402999999ADDGA1021+009009999GF104991999999999999999999MA1101801999999MW1001REMMET051OIKB 0300Z 03003MPS 9999 SCT030 15/M04 Q1018 A3008;EQDQ01-000403ATOD  Q02+000000PRSWM2
0145408750999992000011304004+27220+056370FM-15+0010OIKB V0200601N004012200019N0112651N1+01501-00401999999ADDGA1021+009009999GF104991999999999999999999MA1101801999999MW1001REMMET051OIKB 0400Z 06004MPS 9999 SCT030 15/M04 Q1018 A3009;EQDQ01+000000PRSWM2
0145408750999992000011305004+27220+056370FM-15+0010OIKB V0200601N008012200019N0112651N1+01701-00501999999ADDGA1021+009009999GF104991999999999999999999MA1101901999999MW1001REMMET051OIKB 0500Z 06008MPS 9999 SCT030 17/M05 Q1019 A3010;EQDQ01+000000PRSWM2
0317408750999992000011306004+27220+056370SY-MT+0010OIKB V0200601N010012200019N0060001N1+01861-00481102011ADDAA106000091AY111061AY201061GA1021+009009999GF103991031041999999001001MA1102001101891MD1210151+9999MW1071REMSYN106AAXX  13061 40875 31956 30610 10186 21048 30189 40201 52015 70710 83400 90550 333 30011 50721 70000 83630;MET054OIKB 0600Z 06010MPS 5000 SA SCT030 19/M05 Q1020 A3012;EQDQ01  00002PRCP06Q02    003PRSWM1
0112408750999992000011307004+27220+056370FM-16+0010OIKB V0200601N009012200019N0040001N1+99999+99999999999ADDMA1102031999999MW1001MW2071REMMET054OIKB 0700Z 06009MPS 4000 SA ? P07  00WA 5 Q1020 A3013;EQDQ01+000003PRSWM1
0164408750999992000011308004+27220+056370FM-15+0010OIKB V0200601N009012200019N0040001N1+02101-00601999999ADDGA1021+009009999GF104991999999999999999999MA1101901999999MW1071REMMET054OIKB 0800Z 06009MPS 4000 SA SCT030 21/M06 Q1019 A3011;EQDQ01+000003PRSWM1Q02    003PRSWM1
0262408750999992000011309004+27220+056370SY-MT+0010OIKB V0200601N008012200019N0040001N1+02201-00501101871ADDAY111031AY211031GA1021+009009999GF103991031011008001001001MA1101801101751MD1810141+9999MW1071REMSYN078AAXX  13091 40875 41540 30608 10220 21050 30175 40187 58014 70711 83100 90850;MET054OIKB 0900Z 06008MPS 4000 SA SCT030 22/M05 Q1018 A3008;EQDQ01    003PRSWM1
0164408750999992000011310004+27220+056370FM-15+0010OIKB V0200601N008012200019N0050001N1+02201-00401999999ADDGA1021+009009999GF102991999999999999999999MA1101691999999MW1071REMMET054OIKB 1000Z 06008MPS 5000 SA FEW030 22/M04 Q1017 A3004;EQDQ01+000003PRSWM1Q02    003PRSWM1
0126408750999992000011311004+27220+056370FM-15+0010OIKB V0200601N005012200019N0080001N1+02201+00001999999ADDGF100991999999999999999999MA1101591999999MW1001REMMET048OIKB 1100Z 06005MPS 8000 SKC 22/M00 Q1016 A3002;EQDQ01+000000PRSWM2
0239408750999992000011312004+27220+056370SY-MT+0010OIKB V0200401N003012200019N0100001N1+02301+00191101601ADDAA106000091GF100991001001999999001001MA1101591101481MD1710271+9999MW1001REMSYN070AAXX  13121 40875 32960 00403 10230 20019 30148 40160 57027 91150 333;MET044OIKB 1200Z 04003MPS CAVOK 23/02 Q1016 A3000;EQDQ01+000000PRSWM2Q02  00002PRCP06
0096408750999992000011314004+27220+056370FM-15+0010OIKB V0201701N00301220001CN0099001N1+02101+00501999999ADDMA1101591999999MW1001REMMET044OIKB 1400Z 17003MPS CAVOK 21/05 Q1016 A3001;EQDQ01+000000PRSWM2
0096408750999992000011315004+27220+056370FM-15+0010OIKB V0209999C00001220001CN0099001N1+01901+00601999999ADDMA1101591999999MW1001REMMET044OIKB 1500Z 00000MPS CAVOK 19/06 Q1016 A3002;EQDQ01+000000PRSWM2
0096408750999992000011316004+27220+056370FM-15+0010OIKB V0203601N00201220001CN0099001N1+01501+00501999999ADDMA1101591999999MW1001REMMET044OIKB 1600Z 36002MPS CAVOK 15/05 Q1016 A3003;EQDQ01+000000PRSWM2
0096408750999992000011317004+27220+056370FM-15+0010OIKB V0203601N00201220001CN0099001N1+01501+00501999999ADDMA1101691999999MW1001REMMET044OIKB 1700Z 36002MPS CAVOK 15/05 Q1017 A3004;EQDQ01+000000PRSWM2
0098408750999992000011317504+27220+056370FM-15+0010OIKB V0203601N00301220001CN0099001N1+01501+00101999999ADDMA1101691999999MW1001REMMET046OIKB 131750Z 36003MPS CAVOK 15/01 Q1017 A3005;EQDQ01+000000PRSWM2
0218408750999992000011318004+27220+056370FM-12+0010OIKB V0203601N003012200019N0100001N1+01521+00141101751ADDAA106000091GA1001+999999999GF100991001001999999001001KA1999N+99999MA1999999101631MD1210081+9999REMSYN076AAXX  13181 40875 32960 03603 10152 20014 30163 40175 52008 91750 333 21264;EQDQ01  00002PRCP06Q02 -02642ATMN  
0098408750999992000011318504+27220+056370FM-15+0010OIKB V0203601N00301220001CN0099001N1+01501+00101999999ADDMA1101691999999MW1001REMMET046OIKB 131850Z 36003MPS CAVOK 15/01 Q1017 A3004;EQDQ01+000000PRSWM2
0098408750999992000011319504+27220+056370FM-15+0010OIKB V0203601N00201220001CN0099001N1+01501+00001999999ADDMA1101691999999MW1001REMMET046OIKB 131950Z 36002MPS CAVOK 15/00 Q1017 A3003;EQDQ01+000000PRSWM2
0099408750999992000011320504+27220+056370FM-15+0010OIKB V0203601N00201220001CN0099001N1+01401-00201999999ADDMA1101691999999MW1001REMMET047OIKB 132050Z 36002MPS CAVOK 14/M02 Q1017 A3003;EQDQ01+000000PRSWM2
0099408750999992000011323504+27220+056370FM-15+0010OIKB V0203601N00201220001CN0099001N1+01201-00201999999ADDMA1101591999999MW1001REMMET047OIKB 132350Z 36002MPS CAVOK 12/M02 Q1016 A3002;EQDQ01+000000PRSWM2
0147408750999992000011401504+27220+056370FM-15+0010OIKB V0203601N002012200019N0112651N1+01001+00001999999ADDGA1021+009009999GF102991999999999999999999MA1101591999999MW1001REMMET053OIKB 140150Z 36002MPS 9999 FEW030 10/M00 Q1016 A3002;EQDQ01+000000PRSWM2
0147408750999992000011402504+27220+056370FM-15+0010OIKB V0203601N002012200019N0112651N1+01101+00001999999ADDGA1021+009009999GF102991999999999999999999MA1101691999999MW1001REMMET053OIKB 140250Z 36002MPS 9999 FEW030 11/M00 Q1017 A3004;EQDQ01+000000PRSWM2
0104408750999992000011404004+27220+056370FM-15+0010OIKB V0203601N00201220001CN0099001N1+01101+00001999999ADDMA1101801999999MW1001REMMET052OIKB 0400Z 36002MPS CAVOK 11/M00 Q1018 A3007 FEW100;EQDQ01+000000PRSWM2
0104408750999992000011405004+27220+056370FM-15+0010OIKB V0200301N00201220001CN0099001N1+01501-00101999999ADDMA1101801999999MW1001REMMET052OIKB 0500Z 03002MPS CAVOK 15/M01 Q1018 A3009 FEW100;EQDQ01+000000PRSWM2
0281408750999992000011406004+27220+056370SY-MT+001099999V0200401N004012200019N0100001N1+01741-00331101941ADDAA124000091GF101991011001999999031001MA1101901101821MD1210231+9999MW1001REMSYN104    AAXX  14061 40875 32960 10404 10174 21033 30182 40194 52023 81030 90550 333 30005 50041 70000 81360;MET052OIKB 0600Z 04004MPS CAVOK 17/M03 Q1019 A3010 FEW100;EQDQ01+000000PRSWM2Q02  00002PRCP24
0097408750999992000011407004+27220+056370FM-15+0010OIKB V0200401N00501220001CN0099001N1+02001-00401999999ADDMA1101901999999MW1001REMMET045OIKB 0700Z 04005MPS CAVOK 20/M04 Q1019 A3010;EQDQ01+000000PRSWM2
0097408750999992000011408004+27220+056370FM-15+0010OIKB V0201001N00401220001CN0099001N1+02101-00601999999ADDMA1101801999999MW1001REMMET045OIKB 0800Z 10004MPS CAVOK 21/M06 Q1018 A3008;EQDQ01+000000PRSWM2
0096408750999992000011409004+27220+056370FM-15+0010OIKB V0209999C00001220001CN0099001N1+02201+00001999999ADDMA1101691999999MW1001REMMET044OIKB 0900Z 00000MPS CAVOK 22/00 Q1017 A3004;EQDQ01+000000PRSWM2
0096408750999992000011410004+27220+056370FM-15+0010OIKB V0201801N00401220001CN0099001N1+02301+00201999999ADDMA1101591999999MW1001REMMET044OIKB 1000Z 18004MPS CAVOK 23/02 Q1016 A3001;EQDQ01+000000PRSWM2
0097408750999992000011411004+27220+056370FM-15+0010OIKB V0202001N00501220001CN0099001N1+02301+00001999999ADDMA1101491999999MW1001REMMET045OIKB 1100Z 20005MPS CAVOK 23/M00 Q1015 A3000;EQDQ01+000000PRSWM2
0243408750999992000011412004+27220+056370SY-MT+001099999V0201901N005012200019N0100001N1+02181+00451101551ADDAA199000091GF100991001001999999001001MA1101491101431MD1710181+9999MW1001REMSYN074    AAXX  14121 40875 32960 01905 10218 20045 30143 40155 57018 91150 333;MET044OIKB 1200Z 19005MPS CAVOK 22/05 Q1015 A2999;EQDQ01+000000PRSWM2Q02  00002PRCP99
0096408750999992000011413004+27220+056370FM-15+0010OIKB V0202001N00301220001CN0099001N1+02101+00501999999ADDMA1101491999999MW1001REMMET044OIKB 1300Z 20003MPS CAVOK 21/05 Q1015 A2999;EQDQ01+000000PRSWM2
0096408750999992000011414004+27220+056370FM-15+0010OIKB V0209999C00001220001CN0099001N1+02001+01101999999ADDMA1101491999999MW1001REMMET044OIKB 1400Z 00000MPS CAVOK 20/11 Q1015 A2999;EQDQ01+000000PRSWM2
0096408750999992000011415004+27220+056370FM-15+0010OIKB V0209999C00001220001CN0099001N1+01601+00801999999ADDMA1101591999999MW1001REMMET044OIKB 1500Z 00000MPS CAVOK 16/08 Q1016 A3001;EQDQ01+000000PRSWM2
0096408750999992000011416004+27220+056370FM-15+0010OIKB V0209999C00001220001CN0099001N1+01401+00801999999ADDMA1101591999999MW1001REMMET044OIKB 1600Z 00000MPS CAVOK 14/08 Q1016 A3003;EQDQ01+000000PRSWM2
0096408750999992000011417004+27220+056370FM-15+0010OIKB V0209999C00001220001CN0099001N1+01401+00701999999ADDMA1101691999999MW1001REMMET044OIKB 1700Z 00000MPS CAVOK 14/07 Q1017 A3005;EQDQ01+000000PRSWM2
0249408750999992000011418004+27220+056370SY-MT+001099999V0203601N002012200019N0100001N1+01381+00691101761ADDAA199000091GF100991001001999999001001MA1101691101641MD1110131+9999MW1001REMSYN080    AAXX  14181 40875 32960 03602 10138 20069 30164 40176 51013 91750 333 55093;MET044OIKB 1800Z 36002MPS CAVOK 14/07 Q1017 A3005;EQDQ01+000000PRSWM2Q02  00002PRCP99
0096408750999992000011419004+27220+056370FM-15+0010OIKB V0200101N00201220001CN0099001N1+01301+00601999999ADDMA1101801999999MW1001REMMET044OIKB 1900Z 01002MPS CAVOK 13/06 Q1018 A3007;EQDQ01+000000PRSWM2
0096408750999992000011420004+27220+056370FM-15+0010OIKB V0200101N00201220001CN0099001N1+01301+00501999999ADDMA1101801999999MW1001REMMET044OIKB 2000Z 01002MPS CAVOK 13/05 Q1018 A3007;EQDQ01+000000PRSWM2
0096408750999992000011421004+27220+056370FM-15+0010OIKB V0203601N00201220001CN0099001N1+01401+00201999999ADDMA1101691999999MW1001REMMET044OIKB 2100Z 36002MPS CAVOK 14/02 Q1017 A3006;EQDQ01+000000PRSWM2
0097408750999992000011501004+27220+056370FM-15+0010OIKB V0203601N00201220001CN0099001N1+01301-00101999999ADDMA1101691999999MW1001REMMET045OIKB 0100Z 36002MPS CAVOK 13/M01 Q1017 A3006;EQDQ01+000000PRSWM2
0097408750999992000011502004+27220+056370FM-15+0010OIKB V0200101N00301220001CN0099001N1+01201+00001999999ADDMA1101801999999MW1001REMMET045OIKB 0200Z 01003MPS CAVOK 12/M00 Q1018 A3007;EQDQ01+000000PRSWM2
0104408750999992000011503004+27220+056370FM-15+0010OIKB V0200501N00301220001CN0099001N1+01401-00601999999ADDMA1101801999999MW1001REMMET052OIKB 0300Z 05003MPS CAVOK 14/M06 Q1018 A3008 FEW100;EQDQ01+000000PRSWM2
0147408750999992000011504004+27220+056370FM-15+0010OIKB V0200101N002012200019N0112651N1+01401-00601999999ADDGA1021+012009999GF102991999999999999999999MA1101901999999MW1001REMMET053OIKB 150355Z 01002MPS 9999 FEW040 14/M06 Q1019 A3010;EQDQ01+000000PRSWM2
0147408750999992000011504504+27220+056370FM-15+0010OIKB V0200601N004012200019N0112651N1+01601-00901999999ADDGA1021+012009999GF102991999999999999999999MA1102001999999MW1001REMMET053OIKB 150450Z 06004MPS 9999 FEW040 16/M09 Q1020 A3012;EQDQ01+000000PRSWM2
0147408750999992000011505504+27220+056370FM-15+0010OIKB V0200601N009012200019N0112651N1+01901-01001999999ADDGA1021+010509999GF102991999999999999999999MA1102001999999MW1001REMMET053OIKB 150550Z 06009MPS 9999 FEW035 19/M10 Q1020 A3014;EQDQ01+000000PRSWM2
0217408750999992000011506004+27220+056370FM-12+001099999V0200601N009012200019N0100001N1+01901-01011102051ADDAA124000091GA1011+010509029GF103991011011012501031001MA1999999101931MD1210201+9999REMSYN104    AAXX  15061 40875 32660 30609 10190 21101 30193 40205 52020 81130 90550 333 30007 50351 70000 81835;EQDQ01  00002PRCP24
0166408750999992000011506504+27220+056370FM-15+0010OIKB V0200601N007012200019N0040001N1+02101-01001999999ADDGA1021+027009999GF102991999999999999999999MA1102001999999MW1071REMMET056OIKB 150650Z 06007MPS 4000 SA FEW090 21/M10 Q1020 A3014;EQDQ01+000003PRSWM1Q02    003PRSWM1
0161408750999992000011509004+27220+056370FM-15+0010OIKB V0200701N007012200019N9999999N1+02001-00901999999ADDGA1021+012009999GF102991999999999999999999MA1101801999999MW1001REMMET051OIKB 0900Z 07007MPS 6000 FEW040 20/M09 Q1018 A3008;EQDQ01+060002VODIS Q02+000000PRSWM2
0145408750999992000011510004+27220+056370FM-15+0010OIKB V0200701N005012200019N0080001N1+02301-00501999999ADDGA1021+027009999GF102991999999999999999999MA1101691999999MW1001REMMET051OIKB 1000Z 07005MPS 8000 FEW090 23/M05 Q1017 A3005;EQDQ01+000000PRSWM2
0111408750999992000011511004+27220+056370FM-15+0010OIKB V0200701N00501220001CN0099001N1+02501-00601999999ADDMA1101691999999MW1001REMMET059OIKB 1100Z 07005MPS CAVOK 25/M06 Q1017 A3004 FEW090 SCT180;EQDQ01+000000PRSWM2
0263408750999992000011512004+27220+056370SY-MT+001099999V0201601N005012200019N0100001N1+02241-00161101731ADDAA199000091GF103991021001999999031011MA1101691101611MD1610121+9999MW1001REMSYN086    AAXX  15121 40875 32960 31605 10224 21016 30161 40173 56012 82031 91150 333 82359;MET052OIKB 1200Z 14005MPS CAVOK 22/M02 Q1017 A3004 FEW090;EQDQ01+000000PRSWM2Q02  00002PRCP99
0104408750999992000011513004+27220+056370FM-15+0010OIKB V0201601N00501220001CN0099001N1+02201-00101999999ADDMA1101691999999MW1001REMMET052OIKB 1300Z 16005MPS CAVOK 22/M01 Q1017 A3004 FEW100;EQDQ01+000000PRSWM2
0103408750999992000011514004+27220+056370FM-15+0010OIKB V0201701N00201220001CN0099001N1+02001+00501999999ADDMA1101691999999MW1001REMMET051OIKB 1400Z 17002MPS CAVOK 20/05 Q1017 A3004 FEW100;EQDQ01+000000PRSWM2
0103408750999992000011515004+27220+056370FM-15+0010OIKB V0209999C00001220001CN0099001N1+01701+00501999999ADDMA1101691999999MW1001REMMET051OIKB 1500Z 00000MPS CAVOK 17/05 Q1017 A3005 FEW100;EQDQ01+000000PRSWM2
0167408750999992000011516004+27220+056370FM-15+0010OIKB V0209999C000012200019N0112651N1+01501+00601999999ADDGA1021+012009999GA2021+030009999GF104991999999999999999999MA1101691999999MW1001REMMET057OIKB 1600Z 00000MPS 9999 FEW040 SCT100 15/06 Q1017 A3005;EQDQ01+000000PRSWM2
0167408750999992000011517004+27220+056370FM-15+0010OIKB V0209999C000012200019N0112651N1+01501+00501999999ADDGA1021+012009999GA2021+030009999GF104991999999999999999999MA1101801999999MW1001REMMET057OIKB 1700Z 00000MPS 9999 FEW040 SCT100 15/05 Q1018 A3007;EQDQ01+000000PRSWM2
0325408750999992000011518004+27220+056370SY-MT+001099999V0209999C000012200019N0100001N1+01421+00331101831ADDAA199000091GA1021+010509999GA2021+030009999GF103991011041999999031001KA1120N-01841MA1101801101711MD1110071+9999MW1001REMSYN098    AAXX  15181 40875 32960 30000 10142 20033 30171 40183 51007 81430 91750 333 21184 81635 83360;MET057OIKB 1800Z 00000MPS 9999 FEW035 SCT100 14/03 Q1018 A3007;EQDQ01+000000PRSWM2Q02  00002PRCP99
0167408750999992000011519004+27220+056370FM-15+0010OIKB V0209999C000012200019N0112651N1+01501+00401999999ADDGA1021+010509999GA2021+030009999GF104991999999999999999999MA1101801999999MW1001REMMET057OIKB 1900Z 00000MPS 9999 FEW035 SCT100 15/04 Q1018 A3008;EQDQ01+000000PRSWM2
0167408750999992000011521004+27220+056370FM-15+0010OIKB V0209999C000012200019N0080001N1+01401+00201999999ADDGA1021+010509999GA2021+030009999GF104991999999999999999999MA1101801999999MW1001REMMET057OIKB 2100Z 00000MPS 8000 FEW035 SCT100 14/02 Q1018 A3007;EQDQ01+000000PRSWM2
0144408750999992000011600004+27220+056370FM-15+0010OIKB V0209999C000012200019N0080001N1+01301+00101999999ADDGA1021+010509999GF102991999999999999999999MA1101691999999MW1001REMMET050OIKB 0000Z 00000MPS 8000 FEW035 13/01 Q1017 A3003;EQDQ01+000000PRSWM2
0144408750999992000011601004+27220+056370FM-15+0010OIKB V0209999C000012200019N0080001N1+01301+00101999999ADDGA1021+010509999GF102991999999999999999999MA1101691999999MW1001REMMET050OIKB 0100Z 00000MPS 8000 FEW035 13/01 Q1017 A3003;EQDQ01+000000PRSWM2
0144408750999992000011602004+27220+056370FM-15+0010OIKB V0209999C000012200019N0080001N1+01201+00201999999ADDGA1021+010509999GF102991999999999999999999MA1101591999999MW1001REMMET050OIKB 0200Z 00000MPS 8000 FEW035 12/02 Q1016 A3003;EQDQ01+000000PRSWM2
0168408750999992000011603004+27220+056370FM-15+0010OIKB V0209999C000012200019N0080001N1+01201-00101999999ADDGA1021+010509999GA2021+030009999GF104991999999999999999999MA1101691999999MW1001REMMET058OIKB 0300Z 00000MPS 8000 FEW035 SCT100 12/M01 Q1017 A3004;EQDQ01+000000PRSWM2
0145408750999992000011604004+27220+056370FM-15+0010OIKB V0203601N002010090019N0112651N1+01401-00101999999ADDGA1071+009009999GF107991999999999999999999MA1101691999999MW1001REMMET051OIKB 0400Z 36002MPS 9999 BKN030 14/M01 Q1017 A3005;EQDQ01+000000PRSWM2
0145408750999992000011605004+27220+056370FM-15+0010OIKB V0203601N002012200019N0112651N1+01701-00101999999ADDGA1021+009009999GF104991999999999999999999MA1101691999999MW1001REMMET051OIKB 0500Z 36002MPS 9999 SCT030 17/M01 Q1017 A3005;EQDQ01+000000PRSWM2
0312408750999992000011606004+27220+056370SY-MT+001099999V0200401N003010090019N0100001N1+01941-00231101841ADDAA124000091GA1071+009009999GF199999051041008001001001MA1101801101721MD1210111+9999MW1001REMSYN104    AAXX  16061 40875 32560 50403 10194 21023 30172 40184 52011 85400 90550 333 30009 50501 70000 85630;MET051OIKB 0600Z 04003MPS 9999 BKN030 19/M02 Q1018 A3007;EQDQ01+000052SCOTCVQ02+000000PRSWM2Q03  00002PRCP24
0146408750999992000011606504+27220+056370FM-15+0010OIKB V0200201N003010090019N0112651N1+02201+00101999999ADDGA1071+009009999GF107991999999999999999999MA1101801999999MW1001REMMET052OIKB 160650Z 02003MPS 9999 BKN030 22/01 Q1018 A3007;EQDQ01+000000PRSWM2
0144408750999992000011608004+27220+056370FM-15+0010OIKB V0200501N003010090019N0112651N1+02201+00501999999ADDGA1071+009009999GF107991999999999999999999MA1101691999999MW1001REMMET050OIKB 0800Z 05003MPS 9999 BKN030 22/05 Q1017 A3004;EQDQ01+000000PRSWM2
0192408750999992000011609004+27220+056370FM-15+0010OIKB V0203601N002010300019N0112651N1+02301+00901999999ADDGA1021+007509099GA2021+009009999GA3071+030009999GF107991999999999999999999MA1101591999999MW1001REMMET066OIKB 0900Z 36002MPS 9999 FEW025CB SCT030 BKN100 23/09 Q1016 A3001;EQDQ01+000000PRSWM2
0169408750999992000011610004+27220+056370FM-15+0010OIKB V0202401N002012200019N0112651N1+02301+01301999999ADDGA1021+007509099GA2021+009009999GF104991999999999999999999MA1101391999999MW1001REMMET059OIKB 1000Z 24002MPS 9999 FEW025CB SCT030 23/13 Q1014 A2997;EQDQ01+000000PRSWM2
0194408750999992000011610504+27220+056370FM-15+0010OIKB V0201701N003012200019N0112651N1+02301+01301999999ADDGA1021+007509099GA2021+009009999GA3021+030009999GF104991999999999999999999MA1101391999999MW1001REMMET068OIKB 161050Z 17003MPS 9999 FEW025CB SCT030 SCT100 23/13 Q1014 A2995;EQDQ01+000000PRSWM2
0194408750999992000011611504+27220+056370FM-15+0010OIKB V0201901N003010300019N0112651N1+02201+01301999999ADDGA1021+007509099GA2021+009009999GA3071+030009999GF107991999999999999999999MA1101291999999MW1001REMMET068OIKB 161150Z 19003MPS 9999 FEW025CB FEW030 BKN100 22/13 Q1013 A2994;EQDQ01+000000PRSWM2
0227408750999992000011612004+27220+056370FM-12+001099999V0201901N00301036001CN0100001N1+02241+01291101391ADDAA199000091GA1021+007509099GA2021+009009069GF107991041031008001031001MA1999999101271MD1710241+9999REMSYN098    AAXX  16121 40875 32560 71903 10224 20129 30127 40139 57024 84330 91150 333 82925 82630 85360;EQDQ01  00002PRCP99
0163408750999992000011612504+27220+056370FM-15+0010OIKB V0202301N002012200019N0080001N1+99999+99999999999ADDGA1021+007509099GA2021+009009999GF102991999999999999999999MW1001REMMET068OIKB 161250Z 23002MPS 8000 FEW025CB FEW030 BKN1 0 22/14 Q1014 A2996;EQDQ01+000000PRSWM2
0194408750999992000011613554+27220+056370FM-15+0010OIKB V0209999C000010300019N0080001N1+02201+01501999999ADDGA1021+007509099GA2021+009009999GA3071+030009999GF107991999999999999999999MA1101391999999MW1001REMMET068OIKB 161355Z 00000MPS 8000 FEW025CB FEW030 BKN100 22/15 Q1014 A2996;EQDQ01+000000PRSWM2
0194408750999992000011614504+27220+056370FM-15+0010OIKB V0201601N003010300019N0080001N1+02101+01501999999ADDGA1021+007509099GA2021+009009999GA3071+030009999GF107991999999999999999999MA1101391999999MW1001REMMET068OIKB 161450Z 16003MPS 8000 FEW025CB FEW030 BKN100 21/15 Q1014 A2996;EQDQ01+000000PRSWM2
0210408750999992000011615504+27220+056370FM-15+0010OIKB V0201301N002010270019N9999999N1+02101+01501999999ADDGA1021+007509099GA2021+009009999GA3081+027009999GF108991999999999999999999MA1101391999999MW1001REMMET068OIKB 161550Z 13002MPS 7000 FEW025CB FEW030 OVC090 21/15 Q1014 A2997;EQDQ01+070002VODIS Q02+000000PRSWM2
0210408750999992000011616504+27220+056370FM-15+0010OIKB V0200101N004010270019N9999999N1+02101+01401999999ADDGA1021+007509099GA2021+009009999GA3071+027009999GF107991999999999999999999MA1101491999999MW1001REMMET068OIKB 161650Z 01004MPS 7000 FEW025CB FEW030 BKN090 21/14 Q1015 A2998;EQDQ01+070002VODIS Q02+000000PRSWM2
0397408750999992000011618004+27220+056370SY-MT+001099999V0201701N004010270019N0060001N1+01961+99999101481ADDAA199000091AY121061AY221061GA1021+007509099GA2021+009009999GA3081+027009999GF108991041031008001071999MA1101391101361MD1010021+9999MW1051REMSYN110    AAXX  16181 40875 31556 81704 10196 2137/ 30136 40148 50002 70522 8437/ 91750 333 20872 81925 83630 88459;MET066OIKB 1800Z 17004MPS 6000 FEW025CB SCT030 OVC090 20/14 Q1014 A2997;EQDQ01-003703ATOD  Q02+000000PRSWM2Q03  00002PRCP99Q04    003PRSWM1
0144408750999992000011619004+27220+056370FM-15+0010OIKB V0202001N002012200019N0060001N1+99999+99999999999ADDGA1021+007509099GF102991999999999999999999MW1001REMMET065OIKB 1900Z 20002MPS 6000 FEW025CB ST030 OVC090 19/14 Q1014 A2997;EQDQ01+000000PRSWM2
0211408750999992000011620004+27220+056370FM-15+0010OIKB V0200401N004010240019N0040001N1+01701+01601999999ADDGA1021+007509099GA2021+009009999GA3081+024009999GF108991999999999999999999MA1101391999999MW1101REMMET069OIKB 2000Z 04004MPS 4000 BR FEW025CB SCT030 OVC080 17/16 Q1014 A2995;EQDQ01+000003PRSWM1Q02    003PRSWM1
0211408750999992000011621004+27220+056370FM-15+0010OIKB V0200101N002010240019N0040001N1+01701+01501999999ADDGA1021+007509099GA2021+009009999GA3081+024009999GF108991999999999999999999MA1101391999999MW1101REMMET069OIKB 2100Z 01002MPS 4000 BR FEW025CB SCT030 OVC080 17/15 Q1014 A2994;EQDQ01+000003PRSWM1Q02    003PRSWM1
0358408750999992000011700004+27220+056370SY-MT+001099999V0203501N003010060019N0015001N1+01621+01621101301ADDAA106054191AY191061AY291061GA1071+006009099GA2021+007509999GA3081+024009999GF108991051091004501021999MA1101291101181MD1810101+9999MW1171MW2951REMSYN110    AAXX  17001 40875 11415 83503 10162 20162 30118 40130 58010 60541 79599 8592/ 92350 333 85920 83625 88458;MET069OIKB 0000Z 35003MPS 1500 TS BKN020CB SCT025 OVC080 16/16 Q1013 A2992;EQDQ01    003PRSWM1
0211408750999992000011701004+27220+056370FM-15+0010OIKB V0203501N003010060019N0015001N1+01601+01601999999ADDGA1071+006009099GA2021+007509999GA3081+024009999GF108991999999999999999999MA1101291999999MW1171REMMET069OIKB 0100Z 35003MPS 1500 TS BKN020CB SCT025 OVC080 16/16 Q1013 A2992;EQDQ01+000003PRSWM1Q02    003PRSWM1
0211408750999992000011702004+27220+056370FM-15+0010OIKB V0203501N003010060019N0015001N1+01601+01601999999ADDGA1071+006009099GA2021+007509999GA3081+024009999GF108991999999999999999999MA1101291999999MW1171REMMET069OIKB 0200Z 35003MPS 1500 TS BKN020CB SCT025 OVC080 16/16 Q1013 A2992;EQDQ01+000003PRSWM1Q02    003PRSWM1
0213408750999992000011703004+27220+056370FM-15+0010OIKB V0203401N003010240019N0040001N1+01501+01501999999ADDGA1021+006009099GA2021+007509999GA3081+024009999GF108991999999999999999999MA1101391999999MW1631REMMET071OIKB 0300Z 34003MPS 4000 RASH SCT020CB SCT025 OVC080 15/15 Q1014 A2996;EQDQ01+000003PRSWM1Q02    003PRSWM1
0202408750999992000011704004+27220+056370FM-16+0010OIKB V0200201N002010240019N0030001N1+99999+99999999999ADDGA1021+006009099GA2021+007509999GA3081+024009999GF108991999999999999999999MA1101391999999MW1001MW2611REMMET070OIKB 0400Z 02002MPS 3000 -RA SCT020CB SCT025 OVC080 Q1014 A2996 15/15;EQDQ01+000003PRSWM1
0211408750999992000011705004+27220+056370FM-15+0010OIKB V0203001N002010240019N0030001N1+01501+01501999999ADDGA1021+006009099GA2021+007509999GA3081+024009999GF108991999999999999999999MA1101491999999MW1631REMMET069OIKB 0500Z 30002MPS 3000 RA SCT020CB SCT025 OVC080 15/15 Q1015 A2999;EQDQ01+000003PRSWM1Q02    003PRSWM1
0364408750999992000011706004+27220+056370SY-MT+0010OIKB V0200201N002010240019N0030001N1+01581+01581101641ADDAA106033091AY181061AY261061GA1021+006009099GA2021+007509999GA3081+024009999GF108991061031008001021999MA1101591101521MD1310201+9999MW1631REMSYN122    AAXX  17061 40875 11530 80202 10158 20158 30152 40164 53020 60331 76386 8632/ 90550 333 31015 70874 83920 83635 88458;MET069OIKB 0600Z 02002MPS 3000 RA SCT020CB SCT025 OVC080 16/16 Q1016 A3002;EQDQ01    003PRSWM1
0193408750999992000011707004+27220+056370FM-15+0010OIKB V0200501N003010240019N0040001N1+01601+99999999999ADDGA1021+006009099GA2021+007509999GA3081+024009999GF108991999999999999999999MW1631REMMET066OIKB 0700Z 05003MPS 4000 RA SCT020CB SCT025 OVC080 16/16015 A3000;EQDQ01+000003PRSWM1Q02    003PRSWM1
0211408750999992000011708004+27220+056370FM-15+0010OIKB V0200501N004010240019N0025001N1+01501+01501999999ADDGA1021+006009099GA2021+007509999GA3081+024009999GF108991999999999999999999MA1101491999999MW1631REMMET069OIKB 0800Z 05004MPS 2500 RA SCT020CB SCT025 OVC080 15/15 Q1015 A2997;EQDQ01+000003PRSWM1Q02    003PRSWM1
0212408750999992000011709004+27220+056370FM-15+0010OIKB V0200301N002010240019N0010001N1+01501+01501999999ADDGA1021+006009099GA2021+007509999GA3081+024009999GF108991999999999999999999MA1101391999999MW1651REMMET070OIKB 0900Z 03002MPS 1000 +RA SCT020CB SCT025 OVC080 15/15 Q1014 A2995;EQDQ01+000003PRSWM1Q02    003PRSWM1
0211408750999992000011710004+27220+056370FM-15+0010OIKB V0200401N003010240019N0025001N1+01601+01601999999ADDGA1021+006009099GA2021+007509999GA3081+024009999GF108991999999999999999999MA1101191999999MW1631REMMET069OIKB 1000Z 04003MPS 2500 RA FEW020CB SCT025 OVC080 16/16 Q1012 A2991;EQDQ01+000003PRSWM1Q02    003PRSWM1
0212408750999992000011711004+27220+056370FM-15+0010OIKB V0200401N003010240019N0040001N1+01601+01601999999ADDGA1021+006009099GA2021+007509999GA3081+024009999GF108991999999999999999999MA1101081999999MW1611REMMET070OIKB 1100Z 04003MPS 4000 -RA FEW020CB SCT025 OVC080 16/16 Q1011 A2987;EQDQ01+000003PRSWM1Q02    003PRSWM1
0353408750999992000011712004+27220+056370SY-MT+001099999V0201101N00401024001CN0040001N1+01661+01631101041ADDAA106019191AY161061AY261061GA1021+006009099GA2021+007509999GA3081+024009999GF108991051031008001021999MA1101021100921MD1710371+9999MW1611REMSYN110    AAXX  17121 40875 11540 81104 10166 20163 30092 40104 57037 60191 76166 8532/ 91150 333 82920 83625 88558;MET070OIKB 1200Z 11004MPS 4000 -RA FEW020CB SCT025 OVC080 17/16 Q1010 A2984;EQDQ01    003PRSWM1
0238408750999992000011713004+27220+056370FM-15+0010OIKB V0200401N00301007501CN0050001N1+01701+01701999999ADDGA1021+003009999GA2021+006009099GA3021+007509999GA4081+027009999GF108991999999999999999999MA1101021999999MW1101REMMET080OIKB 1300Z 04003MPS 5000 BR FEW10 FEW020CB SCT025 OVC090 17/17 Q1010 A2984 RERA;EQDQ01+000003PRSWM1Q02    003PRSWM1
0212408750999992000011714004+27220+056370FM-15+0010OIKB V0200101N003010240019N0040001N1+01701+01601999999ADDGA1021+006009099GA2021+007509999GA3081+024009999GF108991999999999999999999MA1101021999999MW1611REMMET070OIKB 1400Z 01003MPS 4000 -RA FEW020CB SCT025 OVC080 17/16 Q1010 A2984;EQDQ01+000003PRSWM1Q02    003PRSWM1
0213408750999992000011715004+27220+056370FM-15+0010OIKB V0202001N004010240019N0030001N1+01601+01601999999ADDGA1021+006009099GA2021+007509999GA3081+024009999GF108991999999999999999999MA1101081999999MW1631REMMET071OIKB 1500Z 20004MPS 3000 RASH SCT020CB SCT025 OVC080 16/16 Q1011 A2988;EQDQ01+000003PRSWM1Q02    003PRSWM1
0211408750999992000011716004+27220+056370FM-15+0010OIKB V0203201N003010240019N0030001N1+01601+01601999999ADDGA1021+006009099GA2021+007509999GA3081+024009999GF108991999999999999999999MA1101291999999MW1631REMMET069OIKB 1600Z 32003MPS 3000 RA FEW020CB SCT025 OVC080 16/16 Q1013 A2992;EQDQ01+000003PRSWM1Q02    003PRSWM1
0212408750999992000011717004+27220+056370FM-15+0010OIKB V0203501N003010240019N0030001N1+01701+01701999999ADDGA1021+007509099GA2021+009009999GA3081+024009999GF108991999999999999999999MA1101291999999MW1611REMMET070OIKB 1700Z 35003MPS 3000 -RA FEW025CB SCT030 OVC080 17/17 Q1013 A2992;EQDQ01+000003PRSWM1Q02    003PRSWM1
0261408750999992000011718004+27220+056370FM-12+001099999V0203501N003010090019N0040001N1+01621+01591101361ADDAA106022191AY181061AY261061GA1021+007509099GA2031+009009069GF107991051031008001021001KA1120N+01591MA1999999101241MD1210171+9999MW1101REMSYN116    AAXX  17181 40875 11540 73503 10162 20159 30124 40136 52017 60221 71086 85320 91750 333 20159 82925 83630 87459;
0223408750999992000011718504+27220+056370FM-15+0010OIKB V0209999C000010270019N0040001N1+01701+01601999999ADDGA1021+007509099GA2021+009009999GA3071+027009999GF107991999999999999999999MA1101291999999MW1101REMMET081OIKB 171850Z 00000MPS 4000 BR FEW025CB SCT030 BKN090 17/16 Q1013 A2993 LIGHTNING;EQDQ01+000003PRSWM1Q02    003PRSWM1
0213408750999992000011719504+27220+056370FM-15+0010OIKB V0209999C000010270019N0040001N1+01701+01601999999ADDGA1021+007509099GA2021+009009999GA3071+027009999GF107991999999999999999999MA1101291999999MW1101REMMET071OIKB 171950Z 00000MPS 4000 BR FEW025CB SCT030 BKN090 17/16 Q1013 A2992;EQDQ01+000003PRSWM1Q02    003PRSWM1
0213408750999992000011720504+27220+056370FM-15+0010OIKB V0202401N003010240019N0030001N1+01701+01701999999ADDGA1021+007509099GA2021+009009999GA3081+024009999GF108991999999999999999999MA1101391999999MW1631REMMET071OIKB 172050Z 24003MPS 3000 RA FEW025CB SCT030 OVC080 17/17 Q1014 A2994;EQDQ01+000003PRSWM1Q02    003PRSWM1
0214408750999992000011723504+27220+056370FM-15+0010OIKB V0200601N003010240019N0040001N1+01601+01601999999ADDGA1021+007509099GA2021+009009999GA3081+024009999GF108991999999999999999999MA1101391999999MW1611REMMET072OIKB 172350Z 06003MPS 4000 -RA FEW025CB SCT030 OVC080 16/16 Q1014 A2994;EQDQ01+000003PRSWM1Q02    003PRSWM1
0242408750999992000011800004+27220+056370FM-12+001099999V0200601N003010090019N0040001N1+01581+01581101401ADDAA106019191AY161061AY221061GA1021+007509099GA2031+009009069GF108991051031008001021999MA1999999101281MD1410001+9999MW1601REMSYN110    AAXX  18001 40875 11540 80603 10158 20158 30128 40140 54000 60191 76062 8532/ 92350 333 82925 83630 88558;
0213408750999992000011800504+27220+056370FM-15+0010OIKB V0200601N003010270019N0040001N1+01601+01601999999ADDGA1021+007509099GA2021+009009999GA3071+027009999GF107991999999999999999999MA1101291999999MW1101REMMET071OIKB 180050Z 06003MPS 4000 BR FEW025CB SCT030 BKN090 16/16 Q1013 A2993;EQDQ01+000003PRSWM1Q02    003PRSWM1
0213408750999992000011801504+27220+056370FM-15+0010OIKB V0209999C000010270019N0040001N1+01601+01601999999ADDGA1021+007509099GA2021+009009999GA3081+027009999GF108991999999999999999999MA1101291999999MW1171REMMET071OIKB 180150Z 00000MPS 4000 TS FEW025CB SCT030 OVC090 16/16 Q1013 A2994;EQDQ01+000003PRSWM1Q02    003PRSWM1
0213408750999992000011802504+27220+056370FM-15+0010OIKB V0209999C000010240019N0025001N1+01601+01601999999ADDGA1021+007509099GA2021+009009999GA3081+024009999GF108991999999999999999999MA1101491999999MW1631REMMET071OIKB 180250Z 00000MPS 2500 RA FEW025CB SCT030 OVC080 16/16 Q1015 A2997;EQDQ01+000003PRSWM1Q02    003PRSWM1
0211408750999992000011804004+27220+056370FM-15+0010OIKB V0200301N003010240019N0020001N1+01601+01601999999ADDGA1021+007509099GA2021+009009999GA3081+024009999GF108991999999999999999999MA1101491999999MW1631REMMET069OIKB 0400Z 03003MPS 2000 RA FEW025CB SCT030 OVC080 16/16 Q1015 A3000;EQDQ01+000003PRSWM1Q02    003PRSWM1
0211408750999992000011805004+27220+056370FM-15+0010OIKB V0201101N003010240019N0040001N1+01601+01601999999ADDGA1021+007509099GA2021+009009999GA3081+024009999GF108991999999999999999999MA1101691999999MW1101REMMET069OIKB 0500Z 11003MPS 4000 BR FEW025CB SCT030 OVC080 16/16 Q1017 A3005;EQDQ01+000003PRSWM1Q02    003PRSWM1
