0091412265999992000030107004+23620+053380FM-15+0094OMAB V0203001N00311220001CN0099001N1+02201+01401999999ADDMA1101801999999MW1001REMMET039OMAB 010700Z 30006KT CAVOK 22/14 Q1018;EQDQ01+000000PRSWM2
0128412265999992000040312004+23620+053380FM-15+0094OMAB V0203201N006712200019N0080001N1+03501+00401999999ADDGF100991999999999999999999MA1100911999999MW1001REMMET050OMAB 031200Z 32013KT 290V360 8000 SKC 35/04 Q1009;EQDQ01+000000PRSWM2
0099412265999992000050511004+23620+053380FM-15+0094OMAB V0203101N00511220001CN0099001N1+04001+00401999999ADDMA1100811999999MW1001REMMET047OMAB 051100Z 31010KT 250V350 CAVOK 40/04 Q1008;EQDQ01+000000PRSWM2
0110412265999992000051411004+23620+053380FM-15+0094OMAB V0203201N00621220001CN0099001N1+04001+00801999999ADDMA1100411999999MW1001OC101131REMMET050OMAB 141100Z 32012G22KT 270V350 CAVOK 40/08 Q1004;EQDQ01+000000PRSWM2
0085412265999992000052323004+23620+053380FM-15+0094OMAB V0209999999999220001CN0099001N1+99999+99999999999ADDMW1001REMMET048OMAB 232300Z 232300CBKUKUUXKT CAVOK 27/23 Q1001;EQDQ01+000000PRSWM2
0090412265999992000061323004+23610+053380FM-15+0094OMAB V02099999999992200019N0200001N1+99999+99999999999ADDMW1001REMMET053OMAB 132300Z 132300E 16003KT 5000 DU SKC 30/03-Q1003;EQDQ01+000000PRSWM2
0146412265999992000062114004+23610+053380FM-15+0094OMAB V0202901N003612200019N0080001N1+04401+00001999999ADDGA1021+030009999GF104991999999999999999999MA1100001999999MW1001REMMET052OMAB 211400Z 29007KT 8000 SCT100 44/0 Q1000 (A2953);EQDQ01+000000PRSWM2
0163412265999992000070817004+23610+053380FM-15+0094OMAB V0200101N004112200019N9999999N1+03701+01101999999ADDGA1021+075009999GF102991999999999999999999MA1099701999999MW1001REMMET053OMAB 081700Z 01008KT 6000 FEW250 37/11 Q0997 (A2945);EQDQ01+060002VODIS Q02+000000PRSWM2
0211412265999992000081712304+23610+053380FM-15+0094OMAB V0203301N002112200019N0020001N1+04301+01301999999ADDGA1021+018009099GA2021+027009999GF104991999999999999999999MA1100101999999MW1171OC101131REMMET077OMAB 171230Z 33004G22KT 240V090 2000 -TS FEW060CB SCT090 43/13 Q1001 (A2955);EQDQ01+000003PRSWM1Q02    003PRSWM1
0139412265999992000100608004+23610+053380FM-15+0094OMAB V0203501N004112200019N0112651N1+03401+02201999999ADDGA1021+009009999GF104991999999999999999999MA1101191999999MW1001REMMET045OMAB 060800Z 35008KT 9999 SCT030 34/22 Q1012;EQDQ01+000000PRSWM2
0090412265999992000112900004+23610+053380FM-15+0094OMAB V0201501N00101220001CN0099001N1+02101+01701999999ADDMA1101691999999MW1001REMMET038OMAB 290000Z 15002KT CCOK 21/17 Q1017;EQDQ01+000000PRSWM2
0091412265999992000121805004+23610+053380FM-15+0094OMAB V0202301N00101220001CN0099001N1+01901+01401999999ADDMA1102301999999MW1001REMMET039OMAB 180500Z 23002KT CAVOK 19/14 Q1023;EQDQ01+000000PRSWM2
