0196427790999992000010412004+22770+081900FM-12+062599999V0209999C000012200019N0040001N1+02041+00481101301ADDAA106000091GA1001+999999999GF100991001001999999001001KA1120M+02471MA1999999094301MD1999999+0071REMSYN070AAXX  04124 42779 32996 00000 10204 20048 39430 40130 333 10247 58007;EQDQ01  00002PRCP06
0177427790999992000010415004+22770+081900FM-12+062599999V0203201N000512200019N0040001N1+01381+00271101651ADDAA106000091GA1001+999999999GF100991001001999999001001MA1999999094471MD1999999-0081REMSYN064AAXX  04154 42779 32996 03201 10138 20027 39447 40165 333 59008;EQDQ01  00002PRCP06
0177427790999992000010418004+22770+081900FM-12+062599999V0209999C000012200019N0040001N1+01101+00321101771ADDAA106000091GA1001+999999999GF100991001001999999001001MA1999999094501MD1999999+0061REMSYN064AAXX  04184 42779 32996 00000 10110 20032 39450 40177 333 58006;EQDQ01  00002PRCP06
0177427790999992000010500004+22770+081900FM-12+062599999V0209999C000012200019N0040001N1+00861+00231101741ADDAA106000091GA1001+999999999GF100991001001999999001001MA1999999094431MD1999999+0071REMSYN064AAXX  05004 42779 32996 00000 10086 20023 39443 40174 333 58007;EQDQ01  00002PRCP06
0196427790999992000010503004+22770+081900FM-12+062599999V0209999C000012200019N0040001N1+01081+00301101861ADDAA106000091GA1001+999999999GF100991001001999999001001KA1120N+00831MA1999999094581MD1999999+0051REMSYN070AAXX  05034 42779 32996 00000 10108 20030 39458 40186 333 20083 58005;EQDQ01  00002PRCP06
0177427790999992000010506004+22770+081900FM-12+062599999V0209999C000012200019N0040001N1+02141+00361101551ADDAA106000091GA1001+999999999GF100991001001999999001001MA1999999094561MD1999999+0011REMSYN064AAXX  05064 42779 32996 00000 10214 20036 39456 40155 333 58001;EQDQ01  00002PRCP06
0208427790999992000010512004+22770+081900FM-12+062599999V0203601N000512200019N0040001N1+02101+00681101301ADDAA106000091GA1011+006009059GF101991011051008001001001KA1120M+02481MA1999999094301MD1999999+0001REMSYN082AAXX  05124 42779 32596 13601 10210 20068 39430 40130 81500 333 10248 58000 81620;EQDQ01  00002PRCP06
0177427790999992000010515004+22770+081900FM-12+062599999V0209999C000012200019N0040001N1+01501+00391101631ADDAA106000091GA1001+999999999GF100991001001999999001001MA1999999094471MD1999999+0001REMSYN064AAXX  05154 42779 32996 00000 10150 20039 39447 40163 333 58000;EQDQ01  00002PRCP06
0177427790999992000010518004+22770+081900FM-12+062599999V0209999C000012200019N0040001N1+01301+00321101691ADDAA106000091GA1001+999999999GF100991001001999999001001MA1999999094481MD1999999-0021REMSYN064AAXX  05184 42779 32996 00000 10130 20032 39448 40169 333 59002;EQDQ01  00002PRCP06
0177427790999992000010521004+22770+081900FM-12+062599999V0203601N000512200019N0040001N1+01081+00351101621ADDAA106000091GA1001+999999999GF100991001001999999001001MA1999999094361MD1999999-0051REMSYN064AAXX  05214 42779 32996 03601 10108 20035 39436 40162 333 59005;EQDQ01  00002PRCP06
0177427790999992000010600004+22770+081900FM-12+062599999V0209999C000012200019N0040001N1+00961+00301101631ADDAA106000091GA1001+999999999GF100991001001999999001001MA1999999094351MD1999999-0081REMSYN064AAXX  06004 42779 32996 00000 10096 20030 39435 40163 333 59008;EQDQ01  00002PRCP06
0196427790999992000010603004+22770+081900FM-12+062599999V0200501N000512200019N0100001N1+01161+00131101851ADDAA106000091GA1001+999999999GF100991001001999999001001KA1120N+00901MA1999999094601MD1999999+0021REMSYN070AAXX  06034 42779 32997 00501 10116 20013 39460 40185 333 20090 58002;EQDQ01  00002PRCP06
0177427790999992000010606004+22770+081900FM-12+062599999V0203601N001512200019N0100001N1+02021-00291101581ADDAA106000091GA1001+999999999GF100991001001999999001001MA1999999094561MD1999999+0001REMSYN064AAXX  06064 42779 32997 03603 10202 21029 39456 40158 333 58000;EQDQ01  00002PRCP06
0196427790999992000010612004+22770+081900FM-12+062599999V0203601N000512200019N0040001N1+01961+00411101261ADDAA106000091GA1001+999999999GF100991001001999999001001KA1120M+02351MA1999999094251MD1999999-0051REMSYN070AAXX  06124 42779 32996 03601 10196 20041 39425 40126 333 10235 59005;EQDQ01  00002PRCP06
0177427790999992000010615004+22770+081900FM-12+062599999V0209999C000012200019N0040001N1+01361+00411101651ADDAA106000091GA1001+999999999GF100991001001999999001001MA1999999094471MD1999999+0001REMSYN064AAXX  06154 42779 32996 00000 10136 20041 39447 40165 333 58000;EQDQ01  00002PRCP06
0149427790999992000010700004+22770+081900FM-12+062599999V0209999C000012200019N0040001N1+99999+99999999999ADDAA106000091GF101991999999999999999999MA1999999094371MD1999999+0021REMSYN052AAXX  07004 42779 32996 10100 20040 39437 333 58002;EQDQ01  00002PRCP06
0196427790999992000010703004+22770+081900FM-12+062599999V0209999C000012200019N0100001N1+01201+00551101771ADDAA106000091GA1001+999999999GF100991001001999999001001KA1120N+00971MA1999999094521MD1999999-0081REMSYN070AAXX  07034 42779 32997 00000 10120 20055 39452 40177 333 20097 59008;EQDQ01  00002PRCP06
0177427790999992000010706004+22770+081900FM-12+062599999V0203601N000512200019N0100001N1+02241+00521101531ADDAA106000091GA1001+999999999GF100991001001999999001001MA1999999094561MD1999999+0001REMSYN064AAXX  07064 42779 32997 03601 10224 20052 39456 40153 333 58000;EQDQ01  00002PRCP06
0196427790999992000010712004+22770+081900FM-12+062599999V0209999C000012200019N0100001N1+02101+00581101301ADDAA106000091GA1001+999999999GF100991001001999999001001KA1120M+02551MA1999999094301MD1999999+0051REMSYN070AAXX  07124 42779 32997 00000 10210 20058 39430 40130 333 10255 58005;EQDQ01  00002PRCP06
0177427790999992000010715004+22770+081900FM-12+062599999V0209999C000012200019N0040001N1+01441+00561101631ADDAA106000091GA1001+999999999GF100991001001999999001001MA1999999094471MD1999999+0001REMSYN064AAXX  07154 42779 32996 00000 10144 20056 39447 40163 333 58000;EQDQ01  00002PRCP06
0177427790999992000010718004+22770+081900FM-12+062599999V0209999C000012200019N0040001N1+01201+00501101741ADDAA106000091GA1001+999999999GF100991001001999999001001MA1999999094501MD1999999-0031REMSYN064AAXX  07184 42779 32996 00000 10120 20050 39450 40174 333 59003;EQDQ01  00002PRCP06
0177427790999992000010721004+22770+081900FM-12+062599999V0209999C000012200019N0040001N1+01101+00521101651ADDAA106000091GA1001+999999999GF100991001001999999001001MA1999999094391MD1999999-0041REMSYN064AAXX  07214 42779 32996 00000 10110 20052 39439 40165 333 59004;EQDQ01  00002PRCP06
0177427790999992000010800004+22770+081900FM-12+062599999V0209999C000012200019N0040001N1+01021+00481101641ADDAA106000091GA1001+999999999GF100991001001999999001001MA1999999094381MD1999999+0011REMSYN064AAXX  08004 42779 32996 00000 10102 20048 39438 40164 333 58001;EQDQ01  00002PRCP06
0196427790999992000010803004+22770+081900FM-12+062599999V0209999C000012200019N0100001N1+01261+00531101791ADDAA106000091GA1001+999999999GF100991001001999999001001KA1120N+00941MA1999999094571MD1999999+0051REMSYN070AAXX  08034 42779 32997 00000 10126 20053 39457 40179 333 20094 58005;EQDQ01  00002PRCP06
0177427790999992000010806004+22770+081900FM-12+062599999V0203201N000512200019N0100001N1+02402+00381101501ADDAA106000091GA1001+999999999GF100991001001999999001001MA1999999094551MD1999999-0011REMSYN064AAXX  08064 42779 32997 03201 10240 20038 39455 40150 333 59001;EQDQ01  00002PRCP06
0196427790999992000010812004+22770+081900FM-12+062599999V0203601N000512200019N0100001N1+02221+00431101141ADDAA106000091GA1001+999999999GF100991001001999999001001KA1120M+02651MA1999999094201MD1999999-0101REMSYN070AAXX  08124 42779 32997 03601 10222 20043 39420 40114 333 10265 59010;EQDQ01  00002PRCP06
0177427790999992000010815004+22770+081900FM-12+062599999V0209999C000012200019N0040001N1+01581+00551101521ADDAA106000091GA1001+999999999GF100991001001999999001001MA1999999094391MD1999999-0081REMSYN064AAXX  08154 42779 32996 00000 10158 20055 39439 40152 333 59008;EQDQ01  00002PRCP06
0177427790999992000010818004+22770+081900FM-12+062599999V0209999C000012200019N0040001N1+01381+00381101591ADDAA106000091GA1001+999999999GF100991001001999999001001MA1999999094411MD1999999-0091REMSYN064AAXX  08184 42779 32996 00000 10138 20038 39441 40159 333 59009;EQDQ01  00002PRCP06
0196427790999992000010903004+22770+081900FM-12+062599999V0201401N000512200019N0100001N1+01461+00591101651ADDAA106000091GA1001+999999999GF100991001001999999001001KA1120N+01131MA1999999094491MD1999999-0081REMSYN070AAXX  09034 42779 32997 01401 10146 20059 39449 40165 333 20113 59008;EQDQ01  00002PRCP06
0177427790999992000010906004+22770+081900FM-12+062599999V0203601N001012200019N0100001N1+02501+00561101371ADDAA106000091GA1001+999999999GF100991001001999999001001MA1999999094461MD1999999-0091REMSYN064AAXX  09064 42779 32997 03602 10250 20056 39446 40137 333 59009;EQDQ01  00002PRCP06
0177427790999992000010909004+22770+081900FM-12+062599999V0209999C000012200019N0100001N1+02741+00681101041ADDAA106000091GA1001+999999999GF100991001001999999001001MA1999999094221MD1999999-0011REMSYN064AAXX  09094 42779 32997 00000 10274 20068 39422 40104 333 59001;EQDQ01  00002PRCP06
0197427790999992000010912004+22770+081900FM-12+062599999V0209999C000012200019N0100001N1+02341+00931101081ADDAA106000091GA1001+999999999GF100991001001999999001001KA1120M+02811MD1999999-0041REMSYN070AAXX  09124 42779 32997 00000 10234 20093 39496 40108 333 10281 59004;EQDQ01+094963APOSP Q02  00002PRCP06
0177427790999992000010915004+22770+081900FM-12+062599999V0209999C000012200019N0040001N1+01741+00941101411ADDAA106000091GA1001+999999999GF100991001001999999001001MA1999999094331MD1999999-0061REMSYN064AAXX  09154 42779 32996 00000 10174 20094 39433 40141 333 59006;EQDQ01  00002PRCP06
0177427790999992000010918004+22770+081900FM-12+062599999V0209999C000012200019N0040001N1+01501+00861101501ADDAA106000091GA1001+999999999GF100991001001999999001001MA1999999094341MD1999999-0071REMSYN064AAXX  09184 42779 32996 00000 10150 20086 39434 40150 333 59007;EQDQ01  00002PRCP06
0196427790999992000011003004+22770+081900FM-12+062599999V0202301N001012200019N0100001N1+01761+00691101451ADDAA106000091GA1001+999999999GF100991001001999999001001KA1120N+01281MA1999999094371MD1999999-0121REMSYN070AAXX  10034 42779 32997 02302 10176 20069 39437 40145 333 20128 59012;EQDQ01  00002PRCP06
0177427790999992000011006004+22770+081900FM-12+062599999V0201801N001512200019N0100001N1+02501+00821101321ADDAA106000091GA1001+999999999GF100991001001999999001001MA1999999094411MD1999999-0051REMSYN064AAXX  10064 42779 32997 01803 10250 20082 39441 40132 333 59005;EQDQ01  00002PRCP06
0196427790999992000011012004+22770+081900FM-12+062599999V0209999C000012200019N0100001N1+02361+00911101031ADDAA106000091GA1001+999999999GF100991001001999999001001KA1120M+02751MA1999999094111MD1999999-0051REMSYN070AAXX  10124 42779 32997 00000 10236 20091 39411 40103 333 10275 59005;EQDQ01  00002PRCP06
0177427790999992000011015004+22770+081900FM-12+062599999V0201401N000512200019N0040001N1+01821+01081101361ADDAA106000091GA1001+999999999GF100991001001999999001001MA1999999094311MD1999999-0021REMSYN064AAXX  10154 42779 32996 01401 10182 20108 39431 40136 333 59002;EQDQ01  00002PRCP06
0177427790999992000011018004+22770+081900FM-12+062599999V0202301N000512200019N0040001N1+01661+00971101441ADDAA106000091GA1001+999999999GF100991001001999999001001MA1999999094331MD1999999-0011REMSYN064AAXX  10184 42779 32996 02301 10166 20097 39433 40144 333 59001;EQDQ01  00002PRCP06
0177427790999992000011100004+22770+081900FM-12+062599999V0209999C000012200019N0040001N1+01401+00871101451ADDAA106000091GA1001+999999999GF100991001001999999001001MA1999999094281MD1999999+0091REMSYN064AAXX  11004 42779 32996 00000 10140 20087 39428 40145 333 58009;EQDQ01  00002PRCP06
0196427790999992000011103004+22770+081900FM-12+062599999V0209999C000012200019N0100001N1+01621+00921101631ADDAA106000091GA1001+999999999GF100991001001999999001001KA1120N+01351MA1999999094511MD1999999+0141REMSYN070AAXX  11034 42779 32997 00000 10162 20092 39451 40163 333 20135 58014;EQDQ01  00002PRCP06
0196427790999992000011112004+22770+081900FM-12+062599999V0201401N000512200019N0100001N1+02481+01121101101ADDAA106000091GA1001+999999999GF100991001001999999001001KA1120M+02871MA1999999094211MD1999999+0101REMSYN070AAXX  11124 42779 32997 01401 10248 20112 39421 40110 333 10287 58010;EQDQ01  00002PRCP06
0177427790999992000011118004+22770+081900FM-12+062599999V0209999C000012200019N0040001N1+01701+00891101451ADDAA106000091GA1001+999999999GF100991001001999999001001MA1999999094341MD1999999+0011REMSYN064AAXX  11184 42779 32996 00000 10170 20089 39434 40145 333 58001;EQDQ01  00002PRCP06
0177427790999992000011121004+22770+081900FM-12+062599999V0209999C000012200019N0040001N1+01661+00801101321ADDAA106000091GA1001+999999999GF100991001001999999001001MA1999999094231MD1999999-0041REMSYN064AAXX  11214 42779 32996 00000 10166 20080 39423 40132 333 59004;EQDQ01  00002PRCP06
0196427790999992000011203004+22770+081900FM-12+062599999V0201401N000512200019N0100001N1+01861+00871101481ADDAA106000091GA1001+999999999GF100991001001999999001001KA1120N+01441MA1999999094431MD1999999-0081REMSYN070AAXX  12034 42779 32997 01401 10186 20087 39443 40148 333 20144 59008;EQDQ01  00002PRCP06
0177427790999992000011206004+22770+081900FM-12+062599999V0201401N001012200019N0100001N1+02701+00931101251ADDAA106000091GA1001+999999999GF100991001001999999001001MA1999999094391MD1999999-0111REMSYN064AAXX  12064 42779 32997 01402 10270 20093 39439 40125 333 59011;EQDQ01  00002PRCP06
0208427790999992000011212004+22770+081900FM-12+062599999V0201801N004112200019N0100001N1+02421+01131101021ADDAA106000091GA1011+006009059GF103991011051008001031001KA1120M+02891MA1999999094131MD1999999-0081REMSYN082AAXX  12124 42779 32597 31808 10242 20113 39413 40102 81530 333 10289 59008 81620;EQDQ01  00002PRCP06
0189427790999992000011218004+22770+081900FM-12+062599999V0201801N000512200019N0040001N1+01801+01141101331ADDAA106000091GA1011+006009059GF101991011051008001001001MA1999999094261MD1999999-0081REMSYN076AAXX  12184 42779 32596 11801 10180 20114 39426 40133 81500 333 59008 81620;EQDQ01  00002PRCP06
0208427790999992000011303004+22770+081900FM-12+062599999V0209999C000012200019N0100001N1+02021+01201101351ADDAA106000091GA1011+006009059GF103991021041008001031001KA1120N+01611MA1999999094341MD1999999-0091REMSYN082AAXX  13034 42779 32597 30000 10202 20120 39434 40135 82430 333 20161 59009 81620;EQDQ01  00002PRCP06
0177427790999992000011306004+22770+081900FM-12+062599999V0201801N001012200019N0100001N1+02761+01201101101ADDAA106000091GA1001+999999999GF100991001001999999001001MA1999999094281MD1999999-0111REMSYN064AAXX  13064 42779 32997 01802 10276 20120 39428 40110 333 59011;EQDQ01  00002PRCP06
0208427790999992000011312004+22770+081900FM-12+062599999V0209999C000012200019N0100001N1+02561+01391100841ADDAA106000091GA1011+009009029GF101991011011008001001001KA1120M+02971MA1999999093991MD1999999-0141REMSYN082AAXX  13124 42779 32597 10000 10256 20139 39399 40084 81100 333 10297 59014 81830;EQDQ01  00002PRCP06
0177427790999992000011318004+22770+081900FM-12+062599999V0203201N000512200019N0040001N1+01701+01221101251ADDAA106000091GA1001+999999999GF100991001001999999001001MA1999999094161MD1999999-0101REMSYN064AAXX  13184 42779 32996 03201 10170 20122 39416 40125 333 59010;EQDQ01  00002PRCP06
0181427790999992000011321004+22770+081900FM-12+062599999V0203601N000512200019N0040001N1+01641+01151101161ADDAA199000091GA1001+999999999GF100991001001999999001001MA1999999094081MD1999999-0081REMSYN068    AAXX  13214 42779 32996 03601 10164 20115 39408 40116 333 59008;EQDQ01  00002PRCP99
0200427790999992000011403004+22770+081900FM-12+062599999V0203601N000512200019N0040001N1+01621+01161101401ADDAA199000091GA1001+999999999GF100991001001999999001001KA1120N+01351MA1999999094301MD1999999-0041REMSYN074    AAXX  14034 42779 32996 03601 10162 20116 39430 40140 333 20135 59004;EQDQ01  00002PRCP99
0181427790999992000011406004+22770+081900FM-12+062599999V0200901N001012200019N0100001N1+02401+01101101241ADDAA199000091GA1001+999999999GF100991001001999999001001MA1999999094311MD1999999+0031REMSYN068    AAXX  14064 42779 32997 00902 10240 20110 39431 40124 333 58003;EQDQ01  00002PRCP99
0218427790999992000011412004+22770+081900FM-12+062599999V0201401N001012200019N0100001N1+02501+01401100841ADDAA199000091GA1021+006009069GF104991041041008001001001KA1120M+02801MA1999999093961MD1999999-0031REMSYN092    AAXX  14124 42779 32597 41402 10250 20140 39396 40084 84400 333 10280 59003 82620 83825;EQDQ01  00002PRCP99
0181427790999992000011418004+22770+081900FM-12+062599999V0209999C000012200019N0040001N1+01681+01071101241ADDAA199000091GA1001+999999999GF100991001001999999001001MA1999999094151MD1999999-0011REMSYN068    AAXX  14184 42779 32996 00000 10168 20107 39415 40124 333 59001;EQDQ01  00002PRCP99
0181427790999992000011421004+22770+081900FM-12+062599999V0209999C000012200019N0040001N1+01541+01031101131ADDAA199000091GA1001+999999999GF100991001001999999001001MA1999999094031MD1999999-0051REMSYN068    AAXX  14214 42779 32996 00000 10154 20103 39403 40113 333 59005;EQDQ01  00002PRCP99
0212427790999992000011503004+22770+081900FM-12+062599999V0200901N000512200019N0040001N1+01761+01091101281ADDAA199000091GA1011+007509029GF101991011011008001001001KA1120N+01411MA1999999094211MD1999999-0091REMSYN086    AAXX  15034 42779 32596 10901 10176 20109 39421 40128 81100 333 20141 59009 81825;EQDQ01  00002PRCP99
0172427790999992000011506004+22770+081900FM-12+062599999V0202301N001012200019N0100001N1+02421+01451101081ADDAA199000091GA1011+030009079GF101991011001999999031001MD1999999-0121REMSYN074    AAXX  15064 42779 32997 12302 10242 20145 40108 81030 333 59012 81360;EQDQ01  00002PRCP99
0238427790999992000011512004+22770+081900FM-12+062599999V0209999C00001007501CN0040001N1+02101+01591100991ADDAA100000591AA209000691GA1021+006009069GA2031+007509089GF106991041041008001031001KA1120M+02661MA1999999094011MD1999999+0051REMSYN104    AAXX  15124 42779 22596 60000 10210 20159 39401 40099 84430 333 10266 58005 6996/ 82620 83825 85360;
0247427790999992000011515004+22770+081900FM-12+062599999V0203601N00051007501CN0040001N1+01861+01701101331ADDAA100006192AA212006092AY161031AY221031GA1021+006009069GA2031+007509089GF106991041041008001031001MA1999999094291MD1999999+0141MW1021REMSYN104    AAXX  15154 42779 21596 63601 10186 20170 39429 40133 70262 84430 333 58014 6006/ 82620 83825 85360;
0216427790999992000011521004+22770+081900FM-12+062599999V0203601N001019999999N0040001N1+01541+01371101441ADDAA100006192AA218006092GA1031+006009069GF106991021999008001031001MA1999999094311MD1999999+0281REMSYN092    AAXX  15214 42779 22596 63602 10154 20137 39431 40144 82030 333 58028 6006/ 83620 85360;EQDQ01+000002SCOLCG
0197427790999992000011600004+22770+081900FM-12+062599999V0203601N00101036001CN0040001N1+01501+01331101541ADDAA100003091AA221003091GA1041+006009069GF108991041051008001021999MA1999999094381MD1999999+0321REMSYN092    AAXX  16004 42779 32596 83602 10150 20133 39438 40154 8452/ 333 58032 6003/ 84620 88458;
0216427790999992000011603004+22770+081900FM-12+062599999V0203201N002112200019N0040001N1+01421+01211101811ADDAA100006192AA224006092GA1021+006009069GF104991021051008001031001KA1120N+01391MA1999999094641MD1999999+0431REMSYN098    AAXX  16034 42779 22596 43204 10142 20121 39464 40181 82530 333 20139 58043 6006/ 82620 83360;
0181427790999992000011606004+22770+081900FM-12+062599999V0203201N001012200019N0040001N1+01841+01221101711ADDAA199000091GA1001+999999999GF100991001001999999001001MA1999999094641MD1999999+0451REMSYN068    AAXX  16064 42779 32996 03202 10184 20122 39464 40171 333 58045;EQDQ01  00002PRCP99
0181427790999992000011618004+22770+081900FM-12+062599999V0209999C000012200019N0040001N1+01321+00781101851ADDAA199000091GA1001+999999999GF100991001001999999001001MA1999999094651MD1999999+0301REMSYN068    AAXX  16184 42779 32996 00000 10132 20078 39465 40185 333 58030;EQDQ01  00002PRCP99
0181427790999992000011621004+22770+081900FM-12+062599999V0203601N001012200019N0040001N1+01161+00641101791ADDAA199000091GA1001+999999999GF100991001001999999001001MA1999999094591MD1999999+0281REMSYN068    AAXX  16214 42779 32996 03602 10116 20064 39459 40179 333 58028;EQDQ01  00002PRCP99
0200427790999992000011703004+22770+081900FM-12+062599999V0203601N001512200019N0100001N1+01161+00401102131ADDAA199000091GA1001+999999999GF100991001001999999001001KA1120N+00961MA1999999094871MD1999999+0231REMSYN074    AAXX  17034 42779 32997 03603 10116 20040 39487 40213 333 20096 58023;EQDQ01  00002PRCP99
0181427790999992000011706004+22770+081900FM-12+062599999V0203601N001012200019N0100001N1+01741+00461102001ADDAA199000091GA1001+999999999GF100991001001999999001001MA1999999094891MD1999999+0251REMSYN068    AAXX  17064 42779 32997 03602 10174 20046 39489 40200 333 58025;EQDQ01  00002PRCP99
0200427790999992000011712004+22770+081900FM-12+062599999V0200501N000512200019N0100001N1+01961+00581101571ADDAA199000091GA1001+999999999GF100991001001999999001001KA1120M+02331MA1999999094531MD1999999+0131REMSYN074    AAXX  17124 42779 32997 00501 10196 20058 39453 40157 333 10233 58013;EQDQ01  00002PRCP99
0181427790999992000011715004+22770+081900FM-12+062599999V0203201N000512200019N0040001N1+01421+00331101881ADDAA199000091GA1001+999999999GF100991001001999999001001MA1999999094701MD1999999+0181REMSYN068    AAXX  17154 42779 32996 03201 10142 20033 39470 40188 333 58018;EQDQ01  00002PRCP99
0181427790999992000011718004+22770+081900FM-12+062599999V0200501N000512200019N0040001N1+01241+00301102001ADDAA199000091GA1001+999999999GF100991001001999999001001MA1999999094761MD1999999+0111REMSYN068    AAXX  17184 42779 32996 00501 10124 20030 39476 40200 333 58011;EQDQ01  00002PRCP99
0181427790999992000011721004+22770+081900FM-12+062599999V0203601N000512200019N0040001N1+01101+00161101931ADDAA199000091GA1001+999999999GF100991001001999999001001MA1999999094651MD1999999+0111REMSYN068    AAXX  17214 42779 32996 03601 10110 20016 39465 40193 333 58011;EQDQ01  00002PRCP99
0200427790999992000011803004+22770+081900FM-12+062599999V0203601N000512200019N0040001N1+01221+00161102101ADDAA199000091GA1001+999999999GF100991001001999999001001KA1120N+00831MA1999999094861MD1999999-0011REMSYN074    AAXX  18034 42779 32996 03601 10122 20016 39486 40210 333 20083 59001;EQDQ01  00002PRCP99
0181427790999992000011806004+22770+081900FM-12+062599999V0203601N000512200019N0100001N1+01921+00141101901ADDAA199000091GA1001+999999999GF100991001001999999001001MA1999999094841MD1999999-0051REMSYN068    AAXX  18064 42779 32997 03601 10192 20014 39484 40190 333 59005;EQDQ01  00002PRCP99
0200427790999992000011812004+22770+081900FM-12+062599999V0203601N000512200019N0100001N1+02241+00221101461ADDAA199000091GA1001+999999999GF100991001001999999001001KA1120M+02631MA1999999094501MD1999999-0031REMSYN074    AAXX  18124 42779 32997 03601 10224 20022 39450 40146 333 10263 59003;EQDQ01  00002PRCP99
0181427790999992000011815004+22770+081900FM-12+062599999V0209999C000012200019N0040001N1+01701-00161101771ADDAA199000091GA1001+999999999GF100991001001999999001001MA1999999094651MD1999999-0051REMSYN068    AAXX  18154 42779 32996 00000 10170 21016 39465 40177 333 59005;EQDQ01  00002PRCP99
0181427790999992000011818004+22770+081900FM-12+062599999V0209999C000012200019N0040001N1+01341+00041101811ADDAA199000091GA1001+999999999GF100991001001999999001001MA1999999094611MD1999999-0151REMSYN068    AAXX  18184 42779 32996 00000 10134 20004 39461 40181 333 59015;EQDQ01  00002PRCP99
0181427790999992000011900004+22770+081900FM-12+062599999V0200901N000512200019N0040001N1+01321-00131101661ADDAA199000091GA1001+999999999GF100991001001999999001001MA1999999094481MD1999999-0101REMSYN068    AAXX  19004 42779 32996 00901 10132 21013 39448 40166 333 59010;EQDQ01  00002PRCP99
0216427790999992000011903004+22770+081900FM-12+062599999V0209999C000012200019N0100001N1+01701+00181101701ADDAA199000091GA1001+999999999GF100991001001999999001001KA1120N+01241MA1999999999999MD1999999-0281REMSYN074    AAXX  19034 42779 32997 00000 10170 20018 39548 40170 333 20124 59028;EQDQ01  00002PRCP99Q02 095483APOSP 
0181427790999992000011906004+22770+081900FM-12+062599999V0201801N000512200019N0100001N1+02521+00221101461ADDAA199000091GA1001+999999999GF100991001001999999001001MA1999999094561MD1999999-0281REMSYN068    AAXX  19064 42779 32997 01801 10252 20022 39456 40146 333 59028;EQDQ01  00002PRCP99
0200427790999992000011912004+22770+081900FM-12+062599999V0203601N000512200019N0100001N1+02521+00801101021ADDAA199000091GA1001+999999999GF100991001001999999001001KA1120M+02901MA1999999094151MD1999999-0351REMSYN074    AAXX  19124 42779 32997 03601 10252 20080 39415 40102 333 10290 59035;EQDQ01  00002PRCP99
0177427790999992000011915004+22770+081900FM-12+062599999V0209999C000012200019N0040001N1+01821+00821101331ADDAA199000091GA1001+999999999GF100991001001999999001001MA1999999094291MD1999999-0361REMSYN064AAXX  19154 42779 32996 00000 10182 20082 39429 40133 333 59036;EQDQ01  00002PRCP99
0177427790999992000011918004+22770+081900FM-12+062599999V0209999C000012200019N0040001N1+01601+00631101351ADDAA199000091GA1001+999999999GF100991001001999999001001MA1999999094241MD1999999-0371REMSYN064AAXX  19184 42779 32996 00000 10160 20063 39424 40135 333 59037;EQDQ01  00002PRCP99
0177427790999992000011921004+22770+081900FM-12+062599999V0203201N001512200019N0040001N1+01781+00241101121ADDAA199000091GA1001+999999999GF100991001001999999001001MA1999999094071MD1999999-0401REMSYN064AAXX  19214 42779 32996 03203 10178 20024 39407 40112 333 59040;EQDQ01  00002PRCP99
0177427790999992000012000004+22770+081900FM-12+062599999V0209999C000012200019N0040001N1+01641+00321101091ADDAA199000091GA1001+999999999GF100991001001999999001001MA1999999094011MD1999999-0471REMSYN064AAXX  20004 42779 32996 00000 10164 20032 39401 40109 333 59047;EQDQ01  00002PRCP99
0196427790999992000012003004+22770+081900FM-12+062599999V0203201N000512200019N0100001N1+01701+00511101281ADDAA199000091GA1001+999999999GF100991001001999999001001KA1120N+01421MA1999999094191MD1999999-0391REMSYN070AAXX  20034 42779 32997 03201 10170 20051 39419 40128 333 20142 59039;EQDQ01  00002PRCP99
0177427790999992000012006004+22770+081900FM-12+062599999V0203601N000512200019N0100001N1+02401+00611101081ADDAA199000091GA1001+999999999GF100991001001999999001001MA1999999094161MD1999999-0401REMSYN064AAXX  20064 42779 32997 03601 10240 20061 39416 40108 333 59040;EQDQ01  00002PRCP99
0177427790999992000012018004+22770+081900FM-12+062599999V0203601N000512200019N0040001N1+01481+00521101341ADDAA199000091GA1001+999999999GF100991001001999999001001MA1999999094201MD1999999-0041REMSYN064AAXX  20184 42779 32996 03601 10148 20052 39420 40134 333 59004;EQDQ01  00002PRCP99
0156427790999992000012100004+22770+081900FM-12+062599999V0209999C000012200019N0040001N1+01601+01031101121ADDAA199000091GA1001+999999999GF100991001001999999001001MD1999999-0041REMSYN058AAXX  21004 42779 32996 00000 10160 20103 40112 333 59004;EQDQ01  00002PRCP99
0196427790999992000012103004+22770+081900FM-12+062599999V0201401N000512200019N0100001N1+01541+00341101501ADDAA199000091GA1001+999999999GF100991001001999999001001KA1120N+01051MA1999999094371MD1999999+0181REMSYN070AAXX  21034 42779 32997 01401 10154 20034 39437 40150 333 20105 58018;EQDQ01  00002PRCP99
0177427790999992000012106004+22770+081900FM-12+062599999V0201401N000512200019N0100001N1+02381+00221101351ADDAA199000091GA1001+999999999GF100991001001999999001001MA1999999094421MD1999999+0261REMSYN064AAXX  21064 42779 32997 01401 10238 20022 39442 40135 333 58026;EQDQ01  00002PRCP99
0196427790999992000012112004+22770+081900FM-12+062599999V0201401N000512200019N0100001N1+02381+00891101091ADDAA199000091GA1001+999999999GF100991001001999999001001KA1120M+02741MA1999999094171MD1999999+0261REMSYN070AAXX  21124 42779 32997 01401 10238 20089 39417 40109 333 10274 58026;EQDQ01  00002PRCP99
0177427790999992000012115004+22770+081900FM-12+062599999V0209999C000012200019N0040001N1+01761+00921101411ADDAA199000091GA1001+999999999GF100991001001999999001001MA1999999094331MD1999999+0171REMSYN064AAXX  21154 42779 32996 00000 10176 20092 39433 40141 333 58017;EQDQ01  00002PRCP99
0177427790999992000012118004+22770+081900FM-12+062599999V0209999C000012200019N0040001N1+01501+00861101481ADDAA199000091GA1001+999999999GF100991001001999999001001MA1999999094321MD1999999+0121REMSYN064AAXX  21184 42779 32996 00000 10150 20086 39432 40148 333 58012;EQDQ01  00002PRCP99
0196427790999992000012203004+22770+081900FM-12+062599999V0209999C000012200019N0100001N1+01741+00761101481ADDAA199000091GA1001+999999999GF100991001001999999001001KA1120N+01191MA1999999094401MD1999999+0031REMSYN070AAXX  22034 42779 32997 00000 10174 20076 39440 40148 333 20119 58003;EQDQ01  00002PRCP99
0177427790999992000012206004+22770+081900FM-12+062599999V0202301N000512200019N0100001N1+02541+00571101241ADDAA199000091GA1001+999999999GF100991001001999999001001MA1999999094361MD1999999-0061REMSYN064AAXX  22064 42779 32997 02301 10254 20057 39436 40124 333 59006;EQDQ01  00002PRCP99
0177427790999992000012209004+22770+081900FM-12+062599999V0202301N001512200019N0100001N1+02701+00721100901ADDAA199000091GA1001+999999999GF100991001001999999001001MA1999999094071MD1999999-0091REMSYN064AAXX  22094 42779 32997 02303 10270 20072 39407 40090 333 59009;EQDQ01  00002PRCP99
0196427790999992000012212004+22770+081900FM-12+062599999V0201801N000512200019N0100001N1+02501+01061100931ADDAA199000091GA1001+999999999GF100991001001999999001001KA1120M+02821MA1999999094051MD1999999-0121REMSYN070AAXX  22124 42779 32997 01801 10250 20106 39405 40093 333 10282 59012;EQDQ01  00002PRCP99
0177427790999992000012215004+22770+081900FM-12+062599999V0209999C000012200019N0040001N1+01881+00811101361ADDAA199000091GA1001+999999999GF100991001001999999001001MA1999999094311MD1999999-0021REMSYN064AAXX  22154 42779 32996 00000 10188 20081 39431 40136 333 59002;EQDQ01  00002PRCP99
0177427790999992000012221004+22770+081900FM-12+062599999V0209999C000012200019N0040001N1+01481+00611101391ADDAA199000091GA1001+999999999GF100991001001999999001001MA1999999094251MD1999999+0021REMSYN064AAXX  22214 42779 32996 00000 10148 20061 39425 40139 333 58002;EQDQ01  00002PRCP99
0177427790999992000012300004+22770+081900FM-12+062599999V0209999C000012200019N0040001N1+01361+00561101411ADDAA199000091GA1001+999999999GF100991001001999999001001MA1999999094241MD1999999+0041REMSYN064AAXX  23004 42779 32996 00000 10136 20056 39424 40141 333 58004;EQDQ01  00002PRCP99
0196427790999992000012303004+22770+081900FM-12+062599999V0209999C000012200019N0100001N1+01681+00731101551ADDAA199000091GA1001+999999999GF100991001001999999001001KA1120N+01291MA1999999094441MD1999999+0041REMSYN070AAXX  23034 42779 32997 00000 10168 20073 39444 40155 333 20129 58004;EQDQ01  00002PRCP99
0177427790999992000012306004+22770+081900FM-12+062599999V0209999C000012200019N0100001N1+02521+00471101341ADDAA199000091GA1001+999999999GF100991001001999999001001MA1999999094461MD1999999+0101REMSYN064AAXX  23064 42779 32997 00000 10252 20047 39446 40134 333 58010;EQDQ01  00002PRCP99
0177427790999992000012309004+22770+081900FM-12+062599999V0203601N000512200019N0100001N1+02721+00591101031ADDAA199000091GA1001+999999999GF100991001001999999001001MA1999999094211MD1999999+0141REMSYN064AAXX  23094 42779 32997 03601 10272 20059 39421 40103 333 58014;EQDQ01  00002PRCP99
0196427790999992000012312004+22770+081900FM-12+062599999V0203601N000512200019N0100001N1+02401+00721101151ADDAA199000091GA1001+999999999GF100991001001999999001001KA1120M+02741MA1999999094231MD1999999+0181REMSYN070AAXX  23124 42779 32997 03601 10240 20072 39423 40115 333 10274 58018;EQDQ01  00002PRCP99
0177427790999992000012315004+22770+081900FM-12+062599999V0203601N000512200019N0040001N1+01781+00771101491ADDAA199000091GA1001+999999999GF100991001001999999001001MA1999999094411MD1999999+0101REMSYN064AAXX  23154 42779 32996 03601 10178 20077 39441 40149 333 58010;EQDQ01  00002PRCP99
0177427790999992000012318004+22770+081900FM-12+062599999V0209999C000012200019N0040001N1+01661+00661101581ADDAA199000091GA1001+999999999GF100991001001999999001001MA1999999094471MD1999999+0141REMSYN064AAXX  23184 42779 32996 00000 10166 20066 39447 40158 333 58014;EQDQ01  00002PRCP99
0196427790999992000012403004+22770+081900FM-12+062599999V0203601N000512200019N0040001N1+01561+00851101831ADDAA199000091GA1001+999999999GF100991001001999999001001KA1120N+01211MA1999999094691MD1999999+0251REMSYN070AAXX  24034 42779 32996 03601 10156 20085 39469 40183 333 20121 58025;EQDQ01  00002PRCP99
0177427790999992000012406004+22770+081900FM-12+062599999V0203601N000512200019N0100001N1+02481+00841101651ADDAA199000091GA1001+999999999GF100991001001999999001001MA1999999094711MD1999999+0251REMSYN064AAXX  24064 42779 32997 03601 10248 20084 39471 40165 333 58025;EQDQ01  00002PRCP99
0196427790999992000012412004+22770+081900FM-12+062599999V0209999C000012200019N0100001N1+02261+00811101421ADDAA199000091GA1001+999999999GF100991001001999999001001KA1120M+02661MA1999999094471MD1999999+0241REMSYN070AAXX  24124 42779 32997 00000 10226 20081 39447 40142 333 10266 58024;EQDQ01  00002PRCP99
0177427790999992000012415004+22770+081900FM-12+062599999V0203201N000512200019N0040001N1+01721+00741101801ADDAA199000091GA1001+999999999GF100991001001999999001001MA1999999094701MD1999999+0291REMSYN064AAXX  24154 42779 32996 03201 10172 20074 39470 40180 333 58029;EQDQ01  00002PRCP99
0177427790999992000012418004+22770+081900FM-12+062599999V0209999C000012200019N0040001N1+01581+00551101831ADDAA199000091GA1001+999999999GF100991001001999999001001MA1999999094691MD1999999+0221REMSYN064AAXX  24184 42779 32996 00000 10158 20055 39469 40183 333 58022;EQDQ01  00002PRCP99
0196427790999992000012503004+22770+081900FM-12+062599999V0203601N000512200019N0100001N1+01421+00811102061ADDAA199000091GA1001+999999999GF100991001001999999001001KA1120N+01191MA1999999094871MD1999999+0181REMSYN070AAXX  25034 42779 32997 03601 10142 20081 39487 40206 333 20119 58018;EQDQ01  00002PRCP99
0177427790999992000012506004+22770+081900FM-12+062599999V0200501N000512200019N0100001N1+02201+00821101871ADDAA199000091GA1001+999999999GF100991001001999999001001MA1999999094861MD1999999+0151REMSYN064AAXX  25064 42779 32997 00501 10220 20082 39486 40187 333 58015;EQDQ01  00002PRCP99
0196427790999992000012512004+22770+081900FM-12+062599999V0209999C000012200019N0100001N1+02321+00991101511ADDAA199000091GA1001+999999999GF100991001001999999001001KA1120M+02581MA1999999094561MD1999999+0091REMSYN070AAXX  25124 42779 32997 00000 10232 20099 39456 40151 333 10258 58009;EQDQ01  00002PRCP99
0177427790999992000012518004+22770+081900FM-12+062599999V02099999999992200019N0040001N1+99999+99999101921ADDAA199000091GA1001+999999999GF100991001001999999001001MA1999999094731MD1999999+0041REMSYN064AAXX  25184 42779 32996 00//0 1//26 20102 39473 40192 333 58004;EQDQ01  00002PRCP99
0221427790999992000012603004+22770+081900FM-12+062599999V0209999C000012200019N0100001N1+01641+00821101981ADDAA199000091AJ199999999999999GA1001+999999999GF100991001001999999001001IA1219KA1120N+01131MA1999999094841REMSYN070AAXX  26034 42779 32997 00000 10164 20082 39484 40198 333 20113 45993;EQDQ01  00002PRCP99Q02  09932SNDP  
0177427790999992000012606004+22770+081900FM-12+062599999V0201401N001012200019N0100001N1+02421+00991101721ADDAA199000091GA1001+999999999GF100991001001999999001001MA1999999094781MD1999999-0081REMSYN064AAXX  26064 42779 32997 01402 10242 20099 39478 40172 333 59008;EQDQ01  00002PRCP99
0177427790999992000012609004+22770+081900FM-12+062599999V0201801N000512200019N0100001N1+02641+01031101411ADDAA199000091GA1001+999999999GF100991001001999999001001MA1999999094531MD1999999-0021REMSYN064AAXX  26094 42779 32997 01801 10264 20103 39453 40141 333 59002;EQDQ01  00002PRCP99
0208427790999992000012612004+22770+081900FM-12+062599999V0201801N000512200019N0100001N1+02441+01111101411ADDAA199000091GA1011+007509029GF101991011011008001001001KA1120M+02711MA1999999094501MD1999999-0061REMSYN082AAXX  26124 42779 32597 11801 10244 20111 39450 40141 81100 333 10271 59006 81825;EQDQ01  00002PRCP99
0177427790999992000012700004+22770+081900FM-12+062599999V0201401N000512200019N0040001N1+01541+00951101601ADDAA199000091GA1001+999999999GF100991001001999999001001MA1999999094471MD1999999-0161REMSYN064AAXX  27004 42779 32996 01401 10154 20095 39447 40160 333 59016;EQDQ01  00002PRCP99
0196427790999992000012703004+22770+081900FM-12+062599999V0201401N001012200019N0100001N1+01801+01101101751ADDAA199000091GA1001+999999999GF100991001001999999001001KA1120N+01491MA1999999094661MD1999999-0181REMSYN070AAXX  27034 42779 32997 01402 10180 20110 39466 40175 333 20149 59018;EQDQ01  00002PRCP99
0177427790999992000012706004+22770+081900FM-12+062599999V0201401N001512200019N0100001N1+02501+01231101571ADDAA199000091GA1001+999999999GF100991001001999999001001MA1999999094651MD1999999-0131REMSYN064AAXX  27064 42779 32997 01403 10250 20123 39465 40157 333 59013;EQDQ01  00002PRCP99
0189427790999992000012709004+22770+081900FM-12+062599999V0201401N001012200019N0100001N1+02701+01201101231ADDAA199000091GA1011+007509029GF102991021041008001001001MA1999999094371MD1999999-0161REMSYN076AAXX  27094 42779 32597 21402 10270 20120 39437 40123 82400 333 59016 81825;EQDQ01  00002PRCP99
0208427790999992000012712004+22770+081900FM-12+062599999V0201401N000512200019N0100001N1+02441+01201101281ADDAA199000091GA1011+006009059GF103991021041008001031001KA1120M+02741MA1999999094371MD1999999-0131REMSYN082AAXX  27124 42779 32597 31401 10244 20120 39437 40128 82430 333 10274 59013 81620;EQDQ01  00002PRCP99
0189427790999992000012715004+22770+081900FM-12+062599999V0209999C000012200019N0040001N1+02001+01281101561ADDAA199000091GA1011+006009059GF101991011051008001001001MA1999999094521MD1999999-0131REMSYN076AAXX  27154 42779 32596 10000 10200 20128 39452 40156 81500 333 59013 81620;EQDQ01  00002PRCP99
0177427790999992000012718004+22770+081900FM-12+062599999V0209999C000012200019N0040001N1+01701+01181101601ADDAA199000091GA1001+999999999GF100991001001999999001001MA1999999094491MD1999999-0121REMSYN064AAXX  27184 42779 32996 00000 10170 20118 39449 40160 333 59012;EQDQ01  00002PRCP99
0189427790999992000012721004+22770+081900FM-12+062599999V0203201N000512200019N0040001N1+01621+00961101501ADDAA199000091GA1011+030009079GF101991011001999999031001MA1999999094391MD1999999-0091REMSYN076AAXX  27214 42779 32996 13201 10162 20096 39439 40150 81030 333 59009 81360;EQDQ01  00002PRCP99
0189427790999992000012800004+22770+081900FM-12+062599999V0203601N001012200019N0040001N1+01501+01151101591ADDAA199000091GA1021+030009079GF102991021001999999031001MA1999999094431MD1999999-0041REMSYN076AAXX  28004 42779 32996 23602 10150 20115 39443 40159 82030 333 59004 82360;EQDQ01  00002PRCP99
0208427790999992000012803004+22770+081900FM-12+062599999V0203601N000512200019N0100001N1+01581+01161101831ADDAA199000091GA1011+006009059GF102991021041008001001001KA1120N+01401MA1999999094691MD1999999+0031REMSYN082AAXX  28034 42779 32597 23601 10158 20116 39469 40183 82400 333 20140 58003 81620;EQDQ01  00002PRCP99
0177427790999992000012806004+22770+081900FM-12+062599999V0203601N001512200019N0100001N1+02181+01111101661ADDAA199000091GA1001+999999999GF100991001001999999001001MA1999999094671MD1999999+0021REMSYN064AAXX  28064 42779 32997 03603 10218 20111 39467 40166 333 58002;EQDQ01  00002PRCP99
0189427790999992000012809004+22770+081900FM-12+062599999V0203601N001512200019N0100001N1+02541+01071101261ADDAA199000091GA1011+007509029GF101991011011008001001001MA1999999094381MD1999999+0011REMSYN076AAXX  28094 42779 32597 13603 10254 20107 39438 40126 81100 333 58001 81825;EQDQ01  00002PRCP99
0196427790999992000012812004+22770+081900FM-12+062599999V0203601N000512200019N0100001N1+02221+00941101371ADDAA199000091GA1001+999999999GF100991001001999999001001KA1120M+02671MA1999999094421MD1999999+0051REMSYN070AAXX  28124 42779 32997 03601 10222 20094 39442 40137 333 10267 58005;EQDQ01  00002PRCP99
0177427790999992000012815004+22770+081900FM-12+062599999V0203601N001512200019N0040001N1+01701+00761101731ADDAA199000091GA1001+999999999GF100991001001999999001001MA1999999094611MD1999999+0091REMSYN064AAXX  28154 42779 32996 03603 10170 20076 39461 40173 333 58009;EQDQ01  00002PRCP99
0177427790999992000012818004+22770+081900FM-12+062599999V0203601N000512200019N0040001N1+01441+00791101801ADDAA199000091GA1001+999999999GF100991001001999999001001MA1999999094631MD1999999-0141REMSYN064AAXX  28184 42779 32996 03601 10144 20079 39463 40180 333 59014;EQDQ01  00002PRCP99
0177427790999992000012821004+22770+081900FM-12+062599999V0209999C000012200019N0040001N1+01171+00711101771ADDAA199000091GA1001+999999999GF100991001001999999001001MA1999999094521MD1999999+0131REMSYN064AAXX  28214 42779 32996 00000 10117 20071 39452 40177 333 58013;EQDQ01  00002PRCP99
0177427790999992000012909004+22770+081900FM-12+062599999V0200501N002112200019N0100001N1+02321+00301101401ADDAA199000091GA1001+999999999GF100991001001999999001001MA1999999094471MD1999999+0091REMSYN064AAXX  29094 42779 32997 00504 10232 20030 39447 40140 333 58009;EQDQ01  00002PRCP99
0184427790999992000012912004+22770+081900FM-12+062599999V0203601N000512200019N0100001N1+99999+99999999999ADDAA199000091GA1001+999999999GF100991001001999999001001KA1120M+02391MA1999999094451MD1999999+0031REMSYN058AAXX  29124 42779 32997 03601 39445 401/3 333 10239 58003;EQDQ01  00002PRCP99
0177427790999992000012915004+22770+081900FM-12+062599999V0209999C000012200019N0040001N1+01441+00411101751ADDAA199000091GA1001+999999999GF100991001001999999001001MA1999999094581MD1999999-0031REMSYN064AAXX  29154 42779 32996 00000 10144 20041 39458 40175 333 59003;EQDQ01  00002PRCP99
0177427790999992000012918004+22770+081900FM-12+062599999V0209999C000012200019N0040001N1+01301+00381101861ADDAA199000091GA1001+999999999GF100991001001999999001001MA1999999094641MD1999999+0011REMSYN064AAXX  29184 42779 32996 00000 10130 20038 39464 40186 333 58001;EQDQ01  00002PRCP99
0196427790999992000013003004+22770+081900FM-12+062599999V0209999C000012200019N0100001N1+01201+00351102021ADDAA199000091GA1001+999999999GF100991001001999999001001KA1120N+00841MA1999999094761MD1999999+0101REMSYN070AAXX  30034 42779 32997 00000 10120 20035 39476 40202 333 20084 58010;EQDQ01  00002PRCP99
0177427790999992000013006004+22770+081900FM-12+062599999V0203201N000512200019N0100001N1+02181+00241101771ADDAA199000091GA1001+999999999GF100991001001999999001001MA1999999094761MD1999999+1051REMSYN064AAXX  30064 42779 32997 03201 10218 20024 39476 40177 333 58105;EQDQ01  00002PRCP99
0196427790999992000013012004+22770+081900FM-12+062599999V0209999C000012200019N0100001N1+02381+00411101441ADDAA199000091GA1001+999999999GF100991001001999999001001KA1120M+02661MA1999999094501MD1999999-0051REMSYN070AAXX  30124 42779 32997 00000 10238 20041 39450 40144 333 10266 59005;EQDQ01  00002PRCP99
0177427790999992000013018004+22770+081900FM-12+062599999V0209999C000012200019N0040001N1+01341+00481101841ADDAA199000091GA1001+999999999GF100991001001999999001001MA1999999094641MD1999999+0001REMSYN064AAXX  30184 42779 32996 00000 10134 20048 39464 40184 333 58000;EQDQ01  00002PRCP99
0177427790999992000013021004+22770+081900FM-12+062599999V0209999C000012200019N0040001N1+01201+00401101781ADDAA199000091GA1001+999999999GF100991001001999999001001MA1999999094531MD1999999-0031REMSYN064AAXX  30214 42779 32996 00000 10120 20040 39453 40178 333 59003;EQDQ01  00002PRCP99
0177427790999992000013100004+22770+081900FM-12+062599999V0201801N000512200019N0040001N1+01121+00301101741ADDAA199000091GA1001+999999999GF100991001001999999001001MA1999999094501MD1999999-0091REMSYN064AAXX  31004 42779 32996 01801 10112 20030 39450 40174 333 59009;EQDQ01  00002PRCP99
0196427790999992000013103004+22770+081900FM-12+062599999V0209999C000012200019N0100001N1+01621+00501101791ADDAA199000091GA1001+999999999GF100991001001999999001001KA1120N+01101MA1999999094671MD1999999-0091REMSYN070AAXX  31034 42779 32997 00000 10162 20050 39467 40179 333 20110 59009;EQDQ01  00002PRCP99
0177427790999992000013106004+22770+081900FM-12+062599999V0202701N001012200019N0100001N1+02441+00451101601ADDAA199000091GA1001+999999999GF100991001001999999001001MA1999999094681MD1999999-0081REMSYN064AAXX  31064 42779 32997 02702 10244 20045 39468 40160 333 59008;EQDQ01  00002PRCP99
0189427790999992000013109004+22770+081900FM-12+062599999V0202701N001512200019N0100001N1+02621+00471101231ADDAA199000091GA1031+075009019GF103991001001999999001021MA1999999094371MD1999999-0111REMSYN076AAXX  31094 42779 32997 32703 10262 20047 39437 40123 80002 333 59011 83075;EQDQ01  00002PRCP99
0208427790999992000013112004+22770+081900FM-12+062599999V0201801N000512200019N0100001N1+02301+00621101261ADDAA199000091GA1021+075009019GF102991001001999999001021KA1120M+02671MA1999999094311MD1999999-0191REMSYN082AAXX  31124 42779 32997 21801 10230 20062 39431 40126 80002 333 10267 59019 82075;EQDQ01  00002PRCP99
0177427790999992000013115004+22770+081900FM-12+062599999V0202301N000512200019N0040001N1+01721+00741101521ADDAA199000091GA1001+999999999GF100991001001999999001001MA1999999094441MD1999999-0191REMSYN064AAXX  31154 42779 32996 02301 10172 20074 39444 40152 333 59019;EQDQ01  00002PRCP99
0177427790999992000013118004+22770+081900FM-12+062599999V0209999C000012200019N0040001N1+01541+00601101481ADDAA199000091GA1001+999999999GF100991001001999999001001MA1999999094351MD1999999-0291REMSYN064AAXX  31184 42779 32996 00000 10154 20060 39435 40148 333 59029;EQDQ01  00002PRCP99
0177427790999992000013121004+22770+081900FM-12+062599999V0201801N001012200019N0040001N1+01581+00551101341ADDAA199000091GA1001+999999999GF100991001001999999001001MA1999999094231MD1999999-0301REMSYN064AAXX  31214 42779 32996 01802 10158 20055 39423 40134 333 59030;EQDQ01  00002PRCP99
0177427790999992000020100004+22770+081900FM-12+062599999V0201801N001012200019N0040001N1+01361+00651101301ADDAA199000091GA1001+999999999GF100991001001999999001001MA1999999094131MD1999999-0371REMSYN064AAXX  01004 42779 32996 01802 10136 20065 39413 40130 333 59037;EQDQ01  00002PRCP99
0208427790999992000020103004+22770+081900FM-12+062599999V0201801N002112200019N0100001N1+01681+00681101361ADDAA199000091GA1031+075009019GF103991001001999999001021KA1120N+01351MA1999999094271MD1999999-0401REMSYN082AAXX  01034 42779 32997 31804 10168 20068 39427 40136 80002 333 20135 59040 83075;EQDQ01  00002PRCP99
0157427790999992000020106004+22770+081900FM-12+062599999V0202301N002619999999N0100001N1+02401+00961999999ADDAA199000091GA1011+075009019MA1999999094301MD1999999-0381REMSYN070AAXX  01064 42779 32/97 /2305 10240 20096 39430 80002 333 59038 81075;EQDQ01  00002PRCP99
0208427790999992000020112004+22770+081900FM-12+062599999V0202301N001012200019N0100001N1+02381+01241100531ADDAA199000091GA1011+075009019GF101991001001999999001011KA1120M+02671MA1999999093931MD1999999-0381REMSYN082AAXX  01124 42779 32997 12302 10238 20124 39393 40053 80001 333 10267 59038 81075;EQDQ01  00002PRCP99
0177427790999992000020115004+22770+081900FM-12+062599999V0209999C000012200019N0040001N1+01841+01371101071ADDAA199000091GA1001+999999999GF100991001001999999001001MA1999999094051MD1999999-0391REMSYN064AAXX  01154 42779 32996 00000 10184 20137 39405 40107 333 59039;EQDQ01  00002PRCP99
0177427790999992000020118004+22770+081900FM-12+062599999V0209999C000012200019N0040001N1+01801+01291101161ADDAA199000091GA1001+999999999GF100991001001999999001001MA1999999094101MD1999999-0251REMSYN064AAXX  01184 42779 32996 00000 10180 20129 39410 40116 333 59025;EQDQ01  00002PRCP99
0189427790999992000020200004+22770+081900FM-12+062599999V0209999C000012200019N0040001N1+01841+01331101371ADDAA199000091GA1041+030009079GF104991041001999999031001MA1999999094131MD1999999+0001REMSYN076AAXX  02004 42779 32996 40000 10184 20133 39413 40137 84030 333 58000 84360;EQDQ01  00002PRCP99
0206427790999992000020203004+22770+081900FM-12+062599999V0200501N000512200019N0100001N1+01841+01371101411ADDAA199000091GA1001+999999999GF100991001001999999001001KA1120N+01581MA1999999094361MD1999999+0091REMSYN080AAXX  02034 42779 32997 00501 10184 20137 39436 40141 333 20158 58009 555 10006;EQDQ01  00002PRCP99
0195427790999992000020206004+22770+081900FM-12+062599999V0202301N001012200019N0100001N1+02441+01201101291ADDAA199000091GA1021+006009069GF104991041041008001001001MA1999999094381MD1999999+0081REMSYN082AAXX  02064 42779 32597 42302 10244 20120 39438 40129 84400 333 58008 82620 83825;EQDQ01  00002PRCP99
0195427790999992000020209004+22770+081900FM-12+062599999V0201801N000512200019N0100001N1+02541+01411101001ADDAA199000091GA1021+006009069GF104991041081008001001001MA1999999094131MD1999999+0191REMSYN082AAXX  02094 42779 32597 41801 10254 20141 39413 40100 84800 333 58019 82620 83825;EQDQ01  00002PRCP99
0214427790999992000020212004+22770+081900FM-12+062599999V0201801N001012200019N0100001N1+02481+01411100971ADDAA199000091GA1021+006009069GF104991041041008001001001KA1120M+02741MA1999999094091MD1999999+0161REMSYN088AAXX  02124 42779 32597 41802 10248 20141 39409 40097 84400 333 10274 58016 82620 83825;EQDQ01  00002PRCP99
0189427790999992000020221004+22770+081900FM-12+062599999V0209999C000012200019N0040001N1+01821+01311101051ADDAA199000091GA1031+030009079GF103991031001999999031001MA1999999094031MD1999999-0201REMSYN076AAXX  02214 42779 32996 30000 10182 20131 39403 40105 83030 333 59020 83360;EQDQ01  00002PRCP99
0196427790999992000020303004+22770+081900FM-12+062599999V0209999C000012200019N0100001N1+01761+01321101631ADDAA199000091GA1001+999999999GF100991001001999999001001KA1120N+01431MA1999999094541MD1999999+0181REMSYN070AAXX  03034 42779 32997 00000 10176 20132 39454 40163 333 20143 58018;EQDQ01  00002PRCP99
0189427790999992000020306004+22770+081900FM-12+062599999V0202301N001012200019N0100001N1+02581+01461101461ADDAA199000091GA1021+007509029GF103991031041008001001001MA1999999094561MD1999999+0181REMSYN076AAXX  03064 42779 32597 32302 10258 20146 39456 40146 83400 333 58018 82825;EQDQ01  00002PRCP99
0195427790999992000020309004+22770+081900FM-12+062599999V0202301N002112200019N0100001N1+02901+01041101091ADDAA199000091GA1011+006009069GF103991031041008001001001MA1999999094291MD1999999+0161REMSYN082AAXX  03094 42779 32597 32304 10290 20104 39429 40109 83400 333 58016 81620 83825;EQDQ01  00002PRCP99
0196427790999992000020312004+22770+081900FM-12+062599999V0202301N000512200019N0100001N1+02641+00891101121ADDAA199000091GA1001+999999999GF100991001001999999001001KA1120M+02921MA1999999094271MD1999999+0181REMSYN070AAXX  03124 42779 32997 02301 10264 20089 39427 40112 333 10292 58018;EQDQ01  00002PRCP99
0177427790999992000020315004+22770+081900FM-12+062599999V0209999C000012200019N0040001N1+02041+01101101461ADDAA199000091GA1001+999999999GF100991001001999999001001MA1999999094451MD1999999+0101REMSYN064AAXX  03154 42779 32996 00000 10204 20110 39445 40146 333 58010;EQDQ01  00002PRCP99
0177427790999992000020318004+22770+081900FM-12+062599999V0209999C000012200019N0040001N1+01841+00931101501ADDAA199000091GA1001+999999999GF100991001001999999001001MA1999999094451MD1999999+0021REMSYN064AAXX  03184 42779 32996 00000 10184 20093 39445 40150 333 58002;EQDQ01  00002PRCP99
0177427790999992000020321004+22770+081900FM-12+062599999V0209999C000012200019N0040001N1+01561+01021101421ADDAA199000091GA1001+999999999GF100991001001999999001001MA1999999094301MD1999999-0061REMSYN064AAXX  03214 42779 32996 00000 10156 20102 39430 40142 333 59006;EQDQ01  00002PRCP99
0177427790999992000020400004+22770+081900FM-12+062599999V0209999C000012200019N0040001N1+01481+01091101391ADDAA199000091GA1001+999999999GF100991001001999999001001MA1999999094251MD1999999-0101REMSYN064AAXX  04004 42779 32996 00000 10148 20109 39425 40139 333 59010;EQDQ01  00002PRCP99
0196427790999992000020403004+22770+081900FM-12+062599999V0200901N000512200019N0100001N1+01841+01261101461ADDAA199000091GA1001+999999999GF100991001001999999001001KA1120N+01401MA1999999094411MD1999999-0131REMSYN070AAXX  04034 42779 32997 00901 10184 20126 39441 40146 333 20140 59013;EQDQ01  00002PRCP99
0189427790999992000020406004+22770+081900FM-12+062599999V0201801N002112200019N0100001N1+02641+01331101231ADDAA199000091GA1011+009009029GF101991011011008001001001MA1999999094371MD1999999-0191REMSYN076AAXX  04064 42779 32597 11804 10264 20133 39437 40123 81100 333 59019 81830;EQDQ01  00002PRCP99
0189427790999992000020409004+22770+081900FM-12+062599999V0202301N001512200019N0100001N1+02981+01251100801ADDAA199000091GA1011+009009029GF101991011011008001001001MA1999999094041MD1999999-0251REMSYN076AAXX  04094 42779 32597 12303 10298 20125 39404 40080 81100 333 59025 81830;EQDQ01  00002PRCP99
0208427790999992000020412004+22770+081900FM-12+062599999V0201401N000512200019N0100001N1+02601+01481100841ADDAA199000091GA1021+007509029GF103991031041008001001001KA1120M+03001MA1999999093991MD1999999-0281REMSYN082AAXX  04124 42779 32597 31401 10260 20148 39399 40084 83400 333 10300 59028 82825;EQDQ01  00002PRCP99
0177427790999992000020415004+22770+081900FM-12+062599999V0209999C000012200019N0040001N1+02101+01521101051ADDAA199000091GA1001+999999999GF100991001001999999001001MA1999999094071MD1999999-0381REMSYN064AAXX  04154 42779 32996 00000 10210 20152 39407 40105 333 59038;EQDQ01  00002PRCP99
0177427790999992000020418004+22770+081900FM-12+062599999V0209999C000012200019N0040001N1+01941+01371101071ADDAA199000091GA1001+999999999GF100991001001999999001001MA1999999094071MD1999999-0381REMSYN064AAXX  04184 42779 32996 00000 10194 20137 39407 40107 333 59038;EQDQ01  00002PRCP99
0177427790999992000020421004+22770+081900FM-12+062599999V0209999C000012200019N0040001N1+01921+01501100931ADDAA199000091GA1001+999999999GF100991001001999999001001MA1999999093931MD1999999-0371REMSYN064AAXX  04214 42779 32996 00000 10192 20150 39393 40093 333 59037;EQDQ01  00002PRCP99
0240427790999992000020503004+22770+081900FM-12+062599999V0201801N000512200019N0040001N1+01961+01741101121ADDAA100004192AA224004092AY191031AY261031GA1021+007509089GF104991031041008001031001KA1120N+01751MA1999999094111MD1999999-0301MW1291REMSYN100AAXX  05034 42779 21596 41801 10196 20174 39411 40112 72996 83430 333 20175 59030 6004/ 82825 83360;
0223427790999992000020506004+22770+081900FM-12+062599999V0201801N001510360019N0100001N1+02601+01771100911ADDAA199000091AY191061AY261061GA1021+006009069GF105991041081008001031001MA1999999094061MD1999999-0311MW1021REMSYN088AAXX  05064 42779 31597 51803 10260 20177 39406 40091 70296 84830 333 59031 82620 83825;EQDQ01  00002PRCP99
0195427790999992000020509004+22770+081900FM-12+062599999V0202701N000512200019N0100001N1+02561+01661100671ADDAA199000091GA1021+006009069GF104991041081008001001001MA1999999093861MD1999999-0211REMSYN082AAXX  05094 42779 32597 42701 10256 20166 39386 40067 84800 333 59021 82620 83825;EQDQ01  00002PRCP99
0208427790999992000020512004+22770+081900FM-12+062599999V0209999C000012200019N0040001N1+02481+01561100681ADDAA199000091GA1021+007509029GF103991031041008001001001KA1120M+02681MA1999999093821MD1999999-0171REMSYN082AAXX  05124 42779 32596 30000 10248 20156 39382 40068 83400 333 10268 59017 82825;EQDQ01  00002PRCP99
0189427790999992000020515004+22770+081900FM-12+062599999V0203601N000512200019N0040001N1+01981+01311101031ADDAA199000091GA1011+006009059GF101991011051008001001001MA1999999094031MD1999999-0041REMSYN076AAXX  05154 42779 32596 13601 10198 20131 39403 40103 81500 333 59004 81620;EQDQ01  00002PRCP99
0177427790999992000020600004+22770+081900FM-12+062599999V0209999C000012200019N0040001N1+01541+01191101141ADDAA199000091GA1001+999999999GF100991001001999999001001MA1999999094021MD1999999+0101REMSYN064AAXX  06004 42779 32996 00000 10154 20119 39402 40114 333 58010;EQDQ01  00002PRCP99
0208427790999992000020603004+22770+081900FM-12+062599999V0203201N000512200019N0040001N1+01761+01361101321ADDAA199000091GA1021+030009079GF102991021001999999031001KA1120N+01511MA1999999094051MD1999999+0141REMSYN082AAXX  06034 42779 32996 23201 10176 20136 39405 40132 82030 333 20151 58014 82360;EQDQ01  00002PRCP99
0189427790999992000020606004+22770+081900FM-12+062599999V0203601N001012200019N0100001N1+02281+01401101191ADDAA199000091GA1011+030009079GF101991011001999999031001MA1999999094251MD1999999+0191REMSYN076AAXX  06064 42779 32997 13602 10228 20140 39425 40119 81030 333 58019 81360;EQDQ01  00002PRCP99
0214427790999992000020612004+22770+081900FM-12+062599999V0203201N001012200019N0100001N1+02201+99999100921ADDAA199000091GA1021+006009069GF104991041041008001001001KA1120M+02421MA1999999093971MD1999999+0151REMSYN088AAXX  06124 42779 32597 43202 10220 20230 39397 40092 84400 333 10242 58015 82620 83825;EQDQ01  00002PRCP99
0177427790999992000020615004+22770+081900FM-12+062599999V0203601N000512200019N0040001N1+01761+01131101311ADDAA199000091GA1001+999999999GF100991001001999999001001MA1999999094241MD1999999+0211REMSYN064AAXX  06154 42779 32996 03601 10176 20113 39424 40131 333 58021;EQDQ01  00002PRCP99
0177427790999992000020618004+22770+081900FM-12+062599999V0203601N000512200019N0040001N1+01541+00951101311ADDAA199000091GA1001+999999999GF100991001001999999001001MA1999999094201MD1999999+0101REMSYN064AAXX  06184 42779 32996 03601 10154 20095 39420 40131 333 58010;EQDQ01  00002PRCP99
0177427790999992000020621004+22770+081900FM-12+062599999V0203601N000512200019N0040001N1+01381+00971101351ADDAA199000091GA1001+999999999GF100991001001999999001001MA1999999094181MD1999999+0151REMSYN064AAXX  06214 42779 32996 03601 10138 20097 39418 40135 333 58015;EQDQ01  00002PRCP99
0177427790999992000020700004+22770+081900FM-12+062599999V0203601N000512200019N0040001N1+01261+00961101371ADDAA199000091GA1001+999999999GF100991001001999999001001MA1999999094181MD1999999+0161REMSYN064AAXX  07004 42779 32996 03601 10126 20096 39418 40137 333 58016;EQDQ01  00002PRCP99
0196427790999992000020703004+22770+081900FM-12+062599999V0203601N000512200019N0040001N1+01381+00931101611ADDAA199000091GA1001+999999999GF100991001001999999001001KA1120N+01191MA1999999094431MD1999999+0181REMSYN070AAXX  07034 42779 32996 03601 10138 20093 39443 40161 333 20119 58018;EQDQ01  00002PRCP99
0177427790999992000020706004+22770+081900FM-12+062599999V0203601N000512200019N0040001N1+02041+01061101441ADDAA199000091GA1001+999999999GF100991001001999999001001MA1999999094431MD1999999+0181REMSYN064AAXX  07064 42779 32996 03601 10204 20106 39443 40144 333 58018;EQDQ01  00002PRCP99
0189427790999992000020709004+22770+081900FM-12+062599999V0200501N000512200019N0040001N1+02341+01061101071ADDAA199000091GA1011+007509029GF101991011011008001001001MA1999999094151MD1999999+0151REMSYN076AAXX  07094 42779 32596 10501 10234 20106 39415 40107 81100 333 58015 81825;EQDQ01  00002PRCP99
0208427790999992000020712004+22770+081900FM-12+062599999V0209999C000012200019N0040001N1+02181+01151101091ADDAA199000091GA1011+007509029GF101991011011008001001001KA1120M+02411MA1999999094141MD1999999-0151REMSYN082AAXX  07124 42779 32596 10000 10218 20115 39414 40109 81100 333 10241 59015 81825;EQDQ01  00002PRCP99
0177427790999992000020715004+22770+081900FM-12+062599999V0203601N000512200019N0040001N1+01721+01001101351ADDAA199000091GA1001+999999999GF100991001001999999001001MA1999999094281MD1999999+0041REMSYN064AAXX  07154 42779 32996 03601 10172 20100 39428 40135 333 58004;EQDQ01  00002PRCP99
0177427790999992000020718004+22770+081900FM-12+062599999V0203601N000512200019N0040001N1+01461+00771101391ADDAA199000091GA1001+999999999GF100991001001999999001001MA1999999094251MD1999999+0051REMSYN064AAXX  07184 42779 32996 03601 10146 20077 39425 40139 333 58005;EQDQ01  00002PRCP99
0177427790999992000020721004+22770+081900FM-12+062599999V0209999C000012200019N0040001N1+01301+00711101331ADDAA199000091GA1001+999999999GF100991001001999999001001MA1999999094141MD1999999-0041REMSYN064AAXX  07214 42779 32996 00000 10130 20071 39414 40133 333 59004;EQDQ01  00002PRCP99
0196427790999992000020803004+22770+081900FM-12+062599999V0209999C000012200019N0040001N1+01461+00681101491ADDAA199000091GA1001+999999999GF100991001001999999001001KA1120N+01091MA1999999094331MD1999999-0101REMSYN070AAXX  08034 42779 32996 00000 10146 20068 39433 40149 333 20109 59010;EQDQ01  00002PRCP99
0189427790999992000020806004+22770+081900FM-12+062599999V0200901N001512200019N0100001N1+02141+00971101351ADDAA199000091GA1011+009009059GF101991011051008001001001MA1999999094371MD1999999-0061REMSYN076AAXX  08064 42779 32597 10903 10214 20097 39437 40135 81500 333 59006 81630;EQDQ01  00002PRCP99
0195427790999992000020809004+22770+081900FM-12+062599999V0201801N000512200019N0100001N1+02541+00981100871ADDAA199000091GA1021+006009069GF103991031041008001001001MA1999999094021MD1999999-0131REMSYN082AAXX  08094 42779 32597 31801 10254 20098 39402 40087 83400 333 59013 82620 83825;EQDQ01  00002PRCP99
0214427790999992000020812004+22770+081900FM-12+062599999V0203201N00101012001CN0100001N1+02241+01101100931ADDAA199000091GA1031+006009069GF106991051081008001031001KA1120M+02561MA1999999094121MD1999999-0111REMSYN088AAXX  08124 42779 32597 63202 10224 20110 39412 40093 85830 333 10256 59011 83620 83825;EQDQ01  00002PRCP99
0177427790999992000020818004+22770+081900FM-12+062599999V0209999C000012200019N0040001N1+01701+00981101361ADDAA199000091GA1001+999999999GF100991001001999999001001MA1999999094271MD1999999+0021REMSYN064AAXX  08184 42779 32996 00000 10170 20098 39427 40136 333 58002;EQDQ01  00002PRCP99
0177427790999992000020821004+22770+081900FM-12+062599999V0209999C000012200019N0040001N1+01561+00851101301ADDAA199000091GA1001+999999999GF100991001001999999001001MA1999999094191MD1999999+0051REMSYN064AAXX  08214 42779 32996 00000 10156 20085 39419 40130 333 58005;EQDQ01  00002PRCP99
0177427790999992000020900004+22770+081900FM-12+062599999V0203601N000512200019N0040001N1+01401+00611101381ADDAA199000091GA1001+999999999GF100991001001999999001001MA1999999094211MD1999999+0101REMSYN064AAXX  09004 42779 32996 03601 10140 20061 39421 40138 333 58010;EQDQ01  00002PRCP99
0214427790999992000020903004+22770+081900FM-12+062599999V0203601N001010360019N0040001N1+01501+00641101591ADDAA199000091GA1021+006009069GF105991041041008001031001KA1120N+01341MA1999999094431MD1999999+0101REMSYN088AAXX  09034 42779 32596 53602 10150 20064 39443 40159 84430 333 20134 58010 82620 83825;EQDQ01  00002PRCP99
0177427790999992000020906004+22770+081900FM-12+062599999V0203201N000512200019N0100001N1+02101+00731101411ADDAA199000091GA1001+999999999GF100991001001999999001001MA1999999094401MD1999999+0031REMSYN064AAXX  09064 42779 32997 03201 10210 20073 39440 40141 333 58003;EQDQ01  00002PRCP99
0189427790999992000020909004+22770+081900FM-12+062599999V0203601N001012200019N0100001N1+02481+00631101011ADDAA199000091GA1011+006009059GF102991021041008001001001MA1999999094121MD1999999+0101REMSYN076AAXX  09094 42779 32597 23602 10248 20063 39412 40101 82400 333 58010 81620;EQDQ01  00002PRCP99
0196427790999992000020912004+22770+081900FM-12+062599999V0209999C000012200019N0100001N1+02241+00681101081ADDAA199000091GA1001+999999999GF100991001001999999001001KA1120M+02551MA1999999094141MD1999999+0131REMSYN070AAXX  09124 42779 32997 00000 10224 20068 39414 40108 333 10255 58013;EQDQ01  00002PRCP99
0177427790999992000020918004+22770+081900FM-12+062599999V0209999C000012200019N0040001N1+01461+00491101501ADDAA199000091GA1001+999999999GF100991001001999999001001MA1999999094341MD1999999+0071REMSYN064AAXX  09184 42779 32996 00000 10146 20049 39434 40150 333 58007;EQDQ01  00002PRCP99
0177427790999992000021000004+22770+081900FM-12+062599999V0209999C000012200019N0040001N1+01121+00501101401ADDAA199000091GA1001+999999999GF100991001001999999001001MA1999999094201MD1999999-0011REMSYN064AAXX  10004 42779 32996 00000 10112 20050 39420 4014/ 333 59001;EQDQ01  00002PRCP99
0206427790999992000021003004+22770+081900FM-12+062599999V0209999C000012200019N0100001N1+01621+00341101531ADDAA199000091GA1001+999999999GF100991001001999999001001KA1120N+01101MA1999999094421MD1999999-0011REMSYN080AAXX  10034 42779 32997 00000 10162 20034 39442 40153 333 20110 59001 555 10010;EQDQ01  00002PRCP99
0177427790999992000021006004+22770+081900FM-12+062599999V0200501N000512200019N0100001N1+02321+00361101351ADDAA199000091GA1001+999999999GF100991001001999999001001MA1999999094421MD1999999+0081REMSYN064AAXX  10064 42779 32997 00501 10232 20036 39442 40135 333 58008;EQDQ01  00002PRCP99
0177427790999992000021009004+22770+081900FM-12+062599999V0203601N000512200019N0100001N1+02601+00441101051ADDAA199000091GA1001+999999999GF100991001001999999001001MA1999999094181MD1999999+0061REMSYN064AAXX  10094 42779 32997 03601 10260 20044 39418 40105 333 58006;EQDQ01  00002PRCP99
0196427790999992000021012004+22770+081900FM-12+062599999V0209999C000012200019N0100001N1+02461+00711100951ADDAA199000091GA1001+999999999GF100991001001999999001001KA1120M+02681MA1999999094071MD1999999-0071REMSYN070AAXX  10124 42779 32997 00000 10246 20071 39407 40095 333 10268 59007;EQDQ01  00002PRCP99
0177427790999992000021015004+22770+081900FM-12+062599999V0209999C000012200019N0040001N1+01741+00901101321ADDAA199000091GA1001+999999999GF100991001001999999001001MA1999999094251MD1999999-0081REMSYN064AAXX  10154 42779 32996 00000 10174 20090 39425 40132 333 59008;EQDQ01  00002PRCP99
0177427790999992000021018004+22770+081900FM-12+062599999V0209999C000012200019N0040001N1+01681+00871101231ADDAA199000091GA1001+999999999GF100991001001999999001001MA1999999094141MD1999999-0201REMSYN064AAXX  10184 42779 32996 00000 10168 20087 39414 40123 333 59020;EQDQ01  00002PRCP99
0189427790999992000021021004+22770+081900FM-12+062599999V0209999C000012200019N0040001N1+01681+00871101161ADDAA199000091GA1041+030009079GF104991041001999999031001MA1999999094081MD1999999-0121REMSYN076AAXX  10214 42779 32996 40000 10168 20087 39408 40116 84030 333 59012 84360;EQDQ01  00002PRCP99
0195427790999992000021100004+22770+081900FM-12+062599999V0201401N000512200019N0040001N1+01741+01141101091ADDAA199000091GA1021+006009069GF104991021051008001031001MA1999999094041MD1999999-0161REMSYN082AAXX  11004 42779 32596 41401 10174 20114 39404 40109 82530 333 59016 82620 83360;EQDQ01  00002PRCP99
0214427790999992000021103004+22770+081900FM-12+062599999V0201801N001512200019N0040001N1+01961+01281101061ADDAA199000091GA1021+006009069GF104991031041008001031001KA1120N+01511MA1999999094061MD1999999-0361REMSYN088AAXX  11034 42779 32596 41803 10196 20128 39406 40106 83430 333 20151 59036 82620 83360;EQDQ01  00002PRCP99
0195427790999992000021106004+22770+081900FM-12+062599999V0201801N00151036001CN0040001N1+02121+01581101061ADDAA199000091GA1031+006009069GF107991041041008001071001MA1999999094101MD1999999-0321REMSYN082AAXX  11064 42779 32596 71803 10212 20158 39410 40106 84470 333 59032 83620 85360;EQDQ01  00002PRCP99
0208427790999992000021112004+22770+081900FM-12+062599999V0201801N000512200019N0100001N1+02301+01671100791ADDAA199000091GA1011+007509029GF101991011011999999001001KA1120M+02501MA1999999093881MD1999999-0191REMSYN082AAXX  11124 42779 32997 11801 10230 20167 39388 40079 81100 333 10250 59019 81825;EQDQ01  00002PRCP99
0177427790999992000021118004+22770+081900FM-12+062599999V0209999C000012200019N0040001N1+01861+01361101161ADDAA199000091GA1001+999999999GF100991001001999999001001MA1999999094121MD1999999-0021REMSYN064AAXX  11184 42779 32996 00000 10186 20136 39412 40116 333 59002;EQDQ01  00002PRCP99
0195427790999992000021200004+22770+081900FM-12+062599999V0203601N001012200019N0040001N1+01661+01131101171ADDAA199000091GA1011+006009069GF103991011051008001031001MA1999999094091MD1999999+0051REMSYN082AAXX  12004 42779 32596 33602 10166 20113 39409 40117 81530 333 58005 81620 81360;EQDQ01  00002PRCP99
0195427790999992000021206004+22770+081900FM-12+062599999V0203601N001012200019N0100001N1+02261+01171101361ADDAA199000091GA1021+006009069GF104991031041008001031001MA1999999094411MD1999999+0311REMSYN082AAXX  12064 42779 32597 43602 10226 20117 39441 40136 83430 333 58031 82620 83360;EQDQ01  00002PRCP99
0195427790999992000021209004+22770+081900FM-12+062599999V0203601N00051036001CN0100001N1+02461+01001101041ADDAA199000091GA1031+006009069GF106991041041008001031001MA1999999094151MD1999999+0261REMSYN082AAXX  12094 42779 32597 63601 10246 20100 39415 40104 84430 333 58026 83620 85360;EQDQ01  00002PRCP99
0208427790999992000021212004+22770+081900FM-12+062599999V0203601N001012200019N0100001N1+02261+01131101101ADDAA199000091GA1021+007509029GF103991031041008001001001KA1120M+02521MA1999999094161MD1999999+0281REMSYN082AAXX  12124 42779 32597 33602 10226 20113 39416 40110 83400 333 10252 58028 82825;EQDQ01  00002PRCP99
0224427790999992000021215004+22770+081900FM-12+062599999V0203601N001012200019N0100001N1+02261+01131101101ADDAA199000091GA1999+000159999GF103991031041008001001001KA1120M+02521MA1999999094161MD1999999+0281REMSYN082AAXX  12154 42779 32597 33602 10226 20113 39416 40110 83400 333 10252 58028 80825;EQDQ01  00002PRCP99Q02    003SCCGA1
0177427790999992000021218004+22770+081900FM-12+062599999V0209999C000012200019N0040001N1+01601+00901101491ADDAA199000091GA1001+999999999GF100991001001999999001001MA1999999094361MD1999999+0241REMSYN064AAXX  12184 42779 32996 00000 10160 20090 39436 40149 333 58024;EQDQ01  00002PRCP99
0177427790999992000021221004+22770+081900FM-12+062599999V0203601N000512200019N0040001N1+01461+00901101401ADDAA199000091GA1001+999999999GF100991001001999999001001MA1999999094261MD1999999+0221REMSYN064AAXX  12214 42779 32996 03601 10146 20090 39426 40140 333 58022;EQDQ01  00002PRCP99
0208427790999992000021303004+22770+081900FM-12+062599999V0203601N000512200019N0040001N1+01481+00661101601ADDAA199000091GA1011+030009079GF101991011001999999031001KA1120N+01201MA1999999094441MD1999999+0111REMSYN082AAXX  13034 42779 32996 13601 10148 20066 39444 40160 81030 333 20120 58011 81360;EQDQ01  00002PRCP99
0189427790999992000021306004+22770+081900FM-12+062599999V0203201N001012200019N0100001N1+02101+00681101451ADDAA199000091GA1011+030009079GF101991011001999999031001MA1999999094441MD1999999+0031REMSYN076AAXX  13064 42779 32997 13202 10210 20068 39444 40145 81030 333 58003 81360;EQDQ01  00002PRCP99
0208427790999992000021312004+22770+081900FM-12+062599999V0203601N000512200019N0100001N1+02221+01081101121ADDAA199000091GA1011+006009059GF103991021041008001031001KA1120M+02501MA1999999094181MD1999999+0021REMSYN082AAXX  13124 42779 32597 33601 10222 20108 39418 40112 82430 333 10250 58002 81620;EQDQ01  00002PRCP99
0195427790999992000021315004+22770+081900FM-12+062599999V0203201N00151036001CN0040001N1+01881+00711101461ADDAA199000091GA1021+006009069GF105991021051008001031001MA1999999094411MD1999999+0091REMSYN082AAXX  13154 42779 32596 53203 10188 20071 39441 40146 82530 333 58009 82620 84360;EQDQ01  00002PRCP99
0177427790999992000021318004+22770+081900FM-12+062599999V0203601N000512200019N0040001N1+01521+00781101601ADDAA199000091GA1001+999999999GF100991001001999999001001MA1999999094471MD1999999+0111REMSYN064AAXX  13184 42779 32996 03601 10152 20078 39447 40160 333 58011;EQDQ01  00002PRCP99
0177427790999992000021321004+22770+081900FM-12+062599999V0203601N001012200019N0040001N1+01381+00681101581ADDAA199000091GA1001+999999999GF100991001001999999001001MA1999999094401MD1999999+0141REMSYN064AAXX  13214 42779 32996 03602 10138 20068 39440 40158 333 58014;EQDQ01  00002PRCP99
0176427790999992000021401004+22770+081900FM-12+062599999V0203601N001012200019N0040001N1+02061+00671999999ADDAA199000091GF101991011001999999031001MA1999999094661MD1999999+0221ME1101689REMSYN070AAXX  14014 42779 32996 13602 10206 20067 39466 41168 81030 333 58022;EQDQ01  00002PRCP99
0214427790999992000021403004+22770+081900FM-12+062599999V0203601N00101036001CN0040001N1+01521+00571101811ADDAA199000091GA1031+006009069GF107991031051008001071001KA1120N+01251MA1999999094671MD1999999+0231REMSYN088AAXX  14034 42779 32596 73602 10152 20057 39467 40181 83570 333 20125 58023 83620 85360;EQDQ01  00002PRCP99
0189427790999992000021406004+22770+081900FM-12+062599999V0203601N001012200019N0040001N1+02061+00671101681ADDAA199000091GA1011+030009079GF101991011001999999031001MA1999999094661MD1999999+0221REMSYN076AAXX  14064 42779 32996 13602 10206 20067 39466 40168 81030 333 58022 81360;EQDQ01  00002PRCP99
0194427790999992000021412004+22770+081900FM-12+062599999V02099999999992200019N0100001N1+02201+01141101321ADDAA199000091GA1011+006009059GF103991021041008001031001KA1120M+02491MA1999999094341REMSYN082AAXX  14124 42779 32597 336/2 10220 20114 39434 40132 82430 333 10249 5801/ 81620;EQDQ01  00002PRCP99
0189427790999992000021415004+22770+081900FM-12+062599999V0203601N001012200019N0040001N1+01761+00691101621ADDAA199000091GA1011+006009059GF101991011051008001001001MA1999999094531MD1999999+0121REMSYN076AAXX  14154 42779 32596 13602 10176 20069 39453 40162 81500 333 58012 81620;EQDQ01  00002PRCP99
0208427790999992000021418004+22770+081900FM-12+062599999V0203601N001012200019N0100001N1+02201+01141101321ADDAA199000091GA1011+006009059GF103991021041008001031001KA1120M+02451MA1999999094341MD1999999+0161REMSYN082AAXX  14184 42779 32597 33602 10220 20114 39434 40132 82430 333 10245 58016 81620;EQDQ01  00002PRCP99
0177427790999992000021421004+22770+081900FM-12+062599999V0203601N000512200019N0040001N1+01301+00581101681ADDAA199000091GA1001+999999999GF100991001001999999001001MA1999999094471MD1999999+0071REMSYN064AAXX  14214 42779 32996 03601 10130 20058 39447 40168 333 58007;EQDQ01  00002PRCP99
0177427790999992000021500004+22770+081900FM-12+062599999V0203601N001012200019N0040001N1+01141+00521101651ADDAA199000091GA1001+999999999GF100991001001999999001001MA1999999094421MD1999999+0021REMSYN064AAXX  15004 42779 32996 03602 10114 20052 39442 40165 333 58002;EQDQ01  00002PRCP99
0196427790999992000021503004+22770+081900FM-12+062599999V0203601N000512200019N0100001N1+01461+00441101821ADDAA199000091GA1001+999999999GF100991001001999999001001KA1120N+01091MA1999999094651MD1999999-0021REMSYN070AAXX  15034 42779 32997 03601 10146 20044 39465 40182 333 20109 59002;EQDQ01  00002PRCP99
0177427790999992000021506004+22770+081900FM-12+062599999V0203601N001012200019N0100001N1+02141+00581101581ADDAA199000091GA1001+999999999GF100991001001999999001001MA1999999094591MD1999999-0071REMSYN064AAXX  15064 42779 32997 03602 10214 20058 39459 40158 333 59007;EQDQ01  00002PRCP99
0177427790999992000021509004+22770+081900FM-12+062599999V0209999V000512200019N0100001N1+02601+00721101151ADDAA199000091GA1001+999999999GF100991001001999999001001MA1999999094281MD1999999-0051REMSYN064AAXX  15094 42779 32997 09901 10260 20072 39428 40115 333 59005;EQDQ01  00002PRCP99
0196427790999992000021512004+22770+081900FM-12+062599999V0209999C000012200019N0100001N1+02441+00931101111ADDAA199000091GA1001+999999999GF100991001001999999001001KA1120M+02641MA1999999094221MD1999999-0121REMSYN070AAXX  15124 42779 32997 00000 10244 20093 39422 40111 333 10264 59012;EQDQ01  00002PRCP99
0177427790999992000021515004+22770+081900FM-12+062599999V0209999C000012200019N0040001N1+01801+00971101501ADDAA199000091GA1001+999999999GF100991001001999999001001MA1999999094421MD1999999-0111REMSYN064AAXX  15154 42779 32996 00000 10180 20097 39442 40150 333 59011;EQDQ01  00002PRCP99
0177427790999992000021518004+22770+081900FM-12+062599999V0209999C000012200019N0040001N1+01641+00901101501ADDAA199000091GA1001+999999999GF100991001001999999001001MA1999999094301MD1999999-0181REMSYN064AAXX  15184 42779 32996 00000 10164 20090 39430 40150 333 59018;EQDQ01  00002PRCP99
0177427790999992000021600004+22770+081900FM-12+062599999V0209999C000012200019N0040001N1+01341+00671101361ADDAA199000091GA1001+999999999GF100991001001999999001001MA1999999094191MD1999999-0231REMSYN064AAXX  16004 42779 32996 00000 10134 20067 39419 40136 333 59023;EQDQ01  00002PRCP99
0196427790999992000021603004+22770+081900FM-12+062599999V0209999C000012200019N0040001N1+01701+00661101511ADDAA199000091GA1001+999999999GF100991001001999999001001KA1120N+01291MA1999999094401MD1999999-0251REMSYN070AAXX  16034 42779 32996 00000 10170 20066 39440 40151 333 20129 59025;EQDQ01  00002PRCP99
0195427790999992000021606004+22770+081900FM-12+062599999V0201401N001512200019N0100001N1+02541+00831101281ADDAA199000091GA1021+006009069GF104991041041008001001001MA1999999094401MD1999999-0191REMSYN082AAXX  16064 42779 32597 41403 10254 20083 39440 40128 84400 333 59019 82620 83825;EQDQ01  00002PRCP99
0195427790999992000021609004+22770+081900FM-12+062599999V0201401N001012200019N0100001N1+02701+01071100901ADDAA199000091GA1021+006009069GF104991041041008001001001MA1999999094071MD1999999-0211REMSYN082AAXX  16094 42779 32597 41402 10270 20107 39407 40090 84400 333 59021 82620 83825;EQDQ01  00002PRCP99
0236427790999992000021612004+22770+081900FM-12+062599999V0209999C00001007501CN0100001N1+02541+01241100871ADDAA199000091GA1021+006009069GA2031+007509089GF106991041081008001031001KA1120M+02771MA1999999094021MD1999999-0201REMSYN094AAXX  16124 42779 32597 60000 10254 20124 39402 40087 84830 333 10277 59020 82620 83825 85360;EQDQ01  00002PRCP99
0167427790999992000021618004+22770+081900FM-12+062599999V0209999C000012200019N0040001N1+99999+99999101161ADDAA199000091GF102991021001999999031001MA1999999094121MD1999999-0271REMSYN070AAXX  16184 42779 32996 20000 20105 39412 40116 82030 333 59027 823//;EQDQ01  00002PRCP99
0177427790999992000021621004+22770+081900FM-12+062599999V0209999C000012200019N0040001N1+01581+00921101161ADDAA199000091GA1001+999999999GF100991001001999999001001MA1999999094061MD1999999-0201REMSYN064AAXX  16214 42779 32996 00000 10158 20092 39406 40116 333 59020;EQDQ01  00002PRCP99
0177427790999992000021700004+22770+081900FM-12+062599999V0209999C000012200019N0040001N1+01461+00861101151ADDAA199000091GA1001+999999999GF100991001001999999001001MA1999999094021MD1999999-0171REMSYN064AAXX  17004 42779 32996 00000 10146 20086 39402 40115 333 59017;EQDQ01  00002PRCP99
0196427790999992000021703004+22770+081900FM-12+062599999V0203601N001012200019N0100001N1+01701+00801101291ADDAA199000091GA1001+999999999GF100991001001999999001001KA1120N+01371MA1999999094201MD1999999-0201REMSYN070AAXX  17034 42779 32997 03602 10170 20080 39420 40129 333 20137 59020;EQDQ01  00002PRCP99
0177427790999992000021706004+22770+081900FM-12+062599999V0203601N001512200019N0100001N1+02401+00381101121ADDAA199000091GA1001+999999999GF100991001001999999001001MA1999999094201MD1999999-0201REMSYN064AAXX  17064 42779 32997 03603 10240 20038 39420 40112 333 59020;EQDQ01  00002PRCP99
0208427790999992000021712004+22770+081900FM-12+062599999V0203601N000512200019N0100001N1+02361+00251100721ADDAA199000091GA1011+007509059GF101991011051008001001001KA1120M+02661MA1999999093831MD1999999-0191REMSYN082AAXX  17124 42779 32597 13601 10236 20025 39383 40072 81500 333 10266 59019 81625;EQDQ01  00002PRCP99
0177427790999992000021718004+22770+081900FM-12+062599999V0209999C000012200019N0040001N1+01501+00331101251ADDAA199000091GA1001+999999999GF100991001001999999001001MA1999999094111MD1999999-0011REMSYN064AAXX  17184 42779 32996 00000 10150 20033 39411 40125 333 59001;EQDQ01  00002PRCP99
0177427790999992000021721004+22770+081900FM-12+062599999V0209999C000012200019N0040001N1+01261+00271101181ADDAA199000091GA1001+999999999GF100991001001999999001001MA1999999094001MD1999999-0061REMSYN064AAXX  17214 42779 32996 00000 10126 20027 39400 40118 333 59006;EQDQ01  00002PRCP99
0177427790999992000021800004+22770+081900FM-12+062599999V0209999C000012200019N0040001N1+01141+00321101231ADDAA199000091GA1001+999999999GF100991001001999999001001MA1999999094031MD1999999+0011REMSYN064AAXX  18004 42779 32996 00000 10114 20032 39403 40123 333 58001;EQDQ01  00002PRCP99
0196427790999992000021803004+22770+081900FM-12+062599999V0203201N000512200019N0100001N1+01561+00521101391ADDAA199000091GA1001+999999999GF100991001001999999001001KA1120N+01061MA1999999094281MD1999999+0021REMSYN070AAXX  18034 42779 32997 03201 10156 20052 39428 40139 333 20106 58002;EQDQ01  00002PRCP99
0177427790999992000021806004+22770+081900FM-12+062599999V0202701N000512200019N0100001N1+02401-00181101261ADDAA199000091GA1001+999999999GF100991001001999999001001MA1999999094331MD1999999+0131REMSYN064AAXX  18064 42779 32997 02701 10240 21018 39433 40126 333 58013;EQDQ01  00002PRCP99
0196427790999992000021812004+22770+081900FM-12+062599999V0203601N000512200019N0100001N1+02401+00191100891ADDAA199000091GA1001+999999999GF100991001001999999001001KA1120M+02701MA1999999093991MD1999999+0161REMSYN070AAXX  18124 42779 32997 03601 10240 20019 39399 40089 333 10270 58016;EQDQ01  00002PRCP99
0177427790999992000021815004+22770+081900FM-12+062599999V0209999C000012200019N0040001N1+01741+00051101251ADDAA199000091GA1001+999999999GF100991001001999999001001MA1999999094181MD1999999+0131REMSYN064AAXX  18154 42779 32996 00000 10174 20005 39418 40125 333 58013;EQDQ01  00002PRCP99
0177427790999992000021818004+22770+081900FM-12+062599999V0209999C000012200019N0040001N1+01501+00161101401ADDAA199000091GA1001+999999999GF100991001001999999001001MA1999999094201MD1999999+0151REMSYN064AAXX  18184 42779 32996 00000 10150 20016 3942/ 40140 333 58015;EQDQ01  00002PRCP99
0177427790999992000021900004+22770+081900FM-12+062599999V0209999C000012200019N0040001N1+01241+00071101301ADDAA199000091GA1001+999999999GF100991001001999999001001MA1999999094111MD1999999+0081REMSYN064AAXX  19004 42779 32996 00000 10124 20007 39411 40130 333 58008;EQDQ01  00002PRCP99
0196427790999992000021903004+22770+081900FM-12+062599999V0209999C000012200019N0100001N1+01741+00181101401ADDAA199000091GA1001+999999999GF100991001001999999001001KA1120N+01101MA1999999094321MD1999999+0041REMSYN070AAXX  19034 42779 32997 00000 10174 20018 39432 40140 333 20110 58004;EQDQ01  00002PRCP99
0177427790999992000021906004+22770+081900FM-12+062599999V0203601N000512200019N0100001N1+02541+00051101191ADDAA199000091GA1001+999999999GF100991001001999999001001MA1999999094311MD1999999-0021REMSYN064AAXX  19064 42779 32997 03601 10254 20005 39431 40119 333 59002;EQDQ01  00002PRCP99
0189427790999992000021909004+22770+081900FM-12+062599999V0201401N001012200019N0100001N1+02681-00021100891ADDAA199000091GA1021+007509059GF102991021051008001001001MA1999999094061MD1999999+0011REMSYN076AAXX  19094 42779 32597 21402 10268 21002 39406 40089 82500 333 58001 82625;EQDQ01  00002PRCP99
0208427790999992000021912004+22770+081900FM-12+062599999V0203601N000512200019N0100001N1+02541+00451100851ADDAA199000091GA1011+007509059GF101991011051008001001001KA1120M+02771MA1999999094001MD1999999+0011REMSYN082AAXX  19124 42779 32597 13601 10254 20045 39400 40085 81500 333 10277 58001 81625;EQDQ01  00002PRCP99
0177427790999992000021918004+22770+081900FM-12+062599999V0209999C000012200019N0040001N1+01561+00131101361ADDAA199000091GA1001+999999999GF100991001001999999001001MA1999999094241MD1999999-0021REMSYN064AAXX  19184 42779 32996 00000 10156 20013 39424 40136 333 59002;EQDQ01  00002PRCP99
0189427790999992000021921004+22770+081900FM-12+062599999V0209999C000012200019N0040001N1+01421+00331101211ADDAA199000091GA1021+030009079GF102991021001999999031001MA1999999094081MD1999999-0041REMSYN076AAXX  19214 42779 32996 20000 10142 20033 39408 40121 82030 333 59004 82360;EQDQ01  00002PRCP99
0189427790999992000022000004+22770+081900FM-12+062599999V0209999C000010300019N0040001N1+01301+00381101191ADDAA199000091GA1051+030009079GF105991051001999999031001MA1999999094011MD1999999-0101REMSYN076AAXX  20004 42779 32996 50000 10130 20038 39401 40119 85030 333 59010 85360;EQDQ01  00002PRCP99
0189427790999992000022006004+22770+081900FM-12+062599999V0201401N001012200019N0100001N1+02321+00701101181ADDAA199000091GA1021+030009079GF102991021001999999031001MA1999999094261MD1999999-0051REMSYN076AAXX  20064 42779 32997 21402 10232 20070 39426 40118 82030 333 59005 82360;EQDQ01  00002PRCP99
0214427790999992000022012004+22770+081900FM-12+062599999V0201401N00101036001CN0040001N1+02301+00721100811ADDAA199000091GA1041+005409069GF108991041051004501021999KA1120M+02591MA1999999093901MD1999999-0101REMSYN088AAXX  20124 42779 32496 81402 10230 20072 39390 40081 8452/ 333 10259 59010 84618 88458;EQDQ01  00002PRCP99
0195427790999992000022015004+22770+081900FM-12+062599999V0201401N00101036001CN0040001N1+02081+01021101031ADDAA199000091GA1041+005409069GF108991041051004501021999MA1999999094051MD1999999-0101REMSYN082AAXX  20154 42779 32496 81402 10208 20102 39405 40103 8452/ 333 59010 84618 88458;EQDQ01  00002PRCP99
0195427790999992000022018004+22770+081900FM-12+062599999V0201401N00151036001CN0040001N1+01881+01231101111ADDAA199000091GA1041+006009069GF108991041051008001021999MA1999999094091MD1999999-0151REMSYN082AAXX  20184 42779 32596 81403 10188 20123 39409 40111 8452/ 333 59015 84620 88458;EQDQ01  00002PRCP99
0195427790999992000022021004+22770+081900FM-12+062599999V0201401N00151036001CN0040001N1+01681+00911101101ADDAA199000091GA1041+006009069GF108991041051008001021999MA1999999094021MD1999999-0061REMSYN082AAXX  20214 42779 32596 81403 10168 20091 39402 40110 8452/ 333 59006 84620 88458;EQDQ01  00002PRCP99
0231427790999992000022103004+22770+081900FM-12+062599999V0201401N00051036001CN0040001N1+01621+01131101621ADDAA100000791AA224999999GA1041+006009069GF108991041051008001021999KA1120N+01441MA1999999094321MD1999999+0071REMSYN094AAXX  21034 42779 22596 81401 10162 20113 39432 40162 8452/ 333 20144 58007 6990/ 84620 88458;EQDQ01  99992PRCP24
0193427790999992000022109004+22770+081900FM-12+062599999V0201801N000510075019N0100001N1+02201+01451101141ADDAA100000592AA206000492GA1031+006009069GF106991051041008001031001MA1999999094171MD1999999+0201REMSYN088AAXX  21094 42779 22597 61801 10220 20145 39417 40114 85430 333 58020 6994/ 83620 83825;
0206427790999992000022112004+22770+081900FM-12+062599999V0201801N001012200019N0100001N1+02061+01541101041ADDAA100000592AA209000492GA1011+009009029GF101991011011008001001001KA1120M+02321MA1999999094061MD1999999+0161REMSYN088AAXX  21124 42779 22597 11802 10206 20154 39406 40104 81100 333 10232 58016 6994/ 81830;
0187427790999992000022115004+22770+081900FM-12+062599999V0209999C000012200019N0040001N1+01841+01511101291ADDAA100000592AA212000492GA1021+006009059GF103991021051008001031001MA1999999094251MD1999999+0201REMSYN082AAXX  21154 42779 22596 30000 10184 20151 39425 40129 82530 333 58020 6994/ 82620;
0212427790999992000022203004+22770+081900FM-12+062599999V0201801N00051036001CN0040001N1+01801+01471101511ADDAA100000592AA224000492GA1031+006009069GF107991031051008001021001KA1120N+01491MA1999999094431MD1999999+0111REMSYN094AAXX  22034 42779 22596 71801 10180 20147 39443 40151 83520 333 20149 58011 6994/ 83620 87458;
0195427790999992000022206004+22770+081900FM-12+062599999V0201801N000512200019N0100001N1+02441+01591101381ADDAA199000091GA1011+006009069GF103991031041008001001001MA1999999094471MD1999999+0071REMSYN082AAXX  22064 42779 32597 31801 10244 20159 39447 40138 83400 333 58007 81620 83825;EQDQ01  00002PRCP99
0195427790999992000022209004+22770+081900FM-12+062599999V0201401N000510075019N0100001N1+02481+01451101101ADDAA199000091GA1031+006009069GF106991051041008001031001MA1999999094211MD1999999+0041REMSYN082AAXX  22094 42779 32597 61401 10248 20145 39421 40110 85430 333 58004 83620 83825;EQDQ01  00002PRCP99
0240427790999992000022212004+22770+081900FM-12+062599999V0201401N000512200019N0100001N1+02181+01571101151ADDAA100000391AA209000391AY151061AY221061GA1021+006009069GF104991041041008001001001KA1120M+02651MA1999999094181MD1999999+0121MW1021REMSYN100AAXX  22124 42779 21597 41401 10218 20157 39418 40115 70252 84400 333 10265 58012 6993/ 82620 83825;
0221427790999992000022215004+22770+081900FM-12+062599999V0201401N000510360019N0040001N1+01981+01591101361ADDAA100000591AA212000591AY161031AY221031GA1031+006009069GF107991041041008001031001MA1999999094331MD1999999+0081MW1501REMSYN094AAXX  22154 42779 22596 71401 10198 20159 39433 40136 75062 84430 333 58008 6995/ 83620 83825;
0187427790999992000022218004+22770+081900FM-12+062599999V0209999C000012200019N0040001N1+01741+01481101421ADDAA100000591AA215000591GA1021+030009079GF102991021001008001031001MA1999999094341MD1999999+0021REMSYN082AAXX  22184 42779 22596 20000 10174 20148 39434 40142 82030 333 58002 6995/ 82360;
0193427790999992000022300004+22770+081900FM-12+062599999V0209999C00001036001CN0040001N1+01541+01111101441ADDAA100000591AA221000591GA1021+006009069GF106991021051008001031001MA1999999094311MD1999999+0151REMSYN088AAXX  23004 42779 22596 60000 10154 20111 39431 40144 82530 333 58015 6995/ 82620 85360;
0212427790999992000022303004+22770+081900FM-12+062599999V0203601N00051036001CN0040001N1+01781+01191101621ADDAA100000591AA224000591GA1031+006009069GF107991031051008001071001KA1120N+01501MA1999999094531MD1999999+0101REMSYN094AAXX  23034 42779 22596 73601 10178 20119 39453 40162 83570 333 20150 58010 6995/ 83620 85360;
0195427790999992000022306004+22770+081900FM-12+062599999V0203601N00051036001CN0040001N1+02061+01131101611ADDAA199000091GA1041+006009069GF108991041051008001011999MA1999999094591MD1999999+0121REMSYN082AAXX  23064 42779 32596 83601 10206 20113 39459 40161 8451/ 333 58012 84620 88458;EQDQ01  00002PRCP99
0195427790999992000022309004+22770+081900FM-12+062599999V0203601N00261036001CN0040001N1+01901+01211101481ADDAA199000091GA1041+006009069GF108991041051008001011999MA1999999094431MD1999999+0221REMSYN082AAXX  23094 42779 32596 83605 10190 20121 39443 40148 8451/ 333 58022 84620 88458;EQDQ01  00002PRCP99
0240427790999992000022312004+22770+081900FM-12+062599999V0200501N00101036001CN0040001N1+01481+01311101301ADDAA100001091AA209001091AY151061AY251061GA1041+005409069GF108991041051004501021999KA1120M+02201MA1999999094441MD1999999+0261MW1511REMSYN100AAXX  23124 42779 21496 80502 10148 20131 39444 40130 75155 8452/ 333 10220 58026 6001/ 84618 88458;
0146427790999992000022318004+22770+081900FM-12+062599999V0209999C000010360019N0040001N1+01501+01031101701ADDAA100999999GF108991041051008001021999MA1999999094531REMSYN082AAXX  23184 42779 22596 80000 10150 20103 39453 40170 8452/ 333 5019/ 6/01/ 8458/;
0193427790999992000022321004+22770+081900FM-12+062599999V0209999C00001036001CN0040001N1+01541+00951101541ADDAA100001091AA218001091GA1041+006009069GF108991041051008001021999MA1999999094411MD1999999+0121REMSYN088AAXX  23214 42779 22596 80000 10154 20095 39441 40154 8452/ 333 58012 6001/ 84620 88458;
0212427790999992000022403004+22770+081900FM-12+062599999V0209999C00001036001CN0040001N1+01641+01031101691ADDAA100001091AA224001091GA1021+006009069GF105991021051008001031001KA1120N+01431MA1999999094571MD1999999+0041REMSYN094AAXX  24034 42779 22596 50000 10164 20103 39457 40169 82530 333 20143 58004 6001/ 82620 84360;
0195427790999992000022406004+22770+081900FM-12+062599999V0203601N00051036001CN0100001N1+01841+00891101701ADDAA199000091GA1031+006009069GF108991031051008001021999MA1999999094631MD1999999+0041REMSYN082AAXX  24064 42779 32597 83601 10184 20089 39463 40170 8352/ 333 58004 83620 88458;EQDQ01  00002PRCP99
0195427790999992000022409004+22770+081900FM-12+062599999V0209999C00001036001CN0100001N1+01961+00471101511ADDAA199000091GA1031+006009069GF108991031051008001021999MA1999999094481MD1999999+0051REMSYN082AAXX  24094 42779 32597 80000 10196 20047 39448 40151 8352/ 333 58005 83620 88458;EQDQ01  00002PRCP99
0214427790999992000022412004+22770+081900FM-12+062599999V0209999C00001036001CN0040001N1+01821+00631101451ADDAA199000091GA1021+006009069GF106991021051008001021001KA1120M+02001MA1999999094401MD1999999-0041REMSYN088AAXX  24124 42779 32596 60000 10182 20063 39440 40145 82520 333 10200 59004 82620 86458;EQDQ01  00002PRCP99
0173427790999992000022415004+22770+081900FM-12+062599999V0209999C000010360019N0040001N1+01661+00661101651ADDAA199000091GF108991031051004501021999MA1999999094531MD1999999+0001REMSYN076AAXX  24154 42779 32496 80000 10166 20066 39453 40165 8352/ 333 58000 8368/;EQDQ01  00002PRCP99
0189427790999992000022418004+22770+081900FM-12+062599999V0201801N000512200019N0040001N1+99999+99999101601ADDAA199000091GA1011+008409059GF102991011051008001031001MA1999999094501MD1999999-0031REMSYN076AAXX  24184 42779 3/596 21801 18148 20061 39450 4016/ 81530 333 59003 81628;EQDQ01  00002PRCP99
0189427790999992000022421004+22770+081900FM-12+062599999V0209999C000012200019N0040001N1+01181+00521101581ADDAA199000091GA1011+006009059GF101991011051008001001001MA1999999094351MD1999999-0061REMSYN076AAXX  24214 42779 32596 10000 10118 20052 39435 40158 81500 333 59006 81620;EQDQ01  00002PRCP99
0177427790999992000022500004+22770+081900FM-12+062599999V0209999C000012200019N0040001N1+01061+00521101581ADDAA199000091GA1001+999999999GF100991001001999999001001MA1999999094321MD1999999-0061REMSYN064AAXX  25004 42779 32996 00000 10106 20052 39432 40158 333 59006;EQDQ01  00002PRCP99
0195427790999992000022506004+22770+081900FM-12+062599999V0200501N00051036001CN0100001N1+02161-00151101501ADDAA199000091GA1021+006009069GF106991031041008001031001MA1999999094511MD1999999-0121REMSYN082AAXX  25064 42779 32597 60501 10216 21015 39451 40150 83430 333 59012 82620 85360;EQDQ01  00002PRCP99
0195427790999992000022509004+22770+081900FM-12+062599999V0203601N00051036001CN0100001N1+02261+00501101201ADDAA199000091GA1021+006009069GF106991031041008001031001MA1999999094261MD1999999-0221REMSYN082AAXX  25094 42779 32597 63601 10226 20050 39426 40120 83430 333 59022 82620 85360;EQDQ01  00002PRCP99
0200427790999992000022512004+22770+081900FM-12+062599999V0209999C00001036001CN0100001N1+02101+00681101111ADDAA199000091GA1031+006009069GF106991031051008001031001KA1120M+02271MA1999999094121REMSYN088AAXX  25124 42779 32597 60000 10210 20068 39412 40111 83530 333 10227 590/8 83620 85360;EQDQ01  00002PRCP99
0177427790999992000022521004+22770+081900FM-12+062599999V0209999C000012200019N0040001N1+01221+00651101341ADDAA199000091GA1001+999999999GF100991001001999999001001MA1999999094151MD1999999-0201REMSYN064AAXX  25214 42779 32996 00000 10122 20065 39415 40134 333 59020;EQDQ01  00002PRCP99
0189427790999992000022600004+22770+081900FM-12+062599999V0209999C000012200019N0040001N1+01201+00641101401ADDAA199000091GA1021+030009079GF102991021001999999031001MA1999999094181MD1999999-0141REMSYN076AAXX  26004 42779 32996 20000 10120 20064 39418 40140 82030 333 59014 82360;EQDQ01  00002PRCP99
0208427790999992000022603004+22770+081900FM-12+062599999V0203201N000512200019N0100001N1+01441+00751101501ADDAA199000091GA1011+006009059GF102991011051008001031001KA1120N+01161MA1999999094341MD1999999-0191REMSYN082AAXX  26034 42779 32597 23201 10144 20075 39434 40150 81530 333 20116 59019 81620;EQDQ01  00002PRCP99
0189427790999992000022606004+22770+081900FM-12+062599999V0203601N000512200019N0100001N1+02361+00551101291ADDAA199000091GA1011+007509059GF101991011051008001001001MA1999999094361MD1999999-0151REMSYN076AAXX  26064 42779 32597 13601 10236 20055 39436 40129 81500 333 59015 81625;EQDQ01  00002PRCP99
0205427790999992000022609004+22770+081900FM-12+062599999V0200501N000512200019N0100001N1+02581+00581999999ADDAA199000091GA1021+006009059GF103991031041008001001001MA1999999094071MD1999999-0191REMSYN076AAXX  26094 42779 32597 30501 10258 20058 39407 40192 83400 333 59019 82620;EQDQ01+101923APOSLPQ02  00002PRCP99
0208427790999992000022612004+22770+081900FM-12+062599999V0209999C000012200019N0100001N1+02361+01051100931ADDAA199000091GA1011+006009059GF103991021041008001031001KA1120M+02601MA1999999094031MD1999999-0091REMSYN082AAXX  26124 42779 32597 30000 10236 20105 39403 40093 82430 333 10260 59009 81620;EQDQ01  00002PRCP99
0189427790999992000022615004+22770+081900FM-12+062599999V0209999C000012200019N0040001N1+01781+01271101251ADDAA199000091GA1011+006009059GF101991011051008001001001MA1999999094181MD1999999-0091REMSYN076AAXX  26154 42779 32596 10000 10178 20127 39418 40125 81500 333 59009 81620;EQDQ01  00002PRCP99
0177427790999992000022618004+22770+081900FM-12+062599999V0203201N000512200019N0040001N1+01521+01201101331ADDAA199000091GA1001+999999999GF100991001001999999001001MA1999999094221MD1999999-0021REMSYN064AAXX  26184 42779 32996 03201 10152 20120 39422 40133 333 59002;EQDQ01  00002PRCP99
0177427790999992000022700004+22770+081900FM-12+062599999V0209999C000012200019N0040001N1+01181+00481101381ADDAA199000091GA1001+999999999GF100991001001999999001001MA1999999094161MD1999999-0021REMSYN064AAXX  27004 42779 32996 00000 10118 20048 39416 40138 333 59002;EQDQ01  00002PRCP99
0196427790999992000022703004+22770+081900FM-12+062599999V0209999C000012200019N0100001N1+01721+00641101461ADDAA199000091GA1001+999999999GF100991001001999999001001KA1120N+01041MA1999999094381MD1999999+0041REMSYN070AAXX  27034 42779 32997 00000 10172 20064 39438 40146 333 20104 58004;EQDQ01  00002PRCP99
0177427790999992000022706004+22770+081900FM-12+062599999V0203601N000512200019N0100001N1+02561+00021101281ADDAA199000091GA1001+999999999GF100991001001999999001001MA1999999094401MD1999999+0041REMSYN064AAXX  27064 42779 32997 03601 10256 20002 39440 40128 333 58004;EQDQ01  00002PRCP99
0177427790999992000022709004+22770+081900FM-12+062599999V0203601N001512200019N0100001N1+02801+00241100941ADDAA199000091GA1001+999999999GF100991001001999999001001MA1999999094121MD1999999+0051REMSYN064AAXX  27094 42779 32997 03603 10280 20024 39412 40094 333 58005;EQDQ01  00002PRCP99
0196427790999992000022712004+22770+081900FM-12+062599999V0203601N001012200019N0100001N1+02541-00021101001ADDAA199000091GA1001+999999999GF100991001001999999001001KA1120M+02841MA1999999094131MD1999999+0101REMSYN070AAXX  27124 42779 32997 03602 10254 21002 39413 40100 333 10284 58010;EQDQ01  00002PRCP99
0177427790999992000022715004+22770+081900FM-12+062599999V0209999C000012200019N0040001N1+01881+00101101401ADDAA199000091GA1001+999999999GF100991001001999999001001MA1999999094351MD1999999+0171REMSYN064AAXX  27154 42779 32996 00000 10188 20010 39435 40140 333 58017;EQDQ01  00002PRCP99
0177427790999992000022718004+22770+081900FM-12+062599999V0209999C000012200019N0040001N1+01741+00081101481ADDAA199000091GA1001+999999999GF100991001001999999001001MA1999999094401MD1999999+0181REMSYN064AAXX  27184 42779 32996 00000 10174 20008 3944/ 40148 333 58018;EQDQ01  00002PRCP99
0177427790999992000022721004+22770+081900FM-12+062599999V0203201N000512200019N0040001N1+01441+00191101451ADDAA199000091GA1001+999999999GF100991001001999999001001MA1999999094301MD1999999+0211REMSYN064AAXX  27214 42779 32996 03201 10144 20019 39430 40145 333 58021;EQDQ01  00002PRCP99
0196427790999992000022803004+22770+081900FM-12+062599999V0209999C000012200019N0100001N1+02021+00151101561ADDAA199000091GA1001+999999999GF100991001001999999001001KA1120N+01141MA1999999094541MD1999999+0161REMSYN070AAXX  28034 42779 32997 00000 10202 20015 39454 40156 333 20114 58016;EQDQ01  00002PRCP99
0177427790999992000022809004+22770+081900FM-12+062599999V0203201N002112200019N0100001N1+02981-00401101051ADDAA199000091GA1001+999999999GF100991001001999999001001MA1999999094281MD1999999+0161REMSYN064AAXX  28094 42779 32997 03204 10298 21040 39428 40105 333 58016;EQDQ01  00002PRCP99
0196427790999992000022812004+22770+081900FM-12+062599999V0203201N001012200019N0100001N1+02761-00161101101ADDAA199000091GA1001+999999999GF100991001001999999001001KA1120M+03041MA1999999094281MD1999999+0151REMSYN070AAXX  28124 42779 32997 03202 10276 21016 39428 40110 333 10304 58015;EQDQ01  00002PRCP99
0177427790999992000022815004+22770+081900FM-12+062599999V0209999C000012200019N0040001N1+02021+00341101361ADDAA199000091GA1001+999999999GF100991001001999999001001MA1999999094351MD1999999+0001REMSYN064AAXX  28154 42779 32996 00000 10202 20034 39435 40136 333 58000;EQDQ01  00002PRCP99
0177427790999992000022818004+22770+081900FM-12+062599999V0209999C004112200019N0040001N1+99999+99999101471ADDAA199000091GA1001+999999999GF100991001001999999001001MA1999999094391MD1999999-0011REMSYN064AAXX  28184 42779 32996 00008 10788 20009 39439 40147 333 59001;EQDQ01  00002PRCP99
0177427790999992000022821004+22770+081900FM-12+062599999V0209999C000012200019N0040001N1+01801+00091101261ADDAA199000091GA1001+999999999GF100991001001999999001001MA1999999094191MD1999999-0111REMSYN064AAXX  28214 42779 32996 00000 10180 20009 39419 40126 333 59011;EQDQ01  00002PRCP99
0177427790999992000022900004+22770+081900FM-12+062599999V0209999C000012200019N0040001N1+01781+00181101301ADDAA199000091GA1001+999999999GF100991001001999999001001MA1999999094231MD1999999-0081REMSYN064AAXX  29004 42779 32996 00000 10178 20018 39423 40130 333 59008;EQDQ01  00002PRCP99
0182427790999992000022903004+22770+081900FM-12+062599999V0202701N000512200019N0100001N1+02261+00191101391ADDAA199000091GA1001+999999999GF100991001001999999001001KA1120N+01651MA1999999094441REMSYN070AAXX  29034 42779 32997 02701 10226 20019 39444 40139 333 20165 55010;EQDQ01  00002PRCP99
0177427790999992000022906004+22770+081900FM-12+062599999V0203601N001012200019N0100001N1+02941+00251101151ADDAA199000091GA1001+999999999GF100991001001999999001001MA1999999094361MD1999999-0201REMSYN064AAXX  29064 42779 32997 03602 10294 20025 39436 40115 333 59020;EQDQ01  00002PRCP99
