0152433390999992000032606004+10230+077470FM-12+234399999V0201601N000512200019N0150001N1+01491-00341101101ADDAA199000091GA1001+999999999GF100991001001999999001001MD1710341+9999REMSYN054AAXX  26064 43339 32965 01601 10149 21034 40110 57034;EQDQ01  00002PRCP99
0223433390999992000101012004+10230+077470FM-12+234399999V0209999C000019999999N0002001N1+01461+01191999999ADDAA199000091AY131061AY231061GF108991081071999999999999KA1120M+02141MA1999999076981MD1999999+0101ME1431379MW1401REMSYN082AAXX  10124 43339 31/92 80000 10146 20119 37698 47137 74033 887// 333 10214 58010;EQDQ01  00002PRCP99
