0217467380999992000010103004+24930+121300FM-12+0141RCUK V0200201N003612200019N0250001N1+02501+01861101551ADDAA106000091GA1011+006009089GA2031+021009039GF103991011011008001031001MA1999999101011MD1710111+9999REMSYN088AAXX  01034 46738 32575 30207 10250 20186 30101 40155 57011 81130 555 81820 83357 00000;EQDQ01  00002PRCP06
0218467380999992000010106004+24930+121300FM-12+0141RCUK V0201001N00311008401CN0200001N1+02541+02061101381ADDAA106000091GA1021+003609089GA2031+008409069GA3051+021009039GF105991031081004501031001MD1710171+9999REMSYN088AAXX  01064 46738 32470 51006 10254 20206 40138 57017 83830 555 82812 83628 85357 00000;EQDQ01  00002PRCP06
0217467380999992000010109004+24930+121300FM-12+0141RCUK V0200701N002112200019N0120001N1+02411+01921101381ADDAA106000091GA1021+003609089GA2031+008409069GF103991031081004501031001MA1999999100841MD1010001+9999REMSYN088AAXX  01094 46738 32462 30704 10241 20192 30084 40138 50000 83830 555 82812 83628 00000;EQDQ01  00002PRCP06
0218467380999992000010112004+24930+121300FM-12+0141RCUK V0203301N000512200019N0150001N1+02091+01751101491ADDAA106000091GA1021+004509089GF102991021081004501001001KA1120M+02801MA1999999100951MD1210111+9999REMSYN092AAXX  01124 46738 32465 23301 10209 20175 30095 40149 52011 82800 333 10280 555 82815 00000;EQDQ01  00002PRCP06
0140467380999992000010203004+24930+121300FM-12+0141RCUK V0200101N002610360019N0150001N1+99999+99999101661ADDGF105991031081004501031001MD1310071+9999REMSYN088AAXX  02034 46738 12465 50105 102/9 20131 40166 53007 83830 555 81813 83635 85362 00000;
0239467380999992000010206004+24930+121300FM-12+0141RCUK V0200601N00511024001CN0150001N1+02331+01181101521ADDAA106000091GA1011+003909089GA2031+009009069GA3071+024009039GF107991031081004501031001MA1999999100981MD1710141+9999REMSYN094AAXX  02064 46738 32465 70610 10233 20118 30098 40152 57014 83830 555 81813 83630 87358 00000;EQDQ01  00002PRCP06
0290467380999992000010212004+24930+121300FM-12+0141RCUK V0200101N00411018001CN0070001N1+02131+01501101721ADDAA106000091AY111061AY211061GA1011+003909089GA2031+009009069GA3071+018009069GF107991071051004501001001KA1120M+02491MA1999999101181MD1210171+9999MW1051REMSYN110AAXX  02124 46738 31457 70108 10213 20150 30118 40172 52017 70511 87500 333 10249 555 81813 83630 87656 00000;EQDQ01  00002PRCP06
0233467380999992000010215004+24930+121300FM-12+0141RCUK V0200101N00461021001CN0150001N1+99999+99999101791ADDAA106000091GA1011+004509089GA2031+009009069GA3051+021009039GF105991031051004501031001MA1999999101251MD1610071+9999REMSYN088AAXX  02154 46738 32465 50109 20157 30125 40179 56007 83530 555 81815 83630 85357 00000;EQDQ01  00002PRCP06
0217467380999992000010218004+24930+121300FM-12+0141RCUK V0203601N002612200019N0150001N1+01801+01641101761ADDAA106000091GA1011+004509089GA2031+009009069GF103991031051004501001001MA1999999101221MD1610031+9999REMSYN088AAXX  02184 46738 32465 33605 10180 20164 30122 40176 56003 83500 555 81815 83630 00000;EQDQ01  00002PRCP06
0195467380999992000010221004+24930+121300FM-12+0141RCUK V0200101N004112200019N0150001N1+01751+01541101661ADDAA106000091GA1011+004509089GF103991011011004501031001MA1999999101121MD1610101+9999REMSYN082AAXX  02214 46738 32465 30108 10175 20154 30112 40166 56010 81130 555 81815 00000;EQDQ01  00002PRCP06
0264467380999992000010300004+24930+121300FM-12+0141RCUK V0200201N004112200019N0060001N1+01851+01631101791ADDAA106000091AY111061AY211061GA1011+003609089GF101991011011004501001001KA1120N+01641MA1999999101251MD1210131+9999MW1051REMSYN116AAXX  03004 46738 31456 10208 10185 20163 30125 40179 52013 70511 81100 333 20164 555 81812 00000 24000 10249 20176;EQDQ01  00002PRCP06
0208467380999992000010303004+24930+121300FM-12+0141RCUK V0203601N004612200019N0040001N1+02271+01621101791ADDAA106000091AY101031AY201031GF101991011011004501001001MA1999999101251MD1010001+9999MW1051REMSYN089AAXX  03034 46738 31440 13609 10227 20162 30125 40179 50000 70500 81100 555 /81815 00000;EQDQ01  00002PRCP06
0267467380999992000010306004+24930+121300FM-12+0141RCUK V0200701N00461003001CN0040001N1+02251+01771101591ADDAA106000091AY111061AY211061GA1021+001809089GA2031+003009099GA3051+004809089GF105991051031002501001001MA1999999101051MD1710201+9999MW1051REMSYN100AAXX  03064 46738 31340 50709 10225 20177 30105 40159 57020 70511 85300 555 82806 83910 85816 00000;EQDQ01  00002PRCP06
0267467380999992000010309004+24930+121300FM-12+0141RCUK V0203501N00211005401CN0040001N1+02191+01731101591ADDAA106000091AY121031AY221031GA1031+001809089GA2051+005409089GA3071+008409069GF107991071041002501001001MA1999999101051MD1510001+9999MW1051REMSYN100AAXX  03094 46738 31340 73504 10219 20173 30105 40159 55000 70522 87400 555 83806 85818 87628 00000;EQDQ01  00002PRCP06
0290467380999992000010312004+24930+121300FM-12+0141RCUK V0203501N00151005401CN0040001N1+01941+01481101691ADDAA106000091AY121061AY221061GA1031+001809089GA2051+005409089GA3071+008409069GF107991071041002501001001KA1120M+02301MA1999999101151MD1210101+9999MW1051REMSYN110AAXX  03124 46738 31340 73503 10194 20148 30115 40169 52010 70522 87400 333 10230 555 83806 85818 87628 00000;EQDQ01  00002PRCP06
0267467380999992000010318004+24930+121300FM-12+0141RCUK V0203301N00151007501CN0070001N1+01861+01451101721ADDAA106000091AY121061AY221061GA1021+003009089GA2051+007509069GA3071+012009069GF107991071041004501001001MA1999999101181MD1410001+9999MW1051REMSYN100AAXX  03184 46738 31457 73303 10186 20145 30118 40172 54000 70522 87400 555 82810 85625 87640 00000;EQDQ01  00002PRCP06
0267467380999992000010321004+24930+121300FM-12+0141RCUK V0203501N00151007501CN0070001N1+01761+01351101721ADDAA106000091AY121031AY221031GA1021+003009089GA2051+007509069GA3071+012009069GF107991071999004501001001MA1999999101181MD1410001+9999MW1051REMSYN100AAXX  03214 46738 31457 73503 10176 20135 30118 40172 54000 70522 87/00 555 82810 85625 87640 00000;EQDQ01  00002PRCP06
0295467380999992000010400004+24930+121300FM-12+0141RCUK V0203001N02061008401CN0050001N1+01951+01391101691ADDAA106000091AY121061AY221061GA1021+003609089GA2051+008409069GA3061+021009039GF106991051081004501031001MA1999999101151MD1510031+9999MW1051REMSYN128AAXX  04004 46738 31450 63040 10195 20139 30115 40169 55003 70522 85830 333 20710 555 82812 85628 86357 00000 24000 10230 20164;EQDQ01  00002PRCP06
0267467380999992000010403004+24930+121300FM-12+0141RCUK V0200301N00361010501CN0060001N1+02331+01441101691ADDAA106000091AY121031AY221031GA1021+004509089GA2031+010509069GA3061+018009069GF106991061081004501001001MA1999999101151MD1010001+9999MW1051REMSYN100AAXX  04034 46738 31456 60307 10233 20144 30115 40169 50000 70522 86800 555 82815 83635 86656 00000;EQDQ01  00002PRCP06
0267467380999992000010406004+24930+121300FM-12+0141RCUK V0200701N00261024001CN0070001N1+02451+01631101521ADDAA106000091AY121061AY221061GA1031+004509089GA2031+010509069GA3061+024009039GF106991041081004501031001MA1999999100981MD1710171+9999MW1051REMSYN100AAXX  04064 46738 31457 60705 10245 20163 30098 40152 57017 70522 84830 555 83815 83635 86358 00000;EQDQ01  00002PRCP06
0267467380999992000010409004+24930+121300FM-12+0141RCUK V0202801N00261010501CN0080001N1+02231+01631101521ADDAA106000091AY121031AY221031GA1021+003609089GA2051+010509069GA3061+018009069GF107991071081004501001001MA1999999100981MD1410001+9999MW1051REMSYN100AAXX  04094 46738 31458 72805 10223 20163 30098 40152 54000 70522 87800 555 82812 85635 86656 00000;EQDQ01  00002PRCP06
0268467380999992000010412004+24930+121300FM-12+0141RCUK V0203201N00211010501CN0090001N1+02011+01481101591ADDAA106000091AY121061AY221061GA1021+003609089GA2051+010509069GF105991051081004501001001KA1120M+02561MA1999999101051MD1110071+9999MW1051REMSYN104AAXX  04124 46738 31459 53204 10201 20148 30105 40159 51007 70522 85800 333 10256 555 82812 85635 00000;EQDQ01  00002PRCP06
0195467380999992000010415004+24930+121300FM-12+0141RCUK V0200201N001512200019N0100001N1+01841+01371101591ADDAA106000091GA1011+003609089GF101991011011004501001001MA1999999101051MD1010001+9999REMSYN082AAXX  04154 46738 32460 10203 10184 20137 30105 40159 50000 81100 555 81812 00000;EQDQ01  00002PRCP06
0195467380999992000010421004+24930+121300FM-12+0141RCUK V0200101N001012200019N0100001N1+01541+01251101491ADDAA106000091GA1011+003609089GF101991011011004501001001MA1999999100951MD1610061+9999REMSYN082AAXX  04214 46738 32460 10102 10154 20125 30095 40149 56006 81100 555 81812 00000;EQDQ01  00002PRCP06
0195467380999992000010503004+24930+121300FM-12+0141RCUK V0201801N004112200019N0200001N1+02641+01781101491ADDAA106000091GA1011+006009069GF101991011011008001001001MA1999999100951MD1810031+9999REMSYN082AAXX  05034 46738 32570 11808 10264 20178 30095 40149 58003 81100 555 81620 00000;EQDQ01  00002PRCP06
0217467380999992000010506004+24930+121300FM-12+0141RCUK V0201701N005712200019N0200001N1+02671+01911101181ADDAA106000091GA1011+007509069GA2031+030009039GF103991011011008001031001MA1999999100641MD1710311+9999REMSYN088AAXX  05064 46738 32570 31711 10267 20191 30064 40118 57031 81130 555 81625 83360 00000;EQDQ01  00002PRCP06
0217467380999992000010509004+24930+121300FM-12+0141RCUK V0201901N001512200019N0200001N1+02441+01991101221ADDAA106000091GA1011+003609089GA2031+008409069GF103991031081004501001001MA1999999100681MD1310041+9999REMSYN088AAXX  05094 46738 32470 31903 10244 20199 30068 40122 53004 83800 555 81812 83628 00000;EQDQ01  00002PRCP06
0278467380999992000010512004+24930+121300FM-12+0141RCUK V0203301N00151018001CN0160001N1+02271+01881101321ADDAA106000091GA1011+003609089GA2031+009009069GA3061+018009069GF106991999061004501001001KA1120M+02751MA1999999100781MD1210101+9999REMSYN104AAXX  05124 46738 32466 63303 10227 20188 30078 40132 52010 87600 333 10275 555 81812 83630 86656 00000;EQDQ01+000072SCOTLCQ02  00002PRCP06
0255467380999992000010515004+24930+121300FM-12+0141RCUK V0203601N00261018001CN0160001N1+02121+01781101351ADDAA106000091GA1011+004509089GA2031+009009069GA3061+018009069GF106991999061004501001001MA1999999100811MD1110031+9999REMSYN094AAXX  05154 46738 32466 63605 10212 20178 30081 40135 51003 87600 555 81815 83630 86656 00000;EQDQ01+000072SCOTLCQ02  00002PRCP06
0217467380999992000010521004+24930+121300FM-12+0141RCUK V0203601N00211015001CN0130001N1+01981+01691101281ADDAA106000091GA1011+004509089GA2051+015009069GF105991051081004501001001MA1999999100741MD1610041+9999REMSYN088AAXX  05214 46738 32463 53604 10198 20169 30074 40128 56004 85800 555 81815 85650 00000;EQDQ01  00002PRCP06
0232467380999992000010603004+24930+121300FM-12+0141RCUK V0200301N00621021001CN0150001N1+02451+01871101381ADDAA100000791AY161031AY221031GA1021+004509089GA2061+021009039GF106991021011004501031001MA1999999100841MD1010031+9999MW1011REMSYN100AAXX  06034 46738 11465 60312 10245 20187 30084 40138 50003 6990/ 70162 82130 555 82815 86357 00990;
0254467380999992000010606004+24930+121300FM-12+0141RCUK V0200701N00311008401CN0045001N1+02371+02061101251ADDAA106000791AY161061AY221061GA1021+003609089GA2051+008409069GA3081+018009069GF108991081081004501999999MA1999999100711MD1610131+9999MW1601REMSYN106AAXX  06064 46738 11445 80706 10237 20206 30071 40125 56013 69901 76062 888// 555 82812 85628 88656 00990;
0254467380999992000010609004+24930+121300FM-12+0141RCUK V0200101N00211012001CN0050001N1+02271+01981101251ADDAA100000591AY161031AY221031GA1021+003009089GA2051+012009069GA3061+030009039GF106991051081004501031999MA1999999100711MD1510001+9999MW1051REMSYN106AAXX  06094 46738 11450 60104 10227 20198 30071 40125 55000 6995/ 70562 8583/ 555 82810 85640 86360 00995;
0263467380999992000010612004+24930+121300FM-12+0141RCUK V0203601N00151008401CN0060001N1+02061+01811101351ADDAA112000591AY161061AY221061GA1021+003009089GA2031+008409069GA3061+021009039GF106991051081004501031999KA1120M+02601MA1999999100811MW1051REMSYN116AAXX  06124 46738 11456 63603 10206 20181 30081 40135 5/010 69952 70562 8583/ 333 10260 555 82810 83628 86357 00995;
0267467380999992000010615004+24930+121300FM-12+0141RCUK V0209999C00001008401CN0060001N1+02021+01811101381ADDAA106000091AY161031AY221031GA1021+003009089GA2031+008409069GA3061+021009039GF106991051081004501031999MA1999999100841MD1310031+9999MW1051REMSYN100AAXX  06154 46738 31456 60000 10202 20181 30084 40138 53003 70562 8583/ 555 82810 83628 86357 00995;EQDQ01  00002PRCP06
0254467380999992000010706004+24930+121300FM-12+0141RCUK V0200501N00981004801CN0070001N1+02141+01961101521ADDAA106000791AY121061AY221061GA1031+003009089GA2051+004809089GA3071+015009069GF107991071041004501001001MA1999999100981MD1710241+9999MW1161REMSYN106AAXX  07064 46738 11457 70519 10214 20196 30098 40152 57024 69901 71622 87400 555 83810 85816 87650 00990;
0254467380999992000010709004+24930+121300FM-12+0141RCUK V0200301N00411008401CN0200001N1+02151+01831101551ADDAA100000791AY161031AY251031GA1021+005409089GA2051+008409069GA3061+015009069GF106991061051004501001001MA1999999101011MD1310031+9999MW1021REMSYN106AAXX  07094 46738 11470 60308 10215 20183 30101 40155 53003 6990/ 70265 86500 555 82818 85628 86650 00990;
0258467380999992000010712004+24930+121300FM-12+0141RCUK V0200101N00261021001CN0200001N1+02001+01661101601ADDAA112000791AY161061AY251061GA1011+005409089GA2031+010509069GA3051+021009039GF105991031051004501031001MA1999999101121MD1210111+9999MW1021REMSYN110AAXX  07124 46738 11470 50105 10200 20166 30112 4016/ 52011 69902 70265 83530 333 555 81818 83635 85357 00990;
0217467380999992000010715004+24930+121300FM-12+0141RCUK V0200101N002112200019N0200001N1+01931+01651101661ADDAA106000091GA1011+006009089GA2031+027009039GF103991011011008001031001MA1999999101121MD1010001+9999REMSYN088AAXX  07154 46738 32570 30104 10193 20165 30112 40166 50000 81130 555 81820 83359 00990;EQDQ01  00002PRCP06
0274467380999992000010800004+24930+121300FM-12+0141RCUK V0203401N001512200019N0300001N1+01851+01511101551ADDAA106000091GA1011+008409089GA2031+090009009GF103991011011008001001999KA1120N+01641MA1999999101011MD1310061+9999REMSYN116AAXX  08004 46738 32580 33403 10185 20151 30101 40155 53006 81100 333 20164 555 81828 83080 00000 24990 10241 20192;EQDQ01+000002SCOHCGQ02  00002PRCP06
0211467380999992000010803004+24930+121300FM-12+0141RCUK V0200401N004112200019N0300001N1+02481+99999101551ADDAA106000091GA1011+008409089GA2031+090009009GF103991011011008001001011MA1999999101011MD1410001+9999REMSYN082AAXX  08034 46738 32580 30408 10248 30101 40155 54000 81101 555 81828 83080 00000;EQDQ01  00002PRCP06
0195467380999992000010806004+24930+121300FM-12+0141RCUK V0200901N003112200019N0300001N1+02621+01771101321ADDAA106000091GA1011+008409089GF101991011011008001001001MA1999999100781MD1710231+9999REMSYN082AAXX  08064 46738 32580 10906 10262 20177 30078 40132 57023 81100 555 81828 00000;EQDQ01  00002PRCP06
0239467380999992000010809004+24930+121300FM-12+0141RCUK V0200601N00151018001CN0180001N1+02351+01861101351ADDAA106000091GA1011+003609089GA2031+007509069GA3051+018009069GF105991051081004501001001MA1999999100811MD1310031+9999REMSYN094AAXX  08094 46738 32468 50603 10235 20186 30081 40135 53003 85800 555 81812 83625 85656 00000;EQDQ01  00002PRCP06
0262467380999992000010812004+24930+121300FM-12+0141RCUK V0203201N00101018001CN0200001N1+02061+01721101451ADDAA106000091GA1011+003609089GA2031+007509069GA3061+018009069GF106991061051004501001001KA1120M+02641MA1999999100911MD1210101+9999REMSYN104AAXX  08124 46738 32470 63202 10206 20172 30091 40145 52010 86500 333 10264 555 81812 83625 86656 00000;EQDQ01  00002PRCP06
0217467380999992000010815004+24930+121300FM-12+0141RCUK V0203201N002112200019N0300001N1+01871+01621101421ADDAA106000091GA1011+005409089GA2031+021009039GF103991011011004501031001MA1999999100881MD1810031+9999REMSYN088AAXX  08154 46738 32480 33204 10187 20162 30088 40142 58003 81130 555 81818 83357 00000;EQDQ01  00002PRCP06
0195467380999992000010818004+24930+121300FM-12+0141RCUK V0203101N001012200019N0300001N1+01831+01601101221ADDAA106000091GA1011+005409089GF101991011011004501001001MA1999999100681MD1710201+9999REMSYN082AAXX  08184 46738 32480 13102 10183 20160 30068 40122 57020 81100 555 81818 00000;EQDQ01  00002PRCP06
0195467380999992000010821004+24930+121300FM-12+0141RCUK V0203201N002112200019N0300001N1+01741+01471101151ADDAA106000091GA1011+005409089GF101991011011004501001001MA1999999100611MD1810071+9999REMSYN082AAXX  08214 46738 32480 13204 10174 20147 30061 40115 58007 81100 555 81818 00000;EQDQ01  00002PRCP06
0280467380999992000010900004+24930+121300FM-12+0141RCUK V0200101N00211008401CN0400001N1+01881+01611101381ADDAA106000091GA1031+005409089GA2051+008409069GA3071+015009069GF107991071051004501001001KA1120N+01741MA1999999100841MD1210231+9999REMSYN122AAXX  09004 46738 32482 70104 10188 20161 30084 40138 52023 87500 333 20174 555 83818 85628 87650 00000 24000 10264 20164;EQDQ01  00002PRCP06
0239467380999992000010903004+24930+121300FM-12+0141RCUK V0200301N00461008401CN0300001N1+02401+01611101491ADDAA106000091GA1021+005409089GA2051+008409069GA3071+045009039GF107991051051004501031001MA1999999100951MD1210111+9999REMSYN094AAXX  09034 46738 32480 70309 10240 20161 30095 40149 52011 85530 555 82818 85628 87365 00000;EQDQ01  00002PRCP06
0239467380999992000010909004+24930+121300FM-12+0141RCUK V0203601N00411007501CN0200001N1+02431+02001101381ADDAA106000091GA1031+004509089GA2051+007509069GA3071+015009069GF107991071041004501001001MA1999999100841MD1210131+9999REMSYN094AAXX  09094 46738 32470 73608 10243 20200 30084 40138 52013 87400 555 83815 85625 87650 00000;EQDQ01  00002PRCP06
0262467380999992000010912004+24930+121300FM-12+0141RCUK V0209999C00001008401CN0150001N1+02371+01961101491ADDAA106000091GA1011+004509089GA2051+008409069GA3071+015009069GF107991071041004501001001KA1120M+02581MA1999999100951MD1210111+9999REMSYN104AAXX  09124 46738 32465 70000 10237 20196 30095 40149 52011 87400 333 10258 555 81815 85628 87650 00000;EQDQ01  00002PRCP06
0239467380999992000010915004+24930+121300FM-12+0141RCUK V0203301N00151008401CN0150001N1+02121+01961101551ADDAA106000091GA1011+004509089GA2051+008409069GA3071+015009069GF107991071041004501001001MA1999999101011MD1310061+9999REMSYN094AAXX  09154 46738 32465 73303 10212 20196 30101 40155 53006 87400 555 81815 85628 87650 00000;EQDQ01  00002PRCP06
0239467380999992000010918004+24930+121300FM-12+0141RCUK V0203201N00151008401CN0150001N1+02161+01981101551ADDAA106000091GA1011+004509089GA2051+008409069GA3071+015009069GF107991071041004501001001MA1999999101011MD1410001+9999REMSYN094AAXX  09184 46738 32465 73203 10216 20198 30101 40155 5400/ 87400 555 81815 85628 87650 00000;EQDQ01  00002PRCP06
0280467380999992000011000004+24930+121300FM-12+0141RCUK V0200201N00311006001CN0100001N1+02251+01811101591ADDAA106000091GA1021+004509089GA2051+006009069GA3071+015009069GF107991071081004501999999KA1120N+02041MA1999999101051MD1310041+9999REMSYN122AAXX  10004 46738 32460 70206 10225 20181 30105 40159 53004 878// 333 20204 555 82815 85620 87650 00000 24000 10258 20174;EQDQ01  00002PRCP06
0217467380999992000011003004+24930+121300FM-12+0141RCUK V0200501N00411021001CN0130001N1+02601+01871101621ADDAA106000091GA1021+004509089GA2051+021009039GF105991021011004501031001MA1999999101081MD1010031+9999REMSYN088AAXX  10034 46738 32463 50508 10260 20187 30108 40162 50003 82130 555 82815 85357 00000;EQDQ01  00002PRCP06
0195467380999992000011006004+24930+121300FM-12+0141RCUK V0200601N007712200019N0100001N1+02671+02001101451ADDAA106000091GA1021+004509089GF102991021021004501031001MA1999999100911MD1710171+9999REMSYN082AAXX  10064 46738 32460 20615 10267 20200 30091 40145 57017 82230 555 82815 00000;EQDQ01  00002PRCP06
0239467380999992000011015004+24930+121300FM-12+0141RCUK V0200201N00261007501CN0150001N1+02181+01771101691ADDAA106000091GA1021+003609089GA2051+007509069GA3071+018009069GF107991071081004501999999MA1999999101151MD1310031+9999REMSYN094AAXX  10154 46738 32465 70205 10218 20177 30115 40169 53003 878// 555 82812 85625 87656 00000;EQDQ01  00002PRCP06
0239467380999992000011018004+24930+121300FM-12+0141RCUK V0203601N00261007501CN0150001N1+02121+01741101621ADDAA106000091GA1021+003609089GA2051+007509069GA3071+018009069GF107991071081004501999999MA1999999101081MD1810071+9999REMSYN094AAXX  10184 46738 32465 73605 10212 20174 30108 40162 58007 878// 555 82812 85625 87656 00000;EQDQ01  00002PRCP06
0258467380999992000011021004+24930+121300FM-12+0141RCUK V0203601N00261008401CN0200001N1+02091+01711101591ADDAA106000091GA1021+003609089GA2051+008409069GF107991071081004501999999MA1999999101051MD1710031+9999REMSYN097AAXX  10214 46738 32470 73605 10209 20171 30105 40159 5600/ 878// 555 V 82812 85628 IUYTYM 00000;EQDQ01+000062APCTENQ02+000002APC3  Q03  00002PRCP06
0280467380999992000011100004+24930+121300FM-12+0141RCUK V0203501N00211024001CN0120001N1+02111+01791101691ADDAA106000091GA1011+003609089GA2031+009009069GA3071+024009039GF107991071081004501999999KA1120N+02001MA1999999101151MD1210101+9999REMSYN122AAXX  11004 46738 32462 73504 10211 20179 30115 40169 52010 878// 333 20200 555 81812 83630 87358 00000 24000 10275 20204;EQDQ01  00002PRCP06
0239467380999992000011103004+24930+121300FM-12+0141RCUK V0200701N00151030001CN0160001N1+02491+01871101661ADDAA106000091GA1011+003609089GA2031+009009069GA3051+030009039GF105991031081004501031001MA1999999101121MD1810031+9999REMSYN094AAXX  11034 46738 32466 50703 10249 20187 30112 40166 58003 83830 555 81812 83630 85360 00000;EQDQ01  00002PRCP06
0217467380999992000011106004+24930+121300FM-12+0141RCUK V0200901N003112200019N0110001N1+02671+02001101381ADDAA106000091GA1011+003009089GA2031+008409069GF103991031081004501001001MA1999999100841MD1710281+9999REMSYN088AAXX  11064 46738 32461 30906 10267 20200 30084 40138 57028 83800 555 81810 83628 00000;EQDQ01  00002PRCP06
0267467380999992000011109004+24930+121300FM-12+0141RCUK V0209999C00001007501CN0090001N1+02431+02001101381ADDAA106000091AY111031AY211031GA1021+003009089GA2031+007509069GA3071+018009069GF107991071081004501001001MA1999999100841MD1410001+9999MW1051REMSYN100AAXX  11094 46738 31459 70000 10243 20200 30084 40138 54000 70511 87800 555 82810 83625 87656 00000;EQDQ01  00002PRCP06
0290467380999992000011112004+24930+121300FM-12+0141RCUK V0203301N00151007501CN0090001N1+02321+01971101421ADDAA106000091AY111061AY211061GA1021+003009089GA2031+007509069GA3071+018009069GF107991071081004501001001KA1120M+02721MA1999999100881MD1310041+9999MW1051REMSYN110AAXX  11124 46738 31459 73303 10232 20197 30088 40142 53004 70511 87800 333 10272 555 82810 83625 87656 00000;EQDQ01  00002PRCP06
0239467380999992000011121004+24930+121300FM-12+0141RCUK V0209999C00001007501CN0120001N1+01931+01741101381ADDAA106000091GA1021+003009089GA2031+007509069GA3071+018009069GF107991071081004501001001MA1999999100841MD1410001+9999REMSYN094AAXX  11214 46738 32462 70000 10193 20174 30084 40138 54000 87800 555 82810 83625 87656 00000;EQDQ01  00002PRCP06
0280467380999992000011200004+24930+121300FM-12+0141RCUK V0203301N00261024001CN0160001N1+02151+01821101281ADDAA106000091GA1011+005409089GA2041+010509069GA3071+024009039GF107991041081004501031001KA1120N+01891MA1999999100741MD1810101+9999REMSYN122AAXX  12004 46738 32466 73305 10215 20182 30074 40128 58010 84830 333 20189 555 81818 84635 87358 00000 24000 10272 20200;EQDQ01  00002PRCP06
0239467380999992000011203004+24930+121300FM-12+0141RCUK V0200301N00411007801CN0160001N1+02401+01831101281ADDAA106000091GA1021+004509089GA2051+007809069GA3071+015009069GF107991071081004501001001MA1999999100741MD1410001+9999REMSYN094AAXX  12034 46738 32466 70308 10240 20183 30074 40128 54000 87800 555 82815 85626 87650 00000;EQDQ01  00002PRCP06
0239467380999992000011206004+24930+121300FM-12+0141RCUK V0200501N00101004801CN0130001N1+02481+02141101051ADDAA106000091GA1021+003009089GA2051+004809069GA3081+015009069GF108991081081004501999999MA1999999100511MD1710231+9999REMSYN094AAXX  12064 46738 32463 80502 10248 20214 30051 40105 57023 888// 555 82810 85616 88650 00000;EQDQ01  00002PRCP06
0234467380999992000011212004+24930+121300FM-12+0141RCUK V0203201N00151008401CN0120001N1+02191+99999101181ADDAA106000091GA1021+003009089GA2051+008409069GF105991051081004501001001KA1120M+02561MA1999999100641MD1110071+9999REMSYN092AAXX  12124 46738 32462 53203 10219 30064 40118 51007 85800 333 10256 555 82810 85628 00000;EQDQ01  00002PRCP06
0217467380999992000011215004+24930+121300FM-12+0141RCUK V0200201N001012200019N0150001N1+02161+01861101221ADDAA106000091GA1011+003609089GA2031+021009039GF103991011011004501031001MA1999999100681MD1110041+9999REMSYN088AAXX  12154 46738 32465 30202 10216 20186 30068 40122 51004 81130 555 81812 83357 00000;EQDQ01  00002PRCP06
0187467380999992000011218004+24930+121300FM-12+0141RCUK V0203401N002112200019N0150001N1+01931+01751101151ADDGA1011+003609089GA2031+021009039GF103991011011999999031001MA1999999100611MD1610071+9999REMSYN088AAXX  12184 46738 /2/65 33404 10193 20175 30061 40115 56007 81130 555 81812 83357 00000;
0195467380999992000011221004+24930+121300FM-12+0141RCUK V0203301N002612200019N0150001N1+01991+01801101151ADDAA106000091GA1011+003609089GF101991011011004501001001MA1999999100611MD1410001+9999REMSYN082AAXX  12214 46738 32465 13305 10199 20180 30061 40115 54000 81100 555 81812 00000;EQDQ01  00002PRCP06
0217467380999992000011303004+24930+121300FM-12+0141RCUK V0200601N005112200019N0130001N1+02541+02051101251ADDAA106000091GA1021+005409089GA2031+018009069GF103991031081004501001001MA1999999100711MD1010001+9999REMSYN088AAXX  13034 46738 32463 30610 10254 20205 30071 40125 50000 83800 555 82818 83656 00000;EQDQ01  00002PRCP06
0202467380999992000011306004+24930+121300FM-12+0141RCUK V0200701N007712200019N0130001N1+02601+02011101051ADDAA106000091GA1011+005409089GF101991011011004501001001MA1999999100511MD1710201+9999REMSYN089AAXX  13064 46738 32463 10715 10260 20201 30051 40105 57020 81100 555 30523. 81818 00000;EQDQ01  00002PRCP06
0245467380999992000011309004+24930+121300FM-12+0141RCUK V0200601N00721006001CN0100001N1+02311+01941101151ADDAA106000091GA1021+004509089GA2031+006009089GA3071+009009069GF107991071041004501001001MA1999999100611MD1310101+9999REMSYN100AAXX  13094 46738 32460 70614 10231 20194 30061 40115 53010 87400 555 30523 82815 83820 87630 00000;EQDQ01  00002PRCP06
0245467380999992000011315004+24930+121300FM-12+0141RCUK V0200201N00461021001CN0150001N1+02111+01751101351ADDAA106000091GA1011+006009089GA2031+010509069GA3061+021009039GF106991031051008001031001MA1999999100811MD1010001+9999REMSYN100AAXX  13154 46738 32565 60209 10211 20175 30081 40135 50000 83530 555 30523 81820 83635 86357 00990;EQDQ01  00002PRCP06
0245467380999992000011318004+24930+121300FM-12+0141RCUK V0200401N00311021001CN0150001N1+02111+01741101281ADDAA106000091GA1011+006009089GA2031+010509069GA3061+021009039GF106991031051008001031001MA1999999100741MD1810071+9999REMSYN100AAXX  13184 46738 32565 60406 10211 20174 30074 40128 58007 83530 555 30523 81820 83635 86357 00000;EQDQ01  00002PRCP06
0290467380999992000011400004+24930+121300FM-12+014199999V0200201N00411021001CN0300001N1+02021+01681101421ADDAA199000091GA1011+007509089GA2031+013509039GA3051+021009039GF105991011011008001031001KA1120N+01901MA1999999100881MD1210141+9999REMSYN132    AAXX  14004 46738 32580 50208 10202 20168 30088 40142 52014 81130 333 20190 555 30523 81825 83345 85357 00000 24990 10261 20193;EQDQ01  00002PRCP99
0249467380999992000011415004+24930+121300FM-12+014199999V0200201N00211015001CN0130001N1+02111+01771101351ADDAA199000091GA1011+003609089GA2031+007509069GA3061+015009069GF106991061081004501001001MA1999999100811MD1410001+9999REMSYN104    AAXX  14154 46738 32463 60204 10211 20177 30081 40135 54000 86800 555 30523 81812 83625 86650 00000;EQDQ01  00002PRCP99
0249467380999992000011418004+24930+121300FM-12+014199999V0200201N00261015001CN0130001N1+02001+01721101351ADDAA199000091GA1011+003609089GA2031+008409069GA3061+015009069GF106991061081004501001001MA1999999100811MD1410001+9999REMSYN104    AAXX  14184 46738 32463 60205 10200 20172 30081 40135 54000 86800 555 30523 81812 83628 86650 00000;EQDQ01  00002PRCP99
0249467380999992000011421004+24930+121300FM-12+014199999V0203501N00461015001CN0130001N1+02071+01681101351ADDAA199000091GA1011+003609089GA2031+008409069GA3061+015009069GF106991061081004501001001MA1999999100811MD1410001+9999REMSYN104    AAXX  14214 46738 32463 63509 10207 20168 30081 40135 54000 86800 555 30523 81812 83628 86650 00000;EQDQ01  00002PRCP99
0199467380999992000011503004+24930+121300FM-12+014199999V0201201N002112200019N0250001N1+02621+01861101821ADDAA199000091GA1011+005409089GF101991011011004501031001MA1999999100741MD1810041+9999REMSYN086    AAXX  15034 46738 32475 11204 10262 20186 30074 40182 58004 81130 555 81818 00000;EQDQ01  00002PRCP99
0234467380999992000011512004+24930+121300FM-12+014199999V0203001N00151009001CN0250001N1+02301+01951101181ADDAA199000091GA1011+003609089GF106991061081004501001001KA1120M+99999MA1999999100641MD1310101+9999REMSYN092    AAXX  15124 46738 32475 63003 10230 20195 30064 40118 53010 86800 333 10027 81812 00000;EQDQ01  00002PRCP99Q02 +00272ATMX  
0199467380999992000011515004+24930+121300FM-12+014199999V0203501N001512200019N0200001N1+02191+01861101251ADDAA199000091GA1011+004509089GF101991011081004501001001MA1999999100711MD1110071+9999REMSYN086    AAXX  15154 46738 32470 13503 10219 20186 30071 40125 51007 81800 555 81815 00000;EQDQ01  00002PRCP99
0221467380999992000011521004+24930+121300FM-12+014199999V0203301N001512200019N0200001N1+01821+01621101221ADDAA199000091GA1011+004509089GA2031+010509069GF103991031081004501001001MA1999999100681MD1610031+9999REMSYN092    AAXX  15214 46738 32470 33303 10182 20162 30068 40122 56003 83800 555 81815 83635 00000;EQDQ01  00002PRCP99
0263467380999992000011600004+24930+121300FM-12+014199999V0209999C000012200019N0200001N1+02011+01511101451ADDAA199000091GA1021+005409069GA2031+021009039GF103991021041004501031001KA1120N+01791MA1999999100911MD1210231+9999REMSYN121    AAXX  16004 46738 32470 30000 10201 20151 30091 40145 52023 82430 333 20179 555 82618 83357 00000. 2<000 10270 20197;EQDQ01  00002PRCP99
0221467380999992000011603004+24930+121300FM-12+014199999V0200701N00461015001CN0200001N1+02591+01931101491ADDAA199000091GA1031+004209089GA2031+015009069GF105991051081004501001001MA1999999100951MD1310041+9999REMSYN092    AAXX  16034 46738 32470 50709 10259 20193 30095 40149 53004 85800 555 83814 83650 00000;EQDQ01  00002PRCP99
0222467380999992000011609004+24930+121300FM-12+014199999V0200601N00571008401CN0140001N1+02301+01771101221ADDAA199000091GA1031+004809089GA2051+008409089GF105991051021004501001001MA1999999100681MD1610031+9999REMSYN093    AAXX  16094 46738 32464 50611 10230 20177 30068 40122 56003 85200 555 /83816 85828 00000;EQDQ01  00002PRCP99
0266467380999992000011612004+24930+121300FM-12+014199999V0202901N00051007501CN0140001N1+02181+01831101381ADDAA199000091GA1021+004509089GA2051+007509069GA3071+013509069GF107991071051004501001001KA1120M+02641MA1999999100841MD1210161+9999REMSYN108    AAXX  16124 46738 32464 72901 10218 20183 30084 40138 52016 87500 333 10264 555 82815 85625 87645 00000;EQDQ01  00002PRCP99
0243467380999992000011615004+24930+121300FM-12+014199999V0209999C00001021001CN0150001N1+02061+01801101451ADDAA199000091GA1011+006009089GA2031+010509069GA3051+021009039GF105991031051008001031001MA1999999100911MD1010071+9999REMSYN098    AAXX  16154 46738 32565 50000 10206 20180 30091 40145 50007 83530 555 81820 83635 85357 00000;EQDQ01  00002PRCP99
0221467380999992000011618004+24930+121300FM-12+014199999V0203401N003612200019N0150001N1+02021+01641101421ADDAA199000091GA1011+007509089GA2031+021009039GF103991011011008001031001MA1999999100881MD1810031+9999REMSYN092    AAXX  16184 46738 32565 33407 10202 20164 30088 40142 58003 81130 555 81825 83357 00000;EQDQ01  00002PRCP99
0189467380999992000011621004+24930+121300FM-12+014199999V0203401N004112200019N0150001N1+01971+01601101451ADDAA199000091GF103991011011008001031001MA1999999100911MD1310031+9999REMSYN092    AAXX  16214 46738 32565 33408 10197 20160 30091 40145 53003 81130 555 .81825 83TU 00000;EQDQ01  00002PRCP99
0223467380999992000011700004+24930+121300FM-12+014199999V0203301N001512200019N0200001N1+02021+01581101591ADDAA199000091GF101991011011008001031001KA1120N+01871MA1999999101051MD1210141+9999REMSYN113    AAXX  17004 46738 32570 13303 10202 20158 30105 40159 52014 81130 333 20187 555 IQWT 00000 24000 10264 20179;EQDQ01  00002PRCP99
0237467380999992000011703004+24930+121300FM-12+014199999V0200701N00261021001CN0200001N1+02331+99999101591ADDAA199000091GA1011+004809089GA2031+012009069GA3051+021009039GF105991011011004501031001MA1999999101051MD1410001+9999REMSYN092    AAXX  17034 46738 32470 50705 10233 30105 40159 54000 81130 555 81816 83640 85357 00000;EQDQ01  00002PRCP99
0244467380999992000011706004+24930+121300FM-12+014199999V0200601N00571021001CN0150001N1+02321+01771101451ADDAA199000091GA1011+004809089GA2031+009009069GA3051+021009039GF105991011011004501031001MA1999999100911MD1710141+9999REMSYN099    AAXX  17064 46738 32465 50611 10232 20177 30091 40145 57014 81130 555 /81816 83630 85357 00000;EQDQ01  00002PRCP99
0259467380999992000011718004+24930+121300FM-12+014199999V0200201N00411018001CN0150001N1+01761+01321101661ADDAA199000091GA1011+003609089GA2031+009009069GA3071+018009069GF107991071999004501001001MA1999999101121MD1410001+9999REMSYN098    AAXX  17184 46738 32465 70208 10176 20132 30112 40166 54000 87000 555 81812 83630 87656 00000;EQDQ01+000002SCOLCGQ02  00002PRCP99
0255467380999992000011800004+24930+121300FM-12+014199999V0200101N00211008401CN0300001N1+01801+01291999999ADDAA199000091GA1011+003609089GA2051+008409069GA3061+021009039GF106991051081004501031001MA1999999101251MD1210131+9999REMSYN110    AAXX  18004 46738 32480 60104 1018/ 20129 30125 52013 85830 555 81812 85628 86357 00000 24000 10242 20183;EQDQ01  00002PRCP99
0243467380999992000011803004+24930+121300FM-12+014199999V0200201N00411008401CN0300001N1+01881+01281101831ADDAA199000091GA1011+003609089GA2051+008409069GA3071+018009069GF107991071081004501999999MA1999999101291MD1110041+9999REMSYN098    AAXX  18034 46738 32480 70208 10188 20128 30129 40183 51004 878// 555 81812 85628 87656 00000;EQDQ01  00002PRCP99
0258467380999992000011806004+24930+121300FM-12+014199999V0200401N00151008401CN0300001N1+01951+01441101621ADDAA106000791AY161061AY221061GA1021+003009089GA2051+008409069GA3081+018009069GF108991081081004501999999MA1999999101081MD1710211+9999MW1021REMSYN110    AAXX  18064 46738 11480 80403 10195 20144 30108 40162 57021 69901 70262 888// 555 82810 85628 88656 00990;
0230467380999992000011809004+24930+121300FM-12+014199999V0200201N00411008401CN0300001N1+01771+01311101661ADDAA100000791GA1021+003009089GA2051+008409069GA3081+018009069GF108991081081004501999999MA1999999101121MD1310041+9999REMSYN104    AAXX  18094 46738 12480 80208 10177 20131 30112 40166 53004 6990/ 888// 555 82810 85628 88656 00990;
0253467380999992000011812004+24930+121300FM-12+014199999V0203501N00311008401CN0060001N1+01721+01231101761ADDAA112000791GA1021+003609089GA2051+008409069GA3081+018009069GF108991081081001501999999KA1120M+01951MA1999999101221MD1310101+9999REMSYN114    AAXX  18124 46738 31256 83506 10172 20123 30122 40176 53010 69902 888// 333 10195 555 82812 85628 88656 00990;
0243467380999992000011818004+24930+121300FM-12+014199999V0203601N00361008401CN0200001N1+01661+01121101831ADDAA199000091GA1021+003609089GA2051+008409069GA3081+018009069GF108991081081004501999999MA1999999101291MD1610031+9999REMSYN098    AAXX  18184 46738 32470 83607 10166 20112 30129 40183 56003 888// 555 82812 85628 88656 00000;EQDQ01  00002PRCP99
0243467380999992000011821004+24930+121300FM-12+014199999V0200101N00411008401CN0200001N1+01611+01091101791ADDAA199000091GA1021+003609089GA2051+008409069GA3081+018009069GF108991081081004501999999MA1999999101251MD1610041+9999REMSYN098    AAXX  18214 46738 32470 80108 10161 20109 30125 40179 56004 888// 555 82812 85628 88656 00000;EQDQ01  00002PRCP99
0284467380999992000011900004+24930+121300FM-12+014199999V0200201N00571008401CN0250001N1+01621+01121101961ADDAA199000091GA1021+003609089GA2051+008409069GA3071+018009069GF107991071081004501999999KA1120N+01521MA1999999101421MD1210171+9999REMSYN126    AAXX  19004 46738 32475 70211 10162 20112 30142 40196 52017 878// 333 20152 555 82812 85628 87656 00000 24990 10195 20166;EQDQ01  00002PRCP99
0243467380999992000011903004+24930+121300FM-12+014199999V0200201N00621008401CN0200001N1+01781+01131101991ADDAA199000091GA1021+004509089GA2051+008409069GA3071+018009069GF107991071081004501999999MA1999999101451MD1010031+9999REMSYN098    AAXX  19034 46738 32470 70212 10178 20113 30145 40199 50003 878// 555 82815 85628 87656 00000;EQDQ01  00002PRCP99
0243467380999992000011906004+24930+121300FM-12+014199999V0200201N00671008401CN0130001N1+01731+01061101861ADDAA199000091GA1031+004509089GA2051+008409069GA3081+015009069GF108991081051004501999999MA1999999101321MD1710131+9999REMSYN098    AAXX  19064 46738 32463 80213 10173 20106 30132 40186 57013 885// 555 83815 85628 88650 00000;EQDQ01  00002PRCP99
0243467380999992000011909004+24930+121300FM-12+014199999V0200101N00871007501CN0130001N1+01611+01021101991ADDAA199000091GA1031+004509089GA2051+007509069GA3081+013509069GF108991081051004501999999MA1999999101451MD1210131+9999REMSYN098    AAXX  19094 46738 32463 80117 10161 20102 30145 40199 52013 885// 555 83815 85625 88645 00000;EQDQ01  00002PRCP99
0268467380999992000011912004+24930+121300FM-12+014199999V0200201N009810075019N0120001N1+01541+01031102201ADDAA199000091GA1031+004509089GA2051+007509069GA3081+013509069GF108991081051004501999999KA1120M+01871MA1999999101661MD1210211+9999REMSYN110    AAXX  19124 46738 32462 80219 10154 20103 30166 40220 52021 885// 333 10187 5559/ 83815 85625 88645 00000;EQDQ01  00002PRCP99
0249467380999992000011915004+24930+121300FM-12+014199999V0203501N01181007501CN0120001N1+01491+00951102271ADDAA199000091GA1031+004509089GA2051+007509069GA3081+013509069GF108991081051004501999999MA1999999101731MD1310071+9999REMSYN104    AAXX  19154 46738 32462 83523 10149 20095 30173 40227 53007 885// 555 30126 83815 85625 88645 00000;EQDQ01  00002PRCP99
0244467380999992000011918004+24930+121300FM-12+0141RCUK V0200101N00871007501CN0120001N1+01451+00881102271ADDAA199000091GA1031+004509089GA2051+007509069GA3081+013509069GF108991081051004501999999MA1999999101731MD1010001+9999REMSYN099AAXX  19184 46738 31462 80117 10145 20088 30173 40227 50000 885// 555 PQWC 83815 85625 88645 00000;EQDQ01  00002PRCP99
0245467380999992000011921004+24930+121300FM-12+0141RCUK V0200101N00771008401CN0150001N1+01491+00801102301ADDAA199000091GA1021+004509089GA2051+008409069GA3081+013509069GF108991081051004501999999MA1999999101761MD1310031+9999REMSYN100AAXX  19214 46738 32465 80115 10149 20080 30176 40230 53003 885// 555 33523 82815 85628 88645 00000;EQDQ01  00002PRCP99
0286467380999992000012000004+24930+121300FM-12+0141RCUK V0200101N00621010501CN0150001N1+01541+00731102431ADDAA199000091GA1021+004509089GA2051+010509069GA3081+018009069GF108991081051004501999999KA1120N+01451MA1999999101891MD1210131+9999REMSYN128AAXX  20004 46738 32465 80112 10154 20073 30189 40243 52013 885// 333 20145 555 30124 82815 85635 88656 00000 24000 10187 20143;EQDQ01  00002PRCP99
0252467380999992000012012004+24930+121300FM-12+0141RCUK V0200301N00771018001CN0120001N1+01581+00981102641ADDAA199000091GA1031+010509069GA2071+018009069GF107991071051004501001001KA1120M+01831MA1999999102101MD1210241+9999REMSYN110AAXX  20124 46738 32462 70315 10158 20098 30210 40264 52024 87500 333 10183 555 30325 32815 83635 87656 00000;EQDQ01  00002PRCP99
0245467380999992000012015004+24930+121300FM-12+0141RCUK V0200201N00671021001CN0120001N1+01551+00981102711ADDAA199000091GA1011+007509089GA2031+010509069GA3051+021009039GF105991031051008001031001MA1999999102171MD1210071+9999REMSYN100AAXX  20154 46738 32562 50213 10155 20098 30217 40271 52007 83530 555 30226 81825 83635 85357 00000;EQDQ01  00002PRCP99
0245467380999992000012018004+24930+121300FM-12+0141RCUK V0203601N00981021001CN0120001N1+01601+00961102571ADDAA199000091GA1011+007509089GA2031+010509069GA3051+021009039GF105991031051008001031001MA1999999102031MD1810141+9999REMSYN100AAXX  20184 46738 32562 53619 10160 20096 30203 40257 58014 83530 555 33633 81825 83635 85357 00000;EQDQ01  00002PRCP99
0245467380999992000012021004+24930+121300FM-12+0141RCUK V0200201N00771018001CN0200001N1+01581+01021102641ADDAA199000091GA1011+007509089GA2031+010509069GA3081+018009069GF108991081051008001999999MA1999999102101MD1110071+9999REMSYN100AAXX  20214 46738 32570 80215 10158 20102 30210 40264 51007 885// 555 33633 81825 83635 88656 00000;EQDQ01  00002PRCP99
0286467380999992000012100004+24930+121300FM-12+0141RCUK V0200101N00671021001CN0400001N1+01671+00971102811ADDAA199000091GA1011+008409089GA2031+013509069GA3071+021009049GF107991031051008001021001KA1120N+01581MA1999999102271MD1210171+9999REMSYN128AAXX  21004 46738 32582 70113 10167 20097 30227 40281 52017 83520 333 20158 555 30126 81828 83645 87457 00000 24000 10183 20145;EQDQ01  00002PRCP99
0239467380999992000012106004+24930+121300FM-12+0141RCUK V0200301N00771012001CN0300001N1+02101+01421102601ADDAA199000091GA1031+008409089GA2031+012009069GA3071+018009069GF107991071051008001001001MA1999999102061MD1710241+9999REMSYN094AAXX  21064 46738 32580 70315 10210 20142 30206 40260 57024 87500 555 83828 83640 87656 00000;EQDQ01  00002PRCP99
0239467380999992000012109004+24930+121300FM-12+0141RCUK V0200201N00571012001CN0250001N1+01931+01501102601ADDAA199000091GA1031+008409089GA2031+012009069GA3071+018009069GF107991071051008001001001MA1999999102061MD1510001+9999REMSYN094AAXX  21094 46738 32575 70211 10193 20150 30206 40260 55000 87500 555 83828 83640 87656 00000;EQDQ01  00002PRCP99
0262467380999992000012112004+24930+121300FM-12+0141RCUK V0200201N00621009001CN0110001N1+01871+01421102671ADDAA199000091GA1021+006009089GA2031+009009069GA3071+015009069GF107991071051008001001001KA1120M+02131MA1999999102131MD1210071+9999REMSYN104AAXX  21124 46738 32561 70212 10187 20142 30213 40267 52007 87500 333 10213 555 82820 83630 87650 00000;EQDQ01  00002PRCP99
0219467380999992000012115004+24930+121300FM-12+0141RCUK V0203601N00461009001CN0110001N1+01791+01361102671ADDAA199000091GA1021+006009089GA2031+009009069GA3071+015009069GF107991071051008001001001MA1999999102101REMSYN088AAXX  21154 46738 32561 73609 10179 20136 3021/ 40267 87500 555 82820 83630 87650 00000;EQDQ01  00002PRCP99
0239467380999992000012121004+24930+121300FM-12+0141RCUK V0200301N00411009001CN0110001N1+01701+01321102501ADDAA199000091GA1021+006009089GA2031+009009069GA3071+015009069GF107991071051008001001001MA1999999101961MD1610071+9999REMSYN094AAXX  21214 46738 32561 70308 10170 20132 30196 40250 56007 87500 555 82820 83630 87650 00000;EQDQ01  00002PRCP99
0280467380999992000012200004+24930+121300FM-12+0141RCUK V0203401N00261008401CN0300001N1+01951+01411102501ADDAA199000091GA1021+004809089GA2051+008409069GA3071+015009069GF107991071051004501001001KA1120N+01681MA1999999101961MD1510001+9999REMSYN122AAXX  22004 46738 32480 73405 10195 20141 30196 40250 55000 87500 333 20168 555 82816 85628 87650 00000 24000 10213 20158;EQDQ01  00002PRCP99
0217467380999992000012203004+24930+121300FM-12+0141RCUK V0200201N00461024001CN0300001N1+02281+01511102431ADDAA199000091GA1011+007509089GA2061+024009039GF106991011011008001031001MA1999999101891MD1810071+9999REMSYN088AAXX  22034 46738 32580 60209 10228 20151 30189 40243 58007 81130 555 81825 86358 00000;EQDQ01  00002PRCP99
0239467380999992000012206004+24930+121300FM-12+0141RCUK V0200601N00671009001CN0150001N1+02381+01801102201ADDAA199000091GA1031+004509089GA2031+009009069GA3071+018009069GF107991071051004501001001MA1999999101661MD1710231+9999REMSYN094AAXX  22064 46738 32465 70613 10238 20180 30166 40220 57023 87500 555 83815 83630 87656 00000;EQDQ01  00002PRCP99
0277467380999992000012212004+24930+121300FM-12+0141RCUK V0203301N00261007501CN0150001N1+02031+01891102231ADDAA112000791AY151061AY221061GA1031+004509009GA2051+007509069GA3071+015009019GF107991071051004501001001KA1120M+02411MA1999999101691MD1110031+9999MW1201REMSYN116AAXX  22124 46738 11465 73305 10203 20189 30169 40223 51003 69902 72052 87500 333 10241 555 83015 85625 87150 00990;
0220467380999992000012215004+24930+121300FM-12+0141RCUK V0203401N00261008401CN0200001N1+02101+01721102271ADDAA199000021GA1021+004509089GA2051+008409069GA3071+015009069GF107991071051004501001001MA1999999101731MD1310041+9999REMSYN094AAXX  22154 46738 32470 73405 10210 20172 30173 40227 53004 87500 555 82815 85628 87650 00990;
0254467380999992000012218004+24930+121300FM-12+0141RCUK V0203301N00261008401CN0080001N1+01901+01831102201ADDAA106001091AY181061AY261061GA1031+004209089GA2051+008409069GA3071+015009069GF107991071051004501001001MA1999999101661MD1810071+9999MW1501REMSYN106AAXX  22184 46738 11458 73305 10190 20183 30166 40220 58007 60011 75086 87500 555 83814 85628 87650 00993;
0254467380999992000012221004+24930+121300FM-12+0141RCUK V0203501N00261007501CN0080001N1+01861+01801102131ADDAA100002091AY181031AY261031GA1031+003609089GA2051+007509069GA3071+015009069GF107991071051004501999999MA1999999101591MD1610071+9999MW1601REMSYN106AAXX  22214 46738 11458 73505 10186 20180 30159 40213 56007 6002/ 76086 875// 555 83812 85625 87650 00002;
0314467380999992000012300004+24930+121300FM-12+0141RCUK V0203101N00261007501CN0090001N1+01891+01831102201ADDAA112004191AY181061AY261061GA1031+004509089GA2051+007509089GA3071+013509069GF107991999071004501999999KA1120N+01831MA1999999101661MD1210071+9999MW1611REMSYN134AAXX  23004 46738 11459 73105 10189 20183 30166 40220 52007 60042 76186 887// 333 20183 555 83815 85825 87645 00004 24990 10241 20168;EQDQ01+000082SCOTLC
0254467380999992000012306004+24930+121300FM-12+0141RCUK V0200201N00211008401CN0250001N1+02191+01861101991ADDAA106002091AY161061AY221061GA1021+003609079GA2051+008409069GA3081+021009049GF108991051051004501021999MA1999999101451MD1710211+9999MW1211REMSYN106AAXX  23064 46738 11475 80204 10219 20186 30145 40199 57021 60021 72162 8552/ 555 82712 85628 88457 00006;
0226467380999992000012309004+24930+121300FM-12+0141RCUK V0200401N00211021001CN0250001N1+02271+01841101961ADDAA100002091GA1011+003609089GA2031+009009069GA3071+021009039GF107991031051004501031001MA1999999101421MD1510031+9999REMSYN100AAXX  23094 46738 11475 70404 10227 20184 30142 40196 55003 6002/ 83530 555 81812 83630 87357 00006;
0220467380999992000012315004+24930+121300FM-12+0141RCUK V0203601N00101018001CN0250001N1+02061+01781101991ADDAA199000021GA1011+004809089GA2031+010509069GA3061+018009069GF106991061081004501001001MA1999999101451MD1410001+9999REMSYN094AAXX  23154 46738 32475 63602 10206 20178 30145 40199 54500 86800 555 81816 83635 86656 00006;
0206467380999992000012318004+24930+121300FM-12+0141RCUK V0203301N00151018001CN0250001N1+01971+01751101961ADDAA199000021GA1011+004809089GA2031+010509069GA3061+018009069GF106991999081004501001001MA1999999101421REMSYN094AAXX  23184 46738 32475 63303 10197 20175 30142 40196 5/003 8/800 555 81816 83635 86656 00000;
0211467380999992000012321004+24930+121300FM-12+0141RCUK V0203601N00101021001CN0200001N1+01961+01671999999ADDAA199000091GA1011+004809089GA2061+021009039GF106991011011004501031001MA1999999101391MD1610031+9999REMSYN082AAXX  23214 46738 32470 63602 10196 20167 30139 56003 81130 555 81816 86357 00000;EQDQ01  00002PRCP99
0239467380999992000012403004+24930+121300FM-12+0141RCUK V0200901N00151021001CN0200001N1+02531+01861102031ADDAA199000091GA1011+003609089GA2031+007509069GA3061+021009039GF106991031081004501031001MA1999999101491MD1010001+9999REMSYN094AAXX  24034 46738 32470 60903 10253 20186 30149 40203 50000 83830 555 81812 83625 86357 00000;EQDQ01  00002PRCP99
0217467380999992000012406004+24930+121300FM-12+0141RCUK V0201001N00361024001CN0180001N1+02521+01901101861ADDAA199000091GA1021+003609089GA2061+024009039GF106991031081004501031001MA1999999101321MD1610171+9999REMSYN088AAXX  24064 46738 32468 61007 10252 20190 30132 40186 56017 83830 555 82812 86358 00000;EQDQ01  00002PRCP99
0240467380999992000012412004+24930+121300FM-12+0141RCUK V0203001N00151024001CN0150001N1+02101+01781101891ADDAA199000091GA1021+004509089GA2051+024009039GF105991021011004501031001KA1120M+02671MA1999999101351MD1310031+9999REMSYN098AAXX  24124 46738 32465 53003 10210 20178 30135 40189 53003 82130 333 10267 555 82815 85358 00000;EQDQ01  00002PRCP99
0217467380999992000012415004+24930+121300FM-12+0141RCUK V0203301N00151024001CN0120001N1+02121+01831101931ADDAA199000091GA1021+004509089GA2061+024009039GF106991021011004501031001MA1999999101391MD1310041+9999REMSYN088AAXX  24154 46738 32462 63303 10212 20183 30139 40193 53004 82130 555 82815 86358 00000;EQDQ01  00002PRCP99
0217467380999992000012418004+24930+121300FM-12+0141RCUK V0200301N00151024001CN0120001N1+02111+01831101931ADDAA199000091GA1021+004509089GA2061+024009039GF106991021011004501031001MA1999999101391MD1410001+9999REMSYN088AAXX  24184 46738 32462 60303 10211 20183 30139 40193 54000 82130 555 82815 86358 00000;EQDQ01  00002PRCP99
0254467380999992000012506004+24930+121300FM-12+0141RCUK V0200201N005110060019N0200001N1+01931+01301102201ADDAA106000891AY161061AY221061GA1031+002409089GA2051+006009069GA3081+015009069GF108991081081002501999999MA1999999101661MD1610101+9999MW1021REMSYN106AAXX  25064 46738 11370 80210 10193 20130 30166 40220 56010 69981 70262 888// 555 83808 85620 88650 00004;
0226467380999992000012509004+24930+121300FM-12+0141RCUK V0203601N00461006601CN0200001N1+01821+01241102231ADDAA100000891GA1021+002409089GA2031+006609069GA3081+012009069GF108991081081002501999999MA1999999101691MD1310031+9999REMSYN100AAXX  25094 46738 12370 83609 10182 20124 30169 40223 53003 6998/ 888// 555 82808 83622 88640 00004;
0249467380999992000012512004+24930+121300FM-12+0141RCUK V0200101N00871007801CN0200001N1+01681+01121102171ADDAA112000891GA1021+002409089GA2051+007809069GA3081+015009069GF108991081081002501999999KA1120M+02111MA1999999101831MD1110141+9999REMSYN110AAXX  25124 46738 12370 80117 10168 20112 30183 40217 51014 69982 888// 333 10211 555 82808 85626 88650 00004;
0247467380999992000012515004+24930+121300FM-12+0141RCUK V0200101N00511008401CN0200001N1+01641+01131999999ADDAA199000091GA1021+003009089GA2051+008409999GA3081+015009069GF108991081081004501999999MA1999999101891MD1110061+9999REMSYN102AAXX  25154 46738 32470 80110 10164 20113 30189 402/3 51006 888// 555 9 30224 82810 85/28 88650 00004;EQDQ01  00002PRCP99
0245467380999992000012518004+24930+121300FM-12+0141RCUK V0200101N00821008401CN0200001N1+01581+01031102171ADDAA199000091GA1021+003009089GA2051+008409069GA3081+015009069GF108991081081004501999999MA1999999101831MD1710061+9999REMSYN100AAXX  25184 46738 32470 80116 10158 20103 30183 40217 57006 888// 555 30127 82810 85628 88650 00000;EQDQ01  00002PRCP99
0286467380999992000012600004+24930+121300FM-12+0141RCUK V0200101N00571008401CN0200001N1+01551+00941102471ADDAA199000091GA1021+003009089GA2031+008409069GA3081+015009069GF108991081081004501999999KA1120N+01531MA1999999101931MD1210141+9999REMSYN128AAXX  26004 46738 32470 80111 10155 20094 30193 40247 52014 888// 333 20153 555 30123 82810 83628 88650 00000 24004 10211 20162;EQDQ01  00002PRCP99
0245467380999992000012603004+24930+121300FM-12+0141RCUK V0203601N005110090019N0200001N1+01771+00931102501ADDAA199000091GA1021+003609089GA2031+009009069GA3081+018009069GF108991081081004501999999MA1999999101961MD1310031+9999REMSYN100AAXX  26034 46738 32470 83610 10177 20093 30196 40250 53003 888// 555 30122 82812 83630 88656 00000;EQDQ01  00002PRCP99
0245467380999992000012609004+24930+121300FM-12+0141RCUK V0200301N003610090019N0200001N1+01601+00971102401ADDAA199000091GA1021+003609089GA2051+009009069GA3081+018009069GF108991081081004501999999MA1999999101861MD1310031+9999REMSYN100AAXX  26094 46738 32470 80307 10160 20097 30186 40240 53003 888// 555 30122 82812 85630 88656 00000;EQDQ01  00002PRCP99
0268467380999992000012612004+24930+121300FM-12+0141RCUK V0200201N00771008401CN0110001N1+01481+00861102541ADDAA199000091GA1031+003609089GA2051+008409069GA3081+018009069GF108991081061004501999999KA1120M+01821MA1999999102001MD1210141+9999REMSYN110AAXX  26124 46738 32461 80215 10148 20086 30200 40254 52014 886// 333 10182 555 30122 83812 85628 88656 00000;EQDQ01  00002PRCP99
0245467380999992000012615004+24930+121300FM-12+0141RCUK V0200101N00931008401CN0110001N1+01421+00831102571ADDAA199000091GA1031+004509089GA2051+008409069GA3081+018009069GF108991081061004501999999MA1999999102031MD1110031+9999REMSYN100AAXX  26154 46738 32461 80118 10142 20083 30203 40257 51003 886// 555 30128 83815 85628 88656 00000;EQDQ01  00002PRCP99
0239467380999992000012618004+24930+121300FM-12+0141RCUK V0200101N00771008401CN0110001N1+01381+00781102541ADDAA199000091GA1031+004509089GA2051+008409069GA3081+018009069GF108991081061004501999999MA1999999102001MD1610031+9999REMSYN094AAXX  26184 46738 32461 80115 10138 20078 30200 40254 56003 886// 555 83815 85628 88656 00000;EQDQ01  00002PRCP99
0245467380999992000012621004+24930+121300FM-12+0141RCUK V0200101N00621008401CN0110001N1+01331+00761102471ADDAA199000091GA1031+004509089GA2051+008409069GA3081+018009069GF108991081061004501999999MA1999999101931MD1610071+9999REMSYN100AAXX  26214 46738 32461 80112 10133 20076 30193 40247 56007 886// 555 30122 83815 85628 88656 00000;EQDQ01  00002PRCP99
0245467380999992000012703004+24930+121300FM-12+0141RCUK V0200101N00621008401CN0200001N1+01441+00751102601ADDAA199000091GA1031+003609089GA2051+008409069GA3081+018009069GF108991081081004501999999MA1999999102061MD1310031+9999REMSYN100AAXX  27034 46738 32470 80112 10144 20075 30206 40260 53003 888// 555 30122 83812 85628 88656 00000;EQDQ01  00002PRCP99
0245467380999992000012706004+24930+121300FM-12+0141RCUK V0200101N004610090019N0200001N1+01481+00731102471ADDAA199000091GA1021+003609089GA2031+009009069GA3081+018009069GF108991081081004501999999MA1999999101931MD1710131+9999REMSYN100AAXX  27064 46738 32470 80109 10148 20073 30193 40247 57013 888// 555 30122 82812 83630 88656 00000;EQDQ01  00002PRCP99
0230467380999992000012709004+24930+121300FM-12+0141RCUK V0200201N006210090019N0200001N1+01411+00751102471ADDAA199000091GA1021+003609089GA2031+009009069GF108991081081004501999999MA1999999101931MD1410001+9999REMSYN101AAXX  27094 46738 32470 80212 10141 20075 30193 40247 54000 888// 555 30122 82812 83630 88656. 00000;EQDQ01  00002PRCP99
0268467380999992000012712004+24930+121300FM-12+0141RCUK V0200101N004610090019N0200001N1+01411+00691102541ADDAA199000091GA1021+003609089GA2031+009009069GA3081+018009069GF108991081081004501999999KA1120M+01481MA1999999102001MD1310071+9999REMSYN110AAXX  27124 46738 32470 80109 10141 20069 30200 40254 53007 888// 333 10148 555 30122 82812 83630 88656 00000;EQDQ01  00002PRCP99
0245467380999992000012715004+24930+121300FM-12+0141RCUK V0200101N004610090019N0200001N1+01371+00851102571ADDAA199000091GA1021+003609089GA2031+009009069GA3081+018009069GF108991081081004501999999MA1999999102031MD1310031+9999REMSYN100AAXX  27154 46738 32470 80109 10137 20085 30203 40257 53003 888// 555 30122 82812 83630 88656 00000;EQDQ01  00002PRCP99
0245467380999992000012718004+24930+121300FM-12+0141RCUK V0200101N005710090019N0200001N1+01401+00811102571ADDAA199000091GA1021+003609089GA2031+009009069GA3081+018009069GF108991081081004501999999MA1999999102031MD1410001+9999REMSYN100AAXX  27184 46738 32470 80111 10140 20081 30203 40257 54000 888// 555 30122 82812 83630 88656 00000;EQDQ01  00002PRCP99
0302467380999992000012800004+24930+121300FM-12+0141RCUK V0200201N00871018001CN0200001N1+01461+01071102741ADDAA199000091GA1011+003609089GA2031+009009069GA3061+018009069GF106991999051004501001001KA1120N+01371MA1999999102201MD1210171+9999REMSYN128AAXX  28004 46738 32470 60217 10146 20107 30220 40274 52017 87500 333 20137 555 30122 81812 83630 86656 00000 24000 10148 20132;EQDQ01+000072SCOTLCQ02  00002PRCP99
0217467380999992000012803004+24930+121300FM-12+0141RCUK V0200401N007712200019N0200001N1+01921+01141102711ADDAA199000091GA1011+006009089GA2031+015009069GF104991031051008001001001MA1999999102171MD1810031+9999REMSYN088AAXX  28034 46738 32570 40415 10192 20114 30217 40271 58003 83500 555 81820 83650 00000;EQDQ01  00002PRCP99
0245467380999992000012806004+24930+121300FM-12+0141RCUK V0200401N00931018001CN0200001N1+01761+01161102471ADDAA199000091GA1011+006009089GA2031+013509069GA3071+018009069GF107991071051008001001001MA1999999101931MD1710241+9999REMSYN100AAXX  28064 46738 32570 70418 10176 20116 30193 40247 57024 87500 555 30524 81820 83645 87656 00000;EQDQ01  00002PRCP99
0245467380999992000012809004+24930+121300FM-12+0141RCUK V0200201N00461018001CN0400001N1+01751+01101102431ADDAA199000091GA1011+006009089GA2031+010509069GA3071+018009069GF107991071051008001001001MA1999999101891MD1810041+9999REMSYN100AAXX  28094 46738 32582 70209 10175 20110 30189 40243 58004 87500 555 30524 81820 83635 87656 00000;EQDQ01  00002PRCP99
0239467380999992000012815004+24930+121300FM-12+0141RCUK V0203401N00361018001CN0300001N1+01581+01111102641ADDAA199000091GA1011+004509089GA2031+008409069GA3071+018009069GF107991071051004501001001MA1999999102101MD1310071+9999REMSYN094AAXX  28154 46738 32480 73407 10158 20111 30210 40264 53007 87500 555 81815 83628 87656 00000;EQDQ01  00002PRCP99
0239467380999992000012821004+24930+121300FM-12+0141RCUK V0203501N00361021001CN0300001N1+01471+01151102501ADDAA199000091GA1011+004509089GA2031+008409069GA3051+021009039GF105991031051004501031001MA1999999101961MD1510041+9999REMSYN094AAXX  28214 46738 32480 53507 10147 20115 30196 40250 55004 83530 555 81815 83628 85357 00000;EQDQ01  00002PRCP99
0258467380999992000012900004+24930+121300FM-12+0141RCUK V0203501N003612200019N0300001N1+01611+00851102601ADDAA199000091GA1011+006009089GA2031+030009039GF103991011011008001031001KA1120N+01471MA1999999102061MD1310101+9999REMSYN116AAXX  29004 46738 32580 33507 10161 20085 30206 40260 53010 81130 333 20147 555 81820 83360 00000 24000 10197 20137;EQDQ01  00002PRCP99
0217467380999992000012903004+24930+121300FM-12+0141RCUK V0200601N002112200019N0300001N1+02181+00931102571ADDAA199000091GA1011+006009089GA2031+030009039GF103991011011008001031001MA1999999102031MD1810031+9999REMSYN088AAXX  29034 46738 32580 30604 10218 20093 30203 40257 58003 81130 555 81820 83360 00000;EQDQ01  00002PRCP99
0217467380999992000012906004+24930+121300FM-12+0141RCUK V0200701N00411024001CN0300001N1+02121+01141102431ADDAA199000091GA1011+006009089GA2051+024009039GF105991011011008001031001MA1999999101891MD1710141+9999REMSYN088AAXX  29064 46738 32580 50708 10212 20114 30189 40243 57014 81130 555 81820 85358 00000;EQDQ01  00002PRCP99
0225467380999992000012909004+24930+121300FM-12+0141RCUK V0200401N00211024001CN0300001N1+02041+01011102431ADDAA199000091GA1011+005409089GA2031+009009069GA3061+024009039GF106991031081004501031001MA1999999101891REMSYN094AAXX  29094 46738 32480 60404 10204 20101 30189 40243 5/000 83830 555 81818 83630 86358 00000;EQDQ01  00002PRCP99
0167467380999992000012912004+24930+121300FM-12+0141RCUK V0203401N001510360019N0300001N1+01851+01081102571ADDAA199000091GF106991031081004501031001MA1999999102031MD1210141+9999REMSYN070AAXX  29124 46738 32480 63403 10185 20108 30203 40257 52014 83830 333;EQDQ01  00002PRCP99
0218467380999992000012915004+24930+121300FM-12+0141RCUK V0209999C00001024001CN0300001N1+01511+01051102601ADDAA199000091GA1011+005409089GA2031+009009069GA3061+024009039GF106991031081004501031001MD1310031+9999REMSYN088AAXX  29154 46738 32480 60000 10151 20105 40260 53003 83830 555 81818 83630 86358 00000;EQDQ01  00002PRCP99
0239467380999992000012918004+24930+121300FM-12+0141RCUK V0203301N00261024001CN0300001N1+01541+01001102601ADDAA199000091GA1011+005409089GA2031+009009069GA3061+024009039GF106991031081004501031001MA1999999102061MD1410001+9999REMSYN094AAXX  29184 46738 32480 63305 10154 20100 30206 40260 54000 83830 555 81818 83630 86358 00000;EQDQ01  00002PRCP99
0236467380999992000013000004+24930+121300FM-12+0141RCUK V0200301N006712200019N0500001N1+01651+01321102571ADDAA199000091GA1011+008409089GF101991011011008001001001KA1120N+01541MA1999999102031MD1010071+9999REMSYN110AAXX  30004 46738 32584 10313 10165 20132 30203 40257 50007 81100 333 20154 555 81828 00000 24000 10235 20147;EQDQ01  00002PRCP99
0255467380999992000013006004+24930+121300FM-12+0141RCUK V0200301N00771013501CN0200001N1+02101+01821102431ADDAA199000091GA1021+006009089GA2031+013509069GA3051+018009069GF105991999051008001001001MA1999999101891MD1710211+9999REMSYN094AAXX  30064 46738 32570 50315 10210 20182 30189 40243 57021 86500 555 82820 83645 85656 00000;EQDQ01+000062SCOTLCQ02  00002PRCP99
0245467380999992000013009004+24930+121300FM-12+0141RCUK V0200201N00721009001CN0200001N1+01871+01671102541ADDAA199000091GA1031+006009089GA2031+009009069GA3071+018009069GF107991071051008001001001MA1999999102001MD1210111+9999REMSYN100AAXX  30094 46738 32570 70214 10187 20167 30200 40254 52011 87500 555 30223 83820 83630 87656 00000;EQDQ01  00002PRCP99
0268467380999992000013012004+24930+121300FM-12+0141RCUK V0200201N01181010501CN0200001N1+01731+99999102741ADDAA199000091GA1031+006009089GA2051+010509069GA3071+018009069GF107991071051008001001001KA1120M+02291MA1999999102201MD1210201+9999REMSYN110AAXX  30124 46738 32570 70223 10173 20512 30220 40274 52020 87500 333 10229 555 30233 83820 85635 87656 00000;EQDQ01  00002PRCP99
0245467380999992000013015004+24930+121300FM-12+0141RCUK V0203501N01181012001CN0200001N1+01701+01281102771ADDAA199000091GA1021+006009089GA2051+012009069GA3071+018009069GF107991071051008001001001MA1999999102231MD1110031+9999REMSYN100AAXX  30154 46738 32570 73523 10170 20128 30223 40277 51003 87500 555 30238 82820 85640 87656 00000;EQDQ01  00002PRCP99
0245467380999992000013018004+24930+121300FM-12+0141RCUK V0203501N00981012001CN0200001N1+01601+01201102671ADDAA199000091GA1021+006009089GA2051+012009069GA3071+018009069GF107991071051008001001001MA1999999102131MD1210101+9999REMSYN100AAXX  30184 46738 32570 73519 1016/ 20120 30213 40267 52010 87500 555 30238 82820 85640 87656 00000;EQDQ01  00002PRCP99
0245467380999992000013021004+24930+121300FM-12+0141RCUK V0203601N00981021001CN0200001N1+01601+01201102641ADDAA199000091GA1011+007509089GA2031+013509069GA3051+021009039GF105991031051008001031001MA1999999102101MD1810031+9999REMSYN100AAXX  30214 46738 32570 53619 10160 20120 30210 40264 58003 83530 555 33631 81825 83645 85357 00000;EQDQ01  00002PRCP99
0288467380999992000013100004+24930+121300FM-12+0141RCUK V0200101N00871007501CN0200001N1+01631+01181102711ADDAA199000091GA1021+004509089GA2031+007509089GA3061+018009069GF106991061081004501001001KA1120N+01571MA1999999102171MD1310071+9999REMSYN130AAXX  31004 46738 32470 60117 10163 20118 30217 40271 53007 86800 333 20157 555 33631 82815 83825 86656 00000 24000 10229 209154 ;EQDQ01  00002PRCP99
0245467380999992000013103004+24930+121300FM-12+0141RCUK V0200201N00821009001CN0200001N1+01981+01201102711ADDAA199000091GA1021+004509089GA2031+009009089GA3061+024009039GF106991031021004501031001MA1999999102171MD1410001+9999REMSYN100AAXX  31034 46738 32470 60216 10198 20120 30217 40271 54000 83230 555 33629 82815 83830 86358 00000;EQDQ01  00002PRCP99
0245467380999992000013106004+24930+121300FM-12+0141RCUK V0200201N00621009001CN0200001N1+01951+01261102541ADDAA199000091GA1021+004509089GA2031+009009089GA3061+024009039GF106991031021004501031001MA1999999102001MD1710171+9999REMSYN100AAXX  31064 46738 32470 60212 10195 20126 30200 40254 57017 83230 555 33629 82815 83830 86358 00000;EQDQ01  00002PRCP99
0245467380999992000013109004+24930+121300FM-12+0141RCUK V0200101N00621009001CN0200001N1+01801+01221102501ADDAA199000091GA1021+004509089GA2031+009009089GA3071+024009039GF107991031021004501031001MA1999999101961MD1810041+9999REMSYN100AAXX  31094 46738 32470 70112 10180 20122 30196 40250 58004 83230 555 33629 82815 83830 87358 00000;EQDQ01  00002PRCP99
0251467380999992000013115004+24930+121300FM-12+0141RCUK V0200401N00461008401CN0200001N1+01601+01321102601ADDAA199000091GA1021+003909089GA2031+008409089GA3071+024009039GF107991031021004501031001MA1999999102061MD1410001+9999REMSYN106AAXX  31154 46738 32470 70409 10160 20132 30206 40260 54000 83230 555 30228 30228 82813 83828 87358 00000;EQDQ01  00002PRCP99
0231467380999992000013121004+24930+121300FM-12+0141RCUK V0200201N00621008401CN0200001N1+01621+01331102601ADDAA199000091GA1021+003909089GA2031+008409089GA3071+024009039GF107991031021004501031001MA1999999102061REMSYN100AAXX  31214 46738 32470 70212 10162 20133 30206 40260 5/000 83230 555 30228 82813 83828 87358 00000;EQDQ01  00002PRCP99
0280467380999992000020100004+24930+121300FM-12+0141RCUK V0200301N00361010501CN0300001N1+01691+01171102501ADDAA199000091GA1021+004509089GA2031+010509069GA3081+021009049GF108991031081004501021999KA1120N+01601MA1999999101961MD1510101+9999REMSYN122AAXX  01004 46738 32480 80307 10169 20117 30196 40250 55010 8382/ 333 20160 555 82815 83635 88457 00000 24000 10201 20157;EQDQ01  00002PRCP99
0239467380999992000020103004+24930+121300FM-12+0141RCUK V0200201N00621012001CN0300001N1+01901+01181102471ADDAA199000091GA1021+005409089GA2031+012009069GA3071+024009039GF107991031081004501031001MA1999999101931MD1810031+9999REMSYN094AAXX  01034 46738 32480 70212 10190 20118 30193 40247 58003 83830 555 82818 83640 87358 00000;EQDQ01  00002PRCP99
0239467380999992000020106004+24930+121300FM-12+0141RCUK V0200601N00771018001CN0250001N1+02161+01611102271ADDAA199000091GA1021+005409089GA2051+018009069GA3071+030009039GF107991051081004501031001MA1999999101731MD1710201+9999REMSYN094AAXX  01064 46738 32475 70615 10216 20161 30173 40227 57020 85830 555 82818 85656 87360 00000;EQDQ01  00002PRCP99
0239467380999992000020109004+24930+121300FM-12+0141RCUK V0200201N00621021001CN0250001N1+02031+01331102271ADDAA199000091GA1021+005409089GA2041+013509069GA3071+021009039GF107991041081004501031001MA1999999101731MD1510001+9999REMSYN094AAXX  01094 46738 32475 70212 10203 20133 30173 40227 55000 84830 555 82818 84645 87357 00000;EQDQ01  00002PRCP99
0262467380999992000020112004+24930+121300FM-12+0141RCUK V0200101N00821009001CN0250001N1+01841+01281102331ADDAA199000091GA1021+005409089GA2031+009009069GA3071+021009039GF107991031081004501031001KA1120M+02321MA1999999101791MD1110061+9999REMSYN104AAXX  01124 46738 32475 70116 10184 20128 30179 40233 51006 83830 333 10232 555 82818 83630 87357 00000;EQDQ01  00002PRCP99
0215467380999992000020115004+24930+121300FM-12+0141RCUK V0200101N007210090019N0250001N1+01761+01281102371ADDGA1021+005409089GA2051+009009069GA3071+021009039GF107991071081004501999999MA1999999101831MD1110041+9999REMSYN100AAXX  01154 46738 12475 70114 10176 20128 30183 40237 51004 878// 555 30124 82818 85630 87357 00000;
0239467380999992000020118004+24930+121300FM-12+0141RCUK V0200201N004610090019N0250001N1+01731+01281102301ADDAA199000091GA1021+005409089GA2051+009009069GA3071+021009039GF107991071081004501999999MA1999999101761MD1710071+9999REMSYN094AAXX  01184 46738 32475 70209 10173 20128 30176 40230 57007 878// 555 82818 85630 87357 00000;EQDQ01  00002PRCP99
0280467380999992000020200004+24930+121300FM-12+0141RCUK V0200301N003110090019N0250001N1+01791+01431102371ADDAA199000091GA1021+005409089GA2051+009009069GA3071+021009039GF107991051081004501031001KA1120N+01691MA1999999101831MD1310101+9999REMSYN122AAXX  02004 46738 32475 70306 10179 20143 30183 40237 53010 85830 333 20169 555 82818 85630 87357 00000 24000 10232 20160;EQDQ01  00002PRCP99
0239467380999992000020203004+24930+121300FM-12+0141RCUK V0200601N001510090019N0250001N1+02161+01651102401ADDAA199000091GA1021+005409089GA2051+009009069GA3071+021009039GF107991051081004501031001MA1999999101861MD1310031+9999REMSYN094AAXX  02034 46738 32475 70603 10216 20165 30186 40240 53003 85830 555 82818 85630 87357 00000;EQDQ01  00002PRCP99
0233467380999992000020206004+24930+121300FM-12+0141RCUK V0200801N004610090019N0150001N1+02211+01891999999ADDAA199000091GA1021+003909089GA2051+009009069GA3071+021009039GF107991051081004501031001MA1999999101611MD1710201+9999REMSYN088AAXX  02064 46738 32465 70809 10221 20189 30161 57020 85830 555 82813 85630 87357 00000;EQDQ01  00002PRCP99
0226467380999992000020209004+24930+121300FM-12+0141RCUK V0200701N00261008401CN0200001N1+02131+01881102201ADDAA100000791GA1021+003609089GA2051+008409069GA3071+018009069GF107991071081004501001001MA1999999101661MD1410001+9999REMSYN100AAXX  02094 46738 11470 70705 10213 20188 30166 40220 54000 6990/ 87800 555 82812 85628 87656 00990;
0249467380999992000020212004+24930+121300FM-12+0141RCUK V0203401N00101008401CN0200001N1+02001+01661102231ADDAA112000791GA1021+003609089GA2051+008409069GA3061+018009069GF106991061081004501001001KA1120M+02341MA1999999101691MD1110031+9999REMSYN110AAXX  02124 46738 12470 63402 10200 20166 30169 40223 51003 69902 86800 333 10234 555 82812 85628 86656 00990;
0239467380999992000020215004+24930+121300FM-12+0141RCUK V0203301N00261007501CN0200001N1+02011+01661102201ADDAA199000091GA1021+003609089GA2051+007509069GA3071+018009069GF107991071081004501999999MA1999999101661MD1810031+9999REMSYN094AAXX  02154 46738 32470 73305 10201 20166 30166 40220 58003 878// 555 82812 85625 87656 00990;EQDQ01  00002PRCP99
0239467380999992000020218004+24930+121300FM-12+0141RCUK V0200201N00151007501CN0200001N1+01941+01661102131ADDAA199000091GA1021+003609089GA2051+007509069GA3071+018009069GF107991071081004501999999MA1999999101591MD1610071+9999REMSYN094AAXX  02184 46738 32470 70203 10194 20166 30159 40213 56007 878// 555 82812 85625 87656 00000;EQDQ01  00002PRCP99
0280467380999992000020300004+24930+121300FM-12+0141RCUK V0203201N00211008401CN0180001N1+01901+01501102101ADDAA199000091GA1021+003609089GA2051+008409069GA3071+999999069GF107991071081004501001001KA1120N+01701MA1999999101561MD1110071+9999REMSYN122AAXX  03004 46738 32468 73204 10190 20150 30156 40210 51007 87800 333 20170 555 82812 85628 87655 00000 24990 10234 20169;EQDQ01  00002PRCP99
0239467380999992000020303004+24930+121300FM-12+0141RCUK V0200201N00151021001CN0180001N1+02351+01521102101ADDAA199000091GA1021+003609089GA2041+010509069GA3061+021009039GF106991041081004501031001MA1999999101561MD1510001+9999REMSYN094AAXX  03034 46738 32468 60203 10235 20152 30156 40210 55000 84830 555 82812 84635 86357 00000;EQDQ01  00002PRCP99
0217467380999992000020306004+24930+121300FM-12+0141RCUK V0200801N00411021001CN0250001N1+02611+01751101861ADDAA199000091GA1011+004509089GA2051+021009039GF105991011011004501031001MA1999999101321MD1610241+9999REMSYN088AAXX  03064 46738 32475 50808 10261 20175 30132 40186 56024 81130 555 81815 85357 00000;EQDQ01  00002PRCP99
0239467380999992000020309004+24930+121300FM-12+0141RCUK V0200501N00361009601CN0150001N1+02341+01681101831ADDAA199000091GA1021+003609089GA2051+009609069GA3071+018009069GF107991071081004501001001MA1999999101291MD1510031+9999REMSYN094AAXX  03094 46738 32465 70507 10234 20168 30129 40183 55003 87800 555 82812 85632 87656 00000;EQDQ01  00002PRCP99
0224467380999992000020312004+24930+121300FM-12+0141RCUK V0200301N00151008401CN0120001N1+02221+01721101931ADDAA199000091GA1021+003609089GA2051+008409069GA3071+015009069GF107991071081004501001001MD1310101+9999REMSYN094AAXX  03124 46738 32462 70303 10222 20172 301/9 40193 53010 87800 555 82812 85628 87650 00000;EQDQ01  00002PRCP99
0217467380999992000020315004+24930+121300FM-12+0141RCUK V0200501N00311018001CN0120001N1+02061+01741101961ADDAA199000091GA1011+003609089GA2051+018009069GF105991051081004501001001MA1999999101421MD1110031+9999REMSYN088AAXX  03154 46738 32462 50506 10206 20174 30142 40196 51003 85800 555 81812 85656 00000;EQDQ01  00002PRCP99
0217467380999992000020318004+24930+121300FM-12+0141RCUK V0200101N00361018001CN0120001N1+01991+01641101931ADDAA199000091GA1011+003609089GA2051+018009069GF105991051081004501001001MA1999999101391MD1610031+9999REMSYN088AAXX  03184 46738 32462 50107 10199 20164 30139 40193 56003 85800 555 81812 85656 00000;EQDQ01  00002PRCP99
0224467380999992000020321004+24930+121300FM-12+0141RCUK V0200101N00721018001CN0120001N1+02021+01581101891ADDGA1011+003609089GA2031+010509069GA3061+018009069MA1999999101351MD1710041+9999REMSYN100AAXX  03214 46738 /2462 /0114 10202 20158 30135 40189 5800/ 86800 555 30125 81812 83635 86656 00000;EQDQ01+000082APCTENQ02+000002APC3  
0258467380999992000020400004+24930+121300FM-12+0141RCUK V0200301N006212200019N0250001N1+02071+01721101961ADDAA199000091GA1021+003609089GA2031+030009039GF103991021011004501031001KA1120N+01911MA1999999101421MD1310071+9999REMSYN116AAXX  04004 46738 32475 30312 10207 20172 30142 40196 53007 82130 333 20191 555 82812 83360 00000 24000 10262 20170;EQDQ01  00002PRCP99
0217467380999992000020403004+24930+121300FM-12+0141RCUK V0200201N00821024001CN0250001N1+02391+01651101961ADDAA199000091GA1021+003609089GA2071+024009039GF107991021081004501031001MA1999999101421MD1010001+9999REMSYN088AAXX  04034 46738 32475 70216 10239 20165 30142 40196 50000 82830 555 82812 87358 00000;EQDQ01  00002PRCP99
0245467380999992000020409004+24930+121300FM-12+0141RCUK V0200501N00411010501CN0180001N1+02271+01811101721ADDAA199000091GA1021+004509089GA2051+010509069GA3071+021009039GF107991051081004501031001MA1999999101181MD1510001+9999REMSYN100AAXX  04094 46738 32468 70508 10227 20181 30118 40172 55000 85830 555 30725 82815 85635 87357 00000;EQDQ01  00002PRCP99
0262467380999992000020412004+24930+121300FM-12+0141RCUK V0200101N00621008401CN0180001N1+02141+01681101761ADDAA199000091GA1021+004509089GA2051+008409069GA3061+018009069GF106991061081004501001001KA1120M+02561MA1999999101221MD1110041+9999REMSYN104AAXX  04124 46738 32468 60112 10214 20168 30122 40176 51004 86800 333 10256 555 82815 85628 86656 00000;EQDQ01  00002PRCP99
0239467380999992000020415004+24930+121300FM-12+0141RCUK V0200201N00511006601CN0180001N1+02071+01701101791ADDAA199000091GA1021+003609089GA2051+006609069GA3071+018009069GF107991071081004501999999MA1999999101251MD1010031+9999REMSYN094AAXX  04154 46738 32468 70210 10207 2017/ 30125 40179 50003 878// 555 82812 85622 87656 00000;EQDQ01  00002PRCP99
0295467380999992000020500004+24930+121300FM-12+0141RCUK V0203501N00211006601CN0100001N1+02001+01631101761ADDAA112000791AY161061AY221061GA1031+002409079GA2051+006609069GA3071+013509069GF107991071051002501999999KA1120N+01901MA1999999101221MD1110071+9999MW1161REMSYN134AAXX  05004 46738 11360 73504 10200 20163 30122 40176 51007 69902 71662 875// 333 20190 555 83708 85622 87645 00990 24000 10256 20191;
0254467380999992000020503004+24930+121300FM-12+0141RCUK V0200101N00211007501CN0300001N1+02261+01761101721ADDAA100000791AY161031AY221031GA1021+003609089GA2051+007509069GA3081+015009069GF108991081999004501999999MA1999999101181MD1810041+9999MW1501REMSYN106AAXX  05034 46738 11480 80104 10226 20176 30118 40172 58004 6990/ 75062 88/// 555 82812 85625 88650 00990;
0254467380999992000020506004+24930+121300FM-12+0141RCUK V0200701N00361008401CN0045001N1+02261+01921101521ADDAA106000591AY161061AY251061GA1031+002409079GA2051+008409069GA3081+021009049GF108991051051002501021999MA1999999100981MD1710201+9999MW1601REMSYN106AAXX  05064 46738 11345 80707 10226 20192 30098 40152 57020 69951 76065 8552/ 555 83708 85628 88457 00995;
0254467380999992000020509004+24930+121300FM-12+0141RCUK V0200301N00211008401CN0080001N1+02101+02011101491ADDAA100008991AY151031AY251031GA1031+001809089GA2031+008409069GA3081+015009069GF108991081051002501999999MA1999999100951MD1610031+9999MW1601REMSYN106AAXX  05094 46738 11358 80304 10210 20201 30095 40149 56003 6009/ 76055 885// 555 83806 83628 88650 00003;
0277467380999992000020512004+24930+121300FM-12+0141RCUK V0203201N00101005401CN0060001N1+02001+01941101591ADDAA112007991AY181061AY261061GA1031+001509089GA2051+005409069GA3081+013509069GF108991081071001501999999KA1120M+02381MA1999999101051MD1310101+9999MW1611REMSYN116AAXX  05124 46738 11256 83202 10200 20194 30105 40159 53010 60082 76186 887// 333 10238 555 83805 85618 88645 00008;
0254467380999992000020518004+24930+121300FM-12+0141RCUK V0200401N00101006001CN0080001N1+01901+01861101521ADDAA106009991AY161061AY261061GA1031+001809089GA2051+006009069GA3081+013509069GF108991081071002501999999MA1999999100981MD1810071+9999MW1611REMSYN106AAXX  05184 46738 11358 80402 10190 20186 30098 40152 58007 60101 76166 887// 555 83806 85620 88645 00004;
0280467380999992000020600004+24930+121300FM-12+0141RCUK V0200201N00261006001CN0060001N1+02011+01951101521ADDAA112010991AY161061AY261061GA1031+001809089GA2051+006009069GF108991081071002501999999KA1120N+01901MA1999999100981MD1310071+9999MW1611REMSYN135AAXX  06004 46738 11356 80205 10201 20195 30098 40152 53007 60112 76166 887// 333 20190 555 83806 85620 88650. 00005 24015 .102I 20190;
0273467380999992000020606004+24930+121300FM-12+0141RCUK V0200601N00461007501CN0120001N1+02221+01751101321ADDAA106000791AY161061AY261061GA1031+003009089GA2051+007509069GA3071+015009069GF107991999071004501999999MA1999999100781MD1710201+9999MW1611REMSYN106AAXX  06064 46738 11462 70609 10222 20175 30078 40132 57020 69901 76166 887// 555 83810 85625 87650 00005;EQDQ01+000082SCOTLC
0226467380999992000020609004+24930+121300FM-12+0141RCUK V0200501N00361007501CN0120001N1+02101+01621101321ADDAA100000791GA1031+003009089GA2051+007509069GA3071+015009069GF107991071081004501001001MA1999999100781MD1410001+9999REMSYN100AAXX  06094 46738 11462 70507 10210 20162 30078 40132 54000 6990/ 87800 555 83810 85625 87650 00005;
0220467380999992000020615004+24930+121300FM-12+0141RCUK V0200201N00411007501CN0120001N1+01901+01561101451ADDAA199000021GA1031+003009089GA2051+007509069GA3071+015009069GF107991071081004501001001MA1999999100911MD1410001+9999REMSYN094AAXX  06154 46738 32462 70208 10190 20156 30091 40145 54000 87800 555 83810 85625 87650 00005;
0209467380999992000020706004+24930+121300FM-12+0141RCUK V0200701N00571012001CN0180001N1+02121+99999999999ADDAA199000091GA1021+003609089GA2041+012009069GA3071+021009049GF107991999999004501999999REMSYN093AAXX  07064 46738 32468 70711 10212 2015 30071 40125 57017 83830 555 82812 84640 87457 00000;EQDQ01  00002PRCP99
0267467380999992000020709004+24930+121300FM-12+0141RCUK V0200201N00461012001CN0090001N1+02001+01461101281ADDAA199000091AY121031AY221031GA1021+003609089GA2051+012009069GA3081+021009049GF108991051081004501021999MA1999999100741MD1510031+9999MW1051REMSYN100AAXX  07094 46738 31459 80209 10200 20146 30074 40128 55003 70522 8582/ 555 82812 85640 88457 00000;EQDQ01  00002PRCP99
0262467380999992000020712004+24930+121300FM-12+0141RCUK V0200201N00511007501CN0120001N1+01921+01481101351ADDAA199000091GA1021+003609089GA2051+007509069GA3081+018009069GF108991081081004501999999KA1120M+02281MA1999999100811MD1110071+9999REMSYN104AAXX  07124 46738 32462 80210 10192 20148 30081 40135 51007 888// 333 10228 555 82812 85625 88656 00000;EQDQ01  00002PRCP99
0209467380999992000020718004+24930+121300FM-12+0141RCUK V0200101N00461006601CN0110001N1+01671+01361101421ADDGA1021+003009089GA2051+006609069GA3081+015009069GF108991081081999999999999MA1999999100881MD1410001+9999REMSYN094AAXX  07184 46738 /2/61 80109 10167 20136 30088 40142 54000 888// 555 82810 85622 88650 00000;
0239467380999992000020721004+24930+121300FM-12+0141RCUK V0200101N00671007501CN0120001N1+01601+01151101451ADDAA199000091GA1021+003009089GA2051+007509069GA3081+015009069GF108991081081004501999999MA1999999100911MD1110031+9999REMSYN094AAXX  07214 46738 32462 80113 10160 20115 30091 40145 51003 888// 555 82810 85625 88650 00000;EQDQ01  00002PRCP99
0267467380999992000020806004+24930+121300FM-12+0141RCUK V0200201N00511008401CN0090001N1+01631+01151101781ADDAA199000091AY121061AY221061GA1021+003609089GA2051+008409069GA3081+018009069GF108991081081004501999999MA1999999101181MD1710171+9999MW1051REMSYN100AAXX  08064 46738 31459 80210 10163 20115 30118 40178 57017 70522 888// 555 82812 85628 88656 00000;EQDQ01  00002PRCP99
0239467380999992000020918004+24930+121300FM-12+0141RCUK V0203601N00261009601CN0120001N1+01531+01131101861ADDAA199000091GA1021+003609089GA2051+009609069GA3081+018009069GF108991081081999999999999MA1999999101321MD1410001+9999REMSYN094AAXX  09184 46738 32/62 83605 10153 20113 30132 40186 54000 888// 555 82812 85632 88656 00000;EQDQ01  00002PRCP99
0280467380999992000021000004+24930+121300FM-12+0141RCUK V0209999C00001009601CN0200001N1+01591+01231101791ADDAA199000091GA1021+003609089GA2051+009609069GA3071+018009069GF107991071081004501001001KA1120N+01321MA1999999101251MD1610071+9999REMSYN122AAXX  10004 46738 32470 70000 10159 20123 30125 40179 56007 87800 333 20132 555 82812 85632 87656 00000 24000 10176 20120;EQDQ01  00002PRCP99
0239467380999992000021009004+24930+121300FM-12+0141RCUK V0200401N00151009601CN0200001N1+02121+01481101451ADDAA199000091GA1021+003609089GA2051+009609069GA3071+018009069GF107991071081004501001001MA1999999100911MD1610041+9999REMSYN094AAXX  10094 46738 32470 70403 10212 20148 30091 40145 56004 87800 555 82812 85632 87656 00000;EQDQ01  00002PRCP99
0256467380999992000021012004+24930+121300FM-12+0141RCUK V0203501N00151009601CN0120001N1+01901+01561999999ADDAA199000091GA1021+003609089GA2051+009609069GA3071+018009069GF107991071081004501001001KA1120M+02371MA1999999101011MD1110101+9999REMSYN098AAXX  10124 46738 32462 73503 1019/ 20156 30101 51010 87800 333 10237 555 82812 85632 87656 00000;EQDQ01  00002PRCP99
0217467380999992000021103004+24930+121300FM-12+0141RCUK V0201801N00151018001CN0180001N1+02411+01631101551ADDAA199000091GA1011+004509089GA2051+018009069GF105991051081004501001001MA1999999101011MD1810041+9999REMSYN088AAXX  11034 46738 32468 51803 10241 20163 30101 40155 58004 85800 555 81815 85656 00000;EQDQ01  00002PRCP99
0208467380999992000021106004+24930+121300FM-12+0141RCUK V0201001N002110090019N0150001N1+02341+01501101421ADDAA199000091GA1021+003609089GF106991061081004501001001MA1999999100881MD1710131+9999REMSYN095AAXX  11064 46738 32465 61004 10234 20150 30088 40142 57013 86800 555 82812 83628. 86656 00000;EQDQ01  00002PRCP99
0239467380999992000021109004+24930+121300FM-12+0141RCUK V0200601N00261007501CN0150001N1+02251+01791101381ADDAA199000091GA1021+003009089GA2031+007509069GA3061+018009069GF106991061081004501001001MA1999999100841MD1810041+9999REMSYN094AAXX  11094 46738 32465 60605 10225 20179 30084 40138 58004 86800 555 82810 83625 86656 00000;EQDQ01  00002PRCP99
0239467380999992000021115004+24930+121300FM-12+0141RCUK V0203401N00361008401CN0100001N1+02081+01721101451ADDAA199000091GA1021+003009089GA2051+008409069GA3071+018009069GF107991071061004501001001MA1999999100911MD1810041+9999REMSYN094AAXX  11154 46738 32460 73407 10208 20172 30091 40145 58004 87600 555 82810 85628 87656 00000;EQDQ01  00002PRCP99
0239467380999992000021118004+24930+121300FM-12+0141RCUK V0200501N00261008401CN0100001N1+02071+01701101421ADDAA199000091GA1021+003009089GA2051+008409069GA3071+018009069GF107991071061004501001001MA1999999100881MD1810031+9999REMSYN094AAXX  11184 46738 32460 70505 10207 20170 30088 40142 58003 87600 555 82810 85628 87656 00000;EQDQ01  00002PRCP99
0239467380999992000021121004+24930+121300FM-12+0141RCUK V0203601N00311008401CN0100001N1+01921+01711101381ADDAA199000091GA1021+003009089GA2051+008409069GA3071+018009069GF107991071061004501001001MA1999999100841MD1810041+9999REMSYN094AAXX  11214 46738 32460 73606 10192 20171 30084 40138 58004 87600 555 82810 85628 87656 00000;EQDQ01  00002PRCP99
0280467380999992000021200004+24930+121300FM-12+0141RCUK V0200201N00461008401CN0200001N1+02001+01771101491ADDAA199000091GA1021+003609089GA2041+008409069GA3061+013509069GF106991061081004501001001KA1120N+01881MA1999999100951MD1110111+9999REMSYN122AAXX  12004 46738 32470 60209 10200 20177 30095 40149 51011 86800 333 20188 555 82812 84628 86645 00000 2:000 10260 20150;EQDQ01  00002PRCP99
0239467380999992000021203004+24930+121300FM-12+0141RCUK V0200601N00361012001CN0250001N1+02321+01711101491ADDAA199000091GA1021+003609089GA2051+012009069GA3071+018009069GF107991071081004501001001MA1999999100951MD1510001+9999REMSYN094AAXX  12034 46738 32475 70607 10232 20171 30095 40149 55000 87800 555 82812 85640 87656 00000;EQDQ01  00002PRCP99
0239467380999992000021206004+24930+121300FM-12+0141RCUK V0200801N00411010501CN0250001N1+02331+01811101281ADDAA199000091GA1021+003609089GA2051+010509069GA3071+018009069GF107991071081004501001001MA1999999100741MD1810211+9999REMSYN094AAXX  12064 46738 32475 70808 10233 20181 30074 40128 58021 87800 555 82812 85635 87656 00000;EQDQ01  00002PRCP99
0239467380999992000021209004+24930+121300FM-12+0141RCUK V0200601N00361010501CN0200001N1+02261+01821101251ADDAA199000091GA1021+003609089GA2051+010509069GA3071+015009069GF107991071081004501001001MA1999999100711MD1610031+9999REMSYN094AAXX  12094 46738 32470 70607 10226 20182 30071 40125 56003 87800 555 82812 85635 87650 00000;EQDQ01  00002PRCP99
0262467380999992000021212004+24930+121300FM-12+0141RCUK V0209999C00001009601CN0120001N1+02141+01791101351ADDAA199000091GA1021+003609089GA2051+009609069GA3071+018009069GF107991071081004501001001KA1120M+02391MA1999999100811MD1310101+9999REMSYN104AAXX  12124 46738 32462 70000 10214 20179 30081 40135 53010 87800 333 10239 555 82812 85632 87656 00000;EQDQ01  00002PRCP99
0280467380999992000021300004+24930+121300FM-12+0141RCUK V0203601N00311024001CN0200001N1+02051+01691101421ADDAA199000091GA1011+004509089GA2031+009609069GA3061+024009039GF106991031081004501031001KA1120N+01941MA1999999100881MD1310071+9999REMSYN122AAXX  13004 46738 32470 63606 10205 20169 30088 40142 53007 83830 333 20194 555 81815 83632 86358 00000 24000 10239 20188;EQDQ01  00002PRCP99
0239467380999992000021309004+24930+121300FM-12+0141RCUK V0200701N00151018001CN0150001N1+02231+01901101111ADDAA199000091GA1011+003909089GA2031+007509069GA3071+018009069GF107991071081004501001001MA1999999100571MD1410001+9999REMSYN094AAXX  13094 46738 32465 70703 10223 20190 30057 40111 54000 87800 555 81813 83625 87656 00000;EQDQ01  00002PRCP99
0262467380999992000021312004+24930+121300FM-12+0141RCUK V0203301N00101006601CN0120001N1+02181+01911101151ADDAA199000091GA1021+003009089GA2051+006609069GA3071+018009069GF107991071081004501999999KA1120M+02561MA1999999100611MD1310041+9999REMSYN104AAXX  13124 46738 32462 73302 10218 20191 30061 40115 53004 878// 333 10256 555 82810 85622 87656 00000;EQDQ01  00002PRCP99
0167467380999992000021315004+24930+121300FM-12+0141RCUK V0203201N001510090019N0150001N1+02041+01851101151ADDAA199000091GF105991051081004501001001MA1999999100611MD1010001+9999REMSYN070AAXX  13154 46738 32465 53203 10204 20185 30061 40115 50000 85800 555;EQDQ01  00002PRCP99
0194467380999992000021321004+24930+121300FM-12+0141RCUK V0203301N020619999999N0150001N1+01781+01581101151ADDAA199000091GA1031+008409069MA1999999100611REMSYN089AAXX  13214 46738 32465 /3340 10178 20158 30061 40115 5300/ 83800 555 818815 83628 00000;EQDQ01+000032APCTENQ02+000002APC3  Q03  00002PRCP99
0190467380999992000021400004+24930+121300FM-12+0141RCUK V0203401N002112200019N0180001N1+02041+01561101221ADDAA199000091GF101991011041008001001031KA1120N+01781MA1999999100681MD1310071+9999REMSYN080AAXX  14004 46738 32568 13404 10204 20156 30068 40122 53007 81403 333 20178 555;EQDQ01  00002PRCP99
0195467380999992000021403004+24930+121300FM-12+0141RCUK V0201301N002112200019N0180001N1+02651+01751101181ADDAA199000091GA1011+004809089GF101991011011004501001001MA1999999100641MD1810041+9999REMSYN082AAXX  14034 46738 32468 11304 10265 20175 30064 40118 58004 81100 555 81816 00000;EQDQ01  00002PRCP99
0191467380999992000021406004+24930+121300FM-12+0141RCUK V0209999999999009001CN0300001N1+02701+01931101081ADDAA199000091GA1021+004809089GA2031+009009069MA1999999100501MD1610101+9999REMSYN088AAXX  14064 46738 32480 /1/06 10270 20193 3005/ 40108 56010 83800 555 82816 83630 00000;EQDQ01  00002PRCP99
0226467380999992000021418004+24930+121300FM-12+0141RCUK V0200201N00411007501CN0110001N1+01921+01451101551ADDAA106000791GA1021+003609089GA2051+007509069GA3081+015009069GF108991081081999999999999MA1999999101011MD1310061+9999REMSYN100AAXX  14184 46738 12/61 80208 10192 20145 30101 40155 53006 69901 888// 555 82812 85625 88650 00000;
0267467380999992000021500004+24930+121300FM-12+0141RCUK V0200201N00671007501CN0200001N1+01801+01331101891ADDAA112000791GA1021+003009089GA2051+007509069GA3081+015009069GF108991081999004501999999KA1120N+01781MA1999999101351MD1210301+9999REMSYN128AAXX  15004 46738 12470 80213 10180 20133 30135 40189 52030 69902 88/// 333 20178 555 82810 85625 88650 00000 24990 10276 20178;
0224467380999992000021503004+24930+121300FM-12+0141RCUK V0200201N00621009601CN0250001N1+01851+01301102031ADDAA199000091GA1021+003609089GA2051+009609069GF108991081081004501999999MA1999999101491MD1110141+9999REMSYN095AAXX  15034 46738 32475 80212 10185 20130 30149 40203 51014 888// 555 82812 85632 88656. 00000;EQDQ01  00002PRCP99
0208467380999992000021506004+24930+121300FM-12+0141RCUK V0200201N004110090019N0250001N1+01851+01281101891ADDAA199000091GA1021+003609089GF108991081081004501999999MA1999999101351MD1810141+9999REMSYN095AAXX  15064 46738 32475 80208 10185 20128 30135 40189 58014 888// 555 82812 .856T IIYTYM 00000;EQDQ01  00002PRCP99
0237467380999992000021512004+24930+121300FM-12+0141RCUK V0200101N006210090019N0120001N1+01621+01211101961ADDAA199000091GA1021+003609089GF108991081081004501999999KA1120M+01921MA1999999101421MD1310071+9999REMSYN111AAXX  15124 46738 32462 80112 10162 20121 30142 40196 53007 888// 333 10192 555 30122 82812 85628. 88656 00000;EQDQ01  00002PRCP99
0245467380999992000021515004+24930+121300FM-12+0141RCUK V0200101N00461006601CN0150001N1+01621+01041102031ADDAA199000091GA1021+003609089GA2051+006609069GA3081+018009069GF108991081081004501999999MA1999999101491MD1110071+9999REMSYN100AAXX  15154 46738 32465 80109 10162 20104 30149 40203 51007 888// 555 30122 82812 85622 88656 00000;EQDQ01  00002PRCP99
0239467380999992000021518004+24930+121300FM-12+0141RCUK V0203501N00411006601CN0150001N1+01711+01031101961ADDAA199000091GA1021+003609089GA2051+006609069GA3081+999999069GF108991081081004501999999MA1999999101421MD1810071+9999REMSYN094AAXX  15184 46738 32465 83508 10171 20103 30142 40196 58007 888// 555 82812 85622 88651 00000;EQDQ01  00002PRCP99
0280467380999992000021600004+24930+121300FM-12+0141RCUK V0200201N00671007501CN0180001N1+01611+01111102031ADDAA199000091GA1021+003009089GA2051+007509069GA3081+018009069GF108991081081004501999999KA1120N+01571MA1999999101491MD1210101+9999REMSYN122AAXX  16004 46738 32468 80213 10161 20111 30149 40203 52010 888// 333 20157 555 82810 85625 88656 00000 24000 10192 20157;EQDQ01  00002PRCP99
0208467380999992000021603004+24930+121300FM-12+0141RCUK V0200201N004110090019N0250001N1+01721+01181102031ADDAA199000091GA1021+003609089GF108991051081004501021999MA1999999101491MD1010001+9999REMSYN095AAXX  16034 46738 32475 80208 10172 20118 30149 40203 50000 8582/ 555 82812 8563 5 88457 00000;EQDQ01  00002PRCP99
0239467380999992000021606004+24930+121300FM-12+0141RCUK V0200301N00511013501CN0250001N1+02071+01211101761ADDAA199000091GA1021+003609089GA2051+013509069GA3051+021009039GF106991051081004501031001MA1999999101221MD1710271+9999REMSYN094AAXX  16064 46738 32475 60310 10207 20121 30122 40176 57027 85830 555 82812 85645 85357 00000;EQDQ01  00002PRCP99
0239467380999992000021609004+24930+121300FM-12+0141RCUK V0200201N00411010501CN0200001N1+01891+01171101761ADDAA199000091GA1021+003609089GA2051+010509069GA3071+021009039GF107991051081004501031999MA1999999101221MD1410001+9999REMSYN094AAXX  16094 46738 32470 70208 10189 20117 30122 40176 54000 8583/ 555 82812 85635 87357 00000;EQDQ01  00002PRCP99
0262467380999992000021612004+24930+121300FM-12+0141RCUK V0200101N00311008401CN0120001N1+01811+01241101861ADDAA199000091GA1021+003609089GA2051+008409069GA3081+015009069GF108991081081004501999999KA1120M+02111MA1999999101321MD1310101+9999REMSYN104AAXX  16124 46738 32462 80106 10181 20124 30132 40186 53010 888// 333 10211 555 82812 85628 88650 00000;EQDQ01  00002PRCP99
0239467380999992000021615004+24930+121300FM-12+0141RCUK V0200201N00151008401CN0110001N1+01731+01361101891ADDAA199000091GA1021+003609089GA2051+008409069GA3081+018009999GF108991081081004501999999MA1999999101351MD1110031+9999REMSYN094AAXX  16154 46738 32461 80203 10173 20136 30135 40189 51003 888// 555 82812 85628 88/56 00000;EQDQ01  00002PRCP99
0217467380999992000021618004+24930+121300FM-12+0141RCUK V0200101N00101008401CN0110001N1+01711+01331101831ADDAA199000091GA1021+003609089GA2051+008409069GF107991071081004501001001MA1999999101291MD1810061+9999REMSYN088AAXX  16184 46738 32461 70102 10171 20133 30129 40183 58006 87800 555 82812 85628 00000;EQDQ01  00002PRCP99
0280467380999992000021700004+24930+121300FM-12+0141RCUK V0200201N00361010501CN0250001N1+01831+01341101931ADDAA199000091GA1021+003609089GA2051+010509069GA3071+018009069GF107991071081004501001001KA1120N+01711MA1999999101391MD1110101+9999REMSYN122AAXX  17004 46738 32475 70207 10183 20134 30139 40193 51010 87800 333 20171 555 82812 85635 87656 00000 24000 10211 20157;EQDQ01  00002PRCP99
0239467380999992000021703004+24930+121300FM-12+0141RCUK V0200201N00511010501CN0300001N1+02131+01391101961ADDAA199000091GA1021+003609089GA2051+010509069GA3071+018009069GF107991071081004501999999MA1999999101421MD1010031+9999REMSYN094AAXX  17034 46738 32480 70210 10213 20139 30142 40196 50003 878// 555 82812 85635 87656 00000;EQDQ01  00002PRCP99
0239467380999992000021706004+24930+121300FM-12+0141RCUK V0200701N00621021001CN0300001N1+02331+01641101721ADDAA199000091GA1021+004509089GA2041+013509069GA3071+021009039GF107991041081004501031001MA1999999101181MD1710241+9999REMSYN094AAXX  17064 46738 32480 70712 10233 20164 30118 40172 57024 84830 555 82815 84645 87357 00000;EQDQ01  00002PRCP99
0213467380999992000021709004+24930+121300FM-12+0141RCUK V0200201N00621009601CN0300001N1+02121+01341101721ADDAA199000091GA1021+004509089GA2051+009609069GA3071+021009039GF107991999999004501999999MA1999999101181REMSYN082AAXX  17094 46738 32480 70212 10212 20134 30118 40172 555 82815 85632 87357 00000;EQDQ01  00002PRCP99
0280467380999992000021900004+24930+121300FM-12+0141RCUK V0203101N00101024001CN0180001N1+02281+01811101051ADDAA199000091GA1021+003609089GA2041+012009069GA3061+024009039GF106991041081004501031001KA1120N+01951MA1999999100541MD1410001+9999REMSYN122AAXX  19004 46738 32468 63102 10228 20181 30054 40105 54000 84830 333 20195 555 82812 84640 86358 00000 24998 10227 20180;EQDQ01  00002PRCP99
0217467380999992000021903004+24930+121300FM-12+0141RCUK V0202001N00461024001CN0200001N1+02791+02151100881ADDAA199000091GA1011+004509089GA2051+024009039GF105991011011004501031001MA1999999100341MD1810171+9999REMSYN088AAXX  19034 46738 32470 52009 10279 20215 30034 40088 58017 81130 555 81815 85358 00000;EQDQ01  00002PRCP99
0223467380999992000021906004+24930+121300FM-12+0141RCUK V0200801N002612200019N0200001N1+03131+02101100501ADDAA199000091GA1011+004509089GA2031+024009039GF103991011011004501031001MA1999999099961MD1710381+9999REMSYN094AAXX  19064 46738 32470 30805 10313 20210 39996 40050 57038 81130 555 31725 81815 83358 00000;EQDQ01  00002PRCP99
0234467380999992000021909004+24930+121300FM-12+0141RCUK V0202401N00311075001CN0200001N1+03211+01911999999ADDAA199000091GA1011+004509089GA2031+024009039GA3051+075009009GF105991011011004501031011MA1999999099931MD1610031+9999REMSYN089AAXX  19094 46738 32470 52406 10321 20191 39993 56003 81131 555 /81815 83358 85075 00000;EQDQ01  00002PRCP99
0240467380999992000021912004+24930+121300FM-12+0141RCUK V0201101N003112200019N0120001N1+02621+01951100571ADDAA199000091GA1011+003609089GA2031+024009039GF103991011011004501031001KA1120M+03351MA1999999100031MD1310101+9999REMSYN098AAXX  19124 46738 32462 31106 10262 20195 30003 40057 53010 81130 333 10335 555 81812 83358 00000;EQDQ01  00002PRCP99
0233467380999992000021921004+24930+121300FM-12+0141RCUK V0200301N00101018001CN0120001N1+02231+01881101381ADDAA199000091GA1021+003609089GA2061+018009069GF106991061081004501001001MA1999999100841MD1610712+9999REMSYN088AAXX  19214 46738 32462 60302 10223 20188 30084 40138 56071 86800 555 82812 86656 00000;EQDQ01+000712APC3  Q02  00002PRCP99
0255467380999992000022003004+24930+121300FM-12+0141RCUK V0200501N00461007501CN0130001N1+02321+01861101111ADDAA199000091GA1021+002409089GA2051+007509069GA3061+018009069GF106991999061002501001001MA1999999100571MD1210171+9999REMSYN094AAXX  20034 46738 32363 60509 10232 20186 30057 40111 52017 87600 555 82808 85625 86656 00000;EQDQ01+000072SCOTLCQ02  00002PRCP99
0239467380999992000022006004+24930+121300FM-12+0141RCUK V0200701N00311008401CN0150001N1+02261+01721101051ADDAA199000091GA1021+003009089GA2051+008409069GA3071+018009069GF107991071061004501001001MA1999999100511MD1810061+9999REMSYN094AAXX  20064 46738 32465 70706 10226 20172 30051 40105 58006 87600 555 82810 85628 87656 00000;EQDQ01  00002PRCP99
0254467380999992000022009004+24930+121300FM-12+0141RCUK V0209999C00001004801CN0060001N1+01991+01771101111ADDAA100001091AY161031AY221031GA1021+001509089GA2051+004809069GA3071+012009069GF107991071061001501001001MA1999999100571MD1310061+9999MW1601REMSYN106AAXX  20094 46738 11256 70000 10199 20177 30057 40111 53006 6001/ 76062 87600 555 82805 85616 87640 00001;
0254467380999992000022015004+24930+121300FM-12+0141RCUK V0203501N00261006001CN0120001N1+01861+01721101351ADDAA100001091AY161031AY221031GA1021+003609089GA2051+006009069GA3081+013509069GF108991081081004501999999MA1999999100811MD1210101+9999MW1601REMSYN106AAXX  20154 46738 11462 83505 10186 20172 30081 40135 52010 6001/ 76062 888// 555 82812 85620 88645 00004;
0255467380999992000022018004+24930+121300FM-12+0141RCUK V0203501N00361006001CN0120001N1+01711+01641101381ADDAA106001091AY161061AY221061GA1021+003609089GA2051+006009069GA3081+013509069GF108991081081004501999999MA1999999100841MD1110031+9999MW1601REMSYN107AAXX  20184 46738 11462 83507 10171 20164 30084 40138 51003 60011 76062 888// 555 /82812 85620 88645 00993;
0254467380999992000022103004+24930+121300FM-12+0141RCUK V0203601N00261006001CN0200001N1+01711+01561101721ADDAA100000391AY161031AY251031GA1031+002409079GA2051+006009069GA3081+013509069GF108991081051002501999999MA1999999101181MD1010061+9999MW1501REMSYN106AAXX  21034 46738 11370 83605 10171 20156 30118 40172 50006 6993/ 75065 885// 555 83708 85620 88645 00998;
0220467380999992000022115004+24930+121300FM-12+0141RCUK V0209999C00001008401CN0200001N1+01761+01581101551ADDAA199000021GA1021+003609089GA2051+008409069GA3071+015009069GF107991071081004501999999MA1999999101011MD1810041+9999REMSYN094AAXX  21154 46738 32470 70000 10176 20158 30101 40155 58004 878// 555 82812 85628 87650 00998;
0225467380999992000022118004+24930+121300FM-12+0141RCUK V0209999C00001008401CN0200001N1+01771+01101101561ADDAA199000091GA1021+003609089GA2051+008409069GA3071+015009069GF107991071081004501999999MA1999999101011REMSYN094AAXX  21184 46738 32470 70000 10177 20110 30101 40156 5/000 878// 555 82812 85628 87650 00000;EQDQ01  00002PRCP99
0280467380999992000022200004+24930+121300FM-12+0141RCUK V0200201N00051008401CN0200001N1+01881+01691101281ADDAA199000091GA1021+003609089GA2051+008409069GA3071+018009069GF107991071081004501999999KA1120N+01771MA1999999100741MD1610271+9999REMSYN122AAXX  22004 46738 32470 70201 10188 20169 30074 40128 56027 878// 333 20177 555 82812 85628 87656 00000 24998 10182 20168;EQDQ01  00002PRCP99
0239467380999992000022203004+24930+121300FM-12+0141RCUK V0200401N00461005401CN0200001N1+02161+01751101291ADDAA199000091GA1021+003009089GA2051+005409089GA3071+018009069GF107991071081004501999999MA1999999100741MD1410001+9999REMSYN094AAXX  22034 46738 32470 70409 10216 20175 30074 40129 54000 878// 555 82810 85818 87656 00000;EQDQ01  00002PRCP99
0254467380999992000022206004+24930+121300FM-12+0141RCUK V0200701N00311004801CN0090001N1+02111+01941101181ADDAA106000791AY121061AY221061GA1031+002109089GA2051+004809069GA3081+013509069GF108991081051002501999999MA1999999100641MD1610101+9999MW1501REMSYN106AAXX  22064 46738 11359 80706 10211 20194 30064 40118 56010 69901 75022 885// 555 83807 85616 88645 00990;
0277467380999992000022212004+24930+121300FM-12+0141RCUK V0200301N00211003601CN0080001N1+01951+01791101281ADDAA112000391AY151061AY251061GA1031+001809089GA2051+003609089GA3081+012009069GF108991081071002501999999KA1120M+02201MA1999999100741MD1310061+9999MW1501REMSYN116AAXX  22124 46738 11358 80304 10195 20179 30074 40128 53006 69932 75055 887// 333 10220 555 83806 85812 88640 00993;
0254467380999992000022215004+24930+121300FM-12+0141RCUK V0203501N00361004501CN0110001N1+01971+01781101321ADDAA100000791AY151031AY221031GA1021+001809089GA2051+004509069GA3081+015009069GF108991081081002501999999MA1999999100781MD1110041+9999MW1021REMSYN106AAXX  22154 46738 11361 83507 10197 20178 30078 40132 51004 6990/ 70252 888// 555 82806 85615 88650 00993;
