0238470950999992000010100004+38080+127820FM-12+013599999V0209999C000012200019N0090001N1-00381-00451102881ADDAA106000091AY101061AY201061GF103991001001999999001011IA1019IA2999-00309KA1120N-00551MA1999999100901MD1310021+9999MW1101REMSYN088AAXX  01004 47095 31959 30000 11038 21045 30090 40288 53002 71000 80001 333 21055 30103;EQDQ01  00002PRCP06
0163470950999992000010103004+38080+127820FM-12+013599999V0201801N000519999999N0120001N1+00261-00071102761ADDAA106000091GF107991041001999999031021MA1999999100831MD1710071+9999REMSYN066AAXX  01034 47095 32962 71801 10026 21007 30083 40276 57007 84032;EQDQ01  00002PRCP06
0163470950999992000010106004+38080+127820FM-12+013599999V0200201N003112200019N0150001N1+00781+00051102391ADDAA106000091GF102991001001999999001021MA1999999100511MD1710321+9999REMSYN066AAXX  01064 47095 32965 20206 10078 20005 30051 40239 57032 80002;EQDQ01  00002PRCP06
0163470950999992000010109004+38080+127820FM-12+013599999V0209999C000019999999N0150001N1+00211-00061102431ADDAA106000091GF105991051001999999031001MA1999999100501MD1210041+9999REMSYN066AAXX  01094 47095 32965 50000 10021 21006 30050 40243 52000 85030;EQDQ01  00002PRCP06
0216470950999992000010112004+38080+127820FM-12+013599999V0209999C000019999999N0150001N1+00001-00111102421ADDAA106000091GF106991061001999999031001IA1019IA2999+00009KA1120M+00791MA1999999100471MD1510031+9999REMSYN088AAXX  01124 47095 32965 60000 11000 21011 30047 40242 55003 86030 333 10079 30000 55034;EQDQ01  00002PRCP06
0163470950999992000010115004+38080+127820FM-12+013599999V0201601N001010120019N0150001N1+00081-00041102231ADDAA106000091GF108991051051012501011999MA1999999100291MD1710181+9999REMSYN066AAXX  01154 47095 32665 81602 10008 21004 30029 40223 57018 8551/;EQDQ01  00002PRCP06
0161470950999992000010118004+38080+127820FM-12+013599999V0200901N001010075019N0120001N1+00091-00011101961ADDAY161061AY261061GF108991051071008001021999MA1999999100031MD1710271+9999MW1601REMSYN072AAXX  01184 47095 41562 80902 10009 21001 30003 40196 57027 76066 8572/;
0161470950999992000010121004+38080+127820FM-12+013599999V0201101N000510075019N0120001N1+00101+00011101501ADDAY161031AY261031GF108991051071008001021999MA1999999099581MD1710451+9999MW1601REMSYN072AAXX  01214 47095 41562 81101 10010 20001 39958 40150 57045 76066 8572/;
0231470950999992000010200004+38080+127820FM-12+013599999V0202001N003110075019N0050001N1+00451+00391101301ADDAA112008991AY161061AY261061GF108991061071008001021999IA1119IA2999+00009KA1120N+00021MA1999999099411MD1710171+9999MW1611REMSYN100AAXX  02004 47095 11550 82006 10045 20039 39941 40130 57017 60092 76166 8672/ 333 20002 32000 70092;
0161470950999992000010203004+38080+127820FM-12+013599999V0202301N003610075019N0100001N1+00481+00171101371ADDAY161031AY221031GF105991051051008001001001MA1999999099481MD1310081+9999MW1211REMSYN072AAXX  02034 47095 41560 52307 10048 20017 39948 40137 53008 72162 85500;
0133470950999992000010206004+38080+127820FM-12+013599999V0202501N002612200019N0150001N1+00541-00141101351ADDGF103991031051008001001001MA1999999099471MD1010021+9999REMSYN066AAXX  02064 47095 42565 32505 10054 21014 39947 40135 50002 83500;
0143470950999992000010209004+38080+127820FM-12+013599999V0202501N001012200019N0120001N1+00241-00461101631ADDGA1001+999999999GF100991001001999999001001MA1999999099711MD1210251+9999REMSYN060AAXX  02094 47095 42962 02502 10024 21046 39971 40163 52025;
0196470950999992000010212004+38080+127820FM-12+013599999V0202501N002612200019N0120001N1+00011-00551101761ADDGA1001+999999999GF100991001001999999001001IA1099IA2999+00009KA1120M+00601MA1999999099831MD1210121+9999REMSYN082AAXX  02124 47095 12962 02505 10001 21055 39983 40176 52012 333 10060 31000 55012;
0143470950999992000010215004+38080+127820FM-12+013599999V0202501N003612200019N0120001N1-00201-00581101891ADDGA1001+999999999GF100991001001999999001001MA1999999099941MD1010111+9999REMSYN060AAXX  02154 47095 42962 02507 11020 21058 39994 40189 50011;
0173470950999992000010218004+38080+127820FM-12+013599999V0202301N005112200019N0120001N1-00311-00891102031ADDAA106000091GA1001+999999999GF100991001001999999001001MA1999999100071MD1210131+9999REMSYN060AAXX  02184 47095 32962 02310 11031 21089 30007 40203 52013;EQDQ01  00002PRCP06
0173470950999992000010221004+38080+127820FM-12+013599999V0201801N001012200019N0120001N1-00561-00921102141ADDAA106000091GA1001+999999999GF100991001001999999001001MA1999999100161MD1210091+9999REMSYN060AAXX  02214 47095 32962 01802 11056 21092 30016 40214 52009;EQDQ01  00002PRCP06
0222470950999992000010300004+38080+127820FM-12+013599999V0209999C000012200019N0150001N1-00631-00941102371ADDAA106000091GF101991001001999999001011IA1149IA2999-00309KA1120N-00791MA1999999100381MD1210221+9999REMSYN094AAXX  03004 47095 32965 10000 11063 21094 30038 40237 52022 80001 333 21079 34103 44/// 70085;EQDQ01  00002PRCP06
0163470950999992000010303004+38080+127820FM-12+013599999V0202301N001512200019N0150001N1-00281-00971102281ADDAA106000091GF102991001001999999001011MA1999999100321MD1310061+9999REMSYN066AAXX  03034 47095 32965 22303 11028 21097 30032 40228 53006 80001;EQDQ01  00002PRCP06
0179470950999992000010306004+38080+127820FM-12+013599999V0203401N001519999999N0150001N1-00111-00961102291ADDAA106000091GF105991001001999999001051MA1999999100341MD1010021+9999REMSYN066AAXX  03064 47095 32965 53403 11011 21096 30034 40229 50002 85005;EQDQ01+000052SCOTLCQ02  00002PRCP06
0163470950999992000010309004+38080+127820FM-12+013599999V0203601N001512200019N0150001N1-00331-00971102401ADDAA106000091GF102991001001999999001011MA1999999100441MD1210101+9999REMSYN066AAXX  03094 47095 32965 23603 11033 21097 30044 40240 52010 80001;EQDQ01  00002PRCP06
0222470950999992000010312004+38080+127820FM-12+013599999V0203601N001512200019N0150001N1-00581-00891102521ADDAA106000091GF102991001001999999001011IA1149IA2999-00209KA1120M-00011MA1999999100531MD1210091+9999REMSYN094AAXX  03124 47095 32965 23603 11058 21089 30053 40252 52009 80001 333 11001 34102 44/// 55074;EQDQ01  00002PRCP06
0173470950999992000010315004+38080+127820FM-12+013599999V0200201N001012200019N0150001N1-00701-00871102611ADDAA106000091GA1001+999999999GF100991001001999999001001MA1999999100611MD1010081+9999REMSYN060AAXX  03154 47095 32965 00202 11070 21087 30061 40261 50008;EQDQ01  00002PRCP06
0173470950999992000010318004+38080+127820FM-12+013599999V0209999C000012200019N0150001N1-00791-00911102651ADDAA106000091GA1001+999999999GF100991001001999999001001MA1999999100641MD1210031+9999REMSYN060AAXX  03184 47095 32965 00000 11079 21091 30064 40265 52003;EQDQ01  00002PRCP06
0173470950999992000010321004+38080+127820FM-12+013599999V0209999C000012200019N0150001N1-00821-00961102651ADDAA106000091GA1001+999999999GF100991001001999999001001MA1999999100641MD1810011+9999REMSYN060AAXX  03214 47095 32965 00000 11082 21096 30064 40265 58001;EQDQ01  00002PRCP06
0220470950999992000010400004+38080+127820FM-12+013599999V0209999C000012200019N0120001N1-00791-00941102781ADDAA106000091GA1001+999999999GF100991001001999999001001IA1149IA2999-00409KA1120N-00901MA1999999100771MD1210131+9999REMSYN076AAXX  04004 47095 32962 00000 11079 21094 30077 40278 52013 333 21090 34104;EQDQ01  00002PRCP06
0173470950999992000010403004+38080+127820FM-12+013599999V0209999C000012200019N0100001N1-00171-00621102661ADDAA106000091GA1001+999999999GF100991001001999999001001MA1999999100701MD1310071+9999REMSYN060AAXX  04034 47095 32960 00000 11017 21062 30070 40266 53007;EQDQ01  00002PRCP06
0163470950999992000010409004+38080+127820FM-12+013599999V0200201N000510360019N0100001N1-00061-00561102541ADDAA106000091GF108991021051012501011999MA1999999100591MD1010041+9999REMSYN066AAXX  04094 47095 32660 80201 11006 21056 30059 40254 50004 8251/;EQDQ01  00002PRCP06
0222470950999992000010412004+38080+127820FM-12+013599999V0201101N000512200019N0100001N1-00271-00551102591ADDAA106000091GF106991021051012501001011IA1149IA2999-00109KA1120M+00291MA1999999100621MD1210031+9999REMSYN094AAXX  04124 47095 32660 61101 11027 21055 30062 40259 52003 82501 333 10029 34101 44/// 55043;EQDQ01  00002PRCP06
0163470950999992000010415004+38080+127820FM-12+013599999V0201801N000519999999N0100001N1-00171-00681102551ADDAA106000091GF108991081001999999011999MA1999999100591MD1710031+9999REMSYN066AAXX  04154 47095 32960 81801 11017 21068 30059 40255 57003 8801/;EQDQ01  00002PRCP06
0163470950999992000010418004+38080+127820FM-12+013599999V0200901N000519999999N0100001N1+00001-00691102471ADDAA106000091GF108991081001999999011999MA1999999100531MD1810061+9999REMSYN066AAXX  04184 47095 32960 80901 11000 21069 30053 40247 58006 8801/;EQDQ01  00002PRCP06
0161470950999992000010421004+38080+127820FM-12+013599999V0203601N006710075019N0050001N1-00121-00241102341ADDAY171031AY271031GF108991061071008001021999MA1999999100391MD1510141+9999MW1711REMSYN072AAXX  04214 47095 41550 83613 11012 21024 30039 40234 55014 77177 8672/;
0254470950999992000010500004+38080+127820FM-12+013599999V0200201N004110042019N0010001N1-00111-00131102331ADDAA112001091AJ100049199999999AY171061AY271061GF108991061071004501021999IA1279IA2999+00009KA1120N-00191MA1999999100381MD1510001+9999MW1731REMSYN106AAXX  05004 47095 11410 80208 11011 21013 30038 40233 55000 60012 77377 8672/ 333 21019 3/100 43004 70043;
0161470950999992000010503004+38080+127820FM-12+013599999V0203601N005110042019N0010001N1+00041-00011102201ADDAY171031AY271031GF108991061071004501021999MA1999999100261MD1510121+9999MW1731REMSYN072AAXX  05034 47095 41410 83610 10004 21001 30026 40220 55012 77377 8672/;
0161470950999992000010506004+38080+127820FM-12+013599999V0200201N004610042019N0040001N1+00201+00031101851ADDAY171061AY271061GF108991051071004501021999MA1999999099931MD1710331+9999MW1711REMSYN072AAXX  05064 47095 41440 80209 10020 20003 39993 40185 57033 77177 8572/;
0161470950999992000010509004+38080+127820FM-12+013599999V0203601N004610042019N0060001N1+00171+00081101881ADDAY171031AY261031GF108991051071004501021999MA1999999099961MD1010031+9999MW1681REMSYN072AAXX  05094 47095 41456 83609 10017 20008 39996 40188 50003 76876 8572/;
0254470950999992000010512004+38080+127820FM-12+013599999V0200201N005710360019N0150001N1+00201+00061101761ADDAA112007191AJ100079199999999AY171061AY271061GF108991041071008001021999IA1279IA2999+00009KA1120M+00201MA1999999099851MD1710111+9999MW1681REMSYN106AAXX  05124 47095 11565 80211 10020 20006 39985 40176 57011 60072 76877 8472/ 333 10020 3/000 43007 55000;
0161470950999992000010515004+38080+127820FM-12+013599999V0201401N000510042019N0080001N1+00131+00111101521ADDAY171031AY271031GF108991051071004501021999MA1999999099611MD1710241+9999MW1611REMSYN072AAXX  05154 47095 41458 81401 10013 20011 39961 40152 57024 76177 8572/;
0161470950999992000010521004+38080+127820FM-12+013599999V0201801N001010360019N0080001N1+00121+00111101251ADDAY161031AY261031GF108991041071008001021999MA1999999099341MD1710151+9999MW1611REMSYN072AAXX  05214 47095 41558 81802 10012 20011 39934 40125 57015 76166 8472/;
0161470950999992000010603004+38080+127820FM-12+013599999V0202301N002110120019N0080001N1+00241+00161101501ADDAY151031AY221031GF108991051051012501021999MA1999999099591MD1310091+9999MW1101REMSYN072AAXX  06034 47095 41658 82304 10024 20016 39959 40150 53009 71052 8552/;
0133470950999992000010606004+38080+127820FM-12+013599999V0202001N003610075019N0120001N1+00231-00021101401ADDGF108991051051008001021999MA1999999099491MD1710101+9999REMSYN066AAXX  06064 47095 41562 82007 10023 21002 39949 40140 57010 8552/;
0133470950999992000010609004+38080+127820FM-12+013599999V0202901N004112200019N0120001N1-00151-00901101791ADDGF103991031051012501001001MA1999999099841MD1210361+9999REMSYN066AAXX  06094 47095 42662 32908 11015 21090 39984 40179 52036 83500;
0242470950999992000010612004+38080+127820FM-12+013599999V0202301N006712200019N0140001N1-00391-01181101931ADDAA112000791AJ100029199999999GA1001+999999999GF100991001001999999001001IA1279IA2999+00009KA1120M+00271MA1999999099961MD1210121+9999REMSYN100AAXX  06124 47095 12964 02313 11039 21118 39996 40193 52012 69902 333 10027 3/000 43002 55000 70141;
0163470950999992000010615004+38080+127820FM-12+013599999V0202901N003619999999N0120001N1-00611-01151102021ADDAA106000091GF108991001001999999001081MA1999999100041MD1210081+9999REMSYN066AAXX  06154 47095 32962 82907 11061 21115 30004 40202 52008 80008;EQDQ01  00002PRCP06
0173470950999992000010621004+38080+127820FM-12+013599999V0203401N003612200019N0150001N1-01341-02401102551ADDAA106000091GA1001+999999999GF100991001001999999001001MA1999999100501MD1210161+9999REMSYN060AAXX  06214 47095 32965 03407 11134 21240 30050 40255 52016;EQDQ01  00002PRCP06
0249470950999992000010700004+38080+127820FM-12+013599999V0202701N000512200019N0180001N1-01381-02261102721ADDAA106000091AJ100029199999999GA1001+999999999GF100991001001999999001001IA1279IA2999-00509KA1120N-01441MA1999999100671MD1210171+9999REMSYN088AAXX  07004 47095 32968 02701 11138 21226 30067 40272 52017 333 21144 3/105 43002 70003;EQDQ01  00002PRCP06
0173470950999992000010703004+38080+127820FM-12+013599999V0202301N003112200019N0200001N1-01041-01911102631ADDAA106000091GA1001+999999999GF100991001001999999001001MA1999999100611MD1310061+9999REMSYN060AAXX  07034 47095 32970 02306 11104 21191 30061 40263 53006;EQDQ01  00002PRCP06
0173470950999992000010706004+38080+127820FM-12+013599999V0202301N002612200019N0200001N1-00831-01781102411ADDAA106000091GA1001+999999999GF100991001001999999001001MA1999999100401MD1710201+9999REMSYN060AAXX  07064 47095 32970 02305 11083 21178 30040 40241 57020;EQDQ01  00002PRCP06
0179470950999992000010709004+38080+127820FM-12+013599999V0202001N000512200019N0200001N1-00931-01641102421ADDAA106000091GF101991011051012501001001MA1999999100411MD1210011+9999REMSYN066AAXX  07094 47095 32670 12001 11093 21164 30041 40242 52000 81500;EQDQ01+000002APC3  Q02  00002PRCP06
0265470950999992000010712004+38080+127820FM-12+013599999V0202501N002112200019N0200001N1-01081-01381102441ADDAA106000091AJ100029199999999GA1001+999999999GF100991001001999999001001IA1279IA2999-00509KA1120M-00631MA1999999100411MD1210021+9999REMSYN088AAXX  07124 47095 32970 02504 11108 21138 30041 40244 52000 333 11063 3/105 43002 55083;EQDQ01+000002APC3  Q02  00002PRCP06
0161470950999992000010715004+38080+127820FM-12+013599999V0202301N001010042019N0050001N1-00931-01181102411ADDAY171031AY271031GF108991061071004501021999MA1999999100401MD1710011+9999MW1711REMSYN072AAXX  07154 47095 41450 82302 11093 21118 30040 40241 57001 77177 8672/;
0161470950999992000010718004+38080+127820FM-12+013599999V0202501N003110075019N0060001N1-00901-01071102341ADDAY171061AY271061GF108991061071008001021999MA1999999100331MD1710071+9999MW1701REMSYN072AAXX  07184 47095 41556 82506 11090 21107 30033 40234 57007 77077 8672/;
0180470950999992000010721004+38080+127820FM-12+013599999V0202301N003110075019N0060001N1-00821-00981102341ADDAY171031AY271031GF108991061071008001021999MA1999999100331MD1410001+9999MW1701REMSYN072AAXX  07214 47095 41556 82306 11082 21098 30033 40234 58000 77077 8672/;EQDQ01+000082APCTEN
0254470950999992000010800004+38080+127820FM-12+013599999V0202501N001510075019N0100001N1-00761-00901102431ADDAA112000191AJ100029199999999AY171061AY271061GF105991051071008001001001IA1279IA2999-00309KA1120N-00941MA1999999100431MD1210101+9999MW1711REMSYN106AAXX  08004 47095 11560 52503 11076 21090 30043 40243 52010 69912 77177 85700 333 21094 3/103 43002 70001;
0133470950999992000010803004+38080+127820FM-12+013599999V0202501N002612200019N0180001N1-00401-01031102421ADDGF104991041051008001001001MA1999999100441MD1510011+9999REMSYN066AAXX  08034 47095 42568 42505 11040 21103 30044 40242 55001 84500;
0133470950999992000010806004+38080+127820FM-12+013599999V0202701N003612200019N0180001N1-00251-01071102321ADDGF102991021051008001001001MA1999999100361MD1810081+9999REMSYN066AAXX  08064 47095 42568 22707 11025 21107 30036 40232 58008 82500;
0143470950999992000010809004+38080+127820FM-12+013599999V0202501N002112200019N0180001N1-00421-01091102411ADDGA1001+999999999GF100991001001999999001001MA1999999100431MD1210071+9999REMSYN060AAXX  08094 47095 42968 02504 11042 21109 30043 40241 52007;
0242470950999992000010812004+38080+127820FM-12+013599999V0200201N000512200019N0180001N1-00781-01091102611ADDAA112000021AJ100029199999999GA1001+999999999GF100991001001999999001001IA1279IA2999-00409KA1120M-00191MA1999999100611MD1210171+9999REMSYN100AAXX  08124 47095 42968 00201 11078 21109 30061 40261 52017 60002 333 11019 3/104 43002 55044 70001;
0143470950999992000010815004+38080+127820FM-12+013599999V0200201N001012200019N0150001N1-01031-01161102691ADDGA1001+999999999GF100991001001999999001001MA1999999100671MD1710061+9999REMSYN060AAXX  08154 47095 42965 00202 11103 21116 30067 40269 57006;
0173470950999992000010818004+38080+127820FM-12+013599999V0209999C000012200019N0150001N1-01181-01281102631ADDAA106000091GA1001+999999999GF100991001001999999001001MA1999999100591MD1710071+9999REMSYN060AAXX  08184 47095 32965 00000 11118 21128 30059 40263 57007;EQDQ01  00002PRCP06
0173470950999992000010821004+38080+127820FM-12+013599999V0200201N000512200019N0150001N1-01241-01351102691ADDAA106000091GA1001+999999999GF100991001001999999001001MA1999999100641MD1010051+9999REMSYN060AAXX  08214 47095 32965 00201 11124 21135 30064 40269 50005;EQDQ01  00002PRCP06
0239470950999992000010900004+38080+127820FM-12+013599999V0200501N002119999999N0150001N1-01101-01291102591ADDAA106000091AJ100029199999999GF106991001001999999001021IA1279IA2999-00609KA1120N-01261MA1999999100561MD1710081+9999REMSYN094AAXX  09004 47095 32965 60504 11110 21129 30056 40259 57008 80002 333 21126 3/106 43002 79999;EQDQ01  00002PRCP06
0163470950999992000010903004+38080+127820FM-12+013599999V0203601N000519999999N0150001N1-00561-01021102491ADDAA106000091GF106991001001999999001061MA1999999100511MD1510051+9999REMSYN066AAXX  09034 47095 32965 63601 11056 21102 30051 40249 55005 80006;EQDQ01  00002PRCP06
0163470950999992000010909004+38080+127820FM-12+013599999V0203401N001010360019N0120001N1-00171-00691102101ADDAA106000091GF108991021051012501011999MA1999999100151MD1510061+9999REMSYN066AAXX  09094 47095 32662 83402 11017 21069 30015 40210 55006 8251/;EQDQ01  00002PRCP06
0239470950999992000010912004+38080+127820FM-12+013599999V0209999C000010360019N0100001N1-00191-00561102141ADDAA106000091AJ100029199999999GF108991021051012501011999IA1279IA2999-00109KA1120M-00081MA1999999100191MD1310041+9999REMSYN094AAXX  09124 47095 32660 80000 11019 21056 30019 40214 53004 8251/ 333 11008 3/101 43002 55022;EQDQ01  00002PRCP06
0163470950999992000010915004+38080+127820FM-12+013599999V0202001N000510360019N0100001N1-00191-00621102111ADDAA106000091GF108991031051012501011999MA1999999100161MD1010031+9999REMSYN066AAXX  09154 47095 32660 82001 11019 21062 30016 40211 50003 8351/;EQDQ01  00002PRCP06
0161470950999992000010918004+38080+127820FM-12+013599999V0202301N001510075019N0050001N1-00231-00411102101ADDAY171061AY271061GF108991061071008001021999MA1999999100141MD1810021+9999MW1711REMSYN072AAXX  09184 47095 41550 82303 11023 21041 30014 40210 58002 77177 8672/;
0161470950999992000010921004+38080+127820FM-12+013599999V0202001N001510075019N0080001N1-00181-00391102261ADDAY171031AY271031GF108991051071008001021999MA1999999100311MD1210171+9999MW1711REMSYN072AAXX  09214 47095 41558 82003 11018 21039 30031 40226 52017 77177 8572/;
0226470950999992000011000004+38080+127820FM-12+013599999V0202301N001012200019N0100001N1-00361-00581102501ADDAA112000591AJ100039199999999GF101991011051008001001001IA1279IA2999-00209KA1120N-00441MA1999999100531MD1210221+9999REMSYN100AAXX  10004 47095 12560 12302 11036 21058 30053 40250 52022 69952 81500 333 21044 3/102 43003 70004;
0143470950999992000011003004+38080+127820FM-12+013599999V0202901N001512200019N0120001N1-00061-00961102611ADDGA1001+999999999GF100991001001999999001001MA1999999100661MD1310131+9999REMSYN060AAXX  10034 47095 42962 02903 11006 21096 30066 40261 53013;
0143470950999992000011006004+38080+127820FM-12+013599999V0202901N001512200019N0200001N1+00041-01181102531ADDGA1001+999999999GF100991001001999999001001MA1999999100591MD1810071+9999REMSYN060AAXX  10064 47095 42970 02903 10004 21118 30059 40253 58007;
0173470950999992000011009004+38080+127820FM-12+013599999V0200201N002112200019N0200001N1-00341-00941102741ADDAA106000091GA1001+999999999GF100991001001999999001001MA1999999100771MD1210181+9999REMSYN060AAXX  10094 47095 32970 00204 11034 21094 30077 40274 52018;EQDQ01  00002PRCP06
0242470950999992000011012004+38080+127820FM-12+013599999V0200501N001512200019N0150001N1-00691-00981102961ADDAA112000391AJ100019199999999GA1001+999999999GF100991001001999999001001IA1309IA2999-00309KA1120M+00091MA1999999100951MD1210191+9999REMSYN100AAXX  10124 47095 32965 00503 11069 21098 30095 40296 52019 69932 333 10009 3/103 42001 55082 70005;
0173470950999992000011015004+38080+127820FM-12+013599999V0200201N000512200019N0150001N1-01001-01141103061ADDAA106000091GA1001+999999999GF100991001001999999001001MA1999999101021MD1210071+9999REMSYN060AAXX  10154 47095 32965 00201 11100 21114 30102 40306 52007;EQDQ01  00002PRCP06
0173470950999992000011018004+38080+127820FM-12+013599999V0202901N001512200019N0100001N1-01191-01311103021ADDAA106000091GA1001+999999999GF100991001001999999001001MA1999999100981MD1710051+9999REMSYN060AAXX  10184 47095 32960 02903 11119 21131 30098 40302 57005;EQDQ01  00002PRCP06
0173470950999992000011021004+38080+127820FM-12+013599999V0202001N000512200019N0100001N1-01321-01431103101ADDAA106000091GA1001+999999999GF100991001001999999001001MA1999999101041MD1210061+9999REMSYN060AAXX  10214 47095 32960 02001 11132 21143 30104 40310 52006;EQDQ01  00002PRCP06
0233470950999992000011100004+38080+127820FM-12+013599999V0209999C000012200019N0130001N1-01231-01371103161ADDAA106000091AJ100019199999999GF102991001001999999001011IA1309IA2999-00609KA1120N-01391MA1999999101111MD1010071+9999REMSYN088AAXX  11004 47095 32963 20000 11123 21137 30111 40316 50007 80001 333 21139 3/106 42001;EQDQ01  00002PRCP06
0163470950999992000011103004+38080+127820FM-12+013599999V0201801N001012200019N0150001N1-00191-00961102881ADDAA106000091GF102991001001999999001011MA1999999100911MD1710191+9999REMSYN066AAXX  11034 47095 32965 21802 11019 21096 30091 40288 57019 80001;EQDQ01  00002PRCP06
0163470950999992000011106004+38080+127820FM-12+013599999V0200201N005719999999N0150001N1+00181-00761102671ADDAA106000091GF106991001001999999001051MA1999999100731MD1810181+9999REMSYN066AAXX  11064 47095 32965 60211 10018 21076 30073 40267 58018 80005;EQDQ01  00002PRCP06
0163470950999992000011109004+38080+127820FM-12+013599999V0203601N004119999999N0120001N1+00071-00651102671ADDAA106000091GF108991021001999999011061MA1999999100731MD1510001+9999REMSYN066AAXX  11094 47095 32962 83608 10007 21065 30073 40267 55000 82016;EQDQ01  00002PRCP06
0239470950999992000011112004+38080+127820FM-12+013599999V0203601N004119999999N0120001N1+00021-00551102691ADDAA106000091AJ100019199999999GF108991081001999999021001IA1309IA2999-00109KA1120M+00201MA1999999100741MD1210011+9999REMSYN094AAXX  11124 47095 32962 83608 10002 21055 30074 40269 52001 88020 333 10020 3/101 42001 55063;EQDQ01  00002PRCP06
0179470950999992000011115004+38080+127820FM-12+013599999V0200201N005719999999N0120001N1+00011-00521102691ADDAA106000091GF108991081001999999021999MA1999999100741MD1410001+9999REMSYN066AAXX  11154 47095 32962 80211 10001 21052 30074 40269 53000 8802/;EQDQ01+000032APCTENQ02  00002PRCP06
0163470950999992000011118004+38080+127820FM-12+013599999V0203601N005719999999N0120001N1+00001-00451102541ADDAA106000091GF107991061001999999021051MA1999999100591MD1710151+9999REMSYN066AAXX  11184 47095 32962 73611 10000 21045 30059 40254 57015 86025;EQDQ01  00002PRCP06
0163470950999992000011121004+38080+127820FM-12+013599999V0203601N006210120019N0120001N1+00091-00291102331ADDAA106000091GF108991051051012501021999MA1999999100391MD1710201+9999REMSYN066AAXX  11214 47095 32662 83612 10009 21029 30039 40233 57020 8552/;EQDQ01  00002PRCP06
0233470950999992000011200004+38080+127820FM-12+013599999V0203601N005710120019N0150001N1+00161-00251102351ADDAA106000091AJ100009199999999GF108991051051012501021999IA1309IA2999+00009KA1120N-00041MA1999999100421MD1210031+9999REMSYN088AAXX  12004 47095 32665 83611 10016 21025 30042 40235 52003 8552/ 333 21004 3/100 42000;EQDQ01  00002PRCP06
0161470950999992000011203004+38080+127820FM-12+013599999V0200201N005110075019N0150001N1+00281-00241102161ADDAY171031AY271031GF108991051051008001021999MA1999999100241MD1710181+9999MW1701REMSYN072AAXX  12034 47095 41565 80210 10028 21024 30024 40216 57018 77077 8552/;
0161470950999992000011206004+38080+127820FM-12+013599999V0203601N005710042019N0050001N1+00171+00041101931ADDAY171061AY271061GF108991061071004501021999MA1999999100001MD1710241+9999MW1681REMSYN072AAXX  12064 47095 41450 83611 10017 20004 30000 40193 57024 76877 8672/;
0161470950999992000011209004+38080+127820FM-12+013599999V0203601N003610042019N0050001N1+00151+00061101841ADDAY171031AY261031GF108991061071004501021999MA1999999099911MD1710091+9999MW1611REMSYN072AAXX  12094 47095 41450 83607 10015 20006 39991 40184 57009 76176 8672/;
0260470950999992000011212004+38080+127820FM-12+013599999V0203401N000510042019N0030001N1+00041+00021101801ADDAA112002091AJ100009199999999AY171061AY261061GF108991061071004501021999IA1309IA2999+00009KA1120M+00291MA1999999099871MD1510041+9999MW1711REMSYN112AAXX  12124 47095 11430 83401 10004 20002 39987 40180 55004 60022 77176 8672/ 333 10029 3/000 42000 55000 70015;
0161470950999992000011215004+38080+127820FM-12+013599999V0209999C000010042019N0030001N1+00031+00031101641ADDAY171031AY271031GF108991061071004501021999MA1999999099711MD1710161+9999MW1711REMSYN072AAXX  12154 47095 41430 80000 10003 20003 39971 40164 57016 77177 8672/;
0161470950999992000011218004+38080+127820FM-12+013599999V0209999C000010042019N0040001N1+00031+00031101561ADDAY171061AY271061GF108991061071004501021999MA1999999099631MD1710081+9999MW1711REMSYN072AAXX  12184 47095 41440 80000 10003 20003 39963 40156 57008 77177 8672/;
0161470950999992000011221004+38080+127820FM-12+013599999V0209999C000010042019N0050001N1+00021+00021101471ADDAY171031AY271031GF108991051071004501021999MA1999999099551MD1810081+9999MW1711REMSYN072AAXX  12214 47095 41450 80000 10002 20002 39955 40147 58008 77177 8572/;
0254470950999992000011300004+38080+127820FM-12+013599999V0209999C000010042019N0030001N1+00051+00041101511ADDAA112003091AJ100059199999999AY171061AY271061GF108991051071004501021999IA1279IA2999+00009KA1120N+00011MA1999999099581MD1310041+9999MW1711REMSYN106AAXX  13004 47095 11430 80000 10005 20004 39958 40151 53004 60032 77177 8572/ 333 20001 3/000 43005 70067;
0161470950999992000011303004+38080+127820FM-12+013599999V0202001N001510042019N0030001N1+00071+00021101521ADDAY171031AY271031GF108991051071004501021999MA1999999099601MD1310011+9999MW1711REMSYN072AAXX  13034 47095 41430 82003 10007 20002 39960 40152 53001 77177 8572/;
0161470950999992000011306004+38080+127820FM-12+013599999V0209999C000010042019N0040001N1+00021-00111101491ADDAY171061AY271061GF108991051071004501021999MA1999999099561MD1810041+9999MW1711REMSYN072AAXX  13064 47095 41440 80000 10002 21011 39956 40149 58004 77177 8572/;
0161470950999992000011309004+38080+127820FM-12+013599999V0202901N001010075019N0050001N1-00061-00321101671ADDAY171031AY221031GF107991071051008001001001MA1999999099731MD1210171+9999MW1101REMSYN072AAXX  13094 47095 41550 72902 11006 21032 39973 40167 52017 71072 87500;
0260470950999992000011312004+38080+127820FM-12+013599999V0203401N001510075019N0050001N1-00281-00511101891ADDAA112001091AJ100059199999999AY171061AY221061GF106991061051008001001001IA1279IA2999+00009KA1120M+00111MA1999999099941MD1210211+9999MW1101REMSYN112AAXX  13124 47095 11550 63403 11028 21051 39994 40189 52021 69992 71072 86500 333 10011 3/000 43005 55000 70057;
0191470950999992000011315004+38080+127820FM-12+013599999V0209999C000010075019N0100001N1-00331-00481101981ADDAA106000091AY121031AY221031GF106991061051008001001001MA1999999100021MD1310091+9999MW1101REMSYN072AAXX  13154 47095 31560 60000 11033 21048 30002 40198 53009 71022 86500;EQDQ01  00002PRCP06
0191470950999992000011318004+38080+127820FM-12+013599999V0203401N000510075019N0030001N1-00371-00541102091ADDAA106000091AY121061AY221061GF106991061051008001001001MA1999999100131MD1010101+9999MW1101REMSYN072AAXX  13184 47095 31530 63401 11037 21054 30013 40209 50010 71022 86500;EQDQ01  00002PRCP06
0195470950999992000011321004+38080+127820FM-12+013599999V0202301N001010075019N0030001N1-00391-00511102141ADDAA199000091AY121031AY221031GF107991071051008001001001MA1999999100171MD1210041+9999MW1101REMSYN076    AAXX  13214 47095 31530 72302 11039 21051 30017 40214 52004 71022 87500;EQDQ01  00002PRCP99
0224470950999992000011400004+38080+127820FM-12+013599999V0209999C000010042019N0030001N1-00331-00481102271ADDAA124000591AJ100059199999999GF108991061061004501011999IA1279IA2999+00009KA1120N-00411MA1999999100301MD1310131+9999REMSYN098    AAXX  14004 47095 32430 80000 11033 21048 30030 40227 53013 8661/ 333 21041 3/100 43005 70004;
0195470950999992000011403004+38080+127820FM-12+013599999V0209999C000010075019N0050001N1-00191-00531102301ADDAA199000091AY121031AY221031GF108991081061008001999999MA1999999100351MD1310041+9999MW1101REMSYN076    AAXX  14034 47095 32550 80000 11019 21053 30035 40230 53004 71022 886//;EQDQ01  00002PRCP99
0165470950999992000011406004+38080+127820FM-12+013599999V0200501N000510042019N0030001N1-00171-00351102241ADDAY171061AY221061GF108991081071004501999999MA1999999100291MD1810061+9999MW1701REMSYN076    AAXX  14064 47095 41430 80501 11017 21035 30029 40224 58006 77072 887//;
0165470950999992000011409004+38080+127820FM-12+013599999V0201801N000510075019N0030001N1-00201-00441102391ADDAY121031AY221031GF108991081071008001999999MA1999999100431MD1210141+9999MW1101REMSYN076    AAXX  14094 47095 41530 81801 11020 21044 30043 40239 52014 71022 887//;
0264470950999992000011412004+38080+127820FM-12+013599999V0202301N000510075019N0040001N1-00271-00491102561ADDAA112000791AJ100059199999999AY121061AY221061GF108991061061008001021999IA1279IA2999+00009KA1120M-00101MA1999999100591MD1210161+9999MW1101REMSYN116    AAXX  14124 47095 11540 82301 11027 21049 30059 40256 52016 69902 71022 8662/ 333 11010 3/100 43005 55000 70000;
0165470950999992000011415004+38080+127820FM-12+013599999V0209999C000010075019N0040001N1-00351-00561102581ADDAY121031AY221031GF108991061051008001021999MA1999999100611MD1210011+9999MW1101REMSYN076    AAXX  14154 47095 41540 80000 11035 21056 30061 40258 52001 71022 8652/;
0176470950999992000011418004+38080+127820FM-12+013599999V0200501N001010075019N0030001N1-00441-00531102691ADDAA199000021AY121061AY221061GF108991061051008001021999MA1999999100711MD1010101+9999MW1101REMSYN076    AAXX  14184 47095 31530 80502 11044 21053 30071 40269 50010 71022 8652/;
0195470950999992000011421004+38080+127820FM-12+013599999V0200501N001012200019N0030001N1-00861-00901102711ADDAA199000091AY111031AY211031GF102991021051008001001001MA1999999100691MD1810011+9999MW1101REMSYN076    AAXX  14214 47095 31530 20502 11086 21090 30069 40271 58001 71011 82500;EQDQ01  00002PRCP99
0252470950999992000011500004+38080+127820FM-12+013599999V0203601N000519999999N0060001N1-01011-01091102861ADDAA124000791AJ100059199999999AY111061AY211061GF106991001001999999001021IA1279IA2999-00209KA1120N-01141MA1999999100831MD1210141+9999MW1101REMSYN104    AAXX  15004 47095 31956 63601 11101 21109 30083 40286 52014 71011 80002 333 21114 3/102 43005 79999;
0195470950999992000011503004+38080+127820FM-12+013599999V0202001N000512200019N0080001N1-00371-00771102821ADDAA199000091AY101031AY201031GF102991001001999999001011MA1999999100841MD1310011+9999MW1101REMSYN076    AAXX  15034 47095 31958 22001 11037 21077 30084 40282 53001 71000 80001;EQDQ01  00002PRCP99
0183470950999992000011506004+38080+127820FM-12+013599999V0209999C000012200019N0100001N1-00011-00561102501ADDAA199000091GA1001+999999999GF100991001001999999001001MA1999999100561MD1710281+9999REMSYN070    AAXX  15064 47095 32960 00000 11001 21056 30056 40250 57028 80002;EQDQ01  00002PRCP99
0167470950999992000011509004+38080+127820FM-12+013599999V0209999C000012200019N0100001N1-00341-00601102571ADDAA199000091GF103991001001999999001011MA1999999100601MD1210041+9999REMSYN070    AAXX  15094 47095 32960 30000 11034 21060 30060 40257 52004 80001;EQDQ01  00002PRCP99
0243470950999992000011512004+38080+127820FM-12+013599999V0200201N001012200019N0100001N1-00661-00711102691ADDAA199000091AJ100039199999999GF102991001001999999001011IA1279IA2999-00109KA1120M+00031MA1999999100691MD1310091+9999REMSYN098    AAXX  15124 47095 32960 20202 11066 21071 30069 40269 53009 80001 333 10003 3/101 43003 55063;EQDQ01  00002PRCP99
0167470950999992000011515004+38080+127820FM-12+013599999V0209999C000019999999N0060001N1-00861-00921102671ADDAA199000091GF105991001001999999001021MA1999999100661MD1710031+9999REMSYN070    AAXX  15154 47095 32956 50000 11086 21092 30066 40267 57003 80002;EQDQ01  00002PRCP99
0195470950999992000011518004+38080+127820FM-12+013599999V0209999C000010360019N0040001N1-00821-00891102631ADDAA199000091AY121061AY221061GF108991041051008001011999MA1999999100611MD1710041+9999MW1101REMSYN076    AAXX  15184 47095 32540 80000 11082 21089 30061 40263 57004 71022 8451/;EQDQ01  00002PRCP99
0195470950999992000011521004+38080+127820FM-12+013599999V0209999C000010360019N0060001N1-00821-00891102561ADDAA199000091AY121031AY221031GF108991041051012501011999MA1999999100551MD1710061+9999MW1101REMSYN076    AAXX  15214 47095 32656 80000 11082 21089 30055 40256 57006 71022 8451/;EQDQ01  00002PRCP99
0265470950999992000011600004+38080+127820FM-12+013599999V0202501N000512200019N0060001N1-00861-00941102621ADDAA199000091AJ100039199999999AY101061AY201061GF101991001001999999001021IA1279IA2999-00309KA1120N-00931MA1999999100601MD1210051+9999MW1101REMSYN098    AAXX  16004 47095 32956 12501 11086 21094 30060 40262 52005 71000 80002 333 21093 3/103 43003;EQDQ01  00002PRCP99
0205470950999992000011603004+38080+127820FM-12+013599999V0209999C000012200019N0050001N1-00161-00711102441ADDAA199000091AY101031AY201031GA1001+999999999GF100991001001999999001001MA1999999100481MD1510121+9999MW1101REMSYN070    AAXX  16034 47095 32950 00000 11016 21071 30048 40244 55012 71000;EQDQ01  00002PRCP99
0177470950999992000011606004+38080+127820FM-12+013599999V0202301N000512200019N0100001N1+00231-00661102211ADDAA199000091GA1001+999999999GF100991001001999999001001MA1999999100291MD1710191+9999REMSYN064    AAXX  16064 47095 32960 02301 10023 21066 30029 40221 57019;EQDQ01  00002PRCP99
0167470950999992000011609004+38080+127820FM-12+013599999V0203601N001019999999N0150001N1-00351-00611102291ADDAA199000091GF105991001001999999001011MA1999999100321MD1010031+9999REMSYN070    AAXX  16094 47095 32965 53602 11035 21061 30032 40229 50003 80001;EQDQ01  00002PRCP99
0243470950999992000011612004+38080+127820FM-12+013599999V0209999C000012200019N0150001N1-00701-00801102341ADDAA199000091AJ100029199999999GF102991001001999999001011IA1279IA2999+00009KA1120M+00291MA1999999100341MD1810021+9999REMSYN098    AAXX  16124 47095 32965 20000 11070 21080 30034 40234 58002 80001 333 10029 3/100 43002 55076;EQDQ01  00002PRCP99
0177470950999992000011615004+38080+127820FM-12+013599999V0209999C000012200019N0120001N1-00851-00901102381ADDAA199000091GA1001+999999999GF100991001001999999001001MA1999999100371MD1310031+9999REMSYN064    AAXX  16154 47095 32962 00000 11085 21090 30037 40238 53003;EQDQ01  00002PRCP99
0205470950999992000011618004+38080+127820FM-12+013599999V0209999C000012200019N0060001N1-00971-01041102331ADDAA199000091AY101061AY201061GA1001+999999999GF100991001001999999001001MA1999999100321MD1710051+9999MW1101REMSYN070    AAXX  16184 47095 31956 00000 11097 21104 30032 40233 57005 71000;EQDQ01  00002PRCP99
0205470950999992000011621004+38080+127820FM-12+013599999V0209999C000012200019N0050001N1-01061-01151102261ADDAA199000091AY101031AY201031GA1001+999999999GF100991001001999999001001MA1999999100241MD1710081+9999MW1101REMSYN070    AAXX  16214 47095 31950 00000 11106 21115 30024 40226 57008 71000;EQDQ01  00002PRCP99
0265470950999992000011700004+38080+127820FM-12+013599999V0203401N000512200019N0080001N1-00981-01061102331ADDAA199000091AJ100029199999999AY111061AY201061GF102991021051008001001001IA1279IA2999-00409KA1120N-01101MA1999999100311MD1210081+9999MW1101REMSYN098    AAXX  17004 47095 31558 23401 11098 21106 30031 40233 52008 71010 82500 333 21110 3/104 43002;EQDQ01  00002PRCP99
0167470950999992000011703004+38080+127820FM-12+013599999V0209999C000012200019N0100001N1-00191-00461102211ADDAA199000091GF104991041051017501001001MA1999999100261MD1510061+9999REMSYN070    AAXX  17034 47095 32760 40000 11019 21046 30026 40221 55006 84500;EQDQ01  00002PRCP99
0167470950999992000011706004+38080+127820FM-12+013599999V0202901N000512200019N0200001N1+00241-00371101961ADDAA199000091GF102991021051017501001001MA1999999100051MD1710211+9999REMSYN070    AAXX  17064 47095 32770 22901 10024 21037 30005 40196 57021 82500;EQDQ01  00002PRCP99
0167470950999992000011709004+38080+127820FM-12+013599999V0209999C000012200019N0120001N1-00031-00331102131ADDAA199000091GF104991021051017501031001MA1999999100191MD1210151+9999REMSYN070    AAXX  17094 47095 32762 40000 11003 21033 30019 40213 52015 82530;EQDQ01  00002PRCP99
0281470950999992000011712004+38080+127820FM-12+013599999V0209999C000012200019N0060001N1-00481-00521102251ADDAA199000091AJ100019199999999AY101061AY201061GA1001+999999999GF100991001001999999001001IA1309IA2999+00009KA1120M+00251MA1999999100271MD1210081+9999MW1101REMSYN098    AAXX  17124 47095 31956 00700 11048 21052 30027 40225 52008 71000 333 10025 3/000 42001 55044;EQDQ01  00002PRCP99
0211470950999992000011715004+38080+127820FM-12+013599999V0209999C000019999999N0030001N1-00691-00741102281ADDAA199000091AY121031AY221031GF106991999001999999031001MA1999999100281MD1210011+9999MW1101REMSYN076    AAXX  17154 47095 31930 60000 11069 21074 30028 40228 52001 71022 80030;EQDQ01+000002SCOTLCQ02  00002PRCP99
0205470950999992000011721004+38080+127820FM-12+013599999V0209999C000012200019N0030001N1-00861-00921102221ADDAA199000091AY101031AY201031GA1001+999999999GF100991001001999999001001MA1999999100221MD1710101+9999MW1101REMSYN070    AAXX  17214 47095 31930 00000 11086 21092 30022 40222 57010 71000;EQDQ01  00002PRCP99
0265470950999992000011800004+38080+127820FM-12+013599999V0203201N000510120019N0030001N1-00761-00811102371ADDAA199000091AJ100019199999999AY121061AY221061GF107991071051012501001001IA1309IA2999-00309KA1120N-00951MA1999999100371MD1210151+9999MW1101REMSYN098    AAXX  18004 47095 31630 73201 11076 21081 30037 40237 52015 71022 87500 333 21095 3/103 42001;EQDQ01  00002PRCP99
0195470950999992000011803004+38080+127820FM-12+013599999V0203201N001012200019N0050001N1-00231-00601102201ADDAA199000091AY101031AY201031GF101991011051012501001001MA1999999100251MD1710121+9999MW1101REMSYN076    AAXX  18034 47095 31650 13202 11023 21060 30025 40220 57012 71000 81500;EQDQ01  00002PRCP99
0167470950999992000011806004+38080+127820FM-12+013599999V0203201N001012200019N0120001N1-00051-00721101991ADDAA199000091GF101991011051012501001001MA1999999100051MD1710201+9999REMSYN070    AAXX  18064 47095 32662 13202 11005 21072 30005 40199 57020 81500;EQDQ01  00002PRCP99
0177470950999992000011809004+38080+127820FM-12+013599999V0202701N002112200019N0180001N1-00111-01331102091ADDAA199000091GA1001+999999999GF100991001001999999001001MA1999999100141MD1210101+9999REMSYN064    AAXX  18094 47095 32968 02704 11011 21133 30014 40209 52010;EQDQ01  00002PRCP99
0253470950999992000011812004+38080+127820FM-12+013599999V0200701N001012200019N0180001N1-00661-01011102211ADDAA199000091AJ100019199999999GA1001+999999999GF100991001001999999001001IA1309IA2999-00109KA1120M+00121MA1999999100221MD1210081+9999REMSYN092    AAXX  18124 47095 32968 00702 11066 21101 30022 40221 52008 333 10012 3/101 42001 55071;EQDQ01  00002PRCP99
0167470950999992000011815004+38080+127820FM-12+013599999V0203601N000512200019N0180001N1-00981-01091102201ADDAA199000091GF101991011001999999031001MA1999999100191MD1510031+9999REMSYN070    AAXX  18154 47095 32968 13601 11098 21109 30019 40220 55003 81030;EQDQ01  00002PRCP99
0167470950999992000011818004+38080+127820FM-12+013599999V0209999C000012200019N0120001N1-01051-01171102051ADDAA199000091GF104991041051012501001001MA1999999100031MD1810161+9999REMSYN070    AAXX  18184 47095 32662 40000 11105 21117 30003 40205 58016 84500;EQDQ01  00002PRCP99
0167470950999992000011821004+38080+127820FM-12+013599999V0202701N001010120019N0100001N1-00861-01061101911ADDAA199000091GF107991071051012501001001MA1999999099911MD1710121+9999REMSYN070    AAXX  18214 47095 32660 72702 11086 21106 39991 40191 57012 87500;EQDQ01  00002PRCP99
0268470950999992000011900004+38080+127820FM-12+013599999V0209999C000012200019N0080001N1-00911-01011102021ADDAA112000791AJ100019199999999AY101061AY201061GA1001+999999999GF100991001001999999001001IA1309IA2999-00409KA1120N-01131MA1999999100021MD1210101+9999MW1101REMSYN104    AAXX  19004 47095 11958 00000 11091 21101 30002 40202 52010 69902 71000 333 21113 3/104 42001 70000;
0137470950999992000011903004+38080+127820FM-12+013599999V0202901N002610360019N0120001N1-00511-01191102021ADDGF106991031051012501041001MA1999999100041MD1310031+9999REMSYN070    AAXX  19034 47095 42662 62905 11051 21119 30004 40202 53003 83540;
0195470950999992000011909004+38080+127820FM-12+013599999V0202901N002110075019N0100001N1-00751-01381102261ADDAA199000091AY171031AY221031GF106991061061008001001001MA1999999100271MD1210241+9999MW1021REMSYN076    AAXX  19094 47095 32560 62904 11075 21138 30027 40226 52024 70272 86600;EQDQ01  00002PRCP99
0264470950999992000011912004+38080+127820FM-12+013599999V0202301N003110075019N0050001N1-00851-01301102481ADDAA112000791AJ100019199999999AY171061AY271061GF107991071071008001001001IA1309IA2999-00409KA1120M-00451MA1999999100471MD1210201+9999MW1711REMSYN116    AAXX  19124 47095 11550 72306 11085 21130 30047 40248 52020 69902 77177 87700 333 11045 3/104 42001 55011 79999;
0165470950999992000011915004+38080+127820FM-12+013599999V0202301N002110075019N0050001N1-00891-01351102551ADDAY171031AY271031GF107991071071008001001001MA1999999100531MD1210061+9999MW1701REMSYN076    AAXX  19154 47095 41550 72304 11089 21135 30053 40255 52006 77077 87700;
0161470950999992000011918004+38080+127820FM-12+013599999V0202501N002612200019N0120001N1-01031-01611102681ADDAY171061AY201061GF102991021051012501001001MA1999999100651MD1210121+9999MW1011REMSYN072AAXX  19184 47095 41662 22505 11103 21161 30065 40268 52012 70170 82500;
0133470950999992000011921004+38080+127820FM-12+013599999V0202301N002610120019N0150001N1-01161-01691102911ADDGF106991061051012501001001MA1999999100871MD1210221+9999REMSYN066AAXX  19214 47095 42665 62305 11116 21169 30087 40291 52022 86500;
0226470950999992000012000004+38080+127820FM-12+013599999V0202301N002612200019N0100001N1-01241-01781103181ADDAA112000791AJ100019199999999GF102991021051012501001001IA1309IA2999-00709KA1120N-01301MA1999999101131MD1210261+9999REMSYN100AAXX  20004 47095 12660 22305 11124 21178 30113 40318 52026 69902 82500 333 21130 3/107 42001 79999;
0173470950999992000012006004+38080+127820FM-12+013599999V0202901N002112200019N0180001N1-00761-01901103191ADDAA199000091GA1001+999999999GF100991001001999999001001MA1999999101181MD1710061+9999REMSYN060AAXX  20064 47095 32968 02904 11076 21190 30118 40319 57006;EQDQ01  00002PRCP99
0173470950999992000012009004+38080+127820FM-12+013599999V0202301N002112200019N0150001N1-00901-01821103401ADDAA199000091GA1001+999999999GF100991001001999999001001MA1999999101361MD1210191+9999REMSYN060AAXX  20094 47095 32965 02304 11090 21182 30136 40340 52019;EQDQ01  00002PRCP99
0242470950999992000012012004+38080+127820FM-12+013599999V0202701N000512200019N0180001N1-01281-01721103641ADDAA112000791AJ100029199999999GA1001+999999999GF100991001001999999001001IA1309IA2999-00709KA1120M-00741MA1999999101581MD1210211+9999REMSYN100AAXX  20124 47095 32968 02701 11128 21172 30158 40364 52021 69902 333 11074 3/107 42002 55085 70000;
0173470950999992000012015004+38080+127820FM-12+013599999V0203201N000512200019N0180001N1-01501-01751103771ADDAA199000091GA1001+999999999GF100991001001999999001001MA1999999101681MD1210101+9999REMSYN060AAXX  20154 47095 32968 03201 11150 21175 30168 40377 52010;EQDQ01  00002PRCP99
0173470950999992000012018004+38080+127820FM-12+013599999V0209999C000012200019N0180001N1-01641-01831103901ADDAA199000091GA1001+999999999GF100991001001999999001001MA1999999101801MD1210121+9999REMSYN060AAXX  20184 47095 32968 00000 11164 21183 30180 40390 52012;EQDQ01  00002PRCP99
0173470950999992000012021004+38080+127820FM-12+013599999V0209999C000012200019N0150001N1-01781-01951104011ADDAA199000091GA1001+999999999GF100991001001999999001001MA1999999101891MD1210091+9999REMSYN060AAXX  20214 47095 32965 00000 11178 21195 30189 40401 52009;EQDQ01  00002PRCP99
0243470950999992000012100004+38080+127820FM-12+013599999V0202501N001012200019N0100001N1-01661-01861104151ADDAA199000091AJ100029199999999GA1001+999999999GF100991001001999999001001IA1309IA2999-00909KA1120N-01851MA1999999102041MD1210151+9999REMSYN082AAXX  21004 47095 32960 02502 11166 21186 30204 40415 52015 333 21185 3/109 42002;EQDQ01  00002PRCP99
0173470950999992000012103004+38080+127820FM-12+013599999V0202901N001012200019N0120001N1-00951-01791104051ADDAA199000091GA1001+999999999GF100991001001999999001001MA1999999102001MD1510041+9999REMSYN060AAXX  21034 47095 32962 02902 11095 21179 30200 40405 55004;EQDQ01  00002PRCP99
0163470950999992000012106004+38080+127820FM-12+013599999V0200201N000512200019N0120001N1-00501-01791103841ADDAA199000091GF101991001001999999001011MA1999999101831MD1810171+9999REMSYN066AAXX  21064 47095 32962 10201 11050 21179 30183 40384 58017 80001;EQDQ01  00002PRCP99
0163470950999992000012109004+38080+127820FM-12+013599999V0203201N000512200019N0120001N1-00801-01541103971ADDAA199000091GF102991001001999999001011MA1999999101941MD1210101+9999REMSYN066AAXX  21094 47095 32962 23201 11080 21154 30194 40397 52010 80001;EQDQ01  00002PRCP99
0163470950999992000012115004+38080+127820FM-12+013599999V0209999C000019999999N0140001N1-01231-01431103851ADDAA199000091GF108991001001999999001061MA1999999101871MD1710041+9999REMSYN066AAXX  21154 47095 32964 80000 11123 21143 30187 40385 57004 80006;EQDQ01  00002PRCP99
0163470950999992000012118004+38080+127820FM-12+013599999V0202501N000519999999N0120001N1-01231-01451103831ADDAA199000091GF107991001001999999001061MA1999999101761MD1710101+9999REMSYN066AAXX  21184 47095 32962 72501 11123 21145 30176 40383 57010 80006;EQDQ01  00002PRCP99
0163470950999992000012121004+38080+127820FM-12+013599999V0209999C000019999999N0120001N1-01091-01371103701ADDAA199000091GF108991001001999999001081MA1999999101651MD1810111+9999REMSYN066AAXX  21214 47095 32962 80000 11109 21137 30165 40370 58011 80008;EQDQ01  00002PRCP99
0249470950999992000012200004+38080+127820FM-12+013599999V0201801N000512200019N0100001N1-00931-01311103621ADDAA199000091AJ100029199999999GA1001+999999999GF100991001001999999001001IA1309IA2999-00509KA1120N-01321MA1999999101581MD1710061+9999REMSYN088AAXX  22004 47095 32960 01801 11093 21131 30158 40362 57006 8801/ 333 21132 3/105 42002;EQDQ01  00002PRCP99
0163470950999992000012203004+38080+127820FM-12+013599999V0209999C000012200019N0150001N1-00371-01231103301ADDAA199000091GF104991001001999999001021MA1999999101311MD1710281+9999REMSYN066AAXX  22034 47095 32965 40000 11037 21123 30131 40330 57028 80002;EQDQ01  00002PRCP99
0163470950999992000012206004+38080+127820FM-12+013599999V0203401N000510360019N0120001N1-00061-01261102861ADDAA199000091GF108991011051017501011999MA1999999100911MD1710401+9999REMSYN066AAXX  22064 47095 32762 83401 11006 21126 30091 40286 57040 8151/;EQDQ01  00002PRCP99
0163470950999992000012209004+38080+127820FM-12+013599999V0209999C000010360019N0100001N1-00111-00911102811ADDAA199000091GF108991021051012501011999MA1999999100851MD1710061+9999REMSYN066AAXX  22094 47095 32660 80000 11011 21091 30085 40281 57006 8251/;EQDQ01  00002PRCP99
0260470950999992000012212004+38080+127820FM-12+013599999V0209999C000010042019N0020001N1-00221-00261102781ADDAA112000191AJ100029199999999AY171061AY271061GF108991061071004501021999IA1279IA2999-00109KA1120M+00031MA1999999100811MD1710041+9999MW1711REMSYN112AAXX  22124 47095 11420 80000 11022 21026 30081 40278 57004 69912 77177 8672/ 333 10003 3/101 43002 55015 70001;
0161470950999992000012215004+38080+127820FM-12+013599999V0203201N000510042019N0030001N1-00231-00271102601ADDAY171031AY271031GF107991061071004501011001MA1999999100631MD1710181+9999MW1711REMSYN072AAXX  22154 47095 41430 73201 11023 21027 30063 40260 57018 77177 86710;
0161470950999992000012218004+38080+127820FM-12+013599999V0203401N001010042019N0010001N1-00231-00271102471ADDAY171061AY271061GF108991061071004501021999MA1999999100501MD1710131+9999MW1711REMSYN072AAXX  22184 47095 41410 83402 11023 21027 30050 40247 57013 77177 8672/;
0161470950999992000012221004+38080+127820FM-12+013599999V0201801N001010042019N0015001N1-00231-00291102341ADDAY171031AY271031GF108991061071004501021999MA1999999100381MD1710131+9999MW1711REMSYN072AAXX  22214 47095 41415 81802 11023 21029 30038 40234 57013 77177 8672/;
0254470950999992000012300004+38080+127820FM-12+013599999V0209999C000010075019N0100001N1-00151-00261102461ADDAA112001091AJ100049199999999AY171061AY211061GF105991051061008001001001IA1279IA2999-00109KA1120N-00311MA1999999100501MD1210121+9999MW1011REMSYN106AAXX  23004 47095 11560 50000 11015 21026 30050 40246 52012 60012 70171 85600 333 21031 3/101 43004 70011;
0154470950999992000012303004+38080+127820FM-12+013599999V0202301N001012200019N0200001N1+00301-00111102341ADDAA199000021GA1001+999999999GF100991001001999999001001MA1999999100421MD1510081+9999REMSYN060AAXX  23034 47095 32970 02302 10030 21011 30042 40234 55008;
0144470950999992000012306004+38080+127820FM-12+013599999V0203401N003612200019N0220001N1+00501-00421102311ADDAA199000021GF101991011051999999001001MA1999999100401MD1010021+9999REMSYN066AAXX  23064 47095 32972 13407 10050 21042 30040 40231 50002 81500;
0133470950999992000012309004+38080+127820FM-12+013599999V0202001N001012200019N0200001N1+00221-00511102401ADDGF101991011051012501001001MA1999999100471MD1010071+9999REMSYN066AAXX  23094 47095 42670 12002 10022 21051 30047 40240 50007 81500;
0232470950999992000012312004+38080+127820FM-12+013599999V0209999C000012200019N0180001N1-00251-00481102631ADDAA112000791AJ100009199999999GF102991001001999999001021IA1309IA2999+00009KA1120M+00571MA1999999100661MD1210191+9999REMSYN106AAXX  23124 47095 12968 20000 11025 21048 30066 40263 52019 69902 80002 333 10057 3/000 42000 55070 70010;
0133470950999992000012315004+38080+127820FM-12+013599999V0209999C000012200019N0150001N1-00411-00571102691ADDGF102991001001999999001021MA1999999100711MD1210051+9999REMSYN066AAXX  23154 47095 42965 20000 11041 21057 30071 40269 52005 80002;
0173470950999992000012318004+38080+127820FM-12+013599999V0202901N000512200019N0100001N1-00561-00621102801ADDAA199000091GA1001+999999999GF100991001001999999001001MA1999999100811MD1210101+9999REMSYN060AAXX  23184 47095 32960 02901 11056 21062 30081 40280 52010;EQDQ01  00002PRCP99
0163470950999992000012321004+38080+127820FM-12+013599999V0200201N000512200019N0100001N1-00821-00901102961ADDAA199000091GF104991041051017501001001MA1999999100951MD1210141+9999REMSYN066AAXX  23214 47095 32760 40201 11082 21090 30095 40296 52014 84500;EQDQ01  00002PRCP99
0261470950999992000012400004+38080+127820FM-12+013599999V0209999C000012200019N0060001N1-00681-00831103061ADDAA199000091AJ100009199999999AY111061AY211061GF102991021051012501001001IA1309IA2999-00409KA1120N-00891MA1999999101051MD1210111+9999MW1101REMSYN094AAXX  24004 47095 32656 20000 11068 21083 30105 40306 52011 71011 82500 333 21089 3/104 42000;EQDQ01  00002PRCP99
0191470950999992000012403004+38080+127820FM-12+013599999V0209999C000012200019N0060001N1-00221-00781103031ADDAA199000091AY111031AY211031GF104991041051012501001001MA1999999101061MD1310011+9999MW1101REMSYN072AAXX  24034 47095 31656 40000 11022 21078 30106 40303 53001 71011 84500;EQDQ01  00002PRCP99
0163470950999992000012406004+38080+127820FM-12+013599999V0202901N000512200019N0100001N1-00031-00771102841ADDAA199000091GF101991001001999999001011MA1999999100881MD1710181+9999REMSYN066AAXX  24064 47095 32960 12901 11003 21077 30088 40284 57018 80001;EQDQ01  00002PRCP99
0163470950999992000012409004+38080+127820FM-12+013599999V0209999C000019999999N0100001N1-00341-01151102981ADDAA199000091GF105991001001999999001051MA1999999101001MD1210121+9999REMSYN066AAXX  24094 47095 32960 50000 11034 21115 30100 40298 52012 80005;EQDQ01  00002PRCP99
0239470950999992000012412004+38080+127820FM-12+013599999V0200201N002112200019N0100001N1-00621-01261103061ADDAA199000091AJ100009199999999GF102991021051012501001001IA1259IA2999-00209KA1120M+00031MA1999999101061MD1210061+9999REMSYN094AAXX  24124 47095 32660 20204 11062 21126 30106 40306 52006 82500 333 10003 3/102 41000 55055;EQDQ01  00002PRCP99
0173470950999992000012415004+38080+127820FM-12+013599999V0200701N001012200019N0150001N1-00961-01271103151ADDAA199000091GA1001+999999999GF100991001001999999001001MA1999999101121MD1310061+9999REMSYN060AAXX  24154 47095 32965 00702 11096 21127 30112 40315 53006;EQDQ01  00002PRCP99
0173470950999992000012418004+38080+127820FM-12+013599999V0200501N001012200019N0140001N1-01181-01361103211ADDAA199000091GA1001+999999999GF100991001001999999001001MA1999999101161MD1210041+9999REMSYN060AAXX  24184 47095 32964 00502 11118 21136 30116 40321 52004;EQDQ01  00002PRCP99
0173470950999992000012421004+38080+127820FM-12+013599999V0201101N000512200019N0120001N1-01331-01491103251ADDAA199000091GA1001+999999999GF100991001001999999001001MA1999999101191MD1210031+9999REMSYN060AAXX  24214 47095 32962 01101 11133 21149 30119 40325 52003;EQDQ01  00002PRCP99
0243470950999992000012500004+38080+127820FM-12+013599999V0209999C000012200019N0100001N1-01331-01521103371ADDAA199000091AJ100009199999999GA1001+999999999GF100991001001999999001001IA1259IA2999-00809KA1120N-01521MA1999999101311MD1210121+9999REMSYN082AAXX  25004 47095 32960 00000 11133 21152 30131 40337 52012 333 21152 3/108 41000;EQDQ01  00002PRCP99
0173470950999992000012503004+38080+127820FM-12+013599999V0203601N002112200019N0100001N1-00761-01641103251ADDAA199000091GA1001+999999999GF100991001001999999001001MA1999999101241MD1510071+9999REMSYN060AAXX  25034 47095 32960 03604 11076 21164 30124 40325 55007;EQDQ01  00002PRCP99
0173470950999992000012506004+38080+127820FM-12+013599999V0200201N000512200019N0140001N1-00331-01621102971ADDAA199000091GA1001+999999999GF100991001001999999001001MA1999999100991MD1710241+9999REMSYN060AAXX  25064 47095 32964 00201 11033 21162 30099 40297 57024;EQDQ01  00002PRCP99
0173470950999992000012509004+38080+127820FM-12+013599999V0203201N001012200019N0180001N1-00741-01891103111ADDAA199000091GA1001+999999999GF100991001001999999001001MA1999999101101MD1010111+9999REMSYN060AAXX  25094 47095 32968 03202 11074 21189 30110 40311 50011;EQDQ01  00002PRCP99
0232470950999992000012512004+38080+127820FM-12+013599999V0203201N001012200019N0180001N1-01121-01681103241ADDAA199000091GA1001+999999999GF100991001001999999001001IA1259IA2999-00609KA1120M-00281MA1999999101201MD1210101+9999REMSYN088AAXX  25124 47095 32968 03202 11112 21168 30120 40324 52010 333 11028 3/106 41/// 55081;EQDQ01  00002PRCP99
0189470950999992000012515004+38080+127820FM-12+013599999V0209999C000012200019N0150001N1-01371-01751103261ADDAA199000091GA1001+999999999GF100991001001999999001001MA1999999101201MD1810021+9999REMSYN060AAXX  25154 47095 32965 00000 11137 21175 30120 40326 58000;EQDQ01+000002APC3  Q02  00002PRCP99
0173470950999992000012518004+38080+127820FM-12+013599999V0209999C000012200019N0150001N1-01471-01751103221ADDAA199000091GA1001+999999999GF100991001001999999001001MA1999999101151MD1710041+9999REMSYN060AAXX  25184 47095 32965 00000 11147 21175 30115 40322 57004;EQDQ01  00002PRCP99
0173470950999992000012521004+38080+127820FM-12+013599999V0209999C000012200019N0180001N1-01491-01741103151ADDAA199000091GA1001+999999999GF100991001001999999001001MA1999999101081MD1810071+9999REMSYN060AAXX  25214 47095 32968 00000 11149 21174 30108 40315 58007;EQDQ01  00002PRCP99
0226470950999992000012600004+38080+127820FM-12+013599999V0200701N000512200019N0180001N1-01391-01701103241ADDAA199000091GA1001+999999999GF100991001001999999001001IA1259IA2999-01009KA1120N-01641MA1999999101181MD1210101+9999REMSYN082AAXX  26004 47095 32968 00701 11139 21170 30118 40324 52010 333 21164 3/110 41///;EQDQ01  00002PRCP99
0173470950999992000012603004+38080+127820FM-12+013599999V0200201N001012200019N0200001N1-00841-01841103121ADDAA199000091GA1001+999999999GF100991001001999999001001MA1999999101101MD1310071+9999REMSYN060AAXX  26034 47095 32970 00202 11084 21184 30110 40312 53007;EQDQ01  00002PRCP99
0173470950999992000012606004+38080+127820FM-12+013599999V0202901N002112200019N0200001N1-00621-01761102921ADDAA199000091GA1001+999999999GF100991001001999999001001MA1999999100921MD1710181+9999REMSYN060AAXX  26064 47095 32970 02904 11062 21176 30092 40292 57018;EQDQ01  00002PRCP99
0173470950999992000012609004+38080+127820FM-12+013599999V0203601N002612200019N0150001N1-00861-01591103061ADDAA199000091GA1001+999999999GF100991001001999999001001MA1999999101041MD1210121+9999REMSYN060AAXX  26094 47095 32965 03605 11086 21159 30104 40306 52012;EQDQ01  00002PRCP99
0249470950999992000012612004+38080+127820FM-12+013599999V0200201N001512200019N0150001N1-01181-01561103221ADDAA199000091AJ100009199999999GA1001+999999999GF100991001001999999001001IA1259IA2999-00709KA1120M-00591MA1999999101171MD1210131+9999REMSYN088AAXX  26124 47095 32965 00203 11118 21156 30117 40322 52013 333 11059 3/107 41000 55091;EQDQ01  00002PRCP99
0173470950999992000012615004+38080+127820FM-12+013599999V0200501N001012200019N0150001N1-01341-01671103241ADDAA199000091GA1001+999999999GF100991001001999999001001MA1999999101181MD1310011+9999REMSYN060AAXX  26154 47095 32965 00502 11134 21167 30118 40324 53001;EQDQ01  00002PRCP99
0173470950999992000012618004+38080+127820FM-12+013599999V0209999C000012200019N0200001N1-01561-01731103371ADDAA199000091GA1001+999999999GF100991001001999999001001MA1999999101281MD1210111+9999REMSYN060AAXX  26184 47095 32970 00000 11156 21173 30128 40337 52011;EQDQ01  00002PRCP99
0173470950999992000012621004+38080+127820FM-12+013599999V0209999C000012200019N0200001N1-01641-01811103421ADDAA199000091GA1001+999999999GF100991001001999999001001MA1999999101331MD1210051+9999REMSYN060AAXX  26214 47095 32970 00000 11164 21181 30133 40342 52005;EQDQ01  00002PRCP99
0226470950999992000012700004+38080+127820FM-12+013599999V0209999C000012200019N0150001N1-01441-01701103511ADDAA199000091GA1001+999999999GF100991001001999999001001IA1259IA2999-01109KA1120N-01741MA1999999101431MD1210101+9999REMSYN082AAXX  27004 47095 32965 00000 11144 21170 30143 40351 52010 333 21174 3/111 41///;EQDQ01  00002PRCP99
0173470950999992000012703004+38080+127820FM-12+013599999V0202901N000512200019N0120001N1-00561-01461103341ADDAA199000091GA1001+999999999GF100991001001999999001001MA1999999101341MD1510091+9999REMSYN060AAXX  27034 47095 32962 02901 11056 21146 30134 40334 55009;EQDQ01  00002PRCP99
0173470950999992000012706004+38080+127820FM-12+013599999V0203601N001512200019N0150001N1-00211-01481103171ADDAA199000091GA1001+999999999GF100991001001999999001001MA1999999101191MD1710151+9999REMSYN060AAXX  27064 47095 32965 03603 11021 21148 30119 40317 57015;EQDQ01  00002PRCP99
0173470950999992000012709004+38080+127820FM-12+013599999V0209999C000012200019N0150001N1-00501-01721103271ADDAA199000091GA1001+999999999GF100991001001999999001001MA1999999101271MD1210071+9999REMSYN060AAXX  27094 47095 32965 00000 11050 21172 30127 40327 52007;EQDQ01  00002PRCP99
0173470950999992000012715004+38080+127820FM-12+013599999V0200201N000512200019N0150001N1-01321-01551103471ADDAA199000091GA1001+999999999GF100991001001999999001001MA1999999101401MD1210051+9999REMSYN060AAXX  27154 47095 32965 00201 11132 21155 30140 40347 52005;EQDQ01  00002PRCP99
0173470950999992000012718004+38080+127820FM-12+013599999V0209999C000012200019N0180001N1-01451-01631103511ADDAA199000091GA1001+999999999GF100991001001999999001001MA1999999101441MD1010031+9999REMSYN060AAXX  27184 47095 32968 00000 11145 21163 30144 40351 50003;EQDQ01  00002PRCP99
0131470950999992000012721004+38080+127820FM-12+013599999V0209999C000019999999N9999999N1-01591-01741103531ADDAA199000091MA1999999101441MD1010011+9999REMSYN060AAXX  27214 47095 3//// /0000 11159 21174 30144 40353 50001;EQDQ01  00002PRCP99
0226470950999992000012800004+38080+127820FM-12+013599999V0209999C000012200019N0120001N1-01411-01611103631ADDAA199000091GA1001+999999999GF100991001001999999001001IA1259IA2999-01109KA1120N-01661MA1999999101561MD1210111+9999REMSYN082AAXX  28004 47095 32962 00000 11141 21161 30156 40363 52011 333 21166 3/111 41///;EQDQ01  00002PRCP99
0173470950999992000012803004+38080+127820FM-12+013599999V0201401N000512200019N0140001N1-00401-01411103471ADDAA199000091GA1001+999999999GF100991001001999999001001MA1999999101481MD1310081+9999REMSYN060AAXX  28034 47095 32964 01401 11040 21141 30148 40347 53008;EQDQ01  00002PRCP99
0173470950999992000012806004+38080+127820FM-12+013599999V0202901N001512200019N0140001N1+00081-01431103241ADDAA199000091GA1001+999999999GF100991001001999999001001MA1999999101291MD1710191+9999REMSYN060AAXX  28064 47095 32964 02903 10008 21143 30129 40324 57019;EQDQ01  00002PRCP99
0173470950999992000012809004+38080+127820FM-12+013599999V0209999C000012200019N0150001N1-00251-01281103351ADDAA199000091GA1001+999999999GF100991001001999999001001MA1999999101371MD1210081+9999REMSYN060AAXX  28094 47095 32965 00000 11025 21128 30137 40335 52008;EQDQ01  00002PRCP99
0232470950999992000012812004+38080+127820FM-12+013599999V0200201N001012200019N0150001N1-00891-01171103511ADDAA199000091GA1001+999999999GF100991001001999999001001IA1259IA2999-00409KA1120M+00101MA1999999101471MD1210111+9999REMSYN088AAXX  28124 47095 32965 00202 11089 21117 30147 40351 52011 333 10010 3/104 41/// 55092;EQDQ01  00002PRCP99
0173470950999992000012815004+38080+127820FM-12+013599999V0200201N000512200019N0150001N1-01091-01301103481ADDAA199000091GA1001+999999999GF100991001001999999001001MA1999999101431MD1510041+9999REMSYN060AAXX  28154 47095 32965 00201 11109 21130 30143 40348 55004;EQDQ01  00002PRCP99
0173470950999992000012818004+38080+127820FM-12+013599999V0209999C000012200019N0120001N1-01281-01411103511ADDAA199000091GA1001+999999999GF100991001001999999001001MA1999999101441MD1010011+9999REMSYN060AAXX  28184 47095 32962 00000 11128 21141 30144 40351 50001;EQDQ01  00002PRCP99
0173470950999992000012821004+38080+127820FM-12+013599999V0209999C000012200019N0120001N1-01411-01551103501ADDAA199000091GA1001+999999999GF100991001001999999001001MA1999999101431MD1210011+9999REMSYN060AAXX  28214 47095 32962 02700 11141 21155 30143 40350 52001;EQDQ01  00002PRCP99
0216470950999992000012900004+38080+127820FM-12+013599999V0201601N000510120019N0100001N1-01071-01241103541ADDAA199000091GF105991051061012501001001IA1259IA2999-00709KA1120N-01441MA1999999101491MD1210061+9999REMSYN088AAXX  29004 47095 32660 51601 11107 21124 30149 40354 52006 85600 333 21144 3/107 41///;EQDQ01  00002PRCP99
0163470950999992000012903004+38080+127820FM-12+013599999V0209999C000019999999N0130001N1-00151-00821103331ADDAA199000091GF106991001001999999001051MA1999999101351MD1710141+9999REMSYN066AAXX  29034 47095 32963 60000 11015 21082 30135 40333 57014 80005;EQDQ01  00002PRCP99
0179470950999992000012906004+38080+127820FM-12+013599999V0202001N001519999999N0140001N1+00161-00671103071ADDAA199000091GF106991001001999999001051MA1999999101131MD1710231+9999REMSYN066AAXX  29064 47095 32664 62003 10016 21067 30113 40307 57023 80005;EQDQ01+012502SCOLCBQ02  00002PRCP99
0163470950999992000012909004+38080+127820FM-12+013599999V0202301N002110120019N0130001N1-00021-00641103121ADDAA199000091GF105991051051012501001001MA1999999101161MD1210031+9999REMSYN066AAXX  29094 47095 32663 52304 11002 21064 30116 40312 52003 85500;EQDQ01  00002PRCP99
0232470950999992000012912004+38080+127820FM-12+013599999V0202001N001519999999N0130001N1-00141-00561103151ADDAA112000791AJ100009199999999GF106991061051999999001001IA1259IA2999-00209KA1120M+00181MA1999999101181MD1210021+9999REMSYN106AAXX  29124 47095 32963 62003 11014 21056 30118 40315 52002 69902 86500 333 10018 3/102 41000 55026 79999;
0163470950999992000012915004+38080+127820FM-12+013599999V0202001N001510120019N0130001N1-00081-00431103031ADDAA199000091GF107991071051012501001001MA1999999101061MD1710111+9999REMSYN066AAXX  29154 47095 32663 72003 11008 21043 30106 40303 57011 87500;EQDQ01  00002PRCP99
0133470950999992000012918004+38080+127820FM-12+013599999V0202001N004110120019N0100001N1-00031-00341102871ADDGF107991071051012501001001MA1999999100911MD1710151+9999REMSYN066AAXX  29184 47095 42660 72008 11003 21034 30091 40287 57015 87500;
0161470950999992000012921004+38080+127820FM-12+013599999V0202001N004610360019N0060001N1-00241-00521102881ADDAY171031AY271031GF107991031061008001021001MA1999999100911MD1810011+9999MW1101REMSYN072AAXX  29214 47095 41556 72009 11024 21052 30091 40288 58001 71077 83620;
0237470950999992000013000004+38080+127820FM-12+013599999V0202501N004112200019N0120001N1-00551-01301103261ADDAA112000791AY171061AY201061GF102991021051012501001001IA1259IA2999-00509KA1120N-00621MA1999999101261MD1210351+9999MW1011REMSYN106AAXX  30004 47095 11662 22508 11055 21130 30126 40326 52035 69902 70170 82500 333 21062 3/105 41/// 79999;
0163470950999992000013003004+38080+127820FM-12+013599999V0202701N003612200019N0150001N1-00471-01471103381ADDAA199000091GF102991021051999999001001MA1999999101381MD1310121+9999REMSYN066AAXX  30034 47095 32965 22707 11047 21147 30138 40338 53012 82500;EQDQ01  00002PRCP99
0163470950999992000013006004+38080+127820FM-12+013599999V0203201N004112200019N0150001N1-00351-01311103281ADDAA199000091GF102991021051999999001001MA1999999101291MD1810091+9999REMSYN066AAXX  30064 47095 32965 23208 11035 21131 30129 40328 58009 82500;EQDQ01  00002PRCP99
0173470950999992000013009004+38080+127820FM-12+013599999V0202901N002612200019N0150001N1-00591-01411103481ADDAA199000091GA1001+999999999GF100991001001999999001001MA1999999101471MD1210181+9999REMSYN060AAXX  30094 47095 32965 02905 11059 21141 30147 40348 52018;EQDQ01  00002PRCP99
0219470950999992000013012004+38080+127820FM-12+013599999V0202701N003112200019N0150001N1-00771-01511103661ADDAA124000791GA1001+999999999GF100991001001999999001001IA1259IA2999-00509KA1120M-00031MA1999999101631MD1210161+9999REMSYN094AAXX  30124 47095 32965 02706 11077 21151 30163 40366 52016 333 11003 3/105 41/// 55084 79999;
0173470950999992000013015004+38080+127820FM-12+013599999V0202301N002612200019N0150001N1-00971-01561103761ADDAA199000091GA1001+999999999GF100991001001999999001001MA1999999101721MD1210081+9999REMSYN060AAXX  30154 47095 32965 02305 11097 21156 30172 40376 52008;EQDQ01  00002PRCP99
0173470950999992000013018004+38080+127820FM-12+013599999V0202001N001012200019N0150001N1-01151-01591103791ADDAA199000091GA1001+999999999GF100991001001999999001001MA1999999101731MD1210021+9999REMSYN060AAXX  30184 47095 32965 02002 11115 21159 30173 40379 52002;EQDQ01  00002PRCP99
0173470950999992000013021004+38080+127820FM-12+013599999V0202301N001512200019N0150001N1-01291-01791103771ADDAA199000091GA1001+999999999GF100991001001999999001001MA1999999101701MD1810031+9999REMSYN060AAXX  30214 47095 32965 02303 11129 21179 30170 40377 58003;EQDQ01  00002PRCP99
0243470950999992000013100004+38080+127820FM-12+013599999V0202001N001012200019N0180001N1-01171-01821103881ADDAA199000091AJ100009199999999GA1001+999999999GF100991001001999999001001IA1259IA2999-01009KA1120N-01381MA1999999101821MD1210121+9999REMSYN082AAXX  31004 47095 32968 02002 11117 21182 30182 40388 52012 333 21138 3/110 41000;EQDQ01  00002PRCP99
0173470950999992000013103004+38080+127820FM-12+013599999V0200901N000512200019N0180001N1-00791-01821103871ADDAA199000091GA1001+999999999GF100991001001999999001001MA1999999101811MD1610011+9999REMSYN060AAXX  31034 47095 32968 00901 11079 21182 30181 40387 56001;EQDQ01  00002PRCP99
0173470950999992000013106004+38080+127820FM-12+013599999V0203201N001512200019N0180001N1-00631-01831103621ADDAA199000091GA1001+999999999GF100991001001999999001001MA1999999101611MD1710211+9999REMSYN060AAXX  31064 47095 32968 03203 11063 21183 30161 40362 57021;EQDQ01  00002PRCP99
0173470950999992000013109004+38080+127820FM-12+013599999V0203401N001012200019N0150001N1-00861-01761103701ADDAA199000091GA1001+999999999GF100991001001999999001001MA1999999101671MD1210061+9999REMSYN060AAXX  31094 47095 32965 03402 11086 21176 30167 40370 52006;EQDQ01  00002PRCP99
0232470950999992000013112004+38080+127820FM-12+013599999V0209999C000012200019N0180001N1-01211-01601103821ADDAA199000091GA1001+999999999GF100991001001999999001001IA1259IA2999-00709KA1120M-00601MA1999999101751MD1210091+9999REMSYN088AAXX  31124 47095 32968 00000 11121 21160 30175 40382 52009 333 11060 3/107 41/// 55093;EQDQ01  00002PRCP99
0173470950999992000013115004+38080+127820FM-12+013599999V0209999C000012200019N0150001N1-01431-01671103801ADDAA199000091GA1001+999999999GF100991001001999999001001MA1999999101721MD1610031+9999REMSYN060AAXX  31154 47095 32965 00000 11143 21167 30172 40380 56003;EQDQ01  00002PRCP99
0173470950999992000013118004+38080+127820FM-12+013599999V0209999C000012200019N0150001N1-01651-01821103721ADDAA199000091GA1001+999999999GF100991001001999999001001MA1999999101631MD1710091+9999REMSYN060AAXX  31184 47095 32965 00000 11165 21182 30163 40372 57009;EQDQ01  00002PRCP99
0173470950999992000013121004+38080+127820FM-12+013599999V0209999C000012200019N0150001N1-01761-01941103681ADDAA199000091GA1001+999999999GF100991001001999999001001MA1999999101581MD1710051+9999REMSYN060AAXX  31214 47095 32965 00000 11176 21194 30158 40368 57005;EQDQ01  00002PRCP99
0226470950999992000020100004+38080+127820FM-12+013599999V0209999C000012200019N0180001N1-01541-01761103601ADDAA199000091GA1001+999999999GF100991001001999999001001IA1259IA2999-01109KA1120N-01811MA1999999101521MD1710061+9999REMSYN082AAXX  01004 47095 32968 00000 11154 21176 30152 40360 57006 333 21181 3/111 41///;EQDQ01  00002PRCP99
0163470950999992000020103004+38080+127820FM-12+013599999V0202901N001012200019N0180001N1-00701-01521103411ADDAA199000091GF104991001001999999001021MA1999999101401MD1510121+9999REMSYN066AAXX  01034 47095 32968 42902 11070 21152 30140 40341 55012 80002;EQDQ01  00002PRCP99
0163470950999992000020106004+38080+127820FM-12+013599999V0201801N001519999999N0180001N1-00321-01691103121ADDAA199000091GF105991001001999999001021MA1999999101141MD1710261+9999REMSYN066AAXX  01064 47095 32968 51803 11032 21169 30114 40312 57026 80002;EQDQ01  00002PRCP99
0163470950999992000020109004+38080+127820FM-12+013599999V0202301N001012200019N0170001N1-00541-01711103081ADDAA199000091GF103991011051999999031011MA1999999101081MD1710051+9999REMSYN066AAXX  01094 47095 32967 32302 11054 21171 30108 40308 57005 81531;EQDQ01  00002PRCP99
0249470950999992000020112004+38080+127820FM-12+013599999V0200501N000512200019N0150001N1-01101-01541103221ADDAA199000091AJ100009199999999GA1001+999999999GF100991001001999999001001IA1259IA2999-00709KA1120M-00311MA1999999101171MD1210091+9999REMSYN088AAXX  01124 47095 32965 00501 11110 21154 30117 40322 52009 333 11031 3/107 41000 55077;EQDQ01  00002PRCP99
0173470950999992000020115004+38080+127820FM-12+013599999V0200201N001012200019N0150001N1-01321-01571103211ADDAA199000091GA1001+999999999GF100991001001999999001001MA1999999101151MD1710021+9999REMSYN060AAXX  01154 47095 32965 00202 11132 21157 30115 40321 57002;EQDQ01  00002PRCP99
0173470950999992000020118004+38080+127820FM-12+013599999V0209999C000012200019N0180001N1-01491-01681103261ADDAA199000091GA1001+999999999GF100991001001999999001001MA1999999101181MD1010031+9999REMSYN060AAXX  01184 47095 32968 03600 11149 21168 30118 40326 50003;EQDQ01  00002PRCP99
0189470950999992000020121004+38080+127820FM-12+013599999V0209999C000012200019N0140001N1-01581-01721103271ADDAA199000091GA1001+999999999GF100991001001999999001001MA1999999101181MD1210011+9999REMSYN060AAXX  01214 47095 32964 00000 11158 21172 30118 40327 52000;EQDQ01+000002APC3  Q02  00002PRCP99
0226470950999992000020200004+38080+127820FM-12+013599999V0209999C000012200019N0150001N1-01441-01661103371ADDAA199000091GA1001+999999999GF100991001001999999001001IA1259IA2999-01109KA1120N-01701MA1999999101301MD1010111+9999REMSYN082AAXX  02004 47095 32965 00000 11144 21166 30130 40337 50011 333 21170 3/111 41///;EQDQ01  00002PRCP99
0189470950999992000020203004+38080+127820FM-12+013599999V0200501N000512200019N0180001N1-00312-01411103261ADDAA199000091GA1001+999999999GF100991001001999999001001MA1999999101271MD1710021+9999REMSYN060AAXX  02034 47095 32968 00501 11031 21141 30127 40326 57002;EQDQ01-000313ATOT  Q02  00002PRCP99
0163470950999992000020206004+38080+127820FM-12+013599999V0202001N000512200019N0180001N1-00021-01431103061ADDAA199000091GF103991001001999999001011MA1999999101101MD1710171+9999REMSYN066AAXX  02064 47095 32968 32001 11002 21143 30110 40306 57017 80001;EQDQ01  00002PRCP99
0173470950999992000020209004+38080+127820FM-12+013599999V0203601N001512200019N0120001N1-00351-01091103011ADDAA199000091GA1001+999999999GF100991001001999999001001MA1999999101031MD1710081+9999REMSYN060AAXX  02094 47095 32962 03603 11035 21109 30103 40301 57008;EQDQ01  00002PRCP99
0232470950999992000020212004+38080+127820FM-12+013599999V0203601N000512200019N0120001N1-00841-01121103081ADDAA199000091GA1001+999999999GF100991001001999999001001IA1259IA2999-00409KA1120M+00001MA1999999101061MD1010031+9999REMSYN088AAXX  02124 47095 32962 03601 11084 21112 30106 40308 50003 333 10000 3/104 41/// 55091;EQDQ01  00002PRCP99
0163470950999992000020215004+38080+127820FM-12+013599999V0200201N001012200019N0120001N1-01011-01151103101ADDAA199000091GF102991001001999999001011MA1999999101061MD1310011+9999REMSYN066AAXX  02154 47095 32962 20202 11101 21115 30106 40310 53001 80001;EQDQ01  00002PRCP99
0163470950999992000020218004+38080+127820FM-12+013599999V0200701N000519999999N0120001N1-00881-01061103061ADDAA199000091GF108991001001999999001051MA1999999101041MD1710031+9999REMSYN066AAXX  02184 47095 32962 80701 11088 21106 30104 40306 57003 80005;EQDQ01  00002PRCP99
0161470950999992000020221004+38080+127820FM-12+013599999V0209999C000010360019N0100001N1-00851-01021102941ADDAY171031AY271031GF108991041071008001021999MA1999999100921MD1710121+9999MW1701REMSYN072AAXX  02214 47095 41560 80000 11085 21102 30092 40294 57012 77077 8472/;
0254470950999992000020300004+38080+127820FM-12+013599999V0209999C000010042019N0050001N1-00711-00921102921ADDAA112000791AJ100009199999999AY171061AY271061GF108991061071004501021999IA1259IA2999-00509KA1120N-01081MA1999999100921MD1310011+9999MW1701REMSYN106AAXX  03004 47095 11450 80000 11071 21092 30092 40292 53001 69902 77077 8672/ 333 21108 3/105 41000 79999;
0161470950999992000020303004+38080+127820FM-12+013599999V0202001N001510360019N0050001N1-00171-00651102771ADDAY171031AY271031GF106991031051012501011001MA1999999100801MD1710111+9999MW1221REMSYN072AAXX  03034 47095 41650 62003 11017 21065 30080 40277 57011 72277 83510;
0161470950999992000020306004+38080+127820FM-12+013599999V0202501N002110042019N0030001N1-00061-00531102561ADDAY171061AY271061GF108991061071004501021999MA1999999100611MD1710191+9999MW1701REMSYN072AAXX  03064 47095 41430 82504 11006 21053 30061 40256 57019 77077 8672/;
0161470950999992000020309004+38080+127820FM-12+013599999V0203201N001510042019N0050001N1-00291-00551102691ADDAY171031AY271031GF106991061071004501001001MA1999999100721MD1210111+9999MW1701REMSYN072AAXX  03094 47095 41450 63203 11029 21055 30072 40269 52011 77077 86700;
0241470950999992000020312004+38080+127820FM-12+013599999V0200201N000512200019N0150001N1-00841-00941102911ADDAA112002091AY171061AY221061GA1001+999999999GF100991001001999999001001IA2999-00109KA1120M-00051MA1999999100891MD1210171+9999MW1001REMSYN100AAXX  03124 47095 11965 00201 11084 21094 30089 40291 52017 60022 70072 333 11005 3/101 55008 70015;
0154470950999992000020315004+38080+127820FM-12+013599999V0200501N001512200019N0120001N1-01221-01321103031ADDAA199000021GA1001+999999999GF100991001001999999001001MA1999999100981MD1210091+9999REMSYN060AAXX  03154 47095 32962 00503 11122 21132 30098 40303 52009;
0154470950999992000020318004+38080+127820FM-12+013599999V0209999C000012200019N0120001N1-01491-01631103131ADDAA199000021GA1001+999999999GF100991001001999999001001MA1999999101061MD1210081+9999REMSYN060AAXX  03184 47095 32962 02000 11149 21163 30106 40313 52008;
0154470950999992000020321004+38080+127820FM-12+013599999V0200201N001012200019N0120001N1-01671-01811103221ADDAA199000021GA1001+999999999GF100991001001999999001001MA1999999101131MD1210071+9999REMSYN060AAXX  03214 47095 32962 00202 11167 21181 30113 40322 52007;
0230470950999992000020400004+38080+127820FM-12+013599999V0209999C000012200019N0100001N1-01521-01651103391ADDAA124001591AJ100049199999999GA1001+999999999GF100991001001999999001001IA1239IA2999-00509KA1120N-01781MA1999999101311MD1210181+9999REMSYN088AAXX  04004 47095 32960 00000 11152 21165 30131 40339 52018 333 21178 3/105 47004 70015;
0173470950999992000020403004+38080+127820FM-12+013599999V0209999C000012200019N0100001N1-00431-01001103281ADDAA199000091GA1001+999999999GF100991001001999999001001MA1999999101291MD1510021+9999REMSYN060AAXX  04034 47095 32960 00000 11043 21100 30129 40328 55002;EQDQ01  00002PRCP99
0173470950999992000020406004+38080+127820FM-12+013599999V0202901N001012200019N0100001N1+00021-00881103001ADDAA199000091GA1001+999999999GF100991001001999999001001MA1999999101051MD1710241+9999REMSYN060AAXX  04064 47095 32960 02902 10002 21088 30105 40300 57024;EQDQ01  00002PRCP99
0173470950999992000020409004+38080+127820FM-12+013599999V0209999C000012200019N0120001N1-00221-00921103011ADDAA199000091GA1001+999999999GF100991001001999999001001MA1999999101041MD1810011+9999REMSYN060AAXX  04094 47095 32962 00000 11022 21092 30104 40301 58001;EQDQ01  00002PRCP99
0236470950999992000020412004+38080+127820FM-12+013599999V0209999C000012200019N0120001N1-00841-00971103091ADDAA112000891AJ100009199999999GA1001+999999999GF100991001001999999001001IA1219IA2999-00309KA1120M+00081MA1999999101071MD1210031+9999REMSYN094AAXX  04124 47095 32962 00000 11084 21097 30107 40309 52003 69972 333 10008 3/103 45000 55094;
0173470950999992000020415004+38080+127820FM-12+013599999V0209999C000012200019N0150001N1-01091-01191103131ADDAA199000091GA1001+999999999GF100991001001999999001001MA1999999101091MD1510021+9999REMSYN060AAXX  04154 47095 32965 00000 11109 21119 30109 40313 55002;EQDQ01  00002PRCP99
0201470950999992000020418004+38080+127820FM-12+013599999V0200901N000512200019N0060001N1-01251-01351103091ADDAA199000091AY101061AY201061GA1001+999999999GF100991001001999999001001MA1999999101031MD1710051+9999MW1101REMSYN066AAXX  04184 47095 31956 00901 11125 21135 30103 40309 57005 71000;EQDQ01  00002PRCP99
0201470950999992000020421004+38080+127820FM-12+013599999V0200201N000512200019N0060001N1-01411-01531103011ADDAA199000091AY101031AY201031GA1001+999999999GF100991001001999999001001MA1999999100951MD1810081+9999MW1101REMSYN066AAXX  04214 47095 31956 00201 11141 21153 30095 40301 58008 71000;EQDQ01  00002PRCP99
0226470950999992000020500004+38080+127820FM-12+013599999V0209999C000012200019N0120001N1-01101-01231102981ADDAA199000091GA1001+999999999GF100991001001999999001001IA1219IA2999-00709KA1120N-01481MA1999999100941MD1310011+9999REMSYN082AAXX  05004 47095 32962 00000 11110 21123 30094 40298 53001 333 21148 3/107 45///;EQDQ01  00002PRCP99
0163470950999992000020503004+38080+127820FM-12+013599999V0209999C000019999999N0150001N1-00221-00861102691ADDAA199000091GF108991001001999999001021MA1999999100731MD1710221+9999REMSYN066AAXX  05034 47095 32965 80000 11022 21086 30073 40269 57022 80002;EQDQ01  00002PRCP99
0163470950999992000020506004+38080+127820FM-12+013599999V0200201N000510360019N0150001N1+00151-00871102481ADDAA199000091GF108991041051012501021999MA1999999100551MD1710181+9999REMSYN066AAXX  05064 47095 32665 80201 10015 21087 30055 40248 57018 8452/;EQDQ01  00002PRCP99
0161470950999992000020509004+38080+127820FM-12+013599999V0202901N001010360019N0120001N1+00041-00401102301ADDAY171031AY221031GF108991031051012501021999MA1999999100371MD1510181+9999MW1021REMSYN072AAXX  05094 47095 41662 82902 10004 21040 30037 40230 55018 70272 8352/;
0231470950999992000020512004+38080+127820FM-12+013599999V0201801N000510042019N0060001N1-00041-00381102191ADDAA112000191AY171061AY221061GF108991051071004501021999IA2999-00109KA1120M+00171MA1999999100251MD1710121+9999MW1711REMSYN106AAXX  05124 47095 11456 81801 11004 21038 30025 40219 57012 69912 77172 8572/ 333 10017 3/101 55028 70001;
0161470950999992000020515004+38080+127820FM-12+013599999V0209999C000010042019N0020001N1-00141-00201102161ADDAY171031AY271031GF108991061071004501021999MA1999999100211MD1510041+9999MW1711REMSYN072AAXX  05154 47095 41420 80000 11014 21020 30021 40216 55004 77177 8672/;
0161470950999992000020518004+38080+127820FM-12+013599999V0209999C000010042019N0015001N1-00211-00241102131ADDAY171061AY271061GF108991061071004501021999MA1999999100171MD1710041+9999MW1711REMSYN072AAXX  05184 47095 41415 80000 11021 21024 30017 40213 57004 77177 8672/;
0161470950999992000020521004+38080+127820FM-12+013599999V0202001N001510042019N0030001N1-00211-00271102041ADDAY171031AY271031GF108991061071004501021999MA1999999100081MD1710091+9999MW1711REMSYN072AAXX  05214 47095 41430 82003 11021 21027 30008 40204 57009 77177 8672/;
0260470950999992000020600004+38080+127820FM-12+013599999V0202301N000510042019N0030001N1-00211-00261102091ADDAA112003091AJ100039199999999AY171061AY271061GF108991061071004501021999IA1239IA2999-00109KA1120N-00251MA1999999100141MD1210051+9999MW1711REMSYN112AAXX  06004 47095 11430 82301 11021 21026 30014 40209 52005 60032 77177 8672/ 333 21025 3/101 47003 70026 90026;
0152470950999992000020603004+38080+127820FM-12+013599999V0202501N002110120019N0100001N1+00021-00501102041ADDGF106991999051012501001001MA1999999100101MD1310031+9999REMSYN066AAXX  06034 47095 41660 62504 10002 21050 30010 40204 53003 85500;EQDQ01+000052SCOTLC
0133470950999992000020606004+38080+127820FM-12+013599999V0202501N002612200019N0120001N1+00121-00601101861ADDGF102991021051012501001001MA1999999099931MD1710171+9999REMSYN066AAXX  06064 47095 42662 22505 10012 21060 39993 40186 57017 82500;
0133470950999992000020609004+38080+127820FM-12+013599999V0202901N001512200019N0100001N1-00071-00671101921ADDGF102991021051012501001001MA1999999099981MD1010051+9999REMSYN066AAXX  06094 47095 42660 22903 11007 21067 39998 40192 50005 82500;
0270470950999992000020612004+38080+127820FM-12+013599999V0209999C000012200019N0070001N1-00451-00641102031ADDAA112000791AJ100009199999999AY101061AY201061GA1001+999999999GF100991001001999999001001IA1259IA2999-00109KA1120M+00221MA1999999100061MD1210081+9999MW1101REMSYN106AAXX  06124 47095 11957 00000 11045 21064 30006 40203 52008 69902 71000 333 10022 3/101 41000 55029 70026;
0161470950999992000020615004+38080+127820FM-12+013599999V0200501N002112200019N0070001N1-00731-00811102011ADDAY111031AY211031GF103991031051012501001001MA1999999100021MD1710041+9999MW1101REMSYN072AAXX  06154 47095 41657 30504 11073 21081 30002 40201 57004 71011 83500;
0191470950999992000020618004+38080+127820FM-12+013599999V0200501N001010120019N0050001N1-00631-00711102071ADDAA199000091AY121061AY221061GF105991051051012501001001MA1999999100081MD1210061+9999MW1101REMSYN072AAXX  06184 47095 31650 50502 11063 21071 30008 40207 52006 71022 85500;EQDQ01  00002PRCP99
0191470950999992000020621004+38080+127820FM-12+013599999V0209999C000010120019N0030001N1-00451-00561101911ADDAA199000091AY121031AY221031GF108991051051012501021999MA1999999099941MD1710141+9999MW1101REMSYN072AAXX  06214 47095 31630 80000 11045 21056 39994 40191 57014 71022 8552/;EQDQ01  00002PRCP99
0225470950999992000020700004+38080+127820FM-12+013599999V0209999C000010360019N0030001N1-00381-00521101901ADDAA112000791AY171061AY221061GF108991041071004501021999IA2999-00209KA1120N-00791MA1999999099931MD1810011+9999MW1701REMSYN100AAXX  07004 47095 41430 80000 11038 21052 39993 40190 58001 69902 77072 8472/ 333 21079 3/102 79999;
0133470950999992000020703004+38080+127820FM-12+013599999V0201801N001510360019N0080001N1-00081-00721101631ADDGF107991041061008001011001MA1999999099701MD1710231+9999REMSYN066AAXX  07034 47095 42558 71803 11008 21072 39970 40163 57023 84610;
0161470950999992000020706004+38080+127820FM-12+013599999V0202701N002619999999N0080001N1-00051-00561101351ADDAY121061AY221061GF108991051061999999021999MA1999999099421MD1710281+9999MW1101REMSYN072AAXX  07064 47095 42958 82705 11005 21056 39942 40135 57028 71022 8562/;
0161470950999992000020709004+38080+127820FM-12+013599999V0202301N004110360019N0060001N1-00141-00591101261ADDAY171031AY271031GF108991041071008001021999MA1999999099331MD1710091+9999MW1701REMSYN072AAXX  07094 47095 41556 82308 11014 21059 39933 40126 57009 77077 8472/;
0260470950999992000020712004+38080+127820FM-12+013599999V0202501N003612200019N0060001N1-00531-01061101401ADDAA112000791AJ100009199999999AY171061AY271061GF103991031051012501001001IA1219IA2999-00209KA1120M+00001MA1999999099431MD1210111+9999MW1221REMSYN112AAXX  07124 47095 11656 32507 11053 21106 39943 40140 52011 69902 72277 83500 333 10000 3/102 45000 55007 79999;
0133470950999992000020715004+38080+127820FM-12+013599999V0202301N004110150019N0100001N1-00631-01281101441ADDGF106991061051017501001001MA1999999099471MD1510031+9999REMSYN066AAXX  07154 47095 42760 62308 11063 21128 39947 40144 55003 86500;
0144470950999992000020718004+38080+127820FM-12+013599999V0202501N004112200019N0120001N1-00841-01551101381ADDAA199000021GF102991021051017501001001MA1999999099391MD1710081+9999REMSYN066AAXX  07184 47095 32762 22508 11084 21155 39939 40138 57008 82500;
0144470950999992000020721004+38080+127820FM-12+013599999V0202501N003112200019N0150001N1-01061-01651101481ADDAA199000021GF102991021051017501001001MA1999999099471MD1210091+9999REMSYN066AAXX  07214 47095 32765 22506 11106 21165 39947 40148 52009 82500;
0244470950999992000020800004+38080+127820FM-12+013599999V0202501N002119999999N0120001N1-01011-01611101651ADDAA112000791AY171061AY221061GF107991999071004501001001IA2999-00509KA1120N-01091MA1999999099651MD1210171+9999MW1701REMSYN100AAXX  08004 47095 11462 72504 11101 21161 39965 40165 52017 69902 77072 83700 333 21109 3/105 79999;EQDQ01+000032SCOTLC
0161470950999992000020803004+38080+127820FM-12+013599999V0203201N001510042019N0120001N1-00761-01591101691ADDAY171031AY221031GF105991051051004501001001MA1999999099701MD1310061+9999MW1021REMSYN072AAXX  08034 47095 41462 53203 11076 21159 39970 40169 53006 70272 85500;
0133470950999992000020806004+38080+127820FM-12+013599999V0203201N002112200019N0130001N1-00551-01541101681ADDGF101991011051012501001001MA1999999099711MD1810011+9999REMSYN066AAXX  08064 47095 42663 13204 11055 21154 39971 40168 58001 81500;
0143470950999992000020809004+38080+127820FM-12+013599999V0202501N002112200019N0100001N1-00721-01531101881ADDGA1001+999999999GF100991001001999999001001MA1999999099891MD1210181+9999REMSYN060AAXX  08094 47095 42960 02504 11072 21153 39989 40188 52018;
0225470950999992000020812004+38080+127820FM-12+013599999V0202001N001012200019N0150001N1-00941-01611102121ADDAA112000791GA1001+999999999GF100991001001999999001001IA1219IA2999-00609KA1120M-00531MA1999999100111MD1210221+9999REMSYN100AAXX  08124 47095 42965 02002 11094 21161 30011 40212 52022 69902 333 11053 3/106 45/// 55048 79999;
0173470950999992000020815004+38080+127820FM-12+013599999V0202001N001512200019N0150001N1-01031-01581102211ADDAA199000091GA1001+999999999GF100991001001999999001001MA1999999100191MD1210081+9999REMSYN060AAXX  08154 47095 32965 02003 11103 21158 30019 40221 52008;EQDQ01  00002PRCP99
0173470950999992000020818004+38080+127820FM-12+013599999V0200501N001012200019N0180001N1-01401-01741102331ADDAA199000091GA1001+999999999GF100991001001999999001001MA1999999100281MD1210091+9999REMSYN060AAXX  08184 47095 32968 00502 11140 21174 30028 40233 52009;EQDQ01  00002PRCP99
0173470950999992000020821004+38080+127820FM-12+013599999V0200501N000512200019N0180001N1-01611-01851102431ADDAA199000091GA1001+999999999GF100991001001999999001001MA1999999100361MD1210081+9999REMSYN060AAXX  08214 47095 32968 00501 11161 21185 30036 40243 52008;EQDQ01  00002PRCP99
0230470950999992000020900004+38080+127820FM-12+013599999V0202701N000512200019N0180001N1-01241-01621102491ADDAA124000791AJ100009199999999GA1001+999999999GF100991001001999999001001IA1219IA2999-00909KA1120N-01661MA1999999100451MD1210081+9999REMSYN088AAXX  09004 47095 32968 02701 11124 21162 30045 40249 52008 333 21166 3/109 45000 79999;
0173470950999992000020903004+38080+127820FM-12+013599999V0200501N000512200019N0200001N1-00521-01631102351ADDAA199000091GA1001+999999999GF100991001001999999001001MA1999999100371MD1710081+9999REMSYN060AAXX  09034 47095 32970 00501 11052 21163 30037 40235 57008;EQDQ01  00002PRCP99
0173470950999992000020909004+38080+127820FM-12+013599999V0202501N002112200019N0200001N1-00391-01511102221ADDAA199000091GA1001+999999999GF100991001001999999001001MA1999999100251MD1810021+9999REMSYN060AAXX  09094 47095 32970 02504 11039 21151 30025 40222 58002;EQDQ01  00002PRCP99
0220470950999992000020912004+38080+127820FM-12+013599999V0200201N001012200019N0200001N1-01051-01431102341ADDAA199000091GA1001+999999999GF100991001001999999001001IA2999-00509KA1120M-00121MA1999999100321MD1210071+9999REMSYN082AAXX  09124 47095 32970 00202 11105 21143 30032 40234 52007 333 11012 3/105 55097;EQDQ01  00002PRCP99
0173470950999992000020915004+38080+127820FM-12+013599999V0209999C000012200019N0200001N1-01291-01541102391ADDAA199000091GA1001+999999999GF100991001001999999001001MA1999999100351MD1210031+9999REMSYN060AAXX  09154 47095 32970 00000 11129 21154 30035 40239 52003;EQDQ01  00002PRCP99
0173470950999992000020918004+38080+127820FM-12+013599999V0200201N001012200019N0200001N1-01491-01651102451ADDAA199000091GA1001+999999999GF100991001001999999001001MA1999999100391MD1210051+9999REMSYN060AAXX  09184 47095 32970 00202 11149 21165 30039 40245 52005;EQDQ01  00002PRCP99
0173470950999992000020921004+38080+127820FM-12+013599999V0209999C000012200019N0200001N1-01641-01791102481ADDAA199000091GA1001+999999999GF100991001001999999001001MA1999999100401MD1210011+9999REMSYN060AAXX  09214 47095 32970 00000 11164 21179 30040 40248 52001;EQDQ01  00002PRCP99
0226470950999992000021000004+38080+127820FM-12+013599999V0209999C000012200019N0200001N1-01331-01561102501ADDAA199000091GA1001+999999999GF100991001001999999001001IA1219IA2999-00909KA1120N-01691MA1999999100451MD1010051+9999REMSYN082AAXX  10004 47095 32970 00000 11133 21156 30045 40250 50005 333 21169 3/109 45///;EQDQ01  00002PRCP99
0163470950999992000021003004+38080+127820FM-12+013599999V0203601N000512200019N0200001N1-00341-01481102291ADDAA199000091GF102991001001999999001011MA1999999100321MD1710131+9999REMSYN066AAXX  10034 47095 32970 23601 11034 21148 30032 40229 57013 80001;EQDQ01  00002PRCP99
0173470950999992000021006004+38080+127820FM-12+013599999V0202001N000512200019N0220001N1+00221-01131101911ADDAA199000091GA1001+999999999GF100991001001999999001001MA1999999100001MD1710331+9999REMSYN060AAXX  10064 47095 32972 02001 10022 21113 30000 40191 57033;EQDQ01  00002PRCP99
0173470950999992000021009004+38080+127820FM-12+013599999V0202301N002612200019N0220001N1-00061-00991101951ADDAA199000091GA1001+999999999GF100991001001999999001001MA1999999100011MD1010021+9999REMSYN060AAXX  10094 47095 32972 02305 11006 21099 30001 40195 50002;EQDQ01  00002PRCP99
0249470950999992000021012004+38080+127820FM-12+013599999V0201601N001012200019N0200001N1-00311-00711102031ADDAA199000091AJ100009199999999GA1001+999999999GF100991001001999999001001IA1219IA2999-00309KA1120M+00221MA1999999100071MD1310061+9999REMSYN088AAXX  10124 47095 32970 01602 11031 21071 30007 40203 53006 333 10022 3/103 45000 55094;EQDQ01  00002PRCP99
0163470950999992000021015004+38080+127820FM-12+013599999V0200201N001019999999N0120001N1-00771-00931102051ADDAA199000091GF106991061001999999011001MA1999999100061MD1510011+9999REMSYN066AAXX  10154 47095 32962 60202 11077 21093 30006 40205 55001 86010;EQDQ01  00002PRCP99
0163470950999992000021018004+38080+127820FM-12+013599999V0209999C000010120019N0100001N1-00611-00741102081ADDAA199000091GF107991071051012501001001MA1999999100091MD1210031+9999REMSYN066AAXX  10184 47095 32660 70000 11061 21074 30009 40208 52003 87500;EQDQ01  00002PRCP99
0163470950999992000021021004+38080+127820FM-12+013599999V0209999C000010360019N0100001N1-00541-00691102011ADDAA199000091GF108991031051008001021999MA1999999100031MD1710061+9999REMSYN066AAXX  10214 47095 32560 80000 11054 21069 30003 40201 57006 8352/;EQDQ01  00002PRCP99
0232470950999992000021100004+38080+127820FM-12+013599999V0209999C000010120019N0090001N1-00471-00621102091ADDAA199000091AY121061AY221061GF106991061051012501001001IA2999-00409KA1120N-00791MA1999999100111MD1010081+9999MW1101REMSYN088AAXX  11004 47095 31659 60000 11047 21062 30011 40209 50008 71022 86500 333 21079 3/104;EQDQ01  00002PRCP99
0191470950999992000021103004+38080+127820FM-12+013599999V0202501N002610120019N0090001N1+00141-00631102031ADDAA199000091AY121031AY221031GF105991051051012501001001MA1999999100101MD1510011+9999MW1101REMSYN072AAXX  11034 47095 31659 52505 10014 21063 30010 40203 55001 71022 85500;EQDQ01  00002PRCP99
0163470950999992000021106004+38080+127820FM-12+013599999V0202501N001512200019N0150001N1+00321-00661101861ADDAA199000091GF102991021051012501001001MA1999999099951MD1710151+9999REMSYN066AAXX  11064 47095 32665 22503 10032 21066 39995 40186 57015 82500;EQDQ01  00002PRCP99
0173470950999992000021109004+38080+127820FM-12+013599999V0202301N002112200019N0150001N1+00151-00741101891ADDAA199000091GA1001+999999999GF100991001001999999001001MA1999999099971MD1010021+9999REMSYN060AAXX  11094 47095 32965 02304 10015 21074 39997 40189 50002;EQDQ01  00002PRCP99
0232470950999992000021112004+38080+127820FM-12+013599999V0200501N000512200019N0150001N1-00431-00691102061ADDAA199000091GA1001+999999999GF100991001001999999001001IA1259IA2999+00009KA1120M+00421MA1999999100091MD1210121+9999REMSYN088AAXX  11124 47095 32965 00501 11043 21069 30009 40206 52012 333 10042 3/000 41/// 55063;EQDQ01  00002PRCP99
0173470950999992000021115004+38080+127820FM-12+013599999V0200201N000512200019N0150001N1-00671-00831102171ADDAA199000091GA1001+999999999GF100991001001999999001001MA1999999100181MD1210091+9999REMSYN060AAXX  11154 47095 32965 00201 11067 21083 30018 40217 52009;EQDQ01  00002PRCP99
0173470950999992000021118004+38080+127820FM-12+013599999V0200201N001012200019N0100001N1-00801-00901102111ADDAA199000091GA1001+999999999GF100991001001999999001001MA1999999100111MD1710071+9999REMSYN060AAXX  11184 47095 32960 00202 11080 21090 30011 40211 57007;EQDQ01  00002PRCP99
0173470950999992000021121004+38080+127820FM-12+013599999V0209999C000012200019N0100001N1-00971-01061102101ADDAA199000091GA1001+999999999GF100991001001999999001001MA1999999100091MD1810021+9999REMSYN060AAXX  11214 47095 32960 00000 11097 21106 30009 40210 58002;EQDQ01  00002PRCP99
0261470950999992000021200004+38080+127820FM-12+013599999V0209999C000010075019N0050001N1-00711-00821102171ADDAA199000091AJ100009199999999AY121061AY221061GF107991071061008001001001IA1259IA2999-00509KA1120N-00981MA1999999100171MD1210081+9999MW1101REMSYN094AAXX  12004 47095 32550 70200 11071 21082 30017 40217 52008 71022 87600 333 21098 3/105 41000;EQDQ01  00002PRCP99
0191470950999992000021203004+38080+127820FM-12+013599999V0209999C000010120019N0050001N1+00151-00311102071ADDAA199000091AY121031AY221031GF108991061051012501011999MA1999999100151MD1710021+9999MW1101REMSYN072AAXX  12034 47095 32650 80000 10015 21031 30015 40207 57002 71022 8651/;EQDQ01  00002PRCP99
0191470950999992000021206004+38080+127820FM-12+013599999V0202001N002110120019N0050001N1+00371-00211101841ADDAA199000091AY121061AY221061GF105991051051012501001001MA1999999099931MD1710211+9999MW1101REMSYN072AAXX  12064 47095 32650 52004 10037 21021 39993 40184 57021 71022 85500;EQDQ01  00002PRCP99
0201470950999992000021209004+38080+127820FM-12+013599999V0201801N001012200019N0050001N1+00231-00311101841ADDAA199000091AY101031AY211031GA1001+999999999GF100991001001999999001001MA1999999099931MD1210011+9999MW1101REMSYN066AAXX  12094 47095 31950 01802 10023 21031 39993 40184 52001 71001;EQDQ01  00002PRCP99
0248470950999992000021212004+38080+127820FM-12+013599999V0209999C000012200019N0030001N1-00271-00371102041ADDAA199000091AY101061AY211061GA1001+999999999GF100991001001999999001001IA2999+00009KA1120M+00411MA1999999100081MD1210161+9999MW1101REMSYN088AAXX  12124 47095 31930 00000 11027 21037 30008 40204 52016 71001 333 10041 3/000 55029;EQDQ01  00002PRCP99
0201470950999992000021215004+38080+127820FM-12+013599999V0203601N001012200019N0030001N1-00491-00541102091ADDAA199000091AY101031AY201031GA1001+999999999GF100991001001999999001001MA1999999100111MD1210031+9999MW1101REMSYN066AAXX  12154 47095 31930 03602 11049 21054 30011 40209 52003 71000;EQDQ01  00002PRCP99
0201470950999992000021218004+38080+127820FM-12+013599999V0209999C000012200019N0025001N1-00651-00711102131ADDAA199000091AY101061AY201061GA1001+999999999GF100991001001999999001001MA1999999100141MD1210031+9999MW1101REMSYN066AAXX  12184 47095 31925 00000 11065 21071 30014 40213 52003 71000;EQDQ01  00002PRCP99
0191470950999992000021221004+38080+127820FM-12+013599999V0209999C000012200019N0025001N1-00641-00701102171ADDAA199000091AY101031AY211031GF102991021051012501001001MA1999999100181MD1210041+9999MW1101REMSYN072AAXX  12214 47095 31625 20000 11064 21070 30018 40217 52004 71001 82500;EQDQ01  00002PRCP99
0242470950999992000021300004+38080+127820FM-12+013599999V0201801N000512200019N0030001N1-00591-00661102231ADDAA199000091AY111061AY201061GA1001+999999999GF100991001001999999001001IA2999-00409KA1120N-00751MA1999999100241MD1010061+9999MW1101REMSYN082AAXX  13004 47095 31930 01801 11059 21066 30024 40223 50006 71010 333 21075 3/104;EQDQ01  00002PRCP99
0201470950999992000021303004+38080+127820FM-12+013599999V0202901N000512200019N0030001N1+00231-00191102061ADDAA199000091AY101031AY201031GA1001+999999999GF100991001001999999001001MA1999999100141MD1710101+9999MW1101REMSYN066AAXX  13034 47095 31930 02901 10023 21019 30014 40206 57010 71000;EQDQ01  00002PRCP99
0191470950999992000021306004+38080+127820FM-12+013599999V0202901N000510075019N0030001N1+00431-00161101771ADDAA199000091AY121061AY221061GF108991081061008001999999MA1999999099871MD1710281+9999MW1101REMSYN072AAXX  13064 47095 31530 82901 10043 21016 39987 40177 57028 71022 886//;EQDQ01  00002PRCP99
0191470950999992000021309004+38080+127820FM-12+013599999V0202001N000510075019N0030001N1+00301-00151101671ADDAA199000091AY121031AY221031GF108991061061008001011999MA1999999099761MD1710111+9999MW1101REMSYN072AAXX  13094 47095 31530 82001 10030 21015 39976 40167 57011 71022 8661/;EQDQ01  00002PRCP99
0244470950999992000021312004+38080+127820FM-12+013599999V0209999C000010075019N0020001N1+00111-00091101711ADDAA199000091AY121061AY221061GF108991061061008001011999IA1099IA2999+00009KA1120M+00501MA1999999099781MD1210021+9999MW1101REMSYN094AAXX  13124 47095 31520 80000 10011 21009 39978 40171 52002 71022 8661/ 333 10050 31000 55031;EQDQ01  00002PRCP99
0161470950999992000021315004+38080+127820FM-12+013599999V0202301N001510075019N0020001N1+00061-00111101701ADDAY111031AY201031GF108991061071008001021999MA1999999099771MD1510011+9999MW1701REMSYN072AAXX  13154 47095 41520 82303 10006 21011 39977 40170 55001 77010 8672/;
0161470950999992000021318004+38080+127820FM-12+013599999V0202301N002110075019N0020001N1+00001-00091101571ADDAY171061AY271061GF108991061071008001021999MA1999999099651MD1710131+9999MW1701REMSYN072AAXX  13184 47095 41520 82304 11000 21009 39965 40157 57013 77077 8672/;
0161470950999992000021321004+38080+127820FM-12+013599999V0202701N001510075019N0020001N1-00041-00071101411ADDAY171031AY271031GF108991061071008001021999MA1999999099481MD1710171+9999MW1711REMSYN072AAXX  13214 47095 41520 82703 11004 21007 39948 40141 57017 77177 8672/;
0244470950999992000021400004+38080+127820FM-12+013599999V0202901N002119999999N0030001N1-00081-00331101471ADDAA112001091AY171061AY221061GF107991999071004501001001IA2999+00009KA1120N-00091MA1999999099541MD1210061+9999MW1701REMSYN100AAXX  14004 47095 11430 72904 11008 21033 39954 40147 52006 60012 77072 83700 333 21009 3/000 70014;EQDQ01+000032SCOTLC
