0097478420999992000010100004+31980+128350FM-12+011099999V0200601N006219999999N0200001N1+99999+99999102221ADDMA1999999100901REMSYN070AAXX  01004 47842 42/70 /0612 1//// 2//// 30090 40222 5//// 555 3033/;
0097478420999992000010106004+31980+128350FM-12+011099999V0200901N005719999999N0200001N1+99999+99999101831ADDMA1999999100521REMSYN070AAXX  01064 47842 42/70 /0911 1//// 2//// 30052 40183 5//// 555 3033/;
0097478420999992000010200004+31980+128350FM-12+011099999V0201101N005119999999N0250001N1+99999+99999101661ADDMA1999999100351REMSYN070AAXX  02004 47842 42/75 /1110 1//// 2//// 30035 40166 5//// 555 3033/;
0097478420999992000010206004+31980+128350FM-12+011099999V0202701N002119999999N0300001N1+99999+99999101451ADDMA1999999100151REMSYN070AAXX  02064 47842 42/80 /2704 1//// 2//// 30015 40145 5//// 555 3021/;
0097478420999992000010300004+31980+128350FM-12+011099999V0203201N006219999999N0200001N1+99999+99999102031ADDMA1999999100691REMSYN070AAXX  03004 47842 42/70 /3212 1//// 2//// 30069 40203 5//// 555 3033/;
0097478420999992000010306004+31980+128350FM-12+011099999V0203401N005719999999N0200001N1+99999+99999101911ADDMA1999999100581REMSYN070AAXX  03064 47842 42/70 /3411 1//// 2//// 30058 40191 5//// 555 3033/;
0097478420999992000010400004+31980+128350FM-12+011099999V0200501N001519999999N0200001N1+99999+99999102301ADDMA1999999100961REMSYN070AAXX  04004 47842 42/70 /0503 1//// 2//// 30096 40230 5//// 555 3021/;
0097478420999992000010406004+31980+128350FM-12+011099999V0200901N002119999999N0300001N1+99999+99999102081ADDMA1999999100761REMSYN070AAXX  04064 47842 42/80 /0904 1//// 2//// 30076 40208 5//// 555 3021/;
0107478420999992000010418004+31980+128350FM-12+011099999V0202501N000519999999N0150001N1+00511+00361999999ADDGF106991001001999999001021MA1999999101771REMSYN054AAXX  04184 47842 ///65 62501 10051 20036 30177 80002;
0116478420999992000010500004+31980+128350FM-12+011099999V0201101N006719999999N0150001N1+99999+99999101811ADDMA1999999100512REMSYN070AAXX  05004 47842 42/65 /1113 1//// 2//// 30051 40181 5//// 555 3033/;EQDQ01+100513APOSP 
0109478420999992000010506004+31980+128350FM-12+011099999V0201801N008219999999N0120001N1+99999+99999101451ADDMA1999999100151MW1611REMSYN076AAXX  05064 47842 41/62 /1816 1//// 2//// 30015 40145 5//// 761// 555 3043/;
0109478420999992000010606004+31980+128350FM-12+011099999V0203201N005719999999N0060001N1+99999+99999101271ADDMA1999999099971MW1101REMSYN076AAXX  06064 47842 41/56 /3211 1//// 2//// 39997 40127 5//// 710// 555 3033/;
0097478420999992000010700004+31980+128350FM-12+011099999V0203301N008719999999N0150001N1+99999+99999102291ADDMA1999999100931REMSYN070AAXX  07004 47842 42/65 /3317 1//// 2//// 30093 40229 5//// 555 3043/;
0097478420999992000010706004+31980+128350FM-12+011099999V0203201N008219999999N0200001N1+99999+99999102291ADDMA1999999100931REMSYN070AAXX  07064 47842 42/70 /3216 1//// 2//// 30093 40229 5//// 555 3043/;
0097478420999992000010800004+31980+128350FM-12+011099999V0203201N003119999999N0200001N1+99999+99999102351ADDMA1999999101001REMSYN070AAXX  08004 47842 42/70 /3206 1//// 2//// 30100 40235 5//// 555 3023/;
0097478420999992000010806004+31980+128350FM-12+011099999V0200301N002619999999N0250001N1+99999+99999102161ADDMA1999999100811REMSYN070AAXX  08064 47842 42/75 /0305 1//// 2//// 30081 40216 5//// 555 3021/;
0109478420999992000010900004+31980+128350FM-12+011099999V0200501N005719999999N0080001N1+99999+99999101881ADDMA1999999100551MW1611REMSYN076AAXX  09004 47842 41/58 /0511 1//// 2//// 30055 40188 5//// 761// 555 3033/;
0097478420999992000011000004+31980+128350FM-12+011099999V0203201N006719999999N0300001N1+99999+99999102081ADDMA1999999100751REMSYN070AAXX  10004 47842 42/80 /3213 1//// 2//// 30075 40208 5//// 555 3031/;
0097478420999992000011006004+31980+128350FM-12+011099999V0203201N008719999999N0200001N1+99999+99999102051ADDMA1999999100721REMSYN070AAXX  10064 47842 42/70 /3217 1//// 2//// 30072 40205 5//// 555 3043/;
0097478420999992000011100004+31980+128350FM-12+011099999V0200201N006719999999N0200001N1+99999+99999102221ADDMA1999999100891REMSYN070AAXX  11004 47842 42/70 /0213 1//// 2//// 30089 40222 5//// 555 3031/;
0097478420999992000011106004+31980+128350FM-12+011099999V0200201N006219999999N0300001N1+99999+99999101861ADDMA1999999100531REMSYN070AAXX  11064 47842 42/80 /0212 1//// 2//// 30053 40186 5//// 555 3033/;
0109478420999992000011200004+31980+128350FM-12+011099999V0200701N007219999999N0040001N1+99999+99999101371ADDMA1999999100061MW1611REMSYN076AAXX  12004 47842 41/40 /0714 1//// 2//// 30006 40137 5//// 761// 555 3043/;
0109478420999992000011206004+31980+128350FM-12+011099999V0200501N005119999999N0030001N1+99999+99999100991ADDMA1999999099691MW1611REMSYN076AAXX  12064 47842 41/30 /0510 1//// 2//// 39969 40099 5//// 761// 555 3033/;
0109478420999992000011300004+31980+128350FM-12+011099999V0203201N004119999999N0100001N1+99999+99999101171ADDMA1999999099861MW1611REMSYN076AAXX  13004 47842 41/60 /3208 1//// 2//// 39986 40117 5//// 761// 555 3023/;
0097478420999992000011306004+31980+128350FM-12+011099999V0203201N008219999999N0150001N1+99999+99999101251ADDMA1999999099941REMSYN070AAXX  13064 47842 42/65 /3216 1//// 2//// 39994 40125 5//// 555 3043/;
0101478420999992000011400004+31980+128350FM-12+011099999V0203101N005119999999N0100001N1+99999+99999101931ADDMA1999999100601REMSYN074    AAXX  14004 47842 42/60 /3110 1//// 2//// 30060 40193 5//// 555 3033/;
0101478420999992000011406004+31980+128350FM-12+011099999V0203101N006719999999N0150001N1+99999+99999101821ADDMA1999999100481REMSYN074    AAXX  14064 47842 42/65 /3113 1//// 2//// 30048 40182 5//// 555 3033/;
0101478420999992000011500004+31980+128350FM-12+011099999V0200701N003619999999N0100001N1+99999+99999102151ADDMA1999999100801REMSYN074    AAXX  15004 47842 42/60 /0707 1//// 2//// 30080 40215 5//// 555 3031/;
0101478420999992000011600004+31980+128350FM-12+011099999V0203401N003619999999N0150001N1+99999+99999101851ADDMA1999999100531REMSYN074    AAXX  16004 47842 42/65 /3407 1//// 2//// 30053 40185 5//// 555 3021/;
0101478420999992000011606004+31980+128350FM-12+011099999V0203401N003119999999N0150001N1+99999+99999101571ADDMA1999999100251REMSYN074    AAXX  16064 47842 42/65 /3406 1//// 2//// 30025 40157 5//// 555 3021/;
0113478420999992000011700004+31980+128350FM-12+011099999V0203401N007719999999N0080001N1+99999+99999101651ADDMA1999999100321MW1611REMSYN080    AAXX  17004 47842 41/58 /3415 1//// 2//// 30032 40165 5//// 761// 555 3033/;
0101478420999992000011706004+31980+128350FM-12+011099999V0203201N006719999999N0200001N1+99999+99999101471ADDMA1999999100141REMSYN074    AAXX  17064 47842 42/70 /3213 1//// 2//// 30014 40147 5//// 555 3043/;
0101478420999992000011800004+31980+128350FM-12+011099999V0203201N009319999999N0100001N1+99999+99999101581ADDMA1999999100261REMSYN074    AAXX  18004 47842 42/60 /3218 1//// 2//// 30026 40158 5//// 555 3033/;
0101478420999992000011806004+31980+128350FM-12+011099999V0203201N009319999999N0100001N1+99999+99999101481ADDMA1999999100151REMSYN074    AAXX  18064 47842 42/60 /3218 1//// 2//// 30015 40148 5//// 555 3043/;
0113478420999992000011900004+31980+128350FM-12+011099999V0203101N006719999999N0100001N1+99999+99999101991ADDMA1999999100641MW1501REMSYN080    AAXX  19004 47842 41/60 /3113 1//// 2//// 30064 40199 5//// 750// 555 3033/;
0113478420999992000011906004+31980+128350FM-12+011099999V0203001N013919999999N0080001N1+99999+99999101791ADDMA1999999100451MW1101REMSYN080    AAXX  19064 47842 41/58 /3027 1//// 2//// 30045 40179 5//// 710// 555 3056/;
0097478420999992000012000004+31980+128350FM-12+011099999V0203101N009819999999N0200001N1+99999+99999102851ADDMA1999999101471REMSYN070AAXX  20004 47842 42/70 /3119 1//// 2//// 30147 40285 5//// 555 3043/;
0097478420999992000012006004+31980+128350FM-12+011099999V0203101N009819999999N0250001N1+99999+99999102871ADDMA1999999101491REMSYN070AAXX  20064 47842 42/75 /3119 1//// 2//// 30149 40287 5//// 555 3043/;
0097478420999992000012100004+31980+128350FM-12+011099999V0203101N009319999999N0200001N1+99999+99999103551ADDMA1999999102161REMSYN070AAXX  21004 47842 42/70 /3118 1//// 2//// 30216 40355 5//// 555 3043/;
0097478420999992000012106004+31980+128350FM-12+011099999V0203101N006219999999N0300001N1+99999+99999103431ADDMA1999999102061REMSYN070AAXX  21064 47842 42/80 /3112 1//// 2//// 30206 40343 5//// 555 3033/;
0097478420999992000012200004+31980+128350FM-12+011099999V0200901N002619999999N0300001N1+99999+99999103191ADDMA1999999101831REMSYN070AAXX  22004 47842 42/80 /0905 1//// 2//// 30183 40319 5//// 555 3021/;
0097478420999992000012206004+31980+128350FM-12+011099999V0202101N004119999999N0250001N1+99999+99999102671ADDMA1999999101331REMSYN070AAXX  22064 47842 42/75 /2108 1//// 2//// 30133 40267 5//// 555 3021/;
0109478420999992000012300004+31980+128350FM-12+011099999V0203001N007219999999N0100001N1+99999+99999102251ADDMA1999999100941MW1611REMSYN076AAXX  23004 47842 41/60 /3014 1//// 2//// 30094 40225 5//// 761// 555 3043/;
0097478420999992000012306004+31980+128350FM-12+011099999V0203201N005119999999N0100001N1+99999+99999102131ADDMA1999999100811REMSYN070AAXX  23064 47842 42/60 /3210 1//// 2//// 30081 40213 5//// 555 3033/;
0109478420999992000012400004+31980+128350FM-12+011099999V0203101N005119999999N0100001N1+99999+99999102471ADDMA1999999101131MW1611REMSYN076AAXX  24004 47842 41/60 /3110 1//// 2//// 30113 40247 5//// 761// 555 3033/;
0097478420999992000012406004+31980+128350FM-12+011099999V0203101N005119999999N0200001N1+99999+99999102241ADDMA1999999100891REMSYN070AAXX  24064 47842 42/70 /3110 1//// 2//// 30089 40224 5//// 555 3021/;
0097478420999992000012500004+31980+128350FM-12+011099999V0203101N010319999999N0200001N1+99999+99999102541ADDMA1999999101181REMSYN070AAXX  25004 47842 42/70 /3120 1//// 2//// 30118 40254 5//// 555 3043/;
0097478420999992000012506004+31980+128350FM-12+011099999V0203101N010819999999N0200001N1+99999+99999102411ADDMA1999999101051REMSYN070AAXX  25064 47842 42/70 /3121 1//// 2//// 30105 40241 5//// 555 3043/;
0097478420999992000012600004+31980+128350FM-12+011099999V0203101N009319999999N0200001N1+99999+99999102691ADDMA1999999101311REMSYN070AAXX  26004 47842 42/70 /3118 1//// 2//// 30131 40269 5//// 555 3056/;
0097478420999992000012606004+31980+128350FM-12+011099999V0203101N007719999999N0100001N1+99999+99999102461ADDMA1999999101081REMSYN070AAXX  26064 47842 42/60 /3115 1//// 2//// 30108 40246 5//// 555 3046/;
0109478420999992000012700004+31980+128350FM-12+011099999V0203201N007719999999N0100001N1+99999+99999102711ADDMA1999999101321MW1851REMSYN076AAXX  27004 47842 41/60 /3215 1//// 2//// 30132 40271 5//// 785// 555 3046/;
0097478420999992000012706004+31980+128350FM-12+011099999V0203401N009819999999N0250001N1+99999+99999102611ADDMA1999999101231REMSYN070AAXX  27064 47842 42/75 /3419 1//// 2//// 30123 40261 5//// 555 3046/;
0097478420999992000012800004+31980+128350FM-12+011099999V0203601N003119999999N0250001N1+99999+99999103091ADDMA1999999101721REMSYN070AAXX  28004 47842 42/75 /3606 1//// 2//// 30172 40309 5//// 555 3023/;
0097478420999992000012806004+31980+128350FM-12+011099999V0200301N005719999999N0300001N1+99999+99999103021ADDMA1999999101661REMSYN070AAXX  28064 47842 42/80 /0311 1//// 2//// 30166 40302 5//// 555 3033/;
0097478420999992000012900004+31980+128350FM-12+011099999V0201201N003119999999N0300001N1+99999+99999103211ADDMA1999999101851REMSYN070AAXX  29004 47842 42/80 /1206 1//// 2//// 30185 40321 5//// 555 3021/;
0097478420999992000012906004+31980+128350FM-12+011099999V0201501N001519999999N0300001N1+99999+99999102961ADDMA1999999101621REMSYN070AAXX  29064 47842 42/80 /1503 1//// 2//// 30162 40296 5//// 555 3021/;
0078478420999992000013000004+31980+128350FM-12+011099999V0203401N004619999999N0200001N1+99999+99999999999REMSYN069AAXX  30004 47842 42/70 /3409 1//// 2//// 3076 40312 5//// 555 3031/;
0097478420999992000013006004+31980+128350FM-12+011099999V0203201N008719999999N0050001N1+99999+99999102971ADDMA1999999101611REMSYN070AAXX  30064 47842 42/50 /3217 1//// 2//// 30161 40297 5//// 555 3043/;
0097478420999992000013100004+31980+128350FM-12+011099999V0203401N009319999999N0250001N1+99999+99999103411ADDMA1999999102031REMSYN070AAXX  31004 47842 42/75 /3418 1//// 2//// 30203 40341 5//// 555 3043/;
0097478420999992000013106004+31980+128350FM-12+011099999V0203201N008719999999N0300001N1+99999+99999103141ADDMA1999999101761REMSYN070AAXX  31064 47842 42/80 /3217 1//// 2//// 30176 40314 5//// 555 3043/;
0097478420999992000020100004+31980+128350FM-12+011099999V0203201N004619999999N0150001N1+99999+99999103051ADDMA1999999101681REMSYN070AAXX  01004 47842 42/65 /3209 1//// 2//// 30168 40305 5//// 555 3033/;
0097478420999992000020106004+31980+128350FM-12+011099999V0203201N005119999999N0200001N1+99999+99999102841ADDMA1999999101471REMSYN070AAXX  01064 47842 42/70 /3210 1//// 2//// 30147 40284 5//// 555 3033/;
0097478420999992000020200004+31980+128350FM-12+011099999V0203201N006219999999N0150001N1+99999+99999103011ADDMA1999999101641REMSYN070AAXX  02004 47842 42/65 /3212 1//// 2//// 30164 40301 5//// 555 3033/;
0097478420999992000020206004+31980+128350FM-12+011099999V0203401N005119999999N0200001N1+99999+99999102811ADDMA1999999101441REMSYN070AAXX  02064 47842 42/70 /3410 1//// 2//// 30144 40281 5//// 555 3033/;
0097478420999992000020300004+31980+128350FM-12+011099999V0203301N005119999999N0100001N1+99999+99999102581ADDMA1999999101231REMSYN070AAXX  03004 47842 42/60 /3310 1//// 2//// 30123 40258 5//// 555 3021/;
0097478420999992000020306004+31980+128350FM-12+011099999V0203101N005119999999N0150001N1+99999+99999102411ADDMA1999999101061REMSYN070AAXX  03064 47842 42/65 /3110 1//// 2//// 30106 40241 5//// 555 3031/;
0097478420999992000020400004+31980+128350FM-12+011099999V0203401N003619999999N0150001N1+99999+99999102861ADDMA1999999101491REMSYN070AAXX  04004 47842 42/65 /3407 1//// 2//// 30149 40286 5//// 555 3021/;
0097478420999992000020406004+31980+128350FM-12+011099999V0200401N003119999999N0100001N1+99999+99999102621ADDMA1999999101261REMSYN070AAXX  04064 47842 42/60 /0406 1//// 2//// 30126 40262 5//// 555 3021/;
0097478420999992000020500004+31980+128350FM-12+011099999V0201101N003119999999N0100001N1+99999+99999102491ADDMA1999999101151REMSYN070AAXX  05004 47842 42/60 /1106 1//// 2//// 30115 40249 5//// 555 3021/;
0097478420999992000020506004+31980+128350FM-12+011099999V0202201N001019999999N0100001N1+99999+99999102081ADDMA1999999100761REMSYN070AAXX  05064 47842 42/60 /2202 1//// 2//// 30076 40208 5//// 555 3021/;
0109478420999992000020600004+31980+128350FM-12+011099999V0203001N008219999999N0100001N1+99999+99999101761ADDMA1999999100431MW1611REMSYN076AAXX  06004 47842 41/60 /3016 1//// 2//// 30043 40176 5//// 761// 555 3041/;
0097478420999992000020606004+31980+128350FM-12+011099999V0203201N008219999999N0100001N1+99999+99999101591ADDMA1999999100261REMSYN070AAXX  06064 47842 42/60 /3216 1//// 2//// 30026 40159 5//// 555 3043/;
0097478420999992000020700004+31980+128350FM-12+011099999V0203201N005719999999N0100001N1+99999+99999101741ADDMA1999999100391REMSYN070AAXX  07004 47842 42/60 /3211 1//// 2//// 30039 40174 5//// 555 3033/;
0109478420999992000020706004+31980+128350FM-12+011099999V0203201N005719999999N0080001N1+99999+99999101391ADDMA1999999100051MW1101REMSYN076AAXX  07064 47842 41/58 /3211 1//// 2//// 30005 40139 5//// 710// 555 3033/;
0097478420999992000020800004+31980+128350FM-12+011099999V0203101N012319999999N0150001N1+99999+99999101511ADDMA1999999100151REMSYN070AAXX  08004 47842 42/65 /3124 1//// 2//// 30015 40151 5//// 555 3065/;
0097478420999992000020806004+31980+128350FM-12+011099999V0203001N016419999999N0150001N1+99999+99999101181ADDMA1999999099831REMSYN070AAXX  08064 47842 42/65 /3032 1//// 2//// 39983 40118 5//// 555 3066/;
0097478420999992000020900004+31980+128350FM-12+011099999V0203101N010319999999N0200001N1+99999+99999102111ADDMA1999999100751REMSYN070AAXX  09004 47842 42/70 /3120 1//// 2//// 30075 40211 5//// 555 3043/;
0127478420999992000020909004+31980+128350FM-12+011099999V0203301N001519999999N0200001N1+99999+99999102061ADDGF107991999999999999999999MA1999999101731MD1310031+9999REMSYN060AAXX  09094 47842 42/70 73303 100/2 21033 30173 40206 53003;
0097478420999992000021000004+31980+128350FM-12+011099999V0203401N004119999999N0300001N1+99999+99999102181ADDMA1999999100831REMSYN070AAXX  10004 47842 42/80 /3408 1//// 2//// 30083 40218 5//// 555 3021/;
0097478420999992000021006004+31980+128350FM-12+011099999V0202901N001019999999N0300001N1+99999+99999101871ADDMA1999999100531REMSYN070AAXX  10064 47842 42/80 /2902 1//// 2//// 30053 40187 5//// 555 3021/;
0097478420999992000021100004+31980+128350FM-12+011099999V0203201N004119999999N0200001N1+99999+99999101941ADDMA1999999100601REMSYN070AAXX  11004 47842 42/70 /3208 1//// 2//// 30060 40194 5//// 555 3021/;
0097478420999992000021106004+31980+128350FM-12+011099999V0203201N004119999999N0200001N1+99999+99999101821ADDMA1999999100491REMSYN070AAXX  11064 47842 42/70 /3208 1//// 2//// 30049 40182 5//// 555 3021/;
0097478420999992000021200004+31980+128350FM-12+011099999V0203101N003119999999N0100001N1+99999+99999101901ADDMA1999999100571REMSYN070AAXX  12004 47842 42/60 /3106 1//// 2//// 30057 40190 5//// 555 3021/;
0097478420999992000021206004+31980+128350FM-12+011099999V0203101N003619999999N0150001N1+99999+99999101781ADDMA1999999100451REMSYN070AAXX  12064 47842 42/65 /3107 1//// 2//// 30045 40178 5//// 555 3021/;
0109478420999992000021300004+31980+128350FM-12+011099999V0203101N005119999999N0050001N1+99999+99999101901ADDMA1999999100571MW1101REMSYN076AAXX  13004 47842 41/50 /3110 1//// 2//// 30057 40190 5//// 710// 555 3021/;
0109478420999992000021306004+31980+128350FM-12+011099999V0203101N003119999999N0050001N1+99999+99999101561ADDMA1999999100241MW1101REMSYN076AAXX  13064 47842 41/50 /3106 1//// 2//// 30024 40156 5//// 710// 555 3021/;
0097478420999992000021400004+31980+128350FM-12+011099999V0203401N005719999999N0100001N1+99999+99999101391ADDMA1999999100061REMSYN070AAXX  14004 47842 42/60 /3411 1//// 2//// 30006 40139 5//// 555 3021/;
0109478420999992000021406004+31980+128350FM-12+011099999V0203101N007719999999N0050001N1+99999+99999101141ADDMA1999999099821MW1101REMSYN076AAXX  14064 47842 41/50 /3115 1//// 2//// 39982 40114 5//// 710// 555 3031/;
0109478420999992000021500004+31980+128350FM-12+011099999V0203201N010819999999N0100001N1+99999+99999101781ADDMA1999999100411MW1611REMSYN076AAXX  15004 47842 41/60 /3221 1//// 2//// 30041 40178 5//// 761// 555 3053/;
0097478420999992000021506004+31980+128350FM-12+011099999V0203201N010819999999N0100001N1+99999+99999101661ADDMA1999999100321REMSYN070AAXX  15064 47842 42/60 /3221 1//// 2//// 30032 40166 5//// 555 3053/;
0097478420999992000021600004+31980+128350FM-12+011099999V0203201N009319999999N0100001N1+99999+99999102131ADDMA1999999100771REMSYN070AAXX  16004 47842 42/60 /3218 1//// 2//// 30077 40213 5//// 555 3053/;
0097478420999992000021606004+31980+128350FM-12+011099999V0203201N008219999999N0100001N1+99999+99999102011ADDMA1999999100651REMSYN070AAXX  16064 47842 42/60 /3216 1//// 2//// 30065 40201 5//// 555 3053/;
0097478420999992000021700004+31980+128350FM-12+011099999V0203401N008719999999N0150001N1+99999+99999102611ADDMA1999999101241REMSYN070AAXX  17004 47842 42/65 /3417 1//// 2//// 30124 40261 5//// 555 3043/;
0097478420999992000021706004+31980+128350FM-12+011099999V0203201N007719999999N0150001N1+99999+99999102391ADDMA1999999101031REMSYN070AAXX  17064 47842 42/65 /3215 1//// 2//// 30103 40239 5//// 555 3043/;
0097478420999992000021800004+31980+128350FM-12+011099999V0203201N005119999999N0100001N1+99999+99999102651ADDMA1999999101291REMSYN070AAXX  18004 47842 42/60 /3210 1//// 2//// 30129 40265 5//// 555 3033/;
0097478420999992000021806004+31980+128350FM-12+011099999V0203401N003119999999N0100001N1+99999+99999102321ADDMA1999999100971REMSYN070AAXX  18064 47842 42/60 /3406 1//// 2//// 30097 40232 5//// 555 3021/;
0097478420999992000021900004+31980+128350FM-12+011099999V0200901N006719999999N0200001N1+99999+99999101281ADDMA1999999099931REMSYN070AAXX  19004 47842 42/70 /0913 1//// 2//// 39993 40128 5//// 555 3043/;
0097478420999992000021906004+31980+128350FM-12+011099999V0200401N007719999999N0200001N1+99999+99999100741ADDMA1999999099411REMSYN070AAXX  19064 47842 42/70 /0415 1//// 2//// 39941 40074 5//// 555 3033/;
0097478420999992000022000004+31980+128350FM-12+011099999V0203201N008219999999N0150001N1+99999+99999101131ADDMA1999999099811REMSYN070AAXX  20004 47842 42/65 /3216 1//// 2//// 39981 40113 5//// 555 3033/;
0097478420999992000022006004+31980+128350FM-12+011099999V0203401N008219999999N0150001N1+99999+99999101051ADDMA1999999099741REMSYN070AAXX  20064 47842 42/65 /3416 1//// 2//// 39974 40105 5//// 555 3033/;
0097478420999992000022100004+31980+128350FM-12+011099999V0203301N010319999999N0200001N1+99999+99999101921ADDMA1999999100571REMSYN070AAXX  21004 47842 42/70 /3320 1//// 2//// 30057 40192 5//// 555 3043/;
0097478420999992000022106004+31980+128350FM-12+011099999V0203201N008719999999N0300001N1+99999+99999101841ADDMA1999999100491REMSYN070AAXX  21064 47842 42/80 /3217 1//// 2//// 30049 40184 5//// 555 3043/;
0091478420999992000022200004+31980+128350FM-12+011099999V0203301N002619999999N0300001N1+99999+99999102181ADDMA1999999100831REMSYN064AAXX  22004 47842 42/80 /3305 1//// 2//// 30083 40218 555 3021/;
0097478420999992000022206004+31980+128350FM-12+011099999V0203201N006719999999N0300001N1+99999+99999101991ADDMA1999999100641REMSYN070AAXX  22064 47842 42/80 /3213 1//// 2//// 30064 40199 5//// 555 3031/;
0097478420999992000022300004+31980+128350FM-12+011099999V0200401N005119999999N0300001N1+99999+99999102241ADDMA1999999100891REMSYN070AAXX  23004 47842 42/80 /0410 1//// 2//// 30089 40224 5//// 555 3031/;
0097478420999992000022306004+31980+128350FM-12+011099999V0203601N002119999999N0300001N1+99999+99999102021ADDMA1999999100681REMSYN070AAXX  23064 47842 42/80 /3604 1//// 2//// 30068 40202 5//// 555 3021/;
0097478420999992000022400004+31980+128350FM-12+011099999V0203401N007219999999N0200001N1+99999+99999102441ADDMA1999999101081REMSYN070AAXX  24004 47842 42/70 /3414 1//// 2//// 30108 40244 5//// 555 3033/;
0097478420999992000022406004+31980+128350FM-12+011099999V0203101N010819999999N0300001N1+99999+99999102171ADDMA1999999100821REMSYN070AAXX  24064 47842 42/80 /3121 1//// 2//// 30082 40217 5//// 555 3043/;
0097478420999992000022500004+31980+128350FM-12+011099999V0203601N005719999999N0300001N1+99999+99999102431ADDMA1999999101081REMSYN070AAXX  25004 47842 42/80 /3611 1//// 2//// 30108 40243 5//// 555 3031/;
0097478420999992000022506004+31980+128350FM-12+011099999V0203201N003619999999N0300001N1+99999+99999102111ADDMA1999999100771REMSYN070AAXX  25064 47842 42/80 /3207 1//// 2//// 30077 40211 5//// 555 3021/;
0097478420999992000022600004+31980+128350FM-12+011099999V0203201N007219999999N0250001N1+99999+99999101921ADDMA1999999100571REMSYN070AAXX  26004 47842 42/75 /3214 1//// 2//// 30057 40192 5//// 555 3033/;
0109478420999992000022606004+31980+128350FM-12+011099999V0203201N008219999999N0100001N1+99999+99999101661ADDMA1999999100301MW1611REMSYN076AAXX  26064 47842 41/60 /3216 1//// 2//// 30030 40166 5//// 761// 555 3043/;
0097478420999992000022700004+31980+128350FM-12+011099999V0203201N008219999999N0250001N1+99999+99999102421ADDMA1999999101061REMSYN070AAXX  27004 47842 42/75 /3216 1//// 2//// 30106 40242 5//// 555 3033/;
0097478420999992000022706004+31980+128350FM-12+011099999V0200201N005119999999N0300001N1+99999+99999102401ADDMA1999999101051REMSYN070AAXX  27064 47842 42/80 /0210 1//// 2//// 30105 40240 5//// 555 3033/;
0097478420999992000022806004+31980+128350FM-12+011099999V0203401N007219999999N0150001N1+99999+99999102341ADDMA1999999100991REMSYN070AAXX  28064 47842 42/65 /3414 1//// 2//// 30099 40234 5//// 555 3033/;
0097478420999992000022900004+31980+128350FM-12+011099999V0203601N004119999999N0200001N1+99999+99999102861ADDMA1999999101501REMSYN070AAXX  29004 47842 42/70 /3608 1//// 2//// 30150 40286 5//// 555 3021/;
0097478420999992000022906004+31980+128350FM-12+011099999V0203101N004619999999N0250001N1+99999+99999102691ADDMA1999999101341REMSYN070AAXX  29064 47842 42/75 /3109 1//// 2//// 30134 40269 5//// 555 3021/;
0097478420999992000030100004+31980+128350FM-12+011099999V0203001N001019999999N0250001N1+99999+99999102971ADDMA1999999101621REMSYN070AAXX  01004 47842 42/75 /3002 1//// 2//// 30162 40297 5//// 555 3021/;
0097478420999992000030106004+31980+128350FM-12+011099999V0203201N002119999999N0300001N1+99999+99999102701ADDMA1999999101361REMSYN070AAXX  01064 47842 42/80 /3204 1//// 2//// 30136 40270 5//// 555 3021/;
0097478420999992000030200004+31980+128350FM-12+011099999V0200401N004119999999N0200001N1+99999+99999102631ADDMA1999999101291REMSYN070AAXX  02004 47842 42/70 /0408 1//// 2//// 30129 40263 5//// 555 3021/;
0097478420999992000030206004+31980+128350FM-12+011099999V0200401N004119999999N0200001N1+99999+99999102421ADDMA1999999101081REMSYN070AAXX  02064 47842 42/70 /0408 1//// 2//// 30108 40242 5//// 555 3031/;
0097478420999992000030300004+31980+128350FM-12+011099999V0201101N010319999999N0100001N1+99999+99999102241ADDMA1999999100911REMSYN070AAXX  03004 47842 42/60 /1120 1//// 2//// 30091 40224 5//// 555 3041/;
0109478420999992000030306004+31980+128350FM-12+011099999V0201101N013419999999N0010001N1+99999+99999101881ADDMA1999999100561MW1611REMSYN076AAXX  03064 47842 41/10 /1126 1//// 2//// 30056 40188 5//// 761// 555 3053/;
0109478420999992000030400004+31980+128350FM-12+011099999V0202901N002119999999N0020001N1+99999+99999101551ADDMA1999999100251MW1101REMSYN076AAXX  04004 47842 41/20 /2904 1//// 2//// 30025 40155 5//// 710// 555 3033/;
0109478420999992000030406004+31980+128350FM-12+011099999V0203401N007719999999N0030001N1+99999+99999101291ADDMA1999999099981MW1611REMSYN076AAXX  04064 47842 41/30 /3415 1//// 2//// 39998 40129 5//// 761// 555 3033/;
0109478420999992000030500004+31980+128350FM-12+011099999V0203101N002119999999N0080001N1+99999+99999101491ADDMA1999999100171MW1101REMSYN076AAXX  05004 47842 41/58 /3104 1//// 2//// 30017 40149 5//// 710// 555 3021/;
0109478420999992000030506004+31980+128350FM-12+011099999V0203101N003619999999N0050001N1+99999+99999101231ADDMA1999999099921MW1101REMSYN076AAXX  05064 47842 41/50 /3107 1//// 2//// 39992 40123 5//// 710// 555 3021/;
0097478420999992000030600004+31980+128350FM-12+011099999V0203201N005119999999N0300001N1+99999+99999101651ADDMA1999999100331REMSYN070AAXX  06004 47842 42/80 /3210 1//// 2//// 30033 40165 5//// 555 3021/;
0097478420999992000030606004+31980+128350FM-12+011099999V0203201N005719999999N0300001N1+99999+99999101501ADDMA1999999100191REMSYN070AAXX  06064 47842 42/80 /3211 1//// 2//// 30019 40150 5//// 555 3031/;
0097478420999992000030700004+31980+128350FM-12+011099999V0203401N008219999999N0250001N1+99999+99999101991ADDMA1999999100641REMSYN070AAXX  07004 47842 42/75 /3416 1//// 2//// 30064 40199 5//// 555 3043/;
0097478420999992000030706004+31980+128350FM-12+011099999V0203201N008719999999N0300001N1+99999+99999101761ADDMA1999999100431REMSYN070AAXX  07064 47842 42/80 /3217 1//// 2//// 30043 40176 5//// 555 3043/;
0097478420999992000030800004+31980+128350FM-12+011099999V0203201N006219999999N0100001N1+99999+99999102291ADDMA1999999100941REMSYN070AAXX  08004 47842 42/60 /3212 1//// 2//// 30094 40229 5//// 555 3033/;
0097478420999992000030806004+31980+128350FM-12+011099999V0203201N007219999999N0100001N1+99999+99999102141ADDMA1999999100781REMSYN070AAXX  08064 47842 42/60 /3214 1//// 2//// 30078 40214 5//// 555 3031/;
0097478420999992000030900004+31980+128350FM-12+011099999V0203601N004119999999N0250001N1+99999+99999102701ADDMA1999999101341REMSYN070AAXX  09004 47842 42/75 /3608 1//// 2//// 30134 40270 5//// 555 3033/;
0097478420999992000030906004+31980+128350FM-12+011099999V0203601N004119999999N0250001N1+99999+99999102551ADDMA1999999101201REMSYN070AAXX  09064 47842 42/75 /3608 1//// 2//// 30120 40255 5//// 555 3033/;
0097478420999992000031000004+31980+128350FM-12+011099999V0200201N005719999999N0150001N1+99999+99999102831ADDMA1999999101471REMSYN070AAXX  10004 47842 42/65 /0211 1//// 2//// 30147 40283 5//// 555 3031/;
0097478420999992000031006004+31980+128350FM-12+011099999V0200701N004119999999N0200001N1+99999+99999102521ADDMA1999999101171REMSYN070AAXX  10064 47842 42/70 /0708 1//// 2//// 30117 40252 5//// 555 3033/;
0109478420999992000031100004+31980+128350FM-12+011099999V0200401N007219999999N0100001N1+99999+99999101661ADDMA1999999100321MW1611REMSYN076AAXX  11004 47842 41/60 /0414 1//// 2//// 30032 40166 5//// 761// 555 3033/;
0109478420999992000031106004+31980+128350FM-12+011099999V0200201N006219999999N0150001N1+99999+99999101081ADDMA1999999099761MW1611REMSYN076AAXX  11064 47842 41/65 /0212 1//// 2//// 39976 40108 5//// 761// 555 3033/;
0109478420999992000031200004+31980+128350FM-12+011099999V0203101N009819999999N0050001N1+99999+99999101381ADDMA1999999100061MW1101REMSYN076AAXX  12004 47842 41/50 /3119 1//// 2//// 30006 40138 5//// 710// 555 3033/;
0109478420999992000031206004+31980+128350FM-12+011099999V0203101N005119999999N0050001N1+99999+99999101371ADDMA1999999100061MW1101REMSYN076AAXX  12064 47842 41/50 /3110 1//// 2//// 30006 40137 5//// 710// 555 3033/;
0097478420999992000031300004+31980+128350FM-12+011099999V0200201N003119999999N0100001N1+99999+99999102121ADDMA1999999100791REMSYN070AAXX  13004 47842 42/60 /0206 1//// 2//// 30079 40212 5//// 555 3021/;
0097478420999992000031306004+31980+128350FM-12+011099999V0200501N003119999999N0200001N1+99999+99999101981ADDMA1999999100661REMSYN070AAXX  13064 47842 42/70 /0506 1//// 2//// 30066 40198 5//// 555 3021/;
0097478420999992000031400004+31980+128350FM-12+011099999V0200301N005119999999N0200001N1+99999+99999102301ADDMA1999999100981REMSYN070AAXX  14004 47842 42/70 /0310 1//// 2//// 30098 40230 5//// 555 3031/;
0097478420999992000031406004+31980+128350FM-12+011099999V0200201N005119999999N0200001N1+99999+99999102111ADDMA1999999100791REMSYN070AAXX  14064 47842 42/70 /0210 1//// 2//// 30079 40211 5//// 555 3031/;
0097478420999992000031500004+31980+128350FM-12+011099999V0201201N005119999999N0100001N1+99999+99999101841ADDMA1999999100521REMSYN070AAXX  15004 47842 42/60 /1210 1//// 2//// 30052 40184 5//// 555 3031/;
0109478420999992000031506004+31980+128350FM-12+011099999V0201301N011319999999N0030001N1+99999+99999101141ADDMA1999999099841MW1611REMSYN076AAXX  15064 47842 41/30 /1322 1//// 2//// 39984 40114 5//// 761// 555 3053/;
0097478420999992000031600004+31980+128350FM-12+011099999V0203201N011319999999N0200001N1+99999+99999100621ADDMA1999999099331REMSYN070AAXX  16004 47842 42/70 /3222 1//// 2//// 39933 40062 5//// 555 3053/;
0097478420999992000031606004+31980+128350FM-12+011099999V0203201N011819999999N0150001N1+99999+99999100891ADDMA1999999099571REMSYN070AAXX  16064 47842 42/65 /3223 1//// 2//// 39957 40089 5//// 555 3053/;
0097478420999992000031706004+31980+128350FM-12+011099999V0202901N003619999999N0300001N1+99999+99999101841ADDMA1999999100521REMSYN070AAXX  17064 47842 42/80 /2907 1//// 2//// 30052 40184 5//// 555 3023/;
0097478420999992000031800004+31980+128350FM-12+011099999V0201101N002619999999N0200001N1+99999+99999102141ADDMA1999999100821REMSYN070AAXX  18004 47842 42/70 /1105 1//// 2//// 30082 40214 5//// 555 3021/;
0097478420999992000031806004+31980+128350FM-12+011099999V0201401N005119999999N0200001N1+99999+99999101861ADDMA1999999100551REMSYN070AAXX  18064 47842 42/70 /1410 1//// 2//// 30055 40186 5//// 555 3021/;
0097478420999992000031900004+31980+128350FM-12+011099999V0201401N003119999999N0200001N1+99999+99999101281ADDMA1999999099971REMSYN070AAXX  19004 47842 42/70 /1406 1//// 2//// 39997 40128 5//// 555 3021/;
0097478420999992000031906004+31980+128350FM-12+011099999V0203201N008219999999N0150001N1+99999+99999101141ADDMA1999999099831REMSYN070AAXX  19064 47842 42/65 /3216 1//// 2//// 39983 40114 5//// 555 3033/;
0097478420999992000032000004+31980+128350FM-12+011099999V0200301N005119999999N0150001N1+99999+99999102091ADDMA1999999100761REMSYN070AAXX  20004 47842 42/65 /0310 1//// 2//// 30076 40209 5//// 555 3033/;
0097478420999992000032006004+31980+128350FM-12+011099999V0200301N004119999999N0250001N1+99999+99999101911ADDMA1999999100581REMSYN070AAXX  20064 47842 42/75 /0308 1//// 2//// 30058 40191 5//// 555 3021/;
0097478420999992000032100004+31980+128350FM-12+011099999V0203201N000519999999N0100001N1+99999+99999101951ADDMA1999999100641REMSYN070AAXX  21004 47842 42/60 /3201 1//// 2//// 30064 40195 5//// 555 3021/;
0097478420999992000032106004+31980+128350FM-12+011099999V0200901N002619999999N0200001N1+99999+99999101621ADDMA1999999100311REMSYN070AAXX  21064 47842 42/70 /0905 1//// 2//// 30031 40162 5//// 555 3021/;
0097478420999992000032200004+31980+128350FM-12+011099999V0200401N007219999999N0150001N1+99999+99999102011ADDMA1999999100691REMSYN070AAXX  22004 47842 42/65 /0414 1//// 2//// 30069 40201 5//// 555 3033/;
0097478420999992000032206004+31980+128350FM-12+011099999V0200901N006219999999N0150001N1+99999+99999101871ADDMA1999999100551REMSYN070AAXX  22064 47842 42/65 /0912 1//// 2//// 30055 40187 5//// 555 3033/;
0109478420999992000032300004+31980+128350FM-12+011099999V0201401N010319999999N0030001N1+99999+99999101291ADDMA1999999099991MW1611REMSYN076AAXX  23004 47842 41/30 /1420 1//// 2//// 39999 40129 5//// 761// 555 3053/;
0097478420999992000032306004+31980+128350FM-12+011099999V0203401N010319999999N0100001N1+99999+99999101011ADDMA1999999099701REMSYN070AAXX  23064 47842 42/60 /3420 1//// 2//// 39970 40101 5//// 555 3053/;
0097478420999992000032400004+31980+128350FM-12+011099999V0203201N010819999999N0100001N1+99999+99999101781ADDMA1999999100461REMSYN070AAXX  24004 47842 42/60 /3221 1//// 2//// 30046 40178 5//// 555 3053/;
0097478420999992000032406004+31980+128350FM-12+011099999V0202901N010319999999N0100001N1+99999+99999101651ADDMA1999999100321REMSYN070AAXX  24064 47842 42/60 /2920 1//// 2//// 30032 40165 5//// 555 3053/;
0097478420999992000032500004+31980+128350FM-12+011099999V0203401N004619999999N0200001N1+99999+99999102471ADDMA1999999101131REMSYN070AAXX  25004 47842 42/70 /3409 1//// 2//// 30113 40247 5//// 555 3033/;
0097478420999992000032506004+31980+128350FM-12+011099999V0203201N006219999999N0200001N1+99999+99999102171ADDMA1999999100841REMSYN070AAXX  25064 47842 42/70 /3212 1//// 2//// 30084 40217 5//// 555 3033/;
0109478420999992000032600004+31980+128350FM-12+011099999V0203001N004119999999N0050001N1+99999+99999102191ADDMA1999999100851MW1101REMSYN076AAXX  26004 47842 41/50 /3008 1//// 2//// 30085 40219 5//// 710// 555 3033/;
0109478420999992000032606004+31980+128350FM-12+011099999V0202701N005119999999N0070001N1+99999+99999101881ADDMA1999999100571MW1101REMSYN076AAXX  26064 47842 41/57 /2710 1//// 2//// 30057 40188 5//// 710// 555 3033/;
0109478420999992000032700004+31980+128350FM-12+011099999V0202401N004619999999N0070001N1+99999+99999101881ADDMA1999999100571MW1101REMSYN076AAXX  27004 47842 41/57 /2409 1//// 2//// 30057 40188 5//// 710// 555 3031/;
0097478420999992000032706004+31980+128350FM-12+011099999V0201801N007719999999N0300001N1+99999+99999101481ADDMA1999999100191REMSYN070AAXX  27064 47842 42/80 /1815 1//// 2//// 30019 40148 5//// 555 3033/;
0097478420999992000032800004+31980+128350FM-12+011099999V0202901N008219999999N0100001N1+99999+99999100601ADDMA1999999099311REMSYN070AAXX  28004 47842 42/60 /2916 1//// 2//// 39931 40060 5//// 555 3043/;
0097478420999992000032806004+31980+128350FM-12+011099999V0202701N007219999999N0100001N1+99999+99999100461ADDMA1999999099171REMSYN070AAXX  28064 47842 42/60 /2714 1//// 2//// 39917 40046 5//// 555 3043/;
0109478420999992000032900004+31980+128350FM-12+011099999V0203201N014919999999N0070001N1+99999+99999101351ADDMA1999999100051MW1101REMSYN076AAXX  29004 47842 41/57 /3229 1//// 2//// 30005 40135 5//// 710// 555 3056/;
0109478420999992000032906004+31980+128350FM-12+011099999V0203201N013919999999N0070001N1+99999+99999101401ADDMA1999999100081MW1101REMSYN076AAXX  29064 47842 41/57 /3227 1//// 2//// 30008 40140 5//// 710// 555 3056/;
0097478420999992000033000004+31980+128350FM-12+011099999V0203101N005119999999N0200001N1+99999+99999101731ADDMA1999999100421REMSYN070AAXX  30004 47842 42/70 /3110 1//// 2//// 30042 40173 5//// 555 3033/;
0097478420999992000033006004+31980+128350FM-12+011099999V0203101N003119999999N0200001N1+99999+99999101521ADDMA1999999100211REMSYN070AAXX  30064 47842 42/70 /3106 1//// 2//// 30021 40152 5//// 555 3023/;
0097478420999992000033100004+31980+128350FM-12+011099999V0201801N008219999999N0150001N1+99999+99999101081ADDMA1999999099791REMSYN070AAXX  31004 47842 42/65 /1816 1//// 2//// 39979 40108 5//// 555 3031/;
0097478420999992000033106004+31980+128350FM-12+011099999V0202501N012319999999N0150001N1+99999+99999100781ADDMA1999999099521REMSYN070AAXX  31064 47842 42/65 /2524 1//// 2//// 39952 40078 5//// 555 3053/;
0097478420999992000040100004+31980+128350FM-12+011099999V0200201N009819999999N0100001N1+99999+99999101761ADDMA1999999100441REMSYN070AAXX  01004 47842 42/60 /0219 1//// 2//// 30044 40176 5//// 555 3043/;
0097478420999992000040106004+31980+128350FM-12+011099999V0200501N006219999999N0150001N1+99999+99999101631ADDMA1999999100321REMSYN070AAXX  01064 47842 42/65 /0512 1//// 2//// 30032 40163 5//// 555 3043/;
0109478420999992000040200004+31980+128350FM-12+011099999V0201201N017019999999N0100001N1+99999+99999101741ADDMA1999999100421MW1611REMSYN076AAXX  02004 47842 41/60 /1233 1//// 2//// 30042 40174 5//// 761// 555 3053/;
0109478420999992000040206004+31980+128350FM-12+011099999V0201201N008219999999N0100001N1+99999+99999101531ADDMA1999999100211MW1611REMSYN076AAXX  02064 47842 41/60 /1216 1//// 2//// 30021 40153 5//// 761// 555 3043/;
0097478420999992000040300004+31980+128350FM-12+011099999V0200401N005719999999N0150001N1+99999+99999101711ADDMA1999999100411REMSYN070AAXX  03004 47842 42/65 /0411 1//// 2//// 30041 40171 5//// 555 3033/;
0097478420999992000040306004+31980+128350FM-12+011099999V0203601N003119999999N0200001N1+99999+99999101461ADDMA1999999100161REMSYN070AAXX  03064 47842 42/70 /3606 1//// 2//// 30016 40146 5//// 555 3023/;
0109478420999992000040400004+31980+128350FM-12+011099999V0200901N009319999999N0100001N1+99999+99999101401ADDMA1999999100091MW1611REMSYN076AAXX  04004 47842 41/60 /0918 1//// 2//// 30009 40140 5//// 761// 555 3033/;
0109478420999992000040406004+31980+128350FM-12+011099999V0200401N007219999999N0050001N1+99999+99999100991ADDMA1999999099681MW1611REMSYN076AAXX  04064 47842 41/50 /0414 1//// 2//// 39968 40099 5//// 761// 555 3033/;
0097478420999992000040500004+31980+128350FM-12+011099999V0203201N008219999999N0300001N1+99999+99999101111ADDMA1999999099811REMSYN070AAXX  05004 47842 42/80 /3216 1//// 2//// 39981 40111 5//// 555 3033/;
0097478420999992000040506004+31980+128350FM-12+011099999V0203401N006219999999N0300001N1+99999+99999101111ADDMA1999999099811REMSYN070AAXX  05064 47842 42/80 /3412 1//// 2//// 39981 40111 5//// 555 3033/;
0097478420999992000040600004+31980+128350FM-12+011099999V0203601N003119999999N0150001N1+99999+99999102001ADDMA1999999100681REMSYN070AAXX  06004 47842 42/65 /3606 1//// 2//// 30068 40200 5//// 555 3021/;
0097478420999992000040606004+31980+128350FM-12+011099999V0203301N002119999999N0200001N1+99999+99999101861ADDMA1999999100561REMSYN070AAXX  06064 47842 42/70 /3304 1//// 2//// 30056 40186 5//// 555 3023/;
0097478420999992000040700004+31980+128350FM-12+011099999V0202701N002119999999N0300001N1+99999+99999102131ADDMA1999999100811REMSYN070AAXX  07004 47842 42/80 /2704 1//// 2//// 30081 40213 5//// 555 3021/;
0097478420999992000040706004+31980+128350FM-12+011099999V0209999C000019999999N0300001N1+99999+99999101901ADDMA1999999100601REMSYN070AAXX  07064 47842 42/80 /0000 1//// 2//// 30060 40190 5//// 555 3021/;
0097478420999992000040800004+31980+128350FM-12+011099999V0203601N006219999999N0100001N1+99999+99999102181ADDMA1999999100861REMSYN070AAXX  08004 47842 42/60 /3612 1//// 2//// 30086 40218 5//// 555 3033/;
0097478420999992000040806004+31980+128350FM-12+011099999V0203101N003119999999N0100001N1+99999+99999102051ADDMA1999999100731REMSYN070AAXX  08064 47842 42/60 /3106 1//// 2//// 30073 40205 5//// 555 3021/;
0097478420999992000040900004+31980+128350FM-12+011099999V0201101N006219999999N0100001N1+99999+99999101891ADDMA1999999100581REMSYN070AAXX  09004 47842 42/60 /1112 1//// 2//// 30058 40189 5//// 555 3031/;
0109478420999992000040906004+31980+128350FM-12+011099999V0201401N011819999999N0100001N1+99999+99999101511ADDMA1999999100201MW1611REMSYN076AAXX  09064 47842 41/60 /1423 1//// 2//// 30020 40151 5//// 761// 555 3053/;
0109478420999992000041000004+31980+128350FM-12+011099999V0203101N006719999999N0070001N1+99999+99999100981ADDMA1999999099681MW1101REMSYN076AAXX  10004 47842 41/57 /3113 1//// 2//// 39968 40098 5//// 710// 555 3033/;
0109478420999992000041006004+31980+128350FM-12+011099999V0203101N011319999999N0080001N1+99999+99999101221ADDMA1999999099901MW1101REMSYN076AAXX  10064 47842 41/58 /3122 1//// 2//// 39990 40122 5//// 710// 555 3043/;
0097478420999992000041100004+31980+128350FM-12+011099999V0203201N007219999999N0100001N1+99999+99999101841ADDMA1999999100511REMSYN070AAXX  11004 47842 42/60 /3214 1//// 2//// 30051 40184 5//// 555 3043/;
0097478420999992000041106004+31980+128350FM-12+011099999V0202901N005119999999N0200001N1+99999+99999101611ADDMA1999999100291REMSYN070AAXX  11064 47842 42/70 /2910 1//// 2//// 30029 40161 5//// 555 3033/;
0097478420999992000041200004+31980+128350FM-12+011099999V0202501N004619999999N0100001N1+99999+99999101301ADDMA1999999099991REMSYN070AAXX  12004 47842 42/60 /2509 1//// 2//// 39999 40130 5//// 555 3021/;
0097478420999992000041206004+31980+128350FM-12+011099999V0202501N006719999999N0150001N1+99999+99999100981ADDMA1999999099681REMSYN070AAXX  12064 47842 42/65 /2513 1//// 2//// 39968 40098 5//// 555 3031/;
0097478420999992000041300004+31980+128350FM-12+011099999V0202701N004619999999N0100001N1+99999+99999101241ADDMA1999999099951REMSYN070AAXX  13004 47842 42/60 /2709 1//// 2//// 39995 40124 5//// 555 3021/;
0097478420999992000041306004+31980+128350FM-12+011099999V0202501N006219999999N0200001N1+99999+99999101141ADDMA1999999099851REMSYN070AAXX  13064 47842 42/70 /2512 1//// 2//// 39985 40114 5//// 555 3031/;
0097478420999992000041400004+31980+128350FM-12+011099999V0201301N003119999999N0200001N1+99999+99999101321ADDMA1999999100031REMSYN070AAXX  14004 47842 42/70 /1306 1//// 2//// 30003 40132 5//// 555 3021/;
0097478420999992000041406004+31980+128350FM-12+011099999V0201201N003619999999N0100001N1+99999+99999100931ADDMA1999999099651REMSYN070AAXX  14064 47842 42/60 /1207 1//// 2//// 39965 40093 5//// 555 3021/;
0097478420999992000041500004+31980+128350FM-12+011099999V0200201N005719999999N0100001N1+99999+99999100591ADDMA1999999099301REMSYN070AAXX  15004 47842 42/60 /0211 1//// 2//// 39930 40059 5//// 555 3043/;
0097478420999992000041506004+31980+128350FM-12+011099999V0203101N005119999999N0150001N1+99999+99999100721ADDMA1999999099431REMSYN070AAXX  15064 47842 42/65 /3110 1//// 2//// 39943 40072 5//// 555 3033/;
0097478420999992000041600004+31980+128350FM-12+011099999V0203101N007719999999N0200001N1+99999+99999101281ADDMA1999999099971REMSYN070AAXX  16004 47842 42/70 /3115 1//// 2//// 39997 40128 5//// 555 3033/;
0097478420999992000041606004+31980+128350FM-12+011099999V0203401N005119999999N0200001N1+99999+99999101331ADDMA1999999100031REMSYN070AAXX  16064 47842 42/70 /3410 1//// 2//// 30003 40133 5//// 555 3033/;
0097478420999992000041700004+31980+128350FM-12+011099999V0202901N003119999999N0150001N1+99999+99999101861ADDMA1999999100561REMSYN070AAXX  17004 47842 42/65 /2906 1//// 2//// 30056 40186 5//// 555 3021/;
0097478420999992000041706004+31980+128350FM-12+011099999V0202901N003119999999N0200001N1+99999+99999101871ADDMA1999999100581REMSYN070AAXX  17064 47842 42/70 /2906 1//// 2//// 30058 40187 5//// 555 3021/;
0097478420999992000041800004+31980+128350FM-12+011099999V0201301N007719999999N0200001N1+99999+99999102041ADDMA1999999100741REMSYN070AAXX  18004 47842 42/70 /1315 1//// 2//// 30074 40204 5//// 555 3031/;
0097478420999992000041806004+31980+128350FM-12+011099999V0201301N002619999999N0200001N1+99999+99999101671ADDMA1999999100391REMSYN070AAXX  18064 47842 42/70 /1305 1//// 2//// 30039 40167 5//// 555 3021/;
0097478420999992000041900004+31980+128350FM-12+011099999V0202001N008219999999N0200001N1+99999+99999101121ADDMA1999999099831REMSYN070AAXX  19004 47842 42/70 /2016 1//// 2//// 39983 40112 5//// 555 3033/;
0097478420999992000041906004+31980+128350FM-12+011099999V0202501N008719999999N0150001N1+99999+99999100791ADDMA1999999099521REMSYN070AAXX  19064 47842 42/65 /2517 1//// 2//// 39952 40079 5//// 555 3043/;
0097478420999992000042000004+31980+128350FM-12+011099999V0200301N005119999999N0200001N1+99999+99999101201ADDMA1999999099901REMSYN070AAXX  20004 47842 42/70 /0310 1//// 2//// 39990 40120 5//// 555 3033/;
0097478420999992000042006004+31980+128350FM-12+011099999V0203601N003119999999N0250001N1+99999+99999101031ADDMA1999999099741REMSYN070AAXX  20064 47842 42/75 /3606 1//// 2//// 39974 40103 5//// 555 3023/;
0097478420999992000042106004+31980+128350FM-12+011099999V0203001N005119999999N0200001N1+99999+99999100851ADDMA1999999099571REMSYN070AAXX  21064 47842 42/70 /3010 1//// 2//// 39957 40085 5//// 555 3031/;
0109478420999992000042200004+31980+128350FM-12+011099999V0202501N004119999999N0020001N1+99999+99999100951ADDMA1999999099671MW1101REMSYN076AAXX  22004 47842 41/20 /2508 1//// 2//// 39967 40095 5//// 710// 555 3021/;
0109478420999992000042206004+31980+128350FM-12+011099999V0202501N009819999999N0030001N1+99999+99999100791ADDMA1999999099511MW1101REMSYN076AAXX  22064 47842 41/30 /2519 1//// 2//// 39951 40079 5//// 710// 555 3033/;
0097478420999992000042300004+31980+128350FM-12+011099999V0202901N004619999999N0300001N1+99999+99999101241ADDMA1999999099941REMSYN070AAXX  23004 47842 42/80 /2909 1//// 2//// 39994 40124 5//// 555 3021/;
0097478420999992000042306004+31980+128350FM-12+011099999V0202901N008719999999N0250001N1+99999+99999100981ADDMA1999999099701REMSYN070AAXX  23064 47842 42/75 /2917 1//// 2//// 39970 40098 5//// 555 3043/;
0097478420999992000042400004+31980+128350FM-12+011099999V0203201N003619999999N0300001N1+99999+99999101361ADDMA1999999100071REMSYN070AAXX  24004 47842 42/80 /3207 1//// 2//// 30007 40136 5//// 555 3021/;
0097478420999992000042406004+31980+128350FM-12+011099999V0203201N003119999999N0300001N1+99999+99999101361ADDMA1999999100071REMSYN070AAXX  24064 47842 42/80 /3206 1//// 2//// 30007 40136 5//// 555 3021/;
0097478420999992000042500004+31980+128350FM-12+011099999V0201201N004119999999N0200001N1+99999+99999101291ADDMA1999999100001REMSYN070AAXX  25004 47842 42/70 /1208 1//// 2//// 30000 40129 5//// 555 3021/;
0097478420999992000042506004+31980+128350FM-12+011099999V0201301N008219999999N0150001N1+99999+99999100921ADDMA1999999099631REMSYN070AAXX  25064 47842 42/65 /1316 1//// 2//// 39963 40092 5//// 555 3033/;
0109478420999992000042600004+31980+128350FM-12+011099999V0203001N004119999999N0070001N1+99999+99999099791ADDMA1999999098501MW1101REMSYN076AAXX  26004 47842 41/57 /3008 1//// 2//// 39850 49979 5//// 710// 555 3033/;
0097478420999992000042606004+31980+128350FM-12+011099999V0203201N005719999999N0300001N1+99999+99999100141ADDMA1999999098871REMSYN070AAXX  26064 47842 42/80 /3211 1//// 2//// 39887 40014 5//// 555 3033/;
0097478420999992000042700004+31980+128350FM-12+011099999V0203201N006719999999N0100001N1+99999+99999100821ADDMA1999999099541REMSYN070AAXX  27004 47842 42/60 /3213 1//// 2//// 39954 40082 5//// 555 3033/;
0097478420999992000042706004+31980+128350FM-12+011099999V0202901N007219999999N0250001N1+99999+99999100841ADDMA1999999099561REMSYN070AAXX  27064 47842 42/75 /2914 1//// 2//// 39956 40084 5//// 555 3033/;
0097478420999992000042800004+31980+128350FM-12+011099999V0203101N005119999999N0250001N1+99999+99999101491ADDMA1999999100191REMSYN070AAXX  28004 47842 42/75 /3110 1//// 2//// 30019 40149 5//// 555 3033/;
0097478420999992000042806004+31980+128350FM-12+011099999V0203301N004119999999N0300001N1+99999+99999101491ADDMA1999999100201REMSYN070AAXX  28064 47842 42/80 /3308 1//// 2//// 30020 40149 5//// 555 3033/;
0097478420999992000042900004+31980+128350FM-12+011099999V0201201N003119999999N0300001N1+99999+99999101911ADDMA1999999100611REMSYN070AAXX  29004 47842 42980 /1206 1//// 2//// 30061 40191 5//// 555 3021/;
0097478420999992000042906004+31980+128350FM-12+011099999V0201101N002119999999N0400001N1+99999+99999101711ADDMA1999999100431REMSYN070AAXX  29064 47842 42982 /1104 1//// 2//// 30043 40171 5//// 555 3021/;
0109478420999992000043000004+31980+128350FM-12+011099999V0201601N003619999999N0080001N1+99999+99999101171ADDMA1999999099871MW1601REMSYN076AAXX  30004 47842 41/58 /1607 1//// 2//// 39987 40117 5//// 760// 555 3021/;
0109478420999992000043006004+31980+128350FM-12+011099999V0201601N007219999999N0010001N1+99999+99999100661ADDMA1999999099371MW1601REMSYN076AAXX  30064 47842 41/10 /1614 1//// 2//// 39937 40066 5//// 760// 555 3031/;
0097478420999992000050100004+31980+128350FM-12+011099999V0201601N003619999999N0200001N1+99999+99999101121ADDMA1999999099821REMSYN070AAXX  01004 47842 42/70 /1607 1//// 2//// 39982 40112 5//// 555 3031/;
0097478420999992000050106004+31980+128350FM-12+011099999V0203201N003119999999N0150001N1+99999+99999101071ADDMA1999999099771REMSYN070AAXX  01064 47842 42/65 /3206 1//// 2//// 39977 40107 5//// 555 3021/;
0109478420999992000050200004+31980+128350FM-12+011099999V0202901N004119999999N0080001N1+99999+99999101201ADDMA1999999099111MW1101REMSYN076AAXX  02004 47842 41/58 /2908 1//// 2//// 39911 40120 5//// 710// 555 3021/;
0097478420999992000050206004+31980+128350FM-12+011099999V0203201N005119999999N0200001N1+99999+99999101181ADDMA1999999099891REMSYN070AAXX  02064 47842 42/70 /3210 1//// 2//// 39989 40118 5//// 555 3031/;
0097478420999992000050300004+31980+128350FM-12+011099999V0200301N002119999999N0200001N1+99999+99999101461ADDMA1999999100161REMSYN070AAXX  03004 47842 42/70 /0304 1//// 2//// 30016 40146 5//// 555 3021/;
0097478420999992000050306004+31980+128350FM-12+011099999V0203301N003119999999N0300001N1+99999+99999101431ADDMA1999999100161REMSYN070AAXX  03064 47842 42/80 /3306 1//// 2//// 30016 40143 5//// 555 3021/;
0097478420999992000050400004+31980+128350FM-12+011099999V0201401N002619999999N0200001N1+99999+99999101611ADDMA1999999100321REMSYN070AAXX  04004 47842 42/70 /1405 1//// 2//// 30032 40161 5//// 555 3021/;
0097478420999992000050406004+31980+128350FM-12+011099999V0202701N001519999999N0200001N1+99999+99999101571ADDMA1999999100291REMSYN070AAXX  04064 47842 42/70 /2703 1//// 2//// 30029 40157 5//// 555 3021/;
0097478420999992000050500004+31980+128350FM-12+011099999V0202401N002619999999N0200001N1+99999+99999101811ADDMA1999999100531REMSYN070AAXX  05004 47842 42/70 /2405 1//// 2//// 30053 40181 5//// 555 3021/;
0097478420999992000050506004+31980+128350FM-12+011099999V0202501N003619999999N0200001N1+99999+99999101721ADDMA1999999100441REMSYN070AAXX  05064 47842 42/70 /2507 1//// 2//// 30044 40172 5//// 555 3021/;
0097478420999992000050600004+31980+128350FM-12+011099999V0202701N003119999999N0150001N1+99999+99999101781ADDMA1999999100501REMSYN070AAXX  06004 47842 42/65 /2706 1//// 2//// 30050 40178 5//// 555 3031/;
0097478420999992000050606004+31980+128350FM-12+011099999V0202501N004619999999N0200001N1+99999+99999101621ADDMA1999999100341REMSYN070AAXX  06064 47842 42/70 /2509 1//// 2//// 30034 40162 5//// 555 3021/;
0097478420999992000050700004+31980+128350FM-12+011099999V0203401N005119999999N0100001N1+99999+99999101711ADDMA1999999100421REMSYN070AAXX  07004 47842 42/60 /3410 1//// 2//// 30042 40171 5//// 555 3031/;
0097478420999992000050706004+31980+128350FM-12+011099999V0209999C000019999999N0400001N1+99999+99999101661ADDMA1999999100321REMSYN070AAXX  07064 47842 42/82 /0000 1//// 2//// 30032 40166 5//// 555 3031/;
0097478420999992000050800004+31980+128350FM-12+011099999V0203101N002119999999N0200001N1+99999+99999101801ADDMA1999999100511REMSYN070AAXX  08004 47842 42/70 /3104 1//// 2//// 30051 40180 5//// 555 3021/;
0097478420999992000050806004+31980+128350FM-12+011099999V0203101N002619999999N0200001N1+99999+99999101591ADDMA1999999100311REMSYN070AAXX  08064 47842 42/70 /3105 1//// 2//// 30031 40159 5//// 555 3021/;
0097478420999992000050900004+31980+128350FM-12+011099999V0200901N004119999999N0200001N1+99999+99999101421ADDMA1999999100141REMSYN070AAXX  09004 47842 42/70 /0908 1//// 2//// 30014 40142 5//// 555 3021/;
0097478420999992000050906004+31980+128350FM-12+011099999V0201401N005719999999N0150001N1+99999+99999101131ADDMA1999999099851REMSYN070AAXX  09064 47842 42/65 /1411 1//// 2//// 39985 40113 5//// 555 3031/;
0097478420999992000051000004+31980+128350FM-12+011099999V0201401N009319999999N0100001N1+99999+99999100961ADDMA1999999099681REMSYN070AAXX  10004 47842 42/60 /1418 1//// 2//// 39968 40096 5//// 555 3043/;
0097478420999992000051006004+31980+128350FM-12+011099999V0201401N009319999999N0100001N1+99999+99999100741ADDMA1999999099471REMSYN070AAXX  10064 47842 42/60 /1418 1//// 2//// 39947 40074 5//// 555 3043/;
0097478420999992000051100004+31980+128350FM-12+011099999V0203201N002619999999N0200001N1+99999+99999100891ADDMA1999999099611REMSYN070AAXX  11004 47842 42/70 /3205 1//// 2//// 39961 40089 5//// 555 3021/;
0097478420999992000051106004+31980+128350FM-12+011099999V0203401N005719999999N0150001N1+99999+99999100761ADDMA1999999099481REMSYN070AAXX  11064 47842 42/65 /3411 1//// 2//// 39948 40076 5//// 555 3021/;
0097478420999992000051200004+31980+128350FM-12+011099999V0202701N002619999999N0150001N1+99999+99999100951ADDMA1999999099671REMSYN070AAXX  12004 47842 42/65 /2705 1//// 2//// 39967 40095 5//// 555 3021/;
0097478420999992000051206004+31980+128350FM-12+011099999V0202901N001519999999N0200001N1+99999+99999100811ADDMA1999999099541REMSYN070AAXX  12064 47842 42/70 /2903 1//// 2//// 39954 40081 5//// 555 3021/;
0109478420999992000051300004+31980+128350FM-12+011099999V0201501N008719999999N0060001N1+99999+99999100641ADDMA1999999099371MW1101REMSYN076AAXX  13004 47842 41/56 /1517 1//// 2//// 39937 40064 5//// 710// 555 3033/;
0097478420999992000051306004+31980+128350FM-12+011099999V0202401N008219999999N0150001N1+99999+99999100651ADDMA1999999099401REMSYN070AAXX  13064 47842 42/65 /2416 1//// 2//// 39940 40065 5//// 555 3031/;
0097478420999992000051400004+31980+128350FM-12+011099999V0203001N003119999999N0100001N1+99999+99999101061ADDMA1999999099781REMSYN070AAXX  14004 47842 42/60 /3006 1//// 2//// 39978 40106 5//// 555 3021/;
0096478420999992000051406004+31980+128350FM-12+011099999V0203201N002619999999N0100001N1+99999+99999101061ADDMA1999999099781REMSYN069AAXX  14064 47842 42/60 /3205 1//// 2//// 39978 40106 5/// 555 3021/;
0097478420999992000051500004+31980+128350FM-12+011099999V0201201N001019999999N0100001N1+99999+99999101181ADDMA1999999099891REMSYN070AAXX  15004 47842 42/60 /1202 1//// 2//// 39989 40118 5//// 555 3021/;
0109478420999992000051506004+31980+128350FM-12+011099999V0200701N004119999999N0080001N1+99999+99999101081ADDMA1999999099791MW1101REMSYN076AAXX  15064 47842 41/58 /0708 1//// 2//// 39979 40108 5//// 710// 555 3021/;
0109478420999992000051600004+31980+128350FM-12+011099999V0201101N004119999999N0080001N1+99999+99999100951ADDMA1999999099671MW1101REMSYN076AAXX  16004 47842 41/58 /1108 1//// 2//// 39967 40095 5//// 710// 555 3021/;
0109478420999992000051606004+31980+128350FM-12+011099999V0202201N005119999999N0001001N1+99999+99999100871ADDMA1999999099581MW1601REMSYN076AAXX  16064 47842 41/01 /2210 1//// 2//// 39958 40087 5//// 760// 555 3021/;
0097478420999992000051700004+31980+128350FM-12+011099999V0203201N002619999999N0100001N1+99999+99999100921ADDMA1999999099641REMSYN070AAXX  17004 47842 42/60 /3205 1//// 2//// 39964 40092 5//// 555 3021/;
0097478420999992000051706004+31980+128350FM-12+011099999V0203401N005119999999N0100001N1+99999+99999100811ADDMA1999999099531REMSYN070AAXX  17064 47842 42/60 /3410 1//// 2//// 39953 40081 5//// 555 3021/;
0097478420999992000051800004+31980+128350FM-12+011099999V0200301N004119999999N0200001N1+99999+99999101001ADDMA1999999099711REMSYN070AAXX  18004 47842 42/70 /0308 1//// 2//// 39971 40100 5//// 555 3021/;
0097478420999992000051806004+31980+128350FM-12+011099999V0200501N004119999999N0150001N1+99999+99999100811ADDMA1999999099531REMSYN070AAXX  18064 47842 42/65 /0508 1//// 2//// 39953 40081 5//// 555 3021/;
0097478420999992000051900004+31980+128350FM-12+011099999V0203401N003119999999N0100001N1+99999+99999100981ADDMA1999999099701REMSYN070AAXX  19004 47842 42/60 /3406 1//// 2//// 39970 40098 5//// 555 3021/;
0097478420999992000051906004+31980+128350FM-12+011099999V0201501N006719999999N0100001N1+99999+99999100811ADDMA1999999099551REMSYN070AAXX  19064 47842 42/60 /1513 1//// 2//// 39955 40081 5//// 555 3031/;
0097478420999992000052000004+31980+128350FM-12+011099999V0209999C000019999999N0100001N1+99999+99999100871ADDMA1999999099601REMSYN070AAXX  20004 47842 42/60 /0000 1//// 2//// 39960 40087 5//// 555 3021/;
0109478420999992000052006004+31980+128350FM-12+011099999V0202901N004119999999N0040001N1+99999+99999100921ADDMA1999999099651MW1101REMSYN076AAXX  20064 47842 41/40 /2908 1//// 2//// 39965 40092 5//// 710// 555 3021/;
0109478420999992000052100004+31980+128350FM-12+011099999V0203201N002119999999N0080001N1+99999+99999101411ADDMA1999999100131MW1101REMSYN076AAXX  21004 47842 41/58 /3204 1//// 2//// 30013 40141 5//// 710// 555 3021/;
0097478420999992000052106004+31980+128350FM-12+011099999V0203201N001519999999N0100001N1+99999+99999101431ADDMA1999999100161REMSYN070AAXX  21064 47842 42/60 /3203 1//// 2//// 30016 40143 5//// 555 3021/;
0097478420999992000052200004+31980+128350FM-12+011099999V0201801N003619999999N0150001N1+99999+99999101641ADDMA1999999100361REMSYN070AAXX  22004 47842 42/65 /1807 1//// 2//// 30036 40164 5//// 555 3021/;
0097478420999992000052206004+31980+128350FM-12+011099999V0202301N003119999999N0100001N1+99999+99999101491ADDMA1999999100241REMSYN070AAXX  22064 47842 42/60 /2306 1//// 2//// 30024 40149 5//// 555 3021/;
0097478420999992000052300004+31980+128350FM-12+011099999V0202501N004119999999N0100001N1+99999+99999101621ADDMA1999999100351REMSYN070AAXX  23004 47842 42/60 /2508 1//// 2//// 30035 40162 5//// 555 3021/;
0097478420999992000052306004+31980+128350FM-12+011099999V0203001N002119999999N0200001N1+99999+99999101501ADDMA1999999100231REMSYN070AAXX  23064 47842 42/70 /3004 1//// 2//// 30023 40150 5//// 555 3021/;
0097478420999992000052400004+31980+128350FM-12+011099999V0203201N002119999999N0150001N1+99999+99999101551ADDMA1999999100281REMSYN070AAXX  24004 47842 42/65 /3204 1//// 2//// 30028 40155 5//// 555 3021/;
0097478420999992000052406004+31980+128350FM-12+011099999V0203201N002119999999N0200001N1+99999+99999101281ADDMA1999999100011REMSYN070AAXX  24064 47842 42/70 /3204 1//// 2//// 30001 40128 5//// 555 3021/;
0097478420999992000052500004+31980+128350FM-12+011099999V0203601N003119999999N0150001N1+99999+99999101271ADDMA1999999100001REMSYN070AAXX  25004 47842 42/65 /3606 1//// 2//// 30000 40127 5//// 555 3021/;
0097478420999992000052506004+31980+128350FM-12+011099999V0201201N001519999999N0100001N1+99999+99999101131ADDMA1999999099871REMSYN070AAXX  25064 47842 42/60 /1203 1//// 2//// 39987 40113 5//// 555 3021/;
0109478420999992000052600004+31980+128350FM-12+011099999V0201301N010819999999N0080001N1+99999+99999101041ADDMA1999999099781MW1101REMSYN076AAXX  26004 47842 41/58 /1321 1//// 2//// 39978 40104 5//// 710// 555 3043/;
0109478420999992000052606004+31980+128350FM-12+011099999V0201101N017019999999N0080001N1+99999+99999100611ADDMA1999999099361MW1611REMSYN076AAXX  26064 47842 41/58 /1133 1//// 2//// 39936 40061 5//// 761// 555 3053/;
0109478420999992000052700004+31980+128350FM-12+011099999V0202301N011819999999N0002001N1+99999+99999100221ADDMA1999999098971MW1451REMSYN076AAXX  27004 47842 41/02 /2323 1//// 2//// 39897 40022 5//// 745// 555 3053/;
0097478420999992000052706004+31980+128350FM-12+011099999V0202701N009319999999N0050001N1+99999+99999100221ADDMA1999999098961REMSYN070AAXX  27064 47842 42/50 /2718 1//// 2//// 39896 40022 5//// 555 3043/;
0109478420999992000052800004+31980+128350FM-12+011099999V0203001N007219999999N0060001N1+99999+99999100791ADDMA1999999099521MW1101REMSYN076AAXX  28004 47842 41/56 /3014 1//// 2//// 39952 40079 5//// 710// 555 3033/;
0097478420999992000052806004+31980+128350FM-12+011099999V0203001N008219999999N0100001N1+99999+99999100811ADDMA1999999099541REMSYN070AAXX  28064 47842 42/60 /3016 1//// 2//// 39954 40081 5//// 555 3043/;
0097478420999992000052900004+31980+128350FM-12+011099999V0203401N001519999999N0100001N1+99999+99999101351ADDMA1999999100071REMSYN070AAXX  29004 47842 42/60 /3403 1//// 2//// 30007 40135 5//// 555 3021/;
0097478420999992000052906004+31980+128350FM-12+011099999V0201801N001019999999N0150001N1+99999+99999101241ADDMA1999999099971REMSYN070AAXX  29064 47842 42/65 /1802 1//// 2//// 39997 40124 5//// 555 3021/;
0097478420999992000053000004+31980+128350FM-12+011099999V0201501N002119999999N0100001N1+99999+99999101141ADDMA1999999099871REMSYN070AAXX  30004 47842 42/60 /1504 1//// 2//// 39987 40114 5//// 555 3021/;
0109478420999992000053006004+31980+128350FM-12+011099999V0200901N005119999999N0050001N1+99999+99999100761ADDMA1999999099481MW1611REMSYN076AAXX  30064 47842 41/50 /0910 1//// 2//// 39948 40076 5//// 761// 555 3031/;
0109478420999992000053100004+31980+128350FM-12+011099999V0202201N007719999999N0005001N1+99999+99999100271ADDMA1999999099011MW1511REMSYN076AAXX  31004 47842 41/05 /2215 1//// 2//// 39901 40027 5//// 751// 555 3043/;
0109478420999992000053106004+31980+128350FM-12+011099999V0203201N008219999999N0005001N1+99999+99999100351ADDMA1999999099081MW1611REMSYN076AAXX  31064 47842 41/05 /3216 1//// 2//// 39908 40035 5//// 761// 555 3033/;
0097478420999992000060100004+31980+128350FM-12+011099999V0209999C000019999999N0100001N1+99999+99999101191ADDMA1999999099911REMSYN070AAXX  01004 47842 42/60 /0000 1//// 2//// 39991 40119 5//// 555 3021/;
0097478420999992000060106004+31980+128350FM-12+011099999V0201301N001519999999N0200001N1+99999+99999101171ADDMA1999999099911REMSYN070AAXX  01064 47842 42/70 /1303 1//// 2//// 39991 40117 5//// 555 3021/;
0097478420999992000060200004+31980+128350FM-12+011099999V0200601N005119999999N0100001N1+99999+99999101401ADDMA1999999100131REMSYN070AAXX  02004 47842 42/60 /0610 1//// 2//// 30013 40140 5//// 555 3021/;
0097478420999992000060206004+31980+128350FM-12+011099999V0201101N008219999999N0100001N1+99999+99999101171ADDMA1999999099901REMSYN070AAXX  02064 47842 42/60 /1116 1//// 2//// 39990 40117 5//// 555 3031/;
0109478420999992000060300004+31980+128350FM-12+011099999V0202701N003619999999N0010001N1+99999+99999100521ADDMA1999999099261MW1611REMSYN076AAXX  03004 47842 41/10 /2707 1//// 2//// 39926 40052 5//// 761// 555 3033/;
0109478420999992000060306004+31980+128350FM-12+011099999V0200201N004619999999N0010001N1+99999+99999100591ADDMA1999999099321MW1101REMSYN076AAXX  03064 47842 41/10 /0209 1//// 2//// 39932 40059 5//// 710// 555 3033/;
0109478420999992000060400004+31980+128350FM-12+011099999V0200701N008719999999N0050001N1+99999+99999100501ADDMA1999999099221MW1611REMSYN076AAXX  04004 47842 41/50 /0717 1//// 2//// 39922 40050 5//// 761// 555 3053/;
0097478420999992000060406004+31980+128350FM-12+011099999V0200701N003619999999N0150001N1+99999+99999100581ADDMA1999999099311REMSYN070AAXX  04064 47842 42/65 /0707 1//// 2//// 39931 40058 5//// 555 3031/;
0097478420999992000060500004+31980+128350FM-12+011099999V0200901N003619999999N0100001N1+99999+99999100781ADDMA1999999099521REMSYN070AAXX  05004 47842 42960 /0907 1//// 2//// 39952 40078 5//// 555 3021/;
0097478420999992000060506004+31980+128350FM-12+011099999V0200201N002119999999N0300001N1+99999+99999100721ADDMA1999999099471REMSYN070AAXX  05064 47842 42/80 /0204 1//// 2//// 39947 40072 5//// 555 3031/;
0097478420999992000060600004+31980+128350FM-12+011099999V0203101N002119999999N0200001N1+99999+99999100881ADDMA1999999099621REMSYN070AAXX  06004 47842 42/70 /3104 1//// 2//// 39962 40088 5//// 555 3021/;
0097478420999992000060606004+31980+128350FM-12+011099999V0203001N002619999999N0250001N1+99999+99999100811ADDMA1999999099561REMSYN070AAXX  06064 47842 42/75 /3005 1//// 2//// 39956 40081 5//// 555 3021/;
0097478420999992000060700004+31980+128350FM-12+011099999V0209999C000019999999N0100001N1+99999+99999100971ADDMA1999999099711REMSYN070AAXX  07004 47842 42/60 /0000 1//// 2//// 39971 40097 5//// 555 3021/;
0097478420999992000060706004+31980+128350FM-12+011099999V0201601N002119999999N0200001N1+99999+99999100861ADDMA1999999099601REMSYN070AAXX  07064 47842 42/70 /1604 1//// 2//// 39960 40086 5//// 555 3021/;
0097478420999992000060800004+31980+128350FM-12+011099999V0201401N005119999999N0200001N1+99999+99999100471ADDMA1999999099221REMSYN070AAXX  08004 47842 42/70 /1410 1//// 2//// 39922 40047 5//// 555 3031/;
0109478420999992000060806004+31980+128350FM-12+011099999V0201801N013419999999N0010001N1+99999+99999099701ADDMA1999999098431MW1611REMSYN076AAXX  08064 47842 41/10 /1826 1//// 2//// 39843 49970 5//// 761// 555 3053/;
0109478420999992000060900004+31980+128350FM-12+011099999V0200701N002119999999N0150001N1+99999+99999100541ADDMA1999999099271MW1611REMSYN076AAXX  09004 47842 41/65 /0704 1//// 2//// 39927 40054 5//// 761// 555 3021/;
0097478420999992000060906004+31980+128350FM-12+011099999V0200701N002619999999N0200001N1+99999+99999100721ADDMA1999999099441REMSYN070AAXX  09064 47842 42/70 /0705 1//// 2//// 39944 40072 5//// 555 3021/;
0097478420999992000061000004+31980+128350FM-12+011099999V0201201N004119999999N0100001N1+99999+99999100991ADDMA1999999099721REMSYN070AAXX  10004 47842 42/60 /1208 1//// 2//// 39972 40099 5//// 555 3033/;
0109478420999992000061006004+31980+128350FM-12+011099999V0201201N006719999999N0100001N1+99999+99999100891ADDMA1999999099621MW1611REMSYN076AAXX  10064 47842 41/60 /1213 1//// 2//// 39962 40089 5//// 761// 555 3033/;
0097478420999992000061100004+31980+128350FM-12+011099999V0201301N006219999999N0150001N1+99999+99999100931ADDMA1999999099661REMSYN070AAXX  11004 47842 42/65 /1312 1//// 2//// 39966 40093 5//// 555 3033/;
0097478420999992000061106004+31980+128350FM-12+011099999V0200901N002119999999N0200001N1+99999+99999100811ADDMA1999999099541REMSYN070AAXX  11064 47842 42/70 /0904 1//// 2//// 39954 40081 5//// 555 3023/;
0097478420999992000061200004+31980+128350FM-12+011099999V0200401N005119999999N0150001N1+99999+99999100601ADDMA1999999099331REMSYN070AAXX  12004 47842 42/65 /0410 1//// 2//// 39933 40060 5//// 555 3021/;
0097478420999992000061206004+31980+128350FM-12+011099999V0200401N003619999999N0100001N1+99999+99999100531ADDMA1999999099261REMSYN070AAXX  12064 47842 42/60 /0407 1//// 2//// 39926 40053 5//// 555 3021/;
0097478420999992000061300004+31980+128350FM-12+011099999V0200201N006219999999N0200001N1+99999+99999100591ADDMA1999999099321REMSYN070AAXX  13004 47842 42/70 /0212 1//// 2//// 39932 40059 5//// 555 3033/;
0097478420999992000061306004+31980+128350FM-12+011099999V0203401N007219999999N0300001N1+99999+99999100461ADDMA1999999099201REMSYN070AAXX  13064 47842 42/80 /3414 1//// 2//// 39920 40046 5//// 555 3031/;
0097478420999992000061400004+31980+128350FM-12+011099999V0203201N004619999999N0200001N1+99999+99999100771ADDMA1999999099511REMSYN070AAXX  14004 47842 42/70 /3209 1//// 2//// 39951 40077 5//// 555 3031/;
0097478420999992000061406004+31980+128350FM-12+011099999V0202901N002119999999N0200001N1+99999+99999100811ADDMA1999999099551REMSYN070AAXX  14064 47842 42/70 /2904 1//// 2//// 39955 40081 5//// 555 3031/;
0097478420999992000061500004+31980+128350FM-12+011099999V0200901N002119999999N0150001N1+99999+99999101201ADDMA1999999099941REMSYN070AAXX  15004 47842 42/65 /0904 1//// 2//// 39994 40120 5//// 555 3021/;
0097478420999992000061506004+31980+128350FM-12+011099999V0201401N003119999999N0200001N1+99999+99999101171ADDMA1999999099911REMSYN070AAXX  15064 47842 42/70 /1406 1//// 2//// 39991 40117 5//// 555 3021/;
0097478420999992000061600004+31980+128350FM-12+011099999V0201201N007219999999N0200001N1+99999+99999101301ADDMA1999999100031REMSYN070AAXX  16004 47842 42/70 /1214 1//// 2//// 30003 40130 5//// 555 3033/;
0097478420999992000061606004+31980+128350FM-12+011099999V0200901N003619999999N0200001N1+99999+99999101151ADDMA1999999099891REMSYN070AAXX  16064 47842 42/70 /0907 1//// 2//// 39989 40115 5//// 555 3021/;
0097478420999992000061700004+31980+128350FM-12+011099999V0200501N008719999999N0070001N1+99999+99999100771ADDMA1999999099501REMSYN070AAXX  17004 47842 42/57 /0517 1//// 2//// 39950 40077 5//// 555 3033/;
0109478420999992000061706004+31980+128350FM-12+011099999V0201301N004619999999N0080001N1+99999+99999100661ADDMA1999999099401MW1101REMSYN076AAXX  17064 47842 41/58 /1309 1//// 2//// 39940 40066 5//// 710// 555 3023/;
0109478420999992000061800004+31980+128350FM-12+011099999V0201201N002619999999N0001001N1+99999+99999100941ADDMA1999999099671MW1611REMSYN076AAXX  18004 47842 41/01 /1205 1//// 2//// 39967 40094 5//// 761// 555 3021/;
0109478420999992000061806004+31980+128350FM-12+011099999V0200201N002119999999N0003001N1+99999+99999100871ADDMA1999999099601MW1611REMSYN076AAXX  18064 47842 41/03 /0204 1//// 2//// 39960 40087 5//// 761// 555 3021/;
0109478420999992000061900004+31980+128350FM-12+011099999V0203201N001519999999N0080001N1+99999+99999101061ADDMA1999999099781MW1101REMSYN076AAXX  19004 47842 41/58 /3203 1//// 2//// 39978 40106 5//// 710// 555 3021/;
0109478420999992000061906004+31980+128350FM-12+011099999V0202901N002619999999N0080001N1+99999+99999100991ADDMA1999999099721MW1101REMSYN076AAXX  19064 47842 41/58 /2905 1//// 2//// 39972 40099 5//// 710// 555 3021/;
0097478420999992000062000004+31980+128350FM-12+011099999V0201601N002119999999N0100001N1+99999+99999101091ADDMA1999999099831REMSYN070AAXX  20004 47842 42/60 /1604 1//// 2//// 39983 40109 5//// 555 3021/;
0109478420999992000062006004+31980+128350FM-12+011099999V0201401N006219999999N0080001N1+99999+99999100881ADDMA1999999099621MW1611REMSYN076AAXX  20064 47842 41/58 /1412 1//// 2//// 39962 40088 5//// 761// 555 3031/;
0097478420999992000062100004+31980+128350FM-12+011099999V0203001N004119999999N0100001N1+99999+99999100891ADDMA1999999099631REMSYN070AAXX  21004 47842 42/60 /3008 1//// 2//// 39963 40089 5//// 555 3033/;
0097478420999992000062106004+31980+128350FM-12+011099999V0200901N001519999999N0150001N1+99999+99999100901ADDMA1999999099641REMSYN070AAXX  21064 47842 42/65 /0903 1//// 2//// 39964 40090 5//// 555 3021/;
0097478420999992000062200004+31980+128350FM-12+011099999V0202201N009819999999N0100001N1+99999+99999100791ADDMA1999999099531REMSYN070AAXX  22004 47842 42/60 /2219 1//// 2//// 39953 40079 5//// 555 3043/;
0097478420999992000062206004+31980+128350FM-12+011099999V0202401N011819999999N0100001N1+99999+99999100721ADDMA1999999099471REMSYN070AAXX  22064 47842 42/60 /2423 1//// 2//// 39947 40072 5//// 555 3053/;
0097478420999992000062300004+31980+128350FM-12+011099999V0202401N008719999999N0100001N1+99999+99999100801ADDMA1999999099551REMSYN070AAXX  23004 47842 42/60 /2417 1//// 2//// 39955 40080 5//// 555 3043/;
0097478420999992000062306004+31980+128350FM-12+011099999V0202501N012319999999N0100001N1+99999+99999100601ADDMA1999999099351REMSYN070AAXX  23064 47842 42/60 /2524 1//// 2//// 39935 40060 5//// 555 3053/;
0097478420999992000062400004+31980+128350FM-12+011099999V0202501N008219999999N0100001N1+99999+99999100661ADDMA1999999099411REMSYN070AAXX  24004 47842 42/60 /2516 1//// 2//// 39941 40066 5//// 555 3043/;
0097478420999992000062406004+31980+128350FM-12+011099999V0202501N009319999999N0150001N1+99999+99999100511ADDMA1999999099261REMSYN070AAXX  24064 47842 42/65 /2518 1//// 2//// 39926 40051 5//// 555 3043/;
0109478420999992000062500004+31980+128350FM-12+011099999V0202701N002119999999N0000001N1+99999+99999100781ADDMA1999999099531MW1451REMSYN076AAXX  25004 47842 41/00 /2704 1//// 2//// 39953 40078 5//// 745// 555 30///;
0109478420999992000062506004+31980+128350FM-12+011099999V0202701N001519999999N0005001N1+99999+99999100751ADDMA1999999099501MW1451REMSYN076AAXX  25064 47842 41/05 /2703 1//// 2//// 39950 40075 5//// 745// 555 3021/;
0109478420999992000062600004+31980+128350FM-12+011099999V0202201N005719999999N0080001N1+99999+99999100891ADDMA1999999099641MW1101REMSYN076AAXX  26004 47842 41/58 /2211 1//// 2//// 39964 40089 5//// 710// 555 3031/;
0097478420999992000062606004+31980+128350FM-12+011099999V0202201N007719999999N0100001N1+99999+99999100791ADDMA1999999099541REMSYN070AAXX  26064 47842 42/60 /2215 1//// 2//// 39954 40079 5//// 555 3033/;
0097478420999992000062700004+31980+128350FM-12+011099999V0202201N011819999999N0100001N1+99999+99999100641ADDMA1999999099401REMSYN070AAXX  27004 47842 42/60 /2223 1//// 2//// 39940 40064 5//// 555 3053/;
0097478420999992000062706004+31980+128350FM-12+011099999V0202201N011319999999N0100001N1+99999+99999100451ADDMA1999999099211REMSYN070AAXX  27064 47842 42/60 /2222 1//// 2//// 39921 40045 5//// 555 3053/;
0109478420999992000062800004+31980+128350FM-12+011099999V0202501N007219999999N0050001N1+99999+99999100411ADDMA1999999099161MW1611REMSYN076AAXX  28004 47842 41/50 /2514 1//// 2//// 39916 40041 5//// 761// 555 3033/;
0097478420999992000062806004+31980+128350FM-12+011099999V0202901N006219999999N0200001N1+99999+99999100271ADDMA1999999099031REMSYN070AAXX  28064 47842 42/70 /2912 1//// 2//// 39903 40027 5//// 555 3033/;
0097478420999992000062900004+31980+128350FM-12+011099999V0201801N001019999999N0200001N1+99999+99999100561ADDMA1999999099321REMSYN070AAXX  29004 47842 42/70 /1802 1//// 2//// 39932 40056 5//// 555 3021/;
0097478420999992000062906004+31980+128350FM-12+011099999V0201401N003119999999N0200001N1+99999+99999100491ADDMA1999999099251REMSYN070AAXX  29064 47842 42/70 /1406 1//// 2//// 39925 40049 5//// 555 3021/;
0097478420999992000063000004+31980+128350FM-12+011099999V0202201N007219999999N0100001N1+99999+99999100861ADDMA1999999099621REMSYN070AAXX  30004 47842 42/60 /2214 1//// 2//// 39962 40086 5//// 555 3033/;
0097478420999992000063006004+31980+128350FM-12+011099999V0202001N008719999999N0300001N1+99999+99999100861ADDMA1999999099611REMSYN070AAXX  30064 47842 42/80 /2017 1//// 2//// 39961 40086 5//// 555 3043/;
0097478420999992000070100004+31980+128350FM-12+011099999V0201801N003119999999N0150001N1+99999+99999101211ADDMA1999999099971REMSYN070AAXX  01004 47842 42/65 /1806 1//// 2//// 39997 40121 5//// 555 3023/;
0097478420999992000070106004+31980+128350FM-12+011099999V0201301N004119999999N0200001N1+99999+99999101191ADDMA1999999099951REMSYN070AAXX  01064 47842 42/70 /1308 1//// 2//// 39995 40119 5//// 555 3021/;
0097478420999992000070200004+31980+128350FM-12+011099999V0200901N003119999999N0100001N1+99999+99999101301ADDMA1999999100051REMSYN070AAXX  02004 47842 42/60 /0906 1//// 2//// 30005 40130 5//// 555 3021/;
0097478420999992000070206004+31980+128350FM-12+011099999V0200901N002119999999N0200001N1+99999+99999101251ADDMA1999999100011REMSYN070AAXX  02064 47842 42/70 /0904 1//// 2//// 30001 40125 5//// 555 3021/;
0097478420999992000070300004+31980+128350FM-12+011099999V0200901N004119999999N0200001N1+99999+99999101241ADDMA1999999099991REMSYN070AAXX  03004 47842 42/70 /0908 1//// 2//// 39999 40124 5//// 555 3031/;
0097478420999992000070306004+31980+128350FM-12+011099999V0201301N004619999999N0300001N1+99999+99999101131ADDMA1999999099901REMSYN070AAXX  03064 47842 42/80 /1309 1//// 2//// 39990 40113 5//// 555 3031/;
0097478420999992000070400004+31980+128350FM-12+011099999V0201101N006719999999N0200001N1+99999+99999101161ADDMA1999999099911REMSYN070AAXX  04004 47842 42/70 /1113 1//// 2//// 39991 40116 5//// 555 3031/;
0097478420999992000070406004+31980+128350FM-12+011099999V0200701N003119999999N0200001N1+99999+99999101081ADDMA1999999099841REMSYN070AAXX  04064 47842 42/70 /0706 1//// 2//// 39984 40108 5//// 555 3031/;
0097478420999992000070500004+31980+128350FM-12+011099999V0200701N003619999999N0200001N1+99999+99999101141ADDMA1999999099901REMSYN070AAXX  05004 47842 42/70 /0707 1//// 2//// 39990 40114 5//// 555 3021/;
0109478420999992000070506004+31980+128350FM-12+011099999V0203601N003619999999N0080001N1+99999+99999100931ADDMA1999999099691MW1101REMSYN076AAXX  05064 47842 41/58 /3607 1//// 2//// 39969 40093 5//// 710// 555 3021/;
0109478420999992000070600004+31980+128350FM-12+011099999V0200401N002119999999N0050001N1+99999+99999100791ADDMA1999999099551MW1101REMSYN076AAXX  06004 47842 41/50 /0404 1//// 2//// 39955 40079 5//// 710// 555 3021/;
0109478420999992000070606004+31980+128350FM-12+011099999V0200201N004119999999N0050001N1+99999+99999100551ADDMA1999999099311MW1101REMSYN076AAXX  06064 47842 41/50 /0208 1//// 2//// 39931 40055 5//// 710// 555 3032/;
0109478420999992000070700004+31980+128350FM-12+011099999V0203401N008219999999N0050001N1+99999+99999100311ADDMA1999999099061MW1101REMSYN076AAXX  07004 47842 41/50 /3416 1//// 2//// 39906 40031 5//// 710// 555 3031/;
0109478420999992000070706004+31980+128350FM-12+011099999V0203201N004619999999N0050001N1+99999+99999100071ADDMA1999999098831MW1101REMSYN076AAXX  07064 47842 41/50 /3209 1//// 2//// 39883 40007 5//// 710// 555 3031/;
0097478420999992000070800004+31980+128350FM-12+011099999V0203601N002119999999N0200001N1+99999+99999100441ADDMA1999999099191REMSYN070AAXX  08004 47842 42/70 /3604 1//// 2//// 39919 40044 5//// 555 3031/;
0097478420999992000070806004+31980+128350FM-12+011099999V0203201N002619999999N0300001N1+99999+99999100411ADDMA1999999099171REMSYN070AAXX  08064 47842 42/80 /3205 1//// 2//// 39917 40041 5//// 555 3021/;
0097478420999992000070900004+31980+128350FM-12+011099999V0200401N004119999999N0200001N1+99999+99999100761ADDMA1999999099511REMSYN070AAXX  09004 47842 42/70 /0408 1//// 2//// 39951 40076 5//// 555 3031/;
0097478420999992000070906004+31980+128350FM-12+011099999V0200901N004619999999N0200001N1+99999+99999100791ADDMA1999999099551REMSYN070AAXX  09064 47842 42/70 /0909 1//// 2//// 39955 40079 5//// 555 3031/;
0097478420999992000071000004+31980+128350FM-12+011099999V0201301N012319999999N0100001N1+99999+99999101061ADDMA1999999099811REMSYN070AAXX  10004 47842 42/60 /1324 1//// 2//// 39981 40106 5//// 555 3053/;
0097478420999992000071006004+31980+128350FM-12+011099999V0201301N011319999999N0100001N1+99999+99999101071ADDMA1999999099821REMSYN070AAXX  10064 47842 42/60 /1322 1//// 2//// 39982 40107 5//// 555 3053/;
0109478420999992000071100004+31980+128350FM-12+011099999V0202101N012919999999N0050001N1+99999+99999101171ADDMA1999999099921MW1101REMSYN076AAXX  11004 47842 41/50 /2125 1//// 2//// 39992 40117 5//// 710// 555 3053/;
0097478420999992000071106004+31980+128350FM-12+011099999V0202501N010319999999N0100001N1+99999+99999101131ADDMA1999999099881REMSYN070AAXX  11064 47842 42/60 /2520 1//// 2//// 39988 40113 5//// 555 3053/;
0097478420999992000071200004+31980+128350FM-12+011099999V0202501N010819999999N0100001N1+99999+99999100921ADDMA1999999099681REMSYN070AAXX  12004 47842 42/60 /2521 1//// 2//// 39968 40092 5//// 555 3053/;
0097478420999992000071206004+31980+128350FM-12+011099999V0202701N007719999999N0100001N1+99999+99999100801ADDMA1999999099561REMSYN070AAXX  12064 47842 42/60 /2715 1//// 2//// 39956 40080 5//// 555 3043/;
0109478420999992000071300004+31980+128350FM-12+011099999V0202401N006719999999N0050001N1+99999+99999100861ADDMA1999999099601MW1611REMSYN076AAXX  13004 47842 41/50 /2413 1//// 2//// 39960 40086 5//// 761// 555 3033/;
0097478420999992000071306004+31980+128350FM-12+011099999V0202001N004619999999N0150001N1+99999+99999100831ADDMA1999999099571REMSYN070AAXX  13064 47842 42/65 /2009 1//// 2//// 39957 40083 5//// 555 3031/;
0097478420999992000071400004+31980+128350FM-12+011099999V0202001N004619999999N0300001N1+99999+99999100881ADDMA1999999099641REMSYN070AAXX  14004 47842 42/80 /2009 1//// 2//// 39964 40088 5//// 555 3031/;
0097478420999992000071406004+31980+128350FM-12+011099999V0202001N007219999999N0300001N1+99999+99999100891ADDMA1999999099651REMSYN070AAXX  14064 47842 42/80 /2014 1//// 2//// 39965 40089 5//// 555 3031/;
0097478420999992000071500004+31980+128350FM-12+011099999V0202001N006219999999N0300001N1+99999+99999101131ADDMA1999999099891REMSYN070AAXX  15004 47842 42/80 /2012 1//// 2//// 39989 40113 5//// 555 3033/;
0097478420999992000071506004+31980+128350FM-12+011099999V0201601N004119999999N0300001N1+99999+99999101181ADDMA1999999099941REMSYN070AAXX  15064 47842 42/80 /1608 1//// 2//// 39994 40118 5//// 555 3023/;
0097478420999992000071600004+31980+128350FM-12+011099999V0201501N004619999999N0300001N1+99999+99999101361ADDMA1999999100121REMSYN070AAXX  16004 47842 42/80 /1509 1//// 2//// 30012 40136 5//// 555 3023/;
0097478420999992000071606004+31980+128350FM-12+011099999V0201601N002119999999N0250001N1+99999+99999101361ADDMA1999999100121REMSYN070AAXX  16064 47842 42/75 /1604 1//// 2//// 30012 40136 5//// 555 3023/;
0097478420999992000071700004+31980+128350FM-12+011099999V0201401N003119999999N0300001N1+99999+99999101251ADDMA1999999100011REMSYN070AAXX  17004 47842 42/80 /1406 1//// 2//// 30001 40125 5//// 555 3021/;
0097478420999992000071706004+31980+128350FM-12+011099999V0201401N004119999999N0300001N1+99999+99999101051ADDMA1999999099811REMSYN070AAXX  17064 47842 42/80 /1408 1//// 2//// 39981 40105 5//// 555 3021/;
0097478420999992000071800004+31980+128350FM-12+011099999V0201801N003119999999N0300001N1+99999+99999100961ADDMA1999999099731REMSYN070AAXX  18004 47842 42/80 /1806 1//// 2//// 39973 40096 5//// 555 3021/;
0097478420999992000071806004+31980+128350FM-12+011099999V0202501N004119999999N0300001N1+99999+99999100841ADDMA1999999099621REMSYN070AAXX  18064 47842 42/80 /2508 1//// 2//// 39962 40084 5//// 555 3021/;
0097478420999992000071900004+31980+128350FM-12+011099999V0202201N002119999999N0300001N1+99999+99999100861ADDMA1999999099631REMSYN070AAXX  19004 47842 42/80 /2204 1//// 2//// 39963 40086 5//// 555 3021/;
0097478420999992000071906004+31980+128350FM-12+011099999V0202201N002119999999N0300001N1+99999+99999100841ADDMA1999999099621REMSYN070AAXX  19064 47842 42/80 /2204 1//// 2//// 39962 40084 5//// 555 3021/;
0097478420999992000072000004+31980+128350FM-12+011099999V0202201N001019999999N0250001N1+99999+99999101101ADDMA1999999099871REMSYN070AAXX  20004 47842 42/75 /2202 1//// 2//// 39987 40110 5//// 555 3021/;
0097478420999992000072006004+31980+128350FM-12+011099999V0203201N002119999999N0300001N1+99999+99999101051ADDMA1999999099821REMSYN070AAXX  20064 47842 42/80 /3204 1//// 2//// 39982 40105 5//// 555 3021/;
0097478420999992000072100004+31980+128350FM-12+011099999V0202701N002119999999N0300001N1+99999+99999101111ADDMA1999999099881REMSYN070AAXX  21004 47842 42/80 /2704 1//// 2//// 39988 40111 5//// 555 3021/;
0097478420999992000072106004+31980+128350FM-12+011099999V0202501N004619999999N0300001N1+99999+99999100851ADDMA1999999099631REMSYN070AAXX  21064 47842 42/80 /2509 1//// 2//// 39963 40085 5//// 555 3021/;
0097478420999992000072200004+31980+128350FM-12+011099999V0202501N007719999999N0300001N1+99999+99999100741ADDMA1999999099511REMSYN070AAXX  22004 47842 42/80 /2515 1//// 2//// 39951 40074 5//// 555 3041/;
0097478420999992000072206004+31980+128350FM-12+011099999V0202501N007719999999N0300001N1+99999+99999100461ADDMA1999999099241REMSYN070AAXX  22064 47842 42/80 /2515 1//// 2//// 39924 40046 5//// 555 3043/;
0097478420999992000072300004+31980+128350FM-12+011099999V0202501N009319999999N0300001N1+99999+99999100381ADDMA1999999099151REMSYN070AAXX  23004 47842 42/80 /2518 1//// 2//// 39915 40038 5//// 555 3043/;
0097478420999992000072306004+31980+128350FM-12+011099999V0202101N008719999999N0200001N1+99999+99999100241ADDMA1999999099011REMSYN070AAXX  23064 47842 42/70 /2117 1//// 2//// 39901 40024 5//// 555 3043/;
0097478420999992000072400004+31980+128350FM-12+011099999V0202201N008719999999N0200001N1+99999+99999100281ADDMA1999999099051REMSYN070AAXX  24004 47842 42/70 /2217 1//// 2//// 39905 40028 5//// 555 3043/;
0097478420999992000072406004+31980+128350FM-12+011099999V0202201N009819999999N0200001N1+99999+99999100151ADDMA1999999098921REMSYN070AAXX  24064 47842 42/70 /2219 1//// 2//// 39892 40015 5//// 555 3043/;
0109478420999992000072500004+31980+128350FM-12+011099999V0202401N007719999999N0060001N1+99999+99999100241ADDMA1999999098991MW1101REMSYN076AAXX  25004 47842 41/56 /2415 1//// 2//// 39899 40024 5//// 710// 555 3043/;
0097478420999992000072506004+31980+128350FM-12+011099999V0202401N006219999999N0100001N1+99999+99999100241ADDMA1999999099021REMSYN070AAXX  25064 47842 42/60 /2412 1//// 2//// 39902 40024 5//// 555 3033/;
0097478420999992000072600004+31980+128350FM-12+011099999V0201201N004119999999N0300001N1+99999+99999100181ADDMA1999999098941REMSYN070AAXX  26004 47842 42/80 /1208 1//// 2//// 39894 40018 5//// 555 3021/;
0097478420999992000072606004+31980+128350FM-12+011099999V0201201N006219999999N0300001N1+99999+99999100051ADDMA1999999098821REMSYN070AAXX  26064 47842 42/80 /1212 1//// 2//// 39882 40005 5//// 555 3031/;
0097478420999992000072700004+31980+128350FM-12+011099999V0200901N006719999999N0300001N1+99999+99999100051ADDMA1999999098821REMSYN070AAXX  27004 47842 42/80 /0913 1//// 2//// 39882 40005 5//// 555 3033/;
0097478420999992000072706004+31980+128350FM-12+011099999V0200901N008219999999N0300001N1+99999+99999100051ADDMA1999999098831REMSYN070AAXX  27064 47842 42/80 /0916 1//// 2//// 39883 40005 5//// 555 3043/;
0097478420999992000072800004+31980+128350FM-12+011099999V0200401N008219999999N0300001N1+99999+99999100101ADDMA1999999098881REMSYN070AAXX  28004 47842 42/80 /0416 1//// 2//// 39888 40010 5//// 555 3046/;
0097478420999992000072900004+31980+128350FM-12+011099999V0200901N008719999999N0100001N1+99999+99999099721ADDMA1999999098501REMSYN070AAXX  29004 47842 42/60 /0917 1//// 2//// 39850 49972 5//// 555 3056/;
0097478420999992000072906004+31980+128350FM-12+011099999V0201601N009819999999N0100001N1+99999+99999099481ADDMA1999999098261REMSYN070AAXX  29064 47842 42/60 /1619 1//// 2//// 39826 49948 5//// 555 3046/;
0081478420999992000072911004+31980+128350FM-12+011099999V0200901N010819999999N0080001N1+99999+99999099411ADDMA1999999098171REMSYN054AAXX  29114 47842 42/58 /0921 1//// 2//// 39817 49941;
0093478420999992000072912004+31980+128350FM-12+011099999V0200701N007219999999N0080001N1+99999+99999099451ADDMA1999999098211MW1611REMSYN060AAXX  29124 47842 41/58 /0714 1//// 2//// 39821 49945 761//;
0081478420999992000072913004+31980+128350FM-12+011099999V0200701N008219999999N0100001N1+99999+99999099411ADDMA1999999098181REMSYN054AAXX  29134 47842 42/60 /0716 1//// 2//// 39818 49941;
0093478420999992000072914004+31980+128350FM-12+011099999V0200501N007219999999N0080001N1+99999+99999099341ADDMA1999999098111MW1611REMSYN060AAXX  29144 47842 41/58 /0514 1//// 2//// 39811 49934 761//;
0093478420999992000072915004+31980+128350FM-12+011099999V0200501N007219999999N0080001N1+99999+99999099261ADDMA1999999098031MW1101REMSYN060AAXX  29154 47842 41/58 /0514 1//// 2//// 39803 49926 710//;
0093478420999992000072916004+31980+128350FM-12+011099999V0200901N009819999999N0060001N1+99999+99999099171ADDMA1999999097951MW1101REMSYN060AAXX  29164 47842 41/56 /0919 1//// 2//// 39795 49917 710//;
0093478420999992000072917004+31980+128350FM-12+011099999V0200701N010819999999N0060001N1+99999+99999099091ADDMA1999999097871MW1611REMSYN060AAXX  29174 47842 41/56 /0721 1//// 2//// 39787 49909 761//;
0093478420999992000072918004+31980+128350FM-12+011099999V0200701N009819999999N9999999N1+99999+99999099021ADDMA1999999097801MW1611REMSYN060AAXX  29184 47842 41/51 /0719 1//// 2//// 39780 49902 761//;
0093478420999992000072919004+31980+128350FM-12+011099999V0200701N012919999999N0005001N1+99999+99999098921ADDMA1999999097701MW1611REMSYN060AAXX  29194 47842 41/05 /0725 1//// 2//// 39770 49892 761//;
0093478420999992000072920004+31980+128350FM-12+011099999V0200701N008219999999N0005001N1+99999+99999098921ADDMA1999999097701MW1611REMSYN060AAXX  29204 47842 41/05 /0716 1//// 2//// 39770 49892 761//;
0093478420999992000072921004+31980+128350FM-12+011099999V0200701N008719999999N9999999N1+99999+99999098861ADDMA1999999097641MW1611REMSYN060AAXX  29214 47842 41/54 /0717 1//// 2//// 39764 49886 761//;
0081478420999992000072922004+31980+128350FM-12+011099999V0200701N007219999999N0030001N1+99999+99999098851ADDMA1999999097631REMSYN054AAXX  29224 47842 42/30 /0714 1//// 2//// 39763 49885;
0093478420999992000072923004+31980+128350FM-12+011099999V0200701N005719999999N0005001N1+99999+99999098831ADDMA1999999097611MW1611REMSYN060AAXX  29234 47842 41/05 /0711 1//// 2//// 39761 49883 761//;
0093478420999992000073000004+31980+128350FM-12+011099999V0200401N005719999999N0050001N1+99999+99999098841ADDMA1999999097611MW1101REMSYN060AAXX  30004 47842 41/50 /0411 1//// 2//// 39761 49884 710//;
0093478420999992000073001004+31980+128350FM-12+011099999V0200401N003119999999N0040001N1+99999+99999098821ADDMA1999999097601MW1101REMSYN060AAXX  30014 47842 41/40 /0406 1//// 2//// 39760 49882 710//;
0093478420999992000073002004+31980+128350FM-12+011099999V0203101N002619999999N0040001N1+99999+99999098791ADDMA1999999097571MW1101REMSYN060AAXX  30024 47842 41/40 /3105 1//// 2//// 39757 49879 710//;
0093478420999992000073003004+31980+128350FM-12+011099999V0203101N006219999999N0040001N1+99999+99999098791ADDMA1999999097591MW1101REMSYN060AAXX  30034 47842 41/40 /3112 1//// 2//// 39759 49879 710//;
0093478420999992000073004004+31980+128350FM-12+011099999V0202901N007719999999N0080001N1+99999+99999098841ADDMA1999999097621MW1101REMSYN060AAXX  30044 47842 41/58 /2915 1//// 2//// 39762 49884 710//;
0093478420999992000073005004+31980+128350FM-12+011099999V0202901N013419999999N0080001N1+99999+99999098721ADDMA1999999097521MW1101REMSYN060AAXX  30054 47842 41/58 /2926 1//// 2//// 39752 49872 710//;
0109478420999992000073006004+31980+128350FM-12+011099999V0202901N009319999999N0080001N1+99999+99999098901ADDMA1999999097681MW1101REMSYN076AAXX  30064 47842 41/58 /2918 1//// 2//// 39768 49890 5//// 710// 555 3053/;
0099478420999992000073007004+31980+128350FM-12+011099999V0202901N010319999999N0010001N1+99999+99999098881ADDMA1999999097661MW1101REMSYN066AAXX  30074 47842 41/10 /2920 1//// 2//// 39766 49888 5//// 710//;
0103478420999992000073008004+31980+128350FM-12+011099999V0202901N007719999999N0005001N1+99999+99999098981ADDMW1611REMSYN066AAXX  30084 47842 41/05 /2915 1//// 2//// 39898 49898 5//// 761//;EQDQ01+098983APOSP 
0099478420999992000073009004+31980+128350FM-12+011099999V0202701N007219999999N0005001N1+99999+99999099131ADDMA1999999097911MW1611REMSYN066AAXX  30094 47842 41/05 /2714 1//// 2//// 39791 49913 5//// 761//;
0099478420999992000073010004+31980+128350FM-12+011099999V0202401N015419999999N0005001N1+99999+99999099271ADDMA1999999098041MW1611REMSYN066AAXX  30104 47842 41/05 /2430 1//// 2//// 39804 49927 5//// 761//;
0099478420999992000073011004+31980+128350FM-12+011099999V0202401N012319999999N0005001N1+99999+99999099361ADDMA1999999098131MW1611REMSYN066AAXX  30114 47842 41/05 /2424 1//// 2//// 39813 49936 5//// 761//;
0099478420999992000073012004+31980+128350FM-12+011099999V0202401N012319999999N0005001N1+99999+99999099411ADDMA1999999098181MW1611REMSYN066AAXX  30124 47842 41/05 /2424 1//// 2//// 39818 49941 5//// 761//;
0091478420999992000073100004+31980+128350FM-12+011099999V0202901N003119999999N0100001N1+99999+99999099931ADDMA1999999098701REMSYN064AAXX  31004 47842 42/60 /2906 1//// 2//// 39870 49993 555 3023/;
0091478420999992000073106004+31980+128350FM-12+011099999V0202901N006219999999N0200001N1+99999+99999100031ADDMA1999999098821REMSYN064AAXX  31064 47842 42/70 /2912 1//// 2//// 39882 40003 555 3033/;
0103478420999992000080100004+31980+128350FM-12+011099999V0209999C000019999999N0050001N1+99999+99999100201ADDMA1999999099471MW1101REMSYN070AAXX  01004 47842 41/50 /0000 1//// 2//// 39947 40020 710// 555 3023/;
0103478420999992000080106004+31980+128350FM-12+011099999V0200701N002119999999N0050001N1+99999+99999100601ADDMA1999999099371MW1101REMSYN070AAXX  01064 47842 41/50 /0704 1//// 2//// 39937 40060 710// 555 3023/;
0091478420999992000080200004+31980+128350FM-12+011099999V0202701N001019999999N0100001N1+99999+99999100741ADDMA1999999099501REMSYN064AAXX  02004 47842 42/60 /2702 1//// 2//// 39950 40074 555 3021/;
0091478420999992000080206004+31980+128350FM-12+011099999V0203601N002619999999N0100001N1+99999+99999100631ADDMA1999999099391REMSYN064AAXX  02064 47842 42/60 /3605 1//// 2//// 39939 40063 555 3021/;
0103478420999992000080300004+31980+128350FM-12+011099999V0201401N013919999999N0030001N1+99999+99999100671ADDMA1999999099421MW1611REMSYN070AAXX  03004 47842 41/30 /1427 1//// 2//// 39942 40067 761// 555 3053/;
0103478420999992000080306004+31980+128350FM-12+011099999V0201401N014919999999N0030001N1+99999+99999100671ADDMA1999999099421MW1611REMSYN070AAXX  03064 47842 41/30 /1429 1//// 2//// 39942 40067 761// 555 3056/;
0091478420999992000080400004+31980+128350FM-12+011099999V0201301N008719999999N0100001N1+99999+99999101191ADDMA1999999099961REMSYN064AAXX  04004 47842 42/60 /1317 1//// 2//// 39996 40119 555 3043/;
0091478420999992000080406004+31980+128350FM-12+011099999V0201301N009319999999N0200001N1+99999+99999101131ADDMA1999999099891REMSYN064AAXX  04064 47842 42/70 /1318 1//// 2//// 39989 40113 555 3043/;
0091478420999992000080500004+31980+128350FM-12+011099999V0200701N002619999999N0200001N1+99999+99999101371ADDMA1999999100131REMSYN064AAXX  05004 47842 42/70 /0705 1//// 2//// 30013 40137 555 3021/;
0091478420999992000080506004+31980+128350FM-12+011099999V0200901N003119999999N0300001N1+99999+99999101181ADDMA1999999099941REMSYN064AAXX  05064 47842 42/80 /0906 1//// 2//// 39994 40118 555 3021/;
0091478420999992000080600004+31980+128350FM-12+011099999V0200901N002119999999N0100001N1+99999+99999101171ADDMA1999999099931REMSYN064AAXX  06004 47842 42/60 /0904 1//// 2//// 39993 40117 555 3021/;
0091478420999992000080606004+31980+128350FM-12+011099999V0200601N003119999999N0300001N1+99999+99999101081ADDMA1999999099851REMSYN064AAXX  06064 47842 42/80 /0606 1//// 2//// 39985 40108 555 3021/;
0091478420999992000080700004+31980+128350FM-12+011099999V0201201N003619999999N0300001N1+99999+99999101111ADDMA1999999099871REMSYN064AAXX  07004 47842 42/80 /1207 1//// 2//// 39987 40111 555 3023/;
0091478420999992000080706004+31980+128350FM-12+011099999V0200901N003619999999N0300001N1+99999+99999101041ADDMA1999999099801REMSYN064AAXX  07064 47842 42/80 /0907 1//// 2//// 39980 40104 555 3023/;
0091478420999992000080800004+31980+128350FM-12+011099999V0200901N005719999999N0300001N1+99999+99999101131ADDMA1999999099891REMSYN064AAXX  08004 47842 42/80 /0911 1//// 2//// 39989 40113 555 3033/;
0091478420999992000080806004+31980+128350FM-12+011099999V0200701N006719999999N0300001N1+99999+99999100951ADDMA1999999099721REMSYN064AAXX  08064 47842 42/80 /0713 1//// 2//// 39972 40095 555 3033/;
0091478420999992000080900004+31980+128350FM-12+011099999V0200901N008219999999N0200001N1+99999+99999100991ADDMA1999999099741REMSYN064AAXX  09004 47842 42/70 /0916 1//// 2//// 39974 40099 555 3043/;
0091478420999992000080906004+31980+128350FM-12+011099999V0201201N014419999999N0200001N1+99999+99999100801ADDMA1999999099561REMSYN064AAXX  09064 47842 42/70 /1228 1//// 2//// 39956 40080 555 3053/;
0091478420999992000081000004+31980+128350FM-12+011099999V0201201N010819999999N0150001N1+99999+99999100891ADDMA1999999099651REMSYN064AAXX  10004 47842 42/65 /1221 1//// 2//// 39965 40089 555 3056/;
0091478420999992000081006004+31980+128350FM-12+011099999V0201301N008719999999N0200001N1+99999+99999100871ADDMA1999999099631REMSYN064AAXX  10064 47842 42/70 /1317 1//// 2//// 39963 40087 555 3053/;
0091478420999992000081100004+31980+128350FM-12+011099999V0201501N006719999999N0300001N1+99999+99999100851ADDMA1999999099611REMSYN064AAXX  11004 47842 42/80 /1513 1//// 2//// 39961 40085 555 3033/;
0091478420999992000081106004+31980+128350FM-12+011099999V0201301N003619999999N0300001N1+99999+99999100731ADDMA1999999099501REMSYN064AAXX  11064 47842 42/80 /1307 1//// 2//// 39950 40073 555 3036/;
0091478420999992000081200004+31980+128350FM-12+011099999V0203201N003119999999N0300001N1+99999+99999100581ADDMA1999999099351REMSYN064AAXX  12004 47842 42/80 /3206 1//// 2//// 39935 40058 555 3023/;
0091478420999992000081206004+31980+128350FM-12+011099999V0203201N003119999999N0200001N1+99999+99999100371ADDMA1999999099141REMSYN064AAXX  12064 47842 42/70 /3206 1//// 2//// 39914 40037 555 3033/;
0091478420999992000081300004+31980+128350FM-12+011099999V0203601N003119999999N0200001N1+99999+99999100681ADDMA1999999099451REMSYN064AAXX  13004 47842 42/70 /3606 1//// 2//// 39945 40068 555 3021/;
0091478420999992000081306004+31980+128350FM-12+011099999V0203101N005119999999N0200001N1+99999+99999100591ADDMA1999999099361REMSYN064AAXX  13064 47842 42/70 /3110 1//// 2//// 39936 40059 555 3021/;
0097478420999992000081400004+31980+128350FM-12+011099999V0203601N001019999999N0200001N1+99999+99999100801ADDMA1999999099571REMSYN070AAXX  14004 47842 42/70 /3602 1//// 2//// 39957 40080 5//// 555 3021/;
0097478420999992000081406004+31980+128350FM-12+011099999V0202401N004119999999N0200001N1+99999+99999100651ADDMA1999999099431REMSYN070AAXX  14064 47842 42/70 /2408 1//// 2//// 39943 40065 5//// 555 3021/;
0097478420999992000081500004+31980+128350FM-12+011099999V0201301N003119999999N0300001N1+99999+99999100731ADDMA1999999099491REMSYN070AAXX  15004 47842 42/80 /1306 1//// 2//// 39949 40073 5//// 555 3021/;
0097478420999992000081506004+31980+128350FM-12+011099999V0201601N004119999999N0300001N1+99999+99999100611ADDMA1999999099381REMSYN070AAXX  15064 47842 42/80 /1608 1//// 2//// 39938 40061 5//// 555 3021/;
0109478420999992000081600004+31980+128350FM-12+011099999V0202001N007719999999N0100001N1+99999+99999100461ADDMA1999999099221MW1611REMSYN076AAXX  16004 47842 41/60 /2015 1//// 2//// 39922 40046 5//// 761// 555 3033/;
0097478420999992000081606004+31980+128350FM-12+011099999V0201801N007719999999N0100001N1+99999+99999100411ADDMA1999999099181REMSYN070AAXX  16064 47842 42/60 /1815 1//// 2//// 39918 40041 5//// 555 3033/;
0097478420999992000081700004+31980+128350FM-12+011099999V0202301N007219999999N0150001N1+99999+99999100681ADDMA1999999099451REMSYN070AAXX  17004 47842 42/65 /2314 1//// 2//// 39945 40068 5//// 555 3033/;
0097478420999992000081706004+31980+128350FM-12+011099999V0202501N008219999999N0150001N1+99999+99999100611ADDMA1999999099381REMSYN070AAXX  17064 47842 42/65 /2516 1//// 2//// 39938 40061 5//// 555 3033/;
0097478420999992000081800004+31980+128350FM-12+011099999V0202701N008219999999N0100001N1+99999+99999100761ADDMA1999999099531REMSYN070AAXX  18004 47842 42/60 /2716 1//// 2//// 39953 40076 5//// 555 3043/;
0097478420999992000081900004+31980+128350FM-12+011099999V0202401N006219999999N0150001N1+99999+99999100421ADDMA1999999099181REMSYN070AAXX  19004 47842 42/65 /2412 1//// 2//// 39918 40042 5//// 555 3033/;
0097478420999992000081906004+31980+128350FM-12+011099999V0202401N005119999999N0080001N1+99999+99999100311ADDMA1999999099081REMSYN070AAXX  19064 47842 42/58 /2410 1//// 2//// 39908 40031 5//// 555 3031/;
0097478420999992000082000004+31980+128350FM-12+011099999V0202201N008719999999N0150001N1+99999+99999100291ADDMA1999999099061REMSYN070AAXX  20004 47842 42/65 /2217 1//// 2//// 39906 40029 5//// 555 3033/;
0097478420999992000082006004+31980+128350FM-12+011099999V0202201N010319999999N0100001N1+99999+99999100141ADDMA1999999098921REMSYN070AAXX  20064 47842 42/60 /2220 1//// 2//// 39892 40014 5//// 555 3043/;
0097478420999992000082100004+31980+128350FM-12+011099999V0203101N002619999999N0200001N1+99999+99999100821ADDMA1999999099581REMSYN070AAXX  21004 47842 42/70 /3105 1//// 2//// 39958 40082 5//// 555 3033/;
0097478420999992000082106004+31980+128350FM-12+011099999V0202701N005119999999N0300001N1+99999+99999100831ADDMA1999999099601REMSYN070AAXX  21064 47842 42/80 /2710 1//// 2//// 39960 40083 5//// 555 3021/;
0097478420999992000082200004+31980+128350FM-12+011099999V0202901N001519999999N0300001N1+99999+99999101401ADDMA1999999100161REMSYN070AAXX  22004 47842 42/80 /2903 1//// 2//// 30016 40140 5//// 555 3021/;
0097478420999992000082206004+31980+128350FM-12+011099999V0201401N002119999999N0300001N1+99999+99999101371ADDMA1999999100131REMSYN070AAXX  22064 47842 42/80 /1404 1//// 2//// 30013 40137 5//// 555 3021/;
0097478420999992000082300004+31980+128350FM-12+011099999V0201401N003119999999N0200001N1+99999+99999101491ADDMA1999999100251REMSYN070AAXX  23004 47842 42/70 /1406 1//// 2//// 30025 40149 5//// 555 3031/;
