0088478550999992000010100004+32920+129920FM-15+0005RJFU V0201601N00211220001CN0099001N1+00901+00601999999ADDMA1102301999999MW1001REMMET055RJFU 0000Z 16004KT 110V200 CAVOK 09/06 Q1023 RMK A3022;
0080478550999992000010101004+32920+129920FM-15+0005RJFU V0209999999999220001CN0099001N1+00901+00501999999ADDMA1102301999999MW1001REMMET047RJFU 0100Z VRB02KT CAVOK 09/05 Q1023 RMK A3023;
0080478550999992000010102004+32920+129920FM-15+0005RJFU V0202401N00101220001CN0099001N1+01201+00401999999ADDMA1102301999999MW1001REMMET047RJFU 0200Z 24002KT CAVOK 12/04 Q1023 RMK A3021;
0080478550999992000010103004+32920+129920FM-15+0005RJFU V0209999999999220001CN0099001N1+01301+00301999999ADDMA1102101999999MW1001REMMET047RJFU 0300Z VRB01KT CAVOK 13/03 Q1021 RMK A3018;
0080478550999992000010104004+32920+129920FM-15+0005RJFU V0209999999999220001CN0099001N1+01301+00301999999ADDMA1102001999999MW1001REMMET047RJFU 0400Z VRB01KT CAVOK 13/03 Q1020 RMK A3014;
0080478550999992000010105004+32920+129920FM-15+0005RJFU V0209999999999220001CN0099001N1+01401+00301999999ADDMA1102001999999MW1001REMMET047RJFU 0500Z VRB01KT CAVOK 14/03 Q1020 RMK A3012;
0080478550999992000010106004+32920+129920FM-15+0005RJFU V0209999999999220001CN0099001N1+01501+00201999999ADDMA1101901999999MW1001REMMET047RJFU 0600Z VRB02KT CAVOK 15/02 Q1019 RMK A3010;
0080478550999992000010107004+32920+129920FM-15+0005RJFU V0202801N00211220001CN0099001N1+01401+00401999999ADDMA1101901999999MW1001REMMET047RJFU 0700Z 28004KT CAVOK 14/04 Q1019 RMK A3010;
0080478550999992000010108004+32920+129920FM-15+0005RJFU V0209999999999220001CN0099001N1+01201+00201999999ADDMA1101801999999MW1001REMMET047RJFU 0800Z VRB01KT CAVOK 12/02 Q1018 RMK A3009;
0080478550999992000010109004+32920+129920FM-15+0005RJFU V0209999999999220001CN0099001N1+01001+00401999999ADDMA1101901999999MW1001REMMET047RJFU 0900Z VRB02KT CAVOK 10/04 Q1019 RMK A3010;
0080478550999992000010110004+32920+129920FM-15+0005RJFU V0200701N00211220001CN0099001N1+01101+00501999999ADDMA1101901999999MW1001REMMET047RJFU 1000Z 07004KT CAVOK 11/05 Q1019 RMK A3012;
0080478550999992000010111004+32920+129920FM-15+0005RJFU V0209999999999220001CN0099001N1+01001+00401999999ADDMA1101901999999MW1001REMMET047RJFU 1100Z VRB02KT CAVOK 10/04 Q1019 RMK A3010;
0080478550999992000010112004+32920+129920FM-15+0005RJFU V0201401N00411220001CN0099001N1+01001+00601999999ADDMA1101901999999MW1001REMMET047RJFU 1200Z 14008KT CAVOK 10/06 Q1019 RMK A3011;
0218478550999992000010120004+32920+129920FM-15+0005RJFU V0201501N006210300019N0112651N1+00901+00601999999ADDGA1021+007509999GA2021+009009999GA3071+030009999GF107991999999999999999999MA1101591999999MW1611REMMET092RJFU 2000Z 15012KT 9999 -RA FEW025 SCT030 BKN100 09/06 Q1016 RMK 1CU025 3SC030 7AC100 A3003;EQDQ01    003PRSWM1
0218478550999992000010121004+32920+129920FM-15+0005RJFU V0200701N001510300019N0112651N1+00901+00601999999ADDGA1021+007509999GA2021+009009999GA3071+030009999GF107991999999999999999999MA1101591999999MW1611REMMET092RJFU 2100Z 07003KT 9999 -RA FEW025 SCT030 BKN100 09/06 Q1016 RMK 1CU025 3SC030 7AC100 A3003;EQDQ01    003PRSWM1
0211478550999992000010122004+32920+129920FM-15+0005RJFU V0201601N004610300019N0112651N1+00901+00601999999ADDGA1021+024009999GA2071+030009999GA3071+999999999GF107991999999999999999999MA1101691999999MW1611REMMET085RJFU 2200Z 16009KT 9999 -RA FEW080 BKN100 BKN/// 09/06 Q1017 RMK 2AC080 6AC100 A3004;EQDQ01    003PRSWM1
0165478550999992000010123004+32920+129920FM-15+0005RJFU V0201501N004610300019N0112651N1+00901+00701999999ADDGA1021+024009999GA2071+030009999GF107991999999999999999999MA1101691999999MW1001REMMET074RJFU 2300Z 15009KT 9999 FEW080 BKN100 09/07 Q1017 RMK 2AC080 5AC100 A3003;
0204478550999992000010200004+32920+129920FM-15+0005RJFU V0201601N006210240019N0112651N1+00901+00701999999ADDGA1021+018009999GA2071+024009999GF107991999999999999999999MA1101591999999MW1611REMMET078RJFU 0000Z 16012KT 9999 -RA FEW060 BKN080 09/07 Q1016 RMK 1SC060 5AC080 A3003;EQDQ01+000003PRSWM1Q02    003PRSWM1
0160478550999992000010201004+32920+129920FM-15+0005RJFU V0201501N004110270019N0112651N1+01001+00701999999ADDGA1021+015009999GA2071+027009999GF107991999999999999999999MA1101691999999MW1001REMMET050RJFU 0100Z 15008KT 9999 FEW050 BKN090 10/07 Q1017;EQDQ01+000000PRSWM2
0184478550999992000010202004+32920+129920FM-15+0005RJFU V0200201N003610300019N0112651N1+01101+00801999999ADDGA1021+012009999GA2071+030009999GF107991999999999999999999MA1101591999999MW1001REMMET074RJFU 0200Z 02007KT 9999 FEW040 BKN100 11/08 Q1016 RMK 1CU040 7AC100 A3003;EQDQ01+000000PRSWM2
0154478550999992000010203004+32920+129920FM-15+0005RJFU V02099999999992200019N0112651N1+01201+00801999999ADDGA1021+010509999GF102991999999999999999999MA1101491999999MW1001REMMET060RJFU 0300Z VRB02KT 9999 FEW035 12/08 Q1015 RMK 1CU035 A2999;EQDQ01+000000PRSWM2
0184478550999992000010204004+32920+129920FM-15+0005RJFU V0201601N003612200019N0112651N1+01301+00801999999ADDGA1021+007509999GA2021+036009999GF104991999999999999999999MA1101391999999MW1001REMMET074RJFU 0400Z 16007KT 9999 FEW025 SCT120 13/08 Q1014 RMK 1CU025 3AC120 A2997;EQDQ01+000000PRSWM2
0184478550999992000010205004+32920+129920FM-15+0005RJFU V0201601N003610360019N0112651N1+01401+00901999999ADDGA1021+009009999GA2071+036009999GF107991999999999999999999MA1101391999999MW1001REMMET074RJFU 0500Z 16007KT 9999 FEW030 BKN120 14/09 Q1014 RMK 1CU030 5AC120 A2995;EQDQ01+000000PRSWM2
0154478550999992000010206004+32920+129920FM-15+0005RJFU V0201501N003612200019N0112651N1+01501+00901999999ADDGA1021+010509999GF102991999999999999999999MA1101391999999MW1001REMMET060RJFU 0600Z 15007KT 9999 FEW035 15/09 Q1014 RMK 1CU035 A2994;EQDQ01+000000PRSWM2
0154478550999992000010207004+32920+129920FM-15+0005RJFU V0201501N003112200019N0112651N1+01501+00901999999ADDGA1021+010509999GF102991999999999999999999MA1101391999999MW1001REMMET060RJFU 0700Z 15006KT 9999 FEW035 15/09 Q1014 RMK 1CU035 A2995;EQDQ01+000000PRSWM2
0154478550999992000010208004+32920+129920FM-15+0005RJFU V02099999999992200019N0112651N1+01401+00801999999ADDGA1021+009009999GF102991999999999999999999MA1101391999999MW1001REMMET060RJFU 0800Z VRB02KT 9999 FEW030 14/08 Q1014 RMK 1CU030 A2995;EQDQ01+000000PRSWM2
0184478550999992000010209004+32920+129920FM-15+0005RJFU V0201701N002612200019N0112651N1+01201+00901999999ADDGA1021+009009999GA2021+024009999GF104991999999999999999999MA1101391999999MW1001REMMET074RJFU 0900Z 17005KT 9999 FEW030 SCT080 12/09 Q1014 RMK 1CU030 3AC080 A2996;EQDQ01+000000PRSWM2
0184478550999992000010210004+32920+129920FM-15+0005RJFU V0201401N003112200019N0112651N1+01101+00901999999ADDGA1021+009009999GA2021+013509999GF104991999999999999999999MA1101391999999MW1001REMMET074RJFU 1000Z 14006KT 9999 FEW030 SCT045 11/09 Q1014 RMK 1CU030 3SC045 A2997;EQDQ01+000000PRSWM2
0214478550999992000010211004+32920+129920FM-15+0005RJFU V0201601N002110120019N0112651N1+01201+00901999999ADDGA1021+009009999GA2071+012009999GF107991999999999999999999MA1101491999999MW1801REMMET088RJFU 1100Z 16004KT 140V300 9999 -SHRA FEW030 BKN040 12/09 Q1015 RMK 2CU030 5CU040 A2998;EQDQ01+000003PRSWM1Q02    003PRSWM1
0207478550999992000010211024+32920+129920FM-16+0005RJFU V02099999999990120019N0112651N1+01201+00901999999ADDGA1021+009009999GA2071+012009999GF107991999999999999999999MA1101491999999MW1811REMMET081RJFU 021102Z VRB03KT 9999 SHRA FEW030 BKN040 12/09 Q1015 RMK 2CU030 5CU040 A2998;EQDQ01+000003PRSWM1Q02    003PRSWM1
0213478550999992000010211114+32920+129920FM-16+0005RJFU V02099999999990120019N0112651N1+01201+01001999999ADDGA1021+007509999GA2071+012009999GF107991999999999999999999MA1101491999999MW1801REMMET087RJFU 021111Z VRB03KT 9999 -SHRA FEW025 BKN040 12/10 Q1015 RERA RMK 2CU025 5CU040 A2999;EQDQ01+000003PRSWM1Q02    003PRSWM1
0197478550999992000010212004+32920+129920FM-15+0005RJFU V0202301N002110120019N0112651N1+01201+01001999999ADDGA1021+007509999GA2071+012009999GF107991999999999999999999MA1101491999999MW1001REMMET087RJFU 1200Z 23004KT 190V300 9999 SCT025 BKN040 12/10 Q1015 RERA RMK 3CU025 6CU040 A2999;EQDQ01+000000PRSWM2
0154478550999992000010220004+32920+129920FM-15+0005RJFU V02099999999992200019N0112651N1+00801+00301999999ADDGA1021+009009999GF102991999999999999999999MA1101691999999MW1001REMMET060RJFU 2000Z VRB03KT 9999 FEW030 08/03 Q1017 RMK 1CU030 A3005;EQDQ01+000000PRSWM2
0162478550999992000010221004+32920+129920FM-15+0005RJFU V0203601N002112200019N0112651N1+00701+00301999999ADDGA1021+009009999GF102991999999999999999999MA1101691999999MW1001REMMET068RJFU 2100Z 36004KT 330V030 9999 FEW030 07/03 Q1017 RMK 1CU030 A3005;EQDQ01+000000PRSWM2
0162478550999992000010222004+32920+129920FM-15+0005RJFU V0200101N002112200019N0112651N1+00701+00201999999ADDGA1021+010509999GF102991999999999999999999MA1101801999999MW1001REMMET068RJFU 2200Z 01004KT 340V050 9999 FEW035 07/02 Q1018 RMK 1CU035 A3007;EQDQ01+000000PRSWM2
0184478550999992000010223004+32920+129920FM-15+0005RJFU V0200301N002612200019N0112651N1+00701+00301999999ADDGA1021+010509999GA2021+015009999GF104991999999999999999999MA1101901999999MW1001REMMET074RJFU 2300Z 03005KT 9999 FEW035 SCT050 07/03 Q1019 RMK 2CU035 3SC050 A3010;EQDQ01+000000PRSWM2
0184478550999992000010300004+32920+129920FM-15+0005RJFU V0200201N002612200019N0112651N1+01001+00301999999ADDGA1021+012009999GA2021+030009999GF104991999999999999999999MA1101901999999MW1001REMMET074RJFU 0000Z 02005KT 9999 FEW040 SCT100 10/03 Q1019 RMK 1CU040 3AC100 A3010;EQDQ01+000000PRSWM2
0154478550999992000010301004+32920+129920FM-15+0005RJFU V0203501N003612200019N0112651N1+01101+00401999999ADDGA1021+010509999GF102991999999999999999999MA1101901999999MW1001REMMET060RJFU 0100Z 35007KT 9999 FEW035 11/04 Q1019 RMK 1CU035 A3011;EQDQ01+000000PRSWM2
0154478550999992000010302004+32920+129920FM-15+0005RJFU V0203301N004112200019N0112651N1+01101+00401999999ADDGA1021+010509999GF102991999999999999999999MA1101901999999MW1001REMMET060RJFU 0200Z 33008KT 9999 FEW035 11/04 Q1019 RMK 1CU035 A3012;EQDQ01+000000PRSWM2
0154478550999992000010303004+32920+129920FM-15+0005RJFU V0203401N003612200019N0112651N1+01201+00301999999ADDGA1021+010509999GF102991999999999999999999MA1101801999999MW1001REMMET060RJFU 0300Z 34007KT 9999 FEW035 12/03 Q1018 RMK 1CU035 A3009;EQDQ01+000000PRSWM2
0162478550999992000010304004+32920+129920FM-15+0005RJFU V0203401N002612200019N0112651N1+01301+00301999999ADDGA1021+012009999GF102991999999999999999999MA1101801999999MW1001REMMET068RJFU 0400Z 34005KT 270V030 9999 FEW040 13/03 Q1018 RMK 1CU040 A3007;EQDQ01+000000PRSWM2
0154478550999992000010305004+32920+129920FM-15+0005RJFU V02099999999992200019N0112651N1+01301+00301999999ADDGA1021+012009999GF102991999999999999999999MA1101691999999MW1001REMMET060RJFU 0500Z VRB04KT 9999 FEW040 13/03 Q1017 RMK 1CU040 A3006;EQDQ01+000000PRSWM2
0154478550999992000010306004+32920+129920FM-15+0005RJFU V0200101N003112200019N0112651N1+01301+00501999999ADDGA1021+012009999GF102991999999999999999999MA1101691999999MW1001REMMET060RJFU 0600Z 01006KT 9999 FEW040 13/05 Q1017 RMK 1CU040 A3006;EQDQ01+000000PRSWM2
0154478550999992000010307004+32920+129920FM-15+0005RJFU V0203601N002612200019N0112651N1+01201+00501999999ADDGA1021+012009999GF102991999999999999999999MA1101801999999MW1001REMMET060RJFU 0700Z 36005KT 9999 FEW040 12/05 Q1018 RMK 1CU040 A3007;EQDQ01+000000PRSWM2
0177478550999992000010308004+32920+129920FM-15+0005RJFU V0203401N004619999999N0112651N1+01101+00601999999ADDGA1021+012009999GA2071+999999999GF107991999999999999999999MA1101801999999MW1001REMMET067RJFU 0800Z 34009KT 9999 FEW040 BKN/// 11/06 Q1018 RMK 1CU040 A3009;EQDQ01+000000PRSWM2
0177478550999992000010309004+32920+129920FM-15+0005RJFU V0203301N004119999999N0112651N1+01001+00501999999ADDGA1021+012009999GA2071+999999999GF107991999999999999999999MA1101901999999MW1001REMMET067RJFU 0900Z 33008KT 9999 FEW040 BKN/// 10/05 Q1019 RMK 1CU040 A3010;EQDQ01+000000PRSWM2
0099478550999992000010310004+32920+129920FM-15+0005RJFU V0203201N00411220001CN0099001N1+01001+00601999999ADDMA1101901999999MW1001REMMET047RJFU 1000Z 32008KT CAVOK 10/06 Q1019 RMK A3012;EQDQ01+000000PRSWM2
0099478550999992000010311004+32920+129920FM-15+0005RJFU V0200201N00211220001CN0099001N1+01001+00501999999ADDMA1102001999999MW1001REMMET047RJFU 1100Z 02004KT CAVOK 10/05 Q1020 RMK A3012;EQDQ01+000000PRSWM2
0099478550999992000010312004+32920+129920FM-15+0005RJFU V0209999999999220001CN0099001N1+00801+00501999999ADDMA1102001999999MW1001REMMET047RJFU 1200Z VRB02KT CAVOK 08/05 Q1020 RMK A3014;EQDQ01+000000PRSWM2
0099478550999992000010320004+32920+129920FM-15+0005RJFU V0201501N00211220001CN0099001N1+00501+00301999999ADDMA1102101999999MW1001REMMET047RJFU 2000Z 15004KT CAVOK 05/03 Q1021 RMK A3016;EQDQ01+000000PRSWM2
0099478550999992000010321004+32920+129920FM-15+0005RJFU V0209999999999220001CN0099001N1+00301+00201999999ADDMA1102101999999MW1001REMMET047RJFU 2100Z VRB03KT CAVOK 03/02 Q1021 RMK A3017;EQDQ01+000000PRSWM2
0128478550999992000010322004+32920+129920FM-15+0005RJFU V02099999999992200019N0090001N1+00501+00301999999ADDGF100991999999999999999999MA1102201999999MW1001REMMET050RJFU 2200Z VRB03KT 9000 SKC 05/03 Q1022 RMK A3019;EQDQ01+000000PRSWM2
0128478550999992000010323004+32920+129920FM-15+0005RJFU V0201101N002112200019N0090001N1+00401+00301999999ADDGF100991999999999999999999MA1102201999999MW1001REMMET050RJFU 2300Z 11004KT 9000 SKC 04/03 Q1022 RMK A3020;EQDQ01+000000PRSWM2
0154478550999992000010400004+32920+129920FM-15+0005RJFU V02099999999992200019N0090001N1+00601+00501999999ADDGA1021+006009999GF102991999999999999999999MA1102301999999MW1001REMMET060RJFU 0000Z VRB02KT 9000 FEW020 06/05 Q1023 RMK 1CU020 A3021;EQDQ01+000000PRSWM2
0154478550999992000010401004+32920+129920FM-15+0005RJFU V02099999999992200019N0090001N1+00801+00501999999ADDGA1021+004509999GF102991999999999999999999MA1102301999999MW1001REMMET060RJFU 0100Z VRB02KT 9000 FEW015 08/05 Q1023 RMK 1CU015 A3022;EQDQ01+000000PRSWM2
0099478550999992000010402004+32920+129920FM-15+0005RJFU V0201501N00101220001CN0099001N1+01001+00501999999ADDMA1102201999999MW1001REMMET047RJFU 0200Z 15002KT CAVOK 10/05 Q1022 RMK A3021;EQDQ01+000000PRSWM2
0099478550999992000010403004+32920+129920FM-15+0005RJFU V0201701N00211220001CN0099001N1+01001+00401999999ADDMA1102201999999MW1001REMMET047RJFU 0300Z 17004KT CAVOK 10/04 Q1022 RMK A3019;EQDQ01+000000PRSWM2
0099478550999992000010404004+32920+129920FM-15+0005RJFU V0200201N00211220001CN0099001N1+01201+00501999999ADDMA1102101999999MW1001REMMET047RJFU 0400Z 02004KT CAVOK 12/05 Q1021 RMK A3017;EQDQ01+000000PRSWM2
0099478550999992000010405004+32920+129920FM-15+0005RJFU V0209999999999220001CN0099001N1+01201+00501999999ADDMA1102101999999MW1001REMMET047RJFU 0500Z VRB02KT CAVOK 12/05 Q1021 RMK A3015;EQDQ01+000000PRSWM2
0099478550999992000010406004+32920+129920FM-15+0005RJFU V0202201N00151220001CN0099001N1+01301+00201999999ADDMA1102101999999MW1001REMMET047RJFU 0600Z 22003KT CAVOK 13/02 Q1021 RMK A3015;EQDQ01+000000PRSWM2
0099478550999992000010407004+32920+129920FM-15+0005RJFU V0209999999999220001CN0099001N1+01301+00101999999ADDMA1102101999999MW1001REMMET047RJFU 0700Z VRB02KT CAVOK 13/01 Q1021 RMK A3015;EQDQ01+000000PRSWM2
0099478550999992000010408004+32920+129920FM-15+0005RJFU V0209999999999220001CN0099001N1+01001+00201999999ADDMA1102101999999MW1001REMMET047RJFU 0800Z VRB02KT CAVOK 10/02 Q1021 RMK A3015;EQDQ01+000000PRSWM2
0099478550999992000010409004+32920+129920FM-15+0005RJFU V0202201N00051220001CN0099001N1+00901+00301999999ADDMA1102101999999MW1001REMMET047RJFU 0900Z 22001KT CAVOK 09/03 Q1021 RMK A3017;EQDQ01+000000PRSWM2
0099478550999992000010410004+32920+129920FM-15+0005RJFU V0201301N00101220001CN0099001N1+00801+00501999999ADDMA1102201999999MW1001REMMET047RJFU 1000Z 13002KT CAVOK 08/05 Q1022 RMK A3018;EQDQ01+000000PRSWM2
0099478550999992000010411004+32920+129920FM-15+0005RJFU V0201501N00261220001CN0099001N1+00701+00401999999ADDMA1102201999999MW1001REMMET047RJFU 1100Z 15005KT CAVOK 07/04 Q1022 RMK A3019;EQDQ01+000000PRSWM2
0099478550999992000010412004+32920+129920FM-15+0005RJFU V0201301N00311220001CN0099001N1+00701+00401999999ADDMA1102201999999MW1001REMMET047RJFU 1200Z 13006KT CAVOK 07/04 Q1022 RMK A3019;EQDQ01+000000PRSWM2
0099478550999992000010420004+32920+129920FM-15+0005RJFU V0209999999999220001CN0099001N1+00501+00301999999ADDMA1102001999999MW1001REMMET047RJFU 2000Z VRB03KT CAVOK 05/03 Q1020 RMK A3015;EQDQ01+000000PRSWM2
0099478550999992000010421004+32920+129920FM-15+0005RJFU V0201401N00461220001CN0099001N1+00601+00401999999ADDMA1102001999999MW1001REMMET047RJFU 2100Z 14009KT CAVOK 06/04 Q1020 RMK A3013;EQDQ01+000000PRSWM2
0154478550999992000010422004+32920+129920FM-15+0005RJFU V0201501N006212200019N0080001N1+00701+00501999999ADDGA1021+012009999GF102991999999999999999999MA1102001999999MW1001REMMET060RJFU 2200Z 15012KT 8000 FEW040 07/05 Q1020 RMK 1CU040 A3013;EQDQ01+000000PRSWM2
0162478550999992000010423004+32920+129920FM-15+0005RJFU V0201201N003112200019N0070001N1+00701+00601999999ADDGA1021+012009999GF102991999999999999999999MA1102001999999MW1001REMMET068RJFU 2300Z 12006KT 080V150 7000 FEW040 07/06 Q1020 RMK 1CU040 A3014;EQDQ01+000000PRSWM2
0184478550999992000010500004+32920+129920FM-15+0005RJFU V0201401N003612200019N0080001N1+00801+00601999999ADDGA1021+010509999GA2021+018009999GF104991999999999999999999MA1102001999999MW1001REMMET074RJFU 0000Z 14007KT 8000 FEW035 SCT060 08/06 Q1020 RMK 1CU035 4SC060 A3013;EQDQ01+000000PRSWM2
0154478550999992000010501004+32920+129920FM-15+0005RJFU V0201501N003112200019N0090001N1+00901+00601999999ADDGA1021+015009999GF102991999999999999999999MA1101901999999MW1001REMMET060RJFU 0100Z 15006KT 9000 FEW050 09/06 Q1019 RMK 2CU050 A3012;EQDQ01+000000PRSWM2
0207478550999992000010502004+32920+129920FM-15+0005RJFU V0201301N001510150019N0080001N1+01101+00701999999ADDGA1021+012009999GA2071+015009999GA3071+999999999GF107991999999999999999999MA1101901999999MW1001REMMET081RJFU 0200Z 13003KT 8000 FEW040 BKN050 BKN/// 11/07 Q1019 RMK 2CU040 5CU050 A3011;EQDQ01+000000PRSWM2
0207478550999992000010503004+32920+129920FM-15+0005RJFU V02099999999999999999N0080001N1+01101+00701999999ADDGA1021+010509999GA2021+045009999GA3071+999999999GF107991999999999999999999MA1101801999999MW1001REMMET081RJFU 0300Z VRB01KT 8000 FEW035 SCT150 BKN/// 11/07 Q1018 RMK 1CU035 3AC150 A3007;EQDQ01+000000PRSWM2
0214478550999992000010504004+32920+129920FM-15+0005RJFU V0201601N007710450019N0112651N1+01101+00601999999ADDGA1021+010509999GA2021+024009999GA3071+045009999GF107991999999999999999999MA1101591999999MW1001REMMET088RJFU 0400Z 16015KT 9999 FEW035 SCT080 BKN150 11/06 Q1016 RMK 1CU035 4AC080 6AC150 A3003;EQDQ01+000000PRSWM2
0214478550999992000010505004+32920+129920FM-15+0005RJFU V0201401N004110210019N0112651N1+01101+00601999999ADDGA1021+012009999GA2071+021009999GA3071+045009999GF107991999999999999999999MA1101591999999MW1001REMMET088RJFU 0500Z 14008KT 9999 FEW040 BKN070 BKN150 11/06 Q1016 RMK 1CU040 6AC070 7AC150 A3000;EQDQ01+000000PRSWM2
0234478550999992000010506004+32920+129920FM-15+0005RJFU V02099999999990300019N0080001N1+01201+00701999999ADDGA1021+010509999GA2021+021009999GA3071+030009999GF107991999999999999999999MA1101491999999MW1611REMMET092RJFU 0600Z VRB01KT 8000 -RA FEW035 SCT070 BKN100 12/07 Q1015 RMK 2CU035 3AC070 7AC100 A2999;EQDQ01+000003PRSWM1Q02    003PRSWM1
0214478550999992000010507004+32920+129920FM-15+0005RJFU V0201401N004110300019N0090001N1+01201+00701999999ADDGA1021+009009999GA2021+018009999GA3071+030009999GF107991999999999999999999MA1101491999999MW1001REMMET088RJFU 0700Z 14008KT 9000 FEW030 SCT060 BKN100 12/07 Q1015 RMK 1CU030 3SC060 5AC100 A2999;EQDQ01+000000PRSWM2
0234478550999992000010508004+32920+129920FM-15+0005RJFU V02099999999990180019N0070001N1+01201+00801999999ADDGA1021+009009999GA2071+018009999GA3071+024009999GF107991999999999999999999MA1101491999999MW1611REMMET092RJFU 0800Z VRB02KT 7000 -RA FEW030 BKN060 BKN080 12/08 Q1015 RMK 1CU030 6SC060 6AC080 A2999;EQDQ01+000003PRSWM1Q02    003PRSWM1
0205478550999992000010508284+32920+129920FM-16+0005RJFU V0201401N005110300019N0070001N1+01101+00801999999ADDGA1021+009009999GA2081+030009999GF108991999999999999999999MA1101491999999MW1631REMMET079RJFU 050828Z 14010KT 7000 RA FEW030 OVC100 11/08 Q1015 RMK 2CU030 8AS100 A2999;EQDQ01+000003PRSWM1Q02    003PRSWM1
0209478550999992000010509004+32920+129920FM-15+0005RJFU V0201601N005710090019N0070001N1+01101+00801999999ADDGA1071+009009999GA2081+030009999GF108991999999999999999999MA1101491999999MW1611REMMET083RJFU 0900Z 16011KT 7000 -RA BKN030 OVC100 11/08 Q1015 RERA RMK 6CU030 8AS100 A2999;EQDQ01+000003PRSWM1Q02    003PRSWM1
0205478550999992000010509084+32920+129920FM-16+0005RJFU V0201701N004110300019N0070001N1+01101+00801999999ADDGA1021+009009999GA2081+030009999GF108991999999999999999999MA1101491999999MW1631REMMET079RJFU 050908Z 17008KT 7000 RA SCT030 OVC100 11/08 Q1015 RMK 4CU030 8AS100 A3000;EQDQ01+000003PRSWM1Q02    003PRSWM1
0203478550999992000010510004+32920+129920FM-15+0005RJFU V0201301N003110300019N0060001N1+01101+00901999999ADDGA1021+009009999GA2081+030009999GF108991999999999999999999MA1101591999999MW1631REMMET077RJFU 1000Z 13006KT 6000 RA FEW030 OVC100 11/09 Q1016 RMK 2CU030 8AS100 A3000;EQDQ01+000003PRSWM1Q02    003PRSWM1
0208478550999992000010510074+32920+129920FM-16+0005RJFU V0201301N004110090019N0050001N1+01201+01001999999ADDGA1071+009009999GA2081+030009999GF108991999999999999999999MA1101491999999MW1821REMMET082RJFU 051007Z 13008KT 5000 +SHRA BKN030 OVC100 12/10 Q1015 RMK 6CU030 8AS100 A3000;EQDQ01+000003PRSWM1Q02    003PRSWM1
0210478550999992000010510234+32920+129920FM-16+0005RJFU V0201201N003610300019N0050001N1+01201+01101999999ADDGA1021+009009999GA2081+030009999GF108991999999999999999999MA1101491999999MW1631REMMET084RJFU 051023Z 12007KT 5000 RA SCT030 OVC100 12/11 Q1015 RERA RMK 4CU030 8AS100 A3000;EQDQ01+000003PRSWM1Q02    003PRSWM1
0208478550999992000010511004+32920+129920FM-15+0005RJFU V0201501N002610300019N0060001N1+01101+01001999999ADDGA1021+009009999GA2081+030009999GF108991999999999999999999MA1101491999999MW1631REMMET082RJFU 1100Z 15005KT 6000 RA FEW030 OVC100 11/10 Q1015 RERA RMK 2CU030 8AS100 A2999;EQDQ01+000003PRSWM1Q02    003PRSWM1
0211478550999992000010511174+32920+129920FM-16+0005RJFU V0201501N004110300019N0060001N1+01001+01001999999ADDGA1021+009009999GA2081+030009999GF108991999999999999999999MA1101491999999MW1611REMMET085RJFU 051117Z 15008KT 6000 -RA FEW030 OVC100 10/10 Q1015 RERA RMK 2CU030 8AS100 A2999;EQDQ01+000003PRSWM1Q02    003PRSWM1
0209478550999992000010512004+32920+129920FM-15+0005RJFU V0201601N007210300019N0060001N1+01101+00901999999ADDGA1021+012009999GA2081+030009999GF108991999999999999999999MA1101491999999MW1611REMMET083RJFU 1200Z 16014KT 6000 -RA FEW040 OVC100 11/09 Q1015 RERA RMK 2CU040 8AS100 A2998;EQDQ01+000003PRSWM1Q02    003PRSWM1
0149478550999992000010519304+32920+129920FM-15+0005RJFU V0209999C000012200019N0035001N1+00901+00901999999ADDGF100991999999999999999999MA1101291999999MW1101REMMET055RJFU 051930Z 00000KT 3500 BR SKC 09/09 Q1013 RMK A2993;EQDQ01+000003PRSWM1Q02    003PRSWM1
0181478550999992000010521004+32920+129920FM-15+0005RJFU V0201601N003612200019N0035001N1+00901+00901999999ADDGA1021+009009999GF104991999999999999999999MA1101291999999MW1101REMMET071RJFU 2100Z 16007KT 140V290 3500 BR SCT030 09/09 Q1013 RMK 3CU030 A2993;EQDQ01+000003PRSWM1Q02    003PRSWM1
0203478550999992000010522004+32920+129920FM-15+0005RJFU V02099999999990009019N0035001N1+01001+01001999999ADDGA1021+000609999GA2071+000909999GF107991999999999999999999MA1101391999999MW1101REMMET077RJFU 2200Z VRB02KT 3500 BR FEW002 BKN003 10/10 Q1014 RMK 1ST002 6ST003 A2995;EQDQ01+000003PRSWM1Q02    003PRSWM1
0175478550999992000010522144+32920+129920FM-16+0005RJFU V0201201N001512200019N0040001N1+01001+00901999999ADDGA1021+009009999GF102991999999999999999999MA1101391999999MW1101REMMET065RJFU 052214Z 12003KT 4000 BR FEW030 10/09 Q1014 RMK 2SC030 A2994;EQDQ01+000003PRSWM1Q02    003PRSWM1
0192478550999992000010601004+32920+129920FM-15+0005RJFU V0201401N002112200019N0070001N1+01301+01201999999ADDGA1021+009009999GA2021+030009999GF104991999999999999999999MA1101391999999MW1001REMMET082RJFU 0100Z 14004KT 090V160 7000 FEW030 SCT100 13/12 Q1014 RMK 1CU030 4AC100 A2995;EQDQ01+000000PRSWM2
0184478550999992000010602004+32920+129920FM-15+0005RJFU V02099999999990300019N0070001N1+01301+01201999999ADDGA1021+007509999GA2071+030009999GF107991999999999999999999MA1101391999999MW1001REMMET074RJFU 0200Z VRB04KT 7000 FEW025 BKN100 13/12 Q1014 RMK 1CU025 7AC100 A2996;EQDQ01+000000PRSWM2
0184478550999992000010603004+32920+129920FM-15+0005RJFU V0200401N001010360019N0090001N1+01501+01201999999ADDGA1021+007509999GA2071+036009999GF107991999999999999999999MA1101291999999MW1001REMMET074RJFU 0300Z 04002KT 9000 FEW025 BKN120 15/12 Q1013 RMK 1CU025 6AC120 A2991;EQDQ01+000000PRSWM2
0214478550999992000010604004+32920+129920FM-15+0005RJFU V02099999999990300019N0090001N1+01601+01301999999ADDGA1021+007509999GA2021+013509999GA3071+030009999GF107991999999999999999999MA1101191999999MW1001REMMET088RJFU 0400Z VRB02KT 9000 FEW025 SCT045 BKN100 16/13 Q1012 RMK 1CU025 3SC045 6AC100 A2990;EQDQ01+000000PRSWM2
0236478550999992000010605004+32920+129920FM-15+0005RJFU V0203201N000510300019N0112651N1+01601+01301999999ADDGA1021+003009999GA2021+009009999GA3071+030009999GF107991999999999999999999MA1101081999999MW1801REMMET094RJFU 0500Z 32001KT 9999 -SHRA FEW010 SCT030 BKN100 16/13 Q1011 RMK 1ST010 4CU030 7AC100 A2988;EQDQ01+000003PRSWM1Q02    003PRSWM1
0214478550999992000010606004+32920+129920FM-15+0005RJFU V0203401N001510300019N0080001N1+01501+01201999999ADDGA1021+000909999GA2021+007509999GA3071+030009999GF107991999999999999999999MA1101081999999MW1001REMMET088RJFU 0600Z 34003KT 8000 FEW003 SCT025 BKN100 15/12 Q1011 RMK 1ST003 3CU025 7AC100 A2987;EQDQ01+000000PRSWM2
0236478550999992000010607004+32920+129920FM-15+0005RJFU V0203601N003110060019N0112651N1+01401+01201999999ADDGA1021+003009999GA2071+006009999GA3081+030009999GF108991999999999999999999MA1101081999999MW1801REMMET094RJFU 0700Z 36006KT 9999 -SHRA FEW010 BKN020 OVC100 14/12 Q1011 RMK 1ST010 5CU020 8AS100 A2988;EQDQ01+000003PRSWM1Q02    003PRSWM1
0184478550999992000010608004+32920+129920FM-15+0005RJFU V02099999999992200019N0060001N1+01401+01201999999ADDGA1021+001509999GA2021+006009999GF104991999999999999999999MA1101191999999MW1001REMMET074RJFU 0800Z VRB02KT 6000 FEW005 SCT020 14/12 Q1012 RMK 1ST005 4CU020 A2989;EQDQ01+000000PRSWM2
0214478550999992000010609004+32920+129920FM-15+0005RJFU V0203201N008210045019N0070001N1+01301+01201999999ADDGA1021+001509999GA2021+003609999GA3071+004509999GF107991999999999999999999MA1101291999999MW1001REMMET088RJFU 0900Z 32016KT 7000 FEW005 SCT012 BKN015 13/12 Q1013 RMK 1ST005 3CU012 6CU015 A2992;EQDQ01+000000PRSWM2
0214478550999992000010610004+32920+129920FM-15+0005RJFU V0203201N008210045019N0112651N1+01301+01001999999ADDGA1021+002409999GA2021+003609999GA3071+004509999GF107991999999999999999999MA1101391999999MW1001REMMET088RJFU 1000Z 32016KT 9999 FEW008 SCT012 BKN015 13/10 Q1014 RMK 1ST008 3CU012 6CU015 A2996;EQDQ01+000000PRSWM2
0184478550999992000010611004+32920+129920FM-15+0005RJFU V0203201N007210045019N0112651N1+01201+01001999999ADDGA1021+003609999GA2071+004509999GF107991999999999999999999MA1101491999999MW1001REMMET074RJFU 1100Z 32014KT 9999 FEW012 BKN015 12/10 Q1015 RMK 1CU012 6CU015 A2998;EQDQ01+000000PRSWM2
0214478550999992000010612004+32920+129920FM-15+0005RJFU V0203401N005110075019N0112651N1+01201+00801999999ADDGA1021+004509999GA2071+007509999GA3071+009009999GF107991999999999999999999MA1101491999999MW1001REMMET088RJFU 1200Z 34010KT 9999 FEW015 BKN025 BKN030 12/08 Q1015 RMK 2CU015 5CU025 7CU030 A2999;EQDQ01+000000PRSWM2
0184478550999992000010620004+32920+129920FM-15+0005RJFU V0203301N012310090019N0112651N1+00801+00101999999ADDGA1021+007509999GA2071+009009999GF107991999999999999999999MA1101901999999MW1001REMMET074RJFU 2000Z 33024KT 9999 SCT025 BKN030 08/01 Q1019 RMK 3CU025 7CU030 A3011;EQDQ01+000000PRSWM2
0184478550999992000010621004+32920+129920FM-15+0005RJFU V0203301N010810090019N0112651N1+00701+00001999999ADDGA1021+007509999GA2071+009009999GF107991999999999999999999MA1102001999999MW1001REMMET074RJFU 2100Z 33021KT 9999 SCT025 BKN030 07/00 Q1020 RMK 3CU025 7CU030 A3014;EQDQ01+000000PRSWM2
0215478550999992000010622004+32920+129920FM-15+0005RJFU V0203401N011310105019N0112651N1+00701+00001999999ADDGA1021+007509999GA2021+009009999GA3071+010509999GF107991999999999999999999MA1102101999999MW1001REMMET089RJFU 2200Z 34022KT 9999 FEW025 SCT030 BKN035 07/M00 Q1021 RMK 1CU025 4CU030 7CU035 A3016;EQDQ01+000000PRSWM2
0208478550999992000010623004+32920+129920FM-15+0005RJFU V0203301N013419999999N0112651N1+00701-00201999999ADDGA1021+007509999GA2021+010509999GA3071+999999999GF107991999999999999999999MA1102101999999MW1001REMMET082RJFU 2300Z 33026KT 9999 FEW025 SCT035 BKN/// 07/M02 Q1021 RMK 1CU025 3CU035 A3018;EQDQ01+000000PRSWM2
0155478550999992000010700004+32920+129920FM-15+0005RJFU V0203301N011312200019N0112651N1+00701-00201999999ADDGA1021+010509999GF102991999999999999999999MA1102201999999MW1001REMMET061RJFU 0000Z 33022KT 9999 FEW035 07/M02 Q1022 RMK 2CU035 A3021;EQDQ01+000000PRSWM2
0155478550999992000010701004+32920+129920FM-15+0005RJFU V0203201N014412200019N0112651N1+00701-00301999999ADDGA1021+012009999GF104991999999999999999999MA1102301999999MW1001REMMET061RJFU 0100Z 32028KT 9999 SCT040 07/M03 Q1023 RMK 3CU040 A3023;EQDQ01+000000PRSWM2
0155478550999992000010702004+32920+129920FM-15+0005RJFU V0203301N009810120019N0112651N1+00701-00201999999ADDGA1071+012009999GF107991999999999999999999MA1102301999999MW1001REMMET061RJFU 0200Z 33019KT 9999 BKN040 07/M02 Q1023 RMK 7CU040 A3023;EQDQ01+000000PRSWM2
0155478550999992000010703004+32920+129920FM-15+0005RJFU V0203301N010810120019N0112651N1+00801-00201999999ADDGA1071+012009999GF107991999999999999999999MA1102301999999MW1001REMMET061RJFU 0300Z 33021KT 9999 BKN040 08/M02 Q1023 RMK 5CU040 A3022;EQDQ01+000000PRSWM2
0168478550999992000010703494+32920+129920FM-16+0005RJFU V0203301N009810120019N0112651N1+00701-00301999999ADDGA1071+012009999GF107991999999999999999999MA1102301999999MW1001OC101701REMMET066RJFU 070349Z 33019G33KT 9999 BKN040 07/M03 Q1023 RMK 7CU040 A3021;EQDQ01+000000PRSWM2
0155478550999992000010704004+32920+129920FM-15+0005RJFU V0203301N009310120019N0112651N1+00701-00301999999ADDGA1071+012009999GF107991999999999999999999MA1102301999999MW1001REMMET061RJFU 0400Z 33018KT 9999 BKN040 07/M03 Q1023 RMK 7CU040 A3021;EQDQ01+000000PRSWM2
0185478550999992000010705004+32920+129920FM-15+0005RJFU V0203401N007710120019N0112651N1+00701-00301999999ADDGA1021+010509999GA2071+012009999GF107991999999999999999999MA1102201999999MW1001REMMET075RJFU 0500Z 34015KT 9999 FEW035 BKN040 07/M03 Q1022 RMK 1CU035 7CU040 A3020;EQDQ01+000000PRSWM2
0155478550999992000010706004+32920+129920FM-15+0005RJFU V0203301N007710120019N0112651N1+00601-00301999999ADDGA1071+012009999GF107991999999999999999999MA1102201999999MW1001REMMET061RJFU 0600Z 33015KT 9999 BKN040 06/M03 Q1022 RMK 5CU040 A3019;EQDQ01+000000PRSWM2
0155478550999992000010707004+32920+129920FM-15+0005RJFU V0203101N007212200019N0112651N1+00601-00401999999ADDGA1021+012009999GF102991999999999999999999MA1102201999999MW1001REMMET061RJFU 0700Z 31014KT 9999 FEW040 06/M04 Q1022 RMK 2CU040 A3020;EQDQ01+000000PRSWM2
0185478550999992000010708004+32920+129920FM-15+0005RJFU V0203101N005712200019N0112651N1+00601-00301999999ADDGA1021+009009999GA2021+012009999GF104991999999999999999999MA1102201999999MW1001REMMET075RJFU 0800Z 31011KT 9999 FEW030 SCT040 06/M03 Q1022 RMK 1CU030 4CU040 A3019;EQDQ01+000000PRSWM2
0185478550999992000010709004+32920+129920FM-15+0005RJFU V0203001N004612200019N0112651N1+00501-00301999999ADDGA1021+009009999GA2021+012009999GF104991999999999999999999MA1102201999999MW1001REMMET075RJFU 0900Z 30009KT 9999 FEW030 SCT040 05/M03 Q1022 RMK 1CU030 4CU040 A3020;EQDQ01+000000PRSWM2
0155478550999992000010710004+32920+129920FM-15+0005RJFU V0203201N006212200019N0112651N1+00501-00301999999ADDGA1021+012009999GF104991999999999999999999MA1102201999999MW1001REMMET061RJFU 1000Z 32012KT 9999 SCT040 05/M03 Q1022 RMK 3CU040 A3019;EQDQ01+000000PRSWM2
0165478550999992000010710274+32920+129920FM-16+0005RJFU V0200301N002612200019N0112651N1+00501-00301999999ADDGA1021+012009999GF102991999999999999999999MA1102201999999MW1001REMMET071RJFU 071027Z 03005KT 310V080 9999 FEW040 05/M03 Q1022 RMK 2CU040 A3019;EQDQ01+000000PRSWM2
0155478550999992000010711004+32920+129920FM-15+0005RJFU V0200901N003612200019N0112651N1+00401-00301999999ADDGA1021+012009999GF102991999999999999999999MA1102101999999MW1001REMMET061RJFU 1100Z 09007KT 9999 FEW040 04/M03 Q1021 RMK 1CU040 A3018;EQDQ01+000000PRSWM2
0155478550999992000010712004+32920+129920FM-15+0005RJFU V0200801N002612200019N0112651N1+00401-00301999999ADDGA1021+012009999GF102991999999999999999999MA1102101999999MW1001REMMET061RJFU 1200Z 08005KT 9999 FEW040 04/M03 Q1021 RMK 1CU040 A3018;EQDQ01+000000PRSWM2
0184478550999992000010720004+32920+129920FM-15+0005RJFU V02099999999990120019N0112651N1+00501+00101999999ADDGA1021+009009999GA2071+012009999GF107991999999999999999999MA1102201999999MW1001REMMET074RJFU 2000Z VRB02KT 9999 FEW030 BKN040 05/01 Q1022 RMK 2CU030 7CU040 A3020;EQDQ01+000000PRSWM2
0184478550999992000010721004+32920+129920FM-15+0005RJFU V0203401N004610120019N0112651N1+00601+00101999999ADDGA1021+009009999GA2071+012009999GF107991999999999999999999MA1102201999999MW1001REMMET074RJFU 2100Z 34009KT 9999 FEW030 BKN040 06/01 Q1022 RMK 2CU030 7CU040 A3020;EQDQ01+000000PRSWM2
0219478550999992000010722004+32920+129920FM-15+0005RJFU V0203501N005110120019N0112651N1+00601+00001999999ADDGA1021+007509999GA2021+009009999GA3071+012009999GF107991999999999999999999MA1102301999999MW1001REMMET093RJFU 2200Z 35010KT 9999 FEW025 SCT030 BKN040 06/00 Q1023 RMK 1CU025 3CU030 6CU040 A3022 P/RR;EQDQ01+000000PRSWM2
0214478550999992000010723004+32920+129920FM-15+0005RJFU V0203501N005110300019N0112651N1+00601+00101999999ADDGA1021+006009999GA2021+009009999GA3071+030009999GF107991999999999999999999MA1102301999999MW1001REMMET088RJFU 2300Z 35010KT 9999 FEW020 SCT030 BKN100 06/01 Q1023 RMK 1CU020 3CU030 5AC100 A3023;EQDQ01+000000PRSWM2
0234478550999992000010800004+32920+129920FM-15+0005RJFU V0203601N003610135019N0112651N1+00701+00201999999ADDGA1021+004509999GA2021+007509999GA3071+013509999GF107991999999999999999999MA1102301999999MW1611REMMET092RJFU 0000Z 36007KT 9999 -RA FEW015 SCT025 BKN045 07/02 Q1023 RMK 1ST015 3SC025 5SC045 A3024;EQDQ01+000003PRSWM1Q02    003PRSWM1
0222478550999992000010801004+32920+129920FM-15+0005RJFU V0200701N002110075019N0112651N1+00701+00101999999ADDGA1021+003909999GA2071+007509999GA3071+030009999GF107991999999999999999999MA1102401999999MW1001REMMET096RJFU 0100Z 07004KT 040V110 9999 FEW013 BKN025 BKN100 07/01 Q1024 RMK 1ST013 5SC025 7AC100 A3025;EQDQ01+000000PRSWM2
0222478550999992000010802004+32920+129920FM-15+0005RJFU V0201301N002110300019N0112651N1+00801+00201999999ADDGA1021+004509999GA2021+009009999GA3071+030009999GF107991999999999999999999MA1102301999999MW1001REMMET096RJFU 0200Z 13004KT 090V160 9999 FEW015 SCT030 BKN100 08/02 Q1023 RMK 1CU015 3SC030 7AC100 A3024;EQDQ01+000000PRSWM2
0184478550999992000010803004+32920+129920FM-15+0005RJFU V0201801N002112200019N0112651N1+00801+00201999999ADDGA1021+007509999GA2021+036009999GF104991999999999999999999MA1102301999999MW1001REMMET074RJFU 0300Z 18004KT 9999 FEW025 SCT120 08/02 Q1023 RMK 1CU025 3AC120 A3022;EQDQ01+000000PRSWM2
0162478550999992000010804004+32920+129920FM-15+0005RJFU V0202201N002112200019N0112651N1+00901+00101999999ADDGA1021+009009999GF102991999999999999999999MA1102201999999MW1001REMMET068RJFU 0400Z 22004KT 180V270 9999 FEW030 09/01 Q1022 RMK 1CU030 A3020;EQDQ01+000000PRSWM2
0214478550999992000010805004+32920+129920FM-15+0005RJFU V02099999999990390019N0112651N1+00901+00101999999ADDGA1021+007509999GA2021+012009999GA3071+039009999GF107991999999999999999999MA1102201999999MW1001REMMET088RJFU 0500Z VRB03KT 9999 FEW025 SCT040 BKN130 09/01 Q1022 RMK 1CU025 3SC040 5AC130 A3018;EQDQ01+000000PRSWM2
0214478550999992000010806004+32920+129920FM-15+0005RJFU V0203201N003110300019N0112651N1+00901+00101999999ADDGA1021+009009999GA2021+012009999GA3071+030009999GF107991999999999999999999MA1102201999999MW1001REMMET088RJFU 0600Z 32006KT 9999 FEW030 SCT040 BKN100 09/01 Q1022 RMK 1CU030 4SC040 6AC100 A3018;EQDQ01+000000PRSWM2
0177478550999992000010807004+32920+129920FM-15+0005RJFU V0202801N001512200019N0112651N1+00901+00201999999ADDGA1021+010509999GA2021+999999999GF104991999999999999999999MA1102201999999MW1001REMMET067RJFU 0700Z 28003KT 9999 FEW035 SCT/// 09/02 Q1022 RMK 1CU035 A3018;EQDQ01+000000PRSWM2
0177478550999992000010808004+32920+129920FM-15+0005RJFU V0202801N001519999999N0112651N1+00801+00101999999ADDGA1021+009009999GA2071+999999999GF107991999999999999999999MA1102201999999MW1001REMMET067RJFU 0800Z 28003KT 9999 FEW030 BKN/// 08/01 Q1022 RMK 1CU030 A3019;EQDQ01+000000PRSWM2
0215478550999992000010809004+32920+129920FM-15+0005RJFU V0201401N002610300019N0112651N1+00801+00201999999ADDGA1021+009009999GA2071+030009999GA3071+999999999GF107991999999999999999999MA1102201999999MW1001REMMET089RJFU 0900Z 14005KT 120V200 9999 FEW030 BKN100 BKN/// 08/02 Q1022 RMK 2CU030 5AC100 A3021;EQDQ01+000000PRSWM2
0184478550999992000010810004+32920+129920FM-15+0005RJFU V02099999999990360019N0112651N1+00801+00301999999ADDGA1021+009009999GA2071+036009999GF107991999999999999999999MA1102301999999MW1001REMMET074RJFU 1000Z VRB03KT 9999 FEW030 BKN120 08/03 Q1023 RMK 2CU030 7AC120 A3022;EQDQ01+000000PRSWM2
0222478550999992000010811004+32920+129920FM-15+0005RJFU V0200701N002110360019N0112651N1+00701+00301999999ADDGA1021+009009999GA2021+030009999GA3071+036009999GF107991999999999999999999MA1102301999999MW1001REMMET096RJFU 1100Z 07004KT 030V110 9999 FEW030 SCT100 BKN120 07/03 Q1023 RMK 1CU030 3AC100 7AC120 A3023;EQDQ01+000000PRSWM2
0184478550999992000010812004+32920+129920FM-15+0005RJFU V0201401N002610360019N0112651N1+00801+00301999999ADDGA1021+009009999GA2071+036009999GF107991999999999999999999MA1102301999999MW1001REMMET074RJFU 1200Z 14005KT 9999 FEW030 BKN120 08/03 Q1023 RMK 1CU030 7AC120 A3023;EQDQ01+000000PRSWM2
0234478550999992000010820004+32920+129920FM-15+0005RJFU V02099999999990300019N0112651N1+00701+00301999999ADDGA1021+009009999GA2021+024009999GA3071+030009999GF107991999999999999999999MA1102001999999MW1611REMMET092RJFU 2000Z VRB01KT 9999 -RA FEW030 SCT080 BKN100 07/03 Q1020 RMK 1CU030 3AC080 7AC100 A3015;EQDQ01+000003PRSWM1Q02    003PRSWM1
0162478550999992000010821004+32920+129920FM-15+0005RJFU V0201501N005112200019N0112651N1+99999+99999999999ADDGA1021+024009999GF102991999999999999999999MW1001MW2611REMMET077RJFU 2100Z 15010KT 9999 -RA FEW080 BN100 07/04 Q1020 RMK 2AC080 7AC100 A3014;EQDQ01+000003PRSWM1
0204478550999992000010822004+32920+129920FM-15+0005RJFU V0201301N004110300019N0112651N1+00701+00301999999ADDGA1021+024009999GA2071+030009999GF107991999999999999999999MA1102001999999MW1611REMMET078RJFU 2200Z 13008KT 9999 -RA FEW080 BKN100 07/03 Q1020 RMK 1AC080 7AC100 A3015;EQDQ01+000003PRSWM1Q02    003PRSWM1
0204478550999992000010823004+32920+129920FM-15+0005RJFU V02099999999990360019N0090001N1+00701+00401999999ADDGA1021+024009999GA2081+036009999GF108991999999999999999999MA1102001999999MW1611REMMET078RJFU 2300Z VRB02KT 9000 -RA FEW080 OVC120 07/04 Q1020 RMK 1AC080 8AS120 A3014;EQDQ01+000003PRSWM1Q02    003PRSWM1
0235478550999992000010823434+32920+129920FM-16+0005RJFU V0201201N002610300019N0090001N1+00701+00401999999ADDGA1021+018009999GA2071+030009999GA3081+036009999GF108991999999999999999999MA1102001999999MW1631REMMET093RJFU 082343Z 12005KT 9000 RA FEW060 BKN100 OVC120 07/04 Q1020 RMK 1SC060 5AC100 8AS120 A3014;EQDQ01+000003PRSWM1Q02    003PRSWM1
0239478550999992000010900004+32920+129920FM-15+0005RJFU V0201101N001510360019N0090001N1+00701+00401999999ADDGA1021+009009999GA2021+030009999GA3081+036009999GF108991999999999999999999MA1102001999999MW1611REMMET097RJFU 0000Z 11003KT 9000 -RA FEW030 SCT100 OVC120 07/04 Q1020 RERA RMK 1CU030 4AC100 8AS120 A3013;EQDQ01+000003PRSWM1Q02    003PRSWM1
0234478550999992000010901004+32920+129920FM-15+0005RJFU V0201701N001510240019N0090001N1+00701+00401999999ADDGA1021+010509999GA2071+024009999GA3081+033009999GF108991999999999999999999MA1102001999999MW1611REMMET092RJFU 0100Z 17003KT 9000 -RA FEW035 BKN080 OVC110 07/04 Q1020 RMK 1CU035 5AC080 8AS110 A3014;EQDQ01+000003PRSWM1Q02    003PRSWM1
0235478550999992000010901364+32920+129920FM-16+0005RJFU V02099999999990240019N0090001N1+00701+00501999999ADDGA1021+010509999GA2071+024009999GA3081+033009999GF108991999999999999999999MA1102001999999MW1631REMMET093RJFU 090136Z VRB02KT 9000 RA FEW035 BKN080 OVC110 07/05 Q1020 RMK 1CU035 5AC080 8AS110 A3013;EQDQ01+000003PRSWM1Q02    003PRSWM1
0233478550999992000010902004+32920+129920FM-15+0005RJFU V0201701N002110240019N0090001N1+00701+00501999999ADDGA1021+003009999GA2021+015009999GA3071+024009999GF107991999999999999999999MA1102001999999MW1631REMMET091RJFU 0200Z 17004KT 9000 RA FEW010 SCT050 BKN080 07/05 Q1020 RMK 1ST010 3SC050 5AC080 A3013;EQDQ01+000003PRSWM1Q02    003PRSWM1
0233478550999992000010903004+32920+129920FM-15+0005RJFU V02099999999990240019N0060001N1+00701+00501999999ADDGA1021+004509999GA2071+024009999GA3081+030009999GF108991999999999999999999MA1101901999999MW1631REMMET091RJFU 0300Z VRB02KT 6000 RA FEW015 BKN080 OVC100 07/05 Q1019 RMK 1CU015 5AC080 8AS100 A3010;EQDQ01+000003PRSWM1Q02    003PRSWM1
0242478550999992000010904004+32920+129920FM-15+0005RJFU V0201101N001510300019N0050001N1+00701+00601999999ADDGA1021+003609999GA2021+018009999GA3081+030009999GF108991999999999999999999MA1101691999999MW1101MW2631REMMET094RJFU 0400Z 11003KT 5000 RA BR FEW012 SCT060 OVC100 07/06 Q1017 RMK 1CU012 4SC060 8AS100 A3006;EQDQ01+000003PRSWM1Q02    003PRSWM1
0255478550999992000010904134+32920+129920FM-16+0005RJFU V0201401N001510300019N0045001N1+00701+00501999999ADDGA1021+003609999GA2021+018009999GA3081+030009999GF108991999999999999999999MA1101691999999MW1651REMMET097RJFU 090413Z 14003KT 4500 +RA BR FEW012 SCT060 OVC100 07/05 Q1017 RMK 1CU012 3SC060 8AS100 A3005;EQDQ01+000100PRSWM3Q02+000003PRSWM1Q03    003PRSWM1
0259478550999992000010904244+32920+129920FM-16+0005RJFU V02099999999990300019N0045001N1+00701+00501999999ADDGA1021+003609999GA2021+018009999GA3081+030009999GF108991999999999999999999MA1101691999999MW1631REMMET101RJFU 090424Z VRB02KT 4500 RA BR FEW012 SCT060 OVC100 07/05 Q1017 RERA RMK 1CU012 3SC060 8AS100 A3005;EQDQ01+000100PRSWM3Q02+000003PRSWM1Q03    003PRSWM1
0247478550999992000010905004+32920+129920FM-15+0005RJFU V02099999999990180019N0040001N1+00701+00601999999ADDGA1021+003009999GA2071+018009999GA3081+030009999GF108991999999999999999999MA1101591999999MW1101MW2631REMMET099RJFU 0500Z VRB02KT 4000 RA BR FEW010 BKN060 OVC100 07/06 Q1016 RERA RMK 1ST010 5SC060 8AS100 A3003;EQDQ01+000003PRSWM1Q02    003PRSWM1
0262478550999992000010905314+32920+129920FM-16+0005RJFU V0201801N002110150019N0030001N1+00701+00601999999ADDGA1021+003009999GA2071+015009999GA3081+030009999GF108991999999999999999999MA1101591999999MW1631REMMET104RJFU 090531Z 18004KT 140V210 3000 RA BR FEW010 BKN050 OVC100 07/06 Q1016 RMK 1ST010 5SC050 8AS100 A3002;EQDQ01+000100PRSWM3Q02+000003PRSWM1Q03    003PRSWM1
0254478550999992000010905484+32920+129920FM-16+0005RJFU V0201301N003110135019N0035001N1+00701+00601999999ADDGA1021+001509999GA2021+003609999GA3071+013509999GF107991999999999999999999MA1101591999999MW1631REMMET096RJFU 090548Z 13006KT 3500 RA BR FEW005 SCT012 BKN045 07/06 Q1016 RMK 1ST005 3CU012 5SC045 A3002;EQDQ01+000100PRSWM3Q02+000003PRSWM1Q03    003PRSWM1
0216478550999992000010907004+32920+129920FM-15+0005RJFU V0201301N002110105019N0030001N1+00701+00601999999ADDGA1021+001509999GA2021+003609999GA3071+010509999GF107991999999999999999999MA1101491999999MW1101MW2631REMMET068RJFU 0700Z 13004KT 3000 RA BR FEW005 SCT012 BKN035 07/06 Q1015 RERA;EQDQ01+000003PRSWM1Q02    003PRSWM1
0250478550999992000010907204+32920+129920FM-15+0005RJFU V02099999999990105019N0050001N1+00701+00601999999ADDGA1021+001509999GA2071+010509999GA3081+030009999GF108991999999999999999999MA1101491999999MW1101MW2611REMMET102RJFU 090720Z VRB01KT 5000 -RA BR FEW005 BKN035 OVC100 07/06 Q1015 RERA RMK 1ST005 5SC035 8AS100 A2998;EQDQ01+000003PRSWM1Q02    003PRSWM1
0239478550999992000010908004+32920+129920FM-15+0005RJFU V0201701N005110240019N0070001N1+00701+00701999999ADDGA1021+001509999GA2021+010509999GA3071+024009999GF107991999999999999999999MA1101391999999MW1611REMMET097RJFU 0800Z 17010KT 7000 -RA FEW005 SCT035 BKN080 07/07 Q1014 RERA RMK 1ST005 4SC035 6AC080 A2997;EQDQ01+000003PRSWM1Q02    003PRSWM1
0236478550999992000010908124+32920+129920FM-16+0005RJFU V0201601N005110105019N0050001N1+00801+00701999999ADDGA1021+001509999GA2071+010509999GA3071+024009999GF107991999999999999999999MA1101491999999MW1651REMMET094RJFU 090812Z 16010KT 5000 +RA FEW005 BKN035 BKN080 08/07 Q1015 RMK 1ST005 5SC035 6AC080 A2997;EQDQ01+000003PRSWM1Q02    003PRSWM1
0240478550999992000010908384+32920+129920FM-16+0005RJFU V0201901N003110090019N0060001N1+00801+00701999999ADDGA1021+001509999GA2021+004509999GA3071+009009999GF107991999999999999999999MA1101391999999MW1631REMMET098RJFU 090838Z 19006KT 6000 RA FEW005 SCT015 BKN030 08/07 Q1014 RERA RMK 1ST005 4ST015 6SC030 A2997;EQDQ01+000003PRSWM1Q02    003PRSWM1
0244478550999992000010908494+32920+129920FM-16+0005RJFU V0201801N003110045019N0050001N1+00801+00701999999ADDGA1021+001509999GA2021+003009999GA3071+004509999GF107991999999999999999999MA1101491999999MW1651REMMET102RJFU 090849Z 18006KT 140V250 5000 +RA FEW005 SCT010 BKN015 08/07 Q1015 RMK 1ST005 3ST010 5ST015 A2997;EQDQ01+000003PRSWM1Q02    003PRSWM1
0238478550999992000010909004+32920+129920FM-15+0005RJFU V0201701N002610090019N0060001N1+00801+00701999999ADDGA1021+001509999GA2021+003009999GA3071+009009999GF107991999999999999999999MA1101491999999MW1631REMMET096RJFU 0900Z 17005KT 6000 RA FEW005 SCT010 BKN030 08/07 Q1015 RERA RMK 1ST005 3ST010 6SC030 A2997;EQDQ01+000003PRSWM1Q02    003PRSWM1
0243478550999992000010909484+32920+129920FM-16+0005RJFU V0201101N002110090019N0070001N1+00801+00801999999ADDGA1021+001509999GA2021+004509999GA3071+009009999GF107991999999999999999999MA1101391999999MW1631REMMET101RJFU 090948Z 11004KT 040V200 7000 RA FEW005 SCT015 BKN030 08/08 Q1014 RMK 1ST005 4ST015 6SC030 A2996;EQDQ01+000003PRSWM1Q02    003PRSWM1
0239478550999992000010910004+32920+129920FM-15+0005RJFU V02099999999990090019N0070001N1+00801+00701999999ADDGA1021+001509999GA2021+004509999GA3071+009009999GF107991999999999999999999MA1101391999999MW1611REMMET097RJFU 1000Z VRB02KT 7000 -RA FEW005 SCT015 BKN030 08/07 Q1014 RERA RMK 1ST005 4ST015 6SC030 A2996;EQDQ01+000003PRSWM1Q02    003PRSWM1
0239478550999992000010911004+32920+129920FM-15+0005RJFU V0203201N001510036019N0080001N1+00801+00701999999ADDGA1021+001209999GA2021+002109999GA3071+003609999GF107991999999999999999999MA1101291999999MW1611REMMET097RJFU 1100Z 32003KT 8000 -RA FEW004 SCT007 BKN012 08/07 Q1013 RERA RMK 1ST004 3ST007 5ST012 A2994;EQDQ01+000003PRSWM1Q02    003PRSWM1
0236478550999992000010911204+32920+129920FM-15+0005RJFU V02099999999990075019N0060001N1+00801+00701999999ADDGA1021+001509999GA2021+003609999GA3071+007509999GF107991999999999999999999MA1101291999999MW1651REMMET094RJFU 091120Z VRB03KT 6000 +RA FEW005 SCT012 BKN025 08/07 Q1013 RMK 1ST005 4ST012 7SC025 A2994;EQDQ01+000003PRSWM1Q02    003PRSWM1
0240478550999992000010911254+32920+129920FM-15+0005RJFU V02099999999990075019N0070001N1+00801+00701999999ADDGA1021+001509999GA2021+003609999GA3071+007509999GF107991999999999999999999MA1101291999999MW1631REMMET098RJFU 091125Z VRB02KT 7000 RA FEW005 SCT012 BKN025 08/07 Q1013 RERA RMK 1ST005 4ST012 7SC025 A2994;EQDQ01+000003PRSWM1Q02    003PRSWM1
0241478550999992000010911354+32920+129920FM-16+0005RJFU V02099999999990075019N0070001N1+00801+00701999999ADDGA1021+001509999GA2021+003609999GA3071+007509999GF107991999999999999999999MA1101291999999MW1611REMMET099RJFU 091135Z VRB01KT 7000 -RA FEW005 SCT012 BKN025 08/07 Q1013 RERA RMK 1ST005 3ST012 6SC025 A2993;EQDQ01+000003PRSWM1Q02    003PRSWM1
0235478550999992000010911494+32920+129920FM-16+0005RJFU V0201401N002110075019N0070001N1+00801+00801999999ADDGA1021+001209999GA2021+003609999GA3071+007509999GF107991999999999999999999MA1101291999999MW1631REMMET093RJFU 091149Z 14004KT 7000 RA FEW004 SCT012 BKN025 08/08 Q1013 RMK 1ST004 3ST012 6SC025 A2993;EQDQ01+000003PRSWM1Q02    003PRSWM1
0239478550999992000010912004+32920+129920FM-15+0005RJFU V02099999999990075019N0080001N1+00801+00801999999ADDGA1021+001509999GA2021+003609999GA3071+007509999GF107991999999999999999999MA1101291999999MW1611REMMET097RJFU 1200Z VRB03KT 8000 -RA FEW005 SCT012 BKN025 08/08 Q1013 RERA RMK 1ST005 3ST012 6SC025 A2993;EQDQ01+000003PRSWM1Q02    003PRSWM1
0235478550999992000010912024+32920+129920FM-16+0005RJFU V02099999999990075019N0080001N1+00801+00801999999ADDGA1021+001509999GA2021+003609999GA3071+007509999GF107991999999999999999999MA1101291999999MW1631REMMET093RJFU 091202Z VRB03KT 8000 RA FEW005 SCT012 BKN025 08/08 Q1013 RMK 1ST005 3ST012 6SC025 A2994;EQDQ01+000003PRSWM1Q02    003PRSWM1
0249478550999992000010912204+32920+129920FM-15+0005RJFU V0202801N002610036019N0080001N1+00801+00801999999ADDGA1021+001509999GA2071+003609999GA3071+007509999GF107991999999999999999999MA1101391999999MW1611REMMET107RJFU 091220Z 28005KT 180V320 8000 -RA FEW005 BKN012 BKN025 08/08 Q1014 RERA RMK 1ST005 5ST012 6SC025 A2995;EQDQ01+000003PRSWM1Q02    003PRSWM1
0222478550999992000010920004+32920+129920FM-15+0005RJFU V0203401N002110060019N0112651N1+01001+00901999999ADDGA1021+004509999GA2071+006009999GA3071+007509999GF107991999999999999999999MA1101691999999MW1001REMMET096RJFU 2000Z 34004KT 320V020 9999 SCT015 BKN020 BKN025 10/09 Q1017 RMK 3ST015 5SC020 7SC025 A3005;EQDQ01+000000PRSWM2
0214478550999992000010921004+32920+129920FM-15+0005RJFU V0203201N003610075019N0112651N1+01001+00901999999ADDGA1021+004509999GA2071+007509999GA3071+009009999GF107991999999999999999999MA1101691999999MW1001REMMET088RJFU 2100Z 32007KT 9999 FEW015 BKN025 BKN030 10/09 Q1017 RMK 1ST015 5SC025 7SC030 A3005;EQDQ01+000000PRSWM2
0214478550999992000010922004+32920+129920FM-15+0005RJFU V0203101N002610450019N0112651N1+00901+00801999999ADDGA1021+001509999GA2021+010509999GA3071+045009999GF107991999999999999999999MA1101801999999MW1001REMMET088RJFU 2200Z 31005KT 9999 FEW005 SCT035 BKN150 09/08 Q1018 RMK 1ST005 3SC035 5AC150 A3008;EQDQ01+000000PRSWM2
0207478550999992000010923004+32920+129920FM-15+0005RJFU V0203601N003119999999N0112651N1+01001+00901999999ADDGA1021+003009999GA2021+006009999GA3071+999999999GF107991999999999999999999MA1101801999999MW1001REMMET081RJFU 2300Z 36006KT 9999 FEW010 SCT020 BKN/// 10/09 Q1018 RMK 1CU010 3SC020 A3009;EQDQ01+000000PRSWM2
0207478550999992000011000004+32920+129920FM-15+0005RJFU V0200101N003619999999N0112651N1+01201+00901999999ADDGA1021+003609999GA2021+009009999GA3071+999999999GF107991999999999999999999MA1102001999999MW1001REMMET081RJFU 0000Z 01007KT 9999 FEW012 SCT030 BKN/// 12/09 Q1020 RMK 1CU012 3SC030 A3012;EQDQ01+000000PRSWM2
0177478550999992000011001004+32920+129920FM-15+0005RJFU V0203601N005719999999N0112651N1+01201+00801999999ADDGA1021+006009999GA2071+999999999GF107991999999999999999999MA1102001999999MW1001REMMET067RJFU 0100Z 36011KT 9999 FEW020 BKN/// 12/08 Q1020 RMK 1CU020 A3015;EQDQ01+000000PRSWM2
0177478550999992000011002004+32920+129920FM-15+0005RJFU V0203401N004619999999N0112651N1+01301+00801999999ADDGA1021+009009999GA2071+999999999GF107991999999999999999999MA1102001999999MW1001REMMET067RJFU 0200Z 34009KT 9999 FEW030 BKN/// 13/08 Q1020 RMK 2CU030 A3015;EQDQ01+000000PRSWM2
0177478550999992000011003004+32920+129920FM-15+0005RJFU V0203601N006719999999N0112651N1+01301+00601999999ADDGA1021+009009999GA2071+999999999GF107991999999999999999999MA1102001999999MW1001REMMET067RJFU 0300Z 36013KT 9999 FEW030 BKN/// 13/06 Q1020 RMK 2CU030 A3013;EQDQ01+000000PRSWM2
0207478550999992000011004004+32920+129920FM-15+0005RJFU V0203401N005119999999N0112651N1+01301+00701999999ADDGA1021+009009999GA2021+012009999GA3071+999999999GF107991999999999999999999MA1101901999999MW1001REMMET081RJFU 0400Z 34010KT 9999 FEW030 SCT040 BKN/// 13/07 Q1019 RMK 1CU030 3CU040 A3011;EQDQ01+000000PRSWM2
0177478550999992000011005004+32920+129920FM-15+0005RJFU V0200101N006219999999N0112651N1+01301+00601999999ADDGA1021+010509999GA2071+999999999GF107991999999999999999999MA1101901999999MW1001REMMET067RJFU 0500Z 01012KT 9999 SCT035 BKN/// 13/06 Q1019 RMK 3CU035 A3010;EQDQ01+000000PRSWM2
0207478550999992000011006004+32920+129920FM-15+0005RJFU V0203601N006219999999N0112651N1+01201+00601999999ADDGA1021+009009999GA2021+045009999GA3071+999999999GF107991999999999999999999MA1101901999999MW1001REMMET081RJFU 0600Z 36012KT 9999 FEW030 SCT150 BKN/// 12/06 Q1019 RMK 1CU030 3AC150 A3010;EQDQ01+000000PRSWM2
0154478550999992000011007004+32920+129920FM-15+0005RJFU V0203601N007712200019N0112651N1+01201+00501999999ADDGA1021+009009999GF102991999999999999999999MA1102001999999MW1001REMMET060RJFU 0700Z 36015KT 9999 FEW030 12/05 Q1020 RMK 1CU030 A3012;EQDQ01+000000PRSWM2
0154478550999992000011008004+32920+129920FM-15+0005RJFU V0203601N007212200019N0112651N1+01001+00301999999ADDGA1021+009009999GF102991999999999999999999MA1102001999999MW1001REMMET060RJFU 0800Z 36014KT 9999 FEW030 10/03 Q1020 RMK 1CU030 A3014;EQDQ01+000000PRSWM2
0177478550999992000011009004+32920+129920FM-15+0005RJFU V0200101N007212200019N0112651N1+00901+00301999999ADDGA1021+010509999GA2021+999999999GF104991999999999999999999MA1102101999999MW1001REMMET067RJFU 0900Z 01014KT 9999 FEW035 SCT/// 09/03 Q1021 RMK 1CU035 A3016;EQDQ01+000000PRSWM2
0177478550999992000011010004+32920+129920FM-15+0005RJFU V0200101N005712200019N0112651N1+00901+00201999999ADDGA1021+010509999GA2021+999999999GF104991999999999999999999MA1102201999999MW1001REMMET067RJFU 1000Z 01011KT 9999 FEW035 SCT/// 09/02 Q1022 RMK 1CU035 A3018;EQDQ01+000000PRSWM2
0154478550999992000011011004+32920+129920FM-15+0005RJFU V0203601N006212200019N0112651N1+00801+00201999999ADDGA1021+010509999GF102991999999999999999999MA1102201999999MW1001REMMET060RJFU 1100Z 36012KT 9999 FEW035 08/02 Q1022 RMK 1CU035 A3020;EQDQ01+000000PRSWM2
0154478550999992000011012004+32920+129920FM-15+0005RJFU V0200101N004612200019N0112651N1+00701+00201999999ADDGA1021+010509999GF102991999999999999999999MA1102201999999MW1001REMMET060RJFU 1200Z 01009KT 9999 FEW035 07/02 Q1022 RMK 1CU035 A3020;EQDQ01+000000PRSWM2
0177478550999992000011020004+32920+129920FM-15+0005RJFU V02099999999992200019N0112651N1+00501+00201999999ADDGA1021+010509999GA2021+999999999GF104991999999999999999999MA1102101999999MW1001REMMET067RJFU 2000Z VRB02KT 9999 FEW035 SCT/// 05/02 Q1021 RMK 1CU035 A3016;EQDQ01+000000PRSWM2
0107478550999992000011021004+32920+129920FM-15+0005RJFU V0201301N00261220001CN0099001N1+00501+00201999999ADDMA1102201999999MW1001REMMET055RJFU 2100Z 13005KT 080V160 CAVOK 05/02 Q1022 RMK A3018;EQDQ01+000000PRSWM2
0184478550999992000011022004+32920+129920FM-15+0005RJFU V02099999999992200019N0112651N1+00401+00101999999ADDGA1021+010509999GA2021+039009999GF104991999999999999999999MA1102201999999MW1001REMMET074RJFU 2200Z VRB02KT 9999 FEW035 SCT130 04/01 Q1022 RMK 1CU035 3AC130 A3020;EQDQ01+000000PRSWM2
0184478550999992000011023004+32920+129920FM-15+0005RJFU V02099999999992200019N0112651N1+00501+00301999999ADDGA1021+012009999GA2021+045009999GF104991999999999999999999MA1102201999999MW1001REMMET074RJFU 2300Z VRB03KT 9999 FEW040 SCT150 05/03 Q1022 RMK 1SC040 3AC150 A3020;EQDQ01+000000PRSWM2
0099478550999992000011100004+32920+129920FM-15+0005RJFU V0201901N00411220001CN0099001N1+00801+00201999999ADDMA1102201999999MW1001REMMET047RJFU 0000Z 19008KT CAVOK 08/02 Q1022 RMK A3021;EQDQ01+000000PRSWM2
0107478550999992000011101004+32920+129920FM-15+0005RJFU V0202501N00211220001CN0099001N1+01001+00001999999ADDMA1102301999999MW1001REMMET055RJFU 0100Z 25004KT 210V290 CAVOK 10/00 Q1023 RMK A3022;EQDQ01+000000PRSWM2
0107478550999992000011102004+32920+129920FM-15+0005RJFU V0202101N00261220001CN0099001N1+01101+00001999999ADDMA1102201999999MW1001REMMET055RJFU 0200Z 21005KT 180V250 CAVOK 11/00 Q1022 RMK A3020;EQDQ01+000000PRSWM2
0100478550999992000011103004+32920+129920FM-15+0005RJFU V0209999999999220001CN0099001N1+01101+00001999999ADDMA1102101999999MW1001REMMET048RJFU 0300Z VRB02KT CAVOK 11/M00 Q1021 RMK A3017;EQDQ01+000000PRSWM2
0107478550999992000011104004+32920+129920FM-15+0005RJFU V0202801N00261220001CN0099001N1+01201+00001999999ADDMA1102001999999MW1001REMMET055RJFU 0400Z 28005KT 240V330 CAVOK 12/00 Q1020 RMK A3014;EQDQ01+000000PRSWM2
0107478550999992000011105004+32920+129920FM-15+0005RJFU V0202601N00261220001CN0099001N1+01201+00001999999ADDMA1101901999999MW1001REMMET055RJFU 0500Z 26005KT 220V300 CAVOK 12/00 Q1019 RMK A3012;EQDQ01+000000PRSWM2
0099478550999992000011106004+32920+129920FM-15+0005RJFU V0209999999999220001CN0099001N1+01301+00101999999ADDMA1101901999999MW1001REMMET047RJFU 0600Z VRB03KT CAVOK 13/01 Q1019 RMK A3010;EQDQ01+000000PRSWM2
0099478550999992000011107004+32920+129920FM-15+0005RJFU V0209999999999220001CN0099001N1+01201+00101999999ADDMA1101901999999MW1001REMMET047RJFU 0700Z VRB01KT CAVOK 12/01 Q1019 RMK A3010;EQDQ01+000000PRSWM2
0099478550999992000011108004+32920+129920FM-15+0005RJFU V0203001N00211220001CN0099001N1+01101+00101999999ADDMA1101901999999MW1001REMMET047RJFU 0800Z 30004KT CAVOK 11/01 Q1019 RMK A3010;EQDQ01+000000PRSWM2
0222478550999992000011109004+32920+129920FM-15+0005RJFU V0202401N002610360019N0112651N1+01101+00201999999ADDGA1021+015009999GA2021+030009999GA3071+036009999GF107991999999999999999999MA1102001999999MW1001REMMET096RJFU 0900Z 24005KT 190V260 9999 FEW050 SCT100 BKN120 11/02 Q1020 RMK 1SC050 3AC100 5AC120 A3012;EQDQ01+000000PRSWM2
0222478550999992000011110004+32920+129920FM-15+0005RJFU V0201001N002110360019N0112651N1+01101+00401999999ADDGA1021+015009999GA2021+030009999GA3071+036009999GF107991999999999999999999MA1102001999999MW1001REMMET096RJFU 1000Z 10004KT 070V160 9999 FEW050 SCT100 BKN120 11/04 Q1020 RMK 1SC050 3AC100 5AC120 A3012;EQDQ01+000000PRSWM2
0214478550999992000011111004+32920+129920FM-15+0005RJFU V0201501N005110360019N0112651N1+01001+00401999999ADDGA1021+012009999GA2021+030009999GA3071+036009999GF107991999999999999999999MA1102001999999MW1001REMMET088RJFU 1100Z 15010KT 9999 FEW040 SCT100 BKN120 10/04 Q1020 RMK 2CU040 4AC100 5AC120 A3012;EQDQ01+000000PRSWM2
0222478550999992000011112004+32920+129920FM-15+0005RJFU V0201301N002110300019N0112651N1+01001+00301999999ADDGA1021+009009999GA2021+013509999GA3071+030009999GF107991999999999999999999MA1102001999999MW1001REMMET096RJFU 1200Z 13004KT 110V170 9999 FEW030 SCT045 BKN100 10/03 Q1020 RMK 1CU030 3CU045 5AC100 A3012;EQDQ01+000000PRSWM2
0235478550999992000011119304+32920+129920FM-15+0005RJFU V0202301N002110300019N0060001N1+00801+00701999999ADDGA1021+004509999GA2021+024009999GA3071+030009999GF107991999999999999999999MA1101591999999MW1631REMMET093RJFU 111930Z 23004KT 6000 RA FEW015 SCT080 BKN100 08/07 Q1016 RMK 1ST015 3AC080 7AC100 A3003;EQDQ01+000003PRSWM1Q02    003PRSWM1
0233478550999992000011120004+32920+129920FM-15+0005RJFU V0201401N002110300019N0060001N1+00801+00701999999ADDGA1021+003009999GA2021+024009999GA3071+030009999GF107991999999999999999999MA1101591999999MW1631REMMET091RJFU 2000Z 14004KT 6000 RA FEW010 SCT080 BKN100 08/07 Q1016 RMK 1ST010 4AC080 7AC100 A3001;EQDQ01+000003PRSWM1Q02    003PRSWM1
0233478550999992000011121004+32920+129920FM-15+0005RJFU V0201401N002110300019N0060001N1+00801+00701999999ADDGA1021+003009999GA2021+024009999GA3081+030009999GF108991999999999999999999MA1101591999999MW1631REMMET091RJFU 2100Z 14004KT 6000 RA FEW010 SCT080 OVC100 08/07 Q1016 RMK 1ST010 4AC080 8AS100 A3002;EQDQ01+000003PRSWM1Q02    003PRSWM1
0242478550999992000011122004+32920+129920FM-15+0005RJFU V0201701N003110300019N0080001N1+00801+00701999999ADDGA1021+006009999GA2021+024009999GA3081+030009999GF108991999999999999999999MA1101591999999MW1611REMMET100RJFU 2200Z 17006KT 120V240 8000 -RA FEW020 SCT080 OVC100 08/07 Q1016 RMK 1CU020 4AC080 8AS100 A3000;EQDQ01+000003PRSWM1Q02    003PRSWM1
0245478550999992000011122454+32920+129920FM-15+0005RJFU V02099999999990300019N0040001N1+00801+00801999999ADDGA1021+003009999GA2021+024009999GA3081+030009999GF108991999999999999999999MA1101591999999MW1101MW2611REMMET097RJFU 112245Z VRB01KT 4000 -RA BR FEW010 SCT080 OVC100 08/08 Q1016 RMK 1ST010 4AC080 8AS100 A3000;EQDQ01+000003PRSWM1Q02    003PRSWM1
0243478550999992000011123004+32920+129920FM-15+0005RJFU V02099999999990240019N0045001N1+00801+00801999999ADDGA1021+003009999GA2021+018009999GA3071+024009999GF107991999999999999999999MA1101491999999MW1101MW2611REMMET095RJFU 2300Z VRB02KT 4500 -RA BR FEW010 SCT060 BKN080 08/08 Q1015 RMK 1ST010 3SC060 5AC080 A3000;EQDQ01+000003PRSWM1Q02    003PRSWM1
0254478550999992000011123224+32920+129920FM-16+0005RJFU V0201401N002610240019N0040001N1+00801+00801999999ADDGA1021+003009999GA2021+015009999GA3071+024009999GF107991999999999999999999MA1101491999999MW1631REMMET096RJFU 112322Z 14005KT 4000 RA BR FEW010 SCT050 BKN080 08/08 Q1015 RMK 1ST010 3SC050 5AC080 A3000;EQDQ01+000100PRSWM3Q02+000003PRSWM1Q03    003PRSWM1
0250478550999992000011123454+32920+129920FM-15+0005RJFU V02099999999990300019N0050001N1+00801+00801999999ADDGA1021+015009999GA2021+024009999GA3081+030009999GF108991999999999999999999MA1101491999999MW1101MW2611REMMET102RJFU 112345Z VRB02KT 5000 -RA BR FEW050 SCT080 OVC100 08/08 Q1015 RERA RMK 2SC050 4AC080 8AC100 A3000;EQDQ01+000003PRSWM1Q02    003PRSWM1
0239478550999992000011200004+32920+129920FM-15+0005RJFU V0201801N002110240019N0080001N1+00801+00801999999ADDGA1021+000609999GA2021+012009999GA3071+024009999GF107991999999999999999999MA1101491999999MW1611REMMET097RJFU 0000Z 18004KT 8000 -RA FEW002 SCT040 BKN080 08/08 Q1015 RERA RMK 1ST002 3SC040 5AC080 A3000;EQDQ01+000003PRSWM1Q02    003PRSWM1
0203478550999992000011201004+32920+129920FM-15+0005RJFU V02099999999990135019N0080001N1+00901+00801999999ADDGA1021+002409999GA2021+006009999GA3071+013509999GF107991999999999999999999MA1101491999999MW1611REMMET061RJFU 0100Z VRB01KT 8000 -RA FEW008 SCT020 BKN045 09/08 Q1015;EQDQ01+000003PRSWM1Q02    003PRSWM1
0203478550999992000011202004+32920+129920FM-15+0005RJFU V02099999999990135019N0080001N1+00901+00801999999ADDGA1021+002409999GA2021+009009999GA3071+013509999GF107991999999999999999999MA1101491999999MW1611REMMET061RJFU 0200Z VRB02KT 8000 -RA FEW008 SCT030 BKN045 09/08 Q1015;EQDQ01+000003PRSWM1Q02    003PRSWM1
0234478550999992000011203004+32920+129920FM-15+0005RJFU V02099999999990150019N0112651N1+01001+00901999999ADDGA1021+002109999GA2021+009009999GA3071+015009999GF107991999999999999999999MA1101291999999MW1611REMMET092RJFU 0300Z VRB01KT 9999 -RA FEW007 SCT030 BKN050 10/09 Q1013 RMK 1ST007 3SC030 5SC050 A2994;EQDQ01+000003PRSWM1Q02    003PRSWM1
0214478550999992000011204004+32920+129920FM-15+0005RJFU V0200101N001010150019N0112651N1+01001+00801999999ADDGA1021+001509999GA2021+006009999GA3071+015009999GF107991999999999999999999MA1101191999999MW1001REMMET088RJFU 0400Z 01002KT 9999 FEW005 SCT020 BKN050 10/08 Q1012 RMK 1ST005 3SC020 5SC050 A2990;EQDQ01+000000PRSWM2
0183478550999992000011205004+32920+129920FM-15+0005RJFU V0200401N000510150019N0112651N1+01001+00901999999ADDGA1021+002409999GA2021+007509999GA3071+015009999GF107991999999999999999999MA1101191999999MW1001REMMET057RJFU 0500Z 04001KT 9999 FEW008 SCT025 BKN050 10/09 Q1012;EQDQ01+000000PRSWM2
0234478550999992000011206004+32920+129920FM-15+0005RJFU V02099999999990060019N0060001N1+01001+00901999999ADDGA1021+001809999GA2021+004509999GA3071+006009999GF107991999999999999999999MA1101191999999MW1611REMMET092RJFU 0600Z VRB01KT 6000 -RA FEW006 SCT015 BKN020 10/09 Q1012 RMK 1ST006 3ST015 6SC020 A2989;EQDQ01+000003PRSWM1Q02    003PRSWM1
0235478550999992000011206174+32920+129920FM-16+0005RJFU V0203301N002610060019N0050001N1+01001+00901999999ADDGA1021+001809999GA2021+004509999GA3071+006009999GF107991999999999999999999MA1101081999999MW1631REMMET093RJFU 120617Z 33005KT 5000 RA FEW006 SCT015 BKN020 10/09 Q1011 RMK 1ST006 4ST015 6SC020 A2988;EQDQ01+000003PRSWM1Q02    003PRSWM1
0247478550999992000011207004+32920+129920FM-15+0005RJFU V0203401N002610060019N0045001N1+01001+00901999999ADDGA1021+001809999GA2021+004509999GA3071+006009999GF107991999999999999999999MA1101081999999MW1101MW2631REMMET099RJFU 0700Z 34005KT 4500 RA BR FEW006 SCT015 BKN020 10/09 Q1011 RERA RMK 1ST006 4ST015 6SC020 A2987;EQDQ01+000003PRSWM1Q02    003PRSWM1
0255478550999992000011207094+32920+129920FM-16+0005RJFU V02099999999990030019N0040001N1+01001+00901999999ADDGA1021+001809999GA2071+003009999GA3071+004509999GF107991999999999999999999MA1101081999999MW1651REMMET097RJFU 120709Z VRB03KT 4000 +RA BR FEW006 BKN010 BKN015 10/09 Q1011 RMK 1ST006 5ST010 6ST015 A2987;EQDQ01+000100PRSWM3Q02+000003PRSWM1Q03    003PRSWM1
0270478550999992000011207134+32920+129920FM-16+0005RJFU V0203101N002610030019N0030001N1+01001+00901999999ADDGA1021+001809999GA2071+003009999GA3071+004509999GF107991999999999999999999MA1101081999999MW1821REMMET112RJFU 120713Z 31005KT 280V020 3000 +SHRA BR FEW006 BKN010 BKN015 10/09 Q1011 RMK 1ST006 5ST010 6ST015 A2986 RI++;EQDQ01+000100PRSWM3Q02+000003PRSWM1Q03    003PRSWM1
0208478550999992000011208004+32920+129920FM-15+0005RJFU V0203301N004110075019N0050001N1+01001+00901999999ADDGA1021+001509999GA2071+007509999GF107991999999999999999999MA1101081999999MW1631REMMET082RJFU 0800Z 33008KT 5000 RA FEW005 BKN025 10/09 Q1011 RERA RMK 1ST005 7SC025 A2987;EQDQ01+000003PRSWM1Q02    003PRSWM1
0235478550999992000011208054+32920+129920FM-16+0005RJFU V0203301N004610075019N0045001N1+01001+01001999999ADDGA1021+001509999GA2021+004509999GA3071+007509999GF107991999999999999999999MA1101081999999MW1631REMMET093RJFU 120805Z 33009KT 4500 RA FEW005 SCT015 BKN025 10/10 Q1011 RMK 1ST005 3ST015 7SC025 A2987;EQDQ01+000003PRSWM1Q02    003PRSWM1
0235478550999992000011208304+32920+129920FM-15+0005RJFU V0203601N003610075019N0030001N1+01001+00901999999ADDGA1021+001509999GA2021+004509999GA3071+007509999GF107991999999999999999999MA1101081999999MW1631REMMET093RJFU 120830Z 36007KT 3000 RA FEW005 SCT015 BKN025 10/09 Q1011 RMK 1ST005 3ST015 7SC025 A2987;EQDQ01+000003PRSWM1Q02    003PRSWM1
0238478550999992000011208414+32920+129920FM-16+0005RJFU V0200101N003110060019N0025001N1+01001+00901999999ADDGA1021+001509999GA2021+003609999GA3071+006009999GF107991999999999999999999MA1101081999999MW1821REMMET096RJFU 120841Z 01006KT 2500 +SHRA FEW005 SCT012 BKN020 10/09 Q1011 RMK 1ST005 3ST012 5CU020 A2987;EQDQ01+000003PRSWM1Q02    003PRSWM1
0236478550999992000011209004+32920+129920FM-15+0005RJFU V02099999999990075019N0030001N1+01001+01001999999ADDGA1021+001509999GA2021+004509999GA3071+007509999GF107991999999999999999999MA1101081999999MW1821REMMET094RJFU 0900Z VRB02KT 3000 +SHRA FEW005 SCT015 BKN025 10/10 Q1011 RMK 1ST005 3ST015 7CU025 A2988;EQDQ01+000003PRSWM1Q02    003PRSWM1
0242478550999992000011209104+32920+129920FM-16+0005RJFU V02099999999990060019N0060001N1+01101+01001999999ADDGA1021+000909999GA2021+004509999GA3071+006009999GF107991999999999999999999MA1101081999999MW1811REMMET100RJFU 120910Z VRB03KT 6000 SHRA FEW003 SCT015 BKN020 11/10 Q1011 RERA RMK 1ST003 3CU015 7CU020 A2988;EQDQ01+000003PRSWM1Q02    003PRSWM1
0238478550999992000011209234+32920+129920FM-16+0005RJFU V02099999999990060019N0070001N1+01101+01001999999ADDGA1021+000909999GA2021+004509999GA3071+006009999GF107991999999999999999999MA1101081999999MW1821REMMET096RJFU 120923Z VRB03KT 7000 +SHRA FEW003 SCT015 BKN020 11/10 Q1011 RMK 1ST003 3CU015 7CU020 A2987;EQDQ01+000003PRSWM1Q02    003PRSWM1
0241478550999992000011210004+32920+129920FM-15+0005RJFU V02099999999990060019N0080001N1+01001+01001999999ADDGA1021+000909999GA2021+004509999GA3071+006009999GF107991999999999999999999MA1101081999999MW1801REMMET099RJFU 1000Z VRB02KT 8000 -SHRA FEW003 SCT015 BKN020 10/10 Q1011 RERA RMK 1ST003 3CU015 5CU020 A2986;EQDQ01+000003PRSWM1Q02    003PRSWM1
0236478550999992000011210344+32920+129920FM-16+0005RJFU V0201801N003110018019N0090001N1+01101+01001999999ADDGA1021+000909999GA2071+001809999GA3071+009009999GF107991999999999999999999MA1101081999999MW1611REMMET094RJFU 121034Z 18006KT 9000 -RA FEW003 BKN006 BKN030 11/10 Q1011 RMK 1ST003 5ST006 7SC030 A2986;EQDQ01+000003PRSWM1Q02    003PRSWM1
0236478550999992000011210504+32920+129920FM-15+0005RJFU V0201601N003110015019N0090001N1+01001+01001999999ADDGA1021+000909999GA2071+001509999GA3071+003609999GF107991999999999999999999MA1101081999999MW1611REMMET094RJFU 121050Z 16006KT 9000 -RA FEW003 BKN005 BKN012 10/10 Q1011 RMK 1ST003 5ST005 7ST012 A2986;EQDQ01+000003PRSWM1Q02    003PRSWM1
0234478550999992000011211004+32920+129920FM-15+0005RJFU V0201601N004110015019N0070001N1+01001+01001999999ADDGA1021+000909999GA2071+001509999GA3071+003609999GF107991999999999999999999MA1101081999999MW1611REMMET092RJFU 1100Z 16008KT 7000 -RA FEW003 BKN005 BKN012 10/10 Q1011 RMK 1ST003 5ST005 7ST012 A2986;EQDQ01+000003PRSWM1Q02    003PRSWM1
0214478550999992000011212004+32920+129920FM-15+0005RJFU V0201701N002110015019N0070001N1+01001+01001999999ADDGA1021+000909999GA2071+001509999GA3071+003609999GF107991999999999999999999MA1101081999999MW1001REMMET088RJFU 1200Z 17004KT 7000 FEW003 BKN005 BKN012 10/10 Q1011 RMK 1ST003 5ST005 7ST012 A2987;EQDQ01+000000PRSWM2
0214478550999992000011220004+32920+129920FM-15+0005RJFU V0200101N001010090019N0060001N1+01001+01001999999ADDGA1021+002109999GA2021+004509999GA3071+009009999GF107991999999999999999999MA1100911999999MW1001REMMET088RJFU 2000Z 01002KT 6000 FEW007 SCT015 BKN030 10/10 Q1009 RMK 1ST007 4ST015 6CU030 A2980;EQDQ01+000000PRSWM2
0184478550999992000011221004+32920+129920FM-15+0005RJFU V0203001N002610075019N0060001N1+01101+01001999999ADDGA1021+001509999GA2071+007509999GF107991999999999999999999MA1100911999999MW1001REMMET074RJFU 2100Z 30005KT 6000 FEW005 BKN025 11/10 Q1009 RMK 1ST005 7CU025 A2981;EQDQ01+000000PRSWM2
0214478550999992000011222004+32920+129920FM-15+0005RJFU V0202801N003110060019N0090001N1+01101+01001999999ADDGA1021+002409999GA2021+004509999GA3071+006009999GF107991999999999999999999MA1101021999999MW1001REMMET088RJFU 2200Z 28006KT 9000 FEW008 SCT015 BKN020 11/10 Q1010 RMK 1ST008 3CU015 7CU020 A2984;EQDQ01+000000PRSWM2
0214478550999992000011223004+32920+129920FM-15+0005RJFU V0200301N002110075019N0112651N1+01101+01001999999ADDGA1021+000609999GA2021+006009999GA3071+007509999GF107991999999999999999999MA1101021999999MW1001REMMET088RJFU 2300Z 03004KT 9999 FEW002 SCT020 BKN025 11/10 Q1010 RMK 1ST002 3CU020 6CU025 A2983;EQDQ01+000000PRSWM2
0214478550999992000011300004+32920+129920FM-15+0005RJFU V0203101N003110300019N0112651N1+01201+01101999999ADDGA1021+001509999GA2021+024009999GA3071+030009999GF107991999999999999999999MA1101021999999MW1001REMMET088RJFU 0000Z 31006KT 9999 FEW005 SCT080 BKN100 12/11 Q1010 RMK 1ST005 3AC080 7AC100 A2985;EQDQ01+000000PRSWM2
0214478550999992000011301004+32920+129920FM-15+0005RJFU V0203201N004110090019N0112651N1+01201+01001999999ADDGA1021+002709999GA2021+006009999GA3071+009009999GF107991999999999999999999MA1101081999999MW1001REMMET088RJFU 0100Z 32008KT 9999 FEW009 SCT020 BKN030 12/10 Q1011 RMK 1CU009 4CU020 7CU030 A2986;EQDQ01+000000PRSWM2
0214478550999992000011302004+32920+129920FM-15+0005RJFU V0203301N004110075019N0112651N1+01201+01101999999ADDGA1021+002709999GA2071+007509999GA3071+009009999GF107991999999999999999999MA1101081999999MW1001REMMET088RJFU 0200Z 33008KT 9999 FEW009 BKN025 BKN030 12/11 Q1011 RMK 1CU009 6CU025 7CU030 A2986;EQDQ01+000000PRSWM2
0236478550999992000011303004+32920+129920FM-15+0005RJFU V0203201N003110075019N0112651N1+01201+01001999999ADDGA1021+002709999GA2071+007509999GA3071+012009999GF107991999999999999999999MA1101021999999MW1801REMMET094RJFU 0300Z 32006KT 9999 -SHRA FEW009 BKN025 BKN040 12/10 Q1010 RMK 1CU009 6CU025 7CU040 A2984;EQDQ01+000003PRSWM1Q02    003PRSWM1
0236478550999992000011304004+32920+129920FM-15+0005RJFU V0203101N004110075019N0090001N1+01301+01101999999ADDGA1021+002709999GA2071+007509999GA3071+009009999GF107991999999999999999999MA1101021999999MW1801REMMET094RJFU 0400Z 31008KT 9000 -SHRA FEW009 BKN025 BKN030 13/11 Q1010 RMK 1CU009 6CU025 7CU030 A2983;EQDQ01+000003PRSWM1Q02    003PRSWM1
0214478550999992000011305004+32920+129920FM-15+0005RJFU V0203201N007210120019N0112651N1+01301+01001999999ADDGA1021+002709999GA2021+006009999GA3071+012009999GF107991999999999999999999MA1101021999999MW1001REMMET088RJFU 0500Z 32014KT 9999 FEW009 SCT020 BKN040 13/10 Q1010 RMK 1CU009 3CU020 7SC040 A2984;EQDQ01+000000PRSWM2
0184478550999992000011306004+32920+129920FM-15+0005RJFU V0203201N006210105019N0112651N1+01301+01001999999ADDGA1021+004509999GA2071+010509999GF107991999999999999999999MA1101021999999MW1001REMMET074RJFU 0600Z 32012KT 9999 FEW015 BKN035 13/10 Q1010 RMK 2CU015 7SC035 A2985;EQDQ01+000000PRSWM2
0184478550999992000011307004+32920+129920FM-15+0005RJFU V0203201N008710060019N0112651N1+01101+00901999999ADDGA1021+004509999GA2071+006009999GF107991999999999999999999MA1101191999999MW1001REMMET074RJFU 0700Z 32017KT 9999 FEW015 BKN020 11/09 Q1012 RMK 2CU015 7SC020 A2989;EQDQ01+000000PRSWM2
0214478550999992000011308004+32920+129920FM-15+0005RJFU V0203101N008210075019N0112651N1+01101+00601999999ADDGA1021+004509999GA2071+007509999GA3071+012009999GF107991999999999999999999MA1101191999999MW1001REMMET088RJFU 0800Z 31016KT 9999 FEW015 BKN025 BKN040 11/06 Q1012 RMK 1CU015 5SC025 7SC040 A2991;EQDQ01+000000PRSWM2
0214478550999992000011309004+32920+129920FM-15+0005RJFU V0203101N007710090019N0112651N1+01101+00601999999ADDGA1021+004509999GA2021+007509999GA3071+009009999GF107991999999999999999999MA1101291999999MW1001REMMET088RJFU 0900Z 31015KT 9999 FEW015 SCT025 BKN030 11/06 Q1013 RMK 1CU015 3CU025 7SC030 A2994;EQDQ01+000000PRSWM2
0214478550999992000011310004+32920+129920FM-15+0005RJFU V0203201N008210105019N0112651N1+01001+00501999999ADDGA1021+004509999GA2021+007509999GA3071+010509999GF107991999999999999999999MA1101391999999MW1001REMMET088RJFU 1000Z 32016KT 9999 FEW015 SCT025 BKN035 10/05 Q1014 RMK 1CU015 3CU025 5CU035 A2995;EQDQ01+000000PRSWM2
0184478550999992000011311004+32920+129920FM-15+0005RJFU V0203101N006710105019N0112651N1+01001+00501999999ADDGA1021+006009999GA2071+010509999GF107991999999999999999999MA1101491999999MW1001REMMET074RJFU 1100Z 31013KT 9999 FEW020 BKN035 10/05 Q1015 RMK 2CU020 5CU035 A2997;EQDQ01+000000PRSWM2
0184478550999992000011312004+32920+129920FM-15+0005RJFU V0203301N007710105019N0112651N1+00901+00301999999ADDGA1021+006009999GA2071+010509999GF107991999999999999999999MA1101491999999MW1001REMMET074RJFU 1200Z 33015KT 9999 FEW020 BKN035 09/03 Q1015 RMK 2CU020 5CU035 A2999;EQDQ01+000000PRSWM2
0184478550999992000011320004+32920+129920FM-15+0005RJFU V0200201N002610105019N0112651N1+00701+00201999999ADDGA1021+007509999GA2071+010509999GF107991999999999999999999MA1101591999999MW1001REMMET074RJFU 2000Z 02005KT 9999 SCT025 BKN035 07/02 Q1016 RMK 3CU025 6CU035 A3002;EQDQ01+000000PRSWM2
0184478550999992000011321004+32920+129920FM-15+0005RJFU V0200401N003610105019N0112651N1+00701+00101999999ADDGA1021+009009999GA2071+010509999GF107991999999999999999999MA1101691999999MW1001REMMET074RJFU 2100Z 04007KT 9999 SCT030 BKN035 07/01 Q1017 RMK 3CU030 6CU035 A3005;EQDQ01+000000PRSWM2
0184478550999992000011322004+32920+129920FM-15+0005RJFU V0203501N004110105019N0112651N1+00701+00101999999ADDGA1021+009009999GA2071+010509999GF107991999999999999999999MA1101801999999MW1001REMMET074RJFU 2200Z 35008KT 9999 SCT030 BKN035 07/01 Q1018 RMK 3CU030 6CU035 A3007;EQDQ01+000000PRSWM2
0214478550999992000011323004+32920+129920FM-15+0005RJFU V0200101N004110105019N0112651N1+00801+00001999999ADDGA1021+009009999GA2071+010509999GA3071+013509999GF107991999999999999999999MA1101801999999MW1001REMMET088RJFU 2300Z 01008KT 9999 FEW030 BKN035 BKN045 08/00 Q1018 RMK 1CU030 5CU035 6SC045 A3009;EQDQ01+000000PRSWM2
0222478550999992000011400004+32920+129920FM-15+0005RJFU V0203301N004610180019N0112651N1+00901+00001999999ADDGA1021+009009999GA2021+010509999GA3071+018009999GF107991999999999999999999MA1101901999999MW1001REMMET096RJFU 0000Z 33009KT 260V360 9999 FEW030 SCT035 BKN060 09/00 Q1019 RMK 1CU030 4CU035 5SC060 A3010;EQDQ01+000000PRSWM2
0163478550999992000011401004+32920+129920FM-15+0005RJFU V0200101N002612200019N0112651N1+00901+00001999999ADDGA1021+013509999GF102991999999999999999999MA1101901999999MW1001REMMET069RJFU 0100Z 01005KT 320V060 9999 FEW045 09/M00 Q1019 RMK 1CU045 A3009;EQDQ01+000000PRSWM2
0192478550999992000011402004+32920+129920FM-15+0005RJFU V0203201N002612200019N0112651N1+01001+00001999999ADDGA1021+013509999GA2021+030009999GF104991999999999999999999MA1101901999999MW1001REMMET082RJFU 0200Z 32005KT 250V360 9999 FEW045 SCT100 10/00 Q1019 RMK 1CU045 4AC100 A3010;EQDQ01+000000PRSWM2
0214478550999992000011403004+32920+129920FM-15+0005RJFU V0203001N004610360019N0112651N1+01001+00201999999ADDGA1021+012009999GA2021+030009999GA3071+036009999GF107991999999999999999999MA1101801999999MW1001REMMET088RJFU 0300Z 30009KT 9999 FEW040 SCT100 BKN120 10/02 Q1018 RMK 1CU040 3AC100 7AC120 A3008;EQDQ01+000000PRSWM2
0214478550999992000011404004+32920+129920FM-15+0005RJFU V0203201N006210150019N0112651N1+01001+00201999999ADDGA1021+009009999GA2021+012009999GA3071+015009999GF107991999999999999999999MA1101801999999MW1001REMMET088RJFU 0400Z 32012KT 9999 FEW030 SCT040 BKN050 10/02 Q1018 RMK 1CU030 3CU040 5SC050 A3008;EQDQ01+000000PRSWM2
0222478550999992000011405004+32920+129920FM-15+0005RJFU V0203201N002610300019N0112651N1+01001+00201999999ADDGA1021+009009999GA2021+015009999GA3071+030009999GF107991999999999999999999MA1101691999999MW1001REMMET096RJFU 0500Z 32005KT 260V020 9999 FEW030 SCT050 BKN100 10/02 Q1017 RMK 1CU030 4SC050 5AC100 A3005;EQDQ01+000000PRSWM2
0215478550999992000011406004+32920+129920FM-15+0005RJFU V0202801N002619999999N0112651N1+01001+00301999999ADDGA1021+010509999GA2021+036009999GA3071+999999999GF107991999999999999999999MA1101691999999MW1001REMMET089RJFU 0600Z 28005KT 250V340 9999 FEW035 SCT120 BKN/// 10/03 Q1017 RMK 1CU035 3AC120 A3005;EQDQ01+000000PRSWM2
0213478550999992000011407004+32920+129920FM-15+0005RJFU V0202701N002610150019N0112651N1+01001+00301999999ADDGA1021+009009999GA2021+012009999GA3071+015009999GF107991999999999999999999MA1101691999999MW1001REMMET087RJFU 0700Z 27005KT 9999 FEW030 SCT040 BKN050 10/03 Q1017 RMK CU030 3CU040 5SC050 A3006;EQDQ01+000000PRSWM2
0184478550999992000011408004+32920+129920FM-15+0005RJFU V0203101N005110150019N0112651N1+01001+00401999999ADDGA1021+009009999GA2071+015009999GF107991999999999999999999MA1101801999999MW1001REMMET074RJFU 0800Z 31010KT 9999 SCT030 BKN050 10/04 Q1018 RMK 3CU030 7SC050 A3008;EQDQ01+000000PRSWM2
0184478550999992000011409004+32920+129920FM-15+0005RJFU V0203401N006712200019N0112651N1+00901+00401999999ADDGA1021+009009999GA2021+015009999GF104991999999999999999999MA1101901999999MW1001REMMET074RJFU 0900Z 34013KT 9999 FEW030 SCT050 09/04 Q1019 RMK 1CU030 4SC050 A3009;EQDQ01+000000PRSWM2
0184478550999992000011410004+32920+129920FM-15+0005RJFU V0203301N005710150019N0112651N1+00901+00401999999ADDGA1021+009009999GA2071+015009999GF107991999999999999999999MA1101901999999MW1001REMMET074RJFU 1000Z 33011KT 9999 FEW030 BKN050 09/04 Q1019 RMK 1CU030 7SC050 A3012;EQDQ01+000000PRSWM2
0192478550999992000011411004+32920+129920FM-15+0005RJFU V0203601N004612200019N0112651N1+00901+00401999999ADDGA1021+009009999GA2021+015009999GF104991999999999999999999MA1102001999999MW1001REMMET082RJFU 1100Z 36009KT 330V040 9999 FEW030 SCT050 09/04 Q1020 RMK 1CU030 3SC050 A3014;EQDQ01+000000PRSWM2
0184478550999992000011412004+32920+129920FM-15+0005RJFU V0200501N003110120019N0112651N1+00801+00301999999ADDGA1021+009009999GA2071+012009999GF107991999999999999999999MA1102101999999MW1001REMMET074RJFU 1200Z 05006KT 9999 FEW030 BKN040 08/03 Q1021 RMK 1CU030 6SC040 A3015;EQDQ01+000000PRSWM2
0099478550999992000011420004+32920+129920FM-15+0005RJFU V0200701N00151220001CN0099001N1+00501+00101999999ADDMA1102101999999MW1001REMMET047RJFU 2000Z 07003KT CAVOK 05/01 Q1021 RMK A3016;EQDQ01+000000PRSWM2
0099478550999992000011421004+32920+129920FM-15+0005RJFU V0209999999999220001CN0099001N1+00401+00101999999ADDMA1102101999999MW1001REMMET047RJFU 2100Z VRB01KT CAVOK 04/01 Q1021 RMK A3018;EQDQ01+000000PRSWM2
0099478550999992000011422004+32920+129920FM-15+0005RJFU V0209999999999220001CN0099001N1+00301+00101999999ADDMA1102201999999MW1001REMMET047RJFU 2200Z VRB03KT CAVOK 03/01 Q1022 RMK A3019;EQDQ01+000000PRSWM2
0099478550999992000011423004+32920+129920FM-15+0005RJFU V0209999999999220001CN0099001N1+00301+00201999999ADDMA1102201999999MW1001REMMET047RJFU 2300Z VRB03KT CAVOK 03/02 Q1022 RMK A3018;EQDQ01+000000PRSWM2
0099478550999992000011500004+32920+129920FM-15+0005RJFU V0201901N00261220001CN0099001N1+00601+00401999999ADDMA1102201999999MW1001REMMET047RJFU 0000Z 19005KT CAVOK 06/04 Q1022 RMK A3018;EQDQ01+000000PRSWM2
0107478550999992000011501004+32920+129920FM-15+0005RJFU V0201401N00211220001CN0099001N1+00701+00401999999ADDMA1102201999999MW1001REMMET055RJFU 0100Z 14004KT 100V160 CAVOK 07/04 Q1022 RMK A3020;EQDQ01+000000PRSWM2
0099478550999992000011502004+32920+129920FM-15+0005RJFU V0209999999999220001CN0099001N1+00801+00301999999ADDMA1102201999999MW1001REMMET047RJFU 0200Z VRB02KT CAVOK 08/03 Q1022 RMK A3019;EQDQ01+000000PRSWM2
0107478550999992000011503004+32920+129920FM-15+0005RJFU V0202201N00211220001CN0099001N1+00901+00301999999ADDMA1102001999999MW1001REMMET055RJFU 0300Z 22004KT 180V250 CAVOK 09/03 Q1020 RMK A3015;EQDQ01+000000PRSWM2
0107478550999992000011504004+32920+129920FM-15+0005RJFU V0202201N00261220001CN0099001N1+01001+00501999999ADDMA1101901999999MW1001REMMET055RJFU 0400Z 22005KT 190V280 CAVOK 10/05 Q1019 RMK A3010;EQDQ01+000000PRSWM2
0099478550999992000011505004+32920+129920FM-15+0005RJFU V0202501N00361220001CN0099001N1+01101+00401999999ADDMA1101901999999MW1001REMMET047RJFU 0500Z 25007KT CAVOK 11/04 Q1019 RMK A3009;EQDQ01+000000PRSWM2
0099478550999992000011506004+32920+129920FM-15+0005RJFU V0202901N00311220001CN0099001N1+01201+00301999999ADDMA1101901999999MW1001REMMET047RJFU 0600Z 29006KT CAVOK 12/03 Q1019 RMK A3009;EQDQ01+000000PRSWM2
0099478550999992000011507004+32920+129920FM-15+0005RJFU V0202701N00211220001CN0099001N1+01201+00301999999ADDMA1101901999999MW1001REMMET047RJFU 0700Z 27004KT CAVOK 12/03 Q1019 RMK A3011;EQDQ01+000000PRSWM2
0214478550999992000011508004+32920+129920FM-15+0005RJFU V0202401N001010300019N0112651N1+01101+00301999999ADDGA1021+012009999GA2021+024009999GA3071+030009999GF107991999999999999999999MA1101901999999MW1001REMMET088RJFU 0800Z 24002KT 9999 FEW040 SCT080 BKN100 11/03 Q1019 RMK 1CU040 3AC080 5AC100 A3011;EQDQ01+000000PRSWM2
0214478550999992000011509004+32920+129920FM-15+0005RJFU V0209999C000010300019N0112651N1+01001+00401999999ADDGA1021+015009999GA2021+024009999GA3071+030009999GF107991999999999999999999MA1102001999999MW1001REMMET088RJFU 0900Z 00000KT 9999 FEW050 SCT080 BKN100 10/04 Q1020 RMK 2SC050 3AC080 5AC100 A3012;EQDQ01+000000PRSWM2
0214478550999992000011510004+32920+129920FM-15+0005RJFU V02099999999990360019N0112651N1+01001+00401999999ADDGA1021+015009999GA2021+030009999GA3071+036009999GF107991999999999999999999MA1102001999999MW1001REMMET088RJFU 1000Z VRB01KT 9999 FEW050 SCT100 BKN120 10/04 Q1020 RMK 1SC050 3AC100 7AC120 A3013;EQDQ01+000000PRSWM2
0214478550999992000011511004+32920+129920FM-15+0005RJFU V0201701N002110360019N0112651N1+00901+00501999999ADDGA1021+015009999GA2021+030009999GA3071+036009999GF107991999999999999999999MA1102001999999MW1001REMMET088RJFU 1100Z 17004KT 9999 FEW050 SCT100 BKN120 09/05 Q1020 RMK 1SC050 3AC100 7AC120 A3015;EQDQ01+000000PRSWM2
0207478550999992000011512004+32920+129920FM-15+0005RJFU V0201101N001519999999N0112651N1+00901+00601999999ADDGA1021+015009999GA2021+036009999GA3071+999999999GF107991999999999999999999MA1102001999999MW1001REMMET081RJFU 1200Z 11003KT 9999 FEW050 SCT120 BKN/// 09/06 Q1020 RMK 1SC050 3AC120 A3014;EQDQ01+000000PRSWM2
0234478550999992000011521004+32920+129920FM-15+0005RJFU V0209999C000010300019N0112651N1+00801+00501999999ADDGA1021+009009999GA2021+012009999GA3071+030009999GF107991999999999999999999MA1101801999999MW1611REMMET092RJFU 2100Z 00000KT 9999 -RA FEW030 SCT040 BKN100 08/05 Q1018 RMK 1CU030 3SC040 6AC100 A3008;EQDQ01+000003PRSWM1Q02    003PRSWM1
0234478550999992000011522004+32920+129920FM-15+0005RJFU V0201301N001510360019N0112651N1+00801+00601999999ADDGA1021+012009999GA2021+030009999GA3081+036009999GF108991999999999999999999MA1101801999999MW1611REMMET092RJFU 2200Z 13003KT 9999 -RA FEW040 SCT100 OVC120 08/06 Q1018 RMK 2SC040 3AC100 8AS120 A3008;EQDQ01+000003PRSWM1Q02    003PRSWM1
0214478550999992000011523004+32920+129920FM-15+0005RJFU V0201501N002610390019N0112651N1+00801+00701999999ADDGA1021+015009999GA2021+033009999GA3081+039009999GF108991999999999999999999MA1101801999999MW1001REMMET088RJFU 2300Z 15005KT 9999 FEW050 SCT110 OVC130 08/07 Q1018 RMK 1SC050 3AC110 8AS130 A3009;EQDQ01+000000PRSWM2
0214478550999992000011600004+32920+129920FM-15+0005RJFU V0201501N004110390019N0090001N1+00901+00701999999ADDGA1021+015009999GA2021+033009999GA3081+039009999GF108991999999999999999999MA1101801999999MW1001REMMET088RJFU 0000Z 15008KT 9000 FEW050 SCT110 OVC130 09/07 Q1018 RMK 2SC050 3AC110 8AS130 A3008;EQDQ01+000000PRSWM2
0234478550999992000011601004+32920+129920FM-15+0005RJFU V0201401N003610390019N0090001N1+00901+00701999999ADDGA1021+018009999GA2021+030009999GA3081+039009999GF108991999999999999999999MA1101901999999MW1611REMMET092RJFU 0100Z 14007KT 9000 -RA FEW060 SCT100 OVC130 09/07 Q1019 RMK 1SC060 4AC100 8AS130 A3010;EQDQ01+000003PRSWM1Q02    003PRSWM1
0214478550999992000011602004+32920+129920FM-15+0005RJFU V02099999999990390019N0090001N1+01001+00601999999ADDGA1021+018009999GA2021+030009999GA3071+039009999GF107991999999999999999999MA1101801999999MW1001REMMET088RJFU 0200Z VRB01KT 9000 FEW060 SCT100 BKN130 10/06 Q1018 RMK 1SC060 4AC100 7AC130 A3007;EQDQ01+000000PRSWM2
0214478550999992000011603004+32920+129920FM-15+0005RJFU V02099999999990360019N0090001N1+01001+00701999999ADDGA1021+012009999GA2021+030009999GA3071+036009999GF107991999999999999999999MA1101691999999MW1001REMMET088RJFU 0300Z VRB03KT 9000 FEW040 SCT100 BKN120 10/07 Q1017 RMK 1CU040 4AC100 6AC120 A3005;EQDQ01+000000PRSWM2
0207478550999992000011604004+32920+129920FM-15+0005RJFU V0201101N001019999999N0090001N1+01101+00701999999ADDGA1021+010509999GA2021+036009999GA3071+999999999GF107991999999999999999999MA1101591999999MW1001REMMET081RJFU 0400Z 11002KT 9000 FEW035 SCT120 BKN/// 11/07 Q1016 RMK 1CU035 3AC120 A3001;EQDQ01+000000PRSWM2
0207478550999992000011605004+32920+129920FM-15+0005RJFU V02099999999999999999N0112651N1+01301+00601999999ADDGA1021+010509999GA2021+036009999GA3071+999999999GF107991999999999999999999MA1101491999999MW1001REMMET081RJFU 0500Z VRB03KT 9999 FEW035 SCT120 BKN/// 13/06 Q1015 RMK 1CU035 3AC120 A2999;EQDQ01+000000PRSWM2
0207478550999992000011606004+32920+129920FM-15+0005RJFU V0200401N001519999999N0112651N1+01301+00601999999ADDGA1021+010509999GA2021+036009999GA3071+999999999GF107991999999999999999999MA1101491999999MW1001REMMET081RJFU 0600Z 04003KT 9999 FEW035 SCT120 BKN/// 13/06 Q1015 RMK 1CU035 3AC120 A2998;EQDQ01+000000PRSWM2
0207478550999992000011607004+32920+129920FM-15+0005RJFU V02099999999999999999N0112651N1+01201+00601999999ADDGA1021+010509999GA2021+039009999GA3071+999999999GF107991999999999999999999MA1101491999999MW1001REMMET081RJFU 0700Z VRB03KT 9999 FEW035 SCT130 BKN/// 12/06 Q1015 RMK 1CU035 3AC130 A2998;EQDQ01+000000PRSWM2
0214478550999992000011608004+32920+129920FM-15+0005RJFU V0200101N002110300019N0112651N1+01201+00601999999ADDGA1021+015009999GA2071+030009999GA3071+036009999GF107991999999999999999999MA1101491999999MW1001REMMET088RJFU 0800Z 01004KT 9999 FEW050 BKN100 BKN120 12/06 Q1015 RMK 2SC050 6AC100 7AC120 A2998;EQDQ01+000000PRSWM2
0207478550999992000011609004+32920+129920FM-15+0005RJFU V0200301N003610360019N0112651N1+01201+00401999999ADDGA1021+015009999GA2071+036009999GA3071+999999999GF107991999999999999999999MA1101491999999MW1001REMMET081RJFU 0900Z 03007KT 9999 FEW050 BKN120 BKN/// 12/04 Q1015 RMK 1SC050 5AC120 A2998;EQDQ01+000000PRSWM2
0207478550999992000011610004+32920+129920FM-15+0005RJFU V0203601N005110360019N0112651N1+01101+00501999999ADDGA1021+015009999GA2071+036009999GA3071+999999999GF107991999999999999999999MA1101491999999MW1001REMMET081RJFU 1000Z 36010KT 9999 FEW050 BKN120 BKN/// 11/05 Q1015 RMK 1SC050 5AC120 A2999;EQDQ01+000000PRSWM2
0184478550999992000011611004+32920+129920FM-15+0005RJFU V0200201N003610360019N0112651N1+01101+00601999999ADDGA1021+015009999GA2071+036009999GF107991999999999999999999MA1101491999999MW1001REMMET074RJFU 1100Z 02007KT 9999 FEW050 BKN120 11/06 Q1015 RMK 1SC050 7AC120 A3000;EQDQ01+000000PRSWM2
0184478550999992000011612004+32920+129920FM-15+0005RJFU V0200101N004110360019N0112651N1+01101+00701999999ADDGA1021+010509999GA2071+036009999GF107991999999999999999999MA1101491999999MW1001REMMET074RJFU 1200Z 01008KT 9999 FEW035 BKN120 11/07 Q1015 RMK 1CU035 7AC120 A3000;EQDQ01+000000PRSWM2
0106478550999992000011620004+32920+129920FM-15+0005RJFU V0203401N00411220001CN0099001N1+00901+00601999999ADDMA1101391999999MW1001REMMET054RJFU 2000Z 34008KT CAVOK 09/06 Q1014 RMK 5AC080 A2996;EQDQ01+000000PRSWM2
0099478550999992000011621004+32920+129920FM-15+0005RJFU V0209999999999220001CN0099001N1+00701+00501999999ADDMA1101391999999MW1001REMMET047RJFU 2100Z VRB03KT CAVOK 07/05 Q1014 RMK A2997;EQDQ01+000000PRSWM2
0192478550999992000011622004+32920+129920FM-15+0005RJFU V0201701N002112200019N0112651N1+00801+00601999999ADDGA1021+009009999GA2021+018009999GF104991999999999999999999MA1101391999999MW1001REMMET082RJFU 2200Z 17004KT 080V220 9999 FEW030 SCT060 08/06 Q1014 RMK 1CU030 3SC060 A2997;EQDQ01+000000PRSWM2
0192478550999992000011623004+32920+129920FM-15+0005RJFU V0200901N002110240019N0112651N1+00801+00701999999ADDGA1021+009009999GA2071+024009999GF107991999999999999999999MA1101491999999MW1001REMMET082RJFU 2300Z 09004KT 050V120 9999 FEW030 BKN080 08/07 Q1015 RMK 1CU030 5AC080 A2999;EQDQ01+000000PRSWM2
0192478550999992000011700004+32920+129920FM-15+0005RJFU V0202901N002610240019N0112651N1+01001+00701999999ADDGA1021+009009999GA2071+024009999GF107991999999999999999999MA1101491999999MW1001REMMET082RJFU 0000Z 29005KT 240V340 9999 FEW030 BKN080 10/07 Q1015 RMK 1CU030 7AC080 A3000;EQDQ01+000000PRSWM2
0184478550999992000011701004+32920+129920FM-15+0005RJFU V02099999999990240019N0112651N1+01201+00601999999ADDGA1021+009009999GA2071+024009999GF107991999999999999999999MA1101591999999MW1001REMMET074RJFU 0100Z VRB05KT 9999 FEW030 BKN080 12/06 Q1016 RMK 1CU030 6AC080 A3001;EQDQ01+000000PRSWM2
0184478550999992000011702004+32920+129920FM-15+0005RJFU V0203601N005710240019N0112651N1+01301+00501999999ADDGA1021+010509999GA2071+024009999GF107991999999999999999999MA1101491999999MW1001REMMET074RJFU 0200Z 36011KT 9999 FEW035 BKN080 13/05 Q1015 RMK 1CU035 6AC080 A3000;EQDQ01+000000PRSWM2
0177478550999992000011703004+32920+129920FM-15+0005RJFU V0203501N004119999999N0112651N1+01201+00401999999ADDGA1021+010509999GA2071+999999999GF107991999999999999999999MA1101391999999MW1001REMMET067RJFU 0300Z 35008KT 9999 FEW035 BKN/// 12/04 Q1014 RMK 1CU035 A2997;EQDQ01+000000PRSWM2
0177478550999992000011704004+32920+129920FM-15+0005RJFU V0203401N007219999999N0112651N1+01301+00301999999ADDGA1021+010509999GA2071+999999999GF107991999999999999999999MA1101291999999MW1001REMMET067RJFU 0400Z 34014KT 9999 FEW035 BKN/// 13/03 Q1013 RMK 1CU035 A2994;EQDQ01+000000PRSWM2
0177478550999992000011705004+32920+129920FM-15+0005RJFU V0203301N006719999999N0112651N1+01301+00401999999ADDGA1021+010509999GA2071+999999999GF107991999999999999999999MA1101291999999MW1001REMMET067RJFU 0500Z 33013KT 9999 FEW035 BKN/// 13/04 Q1013 RMK 1CU035 A2993;EQDQ01+000000PRSWM2
0184478550999992000011706004+32920+129920FM-15+0005RJFU V0203201N007710450019N0112651N1+01201+00301999999ADDGA1021+009009999GA2071+045009999GF107991999999999999999999MA1101291999999MW1001REMMET074RJFU 0600Z 32015KT 9999 FEW030 BKN150 12/03 Q1013 RMK 1CU030 7AC150 A2993;EQDQ01+000000PRSWM2
0184478550999992000011707004+32920+129920FM-15+0005RJFU V0203201N008210390019N0112651N1+01201+00301999999ADDGA1021+009009999GA2071+039009999GF107991999999999999999999MA1101291999999MW1001REMMET074RJFU 0700Z 32016KT 9999 FEW030 BKN130 12/03 Q1013 RMK 1CU030 6AC130 A2993;EQDQ01+000000PRSWM2
0184478550999992000011708004+32920+129920FM-15+0005RJFU V0203301N007210300019N0112651N1+01101+00201999999ADDGA1021+012009999GA2071+030009999GF107991999999999999999999MA1101291999999MW1001REMMET074RJFU 0800Z 33014KT 9999 FEW040 BKN100 11/02 Q1013 RMK 1CU040 6AC100 A2994;EQDQ01+000000PRSWM2
0214478550999992000011709004+32920+129920FM-15+0005RJFU V0203301N006710390019N0112651N1+01001+00201999999ADDGA1021+012009999GA2021+030009999GA3071+039009999GF107991999999999999999999MA1101391999999MW1001REMMET088RJFU 0900Z 33013KT 9999 FEW040 SCT100 BKN130 10/02 Q1014 RMK 1CU040 3AC100 6AC130 A2994;EQDQ01+000000PRSWM2
0184478550999992000011710004+32920+129920FM-15+0005RJFU V0203301N005712200019N0112651N1+00901+00401999999ADDGA1021+012009999GA2021+030009999GF104991999999999999999999MA1101391999999MW1001REMMET074RJFU 1000Z 33011KT 9999 FEW040 SCT100 09/04 Q1014 RMK 1CU040 3AC100 A2996;EQDQ01+000000PRSWM2
0162478550999992000011711004+32920+129920FM-15+0005RJFU V0203301N002612200019N0112651N1+00801+00301999999ADDGA1021+012009999GF102991999999999999999999MA1101391999999MW1001REMMET068RJFU 1100Z 33005KT 310V010 9999 FEW040 08/03 Q1014 RMK 1CU040 A2996;EQDQ01+000000PRSWM2
0154478550999992000011712004+32920+129920FM-15+0005RJFU V02099999999992200019N0112651N1+00801+00301999999ADDGA1021+012009999GF102991999999999999999999MA1101391999999MW1001REMMET060RJFU 1200Z VRB01KT 9999 FEW040 08/03 Q1014 RMK 1CU040 A2997;EQDQ01+000000PRSWM2
0214478550999992000011720004+32920+129920FM-15+0005RJFU V02099999999990060019N0112651N1+00901+00701999999ADDGA1021+004509999GA2071+006009999GA3071+015009999GF107991999999999999999999MA1101291999999MW1001REMMET088RJFU 2000Z VRB01KT 9999 FEW015 BKN020 BKN050 09/07 Q1013 RMK 1CU015 5CU020 6SC050 A2992;EQDQ01+000000PRSWM2
0184478550999992000011721004+32920+129920FM-15+0005RJFU V0201901N003112200019N0112651N1+00801+00601999999ADDGA1021+007509999GA2021+015009999GF104991999999999999999999MA1101291999999MW1001REMMET074RJFU 2100Z 19006KT 9999 FEW025 SCT050 08/06 Q1013 RMK 1CU025 4SC050 A2992;EQDQ01+000000PRSWM2
0154478550999992000011722004+32920+129920FM-15+0005RJFU V0201001N001512200019N0112651N1+00701+00501999999ADDGA1021+007509999GF102991999999999999999999MA1101291999999MW1001REMMET060RJFU 2200Z 10003KT 9999 FEW025 07/05 Q1013 RMK 1CU025 A2993;EQDQ01+000000PRSWM2
0154478550999992000011723004+32920+129920FM-15+0005RJFU V02099999999992200019N0112651N1+00701+00601999999ADDGA1021+003609999GF102991999999999999999999MA1101291999999MW1001REMMET060RJFU 2300Z VRB02KT 9999 FEW012 07/06 Q1013 RMK 1CU012 A2994;EQDQ01+000000PRSWM2
0137478550999992000011800004+32920+129920FM-15+0005RJFU V02099999999992200019N0112651N1+00901+00601999999ADDGA1021+007509999GF102991999999999999999999MA1101391999999MW1001REMMET043RJFU 0000Z VRB03KT 9999 FEW025 09/06 Q1014;EQDQ01+000000PRSWM2
0184478550999992000011801004+32920+129920FM-15+0005RJFU V02099999999992200019N0112651N1+01101+00701999999ADDGA1021+007509999GA2021+039009999GF104991999999999999999999MA1101491999999MW1001REMMET074RJFU 0100Z VRB03KT 9999 FEW025 SCT130 11/07 Q1015 RMK 1CU025 3AC130 A2997;EQDQ01+000000PRSWM2
0184478550999992000011802004+32920+129920FM-15+0005RJFU V02099999999992200019N0112651N1+01201+00701999999ADDGA1021+007509999GA2021+039009999GF104991999999999999999999MA1101391999999MW1001REMMET074RJFU 0200Z VRB03KT 9999 FEW025 SCT130 12/07 Q1014 RMK 1CU025 3AC130 A2997;EQDQ01+000000PRSWM2
0162478550999992000011803004+32920+129920FM-15+0005RJFU V0202701N002612200019N0112651N1+01201+00601999999ADDGA1021+009009999GF102991999999999999999999MA1101391999999MW1001REMMET068RJFU 0300Z 27005KT 240V320 9999 FEW030 12/06 Q1014 RMK 2CU030 A2994;EQDQ01+000000PRSWM2
0184478550999992000011804004+32920+129920FM-15+0005RJFU V0202701N002612200019N0112651N1+01301+00701999999ADDGA1021+007509999GA2021+010509999GF104991999999999999999999MA1101291999999MW1001REMMET074RJFU 0400Z 27005KT 9999 FEW025 SCT035 13/07 Q1013 RMK 1CU025 3CU035 A2992;EQDQ01+000000PRSWM2
0214478550999992000011805004+32920+129920FM-15+0005RJFU V0202801N002110300019N0112651N1+01301+00601999999ADDGA1021+007509999GA2021+012009999GA3071+030009999GF107991999999999999999999MA1101191999999MW1001REMMET088RJFU 0500Z 28004KT 9999 FEW025 SCT040 BKN100 13/06 Q1012 RMK 1CU025 4CU040 5AC100 A2991;EQDQ01+000000PRSWM2
0234478550999992000011806004+32920+129920FM-15+0005RJFU V0203401N004110300019N0112651N1+01201+00701999999ADDGA1021+009009999GA2021+015009999GA3071+030009999GF107991999999999999999999MA1101191999999MW1611REMMET092RJFU 0600Z 34008KT 9999 -RA FEW030 SCT050 BKN100 12/07 Q1012 RMK 1CU030 3SC050 5AC100 A2991;EQDQ01+000003PRSWM1Q02    003PRSWM1
0214478550999992000011807004+32920+129920FM-15+0005RJFU V0203401N004610360019N0112651N1+01201+00701999999ADDGA1021+009009999GA2021+013509999GA3071+036009999GF107991999999999999999999MA1101291999999MW1001REMMET088RJFU 0700Z 34009KT 9999 FEW030 SCT045 BKN120 12/07 Q1013 RMK 1CU030 3CU045 5AC120 A2992;EQDQ01+000000PRSWM2
0184478550999992000011808004+32920+129920FM-15+0005RJFU V0203501N005110135019N0112651N1+01201+00601999999ADDGA1021+009009999GA2071+013509999GF107991999999999999999999MA1101291999999MW1001REMMET074RJFU 0800Z 35010KT 9999 FEW030 BKN045 12/06 Q1013 RMK 1CU030 6CU045 A2993;EQDQ01+000000PRSWM2
0184478550999992000011809004+32920+129920FM-15+0005RJFU V0203401N007210135019N0112651N1+01101+00601999999ADDGA1021+009009999GA2071+013509999GF107991999999999999999999MA1101391999999MW1001REMMET074RJFU 0900Z 34014KT 9999 FEW030 BKN045 11/06 Q1014 RMK 1CU030 6CU045 A2995;EQDQ01+000000PRSWM2
0184478550999992000011810004+32920+129920FM-15+0005RJFU V0203501N003610300019N0112651N1+01001+00701999999ADDGA1021+009009999GA2071+030009999GF107991999999999999999999MA1101391999999MW1001REMMET074RJFU 1000Z 35007KT 9999 FEW030 BKN100 10/07 Q1014 RMK 1CU030 7AC100 A2997;EQDQ01+000000PRSWM2
0184478550999992000011811004+32920+129920FM-15+0005RJFU V0203201N007712200019N0112651N1+00901+00601999999ADDGA1021+007509999GA2021+036009999GF104991999999999999999999MA1101491999999MW1001REMMET074RJFU 1100Z 32015KT 9999 FEW025 SCT120 09/06 Q1015 RMK 1CU025 4AC120 A2999;EQDQ01+000000PRSWM2
0184478550999992000011812004+32920+129920FM-15+0005RJFU V0203501N006210105019N0112651N1+00901+00701999999ADDGA1021+007509999GA2071+010509999GF107991999999999999999999MA1101491999999MW1001REMMET074RJFU 1200Z 35012KT 9999 FEW025 BKN035 09/07 Q1015 RMK 1CU025 6CU035 A2999;EQDQ01+000000PRSWM2
0184478550999992000011820004+32920+129920FM-15+0005RJFU V0203201N003610135019N0112651N1+00801+00201999999ADDGA1021+009009999GA2071+013509999GF107991999999999999999999MA1101491999999MW1001REMMET074RJFU 2000Z 32007KT 9999 FEW030 BKN045 08/02 Q1015 RMK 1CU030 6CU045 A2999;EQDQ01+000000PRSWM2
0192478550999992000011821004+32920+129920FM-15+0005RJFU V0200601N002110135019N0112651N1+00801+00301999999ADDGA1021+010509999GA2071+013509999GF107991999999999999999999MA1101591999999MW1001REMMET082RJFU 2100Z 06004KT 010V100 9999 FEW035 BKN045 08/03 Q1016 RMK 1CU035 5CU045 A3000;EQDQ01+000000PRSWM2
0184478550999992000011822004+32920+129920FM-15+0005RJFU V0203301N010310120019N0112651N1+00801+00101999999ADDGA1021+009009999GA2071+012009999GF107991999999999999999999MA1101591999999MW1001REMMET074RJFU 2200Z 33020KT 9999 FEW030 BKN040 08/01 Q1016 RMK 1CU030 6CU040 A3003;EQDQ01+000000PRSWM2
0206478550999992000011823004+32920+129920FM-15+0005RJFU V0203301N010810105019N0112651N1+00701+00001999999ADDGA1021+009009999GA2071+010509999GF107991999999999999999999MA1101691999999MW1801REMMET080RJFU 2300Z 33021KT 9999 -SHRA FEW030 BKN035 07/00 Q1017 RMK 1CU030 7CU035 A3006;EQDQ01+000003PRSWM1Q02    003PRSWM1
0206478550999992000011900004+32920+129920FM-15+0005RJFU V0203401N009810135019N0112651N1+00701+00001999999ADDGA1021+009009999GA2071+013509999GF107991999999999999999999MA1101901999999MW1801REMMET080RJFU 0000Z 34019KT 9999 -SHRA FEW030 BKN045 07/00 Q1019 RMK 1CU030 6CU045 A3009;EQDQ01+000003PRSWM1Q02    003PRSWM1
