0203479110999992000010100004+24470+122980FM-15+0017ROYN V0201201N004110150019N0112651N1+02201+01901999999ADDGA1021+003009999GA2021+009009999GA3071+015009999GF107991999999999999999999MA1101591999999MW1001REMMET096ROYN 0000Z 12008KT 090V150 9999 FEW010 SCT030 BKN050 22/19 Q1016 RMK 2CU010 4CU030 6SC050 A3002;
0195479110999992000010101004+24470+122980FM-15+0017ROYN V0201201N003110105019N0112651N1+02201+01901999999ADDGA1021+003009999GA2071+010509999GA3071+018009999GF107991999999999999999999MA1101691999999MW1001REMMET088ROYN 0100Z 12006KT 9999 FEW010 BKN035 BKN060 22/19 Q1017 RMK 1CU010 5CU035 7SC060 A3004;
0195479110999992000010102004+24470+122980FM-15+0017ROYN V0201201N002110120019N0112651N1+02201+01801999999ADDGA1021+003009999GA2071+012009999GA3071+021009999GF107991999999999999999999MA1101691999999MW1001REMMET088ROYN 0200Z 12004KT 9999 FEW010 BKN040 BKN070 22/18 Q1017 RMK 2CU010 5CU040 7AC070 A3003;
0227479110999992000010102374+24470+122980FM-16+0017ROYN V0202401N002110060019N0080001N1+02001+01801999999ADDGA1021+003009999GA2071+006009999GA3071+024009999GF107991999999999999999999MA1101591999999MW1631REMMET101ROYN 010237Z 24004KT 200V280 8000 RA SCT010 BKN020 BKN080 20/18 Q1016 RMK 3CU010 5CU020 7AS080 A3003;EQDQ01    003PRSWM1
0217479110999992000010103004+24470+122980FM-15+0017ROYN V0202401N001010036019N0060001N1+02001+01901999999ADDGA1021+003009999GA2071+003609999GA3081+024009999GF108991999999999999999999MA1101591999999MW1631REMMET091ROYN 0300Z 24002KT 6000 RA SCT010 BKN012 OVC080 20/19 Q1016 RMK 3CU010 5CU012 8AS080 A3003;EQDQ01    003PRSWM1
0180479110999992000010103284+24470+122980FM-16+0017ROYN V0200701N003610045019N0112651N1+02001+01801999999ADDGA1071+004509999GA2071+024009999GF107991999999999999999999MA1101591999999MW1001REMMET089ROYN 010328Z 07007KT 040V110 9999 BKN015 BKN080 20/18 Q1016 RERA RMK 5CU015 7AC080 A3001;
0170479110999992000010104004+24470+122980FM-15+0017ROYN V0201201N002610120019N0112651N1+02101+01801999999ADDGA1021+004509999GA2071+012009999GF107991999999999999999999MA1101491999999MW1001REMMET079ROYN 0400Z 12005KT 9999 SCT015 BKN040 21/18 Q1015 RERA RMK 4CU015 7SC040 A2998;
0178479110999992000010105004+24470+122980FM-15+0017ROYN V0201201N002610150019N0112651N1+02201+01701999999ADDGA1021+004509999GA2071+015009999GF107991999999999999999999MA1101391999999MW1001REMMET087ROYN 0500Z 12005KT 080V160 9999 FEW015 BKN050 22/17 Q1014 RERA RMK 1CU015 6SC050 A2994;
0170479110999992000010106004+24470+122980FM-15+0017ROYN V02099999999992200019N0112651N1+02301+01601999999ADDGA1021+007509999GA2021+015009999GF104991999999999999999999MA1101291999999MW1001REMMET079ROYN 0600Z VRB02KT 9999 FEW025 SCT050 23/16 Q1013 RERA RMK 1CU025 3SC050 A2994;
0170479110999992000010107004+24470+122980FM-15+0017ROYN V0203101N002610135019N0112651N1+02301+01701999999ADDGA1021+006009999GA2071+013509999GF107991999999999999999999MA1101291999999MW1001REMMET079ROYN 0700Z 31005KT 9999 FEW020 BKN045 23/17 Q1013 RERA RMK 1CU020 5SC045 A2993;
0154479110999992000010200004+24470+122980FM-15+0017ROYN V0200101N010312200019N0112651N1+02101+01301999999ADDGA1021+007509999GF102991999999999999999999MA1101691999999MW1001REMMET060ROYN 0000Z 01020KT 9999 FEW025 21/13 Q1017 RMK 1CU025 A3004;EQDQ01+000000PRSWM2
0154479110999992000010201004+24470+122980FM-15+0017ROYN V0200101N010812200019N0112651N1+02201+01201999999ADDGA1021+009009999GF102991999999999999999999MA1101691999999MW1001REMMET060ROYN 0100Z 01021KT 9999 FEW030 22/12 Q1017 RMK 1CU030 A3006;EQDQ01+000000PRSWM2
0154479110999992000010202004+24470+122980FM-15+0017ROYN V0200101N010312200019N0112651N1+02201+01301999999ADDGA1021+009009999GF102991999999999999999999MA1101691999999MW1001REMMET060ROYN 0200Z 01020KT 9999 FEW030 22/13 Q1017 RMK 1CU030 A3006;EQDQ01+000000PRSWM2
0154479110999992000010203004+24470+122980FM-15+0017ROYN V0200201N010312200019N0112651N1+02301+01301999999ADDGA1021+010509999GF102991999999999999999999MA1101691999999MW1001REMMET060ROYN 0300Z 02020KT 9999 FEW035 23/13 Q1017 RMK 1CU035 A3004;EQDQ01+000000PRSWM2
0154479110999992000010204004+24470+122980FM-15+0017ROYN V0200201N009812200019N0112651N1+02301+01301999999ADDGA1021+010509999GF102991999999999999999999MA1101591999999MW1001REMMET060ROYN 0400Z 02019KT 9999 FEW035 23/13 Q1016 RMK 1CU035 A3002;EQDQ01+000000PRSWM2
0154479110999992000010205004+24470+122980FM-15+0017ROYN V0200201N009312200019N0112651N1+02301+01301999999ADDGA1021+010509999GF102991999999999999999999MA1101491999999MW1001REMMET060ROYN 0500Z 02018KT 9999 FEW035 23/13 Q1015 RMK 1CU035 A2999;EQDQ01+000000PRSWM2
0154479110999992000010206004+24470+122980FM-15+0017ROYN V0200301N009312200019N0112651N1+02201+01401999999ADDGA1021+010509999GF102991999999999999999999MA1101491999999MW1001REMMET060ROYN 0600Z 03018KT 9999 FEW035 22/14 Q1015 RMK 1CU035 A2998;EQDQ01+000000PRSWM2
0154479110999992000010207004+24470+122980FM-15+0017ROYN V0200301N009812200019N0112651N1+02201+01401999999ADDGA1021+010509999GF102991999999999999999999MA1101491999999MW1001REMMET060ROYN 0700Z 03019KT 9999 FEW035 22/14 Q1015 RMK 1CU035 A2999;EQDQ01+000000PRSWM2
0154479110999992000010300004+24470+122980FM-15+0017ROYN V0200501N005112200019N0112651N1+01901+01001999999ADDGA1021+010509999GF102991999999999999999999MA1101801999999MW1001REMMET060ROYN 0000Z 05010KT 9999 FEW035 19/10 Q1018 RMK 2CU035 A3009;EQDQ01+000000PRSWM2
0154479110999992000010301004+24470+122980FM-15+0017ROYN V0200501N003612200019N0112651N1+02101+00901999999ADDGA1021+010509999GF102991999999999999999999MA1101901999999MW1001REMMET060ROYN 0100Z 05007KT 9999 FEW035 21/09 Q1019 RMK 2CU035 A3010;EQDQ01+000000PRSWM2
0154479110999992000010302004+24470+122980FM-15+0017ROYN V0200501N004112200019N0112651N1+02101+01101999999ADDGA1021+010509999GF102991999999999999999999MA1101901999999MW1001REMMET060ROYN 0200Z 05008KT 9999 FEW035 21/11 Q1019 RMK 1CU035 A3010;EQDQ01+000000PRSWM2
0154479110999992000010303004+24470+122980FM-15+0017ROYN V0200301N004112200019N0112651N1+02201+01101999999ADDGA1021+010509999GF102991999999999999999999MA1101801999999MW1001REMMET060ROYN 0300Z 03008KT 9999 FEW035 22/11 Q1018 RMK 1CU035 A3008;EQDQ01+000000PRSWM2
0154479110999992000010304004+24470+122980FM-15+0017ROYN V0200401N004612200019N0112651N1+02201+01101999999ADDGA1021+010509999GF102991999999999999999999MA1101691999999MW1001REMMET060ROYN 0400Z 04009KT 9999 FEW035 22/11 Q1017 RMK 1CU035 A3006;EQDQ01+000000PRSWM2
0154479110999992000010305004+24470+122980FM-15+0017ROYN V0200501N004112200019N0112651N1+02201+01201999999ADDGA1021+010509999GF102991999999999999999999MA1101691999999MW1001REMMET060ROYN 0500Z 05008KT 9999 FEW035 22/12 Q1017 RMK 1CU035 A3003;EQDQ01+000000PRSWM2
0154479110999992000010306004+24470+122980FM-15+0017ROYN V0200401N004112200019N0112651N1+02201+01201999999ADDGA1021+010509999GF102991999999999999999999MA1101591999999MW1001REMMET060ROYN 0600Z 04008KT 9999 FEW035 22/12 Q1016 RMK 1CU035 A3002;EQDQ01+000000PRSWM2
0154479110999992000010307004+24470+122980FM-15+0017ROYN V0200601N004612200019N0112651N1+02201+01301999999ADDGA1021+010509999GF102991999999999999999999MA1101591999999MW1001REMMET060ROYN 0700Z 06009KT 9999 FEW035 22/13 Q1016 RMK 1CU035 A3002;EQDQ01+000000PRSWM2
0192479110999992000010400004+24470+122980FM-15+0017ROYN V0201001N003610150019N0112651N1+02101+01501999999ADDGA1021+009009999GA2071+015009999GF107991999999999999999999MA1101691999999MW1001REMMET082ROYN 0000Z 10007KT 070V130 9999 FEW030 BKN050 21/15 Q1017 RMK 2CU030 6SC050 A3005;EQDQ01+000000PRSWM2
0154479110999992000010401004+24470+122980FM-15+0017ROYN V0201001N004612200019N0112651N1+02301+01501999999ADDGA1021+009009999GF102991999999999999999999MA1101801999999MW1001REMMET060ROYN 0100Z 10009KT 9999 FEW030 23/15 Q1018 RMK 1CU030 A3006;EQDQ01+000000PRSWM2
0154479110999992000010402004+24470+122980FM-15+0017ROYN V0201001N005112200019N0112651N1+02301+01401999999ADDGA1021+009009999GF102991999999999999999999MA1101691999999MW1001REMMET060ROYN 0200Z 10010KT 9999 FEW030 23/14 Q1017 RMK 1CU030 A3006;EQDQ01+000000PRSWM2
0162479110999992000010403004+24470+122980FM-15+0017ROYN V0201101N004612200019N0112651N1+02401+01401999999ADDGA1021+009009999GF102991999999999999999999MA1101691999999MW1001REMMET068ROYN 0300Z 11009KT 070V140 9999 FEW030 24/14 Q1017 RMK 1CU030 A3004;EQDQ01+000000PRSWM2
0192479110999992000010405004+24470+122980FM-15+0017ROYN V0201201N004112200019N0112651N1+02401+01401999999ADDGA1021+010509999GA2021+021009999GF104991999999999999999999MA1101491999999MW1001REMMET082ROYN 0500Z 12008KT 060V160 9999 FEW035 SCT070 24/14 Q1015 RMK 1CU035 3AC070 A2999;EQDQ01+000000PRSWM2
0162479110999992000010406004+24470+122980FM-15+0017ROYN V0201301N003612200019N0112651N1+02401+01401999999ADDGA1021+010509999GF102991999999999999999999MA1101391999999MW1001REMMET068ROYN 0600Z 13007KT 080V170 9999 FEW035 24/14 Q1014 RMK 2CU035 A2997;EQDQ01+000000PRSWM2
0162479110999992000010407004+24470+122980FM-15+0017ROYN V0201401N004112200019N0112651N1+02401+01601999999ADDGA1021+010509999GF104991999999999999999999MA1101391999999MW1001REMMET068ROYN 0700Z 14008KT 080V200 9999 SCT035 24/16 Q1014 RMK 3CU035 A2997;EQDQ01+000000PRSWM2
0184479110999992000010500004+24470+122980FM-15+0017ROYN V02099999999992200019N0112651N1+02101+01901999999ADDGA1021+007509999GA2021+015009999GF104991999999999999999999MA1101391999999MW1001REMMET074ROYN 0000Z VRB03KT 9999 FEW025 SCT050 21/19 Q1014 RMK 2CU025 4SC050 A2997;EQDQ01+000000PRSWM2
0154479110999992000010501004+24470+122980FM-15+0017ROYN V0202301N001512200019N0112651N1+02401+01901999999ADDGA1021+007509999GF102991999999999999999999MA1101491999999MW1001REMMET060ROYN 0100Z 23003KT 9999 FEW025 24/19 Q1015 RMK 2CU025 A2998;EQDQ01+000000PRSWM2
0184479110999992000010502004+24470+122980FM-15+0017ROYN V0202401N002610150019N0112651N1+02401+01801999999ADDGA1021+007509999GA2071+015009999GF107991999999999999999999MA1101491999999MW1001REMMET074ROYN 0200Z 24005KT 9999 FEW025 BKN050 24/18 Q1015 RMK 2CU025 5SC050 A2998;EQDQ01+000000PRSWM2
0162479110999992000010503004+24470+122980FM-15+0017ROYN V0202401N003112200019N0112651N1+02401+01801999999ADDGA1021+008409999GF102991999999999999999999MA1101391999999MW1001REMMET068ROYN 0300Z 24006KT 200V270 9999 FEW028 24/18 Q1014 RMK 2CU028 A2996;EQDQ01+000000PRSWM2
0192479110999992000010504004+24470+122980FM-15+0017ROYN V0202601N003610150019N0112651N1+02501+01701999999ADDGA1021+007509999GA2071+015009999GF107991999999999999999999MA1101291999999MW1001REMMET082ROYN 0400Z 26007KT 240V300 9999 FEW025 BKN050 25/17 Q1013 RMK 2CU025 6SC050 A2993;EQDQ01+000000PRSWM2
0192479110999992000010505004+24470+122980FM-15+0017ROYN V0202901N002610150019N0112651N1+02501+01801999999ADDGA1021+007509999GA2071+015009999GF107991999999999999999999MA1101191999999MW1001REMMET082ROYN 0500Z 29005KT 230V320 9999 FEW025 BKN050 25/18 Q1012 RMK 2CU025 6SC050 A2991;EQDQ01+000000PRSWM2
0162479110999992000010506004+24470+122980FM-15+0017ROYN V0202701N003112200019N0112651N1+02601+01801999999ADDGA1021+009009999GF102991999999999999999999MA1101191999999MW1001REMMET068ROYN 0600Z 27006KT 220V300 9999 FEW030 26/18 Q1012 RMK 1CU030 A2989;EQDQ01+000000PRSWM2
0162479110999992000010507004+24470+122980FM-15+0017ROYN V0202301N002112200019N0112651N1+02501+01801999999ADDGA1021+009009999GF102991999999999999999999MA1101191999999MW1001REMMET068ROYN 0700Z 23004KT 150V280 9999 FEW030 25/18 Q1012 RMK 1CU030 A2989;EQDQ01+000000PRSWM2
0154479110999992000010601004+24470+122980FM-15+0017ROYN V0200501N005110066019N0112651N1+02401+01801999999ADDGA1071+006609999GF107991999999999999999999MA1101491999999MW1001REMMET060ROYN 0100Z 05010KT 9999 BKN022 24/18 Q1015 RMK 5CU022 A2997;EQDQ01+000000PRSWM2
0154479110999992000010602004+24470+122980FM-15+0017ROYN V0200401N006712200019N0112651N1+02301+01801999999ADDGA1021+006909999GF104991999999999999999999MA1101491999999MW1001REMMET060ROYN 0200Z 04013KT 9999 SCT023 23/18 Q1015 RMK 4CU023 A2998;EQDQ01+000000PRSWM2
0154479110999992000010603004+24470+122980FM-15+0017ROYN V0200601N006212200019N0112651N1+02401+01801999999ADDGA1021+006009999GF104991999999999999999999MA1101391999999MW1001REMMET060ROYN 0300Z 06012KT 9999 SCT020 24/18 Q1014 RMK 3CU020 A2996;EQDQ01+000000PRSWM2
0154479110999992000010604004+24470+122980FM-15+0017ROYN V0200601N006212200019N0112651N1+02401+01801999999ADDGA1021+006009999GF104991999999999999999999MA1101291999999MW1001REMMET060ROYN 0400Z 06012KT 9999 SCT020 24/18 Q1013 RMK 3CU020 A2994;EQDQ01+000000PRSWM2
0184479110999992000010605004+24470+122980FM-15+0017ROYN V0200501N006210075019N0112651N1+02401+01901999999ADDGA1021+005109999GA2071+007509999GF107991999999999999999999MA1101291999999MW1001REMMET074ROYN 0500Z 05012KT 9999 SCT017 BKN025 24/19 Q1013 RMK 4CU017 5CU025 A2991;EQDQ01+000000PRSWM2
0206479110999992000010606004+24470+122980FM-15+0017ROYN V0200601N006210075019N0112651N1+02301+02001999999ADDGA1021+005109999GA2071+007509999GF107991999999999999999999MA1101191999999MW1801REMMET080ROYN 0600Z 06012KT 9999 -SHRA SCT017 BKN025 23/20 Q1012 RMK 4CU017 6CU025 A2989;EQDQ01+000003PRSWM1Q02    003PRSWM1
0241479110999992000010607004+24470+122980FM-15+0017ROYN V0200901N005110048019N0112651N1+02001+01901999999ADDGA1021+003009999GA2071+004809999GA3071+007509999GF107991999999999999999999MA1101191999999MW1801REMMET099ROYN 0700Z 09010KT 9999 -SHRA FEW010 BKN016 BKN025 20/19 Q1012 RERA RMK 2CU010 5CU016 6CU025 A2991;EQDQ01+000003PRSWM1Q02    003PRSWM1
0184479110999992000010700004+24470+122980FM-15+0017ROYN V0200501N012310240019N0112651N1+02001+01601999999ADDGA1021+006309999GA2081+024009999GF108991999999999999999999MA1101801999999MW1001REMMET074ROYN 0000Z 05024KT 9999 SCT021 OVC080 20/16 Q1018 RMK 4CU021 8AC080 A3007;EQDQ01+000000PRSWM2
0184479110999992000010701004+24470+122980FM-15+0017ROYN V0200501N011810240019N0112651N1+02001+01501999999ADDGA1021+006309999GA2081+024009999GF108991999999999999999999MA1101801999999MW1001REMMET074ROYN 0100Z 05023KT 9999 SCT021 OVC080 20/15 Q1018 RMK 4CU021 8AC080 A3009;EQDQ01+000000PRSWM2
0184479110999992000010702004+24470+122980FM-15+0017ROYN V0200501N010810075019N0112651N1+02101+01501999999ADDGA1071+007509999GA2081+024009999GF108991999999999999999999MA1101801999999MW1001REMMET074ROYN 0200Z 05021KT 9999 BKN025 OVC080 21/15 Q1018 RMK 5CU025 8AC080 A3009;EQDQ01+000000PRSWM2
0184479110999992000010703004+24470+122980FM-15+0017ROYN V0200501N010810240019N0112651N1+02101+01501999999ADDGA1021+007809999GA2071+024009999GF107991999999999999999999MA1101801999999MW1001REMMET074ROYN 0300Z 05021KT 9999 SCT026 BKN080 21/15 Q1018 RMK 4CU026 7AC080 A3007;EQDQ01+000000PRSWM2
0184479110999992000010704004+24470+122980FM-15+0017ROYN V0200501N009810210019N0112651N1+02101+01501999999ADDGA1021+007509999GA2071+021009999GF107991999999999999999999MA1101691999999MW1001REMMET074ROYN 0400Z 05019KT 9999 SCT025 BKN070 21/15 Q1017 RMK 3CU025 7AC070 A3005;EQDQ01+000000PRSWM2
0184479110999992000010705004+24470+122980FM-15+0017ROYN V0200601N010310240019N0112651N1+02201+01601999999ADDGA1021+007509999GA2071+024009999GF107991999999999999999999MA1101591999999MW1001REMMET074ROYN 0500Z 06020KT 9999 SCT025 BKN080 22/16 Q1016 RMK 3CU025 7AC080 A3002;EQDQ01+000000PRSWM2
0184479110999992000010706004+24470+122980FM-15+0017ROYN V0200501N010812200019N0112651N1+02101+01501999999ADDGA1021+007809999GA2021+021009999GF104991999999999999999999MA1101591999999MW1001REMMET074ROYN 0600Z 05021KT 9999 FEW026 SCT070 21/15 Q1016 RMK 2CU026 3AC070 A3001;EQDQ01+000000PRSWM2
0214479110999992000010707004+24470+122980FM-15+0017ROYN V0200501N011310210019N0112651N1+02101+01501999999ADDGA1021+007509999GA2021+010509999GA3071+021009999GF107991999999999999999999MA1101591999999MW1001REMMET088ROYN 0700Z 05022KT 9999 FEW025 SCT035 BKN070 21/15 Q1016 RMK 2CU025 3CU035 6AC070 A3001;EQDQ01+000000PRSWM2
0236479110999992000010800004+24470+122980FM-15+0017ROYN V0200901N000510180019N0080001N1+02001+01901999999ADDGA1021+004509999GA2021+006009999GA3071+018009999GF107991999999999999999999MA1101591999999MW1801REMMET094ROYN 0000Z 09001KT 8000 -SHRA FEW015 SCT020 BKN060 20/19 Q1016 RMK 2CU015 3CU020 7SC060 A3001;EQDQ01+000003PRSWM1Q02    003PRSWM1
0207479110999992000010800254+24470+122980FM-15+0017ROYN V0202401N001510060019N0040001N1+02001+01901999999ADDGA1021+003609999GA2071+006009999GF107991999999999999999999MA1101591999999MW1811REMMET081ROYN 080025Z 24003KT 4000 SHRA SCT012 BKN020 20/19 Q1016 RMK 3CU012 6CU020 A3002;EQDQ01+000003PRSWM1Q02    003PRSWM1
0241479110999992000010801004+24470+122980FM-15+0017ROYN V02099999999990048019N0112651N1+02101+02001999999ADDGA1021+003609999GA2071+004809999GA3071+018009999GF107991999999999999999999MA1101591999999MW1801REMMET099ROYN 0100Z VRB01KT 9999 -SHRA FEW012 BKN016 BKN060 21/20 Q1016 RERA RMK 2CU012 5CU016 6SC060 A3002;EQDQ01+000003PRSWM1Q02    003PRSWM1
0236479110999992000010802004+24470+122980FM-15+0017ROYN V02099999999990045019N0112651N1+02101+01901999999ADDGA1021+003609999GA2071+004509999GA3071+018009999GF107991999999999999999999MA1101591999999MW1801REMMET094ROYN 0200Z VRB01KT 9999 -SHRA FEW012 BKN015 BKN060 21/19 Q1016 RMK 2CU012 5CU015 6SC060 A3002;EQDQ01+000003PRSWM1Q02    003PRSWM1
0184479110999992000010803004+24470+122980FM-15+0017ROYN V02099999999992200019N0112651N1+02301+02101999999ADDGA1021+003609999GA2021+004809999GF104991999999999999999999MA1101491999999MW1001REMMET074ROYN 0300Z VRB02KT 9999 FEW012 SCT016 23/21 Q1015 RMK 2CU012 4CU016 A2999;EQDQ01+000000PRSWM2
0184479110999992000010804004+24470+122980FM-15+0017ROYN V0203401N001510240019N0112651N1+02301+02001999999ADDGA1021+004509999GA2071+024009999GF107991999999999999999999MA1101391999999MW1001REMMET074ROYN 0400Z 34003KT 9999 SCT015 BKN080 23/20 Q1014 RMK 4CU015 5AC080 A2996;EQDQ01+000000PRSWM2
0192479110999992000010806004+24470+122980FM-15+0017ROYN V0200601N002610240019N0112651N1+02301+01901999999ADDGA1021+004509999GA2071+024009999GF107991999999999999999999MA1101291999999MW1001REMMET082ROYN 0600Z 06005KT 030V100 9999 SCT015 BKN080 23/19 Q1013 RMK 4CU015 7AC080 A2991;EQDQ01+000000PRSWM2
0222479110999992000010807004+24470+122980FM-15+0017ROYN V0200801N003610240019N0112651N1+02301+02001999999ADDGA1021+003009999GA2021+012009999GA3071+024009999GF107991999999999999999999MA1101191999999MW1001REMMET096ROYN 0700Z 08007KT 060V120 9999 FEW010 SCT040 BKN080 23/20 Q1012 RMK 2CU010 4SC040 7AC080 A2990;EQDQ01+000000PRSWM2
0214479110999992000010900004+24470+122980FM-15+0017ROYN V0203401N006710240019N0112651N1+02201+01801999999ADDGA1021+003009999GA2021+004509999GA3071+024009999GF107991999999999999999999MA1101391999999MW1001REMMET088ROYN 0000Z 34013KT 9999 FEW010 SCT015 BKN080 22/18 Q1014 RMK 1CU010 4CU015 7AC080 A2996;EQDQ01+000000PRSWM2
0214479110999992000010901004+24470+122980FM-15+0017ROYN V0203401N006710240019N0112651N1+02201+01801999999ADDGA1021+004509999GA2021+015009999GA3071+024009999GF107991999999999999999999MA1101491999999MW1001REMMET088ROYN 0100Z 34013KT 9999 FEW015 SCT050 BKN080 22/18 Q1015 RMK 1CU015 3SC050 7AC080 A2999;EQDQ01+000000PRSWM2
0184479110999992000010902004+24470+122980FM-15+0017ROYN V0203501N004610240019N0112651N1+02301+01801999999ADDGA1021+004509999GA2071+024009999GF107991999999999999999999MA1101491999999MW1001REMMET074ROYN 0200Z 35009KT 9999 FEW015 BKN080 23/18 Q1015 RMK 2CU015 7AC080 A2999;EQDQ01+000000PRSWM2
0214479110999992000010903004+24470+122980FM-15+0017ROYN V0203501N005710240019N0112651N1+02401+01801999999ADDGA1021+004509999GA2021+018009999GA3071+024009999GF107991999999999999999999MA1101491999999MW1001REMMET088ROYN 0300Z 35011KT 9999 FEW015 SCT060 BKN080 24/18 Q1015 RMK 1CU015 4SC060 7AC080 A2999;EQDQ01+000000PRSWM2
0184479110999992000010904004+24470+122980FM-15+0017ROYN V0203601N005112200019N0112651N1+02301+01801999999ADDGA1021+004509999GA2021+018009999GF104991999999999999999999MA1101391999999MW1001REMMET074ROYN 0400Z 36010KT 9999 FEW015 SCT060 23/18 Q1014 RMK 1CU015 3SC060 A2996;EQDQ01+000000PRSWM2
0184479110999992000010905004+24470+122980FM-15+0017ROYN V0200101N004612200019N0112651N1+02401+01801999999ADDGA1021+006009999GA2021+024009999GF104991999999999999999999MA1101291999999MW1001REMMET074ROYN 0500Z 01009KT 9999 FEW020 SCT080 24/18 Q1013 RMK 1CU020 4AC080 A2994;EQDQ01+000000PRSWM2
0160479110999992000010907004+24470+122980FM-15+0017ROYN V0200201N005110240019N0112651N1+02301+01801999999ADDGA1021+006009999GA2071+024009999GF107991999999999999999999MA1101291999999MW1001REMMET050ROYN 0700Z 02010KT 9999 FEW020 BKN080 23/18 Q1013;EQDQ01+000000PRSWM2
0214479110999992000011000004+24470+122980FM-15+0017ROYN V0200601N009810060019N0112651N1+02101+01701999999ADDGA1021+004509999GA2071+006009999GA3071+015009999GF107991999999999999999999MA1101691999999MW1001REMMET088ROYN 0000Z 06019KT 9999 FEW015 BKN020 BKN050 21/17 Q1017 RMK 2CU015 5CU020 7SC050 A3005;EQDQ01+000000PRSWM2
0214479110999992000011001004+24470+122980FM-15+0017ROYN V0200601N009810057019N0112651N1+02101+01701999999ADDGA1021+004509999GA2071+005709999GA3071+018009999GF107991999999999999999999MA1101691999999MW1001REMMET088ROYN 0100Z 06019KT 9999 FEW015 BKN019 BKN060 21/17 Q1017 RMK 2CU015 5CU019 7SC060 A3006;EQDQ01+000000PRSWM2
0214479110999992000011002004+24470+122980FM-15+0017ROYN V0200501N009810060019N0112651N1+02201+01701999999ADDGA1021+004509999GA2071+006009999GA3071+018009999GF107991999999999999999999MA1101801999999MW1001REMMET088ROYN 0200Z 05019KT 9999 FEW015 BKN020 BKN060 22/17 Q1018 RMK 2CU015 5CU020 7SC060 A3007;EQDQ01+000000PRSWM2
0184479110999992000011003004+24470+122980FM-15+0017ROYN V0200501N009310060019N0112651N1+02201+01701999999ADDGA1021+004509999GA2071+006009999GF107991999999999999999999MA1101691999999MW1001REMMET074ROYN 0300Z 05018KT 9999 FEW015 BKN020 22/17 Q1017 RMK 2CU015 7CU020 A3006;EQDQ01+000000PRSWM2
0184479110999992000011004004+24470+122980FM-15+0017ROYN V0200501N009810075019N0112651N1+02201+01701999999ADDGA1021+005409999GA2071+007509999GF107991999999999999999999MA1101691999999MW1001REMMET074ROYN 0400Z 05019KT 9999 SCT018 BKN025 22/17 Q1017 RMK 4CU018 6CU025 A3004;EQDQ01+000000PRSWM2
0184479110999992000011005004+24470+122980FM-15+0017ROYN V0200501N009810075019N0112651N1+02201+01701999999ADDGA1021+005409999GA2071+007509999GF107991999999999999999999MA1101591999999MW1001REMMET074ROYN 0500Z 05019KT 9999 SCT018 BKN025 22/17 Q1016 RMK 4CU018 6CU025 A3001;EQDQ01+000000PRSWM2
0184479110999992000011006004+24470+122980FM-15+0017ROYN V0200501N009310075019N0112651N1+02101+01701999999ADDGA1021+005409999GA2071+007509999GF107991999999999999999999MA1101591999999MW1001REMMET074ROYN 0600Z 05018KT 9999 SCT018 BKN025 21/17 Q1016 RMK 4CU018 6CU025 A3001;EQDQ01+000000PRSWM2
0160479110999992000011007004+24470+122980FM-15+0017ROYN V0200501N009310075019N0112651N1+02101+01601999999ADDGA1071+007509999GA2071+021009999GF107991999999999999999999MA1101591999999MW1001REMMET050ROYN 0700Z 05018KT 9999 BKN025 BKN070 21/16 Q1016;EQDQ01+000000PRSWM2
0192479110999992000011100004+24470+122980FM-15+0017ROYN V0201001N004110150019N0112651N1+02201+01701999999ADDGA1021+007509999GA2071+015009999GF107991999999999999999999MA1101691999999MW1001REMMET082ROYN 0000Z 10008KT 060V140 9999 FEW025 BKN050 22/17 Q1017 RMK 2CU025 7SC050 A3005;EQDQ01+000000PRSWM2
0214479110999992000011101004+24470+122980FM-15+0017ROYN V0201001N005110240019N0112651N1+02301+01701999999ADDGA1021+007509999GA2021+015009999GA3071+024009999GF107991999999999999999999MA1101691999999MW1001REMMET088ROYN 0100Z 10010KT 9999 FEW025 SCT050 BKN080 23/17 Q1017 RMK 2CU025 4SC050 7AC080 A3005;EQDQ01+000000PRSWM2
0192479110999992000011102004+24470+122980FM-15+0017ROYN V0201101N004110240019N0112651N1+02301+01701999999ADDGA1021+007509999GA2071+024009999GF107991999999999999999999MA1101691999999MW1001REMMET082ROYN 0200Z 11008KT 070V140 9999 FEW025 BKN080 23/17 Q1017 RMK 2CU025 7AC080 A3004;EQDQ01+000000PRSWM2
0192479110999992000011103004+24470+122980FM-15+0017ROYN V0201101N004110240019N0112651N1+02401+01801999999ADDGA1021+007509999GA2071+024009999GF107991999999999999999999MA1101591999999MW1001REMMET082ROYN 0300Z 11008KT 050V150 9999 FEW025 BKN080 24/18 Q1016 RMK 2CU025 7AC080 A3001;EQDQ01+000000PRSWM2
0192479110999992000011104004+24470+122980FM-15+0017ROYN V0201301N004110240019N0112651N1+02401+01801999999ADDGA1021+007509999GA2071+024009999GF107991999999999999999999MA1101491999999MW1001REMMET082ROYN 0400Z 13008KT 080V160 9999 FEW025 BKN080 24/18 Q1015 RMK 2CU025 6AC080 A2997;EQDQ01+000000PRSWM2
0192479110999992000011105004+24470+122980FM-15+0017ROYN V0201301N003610270019N0112651N1+02501+01601999999ADDGA1021+006909999GA2071+027009999GF107991999999999999999999MA1101391999999MW1001REMMET082ROYN 0500Z 13007KT 090V190 9999 FEW023 BKN090 25/16 Q1014 RMK 1CU023 6AC090 A2995;EQDQ01+000000PRSWM2
0192479110999992000011106004+24470+122980FM-15+0017ROYN V0201301N004610270019N0112651N1+02401+01801999999ADDGA1021+006909999GA2071+027009999GF107991999999999999999999MA1101291999999MW1001REMMET082ROYN 0600Z 13009KT 080V160 9999 FEW023 BKN090 24/18 Q1013 RMK 2CU023 6AC090 A2992;EQDQ01+000000PRSWM2
0192479110999992000011107004+24470+122980FM-15+0017ROYN V0201301N004610270019N0112651N1+02401+01901999999ADDGA1021+006009999GA2071+027009999GF107991999999999999999999MA1101291999999MW1001REMMET082ROYN 0700Z 13009KT 100V160 9999 FEW020 BKN090 24/19 Q1013 RMK 2CU020 6AC090 A2991;EQDQ01+000000PRSWM2
0184479110999992000011200004+24470+122980FM-15+0017ROYN V02099999999990210019N0112651N1+02201+02101999999ADDGA1021+004509999GA2081+021009999GF108991999999999999999999MA1101191999999MW1001REMMET074ROYN 0000Z VRB02KT 9999 FEW015 OVC070 22/21 Q1012 RMK 1CU015 8AC070 A2991;EQDQ01+000000PRSWM2
0184479110999992000011201004+24470+122980FM-15+0017ROYN V02099999999990150019N0112651N1+02301+02101999999ADDGA1021+004509999GA2071+015009999GF107991999999999999999999MA1101291999999MW1001REMMET074ROYN 0100Z VRB03KT 9999 FEW015 BKN050 23/21 Q1013 RMK 2CU015 7SC050 A2993;EQDQ01+000000PRSWM2
0160479110999992000011202004+24470+122980FM-15+0017ROYN V02099999999990150019N0112651N1+02401+02101999999ADDGA1021+004509999GA2071+015009999GF107991999999999999999999MA1101291999999MW1001REMMET050ROYN 0200Z VRB03KT 9999 SCT015 BKN050 24/21 Q1013;EQDQ01+000000PRSWM2
0236479110999992000011203004+24470+122980FM-15+0017ROYN V0203601N002110135019N0112651N1+02201+02001999999ADDGA1021+003009999GA2021+003909999GA3081+013509999GF108991999999999999999999MA1101291999999MW1801REMMET094ROYN 0300Z 36004KT 9999 -SHRA FEW010 SCT013 OVC045 22/20 Q1013 RMK 2CU010 4CU013 8SC045 A2992;EQDQ01+000003PRSWM1Q02    003PRSWM1
0236479110999992000011204004+24470+122980FM-15+0017ROYN V02099999999990051019N0112651N1+02301+02001999999ADDGA1021+002709999GA2071+005109999GA3071+015009999GF107991999999999999999999MA1101191999999MW1801REMMET094ROYN 0400Z VRB02KT 9999 -SHRA FEW009 BKN017 BKN050 23/20 Q1012 RMK 2CU009 5CU017 7SC050 A2989;EQDQ01+000003PRSWM1Q02    003PRSWM1
0183479110999992000011205004+24470+122980FM-15+0017ROYN V0203501N006210060019N0112651N1+02301+01901999999ADDGA1021+004509999GA2071+006009999GA3071+015009999GF107991999999999999999999MA1101081999999MW1001REMMET057ROYN 0500Z 35012KT 9999 FEW015 BKN020 BKN050 23/19 Q1011;EQDQ01+000000PRSWM2
0236479110999992000011206004+24470+122980FM-15+0017ROYN V0203601N007210150019N0112651N1+02301+01901999999ADDGA1021+004509999GA2021+009009999GA3071+015009999GF107991999999999999999999MA1101081999999MW1801REMMET094ROYN 0600Z 36014KT 9999 -SHRA FEW015 SCT030 BKN050 23/19 Q1011 RMK 2CU015 4CU030 7SC050 A2986;EQDQ01+000003PRSWM1Q02    003PRSWM1
0214479110999992000011207004+24470+122980FM-15+0017ROYN V0200101N005710150019N0112651N1+02201+01901999999ADDGA1021+004509999GA2021+010509999GA3071+015009999GF107991999999999999999999MA1101081999999MW1001REMMET088ROYN 0700Z 01011KT 9999 FEW015 SCT035 BKN050 22/19 Q1011 RMK 2CU015 3CU035 7SC050 A2986;EQDQ01+000000PRSWM2
0236479110999992000011300004+24470+122980FM-15+0017ROYN V0200501N007710051019N0080001N1+02001+01701999999ADDGA1021+003009999GA2071+005109999GA3081+021009999GF108991999999999999999999MA1101291999999MW1801REMMET094ROYN 0000Z 05015KT 8000 -SHRA SCT010 BKN017 OVC070 20/17 Q1013 RMK 3CU010 5CU017 8AC070 A2994;EQDQ01+000003PRSWM1Q02    003PRSWM1
0236479110999992000011301004+24470+122980FM-15+0017ROYN V0200501N008210048019N0070001N1+02001+01701999999ADDGA1021+002709999GA2071+004809999GA3081+021009999GF108991999999999999999999MA1101391999999MW1801REMMET094ROYN 0100Z 05016KT 7000 -SHRA SCT009 BKN016 OVC070 20/17 Q1014 RMK 3CU009 5CU016 8AC070 A2997;EQDQ01+000003PRSWM1Q02    003PRSWM1
0206479110999992000011302004+24470+122980FM-15+0017ROYN V0200401N008210051019N0112651N1+02001+01701999999ADDGA1071+005109999GA2081+021009999GF108991999999999999999999MA1101391999999MW1801REMMET080ROYN 0200Z 04016KT 9999 -SHRA BKN017 OVC070 20/17 Q1014 RMK 5CU017 8AC070 A2997;EQDQ01+000003PRSWM1Q02    003PRSWM1
0194479110999992000011303004+24470+122980FM-15+0017ROYN V0200401N008210051019N0112651N1+99999+99999999999ADDGA1021+003009999GA2071+005109999GF107991999999999999999999MW1001MW2801REMMET093ROYN 0300Z 04016KT 9999 -SHRA FEW010 BKN017 OV070 19/17 Q1014 RMK 2CU010 5CU017 8AC070 A2995;EQDQ01+000003PRSWM1
0214479110999992000011304004+24470+122980FM-15+0017ROYN V0200501N008210057019N0112651N1+01901+01701999999ADDGA1021+003009999GA2071+005709999GA3081+021009999GF108991999999999999999999MA1101291999999MW1001REMMET088ROYN 0400Z 05016KT 9999 FEW010 BKN019 OVC070 19/17 Q1013 RMK 2CU010 5CU019 8AC070 A2993;EQDQ01+000000PRSWM2
0214479110999992000011305004+24470+122980FM-15+0017ROYN V0200501N008710054019N0112651N1+01901+01701999999ADDGA1021+003609999GA2071+005409999GA3071+018009999GF107991999999999999999999MA1101191999999MW1001REMMET088ROYN 0500Z 05017KT 9999 FEW012 BKN018 BKN060 19/17 Q1012 RMK 2CU012 5CU018 7SC060 A2991;EQDQ01+000000PRSWM2
0214479110999992000011306004+24470+122980FM-15+0017ROYN V0200501N008210180019N0112651N1+02001+01601999999ADDGA1021+004809999GA2021+007809999GA3071+018009999GF107991999999999999999999MA1101191999999MW1001REMMET088ROYN 0600Z 05016KT 9999 FEW016 SCT026 BKN060 20/16 Q1012 RMK 2CU016 4CU026 7SC060 A2989;EQDQ01+000000PRSWM2
0214479110999992000011307004+24470+122980FM-15+0017ROYN V0200501N008210075019N0112651N1+02001+01601999999ADDGA1021+005409999GA2071+007509999GA3071+018009999GF107991999999999999999999MA1101191999999MW1001REMMET088ROYN 0700Z 05016KT 9999 FEW018 BKN025 BKN060 20/16 Q1012 RMK 2CU018 5CU025 7SC060 A2988;EQDQ01+000000PRSWM2
0234479110999992000011400004+24470+122980FM-15+0017ROYN V0200501N009310054019N0112651N1+02001+01801999999ADDGA1021+003609999GA2071+005409999GA3071+015009999GF107991999999999999999999MA1101491999999MW1611REMMET092ROYN 0000Z 05018KT 9999 -RA FEW012 BKN018 BKN050 20/18 Q1015 RMK 2CU012 5CU018 7SC050 A2998;EQDQ01+000003PRSWM1Q02    003PRSWM1
0235479110999992000011400214+24470+122980FM-16+0017ROYN V0200501N009810048019N0080001N1+02001+01801999999ADDGA1021+003309999GA2071+004809999GA3071+015009999GF107991999999999999999999MA1101491999999MW1631REMMET093ROYN 140021Z 05019KT 8000 RA SCT011 BKN016 BKN050 20/18 Q1015 RMK 3CU011 5CU016 7SC050 A2999;EQDQ01+000003PRSWM1Q02    003PRSWM1
0241479110999992000011400424+24470+122980FM-16+0017ROYN V0200501N010310048019N0070001N1+02001+01801999999ADDGA1021+003309999GA2071+004809999GA3071+015009999GF107991999999999999999999MA1101491999999MW1611REMMET099ROYN 140042Z 05020KT 7000 -RA SCT011 BKN016 BKN050 20/18 Q1015 RERA RMK 3CU011 5CU016 7SC050 A3000;EQDQ01+000003PRSWM1Q02    003PRSWM1
0239479110999992000011401004+24470+122980FM-15+0017ROYN V0200501N009810048019N0070001N1+02001+01801999999ADDGA1021+003309999GA2071+004809999GA3071+015009999GF107991999999999999999999MA1101591999999MW1611REMMET097ROYN 0100Z 05019KT 7000 -RA FEW011 BKN016 BKN050 20/18 Q1016 RERA RMK 2CU011 5CU016 7SC050 A3000;EQDQ01+000003PRSWM1Q02    003PRSWM1
0234479110999992000011402004+24470+122980FM-15+0017ROYN V0200601N010810054019N0112651N1+02001+01801999999ADDGA1021+004209999GA2071+005409999GA3071+018009999GF107991999999999999999999MA1101591999999MW1611REMMET092ROYN 0200Z 06021KT 9999 -RA SCT014 BKN018 BKN060 20/18 Q1016 RMK 3CU014 5CU018 7SC060 A3000;EQDQ01+000003PRSWM1Q02    003PRSWM1
0234479110999992000011403004+24470+122980FM-15+0017ROYN V0200501N009810048019N0112651N1+02001+01701999999ADDGA1021+003609999GA2071+004809999GA3071+015009999GF107991999999999999999999MA1101491999999MW1611REMMET092ROYN 0300Z 05019KT 9999 -RA FEW012 BKN016 BKN050 20/17 Q1015 RMK 2CU012 5CU016 7SC050 A2998;EQDQ01+000003PRSWM1Q02    003PRSWM1
0234479110999992000011404004+24470+122980FM-15+0017ROYN V0200501N010310045019N0070001N1+02001+01801999999ADDGA1021+003309999GA2071+004509999GA3071+015009999GF107991999999999999999999MA1101391999999MW1611REMMET092ROYN 0400Z 05020KT 7000 -RA SCT011 BKN015 BKN050 20/18 Q1014 RMK 3CU011 5CU015 7SC050 A2996;EQDQ01+000003PRSWM1Q02    003PRSWM1
0234479110999992000011405004+24470+122980FM-15+0017ROYN V0200601N010810048019N0080001N1+02001+01701999999ADDGA1021+002709999GA2071+004809999GA3081+015009999GF108991999999999999999999MA1101291999999MW1611REMMET092ROYN 0500Z 06021KT 8000 -RA FEW009 BKN016 OVC050 20/17 Q1013 RMK 2CU009 6CU016 8SC050 A2993;EQDQ01+000003PRSWM1Q02    003PRSWM1
0234479110999992000011406004+24470+122980FM-15+0017ROYN V0200601N009810045019N0112651N1+02001+01701999999ADDGA1021+003009999GA2071+004509999GA3071+015009999GF107991999999999999999999MA1101191999999MW1611REMMET092ROYN 0600Z 06019KT 9999 -RA FEW010 BKN015 BKN050 20/17 Q1012 RMK 2CU010 5CU015 7SC050 A2991;EQDQ01+000003PRSWM1Q02    003PRSWM1
0214479110999992000011407004+24470+122980FM-15+0017ROYN V0200601N009810045019N0112651N1+02001+01801999999ADDGA1021+003009999GA2071+004509999GA3071+015009999GF107991999999999999999999MA1101191999999MW1001REMMET088ROYN 0700Z 06019KT 9999 FEW010 BKN015 BKN050 20/18 Q1012 RMK 2CU010 5CU015 7SC050 A2991;EQDQ01+000000PRSWM2
0234479110999992000011500004+24470+122980FM-15+0017ROYN V0200901N005110048019N0112651N1+02001+01801999999ADDGA1021+002709999GA2071+004809999GA3071+015009999GF107991999999999999999999MA1101291999999MW1611REMMET092ROYN 0000Z 09010KT 9999 -RA FEW009 BKN016 BKN050 20/18 Q1013 RMK 2CU009 5CU016 7SC050 A2993;EQDQ01+000003PRSWM1Q02    003PRSWM1
0204479110999992000011501004+24470+122980FM-15+0017ROYN V0200901N005710150019N0112651N1+02101+01901999999ADDGA1021+004509999GA2071+015009999GF107991999999999999999999MA1101291999999MW1611REMMET078ROYN 0100Z 09011KT 9999 -RA SCT015 BKN050 21/19 Q1013 RMK 3CU015 7SC050 A2994;EQDQ01+000003PRSWM1Q02    003PRSWM1
0184479110999992000011502004+24470+122980FM-15+0017ROYN V0200901N005110135019N0112651N1+02201+01901999999ADDGA1021+004509999GA2071+013509999GF107991999999999999999999MA1101291999999MW1001REMMET074ROYN 0200Z 09010KT 9999 SCT015 BKN045 22/19 Q1013 RMK 4CU015 7SC045 A2993;EQDQ01+000000PRSWM2
0238479110999992000011502224+24470+122980FM-16+0017ROYN V0200901N005110045019N0040001N1+02201+01901999999ADDGA1021+002709999GA2071+004509999GA3071+013509999GF107991999999999999999999MA1101291999999MW1821REMMET096ROYN 150222Z 09010KT 4000 +SHRA SCT009 BKN015 BKN045 22/19 Q1013 RMK 4CU009 5CU015 7SC045 A2992;EQDQ01+000003PRSWM1Q02    003PRSWM1
0251479110999992000011502304+24470+122980FM-15+0017ROYN V0201001N005110048019N0112651N1+02201+02001999999ADDGA1021+003009999GA2071+004809999GA3071+013509999GF107991999999999999999999MA1101291999999MW1801REMMET109ROYN 150230Z 10010KT 070V130 9999 -SHRA SCT010 BKN016 BKN045 22/20 Q1013 RERA RMK 3CU010 5CU016 7SC045 A2992;EQDQ01+000003PRSWM1Q02    003PRSWM1
0240479110999992000011503004+24470+122980FM-15+0017ROYN V0201001N006710045019N0070001N1+02201+02001999999ADDGA1021+003009999GA2071+004509999GA3071+013509999GF107991999999999999999999MA1101191999999MW1811REMMET098ROYN 0300Z 10013KT 7000 SHRA SCT010 BKN015 BKN045 22/20 Q1012 RERA RMK 4CU010 5CU015 7SC045 A2989;EQDQ01+000003PRSWM1Q02    003PRSWM1
0227479110999992000011503134+24470+122980FM-16+0017ROYN V0201001N006210045019N0015001N1+02201+02001999999ADDGA1021+002709999GA2071+004509029GF107991999999999999999999MA1101081999999MW1821REMMET101ROYN 150313Z 10012KT 1500 +SHRA SCT009 BKN015TCU 22/20 Q1011 RMK 4CU009 7TCU015 A2988 TCU OHD MOV NE;EQDQ01+000003PRSWM1Q02    003PRSWM1
0243479110999992000011503294+24470+122980FM-16+0017ROYN V0201201N003110042019N0070001N1+02201+02001999999ADDGA1021+003009999GA2071+004209999GA3071+015009999GF107991999999999999999999MA1101081999999MW1801REMMET101ROYN 150329Z 12006KT 7000 -SHRA FEW010 BKN014 BKN050 22/20 Q1011 RERA RMK 2CU010 5CU014 7SC050 A2987;EQDQ01+000003PRSWM1Q02    003PRSWM1
0227479110999992000011504004+24470+122980FM-15+0017ROYN V0201201N006210048019N0112651N1+02301+02001999999ADDGA1021+003009999GA2071+004809999GA3071+015009999GF107991999999999999999999MA1101021999999MW1001REMMET101ROYN 0400Z 12012KT 080V160 9999 FEW010 BKN016 BKN050 23/20 Q1010 RERA RMK 2CU010 5CU016 7SC050 A2985;EQDQ01+000000PRSWM2
0192479110999992000011505004+24470+122980FM-15+0017ROYN V0201301N004610045019N0112651N1+02301+02001999999ADDGA1021+003309999GA2071+004509999GF107991999999999999999999MA1101021999999MW1001REMMET082ROYN 0500Z 13009KT 090V160 9999 SCT011 BKN015 23/20 Q1010 RMK 3CU011 7CU015 A2983;EQDQ01+000000PRSWM2
0181479110999992000011506004+24470+122980FM-15+0017ROYN V0200601N005110045019N0050001N1+02201+02001999999ADDGA1021+002409999GA2071+004509999GF107991999999999999999999MA1100911999999MW1811REMMET055ROYN 0600Z 06010KT 5000 SHRA SCT008 BKN015 22/20 Q1009;EQDQ01+000003PRSWM1Q02    003PRSWM1
0211479110999992000011507004+24470+122980FM-15+0017ROYN V02099999999990045019N0112651N1+02201+02101999999ADDGA1021+003009999GA2071+004509999GF107991999999999999999999MA1100911999999MW1801REMMET085ROYN 0700Z VRB02KT 9999 -SHRA SCT010 BKN015 22/21 Q1009 RERA RMK 3CU010 6CU015 A2981;EQDQ01+000003PRSWM1Q02    003PRSWM1
0184479110999992000011600004+24470+122980FM-15+0017ROYN V0200201N006710072019N0112651N1+02301+01801999999ADDGA1021+005409999GA2071+007209999GF107991999999999999999999MA1101391999999MW1001REMMET074ROYN 0000Z 02013KT 9999 FEW018 BKN024 23/18 Q1014 RMK 1CU018 5CU024 A2996;EQDQ01+000000PRSWM2
0154479110999992000011601004+24470+122980FM-15+0017ROYN V0200201N006712200019N0112651N1+02301+01701999999ADDGA1021+007209999GF104991999999999999999999MA1101491999999MW1001REMMET060ROYN 0100Z 02013KT 9999 SCT024 23/17 Q1015 RMK 3CU024 A2998;EQDQ01+000000PRSWM2
0184479110999992000011602004+24470+122980FM-15+0017ROYN V0200201N006212200019N0112651N1+02301+01701999999ADDGA1021+006009999GA2021+007509999GF104991999999999999999999MA1101491999999MW1001REMMET074ROYN 0200Z 02012KT 9999 FEW020 SCT025 23/17 Q1015 RMK 1CU020 3CU025 A2999;EQDQ01+000000PRSWM2
0154479110999992000011603004+24470+122980FM-15+0017ROYN V0203601N006712200019N0112651N1+02401+01701999999ADDGA1021+006909999GF104991999999999999999999MA1101491999999MW1001REMMET060ROYN 0300Z 36013KT 9999 SCT023 24/17 Q1015 RMK 3CU023 A2997;EQDQ01+000000PRSWM2
0154479110999992000011604004+24470+122980FM-15+0017ROYN V0203501N007212200019N0112651N1+02401+01701999999ADDGA1021+006909999GF104991999999999999999999MA1101391999999MW1001REMMET060ROYN 0400Z 35014KT 9999 SCT023 24/17 Q1014 RMK 3CU023 A2995;EQDQ01+000000PRSWM2
0154479110999992000011605004+24470+122980FM-15+0017ROYN V0203601N007212200019N0112651N1+02301+01701999999ADDGA1021+007509999GF104991999999999999999999MA1101291999999MW1001REMMET060ROYN 0500Z 36014KT 9999 SCT025 23/17 Q1013 RMK 4CU025 A2992;EQDQ01+000000PRSWM2
0154479110999992000011606004+24470+122980FM-15+0017ROYN V0200101N007712200019N0112651N1+02401+01701999999ADDGA1021+007509999GF104991999999999999999999MA1101191999999MW1001REMMET060ROYN 0600Z 01015KT 9999 SCT025 24/17 Q1012 RMK 4CU025 A2990;EQDQ01+000000PRSWM2
0176479110999992000011607004+24470+122980FM-15+0017ROYN V0200101N008210066019N0112651N1+02301+01701999999ADDGA1071+006609999GF107991999999999999999999MA1101191999999MW1801REMMET066ROYN 0700Z 01016KT 9999 -SHRA BKN022 23/17 Q1012 RMK 5CU022 A2990;EQDQ01+000003PRSWM1Q02    003PRSWM1
0184479110999992000011700004+24470+122980FM-15+0017ROYN V0200401N009310135019N0112651N1+02001+01401999999ADDGA1021+006009999GA2071+013509999GF107991999999999999999999MA1101591999999MW1001REMMET074ROYN 0000Z 04018KT 9999 SCT020 BKN045 20/14 Q1016 RMK 3CU020 6SC045 A3003;EQDQ01+000000PRSWM2
0184479110999992000011701004+24470+122980FM-15+0017ROYN V0200401N008710135019N0112651N1+02001+01401999999ADDGA1021+006009999GA2071+013509999GF107991999999999999999999MA1101691999999MW1001REMMET074ROYN 0100Z 04017KT 9999 SCT020 BKN045 20/14 Q1017 RMK 3CU020 7SC045 A3005;EQDQ01+000000PRSWM2
0184479110999992000011702004+24470+122980FM-15+0017ROYN V0200401N009810090019N0112651N1+02001+01401999999ADDGA1021+006009999GA2071+009009999GF107991999999999999999999MA1101691999999MW1001REMMET074ROYN 0200Z 04019KT 9999 SCT020 BKN030 20/14 Q1017 RMK 3CU020 7CU030 A3006;EQDQ01+000000PRSWM2
0184479110999992000011703004+24470+122980FM-15+0017ROYN V0200401N009810105019N0112651N1+01901+01501999999ADDGA1021+006009999GA2071+010509999GF107991999999999999999999MA1101691999999MW1001REMMET074ROYN 0300Z 04019KT 9999 SCT020 BKN035 19/15 Q1017 RMK 4CU020 7CU035 A3004;EQDQ01+000000PRSWM2
0236479110999992000011704004+24470+122980FM-15+0017ROYN V0200301N009810060019N0112651N1+01801+01501999999ADDGA1021+003009999GA2071+006009999GA3071+012009999GF107991999999999999999999MA1101591999999MW1801REMMET094ROYN 0400Z 03019KT 9999 -SHRA FEW010 BKN020 BKN040 18/15 Q1016 RMK 2CU010 5CU020 7SC040 A3002;EQDQ01+000003PRSWM1Q02    003PRSWM1
0236479110999992000011705004+24470+122980FM-15+0017ROYN V0200201N010810075019N0112651N1+01801+01401999999ADDGA1021+003609999GA2071+007509999GA3071+015009999GF107991999999999999999999MA1101591999999MW1801REMMET094ROYN 0500Z 02021KT 9999 -SHRA FEW012 BKN025 BKN050 18/14 Q1016 RMK 2CU012 5CU025 7SC050 A3000;EQDQ01+000003PRSWM1Q02    003PRSWM1
0214479110999992000011706004+24470+122980FM-15+0017ROYN V0200201N009810075019N0112651N1+01801+01401999999ADDGA1021+004509999GA2071+007509999GA3071+015009999GF107991999999999999999999MA1101491999999MW1001REMMET088ROYN 0600Z 02019KT 9999 FEW015 BKN025 BKN050 18/14 Q1015 RMK 2CU015 5CU025 7SC050 A2999;EQDQ01+000000PRSWM2
0214479110999992000011707004+24470+122980FM-15+0017ROYN V0200201N009810090019N0112651N1+01901+01401999999ADDGA1021+006009999GA2071+009009999GA3071+015009999GF107991999999999999999999MA1101491999999MW1001REMMET088ROYN 0700Z 02019KT 9999 FEW020 BKN030 BKN050 19/14 Q1015 RMK 2CU020 5CU030 7SC050 A2999;EQDQ01+000000PRSWM2
0184479110999992000011800004+24470+122980FM-15+0017ROYN V0200201N009310150019N0112651N1+01601+01201999999ADDGA1021+005109999GA2071+015009999GF107991999999999999999999MA1101901999999MW1001REMMET074ROYN 0000Z 02018KT 9999 SCT017 BKN050 16/12 Q1019 RMK 3CU017 7SC050 A3009;EQDQ01+000000PRSWM2
0234479110999992000011801004+24470+122980FM-15+0017ROYN V0200201N008710054019N0112651N1+01601+01301999999ADDGA1021+002709999GA2071+005409999GA3071+015009999GF107991999999999999999999MA1101901999999MW1611REMMET092ROYN 0100Z 02017KT 9999 -RA FEW009 BKN018 BKN050 16/13 Q1019 RMK 2CU009 6CU018 7SC050 A3011;EQDQ01+000003PRSWM1Q02    003PRSWM1
0209479110999992000011802004+24470+122980FM-15+0017ROYN V0200301N009810051019N0070001N1+01501+01201999999ADDGA1021+002709999GA2071+005109999GF107991999999999999999999MA1101901999999MW1611REMMET083ROYN 0200Z 03019KT 7000 -RA SCT009 BKN017 15/12 Q1019 RERA RMK 3CU009 7CU017 A3012;EQDQ01+000003PRSWM1Q02    003PRSWM1
0234479110999992000011803004+24470+122980FM-15+0017ROYN V0200201N010310051019N0112651N1+01601+01201999999ADDGA1021+003009999GA2071+005109999GA3071+013509999GF107991999999999999999999MA1101901999999MW1611REMMET092ROYN 0300Z 02020KT 9999 -RA FEW010 BKN017 BKN045 16/12 Q1019 RMK 2CU010 5CU017 7SC045 A3011;EQDQ01+000003PRSWM1Q02    003PRSWM1
0234479110999992000011804004+24470+122980FM-15+0017ROYN V0200301N009310048019N0112651N1+01601+01301999999ADDGA1021+003009999GA2071+004809999GA3071+013509999GF107991999999999999999999MA1101801999999MW1611REMMET092ROYN 0400Z 03018KT 9999 -RA FEW010 BKN016 BKN045 16/13 Q1018 RMK 2CU010 5CU016 7SC045 A3008;EQDQ01+000003PRSWM1Q02    003PRSWM1
0234479110999992000011805004+24470+122980FM-15+0017ROYN V0200201N009810060019N0112651N1+01601+01301999999ADDGA1021+004509999GA2071+006009999GA3071+012009999GF107991999999999999999999MA1101691999999MW1611REMMET092ROYN 0500Z 02019KT 9999 -RA FEW015 BKN020 BKN040 16/13 Q1017 RMK 1CU015 5CU020 7SC040 A3005;EQDQ01+000003PRSWM1Q02    003PRSWM1
0234479110999992000011806004+24470+122980FM-15+0017ROYN V0200301N009810045019N0112651N1+01501+01301999999ADDGA1021+002709999GA2071+004509999GA3081+012009999GF108991999999999999999999MA1101691999999MW1611REMMET092ROYN 0600Z 03019KT 9999 -RA FEW009 BKN015 OVC040 15/13 Q1017 RMK 2CU009 5CU015 8SC040 A3003;EQDQ01+000003PRSWM1Q02    003PRSWM1
0204479110999992000011807004+24470+122980FM-15+0017ROYN V0200101N010310060019N0112651N1+01601+01101999999ADDGA1071+006009999GA2081+012009999GF108991999999999999999999MA1101591999999MW1611REMMET078ROYN 0700Z 01020KT 9999 -RA BKN020 OVC040 16/11 Q1016 RMK 5CU020 8SC040 A3003;EQDQ01+000003PRSWM1Q02    003PRSWM1
0234479110999992000011900004+24470+122980FM-15+0017ROYN V0200101N009310180019N0112651N1+01601+00901999999ADDGA1021+003009999GA2021+009009999GA3071+018009999GF107991999999999999999999MA1102101999999MW1611REMMET092ROYN 0000Z 01018KT 9999 -RA FEW010 SCT030 BKN060 16/09 Q1021 RMK 1CU010 4CU030 7SC060 A3017;EQDQ01+000003PRSWM1Q02    003PRSWM1
0184479110999992000011901004+24470+122980FM-15+0017ROYN V0200201N009310180019N0112651N1+01501+01001999999ADDGA1021+009009999GA2081+018009999GF108991999999999999999999MA1102201999999MW1001REMMET074ROYN 0100Z 02018KT 9999 SCT030 OVC060 15/10 Q1022 RMK 4CU030 8SC060 A3019;EQDQ01+000000PRSWM2
0234479110999992000011902004+24470+122980FM-15+0017ROYN V0200301N009810180019N0090001N1+01501+01001999999ADDGA1021+003009999GA2021+008409999GA3081+018009999GF108991999999999999999999MA1102201999999MW1611REMMET092ROYN 0200Z 03019KT 9000 -RA FEW010 SCT028 OVC060 15/10 Q1022 RMK 2CU010 4SC028 8SC060 A3020;EQDQ01+000003PRSWM1Q02    003PRSWM1
0234479110999992000011903004+24470+122980FM-15+0017ROYN V0200201N009810180019N0090001N1+01501+01001999999ADDGA1021+003009999GA2021+008409999GA3081+018009999GF108991999999999999999999MA1102201999999MW1611REMMET092ROYN 0300Z 02019KT 9000 -RA FEW010 SCT028 OVC060 15/10 Q1022 RMK 2CU010 4SC028 8SC060 A3018;EQDQ01+000003PRSWM1Q02    003PRSWM1
0192479110999992000011904004+24470+122980FM-15+0017ROYN V0200201N008210180019N0112651N1+01501+00901999999ADDGA1021+009009999GA2071+018009999GF107991999999999999999999MA1102101999999MW1001REMMET082ROYN 0400Z 02016KT 360V060 9999 SCT030 BKN060 15/09 Q1021 RMK 4CU030 7SC060 A3015;EQDQ01+000000PRSWM2
0184479110999992000011905004+24470+122980FM-15+0017ROYN V0200201N010310150019N0112651N1+01501+00901999999ADDGA1021+007509999GA2071+015009999GF107991999999999999999999MA1102001999999MW1001REMMET074ROYN 0500Z 02020KT 9999 SCT025 BKN050 15/09 Q1020 RMK 3CU025 7SC050 A3015;EQDQ01+000000PRSWM2
0184479110999992000011906004+24470+122980FM-15+0017ROYN V0200101N010310150019N0112651N1+01501+00901999999ADDGA1021+007509999GA2071+015009999GF107991999999999999999999MA1102001999999MW1001REMMET074ROYN 0600Z 01020KT 9999 SCT025 BKN050 15/09 Q1020 RMK 4CU025 7SC050 A3014;EQDQ01+000000PRSWM2
0184479110999992000011907004+24470+122980FM-15+0017ROYN V0200201N009810150019N0112651N1+01501+00901999999ADDGA1021+007809999GA2071+015009999GF107991999999999999999999MA1102001999999MW1001REMMET074ROYN 0700Z 02019KT 9999 SCT026 BKN050 15/09 Q1020 RMK 3CU026 7SC050 A3014;EQDQ01+000000PRSWM2
0184479110999992000012000004+24470+122980FM-15+0017ROYN V0200401N009810096019N0112651N1+01501+00801999999ADDGA1071+009609999GA2071+018009999GF107991999999999999999999MA1102711999999MW1001REMMET074ROYN 0000Z 04019KT 9999 BKN032 BKN060 15/08 Q1027 RMK 5CU032 7SC060 A3034;EQDQ01+000000PRSWM2
0184479110999992000012001004+24470+122980FM-15+0017ROYN V0200401N009810090019N0112651N1+01501+00801999999ADDGA1071+009009999GA2081+018009999GF108991999999999999999999MA1102711999999MW1001REMMET074ROYN 0100Z 04019KT 9999 BKN030 OVC060 15/08 Q1027 RMK 5CU030 8SC060 A3035;EQDQ01+000000PRSWM2
0184479110999992000012002004+24470+122980FM-15+0017ROYN V0200501N010310096019N0112651N1+01501+00801999999ADDGA1071+009609999GA2081+018009999GF108991999999999999999999MA1102711999999MW1001REMMET074ROYN 0200Z 05020KT 9999 BKN032 OVC060 15/08 Q1027 RMK 5CU032 8SC060 A3035;EQDQ01+000000PRSWM2
0184479110999992000012003004+24470+122980FM-15+0017ROYN V0200501N009310105019N0112651N1+01601+00801999999ADDGA1071+010509999GA2071+015009999GF107991999999999999999999MA1102611999999MW1001REMMET074ROYN 0300Z 05018KT 9999 BKN035 BKN050 16/08 Q1026 RMK 5CU035 7SC050 A3032;EQDQ01+000000PRSWM2
0160479110999992000012004004+24470+122980FM-15+0017ROYN V0200401N009310135019N0112651N1+01501+00901999999ADDGA1021+010509999GA2071+013509999GF107991999999999999999999MA1102611999999MW1001REMMET050ROYN 0400Z 04018KT 9999 SCT035 BKN045 15/09 Q1026;EQDQ01+000000PRSWM2
0184479110999992000012005004+24470+122980FM-15+0017ROYN V0200501N008710150019N0112651N1+01601+00801999999ADDGA1021+010509999GA2071+015009999GF107991999999999999999999MA1102511999999MW1001REMMET074ROYN 0500Z 05017KT 9999 SCT035 BKN050 16/08 Q1025 RMK 3CU035 7SC050 A3029;EQDQ01+000000PRSWM2
0184479110999992000012006004+24470+122980FM-15+0017ROYN V0200401N009310150019N0112651N1+01601+00901999999ADDGA1021+010509999GA2071+015009999GF107991999999999999999999MA1102511999999MW1001REMMET074ROYN 0600Z 04018KT 9999 SCT035 BKN050 16/09 Q1025 RMK 4CU035 7SC050 A3028;EQDQ01+000000PRSWM2
0184479110999992000012007004+24470+122980FM-15+0017ROYN V0200401N009810135019N0112651N1+01601+00901999999ADDGA1021+010809999GA2071+013509999GF107991999999999999999999MA1102511999999MW1001REMMET074ROYN 0700Z 04019KT 9999 SCT036 BKN045 16/09 Q1025 RMK 3CU036 7SC045 A3028;EQDQ01+000000PRSWM2
0184479110999992000012100004+24470+122980FM-15+0017ROYN V0200701N009310135019N0112651N1+01801+00901999999ADDGA1021+010809999GA2071+013509999GF107991999999999999999999MA1102911999999MW1001REMMET074ROYN 0000Z 07018KT 9999 SCT036 BKN045 18/09 Q1029 RMK 3CU036 7SC045 A3040;EQDQ01+000000PRSWM2
0184479110999992000012101004+24470+122980FM-15+0017ROYN V0200701N008712200019N0112651N1+01901+00901999999ADDGA1021+010809999GA2021+013509999GF104991999999999999999999MA1102911999999MW1001REMMET074ROYN 0100Z 07017KT 9999 FEW036 SCT045 19/09 Q1029 RMK 1CU036 4SC045 A3040;EQDQ01+000000PRSWM2
0154479110999992000012102004+24470+122980FM-15+0017ROYN V0200701N008712200019N0112651N1+02001+01001999999ADDGA1021+011409999GF104991999999999999999999MA1102911999999MW1001REMMET060ROYN 0200Z 07017KT 9999 SCT038 20/10 Q1029 RMK 3CU038 A3041;EQDQ01+000000PRSWM2
0154479110999992000012103004+24470+122980FM-15+0017ROYN V0200801N008210108019N0112651N1+01901+01001999999ADDGA1071+010809999GF107991999999999999999999MA1102911999999MW1001REMMET060ROYN 0300Z 08016KT 9999 BKN036 19/10 Q1029 RMK 5CU036 A3039;EQDQ01+000000PRSWM2
0184479110999992000012104004+24470+122980FM-15+0017ROYN V0200701N008712200019N0112651N1+02001+01001999999ADDGA1021+010209999GA2021+015009999GF104991999999999999999999MA1102811999999MW1001REMMET074ROYN 0400Z 07017KT 9999 SCT034 SCT050 20/10 Q1028 RMK 3CU034 4SC050 A3037;EQDQ01+000000PRSWM2
0184479110999992000012105004+24470+122980FM-15+0017ROYN V0200801N007712200019N0112651N1+01901+01001999999ADDGA1021+009909999GA2021+013509999GF104991999999999999999999MA1102711999999MW1001REMMET074ROYN 0500Z 08015KT 9999 SCT033 SCT045 19/10 Q1027 RMK 3CU033 4SC045 A3034;EQDQ01+000000PRSWM2
0184479110999992000012106004+24470+122980FM-15+0017ROYN V0200701N008210150019N0112651N1+01901+01101999999ADDGA1021+010509999GA2071+015009999GF107991999999999999999999MA1102711999999MW1001REMMET074ROYN 0600Z 07016KT 9999 SCT035 BKN050 19/11 Q1027 RMK 4CU035 7SC050 A3033;EQDQ01+000000PRSWM2
0214479110999992000012107004+24470+122980FM-15+0017ROYN V0200901N006210150019N0112651N1+01701+01201999999ADDGA1021+009909999GA2071+015009999GF107991999999999999999999MA1102611999999MW1801REMMET088ROYN 0700Z 09012KT 060V120 9999 -SHRA SCT033 BKN050 17/12 Q1026 RMK 4CU033 7SC050 A3032;EQDQ01+000003PRSWM1Q02    003PRSWM1
0154479110999992000012200004+24470+122980FM-15+0017ROYN V0201001N006212200019N0112651N1+02001+01201999999ADDGA1021+009909999GF102991999999999999999999MA1102511999999MW1001REMMET060ROYN 0000Z 10012KT 9999 FEW033 20/12 Q1025 RMK 2CU033 A3028;EQDQ01+000000PRSWM2
0184479110999992000012201004+24470+122980FM-15+0017ROYN V0201101N005712200019N0112651N1+02101+01201999999ADDGA1021+010509999GA2021+013509999GF104991999999999999999999MA1102511999999MW1001REMMET074ROYN 0100Z 11011KT 9999 FEW035 SCT045 21/12 Q1025 RMK 1CU035 3SC045 A3028;EQDQ01+000000PRSWM2
0192479110999992000012202004+24470+122980FM-15+0017ROYN V0201201N006212200019N0112651N1+02201+01201999999ADDGA1021+010509999GA2021+013509999GF104991999999999999999999MA1102511999999MW1001REMMET082ROYN 0200Z 12012KT 080V160 9999 FEW035 SCT045 22/12 Q1025 RMK 1CU035 3SC045 A3027;EQDQ01+000000PRSWM2
0192479110999992000012203004+24470+122980FM-15+0017ROYN V0201201N005710150019N0112651N1+02201+01101999999ADDGA1021+009009999GA2071+015009999GF107991999999999999999999MA1102401999999MW1001REMMET082ROYN 0300Z 12011KT 080V150 9999 FEW030 BKN050 22/11 Q1024 RMK 1CU030 6SC050 A3026;EQDQ01+000000PRSWM2
0162479110999992000012204004+24470+122980FM-15+0017ROYN V0201201N005712200019N0112651N1+02301+01201999999ADDGA1021+009009999GF102991999999999999999999MA1102301999999MW1001REMMET068ROYN 0400Z 12011KT 080V170 9999 FEW030 23/12 Q1023 RMK 2CU030 A3022;EQDQ01+000000PRSWM2
0162479110999992000012205004+24470+122980FM-15+0017ROYN V0201201N005112200019N0112651N1+02301+01401999999ADDGA1021+009009999GF104991999999999999999999MA1102201999999MW1001REMMET068ROYN 0500Z 12010KT 080V160 9999 SCT030 23/14 Q1022 RMK 3CU030 A3018;EQDQ01+000000PRSWM2
0162479110999992000012206004+24470+122980FM-15+0017ROYN V0201301N006212200019N0112651N1+02301+01401999999ADDGA1021+009009999GF104991999999999999999999MA1102101999999MW1001REMMET068ROYN 0600Z 13012KT 100V170 9999 SCT030 23/14 Q1021 RMK 3CU030 A3017;EQDQ01+000000PRSWM2
0162479110999992000012207004+24470+122980FM-15+0017ROYN V0201301N005712200019N0112651N1+02301+01401999999ADDGA1021+009009999GF104991999999999999999999MA1102101999999MW1001REMMET068ROYN 0700Z 13011KT 090V170 9999 SCT030 23/14 Q1021 RMK 3CU030 A3016;EQDQ01+000000PRSWM2
0192479110999992000012300004+24470+122980FM-15+0017ROYN V0201301N004610240019N0112651N1+02201+01501999999ADDGA1021+009009999GA2071+024009999GF107991999999999999999999MA1102101999999MW1001REMMET082ROYN 0000Z 13009KT 100V170 9999 FEW030 BKN080 22/15 Q1021 RMK 2CU030 6AC080 A3018;EQDQ01+000000PRSWM2
0118479110999992000012301004+24470+122980FM-15+0017ROYN V0201301N005112200019N0000001N1+99999+99999999999ADDMW1001REMMET081ROYN 0100Z 13010KT 00V210 9999 FEW030 BKN080 23/15 Q1022 RMK 2CU030 7AC080 A3018;EQDQ01+000000PRSWM2
0192479110999992000012302004+24470+122980FM-15+0017ROYN V0201401N004110210019N0112651N1+02401+01501999999ADDGA1021+009009999GA2071+021009999GF107991999999999999999999MA1102101999999MW1001REMMET082ROYN 0200Z 14008KT 090V190 9999 FEW030 BKN070 24/15 Q1021 RMK 2CU030 7AC070 A3017;EQDQ01+000000PRSWM2
0192479110999992000012303004+24470+122980FM-15+0017ROYN V0201601N004110210019N0112651N1+02401+01501999999ADDGA1021+009009999GA2071+021009999GF107991999999999999999999MA1102101999999MW1001REMMET082ROYN 0300Z 16008KT 100V220 9999 FEW030 BKN070 24/15 Q1021 RMK 2CU030 6AC070 A3015;EQDQ01+000000PRSWM2
0192479110999992000012304004+24470+122980FM-15+0017ROYN V0201601N006210180019N0112651N1+02501+01601999999ADDGA1021+009009999GA2071+018009999GF107991999999999999999999MA1102001999999MW1001REMMET082ROYN 0400Z 16012KT 110V200 9999 FEW030 BKN060 25/16 Q1020 RMK 2CU030 5SC060 A3015;EQDQ01+000000PRSWM2
0162479110999992000012305004+24470+122980FM-15+0017ROYN V0201601N004612200019N0112651N1+02501+01601999999ADDGA1021+008409999GF102991999999999999999999MA1101801999999MW1001REMMET068ROYN 0500Z 16009KT 050V210 9999 FEW028 25/16 Q1018 RMK 2CU028 A3009;EQDQ01+000000PRSWM2
0192479110999992000012306004+24470+122980FM-15+0017ROYN V0201601N005110240019N0112651N1+02401+01601999999ADDGA1021+009009999GA2071+024009999GF107991999999999999999999MA1101801999999MW1001REMMET082ROYN 0600Z 16010KT 110V210 9999 FEW030 BKN080 24/16 Q1018 RMK 1CU030 5AC080 A3008;EQDQ01+000000PRSWM2
0192479110999992000012307004+24470+122980FM-15+0017ROYN V0201501N004612200019N0112651N1+02301+01601999999ADDGA1021+009009999GA2021+015009999GF104991999999999999999999MA1101801999999MW1001REMMET082ROYN 0700Z 15009KT 100V200 9999 FEW030 SCT050 23/16 Q1018 RMK 1CU030 4SC050 A3008;EQDQ01+000000PRSWM2
0162479110999992000012400004+24470+122980FM-15+0017ROYN V0201401N002112200019N0112651N1+02201+01701999999ADDGA1021+006909999GF102991999999999999999999MA1102001999999MW1001REMMET068ROYN 0000Z 14004KT 090V180 9999 FEW023 22/17 Q1020 RMK 1CU023 A3013;EQDQ01+000000PRSWM2
0162479110999992000012401004+24470+122980FM-15+0017ROYN V0201501N003112200019N0112651N1+02301+01701999999ADDGA1021+007509999GF102991999999999999999999MA1102101999999MW1001REMMET068ROYN 0100Z 15006KT 110V200 9999 FEW025 23/17 Q1021 RMK 1CU025 A3015;EQDQ01+000000PRSWM2
0192479110999992000012402004+24470+122980FM-15+0017ROYN V0201501N003610300019N0112651N1+02501+01701999999ADDGA1021+007509999GA2071+030009999GF107991999999999999999999MA1102101999999MW1001REMMET082ROYN 0200Z 15007KT 110V200 9999 FEW025 BKN100 25/17 Q1021 RMK 1CU025 7AC100 A3016;EQDQ01+000000PRSWM2
0192479110999992000012403004+24470+122980FM-15+0017ROYN V0201401N003612200019N0112651N1+02501+01701999999ADDGA1021+007509999GA2021+030009999GF104991999999999999999999MA1102001999999MW1001REMMET082ROYN 0300Z 14007KT 080V210 9999 FEW025 SCT100 25/17 Q1020 RMK 1CU025 3AC100 A3014;EQDQ01+000000PRSWM2
0162479110999992000012404004+24470+122980FM-15+0017ROYN V0201401N004112200019N0112651N1+02501+01701999999ADDGA1021+007509999GF102991999999999999999999MA1101901999999MW1001REMMET068ROYN 0400Z 14008KT 060V200 9999 FEW025 25/17 Q1019 RMK 1CU025 A3011;EQDQ01+000000PRSWM2
0192479110999992000012405004+24470+122980FM-15+0017ROYN V0201401N003612200019N0112651N1+02601+01801999999ADDGA1021+009009999GA2021+030009999GF104991999999999999999999MA1101801999999MW1001REMMET082ROYN 0500Z 14007KT 060V210 9999 FEW030 SCT100 26/18 Q1018 RMK 2CU030 4AC100 A3008;EQDQ01+000000PRSWM2
0192479110999992000012406004+24470+122980FM-15+0017ROYN V0201201N005110300019N0112651N1+02501+01801999999ADDGA1021+007509999GA2071+030009999GF107991999999999999999999MA1101801999999MW1001REMMET082ROYN 0600Z 12010KT 090V150 9999 FEW025 BKN100 25/18 Q1018 RMK 2CU025 6AC100 A3006;EQDQ01+000000PRSWM2
0192479110999992000012407004+24470+122980FM-15+0017ROYN V0201201N003610240019N0112651N1+02401+01801999999ADDGA1021+006009999GA2071+024009999GF107991999999999999999999MA1101801999999MW1001REMMET082ROYN 0700Z 12007KT 090V180 9999 FEW020 BKN080 24/18 Q1018 RMK 2CU020 7AC080 A3006;EQDQ01+000000PRSWM2
0236479110999992000012500004+24470+122980FM-15+0017ROYN V0200201N013410045019N0112651N1+01601+01401999999ADDGA1021+003009999GA2071+004509999GA3081+024009999GF108991999999999999999999MA1102401999999MW1801REMMET094ROYN 0000Z 02026KT 9999 -SHRA FEW010 BKN015 OVC080 16/14 Q1024 RMK 2CU010 6CU015 8AC080 A3027;EQDQ01+000003PRSWM1Q02    003PRSWM1
0236479110999992000012501004+24470+122980FM-15+0017ROYN V0200201N013910045019N0112651N1+01601+01301999999ADDGA1021+003009999GA2071+004509999GA3081+024009999GF108991999999999999999999MA1102511999999MW1801REMMET094ROYN 0100Z 02027KT 9999 -SHRA FEW010 BKN015 OVC080 16/13 Q1025 RMK 2CU010 6CU015 8AC080 A3029;EQDQ01+000003PRSWM1Q02    003PRSWM1
0236479110999992000012502004+24470+122980FM-15+0017ROYN V0200201N013910045019N0090001N1+01601+01401999999ADDGA1021+002709999GA2071+004509999GA3081+024009999GF108991999999999999999999MA1102611999999MW1801REMMET094ROYN 0200Z 02027KT 9000 -SHRA SCT009 BKN015 OVC080 16/14 Q1026 RMK 3CU009 6CU015 8AC080 A3030;EQDQ01+000003PRSWM1Q02    003PRSWM1
0236479110999992000012503004+24470+122980FM-15+0017ROYN V0200201N012910048019N0112651N1+01601+01301999999ADDGA1021+003009999GA2071+004809999GA3081+024009999GF108991999999999999999999MA1102511999999MW1801REMMET094ROYN 0300Z 02025KT 9999 -SHRA FEW010 BKN016 OVC080 16/13 Q1025 RMK 1CU010 6CU016 8AC080 A3029;EQDQ01+000003PRSWM1Q02    003PRSWM1
0236479110999992000012504004+24470+122980FM-15+0017ROYN V0200201N012910240019N0112651N1+01601+01401999999ADDGA1021+003009999GA2021+004509999GA3081+024009999GF108991999999999999999999MA1102511999999MW1801REMMET094ROYN 0400Z 02025KT 9999 -SHRA FEW010 FEW015 OVC080 16/14 Q1025 RMK 1CU010 1CU015 8AC080 A3028;EQDQ01+000003PRSWM1Q02    003PRSWM1
0234479110999992000012505004+24470+122980FM-15+0017ROYN V0200201N012910045019N0112651N1+01601+01401999999ADDGA1021+003009999GA2071+004509999GA3071+018009999GF107991999999999999999999MA1102401999999MW1611REMMET092ROYN 0500Z 02025KT 9999 -RA FEW010 BKN015 BKN060 16/14 Q1024 RMK 1CU010 5CU015 7SC060 A3025;EQDQ01+000003PRSWM1Q02    003PRSWM1
0234479110999992000012506004+24470+122980FM-15+0017ROYN V0200201N012910045019N0070001N1+01601+01301999999ADDGA1021+003009999GA2071+004509999GA3081+018009999GF108991999999999999999999MA1102401999999MW1611REMMET092ROYN 0600Z 02025KT 7000 -RA FEW010 BKN015 OVC060 16/13 Q1024 RMK 2CU010 6CU015 8SC060 A3024;EQDQ01+000003PRSWM1Q02    003PRSWM1
0234479110999992000012507004+24470+122980FM-15+0017ROYN V0200201N012910051019N0080001N1+01601+01301999999ADDGA1021+003009999GA2071+005109999GA3081+018009999GF108991999999999999999999MA1102401999999MW1611REMMET092ROYN 0700Z 02025KT 8000 -RA FEW010 BKN017 OVC060 16/13 Q1024 RMK 2CU010 6CU017 8SC060 A3025;EQDQ01+000003PRSWM1Q02    003PRSWM1
0214479110999992000012600004+24470+122980FM-15+0017ROYN V0200301N012310099019N0112651N1+01501+01101999999ADDGA1021+007509999GA2071+009909999GA3081+015009999GF108991999999999999999999MA1102711999999MW1001REMMET088ROYN 0000Z 03024KT 9999 FEW025 BKN033 OVC050 15/11 Q1027 RMK 2CU025 6CU033 8SC050 A3033;EQDQ01+000000PRSWM2
0214479110999992000012601004+24470+122980FM-15+0017ROYN V0200201N011810105019N0112651N1+01501+01001999999ADDGA1021+006909999GA2071+010509999GA3081+015009999GF108991999999999999999999MA1102711999999MW1001REMMET088ROYN 0100Z 02023KT 9999 FEW023 BKN035 OVC050 15/10 Q1027 RMK 2CU023 6CU035 8SC050 A3036;EQDQ01+000000PRSWM2
0214479110999992000012602004+24470+122980FM-15+0017ROYN V0200201N011310105019N0112651N1+01501+01001999999ADDGA1021+006609999GA2071+010509999GA3081+015009999GF108991999999999999999999MA1102711999999MW1001REMMET088ROYN 0200Z 02022KT 9999 FEW022 BKN035 OVC050 15/10 Q1027 RMK 2CU022 5CU035 8SC050 A3035;EQDQ01+000000PRSWM2
0234479110999992000012603004+24470+122980FM-15+0017ROYN V0200301N011310060019N0112651N1+01401+01101999999ADDGA1021+003609999GA2071+006009999GA3081+013509999GF108991999999999999999999MA1102711999999MW1611REMMET092ROYN 0300Z 03022KT 9999 -RA FEW012 BKN020 OVC045 14/11 Q1027 RMK 2CU012 5CU020 8SC045 A3033;EQDQ01+000003PRSWM1Q02    003PRSWM1
0203479110999992000012604004+24470+122980FM-15+0017ROYN V0200201N011310075019N0112651N1+01401+01101999999ADDGA1021+004509999GA2071+007509999GA3081+013509999GF108991999999999999999999MA1102611999999MW1611REMMET061ROYN 0400Z 02022KT 9999 -RA FEW015 BKN025 OVC045 14/11 Q1026;EQDQ01+000003PRSWM1Q02    003PRSWM1
0234479110999992000012605004+24470+122980FM-15+0017ROYN V0200201N012310060019N0112651N1+01401+01101999999ADDGA1021+003009999GA2071+006009999GA3081+013509999GF108991999999999999999999MA1102611999999MW1611REMMET092ROYN 0500Z 02024KT 9999 -RA FEW010 BKN020 OVC045 14/11 Q1026 RMK 2CU010 5CU020 8SC045 A3030;EQDQ01+000003PRSWM1Q02    003PRSWM1
0234479110999992000012606004+24470+122980FM-15+0017ROYN V0200201N010810075019N0112651N1+01401+01001999999ADDGA1021+003009999GA2071+007509999GA3081+012009999GF108991999999999999999999MA1102511999999MW1611REMMET092ROYN 0600Z 02021KT 9999 -RA FEW010 BKN025 OVC040 14/10 Q1025 RMK 2CU010 5CU025 8SC040 A3027;EQDQ01+000003PRSWM1Q02    003PRSWM1
0204479110999992000012607004+24470+122980FM-15+0017ROYN V0200201N010810090019N0112651N1+01401+00901999999ADDGA1071+009009999GA2071+018009999GF107991999999999999999999MA1102511999999MW1611REMMET078ROYN 0700Z 02021KT 9999 -RA BKN030 BKN060 14/09 Q1025 RMK 5CU030 7SC060 A3028;EQDQ01+000003PRSWM1Q02    003PRSWM1
0234479110999992000012700004+24470+122980FM-15+0017ROYN V0200301N010310054019N0112651N1+01301+00901999999ADDGA1021+003009999GA2071+005409999GA3071+012009999GF107991999999999999999999MA1102811999999MW1611REMMET092ROYN 0000Z 03020KT 9999 -RA SCT010 BKN018 BKN040 13/09 Q1028 RMK 3CU010 5SC018 7SC040 A3036;EQDQ01+000003PRSWM1Q02    003PRSWM1
0237479110999992000012700244+24470+122980FM-16+0017ROYN V0200201N010810045019N0090001N1+01301+00901999999ADDGA1021+003009999GA2071+004509999GA3071+012009999GF107991999999999999999999MA1102811999999MW1811REMMET095ROYN 270024Z 02021KT 9000 SHRA SCT010 BKN015 BKN040 13/09 Q1028 RMK 3CU010 5SC015 7SC040 A3037;EQDQ01+000003PRSWM1Q02    003PRSWM1
0239479110999992000012701004+24470+122980FM-15+0017ROYN V0200101N010810045019N0112651N1+01301+00801999999ADDGA1021+002709999GA2071+004509999GA3071+015009999GF107991999999999999999999MA1102811999999MW1611REMMET097ROYN 0100Z 01021KT 9999 -RA SCT009 BKN015 BKN050 13/08 Q1028 RERA RMK 3CU009 5SC015 7SC050 A3038;EQDQ01+000003PRSWM1Q02    003PRSWM1
0234479110999992000012702004+24470+122980FM-15+0017ROYN V0200201N010310060019N0112651N1+01401+00801999999ADDGA1021+003009999GA2071+006009999GA3071+015009999GF107991999999999999999999MA1102811999999MW1611REMMET092ROYN 0200Z 02020KT 9999 -RA FEW010 BKN020 BKN050 14/08 Q1028 RMK 2CU010 5CU020 7SC050 A3037;EQDQ01+000003PRSWM1Q02    003PRSWM1
0234479110999992000012703004+24470+122980FM-15+0017ROYN V0200301N011310150019N0112651N1+01401+01001999999ADDGA1021+007509999GA2071+015009999GA3071+024009999GF107991999999999999999999MA1102711999999MW1611REMMET092ROYN 0300Z 03022KT 9999 -RA SCT025 BKN050 BKN080 14/10 Q1027 RMK 3CU025 5SC050 7AC080 A3035;EQDQ01+000003PRSWM1Q02    003PRSWM1
0214479110999992000012704004+24470+122980FM-15+0017ROYN V0200201N010810090019N0112651N1+01401+00901999999ADDGA1021+003009999GA2071+009009999GA3071+018009999GF107991999999999999999999MA1102711999999MW1001REMMET088ROYN 0400Z 02021KT 9999 FEW010 BKN030 BKN060 14/09 Q1027 RMK 2CU010 5CU030 7SC060 A3033;EQDQ01+000000PRSWM2
0203479110999992000012705004+24470+122980FM-15+0017ROYN V0200201N011810060019N0080001N1+01301+01001999999ADDGA1021+003309999GA2071+006009999GA3071+018009999GF107991999999999999999999MA1102611999999MW1611REMMET061ROYN 0500Z 02023KT 8000 -RA FEW011 BKN020 BKN060 13/10 Q1026;EQDQ01+000003PRSWM1Q02    003PRSWM1
0214479110999992000012706004+24470+122980FM-15+0017ROYN V0200201N010810084019N0112651N1+01401+01001999999ADDGA1021+004509999GA2071+008409999GA3071+018009999GF107991999999999999999999MA1102611999999MW1001REMMET088ROYN 0600Z 02021KT 9999 FEW015 BKN028 BKN060 14/10 Q1026 RMK 2CU015 5CU028 7SC060 A3030;EQDQ01+000000PRSWM2
0214479110999992000012707004+24470+122980FM-15+0017ROYN V0200201N009810084019N0112651N1+01401+00901999999ADDGA1021+004509999GA2071+008409999GA3071+013509999GF107991999999999999999999MA1102511999999MW1001REMMET088ROYN 0700Z 02019KT 9999 FEW015 BKN028 BKN045 14/09 Q1025 RMK 2CU015 5CU028 7SC045 A3030;EQDQ01+000000PRSWM2
0184479110999992000012800004+24470+122980FM-15+0017ROYN V0200201N008210180019N0112651N1+01501+00701999999ADDGA1021+006009999GA2071+018009999GF107991999999999999999999MA1102811999999MW1001REMMET074ROYN 0000Z 02016KT 9999 FEW020 BKN060 15/07 Q1028 RMK 1CU020 6SC060 A3038;EQDQ01+000000PRSWM2
0184479110999992000012801004+24470+122980FM-15+0017ROYN V0200401N007710135019N0112651N1+01501+00701999999ADDGA1021+006009999GA2071+013509999GF107991999999999999999999MA1102911999999MW1001REMMET074ROYN 0100Z 04015KT 9999 FEW020 BKN045 15/07 Q1029 RMK 2CU020 6SC045 A3040;EQDQ01+000000PRSWM2
0184479110999992000012802004+24470+122980FM-15+0017ROYN V0200301N008210135019N0112651N1+01501+00601999999ADDGA1021+007509999GA2071+013509999GF107991999999999999999999MA1102911999999MW1001REMMET074ROYN 0200Z 03016KT 9999 SCT025 BKN045 15/06 Q1029 RMK 4CU025 6SC045 A3040;EQDQ01+000000PRSWM2
0184479110999992000012803004+24470+122980FM-15+0017ROYN V0200301N006710150019N0112651N1+01601+00601999999ADDGA1021+009009999GA2071+015009999GF107991999999999999999999MA1102811999999MW1001REMMET074ROYN 0300Z 03013KT 9999 SCT030 BKN050 16/06 Q1028 RMK 3CU030 5SC050 A3038;EQDQ01+000000PRSWM2
0184479110999992000012804004+24470+122980FM-15+0017ROYN V0200101N006212200019N0112651N1+01601+00501999999ADDGA1021+009009999GA2021+013509999GF104991999999999999999999MA1102711999999MW1001REMMET074ROYN 0400Z 01012KT 9999 FEW030 SCT045 16/05 Q1027 RMK 1CU030 3SC045 A3035;EQDQ01+000000PRSWM2
0184479110999992000012805004+24470+122980FM-15+0017ROYN V0200201N006212200019N0112651N1+01701+00601999999ADDGA1021+009009999GA2021+012009999GF104991999999999999999999MA1102611999999MW1001REMMET074ROYN 0500Z 02012KT 9999 FEW030 SCT040 17/06 Q1026 RMK 1CU030 3SC040 A3032;EQDQ01+000000PRSWM2
0154479110999992000012806004+24470+122980FM-15+0017ROYN V0200501N006712200019N0112651N1+01601+00801999999ADDGA1021+010509999GF104991999999999999999999MA1102511999999MW1001REMMET060ROYN 0600Z 05013KT 9999 SCT035 16/08 Q1025 RMK 3CU035 A3029;EQDQ01+000000PRSWM2
0154479110999992000012807004+24470+122980FM-15+0017ROYN V0200601N006212200019N0112651N1+01701+00701999999ADDGA1021+010509999GF102991999999999999999999MA1102511999999MW1001REMMET060ROYN 0700Z 06012KT 9999 FEW035 17/07 Q1025 RMK 2CU035 A3028;EQDQ01+000000PRSWM2
0184479110999992000012900004+24470+122980FM-15+0017ROYN V0200601N004612200019N0112651N1+01801+01001999999ADDGA1021+010509999GA2021+015009999GF104991999999999999999999MA1102611999999MW1001REMMET074ROYN 0000Z 06009KT 9999 FEW035 SCT050 18/10 Q1026 RMK 2CU035 3SC050 A3032;EQDQ01+000000PRSWM2
0154479110999992000012901004+24470+122980FM-15+0017ROYN V0200801N004612200019N0112651N1+02001+01101999999ADDGA1021+010509999GF102991999999999999999999MA1102611999999MW1001REMMET060ROYN 0100Z 08009KT 9999 FEW035 20/11 Q1026 RMK 2CU035 A3032;EQDQ01+000000PRSWM2
0184479110999992000012902004+24470+122980FM-15+0017ROYN V02099999999990150019N0112651N1+01901+01101999999ADDGA1021+010509999GA2071+015009999GF107991999999999999999999MA1102711999999MW1001REMMET074ROYN 0200Z VRB03KT 9999 FEW035 BKN050 19/11 Q1027 RMK 2CU035 5SC050 A3034;EQDQ01+000000PRSWM2
0192479110999992000012903004+24470+122980FM-15+0017ROYN V0200401N003110150019N0112651N1+01901+01201999999ADDGA1021+010509999GA2071+015009999GF107991999999999999999999MA1102611999999MW1001REMMET082ROYN 0300Z 04006KT 010V070 9999 FEW035 BKN050 19/12 Q1026 RMK 2CU035 6SC050 A3032;EQDQ01+000000PRSWM2
0184479110999992000012904004+24470+122980FM-15+0017ROYN V0200301N002612200019N0112651N1+01901+01101999999ADDGA1021+010509999GA2021+021009999GF104991999999999999999999MA1102511999999MW1001REMMET074ROYN 0400Z 03005KT 9999 FEW035 SCT070 19/11 Q1025 RMK 2CU035 4AC070 A3030;EQDQ01+000000PRSWM2
0154479110999992000012905004+24470+122980FM-15+0017ROYN V0200401N001512200019N0112651N1+02001+01101999999ADDGA1021+010509999GF102991999999999999999999MA1102511999999MW1001REMMET060ROYN 0500Z 04003KT 9999 FEW035 20/11 Q1025 RMK 1CU035 A3027;EQDQ01+000000PRSWM2
0162479110999992000012906004+24470+122980FM-15+0017ROYN V0200301N002612200019N0112651N1+02101+01201999999ADDGA1021+010509999GF102991999999999999999999MA1102401999999MW1001REMMET068ROYN 0600Z 03005KT 360V060 9999 FEW035 21/12 Q1024 RMK 1CU035 A3025;EQDQ01+000000PRSWM2
0162479110999992000012907004+24470+122980FM-15+0017ROYN V0200301N003112200019N0112651N1+02001+01101999999ADDGA1021+010509999GF102991999999999999999999MA1102401999999MW1001REMMET068ROYN 0700Z 03006KT 350V070 9999 FEW035 20/11 Q1024 RMK 2CU035 A3025;EQDQ01+000000PRSWM2
0234479110999992000013000004+24470+122980FM-15+0017ROYN V0200301N013910069019N0112651N1+01801+01401999999ADDGA1021+004809999GA2071+006909999GA3071+018009999GF107991999999999999999999MA1102711999999MW1611REMMET092ROYN 0000Z 03027KT 9999 -RA FEW016 BKN023 BKN060 18/14 Q1027 RMK 2CU016 5CU023 7SC060 A3035;EQDQ01+000003PRSWM1Q02    003PRSWM1
0214479110999992000013001004+24470+122980FM-15+0017ROYN V0200301N013410066019N0112651N1+01801+01401999999ADDGA1021+004509999GA2071+006609999GA3071+018009999GF107991999999999999999999MA1102811999999MW1001REMMET088ROYN 0100Z 03026KT 9999 FEW015 BKN022 BKN060 18/14 Q1028 RMK 2CU015 5CU022 7SC060 A3038;EQDQ01+000000PRSWM2
0214479110999992000013002004+24470+122980FM-15+0017ROYN V0200301N013410072019N0112651N1+01801+01301999999ADDGA1021+004509999GA2071+007209999GA3071+018009999GF107991999999999999999999MA1102911999999MW1001REMMET088ROYN 0200Z 03026KT 9999 FEW015 BKN024 BKN060 18/13 Q1029 RMK 2CU015 5CU024 7SC060 A3039;EQDQ01+000000PRSWM2
0214479110999992000013003004+24470+122980FM-15+0017ROYN V0200201N012910060019N0112651N1+01701+01301999999ADDGA1021+004509999GA2071+006009999GA3071+018009999GF107991999999999999999999MA1102911999999MW1001REMMET088ROYN 0300Z 02025KT 9999 FEW015 BKN020 BKN060 17/13 Q1029 RMK 2CU015 5CU020 7SC060 A3039;EQDQ01+000000PRSWM2
0214479110999992000013004004+24470+122980FM-15+0017ROYN V0200301N013410060019N0112651N1+01701+01301999999ADDGA1021+004509999GA2071+006009999GA3071+018009999GF107991999999999999999999MA1102811999999MW1001REMMET088ROYN 0400Z 03026KT 9999 FEW015 BKN020 BKN060 17/13 Q1028 RMK 2CU015 5CU020 7SC060 A3037;EQDQ01+000000PRSWM2
0214479110999992000013005004+24470+122980FM-15+0017ROYN V0200301N011810045019N0112651N1+01701+01301999999ADDGA1021+003009999GA2071+004509999GA3071+018009999GF107991999999999999999999MA1102711999999MW1001REMMET088ROYN 0500Z 03023KT 9999 FEW010 BKN015 BKN060 17/13 Q1027 RMK 2CU010 5CU015 7SC060 A3035;EQDQ01+000000PRSWM2
0233479110999992000013006004+24470+122980FM-15+0017ROYN V0200301N012910045019N0090001N1+01601+01401999999ADDGA1021+003009999GA2071+004509999GA3081+015009999GF108991999999999999999999MA1102711999999MW1631REMMET091ROYN 0600Z 03025KT 9000 RA FEW010 BKN015 OVC050 16/14 Q1027 RMK 2CU010 5CU015 8SC050 A3034;EQDQ01+000003PRSWM1Q02    003PRSWM1
0241479110999992000013006254+24470+122980FM-15+0017ROYN V0200301N012310045019N0112651N1+01601+01401999999ADDGA1021+003009999GA2071+004509999GA3081+015009999GF108991999999999999999999MA1102711999999MW1611REMMET099ROYN 300625Z 03024KT 9999 -RA FEW010 BKN015 OVC050 16/14 Q1027 RERA RMK 2CU010 5CU015 8SC050 A3035;EQDQ01+000003PRSWM1Q02    003PRSWM1
0239479110999992000013007004+24470+122980FM-15+0017ROYN V0200301N012910045019N0112651N1+01601+01301999999ADDGA1021+003009999GA2071+004509999GA3081+015009999GF108991999999999999999999MA1102711999999MW1611REMMET097ROYN 0700Z 03025KT 9999 -RA FEW010 BKN015 OVC050 16/13 Q1027 RERA RMK 2CU010 5CU015 8SC050 A3035;EQDQ01+000003PRSWM1Q02    003PRSWM1
0234479110999992000013100004+24470+122980FM-15+0017ROYN V0200301N011310090019N0112651N1+01501+01101999999ADDGA1021+006009999GA2071+009009999GA3081+015009999GF108991999999999999999999MA1103121999999MW1611REMMET092ROYN 0000Z 03022KT 9999 -RA SCT020 BKN030 OVC050 15/11 Q1031 RMK 3CU020 5CU030 8SC050 A3045;EQDQ01+000003PRSWM1Q02    003PRSWM1
0234479110999992000013101004+24470+122980FM-15+0017ROYN V0200401N010810075019N0112651N1+01501+01101999999ADDGA1021+003009999GA2071+007509999GA3081+015009999GF108991999999999999999999MA1103121999999MW1611REMMET092ROYN 0100Z 04021KT 9999 -RA FEW010 BKN025 OVC050 15/11 Q1031 RMK 2CU010 5CU025 8SC050 A3045;EQDQ01+000003PRSWM1Q02    003PRSWM1
0234479110999992000013102004+24470+122980FM-15+0017ROYN V0200301N011310075019N0112651N1+01501+01101999999ADDGA1021+003009999GA2071+007509999GA3081+015009999GF108991999999999999999999MA1103121999999MW1611REMMET092ROYN 0200Z 03022KT 9999 -RA FEW010 BKN025 OVC050 15/11 Q1031 RMK 2CU010 5CU025 8SC050 A3045;EQDQ01+000003PRSWM1Q02    003PRSWM1
0234479110999992000013103004+24470+122980FM-15+0017ROYN V0200401N011810075019N0112651N1+01601+01201999999ADDGA1021+003009999GA2071+007509999GA3081+015009999GF108991999999999999999999MA1103011999999MW1611REMMET092ROYN 0300Z 04023KT 9999 -RA FEW010 BKN025 OVC050 16/12 Q1030 RMK 1CU010 5CU025 8SC050 A3042;EQDQ01+000003PRSWM1Q02    003PRSWM1
0234479110999992000013104004+24470+122980FM-15+0017ROYN V0200301N011310075019N0112651N1+01501+01101999999ADDGA1021+003009999GA2071+007509999GA3081+015009999GF108991999999999999999999MA1102911999999MW1611REMMET092ROYN 0400Z 03022KT 9999 -RA FEW010 BKN025 OVC050 15/11 Q1029 RMK 1CU010 5CU025 8SC050 A3039;EQDQ01+000003PRSWM1Q02    003PRSWM1
0214479110999992000013105004+24470+122980FM-15+0017ROYN V0200301N010810075019N0112651N1+01601+01301999999ADDGA1021+004809999GA2071+007509999GA3081+015009999GF108991999999999999999999MA1102811999999MW1001REMMET088ROYN 0500Z 03021KT 9999 FEW016 BKN025 OVC050 16/13 Q1028 RMK 2CU016 5CU025 8SC050 A3036;EQDQ01+000000PRSWM2
0234479110999992000013106004+24470+122980FM-15+0017ROYN V0200301N010810060019N0112651N1+01601+01101999999ADDGA1021+004509999GA2071+006009999GA3081+015009999GF108991999999999999999999MA1102711999999MW1611REMMET092ROYN 0600Z 03021KT 9999 -RA FEW015 BKN020 OVC050 16/11 Q1027 RMK 2CU015 5CU020 8SC050 A3034;EQDQ01+000003PRSWM1Q02    003PRSWM1
0214479110999992000013107004+24470+122980FM-15+0017ROYN V0200301N011310066019N0112651N1+01501+01101999999ADDGA1021+004509999GA2071+006609999GA3081+015009999GF108991999999999999999999MA1102711999999MW1001REMMET088ROYN 0700Z 03022KT 9999 FEW015 BKN022 OVC050 15/11 Q1027 RMK 2CU015 5CU022 8SC050 A3033;EQDQ01+000000PRSWM2
0234479110999992000020100004+24470+122980FM-15+0017ROYN V0200501N009810066019N0112651N1+01701+01301999999ADDGA1021+004509999GA2071+006609999GA3071+015009999GF107991999999999999999999MA1102611999999MW1611REMMET092ROYN 0000Z 05019KT 9999 -RA FEW015 BKN022 BKN050 17/13 Q1026 RMK 2CU015 5CU022 7SC050 A3031;EQDQ01+000003PRSWM1Q02    003PRSWM1
0214479110999992000020101004+24470+122980FM-15+0017ROYN V0200501N009310072019N0112651N1+01701+01301999999ADDGA1021+004509999GA2071+007209999GA3071+015009999GF107991999999999999999999MA1102611999999MW1001REMMET088ROYN 0100Z 05018KT 9999 FEW015 BKN024 BKN050 17/13 Q1026 RMK 2CU015 5CU024 7SC050 A3032;EQDQ01+000000PRSWM2
0214479110999992000020102004+24470+122980FM-15+0017ROYN V0200501N010310075019N0112651N1+01701+01301999999ADDGA1021+004509999GA2071+007509999GA3071+015009999GF107991999999999999999999MA1102711999999MW1001REMMET088ROYN 0200Z 05020KT 9999 FEW015 BKN025 BKN050 17/13 Q1027 RMK 2CU015 5CU025 7SC050 A3033;EQDQ01+000000PRSWM2
0214479110999992000020103004+24470+122980FM-15+0017ROYN V0200501N009310075019N0112651N1+01701+01301999999ADDGA1021+004509999GA2071+007509999GA3071+015009999GF107991999999999999999999MA1102611999999MW1001REMMET088ROYN 0300Z 05018KT 9999 FEW015 BKN025 BKN050 17/13 Q1026 RMK 2CU015 5CU025 7SC050 A3031;EQDQ01+000000PRSWM2
0234479110999992000020104004+24470+122980FM-15+0017ROYN V0200501N010310060019N0090001N1+01701+01301999999ADDGA1021+003609999GA2071+006009999GA3071+018009999GF107991999999999999999999MA1102611999999MW1611REMMET092ROYN 0400Z 05020KT 9000 -RA FEW012 BKN020 BKN060 17/13 Q1026 RMK 2CU012 5CU020 7SC060 A3030;EQDQ01+000003PRSWM1Q02    003PRSWM1
0234479110999992000020105004+24470+122980FM-15+0017ROYN V0200501N010310060019N0090001N1+01701+01301999999ADDGA1021+003009999GA2071+006009999GA3071+018009999GF107991999999999999999999MA1102511999999MW1611REMMET092ROYN 0500Z 05020KT 9000 -RA FEW010 BKN020 BKN060 17/13 Q1025 RMK 2CU010 5CU020 7SC060 A3027;EQDQ01+000003PRSWM1Q02    003PRSWM1
0214479110999992000020106004+24470+122980FM-15+0017ROYN V0200501N010310060019N0112651N1+01701+01301999999ADDGA1021+004509999GA2071+006009999GA3071+018009999GF107991999999999999999999MA1102401999999MW1001REMMET088ROYN 0600Z 05020KT 9999 FEW015 BKN020 BKN060 17/13 Q1024 RMK 1CU015 5CU020 7SC060 A3025;EQDQ01+000000PRSWM2
0184479110999992000020107004+24470+122980FM-15+0017ROYN V0200401N010310180019N0112651N1+01701+01301999999ADDGA1021+004509999GA2071+018009999GF107991999999999999999999MA1102401999999MW1001REMMET074ROYN 0700Z 04020KT 9999 SCT015 BKN060 17/13 Q1024 RMK 3CU015 7SC060 A3025;EQDQ01+000000PRSWM2
0184479110999992000020200004+24470+122980FM-15+0017ROYN V0200701N008710060019N0112651N1+01801+01401999999ADDGA1071+006009999GA2071+018009999GF107991999999999999999999MA1102401999999MW1001REMMET074ROYN 0000Z 07017KT 9999 BKN020 BKN060 18/14 Q1024 RMK 5CU020 7SC060 A3025;EQDQ01+000000PRSWM2
0214479110999992000020201004+24470+122980FM-15+0017ROYN V0200601N009310060019N0112651N1+01801+01501999999ADDGA1021+003009999GA2071+006009999GA3071+018009999GF107991999999999999999999MA1102511999999MW1001REMMET088ROYN 0100Z 06018KT 9999 FEW010 BKN020 BKN060 18/15 Q1025 RMK 2CU010 5CU020 7SC060 A3027;EQDQ01+000000PRSWM2
0184479110999992000020202004+24470+122980FM-15+0017ROYN V0200601N007710060019N0112651N1+01901+01601999999ADDGA1071+006009999GA2071+018009999GF107991999999999999999999MA1102511999999MW1001REMMET074ROYN 0200Z 06015KT 9999 BKN020 BKN060 19/16 Q1025 RMK 5CU020 7SC060 A3027;EQDQ01+000000PRSWM2
0184479110999992000020203004+24470+122980FM-15+0017ROYN V0200801N007710060019N0112651N1+01901+01501999999ADDGA1071+006009999GA2071+018009999GF107991999999999999999999MA1102401999999MW1001REMMET074ROYN 0300Z 08015KT 9999 BKN020 BKN060 19/15 Q1024 RMK 5CU020 7SC060 A3025;EQDQ01+000000PRSWM2
0160479110999992000020204004+24470+122980FM-15+0017ROYN V0200701N008210060019N0112651N1+02001+01501999999ADDGA1071+006009999GA2071+018009999GF107991999999999999999999MA1102301999999MW1001REMMET050ROYN 0400Z 07016KT 9999 BKN020 BKN060 20/15 Q1023;EQDQ01+000000PRSWM2
0160479110999992000020205004+24470+122980FM-15+0017ROYN V0200701N007210180019N0112651N1+02001+01501999999ADDGA1021+005109999GA2071+018009999GF107991999999999999999999MA1102201999999MW1001REMMET050ROYN 0500Z 07014KT 9999 SCT017 BKN060 20/15 Q1022;EQDQ01+000000PRSWM2
0211479110999992000020206004+24470+122980FM-15+0017ROYN V0201001N005110045019N0070001N1+01801+01701999999ADDGA1021+003009999GA2071+004509999GF107991999999999999999999MA1102101999999MW1801REMMET085ROYN 0600Z 10010KT 7000 -SHRA SCT010 BKN015 18/17 Q1021 RERA RMK 3CU010 7CU015 A3018;EQDQ01+000003PRSWM1Q02    003PRSWM1
0214479110999992000020207004+24470+122980FM-15+0017ROYN V0200901N005110060019N0112651N1+01901+01701999999ADDGA1021+004209999GA2071+006009999GA3071+015009999GF107991999999999999999999MA1102101999999MW1001REMMET088ROYN 0700Z 09010KT 9999 SCT014 BKN020 BKN050 19/17 Q1021 RMK 3CU014 5CU020 6SC050 A3017;EQDQ01+000000PRSWM2
0192479110999992000020300004+24470+122980FM-15+0017ROYN V0201301N005110150019N0112651N1+02201+01601999999ADDGA1021+007209999GA2071+015009999GF107991999999999999999999MA1102101999999MW1001REMMET082ROYN 0000Z 13010KT 100V170 9999 SCT024 BKN050 22/16 Q1021 RMK 4CU024 6SC050 A3016;EQDQ01+000000PRSWM2
0222479110999992000020301004+24470+122980FM-15+0017ROYN V0201501N003610240019N0112651N1+02201+01601999999ADDGA1021+004509999GA2021+015009999GA3071+024009999GF107991999999999999999999MA1102101999999MW1001REMMET096ROYN 0100Z 15007KT 080V210 9999 FEW015 SCT050 BKN080 22/16 Q1021 RMK 1CU015 3SC050 6AC080 A3018;EQDQ01+000000PRSWM2
0192479110999992000020302004+24470+122980FM-15+0017ROYN V0201501N003112200019N0112651N1+02301+01701999999ADDGA1021+006009999GA2021+018009999GF104991999999999999999999MA1102101999999MW1001REMMET082ROYN 0200Z 15006KT 100V200 9999 FEW020 SCT060 23/17 Q1021 RMK 2CU020 4SC060 A3017;EQDQ01+000000PRSWM2
0230479110999992000020303004+24470+122980FM-15+0017ROYN V0201401N003610210019N0112651N1+02301+01601999999ADDGA1021+006609999GA2021+007509099GA3071+021009999GF107991999999999999999999MA1102101999999MW1001REMMET104ROYN 0300Z 14007KT 080V200 9999 FEW022 FEW025CB BKN070 23/16 Q1021 RMK 2CU022 1CB025 5AC070 A3015 CB NW;EQDQ01+000000PRSWM2
0232479110999992000020304004+24470+122980FM-15+0017ROYN V0201401N004612200019N0112651N1+02401+01701999999ADDGA1021+006609999GA2021+007509099GA3021+021009999GF104991999999999999999999MA1102001999999MW1001REMMET106ROYN 0400Z 14009KT 100V180 9999 FEW022 FEW025CB SCT070 24/17 Q1020 RMK 1CU022 1CB025 3AC070 A3012 CB NW-N;EQDQ01+000000PRSWM2
0192479110999992000020305004+24470+122980FM-15+0017ROYN V0201701N003612200019N0112651N1+02401+01701999999ADDGA1021+006609999GA2021+021009999GF104991999999999999999999MA1101901999999MW1001REMMET082ROYN 0500Z 17007KT 090V220 9999 FEW022 SCT070 24/17 Q1019 RMK 1CU022 3AC070 A3009;EQDQ01+000000PRSWM2
0231479110999992000020306004+24470+122980FM-15+0017ROYN V0201601N003112200019N0112651N1+02301+01701999999ADDGA1021+006009999GA2021+007509099GF102991999999999999999999MA1101801999999MW1161REMMET105ROYN 0600Z 16006KT 110V220 9999 VCSH FEW020 FEW025CB 23/17 Q1018 RMK 1CU020 2CB025 A3008 CB OHD-NW MOV E;EQDQ01+000003PRSWM1Q02    003PRSWM1
0248479110999992000020306424+24470+122980FM-16+0017ROYN V0203201N00261220001CN0040001N1+02001+01801999999ADDGA1021+003009999GA2071+004509999GA3021+009009099MA1101801999999MW1821REMMET116ROYN 030642Z 32005KT 4000 +SHRA FEW010 BKN015 SCT030CB 20/18 Q1018 RMK 2CU010 6CU015 4CB030 A3007 CB OHD MOV E RI++;EQDQ01+000042SCOTCVQ02+000003PRSWM1Q03    003PRSWM1
0265479110999992000020307004+24470+122980FM-15+0017ROYN V0202501N003110045019N0040001N1+02001+01801999999ADDGA1021+002409999GA2071+004509999GA3071+007509099GF107991999999999999999999MA1101801999999MW1811REMMET123ROYN 0700Z 25006KT 190V300 4000 SHRA FEW008 BKN015 BKN025CB 20/18 Q1018 RERA RMK 2ST008 6CU015 5CB025 A3007 CB OHD-E MOV E;EQDQ01+000003PRSWM1Q02    003PRSWM1
0251479110999992000020307354+24470+122980FM-16+0017ROYN V0200301N004610045019N0080001N1+02001+01801999999ADDGA1021+002409999GA2071+004509999GA3071+021009999GF107991999999999999999999MA1101801999999MW1801REMMET109ROYN 030735Z 03009KT 340V050 8000 -SHRA FEW008 BKN015 BKN070 20/18 Q1018 RERA RMK 2ST008 6CU015 7AC070 A3008;EQDQ01+000003PRSWM1Q02    003PRSWM1
0342479110999992000020400004+24470+122980SY-MT+0017ROYN V0200201N005110045019N0050001N1+01891+01761102091ADDAA112002091AY181061AY221061GA1071+004509999GA2071+015009999GF107991071031999999999999KA1999N+01881MA1102101102011MD1310151+9999MW1611MW2801REMSYN088AAXX  04004 47911 11/50 70210 10189 20176 30201 40209 53015 60022 78082 873// 333 20188;MET078ROYN 0000Z 05022KT 9999 -RA BKN015 BKN050 19/16 Q1021 RMK 5CU015 7SC050 A3017;EQDQ01    003PRSWM1
0184479110999992000020401004+24470+122980FM-15+0017ROYN V0200501N010810054019N0112651N1+01901+01601999999ADDGA1071+005409999GA2071+015009999GF107991999999999999999999MA1102201999999MW1001REMMET074ROYN 0100Z 05021KT 9999 BKN018 BKN050 19/16 Q1022 RMK 5CU018 7SC050 A3018;EQDQ01+000000PRSWM2
0204479110999992000020402004+24470+122980FM-15+0017ROYN V0200401N010310048019N0112651N1+01901+01601999999ADDGA1071+004809999GA2071+015009999GF107991999999999999999999MA1102201999999MW1611REMMET078ROYN 0200Z 04020KT 9999 -RA BKN016 BKN050 19/16 Q1022 RMK 5CU016 7SC050 A3018;EQDQ01+000003PRSWM1Q02    003PRSWM1
0184479110999992000020403004+24470+122980FM-15+0017ROYN V0200501N009810048019N0112651N1+02001+01601999999ADDGA1071+004809999GA2071+015009999GF107991999999999999999999MA1102101999999MW1001REMMET074ROYN 0300Z 05019KT 9999 BKN016 BKN050 20/16 Q1021 RMK 5CU016 7SC050 A3015;EQDQ01+000000PRSWM2
0184479110999992000020404004+24470+122980FM-15+0017ROYN V0200501N009310048019N0112651N1+02001+01701999999ADDGA1071+004809999GA2071+018009999GF107991999999999999999999MA1102001999999MW1001REMMET074ROYN 0400Z 05018KT 9999 BKN016 BKN060 20/17 Q1020 RMK 6CU016 7SC060 A3012;EQDQ01+000000PRSWM2
0234479110999992000020405004+24470+122980FM-15+0017ROYN V0200501N008710048019N0080001N1+02001+01701999999ADDGA1021+003009999GA2071+004809999GA3071+018009999GF107991999999999999999999MA1101801999999MW1611REMMET092ROYN 0500Z 05017KT 8000 -RA FEW010 BKN016 BKN060 20/17 Q1018 RMK 2CU010 5CU016 7SC060 A3009;EQDQ01+000003PRSWM1Q02    003PRSWM1
0234479110999992000020406004+24470+122980FM-15+0017ROYN V0200501N009310051019N0070001N1+02001+01701999999ADDGA1021+003609999GA2071+005109999GA3071+018009999GF107991999999999999999999MA1101801999999MW1611REMMET092ROYN 0600Z 05018KT 7000 -RA FEW012 BKN017 BKN060 20/17 Q1018 RMK 2CU012 5CU017 7SC060 A3006;EQDQ01+000003PRSWM1Q02    003PRSWM1
0234479110999992000020407004+24470+122980FM-15+0017ROYN V0200501N008710045019N0050001N1+01901+01701999999ADDGA1021+002109999GA2071+004509999GA3081+018009999GF108991999999999999999999MA1101691999999MW1611REMMET092ROYN 0700Z 05017KT 5000 -RA FEW007 BKN015 OVC060 19/17 Q1017 RMK 2ST007 5CU015 8SC060 A3005;EQDQ01+000003PRSWM1Q02    003PRSWM1
0235479110999992000020407294+24470+122980FM-16+0017ROYN V0200501N008710036019N0040001N1+01901+01701999999ADDGA1021+002109999GA2071+003609999GA3081+018009999GF108991999999999999999999MA1101691999999MW1631REMMET093ROYN 040729Z 05017KT 4000 RA FEW007 BKN012 OVC060 19/17 Q1017 RMK 2ST007 6CU012 8SC060 A3005;EQDQ01+000003PRSWM1Q02    003PRSWM1
0222479110999992000020500004+24470+122980FM-15+0017ROYN V0201201N002610210019N0112651N1+02101+01801999999ADDGA1021+004509999GA2021+006909999GA3071+021009999GF107991999999999999999999MA1101691999999MW1001REMMET096ROYN 0000Z 12005KT 080V140 9999 FEW015 SCT023 BKN070 21/18 Q1017 RMK 2CU015 4CU023 6AC070 A3006;EQDQ01+000000PRSWM2
0222479110999992000020501004+24470+122980FM-15+0017ROYN V0201301N003610150019N0112651N1+02201+01701999999ADDGA1021+004809999GA2021+007509999GA3071+015009999GF107991999999999999999999MA1101801999999MW1001REMMET096ROYN 0100Z 13007KT 100V160 9999 FEW016 SCT025 BKN050 22/17 Q1018 RMK 2CU016 4CU025 6SC050 A3007;EQDQ01+000000PRSWM2
0222479110999992000020502004+24470+122980FM-15+0017ROYN V0201301N004610240019N0112651N1+02301+01801999999ADDGA1021+006009999GA2021+015009999GA3071+024009999GF107991999999999999999999MA1101801999999MW1001REMMET096ROYN 0200Z 13009KT 090V160 9999 FEW020 SCT050 BKN080 23/18 Q1018 RMK 2CU020 4SC050 6AC080 A3006;EQDQ01+000000PRSWM2
0214479110999992000020503004+24470+122980FM-15+0017ROYN V0201301N005110150019N0112651N1+02301+01801999999ADDGA1021+006009999GA2071+015009999GA3071+024009999GF107991999999999999999999MA1101691999999MW1001REMMET088ROYN 0300Z 13010KT 9999 FEW020 BKN050 BKN080 23/18 Q1017 RMK 2CU020 5SC050 7AC080 A3004;EQDQ01+000000PRSWM2
0236479110999992000020504004+24470+122980FM-15+0017ROYN V0201301N004110240019N0112651N1+02201+01801999999ADDGA1021+004509999GA2021+018009999GA3071+024009999GF107991999999999999999999MA1101591999999MW1801REMMET094ROYN 0400Z 13008KT 9999 -SHRA FEW015 SCT060 BKN080 22/18 Q1016 RMK 2CU015 4SC060 7AC080 A3002;EQDQ01+000003PRSWM1Q02    003PRSWM1
0234479110999992000020505004+24470+122980FM-15+0017ROYN V0201301N004110060019N0090001N1+02201+01901999999ADDGA1021+003009999GA2071+006009999GA3071+024009999GF107991999999999999999999MA1101591999999MW1611REMMET092ROYN 0500Z 13008KT 9000 -RA FEW010 BKN020 BKN080 22/19 Q1016 RMK 2CU010 5CU020 7AS080 A3000;EQDQ01+000003PRSWM1Q02    003PRSWM1
0268479110999992000020505074+24470+122980FM-16+0017ROYN V0201201N00461220001CN0030001N1+02101+01801999999ADDGA1021+003009999GA2071+004509999GA3021+007509099MA1101491999999MW1821OC100981REMMET128ROYN 050507Z 12009G19KT 100V160 3000 +SHRA FEW010 BKN015 SCT025CB 21/18 Q1015 RMK 2CU010 5CU015 4CB025 A2999 CB OHD MOV NE RI++;EQDQ01+000042SCOTCVQ02+000003PRSWM1Q03    003PRSWM1
0243479110999992000020505334+24470+122980FM-16+0017ROYN V0201201N003110045019N0090001N1+02101+01901999999ADDGA1021+003009999GA2071+004509999GA3071+024009999GF107991999999999999999999MA1101491999999MW1801REMMET101ROYN 050533Z 12006KT 9000 -SHRA FEW010 BKN015 BKN080 21/19 Q1015 RERA RMK 2CU010 5CU015 7AC080 A2998;EQDQ01+000003PRSWM1Q02    003PRSWM1
0209479110999992000020506004+24470+122980FM-15+0017ROYN V0201201N004110240019N0112651N1+02201+01901999999ADDGA1021+004509999GA2071+024009999GF107991999999999999999999MA1101491999999MW1611REMMET083ROYN 0600Z 12008KT 9999 -RA FEW015 BKN080 22/19 Q1015 RERA RMK 2CU015 7AS080 A2997;EQDQ01+000003PRSWM1Q02    003PRSWM1
0212479110999992000020507004+24470+122980FM-15+0017ROYN V0201201N003610240019N0112651N1+02101+01901999999ADDGA1021+003009999GA2071+024009999GF107991999999999999999999MA1101391999999MW1611REMMET086ROYN 0700Z 12007KT 080V150 9999 -RA FEW010 BKN080 21/19 Q1014 RMK 2CU010 7AS080 A2996;EQDQ01+000003PRSWM1Q02    003PRSWM1
0234479110999992000020600004+24470+122980FM-15+0017ROYN V0200201N009310060019N0090001N1+01901+01701999999ADDGA1021+003009999GA2071+006009999GA3071+018009999GF107991999999999999999999MA1101691999999MW1611REMMET092ROYN 0000Z 02018KT 9000 -RA SCT010 BKN020 BKN060 19/17 Q1017 RMK 3CU010 5CU020 7SC060 A3004;EQDQ01+000003PRSWM1Q02    003PRSWM1
0234479110999992000020601004+24470+122980FM-15+0017ROYN V0200201N010810036019N0090001N1+01801+01601999999ADDGA1021+003009999GA2071+003609999GA3071+018009999GF107991999999999999999999MA1101691999999MW1611REMMET092ROYN 0100Z 02021KT 9000 -RA FEW010 BKN012 BKN060 18/16 Q1017 RMK 2CU010 5CU012 7SC060 A3004;EQDQ01+000003PRSWM1Q02    003PRSWM1
0234479110999992000020602004+24470+122980FM-15+0017ROYN V0200201N010310045019N0112651N1+01801+01601999999ADDGA1021+003609999GA2071+004509999GA3071+018009999GF107991999999999999999999MA1101691999999MW1611REMMET092ROYN 0200Z 02020KT 9999 -RA FEW012 BKN015 BKN060 18/16 Q1017 RMK 2CU012 5CU015 7SC060 A3005;EQDQ01+000003PRSWM1Q02    003PRSWM1
0234479110999992000020603004+24470+122980FM-15+0017ROYN V0200201N010310036019N0112651N1+01801+01601999999ADDGA1021+003009999GA2071+003609999GA3071+018009999GF107991999999999999999999MA1101691999999MW1611REMMET092ROYN 0300Z 02020KT 9999 -RA FEW010 BKN012 BKN060 18/16 Q1017 RMK 2CU010 5CU012 7SC060 A3003;EQDQ01+000003PRSWM1Q02    003PRSWM1
0214479110999992000020604004+24470+122980FM-15+0017ROYN V0200201N010310045019N0112651N1+01801+01601999999ADDGA1021+003009999GA2071+004509999GA3071+018009999GF107991999999999999999999MA1101591999999MW1001REMMET088ROYN 0400Z 02020KT 9999 FEW010 BKN015 BKN060 18/16 Q1016 RMK 2CU010 5CU015 7SC060 A3001;EQDQ01+000000PRSWM2
0234479110999992000020605004+24470+122980FM-15+0017ROYN V0200201N009810039019N0070001N1+01701+01501999999ADDGA1021+002109999GA2071+003909999GA3081+024009999GF108991999999999999999999MA1101491999999MW1611REMMET092ROYN 0500Z 02019KT 7000 -RA FEW007 BKN013 OVC080 17/15 Q1015 RMK 2ST007 5CU013 8AS080 A2998;EQDQ01+000003PRSWM1Q02    003PRSWM1
0234479110999992000020606004+24470+122980FM-15+0017ROYN V0200201N009310048019N0070001N1+01701+01501999999ADDGA1021+003009999GA2071+004809999GA3081+024009999GF108991999999999999999999MA1101391999999MW1611REMMET092ROYN 0600Z 02018KT 7000 -RA FEW010 BKN016 OVC080 17/15 Q1014 RMK 2CU010 5CU016 8AS080 A2997;EQDQ01+000003PRSWM1Q02    003PRSWM1
0214479110999992000020607004+24470+122980FM-15+0017ROYN V0200201N010310054019N0090001N1+01701+01501999999ADDGA1021+003609999GA2071+005409999GA3081+024009999GF108991999999999999999999MA1101391999999MW1001REMMET088ROYN 0700Z 02020KT 9000 FEW012 BKN018 OVC080 17/15 Q1014 RMK 2CU012 5CU018 8AS080 A2996;EQDQ01+000000PRSWM2
0184479110999992000020700004+24470+122980FM-15+0017ROYN V0200101N008710135019N0112651N1+01801+01201999999ADDGA1021+007509999GA2071+013509999GF107991999999999999999999MA1101491999999MW1001REMMET074ROYN 0000Z 01017KT 9999 FEW025 BKN045 18/12 Q1015 RMK 2CU025 7SC045 A2998;EQDQ01+000000PRSWM2
0184479110999992000020701004+24470+122980FM-15+0017ROYN V0200201N008710150019N0112651N1+01901+01201999999ADDGA1021+007509999GA2071+015009999GF107991999999999999999999MA1101491999999MW1001REMMET074ROYN 0100Z 02017KT 9999 FEW025 BKN050 19/12 Q1015 RMK 1CU025 6SC050 A3000;EQDQ01+000000PRSWM2
0184479110999992000020702004+24470+122980FM-15+0017ROYN V0200201N008210150019N0112651N1+01901+01201999999ADDGA1021+008409999GA2071+015009999GF107991999999999999999999MA1101491999999MW1001REMMET074ROYN 0200Z 02016KT 9999 FEW028 BKN050 19/12 Q1015 RMK 1CU028 6SC050 A3000;EQDQ01+000000PRSWM2
0214479110999992000020703004+24470+122980FM-15+0017ROYN V0200201N008210240019N0112651N1+01901+01201999999ADDGA1021+007809999GA2021+012009999GA3071+024009999GF107991999999999999999999MA1101491999999MW1001REMMET088ROYN 0300Z 02016KT 9999 FEW026 SCT040 BKN080 19/12 Q1015 RMK 2CU026 3SC040 5AC080 A2999;EQDQ01+000000PRSWM2
0154479110999992000020704004+24470+122980FM-15+0017ROYN V0200301N008212200019N0112651N1+02001+01301999999ADDGA1021+007809999GF102991999999999999999999MA1101391999999MW1001REMMET060ROYN 0400Z 03016KT 9999 FEW026 20/13 Q1014 RMK 1CU026 A2995;EQDQ01+000000PRSWM2
0154479110999992000020705004+24470+122980FM-15+0017ROYN V0200201N008210078019N0112651N1+02001+01301999999ADDGA1071+007809999GF107991999999999999999999MA1101291999999MW1001REMMET060ROYN 0500Z 02016KT 9999 BKN026 20/13 Q1013 RMK 5CU026 A2993;EQDQ01+000000PRSWM2
0184479110999992000020706004+24470+122980FM-15+0017ROYN V0200101N007210150019N0112651N1+01901+01201999999ADDGA1021+009009999GA2071+015009999GF107991999999999999999999MA1101291999999MW1001REMMET074ROYN 0600Z 01014KT 9999 SCT030 BKN050 19/12 Q1013 RMK 3CU030 6SC050 A2992;EQDQ01+000000PRSWM2
0184479110999992000020707004+24470+122980FM-15+0017ROYN V0200201N007710150019N0112651N1+01901+01201999999ADDGA1021+009009999GA2071+015009999GF107991999999999999999999MA1101291999999MW1001REMMET074ROYN 0700Z 02015KT 9999 FEW030 BKN050 19/12 Q1013 RMK 2CU030 6SC050 A2992;EQDQ01+000000PRSWM2
0234479110999992000020800004+24470+122980FM-15+0017ROYN V0200301N010310090019N0080001N1+01401+00801999999ADDGA1021+003009999GA2071+009009999GA3081+018009999GF108991999999999999999999MA1102001999999MW1611REMMET092ROYN 0000Z 03020KT 8000 -RA FEW010 BKN030 OVC060 14/08 Q1020 RMK 1CU010 5CU030 8SC060 A3012;EQDQ01+000003PRSWM1Q02    003PRSWM1
0230479110999992000020801004+24470+122980FM-15+0017ROYN V0200301N010310090019N9999999N1+01401+00601999999ADDGA1021+003009999GA2071+009009999GA3081+015009999GF108991999999999999999999MA1102001999999MW1001REMMET088ROYN 0100Z 03020KT 7000 FEW010 BKN030 OVC050 14/06 Q1020 RMK 1CU010 5CU030 8SC050 A3014;EQDQ01+070002VODIS Q02+000000PRSWM2
0214479110999992000020802004+24470+122980FM-15+0017ROYN V0200201N008710120019N0112651N1+01501+00601999999ADDGA1021+003009999GA2021+009009999GA3071+012009999GF107991999999999999999999MA1102101999999MW1001REMMET088ROYN 0200Z 02017KT 9999 FEW010 SCT030 BKN040 15/06 Q1021 RMK 1CU010 3CU030 7SC040 A3015;EQDQ01+000000PRSWM2
0214479110999992000020803004+24470+122980FM-15+0017ROYN V0200101N008710120019N0112651N1+01401+00601999999ADDGA1021+003009999GA2021+009009999GA3071+012009999GF107991999999999999999999MA1102101999999MW1001REMMET088ROYN 0300Z 01017KT 9999 FEW010 SCT030 BKN040 14/06 Q1021 RMK 1CU010 3CU030 7SC040 A3015;EQDQ01+000000PRSWM2
0214479110999992000020804004+24470+122980FM-15+0017ROYN V0200201N008710150019N0112651N1+01501+00501999999ADDGA1021+003009999GA2021+009009999GA3071+015009999GF107991999999999999999999MA1102001999999MW1001REMMET088ROYN 0400Z 02017KT 9999 FEW010 SCT030 BKN050 15/05 Q1020 RMK 1CU010 3CU030 7SC050 A3013;EQDQ01+000000PRSWM2
0214479110999992000020805004+24470+122980FM-15+0017ROYN V0200201N009810120019N0112651N1+01501+00801999999ADDGA1021+003009999GA2021+009009999GA3071+012009999GF107991999999999999999999MA1101801999999MW1001REMMET088ROYN 0500Z 02019KT 9999 FEW010 SCT030 BKN040 15/08 Q1018 RMK 1CU010 3CU030 7SC040 A3009;EQDQ01+000000PRSWM2
0214479110999992000020806004+24470+122980FM-15+0017ROYN V0200301N010310120019N0112651N1+01501+00701999999ADDGA1021+003009999GA2021+009009999GA3071+012009999GF107991999999999999999999MA1101801999999MW1001REMMET088ROYN 0600Z 03020KT 9999 FEW010 SCT030 BKN040 15/07 Q1018 RMK 1CU010 3CU030 7SC040 A3009;EQDQ01+000000PRSWM2
0214479110999992000020807004+24470+122980FM-15+0017ROYN V0200301N010310120019N0112651N1+01501+00701999999ADDGA1021+003009999GA2021+009009999GA3071+012009999GF107991999999999999999999MA1101801999999MW1001REMMET088ROYN 0700Z 03020KT 9999 FEW010 SCT030 BKN040 15/07 Q1018 RMK 1CU010 3CU030 7SC040 A3008;EQDQ01+000000PRSWM2
0184479110999992000020900004+24470+122980FM-15+0017ROYN V0200501N006210150019N0112651N1+01501+00601999999ADDGA1021+003009999GA2071+015009999GF107991999999999999999999MA1102201999999MW1001REMMET074ROYN 0000Z 05012KT 9999 FEW010 BKN050 15/06 Q1022 RMK 2CU010 7SC050 A3018;EQDQ01+000000PRSWM2
0184479110999992000020901004+24470+122980FM-15+0017ROYN V0200601N005710150019N0112651N1+01601+00701999999ADDGA1021+003009999GA2071+015009999GF107991999999999999999999MA1102201999999MW1001REMMET074ROYN 0100Z 06011KT 9999 FEW010 BKN050 16/07 Q1022 RMK 1CU010 7SC050 A3019;EQDQ01+000000PRSWM2
