0170542590999992000010100004+42100+124950FM-12+023599999V0209999C000010120019N0070001N1-01231-01541103081ADDAA106000091GF108991081051012501999999MD1710051-0201MW1041REMSYN082AAXX  01001 54259 31657 80000 11123 21154 40308 57005 70400 885// 333 05209 92511;EQDQ01  00002PRCP06
0112542590999992000010103004+42100+124950FM-12+023599999V0209999C000010120019N0120001N1-00711-01231102861ADDGF108991081051012501999999MD1710191+9999REMSYN060AAXX  01031 54259 42662 80000 11071 21123 40286 57019 885//;
0165542590999992000010106004+42100+124950FM-12+023599999V0209999C000010120019N0120001N1-00151-01001102481ADDAA106000091GF108991081051012501999999KA1999N-01511MD1710351+9999REMSYN070AAXX  01061 54259 32662 80000 11015 21100 40248 57035 885// 333 21151;EQDQ01  00002PRCP06
0112542590999992000010109004+42100+124950FM-12+023599999V0200701N001010120019N0120001N1-00161+99999102341ADDGF108991081051012501999999MD1710131+9999REMSYN060AAXX  01091 54259 42662 80701 11016 21//7 40234 57013 885//;
0142542590999992000010112004+42100+124950FM-12+023599999V0209999C000010120019N0120001N1-00281-00811102121ADDAA106000091GF108991081051012501999999MD1710211+9999REMSYN060AAXX  01121 54259 32662 80000 11028 21081 40212 57021 885//;EQDQ01  00002PRCP06
0172542590999992000010118004+42100+124950FM-12+023599999V0209999C000010042019N0060001N1-00141-00231101441ADDAA106003091AY171061GF108991081001004501021999KA1999M+00121MD1710351+9999MW1711REMSYN082AAXX  01181 54259 11456 80000 11014 21023 40144 57035 60031 77170 8802/ 333 10012;
0161542590999992000010121004+42100+124950FM-12+023599999V0202901N004019999999N0070001N1-00181-00301101221ADDAA124005691AY171031AY271031GF108991081001999999021999MD1710221+9999MW1711REMSYN076AAXX  01211 54259 41957 82904 11018 21030 40122 57022 77177 8802/ 333 70055;
0179542590999992000010200004+42100+124950FM-12+023599999V0202901N003019999999N0060001N1-00811-01101101591ADDAA106004191AY171061AY271061GF108991081001999999021999MD1210321-1401MW1711REMSYN094AAXX  02001 54259 11956 82903 11081 21110 40159 52032 60041 77177 8802/ 333 06404 70068 92518;
0140542590999992000010203004+42100+124950FM-12+023599999V0202501N006010120019N0110001N1-01171-01511101971ADDAY171031AY271031GF106991061051012501001001MD1210361+9999MW1701REMSYN066AAXX  02031 54259 41661 62506 11117 21151 40197 52036 77077 86500;
0172542590999992000010206004+42100+124950FM-12+023599999V0202501N004010120019N0200001N1-01111-01701101991ADDAA106000791AY171061GF106991061051012501001001KA1999N-01181MD1210021+9999MW1001REMSYN082AAXX  02061 54259 11670 62504 11111 21170 40199 52002 69901 70070 86500 333 21118;
0124542590999992000010209004+42100+124950FM-12+023599999V0202501N003010120019N0150001N1-01431-01951102391ADDGF107991071051012501999999MD1210371+9999MW1701REMSYN066AAXX  02091 54259 41665 72503 11143 21195 40239 52037 77000 875//;
0149542590999992000010212004+42100+124950FM-12+023599999V0202201N002010120019N0150001N1-01631-01961102561ADDAA106000791AY171061GF107991071051012501999999MD1210111+9999MW1701REMSYN072AAXX  02121 54259 11665 72202 11163 21196 40256 52011 69901 77070 875//;
0172542590999992000010218004+42100+124950FM-12+023599999V0209999C000012200019N0120001N1-02281-02451102841ADDAA106000791AY171061GF102991001001999999001021KA1999M-00101MD1210061+9999MW1001REMSYN082AAXX  02181 54259 11962 20000 11228 21245 40284 52006 69901 70070 80002 333 11010;
0150542590999992000010221004+42100+124950FM-12+023599999V0202501N001012200019N0120001N1-02491-02671102921ADDAY111031AY231031GA1001+999999999GF100991001001999999001001MD1210041+9999MW1001REMSYN060AAXX  02211 54259 42962 02501 11249 21267 40292 52004 70013;
0176542590999992000010300004+42100+124950FM-12+023599999V0209999C000012200019N0050001N1-02611-02801103101ADDAA106000091GF101991001001999999001021MD1210161+1301MW1041REMSYN088AAXX  03001 54259 31950 10000 11261 21280 40310 52016 70400 80002 333 01368 79999 92518;EQDQ01  00002PRCP06
0124542590999992000010303004+42100+124950FM-12+023599999V0201601N001019999999N0080001N1-02151-02451103061ADDGF107991001001999999001021MD1710031+9999MW1041REMSYN066AAXX  03031 54259 41958 71601 11215 21245 40306 57003 70400 80002;
0165542590999992000010306004+42100+124950FM-12+023599999V0201801N001019999999N0120001N1-01601-02111102861ADDAA106000091GF107991001001999999001021KA1999N-02621MD1710181+9999REMSYN070AAXX  03061 54259 32962 71801 11160 21211 40286 57018 80002 333 21262;EQDQ01  00002PRCP06
0112542590999992000010309004+42100+124950FM-12+023599999V0209999C000012200019N0120001N1-01561-01961102961ADDGF101991001001999999001021MD1210081+9999REMSYN060AAXX  03091 54259 42962 10000 11156 21196 40296 52008 80002;
0152542590999992000010312004+42100+124950FM-12+023599999V0201101N001012200019N0120001N1-01791-02081103001ADDAA106000091GA1001+999999999GF100991001001999999001001MD1210021+9999REMSYN054AAXX  03121 54259 32962 01101 11179 21208 40300 52002;EQDQ01  00002PRCP06
0175542590999992000010318004+42100+124950FM-12+023599999V0209999C000012200019N0150001N1-02231-02461103041ADDAA106000091GA1001+999999999GF100991001001999999001001KA1999M-01411MD1210031+9999REMSYN064AAXX  03181 54259 32965 00000 11223 21246 40304 52003 333 11141;EQDQ01  00002PRCP06
0122542590999992000010321004+42100+124950FM-12+023599999V0209999C000012200019N0150001N1-02311-02541103031ADDGA1001+999999999GF100991001001999999001001MD1710021+9999REMSYN054AAXX  03211 54259 42965 00000 11231 21254 40303 57002;
0170542590999992000010400004+42100+124950FM-12+023599999V0201101N001010120019N0080001N1-02111-02371103061ADDAA106000091GF107991061051012501001021MD1210031+0001MW1041REMSYN082AAXX  04001 54259 31658 71101 11211 21237 40306 52003 70400 86502 333 00005 92518;EQDQ01  00002PRCP06
0132542590999992000010403004+42100+124950FM-12+023599999V0209999C000010120019N0070001N1-01561-01921103021ADDAY171031GF108991081051012501999999MD1710021+9999MW1701REMSYN066AAXX  04031 54259 41657 80000 11156 21192 40302 57002 77070 885//;
0172542590999992000010406004+42100+124950FM-12+023599999V0209999C000010120019N0120001N1-01011-01451102891ADDAA106000791AY171061GF108991081051012501999999KA1999N-02311MD1710101+9999MW1701REMSYN082AAXX  04061 54259 11662 80000 11101 21145 40289 57010 69901 77070 885// 333 21231;
0140542590999992000010409004+42100+124950FM-12+023599999V0209999C000010120019N0070001N1-00931-01141102911ADDAY171031AY271031GF108991081051012501999999MD1210021+9999MW1701REMSYN066AAXX  04091 54259 41657 80000 11093 21114 40291 52002 77077 885//;
0149542590999992000010412004+42100+124950FM-12+023599999V0200901N002010120019N0120001N1-01041-01321102961ADDAA106000791AY171061GF108991081051012501999999MD1210051+9999MW1001REMSYN072AAXX  04121 54259 11662 80902 11104 21132 40296 52005 69901 70070 885//;
0152542590999992000010418004+42100+124950FM-12+023599999V0200901N001010120019N0120001N1-01041-01241102841ADDAA106000191AY171061GF108991081051012501999999KA1999M-00911MW1701REMSYN076AAXX  04181 54259 11662 80901 11104 21124 40284 69911 77070 885// 333 11091;
0161542590999992000010421004+42100+124950FM-12+023599999V0200701N001010120019N0120001N1-01011-01211102841ADDAA124000591AY171031AY271031GF108991081051012501999999MD1410001+9999MW1701REMSYN076AAXX  04211 54259 41662 80701 11101 21121 40284 54000 77077 885// 333 70004;
0179542590999992000010500004+42100+124950FM-12+023599999V0200701N002010120019N0070001N1-00951-01171102831ADDAA106000591AY171061AY271061GF107991071051012501999999MD1710011-0101MW1701REMSYN094AAXX  05001 54259 11657 70702 11095 21117 40283 57001 69941 77077 875// 333 05112 70005 92521;
0142542590999992000010503004+42100+124950FM-12+023599999V0200701N001012200019N0100001N1-00771-01201102631ADDAY171031GA1001+999999999GF100991001001999999001001MD1710181+9999MW1001REMSYN060AAXX  05031 54259 41960 00701 11077 21120 40263 57018 70070;
0172542590999992000010506004+42100+124950FM-12+023599999V0200701N002010120019N0120001N1-00421-00921102351ADDAA106000791AY171061GF107991071051012501999999KA1999N-01091MD1710251+9999MW1001REMSYN082AAXX  05061 54259 11662 70702 11042 21092 40235 57025 69901 70070 875// 333 21109;
0132542590999992000010509004+42100+124950FM-12+023599999V0200701N003010120019N0080001N1-00561-00921102351ADDAY171031GF108991081051012501999999MD1710011+9999MW1701REMSYN066AAXX  05091 54259 41658 80703 11056 21092 40235 57001 77070 885//;
0149542590999992000010512004+42100+124950FM-12+023599999V0200701N002010120019N0080001N1-00721-00941102281ADDAA106000191AY171061GF108991081051012501999999MD1710071+9999MW1701REMSYN072AAXX  05121 54259 11658 80702 11072 21094 40228 57007 69911 77070 885//;
0157542590999992000010518004+42100+124950FM-12+023599999V0202501N005010120019N0060001N1-01241-01441102031ADDAA106002091AY171061AY271061GF108991081001012501021999MD1210011+9999MW1711REMSYN072AAXX  05181 54259 11656 82505 11124 21144 40203 52001 60021 77177 8802/;
0161542590999992000010521004+42100+124950FM-12+023599999V0202501N003010120019N0050001N1-01481-01671102031ADDAA124004191AY171031AY271031GF108991081001012501021999MD1710021+9999MW1711REMSYN076AAXX  05211 54259 41650 82503 11148 21167 40203 57002 77177 8802/ 333 70040;
0126542590999992000010603004+42100+124950FM-12+023599999V0202201N005019999999N0100001N1-01671-02041102241ADDAY171031GF107991999999012501999999MD1210031+9999MW1701REMSYN060AAXX  06031 54259 41660 72205 11167 21204 40224 52003 77070;
0172542590999992000010606004+42100+124950FM-12+023599999V0203201N002010120019N0150001N1-01571-02051102101ADDAA106999999AY171061GF106991061051012501001001KA1999N-01681MD1710161+9999MW1221REMSYN082AAXX  06061 54259 11665 63202 11157 21205 40210 57016 66/01 72270 86500 333 21168;
0112542590999992000010609004+42100+124950FM-12+023599999V0202901N002012200019N0200001N1-01851-02531102281ADDGF102991001001999999001021MD1210141+9999REMSYN060AAXX  06091 54259 42970 22902 11185 21253 40228 52014 80002;
0133542590999992000010612004+42100+124950FM-12+023599999V0202501N005012200019N0150001N1-02111-02441102351ADDAA106000021GA1001+999999999GF100991001001999999001001MD1210041+9999REMSYN054AAXX  06121 54259 32965 02505 11211 21244 40235 52004;
0152542590999992000010618004+42100+124950FM-12+023599999V0202501N003012200019N0150001N1-02141-02571102321ADDAA106000091GA1001+999999999GF100991001001999999001001MD1210031+9999REMSYN054AAXX  06181 54259 32965 02503 11214 21257 40232 52003;EQDQ01  00002PRCP06
0143542590999992000010621004+42100+124950FM-12+023599999V0202501N006012200019N0150001N1-02151-02691102351ADDAA124000891GA1001+999999999GF100991001001999999001001MD1210011+9999REMSYN064AAXX  06211 54259 42965 02506 11215 21269 40235 52001 333 70008;
0164542590999992000010700004+42100+124950FM-12+023599999V0202501N004019999999N0120001N1-02131-02721102411ADDAA106000091GF106991001001999999001021MD1210041+0101REMSYN082AAXX  07001 54259 32962 62504 11213 21272 40241 52004 80002 333 00155 79999 92522;EQDQ01  00002PRCP06
0112542590999992000010703004+42100+124950FM-12+023599999V0202201N009019999999N0300001N1-01801-02641102341ADDGF107991001001999999001021MD1710051+9999REMSYN060AAXX  07031 54259 42980 72209 11180 21264 40234 57005 80002;
0188542590999992000010706004+42100+124950FM-12+023599999V0202201N011010120019N0300001N1-01621-02541102191ADDAA106000091GF107991061051012501001021KA1240N-02241MD1710131+9999OA130601801REMSYN082AAXX  07061 54259 32680 72211 11162 21254 40219 57013 86502 333 21224 91118 91525;EQDQ01  00002PRCP06
0122542590999992000010709004+42100+124950FM-12+023599999V0202501N003012200019N0300001N1-01721-02671102211ADDGA1001+999999999GF100991001001999999001001MD1210011+9999REMSYN054AAXX  07091 54259 42980 02503 11172 21267 40221 52001;
0173542590999992000010712004+42100+124950FM-12+023599999V0209999C000012200019N0200001N1+99999+99999102201ADDAA106000091GA1001+999999999GF100991001001999999001001MD1710011+9999OA130601901REMSYN064AAXX  07121 54259 32970 00000 21266 40220 57001 333 91119 91522;EQDQ01  00002PRCP06
0175542590999992000010718004+42100+124950FM-12+023599999V0209999C000012200019N0150001N1-02351-02671102251ADDAA106000091GA1001+999999999GF100991001001999999001001KA1999M-01561MD1210041+9999REMSYN064AAXX  07181 54259 32965 00000 11235 21267 40225 52004 333 11156;EQDQ01  00002PRCP06
0122542590999992000010721004+42100+124950FM-12+023599999V0209999C000012200019N0150001N1-02561-02771102301ADDGA1001+999999999GF100991001001999999001001MD1210031+9999REMSYN054AAXX  07211 54259 42965 00000 11256 21277 40230 52003;
0180542590999992000010800004+42100+124950FM-12+023599999V0209999C000012200019N0070001N1-02531-02721102471ADDAA106000091GA1001+999999999GF100991001001999999001001MD1210161+0101MW1041REMSYN076AAXX  08001 54259 31957 00000 11253 21272 40247 52016 70400 333 00154 92520;EQDQ01  00002PRCP06
0122542590999992000010803004+42100+124950FM-12+023599999V0209999C000012200019N0150001N1-01521-02181102451ADDGA1001+999999999GF100991001001999999001001MD1210021+9999REMSYN054AAXX  08031 54259 42965 00000 11152 21218 40245 52002;
0175542590999992000010806004+42100+124950FM-12+023599999V0202201N005012200019N0300001N1-01061-02351102391ADDAA106000091GA1001+999999999GF100991001001999999001001KA1999N-02631MD1710041+9999REMSYN064AAXX  08061 54259 32980 02205 11106 21235 40239 57004 333 21263;EQDQ01  00002PRCP06
0122542590999992000010809004+42100+124950FM-12+023599999V0209999C000012200019N0250001N1-01421-02421102511ADDGA1001+999999999GF100991001001999999001001MD1210081+9999REMSYN054AAXX  08091 54259 42975 00000 11142 21242 40251 52008;
0152542590999992000010812004+42100+124950FM-12+023599999V0209999C000012200019N0150001N1-01931-02331102681ADDAA106000091GA1001+999999999GF100991001001999999001001MD1210141+9999REMSYN054AAXX  08121 54259 32965 00000 11193 21233 40268 52014;EQDQ01  00002PRCP06
0165542590999992000010818004+42100+124950FM-12+023599999V0209999C000012200019N0150001N1-02501-02701999999ADDAA106000091GF101991001001999999001021KA1999M-01051MD1710011+9999REMSYN070AAXX  08181 54259 32965 10000 11250 21270 40/72 57001 80002 333 11105;EQDQ01  00002PRCP06
0122542590999992000010821004+42100+124950FM-12+023599999V0209999C000012200019N0150001N1-02621-02821102721ADDGA1001+999999999GF100991001001999999001001MD1710031+9999REMSYN054AAXX  08211 54259 42965 00000 11262 21282 40272 57003;
0170542590999992000010900004+42100+124950FM-12+023599999V0209999C000010120019N0070001N1-02431-02631102681ADDAA106000091GF107991071051012501999999MD1710061+9999MW1041REMSYN082AAXX  09001 54259 31657 70000 11243 21263 40268 57006 70400 875// 333 00/01 92520;EQDQ01  00002PRCP06
0124542590999992000010903004+42100+124950FM-12+023599999V0209999C000012200019N0080001N1-01591-02071102461ADDGF104991001001999999001021MD1710181+9999MW1041REMSYN066AAXX  09031 54259 41958 40000 11159 21207 40246 57018 70400 80002;
0165542590999992000010906004+42100+124950FM-12+023599999V0209999C000010120019N0120001N1-00831-01531102221ADDAA106000091GF107991061051012501001021KA1999N-02621MD1710201+9999REMSYN070AAXX  09061 54259 32662 70000 11083 21153 40222 57020 86502 333 21262;EQDQ01  00002PRCP06
0132542590999992000010909004+42100+124950FM-12+023599999V0209999C000010120019N0080001N1-00701-00831102231ADDAY171031GF108991081051012501999999MD1210011+9999MW1701REMSYN066AAXX  09091 54259 41658 80000 11070 21083 40223 52001 77070 885//;
0149542590999992000010912004+42100+124950FM-12+023599999V0209999C000010120019N0050001N1-00901-01061102261ADDAA106001091AY171061GF108991081051012501999999MD1210031+9999MW1701REMSYN072AAXX  09121 54259 11650 80000 11090 21106 40226 52003 60011 77070 885//;
0182542590999992000010918004+42100+124950FM-12+023599999V0209999C000012200019N0150001N1-01541-01731102531ADDAA106000191AY171061GA1001+999999999GF100991001001999999001001KA1999M-00651MD1210161+9999MW1001REMSYN076AAXX  09181 54259 11965 00000 11154 21173 40253 52016 69921 70070 333 11065;
0143542590999992000010921004+42100+124950FM-12+023599999V0209999C000012200019N0120001N1-02031-02191102861ADDAA124001591GA1001+999999999GF100991001001999999001001MD1210301+9999REMSYN064AAXX  09211 54259 42962 00000 11203 21219 40286 52030 333 70014;
0186542590999992000011000004+42100+124950FM-12+023599999V0209999C000012200019N0060001N1-02251-02431103231ADDAA106000091GA1001+999999999GF100991001001999999001001MD1210331+0601MW1041REMSYN082AAXX  10001 54259 31956 00000 11225 21243 40323 52033 70400 333 00602 70014 92522;EQDQ01  00002PRCP06
0122542590999992000011003004+42100+124950FM-12+023599999V0209999C000012200019N0120001N1-01511-02031103311ADDGA1001+999999999GF100991001001999999001001MD1210121+9999REMSYN054AAXX  10031 54259 42962 00000 11151 21203 40331 52012;
0165542590999992000011006004+42100+124950FM-12+023599999V0202501N001012200019N0300001N1-01071-02031103281ADDAA106000091GF101991001001999999001011KA1999N-02251MD1710041+9999REMSYN070AAXX  10061 54259 32980 12501 11107 21203 40328 57004 80001 333 21225;EQDQ01  00002PRCP06
0122542590999992000011009004+42100+124950FM-12+023599999V0209999C000012200019N0200001N1-01421-02101103551ADDGA1001+999999999GF100991001001999999001001MD1210211+9999REMSYN054AAXX  10091 54259 42970 00000 11142 21210 40355 52021;
0152542590999992000011012004+42100+124950FM-12+023599999V0209999C000012200019N0150001N1-01861-02211103851ADDAA106000091GA1001+999999999GF100991001001999999001001MD1210251+9999REMSYN054AAXX  10121 54259 32965 00000 11186 21221 40385 52025;EQDQ01  00002PRCP06
0175542590999992000011018004+42100+124950FM-12+023599999V0209999C000012200019N0200001N1-02451-02691103831ADDAA106000091GA1001+999999999GF100991001001999999001001KA1999M-01051MD1710041+9999REMSYN064AAXX  10181 54259 32970 00000 11245 21269 40383 57004 333 11105;EQDQ01  00002PRCP06
0122542590999992000011021004+42100+124950FM-12+023599999V0209999C000012200019N0200001N1-02641-02871103871ADDGA1001+999999999GF100991001001999999001001MD1210011+9999REMSYN054AAXX  10211 54259 42970 00000 11264 21287 40387 52001;
0180542590999992000011100004+42100+124950FM-12+023599999V0209999C000012200019N0080001N1-02691-02921103901ADDAA106000091GA1001+999999999GF100991001001999999001001MD1710011+0601MW1041REMSYN076AAXX  11001 54259 31958 00000 11269 21292 40390 57001 70400 333 00654 92520;EQDQ01  00002PRCP06
0112542590999992000011103004+42100+124950FM-12+023599999V0209999C000019999999N0100001N1-01711-02221103681ADDGF106991001001999999001021MD1710171+9999REMSYN060AAXX  11031 54259 42960 60000 11171 21222 40368 57017 80002;
0165542590999992000011106004+42100+124950FM-12+023599999V0200701N001019999999N0300001N1-01031-01971103381ADDAA106000091GF107991001001999999001021KA1999N-02701MD1710261+9999REMSYN070AAXX  11061 54259 32980 70701 11103 21197 40338 57026 80002 333 21270;EQDQ01  00002PRCP06
0112542590999992000011109004+42100+124950FM-12+023599999V0200701N002012200019N0150001N1-01261-02101103351ADDGF102991001001999999001021MD1710061+9999REMSYN060AAXX  11091 54259 42965 20702 11126 21210 40335 57006 80002;
0142542590999992000011112004+42100+124950FM-12+023599999V0209999C000012200019N0150001N1-01371-02081103351ADDAA106000091GF102991001001999999001021MD1710011+9999REMSYN060AAXX  11121 54259 32965 20000 11137 21208 40335 57001 80002;EQDQ01  00002PRCP06
0165542590999992000011118004+42100+124950FM-12+023599999V0209999C000010120019N0150001N1-01281-01951103021ADDAA106000091GF108991081051012501999999KA1999M-01011MD1710091+9999REMSYN070AAXX  11181 54259 32665 80000 11128 21195 40302 57009 885// 333 11101;EQDQ01  00002PRCP06
0112542590999992000011121004+42100+124950FM-12+023599999V0209999C000010120019N0150001N1-01271-01851102851ADDGF108991081051012501999999MD1710181+9999REMSYN060AAXX  11211 54259 42665 80000 11127 21185 40285 57018 885//;
0170542590999992000011200004+42100+124950FM-12+023599999V0209999C000010120019N0030001N1-01221-01771102811ADDAA106000091GF108991081051012501999999MD1710041-0901MW1041REMSYN082AAXX  12001 54259 31630 80000 11122 21177 40281 57004 70400 885// 333 05915 92520;EQDQ01  00002PRCP06
0132542590999992000011203004+42100+124950FM-12+023599999V0209999C000010120019N0080001N1-00951-01331102611ADDAY171031GF107991061051012501001021MD1710181+9999MW1701REMSYN066AAXX  12031 54259 41658 70000 11095 21133 40261 57018 77070 86502;
0172542590999992000011206004+42100+124950FM-12+023599999V0209999C000010120019N0080001N1-00771-01101102431ADDAA106000591AY171061GF108991061051012501021999KA1999N-01381MD1710161+9999MW1711REMSYN082AAXX  12061 54259 11658 80000 11077 21110 40243 57016 69951 77170 8652/ 333 21138;
0140542590999992000011209004+42100+124950FM-12+023599999V0209999C000010120019N0060001N1-00751-00931102441ADDAY171031AY271031GF108991081051012501999999MD1210011+9999MW1701REMSYN066AAXX  12091 54259 41656 80000 11075 21093 40244 52001 77077 885//;
0157542590999992000011212004+42100+124950FM-12+023599999V0209999C000010120019N0080001N1-00891-01101102431ADDAA106001091AY171061AY271061GF108991081051012501999999MD1710011+9999MW1701REMSYN072AAXX  12121 54259 11658 80000 11089 21110 40243 57001 69991 77077 885//;
0180542590999992000011218004+42100+124950FM-12+023599999V0200701N001019999999N0060001N1-01101-01301102311ADDAA106000591AY171061AY271061GF108991081001999999021999KA1999M-00691MD1710041+9999MW1711REMSYN082AAXX  12181 54259 11956 80701 11110 21130 40231 57004 69951 77177 8802/ 333 11069;
0161542590999992000011221004+42100+124950FM-12+023599999V0209999C000010360019N0060001N1-01281-01571102331ADDAA124002391AY171031AY271031GF108991031051012501021999MD1210011+9999MW1701REMSYN076AAXX  12211 54259 41656 80000 11128 21157 40233 52001 77077 8352/ 333 70023;
0179542590999992000011300004+42100+124950FM-12+023599999V0209999C000010900019N0080001N1-01381-01711102411ADDAA106000591AY171061AY271061GF107991021051012501001021MD1210071-0401MW1701REMSYN094AAXX  13001 54259 11658 70000 11138 21171 40241 52007 69951 77077 82502 333 05452 70024 92522;
0132542590999992000011303004+42100+124950FM-12+023599999V0209999C000012200019N0150001N1-01081-01671102451ADDAY171031GF102991021051012501001001MD1210051+9999MW1001REMSYN066AAXX  13031 54259 41665 20000 11108 21167 40245 52005 70070 82500;
0172542590999992000011306004+42100+124950FM-12+023599999V0203601N001012200019N0200001N1-01041-01731102431ADDAA106000191AY171061GF101991011051012501001001KA1999N-01391MD1710021+9999MW1001REMSYN082AAXX  13061 54259 11670 13601 11104 21173 40243 57002 69911 70070 81500 333 21139;
0112542590999992000011309004+42100+124950FM-12+023599999V0203601N001012200019N0150001N1-01311-02001102651ADDGF101991001001999999001021MD1210181+9999REMSYN060AAXX  13091 54259 42965 13601 11131 21200 40265 52018 80002;
0142542590999992000011312004+42100+124950FM-12+023599999V0209999C000012200019N0200001N1-01791-02171102781ADDAA106000091GF101991001001999999001011MD1210091+9999REMSYN060AAXX  13121 54259 32970 10000 11179 21217 40278 52009 80001;EQDQ01  00002PRCP06
0175542590999992000011318004+42100+124950FM-12+023599999V0209999C000012200019N0150001N1-02561-02791102911ADDAA106000091GA1001+999999999GF100991001001999999001001KA1999M-01001MD1210031+9999REMSYN064AAXX  13181 54259 32965 00000 11256 21279 40291 52003 333 11100;EQDQ01  00002PRCP06
0137542590999992000011321004+42100+124950FM-12+023599999V0209999C000012200019N0150001N1-02731-02961102911ADDAA124000391GF101991001001999999001021MD1710021+9999REMSYN074    AAXX  13211 54259 42965 10000 11273 21296 40291 57002 80002 333 70002;
0161542590999992000011400004+42100+124950FM-12+023599999V0209999C000019999999N0050001N1-02771-03001102991ADDAA124000191GF107991001001999999001021MD1210041+0401MW1041REMSYN092    AAXX  14001 54259 31950 70000 11277 21300 40299 52004 70400 80002 333 00464 70001 92523;
0128542590999992000011403004+42100+124950FM-12+023599999V0209999C000019999999N0080001N1-02101-02501102931ADDGF107991001001999999001021MD1710041+9999MW1041REMSYN070    AAXX  14031 54259 41958 70000 11210 21250 40293 57004 70400 80002;
0169542590999992000011406004+42100+124950FM-12+023599999V0209999C000019999999N0150001N1-01311-01961102791ADDAA199000091GF107991001001999999001021KA1999N-02811MD1710111+9999REMSYN074    AAXX  14061 54259 32965 70000 11131 21196 40279 57011 80002 333 21281;EQDQ01  00002PRCP99
0156542590999992000011412004+42100+124950FM-12+023599999V0209999C000012200019N0120001N1-01951-02201103231ADDAA199000091GA1001+999999999GF100991001001999999001001MD1210191+9999REMSYN058    AAXX  14121 54259 32962 00000 11195 21220 40323 52019;EQDQ01  00002PRCP99
0179542590999992000011418004+42100+124950FM-12+023599999V0209999C000012200019N0150001N1-02521-02721103311ADDAA199000091GA1001+999999999GF100991001001999999001001KA1999M-01161MD1210131+9999REMSYN068    AAXX  14181 54259 32965 00000 11252 21272 40331 52013 333 11116;EQDQ01  00002PRCP99
0126542590999992000011421004+42100+124950FM-12+023599999V0209999C000012200019N0150001N1-02711-02921103341ADDGA1001+999999999GF100991001001999999001001MD1410001+9999REMSYN058    AAXX  14211 54259 42965 00000 11271 21292 40334 54000;
0184542590999992000011500004+42100+124950FM-12+023599999V0209999C000012200019N0080001N1-02731-02941103441ADDAA199000091GA1001+999999999GF100991001001999999001001MD1210071+0401MW1041REMSYN080    AAXX  15001 54259 31958 00000 11273 21294 40344 52007 70400 333 00400 92522;EQDQ01  00002PRCP99
0128542590999992000011503004+42100+124950FM-12+023599999V0209999C000012200019N0080001N1-01981-02371103331ADDGF102991001001999999001021MD1710081+9999MW1041REMSYN070    AAXX  15031 54259 41958 20000 11198 21237 40333 57008 70400 80002;
0169542590999992000011506004+42100+124950FM-12+023599999V0209999C000019999999N0100001N1-01211-01791103071ADDAA199000091GF107991001001999999001021KA1999N-02751MD1710221+9999REMSYN074    AAXX  15061 54259 32960 70000 11121 21179 40307 57022 80002 333 21275;EQDQ01  00002PRCP99
0128542590999992000011509004+42100+124950FM-12+023599999V0209999C000019999999N0060001N1-01191-01641103081ADDGF107991001001999999001021MD1410001+9999MW1041REMSYN070    AAXX  15091 54259 41956 70000 11119 21164 40308 54000 70400 80002;
0158542590999992000011512004+42100+124950FM-12+023599999V0209999C000012200019N0080001N1-01411-01741103281ADDAA199000091GF104991001001999999001021MD1210181+9999MW1041REMSYN070    AAXX  15121 54259 31958 40000 11141 21174 40328 52018 70400 80002;EQDQ01  00002PRCP99
0179542590999992000011518004+42100+124950FM-12+023599999V0209999C000012200019N0150001N1-02101-02281103401ADDAA199000091GA1001+999999999GF100991001001999999001001KA1999M-01091MD1210101+9999REMSYN068    AAXX  15181 54259 32965 00000 11210 21228 40340 52010 333 11109;EQDQ01  00002PRCP99
0126542590999992000011521004+42100+124950FM-12+023599999V0209999C000012200019N0120001N1-02421-02601103511ADDGA1001+999999999GF100991001001999999001001MD1210081+9999REMSYN058    AAXX  15211 54259 42962 00000 11242 21260 40351 52008;
0184542590999992000011600004+42100+124950FM-12+023599999V0209999C000012200019N0060001N1-02601-02811103651ADDAA199000091GA1001+999999999GF100991001001999999001001MD1210121+0301MW1041REMSYN080    AAXX  16001 54259 31956 00000 11260 21281 40365 52012 70400 333 00301 92522;EQDQ01  00002PRCP99
0138542590999992000011603004+42100+124950FM-12+023599999V0209999C000012200019N0070001N1-01741-02141103531ADDGA1001+999999999GF100991001001999999001001MD1710091+9999MW1041REMSYN064    AAXX  16031 54259 41957 00000 11174 21214 40353 57009 70400;
0179542590999992000011606004+42100+124950FM-12+023599999V0209999C000012200019N0150001N1-00921-01601103301ADDAA199000091GA1001+999999999GF100991001001999999001001KA1999N-02611MD1710191+9999REMSYN068    AAXX  16061 54259 32965 00000 11092 21160 40330 57019 333 21261;EQDQ01  00002PRCP99
0126542590999992000011609004+42100+124950FM-12+023599999V0209999C000012200019N0120001N1-01171-01871103311ADDGA1001+999999999GF100991001001999999001001MD1710031+9999REMSYN058    AAXX  16091 54259 42962 00000 11117 21187 40331 57003;
0156542590999992000011612004+42100+124950FM-12+023599999V0209999C000012200019N0120001N1-01791-02071103441ADDAA199000091GA1001+999999999GF100991001001999999001001MD1210081+9999REMSYN058    AAXX  16121 54259 32962 00000 11179 21207 40344 52008;EQDQ01  00002PRCP99
0179542590999992000011618004+42100+124950FM-12+023599999V0209999C000012200019N0150001N1-02421-02611103261ADDAA199000091GA1001+999999999GF100991001001999999001001KA1999M-00841MD1710051+9999REMSYN068    AAXX  16181 54259 32965 00000 11242 21261 40326 57005 333 11084;EQDQ01  00002PRCP99
0126542590999992000011621004+42100+124950FM-12+023599999V0209999C000012200019N0150001N1-02641-02831103261ADDGA1001+999999999GF100991001001999999001001MD1710031+9999REMSYN058    AAXX  16211 54259 42965 00000 11264 21283 40326 57003;
0184542590999992000011700004+42100+124950FM-12+023599999V0209999C000012200019N0060001N1-02781-02971103321ADDAA199000091GA1001+999999999GF100991001001999999001001MD1210011-0401MW1041REMSYN080    AAXX  17001 54259 31956 00000 11278 21297 40332 52001 70400 333 05452 92522;EQDQ01  00002PRCP99
0126542590999992000011703004+42100+124950FM-12+023599999V0209999C000012200019N0120001N1-01871-02281103171ADDGA1001+999999999GF100991001001999999001001MD1710111+9999REMSYN058    AAXX  17031 54259 42962 00000 11187 21228 40317 57011;
0179542590999992000011706004+42100+124950FM-12+023599999V0209999C000012200019N0200001N1-00831-01671102871ADDAA199000091GA1001+999999999GF100991001001999999001001KA1999N-02781MD1710241+9999REMSYN068    AAXX  17061 54259 32970 00000 11083 21167 40287 57024 333 21278;EQDQ01  00002PRCP99
0126542590999992000011709004+42100+124950FM-12+023599999V0209999C000012200019N0150001N1-01231-01891102921ADDGA1001+999999999GF100991001001999999001001MD1210011+9999REMSYN058    AAXX  17091 54259 42965 00000 11123 21189 40292 52001;
0156542590999992000011712004+42100+124950FM-12+023599999V0209999C000012200019N0150001N1-01781-02171103001ADDAA199000091GA1001+999999999GF100991001001999999001001MD1210031+9999REMSYN058    AAXX  17121 54259 32965 00000 11178 21217 40300 52003;EQDQ01  00002PRCP99
0179542590999992000011718004+42100+124950FM-12+023599999V0209999C000012200019N0150001N1-02381-02581102871ADDAA199000091GA1001+999999999GF100991001001999999001001KA1999M-00731MD1710041+9999REMSYN068    AAXX  17181 54259 32965 00000 11238 21258 40287 57004 333 11073;EQDQ01  00002PRCP99
0126542590999992000011721004+42100+124950FM-12+023599999V0209999C000012200019N0120001N1-02621-02791102831ADDGA1001+999999999GF100991001001999999001001MD1710081+9999REMSYN058    AAXX  17211 54259 42962 00000 11262 21279 40283 57008;
0184542590999992000011800004+42100+124950FM-12+023599999V0209999C000012200019N0060001N1-02721-02921102921ADDAA199000091GA1001+999999999GF100991001001999999001001MD1210051-0401MW1041REMSYN080    AAXX  18001 54259 31956 00000 11272 21292 40292 52005 70400 333 05401 92522;EQDQ01  00002PRCP99
0126542590999992000011803004+42100+124950FM-12+023599999V0209999C000012200019N0120001N1-01851-02321102791ADDGA1001+999999999GF100991001001999999001001MD1710101+9999REMSYN058    AAXX  18031 54259 42962 00000 11185 21232 40279 57010;
0179542590999992000011806004+42100+124950FM-12+023599999V0202201N003012200019N0200001N1-00901-01791102491ADDAA199000091GA1001+999999999GF100991001001999999001001KA1999N-02731MD1710241+9999REMSYN068    AAXX  18061 54259 32970 02203 11090 21179 40249 57024 333 21273;EQDQ01  00002PRCP99
0126542590999992000011809004+42100+124950FM-12+023599999V0209999C000012200019N0150001N1-01201-01881102591ADDGA1001+999999999GF100991001001999999001001MD1210061+9999REMSYN058    AAXX  18091 54259 42965 00000 11120 21188 40259 52006;
0156542590999992000011812004+42100+124950FM-12+023599999V0209999C000012200019N0150001N1-01721-02071102781ADDAA199000091GA1001+999999999GF100991001001999999001001MD1210151+9999REMSYN058    AAXX  18121 54259 32965 00000 11172 21207 40278 52015;EQDQ01  00002PRCP99
0169542590999992000011818004+42100+124950FM-12+023599999V0209999C000012200019N0120001N1-02291-02471102761ADDAA199000091GF104991001001999999001021KA1999M-00781MD1410001+9999REMSYN074    AAXX  18181 54259 32962 40000 11229 21247 40276 54000 80002 333 11078;EQDQ01  00002PRCP99
0116542590999992000011821004+42100+124950FM-12+023599999V02099999999992200019N0120001N1-02491-02671102761ADDGF102991001001999999001021MD1710031+9999REMSYN064    AAXX  18211 54259 42962 200// 11249 21267 40276 57003 80002;
0175542590999992000011900004+42100+124950FM-12+023599999V0209999C000010900019N0060001N1-02511-02691102841ADDAA106000791AY171061GF107991021051012501001021MD1210051-0101MW1701REMSYN098    AAXX  19001 54259 11656 70000 11251 21269 40284 52005 69901 77070 82502 333 05102 79999 92522;
0136542590999992000011903004+42100+124950FM-12+023599999V0209999C000010120019N0070001N1-02051-02361102831ADDAY171031GF107991071051012501999999MD1710011+9999MW1701REMSYN070    AAXX  19031 54259 41657 70000 11205 21236 40283 57001 77070 875//;
0176542590999992000011906004+42100+124950FM-12+023599999V0202501N003010120019N0080001N1-01461-01781102691ADDAA106000791AY171061GF107991051051012501001021KA1999N-02551MD1710111+9999MW1701REMSYN086    AAXX  19061 54259 11658 72503 11146 21178 40269 57011 69901 77070 85502 333 21255;
0144542590999992000011909004+42100+124950FM-12+023599999V0202501N002010120019N0060001N1-01501-01801102861ADDAY171031AY271031GF108991081051012501999999MD1210151+9999MW1701REMSYN070    AAXX  19091 54259 41656 82502 11150 21180 40286 52015 77077 885//;
0161542590999992000011912004+42100+124950FM-12+023599999V0209999C000010120019N0090001N1-01201-02041103131ADDAA106000191AY171061AY271061GF107991061051012501001021MD1210251+9999MW1701REMSYN076    AAXX  19121 54259 11659 70000 1112/ 21204 40313 52025 69921 77077 86502;
0180542590999992000011918004+42100+124950FM-12+023599999V0209999C000010120019N0080001N1-02211-02381103361ADDAA106000391AY171061AY271061GF107991051051012501001021KA1999M-01451MD1210191+9999MW1701REMSYN082AAXX  19181 54259 11658 70000 11221 21238 40336 52019 69931 77077 85502 333 11145;
0139542590999992000011921004+42100+124950FM-12+023599999V0209999C000010120019N0080001N1-02321-02501103511ADDAA124000591GF108991081051012501999999MD1210131+9999REMSYN076AAXX  19211 54259 41658 80000 11232 21250 40351 52013 7/077 885// 333 70005;
0179542590999992000012000004+42100+124950FM-12+023599999V0209999C000010120019N0080001N1-02351-02531103771ADDAA106000191AY171061AY271061GF107991071051012501999999MD1210241+0901MW1701REMSYN094AAXX  20001 54259 11658 70000 11235 21253 40377 52024 69911 77077 875// 333 00902 70006 92523;
0122542590999992000012003004+42100+124950FM-12+023599999V0209999C000012200019N0150001N1-01811-02231103881ADDGA1001+999999999GF100991001001999999001001MD1210131+9999REMSYN054AAXX  20031 54259 42965 00000 11181 21223 40388 52013;
0146542590999992000012006004+42100+124950FM-12+023599999V0202201N003012200019N0200001N1-01401-01891103801ADDAA199000021GF101991011051012501001001KA1999N-02371MD1710071+9999REMSYN070AAXX  20061 54259 32670 12203 11140 21189 40380 57007 81500 333 21237;
0122542590999992000012009004+42100+124950FM-12+023599999V0209999C000012200019N0150001N1-01681-02021104021ADDGA1001+999999999GF100991001001999999001001MD1210181+9999REMSYN054AAXX  20091 54259 42965 00000 11168 21202 40402 52018;
0133542590999992000012012004+42100+124950FM-12+023599999V0209999C000012200019N0120001N1-02061-02241104291ADDAA199000021GA1001+999999999GF100991001001999999001001MD1210241+9999REMSYN054AAXX  20121 54259 32962 00000 11206 21224 40429 52024;
0175542590999992000012018004+42100+124950FM-12+023599999V0209999C000012200019N0150001N1-02651-02821104451ADDAA199000091GA1001+999999999GF100991001001999999001001KA1999M-01371MD1210131+9999REMSYN064AAXX  20181 54259 32965 00000 11265 21282 40445 52013 333 11137;EQDQ01  00002PRCP99
0143542590999992000012021004+42100+124950FM-12+023599999V0209999C000012200019N0150001N1-02851-03031104571ADDAA124000191GA1001+999999999GF100991001001999999001001MD1210081+9999REMSYN064AAXX  20211 54259 42965 00000 11285 21303 40457 52008 333 70001;
0180542590999992000012100004+42100+124950FM-12+023599999V0209999C000012200019N0080001N1-02921-03101104611ADDAA199000091GA1001+999999999GF100991001001999999001001MD1210011+0801MW1041REMSYN076AAXX  21001 54259 31958 00000 11292 21310 40461 52001 70400 333 00856 92522;EQDQ01  00002PRCP99
0134542590999992000012103004+42100+124950FM-12+023599999V0209999C000012200019N0080001N1-02011-02401104421ADDGA1001+999999999GF100991001001999999001001MD1710141+9999MW1041REMSYN060AAXX  21031 54259 41958 00000 11201 21240 40442 57014 70400;
0175542590999992000012106004+42100+124950FM-12+023599999V0209999C000012200019N0150001N1-01011-01911104101ADDAA199000091GA1001+999999999GF100991001001999999001001KA1999N-02941MD1710271+9999REMSYN064AAXX  21061 54259 32965 00000 11101 21191 40410 57027 333 21294;EQDQ01  00002PRCP99
0122542590999992000012109004+42100+124950FM-12+023599999V0209999C000012200019N0180001N1+99999+99999104021ADDGA1001+999999999GF100991001001999999001001MD1710101+9999REMSYN054AAXX  21091 54259 42968 00000 16129 21193 40402 57010;
0142542590999992000012112004+42100+124950FM-12+023599999V0209999C000012200019N0120001N1-01681-01931103951ADDAA199000091GF102991001001999999001021MD1710101+9999REMSYN060AAXX  21121 54259 32962 20000 11168 21193 40395 57010 80002;EQDQ01  00002PRCP99
0165542590999992000012118004+42100+124950FM-12+023599999V0209999C000019999999N0120001N1-01841-02051103561ADDAA199000091GF107991001001999999001021KA1999M-00891MD1710121+9999REMSYN070AAXX  21181 54259 32962 70000 11184 21205 40356 57012 80002 333 11089;EQDQ01  00002PRCP99
0112542590999992000012121004+42100+124950FM-12+023599999V0209999C000019999999N0120001N1-01621-01821103361ADDGF107991001001999999001021MD1710201+9999REMSYN060AAXX  21211 54259 42962 70000 11162 21182 40336 57020 80002;
0171542590999992000012200004+42100+124950FM-12+023599999V0209999C000010120019N0060001N1-01391-01561103291ADDAA106000591AY171061GF108991081051012501999999MD1710081-1201MW1701REMSYN094AAXX  22001 54259 11656 80000 11139 21156 40329 57008 69951 77070 885// 333 06215 70005 92522;
0132542590999992000012203004+42100+124950FM-12+023599999V0209999C000010360019N0050001N1-00811-01051103061ADDAY171031GF108991021051012501021999MD1710191+9999MW1711REMSYN066AAXX  22031 54259 41650 80000 11081 21105 40306 57019 77170 8252/;
0172542590999992000012206004+42100+124950FM-12+023599999V0202501N002010120019N0060001N1-00471-00641102731ADDAA106000591AY171061GF108991051051012501021999KA1999N-01871MD1710301+9999MW1701REMSYN082AAXX  22061 54259 11656 82502 11047 21064 40273 57030 69961 77070 8552/ 333 21187;
0140542590999992000012209004+42100+124950FM-12+023599999V0202501N002010120019N0080001N1-00471-00681102651ADDAY171031AY271031GF108991081051012501999999MD1710071+9999MW1701REMSYN066AAXX  22091 54259 41658 82502 11047 21068 40265 57007 77077 885//;
0157542590999992000012212004+42100+124950FM-12+023599999V0209999C000010120019N0080001N1-00541-00651102691ADDAA106000591AY171061AY271061GF108991081051012501999999MD1210051+9999MW1701REMSYN072AAXX  22121 54259 11658 80000 11054 21065 40269 52005 69961 77077 885//;
0180542590999992000012218004+42100+124950FM-12+023599999V0202501N002010120019N0080001N1-00481-00621102621ADDAA106000591AY171061AY271061GF108991081051012501999999KA1999M-00391MD1410001+9999MW1701REMSYN082AAXX  22181 54259 11658 82502 11048 21062 40262 54000 69941 77077 885// 333 11039;
0161542590999992000012221004+42100+124950FM-12+023599999V0202901N001010120019N0080001N1-00941-01321102881ADDAA124002391AY171031AY271031GF108991081051012501999999MD1210221+9999MW1701REMSYN076AAXX  22211 54259 41658 82901 11094 21132 40288 52022 77077 885// 333 70023;
0179542590999992000012300004+42100+124950FM-12+023599999V0203201N001010120019N0070001N1-01191-01531103141ADDAA106000391AY171061AY271061GF108991081051012501999999MD1210241-0101MW1701REMSYN094AAXX  23001 54259 11657 83201 11119 21153 40314 52024 69931 77077 885// 333 05102 70019 92526;
0140542590999992000012303004+42100+124950FM-12+023599999V0202201N001010900019N0080001N1-01181-01531103241ADDAY171031AY271031GF107991031051012501001021MD1210101+9999MW1221REMSYN066AAXX  23031 54259 41658 72201 11118 21153 40324 52010 72277 83502;
0172542590999992000012306004+42100+124950FM-12+023599999V0203201N003019999999N0100001N1-01051-01611103201ADDAA106000791AY171061GF107991001001999999001021KA1999N-01241MD1710031+9999MW1001REMSYN082AAXX  23061 54259 11960 73203 11105 21161 40320 57003 69901 70070 80002 333 21124;
0112542590999992000012309004+42100+124950FM-12+023599999V0203601N002010900019N0100001N1-01331-01821103521ADDGF107991021051012501001021MD1210261+9999REMSYN060AAXX  23091 54259 42660 73602 11133 21182 40352 52026 82502;
0133542590999992000012312004+42100+124950FM-12+023599999V0209999C000012200019N0100001N1-01741-02181103851ADDAA199000021GA1001+999999999GF100991001001999999001001MD1210291+9999REMSYN054AAXX  23121 54259 32960 00000 11174 21218 40385 52029;
0175542590999992000012318004+42100+124950FM-12+023599999V0209999C000012200019N0150001N1-02501-02761104161ADDAA199000091GA1001+999999999GF100991001001999999001001KA1999M-00481MD1210141+9999REMSYN064AAXX  23181 54259 32965 00000 11250 21276 40416 52014 333 11048;EQDQ01  00002PRCP99
0143542590999992000012321004+42100+124950FM-12+023599999V0209999C000012200019N0150001N1-02821-03061104281ADDAA124000191GA1001+999999999GF100991001001999999001001MD1210081+9999REMSYN064AAXX  23211 54259 42965 00000 11282 21306 40428 52008 333 70001;
0167542590999992000012400004+42100+124950FM-12+023599999V0209999C000012200019N0060001N1-03031-03281104411ADDAA124000791GA1001+999999999GF100991001001999999001001MD1210081+1001MW1041REMSYN082AAXX  24001 54259 31956 00000 11303 21328 40441 52008 70400 333 01068 79999 92526;
0134542590999992000012403004+42100+124950FM-12+023599999V0209999C000012200019N0080001N1-02191-02681104391ADDGA1001+999999999GF100991001001999999001001MD1210011+9999MW1041REMSYN060AAXX  24031 54259 41958 00000 11219 21268 40439 52001 70400;
0175542590999992000012406004+42100+124950FM-12+023599999V0203401N003012200019N0250001N1-01421-02331104221ADDAA199000091GA1001+999999999GF100991001001999999001001KA1999N-03031MD1710141+9999REMSYN064AAXX  24061 54259 32975 03403 11142 21233 40422 57014 333 21303;EQDQ01  00002PRCP99
0122542590999992000012409004+42100+124950FM-12+023599999V0209999C000012200019N0220001N1-01781-02801104291ADDGA1001+999999999GF100991001001999999001001MD1210031+9999REMSYN054AAXX  24091 54259 42972 00000 11178 21280 40429 52003;
0152542590999992000012412004+42100+124950FM-12+023599999V0209999C000012200019N0120001N1-02361-02781104411ADDAA199000091GA1001+999999999GF100991001001999999001001MD1210061+9999REMSYN054AAXX  24121 54259 32962 00000 11236 21278 40441 52006;EQDQ01  00002PRCP99
0175542590999992000012418004+42100+124950FM-12+023599999V0209999C000012200019N0150001N1-02991-03221104311ADDAA199000091GA1001+999999999GF100991001001999999001001KA1999M-01391MD1710021+9999REMSYN064AAXX  24181 54259 32965 00000 11299 21322 40431 57002 333 11139;EQDQ01  00002PRCP99
0122542590999992000012421004+42100+124950FM-12+023599999V0209999C000012200019N0150001N1-03111-03371104261ADDGA1001+999999999GF100991001001999999001001MD1710081+9999REMSYN054AAXX  24211 54259 42965 00000 11311 21337 40426 57008;
0180542590999992000012500004+42100+124950FM-12+023599999V0209999C000012200019N0060001N1-03191-03461104271ADDAA199000091GA1001+999999999GF100991001001999999001001MD1710031-0201MW1041REMSYN076AAXX  25001 54259 31956 00000 11319 21346 40427 57003 70400 333 05252 92526;EQDQ01  00002PRCP99
0134542590999992000012503004+42100+124950FM-12+023599999V0209999C000012200019N0080001N1-02171-02671104071ADDGA1001+999999999GF100991001001999999001001MD1710161+9999MW1041REMSYN060AAXX  25031 54259 41958 00000 11217 21267 40407 57016 70400;
0175542590999992000012506004+42100+124950FM-12+023599999V0202201N004012200019N0250001N1-01471-02231103801ADDAA199000091GA1001+999999999GF100991001001999999001001KA1999N-03201MD1710231+9999REMSYN064AAXX  25061 54259 32975 02204 11147 21223 40380 57023 333 21320;EQDQ01  00002PRCP99
0112542590999992000012509004+42100+124950FM-12+023599999V0202501N003012200019N0180001N1-01621-02351103861ADDGF102991001001999999001021MD1210041+9999REMSYN060AAXX  25091 54259 42968 22503 11162 21235 40386 52004 80002;
0152542590999992000012512004+42100+124950FM-12+023599999V0209999C000012200019N0150001N1-01901-02351103961ADDAA199000091GA1001+999999999GF100991001001999999001001MD1210071+9999REMSYN054AAXX  25121 54259 32965 00000 1119/ 21235 40396 52007;EQDQ01  00002PRCP99
0165542590999992000012518004+42100+124950FM-12+023599999V0209999C000019999999N0150001N1-02521-02711103991ADDAA199000091GF107991001001999999001021KA1999M-01401MD1210031+9999REMSYN070AAXX  25181 54259 32965 70000 11252 21271 40399 52003 80002 333 11140;EQDQ01  00002PRCP99
0153542590999992000012521004+42100+124950FM-12+023599999V0209999C000010900019N0120001N1-02581-02791104001ADDAA124999999AY171031GF107991031051012501001021MD1710011+9999MW1701REMSYN076AAXX  25211 54259 41662 70000 11258 21279 40400 57001 77070 83502 333 76/99;
0171542590999992000012600004+42100+124950FM-12+023599999V0209999C000012200019N0050001N1-02601-02801104051ADDAA106000791AY171061GF104991001001999999001021MD1210031-0201MW1041REMSYN094AAXX  26001 54259 11950 40000 11260 21280 40405 52003 69901 70470 80002 333 05206 79999 92526;
0122542590999992000012603004+42100+124950FM-12+023599999V0209999C000012200019N0100001N1-01811-02301104001ADDGA1001+999999999GF100991001001999999001001MD1710031+9999REMSYN054AAXX  26031 54259 42960 00000 11181 21230 40400 57003;
0146542590999992000012606004+42100+124950FM-12+023599999V0202001N001019999999N0150001N1-01091-01771103781ADDAA199000021GF107991001001999999001021KA1999N-02611MD1710171+9999REMSYN070AAXX  26061 54259 32965 72001 11109 21177 40378 57017 80002 333 21261;
0122542590999992000012609004+42100+124950FM-12+023599999V0209999C000012200019N0200001N1+99999+99999103951ADDGA1001+999999999GF100991001001999999001001MD1210151+9999REMSYN054AAXX  26091 54259 42970 00000 111/1 21195 40395 52015;
0152542590999992000012612004+42100+124950FM-12+023599999V0209999C000012200019N0150001N1-01831-02111104061ADDAA199000091GA1001+999999999GF100991001001999999001001MD1210071+9999REMSYN054AAXX  26121 54259 32965 00000 11183 21211 40406 52007;EQDQ01  00002PRCP99
0175542590999992000012618004+42100+124950FM-12+023599999V0209999C000012200019N0150001N1-02481-02661104121ADDAA199000091GA1001+999999999GF100991001001999999001001KA1999M-00971MD1210031+9999REMSYN064AAXX  26181 54259 32965 00000 11248 21266 40412 52003 333 11097;EQDQ01  00002PRCP99
0143542590999992000012621004+42100+124950FM-12+023599999V0209999C000012200019N0150001N1-02721-02891104131ADDAA124999999GA1001+999999999GF100991001001999999001001MD1710011+9999REMSYN064AAXX  26211 54259 42965 00000 11272 21289 40413 57001 333 799//;
0180542590999992000012700004+42100+124950FM-12+023599999V0209999C000012200019N0050001N1-02761-02931104261ADDAA199000091GA1001+999999999GF100991001001999999001001MD1210081+0201MW1041REMSYN076AAXX  27001 54259 31950 00000 11276 21293 40426 52008 70400 333 00252 92526;EQDQ01  00002PRCP99
0134542590999992000012703004+42100+124950FM-12+023599999V0209999C000012200019N0080001N1-01771-02231104151ADDGA1001+999999999GF100991001001999999001001MD1710061+9999MW1041REMSYN060AAXX  27031 54259 41958 00000 11177 21223 40415 57006 70400;
0175542590999992000012706004+42100+124950FM-12+023599999V0209999C000012200019N0220001N1-00751-01471103791ADDAA199000091GA1001+999999999GF100991001001999999001001KA1999N-02771MD1710361+9999REMSYN064AAXX  27061 54259 32972 00000 11075 21147 40379 57036 333 21277;EQDQ01  00002PRCP99
0122542590999992000012709004+42100+124950FM-12+023599999V0209999C000012200019N0180001N1-01051-01801103761ADDGA1001+999999999GF100991001001999999001001MD1710061+9999REMSYN054AAXX  27091 54259 42968 00000 11105 21180 40376 57006;
0152542590999992000012712004+42100+124950FM-12+023599999V0209999C000012200019N0120001N1-01671-01881103791ADDAA199000091GA1001+999999999GF100991001001999999001001MD1710021+9999REMSYN054AAXX  27121 54259 32962 00000 11167 21188 40379 57002;EQDQ01  00002PRCP99
0175542590999992000012718004+42100+124950FM-12+023599999V0209999C000012200019N0120001N1-02281-02441103701ADDAA199000091GA1001+999999999GF100991001001999999001001KA1999M-00611MD1410001+9999REMSYN064AAXX  27181 54259 32962 00000 11228 21244 40370 54000 333 11061;EQDQ01  00002PRCP99
0122542590999992000012721004+42100+124950FM-12+023599999V0209999C000012200019N0120001N1-02421-02571103661ADDGA1001+999999999GF100991001001999999001001MD1710061+9999REMSYN054AAXX  27211 54259 42962 00000 11242 21257 40366 57006;
0180542590999992000012800004+42100+124950FM-12+023599999V0209999C000012200019N0060001N1-02521-02681103701ADDAA199000091GA1001+999999999GF100991001001999999001001MD1710011-0501MW1041REMSYN076AAXX  28001 54259 31956 00000 11252 21268 40370 57001 70400 333 05502 92526;EQDQ01  00002PRCP99
0134542590999992000012803004+42100+124950FM-12+023599999V0209999C000012200019N0080001N1-01441-01941103501ADDGA1001+999999999GF100991001001999999001001MD1710141+9999MW1041REMSYN060AAXX  28031 54259 41958 00000 11144 21194 40350 57014 70400;
0175542590999992000012806004+42100+124950FM-12+023599999V0202201N001012200019N0250001N1-00302-01271103151ADDAA199000091GA1001+999999999GF100991001001999999001001KA1999N-02531MD1710291+9999REMSYN064AAXX  28061 54259 32975 02201 11030 21127 40315 57029 333 21253;EQDQ01  00002PRCP99
0134542590999992000012809004+42100+124950FM-12+023599999V0209999C000012200019N0080001N1-00611-01651103171ADDGA1001+999999999GF100991001001999999001001MD1710011+9999MW1041REMSYN060AAXX  28091 54259 41958 00000 11061 21165 40317 57001 70400;
0164542590999992000012812004+42100+124950FM-12+023599999V0209999C000012200019N0080001N1-01251-01531103301ADDAA199000091GA1001+999999999GF100991001001999999001001MD1210081+9999MW1041REMSYN060AAXX  28121 54259 31958 00000 11125 21153 40330 52008 70400;EQDQ01  00002PRCP99
0165542590999992000012818004+42100+124950FM-12+023599999V0209999C000012200019N0120001N1-01931-02081103271ADDAA199000091GF104991001001999999001021KA1999M-00221MD1210041+9999REMSYN070AAXX  28181 54259 32962 40000 11193 21208 40327 52004 80002 333 11022;EQDQ01  00002PRCP99
0124542590999992000012821004+42100+124950FM-12+023599999V0209999C000010120019N0080001N1-01751-01881103211ADDGF108991081051012501999999MD1710061+9999MW1041REMSYN066AAXX  28211 54259 41658 80000 11175 21188 40321 57006 70400 885//;
0163542590999992000012900004+42100+124950FM-12+023599999V0209999C000010120019N0050001N1-01571-01761103261ADDAA106000791GF108991081051012501999999MD1210021-0301MW1701REMSYN094AAXX  29001 54259 11650 80000 11157 21176 40326 52002 69901 77000 885// 333 05310 79999 92524;
0140542590999992000012903004+42100+124950FM-12+023599999V0209999C000010900019N0070001N1-00781-01331103191ADDAY171031AY271031GF107991041051012501001021MD1710051+9999MW1701REMSYN066AAXX  29031 54259 41657 70000 11078 21133 40319 57005 77077 84502;
0172542590999992000012906004+42100+124950FM-12+023599999V0202201N006010120019N0200001N1-00511-01001103141ADDAA106000791AY171061GF107991071051012501999999KA1999N-01951MD1710041+9999MW1001REMSYN082AAXX  29061 54259 11670 72206 11051 21100 40314 57004 69901 70070 875// 333 21195;
0112542590999992000012909004+42100+124950FM-12+023599999V0202201N005010900019N0140001N1-00801-01361103231ADDGF107991021051012501001021MD1210081+9999REMSYN060AAXX  29091 54259 42664 72205 11080 21136 40323 52008 82502;
0133542590999992000012912004+42100+124950FM-12+023599999V0203201N003012200019N0150001N1-01281-01791103481ADDAA199000021GA1001+999999999GF100991001001999999001001MD1210221+9999REMSYN054AAXX  29121 54259 32965 03203 11128 21179 40348 52022;
0172542590999992000012918004+42100+124950FM-12+023599999V0209999C000010900019N0080001N1-01771-01961103581ADDAA106000791AY171061GF107991021051012501001021KA1999M-00411MD1210031+9999MW1701REMSYN082AAXX  29181 54259 11658 70000 11177 21196 40358 52003 69901 77070 82502 333 11041;
0153542590999992000012921004+42100+124950FM-12+023599999V0209999C000010120019N0080001N1-02051-02211103771ADDAA124000791AY171031GF107991071051012501999999MD1210151+9999MW1101REMSYN076AAXX  29211 54259 41658 70000 11205 21221 40377 52015 71070 875// 333 79999;
0171542590999992000013000004+42100+124950FM-12+023599999V0209999C000010900019N0060001N1-01981-02141104011ADDAA106000791AY171061GF107991031051012501001021MD1210211+0701MW1701REMSYN094AAXX  30001 54259 11656 70000 11198 21214 40401 52021 69901 77070 83502 333 00754 79999 92524;
0140542590999992000013003004+42100+124950FM-12+023599999V0202701N002010120019N0120001N1-01431-01691104071ADDAY171031AY271031GF107991071051012501999999MD1210071+9999MW1701REMSYN066AAXX  30031 54259 41662 72702 11143 21169 40407 52007 77077 875//;
0180542590999992000013006004+42100+124950FM-12+023599999V0202501N004010120019N0200001N1-01121-01751104041ADDAA106000791AY171061AY271061GF107991061051012501001021KA1999N-02051MD1710021+9999MW1701REMSYN082AAXX  30061 54259 11670 72504 11112 21175 40404 57002 69901 77077 86502 333 21205;
0132542590999992000013009004+42100+124950FM-12+023599999V0202501N001012200019N0150001N1-01431-01881104281ADDAY171031GF104991041051012501001001MD1210201+9999MW1701REMSYN066AAXX  30091 54259 41665 42501 11143 21188 40428 52020 77070 84500;
0149542590999992000013012004+42100+124950FM-12+023599999V0209999C000010120019N0150001N1-01781-02071104451ADDAA106000791AY171061GF108991081051012501999999MD1210151+9999MW1001REMSYN072AAXX  30121 54259 11665 80000 11178 21207 40445 52015 69901 70070 885//;
0119542590999992000013018004+42100+124950FM-12+023599999V0209999C000019999999N0120001N1+99999+99999999999ADDGF107991999999999999999999REMSYN081AAXX  30181 54259 11962 70000 1126 21242 40450 52003 69901 77070 80002 333 11109;
0161542590999992000013021004+42100+124950FM-12+023599999V0209999C000019999999N0120001N1-02531-02711104531ADDAA124000791AY171031AY271031GF107991001001999999001021MD1710011+9999MW1701REMSYN076AAXX  30211 54259 41962 70000 11253 21271 40453 57001 77077 80002 333 79999;
0165542590999992000013100004+42100+124950FM-12+023599999V0209999C000012200019N0060001N1-02701-02871104701ADDAA106000791AY171061GF104991001001999999001021MD1999999+0601MW1041REMSYN088AAXX  31001 54259 11956 40000 11270 21287 40470 69901 70470 80002 333 00657 79999 92525;
0134542590999992000013103004+42100+124950FM-12+023599999V0209999C000012200019N0070001N1-01911-02301104641ADDGA1001+999999999GF100991001001999999001001MD1710021+9999MW1041REMSYN060AAXX  31031 54259 41957 00000 11191 21230 40464 57002 70400;
0156542590999992000013106004+42100+124950FM-12+023599999V0202201N003012200019N0200001N1-01121-01781104391ADDAA199000021GA1001+999999999GF100991001001999999001001KA1999N-02711MD1710211+9999REMSYN064AAXX  31061 54259 32970 02203 11112 21178 40439 57021 333 21271;
0122542590999992000013109004+42100+124950FM-12+023599999V0209999C000012200019N0150001N1-01471-02011104371ADDGA1001+999999999GF100991001001999999001001MD1710061+9999REMSYN054AAXX  31091 54259 42965 00000 11147 21201 40437 57006;
0164542590999992000013112004+42100+124950FM-12+023599999V0209999C000012200019N0080001N1-01901-02151104411ADDAA199000091GA1001+999999999GF100991001001999999001001MD1410001+9999MW1041REMSYN060AAXX  31121 54259 31958 00000 11190 21215 40441 54000 70400;EQDQ01  00002PRCP99
0175542590999992000013118004+42100+124950FM-12+023599999V0209999C000012200019N0150001N1-02591-02771104281ADDAA199000091GA1001+999999999GF100991001001999999001001KA1999M-01091MD1710071+9999REMSYN064AAXX  31181 54259 32965 00000 11259 21277 40428 57007 333 11109;EQDQ01  00002PRCP99
0143542590999992000013121004+42100+124950FM-12+023599999V0209999C000012200019N0150001N1-02811-02991104121ADDAA124000791GA1001+999999999GF100991001001999999001001MD1710191+9999REMSYN064AAXX  31211 54259 42965 00000 11281 21299 40412 57019 333 79999;
0180542590999992000020100004+42100+124950FM-12+023599999V0209999C000012200019N0070001N1-02871-03071104121ADDAA199000091GA1001+999999999GF100991001001999999001001MD1710031-0601MW1041REMSYN076AAXX  01001 54259 31957 00000 11287 21307 40412 57003 70400 333 05652 92525;EQDQ01  00002PRCP99
0134542590999992000020103004+42100+124950FM-12+023599999V0209999C000012200019N0080001N1-01841-02301103891ADDGA1001+999999999GF100991001001999999001001MD1710181+9999MW1041REMSYN060AAXX  01031 54259 41958 00000 11184 21230 40389 57018 70400;
0175542590999992000020106004+42100+124950FM-12+023599999V0202201N002012200019N0300001N1-00831-01601103491ADDAA199000091GA1001+999999999GF100991001001999999001001KA1999N-02891MD1710341+9999REMSYN064AAXX  01061 54259 32980 02202 11083 21160 40349 57034 333 21289;EQDQ01  00002PRCP99
0112542590999992000020109004+42100+124950FM-12+023599999V0209999C000019999999N0200001N1-01111-01831103411ADDGF107991001001999999001021MD1710111+9999REMSYN060AAXX  01091 54259 42970 70000 11111 21183 40341 57011 80002;
0152542590999992000020112004+42100+124950FM-12+023599999V0209999C000012200019N0120001N1-01661-01971103471ADDAA199000091GA1001+999999999GF100991001001999999001001MD1210021+9999REMSYN054AAXX  01121 54259 32962 00000 11166 21197 40347 52002;EQDQ01  00002PRCP99
0175542590999992000020118004+42100+124950FM-12+023599999V0209999C000012200019N0150001N1-02241-02381103401ADDAA199000091GA1001+999999999GF100991001001999999001001KA1999M-00751MD1210021+9999REMSYN064AAXX  01181 54259 32965 00000 11224 21238 40340 52002 333 11075;EQDQ01  00002PRCP99
0122542590999992000020121004+42100+124950FM-12+023599999V0209999C000012200019N0150001N1-02461-02601103391ADDGA1001+999999999GF100991001001999999001001MD1710041+9999REMSYN054AAXX  01211 54259 42965 00000 11246 21260 40339 57004;
0170542590999992000020200004+42100+124950FM-12+023599999V0209999C000019999999N0060001N1-02541-02691103461ADDAA199000091GF105991001001999999001021MD1210031-0601MW1041REMSYN082AAXX  02001 54259 31956 50000 11254 21269 40346 52003 70400 80002 333 05603 92525;EQDQ01  00002PRCP99
0153542590999992000020203004+42100+124950FM-12+023599999V0209999C000012200019N0080001N1-01432-02001103361ADDGA1001+999999999GF100991001001999999001001MD1710051+9999MW1041REMSYN060AAXX  02031 54259 41958 00000 11143 21200 40336 57005 70400;EQDQ01-001433ATOT  
0175542590999992000020206004+42100+124950FM-12+023599999V0202201N004012200019N0250001N1-00531-01641103121ADDAA199000091GA1001+999999999GF100991001001999999001001KA1999N-02581MD1710191+9999REMSYN064AAXX  02061 54259 32975 02204 11053 21164 40312 57019 333 21258;EQDQ01  00002PRCP99
0122542590999992000020209004+42100+124950FM-12+023599999V0209999C000012200019N0200001N1-00821-01891103061ADDGA1001+999999999GF100991001001999999001001MD1710091+9999REMSYN054AAXX  02091 54259 42970 00000 11082 21189 40306 57009;
0152542590999992000020212004+42100+124950FM-12+023599999V0209999C000012200019N0120001N1-01441-01851103121ADDAA199000091GA1001+999999999GF100991001001999999001001MD1210011+9999REMSYN054AAXX  02121 54259 32962 00000 11144 21185 40312 52001;EQDQ01  00002PRCP99
0175542590999992000020218004+42100+124950FM-12+023599999V0209999C000012200019N0150001N1-02221-02381103071ADDAA199000091GA1001+999999999GF100991001001999999001001KA1999M-00481MD1710011+9999REMSYN064AAXX  02181 54259 32965 00000 11222 21238 40307 57001 333 11048;EQDQ01  00002PRCP99
0122542590999992000020221004+42100+124950FM-12+023599999V0209999C000012200019N0150001N1-02361-02521103071ADDGA1001+999999999GF100991001001999999001001MD1710031+9999REMSYN054AAXX  02211 54259 42965 00000 11236 21252 40307 57003;
0180542590999992000020300004+42100+124950FM-12+023599999V0209999C000012200019N0060001N1-02291-02451103141ADDAA199000091GA1001+999999999GF100991001001999999001001MD1210041-0301MW1041REMSYN076AAXX  03001 54259 31956 00000 11229 21245 40314 52004 70400 333 05303 92525;EQDQ01  00002PRCP99
0134542590999992000020303004+42100+124950FM-12+023599999V0209999C000012200019N0080001N1-01361-01871103061ADDGA1001+999999999GF100991001001999999001001MD1710051+9999MW1041REMSYN060AAXX  03031 54259 41958 00000 11136 21187 40306 57005 70400;
0099542590999992000020305004+42100+124950FM-12+023599999V0200201N999999999999N0150001N1-00671-01351103011ADDMD1210101+9999REMSYN054AAXX  03051 54259 42965 /0250 11067 21135 40301 52010;EQDQ01+005003WOSPD 
0165542590999992000020306004+42100+124950FM-12+023599999V0202201N004012200019N0200001N1-00511-01101102891ADDAA199000091GF101991001001999999001011KA1999N-02391MD1710131+9999REMSYN070AAXX  03061 54259 32970 12204 11051 21110 40289 57013 80001 333 21239;EQDQ01  00002PRCP99
0122542590999992000020309004+42100+124950FM-12+023599999V0202501N003012200019N0150001N1-00671-01351103011ADDGA1001+999999999GF100991001001999999001001MD1210101+9999REMSYN054AAXX  03091 54259 42965 02503 11067 21135 40301 52010;
0152542590999992000020312004+42100+124950FM-12+023599999V0209999C000012200019N0120001N1+99999+99999103241ADDAA199000091GA1001+999999999GF100991001001999999001001MD1210191+9999REMSYN054AAXX  03121 54259 32962 00000 16/21 21146 40324 52019;EQDQ01  00002PRCP99
0175542590999992000020318004+42100+124950FM-12+023599999V0209999C000012200019N0150001N1-01921-02091103341ADDAA199000091GA1001+999999999GF100991001001999999001001KA1999M-00411MD1210051+9999REMSYN064AAXX  03181 54259 32965 00000 11192 21209 40334 52005 333 11041;EQDQ01  00002PRCP99
0122542590999992000020321004+42100+124950FM-12+023599999V0209999C000012200019N0120001N1-02221-02381103411ADDGA1001+999999999GF100991001001999999001001MD1210041+9999REMSYN054AAXX  03211 54259 42962 00000 11222 21238 40341 52004;
0180542590999992000020400004+42100+124950FM-12+023599999V0209999C000012200019N0050001N1-02281-02401103551ADDAA199000091GA1001+999999999GF100991001001999999001001MD1210101+0401MW1041REMSYN076AAXX  04001 54259 31950 00000 11228 2124/ 40355 52010 70400 333 00400 92524;EQDQ01  00002PRCP99
0141542590999992000020403004+42100+124950FM-12+023599999V0209999C000012200019N0120001N1-01152-01741103411ADDGA1001+999999999GF100991001001999999001001MD1710101+9999REMSYN054AAXX  04031 54259 42962 00000 11115 21174 40341 57010;EQDQ01-001153ATOT  
0175542590999992000020406004+42100+124950FM-12+023599999V0202501N004012200019N0280001N1-00241-01411103161ADDAA199000091GA1001+999999999GF100991001001999999001001KA1999N-02331MD1710201+9999REMSYN064AAXX  04061 54259 32978 02504 11024 21141 40316 57020 333 21233;EQDQ01  00002PRCP99
0122542590999992000020409004+42100+124950FM-12+023599999V0209999C000012200019N0220001N1-00461-01431103181ADDGA1001+999999999GF100991001001999999001001MD1710011+9999REMSYN054AAXX  04091 54259 42972 00000 11046 21143 40318 57001;
0152542590999992000020412004+42100+124950FM-12+023599999V0209999C000012200019N0150001N1-01021-01481103281ADDAA199000091GA1001+999999999GF100991001001999999001001MD1210051+9999REMSYN054AAXX  04121 54259 32965 00000 11102 21148 40328 52005;EQDQ01  00002PRCP99
0175542590999992000020418004+42100+124950FM-12+023599999V0209999C000012200019N0150001N1-01751-01901103161ADDAA199000091GA1001+999999999GF100991001001999999001001KA1999M-00121MD1710081+9999REMSYN064AAXX  04181 54259 32965 00000 11175 21190 40316 57008 333 11012;EQDQ01  00002PRCP99
0116542590999992000020421004+42100+124950FM-12+023599999V0209999C000012200019N0120001N1+99999+99999103101ADDGA1001+999999999GF100991001001999999001001MD1710081+9999REMSYN048AAXX  04211 54259 42962 00000 21212 40310 57008;
0170542590999992000020500004+42100+124950FM-12+023599999V0209999C000012200019N0060001N1-02001-02141103101ADDAA199000091GF101991001001999999001021MD1710041-0401MW1041REMSYN082AAXX  05001 54259 31956 10000 11200 21214 40310 57004 70400 80002 333 05403 92523;EQDQ01  00002PRCP99
0143542590999992000020503004+42100+124950FM-12+023599999V0209999C000019999999N0080001N1-00772-02161102861ADDGF107991001001999999001021MD1710191+9999MW1041REMSYN066AAXX  05031 54259 41958 70000 11077 21216 40286 57019 70400 80002;EQDQ01-000773ATOT  
0165542590999992000020506004+42100+124950FM-12+023599999V0209999C000019999999N0150001N1-00171-01012102501ADDAA199000091GF107991001001999999001021KA1999N-02051MD1710321+9999REMSYN070AAXX  05061 54259 32965 70000 11017 21101 40250 57032 80002 333 21205;EQDQ01  00002PRCP99
0111542590999992000020509004+42100+124950FM-12+023599999V0209999C000019999999N0200001N1-00231-01031102501ADDGF107991001001999999001021MD1710021+9999REMSYN059AAXX  05091 54259 4297070000 11023 21103 40250 57002 80002;
0142542590999992000020512004+42100+124950FM-12+023599999V0209999C000010120019N0150001N1-00421-01021102511ADDAA199000091GF108991081051012501999999MD1410001+9999REMSYN060AAXX  05121 54259 32665 80000 11042 21102 40251 54000 885//;EQDQ01  00002PRCP99
0172542590999992000020518004+42100+124950FM-12+023599999V0209999C000010120019N0080001N1-00621-00781102301ADDAA106000391AY171061GF108991081051012501999999KA1999M-00061MD1710041+9999MW1701REMSYN082AAXX  05181 54259 11658 80000 11062 21078 40230 57004 69931 77070 885// 333 11006;
0161542590999992000020521004+42100+124950FM-12+023599999V0209999C000010360019N0080001N1-00661-00781102221ADDAA124001091AY171031AY271031GF108991041051012501021999MD1710091+9999MW1711REMSYN076AAXX  05211 54259 41658 80000 11066 21078 40222 57009 77177 8452/ 333 70010;
0173542590999992000020600004+42100+124950FM-12+023599999V0209999C000019999999N0050001N1+99999+99999102231ADDAA106001091AY171061AY271061GF108991081001999999021999MD1410001-0701MW1711REMSYN088AAXX  06001 54259 11950 80000 21081 40223 54000 60011 77177 8802/ 333 05713 70015 92525;
0140542590999992000020603004+42100+124950FM-12+023599999V0209999C000010120019N0080001N1-00421-00661102191ADDAY171031AY271031GF108991081001012501021999MD1710031+9999MW1711REMSYN066AAXX  06031 54259 41658 80000 11042 21066 40219 57003 77177 8802/;
0180542590999992000020606004+42100+124950FM-12+023599999V0202501N004019999999N0080001N1-00471-00601102101ADDAA106000391AY171061AY271061GF108991081001999999021999KA1999N-00701MD1710101+9999MW1711REMSYN082AAXX  06061 54259 11958 82504 11047 21060 40210 57010 69931 77177 8802/ 333 21070;
0140542590999992000020609004+42100+124950FM-12+023599999V0202501N003010120019N0100001N1-00711-00841102241ADDAY171031AY271031GF108991081051012501999999MD1210121+9999MW1701REMSYN066AAXX  06091 54259 41660 82503 11071 21084 40224 52012 77077 885//;
0157542590999992000020612004+42100+124950FM-12+023599999V0202201N003010120019N0080001N1-00781-01011102281ADDAA106000191AY171061AY271061GF108991081051012501999999MD1210041+9999MW1701REMSYN072AAXX  06121 54259 /1658 82203 11078 21101 40228 52004 69911 77077 885//;
0180542590999992000020618004+42100+124950FM-12+023599999V0209999C000010120019N0080001N1-00951-01121102271ADDAA106000791AY171061AY271061GF108991081051012501999999KA1999M-00321MD1210011+9999MW1701REMSYN082AAXX  06181 54259 11658 80000 11095 21112 40227 52001 69901 77077 885// 333 11032;
0153542590999992000020621004+42100+124950FM-12+023599999V0209999C000010120019N0100001N1-01201-01351102191ADDAA124001091AY171031GF108991081051012501999999MD1710101+9999MW1001REMSYN076AAXX  06211 54259 41660 80000 11120 21135 40219 57010 70070 885// 333 70009;
0171542590999992000020700004+42100+124950FM-12+023599999V0209999C000010120019N0080001N1-01361-01461102201ADDAA106000791AY171061GF107991071051012501999999MD1710011-0101MW1041REMSYN094AAXX  07001 54259 11658 70000 11136 21146 40220 57001 69901 70470 875// 333 05157 70004 92527;
0124542590999992000020703004+42100+124950FM-12+023599999V0202201N003012200019N0080001N1-00941-01371102001ADDGF102991001001999999001021MD1710171+9999MW1041REMSYN066AAXX  07031 54259 41958 22203 11094 21137 40200 57017 70400 80002;
0146542590999992000020706004+42100+124950FM-12+023599999V0202201N004010120019N0120001N1-00771-01251101781ADDAA199000021GF107991071051012501999999KA1999N-01381MD1710211+9999REMSYN070AAXX  07061 54259 32662 72204 11077 21125 40178 57021 875// 333 21138;
0112542590999992000020709004+42100+124950FM-12+023599999V0202901N004010120019N0300001N1-00971-01671101851ADDGF106991061051012501001001MD1210041+9999REMSYN060AAXX  07091 54259 42680 62904 11097 21167 40185 52004 86500;
0141542590999992000020712004+42100+124950FM-12+023599999V0209999C000010120019N0080001N1-01261-01541101981ADDAA106000791GF108991081051012501999999MD1210101+9999MW1701REMSYN072AAXX  07121 54259 11658 80000 11126 21154 40198 52010 69901 77000 885//;
0180542590999992000020718004+42100+124950FM-12+023599999V0209999C000010120019N0150001N1-01521-01711102141ADDAA106000791AY171061AY271061GF107991071051012501999999KA1999M-00731MD1210171+9999MW1701REMSYN082AAXX  07181 54259 11665 70000 11152 21171 40214 52017 69901 77077 875// 333 11073;
0161542590999992000020721004+42100+124950FM-12+023599999V0209999C000010120019N0150001N1-01741-01901102271ADDAA124000791AY171031AY271031GF107991071051012501999999MD1210101+9999MW1701REMSYN076AAXX  07211 54259 41665 70000 11174 21190 40227 52010 77077 875// 333 79999;
0179542590999992000020800004+42100+124950FM-12+023599999V0209999C000010120019N0150001N1-01741-01891102601ADDAA106000791AY171061AY271061GF106991061051012501001001MD1210301+0301MW1701REMSYN094AAXX  08001 54259 11665 60000 11174 21189 40260 52030 69901 77077 86500 333 00354 79999 92527;
0132542590999992000020803004+42100+124950FM-12+023599999V0202201N003012200019N0150001N1-01301-01681102621ADDAY171031GF104991041051012501001001MD1210041+9999MW1701REMSYN066AAXX  08031 54259 41665 42203 11130 21168 40262 52004 77070 84500;
0172542590999992000020806004+42100+124950FM-12+023599999V0202201N002012200019N0300001N1-00981-01691102511ADDAA106000791AY171061GF101991011051012501001001KA1999N-01791MD1710101+9999MW1001REMSYN082AAXX  08061 54259 11680 12202 11098 21169 40251 57010 69901 70070 81500 333 21179;
0122542590999992000020809004+42100+124950FM-12+023599999V0209999C000012200019N0300001N1-01201-02161102601ADDGA1001+999999999GF100991001001999999001001MD1210061+9999REMSYN054AAXX  08091 54259 42980 00000 11120 21216 40260 52006;
0133542590999992000020812004+42100+124950FM-12+023599999V0209999C000012200019N0150001N1-01681-02191102771ADDAA199000021GA1001+999999999GF100991001001999999001001MD1210141+9999REMSYN054AAXX  08121 54259 32965 00000 11168 21219 40277 52014;
0175542590999992000020818004+42100+124950FM-12+023599999V0209999C000012200019N0200001N1-02371-02551102791ADDAA199000091GA1001+999999999GF100991001001999999001001KA1999M-00901MD1210031+9999REMSYN064AAXX  08181 54259 32970 00000 11237 21255 40279 52003 333 11090;EQDQ01  00002PRCP99
0143542590999992000020821004+42100+124950FM-12+023599999V0209999C000012200019N0150001N1-02561-02741102781ADDAA124000791GA1001+999999999GF100991001001999999001001MD1710031+9999REMSYN064AAXX  08211 54259 42965 00000 11256 21274 40278 57003 333 79999;
0167542590999992000020900004+42100+124950FM-12+023599999V0209999C000012200019N0070001N1-02571-02771102811ADDAA124000791GA1001+999999999GF100991001001999999001001MD1410001+0101MW1041REMSYN082AAXX  09001 54259 31957 00000 11257 21277 40281 54000 70400 333 00158 79999 92525;
0122542590999992000020903004+42100+124950FM-12+023599999V0209999C000012200019N0150001N1-01551-02151102661ADDGA1001+999999999GF100991001001999999001001MD1710111+9999REMSYN054AAXX  09031 54259 42965 00000 11155 21215 40266 57011;
0175542590999992000020906004+42100+124950FM-12+023599999V0202201N004012200019N0300001N1-00691-01801102451ADDAA199000091GA1001+999999999GF100991001001999999001001KA1999N-02601MD1710171+9999REMSYN064AAXX  09061 54259 32980 02204 11069 21180 40245 57017 333 21260;EQDQ01  00002PRCP99
0122542590999992000020909004+42100+124950FM-12+023599999V0209999C000012200019N0250001N1-01011-02031102471ADDGA1001+999999999GF100991001001999999001001MD1710011+9999REMSYN054AAXX  09091 54259 42975 00000 11101 21203 40247 57001;
0152542590999992000020912004+42100+124950FM-12+023599999V0209999C000012200019N0150001N1-01511-02011102571ADDAA199000091GA1001+999999999GF100991001001999999001001MD1210061+9999REMSYN054AAXX  09121 54259 32965 00000 11151 21201 40257 52006;EQDQ01  00002PRCP99
0175542590999992000020918004+42100+124950FM-12+023599999V0209999C000012200019N0200001N1-02201-02371102461ADDAA199000091GA1001+999999999GF100991001001999999001001KA1999M-00631MD1710031+9999REMSYN064AAXX  09181 54259 32970 00000 11220 21237 40246 57003 333 11063;EQDQ01  00002PRCP99
0122542590999992000020921004+42100+124950FM-12+023599999V0209999C000012200019N0150001N1-02321-02481102441ADDGA1001+999999999GF100991001001999999001001MD1710051+9999REMSYN054AAXX  09211 54259 42965 00000 11232 21248 40244 57005;
0158542590999992000021000004+42100+124950FM-12+023599999V0209999C000019999999N0120001N1-02221-02401102461ADDAA199000091GF106991001001999999001021MD1410001-0301REMSYN076AAXX  10001 54259 32962 60000 11222 21240 40246 54000 80002 333 05304 92525;EQDQ01  00002PRCP99
0141542590999992000021003004+42100+124950FM-12+023599999V0209999C000012200019N0120001N1-00912-01581102251ADDGA1001+999999999GF100991001001999999001001MD1710151+9999REMSYN054AAXX  10031 54259 42962 00000 11091 21158 40225 57015;EQDQ01-000913ATOT  
0165542590999992000021006004+42100+124950FM-12+023599999V0202501N003012200019N0300001N1-00161-01501101921ADDAA199000091GF101991001001999999001011KA1999N-02321MD1710291+9999REMSYN070AAXX  10061 54259 32980 12503 11016 21150 40192 57029 80001 333 21232;EQDQ01  00002PRCP99
0122542590999992000021009004+42100+124950FM-12+023599999V0209999C000012200019N0200001N1-00401-01381101931ADDGA1001+999999999GF100991001001999999001001MD1710011+9999REMSYN054AAXX  10091 54259 42970 00000 11040 21138 40193 57001;
0152542590999992000021012004+42100+124950FM-12+023599999V0209999C000012200019N0150001N1-01011-01331102041ADDAA199000091GA1001+999999999GF100991001001999999001001MD1210071+9999REMSYN054AAXX  10121 54259 32965 00000 11101 21133 40204 52007;EQDQ01  00002PRCP99
0165542590999992000021018004+42100+124950FM-12+023599999V0209999C000010120019N0150001N1-01211-01411102031ADDAA199000091GF107991071051012501999999KA1999M-00091MD1210031+9999REMSYN070AAXX  10181 54259 32665 70000 11121 21141 40203 52003 875// 333 11009;EQDQ01  00002PRCP99
0112542590999992000021021004+42100+124950FM-12+023599999V0209999C000010120019N0120001N1-01451-01731102051ADDGF107991071051012501999999MD1710011+9999REMSYN060AAXX  10211 54259 42662 70000 11145 21173 40205 57001 875//;
0170542590999992000021100004+42100+124950FM-12+023599999V0209999C000010120019N0050001N1-01311-01471102171ADDAA199000091GF107991071051012501999999MD1210091-0201MW1041REMSYN082AAXX  11001 54259 31650 70000 11131 21147 40217 52009 70400 875// 333 05209 92524;EQDQ01  00002PRCP99
0112542590999992000021103004+42100+124950FM-12+023599999V0202501N005012200019N0150001N1-00421-00741102101ADDGF102991001001999999001021MD1710031+9999REMSYN060AAXX  11031 54259 42965 22505 11042 21074 40210 57003 80002;
0175542590999992000021106004+42100+124950FM-12+023599999V0202501N005012200019N0300001N1-00131-00961101971ADDAA199000091GA1001+999999999GF100991001001999999001001KA1999N-01471MD1710111+9999REMSYN064AAXX  11061 54259 32980 02505 11013 21096 40197 57011 333 21147;EQDQ01  00002PRCP99
0122542590999992000021109004+42100+124950FM-12+023599999V0202201N001012200019N0200001N1-00371-01201101891ADDGA1001+999999999GF100991001001999999001001MD1710101+9999REMSYN054AAXX  11091 54259 42970 02201 11037 21120 40189 57010;
0152542590999992000021112004+42100+124950FM-12+023599999V0209999C000012200019N0180001N1-00741-01161101911ADDAA199000091GA1001+999999999GF100991001001999999001001MD1210011+9999REMSYN054AAXX  11121 54259 32968 00000 11074 21116 40191 52001;EQDQ01  00002PRCP99
0175542590999992000021118004+42100+124950FM-12+023599999V0209999C000012200019N0150001N1-01251-01371101931ADDAA199000091GA1001+999999999GF100991001001999999001001KA1999M-00091MD1210071+9999REMSYN064AAXX  11181 54259 32965 00000 11125 21137 40193 52007 333 11009;EQDQ01  00002PRCP99
0122542590999992000021121004+42100+124950FM-12+023599999V0209999C000012200019N0150001N1-01461-01551102111ADDGA1001+999999999GF100991001001999999001001MD1210151+9999REMSYN054AAXX  11211 54259 42965 00000 11146 21155 40211 52015;
0180542590999992000021200004+42100+124950FM-12+023599999V0209999C000012200019N0080001N1-01471-01591102351ADDAA199000091GA1001+999999999GF100991001001999999001001MD1210211+0201MW1041REMSYN076AAXX  12001 54259 31958 00000 11147 21159 40235 52021 70400 333 00252 92523;EQDQ01  00002PRCP99
0122542590999992000021203004+42100+124950FM-12+023599999V0200701N003012200019N0150001N1-00421-01181102351ADDGA1001+999999999GF100991001001999999001001MD1210041+9999REMSYN054AAXX  12031 54259 42965 00703 11042 21118 40235 52004;
0175542590999992000021206004+42100+124950FM-12+023599999V0200701N003012200019N0300001N1-00231-01251102171ADDAA199000091GA1001+999999999GF100991001001999999001001KA1999N-01571MD1710171+9999REMSYN064AAXX  12061 54259 32980 00703 11023 21125 40217 57017 333 21157;EQDQ01  00002PRCP99
0112542590999992000021209004+42100+124950FM-12+023599999V0200401N002012200019N0250001N1-00431-01371102291ADDGF102991001001999999001021MD1210091+9999REMSYN060AAXX  12091 54259 42975 20402 11043 21137 40229 52009 80002;
0152542590999992000021212004+42100+124950FM-12+023599999V0209999C000012200019N0150001N1-00891-01551102451ADDAA199000091GA1001+999999999GF100991001001999999001001MD1210131+9999REMSYN054AAXX  12121 54259 32965 00000 11089 21155 40245 52013;EQDQ01  00002PRCP99
0175542590999992000021218004+42100+124950FM-12+023599999V0209999C000012200019N0150001N1-01581-01801102561ADDAA199000091GA1001+999999999GF100991001001999999001001KA1999M-00191MD1210091+9999REMSYN064AAXX  12181 54259 32965 00000 11158 21180 40256 52009 333 11019;EQDQ01  00002PRCP99
0112542590999992000021221004+42100+124950FM-12+023599999V0209999C000019999999N0150001N1-01531-01761102501ADDGF107991001001999999001021MD1710071+9999REMSYN060AAXX  12211 54259 42965 70000 11153 21176 40250 57007 80002;
0170542590999992000021300004+42100+124950FM-12+023599999V0209999C000010120019N0080001N1-01391-01631102491ADDAA199000091GF108991081051012501999999MD1710021+0101MW1041REMSYN082AAXX  13001 54259 31658 80000 11139 21163 40249 57002 70400 885// 333 00101 92522;EQDQ01  00002PRCP99
0124542590999992000021303004+42100+124950FM-12+023599999V0209999C000019999999N0080001N1-00771-01371102431ADDGF107991001001999999001021MD1710051+9999MW1041REMSYN066AAXX  13031 54259 41958 70000 11077 21137 40243 57005 70400 80002;
0165542590999992000021306004+42100+124950FM-12+023599999V0209999C000019999999N0220001N1-00301-01321102221ADDAA199000091GF107991001001999999001021KA1999N-01581MD1710191+9999REMSYN070AAXX  13061 54259 32972 70000 11030 21132 40222 57019 80002 333 21158;EQDQ01  00002PRCP99
0112542590999992000021309004+42100+124950FM-12+023599999V0203401N003012200019N0280001N1-00461-01561102181ADDGF101991001001999999001021MD1710051+9999REMSYN060AAXX  13091 54259 42978 13403 11046 21156 40218 57005 80002;
0152542590999992000021312004+42100+124950FM-12+023599999V0209999C000012200019N0180001N1-00961-01661102241ADDAA199000091GA1001+999999999GF100991001001999999001001MD1210041+9999REMSYN054AAXX  13121 54259 32968 00000 11096 21166 40224 52004;EQDQ01  00002PRCP99
0175542590999992000021318004+42100+124950FM-12+023599999V0209999C000012200019N0150001N1-01741-01931102341ADDAA199000091GA1001+999999999GF100991001001999999001001KA1999M-00231MD1410001+9999REMSYN064AAXX  13181 54259 32965 00000 11174 21193 40234 54000 333 11023;EQDQ01  00002PRCP99
0122542590999992000021321004+42100+124950FM-12+023599999V0209999C000012200019N0150001N1-02081-02231102281ADDGA1001+999999999GF100991001001999999001001MD1710081+9999REMSYN054AAXX  13211 54259 42965 00000 11208 21223 40228 57008;
0180542590999992000021400004+42100+124950FM-12+023599999V0209999C000012200019N0060001N1-02131-02251102331ADDAA199000091GA1001+999999999GF100991001001999999001001MD1210011-0201MW1041REMSYN076AAXX  14001 54259 31956 00000 11213 21225 40233 52001 70400 333 05257 92521;EQDQ01  00002PRCP99
0141542590999992000021403004+42100+124950FM-12+023599999V0202201N003012200019N0200001N1-01032-01541102141ADDGA1001+999999999GF100991001001999999001001MD1710141+9999REMSYN054AAXX  14031 54259 42970 02203 11103 21154 40214 57014;EQDQ01-001033ATOT  
0165542590999992000021406004+42100+124950FM-12+023599999V0202501N005012200019N0300001N1-00721-01771101921ADDAA199000091GF101991011051012501001001KA1999N-02191MD1710221+9999REMSYN070AAXX  14061 54259 32680 12505 11072 21177 40192 57022 81500 333 21219;EQDQ01  00002PRCP99
0131542590999992000021409004+42100+124950FM-12+023599999V0202501N003012200019N0250001N1+99999+99999102061ADDGF102991021051012501001001MD1210101+9999REMSYN060AAXX  14091 54259 42675 22503 11610 21196 40206 52010 82500;EQDQ01-006103ATOT  
0152542590999992000021412004+42100+124950FM-12+023599999V0209999C000012200019N0150001N1-01471-01881102151ADDAA199000091GA1001+999999999GF100991001001999999001001MD1210061+9999REMSYN054AAXX  14121 54259 32965 00000 11147 21188 40215 52006;EQDQ01  00002PRCP99
0172542590999992000021418004+42100+124950FM-12+023599999V0209999C000012200019N0150001N1-01881-02041102081ADDAA106000791AY171061GF102991021051012501001001KA1999M-00671MD1410001+9999MW1001REMSYN082AAXX  14181 54259 11665 20000 11188 21204 40208 54000 69901 70070 82500 333 11067;
0143542590999992000021421004+42100+124950FM-12+023599999V0209999C000012200019N0150001N1-02101-02221102051ADDAA124000791GA1001+999999999GF100991001001999999001001MD1710071+9999REMSYN064AAXX  14211 54259 42965 00000 11210 21222 40205 57007 333 79999;
0155542590999992000021500004+42100+124950FM-12+023599999V0209999C000012200019N0150001N1-02001-02141102101ADDAA124000791GA1001+999999999GF100991001001999999001001MD1210041-0201REMSYN076AAXX  15001 54259 32965 00000 11200 21214 40210 52004 333 05201 79999 92521;
0112542590999992000021503004+42100+124950FM-12+023599999V0202001N006019999999N0300001N1-01141-01831102081ADDGF106991001001999999001021MD1210021+9999REMSYN060AAXX  15031 54259 42980 62006 11114 21183 40208 52002 80002;
0165542590999992000021506004+42100+124950FM-12+023599999V0202501N007012200019N0300001N1-00971-02001101951ADDAA199000091GF103991031051012501001001KA1999N-02151MD1710131+9999REMSYN070AAXX  15061 54259 32680 32507 11097 21200 40195 57013 83500 333 21215;EQDQ01  00002PRCP99
0112542590999992000021509004+42100+124950FM-12+023599999V0202201N005012200019N0300001N1-01011-01731101981ADDGF102991021051012501001001MD1210011+9999REMSYN060AAXX  15091 54259 42680 22205 11101 21173 40198 52001 82500;
0142542590999992000021512004+42100+124950FM-12+023599999V0209999C000012200019N0150001N1-01271-01471102061ADDAA199000091GF103991001001999999001021MD1210071+9999REMSYN060AAXX  15121 54259 32965 30000 11127 21147 40206 52007 80002;EQDQ01  00002PRCP99
0175542590999992000021518004+42100+124950FM-12+023599999V0209999C000012200019N0200001N1-01811-01941102131ADDAA199000091GA1001+999999999GF100991001001999999001001KA1999M-00911MD1210091+9999REMSYN064AAXX  15181 54259 32970 00000 11181 21194 40213 52009 333 11091;EQDQ01  00002PRCP99
0122542590999992000021521004+42100+124950FM-12+023599999V0209999C000012200019N0200001N1-02071-02201102231ADDGA1001+999999999GF100991001001999999001001MD1210081+9999REMSYN054AAXX  15211 54259 42970 00000 11207 21220 40223 52008;
0168542590999992000021600004+42100+124950FM-12+023599999V0209999C000012200019N0120001N1-02071-02201102531ADDAA199000091GA1001+999999999GF100991001001999999001001MD1210271+0401REMSYN070AAXX  16001 54259 32962 00000 11207 21220 40253 52027 333 00451 92521;EQDQ01  00002PRCP99
0112542590999992000021603004+42100+124950FM-12+023599999V0202501N002019999999N0180001N1-01121-01741102511ADDGF107991001001999999001021MD1210021+9999REMSYN060AAXX  16031 54259 42968 72502 11112 21174 40251 52002 80002;
0165542590999992000021606004+42100+124950FM-12+023599999V0202201N005010120019N0300001N1-00751-01531102411ADDAA199000091GF106991061051012501001021KA1999N-02121MD1710091+9999REMSYN070AAXX  16061 54259 32680 62205 11075 21153 40241 57009 86502 333 21212;EQDQ01  00002PRCP99
0112542590999992000021609004+42100+124950FM-12+023599999V0209999C000012200019N0280001N1-00891-01691102451ADDGF101991011051012501001001MD1210021+9999REMSYN060AAXX  16091 54259 42678 10000 11089 21169 40245 52002 81500;
0152542590999992000021612004+42100+124950FM-12+023599999V0209999C000012200019N0120001N1-01391-01881102571ADDAA199000091GA1001+999999999GF100991001001999999001001MD1210081+9999REMSYN054AAXX  16121 54259 32962 00000 11139 21188 40257 52008;EQDQ01  00002PRCP99
0175542590999992000021618004+42100+124950FM-12+023599999V0209999C000012200019N0150001N1-02081-02241102671ADDAA199000091GA1001+999999999GF100991001001999999001001KA1999M-00711MD1210061+9999REMSYN064AAXX  16181 54259 32965 00000 11208 21224 40267 52006 333 11071;EQDQ01  00002PRCP99
0122542590999992000021621004+42100+124950FM-12+023599999V0209999C000012200019N0150001N1-02261-02421102721ADDGA1001+999999999GF100991001001999999001001MD1210031+9999REMSYN054AAXX  16211 54259 42965 00000 11226 21242 40272 52003;
0180542590999992000021700004+42100+124950FM-12+023599999V0209999C000012200019N0050001N1-02261-02421102931ADDAA199000091GA1001+999999999GF100991001001999999001001MD1210171+0401MW1041REMSYN076AAXX  17001 54259 31950 00000 11226 21242 40293 52017 70400 333 00452 92521;EQDQ01  00002PRCP99
0141542590999992000021703004+42100+124950FM-12+023599999V0202201N005012200019N0150001N1-01022-01531102871ADDGA1001+999999999GF100991001001999999001001MD1710011+9999REMSYN054AAXX  17031 54259 42965 02205 11102 21153 40287 57001;EQDQ01-001023ATOT  
0175542590999992000021706004+42100+124950FM-12+023599999V0202201N003012200019N0300001N1-00621-01591102731ADDAA199000091GA1001+999999999GF100991001001999999001001KA1999N-02341MD1710131+9999REMSYN064AAXX  17061 54259 32980 02203 11062 21159 40273 57013 333 21234;EQDQ01  00002PRCP99
0122542590999992000021709004+42100+124950FM-12+023599999V0202701N002012200019N0300001N1-00791-01831102781ADDGA1001+999999999GF100991001001999999001001MD1210031+9999REMSYN054AAXX  17091 54259 42980 02702 11079 21183 40278 52003;
0152542590999992000021712004+42100+124950FM-12+023599999V0209999C000012200019N0250001N1-01271-01941103001ADDAA199000091GA1001+999999999GF100991001001999999001001MD1210191+9999REMSYN054AAXX  17121 54259 32975 00000 11127 21194 40300 52019;EQDQ01  00002PRCP99
0175542590999992000021718004+42100+124950FM-12+023599999V0209999C000012200019N0150001N1-02081-02251103041ADDAA199000091GA1001+999999999GF100991001001999999001001KA1999M-00601MD1210051+9999REMSYN064AAXX  17181 54259 32965 00000 11208 21225 40304 52005 333 11060;EQDQ01  00002PRCP99
0122542590999992000021721004+42100+124950FM-12+023599999V0209999C000012200019N0150001N1-02221-02401103071ADDGA1001+999999999GF100991001001999999001001MD1210011+9999REMSYN054AAXX  17211 54259 42965 00000 11222 21240 40307 52001;
0180542590999992000021800004+42100+124950FM-12+023599999V0209999C000012200019N0070001N1-02221-02381103131ADDAA199000091GA1001+999999999GF100991001001999999001001MD1210031+0201MW1041REMSYN076AAXX  18001 54259 31957 00000 11222 21238 40313 52003 70400 333 00200 92521;EQDQ01  00002PRCP99
0141542590999992000021803004+42100+124950FM-12+023599999V0209999C000012200019N0140001N1-01012-01601103001ADDGA1001+999999999GF100991001001999999001001MD1710081+9999REMSYN054AAXX  18031 54259 42964 00000 11101 21160 40300 57008;EQDQ01-001013ATOT  
0175542590999992000021806004+42100+124950FM-12+023599999V0202201N002012200019N0300001N1-00361-01311102671ADDAA199000091GA1001+999999999GF100991001001999999001001KA1999N-02331MD1710301+9999REMSYN064AAXX  18061 54259 32980 02202 11036 21131 40267 57030 333 21233;EQDQ01  00002PRCP99
0152542590999992000021812004+42100+124950FM-12+023599999V0209999C000012200019N0180001N1-00981-01431102571ADDAA199000091GA1001+999999999GF100991001001999999001001MD1710041+9999REMSYN054AAXX  18121 54259 32968 00000 11098 21143 40257 57004;EQDQ01  00002PRCP99
0095542590999992000021818004+42100+124950FM-12+023599999V02099999999999999999N0008001N1+99999+99999999999ADDAA199000091KA1999M-00251REMSYN040AAXX  18181 54259 32808 ///// 333 11025;EQDQ01  00002PRCP99
0163542590999992000021900004+42100+124950FM-12+023599999V0209999C000010120019N0080001N1-01141-01371102031ADDAA106000791GF108991081051012501999999MD1710041-1001MW1701REMSYN094AAXX  19001 54259 11658 80000 11114 21137 40203 57004 69901 77000 885// 333 06011 79999 92521;
0172542590999992000021906004+42100+124950FM-12+023599999V0203201N004010120019N0250001N1-00201-01031101911ADDAA106000791AY171061GF105991051051012501001001KA1999N-01441MD1710061+9999MW1001REMSYN082AAXX  19061 54259 11675 53204 11020 21103 40191 57006 69901 70070 85500 333 21144;
0112542590999992000021909004+42100+124950FM-12+023599999V0203201N002012200019N0300001N1-00461-01241102011ADDGF102991021051012501001001MD1210091+9999REMSYN060AAXX  19091 54259 42680 23202 11046 21124 40201 52009 82500;
0133542590999992000021912004+42100+124950FM-12+023599999V0209999C000012200019N0180001N1-00891-01251102211ADDAA199000021GA1001+999999999GF100991001001999999001001MD1210181+9999REMSYN054AAXX  19121 54259 32968 00000 11089 21125 40221 52018;
0175542590999992000021918004+42100+124950FM-12+023599999V0209999C000012200019N0120001N1-01601-01731102211ADDAA199000091GA1001+999999999GF100991001001999999001001KA1999M-00151MD1210021+9999REMSYN064AAXX  19181 54259 32962 00000 11160 21173 40221 52002 333 11015;EQDQ01  00002PRCP99
0143542590999992000021921004+42100+124950FM-12+023599999V0209999C000012200019N0120001N1-01851-01971102211ADDAA124000791GA1001+999999999GF100991001001999999001001MD1710031+9999REMSYN064AAXX  19211 54259 42962 00000 11185 21197 40221 57003 333 79999;
0157542590999992000022000004+42100+124950FM-12+023599999V0209999C000010120019N0060001N1-01831-01981102291ADDAA124000791GF108991081051012501999999MD1210061+0201MW1041REMSYN088AAXX  20001 54259 31656 80000 11183 21198 40229 52006 70400 885// 333 00257 79999 92520;
0142542590999992000022003004+42100+124950FM-12+023599999V0202201N003012200019N0110001N1-00811-01151102191ADDAY171031GA1001+999999999GF100991001001999999001001MD1710061+9999MW1001REMSYN060AAXX  20031 54259 41961 02203 11081 21115 40219 57006 70070;
0172542590999992000022006004+42100+124950FM-12+023599999V0202201N004012200019N0250001N1-00461-01301102011ADDAA106000791AY171061GF101991011051012501001001KA1999N-01941MD1710181+9999MW1001REMSYN082AAXX  20061 54259 11675 12204 11046 21130 40201 57018 69901 70070 81500 333 21194;
0122542590999992000022009004+42100+124950FM-12+023599999V0202701N004012200019N0300001N1-00691-01641102121ADDGA1001+999999999GF100991001001999999001001MD1210081+9999REMSYN054AAXX  20091 54259 42980 02704 11069 21164 40212 52008;
0152542590999992000022012004+42100+124950FM-12+023599999V0209999C000012200019N0150001N1-01161-01681102341ADDAA199000091GA1001+999999999GF100991001001999999001001MD1210191+9999REMSYN054AAXX  20121 54259 32965 00000 11116 21168 40234 52019;EQDQ01  00002PRCP99
0175542590999992000022018004+42100+124950FM-12+023599999V0209999C000012200019N0200001N1-01851-02011102421ADDAA199000091GA1001+999999999GF100991001001999999001001KA1999M-00381MD1210091+9999REMSYN064AAXX  20181 54259 32970 00000 11185 21201 40242 52009 333 11038;EQDQ01  00002PRCP99
0143542590999992000022021004+42100+124950FM-12+023599999V0209999C000012200019N0200001N1-02051-02171102451ADDAA124000791GA1001+999999999GF100991001001999999001001MD1410001+9999REMSYN064AAXX  20211 54259 42970 00000 11205 21217 40245 54000 333 79999;
0167542590999992000022100004+42100+124950FM-12+023599999V0209999C000012200019N0080001N1-02001-02121102581ADDAA124000791GA1001+999999999GF100991001001999999001001MD1210101+0301MW1041REMSYN082AAXX  21001 54259 31958 00000 11200 21212 40258 52010 70400 333 00352 79999 92517;
0141542590999992000022103004+42100+124950FM-12+023599999V0202501N002012200019N0150001N1-00732-01261102521ADDGA1001+999999999GF100991001001999999001001MD1410001+9999REMSYN054AAXX  21031 54259 42965 02502 11073 21126 40252 54000;EQDQ01-000733ATOT  
0152542590999992000022106004+42100+124950FM-12+023599999V0202201N004012200019N0280001N1-00391-01431102471ADDAA199000091GA1001+999999999GF100991001001999999001001MD1710051+9999REMSYN054AAXX  21061 54259 32978 02204 11039 21143 40247 57005;EQDQ01  00002PRCP99
0122542590999992000022109004+42100+124950FM-12+023599999V0202701N003012200019N0280001N1-00561-01691102511ADDGA1001+999999999GF100991001001999999001001MD1210021+9999REMSYN054AAXX  21091 54259 42978 02703 11056 21169 40251 52002;
0152542590999992000022112004+42100+124950FM-12+023599999V0209999C000012200019N0150001N1-01061-01621102671ADDAA199000091GA1001+999999999GF100991001001999999001001MD1210121+9999REMSYN054AAXX  21121 54259 32965 00000 11106 21162 40267 52012;EQDQ01  00002PRCP99
0175542590999992000022118004+42100+124950FM-12+023599999V0209999C000012200019N0200001N1-01801-01981102801ADDAA199000091GA1001+999999999GF100991001001999999001001KA1999M-00341MD1210081+9999REMSYN064AAXX  21181 54259 32970 00000 11180 21198 40280 52008 333 11034;EQDQ01  00002PRCP99
0122542590999992000022121004+42100+124950FM-12+023599999V0209999C000012200019N0180001N1-01991-02131102791ADDGA1001+999999999GF100991001001999999001001MD1710031+9999REMSYN054AAXX  21211 54259 42968 00000 11199 21213 40279 57003;
0180542590999992000022200004+42100+124950FM-12+023599999V0209999C000012200019N0070001N1-01921-02081102821ADDAA199000091GA1001+999999999GF100991001001999999001001MD1410001+0201MW1041REMSYN076AAXX  22001 54259 31957 00000 11192 21208 40282 54000 70400 333 00201 92514;EQDQ01  00002PRCP99
0141542590999992000022203004+42100+124950FM-12+023599999V0202001N003012200019N0300001N1-00612-01141102711ADDGA1001+999999999GF100991001001999999001001MD1710051+9999REMSYN054AAXX  22031 54259 42980 02003 11061 21114 40271 57005;EQDQ01-000613ATOT  
0165542590999992000022206004+42100+124950FM-12+023599999V0202201N005019999999N0300001N1-00281-01171102561ADDAA199000091GF107991001001999999001021KA1999N-02051MD1710151+9999REMSYN070AAXX  22061 54259 32980 72205 11028 21117 40256 57015 80002 333 21205;EQDQ01  00002PRCP99
0112542590999992000022209004+42100+124950FM-12+023599999V0202701N003019999999N0280001N1-00311-01481102501ADDGF106991001001999999001021MD1710071+9999REMSYN060AAXX  22091 54259 42978 62703 11031 21148 40250 57007 80002;
0152542590999992000022212004+42100+124950FM-12+023599999V0209999C000012200019N0150001N1-00691-01051102511ADDAA199000091GA1001+999999999GF100991001001999999001001MD1410001+9999REMSYN054AAXX  22121 54259 32965 00000 11069 21105 40251 54000;EQDQ01  00002PRCP99
0175542590999992000022218004+42100+124950FM-12+023599999V0209999C000012200019N0120001N1-01411-01531102481ADDAA199000091GA1001+999999999GF100991001001999999001001KA1999M-00181MD1710011+9999REMSYN064AAXX  22181 54259 32962 00000 11141 21153 40248 57001 333 11018;EQDQ01  00002PRCP99
0153542590999992000022221004+42100+124950FM-12+023599999V0209999C000010120019N0080001N1-01251-01361102501ADDAA124000591AY171031GF108991081051012501999999MD1210031+9999MW1701REMSYN076AAXX  22211 54259 41658 80000 11125 21136 40250 52003 77070 885// 333 70005;
0181542590999992000022300004+42100+124950FM-12+023599999V0209999C000012200019N0200001N1-01221-01381102671ADDAA106000591AY171061GA1001+999999999GF100991001001999999001001MD1210141-0101MW1001REMSYN088AAXX  23001 54259 11970 00000 11122 21138 40267 52014 69951 70070 333 05107 70005 92512;
0122542590999992000022303004+42100+124950FM-12+023599999V0202201N002012200019N0300001N1-00601-01481102701ADDGA1001+999999999GF100991001001999999001001MD1210041+9999REMSYN054AAXX  23031 54259 42980 02202 11060 21148 40270 52004;
0146542590999992000022306004+42100+124950FM-12+023599999V0202201N005012200019N0300001N1-00561-01781102661ADDAA199000021GF101991011011008001001001KA1999N-01441MD1710051+9999REMSYN070AAXX  23061 54259 32580 12205 11056 21178 40266 57005 81100 333 21144;
0112542590999992000022309004+42100+124950FM-12+023599999V0203201N003012200019N0300001N1-00741-01901102701ADDGF101991011011008001001001MD1210041+9999REMSYN060AAXX  23091 54259 42580 13203 11074 21190 40270 52004 81100;
0152542590999992000022312004+42100+124950FM-12+023599999V0209999C000012200019N0150001N1-01111-01651102821ADDAA199000091GA1001+999999999GF100991001001999999001001MD1210091+9999REMSYN054AAXX  23121 54259 32965 00000 11111 21165 40282 52009;EQDQ01  00002PRCP99
0175542590999992000022318004+42100+124950FM-12+023599999V0209999C000012200019N0150001N1-01851-01991103041ADDAA199000091GA1001+999999999GF100991001001999999001001KA1999M-00511MD1210121+9999REMSYN064AAXX  23181 54259 32965 00000 11185 21199 40304 52012 333 11051;EQDQ01  00002PRCP99
0143542590999992000022321004+42100+124950FM-12+023599999V0209999C000012200019N0150001N1-02051-02181103081ADDAA124000791GA1001+999999999GF100991001001999999001001MD1210021+9999REMSYN064AAXX  23211 54259 42965 00000 11205 21218 40308 52002 333 79999;
0180542590999992000022400004+42100+124950FM-12+023599999V0209999C000012200019N0070001N1-01981-02101103251ADDAA199000091GA1001+999999999GF100991001001999999001001MD1210141+0501MW1041REMSYN076AAXX  24001 54259 31957 00000 11198 21210 40325 52014 70400 333 00558 92509;EQDQ01  00002PRCP99
0141542590999992000022403004+42100+124950FM-12+023599999V0202201N004012200019N0250001N1-00852-01561103211ADDGA1001+999999999GF100991001001999999001001MD1210011+9999REMSYN054AAXX  24031 54259 42975 02204 11085 21156 40321 52001;EQDQ01-000853ATOT  
0165542590999992000022406004+42100+124950FM-12+023599999V0202201N005012200019N0300001N1-00511-01461103081ADDAA199000091GF101991011011008001001001KA1999N-02051MD1710131+9999REMSYN070AAXX  24061 54259 32580 12205 11051 21146 40308 57013 81100 333 21205;EQDQ01  00002PRCP99
0122542590999992000022409004+42100+124950FM-12+023599999V0202901N002012200019N0300001N1-00701-01821103051ADDGA1001+999999999GF100991001001999999001001MD1710051+9999REMSYN054AAXX  24091 54259 42980 02902 11070 21182 40305 57005;
0152542590999992000022412004+42100+124950FM-12+023599999V0209999C000012200019N0200001N1-01201-01871103101ADDAA199000091GA1001+999999999GF100991001001999999001001MD1210021+9999REMSYN054AAXX  24121 54259 32970 00000 11120 21187 40310 52002;EQDQ01  00002PRCP99
0175542590999992000022418004+42100+124950FM-12+023599999V0209999C000012200019N0150001N1-01861-02071103071ADDAA199000091GA1001+999999999GF100991001001999999001001KA1999M-00511MD1210011+9999REMSYN064AAXX  24181 54259 32965 00000 11186 21207 40307 52001 333 11051;EQDQ01  00002PRCP99
0122542590999992000022421004+42100+124950FM-12+023599999V0209999C000012200019N0150001N1-02021-02191102791ADDGA1001+999999999GF100991001001999999001001MD1710291+9999REMSYN054AAXX  24211 54259 42965 00000 11202 21219 40279 57029;
0170542590999992000022500004+42100+124950FM-12+023599999V0209999C000019999999N0080001N1-01891-02081102791ADDAA199000091GF107991001001999999001021MD1710021-0401MW1041REMSYN082AAXX  25001 54259 31958 70000 11189 21208 40279 57002 70400 80002 333 05401 92508;EQDQ01  00002PRCP99
0131542590999992000022503004+42100+124950FM-12+023599999V0209999C000019999999N0120001N1-00732-01261102491ADDGF107991001001999999001021MD1710241+9999REMSYN060AAXX  25031 54259 42962 70000 11073 21126 40249 57024 80002;EQDQ01-000733ATOT  
0165542590999992000022506004+42100+124950FM-12+023599999V0202001N002019999999N0300001N1-00021-01081102121ADDAA199000091GF107991001001999999001021KA1999N-02051MD1710341+9999REMSYN070AAXX  25061 54259 32980 72002 11002 21108 40212 57034 80002 333 21205;EQDQ01  00002PRCP99
0112542590999992000022509004+42100+124950FM-12+023599999V0209999C000010120019N0280001N1-00141-01091102001ADDGF108991081051012501999999MD1710131+9999REMSYN060AAXX  25091 54259 42678 80000 11014 21109 40200 57013 885//;
0142542590999992000022512004+42100+124950FM-12+023599999V0202201N003010120019N0180001N1-00261-01081101991ADDAA199000091GF108991081051012501999999MD1710011+9999REMSYN060AAXX  25121 54259 32668 82203 11026 21108 40199 57001 885//;EQDQ01  00002PRCP99
0164542590999992000022518004+42100+124950FM-12+023599999V0202201N002010120019N0120001N1-00511-00771101791ADDAA106000791GF108991081051012501999999KA1999M-00011MD1710061+9999MW1701REMSYN082AAXX  25181 54259 11662 82202 11051 21077 40179 57006 69901 77000 885// 333 11001;
0161542590999992000022521004+42100+124950FM-12+023599999V0209999C000010120019N0120001N1-00491-00671101651ADDAA124000791AY171031AY271031GF108991081051012501999999MD1710141+9999MW1701REMSYN076AAXX  25211 54259 41662 80000 11049 21067 40165 57014 77077 885// 333 79999;
0179542590999992000022600004+42100+124950FM-12+023599999V0202701N002010120019N0200001N1-00421-00791101671ADDAA106000591AY171061AY271061GF108991081051012501999999MD1210021-1001MW1701REMSYN094AAXX  26001 54259 11670 82702 11042 21079 40167 52002 69941 77077 885// 333 06015 70004 92507;
0132542590999992000022603004+42100+124950FM-12+023599999V0202201N005012200019N0300001N1-00261-01241101721ADDAY171031GF102991021051012501001001MD1210051+9999MW1001REMSYN066AAXX  26031 54259 41680 22205 11026 21124 40172 52005 70070 82500;
