0201569850999992000010100004+23380+103380FM-12+130299999V0209999C000012200019N0250001N1+00601+00341101951ADDAA106000091GA1001+999999999GF100991001001999999001001IA2999+00009MA1999999087271MD1210131+0201REMSYN076AAXX  01001 56985 32975 00000 10060 20034 38727 40195 52013 333 00202 30003;EQDQ01  00002PRCP06
0122569850999992000010103004+23380+103380FM-12+130299999V0209999C000012200019N0300001N1+01441+00581101881ADDGA1001+999999999GF100991001001999999001001MD1210111+9999REMSYN054AAXX  01031 56985 42980 00000 10144 20058 40188 52011;
0202569850999992000010106004+23380+103380FM-12+130299999V0203601N002012200019N0300001N1+02121+00131101471ADDAA106000091GA1001+999999999GF100991001001999999001001KA1999N+00511MA1999999087081MD1710301+0101REMSYN076AAXX  01061 56985 32980 03602 10212 20013 38708 40147 57030 333 00100 20051;EQDQ01  00002PRCP06
0132569850999992000010109004+23380+103380FM-12+130299999V0200701N002012200019N0300001N1+02271+00081101291ADDGA1001+999999999GF100991001001999999001001MD1710181+0001REMSYN064AAXX  01091 56985 42980 00702 10227 20008 40129 57018 333 00000;
0183569850999992000010112004+23380+103380FM-12+130299999V0201801N002012200019N0200001N1+01701+00331101711ADDAA106000091GA1001+999999999GF100991001001999999001001MA1999999087111MD1210211+0011REMSYN070AAXX  01121 56985 32970 01802 10170 20033 38711 40171 52021 333 00102;EQDQ01  00002PRCP06
0122569850999992000010115004+23380+103380FM-12+130299999V0201601N001012200019N0250001N1+01451+00591101761ADDGA1001+999999999GF100991001001999999001001MD1210181+9999REMSYN054AAXX  01151 56985 42975 01601 10145 20059 40176 52018;
0202569850999992000010118004+23380+103380FM-12+130299999V0201601N002012200019N0220001N1+99999+99999101631ADDAA106000091GA1001+999999999GF100991001001999999001001KA1999M+02331MA1999999087271MD1710021+0101REMSYN076AAXX  01181 56985 32972 01602 1/119 20066 38727 40163 57002 333 00102 10233;EQDQ01  00002PRCP06
0132569850999992000010121004+23380+103380FM-12+130299999V0209999C000012200019N0220001N1+00871+00541101671ADDGA1001+999999999GF100991001001999999001001MD1410001+0011REMSYN064AAXX  01211 56985 42972 00000 10087 20054 40167 54000 333 00102;
0201569850999992000010200004+23380+103380FM-12+130299999V0201401N002012200019N0200001N1+00921+00741102011ADDAA106000091GA1001+999999999GF100991001001999999001001IA2999+00209MA1999999087441MD1210171+0201REMSYN076AAXX  02001 56985 32970 01402 10092 20074 38744 40201 52017 333 00203 30025;EQDQ01  00002PRCP06
0112569850999992000010203004+23380+103380FM-12+130299999V0201101N003012200019N0200001N1+01431+00751102091ADDGF101991011011008001001001MD1210131+9999REMSYN060AAXX  02031 56985 42570 11103 10143 20075 40209 52013 81100;
0192569850999992000010206004+23380+103380FM-12+130299999V0200901N002012200019N0200001N1+01891+00711101661ADDAA106000091GF101991011011008001001001KA1999N+00731MA1999999087251MD1710321+0201REMSYN082AAXX  02061 56985 32570 10902 10189 20071 38725 40166 57032 81100 333 00252 20073;EQDQ01  00002PRCP06
0122569850999992000010209004+23380+103380FM-12+130299999V0202001N004012200019N0200001N1+01971+00621101471ADDGF101991011011008001001001MD1710221+0011REMSYN070AAXX  02091 56985 42570 12004 10197 20062 40147 57022 81100 333 00153;
0183569850999992000010212004+23380+103380FM-12+130299999V0201401N004012200019N0200001N1+01521+00731101701ADDAA106000091GA1001+999999999GF100991001001999999001001MA1999999087131MD1210101+0001REMSYN070AAXX  02121 56985 32970 01404 10152 20073 38713 40170 52010 333 00052;EQDQ01  00002PRCP06
0122569850999992000010215004+23380+103380FM-12+130299999V0201601N003012200019N0200001N1+01301+00891101751ADDGA1001+999999999GF100991001001999999001001MD1210111+9999REMSYN054AAXX  02151 56985 42970 01603 10130 20089 40175 52011;
0202569850999992000010218004+23380+103380FM-12+130299999V0201801N002012200019N0250001N1+01191+00791101571ADDAA106000091GA1001+999999999GF100991001001999999001001KA1999M+02121MA1999999087171MD1710071-0101REMSYN076AAXX  02181 56985 32975 01802 10119 20079 38717 40157 57007 333 05100 10212;EQDQ01  00002PRCP06
0132569850999992000010221004+23380+103380FM-12+130299999V0201101N002012200019N0200001N1+01021+00731101411ADDGA1001+999999999GF100991001001999999001001MD1710161+0031REMSYN064AAXX  02211 56985 42970 01102 10102 20073 40141 57016 333 05302;
0201569850999992000010300004+23380+103380FM-12+130299999V0209999C000012200019N0250001N1+00811+00651101671ADDAA106000091GA1001+999999999GF100991001001999999001001IA2999+00209MA1999999087081MD1210071-0401REMSYN076AAXX  03001 56985 32975 00000 10081 20065 38708 40167 52007 333 05451 30029;EQDQ01  00002PRCP06
0122569850999992000010303004+23380+103380FM-12+130299999V0209999C000012200019N0200001N1+01511+00871101691ADDGA1001+999999999GF100991001001999999001001MD1210131+9999REMSYN054AAXX  03031 56985 42970 00000 10151 20087 40169 52013;
0192569850999992000010306004+23380+103380FM-12+130299999V0203601N001012200019N0300001N1+02191+00321101181ADDAA106000091GF101991011011008001001001KA1999N+00771MA1999999086901MD1710311-0401REMSYN082AAXX  03061 56985 32580 13601 10219 20032 38690 40118 57031 81100 333 05403 20077;EQDQ01  00002PRCP06
0122569850999992000010309004+23380+103380FM-12+130299999V0202201N004012200019N0300001N1+02261+00321101031ADDGF101991011011008001001001MD1710151+0031REMSYN070AAXX  03091 56985 42580 12204 10226 20032 40103 57015 81100 333 05303;
0183569850999992000010312004+23380+103380FM-12+130299999V0201801N003012200019N0300001N1+01701+00911101341ADDAA106000091GA1001+999999999GF100991001001999999001001MA1999999086841MD1210091+0031REMSYN070AAXX  03121 56985 32980 01803 10170 20091 38684 40134 52009 333 05302;EQDQ01  00002PRCP06
0122569850999992000010315004+23380+103380FM-12+130299999V0202001N004012200019N0300001N1+01571+00941101311ADDGA1001+999999999GF100991001001999999001001MD1210111+9999REMSYN054AAXX  03151 56985 42980 02004 10157 20094 40131 52011;
0192569850999992000010318004+23380+103380FM-12+130299999V0201801N004012200019N0300001N1+01431+00881101071ADDAA106000091GF101991011011008001001001KA1999M+02361MA1999999086871MD1710081-0301REMSYN082AAXX  03181 56985 32580 11804 10143 20088 38687 40107 57008 81100 333 05303 10236;EQDQ01  00002PRCP06
0132569850999992000010321004+23380+103380FM-12+130299999V0201601N005012200019N0300001N1+01421+00911100951ADDGA1001+999999999GF100991001001999999001001MD1710101+0021REMSYN064AAXX  03211 56985 42980 01605 10142 20091 40095 57010 333 05204;
0173569850999992000010400004+23380+103380FM-12+130299999V0201401N002012200019N0300001N1+01211+00811101231ADDAA106000091GF101991011011008001001001MA1999999086841MD1210071+0021REMSYN076AAXX  04001 56985 32580 11402 10121 20081 38684 40123 52007 81100 333 05204;EQDQ01  00002PRCP06
0112569850999992000010403004+23380+103380FM-12+130299999V0203601N001012200019N0300001N1+01941+00531101221ADDGF101991001001999999001021MD1210131+9999REMSYN060AAXX  04031 56985 42980 13601 10194 20053 40122 52013 80002;
0192569850999992000010406004+23380+103380FM-12+130299999V0202201N003012200019N0300001N1+02371-00191100871ADDAA106000091GF101991011011008001001001KA1999N+01181MA1999999086741MD1710231-0201REMSYN082AAXX  04061 56985 32580 12203 10237 21019 38674 40087 57023 81100 333 05202 20118;EQDQ01  00002PRCP06
0122569850999992000010409004+23380+103380FM-12+130299999V0202701N002012200019N0300001N1+02341+00011100721ADDGF101991011011008001001001MD1710151+0021REMSYN070AAXX  04091 56985 42580 12702 10234 20001 40072 57015 81100 333 05201;
0183569850999992000010412004+23380+103380FM-12+130299999V0202001N003012200019N0300001N1+01941+00481101031ADDAA106000091GA1001+999999999GF100991001001999999001001MA1999999086721MD1210131+0011REMSYN070AAXX  04121 56985 32980 02003 10194 20048 38672 40103 52013 333 05102;EQDQ01  00002PRCP06
0122569850999992000010415004+23380+103380FM-12+130299999V0201601N004012200019N0300001N1+01831+00221101031ADDGA1001+999999999GF100991001001999999001001MD1210141+9999REMSYN054AAXX  04151 56985 42980 01604 10183 20022 40103 52014;
0202569850999992000010418004+23380+103380FM-12+130299999V0200901N001012200019N0300001N1+01341+00451101031ADDAA106000091GA1001+999999999GF100991001001999999001001KA1999M+02441MA1999999086851MD1710011+0001REMSYN076AAXX  04181 56985 32980 00901 10134 20045 38685 40103 57001 333 00051 10244;EQDQ01  00002PRCP06
0132569850999992000010421004+23380+103380FM-12+130299999V0200901N001012200019N0300001N1+01361+00351100951ADDGA1001+999999999GF100991001001999999001001MD1710071+0001REMSYN064AAXX  04211 56985 42980 00901 10136 20035 40095 57007 333 00051;
0201569850999992000010500004+23380+103380FM-12+130299999V0200901N001012200019N0300001N1+01061+00271101201ADDAA106000091GA1001+999999999GF100991001001999999001001IA2999+00309MA1999999086831MD1210051+0001REMSYN076AAXX  05001 56985 32980 00901 10106 20027 38683 40120 52005 333 00052 30030;EQDQ01  00002PRCP06
0122569850999992000010503004+23380+103380FM-12+130299999V0200701N002012200019N0300001N1+01921-00121101201ADDGA1001+999999999GF100991001001999999001001MD1210171+9999REMSYN054AAXX  05031 56985 42980 00702 10192 21012 40120 52017;
0202569850999992000010506004+23380+103380FM-12+130299999V0203601N003012200019N0300001N1+02331-00331100861ADDAA106000091GA1001+999999999GF100991001001999999001001KA1999N+01041MA1999999086691MD1710311-0101REMSYN076AAXX  05061 56985 32980 03603 10233 21033 38669 40086 57031 333 05100 20104;EQDQ01  00002PRCP06
0122569850999992000010509004+23380+103380FM-12+130299999V0203601N004012200019N0300001N1+02331-00951100671ADDGF101991011011008001001001MD1710161+0011REMSYN070AAXX  05091 56985 42580 13604 10233 21095 40067 57016 81100 333 05100;
0183569850999992000010512004+23380+103380FM-12+130299999V0202701N001012200019N0300001N1+01901-00151101021ADDAA106000091GA1001+999999999GF100991001001999999001001MA1999999086671MD1210141+0011REMSYN070AAXX  05121 56985 32980 02701 10190 21015 38667 40102 52014 333 05100;EQDQ01  00002PRCP06
0122569850999992000010515004+23380+103380FM-12+130299999V0200901N001012200019N0300001N1+01601-00011101001ADDGA1001+999999999GF100991001001999999001001MD1210111+9999REMSYN054AAXX  05151 56985 42980 00901 10160 21001 40100 52011;
0202569850999992000010518004+23380+103380FM-12+130299999V0200901N001012200019N0300001N1+01261+00101101011ADDAA106000091GA1001+999999999GF100991001001999999001001KA1999M+02451MA1999999086801MD1210021-0101REMSYN076AAXX  05181 56985 32980 00901 10126 20010 38680 40101 52002 333 05151 10245;EQDQ01  00002PRCP06
0132569850999992000010521004+23380+103380FM-12+130299999V0200901N002012200019N0300001N1+01101+00071100981ADDGA1001+999999999GF100991001001999999001001MD1710061+0001REMSYN064AAXX  05211 56985 42980 00902 10110 20007 40098 57006 333 00053;
0112569850999992000010603004+23380+103380FM-12+130299999V0209999C000012200019N0300001N1+01661+00431101351ADDGF102991011011008001001011MD1210181+9999REMSYN060AAXX  06031 56985 42580 20000 10166 20043 40135 52018 81101;
0192569850999992000010606004+23380+103380FM-12+130299999V0200901N001012200019N0300001N1+02241-00371100911ADDAA106000091GF102991001001999999001011KA1999N+00661MA1999999086701MD1710321+0001REMSYN082AAXX  06061 56985 32980 20901 10224 21037 38670 40091 57032 80001 333 00051 20066;EQDQ01  00002PRCP06
0122569850999992000010609004+23380+103380FM-12+130299999V0202701N002012200019N0300001N1+02421-00901100831ADDGF102991001001999999001011MD1710071+0011REMSYN070AAXX  06091 56985 42980 22702 10242 21090 40083 57007 80001 333 00101;
0173569850999992000010612004+23380+103380FM-12+130299999V0209999C000012200019N0300001N1+01921-00111101281ADDAA106000091GF102991001001999999001011MA1999999086811MD1210181+0011REMSYN076AAXX  06121 56985 32980 20000 10192 21011 38681 40128 52018 80001 333 00100;EQDQ01  00002PRCP06
0122569850999992000010615004+23380+103380FM-12+130299999V0201401N002012200019N0250001N1+01401+00161101341ADDGA1001+999999999GF100991001001999999001001MD1210161+9999REMSYN054AAXX  06151 56985 42975 01402 10140 20016 40134 52016;
0182569850999992000010618004+23380+103380FM-12+130299999V0201801N001012200019N0250001N1+01401+00621999999ADDAA106000091GA1001+999999999GF100991001001999999001001MA1999999087011MD1210041+9999ME1100249REMSYN060AAXX  06181 56985 32975 01801 10140 20062 38701 41024 52004;EQDQ01  00002PRCP06
0132569850999992000010621004+23380+103380FM-12+130299999V0201401N002012200019N0250001N1+01211+00751101161ADDGA1001+999999999GF100991001001999999001001MD1710071+0021REMSYN064AAXX  06211 56985 42975 01402 10121 20075 40116 57007 333 00201;
0173569850999992000010700004+23380+103380FM-12+130299999V0201801N003010360019N0250001N1+01301+00811101361ADDAA106000091GF107991021041008001041001MA1999999087021MD1210081+0021REMSYN076AAXX  07001 56985 32575 71803 10130 20081 38702 40136 52008 82440 333 00206;EQDQ01  00002PRCP06
0112569850999992000010703004+23380+103380FM-12+130299999V0201601N006012200019N0300001N1+01801+00821101421ADDGF101991011011008001041001MD1210051+9999REMSYN060AAXX  07031 56985 42580 11606 10180 20082 40142 52005 81140;
0192569850999992000010706004+23380+103380FM-12+130299999V0201801N005010360019N0300001N1+02141+00651101001ADDAA106000091GF106991011011008001041001KA1999N+01171MA1999999086781MD1710291+0101REMSYN082AAXX  07061 56985 32580 61805 10214 20065 38678 40100 57029 81140 333 00151 20117;EQDQ01  00002PRCP06
0122569850999992000010709004+23380+103380FM-12+130299999V0201801N004010075019N0280001N1+02001+00861100981ADDGF107991071041008001041999MD1710091+0011REMSYN070AAXX  07091 56985 42578 71804 10200 20086 40098 57009 8744/ 333 00154;
0180569850999992000010712004+23380+103380FM-12+130299999V0209999C000010075019N0200001N1+01681+00801101311ADDAA106000191AY181061GF108991081091008001999999MA1999999086921MD1210231+0011MW1001REMSYN088AAXX  07121 56985 11570 80000 10168 20080 38692 40131 52023 69911 70080 889// 333 00152;
0132569850999992000010715004+23380+103380FM-12+130299999V0201601N004010075019N0200001N1+01581+00801101231ADDAY181031GF107991071041008001999999MD1210031+9999MW1001REMSYN066AAXX  07151 56985 41570 71604 10158 20080 40123 52003 70080 874//;
0199569850999992000010718004+23380+103380FM-12+130299999V0201401N002010075019N0200001N1+01381+01121101131ADDAA106000391AY181061GF108991081041008001999999KA1999M+02241MA1999999086891MD1710061-0101MW1801REMSYN094AAXX  07181 56985 11570 81402 10138 20112 38689 40113 57006 69931 78080 884// 333 05100 10224;
0159569850999992000010721004+23380+103380FM-12+130299999V0209999C000010075019N0200001N1+01291+01091101111ADDAA124001391AY181031GF107991071041008001999999MD1710071-0101MW1001REMSYN082AAXX  07211 56985 41570 70000 10129 20109 40111 57007 70080 874// 333 05101 70012;
0186569850999992000010800004+23380+103380FM-12+130299999V0209999C000012200019N0300001N1+01161+00981101331ADDAA106000891AY181061GF101991011011008001001001MA1999999086911MD1210091-0101MW1001REMSYN094AAXX  08001 56985 11580 10000 10116 20098 38691 40133 52009 69981 70080 81100 333 05151 70012;
0112569850999992000010803004+23380+103380FM-12+130299999V0200201N002012200019N0300001N1+01701+00491101371ADDGF101991011011008001001001MD1210131+9999REMSYN060AAXX  08031 56985 42580 10202 10170 20049 40137 52013 81100;
0192569850999992000010806004+23380+103380FM-12+130299999V0200401N002012200019N0300001N1+02081-00241100961ADDAA106000091GF101991011001999999041001KA1999N+01111MA1999999086731MD1710311-0101REMSYN082AAXX  08061 56985 32980 10402 10208 21024 38673 40096 57031 81040 333 05151 20111;EQDQ01  00002PRCP06
0122569850999992000010809004+23380+103380FM-12+130299999V0202201N002012200019N0300001N1+02191-00081100741ADDGF101991011041012501001001MD1710181+0011REMSYN070AAXX  08091 56985 42680 12202 10219 21008 40074 57018 81400 333 05102;
0183569850999992000010812004+23380+103380FM-12+130299999V0202001N004012200019N0300001N1+01771+00241101101ADDAA106000091GA1001+999999999GF100991001001999999001001MA1999999086731MD1210181+0021REMSYN070AAXX  08121 56985 32980 02004 10177 20024 38673 40110 52018 333 05201;EQDQ01  00002PRCP06
0122569850999992000010815004+23380+103380FM-12+130299999V0201101N001012200019N0300001N1+01551+00241101261ADDGA1001+999999999GF100991001001999999001001MD1210211+9999REMSYN054AAXX  08151 56985 42980 01101 10155 20024 40126 52021;
0202569850999992000010818004+23380+103380FM-12+130299999V0209999C000012200019N0300001N1+01041+00371101291ADDAA106000091GA1001+999999999GF100991001001999999001001KA1999M+02311MA1999999086941MD1410001+0101REMSYN076AAXX  08181 56985 32980 00000 10104 20037 38694 40129 54000 333 00153 10231;EQDQ01  00002PRCP06
0132569850999992000010821004+23380+103380FM-12+130299999V0209999C000012200019N0300001N1+00891+00311101171ADDGA1001+999999999GF100991001001999999001001MD1710111+0001REMSYN064AAXX  08211 56985 42980 00000 10089 20031 40117 57011 333 00054;
0201569850999992000010900004+23380+103380FM-12+130299999V0209999C000012200019N0300001N1+00701+00381101471ADDAA106000091GA1001+999999999GF100991001001999999001001IA2999+00109MA1999999086941MD1210111+0001REMSYN076AAXX  09001 56985 32980 00000 10070 20038 38694 40147 52011 333 00055 30017;EQDQ01  00002PRCP06
0122569850999992000010903004+23380+103380FM-12+130299999V0209999C000012200019N0300001N1+01791+00491101361ADDGA1001+999999999GF100991001001999999001001MD1210111+9999REMSYN054AAXX  09031 56985 42980 00000 10179 20049 40136 52011;
0132569850999992000010909004+23380+103380FM-12+130299999V0201401N006012200019N0300001N1+02141+00291100971ADDGA1001+999999999GF100991001001999999001001MD1710121+0011REMSYN064AAXX  09091 56985 42980 01406 10214 20029 40097 57012 333 00151;
0183569850999992000010912004+23380+103380FM-12+130299999V0201801N003012200019N0300001N1+01801+00631101271ADDAA106000091GA1001+999999999GF100991001001999999001001MA1999999086781MD1210141+0011REMSYN070AAXX  09121 56985 32980 01803 10180 20063 38678 40127 52014 333 00100;EQDQ01  00002PRCP06
0122569850999992000010915004+23380+103380FM-12+130299999V0201401N002012200019N0300001N1+01501+00731101191ADDGA1001+999999999GF100991001001999999001001MD1210111+9999REMSYN054AAXX  09151 56985 42980 01402 10150 20073 40119 52011;
0202569850999992000010918004+23380+103380FM-12+130299999V0201801N004012200019N0300001N1+01651+00781101021ADDAA106000091GA1001+999999999GF100991001001999999001001KA1999M+02211MA1999999086861MD1710031-0101REMSYN076AAXX  09181 56985 32980 01804 10165 20078 38686 40102 57003 333 05106 10221;EQDQ01  00002PRCP06
0132569850999992000010921004+23380+103380FM-12+130299999V0201601N005012200019N0150001N1+01531+00851100891ADDGA1001+999999999GF100991001001999999001001MD1710141+0011REMSYN064AAXX  09211 56985 42965 01605 10153 20085 40089 57014 333 05106;
0173569850999992000011000004+23380+103380FM-12+130299999V0201801N004012200019N0300001N1+01451+00921101071ADDAA106000091GF101991011011008001001001MA1999999086781MD1210061+0021REMSYN076AAXX  10001 56985 32580 11804 10145 20092 38678 40107 52006 81100 333 05208;EQDQ01  00002PRCP06
0112569850999992000011003004+23380+103380FM-12+130299999V0201801N005012200019N0300001N1+01981+00811101171ADDGF101991011011008001001001MD1210141+9999REMSYN060AAXX  10031 56985 42580 11805 10198 20081 40117 52014 81100;
0192569850999992000011006004+23380+103380FM-12+130299999V0201801N007012200019N0300001N1+02281+00661100781ADDAA106000091GF101991011011008001001001KA1999N+01351MA1999999086681MD1710241-0101REMSYN082AAXX  10061 56985 32580 11807 10228 20066 38668 40078 57024 81100 333 05101 20135;EQDQ01  00002PRCP06
0122569850999992000011009004+23380+103380FM-12+130299999V0201601N006012200019N0300001N1+02341+00731100671ADDGF101991011011008001001001MD1710111+0011REMSYN070AAXX  10091 56985 42580 11606 10234 20073 40067 57011 81100 333 05102;
0183569850999992000011012004+23380+103380FM-12+130299999V0201801N003012200019N0300001N1+01981+00921100991ADDAA106000091GA1001+999999999GF100991001001999999001001MA1999999086751MD1210181+0001REMSYN070AAXX  10121 56985 32980 01803 10198 20092 38675 40099 52018 333 00002;EQDQ01  00002PRCP06
0112569850999992000011015004+23380+103380FM-12+130299999V0209999C000012200019N0300001N1+01741+00961101041ADDGF101991011011008001001001MD1210111+9999REMSYN060AAXX  10151 56985 42580 10000 10174 20096 40104 52011 81100;
0202569850999992000011018004+23380+103380FM-12+130299999V0201801N002012200019N0300001N1+01651+00991100961ADDAA106000091GA1001+999999999GF100991001001999999001001KA1999M+02381MA1999999086841MD1710021+0001REMSYN076AAXX  10181 56985 32980 01802 10165 20099 38684 40096 57002 333 00000 10238;EQDQ01  00002PRCP06
0132569850999992000011021004+23380+103380FM-12+130299999V0201601N003012200019N0300001N1+01781+00751100881ADDGA1001+999999999GF100991001001999999001001MD1710031+0011REMSYN064AAXX  10211 56985 42980 01603 10178 20075 40088 57003 333 00103;
0183569850999992000011100004+23380+103380FM-12+130299999V0202001N004012200019N0300001N1+01801+00341101061ADDAA106000091GA1001+999999999GF100991001001999999001001MA1999999086891MD1210081+0011REMSYN070AAXX  11001 56985 32980 02004 10180 20034 38689 40106 52008 333 00104;EQDQ01  00002PRCP06
0122569850999992000011103004+23380+103380FM-12+130299999V0201601N005012200019N0300001N1+02121+00371101191ADDGA1001+999999999GF100991001001999999001001MD1210131+9999REMSYN054AAXX  11031 56985 42980 01605 10212 20037 40119 52013;
0202569850999992000011106004+23380+103380FM-12+130299999V0202201N004012200019N0300001N1+02441+00141100831ADDAA106000091GA1001+999999999GF100991001001999999001001KA1999N+01491MA1999999086761MD1710261+0101REMSYN076AAXX  11061 56985 32980 02204 10244 20014 38676 40083 57026 333 00102 20149;EQDQ01  00002PRCP06
0132569850999992000011109004+23380+103380FM-12+130299999V0202201N005012200019N0300001N1+02481+00381100581ADDGA1001+999999999GF100991001001999999001001MD1710181+0001REMSYN064AAXX  11091 56985 42980 02205 10248 20038 40058 57018 333 00001;
0183569850999992000011112004+23380+103380FM-12+130299999V0201801N004012200019N0300001N1+02031+00661100861ADDAA106000091GA1001+999999999GF100991001001999999001001MA1999999086731MD1210151+0001REMSYN070AAXX  11121 56985 32980 01804 10203 20066 38673 40086 52015 333 00001;EQDQ01  00002PRCP06
0122569850999992000011115004+23380+103380FM-12+130299999V0201801N003012200019N0300001N1+01881+00761100981ADDGA1001+999999999GF100991001001999999001001MD1210141+9999REMSYN054AAXX  11151 56985 42980 01803 10188 20076 40098 52014;
0202569850999992000011118004+23380+103380FM-12+130299999V0200901N004012200019N0300001N1+01671+00781100921ADDAA106000091GA1001+999999999GF100991001001999999001001KA1999M+02541MA1999999086841MD1710031+0001REMSYN076AAXX  11181 56985 32980 00904 10167 20078 38684 40092 57003 333 00000 10254;EQDQ01  00002PRCP06
0132569850999992000011121004+23380+103380FM-12+130299999V0209999C000012200019N0300001N1+01281+00751100941ADDGA1001+999999999GF100991001001999999001001MD1710061+0001REMSYN064AAXX  11211 56985 42980 00000 10128 20075 40094 57006 333 00055;
0201569850999992000011200004+23380+103380FM-12+130299999V0209999C000012200019N0300001N1+00981+00601101231ADDAA106000091GA1001+999999999GF100991001001999999001001IA2999+00409MA1999999086861MD1210081+0001REMSYN076AAXX  12001 56985 32980 00000 10098 20060 38686 40123 52008 333 00058 30044;EQDQ01  00002PRCP06
0122569850999992000011203004+23380+103380FM-12+130299999V0201801N003012200019N0300001N1+02081+00391100132ADDGA1001+999999999GF100991001001999999001001MD1210131+9999REMSYN054AAXX  12031 56985 42980 01803 10208 20039 40013 52013;
0218569850999992000011206004+23380+103380FM-12+130299999V0201401N003012200019N0300001N1+02481-00261100752ADDAA106000091GA1001+999999999GF100991001001999999001001KA1999N+00921MA1999999086701MD1710291-0101REMSYN076AAXX  12061 56985 32980 01403 10248 21026 38670 40075 57029 333 05100 20092;EQDQ01+100753APOSLPQ02  00002PRCP06
0132569850999992000011209004+23380+103380FM-12+130299999V0202001N005012200019N0300001N1+02381+00101100701ADDGA1001+999999999GF100991001001999999001001MD1710151+0001REMSYN064AAXX  12091 56985 42980 02005 10238 20010 40070 57015 333 00051;
0183569850999992000011212004+23380+103380FM-12+130299999V0202001N004012200019N0300001N1+02011+00341101011ADDAA106000091GA1001+999999999GF100991001001999999001001MA1999999086671MD1210121+0011REMSYN070AAXX  12121 56985 3/280 02004 10201 20034 38667 40101 52012 333 05100;EQDQ01  00002PRCP06
0122569850999992000011215004+23380+103380FM-12+130299999V0201601N002012200019N0300001N1+01661+00541101001ADDGA1001+999999999GF100991001001999999001001MD1210161+9999REMSYN054AAXX  12151 56985 42980 01602 10166 20054 40100 52016;
0202569850999992000011218004+23380+103380FM-12+130299999V0201401N003012200019N0300001N1+01661+00471100811ADDAA106000091GA1001+999999999GF100991001001999999001001KA1999M+02551MA1999999086741MD1710091-0101REMSYN076AAXX  12181 56985 32980 01403 10166 20047 38674 40081 57009 333 05151 10255;EQDQ01  00002PRCP06
0132569850999992000011221004+23380+103380FM-12+130299999V0202201N002012200019N0300001N1+01361+00501100731ADDGA1001+999999999GF100991001001999999001001MD1710141+0021REMSYN064AAXX  12211 56985 42980 02202 10136 20050 40073 57014 333 05201;
0183569850999992000011300004+23380+103380FM-12+130299999V0201101N003012200019N0300001N1+01341+00431100881ADDAA106000091GA1001+999999999GF100991001001999999001001MA1999999086641MD1210041+0021REMSYN070AAXX  13001 56985 32980 01103 10134 20043 38664 40088 52004 333 05204;EQDQ01  00002PRCP06
0122569850999992000011303004+23380+103380FM-12+130299999V0200701N001012200019N0300001N1+01921+00221101011ADDGA1001+999999999GF100991001001999999001001MD1210161+9999REMSYN054AAXX  13031 56985 42980 00701 10192 20022 40101 52016;
0202569850999992000011306004+23380+103380FM-12+130299999V0200201N002012200019N0300001N1+02161-00031100661ADDAA106000091GA1001+999999999GF100991001001999999001001KA1999N+01321MA1999999086541MD1710261-0201REMSYN076AAXX  13061 56985 32980 00202 10216 21003 38654 40066 57026 333 05253 20132;EQDQ01  00002PRCP06
0132569850999992000011309004+23380+103380FM-12+130299999V0202001N004012200019N0300001N1+02361-00251100521ADDGA1001+999999999GF100991001001999999001001MD1710131+0011REMSYN064AAXX  13091 56985 42980 02004 10236 21025 40052 57013 333 05100;
0183569850999992000011312004+23380+103380FM-12+130299999V0202201N004012200019N0300001N1+02001+00041100771ADDAA106000091GA1001+999999999GF100991001001999999001001MA1999999086541MD1210131+0011REMSYN070AAXX  13121 56985 32980 02204 10200 20004 38654 40077 52013 333 05100;EQDQ01  00002PRCP06
0122569850999992000011315004+23380+103380FM-12+130299999V0201401N002012200019N0300001N1+01721+00251100781ADDGA1001+999999999GF100991001001999999001001MD1210081+9999REMSYN054AAXX  13151 56985 42980 01402 10172 20025 40078 52008;
0202569850999992000011318004+23380+103380FM-12+130299999V0209999C000012200019N0300001N1+01361+00331100811ADDAA106000091GA1001+999999999GF100991001001999999001001KA1999M+02461MA1999999086621MD1410001-0101REMSYN076AAXX  13181 56985 32980 00000 10136 20033 38662 40081 54000 333 05153 10246;EQDQ01  00002PRCP06
0136569850999992000011321004+23380+103380FM-12+130299999V0202001N003012200019N0300001N1+01571+00331100591ADDGA1001+999999999GF100991001001999999001001MD1710101+0011REMSYN068    AAXX  13211 56985 42980 02003 10157 20033 40059 57010 333 05102;
0195569850999992000011400004+23380+103380FM-12+130299999V0201801N004012200019N0300001N1+01561+00201100801ADDAA199000091GF101991001001999999001021IA2999+00409MA1999999086621MD1210101+0001REMSYN086    AAXX  14001 56985 32980 11804 10156 20020 38662 40080 52010 80002 333 00002 30048;EQDQ01  00002PRCP99
0126569850999992000011403004+23380+103380FM-12+130299999V0202001N001012200019N0300001N1+02091+00171100881ADDGA1001+999999999GF100991001001999999001001MD1210121+9999REMSYN058    AAXX  14031 56985 42980 02001 10209 20017 40088 52012;
0196569850999992000011406004+23380+103380FM-12+130299999V0203401N003012200019N0300001N1+02331-00411100671ADDAA199000091GF101991011011008001001001KA1999N+01151MA1999999086531MD1710211+0001REMSYN086    AAXX  14061 56985 32580 13403 10233 21041 38653 40067 57021 81100 333 00002 20115;EQDQ01  00002PRCP99
0126569850999992000011409004+23380+103380FM-12+130299999V0202201N006012200019N0300001N1+02271-00251100391ADDGF101991011011008001001001MD1710201+0011REMSYN074    AAXX  14091 56985 42580 12206 10227 21025 40039 57020 81100 333 05151;
0187569850999992000011412004+23380+103380FM-12+130299999V0201801N002012200019N0300001N1+01881+00281100671ADDAA199000091GA1001+999999999GF100991001001999999001001MA1999999086481MD1210151+0011REMSYN074    AAXX  14121 56985 32980 01802 10188 20028 38648 40067 52015 333 05151;EQDQ01  00002PRCP99
0126569850999992000011415004+23380+103380FM-12+130299999V0202001N005012200019N0300001N1+01741+00221100721ADDGA1001+999999999GF100991001001999999001001MD1210131+9999REMSYN058    AAXX  14151 56985 42980 02005 10174 20022 40072 52013;
0206569850999992000011418004+23380+103380FM-12+130299999V0202001N004012200019N0300001N1+01621+00151100761ADDAA199000091GA1001+999999999GF100991001001999999001001KA1999M+02441MA1999999086671MD1210061+0101REMSYN080    AAXX  14181 56985 32980 02004 10162 20015 38667 40076 52006 333 00103 10244;EQDQ01  00002PRCP99
0136569850999992000011421004+23380+103380FM-12+130299999V0209999C000012200019N0300001N1+01501+00051100761ADDGA1001+999999999GF100991001001999999001001MD1710041+0011REMSYN068    AAXX  14211 56985 42980 00000 10150 20005 40076 57004 333 00151;
0205569850999992000011500004+23380+103380FM-12+130299999V0209999C000012200019N0250001N1+01211+00141101091ADDAA199000091GA1001+999999999GF100991001001999999001001IA2999+00409MA1999999086761MD1210131+0101REMSYN080    AAXX  15001 56985 32975 00000 10121 20014 38676 40109 52013 333 00154 30045;EQDQ01  00002PRCP99
0126569850999992000011503004+23380+103380FM-12+130299999V0209999C000012200019N0300001N1+02061+00151101081ADDGA1001+999999999GF100991001001999999001001MD1210151+9999REMSYN058    AAXX  15031 56985 42980 00000 10206 20015 40108 52015;
0206569850999992000011506004+23380+103380FM-12+130299999V0202001N003012200019N0300001N1+02261-00161100781ADDAA199000091GA1001+999999999GF100991001001999999001001KA1999N+01081MA1999999086671MD1710241+0101REMSYN080    AAXX  15061 56985 32980 02003 10226 21016 38667 40078 57024 333 00151 20108;EQDQ01  00002PRCP99
0136569850999992000011509004+23380+103380FM-12+130299999V0202501N003012200019N0300001N1+02281-00041100631ADDGA1001+999999999GF100991001001999999001001MD1710151+0021REMSYN068    AAXX  15091 56985 42980 02503 10228 21004 40063 57015 333 00200;
0151569850999992000011510004+23380+103380FM-12+130299999V0201801N004012200019N0300001N1+01821+99999101021ADDGA1001+999999999GF100991001001999999001001MA1999999086691MD1210171+0021REMSYN068    AAXX  15101 56985 /2980 01804 10182 38669 40102 52017 333 00251;
0187569850999992000011512004+23380+103380FM-12+130299999V0201801N004012200019N0300001N1+01821+00231101021ADDAA199000091GA1001+999999999GF100991001001999999001001MA1999999086691MD1210171+0021REMSYN074    AAXX  15121 56985 32980 01804 10182 20023 38669 40102 52017 333 00251;EQDQ01  00002PRCP99
0126569850999992000011515004+23380+103380FM-12+130299999V0201601N003012200019N0300001N1+01661+00301101031ADDGA1001+999999999GF100991001001999999001001MD1210161+9999REMSYN058    AAXX  15151 56985 42980 01603 10166 20030 40103 52016;
0206569850999992000011518004+23380+103380FM-12+130299999V0201601N003012200019N0300001N1+01511+00321101011ADDAA199000091GA1001+999999999GF100991001001999999001001KA1999M+02391MA1999999086841MD1710011+0201REMSYN080    AAXX  15181 56985 32980 01603 10151 20032 38684 40101 57001 333 00251 10239;EQDQ01  00002PRCP99
0136569850999992000011521004+23380+103380FM-12+130299999V0201401N002012200019N0300001N1+01421+00251101011ADDGA1001+999999999GF100991001001999999001001MD1710011+0021REMSYN068    AAXX  15211 56985 42980 01402 10142 20025 40101 57001 333 00251;
0187569850999992000011600004+23380+103380FM-12+130299999V0209999C000012200019N0300001N1+01281+00161101311ADDAA199000091GA1001+999999999GF100991001001999999001001MA1999999086951MD1210121+0021REMSYN074    AAXX  16001 56985 32980 00000 10128 20016 38695 40131 52012 333 00201;EQDQ01  00002PRCP99
0126569850999992000011603004+23380+103380FM-12+130299999V0201601N002012200019N0300001N1+02061+00011101361ADDGA1001+999999999GF100991001001999999001001MD1210181+9999REMSYN058    AAXX  16031 56985 42980 01602 10206 20001 40136 52018;
0206569850999992000011606004+23380+103380FM-12+130299999V0203401N002012200019N0300001N1+02301-00271100981ADDAA199000091GA1001+999999999GF100991001001999999001001KA1999N+01081MA1999999086831MD1710301+0201REMSYN080    AAXX  16061 56985 32980 03402 10230 21027 38683 40098 57030 333 00200 20108;EQDQ01  00002PRCP99
0136569850999992000011609004+23380+103380FM-12+130299999V0202701N002012200019N0300001N1+02361-00171100771ADDGA1001+999999999GF100991001001999999001001MD1710191+0011REMSYN068    AAXX  16091 56985 42980 02702 10236 21017 40077 57019 333 00101;
0187569850999992000011612004+23380+103380FM-12+130299999V0201601N004012200019N0300001N1+01821+00431101121ADDAA199000091GA1001+999999999GF100991001001999999001001MA1999999086791MD1210151+0011REMSYN074    AAXX  16121 56985 32980 01604 10182 20043 38679 40112 52015 333 00100;EQDQ01  00002PRCP99
0126569850999992000011615004+23380+103380FM-12+130299999V0209999C000012200019N0300001N1+01541+00621101181ADDGA1001+999999999GF100991001001999999001001MD1210161+9999REMSYN058    AAXX  16151 56985 42980 00000 10154 20062 40118 52016;
0206569850999992000011618004+23380+103380FM-12+130299999V0201601N002012200019N0300001N1+01441+00741101161ADDAA199000091GA1001+999999999GF100991001001999999001001KA1999M+02501MA1999999086971MD1210021+0101REMSYN080    AAXX  16181 56985 32980 01602 10144 20074 38697 40116 52002 333 00151 10250;EQDQ01  00002PRCP99
0136569850999992000011621004+23380+103380FM-12+130299999V0201801N005012200019N0300001N1+01481+00811101091ADDGA1001+999999999GF100991001001999999001001MD1710041+0011REMSYN068    AAXX  16211 56985 42980 01805 10148 20081 40109 57004 333 00101;
0147569850999992000011700004+23380+103380FM-12+130299999V0201801N004012200019N0280001N1+01401+00891101351ADDGF101991011041008001001001MA1999999087011MD1210081+0011REMSYN080    AAXX  17001 56985 /3578 11804 10140 20089 38701 40135 52008 81400 333 00101;
0116569850999992000011703004+23380+103380FM-12+130299999V0202701N001012200019N0300001N1+01871+00701101521ADDGF101991011011008001001001MD1210191+9999REMSYN064    AAXX  17031 56985 42580 12701 10187 20070 40152 52019 81100;
0196569850999992000011706004+23380+103380FM-12+130299999V0203401N002012200019N0300001N1+02231+00231101071ADDAA199000091GF101991011011008001001001KA1999N+01381MA1999999086871MD1710331+0001REMSYN086    AAXX  17061 56985 32580 13402 10223 20023 38687 40107 57033 81100 333 00051 20138;EQDQ01  00002PRCP99
0136569850999992000011709004+23380+103380FM-12+130299999V0202001N004012200019N0300001N1+02141+00471100881ADDGA1001+999999999GF100991001001999999001001MD1710171+0011REMSYN068    AAXX  17091 56985 42980 02004 10214 20047 40088 57017 333 00152;
0187569850999992000011712004+23380+103380FM-12+130299999V0201801N004012200019N0300001N1+01621+01121101271ADDAA199000091GA1001+999999999GF100991001001999999001001MA1999999086901MD1210201+0011REMSYN074    AAXX  17121 56985 32980 01804 10162 20112 38690 40127 52020 333 00152;EQDQ01  00002PRCP99
0116569850999992000011715004+23380+103380FM-12+130299999V0201801N005012200019N0300001N1+01391+01051101481ADDGF101991011011008001001001MD1210231+9999REMSYN064    AAXX  17151 56985 42580 11805 10139 20105 40148 52023 81100;
0196569850999992000011718004+23380+103380FM-12+130299999V0201601N006012200019N0300001N1+01271+01001101421ADDAA199000091GF101991011011008001001001KA1999M+02331MA1999999087141MD1210011+0201REMSYN086    AAXX  17181 56985 32580 11606 10127 20100 38714 40142 52001 81100 333 00252 10233;EQDQ01  00002PRCP99
0136569850999992000011721004+23380+103380FM-12+130299999V0201801N004012200019N0300001N1+01181+00901101331ADDGA1001+999999999GF100991001001999999001001MD1710121+0011REMSYN068    AAXX  17211 56985 42980 01804 10118 20090 40133 57012 333 00153;
0177569850999992000011800004+23380+103380FM-12+130299999V0203601N002010075019N0100001N1+00871+00581101881ADDAA199000091GF108991081041008001999999MA1999999087301MD1210281+0031REMSYN080    AAXX  18001 56985 32560 83602 10087 20058 38730 40188 52028 884// 333 00355;EQDQ01  00002PRCP99
0116569850999992000011803004+23380+103380FM-12+130299999V0203601N002010075019N0100001N1+01011+00561102151ADDGF108991081041008001999999MD1210211+9999REMSYN064    AAXX  18031 56985 42560 83602 10101 20056 40215 52021 884//;
0196569850999992000011806004+23380+103380FM-12+130299999V0203601N003010075019N0100001N1+01111+00551101921ADDAA199000091GF107991071041008001999999KA1999N+00841MA1999999087311MD1710201+0401REMSYN086    AAXX  18061 56985 32560 73603 10111 20055 38731 40192 57020 874// 333 00461 20084;EQDQ01  00002PRCP99
0126569850999992000011809004+23380+103380FM-12+130299999V0201401N002010075019N0100001N1+01161+00691101681ADDGF108991081041008001999999MD1710221+0041REMSYN074    AAXX  18091 56985 42560 81402 10116 20069 40168 57022 884// 333 00460;
0177569850999992000011812004+23380+103380FM-12+130299999V0201601N004010075019N0120001N1+01041+00691101961ADDAA199000091GF108991081041008001999999MA1999999087231MD1210141+0031REMSYN080    AAXX  18121 56985 32562 81604 10104 20069 38723 40196 52014 884// 333 00356;EQDQ01  00002PRCP99
0203569850999992000011818004+23380+103380FM-12+130299999V0201101N002010075019N0100001N1+00821+00371102211ADDAA106000791AY181061GF108991081041008001999999KA1999M+01281MA1999999087451MD1210041+0301MW1801REMSYN098    AAXX  18181 56985 11560 81102 10082 20037 38745 40221 52004 69901 78080 884// 333 00355 10128;
0187569850999992000011821004+23380+103380FM-12+130299999V0209999C000012200019N0100001N1+00641+00511102251ADDAA124000591AY161031AY261031GA1001+999999999GF100991001001999999001001MD1410001+0401MW1211REMSYN086    AAXX  18211 56985 41560 00000 10064 20051 40225 54000 72166 884// 333 00455 70004;
0190569850999992000011900004+23380+103380FM-12+130299999V0203401N003010075019N0060001N1+00561+00451102441ADDAA106000591AY161061GF108991081041008001999999MA1999999087571MD1210121+0301MW1101REMSYN098    AAXX  19001 56985 11556 83403 10056 20045 38757 40244 52012 69951 71060 884// 333 00353 70024;
0116569850999992000011903004+23380+103380FM-12+130299999V0209999C000010075019N0100001N1+00721+00331102541ADDGF108991081041008001999999MD1210091+9999REMSYN064    AAXX  19031 56985 42560 80000 10072 20033 40254 52009 884//;
0177569850999992000011906004+23380+103380FM-12+130299999V0203201N001010075019N0100001N1+00841+00511102191ADDAA199000021GF108991081041008001999999KA1999N+00531MA1999999087371MD1710291+0101REMSYN086    AAXX  19061 56985 32560 83201 10084 20051 38737 40219 57029 884// 333 00153 20053;
0138569850999992000011909004+23380+103380FM-12+130299999V0209999C000010120019N0080001N1+00901+00531102021ADDGF108991081051012501999999MD1710181+0011MW1101REMSYN080    AAXX  19091 56985 41658 80000 10090 20053 40202 57018 71000 885// 333 00153;
0177569850999992000011912004+23380+103380FM-12+130299999V0201601N003010120019N0100001N1+00781+00491102081ADDAA199000091GF108991081051012501999999MA1999999087201MD1210011+0001REMSYN080    AAXX  19121 56985 32660 81603 10078 20049 38720 40208 52001 885// 333 00053;EQDQ01  00002PRCP99
0112569850999992000011915004+23380+103380FM-12+130299999V0201601N003010075019N0100001N1+00681+00471102171ADDGF107991071041008001001001MD1210091+9999REMSYN060AAXX  19151 56985 42560 71603 10068 20047 40217 52009 87400;
0192569850999992000011918004+23380+103380FM-12+130299999V0201801N003010075019N0100001N1+00681+00471102171ADDAA199000091GF108991081041008001999999KA1999M+00951MA1999999087321MD1210031-0101REMSYN082AAXX  19181 56985 32560 81803 10068 20047 38732 40217 52003 884// 333 05151 10095;EQDQ01  00002PRCP99
0139569850999992000011921004+23380+103380FM-12+130299999V0202001N004010075019N0100001N1+00641+00381102051ADDAA124000191GF108991081041008001999999MD1710101-0201REMSYN076AAXX  19211 56985 42560 82004 10064 20038 40205 57010 884// 333 05200 70001;
0186569850999992000012000004+23380+103380FM-12+130299999V0202001N004010075019N0110001N1+00651+00411102081ADDAA106000591AY161061GF108991081041008001999999MA1999999087221MD1410001-0401MW1211REMSYN094AAXX  20001 56985 11561 82004 10065 20041 38722 40208 54000 69961 72160 884// 333 05401 70006;
0132569850999992000012003004+23380+103380FM-12+130299999V0201801N003010075019N0150001N1+00641+00331102341ADDAY181031GF108991081041008001999999MD1210191+9999MW1251REMSYN066AAXX  20031 56985 41565 81803 10064 20033 40234 52019 72580 884//;
0199569850999992000012006004+23380+103380FM-12+130299999V0201801N004010075019N0150001N1+00701+00381102111ADDAA106000791AY181061GF108991081041008001999999KA1999N+00541MA1999999087231MD1710181-0101MW1001REMSYN094AAXX  20061 56985 11565 81804 10070 20038 38723 40211 57018 69901 70080 884// 333 05151 20054;
0122569850999992000012009004+23380+103380FM-12+130299999V0202001N003010075019N0140001N1+00741+00401101901ADDGF107991071041008001999999MD1710181+0011REMSYN070AAXX  20091 56985 42564 72003 10074 20040 40190 57018 874// 333 05152;
0154569850999992000012012004+23380+103380FM-12+130299999V0201801N004010075019N0120001N1+00641+00421102021ADDAA199000021GF108991081041008001999999MA1999999087131MD1210081+0011REMSYN076AAXX  20121 56985 32562 81804 10064 20042 38713 40202 52008 884// 333 05151;
0112569850999992000012015004+23380+103380FM-12+130299999V0201801N005010075019N0120001N1+00631+00391102231ADDGF108991081041008001999999MD1210181+9999REMSYN060AAXX  20151 56985 42562 81805 10063 20039 40223 52018 884//;
0192569850999992000012018004+23380+103380FM-12+130299999V0201801N005010075019N0120001N1+00581+00381102221ADDAA199000091GF108991081041008001999999KA1999M+00901MA1999999087301MD1710011+0001REMSYN082AAXX  20181 56985 32562 81805 10058 20038 38730 40222 57001 884// 333 00051 10090;EQDQ01  00002PRCP99
0139569850999992000012021004+23380+103380FM-12+130299999V0201801N003010075019N0120001N1+00581+00381102181ADDAA124000591GF108991081041008001999999MD1710021+0101REMSYN076AAXX  20211 56985 42562 81803 10058 20038 40218 57002 884// 333 00151 70006;
0160569850999992000012100004+23380+103380FM-12+130299999V0201801N003010075019N0120001N1+00661+00451102311ADDAA124000791GF108991081041008001999999MA1999999087381MD1210101+0201REMSYN082AAXX  21001 56985 32562 81803 10066 20045 38738 40231 52010 884// 333 00200 79999;
0148569850999992000012101004+23380+103380FM-12+130299999V0201801N003019999999N0120001N1+00661+00451999999ADDAA124000791GF108991999999008001999999MA1999999087381MD1210101+0201REMSYN070AAXX  21011 56985 32562 81803 10066 20045 38738 52010 333 00200 79999;
0112569850999992000012103004+23380+103380FM-12+130299999V0202001N003010075019N0250001N1+01011+00611102401ADDGF106991061041008001001001MD1210161+9999REMSYN060AAXX  21031 56985 42575 62003 10101 20061 40240 52016 86400;
0192569850999992000012106004+23380+103380FM-12+130299999V0201801N005012200019N0250001N1+01461+00741101961ADDAA199000091GF102991021041008001001001KA1999N+00521MA1999999087261MD1710281+0001REMSYN082AAXX  21061 56985 32575 21805 10146 20074 38726 40196 57028 82400 333 00008 20052;EQDQ01  00002PRCP99
0122569850999992000012109004+23380+103380FM-12+130299999V0202001N008012200019N0300001N1+01571+00721101761ADDGF102991021011008001001001MD1710141+0011REMSYN070AAXX  21091 56985 42580 22008 10157 20072 40176 57014 82100 333 00108;
0173569850999992000012112004+23380+103380FM-12+130299999V0201601N004012200019N0250001N1+01241+00761101961ADDAA199000091GF101991011041008001001001MA1999999087231MD1210111+0011REMSYN076AAXX  21121 56985 32575 11604 10124 20076 38723 40196 52011 81400 333 00106;EQDQ01  00002PRCP99
0112569850999992000012115004+23380+103380FM-12+130299999V0201601N005012200019N0250001N1+01011+00721102091ADDGF101991011041008001001001MD1210141+9999REMSYN060AAXX  21151 56985 42575 11605 10101 20072 40209 52014 81400;
0208569850999992000012118004+23380+103380FM-12+130299999V0201601N003012200019N0250001N1+01051+00721101931ADDAA199000091GF101991011041008001001001KA1999M+01621MA1999999087351MD1710161+0101REMSYN082AAXX  21181 56985 32575 11603 10105 20072 38735 40193 5708/ 81400 333 00105 10162;EQDQ01+000802APC3  Q02  00002PRCP99
0122569850999992000012121004+23380+103380FM-12+130299999V0201601N003010075019N0250001N1+00951+00691101781ADDGF105991051041008001001001MD1710131+0011REMSYN070AAXX  21211 56985 42575 51603 10095 20069 40178 57013 85400 333 05104;
0186569850999992000012200004+23380+103380FM-12+130299999V0201401N004010075019N0180001N1+00921+00841101911ADDAA106003091AY181061GF108991081041008001999999MA1999999087251MD1210031-0101MW1801REMSYN094AAXX  22001 56985 11568 81404 10092 20084 38725 40191 52003 60031 78080 884// 333 05103 70028;
0132569850999992000012203004+23380+103380FM-12+130299999V0201101N003010075019N0250001N1+01101+00811102131ADDAY181031GF107991071041008001999999MD1210171+9999MW1801REMSYN066AAXX  22031 56985 41575 71103 10110 20081 40213 52017 78080 874//;
0199569850999992000012206004+23380+103380FM-12+130299999V0201801N005010075019N0200001N1+01331+00871101761ADDAA106000591AY181061GF107991071041008001001001KA1999N+00901MA1999999087171MD1710251-0101MW1001REMSYN094AAXX  22061 56985 11570 71805 10133 20087 38717 40176 57025 69941 70080 87400 333 05151 20090;
0122569850999992000012209004+23380+103380FM-12+130299999V0201601N006010075019N0200001N1+01391+00871101581ADDGF107991071041008001001001MD1710161+0011REMSYN070AAXX  22091 56985 42570 71606 10139 20087 40158 57016 87400 333 05152;
0164569850999992000012212004+23380+103380FM-12+130299999V0201801N005012200019N0200001N1+01251+00881101671ADDAA199000021GA1001+999999999GF100991001001999999001001MA1999999087041MD1210031+0021REMSYN070AAXX  22121 56985 32970 01805 10125 20088 38704 40167 52003 333 05200;
0112569850999992000012215004+23380+103380FM-12+130299999V0201801N003012200019N0300001N1+01181+00881101781ADDGF101991011011008001001001MD1210121+9999REMSYN060AAXX  22151 56985 42580 11803 10118 20088 40178 52012 81100;
0191569850999992000012218004+23380+103380FM-12+130299999V0200901N003010075019N0250001N1+01101+00871101771ADDAA106000791GF107991071041008001999999KA1999M+01581MA1999999087191MD1210031-0201MW1251REMSYN094AAXX  22181 56985 11575 70903 10110 20087 38719 40177 52003 69901 72500 874// 333 05201 10158;
0159569850999992000012221004+23380+103380FM-12+130299999V0201601N002010075019N0250001N1+01081+00951101651ADDAA124005391AY181031GF106991061041008001001001MD1710091-0101MW1251REMSYN082AAXX  22211 56985 41575 61602 10108 20095 40165 57009 72580 86400 333 05101 70054;
0186569850999992000012300004+23380+103380FM-12+130299999V0201601N004012200019N0300001N1+01161+00821101621ADDAA106002091AY181061GF103991031041008001001001MA1999999087061MD1710041-0201MW1001REMSYN094AAXX  23001 56985 11580 31604 10116 20082 38706 40162 57004 60021 70080 83400 333 05202 70026;
0112569850999992000012303004+23380+103380FM-12+130299999V0201601N004010075019N0250001N1+01361+00961101841ADDGF107991071041008001999999MD1210221+9999REMSYN060AAXX  23031 56985 42575 71604 10136 20096 40184 52022 874//;
0173569850999992000012312004+23380+103380FM-12+130299999V0201801N003012200019N0300001N1+01411+00941101541ADDAA199000091GF101991011041008001001001MA1999999087031MD1210121+0001REMSYN076AAXX  23121 56985 32580 11803 10141 20094 38703 40154 52012 81400 333 00002;EQDQ01  00002PRCP99
0112569850999992000012315004+23380+103380FM-12+130299999V0201601N003012200019N0250001N1+01271+00921101641ADDGF103991031041008001001001MD1210101+9999REMSYN060AAXX  23151 56985 42575 31603 10127 20092 40164 52010 83400;
0191569850999992000012318004+23380+103380FM-12+130299999V0209999C000010075019N0100001N1+01181+01001101711ADDAA106000891GF108991081041008001999999KA1999M+01761MA1999999087191MD1210061+0001MW1801REMSYN094AAXX  23181 56985 11560 80000 10118 20100 38719 40171 52006 69981 78000 884// 333 00001 10176;
0159569850999992000012321004+23380+103380FM-12+130299999V0209999C000012200019N0250001N1+00981+00901101631ADDAA124001891AY181031GF101991011011008001041001MD1710061+0001MW1001REMSYN082AAXX  23211 56985 41575 10000 10098 20090 40163 57006 70080 81140 333 00051 70017;
0186569850999992000012400004+23380+103380FM-12+130299999V0209999C000012200019N0250001N1+00901+00821101871ADDAA106001091AY181061GF101991011011008001041001MA1999999087251MD1210121+0201MW1001REMSYN094AAXX  24001 56985 11575 10000 10090 20082 38725 40187 52012 69991 70080 81140 333 00253 70017;
0112569850999992000012403004+23380+103380FM-12+130299999V0209999C000012200019N0160001N1+01481+01091101951ADDGF101991011011008001001001MD1210171+9999REMSYN060AAXX  24031 56985 42566 10000 10148 20109 40195 52017 81100;
0173569850999992000012406004+23380+103380FM-12+130299999V0209999C000012200019N0280001N1+02031+00531101581ADDAA199000021GF102991021011008001001001KA1999N+00851MA1999999087211MD1710211+0201REMSYN082AAXX  24061 56985 32578 20000 10203 20053 38721 40158 57021 82100 333 00206 20085;
0122569850999992000012409004+23380+103380FM-12+130299999V0201601N003010075019N0300001N1+02021+00621101551ADDGF106991061011008001001001MD1710081+0021REMSYN070AAXX  24091 56985 42580 61603 10202 20062 40155 57008 86100 333 00203;
0173569850999992000012412004+23380+103380FM-12+130299999V0201801N002012200019N0050001N1+01551+00981101851ADDAA199000091GF101991011041022501001001MA1999999087261MD1210131+0021REMSYN076AAXX  24121 56985 32850 11802 10155 20098 38726 40185 52013 81400 333 00201;EQDQ01  00002PRCP99
0112569850999992000012415004+23380+103380FM-12+130299999V0201801N003012200019N0300001N1+01441+00911101941ADDGF101991011011008001001001MD1210191+9999REMSYN060AAXX  24151 56985 42580 11803 10144 20091 40194 52019 81100;
0192569850999992000012418004+23380+103380FM-12+130299999V0201601N004019999999N0300001N1+01301+00991101901ADDAA199000091GF106991061001008001001001KA1999M+02231MA1999999087511MD1210061+0301REMSYN082AAXX  24181 56985 32580 61604 10130 20099 38751 40190 52006 86000 333 00301 10223;EQDQ01  00002PRCP99
0122569850999992000012421004+23380+103380FM-12+130299999V0201601N002010075019N0300001N1+01321+00971101831ADDGF108991081041008001999999MD1710061+0031REMSYN070AAXX  24211 56985 42580 81602 10132 20097 40183 57006 884// 333 00303;
0178569850999992000012500004+23380+103380FM-12+130299999V0209999C000010075019N0100001N1+01261+01041102031ADDAA106000391GF108991081041008001999999MA1999999087501MD1210051+0301MW1801REMSYN094AAXX  25001 56985 11560 80000 10126 20104 38750 40203 52005 69931 78000 884// 333 00304 70003;
0132569850999992000012503004+23380+103380FM-12+130299999V0200201N002010075019N0080001N1+01141+00991102291ADDAY181031GF107991071041008001999999MD1210171+9999MW1251REMSYN066AAXX  25031 56985 41558 70202 10114 20099 40229 52017 72580 874//;
0199569850999992000012506004+23380+103380FM-12+130299999V0203401N003010075019N0080001N1+01211+00811102131ADDAA106000591AY181061GF108991081041008001999999KA1999N+01101MA1999999087521MD1710151+0301MW1101REMSYN094AAXX  25061 56985 11558 83403 10121 20081 38752 40213 57015 69961 71080 884// 333 00358 20110;
0134569850999992000012509004+23380+103380FM-12+130299999V0209999C000010075019N0080001N1+01361+00961101911ADDGF106991061041008001001001MD1710151+0021MW1101REMSYN076AAXX  25091 56985 41558 60000 10136 20096 40191 57015 71000 86400 333 00257;
0154569850999992000012512004+23380+103380FM-12+130299999V0202001N003012200019N0100001N1+01221+01001102071ADDAA199000021GF104991041041008001001001MA1999999087461MD1210091+0021REMSYN076AAXX  25121 56985 32560 42003 10122 20100 38746 40207 52009 84400 333 00253;
0112569850999992000012515004+23380+103380FM-12+130299999V0201601N003010075019N0120001N1+01141+00921102351ADDGF107991071041008001001001MD1210191+9999REMSYN060AAXX  25151 56985 42562 71603 10114 20092 40235 52019 87400;
0192569850999992000012518004+23380+103380FM-12+130299999V0201601N003010075019N0100001N1+01071+00861102371ADDAA199000091GF108991081041008001999999KA1999M+01401MA1999999087671MD1210021+0201REMSYN082AAXX  25181 56985 32560 81603 10107 20086 38767 40237 52002 884// 333 00252 10140;EQDQ01  00002PRCP99
0139569850999992000012521004+23380+103380FM-12+130299999V0201801N002010075019N0100001N1+01001+00771102291ADDAA124001091GF108991081041008001999999MD1710051+0201REMSYN076AAXX  25211 56985 42560 81802 10100 20077 40229 57005 884// 333 00253 70009;
0160569850999992000012600004+23380+103380FM-12+130299999V0201801N002010075019N0150001N1+00961+00771102531ADDAA124000591GF108991081041008001999999MA1999999087781MD1210161+0301REMSYN082AAXX  26001 56985 32565 81802 10096 20077 38778 40253 52016 884// 333 00353 70006;
0124569850999992000012603004+23380+103380FM-12+130299999V0203601N002010075019N0070001N1+00871+00691102771ADDGF108991081041008001999999MD1210171+9999MW1801REMSYN066AAXX  26031 56985 41557 83602 10087 20069 40277 52017 78000 884//;
0199569850999992000012606004+23380+103380FM-12+130299999V0209999C000010075019N0020001N1+00791+00731102661ADDAA106000191AY181061GF108991081041008001999999KA1999N+00761MA1999999087821MD1710131+0301MW1801REMSYN094AAXX  26061 56985 11520 80000 10079 20073 38782 40266 57013 69921 78080 884// 333 00354 20076;
0150569850999992000012609004+23380+103380FM-12+130299999V0202701N001010075019N0040001N1+00711+00631102561ADDAY161031AY261031GF108991081041008001999999MD1710121+0031MW1601REMSYN076AAXX  26091 56985 41540 82701 10071 20063 40256 57012 76066 884// 333 00357;
0188569850999992000012612004+23380+103380FM-12+130299999V0209999C000010075019N0020001N1+00631+00571102681ADDAA106000191AY161061AY261061GF108991081041008001999999MA1999999087771MD1210071+0031MW1211REMSYN088AAXX  26121 56985 11520 80000 10063 20057 38777 40268 52007 69921 72166 884// 333 00356;
0178569850999992000012615004+23380+103380FM-12+130299999V0209999C000010075019N0020001N1+00631+00571102681ADDAA106000191AY161031AY261031GF108991081041008001999999MA1999999087771MD1210071+9999MW1211REMSYN078AAXX  26151 56985 11520 80000 10063 20057 38777 40268 52007 69921 72166 884//;
0199569850999992000012618004+23380+103380FM-12+130299999V0209999C000010042019N0040001N1+00471+00451102821ADDAA106000591AY161061GF108991081051004501999999KA1999M+01081MA1999999087811MD1710011+0101MW1601REMSYN094AAXX  26181 56985 11440 80000 10047 20045 38781 40282 57001 69941 76060 885// 333 00156 10108;
0167569850999992000012621004+23380+103380FM-12+130299999V0209999C000010042019N0040001N1+00471+00451102731ADDAA124001391AY161031AY261031GF108991081051004501999999MD1710101+0101MW1601REMSYN082AAXX  26211 56985 41440 80000 10047 20045 40273 57010 76066 885// 333 00155 70013;
0194569850999992000012700004+23380+103380FM-12+130299999V0209999C000010042019N0030001N1+00451+00451102811ADDAA106000891AY161061AY261061GF108991081051004501999999MA1999999087761MD1210051+0001MW1601REMSYN094AAXX  27001 56985 11430 80000 10045 20045 38776 40281 52005 69971 76066 885// 333 00055 70015;
0140569850999992000012703004+23380+103380FM-12+130299999V0209999C000010042019N0030001N1+00601+00541102961ADDAY161031AY261031GF108991081051004501999999MD1210151+9999MW1601REMSYN066AAXX  27031 56985 41430 80000 10060 20054 40296 52015 76066 885//;
0199569850999992000012706004+23380+103380FM-12+130299999V0202201N002010042019N0150001N1+00751+00451102621ADDAA106000191AY161061GF108991081041004501999999KA1999N+00441MA1999999087631MD1710281-0201MW1001REMSYN094AAXX  27061 56985 11465 82202 10075 20045 38763 40262 57028 69921 70060 884// 333 05200 20044;
0122569850999992000012709004+23380+103380FM-12+130299999V0201801N003010042019N0150001N1+00761+00511102381ADDGF108991081041004501999999MD1710201+0031REMSYN070AAXX  27091 56985 42465 81803 10076 20051 40238 57020 884// 333 05301;
0154569850999992000012712004+23380+103380FM-12+130299999V0201601N003010042019N0120001N1+00721+00441102451ADDAA199000021GF108991081041004501999999MA1999999087471MD1210041+0031REMSYN076AAXX  27121 56985 32462 81603 10072 20044 38747 40245 52004 884// 333 05301;
0112569850999992000012715004+23380+103380FM-12+130299999V0201801N003010075019N0120001N1+00651+00441102481ADDGF108991081041008001999999MD1210051+9999REMSYN060AAXX  27151 56985 42562 81803 10065 20044 40248 52005 884//;
0192569850999992000012718004+23380+103380FM-12+130299999V0201801N004010075019N0120001N1+00631+00411102371ADDAA199000091GF107991071041008001999999KA1999M+00781MA1999999087451MD1710071-0401REMSYN082AAXX  27181 56985 32562 71804 10063 20041 38745 40237 57007 874// 333 05402 10078;EQDQ01  00002PRCP99
0139569850999992000012721004+23380+103380FM-12+130299999V0201801N003010075019N0120001N1+00621+00401102241ADDAA124000591GF108991081041008001999999MD1710111-0401REMSYN076AAXX  27211 56985 42562 81803 10062 20040 40224 57011 884// 333 05402 70004;
0196569850999992000012800004+23380+103380FM-12+130299999V0201401N004010075019N0120001N1+00521+00341102351ADDAA106000791GF108991081041008001999999IA2999+00479MA1999999087401MD1210061-0401MW1801REMSYN100AAXX  28001 56985 11562 81404 10052 20034 38740 40235 52006 69901 78000 884// 333 05401 30047 70002;
0132569850999992000012803004+23380+103380FM-12+130299999V0201401N004010075019N0300001N1+00801+00371102531ADDAY181031GF106991061041008001001001MD1210211+9999MW1001REMSYN066AAXX  28031 56985 41580 61404 10080 20037 40253 52021 70080 86400;
0199569850999992000012806004+23380+103380FM-12+130299999V0201801N003010075019N0300001N1+00941+00441102171ADDAA106001091AY181061GF106991061041008001001001KA1999N+00461MA1999999087331MD1710281-0301MW1001REMSYN094AAXX  28061 56985 11580 61803 10094 20044 38733 40217 57028 69991 70080 86400 333 05302 20046;
0122569850999992000012809004+23380+103380FM-12+130299999V0201401N008012200019N0300001N1+01001+00461101921ADDGF102991021041008001001001MD1710201+0031REMSYN070AAXX  28091 56985 42580 21408 10100 20046 40192 57020 82400 333 05302;
0112569850999992000012815004+23380+103380FM-12+130299999V0201601N006012200019N0300001N1+01011+00561102161ADDGF101991011011008001001001MD1210161+9999REMSYN060AAXX  28151 56985 42580 11606 10101 20056 40216 52016 81100;
0192569850999992000012818004+23380+103380FM-12+130299999V0201601N004012200019N0300001N1+00961+00601102141ADDAA199000091GF101991011011008001001001KA1999M+01181MA1999999087381MD1410001-0101REMSYN082AAXX  28181 56985 32580 11604 10096 20060 38738 40214 54000 81100 333 05103 10118;EQDQ01  00002PRCP99
0139569850999992000012821004+23380+103380FM-12+130299999V0201601N002012200019N0300001N1+00941+00641102091ADDAA124001091GF101991011011008001001001MD1710031+0001REMSYN076AAXX  28211 56985 42580 11602 10094 20064 40209 57003 81100 333 00003 70009;
0178569850999992000012900004+23380+103380FM-12+130299999V0209999C000012200019N0300001N1+00601+00521102401ADDAA124001091GF101991011011008001001001IA2999+00159MA1999999087531MD1210181+0101REMSYN088AAXX  29001 56985 32580 10000 10060 20052 38753 40240 52018 81100 333 00101 30015 70009;
0112569850999992000012903004+23380+103380FM-12+130299999V0201601N003010075019N0300001N1+00841+00461102621ADDGF107991071041008001999999MD1210251+9999REMSYN060AAXX  29031 56985 42580 71603 10084 20046 40262 52025 874//;
0192569850999992000012906004+23380+103380FM-12+130299999V0201101N002010075019N0200001N1+00951+00471102461ADDAA199000091GF108991081041008001999999KA1999N+00521MA1999999087661MD1710121+0301REMSYN082AAXX  29061 56985 32570 81102 10095 20047 38766 40246 57012 884// 333 00300 20052;EQDQ01  00002PRCP99
0122569850999992000012909004+23380+103380FM-12+130299999V0201801N003010075019N0200001N1+00851+00471102381ADDGF108991081041008001999999MD1710101+0041REMSYN070AAXX  29091 56985 42570 81803 10085 20047 40238 57010 884// 333 00452;
0173569850999992000012912004+23380+103380FM-12+130299999V0201601N005010075019N0150001N1+00761+00421102711ADDAA199000091GF108991081041008001999999MA1999999087741MD1210181+0051REMSYN076AAXX  29121 56985 32565 81605 10076 20042 38774 40271 52018 884// 333 00552;EQDQ01  00002PRCP99
0132569850999992000012915004+23380+103380FM-12+130299999V0201601N003010075019N0120001N1+00661+00491102871ADDAY181031GF108991081041008001999999MD1210171+9999MW1801REMSYN066AAXX  29151 56985 41562 81603 10066 20049 40287 52017 78080 884//;
0199569850999992000012918004+23380+103380FM-12+130299999V0201601N003010075019N0120001N1+00621+00401102711ADDAA106001091AY181061GF108991081041008001999999KA1999M+01021MA1999999087791MD1710121+0401MW1801REMSYN094AAXX  29181 56985 11562 81603 10062 20040 38779 40271 57012 60011 78080 884// 333 00453 10102;
0139569850999992000012921004+23380+103380FM-12+130299999V0201401N003010075019N0150001N1+00601+00361102601ADDAA124001091GF108991081041008001999999MD1710121+0301REMSYN076AAXX  29211 56985 42565 81403 10060 20036 40260 57012 884// 333 00353 70011;
0160569850999992000013000004+23380+103380FM-12+130299999V0201601N004010075019N0150001N1+00611+00271102711ADDAA124001091GF108991081041008001999999MA1999999087741MD1210071+0201REMSYN082AAXX  30001 56985 32565 81604 10061 20027 38774 40271 52007 884// 333 00200 70011;
0132569850999992000013003004+23380+103380FM-12+130299999V0203601N002010075019N0080001N1+00311+00241103161ADDAY181031GF108991081051008001999999MD1210291+9999MW1801REMSYN066AAXX  30031 56985 41558 83602 10031 20024 40316 52029 78080 885//;
0207569850999992000013006004+23380+103380FM-12+130299999V0203401N002010075019N0100001N1+00381+00311102781ADDAA106004191AY181061AY271061GF108991081051008001999999KA1999N+00261MA1999999087711MD1710321+0101MW1801REMSYN094AAXX  30061 56985 11560 83402 10038 20031 38771 40278 57032 60041 78087 885// 333 00156 20026;
0150569850999992000013009004+23380+103380FM-12+130299999V0203601N001010075019N0080001N1+00291+00241102741ADDAY181031AY261031GF108991081051008001999999MD1710061+0011MW1601REMSYN076AAXX  30091 56985 41558 83601 10029 20024 40274 57006 76086 885// 333 00156;
0188569850999992000013012004+23380+103380FM-12+130299999V0201601N002010042019N0030001N1+00061+00031103031ADDAA106006191AY181061AY261061GF108991081051004501999999MA1999999087841MD1210191+0011MW1701REMSYN088AAXX  30121 56985 11430 81602 10006 20003 38784 40303 52019 60061 77086 885// 333 00157;
0140569850999992000013015004+23380+103380FM-12+130299999V0209999C000010120019N0030001N1+00051+00021103401ADDAY171031AY271031GF108991081051012501999999MD1210241+9999MW1701REMSYN066AAXX  30151 56985 41630 80000 10005 20002 40340 52024 77077 885//;
0207569850999992000013018004+23380+103380FM-12+130299999V0209999C000010120019N0020001N1+00051+00021103241ADDAA106001091AY171061AY271061GF108991081051012501999999KA1999M+00671MA1999999087961MD1710121+0201MW1701REMSYN094AAXX  30181 56985 11620 80000 10005 20002 38796 40324 57012 60011 77077 885// 333 00256 10067;
0167569850999992000013021004+23380+103380FM-12+130299999V0209999C000010075019N0010001N1+00011+00011103161ADDAA124020391AY171031AY271031GF108991081051008001999999MD1710101+0201MW1711REMSYN082AAXX  30211 56985 41510 80000 10001 20001 40316 57010 77177 885// 333 00256 70202;
0210569850999992000013100004+23380+103380FM-12+130299999V0209999C000010075019N0040001N1+00021-00011103331ADDAA106013091AY171061GF108991081051008001999999IA2999+00009MA1999999087951MD1210091+0201MW1101REMSYN106AAXX  31001 56985 11540 80000 10002 21001 38795 40333 52009 60131 71070 885// 333 00256 30000 70234 92510;
0124569850999992000013103004+23380+103380FM-12+130299999V0200201N001010075019N0050001N1+00091+00041103541ADDGF108991081051008001999999MD1210191+9999MW1101REMSYN066AAXX  31031 56985 41550 80201 10009 20004 40354 52019 71000 885//;
0185569850999992000013106004+23380+103380FM-12+130299999V0203601N002010120019N0040001N1+00191+00071103331ADDAA199000021GF108991081051012501999999KA1999N-00011MA1999999087991MD1710151+0301MW1101REMSYN088AAXX  31061 56985 31640 83602 10019 20007 38799 40333 57015 71000 885// 333 00352 21001;
0134569850999992000013109004+23380+103380FM-12+130299999V0209999C000010120019N0040001N1+00211+00041103131ADDGF108991081051012501999999MD1710181+0021MW1101REMSYN076AAXX  31091 56985 41640 80000 10021 20004 40313 57018 71000 885// 333 00251;
0185569850999992000013112004+23380+103380FM-12+130299999V0209999C000010120019N0040001N1+00201+00101103161ADDAA199000091GF108991081051012501999999MA1999999087841MD1210031+0001MW1101REMSYN082AAXX  31121 56985 31640 80000 10020 20010 38784 40316 52003 71000 885// 333 00001;EQDQ01  00002PRCP99
0124569850999992000013115004+23380+103380FM-12+130299999V0209999C000010120019N0040001N1+00231+00131103181ADDGF108991081051012501999999MD1210041+9999MW1101REMSYN066AAXX  31151 56985 41640 80000 10023 20013 40318 52004 71000 885//;
0204569850999992000013118004+23380+103380FM-12+130299999V0209999C000010120019N0070001N1+00261+00161103071ADDAA199000091GF108991081051012501999999KA1999M+00281MA1999999087821MD1710061-0101MW1101REMSYN088AAXX  31181 56985 31657 80000 10026 20016 38782 40307 57006 71000 885// 333 05102 10028;EQDQ01  00002PRCP99
0139569850999992000013121004+23380+103380FM-12+130299999V0201801N002010120019N0120001N1+00261+00191102921ADDAA124003391GF108991081051012501999999MD1710121-0201REMSYN076AAXX  31211 56985 42662 81802 10026 20019 40292 57012 885// 333 05203 70032;
0191569850999992000020100004+23380+103380FM-12+130299999V0209999C000010075019N0150001N1+00421+00211102911ADDAA199000091GF108991081041008001999999IA2999+00309MA1999999087731MD1210031-0201REMSYN082AAXX  01001 56985 32565 80000 10042 20021 38773 40291 52003 884// 333 05204 30030;EQDQ01  00002PRCP99
0112569850999992000020103004+23380+103380FM-12+130299999V0201801N003012200019N0240001N1+00781+00301102931ADDGF101991011011008001001001MD1210111+9999REMSYN060AAXX  01031 56985 42574 11803 10078 20030 40293 52011 81100;
0192569850999992000020106004+23380+103380FM-12+130299999V0202001N005012200019N0300001N1+01011+00451102511ADDAA199000091GF101991011011008001001001KA1999N+00171MA1999999087551MD1710291-0401REMSYN082AAXX  01061 56985 32580 12005 10101 20045 38755 40251 57029 81100 333 05408 20017;EQDQ01  00002PRCP99
0122569850999992000020109004+23380+103380FM-12+130299999V0201801N003012200019N0300001N1+01161+00561102191ADDGF101991011011008001001001MD1710241+0051REMSYN070AAXX  01091 56985 42580 11803 10116 20056 40219 57024 81100 333 05510;
0173569850999992000020112004+23380+103380FM-12+130299999V0201801N003012200019N0300001N1+00831+00431102331ADDAA199000091GF101991011041008001001001MA1999999087391MD1210081+0051REMSYN076AAXX  01121 56985 32580 11803 10083 20043 38739 40233 52008 81400 333 05506;EQDQ01  00002PRCP99
0112569850999992000020115004+23380+103380FM-12+130299999V0201401N003012200019N0300001N1+00761+00391102301ADDGF101991011041008001001001MD1210041+9999REMSYN060AAXX  01151 56985 42580 11403 10076 20039 40230 52004 81400;
0202569850999992000020118004+23380+103380FM-12+130299999V0201401N001012200019N0300001N1+00671+00361102221ADDAA199000091GA1001+999999999GF100991001001999999001001KA1999M+01201MA1999999087401MD1710031-0401REMSYN076AAXX  01181 56985 32980 01401 10067 20036 38740 40222 57003 333 05404 10120;EQDQ01  00002PRCP99
0122569850999992000020121004+23380+103380FM-12+130299999V0201801N004010075019N0300001N1+00681+00351102071ADDGF106991061041008001001001MD1710091+0041REMSYN070AAXX  01211 56985 42580 61804 10068 20035 40207 57009 86400 333 05404;
0191569850999992000020200004+23380+103380FM-12+130299999V0201401N002012200019N0300001N1+00671+00361102311ADDAA199000091GF103991031041008001001001IA2999+00209MA1999999087431MD1210121-0301REMSYN082AAXX  02001 56985 32580 31402 10067 20036 38743 40231 52012 83400 333 05303 30027;EQDQ01  00002PRCP99
0112569850999992000020203004+23380+103380FM-12+130299999V0201801N002012200019N0300001N1+01141+00511102371ADDGF101991011041008001001001MD1210151+9999REMSYN060AAXX  02031 56985 42580 11802 10114 20051 40237 52015 81400;
0192569850999992000020206004+23380+103380FM-12+130299999V0201601N003012200019N0300001N1+01621+00671101941ADDAA199000091GF101991011011008001001001KA1999N+00561MA1999999087301MD1710281-0301REMSYN082AAXX  02061 56985 32580 11603 10162 20067 38730 40194 57028 81100 333 05306 20056;EQDQ01  00002PRCP99
0122569850999992000020209004+23380+103380FM-12+130299999V0209999C000012200019N0300001N1+01931+00741101641ADDGF102991021011008001001001MD1710181+0021REMSYN070AAXX  02091 56985 42580 20000 10193 20074 40164 57018 82100 333 05208;
0172569850999992000020212004+23380+103380FM-12+130299999V0209999C000012200019N0250001N1+01281+00641101871ADDAA199000091GF101991999999008001999999MA1999999087161MD1210041+9999REMSYN075AAXX  02121 56985 32575 10000 10128 20064 38716 40187 52004 8100 333 05205;EQDQ01  00002PRCP99
0122569850999992000020215004+23380+103380FM-12+130299999V0209999C000012200019N0300001N1+00981+00661101971ADDGA1001+999999999GF100991001001999999001001MD1210131+9999REMSYN054AAXX  02151 56985 42980 00000 10098 20066 40197 52013;
0202569850999992000020218004+23380+103380FM-12+130299999V0201601N001012200019N0300001N1+01041+00601101801ADDAA199000091GA1001+999999999GF100991001001999999001001KA1999M+01931MA1999999087271MD1710021-0101REMSYN076AAXX  02181 56985 32980 01601 10104 20060 38727 40180 57002 333 05104 10193;EQDQ01  00002PRCP99
0132569850999992000020221004+23380+103380FM-12+130299999V0209999C000012200019N0300001N1+00691+00541101711ADDGA1001+999999999GF100991001001999999001001MD1710091+0011REMSYN064AAXX  02211 56985 42980 00000 10069 20054 40171 57009 333 05100;
0191569850999992000020300004+23380+103380FM-12+130299999V0201801N003012200019N0300001N1+01081+00601101881ADDAA199000091GF101991011011008001001001IA2999+00209MA1999999087271MD1210091-0201REMSYN082AAXX  03001 56985 32580 11803 10108 20060 38727 40188 52009 81100 333 05204 30023;EQDQ01  00002PRCP99
0112569850999992000020303004+23380+103380FM-12+130299999V0201401N004012200019N0300001N1+01571+00701101961ADDGF101991011011008001001001MD1210111+9999REMSYN060AAXX  03031 56985 42580 11404 10157 20070 40196 52011 81100;
0192569850999992000020306004+23380+103380FM-12+130299999V0202001N005012200019N0300001N1+01871+00701101551ADDAA199000091GF102991021011008001001001KA1999N+00661MA1999999087111MD1710271-0201REMSYN082AAXX  03061 56985 32580 22005 10187 20070 38711 40155 57027 82100 333 05203 20066;EQDQ01  00002PRCP99
0122569850999992000020309004+23380+103380FM-12+130299999V0201601N006010075019N0300001N1+01681+00681101531ADDGF105991051021008001001001MD1710141+0021REMSYN070AAXX  03091 56985 42580 51606 10168 20068 40153 57014 85200 333 05253;
0173569850999992000020312004+23380+103380FM-12+130299999V0202201N004012200019N0280001N1+01421+00741101601ADDAA199000091GF101991011011008001001011MA1999999087061MD1210091+0011REMSYN076AAXX  03121 56985 32578 12204 10142 20074 38706 40160 52009 81101 333 05101;EQDQ01  00002PRCP99
0122569850999992000020315004+23380+103380FM-12+130299999V0202001N003012200019N0150001N1+01371+00811101581ADDGA1001+999999999GF100991001001999999001001MD1210091+9999REMSYN054AAXX  03151 56985 42965 02003 10137 20081 40158 52009;
0202569850999992000020318004+23380+103380FM-12+130299999V0201801N002012200019N0250001N1+01281+00851101491ADDAA199000091GA1001+999999999GF100991001001999999001001KA1999M+01941MA1999999087121MD1710031-0201REMSYN076AAXX  03181 56985 32975 01802 10128 20085 38712 40149 57003 333 05202 10194;EQDQ01  00002PRCP99
0122569850999992000020321004+23380+103380FM-12+130299999V0201601N002012200019N0250001N1+01361+00801101381ADDGF101991011011008001001001MD1710121+0021REMSYN070AAXX  03211 56985 42575 11602 10136 20080 40138 57012 81100 333 05207;
0173569850999992000020400004+23380+103380FM-12+130299999V0201801N002012200019N0280001N1+01131+00721101541ADDAA199000091GF101991011011008001001001MA1999999087021MD1210021+0031REMSYN076AAXX  04001 56985 32578 11802 10113 20072 38702 40154 52002 81100 333 05301;EQDQ01  00002PRCP99
0112569850999992000020403004+23380+103380FM-12+130299999V0201601N002012200019N0300001N1+01891+00781101521ADDGF102991021011008001001001MD1210151+9999REMSYN060AAXX  04031 56985 42580 21602 10189 20078 40152 52015 82100;
0192569850999992000020406004+23380+103380FM-12+130299999V0202201N002010075019N0300001N1+02161+00231101181ADDAA199000091GF106991061011008001001001KA1999N+01091MA1999999086921MD1710251-0201REMSYN082AAXX  04061 56985 32580 62202 10216 20023 38692 40118 57025 86100 333 05203 20109;EQDQ01  00002PRCP99
0122569850999992000020409004+23380+103380FM-12+130299999V0202001N004012200019N0300001N1+02061+00711101031ADDGF103991031011008001001001MD1710141+0021REMSYN070AAXX  04091 56985 42580 32004 10206 20071 40103 57014 83100 333 05204;
0173569850999992000020412004+23380+103380FM-12+130299999V0202001N003012200019N0300001N1+01671+00811101301ADDAA199000091GF101991011011008001001001MA1999999086871MD1210091+0021REMSYN076AAXX  04121 56985 32580 12003 10167 20081 38687 40130 52009 81100 333 05203;EQDQ01  00002PRCP99
0122569850999992000020415004+23380+103380FM-12+130299999V0202201N002012200019N0300001N1+01561+00781101301ADDGA1001+999999999GF100991001001999999001001MD1210151+9999REMSYN054AAXX  04151 56985 42980 02202 10156 20078 40130 52015;
0202569850999992000020418004+23380+103380FM-12+130299999V0201601N003012200019N0300001N1+01221+00781101361ADDAA199000091GA1001+999999999GF100991001001999999001001KA1999M+02221MA1999999087061MD1210041-0101REMSYN076AAXX  04181 56985 32980 01603 10122 20078 38706 40136 52004 333 05151 10222;EQDQ01  00002PRCP99
0122569850999992000020421004+23380+103380FM-12+130299999V0201401N004012200019N0300001N1+01031+00781101451ADDGF102991021041008001001001MD1210011+0011REMSYN070AAXX  04211 56985 42580 21404 10103 20078 40145 52001 82400 333 00153;
0173569850999992000020500004+23380+103380FM-12+130299999V0201401N004012200019N0300001N1+00941+00741101771ADDAA199000091GF102991011041008001001021MA1999999087231MD1210161+0021REMSYN076AAXX  05001 56985 32580 21404 10094 20074 38723 40177 52016 81402 333 00252;EQDQ01  00002PRCP99
0112569850999992000020503004+23380+103380FM-12+130299999V0201601N003012200019N0300001N1+01421+00871101871ADDGF104991031011008001001021MD1210171+9999REMSYN060AAXX  05031 56985 42580 41603 10142 20087 40187 52017 83102;
0192569850999992000020506004+23380+103380FM-12+130299999V0201601N006012200019N0300001N1+01651+00891101591ADDAA199000091GF103991021011008001041001KA1999N+00921MA1999999087141MD1710261+0201REMSYN082AAXX  05061 56985 32580 31606 10165 20089 38714 40159 57026 82140 333 00255 20092;EQDQ01  00002PRCP99
0122569850999992000020509004+23380+103380FM-12+130299999V0201801N004012200019N0300001N1+01621+00941101381ADDGF101991011011008001001001MD1710231+0011REMSYN070AAXX  05091 56985 42580 11804 10162 20094 40138 57023 81100 333 00154;
0173569850999992000020512004+23380+103380FM-12+130299999V0201401N005012200019N0250001N1+01261+00911101681ADDAA199000091GF101991011011008001001001MA1999999087061MD1210151+9999REMSYN076AAXX  05121 56985 32575 11405 10126 20091 38706 40168 52015 81100 333 0025/;EQDQ01  00002PRCP99
0193569850999992000020518004+23380+103380FM-12+130299999V0201801N003010075019N0250001N1+01201+00941101591ADDAA199000091GF106991061041008001001001KA1999M+01701MD1710051+0101REMSYN082AAXX  05181 56985 32575 61803 10120 20094 31713 40159 57005 86400 333 00100 10170;EQDQ01+017131APOSP Q02  00002PRCP99
0122569850999992000020521004+23380+103380FM-12+130299999V0201601N003012200019N0250001N1+01071+00921101541ADDGF104991041041008001001001MD1710081+0001REMSYN070AAXX  05211 56985 42575 41603 10107 20092 40154 57008 84400 333 00000;
0173569850999992000020600004+23380+103380FM-12+130299999V0201601N002010075019N0240001N1+01121+00901101711ADDAA199000091GF106991061041008001001001MA1999999087131MD1210081+0011REMSYN076AAXX  06001 56985 32574 61602 10112 20090 38713 40171 52008 86400 333 05102;EQDQ01  00002PRCP99
0112569850999992000020603004+23380+103380FM-12+130299999V0201101N003012200019N0280001N1+01441+00971101721ADDGF103991031041008001001001MD1210081+9999REMSYN060AAXX  06031 56985 42578 31103 10144 20097 40172 52008 83400;
0192569850999992000020606004+23380+103380FM-12+130299999V0202001N004012200019N0280001N1+01731+00971101321ADDAA199000091GF102991021021008001001001KA1999N+01041MA1999999086921MD1710291-0201REMSYN082AAXX  06061 56985 32578 22004 10173 20097 38692 40132 57029 82200 333 05201 20104;EQDQ01  00002PRCP99
0122569850999992000020609004+23380+103380FM-12+130299999V0201801N005012200019N0280001N1+01851+01011101041ADDGF102991021011008001001001MD1710241+0021REMSYN070AAXX  06091 56985 42578 21805 10185 20101 40104 57024 82100 333 05202;
0173569850999992000020612004+23380+103380FM-12+130299999V0201401N004012200019N0250001N1+01351+00951101311ADDAA199000091GF101991011011008001001001MA1999999086811MD1210131+0031REMSYN076AAXX  06121 56985 32575 11404 10135 20095 38681 40131 52013 81100 333 05301;EQDQ01  00002PRCP99
0112569850999992000020615004+23380+103380FM-12+130299999V0201101N003012200019N0250001N1+01271+00961101421ADDGF101991011011008001001001MD1210151+9999REMSYN060AAXX  06151 56985 42575 11103 10127 20096 40142 52015 81100;
0192569850999992000020618004+23380+103380FM-12+130299999V0201101N005012200019N0250001N1+01381+01001101351ADDAA199000091GF101991011011008001001001KA1999M+01931MA1999999086991MD1210031-0101REMSYN082AAXX  06181 56985 32575 11105 10138 20100 38699 40135 52003 81100 333 05102 10193;EQDQ01  00002PRCP99
0122569850999992000020621004+23380+103380FM-12+130299999V0201601N004012200019N0280001N1+01351+00971101241ADDGF101991011011008001001001MD1710081+0011REMSYN070AAXX  06211 56985 42578 11604 10135 20097 40124 57008 81100 333 05103;
0173569850999992000020700004+23380+103380FM-12+130299999V0201401N003012200019N0300001N1+01241+00951101521ADDAA199000091GF101991011011008001001021MA1999999087011MD1210101+0011REMSYN076AAXX  07001 56985 32580 11403 10124 20095 38701 40152 52010 81102 333 05101;EQDQ01  00002PRCP99
0112569850999992000020703004+23380+103380FM-12+130299999V0201601N003012200019N0280001N1+01501+00981101681ADDGF102991021011008001001001MD1210181+9999REMSYN060AAXX  07031 56985 42578 21603 10150 20098 40168 52018 82100;
0192569850999992000020706004+23380+103380FM-12+130299999V0201101N005010075019N0250001N1+01461+00871101481ADDAA199000091GF107991071041008001041999KA1999N+01181MA1999999087041MD1710151+0101REMSYN082AAXX  07061 56985 32575 71105 10146 20087 38704 40148 57015 8744/ 333 00153 20118;EQDQ01  00002PRCP99
0122569850999992000020709004+23380+103380FM-12+130299999V0200901N003010075019N0120001N1+01141+00631101531ADDGF108991081041008001999999MD1710041+0031REMSYN070AAXX  07091 56985 42562 80903 10114 20063 40153 57004 884// 333 00357;
0180569850999992000020712004+23380+103380FM-12+130299999V0203401N002010075019N0100001N1+00941+00761101801ADDAA106000791AY181061GF108991081041008001999999MA1999999087161MD1210161+0041MW1801REMSYN088AAXX  07121 56985 11560 83402 10094 20076 38716 40180 52016 69901 78080 884// 333 00454;
0140569850999992000020715004+23380+103380FM-12+130299999V0203201N001010120019N0090001N1+00741+00661101841ADDAY181031AY261031GF108991081051012501999999MD1210051+9999MW1211REMSYN066AAXX  07151 56985 41659 83201 10074 20066 40184 52005 72186 885//;
0207569850999992000020718004+23380+103380FM-12+130299999V0209999C000010075019N0080001N1+00741+00661101681ADDAA106000591AY181061AY261061GF108991081051008001999999KA1999M+01611MA1999999087061MD1710151+0101MW1601REMSYN094AAXX  07181 56985 11558 80000 10074 20066 38706 40168 57015 69941 76086 885// 333 00156 10161;
0167569850999992000020721004+23380+103380FM-12+130299999V0209999C000010075019N0060001N1+00641+00581101691ADDAA124003891AY161031AY261031GF108991081051008001999999MD1710091+0101MW1601REMSYN082AAXX  07211 56985 41556 80000 10064 20058 40169 57009 76066 885// 333 00157 70038;
0194569850999992000020800004+23380+103380FM-12+130299999V0203601N002010075019N0040001N1+00571+00531101931ADDAA106008991AY161061AY261061GF108991081051008001999999MA1999999087111MD1210141+0101MW1601REMSYN094AAXX  08001 56985 11540 83602 10057 20053 38711 40193 52014 60091 76066 885// 333 00157 70089;
0132569850999992000020803004+23380+103380FM-12+130299999V0201601N002010075019N0040001N1+00681+00621102111ADDAY161031GF108991081071008001999999MD1210131+9999MW1601REMSYN066AAXX  08031 56985 41540 81602 10068 20062 40211 52013 76060 887//;
0199569850999992000020806004+23380+103380FM-12+130299999V0201601N004010075019N0250001N1+00991+00611101741ADDAA106003091AY161061GF107991071041008001999999KA1999N+00531MA1999999087001MD1710241+0001MW1001REMSYN094AAXX  08061 56985 11575 71604 10099 20061 38700 40174 57024 60031 70060 874// 333 00055 20053;
0122569850999992000020809004+23380+103380FM-12+130299999V0201601N005012200019N0280001N1+01171+00711101471ADDGF104991041011008001001001MD1710211+0021REMSYN070AAXX  08091 56985 42578 41605 10117 20071 40147 57021 84100 333 05200;
0154569850999992000020812004+23380+103380FM-12+130299999V0201601N005012200019N0250001N1+00991+00651101621ADDAA199000021GF101991011011008001001001MA1999999086861MD1210071+0031REMSYN076AAXX  08121 56985 32575 11605 10099 20065 38686 40162 52007 81100 333 05301;
0112569850999992000020815004+23380+103380FM-12+130299999V0201601N004012200019N0240001N1+00921+00641101711ADDGF101991011011008001001001MD1210081+9999REMSYN060AAXX  08151 56985 42574 11604 10092 20064 40171 52008 81100;
0192569850999992000020818004+23380+103380FM-12+130299999V0201601N005012200019N0240001N1+01021+00751101551ADDAA199000091GF101991011011008001001001KA1999M+01341MA1999999086901MD1710041-0201REMSYN082AAXX  08181 56985 32574 11605 10102 20075 38690 40155 57004 81100 333 05203 10134;EQDQ01  00002PRCP99
0139569850999992000020821004+23380+103380FM-12+130299999V0201601N005012200019N0240001N1+01111+00721101351ADDAA124008191GF102991021011008001001001MD1710101-0201REMSYN076AAXX  08211 56985 42574 21605 10111 20072 40135 57010 82100 333 05205 70081;
0160569850999992000020900004+23380+103380FM-12+130299999V0201401N002010075019N0180001N1+00861+00621101591ADDAA124003091GF106991051041008001041001MA1999999086901MD1210101-0201REMSYN082AAXX  09001 56985 32568 61402 10086 20062 38690 40159 52010 85440 333 05203 70030;
0112569850999992000020903004+23380+103380FM-12+130299999V0201601N005012200019N0250001N1+01181+00671101671ADDGF102991021011008001041001MD1210071+9999REMSYN060AAXX  09031 56985 42575 21605 10118 20067 40167 52007 82140;
0192569850999992000020906004+23380+103380FM-12+130299999V0201601N004012200019N0300001N1+01401+00801101201ADDAA199000091GF103991021011008001041001KA1999N+00791MA1999999086701MD1710271-0301REMSYN082AAXX  09061 56985 32580 31604 10140 20080 38670 40120 57027 82140 333 05304 20079;EQDQ01  00002PRCP99
0122569850999992000020909004+23380+103380FM-12+130299999V0201601N005010075019N0300001N1+01261+00751100991ADDGF105991051021008001001001MD1710191+0031REMSYN070AAXX  09091 56985 42580 51605 10126 20075 40099 57019 85200 333 05301;
0173569850999992000020912004+23380+103380FM-12+130299999V0201101N003012200019N0250001N1+01091+00741101261ADDAA199000091GF101991011011008001001001MA1999999086641MD1210131+0021REMSYN076AAXX  09121 56985 32575 11103 10109 20074 38664 40126 52013 81100 333 05201;EQDQ01  00002PRCP99
0112569850999992000020915004+23380+103380FM-12+130299999V0201101N003012200019N0200001N1+01141+00821101321ADDGF102991021011008001001001MD1210141+9999REMSYN060AAXX  09151 56985 42570 21103 10114 20082 40132 52014 82100;
0192569850999992000020918004+23380+103380FM-12+130299999V0201601N005012200019N0200001N1+01111+00831101221ADDAA199000091GF101991011011008001001001KA1999M+01511MA1999999086741MD1710041-0201REMSYN082AAXX  09181 56985 32570 11605 10111 20083 38674 40122 57004 81100 333 05201 10151;EQDQ01  00002PRCP99
0122569850999992000020921004+23380+103380FM-12+130299999V0201601N004012200019N0200001N1+01011+00721101181ADDGF101991011011008001001001MD1710091+0021REMSYN070AAXX  09211 56985 42570 11604 10101 20072 40118 57009 81100 333 05251;
0173569850999992000021000004+23380+103380FM-12+130299999V0201601N002012200019N0200001N1+00901+00661101361ADDAA199000091GF101991011011008001001001MA1999999086741MD1210091+0021REMSYN076AAXX  10001 56985 32570 11602 10090 20066 38674 40136 52009 81100 333 05200;EQDQ01  00002PRCP99
0112569850999992000021003004+23380+103380FM-12+130299999V0201601N006010075019N0220001N1+01211+00731101421ADDGF106991061011008001001001MD1210131+9999REMSYN060AAXX  10031 56985 42572 61606 10121 20073 40142 52013 86100;
0192569850999992000021006004+23380+103380FM-12+130299999V0202001N003012200019N0240001N1+01921+00661100951ADDAA199000091GF103991031011008001001001KA1999N+00821MA1999999086631MD1710241-0101REMSYN082AAXX  10061 56985 32574 32003 10192 20066 38663 40095 57024 83100 333 05105 20082;EQDQ01  00002PRCP99
0122569850999992000021009004+23380+103380FM-12+130299999V0202201N003012200019N0300001N1+01891+00731100831ADDGF101991011011008001001001MD1710141+0001REMSYN070AAXX  10091 56985 42580 12203 10189 20073 40083 57014 81100 333 00006;
0173569850999992000021012004+23380+103380FM-12+130299999V0201801N003012200019N0300001N1+01461+00771101181ADDAA199000091GF101991011011008001001001MA1999999086671MD1210181+0001REMSYN076AAXX  10121 56985 32580 11803 10146 20077 38667 40118 52018 81100 333 00004;EQDQ01  00002PRCP99
0122569850999992000021015004+23380+103380FM-12+130299999V0201801N002012200019N0200001N1+01441+00651101221ADDGA1001+999999999GF100991001001999999001001MD1210101+9999REMSYN054AAXX  10151 56985 42970 01802 10144 20065 40122 52010;
0202569850999992000021018004+23380+103380FM-12+130299999V0209999C000012200019N0200001N1+01201+00611101071ADDAA199000091GA1001+999999999GF100991001001999999001001KA1999M+01991MA1999999086751MD1710021+0001REMSYN076AAXX  10181 56985 32970 00000 10120 20061 38675 40107 57002 333 00001 10199;EQDQ01  00002PRCP99
0132569850999992000021021004+23380+103380FM-12+130299999V0209999C000012200019N0250001N1+00961+00441101061ADDGA1001+999999999GF100991001001999999001001MD1710071+0001REMSYN064AAXX  10211 56985 42975 00000 10096 20044 40106 57007 333 00051;
0191569850999992000021100004+23380+103380FM-12+130299999V0209999C000012200019N0300001N1+00801+00391101371ADDAA199000091GF101991001001999999001021IA2999+00209MA1999999086811MD1210131+0101REMSYN082AAXX  11001 56985 32980 10000 10080 20039 38681 40137 52013 80002 333 00151 30024;EQDQ01  00002PRCP99
0122569850999992000021103004+23380+103380FM-12+130299999V0209999C000012200019N0300001N1+01641+00271101301ADDGA1001+999999999GF100991001001999999001001MD1210131+9999REMSYN054AAXX  11031 56985 42980 00000 10164 20027 40130 52013;
0202569850999992000021106004+23380+103380FM-12+130299999V0200401N001012200019N0300001N1+02001-00141100991ADDAA199000091GA1001+999999999GF100991001001999999001001KA1999N+00721MA1999999086701MD1710241+0101REMSYN076AAXX  11061 56985 32980 00401 10200 21014 38670 40099 57024 333 00101 20072;EQDQ01  00002PRCP99
0132569850999992000021109004+23380+103380FM-12+130299999V0202501N004012200019N0300001N1+02181+00051100861ADDGA1001+999999999GF100991001001999999001001MD1710131+0011REMSYN064AAXX  11091 56985 42980 02504 10218 20005 40086 57013 333 00103;
0183569850999992000021112004+23380+103380FM-12+130299999V0201801N004012200019N0300001N1+01701+00521101201ADDAA199000091GA1001+999999999GF100991001001999999001001MA1999999086721MD1210151+0011REMSYN070AAXX  11121 56985 32980 01804 10170 20052 38672 40120 52015 333 00102;EQDQ01  00002PRCP99
0122569850999992000021115004+23380+103380FM-12+130299999V0202001N004012200019N0300001N1+01621+00561101151ADDGA1001+999999999GF100991001001999999001001MD1210131+9999REMSYN054AAXX  11151 56985 42980 02004 10162 20056 40115 52013;
0202569850999992000021118004+23380+103380FM-12+130299999V0201601N004012200019N0300001N1+01491+00551101031ADDAA199000091GA1001+999999999GF100991001001999999001001KA1999M+02241MA1999999086801MD1710051+0101REMSYN076AAXX  11181 56985 32980 01604 10149 20055 38680 40103 57005 333 00103 10224;EQDQ01  00002PRCP99
0132569850999992000021121004+23380+103380FM-12+130299999V0201801N004012200019N0300001N1+01441+00541100831ADDGA1001+999999999GF100991001001999999001001MD1710141+0001REMSYN064AAXX  11211 56985 42980 01804 10144 20054 40083 57014 333 00005;
0173569850999992000021200004+23380+103380FM-12+130299999V0201101N002012200019N0300001N1+01261+00451101111ADDAA199000091GF101991001001999999001021MA1999999086751MD1210091+0011REMSYN076AAXX  12001 56985 32980 11102 10126 20045 38675 40111 52009 80002 333 05105;EQDQ01  00002PRCP99
0112569850999992000021203004+23380+103380FM-12+130299999V0202201N003012200019N0300001N1+02081+00401101011ADDGF101991001001999999001021MD1210081+9999REMSYN060AAXX  12031 56985 42980 12203 10208 20040 40101 52008 80002;
0192569850999992000021206004+23380+103380FM-12+130299999V0202501N004012200019N0300001N1+02441+00081100751ADDAA199000091GF102991001001999999001021KA1999N+01091MA1999999086661MD1710171+0001REMSYN082AAXX  12061 56985 32980 22504 10244 20008 38666 40075 57017 80002 333 00004 20109;EQDQ01  00002PRCP99
0122569850999992000021209004+23380+103380FM-12+130299999V0202001N004012200019N0300001N1+02481+00411100491ADDGF101991001001999999001021MD1710231+0011REMSYN070AAXX  12091 56985 42980 12004 10248 20041 40049 57023 80002 333 05103;
0183569850999992000021212004+23380+103380FM-12+130299999V0202001N003012200019N0300001N1+02021+00751100831ADDAA199000091GA1001+999999999GF100991001001999999001001MA1999999086581MD1210151+0011REMSYN070AAXX  12121 56985 32980 02003 10202 20075 38658 40083 52015 333 05103;EQDQ01  00002PRCP99
0122569850999992000021215004+23380+103380FM-12+130299999V0201601N002012200019N0300001N1+01841+00801100821ADDGA1001+999999999GF100991001001999999001001MD1210131+9999REMSYN054AAXX  12151 56985 42980 01602 10184 20080 40082 52013;
0202569850999992000021218004+23380+103380FM-12+130299999V0209999C000012200019N0300001N1+01831+00771100711ADDAA199000091GA1001+999999999GF100991001001999999001001KA1999M+02541MA1999999086701MD1710011-0101REMSYN076AAXX  12181 56985 32980 00000 10183 20077 38670 40071 57001 333 05103 10254;EQDQ01  00002PRCP99
0132569850999992000021221004+23380+103380FM-12+130299999V0209999C000012200019N0300001N1+01541+00711100691ADDGA1001+999999999GF100991001001999999001001MD1710081+0001REMSYN064AAXX  12211 56985 42980 00000 10154 20071 40069 57008 333 00001;
0177569850999992000021300004+23380+103380FM-12+130299999V0200901N001012200019N0300001N1+99999+99999100931ADDAA199000091GA1001+999999999GF100991001001999999001001MA1999999086701MD1210081+0011REMSYN064AAXX  13001 56985 32980 00901 20060 38670 40093 52008 333 05101;EQDQ01  00002PRCP99
0122569850999992000021303004+23380+103380FM-12+130299999V0209999C000012200019N0300001N1+02181+00631100931ADDGA1001+999999999GF100991001001999999001001MD1210131+9999REMSYN054AAXX  13031 56985 42980 00000 10218 20063 40093 52013;
0192569850999992000021306004+23380+103380FM-12+130299999V0203401N002012200019N0300001N1+02591+00461100531ADDAA199000091GF101991001001999999001021KA1999N+01341MA1999999086571MD1710261-0101REMSYN082AAXX  13061 56985 32980 13402 10259 20046 38657 40053 57026 80002 333 05102 20134;EQDQ01  00002PRCP99
0132569850999992000021309004+23380+103380FM-12+130299999V0202701N003012200019N0300001N1+02731+00511100381ADDGA1001+999999999GF100991001001999999001001MD1710161+0001REMSYN064AAXX  13091 56985 42980 02703 10273 20051 40038 57016 333 00003;
0183569850999992000021312004+23380+103380FM-12+130299999V0202001N003012200019N0300001N1+02121+00951100771ADDAA199000091GA1001+999999999GF100991001001999999001001MA1999999086581MD1210171+0001REMSYN070AAXX  13121 56985 32980 02003 10212 20095 38658 40077 52017 333 00001;EQDQ01  00002PRCP99
0122569850999992000021315004+23380+103380FM-12+130299999V0201801N004012200019N0300001N1+02011+00891100831ADDGA1001+999999999GF100991001001999999001001MD1210201+9999REMSYN054AAXX  13151 56985 42980 01804 10201 20089 40083 52020;
0202569850999992000021318004+23380+103380FM-12+130299999V0202001N002012200019N0300001N1+01841+00981100731ADDAA199000091GA1001+999999999GF100991001001999999001001KA1999M+02751MA1999999086751MD1710031+0101REMSYN076AAXX  13181 56985 32980 02002 10184 20098 38675 40073 57003 333 00100 10275;EQDQ01  00002PRCP99
0151569850999992000021321004+23380+103380FM-12+130299999V0203601N001012200019N0300001N1+01571+00961999999ADDGA1001+999999999GF100991001001999999001001MD1710061+0011REMSYN064AAXX  13211 56985 42980 03601 10157 20096 40700 57006 333 00100;EQDQ01+107003APOSLP
0183569850999992000021400004+23380+103380FM-12+130299999V0203201N001012200019N0300001N1+01431+00941101061ADDAA199000091GA1001+999999999GF100991001001999999001001MA1999999086841MD1210151+0011REMSYN070AAXX  14001 56985 32980 03201 10143 20094 38684 40106 52015 333 00100;EQDQ01  00002PRCP99
0122569850999992000021403004+23380+103380FM-12+130299999V0201801N002012200019N0300001N1+02281+00921101081ADDGA1001+999999999GF100991001001999999001001MD1210181+9999REMSYN054AAXX  14031 56985 42980 01802 10228 20092 40108 52018;
0202569850999992000021406004+23380+103380FM-12+130299999V0201801N006012200019N0300001N1+02451+00961100831ADDAA199000091GA1001+999999999GF100991001001999999001001KA1999N+01391MA1999999086801MD1710221+0201REMSYN076AAXX  14061 56985 32980 01806 10245 20096 38680 40083 57022 333 00251 20139;EQDQ01  00002PRCP99
0122569850999992000021409004+23380+103380FM-12+130299999V0201801N005012200019N0300001N1+02371+01201100731ADDGF101991011011008001001001MD1710161+0021REMSYN070AAXX  14091 56985 42580 11805 10237 20120 40073 57016 81100 333 00254;
0173569850999992000021412004+23380+103380FM-12+130299999V0201801N006012200019N0250001N1+01701+01261101271ADDAA199000091GF101991011041008001001001MA1999999086921MD1210281+0031REMSYN076AAXX  14121 56985 32575 11806 10170 20126 38692 40127 52028 81400 333 00354;EQDQ01  00002PRCP99
0192569850999992000021418004+23380+103380FM-12+130299999V0201801N004012200019N0250001N1+01571+01171101151ADDAA199000091GF101991011011008001001001KA1999M+02471MA1999999087021MD1710021+0301REMSYN082AAXX  14181 56985 32575 11804 10157 20117 38702 40115 57002 81100 333 00353 10247;EQDQ01  00002PRCP99
0141569850999992000021421004+23380+103380FM-12+130299999V0201401N004010075019N0250001N1+01561+01181999999ADDGF106991061041008001001001MD1710041+0031REMSYN070AAXX  14211 56985 42575 61404 10156 20118 40713 57004 86400 333 00300;EQDQ01+107133APOSLP
0189569850999992000021500004+23380+103380FM-12+130299999V0201601N003012200019N0200001N1+01601+01191101372ADDAA199000091GF104991041041008001001001MA1999999087051MD1210071+0021REMSYN076AAXX  15001 56985 32570 41603 10160 20119 38705 40137 52007 84400 333 00202;EQDQ01+101373APOSLPQ02  00002PRCP99
0112569850999992000021503004+23380+103380FM-12+130299999V0201601N005012200019N0250001N1+01851+01191101491ADDGF102991021041008001001001MD1210131+9999REMSYN060AAXX  15031 56985 42575 21605 10185 20119 40149 52013 82400;
0192569850999992000021506004+23380+103380FM-12+130299999V0201801N007012200019N0250001N1+02061+01111101171ADDAA199000091GF103991031011008001001001KA1999N+01521MA1999999086951MD1710231+0201REMSYN082AAXX  15061 56985 32575 31807 10206 20111 38695 40117 57023 83100 333 00254 20152;EQDQ01  00002PRCP99
0122569850999992000021509004+23380+103380FM-12+130299999V0202001N008012200019N0250001N1+01881+01211101011ADDGF102991021011008001001001MD1710181+0011REMSYN070AAXX  15091 56985 42575 22008 10188 20121 40101 57018 82100 333 00155;
0173569850999992000021512004+23380+103380FM-12+130299999V0202001N007012200019N0250001N1+01541+01161101181ADDAA199000091GF103991031041008001001001MA1999999086851MD1210081+0011REMSYN076AAXX  15121 56985 32575 32007 10154 20116 38685 40118 52008 83400 333 05152;EQDQ01  00002PRCP99
0112569850999992000021515004+23380+103380FM-12+130299999V0202001N005012200019N0200001N1+01361+01151101271ADDGF101991011001999999041021MD1210091+9999REMSYN060AAXX  15151 56985 42970 12005 10136 20115 40127 52009 81042;
0192569850999992000021518004+23380+103380FM-12+130299999V0202001N005012200019N0200001N1+01241+01061101211ADDAA199000091GF101991011041008001001001KA1999M+02101MA1999999086911MD1710031-0101REMSYN082AAXX  15181 56985 32570 12005 10124 20106 38691 40121 57003 81400 333 05153 10210;EQDQ01  00002PRCP99
0122569850999992000021521004+23380+103380FM-12+130299999V0202001N006010075019N0200001N1+01221+01021101171ADDGF107991071041008001999999MD1710081+0021REMSYN070AAXX  15211 56985 42570 72006 10122 20102 40117 57008 874// 333 05253;
0173569850999992000021600004+23380+103380FM-12+130299999V0201601N005010075019N0180001N1+01161+00961101371ADDAA199000091GF106991061041008001001001MA1999999086911MD1210081+0011REMSYN076AAXX  16001 56985 32568 61605 10116 20096 38691 40137 52008 86400 333 05154;EQDQ01  00002PRCP99
0112569850999992000021603004+23380+103380FM-12+130299999V0201801N003012200019N0180001N1+01741+01121101451ADDGF101991011011008001001001MD1210161+9999REMSYN060AAXX  16031 56985 42568 11803 10174 20112 40145 52016 81100;
0192569850999992000021606004+23380+103380FM-12+130299999V0201801N005012200019N0250001N1+02151+01101101031ADDAA199000091GF102991021021008001001001KA1999N+01131MA1999999086781MD1710291-0201REMSYN082AAXX  16061 56985 32575 21805 10215 20110 38678 40103 57029 82200 333 05201 20113;EQDQ01  00002PRCP99
0122569850999992000021609004+23380+103380FM-12+130299999V0201801N004010900019N0300001N1+02161+01031100831ADDGF106991011011008001001021MD1710181+0021REMSYN070AAXX  16091 56985 42580 61804 10216 20103 40083 57018 81102 333 05203;
0173569850999992000021612004+23380+103380FM-12+130299999V0201801N004010900019N0300001N1+01581+01091101201ADDAA199000091GF107991011011008001001021MA1999999086771MD1210171+0011REMSYN076AAXX  16121 56985 32580 71804 10158 20109 38677 40120 52017 81102 333 05100;EQDQ01  00002PRCP99
0112569850999992000021615004+23380+103380FM-12+130299999V0201801N005010900019N0200001N1+01301+01051101301ADDGF107991011011008001001021MD1210161+9999REMSYN060AAXX  16151 56985 42570 71805 10130 20105 40130 52016 81102;
0192569850999992000021618004+23380+103380FM-12+130299999V0201601N006010900019N0200001N1+01251+01021101211ADDAA199000091GF107991011011008001001021KA1999M+02471MA1999999086931MD1410001+0001REMSYN082AAXX  16181 56985 32570 71606 10125 20102 38693 40121 54000 81102 333 00000 10247;EQDQ01  00002PRCP99
0122569850999992000021621004+23380+103380FM-12+130299999V0201801N006010360019N0200001N1+01191+00971101101ADDGF106991011011008001041001MD1710101+0001REMSYN070AAXX  16211 56985 42570 61806 10119 20097 40110 57010 81140 333 00000;
0173569850999992000021700004+23380+103380FM-12+130299999V0201801N006012200019N0200001N1+01181+00961101361ADDAA199000091GF104991031041008001041001MA1999999086921MD1210091+0001REMSYN076AAXX  17001 56985 32570 41806 10118 20096 38692 40136 52009 83440 333 00000;EQDQ01  00002PRCP99
0112569850999992000021703004+23380+103380FM-12+130299999V0201601N005012200019N0200001N1+01531+01051101441ADDGF102991021011008001001001MD1210081+9999REMSYN060AAXX  17031 56985 42570 21605 10153 20105 40144 52008 82100;
0192569850999992000021706004+23380+103380FM-12+130299999V0201801N007012200019N0200001N1+01881+01171101031ADDAA199000091GF101991011011008001001001KA1999N+01111MA1999999086721MD1710281-0101REMSYN082AAXX  17061 56985 32570 11807 10188 20117 38672 40103 57028 81100 333 05153 20111;EQDQ01  00002PRCP99
0122569850999992000021709004+23380+103380FM-12+130299999V0201801N006012200019N0220001N1+01941+01141100771ADDGF101991011011008001001001MD1710231+0011REMSYN070AAXX  17091 56985 42572 11806 10194 20114 40077 57023 81100 333 05152;
0173569850999992000021712004+23380+103380FM-12+130299999V0202001N002012200019N0220001N1+01731+01201100891ADDAA199000091GF101991011011008001001001MA1999999086551MD1210061+0021REMSYN076AAXX  17121 56985 32572 12002 10173 20120 38655 40089 52006 81100 333 05202;EQDQ01  00002PRCP99
0122569850999992000021715004+23380+103380FM-12+130299999V0201801N003012200019N0200001N1+01371+01111101131ADDGA1001+999999999GF100991001001999999001001MD1210201+9999REMSYN054AAXX  17151 56985 42970 01803 10137 20111 40113 52020;
0192569850999992000021718004+23380+103380FM-12+130299999V0201601N004012200019N0200001N1+01351+01101101031ADDAA199000091GF102991021041008001001001KA1999M+02061MA1999999086741MD1710011-0201REMSYN082AAXX  17181 56985 32570 21604 10135 20110 38674 40103 57001 82400 333 05201 10206;EQDQ01  00002PRCP99
0122569850999992000021721004+23380+103380FM-12+130299999V0201801N004010075019N0200001N1+01401+01041100791ADDGF107991071041008001999999MD1710181+0031REMSYN070AAXX  17211 56985 42570 71804 10140 20104 40079 57018 874// 333 05302;
0186569850999992000021800004+23380+103380FM-12+130299999V0201801N004010075019N0200001N1+01381+01151101011ADDAA106000891AY181061GF108991081041008001999999MA1999999086701MD1210141-0201MW1801REMSYN094AAXX  18001 56985 11570 81804 10138 20115 38670 40101 52014 69981 78080 884// 333 05202 70008;
0132569850999992000021803004+23380+103380FM-12+130299999V0202001N006012200019N0250001N1+01871+01141101101ADDAY181031GF104991041041008001001001MD1210101+9999MW1001REMSYN066AAXX  18031 56985 41575 42006 10187 20114 40110 52010 70080 84400;
