0191579020999992000010100004+25430+105180FM-12+137999999V0209999C000012200019N0250001N1+00421+00331102031ADDAA106000091GF103991031051012501001001IA2999-00209MA1999999086501MD1210201+0301REMSYN082AAXX  01001 57902 32675 30000 10042 20033 38650 40203 52020 83500 333 00301 31029;EQDQ01  00002PRCP06
0112579020999992000010103004+25430+105180FM-12+137999999V0201801N001012200019N0280001N1+01111+00681102131ADDGF102991021051012501001001MD1210161+9999REMSYN060AAXX  01031 57902 42678 21801 10111 20068 40213 52016 82500;
0202579020999992000010106004+25430+105180FM-12+137999999V0203601N002012200019N0300001N1+01631+00711101611ADDAA106000091GA1001+999999999GF100991001001999999001001KA1999N+00401MA1999999086271MD1710391+0301REMSYN076AAXX  01061 57902 32980 03602 10163 20071 38627 40161 57039 333 00353 20040;EQDQ01  00002PRCP06
0132579020999992000010109004+25430+105180FM-12+137999999V0200901N004012200019N0280001N1+01721+00621101541ADDGA1001+999999999GF100991001001999999001001MD1710081+0031REMSYN064AAXX  01091 57902 42978 00904 10172 20062 40154 57008 333 00352;
0183579020999992000010112004+25430+105180FM-12+137999999V0200901N001012200019N0250001N1+01201+00781102021ADDAA106000091GA1001+999999999GF100991001001999999001001MA1999999086451MD1210261+0041REMSYN070AAXX  01121 57902 32975 00901 10120 20078 38645 40202 52026 333 00452;EQDQ01  00002PRCP06
0122579020999992000010115004+25430+105180FM-12+137999999V0201801N002012200019N0250001N1+00861+00621102121ADDGA1001+999999999GF100991001001999999001001MD1210171+9999REMSYN054AAXX  01151 57902 42975 01802 10086 20062 40212 52017;
0192579020999992000010118004+25430+105180FM-12+137999999V0202701N001012200019N0250001N1+00831+00671102011ADDAA106000091GF101991011051012501001001KA1999M+01771MA1999999086651MD1210031+0401REMSYN082AAXX  01181 57902 32675 12701 10083 20067 38665 40201 52003 81500 333 00402 10177;EQDQ01  00002PRCP06
0122579020999992000010121004+25430+105180FM-12+137999999V0209999C000010120019N0230001N1+00811+00691101951ADDGF107991071051012501999999MD1710031+0031REMSYN070AAXX  01211 57902 42673 70000 10081 20069 40195 57003 875// 333 00303;
0191579020999992000010200004+25430+105180FM-12+137999999V0209999C000010075019N0160001N1+00871+00731102211ADDAA106000091GF108991081051008001999999IA2999+00109MA1999999086721MD1210101+0201REMSYN082AAXX  02001 57902 32566 80000 10087 20073 38672 40221 52010 885// 333 00205 30017;EQDQ01  00002PRCP06
0112579020999992000010203004+25430+105180FM-12+137999999V0200401N002010120019N0140001N1+01211+00811102371ADDGF108991081051012501999999MD1210141+9999REMSYN060AAXX  02031 57902 42664 80402 10121 20081 40237 52014 885//;
0192579020999992000010206004+25430+105180FM-12+137999999V0202201N004010075019N0170001N1+01621+00581101801ADDAA106000091GF106991061011008001001001KA1999N+00791MA1999999086471MD1710391+0201REMSYN082AAXX  02061 57902 32567 62204 10162 20058 38647 40180 57039 86100 333 00200 20079;EQDQ01  00002PRCP06
0122579020999992000010209004+25430+105180FM-12+137999999V0201801N005012200019N0280001N1+01701+00601101491ADDGF101991011011008001001001MD1710251+0001REMSYN070AAXX  02091 57902 42578 11805 10170 20060 40149 57025 81100 333 00000;
0183579020999992000010212004+25430+105180FM-12+137999999V0200901N002012200019N0250001N1+01311+00801101661ADDAA106000091GA1001+999999999GF100991001001999999001001MA1999999086281MD1210061+0021REMSYN070AAXX  02121 57902 32975 00902 10131 20080 38628 40166 52006 333 05201;EQDQ01  00002PRCP06
0122579020999992000010215004+25430+105180FM-12+137999999V0200401N001012200019N0200001N1+01001+00771101681ADDGA1001+999999999GF100991001001999999001001MD1210031+9999REMSYN054AAXX  02151 57902 42970 00401 10100 20077 40168 52003;
0192579020999992000010218004+25430+105180FM-12+137999999V0209999C000010120019N0150001N1+01031+00841101411ADDAA106000091GF107991071051012501999999KA1999M+01811MA1999999086191MD1710121-0501REMSYN082AAXX  02181 57902 32665 70000 10103 20084 38619 40141 57012 875// 333 05502 10181;EQDQ01  00002PRCP06
0122579020999992000010221004+25430+105180FM-12+137999999V0201401N002010120019N0150001N1+01001+00811101281ADDGF105991051051012501001001MD1710101+0051REMSYN070AAXX  02211 57902 42665 51402 10100 20081 40128 57010 85500 333 05502;
0203579020999992000010300004+25430+105180FM-12+137999999V0209999C000010042019N0050001N1+00621+00601101591ADDAA106000091GF108991081061004501999999IA2999+00009MA1999999086161MD1210071-0601MW1101REMSYN088AAXX  03001 57902 31450 80000 10062 20060 38616 40159 52007 71000 886// 333 05653 30002;EQDQ01  00002PRCP06
0132579020999992000010303004+25430+105180FM-12+137999999V0209999C000010042019N0030001N1+00851+00811101801ADDAY141031GF108991081061004501999999MD1210161+9999MW1281REMSYN066AAXX  03031 57902 41430 80000 10085 20081 40180 52016 72840 886//;
0222579020999992000010306004+25430+105180FM-12+137999999V0200901N004012200019N0300001N1+01801+00711101101ADDAA106000091AY141061GA1001+999999999GF100991001001999999001001KA1999N+00611MA1999999085971MD1710351-0501MW1001REMSYN082AAXX  03061 57902 31980 00904 10180 20071 38597 40110 57035 70040 333 05502 20061;EQDQ01  00002PRCP06
0132579020999992000010309004+25430+105180FM-12+137999999V0201401N004012200019N0300001N1+01911+00521100821ADDGA1001+999999999GF100991001001999999001001MD1710221+0051REMSYN064AAXX  03091 57902 42980 01404 10191 20052 40082 57022 333 05502;
0184579020999992000010312004+25430+105180FM-12+137999999V0200901N001012200019N0300001N1+01451+00781101191ADDAA106000091GA1001+999999999GF100991001001999999001001MD1210111+0041REMSYN070AAXX  03121 57902 32980 00901 10145 20078 31586 40119 52011 333 05401;EQDQ01+015861APOSP Q02  00002PRCP06
0122579020999992000010315004+25430+105180FM-12+137999999V0200201N001012200019N0250001N1+01151+00811101261ADDGA1001+999999999GF100991001001999999001001MD1210041+9999REMSYN054AAXX  03151 57902 42975 00201 10115 20081 40126 52004;
0202579020999992000010318004+25430+105180FM-12+137999999V0201401N002012200019N0200001N1+00971+00801100911ADDAA106000091GA1001+999999999GF100991001001999999001001KA1999M+02041MA1999999085791MD1710111-0401REMSYN076AAXX  03181 57902 32970 01402 10097 20080 38579 40091 57011 333 05451 10204;EQDQ01  00002PRCP06
0132579020999992000010321004+25430+105180FM-12+137999999V0200901N002012200019N0180001N1+00871+00791100771ADDGA1001+999999999GF100991001001999999001001MD1710121+0041REMSYN064AAXX  03211 57902 42968 00902 10087 20079 40077 57012 333 05451;
0201579020999992000010400004+25430+105180FM-12+137999999V0209999C000012200019N0120001N1+00571+00531101111ADDAA106000091GA1001+999999999GF100991001001999999001001IA2999+00009MA1999999085781MD1210111-0401REMSYN076AAXX  04001 57902 32962 00000 10057 20053 38578 40111 52011 333 05451 31009;EQDQ01  00002PRCP06
0142579020999992000010403004+25430+105180FM-12+137999999V0202201N006012200019N0300001N1+01681+00201100941ADDAY141031GA1001+999999999GF100991001001999999001001MD1210051+9999MW1001REMSYN060AAXX  04031 57902 41980 02206 10168 20020 40094 52005 70040;
0222579020999992000010406004+25430+105180FM-12+137999999V0201801N002012200019N0300001N1+02241-00481100491ADDAA106000091AY141061GA1001+999999999GF100991001001999999001001KA1999N+00471MA1999999085541MD1710291-0401MW1001REMSYN082AAXX  04061 57902 31980 01802 10224 21048 38554 40049 57029 70040 333 05404 20047;EQDQ01  00002PRCP06
0132579020999992000010409004+25430+105180FM-12+137999999V0202201N007012200019N0300001N1+02291-00911100381ADDGA1001+999999999GF100991001001999999001001MD1710111+0031REMSYN064AAXX  04091 57902 42980 02207 10229 21091 40038 57011 333 05304;
0183579020999992000010412004+25430+105180FM-12+137999999V0202201N004012200019N0300001N1+01921-01151100811ADDAA106000091GA1001+999999999GF100991001001999999001001MA1999999085641MD1210211+0021REMSYN070AAXX  04121 57902 32980 02204 10192 21115 38564 40081 52021 333 05205;EQDQ01  00002PRCP06
0122579020999992000010415004+25430+105180FM-12+137999999V0200901N002012200019N0300001N1+01201+00051100941ADDGA1001+999999999GF100991001001999999001001MD1210201+9999REMSYN054AAXX  04151 57902 42980 00902 10120 20005 40094 52020;
0202579020999992000010418004+25430+105180FM-12+137999999V0200401N001012200019N0300001N1+00881+00171100921ADDAA106000091GA1001+999999999GF100991001001999999001001KA1999M+02391MA1999999085881MD1210041+0101REMSYN076AAXX  04181 57902 32980 00401 10088 20017 38588 40092 52004 333 00151 10239;EQDQ01  00002PRCP06
0132579020999992000010421004+25430+105180FM-12+137999999V0209999C000012200019N0300001N1+00641+00061100881ADDGA1001+999999999GF100991001001999999001001MD1710081+0011REMSYN064AAXX  04211 57902 42980 00000 10064 20006 40088 57008 333 00152;
0201579020999992000010500004+25430+105180FM-12+137999999V0202201N001012200019N0300001N1+00501+00081101071ADDAA106000091GA1001+999999999GF100991001001999999001001IA2999-00309MA1999999085841MD1210041+0101REMSYN076AAXX  05001 57902 32980 02201 10050 20008 38584 40107 52004 333 00151 31033;EQDQ01  00002PRCP06
0122579020999992000010503004+25430+105180FM-12+137999999V0200901N002012200019N0300001N1+01331+00661101181ADDGA1001+999999999GF100991001001999999001001MD1210121+9999REMSYN054AAXX  05031 57902 42980 00902 10133 20066 40118 52012;
0202579020999992000010506004+25430+105180FM-12+137999999V0202201N005012200019N0300001N1+02161-00121100671ADDAA106000091GA1001+999999999GF100991001001999999001001KA1999N+00461MA1999999085651MD1710311+0101REMSYN076AAXX  05061 57902 32980 02205 10216 21012 38565 40067 57031 333 00151 20046;EQDQ01  00002PRCP06
0132579020999992000010509004+25430+105180FM-12+137999999V0201801N003012200019N0300001N1+02151+00101100631ADDGA1001+999999999GF100991001001999999001001MD1710101+0011REMSYN064AAXX  05091 57902 42980 01803 10215 20010 40063 57010 333 00151;
0183579020999992000010512004+25430+105180FM-12+137999999V0200901N003012200019N0300001N1+01541+00581101041ADDAA106000091GA1001+999999999GF100991001001999999001001MA1999999085721MD1210171+0011REMSYN070AAXX  05121 57902 32980 00903 10154 20058 38572 40104 52017 333 00154;EQDQ01  00002PRCP06
0122579020999992000010515004+25430+105180FM-12+137999999V0201401N001012200019N0250001N1+01041+00541101081ADDGA1001+999999999GF100991001001999999001001MD1210121+9999REMSYN054AAXX  05151 57902 42975 01401 10104 20054 40108 52012;
0202579020999992000010518004+25430+105180FM-12+137999999V0209999C000012200019N0230001N1+00771+00541100901ADDAA106000091GA1001+999999999GF100991001001999999001001KA1999M+02281MA1999999085821MD1710021-0101REMSYN076AAXX  05181 57902 32973 00000 10077 20054 38582 40090 57002 333 05151 10228;EQDQ01  00002PRCP06
0132579020999992000010521004+25430+105180FM-12+137999999V0202701N001012200019N0200001N1+00641+00491100941ADDGA1001+999999999GF100991001001999999001001MD1410001+0001REMSYN064AAXX  05211 57902 42970 02701 10064 20049 40094 54000 333 00000;
0132579020999992000010603004+25430+105180FM-12+137999999V0203201N002010900019N0100001N1+01231+00921101691ADDAY161031GF107991031051004501001021MD1210241+9999MW1001REMSYN066AAXX  06031 57902 41460 73202 10123 20092 40169 52024 70060 83502;
0199579020999992000010606004+25430+105180FM-12+137999999V0200401N004010120019N0250001N1+01561+01031101391ADDAA106000791AY161061GF107991061081008001001021KA1999N+00541MA1999999086091MD1710241+0401MW1001REMSYN094AAXX  06061 57902 11575 70404 10156 20103 38609 40139 57024 69901 70060 86802 333 00456 20054;
0122579020999992000010609004+25430+105180FM-12+137999999V0200401N003012200019N0160001N1+01441+00771101421ADDGF102991021011008001001001MD1710031+0051REMSYN070AAXX  06091 57902 42566 20403 10144 20077 40142 57003 82100 333 00557;
0173579020999992000010612004+25430+105180FM-12+137999999V0200901N003010120019N0150001N1+01111+00591101791ADDAA106000091GF107991071041012501001001MA1999999086291MD1210231+0061REMSYN076AAXX  06121 57902 32665 70903 10111 20059 38629 40179 52023 87400 333 00654;EQDQ01  00002PRCP06
0112579020999992000010615004+25430+105180FM-12+137999999V0200901N002010120019N0140001N1+00911+00411101871ADDGF106991061051012501001001MD1210161+9999REMSYN060AAXX  06151 57902 42664 60902 10091 20041 40187 52016 86500;
0139579020999992000010621004+25430+105180FM-12+137999999V0200901N002010120019N0120001N1+00801+00321101571ADDAA124000791GF108991081051012501999999MD1710181+0401REMSYN076AAXX  06211 57902 42662 80902 10080 20032 40157 57018 885// 333 00402 79999;
0179579020999992000010700004+25430+105180FM-12+137999999V0200901N002010042019N0150001N1+00791+00381101701ADDAA106000091GF108991081051004501999999MA1999999086251MD1210031+0201REMSYN082AAXX  07001 57902 32465 80902 10079 20038 38625 40170 52003 885// 333 00202 79999;EQDQ01  00002PRCP06
0112579020999992000010703004+25430+105180FM-12+137999999V0202201N004010120019N0180001N1+01071+00641101671ADDGF107991071051012501999999MD1710011+9999REMSYN060AAXX  07031 57902 42668 72204 10107 20064 40167 57001 875//;
0192579020999992000010706004+25430+105180FM-12+137999999V0202201N005010120019N0250001N1+01561+00671101131ADDAA106000091GF107991071051012501999999KA1999N+00791MA1999999085891MD1710351-0201REMSYN082AAXX  07061 57902 32675 72205 10156 20067 38589 40113 57035 875// 333 05200 20079;EQDQ01  00002PRCP06
0122579020999992000010709004+25430+105180FM-12+137999999V0202201N004010360019N0300001N1+01801+00691100911ADDGF106991021051017501041021MD1710141+0031REMSYN070AAXX  07091 57902 42780 62204 10180 20069 40091 57014 82542 333 05304;
0173579020999992000010712004+25430+105180FM-12+137999999V0200901N004010120019N0250001N1+01461+00791101141ADDAA106000091GF107991061051012501041999MA1999999085861MD1210111+0041REMSYN076AAXX  07121 57902 32675 70904 10146 20079 38586 40114 52011 8654/ 333 05404;EQDQ01  00002PRCP06
0122579020999992000010715004+25430+105180FM-12+137999999V0200401N003012200019N0250001N1+01201+00781101201ADDGA1001+999999999GF100991001001999999001001MD1210061+9999REMSYN054AAXX  07151 57902 42975 00403 10120 20078 40120 52006;
0202579020999992000010718004+25430+105180FM-12+137999999V0201401N001012200019N0200001N1+01081+00791101031ADDAA106000091GA1001+999999999GF100991001001999999001001KA1999M+01821MA1999999085861MD1710061-0501REMSYN076AAXX  07181 57902 32970 01401 10108 20079 38586 40103 57006 333 05502 10182;EQDQ01  00002PRCP06
0132579020999992000010721004+25430+105180FM-12+137999999V0200401N003012200019N0200001N1+01051+00681100841ADDGA1001+999999999GF100991001001999999001001MD1710111+0051REMSYN064AAXX  07211 57902 42970 00403 10105 20068 40084 57011 333 05503;
0191579020999992000010800004+25430+105180FM-12+137999999V0200201N001012200019N0300001N1+00971+00591101021ADDAA106000091GF101991011001999999041001IA2999+00309MA1999999085801MD1210051-0501REMSYN082AAXX  08001 57902 32980 10201 10097 20059 38580 40102 52005 81040 333 05502 30033;EQDQ01  00002PRCP06
0122579020999992000010803004+25430+105180FM-12+137999999V0202201N004012200019N0300001N1+01621+00251101071ADDGA1001+999999999GF100991001001999999001001MD1210141+9999REMSYN054AAXX  08031 57902 42980 02204 10162 20025 40107 52014;
0202579020999992000010806004+25430+105180FM-12+137999999V0202201N004012200019N0300001N1+02021+00191100621ADDAA106000091GA1001+999999999GF100991001001999999001001KA1999N+00871MA1999999085621MD1710321-0301REMSYN076AAXX  08061 57902 32980 02204 10202 20019 38562 40062 57032 333 05305 20087;EQDQ01  00002PRCP06
0132579020999992000010809004+25430+105180FM-12+137999999V0202201N007012200019N0300001N1+02101+00181100461ADDGA1001+999999999GF100991001001999999001001MD1710121+0031REMSYN064AAXX  08091 57902 42980 02207 10210 20018 40046 57012 333 05303;
0183579020999992000010812004+25430+105180FM-12+137999999V0201801N004012200019N0300001N1+01761+00051100791ADDAA106000091GA1001+999999999GF100991001001999999001001MA1999999085681MD1210181+0021REMSYN070AAXX  08121 57902 32980 01804 10176 20005 38568 40079 52018 333 05203;EQDQ01  00002PRCP06
0122579020999992000010815004+25430+105180FM-12+137999999V0200901N002012200019N0300001N1+01431+00161100841ADDGA1001+999999999GF100991001001999999001001MD1210121+9999REMSYN054AAXX  08151 57902 42980 00902 10143 20016 40084 52012;
0202579020999992000010818004+25430+105180FM-12+137999999V0200901N002012200019N0300001N1+01101+00351100891ADDAA106000091GA1001+999999999GF100991001001999999001001KA1999M+02171MA1999999085861MD1210061+0001REMSYN076AAXX  08181 57902 32980 00902 10110 20035 38586 40089 52006 333 00000 10217;EQDQ01  00002PRCP06
0132579020999992000010821004+25430+105180FM-12+137999999V0209999C000012200019N0250001N1+00751+00291100901ADDGA1001+999999999GF100991001001999999001001MD1710061+0011REMSYN064AAXX  08211 57902 42975 00000 10075 20029 40090 57006 333 00153;
0201579020999992000010900004+25430+105180FM-12+137999999V0209999C000012200019N0300001N1+00531+00241101211ADDAA106000091GA1001+999999999GF100991001001999999001001IA2999-00109MA1999999085931MD1210131+0101REMSYN076AAXX  09001 57902 32980 00000 10053 20024 38593 40121 52013 333 00154 31019;EQDQ01  00002PRCP06
0122579020999992000010903004+25430+105180FM-12+137999999V0202201N005012200019N0300001N1+01611+00081101171ADDGA1001+999999999GF100991001001999999001001MD1210151+9999REMSYN054AAXX  09031 57902 42980 02205 10161 20008 40117 52015;
0132579020999992000010909004+25430+105180FM-12+137999999V0201801N007012200019N0300001N1+02161-00201100621ADDGA1001+999999999GF100991001001999999001001MD1710151+0011REMSYN064AAXX  09091 57902 42980 01807 10216 21020 40062 57015 333 00101;
0183579020999992000010912004+25430+105180FM-12+137999999V0202701N002012200019N0300001N1+01621+00101101031ADDAA106000091GA1001+999999999GF100991001001999999001001MA1999999085741MD1210161+0011REMSYN070AAXX  09121 57902 32980 02702 10162 20010 38574 40103 52016 333 00151;EQDQ01  00002PRCP06
0122579020999992000010915004+25430+105180FM-12+137999999V0201801N003012200019N0300001N1+01131+00361101021ADDGA1001+999999999GF100991001001999999001001MD1210141+9999REMSYN054AAXX  09151 57902 42980 01803 10113 20036 40102 52014;
0202579020999992000010918004+25430+105180FM-12+137999999V0202701N001012200019N0300001N1+00951+00651100941ADDAA106000091GA1001+999999999GF100991001001999999001001KA1999M+02211MA1999999085881MD1410001+0001REMSYN076AAXX  09181 57902 32980 02701 10095 20065 38588 40094 54000 333 00052 10221;EQDQ01  00002PRCP06
0132579020999992000010921004+25430+105180FM-12+137999999V0200401N002012200019N0250001N1+00791+00571100811ADDGA1001+999999999GF100991001001999999001001MD1710131+0011REMSYN064AAXX  09211 57902 42975 00402 10079 20057 40081 57013 333 05100;
0201579020999992000011000004+25430+105180FM-12+137999999V0201401N001012200019N0300001N1+00831+00691101001ADDAA106000091GA1001+999999999GF100991001001999999001001IA2999+00109MA1999999085791MD1210041-0101REMSYN076AAXX  10001 57902 32980 01401 10083 20069 38579 40100 52004 333 05103 30013;EQDQ01  00002PRCP06
0122579020999992000011003004+25430+105180FM-12+137999999V0202201N005012200019N0300001N1+01761+00401100971ADDGA1001+999999999GF100991001001999999001001MD1210081+9999REMSYN054AAXX  10031 57902 42980 02205 10176 20040 40097 52008;
0215579020999992000011006004+25430+105180FM-12+137999999V0202201N007012200019N0300001N1+02201+00501100441ADDAA106000091GF101991011011008001001001KA1240N+00721MA1999999085481MD1710391-0301OA130601801REMSYN094AAXX  10061 57902 32580 12207 10220 20050 38548 40044 57039 81100 333 05301 20072 91118 91522;EQDQ01  00002PRCP06
0132579020999992000011009004+25430+105180FM-12+137999999V0202201N012012200019N0300001N1+02381+00051100271ADDGA1001+999999999GF100991001001999999001001MD1710141+0021REMSYN064AAXX  10091 57902 42980 02212 10238 20005 40027 57014 333 05202;
0183579020999992000011012004+25430+105180FM-12+137999999V0202201N005012200019N0300001N1+02021+00221100581ADDAA106000091GA1001+999999999GF100991001001999999001001MA1999999085531MD1210191+0021REMSYN070AAXX  10121 57902 32980 02205 10202 20022 38553 40058 52019 333 05204;EQDQ01  00002PRCP06
0122579020999992000011015004+25430+105180FM-12+137999999V0202201N008012200019N0300001N1+01981+00151100551ADDGA1001+999999999GF100991001001999999001001MD1210181+9999REMSYN054AAXX  10151 57902 42980 02208 10198 20015 40055 52018;
0202579020999992000011018004+25430+105180FM-12+137999999V0202001N004012200019N0300001N1+01791+00281100531ADDAA106000091GA1001+999999999GF100991001001999999001001KA1999M+02391MA1999999085751MD1210041-0101REMSYN076AAXX  10181 57902 32980 02004 10179 20028 38575 40053 52004 333 05108 10239;EQDQ01  00002PRCP06
0132579020999992000011021004+25430+105180FM-12+137999999V0202201N010012200019N0300001N1+01691+00431100421ADDGA1001+999999999GF100991001001999999001001MD1710071+0011REMSYN064AAXX  10211 57902 42980 02210 10169 20043 40042 57007 333 05109;
0183579020999992000011100004+25430+105180FM-12+137999999V0202201N004012200019N0300001N1+01561+00401100681ADDAA106000091GA1001+999999999GF100991001001999999001001MA1999999085791MD1210111+0001REMSYN070AAXX  11001 57902 32980 02204 10156 20040 38579 40068 52011 333 00007;EQDQ01  00002PRCP06
0112579020999992000011103004+25430+105180FM-12+137999999V0202201N004012200019N0300001N1+01901+00261100701ADDGF101991011011008001001001MD1210081+9999REMSYN060AAXX  11031 57902 42580 12204 10190 20026 40070 52008 81100;
0192579020999992000011106004+25430+105180FM-12+137999999V0202201N011012200019N0300001N1+02211-00131100271ADDAA106000091GF101991011011008001001001KA1999N+01531MA1999999085531MD1710341+0101REMSYN082AAXX  11061 57902 32580 12211 10221 21013 38553 40027 57034 81100 333 00100 20153;EQDQ01  00002PRCP06
0132579020999992000011109004+25430+105180FM-12+137999999V0202701N006012200019N0300001N1+02411-00111100141ADDGA1001+999999999GF100991001001999999001001MD1710081+0011REMSYN064AAXX  11091 57902 42980 02706 10241 21011 40014 57008 333 00100;
0206579020999992000011112004+25430+105180FM-12+137999999V0202201N003012200019N0300001N1+01901+00111100651ADDAA106000091GA1001+999999999GF100991001001999999001001MA1999999085731MD1210281+0201OA130601901REMSYN082AAXX  11121 57902 32980 02203 10190 20011 38573 40065 52028 333 00251 91119 91522;EQDQ01  00002PRCP06
0122579020999992000011115004+25430+105180FM-12+137999999V0200401N004012200019N0250001N1+01281+00661101161ADDGA1001+999999999GF100991001001999999001001MD1210371+9999REMSYN054AAXX  11151 57902 42975 00404 10128 20066 40116 52037;
0202579020999992000011118004+25430+105180FM-12+137999999V0200901N002012200019N0210001N1+00891+00591101281ADDAA106000091GA1001+999999999GF100991001001999999001001KA1999M+02431MA1999999086181MD1210081+0401REMSYN076AAXX  11181 57902 32971 00902 10089 20059 38618 40128 52008 333 00459 10243;EQDQ01  00002PRCP06
0122579020999992000011121004+25430+105180FM-12+137999999V0200401N002010075019N0150001N1+00831+00571101151ADDGF108991081051008001999999MD1710071+0041REMSYN070AAXX  11211 57902 42565 80402 10083 20057 40115 57007 885// 333 00459;
0191579020999992000011200004+25430+105180FM-12+137999999V0200401N002010042019N0120001N1+00811+00591101401ADDAA106000091GF108991081051004501999999IA2999+00309MA1999999086191MD1210081+0401REMSYN082AAXX  12001 57902 32462 80402 10081 20059 38619 40140 52008 885// 333 00458 30033;EQDQ01  00002PRCP06
0132579020999992000011203004+25430+105180FM-12+137999999V0200401N003010042019N0100001N1+00871+00611101761ADDAY161031GF108991081071004501999999MD1210171+9999MW1601REMSYN066AAXX  12031 57902 41460 80403 10087 20061 40176 52017 76060 887//;
0199579020999992000011206004+25430+105180FM-12+137999999V0200401N002010042019N0100001N1+00991+00631101411ADDAA106000791AY161061GF108991081061004501999999KA1999N+00761MA1999999086001MD1710361+0501MW1001REMSYN094AAXX  12061 57902 11460 80402 10099 20063 38600 40141 57036 69901 70060 886// 333 00562 20076;
0122579020999992000011209004+25430+105180FM-12+137999999V0200401N004010075019N0130001N1+01021+00601101271ADDGF108991081061008001999999MD1710131+0041REMSYN070AAXX  12091 57902 42563 80404 10102 20060 40127 57013 886// 333 00464;
0172579020999992000011212004+25430+105180FM-12+137999999V0203601N003010075019N0120001N1+00801+00641101541ADDAA106000791GF108991081051008001999999MA1999999086041MD1210171+0031MW1601REMSYN088AAXX  12121 57902 11562 83603 10080 20064 38604 40154 52017 69901 76000 885// 333 00361;
0140579020999992000011215004+25430+105180FM-12+137999999V0200401N002010042019N0110001N1+00711+00651101711ADDAY161031AY261031GF108991081071004501999999MD1210141+9999MW1601REMSYN066AAXX  12151 57902 41461 80402 10071 20065 40171 52014 76066 887//;
0207579020999992000011218004+25430+105180FM-12+137999999V0200401N002010042019N0100001N1+00691+00591101551ADDAA106000791AY161061AY261061GF108991081071004501999999KA1999M+01081MA1999999086071MD1710111-0101MW1601REMSYN094AAXX  12181 57902 11460 80402 10069 20059 38607 40155 57011 69901 76066 887// 333 05152 10108;
0186579020999992000011221004+25430+105180FM-12+137999999V0201801N002019999999N0100001N1+00651+00501101371ADDAA124000191AY161031AY261031GF105991999071004501999999MD1710161-0201MW1601REMSYN082AAXX  12211 57902 41460 51802 10065 20050 40137 57016 76066 887// 333 05252 70001;EQDQ01+000082SCOTLC
0186579020999992000011300004+25430+105180FM-12+137999999V0200901N002010042019N0110001N1+00641+00491101531ADDAA106000191AY161061GF108991081061004501999999MA1999999085991MD1210081-0201MW1001REMSYN094AAXX  13001 57902 11461 80902 10064 20049 38599 40153 52008 69921 70060 886// 333 05252 70002;
0124579020999992000011303004+25430+105180FM-12+137999999V0200401N003010042019N0080001N1+00631+00611101631ADDGF108991081071004501999999MD1210061+9999MW1601REMSYN066AAXX  13031 57902 41458 80403 10063 20061 40163 52006 76000 887//;
0199579020999992000011306004+25430+105180FM-12+137999999V0200901N002010042019N0120001N1+00821+00601101271ADDAA106000791AY161061GF108991081061004501999999KA1999N+00601MA1999999085791MD1710261-0201MW1001REMSYN094AAXX  13061 57902 11462 80902 10082 20060 38579 40127 57026 69901 70060 886// 333 05252 20060;
0122579020999992000011309004+25430+105180FM-12+137999999V0200901N003012200019N0200001N1+01191+00731100961ADDGF102991021051008001001001MD1710181+0031REMSYN070AAXX  13091 57902 42570 20903 10119 20073 40096 57018 82500 333 05302;
0173579020999992000011312004+25430+105180FM-12+137999999V0200901N004010075019N0150001N1+00801+00661101221ADDAA106000091GF106991061051008001001001MA1999999085731MD1210121+0031REMSYN076AAXX  13121 57902 32565 60904 10080 20066 38573 40122 52012 86500 333 05300;EQDQ01  00002PRCP06
0112579020999992000011315004+25430+105180FM-12+137999999V0201401N002010075019N0150001N1+00801+00661101311ADDGF108991081051008001999999MD1210071+9999REMSYN060AAXX  13151 57902 42565 81402 10080 20066 40131 52007 885//;
0192579020999992000011318004+25430+105180FM-12+137999999V0201401N003010042019N0150001N1+00831+00631101141ADDAA106000091GF107991071051004501999999KA1999M+01221MA1999999085711MD1710091-0401REMSYN082AAXX  13181 57902 32465 71403 10083 20063 38571 40114 57009 875// 333 05401 10122;EQDQ01  00002PRCP06
0143579020999992000011321004+25430+105180FM-12+137999999V0201401N002010120019N0150001N1+00811+00591100911ADDAA124000191GF106991061051012501001001MD1710111-0301REMSYN080    AAXX  13211 57902 42665 61402 10081 20059 40091 57011 86500 333 05302 70001;
0164579020999992000011400004+25430+105180FM-12+137999999V0200901N004010075019N0170001N1+00781+00661101121ADDAA124000791GF108991081061008001999999MA1999999085681MD1210081-0301REMSYN086    AAXX  14001 57902 32567 80904 10078 20066 38568 40112 52008 886// 333 05301 79999;
0116579020999992000011403004+25430+105180FM-12+137999999V0201401N004012200019N0180001N1+01161+00571101071ADDGF101991011011008001001001MD1210051+9999REMSYN064    AAXX  14031 57902 42568 11404 10116 20057 40107 52005 81100;
0206579020999992000011406004+25430+105180FM-12+137999999V0200901N005012200019N0300001N1+01361+00671100571ADDAA199000091GA1001+999999999GF100991001001999999001001KA1999N+00771MA1999999085361MD1710371-0401REMSYN080    AAXX  14061 57902 32980 00905 10136 20067 38536 40057 57037 333 05405 20077;EQDQ01  00002PRCP99
0126579020999992000011409004+25430+105180FM-12+137999999V0200401N006012200019N0260001N1+01021+00671100531ADDGF101991011011008001001001MD1710121+0041REMSYN074    AAXX  14091 57902 42576 10406 10102 20067 40053 57012 81100 333 05452;
0177579020999992000011412004+25430+105180FM-12+137999999V0200401N001010042019N0110001N1+00811+00671100931ADDAA199000091GF108991081061004501999999MA1999999085521MD1210281+0021REMSYN080    AAXX  14121 57902 32461 80401 10081 20067 38552 40093 52028 886// 333 05200;EQDQ01  00002PRCP99
0116579020999992000011415004+25430+105180FM-12+137999999V0201401N002012200019N0130001N1+00721+00601100981ADDGF102991021061004501001001MD1210111+9999REMSYN064    AAXX  14151 57902 42463 21402 10072 20060 40098 52011 82600;
0196579020999992000011418004+25430+105180FM-12+137999999V0200401N001010120019N0120001N1+00641+00561100941ADDAA199000091GF105991051051012501001001KA1999M+01511MA1999999085631MD1410001-0101REMSYN086    AAXX  14181 57902 32662 50401 10064 20056 38563 40094 54000 85500 333 05152 10151;EQDQ01  00002PRCP99
0126579020999992000011421004+25430+105180FM-12+137999999V0201801N001010042019N0120001N1+00581+00561101031ADDGF108991081051004501999999MD1710021+0001REMSYN074    AAXX  14211 57902 42462 81801 10058 20056 40103 57002 885// 333 00052;
0195579020999992000011500004+25430+105180FM-12+137999999V0200901N001010042019N0150001N1+00611+00481101341ADDAA199000091GF108991081051004501999999IA2999+00209MA1999999085821MD1210211+0101REMSYN086    AAXX  15001 57902 32465 80901 10061 20048 38582 40134 52021 885// 333 00152 30021;EQDQ01  00002PRCP99
0116579020999992000011503004+25430+105180FM-12+137999999V0200401N002010075019N0180001N1+00911+00501101461ADDGF105991051051008001001001MD1210161+9999REMSYN064    AAXX  15031 57902 42568 50402 10091 20050 40146 52016 85500;
0196579020999992000011506004+25430+105180FM-12+137999999V0200401N005012200019N0250001N1+01301+00731101011ADDAA199000091GF101991011011008001001001KA1999N+00541MA1999999085671MD1710311+0301REMSYN086    AAXX  15061 57902 32575 10405 10130 20073 38567 40101 57031 81100 333 00351 20054;EQDQ01  00002PRCP99
0126579020999992000011509004+25430+105180FM-12+137999999V0200401N004010075019N0200001N1+00941+00621101111ADDGF107991071051008001999999MD1710021+0041REMSYN074    AAXX  15091 57902 42570 70404 10094 20062 40111 57002 875// 333 00451;
0177579020999992000011512004+25430+105180FM-12+137999999V0200401N003010075019N0110001N1+00791+00571101421ADDAA199000091GF108991081061008001999999MA1999999085891MD1210241+0041REMSYN080    AAXX  15121 57902 32561 80403 10079 20057 38589 40142 52024 886// 333 00400;EQDQ01  00002PRCP99
0136579020999992000011515004+25430+105180FM-12+137999999V0200901N002010042019N0080001N1+00711+00611101621ADDAY161031GF108991081071004501999999MD1210221+9999MW1601REMSYN070    AAXX  15151 57902 41458 80902 10071 20061 40162 52022 76060 887//;
0203579020999992000011518004+25430+105180FM-12+137999999V0200901N002010042019N0120001N1+00681+00621101521ADDAA106000791AY161061GF108991081071004501999999KA1999M+01321MA1999999086121MD1210011+0501MW1601REMSYN098    AAXX  15181 57902 11462 80902 10068 20062 38612 40152 52001 69901 76060 887// 333 00500 10132;
0171579020999992000011521004+25430+105180FM-12+137999999V0200401N002010042019N0080001N1+00631+00611101601ADDAA124000791AY161031AY261031GF108991081071004501999999MD1710041+0501MW1601REMSYN086    AAXX  15211 57902 41458 80402 10063 20061 40160 57004 76066 887// 333 00501 79999;
0198579020999992000011600004+25430+105180FM-12+137999999V0200901N004010042019N0030001N1+00631+00611101731ADDAA106000191AY161061AY261061GF108991081071004501999999MA1999999086151MD1210071+0301MW1601REMSYN098    AAXX  16001 57902 11430 80904 10063 20061 38615 40173 52007 69911 76066 887// 333 00300 70001;
0144579020999992000011603004+25430+105180FM-12+137999999V0200401N002010042019N0040001N1+00651+00631101971ADDAY161031AY241031GF108991081071004501999999MD1210191+9999MW1601REMSYN070    AAXX  16031 57902 41440 80402 10065 20063 40197 52019 76064 887//;
0211579020999992000011606004+25430+105180FM-12+137999999V0200401N004010042019N0070001N1+00781+00601101571ADDAA106000791AY161061AY241061GF108991081061004501999999KA1999N+00591MA1999999086031MD1710311+0401MW1101REMSYN098    AAXX  16061 57902 11457 80404 10078 20060 38603 40157 57031 69901 71064 886// 333 00455 20059;
0138579020999992000011609004+25430+105180FM-12+137999999V0200401N004010042019N0050001N1+00581+00431101551ADDGF108991081061004501999999MD1710081+0031MW1101REMSYN080    AAXX  16091 57902 41450 80404 10058 20043 40155 57008 71000 886// 333 00354;
0174579020999992000011612004+25430+105180FM-12+137999999V0200901N003010042019N0020001N1+00421+00381101931ADDAA106000191AY161061GF108991081071004501999999MA1999999086231MD1210281+9999MW1601REMSYN082    AAXX  16121 57902 11420 80903 10042 20038 38623 40193 52028 69921 76060 887//;
0144579020999992000011615004+25430+105180FM-12+137999999V0200401N003010042019N0020001N1+00361+00341102231ADDAY161031AY261031GF108991081071004501999999MD1210241+9999MW1601REMSYN070    AAXX  16151 57902 41420 80403 10036 20034 40223 52024 76066 887//;
0211579020999992000011618004+25430+105180FM-12+137999999V0200901N002010042019N0050001N1+00291+00221102271ADDAA106000591AY161061AY261061GF108991081071004501999999KA1999M+00811MA1999999086521MD1210051+0401MW1601REMSYN098    AAXX  16181 57902 11450 80902 10029 20022 38652 40227 52005 69951 76066 887// 333 00454 10081;
0171579020999992000011621004+25430+105180FM-12+137999999V0200401N003010042019N0060001N1+00221+00151102331ADDAA124001091AY161031AY261031GF108991081071004501999999MD1710021+0401MW1601REMSYN086    AAXX  16211 57902 41456 80403 10022 20015 40233 57002 76066 887// 333 00454 70009;
0216579020999992000011700004+25430+105180FM-12+137999999V0200901N002010042019N0060001N1+00151+00081102531ADDAA106000191AY161061AY261061GF108991081071004501999999IA2999+00169MA1999999086611MD1210111+0501MW1601REMSYN104    AAXX  17001 57902 11456 80902 10015 20008 38661 40253 52011 69921 76066 887// 333 00555 30016 70009;
0144579020999992000011703004+25430+105180FM-12+137999999V0200401N002010042019N0080001N1+00221+00151102701ADDAY161031AY261031GF108991081071004501999999MD1210151+9999MW1601REMSYN070    AAXX  17031 57902 41458 80402 10022 20015 40270 52015 76066 887//;
0203579020999992000011706004+25430+105180FM-12+137999999V0200401N003010042019N0180001N1+00311+00041102361ADDAA106000191AY161061GF108991081061004501999999KA1999N+00131MA1999999086481MD1710281+0501MW1001REMSYN098    AAXX  17061 57902 11468 80403 10031 20004 38648 40236 57028 69911 70060 886// 333 00555 20013;
0126579020999992000011709004+25430+105180FM-12+137999999V0200401N003010042019N0200001N1+00291+00021102251ADDGF108991081061004501999999MD1710121+0041REMSYN074    AAXX  17091 57902 42470 80403 10029 20002 40225 57012 886// 333 00453;
0176579020999992000011712004+25430+105180FM-12+137999999V0200401N003010042019N0180001N1+00231+00061102551ADDAA106000791GF108991081071004501999999MA1999999086581MD1210221+0041MW1601REMSYN092    AAXX  17121 57902 11468 80403 10023 20006 38658 40255 52022 69901 76000 887// 333 00452;
0144579020999992000011715004+25430+105180FM-12+137999999V0200401N002010042019N0120001N1+00171+00101102821ADDAY161031AY261031GF108991081071004501999999MD1210231+9999MW1601REMSYN070    AAXX  17151 57902 41462 80402 10017 20010 40282 52023 76066 887//;
0211579020999992000011718004+25430+105180FM-12+137999999V0200901N002010042019N0100001N1+00191+00041102771ADDAA106000791AY161061AY261061GF108991081071004501999999KA1999M+00351MA1999999086801MD1710011+0301MW1601REMSYN098    AAXX  17181 57902 11460 80902 10019 20004 38680 40277 57001 69901 76066 887// 333 00351 10035;
0163579020999992000011721004+25430+105180FM-12+137999999V0200401N002010042019N0160001N1+00231+00011102701ADDAA124000391AY161031GF108991081051004501999999MD1710061+0201MW1001REMSYN086    AAXX  17211 57902 41466 80402 10023 20001 40270 57006 70060 885// 333 00200 70002;
0208579020999992000011800004+25430+105180FM-12+137999999V0200401N001010042019N0200001N1+00241-00011102901ADDAA106000791AY161061GF108991081061004501999999IA2999+00159MA1999999086901MD1210161+0301MW1001REMSYN104    AAXX  18001 57902 11470 80401 10024 21001 38690 40290 52016 69901 70060 886// 333 00301 30015 70001;
0116579020999992000011803004+25430+105180FM-12+137999999V0209999C000010075019N0280001N1+00351+00011103091ADDGF108991081051008001999999MD1210171+9999REMSYN064    AAXX  18031 57902 42578 80000 10035 20001 40309 52017 885//;
0177579020999992000011806004+25430+105180FM-12+137999999V0200901N001010075019N0300001N1+00551-00031102681ADDAA199000021GF108991071051008001021999KA1999N+00151MA1999999086781MD1710291+0301REMSYN086    AAXX  18061 57902 32580 80901 10055 21003 38678 40268 57029 8752/ 333 00302 20015;
0126579020999992000011809004+25430+105180FM-12+137999999V0200901N004010075019N0250001N1+00561-00051102531ADDGF108991061051008001021999MD1710111+0031REMSYN074    AAXX  18091 57902 42575 80904 10056 21005 40253 57011 8652/ 333 00303;
0177579020999992000011812004+25430+105180FM-12+137999999V0200401N003010075019N0150001N1+00421+00011102761ADDAA199000091GF108991081061008001999999MA1999999086831MD1210161+0031REMSYN080    AAXX  18121 57902 32565 80403 10042 20001 38683 40276 52016 886// 333 00302;EQDQ01  00002PRCP99
0203579020999992000011818004+25430+105180FM-12+137999999V0200401N003010042019N0100001N1+00211+00111102871ADDAA106000791AY161061GF108991081071004501999999KA1999M+00661MA1999999086951MD1410001+0201MW1601REMSYN098    AAXX  18181 57902 11460 80403 10021 20011 38695 40287 54000 69901 76060 887// 333 00200 10066;
0171579020999992000011821004+25430+105180FM-12+137999999V0200901N002010042019N0100001N1+00201+00051102781ADDAA124000791AY161031AY261031GF108991081071004501999999MD1710081+0101MW1601REMSYN086    AAXX  18211 57902 41460 80902 10020 20005 40278 57008 76066 887// 333 00100 79999;
0208579020999992000011900004+25430+105180FM-12+137999999V0200901N002010042019N0120001N1+00231-00051102861ADDAA106000791AY161061GF108991081061004501999999IA2999+00159MA1999999086911MD1210041+9999MW1001REMSYN104    AAXX  19001 57902 11462 80902 10023 21005 38691 40286 52004 69901 70060 886// 333 0/000 30015 79999;
0116579020999992000011903004+25430+105180FM-12+137999999V0200401N002010042019N0150001N1+00311-00041103021ADDGF108991081061004501999999MD1210141+9999REMSYN064    AAXX  19031 57902 42465 80402 10031 21004 40302 52014 886//;
0177579020999992000011906004+25430+105180FM-12+137999999V0201801N002010042019N0160001N1+00451-00011102581ADDAA199000021GF108991081051004501999999KA1999N+00181MA1999999086681MD1710371-0101REMSYN086    AAXX  19061 57902 32466 81802 10045 21001 38668 40258 57037 885// 333 05151 20018;
0126579020999992000011909004+25430+105180FM-12+137999999V0200901N004010120019N0150001N1+00581+00311102241ADDGF108991081051012501999999MD1710261+0031REMSYN074    AAXX  19091 57902 42665 80904 10058 20031 40224 57026 885// 333 05300;
0177579020999992000011912004+25430+105180FM-12+137999999V0200901N004010075019N0130001N1+00441+00061102431ADDAA199000091GF108991081051008001999999MA1999999086551MD1210131+0031REMSYN080    AAXX  19121 57902 32563 80904 10044 20006 38655 40243 52013 885// 333 05300;EQDQ01  00002PRCP99
0112579020999992000011915004+25430+105180FM-12+137999999V0200901N002010042019N0120001N1+00401+00121102531ADDGF108991081051004501999999MD1210101+9999REMSYN060AAXX  19151 57902 42462 80902 10040 20012 40253 52010 885//;
0192579020999992000011918004+25430+105180FM-12+137999999V0201401N004010075019N0120001N1+00401+00141102421ADDAA199000091GF108991081051008001999999KA1999M+00621MA1999999086591MD1710061-0401REMSYN082AAXX  19181 57902 32562 81404 10040 20014 38659 40242 57006 885// 333 05402 10062;EQDQ01  00002PRCP99
0151579020999992000011921004+25430+105180FM-12+137999999V0201401N003010042019N0120001N1+00341+00221102231ADDAA124000791GF108991081071004501999999MD1710141-0401MW1601REMSYN082AAXX  19211 57902 41462 81403 10034 20022 40223 57014 76000 887// 333 05401 79999;
0204579020999992000012000004+25430+105180FM-12+137999999V0200901N002010042019N0090001N1+00281+00211102351ADDAA106000791AY161061GF108991081071004501999999IA2999+00229MA1999999086501MD1210051-0401MW1601REMSYN100AAXX  20001 57902 11459 80902 10028 20021 38650 40235 52005 69901 76060 887// 333 05401 30022 79999;
0140579020999992000012003004+25430+105180FM-12+137999999V0200901N003010042019N0120001N1+00301+00181102551ADDAY161031AY261031GF108991081071004501999999MD1210161+9999MW1601REMSYN066AAXX  20031 57902 41462 80903 10030 20018 40255 52016 76066 887//;
0207579020999992000012006004+25430+105180FM-12+137999999V0201401N004010042019N0110001N1+00321+00201102271ADDAA106000791AY161061AY261061GF108991081071004501999999KA1999N+00251MA1999999086431MD1710231-0301MW1601REMSYN094AAXX  20061 57902 11461 81404 10032 20020 38643 40227 57023 69901 76066 887// 333 05351 20025;
0150579020999992000012009004+25430+105180FM-12+137999999V0201401N004010042019N0110001N1+00341+00221102101ADDAY161031AY261031GF108991081071004501999999MD1710151+0011MW1601REMSYN076AAXX  20091 57902 41461 81404 10034 20022 40210 57015 76066 887// 333 05152;
0188579020999992000012012004+25430+105180FM-12+137999999V0201101N003010042019N0080001N1+00321+00181102251ADDAA106000791AY161061AY261061GF108991081071004501999999MA1999999086381MD1210101+0021MW1211REMSYN088AAXX  20121 57902 11458 81103 10032 20018 38638 40225 52010 69901 72166 887// 333 05251;
0132579020999992000012015004+25430+105180FM-12+137999999V0200901N003010042019N0070001N1+00291+00221102391ADDAY161031GF108991081071004501999999MD1210121+9999MW1601REMSYN066AAXX  20151 57902 41457 80903 10029 20022 40239 52012 76060 887//;
0199579020999992000012018004+25430+105180FM-12+137999999V0201401N002010042019N0080001N1+00301+00211102311ADDAA106000791AY161061GF108991081071004501999999KA1999M+00401MA1999999086441MD1710061-0201MW1601REMSYN094AAXX  20181 57902 11458 81402 10030 20021 38644 40231 57006 69901 76060 887// 333 05251 10040;
0167579020999992000012021004+25430+105180FM-12+137999999V0200901N003010042019N0070001N1+00281+00211102301ADDAA124000791AY161031AY261031GF108991081071004501999999MD1710011+0001MW1601REMSYN082AAXX  20211 57902 41457 80903 10028 20021 40230 57001 76066 887// 333 00051 79999;
0204579020999992000012100004+25430+105180FM-12+137999999V0201801N003010042019N0130001N1+00461+00331102371ADDAA106000791AY161061GF108991081051004501999999IA2999+00249MA1999999086531MD1210101+0001MW1001REMSYN100AAXX  21001 57902 11463 81803 10046 20033 38653 40237 52010 69901 70060 885// 333 00002 30024 79999;
0112579020999992000012103004+25430+105180FM-12+137999999V0201401N005010042019N0150001N1+00611+00441102471ADDGF108991081051004501999999MD1210121+9999REMSYN060AAXX  21031 57902 42465 81405 10061 20044 40247 52012 885//;
0173579020999992000012106004+25430+105180FM-12+137999999V0201801N007010075019N0150001N1+00941+00601102021ADDAA199000021GF107991071051008001999999KA1999N+00261MA1999999086351MD1710301-0101REMSYN082AAXX  21061 57902 32565 71807 10094 20060 38635 40202 57030 875// 333 05106 20026;
0122579020999992000012109004+25430+105180FM-12+137999999V0201401N007012200019N0180001N1+01271+00691101671ADDGF103991031011008001041001MD1710211+0011REMSYN070AAXX  21091 57902 42568 31407 10127 20069 40167 57021 83140 333 05109;
0173579020999992000012112004+25430+105180FM-12+137999999V0200901N004012200019N0180001N1+00951+00611101861ADDAA199000091GF102991021011008001001001MA1999999086261MD1210121+0011REMSYN076AAXX  21121 57902 32568 20904 10095 20061 38626 40186 52012 82100 333 05106;EQDQ01  00002PRCP99
0112579020999992000012115004+25430+105180FM-12+137999999V0200901N003012200019N0200001N1+00731+00611102011ADDGF101991011011008001001001MD1210111+9999REMSYN060AAXX  21151 57902 42570 10903 10073 20061 40201 52011 81100;
0192579020999992000012118004+25430+105180FM-12+137999999V0200401N002012200019N0180001N1+00691+00611101931ADDAA199000091GF101991011011008001001001KA1999M+01311MA1999999086381MD1210011-0101REMSYN082AAXX  21181 57902 32568 10402 10069 20061 38638 40193 52001 81100 333 05104 10131;EQDQ01  00002PRCP99
0139579020999992000012121004+25430+105180FM-12+137999999V0200901N002012200019N0220001N1+00651+00591101751ADDAA124000791GF101991011011008001001001MD1710081-0101REMSYN076AAXX  21211 57902 42572 10902 10065 20059 40175 57008 81100 333 05104 79999;
0191579020999992000012200004+25430+105180FM-12+137999999V0200401N003010042019N0180001N1+00651+00591101991ADDAA199000091GF106991061041004501001001IA2999+00109MA1999999086421MD1210121-0101REMSYN082AAXX  22001 57902 32468 60403 10065 20059 38642 40199 52012 86400 333 05102 30011;EQDQ01  00002PRCP99
0112579020999992000012203004+25430+105180FM-12+137999999V0201801N005010075019N0180001N1+01181+00781102081ADDGF106991061041008001001001MD1210151+9999REMSYN060AAXX  22031 57902 42568 61805 10118 20078 40208 52015 86400;
0192579020999992000012206004+25430+105180FM-12+137999999V0201801N006010120019N0180001N1+01431+00801101611ADDAA199000091GF107991071081008001041001KA1999N+00601MA1999999086231MD1710341-0101REMSYN082AAXX  22061 57902 32568 71806 10143 20080 38623 40161 57034 87840 333 05105 20060;EQDQ01  00002PRCP99
0122579020999992000012209004+25430+105180FM-12+137999999V0201801N005010075019N0200001N1+01271+00801101531ADDGF108991081061008001999999MD1710121+0001REMSYN070AAXX  22091 57902 42570 81805 10127 20080 40153 57012 886// 333 00000;
0173579020999992000012212004+25430+105180FM-12+137999999V0202001N006012200019N0150001N1+01151+00831101651ADDAA199000091GF104991041051008001001001MA1999999086181MD1210071+0011REMSYN076AAXX  22121 57902 32565 42006 10115 20083 38618 40165 52007 84500 333 05102;EQDQ01  00002PRCP99
0132579020999992000012215004+25430+105180FM-12+137999999V0201801N005012200019N0150001N1+01111+00851101641ADDAY161031GF102991021051008001001001MD1210111+9999MW1001REMSYN066AAXX  22151 57902 41565 21805 10111 20085 40164 52011 70060 82500;
0199579020999992000012218004+25430+105180FM-12+137999999V0202201N005010360019N0150001N1+01101+00841101541ADDAA106000191AY161061GF106991021051012501041001KA1999M+01551MA1999999086271MD1710021-0101MW1001REMSYN094AAXX  22181 57902 11665 62205 10110 20084 38627 40154 57002 69921 70060 82540 333 05104 10155;
0139579020999992000012221004+25430+105180FM-12+137999999V0201801N004010075019N0150001N1+01041+00811101501ADDAA124000391GF107991071051008001999999MD1710091-0101REMSYN076AAXX  22211 57902 42565 71804 10104 20081 40150 57009 875// 333 05104 70002;
0160579020999992000012300004+25430+105180FM-12+137999999V0201101N003010075019N0220001N1+01041+00831101681ADDAA124000391GF108991081061008001999999MA1999999086301MD1210121-0101REMSYN082AAXX  23001 57902 32572 81103 10104 20083 38630 40168 52012 886// 333 05104 70002;
0112579020999992000012303004+25430+105180FM-12+137999999V0201801N006012200019N0280001N1+01371+00871101691ADDGF104991041011008001001001MD1210081+9999REMSYN060AAXX  23031 57902 42578 41806 10137 20087 40169 52008 84100;
0183579020999992000012312004+25430+105180FM-12+137999999V0200901N004012200019N0300001N1+01511+00971101361ADDAA199000091GA1001+999999999GF100991001001999999001001MA1999999086121MD1210161+0011REMSYN070AAXX  23121 57902 32980 00904 10151 20097 38612 40136 52016 333 05104;EQDQ01  00002PRCP99
0122579020999992000012315004+25430+105180FM-12+137999999V0200401N001012200019N0280001N1+01281+00931101501ADDGA1001+999999999GF100991001001999999001001MD1210141+9999REMSYN054AAXX  23151 57902 42978 00401 10128 20093 40150 52014;
0192579020999992000012318004+25430+105180FM-12+137999999V0200401N002012200019N0300001N1+01111+00871101441ADDAA199000091GF102991021001999999041001KA1999M+01931MA1999999086271MD1210011+0001REMSYN082AAXX  23181 57902 32980 20402 10111 20087 38627 40144 52001 82040 333 00000 10193;EQDQ01  00002PRCP99
0122579020999992000012321004+25430+105180FM-12+137999999V0209999C000010360019N0300001N1+01021+00891101451ADDGF107991011061008001041001MD1210011+0011REMSYN070AAXX  23211 57902 42580 70000 10102 20089 40145 52001 81640 333 00100;
0191579020999992000012400004+25430+105180FM-12+137999999V0200901N002010075019N0150001N1+00911+00831101801ADDAA199000091GF108991081051008001999999IA2999+00209MA1999999086461MD1210181+0201REMSYN082AAXX  24001 57902 32565 80902 10091 20083 38646 40180 52018 885// 333 00251 30021;EQDQ01  00002PRCP99
0124579020999992000012403004+25430+105180FM-12+137999999V0200401N004010075019N0080001N1+00781+00661102281ADDGF108991081071008001999999MD1210321+9999MW1601REMSYN066AAXX  24031 57902 41558 80404 10078 20066 40228 52032 76000 887//;
0171579020999992000012406004+25430+105180FM-12+137999999V0200401N004019999999N0050001N1+00611+00481102291ADDAA106000791GF108991999999008001999999MA1999999086701MD1710081+0701REMSYN093AAXX  24061 57902 11550 80404 10061 20048 38670 40229 57008 69901 7660 887// 333 00762 20060;
0142579020999992000012409004+25430+105180FM-12+137999999V0200401N003010042019N0120001N1+00511+00311102411ADDAY161031GF108991081051004501999999MD1210061+0081MW1001REMSYN076AAXX  24091 57902 41462 80403 10051 20031 40241 52006 70060 885// 333 00864;
0180579020999992000012412004+25430+105180FM-12+137999999V0200401N003010075019N0150001N1+00481+00181102711ADDAA106000791AY161061GF108991081051008001999999MA1999999086981MD1210221+0091MW1001REMSYN088AAXX  24121 57902 11565 80403 10048 20018 38698 40271 52022 69901 70060 885// 333 00960;
0132579020999992000012415004+25430+105180FM-12+137999999V0200401N003010042019N0120001N1+00381+00221102981ADDAY161031GF108991081071004501999999MD1210171+9999MW1601REMSYN066AAXX  24151 57902 41462 80403 10038 20022 40298 52017 76060 887//;
0199579020999992000012418004+25430+105180FM-12+137999999V0200401N003010042019N0200001N1+00361+00151103141ADDAA106000791AY161061GF108991081071004501999999KA1999M+01161MA1999999087231MD1210081+1001MW1601REMSYN094AAXX  24181 57902 11470 80403 10036 20015 38723 40314 52008 69901 76060 887// 333 01058 10116;
0167579020999992000012421004+25430+105180FM-12+137999999V0200201N001010042019N0100001N1+00301+00181103041ADDAA124000791AY161031AY261031GF108991081071004501999999MD1710121+0801MW1601REMSYN082AAXX  24211 57902 41460 80201 10030 20018 40304 57012 76066 887// 333 00857 79999;
0212579020999992000012500004+25430+105180FM-12+137999999V0200401N002010042019N0120001N1+00271+00101103161ADDAA106000791AY171061AY261061GF108991081071004501999999IA2999+00219MA1999999087191MD1210081+0701MW1601REMSYN100AAXX  25001 57902 11462 80402 10027 20010 38719 40316 52008 69901 76076 887// 333 00756 30021 79999;
0132579020999992000012503004+25430+105180FM-12+137999999V0200401N003010042019N0200001N1+00331+00061103371ADDAY161031GF108991081061004501999999MD1210171+9999MW1001REMSYN066AAXX  25031 57902 41470 80403 10033 20006 40337 52017 70060 886//;
0199579020999992000012506004+25430+105180FM-12+137999999V0200901N002010042019N0260001N1+00501+00051102951ADDAA106000791AY161061GF108991081061004501999999KA1999N+00251MA1999999087041MD1710321+0301MW1001REMSYN094AAXX  25061 57902 11476 80902 10050 20005 38704 40295 57032 69901 70060 886// 333 00351 20025;
0122579020999992000012509004+25430+105180FM-12+137999999V0200401N003010075019N0250001N1+00511+00081102831ADDGF108991081051008001999999MD1710111+0021REMSYN070AAXX  25091 57902 42575 80403 10051 20008 40283 57011 885// 333 00200;
0172579020999992000012512004+25430+105180FM-12+137999999V0200401N003010075019N0200001N1+00421+00091103021ADDAA106000791GF108991081051008001999999MA1999999087061MD1210131+0011MW1211REMSYN088AAXX  25121 57902 11570 80403 10042 20009 38706 40302 52013 69901 72100 885// 333 00151;
0132579020999992000012515004+25430+105180FM-12+137999999V0200401N003010042019N0120001N1+00321+00101103251ADDAY161031GF108991081051004501999999MD1210181+9999MW1211REMSYN066AAXX  25151 57902 41462 80403 10032 20010 40325 52018 72160 885//;
0199579020999992000012518004+25430+105180FM-12+137999999V0200401N002010075019N0120001N1+00241+00021103261ADDAA106000591AY161061GF108991081051008001999999KA1999M+00581MA1999999087271MD1210031+0001MW1001REMSYN094AAXX  25181 57902 11562 80402 10024 20002 38727 40326 52003 69951 70060 885// 333 00051 10058;
0167579020999992000012521004+25430+105180FM-12+137999999V0200901N002010042019N0100001N1+00071-00011103331ADDAA124000591AY171031AY261031GF108991081071004501999999MD1210021+0201MW1701REMSYN082AAXX  25211 57902 41460 80902 10007 21001 40333 52002 77076 887// 333 00252 70006;
0212579020999992000012600004+25430+105180FM-12+137999999V0200901N003010042019N0150001N1+00121-00061103471ADDAA106000591AY171061AY261061GF108991081061004501999999IA2999-00079MA1999999087401MD1210111+0201MW1001REMSYN100AAXX  26001 57902 11465 80903 10012 21006 38740 40347 52011 69951 70076 886// 333 00252 31007 70010;
0112579020999992000012603004+25430+105180FM-12+137999999V0200401N002010075019N0150001N1+00241-00091103661ADDGF108991081061008001999999MD1210161+9999REMSYN060AAXX  26031 57902 42565 80402 10024 21009 40366 52016 886//;
0173579020999992000012606004+25430+105180FM-12+137999999V0203601N002010120019N0300001N1+00481-00061103271ADDAA199000021GF108991081081008001999999KA1999N+00041MA1999999087281MD1710281+0201REMSYN082AAXX  26061 57902 32580 83602 10048 21006 38728 40327 57028 888// 333 00200 20004;
0122579020999992000012609004+25430+105180FM-12+137999999V0200401N002010120019N0280001N1+00541+00011103091ADDGF107991071081008001999999MD1710181+0021REMSYN070AAXX  26091 57902 42578 70402 10054 20001 40309 57018 878// 333 00200;
0173579020999992000012612004+25430+105180FM-12+137999999V0200901N003010075019N0200001N1+00431-00071103231ADDAA199000091GF108991081051008001999999MA1999999087201MD1210101+0011REMSYN076AAXX  26121 57902 32570 80903 10043 21007 38720 40323 52010 885// 333 00100;EQDQ01  00002PRCP99
0112579020999992000012615004+25430+105180FM-12+137999999V0200901N004010075019N0200001N1+00341-00031103331ADDGF108991081061008001999999MD1210091+9999REMSYN060AAXX  26151 57902 42570 80904 10034 21003 40333 52009 886//;
0192579020999992000012618004+25430+105180FM-12+137999999V0200901N003010075019N0150001N1+00221-00111103231ADDAA199000091GF108991081061008001999999KA1999M+00571MA1999999087241MD1710051+0001REMSYN082AAXX  26181 57902 32565 80903 10022 21011 38724 40323 57005 886// 333 00000 10057;EQDQ01  00002PRCP99
0139579020999992000012621004+25430+105180FM-12+137999999V0200901N003010075019N0150001N1+00141-00151103141ADDAA124000591GF108991081061008001999999MD1710081-0101REMSYN076AAXX  26211 57902 42565 80903 10014 21015 40314 57008 886// 333 05101 70004;
0191579020999992000012700004+25430+105180FM-12+137999999V0200401N002010120019N0150001N1+00111-00181103311ADDAA199000091GF108991081051012501999999IA2999+00009MA1999999087261MD1210101-0101REMSYN082AAXX  27001 57902 32665 80402 10011 21018 38726 40331 52010 885// 333 05100 30005;EQDQ01  00002PRCP99
0112579020999992000012703004+25430+105180FM-12+137999999V0200901N003010120019N0150001N1+00131-00131103391ADDGF108991081051012501999999MD1210051+9999REMSYN060AAXX  27031 57902 42665 80903 10013 21013 40339 52005 885//;
0192579020999992000012705004+25430+105180FM-12+137999999V0200401N003010120019N0150001N1+00251-00111102931ADDAA199000091GF108991081051012501999999KA1999N+00091MA1999999086921MD1710391-0401REMSYN082AAXX  27051 57902 32665 80403 10025 21011 38692 40293 57039 885// 333 05452 20009;EQDQ01  00002PRCP99
0192579020999992000012706004+25430+105180FM-12+137999999V0200401N003010120019N0150001N1+00251-00111102931ADDAA199000091GF108991081051012501999999KA1999N+00091MA1999999086921MD1710391-0401REMSYN082AAXX  27061 57902 32665 80403 10025 21011 38692 40293 57039 885// 333 05452 20009;EQDQ01  00002PRCP99
0122579020999992000012709004+25430+105180FM-12+137999999V0200901N004010075019N0120001N1+00341-00031102641ADDGF108991081051008001999999MD1710241+0041REMSYN070AAXX  27091 57902 42562 80904 10034 21003 40264 57024 885// 333 05452;
0173579020999992000012712004+25430+105180FM-12+137999999V0200901N005010075019N0100001N1+00201-00111102741ADDAA199000091GF108991081051008001999999MA1999999086721MD1210041+0051REMSYN076AAXX  27121 57902 32560 80905 10020 21011 38672 40274 52004 885// 333 05552;EQDQ01  00002PRCP99
0112579020999992000012715004+25430+105180FM-12+137999999V0200901N003010075019N0100001N1+00131-00251102871ADDGF108991081051008001999999MD1210101+9999REMSYN060AAXX  27151 57902 42560 80903 10013 21025 40287 52010 885//;
0199579020999992000012718004+25430+105180FM-12+137999999V0200901N003010042019N0120001N1+00061-00181102801ADDAA106000791AY161061GF108991081051004501999999KA1999M+00361MA1999999086771MD1710051-0501MW1001REMSYN094AAXX  27181 57902 11462 80903 10006 21018 38677 40280 57005 69901 70060 885// 333 05552 10036;
0159579020999992000012721004+25430+105180FM-12+137999999V0200401N002010042019N0070001N1+99999+99999102741ADDAA124000791AY161031GF108991081071004501999999MD1710051-0401MW1601REMSYN082AAXX  27211 57902 42457 80402 11/05 21010 40274 57005 76060 887// 333 05452 79999;
0210579020999992000012800004+25430+105180FM-12+137999999V0200401N003010042019N0030001N1-00081-00081102871ADDAA106000191AY161061GF108991081071004501999999IA2999-00089MA1999999086781MD1210061-0501MW1661REMSYN106AAXX  28001 57902 11430 80403 11008 21008 38678 40287 52006 69911 76660 887// 333 05552 31008 70001 93406;
0140579020999992000012803004+25430+105180FM-12+137999999V0200401N003010042019N0020001N1-00091-00101103041ADDAY161031AY261031GF108991081071004501999999MD1210121+9999MW1661REMSYN066AAXX  28031 57902 41420 80403 11009 21010 40304 52012 76666 887//;
0213579020999992000012806004+25430+105180FM-12+137999999V0200901N004010042019N0040001N1-00011-00011102691ADDAA106000391AY161061AY261061GF108991081071004501999999KA1240N-00141MA1999999086611MD1710291-0301MW1661REMSYN100AAXX  28061 57902 11440 80904 11001 21001 38661 40269 57029 69931 76666 887// 333 05353 21014 93406;
0150579020999992000012809004+25430+105180FM-12+137999999V0200901N003010042019N0040001N1+00011-00021102541ADDAY161031AY261031GF108991081071004501999999MD1710151+0021MW1601REMSYN076AAXX  28091 57902 41440 80903 10001 21002 40254 57015 76066 887// 333 05253;
0140579020999992000012815004+25430+105180FM-12+137999999V0209999C000010042019N0030001N1-00021-00051103081ADDAY161031AY261031GF108991081071004501999999MD1210211+9999MW1601REMSYN066AAXX  28151 57902 41430 80000 11002 21005 40308 52021 76066 887//;
0213579020999992000012818004+25430+105180FM-12+137999999V0200901N001010042019N0050001N1-00021-00071103121ADDAA106000191AY161061AY261061GF108991081071004501999999KA1240M+00061MA1999999086951MD1210051+0201MW1661REMSYN100AAXX  28181 57902 11450 80901 11002 21007 38695 40312 52005 69921 76666 887// 333 00251 10006 93405;
0167579020999992000012821004+25430+105180FM-12+137999999V0200901N003010042019N0050001N1-00031-00081103161ADDAA124001091AY161031AY261031GF108991081071004501999999MD1210041+0301MW1661REMSYN082AAXX  28211 57902 41450 80903 11003 21008 40316 52004 76666 887// 333 00300 70009;
0218579020999992000012900004+25430+105180FM-12+137999999V0200901N002010042019N0050001N1-00031-00111103381ADDAA106000191AY161061AY261061GF108991081071004501999999IA2999-00049MA1999999087171MD1210181+0401MW1661REMSYN106AAXX  29001 57902 11450 80902 11003 21011 38717 40338 52018 69921 76666 887// 333 00401 31004 70009 93406;
0140579020999992000012903004+25430+105180FM-12+137999999V0200901N003010042019N0080001N1+00031-00071103621ADDAY161031AY261031GF108991081061004501999999MD1210211+9999MW1241REMSYN066AAXX  29031 57902 41458 80903 10003 21007 40362 52021 72466 886//;
0205579020999992000012906004+25430+105180FM-12+137999999V0200401N002010042019N0100001N1+00121-00061103411ADDAA106000591AY161061GF108991081061004501999999KA1240N-00051MA1999999087231MD1710151+0601MW1001REMSYN100AAXX  29061 57902 11460 80402 10012 21006 38723 40341 57015 69951 70060 886// 333 00601 21005 93406;
0122579020999992000012909004+25430+105180FM-12+137999999V0203601N002010042019N0150001N1+00191-00091103271ADDGF108991081061004501999999MD1710101+0071REMSYN070AAXX  29091 57902 42465 83602 10019 21009 40327 57010 886// 333 00702;
0154579020999992000012912004+25430+105180FM-12+137999999V0200401N002010042019N0120001N1+00151-00111103501ADDAA199000021GF108991081061004501999999MA1999999087311MD1210181+0061REMSYN076AAXX  29121 57902 32462 80402 10015 21011 38731 40350 52018 886// 333 00602;
0112579020999992000012915004+25430+105180FM-12+137999999V0200401N003010042019N0120001N1+00121-00171103691ADDGF108991081061004501999999MD1210171+9999REMSYN060AAXX  29151 57902 42462 80403 10012 21017 40369 52017 886//;
0192579020999992000012918004+25430+105180FM-12+137999999V0200401N003010042019N0140001N1+00061-00241103601ADDAA199000091GF108991081051004501999999KA1999M+00201MA1999999087411MD1710071+0501REMSYN082AAXX  29181 57902 32464 80403 10006 21024 38741 40360 57007 885// 333 00501 10020;EQDQ01  00002PRCP99
0159579020999992000012921004+25430+105180FM-12+137999999V0200401N003010042019N9999999N1-00051-00201103551ADDAA124000891AY171031GF108991081071004501999999MD1710051+0401MW1701REMSYN082AAXX  29211 57902 4145/ 80403 11005 21020 40355 57005 77070 887// 333 0040/ 70007;
0210579020999992000013000004+25430+105180FM-12+137999999V0200401N002010042019N0060001N1-00191-00261103731ADDAA106005191AY171061GF108991081071004501999999IA2999-00099MA1999999087461MD1210101+0301MW1701REMSYN106AAXX  30001 57902 11456 80402 11019 21026 38746 40373 52010 60051 77070 887// 333 00352 31009 70050 92502;
0140579020999992000013003004+25430+105180FM-12+137999999V0200401N002010042019N0070001N1-00211-00331103901ADDAY171031AY271031GF108991081071004501999999MD1210131+9999MW1701REMSYN066AAXX  30031 57902 41457 80402 11021 21033 40390 52013 77077 887//;
0207579020999992000013006004+25430+105180FM-12+137999999V0200701N003010042019N0090001N1-00171-00251103611ADDAA106003091AY171061AY271061GF108991081071004501999999KA1999N-00261MA1999999087341MD1710251+0101MW1701REMSYN094AAXX  30061 57902 11459 80703 11017 21025 38734 40361 57025 60031 77077 887// 333 00153 21026;
0150579020999992000013009004+25430+105180FM-12+137999999V0200401N002010042019N0030001N1-00241-00361103491ADDAY171031AY271031GF108991081071004501999999MD1710151+0011MW1701REMSYN076AAXX  30091 57902 41430 80402 11024 21036 40349 57015 77077 887// 333 00154;
0188579020999992000013012004+25430+105180FM-12+137999999V0200401N002010042019N0040001N1-00301-00371103781ADDAA106005191AY171061AY271061GF108991081071004501999999MA1999999087381MD1210191+0011MW1701REMSYN088AAXX  30121 57902 11440 80402 11030 21037 38738 40378 52019 60051 77077 887// 333 00155;
0140579020999992000013015004+25430+105180FM-12+137999999V0200401N003010042019N0050001N1-00301-00371103911ADDAY171031AY271031GF108991081071004501999999MD1210111+9999MW1701REMSYN066AAXX  30151 57902 41450 80403 11030 21037 40391 52011 77077 887//;
0207579020999992000013018004+25430+105180FM-12+137999999V0200401N002010042019N0090001N1-00391-00471103851ADDAA106003091AY171061AY271061GF108991081071004501999999KA1999M+00061MA1999999087421MD1710071+0001MW1701REMSYN094AAXX  30181 57902 11459 80402 11039 21047 38742 40385 57007 60031 77077 887// 333 00055 10006;
0167579020999992000013021004+25430+105180FM-12+137999999V0200401N002010042019N0090001N1-00361-00471103681ADDAA124015591AY171031AY271031GF108991081061004501999999MD1710151-0101MW1221REMSYN082AAXX  30211 57902 41459 80402 11036 21047 40368 57015 72277 886// 333 05153 70154;
0210579020999992000013100004+25430+105180FM-12+137999999V0200401N001010042019N0120001N1-00351-00561103781ADDAA106000191AY171061GF108991081051004501999999IA2999-00089MA1999999087341MD1210071-0101MW1001REMSYN106AAXX  31001 57902 11462 80401 11035 21056 38734 40378 52007 69911 70070 885// 333 05152 31008 70110 92510;
0151579020999992000013103004+25430+105180FM-12+137999999V0201101N001010042019N0120001N1-00231-00421103961ADDAY171031GF108991081071004501999999MD1012182+9999MW1701REMSYN066AAXX  31031 57902 41462 81101 11023 21042 40396 50218 77070 887//;EQDQ01+002182APC3  
0218579020999992000013106004+25430+105180FM-12+137999999V0202201N001019999999N0140001N1+00011-00511103671ADDAA106000391AY171061GF107991999071004501999999KA1999N-00411MA1999999087321MD1710201+0001MW1701REMSYN094AAXX  31061 57902 11464 72201 10001 21051 38732 40367 57020 69931 77070 887// 333 00002 21041;EQDQ01+000082SCOTLC
0122579020999992000013109004+25430+105180FM-12+137999999V0200901N001010075019N0150001N1+00031-00451103331ADDGF108991081061008001999999MD1710271+0011REMSYN070AAXX  31091 57902 42565 80901 10003 21045 40333 57027 886// 333 05103;
0154579020999992000013112004+25430+105180FM-12+137999999V0200901N002010075019N0130001N1-00051-00391103441ADDAA199000021GF108991081051008001999999MA1999999087121MD1210071+0031REMSYN076AAXX  31121 57902 32563 80902 11005 21039 38712 40344 52007 885// 333 05303;
0112579020999992000013115004+25430+105180FM-12+137999999V0200901N004010075019N0120001N1-00131-00331103461ADDGF108991081061008001999999MD1210031+9999REMSYN060AAXX  31151 57902 42562 80904 11013 21033 40346 52003 886//;
0173579020999992000013118004+25430+105180FM-12+137999999V0200901N003010042019N0120001N1-00171-00281103291ADDAA199000021GF108991081061004501999999KA1999M+00141MA1999999087061MD1710091-0401REMSYN082AAXX  31181 57902 32462 80903 11017 21028 38706 40329 57009 886// 333 05402 10014;
0139579020999992000013121004+25430+105180FM-12+137999999V0200901N004010042019N0120001N1-00211-00331103121ADDAA124000391GF108991081061004501999999MD1710151-0401REMSYN076AAXX  31211 57902 42462 80904 11021 21033 40312 57015 886// 333 05402 70003;
0202579020999992000020100004+25430+105180FM-12+137999999V0200901N003010021019N0020001N1-00221-00221103241ADDAA106000791GF108991081071002501999999IA2999-00199MA1999999086991MD1210081-0401MW1601REMSYN106AAXX  01001 57902 11320 80903 11022 21022 38699 40324 52008 69901 76000 887// 333 05401 31019 70003 92504;
0150579020999992000020103004+25430+105180FM-12+137999999V0200901N002010006019N0006001N1-00181-00201103421ADDAY161031AY241031GA1091+999999999GF109991091999999999999999MD1210141+9999MW1661REMSYN060AAXX  01031 57902 41/06 90902 11018 21020 40342 52014 76664;
0213579020999992000020106004+25430+105180FM-12+137999999V0200901N002010042019N0060001N1+00001+00001102931ADDAA106000791AY161061AY241061GF108991081061004501999999KA1240N-00261MA1999999086751MD1710381-0601MW1101REMSYN100AAXX  01061 57902 11456 80902 10000 20000 38675 40293 57038 69901 71064 886// 333 05600 21026 93404;
0134579020999992000020109004+25430+105180FM-12+137999999V0202201N003010042019N0090001N1+00141-00011102631ADDGF108991081061004501999999MD1710221+0051MW1101REMSYN076AAXX  01091 57902 41459 82203 10014 21001 40263 57022 71000 886// 333 05501;
0154579020999992000020112004+25430+105180FM-12+137999999V0200901N003010042019N0110001N1+00121+00021102621ADDAA199000021GF108991081061004501999999MA1999999086511MD1710021+0061REMSYN076AAXX  01121 57902 32461 80903 10012 20002 38651 40262 57002 886// 333 05602;
0112579020999992000020115004+25430+105180FM-12+137999999V0201801N004010042019N0120001N1+00201+00131102571ADDGF108991081061004501999999MD1710011+9999REMSYN060AAXX  01151 57902 42462 81804 10020 20013 40257 57001 886//;
0192579020999992000020118004+25430+105180FM-12+137999999V0201801N002010042019N0120001N1+00211+00141102401ADDAA199000091GF108991081061004501999999KA1999M+00231MA1999999086411MD1710091-0701REMSYN082AAXX  01181 57902 32462 81802 10021 20014 38641 40240 57009 886// 333 05704 10023;EQDQ01  00002PRCP99
0139579020999992000020121004+25430+105180FM-12+137999999V0209999C000010042019N0140001N1+00191+00171102271ADDAA124000791GF108991081061004501999999MD1710081-0601REMSYN076AAXX  01211 57902 42464 80000 10019 20017 40227 57008 886// 333 05604 79999;
0178579020999992000020200004+25430+105180FM-12+137999999V0200901N003010042019N0130001N1+00211+00161102391ADDAA124000791GF108991081051004501999999IA2999+00089MA1999999086431MD1210101-0601REMSYN088AAXX  02001 57902 32463 80903 10021 20016 38643 40239 52010 885// 333 05604 30008 79999;
0118579020999992000020203004+25430+105180FM-12+137999999V0200901N003010042019N0070001N1+00261+00241999999ADDGF108991081061004501999999MD1210211+9999MW1101REMSYN060AAXX  02031 57902 41457 80903 10026 20024 52021 71000 886//;
0204579020999992000020206004+25430+105180FM-12+137999999V0200901N003010042019N0080001N1+00361+00291102281ADDAA199000091GF108991081061004501999999KA1999N-00051MA1999999086401MD1710241-0401MW1101REMSYN088AAXX  02061 57902 31458 80903 10036 20029 38640 40228 57024 71000 886// 333 05404 21005;EQDQ01  00002PRCP99
0134579020999992000020209004+25430+105180FM-12+137999999V0200401N003010042019N0050001N1+00341+00291102101ADDGF108991081061004501999999MD1710161+0031MW1101REMSYN076AAXX  02091 57902 41450 80403 10034 20029 40210 57016 71000 886// 333 05302;
0193579020999992000020212004+25430+105180FM-12+137999999V0200401N002010042019N0008001N1+00261+00241102311ADDAA199000091AY141061GF108991081061004501999999MA1999999086401MD1210161+0011MW1441REMSYN082AAXX  02121 57902 31408 80402 10026 20024 38640 40231 52016 74440 886// 333 05101;EQDQ01  00002PRCP99
0140579020999992000020215004+25430+105180FM-12+137999999V0200401N002010042019N0004001N1+00241+00221102451ADDAY161031AY241031GF108991081071004501999999MD1210131+9999MW1601REMSYN066AAXX  02151 57902 41404 80402 10024 20022 40245 52013 76064 887//;
0207579020999992000020218004+25430+105180FM-12+137999999V0200901N002010042019N0005001N1+00231+00231102391ADDAA106000191AY161061AY241061GF108991081071004501999999KA1999M+00451MA1999999086501MD1710031+0101MW1601REMSYN094AAXX  02181 57902 11405 80902 10023 20023 38650 40239 57003 69911 76064 887// 333 00100 10045;
0167579020999992000020221004+25430+105180FM-12+137999999V0200901N002010042019N0030001N1+00191+00191102281ADDAA124000391AY161031AY241031GF108991081071004501999999MD1710111+0101MW1601REMSYN082AAXX  02211 57902 41430 80902 10019 20019 40228 57011 76064 887// 333 00100 70003;
0212579020999992000020300004+25430+105180FM-12+137999999V0200401N001010042019N0040001N1+00211+00191102381ADDAA106000591AY161061AY241061GF108991081071004501999999IA2999+00169MA1999999086461MD1210071+0001MW1601REMSYN100AAXX  03001 57902 11440 80401 10021 20019 38646 40238 52007 69941 76064 887// 333 00000 30016 70005;
0140579020999992000020303004+25430+105180FM-12+137999999V0201401N002010042019N0080001N1+00401+00401102411ADDAY161031AY261031GF108991081071004501999999MD1210071+9999MW1601REMSYN066AAXX  03031 57902 41458 81402 10040 20040 40241 52007 76066 887//;
0199579020999992000020306004+25430+105180FM-12+137999999V0201801N004010042019N0150001N1+00861+00601101821ADDAA106000191AY161061GF107991071051004501999999KA1999N+00141MA1999999086151MD1710381-0301MW1001REMSYN094AAXX  03061 57902 11465 71804 10086 20060 38615 40182 57038 69911 70060 875// 333 05305 20014;
0122579020999992000020309004+25430+105180FM-12+137999999V0200901N003012200019N0150001N1+00911+00671101551ADDGF101991011011008001011001MD1710231+0031REMSYN070AAXX  03091 57902 42565 10903 10091 20067 40155 57023 81110 333 05306;
0154579020999992000020312004+25430+105180FM-12+137999999V0200401N004010042019N0100001N1+00501+00461101901ADDAA199000021GF107991071061004501001001MA1999999086121MD1210201+0031REMSYN076AAXX  03121 57902 32460 70404 10050 20046 38612 40190 52020 87600 333 05302;
0124579020999992000020315004+25430+105180FM-12+137999999V0200401N002010021019N0010001N1+00401+00401102111ADDGF108991081071002501999999MD1210201+9999MW1601REMSYN066AAXX  03151 57902 41310 80402 10040 20040 40211 52020 76000 887//;
0217579020999992000020318004+25430+105180FM-12+137999999V0200401N002010006019N0008001N1+00351+00351102011ADDAA106000791AY161061AY241061GA1091+999999999GF109991091999999999999999KA1999M+01071MA1999999086341MD1210021-0201MW1521REMSYN088AAXX  03181 57902 11/08 90402 10035 20035 38634 40201 52002 69901 75264 333 05201 10107;
0167579020999992000020321004+25430+105180FM-12+137999999V0200401N003010042019N0060001N1+00271+00271101951ADDAA124000591AY151031AY241031GF108991081071004501999999MD1710061-0101MW1601REMSYN082AAXX  03211 57902 41456 80403 10027 20027 40195 57006 76054 887// 333 05101 70005;
0212579020999992000020400004+25430+105180FM-12+137999999V0200401N003010042019N0090001N1+00161+00161102291ADDAA106000591AY151061AY241061GF108991081071004501999999IA2999+00219MA1999999086431MD1210151+0001MW1601REMSYN100AAXX  04001 57902 11459 80403 10016 20016 38643 40229 52015 69941 76054 887// 333 00051 30021 70005;
0140579020999992000020403004+25430+105180FM-12+137999999V0200401N003010042019N0100001N1+00151+00131102551ADDAY161031AY261031GF108991081071004501999999MD1210191+9999MW1601REMSYN066AAXX  04031 57902 41460 80403 10015 20013 40255 52019 76066 887//;
0207579020999992000020406004+25430+105180FM-12+137999999V0200401N003010042019N0100001N1+00151+00131102241ADDAA106000391AY161061AY261061GF108991081071004501999999KA1999N+00121MA1999999086351MD1710271+0201MW1601REMSYN094AAXX  04061 57902 11460 80403 10015 20013 38635 40224 57027 69931 76066 887// 333 00257 20012;
0150579020999992000020409004+25430+105180FM-12+137999999V0200401N002010042019N0090001N1+00181+00131102101ADDAY161031AY261031GF108991081071004501999999MD1710131+0031MW1601REMSYN076AAXX  04091 57902 41459 80402 10018 20013 40210 57013 76066 887// 333 00357;
0188579020999992000020412004+25430+105180FM-12+137999999V0200401N002010042019N0070001N1+00121+00101102401ADDAA106000191AY161061AY261061GF108991081071004501999999MA1999999086431MD1210211+0031MW1601REMSYN088AAXX  04121 57902 11457 80402 10012 20010 38643 40240 52021 69911 76066 887// 333 00354;
0140579020999992000020415004+25430+105180FM-12+137999999V0200401N002010042019N0110001N1+00121+00101102631ADDAY161031AY261031GF108991081071004501999999MD1210191+9999MW1601REMSYN066AAXX  04151 57902 41461 80402 10012 20010 40263 52019 76066 887//;
0207579020999992000020418004+25430+105180FM-12+137999999V0200901N003010042019N0100001N1+00081+00061102731ADDAA106000591AY161061AY261061GF108991081071004501999999KA1999M+00361MA1999999086691MD1210071+0401MW1601REMSYN094AAXX  04181 57902 11460 80903 10008 20006 38669 40273 52007 69951 76066 887// 333 00453 10036;
0167579020999992000020421004+25430+105180FM-12+137999999V0200401N003010042019N0120001N1+00051+00021102731ADDAA124001391AY161031AY261031GF108991081071004501999999MD1410001+0401MW1601REMSYN082AAXX  04211 57902 41462 80403 10005 20002 40273 54000 76066 887// 333 00452 70013;
0212579020999992000020500004+25430+105180FM-12+137999999V0200401N002010042019N0080001N1+00061+00011102801ADDAA106000591AY161061AY261061GF108991081071004501999999IA2999+00069MA1999999086741MD1210051+0301MW1601REMSYN100AAXX  05001 57902 11458 80402 10006 20001 38674 40280 52005 69951 76066 887// 333 00351 30006 70014;
0140579020999992000020503004+25430+105180FM-12+137999999V0201101N001010042019N0090001N1+00141+00071102931ADDAY161031AY261031GF108991081061004501999999MD1210131+9999MW1211REMSYN066AAXX  05031 57902 41459 81101 10014 20007 40293 52013 72166 886//;
0199579020999992000020506004+25430+105180FM-12+137999999V0203601N002010042019N0090001N1+00241+00091102611ADDAA106000191AY161061GF108991081071004501999999KA1999N+00021MA1999999086611MD1710261+0301MW1601REMSYN094AAXX  05061 57902 11459 83602 10024 20009 38661 40261 57026 69911 76060 887// 333 00301 20002;
0142579020999992000020509004+25430+105180FM-12+137999999V0200401N002010042019N0120001N1+00291+00071102371ADDAY161031GF108991081061004501999999MD1710191+0021MW1001REMSYN076AAXX  05091 57902 41462 80402 10029 20007 40237 57019 70060 886// 333 00201;
0180579020999992000020512004+25430+105180FM-12+137999999V0200401N002010042019N0100001N1+00251+00181102541ADDAA106000791AY161061GF108991081071004501999999MA1999999086551MD1210131+0011MW1601REMSYN088AAXX  05121 57902 11460 80402 10025 20018 38655 40254 52013 69901 76060 887// 333 00101;
0207579020999992000020518004+25430+105180FM-12+137999999V0201401N001010042019N0050001N1+00191+00171102581ADDAA106000391AY161061AY261061GF108991081071004501999999KA1999M+00311MA1999999086621MD1710041-0101MW1601REMSYN094AAXX  05181 57902 11450 81401 10019 20017 38662 40258 57004 69931 76066 887// 333 05101 10031;
0167579020999992000020521004+25430+105180FM-12+137999999V0200401N002010042019N0050001N1+00201+00181102481ADDAA124001091AY161031AY261031GF108991081071004501999999MD1710071-0101MW1601REMSYN082AAXX  05211 57902 41450 80402 10020 20018 40248 57007 76066 887// 333 05102 70010;
0212579020999992000020600004+25430+105180FM-12+137999999V0200901N002010042019N0070001N1+00191+00171102561ADDAA106000591AY161061AY261061GF108991081071004501999999IA2999+00189MA1999999086601MD1210051-0101MW1601REMSYN100AAXX  06001 57902 11457 80902 10019 20017 38660 40256 52005 69951 76066 887// 333 05101 30018 70009;
0140579020999992000020603004+25430+105180FM-12+137999999V0200901N002010042019N0110001N1+00251+00201102571ADDAY161031AY261031GF108991081071004501999999MD1210021+9999MW1211REMSYN066AAXX  06031 57902 41461 80902 10025 20020 40257 52002 72166 887//;
0199579020999992000020606004+25430+105180FM-12+137999999V0200901N004010042019N0110001N1+00371+00181102101ADDAA106000191AY161061GF108991081061004501999999KA1999N+00161MA1999999086251MD1710371-0401MW1001REMSYN094AAXX  06061 57902 11461 80904 10037 20018 38625 40210 57037 69911 70060 886// 333 05401 20016;
0134579020999992000020609004+25430+105180FM-12+137999999V0200401N003010042019N0080001N1+00351+00281101971ADDGF108991081071004501999999MD1710121+0031MW1601REMSYN076AAXX  06091 57902 41458 80403 10035 20028 40197 57012 76000 887// 333 05301;
0180579020999992000020612004+25430+105180FM-12+137999999V0200401N002010042019N0050001N1+00291+00271102221ADDAA106000191AY161061GF108991081071004501999999MA1999999086331MD1210201+0021MW1601REMSYN088AAXX  06121 57902 11450 80402 10029 20027 38633 40222 52020 69921 76060 887// 333 05200;
0140579020999992000020615004+25430+105180FM-12+137999999V0209999C000010042019N0060001N1+00281+00261102391ADDAY161031AY261031GF108991081071004501999999MD1210151+9999MW1601REMSYN066AAXX  06151 57902 41456 80000 10028 20026 40239 52015 76066 887//;
0207579020999992000020618004+25430+105180FM-12+137999999V0203601N002010042019N0060001N1+00311+00261102461ADDAA106000191AY161061AY261061GF108991081071004501999999KA1999M+00391MA1999999086581MD1210101+0001MW1601REMSYN094AAXX  06181 57902 11456 83602 10031 20026 38658 40246 52010 69911 76066 887// 333 00001 10039;
0159579020999992000020621004+25430+105180FM-12+137999999V0200401N001010042019N0070001N1+00321+00201102411ADDAA124000591AY161031GF108991081061004501999999MD1710041+0001MW1101REMSYN082AAXX  06211 57902 41457 80401 10032 20020 40241 57004 71060 886// 333 00001 70006;
0204579020999992000020700004+25430+105180FM-12+137999999V0201801N001010042019N0080001N1+00281+00231102621ADDAA106001091AY161061GF108991081061004501999999IA2999+00139MA1999999086691MD1210151+0101MW1211REMSYN100AAXX  07001 57902 11458 81801 10028 20023 38669 40262 52015 60011 72160 886// 333 00101 30013 70018;
0132579020999992000020703004+25430+105180FM-12+137999999V0200401N001010042019N0110001N1+00301+00081102931ADDAY161031GF108991081071004501999999MD1210261+9999MW1601REMSYN066AAXX  07031 57902 41461 80401 10030 20008 40293 52026 76060 887//;
0207579020999992000020706004+25430+105180FM-12+137999999V0200401N004010042019N0160001N1+00501+00051102581ADDAA106001091AY171061AY261061GF108991081061004501999999KA1999N+00261MA1999999086721MD1710231+0501MW1001REMSYN094AAXX  07061 57902 11466 80404 10050 20005 38672 40258 57023 60011 70076 886// 333 00501 20026;
0122579020999992000020709004+25430+105180FM-12+137999999V0203601N003010075019N0150001N1+00511+00011102391ADDGF108991081051008001999999MD1710161+0041REMSYN070AAXX  07091 57902 42565 83603 10051 20001 40239 57016 885// 333 00402;
0154579020999992000020712004+25430+105180FM-12+137999999V0200401N002010075019N0150001N1+00431-00041102471ADDAA199000021GF108991081051008001999999MA1999999086601MD1210041+0031REMSYN076AAXX  07121 57902 32565 80402 10043 21004 38660 40247 52004 885// 333 00301;
0124579020999992000020715004+25430+105180FM-12+137999999V0200901N002010042019N0150001N1+00351-00021102511ADDGF106991061051004501001001MD1210021+9999MW1221REMSYN066AAXX  07151 57902 41465 60902 10035 21002 40251 52002 72200 86500;
0199579020999992000020718004+25430+105180FM-12+137999999V0209999C000010042019N0130001N1+00301+00111102361ADDAA106000791AY171061GF108991081071004501999999KA1999M+00581MA1999999086531MD1710091-0101MW1601REMSYN094AAXX  07181 57902 11463 80000 10030 20011 38653 40236 57009 69901 76070 887// 333 05100 10058;
0167579020999992000020721004+25430+105180FM-12+137999999V0209999C000010042019N0120001N1+00231+00111102181ADDAA124003391AY161031AY261031GF108991081071004501999999MD1710171-0201MW1601REMSYN082AAXX  07211 57902 41462 80000 10023 20011 40218 57017 76066 887// 333 05251 70033;
0212579020999992000020800004+25430+105180FM-12+137999999V0201401N002010042019N0060001N1+00201+00131102221ADDAA106002091AY161061AY261061GF108991081071004501999999IA2999+00069MA1999999086371MD1210011-0301MW1601REMSYN100AAXX  08001 57902 11456 81402 10020 20013 38637 40222 52001 60021 76066 887// 333 05351 30006 70033;
0132579020999992000020803004+25430+105180FM-12+137999999V0200401N001010042019N0080001N1+00431+00201102301ADDAY161031GF107991071051004501999999MD1210101+9999MW1101REMSYN066AAXX  08031 57902 41458 70401 10043 20020 40230 52010 71060 875//;
0199579020999992000020806004+25430+105180FM-12+137999999V0201801N004010042019N0100001N1+00651+00271101911ADDAA106000791AY161061GF108991081061004501999999KA1999N+00181MA1999999086191MD1710281-0501MW1001REMSYN094AAXX  08061 57902 11460 81804 10065 20027 38619 40191 57028 69901 70060 886// 333 05502 20018;
0122579020999992000020809004+25430+105180FM-12+137999999V0200901N004010042019N0130001N1+00611+00551101731ADDGF108991081051004501999999MD1710181+0061REMSYN070AAXX  08091 57902 42463 80904 10061 20055 40173 57018 885// 333 05601;
0154579020999992000020812004+25430+105180FM-12+137999999V0200901N004010042019N0120001N1+00511+00331101931ADDAA199000021GF108991081061004501999999MA1999999086141MD1210131+0051REMSYN076AAXX  08121 57902 32462 80904 10051 20033 38614 40193 52013 886// 333 05501;
0132579020999992000020815004+25430+105180FM-12+137999999V0200901N003010042019N0100001N1+00401+00381101971ADDAY161031GF108991081071004501999999MD1210071+9999MW1601REMSYN066AAXX  08151 57902 41460 80903 10040 20038 40197 52007 76060 887//;
0199579020999992000020818004+25430+105180FM-12+137999999V0200901N003010042019N0080001N1+00361+00361101861ADDAA106000191AY161061GF108991081071004501999999KA1999M+00761MA1999999086161MD1710051-0401MW1601REMSYN094AAXX  08181 57902 11458 80903 10036 20036 38616 40186 57005 69911 76060 887// 333 05401 10076;
0167579020999992000020821004+25430+105180FM-12+137999999V0201401N003010042019N0080001N1+00371+00371101761ADDAA124001591AY161031AY261031GF108991081071004501999999MD1710091-0301MW1601REMSYN082AAXX  08211 57902 41458 81403 10037 20037 40176 57009 76066 887// 333 05301 70016;
0212579020999992000020900004+25430+105180FM-12+137999999V0201401N002010042019N0060001N1+00331+00311101851ADDAA106000191AY161061AY261061GF108991081071004501999999IA2999+00329MA1999999086111MD1210041-0301MW1601REMSYN100AAXX  09001 57902 11456 81402 10033 20031 38611 40185 52004 69921 76066 887// 333 05301 30032 70003;
0140579020999992000020903004+25430+105180FM-12+137999999V0200401N003010042019N0060001N1+00401+00381101951ADDAY161031AY261031GF108991081061004501999999MD1210071+9999MW1211REMSYN066AAXX  09031 57902 41456 80403 10040 20038 40195 52007 72166 886//;
0199579020999992000020906004+25430+105180FM-12+137999999V0200901N003010042019N0070001N1+00541+00481101551ADDAA106000791AY161061GF108991081061004501999999KA1999N+00311MA1999999085871MD1710311-0301MW1101REMSYN094AAXX  09061 57902 11457 80903 10054 20048 38587 40155 57031 69901 71060 886// 333 05351 20031;
0134579020999992000020909004+25430+105180FM-12+137999999V0200901N003010042019N0070001N1+00531+00471101351ADDGF108991081061004501999999MD1710151+0031MW1101REMSYN076AAXX  09091 57902 41457 80903 10053 20047 40135 57015 71000 886// 333 05351;
0180579020999992000020912004+25430+105180FM-12+137999999V0200401N003010042019N0020001N1+00461+00441101621ADDAA106000791AY161061GF108991081071004501999999MA1999999085901MD1210201+0021MW1601REMSYN088AAXX  09121 57902 11420 80403 10046 20044 38590 40162 52020 69901 76060 887// 333 05251;
0140579020999992000020915004+25430+105180FM-12+137999999V0200401N002010042019N0070001N1+00391+00371101861ADDAY161031AY261031GF108991081071004501999999MD1210201+9999MW1601REMSYN066AAXX  09151 57902 41457 80402 10039 20037 40186 52020 76066 887//;
0207579020999992000020918004+25430+105180FM-12+137999999V0200401N002010042019N0100001N1+00391+00371101801ADDAA106000591AY161061AY261061GF108991081071004501999999KA1999M+00631MA1999999086041MD1710011-0101MW1601REMSYN094AAXX  09181 57902 11460 80402 10039 20037 38604 40180 57001 69951 76066 887// 333 05100 10063;
0167579020999992000020921004+25430+105180FM-12+137999999V0200401N001010042019N0100001N1+00361+00341101721ADDAA124001091AY161031AY261031GF108991081071004501999999MD1710081-0101MW1601REMSYN082AAXX  09211 57902 41460 80401 10036 20034 40172 57008 76066 887// 333 05100 70009;
0212579020999992000021000004+25430+105180FM-12+137999999V0200401N002010042019N0100001N1+00351+00331101841ADDAA106000591AY161061AY261061GF108991081071004501999999IA2999+00359MA1999999086091MD1210081+0001MW1601REMSYN100AAXX  10001 57902 11460 80402 10035 20033 38609 40184 52008 69961 76066 887// 333 00000 30035 70011;
0140579020999992000021003004+25430+105180FM-12+137999999V0200401N002010042019N0120001N1+00391+00371101981ADDAY161031AY261031GF108991081071004501999999MD1210111+9999MW1601REMSYN066AAXX  10031 57902 41462 80402 10039 20037 40198 52011 76066 887//;
0207579020999992000021006004+25430+105180FM-12+137999999V0200401N003010042019N0140001N1+00471+00401101611ADDAA106000191AY161061AY261061GF108991081071004501999999KA1999N+00331MA1999999085911MD1710291+0001MW1601REMSYN094AAXX  10061 57902 11464 80403 10047 20040 38591 40161 57029 69911 76066 887// 333 00051 20033;
0150579020999992000021009004+25430+105180FM-12+137999999V0200401N002010042019N0110001N1+00501+00461101471ADDAY161031AY261031GF108991081071004501999999MD1710121+0011MW1601REMSYN076AAXX  10091 57902 41461 80402 10050 20046 40147 57012 76066 887// 333 00100;
0188579020999992000021012004+25430+105180FM-12+137999999V0200401N002010042019N0030001N1+00461+00441101701ADDAA106000191AY161061AY261061GF108991081071004501999999MA1999999085971MD1210181+0011MW1601REMSYN088AAXX  10121 57902 11430 80402 10046 20044 38597 40170 52018 69911 76066 887// 333 00100;
0140579020999992000021015004+25430+105180FM-12+137999999V0200401N001010042019N0070001N1+00461+00441101861ADDAY161031AY261031GF108991081071004501999999MD1210151+9999MW1601REMSYN066AAXX  10151 57902 41457 80401 10046 20044 40186 52015 76066 887//;
0199579020999992000021018004+25430+105180FM-12+137999999V0209999C000010042019N0110001N1+00461+00441101811ADDAA106000191AY161061GF108991081061004501999999KA1999M+00531MA1999999086101MD1710021+0001MW1001REMSYN094AAXX  10181 57902 11461 80000 10046 20044 38610 40181 57002 69921 70060 886// 333 00001 10053;
0159579020999992000021021004+25430+105180FM-12+137999999V0200901N002010042019N0070001N1+00451+00451101751ADDAA124000891AY161031GF108991081071004501999999MD1710051+0001MW1601REMSYN082AAXX  10211 57902 41457 80902 10045 20045 40175 57005 76060 887// 333 00001 70007;
0204579020999992000021100004+25430+105180FM-12+137999999V0200401N001010042019N0060001N1+00471+00451101911ADDAA106000191AY161061GF108991081071004501999999IA2999+00439MA1999999086181MD1210131+0101MW1601REMSYN100AAXX  11001 57902 11456 80401 10047 20045 38618 40191 52013 69921 76060 887// 333 00101 30043 70006;
0140579020999992000021103004+25430+105180FM-12+137999999V0200901N001010042019N0080001N1+00551+00531102011ADDAY161031AY261031GF108991081071004501999999MD1210111+9999MW1601REMSYN066AAXX  11031 57902 41458 80901 10055 20053 40201 52011 76066 887//;
0199579020999992000021106004+25430+105180FM-12+137999999V0200401N002010042019N0150001N1+00791+00571101621ADDAA106000191AY161061GF108991081061004501999999KA1999N+00441MA1999999086021MD1710271+0101MW1001REMSYN094AAXX  11061 57902 11465 80402 10079 20057 38602 40162 57027 69911 70060 886// 333 00103 20044;
0122579020999992000021109004+25430+105180FM-12+137999999V0200401N003010042019N0250001N1+01011+00661101291ADDGF107991071061004501999999MD1710231+0001REMSYN070AAXX  11091 57902 42475 70403 10101 20066 40129 57023 876// 333 00005;
0154579020999992000021112004+25430+105180FM-12+137999999V0200901N003010042019N0200001N1+00791+00631101511ADDAA199000021GF108991081061004501999999MA1999999085931MD1210141+0001REMSYN076AAXX  11121 57902 32470 80903 10079 20063 38593 40151 52014 886// 333 00003;
0132579020999992000021115004+25430+105180FM-12+137999999V0200901N001010042019N0120001N1+00731+00671101641ADDAY161031GF108991081071004501999999MD1210111+9999MW1601REMSYN066AAXX  11151 57902 41462 80901 10073 20067 40164 52011 76060 887//;
0199579020999992000021118004+25430+105180FM-12+137999999V0200901N003010042019N0150001N1+00731+00711101461ADDAA106000791AY161061GF108991081051004501999999KA1999M+01031MA1999999085951MD1710091-0201MW1001REMSYN094AAXX  11181 57902 11465 80903 10073 20071 38595 40146 57009 69901 70060 885// 333 05203 10103;
0139579020999992000021121004+25430+105180FM-12+137999999V0200901N002010042019N0150001N1+00761+00721101241ADDAA124000391GF108991081051004501999999MD1710121-0201REMSYN076AAXX  11211 57902 42465 80902 10076 20072 40124 57012 885// 333 05203 70003;
0160579020999992000021200004+25430+105180FM-12+137999999V0200901N002010042019N0170001N1+00821+00661101331ADDAA124000191GF108991081061004501999999MA1999999085861MD1210031-0301REMSYN082AAXX  12001 57902 32467 80902 10082 20066 38586 40133 52003 886// 333 05304 70001;
0112579020999992000021203004+25430+105180FM-12+137999999V0201401N003010042019N0170001N1+00981+00711101391ADDGF107991071051004501999999MD1210081+9999REMSYN060AAXX  12031 57902 42467 71403 10098 20071 40139 52008 875//;
0192579020999992000021206004+25430+105180FM-12+137999999V0200901N005010120019N0250001N1+01191+00731100991ADDAA199000091GF107991071081008001999999KA1999N+00711MA1999999085651MD1710291-0401REMSYN082AAXX  12061 57902 32575 70905 10119 20073 38565 40099 57029 878// 333 05404 20071;EQDQ01  00002PRCP99
0132579020999992000021209004+25430+105180FM-12+137999999V0200401N005012200019N0300001N1+01551+00981100621ADDGA1001+999999999GF100991001001999999001001MD1710221+0041REMSYN064AAXX  12091 57902 42980 00405 10155 20098 40062 57022 333 05405;
0183579020999992000021212004+25430+105180FM-12+137999999V0209999C000012200019N0250001N1+01061+00911100911ADDAA199000091GA1001+999999999GF100991001001999999001001MA1999999085571MD1210141+0041REMSYN070AAXX  12121 57902 32975 00000 10106 20091 38557 40091 52014 333 05403;EQDQ01  00002PRCP99
0112579020999992000021215004+25430+105180FM-12+137999999V0202701N001010075019N0180001N1+00941+00861101001ADDGF108991081051008001999999MD1210091+9999REMSYN060AAXX  12151 57902 42568 82701 10094 20086 40100 52009 885//;
0192579020999992000021218004+25430+105180FM-12+137999999V0209999C000010042019N0110001N1+00931+00871100841ADDAA199000091GF107991071061004501001001KA1999M+01591MA1999999085571MD1710091-0401REMSYN082AAXX  12181 57902 32461 70000 10093 20087 38557 40084 57009 87600 333 05402 10159;EQDQ01  00002PRCP99
0144579020999992000021221004+25430+105180FM-12+137999999V0209999C000010003019N0004001N1+00831+00811100741ADDGA1091+999999999GF109991091999999999999999MD1710021+0031MW1471REMSYN070AAXX  12211 57902 41/04 90000 10083 20081 40074 57002 74700 333 05301;
0193579020999992000021300004+25430+105180FM-12+137999999V0209999C000010042019N0080001N1+00831+00811101131ADDAA199000091AY141061GF108991081051004501999999MA1999999085761MD1210211+0011MW1101REMSYN082AAXX  13001 57902 31458 80000 10083 20081 38576 40113 52021 71040 885// 333 05100;EQDQ01  00002PRCP99
0112579020999992000021303004+25430+105180FM-12+137999999V0200901N003010120019N0130001N1+01371+00891101261ADDGF107991071051012501999999MD1210221+9999REMSYN060AAXX  13031 57902 42663 70903 10137 20089 40126 52022 875//;
0192579020999992000021306004+25430+105180FM-12+137999999V0200401N002010075019N0160001N1+01681+00931100901ADDAA199000091GF105991051011008001001001KA1999N+00781MA1999999085741MD1710241+0101REMSYN082AAXX  13061 57902 32566 50402 10168 20093 38574 40090 57024 85100 333 00105 20078;EQDQ01  00002PRCP99
0122579020999992000021309004+25430+105180FM-12+137999999V0200401N005010042019N0150001N1+01191+00811101081ADDGF108991081051004501999999MD1210011+0031REMSYN070AAXX  13091 57902 42465 80405 10119 20081 40108 52001 885// 333 00354;
0173579020999992000021312004+25430+105180FM-12+137999999V0200401N002010042019N0180001N1+01061+00691101341ADDAA199000091GF108991081051004501999999MA1999999085941MD1210191+0041REMSYN076AAXX  13121 57902 32468 80402 10106 20069 38594 40134 52019 885// 333 00400;EQDQ01  00002PRCP99
0112579020999992000021315004+25430+105180FM-12+137999999V0200401N002010042019N0160001N1+01011+00631101511ADDGF108991081051004501999999MD1210271+9999REMSYN060AAXX  13151 57902 42466 80402 10101 20063 40151 52027 885//;
0199579020999992000021318004+25430+105180FM-12+137999999V0200201N002010042019N0150001N1+00871+00651101501ADDAA106000791AY161061GF108991081051004501999999KA1999M+01791MA1999999086241MD1210031+0701MW1001REMSYN094AAXX  13181 57902 11465 80202 10087 20065 38624 40150 52003 69901 70060 885// 333 00751 10179;
0151579020999992000021321004+25430+105180FM-12+137999999V0200401N002010042019N0100001N1+00761+00621101621ADDAA124000791GF108991081071004501999999MD1710051+0601MW1601REMSYN082AAXX  13211 57902 11460 80402 10076 20062 40162 57005 76000 887// 333 00651 79999;
0186579020999992000021400004+25430+105180FM-12+137999999V0200901N002010042019N0060001N1+00611+00571102041ADDAA106000191AY161061GF108991081071004501999999MA1999999086481MD1210291+0701MW1601REMSYN094AAXX  14001 57902 11456 80902 10061 20057 38648 40204 52029 69921 76060 887// 333 00752 70002;
0140579020999992000021403004+25430+105180FM-12+137999999V0200401N003010042019N0100001N1+00661+00491102251ADDAY161031AY261031GF108991081051004501999999MD1210181+9999MW1211REMSYN066AAXX  14031 57902 41460 80403 10066 20049 40225 52018 72166 885//;
0199579020999992000021406004+25430+105180FM-12+137999999V0200401N002010075019N0150001N1+00731+00461102061ADDAA106000191AY161061GF108991081051008001999999KA1999N+00601MA1999999086481MD1710181+0701MW1001REMSYN094AAXX  14061 57902 11565 80402 10073 20046 38648 40206 57018 69911 70060 885// 333 00760 20060;
0122579020999992000021409004+25430+105180FM-12+137999999V0200401N003010042019N0160001N1+00731+00431101931ADDGF108991081061004501999999MD1710141+0061REMSYN070AAXX  14091 57902 42466 80403 10073 20043 40193 57014 886// 333 00655;
0180579020999992000021412004+25430+105180FM-12+137999999V0200401N001010042019N0120001N1+00621+00541102121ADDAA106000791AY161061GF108991081071004501999999MA1999999086441MD1210101+0051MW1601REMSYN088AAXX  14121 57902 11462 80401 10062 20054 38644 40212 52010 69901 76060 887// 333 00554;
0107579020999992000021418004+25430+105180FM-12+137999999V02099999999999999999N0080001N1+00571+00501102251ADDGF108991999999004501999999MA1999999086561REMSYN054AAXX  14181 57902 11458 8040/ 10057 2005/ 38656 40225;
0167579020999992000021421004+25430+105180FM-12+137999999V0200401N003010042019N0080001N1+00511+00471102171ADDAA124001091AY161031AY261031GF108991081071004501999999MD1710081+0301MW1601REMSYN082AAXX  14211 57902 41458 80403 10051 20047 40217 57008 76066 887// 333 00353 70009;
0212579020999992000021500004+25430+105180FM-12+137999999V0200901N003010042019N0070001N1+00441+00401102381ADDAA106000591AY161061AY261061GF108991081071004501999999IA2999+00469MA1999999086611MD1210131+0101MW1601REMSYN100AAXX  15001 57902 11457 80903 10044 20040 38661 40238 52013 69951 76066 887// 333 00152 30046 70011;
0140579020999992000021503004+25430+105180FM-12+137999999V0200401N002010042019N0120001N1+00491+00361102511ADDAY161031AY261031GF108991081071004501999999MD1210121+9999MW1601REMSYN066AAXX  15031 57902 41462 80402 10049 20036 40251 52012 76066 887//;
0199579020999992000021506004+25430+105180FM-12+137999999V0200901N002010042019N0150001N1+00511+00361102151ADDAA106000191AY161061GF108991081071004501999999KA1999N+00421MA1999999086421MD1710311-0101MW1601REMSYN094AAXX  15061 57902 11465 80902 10051 20036 38642 40215 57031 69911 76060 887// 333 05152 20042;
0142579020999992000021509004+25430+105180FM-12+137999999V0200901N001010042019N0120001N1+00561+00451101911ADDAY161031GF108991081071004501999999MD1710201+0011MW1601REMSYN076AAXX  15091 57902 41462 80901 10056 20045 40191 57020 76060 887// 333 05152;
0180579020999992000021512004+25430+105180FM-12+137999999V0200901N002010042019N0050001N1+00491+00471102041ADDAA106000191AY161061GF108991081071004501999999MA1999999086291MD1210071+0021MW1601REMSYN088AAXX  15121 57902 11450 80902 10049 20047 38629 40204 52007 69921 76060 887// 333 05251;
0140579020999992000021515004+25430+105180FM-12+137999999V0200901N002010042019N0050001N1+00461+00441102091ADDAY161031AY261031GF108991081071004501999999MD1210051+9999MW1601REMSYN066AAXX  15151 57902 41450 80902 10046 20044 40209 52005 76066 887//;
0207579020999992000021518004+25430+105180FM-12+137999999V0200401N003010042019N0070001N1+00451+00431102111ADDAA106001091AY161061AY261061GF108991081071004501999999KA1999M+00611MA1999999086361MD1210021-0201MW1601REMSYN094AAXX  15181 57902 11457 80403 10045 20043 38636 40211 52002 60011 76066 887// 333 05251 10061;
0167579020999992000021521004+25430+105180FM-12+137999999V0200901N001010042019N0080001N1+00431+00431102001ADDAA124003391AY161031AY261031GF108991081071004501999999MD1710091-0201MW1601REMSYN082AAXX  15211 57902 41458 80901 10043 20043 40200 57009 76066 887// 333 05251 70032;
0212579020999992000021600004+25430+105180FM-12+137999999V0200901N001010042019N0100001N1+00421+00401102101ADDAA106005191AY161061AY261061GF108991081061004501999999IA2999+00409MA1999999086341MD1210071-0301MW1211REMSYN100AAXX  16001 57902 11460 80901 10042 20040 38634 40210 52007 60051 72166 886// 333 05300 30040 70062;
0132579020999992000021603004+25430+105180FM-12+137999999V0200401N001010042019N0120001N1+00521+00481102291ADDAY161031GF108991081061004501999999MD1210181+9999MW1001REMSYN066AAXX  16031 57902 41462 80401 10052 20048 40229 52018 70060 886//;
0199579020999992000021606004+25430+105180FM-12+137999999V0200901N002010042019N0100001N1+00581+00471102031ADDAA106000191AY161061GF108991081061004501999999KA1999N+00401MA1999999086311MD1710211-0101MW1211REMSYN094AAXX  16061 57902 11460 80902 10058 20047 38631 40203 57021 69921 72160 886// 333 05101 20040;
0122579020999992000021609004+25430+105180FM-12+137999999V0203601N001010075019N0150001N1+00751+00521101811ADDGF108991081051008001999999MD1710151+0011REMSYN070AAXX  16091 57902 42565 83601 10075 20052 40181 57015 885// 333 05102;
0172579020999992000021612004+25430+105180FM-12+137999999V0200901N002010042019N0120001N1+00651+00591101951ADDAA106000791GF108991081071004501999999MA1999999086251MD1210091+0001MW1601REMSYN088AAXX  16121 57902 11462 80902 10065 20059 38625 40195 52009 69901 76000 887// 333 00002;
0140579020999992000021615004+25430+105180FM-12+137999999V0200901N003010042019N0060001N1+00611+00591102051ADDAY161031AY261031GF108991081071004501999999MD1210101+9999MW1601REMSYN066AAXX  16151 57902 41456 80903 10061 20059 40205 52010 76066 887//;
0207579020999992000021618004+25430+105180FM-12+137999999V0200901N003010042019N0050001N1+00601+00601101861ADDAA106000191AY161061AY261061GF108991081071004501999999KA1999M+00781MA1999999086201MD1710151-0201MW1601REMSYN094AAXX  16181 57902 11450 80903 10060 20060 38620 40186 57015 69911 76066 887// 333 05202 10078;
0167579020999992000021621004+25430+105180FM-12+137999999V0200901N002010042019N0050001N1+00611+00591101641ADDAA124003891AY161031AY261031GF108991081071004501999999MD1710141-0201MW1601REMSYN082AAXX  16211 57902 41450 80902 10061 20059 40164 57014 76066 887// 333 05202 70037;
0194579020999992000021700004+25430+105180FM-12+137999999V0201401N002010042019N0140001N1+00651+00571101761ADDAA106000791AY161061AY261061GF108991081061004501999999MA1999999086151MD1210091-0201MW1211REMSYN094AAXX  17001 57902 11464 81402 10065 20057 38615 40176 52009 69901 72166 886// 333 05202 70003;
0112579020999992000021703004+25430+105180FM-12+137999999V0201801N003010042019N0180001N1+01101+00861101711ADDGF107991071051004501999999MD1210061+9999REMSYN060AAXX  17031 57902 42468 71803 10110 20086 40171 52006 875//;
