0164590460999992000010100004+24350+109400FM-12+009799999V0209999C000012200019N0040001N1+01321+01131101901ADDAA106000091GF103991031001999999031001MD1210161+0011MW1101REMSYN076AAXX  01001 59046 31940 30000 10132 20113 40190 52016 71000 83030 333 00102;EQDQ01  00002PRCP06
0124590460999992000010103004+24350+109400FM-12+009799999V0202701N002012200019N0040001N1+02011+01231102021ADDGF101991011001999999031001MD1210121+9999MW1041REMSYN066AAXX  01031 59046 41940 12702 10201 20123 40202 52012 70400 81030;
0175590460999992000010106004+24350+109400FM-12+009799999V0202201N002012200019N0150001N1+02501+00911101621ADDAA106000091GA1001+999999999GF100991001001999999001001KA1999N+01321MD1710381+9999REMSYN064AAXX  01061 59046 32965 02202 10250 20091 40162 57038 333 20132;EQDQ01  00002PRCP06
0122590460999992000010109004+24350+109400FM-12+009799999V0202201N001012200019N0300001N1+02461+00951101491ADDGA1001+999999999GF100991001001999999001001MD1710131+9999REMSYN054AAXX  01091 59046 42980 02201 10246 20095 40149 57013;
0152590460999992000010112004+24350+109400FM-12+009799999V0209999C000012200019N9999999N1+01841+01191101711ADDAA106000091GA1001+999999999GF100991001001999999001001MD1210201+9999REMSYN054AAXX  01121 59046 3/75/ 00000 10184 20119 40171 52020;EQDQ01  00002PRCP06
0175590460999992000010118004+24350+109400FM-12+009799999V0209999C000012200019N9999999N1+01411+01151101921ADDAA106000091GA1001+999999999GF100991001001999999001001KA1999M+02571MD1210011+9999REMSYN064AAXX  01181 59046 3299/ 00000 10141 20115 40192 52001 333 10257;EQDQ01  00002PRCP06
0124590460999992000010121004+24350+109400FM-12+009799999V0202901N001019999999N0080001N1+01281+01131101911ADDGF107991071001999999031999MD1710011+9999MW1101REMSYN066AAXX  01211 59046 41958 72901 10128 20113 40191 57001 71000 8703/;
0164590460999992000010200004+24350+109400FM-12+009799999V0202701N001012200019N0030001N1+01301+01151102121ADDAA106000091GF103991031001999999031001MD1210201+0021MW1101REMSYN076AAXX  02001 59046 31930 32701 10130 20115 40212 52020 71000 83030 333 00200;EQDQ01  00002PRCP06
0134590460999992000010203004+24350+109400FM-12+009799999V0203601N002012200019N0040001N1+01851+01141102231ADDGA1001+999999999GF100991001001999999001001MD1210111+9999MW1041REMSYN060AAXX  02031 59046 41940 03602 10185 20114 40223 52011 70400;
0187590460999992000010206004+24350+109400FM-12+009799999V0203401N002012200019N0030001N1+02281+01101101791ADDAA106000091GA1001+999999999GF100991001001999999001001KA1999N+01281MD1710431+9999MW1051REMSYN070AAXX  02061 59046 31930 03402 10228 20110 40179 57043 70500 333 20128;EQDQ01  00002PRCP06
0134590460999992000010209004+24350+109400FM-12+009799999V0202701N001012200019N0030001N1+02341+01201101591ADDGA1001+999999999GF100991001001999999001001MD1710201+9999MW1051REMSYN060AAXX  02091 59046 41930 02701 10234 20120 40159 57020 70500;
0164590460999992000010212004+24350+109400FM-12+009799999V0209999C000012200019N0030001N1+01821+01291101681ADDAA106000091GA1001+999999999GF100991001001999999001001MD1210081+9999MW1101REMSYN060AAXX  02121 59046 31930 00000 10182 20129 40168 52008 71000;EQDQ01  00002PRCP06
0187590460999992000010218004+24350+109400FM-12+009799999V0202901N001012200019N0030001N1+01371+01241101661ADDAA106000091GA1001+999999999GF100991001001999999001001KA1999M+02401MD1710061+9999MW1101REMSYN070AAXX  02181 59046 31930 02901 10137 20124 40166 57006 71000 333 10240;EQDQ01  00002PRCP06
0134590460999992000010221004+24350+109400FM-12+009799999V0202701N002012200019N0030001N1+01281+01171101611ADDGA1001+999999999GF100991001001999999001001MD1710051+9999MW1101REMSYN060AAXX  02211 59046 41930 02702 10128 20117 40161 57005 71000;
0190590460999992000010300004+24350+109400FM-12+009799999V0209999C000012200019N0030001N1+01231+01121101711ADDAA106000091GF102991999001999999001001MD1210091+9999REMSYN076AAXX  03001 59046 31930 20000 10123 20112 40171 52009 81000 82030 333 05451;EQDQ01+000012SCOTLCQ02+000002SCOTLCQ03  00002PRCP06
0134590460999992000010303004+24350+109400FM-12+009799999V0200901N002012200019N0030001N1+01821+01131101851ADDGA1001+999999999GF100991001001999999001001MD1210141+9999MW1041REMSYN060AAXX  03031 59046 41930 00902 10182 20113 40185 52014 70400;
0175590460999992000010306004+24350+109400FM-12+009799999V0201801N004012200019N0120001N1+02511+00721101391ADDAA106000091GA1001+999999999GF100991001001999999001001KA1999N+01221MD1710441+9999REMSYN064AAXX  03061 59046 32962 01804 10251 20072 40139 57044 333 20122;EQDQ01  00002PRCP06
0122590460999992000010309004+24350+109400FM-12+009799999V0201401N002012200019N0130001N1+02521+00921101181ADDGA1001+999999999GF100991001001999999001001MD1710211+9999REMSYN054AAXX  03091 59046 42963 01402 10252 20092 40118 57021;
0152590460999992000010312004+24350+109400FM-12+009799999V0202201N004012200019N0120001N1+02281+00991101311ADDAA106000091GA1001+999999999GF100991001001999999001001MD1210121+9999REMSYN054AAXX  03121 59046 32962 02204 10228 20099 40131 52012;EQDQ01  00002PRCP06
0175590460999992000010318004+24350+109400FM-12+009799999V0202201N001012200019N0110001N1+01801+01211101391ADDAA106000091GA1001+999999999GF100991001001999999001001KA1999M+02581MD1710041+9999REMSYN064AAXX  03181 59046 32961 02201 10180 20121 40139 57004 333 10258;EQDQ01  00002PRCP06
0124590460999992000010321004+24350+109400FM-12+009799999V0202201N001010150019N0080001N1+01741+01281101291ADDGF107991071051017501999999MD1710101+9999MW1101REMSYN066AAXX  03211 59046 41758 72201 10174 20128 40129 57010 71000 875//;
0157590460999992000010400004+24350+109400FM-12+009799999V0202201N002010042019N0050001N1+01801+01441101401ADDAA106000791GF108991081051004501999999MD1210101-0301MW1601REMSYN088AAXX  04001 59046 11450 82202 10180 20144 40140 52010 69901 76000 885// 333 05306 79999;
0132590460999992000010403004+24350+109400FM-12+009799999V0202201N004010120019N0040001N1+01061+99999101491ADDAY161031GF108991081081008001999999MD1210091+9999MW1101REMSYN066AAXX  04031 59046 41540 82204 10106 20160 40149 52009 71060 888//;
0172590460999992000010406004+24350+109400FM-12+009799999V0202201N004010120019N0100001N1+02222+01691101141ADDAA106000791AY161061GF108991081081008001999999KA1999N+01701MD1710351+9999MW1001REMSYN082AAXX  04061 59046 11560 82204 10222 20169 40114 57035 69901 70060 888// 333 20170;
0112590460999992000010409004+24350+109400FM-12+009799999V0201401N003010120019N0100001N1+02181+01681101041ADDGF108991081081008001999999MD1710101+9999REMSYN060AAXX  04091 59046 42560 81403 10218 20168 40104 57010 888//;
0142590460999992000010412004+24350+109400FM-12+009799999V0201601N001010150019N0100001N1+02071+01701101171ADDAA106000091GF107991071051017501999999MD1210131+9999REMSYN060AAXX  04121 59046 32760 71601 10207 20170 40117 52013 875//;EQDQ01  00002PRCP06
0165590460999992000010418004+24350+109400FM-12+009799999V0202201N004010150019N0100001N1+02081+01661101261ADDAA106000091GF107991071051017501999999KA1999M+02241MD1710071+9999REMSYN070AAXX  04181 59046 32760 72204 10208 20166 40126 57007 875// 333 10224;EQDQ01  00002PRCP06
0133590460999992000010421004+24350+109400FM-12+009799999V0201801N003010150019N0100001N1+02001+01711101181ADDAA124000791GF107991071051017501999999MD1710081+9999REMSYN070AAXX  04211 59046 42760 71803 10200 20171 40118 57008 875// 333 79999;
0170590460999992000010500004+24350+109400FM-12+009799999V0201801N002010120019N0060001N1+02001+01711101331ADDAA106000091GF108991081081008001999999MD1210141-0101MW1101REMSYN082AAXX  05001 59046 31556 81802 10200 20171 40133 52014 71000 888// 333 05102 79999;EQDQ01  00002PRCP06
0124590460999992000010503004+24350+109400FM-12+009799999V0202201N004010120019N0060001N1+02191+01721101461ADDGF107991071081008001999999MD1210131+9999MW1101REMSYN066AAXX  05031 59046 41556 72204 10219 20172 40146 52013 71000 878//;
0165590460999992000010506004+24350+109400FM-12+009799999V0202201N004010120019N0150001N1+02471+01671101051ADDAA106000091GF107991071081008001999999KA1999N+01941MD1710391+9999REMSYN070AAXX  05061 59046 32565 72204 10247 20167 40105 57039 878// 333 20194;EQDQ01  00002PRCP06
0112590460999992000010509004+24350+109400FM-12+009799999V0202001N004012200019N0250001N1+02481+01611100861ADDGF102991021081008001001001MD1710191+9999REMSYN060AAXX  05091 59046 42575 22004 10248 20161 40086 57019 82800;
0152590460999992000010512004+24350+109400FM-12+009799999V0201801N002012200019N0250001N1+02271+01621101041ADDAA106000091GA1001+999999999GF100991001001999999001001MD1210171+9999REMSYN054AAXX  05121 59046 32975 01802 10227 20162 40104 52017;EQDQ01  00002PRCP06
0177590460999992000010518004+24350+109400FM-12+009799999V0201801N001010150019N0080001N1+02021+01691101221ADDAA106000091GF107991071051017501999999KA1999M+02581MD1210031+9999MW1101REMSYN076AAXX  05181 59046 31758 71801 10202 20169 40122 52003 71000 875// 333 10258;EQDQ01  00002PRCP06
0124590460999992000010521004+24350+109400FM-12+009799999V0201401N001010150019N0080001N1+01951+01671101211ADDGF107991071051017501999999MD1710011+9999MW1101REMSYN066AAXX  05211 59046 41758 71401 10195 20167 40121 57001 71000 875//;
0124590460999992000010603004+24350+109400FM-12+009799999V0201601N002010120019N0080001N1+02151+01781101571ADDGF107991071081008001999999MD1210211+9999MW1101REMSYN066AAXX  06031 59046 41558 71602 10215 20178 40157 52021 71000 878//;
0177590460999992000010606004+24350+109400FM-12+009799999V0200701N005012200019N0080001N1+02221+01431101321ADDAA106000091GF104991021081008001001021KA1999N+01831MD1710241+9999MW1041REMSYN076AAXX  06061 59046 31558 40705 10222 20143 40132 57024 70400 82802 333 20183;EQDQ01  00002PRCP06
0112590460999992000010609004+24350+109400FM-12+009799999V0200401N005010120019N0180001N1+01841+01021101431ADDGF108991081051012501999999MD1210101+9999REMSYN060AAXX  06091 59046 42668 80405 10184 20102 40143 52010 885//;
0142590460999992000010612004+24350+109400FM-12+009799999V0203401N004010150019N0180001N1+01351+00811101851ADDAA106000091GF107991071051017501999999MD1210401+9999REMSYN060AAXX  06121 59046 32768 73404 10135 20081 40185 52040 875//;EQDQ01  00002PRCP06
0133590460999992000010621004+24350+109400FM-12+009799999V0203401N002010120019N0200001N1+01051+00471101971ADDAA124001591GF108991081051012501999999MD1710111+9999REMSYN070AAXX  06211 59046 42670 83402 10105 20047 40197 57011 885// 333 70015;
0152590460999992000010700004+24350+109400FM-12+009799999V0200401N002010150019N0100001N1+01061+00441102041ADDAA106000091GF108991081051017501999999MD1210061+0061REMSYN070AAXX  07001 59046 32760 80402 10106 20044 40204 52006 885// 333 00658;EQDQ01  00002PRCP06
0124590460999992000010703004+24350+109400FM-12+009799999V0203201N002010150019N0080001N1+01181+00511102131ADDGF108991081051017501999999MD1210091+9999MW1041REMSYN066AAXX  07031 59046 41758 83202 10118 20051 40213 52009 70400 885//;
0177590460999992000010706004+24350+109400FM-12+009799999V0203601N002010150019N0050001N1+01381+00581101761ADDAA106000091GF107991071051017501999999KA1999N+01051MD1710361+9999MW1041REMSYN076AAXX  07061 59046 31750 73602 10138 20058 40176 57036 70400 875// 333 20105;EQDQ01  00002PRCP06
0124590460999992000010709004+24350+109400FM-12+009799999V0203201N002010120019N0040001N1+01381+00611101611ADDGF108991081051012501999999MD1710151+9999MW1041REMSYN066AAXX  07091 59046 41640 83202 10138 20061 40161 57015 70400 885//;
0154590460999992000010712004+24350+109400FM-12+009799999V0200201N001010120019N0040001N1+01371+00691101711ADDAA106000091GF107991071051012501999999MD1210101+9999MW1041REMSYN066AAXX  07121 59046 31640 70201 10137 20069 40171 52010 70400 875//;EQDQ01  00002PRCP06
0165590460999992000010718004+24350+109400FM-12+009799999V0209999C000010120019N0120001N1+01321+00821101641ADDAA106000091GF108991081051012501999999KA1999M+01451MD1710061+9999REMSYN070AAXX  07181 59046 32662 80000 10132 20082 40164 57006 885// 333 10145;EQDQ01  00002PRCP06
0153590460999992000010721004+24350+109400FM-12+009799999V0201101N003010120019N0060001N1+99999+99999101401ADDAA124000391AY161031GF108991081051012501999999MD1710241+9999MW1601REMSYN076AAXX  07211 59046 41656 81103 101/4 20086 40140 57024 76060 885// 333 70002;
0165590460999992000010800004+24350+109400FM-12+009799999V0209999C000019999999N0030001N1+01231+00901101561ADDAA106000191AY161061GF108991051999012501999999MD1210161-0501MW1101REMSYN088AAXX  08001 59046 11630 80000 10123 20090 40156 52016 69921 71060 85/// 333 05502 700//;
0124590460999992000010803004+24350+109400FM-12+009799999V0200401N001010120019N0030001N1+01301+00991101581ADDGF108991081051012501999999MD1210021+9999MW1211REMSYN066AAXX  08031 59046 41630 80401 10130 20099 40158 52002 72100 885//;
0172590460999992000010806004+24350+109400FM-12+009799999V0203201N001010120019N0020001N1+01181+01121101291ADDAA106004191AY161061GF108991081051012501999999KA1999N+01181MD1710291+9999MW1601REMSYN082AAXX  08061 59046 11620 83201 10118 20112 40129 57029 60041 76060 885// 333 20118;
0140590460999992000010809004+24350+109400FM-12+009799999V0200401N002010120019N0030001N1+01231+01191101241ADDAY161031AY261031GF108991081051012501999999MD1710051+9999MW1601REMSYN066AAXX  08091 59046 41630 80402 10123 20119 40124 57005 76066 885//;
0157590460999992000010812004+24350+109400FM-12+009799999V0203401N001010120019N0040001N1+01281+01241101401ADDAA106002091AY161061AY261061GF108991081051012501999999MD1210161+9999MW1601REMSYN072AAXX  08121 59046 11640 83401 10128 20124 40140 52016 60021 76066 885//;
0172590460999992000010818004+24350+109400FM-12+009799999V0200201N001010120019N0040001N1+01171+01111101551ADDAA106000191AY161061GF108991081051012501999999KA1999M+01341MD1210011+9999MW1101REMSYN082AAXX  08181 59046 11640 80201 10117 20111 40155 52001 69911 71060 885// 333 10134;
0125590460999992000010821004+24350+109400FM-12+009799999V0200201N002010120019N0040001N1+01151+01091101471ADDAA124005191GF108991081051012501999999MW1101REMSYN070AAXX  08211 59046 41640 80202 10115 20109 40147 71000 885// 333 70052;
0165590460999992000010900004+24350+109400FM-12+009799999V0200201N002010120019N0030001N1+01151+01071101591ADDAA106000791AY161061GF108991081051012501999999MD1210121+0001MW1601REMSYN088AAXX  09001 59046 11630 80202 10115 20107 40159 52012 69901 76060 885// 333 00051 70052;
0132590460999992000010903004+24350+109400FM-12+009799999V0200401N002010120019N0060001N1+01281+01121101801ADDAY161031GF108991081051012501999999MD1210211+9999MW1101REMSYN066AAXX  09031 59046 41656 80402 10128 20112 40180 52021 71060 885//;
0124590460999992000010909004+24350+109400FM-12+009799999V0203401N001010120019N0040001N1+01521+01271101291ADDGF108991081051012501999999MD1710111+9999MW1101REMSYN066AAXX  09091 59046 41640 83401 10152 20127 40129 57011 71000 885//;
0148590460999992000010912004+24350+109400FM-12+009799999V0203601N002019999999N9999999N1+01301+01151101461ADDAA106000091GF107991071051999999999999MD1210161+9999REMSYN066AAXX  09121 59046 3//// 73602 10130 20115 40146 52016 71000 875//;EQDQ01  00002PRCP06
0177590460999992000010918004+24350+109400FM-12+009799999V0200401N002010120019N0060001N1+01301+01071101571ADDAA106000091GF108991081051012501999999KA1999M+01531MD1710011+9999MW1101REMSYN076AAXX  09181 59046 31656 80402 10130 20107 40157 57001 71000 885// 333 10153;EQDQ01  00002PRCP06
0145590460999992000010921004+24350+109400FM-12+009799999V0203401N002010120019N0060001N1+01261+01071101411ADDAA124000791GF108991081051012501999999MD1710151+9999MW1601REMSYN076AAXX  09211 59046 41656 83402 10126 20107 40141 57015 76000 885// 333 79999;
0165590460999992000011000004+24350+109400FM-12+009799999V0200201N001010120019N0030001N1+01201+01091101541ADDAA106000191AY161061GF108991081051012501999999MD1210121-0101MW1601REMSYN088AAXX  10001 59046 11630 80201 10120 20109 40154 52012 69921 76060 885// 333 05101 70002;
0132590460999992000011003004+24350+109400FM-12+009799999V0200401N002010120019N0030001N1+01291+01141101651ADDAY161031GF108991081051012501999999MD1210111+9999MW1101REMSYN066AAXX  10031 59046 41630 80402 10129 20114 40165 52011 71060 885//;
0172590460999992000011006004+24350+109400FM-12+009799999V0202701N002010120019N0060001N1+01571+01261101301ADDAA106000191AY161061GF108991081051012501999999KA1999N+01201MD1710341+9999MW1101REMSYN082AAXX  10061 59046 11656 82702 10157 20126 40130 57034 69911 71060 885// 333 20120;
0124590460999992000011009004+24350+109400FM-12+009799999V0209999C000010120019N0060001N1+01591+01321101151ADDGF108991081051012501999999MD1710151+9999MW1101REMSYN066AAXX  10091 59046 41656 80000 10159 20132 40115 57015 71000 885//;
0149590460999992000011012004+24350+109400FM-12+009799999V0202901N001010120019N0060001N1+01521+01341101241ADDAA106000191AY161061GF108991081051012501999999MD1210091+9999MW1211REMSYN072AAXX  10121 59046 11656 82901 10152 20134 40124 52009 69911 72160 885//;
0158590460999992000011018004+24350+109400FM-12+009799999V0203401N001010120019N0060001N1+01521+01411101291ADDAA106000021GF107991071051012501999999KA1999M+01631MD1710021+9999MW1101REMSYN076AAXX  10181 59046 31656 73401 10152 20141 40129 57002 71000 875// 333 10163;
0164590460999992000011021004+24350+109400FM-12+009799999V0209999C000019999999N0060001N1+01521+01411101171ADDAA124000591GF107991999051012501999999MD1710111+9999MW1101REMSYN076AAXX  10211 59046 41656 70000 10152 20141 40117 57011 71000 885// 333 70004;EQDQ01+000082SCOTLC
0170590460999992000011100004+24350+109400FM-12+009799999V0209999C000010120019N0050001N1+01631+01491101341ADDAA106000091GF108991081081008001999999MD1210171-0201MW1101REMSYN082AAXX  11001 59046 31550 80000 10163 20149 40134 52017 71000 888// 333 05204 70002;EQDQ01  00002PRCP06
0124590460999992000011103004+24350+109400FM-12+009799999V0201801N003010120019N0070001N1+02141+01841101451ADDGF108991081081008001999999MD1210111+9999MW1101REMSYN066AAXX  11031 59046 41557 81803 10214 20184 40145 52011 71000 888//;
0165590460999992000011106004+24350+109400FM-12+009799999V0201801N003010120019N0150001N1+02401+01851100991ADDAA106000091GF107991071081008001999999KA1999N+01481MD1710451+9999REMSYN070AAXX  11061 59046 32565 71803 10240 20185 40099 57045 878// 333 20148;EQDQ01  00002PRCP06
0112590460999992000011109004+24350+109400FM-12+009799999V0201601N002010075019N0200001N1+02481+01861100871ADDGF107991071021008001001001MD1710111+9999REMSYN060AAXX  11091 59046 42570 71602 10248 20186 40087 57011 87200;
0142590460999992000011112004+24350+109400FM-12+009799999V0201601N002010150019N0180001N1+02281+01861101041ADDAA106000091GF107991071051017501999999MD1210161+9999REMSYN060AAXX  11121 59046 32768 71602 10228 20186 40104 52016 875//;EQDQ01  00002PRCP06
0158590460999992000011118004+24350+109400FM-12+009799999V0203201N004010042019N0110001N1+01261+01071101511ADDAA106004191GF108991081051004501999999KA1999M+02561MD1210281+9999REMSYN082AAXX  11181 59046 11461 83204 10126 20107 40151 52028 60041 7/060 885// 333 10256;
0153590460999992000011121004+24350+109400FM-12+009799999V0203601N003010042019N0110001N1+01071+00851101601ADDAA124004891AY161031GF108991081051004501999999MD1210091+9999MW1601REMSYN076AAXX  11211 59046 41461 83603 10107 20085 40160 52009 76060 885// 333 70047;
0165590460999992000011200004+24350+109400FM-12+009799999V0200401N002010042019N0150001N1+00971+00691101811ADDAA106001091AY161061GF108991081051004501999999MD1210201+0501MW1601REMSYN088AAXX  12001 59046 11465 80402 10097 20069 40181 52020 69991 76060 885// 333 00557 70049;
0132590460999992000011203004+24350+109400FM-12+009799999V0203401N004010120019N0300001N1+01001+00641101991ADDAY161031GF108991081051012501999999MD1210181+9999MW1001REMSYN066AAXX  12031 59046 41680 83404 10100 20064 40199 52018 70060 885//;
0172590460999992000011206004+24350+109400FM-12+009799999V0203401N003010120019N0300001N1+01031+00621101821ADDAA106000191AY161061GF108991081081008001999999KA1999N+00971MD1710191+9999MW1001REMSYN082AAXX  12061 59046 11580 83403 10103 20062 40182 57019 69911 70060 888// 333 20097;
0112590460999992000011209004+24350+109400FM-12+009799999V0203401N002010120019N0300001N1+01011+00601101701ADDGF108991081051012501999999MD1710121+9999REMSYN060AAXX  12091 59046 42680 83402 10101 20060 40170 57012 885//;
0142590460999992000011212004+24350+109400FM-12+009799999V0203201N002010120019N0300001N1+00961+00571101771ADDAA106000091GF108991081051012501999999MD1210071+9999REMSYN060AAXX  12121 59046 32680 83202 10096 20057 40177 52007 885//;EQDQ01  00002PRCP06
0172590460999992000011218004+24350+109400FM-12+009799999V0203201N003010120019N0200001N1+00871+00541101841ADDAA106000791AY161061GF108991081051012501999999KA1999M+01271MD1710051+9999MW1211REMSYN082AAXX  12181 59046 11670 83203 10087 20054 40184 57005 69901 72160 885// 333 10127;
0133590460999992000011221004+24350+109400FM-12+009799999V0200201N002010120019N0150001N1+00821+00511101741ADDAA124000391GF108991081051012501999999MD1710101+9999REMSYN070AAXX  12211 59046 42665 80202 10082 20051 40174 57010 885// 333 70003;
0165590460999992000011300004+24350+109400FM-12+009799999V0203401N002010120019N0200001N1+00821+00481101821ADDAA106000791AY161061GF108991081051012501999999MD1210081+0001MW1001REMSYN088AAXX  13001 59046 11670 83402 10082 20048 40182 52008 69901 70060 885// 333 00052 70001;
0112590460999992000011303004+24350+109400FM-12+009799999V0203401N002010120019N0200001N1+00911+00491101921ADDGF108991081051012501999999MD1210101+9999REMSYN060AAXX  13031 59046 42670 83402 10091 20049 40192 52010 885//;
0172590460999992000011306004+24350+109400FM-12+009799999V0200401N002010090019N0200001N1+00921+00571101611ADDAA106000391AY161061GF108991081081004501999999KA1999N+00821MD1710311+9999MW1211REMSYN082AAXX  13061 59046 11470 80402 10092 20057 40161 57031 69931 72160 888// 333 20082;
0132590460999992000011309004+24350+109400FM-12+009799999V0203601N002010120019N0200001N1+00961+00571101541ADDAY161031GF108991081081008001999999MD1710071+9999MW1001REMSYN066AAXX  13091 59046 41570 83602 10096 20057 40154 57007 70060 888//;
0149590460999992000011312004+24350+109400FM-12+009799999V0203601N002010120019N0200001N1+00921+00551101621ADDAA106000791AY161061GF108991081051012501999999MD1210081+9999MW1001REMSYN072AAXX  13121 59046 11670 83602 10092 20055 40162 52008 69901 70060 885//;
0172590460999992000011318004+24350+109400FM-12+009799999V0203401N002010120019N0200001N1+00841+00621101651ADDAA106000791AY161061GF108991081051012501999999KA1999M+00981MD1710071+9999MW1211REMSYN082AAXX  13181 59046 11670 83402 10084 20062 40165 57007 69901 72160 885// 333 10098;
0137590460999992000011321004+24350+109400FM-12+009799999V0200201N002010120019N0150001N1+00821+00621101541ADDAA124000391GF108991081051012501999999MD1710111+9999REMSYN074    AAXX  13211 59046 42665 80202 10082 20062 40154 57011 885// 333 70003;
0169590460999992000011400004+24350+109400FM-12+009799999V0203401N001010042019N0020001N1+00781+00721101671ADDAA106000191AY161061GF108991081051004501999999MD1210131-0201MW1601REMSYN092    AAXX  14001 59046 11420 83401 10078 20072 40167 52013 69911 76060 885// 333 05200 70004;
0136590460999992000011403004+24350+109400FM-12+009799999V0200401N002010120019N0070001N1+00861+00691101751ADDAY161031GF108991081081008001999999MD1210081+9999MW1101REMSYN070    AAXX  14031 59046 41557 80402 10086 20069 40175 52008 71060 888//;
0176590460999992000011406004+24350+109400FM-12+009799999V0200201N002010042019N0050001N1+00881+00821101391ADDAA106000791AY161061GF108991081051004501999999KA1999N+00781MD1710351+9999MW1601REMSYN086    AAXX  14061 59046 11450 80202 10088 20082 40139 57035 69901 76060 885// 333 20078;
0144590460999992000011409004+24350+109400FM-12+009799999V0203201N001010042019N0050001N1+00871+00831101261ADDAY161031AY261031GF108991081051004501999999MD1710131+9999MW1601REMSYN070    AAXX  14091 59046 41450 83201 10087 20083 40126 57013 76066 885//;
0161590460999992000011412004+24350+109400FM-12+009799999V0203401N002010042019N0050001N1+00871+00811101361ADDAA106000191AY161061AY261061GF108991081051004501999999MD1210091+9999MW1601REMSYN076    AAXX  14121 59046 11450 83402 10087 20081 40136 52009 69921 76066 885//;
0176590460999992000011418004+24350+109400FM-12+009799999V0203201N002010120019N0050001N1+00881+00801101461ADDAA106000191AY161061GF108991081051012501999999KA1999M+00921MD1710011+9999MW1101REMSYN086    AAXX  14181 59046 11650 83202 10088 20080 40146 57001 69911 71060 885// 333 10092;
0157590460999992000011421004+24350+109400FM-12+009799999V0200201N002010075019N0050001N1+00861+00801101381ADDAA124000591AY161031GF108991081051008001999999MD1710081+9999MW1601REMSYN080    AAXX  14211 59046 41550 80202 10086 20080 40138 57008 76060 885// 333 70004;
0169590460999992000011500004+24350+109400FM-12+009799999V0200401N002010042019N0080001N1+00841+00781101591ADDAA106000791AY161061GF108991081051004501999999MD1210201-0101MW1601REMSYN092    AAXX  15001 59046 11458 80402 10084 20078 40159 52020 69901 76060 885// 333 05101 70003;
0136590460999992000011503004+24350+109400FM-12+009799999V0203201N001010042019N0060001N1+00851+00791101751ADDAY161031GF108991081051004501999999MD1210161+9999MW1601REMSYN070    AAXX  15031 59046 41456 83201 10085 20079 40175 52016 76060 885//;
0176590460999992000011506004+24350+109400FM-12+009799999V0203401N003010042019N0040001N1+00871+00811101491ADDAA106000191AY161061GF108991081051004501999999KA1999N+00841MD1710261+9999MW1601REMSYN086    AAXX  15061 59046 11440 83403 10087 20081 40149 57026 69911 76060 885// 333 20084;
0144590460999992000011509004+24350+109400FM-12+009799999V0203201N002010042019N0030001N1+00831+00771101471ADDAY161031AY261031GF108991081071004501999999MD1710021+9999MW1601REMSYN070    AAXX  15091 59046 41430 83202 10083 20077 40147 57002 76066 887//;
0161590460999992000011512004+24350+109400FM-12+009799999V0200401N002010042019N0050001N1+00781+00651101651ADDAA106000591AY161061AY261061GF108991081051004501999999MD1210181+9999MW1601REMSYN076    AAXX  15121 59046 11450 80402 10078 20065 40165 52018 69941 76066 885//;
0176590460999992000011518004+24350+109400FM-12+009799999V0203201N005010042019N0050001N1+00681+00591101981ADDAA106000191AY161061GF108991081051004501999999KA1999M+00901MD1210131+9999MW1601REMSYN086    AAXX  15181 59046 11450 83205 10068 20059 40198 52013 69921 76060 885// 333 10090;
0137590460999992000011521004+24350+109400FM-12+009799999V0203401N003019999999N0050001N1+00621+00461102021ADDAA124001091GF108991999999004501999999MD1210041+9999REMSYN074    AAXX  15211 59046 4/450 83403 10062 20046 40202 52004 76066 333 70009;
0177590460999992000011600004+24350+109400FM-12+009799999V0203201N003010042019N0180001N1+00601+00411102201ADDAA106000591AY161061AY261061GF108991081051004501999999MD1210181+0601MW1601REMSYN092    AAXX  16001 59046 11468 83203 10060 20041 40220 52018 69941 76066 885// 333 00652 70011;
0136590460999992000011603004+24350+109400FM-12+009799999V0203401N003010042019N0200001N1+00661+00381102401ADDAY161031GF108991081051004501999999MD1210201+9999MW1001REMSYN070    AAXX  16031 59046 41470 83403 10066 20038 40240 52020 70060 885//;
0176590460999992000011606004+24350+109400FM-12+009799999V0203201N003010042019N0250001N1+00681+00351102101ADDAA106000791AY161061GF108991081051004501999999KA1999N+00601MD1710301+9999MW1211REMSYN086    AAXX  16061 59046 11475 83203 10068 20035 40210 57030 69901 72160 885// 333 20060;
0136590460999992000011609004+24350+109400FM-12+009799999V0203201N002010042019N0200001N1+00661+00381102031ADDAY161031GF108991081051004501999999MD1710071+9999MW1601REMSYN070    AAXX  16091 59046 41470 83202 10066 20038 40203 57007 76060 885//;
0153590460999992000011612004+24350+109400FM-12+009799999V0203201N002010120019N0150001N1+00611+00301102161ADDAA106000791AY161061GF108991081051012501999999MD1210131+9999MW1001REMSYN076    AAXX  16121 59046 11665 83202 10061 20030 40216 52013 69901 70060 885//;
0176590460999992000011618004+24350+109400FM-12+009799999V0202901N003010042019N0110001N1+00511+00181102471ADDAA106000791AY161061GF108991081051004501999999KA1999M+00711MD1210091+9999MW1601REMSYN086    AAXX  16181 59046 11461 82903 10051 20018 40247 52009 69901 76060 885// 333 10071;
0165590460999992000011621004+24350+109400FM-12+009799999V0203601N003010042019N0150001N1+00461+00211102421ADDAA124000591AY161031AY261031GF108991081051004501999999MD1710051+9999MW1601REMSYN080    AAXX  16211 59046 41465 83603 10046 20021 40242 57005 76066 885// 333 70004;
0195590460999992000011700004+24350+109400FM-12+009799999V0203201N002010042019N0250001N1+00501+00141102581ADDAA106000191AY161061AY261061GF108991081051004501999999IA2999+00459MD1210161+0401MW1601REMSYN098    AAXX  17001 59046 11475 83202 10050 20014 40258 52016 69921 76066 885// 333 00451 30045 70002;
0136590460999992000011703004+24350+109400FM-12+009799999V0202901N002010042019N0250001N1+00551+00121102781ADDAY161031GF108991081051004501999999MD1210201+9999MW1211REMSYN070    AAXX  17031 59046 41475 82902 10055 20012 40278 52020 72160 885//;
0176590460999992000011706004+24350+109400FM-12+009799999V0203201N003010120019N0250001N1+00601+00091102541ADDAA106000791AY161061GF108991081081008001999999KA1999N+00461MD1710241+9999MW1001REMSYN086    AAXX  17061 59046 11575 83203 10060 20009 40254 57024 69901 70060 888// 333 20046;
0116590460999992000011709004+24350+109400FM-12+009799999V0203601N002010120019N0200001N1+00621+00111102421ADDGF108991081051012501999999MD1710121+9999REMSYN064    AAXX  17091 59046 42670 83602 10062 20011 40242 57012 885//;
0127590460999992000011712004+24350+109400FM-12+009799999V0200201N002010120019N0200001N1+00561+00071102541ADDAA199000021GF108991081051012501999999MD1210121+9999REMSYN064    AAXX  17121 59046 32670 80202 10056 20007 40254 52012 885//;
0176590460999992000011718004+24350+109400FM-12+009799999V0203401N003010042019N0150001N1+00481+00201102761ADDAA106000791AY161061GF108991081051004501999999KA1999M+00631MD1210031+9999MW1601REMSYN086    AAXX  17181 59046 11465 83403 10048 20020 40276 52003 69901 76060 885// 333 10063;
0157590460999992000011721004+24350+109400FM-12+009799999V0203401N002010120019N0120001N1+00521+00171102691ADDAA124000791AY161031GF108991081051012501999999MD1710071+9999MW1001REMSYN080    AAXX  17211 59046 41662 83402 10052 20017 40269 57007 70060 885// 333 79999;
0187590460999992000011800004+24350+109400FM-12+009799999V0203401N002010120019N0110001N1+00581+00121102851ADDAA106000791AY161061GF108991081051012501999999IA2999+00449MD1210161+0301MW1001REMSYN098    AAXX  18001 59046 11661 83402 10058 20012 40285 52016 69901 70060 885// 333 00301 30044 79999;
0116590460999992000011803004+24350+109400FM-12+009799999V0203601N003010120019N0150001N1+00821+00101103001ADDGF107991071051012501999999MD1210151+9999REMSYN064    AAXX  18031 59046 42665 73603 10082 20010 40300 52015 875//;
0150590460999992000011806004+24350+109400FM-12+009799999V0200401N005010120019N0300001N1+01081+00091102631ADDAA199000021GF107991071081008001999999KA1999N+00471MD1710361+9999REMSYN074    AAXX  18061 59046 32580 70405 10108 20009 40263 57036 878// 333 20047;
0116590460999992000011809004+24350+109400FM-12+009799999V0203401N003012200019N0300001N1+01241+00131102501ADDGF101991011001999999031001MD1710131+9999REMSYN064    AAXX  18091 59046 42980 13403 10124 20013 40250 57013 81030;
0156590460999992000011812004+24350+109400FM-12+009799999V0200401N002012200019N0250001N1+01001+00251102691ADDAA199000091GA1001+999999999GF100991001001999999001001MD1210191+9999REMSYN058    AAXX  18121 59046 32975 00402 10100 20025 40269 52019;EQDQ01  00002PRCP99
0169590460999992000011818004+24350+109400FM-12+009799999V0200701N002019999999N0150001N1+00581+00341102771ADDAA199000091GF106991061001999999031001KA1999M+01291MD1710091+9999REMSYN074    AAXX  18181 59046 32965 60702 10058 20034 40277 57009 86030 333 10129;EQDQ01  00002PRCP99
0116590460999992000011821004+24350+109400FM-12+009799999V0200401N001019999999N0150001N1+00701+00271102701ADDGF106991061001999999031001MD1710071+9999REMSYN064    AAXX  18211 59046 42965 60401 10070 20027 40270 57007 86030;
0174590460999992000011900004+24350+109400FM-12+009799999V0203601N002010120019N0080001N1+00721+00261102861ADDAA199000091GF107991071051012501999999IA2999+00109MD1210161+0001REMSYN080    AAXX  19001 59046 36658 73602 10072 20026 40286 52016 875// 333 00001 30011;EQDQ01  00002PRCP99
0136590460999992000011903004+24350+109400FM-12+009799999V0200401N003010150019N0200001N1+00921+00111103001ADDAY161031GF107991071051017501999999MD1210141+9999MW1211REMSYN070    AAXX  19031 59046 41770 70403 10092 20011 40300 52014 72160 875//;
0176590460999992000011906004+24350+109400FM-12+009799999V0200401N004019999999N0300001N1+01221-00291102641ADDAA106000791AY161061GF107991071001999999031999KA1999N+00551MD1710361+9999MW1001REMSYN086    AAXX  19061 59046 11980 70404 10122 21029 40264 57036 69901 70060 8703/ 333 20055;
0126590460999992000011909004+24350+109400FM-12+009799999V0200901N002012200019N0300001N1+01361-00271102391ADDGA1001+999999999GF100991001001999999001001MD1710241+9999REMSYN058    AAXX  19091 59046 42980 00902 10136 21027 40239 57024;
0137590460999992000011912004+24350+109400FM-12+009799999V0200701N003012200019N0200001N1+01061-00141102511ADDAA199000021GA1001+999999999GF100991001001999999001001MD1210111+9999REMSYN058    AAXX  19121 59046 32970 00703 10106 21014 40251 52011;
0152590460999992000011918004+24350+109400FM-12+009799999V0200701N003012200019N0200001N1+01061-00141102511ADDAA199000091GA1001+999999999GF100991001001999999001001MD1210111+9999REMSYN054AAXX  19181 59046 32970 00703 10106 21014 40251 52011;EQDQ01  00002PRCP99
0133590460999992000011921004+24350+109400FM-12+009799999V0203401N001019999999N0200001N1+00681-00221102661ADDAA124000791GF105991051001999999031001MD1710101+9999REMSYN070AAXX  19211 59046 42970 53401 10068 21022 40266 57010 85030 333 79999;
0157590460999992000012000004+24350+109400FM-12+009799999V0203201N002019999999N0150001N1+00681-00191102821ADDAA124000791GF107991071001999999031999IA2999+00179MD1210151+0001REMSYN082AAXX  20001 59046 32965 73202 10068 21019 40282 52015 8703/ 333 00000 30017 79999;
0112590460999992000012003004+24350+109400FM-12+009799999V0200901N002019999999N0150001N1+00981-00061102761ADDGF105991051001999999031001MD1710061+9999REMSYN060AAXX  20031 59046 42965 50902 10098 21006 40276 57006 85030;
0175590460999992000012006004+24350+109400FM-12+009799999V0202701N002012200019N0150001N1+01451+00071102441ADDAA199000091GA1001+999999999GF100991001001999999001001KA1999N+00631MD1710311+9999REMSYN064AAXX  20061 59046 32965 02702 10145 20007 40244 57031 333 20063;EQDQ01  00002PRCP99
0112590460999992000012009004+24350+109400FM-12+009799999V0202701N001010150019N0200001N1+01501+00051102311ADDGF107991071051017501999999MD1710131+9999REMSYN060AAXX  20091 59046 42770 72701 10150 20005 40231 57013 875//;
0142590460999992000012012004+24350+109400FM-12+009799999V0200401N002010120019N0150001N1+01361+00161102441ADDAA199000091GF108991081051012501999999MD1210131+9999REMSYN060AAXX  20121 59046 32665 80402 10136 20016 40244 52013 885//;EQDQ01  00002PRCP99
0165590460999992000012018004+24350+109400FM-12+009799999V0209999C000010120019N0150001N1+01191+00211102561ADDAA199000091GF108991081051012501999999KA1999M+01601MD1210011+9999REMSYN070AAXX  20181 59046 32665 80000 10119 20021 40256 52001 885// 333 10160;EQDQ01  00002PRCP99
0112590460999992000012021004+24350+109400FM-12+009799999V0200401N002010120019N0150001N1+01071+00101102491ADDGF108991081051012501999999MD1710071+9999REMSYN060AAXX  20211 59046 42665 80402 10107 20010 40249 57007 885//;
0152590460999992000012100004+24350+109400FM-12+009799999V0200701N002010120019N0150001N1+01041+00121102611ADDAA199000091GF108991081051012501999999MD1210121+0021REMSYN070AAXX  21001 59046 32665 80702 10104 20012 40261 52012 885// 333 05204;EQDQ01  00002PRCP99
0112590460999992000012103004+24350+109400FM-12+009799999V0200401N003010150019N0120001N1+01211+00151102721ADDGF108991081051017501999999MD1210111+9999REMSYN060AAXX  21031 59046 42762 80403 10121 20015 40272 52011 885//;
0165590460999992000012106004+24350+109400FM-12+009799999V0202701N001010150019N0150001N1+01521+00341102341ADDAA199000091GF107991071051017501999999KA1999N+01041MD1710381+9999REMSYN070AAXX  21061 59046 32765 72701 10152 20034 40234 57038 875// 333 20104;EQDQ01  00002PRCP99
0112590460999992000012109004+24350+109400FM-12+009799999V0200401N002010120019N0110001N1+01541+00371102211ADDGF108991081051012501999999MD1710131+9999REMSYN060AAXX  21091 59046 42661 80402 10154 20037 40221 57013 885//;
0142590460999992000012112004+24350+109400FM-12+009799999V0200701N002010120019N0150001N1+01391+00461102271ADDAA199000091GF108991081051012501999999MD1210061+9999REMSYN060AAXX  21121 59046 32665 80702 10139 20046 40227 52006 885//;EQDQ01  00002PRCP99
0165590460999992000012118004+24350+109400FM-12+009799999V0200401N002010120019N0120001N1+01241+00501102331ADDAA199000091GF108991081051012501999999KA1999M+01591MD1710021+9999REMSYN070AAXX  21181 59046 32662 80402 10124 20050 40233 57002 885// 333 10159;EQDQ01  00002PRCP99
0112590460999992000012121004+24350+109400FM-12+009799999V0209999C000010120019N0120001N1+01211+00671102211ADDGF108991081051012501999999MD1710121+9999REMSYN060AAXX  21211 59046 42662 80000 10121 20067 40221 57012 885//;
0165590460999992000012200004+24350+109400FM-12+009799999V0209999C000010120019N0030001N1+01201+00651102311ADDAA106000791AY161061GF108991081051012501999999MD1210091-0301MW1041REMSYN088AAXX  22001 59046 11630 80000 10120 20065 40231 52009 69901 70460 885// 333 05302 79999;
0124590460999992000012203004+24350+109400FM-12+009799999V0202701N001010120019N0030001N1+01421+00781102391ADDGF108991081051012501999999MD1210081+9999MW1041REMSYN066AAXX  22031 59046 41630 82701 10142 20078 40239 52008 70400 885//;
0177590460999992000012206004+24350+109400FM-12+009799999V0203401N002010150019N0030001N1+01821+00971101991ADDAA199000091GF107991071051017501999999KA1999N+01201MD1710381+9999MW1041REMSYN076AAXX  22061 59046 31730 73402 10182 20097 40199 57038 70400 875// 333 20120;EQDQ01  00002PRCP99
0124590460999992000012209004+24350+109400FM-12+009799999V0203401N001010150019N0030001N1+01761+01011101851ADDGF107991071051017501999999MD1710141+9999MW1041REMSYN066AAXX  22091 59046 41730 73401 10176 20101 40185 57014 70400 875//;
0154590460999992000012212004+24350+109400FM-12+009799999V0200401N002010150019N0030001N1+01541+01011101931ADDAA199000091GF107991071051017501999999MD1210071+9999MW1101REMSYN066AAXX  22121 59046 31730 70402 10154 20101 40193 52007 71000 875//;EQDQ01  00002PRCP99
0177590460999992000012218004+24350+109400FM-12+009799999V0203201N002010150019N0080001N1+01261+00951101981ADDAA199000091GF108991081051017501999999KA1999M+01831MD1210011+9999MW1101REMSYN076AAXX  22181 59046 31758 83202 10126 20095 40198 52001 71000 885// 333 10183;EQDQ01  00002PRCP99
0145590460999992000012221004+24350+109400FM-12+009799999V0203401N001010150019N0080001N1+01181+00901101871ADDAA124000791GF108991081051017501999999MD1710121+9999MW1101REMSYN076AAXX  22211 59046 41758 83401 10118 20090 40187 57012 71000 885// 333 79999;
0164590460999992000012300004+24350+109400FM-12+009799999V0200401N001010120019N0040001N1+01201+00881101981ADDAA199000091GF108991081051012501999999MD1210111+0031MW1101REMSYN076AAXX  23001 59046 31640 80401 10120 20088 40198 52011 71000 885// 333 05300;EQDQ01  00002PRCP99
0132590460999992000012303004+24350+109400FM-12+009799999V0203401N001010150019N0030001N1+01341+00991102091ADDAY161031GF108991081051017501999999MD1210101+9999MW1101REMSYN066AAXX  23031 59046 41730 83401 10134 20099 40209 52010 71060 885//;
0172590460999992000012306004+24350+109400FM-12+009799999V0203401N001010150019N0040001N1+01621+01101101751ADDAA106000791AY161061GF108991081051017501999999KA1999N+01181MD1710331+9999MW1101REMSYN082AAXX  23061 59046 11740 83401 10162 20110 40175 57033 69901 71060 885// 333 20118;
0134590460999992000012309004+24350+109400FM-12+009799999V0203201N002012200019N0050001N1+01771+01191101581ADDGA1001+999999999GF100991001001999999001001MD1710161+9999MW1041REMSYN060AAXX  23091 59046 41950 03202 10177 20119 40158 57016 70400;
0142590460999992000012312004+24350+109400FM-12+009799999V0203601N002010150019N0100001N1+01541+01151101801ADDAA199000091GF107991071051017501999999MD1210211+9999REMSYN060AAXX  23121 59046 32760 73602 10154 20115 40180 52021 875//;EQDQ01  00002PRCP99
0165590460999992000012318004+24350+109400FM-12+009799999V0203601N002010150019N0100001N1+01201+00881101951ADDAA199000091GF107991071051017501999999KA1999M+01771MD1410001+9999REMSYN070AAXX  23181 59046 32760 73602 10120 20088 40195 54000 875// 333 10177;EQDQ01  00002PRCP99
0133590460999992000012321004+24350+109400FM-12+009799999V0203401N002010150019N0100001N1+01161+00811101981ADDAA124000791GF108991081051017501999999MD1210031+9999REMSYN070AAXX  23211 59046 42760 83402 10116 20081 40198 52003 885// 333 79999;
0139590460999992000012400004+24350+109400FM-12+009799999V0203401N003010150019N0120001N1+01001+00711102241ADDAA124000791GF108991081051017501999999MD1210251+0301REMSYN076AAXX  24001 59046 32762 83403 1010/ 20071 40224 52025 885// 333 00351 79999;
0112590460999992000012403004+24350+109400FM-12+009799999V0203201N002010150019N0150001N1+01061+00581102511ADDGF108991081051017501999999MD1210271+9999REMSYN060AAXX  24031 59046 42765 83202 10106 20058 40251 52027 885//;
0165590460999992000012406004+24350+109400FM-12+009799999V0203401N004010120019N0300001N1+00951+00381102501ADDAA199000091GF108991081051012501999999KA1999N+00951MD1710021+9999REMSYN070AAXX  24061 59046 32680 83404 10095 20038 40250 57002 885// 333 20095;EQDQ01  00002PRCP99
0132590460999992000012409004+24350+109400FM-12+009799999V0203401N003010120019N0080001N1+00711+00461102631ADDAY161031GF108991081051012501999999MD1210121+9999MW1601REMSYN066AAXX  24091 59046 41658 83403 10071 20046 40263 52012 76060 885//;
0149590460999992000012412004+24350+109400FM-12+009799999V0202201N002010042019N0150001N1+00711+99999102871ADDAA106000591AY161061GF108991081051004501999999MD1210241+9999MW1601REMSYN072AAXX  24121 59046 11465 82202 10071 20828 40287 52024 69951 76060 885//;
0149590460999992000012418004+24350+109400FM-12+009799999V0203201N004010150019N0180001N1+00621+00111103101ADDAA106000791AY161061GF108991081051017501999999MD1210041+9999MW1001REMSYN072AAXX  24181 59046 11768 83204 10062 20011 40310 52004 69901 70060 885//;
0133590460999992000012421004+24350+109400FM-12+009799999V0203201N003010150019N0150001N1+00581+00061103061ADDAA124000591GF108991081051017501999999MD1710041+9999REMSYN070AAXX  24211 59046 42765 83203 10058 20006 40306 57004 885// 333 70005;
0157590460999992000012500004+24350+109400FM-12+009799999V0203401N004010150019N0150001N1+00541-00051103261ADDAA124000591GF108991081051017501999999IA2999+00479MD1210191+1001REMSYN082AAXX  25001 59046 32765 83404 10054 21005 40326 52019 885// 333 01055 30047 70005;
0112590460999992000012503004+24350+109400FM-12+009799999V0200401N004010150019N0120001N1+00621-00071103461ADDGF108991081051017501999999MD1210201+9999REMSYN060AAXX  25031 59046 42762 80404 10062 21007 40346 52020 885//;
0165590460999992000012506004+24350+109400FM-12+009799999V0203401N002010150019N0150001N1+00771+00001103141ADDAA199000091GF108991081051017501999999KA1999N+00541MD1710311+9999REMSYN070AAXX  25061 59046 32765 83402 10077 20000 40314 57031 885// 333 20054;EQDQ01  00002PRCP99
0112590460999992000012509004+24350+109400FM-12+009799999V0203201N003010150019N0130001N1+00791-00071103061ADDGF108991081051017501999999MD1710081+9999REMSYN060AAXX  25091 59046 42763 83203 10079 21007 40306 57008 885//;
0142590460999992000012512004+24350+109400FM-12+009799999V0203401N003010150019N0130001N1+00641-00081103291ADDAA199000091GF108991081051017501999999MD1210221+9999REMSYN060AAXX  25121 59046 32763 83403 10064 21008 40329 52022 885//;EQDQ01  00002PRCP99
0165590460999992000012518004+24350+109400FM-12+009799999V0203401N005010150019N0120001N1+00501-00101103431ADDAA199000091GF108991081051017501999999KA1999M+00851MD1210031+9999REMSYN070AAXX  25181 59046 32762 83405 10050 21010 40343 52003 885// 333 10085;EQDQ01  00002PRCP99
0153590460999992000012521004+24350+109400FM-12+009799999V0203201N005010150019N0150001N1+00421-00201103421ADDAA124000791AY161031GF108991081051017501999999MD1710011+9999MW1001REMSYN076AAXX  25211 59046 41765 83205 10042 21020 40342 57001 70060 885// 333 79999;
0183590460999992000012600004+24350+109400FM-12+009799999V0203601N003010150019N0150001N1+00411-00151103631ADDAA106000791AY161061GF108991081051017501999999IA2999+00429MD1210201+0401MW1001REMSYN094AAXX  26001 59046 11765 83603 10041 21015 40363 52020 69901 70060 885// 333 00451 30042 79999;
0112590460999992000012603004+24350+109400FM-12+009799999V0203201N004010150019N0200001N1+00441-00211103761ADDGF108991081051017501999999MD1210131+9999REMSYN060AAXX  26031 59046 42770 83204 10044 21021 40376 52013 885//;
0165590460999992000012606004+24350+109400FM-12+009799999V0203401N004010120019N0250001N1+00561-00221103431ADDAA199000091GF108991081081008001999999KA1999N+00381MD1710321+9999REMSYN070AAXX  26061 59046 32575 83404 10056 21022 40343 57032 888// 333 20038;EQDQ01  00002PRCP99
0112590460999992000012609004+24350+109400FM-12+009799999V0203201N004010120019N0180001N1+00581-00161103431ADDGF108991081051012501999999MD1410001+9999REMSYN060AAXX  26091 59046 42668 83204 10058 21016 40343 54000 885//;
0136590460999992000012612004+24350+109400FM-12+009799999V0203201N003010150019N0250001N1+00481+99999103511ADDAA199000091GF108991081051017501999999MD1210071+9999REMSYN054AAXX  26121 59046 32775 83203 10048 40351 52007 885//;EQDQ01  00002PRCP99
0172590460999992000012618004+24350+109400FM-12+009799999V0203401N002010150019N0200001N1+00421-00311103561ADDAA106000791AY161061GF108991081051017501999999KA1999M+00701MD1710101+9999MW1001REMSYN082AAXX  26181 59046 11770 83402 10042 21031 40356 57010 69901 70060 885// 333 10070;
0133590460999992000012621004+24350+109400FM-12+009799999V0203401N002019999999N0150001N1+00391-00311103491ADDAA124000791GF107991071031999999999999MD1710071+9999REMSYN070AAXX  26211 59046 42965 73402 10039 21031 40349 57007 873// 333 79999;
0169590460999992000012700004+24350+109400FM-12+009799999V0203201N001012200019N0060001N1+00381-00291103621ADDAA124000791GF104991041001999999031001IA2999+00219MD1210131+0001MW1041REMSYN088AAXX  27001 59046 31956 43201 10038 21029 40362 52013 70400 84030 333 00000 30021 79999;
0124590460999992000012703004+24350+109400FM-12+009799999V0200701N004012200019N0060001N1+00681-00341103651ADDGF101991011001999999031001MD1210041+9999MW1041REMSYN066AAXX  27031 59046 41956 10704 10068 21034 40365 52004 70400 81030;
0165590460999992000012706004+24350+109400FM-12+009799999V0200701N005012200019N0120001N1+00941-00391103211ADDAA199000091GF103991031001999999031001KA1999N+00381MD1710431+9999REMSYN070AAXX  27061 59046 32962 30705 10094 21039 40321 57043 83030 333 20038;EQDQ01  00002PRCP99
0112590460999992000012709004+24350+109400FM-12+009799999V0200401N004012200019N0150001N1+00971-00371102971ADDGF103991031001999999031001MD1710241+9999REMSYN060AAXX  27091 59046 42965 30404 10097 21037 40297 57024 83030;
0142590460999992000012712004+24350+109400FM-12+009799999V0200701N003019999999N0150001N1+00801-00341103021ADDAA199000091GF106991061001999999031001MD1210041+9999REMSYN060AAXX  27121 59046 32965 60703 10080 21034 40302 52004 86030;EQDQ01  00002PRCP99
0142590460999992000012718004+24350+109400FM-12+009799999V0200401N002010150019N0150001N1+00641-00651103091ADDAA199000091GF108991081051017501999999MD1710051+9999REMSYN060AAXX  27181 59046 32765 80402 10064 21065 40309 57005 885//;EQDQ01  00002PRCP99
0112590460999992000012721004+24350+109400FM-12+009799999V0200401N003010150019N0120001N1+00601-00461102991ADDGF108991081051017501999999MD1710101+9999REMSYN060AAXX  27211 59046 42762 80403 10060 21046 40299 57010 885//;
0170590460999992000012800004+24350+109400FM-12+009799999V0200201N002010120019N0100001N1+00601-00461103141ADDAA199000091GF108991081051012501999999IA2999+00309MD1210151-0501REMSYN076AAXX  28001 59046 32660 80202 10060 21046 40314 52015 885// 333 05502 30036;EQDQ01  00002PRCP99
0112590460999992000012803004+24350+109400FM-12+009799999V0200401N003010150019N0100001N1+00731-00461103241ADDGF108991081051017501999999MD1210101+9999REMSYN060AAXX  28031 59046 42760 80403 10073 21046 40324 52010 885//;
0165590460999992000012806004+24350+109400FM-12+009799999V0203201N003019999999N0130001N1+00901-00371102871ADDAA199000091GF107991071001999999031999KA1999N+00601MD1710371+9999REMSYN070AAXX  28061 59046 32963 73203 10090 21037 40287 57037 8703/ 333 20060;EQDQ01  00002PRCP99
0112590460999992000012809004+24350+109400FM-12+009799999V0203401N001010150019N0120001N1+00841-00161102711ADDGF108991081051017501999999MD1710161+9999REMSYN060AAXX  28091 59046 42762 83401 10084 21016 40271 57016 885//;
0142590460999992000012812004+24350+109400FM-12+009799999V0203401N002010150019N0120001N1+00801-00151102811ADDAA199000091GF108991081051017501999999MD1210101+9999REMSYN060AAXX  28121 59046 32762 83402 10080 21015 40281 52010 885//;EQDQ01  00002PRCP99
0165590460999992000012818004+24350+109400FM-12+009799999V0203401N002010150019N0120001N1+00731-00021102981ADDAA199000091GF108991081051017501999999KA1999M+00921MD1710011+9999REMSYN070AAXX  28181 59046 32762 83402 10073 21002 40298 57001 885// 333 10092;EQDQ01  00002PRCP99
0086590460999992000012821004+24350+109400FM-12+009799999V0200401N002019999999N0120001N1+00681-00021103011ADDGF108991999999017501999999REMSYN048AAXX  28211 59046 42762 80402 10068 21002 40301;
0152590460999992000012900004+24350+109400FM-12+009799999V0203401N003010150019N0100001N1+00641+00021103291ADDAA199000091GF108991081051017501999999MD1210281+0021REMSYN070AAXX  29001 59046 32760 83403 10064 20002 40329 52028 885// 333 00200;EQDQ01  00002PRCP99
0132590460999992000012903004+24350+109400FM-12+009799999V0203401N002010120019N0080001N1+00591+00101103521ADDAY161031GF108991081051012501999999MD1210221+9999MW1601REMSYN066AAXX  29031 59046 41658 83402 10059 20010 40352 52022 76060 885//;
0166590460999992000012906004+24350+109400FM-12+009799999V0203201N003019999999N0100001N1+00721+00001103271ADDAA106000791AY161061GF108991999999012501999999KA1999N+00591MD1710241+9999MW1001REMSYN076AAXX  29061 59046 11660 83203 10072 20000 40327 57024 69901 70060 333 20059;
0112590460999992000012909004+24350+109400FM-12+009799999V0203401N002010120019N0100001N1+00801-00091103191ADDGF108991081051012501999999MD1710081+9999REMSYN060AAXX  29091 59046 42660 83402 10080 21009 40319 57008 885//;
0123590460999992000012912004+24350+109400FM-12+009799999V0200401N002010120019N0100001N1+00791-00041103391ADDAA199000021GF108991081051012501999999MD1210201+9999REMSYN060AAXX  29121 59046 32660 80402 10079 21004 40339 52020 885//;
0165590460999992000012918004+24350+109400FM-12+009799999V0203401N002010120019N0110001N1+00661-00091103541ADDAA199000091GF108991081051012501999999KA1999M+00811MD1710051+9999REMSYN070AAXX  29181 59046 32661 83402 10066 21009 40354 57005 885// 333 10081;EQDQ01  00002PRCP99
0133590460999992000012921004+24350+109400FM-12+009799999V0200401N001010120019N0110001N1+99999+99999103501ADDAA124000791GF108991081051012501999999MD1710041+9999REMSYN070AAXX  29211 59046 42661 80401 1/063 20000 40350 57004 885// 333 79999;
0157590460999992000013000004+24350+109400FM-12+009799999V0203401N002010150019N0110001N1+00621-00141103611ADDAA124000791GF107991071051017501999999IA2999+00329MD1210111+0301REMSYN082AAXX  30001 59046 32761 73402 10062 21014 40361 52011 875// 333 00300 30032 79999;
0112590460999992000013003004+24350+109400FM-12+009799999V0200401N005010150019N0120001N1+00791-00321103701ADDGF108991081051017501999999MD1210091+9999REMSYN060AAXX  30031 59046 42762 80405 10079 21032 40370 52009 885//;
0165590460999992000013006004+24350+109400FM-12+009799999V0203201N003010210019N0250001N1+01091-00251103321ADDAA199000091GF107991071051022501999999KA1999N+00621MD1710371+9999REMSYN070AAXX  30061 59046 32875 73203 10109 21025 40332 57037 875// 333 20062;EQDQ01  00002PRCP99
0112590460999992000013009004+24350+109400FM-12+009799999V0203401N003019999999N0250001N1+01171-00151103161ADDGF107991071001999999031999MD1710151+9999REMSYN060AAXX  30091 59046 42975 73403 10117 21015 40316 57015 8703/;
0128590460999992000013012004+24350+109400FM-12+009799999V0203401N005019999999N0200001N1+00901-00341103391ADDAA199000091GF108991999999017501999999REMSYN060AAXX  30121 59046 32770 83405 10090 21034 40339 92022 885//;EQDQ01  00002PRCP99
0165590460999992000013018004+24350+109400FM-12+009799999V0203401N004010150019N0200001N1+00801-00341103441ADDAA199000091GF108991081051017501999999KA1999M+01251MD1710041+9999REMSYN070AAXX  30181 59046 32770 83404 10080 21034 40344 57004 885// 333 10125;EQDQ01  00002PRCP99
0112590460999992000013021004+24350+109400FM-12+009799999V0203201N004010150019N0200001N1+00671-00321103421ADDGF108991081051017501999999MD1710021+9999REMSYN060AAXX  30211 59046 42770 83204 10067 21032 40342 57002 885//;
0140590460999992000013103004+24350+109400FM-12+009799999V0203401N003010120019N0060001N1+00201+00041103811ADDAY171031AY261031GF108991081051012501999999MD1210151+9999MW1701REMSYN066AAXX  31031 59046 41656 83403 10020 20004 40381 52015 77076 885//;
0180590460999992000013106004+24350+109400FM-12+009799999V0203201N003010120019N0060001N1+00211-00011103561ADDAA106000891AY171061AY261061GF108991081051012501999999KA1999N+00201MD1710251+9999MW1701REMSYN082AAXX  31061 59046 11656 83203 10021 21001 40356 57025 69981 77076 885// 333 20020;
0140590460999992000013109004+24350+109400FM-12+009799999V0203201N002010042019N0040001N1+00211+00021103501ADDAY171031AY261031GF108991081051004501999999MD1710061+9999MW1601REMSYN066AAXX  31091 59046 41440 83202 10021 20002 40350 57006 76076 885//;
0157590460999992000013112004+24350+109400FM-12+009799999V0203401N003010042019N9999999N1+00241+00021103571ADDAA106003091AY171061AY261061GF108991081051004501999999MD1210071+9999MW1211REMSYN072AAXX  31121 59046 114/0 83403 10024 20002 40357 52007 60031 72176 885//;
0146590460999992000013118004+24350+109400FM-12+009799999V0202901N002010150019N0150001N1+00281-00111103551ADDAA199000021GF108991081051017501999999KA1999M+00801MD1710081+9999REMSYN070AAXX  31181 59046 32765 82902 10028 21011 40355 57008 885// 333 10080;
0133590460999992000013121004+24350+109400FM-12+009799999V0203201N002010120019N0150001N1+00241-00131103391ADDAA124004391GF108991081051012501999999MD1710161+9999REMSYN070AAXX  31211 59046 42665 83202 10024 21013 40339 57016 885// 333 70042;
0157590460999992000020100004+24350+109400FM-12+009799999V0203401N004010120019N0120001N1+00241-00161103511ADDAA124004391GF108991081051012501999999IA2999+00229MD1210121-0201REMSYN082AAXX  01001 59046 32662 83404 10024 21016 40351 52012 885// 333 05252 30022 70042;
0112590460999992000020103004+24350+109400FM-12+009799999V0203401N002010120019N0150001N1+00411-00081103521ADDGF108991081081008001999999MD1210021+9999REMSYN060AAXX  01031 59046 42565 83402 10041 21008 40352 52002 888//;
0165590460999992000020106004+24350+109400FM-12+009799999V0203401N002010150019N0120001N1+00751+00071103121ADDAA199000091GF106991061051017501001001KA1999N+00161MD1710391+9999REMSYN070AAXX  01061 59046 32762 63402 10075 20007 40312 57039 86500 333 20016;EQDQ01  00002PRCP99
0112590460999992000020109004+24350+109400FM-12+009799999V0203201N003012200019N0120001N1+00791+00061102911ADDGF102991021051022501001001MD1710211+9999REMSYN060AAXX  01091 59046 42862 23203 10079 20006 40291 57021 82500;
0152590460999992000020112004+24350+109400FM-12+009799999V0200201N002012200019N0120001N1+00501+00031102921ADDAA199000091GA1001+999999999GF100991001001999999001001MD1210011+9999REMSYN054AAXX  01121 59046 32962 00202 10050 20003 40292 52001;EQDQ01  00002PRCP99
0162590460999992000020118004+24350+109400FM-12+009799999V0203601N002012200019N0150001N1+00191-00061102931ADDAA199000091GA1001+999999999GF100991001001999999001001MD1710041+9999REMSYN064AAXX  01181 59046 32965 03602 10019 21006 40293 57004 333 10/15;EQDQ01  00002PRCP99
0134590460999992000020121004+24350+109400FM-12+009799999V0203601N001012200019N0080001N1+00101-00071102841ADDGA1001+999999999GF100991001001999999001001MD1710071+9999MW1101REMSYN060AAXX  01211 59046 41958 03601 10010 21007 40284 57007 71000;
0182590460999992000020200004+24350+109400FM-12+009799999V0200201N001012200019N0060001N1+00111-00031102991ADDAA199000091GF102991021001999999031001IA2999-00209MD1210141-0501MW1101REMSYN082AAXX  02001 59046 31956 20201 10011 21003 40299 52014 71000 82030 333 05551 31029;EQDQ01  00002PRCP99
0134590460999992000020203004+24350+109400FM-12+009799999V0200701N003012200019N0080001N1+00661+00041103051ADDGA1001+999999999GF100991001001999999001001MD1210071+9999MW1041REMSYN060AAXX  02031 59046 41958 00703 10066 20004 40305 52007 70400;
0175590460999992000020206004+24350+109400FM-12+009799999V0200401N003012200019N0170001N1+01031+00231102611ADDAA199000091GA1001+999999999GF100991001001999999001001KA1999N+00051MD1710431+9999REMSYN064AAXX  02061 59046 32967 00403 10103 20023 40261 57043 333 20005;EQDQ01  00002PRCP99
0122590460999992000020209004+24350+109400FM-12+009799999V0200201N003012200019N0250001N1+01321+00311102261ADDGA1001+999999999GF100991001001999999001001MD1710341+9999REMSYN054AAXX  02091 59046 42975 00203 10132 20031 40226 57034;
0152590460999992000020212004+24350+109400FM-12+009799999V0203601N002012200019N0200001N1+00991+00371102351ADDAA199000091GA1001+999999999GF100991001001999999001001MD1210081+9999REMSYN054AAXX  02121 59046 32970 03602 10099 20037 40235 52008;EQDQ01  00002PRCP99
0175590460999992000020218004+24350+109400FM-12+009799999V0203401N002012200019N0120001N1+00521+00191102641ADDAA199000091GA1001+999999999GF100991001001999999001001KA1999M+01351MD1210091+9999REMSYN064AAXX  02181 59046 32962 03402 10052 20019 40264 52009 333 10135;EQDQ01  00002PRCP99
0134590460999992000020221004+24350+109400FM-12+009799999V0200401N002012200019N0070001N1+00381+00181102581ADDGA1001+999999999GF100991001001999999001001MD1710061+9999MW1101REMSYN060AAXX  02211 59046 41957 00402 10038 20018 40258 57006 71000;
0192590460999992000020300004+24350+109400FM-12+009799999V0200201N001012200019N0030001N1+00341+00191102681ADDAA199000091GA1001+999999999GF100991001001999999001001IA2999+00009MD1210091-0301MW1101REMSYN076AAXX  03001 59046 31930 00201 10034 20019 40268 52009 71000 333 05302 31003;EQDQ01  00002PRCP99
0134590460999992000020303004+24350+109400FM-12+009799999V0209999C000012200019N0030001N1+00841+00321102711ADDGA1001+999999999GF100991001001999999001001MD1210041+9999MW1101REMSYN060AAXX  03031 59046 41930 00000 10084 20032 40271 52004 71000;
0175590460999992000020306004+24350+109400FM-12+009799999V0203201N002012200019N0120001N1+01371+00491102241ADDAA199000091GA1001+999999999GF100991001001999999001001KA1999N+00331MD1710461+9999REMSYN064AAXX  03061 59046 32962 03202 10137 20049 40224 57046 333 20033;EQDQ01  00002PRCP99
0122590460999992000020309004+24350+109400FM-12+009799999V0203201N002012200019N0130001N1+01521+00561101951ADDGA1001+999999999GF100991001001999999001001MD1710291+9999REMSYN054AAXX  03091 59046 42963 03202 10152 20056 40195 57029;
0152590460999992000020312004+24350+109400FM-12+009799999V0203401N002012200019N0120001N1+01011+00401102091ADDAA199000091GA1001+999999999GF100991001001999999001001MD1210131+9999REMSYN054AAXX  03121 59046 32962 03402 10101 20040 40209 52013;EQDQ01  00002PRCP99
0133590460999992000020318004+24350+109400FM-12+009799999V0203401N002010150019N0120001N1+00751+00301102231ADDAA124015791GF107991071051017501999999MD1710011+9999REMSYN070AAXX  03181 59046 32762 73402 10075 2003/ 40223 57001 875// 333 70157;
0112590460999992000020321004+24350+109400FM-12+009799999V0203401N002010150019N0120001N1+00771+00321102161ADDGF107991071051017501999999MD1710041+9999REMSYN060AAXX  03211 59046 42762 73402 10077 20032 40216 57004 875//;
0170590460999992000020400004+24350+109400FM-12+009799999V0203401N004010150019N0150001N1+00741+00291102321ADDAA199000091GF108991081051017501999999IA2999+00409MD1210141-0401REMSYN076AAXX  04001 59046 32765 83404 10074 20029 40232 52014 885// 333 05404 30047;EQDQ01  00002PRCP99
0112590460999992000020403004+24350+109400FM-12+009799999V0203401N004010120019N0120001N1+00761+00231102511ADDGF108991081051012501999999MD1210191+9999REMSYN060AAXX  04031 59046 42662 83404 10076 20023 40251 52019 885//;
0172590460999992000020406004+24350+109400FM-12+009799999V0203401N005010120019N0100001N1+00661+00381102261ADDAA106000791AY161061GF108991081081008001999999KA1999N+00651MD1710251+9999MW1001REMSYN082AAXX  04061 59046 11560 83405 10066 20038 40226 57025 69901 70060 888// 333 20065;
0124590460999992000020409004+24350+109400FM-12+009799999V0203201N002010042019N0080001N1+00621+00411102171ADDGF108991081051004501999999MD1710091+9999MW1601REMSYN066AAXX  04091 59046 41458 83202 10062 20041 40217 57009 76000 885//;
0149590460999992000020412004+24350+109400FM-12+009799999V0203201N004010042019N0080001N1+00521+00431102391ADDAA106000791AY161061GF108991081051004501999999MD1210211+9999MW1101REMSYN072AAXX  04121 59046 11458 83204 10052 20043 40239 52021 69901 71060 885//;
0172590460999992000020418004+24350+109400FM-12+009799999V0203401N004010120019N0120001N1+00561+00281102561ADDAA106000391AY161061GF108991081051012501999999KA1999M+00781MD1210051+9999MW1001REMSYN082AAXX  04181 59046 11662 83404 10056 20028 40256 52005 69931 70060 885// 333 10078;
0133590460999992000020421004+24350+109400FM-12+009799999V0203401N003010120019N0150001N1+00561+00181102511ADDAA124000391GF108991081051012501999999MD1710051+9999REMSYN070AAXX  04211 59046 42665 83403 10056 20018 40251 57005 885// 333 70003;
0139590460999992000020500004+24350+109400FM-12+009799999V0203401N002010120019N0250001N1+00541+00191102681ADDAA124000391GF108991081081008001999999MD1210171+0401REMSYN076AAXX  05001 59046 32575 83402 10054 20019 40268 52017 888// 333 00452 70003;
0112590460999992000020503004+24350+109400FM-12+009799999V0203401N003010120019N0250001N1+00661+00161102851ADDGF108991081051012501999999MD1210171+9999REMSYN060AAXX  05031 59046 42675 83403 10066 20016 40285 52017 885//;
0165590460999992000020506004+24350+109400FM-12+009799999V0200401N003010210019N0300001N1+00891+00131102531ADDAA199000091GF107991071051022501999999KA1999N+00501MD1710311+9999REMSYN070AAXX  05061 59046 32880 70403 10089 20013 40253 57031 875// 333 20050;EQDQ01  00002PRCP99
0112590460999992000020509004+24350+109400FM-12+009799999V0200401N003010150019N0300001N1+00961+00201102351ADDGF107991071051017501999999MD1710181+9999REMSYN060AAXX  05091 59046 42780 70403 10096 20020 40235 57018 875//;
0142590460999992000020512004+24350+109400FM-12+009799999V0200401N002019999999N0250001N1+00901+00371102401ADDAA199000091GF107991011051017501999999MD1210051+9999REMSYN060AAXX  05121 59046 32775 70402 10090 20037 40240 52005 815//;EQDQ01  00002PRCP99
0151590460999992000020518004+24350+109400FM-12+009799999V0203401N002010150019N0250001N1+00761+00231102461ADDAA199000091GF108991081051017501999999MD1710051+9999REMSYN069AAXX  05181 59046 32775 83402 10076 20023 40246 57005 885// 333 1096;EQDQ01  00002PRCP99
0112590460999992000020521004+24350+109400FM-12+009799999V0203401N002010150019N0250001N1+00791+00121102351ADDGF108991081051017501999999MD1710111+9999REMSYN060AAXX  05211 59046 42775 83402 10079 20012 40235 57011 885//;
0152590460999992000020600004+24350+109400FM-12+009799999V0203401N002010150019N0250001N1+00781+00171102401ADDAA199000091GF108991081051017501999999MD1210051+0031REMSYN070AAXX  06001 59046 32775 83402 10078 20017 40240 52005 885// 333 05302;EQDQ01  00002PRCP99
0112590460999992000020603004+24350+109400FM-12+009799999V0203601N003010210019N0200001N1+01011+00141102441ADDGF107991071051022501999999MD1210041+9999REMSYN060AAXX  06031 59046 42870 73603 10101 20014 40244 52004 875//;
0175590460999992000020606004+24350+109400FM-12+009799999V0201101N002012200019N0200001N1+01421+00311102001ADDAA199000091GA1001+999999999GF100991001001999999001001KA1999N+00761MD1710421+9999REMSYN064AAXX  06061 59046 32970 01102 10142 20031 40200 57042 333 20076;EQDQ01  00002PRCP99
0112590460999992000020609004+24350+109400FM-12+009799999V0202001N001019999999N0200001N1+01591+00271101781ADDGF106991061001999999031001MD1710221+9999REMSYN060AAXX  06091 59046 42970 62001 10159 20027 40178 57022 86030;
0142590460999992000020612004+24350+109400FM-12+009799999V0203401N001010120019N0250001N1+01421+00421101861ADDAA199000091GF108991081051012501999999MD1210081+9999REMSYN060AAXX  06121 59046 32675 83401 10142 20042 40186 52008 885//;EQDQ01  00002PRCP99
0165590460999992000020618004+24350+109400FM-12+009799999V0200201N001010150019N0200001N1+01221+00481102081ADDAA199000091GF108991081051017501999999KA1999M+01601MD1210031+9999REMSYN070AAXX  06181 59046 32770 80201 10122 20048 40208 52003 885// 333 10160;EQDQ01  00002PRCP99
0112590460999992000020621004+24350+109400FM-12+009799999V0200401N002010150019N0180001N1+01171+00471102091ADDGF108991081051017501999999MD1210011+9999REMSYN060AAXX  06211 59046 42768 80402 10117 20047 40209 52001 885//;
0152590460999992000020700004+24350+109400FM-12+009799999V0200401N002010150019N0120001N1+01121+00401102231ADDAA199000091GF108991081051017501999999MD1210131+0021REMSYN070AAXX  07001 59046 32762 80402 10112 20040 40223 52013 885// 333 05203;EQDQ01  00002PRCP99
0112590460999992000020703004+24350+109400FM-12+009799999V0203401N003010150019N0180001N1+01361+00251102441ADDGF107991071051017501999999MD1210211+9999REMSYN060AAXX  07031 59046 42768 73403 10136 20025 40244 52021 875//;
0165590460999992000020706004+24350+109400FM-12+009799999V0203401N002019999999N0200001N1+01571+00071102171ADDAA199000091GF107991071001999999031999KA1999N+01121MD1710261+9999REMSYN070AAXX  07061 59046 32970 73402 10157 20007 40217 57026 8703/ 333 20112;EQDQ01  00002PRCP99
0112590460999992000020709004+24350+109400FM-12+009799999V0200401N006012200019N0280001N1+01651-00111102061ADDGF101991011011012501001001MD1710111+9999REMSYN060AAXX  07091 59046 42678 10406 10165 21011 40206 57011 81100;
0152590460999992000020712004+24350+109400FM-12+009799999V0200701N003012200019N0200001N1+01341-00231102151ADDAA199000091GA1001+999999999GF100991001001999999001001MD1210081+9999REMSYN054AAXX  07121 59046 32970 00703 10134 21023 40215 52008;EQDQ01  00002PRCP99
0175590460999992000020718004+24350+109400FM-12+009799999V0203401N002012200019N0150001N1+01011+00051102281ADDAA199000091GA1001+999999999GF100991001001999999001001KA1999M+01721MD1710041+9999REMSYN064AAXX  07181 59046 32965 03402 10101 20005 40228 57004 333 10172;EQDQ01  00002PRCP99
0112590460999992000020721004+24350+109400FM-12+009799999V0200401N002010150019N0150001N1+00951+00151102081ADDGF108991081051017501999999MD1710191+9999REMSYN060AAXX  07211 59046 42765 80402 10095 20015 40208 57019 885//;
0152590460999992000020800004+24350+109400FM-12+009799999V0200701N002010150019N0100001N1+00971-00211102241ADDAA199000091GF108991081051017501999999MD1210151+0001REMSYN070AAXX  08001 59046 32760 80702 10097 21021 40224 52015 885// 333 00052;EQDQ01  00002PRCP99
0132590460999992000020803004+24350+109400FM-12+009799999V0200401N003010120019N0110001N1+01041-00291102451ADDAY161031GF108991081051012501999999MD1210201+9999MW1001REMSYN066AAXX  08031 59046 41661 80403 10104 21029 40245 52020 70060 885//;
0172590460999992000020806004+24350+109400FM-12+009799999V0200401N004010120019N0050001N1+00921-00011102261ADDAA106000791AY161061GF108991081051012501999999KA1999N+00901MD1710191+9999MW1601REMSYN082AAXX  08061 59046 11650 80404 10092 21001 40226 57019 69901 76060 885// 333 20090;
0132590460999992000020809004+24350+109400FM-12+009799999V0203201N002010120019N0060001N1+00891+00311102091ADDAY161031GF108991081051012501999999MD1710171+9999MW1041REMSYN066AAXX  08091 59046 41656 83202 10089 20031 40209 57017 70460 885//;
0149590460999992000020812004+24350+109400FM-12+009799999V0203201N002010120019N0080001N1+00871+00361102191ADDAA106000791AY161061GF108991081051012501999999MD1210101+9999MW1101REMSYN072AAXX  08121 59046 11658 83202 10087 20036 40219 52010 69901 71060 885//;
0141590460999992000020818004+24350+109400FM-12+009799999V0203401N001019999999N9999999N1+00851+00341102211ADDGF108991081051999999999999KA1999M+01051MD1710031+9999REMSYN076AAXX  08181 59046 ///5/ 83401 10085 20034 40221 57003 71000 885// 333 10105;
0145590460999992000020821004+24350+109400FM-12+009799999V0209999C000010120019N0070001N1+00821+00301102171ADDAA124000791GF108991081051012501999999MD1710041+9999MW1101REMSYN076AAXX  08211 59046 41657 80000 10082 20030 40217 57004 71000 885// 333 79999;
0151590460999992000020900004+24350+109400FM-12+009799999V0203401N002010120019N0080001N1+00831+00291102221ADDAA124000791GF108991081051012501999999MD1210041+0001MW1041REMSYN082AAXX  09001 59046 31658 83402 10083 20029 40222 52004 70400 885// 333 00051 79999;
0112590460999992000020903004+24350+109400FM-12+009799999V0200401N002010120019N0110001N1+00961+00281102221ADDGF108991081051012501999999MD1210011+9999REMSYN060AAXX  09031 59046 42661 80402 10096 20028 40222 52001 885//;
0177590460999992000020906004+24350+109400FM-12+009799999V0200201N002010120019N0080001N1+01061+00331101921ADDAA199000091GF108991081051012501999999KA1999N+00821MD1710301+9999MW1041REMSYN076AAXX  09061 59046 31658 80202 10106 20033 40192 57030 70400 885// 333 20082;EQDQ01  00002PRCP99
0124590460999992000020909004+24350+109400FM-12+009799999V0200401N002010120019N0080001N1+01121+00461101721ADDGF108991081051012501999999MD1710191+9999MW1041REMSYN066AAXX  09091 59046 41658 80402 10112 20046 40172 57019 70400 885//;
0154590460999992000020912004+24350+109400FM-12+009799999V0203601N001010120019N0080001N1+01061+00511101821ADDAA199000091GF108991081051012501999999MD1210091+9999MW1041REMSYN066AAXX  09121 59046 31658 83601 10106 20051 40182 52009 70400 885//;EQDQ01  00002PRCP99
0141590460999992000020918004+24350+109400FM-12+009799999V0203401N002010120019N0060001N1+00971+00511101931ADDAA106000791GF108991081051012501999999MD1210041+9999MW1601REMSYN072AAXX  09181 59046 11656 83402 10097 20051 40193 52004 69901 76000 885//;
0153590460999992000020921004+24350+109400FM-12+009799999V0203201N001010120019N0040001N1+00831+00721101821ADDAA124000591AY161031GF108991081051012501999999MD1710121+9999MW1601REMSYN076AAXX  09211 59046 41640 83201 10083 20072 40182 57012 76060 885// 333 70006;
0184590460999992000021000004+24350+109400FM-12+009799999V0209999C000010120019N0030001N1+99999+99999101901ADDAA106001091AY161061GF108991081051012501999999MD1210081-0301MW1601REMSYN088AAXX  10001 59046 11630 80000 11084 20082 40190 52008 60011 76060 885// 333 05300 70011;EQDQ01-000843ATOT  
0140590460999992000021003004+24350+109400FM-12+009799999V0202901N001010120019N0030001N1+00881+00861101981ADDAY161031AY261031GF108991081051012501999999MD1210081+9999MW1601REMSYN066AAXX  10031 59046 41630 82901 10088 20086 40198 52008 76066 885//;
0180590460999992000021006004+24350+109400FM-12+009799999V0203201N001010042019N0030001N1+00911+00851101701ADDAA106003091AY161061AY261061GF108991081051004501999999KA1999N+00831MD1710281+9999MW1601REMSYN082AAXX  10061 59046 11430 83201 10091 20085 40170 57028 60031 76066 885// 333 20083;
0140590460999992000021009004+24350+109400FM-12+009799999V0203601N001010042019N0030001N1+00941+00901101591ADDAY161031AY261031GF108991081051004501999999MD1710111+9999MW1601REMSYN066AAXX  10091 59046 41430 83601 10094 20090 40159 57011 76066 885//;
0157590460999992000021012004+24350+109400FM-12+009799999V0209999C000010042019N0030001N1+00941+00921101721ADDAA106003091AY161061AY261061GF108991081051004501999999MD1210131+9999MW1601REMSYN072AAXX  10121 59046 11430 80000 10094 20092 40172 52013 60031 76066 885//;
0199590460999992000021018004+24350+109400FM-12+009799999V0200201N001010042019N0040001N1+00921+00881101821ADDAA106000591AY161061AY261061GF108991999091004501999091KA1999M+00981MD1710011+9999MW1601REMSYN082AAXX  10181 59046 11440 80201 10092 20088 40182 57001 69961 76066 889/9 333 10098;EQDQ01+000082SCOTLC
0153590460999992000021021004+24350+109400FM-12+009799999V0209999C000010042019N0040001N1+00921+00861101711ADDAA124006491AY161031GF108991081051004501999999MD1710111+9999MW1601REMSYN076AAXX  10211 59046 41440 80000 10092 20086 40171 57011 76060 885// 333 70064;
0165590460999992000021100004+24350+109400FM-12+009799999V0209999C000010042019N0040001N1+00891+00851101861ADDAA106000591AY161061GF108991081051004501999999MD1210151+0001MW1601REMSYN088AAXX  11001 59046 11440 80000 10089 20085 40186 52015 69961 76060 885// 333 00001 70064;
0140590460999992000021103004+24350+109400FM-12+009799999V0209999C000010042019N0080001N1+00961+00881101951ADDAY161031AY261031GF108991081051004501999999MD1210091+9999MW1601REMSYN066AAXX  11031 59046 41458 80000 10096 20088 40195 52009 76066 885//;
0180590460999992000021106004+24350+109400FM-12+009799999V0200401N002010042019N0080001N1+01141+00961101671ADDAA106000191AY161061AY261061GF108991081051004501999999KA1999N+00891MD1710271+9999MW1211REMSYN082AAXX  11061 59046 11458 80402 10114 20096 40167 57027 69911 72166 885// 333 20089;
0124590460999992000021109004+24350+109400FM-12+009799999V0200201N002010120019N0080001N1+01221+01031101561ADDGF108991081081008001999999MD1710111+9999MW1101REMSYN066AAXX  11091 59046 41558 80202 10122 20103 40156 57011 71000 888//;
0143590460999992000021112004+24350+109400FM-12+009799999V0209999C000010120019N0080001N1+01211+01061999999ADDAA106000791AY161061GF108991081051012501999999MD1210071+9999MW1101REMSYN066AAXX  11121 59046 11658 80000 10121 20106 52007 69901 71060 885//;
0172590460999992000021118004+24350+109400FM-12+009799999V0200401N001010120019N0100001N1+01161+01041101691ADDAA106000791AY161061GF108991081051012501999999KA1999M+01231MD1710051+9999MW1001REMSYN082AAXX  11181 59046 11660 80401 10116 20104 40169 57005 69901 70060 885// 333 10123;
0147590460999992000021121004+24350+109400FM-12+009799999V0203401N001010120019N0080001N1+99999+99999999999ADDAA124001591AY161031GF108991081051012501999999MD1710101+9999MW1601REMSYN070AAXX  11211 59046 41658 83401 1/114 20102 57010 76060 885// 333 70015;
0165590460999992000021200004+24350+109400FM-12+009799999V0203401N001010042019N0030001N1+01121+01041101651ADDAA106000191AY161061GF108991081051004501999999MD1210061-0201MW1211REMSYN088AAXX  12001 59046 11430 83401 10112 20104 40165 52006 69911 72160 885// 333 05202 70011;
0124590460999992000021203004+24350+109400FM-12+009799999V0209999C000010042019N0040001N1+01181+01051101671ADDGF108991081051004501999999MD1210031+9999MW1211REMSYN066AAXX  12031 59046 41440 80000 10118 20105 40167 52003 72100 885//;
0172590460999992000021206004+24350+109400FM-12+009799999V0200201N001010120019N0030001N1+01301+01071101401ADDAA106000791AY161061GF108991081051012501999999KA1999N+01121MD1710271+9999MW1101REMSYN082AAXX  12061 59046 11630 80201 10130 20107 40140 57027 69901 71060 885// 333 20112;
0132590460999992000021209004+24350+109400FM-12+009799999V0203401N001010120019N0040001N1+01351+01111101231ADDAY161031GF108991081051012501999999MD1710171+9999MW1101REMSYN066AAXX  12091 59046 41640 83401 10135 20111 40123 57017 71060 885//;
0149590460999992000021212004+24350+109400FM-12+009799999V0209999C000010120019N0030001N1+01271+01141101251ADDAA106000191AY161061GF108991081051012501999999MD1210021+9999MW1101REMSYN072AAXX  12121 59046 11630 80000 10127 20114 40125 52002 69911 71060 885//;
0177590460999992000021218004+24350+109400FM-12+009799999V02099999999990120019N0040001N1+01221+01141101241ADDAA199000091GF108991081051012501999999KA1999M+01351MD1710071+9999MW1101REMSYN076AAXX  12181 59046 31640 8/000 10122 20114 40124 57007 71000 885// 333 10135;EQDQ01  00002PRCP99
0145590460999992000021221004+24350+109400FM-12+009799999V0209999C000010120019N0040001N1+01221+01141101141ADDAA124000391GF108991081051012501999999MD1710091+9999MW1601REMSYN076AAXX  12211 59046 41640 80000 10122 20114 40114 57009 76000 885// 333 70002;
0165590460999992000021300004+24350+109400FM-12+009799999V0209999C000010120019N0030001N1+01241+01181101271ADDAA106000791AY161061GF108991081051012501999999MD1210121-0401MW1601REMSYN088AAXX  13001 59046 11630 80000 10124 20118 40127 52012 69901 76060 885// 333 05401 70001;
0140590460999992000021303004+24350+109400FM-12+009799999V0209999C000010120019N0020001N1+01401+01311101391ADDAY161031AY261031GF108991081051012501999999MD1210121+9999MW1601REMSYN066AAXX  13031 59046 41620 80000 10140 20131 40139 52012 76066 885//;
0172590460999992000021306004+24350+109400FM-12+009799999V0209999C000010120019N0030001N1+01951+01551101121ADDAA106000191AY161061GF107991071051012501999999KA1999N+01221MD1710251+9999MW1101REMSYN082AAXX  13061 59046 11630 70000 10195 20155 40112 57025 69921 71060 875// 333 20122;
0124590460999992000021309004+24350+109400FM-12+009799999V0203401N001010120019N0030001N1+02121+01661101021ADDGF108991081051012501999999MD1710101+9999MW1101REMSYN066AAXX  13091 59046 41630 83401 10212 20166 40102 57010 71000 885//;
0135590460999992000021312004+24350+109400FM-12+009799999V0203601N002010120019N0040001N1+01671+01411101271ADDAA199000021GF108991081051012501999999MD1210241+9999MW1101REMSYN066AAXX  13121 59046 31640 83602 10167 20141 40127 52024 71000 885//;
0172590460999992000021318004+24350+109400FM-12+009799999V0203201N002010042019N0040001N1+01441+01041101551ADDAA106000791AY161061GF108991081051004501999999KA1999M+02131MD1210051+9999MW1601REMSYN082AAXX  13181 59046 11440 83202 10144 20104 40155 52005 69901 76060 885// 333 10213;
0161590460999992000021321004+24350+109400FM-12+009799999V0203601N001010042019N0040001N1+01351+01181101561ADDAA124000891AY161031AY261031GF108991081051004501999999MD1210011+9999MW1601REMSYN076AAXX  13211 59046 41440 83601 10135 20118 40156 52001 76066 885// 333 70007;
0125590460999992000021400004+24350+109400FM-12+009799999V0203401N005019999999N0100001N1+01301+01031101861ADDGF108991999999004501999999REMSYN087AAXX  14001 59046 11460 83405 10130 20103 40186 2029 69961 76060 887// 333 00601 70008;
0132590460999992000021403004+24350+109400FM-12+009799999V0203401N003010042019N0200001N1+01331+00941102121ADDAY161031GF108991081051004501999999MD1210251+9999MW1001REMSYN066AAXX  14031 59046 41470 83403 10133 20094 40212 52025 70060 885//;
0172590460999992000021406004+24350+109400FM-12+009799999V0203201N003010042019N0170001N1+01301+00951101971ADDAA106000791AY161061GF108991081071004501999999KA1999N+01271MD1710151+9999MW1601REMSYN082AAXX  14061 59046 11467 83203 10130 20095 40197 57015 69901 76060 887// 333 20127;
0132590460999992000021409004+24350+109400FM-12+009799999V0200201N003010042019N0200001N1+01321+00881101961ADDAY161031GF108991081051004501999999MD1710011+9999MW1001REMSYN066AAXX  14091 59046 41470 80203 10132 20088 40196 57001 70060 885//;
0149590460999992000021412004+24350+109400FM-12+009799999V0203401N001010120019N0180001N1+01241+00881102081ADDAA106000791AY161061GF108991081051012501999999MD1210111+9999MW1211REMSYN072AAXX  14121 59046 11668 83401 10124 20088 40208 52011 69901 72160 885//;
0146590460999992000021418004+24350+109400FM-12+009799999V0200401N004010120019N0150001N1+01171+00331102181ADDAA199000021GF108991081051012501999999KA1999M+01441MD1710061+9999REMSYN070AAXX  14181 59046 32665 80404 10117 20033 40218 57006 885// 333 10144;
0133590460999992000021421004+24350+109400FM-12+009799999V0203601N002010120019N0150001N1+01151+00571102181ADDAA124000191GF108991081051012501999999MD1410001+9999REMSYN070AAXX  14211 59046 42665 83602 10115 20057 40218 54000 885// 333 70001;
0139590460999992000021500004+24350+109400FM-12+009799999V0203601N002010120019N0100001N1+01141+00381102301ADDAA124000791GF108991081051012501999999MD1210121+0401REMSYN076AAXX  15001 59046 32660 83602 10114 20038 40230 52012 885// 333 00452 79999;
0112590460999992000021503004+24350+109400FM-12+009799999V0203401N003010150019N0180001N1+01181+00231102491ADDGF108991081051017501999999MD1210191+9999REMSYN060AAXX  15031 59046 42768 83403 10118 20023 40249 52019 885//;
0165590460999992000021506004+24350+109400FM-12+009799999V0203401N002010150019N0180001N1+01241+00171102231ADDAA199000091GF108991081051017501999999KA1999N+01141MD1710261+9999REMSYN070AAXX  15061 59046 32768 83402 10124 20017 40223 57026 885// 333 20114;EQDQ01  00002PRCP99
0112590460999992000021509004+24350+109400FM-12+009799999V0200401N003010150019N0160001N1+01221+00371102091ADDGF108991081051017501999999MD1710141+9999REMSYN060AAXX  15091 59046 42766 80403 10122 20037 40209 57014 885//;
0142590460999992000021512004+24350+109400FM-12+009799999V0200201N002010150019N0120001N1+01061+00511102231ADDAA199000091GF108991081051017501999999MD1210141+9999REMSYN060AAXX  15121 59046 32762 80202 10106 20051 40223 52014 885//;EQDQ01  00002PRCP99
0172590460999992000021518004+24350+109400FM-12+009799999V0200401N004010120019N0100001N1+00941+00621102131ADDAA106000791AY161061GF108991081051012501999999KA1999M+01261MD1710151+9999MW1601REMSYN082AAXX  15181 59046 11660 80404 10094 20062 40213 57015 69901 76060 885// 333 10126;
0161590460999992000021521004+24350+109400FM-12+009799999V0203601N002010042019N0040001N1+00801+00691102061ADDAA124000191AY161031AY261031GF108991081051004501999999MD1710081+9999MW1601REMSYN076AAXX  15211 59046 41440 83602 10080 20069 40206 57008 76066 885// 333 70001;
0173590460999992000021600004+24350+109400FM-12+009799999V0203401N002010042019N0020001N1+00761+00671102211ADDAA106000891AY161061AY261061GF108991081051004501999999MD1210151-0101MW1601REMSYN088AAXX  16001 59046 11420 83402 10076 20067 40221 52015 69981 76066 885// 333 05154 70008;
0140590460999992000021603004+24350+109400FM-12+009799999V0203601N002010042019N0030001N1+00811+00701102281ADDAY161031AY261031GF108991081051004501999999MD1210071+9999MW1601REMSYN066AAXX  16031 59046 41430 83602 10081 20070 40228 52007 76066 885//;
0180590460999992000021606004+24350+109400FM-12+009799999V0203401N002010042019N0040001N1+00801+00711102151ADDAA106002091AY161061AY261061GF108991081071004501999999KA1999N+00761MD1710131+9999MW1601REMSYN082AAXX  16061 59046 11440 83402 10080 20071 40215 57013 60021 76066 887// 333 20076;
0140590460999992000021609004+24350+109400FM-12+009799999V0209999C000010042019N0050001N1+00821+00731102061ADDAY161031AY261031GF108991081051004501999999MD1710091+9999MW1601REMSYN066AAXX  16091 59046 41450 80000 10082 20073 40206 57009 76066 885//;
0149590460999992000021612004+24350+109400FM-12+009799999V0200401N002010120019N0080001N1+00861+00731102101ADDAA106000891AY161061GF108991081051012501999999MD1210031+9999MW1101REMSYN072AAXX  16121 59046 11658 80402 10086 20073 40210 52003 69981 71060 885//;
0172590460999992000021618004+24350+109400FM-12+009799999V0200201N001010042019N0080001N1+00901+00711102141ADDAA106000191AY161061GF108991081051004501999999KA1999M+00951MD1710021+9999MW1601REMSYN082AAXX  16181 59046 11458 80201 10090 20071 40214 57002 69911 76060 885// 333 10095;
0153590460999992000021621004+24350+109400FM-12+009799999V0200401N001010042019N0080001N1+00881+00751102011ADDAA124003891AY161031GF108991081051004501999999MD1710131+9999MW1601REMSYN076AAXX  16211 59046 41458 80401 10088 20075 40201 57013 76060 885// 333 70039;
0165590460999992000021700004+24350+109400FM-12+009799999V0200401N001010120019N0060001N1+00901+00771102071ADDAA106000791AY161061GF108991081051012501999999MD1210061-0101MW1101REMSYN088AAXX  17001 59046 11656 80401 10090 20077 40207 52006 69901 71060 885// 333 05101 70032;
0124590460999992000021703004+24350+109400FM-12+009799999V0200201N001010120019N0060001N1+00941+00771102161ADDGF108991081081008001999999MD1210091+9999MW1101REMSYN066AAXX  17031 59046 41556 80201 10094 20077 40216 52009 71000 888//;
0172590460999992000021706004+24350+109400FM-12+009799999V0209999C000010120019N0060001N1+00981+00821101801ADDAA106000791AY161061GF108991081051012501999999KA1999N+00801MD1710361+9999MW1101REMSYN082AAXX  17061 59046 11656 80000 10098 20082 40180 57036 69901 71060 885// 333 20080;
0132590460999992000021709004+24350+109400FM-12+009799999V0200401N002010042019N0040001N1+00961+00901101591ADDAY161031GF108991081051004501999999MD1710201+9999MW1601REMSYN066AAXX  17091 59046 41440 80402 10096 20090 40159 57020 76060 885//;
0149590460999992000021712004+24350+109400FM-12+009799999V0200901N001010042019N0020001N1+00941+00901101571ADDAA106001091AY161061GF108991081071004501999999MD1710021+9999MW1601REMSYN072AAXX  17121 59046 11420 80901 10094 20090 40157 57002 60011 76060 887//;
0180590460999992000021718004+24350+109400FM-12+009799999V0209999C000010042019N0020001N1+00991+00951101511ADDAA106000391AY161061AY261061GF108991081051004501999999KA1999M+01021MD1710051+9999MW1601REMSYN082AAXX  17181 59046 11420 80000 10099 20095 40151 57005 69931 76066 885// 333 10102;
0161590460999992000021721004+24350+109400FM-12+009799999V0209999C000010042019N0030001N1+01011+00971101441ADDAA124001591AY161031AY261031GF108991081051004501999999MD1710121+9999MW1601REMSYN076AAXX  17211 59046 41430 80000 10101 20097 40144 57012 76066 885// 333 70015;
0165590460999992000021800004+24350+109400FM-12+009799999V0202901N001010120019N0030001N1+01021+00941101541ADDAA106000191AY161061GF108991081051012501999999MD1210101-0501MW1101REMSYN088AAXX  18001 59046 11630 82901 10102 20094 40154 52010 69921 71060 885// 333 05501 70015;
0132590460999992000021803004+24350+109400FM-12+009799999V0209999C000010042019N0020001N1+01041+01021101621ADDAY161031GF108991081051004501999999MD1210081+9999MW1601REMSYN066AAXX  18031 59046 41420 80000 10104 20102 40162 52008 76060 885//;
0172590460999992000021806004+24350+109400FM-12+009799999V0209999C000010042019N0010001N1+01141+01101101311ADDAA106002091AY161061GF108991081051004501999999KA1999N+00941MD1710311+9999MW1601REMSYN082AAXX  18061 59046 11410 80000 10114 20110 40131 57031 60021 76060 885// 333 20094;
0140590460999992000021809004+24350+109400FM-12+009799999V0209999C000010042019N0010001N1+01261+01221101081ADDAY161031AY261031GF108991081051004501999999MD1710221+9999MW1601REMSYN066AAXX  18091 59046 41410 80000 10126 20122 40108 57022 76066 885//;
0157590460999992000021812004+24350+109400FM-12+009799999V0202701N001010042019N0010001N1+01251+01251101031ADDAA106001091AY161061AY261061GF108991081051004501999999MD1710051+9999MW1601REMSYN072AAXX  18121 59046 11410 82701 10125 20125 40103 57005 60011 76066 885//;
0172590460999992000021818004+24350+109400FM-12+009799999V0202901N001010042019N0020001N1+99999+99999101001ADDAA106000191AY161061GF108991081051004501999999KA1999M+01371MD1710041+9999MW1601REMSYN082AAXX  18181 59046 11420 82901 1/135 20133 40100 57004 69921 76060 885// 333 10137;
0161590460999992000021821004+24350+109400FM-12+009799999V0201401N003010042019N0015001N1+01461+01431100801ADDAA124003091AY161031AY261031GF108991081051004501999999MD1710201+9999MW1601REMSYN076AAXX  18211 59046 41415 81403 10146 20143 40080 57020 76066 885// 333 70031;
0173590460999992000021900004+24350+109400FM-12+009799999V0202901N002010075019N0010001N1+01461+01421101011ADDAA106000591AY161061AY241061GF108991081051008001999999MD1210211-0501MW1101REMSYN088AAXX  19001 59046 11510 82902 10146 20142 40101 52021 69941 71064 885// 333 05504 70034;
0172590460999992000021906004+24350+109400FM-12+009799999V0202901N001010075019N0020001N1+01731+01651100951ADDAA106000191AY161061GF108991081051008001999999KA1999N+01161MD1710221+9999MW1101REMSYN082AAXX  19061 59046 11520 82901 10173 20165 40095 57022 69911 71060 885// 333 20116;
0132590460999992000021909004+24350+109400FM-12+009799999V0203401N004010042019N0030001N1+01321+01281100851ADDAY161031GF108991081051004501999999MD1710111+9999MW1601REMSYN066AAXX  19091 59046 41430 83404 10132 20128 40085 57011 76060 885//;
0149590460999992000021912004+24350+109400FM-12+009799999V0203401N004010042019N0020001N1+01141+01101101061ADDAA106001091AY161061GF108991081051004501999999MD1210211+9999MW1601REMSYN072AAXX  19121 59046 11420 83404 10114 20110 40106 52021 60011 76060 885//;
0172590460999992000021918004+24350+109400FM-12+009799999V0203401N004010120019N0120001N1+01001+00791101321ADDAA106000191AY161061GF108991081051012501999999KA1999M+01771MD1210081+9999MW1001REMSYN082AAXX  19181 59046 11662 83404 10100 20079 40132 52008 69921 70060 885// 333 10177;
0124590460999992000021921004+24350+109400FM-12+009799999V0203401N003010120019N0110001N1+00881+00751101351ADDGF108991081051012501999999MD1219999+9999MW1601REMSYN066AAXX  19211 59046 41661 83403 10088 20075 40135 520/2 76000 885//;
0165590460999992000022000004+24350+109400FM-12+009799999V0203401N003010042019N0140001N1+00851+00661101631ADDAA106000791AY161061GF108991081051004501999999MD1210271+0601MW1601REMSYN088AAXX  20001 59046 11464 83403 10085 20066 40163 52027 69901 76060 885// 333 00656 70014;
0132590460999992000022003004+24350+109400FM-12+009799999V0203201N003010120019N0200001N1+00911+00511101921ADDAY161031GF108991081081008001999999MD1210281+9999MW1001REMSYN066AAXX  20031 59046 41570 83203 10091 20051 40192 52028 70060 888//;
0149590460999992000022006004+24350+109400FM-12+009799999V0200401N003010120019N0300001N1+01011+00451101701ADDAA106000791AY161061GF108991081081008001999999MD1710211+9999MW1001REMSYN072AAXX  20061 59046 11580 80403 10101 20045 40170 57021 69901 70060 888//;
0112590460999992000022009004+24350+109400FM-12+009799999V0200401N003010120019N0300001N1+01081+00511101531ADDGF108991081081008001999999MD1710171+9999REMSYN060AAXX  20091 59046 42580 80403 10108 20051 40153 57017 888//;
0123590460999992000022012004+24350+109400FM-12+009799999V0200401N003010120019N0300001N1+00961+00521101571ADDAA199000021GF108991081051012501999999MD1210031+9999REMSYN060AAXX  20121 59046 32680 80403 10096 20052 40157 52003 885//;
0172590460999992000022018004+24350+109400FM-12+009799999V0203401N002010120019N0250001N1+00841+00531101831ADDAA106000791AY161061GF108991081051012501999999KA1999M+01081MD1210011+9999MW1001REMSYN082AAXX  20181 59046 11675 83402 10084 20053 40183 52001 69901 70060 885// 333 10108;
0133590460999992000022021004+24350+109400FM-12+009799999V02099999999990120019N0250001N1+99999+99999101741ADDAA124000791GF108991081051012501999999MD1710081+9999REMSYN070AAXX  20211 59046 42675 80/12 1/085 20056 40174 57008 885// 333 79999;
0157590460999992000022100004+24350+109400FM-12+009799999V0203401N002019999999N0100001N1+00821+00531101821ADDAA199000091GF108991999999008001999999MD1999999+0201REMSYN075AAXX  21001 59046 32560 83402 10082 20053 40182 5007 888// 333 00200 79999;EQDQ01  00002PRCP99
0112590460999992000022103004+24350+109400FM-12+009799999V0203201N002010120019N0150001N1+00941+00541101971ADDGF108991081081008001999999MD1210151+9999REMSYN060AAXX  21031 59046 42565 83202 10094 20054 40197 52015 888//;
0165590460999992000022106004+24350+109400FM-12+009799999V0203401N001010120019N0200001N1+00961+00611101681ADDAA199000091GF108991081081008001999999KA1999N+00821MD1710291+9999REMSYN070AAXX  21061 59046 32570 83401 10096 20061 40168 57029 888// 333 20082;EQDQ01  00002PRCP99
0124590460999992000022109004+24350+109400FM-12+009799999V0203201N002010042019N0050001N1+00921+00711101511ADDGF108991081051004501999999MD1710171+9999MW1601REMSYN066AAXX  21091 59046 41450 83202 10092 20071 40151 57017 76000 885//;
0149590460999992000022112004+24350+109400FM-12+009799999V0200701N002010042019N0040001N1+00851+00791101501ADDAA106000191AY161061GF108991081051004501999999MD1710011+9999MW1601REMSYN072AAXX  21121 59046 11440 80702 10085 20079 40150 57001 69921 76060 885//;
0180590460999992000022118004+24350+109400FM-12+009799999V0203201N003010042019N0040001N1+00791+00731101751ADDAA106001091AY161061AY261061GF108991081051004501999999KA1999M+01031MD1210051+9999MW1601REMSYN082AAXX  21181 59046 11440 83203 10079 20073 40175 52005 60011 76066 885// 333 10103;
0161590460999992000022121004+24350+109400FM-12+009799999V0200401N002010042019N0020001N1+00781+00721101741ADDAA124002091AY161031AY261031GF108991081051004501999999MD1710011+9999MW1601REMSYN076AAXX  21211 59046 41420 80402 10078 20072 40174 57001 76066 885// 333 70021;
0173590460999992000022200004+24350+109400FM-12+009799999V0203201N001010042019N0030001N1+00761+00721101741ADDAA106001091AY161061AY261061GF108991081051004501999999MD1410001-0101MW1601REMSYN088AAXX  22001 59046 11430 83201 10076 20072 40174 54000 60011 76066 885// 333 05151 70026;
0140590460999992000022203004+24350+109400FM-12+009799999V0203401N001010042019N0080001N1+00881+00731101871ADDAY161031AY261031GF108991081051004501999999MD1210131+9999MW1601REMSYN066AAXX  22031 59046 41458 83401 10088 20073 40187 52013 76066 885//;
0172590460999992000022206004+24350+109400FM-12+009799999V0202901N001010090019N0110001N1+00921+00751101621ADDAA106000191AY161061GF108991081081004501999999KA1999N+00761MD1710251+9999MW1601REMSYN082AAXX  22061 59046 11461 82901 10092 20075 40162 57025 69921 76060 888// 333 20076;
0132590460999992000022209004+24350+109400FM-12+009799999V0200401N001010090019N0200001N1+00961+00791101411ADDAY161031GF108991081081004501999999MD1710201+9999MW1601REMSYN066AAXX  22091 59046 41470 80401 10096 20079 40141 57020 76060 888//;
0149590460999992000022212004+24350+109400FM-12+009799999V0200401N002010042019N0120001N1+00941+00771101431ADDAA106000791AY161061GF108991081051004501999999MD1210011+9999MW1601REMSYN072AAXX  22121 59046 11462 80402 10094 20077 40143 52001 69901 76060 885//;
0172590460999992000022218004+24350+109400FM-12+009799999V0203401N003010042019N0060001N1+00851+00811101721ADDAA106000891AY161061GF108991081051004501999999KA1999M+00971MD1210071+9999MW1601REMSYN082AAXX  22181 59046 11456 83403 10085 20081 40172 52007 69981 76060 885// 333 10097;
0161590460999992000022221004+24350+109400FM-12+009799999V0203401N003019999999N0050001N1+00771+00711101761ADDAA124002591AY161031AY261031GF108991051999004501999999MD1210041+9999MW1601REMSYN076AAXX  22211 59046 41450 83403 10077 20071 40176 52004 76066 85/// 333 70025;
0173590460999992000022300004+24350+109400FM-12+009799999V0203401N002010042019N0200001N1+00781+00651101981ADDAA106001091AY161061AY261061GF108991081051004501999999MD1210221+0201MW1211REMSYN088AAXX  23001 59046 11470 83402 10078 20065 40198 52022 60011 72166 885// 333 00200 70020;
0112590460999992000022303004+24350+109400FM-12+009799999V0200201N003010120019N0250001N1+01001+00561102171ADDGF108991081081008001999999MD1210191+9999REMSYN060AAXX  23031 59046 42575 80203 10100 20056 40217 52019 888//;
0146590460999992000022306004+24350+109400FM-12+009799999V0200401N005010120019N0250001N1+01301+00611101861ADDAA199000021GF106991061081008001001001KA1999N+00771MD1710301+9999REMSYN070AAXX  23061 59046 32575 60405 10130 20061 40186 57030 86800 333 20077;
0112590460999992000022309004+24350+109400FM-12+009799999V0200401N003010120019N0250001N1+01341+00581101701ADDGF107991071081008001999999MD1710161+9999REMSYN060AAXX  23091 59046 42575 70403 10134 20058 40170 57016 878//;
0123590460999992000022312004+24350+109400FM-12+009799999V0203401N002012200019N0200001N1+01041+00561101861ADDAA199000021GF102991021001999999031001MD1210151+9999REMSYN060AAXX  23121 59046 32970 23402 10104 20056 40186 52015 82030;
0181590460999992000022318004+24350+109400FM-12+009799999V0203601N999990150019N0120001N1+00981+00541102171ADDAA199000091GF108991081051017501999999KA1999M+01441MD1210041+9999REMSYN070AAXX  23181 59046 32762 83682 10098 20054 40217 52004 885// 333 10144;EQDQ01+008203WOSPD Q02  00002PRCP99
0133590460999992000022321004+24350+109400FM-12+009799999V0203201N002010150019N0120001N1+00931+00581102111ADDAA124000791GF108991081051017501999999MD1710061+9999REMSYN070AAXX  23211 59046 42762 83202 10093 20058 40211 57006 885// 333 79999;
0152590460999992000022400004+24350+109400FM-12+009799999V0200201N001010120019N0120001N1+00931+00601102301ADDAA199000091GF108991081081008001999999MD1210181+0031REMSYN070AAXX  24001 59046 32562 80201 10093 20060 40230 52018 888// 333 00302;EQDQ01  00002PRCP99
0112590460999992000022403004+24350+109400FM-12+009799999V0200701N002010120019N0120001N1+01121+00561102381ADDGF108991081081008001999999MD1210081+9999REMSYN060AAXX  24031 59046 42562 80702 10112 20056 40238 52008 888//;
0165590460999992000022406004+24350+109400FM-12+009799999V0203201N003010120019N0120001N1+01201+00431102161ADDAA199000091GF108991081081008001999999KA1999N+00931MD1710211+9999REMSYN070AAXX  24061 59046 32562 83203 10120 20043 40216 57021 888// 333 20093;EQDQ01  00002PRCP99
0112590460999992000022409004+24350+109400FM-12+009799999V0200701N003010120019N0100001N1+01241+00431101991ADDGF108991081051012501999999MD1710171+9999REMSYN060AAXX  24091 59046 42660 80703 10124 20043 40199 57017 885//;
0142590460999992000022412004+24350+109400FM-12+009799999V0200701N002010120019N0110001N1+01121+00461102001ADDAA199000091GF108991081051012501999999MD1410001+9999REMSYN060AAXX  24121 59046 32661 80702 10112 20046 40200 54000 885//;EQDQ01  00002PRCP99
0165590460999992000022418004+24350+109400FM-12+009799999V0200401N003010120019N0110001N1+99999+99999102391ADDAA199000091GF108991081051012501999999KA1999M+01291MD1210071+9999REMSYN070AAXX  24181 59046 32661 80403 10/94 20052 40239 52007 885// 333 10129;EQDQ01  00002PRCP99
0112590460999992000022421004+24350+109400FM-12+009799999V0200201N002010120019N0110001N1+00921+00501102371ADDGF108991081051012501999999MD1710021+9999REMSYN060AAXX  24211 59046 42661 80202 10092 20050 40237 57002 885//;
0152590460999992000022500004+24350+109400FM-12+009799999V0203601N002010075019N0100001N1+00901+00431102671ADDAA199000091GF108991081051008001999999MD1210301+0041REMSYN070AAXX  25001 59046 32560 83602 10090 20043 40267 52030 885// 333 00400;EQDQ01  00002PRCP99
0112590460999992000022503004+24350+109400FM-12+009799999V0203601N003010120019N0150001N1+01001+00411102781ADDGF108991081081008001999999MD1210121+9999REMSYN060AAXX  25031 59046 42565 83603 10100 20041 40278 52012 888//;
0165590460999992000022506004+24350+109400FM-12+009799999V0200401N003010120019N0280001N1+01241+00401102591ADDAA199000091GF107991071081008001999999KA1999N+00901MD1710191+9999REMSYN070AAXX  25061 59046 32578 70403 10124 20040 40259 57019 878// 333 20090;EQDQ01  00002PRCP99
0112590460999992000022509004+24350+109400FM-12+009799999V0200701N004019999999N0300001N1+01221+00371102451ADDGF107991071001999999031999MD1710141+9999REMSYN060AAXX  25091 59046 42980 70704 10122 20037 40245 57014 8703/;
0142590460999992000022512004+24350+109400FM-12+009799999V0200401N004010150019N0250001N1+01081+00461102551ADDAA199000091GF107991071051017501999999MD1210101+9999REMSYN060AAXX  25121 59046 32775 70404 10108 20046 40255 52010 875//;EQDQ01  00002PRCP99
0165590460999992000022518004+24350+109400FM-12+009799999V0200401N003010150019N0150001N1+00971+00291102671ADDAA199000091GF108991081051017501999999KA1999M+01331MD1710011+9999REMSYN070AAXX  25181 59046 32765 80403 10097 20029 40267 57001 885// 333 10133;EQDQ01  00002PRCP99
0142590460999992000022521004+24350+109400FM-12+009799999V0203201N002010120019N0110001N1+00931+00351102681ADDAY161031GF108991081051012501999999MD1210011+9999MW1601REMSYN076AAXX  25211 59046 41661 83202 10093 20035 40268 52001 76060 885// 333 97999;
0165590460999992000022600004+24350+109400FM-12+009799999V0203601N002010042019N0050001N1+00861+00351102871ADDAA106000391AY161061GF108991081051004501999999MD1210181+0201MW1601REMSYN088AAXX  26001 59046 11450 83602 10086 20035 40287 52018 69931 76060 885// 333 00200 70003;
0132590460999992000022603004+24350+109400FM-12+009799999V0203401N003010120019N0110001N1+01051+00281102941ADDAY161031GF108991081051012501999999MD1210071+9999MW1001REMSYN066AAXX  26031 59046 41661 83403 10105 20028 40294 52007 70060 885//;
0172590460999992000022606004+24350+109400FM-12+009799999V0203201N001010120019N0100001N1+01061+00211102611ADDAA106000191AY161061GF108991081051012501999999KA1999N+00861MD1710321+9999MW1601REMSYN082AAXX  26061 59046 11660 83201 10106 20021 40261 57032 69921 76060 885// 333 20086;
0140590460999992000022609004+24350+109400FM-12+009799999V0202701N002010120019N0080001N1+01031+00291102421ADDAY161031AY261031GF108991081051012501999999MD1710191+9999MW1601REMSYN066AAXX  26091 59046 41658 82702 10103 20029 40242 57019 76066 885//;
0149590460999992000022612004+24350+109400FM-12+009799999V0201801N002010042019N0040001N1+01031+00371102411ADDAA106000391AY161061GF108991081051004501999999MD1710011+9999MW1041REMSYN072AAXX  26121 59046 11440 81802 10103 20037 40241 57001 69931 70460 885//;
0172590460999992000022618004+24350+109400FM-12+009799999V0200201N001010120019N0080001N1+00821+00601102611ADDAA106001091AY161061GF108991081051012501999999KA1999M+01111MD1210031+9999MW1101REMSYN082AAXX  26181 59046 11658 80201 10082 20060 40261 52003 60011 71060 885// 333 10111;
0145590460999992000022621004+24350+109400FM-12+009799999V0200201N001010120019N0060001N1+00811+00611102381ADDAA124001891GF108991081051012501999999MD1710221+9999MW1601REMSYN076AAXX  26211 59046 41656 80201 10081 20061 40238 57022 76000 885// 333 70019;
