0222602700999992000021706004+29680-009730FM-12+026099999V0209999C000012200019N0150001N1+01951+00111101201ADDAA199000091GF102991001001999999001021IA2240+01509KA1120N+01871MA1999999097671MD1999999-0011REMSYN100AAXX  17064 60270 32965 20000 10195 20011 39767 40120 80002 333 015/0 20187 50960 5/109 59001 82075;EQDQ01  00002PRCP99
0199602700999992000032300004+29680-009730FM-12+026099999V0209999C000012200019N9999999N1+00181+99999101661ADDAY101061AY201061GA1011+090009019GF101991001001999999001011MA1999999101101MD1810031+9999MW1101REMSYN094AAXX  23004 60270 /195/ 10000 10018 30110 40166 58003 71000 80001 222// 06047 333 553/0 81080;
0182602700999992000032409004+29680-009730FM-12+026099999V0200201N005712200019N0200001N1+01481+00651999999ADDAA199000091GA1001+999999999GF100991001001999999001001MA1999999089641MD1210121+9999ME1314929REMSYN060AAXX  24094 60270 32970 00211 10148 20065 38964 48492 52012;EQDQ01  00002PRCP99
0270602700999992000080106004+29680-009730FM-12+026099999V0209999C000010360019N0150001N1+02251+02181101321ADDAA124010991AY161061AY221061GA1031+009009069GF108991031051008001071999IA2240+02209KA1120N+02201MA1999999097551MD1999999+0161MW1021OA150600001REMSYN118AAXX  01064 60270 11565 80000 10225 20218 39755 40132 60114 70262 8357/ 333 02259 20220 50070 55002 58016 83630 88463;
