0197643280999992000012606004-10720+025450FM-12+1526FZQM V0202501N001511050019N0300001N1+99999+99999999999ADDAA124015091GA1011+002409089GA2031+036009039GA3051+105009009GF105991011011002501041041REMSYN100AAXX  26064 64328 12380 52503 10/// 20/// 3//// 48/// 60154 81144 333 20/// 81808 83362 85081 98298;
0195643280999992000020409004-10720+025450FM-12+1526FZQM V0200901N005110066019N0300001N1+99999+99999999999ADDAY121031AY221031GA1021+006009089GA2031+006609099GF107991071091001501001001MA1999999085001MW1171REMSYN088AAXX  04094 64328 41280 70910 10/// 20/// 38500 48/// 71722 87900 333 82820 83922 94613;
0130643280999992000021606004-10720+025450FM-12+1526FZQM V0203601N001019999999N0200001N1+99999+99999999999ADDAA124011991GF107991071001999999071999MA1999999084981REMSYN066AAXX  16064 64328 12970 73602 10/// 20/// 38498 48/// 60124 8707/;
0165643280999992000021609004-10720+025450FM-12+1526FZQM V0209999999999045001CN0250001N1+99999+99999999999ADDGA1011+006009089GF106991011091008001041001MA1999999084941MD1999999+0121REMSYN082AAXX  16094 64328 42575 63804 10/// 20/// 38494 48/// 81940 333 58012 81820 86362;
0159643280999992000021709004-10720+025450FM-12+1526FZQM V0203601N001510330019N0200001N1+99999+99999999999ADDGA1071+033009079GF107991071001999999071999MA1999999087911MD1999999-0031REMSYN076AAXX  17094 64328 42970 73603 10/// 20/// 38791 48/// 8707/ 333 59003 87361;
0209643280999992000030406004-10720+025450FM-12+1526FZQM V0203601N001012200019N0300001N1+99999+99999999999ADDAA124024991AY161061AY261061GA1081+002409069GF199999081071002501999999MA1999999084851MW1611REMSYN088AAXX  04064 64328 11380 23602 10/// 20/// 38485 48/// 60254 76166 887// 333 20/// 88708;EQDQ01+000022SCOTCV
0216643280999992000032206004-10720+025450FM-12+1526FZQM V0200901N001510030019N0040001N1+99999+99999999999ADDAA124013091AY191061AY291061GA1051+003009079GF107991071091001501999999MA1999999084911MD1999999+0101MW1951REMSYN100AAXX  22064 64328 11240 70903 10/// 20/// 38491 48/// 60134 79599 879// 333 20/// 58010 85710 84920;
0201643280999992000060706004-10720+025450FM-12+1526FZQM V0200901N00511045001CN0200001N1+99999+99999999999ADDAA199000091GA1011+003609089GF107991011011004501051999MA1999999085201MD1999999+0081REMSYN088AAXX  07064 64328 32470 70910 10/// 20/// 38520 48/// 8115/ 333 20/// 58008 81812 87360;EQDQ01  00002PRCP99
0211643280999992000082506004-10720+025450FM-12+1526FZQM V0200901N006212200019N0100001N1+99999+99999999999ADDAA199000091AY101061AY201061GA1001+999999999GF100991001001999999001001MA1999999085201MD1999999-0011MW1051REMSYN076AAXX  25064 64328 31960 00912 10/// 20/// 38520 48/// 70500 333 20/// 59001;EQDQ01  00002PRCP99
0233643280999992000101806004-10720+025450FM-12+1526FZQM V0203201N002112200019N0150001N1+02321+01391999999ADDAA199000091AY101061AY201061GA1001+999999999GF100991001001999999001001KA1120N+01421MA1999999085181MD1999999-0171ME1315489MW1051REMSYN076AAXX  18064 64328 31965 03204 10232 20139 38518 48548 70500 333 20142 59017;EQDQ01  00002PRCP99
0239643280999992000111506004-10720+025450FM-12+1526FZQM V0209999C000010240019N0250001N1+01951+01721999999ADDAA199000091GA1071+024009079GF107991071999999999071999KA1120N+01981MA1999999084861MD1999999+0081ME1315149REMSYN088AAXX  15064 64328 32975 70000 10195 20172 38486 48514 8707/ 333 20198 55/// 58008 87358;EQDQ01  00002PRCP99Q02    003SCOLCG
0223643280999992000120606004-10720+025450FM-12+1526FZQM V0203601N002610036019N0200001N1+01781+01651999999ADDAA124017091GA1071+003609059GF107991071051004501999999KA1120N+99999MA1999999085101MD1999999+0011ME1315389REMSYN088AAXX  06064 64328 12470 73605 10178 20165 38510 48538 60174 875// 333 20184 58001 87612;EQDQ01 +01842ATMN  
0210643280999992000120906004-10720+025450FM-12+1526FZQM V0203401N00151045001CN0250001N1+02071+01641999999ADDAA124006191GA1011+003609089GF107991011011004501041021KA1120N+01751MA1999999085041MD1999999-0041ME1315329REMSYN094AAXX  09064 64328 12475 73403 10207 20164 38504 48532 60064 81142 333 20175 59004 81812 85361;
0210643280999992000121106004-10720+025450FM-12+1526FZQM V0200901N003110330019N0250001N1+02781+01531999999ADDAA124031091GA1071+033009039GF107991071001999999051999KA1120N+01551MA1999999084981MD1999999-0071ME1315259REMSYN094AAXX  11064 64328 12975 70906 10278 20153 38498 48525 60314 8705/ 333 20155 59007 87361 98292;
