0201653350999992000010100004+08030+002470FM-12+0200DBBS V0209999C000010780019N0080001N1+02531+02221100781ADDAA106000091GA1051+078009019GF105991001001999999001021MA1999999098551MD1999999-0041MW1051REMSYN082AAXX  01004 65335 31958 50000 10253 20222 39855 40078 705// 80002 333 59004 85076;EQDQ01  00002PRCP06
0208653350999992000010106004+08030+002470FM-12+0200DBBS V0209999C000010039019N0080001N1+02451+02301100731ADDAA106000091GA1071+003909059GF107991071051004501999999KA1120N+02351MA1999999098501MD1999999-0051REMSYN082AAXX  01064 65335 32458 70000 10245 20230 39850 40073 875// 333 20235 59005 87613;EQDQ01  00002PRCP06
0189653350999992000010112004+08030+002470FM-12+0200DBBS V0209999C000010780019N0080001N1+03061+02301100661ADDAA106000091GA1071+078009089GF107991999001999999001061MA1999999098441MD1999999+0011REMSYN076AAXX  01124 65335 32958 70000 10306 20230 39844 40066 80006 333 58001 87276;EQDQ01  00002PRCP06
0242653350999992000010118004+08030+002470FM-12+0200DBBS V0209999C00001105001CN0060001N1+03181+02201100531ADDAA106000091AY121061AY221061GA1011+003909069GF107991011051004501001081KA1120M+03401MA1999999098311MD1999999+0041MW1051REMSYN094AAXX  01184 65335 31456 70000 10318 20220 39831 40053 70522 81508 333 10340 58004 81613 87276;EQDQ01  00002PRCP06
0201653350999992000010200004+08030+002470FM-12+0200DBBS V0209999C000010780019N0060001N1+02601+02311100751ADDAA106000091GA1051+078009019GF105991001001999999001021MA1999999098521MD1999999-0031MW1101REMSYN082AAXX  02004 65335 31956 50000 10260 20231 39852 40075 710// 80002 333 59003 85076;EQDQ01  00002PRCP06
0208653350999992000010206004+08030+002470FM-12+0200DBBS V0209999C000010780019N0060001N1+02501+02351100781ADDAA106000091GA1051+078009019GF105991001001999999001021KA1120N+02441MA1999999098551MD1999999+0051REMSYN082AAXX  02064 65335 32956 50000 10250 20235 39855 40078 80002 333 20244 58005 85076;EQDQ01  00002PRCP06
0224653350999992000010218004+08030+002470FM-12+0200DBBS V0209999C000010780019N0080001N1+03151+02131100521ADDAA106000091GA1071+078009089GF107991999001999999001061KA1120M+03451MA1999999098301MD1999999-0011REMSYN082AAXX  02184 65335 32958 70000 10315 20213 39830 40052 80006 333 10345 59001 87276;EQDQ01+000002SCOTLCQ02  00002PRCP06
0189653350999992000010300004+08030+002470FM-12+0200DBBS V0209999C000010780019N0080001N1+02651+02361100801ADDAA106000091GA1051+078009019GF105991001001999999001021MA1999999098981MD1999999+0061REMSYN076AAXX  03004 65335 33958 50000 10265 20236 39898 40080 80002 333 58006 85076;EQDQ01  00002PRCP06
0214653350999992000010306004+08030+002470FM-12+0200DBBS V0209999C000019999999N0080001N1+02441+02341100731ADDAA106000091GA1041+033009039GF107991041001999999031021KA1120N+02401MA1999999098501MD1999999-0051REMSYN088AAXX  03064 65335 32958 70000 10244 20234 39850 40073 84032 333 20240 59005 84361 85076;EQDQ01  00002PRCP06
0189653350999992000010312004+08030+002470FM-12+0200DBBS V0209999C000010780019N0080001N1+02381+02111100541ADDAA106000091GA1051+078009019GF105991001001999999001021MA1999999098331MD1999999-0121REMSYN076AAXX  03124 65335 32958 50000 10238 20211 39833 40054 80002 333 59012 85076;EQDQ01  00002PRCP06
0208653350999992000010318004+08030+002470FM-12+0200DBBS V0209999C000010780019N0080001N1+03271+01341100411ADDAA106000091GA1051+078009019GF105991001001999999001021KA1120M+03681MA1999999098201MD1999999-0101REMSYN082AAXX  03184 65335 32958 50000 10327 20134 39820 40041 80002 333 10368 59010 85076;EQDQ01  00002PRCP06
0183653350999992000010400004+08030+002470FM-12+0200DBBS V0203601N002110780019N0080001N1+02601+00461999999ADDAA106000091GA1051+078009019GF105991001001999999001021MA1999999098551MD1999999-0031REMSYN070AAXX  04004 65335 33958 53604 10260 20046 39855 80002 333 59003 85076;EQDQ01  00002PRCP06
0194653350999992000010406004+08030+002470FM-12+0200DBBS V0209999C000010780019N0080001N1+02301+00451100671ADDAA106000091GA1051+078009019GF105991001001999999001021KA1120N+02201MA1999999098451REMSYN082AAXX  04064 65335 32958 50000 10230 20045 39845 40067 80002 333 20220 590/5 85076;EQDQ01  00002PRCP06
0189653350999992000010412004+08030+002470FM-12+0200DBBS V0200401N002110780019N0100001N1+03171+00721100731ADDAA106000091GA1051+078009019GF105991001001999999001021MA1999999098511MD1999999+0181REMSYN076AAXX  04124 65335 32960 50404 10317 20072 39851 40073 80002 333 58018 85076;EQDQ01  00002PRCP06
0208653350999992000010418004+08030+002470FM-12+0200DBBS V0209999C000010780019N0080001N1+03101+01281100451ADDAA106000091GA1051+078009019GF105991001001999999001021KA1120M+03511MA1999999098221MD1999999+0021REMSYN082AAXX  04184 65335 32958 50000 10310 20128 39822 40045 80002 333 10351 58002 85076;EQDQ01  00002PRCP06
0189653350999992000010500004+08030+002470FM-12+0200DBBS V0209999C000010780019N0080001N1+02351+00941100751ADDAA106000091GA1051+078009019GF105991001001999999001021MA1999999098521MD1999999-0031REMSYN076AAXX  05004 65335 33958 50000 10235 20094 39852 40075 80002 333 59003 85076;EQDQ01  00002PRCP06
0208653350999992000010506004+08030+002470FM-12+0200DBBS V0209999C000010780019N0080001N1+02131+01101100691ADDAA106000091GA1051+078009019GF105991001001999999001021KA1120N+02001MA1999999098451MD1999999+0001REMSYN082AAXX  05064 65335 32958 50000 10213 20110 39845 40069 80002 333 20200 58000 85076;EQDQ01  00002PRCP06
0189653350999992000010512004+08030+002470FM-12+0200DBBS V0209999C000010780019N0080001N1+03231+01171100701ADDAA106000091GA1051+078009019GF105991001001999999001021MA1999999098441MD1999999-0071REMSYN076AAXX  05124 65335 32958 50000 10323 20117 39844 40070 80002 333 59007 85076;EQDQ01  00002PRCP06
0208653350999992000010518004+08030+002470FM-12+0200DBBS V0209999C000010780019N0080001N1+03021+01381100481ADDAA106000091GA1051+078009019GF105991001001999999001021KA1120M+03561MA1999999098241MD1999999+0021REMSYN082AAXX  05184 65335 32958 50000 10302 20138 39824 40048 80002 333 10356 58002 85076;EQDQ01  00002PRCP06
0189653350999992000010600004+08030+002470FM-12+0200DBBS V0209999C000010780019N0080001N1+02601+01351100791ADDAA106000091GA1051+078009019GF105991001001999999001021MA1999999098571MD1999999+0051REMSYN076AAXX  06004 65335 33958 50000 10260 20135 39857 40079 80002 333 58005 85076;EQDQ01  00002PRCP06
0208653350999992000010606004+08030+002470FM-12+0200DBBS V0209999C000010780019N0080001N1+02141+01201100801ADDAA106000091GA1051+078009019GF105991001001999999001021KA1120N+02101MA1999999098561MD1999999+0111REMSYN082AAXX  06064 65335 32958 50000 10214 20120 39856 40080 80002 333 20210 58011 85076;EQDQ01  00002PRCP06
0173653350999992000010612004+08030+002470FM-12+0200DBBS V0200401N001019999999N0080001N1+03081+01231100761ADDAA106000091GF105991001001999999001021MA1999999098531MD1999999+0091REMSYN076AAXX  06124 65335 32958 50402 10308 20123 39853 40076 80002 333 58009 8507/;EQDQ01  00002PRCP06
0189653350999992000010700004+08030+002470FM-12+0200DBBS V0209999C000010780019N0080001N1+02431+01611100891ADDAA106000091GA1051+078009019GF105991001001999999001021MA1999999098661MD1999999+0071REMSYN076AAXX  07004 65335 33958 50000 10243 20161 39866 40089 80002 333 58007 85076;EQDQ01  00002PRCP06
0208653350999992000010706004+08030+002470FM-12+0200DBBS V0209999C000010780019N0080001N1+02161+01341100821ADDAA106000091GA1051+078009019GF105991001001999999001021KA1120N+02121MA1999999098581MD1999999+0021REMSYN082AAXX  07064 65335 32958 50000 10216 20134 39858 40082 80002 333 20212 58002 85076;EQDQ01  00002PRCP06
0189653350999992000010712004+08030+002470FM-12+0200DBBS V0209999C000010780019N0080001N1+03341+01391100711ADDAA106000091GA1051+078009019GF105991001001999999001021MA1999999098481MD1999999-0031REMSYN076AAXX  07124 65335 32958 50000 10334 20139 39848 40071 80002 333 59003 85076;EQDQ01  00002PRCP06
0208653350999992000010718004+08030+002470FM-12+0200DBBS V0203201N002110780019N0060001N1+03061+01651100551ADDAA106000091GA1051+078009019GF105991001001999999001021KA1120M+03681MA1999999098321MD1999999-0041REMSYN082AAXX  07184 65335 32956 53204 10306 20165 39832 40055 80002 333 10368 59004 85076;EQDQ01  00002PRCP06
0189653350999992000010800004+08030+002470FM-12+0200DBBS V0209999C000010780019N0080001N1+02501+02101100941ADDAA106000091GA1051+078009019GF105991001001999999001021MA1999999098721MD1999999+0061REMSYN076AAXX  08004 65335 33958 50000 10250 20210 39872 40094 80002 333 58006 85076;EQDQ01  00002PRCP06
0214653350999992000010806004+08030+002470FM-12+0200DBBS V0209999C00001105001CN0080001N1+02311+02081100901ADDAA106000091GA1031+003909069GF107991031051004501001021KA1120N+02111MA1999999098681MD1999999+0101REMSYN088AAXX  08064 65335 32458 70000 10231 20208 39868 4009/ 83502 333 20211 58010 83613 85076;EQDQ01  00002PRCP06
0189653350999992000010812004+08030+002470FM-12+0200DBBS V0209999C000010780019N0080001N1+02131+02001100861ADDAA106000091GA1051+078009019GF105991001001999999001021MA1999999098631MD1999999+0141REMSYN076AAXX  08124 65335 32958 50000 10213 20200 39863 40086 80002 333 58014 85076;EQDQ01  00002PRCP06
0188653350999992000010818004+08030+002470FM-12+0200DBBS V0209999C000010780019N0060001N1+03021+01901100731ADDAA106000091GA1051+078009019GF105991001001999999001021KA1120M+03271MA1999999098501REMSYN076AAXX  08184 65335 32956 50000 10302 20190 39850 40073 80002 333 10327 85076;EQDQ01  00002PRCP06
0189653350999992000010900004+08030+002470FM-12+0200DBBS V0209999C000010780019N0080001N1+02441+01971100961ADDAA106000091GA1051+078009019GF105991001001999999001021MA1999999098731MD1999999+0011REMSYN076AAXX  09004 65335 33958 50000 10244 20197 39873 40096 80002 333 58001 85076;EQDQ01  00002PRCP06
0177653350999992000010912004+08030+002470FM-12+0200DBBS V0209999C000010780019N0080001N1+03221+01791999999ADDAA106000091GA1051+078009019GF105991999999999999999999MA1999999098541MD1999999-0091REMSYN064AAXX  09124 65335 32958 50000 10322 20179 39854 333 59009 85076;EQDQ01  00002PRCP06
0159653350999992000010915004+08030+002470FM-12+0200DBBS V0200801N002110780019N0080001N1+03421+01781100451ADDGA1051+078009019GF105991001001999999001021MA1999999098241MD1999999-0151REMSYN076AAXX  09154 65335 42958 50804 10342 20178 39824 40045 80002 333 59015 85076;
0208653350999992000010918004+08030+002470FM-12+0200DBBS V0209999C000010780019N0080001N1+03251+01951100581ADDAA106000091GA1051+078009019GF105991001001999999001021KA1120M+03551MA1999999098351MD1999999-0151REMSYN082AAXX  09184 65335 32958 50000 10325 20195 39835 40058 80002 333 10355 59015 85076;EQDQ01  00002PRCP06
0189653350999992000011000004+08030+002470FM-12+0200DBBS V0209999C000010780019N0080001N1+02551+02201100891ADDAA106000091GA1051+078009019GF105991001001999999001021MA1999999098671MD1999999-0061REMSYN076AAXX  10004 65335 33958 50000 10255 20220 39867 40089 80002 333 59006 85076;EQDQ01  00002PRCP06
0159653350999992000011003004+08030+002470FM-12+0200DBBS V0209999C000010780019N0080001N1+02501+02301100781ADDGA1051+078009019GF105991001001999999001021MA1999999098571MD1999999+0011REMSYN076AAXX  10034 65335 42958 50000 10250 20230 39857 40078 80002 333 58001 85076;
0208653350999992000011006004+08030+002470FM-12+0200DBBS V0209999C000010780019N0080001N1+02441+02281100821ADDAA106000091GA1051+078009019GF105991001001999999001021KA1120N+02391MA1999999098591MD1999999-0011REMSYN082AAXX  10064 65335 3/958 50000 10244 20228 39859 40082 80002 333 20239 59001 85076;EQDQ01  00002PRCP06
0159653350999992000011009004+08030+002470FM-12+0200DBBS V0201801N001010780019N0080001N1+02781+02301999999ADDGA1051+078009019GF105991001001999999001021MA1999999098701MD1999999-0071REMSYN076AAXX  10094 65335 42958 51802 10278 20230 39870 40/// 80002 333 59007 85076;
0245653350999992000011012004+08030+002470FM-12+0200DBBS V0203601N001010780019N0080001N1+03201+02081100721ADDAA106000091GA1011+003909069GA2041+007809089GA3051+078009009GF105991041081999999001021MA1999999098501MD1999999-0041REMSYN100AAXX  10124 65335 32958 53602 10320 20208 39850 40072 84802 333 59004 81613 84826 85076 94915 95835;EQDQ01  00002PRCP06
0215653350999992000011015004+08030+002470FM-12+0200DBBS V0201401N00211007801CN0080001N1+03401+01961100381ADDGA1021+003909069GA2031+007809089GA3051+078009009GF107991041081004501001021MA1999999098181MD1999999-0061REMSYN100AAXX  10154 65335 42458 71404 10340 20196 39818 40038 84802 333 59006 82613 83826 85076 94912 95832;
0213653350999992000011018004+08030+002470FM-12+0200DBBS V0209999C000010780019N0080001N1+03251+02111999999ADDGA1051+078009999GF105991001001999999001021KA1120M+03541MA1999999098391MD1999999+0041REMSYN082AAXX  10184 65335 //558 50000 10325 20211 39839 4061/ 80002 333 10354 58004 85/76;EQDQ01+008002SCOLCBQ02+106103APOSLP
0189653350999992000011100004+08030+002470FM-12+0200DBBS V0209999C000010780019N0080001N1+02601+02361100891ADDAA106000091GA1051+078009019GF105991001001999999001021MA1999999098671MD1999999+0001REMSYN076AAXX  11004 65335 33958 50000 10260 20236 39867 40089 80002 333 58000 85076;EQDQ01  00002PRCP06
0236653350999992000011106004+08030+002470FM-12+0200DBBS V0209999C000010780019N0030001N1+02311+02201100801ADDAA106000091AY121061AY221061GA1051+078009019GF105991001001999999001021KA1120N+02281MA1999999098571MD1999999-0021MW1101REMSYN088AAXX  11064 65335 31930 50000 10231 20220 39857 40080 71022 80002 333 20228 59002 85076;EQDQ01  00002PRCP06
0209653350999992000011109004+08030+002470FM-12+0200DBBS V0209999C000010780019N0100001N1+02701+02281100991ADDGA1011+003909069GA2031+007809089GA3051+078009009GF107991031081004501001021MA1999999098761MD1999999+0061REMSYN094AAXX  11094 65335 42460 70000 10270 20228 39876 40099 83802 333 58006 81613 83826 85076 95831;
0245653350999992000011112004+08030+002470FM-12+0200DBBS V0209999C000010780019N0100001N1+03251+02161100741ADDAA106000091GA1011+003909069GA2031+007809089GA3051+078009009GF107991031081004501001021MA1999999098521MD1999999+0021REMSYN100AAXX  11124 65335 32460 70000 10325 20216 39852 40074 83802 333 58002 81613 83826 85076 94911 95836;EQDQ01  00002PRCP06
0193653350999992000011115004+08030+002470FM-12+0200DBBS V0209999C000010780019N0100001N1+03501+01941100411ADDGA1011+003909069GA2051+078009009GF106991011081004501001021MA1999999098201MD1999999+0021REMSYN094AAXX  11154 65335 42460 60000 10350 20194 39820 40041 81802 333 58002 81613 85076 94904 95834;
0208653350999992000011118004+08030+002470FM-12+0200DBBS V0209999C000010780019N0100001N1+03321+02041100511ADDAA106000091GA1051+078009019GF105991001001999999001021KA1120M+03601MA1999999098291MD1999999-0101REMSYN082AAXX  11184 65335 32960 50000 10332 20204 39829 40051 80002 333 10360 59010 85076;EQDQ01  00002PRCP06
0189653350999992000011200004+08030+002470FM-12+0200DBBS V0209999C000010780019N0100001N1+02601+02241100771ADDAA106000091GA1051+078009019GF105991001001999999001021MA1999999098551MD1999999-0121REMSYN076AAXX  12004 65335 33960 50000 10260 20224 39855 40077 80002 333 59012 85076;EQDQ01  00002PRCP06
0172653350999992000011203004+08030+002470FM-12+0200DBBS V0209999C000010780019N9999999N1+99999+99999999999ADDGA1051+078009019GF105991999011999999051999MA1999999098461MD1999999-0061REMSYN070AAXX  12034 65335 4296/ 50000 10/50 20231 39846 8715/ 333 59006 85076;EQDQ01+000072SCOTLC
0236653350999992000011206004+08030+002470FM-12+0200DBBS V0209999C000010780019N0050001N1+02361+02241100791ADDAA106000091AY121061AY221061GA1051+078009019GF105991001001999999001021KA1120N+02331MA1999999098561MD1999999-0011MW1101REMSYN088AAXX  12064 65335 31950 50000 10236 20224 39856 40079 71022 80002 333 20233 59001 85076;EQDQ01  00002PRCP06
0159653350999992000011209004+08030+002470FM-12+0200DBBS V0209999C000010780019N0080001N1+02651+02371101011ADDGA1051+078009019GF105991001001999999001021MA1999999098781MD1999999-0221REMSYN076AAXX  12094 65335 42958 50000 10265 20237 39878 40101 80002 333 59022 85076;
0195653350999992000011212004+08030+002470FM-12+0200DBBS V0202201N00311105001CN0080001N1+03201+01981100771ADDAA106000091GA1031+003909069GF107991031051004501001021MA1999999098551MD1999999+0031REMSYN082AAXX  12124 65335 32458 72206 10320 20198 39855 40077 83502 333 58003 83613 85076;EQDQ01  00002PRCP06
0193653350999992000011215004+08030+002470FM-12+0200DBBS V0201201N002110780019N0080001N1+03521+01971999999ADDGA1011+003909069GA2051+078009009GF106991011081004501001999MA1999999098281MD1999999+0081REMSYN094AAXX  12154 65335 42458 61204 10352 20197 39828 40/49 8180/ 333 58008 81613 85076 94904 95834;
0208653350999992000011218004+08030+002470FM-12+0200DBBS V0209999C000010780019N0080001N1+03231+02001100591ADDAA106000091GA1051+078009019GF105991001001999999001021KA1120M+03581MA1999999098371MD1999999+0081REMSYN082AAXX  12184 65335 32958 50000 10323 20200 39837 40059 80002 333 10358 58008 85076;EQDQ01  00002PRCP06
0189653350999992000011300004+08030+002470FM-12+0200DBBS V0209999C000010780019N0080001N1+02561+02301100841ADDAA106000091GA1051+078009019GF105991001001999999001021MA1999999098621MD1999999+0071REMSYN076AAXX  13004 65335 33958 50000 10256 20230 39862 40084 80002 333 58007 85076;EQDQ01  00002PRCP06
0164653350999992000011303004+08030+002470FM-12+0200DBBS V0209999C000010780019N0080001N1+02431+99999100721ADDGA1051+078009019GF105991001999999999001021MA1999999098571REMSYN076AAXX  13034 65335 42958 50000 10243 202/8 39857 40072 80502 333 59/05 85076;EQDQ01+000052SCOLCG
0242653350999992000011306004+08030+002470FM-12+0200DBBS V0209999C00001105001CN0050001N1+02301+02241100761ADDAA106000091AY121061AY221061GA1031+003909069GF107991031051004501001021KA1120N+02251MA1999999098531MD1999999-0031MW1101REMSYN094AAXX  13064 65335 31450 70000 10230 20224 39853 40076 71022 83502 333 20225 59003 83613 85076;EQDQ01  00002PRCP06
0159653350999992000011309004+08030+002470FM-12+0200DBBS V0209999C000010780019N0080001N1+02701+02301100931ADDGA1051+078009019GF105991001001999999001021MA1999999098701MD1999999-0081REMSYN076AAXX  13094 65335 42958 50000 10270 20230 39870 40093 80002 333 59008 85076;
0223653350999992000011312004+08030+002470FM-12+0200DBBS V0202201N003110780019N0080001N1+03261+02191100671ADDAA106000091GA1031+003909069GA2051+078009009GF107991041081004501001021MA1999999098451MD1999999-0101REMSYN094AAXX  13124 65335 32458 72206 10326 20219 39845 40067 84802 333 59010 83613 85076 94909 95839;EQDQ01  00002PRCP06
0193653350999992000011315004+08030+002470FM-12+0200DBBS V0209999C000010780019N0080001N1+03501+02051100391ADDGA1031+003909069GA2051+078009009GF107991041081004501001021MA1999999098191MD1999999-0091REMSYN094AAXX  13154 65335 42458 70000 10350 20205 39819 40039 84802 333 59009 83613 85076 94909 95839;
0208653350999992000011318004+08030+002470FM-12+0200DBBS V0209999C000010780019N0080001N1+03321+02101100511ADDAA106000091GA1051+078009019GF105991001001999999001021KA1120M+03621MA1999999098291MD1999999-0081REMSYN082AAXX  13184 65335 32958 50000 10332 20210 39829 40051 80002 333 10362 59008 85076;EQDQ01  00002PRCP06
0193653350999992000011400004+08030+002470FM-12+020099999V0209999C00001078001BN0080001N1+02561+02241100811ADDAA199000091GA1051+078009019GF105991001001999999001021MA1999999098591MD1999999-0031REMSYN080    AAXX  14004 65335 33958 50000 10256 20224 39859 40081 80002 333 59003 85076;EQDQ01  00002PRCP99
0212653350999992000011406004+08030+002470FM-12+020099999V0209999C00001003901BN0080001N1+02531+02341100711ADDAA199000091GA1071+003909059GF107991071051004501999999KA1120N+02391MA1999999098491MD1999999-0041REMSYN086    AAXX  14064 65335 32458 70000 10253 20234 39849 40071 875// 333 20239 59004 87613;EQDQ01  00002PRCP99
0176653350999992000011409004+08030+002470FM-12+020099999V0202201N00101007801BN0080001N1+02661+02341100881ADDGA1031+003909069GA2051+007809089GF107991071081004501999999MD1999999-0051REMSYN092    AAXX  14094 65335 42458 72202 10266 20234 40088 878// 333 59005 83613 85826 94919 95839;
0228653350999992000011412004+08030+002470FM-12+020099999V0201801N00101007801BN0080001N1+03071+02311100641ADDAA199000091GA1031+003909069GA2051+007809089GF107991071081004501999999MD1999999-0031REMSYN098    AAXX  14124 65335 32458 71802 10307 20231 39642 40064 878// 333 59003 83613 85826 94919 95819;EQDQ01+096423APOSP Q02  00002PRCP99
0191653350999992000011415004+08030+002470FM-12+020099999V0201001N00211007801BN0080001N1+03271+02311100351ADDGA1031+003909069GA2051+007809089GF107991071081004501999999MA1999999098141MD1999999-0051REMSYN092    AAXX  14154 65335 42458 71004 10327 20231 39814 40035 878// 333 59005 83613 85826 94929;
0212653350999992000011418004+08030+002470FM-12+020099999V0209999C00001078001BN0080001N1+03101+02281100441ADDAA199000091GA1051+078009019GF105991001001999999001021KA1120M+03371MA1999999098221MD1999999-0071REMSYN086    AAXX  14184 65335 32958 50000 10310 20228 39822 40044 80002 333 10337 59007 85076;EQDQ01  00002PRCP99
0213653350999992000011500004+08030+002470FM-12+020099999V0209999C00001078001BN0080001N1+02651+02321100721ADDAA199000091AY191061GA1051+078009019GF105991001001999999001021MA1999999098501MD1999999-0091MW1001REMSYN086    AAXX  15004 65335 31958 50000 10265 20232 39850 40072 7009/ 80002 333 59009 85076;EQDQ01  00002PRCP99
0212653350999992000011506004+08030+002470FM-12+020099999V0209999C00001003901BN0080001N1+02461+02321100741ADDAA199000091GA1071+003909059GF107991071051004501999999KA1120N+02401MA1999999098511MD1999999+0021REMSYN086    AAXX  15064 65335 32458 70000 10246 20232 39851 40074 875// 333 20240 58002 87613;EQDQ01  00002PRCP99
0197653350999992000011509004+08030+002470FM-12+020099999V0201801N00211078001BN0080001N1+02711+02321100941ADDGA1021+003909069GA2051+078009009GF107991021081004501001021MA1999999098701MD1999999+0051REMSYN098    AAXX  15094 65335 42458 71804 10271 20232 39870 40094 82802 333 58005 82613 85076 94904 95814;
0249653350999992000011512004+08030+002470FM-12+020099999V0200401N00211007801BN0080001N1+03231+02341100781ADDAA199000091GA1031+003909069GA2031+007809089GA3051+078009009GF107991051081004501001021MA1999999098561MD1999999+0141REMSYN104    AAXX  15124 65335 32458 70404 10323 20234 39856 40078 85802 333 58014 83613 83826 85076 94909 95839;EQDQ01  00002PRCP99
0186653350999992000011515004+08030+002470FM-12+020099999V0209999C00001078001CN0080001N1+03441+02081999999ADDGA1031+007809089GA2051+078009009GA3031+999999069GF107991999999004501999999MD1999999+0071REMSYN086    AAXX  15154 65335 42458 70000 10344 20208 333 58007 836/3 83826 85076 94909 95835;
0218653350999992000011518004+08030+002470FM-12+020099999V0209999C00001105001CN0080001N1+03301+02141100501ADDAA199000091GA1021+003909069GF106991021051004501001021KA1120M+03601MA1999999098291MD1999999+0071REMSYN092    AAXX  15184 65335 32458 60000 10330 20214 39829 40050 82502 333 10360 58007 82613 85076;EQDQ01  00002PRCP99
0193653350999992000011600004+08030+002470FM-12+020099999V0209999C00001078001BN0080001N1+02501+02201100801ADDAA199000091GA1051+078009019GF105991001001999999001021MA1999999098581MD1999999+0081REMSYN080    AAXX  16004 65335 33958 50000 10250 20220 39858 40080 80002 333 58008 85076;EQDQ01  00002PRCP99
0176653350999992000011606004+08030+002470FM-12+020099999V0209999999999078001BN0080001N1+02281+02141999999ADDGA1051+078009019GF105991001001999999001021KA1120N+02271MA1999999098601MD1999999+0091REMSYN080    AAXX  16064 65335 /2958 50/08 10228 20214 39860 80002 333 20227 58009 85076;
0163653350999992000011609004+08030+002470FM-12+020099999V0209999C00001003901BN0080001N1+02531+02281101031ADDGA1071+003909059GF107991071051004501999999MA1999999098791MD1999999+0091REMSYN080    AAXX  16094 65335 42458 70000 10253 20228 39879 40103 875// 333 58009 87613;
0199653350999992000011612004+08030+002470FM-12+020099999V0202001N00101105001CN0080001N1+03141+02211100841ADDAA199000091GA1021+003909069GF106991021051004501001021MA1999999098611MD1999999+0051REMSYN086    AAXX  16124 65335 32458 62002 10314 20221 39861 40084 82502 333 58005 82613 85076;EQDQ01  00002PRCP99
0163653350999992000011615004+08030+002470FM-12+020099999V0209999C00001078001BN0080001N1+03501+02001100541ADDGA1051+078009019GF105991001001999999001021MA1999999098331MD1999999+0121REMSYN080    AAXX  16154 65335 42958 50000 10350 20200 39833 40054 80002 333 58012 85076;
0212653350999992000011618004+08030+002470FM-12+020099999V0209999C00001078001BN0080001N1+03241+02061100661ADDAA199000091GA1051+078009019GF105991001001999999001021KA1120M+03621MA1999999098441MD1999999+0151REMSYN086    AAXX  16184 65335 32958 50000 10324 20206 39844 40066 80002 333 10362 58015 85076;EQDQ01  00002PRCP99
0193653350999992000011700004+08030+002470FM-12+020099999V0209999C00001078001BN0080001N1+02631+02371100911ADDAA199000091GA1051+078009019GF105991001001999999001021MA1999999098691MD1999999+0111REMSYN080    AAXX  17004 65335 33958 50000 10263 20237 39869 40091 80002 333 58011 85076;EQDQ01  00002PRCP99
0198653350999992000011703004+08030+002470FM-12+020099999V0209999C00001078001BN0080001N1+02521+02321100821ADDGA1051+078009019GF105991001001999999001021MA1999999999999MD1999999+0091REMSYN080    AAXX  17034 65335 42958 50000 10252 20232 39581 40082 80002 333 58009 85076;EQDQ01+095813APOSP Q02 095813APOSP 
0228653350999992000011706004+08030+002470FM-12+020099999V0209999C00001078001BN0080001N1+02401+02301100861ADDAA199000091GA1051+078009019GF105991001001999999001021KA1120N+02361MA1999999098632MD1999999+0031REMSYN086    AAXX  17064 65335 32958 50000 10240 20230 39863 40086 80002 333 20236 58003 85076;EQDQ01+098633APOSP Q02  00002PRCP99
0163653350999992000011709004+08030+002470FM-12+020099999V0202201N00311078001BN0080001N1+02781+02301100951ADDGA1051+078009019GF105991001001999999001021MA1999999098721MD1999999-0071REMSYN080    AAXX  17094 65335 42958 52206 10278 20230 39872 40095 80002 333 59007 85076;
0193653350999992000011712004+08030+002470FM-12+020099999V0203601N00211078001BN0080001N1+03451+01971100701ADDAA199000091GA1051+078009019GF105991001001999999001021MA1999999098491MD1999999-0121REMSYN080    AAXX  17124 65335 32958 53604 10345 20197 39849 40070 80002 333 59012 85076;EQDQ01  00002PRCP99
0163653350999992000011715004+08030+002470FM-12+020099999V0200401N00211078001BN0060001N1+03771+01681100401ADDGA1051+078009019GF105991001001999999001021MA1999999098211MD1999999-0121REMSYN080    AAXX  17154 65335 42956 50404 10377 20168 39821 40040 80002 333 59012 85076;
0212653350999992000011718004+08030+002470FM-12+020099999V0209999C00001078001BN0080001N1+03401+01791100541ADDAA199000091GA1051+078009019GF105991001001999999001021KA1120M+03841MA1999999098321MD1999999-0121REMSYN086    AAXX  17184 65335 32958 50000 10340 20179 39832 40054 80002 333 10384 59012 85076;EQDQ01  00002PRCP99
0193653350999992000011800004+08030+002470FM-12+020099999V0209999C00001078001BN0080001N1+02611+02311100941ADDAA199000091GA1051+078009019GF105991001001999999001021MA1999999098721MD1999999+0031REMSYN080    AAXX  18004 65335 33958 50000 10261 20231 39872 40094 80002 333 58003 85076;EQDQ01  00002PRCP99
0163653350999992000011803004+08030+002470FM-12+020099999V0209999C00001078001BN0080001N1+02451+02301100771ADDGA1051+078009019GF105991001001999999001021MA1999999098561MD1999999-0051REMSYN080    AAXX  18034 65335 42958 50000 10245 20230 39856 40077 80002 333 59005 85076;
0212653350999992000011806004+08030+002470FM-12+020099999V0209999C00001003901BN0080001N1+02461+02351100941ADDAA199000091GA1071+003909059GF107991071051004501999999KA1120N+02381MA1999999098721MD1999999+0091REMSYN086    AAXX  18064 65335 32458 70000 10246 20235 39872 40094 875// 333 20238 58009 87613;EQDQ01  00002PRCP99
0197653350999992000011809004+08030+002470FM-12+020099999V0201201N00211007801BN0080001N1+99999+99999101111ADDGA1031+003909069GA2041+007809089GF107991051081004501001021MA1999999098881MD1999999+0161REMSYN098    AAXX  18094 65335 42458 71204 102/6 20233 39888 40111 85802 333 58016 83613 84826 94917 95837;
0249653350999992000011812004+08030+002470FM-12+020099999V0209999C00001078001BN0080001N1+03271+01731100861ADDAA199000091GA1011+003909069GA2031+007809089GA3051+078009009GF107991031081004501001021MA1999999098641MD1999999+0151REMSYN104    AAXX  18124 65335 32458 70000 10327 20173 39864 40086 83802 333 58015 81613 83826 85076 94915 95815;EQDQ01  00002PRCP99
0246653350999992000011818004+08030+002470FM-12+020099999V0209999C00001078001BN0080001N1+03371+02151100621ADDAA199000091GA1011+003909069GA2051+078009009GF107991021081004501001021KA1120M+03651MA1999999098401MD1999999+0081REMSYN104    AAXX  18184 65335 32458 70000 10337 20215 39840 40062 82802 333 10365 58008 81613 85076 94915 95815;EQDQ01  00002PRCP99
0193653350999992000011900004+08030+002470FM-12+020099999V0209999C00001078001BN0080001N1+02651+02291100881ADDAA199000091GA1051+078009019GF105991001001999999001021MA1999999098671MD1999999-0051REMSYN080    AAXX  19004 65335 33958 50000 10265 20229 39867 40088 80002 333 59005 85076;EQDQ01  00002PRCP99
0212653350999992000011906004+08030+002470FM-12+020099999V0209999C00001003901BN0080001N1+02541+02371100801ADDAA199000091GA1071+003909059GF107991071051004501999999KA1120N+02411MA1999999098591MD1999999-0131REMSYN086    AAXX  19064 65335 32458 70000 10254 20237 39859 40080 875// 333 20241 59013 87613;EQDQ01  00002PRCP99
0163653350999992000011909004+08030+002470FM-12+020099999V0201801N00311003901BN0080001N1+02711+02341101061ADDGA1071+003909059GF107991071051004501999999MA1999999098831MD1999999-0051REMSYN080    AAXX  19094 65335 42458 71806 10271 20234 39883 40106 875// 333 59005 87613;
0227653350999992000011912004+08030+002470FM-12+020099999V0201401N00211078001BN0080001N1+03081+02291100851ADDAA199000091GA1041+003909069GA2051+078009009GF107991051081004501001021MA1999999098631MD1999999-0011REMSYN098    AAXX  19124 65335 32458 71404 10308 20229 39863 40085 85802 333 59001 84613 85076 94909 95819;EQDQ01  00002PRCP99
0197653350999992000011915004+08030+002470FM-12+020099999V0209999C00001078001BN0080001N1+03401+02091100531ADDGA1031+003909069GA2051+078009009GF107991041081004501001021MA1999999098311MD1999999-0041REMSYN098    AAXX  19154 65335 42458 70000 10340 20209 39831 40053 84802 333 59004 83613 85076 94909 95819;
0208653350999992000011918004+08030+002470FM-12+0200DBBS V0209999C000010780019N0080001N1+03271+02221100661ADDAA199000091GA1051+078009019GF105991001001999999001021KA1120M+03521MA1999999098441MD1999999+0041REMSYN082AAXX  19184 65335 32958 50000 10327 20222 39844 40066 80002 333 10352 58004 85076;EQDQ01  00002PRCP99
0183653350999992000012000004+08030+002470FM-12+0200DBBS V0209999C000010780019N0080001N1+99999+99999100991ADDAA199000091GA1051+078009019GF105991001001999999999021MA1999999098771MD1999999+0101REMSYN070AAXX  20004 65335 32958 50000 2/236 39877 40099 800/2 333 58010 85076;EQDQ01  00002PRCP99
0229653350999992000012006004+08030+002470FM-12+0200DBBS V0201001N001019999999N0080001N1+02151+02071100911ADDAA124004191AY191061AY261061GA1021+033009039GF106991021001999999031021KA1120N+02121MA1999999098571MD1999999+0091MW1011REMSYN100AAXX  20064 65335 11958 61002 10215 20207 39857 40091 60044 70196 82032 333 20212 58009 82361 85076;
0137653350999992000012009004+08030+002470FM-12+0200DBBS V0201401N001011050019N0080001N1+02571+02291101161ADDGF107991021081004501001021MA1999999098921MD1999999+0091REMSYN070AAXX  20094 65335 42458 71402 10257 20229 39892 40116 82802 333 58009;
0223653350999992000012012004+08030+002470FM-12+0200DBBS V0209999C000010780019N0080001N1+03171+02331100891ADDAA199000091GA1021+003909069GA2051+078009009GF106991021081004501001021MA1999999098671MD1999999+0041REMSYN094AAXX  20124 65335 32458 60000 10317 20233 39867 40089 82802 333 58004 82613 85076 94905 95835;EQDQ01  00002PRCP99
0223653350999992000012015004+08030+002470FM-12+0200DBBS V0209999C000010780019N0080001N1+03171+02331100891ADDAA199000091GA1021+003909069GA2051+078009009GF106991021081004501001021MA1999999098671MD1999999+0041REMSYN094AAXX  20154 65335 32458 60000 10317 20233 39867 40089 82802 333 58004 82613 85076 94905 95835;EQDQ01  00002PRCP99
0292653350999992000012018004+08030+002470FM-12+0200DBBS V0201001N001010780019N0080001N1+03041+02261100741ADDAA199000091AY191061AY221061GA1011+003909069GA2011+009009099GA3051+078009009GF107991021091004501031021KA1120M+03501MA1999999098501MD1999999+0061MW1171REMSYN112AAXX  20184 65335 31458 71002 10304 20226 39850 40074 71792 82932 333 10350 58006 81613 81930 85076 94943 95813;EQDQ01  00002PRCP99
0189653350999992000012100004+08030+002470FM-12+0200DBBS V0209999C000010780019N0080001N1+02561+02301100981ADDAA199000091GA1051+078009019GF105991001001999999001021MA1999999098761MD1999999-0011REMSYN076AAXX  21004 65335 33958 50000 10256 20230 39876 40098 80002 333 59001 85076;EQDQ01  00002PRCP99
0208653350999992000012106004+08030+002470FM-12+0200DBBS V0209999C000010039019N0080001N1+02501+02351100981ADDAA199000091GA1071+003909059GF107991071051004501999999KA1120N+02401MA1999999098751MD1999999+0081REMSYN082AAXX  21064 65335 32458 70000 10250 20235 39875 40098 875// 333 20240 58008 87613;EQDQ01  00002PRCP99
0157653350999992000012109004+08030+002470FM-12+0200DBBS V0201801N002110039019N0080001N1+02601+02241101161ADDGA1071+003909069GF107991071081004501999999MA1999999098921REMSYN088AAXX  21094 65335 42458 71804 10260 20224 39892 40116 878// 333 58/00 87613 94907 95837;
0189653350999992000012112004+08030+002470FM-12+0200DBBS V0201801N001010039019N0080001N1+02941+02281100991ADDAA199000091GA1071+003909059GF107991071051004501999999MA1999999098761MD1999999+0091REMSYN076AAXX  21124 65335 32458 71802 10294 20228 39876 40099 875// 333 58009 87613;EQDQ01  00002PRCP99
0215653350999992000012115004+08030+002470FM-12+0200DBBS V0209999C000010078019N0080001N1+03251+02221100641ADDGA1031+003909069GA2031+007809089GA3051+078009009GF107991051081004501001021MA1999999098421MD1999999+0021REMSYN100AAXX  21154 65335 42458 70000 10325 20222 39842 40064 85802 333 58002 83613 83826 85076 94909 95839;
0188653350999992000012118004+08030+002470FM-12+0200DBBS V0209999C000010780019N0080001N1+03201+02321100701ADDAA199000091GA1051+078009019GF105991001001999999001021KA1120M+03401MA1999999098441REMSYN076AAXX  21184 65335 32958 50000 10320 20232 39844 40070 80002 333 10340 85076;EQDQ01  00002PRCP99
0195653350999992000012200004+08030+002470FM-12+0200DBBS V0209999C000019999999N0080001N1+02621+02281100941ADDAA199000091GA1031+039009039GF107991031001999999031021MA1999999098711MD1999999-0051REMSYN082AAXX  22004 65335 33958 70000 10262 20228 39871 40094 83032 333 59005 83363 85076;EQDQ01  00002PRCP99
0208653350999992000012206004+08030+002470FM-12+0200DBBS V0209999C000010780019N0080001N1+02371+02161100881ADDAA199000091GA1051+078009019GF105991001001999999001021KA1120N+02341MA1999999098651MD1999999-0101REMSYN082AAXX  22064 65335 32958 50000 10237 20216 39865 40088 80002 333 20234 59010 85076;EQDQ01  00002PRCP99
0159653350999992000012209004+08030+002470FM-12+0200DBBS V0209999C000010780019N0080001N1+02681+02201100991ADDGA1051+078009019GF105991001001999999001021MA1999999098761MD1999999-0161REMSYN076AAXX  22094 65335 42958 50000 10268 20220 39876 40099 80002 333 59016 85076;
0207653350999992000012212004+08030+002470FM-12+0200DBBS V0202801N00101105001CN0100001N1+03331+02171100741ADDAA199000091GA1011+000609089GF106991011081004501001021MA1999999098531MD1999999-0231REMSYN094AAXX  22124 65335 32460 62802 10333 20217 39853 40074 81802 333 59023 81613 85076 94904 95834;EQDQ01  00002PRCP99
0193653350999992000012215004+08030+002470FM-12+0200DBBS V0200601N001010780019N0100001N1+03601+02041100471ADDGA1011+003909069GA2051+078009009GF106991011081004501001021MA1999999098271MD1999999-0151REMSYN094AAXX  22154 65335 42460 60602 10360 20204 39827 40047 81802 333 59015 81613 85076 94904 95834;
0208653350999992000012218004+08030+002470FM-12+0200DBBS V0209999C000010780019N0100001N1+03431+02301100541ADDAA199000091GA1051+078009019GF105991001001999999001021KA1120M+03731MA1999999098321MD1999999-0121REMSYN082AAXX  22184 65335 32960 50000 10343 20230 39832 40054 80002 333 10373 59012 85076;EQDQ01  00002PRCP99
0208653350999992000012306004+08030+002470FM-12+0200DBBS V0201801N003110039019N0100001N1+02441+02341100761ADDAA199000091GA1071+003909059GF107991071051004501999999KA1120N+02351MA1999999098541MD1999999-0111REMSYN082AAXX  23064 65335 32460 71806 10244 20234 39854 40076 875// 333 20235 59011 87613;EQDQ01  00002PRCP99
0159653350999992000012309004+08030+002470FM-12+0200DBBS V0201401N001010039019N0100001N1+02551+02361100971ADDGA1081+003909059GF108991081051004501999999MA1999999098731MD1999999-0031REMSYN076AAXX  23094 65335 42460 81402 10255 20236 39873 40097 885// 333 59003 88613;
0189653350999992000012312004+08030+002470FM-12+0200DBBS V0201801N005110039019N0100001N1+02801+02381100821ADDAA199000091GA1081+003909059GF108991081051004501999999MA1999999098591MD1999999+0061REMSYN076AAXX  23124 65335 32460 81810 10280 20238 39859 40082 885// 333 58006 88613;EQDQ01  00002PRCP99
0193653350999992000012315004+08030+002470FM-12+0200DBBS V0201401N002110039019N0100001N1+02981+02301100571ADDGA1051+003909069GA2041+078009009GF107991061081004501001021MA1999999098841MD1999999+0171REMSYN094AAXX  23154 65335 42460 71404 10298 20230 39884 40057 86802 333 58017 85613 84076 94909 95839;
0207653350999992000012318004+08030+002470FM-12+0200DBBS V0209999C000010780019N0100001N1+02891+02341100661ADDAA199000091GA1051+078009019GF105991001001999999001021KA1120M+03051MA1999999098431MD1999999+0111REMSYN081AAXX  23184 6533532960 50000 10289 20234 39843 40066 80002 333 10305 58011 85076;EQDQ01  00002PRCP99
0159653350999992000012409004+08030+002470FM-12+0200DBBS V0209999C000010039019N0100001N1+02641+02251101051ADDGA1071+003909059GF107991071051004501999999MA1999999098811MD1999999+0081REMSYN076AAXX  24094 65335 42460 70000 10264 20225 39881 40105 875// 333 58008 87613;
0223653350999992000012412004+08030+002470FM-12+0200DBBS V0209999C000010078019N0100001N1+02941+02231100871ADDAA199000091GA1021+003909069GA2051+007809089GF107991051081004501001021MA1999999098631MD1999999+0041REMSYN094AAXX  24124 65335 32460 70000 10294 20223 39863 40087 85802 333 58004 82613 85826 94919 95819;EQDQ01  00002PRCP99
0183653350999992000012415004+08030+002470FM-12+0200DBBS V0201601N00101105001CN0100001N1+03331+02241100501ADDGA1041+000609089GF107991041081004501001021MA1999999098391MD1999999+0051REMSYN100AAXX  24154 65335 42460 71602 10333 20224 39839 40050 84802 333 58005 82613 83826 85076 94914 95814;
0242653350999992000012418004+08030+002470FM-12+0200DBBS V0201401N002110780019N0100001N1+03171+02081100731ADDAA199000091GA1021+003909069GA2051+078009009GF107991031081004501001021KA1120M+03451MA1999999098501MD1999999+0071REMSYN100AAXX  24184 65335 32460 71404 10317 20208 39850 40073 83802 333 10345 58007 82613 85076 94926 95836;EQDQ01  00002PRCP99
0189653350999992000012500004+08030+002470FM-12+0200DBBS V0209999C000010780019N0100001N1+02531+02161101021ADDAA199000091GA1051+078009019GF105991001001999999001021MA1999999098781MD1999999+0121REMSYN076AAXX  25004 65335 33960 50000 10253 20216 39878 40102 80002 333 58012 85076;EQDQ01  00002PRCP99
0208653350999992000012506004+08030+002470FM-12+0200DBBS V0209999C000010780019N0100001N1+02231+02081100971ADDAA199000091GA1051+078009019GF105991001001999999001021KA1120N+02191MA1999999098731MD1999999+0111REMSYN082AAXX  25064 65335 32960 50000 10223 20208 39873 40097 80002 333 20219 58011 85076;EQDQ01  00002PRCP99
0159653350999992000012509004+08030+002470FM-12+0200DBBS V0201401N002110780019N0100001N1+02701+02181101221ADDGA1051+078009019GF105991001001999999001021MA1999999098981MD1999999+0171REMSYN076AAXX  25094 65335 42960 51404 10270 20218 39898 40122 80002 333 58017 85076;
0245653350999992000012512004+08030+002470FM-12+0200DBBS V0202801N00311007801CN0100001N1+03301+02141100981ADDAA199000091GA1021+003909069GA2031+007809089GA3051+078009009GF107991041081004501001021MA1999999098761MD1999999+0131REMSYN100AAXX  25124 65335 32460 72806 10330 20214 39876 40098 84802 333 58013 82613 83826 85076 94909 95819;EQDQ01  00002PRCP99
0215653350999992000012515004+08030+002470FM-12+0200DBBS V0201401N004110078019N0100001N1+03521+02121100681ADDGA1021+003909069GA2041+007809089GA3051+078009009GF107991051081004501001021MA1999999098471MD1999999+0041REMSYN100AAXX  25154 65335 42460 71408 10352 20212 39847 40068 85802 333 58004 82613 84826 85076 94919 95839;
0208653350999992000012518004+08030+002470FM-12+0200DBBS V0201401N002110780019N0100001N1+03301+02081100761ADDAA199000091GA1051+078009019GF105991001001999999001021KA1120M+03601MA1999999098531MD1999999+0031REMSYN082AAXX  25184 65335 32960 51404 10330 20208 39853 40076 80002 333 10360 58003 85076;EQDQ01  00002PRCP99
0189653350999992000012600004+08030+002470FM-12+0200DBBS V0209999C000010780019N0100001N1+02571+02201100951ADDAA199000091GA1051+078009019GF105991001001999999001021MA1999999098731MD1999999-0051REMSYN076AAXX  26004 65335 33960 50000 10257 20220 39873 40095 80002 333 59005 85076;EQDQ01  00002PRCP99
0208653350999992000012606004+08030+002470FM-12+0200DBBS V0209999C000010039019N0100001N1+02301+02181101061ADDAA199000091GA1071+003909059GF107991071051004501999999KA1120N+02271MA1999999098831MD1999999+0101REMSYN082AAXX  26064 65335 32460 70000 10230 20218 39883 40106 875// 333 20227 58010 87613;EQDQ01  00002PRCP99
0223653350999992000012612004+08030+002470FM-12+0200DBBS V0201601N002110780019N0100001N1+03151+02211101051ADDAA199000091GA1011+003909069GA2051+078009009GF106991011081004501001021MA1999999098821MD1999999+0061REMSYN094AAXX  26124 65335 32460 61604 10315 20221 39882 40105 81802 333 58006 81613 85076 94902 95832;EQDQ01  00002PRCP99
0214653350999992000012618004+08030+002470FM-12+0200DBBS V0209999C000019999999N0100001N1+03551+02111100741ADDAA199000091GA1011+033009039GF105991011001999999031021KA1120M+03601MA1999999098511MD1999999-0021REMSYN088AAXX  26184 65335 32960 50000 10355 20211 39851 40074 81032 333 10360 59002 81361 85076;EQDQ01  00002PRCP99
0195653350999992000012700004+08030+002470FM-12+0200DBBS V0209999C000019999999N0100001N1+02581+02291100951ADDAA199000091GA1031+039009039GF107991031001999999031021MA1999999098731MD1999999+0001REMSYN082AAXX  27004 65335 33960 70000 10258 20229 39873 40095 83032 333 58000 83363 85076;EQDQ01  00002PRCP99
0159653350999992000012703004+08030+002470FM-12+0200DBBS V0209999C000010780019N0100001N1+02451+02231100851ADDGA1051+078009019GF105991001001999999001021MA1999999098641MD1999999-0041REMSYN076AAXX  27034 65335 42960 50000 10245 20223 39864 40085 80002 333 59004 85076;
0208653350999992000012706004+08030+002470FM-12+0200DBBS V0209999C000010780019N0100001N1+02301+02201101041ADDAA199000091GA1051+078009019GF105991001001999999001021KA1120N+02281MA1999999098811MD1999999-0021REMSYN082AAXX  27064 65335 32960 50000 10230 20220 39881 40104 80002 333 20228 59002 85076;EQDQ01  00002PRCP99
0159653350999992000012709004+08030+002470FM-12+0200DBBS V0209999C000010780019N0100001N1+02601+02201101191ADDGA1051+078009019GF105991001001999999001021MA1999999098951MD1999999-0071REMSYN076AAXX  27094 65335 42960 50000 10260 20220 39895 40119 80002 333 59007 85076;
0223653350999992000012712004+08030+002470FM-12+0200DBBS V0201401N002110780019N0100001N1+03281+02151101031ADDAA199000091GA1011+003909069GA2051+078009009GF107991021081004501001021MA1999999098801MD1999999-0021REMSYN094AAXX  27124 65335 32460 71404 10328 20215 39880 40103 82802 333 59002 81613 85076 94902 95832;EQDQ01  00002PRCP99
0193653350999992000012715004+08030+002470FM-12+0200DBBS V0200401N003110780019N0100001N1+03601+01981100681ADDGA1021+007809089GA2051+078009009GF106991021011008001001021MA1999999098471MD1999999-0071REMSYN094AAXX  27154 65335 42560 60406 10360 20198 39847 40068 82102 333 59007 82826 85076 94902 95832;
0208653350999992000012718004+08030+002470FM-12+0200DBBS V0209999C000010780019N0100001N1+03421+01931100701ADDAA199000091GA1051+078009019GF105991001001999999001021KA1120M+03701MA1999999098481MD1999999-0031REMSYN082AAXX  27184 65335 32960 50000 10342 20193 39848 40070 80002 333 10370 59003 85076;EQDQ01  00002PRCP99
0189653350999992000012800004+08030+002470FM-12+0200DBBS V0209999C000010780019N0100001N1+02601+02241100861ADDAA199000091GA1051+078009019GF105991001001999999001021MA1999999098631MD1999999-0101REMSYN076AAXX  28004 65335 33960 50000 10260 20224 39863 40086 80002 333 59010 85076;EQDQ01  00002PRCP99
0159653350999992000012803004+08030+002470FM-12+0200DBBS V0209999C000010780019N0100001N1+02451+02241100791ADDGA1051+078009019GF105991001001999999001021MA1999999098581MD1999999-0061REMSYN076AAXX  28034 65335 42960 50000 10245 20224 39858 40079 80002 333 59006 85076;
0113653350999992000012809004+08030+002470FM-12+0200DBBS V0209999C000019999999N0100001N1+02771+02231101081ADDGF105991001001999999001021MA1999999098851REMSYN060AAXX  28094 65335 42960 50000 10277 20223 39885 40108 80002;
0189653350999992000012812004+08030+002470FM-12+0200DBBS V0209999C000010780019N0100001N1+03531+01771100811ADDAA199000091GA1051+078009019GF105991001001999999001021MA1999999098601MD1999999-0201REMSYN076AAXX  28124 65335 32960 50000 10353 20177 39860 40081 80002 333 59020 85076;EQDQ01  00002PRCP99
0147653350999992000012815004+08030+002470FM-12+0200DBBS V0201001N001010780019N0100001N1+03781+01521999999ADDGA1051+078009019GF105991001001999999001021MD1999999-0181ME1310499REMSYN070AAXX  28154 65335 42960 51002 10378 20152 48049 80002 333 59018 85076;
0208653350999992000012818004+08030+002470FM-12+0200DBBS V0209999C000010780019N0100001N1+03441+01581100601ADDAA199000091GA1051+078009019GF105991001001999999001021KA1120M+03881MA1999999098381MD1999999-0101REMSYN082AAXX  28184 65335 32960 50000 10344 20158 39838 40060 80002 333 10388 59010 85076;EQDQ01  00002PRCP99
0189653350999992000012900004+08030+002470FM-12+0200DBBS V0209999C000010780019N0100001N1+02671+02331100931ADDAA199000091GA1051+078009019GF105991001001999999001021MA1999999098721MD1999999+0091REMSYN076AAXX  29004 65335 33960 50000 10267 20233 39872 40093 80002 333 58009 85076;EQDQ01  00002PRCP99
0159653350999992000012909004+08030+002470FM-12+0200DBBS V0209999C000010780019N0100001N1+02761+02291101221ADDGA1051+078009019GF105991001001999999001021MA1999999098981MD1999999+0121REMSYN076AAXX  29094 65335 42960 50000 10276 20229 39898 40122 80002 333 58012 85076;
0189653350999992000012912004+08030+002470FM-12+0200DBBS V0209999C000010780019N0100001N1+03451+01421100951ADDAA199000091GA1051+078009019GF105991001001999999001021MA1999999098741MD1999999+0141REMSYN076AAXX  29124 65335 32960 50000 10345 20142 39874 40095 80002 333 58014 85076;EQDQ01  00002PRCP99
0159653350999992000012915004+08030+002470FM-12+0200DBBS V0209999C000010780019N0080001N1+03181+00951100701ADDGA1051+078009019GF105991001001999999001021MA1999999098461MD1999999+0171REMSYN076AAXX  29154 65335 42958 50000 10318 20095 39846 40070 80002 333 58017 85076;
0208653350999992000012918004+08030+002470FM-12+0200DBBS V0209999C000010780019N0100001N1+03361+01141100741ADDAA199000091GA1051+078009019GF105991001001999999001021KA1120M+03771MA1999999098521MD1999999+0141REMSYN082AAXX  29184 65335 32960 50000 10336 20114 39852 40074 80002 333 10377 58014 85076;EQDQ01  00002PRCP99
0236653350999992000013006004+08030+002470FM-12+0200DBBS V0209999C000010780019N0002001N1+02331+00641101211ADDAA199000091AY121061AY221061GA1051+078009019GF105991001001999999001021KA1120N+02301MA1999999098981MD1999999+0161MW1051REMSYN088AAXX  30064 65335 31902 50000 10233 20064 39898 40121 70522 80002 333 20230 58016 85076;EQDQ01  00002PRCP99
0187653350999992000013009004+08030+002470FM-12+0200DBBS V0209999C000010780019N0002001N1+02551+00521101351ADDAY141031AY221031GA1051+078009019GF105991001001999999001021MA1999999099111MD1999999+0131MW1061REMSYN082AAXX  30094 65335 41902 50000 10255 20052 39911 40135 70642 80002 333 58013 85076;
0217653350999992000013012004+08030+002470FM-12+0200DBBS V0209999C000010780019N0005001N1+03051+00821101201ADDAA199000091AY141061AY221061GA1051+078009019GF105991001001999999001021MA1999999098971MD1999999+0231MW1061REMSYN082AAXX  30124 65335 31905 50000 10305 20082 39897 40120 70642 80002 333 58023 85076;EQDQ01  00002PRCP99
0187653350999992000013015004+08030+002470FM-12+0200DBBS V0209999C000010780019N0005001N1+03381+00751100931ADDAY141031AY241031GA1051+078009019GF105991001001999999001021MA1999999098701MD1999999+0241MW1061REMSYN082AAXX  30154 65335 41905 50000 10338 20075 39870 40093 70644 80002 333 58024 85076;
0236653350999992000013018004+08030+002470FM-12+0200DBBS V0209999C000010780019N0005001N1+03101+01091100971ADDAA199000091AY141061AY241061GA1051+078009019GF105991001001999999001021KA1120M+03461MA1999999098731MD1999999+0211MW1061REMSYN088AAXX  30184 65335 31905 50000 10310 20109 39873 40097 70644 80002 333 10346 58021 85076;EQDQ01  00002PRCP99
0209653350999992000013100004+08030+002470FM-12+0200DBBS V0209999C000010780019N0002001N1+02531+00771101261ADDAA199000091AY141061GA1051+078009019GF105991001001999999001021MA1999999099021MD1999999+0191MW1061REMSYN082AAXX  31004 65335 31902 50000 10253 20077 39902 40126 7064/ 80002 333 58019 85076;EQDQ01  00002PRCP99
0236653350999992000013106004+08030+002470FM-12+0200DBBS V0209999C000010780019N0002001N1+02081+00711101291ADDAA199000091AY141061AY241061GA1051+078009019GF105991001001999999001021KA1120N+02051MA1999999099041MD1999999+0061MW1061REMSYN088AAXX  31064 65335 31902 50000 10208 20071 39904 40129 70644 80002 333 20205 58006 85076;EQDQ01  00002PRCP99
0187653350999992000013109004+08030+002470FM-12+0200DBBS V0209999C000010780019N0002001N1+02641+00501101471ADDAY141031AY241031GA1051+078009019GF105991001001999999001021MA1999999099221MD1999999+0111MW1061REMSYN082AAXX  31094 65335 41902 50000 10264 20050 39922 40147 70644 80002 333 58011 85076;
0217653350999992000013112004+08030+002470FM-12+0200DBBS V0209999C000010780019N0002001N1+03281+00621101291ADDAA199000091AY141061AY241061GA1051+078009019GF105991001001999999001021MA1999999099061MD1999999+0091MW1061REMSYN082AAXX  31124 65335 31902 50000 10328 20062 39906 40129 70644 80002 333 58009 85076;EQDQ01  00002PRCP99
0187653350999992000013115004+08030+002470FM-12+0200DBBS V0209999C000010780019N0002001N1+03551+00881100871ADDAY141031AY241031GA1051+078009019GF105991001001999999001021MA1999999098651MD1999999-0051MW1061REMSYN082AAXX  31154 65335 41902 50000 10355 20088 39865 40087 70644 80002 333 59005 85076;
0236653350999992000013118004+08030+002470FM-12+0200DBBS V0209999C000010780019N0002001N1+03271+00871100971ADDAA199000091AY141061AY241061GA1051+078009019GF105991001001999999001021KA1120M+03661MA1999999098731MD1999999+0001MW1061REMSYN088AAXX  31184 65335 31902 50000 10327 20087 39873 40097 70644 80002 333 10366 58000 85076;EQDQ01  00002PRCP99
0217653350999992000020100004+08030+002470FM-12+0200DBBS V0209999C000010780019N0002001N1+02501+00491101321ADDAA199000091AY141061AY241061GA1051+078009019GF105991001001999999001021MA1999999099091MD1999999+0071MW1061REMSYN082AAXX  01004 65335 31902 50000 10250 20049 39909 40132 70644 80002 333 58007 85076;EQDQ01  00002PRCP99
0187653350999992000020103004+08030+002470FM-12+0200DBBS V0203601N003110780019N0002001N1+02401+00371101221ADDAY141031AY241031GA1051+078009019GF105991001001999999001021MA1999999099001MD1999999+0091MW1061REMSYN082AAXX  01034 65335 41902 53606 10240 20037 39900 40122 70644 80002 333 58009 85076;
0236653350999992000020106004+08030+002470FM-12+0200DBBS V0209999C000010780019N0030001N1+02041+00401101341ADDAA199000091AY141061AY221061GA1051+078009019GF105991001001999999001021KA1120N+02021MA1999999099091MD1999999+0051MW1051REMSYN088AAXX  01064 65335 31930 50000 10204 20040 39909 40134 70542 80002 333 20202 58005 85076;EQDQ01  00002PRCP99
0187653350999992000020109004+08030+002470FM-12+0200DBBS V0209999C000010780019N0030001N1+02341+00631101561ADDAY121031AY221031GA1051+078009019GF105991001001999999001021MA1999999099301MD1999999+0081MW1051REMSYN082AAXX  01094 65335 41930 50000 10234 20063 39930 40156 70522 80002 333 58008 85076;
0217653350999992000020112004+08030+002470FM-12+0200DBBS V0209999C000010780019N0050001N1+03031+00481101371ADDAA199000091AY121061AY221061GA1051+078009019GF105991001001999999001021MA1999999099131MD1999999+0071MW1051REMSYN082AAXX  01124 65335 31950 50000 10303 20048 39913 40137 70522 80002 333 58007 85076;EQDQ01  00002PRCP99
0187653350999992000020115004+08030+002470FM-12+0200DBBS V0209999C000010780019N0050001N1+03231+00711101071ADDAY121031AY221031GA1051+078009019GF105991001001999999001021MA1999999098841MD1999999+0191MW1051REMSYN082AAXX  01154 65335 41950 50000 10323 20071 39884 40107 70522 80002 333 58019 85076;
0236653350999992000020118004+08030+002470FM-12+0200DBBS V0209999C000010780019N0050001N1+02931+00661101201ADDAA199000091AY121061AY221061GA1051+078009019GF105991001001999999001021KA1120M+03301MA1999999098941MD1999999+0211MW1051REMSYN088AAXX  01184 65335 31950 50000 10293 20066 39894 40120 70522 80002 333 10330 58021 85076;EQDQ01  00002PRCP99
0187653350999992000020209004+08030+002470FM-12+0200DBBS V0200401N002110780019N0050001N1+02371+00441101501ADDAY121031AY221031GA1051+078009019GF105991001001999999001021MA1999999099231MD1999999-0071MW1051REMSYN082AAXX  02094 65335 41950 50404 10237 20044 39923 40150 70522 80002 333 59007 85076;
0217653350999992000020212004+08030+002470FM-12+0200DBBS V0200401N004110780019N0050001N1+03031+00541101201ADDAA199000091AY121061AY221061GA1051+078009019GF105991001001999999001021MA1999999098961MD1999999-0171MW1051REMSYN082AAXX  02124 65335 31950 50408 10303 20054 39896 40120 70522 80002 333 59017 85076;EQDQ01  00002PRCP99
0187653350999992000020215004+08030+002470FM-12+0200DBBS V0203601N004110780019N0050001N1+03301+00781100901ADDAY121031AY221031GA1051+078009019GF105991001001999999001021MA1999999098671MD1999999-0171MW1051REMSYN082AAXX  02154 65335 41950 53608 10330 20078 39867 40090 70522 80002 333 59017 85076;
0236653350999992000020218004+08030+002470FM-12+0200DBBS V0209999C000010780019N0050001N1+03101+00981100981ADDAA199000091AY121061AY221061GA1051+078009019GF105991001001999999001021KA1120M+03361MA1999999098731MD1999999-0211MW1051REMSYN088AAXX  02184 65335 31950 50000 10310 20098 39873 40098 70522 80002 333 10336 59021 85076;EQDQ01  00002PRCP99
0236653350999992000020311004+08030+002470FM-12+0200DBBS V0209999C000010780019N0020001N1+03161+00791100901ADDAA199000091AY121999AY221999GA1051+078009019GF105991001001999999001021KA1120M+03501MA1999999098661MD1999999-0071MW1051REMSYN088AAXX  03114 65335 31920 50000 10316 20079 39866 40090 70522 80002 333 10350 59007 85076;EQDQ01  00002PRCP99
0201653350999992000020400004+08030+002470FM-12+0200DBBS V0203601N001010780019N0020001N1+02651+00391101191ADDAA199000091GA1051+078009019GF105991001001999999001021MA1999999098961MD1999999+0011MW1051REMSYN082AAXX  04004 65335 31920 53602 10265 20039 39896 40119 705// 80002 333 58001 85076;EQDQ01  00002PRCP99
0236653350999992000020406004+08030+002470FM-12+0200DBBS V0203601N003110780019N0020001N1+02041+00281101161ADDAA199000091AY121061AY221061GA1051+078009019GF105991001001999999001021KA1120N+01981MA1999999098911MD1999999-0011MW1051REMSYN088AAXX  04064 65335 31920 53606 10204 20028 39891 40116 70522 80002 333 20198 59001 85076;EQDQ01  00002PRCP99
0187653350999992000020409004+08030+002470FM-12+0200DBBS V0200401N003110780019N0020001N1+02491+00411101311ADDAY121031AY221031GA1051+078009019GF105991001001999999001021MA1999999098651MD1999999-0041MW1051REMSYN082AAXX  04094 65335 41920 50406 10249 20041 39865 40131 70522 80002 333 59004 85076;
0217653350999992000020412004+08030+002470FM-12+0200DBBS V0203201N002110780019N0020001N1+03301+00761101081ADDAA199000091AY121061AY221061GA1051+078009019GF105991001001999999001021MA1999999098681MD1999999-0061MW1051REMSYN082AAXX  04124 65335 31920 53204 10330 20076 39868 40108 70522 80002 333 59006 85076;EQDQ01  00002PRCP99
0187653350999992000020415004+08030+002470FM-12+0200DBBS V0203201N001010780019N0020001N1+03611+00841100811ADDAY121031AY221031GA1051+078009019GF105991001001999999001021MA1999999098591MD1999999-0011MW1051REMSYN082AAXX  04154 65335 41920 53202 10361 20084 39859 40081 70522 80002 333 59001 85076;
0236653350999992000020418004+08030+002470FM-12+0200DBBS V0209999C000010780019N0020001N1+03291+00941100871ADDAA199000091AY121061AY221061GA1051+078009019GF105991001001999999001021KA1120M+03701MA1999999098631MD1999999-0031MW1051REMSYN088AAXX  04184 65335 31920 50000 10329 20094 39863 40087 70522 80002 333 10370 59003 85076;EQDQ01  00002PRCP99
0187653350999992000020509004+08030+002470FM-12+0200DBBS V0209999C000010780019N0050001N1+02641+00501101391ADDAY121031AY221031GA1051+078009019GF105991001001999999001021MA1999999099131MD1999999+0081MW1051REMSYN082AAXX  05094 65335 41950 50000 10264 20050 39913 40139 70522 80002 333 58008 85076;
0187653350999992000020515004+08030+002470FM-12+0200DBBS V0203601N002110780019N0050001N1+03471+00751100811ADDAY121031AY221031GA1051+078009019GF105991001001999999001021MA1999999098591MD1999999+0001MW1051REMSYN082AAXX  05154 65335 41950 53604 10347 20075 39859 40081 70522 80002 333 58000 85076;
0252653350999992000020518004+08030+002470FM-12+0200DBBS V0209999C000010780019N0020001N1+03231+01181100871ADDAA199000091AY121061AY221061GA1051+078009019GF105991001001999999001021KA1120M+03561MA1999999096342MD1999999+0011MW1051REMSYN088AAXX  05184 65335 32920 50000 10323 20118 39634 40087 70522 80002 333 10356 58001 85076;EQDQ01+096343APOSP Q02  00002PRCP99
0201653350999992000020600004+08030+002470FM-12+0200DBBS V0203601N003110780019N0050001N1+02701+00721101111ADDAA199000091GA1051+078009019GF105991001001999999001021MA1999999096891MD1999999-0091MW1051REMSYN082AAXX  06004 65335 31950 53606 10270 20072 39689 40111 705// 80002 333 59009 85076;EQDQ01  00002PRCP99
0236653350999992000020606004+08030+002470FM-12+0200DBBS V0203601N002110780019N0050001N1+02241+00691101131ADDAA199000091AY121061AY221061GA1051+078009019GF105991001001999999001021KA1120N+02191MA1999999098891MD1999999-0061MW1051REMSYN088AAXX  06064 65335 31950 53604 10224 20069 39889 40113 70522 80002 333 20219 59006 85076;EQDQ01  00002PRCP99
0187653350999992000020609004+08030+002470FM-12+0200DBBS V0203601N004110780019N0050001N1+02631+00581101261ADDAY121031AY221031GA1051+078009019GF105991001001999999001021MA1999999099011MD1999999-0121MW1051REMSYN082AAXX  06094 65335 41950 53608 10263 20058 39901 40126 70522 80002 333 59012 85076;
0217653350999992000020612004+08030+002470FM-12+0200DBBS V0209999C000010780019N0050001N1+03431+00861101011ADDAA199000091AY121061AY221061GA1051+078009019GF105991001001999999001021MA1999999098801MD1999999-0131MW1051REMSYN082AAXX  06124 65335 31950 50000 10343 20086 39880 40101 70522 80002 333 59013 85076;EQDQ01  00002PRCP99
0187653350999992000020615004+08030+002470FM-12+0200DBBS V0203601N003110780019N0050001N1+03651+00771100681ADDAY121031AY221031GA1051+078009019GF105991001001999999001021MA1999999098471MD1999999-0121MW1051REMSYN082AAXX  06154 65335 41950 53606 10365 20077 39847 40068 70522 80002 333 59012 85076;
0236653350999992000020618004+08030+002470FM-12+0200DBBS V0209999C000010780019N0050001N1+03351+01071100801ADDAA199000091AY121061AY221061GA1051+078009019GF105991001001999999001021KA1120M+03731MA1999999098571MD1999999-0071MW1051REMSYN088AAXX  06184 65335 31950 50000 10335 20107 39857 40080 70522 80002 333 10373 59007 85076;EQDQ01  00002PRCP99
0187653350999992000020709004+08030+002470FM-12+0200DBBS V0203601N002110780019N0050001N1+02631+00351101311ADDAY121031AY221031GA1051+078009019GF105991001001999999001021MA1999999099061MD1999999+0051MW1051REMSYN082AAXX  07094 65335 41950 53604 10263 20035 39906 40131 70522 80002 333 58005 85076;
0217653350999992000020712004+08030+002470FM-12+0200DBBS V0203601N004110780019N0050001N1+03301+00331101141ADDAA199000091AY121061AY221061GA1051+078009019GF105991001001999999001021MA1999999098921MD1999999+0121MW1051REMSYN082AAXX  07124 65335 31950 53608 10330 20033 39892 40114 70522 80002 333 58012 85076;EQDQ01  00002PRCP99
0187653350999992000020715004+08030+002470FM-12+0200DBBS V0203401N001010780019N0050001N1+03631+00701100761ADDAY121031AY221031GA1051+078009019GF105991001001999999001021MA1999999098541MD1999999+0071MW1051REMSYN082AAXX  07154 65335 41950 53402 10363 20070 39854 40076 70522 80002 333 58007 85076;
0236653350999992000020718004+08030+002470FM-12+0200DBBS V0209999C000010780019N0050001N1+03311+00681100891ADDAA199000091AY121061AY221061GA1051+078009019GF105991001001999999001021KA1120M+03741MA1999999098651MD1999999+0081MW1051REMSYN088AAXX  07184 65335 31950 50000 10331 20068 39865 40089 70522 80002 333 10374 58008 85076;EQDQ01  00002PRCP99
0217653350999992000020800004+08030+002470FM-12+0200DBBS V0209999C000010780019N0050001N1+02471+00701101201ADDAA199000091AY121061AY221061GA1051+078009019GF105991001001999999001021MA1999999098971MD1999999+0051MW1051REMSYN082AAXX  08004 65335 31950 50000 10247 20070 39897 40120 70522 80002 333 58005 85076;EQDQ01  00002PRCP99
0236653350999992000020806004+08030+002470FM-12+0200DBBS V0209999C000010780019N0050001N1+02091+00421101261ADDAA199000091AY121061AY221061GA1051+078009019GF105991001001999999001021KA1120N+02041MA1999999099011MD1999999+0101MW1051REMSYN088AAXX  08064 65335 31950 50000 10209 20042 39901 40126 70522 80002 333 20204 58010 85076;EQDQ01  00002PRCP99
0187653350999992000020809004+08030+002470FM-12+0200DBBS V0200401N003110780019N0030001N1+02551+00521101391ADDAY121031AY221031GA1051+078009019GF105991001001999999001021MA1999999099141MD1999999+0081MW1051REMSYN082AAXX  08094 65335 41930 50406 10255 20052 39914 40139 70522 80002 333 58008 85076;
0187653350999992000020815004+08030+002470FM-12+0200DBBS V0209999C000010780019N0030001N1+03471+00781100891ADDAY121031AY221031GA1051+078009019GF105991001001999999001021MA1999999098671MD1999999+0131MW1051REMSYN082AAXX  08154 65335 41930 50000 10347 20078 39867 40089 70522 80002 333 58013 85076;
0209653350999992000020818004+08030+002470FM-12+0200DBBS V0209999C000010780019N0030001N1+03231+01081999999ADDAA199000091AY121061AY221061GA1051+078009019GF105991001001999999001021KA1120M+03531MD1999999+0051MW1051REMSYN076AAXX  08184 65335 31930 50000 10323 20108 70522 80002 333 10353 58005 85076;EQDQ01  00002PRCP99
0236653350999992000020903004+08030+002470FM-12+0200DBBS V0209999C000010780019N0030001N1+03231+01081100941ADDAA199000091AY121031AY221031GA1051+078009019GF105991001001999999001021KA1120M+03531MA1999999098701MD1999999+0051MW1051REMSYN088AAXX  09034 65335 31930 50000 10323 20108 39870 40094 70522 80002 333 10353 58005 85076;EQDQ01  00002PRCP99
0236653350999992000020906004+08030+002470FM-12+0200DBBS V0203601N001010780019N0030001N1+02072+00481101221ADDAA199000091AY121061AY221061GA1051+078009019GF105991001001999999001021KA1120N+02031MA1999999098981MD1999999-0031MW1051REMSYN088AAXX  09064 65335 31930 53602 10207 20048 39898 40122 70522 80002 333 20203 59003 85076;EQDQ01  00002PRCP99
0187653350999992000020909004+08030+002470FM-12+0200DBBS V0203601N003110780019N0030001N1+02571+00401101331ADDAY121031AY221031GA1051+078009019GF105991001001999999001021MA1999999099081MD1999999-0061MW1051REMSYN082AAXX  09094 65335 41930 53606 10257 20040 39908 40133 70522 80002 333 59006 85076;
0187653350999992000020915004+08030+002470FM-12+0200DBBS V0203601N001010780019N0030001N1+03541+00701100751ADDAY121031AY221031GA1051+078009019GF105991001001999999001021MA1999999098531MD1999999-0141MW1051REMSYN082AAXX  09154 65335 41930 53602 10354 20070 39853 40075 70522 80002 333 59014 85076;
0236653350999992000020918004+08030+002470FM-12+0200DBBS V0209999C000010780019N0030001N1+03321+01091100871ADDAA199000091AY121061AY221061GA1051+078009019GF105991001001999999001021KA1120M+03601MA1999999098631MD1999999-0071MW1051REMSYN088AAXX  09184 65335 31930 50000 10332 20109 39863 40087 70522 80002 333 10360 59007 85076;EQDQ01  00002PRCP99
0195653350999992000021000004+08030+002470FM-12+0200DBBS V0209999C000010780019N0050001N1+02501+00861101171ADDAA199000091GA1051+078009999GF105991999999999999999999MA1999999099401MD1999999-0041MW1051REMSYN076AAXX  10004 65335 31950 50000 10250 20086 3994/ 40117 705// 333 59004 85/76;EQDQ01  00002PRCP99
0187653350999992000021009004+08030+002470FM-12+0200DBBS V0209999C000010780019N0050001N1+02431+00621101221ADDAY121031AY221031GA1051+078009019GF105991001001999999001021MA1999999098981MD1999999-0101MW1051REMSYN082AAXX  10094 65335 41950 50000 10243 20062 39898 40122 70522 80002 333 59010 85076;
0217653350999992000021012004+08030+002470FM-12+0200DBBS V0203201N003110780019N0020001N1+03201+00681100991ADDAA199000091AY121061AY221061GA1051+078009019GF105991001001999999001021MA1999999098771MD1999999-0101MW1051REMSYN082AAXX  10124 65335 31920 53206 10320 20068 39877 40099 70522 80002 333 59010 85076;EQDQ01  00002PRCP99
0187653350999992000021015004+08030+002470FM-12+0200DBBS V0203201N002110780019N0050001N1+03341+00811100711ADDAY121031AY221031GA1051+078009019GF105991001001999999001021MA1999999098491MD1999999-0041MW1051REMSYN082AAXX  10154 65335 41950 53204 10334 20081 39849 40071 70522 80002 333 59004 85076;
0236653350999992000021018004+08030+002470FM-12+0200DBBS V0209999C000010780019N0050001N1+03231+00881100791ADDAA199000091AY121061AY221061GA1051+078009019GF105991001001999999001021KA1120M+03541MA1999999098561MD1999999-0071MW1051REMSYN088AAXX  10184 65335 31950 50000 10323 20088 39856 40079 70522 80002 333 10354 59007 85076;EQDQ01  00002PRCP99
0187653350999992000021103004+08030+002470FM-12+0200DBBS V0209999C000010780019N0030001N1+02361+00741100971ADDAY121031AY221031GA1051+078009019GF105991001001999999001021MA1999999098751MD1999999-0011MW1051REMSYN082AAXX  11034 65335 41930 50000 10236 20074 39875 40097 70522 80002 333 59001 85076;
0236653350999992000021106004+08030+002470FM-12+0200DBBS V0209999C000010780019N0030001N1+02191+00611101091ADDAA199000091AY121061AY221061GA1051+078009019GF105991001001999999001021KA1120N+02151MA1999999098851MD1999999-0021MW1051REMSYN088AAXX  11064 65335 31930 50000 10219 20061 39885 40109 70522 80002 333 20215 59002 85076;EQDQ01  00002PRCP99
0187653350999992000021109004+08030+002470FM-12+0200DBBS V0203601N001010780019N0030001N1+02501+00581101211ADDAY121031AY221031GA1051+078009019GF105991001001999999001021MA1999999098971MD1999999-0011MW1051REMSYN082AAXX  11094 65335 41930 53602 10250 20058 39897 40121 70522 80002 333 59001 85076;
0217653350999992000021112004+08030+002470FM-12+0200DBBS V0209999C000010780019N0030001N1+03301+00781101031ADDAA199000091AY121061AY221061GA1051+078009019GF105991001001999999001021MA1999999098801MD1999999+0031MW1051REMSYN082AAXX  11124 65335 31930 50000 10330 20078 39880 40103 70522 80002 333 58003 85076;EQDQ01  00002PRCP99
0171653350999992000021115004+08030+002470FM-12+0200DBBS V02099999999999999999N0030001N1+03501+00921100731ADDAY121031AY221031GF105991001001999999001021MA1999999098511MD1999999+0021MW1051REMSYN082AAXX  11154 65335 41930 5002/ 10350 20092 39851 40073 70522 80002 333 58002 850/6;
0201653350999992000021200004+08030+002470FM-12+0200DBBS V0209999C000010780019N0030001N1+02541+00701101041ADDAA199000091GA1051+078009019GF105991001001999999001021MA1999999098851MD1999999-0051MW1051REMSYN082AAXX  12004 65335 31930 50000 10254 20070 39885 40104 705// 80002 333 59005 85076;EQDQ01  00002PRCP99
0187653350999992000021203004+08030+002470FM-12+0200DBBS V0209999C000010780019N0030001N1+02271+00461100901ADDAY121031AY221031GA1051+078009019GF105991001001999999001021MA1999999098681MD1999999-0071MW1051REMSYN082AAXX  12034 65335 41930 50000 10227 20046 39868 40090 70522 80002 333 59007 85076;
0236653350999992000021206004+08030+002470FM-12+0200DBBS V0209999C000010780019N0038001N1+02131+00521101051ADDAA199000091AY121061AY221061GA1051+078009019GF105991001001999999001021KA1120N+02051MA1999999098811MD1999999-0041MW1051REMSYN088AAXX  12064 65335 31938 50000 10213 20052 39881 40105 70522 80002 333 20205 59004 85076;EQDQ01  00002PRCP99
0187653350999992000021209004+08030+002470FM-12+0200DBBS V0203601N005110780019N0030001N1+02571+00501101131ADDAY121031AY221031GA1051+078009019GF105991001001999999001021MA1999999098891MD1999999-0081MW1051REMSYN082AAXX  12094 65335 41930 53610 10257 20050 39889 40113 70522 80002 333 59008 85076;
0217653350999992000021212004+08030+002470FM-12+0200DBBS V0200401N002110780019N0030001N1+03311+00661100931ADDAA199000091AY121061AY221061GA1051+078009019GF105991001001999999001021MA1999999098711MD1999999-0091MW1051REMSYN082AAXX  12124 65335 31930 50404 10331 20066 39871 40093 70522 80002 333 59009 85076;EQDQ01  00002PRCP99
0236653350999992000021218004+08030+002470FM-12+0200DBBS V0209999C000010780019N0050001N1+03301+00841100751ADDAA199000091AY121061AY221061GA1051+078009019GF105991001001999999001021KA1120M+03681MA1999999098521MD1999999-0041MW1051REMSYN088AAXX  12184 65335 31950 50000 10330 20084 39852 40075 70522 80002 333 10368 59004 85076;EQDQ01  00002PRCP99
0187653350999992000021309004+08030+002470FM-12+0200DBBS V0200401N002110780019N0050001N1+02651+00451101231ADDAY121031AY221031GA1051+078009019GF105991001001999999001021MA1999999098991MD1999999+0101MW1051REMSYN082AAXX  13094 65335 41950 50404 10265 20045 39899 40123 70522 80002 333 58010 85076;
0217653350999992000021312004+08030+002470FM-12+0200DBBS V0200401N001010780019N0050001N1+03371+00671100881ADDAA199000091AY121061AY221061GA1051+078009019GF105991001001999999001021MA1999999098681MD1999999-0031MW1051REMSYN082AAXX  13124 65335 31950 50402 10337 20067 39868 40088 70522 80002 333 59003 85076;EQDQ01  00002PRCP99
0187653350999992000021315004+08030+002470FM-12+0200DBBS V0200401N001010780019N0050001N1+03671+00961100621ADDAY121031AY221031GA1051+078009019GF105991001001999999001021MA1999999098411MD1999999+0001MW1051REMSYN082AAXX  13154 65335 41950 50402 10367 20096 39841 40062 70522 80002 333 58000 85076;
0236653350999992000021318004+08030+002470FM-12+0200DBBS V0209999C000010780019N0050001N1+03371+00701100721ADDAA199000091AY121061AY221061GA1051+078009019GF105991001001999999001021KA1120M+03771MA1999999098501MD1999999-0021MW1051REMSYN088AAXX  13184 65335 31950 50000 10337 20070 39850 40072 70522 80002 333 10377 59002 85076;EQDQ01  00002PRCP99
0187653350999992000021403004+08030+002470FM-12+0200DBBS V0209999C000010780019N0050001N1+02631+00681100961ADDAY121031AY221031GA1051+078009019GF105991001001999999001021MA1999999098761MD1999999+0031MW1051REMSYN082AAXX  14034 65335 41950 50000 10263 20068 39876 40096 70522 80002 333 58003 85076;
0236653350999992000021406004+08030+002470FM-12+0200DBBS V0203601N003110780019N0050001N1+02501+00221101061ADDAA199000091AY121061AY221061GA1051+078009019GF105991001001999999001021KA1120N+02421MA1999999098831MD1999999+0031MW1051REMSYN088AAXX  14064 65335 31950 53606 10250 20022 39883 40106 70522 80002 333 20242 58003 85076;EQDQ01  00002PRCP99
0187653350999992000021409004+08030+002470FM-12+0200DBBS V0200401N002110780019N0050001N1+02651+00401101231ADDAY121031AY221031GA1051+078009019GF105991001001999999001021MA1999999098991MD1999999+0001MW1051REMSYN082AAXX  14094 65335 41950 50404 10265 20040 39899 40123 70522 80002 333 58000 85076;
0217653350999992000021412004+08030+002470FM-12+0200DBBS V0209999C000010780019N0050001N1+03301+00351100921ADDAA199000091AY121061AY221061GA1051+078009019GF105991001001999999001021MA1999999098701MD1999999+0021MW1051REMSYN082AAXX  14124 65335 31950 50000 10330 20035 39870 40092 70522 80002 333 58002 85076;EQDQ01  00002PRCP99
0187653350999992000021415004+08030+002470FM-12+0200DBBS V0209999C000010780019N0050001N1+03651+00701100571ADDAY121031AY221031GA1051+078009019GF105991001001999999001021MA1999999098371MD1999999-0041MW1051REMSYN082AAXX  14154 65335 41950 50000 10365 20070 39837 40057 70522 80002 333 59004 85076;
0201653350999992000021500004+08030+002470FM-12+0200DBBS V0209999C000010780019N0050001N1+02521+01721101061ADDAA199000091GA1051+078009019GF105991001001999999001021MA1999999098831MD1999999+0031MW1051REMSYN082AAXX  15004 65335 31950 50000 10252 20172 39883 40106 705// 80002 333 58003 85076;EQDQ01  00002PRCP99
0201653350999992000021600004+08030+002470FM-12+0200DBBS V0209999C000010780019N0050001N1+02601+01551101001ADDAA199000091GA1051+078009019GF105991001001999999001021MA1999999098781MD1999999-0051MW1051REMSYN082AAXX  16004 65335 31950 50000 10260 20155 39878 40100 705// 80002 333 59005 85076;EQDQ01  00002PRCP99
0187653350999992000021603004+08030+002470FM-12+0200DBBS V0209999C000010780019N0050001N1+02451+02081100931ADDAY121031AY221031GA1051+078009019GF105991001001999999001021MA1999999098721MD1999999-0061MW1051REMSYN082AAXX  16034 65335 41950 50000 10245 20208 39872 40093 70522 80002 333 59006 85076;
0208653350999992000021606004+08030+002470FM-12+0200DBBS V0201001N001010780019N0080001N1+02271+99999101051ADDAA199000091GA1051+078009019GF105991001001999999001021KA1120N+02241MA1999999098821MD1999999-0021REMSYN082AAXX  16064 65335 32958 51002 10227 2024/ 39882 40105 80002 333 20224 59002 85076;EQDQ01  00002PRCP99
0189653350999992000021700004+08030+002470FM-12+0200DBBS V0209999C000010780019N0080001N1+02601+02001101041ADDAA199000091GA1051+078009019GF105991001001999999001021MA1999999098811MD1999999+0031REMSYN076AAXX  17004 65335 33958 50000 10260 20200 39881 40104 80002 333 58003 85076;EQDQ01  00002PRCP99
0208653350999992000021706004+08030+002470FM-12+0200DBBS V0209999C000010780019N0080001N1+02321+02021100971ADDAA199000091GA1051+078009019GF105991001001999999001021KA1120N+02281MA1999999098751MD1999999-0071REMSYN082AAXX  17064 65335 32958 50000 10232 20202 39875 40097 80002 333 20228 59007 85076;EQDQ01  00002PRCP99
0159653350999992000021709004+08030+002470FM-12+0200DBBS V0209999C000010780019N0080001N1+02751+02081101121ADDGA1051+078009019GF105991001001999999001021MA1999999098891MD1999999-0081REMSYN076AAXX  17094 65335 42958 50000 10275 20208 39889 40112 80002 333 59008 85076;
0189653350999992000021712004+08030+002470FM-12+0200DBBS V0203601N003110780019N0080001N1+03401+01151100861ADDAA199000091GA1051+078009019GF105991001001999999001021MA1999999098761MD1999999-0011REMSYN076AAXX  17124 65335 32958 53606 10340 20115 39876 40086 80002 333 59001 85076;EQDQ01  00002PRCP99
0159653350999992000021715004+08030+002470FM-12+0200DBBS V02099999999990780019N0080001N1+03621+01361100651ADDGA1051+078009019GF105991001001999999001021MA1999999098451MD1999999-0031REMSYN076AAXX  17154 65335 42958 5000/ 10362 20136 39845 40065 80002 333 59003 85076;
0208653350999992000021718004+08030+002470FM-12+0200DBBS V0209999C000010780019N0080001N1+03451+01491100711ADDAA199000091GA1051+078009019GF105991001001999999001021KA1120M+03751MA1999999098491MD1999999+0021REMSYN082AAXX  17184 65335 32958 50000 10345 20149 39849 40071 80002 333 10375 58002 85076;EQDQ01  00002PRCP99
0195653350999992000021800004+08030+002470FM-12+0200DBBS V0209999C000019999999N0080001N1+02731+02251100991ADDAA199000091GA1031+039009039GF107991031001999999031021MA1999999098781MD1999999-0031REMSYN082AAXX  18004 65335 33958 70000 10273 20225 39878 40099 83032 333 59003 83363 85076;EQDQ01  00002PRCP99
0159653350999992000021803004+08030+002470FM-12+0200DBBS V0209999C000010780019N0080001N1+02551+02181100881ADDGA1051+078009019GF105991001001999999001021MA1999999098671MD1999999-0041REMSYN076AAXX  18034 65335 42958 50000 10255 20218 39867 40088 80002 333 59004 85076;
0214653350999992000021806004+08030+002470FM-12+0200DBBS V0209999C000019999999N0080001N1+02351+02161100951ADDAA199000091GA1031+033009039GF107991031001999999031021KA1120N+02321MA1999999098731MD1999999-0021REMSYN088AAXX  18064 65335 32958 70000 10235 20216 39873 40095 83032 333 20232 59002 83361 85076;EQDQ01  00002PRCP99
0159653350999992000021809004+08030+002470FM-12+0200DBBS V0209999C000010780019N0080001N1+02781+02201101091ADDGA1051+078009019GF105991001001999999001021MA1999999098861MD1999999-0031REMSYN076AAXX  18094 65335 42958 50000 10278 20220 39886 40109 80002 333 59003 85076;
0189653350999992000021812004+08030+002470FM-12+0200DBBS V0209999C000010780019N0080001N1+03351+01931100891ADDAA199000091GA1051+078009019GF105991001001999999001021MA1999999098681MD1999999-0081REMSYN076AAXX  18124 65335 32958 50000 10335 20193 39868 40089 80002 333 59008 85076;EQDQ01  00002PRCP99
0159653350999992000021815004+08030+002470FM-12+0200DBBS V0209999C000010780019N0080001N1+99999+99999100611ADDGA1051+078009019GF105991001001999999001021MA1999999098411MD1999999-0041REMSYN076AAXX  18154 65335 42958 50000 18/58 20170 39841 40061 80002 333 59004 85076;
0208653350999992000021818004+08030+002470FM-12+0200DBBS V0209999C000010780019N0080001N1+03441+00981100691ADDAA199000091GA1051+078009019GF105991001001999999001021KA1120M+03721MA1999999098471MD1999999-0021REMSYN082AAXX  18184 65335 32958 50000 10344 20098 39847 40069 80002 333 10372 59002 85076;EQDQ01  00002PRCP99
0189653350999992000021900004+08030+002470FM-12+0200DBBS V0209999C000010780019N0080001N1+02701+02141101021ADDAA199000091GA1051+078009019GF105991001001999999001021MA1999999098801MD1999999+0021REMSYN076AAXX  19004 65335 33958 50000 10270 20214 39880 40102 80002 333 58002 85076;EQDQ01  00002PRCP99
0208653350999992000021906004+08030+002470FM-12+0200DBBS V0209999C000010780019N0080001N1+02361+02031101071ADDAA199000091GA1051+078009019GF105991001001999999001021KA1120N+02271MA1999999098841MD1999999+0111REMSYN082AAXX  19064 65335 32958 50000 10236 20203 39884 40107 80002 333 20227 58011 85076;EQDQ01  00002PRCP99
0159653350999992000021909004+08030+002470FM-12+0200DBBS V0209999C000010780019N0080001N1+02771+02041101201ADDGA1051+078009019GF105991001001999999001021MA1999999098971MD1999999+0111REMSYN076AAXX  19094 65335 42958 50000 10277 20204 39897 40120 80002 333 58011 85076;
0189653350999992000021912004+08030+002470FM-12+0200DBBS V0200201N003110780019N0080001N1+03421+01641100981ADDAA199000091GA1051+078009019GF105991001001999999001021MA1999999098771MD1999999+0091REMSYN076AAXX  19124 65335 32958 50206 10342 20164 39877 40098 80002 333 58009 85076;EQDQ01  00002PRCP99
0159653350999992000021915004+08030+002470FM-12+0200DBBS V0203601N004110780019N0080001N1+03681+01571100621ADDGA1051+078009019GF105991001001999999001021MA1999999098421MD1999999+0011REMSYN076AAXX  19154 65335 42958 53608 10368 20157 39842 40062 80002 333 58001 85076;
0208653350999992000021918004+08030+002470FM-12+0200DBBS V0209999C000010780019N0080001N1+03461+01411100631ADDAA199000091GA1051+078009019GF105991001001999999001021KA1120M+03771MA1999999098411MD1999999-0061REMSYN082AAXX  19184 65335 32958 50000 10346 20141 39841 40063 80002 333 10377 59006 85076;EQDQ01  00002PRCP99
0189653350999992000022000004+08030+002470FM-12+0200DBBS V0209999C000010780019N0080001N1+02631+01051100921ADDAA199000091GA1051+078009019GF105991001001999999001021MA1999999098721MD1999999-0101REMSYN076AAXX  20004 65335 33958 50000 10263 20105 39872 40092 80002 333 59010 85076;EQDQ01  00002PRCP99
0159653350999992000022009004+08030+002470FM-12+0200DBBS V0202201N003110780019N0080001N1+02751+02241101121ADDGA1051+078009019GF105991001001999999001021MA1999999098891MD1999999-0081REMSYN076AAXX  20094 65335 42958 52206 10275 20224 39889 40112 80002 333 59008 85076;
0189653350999992000022012004+08030+002470FM-12+0200DBBS V0202801N003110780019N0080001N1+03421+01741100891ADDAA199000091GA1051+078009019GF105991001001999999001021MA1999999098681MD1999999-0091REMSYN076AAXX  20124 65335 32958 52806 10342 20174 39868 40089 80002 333 59009 85076;EQDQ01  00002PRCP99
0208653350999992000022018004+08030+002470FM-12+0200DBBS V0209999C000010780019N0080001N1+03651+01761100571ADDAA199000091GA1051+078009019GF105991001001999999001021KA1120M+03881MA1999999098361MD1999999-0051REMSYN082AAXX  20184 65335 32958 50000 10365 20176 39836 40057 80002 333 10388 59005 85076;EQDQ01  00002PRCP99
0189653350999992000022100004+08030+002470FM-12+0200DBBS V0209999C000010780019N0080001N1+02701+02341100981ADDAA199000091GA1051+078009019GF105991001001999999001021MA1999999098771MD1999999+0071REMSYN076AAXX  21004 65335 33958 50000 10270 20234 39877 40098 80002 333 58007 85076;EQDQ01  00002PRCP99
0159653350999992000022103004+08030+002470FM-12+0200DBBS V0209999C000010780019N0080001N1+02601+02341100851ADDGA1051+078009019GF105991001001999999001021MA1999999098671MD1999999+8001REMSYN076AAXX  21034 65335 42958 50000 10260 20234 39867 40085 80002 333 58800 85076;
0214653350999992000022106004+08030+002470FM-12+0200DBBS V0209999C00001105001CN0080001N1+02531+99999100991ADDAA199000091GA1011+003909069GF105991011051004501001021KA1120N+02501MA1999999098781MD1999999+0081REMSYN088AAXX  21064 65335 32458 50000 10253 20259 39878 40099 81502 333 20250 58008 81613 85076;EQDQ01  00002PRCP99
0208653350999992000022118004+08030+002470FM-12+0200DBBS V0209999C000010780019N0100001N1+03501+01981100671ADDAA199000091GA1051+078009019GF105991001001999999001021KA1120M+03751MA1999999098461MD1999999+0101REMSYN082AAXX  21184 65335 32960 50000 10350 20198 39846 40067 80002 333 10375 58010 85076;EQDQ01  00002PRCP99
0165653350999992000022403004+08030+002470FM-12+0200DBBS V0209999C00001045001CN0100001N1+02731+02381100791ADDGA1031+003909069GF107991031051004501031021MA1999999098591MD1999999+0011REMSYN082AAXX  24034 65335 42460 70000 10273 20238 39859 40079 83532 333 58001 83613 85076;
0208653350999992000022406004+08030+002470FM-12+0200DBBS V0209999C000010780019N0100001N1+02621+02381100851ADDAA199000091GA1051+078009019GF105991001001999999001021KA1120N+02581MA1999999098641MD1999999-0031REMSYN082AAXX  24064 65335 32960 50000 10262 20238 39864 40085 80002 333 20258 59003 85076;EQDQ01  00002PRCP99
0193653350999992000022409004+08030+002470FM-12+0200DBBS V0201601N002110780019N0100001N1+02981+02321101001ADDGA1021+003909069GA2051+078009009GF107991021081004501001021MA1999999098781MD1999999-0071REMSYN094AAXX  24094 65335 42460 71604 10298 20232 39878 40100 82802 333 59007 82613 85076 94904 95834;
0215653350999992000022509004+08030+002470FM-12+0200DBBS V0209999C000010780019N0100001N1+02881+02381101091ADDGA1011+003909069GA2031+007809089GA3051+078009009GF107991031081004501001021MA1999999098861MD1999999+0091REMSYN100AAXX  25094 65335 42460 70000 10288 20238 39886 40109 83802 333 58009 81613 83826 85076 94915 95835;
0223653350999992000022512004+08030+002470FM-12+0200DBBS V0209999C000010780019N0100001N1+03381+02061100901ADDAA199000091GA1021+007809089GA2051+078009009GF106991021011008001001021MA1999999098691MD1999999+0131REMSYN094AAXX  25124 65335 32560 60000 10338 20206 39869 40090 82102 333 58013 82826 85076 94905 95815;EQDQ01  00002PRCP99
0217653350999992000022812004+08030+002470FM-12+0200DBBS V0209999C000010780019N0005001N1+03301+00461100881ADDAA199000091AY121061AY221061GA1051+078009019GF105991001001999999001021MA1999999098661MD1999999-0051MW1051REMSYN082AAXX  28124 65335 31905 50000 10330 20046 39866 40088 70522 80002 333 59005 85076;EQDQ01  00002PRCP99
0187653350999992000022815004+08030+002470FM-12+0200DBBS V0209999C000010780019N0005001N1+03561+00711100671ADDAY121031AY221031GA1051+078009019GF105991001001999999001021MA1999999098451MD1999999+0091MW1051REMSYN082AAXX  28154 65335 41905 50000 10356 20071 39845 40067 70522 80002 333 58009 85076;
0252653350999992000022818004+08030+002470FM-12+0200DBBS V0209999C000010780019N0005001N1+03401+01081100771ADDAA199000091AY121061AY221061GA1051+078009019GF105991001001999999001021KA1120M+03651MA1999999099542MD1999999+0071MW1051REMSYN088AAXX  28184 65335 31905 50000 10340 20108 39954 40077 70522 80002 333 10365 58007 85076;EQDQ01+099543APOSP Q02  00002PRCP99
0187653350999992000022909004+08030+002470FM-12+0200DBBS V0200401N003110780019N0020001N1+02751+00541101251ADDAY121031AY221031GA1051+078009019GF105991001001999999001021MA1999999099021MD1999999+0131MW1051REMSYN082AAXX  29094 65335 41920 50406 10275 20054 39902 40125 70522 80002 333 58013 85076;
0217653350999992000022912004+08030+002470FM-12+0200DBBS V0203201N002110780019N0020001N1+03301+00781101101ADDAA199000091AY121061AY221061GA1051+078009019GF105991001001999999001021MA1999999098881MD1999999+0221MW1051REMSYN082AAXX  29124 65335 31920 53204 10330 20078 39888 40110 70522 80002 333 58022 85076;EQDQ01  00002PRCP99
0187653350999992000022915004+08030+002470FM-12+0200DBBS V0200401N002110780019N0020001N1+03511+00701100821ADDAY121031AY221031GA1051+078009019GF105991001001999999001021MA1999999098611MD1999999+0161MW1051REMSYN082AAXX  29154 65335 41920 50404 10351 20070 39861 40082 70522 80002 333 58016 85076;
0201653350999992000030100004+08030+002470FM-12+0200DBBS V0209999C000010780019N0020001N1+02611+00741101131ADDAA199000091GA1051+078009019GF105991001001999999001021MA1999999098921MD1999999+0061MW1051REMSYN082AAXX  01004 65335 31920 50000 10261 20074 39892 40113 705// 80002 333 58006 85076;EQDQ01  00002PRCP99
0236653350999992000030106004+08030+002470FM-12+0200DBBS V0209999C000010780019N0030001N1+02461+01361101101ADDAA199000091AY121061AY221061GA1051+078009019GF105991001001999999001021KA1120N+02421MA1999999098871MD1999999+0041MW1051REMSYN088AAXX  01064 65335 31930 50000 10246 20136 39887 40110 70522 80002 333 20242 58004 85076;EQDQ01  00002PRCP99
0187653350999992000030109004+08030+002470FM-12+0200DBBS V0200401N002110780019N0030001N1+02851+00741101251ADDAY121031AY221031GA1051+078009019GF105991001001999999001021MA1999999099031MD1999999+0011MW1051REMSYN082AAXX  01094 65335 41930 50404 10285 20074 39903 40125 70522 80002 333 58001 85076;
0187653350999992000030112004+08030+002470FM-12+0200DBBS V0202201N002110780019N0030001N1+03721+00901100701ADDAY121061AY221061GA1051+078009019GF105991001001999999001021MA1999999098501MD1999999-0111MW1051REMSYN082AAXX  01124 65335 41930 52204 10372 20090 39850 40070 70522 80002 333 59011 85076;
0201653350999992000030200004+08030+002470FM-12+0200DBBS V0209999C000010780019N0030001N1+02701+00841101051ADDAA199000091GA1051+078009019GF105991001001999999001021MA1999999098841MD1999999-0081MW1051REMSYN082AAXX  02004 65335 31930 50000 10270 20084 39884 40105 705// 80002 333 59008 85076;EQDQ01  00002PRCP99
0236653350999992000030206004+08030+002470FM-12+0200DBBS V0209999C000010780019N0030001N1+02301+01331100951ADDAA199000091AY121061AY221061GA1051+078009019GF105991001001999999001021KA1120N+02251MA1999999098731MD1999999-0141MW1051REMSYN088AAXX  02064 65335 31930 50000 10230 20133 39873 40095 70522 80002 333 20225 59014 85076;EQDQ01  00002PRCP99
0201653350999992000030300004+08030+002470FM-12+0200DBBS V0209999C000010780019N0030001N1+02681+02231100951ADDAA199000091GA1051+078009019GF105991001001999999001021MA1999999098741MD1999999-0101MW1051REMSYN082AAXX  03004 65335 31930 50000 10268 20223 39874 40095 705// 80002 333 59010 85076;EQDQ01  00002PRCP99
0159653350999992000030303004+08030+002470FM-12+0200DBBS V0209999C000010780019N0080001N1+02601+02311100811ADDGA1051+078009019GF105991001001999999001021MA1999999098611MD1999999-0091REMSYN076AAXX  03034 65335 42958 50000 10260 20231 39861 40081 80002 333 59009 85076;
0208653350999992000030306004+08030+002470FM-12+0200DBBS V0209999C000010780019N0080001N1+02571+02321100891ADDAA199000091GA1051+078009019GF105991001001999999001021KA1120N+02531MA1999999098681MD1999999-0051REMSYN082AAXX  03064 65335 32958 50000 10257 20232 39868 40089 80002 333 20253 59005 85076;EQDQ01  00002PRCP99
0165653350999992000030309004+08030+002470FM-12+0200DBBS V0201801N00211105001CN0080001N1+02881+02201101091ADDGA1031+003909069GF107991031051004501001021MA1999999098881MD1999999-0041REMSYN082AAXX  03094 65335 42458 71804 10288 20220 39888 40109 83502 333 59004 83613 85076;
0189653350999992000030312004+08030+002470FM-12+0200DBBS V0209999C000010780019N0080001N1+03481+01821101021ADDAA199000091GA1051+078009019GF105991001001999999001021MA1999999098811MD1999999+0041REMSYN076AAXX  03124 65335 32958 50000 10348 20182 39881 40102 80002 333 58004 85076;EQDQ01  00002PRCP99
0159653350999992000030315004+08030+002470FM-12+0200DBBS V0200401N003110780019N0080001N1+03641+01601100691ADDGA1051+078009019GF105991001001999999001021MA1999999098491MD1999999+0081REMSYN076AAXX  03154 65335 42958 50406 10364 20160 39849 40069 80002 333 58008 85076;
0189653350999992000030400004+08030+002470FM-12+0200DBBS V0209999C000010780019N0080001N1+02801+02091101031ADDAA199000091GA1051+078009019GF105991001001999999001021MA1999999098821MD1999999+0081REMSYN076AAXX  04004 65335 33958 50000 10280 20209 39882 40103 80002 333 58008 85076;EQDQ01  00002PRCP99
0159653350999992000030403004+08030+002470FM-12+0200DBBS V0209999C000010780019N0080001N1+02601+02161100931ADDGA1051+078009019GF105991001001999999001021MA1999999098721MD1999999+0111REMSYN076AAXX  04034 65335 42958 50000 10260 20216 39872 40093 80002 333 58011 85076;
0187653350999992000030415004+08030+002470FM-12+0200DBBS V0203001N002110780019N0060001N1+03801+01571100531ADDAY121031AY221031GA1051+078009019GF105991001001999999001021MA1999999098341MD1999999-0151MW1051REMSYN082AAXX  04154 65335 41956 53004 10380 20157 39834 40053 70522 80002 333 59015 85076;
0236653350999992000030418004+08030+002470FM-12+0200DBBS V0209999C000010780019N0060001N1+03641+01551100601ADDAA199000091AY121061AY221061GA1051+078009019GF105991001001999999001021KA1120M+03901MA1999999098401MD1999999-0111MW1051REMSYN088AAXX  04184 65335 31956 50000 10364 20155 39840 40060 70522 80002 333 10390 59011 85076;EQDQ01  00002PRCP99
0201653350999992000030500004+08030+002470FM-12+0200DBBS V0209999C000010780019N0060001N1+02731+02041100931ADDAA199000091GA1051+078009019GF105991001001999999001021MA1999999098721MD1999999-0101MW1051REMSYN082AAXX  05004 65335 31956 50000 10273 20204 39872 40093 705// 80002 333 59010 85076;EQDQ01  00002PRCP99
0187653350999992000030503004+08030+002470FM-12+0200DBBS V0209999C000010780019N0060001N1+02511+02231100741ADDAY121031AY221031GA1051+078009019GF105991001001999999001021MA1999999098541MD1999999-0181MW1051REMSYN082AAXX  05034 65335 41956 50000 10251 20223 39854 40074 70522 80002 333 59018 85076;
0189653350999992000030712004+08030+002470FM-12+0200DBBS V0200401N002110780019N0080001N1+03501+01601100911ADDAA199000091GA1051+078009019GF105991001001999999001021MA1999999098701MD1999999-0011REMSYN076AAXX  07124 65335 32958 50404 10350 20160 39870 40091 80002 333 59001 85076;EQDQ01  00002PRCP99
0103653350999992000030803004+08030+002470FM-12+0200DBBS V0209999C000019999999N0060001N1+02611+02341100761ADDMA1999999098571REMSYN076AAXX  08034 65335 42956 /0000 10261 20234 39857 40076 80002 333 59/04 8576/;
0159653350999992000030809004+08030+002470FM-12+0200DBBS V0209999C000010780019N0080001N1+02991+01681101101ADDGA1051+078009019GF105991001001999999001021MA1999999098891MD1999999+0021REMSYN076AAXX  08094 65335 42958 50000 10299 20168 39889 40110 80002 333 58002 85076;
0189653350999992000030812004+08030+002470FM-12+0200DBBS V0200401N002110780019N0080001N1+03641+00442100921ADDAA199000091GA1051+078009019GF105991001001999999001021MA1999999098721MD1999999+0021REMSYN076AAXX  08124 65335 32958 50404 10364 20044 39872 40092 80002 333 58002 85076;EQDQ01  00002PRCP99
0159653350999992000030815004+08030+002470FM-12+0200DBBS V0200401N003110780019N0080001N1+03901+00741100571ADDGA1051+078009019GF105991001001999999001021MA1999999098381MD1999999+0011REMSYN076AAXX  08154 65335 42958 50406 10390 20074 39838 40057 80002 333 58001 85076;
0208653350999992000030818004+08030+002470FM-12+0200DBBS V0209999C000010780019N0080001N1+03661+01001100671ADDAA199000091GA1051+078009019GF105991001001999999001021KA1120M+04001MA1999999098471MD1999999+0051REMSYN082AAXX  08184 65335 32958 50000 10366 20100 39847 40067 80002 333 10400 58005 85076;EQDQ01  00002PRCP99
0187653350999992000030909004+08030+002470FM-12+0200DBBS V0200401N003110780019N0040001N1+03021+00621101191ADDAY121031AY221031GA1051+078009019GF105991001001999999001021MA1999999098981MD1999999+0091MW1051REMSYN082AAXX  09094 65335 41940 50406 10302 20062 39898 40119 70522 80002 333 58009 85076;
0187653350999992000030915004+08030+002470FM-12+0200DBBS V0200401N002110780019N0040001N1+03851+00861100611ADDAY121031AY221031GA1051+078009019GF105991001001999999001021MA1999999098421MD1999999+0041MW1051REMSYN082AAXX  09154 65335 41940 50404 10385 20086 39842 40061 70522 80002 333 58004 85076;
0236653350999992000030918004+08030+002470FM-12+0200DBBS V0209999C000010780019N0040001N1+03621+01081100651ADDAA199000091AY121061AY221061GA1051+078009019GF105991001001999999001021KA1120M+03941MA1999999098451MD1999999-0021MW1051REMSYN088AAXX  09184 65335 31940 50000 10362 20108 39845 40065 70522 80002 333 10394 59002 85076;EQDQ01  00002PRCP99
0201653350999992000031000004+08030+002470FM-12+0200DBBS V0209999C000010780019N0040001N1+02811+01881100911ADDAA199000091GA1051+078009019GF105991001001999999001021MA1999999098711MD1999999-0111MW1051REMSYN082AAXX  10004 65335 31940 50000 10281 20188 39871 40091 705// 80002 333 59011 85076;EQDQ01  00002PRCP99
0236653350999992000031006004+08030+002470FM-12+0200DBBS V0209999C000010780019N0040001N1+02451+01461100881ADDAA199000091AY121061AY221061GA1051+078009019GF105991001001999999001021KA1120N+02361MA1999999098671MD1999999-0161MW1051REMSYN088AAXX  10064 65335 31940 50000 10245 20146 39867 40088 70522 80002 333 20236 59016 85076;EQDQ01  00002PRCP99
0187653350999992000031009004+08030+002470FM-12+0200DBBS V0200401N002110780019N0040001N1+03001+00521101051ADDAY121031AY221031GA1051+078009019GF105991001001999999001021MA1999999098841MD1999999-0141MW1051REMSYN082AAXX  10094 65335 41940 50404 10300 20052 39884 40105 70522 80002 333 59014 85076;
0187653350999992000031012004+08030+002470FM-12+0200DBBS V0200401N002110780019N0040001N1+03551+00601100861ADDAY121061AY221061GA1051+078009019GF105991001001999999001021MA1999999099161MD1999999-0091MW1051REMSYN082AAXX  10124 65335 41940 50404 10355 20060 39916 40086 70522 80002 333 59009 85076;
0206653350999992000031015004+08030+002470FM-12+0200DBBS V0200801N002110780019N0040001N1+03821+00611100521ADDAY121031AY221031GA1051+078009019GF105991001001999999001021MA1999999098332MD1999999-0091MW1051REMSYN082AAXX  10154 65335 41940 50804 10382 20061 39833 40052 70522 80002 333 59009 85076;EQDQ01+098333APOSP 
0236653350999992000031018004+08030+002470FM-12+0200DBBS V0202001N002110780019N0040001N1+03551+00621100601ADDAA199000091AY121061AY221061GA1051+078009019GF105991001001999999001021KA1120M+03901MA1999999098391MD1999999-0061MW1051REMSYN088AAXX  10184 65335 31940 52004 10355 20062 39839 40060 70522 80002 333 10390 59006 85076;EQDQ01  00002PRCP99
0208653350999992000031106004+08030+002470FM-12+0200DBBS V0209999C000010780019N0080001N1+02351+01921100871ADDAA199000091GA1051+078009019GF105991001001999999001021KA1120N+02301MA1999999098661MD1999999-0011REMSYN082AAXX  11064 65335 32958 50000 10235 20192 39866 40087 80002 333 20230 59001 85076;EQDQ01  00002PRCP99
0236653350999992000031118004+08030+002470FM-12+0200DBBS V0202801N001010780019N0050001N1+03581+00781100621ADDAA199000091AY121061AY221061GA1051+078009019GF105991001001999999001021KA1120M+03871MA1999999098411MD1999999+0021MW1051REMSYN088AAXX  11184 65335 31950 52802 10358 20078 39841 40062 70522 80002 333 10387 58002 85076;EQDQ01  00002PRCP99
0189653350999992000031200004+08030+002470FM-12+0200DBBS V0209999C000010780019N0080001N1+02731+02141100841ADDAA199000091GA1051+078009019GF105991001001999999001021MA1999999098651MD1999999+0011REMSYN076AAXX  12004 65335 33958 50000 10273 20214 39865 40084 80002 333 58001 85076;EQDQ01  00002PRCP99
0159653350999992000031203004+08030+002470FM-12+0200DBBS V0209999C000010780019N0080001N1+02561+02221100751ADDGA1051+078009019GF105991001001999999001021MA1999999098551MD1999999-0031REMSYN076AAXX  12034 65335 42958 50000 10256 20222 39855 40075 80002 333 59003 85076;
0208653350999992000031206004+08030+002470FM-12+0200DBBS V0209999C000010780019N0080001N1+02441+02111100811ADDAA199000091GA1051+078009019GF105991001001999999001021KA1120N+02391MA1999999098601MD1999999-0061REMSYN082AAXX  12064 65335 32958 50000 10244 20211 39860 40081 80002 333 20239 59006 85076;EQDQ01  00002PRCP99
0159653350999992000031209004+08030+002470FM-12+0200DBBS V0209999C000010780019N0080001N1+02891+02241100991ADDGA1051+078009019GF105991001001999999001021MA1999999098771MD1999999-0081REMSYN076AAXX  12094 65335 42958 50000 10289 20224 39877 40099 80002 333 59008 85076;
0189653350999992000031212004+08030+002470FM-12+0200DBBS V0200401N003110780019N0080001N1+03641+01101100761ADDAA199000091GA1051+078009019GF105991001001999999001021MA1999999098561MD1999999-0101REMSYN076AAXX  12124 65335 32958 50406 10364 20110 39856 40076 80002 333 59010 85076;EQDQ01  00002PRCP99
0159653350999992000031215004+08030+002470FM-12+0200DBBS V0203201N002110780019N0080001N1+03901+00901100541ADDGA1051+078009019GF105991001001999999001021MA1999999098351MD1999999+0011REMSYN076AAXX  12154 65335 42958 53204 10390 20090 39835 40054 80002 333 58001 85076;
0214653350999992000031218004+08030+002470FM-12+0200DBBS V0209999C000019999999N0080001N1+03691+01021100571ADDAA199000091GA1031+039009039GF107991031001999999031021KA1120M+03981MA1999999098371MD1999999-0041REMSYN088AAXX  12184 65335 32958 70000 10369 20102 39837 40057 83032 333 10398 59004 83363 85076;EQDQ01  00002PRCP99
0165653350999992000031309004+08030+002470FM-12+0200DBBS V0201801N00101105001CN0080001N1+02931+02421101031ADDGA1011+003909069GF105991011051004501001021MA1999999098821MD1999999+0051REMSYN082AAXX  13094 65335 42458 51802 10293 20242 39882 40103 81502 333 58005 81613 85076;
0189653350999992000031312004+08030+002470FM-12+0200DBBS V0209999C000010780019N0100001N1+03601+01771100761ADDAA199000091GA1051+078009019GF105991001001999999001021MA1999999098561MD1999999+0001REMSYN076AAXX  13124 65335 32960 50000 10360 20177 39856 40076 80002 333 58000 85076;EQDQ01  00002PRCP99
0159653350999992000031315004+08030+002470FM-12+0200DBBS V0202801N002110780019N0100001N1+03901+00741100441ADDGA1051+078009019GF105991001001999999001021MA1999999098251MD1999999-0101REMSYN076AAXX  13154 65335 42960 52804 10390 20074 39825 40044 80002 333 59010 85076;
0208653350999992000031318004+08030+002470FM-12+0200DBBS V0209999C000010780019N0100001N1+03681+01101100531ADDAA199000091GA1051+078009019GF105991001001999999001021KA1120M+04021MA1999999098331MD1999999-0041REMSYN082AAXX  13184 65335 32960 50000 10368 20110 39833 40053 80002 333 10402 59004 85076;EQDQ01  00002PRCP99
0214653350999992000031406004+08030+002470FM-12+0200DBBS V0209999C00001105001CN0100001N1+02501+02281100801ADDAA199000091GA1031+003909069GF107991031051004501001021KA1120N+02451MA1999999098591MD1999999-0041REMSYN088AAXX  14064 65335 32460 70000 10250 20228 39859 40080 83502 333 20245 59004 83613 85076;EQDQ01  00002PRCP99
0165653350999992000031409004+08030+002470FM-12+0200DBBS V0201601N00211105001CN0100001N1+02881+02381100981ADDGA1031+003909069GF107991031051004501001021MA1999999098761MD1999999-0061REMSYN082AAXX  14094 65335 42460 71604 10288 20238 39876 40098 83502 333 59006 83613 85076;
0195653350999992000031412004+08030+002470FM-12+0200DBBS V0209999C00001105001CN0100001N1+03581+01531100751ADDAA199000091GA1031+003909069GF107991031051004501001021MA1999999098551MD1999999-0011REMSYN082AAXX  14124 65335 32460 70000 10358 20153 39855 40075 83502 333 59001 83613 85076;EQDQ01  00002PRCP99
0159653350999992000031415004+08030+002470FM-12+0200DBBS V0202801N003110780019N0100001N1+03831+01321100451ADDGA1051+078009019GF105991001001999999001021MA1999999098261MD1999999+0011REMSYN076AAXX  14154 65335 42960 52806 10383 20132 39826 40045 80002 333 58001 85076;
0208653350999992000031418004+08030+002470FM-12+0200DBBS V0209999C000010780019N0100001N1+03681+01261100511ADDAA199000091GA1051+078009019GF105991001001999999001021KA1120M+03921MA1999999098311MD1999999-0021REMSYN082AAXX  14184 65335 32960 50000 10368 20126 39831 40051 80002 333 10392 59002 85076;EQDQ01  00002PRCP99
0189653350999992000031500004+08030+002470FM-12+0200DBBS V0209999C000010780019N0100001N1+02771+02281100761ADDAA199000091GA1051+078009019GF105991001001999999001021MA1999999098561MD1999999-0061REMSYN076AAXX  15004 65335 33960 50000 10277 20228 39856 40076 80002 333 59006 85076;EQDQ01  00002PRCP99
0193653350999992000031509004+08030+002470FM-12+0200DBBS V0201401N002110780019N0100001N1+02931+02361100951ADDGA1031+003909069GA2051+078009009GF107991041081004501001021MA1999999098731MD1999999-0031REMSYN094AAXX  15094 65335 42460 71404 10293 20236 39873 40095 84802 333 59003 83613 85076 94902 95812;
0159653350999992000031515004+08030+002470FM-12+0200DBBS V0201601N002110780019N0100001N1+03751+01681100331ADDGA1051+078009019GF105991001001999999001021MA1999999098141MD1999999-0121REMSYN076AAXX  15154 65335 42960 51604 10375 20168 39814 40033 80002 333 59012 85076;
0208653350999992000031518004+08030+002470FM-12+0200DBBS V0209999C000010780019N0100001N1+03621+01801100401ADDAA199000091GA1051+078009019GF105991001001999999001021KA1120M+03901MA1999999098201MD1999999-0111REMSYN082AAXX  15184 65335 32960 50000 10362 20180 39820 40040 80002 333 10390 59011 85076;EQDQ01  00002PRCP99
0189653350999992000031600004+08030+002470FM-12+0200DBBS V0209999C000010780019N0100001N1+02851+02291100901ADDAA199000091GA1051+078009019GF105991001001999999001021MA1999999098691MD1999999+0131REMSYN076AAXX  16004 65335 33960 50000 10285 20229 39869 40090 80002 333 58013 85076;EQDQ01  00002PRCP99
