0191676870999992000010412004-15780+035030FM-12+114199999V0200801N005010135019N0300001N1+02801+01781999999ADDAA106000091GA1061+013509089GA2011+999999099GF107991061021012501031081MA1999999088661REMSYN076AAXX  04121 67687 32680 70805 10280 20178 38866 86238 333 86845 819// 87280;EQDQ01  00002PRCP06
0209676870999992000010512004-15780+035030FM-12+114199999V0209999C000010090019N0200001N1+02141+02031999999ADDAY191061AY221061GA1011+007509099GA2061+009009089GF107991061091008001071999MA1999999088931MD1999999+0271MW1951REMSYN088AAXX  05121 67687 41570 70000 10214 20203 38893 79592 8697/ 333 58027 81925 86830 87459;
0218676870999992000010606004-15780+035030FM-12+114199999V0209999C00001045001CN0300001N1+02351+02081999999ADDAA124006191GA1041+007509089GF107991041011008001031081KA1120N+01961MA1999999088841MD1999999-0161OA150600201REMSYN100AAXX  06061 67687 12580 70000 10235 20208 38884 60064 84138 333 20196 55025 59016 70055 84825 87280;
0225676870999992000010707004-15780+035030FM-12+114199999V0209999C00001045001CN0300001N1+02451+02011999999ADDAA106000091GA1021+009009089GF107991021011012501031081KA1120N+02101MA1999999088721MD1999999-0121OA159901101REMSYN088AAXX  07071 67687 32680 70000 10245 20201 38872 82138 333 20210 55113 59012 82830 87280;EQDQ01  00002PRCP06
0189676870999992000010712004-15780+035030FM-12+114199999V0200301N004010135019N0300001N1+02961+01781999999ADDAA106000091GA1061+013509089GF107991061081012501031081MA1999999088461MD1999999-0201REMSYN076AAXX  07121 67687 32680 70304 10296 20178 38846 86838 333 59020 86845 87280;EQDQ01  00002PRCP06
0266676870999992000011412004-15780+035030FM-12+114199999V0209999C000010270019N0200001N1+02251+01811999999ADDAA199000091AY121061AY221061GA1011+009009069GA2071+027009049GF107991011051012501021999KA1240M+02501MA1999999088621MD1999999+0071MW1151REMSYN102    AAXX  14121 67687 31670 70000 10225 20181 38862 71522 8152/ 333 58007 81630 87459 555 10250 29074;EQDQ01  00002PRCP99
0267676870999992000011506004-15780+035030FM-12+114199999V0209999C000010900019N0300001N1+02001+01781999999ADDAA124003091GA1021+007509089GA2071+090009029GF107991021011008001031081KA1240M+02601KA2120N+01681MA1999999088881MD1999999+0051OA150600601REMSYN120    AAXX  15061 67687 12580 70000 10200 20178 38888 60034 82138 333 20168 55060 58005 70030 82825 87280 555 10260 7//62;
0224676870999992000011806004-15780+035030FM-12+114199999V0209999C00001045001CN0200001N1+02001+01931999999ADDAA124023191AY161061AY221061GA1041+004509069GF107991041051004501071999KA1120N+01951MA1999999088911MW1211OA150600701REMSYN098    AAXX  18061 67687 11470 70000 10200 20193 38891 60234 72162 8457/ 333 20195 55077 84615 87459;
0233676870999992000012006004-15780+035030FM-12+114199999V0201501N006010300019N0300001N1+01801+01611999999ADDAA124038191GA1041+007509069GA2071+030009049GF107991041051004501071999KA1120N+01601MA1999999089351OA150699999REMSYN094AAXX  20061 67687 12480 71506 10180 20161 38935 60384 8457/ 333 20160 55006 84625 87460 87280;EQDQ01  00002WGOSPD
0189676870999992000012012004-15780+035030FM-12+114199999V0201201N00401045001CN0300001N1+02101+01801999999ADDAA199000091GA1041+007509069GF107991041051008001071999MA1999999089231MD1999999+0161REMSYN076AAXX  20121 67687 32580 71204 10210 20180 38923 8457/ 333 58016 84625 87460;EQDQ01  00002PRCP99
0232676870999992000012106004-15780+035030FM-12+114199999V0201401N004010450019N0300001N1+01891+01691999999ADDAA199000091GA1041+004509069GF107991041051004501031999KA1120N+01641MD1999999+0091OA150699999REMSYN094AAXX  21061 67687 32480 71404 10189 20169 3//// 48/// 8453/ 333 20164 55011 58009 84615 84840;EQDQ01  00002PRCP99Q02  00102WGOSPD
0205676870999992000012406004-15780+035030FM-12+114199999V0201401N00201045001CN0300001N1+02121+01921999999ADDAA199000091GA1041+006009069GF107991041051008001031999KA1120N+01721MA1999999089101OA150600401REMSYN082AAXX  24061 67687 32580 71402 10212 20192 38910 8453/ 333 20172 55043 84620 87360;EQDQ01  00002PRCP99
0167676870999992000012412004-15780+035030FM-12+114199999V0209999C000010075019N0060001N1+02101+01921999999ADDAY161061AY221061GA1051+007509069GF108991061061008001051999MA1999999089021MW1611REMSYN076AAXX  24121 67687 41556 80000 10210 20192 38902 76162 8665/ 333 85625 87458;
0217676870999992000012612004-15780+035030FM-12+114199999V0209999C00001012001CN0200001N1+02801+02031999999ADDAA199000091AY191061AY221061GA1011+009009099GF107991051091012501031031MA1999999088861MD1999999-0131MW1171REMSYN082AAXX  26121 67687 31670 70000 10280 20203 38886 71792 85933 333 59013 81930 85835;EQDQ01  00002PRCP99
0246676870999992000013106004-15780+035030FM-12+114199999V0209999C00001002101CN0050001N1+02001+02001999999ADDAA124016091AY161061AY221061GA1041+000909079GF107991071061002501999999KA1120N+01801MA1999999089061MD1999999+0171MW1401OA150600101REMSYN106AAXX  31061 67687 11350 70000 10200 20200 38906 60164 74062 876// 333 20180 55012 58017 70160 84703 88610;
0225676870999992000020106004-15780+035030FM-12+114199999V0209999C00001045001CN0300001N1+02101+02071999999ADDAA199000091GA1041+004509069GF107991041051004501071999KA1120N+01851MA1999999089021MD1999999-0041OA150600201REMSYN088AAXX  01061 67687 32480 70000 10210 20207 38902 8457/ 333 20185 55024 59004 84615 87460;EQDQ01  00002PRCP99
0201676870999992000020306004-15780+035030FM-12+114199999V0209999C000010045019N0300001N1+02001+01931999999ADDAA124086191GA1051+004509069GF107991051051004501071999KA1120N+01761MA1999999088971MD1999999-0051REMSYN094AAXX  03061 67687 12480 70000 10200 20193 38897 60864 8557/ 333 20176 55/// 59005 85615 87459;
0211676870999992000020312004-15780+035030FM-12+114199999V0200301N003010135019N0300001N1+02701+02091999999ADDAA199000091GA1051+013509089GA2011+999999099GF107991051051012501031081MA1999999088721MD1999999-0021REMSYN082AAXX  03121 67687 32680 70303 10270 20209 38872 85538 333 59002 85845 819// 87280;EQDQ01  00002PRCP99
0252676870999992000020406004-15780+035030FM-12+114199999V0203201N003010300019N0300001N1+02151+02081999999ADDAA124000591GA1041+004509069GA2071+030009049GF107991041051004501071999KA1240M+02751KA2120N+01931MA1999999088921MD1999999-0051REMSYN116AAXX  04061 67687 12480 73203 10215 20208 38892 69954 8457/ 333 20193 55/// 59005 70005 84615 87460 555 10275 7//96;
0253676870999992000020506004-15780+035030FM-12+114199999V0200301N003010075019N0300001N1+02161+02001999999ADDAA199000091GA1051+007509069GA2071+090009029GF107991051051008001031081KA1240M+02761KA2120N+02001MA1999999088891MD1999999-0031REMSYN098AAXX  05061 67687 32580 70303 10216 20200 38889 85538 333 20200 59003 85625 87280 555 10276 7//92;EQDQ01  00002PRCP99
0191676870999992000020712004-15780+035030FM-12+114199999V0200301N002010105019N0300001N1+02801+02191999999ADDAA199000091GA1011+009009099GA2061+010509089GF107991061091012501031081MA1999999089071REMSYN076AAXX  07121 67687 32680 70302 10280 20219 38907 86938 333 81930 86835 87280;EQDQ01  00002PRCP99
0188676870999992000020806004-15780+035030FM-12+114199999V0201801N002012200019N0300001N1+02301+02011999999ADDAA199000091GA1021+007509029GF103991021011008001001021KA1120N+01751MA1999999089121REMSYN076AAXX  08061 67687 32580 31802 10230 20201 38912 82102 333 20175 55/// 82825;EQDQ01  00002PRCP99
0239676870999992000020812004-15780+035030FM-12+114199999V0209999C000010105019N0200001N1+02701+02061999999ADDAA199000091AY191061AY221061GA1011+009009099GA2061+010509089GF107991061091012501031081MA1999999089051MD1999999-0021MW1171REMSYN088AAXX  08121 67687 31670 70000 10270 20206 38905 71792 86938 333 59002 81930 86835 87280;EQDQ01  00002PRCP99
0209676870999992000020912004-15780+035030FM-12+114199999V0209999C000010090019N0200001N1+02131+01841999999ADDAY191061AY261061GA1011+007509099GA2061+009009089GF107991061091008001071999MA1999999088951MD1999999+0101MW1291REMSYN088AAXX  09121 67687 41570 70000 10213 20184 38895 72996 8697/ 333 58010 81925 86830 87460;
0211676870999992000021012004-15780+035030FM-12+114199999V0209999C00001045001CN0200001N1+02541+01911999999ADDAA199000091GA1011+009009099GA2041+010509089GF107991041091012501071999MA1999999088991MD1999999+0041REMSYN082AAXX  10121 67687 31670 70000 10254 20191 38899 8497/ 333 58004 81930 84835 87460;EQDQ01  00002PRCP99
0140676870999992000021112004-15780+035030FM-12+114199999V0209999C000010075019N0060001N1+02651+01981999999ADDAY191061AY221061GA1011+999999099GF107991061091008001071999MW1951REMSYN064AAXX  11121 67687 41556 70000 10265 20198 79592 8697/ 333 81199;
0135676870999992000021412004-15780+035030FM-12+114199999V0209999C000019999999N0200001N1+02091+01981999999ADDGF107991999999008001999999REMSYN097AAXX  14121 67687 41570 70000 10209 20198 3880 72996 8597/ 333 81925 85830 87460 555 10245 29094;
0265676870999992000021506004-15780+035030FM-12+114199999V0200201N002010060019N0300001N1+02101+01891999999ADDAA124000791GA1051+006009069GA2041+030009039GF107991051051008001031081KA1120N+01851MA1999999088881MD1999999-0111OA150699999REMSYN112AAXX  15061 67687 12580 70202 10210 20189 38888 48/// 69904 85538 333 20185 55016 59011 79999 85620 84360 87280;EQDQ01  00102WGOSPD
0220676870999992000021612004-15780+035030FM-12+114199999V0209999C00001045001CN0300001N1+01981+01821999999ADDAA199000021AY161061AY221061GA1021+001509079GA2041+004509069GF107991041061002501071999MA1999999088931MD1999999+0251MW1211REMSYN088AAXX  16121 67687 31380 70000 10198 20182 38893 72162 8467/ 333 58025 82705 84615 87460;
0237676870999992000021706004-15780+035030FM-12+114199999V0200201N00201045001CN0300001N1+02051+01811999999ADDAA124001091GA1031+006009069GF107991031051008001071999KA1120N+01801MA1999999089001MD1999999+0031OA150699999REMSYN100AAXX  17061 67687 12580 70202 10205 20181 38900 60014 8357/ 333 20180 55004 58003 70014 83620 87460;EQDQ01  00002WGOSPD
0254676870999992000021712004-15780+035030FM-12+114199999V0209999C000010060019N0060001N1+02001+01941999999ADDAY191061AY261061GA1011+004509099GA2061+006009089GA3071+027009049GF108991061091004501071999KA1240M+02491MA1999999088831MD1999999-0101MW1951REMSYN104AAXX  17121 67687 41456 80000 10200 20194 38883 79596 8697/ 333 59010 81915 86820 87459 555 10249 29094;
0234676870999992000021812004-15780+035030FM-12+114199999V0200201N001010105019N0300001N1+02541+01931999999ADDAA199000091GA1061+010509089GA2011+999999099GF107991061021012501031021KA1240M+02501MA1999999088911MD1999999+0081REMSYN092AAXX  18121 67687 32680 70201 10254 20193 38891 86232 333 58008 86835 819// 555 10250 29069;EQDQ01  00002PRCP99
0225676870999992000021906004-15780+035030FM-12+114199999V0202701N002010060019N0300001N1+01991+01761999999ADDAA199000091GA1051+006009069GF107991051051008001031081KA1120N+01731MA1999999089031MD1999999-0051OA150601001REMSYN088AAXX  19061 67687 32580 72702 10199 20176 38903 85538 333 20173 55108 59005 85620 87280;EQDQ01  00002PRCP99
0218676870999992000022106004-15780+035030FM-12+114199999V0200201N00301045001CN0300001N1+02161+02001999999ADDAA124000791GA1031+006009069GF107991031051008001031081KA1120N+01851MA1999999088991MD1999999+0041OA150600801REMSYN100AAXX  21061 67687 12580 70203 10216 20200 38899 69904 83538 333 20185 55088 58004 79999 83620 87280;
0240676870999992000022206004-15780+035030FM-12+114199999V0200401N003010300019N0300001N1+02151+01921999999ADDAA124000791GA1041+006009069GA2061+030009039GF107991041051008001031081KA1120N+01951MA1999999088701MD1999999-0091OA150600501REMSYN106AAXX  22061 67687 12580 70403 10215 20192 38870 69904 84538 333 20195 55058 59009 70000 84620 86360 87280;
0256676870999992000022212004-15780+035030FM-12+114199999V0203101N002010105019N0300001N1+02801+02031999999ADDAA199000091GA1051+010509089GA2071+090009029GA3011+999999099GF107991051021012501031081KA1240M+02851MA1999999088441MD1999999-0171REMSYN098AAXX  22121 67687 32680 73102 10280 20203 38844 85238 333 59017 85835 819// 87280 555 10285 29062;EQDQ01  00002PRCP99
0248676870999992000022506004-15780+035030FM-12+114199999V0202301N003010060019N0040001N1+01701+01701999999ADDAA124007991AY191061AY261061GA1021+004509099GA2051+006009089GF107991051091004501071999KA1120N+01701MA1999999089271MW1971OA150600901REMSYN106AAXX  25061 67687 11440 72303 10170 20170 38927 60084 79796 8597/ 333 20170 55096 70677 82915 85820 87459;
0237676870999992000022512004-15780+035030FM-12+114199999V0200401N00401030001CN0300001N1+02451+01841999999ADDAA199000021GA1041+007509089GA2071+030009049GA3011+999999099GF107991041021008001071999KA1240M+02501MA1999999089001MD1999999+0271REMSYN098AAXX  25121 67687 32580 70404 10245 20184 38900 8427/ 333 58027 84825 819// 87460 555 10250 29061;
0226676870999992000022806004-15780+035030FM-12+114199999V0209999C000010060019N0300001N1+02001+01761999999ADDAA124064091GA1051+006009069GA2041+030009039GF107991051051008001031081KA1120N+01691MA1999999089191OA150600101REMSYN106AAXX  28061 67687 12580 70000 10200 20176 38919 60644 85538 333 20169 50//1 55018 70635 85620 84360 87280;
0163676870999992000022812004-15780+035030FM-12+114199999V0209999C000010090019N0300001N1+02401+02091999999ADDAA199000091GA1051+009009029GF107991051021012501031081MA1999999088981REMSYN064AAXX  28121 67687 32680 70000 10240 20209 38898 85238 333 85830;EQDQ01  00002PRCP99
0270676870999992000022906004-15780+035030FM-12+114199999V0200301N003010060019N0300001N1+02151+02001999999ADDAA199000091GA1051+006009069GA2041+030009039GF107991051051008001031021KA1240M+02581KA2120N+01841MA1999999089281MD1999999+0091OA150600601REMSYN104AAXX  29061 67687 32580 70303 10215 20200 38928 85532 333 20184 55067 58009 85620 84360 555 10258 7//22;EQDQ01  00002PRCP99
0256676870999992000022912004-15780+035030FM-12+114199999V0200201N002010105019N0300001N1+02651+02011999999ADDAA199000091GA1051+010509089GA2051+030009039GA3011+999999099GF107991051021012501031021KA1240M+02781MA1999999088951MD1999999-0041REMSYN098AAXX  29121 67687 32680 70202 10265 20201 38895 85232 333 59004 85835 819// 85360 555 10278 29065;EQDQ01  00002PRCP99
0225676870999992000030206004-15780+035030FM-12+114199999V0200201N001012200019N0300001N1+02201+01901999999ADDAA199000091GA1021+009009029GF103991021011012501031001KA1120N+01701MA1999999089171MD1999999-0051OA150600801REMSYN088AAXX  02061 67687 32680 30201 10220 20190 38917 48/// 82130 333 20170 55085 59005 82830;EQDQ01  00002PRCP99
0189676870999992000030212004-15780+035030FM-12+114199999V0201901N002010120019N0300001N1+02491+01401999999ADDAA199000091GA1011+010509099GF107991061091012501031031MA1999999088991MD1999999+0061REMSYN076AAXX  02121 67687 32680 71902 10249 20140 38899 86933 333 58006 81935 86840;EQDQ01  00002PRCP99
0218676870999992000030606004-15780+035030FM-12+114199999V0209999C00001045001CN0300001N1+02151+01781999999ADDAA124003091GA1021+009009089GF107991021011012501031021KA1120N+01751MA1999999089171MD1999999-0011OA150600101REMSYN100AAXX  06061 67687 12680 70000 10215 20178 38917 60034 82132 333 20175 55015 59001 70025 82830 86360;
0212676870999992000030612004-15780+035030FM-12+114199999V0209999C000010090019N0200001N1+02371+02071999999ADDGA1011+007509099GA2051+009009089GA3071+027009049GF107991061091008001071999KA1240M+02591MA1999999089021REMSYN098AAXX  06121 67687 4/570 70000 10237 20207 38902 79592 8697/ 333 81925 85830 87459 555 10259 29083;
0232676870999992000030712004-15780+035030FM-12+114199999V0200201N002010300019N0200001N1+02431+01941999999ADDAY121061AY221061GA1041+010509089GA2061+030009039GF107991041021012501031021KA1240M+02651MA1999999088971MD1999999-0051MW1801REMSYN098AAXX  07121 67687 41670 70202 10243 20194 38897 78022 84232 333 59005 84835 86360 555 10265 29074;
0247676870999992000030906004-15780+035030FM-12+114199999V0209999C000010300019N0300001N1+02161+01921999999ADDAA199000091GA1031+006009069GA2041+030009039GF107991031051008001031081KA1120N+01801MA1999999089151MD1999999+0061OA150600301REMSYN094AAXX  09061 67687 32580 70000 10216 20192 38915 83538 333 20180 55036 58006 83620 84360 87280;EQDQ01  00002PRCP99
0256676870999992000030912004-15780+035030FM-12+114199999V0201901N002010105019N0300001N1+02471+02061999999ADDAA199000091GA1061+010509089GA2051+030009039GA3011+999999099GF107991061021012501031021KA1240M+02671MA1999999089001MD1999999+0021REMSYN098AAXX  09121 67687 32680 71902 10247 20206 38900 86232 333 58002 86835 819// 85360 555 10267 29079;EQDQ01  00002PRCP99
0189676870999992000031012004-15780+035030FM-12+114199999V0201901N002010105019N0300001N1+02511+01861999999ADDAA199000091GA1061+010509089GF107991061021012501031081MA1999999088901MD1999999-0101REMSYN076AAXX  10121 67687 32680 71902 10251 20186 38890 86238 333 59010 86835 85280;EQDQ01  00002PRCP99
0265676870999992000031406004-15780+035030FM-12+114199999V0200301N004010300019N0300001N1+02151+01861999999ADDAA124003091GA1041+006009069GA2051+030009039GF107991041051008001031081KA1120N+01861MA1999999089141MD1999999+0111OA150699999REMSYN112AAXX  14061 67687 12580 70304 10215 20186 38914 48/// 60034 84538 333 20186 55025 58011 70032 84620 85360 87280;EQDQ01  00202WGOSPD
0211676870999992000031412004-15780+035030FM-12+114199999V0200301N002010120019N0300001N1+02651+02041999999ADDAA199000091GA1061+012009089GA2011+999999099GF107991061021012501031081MA1999999088891MD1999999-0031REMSYN082AAXX  14121 67687 32680 70302 10265 20204 38889 86238 333 59003 86840 819// 87280;EQDQ01  00002PRCP99
0247676870999992000031506004-15780+035030FM-12+114199999V0200401N004010300019N0300001N1+02101+01971999999ADDAA199000091GA1041+006009069GA2051+030009039GF107991041051008001031081KA1120N+01951MA1999999089181MD1999999+0041OA150600701REMSYN094AAXX  15061 67687 32580 70404 10210 20197 38918 84538 333 20195 55078 58004 84620 85360 87280;EQDQ01  00002PRCP99
0225676870999992000031606004-15780+035030FM-12+114199999V0200201N00101045001CN0300001N1+02201+01821999999ADDAA199000091GA1021+007509089GF107991021011008001031081KA1120N+01801MA1999999089271MD1999999+0091OA150600801REMSYN088AAXX  16061 67687 32580 70201 10220 20182 38927 82138 333 20180 55086 58009 82825 87280;EQDQ01  00002PRCP99
0241676870999992000031612004-15780+035030FM-12+114199999V0201901N002010120019N0300001N1+02851+01991999999ADDAA199000091GA1051+012009089GA2071+090009029GA3011+999999099GF107991051021012501031081KA1240M+02951MD1999999+0001REMSYN098AAXX  16121 67687 32680 71902 10285 20199 38/// 85238 333 58000 85840 819// 87280 555 10295 29058;EQDQ01  00002PRCP99
0253676870999992000031706004-15780+035030FM-12+114199999V0200401N00401030001CN0300001N1+02051+01911999999ADDAA199000091GA1031+006009069GA2031+030009039GF107991031051008001031081KA1120N+01801MA1999999089231MD1999999-0041OA150601001REMSYN100AAXX  17061 67687 32580 70404 10205 20191 38923 83538 333 20180 50//1 55102 59004 83620 83360 87280;EQDQ01  00002PRCP99
0212676870999992000031712004-15780+035030FM-12+114199999V0200401N003010135019N0300001N1+02771+01791999999ADDAA199000091GA1061+013509089GF107991061021012501031001KA1240M+02821MA1999999089011MD1999999-0031REMSYN086AAXX  17121 67687 32680 70403 10277 20179 38901 86230 333 59003 86845 555 10282 29055;EQDQ01  00002PRCP99
0199676870999992000032006004-15780+035030FM-12+114199999V0200901N003012200019N0300001N1+02001+99999999999ADDAA199000091GA1021+009009029GF103991021011012501031001KA1120N+01801MA1999999089221OA150600301REMSYN076AAXX  20061 67687 32680 30903 10200 20/// 38922 82130 333 20180 55032 82830;EQDQ01  00002PRCP99
0212676870999992000032106004-15780+035030FM-12+114199999V0200901N002012200019N0300001N1+02101+01901999999ADDAA124015091GA1041+006009059GF104991041051008001001001KA1120N+01721MA1999999089331MD1999999+0111OA150600501REMSYN094AAXX  21061 67687 12580 40902 10210 20190 38933 60154 84500 333 20172 55056 58011 70153 84620;
0234676870999992000032112004-15780+035030FM-12+114199999V0200301N003010120019N0300001N1+02571+01951999999ADDAA199000091GA1061+012009089GA2031+030009039GF107991061021012501031021KA1240M+02641MA1999999089151MD1999999+0081REMSYN092AAXX  21121 67687 32680 70303 10257 20195 38915 86232 333 58008 86840 83360 555 10264 29069;EQDQ01  00002PRCP99
0212676870999992000032206004-15780+035030FM-12+114199999V0200901N002010450019N0300001N1+02201+01721999999ADDAA124000891GA1031+006009059GF107991031051008001031001KA1120N+01851MA1999999089321MD1999999-0011OA150600701REMSYN094AAXX  22061 67687 12580 70902 10220 20172 38932 69974 83530 333 20185 55078 59001 70007 83620;
0183676870999992000032212004-15780+035030FM-12+114199999V0200501N002010105019N0300001N1+02371+01871999999ADDAA199000091GA1071+010509029GF107991071021012501999999MA1999999089211MD1999999+0061REMSYN070AAXX  22121 67687 32680 70502 10237 20187 38921 872// 333 58006 87835;EQDQ01  00002PRCP99
0241676870999992000032306004-15780+035030FM-12+114199999V0200401N003010060019N0300001N1+02151+01931999999ADDAA124000791GA1071+006009069GF107991071051008001999999KA1240M+02691KA2120N+01911MA1999999089361MD1999999+0041OA150600501REMSYN110AAXX  23061 67687 12580 70403 10215 20193 38936 69904 875// 333 20191 55057 58004 79999 87620 555 10269 7//82;
0206676870999992000032412004-15780+035030FM-12+114199999V0209999C000010075019N0150001N1+02211+02091999999ADDGA1011+006009099GA2061+007509089GA3071+027009049GF107991061091008001071999KA1240M+02421MA1999999089191REMSYN092AAXX  24121 67687 41565 70000 10221 20209 38919 8697/ 333 81920 86825 87459 555 10242 29094;
0236676870999992000032712004-15780+035030FM-12+114199999V0200301N002010120019N0300001N1+02671+01781999999ADDAA199000091GA1051+012009089GA2071+090009029GA3011+999999099GF107991051021012501031081KA1240M+02771MA1999999089201REMSYN092AAXX  27121 67687 32680 70302 10267 20178 38920 85238 333 85840 819// 87280 555 10277 29062;EQDQ01  00002PRCP99
0219676870999992000032806004-15780+035030FM-12+114199999V0209999C000012200019N0300001N1+02221+01821999999ADDAA199000091GA1021+007509029GF102991021011008001001001KA1120N+01801MA1999999089371MD1999999-0011OA150600901REMSYN082AAXX  28061 67687 32580 20000 10222 20182 38937 82100 333 20180 55098 59001 82825;EQDQ01  00002PRCP99
0234676870999992000032812004-15780+035030FM-12+114199999V0200401N002010147019N0300001N1+02841+01851999999ADDAA199000091GA1051+014709089GA2011+999999099GF107991051021012501031001KA1240M+02871MA1999999089171MD1999999-0031REMSYN092AAXX  28121 67687 32680 70402 10284 20185 38917 85230 333 59003 85849 819// 555 10287 29058;EQDQ01  00002PRCP99
0218676870999992000032906004-15780+035030FM-12+114199999V0200901N001010075019N0300001N1+02221+01891999999ADDAA124002091GA1051+007509089GF106991051011008001031001KA1120N+01821MA1999999089431MD1999999+0061OA150600701REMSYN100AAXX  29061 67687 12580 60901 10222 20189 38943 60024 85130 333 20182 55076 58006 70021 85825 83360;
0284676870999992000032912004-15780+035030FM-12+114199999V0200301N001010090019N0200001N1+02541+02031999999ADDAA199000091AY121061AY221061GA1011+007509099GA2061+009009089GA3071+030009049GF107991061091008001071999KA1240M+02811MA1999999089301MD1999999+0081MW1151REMSYN104AAXX  29121 67687 31570 70301 10254 20203 38930 71522 8697/ 333 58008 81925 86830 87460 555 10281 29074;EQDQ01  00002PRCP99
0219676870999992000033006004-15780+035030FM-12+114199999V0209999C000012200019N0300001N1+02251+01971999999ADDAA199000091GA1011+009009029GF102991011011012501031001KA1120N+01801MA1999999089521MD1999999+0091OA150600901REMSYN082AAXX  30061 67687 32680 20000 10225 20197 38952 81130 333 20180 55094 58009 81830;EQDQ01  00002PRCP99
0189676870999992000033012004-15780+035030FM-12+114199999V0201801N003010105019N0300001N1+02501+02061999999ADDAA199000091GA1061+010509089GF107991061021012501001001MA1999999089261MD1999999-0041REMSYN076AAXX  30121 67687 32680 71803 10250 20206 38926 86200 333 59004 86835 819//;EQDQ01  00002PRCP99
0217676870999992000033112004-15780+035030FM-12+114199999V0209999C00001007501CN0200001N1+02611+02011999999ADDAA199000091AY191061AY221061GA1011+007509099GF107991061091008001071999MA1999999089201MD1999999-0061MW1171REMSYN082AAXX  31121 67687 31570 70000 10261 20201 38920 71792 8697/ 333 59006 81925 86830;EQDQ01  00002PRCP99
0212676870999992000040106004-15780+035030FM-12+114199999V0209999C000010075019N0300001N1+02201+01911999999ADDAA124008991GA1051+007509059GF105991051051008001001001KA1120N+01731MA1999999089431MD1999999+0061OA150600301REMSYN094AAXX  01061 67687 12580 50000 10220 20191 38943 60094 85500 333 20173 55038 58006 70087 85625;
0148676870999992000040312004-15780+035030FM-12+114199999V0200701N002010105019N0300001N1+02461+01931999999ADDAA199000091GA1061+010509029GF107991061081012501031001REMSYN064AAXX  03121 67687 32680 70702 10246 20193 3//// 86830 333 86835;EQDQ01  00002PRCP99
0190676870999992000040406004-15780+035030FM-12+114199999V0201201N005012200019N0300001N1+02051+01821999999ADDAA199000091GA1041+006009059GF104991041051008001001001KA1120N+01711OA150600901REMSYN082AAXX  04061 67687 32580 41205 10205 20182 3//// 48/// 84500 333 20171 55094 84620;EQDQ01  00002PRCP99
0142676870999992000040412004-15780+035030FM-12+114199999V0202001N004010120019N0300001N1+02411+01921999999ADDAA199000091GA1061+012009029GF107991061021012501031001REMSYN058AAXX  04121 67687 32680 72004 10241 20192 86230 333 86840;EQDQ01  00002PRCP99
0184676870999992000040506004-15780+035030FM-12+114199999V0201801N003010060019N0300001N1+02031+01931999999ADDAA199000091GA1071+006009059GF107991071051008001999999KA1120N+01741OA150601001REMSYN076AAXX  05061 67687 32580 71803 10203 20193 3//// 875// 333 20174 55103 87620;EQDQ01  00002PRCP99
0200676870999992000040606004-15780+035030FM-12+114199999V0201101N005010045019N0300001N1+01851+01721999999ADDAA199000091GA1071+004509059GF107991051071004501999999KA1120N+01721OA150699999REMSYN076AAXX  06061 67687 32480 71105 10185 20172 3//// 857// 333 20172 55037 87615;EQDQ01  00002PRCP99Q02  00302WGOSPD
0171676870999992000040612004-15780+035030FM-12+114199999V0201701N002010075019N0300001N1+02161+01921999999ADDAA199000091GA1071+007509069GF107991071051008001999999KA1240M+02501REMSYN074AAXX  06121 67687 32580 71702 10216 20192 875// 333 87625 555 10250 29083;EQDQ01  00002PRCP99
0218676870999992000040706004-15780+035030FM-12+114199999V0201801N002010045019N0150001N1+01801+01721999999ADDAA199000091AY121061AY221061GA1071+004509059GF107991071051004501999999KA1120N+01701MW1151OA150600701REMSYN088AAXX  07061 67687 31465 71802 10180 20172 3//// 48/// 71522 875// 333 20170 55075 87615;EQDQ01  00002PRCP99
0154676870999992000040712004-15780+035030FM-12+114199999V0201601N002010075019N0300001N1+02201+01801999999ADDAA199000091GA1061+007509089GF107991061021008001001081REMSYN070AAXX  07121 67687 32580 71602 10220 20180 3//// 86208 333 86825 87280;EQDQ01  00002PRCP99
0147676870999992000041106004-15780+035030FM-12+114199999V0209999C00001045001CN0300001N1+01851+01701999999ADDAA124003091GA1041+006009069GF107991041051008001031999REMSYN082AAXX  11061 67687 12580 70000 10185 20170 3//// 60034 8453/ 333 70028 84620 87360;
0200676870999992000041306004-15780+035030FM-12+114199999V0200701N002012200019N0300001N1+02191+01781999999ADDAA124007191GA1011+007509079GF102991011011008001031001KA1240M+02501KA2120N+01751OA150600301REMSYN098AAXX  13061 67687 12580 20702 10219 20178 60074 81130 333 20175 55035 70071 81725 555 10250 7//11;
0183676870999992000041406004-15780+035030FM-12+114199999V0209999C00001045001CN0300001N1+01951+01921999999ADDAA124002091GA1041+006009069GF107991041051008001071999KA1120N+01871OA150600501REMSYN094AAXX  14061 67687 12580 70000 10195 20192 3//// 60024 8457/ 333 20187 55055 70021 84620 87460;
0207676870999992000041906004-15780+035030FM-12+114199999V0200701N005010060019N0300001N1+01801+01571999999ADDAA199000091GA1051+006009069GF105991051051008001001001KA1240M+02451KA2120N+01571OA150600501REMSYN086AAXX  19061 67687 32580 50705 10180 20157 85500 333 20157 55052 85620 555 10245 7//92;EQDQ01  00002PRCP99
0177676870999992000042512004-15780+035030FM-12+114199999V0209999C000010105019N0300001N1+02301+01321999999ADDAA199000091GA1061+010509089GF106991061021012501001001KA1240M+02551REMSYN080AAXX  25121 67687 32680 60000 10230 20132 3//// 86200 333 86835 555 10255 29053;EQDQ01  00002PRCP99
0171676870999992000042812004-15780+035030FM-12+114199999V0201001N004010105019N0300001N1+02301+01791999999ADDAA199000091GA1051+010509089GF106991051021012501031001KA1240M+02501REMSYN074AAXX  28121 67687 32680 61004 10230 20179 85230 333 85835 555 10250 29074;EQDQ01  00002PRCP99
0210676870999992000050206004-15780+035030FM-12+114199999V0200801N003012200019N0300001N1+01551+01471999999ADDAA199000091GA1011+004509029GF103991031051004501001001KA1120N+01351MD1999999-0081OA150600801REMSYN088AAXX  02061 67687 32480 30803 10155 20147 3//// 83500 333 013// 20135 55081 59008 81815;EQDQ01  00002PRCP99
0190676870999992000050306004-15780+035030FM-12+114199999V0200801N003012200019N0300001N1+01901+01591999999ADDAA199000091GA1031+006009029GF103991031011008001001001KA1120N+01461OA150600901REMSYN082AAXX  03061 67687 32580 30803 10190 20159 3//// 83100 333 010// 20146 55090 83820;EQDQ01  00002PRCP99
0199676870999992000050312004-15780+035030FM-12+114199999V0200801N003010105019N0300001N1+02591+01691999999ADDAA199000091GA1051+010509089GA2041+030009039GF107991051011012501031001KA1240M+02671REMSYN086AAXX  03121 67687 32680 70803 10259 20169 3//// 85130 333 85835 84360 555 10267 29058;EQDQ01  00002PRCP99
0238676870999992000050406004-15780+035030FM-12+114199999V0202501N080022200019N0300001N1+99999+99999999999ADDAA199000091GA1061+006009059GF199999061051008001001001KA1120N+01611OA150699999REMSYN082AAXX  04061 67687 32580 32580 20180 3//// 48/// 86500 333 011// 20161 55098 86620;EQDQ01+008003WOSPD Q02+000032SCOTCVQ03  00002PRCP99Q04  00902WGOSPD
0199676870999992000050412004-15780+035030FM-12+114199999V0209999C000010135019N0300001N1+02521+01701999999ADDAA199000091GA1051+013509089GA2041+030009039GF106991051021012501031001KA1240M+02581REMSYN086AAXX  04121 67687 32680 60000 10252 20170 3//// 85230 333 85845 84360 555 10258 29069;EQDQ01  00002PRCP99
0190676870999992000050506004-15780+035030FM-12+114199999V0200901N004010045019N0300001N1+01931+01821999999ADDAA199000091GA1071+004509059GF107991071051004501999999KA1120N+01751OA150601001REMSYN082AAXX  05061 67687 32480 70904 10193 20182 3//// 875// 333 015// 20175 55101 87615;EQDQ01  00002PRCP99
0194676870999992000050806004-15780+035030FM-12+114199999V0200701N001010045019N0200001N1+01751+01751999999ADDAA124014091AY151061AY221061GA1071+004509059GF107991071051004501999999KA1120N+01651MW1201REMSYN094AAXX  08061 67687 11470 70701 10175 20175 3//// 60144 72052 875// 333 016// 20165 70142 87615;
0189676870999992000051006004-15780+035030FM-12+114199999V0201601N003010045019N0300001N1+01651+01571999999ADDAA124003091GA1071+004509059GF107991071051004501999999KA1120N+01501OA150600401REMSYN100AAXX  10061 67687 12480 71603 10165 20157 3//// 48/// 60034 875// 333 015// 20150 55041 70029 87615;
0177676870999992000051012004-15780+035030FM-12+114199999V0201701N003010300019N0300001N1+01951+01871999999ADDAA199000091GA1071+030009029GF107991071051008001999999KA1240M+02051REMSYN080AAXX  10121 67687 32580 71703 10195 20187 3//// 875// 333 87260 555 10205 29094;EQDQ01  00002PRCP99
0197676870999992000051112004-15780+035030FM-12+114199999V0201701N002010060019N0200001N1+02001+01851999999ADDAY181061AY221061GA1061+006009069GA2031+030009039GF107991061021008001031001KA1240M+02551MW1251REMSYN092AAXX  11121 67687 41570 71702 10200 20185 3//// 72582 86230 333 86620 83360 555 10255 29094;
0202676870999992000051206004-15780+035030FM-12+114199999V0201701N005010045019N0300001N1+01501+01501999999ADDAA124005191GA1071+004509059GF107991071051004501999999KA1120N+01501OA150699999REMSYN094AAXX  12061 67687 12480 71705 10150 20150 3//// 60054 875// 333 015// 20150 55031 70049 87615;EQDQ01  00302WGOSPD
0199676870999992000051212004-15780+035030FM-12+114199999V0201501N001010075019N0300001N1+01951+01461999999ADDAA199000091GA1061+007509089GA2041+030009039GF107991061021008001031001KA1240M+02051REMSYN086AAXX  12121 67687 32580 71501 10195 20146 3//// 86230 333 86825 84360 555 10205 29073;EQDQ01  00002PRCP99
0167676870999992000051506004-15780+035030FM-12+114199999V0201701N004012200019N0300001N1+01401+01001999999ADDAA199000091GA1001+999999999GF100991001001999999001001KA1120N+01101REMSYN070AAXX  15061 67687 32980 01704 10140 20100 3//// 333 013// 20110 55104;EQDQ01  00002PRCP99
0177676870999992000051512004-15780+035030FM-12+114199999V0201601N003012200019N0300001N1+02041+00901999999ADDAA199000091GA1011+009009089GF101991011011012501001001KA1240M+02101REMSYN080AAXX  15121 67687 32680 11603 10204 20090 38/// 81100 333 81830 555 10210 29040;EQDQ01  00002PRCP99
0241676870999992000051606004-15780+035030FM-12+114199999V0201601N005010300019N0300001N1+01401+01131999999ADDAA199000091GA1011+007509069GA2071+030009039GF107991011051004501031999KA1240M+02101KA2120N+01101OA150601001REMSYN104AAXX  16061 67687 32480 71605 10140 20113 3//// 8153/ 333 009// 20110 55106 81625 87360 555 10210 7//11;EQDQ01  00002PRCP99
0177676870999992000051612004-15780+035030FM-12+114199999V0209999C000012200019N0300001N1+02051+01021999999ADDAA199000091GA1021+030009039GF102991021001999999031001KA1240M+02151REMSYN080AAXX  16121 67687 32980 20000 10205 20102 3//// 82030 333 82360 555 10215 29049;EQDQ01  00002PRCP99
0190676870999992000051706004-15780+035030FM-12+114199999V0201601N003010045019N0300001N1+01501+01321999999ADDAA199000091GA1071+004509059GF107991071051004501999999KA1120N+01251OA150601001REMSYN082AAXX  17061 67687 32480 71603 10150 20132 3//// 875// 333 013// 20125 55107 87615;EQDQ01  00002PRCP99
0223676870999992000051806004-15780+035030FM-12+114199999V0201601N00201001201CN0150001N1+01501+01421999999ADDAA124000191AY121061AY221061GA1011+000909079GF107991071071001501999999KA1120N+01401MW1501OA150600301REMSYN112AAXX  18061 67687 11265 71602 10150 20142 3//// 48/// 69914 75022 877// 333 013// 20140 55033 70011 81703 87610;
0138676870999992000051906004-15780+035030FM-12+114199999V0201001N003010450019N0300001N1+01511+01321999999ADDAA124000191GF107991041051004501071999KA1999N+99999REMSYN076AAXX  19061 67687 12480 71003 10151 20132 3//// 69924 8457/ 333 014// 20913;
0148676870999992000060712004-15780+035030FM-12+114199999V0201201N002010045019N0300001N1+01721+01611999999ADDAA199000091GA1071+004509059GF107991071051004501999999REMSYN064AAXX  07121 67687 32480 71202 10172 20161 3//// 875// 333 87615;EQDQ01  00002PRCP99
0184676870999992000060906004-15780+035030FM-12+114199999V0201601N002010045019N0300001N1+01601+01471999999ADDAA199000091GA1061+004509059GF106991061051004501001001KA1120N+01401OA150600401REMSYN076AAXX  09061 67687 32480 61602 10160 20147 86500 333 013// 20140 55047 86615;EQDQ01  00002PRCP99
0177676870999992000060912004-15780+035030FM-12+114199999V0209999C000010090019N0400001N1+02001+01251999999ADDAA199000091GA1061+009009089GF106991061021012501001001KA1240M+02341REMSYN080AAXX  09121 67687 32682 60000 10200 20125 3//// 86200 333 86830 555 10234 29064;EQDQ01  00002PRCP99
0184676870999992000061106004-15780+035030FM-12+114199999V0201601N002012200019N0300001N1+01781+01511999999ADDAA199000091GA1031+004509029GF103991031011004501001001KA1120N+01411OA150600601REMSYN076AAXX  11061 67687 32480 31602 10178 20151 83100 333 013// 20141 55067 83815;EQDQ01  00002PRCP99
0190676870999992000061206004-15780+035030FM-12+114199999V0201201N003012200019N0300001N1+01551+01301999999ADDAA199000091GA1041+030009079GF104991041001999999031001KA1120N+01351OA150600801REMSYN082AAXX  12061 67687 32980 41203 10155 20130 3//// 84030 333 013// 20135 55080 84360;EQDQ01  00002PRCP99
0184676870999992000062306004-15770+035300FM-12+114199999V0209999C000012200019N0300001N1+01801+01491999999ADDAA199000091GA1011+006009059GF101991011051008001001001KA1120N+01401OA150600901REMSYN076AAXX  23061 67687 32580 10000 10180 20149 81500 333 013// 20140 55096 81620;EQDQ01  00002PRCP99
0206676870999992000062606004-15770+035300FM-12+114199999V02099999999992200019N0300001N1+01501+01291999999ADDAA199000091GA1031+004509059GF103991031051004501031001KA1120N+01351OA150699999REMSYN082AAXX  26061 67687 32480 34130 10150 20129 3//// 83530 333 012// 20135 55057 83615;EQDQ01  00002PRCP99Q02  00502WGOSPD
0183676870999992000062806004-15770+035300FM-12+114199999V0201101N006012200019N0300001N1+01351+01211999999ADDAA124007991GA1031+004509059GF103991031051004501001001KA1120N+01251OA150600601REMSYN094AAXX  28061 67687 12480 31106 10135 20121 3//// 60084 83500 333 012// 20125 55064 70075 83615;
0224676870999992000062906004-15770+035300FM-12+114199999V0201101N005010045019N0200001N1+01421+01381999999ADDAA124000791AY161061AY221061GA1071+004509059GF107991071071004501999999KA1120N+01201MA1999999088211ME1315659MW1611REMSYN100AAXX  29061 67687 11470 71105 10142 20138 38821 48565 69904 76162 877// 333 009// 20120 70019 87615;
0152676870999992000062912004-15770+035300FM-12+114199999V0201401N004010060019N0300001N1+01661+01181999999ADDAA199000021GA1071+006009069GF107991071051008001999999KA1240M+01801REMSYN074AAXX  29121 67687 32580 71404 10166 20118 875// 333 87620 555 10180 29048;
0138676870999992000063006004-15770+035300FM-12+114199999V0201201N004010042019N0300001N1+01151+01071999999ADDAA124001091GF106991061051004501001001KA1120N+01081REMSYN076AAXX  30061 67687 12480 61204 10115 20107 60014 86500 333 010// 20108 55028;
0177676870999992000070306004-15770+035300FM-12+114199999V0201401N004010045019N0300001N1+01201+01101999999ADDAA124000591GA1071+004509059GF107991071051004501999999KA1120N+01111OA150600701REMSYN088AAXX  03061 67687 12480 71404 10120 20110 69964 875// 333 010// 20111 55075 70006 87615;
0148676870999992000070312004-15770+035300FM-12+114199999V0201401N004010075019N0300001N1+02201+01201999999ADDAA199000091GA1061+007509089GF107991061021008001031001REMSYN064AAXX  03121 67687 32580 71404 10220 20120 86230 333 86825 84360;EQDQ01  00002PRCP99
0205676870999992000081406004-15770+035030FM-12+114199999V0201801N006010009019N0150001N1+01201+01151999999ADDAA124000791AY151061AY221061GA1051+000909079GF107991071071002501999999KA1120N+01131MW1511OA150600801REMSYN094AAXX  14061 67687 11365 71806 10120 20115 69904 75152 877// 333 20113 55089 79999 85703 87615;
0142676870999992000081512004-15770+035030FM-12+114199999V0201701N004010075019N0300001N1+01641+01121999999ADDAA199000091GA1071+007509059GF107991071051008001999999REMSYN058AAXX  15121 67687 32580 71704 10164 20112 875// 333 87625;EQDQ01  00002PRCP99
0184676870999992000081606004-15770+035030FM-12+114199999V0201501N004010045019N0300001N1+01351+01001999999ADDAA199000091GA1071+004509059GF107991071051004501999999KA1120N+01101OA150600501REMSYN076AAXX  16061 67687 32480 71504 10135 20100 875// 333 010// 20110 55052 87615;EQDQ01  00002PRCP99
0200676870999992000081706004-15770+035030FM-12+114199999V0201801N003010060019N0300001N1+01351+01191999999ADDAA199000091GA1071+006009059GF107991071051008001999999KA1120N+01181OA150699999REMSYN076AAXX  17061 67687 32580 71803 10135 20119 875// 333 010// 20118 55803 87620;EQDQ01  00002PRCP99Q02  08003WGOSPD
0142676870999992000081712004-15770+035030FM-12+114199999V0201701N002010075019N0300001N1+01911+01171999999ADDAA199000091GA1051+007509029GF105991051021008001001001REMSYN058AAXX  17121 67687 32580 51702 10191 20117 85200 333 85825;EQDQ01  00002PRCP99
0184676870999992000081806004-15770+035030FM-12+114199999V0209999C000012200019N0300001N1+01751+01261999999ADDAA199000091GA1031+030009079GF103991031001999999031001KA1120N+01151OA150600801REMSYN076AAXX  18061 67687 32980 30000 10175 20126 83030 333 011// 20115 55083 83360;EQDQ01  00002PRCP99
0178676870999992000082106004-15770+035030FM-12+114199999V0201601N002012200019N0300001N1+01551+01301999999ADDAA199000091GA1041+006009059GF104991041051008001001001KA1120N+01251OA150600701REMSYN070AAXX  21061 67687 32580 41602 10155 20130 84500 333 20125 55077 84620;EQDQ01  00002PRCP99
0148676870999992000082512004-15770+035030FM-12+114199999V0201401N003010090019N0300001N1+01981+01301999999ADDAA199000091GA1061+009009089GF107991061021012501031001REMSYN064AAXX  25121 67687 32680 71403 10198 20130 86230 333 86830 84360;EQDQ01  00002PRCP99
0148676870999992000082812004-15770+035030FM-12+114199999V0209999C000010075019N0300001N1+01891+01091999999ADDAA199000091GA1071+007509059GF107991071051008001999999REMSYN064AAXX  28121 67687 32580 70000 10189 20109 3//// 875// 333 87625;EQDQ01  00002PRCP99
0170676870999992000083012004-15770+035030FM-12+114199999V0201301N002010120019N0200001N1+02361+01001999999ADDAA199000091AY121061AY221061GA1051+012009029GF107991051021012501031081MW1051REMSYN064AAXX  30121 67687 31670 71302 10236 20100 70522 85238 333 85840;EQDQ01  00002PRCP99
0170676870999992000090112004-15770+035030FM-12+114199999V0201201N002012200019N0200001N1+02651+00491999999ADDAA199000091AY101061AY201061GA1021+013509029GF102991021011012501001001MW1051REMSYN064AAXX  01121 67687 31670 21202 10265 20049 70500 82100 333 82845;EQDQ01  00002PRCP99
0183676870999992000090206004-15770+035030FM-12+114199999V0201101N006012200019N0150001N1+02001+00981999999ADDAA199000091AY101061AY201061GA1001+999999999GF100991001001999999001001KA1120N+01751MW1051REMSYN064AAXX  02061 67687 31965 01106 10200 20098 70500 333 20175 55093;EQDQ01  00002PRCP99
0183676870999992000090406004-15770+035030FM-12+114199999V0200801N006012200019N0150001N1+02111+01271999999ADDAA199000091AY101061AY201061GA1001+999999999GF100991001001999999001001KA1120N+01781MW1051REMSYN064AAXX  04061 67687 31965 00806 10211 20127 70500 333 20178 55092;EQDQ01  00002PRCP99
0170676870999992000090612004-15770+035030FM-12+114199999V0200701N003010135019N0200001N1+02721+01011999999ADDAA199000091AY121061AY221061GA1061+013509029GF106991061021012501031001MW1051REMSYN064AAXX  06121 67687 31670 60703 10272 20101 70522 86230 333 86845;EQDQ01  00002PRCP99
0183676870999992000090706004-15770+035030FM-12+114199999V0200801N003012200019N0200001N1+02071+01111999999ADDAA199000091AY101061AY201061GA1001+999999999GF100991001001999999001001KA1120N+01701MW1051REMSYN064AAXX  07061 67687 31970 00803 10207 20111 70500 333 20170 55109;EQDQ01  00002PRCP99
0154676870999992000090712004-15770+035030FM-12+114199999V0201101N003012200019N0200001N1+02831+00911999999ADDAA199000091AY101061AY201061GA1001+999999999GF100991001001999999001001MW1051REMSYN048AAXX  07121 67687 31970 01103 10283 20091 70500;EQDQ01  00002PRCP99
0206676870999992000091206004-15770+035030FM-12+114199999V0200901N004012200019N0200001N1+01851+01431999999ADDAA199000091AY111061AY211061GA1031+007509059GF103991031051008001001001KA1120N+01601MW1051OA150601001REMSYN076AAXX  12061 67687 31570 30904 10185 20143 70511 83500 333 20160 55107 83625;EQDQ01  00002PRCP99
0176676870999992000091212004-15770+035030FM-12+114199999V0201301N004010135019N0200001N1+02031+01321999999ADDAA199000091AY111061AY211061GA1061+013509089GF107991061021012501031001MW1051REMSYN070AAXX  12121 67687 31670 71304 10203 20132 70511 86230 333 86845 83360;EQDQ01  00002PRCP99
0206676870999992000091306004-15770+035030FM-12+114199999V0200601N003012200019N0200001N1+01881+01431999999ADDAA199000091AY101061AY201061GA1011+007509059GF101991011051008001001001KA1120N+01451MW1051OA150600701REMSYN076AAXX  13061 67687 31570 10603 10188 20143 70500 81500 333 20145 55075 81625;EQDQ01  00002PRCP99
0176676870999992000091412004-15770+035030FM-12+114199999V0201401N002010135019N0200001N1+02851+00721999999ADDAA199000091AY111061AY211061GA1061+013509029GF106991061021012501031001MW1051REMSYN070AAXX  14121 67687 31670 61402 10285 20072 3//// 70511 86230 333 86845;EQDQ01  00002PRCP99
0170676870999992000091512004-15770+035030FM-12+114199999V0201401N003010135019N0200001N1+02741+01091999999ADDAA199000091AY111061AY211061GA1061+013509029GF107991061021012501031001MW1051REMSYN064AAXX  15121 67687 31670 71403 10274 20109 70511 86230 333 86845;EQDQ01  00002PRCP99
0200676870999992000091806004-15770+035030FM-12+114199999V0200901N005012200019N0150001N1+02051+01111999999ADDAA199000091AY101061AY201061GA1011+009009029GF101991999999012501999999KA1120N+01411MW1051OA150601001REMSYN070AAXX  18061 67687 31665 10905 10205 20111 70500 333 20141 55100 81830;EQDQ01  00002PRCP99
0170676870999992000091912004-15770+035030FM-12+114199999V0200701N004010135019N0200001N1+02621+01211999999ADDAA199000091AY121061AY221061GA1051+013509029GF106991051021012501031001MW1051REMSYN064AAXX  19121 67687 31670 60704 10262 20121 70522 85230 333 85845;EQDQ01  00002PRCP99
0206676870999992000092106004-15770+035030FM-12+114199999V0201601N006010060019N0150001N1+01601+01281999999ADDAA199000091AY121061AY221061GA1051+006009059GF105991051051008001001001KA1120N+01341MW1051OA150601001REMSYN076AAXX  21061 67687 31565 51606 10160 20128 70522 85500 333 20134 55105 85620;EQDQ01  00002PRCP99
0175676870999992000092206004-15770+035030FM-12+114199999V0201601N005012200019N0200001N1+01601+01271999999ADDAA199000091GF102991021051008001001001MA1999999089571OA150601001REMSYN081AAXX  22061 67687 31570 21605 10160 20127 38957 48/// 82500 333 2010 55107 82620;EQDQ01  00002PRCP99
0227676870999992000092506004-15770+035030FM-12+114199999V0200701N004012200019N0150001N1+02041+01421999999ADDAA199000091AY101061AY201061GA1011+006009059GF101991011051008001001001KA1120N+01311MA1999999099391MW1051OA150600501REMSYN082AAXX  25061 67687 31565 10704 10204 20142 39939 70500 81500 333 20131 55055 81620;EQDQ01  00002PRCP99
0203676870999992000092612004-15770+035030FM-12+114199999V0200201N002010135019N0200001N1+02781+01101999999ADDAA199000091AY111061AY211061GA1061+013509089GF107991061021012501031001MA1999999089251MW1051REMSYN082AAXX  26121 67687 31670 70202 10278 20110 38925 48/// 70511 86230 333 86845 84360;EQDQ01  00002PRCP99
0235676870999992000092806004-15770+035030FM-12+114199999V0200601N003012200019N0150001N1+02051+01071999999ADDAA199000091AY101061AY201061GA1001+999999999GF100991001001999999001001KA1120N+01381MA1999999089541MD1999999-0161MW1051OA150600601REMSYN076AAXX  28061 67687 31965 00603 10205 20107 38954 70500 333 20138 55067 59016;EQDQ01  00002PRCP99
0211676870999992000092812004-15770+035030FM-12+114199999V0200601N002010135019N0200001N1+02401+00821999999ADDAA199000091AY121061AY221061GA1061+013509029GF106991061021012501001001MA1999999089331MD1999999+0081MW1051REMSYN076AAXX  28121 67687 31670 60602 10240 20082 38933 70522 86200 333 58008 86845;EQDQ01  00002PRCP99
0265676870999992000103106004-15770+035030FM-12+114199999V0201601N002010009019N0060001N1+01741+01701999999ADDAA124031091AY141061AY221061GA1051+000909079GF108991071061001501999999KA1120N+01381MA1999999089311MD1999999+0151MW1441OA150699999REMSYN106AAXX  31061 67687 11256 81602 10174 20170 38931 60314 74442 876// 333 20138 55019 58015 70309 85703 88610;EQDQ01  00102WGOSPD
0217676870999992000103112004-15770+035030FM-12+114199999V0201501N00201001201CN0080001N1+01921+01731999999ADDAA199000091AY121061AY221061GA1041+000909079GF108991071061001501999999MA1999999089161MD1999999+0231MW1401REMSYN082AAXX  31121 67687 31258 81502 10192 20173 38916 74022 876// 333 58023 84703 88615;EQDQ01  00002PRCP99
0231676870999992000110106004-15770+035030FM-12+114199999V0201501N003010060019N0300001N1+01771+01731999999ADDAA124002091GA1071+006009059GF107991071051008001999999KA1120N+01601MA1999999089251MD1999999-0061OA150699999REMSYN094AAXX  01061 67687 12580 71503 10177 20173 38925 60024 875// 333 20160 55000 59006 70021 87620;EQDQ01  00002WGOSPD
0219676870999992000110306004-15770+035030FM-12+114199999V0200801N002010300019N0300001N1+02251+01591999999ADDAA199000091GA1071+030009079GF107991071001999999031999KA1120N+02061MA1999999088941MD1999999-0121OA150600401REMSYN082AAXX  03061 67687 32980 70802 10225 20159 38894 8703/ 333 20206 55047 59012 87360;EQDQ01  00002PRCP99
0211676870999992000110312004-15770+035030FM-12+114199999V0209999C000010120019N0300001N1+02511+01841999999ADDAA199000091GA1051+012009089GA2011+999999099GF107991051021012501031081MA1999999088651MD1999999-0051REMSYN082AAXX  03121 67687 32680 70000 10251 20184 38865 85238 333 59005 85840 819// 87280;EQDQ01  00002PRCP99
0218676870999992000110906004-15770+035030FM-12+114199999V0200801N00301045001CN0300001N1+02001+01701999999ADDAA124004191GA1031+006009069GF107991031051008001031999KA1120N+01731MA1999999089051MD1999999-0151OA150600301REMSYN100AAXX  09061 67687 12580 70803 10200 20170 38905 60044 8353/ 333 20173 55039 59015 70035 83620 87360;
0189676870999992000110912004-15770+035030FM-12+114199999V0200801N003010135019N0300001N1+02551+01811999999ADDAA199000091GA1061+013509089GF107991061021012501031001MA1999999088631MD1999999-0301REMSYN076AAXX  09121 67687 32680 70803 10255 20181 38863 86230 333 59030 86845 819//;EQDQ01  00002PRCP99
0243676870999992000111106004-15770+035030FM-12+114199999V0200601N00401045001CN0300001N1+02101+01891999999ADDAA124007191GA1031+007509069GF107991031051008001031999KA1120N+01801MA1999999089021MD1999999+0061OA150699999REMSYN106AAXX  11061 67687 12580 70604 10210 20189 38902 48/// 60074 8353/ 333 20180 55015 58006 70074 83625 87360;EQDQ01  00102WGOSPD
0185676870999992000111306004-15770+035030FM-12+114199999V0209999C000010060019N0300001N1+01951+01881999999ADDAA124003091GA1071+006009059GF107991071051008001999999KA1120N+01931MD1999999-0081OA150600301REMSYN082AAXX  13061 67687 12580 70000 10195 20188 60034 875// 333 20193 55034 59008 87620;
0218676870999992000111406004-15770+035030FM-12+114199999V0209999C000012200019N0300001N1+02181+01841999999ADDAA124024991GA1011+007509089GF104991011011008001031001KA1120N+01751MA1999999088881MD1999999-0071OA150600401REMSYN100AAXX  14061 67687 12580 40000 10218 20184 38888 60254 81130 333 20175 55041 59007 70254 81825 83360;
0239676870999992000111512004-15770+035030FM-12+114199999V0209999C000010105019N0200001N1+02451+02091999999ADDAA199000091AY191061AY221061GA1011+009009099GA2051+010509089GF107991061091012501071999MA1999999088741MD1999999+0091MW1171REMSYN088AAXX  15121 67687 31670 70000 10245 20209 38874 71792 8697/ 333 58009 81930 85835 87460;EQDQ01  00002PRCP99
0218676870999992000111606004-15770+035030FM-12+114199999V0209999C000012200019N0300001N1+02201+01831999999ADDAA124003091GA1031+030009079GF103991031001999999031001KA1120N+01801MA1999999088931MD1999999+0021OA150600301REMSYN100AAXX  16061 67687 12980 30000 10220 20183 38893 48/// 60034 83030 333 20180 55032 58002 70031 83360;
0204676870999992000111806004-15770+035030FM-12+114199999V0209999C00001045001CN0300001N1+02101+01891999999ADDAA199000091GA1031+009009089GF106991031021012501031001KA1120N+01751MD1999999-0231OA150600701REMSYN082AAXX  18061 67687 32680 60000 10210 20189 83230 333 20175 55077 59023 83830 85360;EQDQ01  00002PRCP99
0225676870999992000112106004-15770+035030FM-12+114199999V0203601N00201045001CN0300001N1+02201+01821999999ADDAA199000091GA1011+007509089GF107991011011008001031081KA1120N+01871MA1999999088721MD1999999+0021OA150600501REMSYN088AAXX  21061 67687 32580 73602 10220 20182 38872 81138 333 20187 55059 58002 81825 87280;EQDQ01  00002PRCP99
0169676870999992000112212004-15770+035030FM-12+114199999V0201401N002010120019N0300001N1+02451+01701999999ADDAA199000091GA1061+012009089GF107991061021012501031081MA1999999088891REMSYN070AAXX  22121 67687 32680 71402 10245 20170 38889 86238 333 86840 87280;EQDQ01  00002PRCP99
0135676870999992000112812004-15770+035030FM-12+114199999V0209999C000010075019N0100001N1+02201+01991999999ADDAY191061AY221061GF107991061091008001071999MA1999999089111MW1951REMSYN060AAXX  28121 67687 41560 70000 10220 20199 38911 79592 8697/;
0190676870999992000120506004-15770+035030FM-12+114199999V0200301N003012200019N0300001N1+02201+01911999999ADDAA124032091GA1041+007509029GF199999041011008001031021KA1120N+01801OA150600601REMSYN082AAXX  05061 67687 12580 20303 10220 20191 60324 84132 333 20180 55067 70315 84825;EQDQ01+000022SCOTCV
0170676870999992000120512004-15770+035030FM-12+114199999V0209999C000010105019N0300001N1+02451+02011999999ADDAA199000091GA1061+010509089GA2011+999999099GF107991061021012501031081REMSYN070AAXX  05121 67687 32680 70000 10245 20201 86238 333 86835 819// 87280;EQDQ01  00002PRCP99
0222676870999992000120606004-15770+035030FM-12+114199999V0209999C000010300019N0300001N1+02101+01951999999ADDAA124023991GA1041+006009069GA2071+030009049GF107991041051008001071999KA1240M+02501KA2120N+01851OA150600201REMSYN104AAXX  06061 67687 12580 70000 10210 20195 60244 8457/ 333 20185 55027 70239 84620 87460 555 10250 7//96;
0187676870999992000120712004-15770+035030FM-12+114199999V0209999C000010105019N0300001N1+02531+01901999999ADDAY191061AY261061GA1061+010509089GF107991061021012501031031MA1999999088981MD1999999-0061MW1291REMSYN082AAXX  07121 67687 41680 70000 10253 20190 38898 72996 86233 333 59006 86835 819//;
0241676870999992000120806004-15770+035030FM-12+114199999V0200301N003012200019N0300001N1+02301+01871999999ADDAA124000791GA1011+007509089GF102991011011008001031001KA1240M+02551KA2120N+01921MA1999999089171MD1999999-0061OA150600401REMSYN110AAXX  08061 67687 12580 20303 10230 20187 38917 69904 81130 333 20192 55047 59006 79999 81825 555 10255 7//96;
0247676870999992000121206004-15770+035030FM-12+114199999V0203601N004010300019N0300001N1+02401+01721999999ADDAA199000091GA1021+010509089GA2031+030009039GF107991021011012501031081KA1120N+02051MA1999999088921MD1999999-0181OA150600801REMSYN094AAXX  12061 67687 32680 73604 10240 20172 38892 82138 333 20205 55082 59018 82835 83360 87280;EQDQ01  00002PRCP99
0239676870999992000121212004-15770+035030FM-12+114199999V0200501N003010120019N0200001N1+02611+02001999999ADDAA199000091AY191061AY221061GA1011+010509099GA2061+012009089GF107991061091012501031081MA1999999088751MD1999999-0061MW1171REMSYN088AAXX  12121 67687 31670 70503 10261 20200 38875 71792 86938 333 59006 81935 86840 87280;EQDQ01  00002PRCP99
0240676870999992000121306004-15770+035030FM-12+114199999V0201601N004010009019N0080001N1+02001+01931999999ADDAA124000791AY121061AY221061GA1051+000909079GF107991071071001501999999KA1120N+01901MA1999999088961MD1999999+0041MW1501OA150600601REMSYN100AAXX  13061 67687 11258 71604 10200 20193 38896 69904 75022 877// 333 20190 55067 58004 85703 87615;
0246676870999992000121406004-15770+035030FM-12+114199999V0209999C000010009019N0060001N1+01701+01701999999ADDAA124026991AY151061AY221061GA1051+000909079GF108991081071001501999999KA1120N+01651MA1999999089161MD1999999+0201MW1511OA150600001REMSYN106AAXX  14061 67687 11256 80000 10170 20170 38916 60274 75152 887// 333 20165 55000 58020 70269 85703 88615;
0161676870999992000121412004-15770+035030FM-12+114199999V0209999C000010045019N0150001N1+02001+01731999999ADDAY151061AY221061GA1081+004509059GF108991081051004501999999MA1999999088951MW1511REMSYN070AAXX  14121 67687 41465 80000 10200 20173 38895 75152 885// 333 88615;
0265676870999992000121506004-15770+035030FM-12+114199999V0200601N00301045001CN0200001N1+01851+01701999999ADDAA124000591AY151061AY221061GA1041+004509069GF107991041051004501071999KA1120N+01701MA1999999089231MD1999999+0071MW1201OA150699999REMSYN106AAXX  15061 67687 11470 70603 10185 20170 38923 69964 72052 8457/ 333 20170 55001 58007 70006 84615 87460;EQDQ01  00002WGOSPD
0183676870999992000121512004-15770+035030FM-12+114199999V0201701N007010105019N0300001N1+02071+01811999999ADDAA199000021GA1071+010509029GF199999071081012501999999MA1999999089091MD1999999+0141REMSYN070AAXX  15121 67687 32680 61707 10207 20181 38909 878// 333 58014 87835;EQDQ01+000062SCOTCV
0199676870999992000121806004-15770+035030FM-12+114199999V0203601N003010090019N0300001N1+02301+02011999999ADDAA199000091GA1051+009009029GF105991051011012501001001KA1120N+01811MA1999999089231OA150600801REMSYN076AAXX  18061 67687 32680 53603 10230 20201 38923 85100 333 20181 55080 85830;EQDQ01  00002PRCP99
0169676870999992000121812004-15770+035030FM-12+114199999V0200601N003010135019N0300001N1+02551+02051999999ADDAA199000091GA1061+013509089GF107991061021012501031001MA1999999089011REMSYN070AAXX  18121 67687 32680 70603 10255 20205 38901 86230 333 86845 84360;EQDQ01  00002PRCP99
0251676870999992000121906004-15770+035030FM-12+114199999V0200301N002010900019N0300001N1+02401+02061999999ADDAA199000091GA1031+010509089GA2071+090009029GF107991031021012501031081KA1120N+01951MA1999999089121MD1999999-0111OA150600901REMSYN098AAXX  19061 67687 32680 70302 10240 20206 38912 83238 333 20195 55096 59011 83835 87280 555 7//11;EQDQ01  00002PRCP99
0239676870999992000121912004-15770+035030FM-12+114199999V0202101N004010120019N0200001N1+02671+02171999999ADDAA199000091AY191061AY221061GA1011+010509099GA2061+012009089GF107991061091012501071999MA1999999088871MD1999999-0141MW1171REMSYN088AAXX  19121 67687 31670 72104 10267 20217 38887 71792 8697/ 333 59014 81935 86840 87460;EQDQ01  00002PRCP99
0292676870999992000122006004-15770+035030FM-12+114199999V0200301N004010300019N0300001N1+02351+01991999999ADDAA199000091GA1031+010509089GA2051+030009039GA3071+090009029GF107991031011012501031081KA1240M+02801KA2120N+02001MA1999999089021MD1999999-0101OA150600701REMSYN110AAXX  20061 67687 32680 70304 10235 20199 38902 83138 333 20200 55070 59010 83835 85360 87280 555 10280 7//92;EQDQ01  00002PRCP99
0189676870999992000122012004-15770+035030FM-12+114199999V0209999C000010135019N0300001N1+02691+02051999999ADDAA199000091GA1061+013509089GF107991061021012501031081MA1999999088771MD1999999-0101REMSYN076AAXX  20121 67687 32680 70000 10269 20205 38877 86238 333 59010 86845 87280;EQDQ01  00002PRCP99
0225676870999992000122106004-15770+035030FM-12+114199999V0200901N00401045001CN0300001N1+02351+02061999999ADDAA199000091GA1041+010509089GF107991041011012501031081KA1120N+02001MA1999999089001MD1999999-0021OA150600901REMSYN088AAXX  21061 67687 32680 70904 10235 20206 38900 84138 333 20200 55095 59002 84835 87280;EQDQ01  00002PRCP99
0239676870999992000122112004-15770+035030FM-12+114199999V0209999C000010120019N0200001N1+02631+02001999999ADDAA199000091AY191061AY221061GA1011+010509099GA2061+012009089GF107991061091012501071999MA1999999088721MD1999999-0051MW1171REMSYN088AAXX  21121 67687 31670 70000 10263 20200 38872 71792 8697/ 333 59005 81935 86840 87460;EQDQ01  00002PRCP99
0276676870999992000122206004-15770+035030FM-12+114199999V0209999C00001090001CN0300001N1+02351+01991999999ADDAA199000091GA1041+009009089GA2071+090009029GF107991041011012501031081KA1240M+02851KA2120N+01951MA1999999089051MD1999999+0051OA150600601REMSYN110AAXX  22061 67687 32680 70000 10235 20199 38905 84138 333 20195 55068 58005 58005 84830 87280 555 10285 7//92;EQDQ01  00002PRCP99
0192676870999992000122406004-15770+035030FM-12+114199999V0209999C000010060019N0300001N1+01951+01881999999ADDAA124019191GA1081+006009059GF108991081051008001999999KA1120N+01751MA1999999088921OA150600001REMSYN088AAXX  24061 67687 12580 80000 10195 20188 38892 60194 885// 333 20175 55000 70192 88620;
0192676870999992000122806004-15770+035030FM-12+114199999V0200401N002010060019N0300001N1+02061+01841999999ADDAA124006191GA1071+006009059GF107991071051008001999999KA1120N+01801MA1999999089201OA150600301REMSYN088AAXX  28061 67687 12580 70402 10206 20184 38920 60064 875// 333 20180 55037 70059 87620;
0218676870999992000122906004-15770+035030FM-12+114199999V0209999C00001045001CN0300001N1+02211+01991999999ADDAA124000791GA1041+007509069GF107991041051008001031999KA1120N+01811MA1999999088991MD1999999-0211OA150600401REMSYN100AAXX  29061 67687 12580 70000 10221 20199 38899 69904 8453/ 333 20181 55045 59021 79999 84625 87360;
0222676870999992000123006004-15770+035030FM-12+114199999V0209999C000010900019N0300001N1+02301+02101999999ADDAA124005191GA1041+010509029GA2071+090009089GF107991041011012501031081KA1999N+01791MA1999999088881MD1999999-0101REMSYN099AAXX  30061 67687 12680 70000 10230 20210 38888 60054 84138333 20179 55016 59010 70050 84835 87280;
