0183683000999992000010100004-26630+015100FM-12+000099999V0201401N007712200019N0040001N1+01951+01131101421ADDAA106000091GA1001+999999999GF100991001001999999001001MA1999999101241MD1410001+9999REMSYN070AAXX  01004 68300 32940 01415 10195 20113 30124 40142 54015 555 91014;EQDQ01  00002PRCP06
0153683000999992000010103004-26630+015100FM-12+000099999V0201801N007712200019N0300001N1+01801+01061101381ADDGA1001+999999999GF100991001001999999001001MA1999999101201MD1810071+9999REMSYN070AAXX  01034 68300 42980 01815 10180 20106 30120 40138 58007 555 91013;
0138683000999992000010109004-26630+015100FM-12+000099999V0201801N001512200019N0200001N1+02001+00971101491ADDGA1001+999999999GF100991001001999999001001MD1410001+9999REMSYN070AAXX  01094 68300 42970 01803 10200 20097 3//// 40149 54000 555 91014;
0191683000999992000010112004-26630+015100FM-12+000099999V0201801N009812200019N0200001N1+02451+00881101401ADDAA106000091GA1001+999999999GF100991001001999999001001KA1120N+02051MD1710071+9999REMSYN080AAXX  01124 68300 32970 01819 10245 20088 3//// 40140 57007 333 20205 555 91014;EQDQ01  00002PRCP06
0153683000999992000010115004-26630+015100FM-12+000099999V0201801N014412200019N0750001N1+02261+00921101281ADDGA1001+999999999GF100991001001999999001001MA1999999101101MD1710131+9999REMSYN070AAXX  01154 68300 42989 01828 10226 20092 30110 40128 57013 555 91012;
0206683000999992000010118004-26630+015100FM-12+000099999V0201801N013412200019N0100001N1+01971+00911101391ADDAA106000091GA1001+999999999GF100991001001999999001001KA1120M+02521MA1999999101211MD1310111+9999REMSYN080AAXX  01184 68300 32960 01826 10197 20091 30121 40139 53011 333 10252 555 91013;EQDQ01  00002PRCP06
0153683000999992000010121004-26630+015100FM-12+000099999V0201801N013412200019N0040001N1+01901+01071101621ADDGA1001+999999999GF100991001001999999001001MA1999999101441MD1210201+9999REMSYN070AAXX  01214 68300 42940 01826 10190 20107 30144 40162 52020 555 91016;
0168683000999992000010200004-26630+015100FM-12+000099999V0201801N011812200019N0200001N1+01871+01031101481ADDAA106000091GA1001+999999999GF100991001001999999001001MD1810141+9999REMSYN070AAXX  02004 68300 32970 01823 10187 20103 3//// 40148 58014 555 91014;EQDQ01  00002PRCP06
0138683000999992000010203004-26630+015100FM-12+000099999V0201801N009312200019N0200001N1+01751+00881101401ADDGA1001+999999999GF100991001001999999001001MD1810081+9999REMSYN070AAXX  02034 68300 42970 01818 10175 20088 3//// 40140 58008 555 91014;
0210683000999992000010206004-26630+015100FM-12+000099999V0201801N009312200019N0200001N1+01801+01721101431ADDAA106000091GA1001+999999999GF100991001001999999001001KA1240M+02501KA2120N+01751MD1210031+9999REMSYN086AAXX  02064 68300 32970 01818 10180 20172 3//// 40143 52003 333 20175 555 10250 91014;EQDQ01  00002PRCP06
0138683000999992000010209004-26630+015100FM-12+000099999V0201801N010312200019N0150001N1+02471+01531101261ADDGA1001+999999999GF100991001001999999001001MD1310061+9999REMSYN070AAXX  02094 68300 42965 01820 10247 20153 3//// 40126 53006 555 91012;
0206683000999992000010212004-26630+015100FM-12+000099999V0201801N020612200019N0750001N1+02551+02401101131ADDAA106000091GA1001+999999999GF100991001001999999001001KA1120N+01901MA1999999100961MD1710071+9999REMSYN080AAXX  02124 68300 32789 01840 10255 20240 30096 40113 57007 333 20190 555 91011;EQDQ01  00002PRCP06
0181683000999992000010215004-26630+015100FM-12+000099999V0201801N018512200019N0200001N1+02301+01341100971ADDAY101031AY201031GA1001+999999999GF100991001001999999001001MA1999999100801MD1710161+9999MW1301REMSYN076AAXX  02154 68300 41970 01836 10230 20134 30080 40097 57016 73000 555 91009;
0206683000999992000010218004-26630+015100FM-12+000099999V0201801N014412200019N0750001N1+02021+01361101061ADDAA106000091GA1001+999999999GF100991001001999999001001KA1120M+02611MA1999999100881MD1310081+9999REMSYN080AAXX  02184 68300 32989 01828 10202 20136 30088 40106 53008 333 10261 555 91010;EQDQ01  00002PRCP06
0153683000999992000010221004-26630+015100FM-12+000099999V0201801N014412200019N0040001N1+01971+01221101171ADDGA1001+999999999GF100991001001999999001001MA1999999100991MD1210101+9999REMSYN070AAXX  02214 68300 42940 01828 10197 20122 30099 40117 52010 555 91011;
0168683000999992000010300004-26630+015100FM-12+000099999V0201801N010312200019N0100001N1+01801+00831101041ADDAA106000091GA1001+999999999GF100991001001999999001001MD1810121+9999REMSYN070AAXX  03004 68300 32960 01820 10180 20083 3//// 40104 58012 555 91010;EQDQ01  00002PRCP06
0138683000999992000010303004-26630+015100FM-12+000099999V0201801N008712200019N0200001N1+01901+00581100921ADDGA1001+999999999GF100991001001999999001001MD1810121+9999REMSYN070AAXX  03034 68300 42970 01817 10190 20058 3//// 40092 58012 555 91009;
0210683000999992000010306004-26630+015100FM-12+000099999V0201801N001512200019N0200001N1+01901+01181101001ADDAA106000091GA1001+999999999GF100991001001999999001001KA1240M+02611KA2120N+01501MD1210081+9999REMSYN086AAXX  03064 68300 32970 01803 10190 20118 3//// 40100 52008 333 20150 555 10261 91009;EQDQ01  00002PRCP06
0206683000999992000010312004-26630+015100FM-12+000099999V0203601N005112200019N0750001N1+01851+01321100941ADDAA106000091GA1001+999999999GF100991001001999999001001KA1120N+01801MA1999999100761MD1410001+9999REMSYN080AAXX  03124 68300 32989 03610 10185 20132 30076 40094 54000 333 20180 555 91009;EQDQ01  00002PRCP06
0196683000999992000010318004-26630+015100FM-12+000099999V0203601N004112200019N0050001N1+01571+01521101041ADDAA106000091GF102991021061000751001001KA1120M+02021MA1999999100861MD1310161+9999REMSYN086AAXX  03184 68300 32150 23608 10157 20152 30086 40104 53016 82600 333 10202 555 91010;EQDQ01  00002PRCP06
0153683000999992000010321004-26630+015100FM-12+000099999V0203601N004112200019N0040001N1+01601+01421101141ADDGA1001+999999999GF100991001001999999001001MA1999999100961MD1210121+9999REMSYN070AAXX  03214 68300 42940 03608 10160 20142 30096 40114 52012 555 91011;
0168683000999992000010400004-26630+015100FM-12+000099999V0203601N003112200019N0040001N1+01551+01371100871ADDAA106000091GA1001+999999999GF100991001001999999001001MD1810091+9999REMSYN070AAXX  04004 68300 32940 03606 10155 20137 3//// 40087 58009 555 91018;EQDQ01  00002PRCP06
0196683000999992000010403004-26630+015100FM-12+000099999V0203601N004110003019N0003001N1+01301+01301100791ADDAA106000091AY101031AY201031GA1091+999999999GF109991091999999999999999MD1710081+9999MW1451REMSYN076AAXX  04034 68300 31/03 93608 10130 20130 3//// 40079 57008 74500 555 91007;EQDQ01  00002PRCP06
0238683000999992000010406004-26630+015100FM-12+000099999V0203601N004110003019N0004001N1+01301+01301101171ADDAA106000091AY141061AY201061GA1091+999999999GF109991091999999999999999KA1240M+02151KA2120N+01301MD1210101+9999MW1451REMSYN092AAXX  04064 68300 31/04 93608 10130 20130 3//// 40117 52010 74540 333 20130 555 10215 91011;EQDQ01  00002PRCP06
0156683000999992000010409004-26630+015100FM-12+000099999V0203601N003110006019N0050001N1+01501+01321101241ADDAY141031AY201031GF108991081061000751999999MD1210071+9999MW1401REMSYN082AAXX  04094 68300 41150 83606 10150 20132 3//// 40124 52007 74040 886// 555 91012;
0209683000999992000010412004-26630+015100FM-12+000099999V0203601N003110006019N0060001N1+01651+01481101181ADDAA106000091AY141061AY201061GF108991081061000751999999KA1120N+01301MD1710061+9999MW1401REMSYN092AAXX  04124 68300 31156 83606 10165 20148 3//// 40118 57006 74040 886// 333 20130 555 91011;EQDQ01  00002PRCP06
0171683000999992000010415004-26630+015100FM-12+000099999V0203601N003110006019N0030001N1+01631+01631101091ADDAY141031AY241031GF108991081061000751999999MA1999999100911MD1710091+9999MW1401REMSYN082AAXX  04154 68300 41130 83606 10163 20163 30091 40109 57009 74044 886// 555 91010;
0224683000999992000010418004-26630+015100FM-12+000099999V0203601N003112200019N0040001N1+01801+01631101091ADDAA106000091AY141061AY241061GF102991021061001501001001KA1120M+01851MA1999999100911MD1410001+9999MW1401REMSYN092AAXX  04184 68300 31240 23606 10180 20163 30091 40109 54000 74044 82600 333 10185 555 91010;EQDQ01  00002PRCP06
0183683000999992000010500004-26630+015100FM-12+000099999V0203601N005112200019N0030001N1+01801+01451100941ADDAA106000091GA1001+999999999GF100991001001999999001001MA1999999100761MD1810181+9999REMSYN070AAXX  05004 68300 32930 03610 10180 20145 30076 40094 58018 555 91009;EQDQ01  00002PRCP06
0153683000999992000010503004-26630+015100FM-12+000099999V0203601N005112200019N0030001N1+01781+01381100761ADDGA1001+999999999GF100991001001999999001001MA1999999100581MD1710231+9999REMSYN070AAXX  05034 68300 42930 03610 10178 20138 30058 40076 57023 555 91007;
0225683000999992000010506004-26630+015100FM-12+000099999V0201801N001512200019N0750001N1+01901+01531100971ADDAA106000091GA1001+999999999GF100991001001999999001001KA1240M+01931KA2120N+01441MA1999999100791MD1710211+9999REMSYN086AAXX  05064 68300 32989 01803 10190 20153 30079 40097 57021 333 20144 555 10193 91009;EQDQ01  00002PRCP06
0153683000999992000010509004-26630+015100FM-12+000099999V0201801N005112200019N0750001N1+02411+01431100861ADDGA1001+999999999GF100991001001999999001001MA1999999100691MD1310101+9999REMSYN070AAXX  05094 68300 42989 01810 10241 20143 30069 40086 53010 555 91008;
0196683000999992000010512004-26630+015100FM-12+000099999V0201801N011312200019N0750001N1+02551+01471100741ADDAA106000091GF102991001001999999001051KA1120N+01901MA1999999100571MD1310121+9999REMSYN086AAXX  05124 68300 32989 21822 10255 20147 30057 40074 53012 80005 333 20190 555 91007;EQDQ01  00002PRCP06
0206683000999992000010518004-26630+015100FM-12+000099999V0201801N011319999999N0750001N1+02011+01631100701ADDAA106000091GF105991999999999999999999KA1120M+02661MA1999999100521MD1310802+9999REMSYN080AAXX  05184 68300 32989 51822 10201 20163 30052 40070 5308/ 333 10266 555 97006;EQDQ01+000802APC3  Q02  00002PRCP06
0153683000999992000010521004-26630+015100FM-12+000099999V0201801N011312200019N0050001N1+01851+01511100871ADDGA1001+999999999GF100991001001999999001001MA1999999100691MD1210171+9999REMSYN070AAXX  05214 68300 42950 01822 10185 20151 30069 40087 52017 555 91008;
0138683000999992000010603004-26630+015100FM-12+000099999V0201801N007712200019N0100001N1+01751+01401100751ADDGA1001+999999999GF100991001001999999001001MD1710071+9999REMSYN070AAXX  06034 68300 42960 01815 10175 20140 3//// 40075 57007 555 91007;
0200683000999992000010606004-26630+015100FM-12+000099999V0202701N001512200019N0100001N1+01551+01431100931ADDAA106000091GF104991041061000751001001KA1240M+02661KA2120N+01551MD1210181+9999REMSYN092AAXX  06064 68300 32160 42703 10155 20143 3//// 40093 52018 84600 333 20155 555 10266 91009;EQDQ01  00002PRCP06
0143683000999992000010609004-26630+015100FM-12+000099999V0203601N003112200019N0750001N1+01951+01531101011ADDGF104991001001999999001051MA1999999100831MD1210071+9999REMSYN076AAXX  06094 68300 42989 43606 10195 20153 30083 40101 52007 80005 555 91010;
0196683000999992000010612004-26630+015100FM-12+000099999V0201801N004112200019N0750001N1+02501+01511100901ADDAA106000091GF104991001001999999001051KA1120N+01561MA1999999100731MD1710101+9999REMSYN086AAXX  06124 68300 32989 41808 10250 20151 30073 40090 57010 80005 333 20156 555 91009;EQDQ01  00002PRCP06
0143683000999992000010615004-26630+015100FM-12+000099999V0201801N004112200019N0750001N1+02351+01541100821ADDGF104991001001999999001091MA1999999100651MD1710081+9999REMSYN076AAXX  06154 68300 42989 41808 10235 20154 30065 40082 57008 80009 555 91008;
0153683000999992000010621004-26630+015100FM-12+000099999V0201801N006212200019N0040001N1+01901+01471101241ADDGA1001+999999999GF100991001001999999001001MA1999999101061MD1210231+9999REMSYN070AAXX  06214 68300 42940 01812 10190 20147 30106 40124 52023 555 91012;
0183683000999992000010700004-26630+015100FM-12+000099999V0201801N006212200019N0040001N1+01851+01421101191ADDAA106000091GA1001+999999999GF100991001001999999001001MA1999999101011MD1310201+9999REMSYN070AAXX  07004 68300 32940 01812 10185 20142 30101 40119 53020 555 91011;EQDQ01  00002PRCP06
0153683000999992000010703004-26630+015100FM-12+000099999V0201801N007712200019N0040001N1+01721+01421101091ADDGA1001+999999999GF100991001001999999001001MA1999999100911MD1810101+9999REMSYN070AAXX  07034 68300 42940 01815 10172 20142 30091 40109 58010 555 91010;
0215683000999992000010706004-26630+015100FM-12+000099999V0201801N004112200019N0750001N1+01881+01301101251ADDAA106000091GF101991001001999999001091KA1240M+02671KA2120N+01481MA1999999101071MD1310161+9999REMSYN092AAXX  07064 68300 32989 11808 10188 20130 30107 40125 53016 80009 333 20148 555 10267 91012;EQDQ01  00002PRCP06
0143683000999992000010709004-26630+015100FM-12+000099999V0201801N008212200019N0100001N1+02401+01301101271ADDGF102991001001999999001091MA1999999101101MD1810071+9999REMSYN076AAXX  07094 68300 42960 21816 10240 20130 30110 40127 58007 80009 555 91012;
0196683000999992000010712004-26630+015100FM-12+000099999V0201801N011312200019N0100001N1+02601+01081101171ADDAA106000091GF102991001001999999001091KA1120N+01811MA1999999101001MD1710101+9999REMSYN086AAXX  07124 68300 32960 21822 10260 20108 30100 40117 57010 80009 333 20181 555 91011;EQDQ01  00002PRCP06
0138683000999992000010715004-26630+015100FM-12+000099999V0201801N007712200019N0150001N1+02401+01281101021ADDGA1001+999999999GF100991001001999999001001MD1810131+9999REMSYN070AAXX  07154 68300 42965 01815 10240 20128 3//// 40102 58013 555 91010;
0191683000999992000010718004-26630+015100FM-12+000099999V0201801N010312200019N0150001N1+02101+01411101031ADDAA106000091GA1001+999999999GF100991001001999999001001KA1120M+02651MD1410001+9999REMSYN080AAXX  07184 68300 32965 01820 10210 20141 3//// 40103 54000 333 10265 555 91010;EQDQ01  00002PRCP06
0183683000999992000010800004-26630+015100FM-12+000099999V0201801N005112200019N0100001N1+01951+01431101191ADDAA106000091GA1001+999999999GF100991001001999999001001MA1999999101011MD1310161+9999REMSYN070AAXX  08004 68300 32960 01810 10195 20143 30101 40119 53016 555 91011;EQDQ01  00002PRCP06
0153683000999992000010803004-26630+015100FM-12+000099999V0201801N005112200019N0100001N1+01701+01441100891ADDGA1001+999999999GF100991001001999999001001MA1999999100711MD1710151+9999REMSYN070AAXX  08034 68300 42960 01810 10170 20144 30071 40089 57015 555 91008;
0210683000999992000010806004-26630+015100FM-12+000099999V0201801N005112200019N0100001N1+01671+01371100961ADDAA106000091GA1001+999999999GF100991001001999999001001KA1240M+02651KA2120N+01601MD1310071+9999REMSYN086AAXX  08064 68300 32960 01810 10167 20137 3//// 40096 53007 333 20160 555 10265 91009;EQDQ01  00002PRCP06
0128683000999992000010809004-26630+015100FM-12+000099999V0202301N007212200019N0200001N1+02161+01071100971ADDGF101991001001999999001021MD1210011+9999REMSYN076AAXX  08094 68300 42970 12314 10216 20107 3//// 40097 52001 80002 555 91009;
0191683000999992000010812004-26630+015100FM-12+000099999V0201801N012312200019N0150001N1+02321+01131100931ADDAA106000091GA1001+999999999GF100991001001999999001001KA1120N+01711MD1810031+9999REMSYN080AAXX  08124 68300 32965 01824 10232 20113 3//// 40093 58003 333 20171 555 91009;EQDQ01  00002PRCP06
0153683000999992000010815004-26630+015100FM-12+000099999V0201801N012912200019N0200001N1+02141+01341100911ADDGA1001+999999999GF100991001001999999001001MA1999999100731MD1610031+9999REMSYN070AAXX  08154 68300 42970 01825 10214 20134 30073 40091 56003 555 91009;
0206683000999992000010818004-26630+015100FM-12+000099999V0201801N010312200019N0750001N1+01921+01461101081ADDAA106000091GA1001+999999999GF100991001001999999001001KA1120M+02381MA1999999100901MD1810181+9999REMSYN080AAXX  08184 68300 32989 01820 10192 20146 30090 40108 58018 333 10238 555 91010;EQDQ01  00002PRCP06
0138683000999992000010903004-26630+015100FM-12+000099999V0201801N001512200019N0200001N1+01351+01261101181ADDGA1001+999999999GF100991001001999999001001MD1410001+9999REMSYN070AAXX  09034 68300 42970 01803 10135 20126 3//// 40118 54000 555 91011;
0228683000999992000010906004-26630+015100FM-12+000099999V0201801N003112200019N0040001N1+01341+01301101261ADDAA106000091AY101061AY201061GF102991021061001501001001KA1240M+02381KA2120N+01301MD1310081+9999MW1401REMSYN098AAXX  09064 68300 31240 21806 10134 20130 3//// 40126 53008 74000 82600 333 20130 555 10238 91012;EQDQ01  00002PRCP06
0128683000999992000010909004-26630+015100FM-12+000099999V0203601N003112200019N0100001N1+01661+01361101271ADDGF101991011061000751001001MD1210011+9999REMSYN076AAXX  09094 68300 42160 13606 10166 20136 3//// 40127 52001 81600 555 91012;
0206683000999992000010912004-26630+015100FM-12+000099999V0201801N006212200019N0750001N1+02361+01221101181ADDAA106000091GA1001+999999999GF100991001001999999001001KA1120N+01911MA1999999101011MD1310091+9999REMSYN080AAXX  09124 68300 32989 01812 10236 20122 30101 40118 53009 333 20191 555 91011;EQDQ01  00002PRCP06
0143683000999992000010915004-26630+015100FM-12+000099999V0201801N005112200019N0750001N1+02251+01461101121ADDGF101991011011017501001001MA1999999100941MD1710051+9999REMSYN076AAXX  09154 68300 42789 11810 10225 20146 30094 40112 57005 81100 555 91011;
0238683000999992000010918004-26630+015100FM-12+000099999V0201801N004112200019N0750001N1+02051+01451999999ADDAA106000091GA1001+999999999GF100991001001999999001001KA1120M+02451MA1999999100102MD1210061+9999REMSYN080AAXX  09184 68300 32989 01808 10205 20145 30010 40027 52006 333 10245 555 91002;EQDQ01+100103APOSP Q02+100273APOSLPQ03  00002PRCP06
0168683000999992000011000004-26630+015100FM-12+000099999V0201801N003112200019N0100001N1+01851+01421101161ADDAA106000091GA1001+999999999GF100991001001999999001001MD1710031+9999REMSYN070AAXX  10004 68300 32960 01806 10185 20142 3//// 40116 57003 555 91011;EQDQ01  00002PRCP06
0138683000999992000011003004-26630+015100FM-12+000099999V0201801N003112200019N0100001N1+01801+01261101031ADDGA1001+999999999GF100991001001999999001001MD1610131+9999REMSYN070AAXX  10034 68300 42960 01806 10180 20126 3//// 40103 56013 555 91010;
0143683000999992000011009004-26630+015100FM-12+000099999V0201801N007212200019N0750001N1+02361+01411101001ADDGF101991011061012501001001MA1999999100831MD1810111+9999REMSYN076AAXX  10094 68300 42689 11814 10236 20141 30083 40100 58011 81600 555 91010;
0206683000999992000011012004-26630+015100FM-12+000099999V0201801N011312200019N0750001N1+02401-00012100961ADDAA106000091GA1001+999999999GF100991001001999999001001KA1120N+01301MA1999999100791MD1710041+9999REMSYN080AAXX  10124 68300 32989 01822 10240 21001 30079 40096 57004 333 20130 555 91009;EQDQ01  00002PRCP06
0153683000999992000011015004-26630+015100FM-12+000099999V0201801N012912200019N0750001N1+02301+00341100921ADDGA1001+999999999GF100991001001999999001001MA1999999100751MD1710041+9999REMSYN070AAXX  10154 68300 42989 01825 10230 20034 30075 40092 57004 555 91009;
0206683000999992000011018004-26630+015100FM-12+000099999V0201801N010312200019N0750001N1+02021+01281101011ADDAA106000091GA1001+999999999GF100991001001999999001001KA1120M+02501MA1999999100831MD1210081+9999REMSYN080AAXX  10184 68300 32989 01820 10202 20128 30083 40101 52008 333 10250 555 91010;EQDQ01  00002PRCP06
0153683000999992000011021004-26630+015100FM-12+000099999V0201801N005112200019N0040001N1+01801+01451101181ADDGA1001+999999999GF100991001001999999001001MA1999999101001MD1710071+9999REMSYN070AAXX  10214 68300 42940 01810 10180 20145 30100 40118 57007 555 91011;
0183683000999992000011100004-26630+015100FM-12+000099999V0201801N003112200019N0050001N1+01701+01351101211ADDAA106000091GA1001+999999999GF100991001001999999001001MA1999999101031MD1710101+9999REMSYN070AAXX  11004 68300 32950 01806 10170 20135 30103 40121 57010 555 91012;EQDQ01  00002PRCP06
0243683000999992000011106004-26630+015100FM-12+000099999V0203201N003112200019N0050001N1+01471+01431101321ADDAA106000091AY101061AY201061GF104991041061001501001001KA1240M+02501KA2120N+01401MA1999999101141MD1310161+9999MW1401REMSYN098AAXX  11064 68300 31250 43206 10147 20143 30114 40132 53016 74000 84600 333 20140 555 10250 91013;EQDQ01  00002PRCP06
0162683000999992000011109004-26630+015100FM-12+000099999V0203201N003112200019N0750001N1+01821+01571101351ADDGF104991999061012501001001MA1999999101171MD1210031+9999REMSYN076AAXX  11094 68300 42689 43206 10182 20157 30117 40135 52003 81600 555 91013;EQDQ01+000012SCOTLC
0206683000999992000011112004-26630+015100FM-12+000099999V0201801N011312200019N0750001N1+02401+01361101241ADDAA106000091GA1001+999999999GF100991001001999999001001KA1120N+01981MA1999999101071MD1810101+9999REMSYN080AAXX  11124 68300 32989 01822 10240 20136 30107 40124 58010 333 20198 555 91012;EQDQ01  00002PRCP06
0143683000999992000011115004-26630+015100FM-12+000099999V0201801N005112200019N0750001N1+02451+01541101211ADDGF102991021011017501001001MA1999999101031MD1710041+9999REMSYN076AAXX  11154 68300 42789 21810 10245 20154 30103 40121 57004 82100 555 91012;
0196683000999992000011118004-26630+015100FM-12+000099999V0201801N003112200019N0750001N1+02101+01691101301ADDAA106000091GF101991011011017501001001KA1120M+02501MA1999999101121MD1310091+9999REMSYN086AAXX  11184 68300 32789 11806 10210 20169 30112 40130 53009 81100 333 10250 555 91013;EQDQ01  00002PRCP06
0215683000999992000011200004-26630+015100FM-12+000099999V0201801N001512200019N0050001N1+01781+01281100272ADDAA106000091GA1001+999999999GF100991001001999999001001MA1999999100092MD1210031+9999REMSYN070AAXX  12004 68300 32950 01803 10178 20128 30009 40027 52003 555 91002;EQDQ01+100093APOSP Q02+100273APOSLPQ03  00002PRCP06
0153683000999992000011203004-26630+015100FM-12+000099999V0201801N001512200019N0100001N1+01901+01561101241ADDGA1001+999999999GF100991001001999999001001MA1999999101061MD1310041+9999REMSYN070AAXX  12034 68300 42960 01803 10190 20156 30106 40124 53004 555 91012;
0215683000999992000011206004-26630+015100FM-12+000099999V0201801N008212200019N0750001N1+02401+01301101351ADDAA106000091GF101991011001999999081001KA1240M+02501KA2120N+01901MA1999999101171MD1210111+9999REMSYN092AAXX  12064 68300 32989 11816 10240 20130 30117 40135 52011 81080 333 20190 555 10250 91013;EQDQ01  00002PRCP06
0143683000999992000011209004-26630+015100FM-12+000099999V0202301N011312200019N0750001N1+02451+01641101261ADDGF101991011061012501001001MA1999999101091MD1810081+9999REMSYN076AAXX  12094 68300 42689 12322 10245 20164 30109 40126 58008 81600 555 91012;
0234683000999992000011212004-26630+015100FM-12+000099999V0202301N019512200019N0050001N1+02511+01291101101ADDAA106000091AY101061AY201061GA1001+999999999GF100991001001999999001001KA1120N+02101MA1999999100931MD1710161+9999MW1301REMSYN086AAXX  12124 68300 31950 02338 10251 20129 30093 40110 57016 73000 333 20210 555 91011;EQDQ01  00002PRCP06
0181683000999992000011215004-26630+015100FM-12+000099999V0202301N015412200019N0200001N1+02351+01321101031ADDAY101031AY201031GA1001+999999999GF100991001001999999001001MA1999999100861MD1710091+9999MW1301REMSYN076AAXX  12154 68300 41970 02330 10235 20132 30086 40103 57009 73000 555 91010;
0234683000999992000011218004-26630+015100FM-12+000099999V0202301N015412200019N0040001N1+02001+01401101171ADDAA106000091AY101061AY201061GA1001+999999999GF100991001001999999001001KA1120M+02601MA1999999100991MD1310131+9999MW1301REMSYN086AAXX  12184 68300 31940 02330 10200 20140 30099 40117 53013 73000 333 10260 555 91011;EQDQ01  00002PRCP06
0183683000999992000011300004-26630+015100FM-12+000099999V0201801N003112200019N0050001N1+01851+01321101091ADDAA106000091GA1001+999999999GF100991001001999999001001MA1999999100911MD1310091+9999REMSYN070AAXX  13004 68300 32950 01806 10185 20132 30091 40109 53009 555 91010;EQDQ01  00002PRCP06
0153683000999992000011303004-26630+015100FM-12+000099999V0201801N003112200019N0050001N1+01701+01251100861ADDGA1001+999999999GF100991001001999999001001MA1999999100681MD1210231+9999REMSYN070AAXX  13034 68300 42950 01806 10170 20125 30068 40086 52023 555 91008;
0225683000999992000011306004-26630+015100FM-12+000099999V0201301N009312200019N0750001N1+01801+01281100581ADDAA106000091GA1001+999999999GF100991001001999999001001KA1240M+02601KA2120N+01661MA1999999100401MD1310121+9999REMSYN086AAXX  13064 68300 32989 01318 10180 20128 30040 40058 53012 333 20166 555 10260 91005;EQDQ01  00002PRCP06
0153683000999992000011309004-26630+015100FM-12+000099999V0201301N009312200019N0750001N1+01921+01641100991ADDGA1001+999999999GF100991001001999999001001MA1999999100811MD1210011+9999REMSYN070AAXX  13094 68300 42989 01318 10192 20164 30081 40099 52001 555 91009;
0206683000999992000011312004-26630+015100FM-12+000099999V0201301N013412200019N0750001N1+02821+01281100861ADDAA106000091GA1001+999999999GF100991001001999999001001KA1120N+01821MA1999999100691MD1810121+9999REMSYN080AAXX  13124 68300 32989 01326 10282 20128 30069 40086 58012 333 20182 555 91008;EQDQ01  00002PRCP06
0153683000999992000011315004-26630+015100FM-12+000099999V0201801N010312200019N0750001N1+02851+01341100651ADDGA1001+999999999GF100991001001999999001001MA1999999100481MD1810211+9999REMSYN070AAXX  13154 68300 42989 01820 10285 20134 30048 40065 58021 555 91006;
0206683000999992000011318004-26630+015100FM-12+000099999V0201801N012912200019N0750001N1+02251+01191100731ADDAA106000091GA1001+999999999GF100991001001999999001001KA1120M+02981MA1999999100561MD1310091+9999REMSYN080AAXX  13184 68300 32989 01825 10225 20119 30056 40073 53009 333 10298 555 91007;EQDQ01  00002PRCP06
0157683000999992000011321004-26630+015100FM-12+000099999V0201801N005112200019N0100001N1+01851+01121100941ADDGA1001+999999999GF100991001001999999001001MA1999999100761MD1710201+9999REMSYN074    AAXX  13214 68300 42960 01810 10185 20112 30076 40094 57020 555 91009;
0187683000999992000011400004-26630+015100FM-12+000099999V0201801N005112200019N0100001N1+01901+01381100801ADDAA199000091GA1001+999999999GF100991001001999999001001MA1999999100621MD1210141+9999REMSYN074    AAXX  14004 68300 32960 01810 10190 20138 30062 40080 52014 555 91007;EQDQ01  00002PRCP99
0187683000999992000011403004-26630+015100FM-12+000099999V0201801N003112200019N0750001N1+01751+00991100691ADDAA199000091GA1001+999999999GF100991001001999999001001MA1999999100511MD1310111+9999REMSYN074    AAXX  14034 68300 32989 01806 10175 20099 30051 40069 53011 555 91006;EQDQ01  00002PRCP99
0229683000999992000011406004-26630+015100FM-12+000099999V0203601N001512200019N0750001N1+01751+01101100941ADDAA199000091GA1001+999999999GF100991001001999999001001KA1240M+02981KA2120N+01701MA1999999100761MD1310251+9999REMSYN090    AAXX  14064 68300 32989 03603 10175 20110 30076 40094 53025 333 20170 555 10298 91009;EQDQ01  00002PRCP99
0157683000999992000011409004-26630+015100FM-12+000099999V0203601N005112200019N0750001N1+01781+01281101061ADDGA1001+999999999GF100991001001999999001001MA1999999100881MD1310131+9999REMSYN074    AAXX  14094 68300 42989 03610 10178 20128 30088 40106 53013 555 91010;
0210683000999992000011412004-26630+015100FM-12+000099999V0203601N005112200019N0750001N1+01901+01221100921ADDAA199000091GA1001+999999999GF100991001001999999001001KA1120N+01581MA1999999100741MD1310131+9999REMSYN084    AAXX  14124 68300 32989 03610 10190 20122 30074 40092 53013 333 20158 555 91009;EQDQ01  00002PRCP99
0157683000999992000011415004-26630+015100FM-12+000099999V0201801N010312200019N0750001N1+02351+01421100721ADDGA1001+999999999GF100991001001999999001001MA1999999100551MD1710201+9999REMSYN074    AAXX  14154 68300 42989 01820 10235 20142 30055 40072 57020 555 91007;
0197683000999992000011418004-26630+015100FM-12+000099999V0201801N007712200019N0750001N1+01951+01431100871ADDAA199000091GA1001+999999999GF100991001001999999001001MA1999999100691MD1310131+9999REMSYN084    AAXX  14184 68300 32989 01815 10195 20143 30069 40087 53013 333 10/// 555 91008;EQDQ01  00002PRCP99
0157683000999992000011421004-26630+015100FM-12+000099999V0201801N006212200019N0100001N1+01851+01421101031ADDGA1001+999999999GF100991001001999999001001MA1999999100851MD1210161+9999REMSYN074    AAXX  14214 68300 42960 01812 10185 20142 30085 40103 52016 555 91010;
0187683000999992000011500004-26630+015100FM-12+000099999V0201801N007212200019N0100001N1+01701+01351101001ADDAA199000091GA1001+999999999GF100991001001999999001001MA1999999100821MD1810031+9999REMSYN074    AAXX  15004 68300 32960 01814 10170 20135 30082 40100 58003 555 91009;EQDQ01  00002PRCP99
0157683000999992000011503004-26630+015100FM-12+000099999V0201801N007212200019N0100001N1+01511+01241100921ADDGA1001+999999999GF100991001001999999001001MA1999999100741MD1710081+9999REMSYN074    AAXX  15034 68300 42960 01814 10151 20124 30074 40092 57008 555 91009;
0219683000999992000011506004-26630+015100FM-12+000099999V0201801N005112200019N0750001N1+01651+01291101061ADDAA199000091GF102991021051012501001001KA1240M+02501KA2120N+01501MA1999999100881MD1310141+9999REMSYN096    AAXX  15064 68300 32689 21810 10165 20129 30088 40106 53014 82500 333 20150 555 10250 91010;EQDQ01  00002PRCP99
0187683000999992000011509004-26630+015100FM-12+000099999V0201801N009312200019N0200001N1+02101+01411101141ADDAA199000091GA1001+999999999GF100991001001999999001001MA1999999100961MD1210081+9999REMSYN074    AAXX  15094 68300 32970 01818 10210 20141 30096 40114 52008 555 91011;EQDQ01  00002PRCP99
0200683000999992000011512004-26630+015100FM-12+000099999V0202301N007712200019N0750001N1+02141+01481101141ADDAA199000091GF104991041011017501001001KA1120N+01651MA1999999100961MD1410001+9999REMSYN090    AAXX  15124 68300 32789 42315 10214 20148 30096 40114 54000 84100 333 20165 555 91011;EQDQ01  00002PRCP99
0147683000999992000011515004-26630+015100FM-12+000099999V0201801N007712200019N0200001N1+02151+01571101071ADDGF104991041011000751001001MA1999999100891MD1810071+9999REMSYN080    AAXX  15154 68300 42170 41815 10215 20157 30089 40107 58007 84100 555 91010;
0200683000999992000011518004-26630+015100FM-12+000099999V0202301N003119999999N0750001N1+01961+01561101181ADDAA199000091GF106991061001999999061001KA1120M+02301MA1999999101001MD1310111+9999REMSYN090    AAXX  15184 68300 32989 62306 10196 20156 30100 40118 53011 86060 333 10230 555 91011;EQDQ01  00002PRCP99
0177683000999992000011600004-26630+015100FM-12+000099999V0202301N003110006019N0050001N1+01701+01441101271ADDAA199000091GF105991051061000751001001MA1999999101091MD1810081+9999REMSYN080    AAXX  16004 68300 32150 52306 10170 20144 30109 40127 58008 85600 555 91012;EQDQ01  00002PRCP99
0147683000999992000011603004-26630+015100FM-12+000099999V0202301N004112200019N0050001N1+01701+01381101131ADDGF102991021061000751001001MA1999999100951MD1710141+9999REMSYN080    AAXX  16034 68300 42150 22308 10170 20138 30095 40113 57014 82600 555 91011;
0229683000999992000011606004-26630+015100FM-12+000099999V0203601N001512200019N0750001N1+01721+01421101221ADDAA199000091GA1001+999999999GF100991001001999999001001KA1240M+02311KA2120N+01651MA1999999101041MD1210091+9999REMSYN090    AAXX  16064 68300 32989 03603 10172 20142 30104 40122 52009 333 20165 555 10231 91012;EQDQ01  00002PRCP99
0147683000999992000011609004-26630+015100FM-12+000099999V0203601N003112200019N0750001N1+01671+01431101321ADDGF101991011041017501001001MA1999999101141MD1310101+9999REMSYN080    AAXX  16094 68300 42789 13606 10167 20143 30114 40132 53010 81400 555 91013;
0157683000999992000011615004-26630+015100FM-12+000099999V0201801N005112200019N0750001N1+02501+01601101021ADDGA1001+999999999GF100991001001999999001001MA1999999100851MD1810201+9999REMSYN074    AAXX  16154 68300 42989 01810 10250 20160 30085 40102 58020 555 91010;
0210683000999992000011618004-26630+015100FM-12+000099999V0201801N003112200019N0750001N1+02201+01621101081ADDAA199000091GA1001+999999999GF100991001001999999001001KA1120M+02541MA1999999100901MD1310051+9999REMSYN084    AAXX  16184 68300 32989 01806 10220 20162 30090 40108 53005 333 10254 555 91010;EQDQ01  00002PRCP99
0147683000999992000011621004-26630+015100FM-12+000099999V0203601N004112200019N0040001N1+01651+01561101171ADDGF102991021061000751001001MA1999999100991MD1210091+9999REMSYN080    AAXX  16214 68300 42140 23608 10165 20156 30099 40117 52009 82600 555 91011;
0205683000999992000011700004-26630+015100FM-12+000099999V0203601N004112200019N0040001N1+01541+01491101021ADDAA199000091AY101061AY201061GF104991041061000751001001MA1999999100841MD1810151+9999MW1401REMSYN086    AAXX  17004 68300 31140 43608 10154 20149 30084 40102 58015 74000 84600 555 91010;EQDQ01  00002PRCP99
0175683000999992000011703004-26630+015100FM-12+000099999V0203601N004112200019N0010001N1+01571+01541100991ADDAY141031AY201031GF104991041061000251001001MA1999999100811MD1710031+9999MW1401REMSYN086    AAXX  17034 68300 41010 43608 10157 20154 30081 40099 57003 74040 84600 555 91009;
0247683000999992000011706004-26630+015100FM-12+000099999V0203601N003110006019N0010001N1+01501+01481101251ADDAA199000091AY141061AY241061GF108991081061000751999999KA1240M+02541KA2120N+01501MA1999999101071MD1310261+9999MW1401REMSYN102    AAXX  17064 68300 31110 83606 10150 20148 30107 40125 53026 74044 886// 333 20150 555 10254 91012;EQDQ01  00002PRCP99
0157683000999992000011709004-26630+015100FM-12+000099999V0202701N003112200019N0750001N1+01781+01471101281ADDGA1001+999999999GF100991001001999999001001MA1999999101101MD1710031+9999REMSYN074    AAXX  17094 68300 42989 02706 10178 20147 30110 40128 57003 555 91012;
0200683000999992000011712004-26630+015100FM-12+000099999V0202701N003110210019N0750001N1+01861+01591101201ADDAA199000091GF108991081001022501091999KA1120N+01551MA1999999101021MD1310081+9999REMSYN090    AAXX  17124 68300 32889 82706 10186 20159 30102 40120 53008 8809/ 333 20155 555 91011;EQDQ01  00002PRCP99
0147683000999992000011715004-26630+015100FM-12+000099999V0203201N003110075019N0750001N1+01801+01631101051ADDGF108991081061008001999999MA1999999100871MD1810171+9999REMSYN080    AAXX  17154 68300 42589 83206 10180 20163 30087 40105 58017 886// 555 91010;
0147683000999992000011721004-26630+015100FM-12+000099999V0203201N005112200019N0100001N1+01751+01551101181ADDGF102991021061000751001001MA1999999101001MD1210091+9999REMSYN080    AAXX  17214 68300 42160 23210 10175 20155 30100 40118 52009 82600 555 91011;
0177683000999992000011800004-26630+015100FM-12+000099999V0203201N005112200019N0100001N1+01701+01441101041ADDAA199000091GF102991021061000751001001MA1999999100861MD1810141+9999REMSYN080    AAXX  18004 68300 32160 23210 10170 20144 30086 40104 58014 82600 555 91010;EQDQ01  00002PRCP99
0175683000999992000011803004-26630+015100FM-12+000099999V0203201N003112200019N0005001N1+01501+01461100951ADDAY101031AY201031GF104991041061000251001001MA1999999100771MD1710091+9999MW1461REMSYN086    AAXX  18034 68300 41005 43206 10150 20146 30077 40095 57009 74600 84600 555 91009;
0257683000999992000011806004-26630+015100FM-12+000099999V0203201N001510003019N0005001N1+01551+01461101101ADDAA199000091AY101061AY201061GA1091+999999999GF109991091999999999999999KA1240M+01951KA2120N+01451MA1999999100921MD1810251+9999MW1461REMSYN096    AAXX  18064 68300 31/05 93203 10155 20146 30092 40110 58025 74600 333 20145 555 10195 91010;EQDQ01  00002PRCP99
0228683000999992000011812004-26630+015100FM-12+000099999V0202701N001510075019N0100001N1+01951+01621101121ADDAA199000091AY141061AY241061GF108991081061008001999999KA1120N+01571MA1999999100941MD1210071+9999MW1401REMSYN096    AAXX  18124 68300 31560 82703 10195 20162 30094 40112 52007 74044 886// 333 20157 555 91011;EQDQ01  00002PRCP99
0177683000999992000011815004-26630+015100FM-12+000099999V0203201N003110006019N0050001N1+01851+01601101051ADDAA199000091GF108991081061000751999999MA1999999100871MD1810061+9999REMSYN080    AAXX  18154 68300 32150 83206 10185 20160 30087 40105 58006 886// 555 91010;EQDQ01  00002PRCP99
0238683000999992000011818004-26630+015100FM-12+000099999V0203201N003112200019N0050001N1+01751+01671101121ADDAA199000091AY101061AY201061GA1001+999999999GF100991001001999999001001KA1120M+02021MA1999999100941MD1310071+9999MW1401REMSYN090    AAXX  18184 68300 31950 03206 10175 20167 30094 40112 53007 74000 333 10202 555 91011;EQDQ01  00002PRCP99
0185683000999992000011821004-26630+015100FM-12+000099999V0203201N004110003019N0005001N1+01621+01591101271ADDAY141031AY201031GA1091+999999999GF109991091999999999999999MA1999999101091MD1210151+9999MW1471REMSYN080    AAXX  18214 68300 41/05 93208 10162 20159 30109 40127 52015 74740 555 91012;
0215683000999992000011900004-26630+015100FM-12+000099999V0203201N004110003019N0005001N1+01561+01541101221ADDAA199000091AY141061AY221061GA1091+999999999GF109991091999999999999999MA1999999101041MD1810051+9999MW1451REMSYN080    AAXX  19004 68300 31/05 93208 10156 20154 30104 40122 58005 74542 555 91012;EQDQ01  00002PRCP99
0185683000999992000011903004-26630+015100FM-12+000099999V0203201N004110003019N0005001N1+01601+01601101151ADDAY141031AY221031GA1091+999999999GF109991091999999999999999MA1999999100971MD1710071+9999MW1451REMSYN080    AAXX  19034 68300 41/05 93208 10160 20160 30097 40115 57007 74542 555 91011;
0257683000999992000011906004-26630+015100FM-12+000099999V0203601N001510006019N0009001N1+01681+01681101361ADDAA199000091AY141061AY221061GA1091+999999999GF109991091999999999999999KA1240M+02001KA2120N+01601MA1999999101181MD1310201+9999MW1451REMSYN096    AAXX  19064 68300 31/09 93603 10168 20168 30118 40136 53020 74542 333 20160 555 10200 91013;EQDQ01  00002PRCP99
0157683000999992000011909004-26630+015100FM-12+000099999V0203601N003112200019N0200001N1+01901+01741101441ADDGA1001+999999999GF100991001001999999001001MA1999999101261MD1210071+9999REMSYN074    AAXX  19094 68300 42970 03606 10190 20174 30126 40144 52007 555 91014;
0228683000999992000011912004-26630+015100FM-12+000099999V0203601N005110075019N0100001N1+02021+01731101411ADDAA199000091AY101061AY201061GF106991061061008001001001KA1120N+01701MA1999999101231MD1610021+9999MW1401REMSYN096    AAXX  19124 68300 31560 63610 10202 20173 30123 40141 56002 74000 86600 333 20170 555 91014;EQDQ01  00002PRCP99
0147683000999992000011915004-26630+015100FM-12+000099999V0203601N005110075019N0750001N1+01901+01651101331ADDGF106991061051008001001001MA1999999101151MD1810051+9999REMSYN080    AAXX  19154 68300 42589 63610 10190 20165 30115 40133 58005 86500 555 91013;
0196683000999992000011918004-26630+015100FM-12+000099999V0203601N003112200019N0050001N1+01951+01701101431ADDAA199000091GF102991021001999999061001KA1120M+02081MA1999999101251MD1310101+9999REMSYN086AAXX  19184 68300 32950 23606 10195 20170 30125 40143 53010 82060 333 10208 555 91014;EQDQ01  00002PRCP99
0162683000999992000011921004-26630+015100FM-12+000099999V0202301N003112200019N0100001N1+01851+01601101531ADDGF102991999001022501061001MA1999999101351MD1210101+9999REMSYN076AAXX  19214 68300 42860 22306 10185 20160 30135 40153 52010 86060 555 91015;EQDQ01+000062SCOTLC
0183683000999992000012000004-26630+015100FM-12+000099999V0202301N003112200019N0100001N1+01851+01601101491ADDAA199000091GA1001+999999999GF100991001001999999001001MA1999999101311MD1810041+9999REMSYN070AAXX  20004 68300 32960 02306 10185 20160 30131 40149 58004 555 91014;EQDQ01  00002PRCP99
0153683000999992000012003004-26630+015100FM-12+000099999V0202301N003112200019N0100001N1+01771+01581101411ADDGA1001+999999999GF100991001001999999001001MA1999999101231MD1710091+9999REMSYN070AAXX  20034 68300 42960 02306 10177 20158 30123 40141 57009 555 91014;
0225683000999992000012006004-26630+015100FM-12+000099999V0203601N001512200019N0200001N1+01651+01561101611ADDAA199000091GA1001+999999999GF100991001001999999001001KA1240M+02021KA2120N+01601MA1999999101431MD1310181+9999REMSYN086AAXX  20064 68300 32970 03603 10165 20156 30143 40161 53018 333 20160 555 10202 91016;EQDQ01  00002PRCP99
0138683000999992000012009004-26630+015100FM-12+000099999V0203601N003112200019N0200001N1+02101+01691101691ADDGA1001+999999999GF100991001001999999001001MD1210071+9999REMSYN070AAXX  20094 68300 42970 03606 10210 20169 3//// 40169 52007 555 91016;
0196683000999992000012012004-26630+015100FM-12+000099999V0202701N001512200019N0750001N1+02451+01731101621ADDAA199000091GF101991011001999999081001KA1120N+01801MA1999999101451MD1710051+9999REMSYN086AAXX  20124 68300 32989 12703 10245 20173 30145 40162 57005 81080 333 20180 555 91016;EQDQ01  00002PRCP99
0143683000999992000012015004-26630+015100FM-12+000099999V0202301N003112200019N0750001N1+02501+01701101431ADDGF101991011011017501001001MA1999999101261MD1710191+9999REMSYN076AAXX  20154 68300 42789 12306 10250 20170 30126 40143 57019 81100 555 91014;
0196683000999992000012018004-26630+015100FM-12+000099999V0201801N003112200019N0750001N1+02351+01741101461ADDAA199000091GF101991011011017501001001KA1120M+02551MA1999999101291MD1310021+9999REMSYN086AAXX  20184 68300 32789 11806 10235 20174 30129 40146 53002 81100 333 10255 555 91014;EQDQ01  00002PRCP99
0153683000999992000012021004-26630+015100FM-12+000099999V0201801N003112200019N0100001N1+02061+01731101531ADDGA1001+999999999GF100991001001999999001001MA1999999101351MD1210081+9999REMSYN070AAXX  20214 68300 42960 01806 10206 20173 30135 40153 52008 555 91015;
0186683000999992000012100004-26630+015100FM-12+000099999V0201801N003112200019N0040001N1+01901+01751101481ADDAA199000091AY101061AY201061GF103991031061000751001001MD1810051+9999MW1401REMSYN082AAXX  21004 68300 31140 31806 10190 20175 3//// 40148 58005 74000 83600 555 91014;EQDQ01  00002PRCP99
0156683000999992000012103004-26630+015100FM-12+000099999V0201801N003110006019N0030001N1+01861+01761101311ADDAY141031AY201031GF108991081061000751999999MD1710171+9999MW1401REMSYN082AAXX  21034 68300 41130 81806 10186 20176 3//// 40131 57017 74040 886// 555 91013;
0228683000999992000012106004-26630+015100FM-12+000099999V0201801N003110021019N0050001N1+01871+01791101431ADDAA199000091AY141061AY201061GF108991081061002501999999KA1240M+02551KA2120N+01831MD1310131+9999MW1401REMSYN098AAXX  21064 68300 31350 81806 10187 20179 3//// 40143 53013 74040 886// 333 20183 555 10255 91014;EQDQ01  00002PRCP99
0143683000999992000012109004-26630+015100FM-12+000099999V0203201N005112200019N0750001N1+02701+01561101331ADDGF101991011051012501001001MA1999999101161MD1810101+9999REMSYN076AAXX  21094 68300 42689 13210 10270 20156 30116 40133 58010 81500 555 91013;
0196683000999992000012112004-26630+015100FM-12+000099999V0202301N007712200019N0750001N1+03001+01331101151ADDAA199000091GF104991041061012501001001KA1120N+01901MA1999999100981MD1710201+9999REMSYN086AAXX  21124 68300 32689 42315 10300 20133 30098 40115 57020 84600 333 20190 555 91011;EQDQ01  00002PRCP99
0143683000999992000012115004-26630+015100FM-12+000099999V0201801N003112200019N0750001N1+02701+01841101071ADDGF104991041001999999081001MA1999999100901MD1210081+9999REMSYN076AAXX  21154 68300 42989 41806 10270 20184 30090 40107 52008 84080 555 91010;
0196683000999992000012118004-26630+015100FM-12+000099999V0201801N001510042019N0750001N1+01951+01871101131ADDAA199000091GF105991051061004501001001KA1120M+03151MA1999999100961MD1710061+9999REMSYN086AAXX  21184 68300 32489 51803 10195 20187 30096 40113 57006 85600 333 10315 555 91011;EQDQ01  00002PRCP99
0143683000999992000012121004-26630+015100FM-12+000099999V0201801N001512200019N0040001N1+01951+01851101201ADDGF101991011011000751001001MA1999999101021MD1210081+9999REMSYN076AAXX  21214 68300 42140 11803 10195 20185 30102 40120 52008 81100 555 91011;
0201683000999992000012200004-26630+015100FM-12+000099999V0201801N003112200019N0040001N1+01851+01771101181ADDAA199000091AY101061AY201061GF103991031061000751001001MA1999999101001MD1610021+9999MW1401REMSYN082AAXX  22004 68300 31140 31806 10185 20177 30100 40118 56002 74000 83600 555 91011;EQDQ01  00002PRCP99
0183683000999992000012203004-26630+015100FM-12+000099999V0201801N003112200019N0040001N1+01901+01821101041ADDAA199000091GA1001+999999999GF100991001001999999001001MA1999999100861MD1810261+9999REMSYN070AAXX  22034 68300 32940 01806 10190 20182 30086 40104 58026 555 91010;EQDQ01  00002PRCP99
0215683000999992000012206004-26630+015100FM-12+000099999V0201801N003110075019N0750001N1+01901+01621101171ADDAA199000091GF105991051051008001001001KA1240M+03151KA2120N+01771MA1999999100991MD1310141+9999REMSYN092AAXX  22064 68300 32589 51806 10190 20162 30099 40117 53014 85500 333 20177 555 10315 91011;EQDQ01  00002PRCP99
0143683000999992000012209004-26630+015100FM-12+000099999V0202301N005112200019N0200001N1+02951+01581101121ADDGF104991041041000751001001MA1999999100951MD1810041+9999REMSYN076AAXX  22094 68300 42170 42310 10295 20158 30095 40112 58004 84400 555 91011;
0196683000999992000012212004-26630+015100FM-12+000099999V0203201N007712200019N0750001N1+02421+01681101021ADDAA199000091GF104991041051012501001001KA1120N+01921MA1999999100851MD1710101+9999REMSYN086AAXX  22124 68300 32689 43215 10242 20168 30085 40102 57010 84500 333 20192 555 91010;EQDQ01  00002PRCP99
0143683000999992000012215004-26630+015100FM-12+000099999V0202301N005110900019N0300001N1+02751+01621100771ADDGF105991031051000751001031MA1999999100601MD1310251+9999REMSYN076AAXX  22154 68300 42180 52310 10275 20162 30060 40077 53025 83503 555 91007;
0196683000999992000012218004-26630+015100FM-12+000099999V0201801N009319999999N0750001N1+02201+01621100831ADDAA199000091GF105991001001999999001051KA1120M+03051MA1999999100661MD1710061+9999REMSYN086AAXX  22184 68300 32989 51818 10220 20162 30066 40083 57006 80005 333 10305 555 91008;EQDQ01  00002PRCP99
0153683000999992000012221004-26630+015100FM-12+000099999V0201801N003112200019N0050001N1+02051+01551101011ADDGA1001+999999999GF100991001001999999001001MA1999999100831MD1310101+9999REMSYN070AAXX  22214 68300 42950 01806 10205 20155 30083 40101 53010 555 91010;
0173683000999992000012300004-26630+015100FM-12+000099999V0201801N001512200019N0040001N1+01921+01601100961ADDAA199000091GF104991041041000751001001MA1999999100791MD1610041+9999REMSYN076AAXX  23004 68300 32140 41803 10192 20160 30079 40096 56004 84400 555 91009;EQDQ01  00002PRCP99
0173683000999992000012303004-26630+015100FM-12+000099999V0201801N001512200019N0100001N1+01821+01651100831ADDAA199000091GF102991021061000751001001MA1999999100661MD1810121+9999REMSYN076AAXX  23034 68300 32160 21803 10182 20165 30066 40083 58012 82600 555 91008;EQDQ01  00002PRCP99
0215683000999992000012306004-26630+015100FM-12+000099999V0201801N003112200019N0750001N1+01951+01531101011ADDAA199000091GF104991041061008001001001KA1240M+03051KA2120N+01861MA1999999100841MD1310181+9999REMSYN092AAXX  23064 68300 32589 41806 10195 20153 30084 40101 53018 84600 333 20186 555 10305 91010;EQDQ01  00002PRCP99
0143683000999992000012309004-26630+015100FM-12+000099999V0202301N005112200019N0750001N1+02101+01601101071ADDGF104991041011017501001001MA1999999100891MD1210051+9999REMSYN076AAXX  23094 68300 42789 42310 10210 20160 30089 40107 52005 84100 555 91010;
0196683000999992000012312004-26630+015100FM-12+000099999V0202301N005112200019N0750001N1+02251+01591101081ADDAA199000091GF101991011011012501001001KA1120N+01951MA1999999100911MD1210021+9999REMSYN086AAXX  23124 68300 32689 12310 10225 20159 30091 40108 52002 81100 333 20195 555 91010;EQDQ01  00002PRCP99
0143683000999992000012315004-26630+015100FM-12+000099999V0202301N005112200019N0750001N1+02501+01701100961ADDGF104991001001999999001061MA1999999100791MD1310281+9999REMSYN076AAXX  23154 68300 42989 42310 10250 20170 30079 40096 53028 80006 555 91009;
0196683000999992000012318004-26630+015100FM-12+000099999V0201801N001512200019N0750001N1+02201+01711101001ADDAA199000091GF104991001001999999001051KA1120M+02601MA1999999100831MD1810041+9999REMSYN086AAXX  23184 68300 32989 41803 10220 20171 30083 40100 58004 80005 333 10260 555 91010;EQDQ01  00002PRCP99
0168683000999992000012400004-26630+015100FM-12+000099999V0201801N003112200019N0100001N1+01981+01741101091ADDAA199000091GA1001+999999999GF100991001001999999001001MD1710051+9999REMSYN070AAXX  24004 68300 32960 01806 10198 20174 3//// 40109 57005 555 91010;EQDQ01  00002PRCP99
0128683000999992000012403004-26630+015100FM-12+000099999V0201801N001510006019N0100001N1+01901+01741100981ADDGF108991081061000751999999MD1810111+9999REMSYN076AAXX  24034 68300 42160 81803 10190 20174 3//// 40098 58011 886// 555 91009;
0228683000999992000012406004-26630+015100FM-12+000099999V0203201N002110021019N0050001N1+01801+01721101201ADDAA199000091AY121061AY221061GF108991081061002501999999KA1240M+02601KA2120N+01801MD1310171+9999MW1401REMSYN098AAXX  24064 68300 31350 83204 10180 20172 3//// 40120 53017 74022 886// 333 20180 555 10260 91011;EQDQ01  00002PRCP99
0171683000999992000012409004-26630+015100FM-12+000099999V0203401N002110006019N0040001N1+01801+01801101331ADDAY141031AY201031GF108991081061000751999999MA1999999101151MD1210141+9999MW1511REMSYN082AAXX  24094 68300 41140 83404 10180 20180 30115 40133 52014 75140 886// 555 91013;
0177683000999992000012412004-26630+015100FM-12+000099999V0203201N003110042019N0750001N1+02001+01671101251ADDAA199000021GF106991061051004501001001KA1120N+01751MA1999999101071MD1810081+9999REMSYN086AAXX  24124 68300 32489 63206 10200 20167 30107 40125 58008 86500 333 20175 555 91012;
0143683000999992000012415004-26630+015100FM-12+000099999V0203601N001510006019N0040001N1+01901+01741101171ADDGF106991061061000751001001MA1999999100991MD1310081+9999REMSYN076AAXX  24154 68300 42140 63603 10190 20174 30099 40117 53008 86600 555 91011;
0205683000999992000012418004-26630+015100FM-12+000099999V0203601N001510060019N0009001N1+01821+01701101241ADDAA199000021AY101061AY201061GF106991061081002501001001KA1120M+02201MA1999999101061MD1710071+9999MW1441REMSYN092AAXX  24184 68300 31309 63603 10182 20170 30106 40124 57007 74400 86800 333 10220 555 91012;
0143683000999992000012421004-26630+015100FM-12+000099999V0203601N001510006019N0040001N1+01831+01701101401ADDGF108991081061000751999999MA1999999101221MD1310171+9999REMSYN076AAXX  24214 68300 42140 83603 10183 20170 30122 40140 53017 886// 555 91014;
0173683000999992000012500004-26630+015100FM-12+000099999V0203601N001510006019N0049001N1+01851+01731101381ADDAA199000091GF108991081061000751999999MA1999999101201MD1610021+9999REMSYN076AAXX  25004 68300 32149 83603 10185 20173 30120 40138 56002 886// 555 91013;EQDQ01  00002PRCP99
0143683000999992000012503004-26630+015100FM-12+000099999V0200601N002110006019N0040001N1+02051+01811101311ADDGF108991081061000751999999MA1999999101141MD1710041+9999REMSYN076AAXX  25034 68300 42140 80604 10205 20181 30114 40131 57004 886// 555 91013;
0215683000999992000012506004-26630+015100FM-12+000099999V0201401N003110075019N0750001N1+02101+01691101411ADDAA199000091GF105991051051008001001001KA1240M+02201KA2120N+01801MA1999999101231MD1310101+9999REMSYN092AAXX  25064 68300 32589 51406 10210 20169 30123 40141 53010 85500 333 20180 555 10220 91014;EQDQ01  00002PRCP99
0143683000999992000012509004-26630+015100FM-12+000099999V0202301N005110075019N0750001N1+02401+01761101471ADDGF105991051051008001001001MA1999999101301MD1210061+9999REMSYN076AAXX  25094 68300 42589 52310 10240 20176 30130 40147 52006 85500 555 91014;
0196683000999992000012512004-26630+015100FM-12+000099999V0202301N005112200019N0050001N1+02201+01801101461ADDAA199000091GF104991041041000751001001KA1120N+02101MA1999999101291MD1810011+9999REMSYN086AAXX  25124 68300 32150 42310 10220 20180 30129 40146 58001 84400 333 20210 555 91014;EQDQ01  00002PRCP99
0143683000999992000012515004-26630+015100FM-12+000099999V0202301N001519999999N0100001N1+02301+01741101371ADDGF106991061001000751031001MA1999999101201MD1210091+9999REMSYN076AAXX  25154 68300 42160 62303 10230 20174 30120 40137 52009 86030 555 91013;
0196683000999992000012518004-26630+015100FM-12+000099999V0201801N003119999999N0100001N1+02151+01831101471ADDAA199000091GF106991061001000751081001KA1120M+02471MA1999999101301MD1710101+9999REMSYN086AAXX  25184 68300 32160 61806 10215 20183 30130 40147 57010 86080 333 10247 555 91014;EQDQ01  00002PRCP99
0143683000999992000012521004-26630+015100FM-12+000099999V0201801N003110021019N0040001N1+02051+01811101551ADDGF106991061061002501001001MA1999999101371MD1210071+9999REMSYN076AAXX  25214 68300 42340 61806 10205 20181 30137 40155 52007 86600 555 91015;
0183683000999992000012600004-26630+015100FM-12+000099999V0201801N011812200019N0040001N1+02001+01761101431ADDAA199000091GA1001+999999999GF100991001001999999001001MA1999999101251MD1810121+9999REMSYN070AAXX  26004 68300 32940 01823 10200 20176 30125 40143 58012 555 91014;EQDQ01  00002PRCP99
0153683000999992000012603004-26630+015100FM-12+000099999V0203601N001512200019N0040001N1+01951+01531101351ADDGA1001+999999999GF100991001001999999001001MA1999999101171MD1710171+9999REMSYN070AAXX  26034 68300 42940 03603 10195 20153 30117 40135 57017 555 91013;
0225683000999992000012606004-26630+015100FM-12+000099999V0203201N002112200019N0050001N1+01851+01681101421ADDAA199000091GA1001+999999999GF100991001001999999001001KA1240M+02441KA2120N+01851MA1999999101241MD1310081+9999REMSYN086AAXX  26064 68300 32950 03204 10185 20168 30124 40142 53008 333 20185 555 10244 91014;EQDQ01  00002PRCP99
0153683000999992000012609004-26630+015100FM-12+000099999V0203201N007712200019N0200001N1+02321+01721101401ADDGA1001+999999999GF100991001001999999001001MA1999999101231MD1810011+9999REMSYN070AAXX  26094 68300 42970 03215 10232 20172 30123 40140 58001 555 91014;
0206683000999992000012612004-26630+015100FM-12+000099999V0202301N010812200019N0100001N1+02621+01621101361ADDAA199000091GA1001+999999999GF100991001001999999001001KA1120N+01901MA1999999101191MD1710051+9999REMSYN080AAXX  26124 68300 32960 02321 10262 20162 30119 40136 57005 333 20190 555 91013;EQDQ01  00002PRCP99
0153683000999992000012615004-26630+015100FM-12+000099999V0201801N010312200019N0100001N1+02351+01611101281ADDGA1001+999999999GF100991001001999999001001MA1999999101111MD1210081+9999REMSYN070AAXX  26154 68300 42960 01820 10235 20161 30111 40128 52008 555 91012;
0206683000999992000012618004-26630+015100FM-12+000099999V0201801N005112200019N0100001N1+02051+01641101331ADDAA199000091GA1001+999999999GF100991001001999999001001KA1120M+02101MA1999999101161MD1710051+9999REMSYN080AAXX  26184 68300 32960 01810 10205 20164 30116 40133 57005 333 10210 555 91013;EQDQ01  00002PRCP99
0153683000999992000012621004-26630+015100FM-12+000099999V0201801N003112200019N0040001N1+01951+01531101471ADDGA1001+999999999GF100991001001999999001001MA1999999101291MD1310141+9999REMSYN070AAXX  26214 68300 42940 01806 10195 20153 30129 40147 53014 555 91014;
0168683000999992000012700004-26630+015100FM-12+000099999V0201801N004112200019N0200001N1+01881+01521101411ADDAA199000091GA1001+999999999GF100991001001999999001001MD1710061+9999REMSYN070AAXX  27004 68300 32970 01808 10188 20152 3//// 40141 57006 555 91014;EQDQ01  00002PRCP99
0210683000999992000012706004-26630+015100FM-12+000099999V0201401N003112200019N0100001N1+01951+01431101271ADDAA199000091GA1001+999999999GF100991001001999999001001KA1240M+02101KA2120N+01821MD1310021+9999REMSYN086AAXX  27064 68300 32960 01406 10195 20143 3//// 40127 53002 333 20182 555 10210 91012;EQDQ01  00002PRCP99
0153683000999992000012709004-26630+015100FM-12+000099999V0201801N006712200019N0100001N1+02751+01521101261ADDGA1001+999999999GF100991001001999999001001MA1999999101091MD1410001+9999REMSYN070AAXX  27094 68300 42960 01813 10275 20152 30109 40126 54000 555 91012;
0222683000999992000012712004-26630+015100FM-12+000099999V0202301N007712200019N0100001N1+02751+01521101261ADDAA199000091GA1001+999999999GF100991001001999999001001KA1120N+01921MA1999999101091MD1410001+9999REMSYN080AAXX  27124 68300 32960 02315 10275 20152 30109 40126 57000 333 20192 555 91012;EQDQ01+000072APCTENQ02  00002PRCP99
0153683000999992000012715004-26630+015100FM-12+000099999V0201801N005112200019N0100001N1+02451+01721101221ADDGA1001+999999999GF100991001001999999001001MA1999999101051MD1310041+9999REMSYN070AAXX  27154 68300 42960 01810 10245 20172 30105 40122 53004 555 91012;
0206683000999992000012718004-26630+015100FM-12+000099999V0201801N003112200019N0100001N1+02051+01551101351ADDAA199000091GA1001+999999999GF100991001001999999001001KA1120M+02801MA1999999101181MD1710021+9999REMSYN080AAXX  27184 68300 32960 01806 10205 20155 30118 40135 57002 333 10280 555 91013;EQDQ01  00002PRCP99
0153683000999992000012721004-26630+015100FM-12+000099999V0201801N004112200019N0100001N1+02001+01671101481ADDGA1001+999999999GF100991001001999999001001MA1999999101301MD1310091+9999REMSYN070AAXX  27214 68300 42960 01808 10200 20167 30130 40148 53009 555 91014;
0183683000999992000012800004-26630+015100FM-12+000099999V0201801N001512200019N0040001N1+01951+01531101391ADDAA199000091GA1001+999999999GF100991001001999999001001MA1999999101211MD1710091+9999REMSYN070AAXX  28004 68300 32940 01803 10195 20153 30121 40139 57009 555 91013;EQDQ01  00002PRCP99
0153683000999992000012803004-26630+015100FM-12+000099999V0201801N001512200019N0040001N1+01981+01471101321ADDGA1001+999999999GF100991001001999999001001MA1999999101141MD1710071+9999REMSYN070AAXX  28034 68300 42940 01803 10198 20147 30114 40132 57007 555 91013;
0225683000999992000012806004-26630+015100FM-12+000099999V0201801N001512200019N0100001N1+01921+01601101391ADDAA199000091GA1001+999999999GF100991001001999999001001KA1240M+02801KA2120N+01871MA1999999101211MD1810071+9999REMSYN086AAXX  28064 68300 32960 01803 10192 20160 30121 40139 58007 333 20187 555 10280 91013;EQDQ01  00002PRCP99
0153683000999992000012809004-26630+015100FM-12+000099999V0201801N001512200019N0200001N1+02501+01471101381ADDGA1001+999999999GF100991001001999999001001MA1999999101211MD1410001+9999REMSYN070AAXX  28094 68300 42970 01803 10250 20147 30121 40138 54000 555 91013;
0206683000999992000012812004-26630+015100FM-12+000099999V0201801N005112200019N0200001N1+02631+01411101331ADDAA199000091GA1001+999999999GF100991001001999999001001KA1120N+01951MA1999999101161MD1210051+9999REMSYN080AAXX  28124 68300 32970 01810 10263 20141 30116 40133 52005 333 20195 555 91013;EQDQ01  00002PRCP99
0153683000999992000012815004-26630+015100FM-12+000099999V0201801N012312200019N0100001N1+02451+01501101161ADDGA1001+999999999GF100991001001999999001001MA1999999100991MD1810171+9999REMSYN070AAXX  28154 68300 42960 01824 10245 20150 30099 40116 58017 555 91011;
0206683000999992000012818004-26630+015100FM-12+000099999V0201801N011312200019N0100001N1+02161+01561101211ADDAA199000091GA1001+999999999GF100991001001999999001001KA1120M+02651MA1999999101041MD1310051+9999REMSYN080AAXX  28184 68300 32960 01822 10216 20156 30104 40121 53005 333 10265 555 91012;EQDQ01  00002PRCP99
0153683000999992000012821004-26630+015100FM-12+000099999V0201801N011312200019N0040001N1+02051+01641101441ADDGA1001+999999999GF100991001001999999001001MA1999999101261MD1210221+9999REMSYN070AAXX  28214 68300 42940 01822 10205 20164 30126 40144 52022 555 91014;
0183683000999992000012900004-26630+015100FM-12+000099999V0201801N007712200019N0040001N1+02051+01451101311ADDAA199000091GA1001+999999999GF100991001001999999001001MA1999999101131MD1810121+9999REMSYN070AAXX  29004 68300 32940 01815 10205 20145 30113 40131 58012 555 91013;EQDQ01  00002PRCP99
0153683000999992000012903004-26630+015100FM-12+000099999V0201801N003112200019N0650001N1+02001+01401101241ADDGA1001+999999999GF100991001001999999001001MA1999999101061MD1710081+9999REMSYN070AAXX  29034 68300 42987 01806 10200 20140 30106 40124 57008 555 91012;
0225683000999992000012906004-26630+015100FM-12+000099999V0201801N003112200019N0750001N1+01851+01221101281ADDAA199000091GA1001+999999999GF100991001001999999001001KA1240M+02651KA2120N+01741MA1999999101101MD1310031+9999REMSYN086AAXX  29064 68300 32989 01806 10185 20122 30110 40128 53003 333 20174 555 10265 91012;EQDQ01  00002PRCP99
0153683000999992000012909004-26630+015100FM-12+000099999V0201801N005112200019N0100001N1+02401+01211101321ADDGA1001+999999999GF100991001001999999001001MA1999999101151MD1210051+9999REMSYN070AAXX  29094 68300 42960 01810 10240 20121 30115 40132 52005 555 91013;
0206683000999992000012912004-26630+015100FM-12+000099999V0201801N012312200019N0100001N1+02501+01301101301ADDAA199000091GA1001+999999999GF100991001001999999001001KA1120N+01911MA1999999101131MD1810021+9999REMSYN080AAXX  29124 68300 32960 01824 10250 20130 30113 40130 58002 333 20191 555 91013;EQDQ01  00002PRCP99
0153683000999992000012915004-26630+015100FM-12+000099999V0201801N012312200019N0100001N1+02311+01431101231ADDGA1001+999999999GF100991001001999999001001MA1999999101061MD1710071+9999REMSYN070AAXX  29154 68300 42960 01824 10231 20143 30106 40123 57007 555 91012;
0206683000999992000012918004-26630+015100FM-12+000099999V0201801N010312200019N0100001N1+02151+01511101261ADDAA199000091GA1001+999999999GF100991001001999999001001KA1120M+02551MA1999999101091MD1310031+9999REMSYN080AAXX  29184 68300 32960 01820 10215 20151 30109 40126 53003 333 10255 555 91012;EQDQ01  00002PRCP99
0153683000999992000012921004-26630+015100FM-12+000099999V0201801N007712200019N0040001N1+01901+01561101431ADDGA1001+999999999GF100991001001999999001001MA1999999101251MD1210161+9999REMSYN070AAXX  29214 68300 42940 01815 10190 20156 30125 40143 52016 555 91014;
0168683000999992000013000004-26630+015100FM-12+000099999V0201801N005112200019N0100001N1+01751+01491101391ADDAA199000091GA1001+999999999GF100991001001999999001001MD1810051+9999REMSYN070AAXX  30004 68300 32960 01810 10175 20149 3//// 40139 58005 555 91013;EQDQ01  00002PRCP99
0138683000999992000013003004-26630+015100FM-12+000099999V0201801N005112200019N0100001N1+01701+01441101391ADDGA1001+999999999GF100991001001999999001001MD1410001+9999REMSYN070AAXX  30034 68300 42960 01810 10170 20144 3//// 40139 54000 555 91013;
0210683000999992000013006004-26630+015100FM-12+000099999V0201401N003112200019N0200001N1+01701+01251101551ADDAA199000091GA1001+999999999GF100991001001999999001001KA1240M+02551KA2120N+01651MD1310151+9999REMSYN086AAXX  30064 68300 32970 01406 10170 20125 3//// 40155 53015 333 20165 555 10255 91015;EQDQ01  00002PRCP99
0138683000999992000013009004-26630+015100FM-12+000099999V0201801N006212200019N0200001N1+02501+01361101551ADDGA1001+999999999GF100991001001999999001001MD1310011+9999REMSYN070AAXX  30094 68300 42970 01812 10250 20136 3//// 40155 53001 555 91015;
0206683000999992000013012004-26630+015100FM-12+000099999V0201801N013412200019N0200001N1+02481+01421101421ADDAA199000091GA1001+999999999GF100991001001999999001001KA1120N+01751MA1999999101251MD1810131+9999REMSYN080AAXX  30124 68300 32970 01826 10248 20142 30125 40142 58013 333 20175 555 91014;EQDQ01  00002PRCP99
0153683000999992000013015004-26630+015100FM-12+000099999V0201801N013412200019N0200001N1+02401+01231101281ADDGA1001+999999999GF100991001001999999001001MA1999999101111MD1710141+9999REMSYN070AAXX  30154 68300 42970 01826 10240 20123 30111 40128 57014 555 91012;
0206683000999992000013018004-26630+015100FM-12+000099999V0201801N006212200019N0200001N1+02101+01601101441ADDAA199000091GA1001+999999999GF100991001001999999001001KA1120M+02721MA1999999101271MD1310161+9999REMSYN080AAXX  30184 68300 32970 01812 10210 20160 30127 40144 53016 333 10272 555 91014;EQDQ01  00002PRCP99
0153683000999992000013021004-26630+015100FM-12+000099999V0201801N010312200019N0100001N1+01751+01491101321ADDGA1001+999999999GF100991001001999999001001MA1999999101141MD1310141+9999REMSYN070AAXX  30214 68300 42960 01820 10175 20149 30114 40132 53014 555 91013;
0168683000999992000013100004-26630+015100FM-12+000099999V0201801N003112200019N0200001N1+01901+01471101431ADDAA199000091GA1001+999999999GF100991001001999999001001MD1810131+9999REMSYN070AAXX  31004 68300 32970 01806 10190 20147 3//// 40143 58013 555 91014;EQDQ01  00002PRCP99
0138683000999992000013103004-26630+015100FM-12+000099999V0201801N003112200019N0200001N1+01901+01471101401ADDGA1001+999999999GF100991001001999999001001MD1710041+9999REMSYN070AAXX  31034 68300 42970 01806 10190 20147 3//// 40140 57004 555 91014;
0210683000999992000013106004-26630+015100FM-12+000099999V0201801N001512200019N0200001N1+01951+01341101521ADDAA199000091GA1001+999999999GF100991001001999999001001KA1240M+02201KA2120N+01801MD1810121+9999REMSYN086AAXX  31064 68300 32970 01803 10195 20134 3//// 40152 58012 333 20180 555 10220 91015;EQDQ01  00002PRCP99
0153683000999992000013109004-26630+015100FM-12+000099999V0201801N002112200019N0200001N1+01901+01181101441ADDGA1001+999999999GF100991001001999999001001MA1999999101261MD1210151+9999REMSYN070AAXX  31094 68300 42970 01804 10190 20118 30126 40144 52015 555 91014;
0206683000999992000013112004-26630+015100FM-12+000099999V0201801N007712200019N0200001N1+02621+01621101331ADDAA199000091GA1001+999999999GF100991001001999999001001KA1120N+01901MA1999999101161MD1810131+9999REMSYN080AAXX  31124 68300 32970 01815 10262 20162 30116 40133 58013 333 20190 555 91013;EQDQ01  00002PRCP99
0153683000999992000013115004-26630+015100FM-12+000099999V0201801N010312200019N0200001N1+02411+01751101231ADDGA1001+999999999GF100991001001999999001001MA1999999101061MD1710101+9999REMSYN070AAXX  31154 68300 42970 01820 10241 20175 30106 40123 57010 555 91012;
0196683000999992000013118004-26630+015100FM-12+000099999V0201801N009312200019N0050001N1+02101+01841101351ADDAA199000091GF101991011061000751001001KA1120M+02701MA1999999101181MD1310121+9999REMSYN086AAXX  31184 68300 32150 11818 10210 20184 30118 40135 53012 81600 333 10270 555 91013;EQDQ01  00002PRCP99
0153683000999992000013121004-26630+015100FM-12+000099999V0201801N007712200019N0040001N1+02071+01881101461ADDGA1001+999999999GF100991001001999999001001MA1999999101281MD1210101+9999REMSYN070AAXX  31214 68300 42140 01815 10207 20188 30128 40146 52010 555 91014;
0168683000999992000020100004-26630+015100FM-12+000099999V0201801N005112200019N0100001N1+02051+01811101351ADDAA199000091GA1001+999999999GF100991001001999999001001MD1810111+9999REMSYN070AAXX  01004 68300 32960 01810 10205 20181 3//// 40135 58011 555 91013;EQDQ01  00002PRCP99
0138683000999992000020103004-26630+015100FM-12+000099999V0201801N005112200019N0100001N1+01851+01771101301ADDGA1001+999999999GF100991001001999999001001MD1710051+9999REMSYN070AAXX  01034 68300 42960 01810 10185 20177 3//// 40130 57005 555 91013;
0210683000999992000020106004-26630+015100FM-12+000099999V0203601N001512200019N0200001N1+01761+01571101301ADDAA199000091GA1001+999999999GF100991001001999999001001KA1240M+02701KA2120N+01751MD1310101+9999REMSYN086AAXX  01064 68300 32970 03603 10176 20157 3//// 40130 53010 333 20175 555 10270 91013;EQDQ01  00002PRCP99
0153683000999992000020109004-26630+015100FM-12+000099999V0201801N005112200019N0200001N1+02451+01641101421ADDGA1001+999999999GF100991001001999999001001MA1999999101251MD1310171+9999REMSYN070AAXX  01094 68300 42970 01810 10245 20164 30125 40142 53017 555 91014;
0206683000999992000020112004-26630+015100FM-12+000099999V0201801N005112200019N0200001N1+02731+01441101261ADDAA199000091GA1001+999999999GF100991001001999999001001KA1120N+01651MA1999999101091MD1210141+9999REMSYN080AAXX  01124 68300 32970 01810 10273 20144 30109 40126 52014 333 20165 555 91012;EQDQ01  00002PRCP99
0153683000999992000020115004-26630+015100FM-12+000099999V0201801N013412200019N0200001N1+02401+01541101281ADDGA1001+999999999GF100991001001999999001001MA1999999101111MD1210021+9999REMSYN070AAXX  01154 68300 42970 01826 10240 20154 30111 40128 52002 555 91012;
0196683000999992000020118004-26630+015100FM-12+000099999V0201801N010312200019N0050001N1+02171+01551101441ADDAA199000091GF101991011061000751001001KA1120M+02781MA1999999101271MD1210161+9999REMSYN086AAXX  01184 68300 32150 11820 10217 20155 30127 40144 52016 81600 333 10278 555 91014;EQDQ01  00002PRCP99
0153683000999992000020121004-26630+015100FM-12+000099999V0201801N005112200019N0040001N1+02001+01491101551ADDGA1001+999999999GF100991001001999999001001MA1999999101371MD1310091+9999REMSYN070AAXX  01214 68300 42940 01810 10200 20149 30137 40155 53009 555 91015;
0183683000999992000020200004-26630+015100FM-12+000099999V0201801N005112200019N0040001N1+01851+01511101461ADDAA199000091GA1001+999999999GF100991001001999999001001MA1999999101281MD1810091+9999REMSYN070AAXX  02004 68300 32940 01810 10185 20151 30128 40146 58009 555 91014;EQDQ01  00002PRCP99
0153683000999992000020203004-26630+015100FM-12+000099999V0201801N003112200019N0750001N1+01801+01361101501ADDGA1001+999999999GF100991001001999999001001MA1999999101321MD1710061+9999REMSYN070AAXX  02034 68300 42989 01806 10180 20136 30132 40150 57006 555 91015;
0225683000999992000020206004-26630+015100FM-12+000099999V0201801N005112200019N0200001N1+01951+01241101441ADDAA199000091GA1001+999999999GF100991001001999999001001KA1240M+02781KA2120N+01851MA1999999101261MD1710031+9999REMSYN086AAXX  02064 68300 32970 01810 10195 20124 30126 40144 57003 333 20185 555 10278 91014;EQDQ01  00002PRCP99
0138683000999992000020209004-26630+015100FM-12+000099999V0201801N009312200019N0200001N1+02401+01381101411ADDGA1001+999999999GF100991001001999999001001MD1610021+9999REMSYN070AAXX  02094 68300 42970 01818 10240 20138 3//// 40141 56002 555 91014;
0219683000999992000020212004-26630+015100FM-12+000099999V0201801N014412200019N0100001N1+02451+01541101281ADDAA199000091AY101061AY201061GA1001+999999999GF100991001001999999001001KA1120N+01981MD1810111+9999MW1301REMSYN086AAXX  02124 68300 31960 01828 10245 20154 3//// 40128 58011 73000 333 20198 555 91012;EQDQ01  00002PRCP99
0153683000999992000020215004-26630+015100FM-12+000099999V0201801N014412200019N0050001N1+02351+01521101201ADDGA1001+999999999GF100991001001999999001001MA1999999101031MD1710081+9999REMSYN070AAXX  02154 68300 42950 01828 10235 20152 30103 40120 57008 555 91012;
0206683000999992000020218004-26630+015100FM-12+000099999V0201801N011312200019N0100001N1+02051+01561101261ADDAA199000091GA1001+999999999GF100991001001999999001001KA1120M+02501MA1999999101091MD1310061+9999REMSYN080AAXX  02184 68300 32960 01822 10205 20156 30109 40126 53006 333 10250 555 91012;EQDQ01  00002PRCP99
0153683000999992000020221004-26630+015100FM-12+000099999V0201801N007712200019N0040001N1+01951+01341101381ADDGA1001+999999999GF100991001001999999001001MA1999999101201MD1210101+9999REMSYN070AAXX  02214 68300 42940 01815 10195 20134 30120 40138 52010 555 91013;
0168683000999992000020300004-26630+015100FM-12+000099999V0201801N006712200019N0100001N1+01801+01361101311ADDAA199000091GA1001+999999999GF100991001001999999001001MD1810081+9999REMSYN070AAXX  03004 68300 32960 01813 10180 20136 3//// 40131 58008 555 91013;EQDQ01  00002PRCP99
0168683000999992000020303004-26630+015100FM-12+000099999V0201801N007712200019N0100001N1+01751+01581101251ADDAA199000091GA1001+999999999GF100991001001999999001001MD1710051+9999REMSYN070AAXX  03034 68300 32960 01815 10175 20158 3//// 40125 57005 555 91012;EQDQ01  00002PRCP99
0225683000999992000020306004-26630+015100FM-12+000099999V0201801N005112200019N0200001N1+01801+01541101381ADDAA199000091GA1001+999999999GF100991001001999999001001KA1240M+02501KA2120N+01601MA1999999101201MD1310131+9999REMSYN086AAXX  03064 68300 32970 01810 10180 20154 30120 40138 53013 333 20160 555 10250 91013;EQDQ01  00002PRCP99
0183683000999992000020309004-26630+015100FM-12+000099999V0201801N004112200019N0200001N1+02501+01511101331ADDAA199000091GA1001+999999999GF100991001001999999001001MA1999999101161MD1710041+9999REMSYN070AAXX  03094 68300 32970 01808 10250 20151 30116 40133 57004 555 91013;EQDQ01  00002PRCP99
0206683000999992000020312004-26630+015100FM-12+000099999V0201801N005112200019N0200001N1+02351+01611101271ADDAA199000091GA1001+999999999GF100991001001999999001001KA1120N+01801MA1999999101101MD1710061+9999REMSYN080AAXX  03124 68300 32970 01810 10235 20161 30110 40127 57006 333 20180 555 91012;EQDQ01  00002PRCP99
0153683000999992000020315004-26630+015100FM-12+000099999V0201801N009312200019N0200001N1+02241+01521101201ADDGA1001+999999999GF100991001001999999001001MA1999999101021MD1710081+9999REMSYN070AAXX  03154 68300 42970 01818 10224 20152 30102 40120 57008 555 91011;
0196683000999992000020318004-26630+015100FM-12+000099999V0201801N008212200019N0050001N1+01861+01591101291ADDAA199000091GF101991011061999999001001KA1120M+02581MA1999999101111MD1310091+9999REMSYN086AAXX  03184 68300 32950 11816 10186 20159 30111 40129 53009 81600 333 10258 555 91012;EQDQ01  00002PRCP99
0153683000999992000020321004-26630+015100FM-12+000099999V0201801N007212200019N0040001N1+01851+01601101431ADDGA1001+999999999GF100991001001999999001001MA1999999101251MD1210171+9999REMSYN070AAXX  03214 68300 42940 01814 10185 20160 30125 40143 52017 555 91014;
0199683000999992000020400004-26630+015100FM-12+000099999V0201801N999992200019N0040001N1+01801+01541101401ADDAA199000091GA1001+999999999GF100991001001999999001001MA1999999101221MD1810041+9999REMSYN070AAXX  04004 68300 32940 01866 10180 20154 30122 40140 58004 555 91014;EQDQ01+003393WOSPD Q02  00002PRCP99
0153683000999992000020403004-26630+015100FM-12+000099999V0201801N003112200019N0300001N1+01701+01441101351ADDGA1001+999999999GF100991001001999999001001MA1999999101171MD1710051+9999REMSYN070AAXX  04034 68300 42980 01806 10170 20144 30117 40135 57005 555 91013;
0153683000999992000020409004-26630+015100FM-12+000099999V0201801N011312200019N0100001N1+02211+01521101571ADDGA1001+999999999GF100991001001999999001001MA1999999101401MD1310231+9999REMSYN070AAXX  04094 68300 42960 01822 10221 20152 30140 40157 53023 555 91015;
0206683000999992000020412004-26630+015100FM-12+000099999V0201801N013412200019N0100001N1+02351+01541101481ADDAA199000091GA1001+999999999GF100991001001999999001001KA1120N+01681MA1999999101311MD1810091+9999REMSYN080AAXX  04124 68300 32960 01826 10235 20154 30131 40148 58009 333 20168 555 91014;EQDQ01  00002PRCP99
0153683000999992000020415004-26630+015100FM-12+000099999V0201801N007712200019N0100001N1+02351+01611101371ADDGA1001+999999999GF100991001001999999001001MA1999999101201MD1810111+9999REMSYN070AAXX  04154 68300 42960 01815 10235 20161 30120 40137 58011 555 91013;
0206683000999992000020418004-26630+015100FM-12+000099999V0201801N007712200019N0100001N1+02001+01671101441ADDAA199000091GA1001+999999999GF100991001001999999001001KA1120M+02601MA1999999101271MD1210071+9999REMSYN080AAXX  04184 68300 32960 01815 10200 20167 30127 40144 52007 333 10260 555 91014;EQDQ01  00002PRCP99
0153683000999992000020503004-26630+015100FM-12+000099999V0201801N003112200019N0100001N1+01801+00431101341ADDGA1001+999999999GF100991001001999999001001MA1999999101161MD1710061+9999REMSYN070AAXX  05034 68300 42960 01806 10180 20043 30116 40134 57006 555 91013;
0225683000999992000020506004-26630+015100FM-12+000099999V0201801N009312200019N0100001N1+01761+01301101411ADDAA199000091GA1001+999999999GF100991001001999999001001KA1240M+02571KA2120N+01711MA1999999101231MD1310071+9999REMSYN086AAXX  05064 68300 32960 01818 10176 20130 30123 40141 53007 333 20171 555 10257 91014;EQDQ01  00002PRCP99
0153683000999992000020509004-26630+015100FM-12+000099999V0201801N012312200019N0100001N1+02251+01491101401ADDGA1001+999999999GF100991001001999999001001MA1999999101231MD1410001+9999REMSYN070AAXX  05094 68300 42960 01824 10225 20149 30123 40140 54000 555 91014;
0234683000999992000020512004-26630+015100FM-12+000099999V0201801N017512200019N0050001N1+02511+01501101211ADDAA199000091AY131061AY221061GA1001+999999999GF100991001001999999001001KA1120N+01701MA1999999101041MD1810191+9999MW1301REMSYN086AAXX  05124 68300 31950 01834 10251 20150 30104 40121 58019 73032 333 20170 555 91012;EQDQ01  00002PRCP99
0138683000999992000020515004-26630+015100FM-12+000099999V0201801N018012200019N0200001N1+02301+01681101051ADDGA1001+999999999GF100991001001999999001001MD1810131+9999REMSYN070AAXX  05154 68300 42970 01835 10230 20168 3//// 40105 58013 555 91010;
0219683000999992000020518004-26630+015100FM-12+000099999V0201801N018512200019N0100001N1+02001+01701101091ADDAA199000091AY101061AY201061GA1001+999999999GF100991001001999999001001KA1120M+02601MD1210031+9999MW1301REMSYN086AAXX  05184 68300 31960 01836 10200 20170 3//// 40109 52003 73000 333 10260 555 91010;EQDQ01  00002PRCP99
0183683000999992000020600004-26630+015100FM-12+000099999V0201801N005112200019N0100001N1+01801+01451101161ADDAA199000091GA1001+999999999GF100991001001999999001001MA1999999100981MD1210061+9999REMSYN070AAXX  06004 68300 32960 01810 10180 20145 30098 40116 52006 555 91011;EQDQ01  00002PRCP99
0153683000999992000020603004-26630+015100FM-12+000099999V0201801N003112200019N0050001N1+01801+01541101101ADDGA1001+999999999GF100991001001999999001001MA1999999100921MD1210081+9999REMSYN070AAXX  06034 68300 42950 01806 10180 20154 30092 40110 52008 555 91010;
0215683000999992000020606004-26630+015100FM-12+000099999V0201801N009312200019N0100001N1+01801+01451101151ADDAA199000091GF101991011051000751001001KA1240M+02601KA2120N+01721MA1999999100971MD1310051+9999REMSYN092AAXX  06064 68300 32160 11818 10180 20145 30097 40115 53005 81500 333 20172 555 10260 91011;EQDQ01  00002PRCP99
0162683000999992000020609004-26630+015100FM-12+000099999V0201801N011312200019N0100001N1+02291+99999101211ADDGF101991011051000751001001MA1999999101041MD1210071+9999REMSYN076AAXX  06094 68300 42160 11822 10229 20025 30104 40121 52007 81500 555 91012;EQDQ01+000253ATOD  
0181683000999992000020612004-26630+015100FM-12+000099999V0201301N013412200019N0050001N1+02381+01521101101ADDAA199000091GF101991011051000751001001KA1120N+01811MD1810111+9999REMSYN086AAXX  06124 68300 32150 11326 10238 20152 3//// 40110 58011 81500 333 20181 555 91011;EQDQ01  00002PRCP99
0191683000999992000020618004-26630+015100FM-12+000099999V0201801N005112200019N0100001N1+01901+01651101121ADDAA199000091GA1001+999999999GF100991001001999999001001KA1120M+02501MD1310161+9999REMSYN080AAXX  06184 68300 32960 01810 10190 20165 3//// 40112 53016 333 10250 555 91011;EQDQ01  00002PRCP99
0138683000999992000020621004-26630+015100FM-12+000099999V0201801N003112200019N0100001N1+01851+01511101291ADDGA1001+999999999GF100991001001999999001001MD1710061+9999REMSYN070AAXX  06214 68300 42960 01806 10185 20151 3//// 40129 57006 555 91012;
0215683000999992000020706004-26630+015100FM-12+000099999V0201801N003112200019N0100001N1+01771+01501101381ADDAA199000091GF103991031011000751001001KA1240M+02501KA2120N+01711MA1999999101201MD1310091+9999REMSYN092AAXX  07064 68300 32160 31806 10177 20150 30120 40138 53009 83100 333 20171 555 10250 91013;EQDQ01  00002PRCP99
0173683000999992000020709004-26630+015100FM-12+000099999V0201801N005112200019N0100001N1+02361+01611101371ADDAA199000091GF103991031051002501001001MA1999999101201MD1410001+9999REMSYN076AAXX  07094 68300 32360 31810 10236 20161 30120 40137 54000 83500 555 91013;EQDQ01  00002PRCP99
0196683000999992000020712004-26630+015100FM-12+000099999V0201801N008212200019N0100001N1+02361+01621101291ADDAA199000091GF101991011061000751001001KA1120N+01801MA1999999101121MD1810081+9999REMSYN086AAXX  07124 68300 32160 11816 10236 20162 30112 40129 58008 81600 333 20180 555 91013;EQDQ01  00002PRCP99
0143683000999992000020715004-26630+015100FM-12+000099999V0201801N008212200019N0100001N1+02301+01651101091ADDGF101991011061000751001001MA1999999100921MD1810181+9999REMSYN076AAXX  07154 68300 42160 11816 10230 20165 30092 40109 58018 81600 555 91010;
0206683000999992000020718004-26630+015100FM-12+000099999V0201801N012912200019N0050001N1+01851+01601101121ADDAA199000091GA1001+999999999GF100991001001999999001001KA1120M+02451MA1999999100941MD1210021+9999REMSYN080AAXX  07184 68300 32950 01825 10185 20160 30094 40112 52002 333 10245 555 91011;EQDQ01  00002PRCP99
0153683000999992000020721004-26630+015100FM-12+000099999V0201801N011812200019N0050001N1+01801+01451101311ADDGA1001+999999999GF100991001001999999001001MA1999999101131MD1710181+9999REMSYN070AAXX  07214 68300 42950 01823 10180 20145 30113 40131 57018 555 91013;
0183683000999992000020800004-26630+015100FM-12+000099999V0201801N005112200019N0050001N1+01751+01491101211ADDAA199000091GA1001+999999999GF100991001001999999001001MA1999999101031MD1210091+9999REMSYN070AAXX  08004 68300 32950 01810 10175 20149 30103 40121 52009 555 91012;EQDQ01  00002PRCP99
0153683000999992000020803004-26630+015100FM-12+000099999V0201801N003112200019N0050001N1+01601+01421101191ADDGA1001+999999999GF100991001001999999001001MA1999999101011MD1310021+9999REMSYN070AAXX  08034 68300 42950 01806 10160 20142 30101 40119 53002 555 91011;
0215683000999992000020806004-26630+015100FM-12+000099999V0201801N004112200019N0100001N1+01771+01511101311ADDAA199000091GF102991021061000751001001KA1240M+02451KA2120N+01751MA1999999101131MD1210121+9999REMSYN092AAXX  08064 68300 32160 21808 10177 20151 30113 40131 52012 82600 333 20175 555 10245 91013;EQDQ01  00002PRCP99
0143683000999992000020809004-26630+015100FM-12+000099999V0201801N004112200019N0100001N1+01951+01531101351ADDGF102991011061000751001011MA1999999101171MD1210041+9999REMSYN076AAXX  08094 68300 42160 21808 10195 20153 30117 40135 52004 81601 555 91013;
0196683000999992000020812004-26630+015100FM-12+000099999V0201801N011312200019N0750001N1+02451+01661101181ADDAA199000091GF103991011001012501081011KA1120N+01651MA1999999101011MD1810161+9999REMSYN086AAXX  08124 68300 32689 31822 10245 20166 30101 40118 58016 81081 333 20165 555 91011;EQDQ01  00002PRCP99
0153683000999992000020815004-26630+015100FM-12+000099999V0201801N007712200019N0100001N1+02181+01661100991ADDGA1001+999999999GF100991001001999999001001MA1999999100811MD1810171+9999REMSYN070AAXX  08154 68300 42960 01815 10218 20166 30081 40099 58017 555 91009;
0206683000999992000020818004-26630+015100FM-12+000099999V0201801N003112200019N0750001N1+01951+01621101021ADDAA199000091GA1001+999999999GF100991001001999999001001KA1120M+02481MA1999999100841MD1210031+9999REMSYN080AAXX  08184 68300 32989 01806 10195 20162 30084 40102 52003 333 10248 555 91010;EQDQ01  00002PRCP99
0153683000999992000020821004-26630+015100FM-12+000099999V0201801N003112200019N0050001N1+01801+01531101031ADDGA1001+999999999GF100991001001999999001001MA1999999100851MD1710051+9999REMSYN070AAXX  08214 68300 42950 01806 10180 20153 30085 40103 57005 555 91010;
0183683000999992000020900004-26630+015100FM-12+000099999V0201801N001512200019N0050001N1+01701+01621101161ADDAA199000091GA1001+999999999GF100991001001999999001001MA1999999100981MD1810091+9999REMSYN070AAXX  09004 68300 32950 01803 10170 20162 30098 40116 58009 555 91011;EQDQ01  00002PRCP99
0243683000999992000020906004-26630+015100FM-12+000099999V0203601N003110006019N0040001N1+01491+01451101301ADDAA199000091AY141061AY201061GF108991081061000751999999KA1240M+02481KA2120N+01451MA1999999101121MD1310141+9999MW1401REMSYN098AAXX  09064 68300 31140 83606 10149 20145 30112 40130 53014 74040 886// 333 20145 555 10248 91013;EQDQ01  00002PRCP99
0143683000999992000020909004-26630+015100FM-12+000099999V0203601N003110075019N0750001N1+01601+01511101341ADDGF108991081061008001999999MA1999999101161MD1210041+9999REMSYN076AAXX  09094 68300 42589 83606 10160 20151 30116 40134 52004 886// 555 91013;
0196683000999992000020912004-26630+015100FM-12+000099999V0202301N003110012019N0100001N1+01761+01571101291ADDAA199000091GF106991061061001501001001KA1120N+01501MA1999999101111MD1810051+9999REMSYN086AAXX  09124 68300 32260 62306 10176 20157 30111 40129 58005 86600 333 20150 555 91012;EQDQ01  00002PRCP99
0143683000999992000020915004-26630+015100FM-12+000099999V0201801N003110006019N0100001N1+02201+01801101131ADDGF108991081061000751999999MA1999999100951MD1810131+9999REMSYN076AAXX  09154 68300 42160 81806 10220 20180 30095 40113 58013 886// 555 91011;
0196683000999992000020918004-26630+015100FM-12+000099999V0203601N001510006019N0050001N1+01951+01701101121ADDAA199000091GF108991081061000751999999KA1120M+02251MA1999999100941MD1610011+9999REMSYN086AAXX  09184 68300 32150 83603 10195 20170 30094 40112 56001 886// 333 10225 555 91011;EQDQ01  00002PRCP99
0153683000999992000020921004-26630+015100FM-12+000099999V0201801N004112200019N0100001N1+01901+01741101181ADDGA1001+999999999GF100991001001999999001001MA1999999101001MD1710061+9999REMSYN070AAXX  09214 68300 42960 01808 10190 20174 30100 40118 57006 555 91011;
0183683000999992000021000004-26630+015100FM-12+000099999V0201801N003112200019N0100001N1+01801+01721101141ADDAA199000091GA1001+999999999GF100991001001999999001001MA1999999100961MD1210041+9999REMSYN070AAXX  10004 68300 32960 01806 10180 20172 30096 40114 52004 555 91011;EQDQ01  00002PRCP99
0183683000999992000021003004-26630+015100FM-12+000099999V0201801N001512200019N0100001N1+01751+01581101141ADDAA199000091GA1001+999999999GF100991001001999999001001MA1999999100961MD1410001+9999REMSYN070AAXX  10034 68300 32960 01803 10175 20158 30096 40114 54000 555 91011;EQDQ01  00002PRCP99
0243683000999992000021006004-26630+015100FM-12+000099999V0203201N003112200019N0040001N1+01501+01501101311ADDAA199000091AY121061AY221061GF104991041061004501001001KA1240M+02251KA2120N+01491MA1999999101131MD1310071+9999MW1401REMSYN098AAXX  10064 68300 31440 43206 10150 20150 30113 40131 53007 74022 84600 333 20149 555 10225 91013;EQDQ01  00002PRCP99
0143683000999992000021009004-26630+015100FM-12+000099999V0203601N003110006019N0050001N1+01701+01551101351ADDGF107991071061000751999999MA1999999101171MD1210041+9999REMSYN076AAXX  10094 68300 42150 73606 10170 20155 30117 40135 52004 876// 555 91013;
0196683000999992000021012004-26630+015100FM-12+000099999V0202301N008212200019N0750001N1+02501+01701101131ADDAA199000091GF104991041051004501001001KA1120N+01501MA1999999100961MD1810211+9999REMSYN086AAXX  10124 68300 32489 42316 10250 20170 30096 40113 58021 84500 333 20150 555 91011;EQDQ01  00002PRCP99
0183683000999992000021015004-26630+015100FM-12+000099999V0202301N010312200019N0100001N1+02251+01721101041ADDAA199000091GA1001+999999999GF100991001001999999001001MA1999999100871MD1710061+9999REMSYN070AAXX  10154 68300 32960 02320 10225 20172 30087 40104 57006 555 91010;EQDQ01  00002PRCP99
0196683000999992000021018004-26630+015100FM-12+000099999V0202301N012912200019N0750001N1+02051+01721101111ADDAA199000091GF101991011061008001001001KA1120M+02651MA1999999100931MD1210061+9999REMSYN086AAXX  10184 68300 32589 12325 10205 20172 30093 40111 52006 81600 333 10265 555 91011;EQDQ01  00002PRCP99
0153683000999992000021021004-26630+015100FM-12+000099999V0201801N003112200019N0050001N1+01901+01561101311ADDGA1001+999999999GF100991001001999999001001MA1999999101131MD1710081+9999REMSYN070AAXX  10214 68300 42950 01806 10190 20156 30113 40131 57008 555 91013;
0183683000999992000021100004-26630+015100FM-12+000099999V0201801N003112200019N0050001N1+01851+01511101221ADDAA199000091GA1001+999999999GF100991001001999999001001MA1999999101041MD1210091+9999REMSYN070AAXX  11004 68300 32950 01806 10185 20151 30104 40122 52009 555 91012;EQDQ01  00002PRCP99
0153683000999992000021103004-26630+015100FM-12+000099999V0201801N003112200019N0040001N1+01751+01491101111ADDGA1001+999999999GF100991001001999999001001MA1999999100931MD1310111+9999REMSYN070AAXX  11034 68300 42940 01806 10175 20149 30093 40111 53011 555 91011;
0225683000999992000021106004-26630+015100FM-12+000099999V0201801N003112200019N0750001N1+01851+01511101221ADDAA199000091GA1001+999999999GF100991001001999999001001KA1240M+02651KA2120N+01801MA1999999101041MD1310111+9999REMSYN086AAXX  11064 68300 32989 01806 10185 20151 30104 40122 53011 333 20180 555 10265 91012;EQDQ01  00002PRCP99
0153683000999992000021109004-26630+015100FM-12+000099999V0201801N007712200019N0750001N1+02201+01491101251ADDGA1001+999999999GF100991001001999999001001MA1999999101071MD1210131+9999REMSYN070AAXX  11094 68300 42989 01815 10220 20149 30107 40125 52013 555 91012;
0234683000999992000021112004-26630+015100FM-12+000099999V0201801N015412200019N0100001N1+02441+01511101111ADDAA199000091AY121061AY221061GA1001+999999999GF100991001001999999001001KA1120N+02101MA1999999100941MD1810131+9999MW1301REMSYN086AAXX  11124 68300 31960 01830 10244 20151 30094 40111 58013 73022 333 20210 555 91011;EQDQ01  00002PRCP99
0153683000999992000021115004-26630+015100FM-12+000099999V0201801N012912200019N0300001N1+02381+01501101001ADDGA1001+999999999GF100991001001999999001001MA1999999100831MD1810111+9999REMSYN070AAXX  11154 68300 42980 01825 10238 20150 30083 40100 58011 555 91010;
0206683000999992000021118004-26630+015100FM-12+000099999V0201801N010312200019N0750001N1+02151+01641101071ADDAA199000091GA1001+999999999GF100991001001999999001001KA1120M+02501MA1999999100891MD1310061+9999REMSYN080AAXX  11184 68300 32989 01820 10215 20164 30089 40107 53006 333 10250 555 91010;EQDQ01  00002PRCP99
0153683000999992000021121004-26630+015100FM-12+000099999V0201801N009312200019N0100001N1+01801+01421101211ADDGA1001+999999999GF100991001001999999001001MA1999999101031MD1210141+9999REMSYN070AAXX  11214 68300 42960 01818 10180 20142 30103 40121 52014 555 91012;
0183683000999992000021200004-26630+015100FM-12+000099999V0201801N009312200019N0100001N1+01841+01771101181ADDAA199000091GA1001+999999999GF100991001001999999001001MA1999999101001MD1810031+9999REMSYN070AAXX  12004 68300 32960 01818 10184 20177 30100 40118 58003 555 91011;EQDQ01  00002PRCP99
0153683000999992000021203004-26630+015100FM-12+000099999V0201801N006212200019N0100001N1+01751+01341101071ADDGA1001+999999999GF100991001001999999001001MA1999999100891MD1710111+9999REMSYN070AAXX  12034 68300 42960 01812 10175 20134 30089 40107 57011 555 91010;
0210683000999992000021206004-26630+015100FM-12+000099999V0201801N010312200019N0750001N1+01981+01651101251ADDAA199000091GA1001+999999999GF100991001001999999001001KA1240M+02501KA2120N+01651MD1310171+9999REMSYN086AAXX  12064 68300 32989 01820 10198 20165 3//// 40125 53017 333 20165 555 10250 91012;EQDQ01  00002PRCP99
0128683000999992000021209004-26630+015100FM-12+000099999V0201801N007712200019N0750001N1+02521+01331101161ADDGF102991021051999999001001MD1710061+9999REMSYN076AAXX  12094 68300 42989 21815 10252 20133 3//// 40116 57006 82500 555 91011;
0209683000999992000021212004-26630+015100FM-12+000099999V0201801N018012200019N0100001N1+02481+01401100981ADDAA199000091AY101061AY201061GF102991021051008001001001KA1120N+01981MD1810181+9999MW1301REMSYN092AAXX  12124 68300 31560 21835 10248 20140 3//// 40098 58018 73000 82500 333 20198 555 91009;EQDQ01  00002PRCP99
0196683000999992000021218004-26630+015100FM-12+000099999V0201801N014412200019N0750001N1+01961+01461100981ADDAA199000091GF104991001001999999001031KA1120M+02561MA1999999100801MD1710271+9999REMSYN086AAXX  12184 68300 32989 41828 10196 20146 30080 40098 57027 80003 333 10256 555 91009;EQDQ01  00002PRCP99
0143683000999992000021221004-26630+015100FM-12+000099999V0201801N014412200019N0100001N1+01961+01411101121ADDGF104991001001999999001031MA1999999100941MD1310141+9999REMSYN076AAXX  12214 68300 42960 41828 10196 20141 30094 40112 53014 80003 555 91011;
0158683000999992000021300004-26630+015100FM-12+000099999V0201801N011312200019N0100001N1+02001+01211101051ADDAA199000091GF102991001001999999001021MD1810071+9999REMSYN076AAXX  13004 68300 32960 21822 10200 20121 3//// 40105 58007 80002 555 91010;EQDQ01  00002PRCP99
0138683000999992000021303004-26630+015100FM-12+000099999V0201801N012312200019N0100001N1+01901+01141101011ADDGA1001+999999999GF100991001001999999001001MD1610041+9999REMSYN070AAXX  13034 68300 42960 01824 10190 20114 3//// 40101 56004 555 91010;
0200683000999992000021306004-26630+015100FM-12+000099999V0201801N010312200019N0200001N1+01801+01161101151ADDAA199000091GF102991021051004501001001KA1240M+02561KA2120N+01801MD1310101+9999REMSYN092AAXX  13064 68300 32470 21820 10180 20116 3//// 40115 53010 82500 333 20180 555 10256 91011;EQDQ01  00002PRCP99
0143683000999992000021309004-26630+015100FM-12+000099999V0201801N007712200019N0750001N1+02321+01401101131ADDGF102991021051008001001001MA1999999100961MD1610011+9999REMSYN076AAXX  13094 68300 42589 21815 10232 20140 30096 40113 56001 82500 555 91011;
0153683000999992000021315004-26630+015100FM-12+000099999V0201801N010312200019N0100001N1+02251+01251100821ADDGA1001+999999999GF100991001001999999001001MA1999999100651MD1810101+9999REMSYN070AAXX  13154 68300 42960 01820 10225 20125 30065 40082 58010 555 91008;
0183683000999992000021400004-26630+015100FM-12+000099999V0201801N008212200019N0050001N1+01701+01251101291ADDAA199000091GA1001+999999999GF100991001001999999001001MA1999999101111MD1210061+9999REMSYN070AAXX  14004 68300 32950 01816 10170 20125 30111 40129 52006 555 91012;EQDQ01  00002PRCP99
0153683000999992000021403004-26630+015100FM-12+000099999V0201801N006212200019N0050001N1+01751+01271101201ADDGA1001+999999999GF100991001001999999001001MA1999999101021MD1810071+9999REMSYN070AAXX  14034 68300 42950 01812 10175 20127 30102 40120 58007 555 91011;
0232683000999992000021406004-26630+015100FM-12+000099999V0201801N005112200019N0750001N1+01651+01311999999ADDAA199000091GF104991041041012501001001KA1240M+02451KA2120N+01601MD1310151+9999REMSYN092AAXX  14064 68300 32689 41810 10165 20131 30017 40035 53015 84400 333 20160 555 10245 91003;EQDQ01+100173APOSP Q02+100353APOSLPQ03  00002PRCP99
0174683000999992000021409004-26630+015100FM-12+000099999V0201801N005112200019N0100001N1+02351+01321101361ADDGA1001+999999999GF100991001001999999001001MA1999999101181REMSYN070AAXX  14094 68300 42960 01810 10235 20132 30118 40136 52000 555 91013;EQDQ01+000022APCTENQ02+000002APC3  
0206683000999992000021412004-26630+015100FM-12+000099999V0201801N010312200019N0750001N1+02331+01411101241ADDAA199000091GA1001+999999999GF100991001001999999001001KA1120N+01721MA1999999101071MD1310121+9999REMSYN080AAXX  14124 68300 32989 01820 10233 20141 30107 40124 53012 333 20172 555 91012;EQDQ01  00002PRCP99
0153683000999992000021415004-26630+015100FM-12+000099999V0201801N005112200019N0750001N1+02151+01471101141ADDGA1001+999999999GF100991001001999999001001MA1999999100961MD1210061+9999REMSYN070AAXX  14154 68300 42989 01810 10215 20147 30096 40114 52006 555 91011;
0206683000999992000021418004-26630+015100FM-12+000099999V0201801N005112200019N0750001N1+01951+01531101231ADDAA199000091GA1001+999999999GF100991001001999999001001KA1120M+02451MA1999999101051MD1710091+9999REMSYN080AAXX  14184 68300 32989 01810 10195 20153 30105 40123 57009 333 10245 555 91012;EQDQ01  00002PRCP99
0153683000999992000021421004-26630+015100FM-12+000099999V0201801N007212200019N0750001N1+01851+01651101371ADDGA1001+999999999GF100991001001999999001001MA1999999101191MD1310141+9999REMSYN070AAXX  14214 68300 42989 01814 10185 20165 30119 40137 53014 555 91013;
0183683000999992000021500004-26630+015100FM-12+000099999V0201801N006212200019N0100001N1+01761+01391101291ADDAA199000091GA1001+999999999GF100991001001999999001001MA1999999101111MD1810081+9999REMSYN070AAXX  15004 68300 32960 01812 10176 20139 30111 40129 58008 555 91012;EQDQ01  00002PRCP99
0225683000999992000021506004-26630+015100FM-12+000099999V0201801N010312200019N0750001N1+01751+01671101301ADDAA199000091GA1001+999999999GF100991001001999999001001KA1240M+02451KA2120N+01681MA1999999101121MD1310101+9999REMSYN086AAXX  15064 68300 32989 01820 10175 20167 30112 40130 53010 333 20168 555 10245 91013;EQDQ01  00002PRCP99
0153683000999992000021509004-26630+015100FM-12+000099999V0201801N010312200019N0750001N1+02451+01121101221ADDGA1001+999999999GF100991001001999999001001MA1999999101051MD1610071+9999REMSYN070AAXX  15094 68300 42989 01820 10245 20112 30105 40122 56007 555 91012;
0238683000999992000021512004-26630+015100FM-12+000099999V0201801N018012200019N0100001N1+02421+01241100552ADDAA199000091GA1001+999999999GF100991001001999999001001KA1120N+01781MA1999999100382MD1810181+9999REMSYN080AAXX  15124 68300 32960 01835 10242 20124 30038 40055 58018 333 20178 555 91005;EQDQ01+100383APOSP Q02+100553APOSLPQ03  00002PRCP99
0153683000999992000021521004-26630+015100FM-12+000099999V0201801N011312200019N0100001N1+01961+01081101211ADDGA1001+999999999GF100991001001999999001001MA1999999101031MD1310161+9999REMSYN070AAXX  15214 68300 42960 01822 10196 20108 30103 40121 53016 555 91012;
0183683000999992000021600004-26630+015100FM-12+000099999V0201801N011312200019N0100001N1+01821+01141101161ADDAA199000091GA1001+999999999GF100991001001999999001001MA1999999100981MD1810051+9999REMSYN070AAXX  16004 68300 32960 01822 10182 20114 30098 40116 58005 555 91011;EQDQ01  00002PRCP99
0183683000999992000021603004-26630+015100FM-12+000099999V0201801N009312200019N0050001N1+01731+01011101021ADDAA199000091GA1001+999999999GF100991001001999999001001MA1999999100841MD1710141+9999REMSYN070AAXX  16034 68300 32950 01818 10173 20101 30084 40102 57014 555 91010;EQDQ01  00002PRCP99
0225683000999992000021606004-26630+015100FM-12+000099999V0201801N001512200019N0100001N1+01821+00921101151ADDAA199000091GA1001+999999999GF100991001001999999001001KA1240M+02551KA2120N+01561MA1999999100971MD1310071+9999REMSYN086AAXX  16064 68300 32960 01803 10182 20092 30097 40115 53007 333 20156 555 10255 91011;EQDQ01  00002PRCP99
0153683000999992000021609004-26630+015100FM-12+000099999V0201801N001512200019N0050001N1+02281+01091101211ADDGA1001+999999999GF100991001001999999001001MA1999999101031MD1810061+9999REMSYN070AAXX  16094 68300 42950 01803 10228 20109 30103 40121 58006 555 91012;
0206683000999992000021612004-26630+015100FM-12+000099999V0202101N001512200019N0750001N1+02351+01101101121ADDAA199000091GA1001+999999999GF100991001001999999001001KA1120N+01721MA1999999100951MD1810081+9999REMSYN080AAXX  16124 68300 32989 02103 10235 20110 30095 40112 58008 333 20172 555 91011;EQDQ01  00002PRCP99
0153683000999992000021615004-26630+015100FM-12+000099999V0202701N004112200019N0750001N1+02201+01231100881ADDGA1001+999999999GF100991001001999999001001MA1999999100711MD1710191+9999REMSYN070AAXX  16154 68300 42989 02708 10220 20123 30071 40088 57019 555 91008;
0206683000999992000021618004-26630+015100FM-12+000099999V0201801N007712200019N0750001N1+01751+01211100981ADDAA199000091GA1001+999999999GF100991001001999999001001KA1120M+02521MA1999999100801MD1310091+9999REMSYN080AAXX  16184 68300 32989 01815 10175 20121 30080 40098 53009 333 10252 555 91009;EQDQ01  00002PRCP99
0153683000999992000021621004-26630+015100FM-12+000099999V0201801N007212200019N0100001N1+01701+01191101091ADDGA1001+999999999GF100991001001999999001001MA1999999100911MD1210111+9999REMSYN070AAXX  16214 68300 42960 01814 10170 20119 30091 40109 52011 555 91010;
0183683000999992000021700004-26630+015100FM-12+000099999V0201801N006212200019N0050001N1+01561+01071101081ADDAA199000091GA1001+999999999GF100991001001999999001001MA1999999100901MD1810011+9999REMSYN070AAXX  17004 68300 32950 01812 10156 20107 30090 40108 58001 555 91010;EQDQ01  00002PRCP99
0153683000999992000021703004-26630+015100FM-12+000099999V0201801N007212200019N0050001N1+01321+01111101021ADDGA1001+999999999GF100991001001999999001001MA1999999100841MD1710071+9999REMSYN070AAXX  17034 68300 42950 01814 10132 20111 30084 40102 57007 555 91010;
0215683000999992000021706004-26630+015100FM-12+000099999V0203101N003110006019N0100001N1+01451+01361101171ADDAA199000091GF108991081061000751999999KA1240M+02511KA2120N+01351MA1999999100991MD1810161+9999REMSYN092AAXX  17064 68300 32160 83106 10145 20136 30099 40117 58016 886// 333 20135 555 10251 91011;EQDQ01  00002PRCP99
0143683000999992000021709004-26630+015100FM-12+000099999V0203601N003110006019N0100001N1+01551+01371101251ADDGF108991081071000751999999MA1999999101071MD1210081+9999REMSYN076AAXX  17094 68300 42160 83606 10155 20137 30107 40125 52008 887// 555 91012;
0196683000999992000021712004-26630+015100FM-12+000099999V0203601N003110006019N0100001N1+01651+01391101111ADDAA199000091GF108991081061000751999999KA1120N+01461MA1999999100931MD1810101+9999REMSYN086AAXX  17124 68300 32160 83606 10165 20139 30093 40111 58010 886// 333 20146 555 91011;EQDQ01  00002PRCP99
0143683000999992000021715004-26630+015100FM-12+000099999V0203201N003110006019N0100001N1+01751+01671100931ADDGF107991071061000751999999MA1999999100751MD1710181+9999REMSYN076AAXX  17154 68300 42160 73206 10175 20167 30075 40093 57018 876// 555 91009;
0196683000999992000021718004-26630+015100FM-12+000099999V0203201N003110006019N0100001N1+01601+01421101071ADDAA199000091GF105991051051000751001001KA1120M+01751MA1999999100891MD1310141+9999REMSYN086AAXX  17184 68300 32160 53206 10160 20142 30089 40107 53014 85500 333 10175 555 91010;EQDQ01  00002PRCP99
0171683000999992000021721004-26630+015100FM-12+000099999V0203201N003110021019N0050001N1+01551+01461101111ADDAY141031AY221031GF108991081051002501999999MA1999999100931MD1210041+9999MW1401REMSYN082AAXX  17214 68300 41350 83206 10155 20146 30093 40111 52004 74042 885// 555 91011;
0211683000999992000021800004-26630+015100FM-12+000099999V0203201N003110003019N0005001N1+01461+01441101061ADDAA199000091AY141061AY201061GA1091+999999999GF109991091999999999999999MA1999999100881MD1310051+9999MW1471REMSYN076AAXX  18004 68300 31/05 93206 10146 20144 30088 40106 53005 74740 555 91010;EQDQ01  00002PRCP99
0181683000999992000021803004-26630+015100FM-12+000099999V0203201N003110006019N0009001N1+01431+01391100961ADDAY141031AY241031GA1091+999999999GF109991091999999999999999MA1999999100781MD1710101+9999MW1451REMSYN076AAXX  18034 68300 41/09 93206 10143 20139 30078 40096 57010 74544 555 91009;
