0157031360999992000010101004+55520-004580FM-12+002099999V0202501N003112200019N0120001N1+00751+00421101771ADDGA1021+015009059GF102991021051017501999001MD1110251+9999REMSYN070AAXX  01014 03136 42762 22506 10075 20042 40177 51025 82500 333 82650;EQDQ01    003SCOMCG
0157031360999992000010102004+55520-004580FM-12+002099999V0202101N000512200019N0120001N1+00611+00351101831ADDGA1011+015009059GF101991011051017501999001MD1110241+9999REMSYN070AAXX  01024 03136 42762 12101 10061 20035 40183 51024 81500 333 81650;EQDQ01    003SCOMCG
0138031360999992000010103004+55520-004580FM-12+002099999V0201601N001012200019N0110001N1+00531+00381101941ADDGA1011+013509059GF101991011051012501001001MD1310191+9999REMSYN070AAXX  01034 03136 42661 11602 10053 20038 40194 53019 81500 333 81645;
0166031360999992000010104004+55520-004580FM-12+002099999V0202401N004112200019N0100001N1+00671+00531102041ADDAY101999AY201999GA1011+009009059GF101991011051012501001001MD1310271+9999MW1101REMSYN076AAXX  01044 03136 41660 12408 10067 20053 40204 53027 71000 81500 333 81630;
0138031360999992000010105004+55520-004580FM-12+002099999V0202401N006212200019N0110001N1+00701+00511101991ADDGA1011+005409029GF102991021081004501001001MD1010161+9999REMSYN070AAXX  01054 03136 42461 22412 10070 20051 40199 50016 82800 333 81818;
0198031360999992000010106004+55520-004580FM-12+002099999V0202101N003612200019N0120001N1+00571+00421102051ADDAA112000791GA1011+009009059GF101991011051012501001001IA1099IA2999+00109KA1120N+00421MD1110111+9999REMSYN088AAXX  01064 03136 12662 12107 10057 20042 40205 51011 69902 81500 333 20042 31001 81630;
0138031360999992000010107004+55520-004580FM-12+002099999V0201901N004112200019N0120001N1+00441+00291102071ADDGA1011+009009059GF101991011051012501001001MD1310031+9999REMSYN070AAXX  01074 03136 42662 11908 10044 20029 40207 53003 81500 333 81630;
0138031360999992000010108004+55520-004580FM-12+002099999V0201901N004612200019N0120001N1+00401+00251102081ADDGA1021+009009059GF102991021051012501001001MD1110091+9999REMSYN070AAXX  01084 03136 42662 21909 10040 20025 40208 51009 82500 333 82630;
0138031360999992000010109004+55520-004580FM-12+002099999V0201501N002612200019N0120001N1+00451+00271102131ADDGA1011+009009059GF103991011051012501071011MD1210081+9999REMSYN070AAXX  01094 03136 42662 31505 10045 20027 40213 52008 81571 333 81630;
0166031360999992000010110004+55520-004580FM-12+002099999V0201901N00461030001CN0150001N1+00491+00261102141ADDGA1011+005409089GA2031+024009039GF106991021081004501071021MD1210071+9999REMSYN082AAXX  01104 03136 42465 61909 10049 20026 40214 52007 82872 333 81818 83358 85075;
0144031360999992000010111004+55520-004580FM-12+002099999V0202201N005110750019N0120001N1+00711+00501102161ADDGA1011+005409089GF107991031081004501001081MD1210081+9999REMSYN076AAXX  01114 03136 42462 72210 10071 20050 40216 52008 83808 333 81818 87275;
0174031360999992000010112004+55520-004580FM-12+002099999V0202301N008710750019N0120001N1+00721+00471102071ADDAA106000091GA1031+010509069GF107991031051012501001081MD1810061+9999REMSYN076AAXX  01124 03136 32662 72317 10072 20047 40207 58006 83508 333 83635 87275;EQDQ01  00002PRCP06
0144031360999992000010113004+55520-004580FM-12+002099999V0202101N007210105019N0150001N1+00761+00421102021ADDGA1051+010509069GF107991051051012501031061MD1810121+9999REMSYN076AAXX  01134 03136 42665 72114 10076 20042 40202 58012 85536 333 85635 86275;
0144031360999992000010114004+55520-004580FM-12+002099999V0202101N00721030001CN0150001N1+00761+00451101951ADDGA1041+009609069GF107991041051012501031061MD1710211+9999REMSYN076AAXX  01144 03136 42665 72114 10076 20045 40195 57021 84536 333 84632 87275;
0144031360999992000010115004+55520-004580FM-12+002099999V0202101N007210750019N0150001N1+00721+00451101931ADDGA1031+009609069GF107991031051012501001081MD1710141+9999REMSYN076AAXX  01154 03136 42665 72114 10072 20045 40193 57014 83508 333 83632 87275;
0144031360999992000010116004+55520-004580FM-12+002099999V0202101N007710096019N0150001N1+00751+00421101901ADDGA1051+009609069GF107991051051012501001081MD1710121+9999REMSYN076AAXX  01164 03136 42665 72115 10075 20042 40190 57012 85508 333 85632 86275;
0172031360999992000010117004+55520-004580FM-12+002099999V0202101N008210090019N0150001N1+00711+00441101921ADDGA1061+009009069GA2081+075009029GF108991061051012501999071MD1510031+9999REMSYN088AAXX  01174 03136 42665 82116 10071 20044 40192 55003 865/7 333 86630 88275 90710 91128;
0199031360999992000010118004+55520-004580FM-12+002099999V0202001N007710090019N0150001N1+00731+00411101901ADDAA106000091GA1071+009009069GF108991071051012501999021KA1120M+00771MD1710031+9999REMSYN088AAXX  01184 03136 32665 82015 10073 20041 40190 57003 875/2 333 10077 87630 90710 91127;EQDQ01  00002PRCP06
0150031360999992000010119004+55520-004580FM-12+002099999V0202001N008210090019N0150001N1+00721+00391101841ADDGA1081+009009069GF108991081051012501999999MD1810061+9999REMSYN082AAXX  01194 03136 42665 82016 10072 20039 40184 58006 885// 333 88630 90710 91127;
0172031360999992000010120004+55520-004580FM-12+002099999V0202001N008210090019N0200001N1+00721+00421101821ADDGA1011+005409089GA2071+009009069GF108991071081004501031999MD1710101+9999REMSYN088AAXX  01204 03136 42470 82016 10072 20042 40182 57010 8783/ 333 81818 87630 90710 91125;
0172031360999992000010121004+55520-004580FM-12+002099999V0201901N008210090019N0200001N1+00761+00421101771ADDGA1011+005409089GA2071+009009069GF108991071081004501031999MD1710131+9999REMSYN088AAXX  01214 03136 42470 81916 10076 20042 40177 57013 8783/ 333 81818 87630 90710 91126;
0172031360999992000010122004+55520-004580FM-12+002099999V0202001N007710075019N0200001N1+00781+00441101771ADDGA1021+005409089GA2071+007509069GF108991071081004501031999MD1610071+9999REMSYN088AAXX  01224 03136 42470 82015 10078 20044 40177 56007 8783/ 333 82818 87625 90710 91125;
0144031360999992000010123004+55520-004580FM-12+002099999V0202001N00621009001CN0200001N1+00811+00441101671ADDGA1011+005409089GF108991071081004501031999MD1710141+9999REMSYN076AAXX  01234 03136 42470 82012 10081 20044 40167 57014 8783/ 333 81818 87622;
0202031360999992000010200004+55520-004580FM-12+002099999V0202101N008710090019N0200001N1+00801+00461101611ADDAA106000091GA1011+005409089GA2071+009009069GF108991071081004501031999MD1810151+9999REMSYN088AAXX  02004 03136 32470 82117 10080 20046 40161 58015 8783/ 333 81818 87630 90710 91127;EQDQ01  00002PRCP06
0172031360999992000010201004+55520-004580FM-12+002099999V0202101N009810072019N0200001N1+00831+00501101601ADDGA1011+005409089GA2071+007209069GF108991071081004501031999MD1610161+9999REMSYN088AAXX  02014 03136 42470 82119 10083 20050 40160 56016 8783/ 333 81818 87624 90710 91130;
0178031360999992000010202004+55520-004580FM-12+002099999V0202101N009310051019N0080001N1+00861+00521101621ADDAY161999AY221999GA1081+005109069GF108991081051004501999999MD1510051+9999MW1601REMSYN088AAXX  02024 03136 41458 82118 10086 20052 40162 55005 76062 885// 333 88617 90710 91133;
0178031360999992000010203004+55520-004580FM-12+002099999V0202201N009310060019N0150001N1+00841+00631101681ADDAY161031AY221031GA1081+006009069GF108991081051008001999999MD1310071+9999MW1211REMSYN088AAXX  02034 03136 41565 82218 10084 20063 40168 53007 72162 885// 333 88620 90710 91129;
0194031360999992000010204004+55520-004580FM-12+002099999V0202101N008210066019N0200001N1+00841+00601101671ADDGA1011+005409089GA2061+006609069GA3081+012009069GF108991081081004501999999MD1010071+9999REMSYN094AAXX  02044 03136 42470 82116 10084 20060 40167 50007 888// 333 81818 86622 88640 90710 91128;
0200031360999992000010205004+55520-004580FM-12+002099999V0202301N010310066019N0150001N1+00841+00671101741ADDAY161999AY221999GA1011+005409089GA2071+006609069GF108991071081004501031999MD1210121+9999MW1211REMSYN094AAXX  02054 03136 41465 82320 10084 20067 40174 52012 72162 8783/ 333 81818 87622 90710 91130;
0282031360999992000010206004+55520-004580FM-12+002099999V0202401N009310066019N0080001N1+00851+00681101801ADDAA112000891AY161061AY221061GA1011+002109079GA2031+005409089GA3061+006609069GF107991061081002501011999IA1119IA2999+00609KA1120N+00691MD1310121+9999MW1601REMSYN118AAXX  02064 03136 11358 72418 10085 20068 40180 53012 69982 76062 8681/ 333 20069 32006 81707 83818 86622 90710 91127;
0222031360999992000010207004+55520-004580FM-12+002099999V0202601N00671007501CN0150001N1+00831+00631101911ADDAY161999AY221999GA1011+003609079GA2041+005409089GA3061+007509069GF107991061081004501031999MD1310231+9999MW1211REMSYN100AAXX  02074 03136 41465 72613 10083 20063 40191 53023 72162 8683/ 333 81712 84818 86625 90710 91125;
0144031360999992000010208004+55520-004580FM-12+002099999V0202501N006212200019N0150001N1+00821+00471101941ADDGA1011+003609079GF105991041081004501001011MD1210191+9999REMSYN076AAXX  02084 03136 42465 52512 10082 20047 40194 52019 84801 333 81712 83818;
0172031360999992000010209004+55520-004580FM-12+002099999V0202501N007210300019N0120001N1+00821+00521101981ADDAY161031AY221031GA1011+005409089GF105991031081004501031011MD1210171+9999MW1021REMSYN082AAXX  02094 03136 41462 52514 10082 20052 40198 52017 70262 83831 333 81818 83360;
0144031360999992000010210004+55520-004580FM-12+002099999V0202401N006210300019N0150001N1+00831+00501101981ADDGA1011+005409089GF105991031081004501031021MD1110071+9999REMSYN076AAXX  02104 03136 42465 52412 10083 20050 40198 51007 83832 333 81818 83360;
0144031360999992000010211004+55520-004580FM-12+002099999V0202401N005710750019N0150001N1+00861+00551101981ADDGA1011+005409089GF105991011011004501031021MD1110041+9999REMSYN076AAXX  02114 03136 42465 52411 10086 20055 40198 51004 81132 333 81818 85075;
0189031360999992000010212004+55520-004580FM-12+002099999V0202201N004610750019N0150001N1+00851+00661101911ADDAA106000191AY161061AY211061GA1011+005409089GF105991011011004501031041MD1810071+9999MW1021REMSYN088AAXX  02124 03136 11465 52209 10085 20066 40191 58007 69921 70261 81134 333 81818 85075;
0144031360999992000010213004+55520-004580FM-12+002099999V0201701N003110300019N0150001N1+00901+00681101881ADDGA1011+005409089GF106991011011004501051021MD1810091+9999REMSYN076AAXX  02134 03136 42465 61706 10090 20068 40188 58009 81152 333 81818 85360;
0166031360999992000010214004+55520-004580FM-12+002099999V0201801N00361030001CN0150001N1+00801+00621101781ADDGA1011+005409089GA2031+030009039GF107991011011004501071081MD1710201+9999REMSYN082AAXX  02144 03136 42465 71807 10080 20062 40178 57020 81178 333 81818 83360 87275;
0144031360999992000010215004+55520-004580FM-12+002099999V0201801N00311030001CN0180001N1+00791+00581101681ADDGA1011+007509069GF108991011041008001031999MD1710231+9999REMSYN076AAXX  02154 03136 42568 81806 10079 20058 40168 57023 8143/ 333 81625 88357;
0144031360999992000010216004+55520-004580FM-12+002099999V0201301N00261012001CN0180001N1+00771+00571101511ADDGA1031+009009069GF108991081051012501999999MD1710371+9999REMSYN076AAXX  02164 03136 42668 81305 10077 20057 40151 57037 885// 333 83630 88645;
0172031360999992000010217004+55520-004580FM-12+002099999V0201501N00671007501CN0150001N1+00801+00651101351ADDAY161999AY221999GA1041+007509069GF108991081051008001999999MD1710421+9999MW1601REMSYN082AAXX  02174 03136 41565 81513 10080 20065 40135 57042 76062 885// 333 84625 88635;
0208031360999992000010218004+55520-004580FM-12+002099999V0201701N00461004201CN0200001N1+00801+00671101261ADDAA112000191AY161061AY221061GA1041+005409069GF107991071051004501999999KA1120M+00901MD1610411+9999MW1211REMSYN094AAXX  02184 03136 11470 71709 10080 20067 40126 56041 69922 72162 875// 333 10090 84618 87635;
0222031360999992000010219004+55520-004580FM-12+002099999V0201901N007210048019N0200001N1+00881+00721100971ADDAY161999AY221999GA1011+003609079GA2051+004809069GA3081+008109069GF108991081051004501999999MD1810541+9999MW1211REMSYN100AAXX  02194 03136 41470 81914 10088 20072 40097 58054 72162 885// 333 81712 85616 88627 90710 91127;
0200031360999992000010220004+55520-004580FM-12+002099999V0202001N011310045019N0100001N1+00841+00721100861ADDAY161999AY221999GA1021+003609079GA2061+004509069GF108991081051004501999999MD1710491+9999MW1601REMSYN094AAXX  02204 03136 41460 82022 10084 20072 40086 57049 76062 885// 333 82712 86615 90710 91134;
0200031360999992000010221004+55520-004580FM-12+002099999V0201901N010310072019N0180001N1+00861+00711100741ADDAY161031AY221031GA1031+003009079GA2061+007209069GF108991081051004501999999MD1610521+9999MW1211REMSYN094AAXX  02214 03136 41468 81920 10086 20071 40074 56052 72162 885// 333 83710 86624 90710 91131;
0222031360999992000010222004+55520-004580FM-12+002099999V0201801N007710036019N0200001N1+00931+00771100561ADDAY161999AY221999GA1051+003609079GA2051+009009069GA3081+015009069GF108991081051004501999999MD1810411+9999MW1211REMSYN100AAXX  02224 03136 41470 81815 10093 20077 40056 58041 72162 885// 333 85712 85630 88650 90710 91131;
0222031360999992000010223004+55520-004580FM-12+002099999V0202001N012910024019N0050001N1+00961+00871100341ADDAY161999AY221999GA1051+002409079GA2061+003609079GA3081+012009069GF108991081051002501999999MD1810521+9999MW1621REMSYN100AAXX  02234 03136 41350 82025 10096 20087 40034 58052 76262 885// 333 85708 86712 88640 90710 91138;
0217031360999992000010300004+55520-004580FM-12+002099999V0201901N015910027019N0150001N1+01011+00891100201ADDAA106001091AY161061AY221061GA1061+002709079GA2061+007809069GF108991081071002501999999MD1710541+9999MW1211REMSYN100AAXX  03004 03136 11365 81931 10101 20089 40020 57054 60011 72162 887// 333 86709 86626 90710 91141;
0222031360999992000010301004+55520-004580FM-12+002099999V0202101N013910027019N0070001N1+01041+00911100211ADDAY161999AY221999GA1051+002709079GA2041+003609079GA3081+009009069GF108991081051002501999999MD1510351+9999MW1601REMSYN100AAXX  03014 03136 41357 82127 10104 20091 40021 55035 76062 885// 333 85709 84712 88630 90710 91143;
0200031360999992000010302004+55520-004580FM-12+002099999V0202501N013410030019N0100001N1+00971+00591100431ADDAY161999AY261999GA1051+003009079GA2061+008409069GF108991081051004501999999MD1310091+9999MW1611REMSYN094AAXX  03024 03136 41460 82526 10097 20059 40043 53009 76166 885// 333 85710 86628 90710 91145;
0222031360999992000010303004+55520-004580FM-12+002099999V0202401N013410054019N0140001N1+00881+00581100511ADDAY161031AY221031GA1021+003609079GA2041+005409089GA3061+012009069GF106991061081004501999999MD1210311+9999MW1211REMSYN100AAXX  03034 03136 41464 62426 10088 20058 40051 52031 72162 868// 333 82712 84818 86640 90710 91138;
0194031360999992000010304004+55520-004580FM-12+002099999V0202401N013910120019N0150001N1+00861+00541100551ADDGA1011+003609079GA2031+005409089GA3061+012009069GF107991071081004501999999MD1110341+9999REMSYN094AAXX  03044 03136 42465 72427 10086 20054 40055 51034 878// 333 81712 83818 86640 90710 91138;
0200031360999992000010305004+55520-004580FM-12+002099999V0202301N012910045019N0070001N1+00811+00561100581ADDAY181999AY221999GA1021+003609079GA2031+004509089GF105991051081004501001001MD1110151+9999MW1801REMSYN094AAXX  03054 03136 41457 52325 10081 20056 40058 51015 78082 85800 333 82712 83815 90710 91137;
0238031360999992000010306004+55520-004580FM-12+002099999V0202301N013412200019N0200001N1+00801+00511100661ADDAA112001091AY181061AY261061GA1041+005409089GF104991041081004501031001IA1099IA2999+00609KA1120N+00791MD1210151+9999MW1251REMSYN106AAXX  03064 03136 11470 42326 10080 20051 40066 52015 60012 72586 84830 333 20079 31006 84818 90710 91142;
0150031360999992000010307004+55520-004580FM-12+002099999V0202301N013912200019N0150001N1+00741+00521100691ADDGA1031+005409089GF103991031081004501031001MD1210141+9999REMSYN082AAXX  03074 03136 42465 32327 10074 20052 40069 52014 83830 333 83818 90710 91137;
0172031360999992000010308004+55520-004580FM-12+002099999V0202301N013410090019N0140001N1+00781+00511100761ADDGA1021+005409089GA2041+009009069GF106991061081004501031999MD1210181+9999REMSYN088AAXX  03084 03136 42464 62326 10078 20051 40076 52018 8683/ 333 82818 84630 90710 91140;
0200031360999992000010309004+55520-004580FM-12+002099999V0202301N01441009001CN0140001N1+00751+00521100801ADDAY181031AY211031GA1011+004209079GA2031+005409089GF106991061081004501999999MD1210141+9999MW1251REMSYN094AAXX  03094 03136 41464 62328 10075 20052 40080 52014 72581 868// 333 81714 83818 90710 91140;
0172031360999992000010310004+55520-004580FM-12+002099999V0202301N011810300019N0140001N1+00751+00521100891ADDGA1011+004209079GA2041+009009069GF106991041081004501031021MD1310201+9999REMSYN088AAXX  03104 03136 42464 62323 10075 20052 40089 53020 84832 333 81714 84630 90710 91136;
0200031360999992000010311004+55520-004580FM-12+002099999V0202501N01291009001CN0160001N1+00781+00491100971ADDAY181999AY221999GA1011+004209079GA2031+005409089GF107991061081004501031999MD1210211+9999MW1251REMSYN094AAXX  03114 03136 41466 72525 10078 20049 40097 52021 72582 8683/ 333 81714 83818 90710 91134;
0217031360999992000010312004+55520-004580FM-12+002099999V0202401N011310072019N0140001N1+00741+00491100991ADDAA106000191AY181061AY211061GA1021+004209079GA2051+007209069GF107991071081004501999999MD1110191+9999MW1251REMSYN100AAXX  03124 03136 11464 72422 10074 20049 40099 51019 69921 72581 878// 333 82714 85624 90710 91133;
0194031360999992000010313004+55520-004580FM-12+002099999V0202301N010810066019N0140001N1+00731+00471100961ADDGA1021+004209079GA2031+006609069GA3061+012009069GF107991071051004501071999MD1010071+9999REMSYN094AAXX  03134 03136 42464 72321 10073 20047 40096 50007 8757/ 333 82714 83622 86640 90710 91133;
0172031360999992000010314004+55520-004580FM-12+002099999V0202401N011810072019N0140001N1+00681+00471100971ADDGA1021+003609079GA2041+007209069GF107991071081004501071021MD1010001+9999REMSYN088AAXX  03144 03136 42464 72423 10068 20047 40097 50000 87872 333 82712 84624 90710 91132;
0194031360999992000010315004+55520-004580FM-12+002099999V0202401N01181007501CN0150001N1+00691+00361100981ADDGA1021+004209079GA2031+007509069GA3051+024009039GF107991031081004501071021MD1510011+9999REMSYN094AAXX  03154 03136 42465 72423 10069 20036 40098 55001 83872 333 82714 83625 85358 90710 91133;
0172031360999992000010316004+55520-004580FM-12+002099999V0202401N01181007501CN0150001N1+00691+00401100961ADDGA1021+004209079GA2031+007509069GF107991041081004501071021MD1010001+9999REMSYN088AAXX  03164 03136 42465 72423 10069 20040 40096 50000 84872 333 82714 83625 90710 91129;
0172031360999992000010317004+55520-004580FM-12+002099999V0202401N00981007801CN0180001N1+00671+00381101011ADDGA1021+004209079GA2031+007809069GF106991041081004501031011MD1210041+9999REMSYN088AAXX  03174 03136 42468 62419 10067 20038 40101 52004 84831 333 82714 83626 90710 91131;
0208031360999992000010318004+55520-004580FM-12+002099999V0202501N01231007801CN0160001N1+00681+00381101071ADDAA112000191GA1021+006009089GA2031+007809069GF106991031081008001031011KA1120M+00811MD1310091+9999REMSYN100AAXX  03184 03136 12566 62524 10068 20038 40107 53009 69922 83831 333 10081 82820 83626 90710 91133;
0172031360999992000010319004+55520-004580FM-12+002099999V0202401N010310114019N0180001N1+00641+00371101091ADDGA1021+006609089GA2031+011409069GF106991051081008001001011MD1210131+9999REMSYN088AAXX  03194 03136 42568 62420 10064 20037 40109 52013 85801 333 82822 83638 90710 91132;
0150031360999992000010320004+55520-004580FM-12+002099999V0202401N009312200019N0180001N1+00671+00311101081ADDGA1031+011409069GF103991031051012501001001MD1110071+9999REMSYN082AAXX  03204 03136 42668 32418 10067 20031 40108 51007 83500 333 83638 90710 91128;
0150031360999992000010321004+55520-004580FM-12+002099999V0202401N009312200019N0150001N1+00651+00371101111ADDGA1011+006609089GF103991031081008001001001MD1210041+9999REMSYN082AAXX  03214 03136 42565 32418 10065 20037 40111 52004 83800 333 81822 90710 91125;
0150031360999992000010322004+55520-004580FM-12+002099999V0202301N009312200019N0150001N1+00661+00351101161ADDGA1021+011409069GF102991021051012501001001MD1310071+9999REMSYN082AAXX  03224 03136 42665 22318 10066 20035 40116 53007 82500 333 82638 90710 91125;
0150031360999992000010323004+55520-004580FM-12+002099999V0202101N005110300019N0150001N1+00561+00311101161ADDGA1061+030009039GF106991061001999999071999MD1010071+9999REMSYN082AAXX  03234 03136 42965 62110 10056 20031 40116 50007 8607/ 333 86360 90710 91125;
0168031360999992000010400004+55520-004580FM-12+002099999V0201701N004112200019N0150001N1+00331+00191101111ADDAA106000091GA1021+030009079GF102991021001999999071001MD1810011+9999REMSYN070AAXX  04004 03136 32965 21708 10033 20019 40111 58001 82070 333 82360;EQDQ01  00002PRCP06
0144031360999992000010401004+55520-004580FM-12+002099999V0201801N003612200019N0120001N1+00321+00171101081ADDGA1021+030009039GF103991021001999999071011MD1710091+9999REMSYN076AAXX  04014 03136 42962 31807 10032 20017 40108 57009 82071 333 82360 83075;
0144031360999992000010402004+55520-004580FM-12+002099999V0201301N002612200019N0120001N1+00361+00231100981ADDGA1011+006609089GF104991011011008001071021MD1710181+9999REMSYN076AAXX  04024 03136 42562 41305 10036 20023 40098 57018 81172 333 81822 83362;
0166031360999992000010403004+55520-004580FM-12+002099999V0201901N00361030001CN0150001N1+00431+00321100891ADDGA1011+004509079GA2031+024009039GF106991011061004501071081MD1710221+9999REMSYN082AAXX  04034 03136 42465 61907 10043 20032 40089 57022 81678 333 81715 83358 86275;
0166031360999992000010404004+55520-004580FM-12+002099999V0201701N00461030001CN0150001N1+00521+00361100731ADDGA1011+004509089GA2031+024009039GF107991031081004501071081MD1710351+9999REMSYN082AAXX  04044 03136 42465 71709 10052 20036 40073 57035 83878 333 81815 83358 86275;
0144031360999992000010405004+55520-004580FM-12+002099999V0201701N00671030001CN0180001N1+00631+00411100601ADDGA1021+004509089GF107991031081004501071081MD1710371+9999REMSYN076AAXX  04054 03136 42468 71713 10063 20041 40060 57037 83878 333 82815 86275;
0245031360999992000010406004+55520-004580FM-12+002099999V0201801N006210180019N0200001N1+00661+00461100431ADDAA106000091GA1011+005409089GA2061+018009069GF107991061081004501999081IA1099IA2999+00109KA1120N+00291MD1710451+9999REMSYN100AAXX  04064 03136 32470 71812 10066 20046 40043 57045 868/8 333 20029 31001 81818 86656 90710 91125;EQDQ01  00002PRCP06
0144031360999992000010407004+55520-004580FM-12+002099999V0201801N00571009001CN0200001N1+00691+00491100301ADDGA1021+005409089GF106991061081004501999999MD1710421+9999REMSYN076AAXX  04074 03136 42470 61811 10069 20049 40030 57042 868// 333 82818 86650;
0172031360999992000010408004+55520-004580FM-12+002099999V0201901N00771012001CN0200001N1+00731+00531100141ADDGA1021+005409089GA2031+012009069GF106991041081004501031001MD1710461+9999REMSYN088AAXX  04084 03136 42470 61915 10073 20053 40014 57046 84830 333 82818 83640 90710 91126;
0222031360999992000010409004+55520-004580FM-12+002099999V0201901N009810270019N0160001N1+00811+00581099971ADDAY181031AY221031GA1021+005409089GA2041+012009069GA3061+027009039GF107991041081004501071021MD1810461+9999MW1251REMSYN100AAXX  04094 03136 41466 71919 10081 20058 49997 58046 72582 84872 333 82818 84640 86359 90710 91132;
0222031360999992000010410004+55520-004580FM-12+002099999V0201901N010810066019N0140001N1+00781+00631099851ADDAY181999AY261999GA1021+003609079GA2031+006609069GA3071+009009069GF108991071051004501071999MD1710451+9999MW1601REMSYN100AAXX  04104 03136 41464 81921 10078 20063 49985 57045 76086 8757/ 333 82712 83622 87630 90710 91136;
0244031360999992000010411004+55520-004580FM-12+002099999V0202501N011810066019N0120001N1+00501+00261099931ADDAY181999AY261999GA1021+003609079GA2021+004209099GA3041+006609069GA4071+009009069GF108991071031004501071999MD1510211+9999MW1881REMSYN106AAXX  04114 03136 41462 82523 10050 20026 49993 55021 78886 8737/ 333 82712 82914 84622 87630 90710 91145;
0239031360999992000010412004+55520-004580FM-12+002099999V0202601N010310060019N0180001N1+00581+00271099911ADDAA106002091AY181061AY261061GA1021+003609079GA2041+006009069GA3051+015009069GF107991051051004501071999MD1510061+9999MW1251REMSYN106AAXX  04124 03136 11468 72620 10058 20027 49991 55006 60021 72586 8557/ 333 82712 84620 85650 90710 91137;
0222031360999992000010413004+55520-004580FM-12+002099999V0202501N011810270019N0160001N1+00601+00291099941ADDAY181999AY221999GA1021+003609079GA2041+005109089GA3071+027009039GF107991041081004501071999MD1210091+9999MW1801REMSYN100AAXX  04134 03136 41466 72523 10060 20029 49994 52009 78082 8487/ 333 82712 84817 87359 90710 91133;
0200031360999992000010414004+55520-004580FM-12+002099999V0202601N011310300019N0180001N1+00481+00231100061ADDAY181999AY221999GA1011+003609079GA2041+005409089GF106991041081004501031001MD1310131+9999MW1251REMSYN094AAXX  04144 03136 41468 62622 10048 20023 40006 53013 72582 84830 333 81712 84818 90710 91146;
0222031360999992000010415004+55520-004580FM-12+002099999V0202501N015410048019N0160001N1+00481+00221100141ADDAY181031AY221031GA1011+003609079GA2021+004509099GA3031+004809089GF106991051031004501001011MD1210231+9999MW1801REMSYN100AAXX  04154 03136 41466 62530 10048 20022 40014 52023 78082 85301 333 81712 82915 83816 90710 91147;
0200031360999992000010416004+55520-004580FM-12+002099999V0202501N012310054019N0180001N1+00561+00211100211ADDAY181999AY221999GA1021+003609099GA2031+005409089GF106991051031004501031001MD1110271+9999MW1251REMSYN094AAXX  04164 03136 41468 62524 10056 20021 40021 51027 72582 85330 333 82912 83818 90710 91138;
0172031360999992000010417004+55520-004580FM-12+002099999V0202401N01291004201CN0180001N1+00521+00191100251ADDGA1011+004509099GA2031+005409089GF105991051091004501001001MD1110191+9999REMSYN088AAXX  04174 03136 42468 52425 10052 20019 40025 51019 85900 333 81915 83818 90710 91135;
0214031360999992000010418004+55520-004580FM-12+002099999V0202401N01341009001CN0180001N1+00521+00141100361ADDAA112003091AY181061AY221061GA1031+005409089GF105991051081004501001001KA1120M+00811MD1310221+9999MW1021REMSYN100AAXX  04184 03136 11468 52426 10052 20014 40036 53022 60032 70282 85800 333 10081 83818 90710 91137;
0150031360999992000010420004+55520-004580FM-12+002099999V0202401N01641009001CN0200001N1+00501+00231100391ADDGA1031+005409089GF105991051081004501001001MD1010141+9999REMSYN082AAXX  04204 03136 42470 52432 10050 20023 40039 50014 85800 333 83818 90710 91143;
0178031360999992000010421004+55520-004580FM-12+002099999V0202301N013912200019N0200001N1+00501+00231100501ADDAY181031AY211031GA1021+005409089GF104991041081004501001001MD1310141+9999MW1011REMSYN088AAXX  04214 03136 41470 42327 10050 20023 40050 53014 70181 84800 333 82818 90710 91141;
0150031360999992000010422004+55520-004580FM-12+002099999V0202301N014912200019N0180001N1+00491+00221100521ADDGA1011+005409089GF103991031081004501001001MD1310121+9999REMSYN082AAXX  04224 03136 42468 32329 10049 20022 40052 53012 83800 333 81818 90710 91140;
0150031360999992000010423004+55520-004580FM-12+002099999V0202101N009312200019N0150001N1+00441+00261100601ADDGA1011+005409089GF102991021081004501001001MD1210201+9999REMSYN082AAXX  04234 03136 42465 22118 10044 20026 40060 52020 82800 333 81818 90710 91138;
0217031360999992000010500004+55520-004580FM-12+002099999V0201801N007210075019N0180001N1+00371+00161100581ADDAA106000791AY181061AY211061GA1031+004809089GA2031+007509069GF106991061081004501999999MD1010071+9999MW1031REMSYN100AAXX  05004 03136 11468 61814 10037 20016 40058 50007 69901 70381 868// 333 83816 83625 90710 91127;
0172031360999992000010501004+55520-004580FM-12+002099999V0202001N007210360019N0180001N1+00431+00211100551ADDGA1011+005409089GA2051+036009039GF105991021081004501071001MD1010021+9999REMSYN088AAXX  05014 03136 42468 52014 10043 20021 40055 50002 82870 333 81818 85362 90710 91125;
0200031360999992000010502004+55520-004580FM-12+002099999V0202001N006210114019N0180001N1+00461+00211100501ADDAY161999AY221999GA1021+006609069GA2061+011409069GF107991071051008001999999MD1810101+9999MW1601REMSYN094AAXX  05024 03136 41568 72012 10046 20021 40050 58010 76062 875// 333 82622 86638 90710 91126;
0172031360999992000010503004+55520-004580FM-12+002099999V0201901N00821007501CN0200001N1+00521+00251100331ADDAY161031AY221031GA1011+007509069GF108991081051008001999999MD1810241+9999MW1211REMSYN082AAXX  05034 03136 41570 81916 10052 20025 40033 58024 72162 885// 333 81625 86638;
0200031360999992000010504004+55520-004580FM-12+002099999V0201901N009810060019N0080001N1+00571+00351100201ADDAY161999AY221999GA1061+006009069GA2081+008409069GF108991081051008001999999MD1710341+9999MW1601REMSYN094AAXX  05044 03136 41558 81919 10057 20035 40020 57034 76062 885// 333 86620 88628 90710 91127;
0222031360999992000010505004+55520-004580FM-12+002099999V0201901N010810072019N0100001N1+00591+00431100071ADDAY161999AY221999GA1021+006009069GA2061+007209069GA3081+009009069GF108991081051008001999999MD1610421+9999MW1621REMSYN100AAXX  05054 03136 41560 81921 10059 20043 40007 56042 76262 885// 333 82620 86624 88630 90710 91133;
0282031360999992000010506004+55520-004580FM-12+002099999V0201901N011810114019N0100001N1+00701+00521099921ADDAA112003091AY161061AY221061GA1041+007209069GA2061+011409069GA3081+013509069GF108991081051008001999999IA1119IA2999+00209KA1120N+00331MD1810411+9999MW1631REMSYN118AAXX  05064 03136 11560 81923 10070 20052 49992 58041 60032 76362 885// 333 20033 32002 84624 86638 88645 90710 91136;
0222031360999992000010507004+55520-004580FM-12+002099999V0201901N011310072019N0080001N1+00771+00611099811ADDAY161999AY221999GA1021+005409069GA2031+007209069GA3071+013509069GF107991071051004501999999MD1710391+9999MW1631REMSYN100AAXX  05074 03136 41458 71922 10077 20061 49981 57039 76362 875// 333 82618 83624 87645 90710 91135;
0200031360999992000010508004+55520-004580FM-12+002099999V0201901N012310150019N0120001N1+00871+00691099731ADDAY161999AY221999GA1031+005409069GA2061+015009069GF108991071051004501021999MD1610341+9999MW1211REMSYN094AAXX  05084 03136 41462 81924 10087 20069 49973 56034 72162 8752/ 333 83618 86650 90710 91138;
0200031360999992000010509004+55520-004580FM-12+002099999V0201901N012910150019N0150001N1+00941+00741099641ADDAY161031AY221031GA1021+003309079GA2051+015009069GF108991061051004501021021MD1710281+9999MW1021REMSYN094AAXX  05094 03136 41465 81925 10094 20074 49964 57028 70262 86522 333 82711 85650 90710 91139;
0222031360999992000010510004+55520-004580FM-12+002099999V0201901N015410054019N0090001N1+00961+00781099571ADDAY161999AY221999GA1021+003309079GA2031+005409069GA3081+015009069GF108991081051004501999999MD1710241+9999MW1601REMSYN100AAXX  05104 03136 41459 81930 10096 20078 49957 57024 76062 885// 333 82711 83618 88650 90710 91143;
0222031360999992000010511004+55520-004580FM-12+002099999V0201901N014910048019N0120001N1+01011+00781099561ADDAY161999AY221999GA1021+003609079GA2051+004809079GA3081+015009069GF108991081051004501999999MD1610171+9999MW1211REMSYN100AAXX  05114 03136 41462 81929 10101 20078 49956 56017 72162 885// 333 82712 85716 88650 90710 91145;
0239031360999992000010512004+55520-004580FM-12+002099999V0202001N014410072019N0140001N1+01041+00741099481ADDAA106000891AY161061AY221061GA1041+004809079GA2051+007209069GA3081+014409069GF108991081051004501999999MD1810151+9999MW1021REMSYN106AAXX  05124 03136 11464 82028 10104 20074 49948 58015 69981 70262 885// 333 84716 85624 88648 90710 91145;
0222031360999992000010513004+55520-004580FM-12+002099999V0201901N015410081019N0120001N1+01031+00731099381ADDAY121999AY221999GA1031+004209079GA2041+008109069GA3081+014409069GF108991081051004501999999MD1810181+9999MW1151REMSYN100AAXX  05134 03136 41462 81930 10103 20073 49938 58018 71522 885// 333 83714 84627 88648 90710 91146;
0200031360999992000010514004+55520-004580FM-12+002099999V0202001N013410069019N0120001N1+01011+00681099321ADDAY121999AY221999GA1031+004209079GA2031+006909069GF108991071051004501021999MD1710231+9999MW1151REMSYN094AAXX  05144 03136 41462 82026 10101 20068 49932 57023 71522 8752/ 333 83714 83623 90710 91145;
0200031360999992000010515004+55520-004580FM-12+002099999V0201901N015410054019N0130001N1+01021+00661099281ADDAY121031AY221031GA1021+003309079GA2031+005409069GF108991081051004501999999MD1610201+9999MW1151REMSYN094AAXX  05154 03136 41463 81930 10102 20066 49928 56020 71522 885// 333 82711 83618 90710 91148;
0200031360999992000010516004+55520-004580FM-12+002099999V0201901N014910069019N0120001N1+01011+00661099171ADDAY121999AY221999GA1051+006909069GA2081+013209069GF108991081051008001999999MD1710211+9999MW1151REMSYN094AAXX  05164 03136 41562 81929 10101 20066 49917 57021 71522 885// 333 85623 88644 90710 91149;
0178031360999992000010517004+55520-004580FM-12+002099999V0201901N013910060019N0120001N1+01001+00681099071ADDAY121999AY221999GA1061+006009069GF108991081051008001999999MD1710251+9999MW1151REMSYN088AAXX  05174 03136 41562 81927 10100 20068 49907 57025 71522 885// 333 86620 90710 91142;
0222031360999992000010519004+55520-004580FM-12+002099999V0201901N012310045019N0120001N1+00971+00781098851ADDAY161999AY261999GA1021+003609079GA2031+004509069GA3081+007209069GF108991081051004501999999MD1710321+9999MW1601REMSYN100AAXX  05194 03136 41462 81924 10097 20078 49885 57032 76066 885// 333 82712 83615 88624 90710 91142;
0200031360999992000010521004+55520-004580FM-12+002099999V0202101N010310240019N0160001N1+00981+00641098851ADDAY161031AY221031GA1031+007209069GA2051+024009039GF107991031051008001031021MD1610161+9999MW1211REMSYN094AAXX  05214 03136 41566 72120 10098 20064 49885 56016 72162 83532 333 83624 85358 90710 91141;
0172031360999992000010522004+55520-004580FM-12+002099999V0202001N010810240019N0160001N1+00951+00621098821ADDGA1031+007209069GA2071+024009039GF107991031051008001031999MD1710031+9999REMSYN088AAXX  05224 03136 42566 72021 10095 20062 49882 57003 8353/ 333 83624 87358 90710 91134;
0172031360999992000010601004+55520-004580FM-12+002099999V0202101N011310150019N0180001N1+00871+00391098871ADDGA1041+010209069GA2031+015009069GF107991041051012501031999MD1310051+9999REMSYN088AAXX  06014 03136 42668 72122 10087 20039 49887 53005 8453/ 333 84634 83650 90710 91140;
0200031360999992000010602004+55520-004580FM-12+002099999V0202001N012910090019N0120001N1+00841+00521098771ADDAY161999AY221999GA1021+006009069GA2051+009009069GF107991061051008001031999MD1810031+9999MW1601REMSYN094AAXX  06024 03136 41562 72025 10084 20052 49877 58003 76062 8653/ 333 82620 85630 90710 91139;
0200031360999992000010603004+55520-004580FM-12+002099999V0202201N013410090019N0120001N1+00881+00511098901ADDAY181031AY261031GA1021+006609089GA2061+009009069GF107991061081008001031999MD1310041+9999MW1801REMSYN094AAXX  06034 03136 41562 72226 10088 20051 49890 53004 78086 8683/ 333 82822 86630 90710 91142;
0200031360999992000010604004+55520-004580FM-12+002099999V0202301N012310120019N0140001N1+00851+00571099071ADDAY181999AY221999GA1031+006009089GA2051+012009069GF107991051081008001031999MD1310191+9999MW1251REMSYN094AAXX  06044 03136 41564 72324 10085 20057 49907 53019 72582 8583/ 333 83820 85640 90710 91140;
0172031360999992000010605004+55520-004580FM-12+002099999V0202301N007710066019N0140001N1+00821+00611099201ADDGA1011+004209079GA2041+006609069GF107991061051004501071999MD1210421+9999REMSYN088AAXX  06054 03136 42464 72315 10082 20061 49920 52042 8657/ 333 81714 84622 90710 91136;
0282031360999992000010606004+55520-004580FM-12+002099999V0202401N011810045019N0070001N1+00791+00571099341ADDAA112003091AY181061AY261061GA1021+003609079GA2061+004509069GA3071+009009069GF107991071051004501071999IA1119IA2999+00709KA1120N+00791MD1210431+9999MW1801REMSYN118AAXX  06064 03136 11457 72423 10079 20057 49934 52043 60032 78086 8757/ 333 20079 32007 82712 86615 87630 90710 91132;
0200031360999992000010607004+55520-004580FM-12+002099999V0203001N009310072019N0180001N1+00711+00471099621ADDAY181999AY221999GA1031+004809089GA2041+007209069GF107991071081004501071999MD1310551+9999MW1251REMSYN094AAXX  06074 03136 41468 73018 10071 20047 49962 53055 72582 8787/ 333 83816 84624 90710 91130;
0172031360999992000010608004+55520-004580FM-12+002099999V0203101N00931009001CN0220001N1+00651+00281099941ADDGA1021+006609069GA2031+009009069GF106991041051008001071999MD1310741+9999REMSYN088AAXX  06084 03136 42572 63118 10065 20028 49994 53074 8457/ 333 82622 83630 90710 91127;
0178031360999992000010609004+55520-004580FM-12+002099999V0203101N007712200019N0250001N1+00601+00221100151ADDAY181031AY261031GA1011+005109089GF103991031081004501071001MD1210811+9999MW1011REMSYN088AAXX  06094 03136 41475 33115 10060 20022 40015 52081 70186 83870 333 81817 90710 91127;
0138031360999992000010610004+55520-004580FM-12+002099999V0203101N008712200019N0300001N1+00561+00011100391ADDGA1011+005109029GF103991031081004501071001MD1110771+9999REMSYN070AAXX  06104 03136 42480 33117 10056 20001 40039 51077 83870 333 81817;
0138031360999992000010611004+55520-004580FM-12+002099999V0203101N006712200019N0300001N1+00581+00121100561ADDGA1011+005109029GF103991031081004501031001MD1210621+9999REMSYN070AAXX  06114 03136 42480 33113 10058 20012 40056 52062 83830 333 81817;
0189031360999992000010612004+55520-004580FM-12+002099999V0203001N009812200019N0300001N1+00651-00131100731ADDAA106000591AY181061AY211061GA1011+005109089GF103991031081004501001001MD1210581+9999MW1021REMSYN088AAXX  06124 03136 11480 33019 10065 21013 40073 52058 69941 70281 83800 333 81817 83631;
0138031360999992000010613004+55520-004580FM-12+002099999V0203101N006712200019N0300001N1+00641-00041100801ADDGA1011+005709029GF103991031081004501001001MD1110411+9999REMSYN070AAXX  06134 03136 42480 33113 10064 21004 40080 51041 83800 333 81819;
0138031360999992000010614004+55520-004580FM-12+002099999V0202801N006212200019N0300001N1+00731-00221100901ADDGA1011+006609029GF103991021081008001001021MD1210341+9999REMSYN070AAXX  06144 03136 42580 32812 10073 21022 40090 52034 82802 333 81822;
0144031360999992000010615004+55520-004580FM-12+002099999V0202601N005110750019N0300001N1+00691-00141100991ADDGA1021+009009069GF105991021051012501071021MD1210261+9999REMSYN076AAXX  06154 03136 42680 52610 10069 21014 40099 52026 82572 333 82630 84075;
0144031360999992000010616004+55520-004580FM-12+002099999V0202501N003612200019N0300001N1+00631-00101101081ADDGA1021+012009069GF104991021051012501001021MD1210271+9999REMSYN076AAXX  06164 03136 42680 42507 10063 21010 40108 52027 82502 333 82640 83075;
0144031360999992000010617004+55520-004580FM-12+002099999V0202501N005112200019N0300001N1+00631-00111101051ADDGA1021+011409069GF104991021051012501001021MD1010151+9999REMSYN076AAXX  06174 03136 42680 42510 10063 21011 40105 50015 82502 333 82638 83075;
0180031360999992000010618004+55520-004580FM-12+002099999V0201701N003610750019N0300001N1+00421-00011101101ADDAA112000591GA1021+010809069GF106991021051012501001021KA1120M+00791MD1210101+9999REMSYN088AAXX  06184 03136 12680 61707 10042 21001 40110 52010 69942 82502 333 10079 82636 85075;
0144031360999992000010620004+55520-004580FM-12+002099999V0201901N00571030001CN0180001N1+00431+00031101021ADDGA1011+010509069GF106991011051012501031021MD1810041+9999REMSYN076AAXX  06204 03136 42668 61911 10043 20003 40102 58004 81532 333 81635 85075;
0166031360999992000010621004+55520-004580FM-12+002099999V0201901N00721030001CN0180001N1+00511+00131100911ADDGA1011+010509069GA2031+030009039GF106991011051012501031021MD1810191+9999REMSYN082AAXX  06214 03136 42668 61914 10051 20013 40091 58019 81532 333 81635 83360 86075;
0172031360999992000010622004+55520-004580FM-12+002099999V0201901N010310240019N0160001N1+00581+00181100851ADDGA1031+010509069GA2051+024009039GF107991031051012501071021MD1710201+9999REMSYN088AAXX  06224 03136 42666 71920 10058 20018 40085 57020 83572 333 83635 85358 90710 91131;
0178031360999992000010623004+55520-004580FM-12+002099999V0202101N009810060019N0070001N1+00601+00371100801ADDAY161999AY221999GA1071+006009069GF108991081051008001999999MD1610211+9999MW1621REMSYN088AAXX  06234 03136 41557 82119 10060 20037 40080 56021 76262 885// 333 87620 90710 91130;
0217031360999992000010700004+55520-004580FM-12+002099999V0201901N011810060019N0090001N1+00571+00391100631ADDAA106003091AY161061AY261061GA1051+006009069GA2081+010509069GF108991081051008001999999MD1810271+9999MW1631REMSYN100AAXX  07004 03136 11559 81923 10057 20039 40063 58027 60031 76366 885// 333 85620 88635 90710 91135;
0200031360999992000010701004+55520-004580FM-12+002099999V0201901N012910066019N0070001N1+00661+00491100511ADDAY161999AY261999GA1021+003609079GA2071+006609069GF108991081051004501999999MD1710341+9999MW1631REMSYN094AAXX  07014 03136 41457 81925 10066 20049 40051 57034 76366 885// 333 82712 87622 90710 91136;
0178031360999992000010702004+55520-004580FM-12+002099999V0202101N011810054019N0140001N1+00741+00551100451ADDAY161999AY221999GA1071+005409069GF108991081051004501999999MD1610351+9999MW1211REMSYN088AAXX  07024 03136 41464 82123 10074 20055 40045 56035 72162 885// 333 87618 90710 91137;
0178031360999992000010703004+55520-004580FM-12+002099999V0202101N008210054019N0140001N1+00801+00551100451ADDAY161031AY221031GA1081+005409069GF108991081051004501999999MD1610181+9999MW1021REMSYN088AAXX  07034 03136 41464 82116 10080 20055 40045 56018 70262 885// 333 88618 90710 91134;
0150031360999992000010704004+55520-004580FM-12+002099999V0202101N012310054019N0140001N1+00831+00561100341ADDGA1051+005409069GF108991081051004501999999MD1810171+9999REMSYN082AAXX  07044 03136 42464 82124 10083 20056 40034 58017 885// 333 85618 90710 91138;
0194031360999992000010705004+55520-004580FM-12+002099999V0202101N011810054019N0180001N1+00881+00601100231ADDGA1021+004209079GA2061+005409069GA3081+007809069GF108991081051004501999999MD1810221+9999REMSYN094AAXX  07054 03136 42468 82123 10088 20060 40023 58022 885// 333 82714 86618 88626 90710 91135;
0282031360999992000010706004+55520-004580FM-12+002099999V0202101N01131018001CN0180001N1+00911+00591100201ADDAA112004191AY161061AY221061GA1011+004209079GA2041+006609069GA3061+018009069GF107991061051004501071999IA1119IA2999+00209KA1120N+00381MD1610251+9999MW1011REMSYN118AAXX  07064 03136 11468 72122 10091 20059 40020 56025 60042 70162 8657/ 333 20038 32002 81714 84622 86656 90710 91140;
0194031360999992000010707004+55520-004580FM-12+002099999V0202001N010810060019N0180001N1+00911+00621100181ADDGA1011+004209079GA2051+006009069GA3071+015009069GF107991071051004501071999MD1610161+9999REMSYN094AAXX  07074 03136 42468 72021 10091 20062 40018 56016 8757/ 333 81714 85620 87650 90710 91134;
0172031360999992000010708004+55520-004580FM-12+002099999V0201801N007710054019N0180001N1+00911+00641100121ADDGA1021+003609079GA2061+005409069GF107991071051004501999999MD1810111+9999REMSYN088AAXX  07084 03136 42468 71815 10091 20064 40012 58011 875// 333 82712 86618 90710 91132;
0172031360999992000010709004+55520-004580FM-12+002099999V0201701N008710045019N0150001N1+00951+00651100031ADDGA1021+003609079GA2071+004509069GF108991081051004501999999MD1710171+9999REMSYN088AAXX  07094 03136 42465 81717 10095 20065 40003 57017 885// 333 82712 87615 90710 91128;
0200031360999992000010710004+55520-004580FM-12+002099999V0202001N011310045019N0100001N1+00961+00711099891ADDAY161999AY221999GA1041+003009079GA2061+004509069GF108991081051004501999999MD1810281+9999MW1601REMSYN094AAXX  07104 03136 41460 82022 10096 20071 49989 58028 76062 885// 333 84710 86615 90710 91140;
0222031360999992000010711004+55520-004580FM-12+002099999V0202001N014910060019N0100001N1+01001+00711099801ADDAY161999AY261999GA1031+003609079GA2051+006009069GA3081+010509069GF108991081051004501999999MD1710311+9999MW1611REMSYN100AAXX  07114 03136 41460 82029 10100 20071 49980 57031 76166 885// 333 83712 85620 88635 90710 91144;
0239031360999992000010712004+55520-004580FM-12+002099999V0202001N013910036019N0100001N1+00941+00711099741ADDAA106000791AY161061AY261061GA1031+002709079GA2041+003609079GA3071+004509069GF108991081051002501999999MD1610291+9999MW1611REMSYN106AAXX  07124 03136 11360 82027 10094 20071 49974 56029 69901 76166 885// 333 83709 84712 87615 90710 91145;
0222031360999992000010713004+55520-004580FM-12+002099999V0202001N014910036019N0140001N1+00941+00711099601ADDAY161999AY221999GA1041+002409079GA2031+003609079GA3071+004809069GF108991081051002501999999MD1810291+9999MW1211REMSYN100AAXX  07134 03136 41364 82029 10094 20071 49960 58029 72162 885// 333 84708 83712 87616 90710 91143;
0222031360999992000010714004+55520-004580FM-12+002099999V0202001N014910042019N0080001N1+00951+00731099471ADDAY161999AY221999GA1041+002409079GA2031+004209079GA3071+004809069GF108991081051002501999999MD1810331+9999MW1601REMSYN100AAXX  07144 03136 41358 82029 10095 20073 49947 58033 76062 885// 333 84708 83714 87616 90710 91143;
0222031360999992000010715004+55520-004580FM-12+002099999V0202001N015410036019N0100001N1+00961+00761099331ADDAY161031AY261031GA1041+002409079GA2041+003609079GA3071+004809069GF108991081051002501999999MD1710411+9999MW1611REMSYN100AAXX  07154 03136 41360 82030 10096 20076 49933 57041 76166 885// 333 84708 84712 87616 90710 91145;
0222031360999992000010716004+55520-004580FM-12+002099999V0202001N01541006001CN0120001N1+01021+00761099261ADDAY161999AY221999GA1011+002409079GA2041+003609079GA3071+006009069GF107991071051002501999999MD1610331+9999MW1211REMSYN100AAXX  07164 03136 41362 72030 10102 20076 49926 56033 72162 875// 333 81708 84712 87620 90710 91146;
0222031360999992000010717004+55520-004580FM-12+002099999V0202401N012910030019N0070001N1+00781+00631099451ADDAY161999AY221999GA1021+001509079GA2051+003009079GA3061+005409069GF108991081051001501999999MD1510021+9999MW1621REMSYN100AAXX  07174 03136 41257 82425 10078 20063 49945 55002 76262 885// 333 82705 85710 86618 90710 91144;
0258031360999992000010718004+55520-004580FM-12+002099999V0202201N009310054019N0150001N1+00761+00471099391ADDAA112004191AY161061AY221061GA1031+003609079GA2041+005409069GA3071+009009069GF107991071051004501999999KA1120M+01051MD1310061+9999MW1621REMSYN112AAXX  07184 03136 11465 72218 10076 20047 49939 53006 60042 76262 875// 333 10105 83712 84618 87630 90710 91144;
0200031360999992000010719004+55520-004580FM-12+002099999V0202201N010810123019N0200001N1+00811+00521099391ADDAY161999AY221999GA1021+008409069GA2031+012309069GF108991071051008001071999MD1010121+9999MW1211REMSYN094AAXX  07194 03136 41570 82221 10081 20052 49939 50012 72162 8757/ 333 82628 83641 90710 91133;
0200031360999992000010720004+55520-004580FM-12+002099999V0202501N015910096019N0080001N1+00641+00461099561ADDAY161999AY221999GA1031+005709069GA2081+009609069GF108991081051004501999999MD1310111+9999MW1601REMSYN094AAXX  07204 03136 41458 82531 10064 20046 49956 53011 76062 885// 333 83619 88632 90710 91145;
0200031360999992000010721004+55520-004580FM-12+002099999V0202501N015910150019N0200001N1+00751+00191099591ADDAY161031AY221031GA1021+006609069GA2061+015009069GF108991071051008001071999MD1310201+9999MW1211REMSYN094AAXX  07214 03136 41570 82531 10075 20019 49959 53020 72162 8757/ 333 82622 86650 90710 91144;
0150031360999992000010722004+55520-004580FM-12+002099999V0202301N014912200019N0200001N1+00681+00071099671ADDGA1011+005409089GF103991021081004501071001MD1210281+9999REMSYN082AAXX  07224 03136 42470 32329 10068 20007 49967 52028 82870 333 81818 90710 91144;
0150031360999992000010723004+55520-004580FM-12+002099999V0202401N017012200019N0200001N1+00661+00021099721ADDGA1011+005409089GF103991031081004501071001MD1210161+9999REMSYN082AAXX  07234 03136 42470 32433 10066 20002 49972 52016 83870 333 81818 90710 91147;
0195031360999992000010800004+55520-004580FM-12+002099999V0202401N015912200019N0250001N1+00631+00001099781ADDAA106000591AY161061AY211061GA1021+009009069GF103991031051012501001001MD1210191+9999MW1021REMSYN094AAXX  08004 03136 11675 32431 10063 20000 49978 52019 69961 70261 83500 333 82630 90710 91147;
0150031360999992000010801004+55520-004580FM-12+002099999V0202301N015412200019N0200001N1+00611+00061099801ADDGA1031+009009069GF103991031051012501001001MD1210131+9999REMSYN082AAXX  08014 03136 42670 32330 10061 20006 49980 52013 83500 333 83630 90710 91143;
0172031360999992000010802004+55520-004580FM-12+002099999V0202301N013912200019N0200001N1+00601+00121099801ADDGA1011+006609089GA2031+009009069GF103991031081008001001001MD1110081+9999REMSYN088AAXX  08024 03136 42570 32327 10060 20012 49980 51008 83800 333 81822 83630 90710 91141;
0172031360999992000010803004+55520-004580FM-12+002099999V0202301N01441007501CN0180001N1+00631+00161099831ADDGA1011+008709069GA2031+015009069GF105991051051008001001001MD1210051+9999REMSYN088AAXX  08034 03136 42568 52328 10063 20016 49983 52005 85500 333 81629 83650 90710 91142;
0150031360999992000010804004+55520-004580FM-12+002099999V0202301N01591007501CN0200001N1+00621+00171099901ADDGA1031+007209069GF105991051051008001001001MD1210101+9999REMSYN082AAXX  08044 03136 42570 52331 10062 20017 49990 52010 85500 333 83624 90710 91147;
0172031360999992000010805004+55520-004580FM-12+002099999V0202301N015410150019N0200001N1+00631+00261099951ADDGA1031+006609069GA2051+015009069GF106991061051008001001001MD1210151+9999REMSYN088AAXX  08054 03136 42570 62330 10063 20026 49995 52015 86500 333 83622 85650 90710 91144;
0226031360999992000010806004+55520-004580FM-12+002099999V0202401N014410150019N0200001N1+00661+00301100061ADDAA112000591GA1031+006609069GA2051+015009069GF106991061051008001999999IA2999+00409KA1120N+00571MD1310231+9999REMSYN106AAXX  08064 03136 12570 62428 10066 20030 40006 53023 69962 865// 333 20057 3/004 83622 85650 90710 91139;
0172031360999992000010807004+55520-004580FM-12+002099999V0202301N01341009001CN0200001N1+00641+00291100141ADDGA1011+005709089GA2031+006009069GF106991061081004501999999MD1210241+9999REMSYN088AAXX  08074 03136 42470 62326 10064 20029 40014 52024 868// 333 81819 83620 90710 91139;
0172031360999992000010808004+55520-004580FM-12+002099999V0202301N012910060019N0200001N1+00651+00301100261ADDGA1041+005409089GA2051+006009069GF106991061081004501001001MD1210311+9999REMSYN088AAXX  08084 03136 42470 62325 10065 20030 40026 52031 86800 333 84818 85620 90710 91141;
0172031360999992000010809004+55520-004580FM-12+002099999V0202301N011310054019N0150001N1+00621+00281100331ADDGA1011+004209079GA2041+005409089GF106991051081004501031001MD1210271+9999REMSYN088AAXX  08094 03136 42465 62322 10062 20028 40033 52027 85830 333 81714 84818 90710 91138;
0172031360999992000010810004+55520-004580FM-12+002099999V0202301N013410054019N0200001N1+00641+00291100481ADDGA1011+004209079GA2041+005409089GF106991051081004501031999MD1210341+9999REMSYN088AAXX  08104 03136 42470 62326 10064 20029 40048 52034 8583/ 333 81714 84818 90710 91136;
0194031360999992000010811004+55520-004580FM-12+002099999V0202301N011810054019N0200001N1+00631+00281100531ADDGA1021+003609079GA2051+005409089GA3071+006009069GF107991071081004501999999MD1210271+9999REMSYN094AAXX  08114 03136 42470 72323 10063 20028 40053 52027 878// 333 82712 85818 87620 90710 91135;
0230031360999992000010812004+55520-004580FM-12+002099999V0202301N012310060019N0180001N1+00631+00211100601ADDAA106000091AY121061AY221061GA1041+005409089GA2071+006009069GF107991071081004501999999MD1110271+9999MW1151REMSYN094AAXX  08124 03136 31468 72324 10063 20021 40060 51027 71522 878// 333 84818 87620 90710 91137;EQDQ01  00002PRCP06
0222031360999992000010813004+55520-004580FM-12+002099999V0202301N012310054019N0150001N1+00621+00251100591ADDAY181999AY221999GA1021+003609079GA2051+005409089GA3071+006009069GF107991071081004501999999MD1110111+9999MW1801REMSYN100AAXX  08134 03136 41465 72324 10062 20025 40059 51011 78082 878// 333 82712 85818 87620 90710 91136;
0200031360999992000010814004+55520-004580FM-12+002099999V0202501N011310054019N0200001N1+00661+00181100661ADDAY181999AY221999GA1021+003609079GA2041+005409089GF106991061081004501031999MD1210131+9999MW1251REMSYN094AAXX  08144 03136 41470 62522 10066 20018 40066 52013 72582 8683/ 333 82712 84818 90710 91135;
0178031360999992000010815004+55520-004580FM-12+002099999V0202401N013912200019N0200001N1+00631+00111100651ADDAY181031AY211031GA1011+004209079GF102991021011004501031021MD1210051+9999MW1011REMSYN088AAXX  08154 03136 41470 22427 10063 20011 40065 52005 70181 82132 333 81714 90710 91136;
0172031360999992000010816004+55520-004580FM-12+002099999V0202401N013912200019N0200001N1+00601+00131100731ADDGA1011+003609079GA2011+004209099GF104991031031004501031021MD1210141+9999REMSYN088AAXX  08164 03136 42470 42427 10060 20013 40073 52014 83332 333 81712 81914 90710 91137;
0222031360999992000010817004+55520-004580FM-12+002099999V0202801N009310048019N0120001N1+00361+00161100881ADDAY181999AY211999GA1011+003609079GA2021+004209099GA3061+004809089GF106991061031004501999999MD1310211+9999MW1801REMSYN100AAXX  08174 03136 41462 62818 10036 20016 40088 53021 78081 863// 333 81712 82914 86816 90710 91137;
0258031360999992000010818004+55520-004580FM-12+002099999V0202401N014410054019N0080001N1+00561+00211100891ADDAA112000591AY181061AY211061GA1011+003609079GA2031+004209099GA3061+005409089GF108991081031004501999999KA1120M+00681MD1110231+9999MW1801REMSYN112AAXX  08184 03136 11458 82428 10056 20021 40089 51023 69942 78081 883// 333 10068 81712 83914 86818 90710 91138;
0222031360999992000010819004+55520-004580FM-12+002099999V0202801N011810060019N0180001N1+00341+00151100981ADDAY181999AY221999GA1011+003609079GA2031+004209099GA3051+006009089GF108991081031004501999999MD1110241+9999MW1801REMSYN100AAXX  08194 03136 41468 82823 10034 20015 40098 51024 78082 883// 333 81712 83914 85820 90710 91142;
0200031360999992000010820004+55520-004580FM-12+002099999V0202501N014412200019N0250001N1+00511+00131101031ADDAY181999AY211999GA1011+004509099GA2031+018009069GF104991041031004501001001MD1210151+9999MW1251REMSYN094AAXX  08204 03136 41475 42528 10051 20013 40103 52015 72581 84300 333 81915 83656 90710 91141;
0200031360999992000010821004+55520-004580FM-12+002099999V0202501N012910180019N0220001N1+00521+00161101121ADDAY181031AY211031GA1021+006009089GA2031+018009069GF105991051081008001001001MD1210231+9999MW1031REMSYN094AAXX  08214 03136 41572 52525 10052 20016 40112 52023 70381 85800 333 82820 83656 90710 91138;
0172031360999992000010822004+55520-004580FM-12+002099999V0202401N012310300019N0200001N1+00511+00111101211ADDGA1011+006009089GA2031+008109069GF105991041081008001071001MD1310231+9999REMSYN088AAXX  08224 03136 42570 52424 10051 20011 40121 53023 84870 333 81820 83627 90710 91138;
0178031360999992000010823004+55520-004580FM-12+002099999V0202401N011812200019N0250001N1+00451+00211101291ADDAY181999AY211999GA1011+004509089GF104991041081004501001001MD1110261+9999MW1251REMSYN088AAXX  08234 03136 41475 42423 10045 20021 40129 51026 72581 84800 333 81815 90710 91137;
0195031360999992000010900004+55520-004580FM-12+002099999V0202601N011310300019N0250001N1+00451+00201101351ADDAA106001091AY181061AY211061GA1011+004209089GF105991041081004501071001MD1210231+9999MW1251REMSYN094AAXX  09004 03136 11475 52622 10045 20020 40135 52023 60011 72581 84870 333 81814 90710 91133;
0178031360999992000010901004+55520-004580FM-12+002099999V0202501N012312200019N0160001N1+00391+00211101401ADDAY181999AY211999GA1021+006009089GF104991031081008001071001MD1110191+9999MW1251REMSYN088AAXX  09014 03136 41566 42524 10039 20021 40140 51019 72581 83870 333 82820 90710 91142;
0172031360999992000010902004+55520-004580FM-12+002099999V0202501N010310180019N0250001N1+00501+00181101471ADDGA1021+003909079GA2041+018009069GF106991061081004501999999MD1210181+9999REMSYN088AAXX  09024 03136 42475 62520 10050 20018 40147 52018 868// 333 82713 84656 90710 91130;
0200031360999992000010903004+55520-004580FM-12+002099999V0202501N008710120019N0250001N1+00441+00221101601ADDAY181031AY211031GA1021+003609079GA2051+012009069GF106991061081004501999999MD1310251+9999MW1251REMSYN094AAXX  09034 03136 41475 62517 10044 20022 40160 53025 72581 868// 333 82712 85640 90710 91133;
0178031360999992000010904004+55520-004580FM-12+002099999V0202701N005712200019N0250001N1+00421+00201101681ADDAY181999AY211999GA1011+004809089GF104991021081004501071001MD1310281+9999MW1251REMSYN088AAXX  09044 03136 41475 42711 10042 20020 40168 53028 72581 82870 333 81816 90710 91129;
0200031360999992000010905004+55520-004580FM-12+002099999V0202601N008710090019N0120001N1+00431+00221101791ADDAY181999AY211999GA1031+004209089GA2051+009009069GF108991071081004501071999MD1110321+9999MW1251REMSYN094AAXX  09054 03136 41462 82617 10043 20022 40179 51032 72581 8787/ 333 83814 85630 90710 91126;
0172031360999992000010907004+55520-004580FM-12+002099999V0202601N007210135019N0250001N1+00511+00271101921ADDGA1031+006609089GA2031+013509069GF105991051081008001071001MD1210241+9999REMSYN088AAXX  09074 03136 42575 52614 10051 20027 40192 52024 85870 333 83822 83645 90710 91125;
0172031360999992000010908004+55520-004580FM-12+002099999V0202501N00771004201CN0200001N1+00571+00261102021ADDAY181999AY221999GA1021+004509099GF106991061091004501999031MD1310231+9999MW1801REMSYN082AAXX  09084 03136 41470 62515 10057 20026 40202 53023 78082 869/3 333 82915 83818;
0222031360999992000010909004+55520-004580FM-12+002099999V0203201N004110051019N0050001N1+00301+00201102211ADDAY181031AY211031GA1031+004209099GA2031+005109089GA3081+006309069GF108991081091004501999999MD1310381+9999MW1801REMSYN100AAXX  09094 03136 41450 83208 10030 20020 40221 53038 78081 889// 333 83914 83817 88621 90710 91129;
0172031360999992000010910004+55520-004580FM-12+002099999V0209999C00001004201CN0180001N1+00251+00151102291ADDAY181999AY221999GA1021+004509099GF105991051091004501001001MD1110371+9999MW1251REMSYN082AAXX  09104 03136 41468 50000 10025 20015 40229 51037 72582 85900 333 82915 83624;
0172031360999992000010911004+55520-004580FM-12+002099999V0209999C00001004201CN0150001N1+00321+00171102381ADDAY181999AY221999GA1011+004209099GF106991061031004501001001MD1110361+9999MW1251REMSYN082AAXX  09114 03136 41465 60000 10032 20017 40238 51036 72582 86300 333 81914 85622;
0183031360999992000010912004+55520-004580FM-12+002099999V0202401N008212200019N0200001N1+00411+00191102421ADDAA106003091AY181061AY211061GA1021+003909099GF103991031091004501001001MD1110211+9999MW1251REMSYN082AAXX  09124 03136 11470 32416 10041 20019 40242 51021 60031 72581 83900 333 82913;
0138031360999992000010913004+55520-004580FM-12+002099999V0202101N002112200019N0280001N1+00571+00281102471ADDGA1011+005409029GF102991021081004501001031MD1110181+9999REMSYN070AAXX  09134 03136 42478 22104 10057 20028 40247 51018 82803 333 81818;
0138031360999992000010914004+55520-004580FM-12+002099999V0202401N004112200019N0280001N1+00631+00271102551ADDGA1021+005409029GF104991031081004501001011MD1310171+9999REMSYN070AAXX  09144 03136 42478 42408 10063 20027 40255 53017 83801 333 82818;
0138031360999992000010915004+55520-004580FM-12+002099999V0202401N004612200019N0250001N1+00631+00261102571ADDGA1031+004809029GF103991031081004501001001MD1210151+9999REMSYN070AAXX  09154 03136 42475 32409 10063 20026 40257 52015 83800 333 83816;
0138031360999992000010916004+55520-004580FM-12+002099999V0202501N004112200019N0260001N1+00541+00261102621ADDGA1031+004809029GF103991031021004501001021MD1110151+9999REMSYN070AAXX  09164 03136 42476 32508 10054 20026 40262 51015 83202 333 83816;
0144031360999992000010917004+55520-004580FM-12+002099999V0201901N00151220001CN0200001N1+00401+00181102671ADDGA1041+004809089GF105991041081004501001011MD1310121+9999REMSYN076AAXX  09174 03136 42470 51903 10040 20018 40267 53012 84801 333 84816 83070;
0180031360999992000010918004+55520-004580FM-12+002099999V0201901N00461220001CN0170001N1+00381+00211102691ADDAA112003091GA1041+004509089GF106991041081004501001011KA1120M+00641MD1110121+9999REMSYN088AAXX  09184 03136 12467 61909 10038 20021 40269 51012 60032 84801 333 10064 84815 83070;
0144031360999992000010919004+55520-004580FM-12+002099999V0201701N002610090019N0200001N1+00311+00141102751ADDGA1031+005409089GF106991051081004501031011MD1210131+9999REMSYN076AAXX  09194 03136 42470 61705 10031 20014 40275 52013 85831 333 83818 84630;
0138031360999992000010920004+55520-004580FM-12+002099999V0201901N004612200019N0150001N1+00251+00101102761ADDGA1021+005409029GF103991021081004501031001MD1110081+9999REMSYN070AAXX  09204 03136 42465 31909 10025 20010 40276 51008 82830 333 82818;
0138031360999992000010921004+55520-004580FM-12+002099999V0201701N004112200019N0150001N1+00271+00101102761ADDGA1011+005409029GF101991011011004501001001MD1110061+9999REMSYN070AAXX  09214 03136 42465 11708 10027 20010 40276 51006 81100 333 81818;
0138031360999992000010922004+55520-004580FM-12+002099999V0201901N004112200019N0150001N1+00201+00071102741ADDGA1011+005409029GF101991011011004501001001MD1810021+9999REMSYN070AAXX  09224 03136 42465 11908 10020 20007 40274 58002 81100 333 81818;
0138031360999992000010923004+55520-004580FM-12+002099999V0201901N004612200019N0200001N1+00241+00111102691ADDGA1011+030009079GF101991011001999999031001MD1810071+9999REMSYN070AAXX  09234 03136 42970 11909 10024 20011 40269 58007 81030 333 81360;
0152031360999992000011000004+55520-004580FM-12+002099999V0201901N004112200019N0200001N1+00261+00071102651ADDAA106000091GA1001+999999999GF100991001001999999001001MD1710111+9999REMSYN054AAXX  10004 03136 32970 01908 10026 20007 40265 57011;EQDQ01  00002PRCP06
0157031360999992000011001004+55520-004580FM-12+002099999V0201901N007212200019N0200001N1+00421+00211102591ADDGA1031+015009059GF103991031051017501999001MD1710141+9999REMSYN070AAXX  10014 03136 42770 31914 10042 20021 40259 57014 83500 333 83650;EQDQ01    003SCOMCG
0138031360999992000011002004+55520-004580FM-12+002099999V0201901N006710120019N0200001N1+00501+00261102501ADDGA1051+012009059GF106991061051012501999999MD1810181+9999REMSYN070AAXX  10024 03136 42670 61913 10050 20026 40250 58018 865// 333 85640;
0150031360999992000011003004+55520-004580FM-12+002099999V0201901N010310120019N0200001N1+00521+00291102401ADDGA1041+012009069GF106991061051012501999999MD1810241+9999REMSYN082AAXX  10034 03136 42670 61920 10052 20029 40240 58024 865// 333 84640 90710 91128;
0172031360999992000011004004+55520-004580FM-12+002099999V0201901N010310150019N0200001N1+00621+00291102301ADDGA1031+009009069GA2041+015009069GF106991061051012501999999MD1710291+9999REMSYN088AAXX  10044 03136 42670 61920 10062 20029 40230 57029 865// 333 83630 84650 90710 91129;
0172031360999992000011005004+55520-004580FM-12+002099999V0201901N011810150019N0200001N1+00641+00351102191ADDGA1041+009009069GA2071+015009069GF108991071051012501031999MD1710311+9999REMSYN088AAXX  10054 03136 42670 81923 10064 20035 40219 57031 8753/ 333 84630 87650 90710 91133;
0260031360999992000011006004+55520-004580FM-12+002099999V0201901N012910090019N0120001N1+00711+00381102181ADDAA112000791AY161061AY211061GA1051+009009069GA2081+015009069GF108991081051012501999999IA1099IA2999+00009KA1120N+00191MD1610221+9999MW1601REMSYN112AAXX  10064 03136 11662 81925 10071 20038 40218 56022 69902 76061 885// 333 20019 31100 85630 88650 90710 91137;
0200031360999992000011007004+55520-004580FM-12+002099999V0202001N011310120019N0200001N1+00731+00431102121ADDAY161999AY221999GA1021+007509069GA2071+012009069GF108991081051008001999999MD1710181+9999MW1211REMSYN094AAXX  10074 03136 41570 82022 10073 20043 40212 57018 72162 885// 333 82625 87640 90710 91134;
0222031360999992000011008004+55520-004580FM-12+002099999V0202001N010310072019N0120001N1+00751+00481102081ADDAY161999AY221999GA1011+004509079GA2051+007209069GA3071+009009069GF108991081051004501999999MD1710111+9999MW1601REMSYN100AAXX  10084 03136 41462 82020 10075 20048 40208 57011 76062 885// 333 81715 85624 87630 90710 91133;
0222031360999992000011009004+55520-004580FM-12+002099999V0202001N010810060019N0140001N1+00761+00511102051ADDAY161031AY221031GA1021+003609079GA2031+006009069GA3061+009009069GF108991081051004501999999MD1610131+9999MW1211REMSYN100AAXX  10094 03136 41464 82021 10076 20051 40205 56013 72162 885// 333 82712 83620 86630 90710 91136;
0222031360999992000011010004+55520-004580FM-12+002099999V0202001N011310054019N0080001N1+00751+00561102031ADDAY161999AY221999GA1021+003609079GA2051+005409069GA3071+008409069GF108991081051004501999999MD1610091+9999MW1631REMSYN100AAXX  10104 03136 41458 82022 10075 20056 40203 56009 76362 885// 333 82712 85618 87628 90710 91132;
0200031360999992000011011004+55520-004580FM-12+002099999V0202001N010310054019N0200001N1+00771+00571102031ADDAY161999AY221999GA1021+004509079GA2071+005409069GF108991081051004501999999MD1610051+9999MW1211REMSYN094AAXX  10114 03136 41470 82020 10077 20057 40203 56005 72162 885// 333 82715 87618 90710 91135;
0217031360999992000011012004+55520-004580FM-12+002099999V0202101N010810054019N0200001N1+00851+00581101981ADDAA106003091AY161061AY221061GA1021+004509079GA2071+005409069GF108991081051004501999999MD1710071+9999MW1211REMSYN100AAXX  10124 03136 11470 82121 10085 20058 40198 57007 60031 72162 885// 333 82715 87618 90710 91136;
0194031360999992000011013004+55520-004580FM-12+002099999V0202101N009810060019N0180001N1+00881+00621101941ADDGA1021+004509079GA2061+006009069GA3081+013509069GF108991081051004501999999MD1810081+9999REMSYN094AAXX  10134 03136 42468 82119 10088 20062 40194 58008 885// 333 82715 86620 88645 90710 91140;
0222031360999992000011014004+55520-004580FM-12+002099999V0202201N010310048019N0080001N1+00871+00661101941ADDAY161999AY251999GA1031+003609079GA2061+004809069GA3081+006009069GF108991081051004501999999MD1610091+9999MW1581REMSYN100AAXX  10144 03136 41458 82220 10087 20066 40194 56009 75865 885// 333 83712 86616 88620 90710 91132;
0222031360999992000011015004+55520-004580FM-12+002099999V0202301N011810063019N0060001N1+00851+00711101961ADDAY161031AY251031GA1031+003909079GA2061+006309069GA3081+013509069GF108991081051004501999999MD1510021+9999MW1621REMSYN100AAXX  10154 03136 41456 82323 10085 20071 40196 55002 76265 885// 333 83713 86621 88645 90710 91133;
0200031360999992000011016004+55520-004580FM-12+002099999V0202301N008710114019N0070001N1+00841+00761102071ADDAY161999AY221999GA1031+004209079GA2061+011409069GF107991061051004501031011MD1310121+9999MW1631REMSYN094AAXX  10164 03136 41457 72317 10084 20076 40207 53012 76362 86531 333 83714 86638 90710 91133;
0172031360999992000011017004+55520-004580FM-12+002099999V0202101N00411030001CN0160001N1+00801+00671102141ADDAY161999AY221999GA1011+005409089GF106991041081004501031021MD1210201+9999MW1211REMSYN082AAXX  10174 03136 41466 62108 10080 20067 40214 52020 72162 84832 333 81818 84650;
0208031360999992000011018004+55520-004580FM-12+002099999V0202201N006710300019N0180001N1+00781+00651102171ADDAA112003091AY161061AY251061GA1011+005409089GF106991041081004501031021KA1120M+00911MD1110211+9999MW1021REMSYN094AAXX  10184 03136 11468 62213 10078 20065 40217 51021 60032 70265 84832 333 10091 81818 83623;
0138031360999992000011020004+55520-004580FM-12+002099999V0202301N007212200019N0180001N1+00771+00581102251ADDGA1011+015009059GF102991011051017501031011MD1210111+9999REMSYN070AAXX  10204 03136 42768 22314 10077 20058 40225 52011 81531 333 81650;
0138031360999992000011021004+55520-004580FM-12+002099999V0202401N007212200019N0180001N1+00771+00581102291ADDGA1011+015009059GF102991011051017501031001MD1210121+9999REMSYN070AAXX  10214 03136 42768 22414 10077 20058 40229 52012 81530 333 81650;
0138031360999992000011022004+55520-004580FM-12+002099999V0202101N005712200019N0150001N1+00661+00551102301ADDGA1011+003009069GF102991021061004501001001MD1210091+9999REMSYN070AAXX  10224 03136 42465 22111 10066 20055 40230 52009 82600 333 81710;
0138031360999992000011023004+55520-004580FM-12+002099999V0202201N006212200019N0150001N1+00711+00551102341ADDGA1021+003009069GF103991031061004501001001MD1210091+9999REMSYN070AAXX  10234 03136 42465 32212 10071 20055 40234 52009 83600 333 82710;
0174031360999992000011100004+55520-004580FM-12+002099999V0202101N00511004201CN0180001N1+00731+00571102351ADDAA106000091GA1021+003009079GF107991071051004501999999MD1210061+9999REMSYN076AAXX  11004 03136 32468 72110 10073 20057 40235 52006 875// 333 82710 83630;EQDQ01  00002PRCP06
0144031360999992000011101004+55520-004580FM-12+002099999V0202101N00721009001CN0150001N1+00711+00531102361ADDGA1031+003009079GF108991081081004501999999MD1110061+9999REMSYN076AAXX  11014 03136 42465 82114 10071 20053 40236 51006 888// 333 83710 87640;
0144031360999992000011102004+55520-004580FM-12+002099999V0202101N005112200019N0180001N1+00681+00481102361ADDGA1011+003009079GF104991041081004501001001MD1110021+9999REMSYN076AAXX  11024 03136 42468 42110 10068 20048 40236 51002 84800 333 81710 83630;
0144031360999992000011103004+55520-004580FM-12+002099999V0202001N007210090019N0150001N1+00671+00461102371ADDGA1041+003009079GF106991061081004501999999MD1210021+9999REMSYN076AAXX  11034 03136 42465 62014 10067 20046 40237 52002 868// 333 84710 85630;
0144031360999992000011104004+55520-004580FM-12+002099999V0202101N00621009001CN0150001N1+00671+00501102351ADDGA1021+003009079GF106991061081004501999999MD1810011+9999REMSYN076AAXX  11044 03136 42465 62112 10067 20050 40235 58001 868// 333 82710 84650;
0144031360999992000011105004+55520-004580FM-12+002099999V0202201N00671002101CN0140001N1+00661+00501102321ADDGA1011+002409079GF106991061051002501999999MD1810041+9999REMSYN076AAXX  11054 03136 42364 62213 10066 20050 40232 58004 865// 333 81708 85650;
0217031360999992000011106004+55520-004580FM-12+002099999V0202101N004612200019N0120001N1+00551+00421102311ADDAA106000091GA1011+003009079GF104991041051004501001001IA1099IA2999+00409KA1120N+00551MD1710061+9999REMSYN088AAXX  11064 03136 32462 42109 10055 20042 40231 57006 84500 333 20055 31004 81710 84650;EQDQ01  00002PRCP06
0144031360999992000011107004+55520-004580FM-12+002099999V0202201N007210750019N0120001N1+00591+00411102281ADDGA1011+003009079GF106991031051004501001021MD1710071+9999REMSYN076AAXX  11074 03136 42462 62214 10059 20041 40228 57007 83502 333 81710 83650;
0194031360999992000011108004+55520-004580FM-12+002099999V0202301N007710060019N0120001N1+00661+00481102271ADDGA1021+003009079GA2031+006009069GA3071+010509069GF107991071051004501999021MD1710051+9999REMSYN094AAXX  11084 03136 42462 72315 10066 20048 40227 57005 875/2 333 82710 83620 87635 90710 91126;
0144031360999992000011109004+55520-004580FM-12+002099999V0202301N00671004201CN0100001N1+00641+00471102261ADDGA1021+003609079GF107991051051004501001011MD1610051+9999REMSYN076AAXX  11094 03136 42460 72313 10064 20047 40226 56005 85501 333 82712 83622;
0144031360999992000011110004+55520-004580FM-12+002099999V0202201N005110300019N0120001N1+00651+00431102251ADDGA1021+004209079GF107991031051004501031021MD1710031+9999REMSYN076AAXX  11104 03136 42462 72210 10065 20043 40225 57003 83532 333 82714 83622;
0144031360999992000011111004+55520-004580FM-12+002099999V0202401N003110300019N0140001N1+00651+00401102221ADDGA1021+004209079GF107991031051004501071081MD1710051+9999REMSYN076AAXX  11114 03136 42464 72406 10065 20040 40222 57005 83578 333 82714 83630;
0174031360999992000011112004+55520-004580FM-12+002099999V0202101N00461030001CN0140001N1+00701+00421102081ADDAA106000091GA1011+004209079GF107991031051004501071081MD1810181+9999REMSYN076AAXX  11124 03136 32464 72109 10070 20042 40208 58018 83578 333 81714 86358;EQDQ01  00002PRCP06
0144031360999992000011113004+55520-004580FM-12+002099999V0202001N00621030001CN0120001N1+00751+00471101951ADDGA1011+004209079GF107991021051004501071081MD1710301+9999REMSYN076AAXX  11134 03136 42462 72012 10075 20047 40195 57030 82578 333 81714 85358;
0166031360999992000011114004+55520-004580FM-12+002099999V0202101N00411009601CN0120001N1+00751+00551101881ADDGA1021+004209079GA2031+009609069GF108991031051004501071081MD1610341+9999REMSYN082AAXX  11144 03136 42462 82108 10075 20055 40188 56034 83578 333 82714 83632 86358;
0194031360999992000011115004+55520-004580FM-12+002099999V0202001N004110066019N0060001N1+00741+00631101761ADDAY161031AY221031GA1031+003009079GA2051+006609069GF108991051051004501071999MD1710321+9999MW1601REMSYN088AAXX  11154 03136 41456 82008 10074 20063 40176 57032 76062 8557/ 333 83710 85622 88358;
0194031360999992000011116004+55520-004580FM-12+002099999V0201901N003610066019N0150001N1+00701+00421101731ADDAY161999AY221999GA1021+003609079GA2031+006609069GF107991051051004501071999MD1710221+9999MW1211REMSYN088AAXX  11164 03136 41465 71907 10070 20042 40173 57022 72162 8557/ 333 82712 83622 85650;
0194031360999992000011117004+55520-004580FM-12+002099999V0202001N004110054019N0140001N1+00671+00461101651ADDAY161999AY221999GA1031+003009079GA2051+005409069GF108991071051004501071999MD1710231+9999MW1601REMSYN088AAXX  11174 03136 41464 82008 10067 20046 40165 57023 76062 8757/ 333 83710 85618 87635;
0208031360999992000011118004+55520-004580FM-12+002099999V0202101N00461004201CN0100001N1+00711+00561101591ADDAA112000891AY161061AY261061GA1031+003309079GF108991081051004501999999KA1120M+00771MD1710171+9999MW1611REMSYN094AAXX  11184 03136 11460 82109 10071 20056 40159 57017 69982 76166 885// 333 10077 83711 88628;
0194031360999992000011119004+55520-004580FM-12+002099999V0201901N004110060019N0060001N1+00641+00551101561ADDAY161999AY221999GA1031+003609079GA2031+006009069GF108991081051004501999999MD1610171+9999MW1631REMSYN088AAXX  11194 03136 41456 81908 10064 20055 40156 56017 76362 885// 333 83712 83620 88628;
0194031360999992000011120004+55520-004580FM-12+002099999V0202201N005110060019N0060001N1+00651+00551101571ADDAY161999AY221999GA1031+003009079GA2051+006009069GF108991081051004501999999MD1510081+9999MW1631REMSYN088AAXX  11204 03136 41456 82210 10065 20055 40157 55008 76362 885// 333 83710 85620 88628;
0194031360999992000011121004+55520-004580FM-12+002099999V0201901N004110066019N0100001N1+00621+00511101501ADDAY161031AY261031GA1021+003609079GA2051+006609069GF108991081051004501999999MD1810091+9999MW1631REMSYN088AAXX  11214 03136 41460 81908 10062 20051 40150 58009 76366 885// 333 82712 85622 88632;
0194031360999992000011122004+55520-004580FM-12+002099999V0201701N00311004201CN0120001N1+00571+00501101531ADDAY161999AY221999GA1011+004509079GA2031+010509069GF108991061051004501071999MD1510031+9999MW1211REMSYN088AAXX  11224 03136 41462 81706 10057 20050 40153 55003 72162 8657/ 333 81715 83635 88357;
0166031360999992000011123004+55520-004580FM-12+002099999V0202301N005710060019N0200001N1+00641+00511101631ADDGA1021+002709079GA2031+006009069GF107991051051002501071999MD1310061+9999REMSYN082AAXX  11234 03136 42370 72311 10064 20051 40163 53006 8557/ 333 82709 83620 87362;
0211031360999992000011200004+55520-004580FM-12+002099999V0202201N005710072019N0200001N1+00671+00531101611ADDAA106004191AY161061AY221061GA1021+003009079GA2041+007209069GF107991051051004501071999MD1010111+9999MW1021REMSYN094AAXX  12004 03136 11470 72211 10067 20053 40161 50011 60041 70262 8557/ 333 82710 84624 86362;
0166031360999992000011201004+55520-004580FM-12+002099999V0202201N004610054019N0200001N1+00621+00491101561ADDGA1021+004509079GA2051+005409069GF107991051051004501071999MD1010031+9999REMSYN082AAXX  12014 03136 42470 72209 10062 20049 40156 50003 8557/ 333 82715 85618 86362;
0166031360999992000011202004+55520-004580FM-12+002099999V0202401N005710072019N0180001N1+00691+00491101571ADDGA1021+004509079GA2031+007209069GF107991061051004501071999MD1510061+9999REMSYN082AAXX  12024 03136 42468 72411 10069 20049 40157 55006 8657/ 333 82715 83624 85635;
0166031360999992000011203004+55520-004580FM-12+002099999V0202001N004110054019N0120001N1+00601+00491101521ADDGA1021+003609079GA2031+005409079GF107991061051004501071999MD1710091+9999REMSYN082AAXX  12034 03136 42462 72008 10060 20049 40152 57009 8657/ 333 82712 83718 86624;
0194031360999992000011204004+55520-004580FM-12+002099999V0202001N004110045019N0100001N1+00591+00461101511ADDAY151011AY221011GA1021+003609079GA2031+004509079GF108991081051004501999999MD1810051+9999MW1501REMSYN088AAXX  12044 03136 41460 82008 10059 20046 40151 58005 75052 885// 333 82712 83715 85618;
0194031360999992000011205004+55520-004580FM-12+002099999V0202101N005110072019N0150001N1+00581+00451101481ADDAY151021AY221021GA1031+004509079GA2031+007209089GF107991071081004501999999MD1710091+9999MW1511REMSYN088AAXX  12054 03136 41465 72110 10058 20045 40148 57009 75152 878// 333 83715 83824 86630;
0232031360999992000011206004+55520-004580FM-12+002099999V0201901N004610024019N0100001N1+00581+00461101441ADDAA112004191AY151061AY221061GA1061+002409079GF108991081051002501999999IA1119IA2999+00409KA1120N+00561MD1810081+9999MW1511REMSYN100AAXX  12064 03136 11360 81909 10058 20046 40144 58008 60042 75152 885// 333 20056 32004 86708 88620;
0194031360999992000011207004+55520-004580FM-12+002099999V0202201N005710045019N0120001N1+00641+00521101431ADDAY151999AY221999GA1021+002409079GA2031+004509079GF107991071051002501071999MD1710081+9999MW1201REMSYN088AAXX  12074 03136 41362 72211 10064 20052 40143 57008 72052 8757/ 333 82708 83715 87645;
0166031360999992000011208004+55520-004580FM-12+002099999V0202301N007210054019N0160001N1+00671+00501101421ADDGA1021+003609079GA2031+005409069GF107991061051004501071999MD1610061+9999REMSYN082AAXX  12084 03136 42466 72314 10067 20050 40142 56006 8657/ 333 82712 83618 85628;
0194031360999992000011209004+55520-004580FM-12+002099999V0202301N006710048019N0160001N1+00681+00451101471ADDAY151031AY221031GA1021+003609079GA2041+004809069GF107991051051004501071999MD1310031+9999MW1021REMSYN088AAXX  12094 03136 41466 72313 10068 20045 40147 53003 70252 8557/ 333 82712 84616 85628;
0144031360999992000011210004+55520-004580FM-12+002099999V0202401N006210300019N0200001N1+00701+00321101461ADDGA1031+003609079GF107991041051004501071999MD1210031+9999REMSYN076AAXX  12104 03136 42470 72412 10070 20032 40146 52003 8457/ 333 83712 84620;
0144031360999992000011211004+55520-004580FM-12+002099999V0202601N004110300019N0200001N1+00671+00371101501ADDGA1021+003609079GF107991041051004501071999MD1210081+9999REMSYN076AAXX  12114 03136 42470 72608 10067 20037 40150 52008 8457/ 333 82712 84620;
0189031360999992000011212004+55520-004580FM-12+002099999V0202601N007710300019N0120001N1+00601+00321101491ADDAA106000191AY161061AY251061GA1021+003609079GF107991041051004501071999MD1210021+9999MW1601REMSYN088AAXX  12124 03136 11462 72615 10060 20032 40149 52002 69921 76065 8457/ 333 82712 84620;
0194031360999992000011213004+55520-004580FM-12+002099999V0202501N00461006601CN0180001N1+00611+00301101441ADDAY161999AY221999GA1021+003609079GA2031+006609069GF107991041081004501071999MD1810021+9999MW1211REMSYN088AAXX  12134 03136 41468 72509 10061 20030 40144 58002 72162 8487/ 333 82712 83622 87359;
0144031360999992000011214004+55520-004580FM-12+002099999V0202601N00511030001CN0200001N1+00611+00151101411ADDGA1031+005109089GF107991031081004501071999MD1710091+9999REMSYN076AAXX  12144 03136 42470 72610 10061 20015 40141 57009 8387/ 333 83817 87359;
0172031360999992000011215004+55520-004580FM-12+002099999V0202501N00361009001CN0180001N1+00611+00291101371ADDAY161031AY221031GA1011+004209079GF107991051081004501071999MD1710121+9999MW1601REMSYN082AAXX  12154 03136 41468 72507 10061 20029 40137 57012 76062 8587/ 333 81714 83818;
0172031360999992000011216004+55520-004580FM-12+002099999V0202401N004610300019N0180001N1+00611+00201101351ADDAY161999AY221999GA1011+004209079GF107991041081004501071999MD1610091+9999MW1211REMSYN082AAXX  12164 03136 41468 72409 10061 20020 40135 56009 72162 8487/ 333 81714 83818;
0138031360999992000011217004+55520-004580FM-12+002099999V0202601N005110300019N0250001N1+00611+00061101351ADDGA1031+005409029GF107991041081004501071999MD1610061+9999REMSYN070AAXX  12174 03136 42475 72610 10061 20006 40135 56006 8487/ 333 83818;
0202031360999992000011218004+55520-004580FM-12+002099999V0203401N003110300019N0250001N1+00361+00141101351ADDAA112000191AY161061AY221061GA1031+005409029GF107991041081004501071999KA1120M+00711MD1610021+9999MW1021REMSYN088AAXX  12184 03136 11475 73406 10036 20014 40135 56002 69922 70262 8487/ 333 10071 83818;
0166031360999992000011219004+55520-004580FM-12+002099999V0200201N002110120019N0250001N1+00331+00141101381ADDGA1031+005409089GA2041+012009069GF107991051081004501071999MD1310031+9999REMSYN082AAXX  12194 03136 42475 70204 10033 20014 40138 53003 8587/ 333 83818 84640 86357;
0144031360999992000011220004+55520-004580FM-12+002099999V0209999C00001009001CN0200001N1+00311+00141101381ADDGA1011+005409089GF107991071081004501999999MD1210031+9999REMSYN076AAXX  12204 03136 42470 70000 10031 20014 40138 52003 878// 333 81818 84635;
0166031360999992000011221004+55520-004580FM-12+002099999V0209999C000010210019N0150001N1+00311+00121101381ADDGA1021+010509069GA2031+021009039GF106991021051012501031081MD1110031+9999REMSYN082AAXX  12214 03136 42665 60000 10031 20012 40138 51003 82538 333 82635 83357 86270;
0144031360999992000011222004+55520-004580FM-12+002099999V0209999C000012200019N0180001N1+00191+00061101351ADDGA1021+013509069GF104991021051012501001011MD1610031+9999REMSYN076AAXX  12224 03136 42668 40000 10019 20006 40135 56003 82501 333 82645 84075;
0166031360999992000011223004+55520-004580FM-12+002099999V0209999C000012200019N0150001N1+00081-00031101351ADDAY101999AY201999GA1021+075009019GF102991001001999999001011MD1710031+9999MW1051REMSYN076AAXX  12234 03136 41965 20000 10008 21003 40135 57003 70500 80001 333 82075;
0196031360999992000011300004+55520-004580FM-12+002099999V0209999C000012200019N0150001N1+00031-00081101381ADDAA106000091AY111061AY211061GA1011+075009019GF101991001001999999001011MD1510001+9999MW1051REMSYN076AAXX  13004 03136 31965 10000 10003 21008 40138 55000 70511 80001 333 81075;EQDQ01  00002PRCP06
0166031360999992000011301004+55520-004580FM-12+002099999V0209999C000012200019N0120001N1+00011-00081101401ADDAY101999AY201999GA1021+075009019GF102991001001999999001021MD1310051+9999MW1051REMSYN076AAXX  13014 03136 41962 20000 10001 21008 40140 53005 70500 80002 333 82075;
0166031360999992000011302004+55520-004580FM-12+002099999V0209999C000012200019N0120001N1-00091-00181101401ADDAY101999AY201999GA1021+075009019GF102991001001999999001021MD1010041+9999MW1051REMSYN076AAXX  13024 03136 41962 20000 11009 21018 40140 50004 70500 80002 333 82075;
0166031360999992000011303004+55520-004580FM-12+002099999V0209999C000012200019N0120001N1-00071-00131101421ADDAY111031AY211031GA1011+005409029GF102991011011004501001011MD1210031+9999MW1051REMSYN076AAXX  13034 03136 41462 20000 11007 21013 40142 52003 70511 81101 333 81818;
0166031360999992000011304004+55520-004580FM-12+002099999V0209999C000012200019N0120001N1-00101-00191101461ADDAY101999AY201999GA1021+005409029GF103991031081004501001001MD1310051+9999MW1051REMSYN076AAXX  13044 03136 41462 30000 11010 21019 40146 53005 70500 83800 333 82818;
0166031360999992000011305004+55520-004580FM-12+002099999V0209999C000012200019N0120001N1-00161-00191101481ADDAY101999AY201999GA1011+075009019GF101991001001999999001011MD1210081+9999MW1051REMSYN076AAXX  13054 03136 41962 10000 11016 21019 40148 52008 70500 80001 333 81075;
0239031360999992000011306004+55520-004580FM-12+002099999V0209999C000012200019N0120001N1-00041-00101101481ADDAA106000091AY111061AY211061GA1011+002409069GF103991021051002501001011IA1149IA2999-00609KA1120N-00191MD1110071+9999MW1051REMSYN088AAXX  13064 03136 31362 30000 11004 21010 40148 51007 70511 82501 333 21019 34106 81708;EQDQ01  00002PRCP06
0172031360999992000011307004+55520-004580FM-12+002099999V0209999C000012200019N0110001N1-00101-00141101521ADDAY101999AY201999GA1011+007809069GF103991031051008001001011MD1210061+9999MW1051REMSYN082AAXX  13074 03136 41561 30000 11010 21014 40152 52006 70500 83501 333 81626 83632;
0144031360999992000011308004+55520-004580FM-12+002099999V0209999C00001007501CN0180001N1+00051-00081101511ADDGA1031+006309069GF106991061051008001999999MD1110041+9999REMSYN076AAXX  13084 03136 42568 60000 10005 21008 40151 51004 865// 333 83621 84637;
0144031360999992000011309004+55520-004580FM-12+002099999V0202801N00311004201CN0220001N1+00261+00131101501ADDGA1011+004509099GF105991051091004501001001MD1010021+9999REMSYN076AAXX  13094 03136 42472 52806 10026 20013 40150 50002 85900 333 81915 83626;
0144031360999992000011310004+55520-004580FM-12+002099999V0203001N00361004201CN0300001N1+00391+00161101541ADDGA1011+004809099GF105991051091004501001001MD1310031+9999REMSYN076AAXX  13104 03136 42480 53007 10039 20016 40154 53003 85900 333 81916 83627;
0172031360999992000011311004+55520-004580FM-12+002099999V0203301N00261004201CN0300001N1+00411+00181101551ADDAY181999AY221999GA1011+004809099GF106991061091004501999999MD1310041+9999MW1251REMSYN082AAXX  13114 03136 41480 63305 10041 20018 40155 53004 72582 869// 333 81916 83820;
0189031360999992000011312004+55520-004580FM-12+002099999V0203201N00311004201CN0220001N1+00451+00141101531ADDAA106000591AY181061AY211061GA1011+004809099GF106991061091004501001001MD1110031+9999MW1161REMSYN088AAXX  13124 03136 11472 63206 10045 20014 40153 51003 69941 71681 86900 333 81916 83622;
0144031360999992000011313004+55520-004580FM-12+002099999V0203401N00361004201CN0300001N1+00511+00201101541ADDGA1011+004809099GF107991071091004501999999MD1510001+9999REMSYN076AAXX  13134 03136 42480 73407 10051 20020 40154 55000 879// 333 81916 84650;
0172031360999992000011314004+55520-004580FM-12+002099999V0200101N00511004201CN0300001N1+00491+00191101611ADDAY181999AY221999GA1011+004809099GF107991071091004501999999MD1310061+9999MW1801REMSYN082AAXX  13144 03136 41480 70110 10049 20019 40161 53006 78082 879// 333 81916 85637;
0194031360999992000011315004+55520-004580FM-12+002099999V0200401N00511004201CN0300001N1+00391+00131101731ADDAY181031AY221031GA1011+003909089GA2021+004809099GF105991051091004501041001MD1310201+9999MW1251REMSYN088AAXX  13154 03136 41480 50410 10039 20013 40173 53020 72582 85940 333 81813 82916 83639;
0138031360999992000011316004+55520-004580FM-12+002099999V0200501N006212200019N0250001N1+00231+00011101881ADDGA1011+004209029GF103991031081004501041001MD1310341+9999REMSYN070AAXX  13164 03136 42475 30512 10023 20001 40188 53034 83840 333 81814;
0138031360999992000011317004+55520-004580FM-12+002099999V0200501N002112200019N0250001N1+00151-00051102101ADDGA1021+006609029GF103991031041008001001001MD1310491+9999REMSYN070AAXX  13174 03136 42575 30504 10015 21005 40210 53049 83400 333 82822;
0202031360999992000011318004+55520-004580FM-12+002099999V0203601N003112200019N0200001N1+00041-00101102201ADDAA112000591AY181061AY211061GA1011+005109029GF102991021081004501001001KA1120M+00531MD1210471+9999MW1011REMSYN088AAXX  13184 03136 11470 23606 10004 21010 40220 52047 69942 70181 82800 333 10053 81817;
0138031360999992000011319004+55520-004580FM-12+002099999V0203301N003612200019N0250001N1+00121-00121102331ADDGA1011+005109029GF102991021081004501001001MD1110441+9999REMSYN070AAXX  13194 03136 42475 23307 10012 21012 40233 51044 82800 333 81817;
0142031360999992000011320004+55520-004580FM-12+002099999V0203601N004612200019N0250001N1+00121-00141102401ADDGA1011+005109029GF103991031081004501001001MD1210291+9999REMSYN074    AAXX  13204 03136 42475 33609 10012 21014 40240 52029 83800 333 81817;
0142031360999992000011321004+55520-004580FM-12+002099999V0200101N003612200019N0250001N1+00191-00191102481ADDGA1011+005109029GF103991021081004501031001MD1110281+9999REMSYN074    AAXX  13214 03136 42475 30107 10019 21019 40248 51028 82830 333 81817;
0142031360999992000011322004+55520-004580FM-12+002099999V0209999C000012200019N0250001N1+00001-00201102541ADDGA1011+005109029GF103991021081004501031001MD1210211+9999REMSYN074    AAXX  13224 03136 42475 30000 10000 21020 40254 52021 82830 333 81817;
0142031360999992000011323004+55520-004580FM-12+002099999V0203501N004612200019N0250001N1+00071-00151102561ADDGA1021+012609059GF102991021051012501001001MD1110161+9999REMSYN074    AAXX  13234 03136 42675 23509 10007 21015 40256 51016 82500 333 82642;
0153031360999992000011400004+55520-004580FM-12+002099999V0203501N004612200019N0250001N1+00201-00131102621ADDAA199000021GA1021+012609059GF102991021051012501001001MD1210141+9999REMSYN074    AAXX  14004 03136 32675 23509 10020 21013 40262 52014 82500 333 82642;
0148031360999992000011401004+55520-004580FM-12+002099999V0203301N00261009001CN0250001N1+00181-00091102681ADDGA1011+005409089GF105991051081004501001001MD1210141+9999REMSYN080    AAXX  14014 03136 42475 53305 10018 21009 40268 52014 85800 333 81818 84638;
0142031360999992000011402004+55520-004580FM-12+002099999V0203501N004612200019N0250001N1+00221-00121102741ADDGA1011+006009029GF103991031081008001001001MD1210181+9999REMSYN074    AAXX  14024 03136 42575 33509 10022 21012 40274 52018 83800 333 81820;
0142031360999992000011403004+55520-004580FM-12+002099999V0200101N004612200019N0250001N1+00251-00121102801ADDGA1021+012009059GF102991021051012501001001MD1210181+9999REMSYN074    AAXX  14034 03136 42675 20109 10025 21012 40280 52018 82500 333 82640;
0142031360999992000011404004+55520-004580FM-12+002099999V0203301N005112200019N0250001N1+00201-00131102911ADDGA1011+006009029GF102991021081008001001001MD1310231+9999REMSYN074    AAXX  14044 03136 42575 23310 10020 21013 40291 53023 82800 333 81820;
0142031360999992000011405004+55520-004580FM-12+002099999V0200201N004612200019N0250001N1+00261-00261102941ADDGA1021+012009059GF102991021051012501001001MD1210201+9999REMSYN074    AAXX  14054 03136 42675 20209 10026 21026 40294 52020 82500 333 82640;
0209031360999992000011406004+55520-004580FM-12+002099999V0203501N002112200019N0250001N1+00101-00271103041ADDAA199000091GA1021+012009059GF102991021051012501001001IA2999-00609KA1120N-00111MD1210241+9999REMSYN086    AAXX  14064 03136 32675 23504 10010 21027 40304 52024 82500 333 21011 3/106 82640;EQDQ01  00002PRCP99
0142031360999992000011407004+55520-004580FM-12+002099999V0209999C000012200019N0250001N1-00071-00321103111ADDGA1011+012009059GF101991011051012501001001MD1210201+9999REMSYN074    AAXX  14074 03136 42675 10000 11007 21032 40311 52020 81500 333 81640;
0142031360999992000011408004+55520-004580FM-12+002099999V0203501N004112200019N0350001N1+00101-00331103161ADDGA1011+006609029GF101991011081008001001001MD1210221+9999REMSYN074    AAXX  14084 03136 42581 13508 10010 21033 40316 52022 81800 333 81822;
0142031360999992000011409004+55520-004580FM-12+002099999V0203601N005712200019N0400001N1+00171-00341103201ADDGA1011+006609029GF102991021081008001001001MD1110161+9999REMSYN074    AAXX  14094 03136 42582 23611 10017 21034 40320 51016 82800 333 81822;
0142031360999992000011410004+55520-004580FM-12+002099999V0200201N004112200019N0500001N1+00191-00311103281ADDGA1011+007809059GF103991031051008001001001MD1210171+9999REMSYN074    AAXX  14104 03136 42584 30208 10019 21031 40328 52017 83500 333 81626;
0142031360999992000011411004+55520-004580FM-12+002099999V0200101N004612200019N0500001N1+00301-00341103331ADDGA1011+006609029GF102991021081008001001001MD1210171+9999REMSYN074    AAXX  14114 03136 42584 20109 10030 21034 40333 52017 82800 333 81822;
0130031360999992000011412004+55520-004580FM-12+002099999V0203401N003119999999N0280001N1+00381-00331103351ADDAA199000091MD1110151+9999REMSYN074    AAXX  14124 03136 36/78 /3406 10038 21033 40335 51015 555 7/090 80/99;EQDQ01  00002PRCP99
0142031360999992000011413004+55520-004580FM-12+002099999V0200201N007712200019N0500001N1+00401-00401103331ADDGA1011+006609029GF101991011081008001001001MD1010051+9999REMSYN074    AAXX  14134 03136 42584 10215 10040 21040 40333 50005 81800 333 81822;
0142031360999992000011414004+55520-004580FM-12+002099999V0200101N006212200019N0500001N1+00411-00421103381ADDGA1011+006009029GF101991011081008001001001MD1210051+9999REMSYN074    AAXX  14144 03136 42584 10112 10041 21042 40338 52005 81800 333 81820;
0142031360999992000011415004+55520-004580FM-12+002099999V0200101N004612200019N0500001N1+00401-00441103471ADDGA1011+005409029GF102991021081004501001001MD1310121+9999REMSYN074    AAXX  14154 03136 42484 20109 10040 21044 40347 53012 82800 333 81818;
0142031360999992000011416004+55520-004580FM-12+002099999V0200101N003612200019N0500001N1+00331-00401103521ADDGA1011+009609059GF103991031051012501001001MD1210191+9999REMSYN074    AAXX  14164 03136 42684 30107 10033 21040 40352 52019 83500 333 81632;
0142031360999992000011417004+55520-004580FM-12+002099999V0200201N004612200019N0400001N1+00201-00401103601ADDGA1021+013209059GF102991021051012501001001MD1210221+9999REMSYN074    AAXX  14174 03136 42682 20209 10020 21040 40360 52022 82500 333 82644;
0191031360999992000011418004+55520-004580FM-12+002099999V0200101N005712200019N0400001N1+00161-00421103651ADDAA199000091GA1011+008409059GF101991011051008001001001KA1120M+00421MD1210181+9999REMSYN080    AAXX  14184 03136 32582 10111 10016 21042 40365 52018 81500 333 10042 81628;EQDQ01  00002PRCP99
0142031360999992000011419004+55520-004580FM-12+002099999V0200301N004612200019N0250001N1+00041-00381103731ADDGA1011+012609059GF101991011051012501001001MD1210211+9999REMSYN074    AAXX  14194 03136 42675 10309 10004 21038 40373 52021 81500 333 81642;
0142031360999992000011420004+55520-004580FM-12+002099999V0200101N003612200019N0250001N1+00051-00401103791ADDGA1011+012609059GF101991011051012501001001MD1210191+9999REMSYN074    AAXX  14204 03136 42675 10107 10005 21040 40379 52019 81500 333 81642;
0142031360999992000011421004+55520-004580FM-12+002099999V0200101N002612200019N0250001N1-00101-00431103881ADDGA1011+012609059GF101991011051012501001001MD1210231+9999REMSYN074    AAXX  14214 03136 42675 10105 11010 21043 40388 52023 81500 333 81642;
0142031360999992000011422004+55520-004580FM-12+002099999V0209999C000012200019N0250001N1-00171-00451103941ADDGA1011+012609059GF101991011051012501001001MD1210201+9999REMSYN074    AAXX  14224 03136 42675 10000 11017 21045 40394 52020 81500 333 81642;
0142031360999992000011423004+55520-004580FM-12+002099999V0209999C000010126019N0200001N1-00101-00431103951ADDGA1061+012609059GF106991061051012501999999MD1110161+9999REMSYN074    AAXX  14234 03136 42670 60000 11010 21043 40395 51016 865// 333 86642;
0172031360999992000011500004+55520-004580FM-12+002099999V0209999C000010120019N0200001N1-00091-00381104001ADDAA199000091GA1061+012009059GF106991061051012501999999MD1110121+9999REMSYN074    AAXX  15004 03136 32670 60000 11009 21038 40400 51012 865// 333 86640;EQDQ01  00002PRCP99
0142031360999992000011501004+55520-004580FM-12+002099999V0209999C000010120019N0200001N1-00011-00381104001ADDGA1051+012009059GF105991051051012501001001MD1110071+9999REMSYN074    AAXX  15014 03136 42670 50000 11001 21038 40400 51007 85500 333 85640;
0142031360999992000011502004+55520-004580FM-12+002099999V0209999C000010120019N0200001N1-00081-00401104021ADDGA1051+012009059GF105991051051012501001001MD1110071+9999REMSYN074    AAXX  15024 03136 42670 50000 11008 21040 40402 51007 85500 333 85640;
0142031360999992000011503004+55520-004580FM-12+002099999V0209999C000010120019N0200001N1+00001-00331104071ADDGA1071+012009059GF107991071051012501999999MD1110071+9999REMSYN074    AAXX  15034 03136 42670 70000 10000 21033 40407 51007 875// 333 87640;
0142031360999992000011504004+55520-004580FM-12+002099999V0201501N002612200019N0200001N1-00011-00341104071ADDGA1041+012009059GF104991041051012501001001MD1110071+9999REMSYN074    AAXX  15044 03136 42670 41505 11001 21034 40407 51007 84500 333 84640;
0142031360999992000011505004+55520-004580FM-12+002099999V0209999C000012200019N0200001N1-00191-00401104081ADDGA1031+012009059GF103991031051012501001001MD1110051+9999REMSYN074    AAXX  15054 03136 42670 30000 11019 21040 40408 51005 83500 333 83640;
0209031360999992000011506004+55520-004580FM-12+002099999V0209999C000012200019N0200001N1-00231-00421104131ADDAA199000091GA1031+012009059GF103991031051012501001001IA2999-00709KA1120N-00251MD1110051+9999REMSYN086    AAXX  15064 03136 32670 30000 11023 21042 40413 51005 83500 333 21025 3/107 83640;EQDQ01  00002PRCP99
0142031360999992000011507004+55520-004580FM-12+002099999V0209999C000012200019N0200001N1-00191-00401104201ADDGA1031+012009059GF103991031051012501001001MD1310121+9999REMSYN074    AAXX  15074 03136 42670 30000 11019 21040 40420 53012 83500 333 83640;
0142031360999992000011508004+55520-004580FM-12+002099999V0209999C000012200019N0200001N1-00261-00461104231ADDGA1011+012009059GF102991011051012501001021MD1210151+9999REMSYN074    AAXX  15084 03136 42670 20000 11026 21046 40423 52015 81502 333 81640;
0148031360999992000011509004+55520-004580FM-12+002099999V0209999C000012200019N0250001N1-00231-00391104321ADDGA1011+012009069GF104991011051012501031021MD1210191+9999REMSYN080    AAXX  15094 03136 42675 40000 11023 21039 40432 52019 81532 333 81640 84075;
0148031360999992000011510004+55520-004580FM-12+002099999V0209999C000012200019N0250001N1-00101-00331104371ADDGA1011+006009089GF103991021081008001031021MD1210171+9999REMSYN080    AAXX  15104 03136 42575 30000 11010 21033 40437 52017 82832 333 81820 83075;
0148031360999992000011511004+55520-004580FM-12+002099999V0209999C000010750019N0250001N1+00101-00201104391ADDGA1011+006009089GF105991021081008001031021MD1110171+9999REMSYN080    AAXX  15114 03136 42575 50000 10010 21020 40439 51017 82832 333 81820 84075;
0178031360999992000011512004+55520-004580FM-12+002099999V0209999C000012200019N0250001N1+00361-00051104381ADDAA199000091GA1011+006009089GF103991021081008001001021MD1010071+9999REMSYN080    AAXX  15124 03136 32575 30000 10036 21005 40438 50007 82802 333 81820 83075;EQDQ01  00002PRCP99
0148031360999992000011513004+55520-004580FM-12+002099999V0209999C000010300019N0250001N1+00431+00291104371ADDGA1011+006009089GF105991041081008001031011MD1210011+9999REMSYN080    AAXX  15134 03136 42575 50000 10043 20029 40437 52001 84831 333 81820 84630;
0148031360999992000011514004+55520-004580FM-12+002099999V0209999C000012200019N0250001N1+00561+00421104331ADDGA1011+006009089GF104991031081008001001011MD1710061+9999REMSYN080    AAXX  15144 03136 42575 40000 10056 20042 40433 57006 83801 333 81820 83630;
0148031360999992000011515004+55520-004580FM-12+002099999V0209999C00001009001CN0200001N1+00431+00381104301ADDGA1011+004209079GF106991051081004501031011MD1710081+9999REMSYN080    AAXX  15154 03136 42470 60000 10043 20038 40430 57008 85831 333 81714 85625;
0142031360999992000011516004+55520-004580FM-12+002099999V0209999C000010066019N0200001N1+00391+00391104311ADDGA1071+006609059GF107991071051008001999999MD1710061+9999REMSYN074    AAXX  15164 03136 42570 70000 10039 20039 40431 57006 875// 333 87622;
0148031360999992000011517004+55520-004580FM-12+002099999V0209999C00001009001CN0200001N1+00371+00361104331ADDGA1021+005409089GF108991081081004501999999MD1410001+9999REMSYN080    AAXX  15174 03136 42470 80000 10037 20036 40433 54000 888// 333 82818 88622;
0197031360999992000011518004+55520-004580FM-12+002099999V0209999C00001009001CN0180001N1+00321+00321104291ADDAA199000091GA1021+005409089GF107991071081004501999999KA1120M+00601MD1810011+9999REMSYN086    AAXX  15184 03136 32468 70000 10032 20032 40429 58001 878// 333 10060 82818 87622;EQDQ01  00002PRCP99
0148031360999992000011519004+55520-004580FM-12+002099999V0209999C00001009001CN0200001N1+00351+00281104241ADDGA1021+003609079GF107991071081004501999999MD1810071+9999REMSYN080    AAXX  15194 03136 42470 70000 10035 20028 40424 58007 878// 333 82712 87622;
0148031360999992000011520004+55520-004580FM-12+002099999V0203101N00151009001CN0200001N1+00331+00201104301ADDGA1021+003609079GF108991081081004501999999MD1510031+9999REMSYN080    AAXX  15204 03136 42470 83103 10033 20020 40430 55003 888// 333 82712 88622;
0148031360999992000011521004+55520-004580FM-12+002099999V0203101N00211004201CN0280001N1+00401+00301104331ADDGA1011+003609079GF107991071051004501999999MD1310041+9999REMSYN080    AAXX  15214 03136 42478 73104 10040 20030 40433 53004 875// 333 81712 87622;
0142031360999992000011522004+55520-004580FM-12+002099999V0202901N000510063019N0300001N1+00401+00321104331ADDGA1071+006309059GF107991071051008001999999MD1110091+9999REMSYN074    AAXX  15224 03136 42580 72901 10040 20032 40433 51009 875// 333 87621;
0142031360999992000011523004+55520-004580FM-12+002099999V0209999C000010066019N0300001N1+00381+00231104321ADDGA1071+006609059GF107991071051008001999999MD1110021+9999REMSYN074    AAXX  15234 03136 42580 70000 10038 20023 40432 51002 875// 333 87622;
0142031360999992000011601004+55520-004580FM-12+002099999V0203001N003110060019N0300001N1+00561+00291104251ADDGA1081+006009059GF108991081051008001999999MD1710081+9999REMSYN074    AAXX  16014 03136 42580 83006 10056 20029 40425 57008 885// 333 88620;
0142031360999992000011602004+55520-004580FM-12+002099999V0203001N00411004201CN0300001N1+00551+00331104241ADDGA1031+005709059GF105991051051004501001001MD1710081+9999REMSYN074    AAXX  16024 03136 42480 53008 10055 20033 40424 57008 85500 333 83619;
0148031360999992000011603004+55520-004580FM-12+002099999V0203101N00361004201CN0300001N1+00561+00371104251ADDGA1041+005709069GF106991061051004501999999MD1510051+9999REMSYN080    AAXX  16034 03136 42480 63107 10056 20037 40425 55005 865// 333 84619 83627;
