0143031600999992000010107504+55950-003350FM-15+0041EGPH V0202601N003112200019N0112651N1+00401+00301999999ADDGA1021+015009999GA2021+024009999GF104991999999999999999999MA1101901999999MW1001REMMET052EGPH 010750Z 26006KT 9999 SCT050 SCT080 04/03 Q1019;
0120031600999992000010108504+55950-003350FM-15+0041EGPH V0202501N004112200019N0112651N1+00301+00201999999ADDGA1021+033009999GF102991999999999999999999MA1102001999999MW1001REMMET045EGPH 010850Z 25008KT 9999 FEW110 03/02 Q1020;
0072031600999992000010109504+55950-003350FM-15+0041EGPH V0202401N00511220001CN0099001N1+00401+00201999999ADDMA1102001999999MW1001REMMET039EGPH 010950Z 24010KT CAVOK 04/02 Q1020;
0120031600999992000010110504+55950-003350FM-15+0041EGPH V0202401N006712200019N0112651N1+00501+00301999999ADDGA1021+007209999GF102991999999999999999999MA1101901999999MW1001REMMET045EGPH 011050Z 24013KT 9999 FEW024 05/03 Q1019;
0072031600999992000010111504+55950-003350FM-15+0041EGPH V0202201N00621220001CN0099001N1+00501+00301999999ADDMA1101901999999MW1001REMMET039EGPH 011150Z 22012KT CAVOK 05/03 Q1019;
0120031600999992000010112504+55950-003350FM-15+0041EGPH V0202401N006212200019N0112651N1+00701+00401999999ADDGA1021+010509999GF102991999999999999999999MA1101801999999MW1001REMMET045EGPH 011250Z 24012KT 9999 FEW035 07/04 Q1018;
0120031600999992000010113504+55950-003350FM-15+0041EGPH V0202301N007212200019N0112651N1+00701+00401999999ADDGA1021+007209999GF102991999999999999999999MA1101801999999MW1001REMMET045EGPH 011350Z 23014KT 9999 FEW024 07/04 Q1018;
0072031600999992000010114504+55950-003350FM-15+0041EGPH V0202301N00721220001CN0099001N1+00701+00401999999ADDMA1101691999999MW1001REMMET039EGPH 011450Z 23014KT CAVOK 07/04 Q1017;
0120031600999992000010115504+55950-003350FM-15+0041EGPH V0202301N006710105019N0112651N1+00701+00401999999ADDGA1071+010509999GF107991999999999999999999MA1101801999999MW1001REMMET045EGPH 011550Z 23013KT 9999 BKN035 07/04 Q1018;
0120031600999992000010116504+55950-003350FM-15+0041EGPH V0202301N006210105019N0112651N1+00701+00401999999ADDGA1081+010509999GF108991999999999999999999MA1101691999999MW1001REMMET045EGPH 011650Z 23012KT 9999 OVC035 07/04 Q1017;
0120031600999992000010117504+55950-003350FM-15+0041EGPH V0202301N006710090019N0112651N1+00701+00401999999ADDGA1071+009009999GF107991999999999999999999MA1101691999999MW1001REMMET045EGPH 011750Z 23013KT 9999 BKN030 07/04 Q1017;
0120031600999992000010118504+55950-003350FM-15+0041EGPH V0202201N008710105019N0112651N1+00701+00401999999ADDGA1081+010509999GF108991999999999999999999MA1101691999999MW1001REMMET045EGPH 011850Z 22017KT 9999 OVC035 07/04 Q1017;
0120031600999992000010120204+55950-003350FM-15+0041EGPH V0202401N009310105019N0112651N1+00701+00401999999ADDGA1071+010509999GF107991999999999999999999MA1101591999999MW1001REMMET045EGPH 012020Z 24018KT 9999 BKN035 07/04 Q1016;
0120031600999992000010120504+55950-003350FM-15+0041EGPH V0202301N008210111019N0112651N1+00701+00401999999ADDGA1071+011109999GF107991999999999999999999MA1101591999999MW1001REMMET045EGPH 012050Z 23016KT 9999 BKN037 07/04 Q1016;
0120031600999992000010121504+55950-003350FM-15+0041EGPH V0202201N009310105019N0112651N1+00801+00401999999ADDGA1071+010509999GF107991999999999999999999MA1101491999999MW1001REMMET045EGPH 012150Z 22018KT 9999 BKN035 08/04 Q1015;
0131031600999992000010122504+55950-003350FM-15+0041EGPH V0202301N007710105019N0112651N1+00701+00401999999ADDGA1071+010509999GF107991999999999999999999MA1101391999999MW1001OC101291REMMET048EGPH 012250Z 23015G25KT 9999 BKN035 07/04 Q1014;
0072031600999992000010123504+55950-003350FM-15+0041EGPH V0202301N01181220001CN0099001N1+00701+00401999999ADDMA1101291999999MW1001REMMET039EGPH 012350Z 23023KT CAVOK 07/04 Q1013;
0139031600999992000010200504+55950-003350FM-15+0041EGPH V0202201N007710075019N0112651N1+00801+00501999999ADDGA1071+007509999GF107991999999999999999999MA1101391999999MW1001REMMET045EGPH 020050Z 22015KT 9999 BKN025 08/05 Q1014;EQDQ01+000000PRSWM2
0190031600999992000010201504+55950-003350FM-15+0041EGPH V0202401N010310120019N0112651N1+00801+00601999999ADDGA1021+006609999GA2071+012009999GA3071+018009999GF107991999999999999999999MA1101291999999MW1001REMMET064EGPH 020150Z 24020KT 9999 FEW022 BKN040 BKN060 08/06 Q1013 RERA;EQDQ01+000000PRSWM2
0212031600999992000010205204+55950-003350FM-15+0041EGPH V0202501N008710078019N0112651N1+00801+00601999999ADDGA1021+004209999GA2021+006009999GA3071+007809999GF107991999999999999999999MA1101491999999MW1801REMMET070EGPH 020520Z 25017KT 9999 -SHRA SCT014 SCT020 BKN026 08/06 Q1015 RERA;EQDQ01+000003PRSWM1Q02    003PRSWM1
0144031600999992000010205504+55950-003350FM-15+0041EGPH V0202401N008712200019N0112651N1+00801+00601999999ADDGA1021+015009999GF104991999999999999999999MA1101491999999MW1001REMMET050EGPH 020550Z 24017KT 9999 SCT050 08/06 Q1015 RERA;EQDQ01+000000PRSWM2
0091031600999992000010206504+55950-003350FM-15+0041EGPH V0202501N01031220001CN0099001N1+00701+00501999999ADDMA1101591999999MW1001REMMET039EGPH 020650Z 25020KT CAVOK 07/05 Q1016;EQDQ01+000000PRSWM2
0091031600999992000010207504+55950-003350FM-15+0041EGPH V0202501N00571220001CN0099001N1+00601+00401999999ADDMA1101691999999MW1001REMMET039EGPH 020750Z 25011KT CAVOK 06/04 Q1017;EQDQ01+000000PRSWM2
0091031600999992000010208504+55950-003350FM-15+0041EGPH V0202501N00461220001CN0099001N1+00601+00301999999ADDMA1101691999999MW1001REMMET039EGPH 020850Z 25009KT CAVOK 06/03 Q1017;EQDQ01+000000PRSWM2
0091031600999992000010209504+55950-003350FM-15+0041EGPH V0202301N00511220001CN0099001N1+00501+00301999999ADDMA1101801999999MW1001REMMET039EGPH 020950Z 23010KT CAVOK 05/03 Q1018;EQDQ01+000000PRSWM2
0091031600999992000010210504+55950-003350FM-15+0041EGPH V0202501N00771220001CN0099001N1+00601+00401999999ADDMA1101801999999MW1001REMMET039EGPH 021050Z 25015KT CAVOK 06/04 Q1018;EQDQ01+000000PRSWM2
0091031600999992000010211504+55950-003350FM-15+0041EGPH V0202401N00621220001CN0099001N1+00701+00401999999ADDMA1101801999999MW1001REMMET039EGPH 021150Z 24012KT CAVOK 07/04 Q1018;EQDQ01+000000PRSWM2
0091031600999992000010212504+55950-003350FM-15+0041EGPH V0202201N00621220001CN0099001N1+00801+00501999999ADDMA1101801999999MW1001REMMET039EGPH 021250Z 22012KT CAVOK 08/05 Q1018;EQDQ01+000000PRSWM2
0162031600999992000010213504+55950-003350FM-15+0041EGPH V0202201N003112200019N0112651N1+00801+00501999999ADDGA1021+005409999GA2021+033009999GF104991999999999999999999MA1101801999999MW1001REMMET052EGPH 021350Z 22006KT 9999 FEW018 SCT110 08/05 Q1018;EQDQ01+000000PRSWM2
0162031600999992000010214504+55950-003350FM-15+0041EGPH V0202101N004110300019N0112651N1+00801+00401999999ADDGA1021+013509999GA2071+030009999GF107991999999999999999999MA1101691999999MW1001REMMET052EGPH 021450Z 21008KT 9999 SCT045 BKN100 08/04 Q1017;EQDQ01+000000PRSWM2
0170031600999992000010215504+55950-003350FM-15+0041EGPH V0201801N003110210019N0112651N1+00701+00301999999ADDGA1021+013509999GA2071+021009999GF107991999999999999999999MA1101591999999MW1001REMMET060EGPH 021550Z 18006KT 150V220 9999 SCT045 BKN070 07/03 Q1016;EQDQ01+000000PRSWM2
0162031600999992000010216504+55950-003350FM-15+0041EGPH V0201701N003110180019N0112651N1+00701+00401999999ADDGA1021+012009999GA2071+018009999GF107991999999999999999999MA1101491999999MW1001REMMET052EGPH 021650Z 17006KT 9999 FEW040 BKN060 07/04 Q1015;EQDQ01+000000PRSWM2
0170031600999992000010217504+55950-003350FM-15+0041EGPH V0201101N002110120019N0112651N1+00701+00401999999ADDGA1021+006009999GA2071+012009999GF107991999999999999999999MA1101291999999MW1001REMMET060EGPH 021750Z 11004KT 080V150 9999 FEW020 BKN040 07/04 Q1013;EQDQ01+000000PRSWM2
0170031600999992000010218504+55950-003350FM-15+0041EGPH V0201301N002110072019N0112651N1+00801+00501999999ADDGA1021+005409999GA2071+007209999GF107991999999999999999999MA1101081999999MW1001REMMET060EGPH 021850Z 13004KT 100V180 9999 SCT018 BKN024 08/05 Q1011;EQDQ01+000000PRSWM2
0162031600999992000010219504+55950-003350FM-15+0041EGPH V0201901N008710090019N0112651N1+00901+00601999999ADDGA1021+007209999GA2071+009009999GF107991999999999999999999MA1100911999999MW1001REMMET052EGPH 021950Z 19017KT 9999 FEW024 BKN030 09/06 Q1009;EQDQ01+000000PRSWM2
0162031600999992000010220504+55950-003350FM-15+0041EGPH V0202201N010810066019N0112651N1+00901+00501999999ADDGA1071+006609999GA2071+008409999GF107991999999999999999999MA1100811999999MW1001REMMET052EGPH 022050Z 22021KT 9999 BKN022 BKN028 09/05 Q1008;EQDQ01+000000PRSWM2
0139031600999992000010221504+55950-003350FM-15+0041EGPH V0202201N008710120019N0112651N1+00901+00501999999ADDGA1071+012009999GF107991999999999999999999MA1100611999999MW1001REMMET045EGPH 022150Z 22017KT 9999 BKN040 09/05 Q1006;EQDQ01+000000PRSWM2
0162031600999992000010222504+55950-003350FM-15+0041EGPH V0202101N007710084019N0112651N1+00901+00601999999ADDGA1071+008409999GA2071+012009999GF107991999999999999999999MA1100311999999MW1001REMMET052EGPH 022250Z 21015KT 9999 BKN028 BKN040 09/06 Q1003;EQDQ01+000000PRSWM2
0192031600999992000010223504+55950-003350FM-15+0041EGPH V0202201N012310210019N0112651N1+01001+00701999999ADDGA1021+013509999GA2071+021009999GF107991999999999999999999MA1100101999999MW1631OC101751REMMET058EGPH 022350Z 22024G34KT 9999 RA SCT045 BKN070 10/07 Q1001;EQDQ01+000003PRSWM1Q02    003PRSWM1
0193031600999992000010300504+55950-003350FM-15+0041EGPH V0202201N011810090019N0060001N1+01001+00801999999ADDGA1021+007209999GA2071+009009999GF107991999999999999999999MA1100001999999MW1611OC101751REMMET059EGPH 030050Z 22023G34KT 6000 -RA FEW024 BKN030 10/08 Q1000;EQDQ01+000003PRSWM1Q02    003PRSWM1
0209031600999992000010301504+55950-003350FM-15+0041EGPH V0202401N013910090019N0112651N1+01001+00801999999ADDGA1021+005409999GA2021+007209999GA3071+009009999GF107991999999999999999999MA1100001999999MW1531REMMET067EGPH 030150Z 24027KT 9999 DZ FEW018 SCT024 BKN030 10/08 Q1000 REDZ;EQDQ01+000003PRSWM1Q02    003PRSWM1
0150031600999992000010304504+55950-003350FM-15+0041EGPH V0202301N012910090019N0112651N1+00701+00301999999ADDGA1071+009009999GF107991999999999999999999MA1100201999999MW1001OC101851REMMET048EGPH 030450Z 23025G36KT 9999 BKN030 07/03 Q1002;EQDQ01+000000PRSWM2
0187031600999992000010305504+55950-003350FM-15+0041EGPH V0202501N008212200019N0080001N1+00701+00401999999ADDGA1021+005409999GA2021+009009999GF104991999999999999999999MA1100311999999MW1611REMMET061EGPH 030550Z 25016KT 8000 -RA FEW018 SCT030 07/04 Q1003 RERA;EQDQ01+000003PRSWM1Q02    003PRSWM1
0167031600999992000010306504+55950-003350FM-15+0041EGPH V0202401N010310084019N0112651N1+00601+00301999999ADDGA1021+006609999GA2071+008409999GF107991999999999999999999MA1100411999999MW1001REMMET057EGPH 030650Z 24020KT 9999 FEW022 BKN028 06/03 Q1004 RERA;EQDQ01+000000PRSWM2
0194031600999992000010307504+55950-003350FM-15+0041EGPH V0202501N009310078019N0112651N1+00701+00301999999ADDGA1071+007809999GA2071+010509999GF107991999999999999999999MA1100511999999MW1811OC101441REMMET060EGPH 030750Z 25018G28KT 9999 SHRA BKN026 BKN035 07/03 Q1005;EQDQ01+000003PRSWM1Q02    003PRSWM1
0185031600999992000010308504+55950-003350FM-15+0041EGPH V0202401N010310090019N0112651N1+00601+00301999999ADDGA1021+005409999GA2021+007209999GA3071+009009999GF107991999999999999999999MA1100611999999MW1001REMMET059EGPH 030850Z 24020KT 9999 FEW018 SCT024 BKN030 06/03 Q1006;EQDQ01+000000PRSWM2
0173031600999992000010309504+55950-003350FM-15+0041EGPH V0202401N007210090019N0112651N1+00601+00301999999ADDGA1021+007209999GA2071+009009999GF107991999999999999999999MA1100611999999MW1001OC101291REMMET055EGPH 030950Z 24014G25KT 9999 FEW024 BKN030 06/03 Q1006;EQDQ01+000000PRSWM2
0195031600999992000010310504+55950-003350FM-15+0041EGPH V0202501N009812200019N0112651N1+00601+00201999999ADDGA1021+002109999GA2021+007509999GF104991999999999999999999MA1100711999999MW1801OC101541REMMET061EGPH 031050Z 25019G30KT 9999 -SHRA FEW007 SCT025 06/02 Q1007;EQDQ01+000003PRSWM1Q02    003PRSWM1
0183031600999992000010311504+55950-003350FM-15+0041EGPH V0202501N008212200019N0090001N1+00601+00401999999ADDGA1021+005409999GA2021+009009999GF104991999999999999999999MA1100711999999MW1811REMMET057EGPH 031150Z 25016KT 9000 SHRA FEW018 SCT030 06/04 Q1007;EQDQ01+000003PRSWM1Q02    003PRSWM1
0185031600999992000010312504+55950-003350FM-15+0041EGPH V0202501N008210450019N0112651N1+00601+00301999999ADDGA1021+006609999GA2021+008409999GA3071+045009999GF107991999999999999999999MA1100711999999MW1001REMMET059EGPH 031250Z 25016KT 9999 FEW022 SCT028 BKN150 06/03 Q1007;EQDQ01+000000PRSWM2
0230031600999992000010313504+55950-003350FM-15+0041EGPH V0202701N009310072019N0050001N1+00501+00301999999ADDGA1021+002409999GA2021+005409999GA3071+007209999GF107991999999999999999999MA1100811999999MW1811OC101441REMMET080EGPH 031350Z 27018G28KT 240V300 5000 SHRA FEW008 SCT018 BKN024 05/03 Q1008 RERA;EQDQ01+000003PRSWM1Q02    003PRSWM1
0189031600999992000010314504+55950-003350FM-15+0041EGPH V0202501N008710060019N0112651N1+00401+00201999999ADDGA1021+004209999GA2071+006009999GF107991999999999999999999MA1100811999999MW1801REMMET063EGPH 031450Z 25017KT 9999 -SHRA FEW014 BKN020 04/02 Q1008 RERA;EQDQ01+000003PRSWM1Q02    003PRSWM1
0162031600999992000010315504+55950-003350FM-15+0041EGPH V0202501N005710180019N0112651N1+00501+00201999999ADDGA1021+006009999GA2071+018009999GF107991999999999999999999MA1100811999999MW1001REMMET052EGPH 031550Z 25011KT 9999 SCT020 BKN060 05/02 Q1008;EQDQ01+000000PRSWM2
0162031600999992000010316504+55950-003350FM-15+0041EGPH V0202901N003610135019N0112651N1+00501+00201999999ADDGA1021+009009999GA2071+013509999GF107991999999999999999999MA1100811999999MW1001REMMET052EGPH 031650Z 29007KT 9999 SCT030 BKN045 05/02 Q1008;EQDQ01+000000PRSWM2
0190031600999992000010317504+55950-003350FM-15+0041EGPH V0202501N004610270019N0112651N1+00401+00301999999ADDGA1021+006009999GA2021+009009999GA3071+027009999GF107991999999999999999999MA1100811999999MW1001REMMET064EGPH 031750Z 25009KT 9999 FEW020 SCT030 BKN090 04/03 Q1008 RERA;EQDQ01+000000PRSWM2
0197031600999992000010318504+55950-003350FM-15+0041EGPH V0202701N005110054019N0080001N1+00401+00201999999ADDGA1021+001809999GA2071+005409999GF107991999999999999999999MA1101021999999MW1801REMMET071EGPH 031850Z 27010KT 250V310 8000 -SHRA FEW006 BKN018 04/02 Q1010 RERA;EQDQ01+000003PRSWM1Q02    003PRSWM1
0183031600999992000010319504+55950-003350FM-15+0041EGPH V0202501N004112200019N0112651N1+00401+00201999999ADDGA1021+006609999GA2021+021009999GF104991999999999999999999MA1101021999999MW1811REMMET057EGPH 031950Z 25008KT 9999 SHRA FEW022 SCT070 04/02 Q1010;EQDQ01+000003PRSWM1Q02    003PRSWM1
0189031600999992000010320504+55950-003350FM-15+0041EGPH V0202701N003112200019N0112651N1+00401+00201999999ADDGA1021+006009999GA2021+007809999GF104991999999999999999999MA1101021999999MW1801REMMET063EGPH 032050Z 27006KT 9999 -SHRA FEW020 SCT026 04/02 Q1010 RERA;EQDQ01+000003PRSWM1Q02    003PRSWM1
0144031600999992000010321504+55950-003350FM-15+0041EGPH V0202401N007210150019N0112651N1+00401+00201999999ADDGA1081+015009999GF108991999999999999999999MA1101021999999MW1001REMMET050EGPH 032150Z 24014KT 9999 OVC050 04/02 Q1010 RERA;EQDQ01+000000PRSWM2
0212031600999992000010322504+55950-003350FM-15+0041EGPH V0202301N006210120019N0112651N1+00401+00201999999ADDGA1021+004809999GA2021+008409999GA3071+012009999GF107991999999999999999999MA1101081999999MW1801REMMET070EGPH 032250Z 23012KT 9999 -SHRA FEW016 SCT028 BKN040 04/02 Q1011 RERA;EQDQ01+000003PRSWM1Q02    003PRSWM1
0185031600999992000010323504+55950-003350FM-15+0041EGPH V0202401N002610135019N0112651N1+00201+00101999999ADDGA1021+006009999GA2021+009009999GA3071+013509999GF107991999999999999999999MA1101021999999MW1001REMMET059EGPH 032350Z 24005KT 9999 FEW020 SCT030 BKN045 02/01 Q1010;EQDQ01+000000PRSWM2
0185031600999992000010400504+55950-003350FM-15+0041EGPH V0202501N004110450019N0112651N1+00201+00101999999ADDGA1021+015009999GA2021+030009999GA3071+045009999GF107991999999999999999999MA1101021999999MW1001REMMET059EGPH 040050Z 25008KT 9999 FEW050 SCT100 BKN150 02/01 Q1010;EQDQ01+000000PRSWM2
0091031600999992000010401504+55950-003350FM-15+0041EGPH V0202301N00621220001CN0099001N1+00301+00001999999ADDMA1100911999999MW1001REMMET039EGPH 040150Z 23012KT CAVOK 03/00 Q1009;EQDQ01+000000PRSWM2
0091031600999992000010404504+55950-003350FM-15+0041EGPH V0202501N00311220001CN0099001N1+00301+00101999999ADDMA1100611999999MW1001REMMET039EGPH 040450Z 25006KT CAVOK 03/01 Q1006;EQDQ01+000000PRSWM2
0091031600999992000010405504+55950-003350FM-15+0041EGPH V0202101N00411220001CN0099001N1+00501+00201999999ADDMA1100511999999MW1001REMMET039EGPH 040550Z 21008KT CAVOK 05/02 Q1005;EQDQ01+000000PRSWM2
0193031600999992000010406504+55950-003350FM-15+0041EGPH V0202201N004610570019N0112651N1+00601+00301999999ADDGA1021+008409999GA2021+048009999GA3071+057009999GF107991999999999999999999MA1100311999999MW1001REMMET067EGPH 040650Z 22009KT 180V250 9999 FEW028 SCT160 BKN190 06/03 Q1003;EQDQ01+000000PRSWM2
0185031600999992000010407504+55950-003350FM-15+0041EGPH V0202101N005710630019N0112651N1+00701+00401999999ADDGA1021+006009999GA2021+054009999GA3071+063009999GF107991999999999999999999MA1100201999999MW1001REMMET059EGPH 040750Z 21011KT 9999 FEW020 SCT180 BKN210 07/04 Q1002;EQDQ01+000000PRSWM2
0162031600999992000010408504+55950-003350FM-15+0041EGPH V0202101N007712200019N0112651N1+00701+00401999999ADDGA1021+005409999GA2021+048009999GF104991999999999999999999MA1100101999999MW1001REMMET052EGPH 040850Z 21015KT 9999 FEW018 SCT160 07/04 Q1001;EQDQ01+000000PRSWM2
0184031600999992000010409504+55950-003350FM-15+0041EGPH V0202001N006212200019N0112651N1+00701+00401999999ADDGA1021+004509999GA2021+012009999GF104991999999999999999999MA1099901999999MW1801REMMET058EGPH 040950Z 20012KT 9999 -SHRA FEW015 SCT040 07/04 Q0999;EQDQ01+000003PRSWM1Q02    003PRSWM1
0223031600999992000010410504+55950-003350FM-15+0041EGPH V0202101N009310135019N0080001N1+00701+00501999999ADDGA1021+004509999GA2021+007809999GA3071+013509999GF107991999999999999999999MA1099701999999MW1801OC101441REMMET073EGPH 041050Z 21018G28KT 8000 -SHRA FEW015 SCT026 BKN045 07/05 Q0997 RERA;EQDQ01+000003PRSWM1Q02    003PRSWM1
0236031600999992000010411504+55950-003350FM-15+0041EGPH V0202501N013910072019N0026001N1+00401+00301999999ADDED199U07009GA1021+001809999GA2021+003609999GA3071+007209999GF107991999999999999999999MA1099701999999MW1651OC102011REMMET075EGPH 041150Z 25027G39KT 2600 R24/0700 +RA FEW006 SCT012 BKN024 04/03 Q0997;EQDQ01+000003PRSWM1Q02    003PRSWM1
0187031600999992000010412504+55950-003350FM-15+0041EGPH V0202501N005710084019N0090001N1+00301+00201999999ADDGA1021+003009999GA2071+008409999GF107991999999999999999999MA1099801999999MW1611REMMET061EGPH 041250Z 25011KT 9000 -RA SCT010 BKN028 03/02 Q0998 RERA;EQDQ01+000003PRSWM1Q02    003PRSWM1
0220031600999992000010413504+55950-003350FM-15+0041EGPH V0202401N006710150019N0112651N1+00301+00201999999ADDGA1021+004209999GA2021+010509999GA3071+015009999GF107991999999999999999999MA1099801999999MW1161MW2531REMMET072EGPH 041350Z 24013KT 9999 DZ VCSH FEW014 SCT035 BKN050 03/02 Q0998 RERA;EQDQ01+000003PRSWM1Q02    003PRSWM1
0162031600999992000010414504+55950-003350FM-15+0041EGPH V0202501N006210120019N0112651N1+00401+00101999999ADDGA1021+008409999GA2071+012009999GF107991999999999999999999MA1099901999999MW1001REMMET052EGPH 041450Z 25012KT 9999 FEW028 BKN040 04/01 Q0999;EQDQ01+000000PRSWM2
0165031600999992000010416204+55950-003350FM-15+0041EGPH V0202401N006212200019N0112651N1+00201+00001999999ADDGA1021+004509999GA2021+007509099GF104991999999999999999999MA1100001999999MW1001REMMET055EGPH 041620Z 24012KT 9999 FEW015 SCT025CB 02/M00 Q1000;EQDQ01+000000PRSWM2
0194031600999992000010416504+55950-003350FM-15+0041EGPH V0202501N005710075019N0112651N1+00301+00001999999ADDGA1021+006009999GA2071+007509099GF107991999999999999999999MA1100001999999MW1631OC101081REMMET060EGPH 041650Z 25011G21KT 9999 RA FEW020 BKN025CB 03/00 Q1000;EQDQ01+000003PRSWM1Q02    003PRSWM1
0161031600999992000010417504+55950-003350FM-15+0041EGPH V0202301N005712200019N0112651N1+00201+00001999999ADDGA1021+001809999GF102991999999999999999999MA1100101999999MW1801REMMET051EGPH 041750Z 23011KT 9999 -SHRA FEW006 02/00 Q1001;EQDQ01+000003PRSWM1Q02    003PRSWM1
0200031600999992000010418504+55950-003350FM-15+0041EGPH V0202401N010810048019N0112651N1+00301+00101999999ADDGA1021+003009999GA2071+004809999GF107991999999999999999999MA1100201999999MW1631MW2711OC101591REMMET060EGPH 041850Z 24021G31KT 9999 RASN FEW010 BKN016 03/01 Q1002;EQDQ01+000003PRSWM1Q02    003PRSWM1
0166031600999992000010419504+55950-003350FM-15+0041EGPH V0202401N004612200019N0112651N1+00201+00001999999ADDGA1021+002709999GF104991999999999999999999MA1100311999999MW1801REMMET056EGPH 041950Z 24009KT 9999 -SHRA SCT009 02/00 Q1003 RERA;EQDQ01+000003PRSWM1Q02    003PRSWM1
0184031600999992000010420504+55950-003350FM-15+0041EGPH V0202701N003610066019N0112651N1+00301+00101999999ADDGA1021+004809999GA2071+006609999GF107991999999999999999999MA1100311999999MW1801REMMET058EGPH 042050Z 27007KT 9999 -SHRA FEW016 BKN022 03/01 Q1003;EQDQ01+000003PRSWM1Q02    003PRSWM1
0187031600999992000010506504+55950-003350FM-15+0041EGPH V0202201N008210135019N0112651N1+00601+00401999999ADDGA1021+009009999GA2071+013509999GF107991999999999999999999MA1099801999999MW1511REMMET061EGPH 050650Z 22016KT 9999 -DZ FEW030 BKN045 06/04 Q0998 REDZ;EQDQ01+000003PRSWM1Q02    003PRSWM1
0163031600999992000010507504+55950-003350FM-15+0041EGPH V0202101N010310120019N0112651N1+00701+00501999999ADDGA1071+012009999GF107991999999999999999999MA1099801999999MW1631REMMET053EGPH 050750Z 21020KT 9999 RA BKN040 07/05 Q0998 REDZ;EQDQ01+000003PRSWM1Q02    003PRSWM1
0170031600999992000010508504+55950-003350FM-15+0041EGPH V0202101N010810150019N0112651N1+00801+00501999999ADDGA1071+015009999GF107991999999999999999999MA1099701999999MW1611OC101701REMMET052EGPH 050850Z 21021G33KT 9999 -RA BKN050 08/05 Q0997;EQDQ01+000003PRSWM1Q02    003PRSWM1
0187031600999992000010509504+55950-003350FM-15+0041EGPH V0202001N009312200019N0112651N1+00801+00601999999ADDGA1021+010509999GA2021+015009999GF104991999999999999999999MA1099591999999MW1611REMMET061EGPH 050950Z 20018KT 9999 -RA FEW035 SCT050 08/06 Q0996 REDZ;EQDQ01+000003PRSWM1Q02    003PRSWM1
0189031600999992000010510504+55950-003350FM-15+0041EGPH V0202201N010310135019N0112651N1+00901+00701999999ADDGA1021+009009999GA2071+013509999GF107991999999999999999999MA1099591999999MW1801REMMET063EGPH 051050Z 22020KT 9999 -SHRA FEW030 BKN045 09/07 Q0996 RERA;EQDQ01+000003PRSWM1Q02    003PRSWM1
0187031600999992000010511504+55950-003350FM-15+0041EGPH V0202201N011810090019N0112651N1+01001+00701999999ADDGA1021+007209999GA2071+009009999GF107991999999999999999999MA1099391999999MW1611REMMET061EGPH 051150Z 22023KT 9999 -RA FEW024 BKN030 10/07 Q0994 REDZ;EQDQ01+000003PRSWM1Q02    003PRSWM1
0150031600999992000010512504+55950-003350FM-15+0041EGPH V0202201N014410084019N0112651N1+01101+00701999999ADDGA1081+008409999GF108991999999999999999999MA1099391999999MW1001OC101951REMMET048EGPH 051250Z 22028G38KT 9999 OVC028 11/07 Q0994;EQDQ01+000000PRSWM2
0173031600999992000010513504+55950-003350FM-15+0041EGPH V0202201N015910090019N0112651N1+01101+00601999999ADDGA1071+009009999GA2071+033009999GF107991999999999999999999MA1099291999999MW1001OC102161REMMET055EGPH 051350Z 22031G42KT 9999 BKN030 BKN110 11/06 Q0993;EQDQ01+000000PRSWM2
0162031600999992000010514504+55950-003350FM-15+0041EGPH V0202201N015412200019N0112651N1+01001+00601999999ADDGA1021+010509999GA2021+036009999GF104991999999999999999999MA1099191999999MW1001REMMET052EGPH 051450Z 22030KT 9999 FEW035 SCT120 10/06 Q0992;EQDQ01+000000PRSWM2
0185031600999992000010515504+55950-003350FM-15+0041EGPH V0202201N015910240019N0112651N1+01001+00601999999ADDGA1021+006609999GA2021+012009999GA3071+024009999GF107991999999999999999999MA1099191999999MW1001REMMET059EGPH 051550Z 22031KT 9999 FEW022 SCT040 BKN080 10/06 Q0992;EQDQ01+000000PRSWM2
0173031600999992000010516504+55950-003350FM-15+0041EGPH V0202101N016512200019N0112651N1+01001+00601999999ADDGA1021+007209999GA2021+013509999GF104991999999999999999999MA1098981999999MW1001OC102261REMMET055EGPH 051650Z 21032G44KT 9999 FEW024 SCT045 10/06 Q0990;EQDQ01+000000PRSWM2
0173031600999992000010517504+55950-003350FM-15+0041EGPH V0202101N015910240019N0112651N1+01001+00601999999ADDGA1071+024009999GA2071+033009999GF107991999999999999999999MA1098981999999MW1001OC102371REMMET055EGPH 051750Z 21031G46KT 9999 BKN080 BKN110 10/06 Q0990;EQDQ01+000000PRSWM2
0173031600999992000010518504+55950-003350FM-15+0041EGPH V0202101N015410660019N0112651N1+00901+00601999999ADDGA1021+007509999GA2071+066009999GF107991999999999999999999MA1098821999999MW1001OC102111REMMET055EGPH 051850Z 21030G41KT 9999 FEW025 BKN220 09/06 Q0988;EQDQ01+000000PRSWM2
0194031600999992000010520504+55950-003350FM-15+0041EGPH V0202101N014910180019N0112651N1+01001+00701999999ADDGA1021+012009999GA2071+018009999GF107991999999999999999999MA1098711999999MW1811OC102421REMMET060EGPH 052050Z 21029G47KT 9999 SHRA FEW040 BKN060 10/07 Q0987;EQDQ01+000003PRSWM1Q02    003PRSWM1
0182031600999992000010521504+55950-003350FM-15+0041EGPH V0202201N011310270019N0112651N1+01001+00601999999ADDGA1021+018009999GA2071+027009999GF107991999999999999999999MA1098821999999MW1611REMMET056EGPH 052150Z 22022KT 9999 -RA SCT060 BKN090 10/06 Q0988;EQDQ01+000003PRSWM1Q02    003PRSWM1
0162031600999992000010600504+55950-003350FM-15+0041EGPH V0202201N011312200019N0112651N1+00901+00401999999ADDGA1021+010509999GA2021+015009999GF104991999999999999999999MA1098821999999MW1001REMMET052EGPH 060050Z 22022KT 9999 SCT035 SCT050 09/04 Q0988;EQDQ01+000000PRSWM2
0139031600999992000010601504+55950-003350FM-15+0041EGPH V0202201N008710120019N0112651N1+00901+00301999999ADDGA1071+012009999GF107991999999999999999999MA1098821999999MW1001REMMET045EGPH 060150Z 22017KT 9999 BKN040 09/03 Q0988;EQDQ01+000000PRSWM2
0212031600999992000010604204+55950-003350FM-15+0041EGPH V0202201N013410135019N0112651N1+00801+00501999999ADDGA1021+004809999GA2021+009009999GA3071+013509999GF107991999999999999999999MA1098821999999MW1801REMMET070EGPH 060420Z 22026KT 9999 -SHRA FEW016 SCT030 BKN045 08/05 Q0988 RERA;EQDQ01+000003PRSWM1Q02    003PRSWM1
0218031600999992000010604504+55950-003350FM-15+0041EGPH V0202401N011310105019N0112651N1+00801+00501999999ADDGA1021+006009999GA2021+007809999GA3071+010509999GF107991999999999999999999MA1098921999999MW1801OC101651REMMET068EGPH 060450Z 24022G32KT 9999 -SHRA FEW020 SCT026 BKN035 08/05 Q0989;EQDQ01+000003PRSWM1Q02    003PRSWM1
0190031600999992000010605504+55950-003350FM-15+0041EGPH V0202501N006710135019N0112651N1+00801+00501999999ADDGA1021+007209999GA2021+009009999GA3071+013509999GF107991999999999999999999MA1099091999999MW1001REMMET064EGPH 060550Z 25013KT 9999 FEW024 SCT030 BKN045 08/05 Q0991 RERA;EQDQ01+000000PRSWM2
0210031600999992000010606504+55950-003350FM-15+0041EGPH V0202401N008710084019N0112651N1+00701+00501999999ADDGA1021+006609999GA2071+008409999GA3071+012009999GF107991999999999999999999MA1099191999999MW1511REMMET068EGPH 060650Z 24017KT 9999 -DZ FEW022 BKN028 BKN040 07/05 Q0992 RERA;EQDQ01+000003PRSWM1Q02    003PRSWM1
0167031600999992000010607504+55950-003350FM-15+0041EGPH V0202501N005710420019N0112651N1+00701+00501999999ADDGA1021+007809999GA2071+042009999GF107991999999999999999999MA1099491999999MW1001REMMET057EGPH 060750Z 25011KT 9999 SCT026 BKN140 07/05 Q0995 RERA;EQDQ01+000000PRSWM2
0162031600999992000010608504+55950-003350FM-15+0041EGPH V0202701N005712200019N0112651N1+00601+00201999999ADDGA1021+010509999GA2021+033009999GF104991999999999999999999MA1099801999999MW1001REMMET052EGPH 060850Z 27011KT 9999 FEW035 SCT110 06/02 Q0998;EQDQ01+000000PRSWM2
0091031600999992000010609504+55950-003350FM-15+0041EGPH V0202601N00511220001CN0099001N1+00501+00001999999ADDMA1100101999999MW1001REMMET039EGPH 060950Z 26010KT CAVOK 05/00 Q1001;EQDQ01+000000PRSWM2
0140031600999992000010610504+55950-003350FM-15+0041EGPH V0202601N004112200019N0112651N1+00501+00001999999ADDGA1021+006009999GF102991999999999999999999MA1100311999999MW1001REMMET046EGPH 061050Z 26008KT 9999 FEW020 05/M00 Q1003;EQDQ01+000000PRSWM2
0092031600999992000010611504+55950-003350FM-15+0041EGPH V0202701N00461220001CN0099001N1+00601-00101999999ADDMA1100511999999MW1001REMMET040EGPH 061150Z 27009KT CAVOK 06/M01 Q1005;EQDQ01+000000PRSWM2
0092031600999992000010612504+55950-003350FM-15+0041EGPH V0202701N00461220001CN0099001N1+00601-00201999999ADDMA1100611999999MW1001REMMET040EGPH 061250Z 27009KT CAVOK 06/M02 Q1006;EQDQ01+000000PRSWM2
0140031600999992000010613504+55950-003350FM-15+0041EGPH V0202501N004112200019N0112651N1+00601-00201999999ADDGA1021+009009999GF102991999999999999999999MA1100711999999MW1001REMMET046EGPH 061350Z 25008KT 9999 FEW030 06/M02 Q1007;EQDQ01+000000PRSWM2
0140031600999992000010614504+55950-003350FM-15+0041EGPH V0202701N004112200019N0112651N1+00501-00101999999ADDGA1021+009009999GF102991999999999999999999MA1100811999999MW1001REMMET046EGPH 061450Z 27008KT 9999 FEW030 05/M01 Q1008;EQDQ01+000000PRSWM2
0163031600999992000010615504+55950-003350FM-15+0041EGPH V0202201N003612200019N0112651N1+00401-00101999999ADDGA1021+009009999GA2021+072009999GF104991999999999999999999MA1100911999999MW1001REMMET053EGPH 061550Z 22007KT 9999 FEW030 SCT240 04/M01 Q1009;EQDQ01+000000PRSWM2
0163031600999992000010616504+55950-003350FM-15+0041EGPH V0202201N003612200019N0112651N1+00201-00101999999ADDGA1021+009009999GA2021+063009999GF104991999999999999999999MA1100911999999MW1001REMMET053EGPH 061650Z 22007KT 9999 FEW030 SCT210 02/M01 Q1009;EQDQ01+000000PRSWM2
0163031600999992000010617504+55950-003350FM-15+0041EGPH V0202501N002612200019N0112651N1+00201-00201999999ADDGA1021+006009999GA2021+042009999GF104991999999999999999999MA1101021999999MW1001REMMET053EGPH 061750Z 25005KT 9999 FEW020 SCT140 02/M02 Q1010;EQDQ01+000000PRSWM2
0186031600999992000010619504+55950-003350FM-15+0041EGPH V0202201N005710420019N0112651N1+00401+00001999999ADDGA1021+009009999GA2021+033009999GA3071+042009999GF107991999999999999999999MA1100911999999MW1001REMMET060EGPH 061950Z 22011KT 9999 FEW030 SCT110 BKN140 04/M00 Q1009;EQDQ01+000000PRSWM2
0092031600999992000010620504+55950-003350FM-15+0041EGPH V0202301N00621220001CN0099001N1+00401-00101999999ADDMA1100911999999MW1001REMMET040EGPH 062050Z 23012KT CAVOK 04/M01 Q1009;EQDQ01+000000PRSWM2
0091031600999992000010621504+55950-003350FM-15+0041EGPH V0202101N00771220001CN0099001N1+00501+00001999999ADDMA1100811999999MW1001REMMET039EGPH 062150Z 21015KT CAVOK 05/00 Q1008;EQDQ01+000000PRSWM2
0139031600999992000010622504+55950-003350FM-15+0041EGPH V0202001N008210270019N0112651N1+00601+00101999999ADDGA1081+027009999GF108991999999999999999999MA1100711999999MW1001REMMET045EGPH 062250Z 20016KT 9999 OVC090 06/01 Q1007;EQDQ01+000000PRSWM2
0187031600999992000010623504+55950-003350FM-15+0041EGPH V0202101N008712200019N0112651N1+00601+00201999999ADDGA1021+008409999GA2021+012009999GF104991999999999999999999MA1100611999999MW1511REMMET061EGPH 062350Z 21017KT 9999 -DZ SCT028 SCT040 06/02 Q1006 RERA;EQDQ01+000003PRSWM1Q02    003PRSWM1
0187031600999992000010700504+55950-003350FM-15+0041EGPH V0202201N008710078019N0112651N1+00601+00301999999ADDGA1021+006009999GA2071+007809999GF107991999999999999999999MA1100411999999MW1611REMMET061EGPH 070050Z 22017KT 9999 -RA SCT020 BKN026 06/03 Q1004 RERA;EQDQ01+000003PRSWM1Q02    003PRSWM1
0198031600999992000010701504+55950-003350FM-15+0041EGPH V0202201N012310240019N0112651N1+00601+00401999999ADDGA1021+009009999GA2071+024009999GF107991999999999999999999MA1100201999999MW1511OC101751REMMET064EGPH 070150Z 22024G34KT 9999 -DZ FEW030 BKN080 06/04 Q1002 REDZ;EQDQ01+000003PRSWM1Q02    003PRSWM1
0068031600999992000010704004+55950-003350SAO  +0041EGPH V0202301N001012200019N9999999N1+99999+99999999999ADDMW1001REMAWY050EGPH 070420Z AUTO 23022KT 9999 BKN020 08/06 Q1000;
0162031600999992000010704504+55950-003350FM-15+0041EGPH V0202401N013910054019N0112651N1+00901+00601999999ADDGA1071+005409999GA2071+018009999GF107991999999999999999999MA1099901999999MW1001REMMET052EGPH 070450Z 24027KT 9999 BKN018 BKN060 09/06 Q0999;EQDQ01+000000PRSWM2
0150031600999992000010705504+55950-003350FM-15+0041EGPH V0202401N017010060019N0112651N1+00901+00601999999ADDGA1071+006009999GF107991999999999999999999MA1099801999999MW1001OC102261REMMET048EGPH 070550Z 24033G44KT 9999 BKN020 09/06 Q0998;EQDQ01+000000PRSWM2
0173031600999992000010706504+55950-003350FM-15+0041EGPH V0202401N011810180019N0112651N1+00901+00601999999ADDGA1021+007209999GA2071+018009999GF107991999999999999999999MA1099801999999MW1001OC101851REMMET055EGPH 070650Z 24023G36KT 9999 FEW024 BKN060 09/06 Q0998;EQDQ01+000000PRSWM2
0162031600999992000010707504+55950-003350FM-15+0041EGPH V0202301N013410210019N0112651N1+00901+00601999999ADDGA1021+007809999GA2071+021009999GF107991999999999999999999MA1099801999999MW1001REMMET052EGPH 070750Z 23026KT 9999 FEW026 BKN070 09/06 Q0998;EQDQ01+000000PRSWM2
0173031600999992000010708504+55950-003350FM-15+0041EGPH V0202501N011310180019N0112651N1+00901+00601999999ADDGA1021+005409999GA2071+018009999GF107991999999999999999999MA1099801999999MW1001OC101701REMMET055EGPH 070850Z 25022G33KT 9999 FEW018 BKN060 09/06 Q0998;EQDQ01+000000PRSWM2
0173031600999992000010709504+55950-003350FM-15+0041EGPH V0202301N014412200019N0112651N1+01001+00701999999ADDGA1021+006609999GA2021+012009999GF104991999999999999999999MA1099701999999MW1001OC102111REMMET055EGPH 070950Z 23028G41KT 9999 FEW022 SCT040 10/07 Q0997;EQDQ01+000000PRSWM2
0150031600999992000010710504+55950-003350FM-15+0041EGPH V0202301N018012200019N0112651N1+01001+00701999999ADDGA1021+003609999GF102991999999999999999999MA1099491999999MW1001OC102421REMMET048EGPH 071050Z 23035G47KT 9999 FEW012 10/07 Q0995;EQDQ01+000000PRSWM2
0173031600999992000010711504+55950-003350FM-15+0041EGPH V0202201N016510084019N0112651N1+01001+00701999999ADDGA1021+006609999GA2071+008409999GF107991999999999999999999MA1099491999999MW1001OC102211REMMET055EGPH 071150Z 22032G43KT 9999 SCT022 BKN028 10/07 Q0995;EQDQ01+000000PRSWM2
0194031600999992000010712504+55950-003350FM-15+0041EGPH V0202201N015910105019N0090001N1+01001+00701999999ADDGA1021+004209999GA2071+010509999GF107991999999999999999999MA1099491999999MW1811OC102161REMMET060EGPH 071250Z 22031G42KT 9000 SHRA FEW014 BKN035 10/07 Q0995;EQDQ01+000003PRSWM1Q02    003PRSWM1
0198031600999992000010713504+55950-003350FM-15+0041EGPH V0202101N016512200019N0080001N1+01001+00701999999ADDGA1021+003609999GA2021+009009999GF104991999999999999999999MA1099291999999MW1511OC102571REMMET064EGPH 071350Z 21032G50KT 8000 -DZ FEW012 SCT030 10/07 Q0993 REDZ;EQDQ01+000003PRSWM1Q02    003PRSWM1
0197031600999992000010714504+55950-003350FM-15+0041EGPH V0202101N015410078019N0038001N1+00901+00701999999ADDGA1021+006009999GA2071+007809999GF107991999999999999999999MA1099291999999MW1631OC102211REMMET063EGPH 071450Z 21030G43KT 3800 RA FEW020 BKN026 09/07 Q0993 REDZ;EQDQ01+000003PRSWM1Q02    003PRSWM1
0169031600999992000010715504+55950-003350FM-15+0041EGPH V0202101N014410090019N0060001N1+01001+00701999999ADDGA1071+009009999GF107991999999999999999999MA1099191999999MW1631OC102061REMMET051EGPH 071550Z 21028G40KT 6000 RA BKN030 10/07 Q0992;EQDQ01+000003PRSWM1Q02    003PRSWM1
0192031600999992000010716504+55950-003350FM-15+0041EGPH V0202201N013410120019N0112651N1+01001+00801999999ADDGA1021+009009999GA2071+012009999GF107991999999999999999999MA1099091999999MW1531OC101901REMMET058EGPH 071650Z 22026G37KT 9999 DZ SCT030 BKN040 10/08 Q0991;EQDQ01+000003PRSWM1Q02    003PRSWM1
0223031600999992000010717504+55950-003350FM-15+0041EGPH V0202601N011310105019N0090001N1+00701+00501999999ADDGA1021+003609999GA2021+006009999GA3071+010509999GF107991999999999999999999MA1099291999999MW1801OC101651REMMET073EGPH 071750Z 26022G32KT 9000 -SHRA FEW012 SCT020 BKN035 07/05 Q0993 RERA;EQDQ01+000003PRSWM1Q02    003PRSWM1
0210031600999992000010718504+55950-003350FM-15+0041EGPH V0202301N008210180019N0112651N1+00701+00401999999ADDGA1021+008409999GA2071+018009999GA3071+027009999GF107991999999999999999999MA1099191999999MW1611REMMET068EGPH 071850Z 23016KT 9999 -RA FEW028 BKN060 BKN090 07/04 Q0992 RERA;EQDQ01+000003PRSWM1Q02    003PRSWM1
0162031600999992000010719504+55950-003350FM-15+0041EGPH V0202201N010312200019N0112651N1+00801+00501999999ADDGA1021+008409999GA2021+012009999GF104991999999999999999999MA1099191999999MW1001REMMET052EGPH 071950Z 22020KT 9999 SCT028 SCT040 08/05 Q0992;EQDQ01+000000PRSWM2
0221031600999992000010720504+55950-003350FM-15+0041EGPH V0202601N011810120019N0112651N1+00501+00201999999ADDGA1021+007509999GA2021+009009999GA3071+012009999GF107991999999999999999999MA1099391999999MW1611OC101951REMMET071EGPH 072050Z 26023G38KT 9999 -RA FEW025 SCT030 BKN040 05/02 Q0994 RERA;EQDQ01+000003PRSWM1Q02    003PRSWM1
0139031600999992000010721504+55950-003350FM-15+0041EGPH V0202401N010312200019N0112651N1+00601+00201999999ADDGA1021+009009999GF102991999999999999999999MA1099391999999MW1001REMMET045EGPH 072150Z 24020KT 9999 FEW030 06/02 Q0994;EQDQ01+000000PRSWM2
0139031600999992000010722504+55950-003350FM-15+0041EGPH V0202301N010312200019N0112651N1+00501+00201999999ADDGA1021+008409999GF102991999999999999999999MA1099491999999MW1001REMMET045EGPH 072250Z 23020KT 9999 FEW028 05/02 Q0995;EQDQ01+000000PRSWM2
0150031600999992000010723504+55950-003350FM-15+0041EGPH V0202401N010312200019N0112651N1+00501+00101999999ADDGA1021+010509999GF102991999999999999999999MA1099591999999MW1001OC101541REMMET048EGPH 072350Z 24020G30KT 9999 FEW035 05/01 Q0996;EQDQ01+000000PRSWM2
0139031600999992000010800504+55950-003350FM-15+0041EGPH V0202301N011312200019N0112651N1+00501+00001999999ADDGA1021+010509999GF104991999999999999999999MA1099591999999MW1001REMMET045EGPH 080050Z 23022KT 9999 SCT035 05/00 Q0996;EQDQ01+000000PRSWM2
0173031600999992000010801504+55950-003350FM-15+0041EGPH V0202301N011812200019N0112651N1+00501+00001999999ADDGA1021+010509999GA2021+015009999GF104991999999999999999999MA1099591999999MW1001OC101701REMMET055EGPH 080150Z 23023G33KT 9999 FEW035 SCT050 05/00 Q0996;EQDQ01+000000PRSWM2
0167031600999992000010804204+55950-003350FM-15+0041EGPH V0202301N013412200019N0112651N1+00501+00101999999ADDGA1021+006609999GA2021+009009999GF104991999999999999999999MA1099591999999MW1001REMMET057EGPH 080420Z 23026KT 9999 FEW022 SCT030 05/01 Q0996 RERA;EQDQ01+000000PRSWM2
0200031600999992000010804504+55950-003350FM-15+0041EGPH V0202301N013412200019N0112651N1+00501+00101999999ADDGA1021+007209999GA2021+009009999GF104991999999999999999999MA1099591999999MW1801OC101851REMMET066EGPH 080450Z 23026G36KT 9999 -SHRA FEW024 SCT030 05/01 Q0996 RERA;EQDQ01+000003PRSWM1Q02    003PRSWM1
0190031600999992000010805504+55950-003350FM-15+0041EGPH V0202401N012310090019N0112651N1+00501+00301999999ADDGA1021+003009999GA2021+007209999GA3071+009009999GF107991999999999999999999MA1099701999999MW1001REMMET064EGPH 080550Z 24024KT 9999 FEW010 SCT024 BKN030 05/03 Q0997 RERA;EQDQ01+000000PRSWM2
0139031600999992000010806504+55950-003350FM-15+0041EGPH V0202301N012312200019N0112651N1+00501+00201999999ADDGA1021+007809999GF102991999999999999999999MA1099801999999MW1001REMMET045EGPH 080650Z 23024KT 9999 FEW026 05/02 Q0998;EQDQ01+000000PRSWM2
0187031600999992000010807504+55950-003350FM-15+0041EGPH V0202301N011312200019N0112651N1+00501+00301999999ADDGA1021+007209999GA2021+013509999GF104991999999999999999999MA1099901999999MW1511REMMET061EGPH 080750Z 23022KT 9999 -DZ FEW024 SCT045 05/03 Q0999 RERA;EQDQ01+000003PRSWM1Q02    003PRSWM1
0139031600999992000010808504+55950-003350FM-15+0041EGPH V0202401N010812200019N0112651N1+00501+00201999999ADDGA1021+010509999GF102991999999999999999999MA1100001999999MW1001REMMET045EGPH 080850Z 24021KT 9999 FEW035 05/02 Q1000;EQDQ01+000000PRSWM2
0139031600999992000010810204+55950-003350FM-15+0041EGPH V0202301N011312200019N0112651N1+00601+00301999999ADDGA1021+008409999GF102991999999999999999999MA1100201999999MW1001REMMET045EGPH 081020Z 23022KT 9999 FEW028 06/03 Q1002;EQDQ01+000000PRSWM2
0139031600999992000010810504+55950-003350FM-15+0041EGPH V0202301N012312200019N0112651N1+00601+00301999999ADDGA1021+007209999GF102991999999999999999999MA1100311999999MW1001REMMET045EGPH 081050Z 23024KT 9999 FEW024 06/03 Q1003;EQDQ01+000000PRSWM2
0162031600999992000010811504+55950-003350FM-15+0041EGPH V0202301N010812200019N0112651N1+00601+00301999999ADDGA1021+006009999GA2021+010509999GF104991999999999999999999MA1100311999999MW1001REMMET052EGPH 081150Z 23021KT 9999 FEW020 SCT035 06/03 Q1003;EQDQ01+000000PRSWM2
0185031600999992000010812504+55950-003350FM-15+0041EGPH V0202401N010810105019N0112651N1+00601+00301999999ADDGA1021+006009999GA2021+007809999GA3071+010509999GF107991999999999999999999MA1100411999999MW1001REMMET059EGPH 081250Z 24021KT 9999 FEW020 SCT026 BKN035 06/03 Q1004;EQDQ01+000000PRSWM2
0196031600999992000010813504+55950-003350FM-15+0041EGPH V0202301N011810120019N0112651N1+00601+00201999999ADDGA1021+006609999GA2021+008409999GA3071+012009999GF107991999999999999999999MA1100411999999MW1001OC101701REMMET062EGPH 081350Z 23023G33KT 9999 FEW022 SCT028 BKN040 06/02 Q1004;EQDQ01+000000PRSWM2
0197031600999992000010814504+55950-003350FM-15+0041EGPH V0202601N009812200019N0050001N1+00301+00201999999ADDGA1021+003009999GA2021+004809999GF104991999999999999999999MA1100511999999MW1631OC101651REMMET063EGPH 081450Z 26019G32KT 5000 RA FEW010 SCT016 03/02 Q1005 RERA;EQDQ01+000003PRSWM1Q02    003PRSWM1
0139031600999992000010815504+55950-003350FM-15+0041EGPH V0202401N008712200019N0112651N1+00401+00201999999ADDGA1021+006609999GF102991999999999999999999MA1100511999999MW1001REMMET045EGPH 081550Z 24017KT 9999 FEW022 04/02 Q1005;EQDQ01+000000PRSWM2
0189031600999992000010816504+55950-003350FM-15+0041EGPH V0202501N007712200019N0112651N1+00401+00201999999ADDGA1021+004809099GA2021+012009999GF104991999999999999999999MA1100611999999MW1611REMMET063EGPH 081650Z 25015KT 9999 -RA FEW016CB SCT040 04/02 Q1006 RERA;EQDQ01+000003PRSWM1Q02    003PRSWM1
0167031600999992000010817504+55950-003350FM-15+0041EGPH V0202401N007712200019N0112651N1+00201+00101999999ADDGA1021+004809999GA2021+018009999GF104991999999999999999999MA1100611999999MW1001REMMET057EGPH 081750Z 24015KT 9999 FEW016 SCT060 02/01 Q1006 RERA;EQDQ01+000000PRSWM2
0140031600999992000010818504+55950-003350FM-15+0041EGPH V0202401N006712200019N0112651N1+00201+00001999999ADDGA1021+013509999GF102991999999999999999999MA1100711999999MW1001REMMET046EGPH 081850Z 24013KT 9999 FEW045 02/M00 Q1007;EQDQ01+000000PRSWM2
0164031600999992000010819504+55950-003350FM-15+0041EGPH V0202501N005712200019N0112651N1+00201+00101999999ADDGA1021+010509999GF102991999999999999999999MA1100811999999MW1611REMMET054EGPH 081950Z 25011KT 9999 -RA FEW035 02/01 Q1008 RERA;EQDQ01+000003PRSWM1Q02    003PRSWM1
0204031600999992000010820504+55950-003350FM-15+0041EGPH V0202401N008712200019N0112651N1+00301+00101999999ADDGA1021+002109999GA2021+004509999GA3021+009009999GF104991999999999999999999MA1100911999999MW1631REMMET062EGPH 082050Z 24017KT 9999 RA FEW007 SCT015 SCT030 03/01 Q1009;EQDQ01+000003PRSWM1Q02    003PRSWM1
0144031600999992000010821504+55950-003350FM-15+0041EGPH V0202401N006712200019N0112651N1+00201+00001999999ADDGA1021+009009999GF102991999999999999999999MA1100911999999MW1001REMMET050EGPH 082150Z 24013KT 9999 FEW030 02/00 Q1009 RERA;EQDQ01+000000PRSWM2
0139031600999992000010822504+55950-003350FM-15+0041EGPH V0202401N005112200019N0112651N1+00201+00101999999ADDGA1021+010509999GF102991999999999999999999MA1101021999999MW1001REMMET045EGPH 082250Z 24010KT 9999 FEW035 02/01 Q1010;EQDQ01+000000PRSWM2
0184031600999992000010823504+55950-003350FM-15+0041EGPH V0202401N008212200019N0112651N1+00301+00101999999ADDGA1021+005409999GA2021+015009999GF104991999999999999999999MA1101081999999MW1801REMMET058EGPH 082350Z 24016KT 9999 -SHRA FEW018 SCT050 03/01 Q1011;EQDQ01+000003PRSWM1Q02    003PRSWM1
0139031600999992000010900504+55950-003350FM-15+0041EGPH V0202501N006712200019N0112651N1+00301+00101999999ADDGA1021+003609999GF102991999999999999999999MA1101081999999MW1001REMMET045EGPH 090050Z 25013KT 9999 FEW012 03/01 Q1011;EQDQ01+000000PRSWM2
0139031600999992000010901504+55950-003350FM-15+0041EGPH V0202501N008712200019N0112651N1+00201+00101999999ADDGA1021+004509999GF102991999999999999999999MA1101191999999MW1001REMMET045EGPH 090150Z 25017KT 9999 FEW015 02/01 Q1012;EQDQ01+000000PRSWM2
0139031600999992000010904204+55950-003350FM-15+0041EGPH V0202401N006212200019N0112651N1+00201+00101999999ADDGA1021+007509999GF102991999999999999999999MA1101491999999MW1001REMMET045EGPH 090420Z 24012KT 9999 FEW025 02/01 Q1015;EQDQ01+000000PRSWM2
0139031600999992000010904504+55950-003350FM-15+0041EGPH V0202401N006212200019N0112651N1+00201+00101999999ADDGA1021+010209999GF104991999999999999999999MA1101491999999MW1001REMMET045EGPH 090450Z 24012KT 9999 SCT034 02/01 Q1015;EQDQ01+000000PRSWM2
0162031600999992000010907204+55950-003350FM-15+0041EGPH V0202501N006210330019N0112651N1+00201+00101999999ADDGA1021+007509999GA2071+033009999GF107991999999999999999999MA1101691999999MW1001REMMET052EGPH 090720Z 25012KT 9999 FEW025 BKN110 02/01 Q1017;EQDQ01+000000PRSWM2
0162031600999992000010907504+55950-003350FM-15+0041EGPH V0202501N005112200019N0112651N1+00101+00001999999ADDGA1021+006009999GA2021+045009999GF104991999999999999999999MA1101801999999MW1001REMMET052EGPH 090750Z 25010KT 9999 FEW020 SCT150 01/00 Q1018;EQDQ01+000000PRSWM2
0162031600999992000010908504+55950-003350FM-15+0041EGPH V0202601N003112200019N0112651N1+00201+00001999999ADDGA1021+009009999GA2021+048009999GF104991999999999999999999MA1102001999999MW1001REMMET052EGPH 090850Z 26006KT 9999 FEW030 SCT160 02/00 Q1020;EQDQ01+000000PRSWM2
0170031600999992000010909504+55950-003350FM-15+0041EGPH V0202801N002612200019N0112651N1+00201+00001999999ADDGA1021+007509999GA2021+051009999GF102991999999999999999999MA1102101999999MW1001REMMET060EGPH 090950Z 28005KT 250V320 9999 FEW025 FEW170 02/00 Q1021;EQDQ01+000000PRSWM2
0139031600999992000010910504+55950-003350FM-15+0041EGPH V0202401N004612200019N0112651N1+00301+00101999999ADDGA1021+009009999GF102991999999999999999999MA1102201999999MW1001REMMET045EGPH 091050Z 24009KT 9999 FEW030 03/01 Q1022;EQDQ01+000000PRSWM2
0139031600999992000010911504+55950-003350FM-15+0041EGPH V0202601N004112200019N0112651N1+00401+00101999999ADDGA1021+007509999GF102991999999999999999999MA1102201999999MW1001REMMET045EGPH 091150Z 26008KT 9999 FEW025 04/01 Q1022;EQDQ01+000000PRSWM2
0091031600999992000010912504+55950-003350FM-15+0041EGPH V0202601N00311220001CN0099001N1+00401+00201999999ADDMA1102301999999MW1001REMMET039EGPH 091250Z 26006KT CAVOK 04/02 Q1023;EQDQ01+000000PRSWM2
0139031600999992000010913504+55950-003350FM-15+0041EGPH V0202501N004112200019N0112651N1+00501+00201999999ADDGA1021+006609999GF102991999999999999999999MA1102401999999MW1001REMMET045EGPH 091350Z 25008KT 9999 FEW022 05/02 Q1024;EQDQ01+000000PRSWM2
0138031600999992000010914504+55950-003350FM-15+0041EGPH V0202401N004112200019N0112651N1+99999+99999999999ADDGA1021+006009999GF102991999999999999999999MA1102401999999MW1001REMMET044EGPH 091450Z 24008KT 9999 FEW020 0/02 Q1024;EQDQ01+000000PRSWM2
0139031600999992000010915504+55950-003350FM-15+0041EGPH V0202101N002612200019N0112651N1+00301+00101999999ADDGA1021+006009999GF102991999999999999999999MA1102511999999MW1001REMMET045EGPH 091550Z 21005KT 9999 FEW020 03/01 Q1025;EQDQ01+000000PRSWM2
0163031600999992000010916504+55950-003350FM-15+0041EGPH V0202401N003612200019N0112651N1+00101+00001999999ADDGA1021+006009999GA2021+012009999GF102991999999999999999999MA1102511999999MW1001REMMET053EGPH 091650Z 24007KT 9999 FEW020 FEW040 01/M00 Q1025;EQDQ01+000000PRSWM2
0091031600999992000010917504+55950-003350FM-15+0041EGPH V0202401N00411220001CN0099001N1+00201+00101999999ADDMA1102611999999MW1001REMMET039EGPH 091750Z 24008KT CAVOK 02/01 Q1026;EQDQ01+000000PRSWM2
0091031600999992000010918504+55950-003350FM-15+0041EGPH V0202401N00311220001CN0099001N1+00101+00001999999ADDMA1102611999999MW1001REMMET039EGPH 091850Z 24006KT CAVOK 01/00 Q1026;EQDQ01+000000PRSWM2
0092031600999992000010919504+55950-003350FM-15+0041EGPH V0202401N00311220001CN0099001N1+00101-00101999999ADDMA1102611999999MW1001REMMET040EGPH 091950Z 24006KT CAVOK 01/M01 Q1026;EQDQ01+000000PRSWM2
0093031600999992000010920504+55950-003350FM-15+0041EGPH V0202501N00261220001CN0099001N1+00001-00101999999ADDMA1102711999999MW1001REMMET041EGPH 092050Z 25005KT CAVOK M00/M01 Q1027;EQDQ01+000000PRSWM2
0092031600999992000010921504+55950-003350FM-15+0041EGPH V0202301N00621220001CN0099001N1+00201+00001999999ADDMA1102611999999MW1001REMMET040EGPH 092150Z 23012KT CAVOK 02/M00 Q1026;EQDQ01+000000PRSWM2
0092031600999992000010922504+55950-003350FM-15+0041EGPH V0202301N00361220001CN0099001N1+00201+00001999999ADDMA1102611999999MW1001REMMET040EGPH 092250Z 23007KT CAVOK 02/M00 Q1026;EQDQ01+000000PRSWM2
0091031600999992000010923504+55950-003350FM-15+0041EGPH V0202301N00571220001CN0099001N1+00201+00001999999ADDMA1102511999999MW1001REMMET039EGPH 092350Z 23011KT CAVOK 02/00 Q1025;EQDQ01+000000PRSWM2
0091031600999992000011000504+55950-003350FM-15+0041EGPH V0202301N00571220001CN0099001N1+00301+00001999999ADDMA1102511999999MW1001REMMET039EGPH 100050Z 23011KT CAVOK 03/00 Q1025;EQDQ01+000000PRSWM2
0091031600999992000011001504+55950-003350FM-15+0041EGPH V0202201N00821220001CN0099001N1+00301+00101999999ADDMA1102401999999MW1001REMMET039EGPH 100150Z 22016KT CAVOK 03/01 Q1024;EQDQ01+000000PRSWM2
0162031600999992000011004504+55950-003350FM-15+0041EGPH V0202101N008210090019N0112651N1+00501+00201999999ADDGA1071+009009999GA2071+060009999GF107991999999999999999999MA1102201999999MW1001REMMET052EGPH 100450Z 21016KT 9999 BKN030 BKN200 05/02 Q1022;EQDQ01+000000PRSWM2
0162031600999992000011005504+55950-003350FM-15+0041EGPH V0202101N009810600019N0112651N1+00601+00301999999ADDGA1021+033009999GA2071+060009999GF107991999999999999999999MA1102101999999MW1001REMMET052EGPH 100550Z 21019KT 9999 SCT110 BKN200 06/03 Q1021;EQDQ01+000000PRSWM2
0173031600999992000011006504+55950-003350FM-15+0041EGPH V0202101N010312200019N0112651N1+00701+00301999999ADDGA1021+009009999GA2021+013509999GF104991999999999999999999MA1102001999999MW1001OC101541REMMET055EGPH 100650Z 21020G30KT 9999 FEW030 SCT045 07/03 Q1020;EQDQ01+000000PRSWM2
0091031600999992000011007504+55950-003350FM-15+0041EGPH V0202201N01031220001CN0099001N1+00701+00401999999ADDMA1101901999999MW1001REMMET039EGPH 100750Z 22020KT CAVOK 07/04 Q1019;EQDQ01+000000PRSWM2
0205031600999992000011008504+55950-003350FM-15+0041EGPH V0202101N010810150019N0080001N1+00801+00501999999ADDGA1021+010509999GA2071+015009999GA3071+024009999GF107991999999999999999999MA1101901999999MW1611REMMET063EGPH 100850Z 21021KT 8000 -RA FEW035 BKN050 BKN080 08/05 Q1019;EQDQ01+000003PRSWM1Q02    003PRSWM1
0198031600999992000011009504+55950-003350FM-15+0041EGPH V0202201N010810090019N0112651N1+00801+00501999999ADDGA1021+004509999GA2071+009009999GF107991999999999999999999MA1101901999999MW1611OC101701REMMET064EGPH 100950Z 22021G33KT 9999 -RA FEW015 BKN030 08/05 Q1019 RERA;EQDQ01+000003PRSWM1Q02    003PRSWM1
0193031600999992000011010504+55950-003350FM-15+0041EGPH V0202301N010310081019N0080001N1+00801+00601999999ADDGA1021+004509999GA2071+008109999GF107991999999999999999999MA1101901999999MW1611OC101591REMMET059EGPH 101050Z 23020G31KT 8000 -RA FEW015 BKN027 08/06 Q1019;EQDQ01+000003PRSWM1Q02    003PRSWM1
0216031600999992000011011504+55950-003350FM-15+0041EGPH V0202301N012310135019N0112651N1+00801+00601999999ADDGA1021+004809999GA2021+009009999GA3071+013509999GF107991999999999999999999MA1101801999999MW1611OC101751REMMET066EGPH 101150Z 23024G34KT 9999 -RA FEW016 SCT030 BKN045 08/06 Q1018;EQDQ01+000003PRSWM1Q02    003PRSWM1
0190031600999992000011012504+55950-003350FM-15+0041EGPH V0202301N010810135019N0112651N1+00801+00601999999ADDGA1021+004509999GA2021+009009999GA3071+013509999GF107991999999999999999999MA1101691999999MW1001REMMET064EGPH 101250Z 23021KT 9999 FEW015 SCT030 BKN045 08/06 Q1017 RERA;EQDQ01+000000PRSWM2
0185031600999992000011014204+55950-003350FM-15+0041EGPH V0202401N010310072019N0112651N1+00901+00701999999ADDGA1021+003609999GA2021+005409999GA3081+007209999GF108991999999999999999999MA1101691999999MW1001REMMET059EGPH 101420Z 24020KT 9999 SCT012 SCT018 OVC024 09/07 Q1017;EQDQ01+000000PRSWM2
0196031600999992000011015204+55950-003350FM-15+0041EGPH V0202501N010310060019N0112651N1+00901+00701999999ADDGA1021+004209999GA2071+006009999GA3071+007809999GF107991999999999999999999MA1101691999999MW1001OC101541REMMET062EGPH 101520Z 25020G30KT 9999 FEW014 BKN020 BKN026 09/07 Q1017;EQDQ01+000000PRSWM2
0181031600999992000011015504+55950-003350FM-15+0041EGPH V0202501N009312200019N0070001N1+00901+00701999999ADDGA1021+004509999GA2021+010509999GF104991999999999999999999MA1101801999999MW1631REMMET055EGPH 101550Z 25018KT 7000 RA FEW015 SCT035 09/07 Q1018;EQDQ01+000003PRSWM1Q02    003PRSWM1
0144031600999992000011016504+55950-003350FM-15+0041EGPH V0202501N007210120019N0112651N1+00801+00701999999ADDGA1081+012009999GF108991999999999999999999MA1101901999999MW1001REMMET050EGPH 101650Z 25014KT 9999 OVC040 08/07 Q1019 REDZ;EQDQ01+000000PRSWM2
0091031600999992000011017504+55950-003350FM-15+0041EGPH V0202501N00571220001CN0099001N1+00701+00601999999ADDMA1101901999999MW1001REMMET039EGPH 101750Z 25011KT CAVOK 07/06 Q1019;EQDQ01+000000PRSWM2
0139031600999992000011018504+55950-003350FM-15+0041EGPH V0202601N004612200019N0112651N1+00701+00501999999ADDGA1021+004809999GF102991999999999999999999MA1102001999999MW1001REMMET045EGPH 101850Z 26009KT 9999 FEW016 07/05 Q1020;EQDQ01+000000PRSWM2
0139031600999992000011019504+55950-003350FM-15+0041EGPH V0202501N006712200019N0112651N1+00701+00501999999ADDGA1021+008409999GF102991999999999999999999MA1102101999999MW1001REMMET045EGPH 101950Z 25013KT 9999 FEW028 07/05 Q1021;EQDQ01+000000PRSWM2
0091031600999992000011020504+55950-003350FM-15+0041EGPH V0202501N00671220001CN0099001N1+00701+00501999999ADDMA1102101999999MW1001REMMET039EGPH 102050Z 25013KT CAVOK 07/05 Q1021;EQDQ01+000000PRSWM2
0091031600999992000011021504+55950-003350FM-15+0041EGPH V0202301N00571220001CN0099001N1+00601+00501999999ADDMA1102101999999MW1001REMMET039EGPH 102150Z 23011KT CAVOK 06/05 Q1021;EQDQ01+000000PRSWM2
0091031600999992000011023204+55950-003350FM-15+0041EGPH V0202301N00461220001CN0099001N1+00601+00501999999ADDMA1102201999999MW1001REMMET039EGPH 102320Z 23009KT CAVOK 06/05 Q1022;EQDQ01+000000PRSWM2
0091031600999992000011023504+55950-003350FM-15+0041EGPH V0202301N00461220001CN0099001N1+00601+00401999999ADDMA1102201999999MW1001REMMET039EGPH 102350Z 23009KT CAVOK 06/04 Q1022;EQDQ01+000000PRSWM2
0139031600999992000011100504+55950-003350FM-15+0041EGPH V0202201N004612200019N0112651N1+00601+00401999999ADDGA1021+003609999GF104991999999999999999999MA1102201999999MW1001REMMET045EGPH 110050Z 22009KT 9999 SCT012 06/04 Q1022;EQDQ01+000000PRSWM2
0162031600999992000011101504+55950-003350FM-15+0041EGPH V0202201N004112200019N0112651N1+00601+00401999999ADDGA1021+004809999GA2021+013509999GF104991999999999999999999MA1102201999999MW1001REMMET052EGPH 110150Z 22008KT 9999 SCT016 SCT045 06/04 Q1022;EQDQ01+000000PRSWM2
0139031600999992000011104504+55950-003350FM-15+0041EGPH V0202201N005112200019N0112651N1+00601+00401999999ADDGA1021+013509999GF102991999999999999999999MA1102201999999MW1001REMMET045EGPH 110450Z 22010KT 9999 FEW045 06/04 Q1022;EQDQ01+000000PRSWM2
0091031600999992000011105504+55950-003350FM-15+0041EGPH V0202201N00361220001CN0099001N1+00501+00301999999ADDMA1102201999999MW1001REMMET039EGPH 110550Z 22007KT CAVOK 05/03 Q1022;EQDQ01+000000PRSWM2
0139031600999992000011106504+55950-003350FM-15+0041EGPH V0202301N004612200019N0112651N1+00501+00301999999ADDGA1021+004809999GF102991999999999999999999MA1102201999999MW1001REMMET045EGPH 110650Z 23009KT 9999 FEW016 05/03 Q1022;EQDQ01+000000PRSWM2
0091031600999992000011107504+55950-003350FM-15+0041EGPH V0202301N00461220001CN0099001N1+00401+00301999999ADDMA1102201999999MW1001REMMET039EGPH 110750Z 23009KT CAVOK 04/03 Q1022;EQDQ01+000000PRSWM2
0185031600999992000011108504+55950-003350FM-15+0041EGPH V0202401N004110660019N0112651N1+00401+00301999999ADDGA1021+005409999GA2021+057009999GA3071+066009999GF107991999999999999999999MA1102201999999MW1001REMMET059EGPH 110850Z 24008KT 9999 FEW018 SCT190 BKN220 04/03 Q1022;EQDQ01+000000PRSWM2
0139031600999992000011109504+55950-003350FM-15+0041EGPH V02099999999992200019N0112651N1+00601+00401999999ADDGA1021+006009999GF104991999999999999999999MA1102101999999MW1001REMMET045EGPH 110950Z VRB02KT 9999 SCT020 06/04 Q1021;EQDQ01+000000PRSWM2
0162031600999992000011110504+55950-003350FM-15+0041EGPH V0202301N002612200019N0112651N1+00601+00401999999ADDGA1021+007209999GA2021+048009999GF104991999999999999999999MA1102101999999MW1001REMMET052EGPH 111050Z 23005KT 9999 FEW024 SCT160 06/04 Q1021;EQDQ01+000000PRSWM2
0139031600999992000011111504+55950-003350FM-15+0041EGPH V0202301N003112200019N0112651N1+00601+00401999999ADDGA1021+009009999GF104991999999999999999999MA1102001999999MW1001REMMET045EGPH 111150Z 23006KT 9999 SCT030 06/04 Q1020;EQDQ01+000000PRSWM2
0162031600999992000011112504+55950-003350FM-15+0041EGPH V0202201N004112200019N0112651N1+00801+00501999999ADDGA1021+024009999GA2021+033009999GF104991999999999999999999MA1101901999999MW1001REMMET052EGPH 111250Z 22008KT 9999 SCT080 SCT110 08/05 Q1019;EQDQ01+000000PRSWM2
0139031600999992000011113504+55950-003350FM-15+0041EGPH V0202301N005110360019N0112651N1+00801+00501999999ADDGA1081+036009999GF108991999999999999999999MA1101801999999MW1001REMMET045EGPH 111350Z 23010KT 9999 OVC120 08/05 Q1018;EQDQ01+000000PRSWM2
0162031600999992000011114504+55950-003350FM-15+0041EGPH V0202301N007210210019N0112651N1+00801+00501999999ADDGA1021+009009999GA2071+021009999GF107991999999999999999999MA1101691999999MW1001REMMET052EGPH 111450Z 23014KT 9999 FEW030 BKN070 08/05 Q1017;EQDQ01+000000PRSWM2
0185031600999992000011115504+55950-003350FM-15+0041EGPH V0202201N005110240019N0112651N1+00801+00501999999ADDGA1021+009009999GA2021+015009999GA3071+024009999GF107991999999999999999999MA1101591999999MW1001REMMET059EGPH 111550Z 22010KT 9999 FEW030 SCT050 BKN080 08/05 Q1016;EQDQ01+000000PRSWM2
0187031600999992000011116504+55950-003350FM-15+0041EGPH V0202201N005710090019N0112651N1+00701+00401999999ADDGA1071+009009999GA2071+013509999GF107991999999999999999999MA1101491999999MW1611REMMET061EGPH 111650Z 22011KT 9999 -RA BKN030 BKN045 07/04 Q1015 RERA;EQDQ01+000003PRSWM1Q02    003PRSWM1
0139031600999992000011117504+55950-003350FM-15+0041EGPH V0202301N004110240019N0112651N1+00601+00401999999ADDGA1071+024009999GF107991999999999999999999MA1101491999999MW1001REMMET045EGPH 111750Z 23008KT 9999 BKN080 06/04 Q1015;EQDQ01+000000PRSWM2
0186031600999992000011118504+55950-003350FM-15+0041EGPH V0202301N004610150019N0112651N1+00601+00401999999ADDGA1021+010509999GA2071+015009999GF107991999999999999999999MA1101491999999MW1531REMMET060EGPH 111850Z 23009KT 9999 DZ SCT035 BKN050 06/04 Q1015 RERA;EQDQ01+000003PRSWM1Q02    003PRSWM1
0210031600999992000011119504+55950-003350FM-15+0041EGPH V0202401N003610105019N0112651N1+00601+00501999999ADDGA1021+007809999GA2071+010509999GA3071+015009999GF107991999999999999999999MA1101391999999MW1511REMMET068EGPH 111950Z 24007KT 9999 -DZ FEW026 BKN035 BKN050 06/05 Q1014 RERA;EQDQ01+000003PRSWM1Q02    003PRSWM1
0210031600999992000011120504+55950-003350FM-15+0041EGPH V0202401N003610090019N0112651N1+00601+00501999999ADDGA1021+005409999GA2021+007209999GA3081+009009999GF108991999999999999999999MA1101491999999MW1611REMMET068EGPH 112050Z 24007KT 9999 -RA SCT018 SCT024 OVC030 06/05 Q1015 REDZ;EQDQ01+000003PRSWM1Q02    003PRSWM1
0187031600999992000011121504+55950-003350FM-15+0041EGPH V0202301N004110240019N0112651N1+00601+00401999999ADDGA1021+007809999GA2071+024009999GF107991999999999999999999MA1101391999999MW1511REMMET061EGPH 112150Z 23008KT 9999 -DZ FEW026 BKN080 06/04 Q1014 REDZ;EQDQ01+000003PRSWM1Q02    003PRSWM1
0139031600999992000011122504+55950-003350FM-15+0041EGPH V0202001N004610210019N0112651N1+00601+00401999999ADDGA1071+021009999GF107991999999999999999999MA1101391999999MW1001REMMET045EGPH 112250Z 20009KT 9999 BKN070 06/04 Q1014;EQDQ01+000000PRSWM2
0162031600999992000011123504+55950-003350FM-15+0041EGPH V0202401N004610036019N0112651N1+00601+00401999999ADDGA1071+003609999GA2071+007809999GF107991999999999999999999MA1101491999999MW1001REMMET052EGPH 112350Z 24009KT 9999 BKN012 BKN026 06/04 Q1015;EQDQ01+000000PRSWM2
0139031600999992000011200504+55950-003350FM-15+0041EGPH V0202201N002610030019N0112651N1+00601+00401999999ADDGA1081+003009999GF108991999999999999999999MA1101491999999MW1001REMMET045EGPH 120050Z 22005KT 9999 OVC010 06/04 Q1015;EQDQ01+000000PRSWM2
0162031600999992000011201504+55950-003350FM-15+0041EGPH V0202401N003110450019N0112651N1+00501+00401999999ADDGA1021+003009999GA2071+045009999GF107991999999999999999999MA1101391999999MW1001REMMET052EGPH 120150Z 24006KT 9999 FEW010 BKN150 05/04 Q1014;EQDQ01+000000PRSWM2
0162031600999992000011204204+55950-003350FM-15+0041EGPH V0202201N005110270019N0112651N1+00601+00401999999ADDGA1021+006009999GA2081+027009999GF108991999999999999999999MA1101391999999MW1001REMMET052EGPH 120420Z 22010KT 9999 FEW020 OVC090 06/04 Q1014;EQDQ01+000000PRSWM2
0091031600999992000011204504+55950-003350FM-15+0041EGPH V0202201N00461220001CN0099001N1+00501+00401999999ADDMA1101291999999MW1001REMMET039EGPH 120450Z 22009KT CAVOK 05/04 Q1013;EQDQ01+000000PRSWM2
0162031600999992000011205504+55950-003350FM-15+0041EGPH V0202301N004610360019N0112651N1+00501+00401999999ADDGA1021+006609999GA2071+036009999GF107991999999999999999999MA1101291999999MW1001REMMET052EGPH 120550Z 23009KT 9999 FEW022 BKN120 05/04 Q1013;EQDQ01+000000PRSWM2
0139031600999992000011206504+55950-003350FM-15+0041EGPH V0202301N003110072019N0112651N1+00501+00401999999ADDGA1071+007209999GF107991999999999999999999MA1101291999999MW1001REMMET045EGPH 120650Z 23006KT 9999 BKN024 05/04 Q1013;EQDQ01+000000PRSWM2
0139031600999992000011207504+55950-003350FM-15+0041EGPH V0202201N004610042019N0112651N1+00601+00401999999ADDGA1071+004209999GF107991999999999999999999MA1101291999999MW1001REMMET045EGPH 120750Z 22009KT 9999 BKN014 06/04 Q1013;EQDQ01+000000PRSWM2
0190031600999992000011208504+55950-003350FM-15+0041EGPH V0202401N006210420019N0112651N1+00601+00401999999ADDGA1021+006009999GA2021+009009999GA3071+042009999GF107991999999999999999999MA1101291999999MW1001REMMET064EGPH 120850Z 24012KT 9999 FEW020 SCT030 BKN140 06/04 Q1013 RERA;EQDQ01+000000PRSWM2
0139031600999992000011209504+55950-003350FM-15+0041EGPH V0202501N006710480019N0112651N1+00601+00401999999ADDGA1071+048009999GF107991999999999999999999MA1101291999999MW1001REMMET045EGPH 120950Z 25013KT 9999 BKN160 06/04 Q1013;EQDQ01+000000PRSWM2
0162031600999992000011210504+55950-003350FM-15+0041EGPH V0202501N004610510019N0112651N1+00601+00401999999ADDGA1071+051009999GA2071+060009999GF107991999999999999999999MA1101291999999MW1001REMMET052EGPH 121050Z 25009KT 9999 BKN170 BKN200 06/04 Q1013;EQDQ01+000000PRSWM2
0212031600999992000011211504+55950-003350FM-15+0041EGPH V0202401N006210120019N0112651N1+00601+00301999999ADDGA1021+006609999GA2021+008409999GA3071+012009999GF107991999999999999999999MA1101291999999MW1801REMMET070EGPH 121150Z 24012KT 9999 -SHRA FEW022 SCT028 BKN040 06/03 Q1013 RERA;EQDQ01+000003PRSWM1Q02    003PRSWM1
0162031600999992000011212504+55950-003350FM-15+0041EGPH V0202401N004112200019N0112651N1+00601+00301999999ADDGA1021+007509999GA2021+012009999GF104991999999999999999999MA1101291999999MW1001REMMET052EGPH 121250Z 24008KT 9999 FEW025 SCT040 06/03 Q1013;EQDQ01+000000PRSWM2
0139031600999992000011213504+55950-003350FM-15+0041EGPH V0202501N005110150019N0112651N1+00501+00301999999ADDGA1071+015009999GF107991999999999999999999MA1101291999999MW1001REMMET045EGPH 121350Z 25010KT 9999 BKN050 05/03 Q1013;EQDQ01+000000PRSWM2
0091031600999992000011214504+55950-003350FM-15+0041EGPH V0202401N00511220001CN0099001N1+00501+00301999999ADDMA1101191999999MW1001REMMET039EGPH 121450Z 24010KT CAVOK 05/03 Q1012;EQDQ01+000000PRSWM2
0091031600999992000011215504+55950-003350FM-15+0041EGPH V0202401N00461220001CN0099001N1+00501+00201999999ADDMA1101191999999MW1001REMMET039EGPH 121550Z 24009KT CAVOK 05/02 Q1012;EQDQ01+000000PRSWM2
0091031600999992000011216504+55950-003350FM-15+0041EGPH V0202401N00311220001CN0099001N1+00401+00201999999ADDMA1101191999999MW1001REMMET039EGPH 121650Z 24006KT CAVOK 04/02 Q1012;EQDQ01+000000PRSWM2
0162031600999992000011217504+55950-003350FM-15+0041EGPH V0202801N004112200019N0112651N1+00401+00101999999ADDGA1021+003609999GA2021+009009999GF104991999999999999999999MA1101291999999MW1001REMMET052EGPH 121750Z 28008KT 9999 FEW012 SCT030 04/01 Q1013;EQDQ01+000000PRSWM2
0185031600999992000011218504+55950-003350FM-15+0041EGPH V0202401N003610135019N0112651N1+00301+00101999999ADDGA1021+007209999GA2021+009009999GA3071+013509999GF107991999999999999999999MA1101291999999MW1001REMMET059EGPH 121850Z 24007KT 9999 FEW024 SCT030 BKN045 03/01 Q1013;EQDQ01+000000PRSWM2
0091031600999992000011219504+55950-003350FM-15+0041EGPH V0202601N00211220001CN0099001N1+00301+00101999999ADDMA1101291999999MW1001REMMET039EGPH 121950Z 26004KT CAVOK 03/01 Q1013;EQDQ01+000000PRSWM2
0091031600999992000011220504+55950-003350FM-15+0041EGPH V0202601N00151220001CN0099001N1+00201+00101999999ADDMA1101291999999MW1001REMMET039EGPH 122050Z 26003KT CAVOK 02/01 Q1013;EQDQ01+000000PRSWM2
0139031600999992000011221504+55950-003350FM-15+0041EGPH V0202601N002110330019N0112651N1+00201+00001999999ADDGA1081+033009999GF108991999999999999999999MA1101291999999MW1001REMMET045EGPH 122150Z 26004KT 9999 OVC110 02/00 Q1013;EQDQ01+000000PRSWM2
0091031600999992000011222504+55950-003350FM-15+0041EGPH V0202501N00151220001CN0099001N1+00101+00001999999ADDMA1101291999999MW1001REMMET039EGPH 122250Z 25003KT CAVOK 01/00 Q1013;EQDQ01+000000PRSWM2
0092031600999992000011223504+55950-003350FM-15+0041EGPH V0202701N00151220001CN0099001N1+00101+00001999999ADDMA1101291999999MW1001REMMET040EGPH 122350Z 27003KT CAVOK 01/M00 Q1013;EQDQ01+000000PRSWM2
0093031600999992000011300504+55950-003350FM-15+0041EGPH V0202501N00211220001CN0099001N1-00201-00301999999ADDMA1101291999999MW1001REMMET041EGPH 130050Z 25004KT CAVOK M02/M03 Q1013;EQDQ01+000000PRSWM2
0093031600999992000011301504+55950-003350FM-15+0041EGPH V0209999C00001220001CN0099001N1+00001-00101999999ADDMA1101291999999MW1001REMMET041EGPH 130150Z 00000KT CAVOK M00/M01 Q1013;EQDQ01+000000PRSWM2
0093031600999992000011304204+55950-003350FM-15+0041EGPH V0202501N00151220001CN0099001N1-00101-00201999999ADDMA1101291999999MW1001REMMET041EGPH 130420Z 25003KT CAVOK M01/M02 Q1013;EQDQ01+000000PRSWM2
0093031600999992000011304504+55950-003350FM-15+0041EGPH V0202601N00211220001CN0099001N1-00101-00201999999ADDMA1101291999999MW1001REMMET041EGPH 130450Z 26004KT CAVOK M01/M02 Q1013;EQDQ01+000000PRSWM2
0093031600999992000011305504+55950-003350FM-15+0041EGPH V0202401N00261220001CN0099001N1-00201-00201999999ADDMA1101291999999MW1001REMMET041EGPH 130550Z 24005KT CAVOK M02/M02 Q1013;EQDQ01+000000PRSWM2
0093031600999992000011306504+55950-003350FM-15+0041EGPH V0202501N00261220001CN0099001N1-00101-00101999999ADDMA1101291999999MW1001REMMET041EGPH 130650Z 25005KT CAVOK M01/M01 Q1013;EQDQ01+000000PRSWM2
0141031600999992000011307504+55950-003350FM-15+0041EGPH V0202501N003112200019N0112651N1+00001-00101999999ADDGA1021+007509999GF102991999999999999999999MA1101291999999MW1001REMMET047EGPH 130750Z 25006KT 9999 FEW025 M00/M01 Q1013;EQDQ01+000000PRSWM2
0141031600999992000011308504+55950-003350FM-15+0041EGPH V0202501N002612200019N0112651N1-00101-00101999999ADDGA1021+007509999GF102991999999999999999999MA1101291999999MW1001REMMET047EGPH 130850Z 25005KT 9999 FEW025 M01/M01 Q1013;EQDQ01+000000PRSWM2
0140031600999992000011309504+55950-003350FM-15+0041EGPH V0202401N002612200019N0112651N1+00101-00101999999ADDGA1021+005709999GF102991999999999999999999MA1101391999999MW1001REMMET046EGPH 130950Z 24005KT 9999 FEW019 01/M01 Q1014;EQDQ01+000000PRSWM2
0186031600999992000011310504+55950-003350FM-15+0041EGPH V0202601N001510150019N0112651N1+00101+00001999999ADDGA1021+006009999GA2021+010509999GA3071+015009999GF107991999999999999999999MA1101391999999MW1001REMMET060EGPH 131050Z 26003KT 9999 FEW020 SCT035 BKN050 01/M00 Q1014;EQDQ01+000000PRSWM2
0204031600999992000011311504+55950-003350FM-15+0041EGPH V0209999C000010102019N0070001N1+00201+00001999999ADDGA1021+004209999GA2021+007809999GA3071+010209999GF107991999999999999999999MA1101491999999MW1631REMMET062EGPH 131150Z 00000KT 7000 RA FEW014 SCT026 BKN034 02/00 Q1015;EQDQ01+000003PRSWM1Q02    003PRSWM1
0187031600999992000011312504+55950-003350FM-15+0041EGPH V0209999C000010072019N0090001N1+00201+00101999999ADDGA1021+005409999GA2071+007209999GF107991999999999999999999MA1101491999999MW1611REMMET061EGPH 131250Z 00000KT 9000 -RA SCT018 BKN024 02/01 Q1015 RERA;EQDQ01+000003PRSWM1Q02    003PRSWM1
0167031600999992000011313504+55950-003350FM-15+0041EGPH V0209999C000012200019N0112651N1+00201+00201999999ADDGA1021+003609999GA2021+015009999GF104991999999999999999999MA1101591999999MW1001REMMET057EGPH 131350Z 00000KT 9999 SCT012 SCT050 02/02 Q1016 RESN;EQDQ01+000000PRSWM2
0162031600999992000011314504+55950-003350FM-15+0041EGPH V0200401N003112200019N0112651N1+00201+00101999999ADDGA1021+003609999GA2021+015009999GF104991999999999999999999MA1101691999999MW1001REMMET052EGPH 131450Z 04006KT 9999 FEW012 SCT050 02/01 Q1017;EQDQ01+000000PRSWM2
0162031600999992000011315504+55950-003350FM-15+0041EGPH V0200201N003110120019N0112651N1+00301+00101999999ADDGA1021+005409999GA2071+012009999GF107991999999999999999999MA1101901999999MW1001REMMET052EGPH 131550Z 02006KT 9999 FEW018 BKN040 03/01 Q1019;EQDQ01+000000PRSWM2
0140031600999992000011316504+55950-003350FM-15+0041EGPH V0203601N002112200019N0112651N1+00201+00001999999ADDGA1021+013509999GF102991999999999999999999MA1102001999999MW1001REMMET046EGPH 131650Z 36004KT 9999 FEW045 02/M00 Q1020;EQDQ01+000000PRSWM2
0140031600999992000011317504+55950-003350FM-15+0041EGPH V0203301N002610120019N0112651N1+00301+00001999999ADDGA1081+012009999GF108991999999999999999999MA1102101999999MW1001REMMET046EGPH 131750Z 33005KT 9999 OVC040 03/M00 Q1021;EQDQ01+000000PRSWM2
0092031600999992000011318504+55950-003350FM-15+0041EGPH V0203401N00261220001CN0099001N1+00201-00101999999ADDMA1102201999999MW1001REMMET040EGPH 131850Z 34005KT CAVOK 02/M01 Q1022;EQDQ01+000000PRSWM2
0140031600999992000011320204+55950-003350FM-15+0041EGPH V0203501N003610150019N0112651N1+00301-00101999999ADDGA1081+015009999GF108991999999999999999999MA1102301999999MW1001REMMET046EGPH 132020Z 35007KT 9999 OVC050 03/M01 Q1023;EQDQ01+000000PRSWM2
0140031600999992000011320504+55950-003350FM-15+0041EGPH V0203201N002110135019N0112651N1+00301-00101999999ADDGA1071+013509999GF107991999999999999999999MA1102301999999MW1001REMMET046EGPH 132050Z 32004KT 9999 BKN045 03/M01 Q1023;EQDQ01+000000PRSWM2
0140031600999992000011321504+55950-003350FM-15+0041EGPH V0203401N003110090019N0112651N1+00301+00001999999ADDGA1071+009009999GF107991999999999999999999MA1102401999999MW1001REMMET046EGPH 132150Z 34006KT 9999 BKN030 03/M00 Q1024;EQDQ01+000000PRSWM2
0139031600999992000011322504+55950-003350FM-15+0041EGPH V0203501N003112200019N0112651N1+00301+00001999999ADDGA1021+013509999GF104991999999999999999999MA1102401999999MW1001REMMET045EGPH 132250Z 35006KT 9999 SCT045 03/00 Q1024;EQDQ01+000000PRSWM2
0162031600999992000011323504+55950-003350FM-15+0041EGPH V0200101N004610180019N0112651N1+00401+00001999999ADDGA1021+012009999GA2071+018009999GF107991999999999999999999MA1102511999999MW1001REMMET052EGPH 132350Z 01009KT 9999 SCT040 BKN060 04/00 Q1025;EQDQ01+000000PRSWM2
0139031600999992000011400504+55950-003350FM-15+0041EGPH V0203501N001510135019N0112651N1+00301+00001999999ADDGA1071+013509999GF107991999999999999999999MA1102611999999MW1001REMMET045EGPH 140050Z 35003KT 9999 BKN045 03/00 Q1026;EQDQ01+000000PRSWM2
0140031600999992000011401504+55950-003350FM-15+0041EGPH V0203201N002112200019N0112651N1+00301+00001999999ADDGA1021+012009999GF102991999999999999999999MA1102611999999MW1001REMMET046EGPH 140150Z 32004KT 9999 FEW040 03/M00 Q1026;EQDQ01+000000PRSWM2
0092031600999992000011404504+55950-003350FM-15+0041EGPH V0203601N00411220001CN0099001N1+00301-00101999999ADDMA1102811999999MW1001REMMET040EGPH 140450Z 36008KT CAVOK 03/M01 Q1028;EQDQ01+000000PRSWM2
0092031600999992000011405504+55950-003350FM-15+0041EGPH V0203601N00411220001CN0099001N1+00301-00201999999ADDMA1102911999999MW1001REMMET040EGPH 140550Z 36008KT CAVOK 03/M02 Q1029;EQDQ01+000000PRSWM2
0100031600999992000011406504+55950-003350FM-15+0041EGPH V0200101N00311220001CN0099001N1+00201-00201999999ADDMA1103011999999MW1001REMMET048EGPH 140650Z 01006KT 350V050 CAVOK 02/M02 Q1030;EQDQ01+000000PRSWM2
0163031600999992000011407504+55950-003350FM-15+0041EGPH V0203601N002612200019N0112651N1+00201-00101999999ADDGA1021+009009999GA2021+012009999GF104991999999999999999999MA1103011999999MW1001REMMET053EGPH 140750Z 36005KT 9999 SCT030 SCT040 02/M01 Q1030;EQDQ01+000000PRSWM2
0163031600999992000011408504+55950-003350FM-15+0041EGPH V0200101N003112200019N0112651N1+00201-00101999999ADDGA1021+009009999GA2021+013509999GF104991999999999999999999MA1103121999999MW1001REMMET053EGPH 140850Z 01006KT 9999 SCT030 SCT045 02/M01 Q1031;EQDQ01+000000PRSWM2
0140031600999992000011409504+55950-003350FM-15+0041EGPH V0203301N002110150019N0112651N1+00201-00201999999ADDGA1071+015009999GF107991999999999999999999MA1103181999999MW1001REMMET046EGPH 140950Z 33004KT 9999 BKN050 02/M02 Q1032;EQDQ01+000000PRSWM2
0163031600999992000011410504+55950-003350FM-15+0041EGPH V0203601N003612200019N0112651N1+00201-00201999999ADDGA1021+012009999GA2021+015009999GF104991999999999999999999MA1103181999999MW1001REMMET053EGPH 141050Z 36007KT 9999 FEW040 SCT050 02/M02 Q1032;EQDQ01+000000PRSWM2
0140031600999992000011411504+55950-003350FM-15+0041EGPH V0203601N004612200019N0112651N1+00301-00201999999ADDGA1021+015009999GF104991999999999999999999MA1103181999999MW1001REMMET046EGPH 141150Z 36009KT 9999 SCT050 03/M02 Q1032;EQDQ01+000000PRSWM2
0163031600999992000011412504+55950-003350FM-15+0041EGPH V0200101N004112200019N0112651N1+00401-00201999999ADDGA1021+007209999GA2021+015009999GF102991999999999999999999MA1103181999999MW1001REMMET053EGPH 141250Z 01008KT 9999 FEW024 FEW050 04/M02 Q1032;EQDQ01+000000PRSWM2
0140031600999992000011413504+55950-003350FM-15+0041EGPH V0200101N005110135019N0112651N1+00401-00301999999ADDGA1081+013509999GF108991999999999999999999MA1103291999999MW1001REMMET046EGPH 141350Z 01010KT 9999 OVC045 04/M03 Q1033;EQDQ01+000000PRSWM2
0140031600999992000011415204+55950-003350FM-15+0041EGPH V0203601N005110135019N0112651N1+00301-00301999999ADDGA1081+013509999GF108991999999999999999999MA1103391999999MW1001REMMET046EGPH 141520Z 36010KT 9999 OVC045 03/M03 Q1034;EQDQ01+000000PRSWM2
0140031600999992000011415504+55950-003350FM-15+0041EGPH V0203501N004110135019N0112651N1+00301-00301999999ADDGA1081+013509999GF108991999999999999999999MA1103391999999MW1001REMMET046EGPH 141550Z 35008KT 9999 OVC045 03/M03 Q1034;EQDQ01+000000PRSWM2
0163031600999992000011416504+55950-003350FM-15+0041EGPH V0203601N004110135019N0112651N1+00301-00301999999ADDGA1021+006009999GA2071+013509999GF107991999999999999999999MA1103491999999MW1001REMMET053EGPH 141650Z 36008KT 9999 FEW020 BKN045 03/M03 Q1035;EQDQ01+000000PRSWM2
0140031600999992000011417504+55950-003350FM-15+0041EGPH V0203601N003610120019N0112651N1+00201-00301999999ADDGA1071+012009999GF107991999999999999999999MA1103591999999MW1001REMMET046EGPH 141750Z 36007KT 9999 BKN040 02/M03 Q1036;EQDQ01+000000PRSWM2
0140031600999992000011418504+55950-003350FM-15+0041EGPH V0203601N004110135019N0112651N1+00301-00301999999ADDGA1081+013509999GF108991999999999999999999MA1103591999999MW1001REMMET046EGPH 141850Z 36008KT 9999 OVC045 03/M03 Q1036;EQDQ01+000000PRSWM2
0140031600999992000011419504+55950-003350FM-15+0041EGPH V0203401N002610120019N0112651N1+00201-00301999999ADDGA1071+012009999GF107991999999999999999999MA1103691999999MW1001REMMET046EGPH 141950Z 34005KT 9999 BKN040 02/M03 Q1037;EQDQ01+000000PRSWM2
0140031600999992000011420504+55950-003350FM-15+0041EGPH V0203401N001510120019N0112651N1+00101-00301999999ADDGA1071+012009999GF107991999999999999999999MA1103691999999MW1001REMMET046EGPH 142050Z 34003KT 9999 BKN040 01/M03 Q1037;EQDQ01+000000PRSWM2
0140031600999992000011421504+55950-003350FM-15+0041EGPH V0203501N002610120019N0112651N1+00201-00201999999ADDGA1081+012009999GF108991999999999999999999MA1103791999999MW1001REMMET046EGPH 142150Z 35005KT 9999 OVC040 02/M02 Q1038;EQDQ01+000000PRSWM2
0140031600999992000011422504+55950-003350FM-15+0041EGPH V0203301N002110120019N0112651N1+00201-00201999999ADDGA1081+012009999GF108991999999999999999999MA1103791999999MW1001REMMET046EGPH 142250Z 33004KT 9999 OVC040 02/M02 Q1038;EQDQ01+000000PRSWM2
0140031600999992000011423504+55950-003350FM-15+0041EGPH V02099999999990120019N0112651N1+00201-00201999999ADDGA1081+012009999GF108991999999999999999999MA1103791999999MW1001REMMET046EGPH 142350Z VRB02KT 9999 OVC040 02/M02 Q1038;EQDQ01+000000PRSWM2
0140031600999992000011500504+55950-003350FM-15+0041EGPH V02099999999990120019N0112651N1+00201-00201999999ADDGA1081+012009999GF108991999999999999999999MA1103891999999MW1001REMMET046EGPH 150050Z VRB02KT 9999 OVC040 02/M02 Q1039;EQDQ01+000000PRSWM2
0140031600999992000011501504+55950-003350FM-15+0041EGPH V0202401N002110105019N0112651N1+00101-00201999999ADDGA1081+010509999GF108991999999999999999999MA1103891999999MW1001REMMET046EGPH 150150Z 24004KT 9999 OVC035 01/M02 Q1039;EQDQ01+000000PRSWM2
0140031600999992000011504204+55950-003350FM-15+0041EGPH V0202701N001510105019N0112651N1+00101-00101999999ADDGA1081+010509999GF108991999999999999999999MA1103891999999MW1001REMMET046EGPH 150420Z 27003KT 9999 OVC035 01/M01 Q1039;EQDQ01+000000PRSWM2
0140031600999992000011504504+55950-003350FM-15+0041EGPH V0202601N001510090019N0112651N1+00101-00201999999ADDGA1081+009009999GF108991999999999999999999MA1103891999999MW1001REMMET046EGPH 150450Z 26003KT 9999 OVC030 01/M02 Q1039;EQDQ01+000000PRSWM2
0140031600999992000011505504+55950-003350FM-15+0041EGPH V0202501N001010090019N0112651N1+00101-00101999999ADDGA1081+009009999GF108991999999999999999999MA1104001999999MW1001REMMET046EGPH 150550Z 25002KT 9999 OVC030 01/M01 Q1040;EQDQ01+000000PRSWM2
0140031600999992000011506504+55950-003350FM-15+0041EGPH V0202701N002110090019N0112651N1+00101-00101999999ADDGA1081+009009999GF108991999999999999999999MA1104001999999MW1001REMMET046EGPH 150650Z 27004KT 9999 OVC030 01/M01 Q1040;EQDQ01+000000PRSWM2
0140031600999992000011507504+55950-003350FM-15+0041EGPH V0202601N001510084019N0112651N1+00101-00101999999ADDGA1071+008409999GF107991999999999999999999MA1104101999999MW1001REMMET046EGPH 150750Z 26003KT 9999 BKN028 01/M01 Q1041;EQDQ01+000000PRSWM2
0140031600999992000011508504+55950-003350FM-15+0041EGPH V02099999999990090019N0112651N1+00201-00101999999ADDGA1071+009009999GF107991999999999999999999MA1104101999999MW1001REMMET046EGPH 150850Z VRB03KT 9999 BKN030 02/M01 Q1041;EQDQ01+000000PRSWM2
0140031600999992000011509504+55950-003350FM-15+0041EGPH V0202601N001510090019N0112651N1+00201-00101999999ADDGA1071+009009999GF107991999999999999999999MA1104201999999MW1001REMMET046EGPH 150950Z 26003KT 9999 BKN030 02/M01 Q1042;EQDQ01+000000PRSWM2
0140031600999992000011510504+55950-003350FM-15+0041EGPH V0202301N002612200019N0112651N1+00301+00001999999ADDGA1021+008409999GF104991999999999999999999MA1104201999999MW1001REMMET046EGPH 151050Z 23005KT 9999 SCT028 03/M00 Q1042;EQDQ01+000000PRSWM2
0140031600999992000011511504+55950-003350FM-15+0041EGPH V0202601N002610090019N0112651N1+00401+00001999999ADDGA1071+009009999GF107991999999999999999999MA1104201999999MW1001REMMET046EGPH 151150Z 26005KT 9999 BKN030 04/M00 Q1042;EQDQ01+000000PRSWM2
0139031600999992000011512504+55950-003350FM-15+0041EGPH V0202501N003110105019N0112651N1+00301+00001999999ADDGA1071+010509999GF107991999999999999999999MA1104301999999MW1001REMMET045EGPH 151250Z 25006KT 9999 BKN035 03/00 Q1043;EQDQ01+000000PRSWM2
0139031600999992000011513504+55950-003350FM-15+0041EGPH V0202401N003112200019N0112651N1+00401+00001999999ADDGA1021+009009999GF102991999999999999999999MA1104201999999MW1001REMMET045EGPH 151350Z 24006KT 9999 FEW030 04/00 Q1042;EQDQ01+000000PRSWM2
0139031600999992000011514504+55950-003350FM-15+0041EGPH V0202601N003112200019N0112651N1+00401+00001999999ADDGA1021+009009999GF102991999999999999999999MA1104201999999MW1001REMMET045EGPH 151450Z 26006KT 9999 FEW030 04/00 Q1042;EQDQ01+000000PRSWM2
0163031600999992000011515504+55950-003350FM-15+0041EGPH V0202501N002612200019N0112651N1+00201-00101999999ADDGA1021+010509999GA2021+075009999GF104991999999999999999999MA1104201999999MW1001REMMET053EGPH 151550Z 25005KT 9999 FEW035 SCT250 02/M01 Q1042;EQDQ01+000000PRSWM2
0164031600999992000011516504+55950-003350FM-15+0041EGPH V0202301N002612200019N0112651N1-00101-00201999999ADDGA1021+010509999GA2021+075009999GF104991999999999999999999MA1104201999999MW1001REMMET054EGPH 151650Z 23005KT 9999 FEW035 SCT250 M01/M02 Q1042;EQDQ01+000000PRSWM2
0163031600999992000011517504+55950-003350FM-15+0041EGPH V0202601N002112200019N0112651N1+00001-00201999999ADDGA1021+010509999GA2021+075009999GF104991999999999999999999MA1104201999999MW1001REMMET053EGPH 151750Z 26004KT 9999 FEW035 SCT250 00/M02 Q1042;EQDQ01+000000PRSWM2
0093031600999992000011518504+55950-003350FM-15+0041EGPH V0202701N00151220001CN0099001N1+00001-00101999999ADDMA1104101999999MW1001REMMET041EGPH 151850Z 27003KT CAVOK M00/M01 Q1041;EQDQ01+000000PRSWM2
0093031600999992000011520504+55950-003350FM-15+0041EGPH V0209999999999220001CN0099001N1+00001-00101999999ADDMA1104201999999MW1001REMMET041EGPH 152050Z VRB03KT CAVOK M00/M01 Q1042;EQDQ01+000000PRSWM2
0093031600999992000011521504+55950-003350FM-15+0041EGPH V0202401N00211220001CN0099001N1-00201-00201999999ADDMA1104201999999MW1001REMMET041EGPH 152150Z 24004KT CAVOK M02/M02 Q1042;EQDQ01+000000PRSWM2
0093031600999992000011522504+55950-003350FM-15+0041EGPH V0202401N00261220001CN0099001N1-00301-00301999999ADDMA1104201999999MW1001REMMET041EGPH 152250Z 24005KT CAVOK M03/M03 Q1042;EQDQ01+000000PRSWM2
0122031600999992000011523504+55950-003350FM-15+0041EGPH V0202701N002112200019N0090001N1-00101-00101999999ADDGF100991999999999999999999MA1104201999999MW1001REMMET044EGPH 152350Z 27004KT 9000 SKC M01/M01 Q1042;EQDQ01+000000PRSWM2
0122031600999992000011600504+55950-003350FM-15+0041EGPH V0202601N002112200019N0070001N1-00101-00101999999ADDGF100991999999999999999999MA1104101999999MW1001REMMET044EGPH 160050Z 26004KT 7000 SKC M01/M01 Q1041;EQDQ01+000000PRSWM2
0141031600999992000011601504+55950-003350FM-15+0041EGPH V0202701N002112200019N0070001N1+00001-00101999999ADDGA1021+054009999GF104991999999999999999999MA1104101999999MW1001REMMET047EGPH 160150Z 27004KT 7000 SCT180 M00/M01 Q1041;EQDQ01+000000PRSWM2
0093031600999992000011604504+55950-003350FM-15+0041EGPH V0202501N00261220001CN0099001N1-00101-00101999999ADDMA1104101999999MW1001REMMET041EGPH 160450Z 25005KT CAVOK M01/M01 Q1041;EQDQ01+000000PRSWM2
0091031600999992000011605504+55950-003350FM-15+0041EGPH V0202601N00311220001CN0099001N1+00101+00001999999ADDMA1104001999999MW1001REMMET039EGPH 160550Z 26006KT CAVOK 01/00 Q1040;EQDQ01+000000PRSWM2
0091031600999992000011606504+55950-003350FM-15+0041EGPH V0202601N00361220001CN0099001N1+00101+00101999999ADDMA1104001999999MW1001REMMET039EGPH 160650Z 26007KT CAVOK 01/01 Q1040;EQDQ01+000000PRSWM2
0091031600999992000011607504+55950-003350FM-15+0041EGPH V0202401N00361220001CN0099001N1+00101+00001999999ADDMA1103891999999MW1001REMMET039EGPH 160750Z 24007KT CAVOK 01/00 Q1039;EQDQ01+000000PRSWM2
0091031600999992000011608504+55950-003350FM-15+0041EGPH V0202501N00311220001CN0099001N1+00101+00101999999ADDMA1103891999999MW1001REMMET039EGPH 160850Z 25006KT CAVOK 01/01 Q1039;EQDQ01+000000PRSWM2
0091031600999992000011609504+55950-003350FM-15+0041EGPH V0202401N00411220001CN0099001N1+00301+00201999999ADDMA1104001999999MW1001REMMET039EGPH 160950Z 24008KT CAVOK 03/02 Q1040;EQDQ01+000000PRSWM2
0091031600999992000011610504+55950-003350FM-15+0041EGPH V0202301N00361220001CN0099001N1+00501+00401999999ADDMA1104001999999MW1001REMMET039EGPH 161050Z 23007KT CAVOK 05/04 Q1040;EQDQ01+000000PRSWM2
0091031600999992000011611504+55950-003350FM-15+0041EGPH V0202501N00461220001CN0099001N1+00601+00401999999ADDMA1103891999999MW1001REMMET039EGPH 161150Z 25009KT CAVOK 06/04 Q1039;EQDQ01+000000PRSWM2
0091031600999992000011612504+55950-003350FM-15+0041EGPH V0202501N00511220001CN0099001N1+00701+00501999999ADDMA1103891999999MW1001REMMET039EGPH 161250Z 25010KT CAVOK 07/05 Q1039;EQDQ01+000000PRSWM2
0091031600999992000011613504+55950-003350FM-15+0041EGPH V0202401N00361220001CN0099001N1+00701+00501999999ADDMA1103891999999MW1001REMMET039EGPH 161350Z 24007KT CAVOK 07/05 Q1039;EQDQ01+000000PRSWM2
0139031600999992000011614504+55950-003350FM-15+0041EGPH V0202601N004112200019N0112651N1+00701+00501999999ADDGA1021+014409999GF102991999999999999999999MA1103891999999MW1001REMMET045EGPH 161450Z 26008KT 9999 FEW048 07/05 Q1039;EQDQ01+000000PRSWM2
0091031600999992000011615504+55950-003350FM-15+0041EGPH V0202501N00461220001CN0099001N1+00601+00401999999ADDMA1103891999999MW1001REMMET039EGPH 161550Z 25009KT CAVOK 06/04 Q1039;EQDQ01+000000PRSWM2
0091031600999992000011617204+55950-003350FM-15+0041EGPH V0202501N00411220001CN0099001N1+00501+00301999999ADDMA1103891999999MW1001REMMET039EGPH 161720Z 25008KT CAVOK 05/03 Q1039;EQDQ01+000000PRSWM2
0091031600999992000011617504+55950-003350FM-15+0041EGPH V0202501N00311220001CN0099001N1+00501+00301999999ADDMA1103891999999MW1001REMMET039EGPH 161750Z 25006KT CAVOK 05/03 Q1039;EQDQ01+000000PRSWM2
0091031600999992000011618504+55950-003350FM-15+0041EGPH V0202501N00361220001CN0099001N1+00401+00301999999ADDMA1103891999999MW1001REMMET039EGPH 161850Z 25007KT CAVOK 04/03 Q1039;EQDQ01+000000PRSWM2
0091031600999992000011619504+55950-003350FM-15+0041EGPH V0202501N00311220001CN0099001N1+00301+00201999999ADDMA1103891999999MW1001REMMET039EGPH 161950Z 25006KT CAVOK 03/02 Q1039;EQDQ01+000000PRSWM2
0091031600999992000011620504+55950-003350FM-15+0041EGPH V0202501N00361220001CN0099001N1+00301+00201999999ADDMA1103891999999MW1001REMMET039EGPH 162050Z 25007KT CAVOK 03/02 Q1039;EQDQ01+000000PRSWM2
0162031600999992000011621504+55950-003350FM-15+0041EGPH V0202601N004612200019N0112651N1+00301+00301999999ADDGA1021+006009999GA2021+075009999GF104991999999999999999999MA1103891999999MW1001REMMET052EGPH 162150Z 26009KT 9999 FEW020 SCT250 03/03 Q1039;EQDQ01+000000PRSWM2
0091031600999992000011622504+55950-003350FM-15+0041EGPH V0202501N00361220001CN0099001N1+00301+00201999999ADDMA1103891999999MW1001REMMET039EGPH 162250Z 25007KT CAVOK 03/02 Q1039;EQDQ01+000000PRSWM2
0091031600999992000011623504+55950-003350FM-15+0041EGPH V0202501N00511220001CN0099001N1+00301+00301999999ADDMA1103791999999MW1001REMMET039EGPH 162350Z 25010KT CAVOK 03/03 Q1038;EQDQ01+000000PRSWM2
0091031600999992000011700504+55950-003350FM-15+0041EGPH V0202501N00511220001CN0099001N1+00401+00301999999ADDMA1103791999999MW1001REMMET039EGPH 170050Z 25010KT CAVOK 04/03 Q1038;EQDQ01+000000PRSWM2
0091031600999992000011701504+55950-003350FM-15+0041EGPH V0202501N00511220001CN0099001N1+00301+00201999999ADDMA1103791999999MW1001REMMET039EGPH 170150Z 25010KT CAVOK 03/02 Q1038;EQDQ01+000000PRSWM2
0091031600999992000011704504+55950-003350FM-15+0041EGPH V0202501N00671220001CN0099001N1+00501+00301999999ADDMA1103691999999MW1001REMMET039EGPH 170450Z 25013KT CAVOK 05/03 Q1037;EQDQ01+000000PRSWM2
0091031600999992000011705504+55950-003350FM-15+0041EGPH V0202501N00511220001CN0099001N1+00501+00301999999ADDMA1103691999999MW1001REMMET039EGPH 170550Z 25010KT CAVOK 05/03 Q1037;EQDQ01+000000PRSWM2
0091031600999992000011706504+55950-003350FM-15+0041EGPH V0202501N00621220001CN0099001N1+00501+00401999999ADDMA1103691999999MW1001REMMET039EGPH 170650Z 25012KT CAVOK 05/04 Q1037;EQDQ01+000000PRSWM2
0091031600999992000011707504+55950-003350FM-15+0041EGPH V0202501N00411220001CN0099001N1+00401+00301999999ADDMA1103791999999MW1001REMMET039EGPH 170750Z 25008KT CAVOK 04/03 Q1038;EQDQ01+000000PRSWM2
0091031600999992000011708504+55950-003350FM-15+0041EGPH V0202501N00511220001CN0099001N1+00401+00301999999ADDMA1103791999999MW1001REMMET039EGPH 170850Z 25010KT CAVOK 04/03 Q1038;EQDQ01+000000PRSWM2
0091031600999992000011709504+55950-003350FM-15+0041EGPH V0202501N00461220001CN0099001N1+00401+00301999999ADDMA1103791999999MW1001REMMET039EGPH 170950Z 25009KT CAVOK 04/03 Q1038;EQDQ01+000000PRSWM2
0139031600999992000011710504+55950-003350FM-15+0041EGPH V0202501N006212200019N0112651N1+00601+00401999999ADDGA1021+006009999GF102991999999999999999999MA1103791999999MW1001REMMET045EGPH 171050Z 25012KT 9999 FEW020 06/04 Q1038;EQDQ01+000000PRSWM2
0091031600999992000011711504+55950-003350FM-15+0041EGPH V0202501N00461220001CN0099001N1+00701+00501999999ADDMA1103791999999MW1001REMMET039EGPH 171150Z 25009KT CAVOK 07/05 Q1038;EQDQ01+000000PRSWM2
0139031600999992000011712504+55950-003350FM-15+0041EGPH V0202501N004112200019N0112651N1+00801+00601999999ADDGA1021+006009999GF102991999999999999999999MA1103691999999MW1001REMMET045EGPH 171250Z 25008KT 9999 FEW020 08/06 Q1037;EQDQ01+000000PRSWM2
0091031600999992000011713504+55950-003350FM-15+0041EGPH V0202501N00361220001CN0099001N1+00901+00601999999ADDMA1103691999999MW1001REMMET039EGPH 171350Z 25007KT CAVOK 09/06 Q1037;EQDQ01+000000PRSWM2
0091031600999992000011714504+55950-003350FM-15+0041EGPH V0202701N00311220001CN0099001N1+00901+00501999999ADDMA1103791999999MW1001REMMET039EGPH 171450Z 27006KT CAVOK 09/05 Q1038;EQDQ01+000000PRSWM2
0091031600999992000011715504+55950-003350FM-15+0041EGPH V0202301N00361220001CN0099001N1+00701+00501999999ADDMA1103691999999MW1001REMMET039EGPH 171550Z 23007KT CAVOK 07/05 Q1037;EQDQ01+000000PRSWM2
0139031600999992000011716504+55950-003350FM-15+0041EGPH V0202701N003612200019N0112651N1+00601+00501999999ADDGA1021+007509999GF102991999999999999999999MA1103791999999MW1001REMMET045EGPH 171650Z 27007KT 9999 FEW025 06/05 Q1038;EQDQ01+000000PRSWM2
0099031600999992000011717504+55950-003350FM-15+0041EGPH V0202201N00311220001CN0099001N1+00601+00401999999ADDMA1103791999999MW1001REMMET047EGPH 171750Z 22006KT 160V260 CAVOK 06/04 Q1038;EQDQ01+000000PRSWM2
0091031600999992000011718504+55950-003350FM-15+0041EGPH V0202501N00411220001CN0099001N1+00501+00401999999ADDMA1103791999999MW1001REMMET039EGPH 171850Z 25008KT CAVOK 05/04 Q1038;EQDQ01+000000PRSWM2
0099031600999992000011719504+55950-003350FM-15+0041EGPH V0202401N00311220001CN0099001N1+00501+00301999999ADDMA1103791999999MW1001REMMET047EGPH 171950Z 24006KT 210V270 CAVOK 05/03 Q1038;EQDQ01+000000PRSWM2
0091031600999992000011720504+55950-003350FM-15+0041EGPH V0202501N00361220001CN0099001N1+00401+00301999999ADDMA1103791999999MW1001REMMET039EGPH 172050Z 25007KT CAVOK 04/03 Q1038;EQDQ01+000000PRSWM2
0091031600999992000011721504+55950-003350FM-15+0041EGPH V0202701N00361220001CN0099001N1+00501+00401999999ADDMA1103691999999MW1001REMMET039EGPH 172150Z 27007KT CAVOK 05/04 Q1037;EQDQ01+000000PRSWM2
0091031600999992000011722504+55950-003350FM-15+0041EGPH V0202601N00311220001CN0099001N1+00501+00401999999ADDMA1103691999999MW1001REMMET039EGPH 172250Z 26006KT CAVOK 05/04 Q1037;EQDQ01+000000PRSWM2
0091031600999992000011723504+55950-003350FM-15+0041EGPH V0202601N00411220001CN0099001N1+00501+00401999999ADDMA1103691999999MW1001REMMET039EGPH 172350Z 26008KT CAVOK 05/04 Q1037;EQDQ01+000000PRSWM2
0091031600999992000011800504+55950-003350FM-15+0041EGPH V0202601N00511220001CN0099001N1+00501+00401999999ADDMA1103691999999MW1001REMMET039EGPH 180050Z 26010KT CAVOK 05/04 Q1037;EQDQ01+000000PRSWM2
0091031600999992000011801504+55950-003350FM-15+0041EGPH V0202501N00461220001CN0099001N1+00501+00401999999ADDMA1103691999999MW1001REMMET039EGPH 180150Z 25009KT CAVOK 05/04 Q1037;EQDQ01+000000PRSWM2
0091031600999992000011804504+55950-003350FM-15+0041EGPH V0202601N00311220001CN0099001N1+00501+00501999999ADDMA1103591999999MW1001REMMET039EGPH 180450Z 26006KT CAVOK 05/05 Q1036;EQDQ01+000000PRSWM2
0091031600999992000011805504+55950-003350FM-15+0041EGPH V0202501N00411220001CN0099001N1+00501+00401999999ADDMA1103591999999MW1001REMMET039EGPH 180550Z 25008KT CAVOK 05/04 Q1036;EQDQ01+000000PRSWM2
0120031600999992000011806504+55950-003350FM-15+0041EGPH V0202701N004612200019N0090001N1+00501+00501999999ADDGF100991999999999999999999MA1103591999999MW1001REMMET042EGPH 180650Z 27009KT 9000 SKC 05/05 Q1036;EQDQ01+000000PRSWM2
0120031600999992000011807504+55950-003350FM-15+0041EGPH V0202601N003112200019N0070001N1+00501+00401999999ADDGF100991999999999999999999MA1103691999999MW1001REMMET042EGPH 180750Z 26006KT 7000 SKC 05/04 Q1037;EQDQ01+000000PRSWM2
0158031600999992000011808504+55950-003350FM-15+0041EGPH V0202501N004612200019N0044001N1+00501+00401999999ADDGA1021+000309999GF102991999999999999999999MA1103591999999MW1101REMMET048EGPH 180850Z 25009KT 4400 BR FEW001 05/04 Q1036;EQDQ01+000003PRSWM1Q02    003PRSWM1
0139031600999992000011809504+55950-003350FM-15+0041EGPH V0202101N002612200019N0050001N1+00501+00501999999ADDGF100991999999999999999999MA1103691999999MW1101REMMET045EGPH 180950Z 21005KT 5000 BR SKC 05/05 Q1037;EQDQ01+000003PRSWM1Q02    003PRSWM1
0075031600999992000011811204+55950-003350FM-15+0041EGPH V0202501N00411220001CN0099001N1+00701+00601999999ADDMW1001REMMET038EGPH 181120Z 25008KT CAVOK 07/06 Q137;EQDQ01+000000PRSWM2
0091031600999992000011811504+55950-003350FM-15+0041EGPH V0202401N00361220001CN0099001N1+00701+00601999999ADDMA1103691999999MW1001REMMET039EGPH 181150Z 24007KT CAVOK 07/06 Q1037;EQDQ01+000000PRSWM2
0139031600999992000011812504+55950-003350FM-15+0041EGPH V0202401N003612200019N0112651N1+00801+00601999999ADDGA1021+006009999GF102991999999999999999999MA1103691999999MW1001REMMET045EGPH 181250Z 24007KT 9999 FEW020 08/06 Q1037;EQDQ01+000000PRSWM2
0139031600999992000011813504+55950-003350FM-15+0041EGPH V0202501N002612200019N0112651N1+00801+00601999999ADDGA1021+006009999GF102991999999999999999999MA1103691999999MW1001REMMET045EGPH 181350Z 25005KT 9999 FEW020 08/06 Q1037;EQDQ01+000000PRSWM2
0091031600999992000011814504+55950-003350FM-15+0041EGPH V0202401N00211220001CN0099001N1+00801+00601999999ADDMA1103691999999MW1001REMMET039EGPH 181450Z 24004KT CAVOK 08/06 Q1037;EQDQ01+000000PRSWM2
0139031600999992000011815504+55950-003350FM-15+0041EGPH V0209999C000012200019N0112651N1+00701+00501999999ADDGA1021+006009999GF102991999999999999999999MA1103691999999MW1001REMMET045EGPH 181550Z 00000KT 9999 FEW020 07/05 Q1037;EQDQ01+000000PRSWM2
0162031600999992000011816504+55950-003350FM-15+0041EGPH V0201701N002612200019N0112651N1+00601+00501999999ADDGA1021+006009999GA2021+009009999GF104991999999999999999999MA1103691999999MW1001REMMET052EGPH 181650Z 17005KT 9999 FEW020 SCT030 06/05 Q1037;EQDQ01+000000PRSWM2
0139031600999992000011817504+55950-003350FM-15+0041EGPH V0202501N002612200019N0112651N1+00401+00301999999ADDGA1021+010509999GF104991999999999999999999MA1103691999999MW1001REMMET045EGPH 181750Z 25005KT 9999 SCT035 04/03 Q1037;EQDQ01+000000PRSWM2
0139031600999992000011818504+55950-003350FM-15+0041EGPH V0202701N002112200019N0112651N1+00401+00401999999ADDGA1021+009009999GF102991999999999999999999MA1103691999999MW1001REMMET045EGPH 181850Z 27004KT 9999 FEW030 04/04 Q1037;EQDQ01+000000PRSWM2
0139031600999992000011819504+55950-003350FM-15+0041EGPH V0209999C000010105019N0112651N1+00401+00401999999ADDGA1081+010509999GF108991999999999999999999MA1103791999999MW1001REMMET045EGPH 181950Z 00000KT 9999 OVC035 04/04 Q1038;EQDQ01+000000PRSWM2
0139031600999992000011820504+55950-003350FM-15+0041EGPH V0202601N002110105019N0070001N1+00501+00401999999ADDGA1081+010509999GF108991999999999999999999MA1103791999999MW1001REMMET045EGPH 182050Z 26004KT 7000 OVC035 05/04 Q1038;EQDQ01+000000PRSWM2
0139031600999992000011821504+55950-003350FM-15+0041EGPH V0202601N002110090019N0070001N1+00501+00401999999ADDGA1081+009009999GF108991999999999999999999MA1103791999999MW1001REMMET045EGPH 182150Z 26004KT 7000 OVC030 05/04 Q1038;EQDQ01+000000PRSWM2
0139031600999992000011822504+55950-003350FM-15+0041EGPH V0202501N002112200019N0112651N1+00301+00201999999ADDGA1021+010509999GF104991999999999999999999MA1103691999999MW1001REMMET045EGPH 182250Z 25004KT 9999 SCT035 03/02 Q1037;EQDQ01+000000PRSWM2
0158031600999992000011823504+55950-003350FM-15+0041EGPH V0209999C000010105019N0050001N1+00301+00301999999ADDGA1071+010509999GF107991999999999999999999MA1103691999999MW1101REMMET048EGPH 182350Z 00000KT 5000 BR BKN035 03/03 Q1037;EQDQ01+000003PRSWM1Q02    003PRSWM1
0158031600999992000011900504+55950-003350FM-15+0041EGPH V0202501N001510105019N0050001N1+00201+00201999999ADDGA1071+010509999GF107991999999999999999999MA1103691999999MW1101REMMET048EGPH 190050Z 25003KT 5000 BR BKN035 02/02 Q1037;EQDQ01+000003PRSWM1Q02    003PRSWM1
0139031600999992000011901504+55950-003350FM-15+0041EGPH V0202801N001010105019N0112651N1+00301+00301999999ADDGA1071+010509999GF107991999999999999999999MA1103691999999MW1001REMMET045EGPH 190150Z 28002KT 9999 BKN035 03/03 Q1037;EQDQ01+000000PRSWM2
0139031600999992000011904504+55950-003350FM-15+0041EGPH V0202301N001510105019N0112651N1+00101+00101999999ADDGA1071+010509999GF107991999999999999999999MA1103791999999MW1001REMMET045EGPH 190450Z 23003KT 9999 BKN035 01/01 Q1038;EQDQ01+000000PRSWM2
0139031600999992000011905504+55950-003350FM-15+0041EGPH V0202501N001010120019N0112651N1+00201+00101999999ADDGA1081+012009999GF108991999999999999999999MA1103791999999MW1001REMMET045EGPH 190550Z 25002KT 9999 OVC040 02/01 Q1038;EQDQ01+000000PRSWM2
0139031600999992000011906504+55950-003350FM-15+0041EGPH V0202601N001510105019N0112651N1+00201+00201999999ADDGA1081+010509999GF108991999999999999999999MA1103791999999MW1001REMMET045EGPH 190650Z 26003KT 9999 OVC035 02/02 Q1038;EQDQ01+000000PRSWM2
0139031600999992000011907504+55950-003350FM-15+0041EGPH V0202601N002110120019N0112651N1+00301+00201999999ADDGA1081+012009999GF108991999999999999999999MA1103791999999MW1001REMMET045EGPH 190750Z 26004KT 9999 OVC040 03/02 Q1038;EQDQ01+000000PRSWM2
0139031600999992000011908504+55950-003350FM-15+0041EGPH V0202601N002610120019N0112651N1+00301+00201999999ADDGA1081+012009999GF108991999999999999999999MA1103791999999MW1001REMMET045EGPH 190850Z 26005KT 9999 OVC040 03/02 Q1038;EQDQ01+000000PRSWM2
0139031600999992000011909504+55950-003350FM-15+0041EGPH V0202501N002610120019N0112651N1+00301+00201999999ADDGA1081+012009999GF108991999999999999999999MA1103791999999MW1001REMMET045EGPH 190950Z 25005KT 9999 OVC040 03/02 Q1038;EQDQ01+000000PRSWM2
0139031600999992000011910504+55950-003350FM-15+0041EGPH V0202501N003112200019N0112651N1+00401+00301999999ADDGA1021+012009999GF104991999999999999999999MA1103891999999MW1001REMMET045EGPH 191050Z 25006KT 9999 SCT040 04/03 Q1039;EQDQ01+000000PRSWM2
0091031600999992000011911504+55950-003350FM-15+0041EGPH V0202701N00261220001CN0099001N1+00501+00301999999ADDMA1103791999999MW1001REMMET039EGPH 191150Z 27005KT CAVOK 05/03 Q1038;EQDQ01+000000PRSWM2
0091031600999992000011912504+55950-003350FM-15+0041EGPH V0202701N00261220001CN0099001N1+00501+00301999999ADDMA1103791999999MW1001REMMET039EGPH 191250Z 27005KT CAVOK 05/03 Q1038;EQDQ01+000000PRSWM2
0162031600999992000011914204+55950-003350FM-15+0041EGPH V0202501N002610600019N0112651N1+00501+00301999999ADDGA1021+010509999GA2071+060009999GF107991999999999999999999MA1103691999999MW1001REMMET052EGPH 191420Z 25005KT 9999 SCT035 BKN200 05/03 Q1037;EQDQ01+000000PRSWM2
0162031600999992000011914504+55950-003350FM-15+0041EGPH V0202501N003110105019N0112651N1+00601+00301999999ADDGA1021+007509999GA2071+010509999GF107991999999999999999999MA1103691999999MW1001REMMET052EGPH 191450Z 25006KT 9999 FEW025 BKN035 06/03 Q1037;EQDQ01+000000PRSWM2
0162031600999992000011915504+55950-003350FM-15+0041EGPH V0202701N001510096019N0112651N1+00601+00301999999ADDGA1021+007509999GA2071+009609999GF107991999999999999999999MA1103691999999MW1001REMMET052EGPH 191550Z 27003KT 9999 FEW025 BKN032 06/03 Q1037;EQDQ01+000000PRSWM2
0162031600999992000011916504+55950-003350FM-15+0041EGPH V0202601N003110093019N0112651N1+00501+00301999999ADDGA1021+007509999GA2071+009309999GF107991999999999999999999MA1103691999999MW1001REMMET052EGPH 191650Z 26006KT 9999 FEW025 BKN031 05/03 Q1037;EQDQ01+000000PRSWM2
0139031600999992000011917504+55950-003350FM-15+0041EGPH V0202601N002610090019N0112651N1+00501+00301999999ADDGA1081+009009999GF108991999999999999999999MA1103691999999MW1001REMMET045EGPH 191750Z 26005KT 9999 OVC030 05/03 Q1037;EQDQ01+000000PRSWM2
0139031600999992000011918504+55950-003350FM-15+0041EGPH V0202701N002610078019N0112651N1+00501+00201999999ADDGA1081+007809999GF108991999999999999999999MA1103691999999MW1001REMMET045EGPH 191850Z 27005KT 9999 OVC026 05/02 Q1037;EQDQ01+000000PRSWM2
