0287072800999992000010100004+47270+005080SY-MT+0227LFSD V0201801N002110003019N0020001N1+00201+00191102611ADDAA103000291AY151061AY241061GA1081+000309999GF108991081061000751999999MA1102511099781MD1310081+9999MW1511REMSYN094AAXX  01004 07280 /1120 81804 10020 20019 39978 40261 53008 69941 75154 886// 333 69927 88701;MET052LFSD 010000Z 18003KT 2000 -DZ BR OVC001 02/02 Q1025;EQDQ01    003PRSWM1
0153072800999992000010100154+47270+005080FM-16+0227LFSD V0201701N001510003019N0020001N1+00201+00201999999ADDGA1081+000309999GF108991999999999999999999MA1102511999999MW1511REMMET059LFSD 010015Z 17003KT 2000 -DZ BR OVC001 02/02 Q1025 RMK M3;EQDQ01    003PRSWM1
0281072800999992000010101004+47270+005080SY-MT+0227LFSD V0201901N001010006019N0015001N1+00211+00201102631ADDAA101999929AY151999AY251999GA1081+000609999GF108991081061000751999999MA1102511099801MD1210081+9999MW1511REMSYN088AAXX  01014 07280 21115 81902 10021 20020 39980 40263 52008 75155 886// 333 69905 88702;MET052LFSD 010100Z 19002KT 1500 -DZ BR OVC002 02/02 Q1025;EQDQ01    003PRSWM1
0302072800999992000010102004+47270+005080SY-MT+0227LFSD V0201801N001010006019N0012001N1+00221+00211102621ADDAA101999929AY151999AY251999ED199U15009GA1081+000609999GF108991081061000751999999MA1102511099791MD1010051+9999MW1511REMSYN088AAXX  01024 07280 21112 81802 10022 20021 39979 40262 50005 75155 886// 333 69905 88702;MET062LFSD 010200Z 17003KT 1200 R36/P1500 -DZ BR OVC002 02/02 Q1025;EQDQ01    003PRSWM1
0283072800999992000010103004+47270+005080SY-MT+0227LFSD V0201901N002110003019N0020001N1+00221+00211102651ADDAA103999929AY151031AY221031GA1081+000309999GF108991081061000751999999MA1102511099821MD1310041+9999MW1101MW2201REMSYN088AAXX  01034 07280 21120 81904 10022 20021 39982 40265 53004 72052 886// 333 69907 88701;MET048LFSD 010300Z 19003KT 2000 BR OVC001 02/02 Q1025;EQDQ01    003PRSWM1
0277072800999992000010104004+47270+005080SY-MT+0227LFSD V0201901N002110006019N0020001N1+00231+00221102651ADDAA106000021AY121999AY221999GA1081+000609999GF108991081061000751999999MA1102511099821MD1310021+9999MW1101MW2201REMSYN082AAXX  01044 07280 31120 81904 10023 20022 39982 40265 53002 72022 886// 333 88702;MET048LFSD 010400Z 19004KT 2000 BR OVC002 02/02 Q1025;EQDQ01    003PRSWM1
0271072800999992000010105004+47270+005080SY-MT+0227LFSD V0201901N002110006019N0020001N1+00241+00231102671ADDAA106000021AY121999AY221999GA1081+000609999GF108991081061000751999999MA1102511099841MD1110051+9999MW1101REMSYN082AAXX  01054 07280 31120 81904 10024 20023 39984 40267 51005 71022 886// 333 88702;MET048LFSD 010500Z 19003KT 2000 BR OVC002 02/02 Q1025;EQDQ01    003PRSWM1
0370072800999992000010106004+47270+005080SY-MT+0227LFSD V0202101N002110003019N0015001N1+00241+00231102731ADDAA112000591AA224002091AY151061AY221061GA1081+000309999GF108991081061000751999999GJ100009IA1119IA2999+00209KA1999M+00251KA2999N+00181MA1102611099901MD1310081+9999MW1101REMSYN118AAXX  01064 07280 11115 82104 10024 20023 39990 40273 53008 69942 71052 886// 333 10025 20018 32002 55000 70020 88701;MET048LFSD 010600Z 21003KT 1500 BR OVC001 02/02 Q1026;EQDQ01    003PRSWM1
0271072800999992000010107004+47270+005080SY-MT+0227LFSD V0202001N002110003019N0015001N1+00241+00231102731ADDAA106000021AY121999AY221999GA1081+000309999GF108991081061000751999999MA1102611099901MD1110081+9999MW1101REMSYN082AAXX  01074 07280 31115 82004 10024 20023 39990 40273 51008 71022 886// 333 88701;MET048LFSD 010700Z 20003KT 1500 BR OVC001 02/02 Q1026;EQDQ01    003PRSWM1
0271072800999992000010108004+47270+005080SY-MT+0227LFSD V0201901N002110003019N0018001N1+00251+00241102771ADDAA106000021AY121999AY221999GA1081+000309999GF108991081061000751999999MA1102611099941MD1110101+9999MW1101REMSYN082AAXX  01084 07280 31118 81904 10025 20024 39994 40277 51010 71022 886// 333 88701;MET048LFSD 010800Z 19003KT 1800 BR OVC001 03/02 Q1026;EQDQ01    003PRSWM1
0271072800999992000010109004+47270+005080SY-MT+0227LFSD V0201901N002110006019N0020001N1+00281+00271102821ADDAA106000021AY121031AY221031GA1081+000609999GF108991081061000751999999MA1102711099991MD1310091+9999MW1101REMSYN082AAXX  01094 07280 31120 81904 10028 20027 39999 40282 53009 71022 886// 333 88702;MET048LFSD 010900Z 19003KT 2000 BR OVC002 03/03 Q1027;EQDQ01    003PRSWM1
0271072800999992000010110004+47270+005080SY-MT+0227LFSD V0201901N002110006019N0018001N1+00311+00301102851ADDAA106000021AY121999AY221999GA1081+000609999GF108991081061000751999999MA1102711100021MD1110121+9999MW1101REMSYN082AAXX  01104 07280 31118 81904 10031 20030 30002 40285 51012 71022 886// 333 88702;MET048LFSD 011000Z 19003KT 1800 BR OVC002 03/03 Q1027;EQDQ01    003PRSWM1
0277072800999992000010111004+47270+005080SY-MT+0227LFSD V0201701N001010006019N0015001N1+00341+00331102851ADDAA101000291AY121999AY221999GA1081+000609999GF108991081061000751999999MA1102711100021MD1110081+9999MW1101REMSYN088AAXX  01114 07280 21115 81702 10034 20033 30002 40285 51008 71022 886// 333 69925 88702;MET048LFSD 011100Z 17003KT 1500 BR OVC002 03/03 Q1027;EQDQ01    003PRSWM1
0283072800999992000010112004+47270+005080SY-MT+0227LFSD V0202001N002110006019N0020001N1+00421+00411102801ADDAA103000291AY121061AY221061GA1081+000609999GF108991081061000751999999MA1102711099981MD1810011+9999MW1101REMSYN094AAXX  01124 07280 /1120 82004 10042 20041 39998 40280 58001 69921 71022 886// 333 69927 88702;MET048LFSD 011200Z 20004KT 2000 BR OVC002 04/04 Q1027;EQDQ01    003PRSWM1
0142072800999992000010112304+47270+005080FM-15+0227LFSD V0202001N002110009019N0030001N1+00501+00501999999ADDGA1081+000909999GF108991999999999999999999MA1102611999999MW1101REMMET048LFSD 011330Z 20004KT 3000 BR OVC003 05/05 Q1026;EQDQ01    003PRSWM1
0217072800999992000010113004+47270+005080FM-12+0227LFSD V0202101N002110009019N0025001N1+00491+00481102771ADDAA106000091AY121011AY221011GA1081+000909069GF108991081061000751999999MA1999999099961MD1810061+9999MW1101REMSYN082AAXX  01134 07280 31125 82104 10049 20048 39996 40277 58006 71022 886// 333 88703;EQDQ01  00002PRCP06
0287072800999992000010114004+47270+005080SY-MT+0227LFSD V0202001N003110009019N0030001N1+00521+00491102771ADDAA106000091AY121999AY221999GA1081+000909999GF108991081061000751999999MA1102611099961MD1610061+9999MW1101REMSYN082AAXX  01144 07280 31130 82006 10052 20049 39996 40277 56006 71022 886// 333 88703;MET048LFSD 011400Z 20005KT 3000 BR OVC003 05/05 Q1026;EQDQ01  00002PRCP06Q02    003PRSWM1
0302072800999992000010115004+47270+005080SY-MT+0227LFSD V0201601N002110009019N0012001N1+00511+00481102811ADDAA103999929AY151031AY221031ED199U15009GA1081+000909999GF108991081061000751999999MA1102711100001MD1310021+9999MW1511REMSYN088AAXX  01154 07280 21112 81604 10051 20048 30000 40281 53002 75152 886// 333 69907 88703;MET062LFSD 011500Z 16003KT 1200 R36/P1500 -DZ BR OVC003 05/05 Q1027;EQDQ01    003PRSWM1
0302072800999992000010116004+47270+005080SY-MT+0227LFSD V0201801N002110009019N0010001N1+00471+00461102831ADDAA101000691AY161999AY251999ED199U15009GA1081+000909999GF108991081061000751999999MA1102711100021MD1310061+9999MW1511REMSYN088AAXX  01164 07280 21110 81804 10047 20046 30002 40283 53006 75165 886// 333 69965 88703;MET062LFSD 011600Z 18004KT 1000 R36/P1500 -DZ BR OVC003 05/05 Q1027;EQDQ01    003PRSWM1
0291072800999992000010117004+47270+005080SY-MT+0227LFSD V0201901N002110003019N0010001N1+00471+00461102841ADDAA101000491AY161999AY251999ED199U15009GA1081+000309999GF108991081061000751999999MA1102711100031MD1110071+9999MW1511MW2581REMSYN088AAXX  01174 07280 21110 81904 10047 20046 30003 40284 51007 75865 886// 333 69945 88701;MET064LFSD 011700Z 19003KT 1000 R36/P1500 -DZRA BR OVC001 05/05 Q1027;
0314072800999992000010118004+47270+005080SY-MT+0227LFSD V0201601N001010003019N0015001N1+00471+00461102881ADDAA103001091AY161061AY251061GA1081+000309999GF108991081061000751999999KA1999M+00531KA2999N+00241MA1102711100071MD1310071+9999MW1211MW2511REMSYN106AAXX  01184 07280 /1115 81602 10047 20046 30007 40288 53007 60012 72165 886// 333 10053 20024 60017 88701;MET054LFSD 011800Z 16002KT 1500 -DZRA BR OVC001 05/05 Q1027;
0298072800999992000010119004+47270+005080SY-MT+0227LFSD V0201701N001010003019N0009001N1+00471+00461102911ADDAA106000021AY141999AY221999ED199U15009GA1081+000309999GF108991081061000751999999MA1102811100101MD1310081+9999MW1441MW2461REMSYN082AAXX  01194 07280 31109 81702 10047 20046 30010 40291 53008 74642 886// 333 88701;MET058LFSD 011900Z 17001KT 0900 R36/P1500 FG OVC001 05/05 Q1028;EQDQ01    003PRSWM1
0163072800999992000010119294+47270+005080FM-16+0227LFSD V0201801N00051000151CN0006001N1+00501+00501999999ADDGA1091+000159999GF109991999999000251999999MA1102811999999MW1451REMMET069LFSD 011929Z 18001KT 0600 R36/1200VP1500 FG VV/// 05/05 Q1028 RMK M2;EQDQ01    003PRSWM1
0281072800999992000010120004+47270+005080SY-MT+0227LFSD V0209999C00001000151CN0002001N1+00471+00461102921ADDAA106000021AY141999AY241999ED199U05009GA1091+000159999GF109991091999000151999999MA1102811100111MD1110081+9999MW1451MW2471REMSYN066AAXX  01204 07280 31/02 90000 10047 20046 30011 40292 51008 74744;MET057LFSD 012000Z 00000KT 0250 R36/0500N FG VV/// 05/05 Q1028;EQDQ01    003PRSWM1
0281072800999992000010121004+47270+005080SY-MT+0227LFSD V0201801N001010001519N0000001N1+00461+00461102941ADDAA106000021AY141031AY221031ED199U03509GA1091+000159999GF109991091999000151999999MA1102811100121MD1110051+9999MW1451MW2471REMSYN066AAXX  01214 07280 31/00 91802 10046 20046 30012 40294 51005 74742;MET057LFSD 012100Z 18002KT 0050 R36/0350N FG VV/// 05/05 Q1028;EQDQ01    003PRSWM1
0275072800999992000010122004+47270+005080SY-MT+0227LFSD V0201801N001010001519N0001001N1+00461+00461102951ADDAA106000021AY141999AY241999ED199U03509GA1091+000159999GF109991091999000151999999MA1102811100131MD1210031+9999MW1451REMSYN066AAXX  01224 07280 31/01 91802 10046 20046 30013 40295 52003 74544;MET057LFSD 012200Z 18002KT 0150 R36/0350N FG VV/// 05/05 Q1028;EQDQ01    003PRSWM1
0275072800999992000010123004+47270+005080SY-MT+0227LFSD V0209999C000010001519N0001001N1+00461+00461102981ADDAA106000021AY141999AY241999ED199U03509GA1091+000159999GF109991091999000151999999MA1102811100161MD1310051+9999MW1451REMSYN066AAXX  01234 07280 31/01 90000 10046 20046 30016 40298 53005 74544;MET057LFSD 012300Z 00000KT 0150 R36/0350N FG VV/// 05/05 Q1028;EQDQ01    003PRSWM1
0275072800999992000010200004+47270+005080SY-MT+0227LFSD V0209999C000010001519N0001001N1+00451+00451102981ADDAA106000021AY141061AY221061ED199U03509GA1091+000159999GF109991091999000151999999MA1102811100161MD1110041+9999MW1451REMSYN066AAXX  02004 07280 31/01 90000 10045 20045 30016 40298 51004 74542;MET057LFSD 020000Z 00000KT 0150 R36/0350N FG VV/// 05/05 Q1028;EQDQ01    003PRSWM1
0291072800999992000010201004+47270+005080SY-MT+0227LFSD V0209999C000010001519N0001001N1+00441+00441102981ADDAA106000091AY141999AY241999ED199U05009GA1091+000159999GF109991091999000151999999MA1102811100161MD1110031+9999MW1451REMSYN066AAXX  02014 07280 31/01 90000 10044 20044 30016 40298 51003 74544;MET057LFSD 020100Z 02001KT 0150 R36/0500N FG VV/// 04/04 Q1028;EQDQ01  00002PRCP06Q02    003PRSWM1
0285072800999992000010202004+47270+005080SY-MT+0227LFSD V0200301N001010001519N0001001N1+00451+00451102991ADDAA106000091AY141999AY241999GA1091+000159999GF109991091999000151999999MA1102811100171MD1310011+9999MW1451REMSYN066AAXX  02024 07280 31/01 90302 10045 20045 30017 40299 53001 74544;MET062LFSD 020200Z 03001KT 0150 R36/0800V1100U FG VV/// 05/05 Q1028;EQDQ01  00002PRCP06Q02    003PRSWM1
0316072800999992000010203004+47270+005080SY-MT+0227LFSD V0203401N001010015019N0012001N1+00451+00441103001ADDAA106000091AY141031AY221031GA1081+001509999GF108991081061001501999999MA1102911100181MD1310021+9999MW1101MW2281REMSYN082AAXX  02034 07280 31212 83402 10045 20044 30018 40300 53002 72842 886// 333 88705;MET071LFSD 020300Z 34001KT 1200 R36/0800VP1500U BR OVC005 05/05 Q1029 RMK B2;EQDQ01  00002PRCP06Q02    003PRSWM1
0337072800999992000010204004+47270+005080SY-MT+0227LFSD V0200301N001010015019N0012001N1+00461+00461103011ADDAA106000091AY121999AY221999ED199U15009GA1071+001509999GA2081+003909999GF108991081051001501999999MA1102911100191MD1210031+9999MW1101REMSYN088AAXX  02044 07280 31212 80302 10046 20046 30019 40301 52003 71022 885// 333 85705 88613;MET065LFSD 020400Z 03003KT 1200 R36/P1500 BR BKN005 OVC013 05/05 Q1029;EQDQ01  00002PRCP06Q02    003PRSWM1
0316072800999992000010205004+47270+005080SY-MT+0227LFSD V0200301N002110039019N0015001N1+00441+00431103031ADDAA106000091AY121999AY221999GA1021+001509999GA2081+003909999GF108991081051001501999999MA1102911100211MD1310041+9999MW1101REMSYN088AAXX  02054 07280 31215 80304 10044 20043 30021 40303 53004 71022 885// 333 83705 88613;MET055LFSD 020500Z 03003KT 1500 BR SCT005 OVC013 04/04 Q1029;EQDQ01  00002PRCP06Q02    003PRSWM1
0186072800999992000010205304+47270+005080FM-15+0227LFSD V0209999C000010006019N0004501N1+00401+00401999999ADDED199U07509GA1081+000609999GF108991999999999999999999MA1102911999999MW1441REMMET065LFSD 020530Z 00000KT 0450 R36/0750D FG OVC002 04/04 Q1029 RMK M2;EQDQ01+000003PRSWM1Q02    003PRSWM1
0209072800999992000010205544+47270+005080FM-16+0227LFSD V0200301N002110006019N0012001N1+00501+00401999999ADDED199U15009GA1071+000609999GA2081+004509999GF108991999999999999999999MA1102911999999MW1101REMMET072LFSD 020554Z 03004KT 1200 R36/P1500 BR BKN002 OVC015 05/04 Q1029 RMK B2;EQDQ01+000003PRSWM1Q02    003PRSWM1
0436072800999992000010206004+47270+005080SY-MT+0227LFSD V0200301N003110006019N0012001N1+00451+00451103051ADDAA106000091AA224001291AY141061AY221061ED199U15009GA1071+000609999GA2081+004509999GF108991081051000751999999GJ100009IA1119IA2999+00409KA1999M+00471KA2999N+00421MA1102911100231MD1310051+9999MW1101MW2281REMSYN118AAXX  02064 07280 31112 80306 10045 20045 30023 40305 53005 72842 885// 333 10047 20042 32004 55000 70012 86702 88615;MET065LFSD 020600Z 03005KT 1200 R36/P1500 BR BKN002 OVC015 05/05 Q1029;EQDQ01  00002PRCP06Q02    003PRSWM1
0339072800999992000010207004+47270+005080SY-MT+0227LFSD V0200401N003110003019N0012001N1+00471+00461103081ADDAA106000091AY121999AY221999ED199U15009GA1071+000309999GA2081+002409999GF108991081051000751999999MA1102911100261MD1310071+9999MW1401REMSYN088AAXX  02074 07280 31112 80406 10047 20046 30026 40308 53007 74022 885// 333 86701 88708;MET067LFSD 020700Z 04005KT 1200 R36/P1500 VCFG BKN001 OVC008 05/05 Q1029;EQDQ01  00002PRCP06Q02    003PRSWM1
0316072800999992000010208004+47270+005080SY-MT+0227LFSD V0200101N002110030019N0025001N1+00481+00471103091ADDAA106000091AY121999AY221999GA1021+000909999GA2071+003009999GF107991071061000751999999MA1103011100271MD1110061+9999MW1101REMSYN088AAXX  02084 07280 31125 70104 10048 20047 30027 40309 51006 71022 876// 333 82703 87710;MET055LFSD 020800Z 01004KT 2500 BR FEW003 BKN010 05/05 Q1030;EQDQ01  00002PRCP06Q02    003PRSWM1
0192072800999992000010208404+47270+005080FM-16+0227LFSD V0200301N002610120019N0050001N1+00501+00501999999ADDGA1021+000909999GA2021+003909999GA3071+012009999GF107991999999999999999999MA1103011999999MW1001REMMET066LFSD 020840Z 03005KT 5000 FEW003 SCT013 BKN040 05/05 Q1030 RMK B3;EQDQ01+000000PRSWM2
0320072800999992000010209004+47270+005080SY-MT+0227LFSD V0200301N003110120019N0050001N1+00521+00511103121ADDAA106000091GA1021+000909999GA2021+003909999GA3071+012009999GF107991071051000751999999MA1103011100311MD1310081+9999MW1001REMSYN088AAXX  02094 07280 32150 70306 10052 20051 30031 40312 53008 875// 333 81703 83713 87640;MET059LFSD 020900Z 03005KT 5000 FEW003 SCT013 BKN040 05/05 Q1030;EQDQ01+000000PRSWM2Q02  00002PRCP06
0169072800999992000010209104+47270+005080FM-16+0227LFSD V0200401N002610012019N0060001N1+00501+00501999999ADDGA1071+001209999GA2071+012009999GF107991999999999999999999MA1103011999999MW1001REMMET059LFSD 020910Z 04005KT 6000 BKN004 BKN040 05/05 Q1030 RMK M3;EQDQ01+000000PRSWM2
0294072800999992000010210004+47270+005080SY-MT+0227LFSD V0200301N003110006019N0040001N1+00501+00491103171ADDAA106000091AY121999AY221999GA1081+000609999GF108991081061000751999999MA1103011100351MD1310091+9999MW1101REMSYN082AAXX  02104 07280 31140 80306 10050 20049 30035 40317 53009 71022 886// 333 88702;MET055LFSD 021000Z 03006KT 4000 BR OVC002 05/05 Q1030 RMK M2;EQDQ01  00002PRCP06Q02    003PRSWM1
0287072800999992000010211004+47270+005080SY-MT+0227LFSD V0200201N003110006019N0045001N1+00491+00481103151ADDAA106000091AY121999AY221999GA1081+000609999GF108991081061000751999999MA1103011100331MD1010061+9999MW1101REMSYN082AAXX  02114 07280 31145 80206 10049 20048 30033 40315 50006 71022 886// 333 88702;MET048LFSD 021100Z 02006KT 4500 BR OVC002 05/05 Q1030;EQDQ01  00002PRCP06Q02    003PRSWM1
0154072800999992000010211304+47270+005080FM-15+0227LFSD V0200401N002110009019N0050001N1+00501+00501999999ADDGA1081+000909999GF108991999999999999999999MA1103011999999MW1001REMMET060LFSD 021130Z 04004KT 020V090 5000 OVC003 05/05 Q1030 RMK B2;EQDQ01+000000PRSWM2
0262072800999992000010212004+47270+005080SY-MT+0227LFSD V0200101N003110009019N0060001N1+00481+00471103121ADDAA106000091GA1081+000909999GF108991081061001501999999MA1103011100301MD1810011+9999MW1001REMSYN076AAXX  02124 07280 32256 80106 10048 20047 30030 40312 58001 886// 333 88703;MET045LFSD 021200Z 01006KT 6000 OVC003 05/05 Q1030;EQDQ01+000000PRSWM2Q02  00002PRCP06
0270072800999992000010213004+47270+005080SY-MT+0227LFSD V0200301N003110015019N0080001N1+00481+00441103091ADDAA106000091GA1081+001509999GF108991081061001501999999MA1103011100271MD1810081+9999MW1001REMSYN076AAXX  02134 07280 32258 80306 10048 20044 30027 40309 58008 886// 333 88705;MET053LFSD 021300Z 03005KT 360V070 8000 OVC005 05/04 Q1030;EQDQ01+000000PRSWM2Q02  00002PRCP06
0262072800999992000010214004+47270+005080SY-MT+0227LFSD V0200201N004110012019N0080001N1+00481+00421103051ADDAA106000091GA1081+001209999GF108991081061001501999999MA1102911100231MD1810101+9999MW1001REMSYN076AAXX  02144 07280 32258 80208 10048 20042 30023 40305 58010 886// 333 88704;MET045LFSD 021400Z 02007KT 8000 OVC004 05/04 Q1029;EQDQ01+000000PRSWM2Q02  00002PRCP06
0262072800999992000010215004+47270+005080SY-MT+0227LFSD V0200301N003110012019N0080001N1+00471+00411103071ADDAA106000091GA1081+001209999GF108991081061001501999999MA1102911100251MD1510051+9999MW1001REMSYN076AAXX  02154 07280 32258 80306 10047 20041 30025 40307 55005 886// 333 88704;MET045LFSD 021500Z 03006KT 8000 OVC004 05/04 Q1029;EQDQ01+000000PRSWM2Q02  00002PRCP06
0262072800999992000010216004+47270+005080SY-MT+0227LFSD V0200401N002110012019N0070001N1+00451+00391103051ADDAA106000091GA1081+001209999GF108991081061001501999999MA1102911100231MD1610041+9999MW1001REMSYN076AAXX  02164 07280 32257 80404 10045 20039 30023 40305 56004 886// 333 88704;MET045LFSD 021600Z 04004KT 7000 OVC004 05/04 Q1029;EQDQ01+000000PRSWM2Q02  00002PRCP06
0262072800999992000010217004+47270+005080SY-MT+0227LFSD V0200301N003110012019N0070001N1+00421+00361103081ADDAA106000091GA1081+001209999GF108991081061001501999999MA1102911100261MD1310031+9999MW1001REMSYN076AAXX  02174 07280 32257 80306 10042 20036 30026 40308 53003 886// 333 88704;MET045LFSD 021700Z 03006KT 7000 OVC004 04/04 Q1029;EQDQ01+000000PRSWM2Q02  00002PRCP06
0300072800999992000010218004+47270+005080SY-MT+0227LFSD V0200101N003110012019N0070001N1+00411+00351103111ADDAA106000091GA1081+001209999GF108991081061001501999999KA1999M+00531KA2999N+00401MA1103011100281MD1310031+9999MW1001REMSYN088AAXX  02184 07280 32257 80106 10041 20035 30028 40311 53003 886// 333 10053 20040 88704;MET045LFSD 021800Z 01005KT 7000 OVC004 04/04 Q1030;EQDQ01+000000PRSWM2Q02  00002PRCP06
0262072800999992000010219004+47270+005080SY-MT+0227LFSD V0203501N002110015019N0070001N1+00401+00341103121ADDAA106000091GA1081+001509999GF108991081061001501999999MA1103011100291MD1110061+9999MW1001REMSYN076AAXX  02194 07280 32257 83504 10040 20034 30029 40312 51006 886// 333 88705;MET045LFSD 021900Z 35004KT 7000 OVC005 04/03 Q1030;EQDQ01+000000PRSWM2Q02  00002PRCP06
0262072800999992000010220004+47270+005080SY-MT+0227LFSD V0200201N002110018019N0070001N1+00401+00341103161ADDAA106000091GA1081+001809999GF108991081061001501999999MA1103011100331MD1310071+9999MW1001REMSYN076AAXX  02204 07280 32257 80204 10040 20034 30033 40316 53007 886// 333 88706;MET045LFSD 022000Z 02004KT 7000 OVC006 04/03 Q1030;EQDQ01+000000PRSWM2Q02  00002PRCP06
0262072800999992000010221004+47270+005080SY-MT+0227LFSD V0200101N001010021019N0080001N1+00391+00321103161ADDAA106000091GA1081+002109999GF108991081061002501999999MA1103011100331MD1110051+9999MW1001REMSYN076AAXX  02214 07280 32358 80102 10039 20032 30033 40316 51005 886// 333 88707;MET045LFSD 022100Z 01002KT 8000 OVC007 04/03 Q1030;EQDQ01+000000PRSWM2Q02  00002PRCP06
0262072800999992000010222004+47270+005080SY-MT+0227LFSD V0200301N001010018019N0080001N1+00381+00281103161ADDAA106000091GA1081+001809999GF108991081061001501999999MA1103011100331MD1110041+9999MW1001REMSYN076AAXX  02224 07280 32258 80302 10038 20028 30033 40316 51004 886// 333 88706;MET045LFSD 022200Z 03001KT 8000 OVC006 04/03 Q1030;EQDQ01+000000PRSWM2Q02  00002PRCP06
0262072800999992000010223004+47270+005080SY-MT+0227LFSD V0202101N001010021019N0080001N1+00371+00271103111ADDAA106000091GA1081+002109999GF108991081061002501999999MA1103011100281MD1810051+9999MW1001REMSYN076AAXX  02234 07280 32358 82102 10037 20027 30028 40311 58005 886// 333 88707;MET045LFSD 022300Z 21001KT 8000 OVC007 04/03 Q1030;EQDQ01+000000PRSWM2Q02  00002PRCP06
0262072800999992000010300004+47270+005080SY-MT+0227LFSD V0201901N001010030019N0080001N1+00381+00261103141ADDAA106000091GA1081+003009999GF108991081061004501999999MA1103011100311MD1510021+9999MW1001REMSYN076AAXX  03004 07280 32458 81902 10038 20026 30031 40314 55002 886// 333 88710;MET045LFSD 030000Z 19002KT 8000 OVC010 04/03 Q1030;EQDQ01+000000PRSWM2Q02  00002PRCP06
0262072800999992000010301004+47270+005080SY-MT+0227LFSD V0202201N001010033019N0080001N1+00371+00271103131ADDAA106000091GA1081+003309999GF108991081061004501999999MA1103011100301MD1610031+9999MW1001REMSYN076AAXX  03014 07280 32458 82202 10037 20027 30030 40313 56003 886// 333 88711;MET045LFSD 030100Z 22003KT 8000 OVC011 04/03 Q1030;EQDQ01+000000PRSWM2Q02  00002PRCP06
0262072800999992000010302004+47270+005080SY-MT+0227LFSD V0202301N001010033019N0080001N1+00361+00271103141ADDAA106000091GA1081+003309999GF108991081061004501999999MA1103011100311MD1110031+9999MW1001REMSYN076AAXX  03024 07280 32458 82302 10036 20027 30031 40314 51003 886// 333 88711;MET045LFSD 030200Z 23002KT 8000 OVC011 04/03 Q1030;EQDQ01+000000PRSWM2Q02  00002PRCP06
0291072800999992000010303004+47270+005080SY-MT+0227LFSD V0202501N001010069019N0090001N1+00331+00261103101ADDAA106000091GA1021+003309999GA2081+006909999GF108991081051004501999999MA1103011100271MD1810041+9999MW1001REMSYN082AAXX  03034 07280 32459 82502 10033 20026 30027 40310 58004 885// 333 83711 88623;MET052LFSD 030300Z 25001KT 9000 SCT011 OVC023 03/03 Q1030;EQDQ01+000000PRSWM2Q02  00002PRCP06
0291072800999992000010304004+47270+005080SY-MT+0227LFSD V0201701N001010060019N0080001N1+00311+00271103111ADDAA106000091GA1021+003309999GA2081+006009999GF108991081051004501999999MA1103011100271MD1810031+9999MW1001REMSYN082AAXX  03044 07280 32458 81702 10031 20027 30027 40311 58003 885// 333 82711 88620;MET052LFSD 030400Z 17002KT 8000 FEW011 OVC020 03/03 Q1030;EQDQ01+000000PRSWM2Q02  00002PRCP06
0291072800999992000010305004+47270+005080SY-MT+0227LFSD V0202001N002110054019N0070001N1+00311+00271103121ADDAA106000091GA1021+003309999GA2081+005409999GF108991081051004501999999MA1103011100281MD1510031+9999MW1001REMSYN082AAXX  03054 07280 32457 82004 10031 20027 30028 40312 55003 885// 333 82711 88618;MET052LFSD 030500Z 20004KT 7000 FEW011 OVC018 03/03 Q1030;EQDQ01+000000PRSWM2Q02  00002PRCP06
0169072800999992000010305304+47270+005080FM-15+0227LFSD V0202301N001510036019N0060001N1+00301+00301999999ADDGA1071+003609999GA2081+005409999GF108991999999999999999999MA1103011999999MW1001REMMET059LFSD 030530Z 23003KT 6000 BKN012 OVC018 03/03 Q1030 RMK M3;EQDQ01+000000PRSWM2
0384072800999992000010306004+47270+005080SY-MT+0227LFSD V0202001N001010036019N0060001N1+00311+00271103121ADDAA106000091AA224000091GA1071+003609999GA2081+005409999GF108991081051004501999999GJ100009IA1099IA2999+00209KA1999M+00411KA2999N+00291MA1103011100281MD1210011+9999MW1001REMSYN112AAXX  03064 07280 32456 82002 10031 20027 30028 40312 52001 885// 333 10041 20029 31002 55000 70000 86712 88618;MET052LFSD 030600Z 20003KT 6000 BKN012 OVC018 03/03 Q1030;EQDQ01+000000PRSWM2Q02  00002PRCP06
0262072800999992000010307004+47270+005080SY-MT+0227LFSD V0202301N001010033019N0060001N1+00321+00291103161ADDAA106000091GA1081+003309999GF108991081061004501999999MA1103011100321MD1310051+9999MW1001REMSYN076AAXX  03074 07280 32456 82302 10032 20029 30032 40316 53005 886// 333 88711;MET045LFSD 030700Z 23002KT 6000 OVC011 03/03 Q1030;EQDQ01+000000PRSWM2Q02  00002PRCP06
0307072800999992000010308004+47270+005080SY-MT+0227LFSD V0201901N002110024019N0050001N1+00301+00271103181ADDAA106000091GA1071+002409999GA2071+008409999GF199999061051002501001001MA1103011100341MD1310061+9999MW1001REMSYN082AAXX  03084 07280 32350 61904 10030 20027 30034 40318 53006 86500 333 85708 86628;MET052LFSD 030800Z 19003KT 5000 BKN008 BKN028 03/03 Q1030;EQDQ01+000062SCOTCVQ02+000000PRSWM2Q03  00002PRCP06
0262072800999992000010309004+47270+005080SY-MT+0227LFSD V0202201N003110012019N0050001N1+00361+00321103171ADDAA106000091GA1071+001209999GF107991071061001501999999MA1103011100341MD1110061+9999MW1001REMSYN076AAXX  03094 07280 32250 72206 10036 20032 30034 40317 51006 876// 333 87704;MET045LFSD 030900Z 22006KT 5000 BKN004 04/03 Q1030;EQDQ01+000000PRSWM2Q02  00002PRCP06
0262072800999992000010310004+47270+005080SY-MT+0227LFSD V0202101N005110012019N0050001N1+00421+00361103191ADDAA106000091GA1071+001209999GF107991071061001501999999MA1103011100361MD1210041+9999MW1001REMSYN076AAXX  03104 07280 32250 72110 10042 20036 30036 40319 52004 876// 333 87704;MET045LFSD 031000Z 21009KT 5000 BKN004 04/04 Q1030;EQDQ01+000000PRSWM2Q02  00002PRCP06
0146072800999992000010310504+47270+005080FM-15+0227LFSD V0202001N005112200019N0080001N1+00501+00301999999ADDGA1021+001809999GF104991999999999999999999MA1103011999999MW1001REMMET052LFSD 031050Z 20010KT 8000 SCT006 05/03 Q1030 RMK B3;EQDQ01+000000PRSWM2
0262072800999992000010311004+47270+005080SY-MT+0227LFSD V0202001N005112200019N0080001N1+00521+00351103131ADDAA106000091GA1021+001809999GF104991041011002501001001MA1103011100311MD1810031+9999MW1001REMSYN076AAXX  03114 07280 32358 42010 10052 20035 30031 40313 58003 84100 333 84806;MET045LFSD 031100Z 20010KT 8000 SCT006 05/04 Q1030;EQDQ01+000000PRSWM2Q02  00002PRCP06
0262072800999992000010312004+47270+005080SY-MT+0227LFSD V0202201N005112200019N0120001N1+00621+00351103041ADDAA106000091GA1021+003009999GF102991021011004501001001MA1102911100241MD1810101+9999MW1001REMSYN076AAXX  03124 07280 32462 22210 10062 20035 30024 40304 58010 82100 333 82810;MET045LFSD 031200Z 22010KT 9999 FEW010 06/04 Q1029;EQDQ01+000000PRSWM2Q02  00002PRCP06
0278072800999992000010313004+47270+005080SY-MT+0227LFSD V0202101N004112200019N0120001N1+00721+00381102961ADDAA106000091GA1021+003909999GF199999011011004501001001MA1102811100171MD1810191+9999MW1001REMSYN076AAXX  03134 07280 32462 12108 10072 20038 30017 40296 58019 81100 333 81813;MET045LFSD 031300Z 21008KT 9999 FEW013 07/04 Q1028;EQDQ01+000012SCOTCVQ02+000000PRSWM2Q03  00002PRCP06
0278072800999992000010314004+47270+005080SY-MT+0227LFSD V0202001N004112200019N0120001N1+00751+00341102901ADDAA106000091GA1021+004509999GF199999011011004501001011MA1102811100111MD1610201+9999MW1001REMSYN076AAXX  03144 07280 32462 12008 10075 20034 30011 40290 56020 81101 333 81815;MET045LFSD 031400Z 20008KT 9999 FEW015 08/04 Q1028;EQDQ01+000012SCOTCVQ02+000000PRSWM2Q03  00002PRCP06
0278072800999992000010315004+47270+005080SY-MT+0227LFSD V0202001N003112200019N0120001N1+00701+00361102871ADDAA106000091GA1021+004509999GF199999011011004501001011MA1102811100081MD1610161+9999MW1001REMSYN076AAXX  03154 07280 32462 12006 10070 20036 30008 40287 56016 81101 333 81815;MET045LFSD 031500Z 20006KT 9999 FEW015 07/04 Q1028;EQDQ01+000012SCOTCVQ02+000000PRSWM2Q03  00002PRCP06
0256072800999992000010316004+47270+005080SY-MT+0227LFSD V0201901N002112200019N0120001N1+00541+00311102851ADDAA106000091GA1021+069009019GF102991001001999999001011MA1102711100041MD1610131+9999MW1001REMSYN076AAXX  03164 07280 32962 21904 10054 20031 30004 40285 56013 80001 333 82073;MET039LFSD 031600Z 19004KT CAVOK 05/03 Q1027;EQDQ01+000000PRSWM2Q02  00002PRCP06
0278072800999992000010317004+47270+005080SY-MT+0227LFSD V0202001N002112200019N0070001N1+00391+00241102861ADDAA106000091GA1021+069009999GF199999001001999999001011MA1102711100041MD1610071+9999MW1001REMSYN076AAXX  03174 07280 32957 12004 10039 20024 30004 40286 56007 80001 333 81073;MET045LFSD 031700Z 20003KT 7000 FEW230 04/02 Q1027;EQDQ01+000012SCOTCVQ02+000000PRSWM2Q03  00002PRCP06
0269072800999992000010318004+47270+005080SY-MT+0227LFSD V0202301N003112200019N0060001N1+00241+00091102871ADDAA106000091GF100991001001999999001001KA1999M+00761KA2999N+00241MA1102711100031MD1610051+9999MW1001REMSYN076AAXX  03184 07280 32956 02306 10024 20009 30003 40287 56005 333 10076 20024;MET042LFSD 031800Z 23005KT 6000 SKC 02/01 Q1027;EQDQ01+000000PRSWM2Q02  00002PRCP06
0227072800999992000010319004+47270+005080SY-MT+0227LFSD V0203101N001012200019N0050001N1+00101+00031102871ADDAA106000091GF100991001001999999001001MA1102711100021MD1810021+9999MW1001REMSYN060AAXX  03194 07280 32950 03102 10010 20003 30002 40287 58002;MET042LFSD 031900Z 31002KT 5000 SKC 01/00 Q1027;EQDQ01+000000PRSWM2Q02  00002PRCP06
0254072800999992000010320004+47270+005080SY-MT+0227LFSD V0202301N001012200019N0050001N1+00071+00031102921ADDAA106000091AY101999AY201999GF100991001001999999001001MA1102711100061MD1310021+9999MW1121REMSYN066AAXX  03204 07280 31950 02302 10007 20003 30006 40292 53002 71200;MET047LFSD 032000Z 23002KT 5000 MIFG SKC 01/00 Q1027;EQDQ01  00002PRCP06Q02    003PRSWM1
0166072800999992000010320294+47270+005080FM-16+0227LFSD V0202101N001012200019N0030001N1+00001+00001999999ADDGA1021+009909999GF104991999999999999999999MA1102711999999MW1101REMMET056LFSD 032029Z 21002KT 3000 BR SCT033 00/M00 Q1027 RMK M2;EQDQ01+000003PRSWM1Q02    003PRSWM1
0289072800999992000010321004+47270+005080SY-MT+0227LFSD V0201701N001012200019N0030001N1-00031-00061102931ADDAA106000091AY101031AY201031GA1021+009909999GF104991041051012501001001MA1102711100061MD1310031+9999MW1101REMSYN082AAXX  03214 07280 31630 41702 11003 21006 30006 40293 53003 71000 84500 333 84633;MET050LFSD 032100Z 17001KT 3000 BR SCT033 M00/M01 Q1027;EQDQ01  00002PRCP06Q02    003PRSWM1
0182072800999992000010321584+47270+005080FM-16+0227LFSD V0202201N000512200019N0007001N1-00101-00101999999ADDGA1021+009909999GF104991999999999999999999MA1102711999999MW1441REMMET072LFSD 032158Z 22001KT 0700 R36/0250V0550U FG SCT033 M01/M01 Q1027 RMK M2;EQDQ01+000003PRSWM1Q02    003PRSWM1
0316072800999992000010322004+47270+005080SY-MT+0227LFSD V0202101N001012200019N0007001N1-00111-00111102921ADDAA106000091AY141011AY201011ED199U06009GA1021+009909999GF104991041051012501001001MA1102711100041MD1010021+9999MW1441MW2461REMSYN082AAXX  03224 07280 31607 42102 11011 21011 30004 40292 50002 74640 84500 333 84633;MET060LFSD 032200Z 21002KT 0700 R36/0600U FG SCT033 M01/M01 Q1027;EQDQ01  00002PRCP06Q02    003PRSWM1
0310072800999992000010323004+47270+005080SY-MT+0227LFSD V0202201N002112200019N0007001N1-00081-00081102881ADDAA106000091AY141999AY241999ED199U15009GA1021+009909999GF104991041051012501001001MA1102711100011MD1810051+9999MW1441REMSYN082AAXX  03234 07280 31607 42204 11008 21008 30001 40288 58005 74444 84500 333 84633;MET060LFSD 032300Z 22003KT 0700 R36/P1500 FG SCT033 M01/M01 Q1027;EQDQ01  00002PRCP06Q02    003PRSWM1
0316072800999992000010400004+47270+005080SY-MT+0227LFSD V0209999C000012200019N0005001N1-00121-00121102871ADDAA106000091AY141061AY201061ED199U03009GA1021+009909999GF103991031051012501001001MA1102711099991MD1710071+9999MW1441MW2461REMSYN082AAXX  04004 07280 31605 30000 11012 21012 39999 40287 57007 74640 83500 333 83633;MET060LFSD 040000Z 00000KT 0500 R36/0300N FG SCT033 M01/M01 Q1027;EQDQ01  00002PRCP06Q02    003PRSWM1
0310072800999992000010401004+47270+005080SY-MT+0227LFSD V0201901N001010099019N0005001N1-00031-00031102831ADDAA106000091AY141999AY241999ED199U15009GA1081+009909999GF108991081051012501999999MA1102611099961MD1710081+9999MW1441REMSYN082AAXX  04014 07280 31605 81902 11003 21003 39996 40283 57008 74444 885// 333 88633;MET060LFSD 040100Z 19001KT 0500 R36/P1500 FG OVC033 M00/M00 Q1026;EQDQ01  00002PRCP06Q02    003PRSWM1
0314072800999992000010402004+47270+005080SY-MT+0227LFSD V0201901N002110099019N0010001N1+00061+00061102781ADDAA106000091AY141999AY221999ED199U15009GA1081+009909999GF108991081051012501999999MA1102611099931MD1810081+9999MW1101MW2281REMSYN082AAXX  04024 07280 31610 81904 10006 20006 39993 40278 58008 72842 885// 333 88633;MET058LFSD 040200Z 19004KT 1000 R36/P1500 BR OVC033 01/01 Q1026;EQDQ01  00002PRCP06Q02    003PRSWM1
0315072800999992000010403004+47270+005080SY-MT+0227LFSD V0202001N004110090019N0012001N1+00161+00161102751ADDAA106000091AY141031AY211031ED199U15009GA1081+009009999GF108991081051008001999999MA1102611099911MD1610081+9999MW1101REMSYN082AAXX  04034 07280 31512 82008 10016 20016 39991 40275 56008 71041 885// 333 88630;MET065LFSD 040300Z 20007KT 1200 R36/P1500 BR OVC030 02/02 Q1026 RMK B2;EQDQ01  00002PRCP06Q02    003PRSWM1
0158072800999992000010404004+47270+005080FM-15+0227LFSD V0202001N002110090019N0015001N1+00201+00201999999ADDGA1081+009009999GF108991999999999999999999MA1102611999999MW1101REMMET048LFSD 040400Z 20004KT 1500 BR OVC030 02/02 Q1026;EQDQ01+000003PRSWM1Q02    003PRSWM1
0287072800999992000010405004+47270+005080SY-MT+0227LFSD V0202001N002110090019N0015001N1+00171+00161102711ADDAA106000091AY121999AY221999GA1081+009009999GF108991081051008001999999MA1102511099871MD1810061+9999MW1101REMSYN082AAXX  04054 07280 31515 82004 10017 20016 39987 40271 58006 71022 885// 333 88630;MET048LFSD 040500Z 20004KT 1500 BR OVC030 02/02 Q1025;EQDQ01  00002PRCP06Q02    003PRSWM1
0409072800999992000010406004+47270+005080SY-MT+0227LFSD V0201901N003110138019N0025001N1+00171+00161102681ADDAA106000091AA224000091AY141061AY211061GA1021+009009999GA2081+013809999GF108991081051008001999999GJ102829IA1099IA2999-00409KA1999M+00231KA2999N-00131MA1102511099841MD1810071+9999MW1101REMSYN118AAXX  04064 07280 31525 81906 10017 20016 39984 40268 58007 71041 885// 333 10023 21013 31104 55047 70000 82630 88646;MET055LFSD 040600Z 19006KT 2500 BR FEW030 OVC046 02/02 Q1025;EQDQ01  00002PRCP06Q02    003PRSWM1
0324072800999992000010407004+47270+005080SY-MT+0227LFSD V0202001N003112200019N0020001N1+00131+00101102671ADDAA106000091AY111999AY211999GA1021+009009999GA2021+015009999GF104991031051008001031001MA1102511099831MD1610071+9999MW1111MW2121REMSYN088AAXX  04074 07280 31520 42006 10013 20010 39983 40267 56007 71111 83530 333 81630 83650;MET057LFSD 040700Z 20006KT 2000 MIFG FEW030 SCT050 01/01 Q1025;EQDQ01  00002PRCP06Q02    003PRSWM1
0332072800999992000010408004+47270+005080SY-MT+0227LFSD V0201901N002110750019N0025001N1+00081+00051102691ADDAA106000091AY111999AY211999GA1021+002409999GA2071+075009999GF199999021061002501001011MA1102511099841MD1510031+9999MW1101REMSYN088AAXX  04084 07280 31325 51904 10008 20005 39984 40269 55003 71011 82601 333 81708 85075;MET055LFSD 040800Z 19004KT 2500 BR FEW008 BKN250 01/01 Q1025;EQDQ01+000052SCOTCVQ02  00002PRCP06Q03    003PRSWM1
0181072800999992000010409004+47270+005080FM-15+0227LFSD V0201901N002610750019N0030001N1+00201+00201999999ADDGA1021+002409999GA2071+075009999GF107991999999999999999999MA1102511999999MW1101REMMET055LFSD 040900Z 19005KT 3000 BR FEW008 BKN250 02/02 Q1025;EQDQ01+000003PRSWM1Q02    003PRSWM1
0169072800999992000010409204+47270+005080FM-15+0227LFSD V0201901N003610750019N0050001N1+00301+00201999999ADDGA1021+018009999GA2071+075009999GF107991999999999999999999MA1102511999999MW1001REMMET059LFSD 040920Z 19007KT 5000 FEW060 BKN250 03/02 Q1025 RMK B2;EQDQ01+000000PRSWM2
0307072800999992000010410004+47270+005080SY-MT+0227LFSD V0202001N004110690019N0070001N1+00401+00201102621ADDAA106000091GA1021+018009999GA2071+069009999GF199999011051017501001011MA1102511099811MD1810021+9999MW1001REMSYN082AAXX  04104 07280 32757 52008 10040 20020 39981 40262 58002 81501 333 81656 85073;MET052LFSD 041000Z 20009KT 7000 FEW060 BKN230 04/02 Q1025;EQDQ01+000052SCOTCVQ02+000000PRSWM2Q03  00002PRCP06
0294072800999992000010411004+47270+005080SY-MT+0227LFSD V0202101N007210630019N0150001N1+00561+00241102561ADDAA106000091GA1011+018009059GA2051+063009019GF105991011051017501999021MA1102401099761MD1810081+9999MW1001REMSYN082AAXX  04114 07280 32765 52114 10056 20024 39976 40256 58008 81502 333 81656 85071;MET039LFSD 041100Z 21013KT CAVOK 06/02 Q1024;EQDQ01+000002SCOMCGQ02+000000PRSWM2Q03  00002PRCP06
0262072800999992000010412004+47270+005080SY-MT+0227LFSD V0202001N00621090001CN0200001N1+00721+00271102491ADDAA106000091GA1011+018009069GF105991011051017501001021MA1102401099711MD1810131+9999MW1001REMSYN082AAXX  04124 07280 32770 52012 10072 20027 39971 40249 58013 81502 333 81656 85071;MET039LFSD 041200Z 20011KT CAVOK 07/03 Q1024;EQDQ01+000000PRSWM2Q02  00002PRCP06
0300072800999992000010413004+47270+005080SY-MT+0227LFSD V0201901N00411063001CN0200001N1+00771+00341102411ADDAA106000091GA1011+018009059GA2041+030009079GA3061+063009019GF107991011051017501031021MA1102301099641MD1810171+9999MW1001REMSYN088AAXX  04134 07280 32770 71908 10077 20034 39964 40241 58017 81532 333 81656 84360 86071;MET039LFSD 041300Z 19008KT CAVOK 08/03 Q1023;EQDQ01+000000PRSWM2Q02  00002PRCP06
0284072800999992000010414004+47270+005080SY-MT+0227LFSD V0201801N005110300019N0200001N1+00791+00341102361ADDAA106000091GA1011+015009069GA2051+030009039GF107991011051017501051061MA1102301099591MD1710171+9999MW1001REMSYN088AAXX  04144 07280 32770 71810 10079 20034 39959 40236 57017 81556 333 81650 85360 87270;MET039LFSD 041400Z 18010KT CAVOK 08/03 Q1023;EQDQ01+000000PRSWM2Q02  00002PRCP06
0300072800999992000010415004+47270+005080SY-MT+0227LFSD V0201901N004110270019N0200001N1+00701+00341102341ADDAA106000091GA1011+015009059GA2061+027009079GA3071+060009089GF107991011051017501051061MA1102201099561MD1610151+9999MW1001REMSYN088AAXX  04154 07280 32770 71908 10070 20034 39956 40234 56015 81556 333 81650 86359 87270;MET039LFSD 041500Z 19008KT CAVOK 07/03 Q1022;EQDQ01+000000PRSWM2Q02  00002PRCP06
0313072800999992000010416004+47270+005080SY-MT+0227LFSD V0202001N006210270019N0120001N1+00641+00301102361ADDAA101999929AY161999AY221999GA1021+012009999GA2081+027009999GF108991021051012501071999MA1102201099581MD1510061+9999MW1601MW2611REMSYN094AAXX  04164 07280 21662 82012 10064 20030 39958 40236 55006 76062 8257/ 333 69905 82640 88459;MET056LFSD 041600Z 20011KT 9999 -RA FEW040 OVC090 06/03 Q1022;EQDQ01    003PRSWM1
0336072800999992000010417004+47270+005080SY-MT+0227LFSD V0201901N005110120019N0070001N1+00571+00391102411ADDAA101000291AY161999AY261999GA1021+009009999GA2071+012009999GA3081+024009999GF108991051051008001021999MA1102301099621MD1310031+9999MW1611REMSYN100AAXX  04174 07280 21557 81910 10057 20039 39962 40241 53003 76166 8552/ 333 69925 81630 85640 88458;MET063LFSD 041700Z 19009KT 7000 -RA FEW030 BKN040 OVC080 06/04 Q1023;EQDQ01    003PRSWM1
0334072800999992000010418004+47270+005080SY-MT+0227LFSD V0201801N005110063019N0090001N1+00581+00411102451ADDAA103000291AY161061AY221061GA1081+006309999GF108991081051008001999999KA1999M+00861KA2999N+00061MA1102301099661MD1310101+9999MW1211REMSYN106AAXX  04184 07280 /1559 81810 10058 20041 39966 40245 53010 69922 72162 885// 333 10086 20006 69927 88621;MET045LFSD 041800Z 18009KT 9000 OVC021 06/04 Q1023;EQDQ01+000000PRSWM2Q02    003PRSWM1
0275072800999992000010419004+47270+005080SY-MT+0227LFSD V0201901N004110048019N0080001N1+00611+00411102461ADDAA106000021GA1021+001809999GA2081+004809999GF108991081051002501999999MA1102301099671MD1110091+9999MW1001REMSYN082AAXX  04194 07280 32358 81908 10061 20041 39967 40246 51009 885// 333 82706 88616;MET052LFSD 041900Z 19008KT 8000 FEW006 OVC016 06/04 Q1023;EQDQ01+000000PRSWM2
0246072800999992000010420004+47270+005080SY-MT+0227LFSD V0201801N003110048019N0080001N1+00611+00431102481ADDAA106000021GA1081+004809999GF108991081051004501999999MA1102401099691MD1110071+9999MW1001REMSYN076AAXX  04204 07280 32458 81806 10061 20043 39969 40248 51007 885// 333 88616;MET045LFSD 042000Z 18007KT 8000 OVC016 06/04 Q1024;EQDQ01+000000PRSWM2
0246072800999992000010421004+47270+005080SY-MT+0227LFSD V0202001N006210048019N0090001N1+00711+00461102461ADDAA106000021GA1081+004809999GF108991081051004501999999MA1102301099681MD1010021+9999MW1001REMSYN076AAXX  04214 07280 32459 82012 10071 20046 39968 40246 50002 885// 333 88616;MET045LFSD 042100Z 20012KT 9000 OVC016 07/05 Q1023;EQDQ01+000000PRSWM2
0246072800999992000010422004+47270+005080SY-MT+0227LFSD V0202101N006210048019N0080001N1+00711+00461102491ADDAA106000021GA1081+004809999GF108991081051004501999999MA1102401099711MD1310041+9999MW1001REMSYN076AAXX  04224 07280 32458 82112 10071 20046 39971 40249 53004 885// 333 88616;MET045LFSD 042200Z 21011KT 8000 OVC016 07/05 Q1024;EQDQ01+000000PRSWM2
0275072800999992000010423004+47270+005080SY-MT+0227LFSD V0202101N007210048019N0080001N1+00701+00481102441ADDAA106000021GA1071+004809999GA2081+018009999GF108991061051004501071999MA1102301099661MD1810031+9999MW1001REMSYN082AAXX  04234 07280 32458 82114 10070 20048 39966 40244 58003 8657/ 333 86616 88358;MET052LFSD 042300Z 21012KT 8000 BKN016 OVC066 07/05 Q1023;EQDQ01+000000PRSWM2
0313072800999992000010500004+47270+005080SY-MT+0227LFSD V0202101N006210075019N0050001N1+00661+00521102461ADDAA103999929AY161061AY221061GA1071+007509999GA2081+024009999GF108991061051008001071999MA1102301099681MD1010001+9999MW1611REMSYN100AAXX  05004 07280 /1550 82112 10066 20052 39968 40246 50000 69901 76162 8657/ 333 69907 86625 88358;MET056LFSD 050000Z 21012KT 5000 -RA BKN025 OVC083 07/05 Q1023;EQDQ01    003PRSWM1
0313072800999992000010501004+47270+005080SY-MT+0227LFSD V0202101N006210078019N0050001N1+00671+00551102441ADDAA101000291AY161999AY261999GA1071+007809999GA2081+024009999GF108991061051008001071999MA1102301099661MD1610051+9999MW1601MW2611REMSYN094AAXX  05014 07280 21550 82112 10067 20055 39966 40244 56005 76066 8657/ 333 69925 86626 88358;MET056LFSD 050100Z 21011KT 5000 -RA BKN026 OVC083 07/06 Q1023;EQDQ01    003PRSWM1
0290072800999992000010502004+47270+005080SY-MT+0227LFSD V0202001N004110048019N0050001N1+00691+00581102471ADDAA101999929AY161999AY221999GA1081+004809999GF108991081051004501999999MA1102401099691MD1310031+9999MW1211REMSYN088AAXX  05024 07280 21450 82008 10069 20058 39969 40247 53003 72162 885// 333 69905 88616;MET045LFSD 050200Z 20008KT 5000 OVC016 07/06 Q1024;EQDQ01+000000PRSWM2Q02    003PRSWM1
0319072800999992000010503004+47270+005080SY-MT+0227LFSD V0201801N004110036019N0050001N1+00641+00571102461ADDAA103000291AY161031AY221031GA1071+003609999GA2081+010809999GF108991081051004501999999MA1102301099681MD1510001+9999MW1211REMSYN094AAXX  05034 07280 21450 81808 10064 20057 39968 40246 55000 72162 885// 333 69927 85612 88636;MET052LFSD 050300Z 18008KT 5000 BKN012 OVC036 06/06 Q1023;EQDQ01+000000PRSWM2Q02    003PRSWM1
0275072800999992000010504004+47270+005080SY-MT+0227LFSD V0202001N003110078019N0080001N1+00721+00631102461ADDAA106000021GA1021+004209999GA2081+007809999GF108991081051004501999999MA1102301099681MD1110021+9999MW1001REMSYN082AAXX  05044 07280 32458 82006 10072 20063 39968 40246 51002 885// 333 84614 88626;MET052LFSD 050400Z 20006KT 8000 SCT014 OVC026 07/06 Q1023;EQDQ01+000000PRSWM2
0275072800999992000010505004+47270+005080SY-MT+0227LFSD V0202101N004110180019N0090001N1+00761+00651102451ADDAA106000021GA1021+004209999GA2071+018009999GF107991071051004501999999MA1102301099681MD1610011+9999MW1001REMSYN082AAXX  05054 07280 32459 72108 10076 20065 39968 40245 56001 875// 333 84614 87656;MET052LFSD 050500Z 21008KT 9000 SCT014 BKN066 08/07 Q1023;EQDQ01+000000PRSWM2
0412072800999992000010506004+47270+005080SY-MT+0227LFSD V0202101N003110180019N0080001N1+00691+00621102501ADDAA112000191AA224000491AY161061AY221061GA1021+004209999GA2071+018009999GF107991071051004501999999GJ103249IA1099IA2999+00509KA1999M+00761KA2999N+00581MA1102401099721MD1310041+9999MW1011REMSYN124AAXX  05064 07280 11458 72106 10069 20062 39972 40250 53004 69922 70162 875// 333 10076 20058 31005 55054 70004 82614 87656;MET052LFSD 050600Z 21005KT 8000 FEW014 BKN060 07/06 Q1024;EQDQ01+000000PRSWM2Q02    003PRSWM1
0307072800999992000010507004+47270+005080SY-MT+0227LFSD V0201301N002110180019N0040001N1+00601+00541102531ADDAA106000021AY121999AY221999GA1021+003009999GA2081+018009999GF108991081051004501999999MA1102401099741MD1310061+9999MW1101REMSYN088AAXX  05074 07280 31440 81304 10060 20054 39974 40253 53006 71022 885// 333 81710 88656;MET062LFSD 050700Z 13003KT 4000 BR FEW010 OVC060 06/05 Q1024 RMK M2;EQDQ01    003PRSWM1
0329072800999992000010508004+47270+005080SY-MT+0227LFSD V0201201N00211015001CN0040001N1+00591+00551102561ADDAA106000021AY121999AY221999GA1021+003009999GA2021+009909999GA3071+015009999GF107991071051004501999999MA1102401099771MD1110091+9999MW1101REMSYN094AAXX  05084 07280 31440 71204 10059 20055 39977 40256 51009 71022 875// 333 81710 84633 87650;MET062LFSD 050800Z 12003KT 4000 BR FEW010 SCT033 BKN050 06/06 Q1024;EQDQ01    003PRSWM1
0329072800999992000010509004+47270+005080SY-MT+0227LFSD V0201501N001010180019N0030001N1+00561+00521102581ADDAA106000021AY121031AY221031GA1021+010809999GA2071+018009999GA3071+069009999GF107991051051012501001011MA1102511099781MD1110061+9999MW1101REMSYN094AAXX  05094 07280 31630 71502 10056 20052 39978 40258 51006 71022 85501 333 82636 85656 86073;MET062LFSD 050900Z 15002KT 3000 BR FEW036 BKN060 BKN230 06/05 Q1025;EQDQ01    003PRSWM1
0351072800999992000010510004+47270+005080SY-MT+0227LFSD V0201701N002110690019N0050001N1+00791+00731102541ADDAA106000091GA1021+012009999GA2021+018009999GA3071+069009999GF199999031051012501001011MA1102401099771MD1010031+9999MW1001REMSYN088AAXX  05104 07280 32650 61704 10079 20073 39977 40254 50003 83501 333 81640 83656 86073;MET074LFSD 051000Z 18004KT 140V220 5000 FEW040 SCT060 BKN230 08/07 Q1024 RMK B2;EQDQ01+000062SCOTCVQ02+000000PRSWM2Q03  00002PRCP06
0307072800999992000010511004+47270+005080SY-MT+0227LFSD V0202101N003110690019N0080001N1+00961+00751102491ADDAA106000091GA1021+003909999GA2071+069009999GF199999011081004501001011MA1102401099741MD1810031+9999MW1001REMSYN082AAXX  05114 07280 32458 62106 10096 20075 39974 40249 58003 81801 333 81813 86073;MET052LFSD 051100Z 21006KT 8000 FEW013 BKN230 10/08 Q1024;EQDQ01+000062SCOTCVQ02+000000PRSWM2Q03  00002PRCP06
0307072800999992000010512004+47270+005080SY-MT+0227LFSD V0201901N002110690019N0080001N1+01061+00751102401ADDAA106000091GA1021+003909999GA2071+069009999GF199999011021004501001011MA1102301099661MD1810121+9999MW1001REMSYN082AAXX  05124 07280 32458 61904 10106 20075 39966 40240 58012 81201 333 81813 86073;MET052LFSD 051200Z 19004KT 8000 FEW013 BKN230 11/08 Q1023;EQDQ01+000062SCOTCVQ02+000000PRSWM2Q03  00002PRCP06
0307072800999992000010513004+47270+005080SY-MT+0227LFSD V0201801N003110690019N0100001N1+01091+00741102331ADDAA106000091GA1021+003909999GA2071+069009999GF199999021021004501001011MA1102301099591MD1810181+9999MW1001REMSYN082AAXX  05134 07280 32460 61806 10109 20074 39959 40233 58018 82201 333 82813 86073;MET052LFSD 051300Z 18005KT 9999 FEW013 BKN230 11/08 Q1023;EQDQ01+000062SCOTCVQ02+000000PRSWM2Q03  00002PRCP06
0307072800999992000010514004+47270+005080SY-MT+0227LFSD V0201401N002110690019N0090001N1+00991+00771102311ADDAA106000091GA1021+004509999GA2071+069009999GF199999011021004501001011MA1102201099561MD1610181+9999MW1001REMSYN082AAXX  05144 07280 32459 61404 10099 20077 39956 40231 56018 81201 333 81815 86073;MET052LFSD 051400Z 14003KT 9000 FEW015 BKN230 10/08 Q1022;EQDQ01+000062SCOTCVQ02+000000PRSWM2Q03  00002PRCP06
0307072800999992000010515004+47270+005080SY-MT+0227LFSD V0201301N002110630019N0100001N1+00931+00711102251ADDAA106000091GA1021+004509999GA2071+063009999GF199999011021004501001021MA1102201099501MD1610161+9999MW1001REMSYN082AAXX  05154 07280 32460 61304 10093 20071 39950 40225 56016 81202 333 81815 86071;MET052LFSD 051500Z 13004KT 9999 FEW015 BKN210 09/07 Q1022;EQDQ01+000062SCOTCVQ02+000000PRSWM2Q03  00002PRCP06
0336072800999992000010516004+47270+005080SY-MT+0227LFSD V0201201N002110630019N0080001N1+00731+00621102241ADDAA106000091GA1021+004509999GA2021+010509999GA3071+063009999GF199999011081004501001021MA1102101099471MD1710121+9999MW1001REMSYN088AAXX  05164 07280 32458 61204 10073 20062 39947 40224 57012 81802 333 81815 83635 86071;MET059LFSD 051600Z 12004KT 8000 FEW015 SCT035 BKN210 07/06 Q1021;EQDQ01+000062SCOTCVQ02+000000PRSWM2Q03  00002PRCP06
0334072800999992000010517004+47270+005080SY-MT+0227LFSD V0200801N001010630019N0050001N1+00621+00561102241ADDAA106000091AY121999AY221999GA1021+004509999GA2071+063009999GF199999011081004501001021MA1102101099461MD1610101+9999MW1121REMSYN088AAXX  05174 07280 31450 60802 10062 20056 39946 40224 56010 71222 81802 333 81815 86071;MET057LFSD 051700Z 08002KT 5000 MIFG FEW015 BKN210 06/06 Q1021;EQDQ01+000062SCOTCVQ02  00002PRCP06Q03    003PRSWM1
0205072800999992000010517104+47270+005080FM-16+0227LFSD V0203301N001010630019N0040001N1+00601+00501999999ADDGA1021+004509999GA2071+063009999GF107991999999999999999999MA1102101999999MW1401REMMET079LFSD 051710Z 33002KT 4000 R36/0800VP1500 VCFG FEW015 BKN210 06/05 Q1021 RMK M2;EQDQ01+000003PRSWM1Q02    003PRSWM1
0198072800999992000010518004+47270+005080FM-15+0227LFSD V0203601N000510630019N0025001N1+00501+00501999999ADDGA1021+007809999GA2071+063009999GF107991999999999999999999MA1102101999999MW1401REMMET072LFSD 051800Z 36001KT 2500 R36/0600VP1500 VCFG FEW026 BKN210 05/05 Q1021;EQDQ01+000003PRSWM1Q02    003PRSWM1
0277072800999992000010519004+47270+005080SY-MT+0227LFSD V0200401N001012200019N0008001N1+00391+00361102231ADDAA106000091AY141999AY211999ED199U02509GF100991001001999999001001MA1102101099431MD1710041+9999MW1411REMSYN066AAXX  05194 07280 31908 00402 10039 20036 39943 40223 57004 74141;MET059LFSD 051900Z 04003KT 0800SE R36/0250N PRFG SKC 04/04 Q1021;EQDQ01  00002PRCP06Q02    003PRSWM1
0165072800999992000010519154+47270+005080FM-16+0227LFSD V0200701N001512200019N0006001N1+00401+00301999999ADDGF100991999999999999999999MA1102101999999MW1411REMMET071LFSD 051915Z 07003KT 0600SE R36/0300V0450N PRFG SKC 04/03 Q1021 RMK M2;EQDQ01+000003PRSWM1Q02    003PRSWM1
0160072800999992000010519304+47270+005080FM-15+0227LFSD V0203601N001512200019N0001001N1+00301+00201999999ADDED199U02009GF100991999999999999999999MA1102101999999MW1441REMMET055LFSD 052030Z 36003KT 0100 R36/0200N FG SKC 03/02 Q1021;EQDQ01+000003PRSWM1Q02    003PRSWM1
0304072800999992000010521004+47270+005080SY-MT+0227LFSD V0200101N00211000151CN0001001N1+00291+00281102211ADDAA106000091AY141031AY211031ED199U02009GA1091+000159999GF109991091999000151999999MA1102101099401MD1710041+9999MW1451MW2471REMSYN066AAXX  05214 07280 31/01 90104 10029 20028 39940 40221 57004 74741;MET064LFSD 052100Z 01004KT 0100 R36/0200N FG VV/// 03/03 Q1021 RMK M3;EQDQ01  00002PRCP06Q02    003PRSWM1
0297072800999992000010522004+47270+005080SY-MT+0227LFSD V0203301N002110001519N0000001N1+00301+00291102201ADDAA106000091AY141999AY241999ED199U02009GA1091+000159999GF109991091999000151999999MA1102101099391MD1610041+9999MW1451MW2471REMSYN066AAXX  05224 07280 31/00 93304 10030 20029 39939 40220 56004 74744;MET057LFSD 052200Z 33004KT 0050 R36/0200N FG VV/// 03/03 Q1021;EQDQ01  00002PRCP06Q02    003PRSWM1
0285072800999992000010601004+47270+005080SY-MT+0227LFSD V0203601N001010001519N0000001N1+00371+00361102161ADDAA101000191AY141999AY241999ED199U04009GA1091+000159999GF109991091999000151999999MA1102001099361MD1610031+9999MW1451REMSYN076AAXX  06014 07280 21/00 93602 10037 20036 39936 40216 56003 74544 333 69925;MET057LFSD 060100Z 36001KT 0050 R36/0400N FG VV/// 04/04 Q1020;EQDQ01    003PRSWM1
0297072800999992000010602004+47270+005080SY-MT+0227LFSD V0201001N002110001519N0001001N1+00351+00341102161ADDAA106000091AY141999AY241999ED199U03509GA1091+000159999GF109991091999000151999999MA1102001099351MD1710021+9999MW1431MW2451REMSYN066AAXX  06024 07280 31/01 91004 10035 20034 39935 40216 57002 74344;MET057LFSD 060200Z 10004KT 0100 R36/0350N FG VV/// 04/03 Q1020;EQDQ01  00002PRCP06Q02    003PRSWM1
0281072800999992000010603004+47270+005080SY-MT+0227LFSD V0201301N00211000151CN0001001N1+00261+00261102201ADDAA103000191AY141031AY241031GF109991091999000151999999MA1102001099381MD1310021+9999MW1431MW2451REMSYN076AAXX  06034 07280 21/01 91304 10026 20026 39938 40220 53002 74344 333 69927;MET074LFSD 0300Z 06///Z 13004KT 0100 R36/0650V0800N FG VV/// 03/03 Q1020 RMK M3;EQDQ01    003PRSWM1
0291072800999992000010604004+47270+005080SY-MT+0227LFSD V0201301N001010001519N0001001N1+00231+00221102191ADDAA106000091AY141999AY241999ED199U07009GA1091+000159999GF109991091999000151999999MA1102001099371MD1210011+9999MW1451REMSYN066AAXX  06044 07280 31/01 91302 10023 20022 39937 40219 52001 74544;MET057LFSD 060400Z 13002KT 0100 R36/0700N FG VV/// 02/02 Q1020;EQDQ01  00002PRCP06Q02    003PRSWM1
0285072800999992000010605004+47270+005080SY-MT+0227LFSD V0201201N002110001519N0001001N1+00201+00201102181ADDAA106000091AY141999AY241999GA1091+000159999GF109991091999000151999999MA1102001099361MD1010011+9999MW1451REMSYN066AAXX  06054 07280 31/01 91204 10020 20020 39936 40218 50001 74544;MET062LFSD 060500Z 12003KT 0100 R36/0450V0550N FG VV/// 02/02 Q1020;EQDQ01  00002PRCP06Q02    003PRSWM1
0367072800999992000010606004+47270+005080SY-MT+0227LFSD V0201201N001010001519N0001001N1+00201+00201102191ADDAA112000191AY141061AY241061ED199U03509GA1091+000159999GF109991091999000151999999GJ102829IA1099IA2999-00109KA1999M+00491KA2999N+00191MA1102001099371MD1510011+9999MW1451REMSYN106AAXX  06064 07280 11/01 91202 10020 20020 39937 40219 55001 69922 74544 333 10049 20019 31101 55047 70002;MET057LFSD 060600Z 12002KT 0100 R36/0350N FG VV/// 02/02 Q1020;EQDQ01    003PRSWM1
0291072800999992000010607004+47270+005080SY-MT+0227LFSD V0201701N001010001519N0001001N1+00211+00201102231ADDAA106000091AY141999AY241999ED199U06009GA1091+000159999GF109991091999000151999999MA1102101099411MD1310041+9999MW1451REMSYN066AAXX  06074 07280 31/01 91702 10021 20020 39941 40223 53004 74544;MET057LFSD 060700Z 17003KT 0100 R36/0600N FG VV/// 02/02 Q1021;EQDQ01  00002PRCP06Q02    003PRSWM1
0291072800999992000010608004+47270+005080SY-MT+0227LFSD V0201701N00211000151CN0002001N1+00241+00241102281ADDAA106000091AY141999AY241999GA1091+000159999GF109991091999000151999999MA1102101099461MD1310101+9999MW1431MW2451REMSYN066AAXX  06084 07280 31/02 91704 10024 20024 39946 40228 53010 74344;MET062LFSD 060800Z 17003KT 0250 R36/0900V1100U FG VV/// 02/02 Q1021;EQDQ01  00002PRCP06Q02    003PRSWM1
0309072800999992000010609004+47270+005080SY-MT+0227LFSD V0202101N003110003019N0007001N1+00351+00351102341ADDAA106000091AY141031AY241031GA1071+000309999GF107991071061000251999999MA1102201099531MD1310161+9999MW1441MW2461REMSYN082AAXX  06094 07280 31007 72106 10035 20035 39953 40234 53016 74644 876// 333 87701;MET064LFSD 060900Z 21005KT 0700 R36/1200VP1500U FG BKN001 04/04 Q1022;EQDQ01  00002PRCP06Q02    003PRSWM1
0180072800999992000010609054+47270+005080FM-16+0227LFSD V0202201N002610003019N0009001N1+00401+00401999999ADDGA1071+000309999GF107991999999999999999999MA1102201999999MW1441REMMET070LFSD 060905Z 22005KT 0900 R36/1400VP1500 FG BKN001 04/04 Q1022 RMK B2;EQDQ01+000003PRSWM1Q02    003PRSWM1
0204072800999992000010609354+47270+005080FM-16+0227LFSD V0202001N002112200019N0015001N1+00401+00401999999ADDGA1021+000309999GA2021+069009999GF104991999999999999999999MA1102201999999MW1101REMMET078LFSD 060935Z 20004KT 1500 R36/1400VP1500U BR SCT001 SCT230 04/04 Q1022 RMK B3;EQDQ01+000003PRSWM1Q02    003PRSWM1
0322072800999992000010610004+47270+005080SY-MT+0227LFSD V0201901N002112200019N0030001N1+00491+00491102401ADDAA106000091AY141999AY211999GA1021+000309999GA2021+069009999GF103991021061000251001011MA1102301099601MD1310191+9999MW1101MW2281REMSYN088AAXX  06104 07280 31030 31904 10049 20049 39960 40240 53019 72841 82601 333 82701 83073;MET055LFSD 061000Z 19005KT 3000 BR FEW001 SCT230 05/05 Q1023;EQDQ01  00002PRCP06Q02    003PRSWM1
0169072800999992000010610254+47270+005080FM-15+0227LFSD V0201901N003612200019N0050001N1+00601+00601999999ADDGA1021+000609999GA2021+069009999GF104991999999999999999999MA1102201999999MW1001REMMET059LFSD 061025Z 19007KT 5000 FEW002 SCT230 06/06 Q1022 RMK B2;EQDQ01+000000PRSWM2
0291072800999992000010611004+47270+005080SY-MT+0227LFSD V0202001N006212200019N0050001N1+00681+00641102351ADDAA106000091GA1021+000609999GA2021+069009999GF103991011011000751001011MA1102201099571MD1010111+9999MW1001REMSYN082AAXX  06114 07280 32150 32012 10068 20064 39957 40235 50011 81101 333 81802 83073;MET052LFSD 061100Z 20011KT 5000 FEW002 SCT230 07/06 Q1022;EQDQ01+000000PRSWM2Q02  00002PRCP06
0329072800999992000010612004+47270+005080SY-MT+0227LFSD V0202001N005112200019N0060001N1+00791+00551102331ADDAA106000091AY141061AY211061GA1021+002409999GA2021+069009999GF103991011011002501001011MA1102201099561MD1010031+9999MW1011REMSYN088AAXX  06124 07280 31356 32010 10079 20055 39956 40233 50003 70141 81101 333 81808 83073;MET052LFSD 061200Z 20010KT 6000 FEW008 SCT230 08/06 Q1022;EQDQ01+000000PRSWM2Q02  00002PRCP06Q03    003PRSWM1
0262072800999992000010613004+47270+005080SY-MT+0227LFSD V0202101N004112200019N0070001N1+00891+00621102291ADDAA106000091GA1021+069009999GF103991001001999999001011MA1102201099531MD1710071+9999MW1001REMSYN076AAXX  06134 07280 32957 32108 10089 20062 39953 40229 57007 80001 333 83073;MET045LFSD 061300Z 21009KT 7000 SCT230 09/06 Q1022;EQDQ01+000000PRSWM2Q02  00002PRCP06
0278072800999992000010614004+47270+005080SY-MT+0227LFSD V0202101N005110690019N0080001N1+00861+00591102281ADDAA106000091GA1071+069009999GF199999001001999999001011MA1102201099521MD1710051+9999MW1001REMSYN076AAXX  06144 07280 32958 52110 10086 20059 39952 40228 57005 80001 333 85073;MET045LFSD 061400Z 21010KT 8000 BKN230 09/06 Q1022;EQDQ01+000052SCOTCVQ02+000000PRSWM2Q03  00002PRCP06
0262072800999992000010615004+47270+005080SY-MT+0227LFSD V0202101N003110600019N0080001N1+00801+00531102311ADDAA106000091GA1071+060009999GF107991001001999999001021MA1102201099541MD1510021+9999MW1001REMSYN076AAXX  06154 07280 32958 72106 10080 20053 39954 40231 55002 80002 333 87070;MET045LFSD 061500Z 21007KT 8000 BKN200 08/05 Q1022;EQDQ01+000000PRSWM2Q02  00002PRCP06
0262072800999992000010616004+47270+005080SY-MT+0227LFSD V0202301N003110600019N0060001N1+00631+00491102371ADDAA106000091GA1071+060009999GF107991001001999999001021MA1102301099591MD1310061+9999MW1001REMSYN076AAXX  06164 07280 32956 72306 10063 20049 39959 40237 53006 80002 333 87070;MET045LFSD 061600Z 23007KT 6000 BKN200 06/05 Q1023;EQDQ01+000000PRSWM2Q02  00002PRCP06
0165072800999992000010616204+47270+005080FM-15+0227LFSD V0202101N003110600019N0035001N1+00601+00401999999ADDGA1071+060009999GF107991999999999999999999MA1102301999999MW1101REMMET055LFSD 061620Z 21006KT 3500 BR BKN200 06/04 Q1023 RMK M2;EQDQ01+000003PRSWM1Q02    003PRSWM1
0287072800999992000010617004+47270+005080SY-MT+0227LFSD V0202101N002110600019N0035001N1+00561+00471102401ADDAA106000091AY121999AY221999GA1071+060009999GF107991001001999999001021MA1102301099611MD1210091+9999MW1101REMSYN082AAXX  06174 07280 31935 72104 10056 20047 39961 40240 52009 71022 80002 333 87070;MET048LFSD 061700Z 21005KT 3500 BR BKN200 06/05 Q1023;EQDQ01  00002PRCP06Q02    003PRSWM1
0325072800999992000010618004+47270+005080SY-MT+0227LFSD V0201901N002110600019N0025001N1+00491+00431102431ADDAA106000091AY111061AY211061GA1071+060009999GF107991001001999999001021KA1999M+00891KA2999N+00191MA1102301099631MD1110091+9999MW1101REMSYN094AAXX  06184 07280 31925 71904 10049 20043 39963 40243 51009 71011 80002 333 10089 20019 87070;MET048LFSD 061800Z 19004KT 2500 BR BKN200 05/04 Q1023;EQDQ01  00002PRCP06Q02    003PRSWM1
0158072800999992000010619004+47270+005080FM-15+0227LFSD V0202501N001510600019N0040001N1+00401+00401999999ADDGA1071+060009999GF107991999999999999999999MA1102301999999MW1101REMMET048LFSD 061900Z 25003KT 4000 BR BKN200 04/04 Q1023;EQDQ01+000003PRSWM1Q02    003PRSWM1
0316072800999992000010620004+47270+005080SY-MT+0227LFSD V0202401N002110600019N0040001N1+00501+00461102491ADDAA106000091AY121999AY221999GA1021+039009999GA2071+060009999GF107991011001999999031021MA1102401099691MD1210081+9999MW1101REMSYN088AAXX  06204 07280 31940 72404 10050 20046 39969 40249 52008 71022 81032 333 81363 87070;MET055LFSD 062000Z 24004KT 4000 BR FEW130 BKN200 05/05 Q1024;EQDQ01  00002PRCP06Q02    003PRSWM1
0168072800999992000010620304+47270+005080FM-15+0227LFSD V02099999999990600019N0050001N1+00501+00501999999ADDGA1021+039009999GA2071+060009999GF107991999999999999999999MA1102401999999MW1001REMMET058LFSD 062030Z 2003KT 5000 FEW130 BKN200 05/05 Q1024 RMK B2;EQDQ01+000000PRSWM2
0195072800999992000010621004+47270+005080FM-12+0227LFSD V0202301N003119999999N0050001N1+00571+00481102491ADDAA106000091GA1031+039009039GF105991031001999999031021MA1999999099701MD1110071+9999REMSYN082AAXX  06214 07280 32950 52306 10057 20048 39970 40249 51007 83032 333 83363 85070;EQDQ01  00002PRCP06
0307072800999992000010622004+47270+005080SY-MT+0227LFSD V0201501N001010390019N0060001N1+00501+00411102551ADDAA106000091GA1071+039009999GA2021+060009999GF199999051001999999031021MA1102401099751MD1310081+9999MW1001REMSYN082AAXX  06224 07280 32956 51502 10050 20041 39975 40255 53008 85032 333 85363 83070;MET052LFSD 062200Z 15002KT 6000 BKN130 SCT200 05/04 Q1024;EQDQ01+000052SCOTCVQ02+000000PRSWM2Q03  00002PRCP06
0291072800999992000010623004+47270+005080SY-MT+0227LFSD V0202901N002110360019N0060001N1+00441+00351102561ADDAA106000091GA1021+012009999GA2071+036009999GF107991071051012501031999MA1102401099751MD1110061+9999MW1001REMSYN082AAXX  06234 07280 32656 72904 10044 20035 39975 40256 51006 8753/ 333 81640 87362;MET052LFSD 062300Z 29003KT 6000 FEW040 BKN120 04/04 Q1024;EQDQ01+000000PRSWM2Q02  00002PRCP06
0291072800999992000010700004+47270+005080SY-MT+0227LFSD V0201601N001010360019N0060001N1+00361+00301102591ADDAA106000091GA1021+012009999GA2071+036009999GF107991021051012501031999MA1102401099771MD1110071+9999MW1001REMSYN082AAXX  07004 07280 32656 71602 10036 20030 39977 40259 51007 8253/ 333 82640 87362;MET052LFSD 070000Z 16002KT 6000 FEW040 BKN120 04/03 Q1024;EQDQ01+000000PRSWM2Q02  00002PRCP06
0323072800999992000010701004+47270+005080SY-MT+0227LFSD V0209999C000010360019N0030001N1+00351+00311102581ADDAA106000091AY121999AY221999GA1021+012009999GA2071+036009999GF107991031051012501031999MA1102401099761MD1010011+9999MW1101REMSYN088AAXX  07014 07280 31630 70000 10035 20031 39976 40258 50001 71022 8353/ 333 83640 87362;MET062LFSD 070100Z 00000KT 3000 BR SCT040 BKN120 04/03 Q1024 RMK M2;EQDQ01  00002PRCP06Q02    003PRSWM1
0316072800999992000010702004+47270+005080SY-MT+0227LFSD V0201501N001010360019N0030001N1+00361+00331102601ADDAA106000091AY121999AY221999GA1021+012009999GA2081+036009999GF108991031051012501031999MA1102511099781MD1210031+9999MW1101REMSYN088AAXX  07024 07280 31630 81502 10036 20033 39978 40260 52003 71022 8353/ 333 83640 88362;MET055LFSD 070200Z 15002KT 3000 BR SCT040 OVC120 04/03 Q1025;EQDQ01  00002PRCP06Q02    003PRSWM1
0316072800999992000010703004+47270+005080SY-MT+0227LFSD V0201701N002110120019N0025001N1+00421+00391102601ADDAA103999929AY161031AY221031GA1071+012009999GA2081+033009999GF108991051051012501031999MA1102511099791MD1310021+9999MW1601MW2611REMSYN094AAXX  07034 07280 21625 81704 10042 20039 39979 40260 53002 76062 8553/ 333 69907 85640 88361;MET059LFSD 070300Z 17003KT 2500 -RA BR BKN040 OVC110 04/04 Q1025;EQDQ01    003PRSWM1
0345072800999992000010704004+47270+005080SY-MT+0227LFSD V0203601N001010069019N0020001N1+00441+00411102651ADDAA101999929AY161999AY261999GA1021+004509999GA2071+006909999GA3081+027009999GF108991071051004501071999MA1102511099841MD1310081+9999MW1601MW2611REMSYN100AAXX  07044 07280 21420 83602 10044 20041 39984 40265 53008 76066 8757/ 333 69905 82615 87623 88359;MET066LFSD 070400Z 36002KT 2000 -RA BR FEW015 BKN023 OVC090 04/04 Q1025;EQDQ01    003PRSWM1
0341072800999992000010705004+47270+005080SY-MT+0227LFSD V0201701N001010054019N0020001N1+00441+00411102651ADDAA101000291AY161999AY221999GA1021+003009999GA2071+005409999GA3081+024009999GF108991071051004501071999MA1102511099841MD1110061+9999MW1101MW2211REMSYN100AAXX  07054 07280 21420 81702 10044 20041 39984 40265 51006 72162 8757/ 333 69925 82710 87618 88358;MET062LFSD 070500Z 17002KT 2000 BR FEW010 BKN018 OVC080 04/04 Q1025;EQDQ01    003PRSWM1
0405072800999992000010706004+47270+005080SY-MT+0227LFSD V0202501N002110045019N0020001N1+00471+00441102681ADDAA103000291AA224000291AY161061AY221061GA1021+003009999GA2081+004509999GF108991081051004501999999GJ103309IA1119IA2999+00109KA1999M+00571KA2999N+00311MA1102511099871MD1110081+9999MW1101REMSYN130AAXX  07064 07280 /1420 82504 10047 20044 39987 40268 51008 69922 71062 885// 333 10057 20031 32001 55055 69927 70002 82710 88615;MET055LFSD 070600Z 25003KT 2000 BR FEW010 OVC015 05/04 Q1025;EQDQ01    003PRSWM1
0188072800999992000010706304+47270+005080FM-15+0227LFSD V0209999C000010039019N0020001N1+00501+00401999999ADDGA1021+003009999GA2081+003909999GF108991999999999999999999MA1102611999999MW1101REMMET062LFSD 070630Z 00000KT 2000 BR FEW010 OVC013 05/04 Q1026 RMK M3;EQDQ01+000003PRSWM1Q02    003PRSWM1
0316072800999992000010707004+47270+005080SY-MT+0227LFSD V0200201N001010039019N0015001N1+00471+00441102701ADDAA101999929AY151011AY221011GA1021+003009999GA2081+003909999GF108991081051004501999999MA1102611099891MD1310051+9999MW1501MW2511REMSYN094AAXX  07074 07280 21415 80202 10047 20044 39989 40270 53005 75052 885// 333 69905 84710 88613;MET059LFSD 070700Z 02001KT 1500 -DZ BR SCT010 OVC013 05/04 Q1026;EQDQ01    003PRSWM1
0304072800999992000010708004+47270+005080SY-MT+0227LFSD V0209999C000010024019N0009001N1+00481+00451102711ADDAA101999929AY151999AY241999ED199U15009GA1081+002409999GF108991081051002501999999MA1102611099901MD1110061+9999MW1441MW2461REMSYN088AAXX  07084 07280 21309 80000 10048 20045 39990 40271 51006 74654 885// 333 69905 88708;MET058LFSD 070800Z 00000KT 0900 R36/P1500 FG OVC008 05/05 Q1026;EQDQ01    003PRSWM1
0283072800999992000010709004+47270+005080SY-MT+0227LFSD V0201901N001010024019N0015001N1+00501+00491102741ADDAA103999929AY151031AY241031GA1081+002409999GF108991081061002501999999MA1102611099931MD1310061+9999MW1101MW2281REMSYN088AAXX  07094 07280 21315 81902 10050 20049 39993 40274 53006 72854 886// 333 69907 88708;MET048LFSD 070900Z 19002KT 1500 BR OVC008 05/05 Q1026;EQDQ01    003PRSWM1
0271072800999992000010710004+47270+005080SY-MT+0227LFSD V0209999C000010030019N0030001N1+00561+00521102751ADDAA106000021AY121999AY221999GA1081+003009999GF108991081061004501999999MA1102611099951MD1310061+9999MW1101REMSYN082AAXX  07104 07280 31430 80000 10056 20052 39995 40275 53006 71022 886// 333 88710;MET048LFSD 071000Z 00000KT 3000 BR OVC010 06/05 Q1026;EQDQ01    003PRSWM1
0271072800999992000010711004+47270+005080SY-MT+0227LFSD V0209999C000010036019N0022001N1+00611+00551102701ADDAA106000021AY121999AY221999GA1081+003609999GF108991081061004501999999MA1102611099911MD1010011+9999MW1101REMSYN082AAXX  07114 07280 31422 80000 10061 20055 39991 40270 50001 71022 886// 333 88712;MET048LFSD 071100Z 00000KT 2200 BR OVC012 06/06 Q1026;EQDQ01    003PRSWM1
0277072800999992000010712004+47270+005080SY-MT+0227LFSD V0201001N001010042019N0030001N1+00671+00601102641ADDAA106000791AY151061AY241061GA1081+004209999GF108991081051004501999999MA1102511099851MD1810081+9999MW1101REMSYN088AAXX  07124 07280 11430 81002 10067 20060 39985 40264 58008 69901 71054 885// 333 88614;MET048LFSD 071200Z 10002KT 3000 BR OVC014 07/06 Q1025;EQDQ01    003PRSWM1
0188072800999992000010712204+47270+005080FM-15+0227LFSD V0201101N001010045019N0022001N1+00701+00601999999ADDGA1021+001209999GA2081+004509999GF108991999999999999999999MA1102511999999MW1101REMMET062LFSD 071220Z 11002KT 2200 BR FEW004 OVC015 07/06 Q1025 RMK B3;EQDQ01+000003PRSWM1Q02    003PRSWM1
0271072800999992000010713004+47270+005080SY-MT+0227LFSD V0209999C000010045019N0025001N1+00701+00631102581ADDAA106000021AY121999AY221999GA1081+004509999GF108991081051004501999999MA1102511099801MD1810151+9999MW1101REMSYN082AAXX  07134 07280 31425 80000 10070 20063 39980 40258 58015 71022 885// 333 88615;MET048LFSD 071300Z 00000KT 2500 BR OVC015 07/06 Q1025;EQDQ01    003PRSWM1
0316072800999992000010714004+47270+005080SY-MT+0227LFSD V0201601N002110048019N0030001N1+00681+00611102571ADDAA106000091AY121999AY221999GA1021+001209999GA2081+004809999GF108991081051001501999999MA1102511099791MD1610121+9999MW1101REMSYN088AAXX  07144 07280 31230 81604 10068 20061 39979 40257 56012 71022 885// 333 81704 88616;MET055LFSD 071400Z 16003KT 3000 BR FEW004 OVC016 07/06 Q1025;EQDQ01  00002PRCP06Q02    003PRSWM1
0287072800999992000010715004+47270+005080SY-MT+0227LFSD V0201901N001010069019N0030001N1+00671+00601102561ADDAA106000091AY121031AY221031GA1081+006909999GF108991081051008001999999MA1102511099781MD1610071+9999MW1101REMSYN082AAXX  07154 07280 31530 81902 10067 20060 39978 40256 56007 71022 885// 333 88623;MET048LFSD 071500Z 19002KT 3000 BR OVC023 07/06 Q1025;EQDQ01  00002PRCP06Q02    003PRSWM1
0287072800999992000010716004+47270+005080SY-MT+0227LFSD V0202101N001010087019N0025001N1+00641+00581102561ADDAA106000091AY121999AY221999GA1071+008709999GF107991071051008001999999MA1102401099771MD1710031+9999MW1101REMSYN082AAXX  07164 07280 31525 72102 10064 20058 39977 40256 57003 71022 875// 333 87629;MET048LFSD 071600Z 21002KT 2500 BR BKN029 06/06 Q1024;EQDQ01  00002PRCP06Q02    003PRSWM1
0287072800999992000010717004+47270+005080SY-MT+0227LFSD V0201901N001010084019N0016001N1+00581+00541102561ADDAA106000091AY121999AY221999GA1071+008409999GF107991071051008001999999MA1102401099771MD1610021+9999MW1101REMSYN082AAXX  07174 07280 31516 71902 10058 20054 39977 40256 56002 71022 875// 333 87628;MET048LFSD 071700Z 19002KT 1600 BR BKN028 06/05 Q1024;EQDQ01  00002PRCP06Q02    003PRSWM1
0187072800999992000010717204+47270+005080FM-15+0227LFSD V0201901N001010084019N0006001N1+00601+00501999999ADDED199U15009GA1071+008409999GF107991999999999999999999MA1102401999999MW1441REMMET066LFSD 071720Z 19002KT 0600S R36/P1500 FG BKN028 06/05 Q1024 RMK M2;EQDQ01+000003PRSWM1Q02    003PRSWM1
0387072800999992000010718004+47270+005080SY-MT+0227LFSD V0209999C000010009019N0001001N1+00471+00471102581ADDAA112000791AY141061AY221061ED199U06009GA1071+000909999GA2071+008409999GF199999061051001501001001KA1999M+00701KA2999N+00471MA1102401099771MD1610011+9999MW1441MW2461REMSYN106AAXX  07184 07280 11201 60000 10047 20047 39977 40258 56001 69902 74642 86500 333 10070 20047 85703 86628;MET065LFSD 071800Z 00000KT 0150 R36/0600U FG BKN003 BKN028 05/05 Q1024;EQDQ01+000062SCOTCVQ02    003PRSWM1
0209072800999992000010718024+47270+005080FM-16+0227LFSD V0209999C000010009019N0001501N1+00501+00501999999ADDED199U07009GA1071+000909999GA2071+008409999GF107991999999999999999999MA1102511999999MW1441REMMET072LFSD 071802Z 00000KT 0150 R36/0700U FG BKN003 BKN028 05/05 Q1025 RMK M3;EQDQ01+000003PRSWM1Q02    003PRSWM1
0211072800999992000010718504+47270+005080FM-15+0227LFSD V0203101N000510087019N0001501N1+00501+00501999999ADDED199U02509GA1021+000909999GA2071+008709999GF107991999999999999999999MA1102511999999MW1441REMMET074LFSD 071850Z 31001KT 0150SE R36/0250N FG SCT003 BKN029 05/05 Q1025 RMK B3;EQDQ01+000003PRSWM1Q02    003PRSWM1
0355072800999992000010719004+47270+005080SY-MT+0227LFSD V0209999C000010087019N0001001N1+00441+00441102581ADDAA106000091AY141011AY241011ED199U02509GA1021+001809999GA2071+008709999GF199999051051002501001001MA1102401099771MD1410001+9999MW1441REMSYN088AAXX  07194 07280 31301 50000 10044 20044 39977 40258 54000 74444 85500 333 83706 85629;MET067LFSD 071900Z 00000KT 0150SE R36/0250N FG SCT006 BKN029 04/04 Q1024;EQDQ01+000052SCOTCVQ02  00002PRCP06Q03    003PRSWM1
0185072800999992000010719204+47270+005080FM-15+0227LFSD V0209999C00001000151CN0001001N1+00401+00401999999ADDED199U02009GA1091+000159999GF109991999999000251999999MA1102511999999MW1451REMMET064LFSD 071920Z 00000KT 0100 R36/M0200 FG VV/// 04/04 Q1025 RMK M3;EQDQ01+000003PRSWM1Q02    003PRSWM1
0291072800999992000010720004+47270+005080SY-MT+0227LFSD V0203001N001010001519N0001001N1+00381+00381102581ADDAA106000091AY141999AY241999GA1091+000159999GF109991091999000151999999MA1102401099771MD1410001+9999MW1451MW2471REMSYN066AAXX  07204 07280 31/01 93002 10038 20038 39977 40258 54000 74744;MET062LFSD 072000Z 30001KT 0100 R36/0450V0550N FG VV/// 04/04 Q1024;EQDQ01  00002PRCP06Q02    003PRSWM1
0211072800999992000010720554+47270+005080FM-15+0227LFSD V0202901N001010093019N0020001N1+00401+00401999999ADDGA1021+000309999GA2021+003309999GA3071+009309999GF107991999999999999999999MA1102511999999MW1101REMMET069LFSD 072055Z 29002KT 2000 BR FEW001 SCT011 BKN031 04/04 Q1025 RMK B3;EQDQ01+000003PRSWM1Q02    003PRSWM1
0351072800999992000010721004+47270+005080SY-MT+0227LFSD V0203101N00101009301CN0020001N1+00361+00361102601ADDAA106000091AY141031AY221031GA1021+000309999GA2021+003309999GA3071+009309999GF107991071051000251999999MA1102511099781MD1310011+9999MW1101MW2281REMSYN094AAXX  07214 07280 31020 73102 10036 20036 39978 40260 53001 72842 875// 333 82701 83711 87631;MET062LFSD 072100Z 31002KT 2000 BR FEW001 SCT011 BKN031 04/04 Q1025;EQDQ01  00002PRCP06Q02    003PRSWM1
0169072800999992000010721454+47270+005080FM-15+0227LFSD V0209999C000010018019N0050001N1+00401+00301999999ADDGA1071+001809999GA2071+009309999GF107991999999999999999999MA1102401999999MW1001REMMET059LFSD 072145Z 00000KT 5000 BKN006 BKN031 04/03 Q1024 RMK B2;EQDQ01+000000PRSWM2
0332072800999992000010722004+47270+005080SY-MT+0227LFSD V0203201N001010090019N0040001N1+00311+00281102561ADDAA106000091AY121999AY221999GA1021+001809999GA2071+009009999GF199999051051002501001001MA1102401099741MD1810031+9999MW1101REMSYN088AAXX  07224 07280 31340 53202 10031 20028 39974 40256 58003 71022 85500 333 83706 85630;MET055LFSD 072200Z 32002KT 4000 BR SCT006 BKN030 03/03 Q1024;EQDQ01+000052SCOTCVQ02  00002PRCP06Q03    003PRSWM1
0252072800999992000010723004+47270+005080SY-MT+0227LFSD V0203401N002112200019N0040001N1+00081+00051102571ADDAA106000091AY111999AY211999GF100991001001999999001001MA1102401099721MD1810051+9999MW1101REMSYN066AAXX  07234 07280 31940 03404 10008 20005 39972 40257 58005 71011;MET045LFSD 072300Z 34003KT 4000 BR SKC 01/01 Q1024;EQDQ01  00002PRCP06Q02    003PRSWM1
0310072800999992000010800004+47270+005080SY-MT+0227LFSD V0201501N002110012019N0002001N1-00011-00011102591ADDAA106000091AY141061AY211061GA1071+001209999GF107991071061001501001001MA1102401099731MD1510051+9999MW1441MW2461REMSYN082AAXX  08004 07280 31202 71504 11001 21001 39973 40259 55005 74641 87600 333 86704;MET065LFSD 080000Z 15003KT 0200 R36/0650V0800N FG BKN004 M00/M00 Q1024;EQDQ01  00002PRCP06Q02    003PRSWM1
0308072800999992000010801004+47270+005080SY-MT+0227LFSD V0203101N001010006019N0003001N1+00091+00091102551ADDAA106000091AY141999AY241999GA1081+000609999GF108991081061000751999999MA1102401099711MD1710031+9999MW1421MW2441REMSYN082AAXX  08014 07280 31103 83102 10009 20009 39971 40255 57003 74244 886// 333 88702;MET063LFSD 080100Z 31003KT 0300 R36/0700V1300U FG OVC002 01/01 Q1024;EQDQ01  00002PRCP06Q02    003PRSWM1
0297072800999992000010802004+47270+005080SY-MT+0227LFSD V0202401N001010001519N0001001N1+00131+00131102531ADDAA106000091AY141999AY241999ED199U02009GA1091+000159999GF109991091999000151999999MA1102401099691MD1810031+9999MW1451MW2471REMSYN066AAXX  08024 07280 31/01 92402 10013 20013 39969 40253 58003 74744;MET057LFSD 080200Z 24001KT 0100 R36/M0200 FG VV/// 01/01 Q1024;EQDQ01  00002PRCP06Q02    003PRSWM1
0291072800999992000010803004+47270+005080SY-MT+0227LFSD V0202701N001010001519N0001001N1+00081+00081102541ADDAA106000091AY141031AY241031ED199U02009GA1091+000159999GF109991091999000151999999MA1102401099691MD1610041+9999MW1451REMSYN066AAXX  08034 07280 31/01 92702 10008 20008 39969 40254 56004 74544;MET057LFSD 080300Z 27002KT 0100 R36/M0200 FG VV/// 01/01 Q1024;EQDQ01  00002PRCP06Q02    003PRSWM1
0308072800999992000010804004+47270+005080SY-MT+0227LFSD V0202301N001010003019N0001001N1+00011+00011102501ADDAA106000091AY141999AY241999ED199U02009GA1081+000309999GF108991081061000251999999MA1102301099651MD1810061+9999MW1441REMSYN082AAXX  08044 07280 31001 82302 10001 20001 39965 40250 58006 74444 886// 333 88701;MET058LFSD 080400Z 23002KT 0100 R36/M0200 FG OVC001 00/00 Q1023;EQDQ01  00002PRCP06Q02    003PRSWM1
0179072800999992000010804304+47270+005080FM-15+0227LFSD V0209999C000010003019N0001001N1+00001+00001999999ADDED199U02009GA1081+000309999GF108991999999999999999999MA1102301999999MW1441REMMET058LFSD 080530Z 00000KT 0100 R36/M0200 FG OVC001 00/00 Q1023;EQDQ01+000003PRSWM1Q02    003PRSWM1
0407072800999992000010806004+47270+005080SY-MT+0227LFSD V0202601N001010003019N0001001N1+00061+00061102501ADDAA106000091AA224999929AY141061AY241061ED199U02009GA1081+000309999GF108991081061000251999999GJ100009IA1099IA2999-00309KA1999M+00461KA2999N-00031MA1102301099651MD1610041+9999MW1421MW2441REMSYN112AAXX  08064 07280 31001 82602 10006 20006 39965 40250 56004 74244 886// 333 10046 21003 31103 55000 79999 88701;MET058LFSD 080600Z 26002KT 0150 R36/M0200 FG OVC001 01/01 Q1023;EQDQ01  00002PRCP06Q02    003PRSWM1
0308072800999992000010807004+47270+005080SY-MT+0227LFSD V0209999C000010003019N0001001N1+00071+00071102531ADDAA106000091AY141999AY241999ED199U05009GA1081+000309999GF108991081061000251999999MA1102301099681MD1310031+9999MW1441REMSYN082AAXX  08074 07280 31001 80000 10007 20007 39968 40253 53003 74444 886// 333 88701;MET058LFSD 080700Z 00000KT 0150 R36/0500N FG OVC001 01/01 Q1023;EQDQ01  00002PRCP06Q02    003PRSWM1
0303072800999992000010808004+47270+005080SY-MT+0227LFSD V0201901N001010003019N0004001N1+00131+00131102551ADDAA101000291AY151999AY241999GA1081+000309999GF108991081061000251999999MA1102401099711MD1310051+9999MW1441MW2501REMSYN088AAXX  08084 07280 21004 81902 10013 20013 39971 40255 53005 75054 886// 333 69925 88701;MET068LFSD 080800Z 19003KT 0400 R36/1300VP1500U -DZ FG OVC001 01/01 Q1024;EQDQ01    003PRSWM1
0308072800999992000010809004+47270+005080SY-MT+0227LFSD V0201701N002110003019N0003001N1+00211+00211102561ADDAA103000291AY151031AY241031ED199U11009GA1081+000309999GF108991081061000251999999MA1102401099731MD1110081+9999MW1501MW2511REMSYN088AAXX  08094 07280 21003 81704 10021 20021 39973 40256 51008 75054 886// 333 69927 88701;MET062LFSD 080900Z 17004KT 0300 R36/1100U -DZ FG OVC001 02/02 Q1024;EQDQ01    003PRSWM1
0188072800999992000010809304+47270+005080FM-15+0227LFSD V0202101N002110003019N0006001N1+00201+00201999999ADDGA1081+000309999GF108991999999999999999999MA1102401999999MW1441REMMET078LFSD 080930Z 21004KT 160V230 0600SE R36/1300VP1500U -DZ FG OVC001 02/02 Q1024;EQDQ01+000003PRSWM1Q02    003PRSWM1
0198072800999992000010809504+47270+005080FM-15+0227LFSD V0202001N002110003019N0013001N1+00201+00201999999ADDED199U15009GA1081+000309999GF108991999999999999999999MA1102401999999MW1101MW2511REMMET071LFSD 080950Z 20004KT 1300SE R36/P1500 -DZ BR OVC001 02/02 Q1024 RMK B2;EQDQ01+000003PRSWM1Q02    003PRSWM1
0287072800999992000010810004+47270+005080SY-MT+0227LFSD V0202301N002110006019N0030001N1+00221+00221102591ADDAA101999929AY151011AY251011GA1081+000609999GF108991081061000751999999MA1102401099761MD1210081+9999MW1501MW2511REMSYN088AAXX  08104 07280 21130 82304 10022 20022 39976 40259 52008 75055 886// 333 69905 88702;MET052LFSD 081000Z 23004KT 3000 -DZ BR OVC002 02/02 Q1024;EQDQ01    003PRSWM1
0283072800999992000010811004+47270+005080SY-MT+0227LFSD V0201901N003110006019N0030001N1+00271+00261102511ADDAA101999929AY151999AY221999GA1081+000609999GF108991081061000751999999MA1102401099691MD1810021+9999MW1101MW2201REMSYN088AAXX  08114 07280 21130 81906 10027 20026 39969 40251 58002 72052 886// 333 69905 88702;MET048LFSD 081100Z 19005KT 3000 BR OVC002 03/03 Q1024;EQDQ01    003PRSWM1
0283072800999992000010812004+47270+005080SY-MT+0227LFSD V0202001N003110009019N0040001N1+00341+00341102451ADDAA103999929AY151061AY241061GA1071+000909999GF107991071061000751999999MA1102301099631MD1810101+9999MW1101REMSYN094AAXX  08124 07280 /1140 72006 10034 20034 39963 40245 58010 69921 71054 876// 333 69907 87703;MET048LFSD 081200Z 20005KT 4000 BR BKN003 03/03 Q1023;EQDQ01    003PRSWM1
0146072800999992000010812304+47270+005080FM-15+0227LFSD V0201901N002110012019N0050001N1+00401+00401999999ADDGA1071+001209999GF107991999999999999999999MA1102301999999MW1001REMMET052LFSD 081230Z 19004KT 5000 BKN004 04/04 Q1023 RMK B2;EQDQ01+000000PRSWM2
0246072800999992000010813004+47270+005080SY-MT+0227LFSD V0202001N002110015019N0050001N1+00421+00411102411ADDAA106000021GA1071+001509999GF107991071061001501999999MA1102301099601MD1610161+9999MW1001REMSYN076AAXX  08134 07280 32250 72004 10042 20041 39960 40241 56016 876// 333 87705;MET045LFSD 081300Z 20003KT 5000 BKN005 04/04 Q1023;EQDQ01+000000PRSWM2
0284072800999992000010814004+47270+005080SY-MT+0227LFSD V0202001N002110015019N0050001N1+00471+00441102381ADDAA101999929AY151999AY221999GA1071+001509999GF108991071061001501999999MA1102201099581MD1610111+9999MW1501MW2511REMSYN088AAXX  08144 07280 21250 82004 10047 20044 39958 40238 56011 75052 876// 333 69905 87705;MET049LFSD 081400Z 20005KT 5000 -DZ BKN005 05/04 Q1022;EQDQ01    003PRSWM1
0175072800999992000010814304+47270+005080FM-15+0227LFSD V0202001N002110018019N0040001N1+00501+00401999999ADDGA1071+001809999GF107991999999999999999999MA1102201999999MW1101MW2511REMMET059LFSD 081430Z 20004KT 4000 -DZ BR BKN006 05/04 Q1022 RMK M2;EQDQ01+000003PRSWM1Q02    003PRSWM1
0316072800999992000010815004+47270+005080SY-MT+0227LFSD V0202001N002110018019N0035001N1+00451+00421102371ADDAA103000691AY151031AY221031GA1071+001809999GA2071+012009999GF108991071061001501999999MA1102201099571MD1610061+9999MW1501MW2511REMSYN094AAXX  08154 07280 21235 82004 10045 20042 39957 40237 56006 75052 876// 333 69967 87706 87640;MET059LFSD 081500Z 20003KT 3500 -DZ BR BKN006 BKN040 05/04 Q1022;EQDQ01    003PRSWM1
0221072800999992000010815304+47270+005080FM-15+0227LFSD V0202101N001510120019N0035001N1+00501+00401999999ADDGA1021+001509999GA2071+012009999GA3081+021009999GF108991999999999999999999MA1102201999999MW1101MW2511REMMET073LFSD 081530Z 21003KT 3500 -DZ BR SCT005 BKN040 OVC070 05/04 Q1022 RMK B3;EQDQ01+000003PRSWM1Q02    003PRSWM1
0341072800999992000010816004+47270+005080SY-MT+0227LFSD V0201901N002110120019N0035001N1+00451+00421102361ADDAA101999929AY151999AY221999GA1021+001509999GA2071+012009999GA3081+021009999GF108991051051001501071999MA1102201099561MD1610041+9999MW1101MW2201REMSYN100AAXX  08164 07280 21235 81904 10045 20042 39956 40236 56004 72052 8557/ 333 69905 83705 85640 88357;MET062LFSD 081600Z 19003KT 3500 BR SCT005 BKN040 OVC070 05/04 Q1022;EQDQ01    003PRSWM1
0329072800999992000010817004+47270+005080SY-MT+0227LFSD V0201801N002110105019N0030001N1+00451+00411102371ADDAA106000021AY121999AY221999GA1021+001509999GA2071+010509999GA3081+021009999GF108991061051001501071999MA1102201099571MD1510011+9999MW1101REMSYN094AAXX  08174 07280 31230 81804 10045 20041 39957 40237 55001 71022 8657/ 333 82705 86635 88357;MET062LFSD 081700Z 18005KT 3000 BR FEW005 BKN035 OVC070 05/04 Q1022;EQDQ01    003PRSWM1
0367072800999992000010818004+47270+005080SY-MT+0227LFSD V0201801N002110039019N0020001N1+00461+00431102361ADDAA103000291AY151061AY221061GA1071+003909999GA2081+010509999GF108991081051004501999999KA1999M+00471KA2999N+00041MA1102201099561MD1710011+9999MW1501MW2511REMSYN112AAXX  08184 07280 /1420 81804 10046 20043 39956 40236 57001 60012 75052 885// 333 10047 20004 69927 85713 88635;MET066LFSD 081800Z 18005KT 2000 -DZ BR BKN013 OVC035 05/04 Q1022 RMK M3;EQDQ01    003PRSWM1
0287072800999992000010819004+47270+005080SY-MT+0227LFSD V0202301N002110039019N0020001N1+00461+00431102351ADDAA101999929AY151999AY251999GA1081+003909999GF108991081061004501999999MA1102201099551MD1810011+9999MW1501MW2511REMSYN088AAXX  08194 07280 21420 82304 10046 20043 39955 40235 58001 75055 886// 333 69905 88713;MET052LFSD 081900Z 23003KT 2000 -DZ BR OVC013 05/04 Q1022;EQDQ01    003PRSWM1
0287072800999992000010820004+47270+005080SY-MT+0227LFSD V0201801N002110042019N0020001N1+00471+00441102361ADDAA101999929AY151999AY251999GA1081+004209999GF108991081061004501999999MA1102201099561MD1510011+9999MW1501MW2511REMSYN088AAXX  08204 07280 21420 81804 10047 20044 39956 40236 55001 75055 886// 333 69905 88714;MET052LFSD 082000Z 18003KT 2000 -DZ BR OVC014 05/04 Q1022;EQDQ01    003PRSWM1
0287072800999992000010821004+47270+005080SY-MT+0227LFSD V0201801N002110039019N0015001N1+00461+00431102331ADDAA103999929AY151031AY251031GA1081+003909999GF108991081061004501999999MA1102201099531MD1810031+9999MW1501MW2511REMSYN088AAXX  08214 07280 21415 81804 10046 20043 39953 40233 58003 75055 886// 333 69907 88713;MET052LFSD 082100Z 18005KT 1500 -DZ BR OVC013 05/04 Q1022;EQDQ01    003PRSWM1
0283072800999992000010822004+47270+005080SY-MT+0227LFSD V0201801N002110042019N0015001N1+00461+00431102331ADDAA101999929AY151999AY221999GA1081+004209999GF108991081061004501999999MA1102201099531MD1810021+9999MW1101MW2201REMSYN088AAXX  08224 07280 21415 81804 10046 20043 39953 40233 58002 72052 886// 333 69905 88714;MET048LFSD 082200Z 18004KT 1500 BR OVC014 05/04 Q1022;EQDQ01    003PRSWM1
0307072800999992000010823004+47270+005080SY-MT+0227LFSD V0201701N002110051019N0015001N1+00461+00431102291ADDAA106000021AY121999AY221999GA1021+003909999GA2081+005109999GF108991081051004501999999MA1102201099491MD1810071+9999MW1101REMSYN088AAXX  08234 07280 31415 81704 10046 20043 39949 40229 58007 71022 885// 333 83713 88617;MET062LFSD 082300Z 17003KT 1500 BR SCT013 OVC017 05/04 Q1022 RMK B3;EQDQ01    003PRSWM1
0290072800999992000010900004+47270+005080SY-MT+0227LFSD V0201801N002110045019N0015001N1+00471+00461102261ADDAA103999929AY151061AY221061GA1081+004509999GF108991081051004501999999MA1102101099461MD1810071+9999MW1101REMSYN094AAXX  09004 07280 /1415 81804 10047 20046 39946 40226 58007 69901 71052 885// 333 69907 88615;MET055LFSD 090000Z 18004KT 1500 BR OVC015 05/05 Q1021 RMK M2;EQDQ01    003PRSWM1
0316072800999992000010901004+47270+005080SY-MT+0227LFSD V0201701N001010045019N0015001N1+00471+00461102231ADDAA101999929AY151999AY221999GA1071+004509999GA2081+015009999GF108991081051004501999999MA1102101099431MD1610101+9999MW1501MW2511REMSYN094AAXX  09014 07280 21415 81702 10047 20046 39943 40223 56010 75052 885// 333 69905 87615 88650;MET059LFSD 090100Z 17002KT 1500 -DZ BR BKN015 OVC050 05/05 Q1021;EQDQ01    003PRSWM1
0316072800999992000010902004+47270+005080SY-MT+0227LFSD V0201901N002110045019N0015001N1+00471+00441102211ADDAA101999929AY151999AY251999GA1071+004509999GA2081+011409999GF108991081051004501999999MA1102101099411MD1610081+9999MW1501MW2511REMSYN094AAXX  09024 07280 21415 81904 10047 20044 39941 40221 56008 75055 885// 333 69905 87615 88638;MET059LFSD 090200Z 19004KT 1500 -DZ BR BKN015 OVC038 05/04 Q1021;EQDQ01    003PRSWM1
0287072800999992000010903004+47270+005080SY-MT+0227LFSD V0201801N002110060019N0015001N1+00481+00451102191ADDAA103999929AY151031AY221031GA1081+006009999GF108991081051008001999999MA1102101099401MD1610061+9999MW1501MW2511REMSYN088AAXX  09034 07280 21515 81804 10048 20045 39940 40219 56006 75052 885// 333 69907 88620;MET052LFSD 090300Z 18004KT 1500 -DZ BR OVC020 05/05 Q1021;EQDQ01    003PRSWM1
0287072800999992000010904004+47270+005080SY-MT+0227LFSD V0201901N002110048019N0015001N1+00481+00451102161ADDAA101999929AY151999AY251999GA1081+004809999GF108991081051004501999999MA1102001099371MD1810061+9999MW1501MW2511REMSYN088AAXX  09044 07280 21415 81904 10048 20045 39937 40216 58006 75055 885// 333 69905 88616;MET052LFSD 090400Z 19004KT 1500 -DZ BR OVC016 05/05 Q1020;EQDQ01    003PRSWM1
0308072800999992000010905004+47270+005080SY-MT+0227LFSD V0201801N002110006019N0010001N1+00481+00451102151ADDAA101999929AY151999AY251999ED199U15009GA1081+000609999GF108991081051000751999999MA1102001099361MD1710051+9999MW1501MW2511REMSYN088AAXX  09054 07280 21110 81804 10048 20045 39936 40215 57005 75055 885// 333 69905 88602;MET062LFSD 090500Z 18004KT 1000 R36/P1500 -DZ BR OVC002 05/05 Q1020;EQDQ01    003PRSWM1
0206072800999992000010905014+47270+005080FM-16+0227LFSD V0201801N002110006019N0010001N1+00501+00501999999ADDED199U15009GA1081+000609999GF108991999999999999999999MA1102001999999MW1511REMMET069LFSD 090501Z 18004KT 1000 R36/P1500 -DZ BR OVC002 05/05 Q1020 RMK M3;EQDQ01+000100PRSWM3Q02+000003PRSWM1Q03    003PRSWM1
0212072800999992000010906304+47270+005080FM-15+0227LFSD V0201901N001510009019N0008001N1+00501+00501999999ADDED199U15009GA1071+000909999GA2081+015009999GF108991999999999999999999MA1102001999999MW1441MW2611REMMET069LFSD 090730Z 19003KT 0800 R36/P1500 -RA FG BKN003 OVC050 05/05 Q1020;EQDQ01+000003PRSWM1Q02    003PRSWM1
0235072800999992000010907004+47270+005080FM-15+0227LFSD V0201901N001510015019N0009001N1+00501+00501999999ADDED199U15009GA1021+000609999GA2071+001509999GA3081+015009999GF108991999999999999999999MA1102001999999MW1441MW2611REMMET076LFSD 090700Z 19003KT 0900 R36/P1500 -RA FG FEW002 BKN005 OVC050 05/05 Q1020;EQDQ01+000003PRSWM1Q02    003PRSWM1
0219072800999992000010907554+47270+005080FM-15+0227LFSD V0201801N001510006019N0007001N1+00501+00501999999ADDED199U15009GA1071+000609999GA2081+015009999GF108991999999999999999999MA1102101999999MW1441MW2611REMMET076LFSD 090755Z 18003KT 0700 R36/P1500 -RA FG BKN002 OVC050 05/05 Q1021 RMK M2;EQDQ01+000003PRSWM1Q02    003PRSWM1
0337072800999992000010908004+47270+005080SY-MT+0227LFSD V0201801N002110006019N0006001N1+00501+00491102201ADDAA101000291AY161999AY261999ED199U15009GA1071+000609999GA2081+015009999GF108991081051000751999999MA1102101099411MD1310051+9999MW1601MW2611REMSYN094AAXX  09084 07280 21106 81804 10050 20049 39941 40220 53005 76066 885// 333 69925 87702 88650;MET069LFSD 090800Z 18003KT 0600 R36/P1500 -RA FG BKN002 OVC050 05/05 Q1021;EQDQ01    003PRSWM1
0331072800999992000010909004+47270+005080SY-MT+0227LFSD V0202201N002110006019N0007001N1+00501+00491102231ADDAA103002091AY161031AY251031ED199U15009GA1071+000609999GA2081+015009999GF108991081051000751999999MA1102101099441MD1310091+9999MW1611REMSYN094AAXX  09094 07280 21107 82204 10050 20049 39944 40223 53009 76165 885// 333 60027 86702 88650;MET069LFSD 090900Z 22004KT 0700 R36/P1500 -RA FG BKN002 OVC050 05/05 Q1021;EQDQ01    003PRSWM1
0201072800999992000010909304+47270+005080FM-15+0227LFSD V0202001N001510003019N0006001N1+00501+00501999999ADDGA1071+000309999GA2081+015009999GF108991999999999999999999MA1102101999999MW1441REMMET075LFSD 090930Z 20003KT 0600 R36/1300VP1500D -RA FG BKN001 OVC050 05/05 Q1021;EQDQ01+000003PRSWM1Q02    003PRSWM1
0332072800999992000010910004+47270+005080SY-MT+0227LFSD V0202201N001010003019N0006001N1+00521+00511102271ADDAA101001091AY161999AY261999GA1071+000309999GA2081+015009999GF108991081051000251999999MA1102101099481MD1110121+9999MW1441MW2611REMSYN094AAXX  09104 07280 21006 82202 10052 20051 39948 40227 51012 76166 885// 333 60015 85701 88650;MET075LFSD 091000Z 22003KT 0600 R36/1200VP1500N -RA FG BKN001 OVC050 05/05 Q1021;EQDQ01    003PRSWM1
0201072800999992000010910304+47270+005080FM-15+0227LFSD V0202301N001010003019N0006001N1+00501+00501999999ADDGA1071+000309999GA2081+015009999GF108991999999999999999999MA1102201999999MW1441REMMET075LFSD 091030Z 23002KT 0600 R36/1400VP1500D -RA FG BKN001 OVC050 05/05 Q1022;EQDQ01+000003PRSWM1Q02    003PRSWM1
0332072800999992000010911004+47270+005080SY-MT+0227LFSD V0202801N001010003019N0006001N1+00531+00521102301ADDAA101000691AY161999AY261999GA1071+000309999GA2081+015009999GF108991081051000251999999MA1102201099511MD1210101+9999MW1441MW2611REMSYN094AAXX  09114 07280 21006 82802 10053 20052 39951 40230 52010 76166 885// 333 69965 85701 88650;MET075LFSD 091100Z 28001KT 0600 R36/1400VP1500U -RA FG BKN001 OVC050 05/05 Q1022;EQDQ01    003PRSWM1
0224072800999992000010911304+47270+005080FM-15+0227LFSD V0209999C000010027019N0007001N1+00501+00501999999ADDGA1021+000309999GA2071+002709999GA3081+015009999GF108991999999999999999999MA1102201999999MW1441REMMET082LFSD 091130Z 00000KT 0700 R36/1400VP1500U -RA FG SCT001 BKN009 OVC050 05/05 Q1022;EQDQ01+000003PRSWM1Q02    003PRSWM1
0250072800999992000010911554+47270+005080FM-15+0227LFSD V0203501N002110150019N0009001N1+00601+00601999999ADDED199U15009GA1021+000309999GA2021+002109999GA3081+015009999GF108991999999999999999999MA1102201999999MW1441MW2611REMMET091LFSD 091155Z 35004KT 300V020 0900 R36/P1500 -RA FG FEW001 SCT007 OVC050 06/06 Q1022 RMK B2;EQDQ01+000003PRSWM1Q02    003PRSWM1
0382072800999992000010912004+47270+005080SY-MT+0227LFSD V0203501N00311015001CN0013001N1+00601+00591102281ADDAA103002091AY161061AY251061ED199U15009GA1021+000309999GA2021+002109999GA3081+015009999GF108991081081000251999999MA1102201099501MD1010061+9999MW1611REMSYN106AAXX  09124 07280 /1013 83506 10060 20059 39950 40228 50006 60041 76165 888// 333 60027 82701 84807 88650;MET092LFSD 091200Z 35007KT 300V010 1300SE 9999N R36/P1500 -RA BR FEW001 SCT007 OVC050 06/06 Q1022;EQDQ01    003PRSWM1
0212072800999992000010912104+47270+005080FM-16+0227LFSD V0203401N005110150019N0050001N1+00601+00601999999ADDGA1021+000309999GA2021+002109999GA3081+015009999GF108991999999999999999999MA1102201999999MW1611REMMET070LFSD 091210Z 34010KT 5000 -RA FEW001 SCT007 OVC050 06/06 Q1022 RMK B2;EQDQ01+000003PRSWM1Q02    003PRSWM1
0336072800999992000010913004+47270+005080SY-MT+0227LFSD V0203501N00621007801CN0120001N1+00511+00411102311ADDAA101000891AY161999AY261999GA1021+002109999GA2021+003909999GA3081+007809999GF108991081081002501999999MA1102201099521MD1110041+9999MW1611REMSYN100AAXX  09134 07280 21362 83512 10051 20041 39952 40231 51004 76166 888// 333 69985 81807 84613 88626;MET063LFSD 091300Z 35011KT 9999 -RA FEW007 SCT013 OVC026 05/04 Q1022;EQDQ01    003PRSWM1
0336072800999992000010914004+47270+005080SY-MT+0227LFSD V0203401N005110078019N0120001N1+00471+00351102361ADDAA101000491AY161999AY261999GA1021+003909999GA2071+007809999GA3081+015009999GF108991081081004501999999MA1102201099561MD1310051+9999MW1611REMSYN100AAXX  09144 07280 21462 83410 10047 20035 39956 40236 53005 76166 888// 333 69945 81813 86626 88650;MET063LFSD 091400Z 34010KT 9999 -RA FEW013 BKN026 OVC050 05/04 Q1022;EQDQ01    003PRSWM1
0307072800999992000010915004+47270+005080SY-MT+0227LFSD V0203501N005110075019N0120001N1+00451+00321102421ADDAA103001091AY161031AY261031GA1021+003909999GA2081+007509999GF108991081081004501999999MA1102301099621MD1310121+9999MW1611REMSYN094AAXX  09154 07280 21462 83510 10045 20032 39962 40242 53012 76166 888// 333 60017 81813 88625;MET056LFSD 091500Z 35010KT 9999 -RA FEW013 OVC025 05/03 Q1023;EQDQ01    003PRSWM1
0278072800999992000010916004+47270+005080SY-MT+0227LFSD V0203601N007210072019N0120001N1+00451+00271102521ADDAA101000291AY161999AY261999GA1081+007209999GF108991081051008001999999MA1102401099711MD1310191+9999MW1611REMSYN088AAXX  09164 07280 21562 83614 10045 20027 39971 40252 53019 76166 885// 333 69925 88624;MET049LFSD 091600Z 36013KT 9999 -RA OVC024 05/03 Q1024;EQDQ01    003PRSWM1
0278072800999992000010917004+47270+005080SY-MT+0227LFSD V0203501N005110090019N0120001N1+00451+00331102591ADDAA101000291AY161999AY261999GA1071+009009999GF107991071051008001999999MA1102511099781MD1310221+9999MW1611REMSYN088AAXX  09174 07280 21562 73510 10045 20033 39978 40259 53022 76166 875// 333 69925 87630;MET049LFSD 091700Z 35010KT 9999 -RA BKN030 05/03 Q1025;EQDQ01    003PRSWM1
0357072800999992000010918004+47270+005080SY-MT+0227LFSD V0203601N005110048019N0200001N1+00471+00291102661ADDAA103000691AY161061AY261061GA1071+004809999GA2081+015009999GF108991081051004501999999KA1999M+00601KA2999N+00441MA1102511099851MD1110231+9999MW1601MW2611REMSYN112AAXX  09184 07280 /1470 83610 10047 20029 39985 40266 51023 60062 76066 885// 333 10060 20044 69967 86616 88650;MET056LFSD 091800Z 36010KT 9999 -RA BKN016 OVC050 05/03 Q1025;EQDQ01    003PRSWM1
0319072800999992000010919004+47270+005080SY-MT+0227LFSD V0203601N004110150019N0200001N1+00461+00281102731ADDAA101999929AY161999AY221999GA1021+006009999GA2081+015009999GF108991081051008001999999MA1102611099921MD1210211+9999MW1211REMSYN094AAXX  09194 07280 21570 83608 10046 20028 39992 40273 52021 72162 885// 333 69905 83620 88650;MET052LFSD 091900Z 36007KT 9999 SCT020 OVC050 05/03 Q1026;EQDQ01+000000PRSWM2Q02    003PRSWM1
0275072800999992000010920004+47270+005080SY-MT+0227LFSD V0203601N006210090019N0150001N1+00471+00321102781ADDAA106000021GA1071+009009999GA2081+015009999GF108991081051008001999999MA1102611099971MD1110191+9999MW1001REMSYN082AAXX  09204 07280 32565 83612 10047 20032 39997 40278 51019 885// 333 85630 88650;MET052LFSD 092000Z 36011KT 9999 BKN030 OVC050 05/03 Q1026;EQDQ01+000000PRSWM2
0319072800999992000010921004+47270+005080SY-MT+0227LFSD V0203401N004110075019N0150001N1+00451+00321102851ADDAA103999929AY161031AY221031GA1071+007509999GA2081+015009999GF108991081051008001999999MA1102711100031MD1110181+9999MW1031REMSYN094AAXX  09214 07280 21565 83408 10045 20032 30003 40285 51018 70362 885// 333 69907 87625 88650;MET052LFSD 092100Z 34007KT 9999 BKN025 OVC050 05/03 Q1027;EQDQ01+000000PRSWM2Q02    003PRSWM1
0275072800999992000010922004+47270+005080SY-MT+0227LFSD V0203501N005110075019N0150001N1+00451+00281102901ADDAA106000021GA1071+007509999GA2081+015009999GF108991081051008001999999MA1102811100081MD1210161+9999MW1001REMSYN082AAXX  09224 07280 32565 83510 10045 20028 30008 40290 52016 885// 333 85625 88650;MET052LFSD 092200Z 34009KT 9999 BKN025 OVC050 05/03 Q1028;EQDQ01+000000PRSWM2
0246072800999992000010923004+47270+005080SY-MT+0227LFSD V0203501N004110048019N0120001N1+00451+00271102961ADDAA106000021GA1081+004809999GF108991081051004501999999MA1102811100141MD1210171+9999MW1001REMSYN076AAXX  09234 07280 32462 83508 10045 20027 30014 40296 52017 885// 333 88616;MET045LFSD 092300Z 35009KT 9999 OVC016 05/03 Q1028;EQDQ01+000000PRSWM2
0290072800999992000011000004+47270+005080SY-MT+0227LFSD V0203601N004110054019N0120001N1+00431+00251102981ADDAA106000791AY161061AY221061GA1081+005409999GF108991081051004501999999MA1102811100161MD1110131+9999MW1011REMSYN088AAXX  10004 07280 11462 83608 10043 20025 30016 40298 51013 69901 70162 885// 333 88618;MET045LFSD 100000Z 36008KT 9999 OVC018 04/03 Q1028;EQDQ01+000000PRSWM2Q02    003PRSWM1
0139072800999992000011001004+47270+005080FM-15+0227LFSD V0203601N005110048019N0112651N1+00401+00201999999ADDGA1081+004809999GF108991999999999999999999MA1102911999999MW1001REMMET045LFSD 100100Z 36010KT 9999 OVC016 04/02 Q1029;EQDQ01+000000PRSWM2
0291072800999992000011002004+47270+005080SY-MT+0227LFSD V0203401N004110090019N0120001N1+00411+00231103071ADDAA106000091GA1021+004809999GA2081+009009999GF108991081051004501999999MA1102911100241MD1310101+9999MW1001REMSYN082AAXX  10024 07280 32462 83408 10041 20023 30024 40307 53010 885// 333 83616 88630;MET052LFSD 100200Z 34008KT 9999 SCT016 OVC030 04/02 Q1029;EQDQ01+000000PRSWM2Q02  00002PRCP06
0291072800999992000011003004+47270+005080SY-MT+0227LFSD V0203501N005110090019N0120001N1+00401+00201103091ADDAA106000091GA1071+009009999GA2081+011409999GF108991081051008001999999MA1102911100261MD1110101+9999MW1001REMSYN082AAXX  10034 07280 32562 83510 10040 20020 30026 40309 51010 885// 333 85630 88638;MET052LFSD 100300Z 35010KT 9999 BKN030 OVC038 04/02 Q1029;EQDQ01+000000PRSWM2Q02  00002PRCP06
0291072800999992000011004004+47270+005080SY-MT+0227LFSD V0203501N005110054019N0120001N1+00391+00181103101ADDAA106000091GA1071+005409999GA2081+009009999GF108991081051004501999999MA1103011100271MD1110081+9999MW1001REMSYN082AAXX  10044 07280 32462 83510 10039 20018 30027 40310 51008 885// 333 85618 88630;MET052LFSD 100400Z 35010KT 9999 BKN018 OVC030 04/02 Q1030;EQDQ01+000000PRSWM2Q02  00002PRCP06
0291072800999992000011005004+47270+005080SY-MT+0227LFSD V0203601N006210048019N0120001N1+00381+00171103151ADDAA106000091GA1071+004809999GA2081+011409999GF108991081051004501999999MA1103011100321MD1310081+9999MW1001REMSYN082AAXX  10054 07280 32462 83612 10038 20017 30032 40315 53008 885// 333 85616 88638;MET052LFSD 100500Z 36012KT 9999 BKN016 OVC038 04/02 Q1030;EQDQ01+000000PRSWM2Q02  00002PRCP06
