0315074340999992000010100004+45870+001180SY-MT+0402LFBL V0209999C000010003019N0005001N1+00631+00621102651ADDAA103002091AY141061AY241061ED199U04509GA1081+000309999GF108991081061000251999999MA1102511097761MD1110101+9999MW1441REMSYN094AAXX  01004 07434 /1005 80000 10063 20062 39776 40265 51010 60031 74444 886// 333 60027 88701;MET069LFBL 010000Z 00000KT 0500 R22/0450N FG OVC001 06/06 Q1025 TEMPO 0800;EQDQ01    003PRSWM1
0101074340999992000010101004+45870+001180FM-12+0402LFBL V0209999C000019999999N0001001N1+00541+00531102671ADDMA1999999097761MD1110061+9999REMSYN060AAXX  01014 07434 46/01 /0000 10054 20053 39776 40267 51006;
0101074340999992000010102004+45870+001180FM-12+0402LFBL V0202301N001019999999N0001001N1+00541+00531102691ADDMA1999999097781MD1110051+9999REMSYN060AAXX  01024 07434 46/01 /2302 10054 20053 39778 40269 51005;
0302074340999992000010103004+45870+001180SY-MT+0402LFBL V0202601N00101000151CN0003001N1+00541+00531102701ADDAA103002091AY141031AY221031ED199U03509GA1091+000159999GF109991091999000151999999MA1102511097791MD1310031+9999MW1451MW2471REMSYN076AAXX  01034 07434 21/03 92602 10054 20053 39779 40270 53003 74742 333 60027;MET068LFBL 010300Z 27002KT 0300 R22/0350N FG VV/// 05/05 Q1025 TEMPO 0500;EQDQ01    003PRSWM1
0308074340999992000010104004+45870+001180SY-MT+0402LFBL V0202801N00101000151CN0003001N1+00541+00531102691ADDAA106000091AY141999AY241999ED199U04509GA1091+000159999GF109991091999000151999999MA1102511097781MD1010021+9999MW1451MW2471REMSYN066AAXX  01044 07434 31/03 92802 10054 20053 39778 40269 50002 74744;MET068LFBL 010400Z 28003KT 0300 R22/0450N FG VV/// 05/05 Q1025 TEMPO 0500;EQDQ01  00002PRCP06Q02    003PRSWM1
0302074340999992000010105004+45870+001180SY-MT+0402LFBL V0202601N00211000151CN0003001N1+00541+00531102711ADDAA106000091AY141999AY241999ED199U04009GA1091+000159999GF109991091999000151999999MA1102511097801MD1310021+9999MW1451REMSYN066AAXX  01054 07434 31/03 92604 10054 20053 39780 40271 53002 74544;MET068LFBL 010500Z 26003KT 0300 R22/0400N FG VV/// 05/05 Q1025 TEMPO 0500;EQDQ01  00002PRCP06Q02    003PRSWM1
0358074340999992000010106004+45870+001180SY-MT+0402LFBL V0202701N00101000151CN0002001N1+00611+00601102731ADDAA103002091AY141061AY221061ED199U03009GA1091+000159999GF109991091999000151999999IA1099KA1999M+00631KA2999N+00521MA1102611097831MD1310041+9999MW1451REMSYN106AAXX  01064 07434 /1/02 92702 10061 20060 39783 40273 53004 60032 74542 333 10063 20052 31/// 55/// 60027;MET068LFBL 010600Z 27001KT 0250 R22/0300N FG VV/// 06/06 Q1026 TEMPO 0500;EQDQ01    003PRSWM1
0303074340999992000010107004+45870+001180SY-MT+0402LFBL V0209999C000010001519N0001001N1+00541+00501102781ADDAA106000091AY141999AY241999ED199U02509GA1091+000159999GF109991091999000151999999MA1102611097871MD1310091+9999MW1451MW2471REMSYN066AAXX  01074 07434 31/01 90000 10054 20050 39787 40278 53009 74744;MET063LFBL 010700Z 00000KT 0150 R22/0250N FG VV/// 05/05 Q1026 NOSIG;EQDQ01  00002PRCP06Q02    003PRSWM1
0303074340999992000010108004+45870+001180SY-MT+0402LFBL V0209999C000010001519N0001001N1+00541+00501102851ADDAA106000091AY141999AY241999ED199U02009GA1091+000159999GF109991091999000151999999MA1102711097931MD1310131+9999MW1451MW2471REMSYN066AAXX  01084 07434 31/01 90000 10054 20050 39793 40285 53013 74744;MET063LFBL 010800Z 00000KT 0100 R22/0200N FG VV/// 05/05 Q1027 NOSIG;EQDQ01  00002PRCP06Q02    003PRSWM1
0297074340999992000010109004+45870+001180SY-MT+0402LFBL V0201801N001010001519N0001001N1+00591+00551102891ADDAA106000091AY141031AY241031ED199U02009GA1091+000159999GF109991091999000151999999MA1102711097981MD1310151+9999MW1451REMSYN066AAXX  01094 07434 31/01 91802 10059 20055 39798 40289 53015 74544;MET063LFBL 010900Z 18001KT 0100 R22/0200N FG VV/// 06/06 Q1027 NOSIG;EQDQ01  00002PRCP06Q02    003PRSWM1
0306074340999992000010110004+45870+001180SY-MT+0402LFBL V0201901N00101000151CN0002001N1+00641+00601102911ADDAA101000191AY151999AY241999ED199U03509GA1091+000159999GF109991091999000151999999MA1102811098011MD1110141+9999MW1501MW2511REMSYN076AAXX  01104 07434 21/02 91902 10064 20060 39801 40291 51014 75054 333 69925;MET072LFBL 011000Z 19002KT 0200 R22/0350U -DZ FG VV/// 06/06 Q1028 TEMPO 0600;EQDQ01    003PRSWM1
0310074340999992000010111004+45870+001180SY-MT+0402LFBL V0202401N00211000151CN0007001N1+00681+00641102891ADDAA101000791AY151999AY251999GA1091+000159999GF109991091999000151999999MA1102811098001MD1010071+9999MW1501MW2511REMSYN076AAXX  01114 07434 21/07 92404 10068 20064 39800 40289 50007 75055 333 69905;MET087LFBL 011100Z 24004KT 0700 R22/0800V1300U -DZ FG VV/// 07/06 Q1028 TEMPO 1500 BR BKN002;EQDQ01    003PRSWM1
0213074340999992000010111304+45870+001180FM-15+0402LFBL V0202601N002110006019N0006001N1+00701+00701999999ADDGA1021+000309999GA2071+000609999GF107991999999999999999999MA1102711999999MW1441REMMET103LFBL 011130Z 26004KT 220V300 0600 R22/1400VP1500D -DZ FG SCT001 BKN002 07/07 Q1027 TEMPO 0300 FG VV///;EQDQ01    003PRSWM1
0349074340999992000010112004+45870+001180SY-MT+0402LFBL V0202801N003110009019N0007001N1+00691+00651102871ADDAA103000291AY151061AY241061ED199U11009GA1021+000609999GA2071+000909999GF108991081071000751999999MA1102711097981MD1010001+9999MW1501MW2511REMSYN100AAXX  01124 07434 /1107 82806 10069 20065 39798 40287 50000 69921 75054 887// 333 69927 83702 86703;MET075LFBL 011200Z 28005KT 0700 R22/1100U -DZ FG SCT002 BKN003 07/07 Q1027 NOSIG;EQDQ01    003PRSWM1
0322074340999992000010113004+45870+001180SY-MT+0402LFBL V0202901N002110012019N0030001N1+00731+00691102841ADDAA101000491AY151999AY251999GA1021+000909999GA2071+001209999GF108991071071000751999999MA1102711097961MD1810051+9999MW1501MW2511REMSYN094AAXX  01134 07434 21130 82904 10073 20069 39796 40284 58005 75055 877// 333 69945 83703 85704;MET065LFBL 011300Z 29003KT 3000 -DZ BR SCT003 BKN004 07/07 Q1027 NOSIG;EQDQ01    003PRSWM1
0309074340999992000010114004+45870+001180SY-MT+0402LFBL V0202901N002110024019N0070001N1+00751+00711102841ADDAA101999929AY151999AY221999GA1021+001509999GA2071+002409999GF108991071071001501999999MA1102711097961MD1610041+9999MW1201REMSYN094AAXX  01144 07434 21257 82904 10075 20071 39796 40284 56004 72052 877// 333 69905 83705 85708;MET058LFBL 011400Z 29003KT 7000 SCT005 BKN008 08/07 Q1027 NOSIG;EQDQ01    003PRSWM1
0309074340999992000010115004+45870+001180SY-MT+0402LFBL V0202901N001010015019N0120001N1+00751+00711102851ADDAA103000491AY151031AY241031GA1071+001509999GA2021+003309999GF107991071061001501999999MA1102711097971MD1510011+9999MW1011REMSYN094AAXX  01154 07434 21262 72902 10075 20071 39797 40285 55001 70154 876// 333 69947 85705 83611;MET058LFBL 011500Z 29003KT 9999 BKN005 SCT011 08/07 Q1027 NOSIG;EQDQ01    003PRSWM1
0277074340999992000010116004+45870+001180SY-MT+0402LFBL V0202901N001010024019N0070001N1+00731+00691102861ADDAA106000021GA1021+001209999GA2071+002409999GF107991071051001501999999MA1102711097981MD1310021+9999MW1001REMSYN082AAXX  01164 07434 32257 72902 10073 20069 39798 40286 53002 875// 333 81704 85608;MET073LFBL 011600Z 29001KT 7000 FEW004 BKN008 07/07 Q1027 BECMG 3000 BR BKN005;
0284074340999992000010117004+45870+001180SY-MT+0402LFBL V0203001N001010108019N0050001N1+00701+00661102891ADDAA106000021GA1021+001509999GA2071+010809999GF107991071051001501999999MA1102811098001MD1310041+9999MW1001REMSYN082AAXX  01174 07434 32250 73002 10070 20066 39800 40289 53004 875// 333 81705 87636;MET080LFBL 011700Z 30001KT 5000 FEW005 BKN036 07/07 Q1028 TEMPO 3000 BR BKN005 BKN035;
0335074340999992000010118004+45870+001180SY-MT+0402LFBL V0209999C000010009019N0030001N1+00711+00671102921ADDAY151061AY241061GA1071+000909999GA2071+012009999GF108991081051000751999999KA1999M+00761KA2999N+00541MA1102811098031MD1310061+9999MW1101REMSYN100AAXX  01184 07434 41130 80000 10071 20067 39803 40292 53006 71054 885// 333 10076 20054 85703 85640;MET063LFBL 011800Z 00000KT 3000NE BR BKN003 BKN040 07/07 Q1028 NOSIG;EQDQ01    003PRSWM1
0313074340999992000010119004+45870+001180SY-MT+0402LFBL V0202901N001010120019N0030001N1+00681+00641102971ADDAA106000021AY121999AY221999GA1021+001509999GA2071+012009999GF108991081051001501999999MA1102811098071MD1310091+9999MW1101REMSYN088AAXX  01194 07434 31230 82902 10068 20064 39807 40297 53009 71022 885// 333 82705 87640;MET068LFBL 011900Z 30002KT 3000 BR FEW005 BKN040 07/06 Q1028 TEMPO BKN003;EQDQ01    003PRSWM1
0313074340999992000010120004+45870+001180SY-MT+0402LFBL V0202801N001010120019N0020001N1+00691+00651102971ADDAA106000021AY121999AY221999GA1021+001209999GA2071+012009999GF108991081051001501999999MA1102811098071MD1110071+9999MW1101REMSYN088AAXX  01204 07434 31220 82802 10069 20065 39807 40297 51007 71022 885// 333 84704 87640;MET068LFBL 012000Z 28001KT 2000 BR SCT004 BKN040 07/07 Q1028 TEMPO BKN003;EQDQ01    003PRSWM1
0303074340999992000010121004+45870+001180SY-MT+0402LFBL V0202701N00101000151CN0004001N1+00691+00651102981ADDAA106000091AY141031AY221031ED199U05009GA1091+000159999GF109991091999000151999999MA1102811098081MD1110051+9999MW1451MW2471REMSYN066AAXX  01214 07434 31/04 92702 10069 20065 39808 40298 51005 74742;MET063LFBL 012100Z 27002KT 0400 R22/0500N FG VV/// 07/07 Q1028 NOSIG;EQDQ01  00002PRCP06Q02    003PRSWM1
0292074340999992000010122004+45870+001180SY-MT+0402LFBL V0203301N00101000151CN0005001N1+00661+00621102991ADDAA106000091AY141999AY241999GA1091+000159999GF109991091999000151999999MA1102811098091MD1310021+9999MW1451REMSYN066AAXX  01224 07434 31/05 93302 10066 20062 39809 40299 53002 74544;MET069LFBL 012200Z 33001KT 0500 R22/1000VP1500D FG VV/// 07/06 Q1028 NOSIG;EQDQ01  00002PRCP06Q02    003PRSWM1
0297074340999992000010123004+45870+001180SY-MT+0402LFBL V0201201N00101000151CN0005001N1+00641+00601103021ADDAA106000091AY141999AY241999ED199U05509GA1091+000159999GF109991091999000151999999MA1102911098111MD1310041+9999MW1451REMSYN066AAXX  01234 07434 31/05 91202 10064 20060 39811 40302 53004 74544;MET063LFBL 012300Z 12001KT 0500 R22/0550N FG VV/// 06/06 Q1029 NOSIG;EQDQ01  00002PRCP06Q02    003PRSWM1
0297074340999992000010200004+45870+001180SY-MT+0402LFBL V0209999C00001000151CN0005001N1+00641+00601103011ADDAA106000091AY141061AY221061ED199U07009GA1091+000159999GF109991091999000151999999MA1102911098101MD1010021+9999MW1451REMSYN066AAXX  02004 07434 31/05 90000 10064 20060 39810 40301 50002 74542;MET063LFBL 020000Z 00000KT 0500 R22/0700N FG VV/// 06/06 Q1029 NOSIG;EQDQ01  00002PRCP06Q02    003PRSWM1
0131074340999992000010201004+45870+001180FM-12+0402LFBL V0200501N001019999999N0001001N1+00631+00591102981ADDAA106000091MA1999999098071MD1810021+9999REMSYN060AAXX  02014 07434 36/01 /0502 10063 20059 39807 40298 58002;EQDQ01  00002PRCP06
0131074340999992000010202004+45870+001180FM-12+0402LFBL V0209999C000019999999N0003001N1+99999+99999999999ADDAA106000091MA1999999098081MD1510031+9999REMSYN060AAXX  02024 07434 36/03 /0000 1//// 2//// 39808 4//// 55003;EQDQ01  00002PRCP06
0297074340999992000010203004+45870+001180SY-MT+0402LFBL V0200901N00101000151CN0005001N1+00581+00541102991ADDAA106000091AY141031AY221031ED199U06009GA1091+000159999GF109991091999000151999999MA1102811098071MD1610031+9999MW1451REMSYN066AAXX  02034 07434 31/05 90902 10058 20054 39807 40299 56003 74542;MET063LFBL 020300Z 09002KT 0500 R22/0600N FG VV/// 06/05 Q1028 NOSIG;EQDQ01  00002PRCP06Q02    003PRSWM1
0281074340999992000010204004+45870+001180SY-MT+0402LFBL V0200501N00101000151CN0005001N1+99999+99999999999ADDAA106000091AY141999AY241999ED199U06009GA1091+000159999GF109991091999000151999999MA1102811098081MD1210011+9999MW1001MW2451REMSYN066AAXX  02044 07434 31/05 90502 1//// 2//// 39808 4//// 52001 74544;MET057LFBL 020400Z 05002KT 0500 R22/0600U FG VV/// Q1028 NOSIG;EQDQ01  00002PRCP06
0328074340999992000010205004+45870+001180SY-MT+0402LFBL V0200101N001010099019N0015001N1+00541+00501103021ADDAA106000091AY141999AY221999GA1021+000609999GA2071+009909999GF107991071051000751999999MA1102811098091MD1310011+9999MW1101MW2281REMSYN088AAXX  02054 07434 31115 70102 10054 20050 39809 40302 53001 72842 875// 333 84702 87633;MET061LFBL 020500Z 01001KT 1500 BR SCT002 BKN033 05/05 Q1028 NOSIG;EQDQ01  00002PRCP06Q02    003PRSWM1
0419074340999992000010206004+45870+001180SY-MT+0402LFBL V0200401N001010099019N0015001N1+00591+00551103011ADDAA106000091AY141061AY221061GA1021+000609999GA2071+009909999GF107991071051000751999999IA1119IA2999+00509KA1999M+00711KA2999N+00531MA1102811098091MD1110021+9999MW1101REMSYN112AAXX  02064 07434 31115 70402 10059 20055 39809 40301 51002 71042 875// 333 10071 20053 32005 55/// 84702 87633;MET090LFBL 020600Z 04002KT 1500 R22/0900VP1500 BR SCT002 BKN033 06/06 Q1028 TEMPO 0500 FG VV///;EQDQ01  00002PRCP06Q02    003PRSWM1
0348074340999992000010207004+45870+001180SY-MT+0402LFBL V0200201N001010099019N0007001N1+00531+00491103041ADDAA106000091AY141999AY221999GA1021+000309999GA2071+009909999GF107991071051000251999999MA1102911098111MD1310031+9999MW1421MW2441REMSYN088AAXX  02074 07434 31007 70202 10053 20049 39811 40304 53003 74242 875// 333 83701 87633;MET081LFBL 020700Z 02003KT 0700 R22/0800V1200D FG SCT001 BKN033 05/05 Q1029 TEMPO 0500;EQDQ01  00002PRCP06Q02    003PRSWM1
0351074340999992000010208004+45870+001180SY-MT+0402LFBL V0200501N001010105019N0012001N1+00561+00521103051ADDAA106000091AY141999AY221999ED199U15009GA1021+000909999GA2071+010509999GF107991071051001501999999MA1102911098131MD1310041+9999MW1121MW2281REMSYN088AAXX  02084 07434 31212 70502 10056 20052 39813 40305 53004 72842 875// 333 82703 87635;MET073LFBL 020800Z 05003KT 1200 R22/P1500 MIFG FEW003 BKN035 06/05 Q1029 NOSIG;EQDQ01  00002PRCP06Q02    003PRSWM1
0294074340999992000010209004+45870+001180SY-MT+0402LFBL V0209999C000010099019N0015001N1+00641+00601103051ADDAA106000091GA1021+000909999GA2071+009909999GF107991999999999999999999MA1102911098141MD1110051+9999MW1101REMSYN060AAXX  02094 07434 36/// /0000 10064 20060 39814 40305 51005;MET061LFBL 020900Z 00000KT 1500 BR FEW003 BKN033 06/06 Q1029 NOSIG;EQDQ01+000003PRSWM1Q02  00002PRCP06Q03    003PRSWM1
0315074340999992000010210004+45870+001180SY-MT+0402LFBL V0201001N002112200019N0010001N1+00701+00661103081ADDAA106000091ED199U15009GA1021+000609999GA2021+009909999GF104991999999999999999999MA1102911098181MD1310071+9999MW1101REMSYN060AAXX  02104 07434 36/// /1004 10070 20066 39818 40308 53007;MET071LFBL 021000Z 11003KT 1000 R22/P1500 BR SCT002 SCT033 07/06 Q1029 NOSIG;EQDQ01+000003PRSWM1Q02  00002PRCP06Q03    003PRSWM1
0208074340999992000010210304+45870+001180FM-15+0402LFBL V0200901N001510069019N0010001N1+00701+00701999999ADDED199U15009GA1021+000909999GA2071+006909999GF107991999999999999999999MA1102911999999MW1101REMMET071LFBL 021130Z 09003KT 1000 R22/P1500 BR SCT003 BKN023 07/07 Q1029 NOSIG;EQDQ01+000003PRSWM1Q02    003PRSWM1
0294074340999992000010211004+45870+001180SY-MT+0402LFBL V0201001N001012200019N0006001N1+99999+99999999999ADDAA106000091GA1021+000909999GA2021+075009999GF104991999999999999999999MA1102911098161MD1010031+9999MW1001MW2441REMSYN060AAXX  02114 07434 36/// /1002 1//// 2//// 39816 4//// 50003;MET071LFBL 021100Z 10003KT 0600 R22/0700VP1500U FG SCT003 SCT250 Q1029 NOSIG;EQDQ01+000003PRSWM1Q02  00002PRCP06
0330074340999992000010212004+45870+001180SY-MT+0402LFBL V0200301N001010039019N0015001N1+00751+00751103011ADDAY141061AY221061GA1021+001809999GA2071+003909999GA3071+006909999GF107991071081002501999999MA1102911098121MD1810021+9999MW1101MW2281REMSYN094AAXX  02124 07434 41315 70302 10075 20075 39812 40301 58002 72842 878// 333 84806 85813 86623;MET068LFBL 021200Z 03002KT 1500 BR SCT006 BKN013 BKN023 08/08 Q1029 NOSIG;EQDQ01    003PRSWM1
0322074340999992000010213004+45870+001180SY-MT+0402LFBL V0203101N002110018019N0008001N1+00691+00691102981ADDAY141999AY221999ED199U15009GA1071+001809999GA2071+006009999GF107991071051002501999999MA1102811098081MD1810101+9999MW1441MW2461REMSYN088AAXX  02134 07434 41308 73104 10069 20069 39808 40298 58010 74642 875// 333 85706 85620;MET071LFBL 021300Z 31004KT 0800 R22/P1500 FG BKN006 BKN020 07/07 Q1028 NOSIG;EQDQ01    003PRSWM1
0267074340999992000010214004+45870+001180SY-MT+0402LFBL V0203501N003110024019N0025001N1+00741+00741102951ADDGA1071+002409999GA2071+006009999GF107991999999999999999999MA1102811098061MD1610101+9999MW1101REMSYN060AAXX  02144 07434 46/// /3506 10074 20074 39806 40295 56010;MET061LFBL 021400Z 35005KT 2500 BR BKN008 BKN020 08/08 Q1028 NOSIG;EQDQ01+000003PRSWM1Q02    003PRSWM1
0295074340999992000010215004+45870+001180SY-MT+0402LFBL V0203601N002110060019N0030001N1+00751+00641102921ADDAY141031AY221031GA1021+003009999GA2071+006009999GF107991071081004501999999MA1102811098041MD1610081+9999MW1101REMSYN088AAXX  02154 07434 41430 73604 10075 20064 39804 40292 56008 71042 878// 333 84810 87620;MET061LFBL 021500Z 36004KT 3000 BR SCT010 BKN020 08/06 Q1028 NOSIG;EQDQ01    003PRSWM1
0295074340999992000010216004+45870+001180SY-MT+0402LFBL V0203601N002110063019N0030001N1+00741+00621102931ADDAY121999AY221999GA1021+003009999GA2071+006309999GF107991071081004501999999MA1102811098041MD1610041+9999MW1101REMSYN088AAXX  02164 07434 41430 73604 10074 20062 39804 40293 56004 71022 878// 333 83810 87621;MET061LFBL 021600Z 36004KT 3000 BR SCT010 BKN021 07/06 Q1028 NOSIG;EQDQ01    003PRSWM1
0275074340999992000010217004+45870+001180SY-MT+0402LFBL V0200301N002110048019N0070001N1+00731+00611102931ADDAA106000091GA1021+003309999GA2071+004809999GF107991999999999999999999MA1102811098041MD1610021+9999MW1001REMSYN060AAXX  02174 07434 36/// /0304 10073 20061 39804 40293 56002;MET058LFBL 021700Z 03003KT 7000 FEW011 BKN016 07/06 Q1028 NOSIG;EQDQ01+000000PRSWM2Q02  00002PRCP06
0308074340999992000010218004+45870+001180SY-MT+0402LFBL V0200201N001010069019N0080001N1+00701+00601999999ADDAY141061AY221061GA1021+003909999GA2071+006909999GF107991071081004501999999MA1102811098041MD1410001+9999MW1011REMSYN088AAXX  02184 07434 41458 70202 1//// 2//// 39804 4//// 54000 70142 878// 333 82813 87623;MET058LFBL 021800Z 02003KT 8000 FEW013 BKN023 07/06 Q1028 NOSIG;EQDQ01+000000PRSWM2Q02    003PRSWM1
0248074340999992000010219004+45870+001180SY-MT+0402LFBL V0203601N002110069019N0112651N1+00701+00601999999ADDGA1021+003909999GA2071+006909999GF107991999999999999999999MA1102811098061MD1310021+9999MW1001REMSYN060AAXX  02194 07434 46/// /3604 1//// 2//// 39806 4//// 53002;MET058LFBL 021900Z 36004KT 9999 FEW013 BKN023 07/06 Q1028 NOSIG;EQDQ01+000000PRSWM2
0270074340999992000010220004+45870+001180SY-MT+0402LFBL V0200201N002110063019N0120001N1+00681+00611102971ADDGA1021+004809999GA2071+006309999GF108991071051004501999999MA1102811098071MD1310031+9999MW1001REMSYN082AAXX  02204 07434 42462 80204 10068 20061 39807 40297 53003 875// 333 82616 86621;MET058LFBL 022000Z 02003KT 9999 FEW016 BKN021 07/06 Q1028 NOSIG;EQDQ01+000000PRSWM2
0268074340999992000010221004+45870+001180SY-MT+0402LFBL V0200701N002110060019N0120001N1+00681+00541102981ADDAA106000091GA1081+006009999GF108991081051008001999999MA1102811098081MD1110041+9999MW1001REMSYN076AAXX  02214 07434 32562 80704 10068 20054 39808 40298 51004 885// 333 88620;MET051LFBL 022100Z 08005KT 9999 OVC020 07/05 Q1028 NOSIG;EQDQ01+000000PRSWM2Q02  00002PRCP06
0257074340999992000010222004+45870+001180SY-MT+0402LFBL V0200801N002110072019N0200001N1+00611+00411102991ADDGA1071+007209999GF199999061051008001001001MA1102811098081MD1110021+9999MW1001REMSYN076AAXX  02224 07434 42570 60804 10061 20041 39808 40299 51002 86500 333 86624;MET051LFBL 022200Z 08004KT 9999 BKN024 06/04 Q1028 NOSIG;EQDQ01+000062SCOTCVQ02+000000PRSWM2
0257074340999992000010223004+45870+001180SY-MT+0402LFBL V0200601N002112200019N0200001N1+00501+00381102991ADDGA1021+007809999GF199999011051008001001001MA1102811098061MD1810011+9999MW1001REMSYN076AAXX  02234 07434 42570 10604 10050 20038 39806 40299 58001 81500 333 81626;MET051LFBL 022300Z 06003KT 9999 FEW026 05/04 Q1028 NOSIG;EQDQ01+000012SCOTCVQ02+000000PRSWM2
0177074340999992000010300004+45870+001180SY-MT+0402LFBL V0200601N002119999999Y0099001N1+00501+00381102951ADDMA1102811098021MD1810061+9999MW1001REMSYN060AAXX  03004 07434 46/// /0604 10050 20038 39802 40295 58006;MET045LFBL 030000Z 06004KT CAVOK 05/04 Q1028 NOSIG;EQDQ01+000000PRSWM2
0101074340999992000010301004+45870+001180FM-12+0402LFBL V0200801N002119999999N9999999N1+00341+00221102971ADDMA1999999098011MD1610071+9999REMSYN060AAXX  03014 07434 46/// /0804 10034 20022 39801 40297 56007;
0131074340999992000010302004+45870+001180FM-12+0402LFBL V0200801N001019999999N9999999N1+00231+00131103011ADDAA106000091MA1999999098031MD1510031+9999REMSYN060AAXX  03024 07434 36/// /0802 10023 20013 39803 40301 55003;EQDQ01  00002PRCP06
0262074340999992000010303004+45870+001180SY-MT+0402LFBL V0201201N001010072019N0150001N1+00241+00141103011ADDAA106000091GA1071+007209999GF107991071051008001999999MA1102811098031MD1310011+9999MW1001REMSYN076AAXX  03034 07434 32565 71202 10024 20014 39803 40301 53001 875// 333 87624;MET045LFBL 030300Z 12001KT 9999 BKN024 02/01 Q1028;EQDQ01+000000PRSWM2Q02  00002PRCP06
0262074340999992000010304004+45870+001180SY-MT+0402LFBL V0200901N001010072019N0150001N1+00241+00121102991ADDAA106000091GA1081+007209999GF108991081051008001999999MA1102811098011MD1010001+9999MW1001REMSYN076AAXX  03044 07434 32565 80902 10024 20012 39801 40299 50000 885// 333 88624;MET045LFBL 030400Z 09003KT 9999 OVC024 02/01 Q1028;EQDQ01+000000PRSWM2Q02  00002PRCP06
0268074340999992000010305004+45870+001180SY-MT+0402LFBL V0200701N001010078019N0180001N1+00251+00121102971ADDAA106000091GA1071+007809999GF108991071051008001999999MA1102711097991MD1810041+9999MW1001REMSYN076AAXX  03054 07434 32568 80702 10025 20012 39799 40297 58004 875// 333 87626;MET051LFBL 030500Z 07002KT 9999 BKN026 03/01 Q1027 NOSIG;EQDQ01+000000PRSWM2Q02  00002PRCP06
0322074340999992000010306004+45870+001180SY-MT+0402LFBL V0200701N001010084019N0180001N1+00261+00111102991ADDAA106000091AA224000091GA1071+008409999GF108991071051008001999999IA1099KA1999N+00211MA1102811098011MD1510021+9999MW1001REMSYN100AAXX  03064 07434 32568 80702 10026 20011 39801 40299 55002 875// 333 20021 31/// 55/// 70000 87628;MET051LFBL 030600Z 07002KT 9999 BKN028 03/01 Q1028 NOSIG;EQDQ01+000000PRSWM2Q02  00002PRCP06
0268074340999992000010307004+45870+001180SY-MT+0402LFBL V0209999C000010084019N0180001N1+00301+00141103001ADDAA106000091GA1071+008409999GF108991071051008001999999MA1102811098031MD1310021+9999MW1001REMSYN076AAXX  03074 07434 32568 80000 10030 20014 39803 40300 53002 875// 333 87628;MET051LFBL 030700Z 00000KT 9999 BKN028 03/01 Q1028 NOSIG;EQDQ01+000000PRSWM2Q02  00002PRCP06
0268074340999992000010308004+45870+001180SY-MT+0402LFBL V0201601N002110078019N0030001N1+00331+00151103021ADDAA106000091GA1071+007809999GF108991071051008001999999MA1102811098051MD1210061+9999MW1001REMSYN076AAXX  03084 07434 32530 81604 10033 20015 39805 40302 52006 875// 333 87626;MET051LFBL 030800Z 16003KT 3000 BKN026 03/02 Q1028 NOSIG;EQDQ01+000000PRSWM2Q02  00002PRCP06
0268074340999992000010309004+45870+001180SY-MT+0402LFBL V0201401N002110075019N0300001N1+00391+00211103051ADDAA106000091GA1071+007509999GF107991071051008001999999MA1102811098091MD1310081+9999MW1001REMSYN076AAXX  03094 07434 32580 71404 10039 20021 39809 40305 53008 875// 333 87625;MET051LFBL 030900Z 14003KT 9999 BKN025 04/02 Q1028 NOSIG;EQDQ01+000000PRSWM2Q02  00002PRCP06
0268074340999992000010310004+45870+001180SY-MT+0402LFBL V0201701N003110078019N0120001N1+00441+00261103071ADDAA106000091GA1071+007809999GF107991071051008001999999MA1102911098121MD1310091+9999MW1001REMSYN076AAXX  03104 07434 32562 71706 10044 20026 39812 40307 53009 875// 333 87626;MET051LFBL 031000Z 17005KT 9999 BKN026 05/03 Q1029 NOSIG;EQDQ01+000000PRSWM2Q02  00002PRCP06
0297074340999992000010311004+45870+001180SY-MT+0402LFBL V0201901N003110084019N0120001N1+00541+00371103011ADDAA106000091GA1021+002109999GA2071+008409999GF107991071081002501999999MA1102811098081MD1010031+9999MW1001REMSYN082AAXX  03114 07434 32362 71906 10054 20037 39808 40301 50003 878// 333 81807 87628;MET058LFBL 031100Z 19006KT 9999 FEW007 BKN028 05/04 Q1028 NOSIG;EQDQ01+000000PRSWM2Q02  00002PRCP06
0264074340999992000010312004+45870+001180SY-MT+0402LFBL V0201901N004110084019N0150001N1+99999+99999999999ADDGA1021+001809999GA2071+008409999GF107991071081001501999999MA1102811098031MD1810061+9999MW1001REMSYN082AAXX  03124 07434 42265 71908 1//// 2//// 39803 4//// 58006 878// 333 84806 87628;MET052LFBL 031200Z 19008KT 9999 SCT006 BKN028 Q1028 NOSIG;EQDQ01+000000PRSWM2
0187074340999992000010313004+45870+001180FM-12+0402LFBL V0202001N004110042019N0200001N1+00671+99999102861ADDGA1011+001809089GA2051+004209069GF107991071081002501999999MA1999999097951MD1810171+9999REMSYN088AAXX  03134 07434 42370 72008 10067 2//// 39795 40286 58017 878// 333 81806 85614 85628;
0276074340999992000010314004+45870+001180SY-MT+0402LFBL V0201801N004112200019N0200001N1+00801+00571102771ADDAA106000091GA1021+004509999GF103991031081004501001001MA1102611097881MD1810201+9999MW1001REMSYN076AAXX  03144 07434 32470 31808 10080 20057 39788 40277 58020 83800 333 82815;MET059LFBL 031400Z 18008KT 150V220 9999 FEW015 08/06 Q1026 NOSIG;EQDQ01+000000PRSWM2Q02  00002PRCP06
0268074340999992000010315004+45870+001180SY-MT+0402LFBL V0202001N004112200019N0200001N1+00791+00361102741ADDAA106000091GA1021+004809999GF103991031081004501001001MA1102611097871MD1610161+9999MW1001REMSYN076AAXX  03154 07434 32470 32008 10079 20036 39787 40274 56016 83800 333 82816;MET051LFBL 031500Z 20008KT 9999 FEW016 08/04 Q1026 NOSIG;EQDQ01+000000PRSWM2Q02  00002PRCP06
0297074340999992000010316004+45870+001180SY-MT+0402LFBL V0202001N004110072019N0200001N1+00701+00341102761ADDAA106000091GA1021+004809999GA2071+007209999GF107991071081004501999999MA1102611097871MD1610081+9999MW1001REMSYN082AAXX  03164 07434 32470 72008 10070 20034 39787 40276 56008 878// 333 81816 87624;MET058LFBL 031600Z 21008KT 9999 FEW016 BKN024 07/03 Q1026 NOSIG;EQDQ01+000000PRSWM2Q02  00002PRCP06
0268074340999992000010317004+45870+001180SY-MT+0402LFBL V0201901N003110060019N0200001N1+00671+00371102781ADDAA106000091GA1071+006009999GF107991071051008001999999MA1102611097891MD1310011+9999MW1001REMSYN076AAXX  03174 07434 32570 71906 10067 20037 39789 40278 53001 875// 333 87620;MET051LFBL 031700Z 19006KT 9999 BKN020 07/04 Q1026 NOSIG;EQDQ01+000000PRSWM2Q02  00002PRCP06
0268074340999992000010318004+45870+001180SY-MT+0402LFBL V0202001N003110060019N0200001N1+00661+00361102801ADDAA106000091GA1071+006009999GF107991071051008001999999MA1102611097901MD1310031+9999MW1001REMSYN076AAXX  03184 07434 32570 72006 10066 20036 39790 40280 53003 875// 333 87620;MET051LFBL 031800Z 20006KT 9999 BKN020 07/04 Q1026 NOSIG;EQDQ01+000000PRSWM2Q02  00002PRCP06
0268074340999992000010319004+45870+001180SY-MT+0402LFBL V0201901N002112200019N0150001N1+00511+00301102821ADDAA106000091GA1021+006009999GF104991041051008001001001MA1102611097901MD1110031+9999MW1001REMSYN076AAXX  03194 07434 32565 41904 10051 20030 39790 40282 51003 84500 333 84620;MET051LFBL 031900Z 19004KT 9999 SCT020 05/03 Q1026 NOSIG;EQDQ01+000000PRSWM2Q02  00002PRCP06
0268074340999992000010320004+45870+001180SY-MT+0402LFBL V0201801N002112200019N0150001N1+00501+00291102841ADDAA106000091GA1021+006009999GF104991041051008001001001MA1102711097911MD1210021+9999MW1001REMSYN076AAXX  03204 07434 32565 41804 10050 20029 39791 40284 52002 84500 333 84620;MET051LFBL 032000Z 18003KT 9999 SCT020 05/03 Q1027 NOSIG;EQDQ01+000000PRSWM2Q02  00002PRCP06
0268074340999992000010321004+45870+001180SY-MT+0402LFBL V0201601N002112200019N0150001N1+00411+00231102851ADDAA106000091GA1021+006009999GF103991031051008001001001MA1102711097911MD1210011+9999MW1001REMSYN076AAXX  03214 07434 32565 31604 10041 20023 39791 40285 52001 83500 333 83620;MET051LFBL 032100Z 16003KT 9999 SCT020 04/03 Q1027 NOSIG;EQDQ01+000000PRSWM2Q02  00002PRCP06
0268074340999992000010322004+45870+001180SY-MT+0402LFBL V0201601N003112200019N0150001N1+00321+00191102831ADDAA106000091GA1021+006009999GF103991031051008001001001MA1102611097871MD1810031+9999MW1001REMSYN076AAXX  03224 07434 32565 31606 10032 20019 39787 40283 58003 83500 333 83620;MET051LFBL 032200Z 16005KT 9999 SCT020 03/02 Q1026 NOSIG;EQDQ01+000000PRSWM2Q02  00002PRCP06
0268074340999992000010323004+45870+001180SY-MT+0402LFBL V0201601N003112200019N0100001N1+00291+00171102821ADDAA106000091GA1021+006009999GF102991021051008001001001MA1102611097861MD1810051+9999MW1001REMSYN076AAXX  03234 07434 32560 21606 10029 20017 39786 40282 58005 82500 333 82620;MET051LFBL 032300Z 16006KT 9999 FEW020 03/02 Q1026 NOSIG;EQDQ01+000000PRSWM2Q02  00002PRCP06
0284074340999992000010400004+45870+001180SY-MT+0402LFBL V0201701N001012200019N0100001N1+00271+00171102801ADDAA106000091GA1021+006009999GF199999011051008001001001MA1102611097831MD1610081+9999MW1001REMSYN076AAXX  04004 07434 32560 11702 10027 20017 39783 40280 56008 81500 333 81620;MET051LFBL 040000Z 17003KT 9999 FEW020 03/02 Q1026 NOSIG;EQDQ01+000012SCOTCVQ02+000000PRSWM2Q03  00002PRCP06
0131074340999992000010401004+45870+001180FM-12+0402LFBL V0201601N002119999999N9999999N1+00261+00171102751ADDAA106000091MA1999999097791MD1810081+9999REMSYN060AAXX  04014 07434 36/// /1604 10026 20017 39779 40275 58008;EQDQ01  00002PRCP06
0131074340999992000010402004+45870+001180FM-12+0402LFBL V0201601N003119999999N0014001N1+00261+00171102751ADDAA106000091MA1999999097791MD1610071+9999REMSYN060AAXX  04024 07434 36/14 /1606 10026 20017 39779 40275 56007;EQDQ01  00002PRCP06
0284074340999992000010403004+45870+001180SY-MT+0402LFBL V0201801N004112200019N0100001N1+00261+00161102741ADDAA106000091GA1021+006009999GF199999011051008001001001MA1102511097781MD1610051+9999MW1001REMSYN076AAXX  04034 07434 32560 11808 10026 20016 39778 40274 56005 81500 333 81620;MET051LFBL 040300Z 18007KT 9999 FEW020 03/02 Q1025 NOSIG;EQDQ01+000012SCOTCVQ02+000000PRSWM2Q03  00002PRCP06
0145074340999992000010404004+45870+001180FM-15+0402LFBL V0201601N002110120019N0112651N1+00301+00201999999ADDGA1071+012009999GF107991999999999999999999MA1102511999999MW1001REMMET051LFBL 040400Z 16004KT 9999 BKN040 03/02 Q1025 NOSIG;EQDQ01+000000PRSWM2
0278074340999992000010405004+45870+001180SY-MT+0402LFBL V0201501N003112200019N0150001N1+00251+00131102691ADDAA106000091GA1041+015009059GF104991041051017501999001MA1102511097731MD1810061+9999MW1001REMSYN076AAXX  04054 07434 32765 41506 10025 20013 39773 40269 58006 84500 333 84650;MET045LFBL 040500Z 15005KT CAVOK 03/01 Q1025 NOSIG;EQDQ01+000000PRSWM2Q02  00002PRCP06Q03    003SCOMCG
0330074340999992000010406004+45870+001180SY-MT+0402LFBL V0201701N004112200019N0150001N1+00241+00141102691ADDAA106000091AA224000091GF101991011051017501001001IA1019IA2999+00109KA1999M+00671KA2999N+00221MA1102511097721MD1610061+9999MW1001REMSYN105AAXX  04064 07434 32765 11708 10024 20014 39772 40269 56006 81500 333 10067 20022 30001 5/// 70000 81650;MET045LFBL 040600Z 17007KT CAVOK 02/01 Q1025 NOSIG;EQDQ01+000000PRSWM2Q02  00002PRCP06
0313074340999992000010407004+45870+001180SY-MT+0402LFBL V0201601N002110150019N0150001N1+00251+00151102701ADDAA106000091GA1021+002109999GA2071+015009999GF199999051051002501001001MA1102511097741MD1510011+9999MW1001REMSYN082AAXX  04074 07434 32365 51604 10025 20015 39774 40270 55001 85500 333 81707 85650;MET058LFBL 040700Z 16005KT 9999 FEW007 BKN050 03/02 Q1025 NOSIG;EQDQ01+000052SCOTCVQ02+000000PRSWM2Q03  00002PRCP06
0313074340999992000010408004+45870+001180SY-MT+0402LFBL V0202001N005110024019N0090001N1+00381+00261102701ADDAA106000091GA1071+002409999GA2071+015009999GF199999051051002501001001MA1102511097761MD1310031+9999MW1001REMSYN082AAXX  04084 07434 32359 52010 10038 20026 39776 40270 53003 85500 333 85708 85650;MET058LFBL 040800Z 20010KT 9000 BKN008 BKN050 04/03 Q1025 NOSIG;EQDQ01+000052SCOTCVQ02+000000PRSWM2Q03  00002PRCP06
0145074340999992000010409004+45870+001180FM-15+0402LFBL V0201901N004110015019N0070001N1+00401+00301999999ADDGA1071+001509999GF107991999999999999999999MA1102511999999MW1001REMMET051LFBL 040900Z 19008KT 7000 BKN005 04/03 Q1025 NOSIG;EQDQ01+000000PRSWM2
0311074340999992000010410004+45870+001180SY-MT+0402LFBL V0201901N004110012019N0050001N1+00471+00381102741ADDAA106000091GA1021+000909999GA2071+001209999GF107991061061001501001021MA1102611097811MD1310071+9999MW1001REMSYN082AAXX  04104 07434 32250 71908 10047 20038 39781 40274 53007 86602 333 81703 85704;MET072LFBL 041000Z 19008KT 5000 FEW003 BKN004 05/04 Q1026 BECMG SCT004 SCT050;EQDQ01+000000PRSWM2Q02  00002PRCP06
0304074340999992000010411004+45870+001180SY-MT+0402LFBL V0201901N004110018019N0060001N1+00551+00421102711ADDAA106000091GA1021+001209999GA2071+001809999GF107991071061001501999999MA1102511097801MD1010041+9999MW1001REMSYN082AAXX  04114 07434 32256 71908 10055 20042 39780 40271 50004 876// 333 82704 86706;MET065LFBL 041100Z 19008KT 6000 FEW004 BKN006 06/04 Q1025 BECMG BKN010;EQDQ01+000000PRSWM2Q02  00002PRCP06
0297074340999992000010412004+45870+001180SY-MT+0402LFBL V0201801N004110042019N0060001N1+00601+00461102641ADDAA106000091GA1021+001809999GA2071+004209999GF108991071051001501999999MA1102511097741MD1810031+9999MW1001REMSYN082AAXX  04124 07434 32256 81808 10060 20046 39774 40264 58003 875// 333 84706 87614;MET058LFBL 041200Z 18007KT 6000 SCT006 BKN014 06/05 Q1025 NOSIG;EQDQ01+000000PRSWM2Q02  00002PRCP06
0331074340999992000010413004+45870+001180SY-MT+0402LFBL V0201901N003110030019N0050001N1+00661+00521102561ADDAA101999929AY151999AY221999GA1021+002109999GA2081+003009999GF108991081071002501999999MA1102401097681MD1810131+9999MW1501MW2511REMSYN094AAXX  04134 07434 21350 81906 10066 20052 39768 40256 58013 75052 887// 333 69905 83707 88710;MET074LFBL 041300Z 19007KT 5000 -DZ SCT007 OVC010 07/05 Q1024 BECMG 3000 OVC005;EQDQ01    003PRSWM1
0334074340999992000010414004+45870+001180SY-MT+0402LFBL V0202001N004110027019N0040001N1+00691+00551102531ADDAA101999929AY151999AY251999GA1021+001809999GA2081+002709999GF108991081071002501999999MA1102401097651MD1610151+9999MW1501MW2511REMSYN094AAXX  04144 07434 21340 82008 10069 20055 39765 40253 56015 75055 887// 333 69905 82706 88709;MET077LFBL 041400Z 20007KT 4000 -DZ BR FEW006 OVC009 07/05 Q1024 BECMG 2500 OVC005;EQDQ01    003PRSWM1
0342074340999992000010415004+45870+001180SY-MT+0402LFBL V0202101N005110024019N0035001N1+00691+00571102541ADDAA103999929AY151031AY221031GA1021+001209999GA2081+002409999GF108991081071001501999999MA1102401097661MD1510081+9999MW1501MW2511REMSYN094AAXX  04154 07434 21235 82110 10069 20057 39766 40254 55008 75052 887// 333 69907 82704 88708;MET085LFBL 041500Z 21009KT 170V240 3500 -DZ BR FEW004 OVC008 07/06 Q1024 BECMG 2500 OVC005;EQDQ01    003PRSWM1
0325074340999992000010416004+45870+001180SY-MT+0402LFBL V0202101N005110018019N0025001N1+00671+00561102551ADDAA101999929AY151999AY221999GA1021+000909999GA2081+001809999GF108991081071000751999999MA1102401097671MD1510011+9999MW1101MW2201REMSYN094AAXX  04164 07434 21125 82110 10067 20056 39767 40255 55001 72052 887// 333 69905 82703 88706;MET068LFBL 041600Z 21010KT 2500 BR FEW003 OVC006 07/06 Q1024 BECMG OVC004;EQDQ01    003PRSWM1
0329074340999992000010417004+45870+001180SY-MT+0402LFBL V0202101N003110015019N0025001N1+00681+00571102581ADDAA101999929AY151999AY221999GA1021+000909999GA2081+001509999GF108991081071000751999999MA1102401097701MD1310051+9999MW1501MW2511REMSYN094AAXX  04174 07434 21125 82106 10068 20057 39770 40258 53005 75052 887// 333 69905 82703 88705;MET072LFBL 041700Z 21005KT 2500 -DZ BR FEW003 OVC005 07/06 Q1024 BECMG OVC004;EQDQ01    003PRSWM1
0366074340999992000010418004+45870+001180SY-MT+0402LFBL V0202001N003110015019N0025001N1+00641+00551102621ADDAA103999929AY151061AY221061GA1021+000909999GA2081+001509999GF108991081071000751999999KA1999M+00701KA2999N+00231MA1102511097731MD1310071+9999MW1501MW2511REMSYN112AAXX  04184 07434 /1125 82006 10064 20055 39773 40262 53007 69902 75052 887// 333 10070 20023 69907 82703 88705;MET065LFBL 041800Z 20006KT 2500 -DZ BR FEW003 OVC005 06/06 Q1025 NOSIG;EQDQ01    003PRSWM1
0289074340999992000010419004+45870+001180SY-MT+0402LFBL V0201901N003110009019N0015001N1+00621+00551102651ADDAA101000491AY161999AY251999GA1081+000909999GF108991081071000751999999MA1102511097761MD1210091+9999MW1101MW2581REMSYN088AAXX  04194 07434 21115 81906 10062 20055 39776 40265 52009 75865 887// 333 69945 88703;MET054LFBL 041900Z 19007KT 1500 BR OVC003 06/06 Q1025 NOSIG;EQDQ01    003PRSWM1
0322074340999992000010420004+45870+001180SY-MT+0402LFBL V0201801N002110003019N0006001N1+00621+00561102691ADDAA101000291AY161999AY251999ED199U15009GA1081+000309999GF108991081071000751999999MA1102511097791MD1210091+9999MW1501MW2511REMSYN088AAXX  04204 07434 21106 81804 10062 20056 39779 40269 52009 75065 887// 333 69925 88701;MET076LFBL 042000Z 18004KT 150V220 0600 R22/P1500 -DZ FG OVC001 06/06 Q1025 NOSIG;EQDQ01    003PRSWM1
0304074340999992000010421004+45870+001180SY-MT+0402LFBL V0201901N003110003019N0006001N1+00651+00591102691ADDAA103000691AY161031AY251031ED199U15009GA1081+000309999GF108991081071000751999999MA1102511097801MD1110071+9999MW1441REMSYN088AAXX  04214 07434 21106 81906 10065 20059 39780 40269 51007 74465 887// 333 69967 88701;MET064LFBL 042100Z 19006KT 0600 R22/P1500 FG OVC001 07/06 Q1025 NOSIG;EQDQ01    003PRSWM1
0304074340999992000010422004+45870+001180SY-MT+0402LFBL V0201901N004110003019N0008001N1+00671+00631102681ADDAA106000021AY141999AY241999ED199U15009GA1081+000309999GF108991081071000251999999MA1102511097791MD1010031+9999MW1421MW2441REMSYN082AAXX  04224 07434 31008 81908 10067 20063 39779 40268 50003 74244 887// 333 88701;MET064LFBL 042200Z 19007KT 0800 R22/P1500 FG OVC001 07/06 Q1025 NOSIG;EQDQ01    003PRSWM1
0314074340999992000010423004+45870+001180SY-MT+0402LFBL V0201901N003110006019N0012001N1+00661+00621102661ADDAA101999929AY151999AY241999ED199U15009GA1081+000609999GF108991081071000751999999MA1102511097771MD1810021+9999MW1501MW2511REMSYN088AAXX  04234 07434 21112 81906 10066 20062 39777 40266 58002 75054 887// 333 69905 88702;MET068LFBL 042300Z 19006KT 1200 R22/P1500 -DZ BR OVC002 07/06 Q1025 NOSIG;EQDQ01    003PRSWM1
0320074340999992000010500004+45870+001180SY-MT+0402LFBL V0201901N003110006019N0010001N1+00661+00621102681ADDAA103000491AY161061AY251061ED199U15009GA1081+000609999GF108991081071000751999999MA1102511097791MD1510011+9999MW1501MW2511REMSYN094AAXX  05004 07434 /1110 81906 10066 20062 39779 40268 55001 60011 75065 887// 333 69947 88702;MET068LFBL 050000Z 19006KT 1000 R22/P1500 -DZ BR OVC002 07/06 Q1025 NOSIG;EQDQ01    003PRSWM1
0122074340999992000010501004+45870+001180FM-12+0402LFBL V0202101N004119999999N0005001N1+00651+00611102651ADDAA101000191MA1999999097761MD1810031+9999REMSYN070AAXX  05014 07434 26/05 /2108 10065 20061 39776 40265 58003 333 69925;
0122074340999992000010502004+45870+001180FM-12+0402LFBL V0202001N003119999999N0002001N1+00661+00621102591ADDAA101000191MA1999999097711MD1810061+9999REMSYN070AAXX  05024 07434 26/02 /2006 10066 20062 39771 40259 58006 333 69925;
0295074340999992000010503004+45870+001180SY-MT+0402LFBL V0201801N00211000151CN0002001N1+00641+00601102581ADDAA103000591AY151031AY251031GA1091+000159999GF109991091999000151999999MA1102401097691MD1610101+9999MW1501MW2511REMSYN076AAXX  05034 07434 21/02 91804 10064 20060 39769 40258 56010 75055 333 69947;MET072LFBL 050300Z 18004KT 0200 R22/0750V1000U -DZ FG VV/// 06/06 Q1024 NOSIG;EQDQ01    003PRSWM1
0291074340999992000010504004+45870+001180SY-MT+0402LFBL V0201801N00211000151CN0002001N1+00631+00591102561ADDAA101000791AY151999AY241999ED199U06509GA1091+000159999GF109991091999000151999999MA1102401097671MD1610091+9999MW1451REMSYN076AAXX  05044 07434 21/02 91804 10063 20059 39767 40256 56009 74554 333 69905;MET063LFBL 050400Z 19004KT 0200 R22/0650N FG VV/// 06/06 Q1024 NOSIG;EQDQ01    003PRSWM1
0281074340999992000010505004+45870+001180SY-MT+0402LFBL V0201301N00101000151CN0002001N1+00631+00591102531ADDAA106000021AY141999AY241999ED199U04009GA1091+000159999GF109991091999000151999999MA1102401097641MD1810071+9999MW1451REMSYN066AAXX  05054 07434 31/02 91302 10063 20059 39764 40253 58007 74544;MET063LFBL 050500Z 14002KT 0200 R22/0400N FG VV/// 06/06 Q1024 NOSIG;EQDQ01    003PRSWM1
0379074340999992000010506004+45870+001180SY-MT+0402LFBL V0201401N00101000151CN0002001N1+00641+00601102511ADDAA103999929AY151061AY241061ED199U03009GA1091+000159999GF109991091999000151999999GJ100129IA1119IA2999+00609KA1999M+00671KA2999N+00611MA1102401097631MD1610061+9999MW1451REMSYN112AAXX  05064 07434 /1/02 91402 10064 20060 39763 40251 56006 60012 74554 333 10067 20061 32006 55002 69907 70014;MET063LFBL 050600Z 13002KT 0200 R22/0300N FG VV/// 06/06 Q1024 NOSIG;EQDQ01    003PRSWM1
0287074340999992000010507004+45870+001180SY-MT+0402LFBL V0201401N001010001519N0001001N1+00641+00601102491ADDAA106000021AY141999AY241999ED199U02509GA1091+000159999GF109991091999000151999999MA1102301097611MD1610061+9999MW1451MW2471REMSYN066AAXX  05074 07434 31/01 91402 10064 20060 39761 40249 56006 74744;MET063LFBL 050700Z 14002KT 0150 R22/0250N FG VV/// 06/06 Q1023 NOSIG;EQDQ01    003PRSWM1
0281074340999992000010508004+45870+001180SY-MT+0402LFBL V0201501N002110001519N0001001N1+00641+00601102471ADDAA106000021AY141999AY241999ED199U02509GA1091+000159999GF109991091999000151999999MA1102301097591MD1810051+9999MW1451REMSYN066AAXX  05084 07434 31/01 91504 10064 20060 39759 40247 58005 74544;MET063LFBL 050800Z 15003KT 0150 R22/0250N FG VV/// 06/06 Q1023 NOSIG;EQDQ01    003PRSWM1
0281074340999992000010509004+45870+001180SY-MT+0402LFBL V0201401N003110001519N0001001N1+00661+00621102501ADDAA106000021AY141031AY241031ED199U02509GA1091+000159999GF109991091999000151999999MA1102401097621MD1510011+9999MW1451REMSYN066AAXX  05094 07434 31/01 91406 10066 20062 39762 40250 55001 74544;MET063LFBL 050900Z 14005KT 0150 R22/0250N FG VV/// 07/06 Q1024 NOSIG;EQDQ01    003PRSWM1
0323074340999992000010510004+45870+001180SY-MT+0402LFBL V0201701N00211000151CN0002001N1+00671+00631102511ADDAA106000091AY141999AY241999ED199U02509GA1091+000159999GF109991091999000151999999MA1102401097631MD1310021+9999MW1431MW2451REMSYN066AAXX  05104 07434 31/02 91704 10067 20063 39763 40251 53002 74344;MET083LFBL 051000Z 17005KT 140V210 0250 R22/0250N FG VV/// 07/06 Q1024 BECMG 0700 OVC002;EQDQ01  00002PRCP06Q02    003PRSWM1
0197074340999992000010511004+45870+001180FM-15+0402LFBL V0201801N003110003019N0012001N1+00701+00701999999ADDED199U15009GA1081+000309999GF108991999999999999999999MA1102301999999MW1101REMMET076LFBL 051100Z 18006KT 1200 R22/P1500 BR OVC001 07/07 Q1023 BECMG 3000 OVC003;EQDQ01+000003PRSWM1Q02    003PRSWM1
0313074340999992000010512004+45870+001180SY-MT+0402LFBL V0201601N003110006019N0050001N1+00721+00681102361ADDAA106000091AY141061AY221061GA1081+000609999GF108991081061000751999999MA1102201097501MD1810121+9999MW1011REMSYN082AAXX  05124 07434 31150 81606 10072 20068 39750 40236 58012 70142 886// 333 88702;MET058LFBL 051200Z 16005KT 5000 OVC002 07/07 Q1022 BECMG BKN005;EQDQ01+000000PRSWM2Q02  00002PRCP06Q03    003PRSWM1
0275074340999992000010513004+45870+001180SY-MT+0402LFBL V0201801N004110012019N0080001N1+00721+00681102271ADDAA106000091GA1081+001209999GF108991081061001501999999MA1102101097411MD1810221+9999MW1001REMSYN076AAXX  05134 07434 32258 81808 10072 20068 39741 40227 58022 886// 333 88704;MET058LFBL 051300Z 18007KT 8000 OVC004 07/07 Q1021 BECMG BKN006;EQDQ01+000000PRSWM2Q02  00002PRCP06
0281074340999992000010514004+45870+001180SY-MT+0402LFBL V0202001N00311001501CN0090001N1+00751+00711102191ADDAA106000091GA1081+001509999GF108991081061001501999999MA1102101097341MD1610241+9999MW1001REMSYN082AAXX  05144 07434 32259 82006 10075 20071 39734 40219 56024 886// 333 83705 88706;MET058LFBL 051400Z 20006KT 9000 OVC005 08/07 Q1021 BECMG BKN010;EQDQ01+000000PRSWM2Q02  00002PRCP06
0304074340999992000010515004+45870+001180SY-MT+0402LFBL V0201901N002110015019N0080001N1+00731+00661102161ADDAA106000091GA1021+001209999GA2071+001509999GF108991081061001501999999MA1102001097311MD1610191+9999MW1001REMSYN082AAXX  05154 07434 32258 81904 10073 20066 39731 40216 56019 886// 333 83704 87705;MET065LFBL 051500Z 19004KT 8000 SCT004 BKN005 07/07 Q1020 BECMG BKN010;EQDQ01+000000PRSWM2Q02  00002PRCP06
0333074340999992000010516004+45870+001180SY-MT+0402LFBL V0202201N002110018019N0070001N1+00651+00561102111ADDAA106000091GA1021+001209999GA2071+001809999GA3071+075009999GF107991051061001501001011MA1102001097251MD1610161+9999MW1001REMSYN088AAXX  05164 07434 32257 72204 10065 20056 39725 40211 56016 85601 333 81704 85706 86075;MET072LFBL 051600Z 22004KT 7000 FEW004 BKN006 BKN250 07/06 Q1020 BECMG SCT010;EQDQ01+000000PRSWM2Q02  00002PRCP06
0372074340999992000010517004+45870+001180SY-MT+0402LFBL V0201001N002110750019N0005001N1+00611+00541102061ADDAA106000091AY141999AY221999ED199U07009GA1021+001809999GA2071+075009999GF199999011061001501031011MA1101901097191MD1810151+9999MW1411REMSYN088AAXX  05174 07434 31205 61004 10061 20054 39719 40206 58015 74142 81631 333 81706 85075;MET084LFBL 051700Z 10003KT 0500E R22/0700D BCFG FEW006 BKN250 06/05 Q1019 TEMPO 0400 PRFG;EQDQ01+000062SCOTCVQ02  00002PRCP06Q03    003PRSWM1
0205074340999992000010518004+45870+001180FM-15+0402LFBL V0201001N002110750019N0006001N1+00601+00601999999ADDGA1021+033009999GA2071+075009999GF107991999999999999999999MA1101901999999MW1411REMMET079LFBL 051800Z 10004KT 0600 R22/0700VP1500U PRFG FEW110 BKN250 06/06 Q1019 NOSIG;EQDQ01+000003PRSWM1Q02    003PRSWM1
0359074340999992000010519004+45870+001180SY-MT+0402LFBL V0200901N002110750019N0008001N1+00601+00541102001ADDAA106000091AY141999AY241999GA1021+033009999GA2071+075009999GF199999021001999999031011MA1101801097131MD1610121+9999MW1441MW2461REMSYN088AAXX  05194 07434 31908 60904 10060 20054 39713 40200 56012 74644 82031 333 82361 86075;MET076LFBL 051900Z 09004KT 0800 R22/0300V0800D FG FEW110 BKN250 06/05 Q1018 NOSIG;EQDQ01+000062SCOTCVQ02  00002PRCP06Q03    003PRSWM1
0349074340999992000010521004+45870+001180SY-MT+0402LFBL V0201001N002112200019N0009001N1+00541+00501102001ADDAA106000091AY141031AY241031ED199U15009GA1021+000909999GA2021+090009999GF103991031061001501001011MA1101801097121MD1510041+9999MW1441MW2461REMSYN088AAXX  05214 07434 31209 31004 10054 20050 39712 40200 55004 74644 83601 333 83703 83080;MET071LFBL 052100Z 10003KT 0900 R22/P1500 FG SCT003 SCT300 05/05 Q1018 NOSIG;EQDQ01  00002PRCP06Q02    003PRSWM1
0335074340999992000010522004+45870+001180SY-MT+0402LFBL V0201001N002112200019N0090001N1+00551+00461101971ADDAA106000091AY141999AY201999GA1021+000909999GA2021+090009999GF103991031061001501001011MA1101801097101MD1710031+9999MW1281REMSYN088AAXX  05224 07434 31259 31004 10055 20046 39710 40197 57003 72840 83601 333 83703 83080;MET058LFBL 052200Z 10004KT 9000 SCT003 SCT300 06/05 Q1018 NOSIG;EQDQ01+000000PRSWM2Q02  00002PRCP06Q03    003PRSWM1
0131074340999992000010601004+45870+001180FM-12+0402LFBL V0201201N001019999999N9999999N1+00481+00361101981ADDAA106000091MA1999999097091MD1710011+9999REMSYN060AAXX  06014 07434 36/// /1202 10048 20036 39709 40198 57001;EQDQ01  00002PRCP06
0131074340999992000010602004+45870+001180FM-12+0402LFBL V0201401N002119999999N9999999N1+00491+00361101981ADDAA106000091MA1999999097091MD1610011+9999REMSYN060AAXX  06024 07434 36/// /1404 10049 20036 39709 40198 56001;EQDQ01  00002PRCP06
0297074340999992000010603004+45870+001180SY-MT+0402LFBL V0201301N002112200019N0120001N1+00431+00301102001ADDAA106000091GA1021+000909999GA2021+021009999GF104991041051001501031011MA1101801097101MD1310011+9999MW1001REMSYN082AAXX  06034 07434 32262 41304 10043 20030 39710 40200 53001 84531 333 82703 83357;MET058LFBL 060300Z 13003KT 9999 FEW003 SCT076 04/03 Q1018 NOSIG;EQDQ01+000000PRSWM2Q02  00002PRCP06
0131074340999992000010604004+45870+001180FM-12+0402LFBL V0201401N002119999999N9999999N1+00471+00321102021ADDAA106000091MA1999999097131MD1310041+9999REMSYN060AAXX  06044 07434 36/// /1404 10047 20032 39713 40202 53004;EQDQ01  00002PRCP06
0284074340999992000010605004+45870+001180SY-MT+0402LFBL V0201701N003112200019N0100001N1+00481+00281102021ADDAA106000091GA1021+000909999GF199999011051001501031011MA1101801097131MD1110041+9999MW1001REMSYN076AAXX  06054 07434 32260 11706 10048 20028 39713 40202 51004 81531 333 81703;MET051LFBL 060500Z 17005KT 9999 FEW003 05/03 Q1018 NOSIG;EQDQ01+000012SCOTCVQ02+000000PRSWM2Q03  00002PRCP06
0097074340999992000010606004+45870+001180FM-15+0402LFBL V0201601N00211220001CN0099001N1+00401+00201999999ADDMA1101901999999MW1001REMMET045LFBL 060600Z 16004KT CAVOK 04/02 Q1019 NOSIG;EQDQ01+000000PRSWM2
0262074340999992000010607004+45870+001180SY-MT+0402LFBL V0201601N002112200019N0120001N1+00421+00261102111ADDAA106000091GA1041+084009019GF104991001001999999001011MA1101901097201MD1310071+9999MW1001REMSYN076AAXX  06074 07434 32962 41604 10042 20026 39720 40211 53007 80001 333 84078;MET045LFBL 060700Z 16004KT CAVOK 04/03 Q1019 NOSIG;EQDQ01+000000PRSWM2Q02  00002PRCP06
0246074340999992000010608004+45870+001180SY-MT+0402LFBL V0202101N004112200019N0150001N1+00411+00261102201ADDAA106000091GF104991001001999999001011MA1102001097291MD1310161+9999MW1001REMSYN076AAXX  06084 07434 32965 42108 10041 20026 39729 40220 53016 80001 333 84078;MET045LFBL 060800Z 21007KT CAVOK 04/03 Q1020 NOSIG;EQDQ01+000000PRSWM2Q02  00002PRCP06
0268074340999992000010609004+45870+001180SY-MT+0402LFBL V0202001N004112200019N0070001N1+00521+00341102291ADDAA106000091GA1021+084009999GF104991001001999999001011MA1102101097391MD1310241+9999MW1001REMSYN076AAXX  06094 07434 32957 42008 10052 20034 39739 40229 53024 80001 333 84078;MET051LFBL 060900Z 19007KT 7000 SCT280 05/04 Q1021 NOSIG;EQDQ01+000000PRSWM2Q02  00002PRCP06
0284074340999992000010610004+45870+001180SY-MT+0402LFBL V0201801N003110780019N0090001N1+00611+00391102361ADDAA106000091GA1071+078009999GF199999001001999999001041MA1102201097481MD1210281+9999MW1001REMSYN076AAXX  06104 07434 32959 61806 10061 20039 39748 40236 52028 80004 333 86076;MET051LFBL 061000Z 18006KT 9000 BKN260 06/04 Q1022 NOSIG;EQDQ01+000062SCOTCVQ02+000000PRSWM2Q03  00002PRCP06
0246074340999992000010611004+45870+001180SY-MT+0402LFBL V0201901N004119999999N0120001N1+00701+00471102371ADDAA106000091GF106991001001999999001021MA1102201097501MD1110211+9999MW1001REMSYN076AAXX  06114 07434 32962 61908 10070 20047 39750 40237 51021 80002 333 86076;MET045LFBL 061100Z 19007KT CAVOK 07/05 Q1022 NOSIG;EQDQ01+000000PRSWM2Q02  00002PRCP06
0131074340999992000010612004+45870+001180FM-12+0402LFBL V0202001N005119999999N9999999N1+00821+00531102351ADDAA106000091MA1999999097501MD1110111+9999REMSYN060AAXX  06124 07434 36/// /2010 10082 20053 39750 40235 51011;EQDQ01  00002PRCP06
0097074340999992000010612114+45870+001180FM-15+0402LFBL V0202101N00511220001CN0099001N1+00801+00501999999ADDMA1102201999999MW1001REMMET045LFBL 061211Z 21010KT CAVOK 08/05 Q1022 NOSIG;EQDQ01+000000PRSWM2
0313074340999992000010613004+45870+001180SY-MT+0402LFBL V0202101N006210780019N0180001N1+00911+00471102331ADDAA106000091GA1021+005409999GA2071+078009999GF199999011011004501031021MA1102201097501MD1110021+9999MW1001REMSYN082AAXX  06134 07434 32468 62112 10091 20047 39750 40233 51002 81132 333 81818 86076;MET058LFBL 061300Z 21011KT 9999 FEW018 BKN260 09/05 Q1022 NOSIG;EQDQ01+000062SCOTCVQ02+000000PRSWM2Q03  00002PRCP06
0268074340999992000010614004+45870+001180SY-MT+0402LFBL V0202001N004119999999N0150001N1+00831+00411102361ADDAA106000091GA1021+033009039GF107991021001999999031021MA1102201097511MD1310011+9999MW1001REMSYN082AAXX  06144 07434 32965 72008 10083 20041 39751 40236 53001 82032 333 82361 86076;MET045LFBL 061400Z 20007KT CAVOK 08/04 Q1022 NOSIG;EQDQ01+000000PRSWM2Q02  00002PRCP06
0284074340999992000010615004+45870+001180SY-MT+0402LFBL V0202001N003110180019N0100001N1+00831+00491102391ADDAA106000091GA1051+018009059GA2031+078009019GF107991051051017501031021MA1102301097541MD1310041+9999MW1001REMSYN082AAXX  06154 07434 32760 72006 10083 20049 39754 40239 53004 85532 333 85656 83076;MET045LFBL 061500Z 20006KT CAVOK 08/05 Q1023 NOSIG;EQDQ01+000000PRSWM2Q02  00002PRCP06
0297074340999992000010616004+45870+001180SY-MT+0402LFBL V0201901N003110180019N0080001N1+00751+00461102431ADDAA106000091GA1071+018009999GA2021+078009999GF107991061051017501001021MA1102301097571MD1310071+9999MW1001REMSYN082AAXX  06164 07434 32758 71906 10075 20046 39757 40243 53007 86502 333 86656 83076;MET058LFBL 061600Z 19005KT 8000 BKN060 SCT260 08/05 Q1023 NOSIG;EQDQ01+000000PRSWM2Q02  00002PRCP06
0297074340999992000010617004+45870+001180SY-MT+0402LFBL V0201901N002110180019N0060001N1+00691+00401102491ADDAA106000091GA1071+018009999GA2021+078009999GF107991051051017501001021MA1102301097611MD1310101+9999MW1001REMSYN082AAXX  06174 07434 32756 71904 10069 20040 39761 40249 53010 85502 333 85656 84076;MET058LFBL 061700Z 19003KT 6000 BKN060 SCT260 07/04 Q1023 NOSIG;EQDQ01+000000PRSWM2Q02  00002PRCP06
0335074340999992000010618004+45870+001180SY-MT+0402LFBL V0202001N001010780019N0080001N1+00621+00391102531ADDAA106000091GA1021+018009999GA2071+078009999GF105991011051017501001021KA1999M+00921KA2999N+00391MA1102401097641MD1210101+9999MW1001REMSYN094AAXX  06184 07434 32758 52002 10062 20039 39764 40253 52010 81502 333 10092 20039 81656 85076;MET058LFBL 061800Z 20003KT 8000 FEW060 BKN260 06/04 Q1024 NOSIG;EQDQ01+000000PRSWM2Q02  00002PRCP06
0297074340999992000010620004+45870+001180SY-MT+0402LFBL V0201801N002119999999N0080001N1+00591+00371102591ADDAA106000091GA1021+030009999GA2021+075009999GF105991011001999999031021MA1102401097691MD1110081+9999MW1001REMSYN082AAXX  06204 07434 32958 51804 10059 20037 39769 40259 51008 81032 333 81360 84075;MET058LFBL 062000Z 18003KT 8000 FEW100 SCT250 06/04 Q1024 NOSIG;EQDQ01+000000PRSWM2Q02  00002PRCP06
0297074340999992000010621004+45870+001180SY-MT+0402LFBL V0200901N001019999999N0070001N1+00561+00391102661ADDAA106000091GA1021+030009999GA2021+075009999GF106991041001999999051011MA1102511097751MD1310111+9999MW1001REMSYN082AAXX  06214 07434 32957 60902 10056 20039 39775 40266 53011 84051 333 84360 84075;MET058LFBL 062100Z 09001KT 7000 SCT100 SCT250 06/04 Q1025 NOSIG;EQDQ01+000000PRSWM2Q02  00002PRCP06
0297074340999992000010622004+45870+001180SY-MT+0402LFBL V0202101N001010270019N0060001N1+00571+00391102681ADDAA106000091GA1021+012609999GA2071+027009999GF107991021051012501031011MA1102511097771MD1310081+9999MW1001REMSYN082AAXX  06224 07434 32656 72102 10057 20039 39777 40268 53008 82531 333 82642 85359;MET058LFBL 062200Z 21003KT 6000 FEW042 BKN090 06/04 Q1025 NOSIG;EQDQ01+000000PRSWM2Q02  00002PRCP06
0297074340999992000010623004+45870+001180SY-MT+0402LFBL V0201901N002110270019N0070001N1+00571+00391102691ADDAA106000091GA1021+010509999GA2071+027009999GF107991031051012501031011MA1102511097781MD1110091+9999MW1001REMSYN082AAXX  06234 07434 32657 71904 10057 20039 39778 40269 51009 83531 333 83635 85359;MET058LFBL 062300Z 19004KT 7000 SCT035 BKN090 06/04 Q1025 NOSIG;EQDQ01+000000PRSWM2Q02  00002PRCP06
0326074340999992000010700004+45870+001180SY-MT+0402LFBL V0209999C000010270019N0070001N1+00531+00361102721ADDAA106000091GA1021+010509999GA2021+012609999GA3071+027009999GF107991041051012501031999MA1102611097811MD1310061+9999MW1001REMSYN088AAXX  07004 07434 32657 70000 10053 20036 39781 40272 53006 8453/ 333 81635 84642 85359;MET065LFBL 070000Z 00000KT 7000 FEW035 SCT042 BKN090 05/04 Q1026 NOSIG;EQDQ01+000000PRSWM2Q02  00002PRCP06
0131074340999992000010701004+45870+001180FM-12+0402LFBL V0209999C000019999999N9999999N1+00501+00351102711ADDAA106000091MA1999999097791MD1010021+9999REMSYN060AAXX  07014 07434 36/// /0000 10050 20035 39779 40271 50002;EQDQ01  00002PRCP06
0131074340999992000010702004+45870+001180FM-12+0402LFBL V0209999C000019999999N9999999N1+00501+00371102711ADDAA106000091MA1999999097791MD1110011+9999REMSYN060AAXX  07024 07434 36/// /0000 10050 20037 39779 40271 51001;EQDQ01  00002PRCP06
0268074340999992000010703004+45870+001180SY-MT+0402LFBL V0201201N001010024019N0060001N1+00501+00371102711ADDAA106000091GA1071+002409999GF108991071061002501999999MA1102511097791MD1610021+9999MW1001REMSYN076AAXX  07034 07434 32356 81202 10050 20037 39779 40271 56002 876// 333 87708;MET051LFBL 070300Z 12002KT 6000 BKN008 05/04 Q1025 NOSIG;EQDQ01+000000PRSWM2Q02  00002PRCP06
0268074340999992000010704004+45870+001180SY-MT+0402LFBL V0209999C000010024019N0060001N1+00511+00381102701ADDAA106000091GA1071+002409999GF108991071061002501999999MA1102511097781MD1810011+9999MW1001REMSYN076AAXX  07044 07434 32356 80000 10051 20038 39778 40270 58001 876// 333 87708;MET051LFBL 070400Z 00000KT 6000 BKN008 05/04 Q1025 NOSIG;EQDQ01+000000PRSWM2Q02  00002PRCP06
0318074340999992000010705004+45870+001180SY-MT+0402LFBL V0209999C000010024019N0050001N1+00511+00381102721ADDAA101999929AY151999AY221999GA1021+002109999GA2081+002409999GF108991081061002501999999MA1102511097801MD1310011+9999MW1511REMSYN094AAXX  07054 07434 21350 80000 10051 20038 39780 40272 53001 75152 886// 333 69905 82707 88708;MET067LFBL 070500Z 00000KT 5000 -DZ FEW007 OVC008 05/04 Q1025 BECMG 4000;EQDQ01    003PRSWM1
0432074340999992000010706004+45870+001180SY-MT+0402LFBL V0201601N001010021019N0050001N1+00501+00381102741ADDAA103999929AA224999929AY151061AY221061GA1021+001509999GA2081+002109999GF108991081071001501999999GJ103729IA1119IA2999+00409KA1999M+00621KA2999N+00491MA1102611097821MD1310031+9999MW1501REMSYN130AAXX  07064 07434 /1250 81602 10050 20038 39782 40274 53003 69902 75052 887// 333 10062 20049 32004 55062 69907 79999 82705 88707;MET066LFBL 070600Z 16001KT 5000 FEW005 OVC007 05/04 Q1026 BECMG 3000 BR;EQDQ01+000000PRSWM2Q02    003PRSWM1
0303074340999992000010707004+45870+001180SY-MT+0402LFBL V0201601N001010006019N0030001N1+00471+00381102761ADDAA101999929AY151011AY221011GA1081+000609999GF108991081061000751999999MA1102611097831MD1110051+9999MW1101MW2201REMSYN088AAXX  07074 07434 21130 81602 10047 20038 39783 40276 51005 72052 886// 333 69905 88702;MET068LFBL 070700Z 16002KT 3000 BR OVC002 05/04 Q1026 TEMPO 0800 FG VV///;EQDQ01    003PRSWM1
0292074340999992000010708004+45870+001180SY-MT+0402LFBL V0201701N00101000151CN0005001N1+00471+00401102781ADDAA106000021AY141999AY221999ED199U06509GA1091+000159999GF109991091999000151999999MA1102611097851MD1210051+9999MW1451MW2471REMSYN066AAXX  07084 07434 31/05 91702 10047 20040 39785 40278 52005 74742;MET068LFBL 070800Z 17002KT 0500 R22/0650N FG VV/// 05/04 Q1026 TEMPO 0200;EQDQ01    003PRSWM1
0296074340999992000010709004+45870+001180SY-MT+0402LFBL V0201501N00211000151CN0005001N1+00491+00431102781ADDAA103000791AY151031AY241031GA1091+000159999GF109991091999000151999999MA1102611097861MD1210041+9999MW1451MW2471REMSYN076AAXX  07094 07434 21/05 91504 10049 20043 39786 40278 52004 74754 333 69907;MET073LFBL 070900Z 15003KT 0500 R22/0350V0550D FG VV/// 05/04 Q1026 TEMPO 0200;EQDQ01    003PRSWM1
0280074340999992000010710004+45870+001180SY-MT+0402LFBL V0201401N00211000151CN0005001N1+00511+00451102801ADDAA106000021AY141999AY241999GA1091+000159999GF109991091999000151999999MA1102611097881MD1210051+9999MW1451REMSYN066AAXX  07104 07434 31/05 91404 10051 20045 39788 40280 52005 74544;MET073LFBL 071000Z 14003KT 0500 R22/0250V0550U FG VV/// 05/05 Q1026 TEMPO 0200;EQDQ01    003PRSWM1
0309074340999992000010711004+45870+001180SY-MT+0402LFBL V0201501N002110006019N0007001N1+00531+00471102801ADDAA106000021AY141999AY241999GA1081+000609999GF108991081061000751999999MA1102611097881MD1110031+9999MW1421MW2441REMSYN082AAXX  07114 07434 31107 81504 10053 20047 39788 40280 51003 74244 886// 333 88702;MET080LFBL 071100Z 15003KT 0700 R22/0800V1300U FG OVC002 05/05 Q1026 TEMPO 0300 VV///;EQDQ01    003PRSWM1
0294074340999992000010712004+45870+001180SY-MT+0402LFBL V0201401N001010006019N0015001N1+00551+00491102711ADDAA106000791AY151061AY241061GA1081+000609999GF108991081061000751999999MA1102511097801MD1810061+9999MW1101MW2281REMSYN088AAXX  07124 07434 11115 81402 10055 20049 39780 40271 58006 69901 72854 886// 333 88702;MET059LFBL 071200Z 14002KT 1500 BR OVC002 06/05 Q1025 BECMG 3000;EQDQ01    003PRSWM1
0282074340999992000010713004+45870+001180SY-MT+0402LFBL V0201101N001010009019N0020001N1+00601+00541102611ADDAA106000021AY121999AY221999GA1071+000909999GF107991071061000751999999MA1102511097711MD1810171+9999MW1101REMSYN082AAXX  07134 07434 31120 71102 10060 20054 39771 40261 58017 71022 876// 333 87703;MET059LFBL 071300Z 11003KT 2000 BR BKN003 06/05 Q1025 BECMG 3000;EQDQ01    003PRSWM1
0321074340999992000010714004+45870+001180SY-MT+0402LFBL V0201701N001010015019N0030001N1+00651+00531102591ADDAA106000091AY121999AY221999GA1071+001509999GF199999061061001501001001MA1102401097701MD1610181+9999MW1101REMSYN082AAXX  07144 07434 31230 61702 10065 20053 39770 40259 56018 71022 86600 333 86805;MET066LFBL 071400Z 17003KT 3000 BR BKN005 07/05 Q1024 BECMG 5000 BKN006;EQDQ01+000062SCOTCVQ02  00002PRCP06Q03    003PRSWM1
0268074340999992000010715004+45870+001180SY-MT+0402LFBL V0201201N002112200019N0050001N1+00701+00521102551ADDAA106000091GA1021+002109999GF102991021061002501001001MA1102401097671MD1610131+9999MW1001REMSYN076AAXX  07154 07434 32350 21204 10070 20052 39767 40255 56013 82600 333 82807;MET051LFBL 071500Z 12003KT 5000 FEW007 07/05 Q1024 NOSIG;EQDQ01+000000PRSWM2Q02  00002PRCP06
0336074340999992000010716004+45870+001180SY-MT+0402LFBL V0201501N00211002101CN0030001N1+00631+00491102561ADDAA106000091AY111999AY211999GA1021+002109999GA2021+006009999GF106991061061002501001001MA1102401097671MD1610041+9999MW1101REMSYN088AAXX  07164 07434 31330 61504 10063 20049 39767 40256 56004 71011 86600 333 84707 83620;MET075LFBL 071600Z 15004KT 3000 BR SCT007 SCT020 06/05 Q1024 BECMG BKN007 BKN020;EQDQ01  00002PRCP06Q02    003PRSWM1
0305074340999992000010717004+45870+001180SY-MT+0402LFBL V0201601N003110018019N0040001N1+00591+00491102571ADDAA106000091AY121999AY221999GA1071+001809999GF107991071061001501999999MA1102401097671MD1610031+9999MW1101REMSYN082AAXX  07174 07434 31240 71606 10059 20049 39767 40257 56003 71022 876// 333 87706;MET066LFBL 071700Z 16006KT 4000 BR BKN006 06/05 Q1024 TEMPO 2000 BKN005;EQDQ01  00002PRCP06Q02    003PRSWM1
0308074340999992000010718004+45870+001180SY-MT+0402LFBL V0201801N002110012019N0050001N1+00551+00461102541ADDAA112000791GA1071+001209999GF107991071061001501999999KA1999M+00701KA2999N+00461MA1102401097641MD1810031+9999MW1001REMSYN094AAXX  07184 07434 12250 71804 10055 20046 39764 40254 58003 69902 876// 333 10070 20046 87704;MET063LFBL 071800Z 18005KT 5000 BKN004 06/05 Q1024 TEMPO 2000 BKN003;EQDQ01+000000PRSWM2
0303074340999992000010719004+45870+001180SY-MT+0402LFBL V0201601N002110012019N0050001N1+00541+00471102551ADDAA101999929AY161999AY221999GA1071+001209999GF107991071061001501999999MA1102401097651MD1510021+9999MW1601MW2611REMSYN088AAXX  07194 07434 21250 71604 10054 20047 39765 40255 55002 76062 876// 333 69905 87704;MET068LFBL 071900Z 16004KT 120V200 5000 -RA BKN004 05/05 Q1024 TEMPO 2000;EQDQ01    003PRSWM1
0305074340999992000010720004+45870+001180SY-MT+0402LFBL V0201701N003110006019N0020001N1+00551+00491102541ADDAA101999929AY161999AY221999GA1071+000609999GF108991081071000751999999MA1102401097641MD1610031+9999MW1601MW2611REMSYN088AAXX  07204 07434 21120 81706 10055 20049 39764 40254 56003 76062 887// 333 69905 87702;MET070LFBL 072000Z 17005KT 2000 -RA BR BKN002 06/05 Q1024 TEMPO 0800 OVC001;EQDQ01    003PRSWM1
0325074340999992000010721004+45870+001180SY-MT+0402LFBL V0201401N001010003019N0012001N1+00561+00501102551ADDAA103999929AY161031AY241031ED199U15009GA1081+000309999GF108991081071000751999999MA1102401097651MD1210011+9999MW1601MW2611REMSYN088AAXX  07214 07434 21112 81402 10056 20050 39765 40255 52001 76064 887// 333 69907 88701;MET079LFBL 072100Z 14003KT 1200 R22/P1500 -RA BR OVC001 06/05 Q1024 TEMPO 0700 VV///;EQDQ01    003PRSWM1
0320074340999992000010722004+45870+001180SY-MT+0402LFBL V0201201N001010003019N0008001N1+00561+00501102531ADDAA101000491AY161999AY241999ED199U15009GA1081+000309999GF108991081071000251999999MA1102401097631MD1810021+9999MW1441MW2461REMSYN088AAXX  07224 07434 21008 81202 10056 20050 39763 40253 58002 74664 887// 333 69945 88701;MET074LFBL 072200Z 12003KT 0800 R22/1500 FG OVC001 06/05 Q1024 TEMPO 0500 VV///;EQDQ01    003PRSWM1
0275074340999992000010723004+45870+001180SY-MT+0402LFBL V0201701N00211000151CN0004001N1+00581+00521102511ADDAA106000021AY141999AY241999GA1091+000159999GF109991091999000151999999MA1102401097621MD1810021+9999MW1451MW2471REMSYN066AAXX  07234 07434 31/04 91704 10058 20052 39762 40251 58002 74744;MET062LFBL 072300Z 17004KT 0400 R22/0800V1000N FG VV/// 06/05 Q1024;EQDQ01    003PRSWM1
0198074340999992000010800004+45870+001180FM-12+0402LFBL V0201601N002110006019N0006001N1+00591+00551102491ADDAA103000591AY161061AY241061GA1091+999999999GF109991091999999999999999MA1999999097601MD1710051+9999MW1431REMSYN082AAXX  08004 07434 /1/06 91604 10059 20055 39760 40249 57005 69941 74364 333 69947;
0122074340999992000010801004+45870+001180FM-12+0402LFBL V0201801N004119999999N0006001N1+00591+00551102451ADDAA101000191MA1999999097561MD1810071+9999REMSYN070AAXX  08014 07434 26/06 /1808 10059 20055 39756 40245 58007 333 69925;
0112074340999992000010802004+45870+001180FM-12+0402LFBL V0201801N003119999999N0009001N1+00571+00531102431ADDAA106000021MA1999999097541MD1710081+9999REMSYN060AAXX  08024 07434 36/09 /1806 10057 20053 39754 40243 57008;
0283074340999992000010803004+45870+001180SY-MT+0402LFBL V0201701N002110009019N0020001N1+00571+00531102431ADDAA103000291AY161031AY241031GA1081+000909999GF108991081061001501999999MA1102301097541MD1610061+9999MW1101MW2281REMSYN088AAXX  08034 07434 21220 81704 10057 20053 39754 40243 56006 72864 886// 333 69927 88703;MET048LFBL 080300Z 17004KT 2000 BR OVC003 06/05 Q1023;EQDQ01    003PRSWM1
0212074340999992000010803304+45870+001180FM-15+0402LFBL V0201501N002110003019N0012001N1+00601+00501999999ADDED199U15009GA1071+000309999GA2071+000609999GF107991999999999999999999MA1102201999999MW1101MW2611REMMET069LFBL 080430Z 15004KT 1200 R22/1500N -RA BR BKN001 BKN002 06/05 Q1022;EQDQ01+000003PRSWM1Q02    003PRSWM1
0122074340999992000010804004+45870+001180FM-12+0402LFBL V0201501N002119999999N0007001N1+00571+00531102401ADDAA101002091MA1999999097511MD1810051+9999REMSYN070AAXX  08044 07434 26/07 /1504 10057 20053 39751 40240 58005 333 60025;
0208074340999992000010804304+45870+001180FM-15+0402LFBL V0201601N00211220001CN0008001N1+00601+00501999999ADDED199U15009GA1071+000309999GA2021+003309999MA1102201999999MW1441MW2511REMMET075LFBL 080530Z 16004KT 0800 R22/P1500 -DZ FG BKN001 SCT011 06/05 Q1022 NOSIG;EQDQ01+000042SCOTCVQ02+000003PRSWM1Q03    003PRSWM1
0199074340999992000010805004+45870+001180FM-15+0402LFBL V0201601N00211220001CN0006001N1+00601+00501999999ADDGA1071+000309999GA2021+004509999MA1102201999999MW1441REMMET083LFBL 080500Z 16004KT 0600 R22/0900VP1500N -DZRA FG BKN001 SCT015 06/05 Q1022 NOSIG;EQDQ01+000042SCOTCVQ02+000003PRSWM1Q03    003PRSWM1
0433074340999992000010806004+45870+001180SY-MT+0402LFBL V0201601N003110027019N0018001N1+00551+00511102391ADDAA103003091AA224004091AY161061AY251061GA1021+000609999GA2071+002709999GF108991081051000751999999GJ100969IA1119IA2999+00509KA1999M+00601KA2999N+00521MA1102201097501MD1610041+9999MW1501MW2511REMSYN130AAXX  08064 07434 /1118 81606 10055 20051 39750 40239 56004 60042 75065 885// 333 10060 20052 32005 55016 60037 70040 82702 87609;MET077LFBL 080600Z 16005KT 1800 -DZ BR FEW002 BKN009 06/05 Q1022 TEMPO 0600 OVC001;EQDQ01    003PRSWM1
0334074340999992000010807004+45870+001180SY-MT+0402LFBL V0201601N002110006019N0015001N1+00551+00511102421ADDAA101001091AY161999AY251999GA1071+000609999GA2071+000909999GF108991081071000751999999MA1102201097521MD1310011+9999MW1601MW2611REMSYN094AAXX  08074 07434 21115 81604 10055 20051 39752 40242 53001 76065 887// 333 60015 85702 86703;MET077LFBL 080700Z 16005KT 1500 -RA BR BKN002 BKN003 05/05 Q1022 TEMPO 0600 OVC001;EQDQ01    003PRSWM1
0230074340999992000010807304+45870+001180FM-15+0402LFBL V0201301N002610006019N0008001N1+00501+00501999999ADDED199U15009GA1071+000609999GA2071+002409999GF107991999999999999999999MA1102301999999MW1441MW2611REMMET087LFBL 080830Z 13005KT 0800 R22/P1500 -RA FG BKN002 BKN008 05/05 Q1023 TEMPO 0600 OVC001;EQDQ01+000003PRSWM1Q02    003PRSWM1
0349074340999992000010808004+45870+001180SY-MT+0402LFBL V0201501N002110006019N0008001N1+00541+00501102441ADDAA101001091AY161999AY261999GA1071+000609999GA2071+002409999GF108991081071000751999999MA1102301097541MD1310041+9999MW1441MW2611REMSYN094AAXX  08084 07434 21108 81504 10054 20050 39754 40244 53004 76166 887// 333 60015 86702 86708;MET092LFBL 080800Z 15004KT 0800 R22/1400VP1500 -RA FG BKN002 BKN008 05/05 Q1023 TEMPO 0600 OVC001;EQDQ01    003PRSWM1
0349074340999992000010809004+45870+001180SY-MT+0402LFBL V0201301N002110009019N0008001N1+00541+00501102471ADDAA103004091AY161031AY251031ED199U15009GA1071+000909999GA2071+001809999GF108991081071000751999999MA1102301097571MD1310071+9999MW1611REMSYN094AAXX  08094 07434 21108 81304 10054 20050 39757 40247 53007 76165 887// 333 60047 85703 86706;MET087LFBL 080900Z 13004KT 0800 R22/P1500 -RA FG BKN003 BKN006 05/05 Q1023 TEMPO 0600 OVC001;EQDQ01    003PRSWM1
0219074340999992000010809304+45870+001180FM-15+0402LFBL V0201301N002110006019N0008001N1+00501+00501999999ADDGA1071+000609999GA2071+001809999GF107991999999999999999999MA1102301999999MW1441REMMET093LFBL 080930Z 13004KT 0800 R22/1200VP1500N -RA FG BKN002 BKN006 05/05 Q1023 TEMPO 0600 OVC001;EQDQ01+000003PRSWM1Q02    003PRSWM1
0290074340999992000010810004+45870+001180SY-MT+0402LFBL V0201501N00211000151CN0006001N1+00551+00511102501ADDAA101002091AY161999AY261999ED199U10009GA1091+000159999GF109991091999000151999999MA1102301097601MD1310081+9999MW1451MW2511MW3581REMSYN076AAXX  08104 07434 21/06 91504 10055 20051 39760 40250 53008 75866 333 60025;MET069LFBL 081000Z 15004KT 0600 R22/1000N -DZRA FG VV/// 06/05 Q1023 NOSIG;
0309074340999992000010811004+45870+001180SY-MT+0402LFBL V0201601N002110003019N0006001N1+00561+00521102471ADDAA101000491AY161999AY251999GA1081+000309999GF108991081071000251999999MA1102301097571MD1010031+9999MW1441MW2501REMSYN088AAXX  08114 07434 21006 81604 10056 20052 39757 40247 50003 75065 887// 333 69945 88701;MET074LFBL 081100Z 16004KT 0600 R22/1100VP1500D -DZ FG OVC001 06/05 Q1023 NOSIG;EQDQ01    003PRSWM1
0320074340999992000010812004+45870+001180SY-MT+0402LFBL V0201801N003110006019N0008001N1+00581+00541102431ADDAA103003091AY161061AY251061ED199U11009GA1081+000609999GF108991081071000751999999MA1102301097541MD1810031+9999MW1501MW2511REMSYN094AAXX  08124 07434 /1108 81806 10058 20054 39754 40243 58003 60071 75065 887// 333 60037 88702;MET068LFBL 081200Z 18005KT 0800 R22/1100N -DZ FG OVC002 06/05 Q1023 NOSIG;EQDQ01    003PRSWM1
0298074340999992000010813004+45870+001180SY-MT+0402LFBL V0201801N003110006019N0008001N1+00601+00561102371ADDAA101999929AY151999AY241999GA1081+000609999GF108991081071000751999999MA1102201097491MD1810111+9999MW1441REMSYN088AAXX  08134 07434 21108 81806 10060 20056 39749 40237 58011 74454 887// 333 69905 88702;MET069LFBL 081300Z 18005KT 0800 R22/1100VP1500 FG OVC002 06/06 Q1022 NOSIG;EQDQ01    003PRSWM1
0304074340999992000010814004+45870+001180SY-MT+0402LFBL V0201601N002110003019N0006001N1+00621+00581102341ADDAA106000021AY141999AY241999ED199U13009GA1081+000309999GF108991081071000751999999MA1102201097461MD1710111+9999MW1441MW2461REMSYN082AAXX  08144 07434 31106 81604 10062 20058 39746 40234 57011 74644 887// 333 88701;MET064LFBL 081400Z 16005KT 0600 R22/1300N FG OVC001 06/06 Q1022 NOSIG;EQDQ01    003PRSWM1
0304074340999992000010815004+45870+001180SY-MT+0402LFBL V0201501N002110003019N0006001N1+00651+00611102311ADDAA103999929AY151031AY241031ED199U13009GA1081+000309999GF108991081071000251999999MA1102201097441MD1610101+9999MW1441REMSYN088AAXX  08154 07434 21006 81504 10065 20061 39744 40231 56010 74454 887// 333 69907 88701;MET064LFBL 081500Z 14004KT 0600 R22/1300N FG OVC001 07/06 Q1022 NOSIG;EQDQ01    003PRSWM1
0301074340999992000010816004+45870+001180SY-MT+0402LFBL V0201601N00211000151CN0006001N1+00641+00601102331ADDAA101000891AY161999AY251999ED199U11009GA1091+000159999GF109991091999000151999999MA1102201097461MD1510031+9999MW1501MW2511REMSYN076AAXX  08164 07434 21/06 91604 10064 20060 39746 40233 55003 75065 333 69985;MET067LFBL 081600Z 16005KT 0600 R22/1100U -DZ FG VV/// 06/06 Q1022 NOSIG;EQDQ01    003PRSWM1
0296074340999992000010817004+45870+001180SY-MT+0402LFBL V0201701N00311000151CN0004001N1+00631+00591102341ADDAA101000591AY151999AY251999GA1091+000159999GF109991091999000151999999MA1102201097461MD1510001+9999MW1451MW2501REMSYN076AAXX  08174 07434 21/04 91706 10063 20059 39746 40234 55000 75055 333 69945;MET073LFBL 081700Z 17005KT 0400 R22/1300VP1500D -DZ FG VV/// 06/06 Q1022 NOSIG;EQDQ01    003PRSWM1
0340074340999992000010818004+45870+001180SY-MT+0402LFBL V0201601N00211000151CN0006001N1+00611+00571102351ADDAA103002091AY161061AY251061GA1091+000159999GF109991091999000151999999KA1999M+00651KA2999N+00541MA1102201097471MD1110031+9999MW1451MW2501REMSYN094AAXX  08184 07434 /1/06 91604 10061 20057 39747 40235 51003 60092 75065 333 10065 20054 60027;MET073LFBL 081800Z 16003KT 0600 R22/1200VP1500D -DZ FG VV/// 06/06 Q1022 NOSIG;EQDQ01    003PRSWM1
0291074340999992000010819004+45870+001180SY-MT+0402LFBL V0201701N00211000151CN0004001N1+00611+00571102341ADDAA101000591AY151999AY241999GA1091+000159999GF109991091999000151999999MA1102201097461MD1010001+9999MW1451MW2471REMSYN076AAXX  08194 07434 21/04 91704 10061 20057 39746 40234 50000 74754 333 69945;MET068LFBL 081900Z 17004KT 0400 R22/0900V1300U FG VV/// 06/06 Q1022 NOSIG;EQDQ01    003PRSWM1
0281074340999992000010820004+45870+001180SY-MT+0402LFBL V0201601N00211000151CN0009001N1+00611+00571102321ADDAA106000021AY141999AY241999GA1091+000159999GF109991091999000151999999MA1102201097441MD1810021+9999MW1431MW2451REMSYN066AAXX  08204 07434 31/09 91604 10061 20057 39744 40232 58002 74344;MET068LFBL 082000Z 16003KT 0900 R22/0750V1400D FG VV/// 06/06 Q1022 NOSIG;EQDQ01    003PRSWM1
0291074340999992000010821004+45870+001180SY-MT+0402LFBL V0201501N00211000151CN0009001N1+00611+00571102321ADDAA103000591AY151031AY241031GA1091+000159999GF109991091999000151999999MA1102201097441MD1610031+9999MW1431MW2451REMSYN076AAXX  08214 07434 21/09 91504 10061 20057 39744 40232 56003 74354 333 69947;MET068LFBL 082100Z 15003KT 0900 R22/0800V1100N FG VV/// 06/06 Q1022 NOSIG;EQDQ01    003PRSWM1
0276074340999992000010822004+45870+001180SY-MT+0402LFBL V0201701N00211000151CN0009001N1+00621+00581102321ADDAA106000021AY141999AY241999GA1091+000159999GF109991091999000151999999MA1102201097441MD1610021+9999MW1451REMSYN066AAXX  08224 07434 31/09 91704 10062 20058 39744 40232 56002 74544;MET069LFBL 082200Z 17004KT 0900 R22/1400VP1500N FG VV/// 06/06 Q1022 NOSIG;EQDQ01    003PRSWM1
0281074340999992000010823004+45870+001180SY-MT+0402LFBL V0201701N00211000151CN0009001N1+00621+00581102281ADDAA106000021AY141999AY241999ED199U15009GA1091+000159999GF109991091999000151999999MA1102101097401MD1810041+9999MW1451REMSYN066AAXX  08234 07434 31/09 91704 10062 20058 39740 40228 58004 74544;MET063LFBL 082300Z 17004KT 0900 R22/P1500 FG VV/// 06/06 Q1021 NOSIG;EQDQ01    003PRSWM1
0271074340999992000010900004+45870+001180SY-MT+0402LFBL V0201701N002110003019N0007001N1+00631+00591102241ADDAA103000191GA1081+000309999GF108991999999999999999999MA1102101097371MD1810071+9999MW1101REMSYN076AAXX  09004 07434 /6/07 /1704 10063 20059 39737 40224 58007 69961 333 69927;MET054LFBL 090000Z 16004KT 1500 BR OVC001 06/06 Q1021 NOSIG;EQDQ01+000003PRSWM1Q02    003PRSWM1
0131074340999992000010901004+45870+001180FM-12+0402LFBL V0201801N003119999999N0009001N1+00621+00581102201ADDAA106000091MA1999999097331MD1710111+9999REMSYN060AAXX  09014 07434 36/09 /1806 10062 20058 39733 40220 57011;EQDQ01  00002PRCP06
0122074340999992000010902004+45870+001180FM-12+0402LFBL V0202001N002119999999N0007001N1+00621+00581102221ADDAA101000591MA1999999097351MD1510051+9999REMSYN070AAXX  09024 07434 26/07 /2004 10062 20058 39735 40222 55005 333 69945;
0309074340999992000010903004+45870+001180SY-MT+0402LFBL V0202201N001010003019N0015001N1+00621+00581102211ADDAA103000891AY151031AY221031GA1081+000309999GF108991081071000251999999MA1102101097341MD1610031+9999MW1101MW2501REMSYN088AAXX  09034 07434 21015 82202 10062 20058 39734 40221 56003 75052 887// 333 69987 88701;MET074LFBL 090300Z 22002KT 1500 R22/1400VP1500N -DZ BR OVC001 06/06 Q1021 NOSIG;EQDQ01    003PRSWM1
0295074340999992000010904004+45870+001180SY-MT+0402LFBL V0203301N003110003019N0015001N1+00621+00581102201ADDAA101001091AY161999AY251999GA1081+000309999GF108991081071000251999999MA1102101097331MD1010001+9999MW1611REMSYN088AAXX  09044 07434 21015 83306 10062 20058 39733 40220 50000 76165 887// 333 60015 88701;MET066LFBL 090400Z 33006KT 290V360 1500 -RA BR OVC001 06/06 Q1021 NOSIG;EQDQ01    003PRSWM1
0313074340999992000010905004+45870+001180SY-MT+0402LFBL V0203601N005110009019N0080001N1+00561+00521102221ADDAA101001091AY161999AY261999GA1071+000909999GA2071+006009999GF108991081071000751999999MA1102101097341MD1510011+9999MW1611REMSYN094AAXX  09054 07434 21158 83610 10056 20052 39734 40222 55001 76166 887// 333 60015 85703 85620;MET062LFBL 090500Z 36009KT 8000 -RA BKN003 BKN020 06/05 Q1021 NOSIG;EQDQ01    003PRSWM1
0342074340999992000010908004+45870+001180SY-MT+0402LFBL V0203601N005110012019N0080001N1+00461+00371102421ADDAA101002091AY161999AY261999GA1071+001209999GA2021+004809999GA3071+009909999GF107991071071001501999999MA1102201097511MD1310171+9999MW1611REMSYN100AAXX  09084 07434 21258 73610 10046 20037 39751 40242 53017 76166 877// 333 60025 85704 83616 86633;MET069LFBL 090800Z 36009KT 8000 -RA BKN004 SCT016 BKN033 05/04 Q1022 NOSIG;EQDQ01    003PRSWM1
0350074340999992000010909004+45870+001180SY-MT+0402LFBL V0200101N004110012019N0040001N1+00431+00341102501ADDAA103004091AY161031AY261031GA1071+001209999GA2021+004809999GA3071+009909999GF107991071071001501999999MA1102301097581MD1310221+9999MW1611REMSYN100AAXX  09094 07434 21240 70108 10043 20034 39758 40250 53022 76166 877// 333 60047 85704 83616 86633;MET077LFBL 090900Z 01007KT 330V040 4000 -RA BKN004 SCT016 BKN033 04/03 Q1023 NOSIG;EQDQ01    003PRSWM1
0211074340999992000010909304+45870+001180FM-15+0402LFBL V0200401N006710018019N0050001N1+00301+00201999999ADDGA1071+001809999GA2021+004809999GA3071+009909999GF107991999999999999999999MA1102401999999MW1611REMMET069LFBL 091030Z 04013KT 5000 -RA BKN006 SCT016 BKN033 03/02 Q1024 NOSIG;EQDQ01+000003PRSWM1Q02    003PRSWM1
0232074340999992000010910004+45870+001180FM-12+0402LFBL V0200101N005110018019N0050001N1+00361+00241102601ADDAA101003091AY161011AY261011GA1051+001809079GA2031+004809069GF107991071071001501999999MA1999999097661MD1110241+9999MW1611REMSYN100AAXX  09104 07434 21250 70110 10036 20024 39766 40260 51024 76166 877// 333 60035 85706 83616 86633;
0342074340999992000010911004+45870+001180SY-MT+0402LFBL V0200401N00621012901CN0050001N1+00361+00181102631ADDAA101000691AY161999AY261999GA1021+001809999GA2021+004809999GA3071+012909999GF107991071071002501999999MA1102401097691MD1110181+9999MW1611REMSYN100AAXX  09114 07434 21350 70412 10036 20018 39769 40263 51018 76166 877// 333 69965 83706 83616 86643;MET069LFBL 091100Z 04012KT 5000 -RA SCT006 SCT016 BKN043 04/02 Q1024 NOSIG;EQDQ01    003PRSWM1
0362074340999992000010912004+45870+001180SY-MT+0402LFBL V0200301N00411012901CN0080001N1+00441+00321102591ADDAA103004091AY161061AY261061GA1021+001809999GA2021+004809999GA3071+012909999GF107991071071002501999999MA1102401097671MD1010091+9999MW1601MW2611REMSYN106AAXX  09124 07434 /1358 70308 10044 20032 39767 40259 50009 60081 76066 877// 333 60047 83706 83616 86643;MET077LFBL 091200Z 03008KT 360V070 8000 -RA SCT006 SCT016 BKN043 04/03 Q1024 NOSIG;EQDQ01    003PRSWM1
0122074340999992000010913004+45870+001180FM-12+0402LFBL V0200201N004119999999N9999999N1+00501+00331102581ADDAA101000791MA1999999097671MD1110011+9999REMSYN070AAXX  09134 07434 26/// /0208 10050 20033 39767 40258 51001 333 69905;
0289074340999992000010914004+45870+001180SY-MT+0402LFBL V0200301N005110129019N0100001N1+00531+00281102601ADDAA106000021GA1021+004809999GA2071+012909999GF107991071081004501999999MA1102401097691MD1510001+9999MW1001REMSYN082AAXX  09144 07434 32460 70310 10053 20028 39769 40260 55000 878// 333 84816 86643;MET066LFBL 091400Z 03009KT 360V070 9999 SCT016 BKN043 05/03 Q1024 NOSIG;EQDQ01+000000PRSWM2
0319074340999992000010915004+45870+001180SY-MT+0402LFBL V0200101N005110129019N0100001N1+00421+00271102681ADDAA103000891AY161031AY221031GA1021+004809999GA2071+012909999GF107991071081004501999999MA1102511097751MD1310081+9999MW1211MW2611REMSYN094AAXX  09154 07434 21460 70110 10042 20027 39775 40268 53008 72162 878// 333 69987 84816 86643;MET062LFBL 091500Z 01010KT 9999 -RA SCT016 BKN043 04/03 Q1025 NOSIG;EQDQ01    003PRSWM1
0325074340999992000010916004+45870+001180SY-MT+0402LFBL V0200101N003110129019N0100001N1+00461+00331102741ADDAA101000291AY181999AY261999GA1021+004809999GA2071+012909999GF107991071081004501999999MA1102611097811MD1310141+9999MW1251REMSYN094AAXX  09164 07434 21460 70106 10046 20033 39781 40274 53014 72586 878// 333 69925 84816 86643;MET058LFBL 091600Z 36007KT 9999 SCT016 BKN043 05/03 Q1026 NOSIG;EQDQ01+000000PRSWM2Q02    003PRSWM1
0297074340999992000010917004+45870+001180SY-MT+0402LFBL V0200201N004110129019N0100001N1+00351+00201102851ADDAA106000021GA1021+004809999GA2071+012909999GF199999061081004501001011MA1102611097901MD1310211+9999MW1001REMSYN082AAXX  09174 07434 32460 60208 10035 20020 39790 40285 53021 86801 333 84816 86643;MET058LFBL 091700Z 02007KT 9999 SCT016 BKN043 04/02 Q1026 NOSIG;EQDQ01+000062SCOTCVQ02+000000PRSWM2
0385074340999992000010918004+45870+001180SY-MT+0402LFBL V0203601N004110129019N0100001N1+00361+00241102891ADDAA103000291AY181061AY261061GA1021+004809999GA2071+012909999GF199999061081004501001011KA1999M+00541KA2999N+00321MA1102711097941MD1110191+9999MW1011REMSYN112AAXX  09184 07434 /1460 63608 10036 20024 39794 40289 51019 60092 70186 86801 333 10054 20032 69927 84816 86643;MET058LFBL 091800Z 36007KT 9999 SCT016 BKN043 04/02 Q1027 NOSIG;EQDQ01+000062SCOTCVQ02+000000PRSWM2Q03    003PRSWM1
0145074340999992000010918304+45870+001180FM-15+0402LFBL V0200101N004110012019N0112651N1+00401+00301999999ADDGA1081+001209999GF108991999999999999999999MA1102811999999MW1001REMMET051LFBL 091930Z 01008KT 9999 OVC004 04/03 Q1028 NOSIG;EQDQ01+000000PRSWM2
0176074340999992000010919004+45870+001180FM-12+0402LFBL V0200101N00411006001CN0100001N1+00361+00271102981ADDAA106000021GA1041+001809089GF106991061081002501001011MA1999999098021MD1110211+9999REMSYN082AAXX  09194 07434 32360 60108 10036 20027 39802 40298 51021 86801 333 84806 86643;
0319074340999992000010920004+45870+001180SY-MT+0402LFBL V0200101N004110012019N0100001N1+00361+00271103031ADDAA101999929AY151999AY221999GA1071+001209999GA2071+002109999GF108991081071001501999999MA1102811098071MD1310171+9999MW1501MW2511REMSYN094AAXX  09204 07434 21260 80108 10036 20027 39807 40303 53017 75052 887// 333 69905 86704 87707;MET062LFBL 092000Z 01008KT 9999 -DZ BKN004 BKN007 04/03 Q1028 NOSIG;EQDQ01    003PRSWM1
0341074340999992000010921004+45870+001180SY-MT+0402LFBL V0200101N005110018019N0150001N1+00321+00201103111ADDAA103999929AY151031AY221031GA1071+001809999GA2021+006009999GF199999061081002501001001MA1102911098141MD1110201+9999MW1201REMSYN094AAXX  09214 07434 21365 60110 10032 20020 39814 40311 51020 72052 86800 333 69907 85806 83620;MET058LFBL 092100Z 01009KT 9999 BKN006 SCT020 03/02 Q1029 NOSIG;EQDQ01+000062SCOTCVQ02+000000PRSWM2Q03    003PRSWM1
0252074340999992000010922004+45870+001180SY-MT+0402LFBL V0200301N005112200019N0150001N1+00271+00111103151ADDAA106000021GA1021+002409999GF104991041081002501001001MA1102911098171MD1110151+9999MW1001REMSYN076AAXX  09224 07434 32365 40310 10027 20011 39817 40315 51015 84800 333 83808;MET051LFBL 092200Z 03010KT 9999 SCT008 03/01 Q1029 NOSIG;EQDQ01+000000PRSWM2
0252074340999992000010923004+45870+001180SY-MT+0402LFBL V0200301N004112200019N0150001N1+00191+00061103201ADDAA106000021GA1021+003009999GF104991041051004501001001MA1103011098201MD1110131+9999MW1001REMSYN076AAXX  09234 07434 32465 40308 10019 20006 39820 40320 51013 84500 333 84610;MET051LFBL 092300Z 03007KT 9999 SCT010 02/01 Q1030 NOSIG;EQDQ01+000000PRSWM2
0296074340999992000011000004+45870+001180SY-MT+0402LFBL V0200101N003112200019N0150001N1+00151+00051103241ADDAA106000791AY151061AY211061GA1021+003009999GF103991031051004501001001MA1103011098231MD1210091+9999MW1011REMSYN088AAXX  10004 07434 11465 30106 10015 20005 39823 40324 52009 69901 70151 83500 333 83610;MET051LFBL 100000Z 01007KT 9999 SCT010 02/01 Q1030 NOSIG;EQDQ01+000000PRSWM2Q02    003PRSWM1
0112074340999992000011002004+45870+001180FM-12+0402LFBL V0200301N005119999999N9999999N1+00121+00021103301ADDAA106000021MA1999999098281MD1310081+9999REMSYN060AAXX  10024 07434 36/// /0310 10012 20002 39828 40330 53008;
0269074340999992000011003004+45870+001180SY-MT+0402LFBL V0200401N004110030019N0150001N1+00111-00051103321ADDAA106000021GA1071+003009999GF199999051051004501001001MA1103121098301MD1310071+9999MW1001REMSYN076AAXX  10034 07434 32465 50408 10011 21005 39830 40332 53007 85500 333 85610;MET052LFBL 100300Z 04007KT 9999 BKN010 01/M00 Q1031 NOSIG;EQDQ01+000052SCOTCVQ02+000000PRSWM2
0269074340999992000011004004+45870+001180SY-MT+0402LFBL V0200101N003112200019N0150001N1+00081-00051103351ADDAA106000091GA1021+003009999GF104991041051004501001001MA1103121098321MD1110081+9999MW1001REMSYN076AAXX  10044 07434 32465 40106 10008 21005 39832 40335 51008 84500 333 84610;MET052LFBL 100400Z 01005KT 9999 SCT010 01/M01 Q1031 NOSIG;EQDQ01+000000PRSWM2Q02  00002PRCP06
0269074340999992000011005004+45870+001180SY-MT+0402LFBL V0200301N004110018019N0150001N1+00071-00071103371ADDAA106000091GA1071+001809999GF107991071061002501999999MA1103121098341MD1210061+9999MW1001REMSYN076AAXX  10054 07434 32365 70308 10007 21007 39834 40337 52006 876// 333 87706;MET052LFBL 100500Z 03008KT 9999 BKN006 01/M01 Q1031 NOSIG;EQDQ01+000000PRSWM2Q02  00002PRCP06
0368074340999992000011006004+45870+001180SY-MT+0402LFBL V0200401N005110024019N0150001N1+00051-00111103401ADDAA112000791AA224008691GA1071+002409999GF199999061061002501001001GJ100009IA1099IA2999-00109KA1999M+00371KA2999N+00051MA1103121098361MD1210061+9999MW1001REMSYN112AAXX  10064 07434 12365 60410 10005 21011 39836 40340 52006 69902 86600 333 10037 20005 31101 55000 70086 86708;MET052LFBL 100600Z 04009KT 9999 BKN008 01/M01 Q1031 NOSIG;EQDQ01+000062SCOTCVQ02+000000PRSWM2
0269074340999992000011007004+45870+001180SY-MT+0402LFBL V0200401N005110033019N0150001N1+00041-00121103441ADDAA106000091GA1071+003309999GF107991071051004501999999MA1103181098401MD1310081+9999MW1001REMSYN076AAXX  10074 07434 32465 70410 10004 21012 39840 40344 53008 875// 333 87611;MET052LFBL 100700Z 04010KT 9999 BKN011 00/M01 Q1032 NOSIG;EQDQ01+000000PRSWM2Q02  00002PRCP06
0269074340999992000011008004+45870+001180SY-MT+0402LFBL V0200401N005110033019N0150001N1+00081-00101103501ADDAA106000091GA1071+003309999GF107991071051004501999999MA1103181098461MD1310121+9999MW1001REMSYN076AAXX  10084 07434 32465 70410 10008 21010 39846 40350 53012 875// 333 87611;MET052LFBL 100800Z 04010KT 9999 BKN011 01/M01 Q1032 NOSIG;EQDQ01+000000PRSWM2Q02  00002PRCP06
0285074340999992000011009004+45870+001180SY-MT+0402LFBL V0200401N004110033019N0100001N1+00061-00131103551ADDAA106000091GA1071+003309999GF199999051081004501001001MA1103291098511MD1310151+9999MW1001REMSYN076AAXX  10094 07434 32460 50408 10006 21013 39851 40355 53015 85800 333 85811;MET052LFBL 100900Z 04008KT 9999 BKN011 01/M01 Q1033 NOSIG;EQDQ01+000052SCOTCVQ02+000000PRSWM2Q03  00002PRCP06
0269074340999992000011010004+45870+001180SY-MT+0402LFBL V0200401N005112200019N0100001N1+00141-00121103581ADDAA106000091GA1021+004209999GF104991041081004501001001MA1103291098551MD1110151+9999MW1001REMSYN076AAXX  10104 07434 32460 40410 10014 21012 39855 40358 51015 84800 333 84814;MET052LFBL 101000Z 04010KT 9999 SCT014 02/M01 Q1033 NOSIG;EQDQ01+000000PRSWM2Q02  00002PRCP06
0269074340999992000011011004+45870+001180SY-MT+0402LFBL V0200301N005112200019N0100001N1+00231-00081103561ADDAA106000091GA1021+004809999GF102991021011004501001001MA1103291098551MD1110091+9999MW1001REMSYN076AAXX  10114 07434 32460 20310 10023 21008 39855 40356 51009 82100 333 82816;MET052LFBL 101100Z 03009KT 9999 FEW016 02/M01 Q1033 NOSIG;EQDQ01+000000PRSWM2Q02  00002PRCP06
0269074340999992000011012004+45870+001180SY-MT+0402LFBL V0200401N005112200019N0150001N1+00281-00141103531ADDAA106000091GA1021+005409999GF103991031011004501001001MA1103291098531MD1010021+9999MW1001REMSYN076AAXX  10124 07434 32465 30410 10028 21014 39853 40353 50002 83100 333 83818;MET052LFBL 101200Z 05010KT 9999 SCT018 03/M01 Q1033 NOSIG;EQDQ01+000000PRSWM2Q02  00002PRCP06
0269074340999992000011013004+45870+001180SY-MT+0402LFBL V0200401N004112200019N0150001N1+00321-00101103471ADDAA106000091GA1021+005409999GF103991031011004501001001MA1103291098481MD1810071+9999MW1001REMSYN076AAXX  10134 07434 32465 30408 10032 21010 39848 40347 58007 83100 333 83818;MET052LFBL 101300Z 04009KT 9999 SCT018 03/M01 Q1033 NOSIG;EQDQ01+000000PRSWM2Q02  00002PRCP06
0269074340999992000011014004+45870+001180SY-MT+0402LFBL V0200401N006212200019N0200001N1+00341-00151103461ADDAA106000091GA1021+006009999GF103991031011008001001001MA1103181098471MD1610081+9999MW1001REMSYN076AAXX  10144 07434 32570 30412 10034 21015 39847 40346 56008 83100 333 83820;MET052LFBL 101400Z 04011KT 9999 SCT020 03/M01 Q1032 NOSIG;EQDQ01+000000PRSWM2Q02  00002PRCP06
0269074340999992000011015004+45870+001180SY-MT+0402LFBL V0200601N005112200019N0200001N1+00301-00141103511ADDAA106000091GA1021+006009999GF104991041011008001001001MA1103291098511MD1510021+9999MW1001REMSYN076AAXX  10154 07434 32570 40610 10030 21014 39851 40351 55002 84100 333 84820;MET052LFBL 101500Z 06009KT 9999 SCT020 03/M01 Q1033 NOSIG;EQDQ01+000000PRSWM2Q02  00002PRCP06
0285074340999992000011016004+45870+001180SY-MT+0402LFBL V0200401N004110048019N0200001N1+00141-00181103581ADDAA106000091GA1071+004809999GF199999051051004501001001MA1103291098551MD1310071+9999MW1001REMSYN076AAXX  10164 07434 32470 50408 10014 21018 39855 40358 53007 85500 333 85616;MET052LFBL 101600Z 04009KT 9999 BKN016 01/M02 Q1033 NOSIG;EQDQ01+000052SCOTCVQ02+000000PRSWM2Q03  00002PRCP06
0285074340999992000011017004+45870+001180SY-MT+0402LFBL V0200501N004110048019N0200001N1+00061-00231103631ADDAA106000091GA1071+004809999GF199999051051004501001001MA1103391098581MD1110111+9999MW1001REMSYN076AAXX  10174 07434 32470 50508 10006 21023 39858 40363 51011 85500 333 85616;MET052LFBL 101700Z 05008KT 9999 BKN016 01/M02 Q1034 NOSIG;EQDQ01+000052SCOTCVQ02+000000PRSWM2Q03  00002PRCP06
0308074340999992000011018004+45870+001180SY-MT+0402LFBL V0200401N004112200019N0200001N1-00021-00291103671ADDAA106000091GA1021+004809999GF102991021051004501001001KA1999M+00361KA2999N-00021MA1103391098611MD1110101+9999MW1001REMSYN088AAXX  10184 07434 32470 20408 11002 21029 39861 40367 51010 82500 333 10036 21002 82616;MET053LFBL 101800Z 04007KT 9999 FEW016 M00/M03 Q1034 NOSIG;EQDQ01+000000PRSWM2Q02  00002PRCP06
0286074340999992000011019004+45870+001180SY-MT+0402LFBL V0200501N003112200019N0200001N1-00061-00301103681ADDAA106000091GA1021+004809999GF199999011051004501001001MA1103391098611MD1110061+9999MW1001REMSYN076AAXX  10194 07434 32470 10506 11006 21030 39861 40368 51006 81500 333 81616;MET053LFBL 101900Z 05007KT 9999 FEW016 M01/M03 Q1034 NOSIG;EQDQ01+000012SCOTCVQ02+000000PRSWM2Q03  00002PRCP06
0232074340999992000011020004+45870+001180SY-MT+0402LFBL V0200501N004112200019N0200001N1-00121-00351103701ADDAA106000091GF100991001001999999001001MA1103391098621MD1110041+9999MW1001REMSYN060AAXX  10204 07434 32970 00508 11012 21035 39862 40370 51004;MET047LFBL 102000Z 05008KT CAVOK M01/M03 Q1034 NOSIG;EQDQ01+000000PRSWM2Q02  00002PRCP06
0232074340999992000011021004+45870+001180SY-MT+0402LFBL V0200601N004112200019N0200001N1-00151-00381103711ADDAA106000091GF100991001001999999001001MA1103391098621MD1210011+9999MW1001REMSYN060AAXX  10214 07434 32970 00608 11015 21038 39862 40371 52001;MET047LFBL 102100Z 06009KT CAVOK M02/M04 Q1034 NOSIG;EQDQ01+000000PRSWM2Q02  00002PRCP06
0232074340999992000011022004+45870+001180SY-MT+0402LFBL V0200601N005112200019N0200001N1-00101-00351103691ADDAA106000091GF100991001001999999001001MA1103391098611MD1010001+9999MW1001REMSYN060AAXX  10224 07434 32970 00610 11010 21035 39861 40369 50000;MET047LFBL 102200Z 06009KT CAVOK M01/M03 Q1034 NOSIG;EQDQ01+000000PRSWM2Q02  00002PRCP06
0232074340999992000011023004+45870+001180SY-MT+0402LFBL V0200501N004112200019N0200001N1-00111-00341103721ADDAA106000091GF100991001001999999001001MA1103391098641MD1310021+9999MW1001REMSYN060AAXX  10234 07434 32970 00508 11011 21034 39864 40372 53002;MET047LFBL 102300Z 05007KT CAVOK M01/M03 Q1034 NOSIG;EQDQ01+000000PRSWM2Q02  00002PRCP06
0286074340999992000011100004+45870+001180SY-MT+0402LFBL V0200701N004110048019N0200001N1-00061-00281103691ADDAA106000091GA1071+004809999GF199999061051004501001001MA1103391098621MD1010001+9999MW1001REMSYN076AAXX  11004 07434 32470 60708 11006 21028 39862 40369 50000 86500 333 86616;MET053LFBL 110000Z 06008KT 9999 BKN016 M01/M03 Q1034 NOSIG;EQDQ01+000062SCOTCVQ02+000000PRSWM2Q03  00002PRCP06
0131074340999992000011101004+45870+001180FM-12+0402LFBL V0200301N004119999999N9999999N1-00061-00301103711ADDAA106000091MA1999999098641MD1110031+9999REMSYN060AAXX  11014 07434 36/// /0308 11006 21030 39864 40371 51003;EQDQ01  00002PRCP06
0131074340999992000011102004+45870+001180FM-12+0402LFBL V0200601N004119999999N9999999N1-00091-00291103721ADDAA106000091MA1999999098641MD1510001+9999REMSYN060AAXX  11024 07434 36/// /0608 11009 21029 39864 40372 55000;EQDQ01  00002PRCP06
0286074340999992000011103004+45870+001180SY-MT+0402LFBL V0200701N004110048019N0200001N1-00071-00291103691ADDAA106000091GA1071+004809999GF199999061051004501001001MA1103391098621MD1010001+9999MW1001REMSYN076AAXX  11034 07434 32470 60708 11007 21029 39862 40369 50000 86500 333 86616;MET053LFBL 110300Z 06007KT 9999 BKN016 M01/M03 Q1034 NOSIG;EQDQ01+000062SCOTCVQ02+000000PRSWM2Q03  00002PRCP06
0098074340999992000011103414+45870+001180FM-15+0402LFBL V0200701N00511220001CN0099001N1+00001-00201999999ADDMA1103391999999MW1001REMMET046LFBL 110441Z 07010KT CAVOK 00/M02 Q1034 NOSIG;EQDQ01+000000PRSWM2
0131074340999992000011104004+45870+001180FM-12+0402LFBL V0200601N006219999999N9999999N1-00011-00281103691ADDAA106000091MA1999999098631MD1510011+9999REMSYN060AAXX  11044 07434 36/// /0612 11001 21028 39863 40369 55001;EQDQ01  00002PRCP06
0231074340999992000011105004+45870+001180SY-MT+0402LFBL V0200701N005112200019N0200001N1+00001-00241103711ADDAA106000091GF100991001001999999001001MA1103391098651MD1310011+9999MW1001REMSYN060AAXX  11054 07434 32970 00710 10000 21024 39865 40371 53001;MET046LFBL 110500Z 07010KT CAVOK 00/M02 Q1034 NOSIG;EQDQ01+000000PRSWM2Q02  00002PRCP06
0318074340999992000011106004+45870+001180SY-MT+0402LFBL V0200601N005112200019N0200001N1-00031-00221103741ADDAA106000091GF100991001001999999001001GJ103309IA1099IA2999-00309KA1999M+00021KA2999N-00161MA1103391098671MD1310051+9999MW1001REMSYN094AAXX  11064 07434 32970 00610 11003 21022 39867 40374 53005 333 10002 21016 31103 55055 70000;MET047LFBL 110600Z 06010KT CAVOK M00/M02 Q1034 NOSIG;EQDQ01+000000PRSWM2Q02  00002PRCP06
0269074340999992000011107004+45870+001180SY-MT+0402LFBL V0200601N005110039019N0200001N1+00021-00171103761ADDAA106000091GA1071+003909999GF107991071051004501001001MA1103491098701MD1310071+9999MW1001REMSYN076AAXX  11074 07434 32470 70610 10002 21017 39870 40376 53007 87500 333 87613;MET052LFBL 110700Z 06009KT 9999 BKN013 00/M02 Q1035 NOSIG;EQDQ01+000000PRSWM2Q02  00002PRCP06
0269074340999992000011108004+45870+001180SY-MT+0402LFBL V0200801N005110039019N0150001N1+00061-00161103771ADDAA106000091GA1071+003909999GF107991071051004501001001MA1103491098721MD1210071+9999MW1001REMSYN076AAXX  11084 07434 32465 70810 10006 21016 39872 40377 52007 87500 333 87613;MET052LFBL 110800Z 08009KT 9999 BKN013 01/M02 Q1035 NOSIG;EQDQ01+000000PRSWM2Q02  00002PRCP06
0269074340999992000011109004+45870+001180SY-MT+0402LFBL V0200901N004110039019N0150001N1+00081-00171103801ADDAA106000091GA1071+003909999GF107991071051004501001001MA1103491098751MD1210081+9999MW1001REMSYN076AAXX  11094 07434 32465 70908 10008 21017 39875 40380 52008 87500 333 87613;MET052LFBL 110900Z 09007KT 9999 BKN013 01/M02 Q1035 NOSIG;EQDQ01+000000PRSWM2Q02  00002PRCP06
0269074340999992000011110004+45870+001180SY-MT+0402LFBL V0201001N002110039019N0200001N1+00091-00171103801ADDAA106000091GA1071+003909999GF107991071051004501001001MA1103491098751MD1110051+9999MW1001REMSYN076AAXX  11104 07434 32470 71004 10009 21017 39875 40380 51005 87500 333 87613;MET052LFBL 111000Z 10004KT 9999 BKN013 01/M02 Q1035 NOSIG;EQDQ01+000000PRSWM2Q02  00002PRCP06
0276074340999992000011111004+45870+001180SY-MT+0402LFBL V0200701N003110042019N0200001N1+00121-00171103791ADDAA106000091GA1071+004209999GF107991071051004501999999MA1103491098751MD1110031+9999MW1001REMSYN076AAXX  11114 07434 32470 70706 10012 21017 39875 40379 51003 875// 333 87614;MET059LFBL 111100Z 07005KT 9999 BKN014 01/M02 Q1035 BECMG BKN016;EQDQ01+000000PRSWM2Q02  00002PRCP06
0276074340999992000011112004+45870+001180SY-MT+0402LFBL V0200701N002110042019N0200001N1+00131-00181103731ADDAA106000091GA1071+004209999GF107991071051004501999999MA1103491098691MD1810061+9999MW1001REMSYN076AAXX  11124 07434 32470 70704 10013 21018 39869 40373 58006 875// 333 87614;MET059LFBL 111200Z 07005KT 9999 BKN014 01/M02 Q1035 BECMG BKN016;EQDQ01+000000PRSWM2Q02  00002PRCP06
0313074340999992000011113004+45870+001180SY-MT+0402LFBL V0200401N002110042019N0200001N1+00131-00081103661ADDAA106000091GA1021+003309999GA2071+004209999GF107991071081004501999999MA1103391098631MD1810121+9999MW1001REMSYN082AAXX  11134 07434 32470 70404 10013 21008 39863 40366 58012 878// 333 82811 86614;MET074LFBL 111300Z 05004KT 340V100 9999 FEW011 BKN014 01/M01 Q1034 BECMG BKN016;EQDQ01+000000PRSWM2Q02  00002PRCP06
0305074340999992000011114004+45870+001180SY-MT+0402LFBL V0200101N001010042019N0200001N1+00101-00051103631ADDAA106000091GA1021+003309999GA2071+004209999GF107991071081004501999999MA1103391098591MD1610161+9999MW1001REMSYN082AAXX  11144 07434 32470 70102 10010 21005 39859 40363 56016 878// 333 82811 86614;MET066LFBL 111400Z 01002KT 9999 FEW011 BKN014 01/M00 Q1034 BECMG BKN016;EQDQ01+000000PRSWM2Q02  00002PRCP06
0323074340999992000011115004+45870+001180SY-MT+0402LFBL V0203501N002110042019N0040001N1+00091-00041103651ADDAA106000091AY121031AY221031GA1021+003309999GA2071+004209999GF107991071081004501999999MA1103391098611MD1510081+9999MW1101REMSYN088AAXX  11154 07434 31440 73504 10009 21004 39861 40365 55008 71022 878// 333 82811 86614;MET062LFBL 111500Z 35004KT 4000 BR FEW011 BKN014 01/M00 Q1034 NOSIG;EQDQ01  00002PRCP06Q02    003PRSWM1
0294074340999992000011116004+45870+001180SY-MT+0402LFBL V0203601N002110042019N0040001N1+00081-00051103631ADDAA106000091AY121999AY221999GA1071+004209999GF107991071051004501999999MA1103391098591MD1610041+9999MW1101REMSYN082AAXX  11164 07434 31440 73604 10008 21005 39859 40363 56004 71022 875// 333 87614;MET055LFBL 111600Z 35003KT 4000 BR BKN014 01/M00 Q1034 NOSIG;EQDQ01  00002PRCP06Q02    003PRSWM1
0294074340999992000011117004+45870+001180SY-MT+0402LFBL V0203501N002110051019N0040001N1+00071-00071103621ADDAA106000091AY121999AY221999GA1071+005109999GF107991071051004501999999MA1103391098581MD1810011+9999MW1101REMSYN082AAXX  11174 07434 31440 73504 10007 21007 39858 40362 58001 71022 875// 333 87617;MET055LFBL 111700Z 35003KT 4000 BR BKN017 01/M01 Q1034 NOSIG;EQDQ01  00002PRCP06Q02    003PRSWM1
0307074340999992000011118004+45870+001180SY-MT+0402LFBL V0200201N002110054019N0060001N1+00061-00071103611ADDAA106000091GA1071+005409999GF107991071051004501999999KA1999M+00151KA2999N-00031MA1103291098571MD1610041+9999MW1001REMSYN088AAXX  11184 07434 32456 70204 10006 21007 39857 40361 56004 875// 333 10015 21003 87618;MET052LFBL 111800Z 02003KT 6000 BKN018 01/M01 Q1033 NOSIG;EQDQ01+000000PRSWM2Q02  00002PRCP06
0269074340999992000011119004+45870+001180SY-MT+0402LFBL V0203601N001010051019N0080001N1+00091-00091103611ADDAA106000091GA1071+005109999GF107991071051004501999999MA1103291098571MD1610021+9999MW1001REMSYN076AAXX  11194 07434 32458 73602 10009 21009 39857 40361 56002 875// 333 87617;MET052LFBL 111900Z 36003KT 8000 BKN017 01/M01 Q1033 NOSIG;EQDQ01+000000PRSWM2Q02  00002PRCP06
0269074340999992000011120004+45870+001180SY-MT+0402LFBL V0200201N001010054019N0080001N1+00081-00131103581ADDAA106000091GA1071+005409999GF107991071051004501999999MA1103291098541MD1810041+9999MW1001REMSYN076AAXX  11204 07434 32458 70202 10008 21013 39854 40358 58004 875// 333 87618;MET052LFBL 112000Z 02003KT 8000 BKN018 01/M01 Q1033 NOSIG;EQDQ01+000000PRSWM2Q02  00002PRCP06
