0131075350999992000010100004+44750+001400FM-12+026499999V0209999C000019999999N9999999N1+00681+00681102701ADDAA106000091MA1999999099501MD1110091+9999REMSYN060AAXX  01004 07535 36/// /0000 10068 20068 39950 40270 51009;EQDQ01  00002PRCP06
0131075350999992000010101004+44750+001400FM-12+026499999V0203001N001019999999N9999999N1+00701+00701102691ADDAA106000091MA1999999099501MD1110071+9999REMSYN060AAXX  01014 07535 36/// /3002 10070 20070 39950 40269 51007;EQDQ01  00002PRCP06
0131075350999992000010102004+44750+001400FM-12+026499999V0203101N001019999999N9999999N1+00691+00691102731ADDAA106000091MA1999999099531MD1310041+9999REMSYN060AAXX  01024 07535 36/// /3102 10069 20069 39953 40273 53004;EQDQ01  00002PRCP06
0131075350999992000010103004+44750+001400FM-12+026499999V0209999C000019999999N9999999N1+00681+00681102741ADDAA106000091MA1999999099541MD1310041+9999REMSYN060AAXX  01034 07535 36/// /0000 10068 20068 39954 40274 53004;EQDQ01  00002PRCP06
0131075350999992000010104004+44750+001400FM-12+026499999V0203401N001019999999N9999999N1+00681+00681102731ADDAA106000091MA1999999099531MD1010031+9999REMSYN060AAXX  01044 07535 36/// /3402 10068 20068 39953 40273 50003;EQDQ01  00002PRCP06
0201075350999992000010105004+44750+001400FM-12+026499999V0209999C000010001519N0001001N1+00671+00671102751ADDAA106000091AY141999AY221999GA1091+999999999GF109991091999999999999999MA1999999099551MD1310021+9999MW1471REMSYN066AAXX  01054 07535 31/01 90000 10067 20067 39955 40275 53002 74742;EQDQ01  00002PRCP06
0287075350999992000010106004+44750+001400FM-12+026499999V0209999C000010001519N0001001N1+00661+00661102771ADDAA106000091AY141061AY221061GA1091+999999999GF109991091999999999999999GJ100009IA1119IA2999+00609KA1999M+00751KA2999N+00661MA1999999099571MD1310031+9999MW1451REMSYN100AAXX  01064 07535 31/01 90000 10066 20066 39957 40277 53003 74542 333 10075 20066 32006 55000 70016;EQDQ01  00002PRCP06
0201075350999992000010107004+44750+001400FM-12+026499999V0209999C000010001519N0001001N1+00661+00661102841ADDAA106000091AY141999AY241999GA1091+999999999GF109991091999999999999999MA1999999099641MD1310111+9999MW1451REMSYN066AAXX  01074 07535 31/01 90000 10066 20066 39964 40284 53011 74544;EQDQ01  00002PRCP06
0201075350999992000010108004+44750+001400FM-12+026499999V0209999C000010001519N0001001N1+00671+00671102891ADDAA106000091AY141999AY241999GA1091+999999999GF109991091999999999999999MA1999999099691MD1310141+9999MW1451REMSYN066AAXX  01084 07535 31/01 90000 10067 20067 39969 40289 53014 74544;EQDQ01  00002PRCP06
0201075350999992000010109004+44750+001400FM-12+026499999V0202801N001010001519N0001001N1+00691+00691102941ADDAA106000091AY141031AY241031GA1091+999999999GF109991091999999999999999MA1999999099741MD1110171+9999MW1451REMSYN066AAXX  01094 07535 31/01 92802 10069 20069 39974 40294 51017 74544;EQDQ01  00002PRCP06
0201075350999992000010110004+44750+001400FM-12+026499999V0203001N001010001519N0001001N1+00721+00721102991ADDAA106000091AY141999AY241999GA1091+999999999GF109991091999999999999999MA1999999099791MD1210151+9999MW1451REMSYN066AAXX  01104 07535 31/01 93002 10072 20072 39979 40299 52015 74544;EQDQ01  00002PRCP06
0201075350999992000010111004+44750+001400FM-12+026499999V0203201N001010001519N0001001N1+00751+00751102981ADDAA106000091AY141999AY241999GA1091+999999999GF109991091999999999999999MA1999999099781MD1010091+9999MW1451REMSYN066AAXX  01114 07535 31/01 93202 10075 20075 39978 40298 50009 74544;EQDQ01  00002PRCP06
0131075350999992000010112004+44750+001400FM-12+026499999V0203501N001019999999N9999999N1+00781+00781102931ADDAA106000091MA1999999099741MD1010001+9999REMSYN060AAXX  01124 07535 36/// /3502 10078 20078 39974 40293 50000;EQDQ01  00002PRCP06
0131075350999992000010113004+44750+001400FM-12+026499999V0200101N001019999999N9999999N1+00801+00801102901ADDAA106000091MA1999999099711MD1810081+9999REMSYN060AAXX  01134 07535 36/// /0102 10080 20080 39971 40290 58008;EQDQ01  00002PRCP06
0131075350999992000010114004+44750+001400FM-12+026499999V0200701N001019999999N9999999N1+00851+00841102871ADDAA106000091MA1999999099691MD1610091+9999REMSYN060AAXX  01144 07535 36/// /0702 10085 20084 39969 40287 56009;EQDQ01  00002PRCP06
0131075350999992000010115004+44750+001400FM-12+026499999V0200201N001019999999N9999999N1+00861+00781102881ADDAA106000091MA1999999099701MD1510041+9999REMSYN060AAXX  01154 07535 36/// /0202 10086 20078 39970 40288 55004;EQDQ01  00002PRCP06
0131075350999992000010116004+44750+001400FM-12+026499999V0209999C000019999999N9999999N1+00841+00751102901ADDAA106000091MA1999999099721MD1310011+9999REMSYN060AAXX  01164 07535 36/// /0000 10084 20075 39972 40290 53001;EQDQ01  00002PRCP06
0131075350999992000010117004+44750+001400FM-12+026499999V0201101N001019999999N9999999N1+00811+00751102911ADDAA106000091MA1999999099721MD1110031+9999REMSYN060AAXX  01174 07535 36/// /1102 10081 20075 39972 40291 51003;EQDQ01  00002PRCP06
0173075350999992000010118004+44750+001400FM-12+026499999V0201101N001019999999N9999999N1+00781+00741102931ADDAA106000091KA1999M+00871KA2999N+00661MA1999999099741MD1210041+9999REMSYN076AAXX  01184 07535 36/// /1102 10078 20074 39974 40293 52004 333 10087 20066;EQDQ01  00002PRCP06
0131075350999992000010119004+44750+001400FM-12+026499999V0209999C000019999999N9999999N1+00781+00751102971ADDAA106000091MA1999999099781MD1310061+9999REMSYN060AAXX  01194 07535 36/// /0000 10078 20075 39978 40297 53006;EQDQ01  00002PRCP06
0131075350999992000010120004+44750+001400FM-12+026499999V0209999C000019999999N9999999N1+00761+00751103001ADDAA106000091MA1999999099801MD1210081+9999REMSYN060AAXX  01204 07535 36/// /0000 10076 20075 39980 40300 52008;EQDQ01  00002PRCP06
0131075350999992000010121004+44750+001400FM-12+026499999V0209999C000019999999N9999999N1+00741+00731103001ADDAA106000091MA1999999099801MD1110061+9999REMSYN060AAXX  01214 07535 36/// /0000 10074 20073 39980 40300 51006;EQDQ01  00002PRCP06
0131075350999992000010122004+44750+001400FM-12+026499999V0201301N001019999999N9999999N1+00681+00671103011ADDAA106000091MA1999999099801MD1110021+9999REMSYN060AAXX  01224 07535 36/// /1302 10068 20067 39980 40301 51002;EQDQ01  00002PRCP06
0131075350999992000010123004+44750+001400FM-12+026499999V0203601N001019999999N9999999N1+00691+00681103011ADDAA106000091MA1999999099811MD1310011+9999REMSYN060AAXX  01234 07535 36/// /3602 10069 20068 39981 40301 53001;EQDQ01  00002PRCP06
0131075350999992000010200004+44750+001400FM-12+026499999V0203401N001019999999N9999999N1+00691+00681102991ADDAA106000091MA1999999099791MD1810011+9999REMSYN060AAXX  02004 07535 36/// /3402 10069 20068 39979 40299 58001;EQDQ01  00002PRCP06
0131075350999992000010201004+44750+001400FM-12+026499999V0209999C000019999999N9999999N1+00671+00661102981ADDAA106000091MA1999999099771MD1810031+9999REMSYN060AAXX  02014 07535 36/// /0000 10067 20066 39977 40298 58003;EQDQ01  00002PRCP06
0131075350999992000010202004+44750+001400FM-12+026499999V0200401N001019999999N9999999N1+00671+00671102991ADDAA106000091MA1999999099781MD1510031+9999REMSYN060AAXX  02024 07535 36/// /0402 10067 20067 39978 40299 55003;EQDQ01  00002PRCP06
0131075350999992000010203004+44750+001400FM-12+026499999V0209999C000019999999N9999999N1+00661+00651102971ADDAA106000091MA1999999099761MD1710031+9999REMSYN060AAXX  02034 07535 36/// /0000 10066 20065 39976 40297 57003;EQDQ01  00002PRCP06
0131075350999992000010204004+44750+001400FM-12+026499999V0203601N001019999999N9999999N1+00641+00631102961ADDAA106000091MA1999999099751MD1810021+9999REMSYN060AAXX  02044 07535 36/// /3602 10064 20063 39975 40296 58002;EQDQ01  00002PRCP06
0201075350999992000010205004+44750+001400FM-12+026499999V0203501N001010001519N0001001N1+00631+00631102961ADDAA106000091AY141999AY221999GA1091+999999999GF109991091999999999999999MA1999999099751MD1610031+9999MW1471REMSYN066AAXX  02054 07535 31/01 93502 10063 20063 39975 40296 56003 74742;EQDQ01  00002PRCP06
0287075350999992000010206004+44750+001400FM-12+026499999V0203401N001010001519N0001001N1+00641+00641103001ADDAA106000091AY141061AY241061GA1091+999999999GF109991091999999999999999GJ100009IA1119IA2999+00509KA1999M+00781KA2999N+00631MA1999999099791MD1310031+9999MW1451REMSYN100AAXX  02064 07535 31/01 93402 10064 20064 39979 40300 53003 74544 333 10078 20063 32005 55000 70000;EQDQ01  00002PRCP06
0201075350999992000010207004+44750+001400FM-12+026499999V0200301N001010001519N0001001N1+00621+00621103011ADDAA106000091AY141999AY241999GA1091+999999999GF109991091999999999999999MA1999999099801MD1310051+9999MW1451REMSYN066AAXX  02074 07535 31/01 90302 10062 20062 39980 40301 53005 74544;EQDQ01  00002PRCP06
0201075350999992000010208004+44750+001400FM-12+026499999V0209999C000010001519N0001001N1+00621+00621103031ADDAA106000091AY141999AY241999GA1091+999999999GF109991091999999999999999MA1999999099821MD1110071+9999MW1451REMSYN066AAXX  02084 07535 31/01 90000 10062 20062 39982 40303 51007 74544;EQDQ01  00002PRCP06
0201075350999992000010209004+44750+001400FM-12+026499999V0203301N001010001519N0001001N1+00641+00641103061ADDAA106000091AY141031AY241031GA1091+999999999GF109991091999999999999999MA1999999099851MD1310061+9999MW1451REMSYN066AAXX  02094 07535 31/01 93302 10064 20064 39985 40306 53006 74544;EQDQ01  00002PRCP06
0201075350999992000010210004+44750+001400FM-12+026499999V0203601N001010001519N0001001N1+00661+00661103091ADDAA106000091AY141999AY241999GA1091+999999999GF109991091999999999999999MA1999999099881MD1310081+9999MW1451REMSYN066AAXX  02104 07535 31/01 93602 10066 20066 39988 40309 53008 74544;EQDQ01  00002PRCP06
0217075350999992000010211004+44750+001400FM-12+026499999V0200101N001010009019N0015001N1+00721+00721103031ADDAA106000091AY141999AY221999GA1071+000909069GF107991071061000751999999MA1999999099831MD1010011+9999MW1281REMSYN082AAXX  02114 07535 31115 70102 10072 20072 39983 40303 50001 72842 876// 333 87703;EQDQ01  00002PRCP06
0131075350999992000010212004+44750+001400FM-12+026499999V0203401N001019999999N9999999N1+00771+00741102951ADDAA106000091MA1999999099761MD1810091+9999REMSYN060AAXX  02124 07535 36/// /3402 10077 20074 39976 40295 58009;EQDQ01  00002PRCP06
0131075350999992000010213004+44750+001400FM-12+026499999V0203601N001019999999N9999999N1+00861+00661102901ADDAA106000091MA1999999099721MD1610161+9999REMSYN060AAXX  02134 07535 36/// /3602 10086 20066 39972 40290 56016;EQDQ01  00002PRCP06
0131075350999992000010214004+44750+001400FM-12+026499999V0200601N003119999999N9999999N1+01001+00621102871ADDAA106000091MA1999999099701MD1610131+9999REMSYN060AAXX  02144 07535 36/// /0606 10100 20062 39970 40287 56013;EQDQ01  00002PRCP06
0131075350999992000010215004+44750+001400FM-12+026499999V0200401N002119999999N9999999N1+00921+00541102881ADDAA106000091MA1999999099701MD1610061+9999REMSYN060AAXX  02154 07535 36/// /0404 10092 20054 39970 40288 56006;EQDQ01  00002PRCP06
0131075350999992000010216004+44750+001400FM-12+026499999V0200201N001019999999N9999999N1+00891+00551102881ADDAA106000091MA1999999099701MD1610021+9999REMSYN060AAXX  02164 07535 36/// /0202 10089 20055 39970 40288 56002;EQDQ01  00002PRCP06
0131075350999992000010217004+44750+001400FM-12+026499999V0200301N001019999999N9999999N1+00841+00461102891ADDAA106000091MA1999999099701MD1410001+9999REMSYN060AAXX  02174 07535 36/// /0302 10084 20046 39970 40289 54000;EQDQ01  00002PRCP06
0145075350999992000010218004+44750+001400FM-12+026499999V0200201N002119999999N9999999N1+00741+00361999999ADDAA106000091KA1999M+01011MA1999999099701REMSYN075AAXX  02184 07535 36/// /0204 10074 20036 39970 4090 54000 333 10101 20062;EQDQ01  00002PRCP06
0131075350999992000010219004+44750+001400FM-12+026499999V0200701N001019999999N9999999N1+00661+00381102941ADDAA106000091MA1999999099731MD1310031+9999REMSYN060AAXX  02194 07535 36/// /0702 10066 20038 39973 40294 53003;EQDQ01  00002PRCP06
0131075350999992000010220004+44750+001400FM-12+026499999V0201201N001019999999N9999999N1+00631+00431102971ADDAA106000091MA1999999099761MD1310061+9999REMSYN060AAXX  02204 07535 36/// /1202 10063 20043 39976 40297 53006;EQDQ01  00002PRCP06
0131075350999992000010221004+44750+001400FM-12+026499999V0200401N001019999999N9999999N1+00601+00351102981ADDAA106000091MA1999999099761MD1110061+9999REMSYN060AAXX  02214 07535 36/// /0402 10060 20035 39976 40298 51006;EQDQ01  00002PRCP06
0131075350999992000010222004+44750+001400FM-12+026499999V0201301N002119999999N9999999N1+00381+00311102991ADDAA106000091MA1999999099751MD1010021+9999REMSYN060AAXX  02224 07535 36/// /1304 10038 20031 39975 40299 50002;EQDQ01  00002PRCP06
0131075350999992000010223004+44750+001400FM-12+026499999V0201201N002119999999N9999999N1+00331+00271103031ADDAA106000091MA1999999099781MD1310021+9999REMSYN060AAXX  02234 07535 36/// /1204 10033 20027 39978 40303 53002;EQDQ01  00002PRCP06
0131075350999992000010300004+44750+001400FM-12+026499999V0201201N002119999999N9999999N1+00421+00331103001ADDAA106000091MA1999999099761MD1010001+9999REMSYN060AAXX  03004 07535 36/// /1204 10042 20033 39976 40300 50000;EQDQ01  00002PRCP06
0131075350999992000010301004+44750+001400FM-12+026499999V0201201N002119999999N9999999N1+00461+00371102971ADDAA106000091MA1999999099741MD1810011+9999REMSYN060AAXX  03014 07535 36/// /1204 10046 20037 39974 40297 58001;EQDQ01  00002PRCP06
0131075350999992000010302004+44750+001400FM-12+026499999V0201101N002119999999N9999999N1+00551+00401102981ADDAA106000091MA1999999099761MD1510021+9999REMSYN060AAXX  03024 07535 36/// /1104 10055 20040 39976 40298 55002;EQDQ01  00002PRCP06
0131075350999992000010303004+44750+001400FM-12+026499999V0201101N003119999999N9999999N1+00601+00351102961ADDAA106000091MA1999999099741MD1710021+9999REMSYN060AAXX  03034 07535 36/// /1106 10060 20035 39974 40296 57002;EQDQ01  00002PRCP06
0131075350999992000010304004+44750+001400FM-12+026499999V0201301N003119999999N9999999N1+00601+00331102951ADDAA106000091MA1999999099731MD1810011+9999REMSYN060AAXX  03044 07535 36/// /1306 10060 20033 39973 40295 58001;EQDQ01  00002PRCP06
0131075350999992000010305004+44750+001400FM-12+026499999V0201801N002119999999N9999999N1+00601+00331102921ADDAA106000091MA1999999099711MD1710051+9999REMSYN060AAXX  03054 07535 36/// /1804 10060 20033 39971 40292 57005;EQDQ01  00002PRCP06
0282075350999992000010306004+44750+001400FM-12+026499999V0201601N001010120019N0080001N1+00601+00351102951ADDAA106000091AA224000091GA1061+012009059GF106991061051012501001001GJ101269IA1019IA2999-00109KA1999M+00741KA2999N+00301MA1999999099731MD1510011+9999REMSYN106AAXX  03064 07535 32658 61602 10060 20035 39973 40295 55001 86500 333 10074 20030 30101 55021 70000 86640;EQDQ01  00002PRCP06
0189075350999992000010307004+44750+001400FM-12+026499999V0201301N001010099019N0150001N1+00591+00341102991ADDAA106000091GA1071+009909059GF107991071051012501001001MA1999999099771MD1310041+9999REMSYN076AAXX  03074 07535 32665 71302 10059 20034 39977 40299 53004 87500 333 87633;EQDQ01  00002PRCP06
0189075350999992000010308004+44750+001400FM-12+026499999V0201401N002110099019N0200001N1+00611+00381103021ADDAA106000091GA1071+009909059GF107991071051012501001001MA1999999099801MD1310091+9999REMSYN076AAXX  03084 07535 32670 71404 10061 20038 39980 40302 53009 87500 333 87633;EQDQ01  00002PRCP06
0189075350999992000010309004+44750+001400FM-12+026499999V0201601N003110099019N0200001N1+00671+00331103051ADDAA106000091GA1071+009909059GF108991071051012501999999MA1999999099841MD1210111+9999REMSYN076AAXX  03094 07535 32670 81606 10067 20033 39984 40305 52011 875// 333 87633;EQDQ01  00002PRCP06
0189075350999992000010310004+44750+001400FM-12+026499999V0201601N004110108019N0250001N1+00741+00331103071ADDAA106000091GA1071+010809059GF107991071051012501001001MA1999999099871MD1210101+9999REMSYN076AAXX  03104 07535 32675 71608 10074 20033 39987 40307 52010 87500 333 87636;EQDQ01  00002PRCP06
0189075350999992000010311004+44750+001400FM-12+026499999V0201501N004112200019N0300001N1+00931+00351103001ADDAA106000091GA1031+012009059GF103991031051012501001001MA1999999099821MD1010021+9999REMSYN076AAXX  03114 07535 32680 31508 10093 20035 39982 40300 50002 83500 333 83640;EQDQ01  00002PRCP06
0131075350999992000010312004+44750+001400FM-12+026499999V0201401N003119999999N9999999N1+00901+00401102951ADDAA106000091MA1999999099771MD1810071+9999REMSYN060AAXX  03124 07535 36/// /1406 10090 20040 39977 40295 58007;EQDQ01  00002PRCP06
0131075350999992000010313004+44750+001400FM-12+026499999V0201701N003119999999N9999999N1+00951+00331102881ADDAA106000091MA1999999099711MD1810161+9999REMSYN060AAXX  03134 07535 36/// /1706 10095 20033 39971 40288 58016;EQDQ01  00002PRCP06
0189075350999992000010314004+44750+001400FM-12+026499999V0202101N002110120019N0300001N1+01101+00401102801ADDAA106000091GA1051+012009059GF105991051051012501001001MA1999999099651MD1810171+9999REMSYN076AAXX  03144 07535 32680 52104 10110 20040 39965 40280 58017 85500 333 85640;EQDQ01  00002PRCP06
0189075350999992000010315004+44750+001400FM-12+026499999V0201601N003110120019N0250001N1+00981+00421102801ADDAA106000091GA1051+012009059GF105991051051012501001001MA1999999099631MD1610141+9999REMSYN076AAXX  03154 07535 32675 51606 10098 20042 39963 40280 56014 85500 333 85640;EQDQ01  00002PRCP06
0189075350999992000010316004+44750+001400FM-12+026499999V0201701N002112200019N0200001N1+00881+00381102791ADDAA106000091GA1021+012009059GF102991021051012501001011MA1999999099611MD1610101+9999REMSYN076AAXX  03164 07535 32670 21704 10088 20038 39961 40279 56010 82501 333 82640;EQDQ01  00002PRCP06
0131075350999992000010317004+44750+001400FM-12+026499999V0201301N002119999999N9999999N1+00711+00371102821ADDAA106000091MA1999999099621MD1510031+9999REMSYN060AAXX  03174 07535 36/// /1304 10071 20037 39962 40282 55003;EQDQ01  00002PRCP06
0173075350999992000010318004+44750+001400FM-12+026499999V0201501N001019999999N9999999N1+00511+00341102851ADDAA106000091KA1999M+01121KA2999N+00511MA1999999099631MD1510001+9999REMSYN076AAXX  03184 07535 36/// /1502 10051 20034 39963 40285 55000 333 10112 20051;EQDQ01  00002PRCP06
0131075350999992000010319004+44750+001400FM-12+026499999V0201301N002119999999N9999999N1+00471+00351102881ADDAA106000091MA1999999099651MD1310041+9999REMSYN060AAXX  03194 07535 36/// /1304 10047 20035 39965 40288 53004;EQDQ01  00002PRCP06
0131075350999992000010320004+44750+001400FM-12+026499999V0201301N002119999999N9999999N1+00341+00281102901ADDAA106000091MA1999999099661MD1210041+9999REMSYN060AAXX  03204 07535 36/// /1304 10034 20028 39966 40290 52004;EQDQ01  00002PRCP06
0131075350999992000010321004+44750+001400FM-12+026499999V0201401N003119999999N9999999N1+00341+00251102891ADDAA106000091MA1999999099651MD1010021+9999REMSYN060AAXX  03214 07535 36/// /1406 10034 20025 39965 40289 50002;EQDQ01  00002PRCP06
0131075350999992000010322004+44750+001400FM-12+026499999V0201401N003119999999N9999999N1+00411+00321102901ADDAA106000091MA1999999099661MD1210011+9999REMSYN060AAXX  03224 07535 36/// /1406 10041 20032 39966 40290 52001;EQDQ01  00002PRCP06
0131075350999992000010323004+44750+001400FM-12+026499999V0201301N003119999999N9999999N1+00331+00231102901ADDAA106000091MA1999999099651MD1710011+9999REMSYN060AAXX  03234 07535 36/// /1306 10033 20023 39965 40290 57001;EQDQ01  00002PRCP06
0131075350999992000010400004+44750+001400FM-12+026499999V0201401N003119999999N9999999N1+00321+00221102851ADDAA106000091MA1999999099611MD1810041+9999REMSYN060AAXX  04004 07535 36/// /1406 10032 20022 39961 40285 58004;EQDQ01  00002PRCP06
0131075350999992000010401004+44750+001400FM-12+026499999V0201301N003119999999N9999999N1+00331+00211102811ADDAA106000091MA1999999099571MD1810091+9999REMSYN060AAXX  04014 07535 36/// /1306 10033 20021 39957 40281 58009;EQDQ01  00002PRCP06
0131075350999992000010402004+44750+001400FM-12+026499999V0201301N003119999999N9999999N1+00311+00181102801ADDAA106000091MA1999999099561MD1610091+9999REMSYN060AAXX  04024 07535 36/// /1306 10031 20018 39956 40280 56009;EQDQ01  00002PRCP06
0131075350999992000010403004+44750+001400FM-12+026499999V0201301N003119999999N9999999N1+00291+00171102791ADDAA106000091MA1999999099541MD1610071+9999REMSYN060AAXX  04034 07535 36/// /1306 10029 20017 39954 40279 56007;EQDQ01  00002PRCP06
0131075350999992000010405004+44750+001400FM-12+026499999V0200801N001019999999N9999999N1+00311+00191102781ADDAA106000091MA1999999099541MD1510021+9999REMSYN060AAXX  04054 07535 36/// /0802 10031 20019 39954 40278 55002;EQDQ01  00002PRCP06
0211075350999992000010406004+44750+001400FM-12+026499999V0201401N003119999999N9999999N1+00201+00141102771ADDAA106000091GJ102109IA2999-00209KA1999M+00521KA2999N+00181MA1999999099511MD1810031+9999REMSYN094AAXX  04064 07535 36/// /1406 10020 20014 39951 40277 58003 333 10052 20018 3/102 55035 70000;EQDQ01  00002PRCP06
0189075350999992000010407004+44750+001400FM-12+026499999V0201201N001012200019N0150001N1+00271+00201102761ADDAA106000091GA1011+012009059GF101991011051012501001001MA1999999099511MD1810021+9999REMSYN076AAXX  04074 07535 32665 11202 10027 20020 39951 40276 58002 81500 333 81640;EQDQ01  00002PRCP06
0189075350999992000010408004+44750+001400FM-12+026499999V0201501N001012200019N0120001N1+00331+00181102801ADDAA106000091GA1011+012009059GF101991011051012501001021MA1999999099561MD1310021+9999REMSYN076AAXX  04084 07535 32662 11502 10033 20018 39956 40280 53002 81502 333 81640;EQDQ01  00002PRCP06
0189075350999992000010410004+44750+001400FM-12+026499999V0209999C000012200019N0120001N1+00551+00271102861ADDAA106000091GA1031+075009019GF103991001001999999001011MA1999999099641MD1110131+9999REMSYN076AAXX  04104 07535 32962 30000 10055 20027 39964 40286 51013 80001 333 83075;EQDQ01  00002PRCP06
0189075350999992000010411004+44750+001400FM-12+026499999V0202501N001012200019N0120001N1+00901+00401102811ADDAA106000091GA1041+075009019GF104991001001999999001011MA1999999099631MD1010071+9999REMSYN076AAXX  04114 07535 32962 42502 10090 20040 39963 40281 50007 80001 333 84075;EQDQ01  00002PRCP06
0131075350999992000010412004+44750+001400FM-12+026499999V0202801N001019999999N9999999N1+01061+00521102741ADDAA106000091MA1999999099581MD1810021+9999REMSYN060AAXX  04124 07535 36/// /2802 10106 20052 39958 40274 58002;EQDQ01  00002PRCP06
0189075350999992000010413004+44750+001400FM-12+026499999V0202301N002110750019N0150001N1+01171+00561102671ADDAA106000091GA1051+075009019GF105991001001999999001011MA1999999099531MD1810111+9999REMSYN076AAXX  04134 07535 32965 52304 10117 20056 39953 40267 58011 80001 333 85075;EQDQ01  00002PRCP06
0131075350999992000010414004+44750+001400FM-12+026499999V0202101N002119999999N9999999N1+01201+00541102611ADDAA106000091MA1999999099471MD1810161+9999REMSYN060AAXX  04144 07535 36/// /2104 10120 20054 39947 40261 58016;EQDQ01  00002PRCP06
0131075350999992000010415004+44750+001400FM-12+026499999V0202301N002119999999N9999999N1+01061+00521102611ADDAA106000091MA1999999099461MD1610121+9999REMSYN060AAXX  04154 07535 36/// /2304 10106 20052 39946 40261 56012;EQDQ01  00002PRCP06
0195075350999992000010416004+44750+001400FM-12+026499999V0202301N002119999999N0150001N1+00901+00501102651ADDAA106000091GA1011+033009039GF107991011001999999031021MA1999999099481MD1510051+9999REMSYN082AAXX  04164 07535 32965 72304 10090 20050 39948 40265 55005 81032 333 81361 87075;EQDQ01  00002PRCP06
0131075350999992000010417004+44750+001400FM-12+026499999V0202101N002119999999N9999999N1+00791+00521102721ADDAA106000091MA1999999099531MD1310061+9999REMSYN060AAXX  04174 07535 36/// /2104 10079 20052 39953 40272 53006;EQDQ01  00002PRCP06
0173075350999992000010418004+44750+001400FM-12+026499999V0202201N001019999999N9999999N1+00761+00521102741ADDAA106000091KA1999M+01261KA2999N+00181MA1999999099551MD1210091+9999REMSYN076AAXX  04184 07535 36/// /2202 10076 20052 39955 40274 52009 333 10126 20018;EQDQ01  00002PRCP06
0131075350999992000010419004+44750+001400FM-12+026499999V0201901N002119999999N9999999N1+00741+00541102781ADDAA106000091MA1999999099591MD1110111+9999REMSYN060AAXX  04194 07535 36/// /1904 10074 20054 39959 40278 51011;EQDQ01  00002PRCP06
0131075350999992000010420004+44750+001400FM-12+026499999V0201901N002119999999N9999999N1+00771+00551102801ADDAA106000091MA1999999099611MD1210081+9999REMSYN060AAXX  04204 07535 36/// /1904 10077 20055 39961 40280 52008;EQDQ01  00002PRCP06
0131075350999992000010421004+44750+001400FM-12+026499999V0201701N002119999999N9999999N1+00771+00551102811ADDAA106000091MA1999999099621MD1110071+9999REMSYN060AAXX  04214 07535 36/// /1704 10077 20055 39962 40281 51007;EQDQ01  00002PRCP06
0131075350999992000010422004+44750+001400FM-12+026499999V0201801N002119999999N9999999N1+00781+00491102811ADDAA106000091MA1999999099621MD1110031+9999REMSYN060AAXX  04224 07535 36/// /1804 10078 20049 39962 40281 51003;EQDQ01  00002PRCP06
0131075350999992000010423004+44750+001400FM-12+026499999V0201901N003119999999N9999999N1+00821+00441102801ADDAA106000091MA1999999099611MD1010001+9999REMSYN060AAXX  04234 07535 36/// /1906 10082 20044 39961 40280 50000;EQDQ01  00002PRCP06
0128075350999992000010500004+44750+001400FM-12+026499999V0201801N002119999999N9999999N1+00681+00591102801ADDAA103000191MA1999999099601MD1810021+9999REMSYN076AAXX  05004 07535 /6/// /1804 10068 20059 39960 40280 58002 69921 333 69927;
0131075350999992000010501004+44750+001400FM-12+026499999V0201601N001019999999N9999999N1+00661+00621102781ADDAA106000091MA1999999099581MD1810041+9999REMSYN060AAXX  05014 07535 36/// /1602 10066 20062 39958 40278 58004;EQDQ01  00002PRCP06
0131075350999992000010502004+44750+001400FM-12+026499999V0201301N001019999999N9999999N1+00651+00641102761ADDAA106000091MA1999999099561MD1810051+9999REMSYN060AAXX  05024 07535 36/// /1302 10065 20064 39956 40276 58005;EQDQ01  00002PRCP06
0131075350999992000010503004+44750+001400FM-12+026499999V0201501N002119999999N9999999N1+00651+00641102701ADDAA106000091MA1999999099501MD1810101+9999REMSYN060AAXX  05034 07535 36/// /1504 10065 20064 39950 40270 58010;EQDQ01  00002PRCP06
0131075350999992000010504004+44750+001400FM-12+026499999V0201401N002119999999N9999999N1+00671+00661102621ADDAA106000091MA1999999099431MD1810151+9999REMSYN060AAXX  05044 07535 36/// /1404 10067 20066 39943 40262 58015;EQDQ01  00002PRCP06
0223075350999992000010505004+44750+001400FM-12+026499999V0201101N00101001201CN0020001N1+00681+00671102601ADDAA106000091AY121999AY221999GA1041+001509079GF108991081051001501999999MA1999999099411MD1610151+9999MW1101REMSYN088AAXX  05054 07535 31220 81102 10068 20067 39941 40260 56015 71022 885// 333 84705 86623;EQDQ01  00002PRCP06
0303075350999992000010506004+44750+001400FM-12+026499999V0201401N00211001201CN0020001N1+00681+00651102571ADDAA112000191AA224000291AY121061AY221061GA1041+001509079GF108991081051001501999999GJ104329IA1119IA2999+00609KA1999M+00821KA2999N+00651MA1999999099381MD1610121+9999MW1101REMSYN124AAXX  05064 07535 11220 81404 10068 20065 39938 40257 56012 69922 71022 885// 333 10082 20065 32006 55072 70002 84705 86623;
0186075350999992000010507004+44750+001400FM-12+026499999V0201401N002119999999N0020001N1+00681+00641999999ADDAA106000091GA1041+001509079GF108991999999001501999999MA1999999099351REMSYN087AAXX  05074 07535 31220 81404 10068 20064 39935 4254 58008 71022 885// 333 84705 86623;EQDQ01  00002PRCP06
0195075350999992000010508004+44750+001400FM-12+026499999V0201401N00311001201CN0060001N1+00691+00601102541ADDAA106000091GA1021+001509079GF108991081051001501999999MA1999999099351MD1610061+9999REMSYN082AAXX  05084 07535 32256 81406 10069 20060 39935 40254 56006 885// 333 82705 86633;EQDQ01  00002PRCP06
0189075350999992000010509004+44750+001400FM-12+026499999V0201401N001010120019N0070001N1+00741+00631102521ADDAA106000091GA1071+012009059GF107991071051012501999999MA1999999099341MD1610041+9999REMSYN076AAXX  05094 07535 32657 71402 10074 20063 39934 40252 56004 875// 333 87640;EQDQ01  00002PRCP06
0189075350999992000010510004+44750+001400FM-12+026499999V0201301N002112200019N0070001N1+01001+00721102481ADDAA106000091GA1021+012009059GF102991021051012501001001MA1999999099331MD1810021+9999REMSYN076AAXX  05104 07535 32657 21304 10100 20072 39933 40248 58002 82500 333 82640;EQDQ01  00002PRCP06
0189075350999992000010512004+44750+001400FM-12+026499999V0201201N001010099019N0070001N1+01041+00781102361ADDAA106000091GA1071+009909059GF107991071051012501999999MA1999999099221MD1810121+9999REMSYN076AAXX  05124 07535 32657 71202 10104 20078 39922 40236 58012 875// 333 87633;EQDQ01  00002PRCP06
0131075350999992000010513004+44750+001400FM-12+026499999V0201101N001019999999N9999999N1+01101+00771102231ADDAA106000091MA1999999099101MD1810231+9999REMSYN060AAXX  05134 07535 36/// /1102 10110 20077 39910 40223 58023;EQDQ01  00002PRCP06
0195075350999992000010514004+44750+001400FM-12+026499999V0200901N002112200019N0120001N1+01151+00801102151ADDAA106000091GA1011+009909089GF104991011011012501001011MA1999999099021MD1610291+9999REMSYN082AAXX  05144 07535 32662 40904 10115 20080 39902 40215 56029 81101 333 81833 84075;EQDQ01  00002PRCP06
0189075350999992000010515004+44750+001400FM-12+026499999V0201201N002110750019N0140001N1+01121+00791102081ADDAA106000091GA1061+075009019GF106991001001999999001021MA1999999098951MD1610271+9999REMSYN076AAXX  05154 07535 32964 61204 10112 20079 39895 40208 56027 80002 333 86075;EQDQ01  00002PRCP06
0189075350999992000010516004+44750+001400FM-12+026499999V0200701N002110750019N0140001N1+01011+00771102041ADDAA106000091GA1061+075009019GF106991001001999999001021MA1999999098901MD1610201+9999REMSYN076AAXX  05164 07535 32964 60704 10101 20077 39890 40204 56020 80002 333 86075;EQDQ01  00002PRCP06
0131075350999992000010517004+44750+001400FM-12+026499999V0201001N001019999999N9999999N1+00881+00741102021ADDAA106000091MA1999999098871MD1610151+9999REMSYN060AAXX  05174 07535 36/// /1002 10088 20074 39887 40202 56015;EQDQ01  00002PRCP06
0131075350999992000010519004+44750+001400FM-12+026499999V0201301N002119999999N9999999N1+00731+00621101991ADDAA106000091MA1999999098821MD1610081+9999REMSYN060AAXX  05194 07535 36/// /1304 10073 20062 39882 40199 56008;EQDQ01  00002PRCP06
0131075350999992000010521004+44750+001400FM-12+026499999V0201401N003119999999N9999999N1+00751+00531101951ADDAA106000091MA1999999098781MD1710061+9999REMSYN060AAXX  05214 07535 36/// /1406 10075 20053 39878 40195 57006;EQDQ01  00002PRCP06
0131075350999992000010522004+44750+001400FM-12+026499999V0201701N002119999999N9999999N1+00751+00511101961ADDAA106000091MA1999999098791MD1510031+9999REMSYN060AAXX  05224 07535 36/// /1704 10075 20051 39879 40196 55003;EQDQ01  00002PRCP06
0131075350999992000010601004+44750+001400FM-12+026499999V0201301N003119999999N9999999N1+00551+00381101981ADDAA106000091MA1999999098791MD1010001+9999REMSYN060AAXX  06014 07535 36/// /1306 10055 20038 39879 40198 50000;EQDQ01  00002PRCP06
0131075350999992000010602004+44750+001400FM-12+026499999V0201501N003119999999N9999999N1+00531+00351102011ADDAA106000091MA1999999098821MD1310021+9999REMSYN060AAXX  06024 07535 36/// /1506 10053 20035 39882 40201 53002;EQDQ01  00002PRCP06
0131075350999992000010603004+44750+001400FM-12+026499999V0201401N004119999999N9999999N1+00511+00331102021ADDAA106000091MA1999999098821MD1310011+9999REMSYN060AAXX  06034 07535 36/// /1408 10051 20033 39882 40202 53001;EQDQ01  00002PRCP06
0131075350999992000010604004+44750+001400FM-12+026499999V0201401N002119999999N9999999N1+00491+00321102041ADDAA106000091MA1999999098841MD1110051+9999REMSYN060AAXX  06044 07535 36/// /1404 10049 20032 39884 40204 51005;EQDQ01  00002PRCP06
0189075350999992000010605004+44750+001400FM-12+026499999V0209999C000012200019N0120001N1+00461+00331102101ADDAA106000091GA1041+075009019GF104991001001999999001021MA1999999098901MD1310081+9999REMSYN076AAXX  06054 07535 32962 40000 10046 20033 39890 40210 53008 80002 333 84075;EQDQ01  00002PRCP06
0282075350999992000010606004+44750+001400FM-12+026499999V0201701N001012200019N0120001N1+00301+00271102151ADDAA106000091AA224000091GA1041+075009019GF104991001001999999001021GJ101809IA1099IA2999-00309KA1999M+00821KA2999N+00241MA1999999098931MD1310111+9999REMSYN106AAXX  06064 07535 32962 41702 10030 20027 39893 40215 53011 80002 333 10082 20024 31103 55030 70000 84075;EQDQ01  00002PRCP06
0189075350999992000010607004+44750+001400FM-12+026499999V0201501N002112200019N0120001N1+00371+00341102231ADDAA106000091GA1041+075009019GF104991001001999999001021MA1999999099011MD1310171+9999REMSYN076AAXX  06074 07535 32962 41504 10037 20034 39901 40223 53017 80002 333 84075;EQDQ01  00002PRCP06
0189075350999992000010608004+44750+001400FM-12+026499999V0201201N001012200019N0120001N1+00441+00351102281ADDAA106000091GA1041+075009019GF104991001001999999001021MA1999999099071MD1310171+9999REMSYN076AAXX  06084 07535 32962 41202 10044 20035 39907 40228 53017 80002 333 84075;EQDQ01  00002PRCP06
0189075350999992000010609004+44750+001400FM-12+026499999V0201401N002110750019N0140001N1+00631+00361102331ADDAA106000091GA1061+075009019GF106991001001999999001011MA1999999099141MD1110211+9999REMSYN076AAXX  06094 07535 32964 61404 10063 20036 39914 40233 51021 80001 333 86075;EQDQ01  00002PRCP06
0158075350999992000010610004+44750+001400FM-12+026499999V0201901N001019999999N0150001N1+00891+00491999999ADDAA106000091GF106991999999999999999999MA1999999099211REMSYN075AAXX  06104 07535 32965 61902 10089 20049 39921 0237 53020 80002 333 86075;EQDQ01  00002PRCP06
0189075350999992000010611004+44750+001400FM-12+026499999V0202401N001010750019N0150001N1+00961+00541102391ADDAA106000091GA1061+075009019GF106991001001999999001021MA1999999099231MD1110161+9999REMSYN076AAXX  06114 07535 32965 62402 10096 20054 39923 40239 51016 80002 333 86075;EQDQ01  00002PRCP06
0189075350999992000010612004+44750+001400FM-12+026499999V0200101N001010750019N0150001N1+00991+00591102371ADDAA106000091GA1061+075009019GF106991001001999999001021MA1999999099221MD1010081+9999REMSYN076AAXX  06124 07535 32965 60102 10099 20059 39922 40237 50008 80002 333 86075;EQDQ01  00002PRCP06
0189075350999992000010613004+44750+001400FM-12+026499999V0203301N001010750019N0150001N1+01161+00591102361ADDAA106000091GA1061+075009019GF106991001001999999001021MA1999999099231MD1110021+9999REMSYN076AAXX  06134 07535 32965 63302 10116 20059 39923 40236 51002 80002 333 86075;EQDQ01  00002PRCP06
0189075350999992000010614004+44750+001400FM-12+026499999V0202501N001010750019N0180001N1+01341+00401102361ADDAA106000091GA1061+075009019GF106991001001999999001021MA1999999099241MD1310011+9999REMSYN076AAXX  06144 07535 32968 62502 10134 20040 39924 40236 53001 80002 333 86075;EQDQ01  00002PRCP06
0189075350999992000010615004+44750+001400FM-12+026499999V0202401N001010750019N0180001N1+01221+00441102391ADDAA106000091GA1061+075009019GF106991001001999999001021MA1999999099261MD1310041+9999REMSYN076AAXX  06154 07535 32968 62402 10122 20044 39926 40239 53004 80002 333 86075;EQDQ01  00002PRCP06
0189075350999992000010616004+44750+001400FM-12+026499999V0202501N001010750019N0180001N1+01091+00481102421ADDAA106000091GA1061+075009019GF106991001001999999001021MA1999999099281MD1310051+9999REMSYN076AAXX  06164 07535 32968 62502 10109 20048 39928 40242 53005 80002 333 86075;EQDQ01  00002PRCP06
0131075350999992000010617004+44750+001400FM-12+026499999V0202101N002119999999N9999999N1+00801+00481102501ADDAA106000091MA1999999099321MD1310081+9999REMSYN060AAXX  06174 07535 36/// /2104 10080 20048 39932 40250 53008;EQDQ01  00002PRCP06
0173075350999992000010618004+44750+001400FM-12+026499999V0201901N001019999999N9999999N1+00681+00431102561ADDAA106000091KA1999M+01361KA2999N+00281MA1999999099371MD1310111+9999REMSYN076AAXX  06184 07535 36/// /1902 10068 20043 39937 40256 53011 333 10136 20028;EQDQ01  00002PRCP06
0131075350999992000010620004+44750+001400FM-12+026499999V0201901N001019999999N9999999N1+00411+00311102701ADDAA106000091MA1999999099471MD1110151+9999REMSYN060AAXX  06204 07535 36/// /1902 10041 20031 39947 40270 51015;EQDQ01  00002PRCP06
0131075350999992000010621004+44750+001400FM-12+026499999V0201701N001019999999N9999999N1+00331+00291102731ADDAA106000091MA1999999099491MD1110121+9999REMSYN060AAXX  06214 07535 36/// /1702 10033 20029 39949 40273 51012;EQDQ01  00002PRCP06
0131075350999992000010622004+44750+001400FM-12+026499999V0201501N003119999999N9999999N1+00281+00241102791ADDAA106000091MA1999999099541MD1310111+9999REMSYN060AAXX  06224 07535 36/// /1506 10028 20024 39954 40279 53011;EQDQ01  00002PRCP06
0131075350999992000010623004+44750+001400FM-12+026499999V0201601N001019999999N9999999N1+00241+00231102811ADDAA106000091MA1999999099561MD1210091+9999REMSYN060AAXX  06234 07535 36/// /1602 10024 20023 39956 40281 52009;EQDQ01  00002PRCP06
0131075350999992000010700004+44750+001400FM-12+026499999V0201101N001019999999N9999999N1+00261+00251102821ADDAA106000091MA1999999099571MD1110081+9999REMSYN060AAXX  07004 07535 36/// /1102 10026 20025 39957 40282 51008;EQDQ01  00002PRCP06
0131075350999992000010701004+44750+001400FM-12+026499999V0201501N002119999999N9999999N1+00061+00001102871ADDAA106000091MA1999999099591MD1210051+9999REMSYN060AAXX  07014 07535 36/// /1504 10006 20000 39959 40287 52005;EQDQ01  00002PRCP06
0131075350999992000010702004+44750+001400FM-12+026499999V0201301N003119999999N9999999N1+00181+00181102831ADDAA106000091MA1999999099571MD1010011+9999REMSYN060AAXX  07024 07535 36/// /1306 10018 20018 39957 40283 50001;EQDQ01  00002PRCP06
0131075350999992000010703004+44750+001400FM-12+026499999V0200801N001019999999N9999999N1+00211+00201102851ADDAA106000091MA1999999099591MD1210021+9999REMSYN060AAXX  07034 07535 36/// /0802 10021 20020 39959 40285 52002;EQDQ01  00002PRCP06
0131075350999992000010704004+44750+001400FM-12+026499999V0201301N002119999999N9999999N1+00211+00201102831ADDAA106000091MA1999999099571MD1710021+9999REMSYN060AAXX  07044 07535 36/// /1304 10021 20020 39957 40283 57002;EQDQ01  00002PRCP06
0195075350999992000010705004+44750+001400FM-12+026499999V0201501N002112200019N0060001N1+00131+00121102821ADDAA106000091GA1011+012009069GF104991011051012501001011MA1999999099551MD1810021+9999REMSYN082AAXX  07054 07535 32656 41504 10013 20012 39955 40282 58002 81501 333 81640 84075;EQDQ01  00002PRCP06
0303075350999992000010706004+44750+001400FM-12+026499999V0201401N001010078019N0050001N1+00201+00171102821ADDAA103999929AA224999929AY161061AY211061GA1071+007809059GF108991071051008001999999GJ104809IA1019IA2999-00209KA1999M+00681KA2999N+00061MA1999999099561MD1510031+9999MW1211REMSYN124AAXX  07064 07535 /1550 81402 10020 20017 39956 40282 55003 69902 72161 875// 333 10068 20006 30102 55080 69907 79999 87626;
0170075350999992000010707004+44750+001400FM-12+026499999V0203001N001010078019N0050001N1+00281+00251102841ADDAA106000021GA1071+007809059GF108991071051008001999999MA1999999099591MD1310021+9999REMSYN076AAXX  07074 07535 32550 83002 10028 20025 39959 40284 53002 875// 333 87626;
0204075350999992000010708004+44750+001400FM-12+026499999V0201601N00101007501CN0045001N1+00321+00311102841ADDAA106000021AY121999AY221999GA1041+007809069GF108991071051008001999999MA1999999099601MD1210051+9999MW1101REMSYN088AAXX  07084 07535 31545 81602 10032 20031 39960 40284 52005 71022 875// 333 84626 87640;
0176075350999992000010709004+44750+001400FM-12+026499999V0201801N002110078019N0070001N1+00421+00381102841ADDAA106000021GA1051+007809069GF108991071051008001999999MA1999999099611MD1110051+9999REMSYN082AAXX  07094 07535 32557 81804 10042 20038 39961 40284 51005 875// 333 85626 87633;
0170075350999992000010710004+44750+001400FM-12+026499999V0209999C000010099019N0060001N1+00541+00471102851ADDAA106000021GA1071+009909059GF108991071051012501999999MA1999999099631MD1310041+9999REMSYN076AAXX  07104 07535 32656 80000 10054 20047 39963 40285 53004 875// 333 87633;
0170075350999992000010711004+44750+001400FM-12+026499999V0209999C000010099019N0070001N1+00651+00501102801ADDAA106000021GA1071+009909059GF108991071051012501999999MA1999999099601MD1010001+9999REMSYN076AAXX  07114 07535 32657 80000 10065 20050 39960 40280 50000 875// 333 87633;
0112075350999992000010712004+44750+001400FM-12+026499999V0202301N001019999999N9999999N1+00641+00541102761ADDAA106000021MA1999999099561MD1810051+9999REMSYN060AAXX  07124 07535 36/// /2302 10064 20054 39956 40276 58005;
0189075350999992000010713004+44750+001400FM-12+026499999V0201801N002110120019N0070001N1+00821+00581102641ADDAA106000091GA1071+012009059GF107991071051012501999999MA1999999099461MD1810171+9999REMSYN076AAXX  07134 07535 32657 71804 10082 20058 39946 40264 58017 875// 333 87640;EQDQ01  00002PRCP06
0189075350999992000010714004+44750+001400FM-12+026499999V0203601N002110120019N0100001N1+00931+00591102611ADDAA106000091GA1061+012009059GF106991061051012501001001MA1999999099441MD1610161+9999REMSYN076AAXX  07144 07535 32660 63604 10093 20059 39944 40261 56016 86500 333 86640;EQDQ01  00002PRCP06
0189075350999992000010715004+44750+001400FM-12+026499999V0209999C000010120019N0120001N1+00861+00611102611ADDAA106000091GA1071+012009059GF107991071051012501999999MA1999999099441MD1610121+9999REMSYN076AAXX  07154 07535 32662 70000 10086 20061 39944 40261 56012 875// 333 87640;EQDQ01  00002PRCP06
0195075350999992000010716004+44750+001400FM-12+026499999V0200601N00101012001CN0100001N1+00791+00601102601ADDAA106000091GA1041+012009069GF105991051051012501031001MA1999999099421MD1710041+9999REMSYN082AAXX  07164 07535 32660 50602 10079 20060 39942 40260 57004 85530 333 84640 83360;EQDQ01  00002PRCP06
0131075350999992000010717004+44750+001400FM-12+026499999V0200801N001019999999N9999999N1+00691+00581102601ADDAA106000091MA1999999099411MD1810031+9999REMSYN060AAXX  07174 07535 36/// /0802 10069 20058 39941 40260 58003;EQDQ01  00002PRCP06
0173075350999992000010718004+44750+001400FM-12+026499999V0201401N002119999999N9999999N1+00581+00511102631ADDAA106000091KA1999M+00991KA2999N+00191MA1999999099421MD1510021+9999REMSYN076AAXX  07184 07535 36/// /1404 10058 20051 39942 40263 55002 333 10099 20019;EQDQ01  00002PRCP06
0131075350999992000010719004+44750+001400FM-12+026499999V0201501N002119999999N9999999N1+00541+00501102631ADDAA106000091MA1999999099421MD1510001+9999REMSYN060AAXX  07194 07535 36/// /1504 10054 20050 39942 40263 55000;EQDQ01  00002PRCP06
0131075350999992000010720004+44750+001400FM-12+026499999V0201501N002119999999N9999999N1+00541+00501102631ADDAA106000091MA1999999099421MD1110011+9999REMSYN060AAXX  07204 07535 36/// /1504 10054 20050 39942 40263 51001;EQDQ01  00002PRCP06
0131075350999992000010721004+44750+001400FM-12+026499999V0201401N002119999999N9999999N1+00631+00531102641ADDAA106000091MA1999999099441MD1310021+9999REMSYN060AAXX  07214 07535 36/// /1404 10063 20053 39944 40264 53002;EQDQ01  00002PRCP06
0131075350999992000010722004+44750+001400FM-12+026499999V0201801N002119999999N9999999N1+00651+00551102621ADDAA106000091MA1999999099421MD1010001+9999REMSYN060AAXX  07224 07535 36/// /1804 10065 20055 39942 40262 50000;EQDQ01  00002PRCP06
0131075350999992000010723004+44750+001400FM-12+026499999V0201501N003119999999N9999999N1+00611+00551102581ADDAA106000091MA1999999099381MD1810041+9999REMSYN060AAXX  07234 07535 36/// /1506 10061 20055 39938 40258 58004;EQDQ01  00002PRCP06
0131075350999992000010800004+44750+001400FM-12+026499999V0202001N001019999999N9999999N1+00611+00521102561ADDAA106000091MA1999999099361MD1710081+9999REMSYN060AAXX  08004 07535 36/// /2002 10061 20052 39936 40256 57008;EQDQ01  00002PRCP06
0131075350999992000010801004+44750+001400FM-12+026499999V0201601N002119999999N9999999N1+00581+00541102531ADDAA106000091MA1999999099331MD1610091+9999REMSYN060AAXX  08014 07535 36/// /1604 10058 20054 39933 40253 56009;EQDQ01  00002PRCP06
0131075350999992000010802004+44750+001400FM-12+026499999V0209999C000019999999N9999999N1+00601+00511102541ADDAA106000091MA1999999099341MD1510041+9999REMSYN060AAXX  08024 07535 36/// /0000 10060 20051 39934 40254 55004;EQDQ01  00002PRCP06
0131075350999992000010803004+44750+001400FM-12+026499999V0201401N003119999999N9999999N1+00601+00501102511ADDAA106000091MA1999999099311MD1710051+9999REMSYN060AAXX  08034 07535 36/// /1406 10060 20050 39931 40251 57005;EQDQ01  00002PRCP06
0131075350999992000010804004+44750+001400FM-12+026499999V0201401N002119999999N9999999N1+00611+00471102501ADDAA106000091MA1999999099301MD1810031+9999REMSYN060AAXX  08044 07535 36/// /1404 10061 20047 39930 40250 58003;EQDQ01  00002PRCP06
0309075350999992000010806004+44750+001400FM-12+026499999V0202001N00101002101CN0025001N1+00591+00521102491ADDAA103999929AA224999929AY161061AY221061GA1011+001809079GF108991071051002501999999GJ100489IA1099IA2999+00409KA1999M+00661KA2999N+00511MA1999999099291MD1510021+9999MW1211REMSYN130AAXX  08064 07535 /1325 82002 10059 20052 39929 40249 55002 69902 72162 875// 333 10066 20051 31004 55008 69907 79999 81706 87626;
0204075350999992000010807004+44750+001400FM-12+026499999V0201601N00311002101CN0030001N1+00621+00501102511ADDAA106000021AY121999AY221999GA1041+001809079GF108991071051002501999999MA1999999099311MD1310011+9999MW1101REMSYN088AAXX  08074 07535 31330 81606 10062 20050 39931 40251 53001 71022 875// 333 84706 87620;
0210075350999992000010808004+44750+001400FM-12+026499999V0201501N002110048019N0040001N1+00601+00461102531ADDAA101999929AY161999AY221999GA1061+004809069GF108991061051004501071999MA1999999099331MD1310051+9999MW1211REMSYN094AAXX  08084 07535 21440 81504 10060 20046 39933 40253 53005 72162 8657/ 333 69905 86616 87359;
0204075350999992000010809004+44750+001400FM-12+026499999V0201601N002110099019N0050001N1+00631+00451102571ADDAA103999929AY161031AY221031GA1071+009909059GF108991071051012501999999MA1999999099371MD1310081+9999MW1011REMSYN088AAXX  08094 07535 21650 81604 10063 20045 39937 40257 53008 70162 875// 333 69907 87633;
0170075350999992000010810004+44750+001400FM-12+026499999V0201701N003110120019N0060001N1+00691+00471102561ADDAA106000021GA1071+012009059GF108991071051012501999999MA1999999099371MD1110061+9999REMSYN076AAXX  08104 07535 32656 81706 10069 20047 39937 40256 51006 875// 333 87640;
0170075350999992000010811004+44750+001400FM-12+026499999V0201901N003110150019N0070001N1+00731+00461102551ADDAA106000021GA1071+015009059GF108991071051017501999999MA1999999099361MD1010031+9999REMSYN076AAXX  08114 07535 32757 81906 10073 20046 39936 40255 50003 875// 333 87650;
0118075350999992000010812004+44750+001400FM-12+026499999V0201901N003119999999N9999999N1+00811+00471102471ADDAA106000791MA1999999099291MD1810081+9999REMSYN066AAXX  08124 07535 16/// /1906 10081 20047 39929 40247 58008 69901;
0112075350999992000010813004+44750+001400FM-12+026499999V0202101N002119999999N9999999N1+00831+00491102431ADDAA106000021MA1999999099261MD1810111+9999REMSYN060AAXX  08134 07535 36/// /2104 10083 20049 39926 40243 58011;
0112075350999992000010814004+44750+001400FM-12+026499999V0201901N002119999999N9999999N1+00851+00491102401ADDAA106000021MA1999999099231MD1610131+9999REMSYN060AAXX  08144 07535 36/// /1904 10085 20049 39923 40240 56013;
0131075350999992000010815004+44750+001400FM-12+026499999V0202001N002119999999N9999999N1+00831+00511102401ADDAA106000091MA1999999099231MD1610061+9999REMSYN060AAXX  08154 07535 36/// /2004 10083 20051 39923 40240 56006;EQDQ01  00002PRCP06
0131075350999992000010816004+44750+001400FM-12+026499999V0201801N002119999999N9999999N1+00801+00491102391ADDAA106000091MA1999999099221MD1610041+9999REMSYN060AAXX  08164 07535 36/// /1804 10080 20049 39922 40239 56004;EQDQ01  00002PRCP06
0131075350999992000010817004+44750+001400FM-12+026499999V0202201N001019999999N9999999N1+00781+00511102431ADDAA106000091MA1999999099251MD1310021+9999REMSYN060AAXX  08174 07535 36/// /2202 10078 20051 39925 40243 53002;EQDQ01  00002PRCP06
0160075350999992000010818004+44750+001400FM-12+026499999V0201401N002119999999N9999999N1+00771+00521102431ADDAA112000791KA1999M+00861KA2999N+00581MA1999999099251MD1310021+9999REMSYN082AAXX  08184 07535 16/// /1404 10077 20052 39925 40243 53002 69902 333 10086 20058;
0131075350999992000010819004+44750+001400FM-12+026499999V0201601N002119999999N9999999N1+00721+00551102421ADDAA106000091MA1999999099241MD1010021+9999REMSYN060AAXX  08194 07535 36/// /1604 10072 20055 39924 40242 50002;EQDQ01  00002PRCP06
0131075350999992000010820004+44750+001400FM-12+026499999V0201501N002119999999N9999999N1+00701+00581102411ADDAA106000091MA1999999099221MD1810031+9999REMSYN060AAXX  08204 07535 36/// /1504 10070 20058 39922 40241 58003;EQDQ01  00002PRCP06
0131075350999992000010821004+44750+001400FM-12+026499999V0201701N002119999999N9999999N1+00711+00601102411ADDAA106000091MA1999999099231MD1510021+9999REMSYN060AAXX  08214 07535 36/// /1704 10071 20060 39923 40241 55002;EQDQ01  00002PRCP06
0131075350999992000010822004+44750+001400FM-12+026499999V0201501N002119999999N9999999N1+00701+00611102401ADDAA106000091MA1999999099221MD1610021+9999REMSYN060AAXX  08224 07535 36/// /1504 10070 20061 39922 40240 56002;EQDQ01  00002PRCP06
0131075350999992000010823004+44750+001400FM-12+026499999V0201501N002119999999N9999999N1+00701+00611102361ADDAA106000091MA1999999099181MD1810041+9999REMSYN060AAXX  08234 07535 36/// /1504 10070 20061 39918 40236 58004;EQDQ01  00002PRCP06
0131075350999992000010900004+44750+001400FM-12+026499999V0201601N001019999999N9999999N1+00701+00591102331ADDAA106000091MA1999999099151MD1810081+9999REMSYN060AAXX  09004 07535 36/// /1602 10070 20059 39915 40233 58008;EQDQ01  00002PRCP06
0131075350999992000010901004+44750+001400FM-12+026499999V0201601N001019999999N9999999N1+00711+00571102301ADDAA106000091MA1999999099121MD1610101+9999REMSYN060AAXX  09014 07535 36/// /1602 10071 20057 39912 40230 56010;EQDQ01  00002PRCP06
0131075350999992000010902004+44750+001400FM-12+026499999V0201601N002119999999N9999999N1+00701+00581102281ADDAA106000091MA1999999099101MD1610081+9999REMSYN060AAXX  09024 07535 36/// /1604 10070 20058 39910 40228 56008;EQDQ01  00002PRCP06
0131075350999992000010903004+44750+001400FM-12+026499999V0201701N001019999999N9999999N1+00741+00551102261ADDAA106000091MA1999999099081MD1610071+9999REMSYN060AAXX  09034 07535 36/// /1702 10074 20055 39908 40226 56007;EQDQ01  00002PRCP06
0131075350999992000010904004+44750+001400FM-12+026499999V0203601N001019999999N9999999N1+00671+00601102241ADDAA106000091MA1999999099061MD1710061+9999REMSYN060AAXX  09044 07535 36/// /3602 10067 20060 39906 40224 57006;EQDQ01  00002PRCP06
0204075350999992000010905004+44750+001400FM-12+026499999V0201501N002110015019N0020001N1+00651+00621102241ADDAA101000691AY161999AY221999GA1081+001509069GF108991081071001501999999MA1999999099051MD1610051+9999MW1601REMSYN088AAXX  09054 07535 21220 81504 10065 20062 39905 40224 56005 76062 887// 333 69965 88705;
0192075350999992000010908004+44750+001400FM-12+026499999V0209999C000010003019N0003001N1+00641+00631102291ADDAA101001091AY161999AY261999GA1091+999999999GF109991091999999999999999MA1999999099101MD1310051+9999MW1601REMSYN076AAXX  09084 07535 21/03 90000 10064 20063 39910 40229 53005 76066 333 60015;
0192075350999992000010909004+44750+001400FM-12+026499999V0202901N001010003019N0002001N1+00651+00641102351ADDAA103002091AY161031AY261031GA1091+999999999GF109991091999999999999999MA1999999099161MD1310131+9999MW1601REMSYN076AAXX  09094 07535 21/02 92902 10065 20064 39916 40235 53013 76066 333 60027;
0192075350999992000010910004+44750+001400FM-12+026499999V0203201N003110003019N0005001N1+00631+00621102401ADDAA101000191AY161999AY261999GA1091+999999999GF109991091999999999999999MA1999999099211MD1210161+9999MW1601REMSYN076AAXX  09104 07535 21/05 93206 10063 20062 39921 40240 52016 76066 333 69925;
0192075350999992000010911004+44750+001400FM-12+026499999V0203301N003110006019N0009001N1+00601+00591102421ADDAA101000591AY161999AY251999GA1091+999999999GF109991091999999999999999MA1999999099221MD1110121+9999MW1511REMSYN076AAXX  09114 07535 21/09 93306 10060 20059 39922 40242 51012 75165 333 69945;
0128075350999992000010912004+44750+001400FM-12+026499999V0203301N004119999999N9999999N1+00521+00511102431ADDAA103000591MA1999999099221MD1110061+9999REMSYN076AAXX  09124 07535 /6/// /3308 10052 20051 39922 40243 51006 60031 333 69967;
0122075350999992000010913004+44750+001400FM-12+026499999V0203501N005119999999N9999999N1+00471+00431102421ADDAA101000791MA1999999099211MD1010001+9999REMSYN070AAXX  09134 07535 26/// /3510 10047 20043 39921 40242 50000 333 69905;
0122075350999992000010914004+44750+001400FM-12+026499999V0203501N003119999999N9999999N1+00451+00411102451ADDAA101000191MA1999999099231MD1310011+9999REMSYN070AAXX  09144 07535 26/// /3506 10045 20041 39923 40245 53001 333 69925;
0122075350999992000010915004+44750+001400FM-12+026499999V0203501N004119999999N9999999N1+00441+00381102541ADDAA103000591MA1999999099321MD1310101+9999REMSYN070AAXX  09154 07535 26/// /3508 10044 20038 39932 40254 53010 333 69947;
0122075350999992000010916004+44750+001400FM-12+026499999V0203601N005119999999N9999999N1+00441+00321102631ADDAA101000191MA1999999099411MD1310201+9999REMSYN070AAXX  09164 07535 26/// /3610 10044 20032 39941 40263 53020 333 69925;
0122075350999992000010917004+44750+001400FM-12+026499999V0203401N003119999999N9999999N1+00431+00311102741ADDAA101000791MA1999999099511MD1310281+9999REMSYN070AAXX  09174 07535 26/// /3406 10043 20031 39951 40274 53028 333 69905;
0166075350999992000010918004+44750+001400FM-12+026499999V0203301N003119999999N9999999N1+00461+00331102791ADDAA103000191KA1999M+00671KA2999N+00421MA1999999099561MD1110241+9999REMSYN088AAXX  09184 07535 /6/// /3306 10046 20033 39956 40279 51024 60032 333 10067 20042 69927;
0122075350999992000010919004+44750+001400FM-12+026499999V0203301N003119999999N9999999N1+00451+00301102881ADDAA101000791MA1999999099651MD1110241+9999REMSYN070AAXX  09194 07535 26/// /3306 10045 20030 39965 40288 51024 333 69905;
0122075350999992000010920004+44750+001400FM-12+026499999V0203401N003119999999N9999999N1+00451+00361102911ADDAA101000791MA1999999099681MD1110171+9999REMSYN070AAXX  09204 07535 26/// /3406 10045 20036 39968 40291 51017 333 69905;
0122075350999992000010921004+44750+001400FM-12+026499999V0203401N003119999999N9999999N1+00461+00331102961ADDAA103000791MA1999999099731MD1110171+9999REMSYN070AAXX  09214 07535 26/// /3406 10046 20033 39973 40296 51017 333 69907;
0122075350999992000010922004+44750+001400FM-12+026499999V0203301N003119999999N9999999N1+00421+00301103031ADDAA101000791MA1999999099791MD1310141+9999REMSYN070AAXX  09224 07535 26/// /3306 10042 20030 39979 40303 53014 333 69905;
0122075350999992000010923004+44750+001400FM-12+026499999V0203201N003119999999N9999999N1+00301+00241103081ADDAA101000791MA1999999099831MD1110151+9999REMSYN070AAXX  09234 07535 26/// /3206 10030 20024 39983 40308 51015 333 69905;
0128075350999992000011000004+44750+001400FM-12+026499999V0203301N002119999999N9999999N1+00291+00201103101ADDAA103000791MA1999999099841MD1110111+9999REMSYN076AAXX  10004 07535 /6/// /3304 10029 20020 39984 40310 51011 69901 333 69907;
0131075350999992000011002004+44750+001400FM-12+026499999V0203301N003119999999N9999999N1+00141+00111103151ADDAA106000091MA1999999099871MD1310041+9999REMSYN060AAXX  10024 07535 36/// /3306 10014 20011 39987 40315 53004;EQDQ01  00002PRCP06
0131075350999992000011003004+44750+001400FM-12+026499999V0203301N002119999999N9999999N1+00101+00071103161ADDAA106000091MA1999999099881MD1310041+9999REMSYN060AAXX  10034 07535 36/// /3304 10010 20007 39988 40316 53004;EQDQ01  00002PRCP06
0131075350999992000011004004+44750+001400FM-12+026499999V0203201N002119999999N9999999N1+00051+00041103181ADDAA106000091MA1999999099891MD1110051+9999REMSYN060AAXX  10044 07535 36/// /3204 10005 20004 39989 40318 51005;EQDQ01  00002PRCP06
0173075350999992000011005004+44750+001400FM-12+026499999V0203101N001012200019N0060001N1+00001-00011103201ADDAA106000091GA1001+999999999GF100991001001999999001001MA1999999099911MD1310041+9999REMSYN060AAXX  10054 07535 32956 03102 10000 21001 39991 40320 53004;EQDQ01  00002PRCP06
0259075350999992000011006004+44750+001400FM-12+026499999V0203101N002112200019N0080001N1-00051-00061103261ADDAA106000091GA1001+999999999GF100991001001999999001001GJ100009IA1099IA2999-00509KA1999M+00471KA2999N-00051MA1999999099961MD1310081+9999REMSYN094AAXX  10064 07535 32958 03104 11005 21006 39996 40326 53008 333 10047 21005 31105 55000 70032;EQDQ01  00002PRCP06
0189075350999992000011007004+44750+001400FM-12+026499999V0203201N002112200019N0120001N1-00071-00081103301ADDAA106000091GA1011+030009079GF101991011001999999031001MA1999999099991MD1310101+9999REMSYN076AAXX  10074 07535 32962 13204 11007 21008 39999 40330 53010 81030 333 81360;EQDQ01  00002PRCP06
0189075350999992000011008004+44750+001400FM-12+026499999V0203201N002112200019N0120001N1-00061-00071103361ADDAA106000091GA1011+030009079GF101991011001999999031001MA1999999100051MD1310141+9999REMSYN076AAXX  10084 07535 32962 13204 11006 21007 30005 40336 53014 81030 333 81360;EQDQ01  00002PRCP06
0189075350999992000011009004+44750+001400FM-12+026499999V0203201N002112200019N0140001N1+00031+00001103401ADDAA106000091GA1011+030009079GF101991011001999999031001MA1999999100101MD1310141+9999REMSYN076AAXX  10094 07535 32964 13204 10003 20000 30010 40340 53014 81030 333 81360;EQDQ01  00002PRCP06
0189075350999992000011010004+44750+001400FM-12+026499999V0203601N002112200019N0140001N1+00191+00061103441ADDAA106000091GA1011+030009079GF101991011001999999031001MA1999999100161MD1210171+9999REMSYN076AAXX  10104 07535 32964 13604 10019 20006 30016 40344 52017 81030 333 81360;EQDQ01  00002PRCP06
0173075350999992000011011004+44750+001400FM-12+026499999V0200101N002112200019N0150001N1+00371+00161103391ADDAA106000091GA1001+999999999GF100991001001999999001001MA1999999100131MD1010081+9999REMSYN060AAXX  10114 07535 32965 00104 10037 20016 30013 40339 50008;EQDQ01  00002PRCP06
0189075350999992000011012004+44750+001400FM-12+026499999V0200101N003112200019N0150001N1+00551+00111103341ADDAA106000091GA1011+007809029GF101991011011008001001001MA1999999100111MD1010011+9999REMSYN076AAXX  10124 07535 32565 10106 10055 20011 30011 40334 50001 81100 333 81826;EQDQ01  00002PRCP06
0189075350999992000011013004+44750+001400FM-12+026499999V0200201N003110090019N0150001N1+00551+00091103311ADDAA106000091GA1061+009009059GF106991061051008001001001MA1999999100081MD1710081+9999REMSYN076AAXX  10134 07535 32565 60206 10055 20009 30008 40331 57008 86500 333 86630;EQDQ01  00002PRCP06
0189075350999992000011014004+44750+001400FM-12+026499999V0200201N002110090019N0180001N1+00591+00111103271ADDAA106000091GA1071+009009059GF107991071051008001999999MA1999999100041MD1810091+9999REMSYN076AAXX  10144 07535 32568 70204 10059 20011 30004 40327 58009 875// 333 87630;EQDQ01  00002PRCP06
0189075350999992000011015004+44750+001400FM-12+026499999V0203601N002110099019N0180001N1+00591+00091103311ADDAA106000091GA1071+009909059GF107991071051012501999999MA1999999100081MD1510031+9999REMSYN076AAXX  10154 07535 32668 73604 10059 20009 30008 40331 55003 875// 333 87633;EQDQ01  00002PRCP06
0189075350999992000011016004+44750+001400FM-12+026499999V0203501N001010099019N0160001N1+00551+00051103351ADDAA106000091GA1071+009909059GF107991071051012501999999MA1999999100111MD1310031+9999REMSYN076AAXX  10164 07535 32666 73502 10055 20005 30011 40335 53003 875// 333 87633;EQDQ01  00002PRCP06
0131075350999992000011017004+44750+001400FM-12+026499999V0203501N002119999999N9999999N1+00491+00101103381ADDAA106000091MA1999999100141MD1110101+9999REMSYN060AAXX  10174 07535 36/// /3504 10049 20010 30014 40338 51010;EQDQ01  00002PRCP06
0173075350999992000011018004+44750+001400FM-12+026499999V0203501N003119999999N9999999N1+00421+00041103441ADDAA106000091KA1999M+00611KA2999N-00081MA1999999100191MD1310111+9999REMSYN076AAXX  10184 07535 36/// /3506 10042 20004 30019 40344 53011 333 10061 21008;EQDQ01  00002PRCP06
0131075350999992000011019004+44750+001400FM-12+026499999V0200101N003119999999N9999999N1+00281-00061103471ADDAA106000091MA1999999100201MD1110091+9999REMSYN060AAXX  10194 07535 36/// /0106 10028 21006 30020 40347 51009;EQDQ01  00002PRCP06
0131075350999992000011020004+44750+001400FM-12+026499999V0200201N002119999999N9999999N1+00141-00131103531ADDAA106000091MA1999999100241MD1110101+9999REMSYN060AAXX  10204 07535 36/// /0204 10014 21013 30024 40353 51010;EQDQ01  00002PRCP06
0131075350999992000011021004+44750+001400FM-12+026499999V0200101N002119999999N9999999N1+00091-00171103561ADDAA106000091MA1999999100261MD1310071+9999REMSYN060AAXX  10214 07535 36/// /0104 10009 21017 30026 40356 53007;EQDQ01  00002PRCP06
0131075350999992000011022004+44750+001400FM-12+026499999V0203601N002119999999N9999999N1+00061-00191103571ADDAA106000091MA1999999100271MD1110071+9999REMSYN060AAXX  10224 07535 36/// /3604 10006 21019 30027 40357 51007;EQDQ01  00002PRCP06
0131075350999992000011023004+44750+001400FM-12+026499999V0209999C000019999999N9999999N1-00171-00241103601ADDAA106000091MA1999999100271MD1110031+9999REMSYN060AAXX  10234 07535 36/// /0000 11017 21024 30027 40360 51003;EQDQ01  00002PRCP06
0131075350999992000011100004+44750+001400FM-12+026499999V0209999C000019999999N9999999N1-00231-00271103621ADDAA106000091MA1999999100281MD1210021+9999REMSYN060AAXX  11004 07535 36/// /0000 11023 21027 30028 40362 52002;EQDQ01  00002PRCP06
0131075350999992000011101004+44750+001400FM-12+026499999V0201501N001019999999N9999999N1-00271-00301103611ADDAA106000091MA1999999100271MD1010001+9999REMSYN060AAXX  11014 07535 36/// /1502 11027 21030 30027 40361 50000;EQDQ01  00002PRCP06
0131075350999992000011102004+44750+001400FM-12+026499999V0209999C000019999999N9999999N1-00261-00291103641ADDAA106000091MA1999999100301MD1310031+9999REMSYN060AAXX  11024 07535 36/// /0000 11026 21029 30030 40364 53003;EQDQ01  00002PRCP06
0131075350999992000011103004+44750+001400FM-12+026499999V0201401N001019999999N9999999N1-00361-00391103661ADDAA106000091MA1999999100311MD1310031+9999REMSYN060AAXX  11034 07535 36/// /1402 11036 21039 30031 40366 53003;EQDQ01  00002PRCP06
0131075350999992000011104004+44750+001400FM-12+026499999V0201101N002119999999N9999999N1-00221-00251103651ADDAA106000091MA1999999100311MD1110041+9999REMSYN060AAXX  11044 07535 36/// /1104 11022 21025 30031 40365 51004;EQDQ01  00002PRCP06
0173075350999992000011105004+44750+001400FM-12+026499999V0209999C000012200019N0060001N1-00371-00441103691ADDAA106000091GA1001+999999999GF100991001001999999001001MA1999999100331MD1310031+9999REMSYN060AAXX  11054 07535 32956 00000 11037 21044 30033 40369 53003;EQDQ01  00002PRCP06
0259075350999992000011106004+44750+001400FM-12+026499999V0201101N001012200019N0070001N1-00391-00431103711ADDAA106000091GA1001+999999999GF100991001001999999001001GJ102529IA1149IA2999-00809KA1999M+00421KA2999N-00401MA1999999100351MD1310041+9999REMSYN094AAXX  11064 07535 32957 01102 11039 21043 30035 40371 53004 333 10042 21040 34108 55042 70000;EQDQ01  00002PRCP06
0189075350999992000011107004+44750+001400FM-12+026499999V0202001N001012200019N0060001N1-00381-00411103761ADDAA106000091GA1021+030009079GF103991021001999999031011MA1999999100401MD1310091+9999REMSYN076AAXX  11074 07535 32956 32002 11038 21041 30040 40376 53009 82031 333 82360;EQDQ01  00002PRCP06
0189075350999992000011108004+44750+001400FM-12+026499999V0201601N001012200019N0060001N1-00431-00461103811ADDAA106000091GA1011+030009079GF101991011001999999031011MA1999999100441MD1310111+9999REMSYN076AAXX  11084 07535 32956 11602 11043 21046 30044 40381 53011 81031 333 81360;EQDQ01  00002PRCP06
0173075350999992000011109004+44750+001400FM-12+026499999V0201001N001012200019N0060001N1-00221-00271103821ADDAA106000091GA1001+999999999GF100991001001999999001001MA1999999100481MD1110131+9999REMSYN060AAXX  11094 07535 32956 01002 11022 21027 30048 40382 51013;EQDQ01  00002PRCP06
0173075350999992000011110004+44750+001400FM-12+026499999V0202401N001012200019N0060001N1+00051-00161103791ADDAA106000091GA1001+999999999GF100991001001999999001001MA1999999100481MD1110081+9999REMSYN060AAXX  11104 07535 32956 02402 10005 21016 30048 40379 51008;EQDQ01  00002PRCP06
0173075350999992000011111004+44750+001400FM-12+026499999V0202601N001012200019N0070001N1+00191-00081103741ADDAA106000091GA1001+999999999GF100991001001999999001001MA1999999100451MD1010011+9999REMSYN060AAXX  11114 07535 32957 02602 10019 21008 30045 40374 50001;EQDQ01  00002PRCP06
0217075350999992000011112004+44750+001400FM-12+026499999V0202301N002112200019N0020001N1+00231-00061103691ADDAA106000091AY101061AY201061GA1021+001509029GF102991021011001501001001MA1999999100411MD1810071+9999MW1101REMSYN082AAXX  11124 07535 31220 22304 10023 21006 30041 40369 58007 71000 82100 333 82805;EQDQ01  00002PRCP06
0217075350999992000011113004+44750+001400FM-12+026499999V0202401N002110024019N0015001N1+00111-00011103661ADDAA106000091AY111999AY211999GA1071+002409069GF107991071061002501999999MA1999999100361MD1810121+9999MW1101REMSYN082AAXX  11134 07535 31315 72404 10011 21001 30036 40366 58012 71011 876// 333 87708;EQDQ01  00002PRCP06
0217075350999992000011114004+44750+001400FM-12+026499999V0202401N001010015019N0010001N1+00111+00011103631ADDAA106000091AY121999AY221999GA1081+001509069GF108991081061001501999999MA1999999100331MD1610121+9999MW1101REMSYN082AAXX  11144 07535 31210 82402 10011 20001 30033 40363 56012 71022 886// 333 88705;EQDQ01  00002PRCP06
0217075350999992000011115004+44750+001400FM-12+026499999V0202301N001010015019N0015001N1+00081-00011103621ADDAA106000091AY111031AY211031GA1081+001509069GF108991081061001501999999MA1999999100321MD1610091+9999MW1101REMSYN082AAXX  11154 07535 31215 82302 10008 21001 30032 40362 56009 71011 886// 333 88705;EQDQ01  00002PRCP06
0217075350999992000011116004+44750+001400FM-12+026499999V0202601N001010015019N0030001N1+00041-00031103631ADDAA106000091AY121999AY221999GA1081+001509069GF108991081061001501999999MA1999999100331MD1510031+9999MW1101REMSYN082AAXX  11164 07535 31230 82602 10004 21003 30033 40363 55003 71022 886// 333 88705;EQDQ01  00002PRCP06
0131075350999992000011117004+44750+001400FM-12+026499999V0202401N001019999999N9999999N1+00001-00041103641ADDAA106000091MA1999999100331MD1510001+9999REMSYN060AAXX  11174 07535 36/// /2402 10000 21004 30033 40364 55000;EQDQ01  00002PRCP06
0173075350999992000011118004+44750+001400FM-12+026499999V0202001N001019999999N9999999N1-00031-00061103651ADDAA106000091KA1999M+00261KA2999N-00491MA1999999100341MD1210021+9999REMSYN076AAXX  11184 07535 36/// /2002 11003 21006 30034 40365 52002 333 10026 21049;EQDQ01  00002PRCP06
0131075350999992000011119004+44750+001400FM-12+026499999V0209999C000019999999N9999999N1-00061-00071103661ADDAA106000091MA1999999100341MD1210011+9999REMSYN060AAXX  11194 07535 36/// /0000 11006 21007 30034 40366 52001;EQDQ01  00002PRCP06
0131075350999992000011120004+44750+001400FM-12+026499999V0201701N001019999999N9999999N1-00101-00111103651ADDAA106000091MA1999999100331MD1010001+9999REMSYN060AAXX  11204 07535 36/// /1702 11010 21011 30033 40365 50000;EQDQ01  00002PRCP06
0131075350999992000011121004+44750+001400FM-12+026499999V0201801N001019999999N9999999N1-00121-00131103631ADDAA106000091MA1999999100311MD1810031+9999REMSYN060AAXX  11214 07535 36/// /1802 11012 21013 30031 40363 58003;EQDQ01  00002PRCP06
0131075350999992000011122004+44750+001400FM-12+026499999V0202001N001019999999N9999999N1-00121-00131103611ADDAA106000091MA1999999100291MD1810051+9999REMSYN060AAXX  11224 07535 36/// /2002 11012 21013 30029 40361 58005;EQDQ01  00002PRCP06
0131075350999992000011123004+44750+001400FM-12+026499999V0201701N001019999999N9999999N1-00131-00131103611ADDAA106000091MA1999999100291MD1610041+9999REMSYN060AAXX  11234 07535 36/// /1702 11013 21013 30029 40361 56004;EQDQ01  00002PRCP06
0131075350999992000011200004+44750+001400FM-12+026499999V0201501N001019999999N9999999N1-00151-00151103581ADDAA106000091MA1999999100251MD1810061+9999REMSYN060AAXX  12004 07535 36/// /1502 11015 21015 30025 40358 58006;EQDQ01  00002PRCP06
0131075350999992000011201004+44750+001400FM-12+026499999V0209999C000019999999N9999999N1-00161-00161103501ADDAA106000091MA1999999100181MD1810111+9999REMSYN060AAXX  12014 07535 36/// /0000 11016 21016 30018 40350 58011;EQDQ01  00002PRCP06
0131075350999992000011202004+44750+001400FM-12+026499999V0201901N002119999999N9999999N1-00151-00151103441ADDAA106000091MA1999999100121MD1810171+9999REMSYN060AAXX  12024 07535 36/// /1904 11015 21015 30012 40344 58017;EQDQ01  00002PRCP06
0131075350999992000011203004+44750+001400FM-12+026499999V0201301N001019999999N9999999N1-00131-00131103431ADDAA106000091MA1999999100111MD1610141+9999REMSYN060AAXX  12034 07535 36/// /1302 11013 21013 30011 40343 56014;EQDQ01  00002PRCP06
0131075350999992000011204004+44750+001400FM-12+026499999V0202201N001019999999N9999999N1-00141-00141103391ADDAA106000091MA1999999100071MD1610111+9999REMSYN060AAXX  12044 07535 36/// /2202 11014 21014 30007 40339 56011;EQDQ01  00002PRCP06
0217075350999992000011205004+44750+001400FM-12+026499999V0201601N001010015019N0018001N1-00131-00131103351ADDAA106000091AY121999AY221999GA1081+001509069GF108991081061001501999999MA1999999100031MD1810091+9999MW1101REMSYN082AAXX  12054 07535 31218 81602 11013 21013 30003 40335 58009 71022 886// 333 88705;EQDQ01  00002PRCP06
0310075350999992000011206004+44750+001400FM-12+026499999V0201501N002110015019N0018001N1-00141-00141103331ADDAA106000091AA224000091AY121061AY221061GA1081+001509069GF108991081061001501999999GJ102469IA1099IA2999-00109KA1999M-00031KA2999N-00171MA1999999100011MD1610101+9999MW1101REMSYN112AAXX  12064 07535 31218 81504 11014 21014 30001 40333 56010 71022 886// 333 11003 21017 31101 55041 70000 88705;EQDQ01  00002PRCP06
0217075350999992000011207004+44750+001400FM-12+026499999V0201901N001010015019N0018001N1-00121-00121103321ADDAA106000091AY121999AY221999GA1081+001509069GF108991081061001501999999MA1999999100011MD1610061+9999MW1101REMSYN082AAXX  12074 07535 31218 81902 11012 21012 30001 40332 56006 71022 886// 333 88705;EQDQ01  00002PRCP06
0217075350999992000011208004+44750+001400FM-12+026499999V0200301N002110015019N0013001N1-00111-00111103311ADDAA106000091AY121999AY221999GA1081+001509069GF108991081061001501999999MA1999999100001MD1610031+9999MW1101REMSYN082AAXX  12084 07535 31213 80304 11011 21011 30000 40331 56003 71022 886// 333 88705;EQDQ01  00002PRCP06
0217075350999992000011209004+44750+001400FM-12+026499999V0200101N001010009019N0006001N1-00101-00101103311ADDAA106000091AY141031AY221031GA1081+000909069GF108991081061000751999999MA1999999100001MD1710011+9999MW1461REMSYN082AAXX  12094 07535 31106 80102 11010 21010 30000 40331 57001 74642 886// 333 88703;EQDQ01  00002PRCP06
0217075350999992000011210004+44750+001400FM-12+026499999V0200901N001010009019N0009001N1-00051-00051103311ADDAA106000091AY141999AY241999GA1081+000909069GF108991081061000751999999MA1999999100011MD1510001+9999MW1421REMSYN082AAXX  12104 07535 31109 80902 11005 21005 30001 40331 55000 74244 886// 333 88703;EQDQ01  00002PRCP06
0217075350999992000011211004+44750+001400FM-12+026499999V0202001N002110009019N0009001N1-00041-00041103221ADDAA106000091AY141999AY241999GA1081+000909069GF108991081061000751999999MA1999999099921MD1810081+9999MW1421REMSYN082AAXX  12114 07535 31109 82004 11004 21004 39992 40322 58008 74244 886// 333 88703;EQDQ01  00002PRCP06
0217075350999992000011212004+44750+001400FM-12+026499999V0201601N003110012019N0025001N1+00001-00011103131ADDAA106000091AY141061AY221061GA1081+001209069GF108991081061001501999999MA1999999099841MD1810161+9999MW1101REMSYN082AAXX  12124 07535 31225 81606 10000 21001 39984 40313 58016 71042 886// 333 88704;EQDQ01  00002PRCP06
0217075350999992000011213004+44750+001400FM-12+026499999V0201601N001010012019N0030001N1+00061-00011103031ADDAA106000091AY121999AY221999GA1081+001209069GF108991081061001501999999MA1999999099751MD1710261+9999MW1101REMSYN082AAXX  12134 07535 31230 81602 10006 21001 39975 40303 57026 71022 886// 333 88704;EQDQ01  00002PRCP06
0217075350999992000011214004+44750+001400FM-12+026499999V0201601N003110015019N0035001N1+00101-00061102971ADDAA106000091AY121999AY221999GA1081+001509069GF108991081061001501999999MA1999999099691MD1610231+9999MW1101REMSYN082AAXX  12144 07535 31235 81606 10010 21006 39969 40297 56023 71022 886// 333 88705;EQDQ01  00002PRCP06
0217075350999992000011215004+44750+001400FM-12+026499999V0202101N001010015019N0045001N1+00141-00071102951ADDAA106000091AY121031AY221031GA1081+001509069GF108991081061001501999999MA1999999099681MD1610161+9999MW1101REMSYN082AAXX  12154 07535 31245 82102 10014 21007 39968 40295 56016 71022 886// 333 88705;EQDQ01  00002PRCP06
0189075350999992000011216004+44750+001400FM-12+026499999V0201901N001010018019N0050001N1+00131-00091102931ADDAA106000091GA1081+001809069GF108991081061001501999999MA1999999099661MD1610091+9999REMSYN076AAXX  12164 07535 32250 81902 10013 21009 39966 40293 56009 886// 333 88706;EQDQ01  00002PRCP06
0131075350999992000011217004+44750+001400FM-12+026499999V0201301N002119999999N9999999N1+00101-00141102911ADDAA106000091MA1999999099641MD1810051+9999REMSYN060AAXX  12174 07535 36/// /1304 10010 21014 39964 40291 58005;EQDQ01  00002PRCP06
0173075350999992000011218004+44750+001400FM-12+026499999V0201501N002119999999N9999999N1+00071-00151102901ADDAA106000091KA1999M+00151KA2999N-00141MA1999999099621MD1710061+9999REMSYN076AAXX  12184 07535 36/// /1504 10007 21015 39962 40290 57006 333 10015 21014;EQDQ01  00002PRCP06
0131075350999992000011219004+44750+001400FM-12+026499999V0201501N002119999999N9999999N1+00041-00171102861ADDAA106000091MA1999999099581MD1810081+9999REMSYN060AAXX  12194 07535 36/// /1504 10004 21017 39958 40286 58008;EQDQ01  00002PRCP06
0131075350999992000011220004+44750+001400FM-12+026499999V0201701N002119999999N9999999N1+00031-00181102831ADDAA106000091MA1999999099551MD1810091+9999REMSYN060AAXX  12204 07535 36/// /1704 10003 21018 39955 40283 58009;EQDQ01  00002PRCP06
0131075350999992000011221004+44750+001400FM-12+026499999V0201601N001019999999N9999999N1+00011-00161102801ADDAA106000091MA1999999099521MD1610101+9999REMSYN060AAXX  12214 07535 36/// /1602 10001 21016 39952 40280 56010;EQDQ01  00002PRCP06
0131075350999992000011222004+44750+001400FM-12+026499999V0202101N001019999999N9999999N1+00021-00141102781ADDAA106000091MA1999999099501MD1610081+9999REMSYN060AAXX  12224 07535 36/// /2102 10002 21014 39950 40278 56008;EQDQ01  00002PRCP06
0131075350999992000011223004+44750+001400FM-12+026499999V0201801N002119999999N9999999N1+00011-00201102711ADDAA106000091MA1999999099431MD1810121+9999REMSYN060AAXX  12234 07535 36/// /1804 10001 21020 39943 40271 58012;EQDQ01  00002PRCP06
0131075350999992000011300004+44750+001400FM-12+026499999V0201601N002119999999N9999999N1-00011-00201102631ADDAA106000091MA1999999099351MD1810171+9999REMSYN060AAXX  13004 07535 36/// /1604 11001 21020 39935 40263 58017;EQDQ01  00002PRCP06
0131075350999992000011301004+44750+001400FM-12+026499999V0201901N002119999999N9999999N1-00051-00211102571ADDAA106000091MA1999999099291MD1610211+9999REMSYN060AAXX  13014 07535 36/// /1904 11005 21021 39929 40257 56021;EQDQ01  00002PRCP06
0131075350999992000011302004+44750+001400FM-12+026499999V0201701N003119999999N9999999N1-00061-00221102541ADDAA106000091MA1999999099261MD1610171+9999REMSYN060AAXX  13024 07535 36/// /1706 11006 21022 39926 40254 56017;EQDQ01  00002PRCP06
0131075350999992000011303004+44750+001400FM-12+026499999V0201601N003119999999N9999999N1-00101-00241102481ADDAA106000091MA1999999099201MD1710151+9999REMSYN060AAXX  13034 07535 36/// /1606 11010 21024 39920 40248 57015;EQDQ01  00002PRCP06
0131075350999992000011304004+44750+001400FM-12+026499999V0201601N003119999999N9999999N1-00131-00261102451ADDAA106000091MA1999999099161MD1810131+9999REMSYN060AAXX  13044 07535 36/// /1606 11013 21026 39916 40245 58013;EQDQ01  00002PRCP06
0217075350999992000011305004+44750+001400FM-12+026499999V0202001N003110012019N0040001N1-00151-00261102411ADDAA106000091AY121999AY221999GA1081+001209069GF108991081061001501999999MA1999999099121MD1610141+9999MW1101REMSYN082AAXX  13054 07535 31240 82006 11015 21026 39912 40241 56014 71022 886// 333 88704;EQDQ01  00002PRCP06
0310075350999992000011306004+44750+001400FM-12+026499999V0201501N003110012019N0040001N1-00171-00271102391ADDAA106000091AA224000091AY121061AY221061GA1081+001209069GF108991081061001501999999GJ100009IA1019IA2999-00209KA1999M+00071KA2999N-00171MA1999999099101MD1610101+9999MW1101REMSYN112AAXX  13064 07535 31240 81506 11017 21027 39910 40239 56010 71022 886// 333 10007 21017 30102 55000 70000 88704;EQDQ01  00002PRCP06
0217075350999992000011307004+44750+001400FM-12+026499999V0201801N003110012019N0040001N1-00191-00271102361ADDAA106000091AY121999AY221999GA1081+001209069GF108991081061001501999999MA1999999099071MD1610091+9999MW1101REMSYN082AAXX  13074 07535 31240 81806 11019 21027 39907 40236 56009 71022 886// 333 88704;EQDQ01  00002PRCP06
0217075350999992000011308004+44750+001400FM-12+026499999V0201501N003110015019N0038001N1-00201-00261102321ADDAA106000091AY121999AY221999GA1081+001509069GF108991081061001501999999MA1999999099031MD1810091+9999MW1101REMSYN082AAXX  13084 07535 31238 81506 11020 21026 39903 40232 58009 71022 886// 333 88705;EQDQ01  00002PRCP06
0217075350999992000011309004+44750+001400FM-12+026499999V0201501N002110015019N0040001N1-00161-00231102331ADDAA106000091AY121031AY221031GA1081+001509069GF108991081061001501999999MA1999999099041MD1510061+9999MW1101REMSYN082AAXX  13094 07535 31240 81504 11016 21023 39904 40233 55006 71022 886// 333 88705;EQDQ01  00002PRCP06
0217075350999992000011310004+44750+001400FM-12+026499999V0201301N002110015019N0045001N1-00081-00191102311ADDAA106000091AY121999AY221999GA1071+001509069GF107991071061001501999999MA1999999099031MD1610041+9999MW1101REMSYN082AAXX  13104 07535 31245 71304 11008 21019 39903 40231 56004 71022 876// 333 87705;EQDQ01  00002PRCP06
0189075350999992000011311004+44750+001400FM-12+026499999V0201601N002112200019N0060001N1+00201-00071102181ADDAA106000091GA1021+027009079GF102991021001999999031001MA1999999098941MD1810091+9999REMSYN076AAXX  13114 07535 32956 21604 10020 21007 39894 40218 58009 82030 333 82359;EQDQ01  00002PRCP06
0131075350999992000011312004+44750+001400FM-12+026499999V0201501N001019999999N9999999N1+00411-00011102061ADDAA106000091MA1999999098851MD1810191+9999REMSYN060AAXX  13124 07535 36/// /1502 10041 21001 39885 40206 58019;EQDQ01  00002PRCP06
0189075350999992000011313004+44750+001400FM-12+026499999V0201501N002110120019N0120001N1+00521-00021101961ADDAA106000091GA1061+012009059GF106991061051012501001001MA1999999098761MD1710271+9999REMSYN076AAXX  13134 07535 32662 61504 10052 21002 39876 40196 57027 86500 333 86640;EQDQ01  00002PRCP06
0195075350999992000011314004+44750+001400FM-12+026499999V0201501N00311012001CN0120001N1+00591-00021101861ADDAA106000091GA1021+012009069GF106991061051012501001001MA1999999098681MD1610261+9999REMSYN082AAXX  13144 07535 32662 61506 10059 21002 39868 40186 56026 86500 333 82640 85656;EQDQ01  00002PRCP06
0195075350999992000011315004+44750+001400FM-12+026499999V0201601N00311012001CN0180001N1+00611-00041101801ADDAA106000091GA1031+012009069GF106991061051012501001001MA1999999098621MD1610231+9999REMSYN082AAXX  13154 07535 32668 61606 10061 21004 39862 40180 56023 86500 333 83640 86656;EQDQ01  00002PRCP06
0195075350999992000011316004+44750+001400FM-12+026499999V0201301N00311012001CN0180001N1+00561-00021101761ADDAA106000091GA1041+012009069GF106991061051012501001001MA1999999098581MD1610181+9999REMSYN082AAXX  13164 07535 32668 61306 10056 21002 39858 40176 56018 86500 333 84640 86656;EQDQ01  00002PRCP06
0131075350999992000011317004+44750+001400FM-12+026499999V0201401N004119999999N9999999N1+00461-00021101781ADDAA106000091MA1999999098581MD1610101+9999REMSYN060AAXX  13174 07535 36/// /1408 10046 21002 39858 40178 56010;EQDQ01  00002PRCP06
0173075350999992000011318004+44750+001400FM-12+026499999V0201301N004119999999N9999999N1+00461-00041101751ADDAA106000091KA1999M+00631KA2999N-00201MA1999999098551MD1610071+9999REMSYN076AAXX  13184 07535 36/// /1308 10046 21004 39855 40175 56007 333 10063 21020;EQDQ01  00002PRCP06
0131075350999992000011319004+44750+001400FM-12+026499999V0201401N004119999999N9999999N1+00501+00001101701ADDAA106000091MA1999999098511MD1810071+9999REMSYN060AAXX  13194 07535 36/// /1408 10050 20000 39851 40170 58007;EQDQ01  00002PRCP06
0135075350999992000011320004+44750+001400FM-12+026499999V0201801N005119999999N9999999N1+00531+00031101721ADDAA199000091MA1999999098531MD1510051+9999REMSYN064    AAXX  13204 07535 36/// /1810 10053 20003 39853 40172 55005;EQDQ01  00002PRCP99
0135075350999992000011321004+44750+001400FM-12+026499999V0201601N005119999999N9999999N1+00421+00001101701ADDAA199000091MA1999999098501MD1610051+9999REMSYN064    AAXX  13214 07535 36/// /1610 10042 20000 39850 40170 56005;EQDQ01  00002PRCP99
0135075350999992000011322004+44750+001400FM-12+026499999V0201601N004119999999N9999999N1+00391-00071101701ADDAA199000091MA1999999098501MD1810011+9999REMSYN064    AAXX  13224 07535 36/// /1608 10039 21007 39850 40170 58001;EQDQ01  00002PRCP99
0135075350999992000011323004+44750+001400FM-12+026499999V0201201N002119999999N9999999N1+00371-00071101691ADDAA199000091MA1999999098491MD1610041+9999REMSYN064    AAXX  13234 07535 36/// /1204 10037 21007 39849 40169 56004;EQDQ01  00002PRCP99
0135075350999992000011400004+44750+001400FM-12+026499999V0201401N001019999999N9999999N1+00321-00101101661ADDAA199000091MA1999999098451MD1810051+9999REMSYN064    AAXX  14004 07535 36/// /1402 10032 21010 39845 40166 58005;EQDQ01  00002PRCP99
0135075350999992000011401004+44750+001400FM-12+026499999V0201301N002119999999N9999999N1+00281-00051101621ADDAA199000091MA1999999098411MD1810091+9999REMSYN064    AAXX  14014 07535 36/// /1304 10028 21005 39841 40162 58009;EQDQ01  00002PRCP99
0135075350999992000011402004+44750+001400FM-12+026499999V0201301N003119999999N9999999N1+00281-00031101591ADDAA199000091MA1999999098381MD1610111+9999REMSYN064    AAXX  14024 07535 36/// /1306 10028 21003 39838 40159 56011;EQDQ01  00002PRCP99
0135075350999992000011403004+44750+001400FM-12+026499999V0201301N001019999999N9999999N1+00301-00011101571ADDAA199000091MA1999999098361MD1610091+9999REMSYN064    AAXX  14034 07535 36/// /1302 10030 21001 39836 40157 56009;EQDQ01  00002PRCP99
0135075350999992000011404004+44750+001400FM-12+026499999V0201001N002119999999N9999999N1+00281+00051101501ADDAA199000091MA1999999098291MD1810121+9999REMSYN064    AAXX  14044 07535 36/// /1004 10028 20005 39829 40150 58012;EQDQ01  00002PRCP99
0135075350999992000011405004+44750+001400FM-12+026499999V0200901N002119999999N9999999N1+00261+00081101481ADDAA199000091MA1999999098271MD1710111+9999REMSYN064    AAXX  14054 07535 36/// /0904 10026 20008 39827 40148 57011;EQDQ01  00002PRCP99
0256075350999992000011406004+44750+001400FM-12+026499999V0201101N002112200019N0150001N1+00251+00071101471ADDAA124000091GA1031+075009019GF103991001001999999001011GJ100609IA1019IA2999-00309KA1999M+00541KA2999N+00241MA1999999098261MD1610101+9999REMSYN110    AAXX  14064 07535 32965 31104 10025 20007 39826 40147 56010 80001 333 10054 20024 30103 55010 70000 83075;
0193075350999992000011407004+44750+001400FM-12+026499999V0201301N003112200019N0150001N1+00311+00101101471ADDAA199000091GA1021+075009019GF102991001001999999001011MA1999999098271MD1510021+9999REMSYN080    AAXX  14074 07535 32965 21306 10031 20010 39827 40147 55002 80001 333 82075;EQDQ01  00002PRCP99
0193075350999992000011408004+44750+001400FM-12+026499999V0201301N004112200019N0150001N1+00381+00121101491ADDAA199000091GA1021+075009019GF102991001001999999001011MA1999999098291MD1310021+9999REMSYN080    AAXX  14084 07535 32965 21308 10038 20012 39829 40149 53002 80001 333 82075;EQDQ01  00002PRCP99
0193075350999992000011409004+44750+001400FM-12+026499999V0201301N004112200019N0200001N1+00571+00181101481ADDAA199000091GA1021+075009019GF102991001001999999001011MA1999999098311MD1310051+9999REMSYN080    AAXX  14094 07535 32970 21308 10057 20018 39831 40148 53005 80001 333 82075;EQDQ01  00002PRCP99
0135075350999992000011410004+44750+001400FM-12+026499999V0201401N004119999999N9999999N1+00731+00241101501ADDAA199000091MA1999999098341MD1310071+9999REMSYN064    AAXX  14104 07535 36/// /1408 10073 20024 39834 40150 53007;EQDQ01  00002PRCP99
0199075350999992000011411004+44750+001400FM-12+026499999V0201401N004112200019N0250001N1+00901+00281101461ADDAA199000091GA1011+007809089GF104991011011008001001011MA1999999098321MD1010031+9999REMSYN086    AAXX  14114 07535 32575 41408 10090 20028 39832 40146 50003 81101 333 81826 84075;EQDQ01  00002PRCP99
0135075350999992000011412004+44750+001400FM-12+026499999V0201601N006219999999N9999999N1+00981+00311101381ADDAA199000091MA1999999098261MD1810051+9999REMSYN064    AAXX  14124 07535 36/// /1612 10098 20031 39826 40138 58005;EQDQ01  00002PRCP99
0199075350999992000011413004+44750+001400FM-12+026499999V0201501N006212200019N0300001N1+01011+00341101341ADDAA199000091GA1021+007809089GF104991021011008001001011MA1999999098221MD1810121+9999REMSYN086    AAXX  14134 07535 32580 41512 10101 20034 39822 40134 58012 82101 333 82826 84075;EQDQ01  00002PRCP99
0193075350999992000011414004+44750+001400FM-12+026499999V0201401N006212200019N0300001N1+01021+00331101351ADDAA199000091GA1031+007809029GF104991031011008001001011MA1999999098231MD1510091+9999REMSYN080    AAXX  14144 07535 32580 41412 10102 20033 39823 40135 55009 83101 333 83826;EQDQ01  00002PRCP99
0193075350999992000011415004+44750+001400FM-12+026499999V0201401N005110090019N0300001N1+00981+00261101351ADDAA199000091GA1051+009009059GF105991051051008001001011MA1999999098231MD1610031+9999REMSYN080    AAXX  14154 07535 32580 51410 10098 20026 39823 40135 56003 85501 333 85630;EQDQ01  00002PRCP99
0193075350999992000011416004+44750+001400FM-12+026499999V0201401N005112200019N0250001N1+00831+00251101411ADDAA199000091GA1041+009009059GF104991041051008001001011MA1999999098271MD1310051+9999REMSYN080    AAXX  14164 07535 32575 41410 10083 20025 39827 40141 53005 84501 333 84630;EQDQ01  00002PRCP99
0135075350999992000011417004+44750+001400FM-12+026499999V0201301N003119999999N9999999N1+00741+00231101471ADDAA199000091MA1999999098321MD1310091+9999REMSYN064    AAXX  14174 07535 36/// /1306 10074 20023 39832 40147 53009;EQDQ01  00002PRCP99
0177075350999992000011418004+44750+001400FM-12+026499999V0201001N003119999999N9999999N1+00621+00231101551ADDAA199000091KA1999M+01051KA2999N+00241MA1999999098381MD1310151+9999REMSYN080    AAXX  14184 07535 36/// /1006 10062 20023 39838 40155 53015 333 10105 20024;EQDQ01  00002PRCP99
0135075350999992000011419004+44750+001400FM-12+026499999V0201301N004119999999N9999999N1+00621+00151101581ADDAA199000091MA1999999098411MD1110141+9999REMSYN064    AAXX  14194 07535 36/// /1308 10062 20015 39841 40158 51014;EQDQ01  00002PRCP99
0135075350999992000011420004+44750+001400FM-12+026499999V0201101N003119999999N9999999N1+00581+00121101651ADDAA199000091MA1999999098471MD1210151+9999REMSYN064    AAXX  14204 07535 36/// /1106 10058 20012 39847 40165 52015;EQDQ01  00002PRCP99
0135075350999992000011421004+44750+001400FM-12+026499999V0201301N003119999999N9999999N1+00571+00111101711ADDAA199000091MA1999999098531MD1310151+9999REMSYN064    AAXX  14214 07535 36/// /1306 10057 20011 39853 40171 53015;EQDQ01  00002PRCP99
0135075350999992000011422004+44750+001400FM-12+026499999V0201001N002119999999N9999999N1+00531+00111101781ADDAA199000091MA1999999098591MD1210181+9999REMSYN064    AAXX  14224 07535 36/// /1004 10053 20011 39859 40178 52018;EQDQ01  00002PRCP99
0135075350999992000011423004+44750+001400FM-12+026499999V0200801N002119999999N9999999N1+00501+00091101821ADDAA199000091MA1999999098631MD1110161+9999REMSYN064    AAXX  14234 07535 36/// /0804 10050 20009 39863 40182 51016;EQDQ01  00002PRCP99
0135075350999992000011500004+44750+001400FM-12+026499999V0201101N003119999999N9999999N1+00551+00141101861ADDAA199000091MA1999999098671MD1110141+9999REMSYN064    AAXX  15004 07535 36/// /1106 10055 20014 39867 40186 51014;EQDQ01  00002PRCP99
0135075350999992000011501004+44750+001400FM-12+026499999V0201101N003119999999N9999999N1+00521+00151101891ADDAA199000091MA1999999098701MD1110111+9999REMSYN064    AAXX  15014 07535 36/// /1106 10052 20015 39870 40189 51011;EQDQ01  00002PRCP99
0135075350999992000011502004+44750+001400FM-12+026499999V0201101N004119999999N9999999N1+00521+00151101941ADDAA199000091MA1999999098751MD1310121+9999REMSYN064    AAXX  15024 07535 36/// /1108 10052 20015 39875 40194 53012;EQDQ01  00002PRCP99
0135075350999992000011503004+44750+001400FM-12+026499999V0201001N002119999999N9999999N1+00451+00121101971ADDAA199000091MA1999999098771MD1110101+9999REMSYN064    AAXX  15034 07535 36/// /1004 10045 20012 39877 40197 51010;EQDQ01  00002PRCP99
0135075350999992000011504004+44750+001400FM-12+026499999V0201001N004119999999N9999999N1+00491+00121101991ADDAA199000091MA1999999098791MD1110091+9999REMSYN064    AAXX  15044 07535 36/// /1008 10049 20012 39879 40199 51009;EQDQ01  00002PRCP99
0135075350999992000011505004+44750+001400FM-12+026499999V0200901N004119999999N9999999N1+00491+00071102031ADDAA199000091MA1999999098831MD1310081+9999REMSYN064    AAXX  15054 07535 36/// /0908 10049 20007 39883 40203 53008;EQDQ01  00002PRCP99
0263075350999992000011506004+44750+001400FM-12+026499999V0200901N003112200019N0300001N1+00401+00051102101ADDAA124000091GA1001+999999999GF100991001001999999001001GJ104029IA1019IA2999-00109KA1999M+00631KA2999N+00391MA1999999098891MD1310121+9999REMSYN098    AAXX  15064 07535 33980 00906 10040 20005 39889 40210 53012 333 10063 20039 30101 55067 70000;EQDQ01  00002PRCP24
0193075350999992000011507004+44750+001400FM-12+026499999V0200901N003112200019N0300001N1+00411+00041102151ADDAA199000091GA1011+012009059GF101991011051012501031021MA1999999098941MD1310151+9999REMSYN080    AAXX  15074 07535 32680 10906 10041 20004 39894 40215 53015 81532 333 81640;EQDQ01  00002PRCP99
0193075350999992000011508004+44750+001400FM-12+026499999V0200601N002112200019N0300001N1+00271-00011102261ADDAA199000091GA1011+012009059GF101991011051012501001021MA1999999099031MD1310201+9999REMSYN080    AAXX  15084 07535 32680 10604 10027 21001 39903 40226 53020 81502 333 81640;EQDQ01  00002PRCP99
0162075350999992000011509004+44750+001400FM-12+026499999V0201401N002112200019N0300001N1+00631+00061999999ADDAA199000091GF101991999999012501999999MA1999999099121REMSYN079    AAXX  15094 07535 32680 11404 10063 20006 39912 4031 53023 81500 333 81640;EQDQ01  00002PRCP99
0209075350999992000011510004+44750+001400FM-12+026499999V0200201N002112200019N0250001N1+00581+00101102381ADDAA199000091GA1031+018009059GF103991031051017501999001MA1999999099181MD1110241+9999REMSYN080    AAXX  15104 07535 32775 30204 10058 20010 39918 40238 51024 83500 333 83656;EQDQ01+000002SCOMCGQ02  00002PRCP99
0135075350999992000011511004+44750+001400FM-12+026499999V0203601N002119999999N9999999N1+00881+00261102381ADDAA199000091MA1999999099211MD1110181+9999REMSYN064    AAXX  15114 07535 36/// /3604 10088 20026 39921 40238 51018;EQDQ01  00002PRCP99
0135075350999992000011512004+44750+001400FM-12+026499999V0201101N005119999999N9999999N1+01211+00261102301ADDAA199000091MA1999999099171MD1010051+9999REMSYN064    AAXX  15124 07535 36/// /1110 10121 20026 39917 40230 50005;EQDQ01  00002PRCP99
0135075350999992000011513004+44750+001400FM-12+026499999V0201001N004119999999N9999999N1+01271+00231102261ADDAA199000091MA1999999099141MD1810041+9999REMSYN064    AAXX  15134 07535 36/// /1008 10127 20023 39914 40226 58004;EQDQ01  00002PRCP99
0135075350999992000011514004+44750+001400FM-12+026499999V0201101N003119999999N9999999N1+01041+00271102311ADDAA199000091MA1999999099161MD1510051+9999REMSYN064    AAXX  15144 07535 36/// /1106 10104 20027 39916 40231 55005;EQDQ01  00002PRCP99
0135075350999992000011515004+44750+001400FM-12+026499999V0201101N002119999999N9999999N1+01181+00311102301ADDAA199000091MA1999999099171MD1510001+9999REMSYN064    AAXX  15154 07535 36/// /1104 10118 20031 39917 40230 55000;EQDQ01  00002PRCP99
0135075350999992000011516004+44750+001400FM-12+026499999V0200401N002119999999N9999999N1+01061+00241102351ADDAA199000091MA1999999099201MD1310061+9999REMSYN064    AAXX  15164 07535 36/// /0404 10106 20024 39920 40235 53006;EQDQ01  00002PRCP99
0135075350999992000011517004+44750+001400FM-12+026499999V0200701N001019999999N9999999N1+00911+00311102411ADDAA199000091MA1999999099251MD1310091+9999REMSYN064    AAXX  15174 07535 36/// /0702 10091 20031 39925 40241 53009;EQDQ01  00002PRCP99
0177075350999992000011518004+44750+001400FM-12+026499999V0201501N002119999999N9999999N1+00591+00201102481ADDAA199000091KA1999M+01301KA2999N+00251MA1999999099281MD1210111+9999REMSYN080    AAXX  15184 07535 36/// /1504 10059 20020 39928 40248 52011 333 10130 20025;EQDQ01  00002PRCP99
0135075350999992000011519004+44750+001400FM-12+026499999V0200201N001019999999N9999999N1+00651+00201102531ADDAA199000091MA1999999099331MD1210131+9999REMSYN064    AAXX  15194 07535 36/// /0202 10065 20020 39933 40253 52013;EQDQ01  00002PRCP99
0135075350999992000011521004+44750+001400FM-12+026499999V0200201N002119999999N9999999N1+00541+00061102601ADDAA199000091MA1999999099391MD1110111+9999REMSYN064    AAXX  15214 07535 36/// /0204 10054 20006 39939 40260 51011;EQDQ01  00002PRCP99
0135075350999992000011522004+44750+001400FM-12+026499999V0200601N003119999999N9999999N1+00441-00161102681ADDAA199000091MA1999999099451MD1310121+9999REMSYN064    AAXX  15224 07535 36/// /0606 10044 21016 39945 40268 53012;EQDQ01  00002PRCP99
0135075350999992000011523004+44750+001400FM-12+026499999V0200501N003119999999N9999999N1+00341-00301102711ADDAA199000091MA1999999099471MD1110121+9999REMSYN064    AAXX  15234 07535 36/// /0506 10034 21030 39947 40271 51012;EQDQ01  00002PRCP99
0135075350999992000011600004+44750+001400FM-12+026499999V0200701N003119999999N9999999N1+00261-00351102711ADDAA199000091MA1999999099461MD1010071+9999REMSYN064    AAXX  16004 07535 36/// /0706 10026 21035 39946 40271 50007;EQDQ01  00002PRCP99
0135075350999992000011601004+44750+001400FM-12+026499999V0200801N001019999999N9999999N1+00161-00351102701ADDAA199000091MA1999999099441MD1810011+9999REMSYN064    AAXX  16014 07535 36/// /0802 10016 21035 39944 40270 58001;EQDQ01  00002PRCP99
0135075350999992000011602004+44750+001400FM-12+026499999V0200401N002119999999N9999999N1+00091-00361102731ADDAA199000091MA1999999099461MD1510011+9999REMSYN064    AAXX  16024 07535 36/// /0404 10009 21036 39946 40273 55001;EQDQ01  00002PRCP99
0135075350999992000011603004+44750+001400FM-12+026499999V0200501N002119999999N9999999N1-00011-00361102731ADDAA199000091MA1999999099451MD1610011+9999REMSYN064    AAXX  16034 07535 36/// /0504 11001 21036 39945 40273 56001;EQDQ01  00002PRCP99
0135075350999992000011604004+44750+001400FM-12+026499999V0200101N002119999999N9999999N1-00031-00351102721ADDAA199000091MA1999999099441MD1010001+9999REMSYN064    AAXX  16044 07535 36/// /0104 11003 21035 39944 40272 50000;EQDQ01  00002PRCP99
0135075350999992000011605004+44750+001400FM-12+026499999V0209999C000019999999N9999999N1-00191-00351102781ADDAA199000091MA1999999099471MD1310011+9999REMSYN064    AAXX  16054 07535 36/// /0000 11019 21035 39947 40278 53001;EQDQ01  00002PRCP99
0215075350999992000011606004+44750+001400FM-12+026499999V0209999C000019999999N9999999N1-00131-00381102781ADDAA124000091GJ103969IA2999-00809KA1999M+00701KA2999N-00211MA1999999099481MD1310031+9999REMSYN098    AAXX  16064 07535 36/// /0000 11013 21038 39948 40278 53003 333 10070 21021 3/108 55066 70000;EQDQ01  00002PRCP24
0177075350999992000011607004+44750+001400FM-12+026499999V0200501N002112200019N0150001N1-00061-00391102801ADDAA199000091GA1001+999999999GF100991001001999999001001MA1999999099511MD1210071+9999REMSYN064    AAXX  16074 07535 32965 00504 11006 21039 39951 40280 52007;EQDQ01  00002PRCP99
0177075350999992000011608004+44750+001400FM-12+026499999V0200301N002112200019N0150001N1-00061-00391102831ADDAA199000091GA1001+999999999GF100991001001999999001001MA1999999099541MD1310071+9999REMSYN064    AAXX  16084 07535 32965 00304 11006 21039 39954 40283 53007;EQDQ01  00002PRCP99
0177075350999992000011609004+44750+001400FM-12+026499999V0200301N001012200019N0150001N1+00051-00341102841ADDAA199000091GA1001+999999999GF100991001001999999001001MA1999999099561MD1110081+9999REMSYN064    AAXX  16094 07535 32965 00302 10005 21034 39956 40284 51008;EQDQ01  00002PRCP99
0177075350999992000011610004+44750+001400FM-12+026499999V0203601N002112200019N0150001N1+00091-00271102871ADDAA199000091GA1001+999999999GF100991001001999999001001MA1999999099601MD1310091+9999REMSYN064    AAXX  16104 07535 32965 03604 10009 21027 39960 40287 53009;EQDQ01  00002PRCP99
0177075350999992000011611004+44750+001400FM-12+026499999V0200601N004112200019N0150001N1+00371-00331102821ADDAA199000091GA1001+999999999GF100991001001999999001001MA1999999099581MD1010041+9999REMSYN064    AAXX  16114 07535 32965 00608 10037 21033 39958 40282 50004;EQDQ01  00002PRCP99
0135075350999992000011612004+44750+001400FM-12+026499999V0200401N003119999999N9999999N1+00501-00261102761ADDAA199000091MA1999999099541MD1810021+9999REMSYN064    AAXX  16124 07535 36/// /0406 10050 21026 39954 40276 58002;EQDQ01  00002PRCP99
0135075350999992000011613004+44750+001400FM-12+026499999V0200301N002119999999N9999999N1+00621-00221102731ADDAA199000091MA1999999099521MD1710081+9999REMSYN064    AAXX  16134 07535 36/// /0304 10062 21022 39952 40273 57008;EQDQ01  00002PRCP99
0135075350999992000011614004+44750+001400FM-12+026499999V0203601N003119999999N9999999N1+00661-00311102711ADDAA199000091MA1999999099511MD1610071+9999REMSYN064    AAXX  16144 07535 36/// /3606 10066 21031 39951 40271 56007;EQDQ01  00002PRCP99
0135075350999992000011615004+44750+001400FM-12+026499999V0200401N003119999999N9999999N1+00651-00291102691ADDAA199000091MA1999999099491MD1710051+9999REMSYN064    AAXX  16154 07535 36/// /0406 10065 21029 39949 40269 57005;EQDQ01  00002PRCP99
0135075350999992000011616004+44750+001400FM-12+026499999V0200301N004119999999N9999999N1+00521-00241102761ADDAA199000091MA1999999099541MD1310021+9999REMSYN064    AAXX  16164 07535 36/// /0308 10052 21024 39954 40276 53002;EQDQ01  00002PRCP99
0135075350999992000011617004+44750+001400FM-12+026499999V0200301N004119999999N9999999N1+00341-00271102831ADDAA199000091MA1999999099591MD1310081+9999REMSYN064    AAXX  16174 07535 36/// /0308 10034 21027 39959 40283 53008;EQDQ01  00002PRCP99
0177075350999992000011618004+44750+001400FM-12+026499999V0200201N003119999999N9999999N1+00161-00291102901ADDAA199000091KA1999M+00681KA2999N-00131MA1999999099631MD1110141+9999REMSYN080    AAXX  16184 07535 36/// /0206 10016 21029 39963 40290 51014 333 10068 21013;EQDQ01  00002PRCP99
0135075350999992000011619004+44750+001400FM-12+026499999V0200101N002119999999N9999999N1+00071-00341102961ADDAA199000091MA1999999099681MD1210141+9999REMSYN064    AAXX  16194 07535 36/// /0104 10007 21034 39968 40296 52014;EQDQ01  00002PRCP99
0135075350999992000011621004+44750+001400FM-12+026499999V0200401N001019999999N9999999N1-00071-00401103041ADDAA199000091MA1999999099741MD1110111+9999REMSYN064    AAXX  16214 07535 36/// /0402 11007 21040 39974 40304 51011;EQDQ01  00002PRCP99
0135075350999992000011700004+44750+001400FM-12+026499999V0201501N001019999999N9999999N1-00421-00541103151ADDAA199000091MA1999999099801MD1010061+9999REMSYN064    AAXX  17004 07535 36/// /1502 11042 21054 39980 40315 50006;EQDQ01  00002PRCP99
0135075350999992000011703004+44750+001400FM-12+026499999V0201601N001019999999N9999999N1-00511-00661103261ADDAA199000091MA1999999099901MD1010101+9999REMSYN064    AAXX  17034 07535 36/// /1602 11051 21066 39990 40326 50010;EQDQ01  00002PRCP99
0263075350999992000011706004+44750+001400FM-12+026499999V0200301N002112200019N0070001N1-00491-00571103301ADDAA124000091GA1001+999999999GF100991001001999999001001GJ105049IA1149IA2999-01009KA1999M+00161KA2999N-00601MA1999999099941MD1310041+9999REMSYN098    AAXX  17064 07535 32957 00304 11049 21057 39994 40330 53004 333 10016 21060 34110 55084 70000;EQDQ01  00002PRCP24
0193075350999992000011709004+44750+001400FM-12+026499999V0209999C000012200019N0070001N1-00221-00391103371ADDAA199000091GA1011+069009019GF101991001001999999001011MA1999999100041MD1310101+9999REMSYN080    AAXX  17094 07535 32957 10000 11022 21039 30004 40337 53010 80001 333 81073;EQDQ01  00002PRCP99
0193075350999992000011712004+44750+001400FM-12+026499999V0203501N002112200019N0080001N1+00331-00351103281ADDAA199000091GA1021+069009019GF102991001001999999001021MA1999999100021MD1810021+9999REMSYN080    AAXX  17124 07535 32958 23504 10033 21035 30002 40328 58002 80002 333 82073;EQDQ01  00002PRCP99
0193075350999992000011715004+44750+001400FM-12+026499999V0203301N004112200019N0100001N1+00711-00131103091ADDAA199000091GA1021+069009019GF102991001001999999001021MA1999999099881MD1610141+9999REMSYN080    AAXX  17154 07535 32960 23308 10071 21013 39988 40309 56014 80002 333 82073;EQDQ01  00002PRCP99
0177075350999992000011718004+44750+001400FM-12+026499999V0203201N001019999999N9999999N1+00411-00011103161ADDAA199000091KA1999M+00741KA2999N-00621MA1999999099911MD1310031+9999REMSYN080    AAXX  17184 07535 36/// /3202 10041 21001 39991 40316 53003 333 10074 21062;EQDQ01  00002PRCP99
