0131076750999992000010100004+43380+006380FM-12+0078LFMC V0209999C000019999999N9999999N1-00331-00501102521ADDAA106000091MA1999999101461MD1310061+9999REMSYN060AAXX  01004 07675 36/// /0000 11033 21050 30146 40252 53006;EQDQ01  00002PRCP06
0131076750999992000010101004+43380+006380FM-12+0078LFMC V0209999C000019999999N9999999N1-00371-00511102531ADDAA106000091MA1999999101471MD1110071+9999REMSYN060AAXX  01014 07675 36/// /0000 11037 21051 30147 40253 51007;EQDQ01  00002PRCP06
0131076750999992000010102004+43380+006380FM-12+0078LFMC V0209999C000019999999N9999999N1-00411-00521102541ADDAA106000091MA1999999101481MD1110041+9999REMSYN060AAXX  01024 07675 36/// /0000 11041 21052 30148 40254 51004;EQDQ01  00002PRCP06
0131076750999992000010104004+43380+006380FM-12+0078LFMC V0209999C000019999999N9999999N1-00521-00611102581ADDAA106000091MA1999999101521MD1310051+9999REMSYN060AAXX  01044 07675 36/// /0000 11052 21061 30152 40258 53005;EQDQ01  00002PRCP06
0131076750999992000010105004+43380+006380FM-12+0078LFMC V0202501N001019999999N9999999N1-00521-00601102611ADDAA106000091MA1999999101551MD1310071+9999REMSYN060AAXX  01054 07675 36/// /2502 11052 21060 30155 40261 53007;EQDQ01  00002PRCP06
0131076750999992000010109004+43380+006380FM-12+0078LFMC V0209999C000019999999N9999999N1-00021-00431102781ADDAA106000091MA1999999101731MD1110171+9999REMSYN060AAXX  01094 07675 36/// /0000 11002 21043 30173 40278 51017;EQDQ01  00002PRCP06
0131076750999992000010110004+43380+006380FM-12+0078LFMC V0209999C000019999999N9999999N1+00261-00391102821ADDAA106000091MA1999999101781MD1110141+9999REMSYN060AAXX  01104 07675 36/// /0000 10026 21039 30178 40282 51014;EQDQ01  00002PRCP06
0131076750999992000010111004+43380+006380FM-12+0078LFMC V0201201N001019999999N9999999N1+00571-00171102751ADDAA106000091MA1999999101731MD1010031+9999REMSYN060AAXX  01114 07675 36/// /1202 10057 21017 30173 40275 50003;EQDQ01  00002PRCP06
0131076750999992000010112004+43380+006380FM-12+0078LFMC V0209999C000019999999N9999999N1+00751-00171102671ADDAA106000091MA1999999101651MD1810081+9999REMSYN060AAXX  01124 07675 36/// /0000 10075 21017 30165 40267 58008;EQDQ01  00002PRCP06
0131076750999992000010113004+43380+006380FM-12+0078LFMC V0201301N001019999999N9999999N1+00951-00011102611ADDAA106000091MA1999999101601MD1710181+9999REMSYN060AAXX  01134 07675 36/// /1302 10095 21001 30160 40261 57018;EQDQ01  00002PRCP06
0131076750999992000010114004+43380+006380FM-12+0078LFMC V0209999C000019999999N9999999N1+01001+00111102581ADDAA106000091MA1999999101571MD1610161+9999REMSYN060AAXX  01144 07675 36/// /0000 10100 20011 30157 40258 56016;EQDQ01  00002PRCP06
0131076750999992000010115004+43380+006380FM-12+0078LFMC V0201701N001019999999N9999999N1+00881+00221102591ADDAA106000091MA1999999101581MD1510071+9999REMSYN060AAXX  01154 07675 36/// /1702 10088 20022 30158 40259 55007;EQDQ01  00002PRCP06
0131076750999992000010116004+43380+006380FM-12+0078LFMC V0202801N001019999999N9999999N1+00701+00231102591ADDAA106000091MA1999999101571MD1610031+9999REMSYN060AAXX  01164 07675 36/// /2802 10070 20023 30157 40259 56003;EQDQ01  00002PRCP06
0131076750999992000010117004+43380+006380FM-12+0078LFMC V0202101N001019999999N9999999N1+00421+00211102601ADDAA106000091MA1999999101571MD1010001+9999REMSYN060AAXX  01174 07675 36/// /2102 10042 20021 30157 40260 50000;EQDQ01  00002PRCP06
0173076750999992000010118004+43380+006380FM-12+0078LFMC V0202301N001019999999N9999999N1+00261+00111102621ADDAA106000091KA1999M+01041KA2999N-00571MA1999999101591MD1310011+9999REMSYN076AAXX  01184 07675 36/// /2302 10026 20011 30159 40262 53001 333 10104 21057;EQDQ01  00002PRCP06
0131076750999992000010119004+43380+006380FM-12+0078LFMC V0201301N001019999999N9999999N1+00021-00051102651ADDAA106000091MA1999999101611MD1310041+9999REMSYN060AAXX  01194 07675 36/// /1302 10002 21005 30161 40265 53004;EQDQ01  00002PRCP06
0131076750999992000010120004+43380+006380FM-12+0078LFMC V0200501N001019999999N9999999N1-00091-00151102691ADDAA106000091MA1999999101641MD1310071+9999REMSYN060AAXX  01204 07675 36/// /0502 11009 21015 30164 40269 53007;EQDQ01  00002PRCP06
0131076750999992000010121004+43380+006380FM-12+0078LFMC V0209999C000019999999N9999999N1-00161-00201102681ADDAA106000091MA1999999101631MD1010041+9999REMSYN060AAXX  01214 07675 36/// /0000 11016 21020 30163 40268 50004;EQDQ01  00002PRCP06
0131076750999992000010122004+43380+006380FM-12+0078LFMC V0209999C000019999999N9999999N1-00191-00231102681ADDAA106000091MA1999999101631MD1110021+9999REMSYN060AAXX  01224 07675 36/// /0000 11019 21023 30163 40268 51002;EQDQ01  00002PRCP06
0131076750999992000010123004+43380+006380FM-12+0078LFMC V0202601N001019999999N9999999N1-00251-00291102681ADDAA106000091MA1999999101631MD1610011+9999REMSYN060AAXX  01234 07675 36/// /2602 11025 21029 30163 40268 56001;EQDQ01  00002PRCP06
0131076750999992000010200004+43380+006380FM-12+0078LFMC V0209999C000019999999N9999999N1-00261-00291102651ADDAA106000091MA1999999101601MD1810031+9999REMSYN060AAXX  02004 07675 36/// /0000 11026 21029 30160 40265 58003;EQDQ01  00002PRCP06
0131076750999992000010202004+43380+006380FM-12+0078LFMC V0209999C000019999999N9999999N1-00351-00391102651ADDAA106000091MA1999999101591MD1510041+9999REMSYN060AAXX  02024 07675 36/// /0000 11035 21039 30159 40265 55004;EQDQ01  00002PRCP06
0131076750999992000010203004+43380+006380FM-12+0078LFMC V0202601N001019999999N9999999N1-00431-00481102641ADDAA106000091MA1999999101581MD1610021+9999REMSYN060AAXX  02034 07675 36/// /2602 11043 21048 30158 40264 56002;EQDQ01  00002PRCP06
0131076750999992000010204004+43380+006380FM-12+0078LFMC V0203001N001019999999N9999999N1-00421-00451102611ADDAA106000091MA1999999101551MD1810031+9999REMSYN060AAXX  02044 07675 36/// /3002 11042 21045 30155 40261 58003;EQDQ01  00002PRCP06
0131076750999992000010205004+43380+006380FM-12+0078LFMC V0209999C000019999999N9999999N1-00551-00601102601ADDAA106000091MA1999999101541MD1710051+9999REMSYN060AAXX  02054 07675 36/// /0000 11055 21060 30154 40260 57005;EQDQ01  00002PRCP06
0193076750999992000010206004+43380+006380FM-12+0078LFMC V0209999C000019999999N9999999N1-00541-00611102621ADDAA106000091GJ103669KA1999M+00251KA2999N-00551MA1999999101561MD1510021+9999REMSYN088AAXX  02064 07675 36/// /0000 11054 21061 30156 40262 55002 333 10025 21055 55061 70000;EQDQ01  00002PRCP06
0131076750999992000010207004+43380+006380FM-12+0078LFMC V0209999C000019999999N9999999N1-00611-00691102681ADDAA106000091MA1999999101611MD1310061+9999REMSYN060AAXX  02074 07675 36/// /0000 11061 21069 30161 40268 53006;EQDQ01  00002PRCP06
0131076750999992000010208004+43380+006380FM-12+0078LFMC V0209999C000019999999N9999999N1-00391-00461102731ADDAA106000091MA1999999101671MD1310131+9999REMSYN060AAXX  02084 07675 36/// /0000 11039 21046 30167 40273 53013;EQDQ01  00002PRCP06
0131076750999992000010209004+43380+006380FM-12+0078LFMC V0209999C000019999999N9999999N1-00071-00211102751ADDAA106000091MA1999999101701MD1110141+9999REMSYN060AAXX  02094 07675 36/// /0000 11007 21021 30170 40275 51014;EQDQ01  00002PRCP06
0131076750999992000010210004+43380+006380FM-12+0078LFMC V0201101N001019999999N9999999N1+00291-00091102811ADDAA106000091MA1999999101781MD1310171+9999REMSYN060AAXX  02104 07675 36/// /1102 10029 21009 30178 40281 53017;EQDQ01  00002PRCP06
0131076750999992000010211004+43380+006380FM-12+0078LFMC V0209999C000019999999N9999999N1+00521-00061102781ADDAA106000091MA1999999101751MD1010081+9999REMSYN060AAXX  02114 07675 36/// /0000 10052 21006 30175 40278 50008;EQDQ01  00002PRCP06
0131076750999992000010212004+43380+006380FM-12+0078LFMC V0202701N001019999999N9999999N1+00691-00031102731ADDAA106000091MA1999999101711MD1010011+9999REMSYN060AAXX  02124 07675 36/// /2702 10069 21003 30171 40273 50001;EQDQ01  00002PRCP06
0131076750999992000010213004+43380+006380FM-12+0078LFMC V0209999C000019999999N9999999N1+00961-00061102691ADDAA106000091MA1999999101681MD1710101+9999REMSYN060AAXX  02134 07675 36/// /0000 10096 21006 30168 40269 57010;EQDQ01  00002PRCP06
0131076750999992000010214004+43380+006380FM-12+0078LFMC V0200701N001019999999N9999999N1+01091+00121102711ADDAA106000091MA1999999101711MD1510041+9999REMSYN060AAXX  02144 07675 36/// /0702 10109 20012 30171 40271 55004;EQDQ01  00002PRCP06
0131076750999992000010215004+43380+006380FM-12+0078LFMC V0209999C000019999999N9999999N1+01151+00201102731ADDAA106000091MA1999999101731MD1310021+9999REMSYN060AAXX  02154 07675 36/// /0000 10115 20020 30173 40273 53002;EQDQ01  00002PRCP06
0131076750999992000010216004+43380+006380FM-12+0078LFMC V0209999C000019999999N9999999N1+00931+00261102781ADDAA106000091MA1999999101771MD1310091+9999REMSYN060AAXX  02164 07675 36/// /0000 10093 20026 30177 40278 53009;EQDQ01  00002PRCP06
0173076750999992000010218004+43380+006380FM-12+0078LFMC V0209999C000019999999N9999999N1+00261+00081102931ADDAA106000091KA1999M+01171KA2999N-00621MA1999999101891MD1310161+9999REMSYN076AAXX  02184 07675 36/// /0000 10026 20008 30189 40293 53016 333 10117 21062;EQDQ01  00002PRCP06
0131076750999992000010219004+43380+006380FM-12+0078LFMC V0201601N001019999999N9999999N1+00061-00041103021ADDAA106000091MA1999999101981MD1310211+9999REMSYN060AAXX  02194 07675 36/// /1602 10006 21004 30198 40302 53021;EQDQ01  00002PRCP06
0131076750999992000010220004+43380+006380FM-12+0078LFMC V0209999C000019999999N9999999N1-00011-00081103101ADDAA106000091MA1999999102051MD1310221+9999REMSYN060AAXX  02204 07675 36/// /0000 11001 21008 30205 40310 53022;EQDQ01  00002PRCP06
0131076750999992000010221004+43380+006380FM-12+0078LFMC V0209999C000019999999N9999999N1-00061-00101103141ADDAA106000091MA1999999102091MD1110201+9999REMSYN060AAXX  02214 07675 36/// /0000 11006 21010 30209 40314 51020;EQDQ01  00002PRCP06
0131076750999992000010222004+43380+006380FM-12+0078LFMC V0209999C000019999999N9999999N1-00181-00241103181ADDAA106000091MA1999999102121MD1110141+9999REMSYN060AAXX  02224 07675 36/// /0000 11018 21024 30212 40318 51014;EQDQ01  00002PRCP06
0131076750999992000010223004+43380+006380FM-12+0078LFMC V0202401N001019999999N9999999N1-00171-00201103191ADDAA106000091MA1999999102131MD1110081+9999REMSYN060AAXX  02234 07675 36/// /2402 11017 21020 30213 40319 51008;EQDQ01  00002PRCP06
0131076750999992000010300004+43380+006380FM-12+0078LFMC V0209999C000019999999N9999999N1-00271-00311103191ADDAA106000091MA1999999102131MD1110041+9999REMSYN060AAXX  03004 07675 36/// /0000 11027 21031 30213 40319 51004;EQDQ01  00002PRCP06
0131076750999992000010301004+43380+006380FM-12+0078LFMC V0209999C000019999999N9999999N1-00311-00341103191ADDAA106000091MA1999999102131MD1110011+9999REMSYN060AAXX  03014 07675 36/// /0000 11031 21034 30213 40319 51001;EQDQ01  00002PRCP06
0131076750999992000010302004+43380+006380FM-12+0078LFMC V0209999C000019999999N9999999N1-00291-00321103221ADDAA106000091MA1999999102161MD1310031+9999REMSYN060AAXX  03024 07675 36/// /0000 11029 21032 30216 40322 53003;EQDQ01  00002PRCP06
0131076750999992000010303004+43380+006380FM-12+0078LFMC V0201201N001019999999N9999999N1-00411-00441103221ADDAA106000091MA1999999102151MD1010021+9999REMSYN060AAXX  03034 07675 36/// /1202 11041 21044 30215 40322 50002;EQDQ01  00002PRCP06
0131076750999992000010304004+43380+006380FM-12+0078LFMC V0209999C000019999999N9999999N1-00421-00431103221ADDAA106000091MA1999999102151MD1110021+9999REMSYN060AAXX  03044 07675 36/// /0000 11042 21043 30215 40322 51002;EQDQ01  00002PRCP06
0131076750999992000010305004+43380+006380FM-12+0078LFMC V0209999C000019999999N9999999N1-00421-00421103251ADDAA106000091MA1999999102181MD1310021+9999REMSYN060AAXX  03054 07675 36/// /0000 11042 21042 30218 40325 53002;EQDQ01  00002PRCP06
0193076750999992000010306004+43380+006380FM-12+0078LFMC V0201201N001019999999N9999999N1-00471-00481103261ADDAA106000091GJ104569KA1999M+00261KA2999N-00491MA1999999102191MD1310041+9999REMSYN088AAXX  03064 07675 36/// /1202 11047 21048 30219 40326 53004 333 10026 21049 55076 70000;EQDQ01  00002PRCP06
0131076750999992000010307004+43380+006380FM-12+0078LFMC V0209999C000019999999N9999999N1-00521-00531103281ADDAA106000091MA1999999102211MD1110061+9999REMSYN060AAXX  03074 07675 36/// /0000 11052 21053 30221 40328 51006;EQDQ01  00002PRCP06
0131076750999992000010308004+43380+006380FM-12+0078LFMC V0202601N001019999999N9999999N1-00451-00461103311ADDAA106000091MA1999999102241MD1310061+9999REMSYN060AAXX  03084 07675 36/// /2602 11045 21046 30224 40331 53006;EQDQ01  00002PRCP06
0131076750999992000010309004+43380+006380FM-12+0078LFMC V0200901N001019999999N9999999N1-00081-00111103311ADDAA106000091MA1999999102261MD1210071+9999REMSYN060AAXX  03094 07675 36/// /0902 11008 21011 30226 40331 52007;EQDQ01  00002PRCP06
0122076750999992000010310004+43380+006380FM-12+0078LFMC V0209999C000019999999N9999999N1+00331+00131103271ADDAA101000191MA1999999102231MD1010021+9999REMSYN070AAXX  03104 07675 26/// /0000 10033 20013 30223 40327 50002 333 69925;
0131076750999992000010311004+43380+006380FM-12+0078LFMC V0200501N001019999999N9999999N1+00751+00451103181ADDAA106000091MA1999999102161MD1810081+9999REMSYN060AAXX  03114 07675 36/// /0502 10075 20045 30216 40318 58008;EQDQ01  00002PRCP06
0128076750999992000010312004+43380+006380FM-12+0078LFMC V0202701N004119999999N9999999N1+01181+00311103081ADDAA103000191MA1999999102081MD1810181+9999REMSYN076AAXX  03124 07675 /6/// /2708 10118 20031 30208 40308 58018 69921 333 69927;
0131076750999992000010313004+43380+006380FM-12+0078LFMC V0202701N003119999999N9999999N1+01271+00361103011ADDAA106000091MA1999999102011MD1710221+9999REMSYN060AAXX  03134 07675 36/// /2706 10127 20036 30201 40301 57022;EQDQ01  00002PRCP06
0131076750999992000010314004+43380+006380FM-12+0078LFMC V0202801N004119999999N9999999N1+01321+00411102951ADDAA106000091MA1999999101951MD1610211+9999REMSYN060AAXX  03144 07675 36/// /2808 10132 20041 30195 40295 56021;EQDQ01  00002PRCP06
0131076750999992000010315004+43380+006380FM-12+0078LFMC V0202901N005119999999N9999999N1+01291+00381102921ADDAA106000091MA1999999101921MD1610161+9999REMSYN060AAXX  03154 07675 36/// /2910 10129 20038 30192 40292 56016;EQDQ01  00002PRCP06
0131076750999992000010316004+43380+006380FM-12+0078LFMC V0202301N002119999999N9999999N1+01081+00621102941ADDAA106000091MA1999999101931MD1510081+9999REMSYN060AAXX  03164 07675 36/// /2304 10108 20062 30193 40294 55008;EQDQ01  00002PRCP06
0131076750999992000010317004+43380+006380FM-12+0078LFMC V0202801N001019999999N9999999N1+00831+00411102961ADDAA106000091MA1999999101951MD1510001+9999REMSYN060AAXX  03174 07675 36/// /2802 10083 20041 30195 40296 55000;EQDQ01  00002PRCP06
0160076750999992000010318004+43380+006380FM-12+0078LFMC V0202101N001019999999N9999999N1+00691+00391102971ADDAA112000191KA1999M+01341KA2999N-00531MA1999999101951MD1110031+9999REMSYN082AAXX  03184 07675 16/// /2102 10069 20039 30195 40297 51003 69922 333 10134 21053;
0131076750999992000010319004+43380+006380FM-12+0078LFMC V0201101N001019999999N9999999N1+00391+00261102991ADDAA106000091MA1999999101961MD1110031+9999REMSYN060AAXX  03194 07675 36/// /1102 10039 20026 30196 40299 51003;EQDQ01  00002PRCP06
0131076750999992000010320004+43380+006380FM-12+0078LFMC V0201801N001019999999N9999999N1+00531+00351103011ADDAA106000091MA1999999101981MD1310031+9999REMSYN060AAXX  03204 07675 36/// /1802 10053 20035 30198 40301 53003;EQDQ01  00002PRCP06
0131076750999992000010321004+43380+006380FM-12+0078LFMC V0201301N001019999999N9999999N1+00361+00241103001ADDAA106000091MA1999999101971MD1010021+9999REMSYN060AAXX  03214 07675 36/// /1302 10036 20024 30197 40300 50002;EQDQ01  00002PRCP06
0131076750999992000010322004+43380+006380FM-12+0078LFMC V0202601N002119999999N9999999N1+00361+00321102991ADDAA106000091MA1999999101961MD1010001+9999REMSYN060AAXX  03224 07675 36/// /2604 10036 20032 30196 40299 50000;EQDQ01  00002PRCP06
0131076750999992000010323004+43380+006380FM-12+0078LFMC V0202801N003119999999N9999999N1+00331+00201102981ADDAA106000091MA1999999101951MD1710031+9999REMSYN060AAXX  03234 07675 36/// /2806 10033 20020 30195 40298 57003;EQDQ01  00002PRCP06
0131076750999992000010400004+43380+006380FM-12+0078LFMC V0202101N001019999999N9999999N1+00451+00281102951ADDAA106000091MA1999999101921MD1810051+9999REMSYN060AAXX  04004 07675 36/// /2102 10045 20028 30192 40295 58005;EQDQ01  00002PRCP06
0131076750999992000010401004+43380+006380FM-12+0078LFMC V0203501N001019999999N9999999N1+00381+00281102921ADDAA106000091MA1999999101891MD1810071+9999REMSYN060AAXX  04014 07675 36/// /3502 10038 20028 30189 40292 58007;EQDQ01  00002PRCP06
0131076750999992000010402004+43380+006380FM-12+0078LFMC V0202601N004119999999N9999999N1+00501+00271102891ADDAA106000091MA1999999101861MD1710091+9999REMSYN060AAXX  04024 07675 36/// /2608 10050 20027 30186 40289 57009;EQDQ01  00002PRCP06
0131076750999992000010403004+43380+006380FM-12+0078LFMC V0202601N004119999999N9999999N1+00441+00261102841ADDAA106000091MA1999999101811MD1810111+9999REMSYN060AAXX  04034 07675 36/// /2608 10044 20026 30181 40284 58011;EQDQ01  00002PRCP06
0131076750999992000010404004+43380+006380FM-12+0078LFMC V0202801N004119999999N9999999N1+00291+00161102811ADDAA106000091MA1999999101781MD1710111+9999REMSYN060AAXX  04044 07675 36/// /2808 10029 20016 30178 40281 57011;EQDQ01  00002PRCP06
0131076750999992000010405004+43380+006380FM-12+0078LFMC V0202601N004119999999N9999999N1+00351+00201102801ADDAA106000091MA1999999101771MD1610091+9999REMSYN060AAXX  04054 07675 36/// /2608 10035 20020 30177 40280 56009;EQDQ01  00002PRCP06
0298076750999992000010406004+43380+006380SY-MT+0078LFMC V0202701N003112200019N0200001N1+00281+00121102801ADDAA106000091GF100991001001999999001001GJ104509IA1149KA1999M+00691KA2999N+00191MA1102711101771MD1610041+9999MW1001REMSYN094AAXX  04064 07675 32970 02706 10028 20012 30177 40280 56004 333 10069 20019 34/// 55075 70002;MET039LFMC 040600Z 28006KT CAVOK 03/01 Q1027;EQDQ01+000000PRSWM2Q02  00002PRCP06
0224076750999992000010407004+43380+006380SY-MT+0078LFMC V0202701N005112200019N0750001N1+00341+00141102801ADDAA106000091GF100991001001999999001001MA1102711101771MD1610011+9999MW1001REMSYN060AAXX  04074 07675 32989 02710 10034 20014 30177 40280 56001;MET039LFMC 040700Z 27010KT CAVOK 04/02 Q1027;EQDQ01+000000PRSWM2Q02  00002PRCP06
0224076750999992000010408004+43380+006380SY-MT+0078LFMC V0202501N005112200019N0750001N1+00501+00181102811ADDAA106000091GF100991001001999999001001MA1102711101781MD1310011+9999MW1001REMSYN060AAXX  04084 07675 32989 02510 10050 20018 30178 40281 53001;MET039LFMC 040800Z 25009KT CAVOK 05/02 Q1027;EQDQ01+000000PRSWM2Q02  00002PRCP06
0224076750999992000010410004+43380+006380SY-MT+0078LFMC V0202501N006212200019N0750001N1+00921+00301102791ADDAA106000091GF100991001001999999001001MA1102711101781MD1010011+9999MW1001REMSYN060AAXX  04104 07675 32989 02512 10092 20030 30178 40279 50001;MET039LFMC 041000Z 25011KT CAVOK 09/03 Q1027;EQDQ01+000000PRSWM2Q02  00002PRCP06
0224076750999992000010411004+43380+006380SY-MT+0078LFMC V0202801N007212200019N0750001N1+01081+00341102701ADDAA106000091GF100991001001999999001001MA1102711101701MD1810081+9999MW1001REMSYN060AAXX  04114 07675 32989 02814 10108 20034 30170 40270 58008;MET039LFMC 041100Z 27013KT CAVOK 11/04 Q1027;EQDQ01+000000PRSWM2Q02  00002PRCP06
0198076750999992000010412004+43380+006380SY-MT+0078LFMC V0202801N007219999999Y0099001N1+01201+00401102611ADDAA106000091MA1102511101611MD1810181+9999MW1001REMSYN060AAXX  04124 07675 36/// /2814 10120 20040 30161 40261 58018;MET039LFMC 041200Z 28014KT CAVOK 12/04 Q1025;EQDQ01+000000PRSWM2Q02  00002PRCP06
0224076750999992000010413004+43380+006380SY-MT+0078LFMC V0202901N007212200019N0750001N1+01291+00461102511ADDAA106000091GF100991001001999999001001MA1102511101521MD1810261+9999MW1001REMSYN060AAXX  04134 07675 32989 02914 10129 20046 30152 40251 58026;MET039LFMC 041300Z 29013KT CAVOK 13/05 Q1025;EQDQ01+000000PRSWM2Q02  00002PRCP06
0224076750999992000010414004+43380+006380SY-MT+0078LFMC V0203001N008212200019N0750001N1+01321+00491102471ADDAA106000091GF100991001001999999001001MA1102401101481MD1610221+9999MW1001REMSYN060AAXX  04144 07675 32989 03016 10132 20049 30148 40247 56022;MET039LFMC 041400Z 30015KT CAVOK 13/05 Q1024;EQDQ01+000000PRSWM2Q02  00002PRCP06
0224076750999992000010415004+43380+006380SY-MT+0078LFMC V0202901N006212200019N0750001N1+01271+00441102431ADDAA106000091GF100991001001999999001001MA1102401101441MD1610171+9999MW1001REMSYN060AAXX  04154 07675 32989 02912 10127 20044 30144 40243 56017;MET039LFMC 041500Z 29012KT CAVOK 13/05 Q1024;EQDQ01+000000PRSWM2Q02  00002PRCP06
0224076750999992000010416004+43380+006380SY-MT+0078LFMC V0202701N005112200019N0750001N1+01111+00461102431ADDAA106000091GF100991001001999999001001MA1102401101431MD1610091+9999MW1001REMSYN060AAXX  04164 07675 32989 02710 10111 20046 30143 40243 56009;MET039LFMC 041600Z 27009KT CAVOK 11/05 Q1024;EQDQ01+000000PRSWM2Q02  00002PRCP06
0224076750999992000010417004+43380+006380SY-MT+0078LFMC V0202501N006212200019N0200001N1+01021+00561102411ADDAA106000091GF100991001001999999001001MA1102301101411MD1610071+9999MW1001REMSYN060AAXX  04174 07675 32970 02512 10102 20056 30141 40241 56007;MET039LFMC 041700Z 25011KT CAVOK 10/06 Q1023;EQDQ01+000000PRSWM2Q02  00002PRCP06
0091076750999992000010418004+43380+006380FM-15+0078LFMC V0202501N00621220001CN0099001N1+00901+00601999999ADDMA1102401999999MW1001REMMET039LFMC 041800Z 25012KT CAVOK 09/06 Q1024;EQDQ01+000000PRSWM2
0131076750999992000010419004+43380+006380FM-12+0078LFMC V0202401N006219999999N9999999N1+00921+00581102431ADDAA106000091MA1999999101421MD1610011+9999REMSYN060AAXX  04194 07675 36/// /2412 10092 20058 30142 40243 56001;EQDQ01  00002PRCP06
0131076750999992000010420004+43380+006380FM-12+0078LFMC V0202401N004119999999N9999999N1+00841+00531102441ADDAA106000091MA1999999101431MD1210021+9999REMSYN060AAXX  04204 07675 36/// /2408 10084 20053 30143 40244 52002;EQDQ01  00002PRCP06
0116076750999992000010421004+43380+006380FM-12+0078LFMC V0202601N005119999999N9999999N1+00821+00501999999ADDAA106000091MA1999999101421REMSYN059AAXX  04214 07675 36/// /2610 10082 20050 30142 0243 50000;EQDQ01  00002PRCP06
0131076750999992000010422004+43380+006380FM-12+0078LFMC V0202401N004119999999N9999999N1+00771+00431102391ADDAA106000091MA1999999101381MD1810041+9999REMSYN060AAXX  04224 07675 36/// /2408 10077 20043 30138 40239 58004;EQDQ01  00002PRCP06
0131076750999992000010423004+43380+006380FM-12+0078LFMC V0202501N006219999999N9999999N1+00771+00391102351ADDAA106000091MA1999999101341MD1810091+9999REMSYN060AAXX  04234 07675 36/// /2512 10077 20039 30134 40235 58009;EQDQ01  00002PRCP06
0131076750999992000010500004+43380+006380FM-12+0078LFMC V0202501N005119999999N9999999N1+00741+00351102311ADDAA106000091MA1999999101301MD1710121+9999REMSYN060AAXX  05004 07675 36/// /2510 10074 20035 30130 40231 57012;EQDQ01  00002PRCP06
0131076750999992000010501004+43380+006380FM-12+0078LFMC V0202701N008219999999N9999999N1+00771+00321102261ADDAA106000091MA1999999101251MD1810131+9999REMSYN060AAXX  05014 07675 36/// /2716 10077 20032 30125 40226 58013;EQDQ01  00002PRCP06
0131076750999992000010502004+43380+006380FM-12+0078LFMC V0202601N007219999999N9999999N1+00781+00331102221ADDAA106000091MA1999999101211MD1710131+9999REMSYN060AAXX  05024 07675 36/// /2614 10078 20033 30121 40222 57013;EQDQ01  00002PRCP06
0131076750999992000010503004+43380+006380FM-12+0078LFMC V0202501N007219999999N9999999N1+00771+00341102161ADDAA106000091MA1999999101151MD1810151+9999REMSYN060AAXX  05034 07675 36/// /2514 10077 20034 30115 40216 58015;EQDQ01  00002PRCP06
0131076750999992000010504004+43380+006380FM-12+0078LFMC V0202901N005119999999N9999999N1+00791+00321102171ADDAA106000091MA1999999101161MD1510091+9999REMSYN060AAXX  05044 07675 36/// /2910 10079 20032 30116 40217 55009;EQDQ01  00002PRCP06
0131076750999992000010505004+43380+006380FM-12+0078LFMC V0203601N001019999999N9999999N1+00581+00241102221ADDAA106000091MA1999999101201MD1510011+9999REMSYN060AAXX  05054 07675 36/// /3602 10058 20024 30120 40222 55001;EQDQ01  00002PRCP06
0260076750999992000010506004+43380+006380SY-MT+0078LFMC V0200901N001019999999Y0099001N1+00391+00231102251ADDAA106000091GJ104929KA1999M+00961KA2999N+00391MA1102201101231MD1310081+9999MW1001REMSYN088AAXX  05064 07675 36/// /0902 10039 20023 30123 40225 53008 333 10096 20039 55082 70000;MET039LFMC 050600Z 09002KT CAVOK 04/02 Q1022;EQDQ01+000000PRSWM2Q02  00002PRCP06
0320076750999992000010507004+43380+006380SY-MT+0078LFMC V0209999C000010300019N0150001N1+00271+00181102301ADDAA106000091GA1021+009009999GA2071+030009999GA3071+075009999GF107991021051008001071011MA1102201101271MD1210111+9999MW1001REMSYN088AAXX  05074 07675 32565 70000 10027 20018 30127 40230 52011 82571 333 82630 85360 85075;MET059LFMC 050700Z 00000KT 9999 FEW030 BKN100 BKN250 03/02 Q1022;EQDQ01+000000PRSWM2Q02  00002PRCP06
0320076750999992000010508004+43380+006380SY-MT+0078LFMC V0209999C000010300019N0150001N1+00231+00161102331ADDAA106000091GA1021+009009999GA2071+030009999GA3071+075009999GF107991021051008001071011MA1102201101301MD1210101+9999MW1001REMSYN088AAXX  05084 07675 32565 70000 10023 20016 30130 40233 52010 82571 333 82630 86360 87075;MET059LFMC 050800Z 27001KT 9999 FEW030 BKN100 BKN250 02/02 Q1022;EQDQ01+000000PRSWM2Q02  00002PRCP06
0198076750999992000010509004+43380+006380SY-MT+0078LFMC V0209999C000019999999Y0099001N1+00611+00311102371ADDAA106000091MA1102301101351MD1310121+9999MW1001REMSYN060AAXX  05094 07675 36/// /0000 10061 20031 30135 40237 53012;MET039LFMC 050900Z 00000KT CAVOK 06/03 Q1023;EQDQ01+000000PRSWM2Q02  00002PRCP06
0262076750999992000010510004+43380+006380SY-MT+0078LFMC V0209999C000019999999N0150001N1+00831+00341102381ADDAA106000091GA1011+030009039GF107991011001999999071011MA1102301101371MD1110101+9999MW1001REMSYN082AAXX  05104 07675 32965 70000 10083 20034 30137 40238 51010 81071 333 81360 87075;MET039LFMC 051000Z 00000KT CAVOK 08/03 Q1023;EQDQ01+000000PRSWM2Q02  00002PRCP06
0262076750999992000010512004+43380+006380SY-MT+0078LFMC V0209999C000019999999N0200001N1+01251+00521102241ADDAA106000091GA1011+027009039GF106991011001999999031011MA1102201101251MD1810101+9999MW1001REMSYN082AAXX  05124 07675 32970 60000 10125 20052 30125 40224 58010 81031 333 81359 85075;MET039LFMC 051200Z 00000KT CAVOK 13/05 Q1022;EQDQ01+000000PRSWM2Q02  00002PRCP06
0262076750999992000010513004+43380+006380SY-MT+0078LFMC V0201101N001019999999N0200001N1+01331+00691102201ADDAA106000091GA1021+027009039GF106991011001999999031011MA1102101101211MD1610161+9999MW1001REMSYN082AAXX  05134 07675 32970 61102 10133 20069 30121 40220 56016 81031 333 82359 84075;MET039LFMC 051300Z 10001KT CAVOK 13/07 Q1021;EQDQ01+000000PRSWM2Q02  00002PRCP06
0262076750999992000010514004+43380+006380SY-MT+0078LFMC V0201001N003119999999N0190001N1+01391+00701102201ADDAA106000091GA1011+030009039GF105991011001999999071011MA1102101101211MD1610101+9999MW1001REMSYN082AAXX  05144 07675 32969 51006 10139 20070 30121 40220 56010 81071 333 81360 85075;MET039LFMC 051400Z 10007KT CAVOK 14/07 Q1021;EQDQ01+000000PRSWM2Q02  00002PRCP06
0240076750999992000010515004+43380+006380SY-MT+0078LFMC V0201101N003119999999N0190001N1+01271+00761102201ADDAA106000091GF106991001001999999001011MA1102101101211MD1610041+9999MW1001REMSYN076AAXX  05154 07675 32969 61106 10127 20076 30121 40220 56004 80001 333 86075;MET039LFMC 051500Z 10005KT CAVOK 13/08 Q1021;EQDQ01+000000PRSWM2Q02  00002PRCP06
0262076750999992000010516004+43380+006380SY-MT+0078LFMC V0201201N002119999999N0150001N1+01121+00791102211ADDAA106000091GA1031+030009039GF107991031001999999071021MA1102101101211MD1410001+9999MW1001REMSYN082AAXX  05164 07675 32965 71204 10112 20079 30121 40221 54000 83072 333 83360 87075;MET039LFMC 051600Z 12003KT CAVOK 11/08 Q1021;EQDQ01+000000PRSWM2Q02  00002PRCP06
0262076750999992000010517004+43380+006380SY-MT+0078LFMC V0202701N001019999999N0100001N1+00791+00671102241ADDAA106000091GA1031+030009039GF107991031001999999071021MA1102201101231MD1310021+9999MW1001REMSYN082AAXX  05174 07675 32960 72702 10079 20067 30123 40224 53002 83072 333 83360 87075;MET039LFMC 051700Z 28001KT CAVOK 08/07 Q1022;EQDQ01+000000PRSWM2Q02  00002PRCP06
0091076750999992000010518004+43380+006380FM-15+0078LFMC V0209999C00001220001CN0099001N1+00601+00501999999ADDMA1102201999999MW1001REMMET039LFMC 051800Z 00000KT CAVOK 06/05 Q1022;EQDQ01+000000PRSWM2
0131076750999992000010519004+43380+006380FM-12+0078LFMC V0209999C000019999999N9999999N1+00391+00351102351ADDAA106000091MA1999999101331MD1310121+9999REMSYN060AAXX  05194 07675 36/// /0000 10039 20035 30133 40235 53012;EQDQ01  00002PRCP06
0131076750999992000010521004+43380+006380FM-12+0078LFMC V0202601N001019999999N9999999N1+00221+00181102411ADDAA106000091MA1999999101381MD1110111+9999REMSYN060AAXX  05214 07675 36/// /2602 10022 20018 30138 40241 51011;EQDQ01  00002PRCP06
0131076750999992000010522004+43380+006380FM-12+0078LFMC V0209999C000019999999N9999999N1+00211+00181102431ADDAA106000091MA1999999101401MD1210071+9999REMSYN060AAXX  05224 07675 36/// /0000 10021 20018 30140 40243 52007;EQDQ01  00002PRCP06
0131076750999992000010601004+43380+006380FM-12+0078LFMC V0202501N001019999999N9999999N1+00171+00171102461ADDAA106000091MA1999999101431MD1010031+9999REMSYN060AAXX  06014 07675 36/// /2502 10017 20017 30143 40246 50003;EQDQ01  00002PRCP06
0131076750999992000010602004+43380+006380FM-12+0078LFMC V0200901N001019999999N9999999N1+00221+00221102461ADDAA106000091MA1999999101431MD1110011+9999REMSYN060AAXX  06024 07675 36/// /0902 10022 20022 30143 40246 51001;EQDQ01  00002PRCP06
0131076750999992000010603004+43380+006380FM-12+0078LFMC V0202501N001019999999N9999999N1+00261+00261102451ADDAA106000091MA1999999101421MD1710021+9999REMSYN060AAXX  06034 07675 36/// /2502 10026 20026 30142 40245 57002;EQDQ01  00002PRCP06
0131076750999992000010604004+43380+006380FM-12+0078LFMC V0209999C000019999999N9999999N1+00181+00181102461ADDAA106000091MA1999999101431MD1510001+9999REMSYN060AAXX  06044 07675 36/// /0000 10018 20018 30143 40246 55000;EQDQ01  00002PRCP06
0131076750999992000010605004+43380+006380FM-12+0078LFMC V0202501N001019999999N9999999N1+00241+00241102441ADDAA106000091MA1999999101411MD1810021+9999REMSYN060AAXX  06054 07675 36/// /2502 10024 20024 30141 40244 58002;EQDQ01  00002PRCP06
0398076750999992000010606004+43380+006380SY-MT+0078LFMC V0209999C000010060019N0025001N1+00251+00251102481ADDAA106000091AA224000091AY121061AY221061GA1021+000909999GA2071+006009999GF107991071061001501001001GJ103789KA1999M+00561KA2999N+00101MA1102401101451MD1310031+9999MW1101REMSYN112AAXX  06064 07675 31225 70000 10025 20025 30145 40248 53003 71022 87600 333 10056 20010 55063 70000 82703 85620;MET052LFMC 060600Z 00000KT 2000 FEW003 BKN020 03/03 Q1024;EQDQ01+000000PRSWM2Q02  00002PRCP06Q03    003PRSWM1
0316076750999992000010607004+43380+006380SY-MT+0078LFMC V0209999C000010060019N0015001N1+00281+00281102521ADDAA106000091AY121999AY221999GA1021+000909999GA2071+006009999GF107991071051001501999999MA1102401101491MD1310061+9999MW1101REMSYN088AAXX  06074 07675 31215 70000 10028 20028 30149 40252 53006 71022 875// 333 82703 87620;MET055LFMC 060700Z 00000KT 1500 BR FEW003 BKN020 03/03 Q1024;EQDQ01  00002PRCP06Q02    003PRSWM1
0316076750999992000010608004+43380+006380SY-MT+0078LFMC V0209999C000010063019N0017001N1+00321+00321102551ADDAA106000091AY121999AY221999GA1021+000909999GA2071+006309999GF107991071051001501999999MA1102511101521MD1110111+9999MW1101REMSYN088AAXX  06084 07675 31217 70000 10032 20032 30152 40255 51011 71022 875// 333 82703 87621;MET055LFMC 060800Z 00000KT 1700 BR FEW003 BKN021 03/03 Q1025;EQDQ01  00002PRCP06Q02    003PRSWM1
0361076750999992000010609004+43380+006380SY-MT+0078LFMC V0209999C00001075001CN0020001N1+00481+00481102581ADDAA106000091AY121031AY221031GA1021+000609999GA2021+009009999GA3071+075009999GF199999051051000751001011MA1102511101561MD1210111+9999MW1101REMSYN094AAXX  06094 07675 31120 60000 10048 20048 30156 40258 52011 71022 85501 333 81702 84630 85075;MET062LFMC 060900Z 00000KT 2000 BR FEW002 SCT030 BKN250 05/05 Q1025;EQDQ01+000062SCOTCVQ02  00002PRCP06Q03    003PRSWM1
0361076750999992000010610004+43380+006380SY-MT+0078LFMC V0209999C00001075001CN0035001N1+00801+00691102571ADDAA106000091AY121999AY221999GA1021+000609999GA2021+009009999GA3071+075009999GF199999051051000751001011MA1102511101561MD1110071+9999MW1101REMSYN094AAXX  06104 07675 31135 60000 10080 20069 30156 40257 51007 71022 85501 333 81702 84630 85075;MET062LFMC 061000Z 00000KT 3500 BR FEW002 SCT030 BKN250 08/07 Q1025;EQDQ01+000062SCOTCVQ02  00002PRCP06Q03    003PRSWM1
0320076750999992000010611004+43380+006380SY-MT+0078LFMC V0202301N001010120019N0050001N1+00991+00821102531ADDAA106000091GA1021+006009999GA2071+012009999GA3071+075009999GF107991051081008001001021MA1102511101531MD1010011+9999MW1001REMSYN088AAXX  06114 07675 32550 72302 10099 20082 30153 40253 50001 85802 333 81820 85640 86075;MET059LFMC 061100Z 23002KT 5000 FEW020 BKN040 BKN250 10/08 Q1025;EQDQ01+000000PRSWM2Q02  00002PRCP06
0320076750999992000010612004+43380+006380SY-MT+0078LFMC V0202201N001010120019N0200001N1+01131+00741102481ADDAA106000091GA1021+006009999GA2071+012009999GA3071+075009999GF107991051081008001001021MA1102401101481MD1810081+9999MW1001REMSYN088AAXX  06124 07675 32570 72202 10113 20074 30148 40248 58008 85802 333 81820 85640 86075;MET059LFMC 061200Z 22001KT 9999 FEW020 BKN040 BKN250 11/08 Q1024;EQDQ01+000000PRSWM2Q02  00002PRCP06
0291076750999992000010613004+43380+006380SY-MT+0078LFMC V0202201N002110120019N0300001N1+01231+00681102441ADDAA106000091GA1071+012009999GA2071+075009999GF107991051051012501001021MA1102401101441MD1810121+9999MW1001REMSYN082AAXX  06134 07675 32680 72204 10123 20068 30144 40244 58012 85502 333 85640 86075;MET052LFMC 061300Z 21003KT 9999 BKN040 BKN250 12/07 Q1024;EQDQ01+000000PRSWM2Q02  00002PRCP06
0291076750999992000010614004+43380+006380SY-MT+0078LFMC V0202901N004110120019N0500001N1+01251+00471102391ADDAA106000091GA1071+012009999GA2071+075009999GF107991051051012501001021MA1102301101401MD1610131+9999MW1001REMSYN082AAXX  06144 07675 32684 72908 10125 20047 30140 40239 56013 85502 333 85640 86075;MET052LFMC 061400Z 28007KT 9999 BKN040 BKN250 12/04 Q1023;EQDQ01+000000PRSWM2Q02  00002PRCP06
0307076750999992000010615004+43380+006380SY-MT+0078LFMC V0202701N004110750019N0500001N1+01191+00491102401ADDAA106000091GA1021+012009999GA2071+075009999GF199999021051012501001021MA1102301101401MD1610081+9999MW1001REMSYN082AAXX  06154 07675 32684 52708 10119 20049 30140 40240 56008 82502 333 82640 85075;MET052LFMC 061500Z 27007KT 9999 FEW040 BKN250 12/05 Q1023;EQDQ01+000052SCOTCVQ02+000000PRSWM2Q03  00002PRCP06
0291076750999992000010616004+43380+006380SY-MT+0078LFMC V0202401N00211090001CN0500001N1+01011+00571102381ADDAA106000091GA1021+012009999GA2021+075009999GF105991011051012501001021MA1102301101381MD1610061+9999MW1001REMSYN082AAXX  06164 07675 32684 52404 10101 20057 30138 40238 56006 81502 333 81640 84075;MET052LFMC 061600Z 24004KT 9999 FEW040 SCT250 10/06 Q1023;EQDQ01+000000PRSWM2Q02  00002PRCP06
0291076750999992000010617004+43380+006380SY-MT+0078LFMC V0202501N00311090001CN0500001N1+00801+00511102411ADDAA106000091GA1021+012009999GA2021+075009999GF105991011051012501001021MA1102301101401MD1510001+9999MW1001REMSYN082AAXX  06174 07675 32684 52506 10080 20051 30140 40241 55000 81502 333 81640 84075;MET052LFMC 061700Z 26005KT 9999 FEW040 SCT250 08/05 Q1023;EQDQ01+000000PRSWM2Q02  00002PRCP06
0162076750999992000010618004+43380+006380FM-15+0078LFMC V0202501N002612200019N0112651N1+00701+00501999999ADDGA1021+012009999GA2021+075009999GF104991999999999999999999MA1102301999999MW1001REMMET052LFMC 061800Z 25005KT 9999 FEW040 SCT250 07/05 Q1023;EQDQ01+000000PRSWM2
0131076750999992000010620004+43380+006380FM-12+0078LFMC V0202701N003119999999N9999999N1+00671+00501102441ADDAA106000091MA1999999101421MD1210021+9999REMSYN060AAXX  06204 07675 36/// /2706 10067 20050 30142 40244 52002;EQDQ01  00002PRCP06
0131076750999992000010621004+43380+006380FM-12+0078LFMC V0202801N001019999999N9999999N1+00521+00451102461ADDAA106000091MA1999999101441MD1210041+9999REMSYN060AAXX  06214 07675 36/// /2802 10052 20045 30144 40246 52004;EQDQ01  00002PRCP06
0131076750999992000010622004+43380+006380FM-12+0078LFMC V0202701N001019999999N9999999N1+00501+00411102451ADDAA106000091MA1999999101431MD1010011+9999REMSYN060AAXX  06224 07675 36/// /2702 10050 20041 30143 40245 50001;EQDQ01  00002PRCP06
0131076750999992000010623004+43380+006380FM-12+0078LFMC V0201501N001019999999N9999999N1+00411+00401102471ADDAA106000091MA1999999101441MD1110021+9999REMSYN060AAXX  06234 07675 36/// /1502 10041 20040 30144 40247 51002;EQDQ01  00002PRCP06
0131076750999992000010700004+43380+006380FM-12+0078LFMC V0209999C000019999999N9999999N1+00311+00281102441ADDAA106000091MA1999999101411MD1810031+9999REMSYN060AAXX  07004 07675 36/// /0000 10031 20028 30141 40244 58003;EQDQ01  00002PRCP06
0131076750999992000010701004+43380+006380FM-12+0078LFMC V0203001N002119999999N9999999N1+00411+00311102441ADDAA106000091MA1999999101411MD1810021+9999REMSYN060AAXX  07014 07675 36/// /3004 10041 20031 30141 40244 58002;EQDQ01  00002PRCP06
0131076750999992000010702004+43380+006380FM-12+0078LFMC V0202201N002119999999N9999999N1+00341+00311102441ADDAA106000091MA1999999101411MD1610031+9999REMSYN060AAXX  07024 07675 36/// /2204 10034 20031 30141 40244 56003;EQDQ01  00002PRCP06
0131076750999992000010703004+43380+006380FM-12+0078LFMC V0209999C000019999999N9999999N1+00271+00241102421ADDAA106000091MA1999999101391MD1810021+9999REMSYN060AAXX  07034 07675 36/// /0000 10027 20024 30139 40242 58002;EQDQ01  00002PRCP06
0131076750999992000010704004+43380+006380FM-12+0078LFMC V0200801N001019999999N9999999N1+00081+00051102411ADDAA106000091MA1999999101371MD1810041+9999REMSYN060AAXX  07044 07675 36/// /0802 10008 20005 30137 40241 58004;EQDQ01  00002PRCP06
0131076750999992000010705004+43380+006380FM-12+0078LFMC V0202401N003119999999N9999999N1+00241+00241102391ADDAA106000091MA1999999101361MD1610051+9999REMSYN060AAXX  07054 07675 36/// /2406 10024 20024 30136 40239 56005;EQDQ01  00002PRCP06
0388076750999992000010706004+43380+006380SY-MT+0078LFMC V0200901N001010750019N0080001N1+00001+00001102431ADDAA106000091AA224000091GA1021+009009999GA2071+075009999GF199999011051008001001011GJ100369IA1149KA1999M+00711KA2999N-00021MA1102301101391MD1510001+9999MW1001REMSYN112AAXX  07064 07675 32558 60902 10000 20000 30139 40243 55000 81501 333 10071 21002 34/// 55006 70000 81630 86075;MET052LFMC 070600Z 08002KT 8000 FEW030 BKN250 00/00 Q1023;EQDQ01+000062SCOTCVQ02+000000PRSWM2Q03  00002PRCP06
0303076750999992000010707004+43380+006380SY-MT+0078LFMC V0203101N002110750019N0040001N1+00001+00001102461ADDAA106000091AY121011AY221011GA1071+075009999GF199999001001999999001011MA1102401101421MD1310051+9999MW1101REMSYN082AAXX  07074 07675 31940 63104 10000 20000 30142 40246 53005 71022 80001 333 86075;MET048LFMC 070700Z 31003KT 4000 BR BKN250 00/00 Q1024;EQDQ01+000062SCOTCVQ02  00002PRCP06Q03    003PRSWM1
0278076750999992000010708004+43380+006380SY-MT+0078LFMC V0202801N001010750019N0080001N1+00021+00021102501ADDAA106000091GA1071+075009999GF199999001001999999001011MA1102401101461MD1310101+9999MW1001REMSYN076AAXX  07084 07675 32958 62802 10002 20002 30146 40250 53010 80001 333 86075;MET045LFMC 070800Z 29003KT 8000 BKN250 00/00 Q1024;EQDQ01+000062SCOTCVQ02+000000PRSWM2Q03  00002PRCP06
0278076750999992000010709004+43380+006380SY-MT+0078LFMC V0201201N001010750019N0060001N1+00101+00101102521ADDAA106000091GA1071+075009999GF199999001001999999001011MA1102401101481MD1110091+9999MW1001REMSYN076AAXX  07094 07675 32956 61202 10010 20010 30148 40252 51009 80001 333 86075;MET045LFMC 070900Z 12001KT 6000 BKN250 01/01 Q1024;EQDQ01+000062SCOTCVQ02+000000PRSWM2Q03  00002PRCP06
0268076750999992000010710004+43380+006380SY-MT+0078LFMC V0201101N001010750019N0060001N1+00371+00371102521ADDAA101000291GA1071+075009999GF199999001001999999001011MA1102401101491MD1110071+9999MW1001REMSYN082AAXX  07104 07675 22956 61102 10037 20037 30149 40252 51007 80001 333 69925 86075;MET045LFMC 071000Z 10001KT 6000 BKN250 04/04 Q1024;EQDQ01+000062SCOTCVQ02+000000PRSWM2
0246076750999992000010711004+43380+006380SY-MT+0078LFMC V0209999C000010750019N0080001N1+00641+00441102461ADDAA106000091GA1071+075009999GF107991999999999999999999MA1102401101441MD1810021+9999MW1001REMSYN060AAXX  07114 07675 36/// /0000 10064 20044 30144 40246 58002;MET045LFMC 071100Z 00000KT 8000 BKN250 06/04 Q1024;EQDQ01+000000PRSWM2Q02  00002PRCP06
0287076750999992000010712004+43380+006380SY-MT+0078LFMC V0209999C000010120019N0100001N1+00871+00491102401ADDAA103000291GA1071+012009999GA2071+075009999GF107991051051012501001011MA1102301101391MD1810091+9999MW1001REMSYN094AAXX  07124 07675 /2660 70000 10087 20049 30139 40240 58009 69921 85501 333 69927 85640 87075;MET052LFMC 071200Z 00000KT 9999 BKN040 BKN250 09/05 Q1023;EQDQ01+000000PRSWM2
0131076750999992000010713004+43380+006380FM-12+0078LFMC V0209999C000019999999N9999999N1+00861+00501102361ADDAA106000091MA1999999101351MD1610141+9999REMSYN060AAXX  07134 07675 36/// /0000 10086 20050 30135 40236 56014;EQDQ01  00002PRCP06
0292076750999992000010714004+43380+006380SY-MT+0078LFMC V0201201N001010750019N0112651N1+00911+00551102361ADDAA106000091GA1021+007809999GA2021+012009999GA3071+075009999GF107991999999999999999999MA1102301101351MD1610091+9999MW1001REMSYN060AAXX  07144 07675 36/// /1202 10091 20055 30135 40236 56009;MET059LFMC 071400Z 12001KT 9999 FEW026 SCT040 BKN250 09/06 Q1023;EQDQ01+000000PRSWM2Q02  00002PRCP06
0320076750999992000010715004+43380+006380SY-MT+0078LFMC V0200601N001010120019N0200001N1+00921+00611102381ADDAA106000091GA1021+007809999GA2071+012009999GA3071+075009999GF107991051081008001001021MA1102301101371MD1510021+9999MW1001REMSYN088AAXX  07154 07675 32570 70602 10092 20061 30137 40238 55002 85802 333 82826 85640 87075;MET059LFMC 071500Z 05001KT 9999 FEW026 BKN040 BKN250 09/06 Q1023;EQDQ01+000000PRSWM2Q02  00002PRCP06
0320076750999992000010716004+43380+006380SY-MT+0078LFMC V0200601N002110120019N0200001N1+00931+00721102361ADDAA106000091GA1021+007809999GA2071+012009999GA3071+075009999GF107991051081008001001021MA1102301101361MD1010011+9999MW1001REMSYN088AAXX  07164 07675 32570 70604 10093 20072 30136 40236 50001 85802 333 82826 85640 87075;MET059LFMC 071600Z 06003KT 9999 FEW026 BKN040 BKN250 09/07 Q1023;EQDQ01+000000PRSWM2Q02  00002PRCP06
0320076750999992000010717004+43380+006380SY-MT+0078LFMC V0200301N002110120019N0200001N1+00901+00711102391ADDAA106000091GA1021+007809999GA2071+012009999GA3071+075009999GF107991051081008001001021MA1102301101381MD1210031+9999MW1001REMSYN088AAXX  07174 07675 32570 70304 10090 20071 30138 40239 52003 85802 333 82826 85640 87075;MET059LFMC 071700Z 03003KT 9999 FEW026 BKN040 BKN250 09/07 Q1023;EQDQ01+000000PRSWM2Q02  00002PRCP06
0335076750999992000010718004+43380+006380SY-MT+0078LFMC V0200601N001010750019N0150001N1+00901+00661102411ADDAA112000191GA1021+012009999GA2071+075009999GF199999041051012501001021KA1999M+00941KA2999N-00061MA1102301101401MD1310031+9999MW1001REMSYN100AAXX  07184 07675 12665 60602 10090 20066 30140 40241 53003 69922 84502 333 10094 21006 84640 86075;MET052LFMC 071800Z 06003KT 9999 SCT040 BKN250 09/07 Q1023;EQDQ01+000062SCOTCVQ02+000000PRSWM2
0131076750999992000010719004+43380+006380FM-12+0078LFMC V0200201N002119999999N9999999N1+00891+00631102461ADDAA106000091MA1999999101451MD1310091+9999REMSYN060AAXX  07194 07675 36/// /0204 10089 20063 30145 40246 53009;EQDQ01  00002PRCP06
0131076750999992000010720004+43380+006380FM-12+0078LFMC V0200801N001019999999N9999999N1+00871+00631102481ADDAA106000091MA1999999101471MD1210091+9999REMSYN060AAXX  07204 07675 36/// /0802 10087 20063 30147 40248 52009;EQDQ01  00002PRCP06
0131076750999992000010721004+43380+006380FM-12+0078LFMC V0209999C000019999999N9999999N1+00741+00621102481ADDAA106000091MA1999999101471MD1110071+9999REMSYN060AAXX  07214 07675 36/// /0000 10074 20062 30147 40248 51007;EQDQ01  00002PRCP06
0131076750999992000010722004+43380+006380FM-12+0078LFMC V0203101N001019999999N9999999N1+00481+00421102511ADDAA106000091MA1999999101491MD1210041+9999REMSYN060AAXX  07224 07675 36/// /3102 10048 20042 30149 40251 52004;EQDQ01  00002PRCP06
0131076750999992000010723004+43380+006380FM-12+0078LFMC V0209999C000019999999N9999999N1+00301+00261102531ADDAA106000091MA1999999101501MD1310031+9999REMSYN060AAXX  07234 07675 36/// /0000 10030 20026 30150 40253 53003;EQDQ01  00002PRCP06
0131076750999992000010800004+43380+006380FM-12+0078LFMC V0209999C000019999999N9999999N1+00261+00251102521ADDAA106000091MA1999999101491MD1010021+9999REMSYN060AAXX  08004 07675 36/// /0000 10026 20025 30149 40252 50002;EQDQ01  00002PRCP06
0131076750999992000010801004+43380+006380FM-12+0078LFMC V0203301N001019999999N9999999N1+00211+00201102521ADDAA106000091MA1999999101491MD1010001+9999REMSYN060AAXX  08014 07675 36/// /3302 10021 20020 30149 40252 50000;EQDQ01  00002PRCP06
0131076750999992000010802004+43380+006380FM-12+0078LFMC V0209999C000019999999N9999999N1+00061+00031102531ADDAA106000091MA1999999101491MD1610011+9999REMSYN060AAXX  08024 07675 36/// /0000 10006 20003 30149 40253 56001;EQDQ01  00002PRCP06
0131076750999992000010803004+43380+006380FM-12+0078LFMC V0209999C000019999999N9999999N1+00021+00011102521ADDAA106000091MA1999999101481MD1810011+9999REMSYN060AAXX  08034 07675 36/// /0000 10002 20001 30148 40252 58001;EQDQ01  00002PRCP06
0131076750999992000010804004+43380+006380FM-12+0078LFMC V0202501N001019999999N9999999N1-00071-00071102511ADDAA106000091MA1999999101471MD1810021+9999REMSYN060AAXX  08044 07675 36/// /2502 11007 21007 30147 40251 58002;EQDQ01  00002PRCP06
0193076750999992000010806004+43380+006380FM-12+0078LFMC V0209999C000019999999N9999999N1-00161-00161102551ADDAA106000091GJ101089KA1999M+00901KA2999N-00191MA1999999101501MD1310021+9999REMSYN088AAXX  08064 07675 36/// /0000 11016 21016 30150 40255 53002 333 10090 21019 55018 70002;EQDQ01  00002PRCP06
0131076750999992000010807004+43380+006380FM-12+0078LFMC V0209999C000019999999N9999999N1-00231-00231102571ADDAA106000091MA1999999101521MD1310051+9999REMSYN060AAXX  08074 07675 36/// /0000 11023 21023 30152 40257 53005;EQDQ01  00002PRCP06
0131076750999992000010808004+43380+006380FM-12+0078LFMC V0209999C000019999999N9999999N1-00131-00131102611ADDAA106000091MA1999999101561MD1210101+9999REMSYN060AAXX  08084 07675 36/// /0000 11013 21013 30156 40261 52010;EQDQ01  00002PRCP06
0131076750999992000010809004+43380+006380FM-12+0078LFMC V0209999C000019999999N9999999N1+00061+00061102631ADDAA106000091MA1999999101591MD1310091+9999REMSYN060AAXX  08094 07675 36/// /0000 10006 20006 30159 40263 53009;EQDQ01  00002PRCP06
0131076750999992000010810004+43380+006380FM-12+0078LFMC V0201201N001019999999N9999999N1+00431+00281102611ADDAA106000091MA1999999101581MD1010061+9999REMSYN060AAXX  08104 07675 36/// /1202 10043 20028 30158 40261 50006;EQDQ01  00002PRCP06
0131076750999992000010811004+43380+006380FM-12+0078LFMC V0203601N001019999999N9999999N1+00741+00421102511ADDAA106000091MA1999999101501MD1810061+9999REMSYN060AAXX  08114 07675 36/// /3602 10074 20042 30150 40251 58006;EQDQ01  00002PRCP06
0131076750999992000010812004+43380+006380FM-12+0078LFMC V0209999C000019999999N9999999N1+01101+00451102421ADDAA106000091MA1999999101421MD1810171+9999REMSYN060AAXX  08124 07675 36/// /0000 10110 20045 30142 40242 58017;EQDQ01  00002PRCP06
0131076750999992000010813004+43380+006380FM-12+0078LFMC V0201401N001019999999N9999999N1+01301+00471102331ADDAA106000091MA1999999101341MD1710241+9999REMSYN060AAXX  08134 07675 36/// /1402 10130 20047 30134 40233 57024;EQDQ01  00002PRCP06
0131076750999992000010814004+43380+006380FM-12+0078LFMC V0209999C000019999999N9999999N1+01391+00421102301ADDAA106000091MA1999999101311MD1610191+9999REMSYN060AAXX  08144 07675 36/// /0000 10139 20042 30131 40230 56019;EQDQ01  00002PRCP06
0131076750999992000010815004+43380+006380FM-12+0078LFMC V0201401N002119999999N9999999N1+01291+00461102301ADDAA106000091MA1999999101311MD1610111+9999REMSYN060AAXX  08154 07675 36/// /1404 10129 20046 30131 40230 56011;EQDQ01  00002PRCP06
0131076750999992000010816004+43380+006380FM-12+0078LFMC V0201501N001019999999N9999999N1+01081+00601102331ADDAA106000091MA1999999101331MD1510011+9999REMSYN060AAXX  08164 07675 36/// /1502 10108 20060 30133 40233 55001;EQDQ01  00002PRCP06
0131076750999992000010817004+43380+006380FM-12+0078LFMC V0203401N001019999999N9999999N1+00741+00491102371ADDAA106000091MA1999999101361MD1310051+9999REMSYN060AAXX  08174 07675 36/// /3402 10074 20049 30136 40237 53005;EQDQ01  00002PRCP06
0173076750999992000010818004+43380+006380FM-12+0078LFMC V0203001N001019999999N9999999N1+00581+00441102421ADDAA106000091KA1999M+01431KA2999N-00251MA1999999101401MD1310091+9999REMSYN076AAXX  08184 07675 36/// /3002 10058 20044 30140 40242 53009 333 10143 21025;EQDQ01  00002PRCP06
0131076750999992000010819004+43380+006380FM-12+0078LFMC V0209999C000019999999N9999999N1+00491+00371102441ADDAA106000091MA1999999101421MD1110091+9999REMSYN060AAXX  08194 07675 36/// /0000 10049 20037 30142 40244 51009;EQDQ01  00002PRCP06
0131076750999992000010820004+43380+006380FM-12+0078LFMC V0202401N001019999999N9999999N1+00401+00311102461ADDAA106000091MA1999999101431MD1110071+9999REMSYN060AAXX  08204 07675 36/// /2402 10040 20031 30143 40246 51007;EQDQ01  00002PRCP06
0131076750999992000010821004+43380+006380FM-12+0078LFMC V0209999C000019999999N9999999N1+00291+00231102451ADDAA106000091MA1999999101421MD1010021+9999REMSYN060AAXX  08214 07675 36/// /0000 10029 20023 30142 40245 50002;EQDQ01  00002PRCP06
0131076750999992000010822004+43380+006380FM-12+0078LFMC V0209999C000019999999N9999999N1+00181+00151102471ADDAA106000091MA1999999101441MD1310021+9999REMSYN060AAXX  08224 07675 36/// /0000 10018 20015 30144 40247 53002;EQDQ01  00002PRCP06
0131076750999992000010823004+43380+006380FM-12+0078LFMC V0203101N001019999999N9999999N1+00061+00031102451ADDAA106000091MA1999999101411MD1810021+9999REMSYN060AAXX  08234 07675 36/// /3102 10006 20003 30141 40245 58002;EQDQ01  00002PRCP06
0131076750999992000010900004+43380+006380FM-12+0078LFMC V0202601N001019999999N9999999N1+00001-00011102421ADDAA106000091MA1999999101381MD1810041+9999REMSYN060AAXX  09004 07675 36/// /2602 10000 21001 30138 40242 58004;EQDQ01  00002PRCP06
0131076750999992000010901004+43380+006380FM-12+0078LFMC V0209999C000019999999N9999999N1-00041-00041102421ADDAA106000091MA1999999101381MD1610061+9999REMSYN060AAXX  09014 07675 36/// /0000 11004 21004 30138 40242 56006;EQDQ01  00002PRCP06
0131076750999992000010902004+43380+006380FM-12+0078LFMC V0209999C000019999999N9999999N1-00061-00061102451ADDAA106000091MA1999999101411MD1510001+9999REMSYN060AAXX  09024 07675 36/// /0000 11006 21006 30141 40245 55000;EQDQ01  00002PRCP06
0131076750999992000010903004+43380+006380FM-12+0078LFMC V0209999C000019999999N9999999N1+00021+00021102421ADDAA106000091MA1999999101381MD1010001+9999REMSYN060AAXX  09034 07675 36/// /0000 10002 20002 30138 40242 50000;EQDQ01  00002PRCP06
0078076750999992000010904004+43380+006380FM-12+0078LFMC V0201601N001019999999N9999999N1+00171+99999999999REMSYN069AAXX  09044 07675 26/// /1602 10017 2017 30136 40239 58002 333 69925;
0131076750999992000010905004+43380+006380FM-12+0078LFMC V0203401N001019999999N9999999N1+00141+00141102391ADDAA106000091MA1999999101351MD1610061+9999REMSYN060AAXX  09054 07675 36/// /3402 10014 20014 30135 40239 56006;EQDQ01  00002PRCP06
0131076750999992000010907004+43380+006380FM-12+0078LFMC V0202601N001019999999N9999999N1+00041+00041102441ADDAA106000091MA1999999101401MD1310041+9999REMSYN060AAXX  09074 07675 36/// /2602 10004 20004 30140 40244 53004;EQDQ01  00002PRCP06
0131076750999992000010908004+43380+006380FM-12+0078LFMC V0203001N001019999999N9999999N1+00071+00071102481ADDAA106000091MA1999999101441MD1310091+9999REMSYN060AAXX  09084 07675 36/// /3002 10007 20007 30144 40248 53009;EQDQ01  00002PRCP06
0131076750999992000010909004+43380+006380FM-12+0078LFMC V0209999C000019999999N9999999N1+00191+00191102471ADDAA106000091MA1999999101441MD1110061+9999REMSYN060AAXX  09094 07675 36/// /0000 10019 20019 30144 40247 51006;EQDQ01  00002PRCP06
0131076750999992000010910004+43380+006380FM-12+0078LFMC V0201301N001019999999N9999999N1+00281+00281102501ADDAA106000091MA1999999101471MD1110071+9999REMSYN060AAXX  09104 07675 36/// /1302 10028 20028 30147 40250 51007;EQDQ01  00002PRCP06
0131076750999992000010911004+43380+006380FM-12+0078LFMC V0201201N001019999999N9999999N1+00501+00501102411ADDAA106000091MA1999999101391MD1810051+9999REMSYN060AAXX  09114 07675 36/// /1202 10050 20050 30139 40241 58005;EQDQ01  00002PRCP06
0131076750999992000010912004+43380+006380FM-12+0078LFMC V0209999C000019999999N9999999N1+00871+00531102321ADDAA106000091MA1999999101311MD1810131+9999REMSYN060AAXX  09124 07675 36/// /0000 10087 20053 30131 40232 58013;EQDQ01  00002PRCP06
0131076750999992000010913004+43380+006380FM-12+0078LFMC V0201001N001019999999N9999999N1+00981+00561102241ADDAA106000091MA1999999101241MD1610231+9999REMSYN060AAXX  09134 07675 36/// /1002 10098 20056 30124 40224 56023;EQDQ01  00002PRCP06
0131076750999992000010914004+43380+006380FM-12+0078LFMC V0200301N001019999999N9999999N1+01111+00641102221ADDAA106000091MA1999999101221MD1610171+9999REMSYN060AAXX  09144 07675 36/// /0302 10111 20064 30122 40222 56017;EQDQ01  00002PRCP06
0131076750999992000010915004+43380+006380FM-12+0078LFMC V0201101N001019999999N9999999N1+01071+00721102251ADDAA106000091MA1999999101251MD1510061+9999REMSYN060AAXX  09154 07675 36/// /1102 10107 20072 30125 40225 55006;EQDQ01  00002PRCP06
0131076750999992000010916004+43380+006380FM-12+0078LFMC V0201101N001019999999N9999999N1+00901+00711102281ADDAA106000091MA1999999101281MD1310041+9999REMSYN060AAXX  09164 07675 36/// /1102 10090 20071 30128 40228 53004;EQDQ01  00002PRCP06
0131076750999992000010917004+43380+006380FM-12+0078LFMC V0209999C000019999999N9999999N1+00691+00621102321ADDAA106000091MA1999999101311MD1210091+9999REMSYN060AAXX  09174 07675 36/// /0000 10069 20062 30131 40232 52009;EQDQ01  00002PRCP06
0173076750999992000010918004+43380+006380FM-12+0078LFMC V0209999C000019999999N9999999N1+00541+00481102371ADDAA106000091KA1999M+01131KA2999N+00001MA1999999101351MD1310101+9999REMSYN076AAXX  09184 07675 36/// /0000 10054 20048 30135 40237 53010 333 10113 20000;EQDQ01  00002PRCP06
0131076750999992000010919004+43380+006380FM-12+0078LFMC V0209999C000019999999N9999999N1+00411+00371102441ADDAA106000091MA1999999101411MD1310131+9999REMSYN060AAXX  09194 07675 36/// /0000 10041 20037 30141 40244 53013;EQDQ01  00002PRCP06
0131076750999992000010920004+43380+006380FM-12+0078LFMC V0209999C000019999999N9999999N1+00431+00421102461ADDAA106000091MA1999999101441MD1110131+9999REMSYN060AAXX  09204 07675 36/// /0000 10043 20042 30144 40246 51013;EQDQ01  00002PRCP06
0131076750999992000010921004+43380+006380FM-12+0078LFMC V0209999C000019999999N9999999N1+00381+00381102501ADDAA106000091MA1999999101471MD1110121+9999REMSYN060AAXX  09214 07675 36/// /0000 10038 20038 30147 40250 51012;EQDQ01  00002PRCP06
0131076750999992000010922004+43380+006380FM-12+0078LFMC V0209999C000019999999N9999999N1+00391+00391102531ADDAA106000091MA1999999101501MD1210091+9999REMSYN060AAXX  09224 07675 36/// /0000 10039 20039 30150 40253 52009;EQDQ01  00002PRCP06
0131076750999992000010923004+43380+006380FM-12+0078LFMC V0209999C000019999999N9999999N1+00371+00371102561ADDAA106000091MA1999999101531MD1210091+9999REMSYN060AAXX  09234 07675 36/// /0000 10037 20037 30153 40256 52009;EQDQ01  00002PRCP06
0131076750999992000011000004+43380+006380FM-12+0078LFMC V0209999C000019999999N9999999N1+00291+00291102551ADDAA106000091MA1999999101521MD1010051+9999REMSYN060AAXX  10004 07675 36/// /0000 10029 20029 30152 40255 50005;EQDQ01  00002PRCP06
0131076750999992000011001004+43380+006380FM-12+0078LFMC V0209999C000019999999N9999999N1+00201+00201102571ADDAA106000091MA1999999101541MD1110041+9999REMSYN060AAXX  10014 07675 36/// /0000 10020 20020 30154 40257 51004;EQDQ01  00002PRCP06
0131076750999992000011002004+43380+006380FM-12+0078LFMC V0202701N001019999999N9999999N1+00201+00201102591ADDAA106000091MA1999999101561MD1310031+9999REMSYN060AAXX  10024 07675 36/// /2702 10020 20020 30156 40259 53003;EQDQ01  00002PRCP06
0131076750999992000011003004+43380+006380FM-12+0078LFMC V0209999C000019999999N9999999N1+00191+00191102631ADDAA106000091MA1999999101591MD1310071+9999REMSYN060AAXX  10034 07675 36/// /0000 10019 20019 30159 40263 53007;EQDQ01  00002PRCP06
0131076750999992000011004004+43380+006380FM-12+0078LFMC V0209999C000019999999N9999999N1+00181+00181102631ADDAA106000091MA1999999101591MD1110051+9999REMSYN060AAXX  10044 07675 36/// /0000 10018 20018 30159 40263 51005;EQDQ01  00002PRCP06
0131076750999992000011005004+43380+006380FM-12+0078LFMC V0209999C000019999999N9999999N1+00201+00201102641ADDAA106000091MA1999999101601MD1110041+9999REMSYN060AAXX  10054 07675 36/// /0000 10020 20020 30160 40264 51004;EQDQ01  00002PRCP06
0356076750999992000011006004+43380+006380SY-MT+0078LFMC V0209999C000010090019N0003001N1+00221+00221102691ADDAA106000091AA224000091AY141061AY241061GA1071+009009999GF107991071051008001999999GJ101269KA1999M+00541KA2999N+00141MA1102611101661MD1310071+9999MW1441REMSYN106AAXX  10064 07675 31503 70000 10022 20022 30166 40269 53007 74444 875// 333 10054 20014 55021 70000 87630;MET048LFMC 100600Z 00000KT 0300 FG BKN030 02/02 Q1026;EQDQ01  00002PRCP06Q02    003PRSWM1
0293076750999992000011007004+43380+006380SY-MT+0078LFMC V0209999C000010090019N0002001N1+00241+00241102751ADDAA106000091AY141999AY241999GA1071+009009999GF107991071051008001999999MA1102711101721MD1310131+9999MW1441MW2461REMSYN082AAXX  10074 07675 31502 70000 10024 20024 30172 40275 53013 74644 875// 333 87630;MET048LFMC 100700Z 00000KT 0200 FG BKN030 03/03 Q1027;EQDQ01  00002PRCP06Q02    003PRSWM1
0131076750999992000011008004+43380+006380FM-12+0078LFMC V0209999C000019999999N9999999N1+00241+00241102811ADDAA106000091MA1999999101771MD1110171+9999REMSYN060AAXX  10084 07675 36/// /0000 10024 20024 30177 40281 51017;EQDQ01  00002PRCP06
0283076750999992000011009004+43380+006380SY-MT+0078LFMC V0209999C000010090019N0025001N1+00331+00331102841ADDAA103000291AY141031AY221031GA1071+009009999GF107991071051008001999999MA1102811101811MD1110151+9999MW1101MW2281REMSYN088AAXX  10094 07675 21525 70000 10033 20033 30181 40284 51015 72842 875// 333 69927 87630;MET048LFMC 100900Z 00000KT 2500 BR BKN030 03/03 Q1028;EQDQ01    003PRSWM1
0181076750999992000011009304+43380+006380FM-15+0078LFMC V0209999C000010090019N0035001N1+00601+00601999999ADDGA1071+009009999GA2071+012009999GF107991999999999999999999MA1102811999999MW1101REMMET055LFMC 101030Z 00000KT 3500 BR BKN030 BKN040 06/06 Q1028;EQDQ01+000003PRSWM1Q02    003PRSWM1
0131076750999992000011010004+43380+006380FM-12+0078LFMC V0209999C000019999999N9999999N1+00491+00491102881ADDAA106000091MA1999999101851MD1110131+9999REMSYN060AAXX  10104 07675 36/// /0000 10049 20049 30185 40288 51013;EQDQ01  00002PRCP06
0291076750999992000011011004+43380+006380SY-MT+0078LFMC V0209999C000010090019N0060001N1+00611+00611102861ADDAA106000091GA1071+009009999GA2071+030009999GF107991051051008001071001MA1102811101841MD1010071+9999MW1001REMSYN082AAXX  10114 07675 32556 70000 10061 20061 30184 40286 50007 85570 333 85630 86360;MET052LFMC 101100Z 00000KT 6000 BKN030 BKN100 06/06 Q1028;EQDQ01+000000PRSWM2Q02  00002PRCP06
0348076750999992000011012004+43380+006380SY-MT+0078LFMC V0209999C00001030001CN0060001N1+00791+00621102801ADDAA106000191AY141061AY221061GA1021+007809999GA2021+009009999GA3071+030009999GF107991051081008001071001MA1102711101791MD1810021+9999MW1031REMSYN100AAXX  10124 07675 11556 70000 10079 20062 30179 40280 58002 69921 70342 85870 333 82826 84630 86360;MET059LFMC 101200Z 00000KT 6000 FEW026 SCT030 BKN100 08/06 Q1027;EQDQ01+000000PRSWM2Q02    003PRSWM1
0320076750999992000011013004+43380+006380SY-MT+0078LFMC V0209999C000010300019N0090001N1+01011+00681102761ADDAA106000091GA1021+007809999GA2021+009009999GA3071+030009999GF107991041081008001071001MA1102711101751MD1810101+9999MW1001REMSYN088AAXX  10134 07675 32559 70000 10101 20068 30175 40276 58010 84870 333 82826 83630 86360;MET059LFMC 101300Z 26001KT 9000 FEW026 SCT030 BKN100 10/07 Q1027;EQDQ01+000000PRSWM2Q02  00002PRCP06
0336076750999992000011014004+43380+006380SY-MT+0078LFMC V0201401N001010300019N0090001N1+01061+00541102731ADDAA106000091GA1021+007809999GA2021+009009999GA3071+030009999GF199999031081008001071001MA1102711101731MD1610111+9999MW1001REMSYN088AAXX  10144 07675 32559 61402 10106 20054 30173 40273 56011 83870 333 82826 83630 85360;MET059LFMC 101400Z 14001KT 9000 FEW026 SCT030 BKN100 11/05 Q1027;EQDQ01+000062SCOTCVQ02+000000PRSWM2Q03  00002PRCP06
0217076750999992000011015004+43380+006380FM-12+0078LFMC V0201201N00101009001CN0100001N1+01061+00561102771ADDAA106000091GA1021+007809089GA2031+009009069GF106991031081008001071001MA1999999101771MD1510021+9999REMSYN088AAXX  10154 07675 32560 61202 10106 20056 30177 40277 55002 83870 333 82826 83630 85360;EQDQ01  00002PRCP06
0307076750999992000011016004+43380+006380SY-MT+0078LFMC V0200701N001010300019N0100001N1+00911+00651102801ADDAA106000091GA1021+007809999GA2071+030009999GF199999021081008001071001MA1102711101791MD1310041+9999MW1001REMSYN082AAXX  10164 07675 32560 60702 10091 20065 30179 40280 53004 82870 333 81826 85360;MET052LFMC 101600Z 08001KT 9999 FEW026 BKN100 09/07 Q1027;EQDQ01+000062SCOTCVQ02+000000PRSWM2Q03  00002PRCP06
0262076750999992000011017004+43380+006380SY-MT+0078LFMC V0209999C000012200019N0070001N1+00701+00591102831ADDAA106000091GA1021+009909999GF102991021051012501071001MA1102811101811MD1110081+9999MW1001REMSYN076AAXX  10174 07675 32657 20000 10070 20059 30181 40283 51008 82570 333 82633;MET045LFMC 101700Z 00000KT 7000 FEW033 07/06 Q1028;EQDQ01+000000PRSWM2Q02  00002PRCP06
0290076750999992000011018004+43380+006380SY-MT+0078LFMC V0209999C000012200019N0070001N1+00541+00511102901ADDAA112000191GA1021+030009999GF102991021001999999071001KA1999M+01111KA2999N+00211MA1102811101881MD1310111+9999MW1001REMSYN094AAXX  10184 07675 12957 20000 10054 20051 30188 40290 53011 69922 82070 333 10111 20021 81360;MET045LFMC 101800Z 00000KT 7000 FEW100 05/05 Q1028;EQDQ01+000000PRSWM2
0131076750999992000011019004+43380+006380FM-12+0078LFMC V0201901N001019999999N9999999N1+00451+00421102961ADDAA106000091MA1999999101931MD1310141+9999REMSYN060AAXX  10194 07675 36/// /1902 10045 20042 30193 40296 53014;EQDQ01  00002PRCP06
0131076750999992000011020004+43380+006380FM-12+0078LFMC V0209999C000019999999N9999999N1+00341+00331103001ADDAA106000091MA1999999101971MD1110161+9999REMSYN060AAXX  10204 07675 36/// /0000 10034 20033 30197 40300 51016;EQDQ01  00002PRCP06
0131076750999992000011021004+43380+006380FM-12+0078LFMC V0202601N001019999999N9999999N1+00211+00201103061ADDAA106000091MA1999999102021MD1210141+9999REMSYN060AAXX  10214 07675 36/// /2602 10021 20020 30202 40306 52014;EQDQ01  00002PRCP06
0131076750999992000011022004+43380+006380FM-12+0078LFMC V0202101N001019999999N9999999N1+00171+00171103091ADDAA106000091MA1999999102051MD1110121+9999REMSYN060AAXX  10224 07675 36/// /2102 10017 20017 30205 40309 51012;EQDQ01  00002PRCP06
0131076750999992000011023004+43380+006380FM-12+0078LFMC V0209999C000019999999N9999999N1+00101+00101103141ADDAA106000091MA1999999102101MD1210131+9999REMSYN060AAXX  10234 07675 36/// /0000 10010 20010 30210 40314 52013;EQDQ01  00002PRCP06
0131076750999992000011100004+43380+006380FM-12+0078LFMC V0209999C000019999999N9999999N1+00121+00121103141ADDAA106000091MA1999999102101MD1110081+9999REMSYN060AAXX  11004 07675 36/// /0000 10012 20012 30210 40314 51008;EQDQ01  00002PRCP06
0131076750999992000011101004+43380+006380FM-12+0078LFMC V0209999C000019999999N9999999N1+00041+00041103161ADDAA106000091MA1999999102111MD1110061+9999REMSYN060AAXX  11014 07675 36/// /0000 10004 20004 30211 40316 51006;EQDQ01  00002PRCP06
0131076750999992000011102004+43380+006380FM-12+0078LFMC V0209999C000019999999N9999999N1-00031-00031103211ADDAA106000091MA1999999102161MD1310061+9999REMSYN060AAXX  11024 07675 36/// /0000 11003 21003 30216 40321 53006;EQDQ01  00002PRCP06
0131076750999992000011103004+43380+006380FM-12+0078LFMC V0200701N001019999999N9999999N1-00021-00021103221ADDAA106000091MA1999999102171MD1210071+9999REMSYN060AAXX  11034 07675 36/// /0702 11002 21002 30217 40322 52007;EQDQ01  00002PRCP06
0131076750999992000011104004+43380+006380FM-12+0078LFMC V0201201N001019999999N9999999N1+00021+00021103261ADDAA106000091MA1999999102211MD1110101+9999REMSYN060AAXX  11044 07675 36/// /1202 10002 20002 30221 40326 51010;EQDQ01  00002PRCP06
0131076750999992000011105004+43380+006380FM-12+0078LFMC V0203101N001019999999N9999999N1+00051+00051103271ADDAA106000091MA1999999102221MD1210061+9999REMSYN060AAXX  11054 07675 36/// /3102 10005 20005 30222 40327 52006;EQDQ01  00002PRCP06
0344076750999992000011106004+43380+006380SY-MT+0078LFMC V0201901N001010001519N0001001N1+00021+00021103331ADDAA106000091AY141061AY221061GA1091+000159999GF109991091999000151999999GJ100309IA1099KA1999M+00531KA2999N-00041MA1103181102281MD1310111+9999MW1451REMSYN100AAXX  11064 07675 31/01 91902 10002 20002 30228 40333 53011 74542 333 10053 21004 31/// 55005 70002;MET047LFMC 110600Z 19001KT 0100 FG VV/// 00/00 Q1032;EQDQ01  00002PRCP06Q02    003PRSWM1
0272076750999992000011107004+43380+006380SY-MT+0078LFMC V0209999C000010001519N0001001N1-00021-00021103371ADDAA106000091AY141999AY241999GA1091+000159999GF109991091999000151999999MA1103291102321MD1310111+9999MW1451REMSYN066AAXX  11074 07675 31/01 90000 11002 21002 30232 40337 53011 74544;MET049LFMC 110700Z 00000KT 0100 FG VV/// M00/M00 Q1033;EQDQ01  00002PRCP06Q02    003PRSWM1
0268076750999992000011108004+43380+006380SY-MT+0078LFMC V0209999C00001000151CN0001001N1-00061-00061103421ADDAA106000091GA1091+000159999GF109991999999000151999999MA1103291102371MD1110151+9999MW1491REMSYN060AAXX  11084 07675 36/// /0000 11006 21006 30237 40342 51015;MET051LFMC 110800Z 00000KT 0100 FZFG VV/// M01/M01 Q1033;EQDQ01+000003PRSWM1Q02  00002PRCP06Q03    003PRSWM1
0267076750999992000011109004+43380+006380SY-MT+0078LFMC V0209999C000010003019N0001001N1+00011+00011103451ADDAA106000091GA1071+000309999GF107991999999999999999999MA1103291102401MD1110121+9999MW1481REMSYN060AAXX  11094 07675 36/// /0000 10001 20001 30240 40345 51012;MET050LFMC 110900Z 00000KT 0100 FZFG BKN001 00/00 Q1033;EQDQ01+000003PRSWM1Q02  00002PRCP06Q03    003PRSWM1
0259076750999992000011110004+43380+006380SY-MT+0078LFMC V0201401N001012200019N0008001N1+00231+00231103441ADDAA101000191GA1021+000309999GF104991999999999999999999MA1103291102401MD1110081+9999MW1441REMSYN070AAXX  11104 07675 26/// /1402 10023 20023 30240 40344 51008 333 69925;MET048LFMC 111000Z 13003KT 0800 FG SCT001 03/03 Q1033;EQDQ01+000003PRSWM1Q02    003PRSWM1
0296076750999992000011112004+43380+006380SY-MT+0078LFMC V0209999C000012200019N0100001N1+00801+00531103311ADDAA103000291AY141061AY211061GA1021+006309999GF102991021011008001001001MA1103181102291MD1810111+9999MW1011REMSYN094AAXX  11124 07675 /1560 20000 10080 20053 30229 40331 58011 69921 70141 82100 333 69927 82821;MET045LFMC 111200Z 00000KT 9999 FEW021 08/06 Q1032;EQDQ01+000000PRSWM2Q02    003PRSWM1
0262076750999992000011113004+43380+006380SY-MT+0078LFMC V0209999C000012200019N0100001N1+01101+00641103221ADDAA106000091GA1021+007809999GF102991021011008001001001MA1103181102211MD1810191+9999MW1001REMSYN076AAXX  11134 07675 32560 20000 10110 20064 30221 40322 58019 82100 333 82826;MET045LFMC 111300Z 00000KT 9999 FEW026 11/06 Q1032;EQDQ01+000000PRSWM2Q02  00002PRCP06
0278076750999992000011114004+43380+006380SY-MT+0078LFMC V0201201N001012200019N0120001N1+01191+00551103171ADDAA106000091GA1021+007809999GF199999011011008001001001MA1103121102171MD1610211+9999MW1001REMSYN076AAXX  11144 07675 32562 11202 10119 20055 30217 40317 56021 81100 333 81826;MET045LFMC 111400Z 12003KT 9999 FEW026 12/06 Q1031;EQDQ01+000012SCOTCVQ02+000000PRSWM2Q03  00002PRCP06
0262076750999992000011115004+43380+006380SY-MT+0078LFMC V0201301N002112200019N0120001N1+01151+00561103171ADDAA106000091GA1021+007809999GF102991011011008001031001MA1103121102161MD1610131+9999MW1001REMSYN076AAXX  11154 07675 32562 21304 10115 20056 30216 40317 56013 81130 333 81826;MET045LFMC 111500Z 13003KT 9999 FEW026 12/06 Q1031;EQDQ01+000000PRSWM2Q02  00002PRCP06
0307076750999992000011116004+43380+006380SY-MT+0078LFMC V0201301N001010129019N0110001N1+00971+00591103201ADDAA106000091GA1021+007809999GA2071+012909999GF199999061081008001001001MA1103121102191MD1510021+9999MW1001REMSYN082AAXX  11164 07675 32561 61302 10097 20059 30219 40320 55002 86800 333 81826 86643;MET052LFMC 111600Z 13003KT 9999 FEW026 BKN043 10/06 Q1031;EQDQ01+000062SCOTCVQ02+000000PRSWM2Q03  00002PRCP06
0307076750999992000011117004+43380+006380SY-MT+0078LFMC V0209999C000010129019N0110001N1+00821+00621103251ADDAA106000091GA1021+007809999GA2071+012909999GF199999061081008001001001MA1103181102231MD1310061+9999MW1001REMSYN082AAXX  11174 07675 32561 60000 10082 20062 30223 40325 53006 86800 333 81826 86643;MET052LFMC 111700Z 00000KT 9999 FEW026 BKN043 08/06 Q1032;EQDQ01+000062SCOTCVQ02+000000PRSWM2Q03  00002PRCP06
0335076750999992000011118004+43380+006380SY-MT+0078LFMC V0201201N001010129019N0100001N1+00821+00551103281ADDAA112000191GA1021+007809999GA2071+012909999GF199999061081008001001001KA1999M+01231KA2999N-00081MA1103181102261MD1210101+9999MW1001REMSYN100AAXX  11184 07675 12560 61202 10082 20055 30226 40328 52010 69922 86800 333 10123 21008 81826 86643;MET052LFMC 111800Z 11001KT 9999 FEW026 BKN043 08/06 Q1032;EQDQ01+000062SCOTCVQ02+000000PRSWM2
0131076750999992000011119004+43380+006380FM-12+0078LFMC V0209999C000019999999N9999999N1+00791+00571103311ADDAA106000091MA1999999102291MD1110101+9999REMSYN060AAXX  11194 07675 36/// /0000 10079 20057 30229 40331 51010;EQDQ01  00002PRCP06
0131076750999992000011120004+43380+006380FM-12+0078LFMC V0209999C000019999999N9999999N1+00681+00531103321ADDAA106000091MA1999999102301MD1110071+9999REMSYN060AAXX  11204 07675 36/// /0000 10068 20053 30230 40332 51007;EQDQ01  00002PRCP06
0131076750999992000011121004+43380+006380FM-12+0078LFMC V0201301N001019999999N9999999N1+00601+00511103321ADDAA106000091MA1999999102291MD1010031+9999REMSYN060AAXX  11214 07675 36/// /1302 10060 20051 30229 40332 50003;EQDQ01  00002PRCP06
0131076750999992000011122004+43380+006380FM-12+0078LFMC V0200901N001019999999N9999999N1+00521+00481103301ADDAA106000091MA1999999102271MD1810021+9999REMSYN060AAXX  11224 07675 36/// /0902 10052 20048 30227 40330 58002;EQDQ01  00002PRCP06
0131076750999992000011123004+43380+006380FM-12+0078LFMC V0209999C000019999999N9999999N1+00491+00451103291ADDAA106000091MA1999999102261MD1710041+9999REMSYN060AAXX  11234 07675 36/// /0000 10049 20045 30226 40329 57004;EQDQ01  00002PRCP06
0131076750999992000011200004+43380+006380FM-12+0078LFMC V0202601N001019999999N9999999N1+00441+00401103261ADDAA106000091MA1999999102231MD1810061+9999REMSYN060AAXX  12004 07675 36/// /2602 10044 20040 30223 40326 58006;EQDQ01  00002PRCP06
0131076750999992000011201004+43380+006380FM-12+0078LFMC V0209999C000019999999N9999999N1+00431+00391103211ADDAA106000091MA1999999102181MD1810091+9999REMSYN060AAXX  12014 07675 36/// /0000 10043 20039 30218 40321 58009;EQDQ01  00002PRCP06
0131076750999992000011202004+43380+006380FM-12+0078LFMC V0202501N001019999999N9999999N1+00311+00281103211ADDAA106000091MA1999999102171MD1610091+9999REMSYN060AAXX  12024 07675 36/// /2502 10031 20028 30217 40321 56009;EQDQ01  00002PRCP06
0131076750999992000011203004+43380+006380FM-12+0078LFMC V0209999C000019999999N9999999N1+00161+00131103171ADDAA106000091MA1999999102131MD1610101+9999REMSYN060AAXX  12034 07675 36/// /0000 10016 20013 30213 40317 56010;EQDQ01  00002PRCP06
0131076750999992000011204004+43380+006380FM-12+0078LFMC V0203001N001019999999N9999999N1+00021+00011103161ADDAA106000091MA1999999102111MD1810071+9999REMSYN060AAXX  12044 07675 36/// /3002 10002 20001 30211 40316 58007;EQDQ01  00002PRCP06
0131076750999992000011205004+43380+006380FM-12+0078LFMC V0209999C000019999999N9999999N1-00121-00131103121ADDAA106000091MA1999999102071MD1710101+9999REMSYN060AAXX  12054 07675 36/// /0000 11012 21013 30207 40312 57010;EQDQ01  00002PRCP06
0160076750999992000011205304+43380+006380FM-15+0078LFMC V0209999C000012200019N0017001N1-00201-00201999999ADDGA1021+001509999GF102991999999999999999999MA1103011999999MW1101REMMET050LFMC 120630Z 00000KT 1700 BR FEW005 M02/M02 Q1030;EQDQ01+000003PRSWM1Q02    003PRSWM1
0193076750999992000011206004+43380+006380FM-12+0078LFMC V0209999C000019999999N9999999N1-00211-00221103131ADDAA106000091GJ103069KA1999M+00841KA2999N-00211MA1999999102071MD1610061+9999REMSYN088AAXX  12064 07675 36/// /0000 11021 21022 30207 40313 56006 333 10084 21021 55051 70002;EQDQ01  00002PRCP06
0297076750999992000011207004+43380+006380SY-MT+0078LFMC V0209999C000012200019N0008001N1-00231-00241103151ADDAA106000091AY141999AY201999GA1021+009009999GF102991021051008001001001MA1103011102091MD1510021+9999MW1411MW2461REMSYN082AAXX  12074 07675 31508 20000 11023 21024 30209 40315 55002 74640 82500 333 82630;MET052LFMC 120700Z 00000KT 0800 BCFG FEW030 M02/M02 Q1030;EQDQ01  00002PRCP06Q02    003PRSWM1
0267076750999992000011208004+43380+006380SY-MT+0078LFMC V0209999C000010001519N0002001N1-00211-00211103161ADDAA106000091GA1071+000159999GF107991999999999999999999MA1103011102101MD1310031+9999MW1441REMSYN060AAXX  12084 07675 36/// /0000 11021 21021 30210 40316 53003;MET050LFMC 120800Z 00000KT 0200 FG BKN000 M02/M02 Q1030;EQDQ01+000003PRSWM1Q02  00002PRCP06Q03    003PRSWM1
0322076750999992000011209004+43380+006380SY-MT+0078LFMC V0209999C000012200019N0011001N1-00011-00011103151ADDAA106000091AY141031AY211031GA1021+000909999GA2021+009009999GF104991041051001501001001MA1103011102101MD1110031+9999MW1101MW2281REMSYN088AAXX  12094 07675 31211 40000 11001 21001 30210 40315 51003 72841 84500 333 83703 83630;MET055LFMC 120900Z 00000KT 1100 BR SCT003 SCT030 00/00 Q1030;EQDQ01  00002PRCP06Q02    003PRSWM1
0316076750999992000011210004+43380+006380SY-MT+0078LFMC V0201301N001012200019N0040001N1+00331+00211103121ADDAA106000091AY101999AY201999GA1021+001809999GA2021+009009999GF104991041051002501001001MA1103011102081MD1810011+9999MW1101REMSYN088AAXX  12104 07675 31340 41302 10033 20021 30208 40312 58001 71000 84500 333 83706 83630;MET055LFMC 121000Z 13001KT 4000 BR SCT006 SCT030 03/02 Q1030;EQDQ01  00002PRCP06Q02    003PRSWM1
0246076750999992000011211004+43380+006380SY-MT+0078LFMC V0209999C000012200019N0080001N1+00661+00381102991ADDAA106000091GA1021+001809999GF102991999999999999999999MA1102911101971MD1810131+9999MW1001REMSYN060AAXX  12114 07675 36/// /0000 10066 20038 30197 40299 58013;MET045LFMC 121100Z 00000KT 8000 FEW006 07/04 Q1029;EQDQ01+000000PRSWM2Q02  00002PRCP06
0246076750999992000011212004+43380+006380SY-MT+0078LFMC V0201201N001012200019N0090001N1+01041+00501102881ADDAA106000091GA1021+006909999GF102991999999999999999999MA1102811101871MD1810231+9999MW1001REMSYN060AAXX  12124 07675 36/// /1202 10104 20050 30187 40288 58023;MET045LFMC 121200Z 12002KT 9000 FEW023 10/05 Q1028;EQDQ01+000000PRSWM2Q02  00002PRCP06
0269076750999992000011213004+43380+006380SY-MT+0078LFMC V0201401N003112200019N0112651N1+01151+00231102791ADDAA106000091GA1021+006909999GA2021+009009999GF104991999999999999999999MA1102711101791MD1610291+9999MW1001REMSYN060AAXX  12134 07675 36/// /1406 10115 20023 30179 40279 56029;MET052LFMC 121300Z 14005KT 9999 FEW023 SCT030 12/02 Q1027;EQDQ01+000000PRSWM2Q02  00002PRCP06
0291076750999992000011214004+43380+006380SY-MT+0078LFMC V0201201N005112200019N0200001N1+01151+00351102761ADDAA106000091GA1021+006909999GA2021+009009999GF104991031081008001031001MA1102711101761MD1610211+9999MW1001REMSYN082AAXX  12144 07675 32570 41210 10115 20035 30176 40276 56021 83830 333 82823 83630;MET052LFMC 121400Z 12010KT 9999 FEW023 SCT030 12/04 Q1027;EQDQ01+000000PRSWM2Q02  00002PRCP06
0291076750999992000011215004+43380+006380SY-MT+0078LFMC V0201301N004112200019N0150001N1+01031+00221102781ADDAA106000091GA1021+006909999GA2021+009009999GF103991031081008001001001MA1102711101771MD1510101+9999MW1001REMSYN082AAXX  12154 07675 32565 31308 10103 20022 30177 40278 55010 83800 333 81823 83630;MET052LFMC 121500Z 13007KT 9999 FEW023 SCT030 10/02 Q1027;EQDQ01+000000PRSWM2Q02  00002PRCP06
0291076750999992000011216004+43380+006380SY-MT+0078LFMC V0201001N002112200019N0150001N1+00841+00241102801ADDAA106000091GA1021+007509999GA2021+009909999GF104991041041008001001001MA1102711101791MD1510001+9999MW1001REMSYN082AAXX  12164 07675 32565 41004 10084 20024 30179 40280 55000 84400 333 81825 84633;MET052LFMC 121600Z 10004KT 9999 FEW025 SCT033 09/02 Q1027;EQDQ01+000000PRSWM2Q02  00002PRCP06
0278076750999992000011217004+43380+006380SY-MT+0078LFMC V0202801N001019999999N0100001N1+00691+00281102821ADDAA106000091GA1071+009909999GF104991041051012501001001MA1102711101801MD1210041+9999MW1001REMSYN076AAXX  12174 07675 32660 42802 10069 20028 30180 40282 52004 84500 333 84633;MET045LFMC 121700Z 28002KT 9999 BKN033 07/03 Q1027;EQDQ01+000000PRSWM2Q02  00002PRCP06Q03 009903SCOCIG
0316076750999992000011218004+43380+006380SY-MT+0078LFMC V0202901N001010099019N0100001N1+00621+00271102841ADDAA106000091GA1071+009909999GF199999051051012501001001KA1999M+01231KA2999N-00261MA1102811101821MD1210051+9999MW1001REMSYN088AAXX  12184 07675 32660 52902 10062 20027 30182 40284 52005 85500 333 10123 21026 85633;MET045LFMC 121800Z 29001KT 9999 BKN033 06/03 Q1028;EQDQ01+000052SCOTCVQ02+000000PRSWM2Q03  00002PRCP06
0131076750999992000011219004+43380+006380FM-12+0078LFMC V0209999C000019999999N9999999N1+00431+00221102841ADDAA106000091MA1999999101811MD1010021+9999REMSYN060AAXX  12194 07675 32/// /0000 10043 20022 30181 40284 50002;EQDQ01  00002PRCP06
0131076750999992000011220004+43380+006380FM-12+0078LFMC V0209999C000019999999N9999999N1+00261+00161102811ADDAA106000091MA1999999101781MD1810021+9999REMSYN060AAXX  12204 07675 36/// /0000 10026 20016 30178 40281 58002;EQDQ01  00002PRCP06
0131076750999992000011221004+43380+006380FM-12+0078LFMC V0209999C000019999999N9999999N1+00121+00051102811ADDAA106000091MA1999999101771MD1710051+9999REMSYN060AAXX  12214 07675 36/// /0000 10012 20005 30177 40281 57005;EQDQ01  00002PRCP06
0131076750999992000011222004+43380+006380FM-12+0078LFMC V0209999C000019999999N9999999N1+00001-00071102791ADDAA106000091MA1999999101751MD1610061+9999REMSYN060AAXX  12224 07675 36/// /0000 10000 21007 30175 40279 56006;EQDQ01  00002PRCP06
0131076750999992000011223004+43380+006380FM-12+0078LFMC V0209999C000019999999N9999999N1-00111-00181102771ADDAA106000091MA1999999101721MD1810061+9999REMSYN060AAXX  12234 07675 36/// /0000 11011 21018 30172 40277 58006;EQDQ01  00002PRCP06
0131076750999992000011300004+43380+006380FM-12+0078LFMC V0202901N001019999999N9999999N1-00211-00251102721ADDAA106000091MA1999999101671MD1810101+9999REMSYN060AAXX  13004 07675 36/// /2902 11021 21025 30167 40272 58010;EQDQ01  00002PRCP06
0131076750999992000011301004+43380+006380FM-12+0078LFMC V0202401N001019999999N9999999N1-00121-00131102681ADDAA106000091MA1999999101631MD1810121+9999REMSYN060AAXX  13014 07675 36/// /2402 11012 21013 30163 40268 58012;EQDQ01  00002PRCP06
0131076750999992000011302004+43380+006380FM-12+0078LFMC V0209999C000019999999N9999999N1-00261-00291102681ADDAA106000091MA1999999101631MD1610091+9999REMSYN060AAXX  13024 07675 36/// /0000 11026 21029 30163 40268 56009;EQDQ01  00002PRCP06
0131076750999992000011303004+43380+006380FM-12+0078LFMC V0201001N001019999999N9999999N1-00181-00191102651ADDAA106000091MA1999999101601MD1610071+9999REMSYN060AAXX  13034 07675 36/// /1002 11018 21019 30160 40265 56007;EQDQ01  00002PRCP06
0131076750999992000011304004+43380+006380FM-12+0078LFMC V0209999C000019999999N9999999N1-00121-00131102591ADDAA106000091MA1999999101541MD1810091+9999REMSYN060AAXX  13044 07675 36/// /0000 11012 21013 30154 40259 58009;EQDQ01  00002PRCP06
0131076750999992000011305004+43380+006380FM-12+0078LFMC V0209999C000019999999N9999999N1-00051-00061102571ADDAA106000091MA1999999101531MD1610101+9999REMSYN060AAXX  13054 07675 36/// /0000 11005 21006 30153 40257 56010;EQDQ01  00002PRCP06
0270076750999992000011306004+43380+006380FM-12+0078LFMC V0209999C000010090019N0060001N1-00021-00031102561ADDAA106000091AA224000091GA1071+009009059GF107991071051008001999999GJ104029IA1019KA1999M+00611KA2999N-00281MA1999999101521MD1610081+9999REMSYN106AAXX  13064 07675 32556 70000 11002 21003 30152 40256 56008 875// 333 10061 21028 30/// 55067 70000 87630;EQDQ01  00002PRCP06
0248076750999992000011307004+43380+006380SY-MT+0078LFMC V0203501N001010090019N0060001N1-00051-00061102571ADDAA106000091GA1071+009009999GF107991999999999999999999MA1102511101531MD1510011+9999MW1001REMSYN060AAXX  13074 07675 36/// /3502 11005 21006 30153 40257 55001;MET047LFMC 130700Z 35001KT 6000 BKN030 M00/M01 Q1025;EQDQ01+000000PRSWM2Q02  00002PRCP06
0280076750999992000011308004+43380+006380SY-MT+0078LFMC V0200301N001010090019N0060001N1+00001-00011102571ADDAA106000091GA1071+009009999GF199999061051008001001001MA1102511101531MD1510001+9999MW1001REMSYN076AAXX  13084 07675 32556 60302 10000 21001 30153 40257 55000 86500 333 86630;MET047LFMC 130800Z 03001KT 6000 BKN030 M00/M00 Q1025;EQDQ01+000062SCOTCVQ02+000000PRSWM2Q03  00002PRCP06
0278076750999992000011309004+43380+006380SY-MT+0078LFMC V0200901N001010090019N0070001N1+00071+00061102541ADDAA106000091GA1071+009009999GF199999061051008001001001MA1102401101501MD1810021+9999MW1001REMSYN076AAXX  13094 07675 32557 60902 10007 20006 30150 40254 58002 86500 333 86630;MET045LFMC 130900Z 09002KT 7000 BKN030 01/01 Q1024;EQDQ01+000062SCOTCVQ02+000000PRSWM2Q03  00002PRCP06
0189076750999992000011310004+43380+006380FM-12+0078LFMC V0201801N001010090019N0090001N1+00211+00141102521ADDAA106000091GA1061+009009059GF106991061051008001001001MA1999999101491MD1810041+9999REMSYN076AAXX  13104 07675 32559 61802 10021 20014 30149 40252 58004 86500 333 86630;EQDQ01  00002PRCP06
0262076750999992000011311004+43380+006380SY-MT+0078LFMC V0200201N001012200019N0130001N1+00531+00231102421ADDAA106000091GA1021+010809999GF104991041051012501001001MA1102301101401MD1810131+9999MW1001REMSYN076AAXX  13114 07675 32663 40202 10053 20023 30140 40242 58013 84500 333 84636;MET045LFMC 131100Z 02001KT 9999 SCT036 05/02 Q1023;EQDQ01+000000PRSWM2Q02  00002PRCP06
0291076750999992000011312004+43380+006380SY-MT+0078LFMC V0200601N002112200019N0120001N1+00801+00271102291ADDAA106000091GA1021+009009999GA2021+009909999GF104991041081008001001001MA1102201101281MD1810221+9999MW1001REMSYN082AAXX  13124 07675 32562 40604 10080 20027 30128 40229 58022 84800 333 81830 84633;MET052LFMC 131200Z 06005KT 9999 FEW030 SCT033 08/03 Q1022;EQDQ01+000000PRSWM2Q02  00002PRCP06
0299076750999992000011313004+43380+006380SY-MT+0078LFMC V0201301N003112200019N0150001N1+00951+00171102211ADDAA106000091GA1021+009009999GA2021+010809999GF104991041081008001001001MA1102101101211MD1610281+9999MW1001REMSYN082AAXX  13134 07675 32565 41306 10095 20017 30121 40221 56028 84800 333 82830 84636;MET060LFMC 131300Z 13006KT 060V170 9999 FEW030 SCT036 10/02 Q1021;EQDQ01+000000PRSWM2Q02  00002PRCP06
0270076750999992000011314004+43380+006380SY-MT+0078LFMC V0201301N004112200019N0150001N1+00951+00091102151ADDAA106000091GA1021+009009999GF102991021011008001001001MA1102101101151MD1610251+9999MW1001REMSYN076AAXX  13144 07675 32565 21308 10095 20009 30115 40215 56025 82100 333 82830;MET053LFMC 131400Z 13008KT 090V160 9999 FEW030 10/01 Q1021;EQDQ01+000000PRSWM2Q02  00002PRCP06
0262076750999992000011315004+43380+006380SY-MT+0078LFMC V0201401N004112200019N0170001N1+00881+00151102131ADDAA106000091GA1021+009009999GF102991021011008001001001MA1102101101121MD1610161+9999MW1001REMSYN076AAXX  13154 07675 32567 21408 10088 20015 30112 40213 56016 82100 333 81830;MET045LFMC 131500Z 14008KT 9999 FEW030 09/02 Q1021;EQDQ01+000000PRSWM2Q02  00002PRCP06
0224076750999992000011316004+43380+006380SY-MT+0078LFMC V0201001N002112200019N0150001N1+00721+00211102121ADDAA106000091GF100991001001999999001001MA1102001101111MD1610101+9999MW1001REMSYN060AAXX  13164 07675 32965 01004 10072 20021 30111 40212 56010;MET039LFMC 131600Z 11003KT CAVOK 07/02 Q1020;EQDQ01+000000PRSWM2Q02  00002PRCP06
0262076750999992000011317004+43380+006380SY-MT+0078LFMC V0209999C000012200019N0100001N1+00411+00161102131ADDAA106000091GA1021+009009999GF102991021051008001001001MA1102001101111MD1610041+9999MW1001REMSYN076AAXX  13174 07675 32560 20000 10041 20016 30111 40213 56004 82500 333 82630;MET045LFMC 131700Z 00000KT 9999 FEW030 04/02 Q1020;EQDQ01+000000PRSWM2Q02  00002PRCP06
0316076750999992000011318004+43380+006380SY-MT+0078LFMC V0202901N001012200019N0100001N1+00321+00141102141ADDAA106000091GA1021+009009999GF199999011051008001001001KA1999M+01021KA2999N-00061MA1102001101111MD1610011+9999MW1001REMSYN088AAXX  13184 07675 32560 12902 10032 20014 30111 40214 56001 81500 333 10102 21006 81630;MET045LFMC 131800Z 29002KT 9999 FEW030 03/02 Q1020;EQDQ01+000012SCOTCVQ02+000000PRSWM2Q03  00002PRCP06
0131076750999992000011319004+43380+006380FM-12+0078LFMC V0209999C000019999999N9999999N1+00031-00071102151ADDAA106000091MA1999999101111MD1410001+9999REMSYN060AAXX  13194 07675 36/// /0000 10003 21007 30111 40215 54000;EQDQ01  00002PRCP06
0135076750999992000011320004+43380+006380FM-12+007899999V0209999C00001999999MN9999999N1-00071-00141102151ADDAA199000091MA1999999101111MD1410001+9999REMSYN064    AAXX  13204 07675 36/// /0000 11007 21014 30111 40215 54000;EQDQ01  00002PRCP99
0135076750999992000011321004+43380+006380FM-12+007899999V0202401N00101999999MN9999999N1-00131-00171102131ADDAA199000091MA1999999101091MD1810021+9999REMSYN064    AAXX  13214 07675 36/// /2402 11013 21017 30109 40213 58002;EQDQ01  00002PRCP99
0135076750999992000011322004+43380+006380FM-12+007899999V0209999C00001999999MN9999999N1-00221-00261102131ADDAA199000091MA1999999101081MD1810031+9999REMSYN064    AAXX  13224 07675 36/// /0000 11022 21026 30108 40213 58003;EQDQ01  00002PRCP99
0135076750999992000011323004+43380+006380FM-12+007899999V0209999C00001999999MN9999999N1-00251-00281102101ADDAA199000091MA1999999101051MD1810061+9999REMSYN064    AAXX  13234 07675 36/// /0000 11025 21028 30105 40210 58006;EQDQ01  00002PRCP99
0135076750999992000011400004+43380+006380FM-12+007899999V0202801N00101999999MN9999999N1-00301-00331102081ADDAA199000091MA1999999101031MD1810061+9999REMSYN064    AAXX  14004 07675 36/// /2802 11030 21033 30103 40208 58006;EQDQ01  00002PRCP99
0135076750999992000011401004+43380+006380FM-12+007899999V0209999C00001999999MN9999999N1-00381-00431102051ADDAA199000091MA1999999101001MD1710081+9999REMSYN064    AAXX  14014 07675 36/// /0000 11038 21043 30100 40205 57008;EQDQ01  00002PRCP99
0135076750999992000011402004+43380+006380FM-12+007899999V0209999C00001999999MN9999999N1-00381-00411102031ADDAA199000091MA1999999100981MD1710071+9999REMSYN064    AAXX  14024 07675 36/// /0000 11038 21041 30098 40203 57007;EQDQ01  00002PRCP99
0135076750999992000011403004+43380+006380FM-12+007899999V0209999C00001999999MN9999999N1-00431-00481102001ADDAA199000091MA1999999100951MD1710081+9999REMSYN064    AAXX  14034 07675 36/// /0000 11043 21048 30095 40200 57008;EQDQ01  00002PRCP99
0135076750999992000011404004+43380+006380FM-12+007899999V0209999C00001999999MN9999999N1-00461-00511101951ADDAA199000091MA1999999100901MD1810101+9999REMSYN064    AAXX  14044 07675 36/// /0000 11046 21051 30090 40195 58010;EQDQ01  00002PRCP99
0135076750999992000011405004+43380+006380FM-12+007899999V0209999C00001999999MN9999999N1-00421-00421101911ADDAA199000091MA1999999100861MD1810121+9999REMSYN064    AAXX  14054 07675 36/// /0000 11042 21042 30086 40191 58012;EQDQ01  00002PRCP99
0333076750999992000011406004+43380+006380SY-MT+007899999V0209999C00001220001MN0015001N1-00441-00441101921ADDAA124000091GA1021+009909999GF104991999999999999999999GJ102529KA1999M+00321KA2999N-00461MA1101801100871MD1510081+9999MW1101REMSYN092    AAXX  14064 07675 36/// /0000 11044 21044 30087 40192 55008 333 10032 21046 55042 70000;MET050LFMC 140600Z 00000KT 1500 BR SCT033 M04/M04 Q1018;EQDQ01+000003PRSWM1Q02  00002PRCP24Q03    003PRSWM1
0271076750999992000011407004+43380+006380SY-MT+007899999V0209999C00001220001MN0040001N1-00451-00461101941ADDAA199000091GA1021+009909999GF104991999999999999999999MA1101801100891MD1510011+9999MW1101REMSYN064    AAXX  14074 07675 36/// /0000 11045 21046 30089 40194 55001;MET050LFMC 140700Z 00000KT 4000 BR SCT033 M05/M05 Q1018;EQDQ01+000003PRSWM1Q02  00002PRCP99Q03    003PRSWM1
0162076750999992000011407454+43380+006380FM-15+0078LFMC V0209999C000012200019N0009001N1-00401-00401999999ADDGA1021+009909999GF104991999999999999999999MA1101801999999MW1411REMMET052LFMC 140745Z 00000KT 0900 BCFG SCT033 M04/M04 Q1018;EQDQ01+000003PRSWM1Q02    003PRSWM1
0135076750999992000011408004+43380+006380FM-12+007899999V0202701N00101999999MN9999999N1-00351-00361101941ADDAA199000091MA1999999100891MD1110031+9999REMSYN064    AAXX  14084 07675 36/// /2702 11035 21036 30089 40194 51003;EQDQ01  00002PRCP99
0298076750999992000011409004+43380+006380SY-MT+007899999V0201301N00101220001MN0035001N1+00011-00071101931ADDAA199000091AY141031AY201031GA1021+009909999GF103991031051012501001001MA1101801100891MD1110021+9999MW1101MW2281REMSYN086    AAXX  14094 07675 31635 31302 10001 21007 30089 40193 51002 72840 83500 333 83633;MET049LFMC 140900Z 13002KT 3500 BR SCT033 00/M01 Q1018;EQDQ01  00002PRCP99Q02    003PRSWM1
0308076750999992000011410004+43380+006380SY-MT+007899999V0209999C00001009901MN0030001N1+00001-00041101931ADDAA199000091AY111999AY211999GA1071+009909999GF199999051051012501001001MA1101801100891MD1410001+9999MW1101REMSYN086    AAXX  14104 07675 31630 50000 10000 21004 30089 40193 54000 71011 85500 333 85633;MET049LFMC 141000Z 00000KT 3000 BR BKN033 00/M00 Q1018;EQDQ01+000052SCOTCVQ02  00002PRCP99Q03    003PRSWM1
0285076750999992000011411004+43380+006380SY-MT+007899999V0203001N00101009901MN0050001N1+00131+00091101871ADDAA101000291GA1071+009909999GA2071+024009999GF107991061051012501071001MA1101801100841MD1810051+9999MW1001REMSYN092    AAXX  14114 07675 22650 73002 10013 20009 30084 40187 58005 86570 333 69925 85633 87358;MET052LFMC 141100Z 31001KT 5000 BKN033 BKN080 01/01 Q1018;EQDQ01+000000PRSWM2
0323076750999992000011412004+43380+006380SY-MT+007899999V0209999C00001009901MN0050001N1+00201+00161101811ADDAA103000291AY161061AY241061GA1021+006009999GA2081+009909999GF108991081051008001999999MA1101691100781MD1810111+9999MW1601MW2611REMSYN104    AAXX  14124 07675 /1550 80000 10020 20016 30078 40181 58011 69921 76064 885// 333 69927 81620 88633;MET056LFMC 141200Z 00000KT 5000 -RA FEW020 OVC033 02/02 Q1017;EQDQ01    003PRSWM1
0320076750999992000011413004+43380+006380SY-MT+007899999V0209999C00001009901MN0025001N1+00301+00271101751ADDAA101999929AY161999AY261999GA1021+006009999GA2081+009909999GF108991081051008001999999MA1101691100731MD1710161+9999MW1601MW2611REMSYN098    AAXX  14134 07675 21525 80000 10030 20027 30073 40175 57016 76066 885// 333 69905 83620 88633;MET059LFMC 141300Z 00000KT 2500 -RA BR SCT020 OVC033 03/03 Q1017;EQDQ01    003PRSWM1
0290076750999992000011414004+43380+006380SY-MT+0078LFMC V0209999C000010099019N0025001N1+00401+00371101731ADDAA101000791GA1021+006009999GA2081+009909999GF108991999999999999999999MA1101591100711MD1610131+9999MW1611REMSYN074    AAXX  14144 07675 26/// /0000 10040 20037 30071 40173 56013 333 69905;MET059LFMC 141400Z 00000KT 2500 -RA BR SCT020 OVC033 04/04 Q1016;EQDQ01+000003PRSWM1Q02    003PRSWM1
0293076750999992000011415004+43380+006380SY-MT+0078LFMC V0209999C000010099019N0025001N1+00401+00391101761ADDAY161031AY261031GA1021+006009999GA2081+009909999GF108991081051008001999999MA1101691100741MD1510041+9999MW1101MW2601MW3611REMSYN076    AAXX  14154 07675 21525 80000 10040 20039 30074 40176 55004 76066 885//;MET059LFMC 141500Z 00000KT 2500 -RA BR SCT020 OVC033 04/04 Q1017;EQDQ01    003PRSWM1
0320076750999992000011416004+43380+006380SY-MT+007899999V0200301N00101004801MN0010001N1+00351+00351101791ADDAA101999929AY161999AY261999GA1071+004809999GA2081+009909999GF108991081051004501999999MA1101691100771MD1310041+9999MW1601MW2611REMSYN098    AAXX  14164 07675 21410 80302 10035 20035 30077 40179 53004 76066 885// 333 69905 85616 88633;MET059LFMC 141600Z 03002KT 1000 -RA BR BKN016 OVC033 04/04 Q1017;EQDQ01    003PRSWM1
0320076750999992000011417004+43380+006380SY-MT+007899999V0209999C00001004801MN0010001N1+00401+00401101811ADDAA101999929AY161999AY261999GA1071+004809999GA2081+009909999GF108991081051004501999999MA1101691100791MD1110081+9999MW1601MW2611REMSYN098    AAXX  14174 07675 21410 80000 10040 20040 30079 40181 51008 76066 885// 333 69905 85616 88633;MET059LFMC 141700Z 00000KT 1000 -RA BR BKN016 OVC033 04/04 Q1017;EQDQ01    003PRSWM1
0258076750999992000011418004+43380+006380FM-12+007899999V0209999C00001003901MN0010001N1+00391+00391101851ADDAA103999929AY161061AY261061GA1051+003909069GF108991081051004501999999KA1999M+00421KA2999N-00481MA1999999100831MD1310091+9999MW1601REMSYN116    AAXX  14184 07675 /1410 80000 10039 20039 30083 40185 53009 69942 76066 885// 333 10042 21048 69907 85613 88633;
0126076750999992000011419004+43380+006380FM-12+007899999V0200301N00211999999MN9999999N1+00401+00401101931ADDAA101000191MA1999999100911MD1310141+9999REMSYN074    AAXX  14194 07675 26/// /0304 10040 20040 30091 40193 53014 333 69925;
0126076750999992000011420004+43380+006380FM-12+007899999V0200601N00211999999MN9999999N1+00541+00541101951ADDAA101000791MA1999999100931MD1110141+9999REMSYN074    AAXX  14204 07675 26/// /0604 10054 20054 30093 40195 51014 333 69905;
0126076750999992000011421004+43380+006380FM-12+007899999V0200701N00311999999MN9999999N1+00621+00551101981ADDAA103000191MA1999999100971MD1110141+9999REMSYN074    AAXX  14214 07675 26/// /0706 10062 20055 30097 40198 51014 333 69927;
0126076750999992000011422004+43380+006380FM-12+007899999V0200601N00311999999MN9999999N1+00661+00541102011ADDAA101000791MA1999999101001MD1310091+9999REMSYN074    AAXX  14224 07675 26/// /0606 10066 20054 30100 40201 53009 333 69905;
0126076750999992000011423004+43380+006380FM-12+007899999V0200501N00211999999MN9999999N1+00711+00531102011ADDAA101000791MA1999999101001MD1110071+9999REMSYN074    AAXX  14234 07675 26/// /0504 10071 20053 30100 40201 51007 333 69905;
0132076750999992000011500004+43380+006380FM-12+007899999V0200101N00211999999MN9999999N1+00641+00541102011ADDAA103000791MA1999999101001MD1110031+9999REMSYN080    AAXX  15004 07675 /6/// /0104 10064 20054 30100 40201 51003 69921 333 69907;
0126076750999992000011501004+43380+006380FM-12+007899999V0200201N00211999999MN9999999N1+00741+00521102041ADDAA101000791MA1999999101031MD1310031+9999REMSYN074    AAXX  15014 07675 26/// /0204 10074 20052 30103 40204 53003 333 69905;
0126076750999992000011502004+43380+006380FM-12+007899999V0203001N00101999999MN9999999N1+00661+00511102061ADDAA101000791MA1999999101051MD1310051+9999REMSYN074    AAXX  15024 07675 26/// /3002 10066 20051 30105 40206 53005 333 69905;
0126076750999992000011503004+43380+006380FM-12+007899999V0202801N00101999999MN9999999N1+00671+00521102081ADDAA103000791MA1999999101071MD1110071+9999REMSYN074    AAXX  15034 07675 26/// /2802 10067 20052 30107 40208 51007 333 69907;
0126076750999992000011504004+43380+006380FM-12+007899999V0202601N00101999999MN9999999N1+00691+00521102091ADDAA101000791MA1999999101081MD1110051+9999REMSYN074    AAXX  15044 07675 26/// /2602 10069 20052 30108 40209 51005 333 69905;
0126076750999992000011505004+43380+006380FM-12+007899999V0200401N00311999999MN9999999N1+00791+00601102111ADDAA101000791MA1999999101101MD1210051+9999REMSYN074    AAXX  15054 07675 26/// /0406 10079 20060 30110 40211 52005 333 69905;
0209076750999992000011506004+43380+006380FM-12+007899999V0203401N00211999999MN9999999N1+00711+00561102141ADDAA103999999GJ100609KA1999M+00811KA2999N+00371MA1999999101131MD1310061+9999REMSYN104    AAXX  15064 07675 /6/// /3404 10071 20056 30113 40214 53006 69922 333 10081 20037 55010 69907 70006;EQDQ01  99992PRCP03
0126076750999992000011507004+43380+006380FM-12+007899999V0200101N00101999999MN9999999N1+00691+00581102201ADDAA101000791MA1999999101191MD1310111+9999REMSYN074    AAXX  15074 07675 26/// /0102 10069 20058 30119 40220 53011 333 69905;
0135076750999992000011508004+43380+006380FM-12+007899999V0209999C00001999999MN9999999N1+00681+00591102261ADDAA199000091MA1999999101251MD1310151+9999REMSYN064    AAXX  15084 07675 36/// /0000 10068 20059 30125 40226 53015;EQDQ01  00002PRCP99
0126076750999992000011509004+43380+006380FM-12+007899999V0203501N00211999999MN9999999N1+00761+00651102311ADDAA103000791MA1999999101301MD1110171+9999REMSYN074    AAXX  15094 07675 26/// /3504 10076 20065 30130 40231 51017 333 69907;
0135076750999992000011510004+43380+006380FM-12+007899999V0200301N00311999999MN9999999N1+00991+00621102341ADDAA199000091MA1999999101341MD1110151+9999REMSYN064    AAXX  15104 07675 36/// /0306 10099 20062 30134 40234 51015;EQDQ01  00002PRCP99
0135076750999992000011511004+43380+006380FM-12+007899999V0200401N00211999999MN9999999N1+01031+00741102361ADDAA199000091MA1999999101361MD1110111+9999REMSYN064    AAXX  15114 07675 36/// /0404 10103 20074 30136 40236 51011;EQDQ01  00002PRCP99
0122076750999992000011512004+43380+006380FM-12+007899999V0200501N00311999999MN9999999N1+01041+00751102311ADDAA106000791MA1999999101311MD1010011+9999REMSYN070    AAXX  15124 07675 16/// /0506 10104 20075 30131 40231 50001 69901;
0126076750999992000011513004+43380+006380FM-12+007899999V0200901N00101999999MN9999999N1+01011+00801102281ADDAA101000191MA1999999101281MD1810061+9999REMSYN074    AAXX  15134 07675 26/// /0902 10101 20080 30128 40228 58006 333 69925;
0126076750999992000011514004+43380+006380FM-12+007899999V0209999C00001999999MN9999999N1+00951+00831102291ADDAA101000591MA1999999101291MD1510071+9999REMSYN074    AAXX  15144 07675 26/// /0000 10095 20083 30129 40229 55007 333 69965;
0126076750999992000011515004+43380+006380FM-12+007899999V0202901N00101999999MN9999999N1+00901+00841102321ADDAA103001091MA1999999101311MD1510001+9999REMSYN074    AAXX  15154 07675 26/// /2902 10090 20084 30131 40232 55000 333 60017;
0126076750999992000011516004+43380+006380FM-12+007899999V0202201N00101999999MN9999999N1+00891+00861102331ADDAA101000591MA1999999101321MD1210041+9999REMSYN074    AAXX  15164 07675 26/// /2202 10089 20086 30132 40233 52004 333 69965;
0126076750999992000011517004+43380+006380FM-12+007899999V0209999C00001999999MN9999999N1+00821+00811102341ADDAA101000191MA1999999101331MD1110041+9999REMSYN074    AAXX  15174 07675 26/// /0000 10082 20081 30133 40234 51004 333 69925;
0170076750999992000011518004+43380+006380FM-12+007899999V0209999C00001999999MN9999999N1+00761+00761102361ADDAA103000891KA1999M+01051KA2999N+00651MA1999999101351MD1310041+9999REMSYN092    AAXX  15184 07675 /6/// /0000 10076 20076 30135 40236 53004 60022 333 10105 20065 69987;
0135076750999992000011519004+43380+006380FM-12+007899999V0202701N00101999999MN9999999N1+00671+00671102371ADDAA199000091MA1999999101361MD1210041+9999REMSYN064    AAXX  15194 07675 36/// /2702 10067 20067 30136 40237 52004;EQDQ01  00002PRCP99
0135076750999992000011521004+43380+006380FM-12+007899999V0209999C00001999999MN9999999N1+00471+00471102401ADDAA199000091MA1999999101381MD1310031+9999REMSYN064    AAXX  15214 07675 36/// /0000 10047 20047 30138 40240 53003;EQDQ01  00002PRCP99
0135076750999992000011522004+43380+006380FM-12+007899999V0209999C00001999999MN9999999N1+00451+00451102391ADDAA199000091MA1999999101371MD1010011+9999REMSYN064    AAXX  15224 07675 36/// /0000 10045 20045 30137 40239 50001;EQDQ01  00002PRCP99
0135076750999992000011523004+43380+006380FM-12+007899999V0209999C00001999999MN9999999N1+00371+00371102431ADDAA199000091MA1999999101401MD1310041+9999REMSYN064    AAXX  15234 07675 36/// /0000 10037 20037 30140 40243 53004;EQDQ01  00002PRCP99
0135076750999992000011600004+43380+006380FM-12+007899999V0202801N00101999999MN9999999N1+00261+00261102441ADDAA199000091MA1999999101411MD1310031+9999REMSYN064    AAXX  16004 07675 36/// /2802 10026 20026 30141 40244 53003;EQDQ01  00002PRCP99
0135076750999992000011601004+43380+006380FM-12+007899999V0209999C00001999999MN9999999N1+00341+00341102421ADDAA199000091MA1999999101391MD1010021+9999REMSYN064    AAXX  16014 07675 36/// /0000 10034 20034 30139 40242 50002;EQDQ01  00002PRCP99
0135076750999992000011602004+43380+006380FM-12+007899999V0209999C00001999999MN9999999N1+00281+00281102401ADDAA199000091MA1999999101371MD1810031+9999REMSYN064    AAXX  16024 07675 36/// /0000 10028 20028 30137 40240 58003;EQDQ01  00002PRCP99
