0240084820999992000010100004+36670-004480SY-MT+0007LEMG V0203201N00211010501CN0100001N1+00981+00811102691ADDAA106000091GA1071+010509999GF199999061081012501001001MA1102711102601MD1110011+9999MW1001REMSYN066AAXX  01004 08482 32660 63204 10098 20081 30260 40269 51001 86800;MET049LEMG 0000Z 32004KT 9999 BKN035 07/04 Q1027 NOSIG;EQDQ01  00002PRCP06
0124084820999992000010101004+36670-004480FM-15+0007LEMG V0203001N003610090019N0112651N1+00701+00401999999ADDGA1071+009009999GF107991999999999999999999MA1102711999999MW1001REMMET049LEMG 0100Z 30007KT 9999 BKN030 07/04 Q1027 NOSIG;
0124084820999992000010102004+36670-004480FM-15+0007LEMG V0203101N003110102019N0112651N1+00701+00501999999ADDGA1071+010209999GF107991999999999999999999MA1102611999999MW1001REMMET049LEMG 0200Z 31006KT 9999 BKN034 07/05 Q1026 NOSIG;
0210084820999992000010103004+36670-004480SY-MT+0007LEMG V0203101N00311009001CN0100001N1+00961+00791102711ADDGA1071+009009999GF199999061081012501001001MA1102711102621MD1210021+9999MW1001REMSYN066AAXX  01034 08482 42660 63106 10096 20079 30262 40271 52002 86800;MET049LEMG 0300Z 31006KT 9999 BKN030 07/05 Q1027 NOSIG;
0124084820999992000010104004+36670-004480FM-15+0007LEMG V0203001N003110108019N0112651N1+00701+00501999999ADDGA1071+010809999GF107991999999999999999999MA1102711999999MW1001REMMET049LEMG 0400Z 30006KT 9999 BKN036 07/05 Q1027 NOSIG;
0124084820999992000010105004+36670-004480FM-15+0007LEMG V0203001N002610105019N0112651N1+00701+00501999999ADDGA1071+010509999GF107991999999999999999999MA1102611999999MW1001REMMET049LEMG 0500Z 30005KT 9999 BKN035 07/05 Q1026 NOSIG;
0269084820999992000010106004+36670-004480SY-MT+0007LEMG V0203101N003112200019N0100001N1+00881+00711102731ADDAA106000091GA1071+010509999GF199999041081012501001001KA1120N+00881MA1102711102641MD1210021+9999MW1001REMSYN082AAXX  01064 08482 32660 43106 10088 20071 30264 40273 52002 84800 333 20088 55086;MET049LEMG 0600Z 31006KT 9999 BKN035 05/04 Q1027 NOSIG;EQDQ01  00002PRCP06
0124084820999992000010107004+36670-004480FM-15+0007LEMG V0203001N003612200019N0112651N1+00501+00401999999ADDGA1021+018009999GF102991999999999999999999MA1102711999999MW1001REMMET049LEMG 0700Z 30007KT 9999 FEW060 05/04 Q1027 NOSIG;
0124084820999992000010108004+36670-004480FM-15+0007LEMG V0203001N002612200019N0112651N1+00501+00301999999ADDGA1021+015009999GF102991999999999999999999MA1102711999999MW1001REMMET049LEMG 0800Z 30005KT 9999 FEW050 05/03 Q1027 NOSIG;
0233084820999992000010109004+36670-004480SY-MT+0007LEMG V0203001N004112200019N0200001N1+00881+00711102811ADDGA1021+015009999GF199999011061017501001001KA1999N+00741MA1102811102721MD1210081+9999MW1001REMSYN076AAXX  01094 08482 42770 13008 10088 20071 30272 40281 52008 81600 333 20074;MET049LEMG 0900Z 30008KT 9999 FEW050 07/05 Q1028 NOSIG;
0124084820999992000010110004+36670-004480FM-15+0007LEMG V0203101N001512200019N0112651N1+01001+00501999999ADDGA1021+015009999GF102991999999999999999999MA1102911999999MW1001REMMET049LEMG 1000Z 31003KT 9999 FEW050 10/05 Q1029 NOSIG;
0132084820999992000010111004+36670-004480FM-15+0007LEMG V0201201N002112200019N0112651N1+01201+00501999999ADDGA1021+015009999GF102991999999999999999999MA1102911999999MW1001REMMET057LEMG 1100Z 12004KT 060V150 9999 FEW050 12/05 Q1029 NOSIG;
0248084820999992000010112004+36670-004480SY-MT+0007LEMG V0201101N003612200019N0250001N1+01421+00821102891ADDAA106000091GA1021+015009999GF102991021051017501001001MA1102811102801MD1010081+9999MW1001REMSYN066AAXX  01124 08482 32775 21107 10142 20082 30280 40289 50008 82500;MET057LEMG 1200Z 11007KT 060V130 9999 FEW050 13/05 Q1028 NOSIG;EQDQ01  00002PRCP06
0124084820999992000010113004+36670-004480FM-15+0007LEMG V0201101N005112200019N0112651N1+01201+00601999999ADDGA1021+015009999GF102991999999999999999999MA1102811999999MW1001REMMET049LEMG 1300Z 11010KT 9999 FEW050 12/06 Q1028 NOSIG;
0124084820999992000010114004+36670-004480FM-15+0007LEMG V0201201N004612200019N0112651N1+01201+00601999999ADDGA1021+015009999GF102991999999999999999999MA1102711999999MW1001REMMET049LEMG 1400Z 12009KT 9999 FEW050 12/06 Q1027 NOSIG;
0210084820999992000010115004+36670-004480SY-MT+0007LEMG V0201101N003612200019N0250001N1+01421+00951102761ADDGA1021+015009999GF102991021011017501001001MA1102711102671MD1710131+9999MW1001REMSYN066AAXX  01154 08482 42775 21107 10142 20095 30267 40276 57013 82100;MET049LEMG 1500Z 11007KT 9999 FEW050 12/06 Q1027 NOSIG;
0124084820999992000010116004+36670-004480FM-15+0007LEMG V0201301N003112200019N0112651N1+01201+00601999999ADDGA1021+015009999GF102991999999999999999999MA1102711999999MW1001REMMET049LEMG 1600Z 13006KT 9999 FEW050 12/06 Q1027 NOSIG;
0124084820999992000010117004+36670-004480FM-15+0007LEMG V0201201N002112200019N0112651N1+01101+00601999999ADDGA1021+018009999GF102991999999999999999999MA1102711999999MW1001REMMET049LEMG 1700Z 12004KT 9999 FEW060 11/06 Q1027 NOSIG;
0263084820999992000010118004+36670-004480SY-MT+0007LEMG V0201201N001512200019N0200001N1+01201+00831102791ADDAA106000091GA1021+007509999GF199999011061008001001001KA1999M+01461MA1102811102701MD1210031+9999MW1001REMSYN076AAXX  01184 08482 32570 11203 10120 20083 30270 40279 52003 81600 333 10146;MET049LEMG 1800Z 12003KT 9999 FEW025 10/05 Q1028 NOSIG;EQDQ01  00002PRCP06
0124084820999992000010119004+36670-004480FM-15+0007LEMG V0201101N001012200019N0112651N1+00901+00401999999ADDGA1021+007509999GF102991999999999999999999MA1102811999999MW1001REMMET049LEMG 1900Z 11002KT 9999 FEW025 09/04 Q1028 NOSIG;
0124084820999992000010120004+36670-004480FM-15+0007LEMG V0203201N001512200019N0112651N1+00601+00401999999ADDGA1021+009009999GF104991999999999999999999MA1102811999999MW1001REMMET049LEMG 2000Z 32003KT 9999 SCT030 06/04 Q1028 NOSIG;
0218084820999992000010121004+36670-004480SY-MT+0007LEMG V0202901N002112200019N0200001N1+00941+00771102841ADDGA1021+009009999GF103991031061008001001001MA1102811102751MD1210051+9999MW1001REMSYN066AAXX  01214 08482 42570 32904 10094 20077 30275 40284 52005 83600;MET057LEMG 2100Z 29004KT 260V010 9999 SCT030 07/04 Q1028 NOSIG;
0124084820999992000010122004+36670-004480FM-15+0007LEMG V0203101N003612200019N0112651N1+00501+00301999999ADDGA1021+009009999GF104991999999999999999999MA1102811999999MW1001REMMET049LEMG 2200Z 31007KT 9999 SCT030 05/03 Q1028 NOSIG;
0124084820999992000010123004+36670-004480FM-15+0007LEMG V0203001N003612200019N0112651N1+00501+00301999999ADDGA1021+009009999GF102991999999999999999999MA1102811999999MW1001REMMET049LEMG 2300Z 30007KT 9999 FEW030 05/03 Q1028 NOSIG;
0256084820999992000010200004+36670-004480SY-MT+0007LEMG V0203001N004112200019N0200001N1+00701+00611102841ADDAA106000091GA1021+009009999GF102991021061008001001001MA1102811102751MD1410001+9999MW1001REMSYN066AAXX  02004 08482 32570 23008 10070 20061 30275 40284 54000 82600;MET049LEMG 0000Z 30008KT 9999 FEW030 05/03 Q1028 NOSIG;EQDQ01+000000PRSWM2Q02  00002PRCP06
0143084820999992000010201004+36670-004480FM-15+0007LEMG V0203101N003112200019N0112651N1+00401+00201999999ADDGA1021+009009999GF102991999999999999999999MA1102811999999MW1001REMMET049LEMG 0100Z 31006KT 9999 FEW030 04/02 Q1028 NOSIG;EQDQ01+000000PRSWM2
0143084820999992000010202004+36670-004480FM-15+0007LEMG V0203001N004112200019N0112651N1+00401+00201999999ADDGA1021+009009999GF102991999999999999999999MA1102811999999MW1001REMMET049LEMG 0200Z 30008KT 9999 FEW030 04/02 Q1028 NOSIG;EQDQ01+000000PRSWM2
0201084820999992000010203004+36670-004480SY-MT+0007LEMG V0202901N004112200019N0200001N1+00581+00491102811ADDGF100991001001999999001001MA1102811102721MD1810031+9999MW1001REMSYN060AAXX  02034 08482 42970 02908 10058 20049 30272 40281 58003;MET043LEMG 0300Z 29008KT CAVOK 04/02 Q1028 NOSIG;EQDQ01+000000PRSWM2
0095084820999992000010204004+36670-004480FM-15+0007LEMG V0203001N00411220001CN0099001N1+00301+00101999999ADDMA1102711999999MW1001REMMET043LEMG 0400Z 30008KT CAVOK 03/01 Q1027 NOSIG;EQDQ01+000000PRSWM2
0095084820999992000010205004+36670-004480FM-15+0007LEMG V0203001N00361220001CN0099001N1+00301+00201999999ADDMA1102711999999MW1001REMMET043LEMG 0500Z 30007KT CAVOK 03/02 Q1027 NOSIG;EQDQ01+000000PRSWM2
0285084820999992000010206004+36670-004480SY-MT+0007LEMG V0203001N004112200019N0200001N1+00541+00451102801ADDAA106000091GA1021+007509999GF103991031061008001001001KA1120N+00461MA1102811102711MD1710011+9999MW1001REMSYN082AAXX  02064 08482 32570 33008 10054 20045 30271 40280 57001 83600 333 20046 55080;MET049LEMG 0600Z 30008KT 9999 SCT025 03/02 Q1028 NOSIG;EQDQ01+000000PRSWM2Q02  00002PRCP06
0143084820999992000010207004+36670-004480FM-15+0007LEMG V0203201N003612200019N0112651N1+00201+00001999999ADDGA1021+007509999GF104991999999999999999999MA1102811999999MW1001REMMET049LEMG 0700Z 32007KT 9999 SCT025 02/00 Q1028 NOSIG;EQDQ01+000000PRSWM2
0143084820999992000010208004+36670-004480FM-15+0007LEMG V0203101N005112200019N0112651N1+00201+00101999999ADDGA1021+010509999GF104991999999999999999999MA1102811999999MW1001REMMET049LEMG 0800Z 31010KT 9999 SCT035 02/01 Q1028 NOSIG;EQDQ01+000000PRSWM2
0252084820999992000010209004+36670-004480SY-MT+0007LEMG V0203101N004112200019N0200001N1+00521+00421102871ADDGA1021+010509999GF103991021061008001011001KA1999N+00441MA1102811102781MD1310071+9999MW1001REMSYN076AAXX  02094 08482 42570 33108 10052 20042 30278 40287 53007 82610 333 20044;MET049LEMG 0900Z 31008KT 9999 FEW035 02/01 Q1028 NOSIG;EQDQ01+000000PRSWM2
0143084820999992000010210004+36670-004480FM-15+0007LEMG V0203101N003112200019N0112651N1+00601+00401999999ADDGA1021+010509999GF104991999999999999999999MA1102911999999MW1001REMMET049LEMG 1000Z 31006KT 9999 SCT035 06/04 Q1029 NOSIG;EQDQ01+000000PRSWM2
0166084820999992000010211004+36670-004480FM-15+0007LEMG V0203001N002612200019N0112651N1+01001+00601999999ADDGA1021+010509999GA2021+045009999GF104991999999999999999999MA1102811999999MW1001REMMET056LEMG 1100Z 30005KT 9999 FEW035 SCT150 10/06 Q1028 NOSIG;EQDQ01+000000PRSWM2
0166084820999992000010212004+36670-004480FM-15+0007LEMG V0202901N001512200019N0112651N1+01101+00601999999ADDGA1021+010509999GA2021+045009999GF104991999999999999999999MA1102811999999MW1001REMMET056LEMG 1200Z 29003KT 9999 FEW035 SCT150 11/06 Q1028 NOSIG;EQDQ01+000000PRSWM2
0166084820999992000010213004+36670-004480FM-15+0007LEMG V0201001N001512200019N0112651N1+01201+00601999999ADDGA1021+010509999GA2021+045009999GF104991999999999999999999MA1102711999999MW1001REMMET056LEMG 1300Z 10003KT 9999 FEW035 SCT150 12/06 Q1027 NOSIG;EQDQ01+000000PRSWM2
0166084820999992000010214004+36670-004480FM-15+0007LEMG V0201401N002612200019N0112651N1+01201+00601999999ADDGA1021+010509999GA2021+045009999GF102991999999999999999999MA1102611999999MW1001REMMET056LEMG 1400Z 14005KT 9999 FEW035 FEW150 12/06 Q1026 NOSIG;EQDQ01+000000PRSWM2
0252084820999992000010215004+36670-004480SY-MT+0007LEMG V0201501N002112200019N0200001N1+01441+01021102691ADDGA1021+010509999GA2021+045009999GF102991011011008001001011MA1102611102601MD1710121+9999MW1001REMSYN066AAXX  02154 08482 42570 21504 10144 20102 30260 40269 57012 81101;MET056LEMG 1500Z 15004KT 9999 FEW035 FEW150 12/06 Q1026 NOSIG;EQDQ01+000000PRSWM2
0143084820999992000010216004+36670-004480FM-15+0007LEMG V0201501N002112200019N0112651N1+01201+00701999999ADDGA1021+012009999GF102991999999999999999999MA1102611999999MW1001REMMET049LEMG 1600Z 15004KT 9999 FEW040 12/07 Q1026 NOSIG;EQDQ01+000000PRSWM2
0095084820999992000010217004+36670-004480FM-15+0007LEMG V0201601N00151220001CN0099001N1+01201+00601999999ADDMA1102611999999MW1001REMMET043LEMG 1700Z 16003KT CAVOK 12/06 Q1026 NOSIG;EQDQ01+000000PRSWM2
0251084820999992000010218004+36670-004480SY-MT+0007LEMG V0201601N001012200019N0250001N1+01141+00901102681ADDAA106000091GF100991001001999999001001KA1999M+01501MA1102611102591MD1610011+9999MW1001REMSYN070AAXX  02184 08482 32975 01602 10114 20090 30259 40268 56001 333 10150;MET043LEMG 1800Z 16002KT CAVOK 10/06 Q1026 NOSIG;EQDQ01+000000PRSWM2Q02  00002PRCP06
0094084820999992000010219004+36670-004480FM-15+0007LEMG V0202001N001512200019N0112651N1+00701+00401999999ADDMA1102611999999MW1001REMMET042LEMG 1900Z 20003KT 9999 07/04 Q1026 NOSIG;EQDQ01+000000PRSWM2
0095084820999992000010220004+36670-004480FM-15+0007LEMG V0201901N00051220001CN0099001N1+00701+00501999999ADDMA1102611999999MW1001REMMET043LEMG 2000Z 19001KT CAVOK 07/05 Q1026 NOSIG;EQDQ01+000000PRSWM2
0245084820999992000010221004+36670-004480SY-MT+0007LEMG V0202801N001010075019N0100001N1+00901+00731102761ADDGA1071+007509999GF199999061051008001001001MA1102711102671MD1210081+9999MW1001REMSYN066AAXX  02214 08482 42560 62802 10090 20073 30267 40276 52008 86500;MET049LEMG 2100Z 28002KT 9999 BKN025 07/04 Q1027 NOSIG;EQDQ01+000062SCOTCVQ02+000000PRSWM2
0143084820999992000010222004+36670-004480FM-15+0007LEMG V0203001N002110081019N0112651N1+00801+00401999999ADDGA1071+008109999GF107991999999999999999999MA1102711999999MW1001REMMET049LEMG 2200Z 30004KT 9999 BKN027 08/04 Q1027 NOSIG;EQDQ01+000000PRSWM2
0143084820999992000010223004+36670-004480FM-15+0007LEMG V0203201N002110084019N0112651N1+00601+00301999999ADDGA1071+008409999GF107991999999999999999999MA1102811999999MW1001REMMET049LEMG 2300Z 32004KT 9999 BKN028 06/03 Q1028 NOSIG;EQDQ01+000000PRSWM2
0272084820999992000010300004+36670-004480SY-MT+0007LEMG V0203301N00151009901CN0100001N1+00821+00691102811ADDAA106000091GA1071+009909999GF199999061051008001001001MA1102811102721MD1110051+9999MW1001REMSYN066AAXX  03004 08482 32560 63303 10082 20069 30272 40281 51005 86500;MET049LEMG 0000Z 33003KT 9999 BKN033 06/03 Q1028 NOSIG;EQDQ01+000062SCOTCVQ02+000000PRSWM2Q03  00002PRCP06
0143084820999992000010301004+36670-004480FM-15+0007LEMG V0203001N005110114019N0112651N1+00601+00401999999ADDGA1071+011409999GF107991999999999999999999MA1102711999999MW1001REMMET049LEMG 0100Z 30010KT 9999 BKN038 06/04 Q1027 NOSIG;EQDQ01+000000PRSWM2
0143084820999992000010301304+36670-004480FM-15+0007LEMG V0203201N002610105019N0112651N1+00601+00401999999ADDGA1071+010509999GF107991999999999999999999MA1102711999999MW1001REMMET049LEMG 0230Z 32005KT 9999 BKN035 06/04 Q1027 NOSIG;EQDQ01+000000PRSWM2
0245084820999992000010303004+36670-004480SY-MT+0007LEMG V0203001N004110120019N0100001N1+00861+00691102751ADDGA1071+012009999GF199999061051012501001001MA1102711102661MD1810061+9999MW1001REMSYN066AAXX  03034 08482 42660 63008 10086 20069 30266 40275 58006 86500;MET049LEMG 0300Z 30008KT 9999 BKN040 06/04 Q1027 NOSIG;EQDQ01+000062SCOTCVQ02+000000PRSWM2
0143084820999992000010304004+36670-004480FM-15+0007LEMG V0203201N003612200019N0112651N1+00501+00301999999ADDGA1021+012009999GF102991999999999999999999MA1102711999999MW1001REMMET049LEMG 0400Z 32007KT 9999 FEW040 05/03 Q1027 NOSIG;EQDQ01+000000PRSWM2
0143084820999992000010305004+36670-004480FM-15+0007LEMG V0203101N002612200019N0112651N1+00501+00301999999ADDGA1021+012009999GF104991999999999999999999MA1102711999999MW1001REMMET049LEMG 0500Z 31005KT 9999 SCT040 05/03 Q1027 NOSIG;EQDQ01+000000PRSWM2
0272084820999992000010306004+36670-004480SY-MT+0007LEMG V0203101N003612200019N0100001N1+00701+00561102751ADDAA106000091GA1021+012009999GF199999011051012501001001MA1102711102661MD1410001+9999MW1001REMSYN066AAXX  03064 08482 32660 13107 10070 20056 30266 40275 54000 81500;MET049LEMG 0600Z 31007KT 9999 FEW040 04/02 Q1027 NOSIG;EQDQ01+000012SCOTCVQ02+000000PRSWM2Q03  00002PRCP06
0143084820999992000010307004+36670-004480FM-15+0007LEMG V0203001N003612200019N0112651N1+00401+00201999999ADDGA1021+012009999GF102991999999999999999999MA1102811999999MW1001REMMET049LEMG 0700Z 30007KT 9999 FEW040 04/02 Q1028 NOSIG;EQDQ01+000000PRSWM2
0143084820999992000010308004+36670-004480FM-15+0007LEMG V0202901N004112200019N0112651N1+00401+00301999999ADDGA1021+012009999GF102991999999999999999999MA1102811999999MW1001REMMET049LEMG 0800Z 29008KT 9999 FEW040 04/03 Q1028 NOSIG;EQDQ01+000000PRSWM2
0245084820999992000010309004+36670-004480SY-MT+0007LEMG V0203201N002612200019N0100001N1+00741+00611102951ADDGA1021+012009999GF199999011051012501001001MA1102911102861MD1210201+9999MW1001REMSYN066AAXX  03094 08482 42660 13205 10074 20061 30286 40295 52020 81500;MET049LEMG 0900Z 32005KT 9999 FEW040 06/04 Q1029 NOSIG;EQDQ01+000012SCOTCVQ02+000000PRSWM2
0143084820999992000010310004+36670-004480FM-15+0007LEMG V0203101N002612200019N0112651N1+00901+00501999999ADDGA1021+012009999GF104991999999999999999999MA1103011999999MW1001REMMET049LEMG 1000Z 31005KT 9999 SCT040 09/05 Q1030 NOSIG;EQDQ01+000000PRSWM2
0143084820999992000010311004+36670-004480FM-15+0007LEMG V0203101N002612200019N0112651N1+01201+00601999999ADDGA1021+012009999GF104991999999999999999999MA1103011999999MW1001REMMET049LEMG 1100Z 31005KT 9999 SCT040 12/06 Q1030 NOSIG;EQDQ01+000000PRSWM2
0264084820999992000010312004+36670-004480SY-MT+0007LEMG V0201201N002612200019N0150001N1+01501+00951102951ADDAA106000091GA1021+012009999GF102991021081012501001001MA1102911102861MD1010001+9999MW1001REMSYN066AAXX  03124 08482 32665 21205 10150 20095 30286 40295 50000 82800;MET057LEMG 1200Z 12005KT 080V150 9999 FEW040 13/07 Q1029 NOSIG;EQDQ01+000000PRSWM2Q02  00002PRCP06
0143084820999992000010313004+36670-004480FM-15+0007LEMG V0201101N004112200019N0112651N1+01301+00701999999ADDGA1021+012009999GF102991999999999999999999MA1102811999999MW1001REMMET049LEMG 1300Z 11008KT 9999 FEW040 13/07 Q1028 NOSIG;EQDQ01+000000PRSWM2
0143084820999992000010314004+36670-004480FM-15+0007LEMG V0201101N004112200019N0112651N1+01401+00701999999ADDGA1021+012009999GF104991999999999999999999MA1102811999999MW1001REMMET049LEMG 1400Z 11008KT 9999 SCT040 14/07 Q1028 NOSIG;EQDQ01+000000PRSWM2
0237084820999992000010315004+36670-004480SY-MT+0007LEMG V0201001N003112200019N0250001N1+01481+01021102811ADDGA1021+012009999GF102991021081012501001001MA1102711102721MD1710141+9999MW1001REMSYN066AAXX  03154 08482 42675 21006 10148 20102 30272 40281 57014 82800;MET057LEMG 1500Z 10006KT 070V130 9999 FEW040 13/07 Q1027 NOSIG;EQDQ01+000000PRSWM2
0143084820999992000010316004+36670-004480FM-15+0007LEMG V0201101N003612200019N0112651N1+01201+00601999999ADDGA1021+012009999GF102991999999999999999999MA1102711999999MW1001REMMET049LEMG 1600Z 11007KT 9999 FEW040 12/06 Q1027 NOSIG;EQDQ01+000000PRSWM2
0143084820999992000010317004+36670-004480FM-15+0007LEMG V0201101N002612200019N0112651N1+01201+00601999999ADDGA1021+012009999GF102991999999999999999999MA1102711999999MW1001REMMET049LEMG 1700Z 11005KT 9999 FEW040 12/06 Q1027 NOSIG;EQDQ01+000000PRSWM2
0279084820999992000010318004+36670-004480SY-MT+0007LEMG V0201101N001512200019N0250001N1+01301+00941102771ADDAA106000091GA1021+012009999GF102991011081012501011001KA1999M+01551MA1102711102681MD1710041+9999MW1001REMSYN076AAXX  03184 08482 32675 21103 10130 20094 30268 40277 57004 81810 333 10155;MET049LEMG 1800Z 11005KT 9999 FEW040 11/06 Q1027 NOSIG;EQDQ01+000000PRSWM2Q02  00002PRCP06
0143084820999992000010319004+36670-004480FM-15+0007LEMG V0201001N001512200019N0112651N1+01101+00701999999ADDGA1021+006609999GF104991999999999999999999MA1102811999999MW1001REMMET049LEMG 1900Z 10003KT 9999 SCT022 11/07 Q1028 NOSIG;EQDQ01+000000PRSWM2
0143084820999992000010320004+36670-004480FM-15+0007LEMG V0209999C000012200019N0112651N1+01001+00601999999ADDGA1021+006909999GF104991999999999999999999MA1102811999999MW1001REMMET049LEMG 2000Z 00000KT 9999 SCT023 10/06 Q1028 NOSIG;EQDQ01+000000PRSWM2
0252084820999992000010321004+36670-004480SY-MT+0007LEMG V0201201N003112200019N0200001N1+01361+01051102891ADDGA1021+006009999GA2021+009009999GF104991041081008001001001MA1102911102801MD1310121+9999MW1001REMSYN066AAXX  03214 08482 42570 41206 10136 20105 30280 40289 53012 84800;MET056LEMG 2100Z 12006KT 9999 FEW020 SCT030 11/07 Q1029 NOSIG;EQDQ01+000000PRSWM2
0166084820999992000010322004+36670-004480FM-15+0007LEMG V0201301N005112200019N0112651N1+01201+00701999999ADDGA1021+006009999GA2021+009009999GF104991999999999999999999MA1102911999999MW1001REMMET056LEMG 2200Z 13010KT 9999 FEW020 SCT030 12/07 Q1029 NOSIG;EQDQ01+000000PRSWM2
0166084820999992000010323004+36670-004480FM-15+0007LEMG V0201101N004612200019N0112651N1+01101+00701999999ADDGA1021+006009999GA2021+010509999GF104991999999999999999999MA1102911999999MW1001REMMET056LEMG 2300Z 11009KT 9999 FEW020 SCT035 11/07 Q1029 NOSIG;EQDQ01+000000PRSWM2
0279084820999992000010400004+36670-004480SY-MT+0007LEMG V0201101N004112200019N0200001N1+01321+01011102921ADDAA106000091GA1021+006009999GA2021+010509999GF104991041081008001001001MA1102911102831MD1110031+9999MW1001REMSYN066AAXX  04004 08482 32570 41108 10132 20101 30283 40292 51003 84800;MET056LEMG 0000Z 11008KT 9999 FEW020 SCT035 11/07 Q1029 NOSIG;EQDQ01+000000PRSWM2Q02  00002PRCP06
0182084820999992000010401004+36670-004480FM-15+0007LEMG V0201991N999992200019N0112651N1+01101+00701999999ADDGA1021+006009999GA2021+009009999GF104991999999999999999999MA1102811999999MW1001REMMET056LEMG 0100Z 19996KT 9999 FEW020 SCT030 11/07 Q1028 NOSIG;EQDQ01+004943WOSPD Q02+000000PRSWM2
0166084820999992000010402004+36670-004480FM-15+0007LEMG V0200901N002112200019N0112651N1+01001+00601999999ADDGA1021+006009999GA2021+009009999GF104991999999999999999999MA1102811999999MW1001REMMET056LEMG 0200Z 09004KT 9999 FEW020 SCT030 10/06 Q1028 NOSIG;EQDQ01+000000PRSWM2
0229084820999992000010403004+36670-004480SY-MT+0007LEMG V0200901N002112200019N0200001N1+01221+00981102851ADDGA1021+007509999GF103991031081008001001001MA1102811102761MD1610071+9999MW1001REMSYN066AAXX  04034 08482 42570 30904 10122 20098 30276 40285 56007 83800;MET049LEMG 0300Z 09004KT 9999 SCT025 10/06 Q1028 NOSIG;EQDQ01+000000PRSWM2
0143084820999992000010404004+36670-004480FM-15+0007LEMG V0200701N002112200019N0112651N1+01001+00601999999ADDGA1021+007509999GF102991999999999999999999MA1102002999999MW1001REMMET049LEMG 0400Z 07004KT 9999 FEW025 10/06 Q1020 NOSIG;EQDQ01+000000PRSWM2
0143084820999992000010405004+36670-004480FM-15+0007LEMG V0202901N001012200019N0112651N1+01001+00601999999ADDGA1021+007509999GF102991999999999999999999MA1102001999999MW1001REMMET049LEMG 0500Z 29002KT 9999 FEW025 10/06 Q1020 NOSIG;EQDQ01+000000PRSWM2
0285084820999992000010406004+36670-004480SY-MT+0007LEMG V0202701N003112200019N0150001N1+00821+00731102851ADDAA106000091GA1021+012009999GF102991011051012501031001KA1120N+00801MA1102812102761MD1410001+9999MW1001REMSYN082AAXX  04064 08482 32665 22706 10082 20073 30276 40285 54000 81530 333 20080 55078;MET049LEMG 0600Z 27006KT 9999 FEW040 07/04 Q1028 NOSIG;EQDQ01+000000PRSWM2Q02  00002PRCP06
0151084820999992000010407004+36670-004480FM-15+0007LEMG V0203201N002112200019N0112651N1+00501+00301999999ADDGA1021+012009999GF102991999999999999999999MA1102811999999MW1001REMMET057LEMG 0700Z 32004KT 290V350 9999 FEW040 05/03 Q1028 NOSIG;EQDQ01+000000PRSWM2
0143084820999992000010408004+36670-004480FM-15+0007LEMG V0202801N003612200019N0112651N1+00601+00301999999ADDGA1021+012009999GF102991999999999999999999MA1102911999999MW1001REMMET049LEMG 0800Z 28007KT 9999 FEW040 06/03 Q1029 NOSIG;EQDQ01+000000PRSWM2
0252084820999992000010409004+36670-004480SY-MT+0007LEMG V0203101N004112200019N0100001N1+00941+00771102961ADDGA1021+013509999GF103991021051012501031001KA1999N+00781MA1102911102871MD1310111+9999MW1001REMSYN076AAXX  04094 08482 42660 33108 10094 20077 30287 40296 53011 82530 333 20078;MET049LEMG 0900Z 31008KT 9999 FEW045 08/05 Q1029 NOSIG;EQDQ01+000000PRSWM2
0143084820999992000010410004+36670-004480FM-15+0007LEMG V0203001N003612200019N0112651N1+01101+00701999999ADDGA1021+013509999GF102991999999999999999999MA1103011999999MW1001REMMET049LEMG 1000Z 30007KT 9999 FEW045 11/07 Q1030 NOSIG;EQDQ01+000000PRSWM2
0143084820999992000010411004+36670-004480FM-15+0007LEMG V0202901N002612200019N0112651N1+01201+00601999999ADDGA1021+012009999GF102991999999999999999999MA1103011999999MW1001REMMET049LEMG 1100Z 29005KT 9999 FEW040 12/06 Q1030 NOSIG;EQDQ01+000000PRSWM2
0272084820999992000010412004+36670-004480SY-MT+0007LEMG V0200501N001512200019N0200001N1+99999+00821102951ADDAA106000091GA1021+010509999GF102991011011012501031001MA1102911102861MD1810011+9999MW1001REMSYN066AAXX  04124 08482 32670 20503 10500 20082 30286 40295 58001 81130;MET049LEMG 1200Z 05003KT 9999 FEW035 14/04 Q1029 NOSIG;EQDQ01+005003ATOT  Q02+000000PRSWM2Q03  00002PRCP06
0143084820999992000010413004+36670-004480FM-15+0007LEMG V0201301N002612200019N0112651N1+01401+00401999999ADDGA1021+010509999GF102991999999999999999999MA1102811999999MW1001REMMET049LEMG 1300Z 13005KT 9999 FEW035 14/04 Q1028 NOSIG;EQDQ01+000000PRSWM2
0143084820999992000010414004+36670-004480FM-15+0007LEMG V0201601N002612200019N0112651N1+01301+00501999999ADDGA1021+010509999GF102991999999999999999999MA1102811999999MW1001REMMET049LEMG 1400Z 16005KT 9999 FEW035 13/05 Q1028 NOSIG;EQDQ01+000000PRSWM2
0245084820999992000010415004+36670-004480SY-MT+0007LEMG V0201601N002112200019N0200001N1+01561+00981102781ADDGA1021+010509999GF102991999011012501001001MA1102711102701MD1710161+9999MW1001REMSYN066AAXX  04154 08482 42670 21604 10156 20098 30270 40278 57016 81100;MET049LEMG 1500Z 16004KT 9999 FEW035 14/06 Q1027 NOSIG;EQDQ01+000012SCOTLCQ02+000000PRSWM2
0143084820999992000010416004+36670-004480FM-15+0007LEMG V0201401N002112200019N0112651N1+01301+00601999999ADDGA1021+012009999GF102991999999999999999999MA1102711999999MW1001REMMET049LEMG 1600Z 14004KT 9999 FEW040 13/06 Q1027 NOSIG;EQDQ01+000000PRSWM2
0143084820999992000010417004+36670-004480FM-15+0007LEMG V0201401N001512200019N0112651N1+01201+00601999999ADDGA1021+013509999GF102991999999999999999999MA1102711999999MW1001REMMET049LEMG 1700Z 14003KT 9999 FEW045 12/06 Q1027 NOSIG;EQDQ01+000000PRSWM2
0295084820999992000010418004+36670-004480SY-MT+0007LEMG V0209999C000012200019N0150001N1+01161+00881102801ADDAA106000091GA1021+015009999GF199999011041017501001001KA1999M+01621MA1102711102711MD1310011+9999MW1001REMSYN076AAXX  04184 08482 32765 10000 10116 20088 30271 40280 53001 81400 333 10162;MET049LEMG 1800Z 00000KT 9999 FEW050 10/05 Q1027 NOSIG;EQDQ01+000012SCOTCVQ02+000000PRSWM2Q03  00002PRCP06
0143084820999992000010419004+36670-004480FM-15+0007LEMG V0209999C000012200019N0112651N1+00801+00501999999ADDGA1021+015009999GF102991999999999999999999MA1102811999999MW1001REMMET049LEMG 1900Z 00000KT 9999 FEW050 08/05 Q1028 NOSIG;EQDQ01+000000PRSWM2
0143084820999992000010420004+36670-004480FM-15+0007LEMG V0202901N002112200019N0112651N1+00701+00401999999ADDGA1021+015009999GF102991999999999999999999MA1102811999999MW1001REMMET049LEMG 2000Z 29004KT 9999 FEW050 07/04 Q1028 NOSIG;EQDQ01+000000PRSWM2
0229084820999992000010421004+36670-004480SY-MT+0007LEMG V0202901N002112200019N0100001N1+00861+00691102851ADDGA1021+015009999GF102991011041017501031001MA1102811102761MD1210051+9999MW1001REMSYN066AAXX  04214 08482 42760 22904 10086 20069 30276 40285 52005 81430;MET049LEMG 2100Z 29004KT 9999 FEW050 06/03 Q1028 NOSIG;EQDQ01+000000PRSWM2
0166084820999992000010422004+36670-004480FM-15+0007LEMG V0203101N003112200019N0112651N1+00601+00301999999ADDGA1021+007509999GA2021+012009999GF104991999999999999999999MA1102811999999MW1001REMMET056LEMG 2200Z 31006KT 9999 FEW025 SCT040 06/03 Q1028 NOSIG;EQDQ01+000000PRSWM2
0150084820999992000010423004+36670-004480FM-15+0007LEMG V0203001N003612200019N0112651N1+00601+00401999999ADDGA1021+006009999GA2021+012009999GF104991999999999999999999MW1001REMMET055LEMG 2300Z 30007KT 9999 FEW020 SCT040 06/04 Q108 NOSIG;EQDQ01+000000PRSWM2
0279084820999992000010500004+36670-004480SY-MT+0007LEMG V0203101N003612200019N0100001N1+00781+00651102841ADDAA106000091GA1021+006009999GA2021+012009999GF103991031051008001001001MA1102811102751MD1810011+9999MW1001REMSYN066AAXX  05004 08482 32560 33107 10078 20065 30275 40284 58001 83500;MET056LEMG 0000Z 31007KT 9999 FEW020 SCT040 05/03 Q1028 NOSIG;EQDQ01+000000PRSWM2Q02  00002PRCP06
0166084820999992000010501004+36670-004480FM-15+0007LEMG V0203101N004112200019N0112651N1+00501+00301999999ADDGA1021+006009999GA2021+012009999GF104991999999999999999999MA1102711999999MW1001REMMET056LEMG 0100Z 31008KT 9999 FEW020 SCT040 05/03 Q1027 NOSIG;EQDQ01+000000PRSWM2
0166084820999992000010502004+36670-004480FM-15+0007LEMG V0203001N004112200019N0112651N1+00501+00301999999ADDGA1021+006009999GA2021+012009999GF104991999999999999999999MA1102711999999MW1001REMMET056LEMG 0200Z 30008KT 9999 FEW020 SCT040 05/03 Q1027 NOSIG;EQDQ01+000000PRSWM2
0252084820999992000010503004+36670-004480SY-MT+0007LEMG V0203001N003112200019N0100001N1+00701+00611102721ADDGA1021+006009999GA2021+012009999GF103991031051008001001001MA1102711102631MD1610121+9999MW1001REMSYN066AAXX  05034 08482 42560 33006 10070 20061 30263 40272 56012 83500;MET056LEMG 0300Z 30006KT 9999 FEW020 SCT040 05/03 Q1027 NOSIG;EQDQ01+000000PRSWM2
0166084820999992000010504004+36670-004480FM-15+0007LEMG V0203101N003612200019N0112651N1+00501+00301999999ADDGA1021+006009999GA2021+012009999GF104991999999999999999999MA1102611999999MW1001REMMET056LEMG 0400Z 31007KT 9999 FEW020 SCT040 05/03 Q1026 NOSIG;EQDQ01+000000PRSWM2
0166084820999992000010505004+36670-004480FM-15+0007LEMG V0203101N003112200019N0112651N1+00301+00201999999ADDGA1021+006009999GA2021+012009999GF104991999999999999999999MA1102611999999MW1001REMMET056LEMG 0500Z 31006KT 9999 FEW020 SCT040 03/02 Q1026 NOSIG;EQDQ01+000000PRSWM2
0308084820999992000010506004+36670-004480SY-MT+0007LEMG V0203001N003610075019N0100001N1+00721+00631102631ADDAA106000091GA1021+006009999GA2021+012009999GF105991051051008001001001KA1120N+00621MA1102611102541MD1810091+9999MW1001REMSYN082AAXX  05064 08482 32560 53007 10072 20063 30254 40263 58009 85500 333 20062 55085;MET056LEMG 0600Z 30007KT 9999 FEW020 SCT040 05/03 Q1026 NOSIG;EQDQ01+000000PRSWM2Q02  00002PRCP06
0166084820999992000010507004+36670-004480FM-15+0007LEMG V0203001N002612200019N0112651N1+00501+00301999999ADDGA1021+006009999GA2021+012009999GF104991999999999999999999MA1102611999999MW1001REMMET056LEMG 0700Z 30005KT 9999 FEW020 SCT040 05/03 Q1026 NOSIG;EQDQ01+000000PRSWM2
0166084820999992000010508004+36670-004480FM-15+0007LEMG V0203101N002612200019N0112651N1+00301+00201999999ADDGA1021+006009999GA2021+012009999GF104991999999999999999999MA1102611999999MW1001REMMET056LEMG 0800Z 31005KT 9999 FEW020 SCT040 03/02 Q1026 NOSIG;EQDQ01+000000PRSWM2
0269084820999992000010509004+36670-004480SY-MT+0007LEMG V0203201N002112200019N0120001N1+00801+00671102711ADDGA1021+001509999GA2021+012009999GF102991021061001501001001KA1999N+00581MA1102611102621MD1310081+9999MW1001REMSYN076AAXX  05094 08482 42262 23204 10080 20067 30262 40271 53008 82600 333 20058;MET050LEMG 0900Z 32004KT 9999 FEW005 SCT040 06/04 Q1026;EQDQ01+000000PRSWM2
0143084820999992000010510004+36670-004480FM-15+0007LEMG V0203101N002110105019N0112651N1+00901+00601999999ADDGA1071+010509999GF107991999999999999999999MA1102711999999MW1001REMMET049LEMG 1000Z 31004KT 9999 BKN035 09/06 Q1027 NOSIG;EQDQ01+000000PRSWM2
0143084820999992000010510304+36670-004480FM-15+0007LEMG V0201101N004112200019N0112651N1+01301+00701999999ADDGA1021+009009999GF104991999999999999999999MA1102611999999MW1001REMMET049LEMG 1130Z 11008KT 9999 SCT030 13/07 Q1026 NOSIG;EQDQ01+000000PRSWM2
0151084820999992000010511304+36670-004480FM-15+0007LEMG V0201101N003612200019N0112651N1+01301+00701999999ADDGA1021+009009999GF104991999999999999999999MA1102511999999MW1001REMMET057LEMG 1230Z 11007KT 080V150 9999 SCT030 13/07 Q1025 NOSIG;EQDQ01+000000PRSWM2
0163084820999992000010512004+36670-004480FM-12+0007LEMG V0201001N004112200019N0150001N1+01501+00961102591ADDAA106000091GF103991031081008001001001MA1999999102511MD1810111+9999REMSYN066AAXX  05124 08482 32565 31008 10150 20096 30251 40259 58011 83800;EQDQ01  00002PRCP06
0151084820999992000010513004+36670-004480FM-15+0007LEMG V0201201N004112200019N0112651N1+01301+00701999999ADDGA1021+010509999GF104991999999999999999999MA1102511999999MW1001REMMET057LEMG 1300Z 12008KT 080V140 9999 SCT035 13/07 Q1025 NOSIG;EQDQ01+000000PRSWM2
0143084820999992000010514004+36670-004480FM-15+0007LEMG V0201301N003612200019N0112651N1+01301+00701999999ADDGA1021+010509999GF104991999999999999999999MA1102401999999MW1001REMMET049LEMG 1400Z 13007KT 9999 SCT035 13/07 Q1024 NOSIG;EQDQ01+000000PRSWM2
0229084820999992000010515004+36670-004480SY-MT+0007LEMG V0201401N003112200019N0200001N1+01501+00911102361ADDGA1021+010509999GF103991031081012501001001MA1102301102281MD1710231+9999MW1001REMSYN066AAXX  05154 08482 42670 31406 10150 20091 30228 40236 57023 83800;MET049LEMG 1500Z 14006KT 9999 SCT035 13/07 Q1023 NOSIG;EQDQ01+000000PRSWM2
0143084820999992000010516004+36670-004480FM-15+0007LEMG V0201501N002112200019N0112651N1+01301+00701999999ADDGA1021+010509999GF104991999999999999999999MA1102301999999MW1001REMMET049LEMG 1600Z 15004KT 9999 SCT035 13/07 Q1023 NOSIG;EQDQ01+000000PRSWM2
0143084820999992000010517004+36670-004480FM-15+0007LEMG V0201401N001512200019N0112651N1+01101+00601999999ADDGA1021+007509999GF102991999999999999999999MA1102301999999MW1001REMMET049LEMG 1700Z 14003KT 9999 FEW025 11/06 Q1023 NOSIG;EQDQ01+000000PRSWM2
0143084820999992000010517304+36670-004480FM-15+0007LEMG V0201901N001012200019N0112651N1+00901+00601999999ADDGA1021+010509999GF102991999999999999999999MA1102301999999MW1001REMMET049LEMG 1830Z 19002KT 9999 FEW035 09/06 Q1023 NOSIG;EQDQ01+000000PRSWM2
0143084820999992000010519004+36670-004480FM-15+0007LEMG V0201801N001012200019N0112651N1+00801+00501999999ADDGA1021+010509999GF102991999999999999999999MA1102301999999MW1001REMMET049LEMG 1900Z 18002KT 9999 FEW035 08/05 Q1023 NOSIG;EQDQ01+000000PRSWM2
0143084820999992000010519304+36670-004480FM-15+0007LEMG V0203001N001012200019N0112651N1+00701+00401999999ADDGA1021+010509999GF102991999999999999999999MA1102301999999MW1001REMMET049LEMG 2030Z 30002KT 9999 FEW035 07/04 Q1023 NOSIG;EQDQ01+000000PRSWM2
0229084820999992000010521004+36670-004480SY-MT+0007LEMG V0203201N001012200019N0120001N1+00821+00691102371ADDGA1021+010509999GF102991021011012501001001MA1102301102281MD1410001+9999MW1001REMSYN066AAXX  05214 08482 42662 23202 10082 20069 30228 40237 54000 82100;MET049LEMG 2100Z 32002KT 9999 FEW035 07/04 Q1023 NOSIG;EQDQ01+000000PRSWM2
0143084820999992000010522004+36670-004480FM-15+0007LEMG V0203101N001512200019N0112651N1+00501+00401999999ADDGA1021+007509999GF102991999999999999999999MA1102401999999MW1001REMMET049LEMG 2200Z 31003KT 9999 FEW025 05/04 Q1024 NOSIG;EQDQ01+000000PRSWM2
0166084820999992000010601004+36670-004480FM-15+0007LEMG V0203201N002112200019N0112651N1+00501+00301999999ADDGA1021+007509999GA2021+009009999GF104991999999999999999999MA1102301999999MW1001REMMET056LEMG 0100Z 32004KT 9999 FEW025 SCT030 05/03 Q1023 NOSIG;EQDQ01+000000PRSWM2
0166084820999992000010602004+36670-004480FM-15+0007LEMG V0202901N004612200019N0112651N1+00401+00301999999ADDGA1021+007509999GA2021+009009999GF104991999999999999999999MA1102201999999MW1001REMMET056LEMG 0200Z 29009KT 9999 FEW025 SCT030 04/03 Q1022 NOSIG;EQDQ01+000000PRSWM2
0252084820999992000010603004+36670-004480SY-MT+0007LEMG V0203201N004610120019N0120001N1+00641+00551102321ADDGA1021+007509999GA2021+012009999GF105991051081008001001001MA1102201102231MD1610051+9999MW1001REMSYN066AAXX  06034 08482 42562 53209 10064 20055 30223 40232 56005 85800;MET056LEMG 0300Z 32009KT 9999 FEW025 SCT040 03/02 Q1022 NOSIG;EQDQ01+000000PRSWM2
0166084820999992000010604004+36670-004480FM-15+0007LEMG V0202901N002612200019N0112651N1+00501+00301999999ADDGA1021+007509999GA2021+012009999GF104991999999999999999999MA1102201999999MW1001REMMET056LEMG 0400Z 29005KT 9999 FEW025 SCT040 05/03 Q1022 NOSIG;EQDQ01+000000PRSWM2
0166084820999992000010605004+36670-004480FM-15+0007LEMG V0203001N003612200019N0112651N1+00501+00401999999ADDGA1021+007509999GA2021+015009999GF104991999999999999999999MA1102201999999MW1001REMMET056LEMG 0500Z 30007KT 9999 FEW025 SCT050 05/04 Q1022 NOSIG;EQDQ01+000000PRSWM2
0316084820999992000010606004+36670-004480SY-MT+0007LEMG V0203101N003110120019N0120001N1+00821+00641102271ADDAA106000091GA1021+007509999GA2021+015009999GF105991051081008001001001KA1120N+00561MA1102201102181MD1710051+9999MW1001REMSYN082AAXX  06064 08482 32562 53106 10082 20064 30218 40227 57005 85800 333 20056 55085;MET064LEMG 0600Z 31006KT 280V340 9999 FEW025 SCT050 05/03 Q1022 NOSIG;EQDQ01+000000PRSWM2Q02  00002PRCP06
0166084820999992000010607004+36670-004480FM-15+0007LEMG V0203201N002610150019N0112651N1+00501+00401999999ADDGA1021+007509999GA2071+015009999GF107991999999999999999999MA1102201999999MW1001REMMET056LEMG 0700Z 32005KT 9999 FEW025 BKN050 05/04 Q1022 NOSIG;EQDQ01+000000PRSWM2
0143084820999992000010608004+36670-004480FM-15+0007LEMG V0203001N004112200019N0060001N1+00401+00301999999ADDGA1021+015009999GF102991999999999999999999MA1102301999999MW1001REMMET049LEMG 0800Z 30008KT 6000 FEW050 04/03 Q1023 NOSIG;EQDQ01+000000PRSWM2
0229084820999992000010609004+36670-004480SY-MT+0007LEMG V0203101N003612200019N0150001N1+00821+00691102391ADDGA1021+010509999GF102991021051012501001001MA1102301102301MD1310121+9999MW1001REMSYN066AAXX  06094 08482 42665 23107 10082 20069 30230 40239 53012 82500;MET049LEMG 0900Z 31007KT 9999 FEW035 06/04 Q1023 NOSIG;EQDQ01+000000PRSWM2
0143084820999992000010610004+36670-004480FM-15+0007LEMG V0203101N003112200019N0112651N1+00801+00601999999ADDGA1021+010509999GF102991999999999999999999MA1102401999999MW1001REMMET049LEMG 1000Z 31006KT 9999 FEW035 08/06 Q1024 NOSIG;EQDQ01+000000PRSWM2
0143084820999992000010611004+36670-004480FM-15+0007LEMG V0203201N001512200019N0112651N1+01101+00601999999ADDGA1021+010509999GF102991999999999999999999MA1102511999999MW1001REMMET049LEMG 1100Z 32003KT 9999 FEW035 11/06 Q1025 NOSIG;EQDQ01+000000PRSWM2
0264084820999992000010612004+36670-004480SY-MT+0007LEMG V0201201N002612200019N0200001N1+01461+00951102441ADDAA106000091GA1021+010509999GF103991031081012501001001MA1102401102361MD1210061+9999MW1001REMSYN066AAXX  06124 08482 32670 31205 10146 20095 30236 40244 52006 83800;MET057LEMG 1200Z 12005KT 080V150 9999 SCT035 13/07 Q1024 NOSIG;EQDQ01+000000PRSWM2Q02  00002PRCP06
0151084820999992000010613004+36670-004480FM-15+0007LEMG V0201201N003612200019N0112651N1+01301+00701999999ADDGA1021+009009999GF104991999999999999999999MA1102401999999MW1001REMMET057LEMG 1300Z 12007KT 080V160 9999 SCT030 13/07 Q1024 NOSIG;EQDQ01+000000PRSWM2
0143084820999992000010614004+36670-004480FM-15+0007LEMG V0201401N003112200019N0112651N1+01301+00701999999ADDGA1021+009009999GF104991999999999999999999MA1102301999999MW1001REMMET049LEMG 1400Z 14006KT 9999 SCT030 13/07 Q1023 NOSIG;EQDQ01+000000PRSWM2
0229084820999992000010615004+36670-004480SY-MT+0007LEMG V0201301N003112200019N0200001N1+01461+01001102381ADDGA1021+009009999GF104991041081012501001001MA1102301102301MD1710061+9999MW1001REMSYN066AAXX  06154 08482 42670 41306 10146 20100 30230 40238 57006 84800;MET049LEMG 1500Z 13006KT 9999 SCT030 12/06 Q1023 NOSIG;EQDQ01+000000PRSWM2
0151084820999992000010616004+36670-004480FM-15+0007LEMG V0201201N002112200019N0112651N1+01201+00601999999ADDGA1021+009009999GF102991999999999999999999MA1102401999999MW1001REMMET057LEMG 1600Z 12004KT 090V170 9999 FEW030 12/06 Q1024 NOSIG;EQDQ01+000000PRSWM2
0143084820999992000010617004+36670-004480FM-15+0007LEMG V0201301N001512200019N0112651N1+01101+00601999999ADDGA1021+010509999GF102991999999999999999999MA1102401999999MW1001REMMET049LEMG 1700Z 13003KT 9999 FEW035 11/06 Q1024 NOSIG;EQDQ01+000000PRSWM2
0166084820999992000010620004+36670-004480FM-15+0007LEMG V0203001N001512200019N0112651N1+00801+00501999999ADDGA1021+004509999GA2021+007509999GF104991999999999999999999MA1102511999999MW1001REMMET056LEMG 2000Z 30003KT 9999 FEW015 SCT025 08/05 Q1025 NOSIG;EQDQ01+000000PRSWM2
0201084820999992000010621004+36670-004480SY-MT+0007LEMG V0203001N003112200019N0100001N1+00861+00731102531ADDGF100991001001999999001001MA1102511102441MD1210101+9999MW1001REMSYN060AAXX  06214 08482 42960 03006 10086 20073 30244 40253 52010;MET043LEMG 2100Z 30006KT CAVOK 06/04 Q1025 NOSIG;EQDQ01+000000PRSWM2
0095084820999992000010622004+36670-004480FM-15+0007LEMG V0203101N00361220001CN0099001N1+00501+00301999999ADDMA1102511999999MW1001REMMET043LEMG 2200Z 31007KT CAVOK 05/03 Q1025 NOSIG;EQDQ01+000000PRSWM2
0095084820999992000010623004+36670-004480FM-15+0007LEMG V0202901N00311220001CN0099001N1+00501+00301999999ADDMA1102611999999MW1001REMMET043LEMG 2300Z 29006KT CAVOK 05/03 Q1026 NOSIG;EQDQ01+000000PRSWM2
0310084820999992000010700004+36670-004480SY-MT+0007LEMG V0202901N00411006001CN0080001N1+00701+00611102631ADDAA106000091AY121061AY201061GA1071+006009999GF199999051061008001001001MA1102611102541MD1110101+9999MW1101REMSYN072AAXX  07004 08482 31558 52908 10070 20061 30254 40263 51010 71020 85600;MET049LEMG 0000Z 29008KT 8000 BKN020 05/03 Q1026 NOSIG;EQDQ01+000052SCOTCVQ02+000000PRSWM2Q03  00002PRCP06Q04    003PRSWM1
0143084820999992000010701004+36670-004480FM-15+0007LEMG V0202901N004112200019N0080001N1+00501+00301999999ADDGA1021+006609999GF104991999999999999999999MA1102611999999MW1001REMMET049LEMG 0100Z 29008KT 8000 SCT022 05/03 Q1026 NOSIG;EQDQ01+000000PRSWM2
0143084820999992000010702004+36670-004480FM-15+0007LEMG V0202901N004610072019N0080001N1+00501+00301999999ADDGA1071+007209999GF107991999999999999999999MA1102611999999MW1001REMMET049LEMG 0200Z 29009KT 8000 BKN024 05/03 Q1026 NOSIG;EQDQ01+000000PRSWM2
0283084820999992000010703004+36670-004480SY-MT+0007LEMG V0203001N004110075019N0100001N1+00741+00611102611ADDAY141031AY211031GA1071+007509999GF199999061051008001001001MA1102611102521MD1510021+9999MW1021REMSYN072AAXX  07034 08482 41560 63008 10074 20061 30252 40261 55002 70241 86500;MET049LEMG 0300Z 30008KT 9999 BKN025 05/03 Q1026 NOSIG;EQDQ01+000062SCOTCVQ02+000000PRSWM2Q03    003PRSWM1
0143084820999992000010704004+36670-004480FM-15+0007LEMG V0203101N003610066019N0112651N1+00301+00201999999ADDGA1071+006609999GF107991999999999999999999MA1102511999999MW1001REMMET049LEMG 0400Z 31007KT 9999 BKN022 03/02 Q1025 NOSIG;EQDQ01+000000PRSWM2
0143084820999992000010705004+36670-004480FM-15+0007LEMG V0203101N003610072019N0112651N1+00301+00201999999ADDGA1071+007209999GF107991999999999999999999MA1102511999999MW1001REMMET049LEMG 0500Z 31007KT 9999 BKN024 03/02 Q1025 NOSIG;EQDQ01+000000PRSWM2
0285084820999992000010706004+36670-004480SY-MT+0007LEMG V0203001N004112200019N0100001N1+00561+00421102611ADDAA106000091GA1021+007509999GF102991021051008001001001KA1120N+00541MA1102611102521MD1410001+9999MW1001REMSYN082AAXX  07064 08482 32560 23008 10056 20042 30252 40261 54000 82500 333 20054 55077;MET049LEMG 0600Z 30008KT 9999 FEW025 03/02 Q1026 NOSIG;EQDQ01+000000PRSWM2Q02  00002PRCP06
0143084820999992000010707004+36670-004480FM-15+0007LEMG V0203001N005112200019N0112651N1+00401+00201999999ADDGA1021+006009999GF102991999999999999999999MA1102611999999MW1001REMMET049LEMG 0700Z 30010KT 9999 FEW020 04/02 Q1026 NOSIG;EQDQ01+000000PRSWM2
0143084820999992000010708004+36670-004480FM-15+0007LEMG V0202901N005112200019N0112651N1+00201+00101999999ADDGA1021+006609999GF104991999999999999999999MA1102611999999MW1001REMMET049LEMG 0800Z 29010KT 9999 SCT022 02/01 Q1026 NOSIG;EQDQ01+000000PRSWM2
0268084820999992000010709004+36670-004480SY-MT+0007LEMG V0203001N004612200019N0120001N1+00681+00501102721ADDGA1021+007509999GF199999011051008001001001KA1999N+00501MA1102711102631MD1210111+9999MW1001REMSYN076AAXX  07094 08482 42562 13009 10068 20050 30263 40272 52011 81500 333 20050;MET049LEMG 0900Z 30009KT 9999 FEW025 05/03 Q1027 NOSIG;EQDQ01+000012SCOTCVQ02+000000PRSWM2
0143084820999992000010710004+36670-004480FM-15+0007LEMG V0203101N004112200019N0112651N1+00701+00501999999ADDGA1021+009009999GF102991999999999999999999MA1102711999999MW1001REMMET049LEMG 1000Z 31008KT 9999 FEW030 07/05 Q1027 NOSIG;EQDQ01+000000PRSWM2
0143084820999992000010711004+36670-004480FM-15+0007LEMG V0203101N003112200019N0112651N1+01001+00601999999ADDGA1021+009009999GF102991999999999999999999MA1102711999999MW1001REMMET049LEMG 1100Z 31006KT 9999 FEW030 10/06 Q1027 NOSIG;EQDQ01+000000PRSWM2
0272084820999992000010712004+36670-004480SY-MT+0007LEMG V0200901N000512200019N0150001N1+01441+00931102681ADDAA106000091GA1021+009009999GF199999011051008001001001MA1102611102601MD1810031+9999MW1001REMSYN066AAXX  07124 08482 32565 10901 10144 20093 30260 40268 58003 81500;MET049LEMG 1200Z 09001KT 9999 FEW030 13/05 Q1026 NOSIG;EQDQ01+000012SCOTCVQ02+000000PRSWM2Q03  00002PRCP06
0143084820999992000010713004+36670-004480FM-15+0007LEMG V0201501N001512200019N0112651N1+01301+00601999999ADDGA1021+009009999GF102991999999999999999999MA1102611999999MW1001REMMET049LEMG 1300Z 15003KT 9999 FEW030 13/06 Q1026 NOSIG;EQDQ01+000000PRSWM2
0143084820999992000010714004+36670-004480FM-15+0007LEMG V0201301N001512200019N0112651N1+01301+00701999999ADDGA1021+009009999GF102991999999999999999999MA1102511999999MW1001REMMET049LEMG 1400Z 13003KT 9999 FEW030 13/07 Q1025 NOSIG;EQDQ01+000000PRSWM2
0253084820999992000010715004+36670-004480SY-MT+0007LEMG V0201101N002612200019N0200001N1+01521+01061102541ADDGA1021+009009999GF199999011051008001001001MA1102511102461MD1710141+9999MW1001REMSYN066AAXX  07154 08482 42570 11105 10152 20106 30246 40254 57014 81500;MET057LEMG 1500Z 11005KT 070V130 9999 FEW030 13/07 Q1025 NOSIG;EQDQ01+000012SCOTCVQ02+000000PRSWM2
0143084820999992000010716004+36670-004480FM-15+0007LEMG V0201301N002612200019N0112651N1+01301+00701999999ADDGA1021+009009999GF102991999999999999999999MA1102511999999MW1001REMMET049LEMG 1600Z 13005KT 9999 FEW030 13/07 Q1025 NOSIG;EQDQ01+000000PRSWM2
0143084820999992000010717004+36670-004480FM-15+0007LEMG V0201101N002112200019N0112651N1+01201+00601999999ADDGA1021+009009999GF102991999999999999999999MA1102511999999MW1001REMMET049LEMG 1700Z 11004KT 9999 FEW030 12/06 Q1025 NOSIG;EQDQ01+000000PRSWM2
0295084820999992000010718004+36670-004480SY-MT+0007LEMG V0201401N000512200019N0120001N1+01181+00941102521ADDAA106000091GA1021+009009999GF199999011051008001001001KA1999M+01561MA1102401102431MD1610031+9999MW1001REMSYN076AAXX  07184 08482 32562 11401 10118 20094 30243 40252 56003 81500 333 10156;MET049LEMG 1800Z 14001KT 9999 FEW030 10/06 Q1024 NOSIG;EQDQ01+000012SCOTCVQ02+000000PRSWM2Q03  00002PRCP06
0143084820999992000010719004+36670-004480FM-15+0007LEMG V0202901N001012200019N0112651N1+00801+00501999999ADDGA1021+009009999GF102991999999999999999999MA1102511999999MW1001REMMET049LEMG 1900Z 29002KT 9999 FEW030 08/05 Q1025 NOSIG;EQDQ01+000000PRSWM2
0143084820999992000010719304+36670-004480FM-15+0007LEMG V0203101N002612200019N0112651N1+00501+00301999999ADDGA1021+009009999GF102991999999999999999999MA1102511999999MW1001REMMET049LEMG 2030Z 31005KT 9999 FEW030 05/03 Q1025 NOSIG;EQDQ01+000000PRSWM2
0201084820999992000010721004+36670-004480SY-MT+0007LEMG V0203001N003112200019N0120001N1+00781+00651102591ADDGF100991001001999999001001MA1102511102501MD1310071+9999MW1001REMSYN060AAXX  07214 08482 42962 03006 10078 20065 30250 40259 53007;MET043LEMG 2100Z 30006KT CAVOK 06/04 Q1025 NOSIG;EQDQ01+000000PRSWM2
0095084820999992000010722004+36670-004480FM-15+0007LEMG V0203101N00361220001CN0099001N1+00401+00201999999ADDMA1102511999999MW1001REMMET043LEMG 2200Z 31007KT CAVOK 04/02 Q1025 NOSIG;EQDQ01+000000PRSWM2
0095084820999992000010723004+36670-004480FM-15+0007LEMG V0202901N00411220001CN0099001N1+00501+00201999999ADDMA1102611999999MW1001REMMET043LEMG 2300Z 29008KT CAVOK 05/02 Q1026 NOSIG;EQDQ01+000000PRSWM2
0256084820999992000010800004+36670-004480SY-MT+0007LEMG V0203001N004112200019N0120001N1+00661+00471102601ADDAA106000091GA1021+007509999GF104991041061008001001001MA1102611102511MD1210011+9999MW1001REMSYN066AAXX  08004 08482 32562 43008 10066 20047 30251 40260 52001 84600;MET049LEMG 0000Z 30008KT 9999 SCT025 04/02 Q1026 NOSIG;EQDQ01+000000PRSWM2Q02  00002PRCP06
0143084820999992000010801004+36670-004480FM-15+0007LEMG V0203001N003610075019N0112651N1+00501+00201999999ADDGA1071+007509999GF107991999999999999999999MA1102511999999MW1001REMMET049LEMG 0100Z 30007KT 9999 BKN025 05/02 Q1025 NOSIG;EQDQ01+000000PRSWM2
0143084820999992000010802004+36670-004480FM-15+0007LEMG V0203101N003610075019N0112651N1+00401+00201999999ADDGA1071+007509999GF107991999999999999999999MA1102511999999MW1001REMMET049LEMG 0200Z 31007KT 9999 BKN025 04/02 Q1025 NOSIG;EQDQ01+000000PRSWM2
0245084820999992000010803004+36670-004480SY-MT+0007LEMG V0203101N003610075019N0120001N1+00641+00501102561ADDGA1071+007509999GF199999061061008001001001MA1102511102471MD1810041+9999MW1001REMSYN066AAXX  08034 08482 42562 63107 10064 20050 30247 40256 58004 86600;MET049LEMG 0300Z 31007KT 9999 BKN025 04/02 Q1025 NOSIG;EQDQ01+000062SCOTCVQ02+000000PRSWM2
0143084820999992000010804004+36670-004480FM-15+0007LEMG V0203101N004110075019N0112651N1+00301+00201999999ADDGA1071+007509999GF107991999999999999999999MA1102511999999MW1001REMMET049LEMG 0400Z 31008KT 9999 BKN025 03/02 Q1025 NOSIG;EQDQ01+000000PRSWM2
0143084820999992000010804304+36670-004480FM-15+0007LEMG V0202901N004110075019N0112651N1+00201+00001999999ADDGA1071+007509999GF107991999999999999999999MA1102511999999MW1001REMMET049LEMG 0530Z 29008KT 9999 BKN025 02/00 Q1025 NOSIG;EQDQ01+000000PRSWM2
0285084820999992000010806004+36670-004480SY-MT+0007LEMG V0203001N004612200019N0120001N1+00401+00301102561ADDAA106000091GA1021+007509999GF102991021061008001001001KA1120N+00401MA1102511102471MD1410001+9999MW1001REMSYN082AAXX  08064 08482 32562 23009 10040 20030 30247 40256 54000 82600 333 20040 55086;MET049LEMG 0600Z 30009KT 9999 FEW025 02/00 Q1025 NOSIG;EQDQ01+000000PRSWM2Q02  00002PRCP06
0143084820999992000010807004+36670-004480FM-15+0007LEMG V0202901N004612200019N0112651N1+00301+00101999999ADDGA1021+007509999GF102991999999999999999999MA1102511999999MW1001REMMET049LEMG 0700Z 29009KT 9999 FEW025 03/01 Q1025 NOSIG;EQDQ01+000000PRSWM2
0143084820999992000010808004+36670-004480FM-15+0007LEMG V0203001N005112200019N0090001N1+00201+00001999999ADDGA1021+010509999GF102991999999999999999999MA1102611999999MW1001REMMET049LEMG 0800Z 30010KT 9000 FEW035 02/00 Q1026 NOSIG;EQDQ01+000000PRSWM2
0143084820999992000010809004+36670-004480FM-15+0007LEMG V0203101N004112200019N0060001N1+00301+00201999999ADDGA1021+007509999GF102991999999999999999999MA1102611999999MW1001REMMET049LEMG 0900Z 31008KT 6000 FEW025 03/02 Q1026 NOSIG;EQDQ01+000000PRSWM2
0143084820999992000010810004+36670-004480FM-15+0007LEMG V0203001N004112200019N0060001N1+00601+00301999999ADDGA1021+012009999GF102991999999999999999999MA1102711999999MW1001REMMET049LEMG 1000Z 30008KT 6000 FEW040 06/03 Q1027 NOSIG;EQDQ01+000000PRSWM2
0143084820999992000010811004+36670-004480FM-15+0007LEMG V0203001N002612200019N0070001N1+01001+00501999999ADDGA1021+012009999GF102991999999999999999999MA1102611999999MW1001REMMET049LEMG 1100Z 30005KT 7000 FEW040 10/05 Q1026 NOSIG;EQDQ01+000000PRSWM2
0310084820999992000010812004+36670-004480SY-MT+0007LEMG V0209999C000012200019N0080001N1+01361+00931102631ADDAA106000091AY101061AY201061GA1021+012009999GF199999011051012501031001MA1102611102541MD1810011+9999MW1051REMSYN072AAXX  08124 08482 31658 10000 10136 20093 30254 40263 58001 70500 81530;MET049LEMG 1200Z 00000KT 8000 FEW040 12/06 Q1026 NOSIG;EQDQ01+000012SCOTCVQ02+000000PRSWM2Q03  00002PRCP06Q04    003PRSWM1
0143084820999992000010813004+36670-004480FM-15+0007LEMG V0201301N003112200019N0080001N1+01201+00601999999ADDGA1021+012009999GF102991999999999999999999MA1102511999999MW1001REMMET049LEMG 1300Z 13006KT 8000 FEW040 12/06 Q1025 NOSIG;EQDQ01+000000PRSWM2
0143084820999992000010814004+36670-004480FM-15+0007LEMG V0201401N003112200019N0112651N1+01201+00601999999ADDGA1021+012009999GF102991999999999999999999MA1102401999999MW1001REMMET049LEMG 1400Z 14006KT 9999 FEW040 12/06 Q1024 NOSIG;EQDQ01+000000PRSWM2
0253084820999992000010815004+36670-004480SY-MT+0007LEMG V0201601N003112200019N0120001N1+01461+01041102461ADDGA1021+012009999GF199999011051012501001011MA1102401102381MD1610161+9999MW1001REMSYN066AAXX  08154 08482 42662 11606 10146 20104 30238 40246 56016 81501;MET057LEMG 1500Z 16006KT 130V190 9999 FEW040 13/06 Q1024 NOSIG;EQDQ01+000012SCOTCVQ02+000000PRSWM2
0103084820999992000010816004+36670-004480FM-15+0007LEMG V0201601N00311220001CN0099001N1+01201+00701999999ADDMA1102401999999MW1001REMMET051LEMG 1600Z 16006KT 130V190 CAVOK 12/07 Q1024 NOSIG;EQDQ01+000000PRSWM2
0095084820999992000010817004+36670-004480FM-15+0007LEMG V0201501N00311220001CN0099001N1+01101+00601999999ADDMA1102401999999MW1001REMMET043LEMG 1700Z 15006KT CAVOK 11/06 Q1024 NOSIG;EQDQ01+000000PRSWM2
0257084820999992000010818004+36670-004480SY-MT+0007LEMG V0201501N001512200019N0100001N1+01201+01001102451ADDAA106000091GF101991001001999999001011KA1999M+01501MA1102401102361MD1610021+9999MW1001REMSYN076AAXX  08184 08482 32960 11503 10120 20100 30236 40245 56002 80001 333 10150;MET043LEMG 1800Z 15003KT CAVOK 10/06 Q1024 NOSIG;EQDQ01+000000PRSWM2Q02  00002PRCP06
0095084820999992000010819004+36670-004480FM-15+0007LEMG V0203301N00101220001CN0099001N1+00801+00501999999ADDMA1102401999999MW1001REMMET043LEMG 1900Z 33002KT CAVOK 08/05 Q1024 NOSIG;EQDQ01+000000PRSWM2
0095084820999992000010820004+36670-004480FM-15+0007LEMG V0202901N00211220001CN0099001N1+00601+00401999999ADDMA1102511999999MW1001REMMET043LEMG 2000Z 29004KT CAVOK 06/04 Q1025 NOSIG;EQDQ01+000000PRSWM2
0207084820999992000010821004+36670-004480SY-MT+0007LEMG V0203001N002112200019N0100001N1+00761+00671102511ADDGF101991001001999999001011MA1102511102421MD1310061+9999MW1001REMSYN066AAXX  08214 08482 42960 13004 10076 20067 30242 40251 53006 80001;MET043LEMG 2100Z 30004KT CAVOK 05/04 Q1025 NOSIG;EQDQ01+000000PRSWM2
0095084820999992000010822004+36670-004480FM-15+0007LEMG V0203001N00311220001CN0099001N1+00501+00401999999ADDMA1102511999999MW1001REMMET043LEMG 2200Z 30006KT CAVOK 05/04 Q1025 NOSIG;EQDQ01+000000PRSWM2
0095084820999992000010823004+36670-004480FM-15+0007LEMG V0202901N00411220001CN0099001N1+00501+00301999999ADDMA1102511999999MW1001REMMET043LEMG 2300Z 29008KT CAVOK 05/03 Q1025 NOSIG;EQDQ01+000000PRSWM2
0269084820999992000010900004+36670-004480SY-MT+0007LEMG V0203001N003112200019N0070001N1+00541+00491102531ADDAA106000091AY101061AY201061GF100991001001999999001001MA1102511102441MD1110021+9999MW1101REMSYN066AAXX  09004 08482 31957 03006 10054 20049 30244 40253 51002 71000;MET046LEMG 0000Z 30006KT 7000 SKC 03/02 Q1025 NOSIG;EQDQ01+000000PRSWM2Q02  00002PRCP06Q03    003PRSWM1
0124084820999992000010901004+36670-004480FM-15+0007LEMG V0203001N003612200019N0070001N1+00301+00201999999ADDGF100991999999999999999999MA1102401999999MW1001REMMET046LEMG 0100Z 30007KT 7000 SKC 03/02 Q1024 NOSIG;EQDQ01+000000PRSWM2
0124084820999992000010902004+36670-004480FM-15+0007LEMG V0203001N004112200019N0070001N1+00301+00201999999ADDGF100991999999999999999999MA1102511999999MW1001REMMET046LEMG 0200Z 30008KT 7000 SKC 03/02 Q1025 NOSIG;EQDQ01+000000PRSWM2
0242084820999992000010903004+36670-004480SY-MT+0007LEMG V0203001N004112200019N0080001N1+00401+00301102491ADDAY101031AY201031GF100991001001999999001001MA1102401102401MD1810041+9999MW1101REMSYN066AAXX  09034 08482 41958 03008 10040 20030 30240 40249 58004 71000;MET046LEMG 0300Z 30008KT 8000 SKC 02/01 Q1024 NOSIG;EQDQ01+000000PRSWM2Q02    003PRSWM1
0124084820999992000010904004+36670-004480FM-15+0007LEMG V0203001N003612200019N0080001N1+00201+00001999999ADDGF100991999999999999999999MA1102401999999MW1001REMMET046LEMG 0400Z 30007KT 8000 SKC 02/00 Q1024 NOSIG;EQDQ01+000000PRSWM2
0124084820999992000010905004+36670-004480FM-15+0007LEMG V0202901N004612200019N0070001N1+00101+00001999999ADDGF100991999999999999999999MA1102401999999MW1001REMMET046LEMG 0500Z 29009KT 7000 SKC 01/00 Q1024 NOSIG;EQDQ01+000000PRSWM2
0125084820999992000010907004+36670-004480FM-15+0007LEMG V0203001N004112200019N0070001N1+00101-00101999999ADDGF100991999999999999999999MA1102401999999MW1001REMMET047LEMG 0700Z 30008KT 7000 SKC 01/M01 Q1024 NOSIG;EQDQ01+000000PRSWM2
0096084820999992000010908004+36670-004480FM-15+0007LEMG V0203201N00361220001CN0099001N1+00001-00201999999ADDMA1102401999999MW1001REMMET044LEMG 0800Z 32007KT CAVOK 00/M02 Q1024 NOSIG;EQDQ01+000000PRSWM2
0230084820999992000010909004+36670-004480SY-MT+0007LEMG V0203201N005112200019N0100001N1+00541+00291102511ADDGF101991001001999999001011KA1999N+00301MA1102511102421MD1110031+9999MW1001REMSYN076AAXX  09094 08482 42960 13210 10054 20029 30242 40251 51003 80001 333 20030;MET043LEMG 0900Z 32010KT CAVOK 05/02 Q1025 NOSIG;EQDQ01+000000PRSWM2
0095084820999992000010910004+36670-004480FM-15+0007LEMG V0202901N00671220001CN0099001N1+01001+00201999999ADDMA1102511999999MW1001REMMET043LEMG 1000Z 29013KT CAVOK 10/02 Q1025 NOSIG;EQDQ01+000000PRSWM2
0095084820999992000010911004+36670-004480FM-15+0007LEMG V0203001N00671220001CN0099001N1+01201+00101999999ADDMA1102401999999MW1001REMMET043LEMG 1100Z 30013KT CAVOK 12/01 Q1024 NOSIG;EQDQ01+000000PRSWM2
0234084820999992000010912004+36670-004480SY-MT+0007LEMG V0202901N005712200019N0150001N1+01501+00731102441ADDAA106000091GF103991001001999999001051MA1102301102361MD1810061+9999MW1001REMSYN066AAXX  09124 08482 32965 32911 10150 20073 30236 40244 58006 80005;MET043LEMG 1200Z 29011KT CAVOK 13/02 Q1023 NOSIG;EQDQ01+000000PRSWM2Q02  00002PRCP06
0095084820999992000010913004+36670-004480FM-15+0007LEMG V0203101N00671220001CN0099001N1+01401+00101999999ADDMA1102201999999MW1001REMMET043LEMG 1300Z 31013KT CAVOK 14/01 Q1022 NOSIG;EQDQ01+000000PRSWM2
0095084820999992000010914004+36670-004480FM-15+0007LEMG V0203001N00571220001CN0099001N1+01501+00001999999ADDMA1102201999999MW1001REMMET043LEMG 1400Z 30011KT CAVOK 15/00 Q1022 NOSIG;EQDQ01+000000PRSWM2
0207084820999992000010915004+36670-004480SY-MT+0007LEMG V0202901N005719999999N0200001N1+01741+00791102221ADDGF105991001001999999001091MA1102101102141MD1710221+9999MW1001REMSYN066AAXX  09154 08482 42970 52911 10174 20079 30214 40222 57022 80009;MET043LEMG 1500Z 29011KT CAVOK 16/01 Q1021 NOSIG;EQDQ01+000000PRSWM2
0095084820999992000010916004+36670-004480FM-15+0007LEMG V0203401N00361220001CN0099001N1+01401+00001999999ADDMA1102201999999MW1001REMMET043LEMG 1600Z 34007KT CAVOK 14/00 Q1022 NOSIG;EQDQ01+000000PRSWM2
0095084820999992000010917004+36670-004480FM-15+0007LEMG V0203201N00461220001CN0099001N1+01301+00001999999ADDMA1102201999999MW1001REMMET043LEMG 1700Z 32009KT CAVOK 13/00 Q1022 NOSIG;EQDQ01+000000PRSWM2
0095084820999992000010917304+36670-004480FM-15+0007LEMG V0202701N00311220001CN0099001N1+01101+00101999999ADDMA1102201999999MW1001REMMET043LEMG 1830Z 27006KT CAVOK 11/01 Q1022 NOSIG;EQDQ01+000000PRSWM2
0186084820999992000010918004+36670-004480FM-12+0007LEMG V0203101N005712200019N0150001N1+01361+00701102201ADDAA106000091GF104991001001999999001051KA1999M+01801MA1999999102121MD1810021+9999REMSYN076AAXX  09184 08482 32965 43111 10136 20070 30212 40220 58002 80005 333 10180;EQDQ01  00002PRCP06
0095084820999992000010919004+36670-004480FM-15+0007LEMG V0202901N00411220001CN0099001N1+01001+00201999999ADDMA1102201999999MW1001REMMET043LEMG 1900Z 29008KT CAVOK 10/02 Q1022 NOSIG;EQDQ01+000000PRSWM2
0095084820999992000010920004+36670-004480FM-15+0007LEMG V0203101N00411220001CN0099001N1+01001+00101999999ADDMA1102201999999MW1001REMMET043LEMG 2000Z 31008KT CAVOK 10/01 Q1022 NOSIG;EQDQ01+000000PRSWM2
0229084820999992000010921004+36670-004480SY-MT+0007LEMG V0203001N005112200019N0150001N1+01181+00671102271ADDGA1021+009009999GF102991021061012501001001MA1102201102281MD1010071+9999MW1001REMSYN066AAXX  09214 08482 42665 23010 10118 20067 30228 40227 50007 82600;MET049LEMG 2100Z 30009KT 9999 FEW030 09/02 Q1022 NOSIG;EQDQ01+000000PRSWM2
0166084820999992000010922004+36670-004480FM-15+0007LEMG V0202901N005712200019N0112651N1+01001+00301999999ADDGA1021+009009999GA2021+033009999GF104991999999999999999999MA1102201999999MW1001REMMET056LEMG 2200Z 29011KT 9999 FEW030 SCT110 10/03 Q1022 NOSIG;EQDQ01+000000PRSWM2
0166084820999992000010923004+36670-004480FM-15+0007LEMG V0203001N007712200019N0112651N1+00901+00201999999ADDGA1021+009009999GA2021+018009999GF104991999999999999999999MA1102201999999MW1001REMMET056LEMG 2300Z 30015KT 9999 FEW030 SCT060 09/02 Q1022 NOSIG;EQDQ01+000000PRSWM2
0279084820999992000011000004+36670-004480SY-MT+0007LEMG V0203001N005112200019N0150001N1+01141+00771102231ADDAA106000091GA1021+009009999GA2021+024009999GF104991021061012501011001MA1102201102141MD1810051+9999MW1001REMSYN066AAXX  10004 08482 32665 43010 10114 20077 30214 40223 58005 82610;MET056LEMG 0000Z 30010KT 9999 FEW030 SCT080 09/02 Q1022 NOSIG;EQDQ01+000000PRSWM2Q02  00002PRCP06
0166084820999992000011001004+36670-004480FM-15+0007LEMG V0202901N006712200019N0112651N1+00801+00201999999ADDGA1021+010509999GA2021+018009999GF104991999999999999999999MA1102101999999MW1001REMMET056LEMG 0100Z 29013KT 9999 FEW035 SCT065 08/02 Q1021 NOSIG;EQDQ01+000000PRSWM2
0143084820999992000011002004+36670-004480FM-15+0007LEMG V0202801N006712200019N0112651N1+00801+00201999999ADDGA1021+010509999GF102991999999999999999999MA1102101999999MW1001REMMET049LEMG 0200Z 28013KT 9999 FEW035 08/02 Q1021 NOSIG;EQDQ01+000000PRSWM2
0252084820999992000011003004+36670-004480SY-MT+0007LEMG V0202801N008212200019N0150001N1+01001+00751102101ADDGA1021+010509999GA2021+024009999GF103991011061012501011001MA1102101102021MD1710121+9999MW1001REMSYN066AAXX  10034 08482 42665 32816 10100 20075 30202 40210 57012 81610;MET056LEMG 0300Z 28016KT 9999 FEW035 FEW080 08/02 Q1021 NOSIG;EQDQ01+000000PRSWM2
0166084820999992000011004004+36670-004480FM-15+0007LEMG V0202801N007212200019N0112651N1+00801+00301999999ADDGA1021+010509999GA2021+018009999GF104991999999999999999999MA1102001999999MW1001REMMET056LEMG 0400Z 28014KT 9999 FEW035 SCT060 08/03 Q1020 NOSIG;EQDQ01+000000PRSWM2
0166084820999992000011005004+36670-004480FM-15+0007LEMG V0202901N005712200019N0112651N1+00801+00301999999ADDGA1021+010509999GA2021+018009999GF104991999999999999999999MA1102001999999MW1001REMMET056LEMG 0500Z 29011KT 9999 FEW035 SCT060 08/03 Q1020 NOSIG;EQDQ01+000000PRSWM2
0206084820999992000011005154+36670-004480FM-16+0007LEMG V0202801N005710180019N0112651N1+00801+00301999999ADDGA1021+009009099GA2021+009009999GA3071+018009999GF107991999999999999999999MA1102001999999MW1171REMMET064LEMG 100515Z 28011KT 9999 TS FEW030CB SCT030 BKN060 08/03 Q1020;EQDQ01+000003PRSWM1Q02    003PRSWM1
0348084820999992000011006004+36670-004480SY-MT+0007LEMG V0203101N00771018001CN0120001N1+00961+00841102091ADDAA112000791AY191061AY261061GA1021+003009999GA2021+009009999GA3081+018009999GF108991031031002501021001KA1120N+00961MA1102001102001MD1710021+9999MW1951REMSYN094AAXX  10064 08482 11362 83115 10096 20084 30200 40209 57002 69902 79596 83320 333 20096 55073;MET068LEMG 0600Z 31015KT 9999 TSRA FEW010 SCT030 OVC060 08/04 Q1020 NOSIG;EQDQ01    003PRSWM1
0218084820999992000011007004+36670-004480FM-15+0007LEMG V0203101N006210180019N0080001N1+00601+00401999999ADDGA1021+003009099GA2021+009009999GA3071+018009999GF107991999999999999999999MA1102101999999MW1811MW2951REMMET070LEMG 0700Z 31012KT 8000 TSRA FEW010CB SCT030 BKN060 06/04 Q1021 NOSIG;EQDQ01+000003PRSWM1Q02    003PRSWM1
0195084820999992000011007454+36670-004480FM-15+0007LEMG V0202701N003610090019N0090001N1+00601+00401999999ADDGA1021+006009099GA2071+009009999GF107991999999999999999999MA1102101999999MW1811MW2951REMMET063LEMG 0745Z 27007KT 9000 TSRA SCT020CB BKN030 06/04 Q1021 NOSIG;EQDQ01+000003PRSWM1Q02    003PRSWM1
0216084820999992000011008004+36670-004480FM-15+0007LEMG V0202601N004110090019N0030001N1+00701+00401999999ADDGA1021+001209999GA2021+007509999GA3071+009009999GF107991999999999999999999MA1102101999999MW1811MW2951REMMET068LEMG 0800Z 26008KT 3000 TSRA FEW004 SCT025 BKN030 07/04 Q1021 NOSIG;EQDQ01+000003PRSWM1Q02    003PRSWM1
0191084820999992000011008304+36670-004480FM-15+0007LEMG V0201301N005710090019N0060001N1+00901+00601999999ADDGA1021+004509999GA2021+007509099GA3071+009009999GF107991999999999999999999MA1102401999999MW1001REMMET065LEMG 0930Z 13011KT 6000 SCT015 FEW025CB BKN030 09/06 Q1024 NOSIG;EQDQ01+000000PRSWM2
0337084820999992000011009004+36670-004480SY-MT+0007LEMG V0201401N00411009001CN0060001N1+01101+00901102311ADDAY191031AY261031GA1021+003609999GA2021+007509099GA3071+009009999GF108991071031004501071999MA1102301102221MD1210221+9999MW1291REMSYN094AAXX  10094 08482 41456 81408 10110 20090 30222 40231 52022 72996 8737/ 333 83694 82995 86696;MET065LEMG 0900Z 14008KT 6000 SCT012 FEW025CB BKN030 09/05 Q1023 NOSIG;EQDQ01+000000PRSWM2Q02    003PRSWM1
0191084820999992000011010004+36670-004480FM-15+0007LEMG V0201001N005710090019N0070001N1+01001+00601999999ADDGA1021+007509099GA2071+009009999GA3071+018009999GF107991999999999999999999MA1102401999999MW1001REMMET065LEMG 1000Z 10011KT 7000 FEW025CB BKN030 BKN060 10/06 Q1024 NOSIG;EQDQ01+000000PRSWM2
0211084820999992000011011004+36670-004480FM-15+0007LEMG V0201001N005110120019N0112651N1+01001+00501999999ADDGA1021+007509099GA2021+009009999GA3071+012009999GF107991999999999999999999MA1102401999999MW1611REMMET069LEMG 1100Z 10010KT 9999 -RA FEW025CB SCT030 BKN040 10/05 Q1024 NOSIG;EQDQ01+000003PRSWM1Q02    003PRSWM1
0324084820999992000011012004+36670-004480SY-MT+0007LEMG V0201001N00101024001CN0120001N1+01181+01021102431ADDAA106003091AY191061AY261061GA1021+007509999GA2021+010509999GA3071+024009999GF107991041081008001071999MA1102301102341MD1010121+9999MW1601MW2611REMSYN078AAXX  10124 08482 11562 71002 10118 20102 30234 40243 50012 60031 76096 8487/;MET067LEMG 1200Z 10002KT 9999 -RA FEW025 SCT035 BKN080 10/06 Q1023 NOSIG;EQDQ01    003PRSWM1
0168084820999992000011013004+36670-004480FM-15+0007LEMG V0203101N003112200019N0112651N1+00901+00701999999ADDGA1021+009009099GA2021+018009999GF104991999999999999999999MA1102301999999MW1001REMMET058LEMG 1300Z 31006KT 9999 SCT030CB SCT060 09/07 Q1023 NOSIG;EQDQ01+000000PRSWM2
0168084820999992000011013304+36670-004480FM-15+0007LEMG V0201201N005112200019N0112651N1+01101+00601999999ADDGA1021+007509099GA2021+010509999GF104991999999999999999999MA1102301999999MW1001REMMET058LEMG 1430Z 12010KT 9999 SCT025CB SCT035 11/06 Q1023 NOSIG;EQDQ01+000000PRSWM2
0337084820999992000011015004+36670-004480SY-MT+0007LEMG V0201401N00571021001CN0150001N1+01281+01091102351ADDAY181031AY261031GA1021+007509099GA2021+010509999GA3071+022509999GF107991061031008001071001MA1102301102261MD1710081+9999MW1251REMSYN094AAXX  10154 08482 41565 71411 10128 20109 30226 40235 57008 72586 86370 333 83995 84696 85398;MET065LEMG 1500Z 14011KT 9999 SCT025CB SCT035 BKN070 11/07 Q1023 NOSIG;EQDQ01+000000PRSWM2Q02    003PRSWM1
0179084820999992000011016004+36670-004480FM-15+0007LEMG V0201301N004610120019N0112651N1+01101+00701999999ADDGA1021+007509099GA2071+012009999GF107991999999999999999999MA1102301999999MW1001OC100981REMMET061LEMG 1600Z 13009G19KT 9999 SCT025CB BKN040 11/07 Q1023 NOSIG;EQDQ01+000000PRSWM2
0166084820999992000011017004+36670-004480FM-15+0007LEMG V0201401N004110120019N0112651N1+01001+00601999999ADDGA1021+007509999GA2071+012009999GF107991999999999999999999MA1102401999999MW1001REMMET056LEMG 1700Z 14008KT 9999 FEW025 BKN040 10/06 Q1024 NOSIG;EQDQ01+000000PRSWM2
0353084820999992000011018004+36670-004480SY-MT+0007LEMG V0201101N00511009001CN0070001N1+01321+01051102451ADDAA112003091AY181061AY261061GA1021+007509999GA2071+009009999GA3071+015009999GF107991061081008001071001KA1999M+01341MA1102401102361MD1110101+9999MW1251REMSYN088AAXX  10184 08482 11557 71110 10132 20105 30236 40245 51010 60032 72586 86870 333 10134;MET063LEMG 1800Z 11010KT 7000 FEW025 BKN030 BKN055 11/05 Q1024 NOSIG;EQDQ01+000000PRSWM2Q02    003PRSWM1
0205084820999992000011019004+36670-004480FM-15+0007LEMG V0201201N006210090019N9999999N1+01101+00501999999ADDGA1021+007509999GA2071+009009999GA3071+015009999GF107991999999999999999999MA1102511999999MW1001REMMET063LEMG 1900Z 12012KT 7000 FEW025 BKN030 BKN050 11/05 Q1025 NOSIG;EQDQ01+070002VODIS Q02+000000PRSWM2
0182084820999992000011020004+36670-004480FM-15+0007LEMG V0201101N004110150019N9999999N1+01101+00501999999ADDGA1021+009009999GA2071+015009999GF107991999999999999999999MA1102511999999MW1001REMMET056LEMG 2000Z 11008KT 7000 SCT030 BKN050 11/05 Q1025 NOSIG;EQDQ01+070002VODIS Q02+000000PRSWM2
0306084820999992000011021004+36670-004480SY-MT+0007LEMG V0202601N00261018001CN0070001N1+01141+00981102561ADDAY121031AY221031GA1021+009009999GA2071+018009999GF199999041081012501011001MA1102511102471MD1210111+9999MW1101REMSYN072AAXX  10214 08482 41657 62605 10114 20098 30247 40256 52011 71022 84810;MET056LEMG 2100Z 26005KT 7000 SCT030 BKN060 09/06 Q1025 NOSIG;EQDQ01+000062SCOTCVQ02+000000PRSWM2Q03    003PRSWM1
0166084820999992000011022004+36670-004480FM-15+0007LEMG V0203201N003610180019N0070001N1+00701+00601999999ADDGA1021+009009999GA2071+018009999GF107991999999999999999999MA1102611999999MW1001REMMET056LEMG 2200Z 32007KT 7000 SCT030 BKN060 07/06 Q1026 NOSIG;EQDQ01+000000PRSWM2
0143084820999992000011023004+36670-004480FM-15+0007LEMG V0203101N004112200019N0112651N1+00701+00601999999ADDGA1021+012009999GF104991999999999999999999MA1102611999999MW1001REMMET049LEMG 2300Z 31008KT 9999 SCT040 07/06 Q1026 NOSIG;EQDQ01+000000PRSWM2
0229084820999992000011100004+36670-004480SY-MT+0007LEMG V0203001N004112200019N0120001N1+00961+00841102641ADDGA1021+012009999GF104991031081012501071001MA1102611102551MD1310081+9999MW1001REMSYN066AAXX  11004 08482 42662 43008 10096 20084 30255 40264 53008 83870;MET049LEMG 0000Z 30008KT 9999 SCT040 07/05 Q1026 NOSIG;EQDQ01+000000PRSWM2
0143084820999992000011101004+36670-004480FM-15+0007LEMG V0203101N003612200019N0112651N1+00601+00501999999ADDGA1021+012009999GF104991999999999999999999MA1102611999999MW1001REMMET049LEMG 0100Z 31007KT 9999 SCT040 06/05 Q1026 NOSIG;EQDQ01+000000PRSWM2
0166084820999992000011102004+36670-004480FM-15+0007LEMG V0203001N004612200019N0112651N1+00601+00501999999ADDGA1021+009009999GA2021+015009999GF104991999999999999999999MA1102611999999MW1001REMMET056LEMG 0200Z 30009KT 9999 SCT030 SCT050 06/05 Q1026 NOSIG;EQDQ01+000000PRSWM2
0252084820999992000011103004+36670-004480SY-MT+0007LEMG V0203001N004110360019N0120001N1+00721+00591102681ADDGA1021+009009999GA2021+015009999GF105991041081012501081001MA1102611102591MD1310041+9999MW1001REMSYN066AAXX  11034 08482 42662 53008 10072 20059 30259 40268 53004 84880;MET056LEMG 0300Z 30008KT 9999 SCT030 SCT050 06/04 Q1026 NOSIG;EQDQ01+000000PRSWM2
0166084820999992000011104004+36670-004480FM-15+0007LEMG V0203001N003612200019N0112651N1+00501+00401999999ADDGA1021+009009999GA2021+015009999GF104991999999999999999999MA1102611999999MW1001REMMET056LEMG 0400Z 30007KT 9999 FEW030 SCT050 05/04 Q1026 NOSIG;EQDQ01+000000PRSWM2
0166084820999992000011105004+36670-004480FM-15+0007LEMG V0203001N004110180019N0112651N1+00501+00401999999ADDGA1021+009009999GA2071+018009999GF107991999999999999999999MA1102611999999MW1001REMMET056LEMG 0500Z 30008KT 9999 FEW030 BKN060 05/04 Q1026 NOSIG;EQDQ01+000000PRSWM2
0308084820999992000011106004+36670-004480SY-MT+0007LEMG V0203001N004612200019N0150001N1+00741+00651102681ADDAA106000091GA1021+009009999GA2021+018009999GF104991031081012501071001KA1120N+00721MA1102711102591MD1410001+9999MW1001REMSYN082AAXX  11064 08482 32665 43009 10074 20065 30259 40268 54000 83870 333 20072 55000;MET056LEMG 0600Z 30009KT 9999 FEW030 SCT060 05/04 Q1027 NOSIG;EQDQ01+000000PRSWM2Q02  00002PRCP06
0166084820999992000011107004+36670-004480FM-15+0007LEMG V0203001N004112200019N0112651N1+00501+00401999999ADDGA1021+009009999GA2021+018009999GF104991999999999999999999MA1102711999999MW1001REMMET056LEMG 0700Z 30008KT 9999 FEW030 SCT060 05/04 Q1027 NOSIG;EQDQ01+000000PRSWM2
0166084820999992000011108004+36670-004480FM-15+0007LEMG V0203001N004110180019N0112651N1+00601+00401999999ADDGA1021+009009999GA2071+018009999GF107991999999999999999999MA1102711999999MW1001REMMET056LEMG 0800Z 30008KT 9999 FEW030 BKN060 06/04 Q1027 NOSIG;EQDQ01+000000PRSWM2
0291084820999992000011109004+36670-004480SY-MT+0007LEMG V0203001N00511018001CN0150001N1+00881+00751102871ADDGA1021+009009999GA2071+018009999GF199999051081012501071001KA1999N+00701MA1102811102781MD1210191+9999MW1001REMSYN076AAXX  11094 08482 42665 63010 10088 20075 30278 40287 52019 85870 333 20070;MET056LEMG 0900Z 30010KT 9999 FEW030 BKN060 06/05 Q1028 NOSIG;EQDQ01+000062SCOTCVQ02+000000PRSWM2
0166084820999992000011110004+36670-004480FM-15+0007LEMG V0203101N004110180019N0112651N1+00701+00601999999ADDGA1021+009009999GA2071+018009999GF107991999999999999999999MA1102911999999MW1001REMMET056LEMG 1000Z 31008KT 9999 FEW030 BKN060 07/06 Q1029 NOSIG;EQDQ01+000000PRSWM2
0166084820999992000011111004+36670-004480FM-15+0007LEMG V0203001N004112200019N0112651N1+00801+00601999999ADDGA1021+009009999GA2021+013509999GF104991999999999999999999MA1102811999999MW1001REMMET056LEMG 1100Z 30008KT 9999 FEW030 SCT045 08/06 Q1028 NOSIG;EQDQ01+000000PRSWM2
0279084820999992000011112004+36670-004480SY-MT+0007LEMG V0203201N003110360019N0150001N1+01241+01001102831ADDAA106000091GA1021+010509999GA2021+024009999GF105991021021012501071001MA1102811102741MD1510041+9999MW1001REMSYN066AAXX  11124 08482 32665 53206 10124 20100 30274 40283 55004 82270;MET056LEMG 1200Z 32006KT 9999 FEW035 SCT080 11/07 Q1028 NOSIG;EQDQ01+000000PRSWM2Q02  00002PRCP06
0166084820999992000011113004+36670-004480FM-15+0007LEMG V0201401N003112200019N0112651N1+01201+00601999999ADDGA1021+009009999GA2021+012009999GF104991999999999999999999MA1102711999999MW1001REMMET056LEMG 1300Z 14006KT 9999 FEW030 SCT040 12/06 Q1027 NOSIG;EQDQ01+000000PRSWM2
0166084820999992000011114004+36670-004480FM-15+0007LEMG V0201301N005712200019N0112651N1+01201+00701999999ADDGA1021+012009999GA2021+021009999GF104991999999999999999999MA1102711999999MW1001REMMET056LEMG 1400Z 13011KT 9999 SCT040 SCT075 12/07 Q1027 NOSIG;EQDQ01+000000PRSWM2
0252084820999992000011115004+36670-004480SY-MT+0007LEMG V0201301N006210360019N0200001N1+01381+00991102761ADDGA1021+012009999GA2021+021009999GF106991041081012501071001MA1102711102671MD1610071+9999MW1001REMSYN066AAXX  11154 08482 42670 61312 10138 20099 30267 40276 56007 84870;MET056LEMG 1500Z 13012KT 9999 SCT040 SCT075 11/06 Q1027 NOSIG;EQDQ01+000000PRSWM2
0166084820999992000011116004+36670-004480FM-15+0007LEMG V0201301N005712200019N0112651N1+01101+00601999999ADDGA1021+009009999GA2021+021009999GF104991999999999999999999MA1102711999999MW1001REMMET056LEMG 1600Z 13011KT 9999 FEW030 SCT075 11/06 Q1027 NOSIG;EQDQ01+000000PRSWM2
0166084820999992000011117004+36670-004480FM-15+0007LEMG V0201301N006210180019N0112651N1+01101+00501999999ADDGA1021+009009999GA2071+018009999GF107991999999999999999999MA1102811999999MW1001REMMET056LEMG 1700Z 13012KT 9999 SCT030 BKN060 11/05 Q1028 NOSIG;EQDQ01+000000PRSWM2
0302084820999992000011118004+36670-004480SY-MT+0007LEMG V0201301N005710360019N0200001N1+01341+00951102841ADDAA106000091GA1021+012009999GA2021+021009999GF106991041081012501041001KA1999M+01481MA1102811102751MD1310081+9999MW1001REMSYN076AAXX  11184 08482 32670 61311 10134 20095 30275 40284 53008 84840 333 10148;MET056LEMG 1800Z 13011KT 9999 SCT040 SCT070 11/05 Q1028 NOSIG;EQDQ01+000000PRSWM2Q02  00002PRCP06
0143084820999992000011119004+36670-004480FM-15+0007LEMG V0200901N002110090019N0112651N1+01001+00601999999ADDGA1071+009009999GF107991999999999999999999MA1102911999999MW1001REMMET049LEMG 1900Z 09004KT 9999 BKN030 10/06 Q1029 NOSIG;EQDQ01+000000PRSWM2
0143084820999992000011120004+36670-004480FM-15+0007LEMG V0200501N001510090019N0112651N1+01001+00601999999ADDGA1071+009009999GF107991999999999999999999MA1102911999999MW1001REMMET049LEMG 2000Z 05003KT 9999 BKN030 10/06 Q1029 NOSIG;EQDQ01+000000PRSWM2
0267084820999992000011121004+36670-004480SY-MT+0007LEMG V0209999C000012200019N0150001N1+01221+00981102921ADDAY151031AY211031GA1021+010509999GF103991031051012501001001MA1102911102831MD1110081+9999MW1011REMSYN072AAXX  11214 08482 41665 30000 10122 20098 30283 40292 51008 70151 83500;MET049LEMG 2100Z 00000KT 9999 SCT035 09/05 Q1029 NOSIG;EQDQ01+000000PRSWM2Q02    003PRSWM1
0143084820999992000011122004+36670-004480FM-15+0007LEMG V0202901N001512200019N0112651N1+00701+00501999999ADDGA1021+013509999GF104991999999999999999999MA1102911999999MW1001REMMET049LEMG 2200Z 29003KT 9999 SCT045 07/05 Q1029 NOSIG;EQDQ01+000000PRSWM2
0143084820999992000011123004+36670-004480FM-15+0007LEMG V0202901N002110120019N0112651N1+00801+00501999999ADDGA1071+012009999GF107991999999999999999999MA1102911999999MW1001REMMET049LEMG 2300Z 29004KT 9999 BKN040 08/05 Q1029 NOSIG;EQDQ01+000000PRSWM2
0323084820999992000011200004+36670-004480SY-MT+0007LEMG V0203001N00261015001CN0120001N1+00941+00861102961ADDAA106000191AY151061AY211061GA1021+009009999GA2071+015009999GF199999011011008001051001MA1102911102871MD1110041+9999MW1031REMSYN078AAXX  12004 08482 11562 63005 10094 20086 30287 40296 51004 69921 70351 81150;MET056LEMG 0000Z 30005KT 9999 FEW030 BKN055 07/05 Q1029 NOSIG;EQDQ01+000062SCOTCVQ02+000000PRSWM2Q03    003PRSWM1
0166084820999992000011201004+36670-004480FM-15+0007LEMG V0203001N004110150019N0112651N1+00601+00501999999ADDGA1021+007509999GA2071+015009999GF107991999999999999999999MA1102911999999MW1001REMMET056LEMG 0100Z 30008KT 9999 FEW025 BKN055 06/05 Q1029 NOSIG;EQDQ01+000000PRSWM2
0166084820999992000011202004+36670-004480FM-15+0007LEMG V0203001N003612200019N0112651N1+00601+00401999999ADDGA1021+007509999GA2021+018009999GF104991999999999999999999MA1102911999999MW1001REMMET056LEMG 0200Z 30007KT 9999 FEW025 SCT060 06/04 Q1029 NOSIG;EQDQ01+000000PRSWM2
0229084820999992000011203004+36670-004480SY-MT+0007LEMG V0203101N003612200019N0120001N1+00761+00721102951ADDGA1021+018009999GF102991021001017501011001MA1102911102861MD1810011+9999MW1001REMSYN066AAXX  12034 08482 42762 23107 10076 20072 30286 40295 58001 82010;MET049LEMG 0300Z 31007KT 9999 FEW060 05/04 Q1029 NOSIG;EQDQ01+000000PRSWM2
0143084820999992000011204004+36670-004480FM-15+0007LEMG V0203001N004112200019N0112651N1+00501+00301999999ADDGA1021+018009999GF102991999999999999999999MA1102911999999MW1001REMMET049LEMG 0400Z 30008KT 9999 FEW060 05/03 Q1029 NOSIG;EQDQ01+000000PRSWM2
0143084820999992000011205004+36670-004480FM-15+0007LEMG V0203001N004612200019N0112651N1+00501+00301999999ADDGA1021+018009999GF102991999999999999999999MA1102811999999MW1001REMMET049LEMG 0500Z 30009KT 9999 FEW060 05/03 Q1028 NOSIG;EQDQ01+000000PRSWM2
0275084820999992000011206004+36670-004480SY-MT+0007LEMG V0203001N004112200019N0150001N1+00621+00531102891ADDAA112000191GA1021+018009999GF102991021001017501011001KA1120N+00621MA1102911102801MD1810061+9999MW1001REMSYN088AAXX  12064 08482 12765 23008 10062 20053 30280 40289 58006 69922 82010 333 20062 55016;MET049LEMG 0600Z 30008KT 9999 FEW060 04/02 Q1029 NOSIG;EQDQ01+000000PRSWM2
0143084820999992000011207004+36670-004480FM-15+0007LEMG V0203101N004612200019N0112651N1+00401+00201999999ADDGA1021+018009999GF104991999999999999999999MA1102911999999MW1001REMMET049LEMG 0700Z 31009KT 9999 SCT060 04/02 Q1029 NOSIG;EQDQ01+000000PRSWM2
0143084820999992000011208004+36670-004480FM-15+0007LEMG V0203001N004612200019N0112651N1+00301+00201999999ADDGA1021+013509999GF102991999999999999999999MA1102911999999MW1001REMMET049LEMG 0800Z 30009KT 9999 FEW045 03/02 Q1029 NOSIG;EQDQ01+000000PRSWM2
0252084820999992000011209004+36670-004480SY-MT+0007LEMG V0203201N004612200019N0200001N1+00661+00521103011ADDGA1021+012009999GF102991021081012501001001KA1999N+00581MA1103011102921MD1310121+9999MW1001REMSYN076AAXX  12094 08482 42670 23209 10066 20052 30292 40301 53012 82800 333 20058;MET049LEMG 0900Z 32009KT 9999 FEW040 04/03 Q1030 NOSIG;EQDQ01+000000PRSWM2
0143084820999992000011210004+36670-004480FM-15+0007LEMG V0203101N004112200019N0112651N1+00701+00501999999ADDGA1021+012009999GF102991999999999999999999MA1103011999999MW1001REMMET049LEMG 1000Z 31008KT 9999 FEW040 07/05 Q1030 NOSIG;EQDQ01+000000PRSWM2
0143084820999992000011211004+36670-004480FM-15+0007LEMG V0203101N002612200019N0112651N1+01001+00701999999ADDGA1021+012009999GF102991999999999999999999MA1103011999999MW1001REMMET049LEMG 1100Z 31005KT 9999 FEW040 10/07 Q1030 NOSIG;EQDQ01+000000PRSWM2
0255084820999992000011212004+36670-004480SY-MT+0007LEMG V0203201N001012200019N0250001N1+01421+00861102971ADDAA106000091GA1021+012009999GF102991021081012501001001MA1102911102881MD1810041+9999MW1001REMSYN065AAXX  12124 08482 32675 23202 10142 20086 3028840297 58004 82800;MET049LEMG 1200Z 32002KT 9999 FEW040 13/06 Q1029 NOSIG;EQDQ01+000000PRSWM2Q02  00002PRCP06
0151084820999992000011213004+36670-004480FM-15+0007LEMG V0201101N002612200019N0112651N1+01301+00601999999ADDGA1021+012009999GF104991999999999999999999MA1102811999999MW1001REMMET057LEMG 1300Z 11005KT 080V150 9999 SCT040 13/06 Q1028 NOSIG;EQDQ01+000000PRSWM2
0143084820999992000011214004+36670-004480FM-15+0007LEMG V0201301N003112200019N0112651N1+01301+00601999999ADDGA1021+012009999GF104991999999999999999999MA1102811999999MW1001REMMET049LEMG 1400Z 13006KT 9999 SCT040 13/06 Q1028 NOSIG;EQDQ01+000000PRSWM2
0229084820999992000011215004+36670-004480SY-MT+0007LEMG V0201401N003112200019N0250001N1+01501+01001102841ADDGA1021+012009999GF103991031081012501001001MA1102811102761MD1710121+9999MW1001REMSYN066AAXX  12154 08482 42675 31406 10150 20100 30276 40284 57012 83800;MET049LEMG 1500Z 14006KT 9999 SCT040 13/05 Q1028 NOSIG;EQDQ01+000000PRSWM2
0143084820999992000011216004+36670-004480FM-15+0007LEMG V0201101N002612200019N0112651N1+01201+00501999999ADDGA1021+012009999GF104991999999999999999999MA1102811999999MW1001REMMET049LEMG 1600Z 11005KT 9999 SCT040 12/05 Q1028 NOSIG;EQDQ01+000000PRSWM2
0143084820999992000011217004+36670-004480FM-15+0007LEMG V0201401N002112200019N0112651N1+01201+00601999999ADDGA1021+012009999GF104991999999999999999999MA1102811999999MW1001REMMET049LEMG 1700Z 14004KT 9999 SCT040 12/06 Q1028 NOSIG;EQDQ01+000000PRSWM2
0279084820999992000011218004+36670-004480SY-MT+0007LEMG V0201501N001512200019N0200001N1+01221+00941102841ADDAA106000091GA1021+012009999GF102991021051012501001001KA1999M+01541MA1102811102751MD1510011+9999MW1001REMSYN076AAXX  12184 08482 32670 21503 10122 20094 30275 40284 55001 82500 333 10154;MET049LEMG 1800Z 15003KT 9999 FEW040 10/05 Q1028 NOSIG;EQDQ01+000000PRSWM2Q02  00002PRCP06
0143084820999992000011219004+36670-004480FM-15+0007LEMG V0203101N001012200019N0112651N1+00801+00401999999ADDGA1021+012009999GF102991999999999999999999MA1102811999999MW1001REMMET049LEMG 1900Z 31002KT 9999 FEW040 08/04 Q1028 NOSIG;EQDQ01+000000PRSWM2
0143084820999992000011220004+36670-004480FM-15+0007LEMG V0202901N001512200019N0112651N1+00701+00501999999ADDGA1021+007509999GF102991999999999999999999MA1102811999999MW1001REMMET049LEMG 2000Z 29003KT 9999 FEW025 07/05 Q1028 NOSIG;EQDQ01+000000PRSWM2
0229084820999992000011221004+36670-004480SY-MT+0007LEMG V0203001N003112200019N0120001N1+00841+00711102851ADDGA1021+008109999GF103991031051008001001001MA1102811102761MD1110011+9999MW1001REMSYN066AAXX  12214 08482 42562 33006 10084 20071 30276 40285 51001 83500;MET049LEMG 2100Z 30006KT 9999 SCT027 06/04 Q1028 NOSIG;EQDQ01+000000PRSWM2
0095084820999992000011222004+36670-004480FM-15+0007LEMG V0203101N00311220001CN0099001N1+00401+00201999999ADDMA1102811999999MW1001REMMET043LEMG 2200Z 31006KT CAVOK 04/02 Q1028 NOSIG;EQDQ01+000000PRSWM2
0095084820999992000011223004+36670-004480FM-15+0007LEMG V0203101N00411220001CN0099001N1+00401+00201999999ADDMA1102711999999MW1001REMMET043LEMG 2300Z 31008KT CAVOK 04/02 Q1027 NOSIG;EQDQ01+000000PRSWM2
0228084820999992000011300004+36670-004480SY-MT+0007LEMG V0203001N004112200019N0100001N1+00621+00531102761ADDAA106000091GF100991001001999999001001MA1102711102671MD1810091+9999MW1001REMSYN060AAXX  13004 08482 32960 03008 10062 20053 30267 40276 58009;MET043LEMG 0000Z 30008KT CAVOK 04/02 Q1027 NOSIG;EQDQ01+000000PRSWM2Q02  00002PRCP06
0095084820999992000011301004+36670-004480FM-15+0007LEMG V0202901N00361220001CN0099001N1+00301+00201999999ADDMA1102611999999MW1001REMMET043LEMG 0100Z 29007KT CAVOK 03/02 Q1026 NOSIG;EQDQ01+000000PRSWM2
0095084820999992000011302004+36670-004480FM-15+0007LEMG V0203001N00411220001CN0099001N1+00401+00301999999ADDMA1102611999999MW1001REMMET043LEMG 0200Z 30008KT CAVOK 04/03 Q1026 NOSIG;EQDQ01+000000PRSWM2
0201084820999992000011303004+36670-004480SY-MT+0007LEMG V0203001N004112200019N0100001N1+00521+00421102631ADDGF100991001001999999001001MA1102611102541MD1710131+9999MW1001REMSYN060AAXX  13034 08482 42960 03008 10052 20042 30254 40263 57013;MET043LEMG 0300Z 30008KT CAVOK 03/02 Q1026 NOSIG;EQDQ01+000000PRSWM2
0095084820999992000011304004+36670-004480FM-15+0007LEMG V0203101N00411220001CN0099001N1+00101+00101999999ADDMA1102511999999MW1001REMMET043LEMG 0400Z 31008KT CAVOK 01/01 Q1025 NOSIG;EQDQ01+000000PRSWM2
0095084820999992000011305004+36670-004480FM-15+0007LEMG V0203001N00511220001CN0099001N1+00201+00201999999ADDMA1102511999999MW1001REMMET043LEMG 0500Z 30010KT CAVOK 02/02 Q1025 NOSIG;EQDQ01+000000PRSWM2
0258084820999992000011306004+36670-004480SY-MT+0007LEMG V0203101N004612200019N0100001N1+00361+00261102471ADDAA106000091GF100991001001999999001001KA1120N+00361MA1102401102381MD1710161+9999MW1001REMSYN076AAXX  13064 08482 32960 03109 10036 20026 30238 40247 57016 333 20036 55086;MET044LEMG 0600Z 31009KT CAVOK 01/M00 Q1024 NOSIG;EQDQ01+000000PRSWM2Q02  00002PRCP06
0095084820999992000011307004+36670-004480FM-15+0007LEMG V0203001N00511220001CN0099001N1+00101+00001999999ADDMA1102401999999MW1001REMMET043LEMG 0700Z 30010KT CAVOK 01/00 Q1024 NOSIG;EQDQ01+000000PRSWM2
0143084820999992000011308004+36670-004480FM-15+0007LEMG V0203101N005712200019N0112651N1+00101+00001999999ADDGA1021+007509999GF102991999999999999999999MA1102401999999MW1001REMMET049LEMG 0800Z 31011KT 9999 FEW025 01/00 Q1024 NOSIG;EQDQ01+000000PRSWM2
0245084820999992000011309004+36670-004480SY-MT+0007LEMG V0203101N004112200019N0250001N1+00541+00451102511ADDGA1021+007509999GF199999011081008001001001MA1102401102421MD1310041+9999MW1001REMSYN066AAXX  13094 08482 42575 13108 10054 20045 30242 40251 53004 81800;MET049LEMG 0900Z 31008KT 9999 FEW025 03/02 Q1024 NOSIG;EQDQ01+000012SCOTCVQ02+000000PRSWM2
0143084820999992000011310004+36670-004480FM-15+0007LEMG V0203101N004612200019N0112651N1+00601+00401999999ADDGA1021+009009999GF102991999999999999999999MA1102401999999MW1001REMMET049LEMG 1000Z 31009KT 9999 FEW030 06/04 Q1024 NOSIG;EQDQ01+000000PRSWM2
0143084820999992000011311004+36670-004480FM-15+0007LEMG V0203101N003612200019N0112651N1+00901+00601999999ADDGA1021+010509999GF102991999999999999999999MA1102401999999MW1001REMMET049LEMG 1100Z 31007KT 9999 FEW035 09/06 Q1024 NOSIG;EQDQ01+000000PRSWM2
0256084820999992000011312004+36670-004480SY-MT+0007LEMG V0202901N001012200019N0250001N1+01061+00861102331ADDAA106000091GA1021+010509999GF103991021021012501001011MA1102201102241MD1710181+9999MW1001REMSYN066AAXX  13124 08482 32675 32902 10106 20086 30224 40233 57018 82201;MET049LEMG 1200Z 29002KT 9999 FEW035 09/06 Q1022 NOSIG;EQDQ01+000000PRSWM2Q02  00002PRCP06
0143084820999992000011313004+36670-004480FM-15+0007LEMG V0201501N001012200019N0112651N1+01201+00401999999ADDGA1021+010509999GF102991999999999999999999MA1102101999999MW1001REMMET049LEMG 1300Z 15002KT 9999 FEW035 12/04 Q1021 NOSIG;EQDQ01+000000PRSWM2
0151084820999992000011314004+36670-004480FM-15+0007LEMG V0201701N002612200019N0112651N1+01301+00701999999ADDGA1021+010509999GF104991999999999999999999MA1102001999999MW1001REMMET057LEMG 1400Z 17005KT 140V200 9999 SCT035 13/07 Q1020 NOSIG;EQDQ01+000000PRSWM2
0237084820999992000011315004+36670-004480SY-MT+0007LEMG V0201901N003112200019N0250001N1+01521+00981101961ADDGA1021+010509999GF103991021011012501001011MA1101901101881MD1710361+9999MW1001REMSYN066AAXX  13154 08482 42675 31906 10152 20098 30188 40196 57036 82101;MET057LEMG 1500Z 19006KT 160V220 9999 FEW035 13/07 Q1019 NOSIG;EQDQ01+000000PRSWM2
0151084820999992000011316004+36670-004480FM-15+0007LEMG V0201901N002612200019N0112651N1+01301+00701999999ADDGA1021+010509999GF104991999999999999999999MA1101901999999MW1001REMMET057LEMG 1600Z 19005KT 150V220 9999 SCT035 13/07 Q1019 NOSIG;EQDQ01+000000PRSWM2
0169084820999992000011317004+36670-004480FM-15+0007LEMG V0202001N001512200019N0112651N1+01201+00601999999ADDGA1021+010509029GA2021+024009999GF104991999999999999999999MA1101801999999MW1001REMMET059LEMG 1700Z 20003KT 9999 FEW035TCU SCT080 12/06 Q1018 NOSIG;EQDQ01+000000PRSWM2
0302084820999992000011318004+36670-004480SY-MT+0007LEMG V0209999C000010900019N0200001N1+01281+00841101841ADDAA106000091GA1021+010509999GA2021+027009999GF105991021081012501071011KA1999M+01601MA1101801101761MD1710121+9999MW1001REMSYN076AAXX  13184 08482 32670 50000 10128 20084 30176 40184 57012 82871 333 10160;MET056LEMG 1800Z 00000KT 9999 FEW035 SCT090 10/05 Q1018 NOSIG;EQDQ01+000000PRSWM2Q02  00002PRCP06
0166084820999992000011319004+36670-004480FM-15+0007LEMG V0200501N001510210019N0112651N1+01001+00501999999ADDGA1021+010509999GA2071+021009999GF107991999999999999999999MA1101691999999MW1001REMMET056LEMG 1900Z 05003KT 9999 FEW035 BKN070 10/05 Q1017 NOSIG;EQDQ01+000000PRSWM2
0166084820999992000011320004+36670-004480FM-15+0007LEMG V0202301N001512200019N0112651N1+01101+00401999999ADDGA1021+010509999GA2021+027009999GF104991999999999999999999MA1101691999999MW1001REMMET056LEMG 2000Z 23003KT 9999 FEW035 SCT090 11/04 Q1017 NOSIG;EQDQ01+000000PRSWM2
0264084820999992000011321004+36670-004480SY-MT+000799999V0201801N00211036001MN0200001N1+01261+00811101741ADDGA1021+012009999GA2021+027009999GF106991031051012501071001MA1101691101661MD1710101+9999MW1001REMSYN070    AAXX  13214 08482 42670 61804 10126 20081 30166 40174 57010 83570;MET064LEMG 2100Z 18004KT 150V250 9999 SCT040 SCT090 11/04 Q1017 NOSIG;EQDQ01+000000PRSWM2
0166084820999992000011322004+36670-004480FM-15+0007LEMG V0203301N001512200019N0112651N1+01101+00401999999ADDGA1021+012009999GA2021+021009999GF104991999999999999999999MA1101591999999MW1001REMMET056LEMG 2200Z 33003KT 9999 FEW040 SCT070 11/04 Q1016 NOSIG;EQDQ01+000000PRSWM2
0174084820999992000011323004+36670-004480FM-15+0007LEMG V0202701N002112200019N0112651N1+01101+00401999999ADDGA1021+012009999GA2021+021009999GF104991999999999999999999MA1101491999999MW1001REMMET064LEMG 2300Z 27004KT 200V340 9999 FEW040 SCT070 11/04 Q1015 NOSIG;EQDQ01+000000PRSWM2
0291084820999992000011400004+36670-004480SY-MT+000799999V0202001N00261036001MN0200001N1+01221+00811101511ADDAA199000091GA1021+012009999GA2021+024009999GF105991021051012501031001MA1101391101431MD1710231+9999MW1001REMSYN070    AAXX  14004 08482 32670 52005 10122 20081 30143 40151 57023 82530;MET064LEMG 0000Z 20005KT 160V230 9999 FEW040 SCT080 10/05 Q1014 NOSIG;EQDQ01+000000PRSWM2Q02  00002PRCP99
0193084820999992000011401004+36670-004480FM-15+0007LEMG V0202001N002110090019N0050001N1+00901+00701999999ADDGA1021+004509999GA2071+009009999GF107991999999999999999999MA1101291999999MW1631REMMET067LEMG 0100Z 20004KT 110V260 5000 RA SCT015 BKN030 09/07 Q1013 NOSIG;EQDQ01+000003PRSWM1Q02    003PRSWM1
0186084820999992000011402004+36670-004480FM-15+0007LEMG V0201601N000510150019N0070001N1+00801+00601999999ADDGA1021+009009999GA2071+015009999GF107991999999999999999999MA1101291999999MW1611REMMET060LEMG 0200Z 16001KT 7000 -RA SCT030 BKN050 08/06 Q1013 NOSIG;EQDQ01+000003PRSWM1Q02    003PRSWM1
0287084820999992000011403004+36670-004480SY-MT+000799999V0209999C00001012001CN0070001N1+00981+00941101311ADDAY161031AY221031GA1021+010509999GA2071+012009999GF108991061081012501071999MA1101291101221MD1710211+9999MW1511MW2531REMSYN076    AAXX  14034 08482 41657 80000 10098 20094 30122 40131 57021 75162 8687/;MET059LEMG 0300Z 00000KT 7000 DZ SCT035 BKN040 08/06 Q1013 NOSIG;EQDQ01    003PRSWM1
0185084820999992000011404004+36670-004480FM-15+0007LEMG V0202801N002610240019N0070001N1+00701+00601999999ADDGA1021+012009999GA2071+024009999GF107991999999999999999999MA1101191999999MW1531REMMET059LEMG 0400Z 28005KT 7000 DZ SCT040 BKN085 07/06 Q1012 NOSIG;EQDQ01+000003PRSWM1Q02    003PRSWM1
0186084820999992000011405004+36670-004480FM-15+0007LEMG V0202301N003610240019N0070001N1+00701+00601999999ADDGA1021+012009999GA2071+024009999GF107991999999999999999999MA1101081999999MW1611REMMET060LEMG 0500Z 23007KT 7000 -RA SCT040 BKN085 07/06 Q1011 NOSIG;EQDQ01+000003PRSWM1Q02    003PRSWM1
0340084820999992000011406004+36670-004480SY-MT+000799999V0202801N00101030001CN0090001N1+00881+00811101161ADDAA112004191AY161061AY251061GA1021+012009999GA2071+030009999GF107991041051012501071001KA1120N+00881MA1101081101071MD1710151+9999MW1101REMSYN098    AAXX  14064 08482 11659 72802 10088 20081 30107 40116 57015 60042 71065 84570 333 20088 55070;MET056LEMG 0600Z 28002KT 9000 SCT040 BKN100 07/05 Q1011 NOSIG;EQDQ01+000000PRSWM2Q02    003PRSWM1
0166084820999992000011407004+36670-004480FM-15+0007LEMG V0203001N002612200019N0112651N1+00601+00401999999ADDGA1021+012009999GA2021+021009999GF104991999999999999999999MA1101081999999MW1001REMMET056LEMG 0700Z 30005KT 9999 FEW040 SCT070 06/04 Q1011 NOSIG;EQDQ01+000000PRSWM2
0166084820999992000011408004+36670-004480FM-15+0007LEMG V0202901N003612200019N0112651N1+00401+00401999999ADDGA1021+012009999GA2021+030009999GF104991999999999999999999MA1101081999999MW1001REMMET056LEMG 0800Z 29007KT 9999 FEW040 SCT100 04/04 Q1011 NOSIG;EQDQ01+000000PRSWM2
0272084820999992000011409004+36670-004480SY-MT+000799999V0202901N00411220001MN0300001N1+00881+00711101231ADDGA1021+006009999GF199999011081008001001001KA1999N+00701MA1101081101141MD1210071+9999MW1001REMSYN080    AAXX  14094 08482 42580 12908 10088 20071 30114 40123 52007 81800 333 20070;MET049LEMG 0900Z 29008KT 9999 FEW020 06/05 Q1011 NOSIG;EQDQ01+000012SCOTCVQ02+000000PRSWM2
0143084820999992000011410004+36670-004480FM-15+0007LEMG V0202901N002612200019N0112651N1+00801+00401999999ADDGA1021+007509999GF102991999999999999999999MA1101191999999MW1001REMMET049LEMG 1000Z 29005KT 9999 FEW025 08/04 Q1012 NOSIG;EQDQ01+000000PRSWM2
0151084820999992000011411004+36670-004480FM-15+0007LEMG V0202901N002112200019N0112651N1+01001+00301999999ADDGA1021+007509999GF102991999999999999999999MA1101081999999MW1001REMMET057LEMG 1100Z 29004KT 260V340 9999 FEW025 10/03 Q1011 NOSIG;EQDQ01+000000PRSWM2
0244084820999992000011412004+36670-004480SY-MT+000799999V0203201N00051220001MN0300001N1+01261+00531101181ADDAA199000021GA1021+010509999GF102991021081012501001001MA1101081101101MD1810041+9999MW1001REMSYN070    AAXX  14124 08482 32680 23201 10126 20053 30110 40118 58004 82800;MET049LEMG 1200Z 32001KT 9999 FEW035 11/03 Q1011 NOSIG;EQDQ01+000000PRSWM2
0143084820999992000011413004+36670-004480FM-15+0007LEMG V0202701N001512200019N0112651N1+01101+00201999999ADDGA1021+015009999GF104991999999999999999999MA1101021999999MW1001REMMET049LEMG 1300Z 27003KT 9999 SCT050 11/02 Q1010 NOSIG;EQDQ01+000000PRSWM2
0143084820999992000011414004+36670-004480FM-15+0007LEMG V0201701N002612200019N0112651N1+01101+00201999999ADDGA1021+015009999GF104991999999999999999999MA1100911999999MW1001REMMET049LEMG 1400Z 17005KT 9999 SCT050 11/02 Q1009 NOSIG;EQDQ01+000000PRSWM2
0143084820999992000011414304+36670-004480FM-15+0007LEMG V0201401N002112200019N0112651N1+01001+00301999999ADDGA1021+015009999GF104991999999999999999999MA1100911999999MW1001REMMET049LEMG 1530Z 14004KT 9999 SCT050 10/03 Q1009 NOSIG;EQDQ01+000000PRSWM2
0137084820999992000011415004+36670-004480FM-12+000799999V0201501N00261015001MN0300001N1+01341+00631100951ADDGF106991051021017501011001MA1999999100871MD1710231+9999REMSYN070    AAXX  14154 08482 42780 61505 10134 20063 30087 40095 57023 85210;
0143084820999992000011416004+36670-004480FM-15+0007LEMG V0201701N001012200019N0112651N1+01201+00201999999ADDGA1021+015009999GF104991999999999999999999MA1100911999999MW1001REMMET049LEMG 1600Z 17002KT 9999 SCT050 12/02 Q1009 NOSIG;EQDQ01+000000PRSWM2
0174084820999992000011417004+36670-004480FM-15+0007LEMG V0202101N002610240019N0112651N1+01001+00201999999ADDGA1021+015009999GA2071+024009999GF107991999999999999999999MA1100911999999MW1001REMMET064LEMG 1700Z 21005KT 170V230 9999 SCT055 BKN080 10/02 Q1009 NOSIG;EQDQ01+000000PRSWM2
0306084820999992000011418004+36670-004480SY-MT+000799999V0202501N00211036001MN0200001N1+01161+00561100981ADDAA199000091GA1021+010509999GA2021+024009999GF105991031021017501011001KA1999M+01421MA1100911100901MD1310031+9999MW1001REMSYN080    AAXX  14184 08482 32770 52504 10116 20056 30090 40098 53003 83210 333 10142;MET056LEMG 1800Z 25003KT 9999 FEW035 SCT080 10/02 Q1009 NOSIG;EQDQ01+000000PRSWM2Q02  00002PRCP99
0166084820999992000011419004+36670-004480FM-15+0007LEMG V0200301N000512200019N0112651N1+00801+00201999999ADDGA1021+010509999GA2021+024009999GF104991999999999999999999MA1101021999999MW1001REMMET056LEMG 1900Z 03001KT 9999 FEW035 SCT080 08/02 Q1010 NOSIG;EQDQ01+000000PRSWM2
0166084820999992000011420004+36670-004480FM-15+0007LEMG V0209999C000012200019N0112651N1+00701+00201999999ADDGA1021+010509999GA2021+024009999GF104991999999999999999999MA1101021999999MW1001REMMET056LEMG 2000Z 00000KT 9999 FEW035 SCT080 07/02 Q1010 NOSIG;EQDQ01+000000PRSWM2
0256084820999992000011421004+36670-004480SY-MT+000799999V0209999C00001090001MN0120001N1+00881+00521101081ADDGA1021+012009999GA2021+027009999GF105991011051012501071021MA1101021100991MD1210091+9999MW1001REMSYN070    AAXX  14214 08482 42662 50000 10088 20052 30099 40108 52009 81572;MET056LEMG 2100Z 00000KT 9999 FEW040 SCT090 06/02 Q1010 NOSIG;EQDQ01+000000PRSWM2
0210084820999992000011421454+36670-004480FM-15+0007LEMG V0202801N000512200019N0112651N1+00601+00201999999ADDGA1021+009009999GA2021+009009999GA3021+018009999GF104991999999999999999999MA1101081999999MW1171REMMET068LEMG 142145Z 28001KT 9999 TS FEW030 SCT030 SCT060 06/02 Q1011 NOSIG;EQDQ01+000003PRSWM1Q02    003PRSWM1
0212084820999992000011421474+36670-004480FM-16+0007LEMG V0209999C000012200019N0112651N1+00601+00201999999ADDGA1021+007509099GA2021+009009999GA3021+018009999GF104991999999999999999999MA1101081999999MW1171REMMET070LEMG 142147Z 00000KT 9999 TS FEW025CB SCT030 SCT060 06/02 Q1011 NOSIG;EQDQ01+000003PRSWM1Q02    003PRSWM1
0209084820999992000011422004+36670-004480FM-15+0007LEMG V0209999C000012200019N0112651N1+00601+00201999999ADDGA1021+007509099GA2021+010509999GA3021+021009999GF104991999999999999999999MA1101081999999MW1171REMMET067LEMG 2200Z 00000KT 9999 TS FEW025CB SCT035 SCT070 06/02 Q1011 OSIG;EQDQ01+000003PRSWM1Q02    003PRSWM1
0211084820999992000011423004+36670-004480FM-15+0007LEMG V0201801N001510210019N0112651N1+00601+00401999999ADDGA1021+009009099GA2021+009009999GA3071+021009999GF107991999999999999999999MA1101081999999MW1611REMMET069LEMG 2300Z 18003KT 9999 -RA FEW030CB SCT030 BKN070 06/04 Q1011 NOSIG;EQDQ01+000003PRSWM1Q02    003PRSWM1
0311084820999992000011500004+36670-004480SY-MT+000799999V0200301N00101036001MN0120001N1+00801+00621101191ADDAA106001091AY191061AY211061GA1021+015009999GA2021+027009999GF106991031041017501031001MA1101191101101MD1210111+9999MW1211REMSYN082    AAXX  15004 08482 11762 60302 10080 20062 30110 40119 52011 60011 72191 83430;MET056LEMG 0000Z 03002KT 9999 SCT050 SCT090 05/03 Q1012 NOSIG;EQDQ01+000000PRSWM2Q02    003PRSWM1
0187084820999992000011501004+36670-004480FM-15+0007LEMG V0201001N001010210019N0080001N1+00601+00401999999ADDGA1021+006009999GA2071+021009999GF107991999999999999999999MA1101191999999MW1811REMMET061LEMG 0100Z 10002KT 8000 SHRA SCT020 BKN070 06/04 Q1012 NOSIG;EQDQ01+000003PRSWM1Q02    003PRSWM1
0210084820999992000011502004+36670-004480FM-15+0007LEMG V0201701N001010210019N0080001N1+00601+00301999999ADDGA1021+007509099GA2021+007509999GA3071+021009999GF107991999999999999999999MA1101191999999MW1631REMMET068LEMG 0200Z 17002KT 8000 RA FEW025CB SCT025 BKN070 06/03 Q1012 NOSIG;EQDQ01+000003PRSWM1Q02    003PRSWM1
0282084820999992000011503004+36670-004480SY-MT+000799999V0209999C00001024001CN0080001N1+00781+00691101201ADDAY151031AY221031GA1021+009009999GA2071+024009999GF108991041041008001021001MA1101191101111MD1110011+9999MW1611REMSYN076    AAXX  15034 08482 41558 80000 10078 20069 30111 40120 51001 76152 84420;MET060LEMG 0300Z 00000KT 8000 -RA SCT030 BKN080 06/04 Q1012 NOSIG;EQDQ01    003PRSWM1
0166084820999992000011504004+36670-004480FM-15+0007LEMG V0202801N003110240019N0112651N1+00501+00301999999ADDGA1021+010509999GA2071+024009999GF107991999999999999999999MA1101191999999MW1001REMMET056LEMG 0400Z 28006KT 9999 SCT035 BKN080 05/03 Q1012 NOSIG;EQDQ01+000000PRSWM2
0166084820999992000011505004+36670-004480FM-15+0007LEMG V0203101N002110240019N0112651N1+00301+00201999999ADDGA1021+010509999GA2071+024009999GF107991999999999999999999MA1101191999999MW1001REMMET056LEMG 0500Z 31004KT 9999 SCT035 BKN080 03/02 Q1012 NOSIG;EQDQ01+000000PRSWM2
0317084820999992000011506004+36670-004480SY-MT+000799999V0203201N00261220001MN0100001N1+00581+00491101271ADDAA112006191AY161061AY221061GA1021+012009999GF104991041041012501001001KA1120N+00581MA1101191101181MD1210071+9999MW1011REMSYN098    AAXX  15064 08482 11660 43205 10058 20049 30118 40127 52007 60062 70162 84400 333 20058 55064;MET049LEMG 0600Z 32005KT 9999 SCT040 03/01 Q1012 NOSIG;EQDQ01+000000PRSWM2Q02    003PRSWM1
0143084820999992000011507004+36670-004480FM-15+0007LEMG V0203201N003612200019N0112651N1+00301+00101999999ADDGA1021+010509999GF104991999999999999999999MA1101291999999MW1001REMMET049LEMG 0700Z 32007KT 9999 SCT035 03/01 Q1013 NOSIG;EQDQ01+000000PRSWM2
