0223110360999992000010100004+48120+016570FM-12+0190LOWW V0209999V00051015001CN0045001N1-00671-00731102701ADDAA106000091AY111061AY211061GA1011+018009069GF107991071051017501999999MA1999999100241MD1310021+9999MW1101REMSYN088AAXX  01004 11036 31745 79901 11067 21073 30024 40270 53002 71011 875// 333 81656 86657;EQDQ01  00002PRCP06
0199110360999992000010100504+48120+016570FM-15+0190LOWW V0203101N001010210019N0045001N1-00601-00601999999ADDGA1021+018009999GA2071+021009999GF107991999999999999999999MA1102511999999MW1481REMMET089LOWW 010050Z 31002KT 4500 5000E FZBR FEW060 BKN075 M06/M06 Q1025 NOSIG 1119//95 1615//95;EQDQ01    003PRSWM1
0170110360999992000010101504+48120+016570FM-15+0190LOWW V02099999999990210019N0025001N1-00701-00701999999ADDGA1071+021009999GF107991999999999999999999MA1102511999999MW1481REMMET076LOWW 010150Z VRB02KT 2500 FZBR BKN075 M07/M07 Q1025 NOSIG 1119//95 1615//95;EQDQ01    003PRSWM1
0170110360999992000010102504+48120+016570FM-15+0190LOWW V02099999999990210019N0022001N1-00701-00701999999ADDGA1071+021009999GF107991999999999999999999MA1102511999999MW1481REMMET076LOWW 010250Z VRB01KT 2200 FZBR BKN075 M07/M07 Q1025 NOSIG 1119//95 1615//95;EQDQ01    003PRSWM1
0187110360999992000010103004+48120+016570FM-12+0190LOWW V0209999V000510210019N0022001N1-00681-00731102751ADDAY111031AY211031GA1071+021009059GF107991071051022501999999MA1999999100291MD1010051+9999MW1101REMSYN082AAXX  01034 11036 41822 79901 11068 21073 30029 40275 50005 71011 875// 333 87657;
0170110360999992000010103504+48120+016570FM-15+0190LOWW V0202001N001510210019N0025001N1-00701-00701999999ADDGA1071+021009999GF107991999999999999999999MA1102611999999MW1481REMMET076LOWW 010350Z 20003KT 2500 FZBR BKN075 M07/M07 Q1026 NOSIG 1119//95 1615//95;EQDQ01    003PRSWM1
0197110360999992000010104504+48120+016570FM-15+0190LOWW V02099999999990210019N0030001N1-00701-00701999999ADDGA1021+013509999GA2071+021009999GF107991999999999999999999MA1102611999999MW1711REMMET087LOWW 010450Z VRB02KT 3000 -SN FZBR FEW045 BKN075 M07/M07 Q1026 NOSIG 1119//95 1615//95;EQDQ01    003PRSWM1
0203110360999992000010105504+48120+016570FM-15+0190LOWW V02099999999990210019N0027001N1-00601-00701999999ADDGA1021+010209999GA2071+021009999GF107991999999999999999999MA1102611999999MW1711REMMET093LOWW 010550Z VRB01KT 2700 6000E -SN FZBR SCT034 BKN075 M06/M07 Q1026 NOSIG 1119//95 1615//95;EQDQ01    003PRSWM1
0290110360999992000010106004+48120+016570FM-12+0190LOWW V0209999V000510210019N0027001N1-00631-00691102801ADDAA112000791AJ100089199999999AL10699999AY171061AY221061GA1041+010209069GA2061+021009069GF107991071051012501999999IA1279KA1120N-01061MA1999999100341MD1110051+9999MW1701REMSYN112AAXX  01064 11036 11627 79901 11063 21069 30034 40280 51005 69902 77072 875// 333 21106 43008 84634 86657 93197;
0193110360999992000010106504+48120+016570FM-15+0190LOWW V0202001N001010096019N0035001N1-00601-00601999999ADDGA1021+007509999GA2071+009609999GF107991999999999999999999MA1102611999999MW1481REMMET083LOWW 010650Z 20002KT 3500 FZBR FEW025 BKN032 M06/M06 Q1026 NOSIG 1119//95 1615//95;EQDQ01    003PRSWM1
0191110360999992000010107504+48120+016570FM-15+0190LOWW V02099999999990210019N0048001N1-00401-00501999999ADDGA1021+009609999GA2071+021009999GF107991999999999999999999MA1102611999999MW1101REMMET081LOWW 010750Z VRB01KT 4800 BR SCT032 BKN072 M04/M05 Q1026 NOSIG 1119//95 1615//95;EQDQ01    003PRSWM1
0191110360999992000010108504+48120+016570FM-15+0190LOWW V0209999C000010210019N0042001N1-00401-00501999999ADDGA1021+009909999GA2071+021009999GF107991999999999999999999MA1102711999999MW1101REMMET081LOWW 010850Z 00000KT 4200 BR FEW033 BKN072 M04/M05 Q1027 NOSIG 1119//95 1615//95;EQDQ01    003PRSWM1
0193110360999992000010109004+48120+016570FM-12+0190LOWW V0209999C00001012001CN0042001N1-00411-00501102851ADDAY171031AY221031GA1021+009909069GF107991071051012501999999MA1999999100411MD1310071+9999MW1101REMSYN088AAXX  01094 11036 41642 70000 11041 21050 30041 40285 53007 71072 875// 333 82633 87657;
0191110360999992000010109504+48120+016570FM-15+0190LOWW V0209999C000010180019N0036001N1-00301-00401999999ADDGA1021+010209999GA2071+018009999GF107991999999999999999999MA1102611999999MW1101REMMET081LOWW 010950Z 00000KT 3600 BR FEW034 BKN066 M03/M04 Q1026 NOSIG 1119//95 1615//95;EQDQ01    003PRSWM1
0191110360999992000010110504+48120+016570FM-15+0190LOWW V0201901N001510180019N0036001N1-00201-00301999999ADDGA1021+010209999GA2071+018009999GF107991999999999999999999MA1102511999999MW1101REMMET081LOWW 011050Z 19003KT 3600 BR FEW034 BKN066 M02/M03 Q1025 NOSIG 1119//95 1615//95;EQDQ01    003PRSWM1
0191110360999992000010111504+48120+016570FM-15+0190LOWW V0201401N001010180019N0036001N1-00101-00301999999ADDGA1021+009609999GA2071+018009999GF107991999999999999999999MA1102511999999MW1101REMMET081LOWW 011150Z 14002KT 3600 BR FEW032 BKN063 M01/M03 Q1025 NOSIG 1119//95 1615//95;EQDQ01    003PRSWM1
0210110360999992000010112004+48120+016570FM-12+0190LOWW V0201401N00051007501CN0036001N1-00111-00321102671ADDAA106000791AY171061AY221061GA1021+009609069GF107991071051008001999999MA1999999100261MD1810151+9999MW1101REMSYN094AAXX  01124 11036 11536 71401 11011 21032 30026 40267 58015 69901 71072 875// 333 82632 86656;
0191110360999992000010112504+48120+016570FM-15+0190LOWW V0209999C000010180019N0042001N1-00101-00301999999ADDGA1021+009609999GA2071+018009999GF107991999999999999999999MA1102511999999MW1101REMMET081LOWW 011250Z 00000KT 4200 BR FEW032 BKN063 M01/M03 Q1025 NOSIG 1119//95 1615//95;EQDQ01    003PRSWM1
0191110360999992000010113504+48120+016570FM-15+0190LOWW V0209999C000010180019N0042001N1+00001-00301999999ADDGA1021+009609999GA2071+018009999GF107991999999999999999999MA1102511999999MW1101REMMET081LOWW 011350Z 00000KT 4200 BR FEW032 BKN063 M00/M03 Q1025 NOSIG 1119//95 1615//95;EQDQ01    003PRSWM1
0191110360999992000010114504+48120+016570FM-15+0190LOWW V0201601N002110144019N0048001N1-00101-00201999999ADDGA1021+009609999GA2071+014409999GF107991999999999999999999MA1102401999999MW1101REMMET081LOWW 011450Z 16004KT 4800 BR FEW032 BKN048 M01/M02 Q1024 NOSIG 1119//95 1615//95;EQDQ01    003PRSWM1
0193110360999992000010115004+48120+016570FM-12+0190LOWW V0201601N00101007501CN0048001N1-00091-00241102611ADDAY121031AY221031GA1021+009609069GF108991081051008001999999MA1999999100201MD1710061+9999MW1101REMSYN088AAXX  01154 11036 41548 81602 11009 21024 30020 40261 57006 71022 885// 333 82632 87648;
0191110360999992000010115504+48120+016570FM-15+0190LOWW V02099999999990150019N0045001N1-00101-00201999999ADDGA1021+011109999GA2071+015009999GF107991999999999999999999MA1102401999999MW1101REMMET081LOWW 011550Z VRB01KT 4500 BR FEW037 BKN050 M01/M02 Q1024 NOSIG 1119//95 1615//95;EQDQ01    003PRSWM1
0226110360999992000010116504+48120+016570FM-15+0190LOWW V02099999999990270019N0045001N1-00101-00301999999ADDGA1021+009609999GA2021+013509999GA3071+027009999GF107991999999999999999999MA1102401999999MW1711REMMET100LOWW 011650Z VRB01KT 4500 -SN BR FEW032 SCT045 BKN090 M01/M03 Q1024 TEMPO 3000 SN 1119//95 1615//95;EQDQ01    003PRSWM1
0209110360999992000010117504+48120+016570FM-15+0190LOWW V0201801N001510090019N0032001N1-00201-00201999999ADDGA1021+008409999GA2071+009009999GF107991999999999999999999MA1102401999999MW1711REMMET099LOWW 011750Z 18003KT 3200 -SN BR SCT028 BKN030 M02/M02 Q1024 TEMPO 1000 SN VV010 1119//95 1615//95;EQDQ01    003PRSWM1
0229110360999992000010118004+48120+016570FM-12+0190LOWW V0201801N00101007501CN0032001N1-00181-00241102581ADDAA112000191AY171061AY221061GA1031+008409069GF108991081051008001999999KA1120M-00021MA1999999100171MD1810031+9999MW1711REMSYN100AAXX  01184 11036 11532 81802 11018 21024 30017 40258 58003 69912 77172 885// 333 11002 83628 86630;
0200110360999992000010118504+48120+016570FM-15+0190LOWW V0202001N002610066019N0023001N1-00201-00201999999ADDGA1021+005409999GA2071+006609999GF107991999999999999999999MA1102401999999MW1711REMMET090LOWW 011850Z 20005KT 2300 -SN BR FEW018 BKN022 M02/M02 Q1024 TEMPO 1000 SN VV010 8829//95;EQDQ01    003PRSWM1
0214110360999992000010119504+48120+016570FM-15+0190LOWW V0201801N003110045019N0017001N1-00201-00301999999ADDGA1021+003609999GA2071+004509999GA3071+006909999GF107991999999999999999999MA1102401999999MW1711REMMET088LOWW 011950Z 18006KT 1700 -SN BR SCT012 BKN015 BKN023 M02/M03 Q1024 RESN NOSIG 8829//95;EQDQ01    003PRSWM1
0236110360999992000010120204+48120+016570FM-15+0190LOWW V0201701N001510045019N0014001N1-00201-00201999999ADDED199U15009GA1021+003609999GA2071+004509999GF107991999999999999999999MA1102401999999MW1731REMMET115LOWW 012020Z 17003KT 1400 R16/P1500N R29/P1500U SN BR SCT012 BKN015 M02/M02 Q1024 TEMPO 2000 -SN 11590399 1629//95;EQDQ01    003PRSWM1
0225110360999992000010120504+48120+016570FM-15+0190LOWW V0201501N001510045019N0010001N1-00201-00201999999ADDED199U15009GA1021+003609999GA2071+004509999GF107991999999999999999999MA1102401999999MW1731REMMET104LOWW 012050Z 15003KT 1000 R16/P1500N SN BR SCT012 BKN015 M02/M02 Q1024 TEMPO 2000 -SN 11//99// 16590399;EQDQ01    003PRSWM1
0193110360999992000010121004+48120+016570FM-12+0190LOWW V0201501N00101004201CN0010001N1-00231-00251102541ADDAY171031AY271031GA1031+003609069GF108991081051004501999999MA1999999100121MD1810051+9999MW1731REMSYN088AAXX  01214 11036 41410 81502 11023 21025 30012 40254 58005 77377 885// 333 83612 87615;
0250110360999992000010121204+48120+016570FM-15+0190LOWW V02099999999990045019N0014001N1-00201-00301999999ADDED199U15009GA1021+001809999GA2021+003309999GA3071+004509999GF107991999999999999999999MA1102401999999MW1711REMMET113LOWW 012120Z VRB02KT 1400 R16/P1500N -SN BR FEW006 SCT011 BKN015 M02/M03 Q1024 RESN BECMG 2000 11//99// 16590399;EQDQ01    003PRSWM1
0225110360999992000010121504+48120+016570FM-15+0190LOWW V0201201N002110039019N0014001N1-00301-00301999999ADDED199U15009GA1021+001809999GA2071+003909999GF107991999999999999999999MA1102401999999MW1731REMMET104LOWW 012150Z 12004KT 1400 R29/P1500N SN BR FEW006 BKN013 M03/M03 Q1024 BECMG 2000 -SN 11490437 16//99//;EQDQ01    003PRSWM1
0248110360999992000010122204+48120+016570FM-15+0190LOWW V0201301N001510039019N0014001N1-00301-00301999999ADDED199U15009GA1021+002109999GA2071+003909999GA3071+005409999GF107991999999999999999999MA1102401999999MW1731REMMET111LOWW 012220Z 13003KT 1400 R29/P1500N SN BR FEW007 BKN013 BKN018 M03/M03 Q1024 BECMG 2000 -SN 11490437 16//99//;EQDQ01    003PRSWM1
0241110360999992000010123204+48120+016570FM-15+0190LOWW V0201501N001510039019N0014001N1-00301-00301999999ADDED199U15009GA1021+002109999GA2071+003909999GF107991999999999999999999MA1102301999999MW1711REMMET120LOWW 012320Z 15003KT 1400 R29/P1500N -SN BR FEW007 BKN013 M03/M03 Q1023 RESN BECMG 1500 SCT013 BKN016 11490437 16//99//;EQDQ01    003PRSWM1
0229110360999992000010123504+48120+016570FM-15+0190LOWW V0201601N001510042019N0014001N1-00301-00301999999ADDED199U15009GA1021+002109999GA2071+004209999GF107991999999999999999999MA1102301999999MW1711REMMET108LOWW 012350Z 16003KT 1400 R29/P1500N -SN BR FEW007 BKN014 M03/M03 Q1023 BECMG 1500 BKN015 11490437 16//99//;EQDQ01    003PRSWM1
0210110360999992000010200004+48120+016570FM-12+0190LOWW V0201601N00101002101CN0014001N1-00321-00341102521ADDAA106004191AY171061AY271061GA1011+002109079GF108991081051002501999999MA1999999100101MD1810021+9999MW1711REMSYN094AAXX  02004 11036 11314 81602 11032 21034 30010 40252 58002 60041 77177 885// 333 81707 87614;
0225110360999992000010200504+48120+016570FM-15+0190LOWW V0201701N002110036019N0016001N1-00401-00401999999ADDGA1021+001809999GA2071+003609999GF107991999999999999999999MA1102401999999MW1101MW2711REMMET093LOWW 020050Z 17004KT 1600 -SN BR FEW006 BKN012 M04/M04 Q1024 TEMPO 1400 SN 11491220 16490528;EQDQ01+000003PRSWM1Q02    003PRSWM1
0246110360999992000010201504+48120+016570FM-15+0190LOWW V0201201N001010036019N0015001N1-00301-00401999999ADDGA1021+002109999GA2071+003609999GF107991999999999999999999KA1999M+99999MA1102401999999MW1101MW2711REMMET085LOWW 020150Z 12002KT 1500 -SN BR FEW007 BKN012 M03/M04 Q1024 NOSIG 11491220 16490528;EQDQ01+000003PRSWM1Q02    003PRSWM1Q03 -04912ATMX  
0217110360999992000010202504+48120+016570FM-15+0190LOWW V0201301N001010039019N0015001N1-00401-00401999999ADDGA1021+002109999GA2071+003909999GF107991999999999999999999MA1102401999999MW1101MW2711REMMET085LOWW 020250Z 13002KT 1500 -SN BR FEW007 BKN013 M04/M04 Q1024 NOSIG 11//99// 16490338;EQDQ01+000003PRSWM1Q02    003PRSWM1
0193110360999992000010203004+48120+016570FM-12+0190LOWW V0201301N00051002101CN0015001N1-00381-00401102591ADDAY171031AY271031GA1021+002109079GF108991081051002501999999MA1999999100161MD1310061+9999MW1711REMSYN088AAXX  02034 11036 41315 81301 11038 21040 30016 40259 53006 77177 885// 333 82707 87613;
0232110360999992000010203504+48120+016570FM-15+0190LOWW V0201301N003110036019N0012001N1-00401-00401999999ADDED199U15009GA1021+002409999GA2071+003609999GF107991999999999999999999MA1102511999999MW1101MW2731REMMET089LOWW 020350Z 13006KT 1200 R29/P1500N SN BR FEW008 BKN012 M04/M04 Q1025 11//99// 16490338;EQDQ01+000003PRSWM1Q02    003PRSWM1
0222110360999992000010204504+48120+016570FM-15+0190LOWW V0201601N001510036019N0015001N1-00401-00401999999ADDGA1021+002409999GA2071+003609999GF107991999999999999999999MA1102511999999MW1101MW2711REMMET090LOWW 020450Z 16003KT 1500 -SN BR FEW008 BKN012 M04/M04 Q1025 RESN NOSIG 11//99// 16490338;EQDQ01+000003PRSWM1Q02    003PRSWM1
0246110360999992000010205504+48120+016570FM-15+0190LOWW V0201501N001010033019N0016001N1-00401-00401999999ADDGA1021+002709999GA2071+003309999GF107991999999999999999999KA1999M+99999MA1102611999999MW1101MW2711REMMET085LOWW 020550Z 15002KT 1600 -SN BR SCT009 BKN011 M04/M04 Q1026 NOSIG 11490337 16//99//;EQDQ01+000003PRSWM1Q02    003PRSWM1Q03 -04902ATMX  
0290110360999992000010206004+48120+016570FM-12+0190LOWW V0201501N000510033019N0016001N1-00381-00401102791ADDAA112010991AJ100159199999999AL10600791AY171061AY271061GA1031+002709079GA2071+003309069GF108991081051002501999999IA1239KA1120N-00401MA1999999100351MD1210191+9999MW1711REMSYN112AAXX  02064 11036 11316 81501 11038 21040 30035 40279 52019 60112 77177 885// 333 21040 47015 83709 87611 93107;
0236110360999992000010206504+48120+016570FM-15+0190LOWW V0201301N001510033019N0020001N1-00401-00401999999ADDGA1021+002409999GA2071+003309999GF107991999999999999999999KA1999M+99999MA1102711999999MW1101REMMET081LOWW 020650Z 13003KT 2000 BR FEW008 BKN011 M04/M04 Q1027 NOSIG 11490337 16//99//;EQDQ01+000003PRSWM1Q02    003PRSWM1Q03 -04902ATMX  
0231110360999992000010207504+48120+016570FM-15+0190LOWW V0201301N001510030019N0020001N1-00301-00401999999ADDGA1021+002409999GA2071+003009999GF107991999999999999999999MA1102811999999MW1101MW2711REMMET099LOWW 020750Z 13003KT 2000 -SN BR FEW008 BKN010 M03/M04 Q1028 TEMPO FEW006 BKN009 11490337 16//99//;EQDQ01+000003PRSWM1Q02    003PRSWM1
0246110360999992000010208504+48120+016570FM-15+0190LOWW V0209999C000010027019N0018001N1-00301-00301999999ADDGA1021+002409999GA2081+002709999GF108991999999999999999999KA1999M+99999MA1102811999999MW1101MW2711REMMET085LOWW 020850Z 00000KT 1800 -SN BR FEW008 OVC009 M03/M03 Q1028 NOSIG 11490337 16490334;EQDQ01+000003PRSWM1Q02    003PRSWM1Q03 -04902ATMX  
0193110360999992000010209004+48120+016570FM-12+0190LOWW V0209999C00001002101CN0018001N1-00301-00321103031ADDAY171031AY271031GA1011+002409079GF108991081071002501999999MA1999999100591MD1210241+9999MW1711REMSYN088AAXX  02094 11036 41318 80000 11030 21032 30059 40303 52024 77177 887// 333 81708 88709;
0217110360999992000010209504+48120+016570FM-15+0190LOWW V0209999C000010030019N0018001N1-00201-00301999999ADDGA1021+002409999GA2081+003009999GF108991999999999999999999MA1102911999999MW1101MW2711REMMET085LOWW 020950Z 00000KT 1800 -SN BR FEW008 OVC010 M02/M03 Q1029 NOSIG 11//99// 16490334;EQDQ01+000003PRSWM1Q02    003PRSWM1
0239110360999992000010210504+48120+016570FM-15+0190LOWW V02099999999990033019N0014001N1-00201-00201999999ADDED199U15009GA1021+002709999GA2071+003309999GF107991999999999999999999MA1102911999999MW1101MW2711REMMET096LOWW 021050Z VRB01KT 1400 R16/P1500N -SN BR FEW009 BKN011 M02/M02 Q1029 NOSIG 11//99// 16490334;EQDQ01+000003PRSWM1Q02    003PRSWM1
0249110360999992000010211504+48120+016570FM-15+0190LOWW V02099999999990033019N0013001N1-00201-00301999999ADDED199U15009GA1021+002409999GA2081+003309999GF108991999999999999999999MA1102911999999MW1101MW2711REMMET106LOWW 021150Z VRB02KT 1300 R16/P1500N -SN BR FEW008 OVC011 M02/M03 Q1029 TEMPO SN BKN008 11//99// 16490334;EQDQ01+000003PRSWM1Q02    003PRSWM1
0210110360999992000010212004+48120+016570FM-12+0190LOWW V0209999V00051002101CN0013001N1-00241-00261103061ADDAA106000191AY171061AY271061GA1021+002409079GF108991081071002501999999MA1999999100631MD1110041+9999MW1711REMSYN094AAXX  02124 11036 11313 89901 11024 21026 30063 40306 51004 69921 77177 887// 333 82708 88711;
0294110360999992000010213204+48120+016570FM-15+0190LOWW V0201701N001510027019N0010001N1-00201-00201999999ADDED199U14009GA1021+001809999GA2021+002109999GA3081+002709999GF108991999999999999999999MA1102911999999MW1101MW2711REMMET135LOWW 021320Z 17003KT 1000 R16/1400N R29/P1500N -SN BR FEW006 SCT007 OVC009 M02/M02 Q1029 TEMPO 0700 SN FEW005 BKN006 11290170 16290238;EQDQ01+000003PRSWM1Q02    003PRSWM1
0263110360999992000010213504+48120+016570FM-15+0190LOWW V0201601N001010033019N0011001N1-00201-00201999999ADDED199U14009GA1021+002109999GA2081+003309999GF108991999999999999999999MA1102911999999MW1101MW2711REMMET120LOWW 021250Z 16002KT 1100 R16/1400N R29/P1500N -SN BR FEW007 OVC011 M02/M02 Q1029 TEMPO FEW006 OVC008 11290170 16290238;EQDQ01+000003PRSWM1Q02    003PRSWM1
0279110360999992000010214204+48120+016570FM-15+0190LOWW V0201801N002110027019N0011001N1-00201-00201999999ADDED199U15009GA1021+002109999GA2081+002709999GF108991999999999999999999KA1999M+99999MA1102911999999MW1101MW2711REMMET107LOWW 021420Z 18004KT 1100 R16/P1500U R29/P1500N -SN BR SCT007 OVC009 M02/M02 Q1029 NOSIG 11290170 16290238;EQDQ01+000003PRSWM1Q02    003PRSWM1Q03 -02902ATMX  
0294110360999992000010214504+48120+016570FM-15+0190LOWW V0201601N001510027019N0010001N1-00201-00201999999ADDED199U15009GA1021+001809999GA2021+002109999GA3081+002709999GF108991999999999999999999MA1102911999999MW1101REMMET141LOWW 021350Z 16003KT 1000 R16/P1500N R29/1400VP1500D -SN BR FEW006 SCT007 OVC009 M02/M02 Q1029 TEMPO 0700 FG FEW003 BKN006 11290170 16290238;EQDQ01+000003PRSWM1Q02    003PRSWM1
0193110360999992000010215004+48120+016570FM-12+0190LOWW V0201801N001010018019N0013001N1-00231-00251103121ADDAY171031AY271031GA1051+001809079GF108991081051001501999999MA1999999100691MD1310061+9999MW1711REMSYN088AAXX  02154 11036 41213 81802 11023 21025 30069 40312 53006 77177 885// 333 85706 87633;
0297110360999992000010215204+48120+016570FM-15+0190LOWW V0202001N002110105019N0013001N1-00201-00201999999ADDED199U15009GA1021+002709999GA2071+010509999GA3071+012009999GF107991999999999999999999MA1103011999999MW1101MW2711REMMET138LOWW 021520Z 20004KT 160V230 1300 R16/P1500N R29/P1500N -SN BR SCT009 BKN035 BKN040 M02/M02 Q1030 TEMPO 30008KT 1500 BR 11290170 16290238;EQDQ01+000003PRSWM1Q02    003PRSWM1
0269110360999992000010215504+48120+016570FM-15+0190LOWW V0201801N001510018019N0013001N1-00201-00201999999ADDED199U15009GA1071+001809999GA2071+009909999GF107991999999999999999999MA1102911999999MW1101MW2711REMMET126LOWW 021450Z 18003KT 1300 R16/P1500N R29/P1500N -SN BR BKN006 BKN033 M02/M02 Q1029 TEMPO 1500 SCT006 BKN033 11290170 16290238;EQDQ01+000003PRSWM1Q02    003PRSWM1
0245110360999992000010216204+48120+016570FM-15+0190LOWW V02099999999990123019N0014001N1-00201-00201999999ADDED199U15009GA1021+003309999GA2071+012309999GF107991999999999999999999MA1103011999999MW1101REMMET108LOWW 021620Z VRB02KT 1400 R16/P1500N R29/P1500N BR FEW011 BKN041 M02/M02 Q1030 BECMG 1500 11490137 16//99//;EQDQ01+000003PRSWM1Q02    003PRSWM1
0296110360999992000010216504+48120+016570FM-15+0190LOWW V0201801N001510114019N0013001N1-00201-00201999999ADDED199U15009GA1021+003009999GA2071+011409999GA3081+012609999GF108991999999999999999999KA1999M+99999MA1103011999999MW1711REMMET114LOWW 021550Z 18003KT 1300 R16/P1500N R29/P1500N -SN BR FEW010 BKN038 OVC042 M02/M02 Q1030 NOSIG 11290170 16290238;EQDQ01+000003PRSWM1Q02    003PRSWM1Q03 -02902ATMX  
0229110360999992000010218004+48120+016570FM-12+0190LOWW V0201901N00151007501CN0014001N1-00201-00221103151ADDAA112001091AY171061AY221061GA1031+009609069GF108991081051008001999999KA1120M-00181MA1999999100721MD1010031+9999MW1021REMSYN100AAXX  02184 11036 11514 81903 11020 21022 30072 40315 50003 60012 70272 885// 333 11018 83632 87642;
0240110360999992000010218204+48120+016570FM-15+0190LOWW V0202001N002110126019N0014001N1-00201-00201999999ADDED199U15009GA1021+009609999GA2071+012609999GF107991999999999999999999MA1103011999999MW1101REMMET103LOWW 021820Z 20004KT 1400 R16/P1500N R29/P1500N BR SCT032 BKN042 M02/M02 Q1030 NOSIG 1129//68 16290169;EQDQ01+000003PRSWM1Q02    003PRSWM1
0240110360999992000010218504+48120+016570FM-15+0190LOWW V0201901N002610126019N0014001N1-00201-00201999999ADDED199U15009GA1021+009609999GA2071+012609999GF107991999999999999999999MA1103011999999MW1101REMMET103LOWW 021750Z 19005KT 1400 R16/P1500N R29/P1500N BR SCT032 BKN042 M02/M02 Q1030 NOSIG 1129//68 16290169;EQDQ01+000003PRSWM1Q02    003PRSWM1
0240110360999992000010219204+48120+016570FM-15+0190LOWW V0201701N001510117019N0014001N1-00201-00201999999ADDED199U15009GA1021+009609999GA2071+011709999GF107991999999999999999999MA1103011999999MW1101REMMET103LOWW 021920Z 17003KT 1400 R16/P1500N R29/P1500N BR SCT032 BKN039 M02/M02 Q1030 NOSIG 1129//68 16290169;EQDQ01+000003PRSWM1Q02    003PRSWM1
0240110360999992000010219504+48120+016570FM-15+0190LOWW V0201601N001010117019N0014001N1-00201-00201999999ADDED199U15009GA1021+009609999GA2071+011709999GF107991999999999999999999MA1103011999999MW1101REMMET103LOWW 021850Z 16002KT 1400 R16/P1500N R29/P1500N BR SCT032 BKN039 M02/M02 Q1030 NOSIG 1129//68 16290169;EQDQ01+000003PRSWM1Q02    003PRSWM1
0239110360999992000010220204+48120+016570FM-15+0190LOWW V0202001N003110117019N0014001N1-00101-00201999999ADDED199U15009GA1021+009609999GA2071+011709999GF107991999999999999999999MA1103011999999MW1101REMMET102LOWW 022020Z 20006KT 1400 R16/P1500N R29/P1500 BR SCT032 BKN039 M01/M02 Q1030 NOSIG 1129//68 16290169;EQDQ01+000003PRSWM1Q02    003PRSWM1
0240110360999992000010220504+48120+016570FM-15+0190LOWW V0201701N001510117019N0014001N1-00201-00201999999ADDED199U15009GA1021+009609999GA2071+011709999GF107991999999999999999999MA1103011999999MW1101REMMET103LOWW 021950Z 17003KT 1400 R16/P1500N R29/P1500N BR SCT032 BKN039 M02/M02 Q1030 NOSIG 1129//68 16290169;EQDQ01+000003PRSWM1Q02    003PRSWM1
0193110360999992000010221004+48120+016570FM-12+0190LOWW V0209999V00101007501CN0018001N1-00111-00131103181ADDAY121031AY221031GA1031+009609069GF108991081051008001999999MA1999999100761MD1110041+9999MW1101REMSYN088AAXX  02214 11036 41518 89902 11011 21013 30076 40318 51004 71022 885// 333 83632 87639;
0207110360999992000010221204+48120+016570FM-15+0190LOWW V02099999999990111019N0022001N1-00101-00101999999ADDGA1021+008709999GA2071+011109999GF107991999999999999999999MA1103011999999MW1101REMMET081LOWW 022120Z VRB02KT 2200 BR FEW029 BKN037 M01/M01 Q1030 NOSIG 1129//68 16290169;EQDQ01+000003PRSWM1Q02    003PRSWM1
0240110360999992000010221504+48120+016570FM-15+0190LOWW V02099999999990117019N0018001N1-00101-00101999999ADDED199U15009GA1021+009609999GA2071+011709999GF107991999999999999999999MA1103011999999MW1101REMMET103LOWW 022050Z VRB03KT 1800 R16/P1500N R29/P1500N BR SCT032 BKN039 M01/M01 Q1030 NOSIG 1129//68 16290169;EQDQ01+000003PRSWM1Q02    003PRSWM1
0187110360999992000010222504+48120+016570FM-15+0190LOWW V0203201N001010111019N0112651N1+00101+00001999999ADDGA1021+008709999GA2071+011109999GF107991999999999999999999MA1103011999999MW1001REMMET077LOWW 022250Z 32002KT 9999 FEW029 BKN037 01/M00 Q1030 NOSIG 1129//68 16290169;EQDQ01+000000PRSWM2
0165110360999992000010223504+48120+016570FM-15+0190LOWW V02099999999992200019N0112651N1-00101-00201999999ADDGA1021+010509999GF104991999999999999999999MA1102911999999MW1001REMMET071LOWW 022350Z VRB03KT 9999 SCT035 M01/M02 Q1029 NOSIG 1129//68 16290169;EQDQ01+000000PRSWM2
0189110360999992000010300004+48120+016570FM-12+0190LOWW V0209999V001012200019N0120001N1-00131-00171103091ADDAA106000091GA1031+010509059GF103991031051012501001001MA1999999100671MD1810091+9999REMSYN076AAXX  03004 11036 32662 39902 11013 21017 30067 40309 58009 83500 333 83635;EQDQ01  00002PRCP06
0188110360999992000010300504+48120+016570FM-15+0190LOWW V02099999999992200019N0112651N1-00201-00201999999ADDGA1021+010509999GA2021+090009999GF104991999999999999999999MA1103011999999MW1001REMMET078LOWW 030050Z VRB02KT 9999 FEW035 SCT300 M02/M02 Q1030 NOSIG 1129//68 16290169;EQDQ01+000000PRSWM2
0248110360999992000010301204+48120+016570FM-15+0190LOWW V02099999999992200019N0006001N1-00301-00301999999ADDED199U15009GA1021+010509999GA2021+090009999GF104991999999999999999999MA1102911999999MW1121REMMET111LOWW 030120Z VRB01KT 0600 9999W R16/P1500N R29/P1500N MIFG FEW035 SCT300 M03/M03 Q1029 NOSIG 1129//68 16290169;EQDQ01+000003PRSWM1Q02    003PRSWM1
0257110360999992000010302204+48120+016570FM-15+0190LOWW V0201901N002612200019N0001001N1-00701-00701999999ADDED199U02259GA1021+000609999GA2021+090009999GF104991999999999999999999MA1102911999999MW1411REMMET120LOWW 030220Z 19005KT 0100 6000W R16/0225N R29/0700VP1500U PRFG FEW002 SCT300 M07/M07 Q1029 TEMPO 0400 1129//68 16290169;EQDQ01+000003PRSWM1Q02    003PRSWM1
0253110360999992000010302504+48120+016570FM-15+0190LOWW V0201901N003112200019N0006001N1-00601-00701999999ADDED199U15009GA1021+010509999GA2021+090009999GF104991999999999999999999MA1102911999999MW1411REMMET116LOWW 030150Z 19006KT 0600 9999W R16/P1500N R29/P1500N BCFG FEW035 SCT300 M06/M07 Q1029 TEMPO 0300 1129//68 16290169;EQDQ01+000003PRSWM1Q02    003PRSWM1
0193110360999992000010303004+48120+016570FM-12+0190LOWW V0202001N001512200019N0001001N1-00681-00691103091ADDAY141031AY241031GA1011+000609079GF104991011061000751001021MA1999999100621MD1810051+9999MW1411REMSYN088AAXX  03034 11036 41101 42003 11068 21069 30062 40309 58005 74144 81602 333 81702 84080;
0247110360999992000010303204+48120+016570FM-15+0190LOWW V0202201N002112200019N0001001N1-00601-00701999999ADDED199U05509GA1021+000609999GA2021+090009999GF104991999999999999999999MA1102911999999MW1411REMMET110LOWW 030320Z 22004KT 0100 5000W R16/0550N R29/P1500N PRFG FEW002 SCT300 M06/M07 Q1029 NOSIG 1129//68 16290169;EQDQ01+000003PRSWM1Q02    003PRSWM1
0247110360999992000010303504+48120+016570FM-15+0190LOWW V0202001N003112200019N0001001N1-00701-00701999999ADDGA1021+000609999GA2021+090009999GF104991999999999999999999MA1102911999999MW1411REMMET121LOWW 030250Z 20006KT 0100 6000W R16/0450VP1500U R29/P1500N BCFG FEW002 SCT300 M07/M07 Q1029 TEMPO 0400 1129//68 16290169;EQDQ01+000003PRSWM1Q02    003PRSWM1
0240110360999992000010304204+48120+016570FM-15+0190LOWW V0201601N002112200019N0001001N1-00901-00901999999ADDED199U02759GA1021+000609999GA2021+090009999GF104991999999999999999999MA1102811999999MW1481REMMET103LOWW 030420Z 16004KT 0100 R16/0275N R29/0325N FZFG SCT002 SCT300 M09/M09 Q1028 NOSIG 1175//53 1671//58;EQDQ01+000003PRSWM1Q02    003PRSWM1
0253110360999992000010304504+48120+016570FM-15+0190LOWW V0201801N002112200019N0001001N1-00801-00801999999ADDED199U03759GA1021+000609999GA2021+090009999GF104991999999999999999999MA1102911999999MW1481REMMET116LOWW 030350Z 18004KT 0100 R16/0375N R29/0275VP1500D FZFG SCT002 SCT300 M08/M08 Q1029 TEMPO BKN002 1175//53 1671//58;EQDQ01+000003PRSWM1Q02    003PRSWM1
0238110360999992000010305204+48120+016570FM-15+0190LOWW V02099999999992200019N0002001N1-00901-00901999999ADDED199U04509GA1021+000609999GA2021+090009999GF104991999999999999999999MA1102911999999MW1001REMMET117LOWW 030520Z VRB02KT 0200 3200W R16/0450N R29/1300VP1500U FZBCFG FEW002 SCT300 M09/M09 Q1029 NOSIG 1175//53 1671//58;EQDQ01+000000PRSWM2
0287110360999992000010306004+48120+016570FM-12+0190LOWW V0201801N001012200019N0002001N1-00841-00871103081ADDAA106000091AJ100159199999999AL19900191AY141061AY241061GA1011+039009039GF103991011001999999031021IA1289KA1120N-00931MA1999999100591MD1610031+9999MW1411REMSYN106AAXX  03064 11036 31902 31802 11084 21087 30059 40308 56003 74144 81032 333 21093 44015 81363 93101 93402;EQDQ01  00002PRCP06
0193110360999992000010306204+48120+016570FM-15+0190LOWW V0201801N002112200019N0002001N1-00901-00901999999ADDED199U04509GA1021+039009999GF102991999999999999999999MA1102911999999MW1001REMMET088LOWW 030620Z 18004KT 0200 3200NW R16/0450U R29/P1500N FZPRFG FEW130 M09/M09 Q1029 NOSIG;EQDQ01+000000PRSWM2
0198110360999992000010306504+48120+016570FM-15+0190LOWW V0201801N002112200019N0002001N1-00801-00901999999ADDED199U06009GA1021+039009999GF102991999999999999999999MA1102811999999MW1001REMMET093LOWW 030550Z 18004KT 0200 3200NW R16/0600N R29/0500VP1500D FZBCFG FEW130 M08/M09 Q1028 NOSIG;EQDQ01+000000PRSWM2
0240110360999992000010307204+48120+016570FM-15+0190LOWW V0201701N003112200019N0002001N1-01001-01101999999ADDED199U02009GA1021+039009999GA2021+090009999GF104991999999999999999999MA1102811999999MW1481REMMET103LOWW 030720Z 17006KT 0200 R11/0200N R16/0350N FZFG FEW130 SCT300 M10/M11 Q1028 NOSIG 1175//53 1671//58;EQDQ01+000003PRSWM1Q02    003PRSWM1
0234110360999992000010307504+48120+016570FM-15+0190LOWW V0201801N002612200019N0002001N1-01001-01101999999ADDED199U03759GA1021+039009999GA2021+090009999GF104991999999999999999999MA1102911999999MW1001REMMET113LOWW 030650Z 18005KT 0200 2000NW R16/0375N R29/P1500N FZPRFG FEW130 SCT300 M10/M11 Q1029 NOSIG 1175//53 1671//58;EQDQ01+000000PRSWM2
0234110360999992000010308204+48120+016570FM-15+0190LOWW V02099999999992200019N0002001N1-00801-00901999999ADDGA1021+000309999GA2021+084009999GF104991999999999999999999MA1102911999999MW1001REMMET124LOWW 030820Z VRB02KT 0200 3500NW R16/0400VP1500U R29/P1500N FZBCFG FEW001 SCT280 M08/M09 Q1029 BECMG 0600 1175//53 1671//58;EQDQ01+000000PRSWM2
0253110360999992000010308504+48120+016570FM-15+0190LOWW V0202001N002110003019N0001001N1-01001-01101999999ADDED199U15009GA1021+000159999GA2071+000309999GF107991999999999999999999MA1102911999999MW1481REMMET116LOWW 030750Z 20004KT 0100 R11/P1500D R16/0325N FZFG FEW000 BKN001 M10/M11 Q1029 BECMG 0600 SCT001 1175//53 1671//58;EQDQ01+000003PRSWM1Q02    003PRSWM1
0215110360999992000010309004+48120+016570FM-12+0190LOWW V0201001N00051090001CN0002001N1-00861-00911103111ADDAY141031AY241031GA1011+000309079GA2031+000909079GF107991041061000251001021MA1999999100621MD1110031+9999MW1481REMSYN094AAXX  03094 11036 41002 71001 11086 21091 30062 40311 51003 74844 84602 333 81701 83703 85078;
0247110360999992000010309204+48120+016570FM-15+0190LOWW V0209999C000010015019N0003001N1-00701-00801999999ADDED199U15009GA1021+000309999GA2071+001509999GF107991999999999999999999MA1102911999999MW1001REMMET126LOWW 030920Z 00000KT 0300 2500NW R16/P1500N R29/P1500N FZBCFG FEW001 BKN005 M07/M08 Q1029 BECMG 0600 SCT001 1175//53 1671//58;EQDQ01+000000PRSWM2
0261110360999992000010309504+48120+016570FM-15+0190LOWW V0201001N000510840019N0002001N1-00901-00901999999ADDGA1021+000309999GA2021+000909999GA3071+084009999GF107991999999999999999999MA1102911999999MW1001REMMET135LOWW 030850Z 10001KT 0200 1800NW R16/0325V1100U R29/0550VP1500D FZPRFG FEW001 SCT003 BKN280 M09/M09 Q1029 BECMG 0600 1175//53 1671//58;EQDQ01+000000PRSWM2
0238110360999992000010310204+48120+016570FM-15+0190LOWW V0201801N001510015019N0002001N1-00601-00601999999ADDGA1021+000309999GA2071+001509999GF107991999999999999999999MA1102811999999MW1001REMMET128LOWW 031020Z 18003KT 0200 1600NE R16/1300VP1500D R29/0325V0900U FZBCFG SCT001 BKN005 M06/M06 Q1028 BECMG 0600 1175//53 1671//58;EQDQ01+000000PRSWM2
0237110360999992000010310504+48120+016570FM-15+0190LOWW V02099999999990012019N0003001N1-00601-00601999999ADDED199U15009GA1021+000309999GA2071+001209999GF107991999999999999999999MA1102911999999MW1001REMMET116LOWW 030950Z VRB01KT 0300 R16/P1500N R29/0550V1000U FZPRFG SCT001 BKN004 M06/M06 Q1029 BECMG 0600 1175//53 1671//58;EQDQ01+000000PRSWM2
0253110360999992000010311204+48120+016570FM-15+0190LOWW V0201801N001010900019N0004001N1-00601-00601999999ADDED199U03259GA1021+000159999GA2021+000609999GA3071+090009999GF107991999999999999999999MA1102811999999MW1481REMMET100LOWW 031120Z 18002KT 0400 R16/0325U FZFG FEW000 SCT002 BKN300 M06/M06 Q1028 NOSIG 1175//53 1671//58;EQDQ01+000003PRSWM1Q02    003PRSWM1
0251110360999992000010311504+48120+016570FM-15+0190LOWW V0201901N001510900019N0002001N1-00601-00601999999ADDGA1021+000159999GA2021+000609999GA3071+090009999GF107991999999999999999999MA1102811999999MW1001REMMET125LOWW 031050Z 19003KT 0200 R16/0400VP1500D R29/0900N FZPRFG FEW000 SCT002 BKN300 M06/M06 Q1028 TEMPO BKN002 1175//53 1671//58;EQDQ01+000003PRSWM1
0211110360999992000010312004+48120+016570FM-12+0190LOWW V0201701N000510001519N0001001N1-00601-00611102961ADDAA106000091AY141061AY241061GA1091+000159999GF109991091999999999999999MA1999999100501MD1810121+9999MW1491REMSYN076AAXX  03124 11036 31/01 91701 11060 21061 30050 40296 58012 74944 333 89/00;EQDQ01  00002PRCP06
0218110360999992000010312504+48120+016570FM-15+0190LOWW V0201601N001010001519N0001501N1-00401-00401999999ADDED199U15009GA1091+000159999GF109991999999000251999999MA1102711999999MW1491MW2771REMMET091LOWW 031250Z 16002KT 0150 R11/P1500N R16/0200N -SG FZFG VV000 M04/M04 Q1027 NOSIG 8819//95;EQDQ01+000003PRSWM1Q02    003PRSWM1
0240110360999992000010314204+48120+016570FM-15+0190LOWW V02099999999990900019N0001501N1-00501-00601999999ADDGA1021+000159999GA2071+090009999GF107991999999999999999999MA1102611999999MW1481REMMET114LOWW 031420Z VRB01KT 0150 R11/0225VP1500N R16/0150V0450U FZFG SCT000 BKN300 M05/M06 Q1026 WS RWY16 NOSIG 8819//95;EQDQ01+000003PRSWM1Q02    003PRSWM1
0219110360999992000010314504+48120+016570FM-15+0190LOWW V0201501N00101220001CN0001001N1-00501-00501999999ADDED199U15009GA1071+000159999GF107991999999999999999999MA1102711999999MW1481MW2771REMMET092LOWW 031350Z 15002KT 0100 R11/P1500N R16/0150N -SG FZFG BKN000 M05/M05 Q1027 NOSIG 8819//95;EQDQ01+000003PRSWM1Q02    003PRSWM1
0187110360999992000010315004+48120+016570FM-12+0190LOWW V0209999V000510001519N0001001N1-00611-00621102851ADDAY171031AY241031GA1061+000159069GF107991061061000251001011MA1999999100391MD1610111+9999MW1481REMSYN082AAXX  03154 11036 41001 79901 11061 21062 30039 40285 56011 74874 86601 333 86700;
0216110360999992000010315204+48120+016570FM-15+0190LOWW V02099999999990001519N0001001N1-00601-00601999999ADDED199U02259GA1091+000159999GF109991999999000251999999MA1102611999999MW1491REMMET095LOWW 031520Z VRB03KT 0100 R11/0225N R16/0275N FZFG VV000 M06/M06 Q1026 WS RWY16 NOSIG 8819//95;EQDQ01+000003PRSWM1Q02    003PRSWM1
0216110360999992000010315504+48120+016570FM-15+0190LOWW V0201501N001010001519N0001001N1-00501-00501999999ADDED199U02759GA1091+000159999GF109991999999000251999999MA1102611999999MW1491REMMET095LOWW 031550Z 15002KT 0100 R16/0275N R29/0250N FZFG VV000 M05/M05 Q1026 WS RWY16 NOSIG 8819//95;EQDQ01+000003PRSWM1Q02    003PRSWM1
0207110360999992000010316504+48120+016570FM-15+0190LOWW V02099999999990001519N0001001N1-00501-00501999999ADDED199U02759GA1091+000159999GF109991999999000251999999MA1102611999999MW1491REMMET086LOWW 031650Z VRB02KT 0100 R16/0275N R29/0250N FZFG VV000 M05/M05 Q1026 NOSIG 8819//95;EQDQ01+000003PRSWM1Q02    003PRSWM1
0207110360999992000010317504+48120+016570FM-15+0190LOWW V02099999999990001519N0001001N1-00501-00501999999ADDED199U02759GA1091+000159999GF109991999999000251999999MA1102611999999MW1491REMMET086LOWW 031750Z VRB03KT 0100 R16/0275N R29/0325N FZFG VV000 M05/M05 Q1026 NOSIG 8819//95;EQDQ01+000003PRSWM1Q02    003PRSWM1
0207110360999992000010318504+48120+016570FM-15+0190LOWW V02099999999990001519N0001001N1-00601-00601999999ADDED199U03759GA1091+000159999GF109991999999000251999999MA1102611999999MW1491REMMET086LOWW 031850Z VRB01KT 0100 R16/0375N R29/0275N FZFG VV000 M06/M06 Q1026 NOSIG 8819//95;EQDQ01+000003PRSWM1Q02    003PRSWM1
0211110360999992000010320204+48120+016570FM-15+0190LOWW V0202701N002612200019N0008001N1-00701-00701999999ADDED199U15009GA1021+001809999GF104991999999999999999999MA1102611999999MW1001REMMET106LOWW 032020Z 27005KT 0800 6000SE R16/P1500N R29/P1500N FZBCFG SCT006 M07/M07 Q1026 BECMG 5000 BR 8819//95;EQDQ01+000000PRSWM2
0194110360999992000010320504+48120+016570FM-15+0190LOWW V02099999999990006019N0008001N1-00801-00801999999ADDGA1071+000609999GF107991999999999999999999MA1102611999999MW1001REMMET100LOWW 031950Z VRB03KT 0800 R16/0375V0800U R29/0450VP1500U FZBCFG BKN002 M08/M08 Q1026 NOSIG 8819//95;EQDQ01+000003PRSWM1
0187110360999992000010321004+48120+016570FM-12+0190LOWW V0203001N002112200019N0025001N1-00331-00341102771ADDAY141031AY241031GA1031+004209059GF103991031051004501001001MA1999999100341MD1810031+9999MW1281REMSYN082AAXX  03214 11036 41425 33004 11033 21034 30034 40277 58003 72844 83500 333 83614;
0197110360999992000010321504+48120+016570FM-15+0190LOWW V0203301N002112200019N0045001N1-00401-00401999999ADDGA1021+005409999GF102991999999999999999999MA1102611999999MW1481REMMET087LOWW 032150Z 33004KT 270V020 4500 7000SE FZBR FEW018 M04/M04 Q1026 BECMG 9999 8819//95;EQDQ01+000003PRSWM1Q02    003PRSWM1
0177110360999992000010322504+48120+016570FM-15+0190LOWW V0203001N003112200019N0050001N1-00201-00301999999ADDGA1021+006009999GF102991999999999999999999MA1102511999999MW1481REMMET067LOWW 032250Z 30006KT 5000 FZBR FEW020 M02/M03 Q1025 NOSIG 8819//95;EQDQ01+000003PRSWM1Q02    003PRSWM1
0137110360999992000010323504+48120+016570FM-15+0190LOWW V0203001N004112200019N0060001N1-00201-00201999999ADDGF100991999999999999999999MA1102511999999MW1001REMMET059LOWW 032350Z 30008KT 6000 SKC M02/M02 Q1025 NOSIG 8819//95;EQDQ01+000000PRSWM2
0173110360999992000010400004+48120+016570FM-12+0190LOWW V0203001N002112200019N0060001N1-00181-00231102671ADDAA106000091GA1001+999999999GF100991001001999999001001MA1999999100251MD1810091+9999REMSYN060AAXX  04004 11036 32956 03004 11018 21023 30025 40267 58009;EQDQ01  00002PRCP06
0156110360999992000010400504+48120+016570FM-15+0190LOWW V0203001N005112200019N0060001N1-00101-00101999999ADDGA1021+009009999GF102991999999999999999999MA1102511999999MW1001REMMET062LOWW 040050Z 30010KT 6000 FEW030 M01/M01 Q1025 NOSIG 8819//95;EQDQ01+000000PRSWM2
0156110360999992000010401504+48120+016570FM-15+0190LOWW V0203001N007212200019N0080001N1+00001-00201999999ADDGA1021+027009999GF102991999999999999999999MA1102401999999MW1001REMMET062LOWW 040150Z 30014KT 8000 FEW090 M00/M02 Q1024 NOSIG 8819//95;EQDQ01+000000PRSWM2
0156110360999992000010402504+48120+016570FM-15+0190LOWW V0202901N007212200019N0080001N1+00001-00201999999ADDGA1021+027009999GF102991999999999999999999MA1102401999999MW1001REMMET062LOWW 040250Z 29014KT 8000 FEW090 M00/M02 Q1024 NOSIG 8819//95;EQDQ01+000000PRSWM2
0159110360999992000010403004+48120+016570FM-12+0190LOWW V0202901N003612200019N0080001N1-00011-00241102581ADDGA1011+027009079GF101991011001999999041001MA1999999100181MD1810071+9999REMSYN076AAXX  04034 11036 42958 12907 11001 21024 30018 40258 58007 81040 333 81359;
0137110360999992000010403504+48120+016570FM-15+0190LOWW V0202901N006212200019N0080001N1+00001-00301999999ADDGF100991999999999999999999MA1102401999999MW1001REMMET059LOWW 040350Z 29012KT 8000 SKC M00/M03 Q1024 NOSIG 8819//95;EQDQ01+000000PRSWM2
0137110360999992000010404504+48120+016570FM-15+0190LOWW V0202801N005112200019N0080001N1-00101-00301999999ADDGF100991999999999999999999MA1102401999999MW1001REMMET059LOWW 040450Z 28010KT 8000 SKC M01/M03 Q1024 NOSIG 8819//95;EQDQ01+000000PRSWM2
0174110360999992000010405504+48120+016570FM-15+0190LOWW V0201801N003112200019N0080001N1-00401-00501999999ADDGA1021+075009999GF102991999999999999999999MA1102401999999MW1001REMMET080LOWW 040550Z 18006KT 150V240 8000 FEW250 M04/M05 Q1024 TEMPO 3500 FZBR 8819//95;EQDQ01+000000PRSWM2
0237110360999992000010406004+48120+016570FM-12+0190LOWW V0201801N001512200019N0080001N1-00601-00701102561ADDAA106000091AJ100149199999999GA1021+075009019GF102991001001999999001021IA1289KA1120N-00791MA1999999100111MD1510071+9999REMSYN088AAXX  04064 11036 32958 21803 11060 21070 30011 40256 55007 80002 333 21079 44014 82075;EQDQ01  00002PRCP06
0189110360999992000010406504+48120+016570FM-15+0190LOWW V0201601N001512200019N0080001N1-00701-00801999999ADDGA1021+024009999GA2021+075009999GF104991999999999999999999MA1102401999999MW1001REMMET079LOWW 040650Z 16003KT 8000 FEW080 SCT250 M07/M08 Q1024 TEMPO 4500 FZBR 8819//95;EQDQ01+000000PRSWM2
0194110360999992000010407504+48120+016570FM-15+0190LOWW V02099999999990840019N0040001N1-00601-00601999999ADDGA1071+084009999GF107991999999999999999999MA1102401999999MW1101REMMET084LOWW 040750Z VRB03KT 4000 8000NW BR BKN280 M06/M06 Q1024 TEMPO 1200 FZBCFG 8819//95;EQDQ01+000003PRSWM1Q02    003PRSWM1
0187110360999992000010408504+48120+016570FM-15+0190LOWW V0203501N002110840019N0060001N1-00101-00201999999ADDGA1021+004809999GA2071+084009999GF107991999999999999999999MA1102511999999MW1001REMMET077LOWW 040850Z 35004KT 280V360 6000 FEW016 BKN280 M01/M02 Q1025 NOSIG 8819//95;EQDQ01+000000PRSWM2
0165110360999992000010409004+48120+016570FM-12+0190LOWW V0203501N00101090001CN0060001N1-00151-00201102651ADDGA1011+004809089GF106991011011004501001021MA1999999100241MD1210131+9999REMSYN082AAXX  04094 11036 42456 63502 11015 21020 30024 40265 52013 81102 333 81816 86078;
0155110360999992000010409504+48120+016570FM-15+0190LOWW V0203001N006210840019N0080001N1+00101-00201999999ADDGA1071+084009999GF107991999999999999999999MA1102401999999MW1001REMMET061LOWW 040950Z 30012KT 8000 BKN280 01/M02 Q1024 NOSIG 8819//95;EQDQ01+000000PRSWM2
0107110360999992000010410504+48120+016570FM-15+0190LOWW V0202901N00621220001CN0099001N1+00201-00201999999ADDMA1102401999999MW1001REMMET055LOWW 041050Z 29012KT CAVOK 02/M02 Q1024 NOSIG 8819//95;EQDQ01+000000PRSWM2
0187110360999992000010411504+48120+016570FM-15+0190LOWW V0202901N004610840019N0112651N1+00201-00101999999ADDGA1021+012009999GA2071+084009999GF107991999999999999999999MA1102401999999MW1001REMMET077LOWW 041150Z 29009KT 9999 FEW040 BKN280 02/M01 Q1024 NOSIG 11//99// 1619//95;EQDQ01+000000PRSWM2
0195110360999992000010412004+48120+016570FM-12+0190LOWW V0202901N00261036001CN0150001N1+00231-00141102491ADDAA106000091GA1011+012009069GF106991011051012501041021MA1999999100111MD1610131+9999REMSYN082AAXX  04124 11036 32665 62905 10023 21014 30011 40249 56013 81542 333 81640 85078;EQDQ01  00002PRCP06
0187110360999992000010412504+48120+016570FM-15+0190LOWW V0202701N005710120019N0112651N1+00201-00101999999ADDGA1021+009009999GA2071+012009999GF107991999999999999999999MA1102301999999MW1001REMMET077LOWW 041250Z 27011KT 9999 FEW030 BKN040 02/M01 Q1023 NOSIG 11//99// 1619//95;EQDQ01+000000PRSWM2
0210110360999992000010413504+48120+016570FM-15+0190LOWW V0202901N005110840019N0112651N1+00301-00101999999ADDGA1021+009009999GA2021+012009999GA3071+084009999GF107991999999999999999999MA1102301999999MW1001REMMET084LOWW 041350Z 29010KT 9999 FEW030 SCT040 BKN280 03/M01 Q1023 NOSIG 11//99// 1619//95;EQDQ01+000000PRSWM2
0178110360999992000010414504+48120+016570FM-15+0190LOWW V0203001N004110114019N0112651N1+00301-00101999999ADDGA1021+009009999GA2071+011409999GF107991999999999999999999MA1102301999999MW1001REMMET068LOWW 041450Z 30008KT 9999 FEW030 BKN038 03/M01 Q1023 NOSIG 8819//95;EQDQ01+000000PRSWM2
0165110360999992000010415004+48120+016570FM-12+0190LOWW V0203001N00211012001CN0180001N1+00321-00131102401ADDGA1011+009009089GF106991051081008001041021MA1999999100031MD1510081+9999REMSYN082AAXX  04154 11036 42568 63004 10032 21013 30003 40240 55008 85842 333 81830 85638;
0155110360999992000010416204+48120+016570FM-15+0190LOWW V0202801N003110111019N0112651N1+00301-00101999999ADDGA1071+011109999GF107991999999999999999999MA1102201999999MW1001REMMET061LOWW 041620Z 28006KT 9999 BKN037 03/M01 Q1022 NOSIG 8819//95;EQDQ01+000000PRSWM2
0163110360999992000010416504+48120+016570FM-15+0190LOWW V02099999999990105019N0112651N1+00201-00101999999ADDGA1071+010509999GF107991999999999999999999MA1102201999999MW1001REMMET069LOWW 041650Z VRB03KT 9999 BKN035 02/M01 Q1022 BECMG 4000 BR 8819//95;EQDQ01+000000PRSWM2
0166110360999992000010417504+48120+016570FM-15+0190LOWW V0202001N004110105019N0112651N1+00001-00201999999ADDGA1071+010509999GF107991999999999999999999MA1102201999999MW1001REMMET072LOWW 041750Z 20008KT 9999 BKN035 M00/M02 Q1022 BECMG 3000 FZBR 8819//95;EQDQ01+000000PRSWM2
0208110360999992000010418004+48120+016570FM-12+0190LOWW V0202001N002110105019N0130001N1-00031-00181102401ADDAA106000091GA1061+010509059GF107991061051012501041021KA1120M+00351MA1999999100001MD1510031+9999REMSYN082AAXX  04184 11036 32663 72004 11003 21018 30000 40240 55003 86542 333 10035 86635;EQDQ01  00002PRCP06
0187110360999992000010419204+48120+016570FM-15+0190LOWW V0202001N005110300019N0060001N1-00201-00301999999ADDGA1021+010509999GA2071+030009999GF107991999999999999999999MA1102201999999MW1001REMMET077LOWW 041920Z 20010KT 6000 FEW035 BKN100 M02/M03 Q1022 BECMG 3000 BR 8819//95;EQDQ01+000000PRSWM2
0210110360999992000010419504+48120+016570FM-15+0190LOWW V0201901N005110300019N0050001N1-00201-00301999999ADDGA1021+010509999GA2071+030009999GF107991999999999999999999MA1102201999999MW1101REMMET084LOWW 041950Z 19010KT 5000 BR FEW035 BKN100 M02/M03 Q1022 BECMG 1200 FZBCFG 8819//95;EQDQ01+000003PRSWM1Q02    003PRSWM1
0203110360999992000010420504+48120+016570FM-15+0190LOWW V0201801N002610240019N0050001N1-00301-00401999999ADDGA1021+010509999GA2071+024009999GF107991999999999999999999MA1102201999999MW1101REMMET077LOWW 042050Z 18005KT 5000 BR FEW035 BKN080 M03/M04 Q1022 BECMG 2000 8819//95;EQDQ01+000003PRSWM1Q02    003PRSWM1
0193110360999992000010421004+48120+016570FM-12+0190LOWW V0201801N00151036001CN0050001N1-00301-00381102371ADDAY121031AY221031GA1011+010509069GF107991011051012501071001MA1999999099951MD1510051+9999MW1101REMSYN088AAXX  04214 11036 41650 71803 11030 21038 39995 40237 55005 71022 81570 333 81635 86358;
0205110360999992000010421504+48120+016570FM-15+0190LOWW V0201701N004610180019N0040001N1-00301-00301999999ADDGA1021+015009999GA2071+018009999GF107991999999999999999999MA1102101999999MW1101REMMET079LOWW 042150Z 17009KT 4000 5000SE BR FEW055 BKN060 M03/M03 Q1021 NOSIG 8819//95;EQDQ01+000003PRSWM1Q02    003PRSWM1
0205110360999992000010422504+48120+016570FM-15+0190LOWW V0201801N003610150019N0032001N1-00401-00401999999ADDGA1021+014109999GA2071+015009999GF107991999999999999999999MA1102101999999MW1101REMMET079LOWW 042250Z 18007KT 3200 5000SE BR SCT047 BKN052 M04/M04 Q1021 NOSIG 8819//95;EQDQ01+000003PRSWM1Q02    003PRSWM1
0205110360999992000010423504+48120+016570FM-15+0190LOWW V0201601N003110210019N0025001N1-00301-00301999999ADDGA1021+018009999GA2071+021009999GF107991999999999999999999MA1102101999999MW1101REMMET079LOWW 042350Z 16006KT 2500 5000SE BR FEW060 BKN070 M03/M03 Q1021 NOSIG 8819//95;EQDQ01+000003PRSWM1Q02    003PRSWM1
0223110360999992000010500004+48120+016570FM-12+0190LOWW V0201601N00151015001CN0025001N1-00281-00291102271ADDAA106000091AY121061AY221061GA1021+018009069GF108991081051017501999999MA1999999099851MD1710101+9999MW1101REMSYN088AAXX  05004 11036 31725 81603 11028 21029 39985 40227 57010 71022 885// 333 82656 87657;EQDQ01  00002PRCP06
0205110360999992000010500504+48120+016570FM-15+0190LOWW V0201901N003610240019N0025001N1-00301-00301999999ADDGA1021+018009999GA2071+024009999GF107991999999999999999999MA1102101999999MW1101REMMET079LOWW 050050Z 19007KT 2500 5000SE BR SCT065 BKN080 M03/M03 Q1021 NOSIG 8819//95;EQDQ01+000003PRSWM1Q02    003PRSWM1
0211110360999992000010501504+48120+016570FM-15+0190LOWW V0201601N004110240019N0022001N1-00201-00301999999ADDGA1021+018009999GA2071+024009999GF107991999999999999999999MA1102001999999MW1101REMMET085LOWW 050150Z 16008KT 2200 BR SCT060 BKN080 M02/M03 Q1020 REFZRA TEMPO -FZRA 8819//95;EQDQ01+000003PRSWM1Q02    003PRSWM1
0188110360999992000010502504+48120+016570FM-15+0190LOWW V0201901N003110150019N0022001N1-00301-00301999999ADDGA1071+015009999GF107991999999999999999999MA1102001999999MW1101REMMET078LOWW 050250Z 19006KT 2200 BR BKN055 M03/M03 Q1020 REFZRA TEMPO -FZRA 8819//95;EQDQ01+000003PRSWM1Q02    003PRSWM1
0187110360999992000010503004+48120+016570FM-12+0190LOWW V0201901N001510150019N0022001N1-00281-00321102201ADDAY161031AY221031GA1071+015009059GF108991081051017501999999MA1999999099791MD1510061+9999MW1241REMSYN082AAXX  05034 11036 41722 81903 11028 21032 39979 40220 55006 72462 885// 333 87650;
0208110360999992000010503504+48120+016570FM-15+0190LOWW V0202001N005110180019N0038001N1-00301-00301999999ADDGA1021+015009999GA2071+018009999GF107991999999999999999999MA1102001999999MW1481REMMET082LOWW 050350Z 20010KT 3800 FZBR SCT050 BKN060 M03/M03 Q1020 BECMG 28012KT 8819//95;EQDQ01+000003PRSWM1Q02    003PRSWM1
0177110360999992000010504504+48120+016570FM-15+0190LOWW V0202701N003610330019N0112651N1+00301+00101999999ADDGA1021+018009999GA2071+033009999GF107991999999999999999999MA1102001999999MW1001REMMET067LOWW 050450Z 27007KT 9999 FEW060 BKN110 03/01 Q1020 NOSIG 8819//95;EQDQ01+000000PRSWM2
0187110360999992000010505504+48120+016570FM-15+0190LOWW V0202001N004610300019N0112651N1-00101-00201999999ADDGA1021+018009999GA2071+030009999GF107991999999999999999999MA1102001999999MW1001REMMET077LOWW 050550Z 20009KT 9999 FEW065 BKN100 M01/M02 Q1020 BECMG 27010KT 8819//95;EQDQ01+000000PRSWM2
0258110360999992000010506004+48120+016570FM-12+0190LOWW V0202001N00261036001CN0170001N1-00151-00241102161ADDAA112000791AJ100119199999999AY161061AY221061GA1021+018009069GF107991021051017501071999IA1289KA1120N-00411MA1999999099761MD1810031+9999MW1011REMSYN106AAXX  05064 11036 11767 72005 11015 21024 39976 40216 58003 69902 70162 8257/ 333 21041 44011 82656 86360;
0186110360999992000010506504+48120+016570FM-15+0190LOWW V0202001N002110330019N0112651N1+00001-00101999999ADDGA1021+018009999GA2071+033009999GF107991999999999999999999MA1102001999999MW1001REMMET076LOWW 050650Z 20004KT 9999 FEW060 BKN110 00/M01 Q1020 BECMG 28010KT 8819//95;EQDQ01+000000PRSWM2
0177110360999992000010507504+48120+016570FM-15+0190LOWW V0202901N003610300019N0112651N1+00401+00101999999ADDGA1021+018009999GA2071+030009999GF107991999999999999999999MA1102101999999MW1001REMMET067LOWW 050750Z 29007KT 9999 FEW060 BKN100 04/01 Q1021 NOSIG 8819//95;EQDQ01+000000PRSWM2
0185110360999992000010508504+48120+016570FM-15+0190LOWW V0203201N002610270019N0112651N1+00301+00101999999ADDGA1021+021009999GA2071+027009999GF107991999999999999999999MA1102101999999MW1001REMMET075LOWW 050850Z 32005KT 270V050 9999 FEW070 BKN090 03/01 Q1021 NOSIG 8819//95;EQDQ01+000000PRSWM2
0165110360999992000010509004+48120+016570FM-12+0190LOWW V0203201N00151036001CN0250001N1+00331+00081102241ADDGA1011+021009069GF106991011051022501071001MA1999999099881MD1310121+9999REMSYN082AAXX  05094 11036 42875 63203 10033 20008 39988 40224 53012 81570 333 81657 85659;
0177110360999992000010509504+48120+016570FM-15+0190LOWW V0202901N004110270019N0112651N1+00601+00301999999ADDGA1021+009009999GA2071+027009999GF107991999999999999999999MA1102101999999MW1001REMMET067LOWW 050950Z 29008KT 9999 FEW030 BKN095 06/03 Q1021 NOSIG 8819//95;EQDQ01+000000PRSWM2
0177110360999992000010510504+48120+016570FM-15+0190LOWW V0203001N007712200019N0112651N1+00701+00201999999ADDGA1021+009009999GA2021+027009999GF104991999999999999999999MA1102201999999MW1001REMMET067LOWW 051050Z 30015KT 9999 FEW030 SCT090 07/02 Q1022 NOSIG 8819//95;EQDQ01+000000PRSWM2
0154110360999992000010511504+48120+016570FM-15+0190LOWW V0203101N005712200019N0112651N1+00701+00201999999ADDGA1021+009009999GF102991999999999999999999MA1102201999999MW1001REMMET060LOWW 051150Z 31011KT 9999 FEW030 07/02 Q1022 NOSIG 8819//95;EQDQ01+000000PRSWM2
0189110360999992000010512004+48120+016570FM-12+0190LOWW V0203101N003112200019N0250001N1+00651+00161102261ADDAA106000091GA1011+009009029GF103991011081008001031001MA1999999099931MD1210051+9999REMSYN076AAXX  05124 11036 32575 33106 10065 20016 39993 40226 52005 81830 333 81830;EQDQ01  00002PRCP06
0177110360999992000010512504+48120+016570FM-15+0190LOWW V0203201N007212200019N0112651N1+00701+00101999999ADDGA1021+009009999GA2021+012009999GF104991999999999999999999MA1102201999999MW1001REMMET067LOWW 051250Z 32014KT 9999 FEW030 SCT040 07/01 Q1022 NOSIG 8819//95;EQDQ01+000000PRSWM2
0177110360999992000010513504+48120+016570FM-15+0190LOWW V0203001N007212200019N0112651N1+00601+00101999999ADDGA1021+009009999GA2021+013209999GF104991999999999999999999MA1102201999999MW1001REMMET067LOWW 051350Z 30014KT 9999 FEW030 SCT044 06/01 Q1022 NOSIG 8819//95;EQDQ01+000000PRSWM2
0177110360999992000010514504+48120+016570FM-15+0190LOWW V0203301N004112200019N0112651N1+00501+00201999999ADDGA1021+009009999GA2021+015009999GF104991999999999999999999MA1102301999999MW1001REMMET067LOWW 051450Z 33008KT 9999 FEW030 SCT052 05/02 Q1023 NOSIG 8819//95;EQDQ01+000000PRSWM2
0165110360999992000010515004+48120+016570FM-12+0190LOWW V0203301N002112200019N0200001N1+00521+00161102411ADDGA1011+009009089GF104991031081008001031011MA1999999100061MD1210131+9999REMSYN082AAXX  05154 11036 42570 43304 10052 20016 30006 40241 52013 83831 333 81830 83650;
0154110360999992000010515504+48120+016570FM-15+0190LOWW V0203201N004112200019N0112651N1+00401+00101999999ADDGA1021+009009999GF102991999999999999999999MA1102301999999MW1001REMMET060LOWW 051550Z 32008KT 9999 FEW030 04/01 Q1023 NOSIG 8819//95;EQDQ01+000000PRSWM2
0154110360999992000010516504+48120+016570FM-15+0190LOWW V0203101N003612200019N0112651N1+00401+00201999999ADDGA1021+009009999GF102991999999999999999999MA1102401999999MW1001REMMET060LOWW 051650Z 31007KT 9999 FEW030 04/02 Q1024 NOSIG 8819//95;EQDQ01+000000PRSWM2
0106110360999992000010517504+48120+016570FM-15+0190LOWW V0202901N00411220001CN0099001N1+00301+00101999999ADDMA1102401999999MW1001REMMET054LOWW 051750Z 29008KT CAVOK 03/01 Q1024 NOSIG 8819//95;EQDQ01+000000PRSWM2
0196110360999992000010518004+48120+016570FM-12+0190LOWW V0202901N002112200019N0150001N1+00311+00141102531ADDAA106000091GA1001+999999999GF100991001001999999001001KA1999M+00711MA1999999100161MD1210101+9999REMSYN070AAXX  05184 11036 32965 02904 10031 20014 30016 40253 52010 333 10071;EQDQ01  00002PRCP06
0106110360999992000010518504+48120+016570FM-15+0190LOWW V0202901N00571220001CN0099001N1+00301+00201999999ADDMA1102401999999MW1001REMMET054LOWW 051850Z 29011KT CAVOK 03/02 Q1024 NOSIG 8819//95;EQDQ01+000000PRSWM2
0114110360999992000010519504+48120+016570FM-15+0190LOWW V0202901N00261220001CN0099001N1+00201+00101999999ADDMA1102511999999MW1001REMMET062LOWW 051950Z 29005KT CAVOK 02/01 Q1025 BECMG 3000 BR 8819//95;EQDQ01+000000PRSWM2
0116110360999992000010520504+48120+016570FM-15+0190LOWW V0203001N00311220001CN0099001N1+00201+00001999999ADDMA1102511999999MW1001REMMET064LOWW 052050Z 30006KT CAVOK 02/00 Q1025 BECMG 0800 BCFG 8819//95;EQDQ01+000000PRSWM2
0143110360999992000010521004+48120+016570FM-12+0190LOWW V0203001N001512200019N0100001N1+00161+00041102651ADDGA1001+999999999GF100991001001999999001001MA1999999100261MD1210101+9999REMSYN060AAXX  05214 11036 42960 03003 10016 20004 30026 40265 52010;
0146110360999992000010521504+48120+016570FM-15+0190LOWW V0202801N003112200019N0080001N1+00001+00001999999ADDGF100991999999999999999999MA1102511999999MW1001REMMET068LOWW 052150Z 28006KT 8000 SKC 00/M00 Q1025 BECMG 0800 BCFG 8819//95;EQDQ01+000000PRSWM2
0179110360999992000010600504+48120+016570FM-15+0190LOWW V0201001N001012200019N0002001N1-00401-00401999999ADDED199U04009GF100991999999999999999999MA1102511999999MW1481REMMET074LOWW 060050Z 10002KT 0200 R29/0400N FZFG SKC M04/M04 Q1025 NOSIG 8819//95;EQDQ01+000003PRSWM1Q02    003PRSWM1
0179110360999992000010601504+48120+016570FM-15+0190LOWW V0202001N003612200019N0009001N1-00401-00401999999ADDGF100991999999999999999999MA1102511999999MW1481REMMET085LOWW 060150Z 20007KT 0900 R29/0500VP1500U FZFG SKC M04/M04 Q1025 TEMPO 0300 8819//95;EQDQ01+000003PRSWM1Q02    003PRSWM1
0171110360999992000010602504+48120+016570FM-15+0190LOWW V02099999999992200019N0012001N1-00701-00701999999ADDED199U15009GF100991999999999999999999MA1102511999999MW1001REMMET082LOWW 060250Z VRB02KT 1200 R29/P1500N FZBCFG SKC M07/M07 Q1025 TEMPO 0300 8819//95;EQDQ01+000000PRSWM2
0171110360999992000010603004+48120+016570FM-12+0190LOWW V0209999V000512200019N0012001N1-00681-00701102731ADDAY141031AY241031GA1001+999999999GF100991001001999999001001MA1999999100271MD1010021+9999MW1411REMSYN066AAXX  06034 11036 41912 09901 11068 21070 30027 40273 50002 74144;
0165110360999992000010603504+48120+016570FM-15+0190LOWW V02099999999992200019N0003501N1-00601-00601999999ADDGF100991999999999999999999MA1102511999999MW1001REMMET087LOWW 060350Z VRB03KT 0350 R29/0350VP1500D FZPRFG SKC M06/M06 Q1025 TEMPO 0200 8819//95;EQDQ01+000000PRSWM2
0185110360999992000010604504+48120+016570FM-15+0190LOWW V02099999999992200019N0002501N1-00801-00801999999ADDGF100991999999999999999999MA1102511999999MW1481REMMET091LOWW 060450Z VRB01KT 0250 R29/0275V0750U FZFG SKC M08/M08 Q1025 TEMPO 0400 FZBCFG 8819//95;EQDQ01+000003PRSWM1Q02    003PRSWM1
0200110360999992000010605204+48120+016570FM-15+0190LOWW V0200401N001012200019N0003001N1-00701-00701999999ADDGF100991999999999999999999MA1102511999999MW1481REMMET106LOWW 060520Z 04002KT 0300 R16/0500V0900U R29/0250V1300U FZFG SKC M07/M07 Q1025 TEMPO 0500 FZBCFG 8819//95;EQDQ01+000003PRSWM1Q02    003PRSWM1
0199110360999992000010605504+48120+016570FM-15+0190LOWW V0201601N001012200019N0004001N1-00701-00801999999ADDED199U05509GF100991999999999999999999MA1102511999999MW1481REMMET094LOWW 060550Z 16002KT 0400 R16/0550N R29/0550V1300D FZFG SKC M07/M08 Q1025 TEMPO 0200 8819//95;EQDQ01+000003PRSWM1Q02    003PRSWM1
0253110360999992000010606004+48120+016570FM-12+0190LOWW V0201601N000512200019N0004001N1-00751-00771102721ADDAA106000091AJ100059199999999AY141061AY241061GA1001+999999999GF100991001001999999001001IA1289KA1120N-00791MA1999999100251MD1810021+9999MW1481REMSYN082AAXX  06064 11036 31904 01601 11075 21077 30025 40272 58002 74844 333 21079 44005;EQDQ01  00002PRCP06
0218110360999992000010606504+48120+016570FM-15+0190LOWW V0209999999999000151CN0002001N1-00701-00701999999ADDED199U02759GA1091+000159999GF109991999999000251999999MA1102511999999MW1491REMMET097LOWW 060650Z VRB01KT 0200 R16/0275N R29/0250N FZFG VV002 M07/M07 Q1025 TEMPO 0100 VV001 8819//95;EQDQ01+000003PRSWM1Q02    003PRSWM1
0218110360999992000010607504+48120+016570FM-15+0190LOWW V0209999C00001000151CN0001001N1-00601-00701999999ADDED199U02509GA1091+000159999GF109991999999000251999999MA1102511999999MW1491REMMET097LOWW 060750Z 00000KT 0100 R16/0250N R29/0375V1300D FZFG VV003 M06/M07 Q1025 TEMPO VV001 8819//95;EQDQ01+000003PRSWM1Q02    003PRSWM1
0215110360999992000010609004+48120+016570FM-12+0190LOWW V0209999C000010012019N0001001N1-00601-00621102731ADDAY141031AY241031GA1031+000609079GA2071+001209079GF107991071051000751999999MA1999999100271MD1010021+9999MW1481REMSYN094AAXX  06094 11036 41101 70000 11060 21062 30027 40273 50002 74844 875// 333 83702 87704 93503;
0276110360999992000010609204+48120+016570FM-15+0190LOWW V0209999C000010012019N0001501N1-00601-00601999999ADDED199U03259GA1021+000309999GA2021+000609999GA3071+001209999GF107991999999999999999999MA1102511999999MW1481MW2771REMMET117LOWW 060920Z 00000KT 0150 R16/0325N R29/0300N FZFG -SG FEW001 SCT002 BKN004 M06/M06 Q1025 BECMG 0500 SCT002 8819//95;EQDQ01+000003PRSWM1Q02    003PRSWM1
0241110360999992000010609504+48120+016570FM-15+0190LOWW V0209999C000010012019N0001501N1-00601-00601999999ADDED199U02509GA1021+000609999GA2071+001209999GF107991999999999999999999MA1102511999999MW1481REMMET104LOWW 060850Z 00000KT 0150 R16/0250N R29/0650V1100D FZFG SCT002 BKN004 M06/M06 Q1025 BECMG 0500 8819//95;EQDQ01+000003PRSWM1Q02    003PRSWM1
0271110360999992000010610204+48120+016570FM-15+0190LOWW V02099999999990006019N0002001N1-00501-00501999999ADDED199U03759GA1021+000309999GA2071+000609999GA3071+000909999GF107991999999999999999999MA1102511999999MW1481REMMET118LOWW 061020Z VRB01KT 0200 R16/0375N R29/0600V0900U FZFG FEW001 BKN002 BKN003 M05/M05 Q1025 BECMG 0500 SCT002 8819//95;EQDQ01+000003PRSWM1Q02    003PRSWM1
0271110360999992000010610504+48120+016570FM-15+0190LOWW V02099999999990012019N0002001N1-00501-00501999999ADDGA1021+000309999GA2021+000609999GA3071+001209999GF107991999999999999999999MA1102511999999MW1481MW2771REMMET123LOWW 060950Z VRB01KT 0200 R16/1000VP1500D R29/0350N FZFG -SG FEW001 SCT002 BKN004 M05/M05 Q1025 BECMG 0500 SCT002 8819//95;EQDQ01+000003PRSWM1Q02    003PRSWM1
0216110360999992000010611204+48120+016570FM-15+0190LOWW V0209999999999000151CN0002001N1-00401-00401999999ADDGA1091+000159999GF109991999999000251999999MA1102511999999MW1491MW2771REMMET100LOWW 061120Z VRB01KT 0200 R16/0350V1000U R29/0325N FZFG -SG VV003 M04/M04 Q1025 BECMG 0500 8819//95;EQDQ01+000003PRSWM1Q02    003PRSWM1
0259110360999992000010611504+48120+016570FM-15+0190LOWW V02099999999990009019N0001501N1-00401-00501999999ADDED199U03259GA1021+000309999GA2021+000609999GA3071+000909999GF107991999999999999999999MA1102511999999MW1481REMMET106LOWW 061050Z VRB01KT 0150 R16/0325N R29/0325N FZFG FEW001 SCT002 BKN003 M04/M05 Q1025 BECMG 0500 8819//95;EQDQ01+000003PRSWM1Q02    003PRSWM1
0204110360999992000010612004+48120+016570FM-12+0190LOWW V0200201N000510009019N0003001N1-00421-00441102651ADDAA106000791AY171061AY251061GA1091+000909999GF109991091999999999999999MA1999999100211MD1810061+9999MW1491REMSYN088AAXX  06124 11036 11/03 90201 11042 21044 30021 40265 58006 69901 74975 333 89/03 93504;
0225110360999992000010612504+48120+016570FM-15+0190LOWW V0209999999999000151CN0001001N1-00501-00501999999ADDED199U15009GA1091+000159999GF109991999999000251999999MA1102511999999MW1491REMMET104LOWW 061250Z VRB01KT 0100 R11/P1500U R16/0400N FZFG VV001 M05/M05 Q1025 RESG TEMPO 0400 BKN003 8819//95;EQDQ01+000003PRSWM1Q02    003PRSWM1
0207110360999992000010613504+48120+016570FM-15+0190LOWW V0209999999999000151CN0001501N1-00501-00501999999ADDED199U03509GA1091+000159999GF109991999999000251999999MA1102511999999MW1491REMMET086LOWW 061350Z VRB01KT 0150 R16/0350N R29/0250N FZFG VV001 M05/M05 Q1025 NOSIG 8819//95;EQDQ01+000003PRSWM1Q02    003PRSWM1
0193110360999992000010615004+48120+016570FM-12+0190LOWW V0209999V000510003019N0009001N1-00491-00511102681ADDAY171031AY251031GA1051+000309079GF107991061061000251001021MA1999999100241MD1210031+9999MW1481REMSYN088AAXX  06154 11036 41009 79901 11049 21051 30024 40268 52003 74875 86602 333 85701 93505;
0213110360999992000010615204+48120+016570FM-15+0190LOWW V02099999999990003019N0002001N1-00601-00601999999ADDGA1071+000309999GF107991999999999999999999MA1102511999999MW1481MW2771REMMET097LOWW 061520Z VRB01KT 0200 R16/1000VP1500D R29/0275N FZFG -SG BKN001 M06/M06 Q1025 NOSIG 8819//95;EQDQ01+000003PRSWM1Q02    003PRSWM1
0213110360999992000010615504+48120+016570FM-15+0190LOWW V02099999999990003019N0009001N1-00501-00501999999ADDGA1071+000309999GF107991999999999999999999MA1102511999999MW1481REMMET103LOWW 061450Z VRB02KT 0900 R16/1000VP1500U R29/0275V0450D FZFG BKN001 M05/M05 Q1025 BECMG 0200 8819//95;EQDQ01+000003PRSWM1Q02    003PRSWM1
0231110360999992000010616204+48120+016570FM-15+0190LOWW V02099999999990006019N0005001N1-00601-00601999999ADDGA1021+000309999GA2071+000609999GF107991999999999999999999MA1102511999999MW1481REMMET105LOWW 061620Z VRB02KT 0500 R16/0500V1200U R29/P1500U FZFG FEW001 BKN002 M06/M06 Q1025 BECMG 0200 8819//95;EQDQ01+000003PRSWM1Q02    003PRSWM1
0213110360999992000010616504+48120+016570FM-15+0190LOWW V02099999999990006019N0002001N1-00601-00601999999ADDGA1071+000609999GF107991999999999999999999MA1102511999999MW1481MW2771REMMET097LOWW 061550Z VRB01KT 0200 R16/0650VP1500U R29/0325N FZFG -SG BKN002 M06/M06 Q1025 NOSIG 8819//95;EQDQ01+000003PRSWM1Q02    003PRSWM1
0230110360999992000010617204+48120+016570FM-15+0190LOWW V02099999999990003019N0004001N1-00801-00801999999ADDGA1071+000309999GA2071+000609999GF107991999999999999999999MA1102511999999MW1481REMMET104LOWW 061720Z VRB02KT 0400 R16/0275V0450N R29/0375N FZFG BKN001 BKN002 M08/M08 Q1025 BECMG 0200 8819//95;EQDQ01+000003PRSWM1Q02    003PRSWM1
0207110360999992000010617504+48120+016570FM-15+0190LOWW V0201501N00101000151CN0003001N1-00701-00801999999ADDED199U03259GA1091+000159999GF109991999999000251999999MA1102511999999MW1491REMMET086LOWW 061750Z 15002KT 0300 R16/0325N R29/0375N FZFG VV002 M07/M08 Q1025 NOSIG 8819//95;EQDQ01+000003PRSWM1Q02    003PRSWM1
0223110360999992000010618004+48120+016570FM-12+0190LOWW V0201501N000510006019N0003001N1-00741-00761102711ADDAA112000191AY171061AY251061GA1091+000609999GF109991091999999999999999KA1120M-00391MA1999999100241MD1010001+9999MW1491REMSYN094AAXX  06184 11036 11/03 91501 11074 21076 30024 40271 50000 69912 74975 333 11039 89/02 93502;
0269110360999992000010620204+48120+016570FM-15+0190LOWW V0201901N002110006019N0002001N1-00801-00801999999ADDED199U05009GA1021+000309999GA2071+000609999GA3071+001809999GF107991999999999999999999MA1102511999999MW1481MW2771REMMET110LOWW 062020Z 19004KT 0200 R16/0500N R29/0450N -SG FZFG SCT001 BKN002 BKN006 M08/M08 Q1025 TEMPO 0400 8819//95;EQDQ01+000003PRSWM1Q02    003PRSWM1
0241110360999992000010620504+48120+016570FM-15+0190LOWW V0202001N001510006019N0002001N1-00701-00701999999ADDED199U04509GA1021+000309999GA2071+000609999GF107991999999999999999999MA1102511999999MW1481MW2771REMMET098LOWW 061950Z 20003KT 0200 R16/0450N R29/0500N -SG FZFG SCT001 BKN002 M07/M07 Q1025 NOSIG 8819//95;EQDQ01+000003PRSWM1Q02    003PRSWM1
0215110360999992000010621004+48120+016570FM-12+0190LOWW V0201801N001010006019N0003001N1-00811-00831102751ADDAY171031AY241031GA1031+000309079GA2051+000609079GF108991081061000251999999MA1999999100271MD1110031+9999MW1771REMSYN094AAXX  06214 11036 41003 81802 11081 21083 30027 40275 51003 77774 886// 333 83701 85702 86706;
0258110360999992000010621204+48120+016570FM-15+0190LOWW V0201901N001510006019N0002001N1-00801-00801999999ADDGA1021+000309999GA2071+000609999GA3071+001809999GF107991999999999999999999MA1102511999999MW1481REMMET116LOWW 062120Z 19003KT 0200 R16/0650VP1500U R29/0400N -SG FZFG SCT001 BKN002 BKN006 M08/M08 Q1025 TEMPO 0400 8819//95;EQDQ01+000003PRSWM1Q02    003PRSWM1
0263110360999992000010621504+48120+016570FM-15+0190LOWW V0201801N002110006019N0003001N1-00801-00801999999ADDGA1021+000309999GA2071+000609999GA3071+001809999GF107991999999999999999999MA1102511999999MW1481REMMET121LOWW 062050Z 18004KT 0300 R16/0700VP1500D R29/0400V0600U -SG FZFG SCT001 BKN002 BKN006 M08/M08 Q1025 TEMPO 0400 8819//95;EQDQ01+000003PRSWM1Q02    003PRSWM1
0231110360999992000010622204+48120+016570FM-15+0190LOWW V02099999999990009019N0008001N1-00801-00801999999ADDGA1021+000309999GA2071+000909999GF107991999999999999999999MA1102511999999MW1001REMMET121LOWW 062220Z VRB02KT 0800 2500S R16/0750VP1500U R29/P1500N FZBCFG SCT001 BKN003 M08/M08 Q1025 TEMPO 0500 BKN002 8819//95;EQDQ01+000000PRSWM2
0252110360999992000010622504+48120+016570FM-15+0190LOWW V0201801N001010006019N0002001N1-00801-00801999999ADDGA1021+000309999GA2071+000609999GA3071+001809999GF107991999999999999999999MA1102511999999MW1481REMMET110LOWW 062150Z 18002KT 0200 R16/0400V0800N R29/0400N -SG FZFG SCT001 BKN002 BKN006 M08/M08 Q1025 NOSIG 8819//95;EQDQ01+000003PRSWM1Q02    003PRSWM1
0237110360999992000010623204+48120+016570FM-15+0190LOWW V0201501N001510006019N0004001N1-00901-00901999999ADDED199U15009GA1021+000309999GA2071+000609999GF107991999999999999999999MA1102511999999MW1481REMMET100LOWW 062320Z 15003KT 0400 R16/P1500N R29/0550V0900D FZFG SCT001 BKN002 M09/M09 Q1025 NOSIG 8819//95;EQDQ01+000003PRSWM1Q02    003PRSWM1
0207110360999992000010623504+48120+016570FM-15+0190LOWW V0201701N00101000151CN0002001N1-00801-00901999999ADDED199U04509GA1091+000159999GF109991999999000251999999MA1102511999999MW1491REMMET086LOWW 062350Z 17002KT 0200 R16/0450D R29/0450N FZFG VV001 M08/M09 Q1025 NOSIG 8819//95;EQDQ01+000000PRSWM2Q02    003PRSWM1
0204110360999992000010700004+48120+016570FM-12+0190LOWW V0201701N000510003019N0002001N1-00841-00861102771ADDAA106000791AY171061AY241061GA1091+000309999GF109991091999999999999999MA1999999100291MD1210021+9999MW1491REMSYN088AAXX  07004 11036 11/02 91701 11084 21086 30029 40277 52002 69901 74974 333 89/01 93508;
0207110360999992000010700504+48120+016570FM-15+0190LOWW V0209999999999000151CN0002001N1-00801-00801999999ADDED199U04009GA1091+000159999GF109991999999000251999999MA1102611999999MW1491REMMET086LOWW 070050Z VRB01KT 0200 R16/0400N R29/0400N FZFG VV001 M08/M08 Q1026 NOSIG 8819//95;EQDQ01+000003PRSWM1Q02    003PRSWM1
0122110360999992000010701004+48120+016570FM-12+0190LOWW V0201701N001010003019N0002001N1-00711-00731102821ADDGA1091+999999999GF109991091999999999999999MD1110061+9999REMSYN054AAXX  07014 11036 41/02 91702 11071 21073 40282 51006;
0207110360999992000010701504+48120+016570FM-15+0190LOWW V0201601N00101000151CN0002001N1-00801-00801999999ADDED199U04009GA1091+000159999GF109991999999000251999999MA1102611999999MW1491REMMET086LOWW 070150Z 16002KT 0200 R16/0400N R29/0450N FZFG VV001 M08/M08 Q1026 NOSIG 8819//95;EQDQ01+000003PRSWM1Q02    003PRSWM1
0207110360999992000010702504+48120+016570FM-15+0190LOWW V0201701N00151000151CN0002001N1-00701-00701999999ADDED199U03759GA1091+000159999GF109991999999000251999999MA1102611999999MW1491REMMET086LOWW 070250Z 17003KT 0200 R16/0375N R29/0450N FZFG VV001 M07/M07 Q1026 NOSIG 8819//95;EQDQ01+000003PRSWM1Q02    003PRSWM1
0181110360999992000010703004+48120+016570FM-12+0190LOWW V0201701N001010003019N0002001N1-00711-00731102821ADDAY141031AY241031GA1091+000309999GF109991091999999999999999MA1999999100351MD1110061+9999MW1491REMSYN076AAXX  07034 11036 41/02 91702 11071 21073 30035 40282 51006 74944 333 89/01;
0207110360999992000010703504+48120+016570FM-15+0190LOWW V0202001N00101000151CN0002001N1-00701-00701999999ADDED199U03759GA1091+000159999GF109991999999000251999999MA1102611999999MW1491REMMET086LOWW 070350Z 20002KT 0200 R16/0375N R29/0450N FZFG VV001 M07/M07 Q1026 NOSIG 8819//95;EQDQ01+000003PRSWM1Q02    003PRSWM1
0207110360999992000010704504+48120+016570FM-15+0190LOWW V0202001N00151000151CN0002001N1-00701-00701999999ADDED199U03759GA1091+000159999GF109991999999000251999999MA1102611999999MW1491REMMET086LOWW 070450Z 20003KT 0200 R16/0375N R29/0450N FZFG VV001 M07/M07 Q1026 NOSIG 8819//95;EQDQ01+000003PRSWM1Q02    003PRSWM1
0212110360999992000010705504+48120+016570FM-15+0190LOWW V0209999999999000151CN0002001N1-00601-00701999999ADDED199U03759GA1091+000159999GF109991999999000251999999MA1102711999999MW1491REMMET091LOWW 070550Z VRB01KT 0200 R16/0375N R29/0450N FZFG VV001 M06/M07 Q1027 TEMPO 0400 8819//95;EQDQ01+000003PRSWM1Q02    003PRSWM1
0230110360999992000010706204+48120+016570FM-15+0190LOWW V0201301N001010003019N0004001N1-00601-00601999999ADDGA1071+000309999GA2081+000609999GF108991999999999999999999MA1102711999999MW1481REMMET104LOWW 070620Z 13002KT 0400 R16/0600V1100D R29/0750N FZFG BKN001 OVC002 M06/M06 Q1027 TEMPO 0600 8819//95;EQDQ01+000003PRSWM1Q02    003PRSWM1
0245110360999992000010707204+48120+016570FM-15+0190LOWW V0201601N001010009019N0012001N1-00601-00601999999ADDED199U15009GA1021+000609999GA2071+000909999GF107991999999999999999999MA1102811999999MW1481REMMET108LOWW 070720Z 16002KT 1200 1800NW R16/P1500N R29/P1500N FZBR FEW002 BKN003 M06/M06 Q1028 TEMPO 1500 8819//95;EQDQ01+000003PRSWM1Q02    003PRSWM1
0240110360999992000010707504+48120+016570FM-15+0190LOWW V0201501N001510006019N0008001N1-00601-00701999999ADDED199U15009GA1021+000309999GA2071+000609999GF107991999999999999999999MA1102811999999MW1001REMMET119LOWW 070650Z 15003KT 0800 R16/P1500N R29/P1500N FZBCFG SCT001 BKN002 M06/M07 Q1028 TEMPO FEW001 SCT002 OVC003 8819//95;EQDQ01+000000PRSWM2
0220110360999992000010708204+48120+016570FM-15+0190LOWW V0201701N001510009019N0012001N1-00601-00601999999ADDED199U15009GA1071+000909999GF107991999999999999999999MA1102811999999MW1481REMMET099LOWW 070820Z 17003KT 1200 R16/P1500N R29/P1500N FZBR BKN003 M06/M06 Q1028 TEMPO 0700 FZFG 8819//95;EQDQ01+000003PRSWM1Q02    003PRSWM1
0263110360999992000010708504+48120+016570FM-15+0190LOWW V0201701N001510009019N0014001N1-00601-00601999999ADDED199U15009GA1021+000609999GA2071+000909999GA3071+001509999GF107991999999999999999999MA1102811999999MW1481REMMET110LOWW 070750Z 17003KT 1400 2000NW R16/P1500N R29/P1500N FZBR FEW002 BKN003 BKN005 M06/M06 Q1028 NOSIG 8819//95;EQDQ01+000003PRSWM1Q02    003PRSWM1
0215110360999992000010709004+48120+016570FM-12+0190LOWW V0201601N001010009019N0012001N1-00571-00581103011ADDAY141031AY221031GA1051+000909079GA2061+013509069GF107991071061000751999999MA1999999100551MD1310101+9999MW1411REMSYN094AAXX  07094 11036 41112 71602 11057 21058 30055 40301 53010 74142 876// 333 85703 86645 93604;
0267110360999992000010709204+48120+016570FM-15+0190LOWW V0201601N001510150019N0013001N1-00501-00501999999ADDED199U15009GA1021+000909999GA2021+001509999GA3071+015009999GF107991999999999999999999MA1102811999999MW1481REMMET114LOWW 070920Z 16003KT 1300 1600NW R16/P1500N R29/1300N FZBR FEW003 SCT005 BKN050 M05/M05 Q1028 TEMPO 1500 8819//95;EQDQ01+000003PRSWM1Q02    003PRSWM1
0264110360999992000010709504+48120+016570FM-15+0190LOWW V0201601N001510009019N0012001N1-00601-00601999999ADDED199U14009GA1071+000909999GA2071+013509999GF107991999999999999999999MA1102811999999MW1481REMMET127LOWW 070850Z 16003KT 1200 R16/1400N R29/1200N FZBCFG FZBR BKN003 BKN045 M06/M06 Q1028 TEMPO 0700 FZBCFG SCT003 BKN045 8819//95;EQDQ01+000003PRSWM1Q02    003PRSWM1
0263110360999992000010710204+48120+016570FM-15+0190LOWW V0201301N000510015019N0014001N1-00501-00501999999ADDED199U15009GA1071+001509999GA2071+015009999GF107991999999999999999999MA1102811999999MW1481MW2661REMMET120LOWW 071020Z 13001KT 1400 2500NW R16/P1500N R29/P1500N -FZRA FZBR BKN005 BKN050 M05/M05 Q1028 BECMG AT1050 NSW 8819//95;EQDQ01+000003PRSWM1Q02    003PRSWM1
0245110360999992000010710504+48120+016570FM-15+0190LOWW V0201601N000510135019N0014001N1-00501-00501999999ADDED199U15009GA1021+001509999GA2071+013509999GF107991999999999999999999MA1102811999999MW1481REMMET108LOWW 070950Z 16001KT 1400 2500NW R16/P1500N R29/1300N FZBR SCT005 BKN045 M05/M05 Q1028 TEMPO -FZRA 8819//95;EQDQ01+000003PRSWM1Q02    003PRSWM1
0252110360999992000010711204+48120+016570FM-15+0190LOWW V02099999999990129019N0014001N1-00401-00501999999ADDED199U15009GA1021+001509999GA2071+012909999GF107991999999999999999999MA1102811999999MW1481REMMET115LOWW 071120Z VRB01KT 1400 2500NW R16/P1500N R29/P1500N FZBR FEW005 BKN043 M04/M05 Q1028 REFZRA TEMPO 1500 8819//95;EQDQ01+000003PRSWM1Q02    003PRSWM1
0263110360999992000010711504+48120+016570FM-15+0190LOWW V0201501N001010135019N0014001N1-00501-00501999999ADDED199U15009GA1021+001809999GA2071+013509999GF107991999999999999999999MA1102711999999MW1481MW2661REMMET120LOWW 071050Z 15002KT 1400 2300NW R16/P1500N R29/P1500N -FZRA FZBR FEW006 BKN045 M05/M05 Q1027 BECMG AT1110 NSW 8819//95;EQDQ01+000003PRSWM1Q02    003PRSWM1
0232110360999992000010712004+48120+016570FM-12+0190LOWW V0201201N001010012019N0014001N1-00451-00461102951ADDAA106000791AY161061AY241061GA1051+001209079GA2051+003009079GF107991071061001501999999MA1999999100501MD1510051+9999MW1241REMSYN100AAXX  07124 11036 11214 71202 11045 21046 30050 40295 55005 69901 72464 876// 333 85704 85710 93608;
0214110360999992000010712204+48120+016570FM-15+0190LOWW V0201301N001010009019N0011001N1-00401-00401999999ADDED199U14009GA1071+000909999GF107991999999999999999999MA1102711999999MW1481REMMET093LOWW 071220Z 13002KT 1100 1500S R16/1400D R29/1200N FZBR BKN003 M04/M04 Q1027 NOSIG 8819//95;EQDQ01+000003PRSWM1Q02    003PRSWM1
0239110360999992000010712504+48120+016570FM-15+0190LOWW V0201201N001510012019N0014001N1-00401-00501999999ADDED199U15009GA1071+001209999GA2071+003009999GF107991999999999999999999MA1102811999999MW1481REMMET102LOWW 071150Z 12003KT 1400 2500NW R16/P1500N R29/1400N FZBR BKN004 BKN010 M04/M05 Q1028 NOSIG 8819//95;EQDQ01+000003PRSWM1Q02    003PRSWM1
0217110360999992000010713204+48120+016570FM-15+0190LOWW V0201301N001010012019N0011001N1-00401-00401999999ADDED199U14009GA1071+001209999GA2071+011709999GF107991999999999999999999MA1102811999999MW1001REMMET096LOWW 071320Z 13002KT 1100 R16/1400N R29/1400N FZBCFG BKN004 BKN039 M04/M04 Q1028 NOSIG 8819//95;EQDQ01+000000PRSWM2
0233110360999992000010713504+48120+016570FM-15+0190LOWW V0201301N001010012019N0011001N1-00401-00401999999ADDED199U15009GA1071+001209999GA2071+013209999GF107991999999999999999999MA1102811999999MW1481REMMET096LOWW 071250Z 13002KT 1100 R16/P1500D R29/P1500N FZBR BKN004 BKN044 M04/M04 Q1028 NOSIG 8819//95;EQDQ01+000003PRSWM1Q02    003PRSWM1
0245110360999992000010714204+48120+016570FM-15+0190LOWW V0201501N002110135019N0013001N1-00401-00401999999ADDED199U15009GA1021+001209999GA2071+013509999GF107991999999999999999999MA1102811999999MW1481REMMET108LOWW 071420Z 15004KT 1300 1500S R16/P1500N R29/P1500N FZBR FEW004 BKN045 M04/M04 Q1028 TEMPO -FZRA 8819//95;EQDQ01+000003PRSWM1Q02    003PRSWM1
0239110360999992000010714504+48120+016570FM-15+0190LOWW V0201301N001010012019N0011001N1-00401-00401999999ADDED199U15009GA1071+001209999GA2071+012009999GF107991999999999999999999MA1102811999999MW1481REMMET102LOWW 071350Z 13002KT 1100 R16/P1500N R29/P1500N FZBR BKN004 BKN040 M04/M04 Q1028 TEMPO -FZRA 8819//95;EQDQ01+000003PRSWM1Q02    003PRSWM1
0215110360999992000010715004+48120+016570FM-12+0190LOWW V0201501N001010150019N0012001N1-00361-00371102981ADDAY121031AY221031GA1021+010209069GA2071+015009069GF108991081051012501999999MA1999999100541MD1310041+9999MW1241REMSYN094AAXX  07154 11036 41612 81502 11036 21037 30054 40298 53004 72422 885// 333 82634 87650 93608;
0245110360999992000010715204+48120+016570FM-15+0190LOWW V0201601N001510210019N0015001N1-00301-00301999999ADDED199U15009GA1021+010509999GA2071+021009999GF107991999999999999999999MA1102811999999MW1481REMMET108LOWW 071520Z 16003KT 1500 1200W R16/P1500N R29/P1500N FZBR FEW035 BKN073 M03/M03 Q1028 TEMPO -FZRA 8819//95;EQDQ01+000003PRSWM1Q02    003PRSWM1
0252110360999992000010715504+48120+016570FM-15+0190LOWW V0201501N002110150019N0015001N1-00401-00401999999ADDED199U15009GA1021+010209999GA2071+015009999GF107991999999999999999999MA1102811999999MW1481REMMET115LOWW 071450Z 15004KT 1500 1200W R16/P1500N R29/P1500N FZBR FEW034 BKN059 M04/M04 Q1028 REFZRA TEMPO -FZRA 8819//95;EQDQ01+000003PRSWM1Q02    003PRSWM1
0252110360999992000010716204+48120+016570FM-15+0190LOWW V0201501N002110330019N0009001N1-00401-00401999999ADDED199U15009GA1021+000309999GA2071+033009999GF107991999999999999999999MA1102811999999MW1661REMMET115LOWW 071620Z 15004KT 0900 R16/P1500N R29/P1500N -FZRA FZBCFG SCT001 BKN110 M04/M04 Q1028 BECMG NSW BKN001 8819//95;EQDQ01+000003PRSWM1Q02    003PRSWM1
0231110360999992000010716504+48120+016570FM-15+0190LOWW V0201501N001510126019N0007001N1-00401-00401999999ADDED199U14009GA1021+000159999GA2071+012609999GF107991999999999999999999MA1102811999999MW1001REMMET110LOWW 071650Z 15003KT 0700 R29/1400D FZPRFG SCT000 BKN042 M04/M04 Q1028 REFZRA BECMG 0400 FZFG BKN001 8819//95;EQDQ01+000003PRSWM1
0251110360999992000010718004+48120+016570FM-12+0190LOWW V0201401N001010003019N0004001N1-00381-00391102981ADDAA112000791AY171061AY261061GA1021+000159079GA2071+000309079GF108991081051000251999999KA1120M-00341MA1999999100541MD1510001+9999MW1481REMSYN106AAXX  07184 11036 11004 81402 11038 21039 30054 40298 55000 69902 74876 885// 333 11034 82700 87701 93609;
0212110360999992000010718204+48120+016570FM-15+0190LOWW V0201301N00151000151CN0004001N1-00401-00401999999ADDED199U04509GA1091+000159999GF109991999999000251999999MA1102811999999MW1491REMMET091LOWW 071820Z 13003KT 0400 R16/0450N R29/0500N FZFG VV001 M04/M04 Q1028 BECMG 0300 8829//95;EQDQ01+000003PRSWM1Q02    003PRSWM1
0236110360999992000010718504+48120+016570FM-15+0190LOWW V0201401N001510003019N0004001N1-00401-00401999999ADDED199U05509GA1021+000159999GA2071+000309999GF107991999999999999999999MA1102811999999MW1481REMMET099LOWW 071750Z 14003KT 0400 R16/0550N R29/0500N FZFG FEW000 BKN001 M04/M04 Q1028 BECMG 0300 8829//95;EQDQ01+000003PRSWM1Q02    003PRSWM1
0207110360999992000010719504+48120+016570FM-15+0190LOWW V0201301N00151000151CN0002001N1-00401-00401999999ADDED199U04509GA1091+000159999GF109991999999000251999999MA1102811999999MW1491REMMET086LOWW 071950Z 13003KT 0200 R16/0450N R29/0400N FZFG VV001 M04/M04 Q1028 NOSIG 8829//95;EQDQ01+000003PRSWM1Q02    003PRSWM1
0212110360999992000010720504+48120+016570FM-15+0190LOWW V0201401N00151000151CN0003001N1-00401-00401999999ADDED199U07509GA1091+000159999GF109991999999000251999999MA1102811999999MW1491REMMET091LOWW 072050Z 14003KT 0300 R16/0750N R29/0700N FZFG VV001 M04/M04 Q1028 TEMPO 0400 8829//95;EQDQ01+000003PRSWM1Q02    003PRSWM1
0181110360999992000010721004+48120+016570FM-12+0190LOWW V0201401N001010003019N0003001N1-00371-00381102991ADDAY141031AY241031GA1091+000309999GF109991091999999999999999MA1999999100551MD1110011+9999MW1491REMSYN076AAXX  07214 11036 41/03 91402 11037 21038 30055 40299 51001 74944 333 89/01;
0213110360999992000010721504+48120+016570FM-15+0190LOWW V0201501N00211000151CN0006001N1-00401-00401999999ADDED199U15009GA1091+000159999GF109991999999000251999999MA1102811999999MW1491REMMET092LOWW 072150Z 15004KT 0600 R16/P1500U R29/1400N FZFG VV002 M04/M04 Q1028 BECMG 0800 8829//95;EQDQ01+000003PRSWM1Q02    003PRSWM1
0208110360999992000010722504+48120+016570FM-15+0190LOWW V0201501N00151000151CN0007001N1-00301-00301999999ADDED199U15009GA1091+000159999GF109991999999000251999999MA1102811999999MW1491REMMET087LOWW 072250Z 15003KT 0700 R16/P1500N R29/1400N FZFG VV002 M03/M03 Q1028 NOSIG 8829//95;EQDQ01+000003PRSWM1Q02    003PRSWM1
0207110360999992000010723504+48120+016570FM-15+0190LOWW V0201401N00211000151CN0004001N1-00301-00301999999ADDED199U08009GA1091+000159999GF109991999999000251999999MA1102711999999MW1491REMMET086LOWW 072350Z 14004KT 0400 R16/0800N R29/0700N FZFG VV002 M03/M03 Q1027 NOSIG 8829//95;EQDQ01+000003PRSWM1Q02    003PRSWM1
0217110360999992000010800004+48120+016570FM-12+0190LOWW V0201401N001010006019N0004001N1-00311-00321102901ADDAA106000091AY141061AY241061GA1091+000609999GF109991091999999999999999MA1999999100471MD1710081+9999MW1491REMSYN082AAXX  08004 11036 31/04 91402 11031 21032 30047 40290 57008 74944 333 89/02 93502;EQDQ01  00002PRCP06
0207110360999992000010800504+48120+016570FM-15+0190LOWW V0201301N00151000151CN0003001N1-00301-00301999999ADDED199U08009GA1091+000159999GF109991999999000251999999MA1102711999999MW1491REMMET086LOWW 080050Z 13003KT 0300 R16/0800N R29/0700N FZFG VV002 M03/M03 Q1027 NOSIG 8829//95;EQDQ01+000003PRSWM1Q02    003PRSWM1
0209110360999992000010801504+48120+016570FM-15+0190LOWW V0201401N00261000151CN0009001N1-00301-00301999999ADDED199U15009GA1091+000159999GF109991999999000251999999MA1102711999999MW1491REMMET088LOWW 080150Z 14005KT 0900 R16/P1500N R29/P1500N FZFG VV003 M03/M03 Q1027 NOSIG 8829//95;EQDQ01+000003PRSWM1Q02    003PRSWM1
0207110360999992000010802504+48120+016570FM-15+0190LOWW V0201501N00361000151CN0005001N1-00201-00201999999ADDED199U13009GA1091+000159999GF109991999999000251999999MA1102611999999MW1491REMMET086LOWW 080250Z 15007KT 0500 R16/1300D R29/1000D FZFG VV002 M02/M02 Q1026 NOSIG 8829//95;EQDQ01+000003PRSWM1Q02    003PRSWM1
0187110360999992000010803004+48120+016570FM-12+0190LOWW V0201501N002110006019N0005001N1-00221-00231102801ADDAY141031AY241031GA1091+000609999GF109991091999999999999999MA1999999100381MD1710091+9999MW1491REMSYN082AAXX  08034 11036 41/05 91504 11022 21023 30038 40280 57009 74944 333 89/02 93503;
0213110360999992000010803504+48120+016570FM-15+0190LOWW V0201501N00411000151CN0006001N1-00201-00201999999ADDED199U15009GA1091+000159999GF109991999999000251999999MA1102611999999MW1491REMMET092LOWW 080350Z 15008KT 0600 R16/P1500D R29/1100N FZFG VV002 M02/M02 Q1026 TEMPO 0400 8829//95;EQDQ01+000003PRSWM1Q02    003PRSWM1
0207110360999992000010804504+48120+016570FM-15+0190LOWW V0201601N00361000151CN0007001N1-00301-00301999999ADDED199U13009GA1091+000159999GF109991999999000251999999MA1102611999999MW1491REMMET086LOWW 080450Z 16007KT 0700 R16/1300N R29/1300U FZFG VV002 M03/M03 Q1026 NOSIG 8829//95;EQDQ01+000003PRSWM1Q02    003PRSWM1
0207110360999992000010805504+48120+016570FM-15+0190LOWW V0201601N00361000151CN0005001N1-00401-00401999999ADDED199U10009GA1091+000159999GF109991999999000251999999MA1102611999999MW1491REMMET086LOWW 080550Z 16007KT 0500 R16/1000N R29/1000N FZFG VV002 M04/M04 Q1026 NOSIG 8829//95;EQDQ01+000003PRSWM1Q02    003PRSWM1
0265110360999992000010806004+48120+016570FM-12+0190LOWW V0201601N002110006019N0005001N1-00371-00381102811ADDAA106000091AJ100059199999999AY141061AY241061GA1091+000609999GF109991091999999999999999IA1289KA1120N-00391MA1999999100371MD1610011+9999MW1491REMSYN094AAXX  08064 11036 31/05 91604 11037 21038 30037 40281 56001 74944 333 21039 44005 89/02 93503;EQDQ01  00002PRCP06
0218110360999992000010807204+48120+016570FM-15+0190LOWW V0209999999999000151CN0005001N1-00401-00401999999ADDED199U09009GA1091+000159999GF109991999999000251999999MA1102711999999MW1491REMMET097LOWW 080720Z VRB03KT 0500 R16/0900N R29/1000VP1500D FZFG VV001 M04/M04 Q1027 TEMPO 0300 8829//95;EQDQ01+000003PRSWM1Q02    003PRSWM1
0218110360999992000010807504+48120+016570FM-15+0190LOWW V0201701N00311000151CN0006001N1-00401-00401999999ADDED199U09009GA1091+000159999GF109991999999000251999999MA1102711999999MW1491REMMET097LOWW 080650Z 17006KT 0600 R16/0900N R29/1000VP1500D FZFG VV001 M04/M04 Q1027 TEMPO 0300 8829//95;EQDQ01+000003PRSWM1Q02    003PRSWM1
0236110360999992000010808204+48120+016570FM-15+0190LOWW V02099999999990006019N0005001N1-00401-00401999999ADDED199U10009GA1021+000309999GA2071+000609999GF107991999999999999999999MA1102711999999MW1481REMMET099LOWW 080820Z VRB02KT 0500 R16/1000N R29/0800N FZFG SCT001 BKN002 M04/M04 Q1027 TEMPO 0800 8829//95;EQDQ01+000003PRSWM1Q02    003PRSWM1
0245110360999992000010808504+48120+016570FM-15+0190LOWW V0201701N002610006019N0008001N1-00301-00301999999ADDED199U15009GA1021+000309999GA2071+000609999GF107991999999999999999999MA1102711999999MW1481REMMET108LOWW 080750Z 17005KT 130V220 0800 R16/P1500N R29/1000N FZFG SCT001 BKN002 M03/M03 Q1027 TEMPO 0600 8829//95;EQDQ01+000003PRSWM1Q02    003PRSWM1
0193110360999992000010809004+48120+016570FM-12+0190LOWW V0201701N00151000301CN0007001N1-00361-00381102941ADDAY141031AY241031GA1021+000309079GF108991081061000251999999MA1999999100501MD1210131+9999MW1481REMSYN088AAXX  08094 11036 41007 81703 11036 21038 30050 40294 52013 74844 886// 333 82701 87703;
0233110360999992000010809204+48120+016570FM-15+0190LOWW V02099999999990009019N0012001N1-00301-00401999999ADDED199U15009GA1021+000609999GA2071+000909999GF107991999999999999999999MA1102811999999MW1481REMMET096LOWW 080920Z VRB03KT 1200 R16/P1500N R29/P1500N FZBR SCT002 BKN003 M03/M04 Q1028 NOSIG 8829//95;EQDQ01+000003PRSWM1Q02    003PRSWM1
0237110360999992000010809504+48120+016570FM-15+0190LOWW V0201701N002610009019N0007001N1-00401-00401999999ADDED199U15009GA1021+000309999GA2071+000909999GF107991999999999999999999MA1102811999999MW1481REMMET100LOWW 080850Z 17005KT 0700 R16/P1500N R29/0900D FZFG FEW001 BKN003 M04/M04 Q1028 TEMPO 0800 8829//95;EQDQ01+000003PRSWM1Q02    003PRSWM1
0232110360999992000010810204+48120+016570FM-15+0190LOWW V0202101N001010009019N0012001N1-00401-00401999999ADDED199U15009GA1021+000609999GA2071+000909999GF107991999999999999999999MA1102711999999MW1481REMMET095LOWW 081020Z 21002KT 1200 R16/P1500N R29/1400N FZBR FEW002 BKN003 M04/M04 Q1027 NOSIG 8829//95;EQDQ01+000003PRSWM1Q02    003PRSWM1
0232110360999992000010810504+48120+016570FM-15+0190LOWW V02099999999990009019N0010001N1-00401-00401999999ADDED199U15009GA1021+000609999GA2071+000909999GF107991999999999999999999MA1102711999999MW1481REMMET095LOWW 080950Z VRB02KT 1000 R16/P1500N R29/1400N FZBR SCT002 BKN003 M04/M04 Q1027 NOSIG 8829//95;EQDQ01+000003PRSWM1Q02    003PRSWM1
0232110360999992000010811204+48120+016570FM-15+0190LOWW V02099999999990009019N0013001N1-00301-00401999999ADDED199U15009GA1021+000609999GA2071+000909999GF107991999999999999999999MA1102711999999MW1481REMMET095LOWW 081120Z VRB01KT 1300 R16/P1500N R29/1400N FZBR FEW002 BKN003 M03/M04 Q1027 NOSIG 8829//95;EQDQ01+000003PRSWM1Q02    003PRSWM1
0232110360999992000010811504+48120+016570FM-15+0190LOWW V02099999999990009019N0013001N1-00401-00401999999ADDED199U15009GA1021+000609999GA2071+000909999GF107991999999999999999999MA1102711999999MW1481REMMET095LOWW 081050Z VRB01KT 1300 R16/P1500N R29/1400N FZBR FEW002 BKN003 M04/M04 Q1027 NOSIG 8829//95;EQDQ01+000003PRSWM1Q02    003PRSWM1
0223110360999992000010812004+48120+016570FM-12+0190LOWW V0209999C00001000601CN0013001N1-00311-00331102851ADDAA106000091AY141061AY241061GA1041+000909079GF108991081061000751999999MA1999999100421MD1810081+9999MW1101REMSYN088AAXX  08124 11036 31113 80000 11031 21033 30042 40285 58008 71044 886// 333 84703 87704;EQDQ01  00002PRCP06
0243110360999992000010812204+48120+016570FM-15+0190LOWW V02099999999990015019N0014001N1-00301-00301999999ADDED199U15009GA1021+000909999GA2071+001509999GF107991999999999999999999MA1102711999999MW1481REMMET106LOWW 081220Z VRB02KT 1400 3000E R16/P1500N R29/1400N FZBR SCT003 BKN005 M03/M03 Q1027 TEMPO 1600 8829//95;EQDQ01+000003PRSWM1Q02    003PRSWM1
0232110360999992000010812504+48120+016570FM-15+0190LOWW V0209999C000010012019N0013001N1-00301-00301999999ADDED199U15009GA1021+000909999GA2071+001209999GF107991999999999999999999MA1102711999999MW1481REMMET095LOWW 081150Z 00000KT 1300 R16/P1500N R29/1400N FZBR SCT003 BKN004 M03/M03 Q1027 NOSIG 8829//95;EQDQ01+000003PRSWM1Q02    003PRSWM1
0252110360999992000010813204+48120+016570FM-15+0190LOWW V02099999999990015019N0016001N1-00301-00301999999ADDED199U15009GA1021+000909999GA2071+001509999GF107991999999999999999999MA1102611999999MW1481REMMET115LOWW 081320Z VRB02KT 1600 R16/P1500N R29/P1500N FZBR SCT003 BKN005 M03/M03 Q1026 TEMPO 1200 BKN003 OVC005 8829//95;EQDQ01+000003PRSWM1Q02    003PRSWM1
0244110360999992000010813504+48120+016570FM-15+0190LOWW V0201701N001010015019N0014001N1-00301-00301999999ADDED199U15009GA1021+000909999GA2071+001509999GF107991999999999999999999MA1102711999999MW1481REMMET107LOWW 081250Z 17002KT 1400 3000E R16/P1500N R29/P1500U FZBR SCT003 BKN005 M03/M03 Q1027 TEMPO 1600 8829//95;EQDQ01+000003PRSWM1Q02    003PRSWM1
0200110360999992000010814504+48120+016570FM-15+0190LOWW V0202301N001510018019N0021001N1-00301-00301999999ADDGA1021+001509999GA2071+001809999GF107991999999999999999999MA1102611999999MW1481REMMET074LOWW 081450Z 23003KT 2100 FZBR FEW005 BKN006 M03/M03 Q1026 NOSIG 8829//95;EQDQ01+000003PRSWM1Q02    003PRSWM1
0193110360999992000010815004+48120+016570FM-12+0190LOWW V0202301N00101001201CN0021001N1-00301-00321102821ADDAY121031AY221031GA1021+001509079GF108991081061001501999999MA1999999100391MD1510031+9999MW1101REMSYN088AAXX  08154 11036 41221 82302 11030 21032 30039 40282 55003 71022 886// 333 82705 87706;
0200110360999992000010815504+48120+016570FM-15+0190LOWW V02099999999990018019N0022001N1-00301-00301999999ADDGA1021+001509999GA2071+001809999GF107991999999999999999999MA1102711999999MW1481REMMET074LOWW 081550Z VRB02KT 2200 FZBR FEW005 BKN006 M03/M03 Q1027 NOSIG 8819//95;EQDQ01+000003PRSWM1Q02    003PRSWM1
0200110360999992000010816504+48120+016570FM-15+0190LOWW V02099999999990018019N0024001N1-00301-00301999999ADDGA1071+001809999GA2071+002109999GF107991999999999999999999MA1102711999999MW1481REMMET074LOWW 081650Z VRB02KT 2400 FZBR BKN006 BKN007 M03/M03 Q1027 NOSIG 8819//95;EQDQ01+000003PRSWM1Q02    003PRSWM1
0207110360999992000010817504+48120+016570FM-15+0190LOWW V02099999999990018019N0024001N1-00301-00301999999ADDGA1021+001509999GA2071+001809999GF107991999999999999999999MA1102711999999MW1481REMMET081LOWW 081750Z VRB02KT 2400 FZBR SCT005 BKN006 M03/M03 Q1027 BECMG OVC004 8819//95;EQDQ01+000003PRSWM1Q02    003PRSWM1
0264110360999992000010818004+48120+016570FM-12+0190LOWW V0209999V000510018019N0024001N1-00281-00301102871ADDAA106000091AY121061AY221061GA1031+001509079GA2061+001809079GF108991081061001501999999KA1120M-00261MA1999999100441MD1110051+9999MW1101REMSYN100AAXX  08184 11036 31224 89901 11028 21030 30044 40287 51005 71022 886// 333 11026 83705 86706 93501;EQDQ01  00002PRCP06
0182110360999992000010818504+48120+016570FM-15+0190LOWW V0201801N001510012019N0018001N1-00301-00301999999ADDGA1081+001209999GF108991999999999999999999MA1102711999999MW1481REMMET072LOWW 081850Z 18003KT 1800 FZBR OVC004 M03/M03 Q1027 BECMG 1400 8819//95;EQDQ01+000003PRSWM1Q02    003PRSWM1
0205110360999992000010819504+48120+016570FM-15+0190LOWW V0202101N001510006019N0016001N1-00301-00301999999ADDGA1071+000609999GA2081+001209999GF108991999999999999999999MA1102711999999MW1481REMMET079LOWW 081950Z 21003KT 1600 FZBR BKN002 OVC004 M03/M03 Q1027 BECMG 1400 8819//95;EQDQ01+000003PRSWM1Q02    003PRSWM1
0191110360999992000010820504+48120+016570FM-15+0190LOWW V0202001N001510006019N0012001N1-00301-00301999999ADDED199U15009GA1081+000609999GF108991999999999999999999MA1102711999999MW1001REMMET086LOWW 082050Z 20003KT 1200 1800S R29/P1500N FZBCFG OVC002 M03/M03 Q1027 NOSIG 8819//95;EQDQ01+000000PRSWM2
0193110360999992000010821004+48120+016570FM-12+0190LOWW V0202001N001010006019N0012001N1-00271-00291102871ADDAY121031AY221031GA1081+000609079GF108991081061000751999999MA1999999100441MD1510001+9999MW1411REMSYN088AAXX  08214 11036 41112 82002 11027 21029 30044 40287 55000 74122 886// 333 88702 93502;
0214110360999992000010821504+48120+016570FM-15+0190LOWW V0201801N001010009019N0012001N1-00301-00301999999ADDED199U15009GA1021+000309999GA2071+000909999GF107991999999999999999999MA1102711999999MW1001REMMET093LOWW 082150Z 18002KT 1200 1800S R29/P1500N FZBCFG SCT001 BKN003 M03/M03 Q1027 NOSIG 8819//95;EQDQ01+000000PRSWM2
0214110360999992000010822504+48120+016570FM-15+0190LOWW V0201501N002110015019N0005001N1-00301-00301999999ADDED199U15009GA1021+000309999GA2081+001509999GF108991999999999999999999MA1102611999999MW1001REMMET093LOWW 082250Z 15004KT 0500 3000S R29/P1500N FZBCFG FEW001 OVC005 M03/M03 Q1026 NOSIG 8819//95;EQDQ01+000000PRSWM2
0208110360999992000010823204+48120+016570FM-15+0190LOWW V0201901N001010015019N0002501N1-00301-00301999999ADDGA1021+000909999GA2071+001509999GF107991999999999999999999MA1102611999999MW1001REMMET098LOWW 082320Z 19002KT 0250 2800S R29/1200VP1500D FZBCFG FEW003 BKN005 M03/M03 Q1026 NOSIG 8819//95;EQDQ01+000000PRSWM2
0230110360999992000010823504+48120+016570FM-15+0190LOWW V0202701N001010009019N0003501N1-00301-00301999999ADDED199U08009GA1021+000609999GA2071+000909999GA3071+001209999GF107991999999999999999999MA1102611999999MW1001REMMET093LOWW 082350Z 27002KT 0350 R29/0800N FZPRFG FEW002 BKN003 BKN004 M03/M03 Q1026 NOSIG 8819//95;EQDQ01+000000PRSWM2
0254110360999992000010900004+48120+016570FM-12+0190LOWW V0202701N000510009019N0003001N1-00311-00331102801ADDAA106000791AY171061AY241061GA1011+000609079GA2051+000909079GA3071+001209079GF108991081061000751999999MA1999999100371MD1610071+9999MW1481REMSYN106AAXX  09004 11036 11103 82701 11031 21033 30037 40280 56007 69901 74874 886// 333 81702 85703 87704 93503;
0207110360999992000010900504+48120+016570FM-15+0190LOWW V0209999C000010006019N0003501N1-00301-00301999999ADDED199U11009GA1021+000309999GA2071+000609999GF107991999999999999999999MA1102611999999MW1001REMMET086LOWW 090050Z 00000KT 0350 R29/1100N FZPRFG FEW001 BKN002 M03/M03 Q1026 NOSIG 8819//95;EQDQ01+000000PRSWM2
0206110360999992000010901504+48120+016570FM-15+0190LOWW V0201601N002610006019N0013001N1-00301-00301999999ADDGA1021+000309999GA2071+000609999GF107991999999999999999999MA1102611999999MW1481REMMET080LOWW 090150Z 16005KT 1300 2200S FZBR SCT001 BKN002 M03/M03 Q1026 NOSIG 8819//95;EQDQ01+000003PRSWM1Q02    003PRSWM1
0214110360999992000010902504+48120+016570FM-15+0190LOWW V0201501N002610006019N0006001N1-00301-00301999999ADDED199U15009GA1021+000309999GA2071+000609999GF107991999999999999999999MA1102611999999MW1001REMMET093LOWW 090250Z 15005KT 0600 2000S R29/P1500N FZPRFG SCT001 BKN002 M03/M03 Q1026 NOSIG 8819//95;EQDQ01+000000PRSWM2
0193110360999992000010903004+48120+016570FM-12+0190LOWW V0201501N00151000301CN0006001N1-00311-00331102781ADDAY141031AY221031GA1031+000309079GF108991081061000251999999MA1999999100351MD1510021+9999MW1481REMSYN088AAXX  09034 11036 41006 81503 11031 21033 30035 40278 55002 74842 886// 333 83701 86702;
0214110360999992000010903504+48120+016570FM-15+0190LOWW V0201601N003110009019N0003001N1-00301-00401999999ADDED199U15009GA1021+000309999GA2071+000909999GF107991999999999999999999MA1102611999999MW1001REMMET093LOWW 090350Z 16006KT 0300 2000S R29/P1500N FZPRFG FEW001 BKN003 M03/M04 Q1026 NOSIG 8819//95;EQDQ01+000000PRSWM2
0214110360999992000010904504+48120+016570FM-15+0190LOWW V0201501N002610006019N0009001N1-00401-00401999999ADDED199U15009GA1021+000309999GA2071+000609999GF107991999999999999999999MA1102611999999MW1001REMMET093LOWW 090450Z 15005KT 0900 1700S R29/P1500N FZBCFG FEW001 BKN002 M04/M04 Q1026 NOSIG 8819//95;EQDQ01+000000PRSWM2
0177110360999992000010907204+48120+016570FM-15+0190LOWW V02099999999990009019N0020001N1-00401-00401999999ADDGA1081+000909999GF108991999999999999999999MA1102711999999MW1481REMMET067LOWW 090720Z VRB03KT 2000 FZBR OVC003 M04/M04 Q1027 NOSIG 8819//95;EQDQ01+000003PRSWM1Q02    003PRSWM1
0242110360999992000010908204+48120+016570FM-15+0190LOWW V0202001N001510006019N0009001N1-00401-00401999999ADDED199U15009GA1021+000309999GA2071+000609999GA3071+000909999GF107991999999999999999999MA1102711999999MW1001REMMET105LOWW 090820Z 20003KT 0900 R16/P1500N R29/P1500N FZPRFG FEW001 BKN002 BKN003 M04/M04 Q1027 NOSIG 8819//95;EQDQ01+000000PRSWM2
0238110360999992000010908504+48120+016570FM-15+0190LOWW V02099999999990006019N0009001N1-00401-00401999999ADDED199U15009GA1071+000609999GA2071+000909999GF107991999999999999999999MA1102711999999MW1481REMMET101LOWW 090750Z VRB03KT 0900 R16/P1500D R29/P1500D FZFG BKN002 BKN003 M04/M04 Q1027 TEMPO 0600 8819//95;EQDQ01+000003PRSWM1Q02    003PRSWM1
0187110360999992000010909004+48120+016570FM-12+0190LOWW V0202001N001010009019N0014001N1-00411-00431102871ADDAY141031AY221031GA1081+000909069GF108991081061000751999999MA1999999100431MD1010071+9999MW1101REMSYN082AAXX  09094 11036 41114 82002 11041 21043 30043 40287 50007 71042 886// 333 88703;
0184110360999992000010909504+48120+016570FM-15+0190LOWW V02099999999990012019N0020001N1-00401-00401999999ADDGA1081+001209999GF108991999999999999999999MA1102711999999MW1481REMMET074LOWW 090950Z VRB02KT 2000 FZBR OVC004 M04/M04 Q1027 TEMPO OVC005 8819//95;EQDQ01+000003PRSWM1Q02    003PRSWM1
0177110360999992000010910504+48120+016570FM-15+0190LOWW V02099999999990015019N0025001N1-00301-00301999999ADDGA1081+001509999GF108991999999999999999999MA1102611999999MW1481REMMET067LOWW 091050Z VRB03KT 2500 FZBR OVC005 M03/M03 Q1026 NOSIG 8819//95;EQDQ01+000003PRSWM1Q02    003PRSWM1
0242110360999992000010911504+48120+016570FM-15+0190LOWW V0201401N003610018019N0032001N1-00201-00301999999ADDGA1021+000909999GA2071+001809999GA3081+009009999GF108991999999999999999999MA1102611999999MW1481REMMET100LOWW 091150Z 14007KT 3200 FZBR FEW003 BKN006 OVC030 M02/M03 Q1026 TEMPO 3500 SCT006 BKN030 8819//95;EQDQ01+000003PRSWM1Q02    003PRSWM1
0245110360999992000010912004+48120+016570FM-12+0190LOWW V0201401N002110018019N0032001N1-00251-00271102781ADDAA106000091AY141061AY221061GA1011+000909079GA2051+001809079GF108991081051000751999999MA1999999100361MD1810071+9999MW1101REMSYN094AAXX  09124 11036 31132 81404 11025 21027 30036 40278 58007 71042 885// 333 81703 85706 88630;EQDQ01  00002PRCP06
0212110360999992000010912504+48120+016570FM-15+0190LOWW V0201301N004610027019N0042001N1-00301-00301999999ADDGA1021+001809999GA2071+002709999GF107991999999999999999999MA1102611999999MW1101REMMET086LOWW 091250Z 13009KT 4200 BR SCT006 BKN009 M03/M03 Q1026 TEMPO SCT006 BKN030 8819//95;EQDQ01+000003PRSWM1Q02    003PRSWM1
0198110360999992000010913504+48120+016570FM-15+0190LOWW V0201301N003610036019N0048001N1-00301-00301999999ADDGA1021+001809999GA2071+003609999GF107991999999999999999999MA1102611999999MW1101REMMET072LOWW 091350Z 13007KT 4800 BR FEW006 BKN012 M03/M03 Q1026 NOSIG 8819//95;EQDQ01+000003PRSWM1Q02    003PRSWM1
0210110360999992000010914504+48120+016570FM-15+0190LOWW V0201401N003610024019N0048001N1-00301-00301999999ADDGA1021+001809999GA2071+002409999GF107991999999999999999999MA1102611999999MW1101REMMET084LOWW 091450Z 14007KT 4800 BR FEW006 BKN008 M03/M03 Q1026 TEMPO 3000 BKN006 8819//95;EQDQ01+000003PRSWM1Q02    003PRSWM1
0193110360999992000010915004+48120+016570FM-12+0190LOWW V0201401N00211001201CN0048001N1-00261-00281102821ADDAY121031AY221031GA1021+001809079GF108991081061001501999999MA1999999100391MD1110031+9999MW1101REMSYN088AAXX  09154 11036 41248 81404 11026 21028 30039 40282 51003 71022 886// 333 82706 86708;
