0059130070999992000111301004+46500+013720FM-15+086599999V02099999999992200019N0112651N1+99999+99999999999ADDMW1001REMMET022-1(90 )8/2- LQPPU N O;EQDQ01+000000PRSWM2
