0220153000999992000010100004+45630+025580FM-12+053899999V0209999C000019999999N0040001N1-00381-00381999999ADDAA100009991AJ100039199999999AY171061AY221061GF108991999999004501999999IA1239MA1999999095551MD1710101+9999ME1207969MW1711REMSYN088AAXX  01001 15300 /1440 80000 11038 21038 39555 42796 57010 60031 77172 333 47003 6010/;
0118153000999992000010104004+45630+025580FM-12+053899999V0209999C000010042019N0032001N1-00381+99999999999ADDAY171999AY271999GF108991051071004501021999MW1711REMSYN058AAXX  01041 15300 41432 80000 11038 77177 8572/ 333 96010;
0118153000999992000010105004+45630+025580FM-12+053899999V0209999C000010042019N0032001N1-00401+99999999999ADDAY171999AY271999GF108991051071004501021999MW1711REMSYN058AAXX  01051 15300 41432 80000 11040 77177 8572/ 333 96010;
0275153000999992000010106004+45630+025580FM-12+053899999V0203201N004010360019N0040001N1-00401-00401999999ADDAA103003091AJ100089199999999AY171061AY271061GF108991041071004501021999IA1239IA2120-00409KA1120N-00401MA1999999095561MD1310011+9999ME1207969MW1711REMSYN118AAXX  01061 15300 /1440 83204 11040 21040 39556 42796 53001 60082 77177 8472/ 333 21040 3/104 47008 60037 92800 96010;
0118153000999992000010107004+45630+025580FM-12+053899999V0209999C000010042019N0040001N1-00401+99999999999ADDAY171011AY271011GF108991051071004501021999MW1711REMSYN058AAXX  01071 15300 41440 80000 11040 77177 8572/ 333 96010;
0108153000999992000010108004+45630+025580FM-12+053899999V0203201N003010042019N0040001N1-00361+99999999999ADDAY171999AY271999GF108991051071004501021999MW1711REMSYN048AAXX  01081 15300 41440 83203 11036 77177 8572/;
0191153000999992000010109004+45630+025580FM-12+053899999V0203201N005010042019N0040001N1-00311-00311999999ADDAA103000191AY171031AY271031GF108991081001004501021999MA1999999095651MD1210091+9999ME1207969MW1711REMSYN082AAXX  01091 15300 21440 83205 11031 21031 39565 42796 52009 77177 8802/ 333 69917;
0095153000999992000010110004+45630+025580FM-12+053899999V0203201N005019999999N9999999N1-00281+99999999999ADDAA100015091GF108991999999999999999999REMSYN046AAXX  01101 15300 41/// 83205 11028 333 6015/;
0108153000999992000010113004+45630+025580FM-12+053899999V0203201N004010360019N0060001N1-00301+99999999999ADDAY121999AY221999GF108991031081008001021999MW1101REMSYN048AAXX  01131 15300 41556 83204 11030 71022 8382/;
0166153000999992000010115004+45630+025580FM-12+053899999V0203201N006010075019N0060001N1-00361-00361999999ADDAA106000021AY121031AY221031GF107991051051008001071001MA1999999095751MD1210101+9999MW1101REMSYN066AAXX  01151 15300 31556 73206 11036 21036 39575 52010 71022 85570;
0108153000999992000010116004+45630+025580FM-12+053899999V0203201N004010075019N0060001N1-00401+99999999999ADDAY121999AY221999GF107991051051008001071001MW1101REMSYN048AAXX  01161 15300 41556 73204 11040 71022 85570;
0108153000999992000010117004+45630+025580FM-12+053899999V0203201N001010075019N0060001N1-00441+99999999999ADDAY121999AY221999GF107991051051008001071001MW1101REMSYN048AAXX  01171 15300 41556 73201 11044 71022 85570;
0223153000999992000010118004+45630+025580FM-12+053899999V0203201N002010075019N0100001N1-00461-00461999999ADDAA112000891AJ100099199999999GF105991051051008001001001IA1239KA1120M-00181MA1999999095811MD1210061+9999ME1208139REMSYN100AAXX  01181 15300 12560 53202 11046 21046 39581 42813 52006 69972 85500 333 11018 3/101 47009 92800;
0080153000999992000010119004+45630+025580FM-12+053899999V0209999C000010075019N0100001N1-00481+99999999999ADDGF106991061051008001001001REMSYN042AAXX  01191 15300 42560 60000 11048 86500;
0080153000999992000010120004+45630+025580FM-12+053899999V0209999C000010075019N0100001N1-00481+99999999999ADDGF106991061051008001001001REMSYN042AAXX  01201 15300 42560 60000 11048 86500;
0172153000999992000010121004+45630+025580FM-12+053899999V0209999C000010075019N0100001N1-00481-00481999999ADDAA106000091GF108991081051008001999999MA1999999095891MD1210081+9999ME1208219REMSYN066AAXX  01211 15300 32560 80000 11048 21048 39589 42821 52008 885//;EQDQ01  00002PRCP06
0080153000999992000010122004+45630+025580FM-12+053899999V0209999C000010075019N0100001N1-00481+99999999999ADDGF108991081051008001999999REMSYN042AAXX  01221 15300 42560 80000 11048 885//;
0080153000999992000010123004+45630+025580FM-12+053899999V0209999C000010075019N0100001N1-00461+99999999999ADDGF108991081051008001999999REMSYN042AAXX  01231 15300 42560 80000 11046 885//;
0190153000999992000010200004+45630+025580FM-12+053899999V0209999C000010075019N0120001N1-00481-00481999999ADDAA106000091AJ100099199999999GF108991081051008001999999IA1239MD1210041+9999ME1208619REMSYN076AAXX  02001 15300 32562 80000 11048 21048 395/3 42861 52004 885// 333 47009;EQDQ01  00002PRCP06
0080153000999992000010202004+45630+025580FM-12+053899999V0209999C000010075019N0100001N1-00521+99999999999ADDGF108991081051008001999999REMSYN042AAXX  02021 15300 42560 80000 11052 885//;
0172153000999992000010203004+45630+025580FM-12+053899999V0209999C000010075019N0100001N1-00541-00541999999ADDAA106000091GF108991081051008001999999MA1999999095961MD1210031+9999ME1208299REMSYN066AAXX  02031 15300 32560 80000 11054 21054 39596 42829 52003 885//;EQDQ01  00002PRCP06
0068153000999992000010204004+45630+025580FM-12+053899999V02099999999999999999N0100001N1+99999+99999999999ADDGF108991999999999999999999REMSYN030AAXX  02041 15300 42960 80///;
0080153000999992000010205004+45630+025580FM-12+053899999V0209999C000010075019N0100001N1-00551+99999999999ADDGF108991081051008001999999REMSYN042AAXX  02051 15300 42560 80000 11055 885//;
0258153000999992000010206004+45630+025580FM-12+053899999V0209999C000010075019N0100001N1-00581-00581999999ADDAA106000091AJ100099199999999GF108991081051008001999999IA1239IA2120-00809KA1120N-00621MA1999999096071MD1210111+9999ME1208379REMSYN104AAXX  02061 15300 32560 80000 11058 21058 39607 42837 52011 885// 333 21062 3/108 47009 92800 555 69907;EQDQ01  00002PRCP06
0118153000999992000010208004+45630+025580FM-12+053899999V0209999C000010042019N0032001N1-00541+99999999999ADDAY171999AY271999GF108991081051004501999999MW1711REMSYN058AAXX  02081 15300 41432 80000 11054 77177 885// 333 96010;
0197153000999992000010209004+45630+025580FM-12+053899999V0209999C000010042019N0032001N1-00511-00511999999ADDAA103000391AY171031AY221031GF108991081051004501999999MA1999999096221MD1210151+9999ME1208459MW1221REMSYN088AAXX  02091 15300 21432 80000 11051 21051 39622 42845 52015 72272 885// 333 69937 96010;
0118153000999992000010210004+45630+025580FM-12+053899999V0209999C000010042019N0032001N1-00481+99999999999ADDAY121999AY221999GF108991081051004501999999MW1101REMSYN058AAXX  02101 15300 41432 80000 11048 71022 885// 333 96010;
0080153000999992000010214004+45630+025580FM-12+053899999V0209999C000010075019N0100001N1-00461+99999999999ADDGF108991081051008001999999REMSYN042AAXX  02141 15300 42560 80000 11046 885//;
0153153000999992000010215004+45630+025580FM-12+053899999V0209999C000010075019N0100001N1-00541-00541999999ADDAA106000021GF108991081051008001999999MA1999999096281MD1210071+9999ME1208459REMSYN066AAXX  02151 15300 32560 80000 11054 21054 39628 42845 52007 885//;
0080153000999992000010216004+45630+025580FM-12+053899999V0209999C000010075019N0100001N1-00501+99999999999ADDGF108991081051008001999999REMSYN042AAXX  02161 15300 42560 80000 11050 885//;
0080153000999992000010217004+45630+025580FM-12+053899999V0209999C000010075019N0100001N1-00501+99999999999ADDGF108991081051008001999999REMSYN042AAXX  02171 15300 42560 80000 11050 885//;
0223153000999992000010218004+45630+025580FM-12+053899999V0209999C000010075019N0100001N1-00641-00641999999ADDAA112000391AJ100099199999999GF106991061051008001001001IA1239KA1120M-00301MA1999999096341MD1210061+9999ME1208539REMSYN100AAXX  02181 15300 12560 60000 11064 21064 39634 42853 52006 69932 86500 333 11030 3/101 47009 92800;
0080153000999992000010219004+45630+025580FM-12+053899999V0209999C000010075019N0100001N1-00671+99999999999ADDGF106991061051008001001001REMSYN042AAXX  02191 15300 42560 60000 11067 86500;
0080153000999992000010220004+45630+025580FM-12+053899999V0209999C000010075019N0100001N1-00671+99999999999ADDGF108991081051008001999999REMSYN042AAXX  02201 15300 42560 80000 11067 885//;
0172153000999992000010221004+45630+025580FM-12+053899999V0209999C000010075019N0100001N1-00581-00581999999ADDAA106000091GF108991081051008001999999MA1999999096451MD1210111+9999ME1208619REMSYN066AAXX  02211 15300 32560 80000 11058 21058 39645 42861 52011 885//;EQDQ01  00002PRCP06
0108153000999992000010222004+45630+025580FM-12+053899999V0209999C000010075019N0100001N1-00661+99999999999ADDAY171999AY221999GF108991081051008001999999MW1711REMSYN048AAXX  02221 15300 41560 80000 11066 77172 885//;
0108153000999992000010223004+45630+025580FM-12+053899999V0209999C000010075019N0100001N1-00701+99999999999ADDAY171999AY221999GF108991081051008001999999MW1221REMSYN048AAXX  02231 15300 41560 80000 11070 72272 885//;
0226153000999992000010300004+45630+025580FM-12+053899999V0209999C000010075019N0100001N1-00701-00701999999ADDAA103000191AJ100099199999999AY171061AY221061GF108991081051008001999999IA1239MA1999999096451MD1410001+9999ME1208619MW1021REMSYN094AAXX  03001 15300 /1560 80000 11070 21070 39645 42861 54000 69911 70272 885// 333 47009 69917;
0080153000999992000010301004+45630+025580FM-12+053899999V0202301N005010075019N0120001N1-00721+99999999999ADDGF108991081051008001999999REMSYN042AAXX  03011 15300 42562 82305 11072 885//;
0080153000999992000010302004+45630+025580FM-12+053899999V0203201N004010075019N0100001N1-00751+99999999999ADDGF108991081051008001999999REMSYN042AAXX  03021 15300 42560 83204 11075 885//;
0153153000999992000010303004+45630+025580FM-12+053899999V0203201N004010075019N0100001N1-00771-00771999999ADDAA106000021GF108991081051008001999999MA1999999096501MD1210051+9999ME1208619REMSYN066AAXX  03031 15300 32560 83204 11077 21077 39650 42861 52005 885//;
0080153000999992000010304004+45630+025580FM-12+053899999V0203201N006010075019N0100001N1-00781+99999999999ADDGF108991081051008001999999REMSYN042AAXX  03041 15300 42560 83206 11078 885//;
0110153000999992000010308004+45630+025580FM-12+053899999V0209999C000010075019N9999999N1-00871+99999999999ADDAW1121AZ121999GF108991081051008001999999REMSYN058AAXX  03081 15300 1556/ 80000 11087 7122/ 885// 333 96011;
0108153000999992000010315004+45630+025580FM-12+053899999V0209999C000010075019N0060001N1-00601+99999999999ADDAY171031AY221031GF108991081051008001999999MW1711REMSYN048AAXX  03151 15300 41556 80000 11060 77172 885//;
0080153000999992000010319004+45630+025580FM-12+053899999V0209999C000010075019N0100001N1-00681+99999999999ADDGF108991081051008001999999REMSYN042AAXX  03191 15300 42560 80000 11068 885//;
0080153000999992000010320004+45630+025580FM-12+053899999V0209999C000010075019N0100001N1-00661+99999999999ADDGF108991081051008001999999REMSYN042AAXX  03201 15300 42560 80000 11066 885//;
0153153000999992000010321004+45630+025580FM-12+053899999V0203201N004010075019N0100001N1-00631-00631999999ADDAA106000021GF108991081051008001999999MA1999999096031MD1710041+9999ME1208299REMSYN066AAXX  03211 15300 32560 83204 11063 21063 39603 42829 57004 885//;
0108153000999992000010322004+45630+025580FM-12+053899999V0203201N004010075019N0100001N1-00631+99999999999ADDAY171999AY221999GF108991081051008001999999MW1221REMSYN048AAXX  03221 15300 41560 83204 11063 72272 885//;
0080153000999992000010323004+45630+025580FM-12+053899999V0203201N002010075019N0100001N1-00641+99999999999ADDGF108991081051008001999999REMSYN042AAXX  03231 15300 42560 83202 11064 885//;
0226153000999992000010400004+45630+025580FM-12+053899999V0203201N001010075019N0100001N1-00581-00581999999ADDAA103000191AJ100099199999999AY171061AY221061GF108991081051008001999999IA1239MA1999999095971MD1710061+9999ME1208299MW1021REMSYN094AAXX  04001 15300 /1560 83201 11058 21058 39597 42829 57006 69911 70272 885// 333 47009 69917;
0080153000999992000010401004+45630+025580FM-12+053899999V0203201N001010075019N0100001N1-00581+99999999999ADDGF108991081051008001999999REMSYN042AAXX  04011 15300 42560 83201 11058 885//;
0108153000999992000010402004+45630+025580FM-12+053899999V0209999C000010075019N0100001N1-00581+99999999999ADDAY121999AY221999GF108991081051008001999999MW1711REMSYN048AAXX  04021 15300 41560 80000 11058 77122 885//;
0191153000999992000010403004+45630+025580FM-12+053899999V0209999C000010075019N0100001N1-00581-00581999999ADDAA103000791AY171031AY221031GF108991081051008001999999MA1999999095951MD1710021+9999ME1208299MW1221REMSYN082AAXX  04031 15300 21560 80000 11058 21058 39595 42829 57002 72272 885// 333 69907;
0172153000999992000010421004+45630+025580FM-12+053899999V0209999C000010075019N0100001N1+99999+99999999999ADDAA106000091GF108991081051008001999999MA1999999095911MD1710051+9999ME1208219REMSYN066AAXX  04211 15300 32560 80000 110/8 21048 39591 42821 57005 885//;EQDQ01  00002PRCP06
0179153000999992000010500004+45630+025580FM-12+053899999V0209999C000019999999N0100001N1-00451-00451999999ADDAA106000091AJ100089199999999IA1239MA1999999095851MD1710141+9999ME1208219REMSYN076AAXX  05001 15300 32560 /1000 11045 21045 39585 42821 57014 885// 333 47008;EQDQ01  00002PRCP06
0074153000999992000010501004+45630+025580FM-12+053899999V0209999C000019999999N0100001N1+99999+99999999999ADDGF108991999999008001999999REMSYN036AAXX  05011 15300 42560 80000 19088;
0080153000999992000010502004+45630+025580FM-12+053899999V0209999C000010075019N0100001N1-00431+99999999999ADDGF108991081051008001999999REMSYN042AAXX  05021 15300 42560 80000 11043 885//;
0172153000999992000010503004+45630+025580FM-12+053899999V0209999C000010075019N0100001N1-00421-00421999999ADDAA106000091GF108991081051008001999999MA1999999095651MD1710201+9999ME1210409REMSYN066AAXX  05031 15300 32560 80000 11042 21042 39565 4204/ 57020 885//;EQDQ01  00002PRCP06
0080153000999992000010504004+45630+025580FM-12+053899999V0209999C000010075019N0100001N1+99999+99999999999ADDGF108991081051008001999999REMSYN042AAXX  05041 15300 42560 80000 110/2 885//;
0258153000999992000010506004+45630+025580FM-12+053899999V0209999C000010075019N0100001N1-00511-00511999999ADDAA106000091AJ100089199999999GF108991081051008001999999IA1239IA2120-00709KA1120N-00521MA1999999095721MD1210071+9999ME1208049REMSYN104AAXX  05061 15300 32560 80000 11051 21051 39572 42804 52007 885// 333 21052 3/107 47008 92800 555 10018;EQDQ01  00002PRCP06
0080153000999992000010508004+45630+025580FM-12+053899999V0209999C000019999999N0100001N1-00441+99999999999ADDGF108991081999008001999999REMSYN042AAXX  05081 15300 42560 80000 11044 88///;
0074153000999992000010516004+45630+025580FM-12+053899999V0209999C001010075019N0120001N1+99999+99999999999ADDGF108991081051008001999999REMSYN036AAXX  05161 15300 42562 80001 885//;
0110153000999992000010517004+45630+025580FM-12+053899999V0209999C000010021019N9999999N1-00261+99999999999ADDAW1711AZ171999GF108991081051002501999999REMSYN058AAXX  05171 15300 4532/ 80000 11026 77177 885// 333 96010;
0263153000999992000010518004+45630+025580FM-12+053899999V0209999C000010042019N0032001N1-00321-00321999999ADDAA103000591AJ100089199999999AY171061AY221061GF108991081051004501999999IA1239KA1120M-00201MA1999999095731MD1210051+9999ME1208049MW1711REMSYN118AAXX  05181 15300 /1432 80000 11032 21032 39573 42804 52005 69952 77172 885// 333 11020 3/101 47008 69957 92800 96010;
0118153000999992000010519004+45630+025580FM-12+053899999V0209999C000010042019N0032001N1-00301+99999999999ADDAY171999AY271999GF108991081051004501999999MW1711REMSYN058AAXX  05191 15300 41432 80000 11030 77177 885// 333 96010;
0130153000999992000010520004+45630+025580FM-12+053899999V0209999C000010042019N0032001N1-00301+99999999999ADDGF108991081051004501999999MA1999999071772REMSYN058AAXX  05201 15300 41432 80000 11030 37177 885// 333 96010;EQDQ01+071773APOSP 
0080153000999992000010522004+45630+025580FM-12+053899999V0209999C000010075019N0100001N1-00321+99999999999ADDGF108991081051008001999999REMSYN042AAXX  05221 15300 42560 80000 11032 885//;
0080153000999992000010604004+45630+025580FM-12+053899999V0209999C000010042019N0100001N1-00381+99999999999ADDGF108991081001004501021999REMSYN042AAXX  06041 15300 42460 80000 11038 8802/;
0108153000999992000010608004+45630+025580FM-12+053899999V0203201N004010042019N0032001N1-00291+99999999999ADDAY171999AY221999GF108991081051004501999999MW1711REMSYN048AAXX  06081 15300 41432 83204 11029 77172 885//;
0162153000999992000010612004+45630+025580FM-12+053899999V0209999C000010042019N0032001N1-00221-00221999999ADDAJ100099199999999AY121061AY271061GF108991081051004501999999IA1239ME1208189MW1101REMSYN070AAXX  06121 15300 11432 80000 11022 21022 42818 71027 885// 333 47009;
0191153000999992000010615004+45630+025580FM-12+053899999V0209999C000010042019N0040001N1-00221-00221999999ADDAA103000391AY171031AY271031GF108991051051004501999999MA1999999095901MD1210091+9999ME1208239MW1711REMSYN082AAXX  06151 15300 21440 80000 11022 21022 39590 42823 52009 77177 855// 333 69937;
0108153000999992000010616004+45630+025580FM-12+053899999V0203201N004010042019N0080001N1-00221+99999999999ADDAY171999AY221999GF108991081051004501999999MW1221REMSYN048AAXX  06161 15300 41458 83204 11022 72272 885//;
0080153000999992000010620004+45630+025580FM-12+053899999V0202901N004010075019N0100001N1-00261+99999999999ADDGF108991081051008001999999REMSYN042AAXX  06201 15300 42560 82904 11026 885//;
0153153000999992000010621004+45630+025580FM-12+053899999V0209999C000010075019N0100001N1-00261-00261999999ADDAA106000021GF108991081051008001999999MA1999999096161MD1210161+9999ME1208519REMSYN066AAXX  06211 15300 32560 80000 11026 21026 39616 42851 52016 885//;
0080153000999992000010622004+45630+025580FM-12+053899999V0209999C000010075019N0100001N1-00261+99999999999ADDGF108991081051008001999999REMSYN042AAXX  06221 15300 42560 80000 11026 885//;
0080153000999992000010623004+45630+025580FM-12+053899999V0209999C000010075019N0100001N1-00251+99999999999ADDGF108991081051008001999999REMSYN042AAXX  06231 15300 42560 80000 11025 885//;
0205153000999992000010700004+45630+025580FM-12+053899999V0209999C000010075019N0100001N1-00271-00271999999ADDAA106000091AJ100109199999999GF108991081051008001999999IA1239MA1999999096241MD1210081+9999ME1208519REMSYN076AAXX  07001 15300 32560 80000 11027 21027 39624 42851 52008 885// 333 47010;EQDQ01  00002PRCP06
0080153000999992000010701004+45630+025580FM-12+053899999V0203201N002010075019N0100001N1+00271+99999999999ADDGF108991081051008001999999REMSYN042AAXX  07011 15300 42560 83202 10027 885//;
0080153000999992000010702004+45630+025580FM-12+053899999V0209999C000010075019N9999999N1-00261+99999999999ADDGF108991081051008001999999REMSYN042AAXX  07021 15300 4256/ 80000 11026 885//;
0080153000999992000010703004+45630+025580FM-12+053899999V0209999C000010075019N0100001N1-00291+99999999999ADDGF108991081051008001999999REMSYN042AAXX  07031 15300 42560 80000 11029 885//;
0080153000999992000010705004+45630+025580FM-12+053899999V0209999C000010075019N0100001N1-00351+99999999999ADDGF108991081051008001999999REMSYN042AAXX  07051 15300 42560 80000 11035 885//;
0051153000999992000010714004+45630+025580FM-12+053899999V02099999999999999999N9999999N1-00151+99999999999REMSYN042AAXX  07141 15300 415/2 ///80 11015 885//;
0200153000999992000010715004+45630+025580FM-12+053899999V0209999C000010075019N0032001N1-00261-00261999999ADDAA106000091AY121031AY221031GF108991081051008001999999MA1999999096371MD1410001+9999ME1208599MW1101REMSYN072AAXX  07151 15300 31532 80000 11026 21026 39637 42859 54000 71022 885//;EQDQ01  00002PRCP06
0108153000999992000010716004+45630+025580FM-12+053899999V0209999C000010075019N0032001N1-00301+99999999999ADDAY121999AY221999GF108991081051008001999999MW1101REMSYN048AAXX  07161 15300 41532 80000 11030 71022 885//;
0080153000999992000010717004+45630+025580FM-12+053899999V0209999C000010075019N0100001N1-00301+99999999999ADDGF108991081051008001999999REMSYN042AAXX  07171 15300 42560 80000 11030 885//;
0246153000999992000010718004+45630+025580FM-12+053899999V0209999C000010075019N0100001N1-00381-00381999999ADDAA106000091AJ100109199999999GF108991081051008001999999IA1239KA1120M-00101MA1999999096421MD1210051+9999ME1208619REMSYN104AAXX  07181 15300 32560 80000 11038 21038 39642 42861 52005 885// 333 11010 3/001 47010 92800 555 55000;EQDQ01  00002PRCP06
0080153000999992000010719004+45630+025580FM-12+053899999V0209999C000010075019N0100001N1-00401+99999999999ADDGF108991081051008001999999REMSYN042AAXX  07191 15300 42560 80000 11040 885//;
0182153000999992000010721004+45630+025580FM-12+053899999V0209999C000010075019N0100001N1-00431-00431999999ADDAA106000091GF108991081051008001999999MA1999999096421MD1210051+9999ME1208619REMSYN076AAXX  07211 15300 32560 80000 11043 21043 39642 42861 52005 885// 333 55000;EQDQ01  00002PRCP06
0080153000999992000010722004+45630+025580FM-12+053899999V0209999C000010075019N0100001N1-00451+99999999999ADDGF108991081051008001999999REMSYN042AAXX  07221 15300 42560 80000 11045 885//;
0080153000999992000010723004+45630+025580FM-12+053899999V0209999C000010075019N0100001N1-00441+99999999999ADDGF108991081051008001999999REMSYN042AAXX  07231 15300 42560 80000 11044 885//;
0074153000999992000010801004+45630+025580FM-12+053899999V0209999C000010075019N0100001N1+99999+99999999999ADDGF108991081051008001999999REMSYN036AAXX  08011 15300 42560 80000 885//;
0108153000999992000010817004+45630+025580FM-12+053899999V0209999C000010075019N0032001N1-00621+99999999999ADDAY121999AY221999GF108991081051008001999999MW1101REMSYN048AAXX  08171 15300 41532 80000 11062 71022 885//;
0264153000999992000010818004+45630+025580FM-12+053899999V0209999C000010042019N0032001N1-00641-00641999999ADDAA106000091AJ100099199999999AY121061AY221061GF108991081051004501999999IA1239KA1120M-00301MA1999999096431MD1210031+9999ME1208619MW1101REMSYN100AAXX  08181 15300 31432 80000 11064 21064 39643 42861 52003 71022 885// 333 11030 3/001 47009 92800;EQDQ01  00002PRCP06
0108153000999992000010819004+45630+025580FM-12+053899999V0209999C000010075019N0032001N1-00661+99999999999ADDAY121011AY221011GF108991081051008001999999MW1101REMSYN048AAXX  08191 15300 41532 80000 11066 71022 885//;
0108153000999992000010820004+45630+025580FM-12+053899999V0209999C000010075019N0032001N1-00661+99999999999ADDAY121999AY221999GF108991081051008001999999MW1101REMSYN048AAXX  08201 15300 41532 80000 11066 71022 885//;
0200153000999992000010821004+45630+025580FM-12+053899999V0209999C000010042019N0032001N1-00721-00721999999ADDAA106000091AY121031AY221031GF108991081051004501999999MA1999999096411MD1710021+9999ME1208619MW1101REMSYN072AAXX  08211 15300 31432 80000 11072 21072 39641 42861 57002 71022 885//;EQDQ01  00002PRCP06
0108153000999992000010822004+45630+025580FM-12+053899999V0209999C000010042019N0032001N1-00741+99999999999ADDAY121999AY221999GF108991081051004501999999MW1101REMSYN048AAXX  08221 15300 41432 80000 11074 71022 885//;
0192153000999992000010915004+45630+025580FM-12+053899999V0209999C000010006019N0006001N1-00841-00841999999ADDAA106000091GA1091+999999999GF109991091999999999999999MA1999999096231MD1719999+9999ME1208409REMSYN070AAXX  09151 15300 31/06 90000 11084 21084 39623 4284/ 570/6 333 92717;EQDQ01  00002PRCP06
0128153000999992000010916004+45630+025580FM-12+053899999V0209999C000010003019N0002001N1-00901+99999999999ADDAY141999AY241999GA1091+999999999GF109991091999999999999999MW1471REMSYN052AAXX  09161 15300 41/02 90000 11090 74744 333 92717;
0128153000999992000010917004+45630+025580FM-12+053899999V0209999C000010003019N0002001N1-00951+99999999999ADDAY141999AY241999GA1091+999999999GF109991091999999999999999MW1471REMSYN052AAXX  09171 15300 41/02 90000 11095 74744 333 92717;
0280153000999992000010918004+45630+025580FM-12+053899999V0209999C000010003019N0002001N1-00991-00991999999ADDAA106000091AJ100099199999999AY141061AY241061GA1091+999999999GF109991091999999999999999IA1239KA1120M-00451MA1999999096271MD1210041+9999ME1208479MW1471REMSYN100AAXX  09181 15300 31/02 90000 11099 21099 39627 42847 52004 74744 333 11045 3/001 47009 92717 92840;EQDQ01  00002PRCP06
0128153000999992000010919004+45630+025580FM-12+053899999V0209999C000010001519N0001001N1-01081+99999999999ADDAY141999AY241999GA1091+999999999GF109991091999999999999999MW1491REMSYN052AAXX  09191 15300 41/01 90000 11108 74944 333 9-713;
0128153000999992000010920004+45630+025580FM-12+053899999V0209999C000010001519N0001001N1-01091+99999999999ADDAY141999AY241999GA1091+999999999GF109991091999999999999999MW1491REMSYN052AAXX  09201 15300 41/01 90000 11109 74944 333 92713;
0220153000999992000010921004+45630+025580FM-12+053899999V0209999C000010001519N0001001N1-01121-01121999999ADDAA106000091AY141031AY241031GA1091+999999999GF109991091999999999999999MA1999999096331MD1210061+9999ME1208479MW1491REMSYN076AAXX  09211 15300 31/01 90000 11112 21112 39633 42847 52006 74944 333 92713;EQDQ01  00002PRCP06
0128153000999992000010922004+45630+025580FM-12+053899999V0209999C000010001519N0001001N1-01131+99999999999ADDAY141999AY241999GA1091+999999999GF109991091999999999999999MW1491REMSYN052AAXX  09221 15300 41/01 90000 11113 74944 333 92713;
0128153000999992000010923004+45630+025580FM-12+053899999V0209999C000010001519N0001001N1-01131+99999999999ADDAY141999AY241999GA1091+999999999GF109991091999999999999999MW1491REMSYN052AAXX  09231 15300 41/01 90000 11113 74944 333 92710;
0243153000999992000011000004+45630+025580FM-12+053899999V0209999C000010001519N0001001N1-01181-01181999999ADDAA106000091AJ100099199999999AY141061AY241061GA1091+999999999GF109991091999999999999999IA1239MA1999999096391MD1210061+9999ME1208559MW1491REMSYN076AAXX  10001 15300 31/01 90000 11118 21118 39639 42855 52006 74944 333 47009;EQDQ01  00002PRCP06
0128153000999992000011001004+45630+025580FM-12+053899999V0209999C000010001519N0001001N1-01181+99999999999ADDAY141999AY241999GA1091+999999999GF109991091999999999999999MW1491REMSYN052AAXX  10011 15300 41/01 90000 11118 74944 333 92710;
0220153000999992000011003004+45630+025580FM-12+053899999V0209999C000010001519N0000001N1-01201-01201999999ADDAA106000091AY141031AY241031GA1091+999999999GF109991091999999999999999MA1999999096391MD1410001+9999ME1208559MW1491REMSYN076AAXX  10031 15300 31/00 90000 11120 21120 39639 42855 54000 74944 333 92713;EQDQ01  00002PRCP06
0128153000999992000011005004+45630+025580FM-12+053899999V0209999C000010003019N0004001N1-01401+99999999999ADDAY141999AY241999GA1091+999999999GF109991091999999999999999MW1491REMSYN052AAXX  10051 15300 41/04 90000 11140 74944 333 92713;
0118153000999992000011016004+45630+025580FM-12+053899999V02099999999990021019N0012001N1-01081+99999999999ADDAY121999AY221999GF108991051061002501001071MW1101REMSYN058AAXX  10161 15300 41312 8/0/0 11108 71022 85607 333 92727;
0118153000999992000011017004+45630+025580FM-12+053899999V0209999C000010021019N0017001N1-01021+99999999999ADDAY121999AY221999GF108991081061002501999999MW1101REMSYN058AAXX  10171 15300 41317 80000 11102 71022 886// 333 92727;
0270153000999992000011018004+45630+025580FM-12+053899999V0209999C000010021019N0017001N1-01081+99999999999ADDAA106000091AJ100099199999999AY121061AY221061GF108991081061002501999999IA1239KA1120M-00701MA1999999096711MD1210091+9999ME1208799MW1101REMSYN106AAXX  10181 15300 31317 80000 11108 21//8 39671 42879 52009 71022 886// 333 11070 3/103 47009 92727 92800;EQDQ01  00002PRCP06
0118153000999992000011019004+45630+025580FM-12+053899999V0209999C000019999999N0017001N1-01081+99999999999ADDAY121999AY221999GF108991061999002501999999MW1101REMSYN058AAXX  10191 15300 41317 80000 11108 71022 86/// 333 92727;
0118153000999992000011020004+45630+025580FM-12+053899999V0209999C000010042019N0060001N1-01091+99999999999ADDAY121999AY221999GF108991081051004501999999MW1101REMSYN058AAXX  10201 15300 41456 80000 11109 71022 885// 333 92727;
0201153000999992000011021004+45630+025580FM-12+053899999V0209999C000010042019N0060001N1-01021-01021999999ADDAA106000091AY121031AY221031GF108991081051004501999999MA1999999096851MD1210131+9999MW1101REMSYN082AAXX  10211 15300 31456 80000 11102 21102 39685 52013 71022 885// 333 55002 92727;EQDQ01  00002PRCP06
0118153000999992000011022004+45630+025580FM-12+053899999V0209999C000010042019N0060001N1-01021+99999999999ADDAY121999AY221999GF108991081051004501999999MW1101REMSYN058AAXX  10221 15300 41456 80000 11102 71022 885// 333 92727;
0118153000999992000011023004+45630+025580FM-12+053899999V0209999C000010042019N0060001N1-01021+99999999999ADDAY121999AY221999GF108991081051004501999999MW1101REMSYN058AAXX  10231 15300 41456 80000 11102 71022 885// 333 92727;
0239153000999992000011100004+45630+025580FM-12+053899999V0209999C000010042019N0060001N1-00561-00961999999ADDAA106000091AJ100099199999999AY121061AY221061GF108991081051004501999999IA1239MA1999999096981MD1210051+9999ME1208959MW1101REMSYN088AAXX  11001 15300 31456 80000 11056 21096 39698 42895 52005 71022 885// 333 47009 92727;EQDQ01  00002PRCP06
0118153000999992000011101004+45630+025580FM-12+053899999V0209999C000010042019N0060001N1-00981+99999999999ADDAY121011AY221011GF108991081051004501999999MW1101REMSYN058AAXX  11011 15300 41456 80000 11098 71022 885// 333 92727;
0118153000999992000011102004+45630+025580FM-12+053899999V0209999C000010042019N0060001N1-00981+99999999999ADDAY121999AY221999GF108991081051004501999999MW1101REMSYN058AAXX  11021 15300 41456 80000 11098 71022 885// 333 92727;
0210153000999992000011103004+45630+025580FM-12+053899999V0209999C000010042019N0060001N1-00901-00901999999ADDAA106000091AY121031AY221031GF108991081051004501999999MA1999999096961MD1210061+9999ME1209039MW1101REMSYN082AAXX  11031 15300 31456 80000 11090 21090 39696 42903 52006 71022 885// 333 92727;EQDQ01  00002PRCP06
0112153000999992000011104004+45630+025580FM-12+053899999V0209999C000019999999N0060001N1-00901+99999999999ADDAY121999AY221999GF108991081051999999999999MW1101REMSYN052AAXX  11041 15300 41/56 80000 11090 71022 885// 333;
0118153000999992000011105004+45630+025580FM-12+053899999V0209999C000010042019N0060001N1-00861+99999999999ADDAY121999AY221999GF108991081051004501999999MW1101REMSYN058AAXX  11051 15300 41456 80000 11086 71022 885// 333 92727;
0118153000999992000011116004+45630+025580FM-12+053899999V0209999C000010042019N0060001N1-00601+99999999999ADDAY171999AY221999GF108991081051004501999999MW1221REMSYN058AAXX  11161 15300 41456 80000 11060 72272 885// 333 96010;
0228153000999992000011118004+45630+025580FM-12+053899999V0209999C000010042019N0100001N1-00621-00621999999ADDAA103000191AY171061AY221061GF108991081051004501999999KA1120M-00541MA1999999097151MD1210081+9999ME1209189MW1021REMSYN106AAXX  11181 15300 /1460 80000 11062 21062 39715 42918 52008 69912 70272 885// 333 11054 3/102 69917 92800;
0051153000999992000011119004+45630+025580FM-12+053899999V0209999C000019999999N0080001N1-00621+99999999999REMSYN042AAXX  11191 15300 42458 /0000 11062 885//;
0080153000999992000011120004+45630+025580FM-12+053899999V0209999C000010075019N0100001N1-00641+99999999999ADDGF108991081051008001999999REMSYN042AAXX  11201 15300 42560 80000 11064 885//;
0118153000999992000011122004+45630+025580FM-12+053899999V0209999C000010042019N0100001N1-00641+99999999999ADDAY171999AY271999GF108991081051004501999999MW1711REMSYN058AAXX  11221 15300 41460 80000 11064 77177 885// 333 96010;
0100153000999992000011123004+45630+025580FM-12+053899999V0209999C008010042019N0060001N1-00661+99999999999ADDAY171999GF108991081051004501999999MW1771REMSYN048AAXX  11231 15300 41456 80008 11066 7777/ 885//;
0118153000999992000011201004+45630+025580FM-12+053899999V0209999C000010042019N0060001N1-00741+99999999999ADDAY171999AY271999GF108991081001004501021999MW1711REMSYN058AAXX  12011 15300 41456 80000 11074 77177 8802/ 333 96010;
0118153000999992000011202004+45630+025580FM-12+053899999V0209999C000010042019N0060001N1-00781+99999999999ADDAY171999AY221999GF108991081001004501021999MW1221REMSYN058AAXX  12021 15300 41456 80000 11078 72272 8802/ 333 96010;
0251153000999992000011218004+45630+025580FM-12+053899999V0209999C000012200019N0012001N1-01121-01121999999ADDAA112000191AJ100109199999999AY111061AY211061GF104991031001999999071021IA1239KA1120M-00381MA1999999097091MD1210011+9999ME1209109MW1101REMSYN106AAXX  12181 15300 11912 40000 11112 21112 39709 42910 52001 69912 71011 83072 333 11038 3/000 47010 92800;
0128153000999992000011219004+45630+025580FM-12+053899999V0209999C000012200019N0012001N1-01241+99999999999ADDAY101999AY201999GA1001+999999999GF100991001001999999001001MW1101REMSYN052AAXX  12191 15300 41912 00000 11124 71000 333 92600;
0128153000999992000011220004+45630+025580FM-12+053899999V0209999C000012200019N0012001N1-01121+99999999999ADDAY101021AY201021GA1001+999999999GF100991001001999999001001MW1101REMSYN052AAXX  12201 15300 41912 00000 11112 71000 333 92600;
0090153000999992000011223004+45630+025580FM-12+053899999V0209999C000012200019N0100001N1-01241+99999999999ADDGF102991001001999999001021REMSYN052AAXX  12231 15300 42960 20000 11124 80002 333 92610;
0128153000999992000011302004+45630+025580FM-12+053899999V0209999C000010001519N0000001N1-01201+99999999999ADDAY141999AY221999GA1091+999999999GF109991091999999999999999MW1471REMSYN052AAXX  13021 15300 41/00 90000 11120 74742 333 92610;
0302153000999992000011306004+45630+025580FM-12+053899999V0209999C000010001519N0000001N1-01451-01451999999ADDAA106000091AJ100109199999999AY141061AY211061GA1091+999999999GF109991091999999999999999IA1239IA2120-01509KA1120N-01601MA1999999096931MD1710051+9999ME1208889MW1491REMSYN110AAXX  13061 15300 31/00 90000 11145 21145 39693 42888 57005 74941 333 21160 3/115 47010 92712 92800 555 60001;EQDQ01  00002PRCP06
0128153000999992000011307004+45630+025580FM-12+053899999V0209999C000010001519N0000001N1-01471+99999999999ADDAY141999AY241999GA1091+999999999GF109991091999999999999999MW1491REMSYN052AAXX  13071 15300 41/00 90000 11147 74944 333 92713;
0252153000999992000011318004+45630+025580FM-12+053899999V0209999C000012200019N0120001N1-01301-01301999999ADDAA106000091AJ100109199999999GA1001+999999999GF100991001001999999001001IA1239KA1120M-00741MA1999999096651MD1710011+9999ME1208729REMSYN094AAXX  13181 15300 32962 00000 11130 21130 39665 42872 57001 333 11074 3/105 47010 92600 92805;EQDQ01  00002PRCP06
0100153000999992000011319004+45630+025580FM-12+053899999V02099999999992200019N0120001N1-01161+99999999999ADDGA1001+999999999GF100991001001999999001001REMSYN046AAXX  13191 15300 42962 0/000 11116 333 92610;
0104153000999992000011320004+45630+025580FM-12+053899999V0209999C000012200019N9999999N1-01071+99999999999ADDGA1001+999999999GF100991001001999999001001REMSYN050    AAXX  13201 15300 4296/ 00000 11107 333 92610;
0104153000999992000011401004+45630+025580FM-12+053899999V0209999C000012200019N0120001N1-01421+99999999999ADDGA1001+999999999GF100991001001999999001001REMSYN050    AAXX  14011 15300 42962 00000 11142 333 92610;
0126153000999992000011402004+45630+025580FM-12+053899999V0209999C000012200019N9999999N1-01501+99999999999ADDAY101999AY201999GA1001+999999999GF100991001001999999001001MW1101REMSYN050    AAXX  14021 15300 4195/ 00000 11150 71000 333;
0084153000999992000011416004+45630+025580FM-12+053899999V0209999C000019999999N0120001N1-00941+99999999999ADDGF108991001001999999001071REMSYN046    AAXX  14161 15300 42962 80000 11094 80007;
0084153000999992000011417004+45630+025580FM-12+053899999V0209999C000019999999N0120001N1-01261+99999999999ADDGF105991001001999999001081REMSYN046    AAXX  14171 15300 42962 50000 11126 80008;
0104153000999992000011419004+45630+025580FM-12+053899999V0209999C000012200019N0120001N1-01731+99999999999ADDGA1001+999999999GF100991001001999999001001REMSYN050    AAXX  14191 15300 42962 00000 11173 333 92610;
0104153000999992000011423004+45630+025580FM-12+053899999V0209999C000012200019N0120001N1-01521+99999999999ADDGA1001+999999999GF100991001001999999001001REMSYN050    AAXX  14231 15300 42962 00000 11152 333 92611;
0175153000999992000011500004+45630+025580FM-12+053899999V0209999C000012200019N0120001N1-01661-01661999999ADDAA199000091AJ100109199999999GA1001+999999999GF100991001001999999001001IA1239REMSYN068    AAXX  15001 15300 32962 00000 11166 21166 7/68/ 333 47010 92611;EQDQ01  00002PRCP99
0104153000999992000011501004+45630+025580FM-12+053899999V0209999C000012200019N0120001N1-01621+99999999999ADDGA1001+999999999GF100991001001999999001001REMSYN050    AAXX  15011 15300 42962 00000 11162 333 92611;
0104153000999992000011502004+45630+025580FM-12+053899999V0209999C000012200019N0120001N1-01661+99999999999ADDGA1001+999999999GF100991001001999999001001REMSYN050    AAXX  15021 15300 42962 00000 11166 333 92611;
0104153000999992000011504004+45630+025580FM-12+053899999V0209999C000012200019N0120001N1-01471+99999999999ADDGA1001+999999999GF100991001001999999001001REMSYN050    AAXX  15041 15300 42962 00000 11147 333 92611;
0132153000999992000011505004+45630+025580FM-12+053899999V0209999C000012200019N0032001N1-01841+99999999999ADDAY101999AY201999GA1001+999999999GF100991001001999999001001MW1101REMSYN056    AAXX  15051 15300 41932 00000 11184 71000 333 92611;
0132153000999992000011517004+45630+025580FM-12+053899999V0209999C000012200019N0040001N1-01161+99999999999ADDAY101999AY201999GA1001+999999999GF100991001001999999001001MW1101REMSYN056    AAXX  15171 15300 41940 00000 11116 71000 333 92610;
0278153000999992000011518004+45630+025580FM-12+053899999V0209999C000012200019N0040001N1-01441-01441999999ADDAA199000091AJ100109199999999AY111061AY211061GA1001+999999999GF100991001001999999001001IA1239KA1120M-00501MA1999999096201MD1210061+9999ME1208349MW1101REMSYN098    AAXX  15181 15300 31940 00000 11144 21144 39620 42834 52006 71011 333 11050 3/103 47010 92000;EQDQ01  00002PRCP99
0132153000999992000011519004+45630+025580FM-12+053899999V0209999C000012200019N0040001N1-01381+99999999999ADDAY101011AY201011GA1001+999999999GF100991001001999999001001MW1101REMSYN056    AAXX  15191 15300 41940 00000 11138 71000 333 92610;
0132153000999992000011522004+45630+025580FM-12+053899999V0209999C000012200019N0000001N1-01701+99999999999ADDAY141999AY241999GA1001+999999999GF100991001001999999001001MW1481REMSYN056    AAXX  15221 15300 41900 00000 11170 74844 333 92713;
0132153000999992000011523004+45630+025580FM-12+053899999V0209999C000012200019N0000001N1-01771+99999999999ADDAY141999AY241999GA1001+999999999GF100991001001999999001001MW1481REMSYN056    AAXX  15231 15300 41900 00000 11177 74844 333 92713;
0132153000999992000011601004+45630+025580FM-12+053899999V0209999C000012200019N0000001N1-01811+99999999999ADDAY141999AY241999GA1001+999999999GF100991001001999999001001MW1481REMSYN056    AAXX  16011 15300 41900 00000 11181 74844 333 92713;
0132153000999992000011602004+45630+025580FM-12+053899999V0209999C000012200019N0000001N1-01821+99999999999ADDAY141999AY241999GA1001+999999999GF100991001001999999001001MW1481REMSYN056    AAXX  16021 15300 41900 00000 11182 74844 333 92713;
0126153000999992000011604004+45630+025580FM-12+053899999V0209999C000010001519N0000001N1-01871+99999999999ADDAY141999AY241999GA1091+999999999GF109991091999999999999999MW1491REMSYN050    AAXX  16041 15300 41/00 90000 11187 74944 333;
0122153000999992000011620004+45630+025580FM-12+053899999V0209999C000010042019N0032001N1-00701+99999999999ADDAY171999AY241999GF108991081001004501021999MW1711REMSYN062    AAXX  16201 15300 41432 80000 11070 77174 8802/ 333 92717;
0128153000999992000011622004+45630+025580FM-12+053899999V0209999C000010042019N0040001N1-00641+99999999999ADDAY171999AY271999GF108991081001004501021999MW1711REMSYN068    AAXX  16221 15300 41440 80000 11064 77177 8802/ 333 92717 96010;
0128153000999992000011623004+45630+025580FM-12+053899999V0209999C000010042019N0040001N1-00641+99999999999ADDAY171999AY271999GF108991081001004501021999MW1711REMSYN068    AAXX  16231 15300 41440 80000 11064 77177 8802/ 333 92717 96010;
0242153000999992000011700004+45630+025580FM-12+053899999V0209999C000010042019N0040001N1-00641-00641999999ADDAA103000391AJ100119199999999AY171061AY241061GF108991081001004501021999IA1239MA1999999095861MD1710131+9999ME1208219MW1711REMSYN110    AAXX  17001 15300 /1440 80000 11064 21064 39586 42821 57013 69961 77174 8802/ 333 47011 69937 92717 96010;
0128153000999992000011701004+45630+025580FM-12+053899999V0209999C000010042019N0040001N1-00661+99999999999ADDAY171999AY271999GF108991081001004501021999MW1711REMSYN068    AAXX  17011 15300 41440 80000 11066 77177 8802/ 333 92717 96010;
0128153000999992000011702004+45630+025580FM-12+053899999V0209999C000010042019N0040001N1-00671+99999999999ADDAY171999AY271999GF108991081001004501021999MW1711REMSYN068    AAXX  17021 15300 41440 80000 11067 77177 8802/ 333 92717 96010;
0128153000999992000011704004+45630+025580FM-12+053899999V0209999C000010042019N0040001N1-00681+99999999999ADDAY171999AY271999GF108991081001004501021999MW1711REMSYN068    AAXX  17041 15300 41440 80000 11068 77177 8802/ 333 92717 96010;
0267153000999992000011718004+45630+025580FM-12+053899999V0202901N004010042019N0060001N1-00481-00481999999ADDAA103001091AJ100159199999999AY171061AY221061GF108991081001004501021999IA1239KA1120M-00401MA1999999093671MD1710351+9999ME1206399MW1711REMSYN122    AAXX  17181 15300 /1456 82904 11048 21048 39367 42639 57035 60012 77172 8802/ 333 11040 3/101 47015 60017 92800 96010;
0122153000999992000011719004+45630+025580FM-12+053899999V0202901N002010042019N0032001N1-00481+99999999999ADDAY171011AY271011GF108991081001004501021999MW1711REMSYN062    AAXX  17191 15300 41432 82902 11048 77177 8802/ 333 96010;
0120153000999992000011720004+45630+025580FM-12+053899999V0209999C000010042019N0032001N1-00481+99999999999ADDAY171999AY271999GF108991081001004501021999MW1711REMSYN060    AAXX  17201 15300 41432 80000 11048 77177 8802/ 333 922;
0084153000999992000011722004+45630+025580FM-12+053899999V0203201N005010042019N0100001N1-00381+99999999999ADDGF108991081001004501021999REMSYN046    AAXX  17221 15300 42460 83205 11038 8802/;
0084153000999992000011723004+45630+025580FM-12+053899999V0203201N002010042019N0100001N1-00361+99999999999ADDGF108991081001004501021999REMSYN046    AAXX  17231 15300 42460 83202 11036 8802/;
0190153000999992000011800004+45630+025580FM-12+053899999V0203201N002010042019N0100001N1-00381-00381999999ADDAA106000891AJ100179199999999GF108991081001004501021999MA1999999093081MD1710261+9999ME1205899REMSYN086    AAXX  18001 15300 12460 83202 11038 21038 39308 42589 57026 69971 8802/ 333 4/017;
0084153000999992000011801004+45630+025580FM-12+053899999V0203201N002010042019N0100001N1-00381+99999999999ADDGF108991081001004501021999REMSYN046    AAXX  18011 15300 42460 83202 11038 8802/;
0084153000999992000011802004+45630+025580FM-12+053899999V0203201N002010042019N0100001N1-00381+99999999999ADDGF108991081001004501021999REMSYN046    AAXX  18021 15300 42460 83202 11038 8802/;
0112153000999992000011804004+45630+025580FM-12+053899999V0203201N004010042019N9999999N1-00221+99999999999ADDAY171999AY221999GF108991081001004501021999MW1711REMSYN052    AAXX  18041 15300 4146/ 83204 11022 77172 8802/;
0043153000999992000011805004+45630+025580FM-12+053899999V02099999999999999999N9999999N1+99999+99999999999REMSYN034    AAXX  18051 15300 21/// /102/;
0231153000999992000011818004+45630+025580FM-12+053899999V0203201N002010075019N0100001N1+99999+99999999999ADDAJ100179199999999GF108991081031008001999999IA1239KA1120M-00201MA1999999093151ME1205899REMSYN098    AAXX  18181 15300 12560 83202 1/030 21030 39315 42589 58849 883// 333 11020 3/101 47017 92800;EQDQ01+000087APCTENQ02+008497APC3  
0084153000999992000011819004+45630+025580FM-12+053899999V0203201N003010075019N0100001N1-00301+99999999999ADDGF108991081031008001999999REMSYN046    AAXX  18191 15300 42560 83203 11030 883//;
0112153000999992000011820004+45630+025580FM-12+053899999V0209999C000010075019N0100001N1-00311+99999999999ADDAY121999AY221999GF108991081031008001999999MW1851REMSYN052    AAXX  18201 15300 41560 80000 11031 78522 883//;
0126153000999992000011821004+45630+025580FM-12+053899999V0203201N004019999999N0100001N1-00321-00321999999ADDAA103000391GF108991999999008001999999REMSYN058    AAXX  18211 15300 21560 83204 11032 21032 33903 69937;EQDQ01+039031APOSP 
0131153000999992000011822004+45630+025580FM-12+053899999V0203201N006012200019N0100001N1-00211+99999999999ADDAY181999AY221999GF101991999031008001999999MW1221REMSYN052    AAXX  18221 15300 41560 13206 11021 72282 883//;EQDQ01+000082SCOTLC
0084153000999992000011823004+45630+025580FM-12+053899999V0203201N006010075019N0100001N1-00321+99999999999ADDGF108991081031008001999999REMSYN046    AAXX  18231 15300 42560 83206 11032 883//;
0207153000999992000011900004+45630+025580FM-12+053899999V0203201N004010075019N0100001N1-00341-00341999999ADDAA106000391AY181061AY221061GF108991081031008001999999IA1239MA1999999093571MD1210271+9999ME1207729MW1021REMSYN092    AAXX  19001 15300 /1560 83204 11034 21034 39357 42772 52027 69931 70282 883// 333 4702/;
0090153000999992000011902004+45630+025580FM-12+053899999V0203201N008010075019N0100001N1-00341+99999999999ADDGF108991081031008001999999REMSYN052    AAXX  19021 15300 1/560 83208 11034 73622 883//;
0195153000999992000011903004+45630+025580FM-12+053899999V0203201N008010075019N0060001N1-00351-00351999999ADDAA103000591AY181031AY221031GF108991081031008001999999MA1999999093651MD1210081+9999ME1206319MW1851REMSYN086    AAXX  19031 15300 21556 83208 11035 21035 39365 42631 52008 78582 883// 333 69947;
0112153000999992000011904004+45630+025580FM-12+053899999V0203201N008010042019N0060001N1-00251+99999999999ADDAY181999AY221999GF108991081031004501999999MW1261REMSYN052    AAXX  19041 15300 41456 83208 11025 72682 883//;
0201153000999992000011915004+45630+025580FM-12+053899999V0203201N009010042019N0060001N1-00401-00521999999ADDAA103999929AY181031AY221031GF108991081031004501999999MA1999999094211MD1210181+9999ME1206819MW1851REMSYN092    AAXX  19151 15300 21456 83209 11040 21052 39421 42681 52018 78582 883// 333 69907 96010;
0203153000999992000012015004+45630+025580FM-12+053899999V0203201N007010075019N0100001N1-00561-00561999999ADDAA103000291AY181031AY221031GF108991081031008001999999MA1999999095351MD1210031+9999ME1207809MW1851REMSYN094AAXX  20151 15300 21560 83207 11056 21056 39535 42780 52003 78582 883// 333 69927 92912 96036;
0118153000999992000012016004+45630+025580FM-12+053899999V0203201N007010075019N0100001N1-00561+99999999999ADDAY181999AY221999GF108991081031008001999999MW1361REMSYN058AAXX  20161 15300 41560 83207 11056 73682 883// 333 92912;
0080153000999992000012017004+45630+025580FM-12+053899999V0203201N003010075019N0120001N1-00581+99999999999ADDGF105991051031008001001001REMSYN042AAXX  20171 15300 42562 53203 11058 85300;
0096153000999992000012019004+45630+025580FM-12+053899999V0202901N004019999999N0120001N1-00581+99999999999ADDGA1091+999999999GF109991091999999999999999REMSYN042AAXX  20191 15300 42562 92904 11058 85300;
0200153000999992000012115004+45630+025580FM-12+053899999V0202901N018010042019N0100001N1-00121-00121999999ADDAA199000091AY131031AY231031GF107991071031004501001001MA1999999093321MD1710171+9999ME1206079MW1381REMSYN072AAXX  21151 15300 31460 72918 11012 21012 39332 42607 57017 73833 87300;EQDQ01  00002PRCP99
0141153000999992000012116004+45630+025580FM-12+053899999V0202901N018010042019N0100001N1-00121+99999999999ADDAY181999AY231999GF108991081031004501999999MW1851OA149902401REMSYN070AAXX  21161 15300 41460 82918 11012 78583 883// 333 91124 92911 96036;
0118153000999992000012204004+45630+025580FM-12+053899999V0202901N008010075019N0120001N1-00751+99999999999ADDAY121999AY221999GF106991061031008001001001MW1361REMSYN058AAXX  22041 15300 41562 62908 11075 73622 86300 333 92912;
0108153000999992000012205004+45630+025580FM-12+053899999V0203201N004010075019N0120001N1-00781+99999999999ADDAY181999AY221999GF108991081031008001999999MW1851REMSYN048AAXX  22051 15300 41562 83204 11078 78582 883//;
0153153000999992000012215004+45630+025580FM-12+053899999V0202701N004010075019N0120001N1-00841-00841999999ADDAA199000021GF106991061031008001001001MA1999999095221MD1210081+9999ME1207599REMSYN066AAXX  22151 15300 32562 62704 11084 21084 39522 42759 52008 86300;
0080153000999992000012216004+45630+025580FM-12+053899999V0202701N002010360019N0120001N1-00881+99999999999ADDGF106991021031008001071001REMSYN042AAXX  22161 15300 42562 62702 11088 82370;
0080153000999992000012217004+45630+025580FM-12+053899999V0209999C000019999999N0120001N1-00961+99999999999ADDGF105991051001999999071001REMSYN042AAXX  22171 15300 42962 50000 11096 85070;
0206153000999992000012218004+45630+025580FM-12+053899999V0209999C000012200019N0120001N1-01181-01381999999ADDAJ100129199999999GF104991041001999999071001IA1249KA1120M-00621MA1999999095301MD1210081+9999ME1207679REMSYN094AAXX  22181 15300 12962 40000 11118 21138 39530 42767 52008 84070 333 11062 3/104 48012 92813;
0090153000999992000012219004+45630+025580FM-12+053899999V0209999C000012200019N0120001N1-01261+99999999999ADDGA1001+999999999GF100991001001999999001001REMSYN036AAXX  22191 15300 42962 00000 11126;
0090153000999992000012220004+45630+025580FM-12+053899999V0203201N003012200019N0120001N1-01451+99999999999ADDGA1001+999999999GF100991001001999999001001REMSYN036AAXX  22201 15300 42962 03203 11145;
0171153000999992000012221004+45630+025580FM-12+053899999V0203201N005012200019N9999999N1-01451-01451999999ADDAA199000091GA1001+999999999GF100991001001999999001001MD1710081+9999ME1207559REMSYN064AAXX  22211 15300 3292/ 03205 11145 21145 42755 57008 333 55018;EQDQ01  00002PRCP99
0215153000999992000012300004+45630+025580FM-12+053899999V0209999C000012200019N0120001N1-01661-01661999999ADDAA199000091AJ100129199999999GA1001+999999999GF100991001001999999001001IA1249MA1999999095221MD1410001+9999ME1207559REMSYN070AAXX  23001 15300 32962 00000 11166 21166 39522 42755 54/00 333 48012;EQDQ01  00002PRCP99
0090153000999992000012301004+45630+025580FM-12+053899999V0209999C000012200019N9999999N1-01721+99999999999ADDGA1001+999999999GF100991001001999999001001REMSYN036AAXX  23011 15300 429/2 00000 11172;
0090153000999992000012302004+45630+025580FM-12+053899999V0209999C000012200019N0120001N1-01761+99999999999ADDGA1001+999999999GF100991001001999999001001REMSYN036AAXX  23021 15300 42962 00000 11176;
0182153000999992000012303004+45630+025580FM-12+053899999V0209999C000012200019N0120001N1-01801-01801999999ADDAA199000091GA1001+999999999GF100991001001999999001001MA1999999095061MD1710161+9999ME1207359REMSYN060AAXX  23031 15300 32962 00000 11180 21180 39506 42735 57016;EQDQ01  00002PRCP99
0150153000999992000012315004+45630+025580FM-12+053899999V0209999C000019999999N0012001N1-01121-01121999999ADDAY171031AY241031MA1999999094461MD1710091+9999ME1207039MW1711REMSYN078AAXX  23151 15300 21512 /0000 11112 21112 39446 42703 57009 77174 885// 96010;
0108153000999992000012317004+45630+025580FM-12+053899999V0209999C000010075019N0080001N1-01161+99999999999ADDAY121999AY221999GF108991081051008001999999MW1101REMSYN048AAXX  23171 15300 41558 80000 11116 71022 885//;
0257153000999992000012318004+45630+025580FM-12+053899999V0209999C000010075019N0100001N1-01041-01041999999ADDAA103999929AJ100129199999999AY171061AY241061GF108991081051008001999999IA1249KA1120M-01041MA1999999094271MD1710191+9999ME1206869MW1021REMSYN112AAXX  23181 15300 /1560 80000 11104 21104 39427 42686 57019 69922 70274 885// 333 11104 3/111 48012 69907 92823;
0080153000999992000012319004+45630+025580FM-12+053899999V0209999C000010075019N0100001N1-01021+99999999999ADDGF108991081051008001999999REMSYN042AAXX  23191 15300 42560 80000 11102 885//;
0080153000999992000012320004+45630+025580FM-12+053899999V0209999C000010075019N0100001N1-00951+99999999999ADDGF108991081051008001999999REMSYN042AAXX  23201 15300 42560 80000 11095 885//;
0163153000999992000012321004+45630+025580FM-12+053899999V0209999C000019999999N0120001N1-00841-00841999999ADDAA199000021GF106991041001999999071021MA1999999094151MD1710121+9999ME1206789REMSYN076AAXX  23211 15300 32962 60000 11084 21084 39415 42678 57012 84072 333 55003;
0080153000999992000012322004+45630+025580FM-12+053899999V0209999C000019999999N0120001N1-00841+99999999999ADDGF106991041001999999071021REMSYN042AAXX  23221 15300 42962 60000 11084 84072;
0080153000999992000012323004+45630+025580FM-12+053899999V0209999C000019999999N0120001N1-00861+99999999999ADDGF107991051001999999071021REMSYN042AAXX  23231 15300 42962 70000 11086 85072;
0186153000999992000012400004+45630+025580FM-12+053899999V0209999C000019999999N0120001N1-00881-00881999999ADDAA199000021AJ100129199999999GF108991051001999999071071IA1249MA1999999094081MD1710071+9999ME1206709REMSYN076AAXX  24001 15300 32962 80000 11088 21088 39408 42670 57007 85077 333 48012;
0080153000999992000012401004+45630+025580FM-12+053899999V0209999C000019999999N0120001N1-00861+99999999999ADDGF108991051001999999071071REMSYN042AAXX  24011 15300 42962 80000 11086 85077;
0108153000999992000012402004+45630+025580FM-12+053899999V0209999C000010075019N0100001N1-00821+99999999999ADDAY171999AY221999GF108991081001008001021999MW1711REMSYN048AAXX  24021 15300 41560 80000 11082 77172 8802/;
0191153000999992000012403004+45630+025580FM-12+053899999V0209999C000010075019N0100001N1-00841-00841999999ADDAA103000191AY171031AY221031GF108991081001008001021999MA1999999094021MD1710061+9999ME1206629MW1711REMSYN082AAXX  24031 15300 21560 80000 11084 21084 39402 42662 57006 77172 8802/ 333 69927;
0118153000999992000012408004+45630+025580FM-12+053899999V0209999C000010075019N0032001N1-00801+99999999999ADDAY171999AY271999GF108991081001008001021999MW1711REMSYN058AAXX  24081 15300 41532 80000 11080 77177 8802/ 333 96010;
0197153000999992000012415004+45630+025580FM-12+053899999V02099999999990075019N0032001N1-00801-00801999999ADDAA103001091AY171031AY271031GF108991081001008001021999MA1999999094411MD1210181+9999ME1206959MW1711REMSYN088AAXX  24151 15300 21532 8//04 11080 21080 39441 42695 52018 77177 8802/ 333 60017 96010;
0118153000999992000012416004+45630+025580FM-12+053899999V0203201N002010075019N0032001N1-00841+99999999999ADDAY171999AY271999GF108991081001008001021999MW1711REMSYN058AAXX  24161 15300 41532 83202 11084 77177 8802/ 333 96010;
0118153000999992000012417004+45630+025580FM-12+053899999V0203201N002010075019N0032001N1-00881+99999999999ADDAY171999AY271999GF108991081001008001021999MW1711REMSYN058AAXX  24171 15300 41532 83202 11088 77177 8802/ 333 96010;
0263153000999992000012418004+45630+025580FM-12+053899999V0209999C000010075019N0060001N1-00841-00841999999ADDAA103002091AJ100179199999999AY171061AY271061GF108991081001008001021999IA1249KA1120M-00551MA1999999094691MD1210281+9999ME1207199MW1711REMSYN118AAXX  24181 15300 /1556 80000 11084 21084 39469 42719 52028 60062 77177 8802/ 333 11055 3/104 48017 60027 92800 96010;
0118153000999992000012419004+45630+025580FM-12+053899999V0209999C000010075019N0060001N1-00841+99999999999ADDAY171999AY271999GF108991081001008001021999MW1711REMSYN058AAXX  24191 15300 41556 80000 11084 77177 8802/ 333 96010;
0118153000999992000012420004+45630+025580FM-12+053899999V0209999C000010075019N0060001N1-00851+99999999999ADDAY171999AY271999GF108991081001008001021999MW1711REMSYN058AAXX  24201 15300 41556 80000 11085 77177 8802/ 333 96010;
0080153000999992000012422004+45630+025580FM-12+053899999V0209999C000010075019N0100001N1-00951+99999999999ADDGF108991081001008001021999REMSYN042AAXX  24221 15300 42560 80000 11095 8802/;
0080153000999992000012423004+45630+025580FM-12+053899999V0209999C000010075019N0100001N1-00961+99999999999ADDGF108991081001008001021999REMSYN042AAXX  24231 15300 42560 80000 11096 8802/;
0220153000999992000012500004+45630+025580FM-12+053899999V0209999C000010075019N0100001N1-00981-00981999999ADDAA106000591AJ100179199999999AY171061AY221061GF108991081001008001021999IA1249MA1999999095021MD1210201+9999ME1207439MW1021REMSYN088AAXX  25001 15300 11560 80000 11098 21098 39502 42743 52020 69951 70272 8802/ 333 48017;
0080153000999992000012501004+45630+025580FM-12+053899999V0209999C000010075019N0100001N1-00981+99999999999ADDGF108991081001008001021999REMSYN042AAXX  25011 15300 42560 80000 11098 8802/;
0080153000999992000012502004+45630+025580FM-12+053899999V0209999C000010075019N0100001N1-01001+99999999999ADDGF108991081001008001021999REMSYN042AAXX  25021 15300 42560 80000 11100 8802/;
0153153000999992000012503004+45630+025580FM-12+053899999V0209999C000010075019N0100001N1-01031-01031999999ADDAA199000021GF108991081001008001021999MA1999999095191MD1210171+9999ME1207599REMSYN066AAXX  25031 15300 32560 80000 11103 21103 39519 42759 52017 8802/;
0080153000999992000012504004+45630+025580FM-12+053899999V0209999C000010075019N0100001N1-01041+99999999999ADDGF108991081001008001021999REMSYN042AAXX  25041 15300 42560 80000 11104 8802/;
0080153000999992000012505004+45630+025580FM-12+053899999V0209999C000010075019N0100001N1-01051+99999999999ADDGF108991081001008001021999REMSYN042AAXX  25051 15300 42560 80000 11105 8802/;
0251153000999992000012506004+45630+025580FM-12+053899999V0209999C000010075019N0100001N1-01181-01181999999ADDAA112000591AJ100179199999999GF108991081001008001021999IA1249IA2120-01309KA1120N-01201MA1999999095381MD1210191+9999ME1207759REMSYN116AAXX  25061 15300 12560 80000 11118 21118 39538 42775 52019 69952 8802/ 333 21120 3/113 48017 92800 555 10024 60068;
0080153000999992000012507004+45630+025580FM-12+053899999V0209999C000010075019N0100001N1-01221+99999999999ADDGF108991081051008001999999REMSYN042AAXX  25071 15300 42560 80000 11122 885//;
0080153000999992000012515004+45630+025580FM-12+053899999V0203201N001019999999N9999999N1-01091+99999999999ADDGF107991031031999999071001REMSYN042AAXX  25151 15300 4290/ 73201 11109 83370;
0080153000999992000012517004+45630+025580FM-12+053899999V0203201N001010360019N9999999N1-01101+99999999999ADDGF107991031031008001071001REMSYN042AAXX  25171 15300 4256/ 73201 11110 83370;
0236153000999992000012518004+45630+025580FM-12+053899999V0209999C000012200019N0120001N1-01561-01621999999ADDAA199000091AJ100179199999999GF102991021001999999041001IA1249KA1120M-00451MA1999999095951MD1210181+9999ME1208189REMSYN094AAXX  25181 15300 32962 20000 11156 21162 39595 42818 52018 82040 333 11045 3/103 48017 92800;EQDQ01  00002PRCP99
0170153000999992000012615004+45630+025580FM-12+053899999V0202901N008019999999N0060001N1-00881-00951999999ADDAA199000091GF108991999999008001999999MA1999999095821REMSYN087AAXX  26151 15300 31556 82908 11088 21095 39582 4280 53001 73622 885// 333 92912 96010;EQDQ01  00002PRCP99
0118153000999992000012616004+45630+025580FM-12+053899999V0203201N002010042019N0032001N1-00931+99999999999ADDAY171999AY221999GF108991081051004501999999MW1711REMSYN058AAXX  26161 15300 41432 83202 11093 77172 885// 333 96010;
0118153000999992000012617004+45630+025580FM-12+053899999V0209999C000010042019N0032001N1-00951+99999999999ADDAY171999AY271999GF108991081051004501999999MW1711REMSYN058AAXX  26171 15300 41432 80000 11095 77177 885// 333 96010;
0263153000999992000012618004+45630+025580FM-12+053899999V0209999C000010042019N0032001N1-00971-00971999999ADDAA103001091AJ100199199999999AY171061AY221061GF108991081001004501021999IA1249KA1120M-00851MA1999999095891MD1210071+9999ME1208079MW1711REMSYN118AAXX  26181 15300 /1432 80000 11097 21097 39589 42807 52007 60012 77172 8802/ 333 11085 3/107 48019 60017 92800 96010;
0131153000999992000012620004+45630+025580FM-12+053899999V0209999C000010042019N0032001N1-00981+99999999999ADDAY171999AY271999GF108991081001004501021999REMSYN058AAXX  26201 15300 41432 80000 11098 78177 8802/ 333 96010;EQDQ01+000812PRSWM1
0209153000999992000012621004+45630+025580FM-12+053899999V0203201N007010042019N0032001N1-00981-00981999999ADDAA103001091AY171031AY271031GF108991081001004501021999MA1999999095991MD1210101+9999ME1208159MW1711REMSYN100AAXX  26211 15300 21432 83207 11098 21098 39599 42815 52010 77177 8802/ 333 55000 60017 92913 96010;
0124153000999992000012622004+45630+025580FM-12+053899999V0203201N008010042019N0032001N1-00981+99999999999ADDAY171011AY271011GF108991081001004501021999MW1711REMSYN064AAXX  26221 15300 41432 83208 11098 77177 8802/ 333 92913 96010;
0118153000999992000012623004+45630+025580FM-12+053899999V0202901N008010042019N0032001N1-01001+99999999999ADDAY171999AY271999GF108991081001004501021999MW1711REMSYN058AAXX  26231 15300 41432 82908 11100 77177 8802/ 333 92912;
0197153000999992000012703004+45630+025580FM-12+053899999V0203201N002010042019N0032001N1-00951-00951999999ADDAA103000991AY171031AY271031GF108991081001004501021999MA1999999095991MD1410001+9999ME1208159MW1711REMSYN088AAXX  27031 15300 21432 83202 11095 21095 39599 42815 54000 77177 8802/ 333 69997 96010;
0102153000999992000012704004+45630+025580FM-12+053899999V0209999C000019999999N0032001N1-00951+99999999999ADDAY171999AY271999GF108991999999004501999999MW1711REMSYN042AAXX  27041 15300 41432 80000 11095 77177;
0285153000999992000012706004+45630+025580FM-12+053899999V0209999C000010042019N0060001N1-00901-00901999999ADDAA103002091AJ100219199999999AY171061AY271061GF108991081001004501021999IA1249IA2120-01209KA1120N-01041MA1999999096091MD1319999+9999ME1208239MW1711REMSYN128AAXX  27061 15300 /1456 80000 11090 21090 39609 42823 53/02 60062 77177 8802/ 333 21104 3/112 48021 60027 92800 96010 555 60071;
0096153000999992000012707004+45630+025580FM-12+053899999V0209999C000010042019N0060001N1+99999+99999999999ADDGF108991081001004501021999REMSYN058AAXX  27071 15300 41456 80000 1078/ 7/177 8802/ 333 96010;
0226153000999992000012712004+45630+025580FM-12+053899999V0203201N004010360019N9999999N1-00581-00621999999ADDAA103000191AJ100249199999999AY171061AY221061GF108991041031008001021999IA1249MA1999999096051MD1710041+9999ME1208379MW1101REMSYN094AAXX  27121 15300 /154/ 83204 11058 21062 39605 42837 57004 69921 71072 8432/ 333 48024 69917;
0108153000999992000012714004+45630+025580FM-12+053899999V0203201N005010360019N0060001N1+99999+99999999999ADDAY121021AY221021GF108991041031008001021999MW1101REMSYN048AAXX  27141 15300 41556 83205 110/8 71022 8432/;
0080153000999992000012716004+45630+025580FM-12+053899999V02099999999990075019N0120001N1-00421+99999999999ADDGF108991051051008001071999REMSYN042AAXX  27161 15300 42562 8326/ 11042 8557/;
0080153000999992000012717004+45630+025580FM-12+053899999V0203201N004010075019N0100001N1-00421+99999999999ADDGF107991071051008001001001REMSYN042AAXX  27171 15300 42560 73204 11042 87500;
0080153000999992000012719004+45630+025580FM-12+053899999V0203201N002010075019N0100001N1-00481+99999999999ADDGF108991081051008001999999REMSYN042AAXX  27191 15300 42560 83202 11048 885//;
0093153000999992000012720004+45630+025580FM-12+053899999V0203201N002019999999N0100001N1+99999+99999999999ADDGF108991999999008001999999REMSYN036AAXX  27201 15300 42560 83202 1048/;EQDQ01+004803ATOT  
0080153000999992000012722004+45630+025580FM-12+053899999V0209999C000010075019N0100001N1-00581+99999999999ADDGF108991081051008001999999REMSYN042AAXX  27221 15300 42560 80000 11058 885//;
0205153000999992000012800004+45630+025580FM-12+053899999V0209999C000010075019N0100001N1-00581-00581999999ADDAA199000091AJ100249199999999GF108991081051008001999999IA1239MA1999999095951MD1710161+9999ME1208299REMSYN076AAXX  28001 15300 32560 80000 11058 21058 39595 42829 57016 885// 333 47024;EQDQ01  00002PRCP99
0080153000999992000012801004+45630+025580FM-12+053899999V0209999C000010075019N0100001N1-00571+99999999999ADDGF108991081051008001999999REMSYN042AAXX  28011 15300 42560 80000 11057 885//;
0172153000999992000012803004+45630+025580FM-12+053899999V0209999C000010075019N0100001N1-00541-00541999999ADDAA199000091GF108991081051008001999999MA1999999095911MD1710041+9999ME1208219REMSYN066AAXX  28031 15300 32560 80000 11054 21054 39591 42821 57004 885//;EQDQ01  00002PRCP99
0080153000999992000012805004+45630+025580FM-12+053899999V02099999999990075019N0100001N1-00541+99999999999ADDGF108991081051008001999999REMSYN042AAXX  28051 15300 42560 8//// 11054 885//;
0239153000999992000012806004+45630+025580FM-12+053899999V0209999C000010075019N0100001N1-00521-00521999999ADDAA199000091AJ100249199999999GF108991081051008001999999IA1249IA2120-00809MA1999999095851MD1710061+9999ME1208709REMSYN098AAXX  28061 15300 32560 80000 11052 21052 39585 4287/ 57006 885// 333 3/108 48024 92800 555 60002;EQDQ01  00002PRCP99
0108153000999992000012808004+45630+025580FM-12+053899999V0209999C000010075019N0060001N1-00261+99999999999ADDAY121999AY221999GF107991071051008001001001MW1101REMSYN048AAXX  28081 15300 41556 70000 11026 71022 87500;
0074153000999992000012813004+45630+025580FM-12+053899999V0209999C000012200019N0300001N1+00101+99999999999ADDGF103991999999012501999999REMSYN036AAXX  28131 15300 42680 30000 1001/;
0080153000999992000012814004+45630+025580FM-12+053899999V0209999C000012200019N0300001N1+00121+99999999999ADDGF103991011021012501001051REMSYN042AAXX  28141 15300 42680 30000 10012 81205;
0172153000999992000012815004+45630+025580FM-12+053899999V0209999C000012200019N0300001N1-00131-00301999999ADDAA199000091GF104991001001999999001011MA1999999095561MD1710131+9999ME1208009REMSYN066AAXX  28151 15300 32980 40000 11013 21030 39556 42800 57013 80001;EQDQ01  00002PRCP99
0080153000999992000012816004+45630+025580FM-12+053899999V0209999C000019999999N0300001N1-00481+99999999999ADDGF106991001001999999001061REMSYN042AAXX  28161 15300 42980 60000 11048 80006;
0080153000999992000012817004+45630+025580FM-12+053899999V0209999C000012200019N0300001N1-00881+99999999999ADDGF103991001001999999001021REMSYN042AAXX  28171 15300 42980 30000 11088 80002;
0233153000999992000012818004+45630+025580FM-12+053899999V0202301N005012200019N0120001N1-01081-01091999999ADDAA199000091AJ100229199999999GA1001+999999999GF100991001001999999001001IA1249MA1999999095581MD1210021+9999ME1207919REMSYN088AAXX  28181 15300 32962 02305 11108 21109 39558 42791 52002 333 1/029 3/002 48022 92830;EQDQ01  00002PRCP99
0090153000999992000012819004+45630+025580FM-12+053899999V0202301N004012200019N0120001N1-01121+99999999999ADDGA1001+999999999GF100991001001999999001001REMSYN036AAXX  28191 15300 42962 02304 11112;
0090153000999992000012820004+45630+025580FM-12+053899999V0202301N004012200019N0120001N1-01111+99999999999ADDGA1001+999999999GF100991001001999999001001REMSYN036AAXX  28201 15300 42962 02304 11111;
0183153000999992000012821004+45630+025580FM-12+053899999V0202301N002012200019N0120001N1-00821-01011999999ADDAA199000091GA1001+999999999GF100991001001999999001001MA1999999095681MD1210101+9999REMSYN070AAXX  28211 15300 32962 02302 11082 21101 39568 427/9 52010 333 55051;EQDQ01  00002PRCP99
0090153000999992000012822004+45630+025580FM-12+053899999V0203201N005012200019N0120001N1-00461+99999999999ADDGA1001+999999999GF100991001001999999001001REMSYN036AAXX  28221 15300 42962 03205 11046;
0194153000999992000012900004+45630+025580FM-12+053899999V0203201N004012200019N0120001N1-00361-00501999999ADDAA199000091AJ100229199999999GA1001+999999999GF100991001001999999001001IA1249MD1410001+9999ME1207889REMSYN064AAXX  29001 15300 32962 03204 11036 21050 42788 54000 333 48022;EQDQ01  00002PRCP99
0090153000999992000012901004+45630+025580FM-12+053899999V0203201N002012200019N0120001N1-00401+99999999999ADDGA1001+999999999GF100991001001999999001001REMSYN036AAXX  29011 15300 42962 03202 11040;
0090153000999992000012902004+45630+025580FM-12+053899999V0203201N004012200019N0120001N1-01051+99999999999ADDGA1001+999999999GF100991001001999999001001REMSYN036AAXX  29021 15300 42962 03204 11105;
0182153000999992000012903004+45630+025580FM-12+053899999V0203201N004012200019N0120001N1-00901-00901999999ADDAA199000091GA1001+999999999GF100991001001999999001001MA1999999095631MD1710051+9999ME1207919REMSYN060AAXX  29031 15300 32962 03204 11090 21090 39563 42791 57005;EQDQ01  00002PRCP99
0090153000999992000012904004+45630+025580FM-12+053899999V0209999C000012200019N0120001N1-00941+99999999999ADDGA1001+999999999GF100991001001999999001001REMSYN036AAXX  29041 15300 42962 00000 11094;
0172153000999992000012915004+45630+025580FM-12+053899999V0209999C000012200019N0120001N1-00621-00851999999ADDAA199000091GF102991001001999999001021MA1999999095431MD1710121+9999ME1207809REMSYN066AAXX  29151 15300 32962 20000 11062 21085 39543 42780 57012 80002;EQDQ01  00002PRCP99
0090153000999992000012916004+45630+025580FM-12+053899999V0209999C000012200019N0120001N1-01111+99999999999ADDGA1001+999999999GF100991001001999999001001REMSYN036AAXX  29161 15300 42962 00000 11111;
0090153000999992000012917004+45630+025580FM-12+053899999V0209999C000012200019N0120001N1-01081+99999999999ADDGA1001+999999999GF100991001001999999001001REMSYN036AAXX  29171 15300 42962 00000 11108;
0172153000999992000013000004+45630+025580FM-12+053899999V0209999C000019999999N0100001N1+99999+99999999999ADDAA199000091GF106991061001999999071001MA1999999094991MD1710241+9999ME1207399REMSYN066AAXX  30001 15300 32960 60000 21128 39499 42739 57024 86070 92611;EQDQ01  00002PRCP99
0080153000999992000013008004+45630+025580FM-12+053899999V0202301N007010360019N0500001N1+00231+99999999999ADDGF107991031021008001071001REMSYN042AAXX  30081 15300 42584 72307 10023 83270;
0108153000999992000013014004+45630+025580FM-12+053899999V0202501N009010075019N0500001N1+00581+99999999999ADDAY181999AY281999GF108991081031008001999999MW1801REMSYN048AAXX  30141 15300 41584 82509 10058 78088 883//;
0191153000999992000013015004+45630+025580FM-12+053899999V0202301N009010360019N0500001N1+00501+00151999999ADDAA103000191AY181031AY221031GF105991041031008001061001MA1999999094341MD1310051+9999ME1206959MW1251REMSYN082AAXX  30151 15300 21584 52309 10050 20015 39434 42695 53005 72582 84360 333 69927;
0080153000999992000013016004+45630+025580FM-12+053899999V0202301N004010360019N0500001N1+00401+99999999999ADDGF105991041031008001061001REMSYN042AAXX  30161 15300 42584 52304 10040 84360;
0080153000999992000013017004+45630+025580FM-12+053899999V0202301N010010360019N0120001N1+00421+99999999999ADDGF106991041031008001061001REMSYN042AAXX  30171 15300 42562 62310 10042 84360;
0234153000999992000013018004+45630+025580FM-12+053899999V0202301N010010360019N0120001N1+00441+00081999999ADDAJ100129199999999AY181061AY221061GF106991041031008001061001IA1249KA1120M+00661MA1999999094591MD1210251+9999ME1207219MW1021REMSYN100AAXX  30181 15300 11562 62310 10044 20008 39459 42721 52025 70282 84360 333 10066 3/005 48012 92853;
0080153000999992000013019004+45630+025580FM-12+053899999V0202501N020010075019N0120001N1+00421+99999999999ADDGF106991061031008001001001REMSYN042AAXX  30191 15300 42562 62520 10042 86300;
0108153000999992000013105004+45630+025580FM-12+053899999V0202501N008010075019N0120001N1+00101+99999999999ADDAY121999AY221999GF107991071031008001001001MW1851REMSYN048AAXX  31051 15300 41562 72508 10010 78522 87300;
0080153000999992000013107004+45630+025580FM-12+053899999V0202501N008010075019N0300001N1+00121+99999999999ADDGF106991061031008001001001REMSYN042AAXX  31071 15300 42580 62508 10012 86300;
0157153000999992000013115004+45630+025580FM-12+053899999V0203201N016019999999N0500001N1+00521+00301999999ADDAA199000021GF108991081001999999071999MA1999999095231MD1710211+9999ME1207729REMSYN070AAXX  31151 15300 32984 83216 10052 20030 39523 42772 57021 8807/ 333;
0090153000999992000013116004+45630+025580FM-12+053899999V0203401N016010360019N0500001N1+00641+99999999999ADDGF108991031031008001071999REMSYN052AAXX  31161 15300 42584 83416 10064 8337/ 333 91124;
0080153000999992000013117004+45630+025580FM-12+053899999V0203401N014010360019N0500001N1+00561+99999999999ADDGF108991031031008001071999REMSYN042AAXX  31171 15300 42584 83414 10056 8337/;
0051153000999992000013120004+45630+025580FM-12+053899999V0203201N009019999999N0120001N1+00501+99999999999REMSYN042AAXX  31201 15300 42562 /3209 10050 8637/;
0182153000999992000013121004+45630+025580FM-12+053899999V0203201N010010075019N0120001N1+00471+00191999999ADDAA199000091GF108991061031008001071999MA1999999095271MD1210081+9999ME1207729REMSYN076AAXX  31211 15300 32562 83210 10047 20019 39527 42772 52008 8637/ 333 55015;EQDQ01  00002PRCP99
0074153000999992000013123004+45630+025580FM-12+053899999V0203201N009019999999N0120001N1+00401+99999999999ADDGF108991999999008001999999REMSYN036AAXX  31231 15300 42562 83209 10040;
0205153000999992000020100004+45630+025580FM-12+053899999V0203401N010010075019N0120001N1+00401+00091999999ADDAA199000091AJ100099199999999GF106991061031008001001001IA1249MA1999999095491MD1210221+9999ME1207899REMSYN076AAXX  01001 15300 32562 63410 10040 20009 39549 42789 52022 86300 333 48009;EQDQ01  00002PRCP99
0090153000999992000020101004+45630+025580FM-12+053899999V0203201N016010075019N0120001N1+00371+99999999999ADDGF106991061031008001001001REMSYN052AAXX  01011 15300 42562 63216 10037 86300 333 91124;
0118153000999992000020102004+45630+025580FM-12+053899999V0203201N016010075019N0120001N1+00331+99999999999ADDAY181999AY221999GF108991081031008001999999MW1251REMSYN058AAXX  01021 15300 41562 83216 10033 72582 883// 333 91124;
0197153000999992000020103004+45630+025580FM-12+053899999V0203401N016010075019N0120001N1+00301+00251999999ADDAA103000391AY181031AY221031GF108991081031008001999999MA1999999095761MD1210271+9999ME1208149MW1021REMSYN088AAXX  01031 15300 21562 83416 10030 20025 39576 42814 52027 70282 883// 333 69937 91124;
0090153000999992000020104004+45630+025580FM-12+053899999V0203201N014010075019N0120001N1+00301+99999999999ADDGF105991051031008001001001REMSYN052AAXX  01041 15300 42562 53214 10030 85300 333 91120;
0273153000999992000020106004+45630+025580FM-12+053899999V0203201N004010075019N0120001N1+00281+00281999999ADDAA100999999AJ100089199999999AY181061AY221061GF106991061031008001001001IA1249IA2120+00209KA1120N+00221MA1999999096001MD1210241+9999ME1208409MW1021REMSYN116AAXX  01061 15300 11562 63204 10028 20028 39600 42840 52024 699// 70282 86300 333 20022 3/002 48008 92863 555 60003;
0080153000999992000020107004+45630+025580FM-12+053899999V0203201N004010360019N0120001N1+00321+99999999999ADDGF106991041031008001041031REMSYN042AAXX  01071 15300 42562 63204 10032 84343;
0236153000999992000020118004+45630+025580FM-12+053899999V0209999C000019999999N0120001N1+00141+00141999999ADDAA199000091AJ100059199999999GF106991061001999999071001IA1279KA1120M+00901MA1999999096181MD1210081+9999ME1208519REMSYN094AAXX  01181 15300 32962 60000 10014 20014 39618 42851 52008 86070 333 10090 3/004 43005 92850;EQDQ01  00002PRCP99
0146153000999992000020121004+45630+025580FM-12+053899999V0202001N004019999999N0120001N1+00181+00101999999ADDAA199000091GF106991999999999999999999MA1999999096161ME1208519REMSYN054AAXX  01211 15300 32962 62004 10018 20010 39616 42851;EQDQ01  00002PRCP99
0080153000999992000020210004+45630+025580FM-12+053899999V0209999C000012200019N0120001N1+00201+99999999999ADDGF103991001001999999001021REMSYN042AAXX  02101 15300 42962 30000 10020 80002;
0080153000999992000020211004+45630+025580FM-12+053899999V0209999C000019999999N0120001N1+00321+99999999999ADDGF105991001001999999001061REMSYN042AAXX  02111 15300 42962 50000 10032 80006;
0172153000999992000020215004+45630+025580FM-12+053899999V0209999C000019999999N0120001N1+00881-00091999999ADDAA199000091GF106991001001999999001061MA1999999095311MD1710131+9999ME1207859REMSYN066AAXX  02151 15300 32962 60000 10088 21009 39531 42785 57013 80006;EQDQ01  00002PRCP99
0080153000999992000020216004+45630+025580FM-12+053899999V0209999C000019999999N0120001N1+00721+99999999999ADDGF107991001001999999001061REMSYN042AAXX  02161 15300 42962 70000 10072 80006;
0080153000999992000020217004+45630+025580FM-12+053899999V0209999C000019999999N0120001N1+00601+99999999999ADDGF106991021001999999041081REMSYN042AAXX  02171 15300 42962 60000 10060 82048;
0236153000999992000020218004+45630+025580FM-12+053899999V0209999C000012200019N0120001N1+00551-00151999999ADDAA199000091AJ100039199999999GF102991021001999999041001IA1279KA1120M+01061MA1999999095311MD1410001+9999ME1207809REMSYN094AAXX  02181 15300 32962 20000 10055 21015 39531 42780 54000 82040 333 10106 30009 43003 92853;EQDQ01  00002PRCP99
0080153000999992000020219004+45630+025580FM-12+053899999V0209999C000012200019N0120001N1+00251+99999999999ADDGF102991021001999999041001REMSYN042AAXX  02191 15300 42962 20000 10025 82040;
0192153000999992000020221004+45630+025580FM-12+053899999V0209999C000012200019N0120001N1+00001+00001999999ADDAA199000091GA1001+999999999GF100991001001999999001001MA1999999095311MD1410001+9999ME1207769REMSYN070AAXX  02211 15300 32962 00000 10000 20000 39531 42776 54000 333 55072;EQDQ01  00002PRCP99
0211153000999992000020300004+45630+025580FM-12+053899999V0209999C000019999999N0120001N1+00361+00361999999ADDAA199000091AJ100039199999999GF106991061001999999071001IA1279MA1999999095311MD1410001+9999ME1207809REMSYN082AAXX  03001 15300 32962 60000 10036 20036 39531 42780 54000 86070 333 43003 92600;EQDQ01  00002PRCP99
0080153000999992000020301004+45630+025580FM-12+053899999V0202301N003019999999N0120001N1+00481+99999999999ADDGF106991061001999999071001REMSYN042AAXX  03011 15300 42962 62303 10048 86070;
0172153000999992000020303004+45630+025580FM-12+053899999V0202901N007019999999N0120001N1+00351+00351999999ADDAA199000091GF106991061001999999071001MA1999999095261MD1710051+9999ME1207809REMSYN066AAXX  03031 15300 32962 62907 10035 20035 39526 42780 57005 86070;EQDQ01  00002PRCP99
0080153000999992000020304004+45630+025580FM-12+053899999V0202901N007019999999N0120001N1+00351+99999999999ADDGF107991071001999999071001REMSYN042AAXX  03041 15300 42962 72907 10035 87070;
0108153000999992000020313004+45630+025580FM-12+053899999V0203201N008010075019N0120001N1+00341+99999999999ADDAY181999AY281999GF108991081031008001999999MW1801REMSYN048AAXX  03131 15300 41562 83208 10034 78088 883//;
0191153000999992000020315004+45630+025580FM-12+053899999V0202901N005010075019N0120001N1+00181+00181999999ADDAA103001091AY181031AY221031GF108991061031008001071999MA1999999095491MD1210191+9999ME1207849MW1021REMSYN082AAXX  03151 15300 21562 82905 10018 20018 39549 42784 52019 70282 8637/ 333 60017;
0080153000999992000020316004+45630+025580FM-12+053899999V0202901N003010075019N0120001N1+00171+99999999999ADDGF108991061031008001071999REMSYN042AAXX  03161 15300 42562 82903 10017 8637/;
0080153000999992000020317004+45630+025580FM-12+053899999V0209999C000019999999N0120001N1+00161+99999999999ADDGF106991061001999999071001REMSYN042AAXX  03171 15300 42962 60000 10016 86070;
0251153000999992000020318004+45630+025580FM-12+053899999V0202701N004019999999N0120001N1+00161-00091999999ADDAA112001091AJ100029199999999AY181061AY221061GF106991061001999999071001IA1279KA1120M+00461MA1999999095761MD1210271+9999ME1208099MW1021REMSYN106AAXX  03181 15300 11962 62704 10016 21009 39576 42809 52027 60012 70282 86070 333 10046 3/002 43002 92853;
0080153000999992000020319004+45630+025580FM-12+053899999V0202701N005012200019N0120001N1+00151+99999999999ADDGF104991041001999999071001REMSYN042AAXX  03191 15300 42962 42705 10015 84070;
0163153000999992000020321004+45630+025580FM-12+053899999V0203201N002019999999N0120001N1+00141+00141999999ADDAA199000021GF106991061001999999071001MA1999999095481MD1210121+9999ME1208189REMSYN076AAXX  03211 15300 32962 63202 10014 20014 39548 42818 52012 86070 333 55000;
0080153000999992000020322004+45630+025580FM-12+053899999V0209999C000010075019N0120001N1+00151+99999999999ADDGF108991081051008001999999REMSYN042AAXX  03221 15300 42562 80000 10015 885//;
0080153000999992000020323004+45630+025580FM-12+053899999V0209999C000010075019N0120001N1+00121+99999999999ADDGF108991081051008001999999REMSYN042AAXX  03231 15300 42562 80000 10012 885//;
0226153000999992000020400004+45630+025580FM-12+053899999V0203201N004010075019N0120001N1+00051+00051999999ADDAA103000791AJ100029199999999AY171061AY221061GF108991081051008001999999IA1279MA1999999096051MD1210171+9999ME1208349MW1711REMSYN094AAXX  04001 15300 /1562 83204 10005 20005 39605 42834 52017 69901 77172 885// 333 43002 69907;
0108153000999992000020401004+45630+025580FM-12+053899999V0203201N008010075019N0120001N1+00031+99999999999ADDAY171011AY221011GF108991081051008001999999MW1221REMSYN048AAXX  04011 15300 41562 83208 10003 72272 885//;
0080153000999992000020402004+45630+025580FM-12+053899999V0203201N004010075019N0120001N1-00041+99999999999ADDGF106991061051008001001001REMSYN042AAXX  04021 15300 42562 63204 11004 86500;
0191153000999992000020403004+45630+025580FM-12+053899999V0203201N008010075019N0120001N1-00011-00011999999ADDAA103000191AY171031AY221031GF106991061051008001001001MA1999999096181MD1210131+9999ME1208429MW1021REMSYN082AAXX  04031 15300 21562 63208 11001 21001 39618 42842 52013 70272 86500 333 69917;
0080153000999992000020417004+45630+025580FM-12+053899999V0203201N006012200019N0120001N1-00201+99999999999ADDGF101991011001999999041001REMSYN042AAXX  04171 15300 42962 13206 11020 81040;
0192153000999992000020418004+45630+025580FM-12+053899999V0203201N002012200019N0120001N1-00301+99999999999ADDAA112000591AJ100029199999999GA1001+999999999GF100991001001999999001001IA1239MA1999999096901ME1209099REMSYN080AAXX  04181 15300 12962 03202 1103/ 3969/ 42909 69952 333 1001/ 3/002 47002 900;
0108153000999992000020517004+45630+025580FM-12+053899999V0209999C000010075019N0120001N1+00041+99999999999ADDAY171999AY221999GF108991081051008001999999MW1221REMSYN048AAXX  05171 15300 41562 80000 10004 72272 885//;
0108153000999992000020519004+45630+025580FM-12+053899999V0209999C000010075019N0100001N1+00001+99999999999ADDAY171999AY271999GF108991081051008001999999MW1711REMSYN048AAXX  05191 15300 41560 80000 10000 77177 885//;
0080153000999992000020610004+45630+025580FM-12+053899999V0202901N002010075019N0100001N1+00161+99999999999ADDGF108991081051008001999999REMSYN042AAXX  06101 15300 42560 82902 10016 885//;
0080153000999992000020613004+45630+025580FM-12+053899999V0209999C000010042019N0100001N1+00201+99999999999ADDGF108991081051004501999999REMSYN042AAXX  06131 15300 42460 80000 10020 885//;
0172153000999992000020615004+45630+025580FM-12+053899999V0203201N002010360019N0100001N1+00201+00201999999ADDAA199000091GF108991041051004501071999MA1999999096371MD1210041+9999ME1208679REMSYN066AAXX  06151 15300 32460 83202 10020 20020 39637 42867 52004 8457/;EQDQ01  00002PRCP99
0108153000999992000020616004+45630+025580FM-12+053899999V0203201N002010360019N0100001N1+00221+99999999999ADDAY161999AY221999GF108991041051004501071999MW1611REMSYN048AAXX  06161 15300 41460 83202 10022 76162 8457/;
0108153000999992000020617004+45630+025580FM-12+053899999V0203201N002010360019N0100001N1+00221+99999999999ADDAY161999AY261999GF108991041051004501071999MW1611REMSYN048AAXX  06171 15300 41460 83202 10022 76166 8457/;
0257153000999992000020618004+45630+025580FM-12+053899999V0209999C000010360019N0100001N1+00241+00241999999ADDAA103000391AJ100029199999999AY161061AY221061GF108991031051004501071999IA1309KA1120M+00371MA1999999096441MD1210071+9999ME1208679MW1211REMSYN112AAXX  06181 15300 /1460 80000 10024 20024 39644 42867 52007 69972 72162 8357/ 333 10037 31002 42002 69937 92820;
0108153000999992000020619004+45630+025580FM-12+053899999V0209999C000010042019N0032001N1+00201+99999999999ADDAY121999AY221999GF108991081051004501999999MW1101REMSYN048AAXX  06191 15300 41432 80000 10020 71022 885//;
0108153000999992000020620004+45630+025580FM-12+053899999V0209999C000010042019N0032001N1+00191+99999999999ADDAY121999AY221999GF108991081061004501999999MW1101REMSYN048AAXX  06201 15300 41432 80000 10019 71022 886//;
0181153000999992000020621004+45630+025580FM-12+053899999V0209999C000019999999N9999999N1+00701+00101999999ADDAA199000021AY121031AY221031GF108991081061999999999999MA1999999096481MD1210041+9999ME1208759MW1101REMSYN072AAXX  06211 15300 31/52 80000 10070 20010 39648 42875 52004 71022 886//;
0210153000999992000020715004+45630+025580FM-12+053899999V0209999C000010001519N0001001N1+00141+00141999999ADDAA199000091AY141031AY241031GA1091+999999999GF109991091999999999999999MA1999999095871MD1710201+9999ME1208189MW1471REMSYN066AAXX  07151 15300 31/01 90000 10014 20014 39587 42818 57020 74744;EQDQ01  00002PRCP99
0118153000999992000020716004+45630+025580FM-12+053899999V0209999C000010001519N0001001N1+00121+99999999999ADDAY141999AY241999GA1091+999999999GF109991091999999999999999MW1451REMSYN042AAXX  07161 15300 41/01 90000 10012 74544;
0118153000999992000020717004+45630+025580FM-12+053899999V0209999C000010001519N0001001N1+00041+99999999999ADDAY141999AY241999GA1091+999999999GF109991091999999999999999MW1451REMSYN042AAXX  07171 15300 41/01 90000 10004 74544;
0165153000999992000020718004+45630+025580FM-12+053899999V0209999C000010001519N0001001N1+99999+99999999999ADDAA199000091AJ101029199999999GA1091+999999999GF109991091999999999999999IA1309REMSYN058AAXX  07181 15300 31/01 90000 333 10/27 34003 42102 92850;EQDQ01  00002PRCP99
0118153000999992000020719004+45630+025580FM-12+053899999V0209999C000010001519N0001001N1-00081+99999999999ADDAY141999AY241999GA1091+999999999GF109991091999999999999999MW1451REMSYN042AAXX  07191 15300 41/01 90000 11008 74544;
0096153000999992000020720004+45630+025580FM-12+053899999V0209999C000010001519N0001001N1-00081+99999999999ADDGA1091+999999999GF109991091999999999999999REMSYN042AAXX  07201 15300 4//01 90000 11008 74544;
0221153000999992000020721004+45630+025580FM-12+053899999V0209999C000010001519N0001001N1-00101-00101999999ADDAA199000091AY141031AY241031GA1091+999999999GF109991091999999999999999MA1999999095002MD1710091+9999MW1451REMSYN070AAXX  07211 15300 31/01 90000 11010 21010 3950/ 57009 74544 333 55000;EQDQ01+095003APOSP Q02  00002PRCP99
0118153000999992000020723004+45630+025580FM-12+053899999V0209999C000010001519N0001001N1-00121+99999999999ADDAY141999AY241999GA1091+999999999GF109991091999999999999999MW1451REMSYN042AAXX  07231 15300 41/01 90000 11012 74544;
0286153000999992000020806004+45630+025580FM-12+053899999V0209999C000010001519N0001001N1-00261-00261999999ADDAA199000091AJ100029199999999AY141061AY241061GA1091+999999999GF109991091999999999999999IA1309IA2120-00409KA1120N-00281MA1999999095601MD1310011+9999ME1207969MW1451REMSYN094AAXX  08061 15300 31/01 90000 11026 21026 39560 42796 53001 74544 333 21028 34104 42002 92850;EQDQ01  00002PRCP99
0108153000999992000020816004+45630+025580FM-12+053899999V0202001N001019999999N0060001N1+00051+99999999999ADDAY141999AY221999GF105991051001999999071001MW1281REMSYN048AAXX  08161 15300 41956 52001 10005 72842 85070;
0108153000999992000020817004+45630+025580FM-12+053899999V0209999C000012200019N0090001N1+00041+99999999999ADDAY121999AY221999GF104991041001999999071001MW1101REMSYN048AAXX  08171 15300 41959 40000 10004 71022 84070;
0246153000999992000020818004+45630+025580FM-12+053899999V0209999C000012200019N0100001N1+00241+00241999999ADDAA199000091AJ100029199999999GA1001+999999999GF100991001001999999001001IA1309KA1120M+00251MA1999999095161MD1710011+9999ME1207689REMSYN088AAXX  08181 15300 32960 00000 10024 20024 39516 42768 57001 333 10025 34003 42002 92850;EQDQ01  00002PRCP99
0254153000999992000020906004+45630+025580FM-12+053899999V0209999C000019999999N0180001N1-00041-00081999999ADDAA199000091AJ100029199999999GF108991001001999999001071IA1309IA2120-00109KA1120N-00121MA1999999095731MD1710051+9999ME1208099REMSYN100AAXX  09061 15300 32968 80000 11004 21008 39573 42809 57005 80007 333 21012 34101 42002 92600 92840;EQDQ01  00002PRCP99
0090153000999992000020907004+45630+025580FM-12+053899999V0209999C000019999999N0180001N1-00031+99999999999ADDGF108991081001999999071999REMSYN052AAXX  09071 15300 42968 80000 11003 8807/ 333 92600;
0108153000999992000020915004+45630+025580FM-12+053899999V0201601N002010075019N0100001N1+00401+99999999999ADDAY161031AY221031GF108991081051008001999999MW1611REMSYN048AAXX  09151 15300 41560 81602 10040 76162 885//;
0108153000999992000020917004+45630+025580FM-12+053899999V0209999C000010075019N0100001N1+00241+99999999999ADDAY161999AY261999GF108991081051008001999999MW1611REMSYN048AAXX  09171 15300 41560 80000 10024 76166 885//;
0100153000999992000020919004+45630+025580FM-12+053899999V0209999C000010120019N9999999N1+00201+99999999999ADDAW1611AZ161999GF108991081001012501021999REMSYN048AAXX  09191 15300 /560/ 80000 10020 76166 8802/;
0108153000999992000020923004+45630+025580FM-12+053899999V0209999C000010075019N0100001N1+00001+99999999999ADDAY171999AY261999GF108991081001008001021999MW1711REMSYN048AAXX  09231 15300 41560 80000 10000 77176 8802/;
0080153000999992000021013004+45630+025580FM-12+053899999V0209999C000010042019N0120001N1+00281+99999999999ADDGF107991071051004501001001REMSYN042AAXX  10131 15300 42462 70000 10028 87500;
0172153000999992000021015004+45630+025580FM-12+053899999V0209999C000010360019N0120001N1+00271+00191999999ADDAA199000091GF106991041051004501071001MA1999999096021MD1210101+9999ME1208349REMSYN066AAXX  10151 15300 32462 60000 10027 20019 39602 42834 52010 84570;EQDQ01  00002PRCP99
0080153000999992000021016004+45630+025580FM-12+053899999V0209999C000010360019N0120001N1+00251+99999999999ADDGF106991041051004501071001REMSYN042AAXX  10161 15300 42462 60000 10025 84570;
0080153000999992000021017004+45630+025580FM-12+053899999V0209999C000010360019N0120001N1+00171+99999999999ADDGF107991041051008001071001REMSYN042AAXX  10171 15300 42562 70000 10017 84570;
0242153000999992000021018004+45630+025580FM-12+053899999V0209999C000010360019N0120001N1+00071+00071999999ADDAA112000791AJ199992999999999GF107991041051008001071001IA1309KA1120M+00401MA1999999096161MD1210141+9999ME1208519REMSYN100AAXX  10181 15300 12562 70000 10007 20007 39616 42851 52014 69902 84570 333 10040 34002 42998 92820;EQDQ01  09972SNDP  
0080153000999992000021019004+45630+025580FM-12+053899999V0209999C000010360019N0120001N1+00001+99999999999ADDGF106991031051008001071001REMSYN042AAXX  10191 15300 42562 60000 10000 83570;
0114153000999992000021020004+45630+025580FM-12+053899999V0209999C000012200019N0120001N1-00051+99999999999ADDGF103991999999999999999999MA1999999104002REMSYN042AAXX  10201 15300 42962 30000 11005 3040/;EQDQ01+104003APOSP 
0118153000999992000021022004+45630+025580FM-12+053899999V0209999C000012200019N0060001N1-00041+99999999999ADDAY101999AY201999GA1001+999999999GF100991001001999999001001MW1101REMSYN042AAXX  10221 15300 41956 00000 11004 71000;
0160153000999992000021023004+45630+025580FM-12+053899999V0209999C000012200019N0060001N1-00101+99999999999ADDAY101999AY201999GA1001+999999999GF100991001001999999001001KA1999N+99999MW1101REMSYN052AAXX  10231 15300 41956 00000 11010 71000 333 2600/;EQDQ01 +00002ATMN  
0128153000999992000021100004+45630+025580FM-12+053899999V0209999C000012200019N0032001N1-00211+99999999999ADDAY101061AY201061GA1001+999999999GF100991001001999999001001MW1101REMSYN052AAXX  11001 15300 41932 00000 11021 71000 333 92/00;
0112153000999992000021101004+45630+025580FM-12+053899999V0209999C000012200019N0032001N1-00231+99999999999ADDGA1001+999999999GF100991001001999999001001MW1101REMSYN052AAXX  11011 15300 41932 00000 11023 710/0 333 92600;
0268153000999992000021118004+45630+025580FM-12+053899999V0209999C000010003019N0005001N1-00261-00261999999ADDAA199000091AJ100009199999999AY141061AY221061GA1091+999999999GF109991091999999999999999IA1149KA1120M-00141MA1999999096301MD1210061+9999ME1208539MW1451REMSYN088AAXX  11181 15300 31/05 90000 11026 21026 3963/ 42853 52006 74542 333 11014 34101 42998;EQDQ01  00002PRCP99
0118153000999992000021119004+45630+025580FM-12+053899999V0209999C000010001519N0001001N1-00261+99999999999ADDAY141999AY241999GA1091+999999999GF109991091999999999999999MW1471REMSYN042AAXX  11191 15300 41/01 90000 11026 74744;
0118153000999992000021120004+45630+025580FM-12+053899999V0209999C000010001519N0001001N1-00261+99999999999ADDAY141999AY241999GA1091+999999999GF109991091999999999999999MW1451REMSYN042AAXX  11201 15300 41/01 90000 11026 74544;
0210153000999992000021121004+45630+025580FM-12+053899999V0209999C000010001519N0001001N1-00281-00281999999ADDAA199000091AY141031AY241031GA1091+999999999GF109991091999999999999999MA1999999096411MD1210111+9999ME1208649MW1451REMSYN066AAXX  11211 15300 31/01 90000 11028 21028 39641 42864 52011 74544;EQDQ01  00002PRCP99
0210153000999992000021203004+45630+025580FM-12+053899999V0209999C000010003019N0005001N1-00351-00351999999ADDAA199000091AY141031AY241031GA1091+999999999GF109991091999999999999999MA1999999096401MD1410001+9999ME1208619MW1451REMSYN066AAXX  12031 15300 31/05 90000 11035 21035 39640 42861 54000 74544;EQDQ01  00002PRCP99
0302153000999992000021206004+45630+025580FM-12+053899999V0209999C000010001519N0001001N1-00501-00501999999ADDAA199000091AJ199992999999999AY141061AY241061GA1091+999999999GF109991091999999999999999IA1309IA2120-00609KA1120N-00541MA1999999096481MD1210081+9999ME1208619MW1491REMSYN094AAXX  12061 15300 31/01 90000 11050 21050 39648 42861 52008 74944 333 21054 34106 42998 92713;EQDQ01  00002PRCP99Q02  09972SNDP  
0108153000999992000021216004+45630+025580FM-12+053899999V0209999C000012200019N0007001N1-00251+99999999999ADDAY141999AY211999GF103991999999999999999999MW1461REMSYN048AAXX  12161 15300 41907 30000 11025 74641 8////;
0128153000999992000021219004+45630+025580FM-12+053899999V0209999C000012200019N0000001N1-00381+99999999999ADDAY141999AY241999GA1001+999999999GF100991001001999999001001MW1481REMSYN052AAXX  12191 15300 41900 00000 11038 74844 333 92713;
0080153000999992000021319004+45630+025580FM-12+053899999V0209999C000010075019N0100001N1+00021+99999999999ADDGF107991071091008001001001REMSYN042AAXX  13191 15300 42560 70000 10002 87900;
0151153000999992000021415004+45630+025580FM-12+053899999V0209999C000019999999N0060001N1+00121+00121999999ADDAA103000491GF108991999999004501999999MA1999999055091REMSYN087AAXX  14151 15300 21456 80000 10012 20012 35509 4279 57003 77172 885// 333 69947 96010;
0080153000999992000021416004+45630+025580FM-12+053899999V0209999C000010075019N0120001N1+00121+99999999999ADDGF105991051031008001001001REMSYN042AAXX  14161 15300 42562 50000 10012 85300;
0080153000999992000021417004+45630+025580FM-12+053899999V0209999C000010075019N0120001N1+00101+99999999999ADDGF107991071031008001001001REMSYN042AAXX  14171 15300 42562 70000 10010 87300;
0276153000999992000021418004+45630+025580FM-12+053899999V0203201N004010042019N0090001N1+00001+00001999999ADDAA103001091AJ100029199999999AY181061AY271061GF108991081031004501999999IA1239KA1120M+00481MA1999999095192MD1310101+9999ME1207689MW1851REMSYN112AAXX  14181 15300 /1459 83204 10000 20000 39519 42768 5301/ 78587 883// 333 10048 3/005 47002 60017 92800 96010;EQDQ01+095193APOSP 
0108153000999992000021419004+45630+025580FM-12+053899999V0209999C000010042019N0100001N1+00001+99999999999ADDAY181999AY281999GF108991081031004501999999MW1851REMSYN048AAXX  14191 15300 41460 80000 10000 78588 883//;
0108153000999992000021420004+45630+025580FM-12+053899999V0203201N003010042019N0100001N1-00071+99999999999ADDAY181999AY221999GF108991081031004501999999MW1851REMSYN048AAXX  14201 15300 41460 83203 11007 78582 883//;
0162153000999992000021421004+45630+025580FM-12+053899999V0203201N004010042019N0100001N1-00031-00031999999ADDAA103000591AY181031AY221031GF107991071031004501001001MA1999999095171MW1851REMSYN076AAXX  14211 15300 21460 73204 11003 21003 39517 78582 87300 333 55000 69967;
0080153000999992000021422004+45630+025580FM-12+053899999V0209999C000010042019N0050001N1-00061+99999999999ADDGF107991071031004501001001REMSYN042AAXX  14221 15300 41450 70000 11006 87300;
0108153000999992000021423004+45630+025580FM-12+053899999V0209999C000010042019N9999999N1-00061+99999999999ADDAY181999AY281999GF108991081031004501999999MW1851REMSYN048AAXX  14231 15300 414/0 80000 11006 78588 883//;
0226153000999992000021500004+45630+025580FM-12+053899999V0209999C000010075019N0100001N1-00161+99999999999ADDAA103000591AJ100039199999999AY181061AY221061GF107991071031008001001001IA1239MA1999999095171MD1410001+9999ME1207689MW1261REMSYN094AAXX  15001 15300 /1560 70000 11016 28016 39517 42768 54000 60011 72682 87300 333 47003 69967;
0080153000999992000021501004+45630+025580FM-12+053899999V0209999C000010075019N0100001N1-00121+99999999999ADDGF107991071031008001001001REMSYN042AAXX  15011 15300 42560 70000 11012 87300;
0210153000999992000021509004+45630+025580FM-12+053899999V0203201N002010360019N0100001N1-00021-00021999999ADDAA103000791AY181031AY221031GF107991041031008001061001MA1999999095501MD1210792+9999ME1207939MW1021REMSYN082AAXX  15091 15300 21560 73202 11002 21002 39550 42793 52079 70282 84360 333 69907;EQDQ01+000792APC3  
0080153000999992000021510004+45630+025580FM-12+053899999V0202901N003010360019N0100001N1+00041+99999999999ADDGF107991041031008001061001REMSYN042AAXX  15101 15300 42560 72903 10004 84360;
0080153000999992000021513004+45630+025580FM-12+053899999V0203201N006010042019N0100001N1+00001+99999999999ADDGF105991051031004501001001REMSYN042AAXX  15131 15300 42460 53206 10000 85300;
0172153000999992000021515004+45630+025580FM-12+053899999V0203201N005010042019N0120001N1-00061-00271999999ADDAA199000091GF105991051031004501001001MA1999999095611MD1210031+9999ME1207969REMSYN066AAXX  15151 15300 32462 53205 11006 21027 39561 42796 52003 85300;EQDQ01  00002PRCP99
0080153000999992000021516004+45630+025580FM-12+053899999V02099999999990042019N0120001N1-00101+99999999999ADDGF106991061031004501001001REMSYN042AAXX  15161 15300 42462 6320/ 11010 86300;
0080153000999992000021517004+45630+025580FM-12+053899999V0209999C000010042019N0100001N1-00111+99999999999ADDGF106991061031004501001001REMSYN042AAXX  15171 15300 42460 60000 11011 86300;
0223153000999992000021518004+45630+025580FM-12+053899999V0209999C000010042019N0100001N1-00161-00281999999ADDAA112000791AJ100029199999999GF106991061031004501001001IA1309KA1120M+00061MA1999999095601MD1810011+9999ME1208019REMSYN100AAXX  15181 15300 12460 60000 11016 21028 39560 42801 58001 69902 86300 333 10006 3/102 42002 92820;
0080153000999992000021519004+45630+025580FM-12+053899999V0209999C000012200019N0100001N1-00221+99999999999ADDGF103991031031008001001001REMSYN042AAXX  15191 15300 42560 30000 11022 83300;
0090153000999992000021520004+45630+025580FM-12+053899999V0209999C000012200019N0100001N1-00321+99999999999ADDGA1001+999999999GF100991001001999999001001REMSYN036AAXX  15201 15300 42960 00000 11032;
0192153000999992000021521004+45630+025580FM-12+053899999V0203201N005012200019N0100001N1-00421-00471999999ADDAA199000091GA1001+999999999GF100991001001999999001001MA1999999095601MD1410001+9999ME1207969REMSYN070AAXX  15211 15300 32960 03205 11042 21047 39560 42796 54000 333 55017;EQDQ01  00002PRCP99
0090153000999992000021522004+45630+025580FM-12+053899999V0203201N002012200019N0100001N1-00461+99999999999ADDGA1001+999999999GF100991001001999999001001REMSYN036AAXX  15221 15300 42960 03202 11046;
0199153000999992000021600004+45630+025580FM-12+053899999V0209999C000012200019N0100001N1-00551-00551999999ADDAA199000091AJ100029199999999GF101991999999999999999999IA1309MA1999999095601MD1410001+9999ME1207969REMSYN070AAXX  16001 15300 32960 10000 11055 21055 39560 42796 54000 333 42002;EQDQ01  00002PRCP99
0114153000999992000021606004+45630+025580FM-12+053899999V0209999C000019999999N0500001N1-00761+99999999999ADDAA199000091MA1999999095531ME1207839REMSYN048AAXX  16061 15300 32984 /2000 11076 39553 42783;EQDQ01  00002PRCP99
0172153000999992000021609004+45630+025580FM-12+053899999V0209999C000012200019N0500001N1-00361-00431999999ADDAA199000091GF101991011001999999041001MA1999999095341MD1710191+9999ME1207729REMSYN066AAXX  16091 15300 32984 10000 11036 21043 39534 42772 57019 81040;EQDQ01  00002PRCP99
0080153000999992000021610004+45630+025580FM-12+053899999V0209999C000012200019N0500001N1-00211+99999999999ADDGF101991011001999999041001REMSYN042AAXX  16101 15300 42984 10000 11021 81040;
0182153000999992000021612004+45630+025580FM-12+053899999V0209999C000012200019N0500001N1+00001-00411999999ADDAA199000091GA1001+999999999GF100991001001999999001001MA1999999095121MD1710221+9999ME1207599REMSYN060AAXX  16121 15300 32984 00000 10000 21041 39512 42759 57022;EQDQ01  00002PRCP99
0230153000999992000021618004+45630+025580FM-12+053899999V0209999C000019999999N0120001N1-00021-00621999999ADDAA199000091AJ100009199999999GF108991001001999999001071IA1149KA1120M+00351MA1999999094721MD1710141+9999ME1207269REMSYN088AAXX  16181 15300 32962 80000 11002 21062 39472 42726 57014 80007 333 10035 34005 42998;EQDQ01  00002PRCP99
0080153000999992000021619004+45630+025580FM-12+053899999V0209999C000019999999N0120001N1+00021+99999999999ADDGF108991001001999999001071REMSYN042AAXX  16191 15300 42962 80000 10002 80007;
0080153000999992000021620004+45630+025580FM-12+053899999V0209999C000019999999N0120001N1+00041+99999999999ADDGF108991001001999999001071REMSYN042AAXX  16201 15300 42962 80000 10004 80007;
0172153000999992000021621004+45630+025580FM-12+053899999V0209999C000019999999N0120001N1+99999+99999999999ADDAA199000091GF105991001001999999001081MA1999999094661MD1710061+9999ME1207269REMSYN066AAXX  16211 15300 32962 50000 17022 21060 39466 42726 57006 80008;EQDQ01  00002PRCP99
0074153000999992000021622004+45630+025580FM-12+053899999V02099999999999999999N0120001N1+99999+99999999999ADDGF105991001001999999001081REMSYN036AAXX  16221 15300 42962 508// 80008;
