0235153100999992000010100004+45500+028020FM-12+007299999V0200201N007019999999N0020001N1-00121-00121101781ADDAA103003091AJ100039199999999AY171061AY221061GF108991081001004501071999IA1279MA1999999100891MD1710241+9999MW1711REMSYN112AAXX  01001 15310 /1420 80207 11012 21012 30089 40178 57024 60041 77172 8807/ 333 43003 60037 92913 96010 96036;
0108153100999992000010102004+45500+028020FM-12+007299999V0200201N008010042019N0010001N1-00151+99999999999ADDAY171999AY271999GF108991081001004501021999MW1731REMSYN048AAXX  01021 15310 41410 80208 11015 77377 8802/;
0200153100999992000010103004+45500+028020FM-12+007299999V0200201N009010042019N0010001N1-00181-00181101651ADDAA103005091AY171031AY271031GF108991081001004501021999MA1999999100761MD1710131+9999MW1731REMSYN100AAXX  01031 15310 21410 80209 11018 21018 30076 40165 57013 77377 8802/ 333 60057 92912 96010 96036;
0288153100999992000010106004+45500+028020FM-12+007299999V0200501N009010042019N0020001N1-00251-00251101541ADDAA103003091AJ100119199999999AY171061AY271061GF108991081001004501021999IA1249IA2120-00209KA1120N-00281MA1999999100651MD1710111+9999MW1711REMSYN140AAXX  01061 15310 /1420 80509 11025 21025 30065 40154 57011 60122 77177 8802/ 333 21028 3/102 48011 60037 92803 92912 96010 96036 555 60120;
0130153100999992000010107004+45500+028020FM-12+007299999V0200501N009010042019N0010001N1-00281+99999999999ADDAY171999AY271999GF108991081001004501021999MW1731REMSYN070AAXX  01071 15310 41410 80509 11028 77377 8802/ 333 92912 96010 96036;
0205153100999992000010109004+45500+028020FM-12+007299999V0203601N016010042019N0002001N1-00321-00321101631ADDAA103005191AY171031AY271031GF108991081001004501021999MA1999999100731MD1310081+9999MW1731REMSYN105AAXX  01091 15310 21402 83616 11032 21032 30073 40163 53008 77377 8802/333 60057 91124 92983 96010 96038;
0252153100999992000010112004+45500+028020FM-12+007299999V0203401N014019999999N0005001N1-00311-00311101721ADDAA103003091AJ100289199999999AY171061AY271061GF108991081001999999021999IA1249MA1999999100821MD1210091+9999MW1711OA149902001REMSYN118AAXX  01121 15310 31905 83414 11031 21031 30082 40172 52009 60081 77177 8802/ 333 48028 60037 91120 92982 96010 96038;
0090153100999992000010114004+45500+028020FM-12+007299999V0203201N007019999999N0100001N1-00331+99999999999ADDGF108991001001999999001071REMSYN052AAXX  01141 15310 42960 83207 11033 80007 333 92910;
0161153100999992000010115004+45500+028020FM-12+007299999V0203201N006019999999N0100001N1-00361-00721102001ADDAY171031AY271031GF106991011001999999041081MA1999999101101MD1210281+9999MW1011REMSYN072AAXX  01151 15310 21960 63206 11036 21072 30110 40200 52028 70177 81048;
0080153100999992000010116004+45500+028020FM-12+007299999V0203401N005012200019N0150001N1-00431+99999999999ADDGF102991021001999999041001REMSYN042AAXX  01161 15310 42965 23405 11043 82040;
0080153100999992000010117004+45500+028020FM-12+007299999V0203401N005012200019N0200001N1-00461+99999999999ADDGF103991021001999999041011REMSYN042AAXX  01171 15310 42970 33405 11046 82041;
0218153100999992000010118004+45500+028020FM-12+007299999V0203201N005012200019N0200001N1-00601-00911102241ADDAA124007991AY171061AY271061GF102991011001999999041011KA1120M-00241MA1999999101331MD1210231+9999MW1021REMSYN105AAXX  01181 15310 11970 23205 11060 21091 30133 40224 52023 60084 70277 81041 333 11024 3/101 4827 92813;
0090153100999992000010119004+45500+028020FM-12+007299999V0203201N003012200019N0200001N1-00641+99999999999ADDGA1001+999999999GF100991001001999999001001REMSYN036AAXX  01191 15310 42970 03203 11064;
0090153100999992000010120004+45500+028020FM-12+007299999V0203401N004012200019N0200001N1-00701+99999999999ADDGA1001+999999999GF100991001001999999001001REMSYN036AAXX  01201 15310 42970 03404 11070;
0173153100999992000010121004+45500+028020FM-12+007299999V02099999999992200019N0200001N1-00461-00771102321ADDAA106000091GF102991021051008001001001MA1999999101421MD1110091+9999REMSYN076AAXX  01211 15310 32570 236// 11046 21077 30142 40232 51009 82500 333 55016;EQDQ01  00002PRCP06
0080153100999992000010122004+45500+028020FM-12+007299999V0203601N004012200019N0200001N1-00481+99999999999ADDGF103991031051008001001001REMSYN042AAXX  01221 15310 42570 33604 11048 83500;
0090153100999992000010123004+45500+028020FM-12+007299999V0203401N003012200019N0200001N1-00551+99999999999ADDGA1001+999999999GF100991001001999999001001REMSYN036AAXX  01231 15310 42970 03403 11055;
0212153100999992000010200004+45500+028020FM-12+007299999V0203201N001012200019N0150001N1-00861-00931102451ADDAA106000091AJ100279199999999GA1001+999999999GF100991001001999999001001IA1249MA1999999101521MD1310101+9999REMSYN076AAXX  02001 15310 32965 03201 11086 21093 30152 40245 53010 333 48027 92600;EQDQ01  00002PRCP06
0118153100999992000010201004+45500+028020FM-12+007299999V02099999999990042019N0080001N1-00981+99999999999ADDAY111999AY211999GF107991071061004501001001MW1101REMSYN058AAXX  02011 15310 41458 7/000 11098 71011 87600 333 92611;
0118153100999992000010202004+45500+028020FM-12+007299999V0209999C000010042019N0060001N1-00851+99999999999ADDAY121999AY221999GF107991071061004501001001MW1101REMSYN058AAXX  02021 15310 41456 70000 11085 71022 87600 333 92611;
0201153100999992000010203004+45500+028020FM-12+007299999V0202701N001010075019N0040001N1-00701-00831102501ADDAA106000091AY111031AY211031GF107991071051008001001001MA1999999101581MD1110061+9999MW1101REMSYN082AAXX  02031 15310 31540 72701 11070 21083 30158 40250 51006 71011 87500 333 92611;EQDQ01  00002PRCP06
0118153100999992000010204004+45500+028020FM-12+007299999V0202501N001010075019N0040001N1-00641+99999999999ADDAY121999AY221999GF107991071051008001001001MW1101REMSYN058AAXX  02041 15310 41540 72501 11064 71022 87500 333 92611;
0118153100999992000010205004+45500+028020FM-12+007299999V0202901N001010075019N0040001N1-00581+99999999999ADDAY121999AY221999GF107991071051008001001001MW1101REMSYN058AAXX  02051 15310 41540 72901 11058 71022 87500 333 92611;
0283153100999992000010206004+45500+028020FM-12+007299999V0209999C000012200019N0040001N1-00581-00691102581ADDAA106000091AJ100279199999999AY111061AY211061GF104991041051008001001001IA1249IA2120-01909KA1120N-01121MA1999999101671MD1310091+9999MW1101REMSYN116AAXX  02061 15310 31540 40000 11058 21069 30167 40258 53009 71011 84500 333 21112 3/119 48027 92611 92813 555 60084;EQDQ01  00002PRCP06
0128153100999992000010207004+45500+028020FM-12+007299999V0209999C000012200019N0060001N1-00691+99999999999ADDAY101999AY201999GA1001+999999999GF100991001001999999001001MW1101REMSYN052AAXX  02071 15310 41956 00000 11069 71000 333 92611;
0201153100999992000010209004+45500+028020FM-12+007299999V0203601N001019999999N0060001N1-00601-00711102741ADDAA106000091AY111031AY211031GF105991051001999999031001MA1999999101821MD1210151+9999MW1101REMSYN082AAXX  02091 15310 31956 53601 11060 21071 30182 40274 52015 71011 85030 333 92611;EQDQ01  00002PRCP06
0196153100999992000010212004+45500+028020FM-12+007299999V0203601N001010360019N0100001N1-00381-00711102691ADDAA106000091AJ100279199999999GF107991041051008001071001IA1249MA1999999101781MD1810041+9999REMSYN076AAXX  02121 15310 32560 73601 11038 21071 30178 40269 58004 84570 333 48027;EQDQ01  00002PRCP06
0080153100999992000010214004+45500+028020FM-12+007299999V0200201N001010360019N0100001N1-00361+99999999999ADDGF107991041051008001071001REMSYN042AAXX  02141 15310 42560 70201 11036 84570;
0163153100999992000010215004+45500+028020FM-12+007299999V0200201N001010360019N0100001N1-00441-00711102711ADDAA106000091GF107991041051008001071001MA1999999101801MD1310021+9999REMSYN066AAXX  02151 15310 32560 70201 11044 21071 30180 40271 53002 84570;EQDQ01  00002PRCP06
0080153100999992000010216004+45500+028020FM-12+007299999V0200501N002010360019N0100001N1-00471+99999999999ADDGF106991031051008001071001REMSYN042AAXX  02161 15310 42560 60502 11047 83570;
0080153100999992000010217004+45500+028020FM-12+007299999V0209999C000010360019N0100001N1-00431+99999999999ADDGF108991031051008001071999REMSYN042AAXX  02171 15310 42560 80000 11043 8357/;
0227153100999992000010218004+45500+028020FM-12+007299999V0209999C000010360019N0100001N1-00461-00661102831ADDAA106000091AJ100269199999999GF108991031051008001071999IA1249KA1120M-00221MA1999999101921MD1210121+9999REMSYN094AAXX  02181 15310 32560 80000 11046 21066 30192 40283 52012 8357/ 333 11022 3/000 48026 92833;EQDQ01  00002PRCP06
0080153100999992000010219004+45500+028020FM-12+007299999V0209999C000010360019N0100001N1-00541+99999999999ADDGF108991041051008001071999REMSYN042AAXX  02191 15310 42560 80000 11054 8457/;
0080153100999992000010220004+45500+028020FM-12+007299999V0209999C000010360019N0100001N1-00611+99999999999ADDGF108991041051008001071999REMSYN042AAXX  02201 15310 42560 80000 11061 8457/;
0173153100999992000010221004+45500+028020FM-12+007299999V0209999C000010360019N0100001N1-00581-00731102901ADDAA106000091GF108991041051008001071999MA1999999101991MD1210071+9999REMSYN076AAXX  02211 15310 32560 80000 11058 21073 30199 40290 52007 8457/ 333 55009;EQDQ01  00002PRCP06
0080153100999992000010222004+45500+028020FM-12+007299999V0209999C000010075019N0100001N1-00491+99999999999ADDGF108991061051008001071999REMSYN042AAXX  02221 15310 42560 80000 11049 8657/;
0080153100999992000010223004+45500+028020FM-12+007299999V0209999C000010075019N0100001N1-00511+99999999999ADDGF108991061051008001071999REMSYN042AAXX  02231 15310 42560 80000 11051 8657/;
0196153100999992000010300004+45500+028020FM-12+007299999V0209999C000010075019N0100001N1-00471-00601102861ADDAA106000091AJ100269199999999GF108991061051008001071999IA1249MA1999999101951MD1810041+9999REMSYN076AAXX  03001 15310 32560 80000 11047 21060 30195 40286 58004 8657/ 333 48026;EQDQ01  00002PRCP06
0191153100999992000010301004+45500+028020FM-12+007299999V0209999C000010075019N0100001N1+99999+99999102861ADDAA106000091AJ100269199999999GF108991061051008001071999IA1249MD1810041+9999REMSYN070AAXX  03011 15310 32560 80000 21060 38195 40286 58004 8657/ 333 48026;EQDQ01+081953APOSP Q02  00002PRCP06
0080153100999992000010302004+45500+028020FM-12+007299999V0200501N001010075019N0100001N1-00491+99999999999ADDGF108991051051008001071999REMSYN042AAXX  03021 15310 42560 80501 11049 8557/;
0163153100999992000010303004+45500+028020FM-12+007299999V0200501N001010075019N0100001N1-00371-00551102871ADDAA106000091GF108991061051008001071999MA1999999101961MD1310011+9999REMSYN066AAXX  03031 15310 32560 80501 11037 21055 30196 40287 53001 8657/;EQDQ01  00002PRCP06
0080153100999992000010304004+45500+028020FM-12+007299999V0209999C000010360019N0100001N1-00351+99999999999ADDGF108991031051008001071999REMSYN042AAXX  03041 15310 42560 80000 11035 8357/;
0080153100999992000010305004+45500+028020FM-12+007299999V0209999C000010075019N0100001N1-00401+99999999999ADDGF108991051051008001071999REMSYN042AAXX  03051 15310 42560 80000 11040 8557/;
0239153100999992000010306004+45500+028020FM-12+007299999V0209999C000010075019N0100001N1-00461-00591102861ADDAA106000091AJ100269199999999GF108991051051008001071999IA1249IA2120-01009KA1120N-00641MA1999999101951MD1810011+9999REMSYN094AAXX  03061 15310 32560 80000 11046 21059 30195 40286 58001 8557/ 333 21064 3/110 48026 92833;EQDQ01  00002PRCP06
0080153100999992000010307004+45500+028020FM-12+007299999V0209999C000010075019N0100001N1-00401+99999999999ADDGF106991061051008001001001REMSYN042AAXX  03071 15310 42560 60000 11040 86500;
0045153100999992000010308004+45500+028020FM-12+007299999V02099999999999999999N0100001N1+99999+99999999999REMSYN036AAXX  03081 15310 42560 /0/00 3/500;
0163153100999992000010309004+45500+028020FM-12+007299999V0209999C000010075019N0100001N1-00241-00461102811ADDAA106000091GF106991061051008001001001MA1999999101911MD1810041+9999REMSYN066AAXX  03091 15310 32560 60000 11024 21046 30191 40281 58004 86500;EQDQ01  00002PRCP06
0206153100999992000010312004+45500+028020FM-12+007299999V0202701N001012200019N0100001N1-00181-00751102561ADDAA106000091AJ100249199999999GA1001+999999999GF100991001001999999001001IA1249MA1999999101661MD1710251+9999REMSYN070AAXX  03121 15310 32960 02701 11018 21075 30166 40256 57025 333 48024;EQDQ01  00002PRCP06
0168153100999992000010315004+45500+028020FM-12+007299999V0202301N005019999999N0060001N1-00511-00721102411ADDAA106000091GF107991999999999999999999MA1999999101501MD1710161+9999REMSYN071AAXX  03151 15310 31956 72305 11051 21072 30150 40241 57016 7011 87070;EQDQ01  00002PRCP06
0108153100999992000010316004+45500+028020FM-12+007299999V0202301N004019999999N0060001N1-00661+99999999999ADDAY121999AY221999GF106991061001999999071001MW1101REMSYN048AAXX  03161 15310 41956 62304 11066 71022 86070;
0108153100999992000010317004+45500+028020FM-12+007299999V0202301N005019999999N0060001N1-00691+99999999999ADDAY121999AY221999GF107991071001999999071001MW1101REMSYN048AAXX  03171 15310 41956 72305 11069 71022 87070;
0255153100999992000010318004+45500+028020FM-12+007299999V0202301N005010075019N0060001N1-00721-00721102301ADDAA106000091AJ100229199999999AY111061AY211061GF108991051051008001071999IA1249KA1120M-00061MA1999999101391MD1710111+9999MW1101REMSYN100AAXX  03181 15310 31556 82305 11072 21072 30139 40230 57011 71011 8557/ 333 11006 3/002 48022 92833;EQDQ01  00002PRCP06
0108153100999992000010319004+45500+028020FM-12+007299999V0202501N005010075019N0060001N1-00691+99999999999ADDAY121011AY221011GF108991051051008001071999MW1101REMSYN048AAXX  03191 15310 41556 82505 11069 71022 8557/;
0108153100999992000010320004+45500+028020FM-12+007299999V0202301N006010360019N0080001N1-00681+99999999999ADDAY121999AY221999GF108991041051008001071999MW1101REMSYN048AAXX  03201 15310 41558 82306 11068 71022 8457/;
0194153100999992000010321004+45500+028020FM-12+007299999V0202301N005010075019N0060001N1-00681-00761102251ADDAA103999929AY121031AY221031GF108991061051008001071999MA1999999101341MD1710051+9999MW1711REMSYN094AAXX  03211 15310 21556 82305 11068 21076 30134 40225 57005 77122 8657/ 333 55049 69907 96010;
0118153100999992000010323004+45500+028020FM-12+007299999V0202501N002010075019N0080001N1-00651+99999999999ADDAY171999AY271999GF108991081051008001999999MW1221REMSYN058AAXX  03231 15310 41558 82502 11065 72277 885// 333 96010;
0217153100999992000010400004+45500+028020FM-12+007299999V0202501N002010075019N0080001N1-00601-00681102251ADDAA103000391AJ100229199999999AY171061AY221061GF108991081051008001999999IA1249MA1999999101341MD1410001+9999MW1101REMSYN094AAXX  04001 15310 /1558 82502 11060 21068 30134 40225 54000 69931 71072 885// 333 48022 69937;
0118153100999992000010401004+45500+028020FM-12+007299999V0202701N002010075019N0080001N1+99999+99999999999ADDAY121999AY221999GF108991081051008001999999MW1711REMSYN058AAXX  04011 15310 41558 82702 11/60 77122 885// 333 96010;
0118153100999992000010402004+45500+028020FM-12+007299999V0202901N002010075019N0080001N1-00581+99999999999ADDAY171999AY221999GF108991081051008001999999MW1221REMSYN058AAXX  04021 15310 41558 82902 11058 72272 885// 333 96010;
0182153100999992000010403004+45500+028020FM-12+007299999V0202501N003010075019N0080001N1-00551-00621102261ADDAA103000791AY171031AY221031GF108991081051008001999999MA1999999101351MD1310011+9999MW1101REMSYN082AAXX  04031 15310 21558 82503 11055 21062 30135 40226 53001 71072 885// 333 69907;
0264153100999992000010406004+45500+028020FM-12+007299999V0202701N001010075019N0080001N1-00461-00551102231ADDAA112000391AJ100239199999999AY171061AY221061GF108991081051008001999999IA1249IA2120-00809KA1120N-00741MA1999999101331MD1810021+9999MW1101REMSYN116AAXX  04061 15310 11558 82701 11046 21055 30133 40223 58002 69932 71072 885// 333 21074 3/108 48023 92823 555 60003;
0191153100999992000010409004+45500+028020FM-12+007299999V0209999C000010042019N0040001N1-00221-00471102461ADDAA106000091AY121031AY221031GF108991081061004501999999MA1999999101561MD1310231+9999MW1101REMSYN072AAXX  04091 15310 31440 80000 11022 21047 30156 40246 53023 71022 886//;EQDQ01  00002PRCP06
0224153100999992000010412004+45500+028020FM-12+007299999V0209999C000010075019N0040001N1+00001-00301102371ADDAA106000091AJ100219199999999AY121061AY221061GF106991061051008001001001IA1289MA1999999101491MD1810071+9999MW1101REMSYN082AAXX  04121 15310 31540 60000 10000 21030 30149 40237 58007 71022 86500 333 44021;EQDQ01  00002PRCP06
0191153100999992000010415004+45500+028020FM-12+007299999V0209999C000010360019N0040001N1-00181-00341102361ADDAA106000091AY121031AY221031GF105991021051008001031001MA1999999101471MD1610021+9999MW1101REMSYN072AAXX  04151 15310 31540 50000 11018 21034 30147 40236 56002 71022 82530;EQDQ01  00002PRCP06
0255153100999992000010418004+45500+028020FM-12+007299999V0209999C000012200019N0040001N1-00351-00401102361ADDAA106000091AJ100209199999999AY111061AY211061GF102991021001999999031001IA1289KA1120M+00021MA1999999101461MD1810011+9999MW1101REMSYN100AAXX  04181 15310 31940 20000 11035 21040 30146 40236 58001 71011 82030 333 10002 3/001 44020 92833;EQDQ01  00002PRCP06
0207153100999992000010421004+45500+028020FM-12+007299999V0201801N002012200019N0020001N1-00401-00451102361ADDAA106000091AY111031AY211031GF104991041001999999071001MA1999999101461MD1410001+9999MW1101REMSYN088AAXX  04211 15310 31920 41802 11040 21045 30146 40236 54000 71011 84070 333 55011 92600;EQDQ01  00002PRCP06
0128153100999992000010422004+45500+028020FM-12+007299999V0201801N001012200019N0020001N1-00461+99999999999ADDAY101999AY201999GA1001+999999999GF100991001001999999001001MW1101REMSYN052AAXX  04221 15310 41920 01801 11046 71000 333 92600;
0240153100999992000010500004+45500+028020FM-12+007299999V0201801N002012200019N0010001N1-00521-00551102251ADDAA106000091AJ100209199999999AY111061AY211061GA1001+999999999GF100991001001999999001001IA1289MA1999999101351MD1810111+9999MW1101REMSYN082AAXX  05001 15310 31910 01802 11052 21055 30135 40225 58011 71011 333 44020 92600;EQDQ01  00002PRCP06
0118153100999992000010502004+45500+028020FM-12+007299999V0201101N001010042019N0002001N1-00751+99999999999ADDAY141999AY241999GF108991081061004501999999MW1481REMSYN058AAXX  05021 15310 41402 81101 11075 74844 886// 333 92712;
0201153100999992000010503004+45500+028020FM-12+007299999V0209999C000010042019N0001001N1-00701-00701102141ADDAA106000091AY111031AY211031GF108991081061004501999999MA1999999101231MD1710121+9999MW1481REMSYN082AAXX  05031 15310 31401 80000 11070 21070 30123 40214 57012 74811 886// 333 92712;EQDQ01  00002PRCP06
0118153100999992000010504004+45500+028020FM-12+007299999V0201401N001010042019N0002001N1-00721+99999999999ADDAY141999AY241999GF108991081061004501999999MW1481REMSYN058AAXX  05041 15310 41402 81401 11072 74844 886// 333 92712;
0283153100999992000010506004+45500+028020FM-12+007299999V0209999C000010042019N0001001N1-00741-00741102141ADDAA106000091AJ100209199999999AY111061AY211061GF108991081061004501999999IA1289IA2120-01509KA1120N-00801MA1999999101231MD1410001+9999MW1481REMSYN116AAXX  05061 15310 31401 80000 11074 21074 30123 40214 54000 74811 886// 333 21080 3/115 44020 92713 92833 555 10019;EQDQ01  00002PRCP06
0264153100999992000010507004+45500+028020FM-12+007299999V0209999C000010042019N0001001N1+99999+99999999999ADDAA106000021AJ100209199999999AY111999AY211999GF108991081061004501999999IA1289IA2999-01509MA1999999101231MD1410001+9999MW1681REMSYN110AAXX  05071 15310 31401 80000 11574 21074 30123 4//14 54000 76811 886// 333 3/115 44020 9271/ 92833 555 10019;EQDQ01-005743ATOT  
0182153100999992000010509004+45500+028020FM-12+007299999V0202001N003010042019N0001001N1-00701-00701102141ADDAA106000021AY141031AY241031GF108991081061004501999999MA1999999101231MD1410001+9999MW1481REMSYN082AAXX  05091 15310 31401 82003 11070 21070 30123 40214 54000 74844 886// 333 92712;
0223153100999992000010512004+45500+028020FM-12+007299999V0201801N001010360019N0010001N1-00441-00441102031ADDAA106000021AJ100209199999999AY141061AY221061GF106991021061004501031001IA1289MA1999999101131MD1810101+9999MW1281REMSYN100AAXX  05121 15310 31410 61801 11044 21044 30113 40203 58010 72842 82630 333 44020 92712 93514 96010;
0201153100999992000010515004+45500+028020FM-12+007299999V0202701N003012200019N0020001N1-00861-00861102001ADDAA106000091AY111031AY211031GF104991021001999999031011MA1999999101091MD1710041+9999MW1101REMSYN082AAXX  05151 15310 31920 42703 11086 21086 30109 40200 57004 71011 82031 333 92713;EQDQ01  00002PRCP06
0118153100999992000010516004+45500+028020FM-12+007299999V0202301N002019999999N0020001N1-00861+99999999999ADDAY111999AY211999GF107991011001999999031061MW1101REMSYN058AAXX  05161 15310 41920 72302 11086 71011 81036 333 92710;
0239153100999992000010518004+45500+028020FM-12+007299999V0209999C000019999999N0020001N1-00981-01011102101ADDAA106000091AJ100209199999999GF107991001001999999001081IA1289KA1120M-00361MA1999999101181MD1310091+9999REMSYN106AAXX  05181 15310 31920 70000 11098 21101 30118 40210 53009 80008 333 11036 3/101 44020 92600 92717 92833;EQDQ01  00002PRCP06
0124153100999992000010519004+45500+028020FM-12+007299999V0202301N001019999999N0010001N1-00851+99999999999ADDAY121999AY221999GF108991081001999999071999MW1101REMSYN064AAXX  05191 15310 41910 82301 11085 71022 8807/ 333 92600 92717;
0124153100999992000010520004+45500+028020FM-12+007299999V0209999C000019999999N0008001N1-00801+99999999999ADDAY121999AY221999GF107991001001999999001081MW1481REMSYN064AAXX  05201 15310 41908 70000 11080 74822 80008 333 92600 92712;
0201153100999992000010521004+45500+028020FM-12+007299999V0202701N001019999999N0005001N1-00801+99999102131ADDAA106000091AY121031AY221031GF108991999999004501999999MA1999999101221MD1110041+9999MW1481REMSYN082AAXX  05211 15310 31405 82701 11080 30122 40213 51004 74822 333 55000 92600 92712;EQDQ01  00002PRCP06
0124153100999992000010522004+45500+028020FM-12+007299999V0209999C000010042019N0005001N1-00781+99999999999ADDAY141999AY241999GF108991081061004501999999MW1481REMSYN064AAXX  05221 15310 41405 80000 11078 74844 886// 333 92600 92712;
0124153100999992000010601004+45500+028020FM-12+007299999V0209999C000010075019N0010001N1-00641+99999999999ADDAY171999AY271999GF108991081001008001021999MW1731REMSYN064AAXX  06011 15310 41510 80000 11064 77377 8802/ 333 92717 96010;
0108153100999992000010602004+45500+028020FM-12+007299999V0209999C000010075019N0010001N1-00641+99999999999ADDGF108991081001008001021999MW1731REMSYN064AAXX  06021 15310 41510 80000 11064 773// 8802/ 333 524/8 96010;
0194153100999992000010603004+45500+028020FM-12+007299999V0202901N001010075019N0010001N1-00561-00601102031ADDAA103002091AY141031AY241031GF108991081001008001021999MA1999999101131MD1710051+9999MW1731REMSYN094AAXX  06031 15310 21510 82901 11056 21060 30113 40203 57005 77344 8802/ 333 60027 92717 96010;
0108153100999992000010604004+45500+028020FM-12+007299999V0202701N001019999999N0010001N1-00541+99999999999ADDAY171999AY281999GF108991999999008001999999MW1711REMSYN048AAXX  06041 15310 41510 82701 11054 77178 96010;
0288153100999992000010606004+45500+028020FM-12+007299999V0202701N002019999999N0010001N1-00461-00491102031ADDAA103000791AJ100229199999999AY171061AY241061GF108991081001999999071999IA1249IA2120-01409KA1120N-01041MA1999999101131MD1410001+9999MW1221REMSYN140AAXX  06061 15310 /1910 82702 11046 21049 30113 40203 54000 60022 72274 8807/ 333 21104 3/114 48022 69977 92717 92813 93503 96010 555 60022;
0288153100999992000010607004+45500+028020FM-12+007299999V0202701N002019999999N0010001N1-00461-00491102031ADDAA103000791AJ100229199999999AY171999AY241999GF108991081001999999071999IA1249IA2999-01409KA1120N-01041MA1999999101131MD1410001+9999MW1221REMSYN140AAXX  06071 15310 /1910 82702 11046 21049 30113 40203 54000 60022 72274 8807/ 333 21104 3/114 48022 69977 92717 92813 93503 96010 555 60022;
0182153100999992000010609004+45500+028020FM-12+007299999V0202701N001019999999N0010001N1-00321-00321102101ADDAA106000021AY121031AY221031GF108991081001999999071999MA1999999101201MD1310071+9999MW1101REMSYN082AAXX  06091 15310 31910 82701 11032 21032 30120 40210 53007 71022 8807/ 333 92712;
0205153100999992000010612004+45500+028020FM-12+007299999V0202701N001010360019N0030001N1+00171+00061102081ADDAA106000021AJ100229199999999AY121061AY221061GF108991031051012501021999IA1289MA1999999101221MD1210021+9999MW1101REMSYN082AAXX  06121 15310 31630 82701 10017 20006 30122 40208 52002 71022 8352/ 333 44022;
0191153100999992000010615004+45500+028020FM-12+007299999V0203601N003019999999N0040001N1+00081+00031102191ADDAA106000091AY121031AY221031GF108991081001999999071999MA1999999101301MD1210081+9999MW1101REMSYN072AAXX  06151 15310 31940 83603 10008 20003 30130 40219 52008 71022 8807/;EQDQ01  00002PRCP06
0118153100999992000010616004+45500+028020FM-12+007299999V0203601N003010075019N0060001N1+00041+99999999999ADDAY121999AY221999GF108991081001008001021999MW1711REMSYN058AAXX  06161 15310 41556 83603 10004 77122 8802/ 333 96010;
0118153100999992000010617004+45500+028020FM-12+007299999V0203601N003010075019N0080001N1+00041+99999999999ADDAY171999AY271999GF108991081001008001021999MW1711REMSYN058AAXX  06171 15310 41558 83603 10004 77177 8802/ 333 96010;
0254153100999992000010618004+45500+028020FM-12+007299999V0203601N003010075019N0080001N1+00041+00041102251ADDAA103000391AJ100219199999999AY121061AY221061GF108991081001008001021999IA1289KA1120M+00241MA1999999101371MD1210071+9999MW1711REMSYN118AAXX  06181 15310 /1558 83603 10004 20004 30137 40225 52007 69932 77122 8802/ 333 10024 3/002 44021 69937 92813 96010;
0096153100999992000010619004+45500+028020FM-12+007299999V0203601N004010075019N0060001N1+00041+99999999999ADDGF108991081001008001021999REMSYN058AAXX  06191 15310 4/556 83604 10004 77177 8802/ 333 96010;
0118153100999992000010620004+45500+028020FM-12+007299999V0203601N005010075019N0060001N1+00061+99999999999ADDAY171999AY271999GF108991081001008001021999MW1711REMSYN058AAXX  06201 15310 41556 83605 10006 77177 8802/ 333 96010;
0194153100999992000010621004+45500+028020FM-12+007299999V0200201N004010075019N0040001N1+00021+00021102431ADDAA103001091AY171031AY271031GF108991081001008001021999MA1999999101541MD1210171+9999MW1711REMSYN094AAXX  06211 15310 21540 80204 10002 20002 30154 40243 52017 77177 8802/ 333 55000 60017 96010;
0118153100999992000010622004+45500+028020FM-12+007299999V0200201N005010075019N0040001N1+00031+99999999999ADDAY171999AY271999GF108991081001008001021999MW1221REMSYN058AAXX  06221 15310 41540 80205 10003 72277 8802/ 333 96010;
0108153100999992000010623004+45500+028020FM-12+007299999V0200201N004010075019N0040001N1+00031+99999999999ADDAY121999AY221999GF108991081001008001021999MW1101REMSYN048AAXX  06231 15310 41540 80204 10003 71022 8802/;
0217153100999992000010700004+45500+028020FM-12+007299999V0200201N004010075019N0040001N1+00031+00031102521ADDAA103000791AJ100219199999999AY171061AY271061GF108991081001008001021999IA1289MA1999999101631MD1210091+9999MW1101REMSYN094AAXX  07001 15310 /1540 80204 10003 20003 30163 40252 52009 60011 71077 8802/ 333 44021 69907;
0108153100999992000010702004+45500+028020FM-12+007299999V0200201N005010075019N0040001N1+00061+99999999999ADDAY121999AY221999GF108991081001008001021999MW1101REMSYN048AAXX  07021 15310 41540 80205 10006 71022 8802/;
0172153100999992000010703004+45500+028020FM-12+007299999V0200201N005010075019N0060001N1+00061+00061102591ADDAA106000021AY121031AY221031GF108991081001008001021999MA1999999101701MD1210071+9999MW1101REMSYN072AAXX  07031 15310 31556 80205 10006 20006 30170 40259 52007 71022 8802/;
0080153100999992000010704004+45500+028020FM-12+007299999V0200201N005010075019N0100001N1+00081+99999999999ADDGF108991081051008001999999REMSYN042AAXX  07041 15310 42560 80205 10008 885//;
0236153100999992000010706004+45500+028020FM-12+007299999V0200201N004010075019N0100001N1+00061+00061102711ADDAA112001091AJ100219199999999GF108991081051008001999999IA1289IA2120-00109KA1120N+00001MA1999999101821MD1210121+9999REMSYN110AAXX  07061 15310 12560 80204 10006 20006 30182 40271 52012 60012 885// 333 20000 3/101 44021 92813 555 60013;
0191153100999992000010709004+45500+028020FM-12+007299999V0200501N002010075019N0060001N1+00091+00061102731ADDAA106000091AY121031AY221031GF108991081061008001999999MA1999999101841MD1210021+9999MW1101REMSYN072AAXX  07091 15310 31556 80502 10009 20006 30184 40273 52002 71022 886//;EQDQ01  00002PRCP06
0224153100999992000010712004+45500+028020FM-12+007299999V0203601N001010075019N0080001N1+00181+00101102731ADDAA106000091AJ100219199999999AY121061AY221061GF108991081051008001999999IA1289MA1999999101841MD1410001+9999MW1101REMSYN082AAXX  07121 15310 31558 83601 10018 20010 30184 40273 54000 71022 885// 333 44021;EQDQ01  00002PRCP06
0108153100999992000010714004+45500+028020FM-12+007299999V0200201N002010075019N0080001N1+00131+99999999999ADDAY121999AY221999GF108991081051008001999999MW1101REMSYN048AAXX  07141 15310 42558 80202 10013 71022 885//;
0191153100999992000010715004+45500+028020FM-12+007299999V0200201N002010075019N0080001N1+00131+00101102751ADDAA106000091AY121031AY221031GF108991081051008001999999MA1999999101861MD1310021+9999MW1101REMSYN072AAXX  07151 15310 31558 80202 10013 20010 30186 40275 53002 71022 885//;EQDQ01  00002PRCP06
0108153100999992000010716004+45500+028020FM-12+007299999V0200201N002010075019N0080001N1+00061+99999999999ADDAY121999AY221999GF108991081051008001999999MW1101REMSYN048AAXX  07161 15310 41558 80202 10006 71022 885//;
0080153100999992000010717004+45500+028020FM-12+007299999V0200201N003019999999N0100001N1+00041+99999999999ADDGF107991071001008001071001REMSYN042AAXX  07171 15310 42560 70203 10004 87070;
0227153100999992000010718004+45500+028020FM-12+007299999V0200201N003010075019N0100001N1+00021+00021102811ADDAA106000091AJ100219199999999GF107991071051008001001001IA1289KA1120M+00211MA1999999101921MD1210061+9999REMSYN094AAXX  07181 15310 32560 70203 10002 20002 30192 40281 52006 87500 333 10021 3/001 44021 92843;EQDQ01  00002PRCP06
0080153100999992000010719004+45500+028020FM-12+007299999V0203601N001010075019N0100001N1+00041+99999999999ADDGF108991051051008001021999REMSYN042AAXX  07191 15310 42560 83601 10004 8552/;
0163153100999992000010721004+45500+028020FM-12+007299999V0203201N001010360019N0100001N1+00041+00041102891ADDAA106000091GF108991031051012501021999MA1999999101991MD1210071+9999REMSYN066AAXX  07211 15310 32660 83201 10004 20004 30199 40289 52007 8352/;EQDQ01  00002PRCP06
0080153100999992000010722004+45500+028020FM-12+007299999V0209999C000010360019N0100001N1+00021+99999999999ADDGF108991031051012501021999REMSYN042AAXX  07221 15310 42660 80000 10002 8352/;
0080153100999992000010723004+45500+028020FM-12+007299999V0203601N001010360019N0100001N1+00001+99999999999ADDGF107991031051012501071001REMSYN042AAXX  07231 15310 42660 73601 10000 83570;
0224153100999992000010800004+45500+028020FM-12+007299999V0203601N001010075019N0080001N1-00021-00021102911ADDAA106000091AJ100219199999999AY121061AY221061GF108991081061008001999999IA1289MA1999999102011MD1010021+9999MW1101REMSYN082AAXX  08001 15310 31558 83601 11002 21002 30201 40291 50002 71022 886// 333 44021;EQDQ01  00002PRCP06
0108153100999992000010801004+45500+028020FM-12+007299999V0200201N003010042019N0040001N1-00061+99999999999ADDAY121999AY221999GF108991081061004501999999MW1101REMSYN048AAXX  08011 15310 41440 80203 11006 71022 886//;
0191153100999992000010803004+45500+028020FM-12+007299999V0203601N003010042019N0020001N1-00081-00081102871ADDAA106000091AY121031AY221031GF108991081061004501999999MA1999999101971MD1710041+9999MW1101REMSYN072AAXX  08031 15310 31420 83603 11008 21008 30197 40287 57004 71022 886//;EQDQ01  00002PRCP06
0267153100999992000010806004+45500+028020FM-12+007299999V0200201N003010042019N0008001N1-00111-00111102901ADDAA106000091AJ100219199999999AY141061AY221061GF108991081061004501999999IA1289IA2120-00209KA1120N-00121MA1999999102001MD1310031+9999MW1441REMSYN100AAXX  08061 15310 31408 80203 11011 21011 30200 40290 53003 74442 886// 333 21012 3/102 44021 92843;EQDQ01  00002PRCP06
0207153100999992000010809004+45500+028020FM-12+007299999V0209999C000010021019N0003001N1-00061-00061102921ADDAA106000091AY141031AY241031GF108991081061002501999999MA1999999102021MD1310021+9999MW1441REMSYN088AAXX  08091 15310 31303 80000 11006 21006 30202 40292 53002 74444 886// 333 92717 93502;EQDQ01  00002PRCP06
0236153100999992000010812004+45500+028020FM-12+007299999V0200501N003010021019N0005001N1-00101-00101102911ADDAA106000091AJ100219199999999AY141061AY241061GF108991081061002501999999IA1289MA1999999102011MD1610011+9999MW1441REMSYN094AAXX  08121 15310 31305 80503 11010 21010 30201 40291 56001 74444 886// 333 44021 92717 93502;EQDQ01  00002PRCP06
0201153100999992000010815004+45500+028020FM-12+007299999V0209999C000010021019N0005001N1-00121-00121102911ADDAA106000091AY141031AY241031GF108991081061002501999999MA1999999102011MD1510001+9999MW1441REMSYN082AAXX  08151 15310 31305 80000 11012 21012 30201 40291 55000 74444 886// 333 92717;EQDQ01  00002PRCP06
0118153100999992000010817004+45500+028020FM-12+007299999V0200201N001010021019N0005001N1-00161+99999999999ADDAY141999AY241999GF108991081061002501999999MW1441REMSYN058AAXX  08171 15310 41305 80201 11016 74444 886// 333 92717;
0261153100999992000010818004+45500+028020FM-12+007299999V0200201N001010021019N0005001N1-00161-00161102911ADDAA106000091AJ100219199999999AY141061AY241061GF108991081061002501999999IA1289KA1120M+00001MA1999999102011MD1410001+9999MW1441REMSYN106AAXX  08181 15310 31305 80201 11016 21016 30201 40291 54000 74444 886// 333 10000 3/001 44021 92717 92843;EQDQ01  00002PRCP06
0118153100999992000010819004+45500+028020FM-12+007299999V0200201N001010021019N0005001N1-00171+99999999999ADDAY141999AY241999GF108991081061002501999999MW1441REMSYN058AAXX  08191 15310 41305 80201 11017 74444 886// 333 92717;
0118153100999992000010820004+45500+028020FM-12+007299999V0209999C000010021019N0005001N1-00171+99999999999ADDAY141999AY241999GF108991081061002501999999MW1441REMSYN058AAXX  08201 15310 41305 80000 11017 74444 886// 333 92717;
0207153100999992000010821004+45500+028020FM-12+007299999V0209999C000010021019N0005001N1-00181-00181102931ADDAA106000091AY141031AY241031GF108991081061002501999999MA1999999102031MD1310021+9999MW1441REMSYN088AAXX  08211 15310 31305 80000 11018 21018 30203 40293 53002 74444 886// 333 55000 92717;EQDQ01  00002PRCP06
0124153100999992000010822004+45500+028020FM-12+007299999V0209999C000010042019N0020001N1-00201+99999999999ADDAY141999AY241999GF108991081061004501999999MW1281REMSYN064AAXX  08221 15310 41420 80000 11020 72844 886// 333 92717 96010;
0230153100999992000010900004+45500+028020FM-12+007299999V0203601N002010042019N0030001N1-00241-00241102931ADDAA106000091AJ100219199999999AY121061AY221061GF108991081061004501999999IA1289MA1999999102031MD1410001+9999MW1101REMSYN088AAXX  09001 15310 31430 83602 11024 21024 30203 40293 54000 71022 886// 333 44021 92717;EQDQ01  00002PRCP06
0201153100999992000010903004+45500+028020FM-12+007299999V0200501N002010042019N0030001N1-00261-00261102931ADDAA106000091AY121031AY221031GF108991081061004501999999MA1999999102031MD1410001+9999MW1101REMSYN082AAXX  09031 15310 31430 80502 11026 21026 30203 40293 54000 71022 886// 333 92717;EQDQ01  00002PRCP06
0251153100999992000010907004+45500+028020FM-12+007299999V0200901N001010042019N0040001N1-00221+99999999999ADDAA106000091AJ100219199999999AY101999AY201999GF108991081061004501999999IA1289MA1999999102031MD1410001+9999ME1312939MW1001REMSYN100AAXX  09071 15310 31440 80901 11022 2102/ 30203 48293 540/0 70000 886// 333 21/28 3103/ 44021 9717/;EQDQ01  00002PRCP06
0195153100999992000010909004+45500+028020FM-12+007299999V0200701N002010042019N0040001N1-00221-00221999999ADDAA106000091AY121031AY221031GF108991081061004501999999MA1999999102071MD1310041+9999MW1101REMSYN076AAXX  09091 15310 31440 80702 11022 21022 30207 53004 71022 886// 333 92717;EQDQ01  00002PRCP06
0230153100999992000010912004+45500+028020FM-12+007299999V0202501N001010042019N0020001N1-00161-00161102911ADDAA106000091AJ100219199999999AY121061AY221061GF108991081061004501999999IA1289MA1999999102011MD1810061+9999MW1101REMSYN088AAXX  09121 15310 31420 82501 11016 21016 30201 40291 58006 71022 886// 333 44021 92717;EQDQ01  00002PRCP06
0201153100999992000010915004+45500+028020FM-12+007299999V0209999C000010042019N0030001N1-00241-00271102901ADDAA106000091AY121031AY221031GF108991081061004501999999MA1999999102001MD1610011+9999MW1101REMSYN082AAXX  09151 15310 31430 80000 11024 21027 30200 40290 56001 71022 886// 333 92717;EQDQ01  00002PRCP06
0118153100999992000010916004+45500+028020FM-12+007299999V0209999C000010042019N0030001N1-00251+99999999999ADDAY121999AY221999GF108991081061004501999999MW1101REMSYN058AAXX  09161 15310 41430 80000 11025 71022 886// 333 92717;
0261153100999992000010918004+45500+028020FM-12+007299999V0202301N002010042019N0030001N1-00291-00391102891ADDAA106000091AJ100199199999999AY121061AY221061GF108991081061004501999999IA1289KA1120M-00111MA1999999101991MD1610011+9999MW1101REMSYN106AAXX  09181 15310 31430 82302 11029 21039 30199 40289 56001 71022 886// 333 11011 3/000 44019 92717 92863;EQDQ01  00002PRCP06
0118153100999992000010919004+45500+028020FM-12+007299999V0202301N001010042019N0030001N1-00301+99999999999ADDAY121999AY221999GF108991081061004501999999MW1101REMSYN058AAXX  09191 15310 41430 82301 11030 71022 886// 333 92717;
0118153100999992000010920004+45500+028020FM-12+007299999V0202301N001010042019N0020001N1-00271+99999999999ADDAY121999AY221999GF108991081061004501999999MW1101REMSYN058AAXX  09201 15310 41420 82301 11027 71022 886// 333 92717;
0201153100999992000010921004+45500+028020FM-12+007299999V0209999C000010042019N0020001N1-00331-00371102931ADDAA106000091AY121031AY221031GF108991081061004501999999MA1999999102021MD1110031+9999MW1101REMSYN082AAXX  09211 15310 31420 80000 11033 21037 30202 40293 51003 71022 886// 333 92717;EQDQ01  00002PRCP06
0118153100999992000010922004+45500+028020FM-12+007299999V0209999C000010042019N0020001N1-00311+99999999999ADDAY121999AY221999GF108991081061004501999999MW1101REMSYN058AAXX  09221 15310 41420 80000 11031 71022 886// 333 92717;
0118153100999992000010923004+45500+028020FM-12+007299999V0209999C000010042019N0020001N1-00331+99999999999ADDAY121999AY221999GF108991081061004501999999MW1101REMSYN058AAXX  09231 15310 41420 80000 11033 71022 886// 333 92717;
0230153100999992000011000004+45500+028020FM-12+007299999V0202301N002010042019N0020001N1-00371-00371102941ADDAA106000091AJ100199199999999AY121061AY221061GF108991081061004501999999IA1289MA1999999102031MD1310011+9999MW1101REMSYN088AAXX  10001 15310 31420 82302 11037 21037 30203 40294 53001 71022 886// 333 44019 92717;EQDQ01  00002PRCP06
0118153100999992000011001004+45500+028020FM-12+007299999V0202301N003010042019N0020001N1-00431+99999999999ADDAY121999AY221999GF108991081061004501999999MW1101REMSYN058AAXX  10011 15310 41420 82303 11043 71022 886// 333 92717;
0118153100999992000011002004+45500+028020FM-12+007299999V0202301N001010042019N0008001N1-00521+99999999999ADDAY121999AY221999GF108991081061004501999999MW1481REMSYN058AAXX  10021 15310 41408 82301 11052 74822 886// 333 92713;
0201153100999992000011003004+45500+028020FM-12+007299999V0202301N002010042019N0008001N1-00551-00551102961ADDAA106000091AY121031AY221031GF108991081061004501999999MA1999999102051MD1110021+9999MW1481REMSYN082AAXX  10031 15310 31408 82302 11055 21055 30205 40296 51002 74822 886// 333 92713;EQDQ01  00002PRCP06
0096153100999992000011004004+45500+028020FM-12+007299999V0202501N001019999999N0008001N1-00581+99999999999ADDGF108991999999004501999999REMSYN058AAXX  10041 15310 41408 82501 11058 774=/ 333 92713 96048;
0118153100999992000011005004+45500+028020FM-12+007299999V0209999C000010042019N0008001N1-00591+99999999999ADDAY171999AY271999GF108991081061004501999999MW1481REMSYN058AAXX  10051 15310 41408 80000 11059 74877 886// 333 92713;
0282153100999992000011006004+45500+028020FM-12+007299999V0202701N001010042019N0008001N1-00581-00581103041ADDAA103000191AJ100199199999999AY171061AY241061GF108991081061004501999999IA1249IA2120-00509KA1120N-00621MA1999999102131MD1310081+9999MW1481REMSYN134AAXX  10061 15310 /1408 82701 11058 21058 30213 40304 53008 69912 74874 886// 333 21062 3/105 48019 69917 92712 92863 555 60001 10028;
0207153100999992000011009004+45500+028020FM-12+007299999V0202501N001010042019N0008001N1-00521-00521103131ADDAA106000091AY141031AY241031GF108991081061004501999999MA1999999102221MD1210091+9999MW1421REMSYN088AAXX  10091 15310 31408 82501 11052 21052 30222 40313 52009 74244 886// 333 92717 93504;EQDQ01  00002PRCP06
0208153100999992000011012004+45500+028020FM-12+007299999V0209999C000010042019N0005001N1-00481-00481103131ADDAA106000091AJ100199199999999GF108991081061004501999999IA1249MA1999999102221MD1410001+9999REMSYN088AAXX  10121 15310 31405 80000 11048 21048 30222 40313 54000 886// 333 48019 92717 93504;EQDQ01  00002PRCP06
0201153100999992000011015004+45500+028020FM-12+007299999V0203201N002010042019N0020001N1-00501-00501103151ADDAA106000091AY141031AY241031GF108991081061004501999999MA1999999102241MD1310021+9999MW1101REMSYN082AAXX  10151 15310 31420 83202 11050 21050 30224 40315 53002 71044 886// 333 92717;EQDQ01  00002PRCP06
0118153100999992000011016004+45500+028020FM-12+007299999V02099999999992200019N0300001N1-00491+99999999999ADDAY131999GA1001+999999999GF100991001001999999001001MW1101REMSYN050AAXX  10161 15310 41480 000// 11049 7103/ 333 921;
0118153100999992000011017004+45500+028020FM-12+007299999V0203201N001010042019N0020001N1-00481+99999999999ADDAY121999AY221999GF108991081061004501999999MW1101REMSYN058AAXX  10171 15310 41420 83201 11048 71022 886// 333 92717;
0261153100999992000011018004+45500+028020FM-12+007299999V0200201N001010042019N0020001N1-00461-00501103261ADDAA106000091AJ100199199999999AY141061AY241061GF108991081061004501999999IA1249KA1120M-00431MA1999999102351MD1210111+9999MW1101REMSYN106AAXX  10181 15310 31420 80201 11046 21050 30235 40326 52011 71044 886// 333 11043 3/101 48019 92717 92863;EQDQ01  00002PRCP06
0118153100999992000011019004+45500+028020FM-12+007299999V0209999C000010042019N0030001N1-00451+99999999999ADDAY121999AY221999GF108991081061004501999999MW1101REMSYN058AAXX  10191 15310 41430 80000 11045 71022 886// 333 92717;
0118153100999992000011020004+45500+028020FM-12+007299999V0203601N002010042019N0030001N1-00441+99999999999ADDAY121999AY221999GF108991081061004501999999MW1101REMSYN058AAXX  10201 15310 41430 83602 11044 71022 886// 333 92717;
0207153100999992000011021004+45500+028020FM-12+007299999V0203601N001010042019N0030001N1-00441-00471103341ADDAA106000091AY121031AY221031GF108991081061004501999999MA1999999102431MD1210081+9999MW1101REMSYN088AAXX  10211 15310 31430 83601 11044 21047 30243 40334 52008 71022 886// 333 55000 92717;EQDQ01  00002PRCP06
0112153100999992000011022004+45500+028020FM-12+007299999V0203601N002010042019N0030001N1+99999+99999999999ADDAY121999AY221999GF108991081061004501999999MW1101REMSYN052AAXX  10221 15310 41430 83602 71022 886// 333 92717;
0118153100999992000011023004+45500+028020FM-12+007299999V0203601N001010042019N0030001N1-00451+99999999999ADDAY121999AY221999GF108991081061004501999999MW1101REMSYN058AAXX  10231 15310 41430 83601 11045 71022 886// 333 92717;
0230153100999992000011100004+45500+028020FM-12+007299999V0209999C000010042019N0020001N1-00411-00441103371ADDAA106000091AJ100199199999999AY121061AY221061GF108991081061004501999999IA1249MA1999999102461MD1110031+9999MW1101REMSYN088AAXX  11001 15310 31420 80000 11041 21044 30246 40337 51003 71022 886// 333 48019 92717;EQDQ01  00002PRCP06
0118153100999992000011101004+45500+028020FM-12+007299999V0209999C000010042019N9999999N1-00401+99999999999ADDAY121999AY221999GF108991081061004501999999MW1101REMSYN058AAXX  11011 15310 4142/ 80000 11040 71022 886// 333 92717;
0118153100999992000011102004+45500+028020FM-12+007299999V0200201N001010042019N0020001N1-00391+99999999999ADDAY121999AY221999GF108991081061004501999999MW1101REMSYN058AAXX  11021 15310 41420 80201 11039 71022 886// 333 92717;
0201153100999992000011103004+45500+028020FM-12+007299999V0209999C000010042019N0020001N1-00401-00401103411ADDAA106000091AY121031AY221031GF108991081061004501999999MA1999999102501MD1310041+9999MW1101REMSYN082AAXX  11031 15310 31420 80000 11040 21040 30250 40341 53004 71022 886// 333 92717;EQDQ01  00002PRCP06
0112153100999992000011104004+45500+028020FM-12+007299999V0209999C000010042019N0010001N1-00401+99999999999ADDAY121999AY221999GF108991081061004501999999MW1101REMSYN052AAXX  11041 15310 41410 80000 11040 71022 886// 333;
0118153100999992000011105004+45500+028020FM-12+007299999V0209999C000010042019N0060001N1-00861+99999999999ADDAY121999AY221999GF108991081051004501999999MW1101REMSYN058AAXX  11051 15310 41456 80000 11086 71022 885// 333 92727;
0273153100999992000011106004+45500+028020FM-12+007299999V0203601N001010042019N0003001N1-00401-00401103551ADDAA106000091AJ100199199999999AY121061AY221061GF108991081061004501999999IA1289IA2120-00509KA1120N-00471MA1999999102631MD1210131+9999MW1461REMSYN106AAXX  11061 15310 31403 83601 11040 21040 30263 40355 52013 74622 886// 333 21047 3/105 44019 92717 92863;EQDQ01  00002PRCP06
0201153100999992000011109004+45500+028020FM-12+007299999V0203201N001010042019N0003001N1-00321-00321103651ADDAA106000091AY141031AY241031GF108991081061004501999999MA1999999102741MD1210111+9999MW1441REMSYN082AAXX  11091 15310 31403 83201 11032 21032 30274 40365 52011 74444 886// 333 92717;EQDQ01  00002PRCP06
0230153100999992000011112004+45500+028020FM-12+007299999V0203201N003010042019N0008001N1-00241-00241103631ADDAA106000091AJ100199199999999AY141061AY241061GF108991081061004501999999IA1289MA1999999102721MD1810021+9999MW1421REMSYN088AAXX  11121 15310 31408 83203 11024 21024 30272 40363 58002 74244 886// 333 44019 92717;EQDQ01  00002PRCP06
0201153100999992000011115004+45500+028020FM-12+007299999V0202701N001010042019N0008001N1-00241-00241103691ADDAA106000091AY141031AY241031GF108991081061004501999999MA1999999102781MD1310061+9999MW1441REMSYN082AAXX  11151 15310 31408 82701 11024 21024 30278 40369 53006 74444 886// 333 92717;EQDQ01  00002PRCP06
0118153100999992000011116004+45500+028020FM-12+007299999V0203201N002010042019N0003001N1-00241+99999999999ADDAY141999AY241999GF108991081061004501999999MW1461REMSYN058AAXX  11161 15310 /1403 83202 11024 74644 886// 333 92717;
0261153100999992000011118004+45500+028020FM-12+007299999V0209999C000010042019N0003001N1-00201-00201103671ADDAA106000091AJ100199199999999AY141061AY241061GF108991081061004501999999IA1289KA1120M-00131MA1999999102761MD1810021+9999MW1441REMSYN106AAXX  11181 15310 31403 80000 11020 21020 30276 40367 58002 74444 886// 333 11013 3/000 44019 92717 92863;EQDQ01  00002PRCP06
0118153100999992000011119004+45500+028020FM-12+007299999V0209999C000010042019N0008001N1-00191+99999999999ADDAY141999AY241999GF108991081061004501999999MW1421REMSYN058AAXX  11191 15310 41408 80000 11019 74244 886// 333 92717;
0118153100999992000011120004+45500+028020FM-12+007299999V0209999C000010042019N0008001N1-00201+99999999999ADDAY141999AY241999GF108991081061004501999999MW1441REMSYN058AAXX  11201 15310 41408 80000 11020 74444 886// 333 92717;
0179153100999992000011121004+45500+028020FM-12+007299999V0209999C000010042019N0008001N1-00201-00201103691ADDAA106000091GF108991081061004501999999MA1999999102781MD1310021+9999REMSYN082AAXX  11211 15310 31408 80000 11020 21020 30278 40369 53002 886// 333 55000 92717;EQDQ01  00002PRCP06
0118153100999992000011122004+45500+028020FM-12+007299999V0209999C000010042019N0008001N1-00201+99999999999ADDAY141999AY241999GF108991081061004501999999MW1441REMSYN058AAXX  11221 15310 41408 80000 11020 74444 886// 333 92717;
0230153100999992000011200004+45500+028020FM-12+007299999V0209999C000010042019N0008001N1-00201-00201103701ADDAA106000091AJ100199199999999AY141061AY241061GF108991081061004501999999IA1289MA1999999102791MD1110011+9999MW1441REMSYN088AAXX  12001 15310 31408 80000 11020 21020 30279 40370 51001 74444 886// 333 44019 92717;EQDQ01  00002PRCP06
0118153100999992000011202004+45500+028020FM-12+007299999V0203601N007010042019N0008001N1-00231+99999999999ADDAY141999AY241999GF108991081061004501999999MW1441REMSYN058AAXX  12021 15310 41408 83607 11023 74444 886// 333 92717;
0207153100999992000011203004+45500+028020FM-12+007299999V0203601N001010042019N0010001N1-00241-00241103691ADDAA106000091AY141031AY241031GF108991081061004501999999MA1999999102781MD1810011+9999MW1281REMSYN088AAXX  12031 15310 31410 83601 11024 21024 30278 40369 58001 72844 886// 333 92717 96010;EQDQ01  00002PRCP06
0273153100999992000011206004+45500+028020FM-12+007299999V0200201N004010075019N0030001N1-00341-00341103731ADDAA106000091AJ100199199999999AY141061AY241061GF108991081051008001999999IA1289IA2120-00509KA1120N-00341MA1999999102821MD1310041+9999MW1101REMSYN106AAXX  12061 15310 31530 80204 11034 21034 30282 40373 53004 71044 885// 333 21034 3/105 44019 92717 92863;EQDQ01  00002PRCP06
0177153100999992000011209004+45500+028020FM-12+007299999V0203601N002010042019N0030001N1-00281-00281103791ADDAY171031AY221031GF108991081001004501021999MA1999999102881MD1210061+9999MW1711REMSYN088AAXX  12091 15310 21430 83602 11028 21028 30288 40379 52006 77172 8802/ 333 92717 96010;
0223153100999992000011212004+45500+028020FM-12+007299999V0203601N002010042019N0030001N1-00181-00181103751ADDAA106000891AJ100209199999999AY171061AY221061GF108991081001004501021999IA1249MA1999999102841MD1810041+9999MW1221REMSYN100AAXX  12121 15310 /1430 83602 11018 21018 30284 40375 58004 69971 72272 8802/ 333 48020 92717 96010;
0182153100999992000011215004+45500+028020FM-12+007299999V0200201N004010075019N0040001N1-00141-00171103721ADDAA106000021AY121031AY221031GF108991081051008001999999MA1999999102811MD1710031+9999MW1101REMSYN082AAXX  12151 15310 31540 80204 11014 21017 30281 40372 57003 71022 885// 333 92717;
0108153100999992000011217004+45500+028020FM-12+007299999V0200201N003010042019N0060001N1-00141+99999999999ADDAY121999AY221999GF108991081051004501999999MW1101REMSYN048AAXX  12171 15310 41456 80203 11014 71022 885//;
0242153100999992000011218004+45500+028020FM-12+007299999V0200201N003010075019N0060001N1-00141-00141103811ADDAA112000891AJ100209199999999AY171061AY221061GF108991081051008001999999IA1249KA1120M-00101MA1999999102901MD1310091+9999MW1101REMSYN106AAXX  12181 15310 21556 80203 11014 21014 30290 40381 53009 69972 71072 885// 333 11010 3/000 48020 92803;
0108153100999992000011219004+45500+028020FM-12+007299999V0200201N003010075019N0060001N1-00141+99999999999ADDAY121999AY221999GF108991081051008001999999MW1101REMSYN048AAXX  12191 15310 41556 80203 11014 71022 885//;
0068153100999992000011220004+45500+028020FM-12+007299999V0200201N003019999999N0060001N1+99999+99999999999ADDGF108991999999008001999999REMSYN030AAXX  12201 15310 41556 80203;
0201153100999992000011221004+45500+028020FM-12+007299999V0203601N001010075019N0080001N1-00181-00181103831ADDAA106000091AY121031AY221031GF108991081051008001999999MA1999999102921MD1210021+9999MW1101REMSYN082AAXX  12211 15310 31558 83601 11018 21018 30292 40383 52002 71022 885// 333 55000;EQDQ01  00002PRCP06
0108153100999992000011222004+45500+028020FM-12+007299999V0203601N002010075019N0080001N1-00161+99999999999ADDAY121999AY221999GF108991081051008001999999MW1101REMSYN048AAXX  12221 15310 41558 83602 11016 71022 885//;
0224153100999992000011300004+45500+028020FM-12+007299999V0200201N005010042019N0040001N1-00321-00321103831ADDAA106000091AJ100209199999999AY121061AY221061GF108991081061004501999999IA1249MA1999999102921MD1010001+9999MW1101REMSYN082AAXX  13001 15310 31440 80205 11032 21032 30292 40383 50000 71022 886// 333 48020;EQDQ01  00002PRCP06
0108153100999992000011301004+45500+028020FM-12+007299999V0200201N005010042019N0040001N1-00381+99999999999ADDAY121999AY221999GF108991081061004501999999MW1101REMSYN048AAXX  13011 15310 41440 80205 11038 71022 886//;
0108153100999992000011302004+45500+028020FM-12+007299999V0200201N005010042019N0040001N1-00441+99999999999ADDAY121999AY221999GF108991081061004501999999MW1101REMSYN048AAXX  13021 15310 41440 80205 11044 71022 886//;
0191153100999992000011303004+45500+028020FM-12+007299999V0200201N003010042019N0040001N1-00481-00481103861ADDAA106000091AY121031AY221031GF108991081061004501999999MA1999999102941MD1010021+9999MW1101REMSYN072AAXX  13031 15310 31440 80203 11048 21048 30294 40386 50002 71022 886//;EQDQ01  00002PRCP06
0118153100999992000011307004+45500+028020FM-12+007299999V0209999C000019999999N0003001N1-00521+99999999999ADDAY141999AY241999GF108991081999002501999999MW1481REMSYN058AAXX  13071 15310 41303 80000 11052 74844 88/// 333 92713;
0201153100999992000011309004+45500+028020FM-12+007299999V0200501N001010021019N0003001N1-00521-00521103881ADDAA106000091AY141031AY241031GF108991081061002501999999MA1999999102961MD1410001+9999MW1481REMSYN082AAXX  13091 15310 31303 80501 11052 21052 30296 40388 54000 74844 886// 333 92712;EQDQ01  00002PRCP06
0236153100999992000011312004+45500+028020FM-12+007299999V0200201N001010021019N0005001N1-00421-00421103631ADDAA106000091AJ100199199999999AY141061AY241061GF108991081061002501999999IA1249MA1999999102711MD1810251+9999MW1441REMSYN094AAXX  13121 15310 31305 80201 11042 21042 30271 40363 58025 74444 886// 333 48019 92717 93514;EQDQ01  00002PRCP06
0201153100999992000011315004+45500+028020FM-12+007299999V0200501N002010021019N0005001N1-00521-00521103581ADDAA106000091AY141031AY241031GF108991081061002501999999MA1999999102661MD1610051+9999MW1441REMSYN082AAXX  13151 15310 31305 80502 11052 21052 30266 40358 56005 74444 886// 333 92717;EQDQ01  00002PRCP06
0261153100999992000011318004+45500+028020FM-12+007299999V0200501N004010021019N0003001N1-00641-00641103591ADDAA106000091AJ100199199999999AY141061AY241061GF107991071061002501001001IA1249KA1120M-00401MA1999999102661MD1410001+9999MW1481REMSYN106AAXX  13181 15310 31303 70504 11064 21064 30266 40359 54000 74844 87600 333 11040 3/000 48019 92713 92843;EQDQ01  00002PRCP06
0211153100999992000011321004+45500+028020FM-12+007299999V0200201N003010021019N0005001N1-00641-00641103541ADDAA199000091AY141031AY241031GF108991081061002501999999MA1999999102611MD1810051+9999MW1421REMSYN092    AAXX  13211 15310 31305 80203 11064 21064 30261 40354 58005 74244 886// 333 92720 93516;EQDQ01  00002PRCP99
0240153100999992000011400004+45500+028020FM-12+007299999V0200501N002010021019N0030001N1-00581-00581103451ADDAA199000091AJ100199199999999AY141061AY241061GF108991081061002501999999IA1249MA1999999102531MD1710081+9999MW1101REMSYN098    AAXX  14001 15310 31330 80502 11058 21058 30253 40345 57008 71044 886// 333 48019 92727 93516;EQDQ01  00002PRCP99
0122153100999992000011402004+45500+028020FM-12+007299999V0200201N001019999999N0040001N1-00571+99999999999ADDAY121999AY221999GF108991081999004501999999MW1101REMSYN062    AAXX  14021 15310 41440 80201 11057 71022 88/// 333 92727;
0205153100999992000011403004+45500+028020FM-12+007299999V0200501N001010042019N0060001N1-00621-00621103421ADDAA199000091AY121031AY221031GF107991071061004501001001MA1999999102501MD1710031+9999MW1101REMSYN086    AAXX  14031 15310 31456 70501 11062 21062 30250 40342 57003 71022 87600 333 92727;EQDQ01  00002PRCP99
0277153100999992000011406004+45500+028020FM-12+007299999V0200501N001010075019N0080001N1-00561-00561103371ADDAA199000091AJ100199199999999AY121061AY221061GF108991081051008001999999IA1249IA2120-00909KA1120N-00661MA1999999102461MD1710041+9999MW1101REMSYN110    AAXX  14061 15310 31558 80501 11056 21056 30246 40337 57004 71022 885// 333 21066 3/109 48019 92727 92843;EQDQ01  00002PRCP99
0205153100999992000011409004+45500+028020FM-12+007299999V0209999C000010042019N0040001N1-00321-00321103431ADDAA199000091AY121031AY221031GF108991081061004501999999MA1999999102521MD1310061+9999MW1101REMSYN086    AAXX  14091 15310 31440 80000 11032 21032 30252 40343 53006 71022 886// 333 92727;EQDQ01  00002PRCP99
0234153100999992000011412004+45500+028020FM-12+007299999V0209999C000010042019N0030001N1-00141-00221103301ADDAA199000091AJ100169199999999AY121061AY221061GF108991081061004501999999IA1289MA1999999102401MD1810121+9999MW1101REMSYN092    AAXX  14121 15310 31430 80000 11014 21022 30240 40330 58012 71022 886// 333 44016 92727;EQDQ01  00002PRCP99
0205153100999992000011415004+45500+028020FM-12+007299999V0201801N001010900019N0080001N1-00101-00171103281ADDAA199000091AY121031AY221031GF108991031061004501001071MA1999999102381MD1610021+9999MW1101REMSYN086    AAXX  14151 15310 31458 81801 11010 21017 30238 40328 56002 71022 83607 333 92727;EQDQ01  00002PRCP99
0141153100999992000011417004+45500+028020FM-12+007299999V0202301N999990042019N0020001N1-00311+99999999999ADDAY121999AY221999GF108991081061004501999999MW1101REMSYN062    AAXX  14171 15310 41420 82383 11031 71022 886// 333 92727;EQDQ01+008303WOSPD 
0265153100999992000011418004+45500+028020FM-12+007299999V0202301N002012200019N0020001N1-00381-00431103321ADDAA199000091AJ100159199999999AY111061AY211061GF104991021061004501001011IA1289KA1120M-00061MA1999999102411MD1310031+9999MW1101REMSYN110    AAXX  14181 15310 31420 42302 11038 21043 30241 40332 53003 71011 82601 333 11006 3/003 44015 92727 92843;EQDQ01  00002PRCP99
0138153100999992000011419004+45500+028020FM-12+007299999V0202301N003012200019N0020001N1-00431+99999999999ADDAY101999AY201999GA1001+999999999GF100991001001999999001001MW1101REMSYN062    AAXX  14191 15310 41920 02303 11043 71000 333 92600 92727;
0227153100999992000011421004+45500+028020FM-12+007299999V0202301N002012200019N0040001N1-00501-00811103271ADDAA199000091AY101031AY201031GA1001+999999999GF100991001001999999001001MA1999999102361MD1810051+9999MW1101REMSYN092    AAXX  14211 15310 31940 02302 11050 21081 30236 40327 58005 71000 333 55010 92600 92727;EQDQ01  00002PRCP99
0138153100999992000011422004+45500+028020FM-12+007299999V0202301N002012200019N0040001N1-00501+99999999999ADDAY101999AY201999GA1001+999999999GF100991001001999999001001MW1101REMSYN062    AAXX  14221 15310 41940 02302 11050 71000 333 92600 92727;
0138153100999992000011423004+45500+028020FM-12+007299999V0202301N001012200019N9999999N1-00541+99999999999ADDAY101999AY201999GA1001+999999999GF100991001001999999001001MW1101REMSYN062    AAXX  14231 15310 419/0 02301 11054 71000 333 92600 92727;
0128153100999992000011501004+45500+028020FM-12+007299999V0202301N002012200019N0040001N1-00681+99999999999ADDAY101999AY201999GF103991031061004501001001MW1101REMSYN068    AAXX  15011 15310 41440 32302 11068 71000 83600 333 92611 92727;
0128153100999992000011502004+45500+028020FM-12+007299999V0202301N002012200019N0040001N1-00681+99999999999ADDAY101999AY201999GF103991031061004501001001MW1101REMSYN068    AAXX  15021 15310 41440 32302 11068 71000 83600 333 92611 92727;
0211153100999992000011503004+45500+028020FM-12+007299999V0202301N003010042019N0040001N1-00721-00771103131ADDAA199000091AY111031AY211031GF106991061061004501001001MA1999999102211MD1810051+9999MW1101REMSYN092    AAXX  15031 15310 31440 62303 11072 21077 30221 40313 58005 71011 86600 333 92611 92727;EQDQ01  00002PRCP99
0106153100999992000011504004+45500+028020FM-12+007299999V0202301N003019999999N9999999N1+99999+99999999999ADDAY121999AY221999GF108991081061999999999999MW1101REMSYN046    AAXX  15041 15310 41//0 82303 71022 886//;
0293153100999992000011506004+45500+028020FM-12+007299999V0202301N004010042019N0005001N1-00821-00821103091ADDAA199000091AJ100159199999999AY111061AY211061GF108991081061004501999999IA1289IA2120-01109KA1120N-00901MA1999999102161MD1610051+9999MW1481REMSYN126    AAXX  15061 15310 31405 82304 11082 21082 30216 40309 56005 74811 886// 333 21090 3/111 44015 92612 92712 92843 555 10030;EQDQ01  00002PRCP99
0217153100999992000011509004+45500+028020FM-12+007299999V0202001N003010042019N0010001N1-00531-00531103021ADDAA199000091AY141031AY241031GF108991081061004501999999MA1999999102111MD1810051+9999MW1281REMSYN098    AAXX  15091 15310 31410 82003 11053 21053 30211 40302 58005 72844 886// 333 92612 92717 93506;EQDQ01  00002PRCP99
0246153100999992000011512004+45500+028020FM-12+007299999V0202001N004010042019N0010001N1-00311-00311102781ADDAA199000091AJ100159199999999AY141061AY241061GF108991081061004501999999IA1289MA1999999101871MD1710241+9999MW1101REMSYN104    AAXX  15121 15310 31410 82004 11031 21031 30187 40278 57024 71044 886// 333 44015 92612 92717 93506;EQDQ01  00002PRCP99
0205153100999992000011515004+45500+028020FM-12+007299999V0202001N005010042019N0008001N1-00371-00371102721ADDAA199000091AY121031AY221031GF108991081061004501999999MA1999999101811MD1710061+9999MW1461REMSYN086    AAXX  15151 15310 31408 82005 11037 21037 30181 40272 57006 74622 886// 333 92717;EQDQ01  00002PRCP99
0205153100999992000011516004+45500+028020FM-12+007299999V0202001N005010042019N0008001N1-00371-00371102721ADDAA199000091AY121999AY221999GF108991081061004501999999MA1999999101811MD1710061+9999MW1461REMSYN086    AAXX  15161 15310 31408 82005 11037 21037 30181 40272 57006 74622 886// 333 92717;EQDQ01  00002PRCP99
0258153100999992000011518004+45500+028020FM-12+007299999V0202301N005010042019N0005001N1-00541-00541102781ADDAA103000191AJ100159199999999AY141061AY221061GF108991081061004501999999IA1289KA1120M-00241MA1999999101871MD1310061+9999MW1771REMSYN122    AAXX  15181 15310 /1405 82305 11054 21054 30187 40278 53006 69912 77742 886// 333 11024 3/001 44015 69917 92717 92843;
0128153100999992000011519004+45500+028020FM-12+007299999V0202701N006010042019N0010001N1-00571+99999999999ADDAY171999AY271999GF108991081061004501999999MW1281REMSYN068    AAXX  15191 15310 41410 82706 11057 72877 886// 333 92717 96010;
0122153100999992000011522004+45500+028020FM-12+007299999V0202501N003010042019N0010001N1-00621+99999999999ADDAY121999AY221999GF108991081061004501999999MW1101REMSYN062    AAXX  15221 15310 41410 82503 11062 71022 886// 333 92717;
0122153100999992000011523004+45500+028020FM-12+007299999V0202701N004010042019N0010001N1-00621+99999999999ADDAY121999AY221999GF108991081061004501999999MW1101REMSYN062    AAXX  15231 15310 41410 82704 11062 71022 886// 333 92717;
0221153100999992000011600004+45500+028020FM-12+007299999V0202701N002010042019N0005001N1-00551-00551102691ADDAA106000791AJ100159199999999AY171061AY221061GF108991081061004501999999IA1289MA1999999101781MD1710071+9999MW1481REMSYN098    AAXX  16001 15310 11405 82702 11055 21055 30178 40269 57007 69901 74872 886// 333 44015 92712;
0122153100999992000011602004+45500+028020FM-12+007299999V0202501N001010042019N0005001N1+99999+99999999999ADDAY141999AY241999GF108991081061004501999999MW1481REMSYN062    AAXX  16021 15310 41405 82501 17554 74844 886// 333 9)713;
0186153100999992000011603004+45500+028020FM-12+007299999V0202701N001010042019N0003001N1-00531-00531102621ADDAA199000021AY141031AY241031GF108991081061004501999999MA1999999101711MD1710071+9999MW1481REMSYN086    AAXX  16031 15310 31403 82701 11053 21053 30171 40262 57007 74844 886// 333 92712;
0274153100999992000011606004+45500+028020FM-12+007299999V0202901N001010042019N0001001N1-00621-00621102681ADDAA112000791AJ100159199999999AY141061AY241061GF108991081061004501999999IA1289IA2120-00609KA1120N-00641MA1999999101761MD1310051+9999MW1481REMSYN126    AAXX  16061 15310 11401 82901 11062 21062 30176 40268 53005 69902 74844 886// 333 21064 3/106 44015 92713 92843 555 60001;
0205153100999992000011609004+45500+028020FM-12+007299999V0202701N001010042019N0001001N1-00461-00461102781ADDAA199000091AY141031AY241031GF108991081061004501999999MA1999999101871MD1210111+9999MW1481REMSYN086    AAXX  16091 15310 31401 82701 11046 21046 30187 40278 52011 74844 886// 333 92712;EQDQ01  00002PRCP99
0240153100999992000011612004+45500+028020FM-12+007299999V0202701N003010042019N0008001N1-00281-00281102671ADDAA199000091AJ100159199999999AY141061AY241061GF107991071061004501001001IA1289MA1999999101771MD1810101+9999MW1421REMSYN098    AAXX  16121 15310 31408 72703 11028 21028 30177 40267 58010 74244 87600 333 44015 92717 93511;EQDQ01  00002PRCP99
0211153100999992000011615004+45500+028020FM-12+007299999V0202701N003010075019N0010001N1-00361-00361102701ADDAA199000091AY141031AY241031GF108991051051008001021999MA1999999101791MD1310021+9999MW1281REMSYN092    AAXX  16151 15310 31510 82703 11036 21036 30179 40270 53002 72844 8552/ 333 92717 96010;EQDQ01  00002PRCP99
0122153100999992000011616004+45500+028020FM-12+007299999V0202701N003010075019N0010001N1-00381+99999999999ADDAY121999AY221999GF108991051051008001021999MW1101REMSYN062    AAXX  16161 15310 41510 82703 11038 71022 8552/ 333 92717;
0265153100999992000011618004+45500+028020FM-12+007299999V0209999C000010075019N0020001N1-00421-00421102641ADDAA199000091AJ100159199999999AY141061AY241061GF108991051051008001071999IA1289KA1120M-00211MA1999999101731MD1810061+9999MW1101REMSYN110    AAXX  16181 15310 31520 80000 11042 21042 30173 40264 58006 71044 8557/ 333 11021 3/002 44015 92717 92843;EQDQ01  00002PRCP99
0277153100999992000011619004+45500+028020FM-12+007299999V0209999C000010075019N0020001N1-00421-00421102641ADDAA199000091AJ100159199999999AY141999AY241999GF108991051051008001071999IA1289IA2999+00209KA1120M-00211MA1999999101731MD1810061+9999MW1101REMSYN110    AAXX  16191 15310 31520 80000 11042 21042 30173 40264 58006 71044 8557/ 333 11021 3/002 44015 92717 92843;EQDQ01  00002PRCP99
0122153100999992000011620004+45500+028020FM-12+007299999V0209999C000010360019N0020001N1-00331+99999999999ADDAY121999AY221999GF108991041051008001021999MW1101REMSYN062    AAXX  16201 15310 41520 80000 11033 71022 8452/ 333 92717;
0211153100999992000011621004+45500+028020FM-12+007299999V0209999C000010360019N0020001N1-00361-00361102551ADDAA199000091AY121031AY221031GF108991041051008001021999MA1999999101641MD1710091+9999MW1101REMSYN092    AAXX  16211 15310 31520 80000 11036 21036 30164 40255 57009 71022 8452/ 333 55008 92717;EQDQ01  00002PRCP99
0122153100999992000011622004+45500+028020FM-12+007299999V0209999C000010360019N0020001N1-00381+99999999999ADDAY121999AY221999GF108991041051008001021999MW1101REMSYN062    AAXX  16221 15310 41520 80000 11038 71022 8452/ 333 92717;
0122153100999992000011623004+45500+028020FM-12+007299999V0209999C000010360019N0020001N1-00371+99999999999ADDAY121999AY221999GF108991041051008001021999MW1101REMSYN062    AAXX  16231 15310 41520 80000 11037 71022 8452/ 333 92717;
0234153100999992000011700004+45500+028020FM-12+007299999V0209999C000010360019N0020001N1-00401-00401102381ADDAA199000091AJ100159199999999AY121061AY221061GF108991031051008001021999IA1289MA1999999101481MD1710161+9999MW1101REMSYN092    AAXX  17001 15310 31520 80000 11040 21040 30148 40238 57016 71022 8352/ 333 44015 92717;EQDQ01  00002PRCP99
0128153100999992000011702004+45500+028020FM-12+007299999V0209999C000010360019N0020001N1-00441+99999999999ADDAY171999AY271999GF108991041051008001021999MW1711REMSYN068    AAXX  17021 15310 41520 80000 11044 77177 8452/ 333 92717 96010;
0198153100999992000011703004+45500+028020FM-12+007299999V0209999C000010360019N0020001N1-00441-00441102091ADDAA103000191AY121031AY221031GF108991041051008001021999MA1999999101191MD1710291+9999MW1711REMSYN098    AAXX  17031 15310 21520 80000 11044 21044 30119 40209 57029 77122 8452/ 333 69917 92717 96010;
0128153100999992000011704004+45500+028020FM-12+007299999V0202301N001010360019N0020001N1-00371+99999999999ADDAY171999AY271999GF108991041051008001021999MW1221REMSYN068    AAXX  17041 15310 41520 82301 11037 72277 8452/ 333 92717 96010;
0280153100999992000011706004+45500+028020FM-12+007299999V0202301N002010075019N0010001N1-00411-00411101771ADDAA103999929AJ100159199999999AY171061AY221061GF108991051051008001021999IA1289IA2120-00709KA1120N-00451MA1999999100871MD1710321+9999MW1101REMSYN132    AAXX  17061 15310 /1510 82302 11041 21041 30087 40177 57032 69912 71072 8552/ 333 21045 3/107 44015 69907 92843 92917 555 60001;
0228153100999992000011712004+45500+028020FM-12+007299999V0202301N008010360019N0020001N1-00211-00331100661ADDAA199000021AJ100159199999999AY121061AY221061GF107991041061004501031011IA1289MA1999999099771MD1710782+9999MW1101REMSYN086    AAXX  17121 15310 31420 72308 11021 21033 39977 40066 57078 71022 84631 333 44015;EQDQ01+000782APC3  
0176153100999992000011715004+45500+028020FM-12+007299999V0202001N007010042019N0030001N1-00201-00381100171ADDAA199000021AY121031AY221031GF108991081061004501999999MA1999999099291MD1710481+9999MW1101REMSYN076    AAXX  17151 15310 31430 82007 11020 21038 39929 40017 57048 71022 886//;
0176153100999992000011716004+45500+028020FM-12+007299999V0202001N007010042019N0030001N1-00201-00381100171ADDAA199000021AY121999AY221999GF108991081061004501999999MA1999999099291MD1710481+9999MW1101REMSYN076    AAXX  17161 15310 31430 82007 11020 21038 39929 40017 57048 71022 886//;
0231153100999992000011718004+45500+028020FM-12+007299999V0202301N009010360019N0100001N1-00241-00431099831ADDAA199000091AJ100159199999999GF108991041051008001021999IA1289KA1120M-00171MA1999999098951MD1710341+9999REMSYN098    AAXX  17181 15310 32560 82309 11024 21043 39895 49983 57034 8452/ 333 11017 3/000 44015 92843;EQDQ01  00002PRCP99
0084153100999992000011719004+45500+028020FM-12+007299999V0202301N008010075019N0100001N1-00201+99999999999ADDGF108991051021008001999999REMSYN046    AAXX  17191 15310 42560 82308 11020 852//;
0112153100999992000011720004+45500+028020FM-12+007299999V0202301N007010360019N9999999N1-00281+99999999999ADDAY121999AY221999GF108991031051008001021999MW1711REMSYN052    AAXX  17201 15310 4156/ 82307 11028 77122 8352/;
0150153100999992000011721004+45500+028020FM-12+007299999V0202301N007019999999N0100001N1-00291-00291099002ADDGF108991999999008001999999MA1999999098581MD1510151+9999REMSYN064    AAXX  17211 15310 21560 82307 11029 21029 39858 4990/ 55015;EQDQ01+099003APOSLP
0122153100999992000011722004+45500+028020FM-12+007299999V02099999999990075019N0100001N1-00211+99999999999ADDAY171999AY271999GF108991081001008001021999MW1361REMSYN062    AAXX  17221 15310 41560 8230/ 11021 73677 8802/ 333 9291-;
0122153100999992000011723004+45500+028020FM-12+007299999V0202301N007010075019N0100001N1-00261+99999999999ADDAY121999AY221999GF108991081001008001021999MW1361REMSYN062    AAXX  17231 15310 41560 82307 11026 73622 8802/ 333 92911;
0206153100999992000011800004+45500+028020FM-12+007299999V0202301N007019999999N0100001N1-00261-01091099191ADDAA103999999AJ100169199999999GF108991999999008001999999IA1289MA1999999098321MD1710261+9999REMSYN086    AAXX  18001 15310 /1560 82307 11026 21109 39832 49919 57026 333 44016 69907 92912;EQDQ01  99992PRCP03
0122153100999992000011801004+45500+028020FM-12+007299999V0202301N007010360019N0100001N1-00281+99999999999ADDAY121999AY221999GF108991031051012501071999MW1361REMSYN062    AAXX  18011 15310 41660 82307 11028 73622 8357/ 333 92911;
0094153100999992000011802004+45500+028020FM-12+007299999V0202301N005019999999N9999999N1-00321+99999999999ADDGF108991081001000251071999REMSYN056    AAXX  18021 15310 /60// 82305 11032 8807/ 333 92910;
0148153100999992000011803004+45500+028020FM-12+007299999V0202301N003019999999N0100001N1-00341-00481099041ADDAA199000021GF108991081001999999071999MA1999999098171MD1710151+9999REMSYN070    AAXX  18031 15310 32960 82303 11034 21048 39817 49904 57015 8807/;
0084153100999992000011804004+45500+028020FM-12+007299999V0202301N002019999999N0100001N1-00381+99999999999ADDGF108991081001999999071999REMSYN046    AAXX  18041 15310 42960 82302 11038 8807/;
0268153100999992000011806004+45500+028020FM-12+007299999V0202301N003010360019N0080001N1-00381-00531098951ADDAA112000891AJ100169199999999AY121061AY221061GF107991031051012501071001IA1249IA2120-00609KA1120N-00401MA1999999098081MD1810091+9999MW1101REMSYN120    AAXX  18061 15310 11658 72303 11038 21053 39808 49895 58009 69972 71022 83570 333 21040 3/106 48016 92803 555 60007;
0167153100999992000011809004+45500+028020FM-12+007299999V0203201N006019999999N0150001N1-00121-00631099071ADDAA199000091GF106991061001999999071001MA1999999098211MD1210131+9999REMSYN070    AAXX  18091 15310 32965 63206 11012 21063 39821 49907 52013 86070;EQDQ01  00002PRCP99
0200153100999992000011812004+45500+028020FM-12+007299999V0202701N001019999999N0150001N1+00221-00491099081ADDAA199000091AJ100159199999999GF107991021001999999041081IA1289MA1999999098231MD1110021+9999REMSYN080    AAXX  18121 15310 32965 72701 10022 21049 39823 49908 51002 82048 333 44015;EQDQ01  00002PRCP99
0167153100999992000011815004+45500+028020FM-12+007299999V0202501N002019999999N0100001N1+00181-00401099111ADDAA199000091GF108991021001999999041071MA1999999098261MD1310031+9999REMSYN070    AAXX  18151 15310 32960 82502 10018 21040 39826 49911 53003 82047;EQDQ01  00002PRCP99
0135153100999992000011816004+45500+028020FM-12+007299999V0202501N002019999999N0100001N1+99999+99999099111ADDAA199000091GF108991999999008001999999MA1999999098261REMSYN052    AAXX  18161 15310 32560 82502 21040 39826 49911;EQDQ01  00002PRCP99
0231153100999992000011818004+45500+028020FM-12+007299999V0203601N002019999999N0100001N1-00161-00601099251ADDAA199000091AJ100159199999999GF108991021001999999041071IA1289KA1120M+00311MA1999999098391MD1210131+9999REMSYN098    AAXX  18181 15310 32960 83602 11016 21060 39839 49925 52013 82047 333 10031 3/002 44015 92833;EQDQ01  00002PRCP99
0084153100999992000011819004+45500+028020FM-12+007299999V0203601N002019999999N0100001N1-00241+99999999999ADDGF108991001001999999001071REMSYN046    AAXX  18191 15310 42/60 83602 11024 80007;
0084153100999992000011820004+45500+028020FM-12+007299999V0203201N002019999999N0100001N1-00221+99999999999ADDGF108991001001999999001071REMSYN046    AAXX  18201 15310 4/960 83202 11022 80007;
0177153100999992000011821004+45500+028020FM-12+007299999V0202701N001019999999N0100001N1-00291-00421099421ADDAA199000091GF108991001001999999001071MA1999999098551MD1210161+9999REMSYN080    AAXX  18211 15310 32960 82701 11029 21042 39855 49942 52016 80007 333 55045;EQDQ01  00002PRCP99
0084153100999992000011822004+45500+028020FM-12+007299999V0202301N003012200019N0100001N1-00281+99999999999ADDGF104991021001999999031011REMSYN046    AAXX  18221 15310 42960 42303 11028 82031;
0206153100999992000011900004+45500+028020FM-12+007299999V0202301N003019999999N0100001N1-00381-00601099601ADDAA199000091AJ100159199999999GF107991061001999999071011IA1289MA1999999098721MD1210171+9999REMSYN086    AAXX  19001 15310 32960 72303 11038 21060 39872 49960 52017 86071 333 44015 92600;EQDQ01  00002PRCP99
0092153100999992000011902004+45500+028020FM-12+007299999V0202301N003019999999N0100001N1-00401+99999999999ADDGF107991071001999999071001REMSYN054    AAXX  19021 15310 42960 72303 11040 87070 333 922;
0263153100999992000011903004+45500+028020FM-12+007299999V0209999C000010075019N0100001N1+99999+99999999999ADDAA199000091GF108991081051008001999999MA1999999999999MD1210111+9999REMSYN070    AAXX  19031 15310 32560 80000 1119/ 21035 39727 40082 52011 885//;EQDQ01-001903ATOT  Q02+097273APOSP Q03+100823APOSLPQ04  00002PRCP99Q05 -01903ATOT  Q06 097273APOSP Q07 100823APOSLP
0103153100999992000011904004+45500+028020FM-12+007299999V0202301N004010360019N0100001N1-00362+99999999999ADDGF108991031051008001071999REMSYN046    AAXX  19041 15310 42560 82304 11036 8357/;EQDQ01-000363ATOT  
0275153100999992000011906004+45500+028020FM-12+007299999V0202301N006010075019N0100001N1-00321-00531099792ADDAA199000091AJ100159199999999GF108991051051008001071999IA1289IA2120-01009KA1120N-00541MA1999999098912MD1210061+9999REMSYN098    AAXX  19061 15310 32560 82306 11032 21053 39891 49979 52006 8557/ 333 21054 3/110 44015 92833;EQDQ01+098913APOSP Q02+099793APOSLPQ03  00002PRCP99
0195153100999992000011909004+45500+028020FM-12+007299999V0202501N002010360019N0080001N1-00181-00461100021ADDAA199000091AY121031AY221031GF107991021051008001031061MA1999999099151MD1210241+9999MW1101REMSYN076    AAXX  19091 15310 31558 72502 11018 21046 39915 40002 52024 71022 82536;EQDQ01  00002PRCP99
0221153100999992000011912004+45500+028020FM-12+007299999V0203201N004010360019N0200001N1+00001-00241100241ADDAA103000791AJ100159199999999AY181061AY221061GF107991031031008001031081IA1289MA1999999099371MD1210221+9999MW1021REMSYN098    AAXX  19121 15310 /1570 73204 10000 21024 39937 40024 52022 69901 70282 83338 333 44015 69907;
0163153100999992000011915004+45500+028020FM-12+007299999V0203601N007019999999N0300001N1-00161-00571100481ADDAA199000091GF107991021001999999041081MA1999999099601MD1210231+9999REMSYN066AAXX  19151 15310 32980 73607 11016 21057 39960 40048 52023 82048;EQDQ01  00002PRCP99
0080153100999992000011916004+45500+028020FM-12+007299999V0203601N003019999999N0300001N1-00211+99999999999ADDGF107991041001999999071081REMSYN042AAXX  19161 15310 42980 73603 11021 84078;
0214153100999992000011918004+45500+028020FM-12+007299999V0202701N001019999999N0200001N1-00421-00681100691ADDAA112000791AJ100159199999999GF106991021001999999031081IA1289KA1120M+00051MA1999999099801MD1210201+9999REMSYN100AAXX  19181 15310 12970 62701 11042 21068 39980 40069 52020 69902 82038 333 10005 3/002 44015 92863;
0179153100999992000011921004+45500+028020FM-12+007299999V0203201N001019999999N0150001N1-00551-00851100821ADDAA199000091GF106991061001999999071001MA1999999099931MD1210131+9999REMSYN082AAXX  19211 15310 32965 63201 11055 21085 39993 40082 52013 86070 333 55001 92600;EQDQ01  00002PRCP99
0196153100999992000012000004+45500+028020FM-12+007299999V0203401N004010360019N0200001N1-00341-00851101001ADDAA199000091AJ100159199999999GF107991031051012501071001IA1289MA1999999100111MD1210181+9999REMSYN076AAXX  20001 15310 32670 73404 11034 21085 30011 40100 52018 83570 333 44015;EQDQ01  00002PRCP99
0163153100999992000012003004+45500+028020FM-12+007299999V0203201N005012200019N0200001N1-00601-01081101151ADDAA199000091GF104991041001999999071001MA1999999100251MD1210141+9999REMSYN066AAXX  20031 15310 32970 43205 11060 21108 30025 40115 52014 84070;EQDQ01  00002PRCP99
0080153100999992000012005004+45500+028020FM-12+007299999V0203201N003012200019N0200001N1-00761+99999999999ADDGF103991021001999999041011REMSYN042AAXX  20051 15310 42970 33203 11076 82041;
0255153100999992000012006004+45500+028020FM-12+007299999V0203201N003019999999N0200001N1-00801-01261101451ADDAA199000091AJ100159199999999GF107991021001999999041061IA1289IA2120-01209KA1120N-00831MA1999999100541MD1210291+9999REMSYN110AAXX  20061 15310 32970 73203 11080 21126 30054 40145 52029 82046 333 21083 3/112 44015 92833 555 10030 69900;EQDQ01  00002PRCP99
0080153100999992000012008004+45500+028020FM-12+007299999V0203401N006019999999N0200001N1-00801+99999999999ADDGF106991999999012501999999REMSYN042AAXX  20081 15310 42670 63406 11080 8////;
0163153100999992000012009004+45500+028020FM-12+007299999V0203201N007012200019N0200001N1-00491-01021101641ADDAA199000091GF104991011011008001041011MA1999999100741MD1210201+9999REMSYN066AAXX  20091 15310 32570 43207 11049 21102 30074 40164 52020 81141;EQDQ01  00002PRCP99
0196153100999992000012012004+45500+028020FM-12+007299999V0202901N006012200019N0200001N1-00241-00881101641ADDAA199000091AJ100159199999999GF104991011011012501071001IA1289MA1999999100751MD1110011+9999REMSYN076AAXX  20121 15310 32670 42906 11024 21088 30075 40164 51001 81170 333 44015;EQDQ01  00002PRCP99
0163153100999992000012015004+45500+028020FM-12+007299999V0202501N006012200019N0200001N1-00331-00971101611ADDAA199000091GF104991021051008001041001MA1999999100711MD1810041+9999REMSYN066AAXX  20151 15310 32570 42506 11033 21097 30071 40161 58004 82540;EQDQ01  00002PRCP99
0080153100999992000012016004+45500+028020FM-12+007299999V0202301N005012200019N0150001N1-00441+99999999999ADDGF103991011051008001041001REMSYN042AAXX  20161 15310 42565 32305 11044 81540;
0045153100999992000012017004+45500+028020FM-12+007299999V02099999999999999999N9999999N1+99999+99999999999REMSYN036AAXX  20171 15310 421// /0//2 85541;
0244153100999992000012018004+45500+028020FM-12+007299999V0201801N002010075019N0100001N1-00391-00651999999ADDAA199000091AJ100099199999999GF106991061051008001001001IA1279KA1120M-00191MD1510051+9999REMSYN094AAXX  20181 15310 32560 61802 11039 21065 39186 40251 55005 86500 333 11019 3/000 43009 92822;EQDQ01+091863APOSP Q02+102513APOSLPQ03  00002PRCP99
0196153100999992000012100004+45500+028020FM-12+007299999V0202501N006012200019N0200001N1-00391-00881101131ADDAA199000091AJ100159199999999GF104991011001999999041011IA1289MA1999999100241MD1710221+9999REMSYN076AAXX  21001 15310 32970 42506 11039 21088 30024 40113 57022 81041 333 44015;EQDQ01  00002PRCP99
0163153100999992000012103004+45500+028020FM-12+007299999V0202301N009019999999N0200001N1-00581-00881100721ADDAA199000091GF106991011001999999041061MA1999999099821MD1710421+9999REMSYN066AAXX  21031 15310 32970 62309 11058 21088 39982 40072 57042 81046;EQDQ01  00002PRCP99
0080153100999992000012105004+45500+028020FM-12+007299999V0202301N006019999999N0200001N1-00541+99999999999ADDGF107991021001999999041061REMSYN042AAXX  21051 15310 42970 72306 11054 82046;
0227153100999992000012106004+45500+028020FM-12+007299999V0202301N006019999999N0200001N1-00441-00781100261ADDAA199000091AJ100159199999999GF108991021001999999041071IA1289KA1120N-00731MA1999999099381MD1710441+9999REMSYN094AAXX  21061 15310 32970 82306 11044 21078 39938 40026 57044 82047 333 21073 3/11/ 44015 92843;EQDQ01  00002PRCP99
0173153100999992000012109004+45500+028020FM-12+007299999V0202501N014010360019N0200001N1-00361-00581099991ADDAA199000091GF107991031051012501071001MA1999999099111MD1710271+9999REMSYN076AAXX  21091 15310 32670 72514 11036 21058 39911 49999 57027 83570 333 91120;EQDQ01  00002PRCP99
0202153100999992000012112004+45500+028020FM-12+007299999V0202501N014010360019N0200001N1-00161-00361099701ADDAA199000091AJ100159199999999GF107991031051012501071001IA1289MA1999999098831MD1710281+9999REMSYN082AAXX  21121 15310 32670 72514 11016 21036 39883 49970 57028 83570 333 44015 91120;EQDQ01  00002PRCP99
0173153100999992000012115004+45500+028020FM-12+007299999V0202501N012010360019N0200001N1+00041-00181099521ADDAA199000091GF106991021051012501031011MA1999999098651MD1710181+9999REMSYN076AAXX  21151 15310 32670 62512 10004 21018 39865 49952 57018 82531 333 91118;EQDQ01  00002PRCP99
0084153100999992000012116004+45500+028020FM-12+007299999V0202501N012010360019N0200001N1+00101+99999999999ADDGF107991031051008001071001REMSYN046AAXX  21161 15310 42570 72512 10010 83570 333;
0080153100999992000012117004+45500+028020FM-12+007299999V0202701N008010360019N0200001N1+00121+99999999999ADDGF108991031051008001071999REMSYN042AAXX  21171 15310 42570 82708 10012 8357/;
0260153100999992000012118004+45500+028020FM-12+007299999V0203401N009010075019N0040001N1-00211-00241099611ADDAA103000191AJ100159199999999AY121061AY221061GF108991081001008001021999IA1289KA1120M+00201MA1999999098731MD1310081+9999MW1711REMSYN124AAXX  21181 15310 /1540 83409 11021 21024 39873 49961 53008 69912 77122 8802/ 333 10020 3/001 44015 69917 92843 92913 96010;
0211153100999992000012200004+45500+028020FM-12+007299999V0203401N005019999999N0150001N1-00401-00741100321ADDAA106000791AJ100159199999999AY171061AY271061GF108991081001999999011999IA1289MA1999999099441MD1210321+9999MW1021REMSYN088AAXX  22001 15310 11965 83405 11040 21074 39944 40032 52032 69901 70277 8801/ 333 44015;
0163153100999992000012203004+45500+028020FM-12+007299999V0203401N006010900019N0100001N1-00491-00811100831ADDAA199000021GF108991021051008001001071MA1999999099941MD1210502+9999REMSYN066AAXX  22031 15310 32560 83406 11049 21081 39994 40083 52050 82507;EQDQ01+000502APC3  
0080153100999992000012204004+45500+028020FM-12+007299999V0203401N006019999999N0150001N1-00581+99999999999ADDGF105991001001999999001081REMSYN042AAXX  22041 15310 42965 53406 11058 80008;
0080153100999992000012205004+45500+028020FM-12+007299999V0203601N004012200019N0150001N1-00701+99999999999ADDGF102991001001999999001011REMSYN042AAXX  22051 15310 42965 23604 11070 80001;
0236153100999992000012206004+45500+028020FM-12+007299999V0203601N004012200019N0150001N1-00711-01141101151ADDAA112000791AJ100159199999999GF102991021001999999041001IA1289IA2120-01209KA1120N-00761MA1999999100251MD1210311+9999REMSYN110AAXX  22061 15310 12965 23604 11071 21114 30025 40115 52031 69902 82040 333 21076 3/112 44015 92843 555 60001;
0163153100999992000012209004+45500+028020FM-12+007299999V0203201N002012200019N0150001N1-00531-01031101431ADDAA199000091GF101991011001999999031001MA1999999100531MD1210281+9999REMSYN066AAXX  22091 15310 32965 13202 11053 21103 30053 40143 52028 81030;EQDQ01  00002PRCP99
0196153100999992000012212004+45500+028020FM-12+007299999V0202501N003012200019N0150001N1-00291-00831101491ADDAA199000091AJ100159199999999GF102991021001999999031001IA1289MA1999999100591MD1110061+9999REMSYN076AAXX  22121 15310 32965 22503 11029 21083 30059 40149 51006 82030 333 44015;EQDQ01  00002PRCP99
0163153100999992000012215004+45500+028020FM-12+007299999V0203401N005012200019N0150001N1-00251-00941101591ADDAA199000091GF103991011041008001031011MA1999999100701MD1210111+9999REMSYN066AAXX  22151 15310 32565 33405 11025 21094 30070 40159 52011 81431;EQDQ01  00002PRCP99
0080153100999992000012216004+45500+028020FM-12+007299999V0203401N003012200019N0150001N1-00501+99999999999ADDGF101991011001999999041001REMSYN042AAXX  22161 15310 42965 13403 11050 81040;
0080153100999992000012217004+45500+028020FM-12+007299999V0200201N003012200019N0150001N1-00681+99999999999ADDGF101991011001999999041001REMSYN042AAXX  22171 15310 42965 10203 11068 81040;
0243153100999992000012218004+45500+028020FM-12+007299999V0200701N003012200019N0150001N1-00751-00811101781ADDAA199000091AJ100159199999999GA1001+999999999GF100991001001999999001001IA1289KA1120M-00081MA1999999100871MD1210171+9999REMSYN094AAXX  22181 15310 32965 00703 11075 21081 30087 40178 52017 333 11008 3/100 44015 92600 92843;EQDQ01  00002PRCP99
0090153100999992000012219004+45500+028020FM-12+007299999V0200501N002012200019N0100001N1-00861+99999999999ADDGF102991001001999999001011REMSYN052AAXX  22191 15310 42960 20502 11086 80001 333 92600;
0090153100999992000012220004+45500+028020FM-12+007299999V0201601N002019999999N0100001N1-00841+99999999999ADDGF105991001001999999001061REMSYN052AAXX  22201 15310 42960 51602 11084 80006 333 92600;
0212153100999992000012300004+45500+028020FM-12+007299999V0202301N002012200019N0100001N1-00831-01021101901ADDAA199000091AJ100159199999999GA1001+999999999GF100991001001999999001001IA1289MA1999999100991MD1110061+9999REMSYN076AAXX  23001 15310 32960 02302 11083 21102 30099 40190 51006 333 44015 92611;EQDQ01  00002PRCP99
0100153100999992000012301004+45500+028020FM-12+007299999V0202001N004012200019N0100001N1-00891+99999999999ADDGA1001+999999999GF100991001001999999001001REMSYN046AAXX  23011 15310 42960 02004 11089 333 92611;
0100153100999992000012302004+45500+028020FM-12+007299999V0202301N003012200019N0100001N1-00971+99999999999ADDGA1001+999999999GF100991001001999999001001REMSYN046AAXX  23021 15310 42960 02303 11097 333 92611;
0183153100999992000012303004+45500+028020FM-12+007299999V0209999C000012200019N0100001N1-01161-01161101831ADDAA199000091GA1001+999999999GF100991001001999999001001MA1999999100911MD1810081+9999REMSYN070AAXX  23031 15310 32960 00000 11116 21116 30091 40183 58008 333 92611;EQDQ01  00002PRCP99
0224153100999992000012306004+45500+028020FM-12+007299999V0202301N002012200019N0100001N1-00961-01041101811ADDAA199000091AJ100159199999999GF101991011001999999041001IA1289IA2120-02009KA1120N-01201MD1610021+9999REMSYN094AAXX  23061 15310 32960 12302 11096 21104 40181 56002 81040 333 21120 3/120 44015 92611 92143;EQDQ01  00002PRCP99
0090153100999992000012307004+45500+028020FM-12+007299999V0201401N001012200019N0100001N1-01081+99999999999ADDGF104991021001999999041011REMSYN052AAXX  23071 15310 42960 41401 11108 82041 333 92611;
0173153100999992000012309004+45500+028020FM-12+007299999V0201401N001019999999N0100001N1-00671-01001101681ADDAA199000091GF105991011001999999041011MA1999999100771MD1810121+9999REMSYN076AAXX  23091 15310 32960 51401 11067 21100 30077 40168 58012 81041 333 92611;EQDQ01  00002PRCP99
0196153100999992000012312004+45500+028020FM-12+007299999V0201401N002019999999N0150001N1-00491-00771101481ADDAA199000091AJ100159199999999GF107991051001999999071081IA1289MA1999999100581MD1710191+9999REMSYN076AAXX  23121 15310 32965 71402 11049 21077 30058 40148 57019 85078 333 44015;EQDQ01  00002PRCP99
0074153100999992000012314004+45500+028020FM-12+007299999V0200501N003019999999N0150001N1+99999+99999999999ADDGF108991011001999999071999REMSYN036AAXX  23141 15310 42965 80503 8107/;
0173153100999992000012315004+45500+028020FM-12+007299999V0200501N003012200019N0150001N1-00461-00701999999ADDAA199000091GF101991999001999999071999MA1999999100431MD1710101+9999REMSYN060AAXX  23151 15310 32965 10503 11046 21070 30043 5701/ 8807/;EQDQ01+000082SCOTLCQ02  00002PRCP99
0074153100999992000012316004+45500+028020FM-12+007299999V0200201N004019999999N0150001N1-00451+99999999999ADDGF108991999999008001999999REMSYN036AAXX  23161 15310 42565 80204 11045;
0080153100999992000012317004+45500+028020FM-12+007299999V0200201N003010075019N0100001N1-00421+99999999999ADDGF108991081001008001021999REMSYN042AAXX  23171 15310 42560 80203 11042 8802/;
0248153100999992000012318004+45500+028020FM-12+007299999V0200201N003010075019N0080001N1-00441-00501101211ADDAA103007091AJ100179199999999AY121061AY221061GF108991081001008001021999IA1289KA1120M-00341MA1999999100321MD1810101+9999MW1711REMSYN112AAXX  23181 15310 /1558 80203 11044 21050 30032 40121 58010 69972 77122 8802/ 333 11034 3/101 44017 60077 92803;
0108153100999992000012319004+45500+028020FM-12+007299999V0200201N003010075019N0060001N1-00441+99999999999ADDAY171011AY271011GF108991081001008001021999MW1711REMSYN048AAXX  23191 15310 41556 80203 11044 77177 8802/;
0118153100999992000012320004+45500+028020FM-12+007299999V0200201N003010075019N0040001N1-00461+99999999999ADDAY171999AY271999GF108991081001008001021999MW1711REMSYN058AAXX  23201 15310 41540 80203 11046 77177 8802/ 333 96010;
0194153100999992000012321004+45500+028020FM-12+007299999V0200201N003010075019N0040001N1-00461-00461101041ADDAA103003091AY171031AY271031GF108991081001008001021999MA1999999100151MD1810171+9999MW1711REMSYN094AAXX  23211 15310 21540 80203 11046 21046 30015 40104 58017 77177 8802/ 333 55022 60037 96010;
0118153100999992000012322004+45500+028020FM-12+007299999V0200201N003010075019N0040001N1-00341+99999999999ADDAY171999AY271999GF108991081001008001021999MW1711REMSYN058AAXX  23221 15310 41540 80203 11034 77177 8802/ 333 96010;
0118153100999992000012323004+45500+028020FM-12+007299999V0200901N002010075019N0040001N1-00081+99999999999ADDAY171999AY271999GF108991081001008001021999MW1711REMSYN058AAXX  23231 15310 41540 80902 11008 77177 8802/ 333 96010;
0217153100999992000012400004+45500+028020FM-12+007299999V0200901N002010075019N0040001N1-00061-00061100721ADDAA103005191AJ100209199999999AY171061AY271061GF108991081001008001021999IA1249MA1999999099841MD1710311+9999MW1711REMSYN094AAXX  24001 15310 /1540 80902 11006 21006 39984 40072 57031 60051 77177 8802/ 333 48020 60057;
0118153100999992000012401004+45500+028020FM-12+007299999V0200901N001010075019N0040001N1-00041+99999999999ADDAY171999AY271999GF108991081001008001021999MW1711REMSYN058AAXX  24011 15310 41540 80901 11004 77177 8802/ 333 96010;
0118153100999992000012402004+45500+028020FM-12+007299999V0200901N001010075019N0040001N1-00041+99999999999ADDAY171999AY271999GF108991081001008001021999MW1711REMSYN058AAXX  24021 15310 41540 80901 11004 77177 8802/ 333 96010;
0188153100999992000012403004+45500+028020FM-12+007299999V0200901N001010075019N0040001N1-00041-00041100441ADDAA103007091AY171031AY271031GF108991081001008001021999MA1999999099561MD1710281+9999MW1711REMSYN088AAXX  24031 15310 21540 80901 11004 21004 39956 40044 57028 77177 8802/ 333 60077 96010;
0288153100999992000012406004+45500+028020FM-12+007299999V0200701N005010075019N0040001N1-00561-00561100291ADDAA103007091AJ100329199999999AY171061AY271061GF108991081001008001021999IA1249IA2120-00809KA1120N-00611MA1999999099411MD1710151+9999MW1711REMSYN140AAXX  24061 15310 /1540 80705 11056 21056 39941 40029 57015 60192 77177 8802/ 333 21061 3/108 48032 60077 92803 92913 96036 96010 555 60061;
0211153100999992000012409004+45500+028020FM-12+007299999V0203401N010010075019N0020001N1-00721-00721100221ADDAA103003091AY171031AY271031GF108991081001008001021999MA1999999099331MD1810081+9999MW1711OA149901601REMSYN100AAXX  24091 15310 21520 83410 11072 21072 39933 40022 58008 77177 8802/ 333 60037 91116 92973 96010;
0246153100999992000012412004+45500+028020FM-12+007299999V0203401N012010075019N0020001N1-00761-00891100191ADDAA103001091AJ100359199999999AY171061AY271061GF108991081001008001021999IA1249MA1999999099301MD1510031+9999MW1711OA149901801REMSYN112AAXX  24121 15310 /1520 83412 11076 21089 39930 40019 55003 60041 77177 8802/ 333 48035 60017 91118 92972 96010;
0211153100999992000012415004+45500+028020FM-12+007299999V0203401N012010075019N0010001N1-00781-00921100571ADDAA103000591AY171031AY271031GF108991081001008001021999MA1999999099661MD1210361+9999MW1711OA149901801REMSYN100AAXX  24151 15310 21510 83412 11078 21092 39966 40057 52036 77177 8802/ 333 69957 91118 92972 96010;
0141153100999992000012417004+45500+028020FM-12+007299999V0203401N012010075019N0010001N1-00781+99999999999ADDAY171999AY271999GF108991081001008001021999MW1711OA149901801REMSYN070AAXX  24171 15310 41510 83412 11078 77177 8802/ 333 91118 92972 96010;
0264153100999992000012418004+45500+028020FM-12+007299999V0203401N012010075019N0020001N1-00821-00841100801ADDAA103000291AJ100379199999999AY171061AY271061GF105991051001008001021001IA1249MA1999999099891MD1210231+9999MW1391OA149901801REMSYN130AAXX  24181 15310 /1520 53412 11082 21084 39989 40080 52023 60042 73977 85020 333 17055 3/105 48037 69927 91118 92813 92952 96010;
0158153100999992000012419004+45500+028020FM-12+007299999V02099999999992200019N0020001N1-00841+99999999999ADDAY111999AY211999GF103991031001999999031001MW1391OA149999999REMSYN068AAXX  24191 15310 41920 334/8 11084 73911 83030 333 91118 92952 910;EQDQ01  01802WGOSPD
0130153100999992000012420004+45500+028020FM-12+007299999V0203401N012012200019N0020001N1-00881+99999999999ADDAY131999AY231999GF103991031001999999031001MW1391REMSYN070AAXX  24201 15310 41920 33412 11088 73933 83030 333 90118 92952 96010;
0205153100999992000012421004+45500+028020FM-12+007299999V0203601N012019999999N0030001N1-00861-00861101061ADDAA199000021AY111031AY211031GF107991071001999999071001MA1999999100151MD1210261+9999MW1371OA149901801REMSYN094AAXX  24211 15310 31930 73612 11086 21086 30015 40106 52026 73711 87070 333 91118 92915 96010;
0141153100999992000012422004+45500+028020FM-12+007299999V0203401N012010360019N0030001N1-00901+99999999999ADDAY121999AY221999GF108991031051008001071999MW1371OA149901801REMSYN070AAXX  24221 15310 41530 83412 11090 73722 8357/ 333 91118 92912 96010;
0141153100999992000012423004+45500+028020FM-12+007299999V0203601N012010360019N0030001N1-00961+99999999999ADDAY121999AY221999GF106991031051008001071001MW1371OA149901801REMSYN070AAXX  24231 15310 41530 63612 11096 73722 83570 333 91118 92912 96010;
0185153100999992000012500004+45500+028020FM-12+007299999V0203601N012010360019N0030001N1-00951+99999101321ADDAA199000021AY131061AY211061GF107991031051008001071001IA1249MA1999999100421MW1371OA149901801REMSYN082AAXX  25001 15310 31530 73612 11095 30042 40132 73731 83570 333 48//7 91118 9291-;
0141153100999992000012501004+45500+028020FM-12+007299999V0203601N012010360019N0030001N1-01021+99999999999ADDAY121999AY221999GF108991041051008001071999MW1371OA149901801REMSYN070AAXX  25011 15310 41530 83612 11102 73722 8457/ 333 91118 92912 96010;
0141153100999992000012502004+45500+028020FM-12+007299999V0203401N012010360019N0030001N1-01021+99999999999ADDAY121999AY221999GF108991041051008001071999MW1371OA149901801REMSYN070AAXX  25021 15310 41530 83412 11102 73722 8457/ 333 91118 92912 96010;
0205153100999992000012503004+45500+028020FM-12+007299999V0203401N012010360019N0030001N1-01051-01091101721ADDAA199000021AY121031AY221031GF108991041051008001071999MA1999999100801MD1210381+9999MW1361OA149901801REMSYN094AAXX  25031 15310 31530 83412 11105 21109 30080 40172 52038 73622 8457/ 333 91118 92911 96010;
0141153100999992000012504004+45500+028020FM-12+007299999V0203401N012010360019N0030001N1-01061+99999999999ADDAY121999AY221999GF108991041051008001071999MW1361OA149901801REMSYN070AAXX  25041 15310 41530 83412 11106 73622 8457/ 333 91118 92912 96010;
0141153100999992000012505004+45500+028020FM-12+007299999V0203401N010010360019N0030001N1-01091+99999999999ADDAY121999AY221999GF108991041051008001071999MW1361OA149901601REMSYN070AAXX  25051 15310 41530 83410 11109 73622 8457/ 333 91116 92912 96010;
0312153100999992000012506004+45500+028020FM-12+007299999V0203401N010010360019N0080001N1-01161-01401101921ADDAA199000091AJ100339199999999AY121061AY221061GF108991041051008001021999IA1249IA2120-01409KA1120N-01161MA1999999101001MD1210201+9999MW1361OA149901601REMSYN134AAXX  25061 15310 31558 83410 11116 21140 30100 40192 52020 73622 8452/ 333 21116 3/114 48033 91116 92813 92912 96010 555 10019 60044;EQDQ01  00002PRCP99
0163153100999992000012509004+45500+028020FM-12+007299999V0203601N007019999999N0150001N1-01041-01361102271ADDAA199000091GF108991051001999999011071MA1999999101351MD1210351+9999REMSYN066AAXX  25091 15310 32965 83607 11104 21136 30135 40227 52035 85017;EQDQ01  00002PRCP99
0196153100999992000012512004+45500+028020FM-12+007299999V0200201N004012200019N0200001N1-00871-01301102301ADDAA199000091AJ100339199999999GF104991011001999999041081IA1249MA1999999101381MD1110031+9999REMSYN076AAXX  25121 15310 32970 40204 11087 21130 30138 40230 51003 81048 333 48033;EQDQ01  00002PRCP99
0163153100999992000012515004+45500+028020FM-12+007299999V0200501N003012200019N0200001N1-01101-01441102531ADDAA199000091GF102991011001999999041011MA1999999101601MD1310221+9999REMSYN066AAXX  25151 15310 32970 20503 11110 21144 30160 40253 53022 81041;EQDQ01  00002PRCP99
0080153100999992000012516004+45500+028020FM-12+007299999V0209999C000012200019N0150001N1-01211+99999999999ADDGF102991011001999999021999REMSYN042AAXX  25161 15310 42965 20000 11121 8102/;
0115153100999992000012517004+45500+028020FM-12+007299999V0203201N001012200019N0150001N1+99999+99999999999ADDGA1001+999999999GF100991001001999999001001REMSYN042AAXX  25171 15310 42965 03201 11233 92600;EQDQ01-002333ATOT  
0243153100999992000012518004+45500+028020FM-12+007299999V0209999C000012200019N0150001N1-01231-01581102581ADDAA199000091AJ100339199999999GA1001+999999999GF100991001001999999001001IA1249KA1120M-00851MA1999999101641MD1110041+9999REMSYN094AAXX  25181 15310 32965 00000 11123 21158 30164 40258 51004 333 11085 3/106 48033 92600 92826;EQDQ01  00002PRCP99
0212153100999992000012521004+45500+028020FM-12+007299999V0209999C000012200019N0100001N1-01561-01621102581ADDAA199000091AJ100339199999999GA1001+999999999GF100991001001999999001001IA1249MA1999999101631MD1810011+9999REMSYN076AAXX  25211 15310 32960 00000 11156 21162 30163 40258 58001 333 48033 92611;EQDQ01  00002PRCP99
0212153100999992000012601004+45500+028020FM-12+007299999V0209999C000012200019N0100001N1-01561-01621102581ADDAA199000091AJ100339199999999GA1001+999999999GF100991001001999999001001IA1249MA1999999101631MD1810011+9999REMSYN076AAXX  26011 15310 32960 00000 11156 21162 30163 40258 58001 333 48033 92611;EQDQ01  00002PRCP99
0189153100999992000012603004+45500+028020FM-12+007299999V0209999C000012200019N0020001N1-01671-01731102471ADDAA199000091GA1001+999999999GF100991001001999999001001MA1999999101521MD1710111+9999REMSYN076AAXX  26031 15310 31920 00000 11167 21173 30152 40247 57011 333 92612 92712;EQDQ01  00002PRCP99
0279153100999992000012606004+45500+028020FM-12+007299999V0202301N004019999999N0020001N1-01591-01651102311ADDAA199000091AJ100339199999999AY111061AY211061GF106991001001999999001061IA1249IA2120-02309KA1120N-01801MA1999999101371MD1710151+9999MW1101REMSYN112AAXX  26061 15310 31920 62304 11159 21165 30137 40231 57015 71011 80006 333 21180 3/123 48033 92612 92713 92826;EQDQ01  00002PRCP99
0207153100999992000012609004+45500+028020FM-12+007299999V0202301N006019999999N0040001N1-01451-01511102311ADDAA199000091AY121031AY221031GF106991001001999999001081MA1999999101371MD1410001+9999MW1101REMSYN088AAXX  26091 15310 31940 62306 11145 21151 30137 40231 54000 71022 80008 333 92612 92717;EQDQ01  00002PRCP99
0201153100999992000012612004+45500+028020FM-12+007299999V0202301N006012200019N0040001N1-00991-01301102131ADDAA199000091AY111061AY211061GF104991021001999999031011MA1999999101211MD1810161+9999MW1101REMSYN082AAXX  26121 15310 31940 42306 11099 21130 30121 40213 58016 71011 82031 333 93510;EQDQ01  00002PRCP99
0191153100999992000012615004+45500+028020FM-12+007299999V0202301N006019999999N0040001N1-00981-01291102101ADDAA199000091AY111031AY211031GF107991071001999999071001MA1999999101181MD1710031+9999MW1101REMSYN072AAXX  26151 15310 31940 72306 11098 21129 30118 40210 57003 71011 87070;EQDQ01  00002PRCP99
0108153100999992000012616004+45500+028020FM-12+007299999V0202301N006019999999N0040001N1-01021+99999999999ADDAY121999AY221999GF108991081001999999071999MW1101REMSYN048AAXX  26161 15310 41940 82306 11102 71022 8807/;
