0229153730999992000010100004+44850+024870FM-12+031599999V0203601N003010042019N0005001N1-00181-00181101711ADDAA106007191AJ100099199999999AY171061AY241061GF108991061071004501021999IA1279MA1999999097781MD1710081+9999MW1711REMSYN106AAXX  01001 15373 /1405 83603 11018 21018 39778 40171 57008 60071 77174 8672/ 333 43009 70057 92800 96044;
0118153730999992000010101004+44850+024870FM-12+031599999V0200201N002019999999N0005001N1-00191+99999999999ADDAY171999AY241999GF108991061071999999021999MW1711REMSYN058AAXX  01011 15373 41/05 80202 11019 77174 8672/ 333 96044;
0118153730999992000010104004+44850+024870FM-12+031599999V0203401N002010042019N0009001N1-00161+99999999999ADDAY171999AY241999GF108991061071004501021999MW1711REMSYN058AAXX  01041 15373 41409 83402 11016 77174 8672/ 333 96044;
0108153730999992000010105004+44850+024870FM-12+031599999V0203601N002010042019N0030001N1-00171+99999999999ADDAY171999AY241999GF108991051071004501021999MW1711REMSYN048AAXX  01051 15373 41430 83602 11017 77174 8572/;
0237153730999992000010106004+44850+024870FM-12+031599999V0203601N003010042019N0030001N1-00181-00181101851ADDAA103002091AY171061AY241061GF108991051071004501021999IA2120-00309KA1120N-00211MA1999999097911MD1210081+9999MW1711REMSYN112AAXX  01061 15373 /1430 83603 11018 21018 39791 40185 52008 60162 77174 8572/ 333 21021 3/103 4//18 60027 92800;
0108153730999992000010107004+44850+024870FM-12+031599999V0209999C000010042019N0030001N1-00161+99999999999ADDAY171011AY271011GF108991051071004501021999MW1711REMSYN048AAXX  01071 15373 41430 80000 11016 77177 8572/;
0108153730999992000010108004+44850+024870FM-12+031599999V0209999C000010360019N0070001N1-00141+99999999999ADDAY171999AY221999GF108991041071008001021091MW1221REMSYN048AAXX  01081 15373 41557 80000 11014 72272 84729;
0176153730999992000010109004+44850+024870FM-12+031599999V0209999C999999999999N0100001N1+99999+99999101951ADDAA103000191AY171031AY221031GF108991081001999999071999MA1999999098021MD1110111+9999MW1011REMSYN076AAXX  01091 15373 21960 80080 21030 39802 40195 51011 70172 8807/ 333 69917;
0080153730999992000010110004+44850+024870FM-12+031599999V0209999C000010120019N0100001N1+00011+99999999999ADDGF107991071051012501001999REMSYN042AAXX  01101 15373 4/660 70000 10001 8750/;
0179153730999992000010112004+44850+024870FM-12+031599999V0202501N001019999999N0180001N1+00011-00261101951ADDAA106000191AJ100189199999999AY171061AY221061IA1279MA1999999098041MD1210021+9999MW1021REMSYN082AAXX  01121 15373 11668 /2501 10001 21026 39804 40195 52002 69911 70272 333 43018;
0080153730999992000010114004+44850+024870FM-12+031599999V0202501N002019999999N0100001N1+00001+99999999999ADDGF106991061001999999071001REMSYN042AAXX  01141 15373 42960 62502 10000 86070;
0163153730999992000010115004+44850+024870FM-12+031599999V0202901N001019999999N0100001N1+00021-00311102101ADDAA106000091GF105991051001999999071001MA1999999098191MD1210151+9999REMSYN066AAXX  01151 15373 32960 52901 10002 21031 39819 40210 52015 85070;EQDQ01  00002PRCP06
0080153730999992000010116004+44850+024870FM-12+031599999V0202901N001012200019N9999999N1-00101+99999999999ADDGF104991021001999999041011REMSYN042AAXX  01161 15373 429/0 42901 11010 82041;
0090153730999992000010117004+44850+024870FM-12+031599999V0202901N001012200019N0100001N1-00171+99999999999ADDGA1001+999999999GF100991001001999999001001REMSYN036AAXX  01171 15373 42960 02901 11017;
0224153730999992000010118004+44850+024870FM-12+031599999V0203401N001012200019N0100001N1-00211-00601102271ADDAA112000191AJ100179199999999GA1001+999999999GF100991001001999999001001IA1279KA1120M+00061MA1999999098301MD1210111+9999REMSYN094AAXX  01181 15373 12960 03401 11021 21060 39830 40227 52011 69912 333 10006 3/003 43017 92821;
0080153730999992000010119004+44850+024870FM-12+031599999V0203601N001019999999N0100001N1-00291+99999999999ADDGF106991061001999999071001REMSYN042AAXX  01191 15373 42960 63601 11029 86070;
0080153730999992000010120004+44850+024870FM-12+031599999V0203601N002019999999N0100001N1-00311+99999999999ADDGF108991081001999999071999REMSYN042AAXX  01201 15373 42960 83602 11031 8807/;
0173153730999992000010121004+44850+024870FM-12+031599999V0203601N002019999999N0100001N1-00351-00561102411ADDAA106000091GF107991071001999999071001MA1999999098421MD1210121+9999REMSYN076AAXX  01211 15373 32960 73602 11035 21056 39842 40241 52012 87070 333 55002;EQDQ01  00002PRCP06
0080153730999992000010122004+44850+024870FM-12+031599999V0203601N001019999999N0100001N1-00391+99999999999ADDGF107991071001999999071001REMSYN042AAXX  01221 15373 42960 73601 11039 87070;
0080153730999992000010123004+44850+024870FM-12+031599999V0200201N001019999999N0100001N1-00431+99999999999ADDGF108991081001999999071999REMSYN042AAXX  01231 15373 42960 80201 11043 8807/;
0202153730999992000010200004+44850+024870FM-12+031599999V0203601N001019999999N0100001N1-00491-00701102431ADDAA106000091AJ100179199999999GF108991081001999999071999IA1279MA1999999098431MD1210011+9999REMSYN082AAXX  02001 15373 32960 83601 11049 21070 39843 40243 52001 8807/ 333 43017 92821;EQDQ01  00002PRCP06
0080153730999992000010201004+44850+024870FM-12+031599999V0203601N001019999999N0100001N1-00491+99999999999ADDGF108991081001999999071999REMSYN042AAXX  02011 15373 42960 83601 11049 8807/;
0080153730999992000010202004+44850+024870FM-12+031599999V0203601N003019999999N0100001N1-00511+99999999999ADDGF106991061001999999071001REMSYN042AAXX  02021 15373 42960 63603 11051 86070;
0157153730999992000010203004+44850+024870FM-12+031599999V0203601N001019999999N0100001N1-00491-00701999999ADDAA106000091GF107991071001999999071001MA1999999098481MD1210051+9999REMSYN060AAXX  02031 15373 32960 73601 11049 21070 39848 52005 87070;EQDQ01  00002PRCP06
0080153730999992000010204004+44850+024870FM-12+031599999V0209999C000019999999N0100001N1-00461+99999999999ADDGF108991081001999999071999REMSYN042AAXX  02041 15373 42960 80000 11046 8807/;
0080153730999992000010205004+44850+024870FM-12+031599999V0209999C000019999999N0100001N1-00451+99999999999ADDGF108991081001999999071999REMSYN042AAXX  02051 15373 42960 80000 11045 8807/;
0281153730999992000010206004+44850+024870FM-12+031599999V0203601N001019999999N0100001N1-00441-00711102621ADDAA106000091AJ100179199999999GF108991081001999999071999IA1279IA2120-00709KA1120N-00551MA1999999098611MD1410001+9999REMSYN104AAXX  02061 15373 31960 83601 11044 21071 39861 40262 52073 8807/ 333 21055 3/107 43017 92821 555 60001;EQDQ01+000022APCTENQ02+000732APC3  Q03  00002PRCP06
0082153730999992000010207004+44850+024870FM-12+031599999V0203601N001019999999N0045001N1-00421+99999999999ADDAY121011AY221011MW1711REMSYN048AAXX  02071 15373 41545 /3601 11042 77122 8802/;
0145153730999992000010209004+44850+024870FM-12+031599999V0209999C000010360019N0030001N1-00281+99999102691ADDAY171031AY221031GF108991031071008001071999MA1999999098711MW1221REMSYN070AAXX  02091 15373 21530 80000 11028 210// 39871 40269 72272 8377/ 333;
0223153730999992000010212004+44850+024870FM-12+031599999V0209999C000019999999N0045001N1-00041-00221102681ADDAA103000591AJ100169199999999AY171061AY221061GF108991081001999999071999IA1279MA1999999098731MD1110021+9999MW1221REMSYN100AAXX  02121 15373 /1945 80000 11004 21022 39873 40268 51002 69961 72272 8807/ 333 43016 69957 92802;
0143153730999992000010213004+44850+024870FM-12+031599999V0209999C999999999999N0070001N1+99999+99999999999ADDAY121011AY221011GF108991999001999999071001MW1101REMSYN048AAXX  02131 15373 41957 87000 10080 71022 87070;EQDQ01+000072SCOTLCQ02+000803ATOT  
0080153730999992000010214004+44850+024870FM-12+031599999V0209999C000010075019N0100001N1-00011+99999999999ADDGF108991081051008001999999REMSYN042AAXX  02141 15373 42560 80000 11001 885//;
0144153730999992000010215004+44850+024870FM-12+031599999V0203601N001010075019N0100001N1-00061-00241102761ADDAA106000021GF108991051051008001071999MA1999999098801MD1310071+9999REMSYN066AAXX  02151 15373 32560 83601 11006 21024 39880 40276 53007 8557/;
0080153730999992000010216004+44850+024870FM-12+031599999V0209999C000010075019N0100001N1-00121+99999999999ADDGF108991081051008001999999REMSYN042AAXX  02161 15373 42560 80000 11012 885//;
0080153730999992000010217004+44850+024870FM-12+031599999V0209999C000010360019N0100001N1-00131+99999999999ADDGF108991041051008001071999REMSYN042AAXX  02171 15373 42560 80000 11013 8457/;
0214153730999992000010218004+44850+024870FM-12+031599999V0200501N001010360019N0100001N1-00171-00311102801ADDAA112000591AJ100169199999999GF108991041051008001071999IA1279KA1120M+00011MA1999999098831MD1310031+9999REMSYN100AAXX  02181 15373 12560 80501 11017 21031 39883 40280 53003 69962 8457/ 333 10001 3/001 43016 92852;
0080153730999992000010219004+44850+024870FM-12+031599999V0209999C000010360019N0100001N1-00211+99999999999ADDGF108991031051008001071999REMSYN042AAXX  02191 15373 42560 80000 11021 8357/;
0080153730999992000010220004+44850+024870FM-12+031599999V0200201N001010360019N0100001N1-00241+99999999999ADDGF108991041051008001071999REMSYN042AAXX  02201 15373 42560 80201 11024 8457/;
0173153730999992000010221004+44850+024870FM-12+031599999V0200201N001010360019N0100001N1-00281-00391102951ADDAA106000091GF108991031051008001071999MA1999999098961MD1210131+9999REMSYN076AAXX  02211 15373 32560 80201 11028 21039 39896 40295 52013 8357/ 333 55000;EQDQ01  00002PRCP06
0080153730999992000010222004+44850+024870FM-12+031599999V0203601N001019999999N0100001N1-00301+99999999999ADDGF107991071001999999071001REMSYN042AAXX  02221 15373 42960 73601 11030 87070;
0080153730999992000010223004+44850+024870FM-12+031599999V0203401N001012200019N0100001N1-00351+99999999999ADDGF102991021001999999041001REMSYN042AAXX  02231 15373 42960 23401 11035 82040;
0202153730999992000010300004+44850+024870FM-12+031599999V0203601N001012200019N0100001N1-00401-00701102981ADDAA106000091AJ100169199999999GF101991011001999999041001IA1279MA1999999098961MD1410001+9999REMSYN082AAXX  03001 15373 32960 13601 11040 2107/ 39896 40298 54000 81040 333 43016 92852;EQDQ01  00002PRCP06
0090153730999992000010301004+44850+024870FM-12+031599999V0203401N001012200019N0100001N1-00541+99999999999ADDGA1001+999999999GF100991001001999999001001REMSYN036AAXX  03011 15373 42960 03401 11054;
0074153730999992000010302004+44850+024870FM-12+031599999V0203601N002012200019N0100001N1-00541+99999999999ADDGF101991999999999999999999REMSYN036AAXX  03021 15373 42960 13602 11054;
0173153730999992000010303004+44850+024870FM-12+031599999V0203601N002012200019N0100001N1-00701-00951103021ADDAA106000091GA1001+999999999GF100991001001999999001001MA1999999098961MD1410001+9999REMSYN060AAXX  03031 15373 32960 03602 11070 21095 39896 40302 54000;EQDQ01  00002PRCP06
0090153730999992000010304004+44850+024870FM-12+031599999V0200201N003012200019N0100001N1-00781+99999999999ADDGA1001+999999999GF100991001001999999001001REMSYN036AAXX  03041 15373 42960 00203 11078;
0080153730999992000010307004+44850+024870FM-12+031599999V0209999C000012200019N0750001N1-00931+99999999999ADDGF101991011001999999041001REMSYN042AAXX  03071 15373 42989 10000 11093 81040;
0074153730999992000010308004+44850+024870FM-12+031599999V0203601N001012200019N0290001N1-00511+99999999999ADDGF101991999999999999999999REMSYN036AAXX  03081 15373 42979 13601 11051;
0080153730999992000010316004+44850+024870FM-12+031599999V0209999C000019999999N0100001N1-00281+99999999999ADDGF108991081001999999071999REMSYN042AAXX  03161 15373 42960 80000 11028 8807/;
0080153730999992000010317004+44850+024870FM-12+031599999V0209999C000019999999N0100001N1-00251+99999999999ADDGF108991081051999999999999REMSYN042AAXX  03171 15373 42960 80000 11025 885//;
0227153730999992000010318004+44850+024870FM-12+031599999V0209999C000010075019N0100001N1-00251-00691102371ADDAA106000091AJ100129199999999GF106991061051008001001001IA1279KA1120M+00111MA1999999098401MD1710151+9999REMSYN094AAXX  03181 15373 32560 60000 11025 21069 39840 40237 57015 86500 333 10011 3/003 43012 92832;EQDQ01  00002PRCP06
0080153730999992000010319004+44850+024870FM-12+031599999V0209999C000010075019N0100001N1-00281+99999999999ADDGF108991081051008001999999REMSYN042AAXX  03191 15373 42560 80000 11028 885//;
0080153730999992000010320004+44850+024870FM-12+031599999V0203201N001010075019N0100001N1-00341+99999999999ADDGF108991081051008001999999REMSYN042AAXX  03201 15373 42560 83201 11034 885//;
0173153730999992000010321004+44850+024870FM-12+031599999V0203201N001010075019N0100001N1-00361-00681102471ADDAA106000091GF108991081051008001999999MA1999999098481MD1310081+9999REMSYN076AAXX  03211 15373 32560 83201 11036 21068 39848 40247 53008 885// 333 55057;EQDQ01  00002PRCP06
0080153730999992000010322004+44850+024870FM-12+031599999V0209999C000010075019N0100001N1-00361+99999999999ADDGF107991071051008001001001REMSYN042AAXX  03221 15373 42560 70000 11036 87500;
0080153730999992000010323004+44850+024870FM-12+031599999V0209999C000010075019N0100001N1+99999+99999999999ADDGF107991071051008001001001REMSYN042AAXX  03231 15373 42560 70000 12036 87500;
0147153730999992000010400004+44850+024870FM-12+031599999V0203601N002019999999N0100001N1-00361-00651102351ADDAA106000091MA1999999098371MD1810111+9999REMSYN076AAXX  04001 15373 32560 /3602 11036 21065 39837 40235 58011 87500 333 92832;EQDQ01  00002PRCP06
0090153730999992000010402004+44850+024870FM-12+031599999V0209999C000012200019N0100001N1-00401+99999999999ADDGA1001+999999999GF100991001001999999001001REMSYN036AAXX  04021 15373 42960 00000 11040;
0090153730999992000010405004+44850+024870FM-12+031599999V0203601N002012200019N0100001N1-00441+99999999999ADDGF102991011001999999041011REMSYN052AAXX  04051 15373 42960 23602 11044 81041 333 92610;
0100153730999992000010422004+44850+024870FM-12+031599999V0209999C000012200019N0100001N1-00481+99999999999ADDGA1001+999999999GF100991001001999999001001REMSYN046AAXX  04221 15373 42960 00000 11048 333 92612;
0208153730999992000010423004+44850+024870FM-12+031599999V0203601N001012200019N0100001N1-00581-00651102351ADDAA106000091AJ100109199999999GF102991021001999999041001IA1279MA1999999098341MD1710071+9999REMSYN088AAXX  04231 15373 32960 23601 11058 21065 39834 40235 57007 82040 333 43010 92612 92832;EQDQ01  00002PRCP06
0084153730999992000010501004+44850+024870FM-12+031599999V0209999C000019999999N0100001N1-00581+99999999999ADDGF105991999999999999999999REMSYN046AAXX  05011 15373 42960 50000 11058 333 92612;
0090153730999992000010502004+44850+024870FM-12+031599999V0209999C000019999999N0100001N1-00571+99999999999ADDGF107991071001999999071001REMSYN052AAXX  05021 15373 42960 70000 11057 87070 333 92612;
0173153730999992000010503004+44850+024870FM-12+031599999V0203601N001012200019N0100001N1-00561-00681102201ADDAA106000091GF102991021001999999041001MA1999999098201MD1710141+9999REMSYN076AAXX  05031 15373 32960 23601 11056 21068 39820 40220 57014 82040 333 92612;EQDQ01  00002PRCP06
0100153730999992000010504004+44850+024870FM-12+031599999V0203601N001012200019N0100001N1-00621+99999999999ADDGA1001+999999999GF100991001001999999001001REMSYN046AAXX  05041 15373 42960 03601 11062 333 92612;
0084153730999992000010505004+44850+024870FM-12+031599999V0203601N002012200019N0100001N1-00621+99999999999ADDGF101991999999999999999999REMSYN046AAXX  05051 15373 42960 13602 11062 333 92612;
0068153730999992000010507004+44850+024870FM-12+031599999V0203601N002012200019N0100001N1+99999+99999999999ADDGF102991999999999999999999REMSYN030AAXX  05071 15373 42960 23602;
0080153730999992000010516004+44850+024870FM-12+031599999V0202301N001019999999N0100001N1-00081+99999999999ADDGF106991061001999999071001REMSYN042AAXX  05161 15373 42960 62301 11008 86070;
0074153730999992000010517004+44850+024870FM-12+031599999V02099999999992200019N9999999N1+99999+99999999999ADDGF103991999999999999999999REMSYN036AAXX  05171 15373 429// 304// 21070;
0227153730999992000010518004+44850+024870FM-12+031599999V0203601N001019999999N0100001N1-00031-00271101991ADDAA106000091AJ100109199999999GF106991061001999999071001IA1279KA1120M+00331MA1999999098061MD1810011+9999REMSYN094AAXX  05181 15373 32960 63601 11003 21027 39806 40199 58001 86070 333 10033 3/001 43010 92832;EQDQ01  00002PRCP06
0080153730999992000010519004+44850+024870FM-12+031599999V0203201N001019999999N0100001N1-00011+99999999999ADDGF105991051001999999071001REMSYN042AAXX  05191 15373 42960 53201 11001 85070;
0201153730999992000010521004+44850+024870FM-12+031599999V02099999999999999999N0045001N1-00051-00361101991ADDAA106000091AY121031AY221031GF106991061001999999071001MA1999999098061MD1410001+9999MW1101REMSYN082AAXX  05211 15373 31945 63//1 11005 21036 39806 40199 54000 71022 86070 333 55059;EQDQ01  00002PRCP06
0230153730999992000010600004+44850+024870FM-12+031599999V0203601N002019999999N0070001N1-00251-00311102051ADDAA106000091AJ100109199999999AY121061AY221061GF107991071001999999071001IA1279MA1999999098091MD1310031+9999MW1101REMSYN088AAXX  06001 15373 31957 73602 11025 21031 39809 40205 53003 71022 87070 333 43010 92832;EQDQ01  00002PRCP06
0068153730999992000010604004+44850+024870FM-12+031599999V02099999999999999999N0070001N1+99999+99999999999ADDGF107991999999999999999999REMSYN030AAXX  06041 15373 41957 705/2;
0108153730999992000010605004+44850+024870FM-12+031599999V0200201N001019999999N0070001N1-00281+99999999999ADDAY121999AY221999GF108991081001999999071999MW1101REMSYN048AAXX  06051 15373 41957 80201 11028 71022 8807/;
0137153730999992000010606004+44850+024870FM-12+031599999V0200201N001019999999N0070001N1-00261-00361102101ADDAA106000091GF107991999999999999999999MA1999999098141REMSYN054AAXX  06061 15373 31957 70201 11026 21036 39814 40210;EQDQ01  00002PRCP06
0080153730999992000010614004+44850+024870FM-12+031599999V0209999C000019999999N0100001N1+00261+99999999999ADDGF107991071001999999071001REMSYN042AAXX  06141 15373 42960 70000 10026 87070;
0191153730999992000010615004+44850+024870FM-12+031599999V0209999C000019999999N0070001N1+00221-00881102211ADDAA106000091AY121031AY221031GF106991061001999999071001MA1999999098321MD1210061+9999MW1101REMSYN072AAXX  06151 15373 31957 60000 10022 21088 39832 40221 52006 71022 86070;EQDQ01  00002PRCP06
0108153730999992000010616004+44850+024870FM-12+031599999V0209999C000019999999N0045001N1+00131+99999999999ADDAY121999AY221999GF107991071001999999071001MW1101REMSYN048AAXX  06161 15373 41945 70000 10013 71022 87070;
0108153730999992000010619004+44850+024870FM-12+031599999V0209999C000012200019N0045001N1-00121+99999999999ADDAY111999AY201999GF104991041001999999071001MW1101REMSYN048AAXX  06191 15373 41945 40000 11012 71010 84070;
0100153730999992000010620004+44850+024870FM-12+031599999V0203401N001012200019N0070001N1-00141+99999999999ADDGA1001+999999999GF100991001001999999001001REMSYN046AAXX  06201 15373 41957 03401 11014 333 92600;
0189153730999992000010621004+44850+024870FM-12+031599999V0203601N001012200019N0100001N1-00191-00351102531ADDAA106000091GA1001+999999999GF100991001001999999001001MA1999999098571MD1210141+9999REMSYN076AAXX  06211 15373 32960 03601 11019 21035 39857 40253 52014 333 55012 92600;EQDQ01  00002PRCP06
0100153730999992000010622004+44850+024870FM-12+031599999V0203601N002012200019N0100001N1-00221+99999999999ADDGA1001+999999999GF100991001001999999001001REMSYN046AAXX  06221 15373 42960 03602 11022 333 92600;
0100153730999992000010623004+44850+024870FM-12+031599999V0203401N003012200019N0100001N1-00241+99999999999ADDGA1001+999999999GF100991001001999999001001REMSYN046AAXX  06231 15373 42960 03403 11024 333 92600;
0179153730999992000010700004+44850+024870FM-12+031599999V0203601N003012200019N0100001N1-00421-00541102671ADDAA106000091GA1001+999999999GF100991001001999999001001MA1999999098661MD1210091+9999REMSYN066AAXX  07001 15373 32960 03603 11042 21054 39866 40267 52009 92842;EQDQ01  00002PRCP06
0100153730999992000010701004+44850+024870FM-12+031599999V0203601N002012200019N0100001N1-00471+99999999999ADDGA1001+999999999GF100991001001999999001001REMSYN046AAXX  07011 15373 42960 03602 11047 333 92600;
0100153730999992000010702004+44850+024870FM-12+031599999V0203601N003012200019N0100001N1-00461+99999999999ADDGA1001+999999999GF100991001001999999001001REMSYN046AAXX  07021 15373 42960 03603 11046 333 92600;
0173153730999992000010703004+44850+024870FM-12+031599999V0203601N002019999999N0100001N1-00471-00601102711ADDAA106000091GF106991061001999999071001MA1999999098701MD1210041+9999REMSYN076AAXX  07031 15373 32960 63602 11047 21060 39870 40271 52004 86070 333 92600;EQDQ01  00002PRCP06
0084153730999992000010704004+44850+024870FM-12+031599999V0209999C000012200019N0100001N1-00511+99999999999ADDGF104991999999999999999999REMSYN046AAXX  07041 15373 42960 40000 11051 333 92600;
0173153730999992000010715004+44850+024870FM-12+031599999V0202301N001012200019N0100001N1+00151-00551102711ADDAA106000091GA1001+999999999GF100991001001999999001001MA1999999098801MD1710081+9999REMSYN060AAXX  07151 15373 32960 02301 10015 21055 39880 40271 57008;EQDQ01  00002PRCP06
0090153730999992000010716004+44850+024870FM-12+031599999V0202701N001012200019N0100001N1+00011+99999999999ADDGA1001+999999999GF100991001001999999001001REMSYN036AAXX  07161 15373 42960 02701 10001;
0090153730999992000010717004+44850+024870FM-12+031599999V0202701N001012200019N0100001N1-00141+99999999999ADDGA1001+999999999GF100991001001999999001001REMSYN036AAXX  07171 15373 42960 02701 11014;
0237153730999992000010718004+44850+024870FM-12+031599999V0209999C000012200019N0100001N1-00181-00421102801ADDAA106000091AJ100059199999999GA1001+999999999GF100991001001999999001001IA1279KA1120M+00531MA1999999098831MD1310021+9999REMSYN088AAXX  07181 15373 32960 00000 11018 21042 39883 40280 53002 333 10053 3/004 43005 92842;EQDQ01  00002PRCP06
0118153730999992000010719004+44850+024870FM-12+031599999V0209999C000012200019N0070001N1-00291+99999999999ADDAY101011AY201011GA1001+999999999GF100991001001999999001001MW1101REMSYN042AAXX  07191 15373 41957 00000 11029 71000;
0217153730999992000010721004+44850+024870FM-12+031599999V0209999C000012200019N0070001N1-00401-00471102931ADDAA106000091AY101031AY201031GA1001+999999999GF100991001001999999001001MA1999999098911MD1210081+9999MW1101REMSYN082AAXX  07211 15373 31957 00000 11040 21047 39891 40293 52008 71000 333 55071 92611;EQDQ01  00002PRCP06
0100153730999992000010722004+44850+024870FM-12+031599999V0209999C000012200019N0070001N1-00441+99999999999ADDGA1001+999999999GF100991001001999999001001REMSYN046AAXX  07221 15373 41957 00000 11044 333 92611;
0100153730999992000010723004+44850+024870FM-12+031599999V0203201N001012200019N0070001N1-00471+99999999999ADDGA1001+999999999GF100991001001999999001001REMSYN046AAXX  07231 15373 41957 03201 11047 333 92611;
0224153730999992000010800004+44850+024870FM-12+031599999V0203201N004012200019N9999999N1-00481-00541102871ADDAA106000091AJ100059199999999AY101061AY201061GF101991999999999999999999IA1279MA1999999098851MD1810061+9999MW1101REMSYN082AAXX  08001 15373 31951 13204 11048 21054 39885 40287 58006 71000 333 43005 92611;EQDQ01  00002PRCP06
0100153730999992000010802004+44850+024870FM-12+031599999V0203401N002012200019N0070001N1-00581+99999999999ADDGA1001+999999999GF100991001001999999001001REMSYN046AAXX  08021 15373 41957 03402 11058 333 92611;
0227153730999992000010818004+44850+024870FM-12+031599999V0209999C000012200019N0100001N1-00411-00531102821ADDAA106000091AJ100059199999999GF101991001001999999001011IA1279KA1120M+00351MA1999999098931MD1310081+9999REMSYN094AAXX  08181 15373 32960 10000 11041 21053 39893 40282 53008 80001 333 10035 3/004 43005 92842;EQDQ01  00002PRCP06
0100153730999992000010819004+44850+024870FM-12+031599999V0209999C000012200019N0100001N1-00441+99999999999ADDGA1001+999999999GF100991001001999999001001REMSYN046AAXX  08191 15373 42960 00000 11044 333 92611;
0100153730999992000010820004+44850+024870FM-12+031599999V0209999C000012200019N0045001N1-00481+99999999999ADDGA1001+999999999GF100991001001999999001001REMSYN046AAXX  08201 15373 41945 00000 11048 333 92611;
0217153730999992000010821004+44850+024870FM-12+031599999V0209999C000012200019N0045001N1-00541-00611102961ADDAA106000091AY101031AY201031GA1001+999999999GF100991001001999999001001MA1999999098941MD1110011+9999MW1101REMSYN082AAXX  08211 15373 31945 00000 11054 21061 39894 40296 51001 71000 333 55070 92611;EQDQ01  00002PRCP06
0100153730999992000010822004+44850+024870FM-12+031599999V0203601N001012200019N0045001N1-00561+99999999999ADDGA1001+999999999GF100991001001999999001001REMSYN046AAXX  08221 15373 41945 03601 11056 333 92611;
0191153730999992000010915004+44850+024870FM-12+031599999V02099999999992200019N0009001N1-00421-00651102801ADDAA106000091AY101031AY201031GF102991011001999999041011MA1999999098791MD1310011+9999MW1461REMSYN072AAXX  09151 15373 31909 2/401 11042 21065 39879 40280 53001 74600 81041;EQDQ01  00002PRCP06
0118153730999992000010916004+44850+024870FM-12+031599999V0209999C000012200019N0001001N1-00901+99999999999ADDAY141999AY241999GA1001+999999999GF100991001001999999001001MW1461REMSYN042AAXX  09161 15373 41901 00000 11090 74644;
0124153730999992000010917004+44850+024870FM-12+031599999V0209999C000012200019N0001001N1-01041+99999999999ADDAY141999AY241999GA1001+999999999GF100991001001999999001001MW1441REMSYN048AAXX  09171 15373 41501 00000 11104 74444 8713/;
0271153730999992000010918004+44850+024870FM-12+031599999V0202301N001012200019N0003001N1-01141-01141102971ADDAA106000091AJ100049199999999AY141061AY201061GA1001+999999999GF100991001001999999001001IA1279KA1120M+00141MA1999999098841MD1210051+9999MW1481REMSYN100AAXX  09181 15373 31903 02301 11114 21114 39884 40297 52005 74840 333 10014 3/004 43004 92713 92842;EQDQ01  00002PRCP06
0100153730999992000010919004+44850+024870FM-12+031599999V0209999C000012200019N0003001N1-01211+99999999999ADDGA1001+999999999GF100991001001999999001001REMSYN046AAXX  09191 15373 41903 00000 11121 333 92713;
0124153730999992000010920004+44850+024870FM-12+031599999V0209999C000012200019N0003001N1-01041+99999999999ADDAY141999AY241999GA1001+999999999GF100991001001999999001001MW1481REMSYN048AAXX  09201 15373 41903 00000 11104 74844 92712;
0217153730999992000010921004+44850+024870FM-12+031599999V0209999C000012200019N0003001N1-01001-01001102961ADDAA106000091AY141031AY241031GA1001+999999999GF100991001001999999001001MA1999999098841MD1410001+9999MW1481REMSYN082AAXX  09211 15373 31903 00000 11100 21100 39884 40296 54000 74844 333 55072 92712;EQDQ01  00002PRCP06
0100153730999992000010922004+44850+024870FM-12+031599999V0209999C000012200019N0003001N1-01021+99999999999ADDGA1001+999999999GF100991001001999999001001REMSYN046AAXX  09221 15373 41903 00000 11102 333 92713;
0100153730999992000010923004+44850+024870FM-12+031599999V0203601N002012200019N0003001N1-01031+99999999999ADDGA1001+999999999GF100991001001999999001001REMSYN046AAXX  09231 15373 41903 03602 11103 333 92713;
0246153730999992000011000004+44850+024870FM-12+031599999V0203601N001012200019N0003001N1-01001-01001103001ADDAA106000091AJ100049199999999AY141061AY241061GA1001+999999999GF100991001001999999001001IA1279MA1999999098891MD1210051+9999MW1481REMSYN088AAXX  10001 15373 31903 03601 11100 21100 39889 40300 52005 74844 333 43004 92712 92842;EQDQ01  00002PRCP06
0100153730999992000011001004+44850+024870FM-12+031599999V0209999C000012200019N0003001N1-01011+99999999999ADDGA1001+999999999GF100991001001999999001001REMSYN046AAXX  10011 15373 41903 00000 11101 333 92713;
0100153730999992000011002004+44850+024870FM-12+031599999V0203601N001012200019N0012001N1-00961+99999999999ADDGA1001+999999999GF100991001001999999001001REMSYN046AAXX  10021 15373 41912 03601 11096 333 92712;
0211153730999992000011003004+44850+024870FM-12+031599999V0203601N001012200019N0012001N1-00901-00901102931ADDAA106000091AY141031AY201031GA1001+999999999GF100991001001999999001001MA1999999098841MD1810051+9999MW1101REMSYN076AAXX  10031 15373 31912 03601 11090 21090 39884 40293 58005 71040 333 92712;EQDQ01  00002PRCP06
0100153730999992000011004004+44850+024870FM-12+031599999V0203601N001012200019N0012001N1-00901+99999999999ADDGA1001+999999999GF100991001001999999001001REMSYN046AAXX  10041 15373 41912 03601 11090 333 92710;
0100153730999992000011005004+44850+024870FM-12+031599999V0203401N001012200019N0012001N1-00901+99999999999ADDGA1001+999999999GF100991001001999999001001REMSYN046AAXX  10051 15373 41912 03401 11090 333 92710;
0128153730999992000011016004+44850+024870FM-12+031599999V0201601N003010001519N0000001N1-00951+99999999999ADDAY141999AY241999GA1091+999999999GF109991091999999999999999MW1451REMSYN052AAXX  10161 15373 41/00 91603 11095 74544 333 92713;
0100153730999992000011017004+44850+024870FM-12+031599999V0209999C000010001519N0000001N1+99999+99999999999ADDGA1091+999999999GF109991091999999999999999REMSYN046AAXX  10171 15373 41/00 90000 11/01 333 92713;
0261153730999992000011018004+44850+024870FM-12+031599999V0209999C000010042019N0009001N1-01021-01021103301ADDAA106000091AJ100049199999999AY141061AY211061GF108991081061004501999999IA1279KA1120M-00451MA1999999099201MD1210161+9999MW1481REMSYN106AAXX  10181 15373 31409 80000 11102 21102 39920 40330 52016 74841 886// 333 11045 3/001 43004 9271/ 92842;EQDQ01  00002PRCP06
0250153730999992000011019004+44850+024870FM-12+031599999V0209999C000010042019N0009001N1-01021-01021103301ADDAA106000091AY141011AY211011GF108991081061004501999999IA1119IA2999+00009KA1120M-00451MA1999999099201MD1210161+9999MW1481REMSYN100AAXX  10191 15373 31409 80000 11102 21102 39920 40330 52016 74841 886// 333 11045 32//4 92713 92842;EQDQ01  00002PRCP06
0117153730999992000011020004+44850+024870FM-12+031599999V0209999C000010042019N0005001N1-01061+99999999999ADDAY141021AY241021GF108991081061004501999999MW1481REMSYN057AAXX  10201 1537341405 80000 11106 74844 886// 333 92712;
0207153730999992000011021004+44850+024870FM-12+031599999V0209999C000010042019N0005001N1-01061-01061103431ADDAA106000091AY141031AY241031GF108991081061004501999999MA1999999099301MD1210101+9999MW1481REMSYN088AAXX  10211 15373 31405 80000 11106 21106 39930 40343 52010 74844 886// 333 55032 92710;EQDQ01  00002PRCP06
0118153730999992000011022004+44850+024870FM-12+031599999V0203601N001010042019N0005001N1-01021+99999999999ADDAY141999AY241999GF108991081061004501999999MW1481REMSYN058AAXX  10221 15373 41405 83601 11102 74844 886// 333 92(18;
0118153730999992000011023004+44850+024870FM-12+031599999V0203601N001010042019N0009001N1-01011+99999999999ADDAY141999AY241999GF108991081061004501999999MW1481REMSYN058AAXX  10231 15373 41409 83601 11101 74844 886// 333 92712;
0236153730999992000011100004+44850+024870FM-12+031599999V0203601N002010042019N0012001N1-01021-01021103501ADDAA106000091AJ100049199999999AY141061AY221061GF106991061061004501001001IA1279MA1999999099391MD1210091+9999MW1281REMSYN094AAXX  11001 15373 31412 63602 11102 21102 39939 40350 52009 72842 86600 333 43004 92713 92842;EQDQ01  00002PRCP06
0100153730999992000011101004+44850+024870FM-12+031599999V0209999C000012200019N0012001N1-00991+99999999999ADDGA1001+999999999GF100991001001999999001001REMSYN046AAXX  11011 15373 41912 00000 11099 333 92712;
0100153730999992000011102004+44850+024870FM-12+031599999V0209999C000012200019N0012001N1-00981+99999999999ADDGA1001+999999999GF100991001001999999001001REMSYN046AAXX  11021 15373 41912 00000 11098 333 92712;
0211153730999992000011103004+44850+024870FM-12+031599999V0209999C000012200019N0012001N1-00961-00961103591ADDAA106000091AY111031AY201031GA1001+999999999GF100991001001999999001001MA1999999099471MD1210081+9999MW1101REMSYN076AAXX  11031 15373 31912 00000 11096 21096 39947 40359 52008 71010 333 92712;EQDQ01  00002PRCP06
0100153730999992000011104004+44850+024870FM-12+031599999V0209999C000012200019N0012001N1-00961+99999999999ADDGA1001+999999999GF100991001001999999001001REMSYN046AAXX  11041 15373 41912 00000 11096 333 92712;
0118153730999992000011105004+44850+024870FM-12+031599999V0209999C000010075019N0012001N1-01011+99999999999ADDAY111999AY211999GF105991051051008001001001MW1101REMSYN058AAXX  11051 15373 41512 50000 11101 71011 85500 333 92713;
0273153730999992000011106004+44850+024870FM-12+031599999V0209999C000012200019N0012001N1-00981-00981103641ADDAA106000091AJ100049199999999AY111061AY211061GF103991031051008001001001IA1279IA2120-01309KA1120N-01101MA1999999099521MD1210051+9999MW1101REMSYN106AAXX  11061 15373 31512 30000 11098 21098 39952 40364 52005 71011 83500 333 21110 3/113 43004 92712 92842;EQDQ01  00002PRCP06
0108153730999992000011114004+44850+024870FM-12+031599999V0201801N001012200019N0019001N1+00101+99999999999ADDAY101999AY201999GF102991021001999999041001MW1101REMSYN048AAXX  11141 15373 41919 21801 10010 71000 82040;
0108153730999992000011116004+44850+024870FM-12+031599999V0202501N001019999999N9999999N1-00141+99999999999ADDAY111999AY211999GF106991061001999999071001MW1101REMSYN048AAXX  11161 15373 4190/ 62501 11014 71011 86070;
0255153730999992000011118004+44850+024870FM-12+031599999V0202701N001019999999N0030001N1-00091-00371103571ADDAA106000091AJ100049199999999AY121061AY211061GF107991071001999999071001IA1279KA1120M+00181MA1999999099671MD1310061+9999MW1101REMSYN100AAXX  11181 15373 31930 72701 11009 21037 39967 40357 53006 71021 87070 333 10018 3/002 43004 92842;EQDQ01  00002PRCP06
0108153730999992000011119004+44850+024870FM-12+031599999V0203601N001019999999N0030001N1-00081+99999999999ADDAY121999AY221999GF108991081001999999071999MW1101REMSYN048AAXX  11191 15373 41930 83601 11008 71022 8807/;
0108153730999992000011120004+44850+024870FM-12+031599999V0200201N001019999999N0030001N1-00061+99999999999ADDAY121999AY221999GF108991081001999999071999MW1101REMSYN048AAXX  11201 15373 41930 80201 11006 71022 8807/;
0108153730999992000011122004+44850+024870FM-12+031599999V0203401N001019999999N0045001N1-00071+99999999999ADDAY121999AY221999GF108991081001999999071999MW1101REMSYN048AAXX  11221 15373 41945 83401 11007 71022 8807/;
0108153730999992000011201004+44850+024870FM-12+031599999V0209999C000019999999N0045001N1-00151+99999999999ADDAY121999AY221999GF108991081001999999071999MW1101REMSYN048AAXX  12011 15373 41945 80000 11015 71022 8807/;
0108153730999992000011202004+44850+024870FM-12+031599999V0209999C000019999999N0045001N1-00151+99999999999ADDAY121999AY221999GF108991081001999999071999MW1101REMSYN048AAXX  12021 15373 41945 80000 11015 71022 8807/;
0175153730999992000011203004+44850+024870FM-12+031599999V0209999C000019999999N0045001N1-00141-00361103711ADDAA106000091GF108991999999999999999999MA1999999099701REMSYN060AAXX  12031 15373 31945 80000 11014 21036 39970 40371 5600/;EQDQ01+000062APCTENQ02+000002APC3  Q03  00002PRCP06
0191153730999992000011215004+44850+024870FM-12+031599999V0201401N002010075019N0021001N1-00181-00201103761ADDAA106000091AY121031AY221031GF108991081061008001999999MA1999999099751MD1310111+9999MW1101REMSYN072AAXX  12151 15373 31521 81402 11018 21020 39975 40376 53011 71022 886//;EQDQ01  00002PRCP06
0108153730999992000011216004+44850+024870FM-12+031599999V0201401N001010075019N0021001N1+99999+99999999999ADDAY121999AY221999GF108991081061008001999999MW1101REMSYN048AAXX  12161 15373 41521 81401 110/4 71022 886//;
0255153730999992000011218004+44850+024870FM-12+031599999V0201401N003010075019N0021001N1-00221-00251103781ADDAA106000091AJ100039199999999AY121061AY221061GF108991081051008001999999IA1279KA1120M+00331MA1999999099761MD1310011+9999MW1101REMSYN100AAXX  12181 15373 31521 81403 11022 21025 39976 40378 53001 71022 885// 333 10033 3/00/ 43003 92842;EQDQ01  00002PRCP06
0108153730999992000011219004+44850+024870FM-12+031599999V0201401N002010075019N0021001N1-00221+99999999999ADDAY121999AY221999GF108991081051008001999999MW1101REMSYN048AAXX  12191 15373 41521 81402 11022 71022 885//;
0108153730999992000011220004+44850+024870FM-12+031599999V0201401N001010075019N0021001N1+99999+99999999999ADDAY121999AY221999GF108991081051008001999999MW1781REMSYN048AAXX  12201 15373 41521 81401 110/3 77822 885//;
0188153730999992000011221004+44850+024870FM-12+031599999V0209999C000010075019N0021001N1-00241+99999103771ADDAA103000791AY171031AY271031GF108991081051008001999999MA1999999099751MD1810011+9999MW1781REMSYN088AAXX  12211 15373 21521 80000 11024 2102/ 39975 40377 58001 77877 885// 333 55002 69907;
0108153730999992000011222004+44850+024870FM-12+031599999V0209999C000010075019N0021001N1-00271+99999999999ADDAY171999AY271999GF108991081051008001999999MW1781REMSYN048AAXX  12221 15373 41521 80000 11027 77877 885//;
0190153730999992000011300004+44850+024870FM-12+031599999V0202001N001010075019N0012001N1-00301+99999999999ADDAA103000291AJ100039199999999AY171061AY271061GF108991071051008001999999IA1279MD1710041+9999MW1781REMSYN082AAXX  13001 15373 /1512 82001 11030 57004 69921 77877 875// 333 43003 69927 92842;
0108153730999992000011301004+44850+024870FM-12+031599999V0209999C000010075019N0012001N1-00301+99999999999ADDAY171999AY271999GF108991051051008001071999MW1781REMSYN048AAXX  13011 15373 41512 80000 11030 77877 8557/;
0108153730999992000011302004+44850+024870FM-12+031599999V0202001N001010075019N0012001N1-00281+99999999999ADDAY171999AY271999GF108991081051008001999999MW1781REMSYN048AAXX  13021 15373 41512 82001 11028 77877 885//;
0182153730999992000011303004+44850+024870FM-12+031599999V02099999999990075019N0012001N1+99999+99999103671ADDAA103000191AY171031AY271031GF108991081051008001999999MA1999999099631MD1710081+9999MW1221REMSYN082AAXX  13031 15373 21512 8///1 12030 21030 39963 40367 57008 72277 885// 333 69917;
0155153730999992000011315004+44850+024870FM-12+031599999V02099999999992200019N0045001N1-00161+99999103431ADDAY171031AY211031GF106991011031008001001061MA1999999099431MD1710091+9999MW1101REMSYN066AAXX  13151 15373 21545 6000/ 11016 39943 40343 57009 71071 81306;
0248153730999992000011318004+44850+024870FM-12+031599999V0209999C000012200019N0070001N1-00561-00561103521ADDAA112000391AJ100039199999999AY171061AY211061GF102991001001999999001011IA1279KA1120M+00051MA1999999099481MD1310051+9999MW1101REMSYN112AAXX  13181 15373 11957 20000 11056 21056 39948 40352 53005 69932 71071 80001 333 10005 3/002 43003 92600 92832;
0126153730999992000011320004+44850+024870FM-12+031599999V0209999C000012200019N0045001N1-00601+99999999999ADDAY101999AY201999GA1001+999999999GF100991001001999999001001MW1101REMSYN050    AAXX  13201 15373 41945 00000 11060 71000 333;
0185153730999992000011321004+44850+024870FM-12+031599999V02099999999992200019N0045001N1-00621-00661103501ADDAA199000091GA1001+999999999GF100991001001999999001001MA1999999099481MW1101REMSYN080    AAXX  13211 15373 31945 00/// 11062 21066 39948 40350 710/0 333 5//21 92611;EQDQ01  00002PRCP99
0104153730999992000011401004+44850+024870FM-12+031599999V0209999C000012200019N0021001N1-00761+99999999999ADDGA1001+999999999GF100991001001999999001001REMSYN050    AAXX  14011 15373 41921 00000 11076 333 92612;
0122153730999992000011402004+44850+024870FM-12+031599999V0209999C000012200019N0021001N1-00781+99999999999ADDAY101999AY201999GA1001+999999999GF100991001001999999001001MW1101REMSYN046    AAXX  14021 15373 41921 00000 11078 71000;
0167153730999992000011415004+44850+024870FM-12+031599999V0209999C000012200019N0100001N1-00201-00861999999ADDAA199000091GF103991011001999999041011MA1999999099171MD1710051+9999REMSYN070    AAXX  14151 15373 32960 30000 11020 21086 39917 40/17 57005 81041;EQDQ01  00002PRCP99
0094153730999992000011416004+44850+024870FM-12+031599999V0209999C000012200019N0100001N1-00381+99999999999ADDGA1001+999999999GF100991001001999999001001REMSYN040    AAXX  14161 15373 42960 00000 11038;
0084153730999992000011417004+44850+024870FM-12+031599999V0209999C000012200019N0100001N1-00451+99999999999ADDGF101991001001999999001011REMSYN046    AAXX  14171 15373 42960 10000 11045 80001;
0104153730999992000011419004+44850+024870FM-12+031599999V0209999C000012200019N0100001N1-00541+99999999999ADDGA1001+999999999GF100991001001999999001001REMSYN050    AAXX  14191 15373 41997 00000 11054 333 92600;
0098153730999992000011423004+44850+024870FM-12+031599999V0203601N001012200019N0045001N1-00721+99999999999ADDGA1001+999999999GF100991001001999999001001REMSYN044    AAXX  14231 15373 41945 03601 11072 333;
0250153730999992000011500004+44850+024870FM-12+031599999V0203601N001012200019N0045001N1-00721-00771103181ADDAA199000091AJ100039199999999AY101061AY201061GA1001+999999999GF100991001001999999001001IA1279MA1999999099121MD1710101+9999MW1101REMSYN092    AAXX  15001 15373 31945 03601 11072 21077 39912 40318 57010 71000 333 43003 92600 92842;EQDQ01  00002PRCP99
0104153730999992000011501004+44850+024870FM-12+031599999V0209999C000012200019N0045001N1-00751+99999999999ADDGA1001+999999999GF100991001001999999001001REMSYN050    AAXX  15011 15373 41945 00000 11075 333 92600;
0104153730999992000011502004+44850+024870FM-12+031599999V0209999C000012200019N0045001N1-00771+99999999999ADDGA1001+999999999GF100991001001999999001001REMSYN050    AAXX  15021 15373 41945 00000 11077 333 92600;
0215153730999992000011503004+44850+024870FM-12+031599999V0209999C000012200019N0045001N1-00821-00881103161ADDAA199000091AY101031AY201031GA1001+999999999GF100991001001999999001001MA1999999099091MD1610031+9999MW1101REMSYN080    AAXX  15031 15373 31945 00000 11082 21088 39909 40316 56003 71000 333 92600;EQDQ01  00002PRCP99
0104153730999992000011504004+44850+024870FM-12+031599999V0203601N002012200019N0045001N1-00881+99999999999ADDGA1001+999999999GF100991001001999999001001REMSYN050    AAXX  15041 15373 41945 03602 11088 333 92600;
0104153730999992000011505004+44850+024870FM-12+031599999V0203601N001012200019N0045001N1-00891+99999999999ADDGA1001+999999999GF100991001001999999001001REMSYN050    AAXX  15051 15373 41945 03601 11089 333 92600;
0112153730999992000011515004+44850+024870FM-12+031599999V0201601N001019999999N0030001N1-00641+99999999999ADDAY121031AY221031GF105991051001999999071001MW1101REMSYN052    AAXX  15151 15373 41930 51601 11064 71022 85070;
0122153730999992000011516004+44850+024870FM-12+031599999V0201601N001012200019N0013001N1-00941+99999999999ADDAY111999AY211999GA1001+999999999GF100991001001999999001001MW1101REMSYN046    AAXX  15161 15373 41913 01601 11094 71011;
0269153730999992000011518004+44850+024870FM-12+031599999V0209999C000012200019N0013001N1-01061-01061102761ADDAA199000091AJ100039199999999AY111061AY201061GA1001+999999999GF100991001001999999001001IA1279KA1120M-00021MA1999999098661MD1810011+9999MW1101REMSYN098    AAXX  15181 15373 31913 00000 11106 21106 39866 40276 58001 71010 333 11002 3/004 43003 92842;EQDQ01  00002PRCP99
0104153730999992000011519004+44850+024870FM-12+031599999V0209999C000012200019N0009001N1-01061+99999999999ADDGA1001+999999999GF100991001001999999001001REMSYN050    AAXX  15191 15373 41909 00000 11106 333 92600;
0110153730999992000011522004+44850+024870FM-12+031599999V0209999C000010001519N0000001N1-01141+99999999999ADDGA1091+999999999GF109991091999999999999999REMSYN056    AAXX  15221 15373 41/00 90000 11114 333 92611 92713;
0110153730999992000011523004+44850+024870FM-12+031599999V0201401N001010001519N0000001N1-01121+99999999999ADDGA1091+999999999GF109991091999999999999999REMSYN056    AAXX  15231 15373 41/00 91401 11112 333 92611 92712;
0256153730999992000011600004+44850+024870FM-12+031599999V0209999C000010006019N0009001N1-01101-01101102761ADDAA199000091AJ100039199999999AY141061AY241061GA1091+999999999GF109991091999999999999999IA1279MA1999999098641MD1410001+9999MW1421REMSYN098    AAXX  16001 15373 31909 90000 11110 21110 39864 40276 54000 74244 333 43003 92611 92712 92842;EQDQ01  00002PRCP99
0122153730999992000011602004+44850+024870FM-12+031599999V0209999C000019999999N0002001N1-01061+99999999999ADDAY141999AY241999GF108991999999004501999999MW1461REMSYN062    AAXX  16021 15373 41402 80000 11106 74644 333 92611 92712;
0211153730999992000011603004+44850+024870FM-12+031599999V0209999C000010042019N0002001N1-01061-01061102721ADDAA199000091AY141031AY241031GF108991081061004501999999MA1999999098621MD1810021+9999MW1441REMSYN092    AAXX  16031 15373 31402 80000 11106 21106 39862 40272 58002 74444 886// 333 92611 92710;EQDQ01  00002PRCP99
0128153730999992000011604004+44850+024870FM-12+031599999V0209999C000010042019N0003001N1-01051+99999999999ADDAY141999AY241999GF108991081061004501999999MW1421REMSYN068    AAXX  16041 15373 41403 80000 11105 74244 886// 333 92611 92712;
0116153730999992000011605004+44850+024870FM-12+031599999V0209999C000019999999N9999999N1-01061+99999999999ADDGA1091+999999999GF109991091999999999999999REMSYN062    AAXX  16051 15373 ///// 90000 11106 74944 333 92611 92711;
0122153730999992000011616004+44850+024870FM-12+031599999V0209999C000010042019N0019001N1-00461+99999999999ADDAY121999AY221999GF108991081061004501999999MW1101REMSYN062    AAXX  16161 15373 41419 80000 11046 71022 886// 333 92712;
0259153730999992000011618004+44850+024870FM-12+031599999V0209999C000010042019N0030001N1-00441-00441102601ADDAA199000091AJ100039199999999AY121061AY221061GF108991081061004501999999IA1279KA1120M-00441MA1999999098601MD1810031+9999MW1101REMSYN104    AAXX  16181 15373 31430 80000 11044 21044 39860 40260 58003 71022 886// 333 11044 3/103 43003 92710;EQDQ01  00002PRCP99
0122153730999992000011619004+44850+024870FM-12+031599999V0209999C000010042019N0030001N1-00431+99999999999ADDAY121011AY221011GF108991081061004501999999MW1101REMSYN062    AAXX  16191 15373 41430 80000 11043 71022 886// 333 92712;
0122153730999992000011620004+44850+024870FM-12+031599999V0209999C000010042019N0030001N1-00441+99999999999ADDAY121999AY221999GF108991081061004501999999MW1101REMSYN062    AAXX  16201 15373 41430 80000 11044 71022 886// 333 92713;
0211153730999992000011621004+44850+024870FM-12+031599999V0209999C000010042019N0030001N1-00411-00411102521ADDAA199000091AY121031AY221031GF108991081061004501999999MA1999999098521MD1710081+9999MW1101REMSYN092    AAXX  16211 15373 31430 80000 11041 21041 39852 40252 57008 71022 886// 333 5500/ 92712;EQDQ01  00002PRCP99
0122153730999992000011622004+44850+024870FM-12+031599999V0209999C000010042019N0012001N1-00451+99999999999ADDAY121999AY221999GF108991081061004501999999MW1101REMSYN062    AAXX  16221 15373 41412 80000 11045 71022 886// 333 92713;
0116153730999992000011623004+44850+024870FM-12+031599999V0209999C000010042019N0012001N1-00471+99999999999ADDAY171999AY221999GF108991081061004501999999MW1771REMSYN056    AAXX  16231 15373 41412 80000 11047 77772 886// 333;
0233153730999992000011700004+44850+024870FM-12+031599999V0209999C000010360019N0012001N1-00421-00421102381ADDAA103000291AJ100039199999999AY171061AY271061GF108991031071004501021999IA1279MA1999999098391MD1710131+9999MW1711REMSYN110    AAXX  17001 15373 /1412 80000 11042 21042 39839 40238 57013 69921 77177 8372/ 333 43003 69927 92712 92842;
0122153730999992000011701004+44850+024870FM-12+031599999V0209999C000010360019N0012001N1-00401+99999999999ADDAY171999AY271999GF108991041071004501021999MW1711REMSYN062    AAXX  17011 15373 41412 80000 11040 77177 8472/ 333 92712;
0122153730999992000011702004+44850+024870FM-12+031599999V0209999C000010360019N0012001N1-00411+99999999999ADDAY171999AY271999GF108991041071004501021999MW1711REMSYN062    AAXX  17021 15373 41412 80000 11041 77177 8472/ 333 92713;
0192153730999992000011703004+44850+024870FM-12+031599999V0209999C000010360019N0012001N1-00401-00401102161ADDAA103000391AY171031AY271031GF108991041071004501021999MA1999999098171MD1710221+9999MW1711REMSYN092    AAXX  17031 15373 21412 80000 11040 21040 39817 40216 57022 77177 8472/ 333 69937 92712;
0122153730999992000011704004+44850+024870FM-12+031599999V0209999C000010360019N0012001N1-00421+99999999999ADDAY171999AY221999GF108991041071004501021999MW1221REMSYN062    AAXX  17041 15373 41412 80000 11042 72272 8472/ 333 97213;
0259153730999992000011718004+44850+024870FM-12+031599999V0202901N004012200019N0070001N1-00281-00621100101ADDAA199000091AJ100039199999999AY111061AY211061GF103991031001999999041001IA1279KA1120M-00101MA1999999096211MD1710391+9999MW1101REMSYN104    AAXX  17181 15373 31957 32904 11028 21062 39621 40010 57039 71011 83040 333 11010 3/001 43003 92842;EQDQ01  00002PRCP99
0112153730999992000011719004+44850+024870FM-12+031599999V0202701N003012200019N0070001N1-00301+99999999999ADDAY101011AY201011GF104991041001999999041001MW1101REMSYN052    AAXX  17191 15373 41957 42703 11030 71000 84040;
0078153730999992000011722004+44850+024870FM-12+031599999V0203201N004019999999N0100001N1+99999+99999999999ADDGF106991011001999999041011REMSYN040    AAXX  17221 15373 42960 63204 81041;
0084153730999992000011723004+44850+024870FM-12+031599999V0201601N001019999999N0100001N1-00381+99999999999ADDGF106991061001999999071001REMSYN046    AAXX  17231 15373 42960 61601 11038 86070;
0206153730999992000011800004+44850+024870FM-12+031599999V0202701N001019999999N0100001N1-00441-00781099401ADDAA199000091AJ100039199999999GF108991081001999999071999IA1279MA1999999095521MD1710291+9999REMSYN086    AAXX  18001 15373 32960 82701 11044 21078 39552 49940 57029 8807/ 333 43003 92832;EQDQ01  00002PRCP99
0084153730999992000011801004+44850+024870FM-12+031599999V0203201N001019999999N0100001N1-00301+99999999999ADDGF106991061001999999071001REMSYN046    AAXX  18011 15373 42960 63201 11030 86070;
0084153730999992000011802004+44850+024870FM-12+031599999V0202901N006019999999N0100001N1-00241+99999999999ADDGF108991081001999999071999REMSYN046    AAXX  18021 15373 42960 82906 11024 8807/;
0161153730999992000011803004+44850+024870FM-12+031599999V0203401N005019999999N0100001N1-00201-00681099021ADDAA199000091GF108991999999999999999999MA1999999095191MD1710331+9999REMSYN064    AAXX  18031 15373 32960 83405 11020 21068 39519 49902 57033;EQDQ01  00002PRCP99
0084153730999992000011804004+44850+024870FM-12+031599999V0203201N003019999999N0100001N1-00121+99999999999ADDGF106991061001999999071001REMSYN046    AAXX  18041 15373 42960 63203 11012 86070;
0231153730999992000011818004+44850+024870FM-12+031599999V0203201N002019999999N0100001N1+00031-01161099341ADDAA199000091AJ100039199999999GF107991071001999999071001IA1279KA1120M+00321MA1999999095541MD1210081+9999REMSYN098    AAXX  18181 15373 32960 73202 10003 21116 39554 49934 52008 87070 333 10032 3/004 43003 92842;EQDQ01  00002PRCP99
0084153730999992000011819004+44850+024870FM-12+031599999V0209999C000019999999N0100001N1-00031+99999999999ADDGF108991081001999999011999REMSYN046    AAXX  18191 15373 42960 80000 11003 8801/;
0084153730999992000011820004+44850+024870FM-12+031599999V0209999C000019999999N0100001N1-00021+99999999999ADDGF108991081001999999071999REMSYN046    AAXX  18201 15373 42960 80000 11002 8807/;
0167153730999992000011821004+44850+024870FM-12+031599999V0209999C000019999999N0100001N1-00081-00781099691ADDAA199000091GF108991081001999999071999MA1999999095851MD1210311+9999REMSYN070    AAXX  18211 15373 32960 80000 11008 21078 39585 49969 52031 8807/;EQDQ01  00002PRCP99
0084153730999992000011822004+44850+024870FM-12+031599999V0209999C000019999999N0100001N1-00101+99999999999ADDGF107991071001999999071001REMSYN046    AAXX  18221 15373 42960 70000 11010 87070;
0084153730999992000011902004+44850+024870FM-12+031599999V0203201N002012200019N0100001N1-00181+99999999999ADDGF103991031001999999041001REMSYN046    AAXX  19021 15373 42960 33202 11018 83040;
0167153730999992000011903004+44850+024870FM-12+031599999V0209999C000012200019N0100001N1-00091-00891099941ADDAA199000091GF101991001001999999001011MA1999999096071MD1110021+9999REMSYN070    AAXX  19031 15373 32960 10000 11009 21089 39607 49994 51002 80001;EQDQ01  00002PRCP99
0072153730999992000011904004+44850+024870FM-12+031599999V02099999999999999999N9999999N1+99999+99999999999ADDGF108991999999999999999999REMSYN034    AAXX  19041 15373 4296/ 87/20;
0167153730999992000011915004+44850+024870FM-12+031599999V0203601N006019999999N0100001N1+00081-01191100501ADDAA199000091GF105991041031999999001011MA1999999096641MD1210201+9999REMSYN070    AAXX  19151 15373 32/60 53606 10008 21119 39664 40050 52020 84301;EQDQ01  00002PRCP99
0080153730999992000011916004+44850+024870FM-12+031599999V0203401N005012200019N0100001N1-00021+99999999999ADDGF103991021031012501061001REMSYN042AAXX  19161 15373 42660 33405 11002 82360;
0227153730999992000011918004+44850+024870FM-12+031599999V0203401N003012200019N0100001N1-00131-01051100871ADDAA199000091AJ100039199999999GF102991021001999999041001IA1279KA1120M+00341MA1999999096971MD1210331+9999REMSYN094AAXX  19181 15373 32960 23403 11013 21105 39697 40087 52033 82040 333 10034 3/005 43003 92842;EQDQ01  00002PRCP99
0080153730999992000012005004+44850+024870FM-12+031599999V0203401N001019999999N0100001N1-00441+99999999999ADDGF108991081001999999071999REMSYN042AAXX  20051 15373 42960 83401 11044 8807/;
0051153730999992000012016004+44850+024870FM-12+031599999V0202301N020019999999N0100001N1-00201+99999999999REMSYN042AAXX  20161 15373 42960 /2320 11020 820//;
0080153730999992000012017004+44850+024870FM-12+031599999V0203201N003012200019N0100001N1-00221+99999999999ADDGF101991011001999999041001REMSYN042AAXX  20171 15373 42960 13203 11022 81040;
0209153730999992000012018004+44850+024870FM-12+031599999V02099999999992200019N0100001N1-00261-01321101841ADDAA199000091AJ100039199999999GF101991999999999999999999KA1120M+00001MA1999999097891MD1810031+9999REMSYN082AAXX  20181 15373 32960 129/4 11026 21132 39789 40184 58003 333 10000 3/003 43003;EQDQ01  00002PRCP99
0080153730999992000012019004+44850+024870FM-12+031599999V0202901N004012200019N0100001N1-00281+99999999999ADDGF101991011001999999041001REMSYN042AAXX  20191 15373 42960 12904 11028 81040;
0074153730999992000012104004+44850+024870FM-12+031599999V0202901N003019999999N0100001N1+99999+99999999999ADDGF108991081001999999071999REMSYN036AAXX  21041 15373 42960 82903 8807/;
0239153730999992000012106004+44850+024870FM-12+031599999V0203201N002019999999N0100001N1-00401-00771100791ADDAA199000091AJ100039199999999GF108991081001999999071999IA1279IA2120-01309KA1120N-00701MA1999999096851MD1710331+9999REMSYN094AAXX  21061 15373 32960 83202 11040 21077 39685 40079 57033 8807/ 333 21070 3/113 43003 92842;EQDQ01  00002PRCP99
0084153730999992000012117004+44850+024870FM-12+031599999V0202901N010019999999N0100001N1+00121+99999999999ADDGF107991999999008001999999REMSYN046AAXX  21171 15373 42560 72910 10012 333 91116;
0051153730999992000012202004+44850+024870FM-12+031599999V0203201N004019999999N0100001N1-00411+99999999999REMSYN042AAXX  22021 15373 42960 /3204 11041 82040;
0090153730999992000012204004+44850+024870FM-12+031599999V0203201N008012200019N0100001N1-00501+99999999999ADDGA1001+999999999GF100991001001999999001001REMSYN036AAXX  22041 15373 42960 03208 11050;
0163153730999992000012215004+44850+024870FM-12+031599999V02099999999999999999N0500001N1-00221-01741101721ADDAA199000091GF105991011001999999041021MA1999999097791MD1310031+9999REMSYN066AAXX  22151 15373 32984 53//2 11022 21174 39779 40172 53003 81042;EQDQ01  00002PRCP99
0080153730999992000012216004+44850+024870FM-12+031599999V0202701N002019999999N0100001N1-00371+99999999999ADDGF105991051001999999071001REMSYN042AAXX  22161 15373 42960 52702 11037 85070;
0080153730999992000012217004+44850+024870FM-12+031599999V0202701N002012200019N0100001N1-00581+99999999999ADDGF102991021001999999041001REMSYN042AAXX  22171 15373 42960 22702 11058 82040;
0227153730999992000012218004+44850+024870FM-12+031599999V0200501N002012200019N0100001N1-00501-01591101751ADDAA199000091AJ100079199999999GF102991021001999999041001IA1249KA1120M-00081MA1999999097761MD1810031+9999REMSYN094AAXX  22181 15373 32960 20502 11050 21159 39776 40175 58003 82040 333 11008 3/001 48007 92805;EQDQ01  00002PRCP99
0080153730999992000012219004+44850+024870FM-12+031599999V0200201N001012200019N0100001N1-00681+99999999999ADDGF103991021001999999041011REMSYN042AAXX  22191 15373 42960 30201 11068 82041;
0080153730999992000012220004+44850+024870FM-12+031599999V0200201N001012200019N0100001N1-00721+99999999999ADDGF102991011001999999041011REMSYN042AAXX  22201 15373 42960 20201 11072 81041;
0173153730999992000012221004+44850+024870FM-12+031599999V0203201N002019999999N0100001N1-00841-01481101851ADDAA199000091GF108991011001999999041071MA1999999097811MD1310051+9999REMSYN076AAXX  22211 15373 32960 83202 11084 21148 39781 40185 53005 81047 333 55076;EQDQ01  00002PRCP99
0080153730999992000012222004+44850+024870FM-12+031599999V02099999999999999999N0100001N1-00861+99999999999ADDGF106991001001999999001081REMSYN042AAXX  22221 15373 42960 63/03 11086 80008;
0202153730999992000012300004+44850+024870FM-12+031599999V0203601N004012200019N0100001N1-00971-01551101851ADDAA199000091AJ100079199999999GF102991001001999999001011IA1249MA1999999097991MD1810021+9999REMSYN082AAXX  23001 15373 32960 23604 11097 21155 39799 40185 58002 80001 333 48007 92805;EQDQ01  00002PRCP99
0080153730999992000012301004+44850+024870FM-12+031599999V0203401N003019999999N0100001N1-01011+99999999999ADDGF108991011001999999041071REMSYN042AAXX  23011 15373 42960 83403 11101 81047;
0080153730999992000012302004+44850+024870FM-12+031599999V0203601N002019999999N9999999N1-01041+99999999999ADDGF105991001001999999001081REMSYN042AAXX  23021 15373 4290/ 53602 11104 80008;
0179153730999992000012303004+44850+024870FM-12+031599999V0203401N002019999999N0100001N1-01071-01571101801ADDAA199000091GF105991001001999999001081MA1999999087722MD1710071+9999REMSYN066AAXX  23031 15373 32960 53402 11107 21157 38772 40180 57007 80008;EQDQ01+087723APOSP Q02  00002PRCP99
0108153730999992000012316004+44850+024870FM-12+031599999V0200701N001010042019N0012001N1-00591+99999999999ADDAY171999AY271999GF107991061071004501021999MW1711REMSYN048AAXX  23161 15373 41412 70701 11059 77177 8672/;
0219153730999992000012318004+44850+024870FM-12+031599999V0200701N00101004201CN0012001N1-00581-00651100831ADDAA112006191AY171061AY221061GF108991061071004501021999KA1120M-00531MA1999999096881MD1710181+9999MW1731REMSYN106AAXX  23181 15373 /1412 80701 11058 21065 39688 40083 57018 60062 77372 8672/ 333 11053 3/104 8013/ 92805;
0108153730999992000012319004+44850+024870FM-12+031599999V0200901N003010042019N0012001N1-00581+99999999999ADDAY171999AY271999GF108991061071004501021999MW1731REMSYN048AAXX  23191 15373 41412 80903 11058 77377 8672/;
0108153730999992000012320004+44850+024870FM-12+031599999V0200901N002010042019N0012001N1-00541+99999999999ADDAY171021AY271021GF108991061071004501021999MW1731REMSYN048AAXX  23201 15373 41412 80902 11054 77377 8672/;
0180153730999992000012321004+44850+024870FM-12+031599999V0200901N002010042019N0012001N1-00521-00671100671ADDAA103004191AY171031GF108991061021004501999021MA1999999096741MD1710141+9999MW1771REMSYN088AAXX  23211 15373 21412 80902 11052 21067 39674 40067 57014 7777/ 862/2 333 55002 60047;
0108153730999992000012323004+44850+024870FM-12+031599999V0200901N002010042019N0012001N1-00481+99999999999ADDAY171999AY271999GF108991061071004501021999MW1731REMSYN048AAXX  23231 15373 41412 80902 11048 77377 8672/;
0223153730999992000012400004+44850+024870FM-12+031599999V0209999C000010042019N0012001N1-00461-00521100461ADDAA103002091AJ100179199999999AY171061AY271061GF108991081051004501999999IA1249MA1999999096541MD1710201+9999MW1711REMSYN100AAXX  24001 15373 /1412 80000 11046 21052 39654 40046 57020 60051 77177 885// 333 48017 60027 92805;
0108153730999992000012401004+44850+024870FM-12+031599999V0209999C000010360019N0019001N1-00441+99999999999ADDAY171999AY271999GF108991041071004501021999MW1711REMSYN048AAXX  24011 15373 41419 80000 11044 77177 8472/;
0108153730999992000012402004+44850+024870FM-12+031599999V0209999C000010075019N0019001N1-00441+99999999999ADDAY171999AY271999GF108991061071008001021999MW1711REMSYN048AAXX  24021 15373 41519 80000 11044 77177 8672/;
0118153730999992000012407004+44850+024870FM-12+031599999V0203601N001010042019N0019001N1-00381+99999999999ADDAY171999AY271999GF108991061071004501021999MW1711REMSYN058AAXX  24071 15373 41419 83601 11038 77177 8672/ 333 96044;
0201153730999992000012412004+44850+024870FM-12+031599999V0203401N003010075019N0019001N1-00311-01951100491ADDAA103001091AJ100209199999999AY171061GF108991051071008001011999IA1239MA1999999096571MW1711REMSYN100AAXX  24121 15373 /1519 83403 11031 21195 39657 40049 5//// 6//// 7717/ 8571/ 333 47020 60017 92822;
0201153730999992000012415004+44850+024870FM-12+031599999V0209999C000019999999N0045001N1-00281-00752100611ADDAA103000191AY171031AY221031GF108991081001999999071999MA1999999096711MD1210141+9999MW1101REMSYN082AAXX  24151 15373 21945 80000 11028 21075 39671 40061 52014 71072 8807/ 333 69917;EQDQ01-000753ATOD  
0074153730999992000012416004+44850+024870FM-12+031599999V0209999C000012200019N0030001N1-00381+99999999999ADDGF101991999999999999999999REMSYN036AAXX  24161 15373 41930 10000 11038;
0108153730999992000012417004+44850+024870FM-12+031599999V0209999C000010360019N0030001N1-00351+99999999999ADDAY171999AY271999GF108991041051008001071999MW1711REMSYN048AAXX  24171 15373 41530 80000 11035 77177 8457/;
0248153730999992000012418004+44850+024870FM-12+031599999V0209999C000010360019N0030001N1-00361-00501100881ADDAA103000191AJ100229199999999AY171061AY221061GF108991041051008001071999IA1239KA1120M-00261MA1999999096961MD1210251+9999MW1221REMSYN112AAXX  24181 15373 /1530 80000 11036 21050 39696 40088 52025 60032 72272 8457/ 333 11026 3/101 47022 69917 92802;
0121153730999992000012419004+44850+024870FM-12+031599999V0209999C000019999999N0030001N1+99999+99999999999ADDAY121999AY221999GF108991999999008001999999MW1101REMSYN042AAXX  24191 15373 41530 80000 1040/ 71022;EQDQ01+004003ATOT  
0108153730999992000012420004+44850+024870FM-12+031599999V0209999C000010075019N0030001N1-00421+99999999999ADDAY121999AY221999GF108991051051008001071999MW1711REMSYN048AAXX  24201 15373 41530 80000 11042 77122 8557/;
0159153730999992000012421004+44850+024870FM-12+031599999V0209999C000010360019N0030001N1-00421-00531101181ADDAA103000191AY181031GF108991041051008001071999MD1210261+9999MW1221REMSYN082AAXX  24211 15373 21530 80000 11042 21053 40118 52026 7228/ 8457/ 333 55000 69917;
0108153730999992000012422004+44850+024870FM-12+031599999V0209999C000010360019N0030001N1-00431+99999999999ADDAY121999AY221999GF108991041051008001071999MW1101REMSYN048AAXX  24221 15373 41530 80000 11043 71022 8457/;
0108153730999992000012423004+44850+024870FM-12+031599999V0209999C000010360019N0030001N1-00471+99999999999ADDAY121999AY221999GF108991041051008001071999MW1101REMSYN048AAXX  24231 15373 41530 80000 11047 71022 8457/;
0223153730999992000012500004+44850+024870FM-12+031599999V0209999C000010042019N0030001N1-00561-00741101471ADDAA103000191AJ100239199999999AY171061AY221061GF108991061051004501071999IA1239MA1999999097491MD1210271+9999MW1711REMSYN100AAXX  25001 15373 /1430 80000 11056 21074 39749 40147 52027 69921 77172 8657/ 333 47023 69917 92802;
0108153730999992000012501004+44850+024870FM-12+031599999V0209999C000010042019N0030001N1-00591+99999999999ADDAY171999AY271999GF108991061071004501021999MW1711REMSYN048AAXX  25011 15373 41430 80000 11059 77177 8672/;
0108153730999992000012502004+44850+024870FM-12+031599999V0209999C000010042019N0030001N1-00701+99999999999ADDAY171999AY271999GF108991061071004501021999MW1711REMSYN048AAXX  25021 15373 41430 80000 11070 77177 8672/;
0182153730999992000012503004+44850+024870FM-12+031599999V0209999C000010042019N0030001N1-00721-00821101731ADDAA103001091AY171031AY271031GF108991051071004501021999MA1999999097711MD1210221+9999MW1711REMSYN082AAXX  25031 15373 21430 80000 11072 21082 39771 40173 52022 77177 8572/ 333 60017;
0108153730999992000012504004+44850+024870FM-12+031599999V0201601N001010360019N0030001N1-00801+99999999999ADDAY171999AY271999GF108991041051004501071999MW1711REMSYN048AAXX  25041 15373 41430 81601 11080 77177 8457/;
0108153730999992000012505004+44850+024870FM-12+031599999V0201601N001010360019N0045001N1-00891+99999999999ADDAY171999AY271999GF108991041051008001071999MW1711REMSYN048AAXX  25051 15373 41545 81601 11089 77177 8457/;
0108153730999992000012507004+44850+024870FM-12+031599999V0209999C000010075019N0012001N1-00871+99999999999ADDAY171999AY271999GF108991051051008001071999MW1711REMSYN048AAXX  25071 15373 41512 80000 11087 77177 8557/;
0091153730999992000012614004+44850+024870FM-12+031599999V0200901N001012200019N0100001N1+99999+99999999999ADDAA124204091GF101991011001999999041001REMSYN042AAXX  26141 15373 42960 10901 62044 81040;
0163153730999992000012615004+44850+024870FM-12+031599999V0200701N001012200019N0100001N1-00451-01211102181ADDAA199000091GF102991021001999999041001MA1999999098191MD1610041+9999REMSYN066AAXX  26151 15373 32960 20701 11045 21121 39819 40218 56004 82040;EQDQ01  00002PRCP99
0080153730999992000012616004+44850+024870FM-12+031599999V0203201N001019999999N0100001N1-00381+99999999999ADDGF105991051001999999071001REMSYN042AAXX  26161 15373 42960 53201 11038 85070;
0080153730999992000012617004+44850+024870FM-12+031599999V0209999C000019999999N0100001N1-00681+99999999999ADDGF105991051001999999071001REMSYN042AAXX  26171 15373 42960 50000 11068 85070;
0227153730999992000012618004+44850+024870FM-12+031599999V0209999C000019999999N0100001N1-00771-01321102301ADDAA199000091AJ100239199999999GF107991071001999999071001IA1239KA1120M-00201MA1999999098251MD1310061+9999REMSYN094AAXX  26181 15373 32960 70000 11077 21132 39825 40230 53006 87070 333 11020 3/000 47023 92832;EQDQ01  00002PRCP99
0080153730999992000012619004+44850+024870FM-12+031599999V0209999C000019999999N0100001N1-00671+99999999999ADDGF107991071001999999071001REMSYN042AAXX  26191 15373 42960 70000 11067 87070;
0080153730999992000012620004+44850+024870FM-12+031599999V0209999C000019999999N0100001N1-00701+99999999999ADDGF108991081001999999071999REMSYN042AAXX  26201 15373 42960 80000 11070 8807/;
0189153730999992000012621004+44850+024870FM-12+031599999V0209999C000019999999N0100001N1-00751-01271999999ADDAA199000091GF107991071001999999071001MA1999999098301MD1210151+9999REMSYN076AAXX  26211 15373 32960 70000 11075 21127 39830 40133 52015 87070 333 55050;EQDQ01+101333APOSLPQ02  00002PRCP99
0080153730999992000012622004+44850+024870FM-12+031599999V0209999C000019999999N0100001N1-00781+99999999999ADDGF108991081001999999071999REMSYN042AAXX  26221 15373 42960 80000 11078 8807/;
0080153730999992000012623004+44850+024870FM-12+031599999V0209999C000012200019N0100001N1-00881+99999999999ADDGF102991021001999999041001REMSYN042AAXX  26231 15373 42960 20000 11088 82040;
0080153730999992000012701004+44850+024870FM-12+031599999V0209999C000012200019N0100001N1-00901+99999999999ADDGF103991031001999999041001REMSYN042AAXX  27011 15373 42960 30000 11090 83040;
0163153730999992000012703004+44850+024870FM-12+031599999V0200501N002012200019N0100001N1-00931-01151102421ADDAA199000091GF104991041001999999041001MA1999999098351MD1010031+9999REMSYN066AAXX  27031 15373 32960 40502 11093 21115 39835 40242 50003 84040;EQDQ01  00002PRCP99
0080153730999992000012704004+44850+024870FM-12+031599999V0200501N001019999999N9999999N1-00941+99999999999ADDGF105991051001999999041001REMSYN042AAXX  27041 15373 429/8 50501 11094 85040;
0080153730999992000012707004+44850+024870FM-12+031599999V0200201N002019999999N0100001N1-00861+99999999999ADDGF105991051001999999071001REMSYN042AAXX  27071 15373 42960 50202 11086 85070;
0080153730999992000012714004+44850+024870FM-12+031599999V0209999C000012200019N0100001N1+00121+99999999999ADDGF101991011001999999041001REMSYN042AAXX  27141 15373 42960 10000 10012 81040;
0179153730999992000012715004+44850+024870FM-12+031599999V02099999999999999999N0100001N1-00101-00661102221ADDAA199000091GF107991999001999999041001MA1999999098271MD1310101+9999REMSYN066AAXX  27151 15373 32960 7/000 1101/ 21066 39827 40222 53010 81040;EQDQ01+000012SCOTLCQ02  00002PRCP99
0080153730999992000012716004+44850+024870FM-12+031599999V0209999C000012200019N0100001N1-00171+99999999999ADDGF101991011001999999041001REMSYN042AAXX  27161 15373 42960 10000 11017 81040;
0045153730999992000012717004+44850+024870FM-12+031599999V0209999C000019999999N9999999N1-00381+99999999999REMSYN036AAXX  27171 15373 4/60/ /0000 11038;
0090153730999992000012722004+44850+024870FM-12+031599999V0203601N002012200019N0100001N1-00501+99999999999ADDGA1001+999999999GF100991001001999999001001REMSYN036AAXX  27221 15373 42960 03602 11050;
0090153730999992000012723004+44850+024870FM-12+031599999V0203601N002012200019N0100001N1-00701+99999999999ADDGA1001+999999999GF100991001001999999001001REMSYN036AAXX  27231 15373 42960 03602 11070;
0218153730999992000012800004+44850+024870FM-12+031599999V0203401N004012200019N0100001N1-00781-00841102501ADDAA199000091AJ100189199999999GA1001+999999999GF100991001001999999001001IA1279MA1999999098441MD1810021+9999REMSYN082AAXX  28001 15373 32960 03404 11078 21084 39844 40250 58002 333 43018 92600 92832;EQDQ01  00002PRCP99
0100153730999992000012801004+44850+024870FM-12+031599999V0203201N003012200019N0100001N1-00691+99999999999ADDGA1001+999999999GF100991001001999999001001REMSYN046AAXX  28011 15373 42960 03203 11069 333 92600;
0100153730999992000012802004+44850+024870FM-12+031599999V0203201N004012200019N0100001N1-00871+99999999999ADDGA1001+999999999GF100991001001999999001001REMSYN046AAXX  28021 15373 42960 03204 11087 333 92600;
0183153730999992000012803004+44850+024870FM-12+031599999V0203601N002012200019N0100001N1-00771-00841102411ADDAA199000091GA1001+999999999GF100991001001999999001001MA1999999098361MD1710081+9999REMSYN070AAXX  28031 15373 32960 03602 11077 21084 39836 40241 57008 333 92600;EQDQ01  00002PRCP99
0100153730999992000012804004+44850+024870FM-12+031599999V02099999999992200019N0100001N1-00841+99999999999ADDGA1001+999999999GF100991001001999999001001REMSYN046AAXX  28041 15373 42960 03/03 11084 333 92600;
0100153730999992000012805004+44850+024870FM-12+031599999V0203601N002012200019N0100001N1-00921+99999999999ADDGA1001+999999999GF100991001001999999001001REMSYN046AAXX  28051 15373 42960 03602 11092 333 92600;
0105153730999992000012808004+44850+024870FM-12+031599999V0203601N002012200019N9999999N1-00671+99999999999ADDGF101991001001999999001999REMSYN048AAXX  28081 15373 429// 13602 11067 8100/ 92600;EQDQ01+000012SCOTLC
0090153730999992000012813004+44850+024870FM-12+031599999V0209999C000012200019N0100001N1+00341+99999999999ADDGA1001+999999999GF100991001001999999001001REMSYN036AAXX  28131 15373 42960 00000 10034;
0080153730999992000012814004+44850+024870FM-12+031599999V0202001N002012200019N0100001N1+00241+99999999999ADDGF102991001001999999001011REMSYN042AAXX  28141 15373 42960 22002 10024 80001;
0163153730999992000012815004+44850+024870FM-12+031599999V0209999C000012200019N0100001N1+00151-00611101841ADDAA199000091GF102991001001999999001011MA1999999097951MD1710131+9999REMSYN066AAXX  28151 15373 32960 20000 10015 21061 39795 40184 57013 80001;EQDQ01  00002PRCP99
0110153730999992000012816004+44850+024870FM-12+031599999V0209999C000012200019N0100001N1+00001+99999999999ADDAA199000091GF102991001001999999001011REMSYN042AAXX  28161 15373 32960 20000 10000 80001;EQDQ01  00002PRCP99
0090153730999992000012817004+44850+024870FM-12+031599999V0209999C000012200019N0100001N1-00171+99999999999ADDGA1001+999999999GF100991001001999999001001REMSYN036AAXX  28171 15373 42960 00000 11017;
0237153730999992000012818004+44850+024870FM-12+031599999V0209999C000012200019N0100001N1-00371-00661102031ADDAA199000091AJ100169199999999GA1001+999999999GF100991001001999999001001IA1239KA1120M+00351MA1999999098061MD1310111+9999REMSYN088AAXX  28181 15373 32960 00000 11037 21066 39806 40203 53011 333 10035 3/005 47016 92832;EQDQ01  00002PRCP99
0100153730999992000012819004+44850+024870FM-12+031599999V0209999C000012200019N0100001N1-00441+99999999999ADDGA1001+999999999GF100991001001999999001001REMSYN046AAXX  28191 15373 42960 00000 11044 333 92600;
0100153730999992000012820004+44850+024870FM-12+031599999V0203201N001012200019N0100001N1-00361+99999999999ADDGA1001+999999999GF100991001001999999001001REMSYN046AAXX  28201 15373 42960 03201 11036 333 92600;
0189153730999992000012821004+44850+024870FM-12+031599999V0203401N002012200019N0100001N1-00461-00701102051ADDAA199000091GA1001+999999999GF100991001001999999001001MA1999999098061MD1410001+9999REMSYN076AAXX  28211 15373 32960 03402 11046 21070 39806 40205 54000 333 55086 92600;EQDQ01  00002PRCP99
0084153730999992000012822004+44850+024870FM-12+031599999V0203401N002019999999N0100001N1-00541+99999999999ADDGF106991999999999999999999REMSYN046AAXX  28221 15373 42960 63402 11054 333 92600;
0112153730999992000012823004+44850+024870FM-12+031599999V0209999C000019999999N0070001N1-00581+99999999999ADDAY121999AY221999GF107991071001999999071001MW1101REMSYN052AAXX  28231 15373 41957 70000 11058 71022 87070 333;
0236153730999992000012900004+44850+024870FM-12+031599999V0203601N004019999999N0070001N1-00501-00711101951ADDAA199000091AJ100169199999999AY121061AY211061GF107991071001999999071001IA1239MA1999999097971MD1810091+9999MW1101REMSYN094AAXX  29001 15373 31957 73604 11050 21071 39797 40195 58009 71021 87070 333 47016 92600 92832;EQDQ01  00002PRCP99
0118153730999992000012901004+44850+024870FM-12+031599999V0203601N002019999999N0070001N1-00421+99999999999ADDAY121011AY221011GF105991051001999999071001MW1101REMSYN058AAXX  29011 15373 41957 53602 11042 71022 85070 333 92600;
0118153730999992000012902004+44850+024870FM-12+031599999V0203601N002012200019N0070001N1-00551+99999999999ADDAY111999AY211999GF101991011001999999041001MW1101REMSYN058AAXX  29021 15373 41957 13602 11055 71011 81040 333 92600;
0201153730999992000012903004+44850+024870FM-12+031599999V0203601N001019999999N0070001N1-00521-00661101971ADDAA199000091AY111031AY211031GF107991071001999999071001MA1999999097991MD1110021+9999MW1101REMSYN082AAXX  29031 15373 31957 73601 11052 21066 39799 40197 51002 71011 87070 333 92600;EQDQ01  00002PRCP99
0118153730999992000012904004+44850+024870FM-12+031599999V0203601N002019999999N0070001N1-00441+99999999999ADDAY121999AY221999GF105991051001999999071001MW1101REMSYN058AAXX  29041 15373 41957 53602 11044 71022 85070 333 92600;
0080153730999992000012916004+44850+024870FM-12+031599999V0202701N003012200019N0100001N1+00371+99999999999ADDGF101991011001999999041001REMSYN042AAXX  29161 15373 42960 12703 10037 81040;
0090153730999992000012917004+44850+024870FM-12+031599999V0209999C000012200019N0100001N1+00241+99999999999ADDGA1001+999999999GF100991001001999999001001REMSYN036AAXX  29171 15373 42960 00000 10024;
0163153730999992000013015004+44850+024870FM-12+031599999V0202701N005019999999N0100001N1+00501+00091100871ADDAA199000091GF105991051001999999071001MA1999999097061MD1710051+9999REMSYN066AAXX  30151 15373 32960 52705 10050 20009 39706 40087 57005 85070;EQDQ01  00002PRCP99
0080153730999992000013016004+44850+024870FM-12+031599999V0203201N003019999999N0100001N1+00461+99999999999ADDGF106991061001999999071001REMSYN042AAXX  30161 15373 42960 63203 10046 86070;
0080153730999992000013017004+44850+024870FM-12+031599999V0203201N003012200019N0100001N1+00421+99999999999ADDGF103991031001999999041001REMSYN042AAXX  30171 15373 42960 33203 10042 83040;
0227153730999992000013018004+44850+024870FM-12+031599999V0203201N002019999999N0100001N1+00461+00211100951ADDAA199000091AJ100129199999999GF106991061001999999071001IA1239KA1120M+00551MA1999999097111MD1210051+9999REMSYN094AAXX  30181 15373 32960 63202 10046 20021 39711 40095 52005 86070 333 10055 3/003 47012 92852;EQDQ01  00002PRCP99
0080153730999992000013019004+44850+024870FM-12+031599999V0202901N003019999999N0100001N1+00521+99999999999ADDGF105991051001999999071001REMSYN042AAXX  30191 15373 42960 52903 10052 85070;
0074153730999992000013107004+44850+024870FM-12+031599999V0202701N003012200019N0100001N1-00141+99999999999ADDGF102991999999999999999999REMSYN036AAXX  31071 15373 42960 22703 11014;
0080153730999992000013116004+44850+024870FM-12+031599999V0202701N001012200019N0100001N1+00501+99999999999ADDGF103991031001999999041001REMSYN042AAXX  31161 15373 42960 32701 10050 83040;
0080153730999992000013117004+44850+024870FM-12+031599999V0209999C000012200019N0100001N1+00361+99999999999ADDGF102991021001999999041001REMSYN042AAXX  31171 15373 42960 20000 10036 82040;
0237153730999992000013118004+44850+024870FM-12+031599999V0202701N003012200019N0100001N1+00481+00071101581ADDAA199000091AJ100129199999999GA1001+999999999GF100991001001999999001001IA1279KA1120M+00811MA1999999097741MD1710051+9999REMSYN088AAXX  31181 15373 32960 02703 10048 20007 39774 40158 57005 333 10081 3/102 43012 92852;EQDQ01  00002PRCP99
0090153730999992000013119004+44850+024870FM-12+031599999V0200901N001012200019N0100001N1+00441+99999999999ADDGA1001+999999999GF100991001001999999001001REMSYN036AAXX  31191 15373 42960 00901 10044;
0090153730999992000013120004+44850+024870FM-12+031599999V0209999C000012200019N0100001N1+00331+99999999999ADDGA1001+999999999GF100991001001999999001001REMSYN036AAXX  31201 15373 42960 00000 10033;
0090153730999992000013122004+44850+024870FM-12+031599999V0202701N001012200019N0100001N1+00311+99999999999ADDGA1001+999999999GF100991001001999999001001REMSYN036AAXX  31221 15373 42960 02701 10031;
0224153730999992000020100004+44850+024870FM-12+031599999V0202901N001012200019N0100001N1+00471+00081999999ADDAA199000091AJ100129199999999GA1001+999999999GF100991001001999999001001IA1279MA1999999097911REMSYN070AAXX  01001 15373 32960 02901 10047 20008 39791 40752 333 43012 92852;EQDQ01+107523APOSLPQ02  00002PRCP99Q03 107523APOSLP
0090153730999992000020101004+44850+024870FM-12+031599999V0202901N002012200019N0100001N1+00631+99999999999ADDGA1001+999999999GF100991001001999999001001REMSYN036AAXX  01011 15373 42960 02902 10063;
0090153730999992000020102004+44850+024870FM-12+031599999V0202901N004012200019N0100001N1+00711+99999999999ADDGA1001+999999999GF100991001001999999001001REMSYN036AAXX  01021 15373 42960 02904 10071;
0237153730999992000020106004+44850+024870FM-12+031599999V0203601N008012200019N0100001N1+00861-00251102131ADDAA199000091AJ100129199999999GA1001+999999999GF100991001001999999001001IA1279KA1120N+00171MA1999999098321MD1210241+9999REMSYN088AAXX  01061 15373 32960 03608 10086 21025 39832 40213 52024 333 20017 3/081 43012 92852;EQDQ01  00002PRCP99
0080153730999992000020107004+44850+024870FM-12+031599999V0203201N007012200019N0100001N1+00861+99999999999ADDGF101991011001999999041001REMSYN042AAXX  01071 15373 42960 13207 10086 81040;
0080153730999992000020108004+44850+024870FM-12+031599999V0203601N004012200019N0100001N1+00821+99999999999ADDGF102991011011012501041021REMSYN042AAXX  01081 15373 42660 23604 10082 81142;
0090153730999992000020120004+44850+024870FM-12+031599999V0203401N003012200019N0100001N1+00261+99999999999ADDGA1001+999999999GF100991001001999999001001REMSYN036AAXX  01201 15373 42960 03403 10026;
0080153730999992000020210004+44850+024870FM-12+031599999V0209999C000012200019N0750001N1+00721+99999999999ADDGF103991001001999999001011REMSYN042AAXX  02101 15373 42989 30000 10072 80001;
0080153730999992000020213004+44850+024870FM-12+031599999V0202501N001012200019N0750001N1+01311+99999999999ADDGF103991001001999999001011REMSYN042AAXX  02131 15373 42989 32501 10131 80001;
0080153730999992000020214004+44850+024870FM-12+031599999V0209999C000012200019N0750001N1+01201+99999999999ADDGF102991001001999999001011REMSYN042AAXX  02141 15373 42989 20000 10120 80001;
0163153730999992000020215004+44850+024870FM-12+031599999V0202701N001012200019N0750001N1+01021+00061101401ADDAA199000091GF104991021001999999041011MA1999999097641MD1710221+9999REMSYN066AAXX  02151 15373 32989 42701 10102 20006 39764 40140 57022 82041;EQDQ01  00002PRCP99
0080153730999992000020216004+44850+024870FM-12+031599999V0209999C000012200019N0750001N1+00981+99999999999ADDGF104991031001999999041011REMSYN042AAXX  02161 15373 42989 40000 10098 83041;
0080153730999992000020217004+44850+024870FM-12+031599999V0202901N001012200019N0100001N1+00861+99999999999ADDGF102991021001999999041001REMSYN042AAXX  02171 15373 42960 22901 10086 82040;
0227153730999992000020218004+44850+024870FM-12+031599999V0203201N002012200019N0100001N1+00811+00091101371ADDAA199000091AJ100079199999999GF102991021001999999041001IA1309KA1120M+01281MA1999999097591MD1710051+9999REMSYN094AAXX  02181 15373 32960 23202 10081 20009 39759 40137 57005 82040 333 10128 3/003 42007 92851;EQDQ01  00002PRCP99
0120153730999992000020219004+44850+024870FM-12+031599999V0202901N001012200019N0100001N1+00591+99999999999ADDAA199000091GA1001+999999999GF100991001001999999001001REMSYN036AAXX  02191 15373 32960 02901 10059;EQDQ01  00002PRCP99
0090153730999992000020220004+44850+024870FM-12+031599999V0203201N001012200019N0100001N1+00441+99999999999ADDGA1001+999999999GF100991001001999999001001REMSYN036AAXX  02201 15373 42960 03201 10044;
0183153730999992000020221004+44850+024870FM-12+031599999V0203201N001012200019N0100001N1+00391+00161101381ADDAA199000091GA1001+999999999GF100991001001999999001001MA1999999097541MD1710051+9999REMSYN070AAXX  02211 15373 32960 03201 10039 20016 39754 40138 57005 333 55086;EQDQ01  00002PRCP99
0182153730999992000020300004+44850+024870FM-12+031599999V0209999C000012200019N0100001N1+00101+00071101371ADDAA199000091GA1001+999999999GF100991001001999999001001KA1999N+99999MA1999999097491REMSYN070AAXX  03001 15373 32960 00000 1001/ 20007 39749 40137 5/0/5 333 2881/;EQDQ01  00002PRCP99
0090153730999992000020301004+44850+024870FM-12+031599999V0209999C000012200019N0100001N1+00101+99999999999ADDGA1001+999999999GF100991001001999999001001REMSYN036AAXX  03011 15373 42960 00000 10010;
0183153730999992000020303004+44850+024870FM-12+031599999V0203201N001012200019N0100001N1-00021-00141101351ADDAA199000091GA1001+999999999GF100991001001999999001001MA1999999097461MD1710031+9999REMSYN070AAXX  03031 15373 32960 03201 11002 21014 39746 40135 57003 333 92600;EQDQ01  00002PRCP99
0090153730999992000020304004+44850+024870FM-12+031599999V0203601N001012200019N0100001N1-00061+99999999999ADDGA1001+999999999GF100991001001999999001001REMSYN036AAXX  03041 15373 42960 03601 11006;
0157153730999992000020315004+44850+024870FM-12+031599999V0203201N003019999999N0100001N1+99999+99999101481ADDAA199000091GF107991071001999999071001MA1999999097691MD1210121+9999REMSYN060AAXX  03151 15373 32960 73203 21019 39769 40148 52012 87070;EQDQ01  00002PRCP99
0080153730999992000020316004+44850+024870FM-12+031599999V0203201N005019999999N0100001N1+00781+99999999999ADDGF107991071001999999071001REMSYN042AAXX  03161 15373 42960 73205 10078 87070;
0080153730999992000020317004+44850+024870FM-12+031599999V0200201N004019999999N0100001N1+00551+99999999999ADDGF106991061001999999071001REMSYN042AAXX  03171 15373 42960 60204 10055 86070;
0227153730999992000020318004+44850+024870FM-12+031599999V0203601N003012200019N0100001N1+00471-00201101961ADDAA199000091AJ100059199999999GF104991041001999999041001IA1309KA1120M+01171MA1999999098101MD1210411+9999REMSYN094AAXX  03181 15373 32960 43603 10047 21020 39810 40196 52041 84040 333 10117 3/007 42005 92881;EQDQ01  00002PRCP99
0080153730999992000020319004+44850+024870FM-12+031599999V0203601N001012200019N0100001N1+00401+99999999999ADDGF102991021001999999041001REMSYN042AAXX  03191 15373 42960 23601 10040 82040;
0090153730999992000020320004+44850+024870FM-12+031599999V0203401N004012200019N0100001N1+00381+99999999999ADDGA1001+999999999GF100991001001999999001001REMSYN036AAXX  03201 15373 42960 03404 10038;
0183153730999992000020321004+44850+024870FM-12+031599999V0203401N002012200019N0100001N1+00221-00081102281ADDAA199000091GA1001+999999999GF100991001001999999001001MA1999999098391MD1210291+9999REMSYN070AAXX  03211 15373 32960 03402 10022 21008 39839 40228 52029 333 55006;EQDQ01  00002PRCP99
0212153730999992000020400004+44850+024870FM-12+031599999V0209999C000012200019N0100001N1+00151-00231102421ADDAA199000091AJ100059199999999GA1001+999999999GF100991001001999999001001IA1309MA1999999098501MD1210111+9999REMSYN076AAXX  04001 15373 32960 00000 10015 21023 39850 40242 52011 333 42005 92881;EQDQ01  00002PRCP99
0090153730999992000020401004+44850+024870FM-12+031599999V0209999C000012200019N0100001N1+00131+99999999999ADDGA1001+999999999GF100991001001999999001001REMSYN036AAXX  04011 15373 42960 00000 10013;
0102153730999992000020402004+44850+024870FM-12+031599999V0203601N001012200019N0100001N1+00031+99999999999ADDGA1001+999999999GF100991001001999999001001REMSYN048AAXX  04021 15373 42960 03601 10003 33/// 92600;
0215153730999992000020403004+44850+024870FM-12+031599999V0203601N001012200019N0100001N1+99999+99999102591ADDAA199000091GA1001+999999999GF100991001001999999001001MA1999999098641MD1210141+9999REMSYN070AAXX  04031 15373 32960 03601 11805 21036 39864 40259 52014 333 92600;EQDQ01-008053ATOT  Q02  00002PRCP99Q03 -08053ATOT  
0090153730999992000020416004+44850+024870FM-12+031599999V0203601N002012200019N0750001N1+00061+99999999999ADDGA1001+999999999GF100991001001999999001001REMSYN036AAXX  04161 15373 42989 03602 10006;
0090153730999992000020417004+44850+024870FM-12+031599999V0202301N001012200019N9999999N1-00081+99999999999ADDGA1001+999999999GF100991001001999999001001REMSYN036AAXX  04171 15373 4/60/ 02301 11008;
0243153730999992000020418004+44850+024870FM-12+031599999V0201401N001012200019N0100001N1-00161-00161103541ADDAA199000091AJ100029199999999GA1001+999999999GF100991001001999999001001IA1309KA1120M+00481MA1999999099541MD1210191+9999REMSYN094AAXX  04181 15373 32960 01401 11016 21016 39954 40354 52019 333 10048 3/007 42002 92600 92851;EQDQ01  00002PRCP99
0211153730999992000020421004+44850+024870FM-12+031599999V0209999C000012200019N0045001N1-00301-00301999999ADDAA199000091AY101031AY201031GA1001+999999999GF100991001001999999001001MA1999999099621MD1310081+9999MW1101REMSYN076AAXX  04211 15373 31/45 00000 11030 21030 39962 53008 71000 333 55089 92611;EQDQ01  00002PRCP99
0080153730999992000020517004+44850+024870FM-12+031599999V0201601N001012200019N0100001N1+00491+99999999999ADDGF102991021001999999041001REMSYN042AAXX  05171 15373 42960 21601 10049 82040;
0090153730999992000020602004+44850+024870FM-12+031599999V0209999C000012200019N0100001N1+00211+99999999999ADDGA1001+999999999GF100991001001999999001001REMSYN036AAXX  06021 15373 42960 00000 10021;
0080153730999992000020610004+44850+024870FM-12+031599999V0203601N003019999999N0500001N1+01071+99999999999ADDGF105991051001999999071001REMSYN042AAXX  06101 15373 42984 53603 10107 85070;
0163153730999992000020615004+44850+024870FM-12+031599999V0203401N002012200019N0010001N1+01171+00301102401ADDAA199000091GF101991011001999999041001MA1999999098611MD1710061+9999REMSYN066AAXX  06151 15373 32910 13402 10117 20030 39861 40240 57006 81040;EQDQ01  00002PRCP99
0080153730999992000020616004+44850+024870FM-12+031599999V0203601N003012200019N0100001N1+01031+99999999999ADDGF101991011001999999041001REMSYN042AAXX  06161 15373 42960 13603 10103 81040;
0090153730999992000020617004+44850+024870FM-12+031599999V0209999C000012200019N0100001N1+00921+99999999999ADDGA1001+999999999GF100991001001999999001001REMSYN036AAXX  06171 15373 42960 00000 10092;
0225153730999992000020618004+44850+024870FM-12+031599999V0203401N001012200019N0100001N1+00861+00251102481ADDAA199000091AJ100009199999999GA1001+999999999GF100991001001999999001001KA1120M+01221MA1999999098671MD1310061+9999REMSYN082AAXX  06181 15373 32960 03401 10086 20025 39867 40248 53006 333 10122 3/013 41998;EQDQ01  00002PRCP99
0090153730999992000020619004+44850+024870FM-12+031599999V0200201N001012200019N0100001N1+00641+99999999999ADDGA1001+999999999GF100991001001999999001001REMSYN036AAXX  06191 15373 42960 00201 10064;
0090153730999992000020620004+44850+024870FM-12+031599999V0203601N001012200019N0100001N1+00541+99999999999ADDGA1001+999999999GF100991001001999999001001REMSYN036AAXX  06201 15373 42960 03601 10054;
0090153730999992000020716004+44850+024870FM-12+031599999V0209999C000012200019N0100001N1+01281+99999999999ADDGA1001+999999999GF100991001001999999001001REMSYN036AAXX  07161 15373 42960 00000 10128;
0090153730999992000020717004+44850+024870FM-12+031599999V0209999C000012200019N0100001N1+01041+99999999999ADDGA1001+999999999GF100991001001999999001001REMSYN036AAXX  07171 15373 42960 00000 10104;
0090153730999992000020720004+44850+024870FM-12+031599999V0209999C000012200019N0100001N1+00481+99999999999ADDGA1001+999999999GF100991001001999999001001REMSYN036AAXX  07201 15373 42960 00000 10048;
0183153730999992000020721004+44850+024870FM-12+031599999V0203401N002012200019N0100001N1+00411+00291102171ADDAA199000091GA1001+999999999GF100991001001999999001001MA1999999098301MD1310031+9999REMSYN070AAXX  07211 15373 32960 03402 10041 20029 39830 40217 53003 333 55077;EQDQ01  00002PRCP99
0090153730999992000020723004+44850+024870FM-12+031599999V0203601N002012200019N0100001N1+00291+99999999999ADDGA1001+999999999GF100991001001999999001001REMSYN036AAXX  07231 15373 42960 03602 10029;
0108153730999992000020808004+44850+024870FM-12+031599999V0203601N003019999999N0070001N1+00361+99999999999ADDAY121999AY221999GF106991011001999999041081MW1101REMSYN048AAXX  08081 15373 41957 63603 10036 71022 81048;
0080153730999992000020817004+44850+024870FM-12+031599999V0209999C000012200019N0100001N1+00781+99999999999ADDGF102991021001999999041001REMSYN042AAXX  08171 15373 42960 20000 10078 82040;
0084153730999992000020907004+44850+024870FM-12+031599999V0203201N001019999999N0100001N1+00101+99999999999ADDGF107991999999999999999999REMSYN046AAXX  09071 15373 42960 73201 10010 333 92611;
0092153730999992000020917004+44850+024870FM-12+031599999V0209999C000010075019N0045001N1+00601+99999999999ADDGF108991051051008001071999MW1611REMSYN048AAXX  09171 15373 41545 80000 10060 761/6 8557/;
0108153730999992000020919004+44850+024870FM-12+031599999V0209999C000010075019N0030001N1+00601+99999999999ADDAY161999AY261999GF108991051051008001071999MW1611REMSYN048AAXX  09191 15373 41530 80000 10060 76166 8557/;
0108153730999992000020923004+44850+024870FM-12+031599999V0200701N002010075019N0045001N1+00481+99999999999ADDAY161999AY261999GF108991061071008001021999MW1211REMSYN048AAXX  09231 15373 41545 80702 10048 72166 8672/;
0100153730999992000021002004+44850+024870FM-12+031599999V0209999C000010075019N0070001N1+00491+99999999999ADDAY161999GF108991061071008001021999MW1611REMSYN048AAXX  10021 15373 41557 80000 10049 7616/ 8672/;
0080153730999992000021013004+44850+024870FM-12+031599999V0209999C000010360019N0100001N1+00661+99999999999ADDGF107991031021008001071001REMSYN042AAXX  10131 15373 42560 70000 10066 83270;
0163153730999992000021015004+44850+024870FM-12+031599999V0209999C000019999999N0100001N1+00681+00131102321ADDAA199000091GF106991021021999999071001MA1999999098491MD1310011+9999REMSYN066AAXX  10151 15373 32960 60000 10068 20013 39849 40232 53001 82270;EQDQ01  00002PRCP99
0080153730999992000021016004+44850+024870FM-12+031599999V0209999C000012200019N0100001N1+00541+99999999999ADDGF103991011041008001001011REMSYN042AAXX  10161 15373 42560 30000 10054 81401;
0080153730999992000021017004+44850+024870FM-12+031599999V0209999C000012200019N0100001N1+00471+99999999999ADDGF102991999051008001001999REMSYN042AAXX  10171 15373 42560 20000 10047 8/50/;
0207153730999992000021018004+44850+024870FM-12+031599999V0203201N001012200019N0100001N1+00331+00151102491ADDAA112000391GA1001+999999999GF100991001001999999001001IA1099IA2999+01209KA1120M+00701MA1999999098601MD1210111+9999REMSYN082AAXX  10181 15373 12960 03201 10033 20015 39860 40249 52011 69932 333 10070 31012;
0080153730999992000021020004+44850+024870FM-12+031599999V02099999999992200019N0100001N1+00191+99999999999ADDGF104991041001999999071001REMSYN042AAXX  10201 15373 42960 4//00 10019 84070;
0201153730999992000021021004+44850+024870FM-12+031599999V0209999C000019999999N0045001N1+00161+00081102581ADDAA199000091AY111031AY201031GF108991081001999999071999MA1999999098661MD1210061+9999MW1101REMSYN082AAXX  10211 15373 31945 80000 10016 20008 39866 40258 52006 71010 8807/ 333 55008;EQDQ01  00002PRCP99
0108153730999992000021022004+44850+024870FM-12+031599999V0209999C000019999999N0045001N1+99999+99999999999ADDAY121999AY221999GF108991081001999999071999MW1101REMSYN048AAXX  10221 15373 41945 80000 1084/ 71022 8807/;
0193153730999992000021100004+44850+024870FM-12+031599999V0203601N004012200019N0012001N1+00041-00021102621ADDAA199000091AY111061GA1001+999999999GF100991001001999999001001MA1999999098681MD1210021+9999MW1121REMSYN066AAXX  11001 15373 31912 03604 10004 21002 39868 40262 52002 7121/;EQDQ01  00002PRCP99
0211153730999992000021103004+44850+024870FM-12+031599999V0203601N003010001519N0000001N1-00061-00421102591ADDAA199000091AY141031AY241031GA1091+999999999GF109991091999999999999999MA1999999098651MD1810031+9999MW1451REMSYN076AAXX  11031 15373 31/00 93603 11006 21042 39865 40259 58003 74544 333 92600;EQDQ01  00002PRCP99
0128153730999992000021105004+44850+024870FM-12+031599999V0203601N002012200019N0012001N1-00121+99999999999ADDAY141999AY201999GA1001+999999999GF100991001001999999001001MW1281REMSYN052AAXX  11051 15373 41912 03602 11012 72840 333 92611;
0080153730999992000021116004+44850+024870FM-12+031599999V0202501N003012200019N0100001N1+00621+99999999999ADDGF101991011001999999041001REMSYN042AAXX  11161 15373 42960 12503 10062 81040;
0220153730999992000021118004+44850+024870FM-12+031599999V0202701N004012200019N0100001N1+00401+00201102621ADDAA199000091GA1001+999999999GF100991001001999999001001IA1099IA2999+01509KA1120M+00901MA1999999098741MD1110041+9999REMSYN076AAXX  11181 15373 32960 02704 10040 20020 39874 40262 51004 333 10090 31015;EQDQ01  00002PRCP99
0090153730999992000021119004+44850+024870FM-12+031599999V0209999C000012200019N0100001N1+00361+99999999999ADDGA1001+999999999GF100991001001999999001001REMSYN036AAXX  11191 15373 42960 00000 10036;
0096153730999992000021120004+44850+024870FM-12+031599999V0209999C000012200019N0070001N1+00881+99999999999ADDGA1001+999999999GF100991001001999999001001REMSYN042AAXX  11201 15373 41957 00000 10088 81000;
0217153730999992000021121004+44850+024870FM-12+031599999V0200201N001012200019N0070001N1+00141+00101102671ADDAA199000091AY101031AY201031GA1001+999999999GF100991001001999999001001MA1999999098751MD1310011+9999MW1101REMSYN082AAXX  11211 15373 31957 00201 10014 20010 39875 40267 53001 71000 333 55078 92600;EQDQ01  00002PRCP99
0211153730999992000021203004+44850+024870FM-12+031599999V0200201N001012200019N0045001N1-00081-00181102781ADDAA199000091AY101031AY201031GA1001+999999999GF100991001001999999001001MA1999999098821MD1310021+9999MW1101REMSYN076AAXX  12031 15373 31945 00201 11008 21018 39882 40278 53002 71000 333 92600;EQDQ01  00002PRCP99
0100153730999992000021204004+44850+024870FM-12+031599999V0203201N003012200019N0045001N1-00081+99999999999ADDGA1001+999999999GF100991001001999999001001REMSYN046AAXX  12041 15373 41945 03203 11008 333 92600;
0080153730999992000021217004+44850+024870FM-12+031599999V0201401N001019999999N0100001N1+00391+99999999999ADDGF107991071001999999071001REMSYN042AAXX  12171 15373 42960 71401 10039 87070;
0191153730999992000021406004+44850+024870FM-12+031599999V0209999C000010042019N0003001N1-00301-00301101851ADDAA199000091AY141061AY241061GF108991081061004501999999MA1999999097891MD1710061+9999MW1441REMSYN072AAXX  14061 15373 31403 80000 11030 21030 39789 40185 57006 74444 886//;EQDQ01  00002PRCP99
0108153730999992000021416004+44850+024870FM-12+031599999V0202701N002019999999N0045001N1+00481+99999999999ADDAY121999AY221999GF107991071001999999999999MW1101REMSYN048AAXX  14161 15373 41945 72702 10048 71022 870//;
0108153730999992000021417004+44850+024870FM-12+031599999V0203601N001019999999N0045001N1+00441+99999999999ADDAY121999AY221999GF106991061001999999071001MW1101REMSYN048AAXX  14171 15373 41945 63601 10044 71022 86070;
0254153730999992000021418004+44850+024870FM-12+031599999V0203601N001019999999N0070001N1+00451-00061101361ADDAA199000091AY121061AY221061GF106991999001999999071001IA1069IA2999+01709KA1120M+00771MA1999999097521MD1810021+9999MW1101REMSYN088AAXX  14181 15373 31957 63601 10045 21006 39752 40136 58002 71022 85070 333 10077 37017;EQDQ01+000052SCOTLCQ02  00002PRCP99
0108153730999992000021419004+44850+024870FM-12+031599999V0203401N003012200019N0070001N1+00371+99999999999ADDAY121011AY221011GF102991021001999999041001MW1101REMSYN048AAXX  14191 15373 41957 23403 10037 71022 82040;
0090153730999992000021420004+44850+024870FM-12+031599999V0203601N002012200019N0100001N1+00271+99999999999ADDGA1001+999999999GF100991001001999999001001REMSYN036AAXX  14201 15373 42960 03602 10027;
0080153730999992000021423004+44850+024870FM-12+031599999V0209999C000019999999N0100001N1+00021+99999999999ADDGF105991051001999999071001REMSYN042AAXX  14231 15373 42960 50000 10002 85070;
0167153730999992000021500004+44850+024870FM-12+031599999V0200501N001012200019N0100001N1+99999+99999101531ADDAA199000091GF102991021001999999041001MA1999999097621MD1810011+9999REMSYN070AAXX  15001 15373 32960 20501 21037 39762 40153 58001 82040 333 92600;EQDQ01  00002PRCP99
0080153730999992000021501004+44850+024870FM-12+031599999V02099999999992200019N0100001N1-00121+99999999999ADDGF101991011001999999041001REMSYN042AAXX  15011 15373 42960 1/000 11012 81040;
0096153730999992000021502004+44850+024870FM-12+031599999V0203601N002012200019N0100001N1-00081+99999999999ADDGA1001+999999999GF100991001001999999001001REMSYN042AAXX  15021 15373 42960 03602 11008 92600;
0173153730999992000021503004+44850+024870FM-12+031599999V0203601N002012200019N0100001N1-00221-00521101571ADDAA199000091GF101991011001999999041001MA1999999097631MD1310011+9999REMSYN076AAXX  15031 15373 32960 13602 11022 21052 39763 40157 53001 81040 333 92600;EQDQ01  00002PRCP99
0084153730999992000021507004+44850+024870FM-12+031599999V0209999C000019999999N0100001N1-00101+99999999999ADDGF106991999999008001999999REMSYN046AAXX  15071 15373 42560 60000 11010 333 92600;
0080153730999992000021510004+44850+024870FM-12+031599999V0209999C000012200019N0100001N1+00401+99999999999ADDGF102991021021008001001001REMSYN042AAXX  15101 15373 42560 20000 10040 82200;
0080153730999992000021511004+44850+024870FM-12+031599999V0201801N010012200019N0100001N1+00541+99999999999ADDGF103991031021008001001001REMSYN042AAXX  15111 15373 42560 31810 10054 83200;
0080153730999992000021513004+44850+024870FM-12+031599999V0202501N004010075019N0100001N1+00571+99999999999ADDGF105991051021008001001001REMSYN042AAXX  15131 15373 42560 52504 10057 85200;
0080153730999992000021514004+44850+024870FM-12+031599999V0201301N005012200019N0100001N1+00571+99999999999ADDGF104991041021008001001001REMSYN042AAXX  15141 15373 42560 41305 10057 84200;
0080153730999992000021516004+44850+024870FM-12+031599999V0202501N003012200019N0100001N1+00381+99999999999ADDGF104991031021012501001041REMSYN042AAXX  15161 15373 42660 42503 10038 83204;
0080153730999992000021517004+44850+024870FM-12+031599999V0202501N002012200019N0100001N1+00261+99999999999ADDGF104991041041008001001001REMSYN042AAXX  15171 15373 42560 42502 10026 84400;
0220153730999992000021518004+44850+024870FM-12+031599999V0202701N003012200019N0100001N1+00161-00151101991ADDAA199000091GA1001+999999999GF100991001001999999001001IA1099IA2999+01909KA1120M+00621MA1999999098091MD1310091+9999REMSYN076AAXX  15181 15373 32960 02703 10016 21015 39809 40199 53009 333 10062 31019;EQDQ01  00002PRCP99
0090153730999992000021519004+44850+024870FM-12+031599999V0200201N001012200019N0100001N1+00091+99999999999ADDGA1001+999999999GF100991001001999999001001REMSYN036AAXX  15191 15373 42960 00201 10009;
0090153730999992000021520004+44850+024870FM-12+031599999V0209999C000012200019N0100001N1+00031+99999999999ADDGA1001+999999999GF100991001001999999001001REMSYN036AAXX  15201 15373 42960 00000 10003;
0189153730999992000021521004+44850+024870FM-12+031599999V0209999C000012200019N0100001N1-00061-00211102031ADDAA199000091GA1001+999999999GF100991001001999999001001MA1999999098101MD1210011+9999REMSYN076AAXX  15211 15373 32960 00000 11006 21021 39810 40203 52001 333 55074 92600;EQDQ01  00002PRCP99
0132153730999992000021522004+44850+024870FM-12+031599999V0209999C000012200019N0100001N1-00111+99999999999ADDAA112999999GF101991999001999999051001REMSYN064AAXX  15221 15373 42960 10000 11011 33/22 6//22 83050 333 92600;EQDQ01+000032SCOTLC
0100153730999992000021601004+44850+024870FM-12+031599999V0203601N002012200019N0100001N1-00281+99999999999ADDGA1001+999999999GF100991001001999999001001REMSYN046AAXX  16011 15373 42960 03602 11028 333 92600;
0100153730999992000021605004+44850+024870FM-12+031599999V0203601N001012200019N0100001N1-00401+99999999999ADDGA1001+999999999GF100991001001999999001001REMSYN046AAXX  16051 15373 42960 03601 1104/ 333 92600;
0216153730999992000021606004+44850+024870FM-12+031599999V0203601N002012200019N0100001N1-00461-00771101921ADDAA199000091GF102991021001999999041001IA1149IA2120-00509KA1120N-00471MA1999999097941MD1710041+9999REMSYN088AAXX  16061 15373 32960 23602 11046 21077 39794 40192 57004 82040 333 21047 34105 92600;EQDQ01  00002PRCP99
0163153730999992000021609004+44850+024870FM-12+031599999V0209999C000019999999N0500001N1-00081+99999101861ADDAA199000091GF107991071001999999071001MA1999999097941MD1410001+9999REMSYN066AAXX  16091 15373 32984 70000 11008 2///8 39794 40186 54000 87070;EQDQ01  00002PRCP99
