0227160220999992000010100004+46150+011030FM-12+2129LIVP V0209999C000012200019N0500001N1-00821-01221999999ADDAA106000091AJ100759199999999GA1001+999999999GF100991001001999999001001IA1249MA1999999078411MD1010021+9999ME1314989REMSYN082AAXX  01004 16022 32984 00000 11082 21122 37841 48498 50002 92337 333 48075 92835;EQDQ01  00002PRCP06
0094160220999992000010101434+46150+011030FM-15+2129LIVP V0209999C00001220001CN0099001N1-00801-01201999999ADDMA1101491999999MW1001REMMET061LIVP 010243Z 00000KT CAVOK M08/M12 Q1015 RMK MON LIB VAL NIL;
0094160220999992000010102434+46150+011030FM-15+2129LIVP V0209999C00001220001CN0099001N1-00801-01301999999ADDMA1101591999999MW1001REMMET061LIVP 010343Z 00000KT CAVOK M08/M13 Q1016 RMK MON LIB VAL NIL;
0168160220999992000010103004+46150+011030FM-12+2129LIVP V0209999C000012200019N0450001N1-00821-01151999999ADDGA1001+999999999GF100991001001999999001001MA1999999078451MD1310041+9999ME1315019REMSYN076AAXX  01034 16022 42983 00000 11082 21115 37845 48501 53004 90236 333 92835;
0094160220999992000010103434+46150+011030FM-15+2129LIVP V0200401N00261220001CN0099001N1-00801-01201999999ADDMA1101591999999MW1001REMMET061LIVP 010443Z 04005KT CAVOK M08/M12 Q1016 RMK MON LIB VAL NIL;
0074160220999992000010104434+46150+011030FM-15+2129LIVP V0200401N00311220001CN0099001N1-00801-01001999999ADDMA1101591999999MW1001REMMET041LIVP 010543Z 04006KT CAVOK M08/M10 Q1016;
0094160220999992000010105434+46150+011030FM-15+2129LIVP V0200401N00361220001CN0099001N1-00801-01001999999ADDMA1101591999999MW1001REMMET061LIVP 010643Z 04007KT CAVOK M08/M10 Q1016 RMK MON LIB VAL NIL;
0252160220999992000010106004+46150+011030FM-12+2129LIVP V0200401N003112200019N0600001N1-00781-01011999999ADDAA106000091AJ100759199999999GA1001+999999999GF100991001001999999001001IA1249KA1120N-00901MA1999999078501MD1210051+9999ME1315059REMSYN094AAXX  01064 16022 32986 00406 11078 21101 37850 48505 52005 90540 333 21090 48075 55070 92835;EQDQ01  00002PRCP06
0074160220999992000010106434+46150+011030FM-15+2129LIVP V0200301N00311220001CN0099001N1-00801-01001999999ADDMA1101691999999MW1001REMMET041LIVP 010743Z 03006KT CAVOK M08/M10 Q1017;
0094160220999992000010107434+46150+011030FM-15+2129LIVP V0200301N00261220001CN0099001N1-00701-01001999999ADDMA1101691999999MW1001REMMET061LIVP 010843Z 03005KT CAVOK M07/M10 Q1017 RMK MON LIB VAL NIL;
0074160220999992000010108434+46150+011030FM-15+2129LIVP V0200401N00261220001CN0099001N1-00701-01001999999ADDMA1101801999999MW1001REMMET041LIVP 010943Z 04005KT CAVOK M07/M10 Q1018;
0174160220999992000010109004+46150+011030FM-12+2129LIVP V0200301N002612200019N0600001N1-00721-01041999999ADDGA1001+999999999GF100991001001999999001001MA1999999078581MD1210081+9999ME1315059REMSYN082AAXX  01094 16022 42986 00305 11072 21104 37858 48505 52008 90837 333 55310 92835;
0074160220999992000010109434+46150+011030FM-15+2129LIVP V0200401N00311220001CN0099001N1-00701-01001999999ADDMA1101801999999MW1001REMMET041LIVP 011043Z 04006KT CAVOK M07/M10 Q1018;
0101160220999992000010110434+46150+011030FM-15+2129LIVP V0200601N00261220001CN0099001N1-00701-01001999999ADDMA1101801999999MW1001REMMET068LIVP 011143Z 06005KT CAVOK M07/M10 Q1018 RMK SCT060 MON LIB VAL NIL;
0074160220999992000010111434+46150+011030FM-15+2129LIVP V0209999C00001220001CN0099001N1-00701-01001999999ADDMA1101691999999MW1001REMMET041LIVP 011243Z 00000KT CAVOK M07/M10 Q1017;
0245160220999992000010112004+46150+011030FM-12+2129LIVP V0200601N002612200019N0700001N1-00721-01001999999ADDAA106000091AJ100759199999999GA1031+018009039GF103991031001017501051001IA1249MA1999999078621MD1110041+9999ME1315159REMSYN100AAXX  01124 16022 32788 30605 11072 21100 37862 48515 51004 83050 91136 333 48075 55310 83356 92835;EQDQ01  00002PRCP06
0074160220999992000010112434+46150+011030FM-15+2129LIVP V0209999C00001220001CN0099001N1-00601-01101999999ADDMA1101691999999MW1001REMMET041LIVP 011343Z 00000KT CAVOK M06/M11 Q1017;
0101160220999992000010113434+46150+011030FM-15+2129LIVP V0209999C00001220001CN0099001N1-00701-01101999999ADDMA1101691999999MW1001REMMET068LIVP 011443Z 00000KT CAVOK M07/M11 Q1017 RMK BKN060 MON LIB VAL NIL;
0074160220999992000010114434+46150+011030FM-15+2129LIVP V0200501N00311220001CN0099001N1-00701-01101999999ADDMA1101691999999MW1001REMMET041LIVP 011543Z 05006KT CAVOK M07/M11 Q1017;
0186160220999992000010115004+46150+011030FM-12+2129LIVP V0209999C000010180019N0700001N1-00701-01081999999ADDGA1061+018009039GF106991061001017501051001MA1999999078571MD1810051+9999ME1315099REMSYN094AAXX  01154 16022 42788 60000 11070 21108 37857 48509 58005 86050 91437 333 55300 86356 92835;
0074160220999992000010115434+46150+011030FM-15+2129LIVP V0200501N00361220001CN0099001N1-00701-01101999999ADDMA1101691999999MW1001REMMET041LIVP 011643Z 05007KT CAVOK M07/M11 Q1017;
0074160220999992000010116434+46150+011030FM-15+2129LIVP V0200501N00361220001CN0099001N1-00701-01001999999ADDMA1101691999999MW1001REMMET041LIVP 011743Z 05007KT CAVOK M07/M10 Q1017;
0246160220999992000010118004+46150+011030FM-12+2129LIVP V0200501N004112200019N0700001N1-00641-00971999999ADDAA106000091AJ100759199999999GA1001+999999999GF100991001001999999001001IA1249KA1120M-00641MA1999999078601MD1310031+9999ME1315139REMSYN088AAXX  01184 16022 32988 00508 11064 21097 37860 48513 53003 91737 333 11064 48075 92835;EQDQ01  00002PRCP06
0168160220999992000010121004+46150+011030FM-12+2129LIVP V0200501N004112200019N0700001N1-00601-01011999999ADDGA1001+999999999GF100991001001999999001001MA1999999078581MD1810021+9999ME1315129REMSYN076AAXX  01214 16022 42988 00508 11060 21101 37858 48512 58002 92037 333 92835;
0227160220999992000010200004+46150+011030FM-12+2129LIVP V0200801N002112200019N0400001N1-00541-00911999999ADDAA106000091AJ100759199999999GA1001+999999999GF100991001001999999001001IA1249MA1999999078601MD1310021+9999ME1315109REMSYN082AAXX  02004 16022 32982 00804 11054 21091 37860 48510 53002 92338 333 48075 92835;EQDQ01  00002PRCP06
0093160220999992000010201434+46150+011030FM-15+2129LIVP V0200401N00211220001CN0099001N1-00501-01101999999ADDMA1101691999999MW1001REMMET041LIVP 020243Z 04004KT CAVOK M05/M11 Q1017;EQDQ01+000000PRSWM2
0168160220999992000010203004+46150+011030FM-12+2129LIVP V0200401N002112200019N0400001N1-00501-01121999999ADDGA1001+999999999GF100991001001999999001001MA1999999078611MD1110011+9999ME1315099REMSYN076AAXX  02034 16022 42982 00404 11050 21112 37861 48509 51001 90237 333 92835;
0093160220999992000010203434+46150+011030FM-15+2129LIVP V0200201N00151220001CN0099001N1-00501-01001999999ADDMA1101691999999MW1001REMMET041LIVP 020443Z 02003KT CAVOK M05/M10 Q1017;EQDQ01+000000PRSWM2
0113160220999992000010204434+46150+011030FM-15+2129LIVP V0200301N00621220001CN0099001N1-00601-00901999999ADDMA1101801999999MW1001REMMET061LIVP 020543Z 03012KT CAVOK M06/M09 Q1018 RMK MON LIB VAL NIL;EQDQ01+000000PRSWM2
0113160220999992000010205434+46150+011030FM-15+2129LIVP V0200301N00511220001CN0099001N1-00601-00901999999ADDMA1101801999999MW1001REMMET061LIVP 020643Z 03010KT CAVOK M06/M09 Q1018 RMK MON LIB VAL NIL;EQDQ01+000000PRSWM2
0252160220999992000010206004+46150+011030FM-12+2129LIVP V0200301N006212200019N0400001N1-00581-00931999999ADDAA106000091AJ100759199999999GA1001+999999999GF100991001001999999001001IA1249KA1120N-00641MA1999999078621MD1310011+9999ME1315119REMSYN094AAXX  02064 16022 32982 00312 11058 21093 37862 48511 53001 90537 333 21064 48075 55033 92835;EQDQ01  00002PRCP06
0093160220999992000010206434+46150+011030FM-15+2129LIVP V0200301N00621220001CN0099001N1-00601-01001999999ADDMA1101901999999MW1001REMMET041LIVP 020743Z 03012KT CAVOK M06/M10 Q1019;EQDQ01+000000PRSWM2
0093160220999992000010207434+46150+011030FM-15+2129LIVP V0200201N00621220001CN0099001N1-00601-01001999999ADDMA1102001999999MW1001REMMET041LIVP 020843Z 02012KT CAVOK M06/M10 Q1020;EQDQ01+000000PRSWM2
0113160220999992000010208434+46150+011030FM-15+2129LIVP V0200201N00511220001CN0099001N1-00501-01001999999ADDMA1102201999999MW1001REMMET061LIVP 020943Z 02010KT CAVOK M05/M10 Q1022 RMK MON LIB VAL NIL;EQDQ01+000000PRSWM2
0174160220999992000010209004+46150+011030FM-12+2129LIVP V0200201N006212200019N0600001N1-00601-00991999999ADDGA1001+999999999GF100991001001999999001001MA1999999078841MD1110211+9999ME1315389REMSYN082AAXX  02094 16022 42986 00212 11060 21099 37884 48538 51021 90833 333 55310 92835;
0093160220999992000010209434+46150+011030FM-15+2129LIVP V0200201N00411220001CN0099001N1-00501-01101999999ADDMA1102201999999MW1001REMMET041LIVP 021043Z 02008KT CAVOK M05/M11 Q1022;EQDQ01+000000PRSWM2
0093160220999992000010210434+46150+011030FM-15+2129LIVP V0200201N00461220001CN0099001N1-00401-01101999999ADDMA1102201999999MW1001REMMET041LIVP 021143Z 02009KT CAVOK M04/M11 Q1022;EQDQ01+000000PRSWM2
0120160220999992000010211434+46150+011030FM-15+2129LIVP V0200101N00261220001CN0099001N1-00401-01201999999ADDMA1102201999999MW1001REMMET068LIVP 021243Z 01005KT CAVOK M04/M12 Q1022 RMK FEW160 MON LIB VAL NIL;EQDQ01+000000PRSWM2
0120160220999992000010212434+46150+011030FM-15+2129LIVP V0200101N00411220001CN0099001N1-00401-01301999999ADDMA1102201999999MW1001REMMET068LIVP 021343Z 01008KT CAVOK M04/M13 Q1022 RMK FEW160 MON LIB VAL NIL;EQDQ01+000000PRSWM2
0120160220999992000010213434+46150+011030FM-15+2129LIVP V0200101N00411220001CN0099001N1-00401-01201999999ADDMA1102201999999MW1001REMMET068LIVP 021443Z 01008KT CAVOK M04/M12 Q1022 RMK SCT160 MON LIB VAL NIL;EQDQ01+000000PRSWM2
0093160220999992000010214434+46150+011030FM-15+2129LIVP V0200201N00571220001CN0099001N1-00201-01401999999ADDMA1102301999999MW1001REMMET041LIVP 021543Z 02011KT CAVOK M02/M14 Q1023;EQDQ01+000000PRSWM2
0164160220999992000010215004+46150+011030FM-12+2129LIVP V0200101N004112200019N0500001N1-00401-01241999999ADDGF103991001001999999001091MA1999999078991MD1410001+9999ME1315489REMSYN088AAXX  02154 16022 42984 30108 11040 21124 37899 48548 54000 80009 91437 333 55310 92835;
0120160220999992000010215434+46150+011030FM-15+2129LIVP V0200101N00411220001CN0099001N1-00201-01201999999ADDMA1102301999999MW1001REMMET068LIVP 021643Z 01008KT CAVOK M02/M12 Q1023 RMK SCT060 MON LIB VAL NIL;EQDQ01+000000PRSWM2
0120160220999992000010216434+46150+011030FM-15+2129LIVP V0200201N00571220001CN0099001N1-00201-01201999999ADDMA1102401999999MW1001REMMET068LIVP 021743Z 02011KT CAVOK M02/M12 Q1024 RMK FEW150 MON LIB VAL NIL;EQDQ01+000000PRSWM2
0236160220999992000010218004+46150+011030FM-12+2129LIVP V0200201N005712200019N0450001N1-00231-01201999999ADDAA106000091AJ100759199999999GF101991001001999999001011IA1249KA1120M-00141MA1999999079131MD1310151+9999ME1315609REMSYN094AAXX  02184 16022 32983 10211 11023 21120 37913 48560 53015 80001 91736 333 11014 48075 92835;EQDQ01  00002PRCP06
0227160220999992000010300004+46150+011030FM-12+2129LIVP V0200201N002612200019N0500001N1-00201-01321999999ADDAA106000091AJ100759199999999GA1001+999999999GF100991001001999999001001IA1249MA1999999079281MD1110061+9999ME1315739REMSYN082AAXX  03004 16022 32984 00205 11020 21132 37928 48573 51006 92333 333 48075 92835;EQDQ01  00002PRCP06
0092160220999992000010301434+46150+011030FM-15+2129LIVP V0203101N00101220001CN0099001N1+00001-02301999999ADDMA1102511999999MW1001REMMET040LIVP 030243Z 31002KT CAVOK 00/M23 Q1025;EQDQ01+000000PRSWM2
0112160220999992000010302434+46150+011030FM-15+2129LIVP V0209999C00001220001CN0099001N1+00001-02201999999ADDMA1102511999999MW1001REMMET060LIVP 030343Z 00000KT CAVOK 00/M22 Q1025 RMK MON LIB VAL NIL;EQDQ01+000000PRSWM2
0168160220999992000010303004+46150+011030FM-12+2129LIVP V0203101N001012200019N0500001N1+00001-02251999999ADDGA1001+999999999GF100991001001999999001001MA1999999079261MD1810021+9999ME1315669REMSYN076AAXX  03034 16022 42984 03102 10000 21225 37926 48566 58002 90237 333 92835;
0093160220999992000010304434+46150+011030FM-15+2129LIVP V0209999C00001220001CN0099001N1+00001-02401999999ADDMA1102511999999MW1001REMMET041LIVP 030543Z 00000KT CAVOK M00/M24 Q1025;EQDQ01+000000PRSWM2
0112160220999992000010305434+46150+011030FM-15+2129LIVP V0209999C00001220001CN0099001N1-00101-02201999999ADDMA1102511999999MW1001REMMET060LIVP 030643Z 00000KT CAVOK M01/M22 Q1025 RMK MO LIB VAL NIL;EQDQ01+000000PRSWM2
0223160220999992000010306004+46150+011030FM-12+2129LIVP V0209999C000012200019N0500001N1-00041-02401999999ADDAA106000091GA1001+999999999GF100991001001999999001001KA1120N-00381MA1999999079241MD1710021+9999ME1315679REMSYN088AAXX  03064 16022 32984 00000 11004 21240 37924 48567 57002 90537 333 21038 55060 92835;EQDQ01  00002PRCP06
0120160220999992000010306434+46150+011030FM-15+2129LIVP V0209999C00001220001CN0099001N1+00001-02601999999ADDMA1102611999999MW1001REMMET068LIVP 030743Z 00000KT CAVOK M00/M26 Q1026 RMK FEW160 MON LIB VAL NIL;EQDQ01+000000PRSWM2
0093160220999992000010307434+46150+011030FM-15+2129LIVP V0209999C00001220001CN0099001N1+00001-02501999999ADDMA1102611999999MW1001REMMET041LIVP 030843Z 00000KT CAVOK M00/M25 Q1026;EQDQ01+000000PRSWM2
0108160220999992000010308434+46150+011030FM-15+2129LIVP V0209999C00001220001CN0099001N1+00101+99999999999ADDMA1102711999999MW1001REMMET040LIVP 030943Z 00000KT CAVOK 01/M17 Q1027;EQDQ01-001703ATOD  Q02+000000PRSWM2
0164160220999992000010309004+46150+011030FM-12+2129LIVP V0209999C000012200019N0700001N1-00021-02531999999ADDGF102991001001999999001011MA1999999079321MD1310091+9999ME1315699REMSYN088AAXX  03094 16022 42988 20000 11002 21253 37932 48569 53009 80001 90836 333 55310 92835;
0119160220999992000010309434+46150+011030FM-15+2129LIVP V0209999C00001220001CN0099001N1+00101-01801999999ADDMA1102611999999MW1001REMMET067LIVP 031043Z 00000KT CAVOK 01/M18 Q1026 RMK FEW160 MON LIB VAL NIL;EQDQ01+000000PRSWM2
0119160220999992000010310434+46150+011030FM-15+2129LIVP V0209999C00001220001CN0099001N1+00101-02101999999ADDMA1102611999999MW1001REMMET067LIVP 031143Z 00000KT CAVOK 01/M21 Q1026 RMK SCT140 MON LIB VAL NIL;EQDQ01+000000PRSWM2
0092160220999992000010311434+46150+011030FM-15+2129LIVP V0209999C00001220001CN0099001N1+00101-02001999999ADDMA1102511999999MW1001REMMET040LIVP 031243Z 00000KT CAVOK 01/M20 Q1025;EQDQ01+000000PRSWM2
0223160220999992000010312004+46150+011030FM-12+2129LIVP V0209999C000012200019N0700001N1+00101-02111999999ADDAA106000091AJ100749199999999GF103991001001999999001011IA1249MA1999999079311MD1810011+9999ME1315679REMSYN094AAXX  03124 16022 32988 30000 10010 21211 37931 48567 58001 80001 91137 333 48074 55310 92835;EQDQ01  00002PRCP06
0119160220999992000010312434+46150+011030FM-15+2129LIVP V0209999C00001220001CN0099001N1+00101-02001999999ADDMA1102511999999MW1001REMMET067LIVP 031343Z 00000KT CAVOK 01/M20 Q1025 RMK SCT140 MON LIB VAL NIL;EQDQ01+000000PRSWM2
0119160220999992000010313434+46150+011030FM-15+2129LIVP V0209999C00001220001CN0099001N1+00101-02101999999ADDMA1102511999999MW1001REMMET067LIVP 031443Z 00000KT CAVOK 01/M21 Q1025 RMK FEW150 MON LIB VAL NIL;EQDQ01+000000PRSWM2
0119160220999992000010314434+46150+011030FM-15+2129LIVP V0209999C00001220001CN0099001N1+00101-02101999999ADDMA1102511999999MW1001REMMET067LIVP 031543Z 00000KT CAVOK 01/M21 Q1025 RMK FEW150 MON LIB VAL NIL;EQDQ01+000000PRSWM2
0164160220999992000010315004+46150+011030FM-12+2129LIVP V0209999C000012200019N0650001N1+00081-02081999999ADDGF101991001001999999001011MA1999999079231MD1710081+9999ME1315659REMSYN088AAXX  03154 16022 42987 10000 10008 21208 37923 48565 57008 80001 91433 333 55310 92835;
0119160220999992000010315434+46150+011030FM-15+2129LIVP V0209999C00001220001CN0099001N1+00101-02101999999ADDMA1102511999999MW1001REMMET067LIVP 031643Z 00000KT CAVOK 01/M21 Q1025 RMK FEW160 MON LIB VAL NIL;EQDQ01+000000PRSWM2
0112160220999992000010316434+46150+011030FM-15+2129LIVP V0209999C00001220001CN0099001N1+00101-02201999999ADDMA1102511999999MW1001REMMET060LIVP 031743Z 00000KT CAVOK 01/M22 Q1025 RMK MON LIB VAL NIL;EQDQ01+000000PRSWM2
0246160220999992000010318004+46150+011030FM-12+2129LIVP V0209999C000012200019N0550001N1+00101-02181999999ADDAA106000091AJ100749199999999GA1001+999999999GF100991001001999999001001IA1249KA1120M+00141MA1999999079201MD1810031+9999ME1315599REMSYN088AAXX  03184 16022 32985 00000 10010 21218 37920 48559 58003 91733 333 10014 48074 92835;EQDQ01  00002PRCP06
0168160220999992000010321004+46150+011030FM-12+2129LIVP V0209999C000012200019N0400001N1+00061-02231999999ADDGA1001+999999999GF100991001001999999001001MA1999999079181MD1610021+9999ME1315599REMSYN076AAXX  03214 16022 42982 00000 10006 21223 37918 48559 56002 92034 333 92835;
0227160220999992000010400004+46150+011030FM-12+2129LIVP V0209999C000012200019N0400001N1+00041-02761999999ADDAA106000091AJ100749199999999GA1001+999999999GF100991001001999999001001IA1249MA1999999079091MD1710101+9999ME1315499REMSYN082AAXX  04004 16022 32982 00000 10004 21276 37909 48549 57010 92337 333 48074 92835;EQDQ01  00002PRCP06
0112160220999992000010401434+46150+011030FM-15+2129LIVP V0209999C00001220001CN0099001N1+00001-03001999999ADDMA1102201999999MW1001REMMET060LIVP 040243Z 00000KT CAVOK 00/M30 Q1022 RMK MON LIB VAL NIL;EQDQ01+000000PRSWM2
0092160220999992000010402434+46150+011030FM-15+2129LIVP V0209999C00001220001CN0099001N1+00001-03001999999ADDMA1102201999999MW1001REMMET040LIVP 040343Z 00000KT CAVOK 00/M30 Q1022;EQDQ01+000000PRSWM2
0168160220999992000010403004+46150+011030FM-12+2129LIVP V0209999C000012200019N0450001N1+00021-03021999999ADDGA1001+999999999GF100991001001999999001001MA1999999079001MD1710091+9999ME1315389REMSYN076AAXX  04034 16022 42983 00000 10002 21302 37900 48538 57009 90234 333 92835;
0112160220999992000010403434+46150+011030FM-15+2129LIVP V0209999C00001220001CN0099001N1+00101-03001999999ADDMA1102101999999MW1001REMMET060LIVP 040443Z 00000KT CAVOK 01/M30 Q1021 RMK MON LIB VAL NIL;EQDQ01+000000PRSWM2
0112160220999992000010404434+46150+011030FM-15+2129LIVP V0209999C00001220001CN0099001N1+00101-02901999999ADDMA1102101999999MW1001REMMET060LIVP 040543Z 00000KT CAVOK 01/M29 Q1021 RMK MON LIB VAL NIL;EQDQ01+000000PRSWM2
0092160220999992000010405434+46150+011030FM-15+2129LIVP V0209999C00001220001CN0099001N1+00201-02901999999ADDMA1102101999999MW1001REMMET040LIVP 040643Z 00000KT CAVOK 02/M29 Q1021;EQDQ01+000000PRSWM2
0092160220999992000010406434+46150+011030FM-15+2129LIVP V0209999C00001220001CN0099001N1+00201-03001999999ADDMA1102101999999MW1001REMMET040LIVP 040743Z 00000KT CAVOK 02/M30 Q1021;EQDQ01+000000PRSWM2
0092160220999992000010407434+46150+011030FM-15+2129LIVP V0209999C00001220001CN0099001N1+00201-02601999999ADDMA1102101999999MW1001REMMET040LIVP 040843Z 00000KT CAVOK 02/M26 Q1021;EQDQ01+000000PRSWM2
0119160220999992000010408404+46150+011030FM-15+2129LIVP V0209999C00001220001CN0099001N1+00301-03001999999ADDMA1102101999999MW1001REMMET067LIVP 040940Z 00000KT CAVOK 03/M30 Q1021 RMK FWE150 MON LIB VAL NIL;EQDQ01+000000PRSWM2
0164160220999992000010409004+46150+011030FM-12+2129LIVP V0209999C000012200019N0750001N1+00201-02611999999ADDGF101991001001999999001011MA1999999078911MD1610011+9999ME1315249REMSYN088AAXX  04094 16022 42989 10000 10020 21261 37891 48524 56001 80001 90837 333 55310 92835;
0119160220999992000010409434+46150+011030FM-15+2129LIVP V0209999C00001220001CN0099001N1+00401-02401999999ADDMA1102101999999MW1001REMMET067LIVP 041043Z 00000KT CAVOK 04/M24 Q1021 RMK FEW150 MON LIB VAL NIL;EQDQ01+000000PRSWM2
0092160220999992000010411344+46150+011030FM-15+2129LIVP V0209999C00001220001CN0099001N1+00301-02601999999ADDMA1101901999999MW1001REMMET040LIVP 041234Z 00000KT CAVOK 03/M26 Q1019;EQDQ01+000000PRSWM2
0092160220999992000010412324+46150+011030FM-15+2129LIVP V0209999C00001220001CN0099001N1+00301-02101999999ADDMA1101901999999MW1001REMMET040LIVP 041332Z 00000KT CAVOK 03/M21 Q1019;EQDQ01+000000PRSWM2
0092160220999992000010413414+46150+011030FM-15+2129LIVP V0209999C00001220001CN0099001N1+00301-02001999999ADDMA1101901999999MW1001REMMET040LIVP 041441Z 00000KT CAVOK 03/M20 Q1019;EQDQ01+000000PRSWM2
0092160220999992000010415434+46150+011030FM-15+2129LIVP V0209999C00001220001CN0099001N1+00301-02501999999ADDMA1101801999999MW1001REMMET040LIVP 041643Z 00000KT CAVOK 03/M25 Q1018;EQDQ01+000000PRSWM2
0112160220999992000010416434+46150+011030FM-15+2129LIVP V0209999C00001220001CN0099001N1+00201-02501999999ADDMA1101801999999MW1001REMMET060LIVP 041743Z 00000KT CAVOK 02/M25 Q1018 RMK MON LIB VAL NIL;EQDQ01+000000PRSWM2
0246160220999992000010418004+46150+011030FM-12+2129LIVP V0209999C000012200019N0750001N1+00201-02521999999ADDAA106000091AJ100749199999999GA1001+999999999GF100991001001999999001001IA1249KA1120M+00401MA1999999078691MD1610021+9999ME1315049REMSYN088AAXX  04184 16022 32989 00000 10020 21252 37869 48504 56002 91735 333 10040 48074 92835;EQDQ01  00002PRCP06
0227160220999992000010500004+46150+011030FM-12+2129LIVP V0200101N006712200019N0750001N1+00201-02101999999ADDAA106000091AJ100749199999999GA1001+999999999GF100991001001999999001001IA1249MA1999999078661MD1810021+9999ME1314999REMSYN082AAXX  05004 16022 32989 00113 10020 21210 37866 48499 58002 92333 333 48074 92835;EQDQ01  00002PRCP06
0092160220999992000010501434+46150+011030FM-15+2129LIVP V0200201N00461220001CN0099001N1+00101-01201999999ADDMA1101801999999MW1001REMMET040LIVP 050243Z 02009KT CAVOK 01/M12 Q1018;EQDQ01+000000PRSWM2
0092160220999992000010502434+46150+011030FM-15+2129LIVP V0200301N00411220001CN0099001N1+00101-00901999999ADDMA1101801999999MW1001REMMET040LIVP 050343Z 03008KT CAVOK 01/M09 Q1018;EQDQ01+000000PRSWM2
0168160220999992000010503004+46150+011030FM-12+2129LIVP V0200201N004612200019N0500001N1+00061-01241999999ADDGA1001+999999999GF100991001001999999001001MA1999999078661MD1410001+9999ME1315029REMSYN076AAXX  05034 16022 42984 00209 10006 21124 37866 48502 54000 90234 333 92835;
0092160220999992000010503434+46150+011030FM-15+2129LIVP V0200301N00411220001CN0099001N1+00101-00801999999ADDMA1101801999999MW1001REMMET040LIVP 050443Z 03008KT CAVOK 01/M08 Q1018;EQDQ01+000000PRSWM2
0092160220999992000010504434+46150+011030FM-15+2129LIVP V0200301N00461220001CN0099001N1+00101-00801999999ADDMA1101901999999MW1001REMMET040LIVP 050543Z 03009KT CAVOK 01/M08 Q1019;EQDQ01+000000PRSWM2
0119160220999992000010505434+46150+011030FM-15+2129LIVP V0200101N00261220001CN0099001N1+00101-00801999999ADDMA1101901999999MW1001REMMET067LIVP 050643Z 01005KT CAVOK 01/M08 Q1019 RMK FEW070 MON LIB VAL NIL;EQDQ01+000000PRSWM2
0252160220999992000010506004+46150+011030FM-12+2129LIVP V0200301N004612200019N0450001N1+00101-00791999999ADDAA106000091AJ100749199999999GA1001+999999999GF100991001001999999001001IA1249KA1120N+00001MA1999999078711MD1310041+9999ME1315079REMSYN094AAXX  05064 16022 32983 00309 10010 21079 37871 48507 53004 90536 333 20000 48074 55082 92835;EQDQ01  00002PRCP06
0112160220999992000010507234+46150+011030FM-15+2129LIVP V0209999C00001220001CN0099001N1+00001-00801999999ADDMA1101901999999MW1001REMMET060LIVP 050723Z 00000KT CAVOK 00/M08 Q1019 RMK MON LIB VAL NIL;EQDQ01+000000PRSWM2
0112160220999992000010507354+46150+011030FM-15+2129LIVP V0209999C00001220001CN0099001N1+00101-00701999999ADDMA1102001999999MW1001REMMET060LIVP 050835Z 00000KT CAVOK 01/M07 Q1020 RMK MON LIB VAL NIL;EQDQ01+000000PRSWM2
0112160220999992000010508334+46150+011030FM-15+2129LIVP V0209999C00001220001CN0099001N1+00101-00701999999ADDMA1102101999999MW1001REMMET060LIVP 050933Z 00000KT CAVOK 01/M07 Q1021 RMK MON LIB VAL NIL;EQDQ01+000000PRSWM2
0174160220999992000010509004+46150+011030FM-12+2129LIVP V0209999C000012200019N0450001N1+00101-00691999999ADDGA1001+999999999GF100991001001999999001001MA1999999078811MD1210101+9999ME1315179REMSYN082AAXX  05094 16022 42983 00000 10010 21069 37881 48517 52010 90834 333 55310 92835;
0112160220999992000010509394+46150+011030FM-15+2129LIVP V0209999C00001220001CN0099001N1+00101-00801999999ADDMA1102101999999MW1001REMMET060LIVP 051039Z 00000KT CAVOK 01/M08 Q1021 RMK MON LIB VAL NIL;EQDQ01+000000PRSWM2
0092160220999992000010510314+46150+011030FM-15+2129LIVP V0209999C00001220001CN0099001N1+00201-00801999999ADDMA1102101999999MW1001REMMET040LIVP 051131Z 00000KT CAVOK 02/M08 Q1021;EQDQ01+000000PRSWM2
0112160220999992000010511404+46150+011030FM-15+2129LIVP V0209999C00001220001CN0099001N1+00201-00801999999ADDMA1102001999999MW1001REMMET060LIVP 051240Z 00000KT CAVOK 02/M08 Q1020 RMK MON LIB VAL NIL;EQDQ01+000000PRSWM2
0233160220999992000010512004+46150+011030FM-12+2129LIVP V0209999C000012200019N0450001N1+00161-00771999999ADDAA106000091AJ100749199999999GA1001+999999999GF100991001001999999001001IA1249MA1999999078861MD1110051+9999ME1315229REMSYN088AAXX  05124 16022 32983 00000 10016 21077 37886 48522 51005 91134 333 48074 55310 92835;EQDQ01  00002PRCP06
0119160220999992000010512434+46150+011030FM-15+2129LIVP V0209999C00001220001CN0099001N1+00101-00801999999ADDMA1102001999999MW1001REMMET067LIVP 051343Z 00000KT CAVOK 01/M08 Q1020 RMK FEW150 MON LIB VAL NIL;EQDQ01+000000PRSWM2
0119160220999992000010513434+46150+011030FM-15+2129LIVP V0209999C00001220001CN0099001N1+00101-00801999999ADDMA1102001999999MW1001REMMET067LIVP 051443Z 00000KT CAVOK 01/M08 Q1020 RMK FEW150 MON LIB VAL NIL;EQDQ01+000000PRSWM2
0119160220999992000010514434+46150+011030FM-15+2129LIVP V0209999C00001220001CN0099001N1+00101-00801999999ADDMA1102001999999MW1001REMMET067LIVP 051543Z 00000KT CAVOK 01/M08 Q1020 RMK FEW150 MON LIB VAL NIL;EQDQ01+000000PRSWM2
0092160220999992000010515434+46150+011030FM-15+2129LIVP V0209999C00001220001CN0099001N1+00001-00801999999ADDMA1102001999999MW1001REMMET040LIVP 051643Z 00000KT CAVOK 00/M08 Q1020;EQDQ01+000000PRSWM2
0158160220999992000010521004+46150+011030FM-12+2129LIVP V0209999C000012200019N0400001N1-00041-00821999999ADDGF102991001001999999001011MA1999999078921MD1210081+9999ME1315299REMSYN082AAXX  05214 16022 42982 20000 11004 21082 37892 48529 52008 80001 92035 333 92835;
0093160220999992000010601344+46150+011030FM-15+2129LIVP V0202201N00211220001CN0099001N1-00101-00801999999ADDMA1102001999999MW1001REMMET041LIVP 060234Z 22004KT CAVOK M01/M08 Q1020;EQDQ01+000000PRSWM2
0168160220999992000010603004+46150+011030FM-12+2129LIVP V0202201N002112200019N0400001N1-00101-00831999999ADDGA1001+999999999GF100991001001999999001001MA1999999078841MD1610061+9999ME1315239REMSYN076AAXX  06034 16022 42982 02204 11010 21083 37884 48523 56006 90234 333 92835;
0093160220999992000010603274+46150+011030FM-15+2129LIVP V0209999C00001220001CN0099001N1-00101-00801999999ADDMA1102001999999MW1001REMMET041LIVP 060327Z 00000KT CAVOK M01/M08 Q1020;EQDQ01+000000PRSWM2
0093160220999992000010604274+46150+011030FM-15+2129LIVP V0209999C00001220001CN0099001N1-00101-00801999999ADDMA1102001999999MW1001REMMET041LIVP 060427Z 00000KT CAVOK M01/M08 Q1020;EQDQ01+000000PRSWM2
0093160220999992000010604414+46150+011030FM-15+2129LIVP V0209999C00001220001CN0099001N1-00101-00701999999ADDMA1102001999999MW1001REMMET041LIVP 060541Z 00000KT CAVOK M01/M07 Q1020;EQDQ01+000000PRSWM2
0113160220999992000010605374+46150+011030FM-15+2129LIVP V0209999C00001220001CN0099001N1-00101-00701999999ADDMA1102001999999MW1001REMMET061LIVP 060637Z 00000KT CAVOK M01/M07 Q1020 RMK MON LIB VAL NIL;EQDQ01+000000PRSWM2
0223160220999992000010606004+46150+011030FM-12+2129LIVP V0209999C000012200019N0400001N1-00101-00741999999ADDAA106000091GA1001+999999999GF100991001001999999001001KA1120N-00141MA1999999078801MD1610041+9999ME1315229REMSYN088AAXX  06064 16022 32982 00000 11010 21074 37880 48522 56004 90535 333 21014 55077 92835;EQDQ01  00002PRCP06
0093160220999992000010606434+46150+011030FM-15+2129LIVP V0209999C00001220001CN0099001N1-00101-00801999999ADDMA1102001999999MW1001REMMET041LIVP 060743Z 00000KT CAVOK M01/M08 Q1020;EQDQ01+000000PRSWM2
0092160220999992000010607434+46150+011030FM-15+2129LIVP V0209999C00001220001CN0099001N1+00001-00801999999ADDMA1102001999999MW1001REMMET040LIVP 060843Z 00000KT CAVOK 00/M08 Q1020;EQDQ01+000000PRSWM2
0112160220999992000010608434+46150+011030FM-15+2129LIVP V0209999C00001220001CN0099001N1+00001-00801999999ADDMA1102001999999MW1001REMMET060LIVP 060943Z 00000KT CAVOK 00/M08 Q1020 RMK MON LIB VAL NIL;EQDQ01+000000PRSWM2
0174160220999992000010609004+46150+011030FM-12+2129LIVP V0200301N002112200019N0500001N1+00001-00811999999ADDGA1001+999999999GF100991001001999999001001MA1999999078831MD1310031+9999ME1315259REMSYN082AAXX  06094 16022 42984 00304 10000 21081 37883 48525 53003 90833 333 55310 92835;
0112160220999992000010609434+46150+011030FM-15+2129LIVP V0209999C00001220001CN0099001N1+00101-00801999999ADDMA1102001999999MW1001REMMET060LIVP 061043Z 00000KT CAVOK 01/M08 Q1020 RMK MON LIB VAL NIL;EQDQ01+000000PRSWM2
0092160220999992000010610334+46150+011030FM-15+2129LIVP V0209999C00001220001CN0099001N1+00101-00901999999ADDMA1102001999999MW1001REMMET040LIVP 061133Z 00000KT CAVOK 01/M09 Q1020;EQDQ01+000000PRSWM2
0092160220999992000010611434+46150+011030FM-15+2129LIVP V0209999C00001220001CN0099001N1+00101-00901999999ADDMA1102001999999MW1001REMMET040LIVP 061243Z 00000KT CAVOK 01/M09 Q1020;EQDQ01+000000PRSWM2
0233160220999992000010612004+46150+011030FM-12+2129LIVP V0209999C000012200019N0500001N1+00111-00881999999ADDAA106000091AJ100749199999999GA1001+999999999GF100991001001999999001001IA1249MA1999999078811MD1810021+9999ME1315179REMSYN088AAXX  06124 16022 32984 00000 10011 21088 37881 48517 58002 91135 333 48074 55310 92835;EQDQ01  00002PRCP06
0092160220999992000010612434+46150+011030FM-15+2129LIVP V0209999C00001220001CN0099001N1+00101-00801999999ADDMA1102001999999MW1001REMMET040LIVP 061343Z 00000KT CAVOK 01/M08 Q1020;EQDQ01+000000PRSWM2
0092160220999992000010613344+46150+011030FM-15+2129LIVP V0209999C00001220001CN0099001N1+00201-01001999999ADDMA1101901999999MW1001REMMET040LIVP 061434Z 00000KT CAVOK 02/M10 Q1019;EQDQ01+000000PRSWM2
0112160220999992000010614354+46150+011030FM-15+2129LIVP V0209999C00001220001CN0099001N1+00101-00901999999ADDMA1101901999999MW1001REMMET060LIVP 061535Z 00000KT CAVOK 01/M09 Q1019 RMK MON LIB VAL NIL;EQDQ01+000000PRSWM2
0112160220999992000010615344+46150+011030FM-15+2129LIVP V0209999C00001220001CN0099001N1+00001-00901999999ADDMA1101901999999MW1001REMMET060LIVP 061634Z 00000KT CAVOK 00/M09 Q1019 RMK MON LIB VAL NIL;EQDQ01+000000PRSWM2
0168160220999992000010621004+46150+011030FM-12+2129LIVP V0200201N004112200019N0500001N1+00041-00981999999ADDGA1001+999999999GF100991001001999999001001MA1999999078811MD1310041+9999ME1315199REMSYN076AAXX  06214 16022 42984 00208 10004 21098 37881 48519 53004 92035 333 92835;
0207160220999992000010700004+46150+011030FM-12+2129LIVP V0200301N003612200019N0350001N1+00001-01171999999ADDAA106000091AJ100749199999999GA1001+999999999GF100991001001999999001001IA1249MA1999999078851ME1315259REMSYN076AAXX  07004 16022 32981 00307 10000 21117 37885 48525 92335 333 48074 92835;EQDQ01  00002PRCP06
0112160220999992000010701434+46150+011030FM-15+2129LIVP V0200301N00361220001CN0099001N1+00001-01401999999ADDMA1102001999999MW1001REMMET060LIVP 070243Z 03007KT CAVOK 00/M14 Q1020 RMK MON LIB VAL NIL;EQDQ01+000000PRSWM2
0093160220999992000010702434+46150+011030FM-15+2129LIVP V0200301N00311220001CN0099001N1+00001-01301999999ADDMA1102001999999MW1001REMMET041LIVP 070343Z 03006KT CAVOK M00/M13 Q1020;EQDQ01+000000PRSWM2
0168160220999992000010703004+46150+011030FM-12+2129LIVP V0200301N003612200019N0350001N1+00021-01361999999ADDGA1001+999999999GF100991001001999999001001MA1999999078851MD1410001+9999ME1315259REMSYN076AAXX  07034 16022 42981 00307 10002 21136 37885 48525 54000 90236 333 92835;
0092160220999992000010703434+46150+011030FM-15+2129LIVP V0200301N00311220001CN0099001N1+00001-01301999999ADDMA1102001999999MW1001REMMET040LIVP 070443Z 03006KT CAVOK 00/M13 Q1020;EQDQ01+000000PRSWM2
0092160220999992000010704374+46150+011030FM-15+2129LIVP V0200301N00411220001CN0099001N1+00001-01301999999ADDMA1102101999999MW1001REMMET040LIVP 070537Z 03008KT CAVOK 00/M13 Q1021;EQDQ01+000000PRSWM2
0112160220999992000010705394+46150+011030FM-15+2129LIVP V0200301N00211220001CN0099001N1+00001-01301999999ADDMA1102101999999MW1001REMMET060LIVP 070639Z 03004KT CAVOK 00/M13 Q1021 RMK MON LIB VAL NIL;EQDQ01+000000PRSWM2
0252160220999992000010706004+46150+011030FM-12+2129LIVP V0200301N004112200019N0350001N1+00001-01301999999ADDAA106000091AJ100749199999999GA1001+999999999GF100991001001999999001001IA1249KA1120N-00041MA1999999078901MD1310051+9999ME1315209REMSYN094AAXX  07064 16022 32981 00308 10000 21130 37890 48520 53005 90534 333 21004 48074 55078 92835;EQDQ01  00002PRCP06
0119160220999992000010706414+46150+011030FM-15+2129LIVP V0209999C00001220001CN0099001N1+00001-01301999999ADDMA1102201999999MW1001REMMET067LIVP 070741Z 00000KT CAVOK 00/M13 Q1022 RMK SCT070 MON LIB VAL NIL;EQDQ01+000000PRSWM2
0119160220999992000010707374+46150+011030FM-15+2129LIVP V0209999C00001220001CN0099001N1+00001-01301999999ADDMA1102201999999MW1001REMMET067LIVP 070837Z 00000KT CAVOK 00/M13 Q1022 RMK SCT070 MON LIB VAL NIL;EQDQ01+000000PRSWM2
0092160220999992000010708434+46150+011030FM-15+2129LIVP V0209999C00001220001CN0099001N1+00001-01301999999ADDMA1102201999999MW1001REMMET040LIVP 070943Z 00000KT CAVOK 00/M13 Q1022;EQDQ01+000000PRSWM2
0186160220999992000010709004+46150+011030FM-12+2129LIVP V0209999C000012200019N0035001N1+00001-01301999999ADDGA1031+021009039GF103991031001022501031001MA1999999078991MD1210091+9999ME1315399REMSYN094AAXX  07094 16022 42835 30000 10000 21130 37899 48539 52009 83030 90834 333 55305 83357 92835;
0119160220999992000010709434+46150+011030FM-15+2129LIVP V0201101N00211220001CN0099001N1+00001-01101999999ADDMA1102201999999MW1001REMMET067LIVP 071043Z 11004KT CAVOK 00/M11 Q1022 RMK SCT070 MON LIB VAL NIL;EQDQ01+000000PRSWM2
0119160220999992000010710434+46150+011030FM-15+2129LIVP V0201501N00151220001CN0099001N1+00001-01101999999ADDMA1102201999999MW1001REMMET067LIVP 071143Z 15003KT CAVOK 00/M11 Q1022 RMK SCT080 MON LIB VAL NIL;EQDQ01+000000PRSWM2
0119160220999992000010711434+46150+011030FM-15+2129LIVP V0201601N00311220001CN0099001N1+00001-01001999999ADDMA1102201999999MW1001REMMET067LIVP 071243Z 16006KT CAVOK M00/M10 Q1022 RMK SCT080 SCT140 MON LIB;EQDQ01+000000PRSWM2
0245160220999992000010712004+46150+011030FM-12+2129LIVP V0201501N001512200019N0400001N1+00001-01051999999ADDAA106000091AJ100749199999999GA1031+024009039GF104991031001022501031011IA1249MA1999999079001MD1010011+9999ME1315399REMSYN100AAXX  07124 16022 32882 41503 10000 21105 37900 48539 50001 83031 91133 333 48074 55310 83358 92835;EQDQ01  00002PRCP06
0120160220999992000010712434+46150+011030FM-15+2129LIVP V0201601N00361220001CN0099001N1-00101-00901999999ADDMA1102201999999MW1001REMMET068LIVP 071343Z 16007KT CAVOK M01/M09 Q1022 RMK SCT080 MON LIB VAL NIL;EQDQ01+000000PRSWM2
0093160220999992000010713434+46150+011030FM-15+2129LIVP V0201801N00261220001CN0099001N1-00101-00901999999ADDMA1102201999999MW1001REMMET041LIVP 071443Z 18005KT CAVOK M01/M09 Q1022;EQDQ01+000000PRSWM2
0120160220999992000010714434+46150+011030FM-15+2129LIVP V0201801N00261220001CN0099001N1-00201-00901999999ADDMA1102201999999MW1001REMMET068LIVP 071543Z 18005KT CAVOK M02/M09 Q1022 RMK FEW080 MON LIB VAL NIL;EQDQ01+000000PRSWM2
0186160220999992000010715004+46150+011030FM-12+2129LIVP V0201801N002612200019N0600001N1-00101-00891999999ADDGA1021+024009039GF102991021001022501031011MA1999999078961MD1510041+9999ME1315389REMSYN094AAXX  07154 16022 42886 21805 11010 21089 37896 48538 55004 82031 91434 333 55310 82358 92835;
0120160220999992000010715434+46150+011030FM-15+2129LIVP V0201701N00361220001CN0099001N1-00201-00901999999ADDMA1102201999999MW1001REMMET068LIVP 071643Z 17007KT CAVOK M02/M09 Q1022 RMK FEW080 MON LIB VAL NIL;EQDQ01+000000PRSWM2
0121160220999992000010716434+46150+011030FM-15+2129LIVP V0201601N00361220001CN0099001N1-00301-01001999999ADDMA1102201999999MW1001REMMET069LIVP 071743Z 16007KT CAVOK M03/M10 Q1022 RMK FEW070 MON LIB VAL NIL ;EQDQ01+000000PRSWM2
0258160220999992000010718004+46150+011030FM-12+2129LIVP V0201601N003612200019N0500001N1-00261-00961999999ADDAA106000091AJ100749199999999GA1021+021009039GF102991021001022501031001IA1249KA1120M+00081MA1999999078951MD1810011+9999ME1315429REMSYN100AAXX  07184 16022 32884 21607 11026 21096 37895 48542 58001 82030 91733 333 10008 48074 82357 92835;EQDQ01  00002PRCP06
0180160220999992000010721004+46150+011030FM-12+2129LIVP V0201601N003112200019N0300001N1-00341-01181999999ADDGA1021+024009039GF102991021001022501031001MA1999999078941MD1610011+9999ME1315449REMSYN088AAXX  07214 16022 42880 21606 11034 21118 37894 48544 56001 82030 92034 333 82358 92835;
0227160220999992000010800004+46150+011030FM-12+2129LIVP V0202201N003612200019N0300001N1-00281-01061999999ADDAA106000091AJ100749199999999GA1001+999999999GF100991001001999999001001IA1249MA1999999078901MD1810051+9999ME1315349REMSYN082AAXX  08004 16022 32980 02207 11028 21106 37890 48534 58005 92333 333 48074 92835;EQDQ01  00002PRCP06
0093160220999992000010801434+46150+011030FM-15+2129LIVP V0202201N00361220001CN0099001N1-00401-01001999999ADDMA1102001999999MW1001REMMET041LIVP 080243Z 22007KT CAVOK M04/M10 Q1020;EQDQ01+000000PRSWM2
0093160220999992000010802434+46150+011030FM-15+2129LIVP V0202201N00261220001CN0099001N1-00401-01001999999ADDMA1102001999999MW1001REMMET041LIVP 080343Z 22005KT CAVOK M04/M10 Q1020;EQDQ01+000000PRSWM2
0168160220999992000010803004+46150+011030FM-12+2129LIVP V0202201N003612200019N0300001N1-00401-01021999999ADDGA1001+999999999GF100991001001999999001001MA1999999078821MD1710081+9999ME1315299REMSYN076AAXX  08034 16022 42980 02207 11040 21102 37882 48529 57008 90234 333 92835;
0113160220999992000010804434+46150+011030FM-15+2129LIVP V0202101N00311220001CN0099001N1-00501-00901999999ADDMA1101901999999MW1001REMMET061LIVP 080543Z 21006KT CAVOK M05/M09 Q1019 RMK MON LIB VAL NIL;EQDQ01+000000PRSWM2
0120160220999992000010805434+46150+011030FM-15+2129LIVP V0202101N00361220001CN0099001N1-00501-00901999999ADDMA1101901999999MW1001REMMET068LIVP 080643Z 21007KT CAVOK M05/M09 Q1019 RMK FEW140 MON LIB VAL NIL;EQDQ01+000000PRSWM2
0252160220999992000010806004+46150+011030FM-12+2129LIVP V0202101N003112200019N0300001N1-00481-00901999999ADDAA106000091AJ100749199999999GA1001+999999999GF100991001001999999001001IA1249KA1120N-00481MA1999999078731MD1710081+9999ME1315259REMSYN094AAXX  08064 16022 32980 02106 11048 21090 37873 48525 57008 90533 333 21048 48074 55065 92835;EQDQ01  00002PRCP06
0120160220999992000010809434+46150+011030FM-15+2129LIVP V0202101N00261220001CN0099001N1-00201-00701999999ADDMA1102001999999MW1001REMMET068LIVP 081043Z 21005KT CAVOK M02/M07 Q1020 RMK SCT080 MON LIB VAL NIL;EQDQ01+000000PRSWM2
0120160220999992000010810434+46150+011030FM-15+2129LIVP V0202101N00261220001CN0099001N1-00301-00701999999ADDMA1101901999999MW1001REMMET068LIVP 081143Z 21005KT CAVOK M03/M07 Q1019 RMK FEW080 MON LIB VAL NIL;EQDQ01+000000PRSWM2
0093160220999992000010811434+46150+011030FM-15+2129LIVP V0202101N00211220001CN0099001N1-00301-00701999999ADDMA1101901999999MW1001REMMET041LIVP 081243Z 21004KT CAVOK M03/M07 Q1019;EQDQ01+000000PRSWM2
0210160220999992000010812004+46150+011030FM-12+2129LIVP V0202101N002612200019N0750001N1-00261-00721999999ADDAA106000091GA1021+024009039GF102991999999022501999999MA1999999078771MD1810021+9999ME1315209REMSYN088AAXX  08124 16022 32889 22105 11026 21072 37877 48520 58002 91133 333 55310 82358 92835;EQDQ01  00002PRCP06
0093160220999992000010812434+46150+011030FM-15+2129LIVP V0202101N00261220001CN0099001N1-00301-00701999999ADDMA1101901999999MW1001REMMET041LIVP 081343Z 21005KT CAVOK M03/M07 Q1019;EQDQ01+000000PRSWM2
0120160220999992000010813434+46150+011030FM-15+2129LIVP V0201801N00261220001CN0099001N1-00301-00701999999ADDMA1101901999999MW1001REMMET068LIVP 081443Z 18005KT CAVOK M03/M07 Q1019 RMK SCT080 MON LIB VAL NIL;EQDQ01+000000PRSWM2
0093160220999992000010814434+46150+011030FM-15+2129LIVP V0201801N00261220001CN0099001N1-00401-00701999999ADDMA1101901999999MW1001REMMET041LIVP 081543Z 18005KT CAVOK M04/M07 Q1019;EQDQ01+000000PRSWM2
0120160220999992000010815434+46150+011030FM-15+2129LIVP V0209999C00001220001CN0099001N1-00401-00701999999ADDMA1101901999999MW1001REMMET068LIVP 081643Z 00000KT CAVOK M04/M07 Q1019 RMK SCT080 MON LIB VAL NIL;EQDQ01+000000PRSWM2
0093160220999992000010816434+46150+011030FM-15+2129LIVP V0209999C00001220001CN0099001N1-00401-00601999999ADDMA1101901999999MW1001REMMET041LIVP 081743Z 00000KT CAVOK M04/M06 Q1019;EQDQ01+000000PRSWM2
0258160220999992000010818004+46150+011030FM-12+2129LIVP V0209999C000012200019N0400001N1-00421-00601999999ADDAA106000091AJ100749199999999GA1041+021009039GF104991041001022501031001IA1249KA1120M-00241MA1999999078711MD1410001+9999ME1315189REMSYN100AAXX  08184 16022 32882 40000 11042 21060 37871 48518 54000 84030 91734 333 11024 48074 84357 92835;EQDQ01  00002PRCP06
0180160220999992000010821004+46150+011030FM-12+2129LIVP V0209999C000012200019N0300001N1-00481-00651999999ADDGA1031+021009039GF103991031001022501031001MA1999999078711MD1410001+9999ME1315209REMSYN088AAXX  08214 16022 42880 30000 11048 21065 37871 48520 54000 83030 92033 333 83357 92835;
0239160220999992000010900004+46150+011030FM-12+2129LIVP V0209999C000012200019N0200001N1-00521-00641999999ADDAA106000091AJ100749199999999GA1021+009009089GF104991021011008001031001IA1249MA1999999078631MD1810081+9999ME1315159REMSYN094AAXX  09004 16022 32570 40000 11052 21064 37863 48515 58008 82130 92334 333 48074 82830 92835;EQDQ01  00002PRCP06
0120160220999992000010901434+46150+011030FM-15+2129LIVP V0209999C00001220001CN0099001N1-00601-00601999999ADDMA1101691999999MW1001REMMET068LIVP 090243Z 00000KT CAVOK M06/M06 Q1017 RMK SCT070 MON LIB VAL NIL;EQDQ01+000000PRSWM2
0165160220999992000010902434+46150+011030FM-15+2129LIVP V0202101N002612200019N0080001N1-00601-00601999999ADDGA1021+021009999GF104991999999999999999999MA1101691999999MW1001REMMET071LIVP 090343Z 21005KT 8000 SCT070 M06/M06 Q1017 RMK SCT MON LIB VAL NIL;EQDQ01+000000PRSWM2
0180160220999992000010903004+46150+011030FM-12+2129LIVP V0209999C000012200019N0200001N1-00581-00631999999ADDGA1031+021009039GF103991031001022501031001MA1999999078401MD1710041+9999ME1315119REMSYN088AAXX  09034 16022 42870 30000 11058 21063 37840 48511 57004 83030 90233 333 83357 92835;
0141160220999992000010903434+46150+011030FM-15+2129LIVP V0202301N002110210019N0080001N1-00601-00601999999ADDGA1071+021009999GF107991999999999999999999MA1101691999999MW1001REMMET047LIVP 090443Z 23004KT 8000 BKN070 M06/M06 Q1017;EQDQ01+000000PRSWM2
0141160220999992000010905434+46150+011030FM-15+2129LIVP V0202201N002610210019N0080001N1-00601-00601999999ADDGA1071+021009999GF107991999999999999999999MA1101691999999MW1001REMMET047LIVP 090643Z 22005KT 8000 BKN070 M06/M06 Q1017;EQDQ01+000000PRSWM2
0141160220999992000010906434+46150+011030FM-15+2129LIVP V0202201N002110210019N0080001N1-00601-00601999999ADDGA1071+021009999GF107991999999999999999999MA1101691999999MW1001REMMET047LIVP 090743Z 22004KT 8000 BKN070 M06/M06 Q1017;EQDQ01+000000PRSWM2
0176160220999992000010907434+46150+011030FM-15+2129LIVP V0202201N002110210019N0070001N1-00601-00601999999ADDGA1071+021009999GF107991999999999999999999MA1101691999999MW1001REMMET082LIVP 090843Z 22004KT 7000 BKN070 M06/M06 Q1017 RMK BKN MON CLD SCT VAL S FOSCHIA ;EQDQ01+000000PRSWM2
0164160220999992000010908434+46150+011030FM-15+2129LIVP V0209999C000010210019N0070001N1-00601-00601999999ADDGA1021+006009999GA2071+021009999GF107991999999999999999999MA1101691999999MW1001REMMET054LIVP 090943Z 00000KT 7000 FEW020 BKN070 M06/M06 Q1017;EQDQ01+000000PRSWM2
0199160220999992000010909434+46150+011030FM-15+2129LIVP V0209999C000010210019N0080001N1-00501-00601999999ADDGA1021+007509999GA2071+021009999GF107991999999999999999999MA1101691999999MW1001REMMET089LIVP 091043Z 00000KT 8000 FEW025 BKN070 M05/M06 Q1017 RMK BKN MON CLD SCT VAL S FOSCHIA ;EQDQ01+000000PRSWM2
0198160220999992000010910434+46150+011030FM-15+2129LIVP V0209999C000010240019N0112651N1-00501-00601999999ADDGA1021+009009999GA2071+024009999GF107991999999999999999999MA1101691999999MW1001REMMET088LIVP 091143Z 00000KT 9999 FEW030 BKN080 M05/M06 Q1017 RMK BKN MON CLD SCT VAL S FOSCHIA;EQDQ01+000000PRSWM2
0198160220999992000010911434+46150+011030FM-15+2129LIVP V0209999C000010210019N0112651N1-00501-00701999999ADDGA1021+003009999GA2071+021009999GF107991999999999999999999MA1101691999999MW1001REMMET088LIVP 091243Z 00000KT 9999 FEW010 BKN070 M05/M07 Q1017 RMK BKN MON CLD SCT VAL S FOSCHIA;EQDQ01+000000PRSWM2
0267160220999992000010912004+46150+011030FM-12+2129LIVP V0209999C000010240019N0100001N1-00501-00621999999ADDAA106000091AJ100749199999999GA1011+009009089GA2051+024009039GF107991011011008001031011IA1249MA1999999078571MD1010001+9999ME1315049REMSYN106AAXX  09124 16022 32560 70000 11050 21062 37857 48504 50000 81131 91133 333 48074 55308 81830 85358 92835;EQDQ01  00002PRCP06
0199160220999992000010912434+46150+011030FM-15+2129LIVP V0209999C000010210019N0112651N1-00501-00801999999ADDGA1021+001509999GA2071+021009999GF107991999999999999999999MA1101691999999MW1001REMMET089LIVP 091343Z 00000KT 9999 FEW005 BKN070 M05/M08 Q1017 RMK BKN MON CLD SCT VAL S FOSCHIA ;EQDQ01+000000PRSWM2
0199160220999992000010913434+46150+011030FM-15+2129LIVP V0209999C000012200019N0112651N1-00501-00801999999ADDGA1021+003009999GA2021+021009999GF104991999999999999999999MA1101691999999MW1001REMMET089LIVP 091443Z 00000KT 9999 FEW010 SCT070 M05/M08 Q1017 RMK BKN MON CLD SCT VAL S FOSCHIA ;EQDQ01+000000PRSWM2
0093160220999992000010914434+46150+011030FM-15+2129LIVP V0209999C00001220001CN0099001N1-00601-00801999999ADDMA1101691999999MW1001REMMET041LIVP 091543Z 00000KT CAVOK M06/M08 Q1017;EQDQ01+000000PRSWM2
0208160220999992000010915004+46150+011030FM-12+2129LIVP V0209999C000010210019N0300001N1-00521-00771999999ADDGA1011+003009089GA2041+021009039GF106991011011004501031011MA1999999078541MD1610041+9999ME1315059REMSYN100AAXX  09154 16022 42480 60000 11052 21077 37854 48505 56004 81131 91434 333 55310 81810 84357 92835;
0119160220999992000010915434+46150+011030FM-15+2129LIVP V0200201N00101220001CN0099001N1-00601-00801999999ADDMA1101691999999MW1001REMMET067LIVP 091643Z 02002KT CAVOK M06/M08 Q1017 RMK FEW060 SCT140 MON LIB;EQDQ01+000000PRSWM2
0120160220999992000010916434+46150+011030FM-15+2129LIVP V0200201N00211220001CN0099001N1-00601-00801999999ADDMA1101691999999MW1001REMMET068LIVP 091743Z 02004KT CAVOK M06/M08 Q1017 RMK SCT140 MON LIB VAL NIL;EQDQ01+000000PRSWM2
0236160220999992000010918004+46150+011030FM-12+2129LIVP V0200201N002112200019N0200001N1-00601-00811999999ADDAA106000091AJ100749199999999GF103991001001999999001011IA1249KA1120M-00461MA1999999078581MD1310051+9999ME1315129REMSYN094AAXX  09184 16022 32970 30204 11060 21081 37858 48512 53005 80001 91734 333 11046 48074 92835;EQDQ01  00002PRCP06
0158160220999992000010921004+46150+011030FM-12+2129LIVP V0200201N002112200019N0200001N1-00581-00821999999ADDGF103991001001999999001011MA1999999078671MD1210081+9999ME1315179REMSYN082AAXX  09214 16022 42970 30204 11058 21082 37867 48517 52008 80001 92033 333 92835;
0239160220999992000011000004+46150+011030FM-12+2129LIVP V0209999C000012200019N0200001N1-00501-00671999999ADDAA106000091AJ100749199999999GA1041+021009039GF104991041001022501031011IA1249MA1999999078711MD1210041+9999ME1315209REMSYN094AAXX  10004 16022 32870 40000 11050 21067 37871 48520 52004 84031 92334 333 48074 84357 92835;EQDQ01  00002PRCP06
0093160220999992000011001434+46150+011030FM-15+2129LIVP V0209999C00001220001CN0099001N1-00501-01101999999ADDMA1101901999999MW1001REMMET041LIVP 100243Z 00000KT CAVOK M05/M11 Q1019;EQDQ01+000000PRSWM2
0189160220999992000011002434+46150+011030FM-15+2129LIVP V0209999C000012200019N0112651N1-00501-01101999999ADDGA1021+003009999GA2021+021009999GF104991999999999999999999MA1101901999999MW1001REMMET079LIVP 100343Z 00000KT 9999 FEW010 SCT070 M05/M11 Q1019 RMK SCT MON LIB VAL NIL ;EQDQ01+000000PRSWM2
0180160220999992000011003004+46150+011030FM-12+2129LIVP V0209999C000012200019N0200001N1-00481-01061999999ADDGA1041+021009039GF104991041001022501031001MA1999999078741MD1210031+9999ME1315259REMSYN088AAXX  10034 16022 42870 40000 11048 21106 37874 48525 52003 84030 90233 333 84357 92835;
0164160220999992000011003434+46150+011030FM-15+2129LIVP V0200801N003112200019N0112651N1-00501-01001999999ADDGA1021+003009999GA2021+021009999GF104991999999999999999999MA1101901999999MW1001REMMET054LIVP 100443Z 08006KT 9999 FEW010 SCT070 M05/M10 Q1019;EQDQ01+000000PRSWM2
0189160220999992000011004434+46150+011030FM-15+2129LIVP V0200401N003112200019N0112651N1-00501-01001999999ADDGA1021+009009999GA2021+021009999GF104991999999999999999999MA1102001999999MW1001REMMET079LIVP 100543Z 04006KT 9999 FEW030 SCT070 M05/M10 Q1020 RMK SCT MON LIB VAL NIL ;EQDQ01+000000PRSWM2
0164160220999992000011005434+46150+011030FM-15+2129LIVP V0200301N003110240019N0112651N1-00501-00701999999ADDGA1021+006009999GA2071+024009999GF107991999999999999999999MA1102001999999MW1001REMMET054LIVP 100643Z 03006KT 9999 FEW020 BKN080 M05/M07 Q1020;EQDQ01+000000PRSWM2
0286160220999992000011006004+46150+011030FM-12+2129LIVP V0200401N003112200019N0300001N1-00481-00961999999ADDAA106000091AJ100749199999999GA1011+009009089GA2031+021009039GF104991011011008001031001IA1249KA1120N-00621MA1999999078811MD1310071+9999ME1315309REMSYN112AAXX  10064 16022 32580 40406 11048 21096 37881 48530 53007 81130 90534 333 21062 48074 55030 81830 83357 92835;EQDQ01  00002PRCP06
0120160220999992000011006434+46150+011030FM-15+2129LIVP V0200201N00311220001CN0099001N1-00501-00601999999ADDMA1102101999999MW1001REMMET068LIVP 100743Z 02006KT CAVOK M05/M06 Q1021 RMK SCT050 MON LIB VAL NIL;EQDQ01+000000PRSWM2
0119160220999992000011007434+46150+011030FM-15+2129LIVP V0200301N00261220001CN0099001N1-00401-00601999999ADDMA1102201999999MW1001REMMET067LIVP 100843Z 03005KT CAVOK M04/M06 Q1022 RMK SCT050 SCT140 MON LIB;EQDQ01+000000PRSWM2
0119160220999992000011008434+46150+011030FM-15+2129LIVP V0200501N00261220001CN0099001N1-00401-00601999999ADDMA1102201999999MW1001REMMET067LIVP 100943Z 05005KT CAVOK M04/M06 Q1022 RMK FEW050 BKN140 MON LIB;EQDQ01+000000PRSWM2
0186160220999992000011009004+46150+011030FM-12+2129LIVP V0200301N002612200019N0700001N1-00441-00581999999ADDGA1031+015009039GF105991031001017501031011MA1999999078961MD1210141+9999ME1315469REMSYN094AAXX  10094 16022 42788 50305 11044 21058 37896 48546 52014 83031 90834 333 55310 83350 92835;
0119160220999992000011009434+46150+011030FM-15+2129LIVP V0200501N00311220001CN0099001N1-00401-00601999999ADDMA1102301999999MW1001REMMET067LIVP 101043Z 05006KT CAVOK M04/M06 Q1023 RMK FEW050 SCT140 MON LIB;EQDQ01+000000PRSWM2
0180160220999992000011010434+46150+011030FM-15+2129LIVP V0200501N002612200019N0112651N1-00401-00601999999ADDGA1021+006009999GA2021+042009999GF104991999999999999999999MA1102301999999MW1001REMMET070LIVP 101143Z 05005KT 9999 FEW020 SCT140 M04/M06 Q1023 RMK SCT MON LIB;EQDQ01+000000PRSWM2
0180160220999992000011011434+46150+011030FM-15+2129LIVP V0200501N001012200019N0112651N1-00401-00601999999ADDGA1021+006009999GA2021+042009999GF104991999999999999999999MA1102201999999MW1001REMMET070LIVP 101243Z 05002KT 9999 FEW020 SCT140 M04/M06 Q1022 RMK SCT MON LIB;EQDQ01+000000PRSWM2
0245160220999992000011012004+46150+011030FM-12+2129LIVP V0200501N002612200019N0600001N1-00401-00591999999ADDAA106000091AJ100749199999999GA1011+006009089GF104991011011008001031011IA1249MA1999999079041MD1110081+9999ME1315539REMSYN100AAXX  10124 16022 32586 40505 11040 21059 37904 48553 51008 81131 91133 333 48074 55310 81820 92835;EQDQ01  00002PRCP06
0180160220999992000011012434+46150+011030FM-15+2129LIVP V0200301N002112200019N0112651N1-00301-00601999999ADDGA1021+006009999GA2021+042009999GF104991999999999999999999MA1102201999999MW1001REMMET070LIVP 101343Z 03004KT 9999 FEW020 SCT140 M03/M06 Q1022 RMK SCT MON LIB;EQDQ01+000000PRSWM2
0164160220999992000011013434+46150+011030FM-15+2129LIVP V0209999C000012200019N0112651N1-00301-00701999999ADDGA1021+009009999GA2021+042009999GF104991999999999999999999MA1102301999999MW1001REMMET054LIVP 101443Z 00000KT 9999 FEW030 SCT140 M03/M07 Q1023;EQDQ01+000000PRSWM2
0180160220999992000011014434+46150+011030FM-15+2129LIVP V0200201N001012200019N0112651N1-00401-00701999999ADDGA1021+009009999GA2021+039009999GF104991999999999999999999MA1102301999999MW1001REMMET070LIVP 101543Z 02002KT 9999 FEW030 SCT130 M04/M07 Q1023 RMK BKN MON LIB;EQDQ01+000000PRSWM2
0186160220999992000011015004+46150+011030FM-12+2129LIVP V0209999C000012200019N0500001N1-00341-00681999999ADDGA1011+009009089GF104991011011008001001011MA1999999079031MD1410001+9999ME1315529REMSYN094AAXX  10154 16022 42584 40000 11034 21068 37903 48552 54000 81101 91433 333 55310 81830 92835;
0189160220999992000011015434+46150+011030FM-15+2129LIVP V0209999C000012200019N0112651N1-00401-00701999999ADDGA1021+007509999GA2021+039009999GF104991999999999999999999MA1102301999999MW1001REMMET079LIVP 101643Z 00000KT 9999 FEW025 SCT130 M04/M07 Q1023 RMK BKN MON LIB VAL NIL ;EQDQ01+000000PRSWM2
0189160220999992000011016434+46150+011030FM-15+2129LIVP V0209999C000012200019N0112651N1-00401-00701999999ADDGA1021+007509999GA2021+042009999GF104991999999999999999999MA1102301999999MW1001REMMET079LIVP 101743Z 00000KT 9999 FEW025 SCT140 M04/M07 Q1023 RMK BKN MON LIB VAL NIL ;EQDQ01+000000PRSWM2
0258160220999992000011018004+46150+011030FM-12+2129LIVP V0209999C000012200019N0300001N1-00401-00671999999ADDAA106000091AJ100749199999999GA1021+007509089GF105991021011008001001011IA1249KA1120M-00321MA1999999079081MD1310051+9999ME1315589REMSYN100AAXX  10184 16022 32580 50000 11040 21067 37908 48558 53005 82101 91734 333 11032 48074 82825 92835;EQDQ01  00002PRCP06
0202160220999992000011021004+46150+011030FM-12+2129LIVP V0209999C000010210019N0200001N1-00501-00671999999ADDGA1021+009009089GA2031+021009039GF106991021011008001031011MA1999999079231MD1210151+9999ME1315779REMSYN094AAXX  10214 16022 42570 60000 11050 21067 37923 48577 52015 82131 92033 333 82830 83357 92835;
0261160220999992000011100004+46150+011030FM-12+2129LIVP V0200301N001510210019N0100001N1-00581-00631999999ADDAA106000091AJ100749199999999GA1021+009009089GA2041+021009039GF107991021011008001031011IA1249MA1999999079241MD1110011+9999ME1315789REMSYN100AAXX  11004 16022 32560 70303 11058 21063 37924 48578 51001 82131 92334 333 48074 82830 84357 92835;EQDQ01  00002PRCP06
0165160220999992000011101434+46150+011030FM-15+2129LIVP V0200301N002610210019N0070001N1-00601-00601999999ADDGA1071+021009999GF107991999999999999999999MA1102611999999MW1001REMMET071LIVP 110243Z 03005KT 7000 BKN070 M06/M06 Q1026 RMK BKN MON LIB VAL NIL;EQDQ01+000000PRSWM2
0165160220999992000011102434+46150+011030FM-15+2129LIVP V0209999C000012200019N0070001N1-00701-00701999999ADDGA1021+021009999GF104991999999999999999999MA1102611999999MW1001REMMET071LIVP 110343Z 00000KT 7000 SCT070 M07/M07 Q1026 RMK SCT MON LIB VAL NIL;EQDQ01+000000PRSWM2
0180160220999992000011103434+46150+011030FM-15+2129LIVP V0200301N002112200019N0070001N1-00701-00701999999ADDGA1021+021009999GA2021+042009999GF104991999999999999999999MA1102611999999MW1001REMMET070LIVP 110443Z 03004KT 7000 FEW070 SCT140 M07/M07 Q1026 RMK SCT MON LIB;EQDQ01+000000PRSWM2
0164160220999992000011104434+46150+011030FM-15+2129LIVP V0200301N001512200019N0070001N1-00701-00701999999ADDGA1021+004509999GA2021+042009999GF104991999999999999999999MA1102611999999MW1001REMMET054LIVP 110543Z 03003KT 7000 FEW015 SCT140 M07/M07 Q1026;EQDQ01+000000PRSWM2
0164160220999992000011105434+46150+011030FM-15+2129LIVP V0200301N002612200019N0070001N1-00701-00701999999ADDGA1021+004509999GA2021+018009999GF104991999999999999999999MA1102611999999MW1001REMMET054LIVP 110643Z 03005KT 7000 FEW015 SCT060 M07/M07 Q1026;EQDQ01+000000PRSWM2
0262160220999992000011106004+46150+011030FM-12+2129LIVP V0200301N001512200019N0070001N1-00691-00691999999ADDAJ100749199999999AY111061AY211061GA1011+004509089GF103991011011004501031011IA1249KA1120N-00691MA1999999079291MD1110011+9999ME1315839MW1101REMSYN112AAXX  11064 16022 41457 30303 11069 21069 37929 48583 51001 71011 81131 90533 333 21069 48074 55078 81815 92835;
0164160220999992000011106434+46150+011030FM-15+2129LIVP V0200301N002112200019N0112651N1-00701-00701999999ADDGA1021+006009999GA2021+018009999GF104991999999999999999999MA1102611999999MW1001REMMET054LIVP 110743Z 03004KT 9999 FEW020 SCT060 M07/M07 Q1026;EQDQ01+000000PRSWM2
0195160220999992000011107434+46150+011030FM-15+2129LIVP V0200301N001512200019N0112651N1-00701-00801999999ADDGA1021+007509999GA2021+021009999GF104991999999999999999999MA1102711999999MW1001REMMET085LIVP 110843Z 03003KT 9999 FEW025 SCT070 M07/M08 Q1027 RMK BKN MON LIB VAL S FOSCHIA ;EQDQ01+000000PRSWM2
0127160220999992000011108434+46150+011030FM-15+2129LIVP V0200301N00151220001CN0099001N1-00701-00701999999ADDMA1102711999999MW1001REMMET075LIVP 110943Z 03003KT CAVOK M07/M07 Q1027 RMK BKN070 MON LIB VAL S FOSCHIA ;EQDQ01+000000PRSWM2
0208160220999992000011109004+46150+011030FM-12+2129LIVP V0200301N001510210019N0200001N1-00701-00751999999ADDGA1021+007509089GA2031+021009039GF106991021011008001031011MA1999999079351MD1310061+9999ME1315899REMSYN100AAXX  11094 16022 42570 60303 11070 21075 37935 48589 53006 82131 90834 333 55302 82825 83357 92835;
0120160220999992000011109434+46150+011030FM-15+2129LIVP V0209999C00001220001CN0099001N1-00601-00801999999ADDMA1102711999999MW1001REMMET068LIVP 111043Z 00000KT CAVOK M06/M08 Q1027 RMK SCT070 MON LIB VAL NIL;EQDQ01+000000PRSWM2
0165160220999992000011110434+46150+011030FM-15+2129LIVP V0200301N001512200019N0112651N1-00601-00801999999ADDGA1021+012009999GF102991999999999999999999MA1102711999999MW1001REMMET071LIVP 111143Z 03003KT 9999 FEW040 M06/M08 Q1027 RMK FEW MON LIB VAL NIL;EQDQ01+000000PRSWM2
0165160220999992000011111434+46150+011030FM-15+2129LIVP V0200301N001512200019N0112651N1-00601-00801999999ADDGA1021+012009999GF102991999999999999999999MA1102611999999MW1001REMMET071LIVP 111243Z 03003KT 9999 FEW040 M06/M08 Q1026 RMK FEW MON LIB VAL NIL;EQDQ01+000000PRSWM2
0245160220999992000011112004+46150+011030FM-12+2129LIVP V0200301N001512200019N0600001N1-00581-00791999999ADDAA106000091AJ100739199999999GA1011+012009069GF102991011051012501031021IA1249MA1999999079361MD1010011+9999ME1315869REMSYN100AAXX  11124 16022 32686 20303 11058 21079 37936 48586 50001 81532 91133 333 48073 55310 81640 92835;EQDQ01  00002PRCP06
0113160220999992000011112434+46150+011030FM-15+2129LIVP V0209999C00001220001CN0099001N1-00601-01001999999ADDMA1102611999999MW1001REMMET061LIVP 111343Z 00000KT CAVOK M06/M10 Q1026 RMK MON LIB VAL NIL;EQDQ01+000000PRSWM2
0093160220999992000011113434+46150+011030FM-15+2129LIVP V0200201N00151220001CN0099001N1-00601-01001999999ADDMA1102611999999MW1001REMMET041LIVP 111443Z 02003KT CAVOK M06/M10 Q1026;EQDQ01+000000PRSWM2
0113160220999992000011115434+46150+011030FM-15+2129LIVP V0200201N00261220001CN0099001N1-00601-01001999999ADDMA1102611999999MW1001REMMET061LIVP 111643Z 02005KT CAVOK M06/M10 Q1026 RMK MON LIB VAL NIL;EQDQ01+000000PRSWM2
0113160220999992000011116434+46150+011030FM-15+2129LIVP V0200201N00311220001CN0099001N1-00601-01001999999ADDMA1102611999999MW1001REMMET061LIVP 111743Z 02006KT CAVOK M06/M10 Q1026 RMK MON LIB VAL NIL;EQDQ01+000000PRSWM2
0246160220999992000011118004+46150+011030FM-12+2129LIVP V0200201N003112200019N0500001N1-00621-01011999999ADDAA106000091AJ100729199999999GA1001+999999999GF100991001001999999001001IA1249KA1120M-00561MA1999999079341MD1410001+9999ME1315879REMSYN088AAXX  11184 16022 32984 00206 11062 21101 37934 48587 54000 91735 333 11056 48072 92835;EQDQ01  00002PRCP06
0168160220999992000011121004+46150+011030FM-12+2129LIVP V0200201N003612200019N0500001N1-00701-00891999999ADDGA1001+999999999GF100991001001999999001001MA1999999079371MD1110031+9999ME1315899REMSYN076AAXX  11214 16022 42984 00207 11070 21089 37937 48589 51003 92035 333 92835;
0227160220999992000011200004+46150+011030FM-12+2129LIVP V0200201N001512200019N0500001N1-00621-00831999999ADDAA106000091AJ100729199999999GA1001+999999999GF100991001001999999001001IA1249MA1999999079341MD1810031+9999ME1315879REMSYN082AAXX  12004 16022 32984 00203 11062 21083 37934 48587 58003 92336 333 48072 92835;EQDQ01  00002PRCP06
0113160220999992000011201434+46150+011030FM-15+2129LIVP V0209999C00001220001CN0099001N1-00601-01001999999ADDMA1102511999999MW1001REMMET061LIVP 120243Z 00000KT CAVOK M06/M10 Q1025 RMK MON LIB VAL NIL;EQDQ01+000000PRSWM2
0113160220999992000011202434+46150+011030FM-15+2129LIVP V0200201N00261220001CN0099001N1-00601-00901999999ADDMA1102511999999MW1001REMMET061LIVP 120343Z 02005KT CAVOK M06/M09 Q1025 RMK MON LIB VAL NIL;EQDQ01+000000PRSWM2
0168160220999992000011203004+46150+011030FM-12+2129LIVP V0209999C000012200019N0600001N1-00631-00961999999ADDGA1001+999999999GF100991001001999999001001MA1999999079221MD1710121+9999ME1315749REMSYN076AAXX  12034 16022 42986 00000 11063 21096 37922 48574 57012 90234 333 92835;
0113160220999992000011203434+46150+011030FM-15+2129LIVP V0200201N00261220001CN0099001N1-00601-01001999999ADDMA1102401999999MW1001REMMET061LIVP 120443Z 02005KT CAVOK M06/M10 Q1024 RMK MON LIB VAL NIL;EQDQ01+000000PRSWM2
0113160220999992000011204434+46150+011030FM-15+2129LIVP V0200201N00211220001CN0099001N1-00601-01001999999ADDMA1102401999999MW1001REMMET061LIVP 120543Z 02004KT CAVOK M06/M10 Q1024 RMK MON LIB VAL NIL;EQDQ01+000000PRSWM2
0113160220999992000011205434+46150+011030FM-15+2129LIVP V0200201N00211220001CN0099001N1-00601-01101999999ADDMA1102401999999MW1001REMMET061LIVP 120643Z 02004KT CAVOK M06/M11 Q1024 RMK MON LIB VAL NIL;EQDQ01+000000PRSWM2
0252160220999992000011206004+46150+011030FM-12+2129LIVP V0200201N002112200019N0600001N1-00611-01041999999ADDAA106000091AJ100719199999999GA1001+999999999GF100991001001999999001001IA1249KA1120N-00711MA1999999079141MD1610071+9999ME1315689REMSYN094AAXX  12064 16022 32986 00204 11061 21104 37914 48568 56007 90533 333 21071 48071 55062 92835;EQDQ01  00002PRCP06
0113160220999992000011206434+46150+011030FM-15+2129LIVP V0200201N00211220001CN0099001N1-00601-01101999999ADDMA1102401999999MW1001REMMET061LIVP 120743Z 02004KT CAVOK M06/M11 Q1024 RMK MON LIB VAL NIL;EQDQ01+000000PRSWM2
0120160220999992000011207434+46150+011030FM-15+2129LIVP V0200201N00151220001CN0099001N1-00601-01101999999ADDMA1102401999999MW1001REMMET068LIVP 120843Z 02003KT CAVOK M06/M11 Q1024 RMK FEW150 MON LIB VAL NIL;EQDQ01+000000PRSWM2
0120160220999992000011208434+46150+011030FM-15+2129LIVP V0209999C00001220001CN0099001N1-00501-01101999999ADDMA1102401999999MW1001REMMET068LIVP 120943Z 00000KT CAVOK M05/M11 Q1024 RMK FEW150 MON LIB VAL NIL;EQDQ01+000000PRSWM2
0113160220999992000011209434+46150+011030FM-15+2129LIVP V0209999C00001220001CN0099001N1-00501-01201999999ADDMA1102401999999MW1001REMMET061LIVP 121043Z 00000KT CAVOK M05/M12 Q1024 RMK MON LIB VAL NIL;EQDQ01+000000PRSWM2
0113160220999992000011210434+46150+011030FM-15+2129LIVP V0209999C00001220001CN0099001N1-00401-01001999999ADDMA1102301999999MW1001REMMET061LIVP 121143Z 00000KT CAVOK M04/M10 Q1023 RMK MON LIB VAL NIL;EQDQ01+000000PRSWM2
0113160220999992000011211434+46150+011030FM-15+2129LIVP V0209999C00001220001CN0099001N1-00401-01001999999ADDMA1102201999999MW1001REMMET061LIVP 121243Z 00000KT CAVOK M04/M10 Q1022 RMK MON LIB VAL NIL;EQDQ01+000000PRSWM2
0233160220999992000011212004+46150+011030FM-12+2129LIVP V0209999C000012200019N0500001N1-00431-01031999999ADDAA106000091AJ100709199999999GA1001+999999999GF100991001001999999001001IA1249MA1999999079071MD1810061+9999ME1315599REMSYN088AAXX  12124 16022 32984 00000 11043 21103 37907 48559 58006 91135 333 48070 55310 92835;EQDQ01  00002PRCP06
0113160220999992000011212434+46150+011030FM-15+2129LIVP V0209999C00001220001CN0099001N1-00401-00901999999ADDMA1102201999999MW1001REMMET061LIVP 121343Z 00000KT CAVOK M04/M09 Q1022 RMK MON LIB VAL NIL;EQDQ01+000000PRSWM2
0093160220999992000011213434+46150+011030FM-15+2129LIVP V0209999C00001220001CN0099001N1-00501-01001999999ADDMA1102201999999MW1001REMMET041LIVP 121443Z 00000KT CAVOK M05/M10 Q1022;EQDQ01+000000PRSWM2
0119160220999992000011214434+46150+011030FM-15+2129LIVP V0209999C00001220001CN0099001N1-00501-01101999999ADDMA1102101999999MW1001REMMET067LIVP 121543Z 00000KT CAVOK M05/M11 Q1021 RMK MON LIB VAL S FOSCHIA;EQDQ01+000000PRSWM2
0174160220999992000011215004+46150+011030FM-12+2129LIVP V0209999C000012200019N0500001N1-00481-00961999999ADDGA1001+999999999GF100991001001999999001001MA1999999078961MD1710121+9999ME1315479REMSYN082AAXX  12154 16022 42984 00000 11048 21096 37896 48547 57012 91433 333 55310 92835;
0119160220999992000011215434+46150+011030FM-15+2129LIVP V0209999C00001220001CN0099001N1-00601-01301999999ADDMA1102101999999MW1001REMMET067LIVP 121643Z 00000KT CAVOK M06/M13 Q1021 RMK MON LIB VAL S FOSCHIA;EQDQ01+000000PRSWM2
0127160220999992000011216434+46150+011030FM-15+2129LIVP V0209999C00001220001CN0099001N1-00601-01201999999ADDMA1102101999999MW1001REMMET075LIVP 121743Z 00000KT CAVOK M06/M12 Q1021 RMK MON LIB VAL S FOSCHIA SKC SUP;EQDQ01+000000PRSWM2
0246160220999992000011218004+46150+011030FM-12+2129LIVP V0209999C000012200019N0500001N1-00591-01181999999ADDAA106000091AJ100699199999999GA1001+999999999GF100991001001999999001001IA1249KA1120M-00411MA1999999078891MD1710061+9999ME1315419REMSYN088AAXX  12184 16022 32984 00000 11059 21118 37889 48541 57006 91733 333 11041 48069 92835;EQDQ01  00002PRCP06
0168160220999992000011221004+46150+011030FM-12+2129LIVP V0202401N001512200019N0500001N1-00771-00921999999ADDGA1001+999999999GF100991001001999999001001MA1999999078811MD1710081+9999ME1315379REMSYN076AAXX  12214 16022 42984 02403 11077 21092 37881 48537 57008 92035 333 92835;
0227160220999992000011300004+46150+011030FM-12+2129LIVP V0209999C000012200019N0200001N1-00891-00891999999ADDAA106000091AJ100699199999999GA1001+999999999GF100991001001999999001001IA1249MA1999999078701MD1710101+9999ME1315299REMSYN082AAXX  13004 16022 32970 00000 11089 21089 37870 48529 57010 92335 333 48069 92835;EQDQ01  00002PRCP06
0117160220999992000011301434+46150+011030FM-15+2129LIVP V0209999C00001220001CN0099001N1-00901-00901999999ADDMA1101691999999MW1001REMMET065LIVP 130243Z 00000KT CAVOK M09/M09 Q1017 RMK MON LIB VAL MAR CLD;EQDQ01+000000PRSWM2
0093160220999992000011302434+46150+011030FM-15+2129LIVP V0200401N00211220001CN0099001N1-00901-00901999999ADDMA1101591999999MW1001REMMET041LIVP 130343Z 04004KT CAVOK M09/M09 Q1016;EQDQ01+000000PRSWM2
0207160220999992000011303004+46150+011030FM-12+2129LIVP V0209999C000012200019N0300001N1-00881-00881999999ADDAA112035091GA1001+999999999GF100991001001999999001001GG1069084009019999MA1999999078601MD1710101+9999ME1315189REMSYN086AAXX  13034 16022 42980 00000 11088 21088 37860 48518 57010 90234 333 92835 444 86184;
0117160220999992000011303434+46150+011030FM-15+2129LIVP V0200401N00101220001CN0099001N1-00901-00901999999ADDMA1101591999999MW1001REMMET065LIVP 130443Z 04002KT CAVOK M09/M09 Q1016 RMK MON LIB VAL MAR CLD;EQDQ01+000000PRSWM2
0093160220999992000011304434+46150+011030FM-15+2129LIVP V0200401N00261220001CN0099001N1-01001-01001999999ADDMA1101591999999MW1001REMMET041LIVP 130543Z 04005KT CAVOK M10/M10 Q1016;EQDQ01+000000PRSWM2
0118160220999992000011305434+46150+011030FM-15+2129LIVP V0200401N00211220001CN0099001N1-01001-01001999999ADDMA1101591999999MW1001REMMET066LIVP 130643Z 04004KT CAVOK M10/M10 Q1016 RMK MON LIB VAL MAR CLD ;EQDQ01+000000PRSWM2
0273160220999992000011306004+46150+011030FM-12+2129LIVP V0200401N002612200019N0400001N1-00981-00981999999ADDAA106000091AA212035091AJ100689199999999GA1001+999999999GF100991001001999999001001IA1249KA1120N-00981MA1999999078491MD1610111+9999ME1315109REMSYN104AAXX  13064 16022 32982 00405 11098 21098 37849 48510 56011 90533 333 21098 48068 55085 92835 444 86184;EQDQ01  00002PRCP06
0093160220999992000011306434+46150+011030FM-15+2129LIVP V0200301N00211220001CN0099001N1-01001-01001999999ADDMA1101591999999MW1001REMMET041LIVP 130743Z 03004KT CAVOK M10/M10 Q1016;EQDQ01+000000PRSWM2
0117160220999992000011307434+46150+011030FM-15+2129LIVP V0209999C00001220001CN0099001N1-00901-00901999999ADDMA1101591999999MW1001REMMET065LIVP 130843Z 00000KT CAVOK M09/M09 Q1016 RMK MON LIB VAL MAR CLD;EQDQ01+000000PRSWM2
0117160220999992000011308434+46150+011030FM-15+2129LIVP V0209999C00001220001CN0099001N1-00801-01001999999ADDMA1101591999999MW1001REMMET065LIVP 130943Z 00000KT CAVOK M08/M10 Q1016 RMK MON LIB VAL MAR CLD;EQDQ01+000000PRSWM2
0195160220999992000011309004+46150+011030FM-12+2129LIVP V0209999C000012200019N0600001N1-00891-00951999999ADDAA112035091GA1001+999999999GF100991001001999999001001MA1999999078491MD1510001+9999ME1315089REMSYN092AAXX  13094 16022 42986 00000 11089 21095 37849 48508 55000 91134 333 55310 92835 444 86194;
0117160220999992000011309434+46150+011030FM-15+2129LIVP V0209999C00001220001CN0099001N1-00801-01201999999ADDMA1101591999999MW1001REMMET065LIVP 131043Z 00000KT CAVOK M08/M12 Q1016 RMK MON LIB VAL MAR CLD;EQDQ01+000000PRSWM2
0117160220999992000011310434+46150+011030FM-15+2129LIVP V0209999C00001220001CN0099001N1-00801-01101999999ADDMA1101491999999MW1001REMMET065LIVP 131143Z 00000KT CAVOK M08/M11 Q1015 RMK MON LIB VAL MAR CLD;EQDQ01+000000PRSWM2
0272160220999992000011312004+46150+011030FM-12+2129LIVP V0209999C000012200019N0600001N1-00751-01141999999ADDAA106000091AA212035091AJ100679199999999GA1001+999999999GF100991001001999999001001GG1069084009019999IA1249MA1999999078411MD1810091+9999ME1314979REMSYN098AAXX  13124 16022 32986 00000 11075 21114 37841 48497 58009 91435 333 48067 55310 92835 444 86184;EQDQ01  00002PRCP06
0117160220999992000011312434+46150+011030FM-15+2129LIVP V0209999C00001220001CN0099001N1-00701-01201999999ADDMA1101491999999MW1001REMMET065LIVP 131343Z 00000KT CAVOK M07/M12 Q1015 RMK MON LIB VAL MAR CLD;EQDQ01+000000PRSWM2
0117160220999992000011313434+46150+011030FM-15+2129LIVP V0209999C00001220001CN0099001N1-00701-01301999999ADDMA1101391999999MW1001REMMET065LIVP 131443Z 00000KT CAVOK M07/M13 Q1014 RMK MON LIB VAL MAR CLD;EQDQ01+000000PRSWM2
0117160220999992000011314434+46150+011030FM-15+2129LIVP V0209999C00001220001CN0099001N1-00701-01201999999ADDMA1101391999999MW1001REMMET065LIVP 131543Z 00000KT CAVOK M07/M12 Q1014 RMK MON LIB VAL MAR CLD;EQDQ01+000000PRSWM2
0195160220999992000011315004+46150+011030FM-12+2129LIVP V0209999C000012200019N0600001N1-00701-01251999999ADDAA112035091GA1001+999999999GF100991001001999999001001MA1999999078341MD1610071+9999ME1314909REMSYN092AAXX  13154 16022 42986 00000 11070 21125 37834 48490 56007 91736 333 55310 92835 444 86184;
0117160220999992000011315434+46150+011030FM-15+2129LIVP V0209999C00001220001CN0099001N1-00801-01301999999ADDMA1101391999999MW1001REMMET065LIVP 131643Z 00000KT CAVOK M08/M13 Q1014 RMK MON LIB VAL MAR CLD;EQDQ01+000000PRSWM2
0093160220999992000011316434+46150+011030FM-15+2129LIVP V0209999C00001220001CN0099001N1-00801-01301999999ADDMA1101391999999MW1001REMMET041LIVP 131743Z 00000KT CAVOK M08/M13 Q1014;EQDQ01+000000PRSWM2
0285160220999992000011318004+46150+011030FM-12+2129LIVP V0209999C000012200019N0500001N1-00841-01321999999ADDAA106000091AA212035091AJ100679199999999GA1001+999999999GF100991001001999999001001GG1069055009019999IA1249KA1120M-00701MA1999999078341MD1410001+9999ME1314939REMSYN098AAXX  13184 16022 32984 00000 11084 21132 37834 48493 54000 91733 333 11070 48067 92835 444 46155;EQDQ01  00002PRCP06
0172160220999992000011321004+46150+011030FM-12+212999999V0209999C000012200019N0500001N1-00821-01301999999ADDAA112035091GA1001+999999999GF100991001001999999001001MD1410001+9999ME1314939REMSYN084    AAXX  13214 16022 42984 00000 11082 21130 48493 54000 92035 333 92835 444 36155;
0252160220999992000011400004+46150+011030FM-12+212999999V0202201N003112200019N0500001N1-00951-01351999999ADDAA112035091AA299000091AJ100679199999999GA1001+999999999GF100991001001999999001001IA1249MA1999999078341MD1410001+9999ME1314969REMSYN096    AAXX  14004 16022 32984 02206 11095 21135 37834 48496 54000 92335 333 48067 92835 444 26155;EQDQ01  00002PRCP99
0113160220999992000011401434+46150+011030FM-15+2129LIVP V0202201N00411220001CN0099001N1-00901-01101999999ADDMA1101391999999MW1001REMMET061LIVP 140243Z 22008KT CAVOK M09/M11 Q1014 RMK MON LIB VAL NIL;EQDQ01+000000PRSWM2
0093160220999992000011402434+46150+011030FM-15+2129LIVP V0202301N00411220001CN0099001N1-00901-01101999999ADDMA1101391999999MW1001REMMET041LIVP 140343Z 23008KT CAVOK M09/M11 Q1014;EQDQ01+000000PRSWM2
0172160220999992000011403004+46150+011030FM-12+212999999V0202201N004112200019N0600001N1-00891-01141999999ADDGA1001+999999999GF100991001001999999001001MA1999999078341MD1810011+9999ME1314959REMSYN080    AAXX  14034 16022 42986 02208 11089 21114 37834 48495 58001 90234 333 92835;
0113160220999992000011403434+46150+011030FM-15+2129LIVP V0202301N00411220001CN0099001N1-00801-01001999999ADDMA1101391999999MW1001REMMET061LIVP 140443Z 23008KT CAVOK M08/M10 Q1014 RMK MON LIB VAL NIL;EQDQ01+000000PRSWM2
0113160220999992000011404434+46150+011030FM-15+2129LIVP V0202201N00361220001CN0099001N1-00701-01001999999ADDMA1101391999999MW1001REMMET061LIVP 140543Z 22007KT CAVOK M07/M10 Q1014 RMK MON LIB VAL NIL;EQDQ01+000000PRSWM2
0113160220999992000011405434+46150+011030FM-15+2129LIVP V0202001N00261220001CN0099001N1-00701-00801999999ADDMA1101491999999MW1001REMMET061LIVP 140643Z 20005KT CAVOK M07/M08 Q1015 RMK MON LIB VAL NIL;EQDQ01+000000PRSWM2
0256160220999992000011406004+46150+011030FM-12+212999999V0202201N003612200019N0600001N1-00721-00971999999ADDAA199000091AJ100679199999999GA1001+999999999GF100991001001999999001001IA1249KA1120N-00971MA1999999078351MD1310011+9999ME1314919REMSYN098    AAXX  14064 16022 32986 02207 11072 21097 37835 48491 53001 90533 333 21097 48067 55082 92835;EQDQ01  00002PRCP99
0165160220999992000011406434+46150+011030FM-15+2129LIVP V0201801N002610075019N0112651N1-00801-00801999999ADDGA1071+007509999GF107991999999999999999999MA1101491999999MW1001REMMET071LIVP 140743Z 18005KT 9999 BKN025 M08/M08 Q1015 RMK BKN MON LIB VAL NIL;EQDQ01+000000PRSWM2
0165160220999992000011407434+46150+011030FM-15+2129LIVP V0201901N003110075019N0112651N1-00701-00701999999ADDGA1071+007509999GF107991999999999999999999MA1101591999999MW1001REMMET071LIVP 140843Z 19006KT 9999 BKN025 M07/M07 Q1016 RMK BKN MON LIB VAL NIL;EQDQ01+000000PRSWM2
0165160220999992000011408434+46150+011030FM-15+2129LIVP V0202001N004110075019N0112651N1-00601-00601999999ADDGA1071+007509999GF107991999999999999999999MA1101591999999MW1001REMMET071LIVP 140943Z 20008KT 9999 BKN025 M06/M06 Q1016 RMK BKN MON LIB VAL NIL;EQDQ01+000000PRSWM2
0190160220999992000011409004+46150+011030FM-12+212999999V0201901N003110075019N0500001N1-00721-00721999999ADDGA1061+007509069GF106991061051008001001001MA1999999078521MD1210171+9999ME1315049REMSYN098    AAXX  14094 16022 42584 61906 11072 21072 37852 48504 52017 86500 90835 333 55300 86625 92835;
0165160220999992000011409434+46150+011030FM-15+2129LIVP V0202201N004610060019N0112651N1-00501-00501999999ADDGA1071+006009999GF107991999999999999999999MA1101591999999MW1001REMMET071LIVP 141043Z 22009KT 9999 BKN020 M05/M05 Q1016 RMK BKN MON LIB VAL NIL;EQDQ01+000000PRSWM2
0161160220999992000011410434+46150+011030FM-15+2129LIVP V0202201N002610060019N0112651N1-00501-00601999999ADDGA1071+006009999GF107991999999999999999999MA1101591999999MW1001REMMET067LIVP 141143Z 22005KT 9999 BKN020 M05/M06 Q1016 RMK BKN MON CLD SCT;EQDQ01+000000PRSWM2
0161160220999992000011411434+46150+011030FM-15+2129LIVP V0202001N001010060019N0112651N1-00501-00601999999ADDGA1071+006009999GF107991999999999999999999MA1101591999999MW1001REMMET067LIVP 141243Z 20002KT 9999 BKN020 M05/M06 Q1016 RMK BKN MON CLD SCT;EQDQ01+000000PRSWM2
0249160220999992000011412004+46150+011030FM-12+212999999V0202201N002610060019N0400001N1-00461-00561999999ADDAA199000091AJ100679199999999GA1061+006009069GF106991061051008001001001IA1249MA1999999078521MD1110011+9999ME1314989REMSYN104    AAXX  14124 16022 32582 62205 11046 21056 37852 48498 51001 86500 91133 333 48067 55300 86620 92835;EQDQ01  00002PRCP99
0161160220999992000011412434+46150+011030FM-15+2129LIVP V0202001N001510060019N0112651N1-00601-00601999999ADDGA1071+006009999GF107991999999999999999999MA1101591999999MW1001REMMET067LIVP 141343Z 20003KT 9999 BKN020 M06/M06 Q1016 RMK BKN MON CLD SCT;EQDQ01+000000PRSWM2
0161160220999992000011414434+46150+011030FM-15+2129LIVP V0209999C000010060019N0112651N1-00401-00401999999ADDGA1081+006009999GF108991999999999999999999MA1101691999999MW1001REMMET067LIVP 141543Z 00000KT 9999 OVC020 M04/M04 Q1017 RMK OVC MON CLD SCT;EQDQ01+000000PRSWM2
0141160220999992000011415434+46150+011030FM-15+2129LIVP V0201801N001510060019N0112651N1-00401-00401999999ADDGA1081+006009999GF108991999999999999999999MA1101691999999MW1001REMMET047LIVP 141643Z 18003KT 9999 OVC020 M04/M04 Q1017;EQDQ01+000000PRSWM2
0180160220999992000011416434+46150+011030FM-15+2129LIVP V0201501N002610060019N0112651N1-00401-00401999999ADDGA1021+003009999GA2071+006009999GF107991999999999999999999MA1101801999999MW1001REMMET070LIVP 141743Z 15005KT 9999 FEW010 BKN020 M04/M04 Q1018 RMK OVC MON CLD;EQDQ01+000000PRSWM2
0284160220999992000011418004+46150+011030FM-12+212999999V0201501N002610060019N0300001N1-00431-00431999999ADDAA199000091AJ100669199999999GA1021+003009089GA2071+006009069GF108991081081004501999999IA1249KA1120M-00381MA1999999078611MD1210071+9999ME1315089REMSYN110    AAXX  14184 16022 32480 81505 11043 21043 37861 48508 52007 888// 91734 333 11038 48066 82810 87620 92835;EQDQ01  00002PRCP99
0206160220999992000011421004+46150+011030FM-12+212999999V0209999C000010060019N0300001N1-00401-00471999999ADDGA1021+003009089GA2081+006009069GF108991081081004501999999MA1999999078711MD1210091+9999ME1315189REMSYN098    AAXX  14214 16022 42480 80000 11040 21047 37871 48518 52009 888// 92034 333 82810 88620 92835;
0243160220999992000011500004+46150+011030FM-12+212999999V0209999C000010060019N0300001N1-00461-00661999999ADDAA199000091AJ100669199999999GA1071+006009069GF107991071051008001001001IA1249MA1999999078741MD1110031+9999ME1315259REMSYN098    AAXX  15004 16022 32580 70000 11046 21066 37874 48525 51003 87500 92334 333 48066 87620 92835;EQDQ01  00002PRCP99
0165160220999992000011501434+46150+011030FM-15+2129LIVP V0209999C000012200019N0112651N1-00501-00501999999ADDGA1021+006009999GF102991999999999999999999MA1101901999999MW1001REMMET071LIVP 150243Z 00000KT 9999 FEW020 M05/M05 Q1019 RMK FEW MON LIB VAL NIL;EQDQ01+000000PRSWM2
0165160220999992000011502434+46150+011030FM-15+2129LIVP V0209999C000012200019N0112651N1-00501-00801999999ADDGA1021+006009999GF102991999999999999999999MA1101901999999MW1001REMMET071LIVP 150343Z 00000KT 9999 FEW020 M05/M08 Q1019 RMK FEW MON LIB VAL NIL;EQDQ01+000000PRSWM2
0184160220999992000011503004+46150+011030FM-12+212999999V0209999C000012200019N0300001N1-00461-00741999999ADDGA1021+006009069GF102991021051008001001001MA1999999078751MD1310011+9999ME1315259REMSYN092    AAXX  15034 16022 42580 20000 11046 21074 37875 48525 53001 82500 90233 333 82620 92835;
0165160220999992000011503434+46150+011030FM-15+2129LIVP V0209999C000012200019N0112651N1-00401-00701999999ADDGA1021+006009999GF102991999999999999999999MA1101901999999MW1001REMMET071LIVP 150443Z 00000KT 9999 FEW020 M04/M07 Q1019 RMK FEW MON LIB VAL NIL;EQDQ01+000000PRSWM2
0165160220999992000011504434+46150+011030FM-15+2129LIVP V0200201N001512200019N0112651N1-00401-00701999999ADDGA1021+006009999GF102991999999999999999999MA1101901999999MW1001REMMET071LIVP 150543Z 02003KT 9999 FEW020 M04/M07 Q1019 RMK FEW MON LIB VAL NIL;EQDQ01+000000PRSWM2
0165160220999992000011505434+46150+011030FM-15+2129LIVP V0200201N001512200019N0112651N1-00401-00701999999ADDGA1021+006009999GF104991999999999999999999MA1101901999999MW1001REMMET071LIVP 150643Z 02003KT 9999 SCT020 M04/M07 Q1019 RMK SCT MON LIB VAL NIL;EQDQ01+000000PRSWM2
0262160220999992000011506004+46150+011030FM-12+212999999V0200201N001512200019N0300001N1-00421-00741999999ADDAA199000091AJ100669199999999GA1021+006009069GF102991021051008001001001IA1249KA1120N-00481MA1999999078721MD1810031+9999ME1315189REMSYN104    AAXX  15064 16022 32580 20203 11042 21074 37872 48518 58003 82500 333 21048 48066 55007 82620 92835;EQDQ01  00002PRCP99
0166160220999992000011506434+46150+011030FM-15+2129LIVP V0209999C000012200019N0112651N1-00301-00701999999ADDGA1021+006009999GF102991999999999999999999MA1102001999999MW1001REMMET072LIVP 150743Z 00000KT 9999 FEW020 M03/M07 Q1020 RMK FEW MON LIB VAL NIL ;EQDQ01+000000PRSWM2
0165160220999992000011507434+46150+011030FM-15+2129LIVP V0209999C000012200019N0112651N1-00301-00701999999ADDGA1021+009009999GF102991999999999999999999MA1102001999999MW1001REMMET071LIVP 150843Z 00000KT 9999 FEW030 M03/M07 Q1020 RMK FEW MON LIB VAL NIL;EQDQ01+000000PRSWM2
0120160220999992000011508434+46150+011030FM-15+2129LIVP V0209999C00001220001CN0099001N1-00201-00601999999ADDMA1102101999999MW1001REMMET068LIVP 150943Z 00000KT CAVOK M02/M06 Q1021 RMK FEW150 MON LIB VAL NIL;EQDQ01+000000PRSWM2
0190160220999992000011509004+46150+011030FM-12+212999999V0209999C000012200019N0400001N1-00251-00701999999ADDGA1021+009009069GF102991021051008001001001MA1999999078841MD1310131+9999ME1315319REMSYN098    AAXX  15094 16022 42582 20000 11025 21070 37884 48531 53013 82500 90835 333 55310 82630 92835;
0120160220999992000011509434+46150+011030FM-15+2129LIVP V0209999C00001220001CN0099001N1-00201-00601999999ADDMA1102101999999MW1001REMMET068LIVP 151043Z 00000KT CAVOK M02/M06 Q1021 RMK FEW150 MON LIB VAL NIL;EQDQ01+000000PRSWM2
0120160220999992000011510434+46150+011030FM-15+2129LIVP V0209999C00001220001CN0099001N1-00101-00701999999ADDMA1102101999999MW1001REMMET068LIVP 151143Z 00000KT CAVOK M01/M07 Q1021 RMK FEW150 MON LIB VAL NIL;EQDQ01+000000PRSWM2
0120160220999992000011511434+46150+011030FM-15+2129LIVP V0209999C00001220001CN0099001N1-00101-00701999999ADDMA1102001999999MW1001REMMET068LIVP 151243Z 00000KT CAVOK M01/M07 Q1020 RMK FEW150 MON LIB VAL NIL;EQDQ01+000000PRSWM2
0227160220999992000011512004+46150+011030FM-12+212999999V0209999C000012200019N0400001N1-00101-00651999999ADDAA199000091AJ100669199999999GF102991001001999999001081IA1249MA1999999078861MD1110021+9999ME1315279REMSYN098    AAXX  15124 16022 32982 20000 11010 21065 37886 48527 51002 80008 91133 333 48066 55310 92835;EQDQ01  00002PRCP99
0120160220999992000011512434+46150+011030FM-15+2129LIVP V0209999C00001220001CN0099001N1-00101-00701999999ADDMA1102001999999MW1001REMMET068LIVP 151343Z 00000KT CAVOK M01/M07 Q1020 RMK FEW150 MON LIB VAL NIL;EQDQ01+000000PRSWM2
0120160220999992000011513434+46150+011030FM-15+2129LIVP V0209999C00001220001CN0099001N1-00101-00701999999ADDMA1102001999999MW1001REMMET068LIVP 151443Z 00000KT CAVOK M01/M07 Q1020 RMK FEW150 MON LIB VAL NIL;EQDQ01+000000PRSWM2
0120160220999992000011514434+46150+011030FM-15+2129LIVP V0209999C00001220001CN0099001N1-00101-00701999999ADDMA1102001999999MW1001REMMET068LIVP 151543Z 00000KT CAVOK M01/M07 Q1020 RMK FEW150 MON LIB VAL NIL;EQDQ01+000000PRSWM2
0168160220999992000011515004+46150+011030FM-12+212999999V0209999C000012200019N0500001N1-00101-00681999999ADDGF101991001001999999001011MA1999999078821MD1810041+9999ME1315229REMSYN092    AAXX  15154 16022 42984 10000 11010 21068 37882 48522 58004 80001 91433 333 55310 92835;
0120160220999992000011515434+46150+011030FM-15+2129LIVP V0209999C00001220001CN0099001N1-00201-00801999999ADDMA1102001999999MW1001REMMET068LIVP 151643Z 00000KT CAVOK M02/M08 Q1020 RMK FEW150 MON LIB VAL NIL;EQDQ01+000000PRSWM2
0120160220999992000011516434+46150+011030FM-15+2129LIVP V0209999C00001220001CN0099001N1-00201-00801999999ADDMA1102001999999MW1001REMMET068LIVP 151743Z 00000KT CAVOK M02/M08 Q1020 RMK FEW150 MON LIB VAL NIL;EQDQ01+000000PRSWM2
0240160220999992000011518004+46150+011030FM-12+212999999V0209999C000012200019N0500001N1-00161-00761999999ADDAA199000091AJ100649199999999GF101991001001999999001011IA1249KA1120M-00081MA1999999078841MD1310021+9999ME1315299REMSYN098    AAXX  15184 16022 32984 10000 11016 21076 37884 48529 53002 80001 91735 333 11008 48064 92835;EQDQ01  00002PRCP99
0231160220999992000011600004+46150+011030FM-12+212999999V0209999C000012200019N0500001N1-00201-00971999999ADDAA199000091AJ100649199999999GA1001+999999999GF100991001001999999001001IA1249MA1999999078791MD1710041+9999ME1315249REMSYN086    AAXX  16004 16022 32984 00000 11020 21097 37879 48524 57004 92333 333 48064 92835;EQDQ01  00002PRCP99
0113160220999992000011601434+46150+011030FM-15+2129LIVP V0209999C00001220001CN0099001N1-00301-01001999999ADDMA1101801999999MW1001REMMET061LIVP 160243Z 00000KT CAVOK M03/M10 Q1018 RMK MON LIB VAL NIL;EQDQ01+000000PRSWM2
0113160220999992000011602434+46150+011030FM-15+2129LIVP V0209999C00001220001CN0099001N1-00401-00901999999ADDMA1101801999999MW1001REMMET061LIVP 160343Z 00000KT CAVOK M04/M09 Q1018 RMK MON LIB VAL NIL;EQDQ01+000000PRSWM2
0093160220999992000011603434+46150+011030FM-15+2129LIVP V0209999C00001220001CN0099001N1-00401-00901999999ADDMA1101691999999MW1001REMMET041LIVP 160443Z 00000KT CAVOK M04/M09 Q1017;EQDQ01+000000PRSWM2
0093160220999992000011604434+46150+011030FM-15+2129LIVP V0209999C00001220001CN0099001N1-00401-01001999999ADDMA1101691999999MW1001REMMET041LIVP 160543Z 00000KT CAVOK M04/M10 Q1017;EQDQ01+000000PRSWM2
0120160220999992000011605434+46150+011030FM-15+2129LIVP V0200301N00361220001CN0099001N1-00601-01301999999ADDMA1101691999999MW1001REMMET068LIVP 160643Z 03007KT CAVOK M06/M13 Q1017 RMK FEW140 MON LIB VAL NIL;EQDQ01+000000PRSWM2
0256160220999992000011606004+46150+011030FM-12+212999999V0209999C000012200019N0500001N1-00401-01021999999ADDAA199000091AJ100649199999999GA1001+999999999GF100991001001999999001001IA1249KA1120N-00401MA1999999078601MD1610071+9999ME1315079REMSYN098    AAXX  16064 16022 32984 00000 11040 21102 37860 48507 56007 90534 333 21040 48064 55083 92835;EQDQ01  00002PRCP99
0126160220999992000011606434+46150+011030FM-15+2129LIVP V0200301N00511220001CN0099001N1-00601-01301999999ADDMA1101691999999MW1001REMMET074LIVP 160743Z 03010KT CAVOK M06/M13 Q1017 RMK FEW120 MON LIB VAL E FOSCHIA;EQDQ01+000000PRSWM2
0127160220999992000011608434+46150+011030FM-15+2129LIVP V0200301N00261220001CN0099001N1-00601-01301999999ADDMA1101801999999MW1001REMMET075LIVP 160943Z 03005KT CAVOK M06/M13 Q1018 RMK FEW120 MON LIB VAL SE FOSCHIA;EQDQ01+000000PRSWM2
0127160220999992000011609434+46150+011030FM-15+2129LIVP V0200301N00411220001CN0099001N1-00601-01301999999ADDMA1101901999999MW1001REMMET075LIVP 161043Z 03008KT CAVOK M06/M13 Q1019 RMK FEW120 MON LIB VAL SE FOSCHIA;EQDQ01+000000PRSWM2
0131160220999992000011610434+46150+011030FM-15+2129LIVP V0200301N00461220001CN0099001N1-00501-01301999999ADDMA1101901999999MW1001REMMET079LIVP 161143Z 03009KT CAVOK M05/M13 Q1019 RMK FEW120 MON LIB VAL S ET E FOSCHIA;EQDQ01+000000PRSWM2
0227160220999992000011612004+46150+011030FM-12+212999999V0200301N004612200019N0700001N1-00541-01331999999ADDAA199000091AJ100639199999999GF101991001001999999001011IA1249MA1999999078701MD1010051+9999ME1315219REMSYN098    AAXX  16124 16022 32988 10309 11054 21133 37870 48521 50005 80001 91133 333 48063 55310 92835;EQDQ01  00002PRCP99
0093160220999992000011612434+46150+011030FM-15+2129LIVP V0200201N00511220001CN0099001N1-00501-01401999999ADDMA1101901999999MW1001REMMET041LIVP 161343Z 02010KT CAVOK M05/M14 Q1019;EQDQ01+000000PRSWM2
0093160220999992000011613434+46150+011030FM-15+2129LIVP V0200201N00621220001CN0099001N1-00601-01601999999ADDMA1101801999999MW1001REMMET041LIVP 161443Z 02012KT CAVOK M06/M16 Q1018;EQDQ01+000000PRSWM2
0119160220999992000011614434+46150+011030FM-15+2129LIVP V0200201N00621220001CN0099001N1-00601-01501999999ADDMA1101801999999MW1001REMMET067LIVP 161543Z 02012KT CAVOK M06/M15 Q1018 RMK MON LIB VAL S FOSCHIA;EQDQ01+000000PRSWM2
0168160220999992000011615004+46150+011030FM-12+212999999V0200201N006212200019N0500001N1-00561-01501999999ADDGF101991001001999999001011MA1999999078681MD1610021+9999ME1315229REMSYN092    AAXX  16154 16022 42984 10212 11056 21150 37868 48522 56002 80001 91434 333 55310 92835;
0093160220999992000011615434+46150+011030FM-15+2129LIVP V0200201N00621220001CN0099001N1-00601-01501999999ADDMA1101801999999MW1001REMMET041LIVP 161643Z 02012KT CAVOK M06/M15 Q1018;EQDQ01+000000PRSWM2
0119160220999992000011616434+46150+011030FM-15+2129LIVP V0200201N00571220001CN0099001N1-00701-01501999999ADDMA1101901999999MW1001REMMET067LIVP 161743Z 02011KT CAVOK M07/M15 Q1019 RMK MON LIB VAL S FOSCHIA;EQDQ01+000000PRSWM2
0250160220999992000011618004+46150+011030FM-12+212999999V0200201N005712200019N0400001N1-00701-01501999999ADDAA199000091AJ100639199999999GA1001+999999999GF100991001001999999001001IA1249KA1120M-00401MA1999999078701MD1310021+9999ME1315259REMSYN092    AAXX  16184 16022 32982 00211 11070 21150 37870 48525 53002 91733 333 11040 48063 92835;EQDQ01  00002PRCP99
0172160220999992000011621004+46150+011030FM-12+212999999V0200301N006212200019N0400001N1-00801-01391999999ADDGA1001+999999999GF100991001001999999001001MA1999999078751MD1210051+9999ME1315329REMSYN080    AAXX  16214 16022 42982 00312 11080 21139 37875 48532 52005 92033 333 92835;
0221160220999992000011700004+46150+011030FM-12+212999999V0200301N005712200019N0400001N1-00801-01391999999ADDAA199000091AJ100639199999999GF103991001001999999001041IA1249MA1999999078711MD1810041+9999ME1315279REMSYN092    AAXX  17004 16022 32982 30311 11080 21139 37871 48527 58004 80004 92333 333 48063 92835;EQDQ01  00002PRCP99
0120160220999992000011701434+46150+011030FM-15+2129LIVP V0200301N00571220001CN0099001N1-00801-01401999999ADDMA1101801999999MW1001REMMET068LIVP 170243Z 03011KT CAVOK M08/M14 Q1018 RMK SCT120 MON LIB VAL NIL;EQDQ01+000000PRSWM2
0093160220999992000011702434+46150+011030FM-15+2129LIVP V0200301N00671220001CN0099001N1-00701-01401999999ADDMA1101691999999MW1001REMMET041LIVP 170343Z 03013KT CAVOK M07/M14 Q1017;EQDQ01+000000PRSWM2
0162160220999992000011703004+46150+011030FM-12+212999999V0200301N005712200019N0300001N1-00801-01391999999ADDGF103991001001999999001011MA1999999078631MD1710081+9999ME1315229REMSYN086    AAXX  17034 16022 42980 30311 11080 21139 37863 48522 57008 80001 90234 333 92835;
0093160220999992000011703434+46150+011030FM-15+2129LIVP V0200201N00771220001CN0099001N1-00601-01401999999ADDMA1101691999999MW1001REMMET041LIVP 170443Z 02015KT CAVOK M06/M14 Q1017;EQDQ01+000000PRSWM2
0093160220999992000011704434+46150+011030FM-15+2129LIVP V0200201N00571220001CN0099001N1-00501-01301999999ADDMA1101591999999MW1001REMMET041LIVP 170543Z 02011KT CAVOK M05/M13 Q1016;EQDQ01+000000PRSWM2
0093160220999992000011705434+46150+011030FM-15+2129LIVP V0200301N00571220001CN0099001N1-00501-01301999999ADDMA1101591999999MW1001REMMET041LIVP 170643Z 03011KT CAVOK M05/M13 Q1016;EQDQ01+000000PRSWM2
0246160220999992000011706004+46150+011030FM-12+212999999V0200201N005712200019N0400001N1-00521-01341999999ADDAA199000091AJ100639199999999GF102991001001999999001011IA1249KA1120N-00881MA1999999078501MD1710131+9999ME1314999REMSYN104    AAXX  17064 16022 32982 20211 11052 21134 37850 48499 57013 80001 90535 333 21088 48063 55084 92835;EQDQ01  00002PRCP99
0093160220999992000011706434+46150+011030FM-15+2129LIVP V0200301N00721220001CN0099001N1-00401-01201999999ADDMA1101491999999MW1001REMMET041LIVP 170743Z 03014KT CAVOK M04/M12 Q1015;EQDQ01+000000PRSWM2
0093160220999992000011708434+46150+011030FM-15+2129LIVP V0200201N00871220001CN0099001N1-00101-00801999999ADDMA1101491999999MW1001REMMET041LIVP 170943Z 02017KT CAVOK M01/M08 Q1015;EQDQ01+000000PRSWM2
0120160220999992000011709434+46150+011030FM-15+2129LIVP V0200201N00871220001CN0099001N1+00001-00801999999ADDMA1101391999999MW1001REMMET068LIVP 171043Z 02017KT CAVOK M00/M08 Q1014 RMK SCT130 MON LIB VAL NIL;EQDQ01+000000PRSWM2
0092160220999992000011710434+46150+011030FM-15+2129LIVP V0200201N00871220001CN0099001N1+00101-00701999999ADDMA1101391999999MW1001REMMET040LIVP 171143Z 02017KT CAVOK 01/M07 Q1014;EQDQ01+000000PRSWM2
0179160220999992000011711434+46150+011030FM-15+2129LIVP V0200201N008712200019N0112651N1+00101-00801999999ADDGA1021+009009999GA2021+042009999GF104991999999999999999999MA1101291999999MW1001REMMET069LIVP 171243Z 02017KT 9999 FEW030 SCT140 01/M08 Q1013 RMK SCT MON LIB;EQDQ01+000000PRSWM2
0227160220999992000011712004+46150+011030FM-12+212999999V0200201N008712200019N0500001N1+00101-00751999999ADDAA199000091AJ100639199999999GF104991001001999999001081IA1249MA1999999078321MD1710071+9999ME1314659REMSYN098    AAXX  17124 16022 32984 40217 10010 21075 37832 48465 57007 80008 91133 333 48063 55310 92835;EQDQ01  00002PRCP99
0179160220999992000011712434+46150+011030FM-15+2129LIVP V0200201N006212200019N0112651N1+00101-00801999999ADDGA1021+009009999GA2021+042009999GF104991999999999999999999MA1101291999999MW1001REMMET069LIVP 171343Z 02012KT 9999 FEW030 SCT140 01/M08 Q1013 RMK SCT MON LIB;EQDQ01+000000PRSWM2
0179160220999992000011713434+46150+011030FM-15+2129LIVP V0200101N007712200019N0112651N1+00101-00701999999ADDGA1021+009009999GA2021+042009999GF104991999999999999999999MA1101291999999MW1001REMMET069LIVP 171443Z 01015KT 9999 FEW030 SCT140 01/M07 Q1013 RMK SCT MON LIB;EQDQ01+000000PRSWM2
0179160220999992000011714434+46150+011030FM-15+2129LIVP V0200101N008712200019N0112651N1+00201-00701999999ADDGA1021+009009999GA2021+036009999GF104991999999999999999999MA1101191999999MW1001REMMET069LIVP 171543Z 01017KT 9999 FEW030 SCT120 02/M07 Q1012 RMK SCT MON LIB;EQDQ01+000000PRSWM2
0190160220999992000011715004+46150+011030FM-12+212999999V0200101N007712200019N0500001N1+00121-00691999999ADDGA1011+009009089GF104991011011008001001081MA1999999078221MD1710101+9999ME1314549REMSYN098    AAXX  17154 16022 42584 40115 10012 21069 37822 48454 57010 81108 91433 333 55310 81830 92835;
0179160220999992000011715434+46150+011030FM-15+2129LIVP V0203601N005112200019N0112651N1+00101-00701999999ADDGA1021+009009999GA2021+036009999GF104991999999999999999999MA1101291999999MW1001REMMET069LIVP 171643Z 36010KT 9999 FEW030 SCT120 01/M07 Q1013 RMK SCT MON LIB;EQDQ01+000000PRSWM2
0184160220999992000011721004+46150+011030FM-12+212999999V0200601N003612200019N0500001N1+00101-00661999999ADDGA1011+009009089GF102991011011008001001011MA1999999078251MD1110021+9999ME1314609REMSYN092    AAXX  17214 16022 42584 20607 10010 21066 37825 48460 51002 81101 92035 333 81830 92835;
0243160220999992000011800004+46150+011030FM-12+212999999V0203501N006212200019N0500001N1+00101-00971999999ADDAA199000091AJ100619199999999GA1011+009009089GF101991011011008001001001IA1249MA1999999078121MD1810141+9999ME1314439REMSYN098    AAXX  18004 16022 32584 13512 10010 21097 37812 48443 58014 81100 92333 333 48061 81830 92835;EQDQ01  00002PRCP99
0119160220999992000011801434+46150+011030FM-15+2129LIVP V0203501N01031220001CN0099001N1+00101-01001999999ADDMA1100711999999MW1001REMMET067LIVP 180243Z 35020KT CAVOK 01/M10 Q1007 RMK FEW060 MON LIB VAL NIL;EQDQ01+000000PRSWM2
0119160220999992000011802434+46150+011030FM-15+2129LIVP V0203501N00981220001CN0099001N1+00001-00801999999ADDMA1100711999999MW1001REMMET067LIVP 180343Z 35019KT CAVOK 00/M08 Q1007 RMK FEW060 MON LIB VAL NIL;EQDQ01+000000PRSWM2
0119160220999992000011803434+46150+011030FM-15+2129LIVP V0203501N01031220001CN0099001N1+00001-00801999999ADDMA1100711999999MW1001REMMET067LIVP 180443Z 35020KT CAVOK 00/M08 Q1007 RMK FEW060 MON LIB VAL NIL;EQDQ01+000000PRSWM2
0119160220999992000011804434+46150+011030FM-15+2129LIVP V0203601N01081220001CN0099001N1+00001-00801999999ADDMA1100611999999MW1001REMMET067LIVP 180543Z 36021KT CAVOK 00/M08 Q1006 RMK FEW060 MON LIB VAL NIL;EQDQ01+000000PRSWM2
0180160220999992000011805434+46150+011030FM-15+2129LIVP V0200201N011312200019N0112651N1+00001-00801999999ADDGA1021+006009999GA2021+018009999GF104991999999999999999999MA1100611999999MW1001REMMET070LIVP 180643Z 02022KT 9999 FEW020 SCT060 M00/M08 Q1006 RMK SCT MON LIB;EQDQ01+000000PRSWM2
0268160220999992000011806004+46150+011030FM-12+212999999V0203601N010812200019N0500001N1+00001-00791999999ADDAA199000091AJ100619199999999GA1021+018009039GF103991021001017501071011IA1249KA1120N+00001MA1999999077711MD1710021+9999ME1314059REMSYN110    AAXX  18064 16022 32784 33621 10000 21079 37771 48405 57002 82071 90533 333 20000 48061 55072 82356 92835;EQDQ01  00002PRCP99
0193160220999992000011806434+46150+011030FM-15+2129LIVP V0203601N010312200019N0112651N1+00001-00701999999ADDGA1021+006009999GA2021+018009999GF104991999999999999999999MA1100611999999MW1361REMMET067LIVP 180743Z 36020KT 9999 DRSN FEW020 SCT060 M00/M07 Q1006 RMK SCT;EQDQ01+000003PRSWM1Q02    003PRSWM1
0184160220999992000011807434+46150+011030FM-15+2129LIVP V0200101N010312200019N0112651N1+00001-00701999999ADDGA1021+015009999GA2021+045009999GF104991999999999999999999MA1100511999999MW1361REMMET058LIVP 180843Z 01020KT 9999 DRSN FEW050 SCT150 00/M07 Q1005;EQDQ01+000003PRSWM1Q02    003PRSWM1
0195160220999992000011808434+46150+011030FM-15+2129LIVP V0200101N008712200019N0112651N1+00001-00701999999ADDGA1021+009009999GA2021+045009999GF104991999999999999999999MA1100511999999MW1361OC101541REMMET061LIVP 180943Z 01017G30KT 9999 DRSN FEW030 SCT150 00/M07 Q1005;EQDQ01+000003PRSWM1Q02    003PRSWM1
0248160220999992000011809004+46150+011030FM-12+212999999V0200101N010312200019N0700001N1+00021-00701999999ADDAA199000091AY101031AY201031GA1011+015009069GF103991011081017501071011MA1999999077591MD1710121+9999ME1313949MW1361REMSYN104    AAXX  18094 16022 31788 30120 10002 21070 37759 48394 57012 73600 81871 90836 333 55301 81650 92835;EQDQ01  00002PRCP99
0196160220999992000011809434+46150+011030FM-15+2129LIVP V0203501N007212200019N0112651N1+00101-00801999999ADDGA1021+009009999GA2021+021009999GF104991999999999999999999MA1100411999999MW1361REMMET070LIVP 181043Z 35014KT 9999 DRSN FEW030 SCT070 01/M08 Q1004 RMK SCT MON;EQDQ01+000003PRSWM1Q02    003PRSWM1
0196160220999992000011810434+46150+011030FM-15+2129LIVP V0200101N008212200019N0112651N1+00101-00801999999ADDGA1021+012009999GA2021+045009999GF104991999999999999999999MA1100311999999MW1361REMMET070LIVP 181143Z 01016KT 9999 DRSN FEW040 SCT150 01/M08 Q1003 RMK SCT MON;EQDQ01+000003PRSWM1Q02    003PRSWM1
0196160220999992000011811434+46150+011030FM-15+2129LIVP V0200101N009312200019N0112651N1+00001-00801999999ADDGA1021+009009999GA2021+021009999GF104991999999999999999999MA1100201999999MW1361REMMET070LIVP 181243Z 01018KT 9999 DRSN FEW030 SCT070 00/M08 Q1002 RMK BKN MON;EQDQ01+000003PRSWM1Q02    003PRSWM1
0277160220999992000011812004+46150+011030FM-12+212999999V0200101N008212200019N0700001N1+00061-00811999999ADDAA199000091AJ100609199999999AY101061AY201061GA1011+012009089GF103991011011012501031011IA1249MA1999999077471MD1710131+9999ME1313769MW1361REMSYN110    AAXX  18124 16022 31688 30116 10006 21081 37747 48376 57013 73600 81131 91135 333 48060 55302 81840 92835;EQDQ01  00002PRCP99
0180160220999992000011813434+46150+011030FM-15+2129LIVP V0200101N010312200019N0112651N1+00001-01201999999ADDGA1021+021009999GF104991999999999999999999MA1100101999999MW1731REMMET070LIVP 181443Z 01020KT 9999 -DR SN SCT070 M00/M12 Q1001 RMK SCT MON LIB;EQDQ01+000003PRSWM1Q02    003PRSWM1
0170160220999992000011814434+46150+011030FM-16+2129LIVP V0200101N010812200019N0112651N1+99999+99999999999ADDGA1021+021009999GF104991999999999999999999MA1100001999999MW1001MW2731REMMET070LIVP 181543Z 01021KT 9999 -DR SN SCT070 M01/012 Q1000 RMK SCT MON LIB;EQDQ01+000003PRSWM1
0218160220999992000011815004+46150+011030FM-12+212999999V0200101N010312200019N0700001N1-00041-01241999999ADDAY111031AY211031GA1041+021009039GF104991041001022501031001MA1999999077241MD1710231+9999ME1313609MW1361REMSYN104    AAXX  18154 16022 41888 40120 11004 21124 37724 48360 57023 73611 84030 91537 333 55301 84357 92835;
0187160220999992000011815434+46150+011030FM-15+2129LIVP V0200201N011812200019N0112651N1-00201-01401999999ADDGA1021+009009999GF102991999999999999999999MA1100101999999MW1731OC101701REMMET069LIVP 181643Z 02023G33KT 9999 -DR SN FEW030 M02/M14 Q1001 RMK SCT MON;EQDQ01+000003PRSWM1Q02    003PRSWM1
0187160220999992000011816434+46150+011030FM-15+2129LIVP V0200201N012312200019N0112651N1-00201-01401999999ADDGA1021+021009999GF102991999999999999999999MA1100101999999MW1731OC101801REMMET069LIVP 181743Z 02024G35KT 9999 -DR SN FEW070 M02/M14 Q1001 RMK FEW MON;EQDQ01+000003PRSWM1Q02    003PRSWM1
0265160220999992000011818004+46150+011030FM-12+212999999V0200201N012312200019N0650001N1-00241-01421999999ADDAA199000021AJ100609199999999AY111061AY211061GA1021+021009039GF102991021001022501031001IA1249KA1120M+00111MA1999999077281MD1310041+9999ME1313689MW1361REMSYN104    AAXX  18184 16022 31887 20224 11024 21142 37728 48368 53004 73611 82030 333 10011 48060 82357 92835;
0200160220999992000011821004+46150+011030FM-12+212999999V0200201N008712200019N0700001N1-00401-01451999999ADDAY101031AY201031GA1001+999999999GF100991001001999999001001MA1999999077541MD1210261+9999ME1313999MW1361REMSYN086    AAXX  18214 16022 41988 00217 11040 21145 37754 48399 52026 73600 92037 333 92545;
