0063170575999992000010107504+41130+027920FM-15+0173LTBU V02099999999992200019N0112651N1+99999+99999999999ADDMW1001REMMET045LTBU 010750Z /////KT 9999 SCT035 05/02 Q1018;
0063170575999992000010108504+41130+027920FM-15+0173LTBU V02099999999992200019N9999999N1+99999+99999999999ADDMW1001REMMET045LTBU 010850Z /////KT 9999 SCT035 04/01 Q1019;
0070170575999992000010109504+41130+027920FM-15+0173LTBU V02099999999992200019N0112651N1+99999+99999999999ADDMW1001REMMET052LTBU 010950Z /////KT 9999 SCT035 BKN100 04/00 Q1020;
0070170575999992000010110504+41130+027920FM-15+0173LTBU V02099999999992200019N9999999N1+99999+99999999999ADDMW1001REMMET052LTBU 011050Z /////KT 9999 SCT030 BKN100 04/00 Q1021;
0070170575999992000010111504+41130+027920FM-15+0173LTBU V02099999999992200019N0112651N1+99999+99999999999ADDMW1001REMMET052LTBU 011150Z /////KT 9999 SCT030 BKN100 04/01 Q1021;
0070170575999992000010112504+41130+027920FM-15+0173LTBU V02099999999992200019N0112651N1+99999+99999999999ADDMW1001REMMET052LTBU 011250Z /////KT 9999 SCT030 BKN100 05/00 Q1021;
0070170575999992000010113504+41130+027920FM-15+0173LTBU V02099999999992200019N0112651N1+99999+99999999999ADDMW1001REMMET052LTBU 011350Z /////KT 9999 SCT030 BKN100 05/00 Q1022;
0071170575999992000010114504+41130+027920FM-15+0173LTBU V02099999999992200019N0112651N1+99999+99999999999ADDMW1001REMMET053LTBU 011450Z /////KT 9999 SCT035 BKN100 04/M00 Q1022;
0070170575999992000010115504+41130+027920FM-15+0173LTBU V02099999999992200019N0112651N1+99999+99999999999ADDMW1001REMMET052LTBU 011550Z /////KT 9999 SCT035 BKN100 04/00 Q1023;
0070170575999992000010116504+41130+027920FM-15+0173LTBU V02099999999992200019N0112651N1+99999+99999999999ADDMW1001REMMET052LTBU 011650Z /////KT 9999 SCT035 BKN100 04/00 Q1023;
0070170575999992000010117504+41130+027920FM-15+0173LTBU V02099999999992200019N0112651N1+99999+99999999999ADDMW1001REMMET052LTBU 011750Z /////KT 9999 SCT035 BKN100 04/00 Q1023;
0070170575999992000010118504+41130+027920FM-15+0173LTBU V02099999999992200019N0112651N1+99999+99999999999ADDMW1001REMMET052LTBU 011850Z /////KT 9999 SCT035 BKN100 04/00 Q1024;
0070170575999992000010119504+41130+027920FM-15+0173LTBU V02099999999992200019N0112651N1+99999+99999999999ADDMW1001REMMET052LTBU 011950Z /////KT 9999 SCT035 BKN100 04/00 Q1024;
0070170575999992000010120504+41130+027920FM-15+0173LTBU V02099999999992200019N0112651N1+99999+99999999999ADDMW1001REMMET052LTBU 012050Z /////KT 9999 SCT035 BKN100 04/00 Q1023;
0070170575999992000010121504+41130+027920FM-15+0173LTBU V02099999999992200019N0112651N1+99999+99999999999ADDMW1001REMMET052LTBU 012150Z /////KT 9999 SCT035 BKN100 04/00 Q1023;
0070170575999992000010122504+41130+027920FM-15+0173LTBU V02099999999992200019N0112651N1+99999+99999999999ADDMW1001REMMET052LTBU 012250Z /////KT 9999 SCT035 BKN100 04/00 Q1024;
0089170575999992000010210504+41130+027920FM-15+0173LTBU V02099999999992200019N0112651N1+99999+99999999999ADDMW1001REMMET052LTBU 021050Z /////KT 9999 SCT030 BKN100 04/00 Q1024;EQDQ01+000000PRSWM2
0089170575999992000010211504+41130+027920FM-15+0173LTBU V02099999999992200019N0300001N1+99999+99999999999ADDMW1001REMMET052LTBU 021150Z /////KT 9999 SCT030 BKN100 04/00 Q1024;EQDQ01+000000PRSWM2
0090170575999992000010212504+41130+027920FM-15+0173LTBU V02099999999992200019N0112651N1+99999+99999999999ADDMW1001REMMET053LTBU 021250Z /////KT 9999 SCT030 BKN100 03/M01 Q1024;EQDQ01+000000PRSWM2
0090170575999992000010213504+41130+027920FM-15+0173LTBU V02099999999992200019N0112651N1+99999+99999999999ADDMW1001REMMET053LTBU 021350Z /////KT 9999 SCT030 BKN100 03/M01 Q1024;EQDQ01+000000PRSWM2
0090170575999992000010214504+41130+027920FM-15+0173LTBU V02099999999992200019N0035001N1+99999+99999999999ADDMW1001REMMET053LTBU 021450Z /////KT 9999 SCT030 BKN100 03/M01 Q1025;EQDQ01+000000PRSWM2
0090170575999992000010215504+41130+027920FM-15+0173LTBU V02099999999992200019N0112651N1+99999+99999999999ADDMW1001REMMET053LTBU 021550Z /////KT 9999 SCT030 BKN100 02/M02 Q1025;EQDQ01+000000PRSWM2
0090170575999992000010216504+41130+027920FM-15+0173LTBU V02099999999992200019N0112651N1+99999+99999999999ADDMW1001REMMET053LTBU 021650Z /////KT 9999 SCT030 BKN100 02/M02 Q1025;EQDQ01+000000PRSWM2
0090170575999992000010217504+41130+027920FM-15+0173LTBU V02099999999992200019N0025751N1+99999+99999999999ADDMW1001REMMET053LTBU 021750Z /////KT 9999 SCT030 BKN100 01/M02 Q1025;EQDQ01+000000PRSWM2
0090170575999992000010218504+41130+027920FM-15+0173LTBU V02099999999992200019N0112651N1+99999+99999999999ADDMW1001REMMET053LTBU 021850Z /////KT 9999 SCT030 BKN100 01/M03 Q1025;EQDQ01+000000PRSWM2
0090170575999992000010219504+41130+027920FM-15+0173LTBU V02099999999992200019N9999999N1+99999+99999999999ADDMW1001REMMET053LTBU 021950Z /////KT 9999 SCT030 BKN100 01/M02 Q1025;EQDQ01+000000PRSWM2
0090170575999992000010220504+41130+027920FM-15+0173LTBU V02099999999992200019N0112651N1+99999+99999999999ADDMW1001REMMET053LTBU 022050Z /////KT 9999 SCT030 BKN100 01/M02 Q1025;EQDQ01+000000PRSWM2
0089170575999992000010221504+41130+027920FM-15+0173LTBU V02099999999992200019N0112651N1+99999+99999999999ADDMW1001REMMET052LTBU 022150Z /////KT 999 SCT030 BKN100 01/M02 Q1025;EQDQ01+000000PRSWM2
0090170575999992000010222504+41130+027920FM-15+0173LTBU V02099999999992200019N0112651N1+99999+99999999999ADDMW1001REMMET053LTBU 022250Z /////KT 9999 SCT030 BKN100 01/M02 Q1025;EQDQ01+000000PRSWM2
0091170575999992000010302204+41130+027920FM-15+0173LTBU V02099999999992200019N0112651N1+99999+99999999999ADDMW1001REMMET054LTBU 030220Z /////KT 9999 SCT030 BKN100 M00/M03 Q1026;EQDQ01+000000PRSWM2
0091170575999992000010302504+41130+027920FM-15+0173LTBU V02099999999992200019N0030001N1+99999+99999999999ADDMW1001REMMET054LTBU 030250Z /////KT 9999 SCT030 BKN100 M01/M03 Q1025;EQDQ01+000000PRSWM2
0091170575999992000010305504+41130+027920FM-15+0173LTBU V02099999999992200019N0112651N1+99999+99999999999ADDMW1001REMMET054LTBU 030550Z /////KT 9999 SCT030 BKN100 M01/M03 Q1026;EQDQ01+000000PRSWM2
0091170575999992000010306504+41130+027920FM-15+0173LTBU V02099999999992200019N0112651N1+99999+99999999999ADDMW1001REMMET054LTBU 030650Z /////KT 9999 SCT030 BKN100 M01/M03 Q1026;EQDQ01+000000PRSWM2
0090170575999992000010307504+41130+027920FM-15+0173LTBU V02099999999992200019N0112651N1+99999+99999999999ADDMW1001REMMET053LTBU 030750Z /////KT 9999 SCT035 BKN100 02/M01 Q1026;EQDQ01+000000PRSWM2
0082170575999992000010308504+41130+027920FM-15+0173LTBU V02099999999992200019N0099001N1+99999+99999999999ADDMW1001REMMET045LTBU 030850Z /////KT 9999 FEW035 03/00 Q1026;EQDQ01+000000PRSWM2
0082170575999992000010309504+41130+027920FM-15+0173LTBU V02099999999992200019N0400001N1+99999+99999999999ADDMW1001REMMET045LTBU 030950Z /////KT 9999 FEW035 04/00 Q1028;EQDQ01+000000PRSWM2
0082170575999992000010310504+41130+027920FM-15+0173LTBU V02099999999992200019N0112651N1+99999+99999999999ADDMW1001REMMET045LTBU 031050Z /////KT 9999 FEW035 05/01 Q1028;EQDQ01+000000PRSWM2
0082170575999992000010311504+41130+027920FM-15+0173LTBU V02099999999992200019N0025001N1+99999+99999999999ADDMW1001REMMET045LTBU 031150Z /////KT 9999 FEW035 05/01 Q1028;EQDQ01+000000PRSWM2
0082170575999992000010312504+41130+027920FM-15+0173LTBU V02099999999992200019N0112651N1+99999+99999999999ADDMW1001REMMET045LTBU 031250Z /////KT 9999 FEW035 06/02 Q1028;EQDQ01+000000PRSWM2
0082170575999992000010313504+41130+027920FM-15+0173LTBU V02099999999992200019N0112651N1+99999+99999999999ADDMW1001REMMET045LTBU 031350Z /////KT 9999 SCT035 06/02 Q1028;EQDQ01+000000PRSWM2
0082170575999992000010314504+41130+027920FM-15+0173LTBU V02099999999992200019N0099001N1+99999+99999999999ADDMW1001REMMET045LTBU 031450Z /////KT 9999 SCT035 04/01 Q1027;EQDQ01+000000PRSWM2
0082170575999992000010315504+41130+027920FM-15+0173LTBU V02099999999992200019N0112651N1+99999+99999999999ADDMW1001REMMET045LTBU 031550Z /////KT 9999 SCT035 03/00 Q1027;EQDQ01+000000PRSWM2
0082170575999992000010316504+41130+027920FM-15+0173LTBU V02099999999992200019N0112651N1+99999+99999999999ADDMW1001REMMET045LTBU 031650Z /////KT 9999 SCT035 03/00 Q1027;EQDQ01+000000PRSWM2
0089170575999992000010317504+41130+027920FM-15+0173LTBU V02099999999992200019N0300001N1+99999+99999999999ADDMW1001REMMET052LTBU 031750Z /////KT 9999 SCT035 BKN100 03/00 Q1027;EQDQ01+000000PRSWM2
0083170575999992000010319504+41130+027920FM-15+0173LTBU V02099999999992200019N0300001N1+99999+99999999999ADDMW1001REMMET046LTBU 032050Z /////KT 9999 SCT035 02/M02 Q1024;EQDQ01+000000PRSWM2
0083170575999992000010320504+41130+027920FM-15+0173LTBU V02099999999992200019N0160931N1+99999+99999999999ADDMW1001REMMET046LTBU 032050Z /////KT 9999 SCT035 02/M02 Q1024;EQDQ01+000000PRSWM2
0083170575999992000010321504+41130+027920FM-15+0173LTBU V02099999999992200019N0112651N1+99999+99999999999ADDMW1001REMMET046LTBU 032150Z /////KT 9999 SCT035 02/M02 Q1023;EQDQ01+000000PRSWM2
0083170575999992000010322504+41130+027920FM-15+0173LTBU V02099999999992200019N0112651N1+99999+99999999999ADDMW1001REMMET046LTBU 032250Z /////KT 9999 SCT035 01/M02 Q1023;EQDQ01+000000PRSWM2
0083170575999992000010400204+41130+027920FM-15+0173LTBU V02099999999992200019N0112651N1+99999+99999999999ADDMW1001REMMET046LTBU 040020Z /////KT 9999 SCT035 00/M03 Q1022;EQDQ01+000000PRSWM2
0083170575999992000010400504+41130+027920FM-15+0173LTBU V02099999999992200019N0099001N1+99999+99999999999ADDMW1001REMMET046LTBU 040050Z /////KT 9999 SCT035 00/M03 Q1022;EQDQ01+000000PRSWM2
0083170575999992000010401504+41130+027920FM-15+0173LTBU V02099999999992200019N0112651N1+99999+99999999999ADDMW1001REMMET046LTBU 040150Z /////KT 9999 SCT035 00/M03 Q1021;EQDQ01+000000PRSWM2
0083170575999992000010402504+41130+027920FM-15+0173LTBU V02099999999992200019N0015001N1+99999+99999999999ADDMW1001REMMET046LTBU 040250Z /////KT 9999 SCT035 00/M03 Q1020;EQDQ01+000000PRSWM2
0083170575999992000010403504+41130+027920FM-15+0173LTBU V02099999999992200019N0112651N1+99999+99999999999ADDMW1001REMMET046LTBU 040350Z /////KT 9999 SCT035 00/M03 Q1020;EQDQ01+000000PRSWM2
0090170575999992000010405504+41130+027920FM-15+0173LTBU V02099999999992200019N0028161N1+99999+99999999999ADDMW1001REMMET053LTBU 040650Z /////KT 9999 SCT035 BKN100 01/M02 Q1020;EQDQ01+000000PRSWM2
0090170575999992000010406504+41130+027920FM-15+0173LTBU V02099999999992200019N0099001N1+99999+99999999999ADDMW1001REMMET053LTBU 040650Z /////KT 9999 SCT035 BKN100 01/M02 Q1020;EQDQ01+000000PRSWM2
0090170575999992000010407504+41130+027920FM-15+0173LTBU V02099999999992200019N0050001N1+99999+99999999999ADDMW1001REMMET053LTBU 040750Z /////KT 9999 SCT035 BKN100 02/M02 Q1021;EQDQ01+000000PRSWM2
0090170575999992000010408504+41130+027920FM-15+0173LTBU V02099999999992200019N0100001N1+99999+99999999999ADDMW1001REMMET053LTBU 040850Z /////KT 9999 SCT035 BKN100 02/M02 Q1021;EQDQ01+000000PRSWM2
0184170575999992000010409504+41130+027920FM-15+0173LTBU V0203401N007210270019N0070001N1+00201+00001999999ADDGA1021+009009999GA2071+027009999GF107991999999999999999999MA1102101999999MW1851REMMET058LTBU 040950Z 34014KT 7000 -SHSN SCT030 BKN090 02/00 Q1021;EQDQ01+000003PRSWM1Q02    003PRSWM1
0215170575999992000010410504+41130+027920FM-15+0173LTBU V0203401N007210270019N0050001N1+00101+00001999999ADDGA1021+003609999GA2021+009009999GA3071+027009999GF107991999999999999999999MA1102101999999MW1101MW2861REMMET067LTBU 041050Z 34014KT 5000 SHSN BR FEW012 SCT030 BKN090 01/00 Q1021;EQDQ01+000003PRSWM1Q02    003PRSWM1
0206170575999992000010411504+41130+027920FM-15+0173LTBU V0203401N007210240019N0070001N1+00101+00001999999ADDGA1021+003609999GA2021+009009999GA3071+024009999GF107991999999999999999999MA1102001999999MW1861REMMET064LTBU 041150Z 34014KT 7000 SHSN FEW012 SCT030 BKN080 01/00 Q1020;EQDQ01+000003PRSWM1Q02    003PRSWM1
0212170575999992000010412504+41130+027920FM-15+0173LTBU V0203501N007710240019N0070001N1+00101+00001999999ADDGA1021+003609999GA2021+009009999GA3071+024009999GF107991999999999999999999MA1102001999999MW1851REMMET070LTBU 041250Z 35015KT 7000 -SHSN FEW012 SCT030 BKN080 01/00 Q1020 RESN;EQDQ01+000003PRSWM1Q02    003PRSWM1
0207170575999992000010413504+41130+027920FM-15+0173LTBU V0203501N006210240019N0070001N1+00101+00001999999ADDGA1021+003609999GA2021+009009999GA3071+024009999GF107991999999999999999999MA1102001999999MW1851REMMET065LTBU 041350Z 35012KT 7000 -SHSN FEW012 SCT030 BKN080 01/00 Q1020;EQDQ01+000003PRSWM1Q02    003PRSWM1
0217170575999992000010414504+41130+027920FM-15+0173LTBU V0203501N005110240019N0040001N1-00101-00301999999ADDGA1021+003609999GA2021+009009999GA3071+024009999GF107991999999999999999999MA1102001999999MW1101MW2861REMMET069LTBU 041450Z 35010KT 4000 SHSN BR FEW012 SCT030 BKN080 M01/M03 Q1020;EQDQ01+000003PRSWM1Q02    003PRSWM1
0218170575999992000010416204+41130+027920FM-15+0173LTBU V0203401N006210090019N0050001N1-00101-00301999999ADDGA1021+003609999GA2071+009009999GA3071+024009999GF107991999999999999999999MA1102001999999MW1101MW2851REMMET070LTBU 041620Z 34012KT 5000 -SHSN BR FEW012 BKN030 BKN080 M01/M03 Q1020;EQDQ01+000003PRSWM1Q02    003PRSWM1
0218170575999992000010416504+41130+027920FM-15+0173LTBU V0203301N006210090019N0050001N1-00101-00301999999ADDGA1021+003609999GA2071+009009999GA3071+024009999GF107991999999999999999999MA1102001999999MW1101MW2851REMMET070LTBU 041650Z 33012KT 5000 -SHSN BR FEW012 BKN030 BKN080 M01/M03 Q1020;EQDQ01+000003PRSWM1Q02    003PRSWM1
0187170575999992000010417504+41130+027920FM-15+0173LTBU V0203301N007210090019N0112651N1-00101-00301999999ADDGA1021+004509999GA2071+009009999GA3071+030009999GF107991999999999999999999MA1102101999999MW1001REMMET061LTBU 041750Z 33014KT 9999 FEW015 BKN030 BKN100 M01/M03 Q1021;EQDQ01+000000PRSWM2
0187170575999992000010418504+41130+027920FM-15+0173LTBU V0203401N006210090019N0112651N1-00201-00401999999ADDGA1021+004509999GA2071+009009999GA3071+030009999GF107991999999999999999999MA1102101999999MW1001REMMET061LTBU 041850Z 34012KT 9999 FEW015 BKN030 BKN100 M02/M04 Q1021;EQDQ01+000000PRSWM2
0209170575999992000010419504+41130+027920FM-15+0173LTBU V0203401N005110090019N0050001N1-00201-00401999999ADDGA1021+003609999GA2071+009009999GA3071+027009999GF107991999999999999999999MA1102101999999MW1851REMMET067LTBU 041950Z 34010KT 5000 -SHSN FEW012 BKN030 BKN090 M02/M04 Q1021;EQDQ01+000003PRSWM1Q02    003PRSWM1
0192170575999992000010420504+41130+027920FM-15+0173LTBU V0203501N006210090019N0112651N1-00201-00401999999ADDGA1021+004509999GA2071+009009999GA3071+030009999GF107991999999999999999999MA1102201999999MW1001REMMET066LTBU 042050Z 35012KT 9999 FEW015 BKN030 BKN100 M02/M04 Q1022 RESN;EQDQ01+000000PRSWM2
0187170575999992000010421504+41130+027920FM-15+0173LTBU V0203501N005110090019N0112651N1-00201-00401999999ADDGA1021+004509999GA2071+009009999GA3071+030009999GF107991999999999999999999MA1102201999999MW1001REMMET061LTBU 042150Z 35010KT 9999 FEW015 BKN030 BKN100 M02/M04 Q1022;EQDQ01+000000PRSWM2
0187170575999992000010422504+41130+027920FM-15+0173LTBU V0203501N005110090019N0112651N1-00201-00401999999ADDGA1021+004509999GA2071+009009999GA3071+030009999GF107991999999999999999999MA1102101999999MW1001REMMET061LTBU 042250Z 35010KT 9999 FEW015 BKN030 BKN100 M02/M04 Q1021;EQDQ01+000000PRSWM2
0187170575999992000010500204+41130+027920FM-15+0173LTBU V0200101N006210090019N0112651N1-00201-00401999999ADDGA1021+004509999GA2071+009009999GA3071+030009999GF107991999999999999999999MA1102001999999MW1001REMMET061LTBU 050020Z 01012KT 9999 FEW015 BKN030 BKN100 M02/M04 Q1020;EQDQ01+000000PRSWM2
0187170575999992000010500504+41130+027920FM-15+0173LTBU V0200101N007210090019N0112651N1-00301-00501999999ADDGA1021+004509999GA2071+009009999GA3071+030009999GF107991999999999999999999MA1102001999999MW1001REMMET061LTBU 050050Z 01014KT 9999 FEW015 BKN030 BKN100 M03/M05 Q1020;EQDQ01+000000PRSWM2
0187170575999992000010501504+41130+027920FM-15+0173LTBU V0200201N005710090019N0112651N1-00301-00501999999ADDGA1021+004509999GA2071+009009999GA3071+030009999GF107991999999999999999999MA1101901999999MW1001REMMET061LTBU 050150Z 02011KT 9999 FEW015 BKN030 BKN100 M03/M05 Q1019;EQDQ01+000000PRSWM2
0187170575999992000010502504+41130+027920FM-15+0173LTBU V0203601N005710090019N0112651N1-00301-00501999999ADDGA1021+004509999GA2071+009009999GA3071+030009999GF107991999999999999999999MA1101901999999MW1001REMMET061LTBU 050250Z 36011KT 9999 FEW015 BKN030 BKN100 M03/M05 Q1019;EQDQ01+000000PRSWM2
0164170575999992000010503504+41130+027920FM-15+0173LTBU V0203601N005110090019N0112651N1-00301-00501999999ADDGA1071+009009999GA2071+030009999GF107991999999999999999999MA1101901999999MW1001REMMET054LTBU 050350Z 36010KT 9999 BKN030 BKN100 M03/M05 Q1019;EQDQ01+000000PRSWM2
0164170575999992000010504504+41130+027920FM-15+0173LTBU V0203501N005110090019N0112651N1-00301-00501999999ADDGA1071+009009999GA2071+030009999GF107991999999999999999999MA1101901999999MW1001REMMET054LTBU 050450Z 35010KT 9999 BKN030 BKN100 M03/M05 Q1019;EQDQ01+000000PRSWM2
0164170575999992000010505504+41130+027920FM-15+0173LTBU V0203501N005110090019N0112651N1-00301-00501999999ADDGA1071+009009999GA2071+030009999GF107991999999999999999999MA1101901999999MW1001REMMET054LTBU 050550Z 35010KT 9999 BKN030 BKN100 M03/M05 Q1019;EQDQ01+000000PRSWM2
0164170575999992000010506504+41130+027920FM-15+0173LTBU V0203501N005110090019N0112651N1-00101-00401999999ADDGA1071+009009999GA2071+030009999GF107991999999999999999999MA1102001999999MW1001REMMET054LTBU 050650Z 35010KT 9999 BKN030 BKN100 M01/M04 Q1020;EQDQ01+000000PRSWM2
0163170575999992000010507504+41130+027920FM-15+0173LTBU V0203501N004610090019N0112651N1+00101-00301999999ADDGA1071+009009999GA2071+030009999GF107991999999999999999999MA1102101999999MW1001REMMET053LTBU 050750Z 35009KT 9999 BKN030 BKN100 01/M03 Q1021;EQDQ01+000000PRSWM2
0163170575999992000010508504+41130+027920FM-15+0173LTBU V0203401N006210090019N0112651N1+00201-00201999999ADDGA1071+009009999GA2071+030009999GF107991999999999999999999MA1102101999999MW1001REMMET053LTBU 050850Z 34012KT 9999 BKN030 BKN100 02/M02 Q1021;EQDQ01+000000PRSWM2
0163170575999992000010509504+41130+027920FM-15+0173LTBU V0203401N006210300019N0112651N1+00201-00201999999ADDGA1021+009009999GA2071+030009999GF107991999999999999999999MA1102101999999MW1001REMMET053LTBU 050950Z 34012KT 9999 SCT030 BKN100 02/M02 Q1021;EQDQ01+000000PRSWM2
0163170575999992000010510504+41130+027920FM-15+0173LTBU V0203401N005110300019N0112651N1+00301-00101999999ADDGA1021+009009999GA2071+030009999GF107991999999999999999999MA1102101999999MW1001REMMET053LTBU 051050Z 34010KT 9999 SCT030 BKN100 03/M01 Q1021;EQDQ01+000000PRSWM2
0162170575999992000010511504+41130+027920FM-15+0173LTBU V0200101N005710300019N0112651N1+00401+00001999999ADDGA1021+009009999GA2071+030009999GF107991999999999999999999MA1102001999999MW1001REMMET052LTBU 051150Z 01011KT 9999 SCT030 BKN100 04/00 Q1020;EQDQ01+000000PRSWM2
0163170575999992000010512504+41130+027920FM-15+0173LTBU V0200201N005710300019N0112651N1+00401+00001999999ADDGA1021+009009999GA2071+030009999GF107991999999999999999999MA1102001999999MW1001REMMET053LTBU 051250Z 02011KT 9999 SCT030 BKN100 04/M00 Q1020;EQDQ01+000000PRSWM2
0163170575999992000010513504+41130+027920FM-15+0173LTBU V0200201N005110300019N0112651N1+00401-00101999999ADDGA1021+009009999GA2071+030009999GF107991999999999999999999MA1102001999999MW1001REMMET053LTBU 051350Z 02010KT 9999 SCT030 BKN100 04/M01 Q1020;EQDQ01+000000PRSWM2
0163170575999992000010514504+41130+027920FM-15+0173LTBU V0200201N005110300019N0112651N1+00201-00301999999ADDGA1021+009009999GA2071+030009999GF107991999999999999999999MA1102001999999MW1001REMMET053LTBU 051450Z 02010KT 9999 SCT030 BKN100 02/M03 Q1020;EQDQ01+000000PRSWM2
0163170575999992000010515504+41130+027920FM-15+0173LTBU V0200401N003610300019N0112651N1+00201-00301999999ADDGA1021+009009999GA2071+030009999GF107991999999999999999999MA1102001999999MW1001REMMET053LTBU 051550Z 04007KT 9999 SCT030 BKN100 02/M03 Q1020;EQDQ01+000000PRSWM2
0163170575999992000010516504+41130+027920FM-15+0173LTBU V0200501N003110300019N0112651N1+00201-00301999999ADDGA1021+009009999GA2071+030009999GF107991999999999999999999MA1102101999999MW1001REMMET053LTBU 051650Z 05006KT 9999 SCT030 BKN100 02/M03 Q1021;EQDQ01+000000PRSWM2
0163170575999992000010518204+41130+027920FM-15+0173LTBU V0200201N003110300019N0112651N1+00201-00301999999ADDGA1021+009009999GA2071+030009999GF107991999999999999999999MA1102101999999MW1001REMMET053LTBU 051820Z 02006KT 9999 SCT030 BKN100 02/M03 Q1021;EQDQ01+000000PRSWM2
0163170575999992000010518504+41130+027920FM-15+0173LTBU V0200201N002610300019N0112651N1+00201-00301999999ADDGA1021+009009999GA2071+030009999GF107991999999999999999999MA1102101999999MW1001REMMET053LTBU 051850Z 02005KT 9999 SCT030 BKN100 02/M03 Q1021;EQDQ01+000000PRSWM2
0163170575999992000010520204+41130+027920FM-15+0173LTBU V0200201N003110300019N0112651N1+00201-00301999999ADDGA1021+009009999GA2071+030009999GF107991999999999999999999MA1102101999999MW1001REMMET053LTBU 052020Z 02006KT 9999 SCT030 BKN100 02/M03 Q1021;EQDQ01+000000PRSWM2
0163170575999992000010520504+41130+027920FM-15+0173LTBU V0200201N003110300019N0112651N1+00201-00301999999ADDGA1021+009009999GA2071+030009999GF107991999999999999999999MA1102101999999MW1001REMMET053LTBU 052050Z 02006KT 9999 SCT030 BKN100 02/M03 Q1021;EQDQ01+000000PRSWM2
0163170575999992000010521504+41130+027920FM-15+0173LTBU V0200201N003110300019N0112651N1+00201-00301999999ADDGA1021+009009999GA2071+030009999GF107991999999999999999999MA1102101999999MW1001REMMET053LTBU 052150Z 02006KT 9999 SCT030 BKN100 02/M03 Q1021;EQDQ01+000000PRSWM2
0163170575999992000010607504+41130+027920FM-15+0173LTBU V0203201N006210300019N0112651N1+00201-00301999999ADDGA1021+009009999GA2071+030009999GF107991999999999999999999MA1102101999999MW1001REMMET053LTBU 060750Z 32012KT 9999 SCT030 BKN100 02/M03 Q1021;EQDQ01+000000PRSWM2
0163170575999992000010608504+41130+027920FM-15+0173LTBU V0203201N007210300019N0112651N1+00201-00301999999ADDGA1021+009009999GA2071+030009999GF107991999999999999999999MA1102101999999MW1001REMMET053LTBU 060850Z 32014KT 9999 SCT030 BKN100 02/M03 Q1021;EQDQ01+000000PRSWM2
0163170575999992000010609504+41130+027920FM-15+0173LTBU V0203201N004610300019N0112651N1+00101-00301999999ADDGA1021+009009999GA2081+030009999GF108991999999999999999999MA1102101999999MW1001REMMET053LTBU 060950Z 32009KT 9999 SCT030 OVC100 01/M03 Q1021;EQDQ01+000000PRSWM2
0163170575999992000010610504+41130+027920FM-15+0173LTBU V0203201N003610300019N0112651N1+00101-00301999999ADDGA1021+009009999GA2081+030009999GF108991999999999999999999MA1102001999999MW1001REMMET053LTBU 061050Z 32007KT 9999 SCT030 OVC100 01/M03 Q1020;EQDQ01+000000PRSWM2
0163170575999992000010611504+41130+027920FM-15+0173LTBU V0203001N003610300019N0112651N1+00101-00301999999ADDGA1021+009009999GA2081+030009999GF108991999999999999999999MA1102001999999MW1001REMMET053LTBU 061150Z 30007KT 9999 SCT030 OVC100 01/M03 Q1020;EQDQ01+000000PRSWM2
0163170575999992000010612504+41130+027920FM-15+0173LTBU V0203201N005110300019N0112651N1+00101-00301999999ADDGA1021+009009999GA2081+030009999GF108991999999999999999999MA1102001999999MW1001REMMET053LTBU 061250Z 32010KT 9999 SCT030 OVC100 01/M03 Q1020;EQDQ01+000000PRSWM2
0163170575999992000010613504+41130+027920FM-15+0173LTBU V0203201N003610300019N0112651N1+00101-00301999999ADDGA1021+009009999GA2081+030009999GF108991999999999999999999MA1102001999999MW1001REMMET053LTBU 061350Z 32007KT 9999 SCT030 OVC100 01/M03 Q1020;EQDQ01+000000PRSWM2
0163170575999992000010614504+41130+027920FM-15+0173LTBU V0203101N003110300019N0112651N1+00101-00301999999ADDGA1021+009009999GA2081+030009999GF108991999999999999999999MA1102001999999MW1001REMMET053LTBU 061450Z 31006KT 9999 SCT030 OVC100 01/M03 Q1020;EQDQ01+000000PRSWM2
0163170575999992000010615504+41130+027920FM-15+0173LTBU V0203301N005110300019N0112651N1+00101-00301999999ADDGA1021+009009999GA2081+030009999GF108991999999999999999999MA1102001999999MW1001REMMET053LTBU 061550Z 33010KT 9999 SCT030 OVC100 01/M03 Q1020;EQDQ01+000000PRSWM2
0208170575999992000010616504+41130+027920FM-15+0173LTBU V0203301N005110090019N0080001N1+00101-00201999999ADDGA1021+004509999GA2071+009009999GA3081+030009999GF108991999999999999999999MA1102001999999MW1851REMMET066LTBU 061650Z 33010KT 8000 -SHSN FEW015 BKN030 OVC100 01/M02 Q1020;EQDQ01+000003PRSWM1Q02    003PRSWM1
0163170575999992000010619504+41130+027920FM-15+0173LTBU V0203201N005110300019N0080001N1+00101-00201999999ADDGA1021+009009999GA2081+030009999GF108991999999999999999999MA1102101999999MW1001REMMET053LTBU 061950Z 32010KT 8000 SCT030 OVC100 01/M02 Q1021;EQDQ01+000000PRSWM2
0163170575999992000010620504+41130+027920FM-15+0173LTBU V0203301N005710300019N0112651N1+00101-00201999999ADDGA1021+009009999GA2071+030009999GF107991999999999999999999MA1102101999999MW1001REMMET053LTBU 062050Z 33011KT 9999 SCT030 BKN100 01/M02 Q1021;EQDQ01+000000PRSWM2
0163170575999992000010621504+41130+027920FM-15+0173LTBU V0203401N005710300019N0112651N1+00101-00201999999ADDGA1021+009009999GA2071+030009999GF107991999999999999999999MA1102101999999MW1001REMMET053LTBU 062150Z 34011KT 9999 SCT030 BKN100 01/M02 Q1021;EQDQ01+000000PRSWM2
0163170575999992000010622504+41130+027920FM-15+0173LTBU V0203301N006210300019N0112651N1+00101-00201999999ADDGA1021+009009999GA2071+030009999GF107991999999999999999999MA1102101999999MW1001REMMET053LTBU 062250Z 33012KT 9999 SCT030 BKN100 01/M02 Q1021;EQDQ01+000000PRSWM2
0184170575999992000010700204+41130+027920FM-15+0173LTBU V0203301N005710270019N0080001N1+00001-00301999999ADDGA1021+009009999GA2081+027009999GF108991999999999999999999MA1102101999999MW1861REMMET058LTBU 070020Z 33011KT 8000 SHSN SCT030 OVC090 00/M03 Q1021;EQDQ01+000003PRSWM1Q02    003PRSWM1
0184170575999992000010700504+41130+027920FM-15+0173LTBU V0203401N005710090019N0080001N1+00001-00201999999ADDGA1071+009009999GA2081+027009999GF108991999999999999999999MA1102101999999MW1861REMMET058LTBU 070050Z 34011KT 8000 SHSN BKN030 OVC090 00/M02 Q1021;EQDQ01+000003PRSWM1Q02    003PRSWM1
0185170575999992000010701504+41130+027920FM-15+0173LTBU V0203201N006210090019N0070001N1+00001-00301999999ADDGA1071+009009999GA2081+024009999GF108991999999999999999999MA1102101999999MW1861REMMET059LTBU 070150Z 32012KT 7000 SHSN BKN030 OVC080 M00/M03 Q1021;EQDQ01+000003PRSWM1Q02    003PRSWM1
0184170575999992000010706204+41130+027920FM-15+0173LTBU V0203401N004610090019N0060001N1+00001-00201999999ADDGA1071+009009999GA2081+024009999GF108991999999999999999999MA1102201999999MW1861REMMET058LTBU 070620Z 34009KT 6000 SHSN BKN030 OVC080 00/M02 Q1022;EQDQ01+000003PRSWM1Q02    003PRSWM1
0168170575999992000010706504+41130+027920FM-15+0173LTBU V0203401N004610300019N0080001N1+00101-00201999999ADDGA1021+009009999GA2071+030009999GF107991999999999999999999MA1102201999999MW1001REMMET058LTBU 070650Z 34009KT 8000 SCT030 BKN100 01/M02 Q1022 RESN;EQDQ01+000000PRSWM2
0163170575999992000010707504+41130+027920FM-15+0173LTBU V0203501N005110300019N0112651N1+00101-00201999999ADDGA1021+009009999GA2071+030009999GF107991999999999999999999MA1102201999999MW1001REMMET053LTBU 070750Z 35010KT 9999 SCT030 BKN100 01/M02 Q1022;EQDQ01+000000PRSWM2
0169170575999992000010708504+41130+027920FM-15+0173LTBU V0203401N005110270019N0060001N1+00001-00201999999ADDGA1021+007509999GA2071+027009999GF107991999999999999999999MW1851REMMET058LTBU 070850Z 34010KT 6000 -SHSN SCT025 BKN090 00/M02 Q102;EQDQ01+000003PRSWM1Q02    003PRSWM1
0168170575999992000010709504+41130+027920FM-15+0173LTBU V0203601N006710300019N0112651N1+00001-00201999999ADDGA1021+009009999GA2071+030009999GF107991999999999999999999MA1102401999999MW1001REMMET058LTBU 070950Z 36013KT 9999 SCT030 BKN100 00/M02 Q1024 RESN;EQDQ01+000000PRSWM2
0163170575999992000010710504+41130+027920FM-15+0173LTBU V0203601N005710300019N0112651N1+00101-00201999999ADDGA1021+009009999GA2071+030009999GF107991999999999999999999MA1102511999999MW1001REMMET053LTBU 071050Z 36011KT 9999 SCT030 BKN100 01/M02 Q1025;EQDQ01+000000PRSWM2
0163170575999992000010711504+41130+027920FM-15+0173LTBU V0200201N006210300019N0112651N1+00201-00101999999ADDGA1021+009009999GA2071+030009999GF107991999999999999999999MA1102511999999MW1001REMMET053LTBU 071150Z 02012KT 9999 SCT030 BKN100 02/M01 Q1025;EQDQ01+000000PRSWM2
0163170575999992000010712504+41130+027920FM-15+0173LTBU V0200201N008210300019N0112651N1+00101-00201999999ADDGA1021+009009999GA2071+030009999GF107991999999999999999999MA1102511999999MW1001REMMET053LTBU 071250Z 02016KT 9999 SCT030 BKN100 01/M02 Q1025;EQDQ01+000000PRSWM2
0163170575999992000010713504+41130+027920FM-15+0173LTBU V0203401N007710300019N0112651N1+00101-00201999999ADDGA1021+009009999GA2071+030009999GF107991999999999999999999MA1102511999999MW1001REMMET053LTBU 071350Z 34015KT 9999 SCT030 BKN100 01/M02 Q1025;EQDQ01+000000PRSWM2
0163170575999992000010714504+41130+027920FM-15+0173LTBU V0203401N005710300019N0112651N1+00001-00301999999ADDGA1021+009009999GA2071+030009999GF107991999999999999999999MA1102511999999MW1001REMMET053LTBU 071450Z 34011KT 9999 SCT030 BKN100 00/M03 Q1025;EQDQ01+000000PRSWM2
0163170575999992000010715504+41130+027920FM-15+0173LTBU V0203601N006710300019N0112651N1+00001-00301999999ADDGA1021+009009999GA2071+030009999GF107991999999999999999999MA1102611999999MW1001REMMET053LTBU 071550Z 36013KT 9999 SCT030 BKN100 00/M03 Q1026;EQDQ01+000000PRSWM2
0163170575999992000010716504+41130+027920FM-15+0173LTBU V0203601N007710300019N0112651N1+00101-00201999999ADDGA1021+009009999GA2071+030009999GF107991999999999999999999MA1102511999999MW1001REMMET053LTBU 071650Z 36015KT 9999 SCT030 BKN100 01/M02 Q1025;EQDQ01+000000PRSWM2
0163170575999992000010717504+41130+027920FM-15+0173LTBU V0200201N009310300019N0112651N1+00101-00201999999ADDGA1021+009009999GA2071+030009999GF107991999999999999999999MA1102401999999MW1001REMMET053LTBU 071750Z 02018KT 9999 SCT030 BKN100 01/M02 Q1024;EQDQ01+000000PRSWM2
0163170575999992000010718504+41130+027920FM-15+0173LTBU V0200201N008710300019N0112651N1+00101-00201999999ADDGA1021+009009999GA2071+030009999GF107991999999999999999999MA1102401999999MW1001REMMET053LTBU 071850Z 02017KT 9999 SCT030 BKN100 01/M02 Q1024;EQDQ01+000000PRSWM2
0163170575999992000010719504+41130+027920FM-15+0173LTBU V0200201N008710300019N0112651N1+00101-00201999999ADDGA1021+009009999GA2071+030009999GF107991999999999999999999MA1102301999999MW1001REMMET053LTBU 071950Z 02017KT 9999 SCT030 BKN100 01/M02 Q1023;EQDQ01+000000PRSWM2
0163170575999992000010720504+41130+027920FM-15+0173LTBU V0200201N007210300019N0112651N1+00101-00201999999ADDGA1021+009009999GA2071+030009999GF107991999999999999999999MA1102301999999MW1001REMMET053LTBU 072050Z 02014KT 9999 SCT030 BKN100 01/M02 Q1023;EQDQ01+000000PRSWM2
0163170575999992000010721504+41130+027920FM-15+0173LTBU V0203601N007210300019N0112651N1+00001-00301999999ADDGA1021+009009999GA2071+030009999GF107991999999999999999999MA1102301999999MW1001REMMET053LTBU 072150Z 36014KT 9999 SCT030 BKN100 00/M03 Q1023;EQDQ01+000000PRSWM2
0163170575999992000010722504+41130+027920FM-15+0173LTBU V0203601N007210300019N0112651N1+00001-00301999999ADDGA1021+009009999GA2071+030009999GF107991999999999999999999MA1102201999999MW1001REMMET053LTBU 072250Z 36014KT 9999 SCT030 BKN100 00/M03 Q1022;EQDQ01+000000PRSWM2
0174170575999992000010800204+41130+027920FM-15+0173LTBU V0203501N010310300019N0112651N1+00001-00301999999ADDGA1021+009009999GA2071+030009999GF107991999999999999999999MA1102201999999MW1001OC101541REMMET056LTBU 080020Z 35020G30KT 9999 SCT030 BKN100 00/M03 Q1022;EQDQ01+000000PRSWM2
0163170575999992000010800504+41130+027920FM-15+0173LTBU V0200201N010810300019N0112651N1+00001-00301999999ADDGA1021+009009999GA2071+030009999GF107991999999999999999999MA1102201999999MW1001REMMET053LTBU 080050Z 02021KT 9999 SCT030 BKN100 00/M03 Q1022;EQDQ01+000000PRSWM2
0163170575999992000010801504+41130+027920FM-15+0173LTBU V0200201N010810300019N0112651N1+00001-00301999999ADDGA1021+009009999GA2071+030009999GF107991999999999999999999MA1102201999999MW1001REMMET053LTBU 080150Z 02021KT 9999 SCT030 BKN100 00/M03 Q1022;EQDQ01+000000PRSWM2
0174170575999992000010802504+41130+027920FM-15+0173LTBU V0200201N011310300019N0112651N1+00001-00301999999ADDGA1021+009009999GA2071+030009999GF107991999999999999999999MA1102201999999MW1001OC101651REMMET056LTBU 080250Z 02022G32KT 9999 SCT030 BKN100 00/M03 Q1022;EQDQ01+000000PRSWM2
0163170575999992000010805504+41130+027920FM-15+0173LTBU V0203601N006710300019N0112651N1+00101-00201999999ADDGA1021+009009999GA2071+030009999GF107991999999999999999999MA1102201999999MW1001REMMET053LTBU 080650Z 36013KT 9999 SCT030 BKN100 01/M02 Q1022;EQDQ01+000000PRSWM2
0163170575999992000010806504+41130+027920FM-15+0173LTBU V0203601N006710300019N0112651N1+00101-00201999999ADDGA1021+009009999GA2071+030009999GF107991999999999999999999MA1102201999999MW1001REMMET053LTBU 080650Z 36013KT 9999 SCT030 BKN100 01/M02 Q1022;EQDQ01+000000PRSWM2
0174170575999992000010807504+41130+027920FM-15+0173LTBU V0203301N007710300019N0112651N1+00101-00201999999ADDGA1021+009009999GA2071+030009999GF107991999999999999999999MA1102201999999MW1001OC101651REMMET056LTBU 080750Z 33015G32KT 9999 SCT030 BKN100 01/M02 Q1022;EQDQ01+000000PRSWM2
0162170575999992000010808504+41130+027920FM-15+0173LTBU V0203301N008210300019N0112651N1+00301+00101999999ADDGA1021+009009999GA2071+030009999GF107991999999999999999999MA1102201999999MW1001REMMET052LTBU 080850Z 33016KT 9999 SCT030 BKN100 03/01 Q1022;EQDQ01+000000PRSWM2
0162170575999992000010809504+41130+027920FM-15+0173LTBU V0203601N007710300019N0112651N1+00501+00201999999ADDGA1021+009009999GA2071+030009999GF107991999999999999999999MA1102201999999MW1001REMMET052LTBU 081050Z 36015KT 9999 SCT030 BKN100 05/02 Q1022;EQDQ01+000000PRSWM2
0162170575999992000010810504+41130+027920FM-15+0173LTBU V0203601N007710300019N0112651N1+00501+00201999999ADDGA1021+009009999GA2071+030009999GF107991999999999999999999MA1102201999999MW1001REMMET052LTBU 081050Z 36015KT 9999 SCT030 BKN100 05/02 Q1022;EQDQ01+000000PRSWM2
0162170575999992000010811504+41130+027920FM-15+0173LTBU V0203601N008210300019N0112651N1+00501+00201999999ADDGA1021+009009999GA2071+030009999GF107991999999999999999999MA1102201999999MW1001REMMET052LTBU 081150Z 36016KT 9999 SCT030 BKN100 05/02 Q1022;EQDQ01+000000PRSWM2
0162170575999992000010812504+41130+027920FM-15+0173LTBU V0203601N008210300019N0112651N1+00501+00201999999ADDGA1021+009009999GA2071+030009999GF107991999999999999999999MA1102201999999MW1001REMMET052LTBU 081250Z 36016KT 9999 SCT030 BKN100 05/02 Q1022;EQDQ01+000000PRSWM2
0162170575999992000010813504+41130+027920FM-15+0173LTBU V0203401N006710300019N0112651N1+00501+00201999999ADDGA1021+009009999GA2071+030009999GF107991999999999999999999MA1102201999999MW1001REMMET052LTBU 081350Z 34013KT 9999 SCT030 BKN100 05/02 Q1022;EQDQ01+000000PRSWM2
0162170575999992000010814504+41130+027920FM-15+0173LTBU V0203301N006210300019N0112651N1+00401+00201999999ADDGA1021+009009999GA2071+030009999GF107991999999999999999999MA1102201999999MW1001REMMET052LTBU 081450Z 33012KT 9999 SCT030 BKN100 04/02 Q1022;EQDQ01+000000PRSWM2
0162170575999992000010815504+41130+027920FM-15+0173LTBU V0203501N006210300019N0112651N1+00401+00201999999ADDGA1021+009009999GA2071+030009999GF107991999999999999999999MA1102201999999MW1001REMMET052LTBU 081550Z 35012KT 9999 SCT030 BKN100 04/02 Q1022;EQDQ01+000000PRSWM2
0162170575999992000010816504+41130+027920FM-15+0173LTBU V0203601N005710300019N0112651N1+00301+00101999999ADDGA1021+009009999GA2071+030009999GF107991999999999999999999MA1102201999999MW1001REMMET052LTBU 081650Z 36011KT 9999 SCT030 BKN100 03/01 Q1022;EQDQ01+000000PRSWM2
0163170575999992000010817504+41130+027920FM-15+0173LTBU V0203401N006210300019N0112651N1+00201+00001999999ADDGA1021+009009999GA2071+030009999GF107991999999999999999999MA1102401999999MW1001REMMET053LTBU 081750Z 34012KT 9999 SCT030 BKN100 02/M00 Q1024;EQDQ01+000000PRSWM2
0163170575999992000010818504+41130+027920FM-15+0173LTBU V0203601N007710300019N0112651N1+00101-00201999999ADDGA1021+009009999GA2071+030009999GF107991999999999999999999MA1102401999999MW1001REMMET053LTBU 081850Z 36015KT 9999 SCT030 BKN100 01/M02 Q1024;EQDQ01+000000PRSWM2
0163170575999992000010819504+41130+027920FM-15+0173LTBU V0203601N007710300019N0112651N1+00101-00201999999ADDGA1021+009009999GA2071+030009999GF107991999999999999999999MA1102511999999MW1001REMMET053LTBU 081950Z 36015KT 9999 SCT030 BKN100 01/M02 Q1025;EQDQ01+000000PRSWM2
0163170575999992000010820504+41130+027920FM-15+0173LTBU V0203601N007210300019N0112651N1+00101-00201999999ADDGA1021+009009999GA2071+030009999GF107991999999999999999999MA1102611999999MW1001REMMET053LTBU 082050Z 36014KT 9999 SCT030 BKN100 01/M02 Q1026;EQDQ01+000000PRSWM2
0163170575999992000010821504+41130+027920FM-15+0173LTBU V0203601N006710300019N0112651N1+00001-00301999999ADDGA1021+009009999GA2071+030009999GF107991999999999999999999MA1102611999999MW1001REMMET053LTBU 082150Z 36013KT 9999 SCT030 BKN100 00/M03 Q1026;EQDQ01+000000PRSWM2
0164170575999992000010822504+41130+027920FM-15+0173LTBU V0203601N007210300019N0112651N1-00101-00401999999ADDGA1021+009009999GA2071+030009999GF107991999999999999999999MA1102611999999MW1001REMMET054LTBU 082250Z 36014KT 9999 SCT030 BKN100 M01/M04 Q1026;EQDQ01+000000PRSWM2
0164170575999992000010823504+41130+027920FM-15+0173LTBU V0203601N007710300019N0112651N1-00101-00401999999ADDGA1021+009009999GA2071+030009999GF107991999999999999999999MA1102611999999MW1001REMMET054LTBU 082350Z 36015KT 9999 SCT030 BKN100 M01/M04 Q1026;EQDQ01+000000PRSWM2
0164170575999992000010900504+41130+027920FM-15+0173LTBU V0203601N007210300019N0112651N1-00101-00401999999ADDGA1021+009009999GA2071+030009999GF107991999999999999999999MA1102511999999MW1001REMMET054LTBU 090050Z 36014KT 9999 SCT030 BKN100 M01/M04 Q1025;EQDQ01+000000PRSWM2
0164170575999992000010901504+41130+027920FM-15+0173LTBU V0203601N007210300019N0112651N1-00201-00501999999ADDGA1021+009009999GA2071+030009999GF107991999999999999999999MA1102511999999MW1001REMMET054LTBU 090150Z 36014KT 9999 SCT030 BKN100 M02/M05 Q1025;EQDQ01+000000PRSWM2
0164170575999992000010902504+41130+027920FM-15+0173LTBU V0200101N007710300019N0112651N1-00201-00501999999ADDGA1021+009009999GA2071+030009999GF107991999999999999999999MA1102611999999MW1001REMMET054LTBU 090250Z 01015KT 9999 SCT030 BKN100 M02/M05 Q1026;EQDQ01+000000PRSWM2
0164170575999992000010903504+41130+027920FM-15+0173LTBU V0203601N007710300019N0112651N1-00201-00501999999ADDGA1021+009009999GA2071+030009999GF107991999999999999999999MA1102611999999MW1001REMMET054LTBU 090350Z 36015KT 9999 SCT030 BKN100 M02/M05 Q1026;EQDQ01+000000PRSWM2
0164170575999992000010904504+41130+027920FM-15+0173LTBU V0203601N007210300019N0112651N1-00201-00501999999ADDGA1021+009009999GA2071+030009999GF107991999999999999999999MA1102611999999MW1001REMMET054LTBU 090450Z 36014KT 9999 SCT030 BKN100 M02/M05 Q1026;EQDQ01+000000PRSWM2
0163170575999992000010906504+41130+027920FM-15+0173LTBU V0203601N005710300019N0112651N1+00001-00301999999ADDGA1021+009009999GA2071+030009999GF107991999999999999999999MA1102611999999MW1001REMMET053LTBU 090650Z 36011KT 9999 SCT030 BKN100 00/M03 Q1026;EQDQ01+000000PRSWM2
0163170575999992000010907504+41130+027920FM-15+0173LTBU V0200201N007210300019N0112651N1+00101-00201999999ADDGA1021+009009999GA2071+030009999GF107991999999999999999999MA1102611999999MW1001REMMET053LTBU 090750Z 02014KT 9999 SCT030 BKN100 01/M02 Q1026;EQDQ01+000000PRSWM2
0163170575999992000010908504+41130+027920FM-15+0173LTBU V0200201N007710300019N0112651N1+00101-00201999999ADDGA1021+009009999GA2071+030009999GF107991999999999999999999MA1102611999999MW1001REMMET053LTBU 090850Z 02015KT 9999 SCT030 BKN100 01/M02 Q1026;EQDQ01+000000PRSWM2
0163170575999992000010910204+41130+027920FM-15+0173LTBU V0203601N006710300019N0112651N1+00201-00101999999ADDGA1021+009009999GA2071+030009999GF107991999999999999999999MA1102611999999MW1001REMMET053LTBU 091020Z 36013KT 9999 SCT030 BKN100 02/M01 Q1026;EQDQ01+000000PRSWM2
0163170575999992000010910504+41130+027920FM-15+0173LTBU V0200101N007710300019N0112651N1+00201-00101999999ADDGA1021+009009999GA2071+030009999GF107991999999999999999999MA1102611999999MW1001REMMET053LTBU 091050Z 01015KT 9999 SCT030 BKN100 02/M01 Q1026;EQDQ01+000000PRSWM2
0183170575999992000010911504+41130+027920FM-15+0173LTBU V0200201N009310270019N0112651N1+00301+00101999999ADDGA1021+009009999GA2071+027009999GF107991999999999999999999MA1102611999999MW1811REMMET057LTBU 091150Z 02018KT 9999 SHRA SCT030 BKN090 03/01 Q1026;EQDQ01+000003PRSWM1Q02    003PRSWM1
0189170575999992000010912504+41130+027920FM-15+0173LTBU V0203601N008210270019N0112651N1+00301+00101999999ADDGA1021+009009999GA2071+027009999GF107991999999999999999999MA1102611999999MW1801REMMET063LTBU 091250Z 36016KT 9999 -SHRA SCT030 BKN090 03/01 Q1026 RERA;EQDQ01+000003PRSWM1Q02    003PRSWM1
0162170575999992000010913504+41130+027920FM-15+0173LTBU V0203501N007710090019N0112651N1+00301+00101999999ADDGA1071+009009999GA2071+030009999GF107991999999999999999999MA1102611999999MW1001REMMET052LTBU 091350Z 35015KT 9999 BKN030 BKN100 03/01 Q1026;EQDQ01+000000PRSWM2
0162170575999992000010914504+41130+027920FM-15+0173LTBU V0203601N008710300019N0112651N1+00301+00001999999ADDGA1021+009009999GA2071+030009999GF107991999999999999999999MA1102611999999MW1001REMMET052LTBU 091450Z 36017KT 9999 SCT030 BKN100 03/00 Q1026;EQDQ01+000000PRSWM2
0163170575999992000010915504+41130+027920FM-15+0173LTBU V0203601N006710300019N0112651N1+00201-00101999999ADDGA1021+009009999GA2071+030009999GF107991999999999999999999MA1102611999999MW1001REMMET053LTBU 091550Z 36013KT 9999 SCT030 BKN100 02/M01 Q1026;EQDQ01+000000PRSWM2
0163170575999992000010916504+41130+027920FM-15+0173LTBU V0203601N006210300019N0112651N1+00201-00101999999ADDGA1021+009009999GA2071+030009999GF107991999999999999999999MA1102611999999MW1001REMMET053LTBU 091650Z 36012KT 9999 SCT030 BKN100 02/M01 Q1026;EQDQ01+000000PRSWM2
0163170575999992000010917504+41130+027920FM-15+0173LTBU V0203401N005110300019N0112651N1+00201-00101999999ADDGA1021+009009999GA2071+030009999GF107991999999999999999999MA1102611999999MW1001REMMET053LTBU 091750Z 34010KT 9999 SCT030 BKN100 02/M01 Q1026;EQDQ01+000000PRSWM2
0163170575999992000010918504+41130+027920FM-15+0173LTBU V0200201N006210300019N0112651N1+00201-00101999999ADDGA1021+009009999GA2071+030009999GF107991999999999999999999MA1102711999999MW1001REMMET053LTBU 091850Z 02012KT 9999 SCT030 BKN100 02/M01 Q1027;EQDQ01+000000PRSWM2
0163170575999992000010919504+41130+027920FM-15+0173LTBU V0203601N006210300019N0112651N1+00101-00101999999ADDGA1021+009009999GA2071+030009999GF107991999999999999999999MA1102711999999MW1001REMMET053LTBU 091950Z 36012KT 9999 SCT030 BKN100 01/M01 Q1027;EQDQ01+000000PRSWM2
0163170575999992000010920504+41130+027920FM-15+0173LTBU V0200201N007210300019N0112651N1+00101-00101999999ADDGA1021+009009999GA2071+030009999GF107991999999999999999999MA1102711999999MW1001REMMET053LTBU 092050Z 02014KT 9999 SCT030 BKN100 01/M01 Q1027;EQDQ01+000000PRSWM2
0163170575999992000010922204+41130+027920FM-15+0173LTBU V0200301N007210300019N0112651N1+00101-00201999999ADDGA1021+009009999GA2071+030009999GF107991999999999999999999MA1102711999999MW1001REMMET053LTBU 092220Z 03014KT 9999 SCT030 BKN100 01/M02 Q1027;EQDQ01+000000PRSWM2
0092170575999992000011004204+41130+027920FM-15+0173LTBU V0203001N00261220001CN0099001N1+00101-00301999999ADDMA1102811999999MW1001REMMET040LTBU 100420Z 30005KT CAVOK 01/M03 Q1028;EQDQ01+000000PRSWM2
0163170575999992000011004504+41130+027920FM-15+0173LTBU V0203001N002612200019N0112651N1+00101-00301999999ADDGA1021+009009999GA2021+030009999GF104991999999999999999999MA1102811999999MW1001REMMET053LTBU 100450Z 30005KT 9999 FEW030 SCT100 01/M03 Q1028;EQDQ01+000000PRSWM2
0163170575999992000011005504+41130+027920FM-15+0173LTBU V0203201N004112200019N0112651N1+00101-00301999999ADDGA1021+009009999GA2021+030009999GF104991999999999999999999MA1102911999999MW1001REMMET053LTBU 100550Z 32008KT 9999 FEW030 SCT100 01/M03 Q1029;EQDQ01+000000PRSWM2
0163170575999992000011006504+41130+027920FM-15+0173LTBU V0203301N002610300019N0112651N1+00101-00201999999ADDGA1021+009009999GA2071+030009999GF107991999999999999999999MA1103011999999MW1001REMMET053LTBU 100650Z 33005KT 9999 SCT030 BKN100 01/M02 Q1030;EQDQ01+000000PRSWM2
0163170575999992000011007504+41130+027920FM-15+0173LTBU V0200101N002610300019N0112651N1+00101-00201999999ADDGA1021+009009999GA2071+030009999GF107991999999999999999999MA1102911999999MW1001REMMET053LTBU 100750Z 01005KT 9999 SCT030 BKN100 01/M02 Q1029;EQDQ01+000000PRSWM2
0163170575999992000011008504+41130+027920FM-15+0173LTBU V0200301N004610300019N0112651N1+00201-00301999999ADDGA1021+009009999GA2071+030009999GF107991999999999999999999MA1102911999999MW1001REMMET053LTBU 100850Z 03009KT 9999 SCT030 BKN100 02/M03 Q1029;EQDQ01+000000PRSWM2
0162170575999992000011009504+41130+027920FM-15+0173LTBU V0200401N002610300019N0112651N1+00501+00101999999ADDGA1021+010509999GA2071+030009999GF107991999999999999999999MA1102911999999MW1001REMMET052LTBU 100950Z 04005KT 9999 SCT035 BKN100 05/01 Q1029;EQDQ01+000000PRSWM2
0162170575999992000011010504+41130+027920FM-15+0173LTBU V0203601N002610300019N0112651N1+00501+00001999999ADDGA1021+010509999GA2071+030009999GF107991999999999999999999MA1102911999999MW1001REMMET052LTBU 101050Z 36005KT 9999 SCT035 BKN100 05/00 Q1029;EQDQ01+000000PRSWM2
0162170575999992000011011504+41130+027920FM-15+0173LTBU V0200201N003110300019N0112651N1+00501+00001999999ADDGA1021+010509999GA2071+030009999GF107991999999999999999999MA1102911999999MW1001REMMET052LTBU 101150Z 02006KT 9999 SCT035 BKN100 05/00 Q1029;EQDQ01+000000PRSWM2
0139170575999992000011012504+41130+027920FM-15+0173LTBU V02099999999992200019N0112651N1+00501+00001999999ADDGA1021+009009999GF104991999999999999999999MA1102911999999MW1001REMMET045LTBU 101250Z VRB03KT 9999 SCT030 05/00 Q1029;EQDQ01+000000PRSWM2
0162170575999992000011014204+41130+027920FM-15+0173LTBU V0200901N003610300019N0112651N1+00601+00201999999ADDGA1021+009009999GA2071+030009999GF107991999999999999999999MA1102911999999MW1001REMMET052LTBU 101420Z 09007KT 9999 SCT030 BKN100 06/02 Q1029;EQDQ01+000000PRSWM2
0162170575999992000011014504+41130+027920FM-15+0173LTBU V0200801N004610300019N0112651N1+00601+00201999999ADDGA1021+009009999GA2071+030009999GF107991999999999999999999MA1102911999999MW1001REMMET052LTBU 101450Z 08009KT 9999 SCT030 BKN100 06/02 Q1029;EQDQ01+000000PRSWM2
0162170575999992000011015504+41130+027920FM-15+0173LTBU V0200701N002610300019N0112651N1+00501+00001999999ADDGA1021+009009999GA2071+030009999GF107991999999999999999999MA1102911999999MW1001REMMET052LTBU 101550Z 07005KT 9999 SCT030 BKN100 05/00 Q1029;EQDQ01+000000PRSWM2
0162170575999992000011016504+41130+027920FM-15+0173LTBU V0200701N002110300019N0112651N1+00501+00101999999ADDGA1021+009009999GA2071+030009999GF107991999999999999999999MA1102911999999MW1001REMMET052LTBU 101650Z 07004KT 9999 SCT030 BKN100 05/01 Q1029;EQDQ01+000000PRSWM2
0162170575999992000011017504+41130+027920FM-15+0173LTBU V0200601N002110300019N0112651N1+00501+00101999999ADDGA1021+009009999GA2071+030009999GF107991999999999999999999MA1102911999999MW1001REMMET052LTBU 101750Z 06004KT 9999 SCT030 BKN100 05/01 Q1029;EQDQ01+000000PRSWM2
0162170575999992000011018504+41130+027920FM-15+0173LTBU V0200401N003610300019N0112651N1+00401+00101999999ADDGA1021+009009999GA2071+030009999GF107991999999999999999999MA1102911999999MW1001REMMET052LTBU 101850Z 04007KT 9999 SCT030 BKN100 04/01 Q1029;EQDQ01+000000PRSWM2
0162170575999992000011019504+41130+027920FM-15+0173LTBU V0200601N003610300019N0112651N1+00401+00101999999ADDGA1021+009009999GA2071+030009999GF107991999999999999999999MA1103011999999MW1001REMMET052LTBU 101950Z 06007KT 9999 SCT030 BKN100 04/01 Q1030;EQDQ01+000000PRSWM2
0162170575999992000011020504+41130+027920FM-15+0173LTBU V0200501N004610300019N0112651N1+00401+00101999999ADDGA1021+009009999GA2071+030009999GF107991999999999999999999MA1103011999999MW1001REMMET052LTBU 102050Z 05009KT 9999 SCT030 BKN100 04/01 Q1030;EQDQ01+000000PRSWM2
0162170575999992000011021504+41130+027920FM-15+0173LTBU V0200301N003110300019N0112651N1+00401+00101999999ADDGA1021+009009999GA2071+030009999GF107991999999999999999999MA1103011999999MW1001REMMET052LTBU 102150Z 03006KT 9999 SCT030 BKN100 04/01 Q1030;EQDQ01+000000PRSWM2
0162170575999992000011022504+41130+027920FM-15+0173LTBU V0200301N002610300019N0112651N1+00401+00101999999ADDGA1021+009009999GA2071+030009999GF107991999999999999999999MA1103011999999MW1001REMMET052LTBU 102250Z 03005KT 9999 SCT030 BKN100 04/01 Q1030;EQDQ01+000000PRSWM2
0204170575999992000011107204+41130+027920FM-15+0173LTBU V0200201N007210300019N0050001N1+00301+00101999999ADDGA1021+003609999GA2021+009009999GA3081+030009999GF108991999999999999999999MA1103181999999MW1101REMMET062LTBU 110720Z 02014KT 5000 BR FEW012 SCT030 OVC100 03/01 Q1032;EQDQ01+000003PRSWM1Q02    003PRSWM1
0185170575999992000011107504+41130+027920FM-15+0173LTBU V0200301N008210300019N0080001N1+00301+00101999999ADDGA1021+005109999GA2021+009009999GA3081+030009999GF108991999999999999999999MA1103181999999MW1001REMMET059LTBU 110750Z 03016KT 8000 FEW017 SCT030 OVC100 03/01 Q1032;EQDQ01+000000PRSWM2
0162170575999992000011108504+41130+027920FM-15+0173LTBU V0200401N008210300019N0080001N1+00301+00101999999ADDGA1021+009009999GA2081+030009999GF108991999999999999999999MA1103181999999MW1001REMMET052LTBU 110850Z 04016KT 8000 SCT030 OVC100 03/01 Q1032;EQDQ01+000000PRSWM2
0162170575999992000011109504+41130+027920FM-15+0173LTBU V0200301N008210300019N0080001N1+00301+00101999999ADDGA1021+009009999GA2081+030009999GF108991999999999999999999MA1103181999999MW1001REMMET052LTBU 110950Z 03016KT 8000 SCT030 OVC100 03/01 Q1032;EQDQ01+000000PRSWM2
0162170575999992000011110504+41130+027920FM-15+0173LTBU V0200301N008210300019N0080001N1+00401+00201999999ADDGA1021+009009999GA2081+030009999GF108991999999999999999999MA1103291999999MW1001REMMET052LTBU 111050Z 03016KT 8000 SCT030 OVC100 04/02 Q1033;EQDQ01+000000PRSWM2
0162170575999992000011111504+41130+027920FM-15+0173LTBU V0200401N007210300019N0060001N1+00401+00201999999ADDGA1021+009009999GA2081+030009999GF108991999999999999999999MA1103181999999MW1001REMMET052LTBU 111150Z 04014KT 6000 SCT030 OVC100 04/02 Q1032;EQDQ01+000000PRSWM2
0162170575999992000011112504+41130+027920FM-15+0173LTBU V0200401N007710300019N0060001N1+00401+00201999999ADDGA1021+009009999GA2081+030009999GF108991999999999999999999MA1103181999999MW1001REMMET052LTBU 111250Z 04015KT 6000 SCT030 OVC100 04/02 Q1032;EQDQ01+000000PRSWM2
0162170575999992000011113504+41130+027920FM-15+0173LTBU V0200501N008210300019N0060001N1+00301+00101999999ADDGA1021+009009999GA2081+030009999GF108991999999999999999999MA1103291999999MW1001REMMET052LTBU 111350Z 05016KT 6000 SCT030 OVC100 03/01 Q1033;EQDQ01+000000PRSWM2
0162170575999992000011114504+41130+027920FM-15+0173LTBU V0200301N008210300019N0060001N1+00301+00101999999ADDGA1021+009009999GA2081+030009999GF108991999999999999999999MA1103181999999MW1001REMMET052LTBU 111450Z 03016KT 6000 SCT030 OVC100 03/01 Q1032;EQDQ01+000000PRSWM2
0162170575999992000011115504+41130+027920FM-15+0173LTBU V0200301N008210300019N0060001N1+00201+00001999999ADDGA1021+009009999GA2081+030009999GF108991999999999999999999MA1103181999999MW1001REMMET052LTBU 111550Z 03016KT 6000 SCT030 OVC100 02/00 Q1032;EQDQ01+000000PRSWM2
0162170575999992000011116504+41130+027920FM-15+0173LTBU V0200201N008710300019N0060001N1+00201+00001999999ADDGA1021+009009999GA2081+030009999GF108991999999999999999999MA1103181999999MW1001REMMET052LTBU 111650Z 02017KT 6000 SCT030 OVC100 02/00 Q1032;EQDQ01+000000PRSWM2
0163170575999992000011117504+41130+027920FM-15+0173LTBU V0200301N006710300019N0070001N1+00101-00101999999ADDGA1021+009009999GA2081+030009999GF108991999999999999999999MA1103291999999MW1001REMMET053LTBU 111750Z 03013KT 7000 SCT030 OVC100 01/M01 Q1033;EQDQ01+000000PRSWM2
0163170575999992000011118504+41130+027920FM-15+0173LTBU V0200301N006710300019N0070001N1+00101-00101999999ADDGA1021+009009999GA2081+030009999GF108991999999999999999999MA1103291999999MW1001REMMET053LTBU 111850Z 03013KT 7000 SCT030 OVC100 01/M01 Q1033;EQDQ01+000000PRSWM2
0163170575999992000011119504+41130+027920FM-15+0173LTBU V0200201N005110300019N0070001N1+00101-00101999999ADDGA1021+009009999GA2081+030009999GF108991999999999999999999MA1103291999999MW1001REMMET053LTBU 111950Z 02010KT 7000 SCT030 OVC100 01/M01 Q1033;EQDQ01+000000PRSWM2
0163170575999992000011120504+41130+027920FM-15+0173LTBU V0200301N005110300019N0070001N1+00101-00101999999ADDGA1021+009009999GA2081+030009999GF108991999999999999999999MA1103291999999MW1001REMMET053LTBU 112050Z 03010KT 7000 SCT030 OVC100 01/M01 Q1033;EQDQ01+000000PRSWM2
0162170575999992000011121504+41130+027920FM-15+0173LTBU V0200301N005110300019N0070001N1+00201+00001999999ADDGA1021+009009999GA2081+030009999GF108991999999999999999999MA1103291999999MW1001REMMET052LTBU 112150Z 03010KT 7000 SCT030 OVC100 02/00 Q1033;EQDQ01+000000PRSWM2
0162170575999992000011122504+41130+027920FM-15+0173LTBU V0200301N007710300019N0070001N1+00201+00001999999ADDGA1021+009009999GA2081+030009999GF108991999999999999999999MA1103291999999MW1001REMMET052LTBU 112250Z 03015KT 7000 SCT030 OVC100 02/00 Q1033;EQDQ01+000000PRSWM2
0162170575999992000011200204+41130+027920FM-15+0173LTBU V0200101N005710300019N0070001N1+00201+00001999999ADDGA1021+009009999GA2081+030009999GF108991999999999999999999MA1103291999999MW1001REMMET052LTBU 120020Z 01011KT 7000 SCT030 OVC100 02/00 Q1033;EQDQ01+000000PRSWM2
0162170575999992000011200504+41130+027920FM-15+0173LTBU V0203601N007210300019N0070001N1+00201+00001999999ADDGA1021+009009999GA2081+030009999GF108991999999999999999999MA1103291999999MW1001REMMET052LTBU 120050Z 36014KT 7000 SCT030 OVC100 02/00 Q1033;EQDQ01+000000PRSWM2
0162170575999992000011201504+41130+027920FM-15+0173LTBU V0203601N007210300019N0080001N1+00201+00001999999ADDGA1021+009009999GA2081+030009999GF108991999999999999999999MA1103291999999MW1001REMMET052LTBU 120150Z 36014KT 8000 SCT030 OVC100 02/00 Q1033;EQDQ01+000000PRSWM2
0163170575999992000011202504+41130+027920FM-15+0173LTBU V0203601N007210300019N0080001N1+00101-00101999999ADDGA1021+009009999GA2071+030009999GF107991999999999999999999MA1103291999999MW1001REMMET053LTBU 120250Z 36014KT 8000 SCT030 BKN100 01/M01 Q1033;EQDQ01+000000PRSWM2
0163170575999992000011203504+41130+027920FM-15+0173LTBU V0203601N005710300019N0080001N1+00101-00101999999ADDGA1021+009009999GA2071+030009999GF107991999999999999999999MA1103291999999MW1001REMMET053LTBU 120350Z 36011KT 8000 SCT030 BKN100 01/M01 Q1033;EQDQ01+000000PRSWM2
0163170575999992000011204504+41130+027920FM-15+0173LTBU V0200101N006210300019N0080001N1+00001-00201999999ADDGA1021+009009999GA2071+030009999GF107991999999999999999999MA1103291999999MW1001REMMET053LTBU 120450Z 01012KT 8000 SCT030 BKN100 00/M02 Q1033;EQDQ01+000000PRSWM2
0163170575999992000011205504+41130+027920FM-15+0173LTBU V0200101N006710300019N0060001N1+00101-00101999999ADDGA1021+009009999GA2071+030009999GF107991999999999999999999MA1103291999999MW1001REMMET053LTBU 120550Z 01013KT 6000 SCT030 BKN100 01/M01 Q1033;EQDQ01+000000PRSWM2
0162170575999992000011206504+41130+027920FM-15+0173LTBU V0203501N005710300019N0060001N1+00201+00001999999ADDGA1021+009009999GA2071+030009999GF107991999999999999999999MA1103291999999MW1001REMMET052LTBU 120650Z 35011KT 6000 SCT030 BKN100 02/00 Q1033;EQDQ01+000000PRSWM2
0162170575999992000011207504+41130+027920FM-15+0173LTBU V0200201N008210300019N0060001N1+00201+00001999999ADDGA1021+009009999GA2071+030009999GF107991999999999999999999MA1103391999999MW1001REMMET052LTBU 120750Z 02016KT 6000 SCT030 BKN100 02/00 Q1034;EQDQ01+000000PRSWM2
0162170575999992000011208504+41130+027920FM-15+0173LTBU V0200201N008710300019N0070001N1+00201+00001999999ADDGA1021+009009999GA2071+030009999GF107991999999999999999999MA1103391999999MW1001REMMET052LTBU 120850Z 02017KT 7000 SCT030 BKN100 02/00 Q1034;EQDQ01+000000PRSWM2
0163170575999992000011216504+41130+027920FM-15+0173LTBU V0200301N008710300019N0080001N1+00101-00201999999ADDGA1021+009009999GA2071+030009999GF107991999999999999999999MA1103291999999MW1001REMMET053LTBU 121650Z 03017KT 8000 SCT030 BKN100 01/M02 Q1033;EQDQ01+000000PRSWM2
0163170575999992000011217504+41130+027920FM-15+0173LTBU V0200301N008210300019N0080001N1+00101-00201999999ADDGA1021+009009999GA2071+030009999GF107991999999999999999999MA1103291999999MW1001REMMET053LTBU 121750Z 03016KT 8000 SCT030 BKN100 01/M02 Q1033;EQDQ01+000000PRSWM2
0163170575999992000011218504+41130+027920FM-15+0173LTBU V0200401N009810300019N0080001N1+00001-00301999999ADDGA1021+009009999GA2071+030009999GF107991999999999999999999MA1103391999999MW1001REMMET053LTBU 121850Z 04019KT 8000 SCT030 BKN100 00/M03 Q1034;EQDQ01+000000PRSWM2
0163170575999992000011219504+41130+027920FM-15+0173LTBU V0200401N009310300019N0080001N1+00001-00301999999ADDGA1021+009009999GA2071+030009999GF107991999999999999999999MA1103391999999MW1001REMMET053LTBU 121950Z 04018KT 8000 SCT030 BKN100 00/M03 Q1034;EQDQ01+000000PRSWM2
0164170575999992000011220504+41130+027920FM-15+0173LTBU V0200401N009310300019N0080001N1-00101-00401999999ADDGA1021+009009999GA2071+030009999GF107991999999999999999999MA1103391999999MW1001REMMET054LTBU 122050Z 04018KT 8000 SCT030 BKN100 M01/M04 Q1034;EQDQ01+000000PRSWM2
0164170575999992000011221504+41130+027920FM-15+0173LTBU V0200401N007210300019N0080001N1-00101-00401999999ADDGA1021+009009999GA2071+030009999GF107991999999999999999999MA1103391999999MW1001REMMET054LTBU 122150Z 04014KT 8000 SCT030 BKN100 M01/M04 Q1034;EQDQ01+000000PRSWM2
0164170575999992000011222504+41130+027920FM-15+0173LTBU V0200301N007210300019N0080001N1-00101-00401999999ADDGA1021+009009999GA2071+030009999GF107991999999999999999999MA1103491999999MW1001REMMET054LTBU 122250Z 03014KT 8000 SCT030 BKN100 M01/M04 Q1035;EQDQ01+000000PRSWM2
0164170575999992000011300204+41130+027920FM-15+0173LTBU V0200301N007710300019N0080001N1-00201-00501999999ADDGA1021+009009999GA2071+030009999GF107991999999999999999999MA1103591999999MW1001REMMET054LTBU 130020Z 03015KT 8000 SCT030 BKN100 M02/M05 Q1036;EQDQ01+000000PRSWM2
0164170575999992000011300504+41130+027920FM-15+0173LTBU V0200301N009810300019N0080001N1-00201-00501999999ADDGA1021+009009999GA2071+030009999GF107991999999999999999999MA1103591999999MW1001REMMET054LTBU 130050Z 03019KT 8000 SCT030 BKN100 M02/M05 Q1036;EQDQ01+000000PRSWM2
0164170575999992000011301504+41130+027920FM-15+0173LTBU V0200201N008710300019N0080001N1-00201-00501999999ADDGA1021+009009999GA2071+030009999GF107991999999999999999999MA1103491999999MW1001REMMET054LTBU 130150Z 02017KT 8000 SCT030 BKN100 M02/M05 Q1035;EQDQ01+000000PRSWM2
0164170575999992000011302504+41130+027920FM-15+0173LTBU V0200201N007710300019N0080001N1-00301-00601999999ADDGA1021+009009999GA2071+030009999GF107991999999999999999999MA1103391999999MW1001REMMET054LTBU 130250Z 02015KT 8000 SCT030 BKN100 M03/M06 Q1034;EQDQ01+000000PRSWM2
0164170575999992000011303504+41130+027920FM-15+0173LTBU V0200301N007710300019N0080001N1-00301-00601999999ADDGA1021+009009999GA2071+030009999GF107991999999999999999999MA1103391999999MW1001REMMET054LTBU 130350Z 03015KT 8000 SCT030 BKN100 M03/M06 Q1034;EQDQ01+000000PRSWM2
0164170575999992000011304504+41130+027920FM-15+0173LTBU V0200201N007710300019N0080001N1-00301-00601999999ADDGA1021+009009999GA2071+030009999GF107991999999999999999999MA1103291999999MW1001REMMET054LTBU 130450Z 02015KT 8000 SCT030 BKN100 M03/M06 Q1033;EQDQ01+000000PRSWM2
0164170575999992000011305504+41130+027920FM-15+0173LTBU V0200201N006210300019N0080001N1-00201-00501999999ADDGA1021+009009999GA2071+030009999GF107991999999999999999999MA1103291999999MW1001REMMET054LTBU 130550Z 02012KT 8000 SCT030 BKN100 M02/M05 Q1033;EQDQ01+000000PRSWM2
0164170575999992000011307204+41130+027920FM-15+0173LTBU V0200201N005110300019N0080001N1+00001-00301999999ADDGA1021+009009999GA2071+030009999GF107991999999999999999999MA1103291999999MW1001REMMET054LTBU 130720Z 02010KT 8000 SCT030 BKN100 M00/M03 Q1033;EQDQ01+000000PRSWM2
0163170575999992000011307504+41130+027920FM-15+0173LTBU V0200201N006210300019N0080001N1+00001-00301999999ADDGA1021+009009999GA2071+030009999GF107991999999999999999999MA1103291999999MW1001REMMET053LTBU 130750Z 02012KT 8000 SCT030 BKN100 00/M03 Q1033;EQDQ01+000000PRSWM2
0163170575999992000011315504+41130+027920FM-15+0173LTBU V0200401N004110300019N0080001N1+00101-00101999999ADDGA1021+009009999GA2071+030009999GF107991999999999999999999MA1103181999999MW1001REMMET053LTBU 131550Z 04008KT 8000 SCT030 BKN100 01/M01 Q1032;EQDQ01+000000PRSWM2
0163170575999992000011316504+41130+027920FM-15+0173LTBU V0200401N005710300019N0080001N1+00101-00101999999ADDGA1021+009009999GA2071+030009999GF107991999999999999999999MA1103181999999MW1001REMMET053LTBU 131650Z 04011KT 8000 SCT030 BKN100 01/M01 Q1032;EQDQ01+000000PRSWM2
0163170575999992000011317504+41130+027920FM-15+0173LTBU V0200201N005110300019N0080001N1+00101-00101999999ADDGA1021+009009999GA2071+030009999GF107991999999999999999999MA1103181999999MW1001REMMET053LTBU 131750Z 02010KT 8000 SCT030 BKN100 01/M01 Q1032;EQDQ01+000000PRSWM2
0163170575999992000011318504+41130+027920FM-15+0173LTBU V0200201N005110300019N0080001N1+00101-00101999999ADDGA1021+009009999GA2071+030009999GF107991999999999999999999MA1103181999999MW1001REMMET053LTBU 131850Z 02010KT 8000 SCT030 BKN100 01/M01 Q1032;EQDQ01+000000PRSWM2
0163170575999992000011319504+41130+027920FM-15+0173LTBU V0200301N005110300019N0080001N1+00101-00201999999ADDGA1021+009009999GA2071+030009999GF107991999999999999999999MA1103181999999MW1001REMMET053LTBU 131950Z 03010KT 8000 SCT030 BKN100 01/M02 Q1032;EQDQ01+000000PRSWM2
0163170575999992000011320504+41130+027920FM-15+0173LTBU V0200201N006210300019N0080001N1+00101-00201999999ADDGA1021+009009999GA2071+030009999GF107991999999999999999999MA1103181999999MW1001REMMET053LTBU 132050Z 02012KT 8000 SCT030 BKN100 01/M02 Q1032;EQDQ01+000000PRSWM2
0163170575999992000011321504+41130+027920FM-15+0173LTBU V0200201N004610300019N0080001N1+00101-00201999999ADDGA1021+009009999GA2071+030009999GF107991999999999999999999MA1103181999999MW1001REMMET053LTBU 132150Z 02009KT 8000 SCT030 BKN100 01/M02 Q1032;EQDQ01+000000PRSWM2
0163170575999992000011322504+41130+027920FM-15+0173LTBU V0200101N004110300019N0080001N1+00101-00201999999ADDGA1021+009009999GA2071+030009999GF107991999999999999999999MA1103121999999MW1001REMMET053LTBU 132250Z 01008KT 8000 SCT030 BKN100 01/M02 Q1031;EQDQ01+000000PRSWM2
0163170575999992000011406504+41130+027920FM-15+0173LTBU V0200501N005110300019N0112651N1+00001-00301999999ADDGA1021+009009999GA2071+030009999GF107991999999999999999999MA1103121999999MW1001REMMET053LTBU 140650Z 05010KT 9999 SCT030 BKN100 00/M03 Q1031;EQDQ01+000000PRSWM2
0140170575999992000011407504+41130+027920FM-15+0173LTBU V0200601N004612200019N0112651N1+00201+00001999999ADDGA1021+010509999GF104991999999999999999999MA1103121999999MW1001REMMET046LTBU 140750Z 06009KT 9999 SCT035 02/M00 Q1031;EQDQ01+000000PRSWM2
0140170575999992000011409204+41130+027920FM-15+0173LTBU V0200701N007712200019N0112651N1+00201+00001999999ADDGA1021+010509999GF104991999999999999999999MA1103011999999MW1001REMMET046LTBU 140920Z 07015KT 9999 SCT035 02/M00 Q1030;EQDQ01+000000PRSWM2
0140170575999992000011409504+41130+027920FM-15+0173LTBU V0200701N005112200019N0112651N1+00201+00001999999ADDGA1021+010509999GF104991999999999999999999MA1103011999999MW1001REMMET046LTBU 140950Z 07010KT 9999 SCT035 02/M00 Q1030;EQDQ01+000000PRSWM2
0140170575999992000011410504+41130+027920FM-15+0173LTBU V0200601N005712200019N0112651N1+00201+00001999999ADDGA1021+010509999GF104991999999999999999999MA1103011999999MW1001REMMET046LTBU 141050Z 06011KT 9999 SCT035 02/M00 Q1030;EQDQ01+000000PRSWM2
0139170575999992000011411504+41130+027920FM-15+0173LTBU V0200901N006212200019N0112651N1+00601+00101999999ADDGA1021+010509999GF104991999999999999999999MA1102911999999MW1001REMMET045LTBU 141150Z 09012KT 9999 SCT035 06/01 Q1029;EQDQ01+000000PRSWM2
0139170575999992000011412504+41130+027920FM-15+0173LTBU V0200701N006212200019N0112651N1+00601+00101999999ADDGA1021+010509999GF104991999999999999999999MA1102911999999MW1001REMMET045LTBU 141250Z 07012KT 9999 SCT035 06/01 Q1029;EQDQ01+000000PRSWM2
0140170575999992000011416504+41130+027920FM-15+0173LTBU V0200601N006712200019N0112651N1+00301+00001999999ADDGA1021+010509999GF102991999999999999999999MA1102911999999MW1001REMMET046LTBU 141650Z 06013KT 9999 FEW035 03/M00 Q1029;EQDQ01+000000PRSWM2
0092170575999992000011417504+41130+027920FM-15+0173LTBU V0200501N00771220001CN0099001N1+00301-00201999999ADDMA1102911999999MW1001REMMET040LTBU 141750Z 05015KT CAVOK 03/M02 Q1029;EQDQ01+000000PRSWM2
0092170575999992000011418504+41130+027920FM-15+0173LTBU V0200601N00571220001CN0099001N1+00301-00101999999ADDMA1102911999999MW1001REMMET040LTBU 141850Z 06011KT CAVOK 03/M01 Q1029;EQDQ01+000000PRSWM2
0092170575999992000011419504+41130+027920FM-15+0173LTBU V0200501N00511220001CN0099001N1+00301+00001999999ADDMA1102911999999MW1001REMMET040LTBU 141950Z 05010KT CAVOK 03/M00 Q1029;EQDQ01+000000PRSWM2
0092170575999992000011420504+41130+027920FM-15+0173LTBU V0200501N00461220001CN0099001N1+00301-00101999999ADDMA1103011999999MW1001REMMET040LTBU 142050Z 05009KT CAVOK 03/M01 Q1030;EQDQ01+000000PRSWM2
0092170575999992000011421504+41130+027920FM-15+0173LTBU V0200501N00411220001CN0099001N1+00101-00201999999ADDMA1103011999999MW1001REMMET040LTBU 142150Z 05008KT CAVOK 01/M02 Q1030;EQDQ01+000000PRSWM2
0092170575999992000011422504+41130+027920FM-15+0173LTBU V0200601N00511220001CN0099001N1+00101-00201999999ADDMA1103011999999MW1001REMMET040LTBU 142250Z 06010KT CAVOK 01/M02 Q1030;EQDQ01+000000PRSWM2
0093170575999992000011505504+41130+027920FM-15+0173LTBU V0200501N00461220001CN0099001N1-00201-00501999999ADDMA1102811999999MW1001REMMET041LTBU 150550Z 05009KT CAVOK M02/M05 Q1028;EQDQ01+000000PRSWM2
0092170575999992000011506504+41130+027920FM-15+0173LTBU V0200601N00621220001CN0099001N1+00001-00301999999ADDMA1102811999999MW1001REMMET040LTBU 150650Z 06012KT CAVOK 00/M03 Q1028;EQDQ01+000000PRSWM2
0140170575999992000011508204+41130+027920FM-15+0173LTBU V0200701N007212200019N0112651N1+00201-00201999999ADDGA1021+009009999GF102991999999999999999999MA1102811999999MW1001REMMET046LTBU 150820Z 07014KT 9999 FEW030 02/M02 Q1028;EQDQ01+000000PRSWM2
0140170575999992000011508504+41130+027920FM-15+0173LTBU V0200701N008212200019N0112651N1+00301-00201999999ADDGA1021+009009999GF102991999999999999999999MA1102811999999MW1001REMMET046LTBU 150850Z 07016KT 9999 FEW030 03/M02 Q1028;EQDQ01+000000PRSWM2
0140170575999992000011509504+41130+027920FM-15+0173LTBU V0200801N007212200019N0112651N1+00401-00101999999ADDGA1021+009009999GF102991999999999999999999MA1102811999999MW1001REMMET046LTBU 150950Z 08014KT 9999 FEW030 04/M01 Q1028;EQDQ01+000000PRSWM2
0139170575999992000011510504+41130+027920FM-15+0173LTBU V0200601N006212200019N0112651N1+00601+00001999999ADDGA1021+009009999GF102991999999999999999999MA1103011999999MW1001REMMET045LTBU 151050Z 06012KT 9999 FEW030 06/00 Q1030;EQDQ01+000000PRSWM2
0139170575999992000011511504+41130+027920FM-15+0173LTBU V0200701N007212200019N0112651N1+00701+00101999999ADDGA1021+009009999GF102991999999999999999999MA1103011999999MW1001REMMET045LTBU 151150Z 07014KT 9999 FEW030 07/01 Q1030;EQDQ01+000000PRSWM2
0139170575999992000011512504+41130+027920FM-15+0173LTBU V0200601N007712200019N0112651N1+00701+00101999999ADDGA1021+010509999GF102991999999999999999999MA1102811999999MW1001REMMET045LTBU 151250Z 06015KT 9999 FEW035 07/01 Q1028;EQDQ01+000000PRSWM2
0139170575999992000011513504+41130+027920FM-15+0173LTBU V0200601N007212200019N0112651N1+00701+00101999999ADDGA1021+010509999GF102991999999999999999999MA1102511999999MW1001REMMET045LTBU 151350Z 06014KT 9999 FEW035 07/01 Q1025;EQDQ01+000000PRSWM2
0139170575999992000011514504+41130+027920FM-15+0173LTBU V0200601N007712200019N0112651N1+00601+00101999999ADDGA1021+010509999GF102991999999999999999999MA1102511999999MW1001REMMET045LTBU 151450Z 06015KT 9999 FEW035 06/01 Q1025;EQDQ01+000000PRSWM2
0139170575999992000011515504+41130+027920FM-15+0173LTBU V0200601N006212200019N0112651N1+00501+00101999999ADDGA1021+010509999GF102991999999999999999999MA1102511999999MW1001REMMET045LTBU 151550Z 06012KT 9999 FEW035 05/01 Q1025;EQDQ01+000000PRSWM2
0139170575999992000011517204+41130+027920FM-15+0173LTBU V0200501N005112200019N0112651N1+00401+00101999999ADDGA1021+010509999GF102991999999999999999999MA1102511999999MW1001REMMET045LTBU 151720Z 05010KT 9999 FEW035 04/01 Q1025;EQDQ01+000000PRSWM2
0139170575999992000011517504+41130+027920FM-15+0173LTBU V0200601N005112200019N0112651N1+00401+00101999999ADDGA1021+010509999GF102991999999999999999999MA1102511999999MW1001REMMET045LTBU 151750Z 06010KT 9999 FEW035 04/01 Q1025;EQDQ01+000000PRSWM2
0091170575999992000011520504+41130+027920FM-15+0173LTBU V0200501N00361220001CN0099001N1+00301+00101999999ADDMA1102511999999MW1001REMMET039LTBU 152050Z 05007KT CAVOK 03/01 Q1025;EQDQ01+000000PRSWM2
0091170575999992000011521504+41130+027920FM-15+0173LTBU V0200501N00361220001CN0099001N1+00301+00101999999ADDMA1102511999999MW1001REMMET039LTBU 152150Z 05007KT CAVOK 03/01 Q1025;EQDQ01+000000PRSWM2
0091170575999992000011522504+41130+027920FM-15+0173LTBU V0200301N00361220001CN0099001N1+00201+00001999999ADDMA1102511999999MW1001REMMET039LTBU 152250Z 03007KT CAVOK 02/00 Q1025;EQDQ01+000000PRSWM2
0162170575999992000011607504+41130+027920FM-15+0173LTBU V0200801N005112200019N0112651N1+00401+00201999999ADDGA1021+012009999GA2021+030009999GF104991999999999999999999MA1102511999999MW1001REMMET052LTBU 160850Z 08010KT 9999 FEW040 SCT100 04/02 Q1025;EQDQ01+000000PRSWM2
0162170575999992000011608504+41130+027920FM-15+0173LTBU V0200801N005112200019N0112651N1+00401+00201999999ADDGA1021+012009999GA2021+030009999GF104991999999999999999999MA1102511999999MW1001REMMET052LTBU 160850Z 08010KT 9999 FEW040 SCT100 04/02 Q1025;EQDQ01+000000PRSWM2
0162170575999992000011609504+41130+027920FM-15+0173LTBU V0200701N004612200019N0112651N1+00501+00201999999ADDGA1021+012009999GA2021+030009999GF104991999999999999999999MA1102511999999MW1001REMMET052LTBU 160950Z 07009KT 9999 FEW040 SCT100 05/02 Q1025;EQDQ01+000000PRSWM2
0162170575999992000011610504+41130+027920FM-15+0173LTBU V0200701N004612200019N0112651N1+00501+00201999999ADDGA1021+012009999GA2021+030009999GF104991999999999999999999MA1102511999999MW1001REMMET052LTBU 161050Z 07009KT 9999 FEW040 SCT100 05/02 Q1025;EQDQ01+000000PRSWM2
0162170575999992000011611504+41130+027920FM-15+0173LTBU V0200601N005112200019N0112651N1+00501+00201999999ADDGA1021+012009999GA2021+030009999GF104991999999999999999999MA1102301999999MW1001REMMET052LTBU 161150Z 06010KT 9999 FEW040 SCT100 05/02 Q1023;EQDQ01+000000PRSWM2
0162170575999992000011613204+41130+027920FM-15+0173LTBU V0200601N004110300019N0112651N1+00501+00101999999ADDGA1021+011109999GA2071+030009999GF107991999999999999999999MA1102301999999MW1001REMMET052LTBU 161320Z 06008KT 9999 SCT037 BKN100 05/01 Q1023;EQDQ01+000000PRSWM2
0162170575999992000011613504+41130+027920FM-15+0173LTBU V0200601N004110300019N0112651N1+00501+00101999999ADDGA1021+011109999GA2071+030009999GF107991999999999999999999MA1102301999999MW1001REMMET052LTBU 161350Z 06008KT 9999 SCT037 BKN100 05/01 Q1023;EQDQ01+000000PRSWM2
0162170575999992000011614504+41130+027920FM-15+0173LTBU V0200601N005110300019N0112651N1+00501+00101999999ADDGA1021+011109999GA2071+030009999GF107991999999999999999999MA1102301999999MW1001REMMET052LTBU 161450Z 06010KT 9999 SCT037 BKN100 05/01 Q1023;EQDQ01+000000PRSWM2
0162170575999992000011615504+41130+027920FM-15+0173LTBU V0200201N006210300019N0112651N1+00401+00101999999ADDGA1021+011109999GA2071+030009999GF107991999999999999999999MA1102301999999MW1001REMMET052LTBU 161550Z 02012KT 9999 SCT037 BKN100 04/01 Q1023;EQDQ01+000000PRSWM2
0162170575999992000011616504+41130+027920FM-15+0173LTBU V0200301N005710300019N0060001N1+00301+00001999999ADDGA1021+011109999GA2071+030009999GF107991999999999999999999MA1102301999999MW1001REMMET052LTBU 161650Z 03011KT 6000 SCT037 BKN100 03/00 Q1023;EQDQ01+000000PRSWM2
0162170575999992000011617504+41130+027920FM-15+0173LTBU V0200401N007210300019N0060001N1+00301+00001999999ADDGA1021+011109999GA2071+030009999GF107991999999999999999999MA1102301999999MW1001REMMET052LTBU 161750Z 04014KT 6000 SCT037 BKN100 03/00 Q1023;EQDQ01+000000PRSWM2
0163170575999992000011618504+41130+027920FM-15+0173LTBU V0200501N005110300019N0060001N1+00201+00001999999ADDGA1021+009009999GA2071+030009999GF107991999999999999999999MA1102401999999MW1001REMMET053LTBU 161850Z 05010KT 6000 SCT030 BKN100 02/M00 Q1024;EQDQ01+000000PRSWM2
0163170575999992000011619504+41130+027920FM-15+0173LTBU V0200501N005110300019N0060001N1+00201+00001999999ADDGA1021+009009999GA2071+030009999GF107991999999999999999999MA1102511999999MW1001REMMET053LTBU 161950Z 05010KT 6000 SCT030 BKN100 02/M00 Q1025;EQDQ01+000000PRSWM2
0163170575999992000011620504+41130+027920FM-15+0173LTBU V0200301N006710300019N0060001N1+00101-00101999999ADDGA1021+009009999GA2071+030009999GF107991999999999999999999MA1102511999999MW1001REMMET053LTBU 162050Z 03013KT 6000 SCT030 BKN100 01/M01 Q1025;EQDQ01+000000PRSWM2
0163170575999992000011621504+41130+027920FM-15+0173LTBU V0200301N008210300019N0060001N1+00101-00101999999ADDGA1021+009009999GA2071+030009999GF107991999999999999999999MA1102511999999MW1001REMMET053LTBU 162150Z 03016KT 6000 SCT030 BKN100 01/M01 Q1025;EQDQ01+000000PRSWM2
0163170575999992000011622504+41130+027920FM-15+0173LTBU V0200301N008210300019N0060001N1+00101-00101999999ADDGA1021+009009999GA2071+030009999GF107991999999999999999999MA1102401999999MW1001REMMET053LTBU 162250Z 03016KT 6000 SCT030 BKN100 01/M01 Q1024;EQDQ01+000000PRSWM2
0163170575999992000011700204+41130+027920FM-15+0173LTBU V0200401N007210300019N0060001N1+00001-00201999999ADDGA1021+009009999GA2071+030009999GF107991999999999999999999MA1102301999999MW1001REMMET053LTBU 170020Z 04014KT 6000 SCT030 BKN100 00/M02 Q1023;EQDQ01+000000PRSWM2
0163170575999992000011700504+41130+027920FM-15+0173LTBU V0200401N007210300019N0060001N1+00001-00201999999ADDGA1021+009009999GA2071+030009999GF107991999999999999999999MA1102301999999MW1001REMMET053LTBU 170050Z 04014KT 6000 SCT030 BKN100 00/M02 Q1023;EQDQ01+000000PRSWM2
0163170575999992000011701504+41130+027920FM-15+0173LTBU V0200401N005110300019N0060001N1+00001-00201999999ADDGA1021+009009999GA2071+030009999GF107991999999999999999999MA1102301999999MW1001REMMET053LTBU 170150Z 04010KT 6000 SCT030 BKN100 00/M02 Q1023;EQDQ01+000000PRSWM2
0163170575999992000011702504+41130+027920FM-15+0173LTBU V0200201N005710300019N0060001N1+00001-00201999999ADDGA1021+009009999GA2071+030009999GF107991999999999999999999MA1102201999999MW1001REMMET053LTBU 170250Z 02011KT 6000 SCT030 BKN100 00/M02 Q1022;EQDQ01+000000PRSWM2
0163170575999992000011703504+41130+027920FM-15+0173LTBU V0200201N006210300019N0060001N1+00001-00201999999ADDGA1021+009009999GA2071+030009999GF107991999999999999999999MA1102101999999MW1001REMMET053LTBU 170350Z 02012KT 6000 SCT030 BKN100 00/M02 Q1021;EQDQ01+000000PRSWM2
0163170575999992000011704504+41130+027920FM-15+0173LTBU V0200201N006210300019N0060001N1+00001-00201999999ADDGA1021+009009999GA2071+030009999GF107991999999999999999999MA1102001999999MW1001REMMET053LTBU 170450Z 02012KT 6000 SCT030 BKN100 00/M02 Q1020;EQDQ01+000000PRSWM2
0162170575999992000011710504+41130+027920FM-15+0173LTBU V0203001N002610300019N0060001N1+00301+00001999999ADDGA1021+009009999GA2071+030009999GF107991999999999999999999MA1101591999999MW1001REMMET052LTBU 171050Z 30005KT 6000 SCT030 BKN100 03/00 Q1016;EQDQ01+000000PRSWM2
0162170575999992000011711504+41130+027920FM-15+0173LTBU V0202701N002110300019N0060001N1+00301+00101999999ADDGA1021+009009999GA2071+030009999GF107991999999999999999999MA1101391999999MW1001REMMET052LTBU 171150Z 27004KT 6000 SCT030 BKN100 03/01 Q1014;EQDQ01+000000PRSWM2
0162170575999992000011712504+41130+027920FM-15+0173LTBU V0202401N002610300019N0070001N1+00301+00101999999ADDGA1021+009009999GA2071+030009999GF107991999999999999999999MA1101391999999MW1001REMMET052LTBU 171250Z 24005KT 7000 SCT030 BKN100 03/01 Q1014;EQDQ01+000000PRSWM2
0162170575999992000011713504+41130+027920FM-15+0173LTBU V0202701N003610300019N0070001N1+00301+00101999999ADDGA1021+009009999GA2071+030009999GF107991999999999999999999MA1101291999999MW1001REMMET052LTBU 171350Z 27007KT 7000 SCT030 BKN100 03/01 Q1013;EQDQ01+000000PRSWM2
0163170575999992000011714504+41130+027920FM-15+0173LTBU V0202701N003610300019N0080001N1+00201+00001999999ADDGA1021+009009999GA2071+030009999GF107991999999999999999999MA1101081999999MW1001REMMET053LTBU 171450Z 27007KT 8000 SCT030 BKN100 02/M00 Q1011;EQDQ01+000000PRSWM2
0163170575999992000011715504+41130+027920FM-15+0173LTBU V0202601N003610300019N0060001N1+00101-00201999999ADDGA1021+009009999GA2071+030009999GF107991999999999999999999MA1100911999999MW1001REMMET053LTBU 171550Z 26007KT 6000 SCT030 BKN100 01/M02 Q1009;EQDQ01+000000PRSWM2
0163170575999992000011716504+41130+027920FM-15+0173LTBU V0202701N003110300019N0080001N1+00101-00201999999ADDGA1021+009009999GA2071+030009999GF107991999999999999999999MA1100711999999MW1001REMMET053LTBU 171650Z 27006KT 8000 SCT030 BKN100 01/M02 Q1007;EQDQ01+000000PRSWM2
0163170575999992000011718204+41130+027920FM-15+0173LTBU V0203101N003610300019N0080001N1+00101-00201999999ADDGA1021+009009999GA2071+030009999GF107991999999999999999999MA1100611999999MW1001REMMET053LTBU 171820Z 31007KT 8000 SCT030 BKN100 01/M02 Q1006;EQDQ01+000000PRSWM2
0163170575999992000011718504+41130+027920FM-15+0173LTBU V02099999999990300019N0080001N1+00101-00201999999ADDGA1021+009009999GA2071+030009999GF107991999999999999999999MA1100511999999MW1001REMMET053LTBU 171850Z VRB03KT 8000 SCT030 BKN100 01/M02 Q1005;EQDQ01+000000PRSWM2
0163170575999992000011719504+41130+027920FM-15+0173LTBU V0203001N003110300019N0080001N1+00101-00201999999ADDGA1021+009009999GA2071+030009999GF107991999999999999999999MA1100411999999MW1001REMMET053LTBU 171950Z 30006KT 8000 SCT030 BKN100 01/M02 Q1004;EQDQ01+000000PRSWM2
0163170575999992000011720504+41130+027920FM-15+0173LTBU V0203101N004110300019N0080001N1+00101-00101999999ADDGA1021+009009999GA2071+030009999GF107991999999999999999999MA1100311999999MW1001REMMET053LTBU 172050Z 31008KT 8000 SCT030 BKN100 01/M01 Q1003;EQDQ01+000000PRSWM2
0163170575999992000011721504+41130+027920FM-15+0173LTBU V0202801N001010300019N0080001N1+00101-00101999999ADDGA1021+009009999GA2071+030009999GF107991999999999999999999MA1100101999999MW1001REMMET053LTBU 172150Z 28002KT 8000 SCT030 BKN100 01/M01 Q1001;EQDQ01+000000PRSWM2
0163170575999992000011722504+41130+027920FM-15+0173LTBU V0202801N004610300019N0112651N1+00101-00101999999ADDGA1021+009009999GA2071+030009999GF107991999999999999999999MA1100001999999MW1001REMMET053LTBU 172250Z 28009KT 9999 SCT030 BKN100 01/M01 Q1000;EQDQ01+000000PRSWM2
0163170575999992000011807504+41130+027920FM-15+0173LTBU V0202501N004110300019N0112651N1+00101-00101999999ADDGA1021+009009999GA2081+030009999GF108991999999999999999999MA1099291999999MW1001REMMET053LTBU 180750Z 25008KT 9999 SCT030 OVC100 01/M01 Q0993;EQDQ01+000000PRSWM2
0162170575999992000011808504+41130+027920FM-15+0173LTBU V0202601N006710300019N0112651N1+00301+00001999999ADDGA1021+009009999GA2081+030009999GF108991999999999999999999MA1099291999999MW1001REMMET052LTBU 180850Z 26013KT 9999 SCT030 OVC100 03/00 Q0993;EQDQ01+000000PRSWM2
0162170575999992000011809504+41130+027920FM-15+0173LTBU V0202901N006210300019N0112651N1+00301+00001999999ADDGA1021+009009999GA2081+030009999GF108991999999999999999999MA1099291999999MW1001REMMET052LTBU 180950Z 29012KT 9999 SCT030 OVC100 03/00 Q0993;EQDQ01+000000PRSWM2
0189170575999992000011810504+41130+027920FM-15+0173LTBU V0202801N007710090019N0080001N1+00301+00001999999ADDGA1071+009009999GA2081+024009999GF108991999999999999999999MA1099191999999MW1611MW2731REMMET057LTBU 181050Z 28015KT 8000 SNRA BKN030 OVC080 03/00 Q0992;EQDQ01+000003PRSWM1Q02    003PRSWM1
0205170575999992000011811504+41130+027920FM-15+0173LTBU V0203001N007710090019N0080001N1+00301+00001999999ADDGA1021+004509999GA2071+009009999GA3081+024009999GF108991999999999999999999MA1099191999999MW1611REMMET063LTBU 181150Z 30015KT 8000 -RA FEW015 BKN030 OVC080 03/00 Q0992;EQDQ01+000003PRSWM1Q02    003PRSWM1
0162170575999992000011813504+41130+027920FM-15+0173LTBU V0203201N005110300019N0112651N1+00301+00001999999ADDGA1021+009009999GA2071+030009999GF107991999999999999999999MA1099291999999MW1001REMMET052LTBU 181350Z 32010KT 9999 SCT030 BKN100 03/00 Q0993;EQDQ01+000000PRSWM2
0179170575999992000011814504+41130+027920FM-15+0173LTBU V0203401N999990300019N0112651N1+00301+00101999999ADDGA1021+009009999GA2071+030009999GF107991999999999999999999MA1099491999999MW1001REMMET053LTBU 181450Z 340108KT 9999 SCT030 BKN100 03/01 Q0995;EQDQ01+005563WOSPD Q02+000000PRSWM2
0163170575999992000011815504+41130+027920FM-15+0173LTBU V0203401N004110300019N0112651N1+00201+00001999999ADDGA1021+009009999GA2071+030009999GF107991999999999999999999MA1099591999999MW1001REMMET053LTBU 181550Z 34008KT 9999 SCT030 BKN100 02/M00 Q0996;EQDQ01+000000PRSWM2
0163170575999992000011816504+41130+027920FM-15+0173LTBU V0203401N003610300019N0112651N1+00201-00101999999ADDGA1021+009009999GA2071+030009999GF107991999999999999999999MA1099701999999MW1001REMMET053LTBU 181650Z 34007KT 9999 SCT030 BKN100 02/M01 Q0997;EQDQ01+000000PRSWM2
0163170575999992000011817504+41130+027920FM-15+0173LTBU V0203601N002610300019N0112651N1+00101-00201999999ADDGA1021+009009999GA2071+030009999GF107991999999999999999999MA1099801999999MW1001REMMET053LTBU 181750Z 36005KT 9999 SCT030 BKN100 01/M02 Q0998;EQDQ01+000000PRSWM2
0092170575999992000011818504+41130+027920FM-15+0173LTBU V0202801N00211220001CN0099001N1+00101-00201999999ADDMA1099801999999MW1001REMMET040LTBU 181850Z 28004KT CAVOK 01/M02 Q0998;EQDQ01+000000PRSWM2
0092170575999992000011819504+41130+027920FM-15+0173LTBU V0202601N00211220001CN0099001N1+00001-00201999999ADDMA1099901999999MW1001REMMET040LTBU 181950Z 26004KT CAVOK 00/M02 Q0999;EQDQ01+000000PRSWM2
0093170575999992000011820504+41130+027920FM-15+0173LTBU V0209999C00001220001CN0099001N1+00001-00301999999ADDMA1099901999999MW1001REMMET041LTBU 182050Z 00000KT CAVOK M00/M03 Q0999;EQDQ01+000000PRSWM2
0093170575999992000011821504+41130+027920FM-15+0173LTBU V0209999999999220001CN0099001N1-00101-00301999999ADDMA1100001999999MW1001REMMET041LTBU 182150Z VRB03KT CAVOK M01/M03 Q1000;EQDQ01+000000PRSWM2
0226170575999992000011905504+41130+027920FM-15+0173LTBU V0203201N003110090019N0015001N1+00001-00201999999ADDED199U15009GA1021+003609999GA2071+009009999GA3081+027009999GF108991999999999999999999MA1100311999999MW1101REMMET073LTBU 190550Z 32006KT 1500 R05/1500N BR SCT012 BKN030 OVC090 00/M02 Q1003;EQDQ01+000003PRSWM1Q02    003PRSWM1
0226170575999992000011907204+41130+027920FM-15+0173LTBU V0202901N005110300019N0020001N1+00101-00101999999ADDED199U20009GA1021+003609999GA2021+009009999GA3071+030009999GF107991999999999999999999MA1100411999999MW1101REMMET073LTBU 190720Z 29010KT 2000 R05/2000N BR SCT012 SCT030 BKN100 01/M01 Q1004;EQDQ01+000003PRSWM1Q02    003PRSWM1
0226170575999992000011907504+41130+027920FM-15+0173LTBU V0202901N005110300019N0020001N1+00101-00101999999ADDED199U20009GA1021+003609999GA2021+009009999GA3071+030009999GF107991999999999999999999MA1100411999999MW1101REMMET073LTBU 190750Z 29010KT 2000 R05/2000N BR SCT012 SCT030 BKN100 01/M01 Q1004;EQDQ01+000003PRSWM1Q02    003PRSWM1
0205170575999992000011908504+41130+027920FM-15+0173LTBU V0203101N007210300019N0050001N1+00101-00101999999ADDGA1021+003609999GA2021+009009999GA3071+030009999GF107991999999999999999999MA1100511999999MW1101REMMET063LTBU 190850Z 31014KT 5000 BR SCT012 SCT030 BKN100 01/M01 Q1005;EQDQ01+000003PRSWM1Q02    003PRSWM1
0205170575999992000011909504+41130+027920FM-15+0173LTBU V0203201N005110300019N0050001N1+00201+00001999999ADDGA1021+003609999GA2021+009009999GA3071+030009999GF107991999999999999999999MA1100511999999MW1101REMMET063LTBU 190950Z 32010KT 5000 BR SCT012 SCT030 BKN100 02/M00 Q1005;EQDQ01+000003PRSWM1Q02    003PRSWM1
0163170575999992000011910504+41130+027920FM-15+0173LTBU V0203201N007212200019N0080001N1+00201-00101999999ADDGA1021+004509999GA2021+009009999GF104991999999999999999999MA1100611999999MW1001REMMET053LTBU 191050Z 32014KT 8000 FEW015 SCT030 02/M01 Q1006;EQDQ01+000000PRSWM2
0163170575999992000011911504+41130+027920FM-15+0173LTBU V0203101N008212200019N0112651N1+00301-00101999999ADDGA1021+009009999GA2021+030009999GF104991999999999999999999MA1100611999999MW1001REMMET053LTBU 191150Z 31016KT 9999 FEW030 SCT100 03/M01 Q1006;EQDQ01+000000PRSWM2
0163170575999992000011912504+41130+027920FM-15+0173LTBU V0203101N006712200019N0112651N1+00301-00101999999ADDGA1021+009009999GA2021+030009999GF104991999999999999999999MA1100511999999MW1001REMMET053LTBU 191250Z 31013KT 9999 FEW030 SCT100 03/M01 Q1005;EQDQ01+000000PRSWM2
0163170575999992000011914204+41130+027920FM-15+0173LTBU V0202901N004112200019N0112651N1+00301-00101999999ADDGA1021+009009999GA2021+030009999GF104991999999999999999999MA1100611999999MW1001REMMET053LTBU 191420Z 29008KT 9999 FEW030 SCT100 03/M01 Q1006;EQDQ01+000000PRSWM2
0163170575999992000011914504+41130+027920FM-15+0173LTBU V0202901N003612200019N0112651N1+00301-00101999999ADDGA1021+009009999GA2021+030009999GF104991999999999999999999MA1100611999999MW1001REMMET053LTBU 191450Z 29007KT 9999 FEW030 SCT100 03/M01 Q1006;EQDQ01+000000PRSWM2
0140170575999992000011916204+41130+027920FM-15+0173LTBU V0203001N003612200019N0112651N1+00301-00101999999ADDGA1021+009009999GF102991999999999999999999MA1100711999999MW1001REMMET046LTBU 191620Z 30007KT 9999 FEW030 03/M01 Q1007;EQDQ01+000000PRSWM2
0141170575999992000012001504+41130+027920FM-15+0173LTBU V0203201N006212200019N0112651N1+00001-00301999999ADDGA1021+009009999GF102991999999999999999999MA1101191999999MW1001REMMET047LTBU 200250Z 32012KT 9999 FEW030 M00/M03 Q1012;EQDQ01+000000PRSWM2
0141170575999992000012002504+41130+027920FM-15+0173LTBU V0203201N006212200019N0112651N1+00001-00301999999ADDGA1021+009009999GF102991999999999999999999MA1101191999999MW1001REMMET047LTBU 200250Z 32012KT 9999 FEW030 M00/M03 Q1012;EQDQ01+000000PRSWM2
0141170575999992000012003504+41130+027920FM-15+0173LTBU V0203101N007212200019N0112651N1+00001-00301999999ADDGA1021+009009999GF102991999999999999999999MA1101191999999MW1001REMMET047LTBU 200350Z 31014KT 9999 FEW030 M00/M03 Q1012;EQDQ01+000000PRSWM2
0164170575999992000012004504+41130+027920FM-15+0173LTBU V0203201N007212200019N0112651N1+00001-00301999999ADDGA1021+009009999GA2021+030009999GF104991999999999999999999MA1101291999999MW1001REMMET054LTBU 200550Z 32014KT 9999 FEW030 SCT100 M00/M03 Q1013;EQDQ01+000000PRSWM2
0164170575999992000012005504+41130+027920FM-15+0173LTBU V0203201N007212200019N0112651N1+00001-00301999999ADDGA1021+009009999GA2021+030009999GF104991999999999999999999MA1101291999999MW1001REMMET054LTBU 200550Z 32014KT 9999 FEW030 SCT100 M00/M03 Q1013;EQDQ01+000000PRSWM2
0163170575999992000012006504+41130+027920FM-15+0173LTBU V0203201N007712200019N0112651N1+00001-00201999999ADDGA1021+009009999GA2021+030009999GF104991999999999999999999MA1101291999999MW1001REMMET053LTBU 200650Z 32015KT 9999 FEW030 SCT100 00/M02 Q1013;EQDQ01+000000PRSWM2
0163170575999992000012007504+41130+027920FM-15+0173LTBU V0203401N009312200019N0112651N1+00001-00201999999ADDGA1021+009009999GA2021+030009999GF104991999999999999999999MA1101491999999MW1001REMMET053LTBU 200750Z 34018KT 9999 FEW030 SCT100 00/M02 Q1015;EQDQ01+000000PRSWM2
0163170575999992000012008504+41130+027920FM-15+0173LTBU V0203201N009812200019N0112651N1+00001-00201999999ADDGA1021+009009999GA2021+030009999GF104991999999999999999999MA1101491999999MW1001REMMET053LTBU 200850Z 32019KT 9999 FEW030 SCT100 00/M02 Q1015;EQDQ01+000000PRSWM2
0140170575999992000012012504+41130+027920FM-15+0173LTBU V0203401N008712200019N0112651N1+00301-00101999999ADDGA1021+009009999GF104991999999999999999999MA1101901999999MW1001REMMET046LTBU 201250Z 34017KT 9999 SCT030 03/M01 Q1019;EQDQ01+000000PRSWM2
0140170575999992000012013504+41130+027920FM-15+0173LTBU V0203401N006212200019N0112651N1+00301-00101999999ADDGA1021+009009999GF104991999999999999999999MA1101901999999MW1001REMMET046LTBU 201350Z 34012KT 9999 SCT030 03/M01 Q1019;EQDQ01+000000PRSWM2
0163170575999992000012017204+41130+027920FM-15+0173LTBU V0203401N002110300019N0112651N1+00001-00301999999ADDGA1021+009009999GA2071+030009999GF107991999999999999999999MA1102101999999MW1001REMMET053LTBU 201720Z 34004KT 9999 SCT030 BKN100 00/M03 Q1021;EQDQ01+000000PRSWM2
0164170575999992000012017504+41130+027920FM-15+0173LTBU V0203301N003610300019N0112651N1-00101-00401999999ADDGA1021+009009999GA2071+030009999GF107991999999999999999999MA1102101999999MW1001REMMET054LTBU 201750Z 33007KT 9999 SCT030 BKN100 M01/M04 Q1021;EQDQ01+000000PRSWM2
0164170575999992000012018504+41130+027920FM-15+0173LTBU V0203301N004610300019N0112651N1-00101-00401999999ADDGA1021+009009999GA2071+030009999GF107991999999999999999999MA1102101999999MW1001REMMET054LTBU 201850Z 33009KT 9999 SCT030 BKN100 M01/M04 Q1021;EQDQ01+000000PRSWM2
0164170575999992000012019504+41130+027920FM-15+0173LTBU V0202901N002610300019N0112651N1-00201-00501999999ADDGA1021+009009999GA2071+030009999GF107991999999999999999999MA1102201999999MW1001REMMET054LTBU 201950Z 29005KT 9999 SCT030 BKN100 M02/M05 Q1022;EQDQ01+000000PRSWM2
0164170575999992000012020504+41130+027920FM-15+0173LTBU V0202901N002610300019N0112651N1-00301-00601999999ADDGA1021+009009999GA2071+030009999GF107991999999999999999999MA1102201999999MW1001REMMET054LTBU 202050Z 29005KT 9999 SCT030 BKN100 M03/M06 Q1022;EQDQ01+000000PRSWM2
0164170575999992000012021504+41130+027920FM-15+0173LTBU V0202701N003610300019N0112651N1-00301-00601999999ADDGA1021+009009999GA2071+030009999GF107991999999999999999999MA1102201999999MW1001REMMET054LTBU 202150Z 27007KT 9999 SCT030 BKN100 M03/M06 Q1022;EQDQ01+000000PRSWM2
0164170575999992000012022504+41130+027920FM-15+0173LTBU V0202701N002610300019N0112651N1-00301-00601999999ADDGA1021+009009999GA2071+030009999GF107991999999999999999999MA1102201999999MW1001REMMET054LTBU 202250Z 27005KT 9999 SCT030 BKN100 M03/M06 Q1022;EQDQ01+000000PRSWM2
0164170575999992000012100204+41130+027920FM-15+0173LTBU V0202601N002610300019N0112651N1-00301-00601999999ADDGA1021+009009999GA2071+030009999GF107991999999999999999999MA1102101999999MW1001REMMET054LTBU 210020Z 26005KT 9999 SCT030 BKN100 M03/M06 Q1021;EQDQ01+000000PRSWM2
0164170575999992000012100504+41130+027920FM-15+0173LTBU V0202701N002110300019N0112651N1-00401-00701999999ADDGA1021+009009999GA2071+030009999GF107991999999999999999999MA1102101999999MW1001REMMET054LTBU 210050Z 27004KT 9999 SCT030 BKN100 M04/M07 Q1021;EQDQ01+000000PRSWM2
0164170575999992000012101504+41130+027920FM-15+0173LTBU V0202101N002110300019N0112651N1-00401-00701999999ADDGA1021+009009999GA2071+030009999GF107991999999999999999999MA1102001999999MW1001REMMET054LTBU 210150Z 21004KT 9999 SCT030 BKN100 M04/M07 Q1020;EQDQ01+000000PRSWM2
0164170575999992000012102504+41130+027920FM-15+0173LTBU V0202201N001510300019N0112651N1-00401-00701999999ADDGA1021+009009999GA2071+030009999GF107991999999999999999999MA1102001999999MW1001REMMET054LTBU 210250Z 22003KT 9999 SCT030 BKN100 M04/M07 Q1020;EQDQ01+000000PRSWM2
0164170575999992000012103504+41130+027920FM-15+0173LTBU V0202701N001010300019N0112651N1-00401-00701999999ADDGA1021+009009999GA2071+030009999GF107991999999999999999999MA1102101999999MW1001REMMET054LTBU 210350Z 27002KT 9999 SCT030 BKN100 M04/M07 Q1021;EQDQ01+000000PRSWM2
0164170575999992000012105204+41130+027920FM-15+0173LTBU V0202201N003610300019N0112651N1-00301-00601999999ADDGA1021+009009999GA2071+030009999GF107991999999999999999999MA1102101999999MW1001REMMET054LTBU 210520Z 22007KT 9999 SCT030 BKN100 M03/M06 Q1021;EQDQ01+000000PRSWM2
0164170575999992000012105504+41130+027920FM-15+0173LTBU V0202201N004110300019N0112651N1-00201-00501999999ADDGA1021+009009999GA2071+030009999GF107991999999999999999999MA1101901999999MW1001REMMET054LTBU 210550Z 22008KT 9999 SCT030 BKN100 M02/M05 Q1019;EQDQ01+000000PRSWM2
0164170575999992000012106504+41130+027920FM-15+0173LTBU V0202201N005710300019N0112651N1-00101-00401999999ADDGA1021+009009999GA2071+030009999GF107991999999999999999999MA1101691999999MW1001REMMET054LTBU 210650Z 22011KT 9999 FEW030 BKN100 M01/M04 Q1017;EQDQ01+000000PRSWM2
0164170575999992000012107504+41130+027920FM-15+0173LTBU V0202201N007210300019N0112651N1-00101-00401999999ADDGA1021+009009999GA2071+030009999GF107991999999999999999999MA1101591999999MW1001REMMET054LTBU 210750Z 22014KT 9999 SCT030 BKN100 M01/M04 Q1016;EQDQ01+000000PRSWM2
0140170575999992000012108504+41130+027920FM-15+0173LTBU V0202101N008710105019N0112651N1+00001-00301999999ADDGA1071+010509999GF107991999999999999999999MA1101491999999MW1001REMMET046LTBU 210850Z 21017KT 9999 BKN035 00/M03 Q1015;EQDQ01+000000PRSWM2
0140170575999992000012109504+41130+027920FM-15+0173LTBU V0202201N010312200019N0112651N1+00101-00301999999ADDGA1021+010509999GF104991999999999999999999MA1101391999999MW1001REMMET046LTBU 210950Z 22020KT 9999 SCT035 01/M03 Q1014;EQDQ01+000000PRSWM2
0163170575999992000012110504+41130+027920FM-15+0173LTBU V0202401N010310300019N0112651N1+00201-00201999999ADDGA1021+009009999GA2071+030009999GF107991999999999999999999MA1101191999999MW1001REMMET053LTBU 211050Z 24020KT 9999 SCT030 BKN100 02/M02 Q1012;EQDQ01+000000PRSWM2
0163170575999992000012111504+41130+027920FM-15+0173LTBU V0202101N010310300019N0112651N1+00301-00101999999ADDGA1021+009009999GA2071+030009999GF107991999999999999999999MA1101021999999MW1001REMMET053LTBU 211150Z 21020KT 9999 SCT030 BKN100 03/M01 Q1010;EQDQ01+000000PRSWM2
0140170575999992000012112504+41130+027920FM-15+0173LTBU V0202401N011312200019N0112651N1+00301-00101999999ADDGA1021+009009999GF104991999999999999999999MA1100911999999MW1001REMMET046LTBU 211250Z 24022KT 9999 SCT030 03/M01 Q1009;EQDQ01+000000PRSWM2
0140170575999992000012113504+41130+027920FM-15+0173LTBU V0202301N010812200019N0112651N1+00301-00101999999ADDGA1021+009009999GF104991999999999999999999MA1100911999999MW1001REMMET046LTBU 211350Z 23021KT 9999 SCT030 03/M01 Q1009;EQDQ01+000000PRSWM2
0163170575999992000012114504+41130+027920FM-15+0173LTBU V0202301N009812200019N0112651N1+00301-00101999999ADDGA1021+009009999GA2021+030009999GF104991999999999999999999MA1100911999999MW1001REMMET053LTBU 211450Z 23019KT 9999 SCT030 SCT100 03/M01 Q1009;EQDQ01+000000PRSWM2
0163170575999992000012115504+41130+027920FM-15+0173LTBU V0202201N008712200019N0112651N1+00301-00101999999ADDGA1021+009009999GA2021+030009999GF104991999999999999999999MA1100811999999MW1001REMMET053LTBU 211550Z 22017KT 9999 SCT030 SCT100 03/M01 Q1008;EQDQ01+000000PRSWM2
0163170575999992000012121204+41130+027920FM-15+0173LTBU V0202501N007710300019N0112651N1+00001-00101999999ADDGA1021+009009999GA2071+030009999GF107991999999999999999999MA1100611999999MW1001REMMET053LTBU 212120Z 25015KT 9999 SCT030 BKN100 00/M01 Q1006;EQDQ01+000000PRSWM2
0163170575999992000012121504+41130+027920FM-15+0173LTBU V0202401N008710300019N0112651N1+00001-00101999999ADDGA1021+009009999GA2071+030009999GF107991999999999999999999MA1100611999999MW1001REMMET053LTBU 212150Z 24017KT 9999 SCT030 BKN100 00/M01 Q1006;EQDQ01+000000PRSWM2
0163170575999992000012122504+41130+027920FM-15+0173LTBU V0202401N010310300019N0112651N1+00001-00101999999ADDGA1021+009009999GA2071+030009999GF107991999999999999999999MA1100511999999MW1001REMMET053LTBU 212250Z 24020KT 9999 SCT030 BKN100 00/M01 Q1005;EQDQ01+000000PRSWM2
0164170575999992000012207504+41130+027920FM-15+0173LTBU V0200101N005712200019N0112651N1-00101-00401999999ADDGA1021+009009999GA2021+030009999GF104991999999999999999999MA1101591999999MW1001REMMET054LTBU 220750Z 01011KT 9999 SCT030 SCT100 M01/M04 Q1016;EQDQ01+000000PRSWM2
0164170575999992000012208504+41130+027920FM-15+0173LTBU V0203501N007212200019N0112651N1-00101-00401999999ADDGA1021+009009999GA2021+030009999GF104991999999999999999999MA1101691999999MW1001REMMET054LTBU 220850Z 35014KT 9999 SCT030 SCT100 M01/M04 Q1017;EQDQ01+000000PRSWM2
0141170575999992000012209504+41130+027920FM-15+0173LTBU V0203501N006212200019N0112651N1-00101-00401999999ADDGA1021+009009999GF104991999999999999999999MA1101801999999MW1001REMMET047LTBU 220950Z 35012KT 9999 SCT030 M01/M04 Q1018;EQDQ01+000000PRSWM2
0141170575999992000012210504+41130+027920FM-15+0173LTBU V0203501N005112200019N0112651N1+00001-00201999999ADDGA1021+009009999GF104991999999999999999999MA1101901999999MW1001REMMET047LTBU 221050Z 35010KT 9999 SCT030 M00/M02 Q1019;EQDQ01+000000PRSWM2
0164170575999992000012211504+41130+027920FM-15+0173LTBU V0200101N004110300019N0112651N1+00001-00201999999ADDGA1021+009009999GA2071+030009999GF107991999999999999999999MA1101901999999MW1001REMMET054LTBU 221150Z 01008KT 9999 SCT030 BKN100 M00/M02 Q1019;EQDQ01+000000PRSWM2
0163170575999992000012212504+41130+027920FM-15+0173LTBU V0200101N004110300019N0112651N1+00101-00201999999ADDGA1021+009009999GA2071+030009999GF107991999999999999999999MA1101901999999MW1001REMMET053LTBU 221250Z 01008KT 9999 SCT030 BKN100 01/M02 Q1019;EQDQ01+000000PRSWM2
0163170575999992000012213504+41130+027920FM-15+0173LTBU V02099999999990300019N0112651N1+00101-00201999999ADDGA1021+009009999GA2071+030009999GF107991999999999999999999MA1102001999999MW1001REMMET053LTBU 221350Z VRB02KT 9999 SCT030 BKN100 01/M02 Q1020;EQDQ01+000000PRSWM2
0163170575999992000012214504+41130+027920FM-15+0173LTBU V0203201N003610300019N0112651N1+00001-00301999999ADDGA1021+009009999GA2071+030009999GF107991999999999999999999MA1102001999999MW1001REMMET053LTBU 221450Z 32007KT 9999 SCT030 BKN100 00/M03 Q1020;EQDQ01+000000PRSWM2
0092170575999992000012215504+41130+027920FM-15+0173LTBU V0203101N00311220001CN0099001N1+00001-00301999999ADDMA1102001999999MW1001REMMET040LTBU 221550Z 31006KT CAVOK 00/M03 Q1020;EQDQ01+000000PRSWM2
0093170575999992000012216504+41130+027920FM-15+0173LTBU V0203301N00311220001CN0099001N1-00101-00401999999ADDMA1102101999999MW1001REMMET041LTBU 221650Z 33006KT CAVOK M01/M04 Q1021;EQDQ01+000000PRSWM2
0093170575999992000012217504+41130+027920FM-15+0173LTBU V0209999C00001220001CN0099001N1-00101-00501999999ADDMA1102101999999MW1001REMMET041LTBU 221750Z 00000KT CAVOK M01/M05 Q1021;EQDQ01+000000PRSWM2
0093170575999992000012218504+41130+027920FM-15+0173LTBU V0203301N00151220001CN0099001N1-00201-00701999999ADDMA1102101999999MW1001REMMET041LTBU 221850Z 33003KT CAVOK M02/M07 Q1021;EQDQ01+000000PRSWM2
0093170575999992000012219504+41130+027920FM-15+0173LTBU V0209999C00001220001CN0099001N1-00301-00801999999ADDMA1102101999999MW1001REMMET041LTBU 221950Z 00000KT CAVOK M03/M08 Q1021;EQDQ01+000000PRSWM2
0093170575999992000012220504+41130+027920FM-15+0173LTBU V0209999C00001220001CN0099001N1-00301-00801999999ADDMA1102101999999MW1001REMMET041LTBU 222050Z 00000KT CAVOK M03/M08 Q1021;EQDQ01+000000PRSWM2
0093170575999992000012221504+41130+027920FM-15+0173LTBU V0209999C00001220001CN0099001N1-00401-00901999999ADDMA1102101999999MW1001REMMET041LTBU 222150Z 00000KT CAVOK M04/M09 Q1021;EQDQ01+000000PRSWM2
0093170575999992000012222504+41130+027920FM-15+0173LTBU V0209999C00001220001CN0099001N1-00401-00901999999ADDMA1102001999999MW1001REMMET041LTBU 222250Z 00000KT CAVOK M04/M09 Q1020;EQDQ01+000000PRSWM2
0093170575999992000012300204+41130+027920FM-15+0173LTBU V0203501N00151220001CN0099001N1-00401-00801999999ADDMA1102001999999MW1001REMMET041LTBU 230020Z 35003KT CAVOK M04/M08 Q1020;EQDQ01+000000PRSWM2
0093170575999992000012300504+41130+027920FM-15+0173LTBU V0209999C00001220001CN0099001N1-00401-00901999999ADDMA1102001999999MW1001REMMET041LTBU 230050Z 00000KT CAVOK M04/M09 Q1020;EQDQ01+000000PRSWM2
0093170575999992000012301504+41130+027920FM-15+0173LTBU V0209999999999220001CN0099001N1-00401-00901999999ADDMA1102001999999MW1001REMMET041LTBU 230150Z VRB03KT CAVOK M04/M09 Q1020;EQDQ01+000000PRSWM2
0093170575999992000012306204+41130+027920FM-15+0173LTBU V0201501N00211220001CN0099001N1-00301-00801999999ADDMA1101901999999MW1001REMMET041LTBU 230620Z 15004KT CAVOK M03/M08 Q1019;EQDQ01+000000PRSWM2
0141170575999992000012306504+41130+027920FM-15+0173LTBU V0201501N002112200019N0112651N1-00301-00801999999ADDGA1021+009009999GF102991999999999999999999MA1101901999999MW1001REMMET047LTBU 230650Z 15004KT 9999 FEW030 M03/M08 Q1019;EQDQ01+000000PRSWM2
0141170575999992000012307504+41130+027920FM-15+0173LTBU V0201801N003112200019N0112651N1-00101-00501999999ADDGA1021+009009999GF102991999999999999999999MA1101901999999MW1001REMMET047LTBU 230750Z 18006KT 9999 FEW030 M01/M05 Q1019;EQDQ01+000000PRSWM2
0140170575999992000012308504+41130+027920FM-15+0173LTBU V0201601N006712200019N0112651N1+00001-00401999999ADDGA1021+009009999GF102991999999999999999999MA1101901999999MW1001REMMET046LTBU 230850Z 16013KT 9999 FEW030 00/M04 Q1019;EQDQ01+000000PRSWM2
