0128220180999992000010112004+69280+032800FM-12+002799999V0202301N001010300019N0500001N1-01621-01751102261ADDGF107991021051012501031021MD1810031+9999REMSYN076AAXX  01121 22018 42684 72301 11162 21175 40226 58003 82532 333 91001 93502;
0167220180999992000010212004+69280+032800FM-12+002799999V0201901N010010075019N0350001N1-00941-01341101031ADDAY181061AY231061GF107991051091008001031001MD1710161+9999MW1851OA140101501REMSYN082AAXX  02121 22018 41581 71910 11094 21134 40103 57016 78583 85930 333 91015 91116;
0122220180999992000010412004+69280+032800FM-12+002799999V0201301N001010075019N0500001N1-00891-01181099511ADDGF108991051051008001071999MD1710121+9999REMSYN070AAXX  04121 22018 42584 81301 11089 21118 49951 57012 8557/ 333 91002;
0172220180999992000010612004+69280+032800FM-12+002799999V0201801N003010039019N0300001N1-01021-01321100561ADDAY171061AY221061GA1071+003909079GF107991071061004501001001MD1810081+9999MW1021REMSYN082AAXX  06121 22018 41480 71803 11102 21132 40056 58008 70272 87600 333 87713 91005;
0167220180999992000010812004+69280+032800FM-12+002799999V0202001N006010075019N0060001N1-00181-00261097971ADDAY181061AY231061GF108991051091008001071999MD1810341+9999MW1851OA140100901REMSYN082AAXX  08121 22018 41556 82006 11018 21026 49797 58034 78583 8597/ 333 91009 91112;
0217220180999992000011006004+69280+032800FM-12+002799999V0202201N006010120019N0500001N1-00091-00411099171ADDAA106000091AJ100249199999999GF107991051051012501031001IA1279KA1120N-00111MD1210231+9999OA140100801REMSYN088AAXX  10061 22018 32684 72206 11009 21041 49917 52023 85530 333 21011 43024 91008 91114;EQDQ01  00002PRCP06
0161220180999992000011012004+69280+032800FM-12+002799999V0202901N009010132019N0500001N1+00111-00381099731ADDGA1071+013209069GF107991071051012501001001MD1210311+9999OA140101401REMSYN082AAXX  10121 22018 42684 72909 10011 21038 49973 52031 87500 333 87644 91014 91114;
0154220180999992000011712004+69280+032800FM-12+002799999V0200101N002019999999N0500001N1-00711-00881098831ADDAY181061AY221061GF106991999091008001031021MD1210281+9999MW1851REMSYN080    AAXX  17121 22018 41599 60102 11071 21088 49883 52028 78582 8/932 333 91003;
0154220180999992000011812004+69280+032800FM-12+002799999V0202001N002010075019N0020001N1-01161-01221100421ADDAY181061AY221061GF107991071091008001001001MD1210101+9999MW1861REMSYN080    AAXX  18121 22018 41595 72002 11116 21122 40042 52010 78682 87900 333 91004;
0179220180999992000011912004+69280+032800FM-12+002799999V0202501N002012200019N0500001N1-01151-01281100181ADDAY181061AY211061GF102991001001999999001011MD1810011+9999MW1011REMSYN086    AAXX  19121 22018 41599 22502 11115 21128 40018 58001 70181 80001 333 91003 93501;EQDQ01+008002SCOLCB
0167220180999992000012112004+69280+032800FM-12+002799999V0200201N009010300019N0500001N1-00431-01231100341ADDAY181061AY231061GF107991031091008001031021MD1210071+9999MW1361OA140101301REMSYN082AAXX  21121 22018 41599 70209 11043 21123 40034 52007 73683 83932 333 91013 91118;
0167220180999992000012212004+69280+032800FM-12+002799999V0201901N004010750019N0500001N1-01211-01411099761ADDAY181061AY231061GF106991021091008001001021MD1810031+9999MW1021OA140100501REMSYN082AAXX  22121 22018 41599 61904 11121 21141 49976 58003 70283 82902 333 91005 91110;
0167220180999992000012812004+69280+032800FM-12+002799999V0202501N009010300019N0500001N1-01051-01331097671ADDAY181061AY231061GF108991011091008001031011MD1210041+9999MW1361OA140101301REMSYN082AAXX  28121 22018 41599 82509 11105 21133 49767 52004 73683 81931 333 91013 91114;
0140220180999992000013112004+69280+032800FM-12+002799999V0209999C000019999999N0100001N1-00141-00261096521ADDAY181061AY271061GF108991081001999999021999MD1710061+9999MW1711REMSYN066AAXX  31121 22018 41997 80000 11014 21026 49652 57006 77187 8802/;
0237220180999992000020106004+69280+032800FM-12+002799999V0202001N005010300019N0500001N1-00851-01171096711ADDAA112000791AJ100339199999999AY181061AY221061GA1031+009009099GF108991031091008001031021IA1239KA1120N-00911MD1310021+9999MW1261REMSYN100AAXX  01061 22018 11584 82005 11085 21117 49671 53002 69902 72682 83932 333 21091 47033 83930 91007;
0167220180999992000020212004+69280+032800FM-12+002799999V0202601N006010750019N0500001N1-00571-00951097551ADDAY181061AY231061GF106991021091008001001021MD1410001+9999MW1021OA140100901REMSYN082AAXX  02121 22018 41599 62606 11057 21095 49755 54000 70283 82902 333 91009 91113;
0215220180999992000020306004+69280+032800FM-12+002799999V0202601N005012200019N0500001N1-00491-00731098011ADDAA112000591AY181061AY231061GF105991021091008001001011IA1239KA1120N-00881MD1210221+9999MW1031OA140100701REMSYN100AAXX  03061 22018 11584 52605 11049 21073 49801 52022 69952 70383 82901 333 21088 4703/ 91007 91112;
0112220180999992000020412004+69280+032800FM-12+002799999V0209999C000019999999N0500001N1-01331-01461098911ADDGF108991021001999999999021MD1710231+9999REMSYN060AAXX  04121 22018 42999 80000 11133 21146 49891 57023 820/2;
0188220180999992000021306004+69280+032800FM-12+002799999V0201901N002010300019N0500001N1-00321-00601099581ADDAA199000091GF108991021051008001031021KA1120N-00701MD1810071+9999OA140100401REMSYN082AAXX  13061 22018 32584 81902 11032 21060 49958 58007 82532 333 21070 91004 91113;EQDQ01  00002PRCP99
0098220180999992000021712004+69280+032800FM-12+002799999V0202001N001019999999N0500001N1-00551-00621100591ADDGF107991071011999999031001REMSYN060AAXX  17121 22018 42999 72001 11055 21062 40059 87130 91001;
0116220180999992000022312004+69280+032800FM-12+002799999V0202301N006019999999N0500001N1-01141-01421102451ADDGF106991001001999999001021MD1810031+9999REMSYN064AAXX  23121 22018 42999 62306 11114 21142 40245 58003 80002 333;
0122220180999992000022512004+69280+032800FM-12+002799999V0209999C000019999999N0500001N1-01501-01701101521ADDGF108991011001999999041021MD1410001+9999REMSYN070AAXX  25121 22018 42999 80000 11150 21170 40152 54000 81042 333 93506;
0150220180999992000022712004+69280+032800FM-12+002799999V0202201N001010300019N0500001N1-01041-01401100751ADDAY181061AY221061GF107991011091008001031001MD1710041+9999MW1021REMSYN076AAXX  27121 22018 41599 72201 11104 21140 40075 57004 70282 81930 333 91002;
0156220180999992000030112004+69280+032800FM-12+002799999V0201001N002019999999N0200001N1-01301-01571099431ADDAY171061AY221061GF108991081001999999021999MD1710151+9999MW1711REMSYN082AAXX  01121 22018 41998 81002 11130 21157 49943 57015 77172 8802/ 333 91004 93502;
0172220180999992000030212004+69280+032800FM-12+002799999V0203601N001010051019N0200001N1-00591-00811098101ADDAY181061AY271061GA1051+005109079GF108991081091004501999999MD1710151+9999MW1851REMSYN082AAXX  02121 22018 41498 83601 11059 21081 49810 57015 78587 889// 333 85717 91002;
0232220180999992000030306004+69280+032800FM-12+002799999V0200201N011010042019N0040001N1-00231-00291097891ADDAA112003091AJ100449199999999AY181061AY231061GF108991081091004501999999IA1239KA1120N-00331MD1610011+9999MW1851OA140101601REMSYN100AAXX  03061 22018 11496 80211 11023 21029 49789 56001 60032 78583 889// 333 21033 47044 91016 91117;
0144220180999992000030312004+69280+032800FM-12+002799999V0200401N011010042019N0100001N1-00171-00191999999ADDAY181061AY251061GF108991081091004501999999MD1310241+9999MW1831REMSYN070AAXX  03121 22018 41497 80411 11017 21019 53024 78385 889// 333 91117;
0167220180999992000030412004+69280+032800FM-12+002799999V0200401N013010042019N0010001N1-00371-00421098791ADDAY181061AY231061GF108991081091004501999999MD1810111+9999MW1861OA140101901REMSYN082AAXX  04121 22018 41494 80413 11037 21042 49879 58011 78683 889// 333 91019 91119;
0122220180999992000030612004+69280+032800FM-12+002799999V0202301N001012200019N0500001N1-00721-01661100161ADDGF103991001001999999001021MD1810191+9999REMSYN070AAXX  06121 22018 42999 32301 11072 21166 40016 58019 80002 333 91002;
0150220180999992000030712004+69280+032800FM-12+002799999V0200801N003019999999N0500001N1-00551-01111098821ADDAY181061AY211061GF107991001001999999001091MD1310011+9999MW1021REMSYN076AAXX  07121 22018 41999 70803 11055 21111 49882 53001 70281 80009 333 91005;
0232220180999992000030806004+69280+032800FM-12+002799999V0200501N007010042019N0020001N1-00331-00371098411ADDAA112002091AJ100459199999999AY181061AY231061GF108991081091004501999999IA1249KA1120N-01331MD1710121+9999MW1861OA140101101REMSYN100AAXX  08061 22018 11495 80507 11033 21037 49841 57012 60022 78683 889// 333 21133 48045 91011 91114;
0232220180999992000030906004+69280+032800FM-12+002799999V0200201N003010750019N0200001N1-00251-00311098091ADDAA112003091AJ100639199999999AY181061AY231061GF108991041091008001001021IA1249KA1120N-00291MD1710051+9999MW1261OA140100401REMSYN100AAXX  09061 22018 11598 80203 11025 21031 49809 57005 60032 72683 84902 333 21029 48063 91004 91112;
0140220180999992000030912004+69280+032800FM-12+002799999V0209999C000010075019N9999999N1-00021-00291098291ADDAY181061AY221061GF108991051091008001001011MD1210111+9999MW1851REMSYN066AAXX  09121 22018 415/7 80000 11002 21029 49829 52011 78582 85901;
0147220180999992000031306004+69280+032800FM-12+002799999V0202201N009019999999N0500001N1-00731-01071999999ADDAJ100199199999999GF107991999999008001999999IA1249KA1120N-01031ME1205319REMSYN064AAXX  13061 22018 11599 72209 11073 21107 42531 333 21103 48019;
0167220180999992000031312004+69280+032800FM-12+002799999V0202101N011010300019N0500001N1-00261-00741098701ADDAY131061AY221061GF108991021051008001041021MD1710321+9999MW1361OA140101501REMSYN082AAXX  13121 22018 41599 82111 11026 21074 49870 57032 73632 82542 333 91015 91118;
0212220180999992000031406004+69280+032800FM-12+002799999V0202201N007019999999N0500001N1-00111-00691098221ADDAA112000791AJ100739199999999AY181061AY231061GF107991021001999999041091IA1249KA1120N-00341MW1011OA140101001REMSYN094AAXX  14061 22018 11999 72207 11011 21069 49822 69902 70183 82049 333 21034 48073 91010 91113;
0102220180999992000031412004+69280+032800FM-12+002799999V0202201N007019999999N0500001N1-00061-00741098661ADDGF108991081001999999071999REMSYN064AAXX  14121 22018 42999 82207 11006 21074 49866 8807/ 333 91009;
0112220180999992000031612004+69280+032800FM-12+002799999V0209999C000019999999N0500001N1-00471-00911101421ADDGF106991011001999999031011MD1210181+9999REMSYN060AAXX  16121 22018 42999 60000 11047 21091 40142 52018 81031;
0200220180999992000031706004+69280+032800FM-12+002799999V0202001N002010300019N0500001N1-00921-01081102411ADDAA199000091AJ100739199999999GF106991011091008001031011IA1249KA1120N-01251MD1210091+9999REMSYN082AAXX  17061 22018 32599 62002 11092 21108 40241 52009 81931 333 21125 48073 91002;EQDQ01  00002PRCP99
0144220180999992000031712004+69280+032800FM-12+002799999V0201901N001010075019N0500001N1-00251-00851102371ADDGA1081+007509069GF108991081051008001999999MD1810061+9999REMSYN076AAXX  17121 22018 42599 81901 11025 21085 40237 58006 885// 333 88625 91002;
0176220180999992000031906004+69280+032800FM-12+002799999V0202201N010019999999N0500001N1-00211-00561999999ADDAJ100709199999999GF107991071001999999031001IA1249KA1120N-00381ME1316319OA140101501REMSYN082AAXX  19061 22018 11999 72210 11021 21056 48631 87030 333 21038 48070 91015 91117;
0167220180999992000031912004+69280+032800FM-12+002799999V0202001N012019999999N0500001N1-00011-00511100291ADDAY131061AY221061GF108991081001999999011999MD1710341+9999MW1361OA140101701REMSYN082AAXX  19121 22018 41999 82012 11001 21051 40029 57034 73632 8801/ 333 91017 91119;
0190220180999992000032006004+69280+032800FM-12+002799999V0202201N013010300019N0500001N1+00301+00031096551ADDAA112000591AJ100629199999999GF106991021091008001031011IA1289KA1120N-00181OA140102201REMSYN094AAXX  20061 22018 //599 62213 10030 20003 49655 69962 72582 82931 333 21018 44062 91022 9112.;
0167220180999992000032212004+69280+032800FM-12+002799999V0202201N007010300019N0500001N1-00271-00571098621ADDAY181061AY211061GF107991021091008001031001MD1210041+9999MW1261OA140101201REMSYN082AAXX  22121 22018 41599 72207 11027 21057 49862 52004 72681 82930 333 91012 91112;
0122220180999992000032512004+69280+032800FM-12+002799999V0202301N002019999999N0500001N1-00271-00741100541ADDGF107991001001999999001021MD1210111+9999REMSYN070AAXX  25121 22018 42999 72302 11027 21074 40054 52011 80002 333 91004;
0204220180999992000032706004+69280+032800FM-12+002799999V0202501N006012200019N0500001N1-00951-01211101721ADDAA112001091AJ100669199999999GF101991001001999999001021IA1249KA1120N-01081MD1410001+9999OA140100801REMSYN094AAXX  27061 22018 12999 12506 11095 21121 40172 54000 60012 80002 333 21108 48066 91008 91110;
0232220180999992000033106004+69280+032800FM-12+002799999V0203401N006010075019N0500001N1-00441-00911100111ADDAA112001091AJ100639199999999AY181061AY231061GF107991051091008001031001IA1249KA1120N-00461MD1210281+9999MW1261OA140100901REMSYN100AAXX  31061 22018 11599 73406 11044 21091 40011 52028 60012 72683 85930 333 21046 48063 91009 91113;
0200220180999992000040106004+69280+032800FM-12+002799999V0201901N003010750019N0500001N1-01021-01551100321ADDAA199000091AJ100619199999999GF105991021051008001001021IA1249KA1120N-01511MD1710031+9999REMSYN082AAXX  01061 22018 32599 51903 11102 21155 40032 57003 82502 333 21151 48061 91005;EQDQ01  00002PRCP99
0232220180999992000040506004+69280+032800FM-12+002799999V0202001N007019999999N0500001N1+00071-00471100061ADDAA112003091AJ100649199999999AY171061AY231061GF108991081001999999071999IA1249KA1120N-00531MD1710151+9999MW1361OA140101101REMSYN100AAXX  05061 22018 11999 82007 10007 21047 40006 57015 60032 73673 8807/ 333 21053 48064 91011 91114;
