0150247130999992000010503004+62900+108500FM-12+024699999V0209999C000012200019N0020001N1-05161-05441105631ADDAY101031AY201031GA1001+999999999GF100991001001999999001001MD1210091+9999MW1101REMSYN060AAXX  05031 24713 41995 00000 11516 21544 40563 52009 71000;
0140247130999992000010506004+62900+108500FM-12+024699999V0209999C000012200019N0020001N1-04951-05161105631ADDAY101061AY201061GF103991001001999999001011MD1210041+9999MW1101REMSYN066AAXX  05061 24713 41995 30000 11495 21516 40563 52004 71000 80001;
0288247130999992000010600004+62900+108500FM-12+024699999V0209999C000012200019N0200001N1-05391-05631106041ADDAA106000091AA224000091AJ100539199999999GA1001+999999999GF100991001001999999001001GJ100009IA1239KA1120M-04951KA2120N-05361MA1999999102061MD1810031+9999REMSYN107AAXX  06001 24713 32998 00000 11539 21563 30206 40604 58003 333 11495 21536 47053 55000 555 1/157 7000/ /-;EQDQ01  00002PRCP06
0150247130999992000010606004+62900+108500FM-12+024699999V0209999C000012200019N0010001N1-05101-05301105881ADDAY101061AY201061GA1001+999999999GF100991001001999999001001MD1710101+9999MW1101REMSYN060AAXX  06061 24713 41994 00000 11510 21530 40588 57010 71000;
0140247130999992000011000004+62900+108500FM-12+024699999V0209999C000019999999N0100001N1-03401-03611103631ADDAY171061AY221061GF108991001001999999001071MD1310021+9999MW1711REMSYN066AAXX  10001 24713 41997 80000 11340 21361 40363 53002 77172 80007;
0140247130999992000011006004+62900+108500FM-12+024699999V0209999C000019999999N0500001N1-03251-03481103611ADDAY171061AY221061GF107991031001999999031011MD1810011+9999MW1021REMSYN066AAXX  10061 24713 41999 70000 11325 21348 40361 58001 70272 83031;
0275247130999992000011100004+62900+108500FM-12+024699999V0209999C000012200019N0200001N1-04491-04761103871ADDAA112000791AA224999929AJ100539199999999GA1001+999999999GF100991001001999999001001GJ100009IA1239KA1120M-03171KA2120N-04701MA1999999100211MD1810041+9999REMSYN113AAXX  11001 24713 32998 00000 11449 21476 30021 40387 58004 69902 333 11317 21470 47053 55000 555 1/150 7990/ /-;
0150247130999992000011103004+62900+108500FM-12+024699999V0209999C000012200019N0040001N1-04551-04761103911ADDAY101031AY201031GA1001+999999999GF100991001001999999001001MD1310031+9999MW1101REMSYN060AAXX  11031 24713 41996 00000 11455 21476 40391 53003 71000;
0112247130999992000011106004+62900+108500FM-12+024699999V0209999C000012200019N0200001N1-04131-04381103811ADDGF102991001001999999001011MD1810171+9999REMSYN060AAXX  11061 24713 42998 20000 11413 21438 40381 58017 80001;
0140247130999992000011203004+62900+108500FM-12+024699999V0209999C000019999999N0100001N1-03911-04111102491ADDAY171031AY221031GF108991001001999999001071MD1710101+9999MW1711REMSYN066AAXX  12031 24713 41997 80000 11391 21411 40249 57010 77172 80007;
0140247130999992000011206004+62900+108500FM-12+024699999V0209999C000019999999N0100001N1-03571-03801102241ADDAY171061AY221061GF108991001001999999001071MD1710191+9999MW1711REMSYN066AAXX  12061 24713 41997 80000 11357 21380 40224 57019 77172 80007;
0112247130999992000011303004+62900+108500FM-12+024699999V0209999C000010075019N0500001N1-03111-03341101551ADDGF107991051051008001001011MD1710061+9999REMSYN060AAXX  13031 24713 42599 70000 11311 21334 40155 57006 85501;
0112247130999992000011306004+62900+108500FM-12+024699999V0209999C000010075019N0500001N1-02801-02981101341ADDGF107991061051008001001011MD1710151+9999REMSYN060AAXX  13061 24713 42599 70000 11280 21298 40134 57015 86501;
0144247130999992000011406004+62900+108500FM-12+024699999V0202001N002010075019N0100001N1-01791-01981101371ADDAY181061AY221061GF108991061091008001001071MD1210081+9999MW1851REMSYN070    AAXX  14061 24713 41597 82002 11179 21198 40137 52008 78582 86907;
0297247130999992000011700004+62900+108500FM-12+024699999V0209999C000019999999N0100001N1-03001-03231102011ADDAA112000191AA224000491AJ100539199999999AY171061AY221061GF108991001001999999001071GJ100009IA1239KA1120M-02951KA2120N-03301MA1999999098551MD1410001+9999MW1711REMSYN129    AAXX  17001 24713 11997 80000 11300 21323 39855 40201 54000 69922 77172 80007 333 11295 21330 47053 55000 555 1/129 7994/ /-;
0144247130999992000011703004+62900+108500FM-12+024699999V0209999C000019999999N0500001N1-03341-03561102161ADDAY171031AY221031GF107991031001999999031011MD1210101+9999MW1021REMSYN070    AAXX  17031 24713 41999 70000 11334 21356 40216 52010 70272 83031;
0144247130999992000011706004+62900+108500FM-12+024699999V0209999C000010075019N0100001N1-02861-03191102181ADDAY181061AY271061GF108991061091008001001071MD1210071+9999MW1851REMSYN070    AAXX  17061 24713 41597 80000 11286 21319 40218 52007 78587 86907;
0116247130999992000011803004+62900+108500FM-12+024699999V0201801N002019999999N0500001N1-02971-03211103151ADDGF105991011001999999041011MD1210091+9999REMSYN064    AAXX  18031 24713 42999 51802 11297 21321 40315 52009 81041;
0116247130999992000011806004+62900+108500FM-12+024699999V0202001N002012200019N0500001N1-02991-03231103211ADDGF102991001001999999001011MD1210061+9999REMSYN064    AAXX  18061 24713 42999 22002 11299 21323 40321 52006 80001;
0297247130999992000011900004+62900+108500FM-12+024699999V0209999C000012200019N0200001N1-04321-04561103221ADDAA124000091AJ100539199999999GA1001+999999999GF100991001001999999001001GJ101929IA1239KA1120M-02801KA2120N-04401MA1999999099531MD1710031+9999REMSYN111    AAXX  19001 24713 32998 00000 11432 21456 39953 40322 57003 333 11280 21440 47053 55032 555 1/147 7000/ /-;EQDQ01  00002PRCP99Q02  00003PRCP99
0154247130999992000011903004+62900+108500FM-12+024699999V0209999C000012200019N0040001N1-04251-04431103181ADDAY101031AY201031GA1001+999999999GF100991001001999999001001MD1710061+9999MW1101REMSYN064    AAXX  19031 24713 41996 00000 11425 21443 40318 57006 71000;
0144247130999992000011906004+62900+108500FM-12+024699999V0209999C000019999999N0040001N1-03901-04111103001ADDAY171061AY211061GF108991001001999999001071MD1710091+9999MW1711REMSYN070    AAXX  19061 24713 41996 80000 11390 21411 40300 57009 77171 80007;
0272247130999992000012000004+62900+108500FM-12+024699999V0209999C000012200019N0200001N1-04401-04631102941ADDAA112000591AA224000891AJ100539199999999AY171061AY211061GF103991001001999999001011GJ100009IA1239KA1120M-03311KA2120N-04401MD1310101+9999MW1011REMSYN119AAXX  20001 24713 11998 30000 11440 21463 40294 53010 69962 70171 80001 333 11331 21440 47053 55000 555 1/145 7998/ /-;
0159247130999992000012003004+62900+108500FM-12+024699999V0209999C000010300019N0500001N1-04001-04211999999ADDAY181031AY211031GF106991031031008001031011MD1210151+9999MW1161REMSYN066AAXX  20031 24713 41599 60000 11400 21421 40203 52015 71681 83331;EQDQ01 102033APOSLP
0159247130999992000012006004+62900+108500FM-12+024699999V0209999C000019999999N0500001N1-03701-03911103122ADDAY181061AY211061GF105991001001999999001011MD1210131+9999MW1021REMSYN066AAXX  20061 24713 41999 50000 11370 21391 40312 52013 70281 80001;EQDQ01+103123APOSLP
0294247130999992000012100004+62900+108500FM-12+024699999V0209999C000012200019N0200001N1-04781-05051104481ADDAA112000791AA224999999AJ100539199999999GA1001+999999999GF100991001001999999001001GJ100969IA1239KA1120M-03701KA2120N-04801MA1999999100661MD1210191+9999REMSYN113AAXX  21001 24713 32998 00000 11478 21505 30066 40448 52019 69902 333 11370 21480 47053 55016 555 1/151 7990/ /-;EQDQ01  99992PRCP24
0150247130999992000012103004+62900+108500FM-12+024699999V0209999C000012200019N0040001N1-04751-05051104711ADDAY101031AY201031GA1001+999999999GF100991001001999999001001MD1210231+9999MW1101REMSYN060AAXX  21031 24713 41996 00000 11475 21505 40471 52023 71000;
0150247130999992000012106004+62900+108500FM-12+024699999V0209999C000012200019N0040001N1-04221-04431104711ADDAY101061AY201061GA1001+999999999GF100991001001999999001001MD1210091+9999MW1101REMSYN060AAXX  21061 24713 41996 00000 11422 21443 40471 52009 71000;
0267247130999992000012400004+62900+108500FM-12+024699999V0202901N001019999999N0200001N1-01791-02051104421ADDAA124000091AJ100049199999999GF107991051001999999031011GJ101929IA1239KA1120M+99999KA2120N-03331MA1999999101041MD1710041+9999REMSYN113AAXX  24001 24713 42998 72901 11179 21205 30104 40442 57004 85031 333 11303 21333 47004 55032 555 1/124 7000/ /-;EQDQ01 -03032ATMX  
0112247130999992000012403004+62900+108500FM-12+024699999V0202901N002019999999N0500001N1-01851-02111104411ADDGF106991001001999999001011MD1710011+9999REMSYN060AAXX  24031 24713 42999 62902 11185 21211 40441 57001 80001;
0112247130999992000012406004+62900+108500FM-12+024699999V0202701N002019999999N0500001N1-01081-01911104421ADDGF106991001001999999001011MD1310041+9999REMSYN060AAXX  24061 24713 42999 62702 11108 21191 40442 53004 80001;
0112247130999992000012503004+62900+108500FM-12+024699999V0209999C000019999999N0500001N1-03501-03731104761ADDGF106991001001999999001011MD1710011+9999REMSYN060AAXX  25031 24713 42999 60000 11350 21373 40476 57001 80001;
0112247130999992000012506004+62900+108500FM-12+024699999V0209999C000019999999N0500001N1-02951-03191104511ADDGF106991021001999999031011MD1710181+9999REMSYN060AAXX  25061 24713 42999 60000 11295 21319 40451 57018 82031;
0299247130999992000012600004+62900+108500FM-12+024699999V0209999C000012200019N0200001N1-03151+99999103141ADDAA124000091AJ100539199999999GF102991001001999999001011GJ102409IA1239KA1120M-02091KA2120N+99999MA1999999099761MD1710081+9999REMSYN113AAXX  26001 24713 32998 20000 11315 21237 39976 40314 57008 80001 333 11209 21220 47053 55040 555 1/128 7000/ /-;EQDQ01  00002PRCP99Q02  00003PRCP99Q03 -02202ATMN  
0112247130999992000012603004+62900+108500FM-12+024699999V0202001N001019999999N0500001N1-02201-02381103081ADDGF105991021001999999031011MD1710061+9999REMSYN060AAXX  26031 24713 42999 52001 11220 21238 40308 57006 82031;
0112247130999992000012606004+62900+108500FM-12+024699999V0202001N001019999999N0500001N1-01961-02221102941ADDGF108991001001999999001071MD1710111+9999REMSYN060AAXX  26061 24713 42999 82001 11196 21222 40294 57011 80007;
0140247130999992000012703004+62900+108500FM-12+024699999V0202301N002019999999N0040001N1-01881-02071102661ADDAY171031AY221031GF108991081001999999021999MD1210071+9999MW1711REMSYN066AAXX  27031 24713 41996 82302 11188 21207 40266 52007 77172 8802/;
0140247130999992000012706004+62900+108500FM-12+024699999V0202501N001012200019N0500001N1-01751-02011102811ADDAY171061AY221061GF106991011011008001001011MD1210171+9999MW1021REMSYN066AAXX  27061 24713 41599 62501 11175 21201 40281 52017 70272 81101;
0258247130999992000012800004+62900+108500FM-12+024699999V0209999C000012200019N0200001N1-03601-03841104131ADDAA112000591AA224999999AJ100549199999999GA1001+999999999GF100991001001999999001001IA1239KA1120M-01721MD1210131+9999REMSYN113AAXX  28001 24713 32998 00000 11360 21384 3/051 40413 52013 69962 333 11172 21/60 47054 50/48 555 1/1 2 7954/ .-;EQDQ01  95402PRCP24
0122247130999992000012803004+62900+108500FM-12+024699999V02099999999992200019N0500001N1-03751-03911104291ADDGA1001+999999999GF100991001001999999001001MD1210131+9999REMSYN054AAXX  28031 24713 42999 0000/ 11375 21391 40429 52013;
0122247130999992000012806004+62900+108500FM-12+024699999V0209999C000012200019N0500001N1+99999+99999104271ADDGA1001+999999999GF100991001001999999001001MD1210051+9999REMSYN054AAXX  28061 24713 42999 00000 18330 21353 40427 52005;
0140247130999992000013103004+62900+108500FM-12+024699999V0209999C000019999999N0040001N1-01601-01791102691ADDAY171031AY221031GF108991081001999999021999MD1710061+9999MW1711REMSYN066AAXX  31031 24713 41996 80000 11160 21179 40269 57006 77172 8802/;
0140247130999992000013106004+62900+108500FM-12+024699999V0209999C000019999999N0500001N1-01541-01821102551ADDAY171061AY221061GF108991031001999999031011MD1710131+9999MW1021REMSYN066AAXX  31061 24713 41999 80000 11154 21182 40255 57013 70272 83031;
0265247130999992000020100004+62900+108500FM-12+024699999V02099999999999999999N0200001N1-02351-02531101731ADDAA112000191AA224000291AJ100549199999999GF108991001001999999001071GJ100849IA1239KA1120M-01501KA2120N-02601MA1999999098381MD1710101+9999REMSYN119AAXX  01001 24713 32998 808/0 11235 21253 39838 40173 57010 69922 80007 333 11150 21260 47054 55014 555 1/123 7992/ /-;
0140247130999992000020106004+62900+108500FM-12+024699999V0202001N001019999999N0500001N1-01601-01871101711ADDAY181061AY221061GF106991021001999999031011MD1210051+9999MW1021REMSYN066AAXX  01061 24713 41999 62001 11160 21187 40171 52005 70282 82031;
0293247130999992000020200004+62900+108500FM-12+024699999V0209999C000012200019N0100001N1-02831-03001102291ADDAA112000791AA224999929AJ100549199999999AY181061AY221061GF106991021091008001001011GJ102529IA1239KA1120M-01511KA2120N-02861MA1999999098851MD1210071+9999MW1851REMSYN125AAXX  02001 24713 11597 60000 11283 21300 39885 40229 52007 69902 78582 82901 333 11151 21286 47054 55042 555 1/134 7990/ /-;
0140247130999992000020203004+62900+108500FM-12+024699999V0209999C000012200019N0500001N1-03051-03311102441ADDAY181031AY211031GF102991001001999999001011MD1210101+9999MW1011REMSYN066AAXX  02031 24713 41999 20000 11305 21331 40244 52010 70181 80001;
0150247130999992000020206004+62900+108500FM-12+024699999V0203601N001012200019N0500001N1-02601-02971102451ADDAY181061AY211061GA1001+999999999GF100991001001999999001001MD1210081+9999MW1011REMSYN060AAXX  02061 24713 41999 03601 11260 21297 40245 52008 70181;
0112247130999992000020303004+62900+108500FM-12+024699999V0209999C000012200019N0500001N1-03801-04031103591ADDGF102991001001999999001011MD1210181+9999REMSYN060AAXX  03031 24713 42999 20000 11380 21403 40359 52018 80001;
0141247130999992000020306004+62900+108500FM-12+024699999V0209999C000012200019N0500001N1-02901-03131101532ADDGA1001+999999999GF100991001001999999001001MD1210091+9999REMSYN054AAXX  03061 24713 42999 00000 11290 21313 40153 52009;EQDQ01+101533APOSLP
0293247130999992000020400004+62900+108500FM-12+024699999V0209999C000012200019N0200001N1-03851-04071104091ADDAA124000091AJ100549199999999GA1001+999999999GF100991001001999999001001GJ103069IA1239KA1120M-03051KA2120N-03851MA1999999100431MD1210021+9999REMSYN107AAXX  04001 24713 32998 00000 11385 21407 30043 40409 52002 333 11305 21385 47054 55051 555 1/141 7000/ /-;EQDQ01  00002PRCP99Q02  00003PRCP99
0140247130999992000020403004+62900+108500FM-12+024699999V0209999C000012200019N0040001N1-03821-04031104171ADDAY101031AY201031GF103991001001999999001011MD1210091+9999MW1101REMSYN066AAXX  04031 24713 41996 30000 11382 21403 40417 52009 71000 80001;
0112247130999992000020703004+62900+108500FM-12+024699999V0201601N003019999999N0500001N1-02081-02331102351ADDGF108991081001999999011999MD1710251+9999REMSYN060AAXX  07031 24713 42999 81603 11208 21233 40235 57025 8801/;
0112247130999992000020706004+62900+108500FM-12+024699999V0201601N003019999999N0500001N1-01861-02011102291ADDGF108991081001999999011999MD1710181+9999REMSYN060AAXX  07061 24713 42999 81603 11186 21201 40229 57018 8801/;
0293247130999992000020800004+62900+108500FM-12+024699999V0209999C000019999999N0200001N1-01981-02171101541ADDAA112000591AA224003091AJ100549199999999AY171061AY221061GF106991031001999999031011GJ100009IA1239KA1120M-01711KA2120N-02061MA1999999098201MD1310091+9999MW1221REMSYN125AAXX  08001 24713 11998 60000 11198 21217 3982/ 40154 53009 69942 72272 83031 333 11171 21206 47054 55000 555 1/120 7003/ /-;
0140247130999992000020803004+62900+108500FM-12+024699999V0209999C000010075019N0040001N1-01931-02121101641ADDAY181031AY221031GF107991061021008001001011MD1310101+9999MW1851REMSYN066AAXX  08031 24713 41596 70000 11193 21212 40164 53010 78582 86201;
0140247130999992000020806004+62900+108500FM-12+024699999V0202701N002019999999N0500001N1-01861-02141101701ADDAY181061AY221061GF106991021001008001031011MD1210061+9999MW1021REMSYN066AAXX  08061 24713 41599 62702 11186 21214 40170 52006 70282 82031;
0140247130999992000020903004+62900+108500FM-12+024699999V0209999C000010300019N0200001N1-03201-03371102321ADDAY181031AY221031GF106991021031008001031011MD1710081+9999MW1161REMSYN066AAXX  09031 24713 41598 60000 11320 21337 40232 57008 71682 82331;
0140247130999992000020906004+62900+108500FM-12+024699999V0209999C000010750019N0500001N1-02201-02361102231ADDAY181061AY221061GF105991021031008001031011MD1210041+9999MW1161REMSYN066AAXX  09061 24713 41599 50000 11220 21236 40223 52004 71682 82331;
0265247130999992000021000004+62900+108500FM-12+024699999V0209999C000019999999N0200001N1-03501-03741102861ADDAA112000191AA224000291AJ100569199999999GF105991001001999999001011GJ100489IA1239KA1120M-02091KA2120N-03551MA1999999099301MD1210031+9999REMSYN119AAXX  10001 24713 32998 50000 11350 21374 39930 40286 52003 69922 80001 333 11209 21355 47056 55008 555 1/136 7992/ /-;
0140247130999992000021003004+62900+108500FM-12+024699999V0209999C000010075019N0500001N1-03151-03381102871ADDAY181031AY221031GF107991061031008001001011MD1210061+9999MW1261REMSYN066AAXX  10031 24713 41599 70000 11315 21338 40287 52006 72682 86301;
0140247130999992000021006004+62900+108500FM-12+024699999V0209999C000019999999N0500001N1-02371-02551102691ADDAY181061AY221061GF107991041001999999031011MD1810071+9999MW1021REMSYN066AAXX  10061 24713 41999 70000 11237 21255 40269 58007 70282 84031;
0122247130999992000021103004+62900+108500FM-12+024699999V0209999C000012200019N0500001N1-03681-03911103451ADDGA1001+999999999GF100991001001999999001001MD1210131+9999REMSYN054AAXX  11031 24713 42999 00000 11368 21391 40345 52013;
0157247130999992000021106004+62900+108500FM-12+024699999V0209999C000012200019N0500001N1-02402-02582103291ADDGA1001+999999999GF100991001001999999001001MD1210031+9999REMSYN054AAXX  11061 24713 42999 00000 11240 21258 40329 52003;EQDQ01-002403ATOT  Q02-002583ATOD  
0112247130999992000021403004+62900+108500FM-12+024699999V0209999C000019999999N0500001N1-03421-03641103491ADDGF106991001001999999001011MD1710061+9999REMSYN060AAXX  14031 24713 42999 60000 11342 21364 40349 57006 80001;
0112247130999992000021406004+62900+108500FM-12+024699999V0209999C000019999999N0500001N1-02831-03061103281ADDGF105991001001999999001011MD1710131+9999REMSYN060AAXX  14061 24713 42999 50000 11283 21306 40328 57013 80001;
0122247130999992000021503004+62900+108500FM-12+024699999V0209999C000012200019N0500001N1-03501-03741103291ADDGA1001+999999999GF100991001001999999001001MD1710031+9999REMSYN054AAXX  15031 24713 42999 00000 11350 21374 40329 57003;
0122247130999992000021506004+62900+108500FM-12+024699999V0209999C000012200019N0500001N1-02751-02991103061ADDGA1001+999999999GF100991001001999999001001MD1810111+9999REMSYN054AAXX  15061 24713 42999 00000 11275 21299 40306 58011;
0293247130999992000021600004+62900+108500FM-12+024699999V0209999C000012200019N0200001N1-04151-04371103151ADDAA124000091AJ100569199999999GA1001+999999999GF100991001001999999001001GJ103429IA1239KA1120M-02401KA2120N-04231MA1999999099471MD1310011+9999REMSYN107AAXX  16001 24713 32998 00000 11415 21437 39947 40315 53001 333 11240 21423 47056 55057 555 1/146 7000/ /-;EQDQ01  00002PRCP99Q02  00003PRCP99
0122247130999992000021603004+62900+108500FM-12+024699999V0209999C000012200019N0200001N1-03751-03991103061ADDGA1001+999999999GF100991001001999999001001MD1810021+9999REMSYN054AAXX  16031 24713 42998 00000 11375 21399 40306 58002;
0283247130999992000021700004+62900+108500FM-12+024699999V0209999C000012200019N9999999N1-03801-04031103011ADDAA124000091AJ100569199999999GF103991001001999999001011GJ103009IA1239KA1120M-02471KA2120N-03851MA1999999099411MD1410001+9999REMSYN113AAXX  17001 24713 3/98/ 30000 11380 21403 39941 40301 54000 80001 333 11247 21385 47056 55050 555 1/142 7000/ /-;EQDQ01  00002PRCP99Q02  00003PRCP99
0131247130999992000021703004+62900+108500FM-12+024699999V0209999C000019999999N0500001N1-03071-03291102202ADDGF106991001001999999001011MD1410001+9999REMSYN060AAXX  17031 24713 42999 60000 11307 21329 4022/ 54000 80001;EQDQ01+102203APOSLP
0112247130999992000021706004+62900+108500FM-12+024699999V0209999C000019999999N0500001N1-02181-02501102751ADDGF106991021001999999031011MD1710031+9999REMSYN060AAXX  17061 24713 42999 60000 11218 21250 40275 57003 82031;
0283247130999992000021800004+62900+108500FM-12+024699999V0209999C000019999999N0200001N1-03001-03171102871ADDAA124000091AJ100569199999999GF108991021001999999041071GJ103069IA1239KA1120M-01961KA2120N-03141MA1999999099401MD1810021+9999REMSYN113AAXX  18001 24713 32998 80000 11300 21317 39940 40287 58002 82047 333 11196 21314 47056 55051 555 1/136 7000/ /-;EQDQ01  00002PRCP99Q02  00003PRCP99
0140247130999992000021803004+62900+108500FM-12+024699999V0209999C000019999999N0040001N1-02621-02801102981ADDAY171031AY211031GF108991021001999999031071MD1310141+9999MW1721REMSYN066AAXX  18031 24713 41996 80000 11262 21280 40298 53014 77271 82037;
0140247130999992000021806004+62900+108500FM-12+024699999V0209999C000019999999N0500001N1-02151-02401102901ADDAY171061AY221061GF106991021001999999031011MD1810011+9999MW1021REMSYN066AAXX  18061 24713 41999 60000 11215 21240 40290 58001 70272 82031;
0283247130999992000022100004+62900+108500FM-12+024699999V0209999C000012200019N0200001N1-04121-04311103371ADDAA124000091AJ100569199999999GF103991001001999999001011GJ104689IA1239KA1120M-03211KA2120N-04121MA1999999099711MD1210011+9999REMSYN113AAXX  21001 24713 32998 30000 11412 21431 39971 40337 52001 80001 333 11321 21412 47056 55078 555 1/145 7000/ /-;EQDQ01  00002PRCP99Q02  00003PRCP99
0122247130999992000022106004+62900+108500FM-12+024699999V0209999C000012200019N0500001N1-02701+99999103171ADDGA1001+999999999GF100991001001999999001001MD1810051+9999REMSYN054AAXX  21061 24713 42999 00000 11270 21201 40317 58005;
0283247130999992000022300004+62900+108500FM-12+024699999V0209999C000012200019N0200001N1-04101-04311102601ADDAA124000091AJ100569199999999GF102991001001999999001011GJ104629IA1239KA1120M-02101KA2120N-04201MA1999999098861MD1710091+9999REMSYN113AAXX  23001 24713 32998 20000 11410 21431 39886 40260 57009 80001 333 11210 21420 47056 55077 555 1/146 7000/ /-;EQDQ01  00002PRCP99Q02  00003PRCP99
0122247130999992000022303004+62900+108500FM-12+024699999V0209999C000012200019N0500001N1-03681-03911102411ADDGA1001+999999999GF100991001001999999001001MD1710021+9999REMSYN054AAXX  23031 24713 42999 00000 11368 21391 40241 57002;
0112247130999992000022403004+62900+108500FM-12+024699999V0209999C000019999999N0200001N1-03351-03591102111ADDGF105991001001999999001011MD1210081+9999REMSYN060AAXX  24031 24713 42998 50000 11335 21359 40211 52008 80001;
0112247130999992000022406004+62900+108500FM-12+024699999V0209999C000012200019N0500001N1-02681-03001102001ADDGF103991001001999999001011MD1210021+9999REMSYN060AAXX  24061 24713 42999 30000 11268 21300 40200 52002 80001;
0284247130999992000022500004+62900+108500FM-12+024699999V0209999C000019999999N0200001N1-04011-04211102931ADDAA112000791AA224999999AJ100569199999999GF106991001001999999001011GJ103969IA1239KA1120M-02551KA2120N-04101MA1999999099291MD1210091+9999REMSYN119AAXX  25001 24713 32998 60000 11401 21421 39929 40293 52009 69902 80001 333 11255 21410 47056 55066 555 1/146 7990/ /-;EQDQ01  99992PRCP24
0140247130999992000022503004+62900+108500FM-12+024699999V0209999C000010300019N0500001N1-03551-03771102491ADDAY181031AY221031GF106991021031008001031011MD1210121+9999MW1261REMSYN066AAXX  25031 24713 41599 60000 11355 21377 40249 52012 72682 82331;
0140247130999992000022506004+62900+108500FM-12+024699999V0209999C000019999999N0500001N1-02861-03051103041ADDAY181061AY221061GF106991021001999999031011MD1210131+9999MW1021REMSYN066AAXX  25061 24713 41999 60000 11286 21305 40304 52013 70282 82031;
0137247130999992000022803004+62900+108500FM-12+024699999V0209999C000019999999N0100001N1-02211-02401100981ADDGF107991999051008001081021MD1410001+9999REMSYN066AAXX  28031 24713 41597 70000 11221 21240 40098 54000 88582 85931;EQDQ01+000082SCOTLC
0159247130999992000022806004+62900+108500FM-12+024699999V0209999C000010300019N0500001N1-01361-03632100921ADDAY181061AY221061GF106991021031008001031011MD1210031+9999MW1161REMSYN066AAXX  28061 24713 41599 60000 11136 21363 40092 52003 71682 82331;EQDQ01-003633ATOD  
0284247130999992000022900004+62900+108500FM-12+024699999V0209999C000019999999N0200001N1-03061-03291101511ADDAA112000791AA224999999AJ100579199999999GF108991001001999999001071GJ102529IA1239KA1120M-01261KA2120N-03061MA1999999098051MD1410001+9999REMSYN119AAXX  29001 24713 32998 80000 11306 21329 39805 40151 54000 69902 80007 333 11126 21306 47057 55042 555 1/130 7990/ /-;EQDQ01  99992PRCP24
0112247130999992000022903004+62900+108500FM-12+024699999V0209999C000019999999N0500001N1-02601-02841101501ADDGF108991001001999999001071MD1210071+9999REMSYN060AAXX  29031 24713 42999 80000 11260 21284 40150 52007 80007;
0112247130999992000022906004+62900+108500FM-12+024699999V0200201N001019999999N0500001N1-01651-01991101411ADDGF108991001001999999001071MD1210041+9999REMSYN060AAXX  29061 24713 42999 80201 11165 21199 40141 52004 80007;
0284247130999992000030100004+62900+108500FM-12+024699999V0209999C000019999999N0200001N1-03151-03321101741ADDAA112000791AA224999999AJ100579199999999GF106991001001999999001011GJ102109IA1239KA1120M-01361KA2120N-03281MA1999999098261MD1810101+9999REMSYN119AAXX  01001 24713 32998 60000 11315 21332 39826 40174 58010 69902 80001 333 11136 21328 47057 55035 555 1/176 79901 /-;EQDQ01  99992PRCP24
0112247130999992000030103004+62900+108500FM-12+024699999V0209999C000019999999N0500001N1-02401-02581101501ADDGF105991001001999999001011MD1710121+9999REMSYN060AAXX  01031 24713 42999 50000 11240 21258 40150 57012 80001;
0140247130999992000030106004+62900+108500FM-12+024699999V0209999C000012200019N0500001N1-01551-01821101281ADDAY181061AY221061GF103991021091008001001011MD1710101+9999MW1851REMSYN066AAXX  01061 24713 41599 30000 11155 21182 40128 57010 78582 82901;
0293247130999992000030200004+62900+108500FM-12+024699999V0209999C000012200019N0200001N1-03501-03741101221ADDAA112000791AA224999929AJ100579199999999AY181061AY211061GF105991021091008001001011GJ104209IA1239KA1120M-01341KA2120N-03501MA1999999097721MD1710091+9999MW1261REMSYN125AAXX  02001 24713 11598 50000 11350 21374 39772 40122 57009 69902 72681 82901 333 11134 21350 47057 55070 555 1/135 7990/ /-;
0140247130999992000030203004+62900+108500FM-12+024699999V0209999C000012200019N0500001N1-02801-02981100921ADDAY181031AY221031GF106991031031008001001011MD1710191+9999MW1161REMSYN066AAXX  02031 24713 41599 60000 11280 21298 40092 57019 71682 83301;
0140247130999992000030206004+62900+108500FM-12+024699999V0209999C000012200019N0500001N1-01791-02121100561ADDAY181061AY221061GF106991031031008001001011MD1710221+9999MW1261REMSYN066AAXX  02061 24713 41599 60000 11179 21212 40056 57022 72682 83301;
0140247130999992000030303004+62900+108500FM-12+024699999V0202701N004019999999N0500001N1-01631-01891100861ADDAY181031AY231031GF108991001001999999001071MD1210161+9999MW1361REMSYN066AAXX  03031 24713 41999 82704 11163 21189 40086 52016 73683 80007;
0140247130999992000030306004+62900+108500FM-12+024699999V0202701N005012200019N0500001N1-01511-01931101061ADDAY181061AY231061GF106991031021008001001011MD1210201+9999MW1361REMSYN066AAXX  03061 24713 41599 62705 11151 21193 40106 52020 73683 83201;
0293247130999992000030600004+62900+108500FM-12+024699999V0209999C000019999999N0100001N1-02461-02701102701ADDAA112000791AA224999929AJ100589199999999AY171061AY211061GF108991001001999999001071GJ105169IA1239KA1120M-01751KA2120N-03071MA1999999099291MD1710121+9999MW1711REMSYN125AAXX  06001 24713 11997 80000 11246 21270 39929 40270 57012 69902 77171 80007 333 11175 21307 47058 55086 555 1/128 7990/ /-;
0140247130999992000030603004+62900+108500FM-12+024699999V0202001N002019999999N0500001N1-01891-02221102531ADDAY171031AY221031GF108991001001999999001071MD1710091+9999MW1021REMSYN066AAXX  06031 24713 41999 82002 11189 21222 40253 57009 70272 80007;
0140247130999992000030606004+62900+108500FM-12+024699999V0202701N001010075019N0100001N1-01671-02091102401ADDAY181061AY271061GF108991051031008001001071MD1710091+9999MW1851REMSYN066AAXX  06061 24713 41597 82701 11167 21209 40240 57009 78587 85307;
0275247130999992000030700004+62900+108500FM-12+024699999V0209999C000012200019N0500001N1-03651-03871103311ADDAA112000191AA224000291AJ100589199999999GA1001+999999999GF100991001001999999001001GJ101869IA1239KA1120M-01601KA2120N-03781MA1999999099711MD1210071+9999REMSYN113AAXX  07001 24713 32999 00000 11365 21387 39971 40331 52007 69922 333 11160 21378 47058 55031 555 1/141 7992/ /-;
0122247130999992000030703004+62900+108500FM-12+024699999V0209999C000012200019N0500001N1-02771-03031103451ADDGA1001+999999999GF100991001001999999001001MD1210061+9999REMSYN054AAXX  07031 24713 42999 00000 11277 21303 40345 52006;
0112247130999992000030706004+62900+108500FM-12+024699999V0209999C000019999999N0500001N1-01951-02361103081ADDGF106991031001999999031011MD1810031+9999REMSYN060AAXX  07061 24713 42999 60000 11195 21236 40308 58003 83031;
0284247130999992000030900004+62900+108500FM-12+024699999V0209999C000019999999N0500001N1-02641-02801102531ADDAA112000791AA224999999AJ100599199999999GF106991021001999999031011GJ105049IA1239KA1120M-00961KA2120N-02751MA1999999099111MD1210051+9999REMSYN119AAXX  09001 24713 32999 60000 11264 21280 39911 40253 52005 69902 82031 333 11096 21275 47059 55084 555 1/127 7990/ /-;EQDQ01  99992PRCP24
0179247130999992000030903004+62900+108500FM-12+024699999V0209999C000019999999N0500001N1-01262-01532999999ADDGF106991001001999999001011MD1310141+9999REMSYN060AAXX  09031 24713 42999 60000 11126 21153 40149 53014 80001;EQDQ01-001263ATOT  Q02-001533ATOD  Q03+101493APOSLPQ04 101493APOSLP
0131247130999992000030906004+62900+108500FM-12+024699999V0203201N003019999999N0500001N1-00761-01361102522ADDGF106991001001999999001011MD1210091+9999REMSYN060AAXX  09061 24713 42999 63203 11076 21136 40252 52009 80001;EQDQ01+102523APOSLP
0272247130999992000031000004+62900+108500FM-12+024699999V0209999C000012200019N0500001N1-03021+99999103281ADDAA124000091AJ100399199999999GA1001+999999999GF100991001001999999001001GJ103489IA1239KA1120M-00611KA2120N-03071MD1210031+9999REMSYN101AAXX  10001 24713 32999 00000 11302 399/1 40328 52003 333 11061 21307 47039 55058 555 1/134 7000/ /-;EQDQ01  00002PRCP99Q02  00003PRCP99
0140247130999992000031003004+62900+108500FM-12+024699999V0209999C000012200019N0500001N1-02201-02381103101ADDAY181031AY201031GF102991011031008001001011MD1810041+9999MW1161REMSYN066AAXX  10031 24713 41599 20000 11220 21238 40310 58004 71680 81301;
0159247130999992000031006004+62900+108500FM-12+024699999V0209999C000012200019N0500001N1-00952-01361102591ADDAY181061AY201061GF102991001001999999001011MD1710131+9999MW1021REMSYN066AAXX  10061 24713 42999 20000 11095 21136 40259 57013 70280 80001;EQDQ01-000953ATOT  
0283247130999992000031300004+62900+108500FM-12+024699999V0209999C000019999999N0500001N1-02721-02901102801ADDAA124000091AJ100599199999999GF105991001001999999001011GJ104749IA1239KA1120M-00761KA2120N-02801MA1999999099361MD1210071+9999REMSYN113AAXX  13001 24713 32999 50000 11272 21290 39936 40280 52007 80001 333 11076 21280 47059 55079 555 1/135 7000/ /-;EQDQ01  00002PRCP99Q02  00003PRCP99
0112247130999992000031303004+62900+108500FM-12+024699999V0209999C000012200019N0500001N1-01651-01841102651ADDGF102991001001999999001011MD1410001+9999REMSYN060AAXX  13031 24713 42999 20000 11165 21184 40265 54000 80001;
0122247130999992000031306004+62900+108500FM-12+024699999V0209999C000012200019N0500001N1-00971-01431102581ADDGA1001+999999999GF100991001001999999001001MD1410001+9999REMSYN054AAXX  13061 24713 42999 00000 11097 21143 40258 54000;
0283247130999992000031400004+62900+108500FM-12+024699999V0209999C000019999999N0500001N1-03151-03321103241ADDAA124000091AJ100599199999999GF105991001001999999001011GJ105409IA1239KA1120M-00961KA2120N-03201MA1999999099721MD1210061+9999REMSYN113AAXX  14001 24713 32999 50000 11315 21332 39972 40324 52006 80001 333 11096 21320 47059 55090 555 1/136 7000/ /-;EQDQ01  00002PRCP99Q02  00003PRCP99
0140247130999992000031403004+62900+108500FM-12+024699999V0209999C000010300019N0100001N1-02091-02281103161ADDAY181031AY221031GF106991021091008001031011MD1210061+9999MW1851REMSYN066AAXX  14031 24713 41597 60000 11209 21228 40316 52006 78582 82931;
0140247130999992000031406004+62900+108500FM-12+024699999V0209999C000012200019N0500001N1-01171-01611103041ADDAY181061AY211061GF103991001001999999001011MD1410001+9999MW1021REMSYN066AAXX  14061 24713 41999 30000 11117 21161 40304 54000 70281 80001;
0265247130999992000031500004+62900+108500FM-12+024699999V0209999C000012200019N0500001N1-03221-03461103031ADDAA112000792AA224000092AJ100599199999999GF102991001001999999001011GJ105349IA1239KA1120M-01051KA2120N-03351MA1999999099511MD1710051+9999REMSYN119AAXX  15001 24713 32999 20000 11322 21346 39951 40303 57005 69902 80001 333 11105 21335 47059 55089 555 1/139 7000/ /-;
0147247130999992000031503004+62900+108500FM-12+024699999V0209999C000012200019N0500001N1-01902-02162102761ADDGF102991001001999999001011MD1710081+9999REMSYN060AAXX  15031 24713 42999 20000 11190 21216 40276 57008 80001;EQDQ01-001903ATOT  Q02-002163ATOD  
0122247130999992000031506004+62900+108500FM-12+024699999V0203401N001012200019N0500001N1-01411-02021102551ADDGA1001+999999999GF100991001001999999001001MD1710151+9999REMSYN054AAXX  15061 24713 42999 03401 11141 21202 40255 57015;
0260247130999992000031600004+62900+108500FM-12+024699999V0209999C000019999999N0500001N1-03231-03461102221ADDAA124000091GF106991021001999999041011GJ105949KA1120M-01261KA2120N-03351MA1999999098731MD1710061+9999REMSYN113AAXX  16001 24713 32999 60000 11323 21346 39873 40222 57006 82041 333 11126 21335 57058 55099 555 1/134 7000/ /-;EQDQ01  00002PRCP99Q02  00003PRCP99
0134247130999992000031603004+62900+108500FM-12+024699999V0209999C000019999999N0100001N1-02161+99999102051ADDAY171031AY221031GF108991001001999999001071MD1710031+9999MW1711REMSYN060AAXX  16031 24713 41997 80000 11216 40205 57003 77172 80007;
0140247130999992000031606004+62900+108500FM-12+024699999V0209999C000012200019N0500001N1-01501-02011101901ADDAY171061AY211061GF102991001001999999001011MD1710061+9999MW1011REMSYN066AAXX  16061 24713 41999 20000 11150 21201 40190 57006 70171 80001;
0275247130999992000031700004+62900+108500FM-12+024699999V0209999C000012200019N0500001N1-03561-03971102641ADDAA112000191AA224000291AJ100589199999999GA1001+999999999GF100991001001999999001001GJ103249IA1239KA1120M-01451KA2120N-03711MA1999999099051MD1210111+9999REMSYN113AAXX  17001 24713 32999 00000 11356 21397 39905 40264 52011 69922 333 11145 21371 47058 55054 555 1/142 7992/ /-;
0147247130999992000031703004+62900+108500FM-12+024699999V0209999C000012200019N0500001N1-02102-02432102511ADDGF102991001001999999001011MD1210101+9999REMSYN060AAXX  17031 24713 42999 20000 11210 21243 40251 52010 80001;EQDQ01-002103ATOT  Q02-002433ATOD  
0112247130999992000031706004+62900+108500FM-12+024699999V0203401N001012200019N0500001N1-01621-02221102441ADDGF103991001001999999001011MD1410001+9999REMSYN060AAXX  17061 24713 42999 33401 11162 21222 40244 54000 80001;
0277247130999992000032000004+62900+108500FM-12+024699999V0209999C000012200019N0500001N1-03421-03641103111ADDAA124000091AJ100589199999999GF103991999999999999999999GJ106189IA1239KA1120M-01241KA2120N-03601MA1999999099561MD1310021+9999REMSYN107AAXX  20001 24713 32999 30000 11342 21364 39956 40311 53002 333 11124 21360 47058 55103 555 1/139 7000/ /-;EQDQ01  00002PRCP99Q02  00003PRCP99
0112247130999992000032006004+62900+108500FM-12+024699999V0203401N001019999999N0500001N1-01372-02081102731ADDGF107991031001999999031011MD1710101+9999REMSYN060AAXX  20061 24713 42999 73401 11137 21208 40273 57010 83031;
0112247130999992000032103004+62900+108500FM-12+024699999V0209999C000019999999N0500001N1-02101-02501102721ADDGF106991001001999999001011MD1410001+9999REMSYN060AAXX  21031 24713 42999 60000 11210 21250 40272 54000 80001;
0112247130999992000032106004+62900+108500FM-12+024699999V0203201N002019999999N0500001N1-01061-01901102581ADDGF106991001001999999001011MD1710111+9999REMSYN060AAXX  21061 24713 42999 63202 11106 21190 40258 57011 80001;
0284247130999992000032200004+62900+108500FM-12+024699999V0209999C000019999999N0500001N1-02901-03131102401ADDAA124000091AJ100579199999999GF108991001001999999001071GJ106489IA1239KA1120M-00851KA2120N-02971MA1999999098931MD1710061+9999REMSYN114AAXX  22001 24713 32999 80000 11290 21313 39893 40240 57006 80007 333 11085 21297 47057 55108 555 1/133 7000/ .-$;EQDQ01  00002PRCP99Q02  00003PRCP99
0112247130999992000032203004+62900+108500FM-12+024699999V0209999C000019999999N0500001N1-02351-02671102261ADDGF108991001001999999001071MD1710051+9999REMSYN060AAXX  22031 24713 42999 80000 11235 21267 40226 57005 80007;
0175247130999992000032206004+62900+108500FM-12+024699999V0209999C000019999999N0500001N1-00942-01362101961ADDAY181061AY221061GF108991021091999999001071MD1710111+9999MW1851REMSYN066AAXX  22061 24713 41999 80000 11094 21136 40196 57011 78582 82907;EQDQ01-000943ATOT  Q02-001363ATOD  
0293247130999992000032300004+62900+108500FM-12+024699999V0209999C000019999999N0100001N1-02301-02421102001ADDAA112000792AA224000592AJ100589199999999AY171061AY221061GF108991001001999999001071GJ102409IA1239KA1120M-00651KA2120N-02501MA1999999098641MD1710011+9999MW1711REMSYN125AAXX  23001 24713 11997 80000 11230 21242 39864 40200 57001 69902 77172 80007 333 11065 21250 47058 55040 555 1/127 7995/ /-;
0159247130999992000032306004+62900+108500FM-12+024699999V0202701N001019999999N0500001N1-00681-01531101751ADDAY171061AY221061GF106991999011008001031011MD1810051+9999MW1021REMSYN066AAXX  23061 24713 41599 62701 11068 21153 40175 58005 70272 89131;EQDQ01+000092SCOTLC
0265247130999992000032400004+62900+108500FM-12+024699999V0209999C000019999999N0500001N1-02901-03071102031ADDAA112000791AA224999929AJ100579199999999GF106991001001999999001011GJ105529IA1239KA1120M-00561KA2120N-03051MA1999999098581MD1210041+9999REMSYN119AAXX  24001 24713 32999 60000 11290 21307 39858 40203 52004 69902 80001 333 11056 21305 47057 55092 555 1/133 7990/ /-;
0112247130999992000032403004+62900+108500FM-12+024699999V0200201N001019999999N0500001N1-01821-02151101861ADDGF106991001001999999001011MD1810021+9999REMSYN060AAXX  24031 24713 42999 60201 11182 21215 40186 58002 80001;
0112247130999992000032406004+62900+108500FM-12+024699999V0203601N001012200019N0500001N1-00801-01671101691ADDGF106991021021008001001011MD1710031+9999REMSYN060AAXX  24061 24713 42599 63601 11080 21167 40169 57003 82201;
0293247130999992000032700004+62900+108500FM-12+024699999V0209999C000010075019N0100001N1-02071-02191102081ADDAA112000191AA224000291AJ100589199999999AY181061AY221061GF108991051091008001001071GJ106369IA1239KA1120M-00301KA2120N-02261MA1999999098741MD1210121+9999MW1851REMSYN125AAXX  27001 24713 11597 80000 11207 21219 39874 40208 52012 69922 78582 85907 333 11030 21226 47058 55106 555 1/121 7992/ /-;
0140247130999992000032706004+62900+108500FM-12+024699999V0209999C000012200019N0500001N1-00351-00871101691ADDAY181061AY221061GF106991021021008001001011MD1710151+9999MW1021REMSYN066AAXX  27061 24713 41599 60000 11035 21087 40169 57015 70282 82201;
0293247130999992000032800004+62900+108500FM-12+024699999V0201801N004010120019N0500001N1-00141-00901099921ADDAA112000791AA224999929AJ100599199999999AY181061AY231061GF108991081081008001999999GJ103129IA1239KA1120M-00101KA2120N-00461MA1999999096891MD1710151+9999MW1021REMSYN125AAXX  28001 24713 11599 81804 11014 21090 39689 49992 57015 69902 70283 888// 333 11010 21046 47059 55052 555 1/104 7990/ /-;
0140247130999992000032806004+62900+108500FM-12+024699999V0202301N005010075019N0100001N1+00301+99999999999ADDAY181061AY211061GF108991051091008001001071MD1710261+9999MW1851REMSYN066AAXX  28061 24713 41597 82305 10030 20/38 40937 57026 78581 85907;
0293247130999992000032900004+62900+108500FM-12+024699999V0202901N006010075019N0500001N1-00521-01021100051ADDAA112000391AA224000691AJ100599199999999AY171061AY231061GF108991051051008001001071GJ101329IA1239KA1120M+00301KA2120N-00551MA1999999096971MD1210181+9999MW1361REMSYN125AAXX  29001 24713 11599 82906 11052 21102 39697 40005 52018 69932 73673 85507 333 10030 21055 47059 55022 555 1/107 7996/ /-;
0140247130999992000032903004+62900+108500FM-12+024699999V0203401N005019999999N0500001N1-00691-01751100381ADDAY131031AY221031GF107991021001999999031011MD1210491+9999MW1021REMSYN066AAXX  29031 24713 41999 73405 11069 21175 40038 52049 70232 82031;
0140247130999992000032906004+62900+108500FM-12+024699999V0203401N005019999999N0500001N1-00601-01581100751ADDAY131061AY221061GF108991001001999999001071MD1210181+9999MW1021REMSYN066AAXX  29061 24713 41999 83405 11060 21158 40075 52018 70232 80007;
0283247130999992000033000004+62900+108500FM-12+024699999V0209999C000012200019N0500001N1-02251-02831101831ADDAA124000091AJ100579199999999GF102991001001999999001011GJ106069IA1239KA1120M-00531KA2120N-02851MA1999999098431MD1210061+9999REMSYN113AAXX  30001 24713 32999 20000 11225 21283 39843 40183 52006 80001 333 11053 21285 47057 55101 555 1/130 7000/ /-;EQDQ01  00002PRCP99Q02  00003PRCP99
0112247130999992000033006004+62900+108500FM-12+024699999V0202701N002012200019N0500001N1-00512-01541101501ADDGF102991001001999999001011MD1710061+9999REMSYN060AAXX  30061 24713 42999 22702 11051 21154 40150 57006 80001;
0283247130999992000033100004+62900+108500FM-12+024699999V0209999C000012200019N0500001N1-02501-02671101571ADDAA124000091AJ100589199999999GF102991011001999999041011GJ106729IA1239KA1120M-00451KA2120N-02781MA1999999098201MD1710061+9999REMSYN113AAXX  31001 24713 32999 20000 11250 21267 39820 40157 57006 81041 333 11045 21278 47058 55112 555 1/131 7000/ /-;EQDQ01  00002PRCP99Q02  00003PRCP99
0112247130999992000033103004+62900+108500FM-12+024699999V0209999C000012200019N0500001N1-01202-01821101341ADDGF103991001001999999001011MD1710061+9999REMSYN060AAXX  31031 24713 42999 30000 11120 21182 40134 57006 80001;
0283247130999992000040300004+62900+108500FM-12+024699999V0209999C000012200019N0500001N1-01871-01991101821ADDAA124000091AJ100559199999999GF102991001001999999001011GJ105709IA1239KA1120M-00101KA2120N-02111MA1999999098521MD1210241+9999REMSYN113AAXX  03001 24713 32999 20000 11187 21199 39852 40182 52024 80001 333 11010 21211 47055 55095 555 1/124 7000/ /-;EQDQ01  00002PRCP99Q02  00003PRCP99
0112247130999992000040306004+62900+108500FM-12+024699999V0202001N003012200019N0500001N1-00152-01271101781ADDGF102991001001999999001011MD1210041+9999REMSYN060AAXX  03061 24713 42999 22003 11015 21127 40178 52004 80001;
0283247130999992000040400004+62900+108500FM-12+024699999V0202501N004019999999N0500001N1-00601-01581101421ADDAA124000091AJ100559199999999GF108991001001999999001071GJ106729IA1239KA1120M-00151KA2120N-00751MA1999999098281MD1710161+9999REMSYN113AAXX  04001 24713 32999 82504 11060 21158 39828 40142 57016 80007 333 11015 21075 47055 55112 555 1/109 7000/ /-;EQDQ01  00002PRCP99Q02  00003PRCP99
0140247130999992000040406004+62900+108500FM-12+024699999V0202501N005010075019N0500001N1-00131-01301100781ADDAY121061AY221061GF108991061031008001001071MD1710201+9999MW1161REMSYN066AAXX  04061 24713 42599 82505 11013 21130 40078 57020 71622 86307;
0140247130999992000040500004+62900+108500FM-12+024699999V0202701N003010075019N0500001N1-00631-01031100051ADDAY181061AY221061GF108991081091008001999999MD1310251+9999MW1261REMSYN066AAXX  05001 24713 41599 82703 11063 21103 40005 53025 72682 889//;
0140247130999992000040506004+62900+108500FM-12+024699999V0202701N003010075019N0010001N1-01001-01261100421ADDAY181061AY221061GF108991081091008001999999MD1210311+9999MW1861REMSYN066AAXX  05061 24713 41594 82703 11100 21126 40042 52031 78682 889//;
