0187270080999992000010100004+59400+035920FM-12+013699999V0200201N001010030019N0500001N1-01031-01231101681ADDAY171061AY221061GA1071+003009069GF108991071071004501021999MA1999999099881MD1210181+9999MW1021REMSYN082AAXX  01001 27008 41484 80201 11103 21123 39988 40168 52018 70272 8772/ 333 87710;
0209270080999992000010103004+59400+035920FM-12+013699999V0200201N001010030019N0170001N1-01091-01291101781ADDAJ100289199999999AY171031AY221031GA1071+003009069GF108991071071004501021999GJ100009IA1239MD1210101+9999MW1711REMSYN088AAXX  01031 27008 /1467 80201 11109 21129 40178 52010 77172 8772/ 333 47028 55000 87710;
0180270080999992000010106004+59400+035920FM-12+013699999V0200201N001019999999N0500001N1-01081-01281101901ADDAA100000391AY171061AY221061GF107991071001999999031001KA1999N-01091MD1210121+9999MW1021REMSYN082AAXX  01061 27008 11984 70201 11108 21128 40190 52012 69930 70272 87030 333 21109;
0140270080999992000010109004+59400+035920FM-12+013699999V0203401N001019999999N0130001N1-01031-01311102071ADDAY171031AY221031GF108991081001999999071999MD1210161+9999MW1701REMSYN066AAXX  01091 27008 41963 83401 11103 21131 40207 52016 77072 8807/;
0161270080999992000010112004+59400+035920FM-12+013699999V0203601N001019999999N0400001N1-01041-01321102141ADDAY171061AY221061GF105991021001999999031021MA1999999100331MD1210071+9999MW1021REMSYN072AAXX  01121 27008 41982 53601 11104 21132 30033 40214 52007 70272 82032;
0112270080999992000010115004+59400+035920FM-12+013699999V0200201N001019999999N0500001N1-01241-01441102311ADDGF106991041001999999071021MD1210151+9999REMSYN060AAXX  01151 27008 42984 60201 11124 21144 40231 52015 84072;
0135270080999992000010118004+59400+035920FM-12+013699999V0209999C000019999999N0500001N1-01411-01611102411ADDGF108991081001999999071999KA1999M-01031MD1210101+9999REMSYN070AAXX  01181 27008 42984 80000 11141 21161 40241 52010 8807/ 333 11103;
0159270080999992000010200004+59400+035920FM-12+013699999V0200201N001010030019N0500001N1-01531+99999102461ADDGA1071+003009069GF108991071071999999021999MA1999999100591MD1210021+9999REMSYN076AAXX  02001 27008 42984 80201 11153 21133 30059 40246 52002 8772/ 333 87710;
0181270080999992000010203004+59400+035920FM-12+013699999V0203601N003019999999N0500001N1-01461-01661102681ADDAA106000091AJ100289199999999GF108991081001999999071999IA1239MD1210081+9999REMSYN076AAXX  02031 27008 32984 83603 11146 21166 40268 52008 8807/ 333 47028 55000;EQDQ01  00002PRCP06
0165270080999992000010206004+59400+035920FM-12+013699999V0209999C000019999999N0350001N1-01391-01661102711ADDAA106000091GF108991081001999999071999KA1999N-01591MD1210051+9999REMSYN070AAXX  02061 27008 32981 80000 11139 21166 40271 52005 8807/ 333 21159;EQDQ01  00002PRCP06
0140270080999992000010209004+59400+035920FM-12+013699999V0209999C000019999999N0120001N1-01291-01561102781ADDAY171031AY221031GF106991051001999999071021MD1210071+9999MW1701REMSYN066AAXX  02091 27008 41962 60000 11129 21156 40278 52007 77072 85072;
0161270080999992000010212004+59400+035920FM-12+013699999V0200701N001019999999N0150001N1-01281-01551102791ADDAY171061AY221061GF107991061001999999071021MA1999999100961MD1210011+9999MW1711REMSYN072AAXX  02121 27008 41965 70701 11128 21155 30096 40279 52001 77172 86072;
0140270080999992000010215004+59400+035920FM-12+013699999V0200701N001019999999N0500001N1-01371-01641102791ADDAY171031AY221031GF105991001001999999001021MD1410001+9999MW1021REMSYN066AAXX  02151 27008 41984 50701 11137 21164 40279 54000 70272 80002;
0180270080999992000010218004+59400+035920FM-12+013699999V0200901N001019999999N0150001N1-01411-01681102691ADDAA100000591AY171061AY221061GF107991071001999999071001KA1999M-01261MD1810101+9999MW1701REMSYN082AAXX  02181 27008 11965 70901 11141 21168 40269 58010 69960 77072 87070 333 11126;
0161270080999992000010300004+59400+035920FM-12+013699999V0201101N002019999999N0500001N1-01051-01251102401ADDAY171061AY221061GF108991081001999999071999MA1999999100591MD1710121+9999MW1021REMSYN072AAXX  03001 27008 41984 81102 11105 21125 30059 40240 57012 70272 8807/;
0179270080999992000010303004+59400+035920FM-12+013699999V0200901N002019999999N0160001N1-01151-01351102281ADDAJ100289199999999AY171031AY221031GF108991081001999999071999IA1239MD1710121+9999MW1701REMSYN082AAXX  03031 27008 /1966 80902 11115 21135 40228 57012 77072 8807/ 333 47028 55000;
0180270080999992000010306004+59400+035920FM-12+013699999V0201101N002019999999N0500001N1-01251-01451102151ADDAA100000191AY171061AY221061GF108991081001999999071999KA1999N-01491MD1710151+9999MW1021REMSYN082AAXX  03061 27008 11984 81102 11125 21145 40215 57015 69920 70272 8807/ 333 21149;
0140270080999992000010309004+59400+035920FM-12+013699999V0200901N002019999999N0170001N1-01211-01411102141ADDAY171031AY221031GF107991071001999999071001MD1310011+9999MW1711REMSYN066AAXX  03091 27008 41967 70902 11121 21141 40214 53001 77172 87070;
0161270080999992000010312004+59400+035920FM-12+013699999V0200901N003019999999N0150001N1-01291-01491102031ADDAY171061AY221061GF108991081001999999071999MA1999999100211MD1810111+9999MW1711REMSYN072AAXX  03121 27008 41965 80903 11129 21149 30021 40203 58011 77172 8807/;
0140270080999992000010315004+59400+035920FM-12+013699999V0200901N002019999999N0180001N1-01351-01621101971ADDAY171031AY221031GF108991081001999999071999MD1710061+9999MW1711REMSYN066AAXX  03151 27008 41968 80902 11135 21162 40197 57006 77172 8807/;
0180270080999992000010318004+59400+035920FM-12+013699999V0200901N001019999999N0130001N1-01401-01601101881ADDAA100000391AY171061AY221061GF108991081001999999071999KA1999M-01151MD1710091+9999MW1711REMSYN082AAXX  03181 27008 11963 80901 11140 21160 40188 57009 69930 77172 8807/ 333 11115;
0161270080999992000010400004+59400+035920FM-12+013699999V0201101N002019999999N0140001N1-01551-01741101671ADDAY171061AY221061GF108991081001999999071999MA1999999099841MD1710181+9999MW1711REMSYN072AAXX  04001 27008 41964 81102 11155 21174 39984 40167 57018 77172 8807/;
0179270080999992000010403004+59400+035920FM-12+013699999V0201101N002019999999N0140001N1-01591-01781101401ADDAJ100299199999999AY171031AY221031GF108991081001999999071999IA1239MD1710261+9999MW1711REMSYN082AAXX  04031 27008 /1964 81102 11159 21178 40140 57026 77172 8807/ 333 47029 55000;
0180270080999992000010406004+59400+035920FM-12+013699999V0201101N002019999999N0280001N1-01441-01711101171ADDAA100000591AY171061AY221061GF108991081001999999071999KA1999N-01651MD1710231+9999MW1021REMSYN082AAXX  04061 27008 11978 81102 11144 21171 40117 57023 69950 70272 8807/ 333 21165;
0112270080999992000010409004+59400+035920FM-12+013699999V0200901N003010120019N0400001N1-01381-01651100891ADDGF108991081051012501999999MD1710261+9999REMSYN060AAXX  04091 27008 42682 80903 11138 21165 40089 57026 885//;
0181270080999992000010412004+59400+035920FM-12+013699999V0201101N003010033019N0160001N1-01261+99999100401ADDAY171061AY221061GA1081+003309069GF108991081061004501999999MA1999999098611MD1710481+9999MW1771REMSYN076AAXX  04121 27008 41466 81103 11126 39861 40040 57048 77772 886// 333 88711;
0166270080999992000010415004+59400+035920FM-12+013699999V0201101N004010030019N0140001N1-01121-01321100251ADDAY171031AY221031GA1071+003009069GF108991071071004501021999MD1710141+9999MW1711REMSYN076AAXX  04151 27008 41464 81104 11112 21132 40025 57014 77172 8772/ 333 87710;
0221270080999992000010418004+59400+035920FM-12+013699999V0201101N002010027019N0120001N1-00911-01111099871ADDAA100000891AY171061AY221061GA1071+002709069GF108991071071002501021999KA1120M+99999MD1710351+9999MW1711REMSYN088AAXX  04181 27008 11362 81102 11091 21111 49987 57035 69970 77172 8772/ 333 11110 87709;EQDQ01 -01102ATMX  
0187270080999992000010500004+59400+035920FM-12+013699999V0201801N002010030019N0500001N1-00451-00581099531ADDAY171061AY221061GA1071+003009069GF108991071071004501021999MA1999999097801MD1710121+9999MW1021REMSYN082AAXX  05001 27008 41484 81802 11045 21058 39780 49953 57012 70272 8772/ 333 87710;
0179270080999992000010503004+59400+035920FM-12+013699999V0201801N002010042019N0150001N1-00011-00121099401ADDAJ100339199999999AY171031AY221031GF108991071071004501021999IA1239MD1710081+9999MW1711REMSYN082AAXX  05031 27008 /1465 81802 11001 21012 49940 57008 77172 8772/ 333 47033 55000;
0202270080999992000010506004+59400+035920FM-12+013699999V0200201N002010030019N0500001N1+00051-00011099741ADDAA100004191AY171061AY221061GA1071+003009069GF108991071071004501021999KA1120N-01121MD1310061+9999MW1021REMSYN088AAXX  05061 27008 11484 80202 10005 21001 49974 53006 60040 70272 8772/ 333 21112 87710;
0166270080999992000010509004+59400+035920FM-12+013699999V0202001N002010057019N0160001N1+00051-00031099611ADDAY181031AY221031GA1071+005709099GF107991071091004501001001MD1210141+9999MW1801REMSYN076AAXX  05091 27008 41466 72002 10005 21003 49961 52014 78082 87900 333 87919;
0187270080999992000010512004+59400+035920FM-12+013699999V0202001N003010054019N0170001N1+00041-00051099621ADDAY181061AY221061GA1081+005409099GF108991081091004501999999MA1999999097931MD1210011+9999MW1801REMSYN082AAXX  05121 27008 41467 82003 10004 21005 39793 49962 52001 78082 889// 333 88918;
0166270080999992000010515004+59400+035920FM-12+013699999V0202001N002010057019N0140001N1+00031-00031099831ADDAY181031AY221031GA1081+005709099GF108991081091004501999999MD1210211+9999MW1801REMSYN076AAXX  05151 27008 41464 82002 10003 21003 49983 52021 78082 889// 333 88919;
0202270080999992000010518004+59400+035920FM-12+013699999V0202001N002010054019N0150001N1+00021-00041100131ADDAA100000891AY181061AY221061GA1081+005409099GF108991081091004501999999KA1120M+00051MD1210291+9999MW1801REMSYN088AAXX  05181 27008 11465 82002 10002 21004 40013 52029 69980 78082 889// 333 10005 88918;
0161270080999992000010600004+59400+035920FM-12+013699999V0201801N005010120019N0400001N1-00321-00601100861ADDAY131061AY221061GF107991071051012501001001MA1999999099131MD1710221+9999MW1361REMSYN072AAXX  07121 27008 41682 71805 11032 21060 39913 40086 57022 73632 87500;
0179270080999992000010603004+59400+035920FM-12+013699999V0202501N002010042019N0500001N1-00111-00241101071ADDAJ100349199999999AY171031AY221031GF107991071091004501001001IA1239MD1210331+9999MW1021REMSYN082AAXX  06031 27008 /1484 72502 11011 21024 40107 52033 70272 87900 333 47034 55000;
0221270080999992000010606004+59400+035920FM-12+013699999V0203201N004010054019N0300001N1-00181-00421101331ADDAA100001091AY181061AY221061GA1061+005409099GF108991081091004501999999KA1120N+99999MD1210261+9999MW1021REMSYN088AAXX  06061 27008 11480 83204 11018 21042 40133 52026 60010 70282 889// 333 21011 86918;EQDQ01 -00112ATMN  
0138270080999992000010609004+59400+035920FM-12+013699999V0202301N002010087019N0400001N1-00201-00381101521ADDGA1081+008709059GF108991081051008001999999MD1210181+9999REMSYN070AAXX  06091 27008 42582 82302 11020 21038 40152 52018 885// 333 88629;
0133270080999992000010612004+59400+035920FM-12+013699999V0202501N002010120019N0400001N1-00161-00431101631ADDGF108991081051012501999999MA1999999099891MD1210111+9999REMSYN066AAXX  06121 27008 42682 82502 11016 21043 39989 40163 52011 885//;
0112270080999992000010615004+59400+035920FM-12+013699999V0202301N003010120019N0500001N1-00211-00461101721ADDGF108991081051012501999999MD1210091+9999REMSYN060AAXX  06151 27008 42684 82303 11021 21046 40172 52009 885//;
0159270080999992000010700004+59400+035920FM-12+013699999V0202001N002010075019N0500001N1-00251-00411101571ADDGA1081+007509029GF108991081051008001999999MA1999999099831MD1710131+9999REMSYN076AAXX  07001 27008 42584 82002 11025 21041 39983 40157 57013 885// 333 88525;
0187270080999992000010703004+59400+035920FM-12+013699999V0202001N003019999999N0500001N1-00261-00271999999ADDAA106000091AJ100339199999999GF108991999999004501999999IA1239MD1710131+9999REMSYN082AAXX  07031 27008 32484 82003 11026 21027 4/153 57013 333 47033 555 2029 70 )0//-;EQDQ01  00002PRCP06
0187270080999992000010706004+59400+035920FM-12+013699999V0202001N004010084019N0500001N1-00321-00561101251ADDAA106000091GA1081+008409059GF108991081051008001999999KA1120N-00291MD1710081+9999REMSYN076AAXX  07061 27008 32584 82004 11032 21056 40125 57008 885// 333 21029 88628;EQDQ01  00002PRCP06
0138270080999992000010709004+59400+035920FM-12+013699999V0201801N005010093019N0400001N1-00331-00611101091ADDGA1081+009309059GF108991081051008001999999MD1710161+9999REMSYN070AAXX  07091 27008 42582 81805 11033 21061 40109 57016 885// 333 88631;
0166270080999992000010715004+59400+035920FM-12+013699999V0202001N005010033019N0150001N1-00331-00571100811ADDAY171031AY231031GA1071+003309069GF108991071071004501021999MD1710051+9999MW1711REMSYN076AAXX  07151 27008 41465 82005 11033 21057 40081 57005 77173 8772/ 333 87711;
0202270080999992000010718004+59400+035920FM-12+013699999V0202301N005010033019N0210001N1-00251-00451100741ADDAA100000191AY171061AY231061GA1071+003309069GF108991071071004501021999KA1120M-00261MD1710071+9999MW1361REMSYN088AAXX  07181 27008 11471 82305 11025 21045 40074 57007 69920 73673 8772/ 333 11026 87711;
0187270080999992000010800004+59400+035920FM-12+013699999V0202301N005010087019N0400001N1+00011-00251100851ADDAY131061AY221061GA1071+008709059GF107991071051008001001001MA1999999099141MD1210101+9999MW1021REMSYN082AAXX  08001 27008 41582 72305 10001 21025 39914 40085 52010 70232 87500 333 87629;
0151270080999992000010803004+59400+035920FM-12+013699999V0202001N003010120019N0450001N1+00001-00261100911ADDAJ100329199999999GF107991071051012501001001IA1239MD1210061+9999REMSYN076AAXX  08031 27008 /2683 72003 10000 21026 40091 52006 87500 333 47032 55000;
0152270080999992000010806004+59400+035920FM-12+013699999V0202301N002010120019N0500001N1+00011-00221100851ADDAA100000591GF107991071051012501001001KA1999N-00351MD1810061+9999REMSYN076AAXX  08061 27008 12684 72302 10001 21022 40085 58006 69950 87500 333 21035;
0138270080999992000010809004+59400+035920FM-12+013699999V0202001N003010030019N0400001N1-00011-00241100871ADDGA1081+003009069GF108991081061004501999999MD1310021+9999REMSYN070AAXX  08091 27008 42482 82003 11001 21024 40087 53002 886// 333 88710;
0159270080999992000010812004+59400+035920FM-12+013699999V0202001N004010033019N0400001N1+00021-00211100831ADDGA1081+003309069GF108991081061004501999999MA1999999099121MD1810041+9999REMSYN076AAXX  08121 27008 42482 82004 10002 21021 39912 40083 58004 886// 333 88711;
0112270080999992000010815004+59400+035920FM-12+013699999V0202001N004010120019N0500001N1+00041-00181100801ADDGF108991081051012501999999MD1710031+9999REMSYN060AAXX  08151 27008 42684 82004 10004 21018 40080 57003 885//;
0187270080999992000010818004+59400+035920FM-12+013699999V0202001N005010093019N0500001N1+00071-00101100721ADDAA106000091GA1081+009309059GF108991081051008001999999KA1120M+00041MD1710081+9999REMSYN076AAXX  08181 27008 32584 82005 10007 21010 40072 57008 885// 333 10004 88631;EQDQ01  00002PRCP06
0187270080999992000010900004+59400+035920FM-12+013699999V0202001N005010033019N0150001N1+00131+00051100721ADDAY151061AY221061GA1081+003309069GF108991081061004501999999MA1999999099011MD1310011+9999MW1511REMSYN082AAXX  09001 27008 41465 82005 10013 20005 39901 40072 53001 75152 886// 333 88711;
0209270080999992000010903004+59400+035920FM-12+013699999V0202001N004010030019N0140001N1+00131+00081100741ADDAJ100289199999999AY151031AY221031GA1081+003009069GF108991081061004501999999GJ100009IA1279MD1210021+9999MW1511REMSYN088AAXX  09031 27008 /1464 82004 10013 20008 40074 52002 75152 886// 333 43028 55000 88710;
0166270080999992000010909004+59400+035920FM-12+013699999V0202001N004010054019N0150001N1+00161-00031101001ADDAY181031AY221031GA1051+005409099GF108991081091004501999999MD1210171+9999MW1801REMSYN076AAXX  09091 27008 41465 82004 10016 21003 40100 52017 78082 889// 333 85918;
0161270080999992000010912004+59400+035920FM-12+013699999V0202001N004010075019N0160001N1+00161-00031101201ADDAY181061AY221061GF108991081091008001999999MA1999999099501MD1210201+9999MW1801REMSYN072AAXX  09121 27008 41566 82004 10016 21003 39950 40120 52020 78082 889//;
0140270080999992000010915004+59400+035920FM-12+013699999V0201801N004010075019N0500001N1+00191-00061101291ADDAY181031AY221031GF108991081091008001999999MD1210091+9999MW1021REMSYN066AAXX  09151 27008 41584 81804 10019 21006 40129 52009 70282 889//;
0202270080999992000010918004+59400+035920FM-12+013699999V0202001N004010057019N0500001N1+00171-00051101441ADDAA100000891AY181061AY221061GA1081+005709099GF108991081091004501999999KA1120M+00191MD1210151+9999MW1021REMSYN088AAXX  09181 27008 11484 82004 10017 21005 40144 52015 69970 70282 889// 333 10019 88919;
0133270080999992000011000004+59400+035920FM-12+013699999V0202001N004019999999N0500001N1+00141-00111101641ADDGF108991081001999999071999MA1999999099921MD1210031+9999REMSYN066AAXX  10001 27008 41984 82004 10014 21011 39992 40164 52003 8807/;
0181270080999992000011003004+59400+035920FM-12+013699999V0202001N003019999999N0500001N1+00101-00161101631ADDAA106000091AJ100229199999999GF108991081001999999071999IA1279MD1810011+9999REMSYN076AAXX  10031 27008 32984 82003 10010 21016 40163 58001 8807/ 333 43022 55000;EQDQ01  00002PRCP06
0187270080999992000011006004+59400+035920FM-12+013699999V0202301N003010084019N0500001N1+00061-00301101631ADDAA106000091GA1081+008409059GF108991081051008001999999KA1120N+00101MD1410001+9999REMSYN076AAXX  10061 27008 32584 82303 10006 21030 40163 54000 885// 333 20010 88628;EQDQ01  00002PRCP06
0138270080999992000011009004+59400+035920FM-12+013699999V0202001N005010093019N0400001N1+00101-00191101661ADDGA1081+009309059GF108991081051008001999999MD1310031+9999REMSYN070AAXX  10091 27008 42582 82005 10010 21019 40166 53003 885// 333 88631;
0159270080999992000011012004+59400+035920FM-12+013699999V0202301N003010078019N0400001N1+99999+99999101691ADDGA1081+007809059GF108991081051008001999999MA1999999099971MD1210031+9999REMSYN076AAXX  10121 27008 42582 82303 1/012 21014 39997 40169 52003 885// 333 88626;
0138270080999992000011015004+59400+035920FM-12+013699999V0202301N003010084019N0500001N1+00101-00161101751ADDGA1081+008409059GF108991081051008001999999MD1210061+9999REMSYN070AAXX  10151 27008 42584 82303 10010 21016 40175 52006 885// 333 88628;
0187270080999992000011018004+59400+035920FM-12+013699999V0202501N002010090019N0500001N1+00081-00251101821ADDAA106000091GA1081+009009059GF108991081051008001999999KA1120M+00161MD1210071+9999REMSYN076AAXX  10181 27008 32584 82502 10008 21025 40182 52007 885// 333 10016 88630;EQDQ01  00002PRCP06
0133270080999992000011100004+59400+035920FM-12+013699999V0202501N004010120019N0500001N1-00051-00391102071ADDGF108991081051012501999999MA1999999100331MD1210111+9999REMSYN066AAXX  11001 27008 42684 82504 11005 21039 30033 40207 52011 885//;
0181270080999992000011103004+59400+035920FM-12+013699999V0202501N003010120019N0500001N1-00071-00331102121ADDAA106000091AJ100229199999999GF108991081051012501999999IA1239MD1210031+9999REMSYN076AAXX  11031 27008 32684 82503 11007 21033 40212 52003 885// 333 47022 55026;EQDQ01  00002PRCP06
0165270080999992000011106004+59400+035920FM-12+013699999V0202501N005019999999N0500001N1-00081-00461102251ADDAA106000091GF107991071001999999031001KA1999N-00071MD1210021+9999REMSYN070AAXX  11061 27008 32984 72505 11008 21046 40225 52002 87030 333 21007;EQDQ01  00002PRCP06
0112270080999992000011109004+59400+035920FM-12+013699999V0202301N003019999999N0400001N1-00041-00481102321ADDGF107991071001999999031001MD1210071+9999REMSYN060AAXX  11091 27008 42982 72303 11004 21048 40232 52007 87030;
0133270080999992000011112004+59400+035920FM-12+013699999V0202001N004019999999N0400001N1-00081-00531102301ADDGF106991041001999999031021MA1999999100561MD1810021+9999REMSYN066AAXX  11121 27008 42982 62004 11008 21053 30056 40230 58002 84032;
0112270080999992000011115004+59400+035920FM-12+013699999V0202001N005019999999N0500001N1-00091-00481102341ADDGF107991051001999999031021MD1310041+9999REMSYN060AAXX  11151 27008 42984 72005 11009 21048 40234 53004 85032;
0165270080999992000011118004+59400+035920FM-12+013699999V0202001N003019999999N0500001N1-00071-00421102251ADDAA106000091GF108991081001999999071999KA1999M-00021MD1810091+9999REMSYN070AAXX  11181 27008 32984 82003 11007 21042 40225 58009 8807/ 333 11002;EQDQ01  00002PRCP06
0161270080999992000011200004+59400+035920FM-12+013699999V0202301N004019999999N0140001N1-00041-00191102151ADDAY171061AY221061GF108991081001999999071999MA1999999100421MD1710041+9999MW1711REMSYN072AAXX  12001 27008 41964 82304 11004 21019 30042 40215 57004 77172 8807/;
0179270080999992000011203004+59400+035920FM-12+013699999V0202301N004019999999N0300001N1+00081-00031102171ADDAJ100239199999999AY171031AY221031GF108991081001999999071999IA1279MD1310021+9999MW1021REMSYN082AAXX  12031 27008 /1980 82304 10008 21003 40217 53002 70272 8807/ 333 43023 55001;
0180270080999992000011206004+59400+035920FM-12+013699999V0202001N004019999999N0500001N1+00121-00021102211ADDAA100000591AY171061AY221061GF108991081001999999071999KA1999N-00101MD1210041+9999MW1021REMSYN082AAXX  12061 27008 11984 82004 10012 21002 40221 52004 69940 70272 8807/ 333 21010;
0112270080999992000011209004+59400+035920FM-12+013699999V0202301N003010120019N0300001N1+00171+00031102291ADDGF108991081051012501999999MD1210091+9999REMSYN060AAXX  12091 27008 42680 82303 10017 20003 40229 52009 885//;
0133270080999992000011212004+59400+035920FM-12+013699999V0202001N003010120019N0400001N1+00171+00011102331ADDGF108991081051012501999999MA1999999100611MD1210041+9999REMSYN066AAXX  12121 27008 42682 82003 10017 20001 30061 40233 52004 885//;
0112270080999992000011215004+59400+035920FM-12+013699999V0202001N003010120019N0500001N1+00141-00031102251ADDGF108991081051012501999999MD1810081+9999REMSYN060AAXX  12151 27008 42684 82003 10014 21003 40225 58008 885//;
0196270080999992000011218004+59400+035920FM-12+013699999V0201801N004010057019N0120001N1+00121-00021101881ADDAA106000021AY181061AY221061GA1081+005709099GF108991081091004501999999KA1120M+00171MD1710371+9999MW1851REMSYN082AAXX  12181 27008 31462 81804 10012 21002 40188 57037 78582 889// 333 10017 88919;
0187270080999992000011300004+59400+035920FM-12+013699999V0202001N004010057019N0140001N1+00081-00031101451ADDAY181061AY221061GA1081+005709099GF108991081091004501999999MA1999999099731MD1710151+9999MW1851REMSYN082AAXX  13001 27008 41464 82004 10008 21003 39973 40145 57015 78582 889// 333 88919;
0209270080999992000011303004+59400+035920FM-12+013699999V0202001N004010051019N0130001N1+00091+00011101321ADDAJ100239199999999AY181031AY221031GA1081+005109099GF108991081091004501999999GJ100009IA1279MD1710121+9999MW1851REMSYN088AAXX  13031 27008 /1463 82004 10009 20001 40132 57012 78582 889// 333 43023 55000 88917;
0189270080999992000011306004+59400+035920FM-12+013699999V0202301N005010048019N0160001N1+00081+00001101291ADDAA100002091AY181061AY221061GA1081+004809099GF108991081091004501999999MD1710031+9999MW1851REMSYN088AAXX  13061 27008 11466 82305 10008 21000 40129 57003 60020 78582 889// 333 2/003 88916;
0166270080999992000011309004+59400+035920FM-12+013699999V0202301N004010054019N0240001N1+00121+00041101341ADDAY181031AY221031GA1061+005409099GF108991081091004501999999MD1310051+9999MW1021REMSYN076AAXX  13091 27008 41474 82304 10012 20004 40134 53005 70282 889// 333 86918;
0187270080999992000011312004+59400+035920FM-12+013699999V0202001N005010057019N0400001N1+00141+00031101501ADDAY181061AY221061GA1061+005709099GF107991071091004501001001MA1999999099781MD1210151+9999MW1021REMSYN082AAXX  13121 27008 41482 72005 10014 20003 39978 40150 52015 70282 87900 333 86919;
0138270080999992000011315004+59400+035920FM-12+013699999V0202301N003010096019N0500001N1+00141-00081101581ADDGA1081+009609059GF108991081051008001999999MD1210081+9999REMSYN070AAXX  13151 27008 42584 82303 10014 21008 40158 52008 885// 333 88632;
0152270080999992000011318004+59400+035920FM-12+013699999V0202001N003010120019N0500001N1+00121-00081101621ADDAA100000591GF108991081051012501999999KA1999M+00171MD1210041+9999REMSYN076AAXX  13181 27008 12684 82003 10012 21008 40162 52004 69950 885// 333 10017;
0210270080999992000011400004+59400+035920FM-12+013699999V0202001N005010057019N0500001N1+00101+00021101631ADDAY181061AY221061GA1061+005709099GF107991999091004501001001MA1999999099911MD1210011+9999MW1021REMSYN086    AAXX  14001 27008 41484 72005 10010 20002 39991 40163 52001 70282 88900 333 86919;EQDQ01+000082SCOTLC
0213270080999992000011403004+59400+035920FM-12+013699999V0202001N004010051019N0110001N1-00071-00171101391ADDAJ100269199999999AY181031AY231031GA1081+005109099GF108991081091004501999999GJ100009IA1239MD1710081+9999MW1851REMSYN092    AAXX  14031 27008 /1461 82004 11007 21017 40139 57008 78583 889// 333 47026 55000 88917;
0206270080999992000011406004+59400+035920FM-12+013699999V0202301N004010042019N0090001N1-00021-00141101381ADDAA100002091AY181061AY231061GA1081+004209099GF108991081091004501999999KA1120N-00071MD1310011+9999MW1851REMSYN092    AAXX  14061 27008 11459 82304 11002 21014 40138 53001 60020 78583 889// 333 21007 88914;
0170270080999992000011409004+59400+035920FM-12+013699999V0202301N004010063019N0280001N1+00101-00131101511ADDAY181031AY231031GA1081+006309099GF108991081091008001999999MD1210121+9999MW1021REMSYN080    AAXX  14091 27008 41578 82304 10010 21013 40151 52012 70283 889// 333 88921;
0165270080999992000011412004+59400+035920FM-12+013699999V0202501N003010120019N0400001N1+00041-00261101801ADDAY181061AY231061GF107991071051012501001001MA1999999100081MD1210291+9999MW1021REMSYN076    AAXX  14121 27008 41682 72503 10004 21026 30008 40180 52029 70283 87500;
0116270080999992000011415004+59400+035920FM-12+013699999V0202501N003019999999N0500001N1-00101-00321102081ADDGF107991071001999999031001MD1210261+9999REMSYN064    AAXX  14151 27008 42984 72503 11010 21032 40208 52026 87030;
0156270080999992000011418004+59400+035920FM-12+013699999V0202301N002019999999N0500001N1-00141-00341102131ADDAA100000191GF107991071001999999031001KA1999M+00131MD1210051+9999REMSYN080    AAXX  14181 27008 12984 72302 11014 21034 40213 52005 69920 87030 333 10013;
0137270080999992000011500004+59400+035920FM-12+013699999V0202001N002010120019N0500001N1-00161-00401102211ADDGF108991081051012501999999MA1999999100471MD1210021+9999REMSYN070    AAXX  15001 27008 42684 82002 11016 21040 30047 40221 52002 885//;
0245270080999992000011503004+59400+035920FM-12+013699999V0202301N002010057019N0280001N1-00181-00391102171ADDAA124000291AA299000091AJ100269199999999GA1061+005709099GF108991081091004501999999GJ100549IA1279MD1810041+9999REMSYN105    AAXX  15031 27008 32478 82302 11018 21039 40217 58004 889// 333 43026 55009 86919 555 21020 7992/ /-;EQDQ01  00002PRCP99
0197270080999992000011506004+59400+035920FM-12+013699999V0202301N002010120019N0500001N1-00251-00511102111ADDAA199000091AY181061AY221061GF107991071051012501001001KA1999N-00201MD1710081+9999MW1021REMSYN080    AAXX  15061 27008 31684 72302 11025 21051 40211 57008 70282 87500 333 21020;EQDQ01  00002PRCP99
0144270080999992000011509004+59400+035920FM-12+013699999V0202001N001010120019N0300001N1-00311-00451101981ADDAY181031AY221031GF106991061091012501001001MD1710121+9999MW1261REMSYN070    AAXX  15091 27008 41680 62001 11031 21045 40198 57012 72682 86900;
0165270080999992000011512004+59400+035920FM-12+013699999V0202501N001010120019N0400001N1-00431-00591101921ADDAY181061AY221061GF105991051051012501001001MA1999999100171MD1710061+9999MW1021REMSYN076    AAXX  15121 27008 41682 52501 11043 21059 30017 40192 57006 70282 85500;
0144270080999992000011515004+59400+035920FM-12+013699999V0202001N001010120019N0500001N1-00521-00661101871ADDAY181031AY221031GF106991061051012501001001MD1710061+9999MW1021REMSYN070    AAXX  15151 27008 41684 62001 11052 21066 40187 57006 70282 86500;
0194270080999992000011518004+59400+035920FM-12+013699999V0202301N001012200019N0500001N1-00541-00751101761ADDAA100000591AY181061AY211061GA1001+999999999GF100991001001999999001001KA1999M-00181MD1710111+9999MW1011REMSYN080    AAXX  15181 27008 11984 02301 11054 21075 40176 57011 69950 70181 333 11018;
0165270080999992000011600004+59400+035920FM-12+013699999V0202001N002019999999N0500001N1-00521-00731101731ADDAY171061AY211061GF108991081001999999071999MA1999999099971MD1810041+9999MW1031REMSYN076    AAXX  16001 27008 41984 82002 11052 21073 39997 40173 58004 70371 8807/;
0155270080999992000011603004+59400+035920FM-12+013699999V0202001N003019999999N0500001N1-00461-00661101621ADDAJ100269199999999GF108991081001999999071999IA1239MD1710111+9999REMSYN080    AAXX  16031 27008 /2984 82003 11046 21066 40162 57011 8807/ 333 47026 55004;
0156270080999992000011606004+59400+035920FM-12+013699999V0202001N002019999999N0500001N1-00481-00681101511ADDAA100000791GF108991081001999999071999KA1999N-00741MD1110111+9999REMSYN080    AAXX  16061 27008 12984 82002 11048 21068 40151 51011 69900 8807/ 333 21074;
0116270080999992000011609004+59400+035920FM-12+013699999V0202001N003019999999N0400001N1-00411-00601101411ADDGF108991081001999999071999MD1710081+9999REMSYN064    AAXX  16091 27008 42982 82003 11041 21060 40141 57008 8807/;
0137270080999992000011612004+59400+035920FM-12+013699999V0202001N003019999999N0400001N1-00371-00551101181ADDGF108991081001999999071999MA1999999099441MD1710231+9999REMSYN070    AAXX  16121 27008 42982 82003 11037 21055 39944 40118 57023 8807/;
0144270080999992000011615004+59400+035920FM-12+013699999V0202001N003019999999N0140001N1-00471-00641100821ADDAY171031AY221031GF108991081001999999071999MD1710361+9999MW1711REMSYN070    AAXX  16151 27008 41964 82003 11047 21064 40082 57036 77172 8807/;
0206270080999992000011618004+59400+035920FM-12+013699999V0201801N005010030019N0150001N1-00431-00551100121ADDAA100000791AY171061AY251061GA1081+003009069GF108991081061004501999999KA1120M-00371MD1710681+9999MW1561REMSYN092    AAXX  16181 27008 11465 81805 11043 21055 40012 57068 69900 75675 886// 333 11037 88710;
0226270080999992000011700004+59400+035920FM-12+013699999V0201801N005010027019N0120001N1-00391-00511098862ADDAY171061AY251061GA1071+002709069GF108991071071002501021999MA1999999097161MD1710562+9999MW1711REMSYN086    AAXX  17001 27008 41362 81805 11039 21051 39716 49886 57056 77175 8772/ 333 87709;EQDQ01+098863APOSLPQ02+000562APC3  
0213270080999992000011703004+59400+035920FM-12+013699999V0201601N004010027019N0110001N1-00421-00541098401ADDAJ100289199999999AY171031AY231031GA1071+002709069GF108991071071002501021999GJ100009IA1239MD1710451+9999MW1711REMSYN092    AAXX  17031 27008 /1361 81604 11042 21054 49840 57045 77173 8772/ 333 47028 55000 87709;
0206270080999992000011706004+59400+035920FM-12+013699999V0201601N005010027019N0110001N1-00411-00531098081ADDAA100004191AY171061AY231061GA1071+002709069GF108991071071002501021999KA1120N-00471MD1710321+9999MW1711REMSYN092    AAXX  17061 27008 11361 81605 11041 21053 49808 57032 60040 77173 8772/ 333 21047 87709;
0170270080999992000011709004+59400+035920FM-12+013699999V0201601N003010027019N0046001N1-00381-00461097901ADDAY101031AY231031GA1071+002709069GF108991071071002501021999MD1710171+9999MW1161REMSYN080    AAXX  17091 27008 41346 81603 11038 21046 49790 57017 71603 8772/ 333 87709;
0191270080999992000011712004+59400+035920FM-12+013699999V0201801N003010027019N0150001N1-00331-00401097801ADDAY171061AY231061GA1071+002709069GF108991071071002501021999MA1999999096121MD1710101+9999MW1711REMSYN086    AAXX  17121 27008 41365 81803 11033 21040 39612 49780 57010 77173 8772/ 333 87709;
0170270080999992000011715004+59400+035920FM-12+013699999V0201601N002010030019N0150001N1-00251-00311097721ADDAY171031AY221031GA1071+003009069GF108991071071004501021999MD1710101+9999MW1711REMSYN080    AAXX  17151 27008 41465 81602 11025 21031 49772 57010 77172 8772/ 333 87710;
0206270080999992000011718004+59400+035920FM-12+013699999V0201101N001010033019N0140001N1-00291-00361097701ADDAA100002091AY171061AY221061GA1071+003309069GF108991071071004501021999KA1120M-00251MD1710021+9999MW1711REMSYN092    AAXX  17181 27008 11464 81101 11029 21036 49770 57002 60020 77172 8772/ 333 11025 87711;
0191270080999992000011800004+59400+035920FM-12+013699999V0201801N001010033019N0150001N1-00331-00401097701ADDAY171061AY221061GA1071+003309069GF108991071071004501021999MA1999999096021MD1410001+9999MW1711REMSYN086    AAXX  18001 27008 41465 81801 11033 21040 39602 49770 54000 77172 8772/ 333 87711;
0213270080999992000011803004+59400+035920FM-12+013699999V0201101N002010030019N0120001N1-00461-00521097801ADDAJ100299199999999AY171031AY221031GA1071+003009069GF108991071071004501021999GJ100009IA1239MD1210051+9999MW1711REMSYN092    AAXX  18031 27008 /1462 81102 11046 21052 49780 52005 77172 8772/ 333 47029 55000 87710;
0203270080999992000011806004+59400+035920FM-12+013699999V0201101N002010300019N0300001N1-00591-00741097921ADDAA100002091AY171061AY221061GF108991031071004501021999KA1999N+99999MD1210121+9999MW1021REMSYN086    AAXX  18061 27008 11480 81102 11059 21074 49792 52012 60020 70272 8372/ 333 21046;EQDQ01 -00462ATMN  
0144270080999992000011809004+59400+035920FM-12+013699999V0200901N002019999999N0180001N1-00681-00881098111ADDAY171031AY221031GF107991071001999999071001MD1210171+9999MW1711REMSYN070    AAXX  18091 27008 41968 70902 11068 21088 49811 52017 77172 87070;
0150270080999992000011812004+59400+035920FM-12+013699999V0200701N002019999999N0160001N1-00681+99999098301ADDAY171061AY221061GF107991071001999999071001MD1210191+9999MW1711REMSYN076    AAXX  18121 27008 41966 70702 11068 20092 396/9 49830 52019 77172 87070;
0144270080999992000011815004+59400+035920FM-12+013699999V0200501N002019999999N0280001N1-00861-01141098541ADDAY171031AY221031GF107991071001999999071001MD1210211+9999MW1021REMSYN070    AAXX  18151 27008 41978 70502 11086 21114 49854 52021 70272 87070;
0184270080999992000011818004+59400+035920FM-12+013699999V0200201N002019999999N0130001N1-00881-01071098831ADDAA100001091AY171061AY221061GF108991081001999999011999KA1999M-00461MD1210291+9999MW1711REMSYN086    AAXX  18181 27008 11963 80202 11088 21107 49883 52029 60010 77172 8801/ 333 11046;
0165270080999992000011900004+59400+035920FM-12+013699999V0200201N002019999999N0160001N1-00931-01141098981ADDAY171061AY221061GF108991081001999999071999MA1999999097241MD1210071+9999MW1711REMSYN076    AAXX  19001 27008 41966 80202 11093 21114 39724 49898 52007 77172 8807/;
0183270080999992000011903004+59400+035920FM-12+013699999V0200201N002019999999N0110001N1-00961-01171098991ADDAJ100359199999999AY171031AY221031GF108991081001999999071999IA1239MD1210041+9999MW1711REMSYN086    AAXX  19031 27008 /1961 80202 11096 21117 49899 52004 77172 8807/ 333 47035 55000;
0203270080999992000011906004+59400+035920FM-12+013699999V0203601N002019999999N0130001N1-01021-01221099101ADDAA100002091AY171061AY221061GF108991081001999999071999KA1999N+99999MD1210071+9999MW1711REMSYN086    AAXX  19061 27008 11963 83602 11102 21122 49910 52007 60020 77172 8807/ 333 21096;EQDQ01 -00962ATMN  
0144270080999992000011909004+59400+035920FM-12+013699999V0203601N001019999999N0150001N1-01021-01301099161ADDAY171031AY221031GF107991071001999999071001MD1210061+9999MW1711REMSYN070    AAXX  19091 27008 41965 73601 11102 21130 49916 52006 77172 87070;
0165270080999992000011912004+59400+035920FM-12+013699999V0203601N002019999999N0400001N1-01061-01341099231ADDAY171061AY221061GF107991071001999999071001MA1999999097471MD1210061+9999MW1021REMSYN076    AAXX  19121 27008 41982 73602 11106 21134 39747 49923 52006 70272 87070;
0112270080999992000011915004+59400+035920FM-12+013699999V0203601N001019999999N0500001N1-01271-01541099361ADDGF107991071001999999071001MD1210121+9999REMSYN060AAXX  19151 27008 42984 73601 11127 21154 49936 52012 87070;
0162270080999992000011918004+59400+035920FM-12+013699999V0202701N002012200019N0500001N1-01441-01711099511ADDAA100001091GA1001+999999999GF100991001001999999001001KA1999M-00961MD1210131+9999REMSYN070AAXX  19181 27008 12984 02702 11144 21171 49951 52013 60010 333 11096;
0161270080999992000012000004+59400+035920FM-12+013699999V0202501N001019999999N0150001N1-01501-01771099491ADDAY171061AY211061GF107991071001999999011001MA1999999097701MD1310011+9999MW1711REMSYN072AAXX  20001 27008 41965 72501 11150 21177 39770 49949 53001 77171 87010;
0179270080999992000012003004+59400+035920FM-12+013699999V0209999C000019999999N0260001N1-01421-01691099461ADDAJ100379199999999AY171031AY221031GF108991081001999999021999IA1239MD1810021+9999MW1021REMSYN082AAXX  20031 27008 /1976 80000 11142 21169 49946 58002 70272 8802/ 333 47037 55000;
0180270080999992000012006004+59400+035920FM-12+013699999V0202501N001019999999N0400001N1-01381-01581099361ADDAA100000591AY171061AY221061GF108991081001999999021999KA1999N-01601MD1710091+9999MW1021REMSYN082AAXX  20061 27008 11982 82501 11138 21158 49936 57009 69940 70272 8802/ 333 21160;
0140270080999992000012009004+59400+035920FM-12+013699999V0203201N001019999999N0150001N1-01311-01511099221ADDAY171031AY221031GF107991071001999999071001MD1710141+9999MW1711REMSYN066AAXX  20091 27008 41965 73201 11131 21151 49922 57014 77172 87070;
0161270080999992000012012004+59400+035920FM-12+013699999V0202501N001019999999N0140001N1-01271-01471099071ADDAY171061AY221061GF107991071001999999071001MA1999999097301MD1710151+9999MW1711REMSYN072AAXX  20121 27008 41964 72501 11127 21147 39730 49907 57015 77172 87070;
0140270080999992000012015004+59400+035920FM-12+013699999V0202501N001019999999N0500001N1-01481-01681098991ADDAY171031AY221031GF108991081001999999071999MD1710091+9999MW1021REMSYN066AAXX  20151 27008 41984 82501 11148 21168 49899 57009 70272 8807/;
0180270080999992000012018004+59400+035920FM-12+013699999V0202901N002019999999N0500001N1-01531-01801098821ADDAA100000591AY171061AY221061GF107991071001999999071001KA1999M-01271MD1710171+9999MW1021REMSYN082AAXX  20181 27008 11984 72902 11153 21180 49882 57017 69940 70272 87070 333 11127;
0133270080999992000012100004+59400+035920FM-12+013699999V0202501N002019999999N0500001N1-01751-02011098581ADDGF107991071001999999071001MA1999999096791MD1710131+9999REMSYN066AAXX  21001 27008 42984 72502 11175 21201 39679 49858 57013 87070;
0191270080999992000012103004+59400+035920FM-12+013699999V0202301N002012200019N0500001N1-01951-02211098511ADDAA199000091AJ100379199999999GA1001+999999999GF100991001001999999001001IA1239MD1710071+9999REMSYN070AAXX  21031 27008 32984 02302 11195 21221 49851 57007 333 47037 55000;EQDQ01  00002PRCP99
0165270080999992000012106004+59400+035920FM-12+013699999V0202501N002019999999N0400001N1-01751-02091098411ADDAA199000091GF108991081001999999071999KA1999N-01951MD1710091+9999REMSYN070AAXX  21061 27008 32982 82502 11175 21209 49841 57009 8807/ 333 21195;EQDQ01  00002PRCP99
0140270080999992000012109004+59400+035920FM-12+013699999V0202301N001019999999N0160001N1-01711-01971098411ADDAY171031AY221031GF108991081001999999071999MD1410001+9999MW1711REMSYN066AAXX  21091 27008 41966 82301 11171 21197 49841 54000 77172 8807/;
0161270080999992000012112004+59400+035920FM-12+013699999V0202701N002019999999N0180001N1-01581-01921098391ADDAY171061AY221061GF107991071001999999011001MA1999999096621MD1810011+9999MW1711REMSYN072AAXX  21121 27008 41968 72702 11158 21192 39662 49839 58001 77172 87010;
0140270080999992000012115004+59400+035920FM-12+013699999V0202301N002019999999N0150001N1-01691-01951098631ADDAY171031AY221031GF107991071001999999011001MD1310221+9999MW1711REMSYN066AAXX  21151 27008 41965 72302 11169 21195 49863 53022 77172 87010;
0180270080999992000012118004+59400+035920FM-12+013699999V0202301N002019999999N0130001N1-01701-01961098711ADDAA100000591AY171061AY221061GF108991081001999999071999KA1999M-01561MD1210081+9999MW1711REMSYN082AAXX  21181 27008 11963 82302 11170 21196 49871 52008 69960 77172 8807/ 333 11156;
0161270080999992000012200004+59400+035920FM-12+013699999V0202501N001019999999N0110001N1-01571-01761098771ADDAY171061AY221061GF108991081001999999071999MA1999999096991MD1210031+9999MW1711REMSYN072AAXX  22001 27008 41961 82501 11157 21176 39699 49877 52003 77172 8807/;
0173270080999992000012203004+59400+035920FM-12+013699999V0202501N001019999999N0150001N1-01481-01681999999ADDAJ100399199999999AY171031AY221031GF108991081001999999071999IA1239MD1410001+9999MW1711REMSYN076AAXX  22031 27008 /1965 82501 11148 21168 54000 77172 8807/ 333 47039 55000;
0180270080999992000012206004+59400+035920FM-12+013699999V0202301N001019999999N0260001N1-01511-01781098871ADDAA100001091AY171061AY221061GF107991001001999999001051KA1999N-01731MD1310101+9999MW1021REMSYN082AAXX  22061 27008 11976 72301 11151 21178 49887 53010 60010 70272 80005 333 21173;
0112270080999992000012209004+59400+035920FM-12+013699999V0202901N002019999999N0400001N1-01301-01571099041ADDGF107991001001999999001051MD1210181+9999REMSYN060AAXX  22091 27008 42982 72902 11130 21157 49904 52018 80005;
0133270080999992000012212004+59400+035920FM-12+013699999V0203401N002019999999N0400001N1-01171-01541099281ADDGF106991001001999999001011MA1999999097521MD1210251+9999REMSYN066AAXX  22121 27008 42982 63402 11117 21154 39752 49928 52025 80001;
0112270080999992000012215004+59400+035920FM-12+013699999V0202301N001012200019N0500001N1-01501-01771099531ADDGF103991001001999999001011MD1210221+9999REMSYN060AAXX  22151 27008 42984 32301 11150 21177 49953 52022 80001;
0162270080999992000012218004+59400+035920FM-12+013699999V0202501N001012200019N0500001N1-01651-01911099801ADDAA100000191GA1001+999999999GF100991001001999999001001KA1999M-01171MD1210251+9999REMSYN070AAXX  22181 27008 12984 02501 11165 21191 49980 52025 69920 333 11117;
0133270080999992000012300004+59400+035920FM-12+013699999V0202501N001019999999N0500001N1-01801-02061100221ADDGF107991071001999999031001MA1999999098401MD1210241+9999REMSYN066AAXX  23001 27008 42984 72501 11180 21206 39840 40022 52024 87030;
0180270080999992000012306004+59400+035920FM-12+013699999V0202901N001012200019N0280001N1-01771-02031100321ADDAA100000791AY171061AY211061GF103991001001999999001021KA1999N-02411MD1310101+9999MW1011REMSYN082AAXX  23061 27008 11978 32901 11177 21203 40032 53010 69900 70171 80002 333 21241;
0112270080999992000012309004+59400+035920FM-12+013699999V0202301N001012200019N0400001N1-01691-01951100331ADDGF102991001001999999001021MD1210011+9999REMSYN060AAXX  23091 27008 42982 22301 11169 21195 40033 52001 80002;
0133270080999992000012312004+59400+035920FM-12+013699999V0202501N001019999999N0400001N1-01481-01751100371ADDGF106991001001999999001021MA1999999098571MD1210061+9999REMSYN066AAXX  23121 27008 42982 62501 11148 21175 39857 40037 52006 80002;
0112270080999992000012315004+59400+035920FM-12+013699999V0202301N001019999999N0500001N1-01791-02051100631ADDGF106991001001999999001021MD1210231+9999REMSYN060AAXX  23151 27008 42984 62301 11179 21205 40063 52023 80002;
0152270080999992000012318004+59400+035920FM-12+013699999V0202701N001019999999N0500001N1-01731-01991100711ADDAA100000791GF106991001001999999001021KA1999M-01441MD1210081+9999REMSYN076AAXX  23181 27008 12984 62701 11173 21199 40071 52008 69900 80002 333 11144;
0133270080999992000012400004+59400+035920FM-12+013699999V0202301N002019999999N0500001N1-01821-02081100801ADDGF108991001001999999001071MA1999999098961MD1210031+9999REMSYN066AAXX  24001 27008 42984 82302 11182 21208 39896 40080 52003 80007;
0179270080999992000012403004+59400+035920FM-12+013699999V0202501N002019999999N0160001N1-01301-01501100691ADDAJ100389199999999AY171031AY221031GF108991081001999999011999IA1239MD1810071+9999MW1711REMSYN082AAXX  24031 27008 /1966 82502 11130 21150 40069 58007 77172 8801/ 333 47038 55024;
0180270080999992000012406004+59400+035920FM-12+013699999V0202501N002019999999N0400001N1-01431-01631100731ADDAA100000791AY171061AY221061GF107991071001999999031001KA1999N-01941MD1310031+9999MW1021REMSYN082AAXX  24061 27008 11982 72502 11143 21163 40073 53003 69900 70272 87030 333 21194;
0119270080999992000012409004+59400+035920FM-12+013699999V0202501N001019999999N0400001N1-01411-01611999999ADDGF107991999999999999999999REMSYN081AAXX  24091 27008 11982 72501 11141 21161 4071 53002 69900 70702 87030 333 21194;
0152270080999992000012412004+59400+035920FM-12+013699999V02099999999992200019N0400001N1-01221-02061100811ADDGF102991001001999999001011MA1999999098941MD1210031+9999REMSYN066AAXX  24121 27008 42982 25002 11122 21206 39894 40081 52003 83001;EQDQ01+000032SCOTLC
0140270080999992000012415004+59400+035920FM-12+013699999V0203601N002019999999N0140001N1-01731-01921101171ADDAY171031AY221031GF108991081001999999071999MD1210141+9999MW1021REMSYN066AAXX  24151 27008 41964 83602 11173 21192 40117 52014 70272 8807/;
0190270080999992000012418004+59400+035920FM-12+013699999V0203601N001012200019N0500001N1-02351-02671101381ADDAA100000891AY171061AY211061GA1001+999999999GF100991001001999999001001KA1999M-01301MD1210171+9999MW1011REMSYN076AAXX  24181 27008 11984 03601 11235 21267 40138 52017 69970 70171 333 11130;
0133270080999992000012500004+59400+035920FM-12+013699999V0200201N001012200019N0500001N1-02541-02851101561ADDGF103991001001999999001021MA1999999099661MD1210071+9999REMSYN066AAXX  25001 27008 42984 30201 11254 21285 39966 40156 52007 80002;
0181270080999992000012503004+59400+035920FM-12+013699999V0203401N001012200019N0500001N1-02821-03131101701ADDAA199000091AJ100399199999999GF103991001001999999001021IA1239MD1210101+9999REMSYN076AAXX  25031 27008 32984 33401 11282 21313 40170 52010 80002 333 47039 55000;EQDQ01  00002PRCP99
0165270080999992000012506004+59400+035920FM-12+013699999V0203201N001019999999N0400001N1-02641-02951101811ADDAA199000091GF108991081001999999071999KA1999N-02861MD1210131+9999REMSYN070AAXX  25061 27008 32982 83201 11264 21295 40181 52013 8807/ 333 21286;EQDQ01  00002PRCP99
0112270080999992000012509004+59400+035920FM-12+013699999V0200701N001019999999N0400001N1-02291-02691101571ADDGF108991081001999999071999MD1810011+9999REMSYN060AAXX  25091 27008 42982 80701 11229 21269 40157 58001 8807/;
0133270080999992000012512004+59400+035920FM-12+013699999V0203401N001012200019N0400001N1-02131-02531101651ADDGF102991001001999999001021MA1999999099781MD1710101+9999REMSYN066AAXX  25121 27008 42982 23401 11213 21253 39978 40165 57010 80002;
0112270080999992000012515004+59400+035920FM-12+013699999V0203401N001012200019N0500001N1-02361-02681101561ADDGF102991001001999999001021MD1710101+9999REMSYN060AAXX  25151 27008 42984 23401 11236 21268 40156 57010 80002;
0165270080999992000012518004+59400+035920FM-12+013699999V0209999C000012200019N0500001N1-02751-03061101651ADDAA199000091GF102991001001999999001021KA1999M-02121MD1310061+9999REMSYN070AAXX  25181 27008 32984 20000 11275 21306 40165 53006 80002 333 11212;EQDQ01  00002PRCP99
0143270080999992000012600004+59400+035920FM-12+013699999V0203401N001012200019N0500001N1-02761-02991101431ADDGA1001+999999999GF100991001001999999001001MA1999999099521MD1710101+9999REMSYN060AAXX  26001 27008 42984 03401 11276 21299 39952 40143 57010;
0191270080999992000012603004+59400+035920FM-12+013699999V0202901N002012200019N0500001N1-02511-02751101321ADDAA199000091AJ100399199999999GA1001+999999999GF100991001001999999001001IA1239MD1710101+9999REMSYN070AAXX  26031 27008 32984 02902 11251 21275 40132 57010 333 47039 55009;EQDQ01  00002PRCP99
0175270080999992000012606004+59400+035920FM-12+013699999V0203601N001012200019N0400001N1-02331-02651101151ADDAA199000091GA1001+999999999GF100991001001999999001001KA1999N-02961MD1710151+9999REMSYN064AAXX  26061 27008 32982 03601 11233 21265 40115 57015 333 21296;EQDQ01  00002PRCP99
0122270080999992000012609004+59400+035920FM-12+013699999V0202901N001012200019N0400001N1-02051-02381101031ADDGA1001+999999999GF100991001001999999001001MD1710101+9999REMSYN054AAXX  26091 27008 42982 02901 11205 21238 40103 57010;
0143270080999992000012612004+59400+035920FM-12+013699999V0202501N002012200019N0400001N1-01671-02011100861ADDGA1001+999999999GF100991001001999999001001MA1999999099031MD1710141+9999REMSYN060AAXX  26121 27008 42982 02502 11167 21201 39903 40086 57014;
0112270080999992000012615004+59400+035920FM-12+013699999V0202301N001012200019N0500001N1-02091-02421100661ADDGF102991001001999999001011MD1710231+9999REMSYN060AAXX  26151 27008 42984 22301 11209 21242 40066 57023 80001;
0175270080999992000012618004+59400+035920FM-12+013699999V0209999C000012200019N0500001N1-02661-02971100461ADDAA199000091GA1001+999999999GF100991001001999999001001KA1999M-01631MD1710231+9999REMSYN064AAXX  26181 27008 32984 00000 11266 21297 40046 57023 333 11163;EQDQ01  00002PRCP99
0161270080999992000012700004+59400+035920FM-12+013699999V0201601N002019999999N0120001N1-01851-02181099491ADDAY171061AY211061GF108991081001999999071999MA1999999097681MD1710441+9999MW1711REMSYN072AAXX  27001 27008 41962 81602 11185 21218 39768 49949 57044 77171 8807/;
0201270080999992000012703004+59400+035920FM-12+013699999V0201601N002010033019N0110001N1-01751-02091099261ADDAJ100449199999999AY171031AY221031GA1071+003309069GF108991071071004501021999IA1239MD1710221+9999MW1711REMSYN088AAXX  27031 27008 /1461 81602 11175 21209 49926 57022 77172 8772/ 333 47044 56057 87711;
0202270080999992000012706004+59400+035920FM-12+013699999V0202001N002010033019N0150001N1-01701-01961099131ADDAA100003091AY171061AY221061GA1071+003309069GF108991071071004501021999KA1120N-02751MD1710131+9999MW1711REMSYN088AAXX  27061 27008 11465 82002 11170 21196 49913 57013 60030 77172 8772/ 333 21275 87711;
0166270080999992000012709004+59400+035920FM-12+013699999V0202001N002010033019N0140001N1-01451-01721099161ADDAY171031AY221031GA1071+003309069GF108991071071004501021999MD1310041+9999MW1711REMSYN076AAXX  27091 27008 41464 82002 11145 21172 49916 53004 77172 8772/ 333 87711;
0161270080999992000012712004+59400+035920FM-12+013699999V0202301N002019999999N0400001N1-01151-01431099161ADDAY171061AY221061GF108991071001999999071999MA1999999097401MD1210031+9999MW1021REMSYN072AAXX  27121 27008 41982 82302 11115 21143 39740 49916 52003 70272 8707/;
0112270080999992000012715004+59400+035920FM-12+013699999V0202301N003019999999N0500001N1-00871-01061099401ADDGF108991071001999999071999MD1210261+9999REMSYN060AAXX  27151 27008 42984 82303 11087 21106 49940 52026 8707/;
0171270080999992000012718004+59400+035920FM-12+013699999V0202301N003019999999N0500001N1-00481-00611099471ADDAA100000391GF108991081001999999071999KA1999M+99999MD1210091+9999REMSYN076AAXX  27181 27008 12984 82303 11048 21061 49947 52009 69930 8807/ 333 11087;EQDQ01 -00872ATMX  
0161270080999992000012800004+59400+035920FM-12+013699999V0202001N002019999999N0500001N1-00501-00741099601ADDAY171061AY221061GF107991071001999999031001MA1999999097871MD1810031+9999MW1021REMSYN072AAXX  28001 27008 41984 72002 11050 21074 39787 49960 58003 70272 87030;
0151270080999992000012803004+59400+035920FM-12+013699999V0202001N002019999999N0400001N1-00471-00671099591ADDAJ100449199999999GF108991081001999999071999IA1239MD1710011+9999REMSYN076AAXX  28031 27008 /2982 82002 11047 21067 49959 57001 8807/ 333 47044 55000;
0152270080999992000012806004+59400+035920FM-12+013699999V0201401N001010120019N0400001N1-00491-00701099381ADDAA100000791GF108991081051012501999999KA1999N-00871MD1710201+9999REMSYN076AAXX  28061 27008 12682 81401 11049 21070 49938 57020 69900 885// 333 21087;
0140270080999992000012809004+59400+035920FM-12+013699999V0201401N002019999999N0180001N1-00401-00621099141ADDAY171031AY221031GF107991071001999999011001MD1710231+9999MW1711REMSYN066AAXX  28091 27008 41968 71402 11040 21062 49914 57023 77172 87010;
0187270080999992000012812004+59400+035920FM-12+013699999V0200901N002010036019N0160001N1-00411-00641098901ADDAY171061AY221061GA1071+003609069GF108991071071004501021999MA1999999097201MD1710231+9999MW1711REMSYN082AAXX  28121 27008 41466 80902 11041 21064 39720 49890 57023 77172 8772/ 333 87712;
0166270080999992000012815004+59400+035920FM-12+013699999V0200901N003010027019N0120001N1-00381-00501098781ADDAY171031AY221031GA1071+002709069GF108991071071002501021999MD1710121+9999MW1711REMSYN076AAXX  28151 27008 41362 80903 11038 21050 49878 57012 77172 8772/ 333 87709;
0180270080999992000012818004+59400+035920FM-12+013699999V0202901N001019999999N0500001N1-00471-00601098851ADDAA100003091AY171061AY221061GF108991081001999999071999KA1999M-00381MD1310061+9999MW1021REMSYN082AAXX  28181 27008 11984 82901 11047 21060 49885 53006 60030 70272 8807/ 333 11038;
0161270080999992000012900004+59400+035920FM-12+013699999V0202001N002019999999N0140001N1-00451-00611099281ADDAY171061AY221061GF108991081001999999071999MA1999999097561MD1210201+9999MW1711REMSYN072AAXX  29001 27008 41964 82002 11045 21061 39756 49928 52020 77172 8807/;
0179270080999992000012903004+59400+035920FM-12+013699999V0202501N004012200019N0500001N1-00611-01011099621ADDAJ100479199999999AY171031AY211031GF102991021001999999031001IA1239MD1210331+9999MW1011REMSYN082AAXX  29031 27008 /1984 22504 11061 21101 49962 52033 70171 82030 333 47047 55000;
0199270080999992000012906004+59400+035920FM-12+013699999V0202501N004012200019N0400001N1-00731-00981099901ADDAA100001091AY171061AY211061GF102991021051012501001001KA1999N+99999MD1210271+9999MW1021REMSYN082AAXX  29061 27008 11682 22504 11073 21098 49990 52027 69990 70271 82500 333 21061;EQDQ01 -00612ATMN  
0122270080999992000012909004+59400+035920FM-12+013699999V0202301N002012200019N0400001N1-00671-01041100181ADDGA1001+999999999GF100991001001999999001001MD1210271+9999REMSYN054AAXX  29091 27008 41982 02302 11067 21104 40018 52027;
0133270080999992000012912004+59400+035920FM-12+013699999V0201601N002019999999N0400001N1-00541-01001100201ADDGF107991001001999999001011MA1999999098461MD1210031+9999REMSYN066AAXX  29121 27008 42982 71602 11054 21100 39846 40020 52003 80001;
0122270080999992000012915004+59400+035920FM-12+013699999V0201401N002012200019N0500001N1-00891-01091100191ADDGA1001+999999999GF100991001001999999001001MD1810031+9999REMSYN054AAXX  29151 27008 42984 01402 11089 21109 40019 58003;
0165270080999992000012918004+59400+035920FM-12+013699999V0201401N004019999999N0500001N1-00561-00741099951ADDAA199000091GF107991071001999999031001KA1999M-00541MD1710211+9999REMSYN070AAXX  29181 27008 32984 71404 11056 21074 49995 57021 87030 333 11054;EQDQ01  00002PRCP99
0161270080999992000013000004+59400+035920FM-12+013699999V0201401N005019999999N0500001N1-00141-00341099421ADDAY131061AY221061GF108991081001999999071999MA1999999097731MD1710271+9999MW1361REMSYN072AAXX  30001 27008 41984 81405 11014 21034 39773 49942 57027 73632 8807/;
0209270080999992000013003004+59400+035920FM-12+013699999V0201401N006019999999N0500001N1-00031-00211099121ADDAA199000091AJ100479199999999AY131031AY221031GF108991081001999999071999IA1239MD1710261+9999MW1361REMSYN082AAXX  30031 27008 31984 81406 11003 21021 49912 57026 73632 8807/ 333 47047 55064;EQDQ01  00002PRCP99
0193270080999992000013006004+59400+035920FM-12+013699999V0201601N008019999999N0280001N1-00021-00321098831ADDAA199000091AY131061AY221061GF107991071001999999031001KA1999N-00891MD1710281+9999MW1361REMSYN076AAXX  30061 27008 31978 71608 11002 21032 49883 57028 73632 87030 333 21089;EQDQ01  00002PRCP99
0140270080999992000013009004+59400+035920FM-12+013699999V0201401N007019999999N0140001N1-00021-00291098721ADDAY171031AY231031GF108991081001999999071999MD1710111+9999MW1711REMSYN066AAXX  30091 27008 41964 81407 11002 21029 49872 57011 77173 8807/;
0187270080999992000013012004+59400+035920FM-12+013699999V0201601N006010036019N0160001N1-00041-00281098521ADDAY171061AY231061GA1071+003609069GF108991071071004501021999MA1999999096851MD1710201+9999MW1711REMSYN082AAXX  30121 27008 41466 81606 11004 21028 39685 49852 57020 77173 8772/ 333 87712;
0166270080999992000013015004+59400+035920FM-12+013699999V0201601N006010033019N0250001N1+00021-00241098431ADDAY171031AY231031GA1061+003309069GF108991061071004501021999MD1710091+9999MW1361REMSYN076AAXX  30151 27008 41475 81606 10002 21024 49843 57009 73673 8672/ 333 86711;
0202270080999992000013018004+59400+035920FM-12+013699999V0201601N006010033019N0100001N1-00041-00161098391ADDAA100001091AY171061AY231061GA1071+003309069GF108991071071004501021999KA1120M-00041MD1710031+9999MW1711REMSYN088AAXX  30181 27008 11460 81606 11004 21016 49839 57003 60010 77173 8772/ 333 11004 87711;
0187270080999992000013100004+59400+035920FM-12+013699999V0201601N006010036019N0500001N1+00041-00211098331ADDAY171061AY231061GA1071+003609069GF108991071071004501021999MA1999999096671MD1710021+9999MW1381REMSYN082AAXX  31001 27008 41484 81606 10004 21021 39667 49833 57002 73873 8772/ 333 87712;
0209270080999992000013103004+59400+035920FM-12+013699999V0201601N006010033019N0500001N1+00041-00121098281ADDAJ100459199999999AY131031AY221031GA1071+003309069GF108991071071004501021999GJ100009IA1239MD1710051+9999MW1381REMSYN088AAXX  31031 27008 /1484 81606 10004 21012 49828 57005 73832 8772/ 333 47045 55000 87711;
0202270080999992000013106004+59400+035920FM-12+013699999V0202001N004010036019N0270001N1-00061-00301098351ADDAA100000191AY131061AY221061GA1071+003609069GF108991071071004501021999KA1120N-00041MD1310051+9999MW1381REMSYN088AAXX  31061 27008 11477 82004 11006 21030 49835 53005 69920 73832 8772/ 333 21004 87712;
0166270080999992000013109004+59400+035920FM-12+013699999V0202001N004010060019N0140001N1-00251-00651098591ADDAY181031AY231031GA1081+006009099GF108991081091008001999999MD1210221+9999MW1851REMSYN076AAXX  31091 27008 41564 82004 11025 21065 49859 52022 78583 889// 333 88920;
0161270080999992000013112004+59400+035920FM-12+013699999V0202501N005010075019N0400001N1-00431-00851098781ADDAY181061AY231061GF106991061091008001001001MA1999999097081MD1210191+9999MW1021REMSYN072AAXX  31121 27008 41582 62505 11043 21085 39708 49878 52019 70283 86900;
0140270080999992000013115004+59400+035920FM-12+013699999V0202501N005010075019N0400001N1-00541-00921099011ADDAY181031AY221031GF105991051091008001001001MD1210211+9999MW1261REMSYN066AAXX  31151 27008 41582 52505 11054 21092 49901 52021 72682 85900;
0180270080999992000013118004+59400+035920FM-12+013699999V0202501N003019999999N0500001N1-00761-01161099311ADDAA100000791AY181061AY231061GF107991071001999999031001KA1999M+00041MD1210291+9999MW1361REMSYN082AAXX  31181 27008 11984 72503 11076 21116 49931 52029 69900 73683 87030 333 10004;
0171270080999992000020100004+59400+035920FM-12+013699999V0202001N002012200019N0500001N1-01281-01551099851ADDAY131061AY211061GA1001+999999999GF100991001001999999001001MA1999999098071MD1210191+9999MW1021REMSYN066AAXX  01001 27008 41984 02002 11128 21155 39807 49985 52019 70231;
0172270080999992000020103004+59400+035920FM-12+013699999V0201801N004012200019N0500001N1-01221-01421099771ADDAA199000021AJ100459199999999GA1001+999999999GF100991001001999999001001IA1239MD1810081+9999REMSYN070AAXX  01031 27008 32984 01804 11122 21142 49977 58008 333 47045 55002;
0193270080999992000020106004+59400+035920FM-12+013699999V0201801N005019999999N0300001N1-00821-01051099561ADDAA199000091AY131061AY211061GF107991071001999999031001KA1999N-01311MD1710171+9999MW1361REMSYN076AAXX  01061 27008 31980 71805 11082 21105 49956 57017 73631 87030 333 21131;EQDQ01  00002PRCP99
0140270080999992000020109004+59400+035920FM-12+013699999V0202001N005019999999N0400001N1-00501-00821099531ADDAY131031AY221031GF107991071001999999031001MD1710021+9999MW1361REMSYN066AAXX  01091 27008 41982 72005 11050 21082 49953 57002 73632 87030;
0187270080999992000020112004+59400+035920FM-12+013699999V0202301N007010048019N0170001N1-00401-00771099451ADDAY181061AY231061GA1051+004809099GF108991081091004501999999MA1999999097741MD1710061+9999MW1851REMSYN082AAXX  01121 27008 41467 82307 11040 21077 39774 49945 57006 78583 889// 333 85916;
0166270080999992000020115004+59400+035920FM-12+013699999V0202001N004010051019N0180001N1-00381-00711099481ADDAY181031AY231031GA1081+005109099GF108991081091004501999999MD1310031+9999MW1851REMSYN076AAXX  01151 27008 41468 82004 11038 21071 49948 53003 78583 889// 333 88917;
0202270080999992000020118004+59400+035920FM-12+013699999V0202001N004010051019N0150001N1-00331-00721099771ADDAA100000191AY181061AY231061GA1071+005109099GF107991071091004501001001KA1120M-00381MD1210291+9999MW1851REMSYN088AAXX  01181 27008 11465 72004 11033 21072 49977 52029 69920 78583 87900 333 11038 87917;
0161270080999992000020200004+59400+035920FM-12+013699999V0202301N003019999999N0500001N1-00551-00811099951ADDAY181061AY211061GF108991081001999999071999MA1999999098221MD1210071+9999MW1031REMSYN072AAXX  02001 27008 41984 82303 11055 21081 39822 49995 52007 70381 8807/;
0151270080999992000020203004+59400+035920FM-12+013699999V0202301N004019999999N0500001N1-00501-00741099841ADDAJ100459199999999GF107991071001999999071001IA1239MD1810111+9999REMSYN076AAXX  02031 27008 /2984 72304 11050 21074 49984 58011 87070 333 47045 55000;
0152270080999992000020206004+59400+035920FM-12+013699999V0201801N002010120019N0400001N1-00531-00711099541ADDAA100000791GF108991081091012501999999KA1999N-00701MD1710301+9999REMSYN076AAXX  02061 27008 12682 81802 11053 21071 49954 57030 69900 889// 333 21070;
0138270080999992000020209004+59400+035920FM-12+013699999V0201601N002010072019N0400001N1-00451-00681099251ADDGA1081+007209059GF108991081051008001999999MD1710281+9999REMSYN070AAXX  02091 27008 42582 81602 11045 21068 49925 57028 885// 333 88624;
0187270080999992000020212004+59400+035920FM-12+013699999V0201401N002010063019N0130001N1-00451-00611098821ADDAY181061AY221061GA1081+006309099GF108991081091008001999999MA1999999097111MD1710421+9999MW1851REMSYN082AAXX  02121 27008 41563 81402 11045 21061 39711 49882 57042 78582 889// 333 88921;
0166270080999992000020215004+59400+035920FM-12+013699999V0200901N002010054019N0110001N1-00501-00601098331ADDAY181031AY221031GA1081+005409099GF108991081091004501999999MD1710481+9999MW1851REMSYN076AAXX  02151 27008 41461 80902 11050 21060 49833 57048 78582 889// 333 88918;
0202270080999992000020218004+59400+035920FM-12+013699999V0200901N001010027019N0090001N1-00521-00661098081ADDAA100002091AY181061AY271061GA1071+002709069GF108991071071002501021999KA1120M-00451MD1710251+9999MW1731REMSYN088AAXX  02181 27008 11359 80901 11052 21066 49808 57025 60020 77387 8772/ 333 11045 87709;
0187270080999992000020300004+59400+035920FM-12+013699999V0202501N002010084019N0500001N1-00661-00861098531ADDAY171061AY221061GA1081+008409059GF108991081051008001999999MA1999999096811MD1210201+9999MW1021REMSYN082AAXX  03001 27008 41584 82502 11066 21086 39681 49853 52020 70272 885// 333 88628;
0209270080999992000020303004+59400+035920FM-12+013699999V0202301N002010036019N0180001N1-00621-00811098581ADDAJ100519199999999AY171031AY221031GA1071+003609069GF108991071071004501021999GJ100009IA1239MD1210061+9999MW1711REMSYN088AAXX  03031 27008 /1468 82302 11062 21081 49858 52006 77172 8772/ 333 47051 55000 87712;
0202270080999992000020306004+59400+035920FM-12+013699999V0202501N001010051019N0400001N1-00571-00751098741ADDAA100003091AY171061AY221061GA1051+005109099GF108991081091004501999999KA1120N-00691MD1210161+9999MW1021REMSYN088AAXX  03061 27008 11482 82501 11057 21075 49874 52016 60030 70272 889// 333 21069 85917;
0166270080999992000020309004+59400+035920FM-12+013699999V0202301N002010048019N0140001N1-00681-00881098961ADDAY181031AY221031GA1081+004809099GF108991081091004501999999MD1210211+9999MW1871REMSYN076AAXX  03091 27008 41464 82302 11068 21088 49896 52021 78782 889// 333 88916;
0187270080999992000020312004+59400+035920FM-12+013699999V0202501N003010057019N0290001N1-00781-01001099181ADDAY181061AY221061GA1081+005709099GF108991081091004501999999MA1999999097451MD1210211+9999MW1021REMSYN082AAXX  03121 27008 41479 82503 11078 21100 39745 49918 52021 70282 889// 333 88919;
0138270080999992000020315004+59400+035920FM-12+013699999V0202501N003010087019N0500001N1-00801-00981099441ADDGA1081+008709059GF108991081051008001999999MD1210261+9999REMSYN070AAXX  03151 27008 42584 82503 11080 21098 49944 52026 885// 333 88629;
0152270080999992000020318004+59400+035920FM-12+013699999V0202301N003019999999N0500001N1-00891-01041099651ADDAA100000191GF107991071001999999031001KA1999M-00571MD1210191+9999REMSYN076AAXX  03181 27008 12984 72303 11089 21104 49965 52019 69920 87030 333 11057;
0161270080999992000020400004+59400+035920FM-12+013699999V0202501N001019999999N0160001N1-00861-01141100121ADDAY171061AY221061GF108991081001999999071999MA1999999098361MD1210281+9999MW1711REMSYN072AAXX  04001 27008 41966 82501 11086 21114 39836 40012 52028 77172 8807/;
0179270080999992000020403004+59400+035920FM-12+013699999V0202501N002019999999N0160001N1-00971-01231100421ADDAJ100519199999999AY171031AY221031GF108991081001999999071999IA1239MD1210301+9999MW1711REMSYN082AAXX  04031 27008 11966 82502 11097 21123 40042 52030 77172 8807/ 333 47051 55000;
0180270080999992000020406004+59400+035920FM-12+013699999V0202501N003019999999N0150001N1-00951-01211100641ADDAA100000191AY171061AY221061GF108991081001999999071999KA1999N-00971MD1210211+9999MW1711REMSYN082AAXX  04061 27008 11965 82503 11095 21121 40064 52021 69920 77172 8807/ 333 21097;
0140270080999992000020409004+59400+035920FM-12+013699999V0202301N003010120019N0400001N1-00601-00831100691ADDAY171031AY221031GF107991071051012501001001MD1210081+9999MW1021REMSYN066AAXX  04091 27008 41682 72303 11060 21083 40069 52008 70272 87500;
0161270080999992000020412004+59400+035920FM-12+013699999V0202001N002010750019N0400001N1-00631-00901100701ADDAY171061AY221061GF106991031051012501001021MA1999999098951MD1410001+9999MW1021REMSYN072AAXX  04121 27008 41682 62002 11063 21090 39895 40070 54000 70272 83502;
0112270080999992000020415004+59400+035920FM-12+013699999V0201801N002019999999N0500001N1-00861-01101100431ADDGF107991001001999999001021MD1810281+9999REMSYN060AAXX  04151 27008 42984 71802 11086 21110 40043 58028 80002;
0180270080999992000020418004+59400+035920FM-12+013699999V0201601N003019999999N0130001N1-00721-00891099971ADDAA100000791AY171061AY221061GF108991081001999999071999KA1999M-00601MD1710441+9999MW1711REMSYN082AAXX  04181 27008 11963 81603 11072 21089 49997 57044 69900 77172 8807/ 333 11060;
0187270080999992000020500004+59400+035920FM-12+013699999V0201801N002010033019N0120001N1-00431-00551099141ADDAY171061AY231061GA1071+003309069GF108991071071004501021999MA1999999097431MD1710281+9999MW1711REMSYN082AAXX  05001 27008 41462 81802 11043 21055 39743 49914 57028 77173 8772/ 333 87711;
0209270080999992000020503004+59400+035920FM-12+013699999V0201801N002010027019N0110001N1-00281-00381098871ADDAJ100529199999999AY171031AY231031GA1071+002709069GF108991071071002501021999GJ100249IA1239MD1710261+9999MW1711REMSYN088AAXX  05031 27008 /1361 81802 11028 21038 49887 57026 77173 8772/ 333 47052 55004 87709;
0202270080999992000020506004+59400+035920FM-12+013699999V0202001N001010027019N0090001N1-00191-00301098801ADDAA100003091AY171061AY231061GA1071+002709069GF108991071071002501021999KA1120N-01011MD1710051+9999MW1731REMSYN088AAXX  05061 27008 11359 82001 11019 21030 49880 57005 60030 77373 8772/ 333 21101 87709;
0140270080999992000020509004+59400+035920FM-12+013699999V0202501N001019999999N0500001N1-00081-00211098881ADDAY171031AY221031GF107991071001999999031001MD1310081+9999MW1021REMSYN066AAXX  05091 27008 41984 72501 11008 21021 49888 53008 70272 87030;
0161270080999992000020512004+59400+035920FM-12+013699999V0202701N002019999999N0400001N1+00021-00211099221ADDAY171061AY221061GF108991081001999999071999MA1999999097541MD1210341+9999MW1021REMSYN072AAXX  05121 27008 41982 82702 10002 21021 39754 49922 52034 70272 8807/;
0140270080999992000020515004+59400+035920FM-12+013699999V0202701N003010300019N0500001N1-00081-00361099641ADDAY181031AY221031GF106991031091004501031001MD1210401+9999MW1261REMSYN066AAXX  05151 27008 41484 62703 11008 21036 49964 52040 72682 83930;
0180270080999992000020518004+59400+035920FM-12+013699999V0202501N003019999999N0500001N1-00211-00361100091ADDAA100001091AY181061AY221061GF108991081001999999071999KA1999M+00041MD1210441+9999MW1021REMSYN082AAXX  05181 27008 11984 82503 11021 21036 40009 52044 60010 70282 8807/ 333 10004;
0133270080999992000020600004+59400+035920FM-12+013699999V0202501N003019999999N0500001N1-00501-00671100731ADDGF108991081001999999071999MA1999999098991MD1210241+9999REMSYN066AAXX  06001 27008 42984 82503 11050 21067 39899 40073 52024 8807/;
0151270080999992000020603004+59400+035920FM-12+013699999V0202501N003019999999N0500001N1-00731-00941100951ADDAJ100529199999999GF108991081001999999071999IA1239MD1210201+9999REMSYN076AAXX  06031 27008 /2984 82503 11073 21094 40095 52020 8807/ 333 47052 55000;
0171270080999992000020606004+59400+035920FM-12+013699999V0202301N003019999999N0400001N1-00931-01091101031ADDAA100000791GF108991081001999999071999KA1999N+99999MD1210061+9999REMSYN076AAXX  06061 27008 12982 82303 11093 21109 40103 52006 69900 8807/ 333 21073;EQDQ01 -00732ATMN  
0112270080999992000020609004+59400+035920FM-12+013699999V0203201N002019999999N0400001N1-00831-00891101091ADDGF108991081001999999071999MD1210061+9999REMSYN060AAXX  06091 27008 42982 83202 11083 21089 40109 52006 8807/;
0133270080999992000020612004+59400+035920FM-12+013699999V0201801N002019999999N0400001N1-00441-00711101071ADDGF107991071001999999031001MA1999999099331MD1210021+9999REMSYN066AAXX  06121 27008 42982 71802 11044 21071 39933 40107 52002 87030;
0112270080999992000020615004+59400+035920FM-12+013699999V0201601N002019999999N0500001N1-00761-00941100981ADDGF107991001001999999001021MD1810111+9999REMSYN060AAXX  06151 27008 42984 71602 11076 21094 40098 58011 80002;
0165270080999992000020618004+59400+035920FM-12+013699999V0201601N003019999999N0500001N1-00641-00761100641ADDAA199000091GF108991081001999999071999KA1999M-00441MD1710341+9999REMSYN070AAXX  06181 27008 32984 81603 11064 21076 40064 57034 8807/ 333 11044;EQDQ01  00002PRCP99
0187270080999992000020700004+59400+035920FM-12+013699999V0201801N004010033019N0130001N1-00521-00621099881ADDAY171061AY231061GA1071+003309069GF108991071071004501021999MA1999999098151MD1710371+9999MW1711REMSYN082AAXX  07001 27008 41463 81804 11052 21062 39815 49988 57037 77173 8772/ 333 87711;
0209270080999992000020703004+59400+035920FM-12+013699999V0202001N003010027019N0180001N1-00061-00181099891ADDAJ100529199999999AY171031AY251031GA1081+002709069GF108991081061002501999999GJ100729IA1239MD1310041+9999MW1561REMSYN088AAXX  07031 27008 /1368 82003 11006 21018 49989 53004 75675 886// 333 47052 55012 88709;
0202270080999992000020706004+59400+035920FM-12+013699999V0202501N005010054019N0400001N1+00121-00051100031ADDAA100000891AY171061AY251061GA1081+005409099GF108991081091004501999999KA1120N-00761MD1210141+9999MW1021REMSYN088AAXX  07061 27008 11482 82505 10012 21005 40003 52014 69980 70275 889// 333 21076 88918;
0112270080999992000020709004+59400+035920FM-12+013699999V0202301N005010120019N0400001N1+00151-00201100291ADDGF108991081051012501999999MD1210261+9999REMSYN060AAXX  07091 27008 42682 82305 10015 21020 40029 52026 885//;
0133270080999992000020712004+59400+035920FM-12+013699999V0202301N005010120019N0400001N1+00141-00241100391ADDGF107991071041012501001001MA1999999098691MD1210101+9999REMSYN066AAXX  07121 27008 42682 72305 10014 21024 39869 40039 52010 87400;
0112270080999992000020715004+59400+035920FM-12+013699999V0201601N001012200019N0500001N1-00201-00381100521ADDGF102991001001999999001011MD1210111+9999REMSYN060AAXX  07151 27008 42984 21601 11020 21038 40052 52011 80001;
0152270080999992000020718004+59400+035920FM-12+013699999V0202001N003019999999N0500001N1-00031-00211100421ADDAA100000791GF108991081001999999071999KA1999M+00181MD1810081+9999REMSYN076AAXX  07181 27008 12984 82003 11003 21021 40042 58008 69900 8807/ 333 10018;
0187270080999992000020800004+59400+035920FM-12+013699999V0201601N003010033019N0110001N1+00041-00051099951ADDAY171061AY221061GA1071+003309069GF108991071071004501021999MA1999999098251MD1710261+9999MW1711REMSYN082AAXX  08001 27008 41461 81603 10004 21005 39825 49995 57026 77172 8772/ 333 87711;
0209270080999992000020803004+59400+035920FM-12+013699999V0201601N003010030019N0120001N1+00021-00011099591ADDAJ100549199999999AY171031AY221031GA1071+003009069GF108991071071004501021999GJ101749IA1239MD1710351+9999MW1711REMSYN088AAXX  08031 27008 /1462 81603 10002 21001 49959 57035 77172 8772/ 333 47054 55029 87710;
0202270080999992000020806004+59400+035920FM-12+013699999V0201801N003010030019N0170001N1+00061-00021099421ADDAA100001091AY171061AY221061GA1071+003009069GF108991071071004501021999KA1120N-00251MD1710161+9999MW1711REMSYN088AAXX  08061 27008 11467 81803 10006 21002 49942 57016 60010 77172 8772/ 333 21025 87710;
0140270080999992000020809004+59400+035920FM-12+013699999V0201801N004010120019N0400001N1+00151+00011099441ADDAY171031AY221031GF107991071051012501001001MD1310021+9999MW1021REMSYN066AAXX  08091 27008 41682 71804 10015 20001 49944 53002 70272 87500;
0187270080999992000020812004+59400+035920FM-12+013699999V0202001N003010057019N0400001N1+00171+00031099401ADDAY181061AY221061GA1081+005709099GF108991081091004501999999MA1999999097731MD1810031+9999MW1251REMSYN082AAXX  08121 27008 41482 82003 10017 20003 39773 49940 58003 72582 889// 333 88919;
0138270080999992000020815004+59400+035920FM-12+013699999V0201801N003010054019N0500001N1+00131-00011099401ADDGA1081+005409099GF108991081091004501999999MD1710011+9999REMSYN070AAXX  08151 27008 42484 81803 10013 21001 49940 57001 889// 333 88918;
0152270080999992000020818004+59400+035920FM-12+013699999V0201801N003019999999N0500001N1+00121-00051099391ADDAA100002091GF107991071001999999071001KA1999M+00191MD1710011+9999REMSYN076AAXX  08181 27008 12984 71803 10012 21005 49939 57001 60020 87070 333 10019;
0133270080999992000020900004+59400+035920FM-12+013699999V0201601N003019999999N0500001N1+00041-00101099201ADDGF108991081001999999071999MA1999999097521MD1710131+9999REMSYN066AAXX  09001 27008 42984 81603 10004 21010 39752 49920 57013 8807/;
0181270080999992000020903004+59400+035920FM-12+013699999V0201601N003019999999N0500001N1+00041-00101099071ADDAA199000091AJ100499199999999GF108991081001999999071999IA1279MD1710131+9999REMSYN076AAXX  09031 27008 32984 81603 10004 21010 49907 57013 8807/ 333 43049 55001;EQDQ01  00002PRCP99
0174270080999992000020906004+59400+035920FM-12+013699999V0201601N002019999999N0230001N1+00061-00051099051ADDAA199000021AY171061AY221061GF108991081001999999071999KA1999N+00031MD1710021+9999MW1221REMSYN076AAXX  09061 27008 31973 81602 10006 21005 49905 57002 72272 8807/ 333 20003;
0112270080999992000020909004+59400+035920FM-12+013699999V0201801N001010120019N0260001N1+00141+00001099031ADDGF108991081051012501999999MD1710021+9999REMSYN060AAXX  09091 27008 42676 81801 10014 20000 49903 57002 885//;
0159270080999992000020912004+59400+035920FM-12+013699999V0201601N001010093019N0400001N1+00181+00021099071ADDGA1081+009309059GF108991081051008001999999MA1999999097401MD1310051+9999REMSYN076AAXX  09121 27008 42582 81601 10018 20002 39740 49907 53005 885// 333 88631;
0166270080999992000020915004+59400+035920FM-12+013699999V0201401N002010036019N0150001N1+00141+00061099171ADDAY171031AY261031GA1071+003609069GF108991071071004501021999MD1210091+9999MW1611REMSYN076AAXX  09151 27008 41465 81402 10014 20006 49917 52009 76176 8772/ 333 87712;
0202270080999992000020918004+59400+035920FM-12+013699999V0202001N002010039019N0170001N1+00151+00071099481ADDAA100000591AY171061AY261061GA1071+003909069GF108991071071004501021999KA1120M+00191MD1210311+9999MW1611REMSYN088AAXX  09181 27008 11467 82002 10015 20007 49948 52031 69950 76176 8772/ 333 10019 87713;
0161270080999992000021000004+59400+035920FM-12+013699999V0202001N002019999999N0500001N1+00131+00021099831ADDAY161061AY221061GF108991081001999999071999MA1999999098141MD1210111+9999MW1021REMSYN072AAXX  10001 27008 41984 82002 10013 20002 39814 49983 52011 70262 8807/;
0179270080999992000021003004+59400+035920FM-12+013699999V0201601N002019999999N0150001N1+00051-00031100011ADDAJ100439199999999AY171031AY221031GF108991081001999999071999IA1279MD1210171+9999MW1711REMSYN082AAXX  10031 27008 /1965 81602 10005 21003 40001 52017 77172 8807/ 333 43043 55000;
0180270080999992000021006004+59400+035920FM-12+013699999V0202301N002019999999N0400001N1+00041-00021100191ADDAA100000391AY171061AY221061GF107991051001999999031011KA1999N+00051MD1210181+9999MW1021REMSYN082AAXX  10061 27008 /1982 72302 10004 21002 40019 52018 69930 70272 85031 333 20005;
0138270080999992000021009004+59400+035920FM-12+013699999V0202301N001010063019N0400001N1+00051-00121100511ADDGA1071+006309099GF108991071091008001001001MD1210311+9999REMSYN070AAXX  10091 27008 42582 82301 10005 21012 40051 52031 87900 333 87921;
0133270080999992000021012004+59400+035920FM-12+013699999V0202501N002012200019N0400001N1+00111-00381100781ADDGF102991021041012501001001MA1999999099071MD1210271+9999REMSYN066AAXX  10121 27008 42682 22502 10011 21038 39907 40078 52027 82400;
0112270080999992000021015004+59400+035920FM-12+013699999V0202501N002019999999N0400001N1-00111-00471101021ADDGF106991061001999999031001MD1210221+9999REMSYN060AAXX  10151 27008 42982 62502 11011 21047 40102 52022 86030;
0162270080999992000021018004+59400+035920FM-12+013699999V0209999C000012200019N0500001N1-00461-00731101171ADDAA100000791GA1001+999999999GF100991001001999999001001KA1999M+00111MD1210131+9999REMSYN070AAXX  10181 27008 12984 00000 11046 21073 40117 52013 69900 333 10011;
0133270080999992000021100004+59400+035920FM-12+013699999V0202001N001019999999N0500001N1-00801-00981101211ADDGF107991001001999999001021MA1999999099441MD1210011+9999REMSYN066AAXX  11001 27008 42984 72001 11080 21098 39944 40121 52001 80002;
0181270080999992000021103004+59400+035920FM-12+013699999V0201601N001019999999N0500001N1-00641-00801101211ADDAA199000091AJ100439199999999GF107991001001999999001021IA1239MD1410001+9999REMSYN076AAXX  11031 27008 32984 71601 11064 21080 40121 54000 80002 333 47043 55035;EQDQ01  00002PRCP99
0165270080999992000021106004+59400+035920FM-12+013699999V0201801N004019999999N0400001N1-00621-00741101101ADDAA199000091GF107991001001999999001091KA1999N-00801MD1810091+9999REMSYN070AAXX  11061 27008 32982 71804 11062 21074 40110 58009 80009 333 21080;EQDQ01  00002PRCP99
0138270080999992000021109004+59400+035920FM-12+013699999V0201801N003010054019N0400001N1-00331-00501100971ADDGA1061+005409099GF108991081091004501999999MD1710111+9999REMSYN070AAXX  11091 27008 42482 81803 11033 21050 40097 57011 889// 333 86918;
0159270080999992000021112004+59400+035920FM-12+013699999V0201801N005010087019N0400001N1-00191-00471100821ADDGA1081+008709059GF108991081051008001999999MA1999999099101MD1710141+9999REMSYN076AAXX  11121 27008 42582 81805 11019 21047 39910 40082 57014 885// 333 88629;
0166270080999992000021115004+59400+035920FM-12+013699999V0201801N003010042019N0130001N1-00161-00331100741ADDAY171031AY221031GA1071+004209069GF108991071071004501021999MD1710081+9999MW1711REMSYN076AAXX  11151 27008 41463 81803 11016 21033 40074 57008 77172 8772/ 333 87714;
0221270080999992000021118004+59400+035920FM-12+013699999V0201801N003010033019N0500001N1-00021-00141100661ADDAA100000391AY171061AY221061GA1071+003309069GF108991071071004501021999KA1120M+99999MD1710071+9999MW1021REMSYN088AAXX  11181 27008 /1484 81803 11002 21014 40066 57007 69930 70272 8772/ 333 11016 87711;EQDQ01 -00162ATMX  
0208270080999992000021200004+59400+035920FM-12+013699999V0201801N003010030019N0150001N1+00081-00211100831ADDAY171061AY221061GA1071+003009069GF108991071071004501021999MA1999999099121MW1711REMSYN082AAXX  12001 27008 41465 81803 10008 21021 39912 40083 52913 77172 8772/ 333 87710;EQDQ01+000027APCTENQ02+009137APC3  
0179270080999992000021203004+59400+035920FM-12+013699999V0202001N004019999999N0500001N1+00071-00221100821ADDAJ100439199999999AY171031AY221031GF108991081001999999071999IA1279MD1810011+9999MW1021REMSYN082AAXX  12031 27008 /1984 82004 10007 21022 40082 58001 70272 8807/ 333 43043 55002;
0180270080999992000021206004+59400+035920FM-12+013699999V0202001N004019999999N0400001N1+00081-00181100821ADDAA100000391AY171061AY221061GF108991081001999999071999KA1999N-00161MD1410001+9999MW1021REMSYN082AAXX  12061 27008 11982 82004 10008 21018 40082 54000 69930 70272 8807/ 333 21016;
0112270080999992000021209004+59400+035920FM-12+013699999V0202301N005010120019N0400001N1+00241+00001100831ADDGF107991071051012501001001MD1310031+9999REMSYN060AAXX  12091 27008 42682 72305 10024 21000 40083 53003 87500;
0133270080999992000021212004+59400+035920FM-12+013699999V0202301N003010120019N0400001N1+00331-00141100971ADDGF106991061051012501001001MA1999999099271MD1210131+9999REMSYN066AAXX  12121 27008 42682 62303 10033 21014 39927 40097 52013 86500;
0112270080999992000021215004+59400+035920FM-12+013699999V0202301N004012200019N0400001N1+00231-00331101031ADDGF103991031051012501001001MD1210061+9999REMSYN060AAXX  12151 27008 42682 32304 10023 21033 40103 52006 83500;
0175270080999992000021218004+59400+035920FM-12+013699999V0202301N002012200019N0500001N1+00021-00381101211ADDAA199000091GA1001+999999999GF100991001001999999001001KA1999M+00371MD1210171+9999REMSYN064AAXX  12181 27008 32984 02302 10002 21038 40121 52017 333 10037;EQDQ01  00002PRCP99
0133270080999992000021300004+59400+035920FM-12+013699999V0202301N003019999999N0500001N1+00141-00181101381ADDGF108991081001999999071999MA1999999099671MD1210031+9999REMSYN066AAXX  13001 27008 42984 82303 10014 21018 39967 40138 52003 8807/;
0181270080999992000021303004+59400+035920FM-12+013699999V0202301N002019999999N0500001N1+00081-00061101401ADDAA199000091AJ100439199999999GF108991081001999999071999IA1279MD1210021+9999REMSYN076AAXX  13031 27008 32984 82302 10008 21006 40140 52002 8807/ 333 43043 55049;EQDQ01  00002PRCP99
0165270080999992000021306004+59400+035920FM-12+013699999V0201801N001010120019N0400001N1+00101-00041101331ADDAA199000091GF108991081051012501999999KA1999N-00141MD1810071+9999REMSYN070AAXX  13061 27008 32682 81801 10010 21004 40133 58007 885// 333 21014;EQDQ01  00002PRCP99
0112270080999992000021309004+59400+035920FM-12+013699999V0201801N001010120019N0400001N1+00161-00031101331ADDGF108991081051012501999999MD1310011+9999REMSYN060AAXX  13091 27008 42682 81801 10016 21003 40133 53001 885//;
0133270080999992000021312004+59400+035920FM-12+013699999V0201601N002010120019N0400001N1+00181-00191101151ADDGF108991081051012501999999MA1999999099451MD1810181+9999REMSYN066AAXX  13121 27008 42682 81602 10018 21019 39945 40115 58018 885//;
0112270080999992000021315004+59400+035920FM-12+013699999V0201601N002019999999N0400001N1+00181-00291100931ADDGF108991081001999999071999MD1710211+9999REMSYN060AAXX  13151 27008 42982 81602 10018 21029 40093 57021 8807/;
0165270080999992000021318004+59400+035920FM-12+013699999V0201601N003019999999N0500001N1+00131-00421100851ADDAA199000091GF108991081001999999071999KA1999M+00191MD1710101+9999REMSYN070AAXX  13181 27008 32984 81603 10013 21042 40085 57010 8807/ 333 10019;EQDQ01  00002PRCP99
0133270080999992000021400004+59400+035920FM-12+013699999V0201601N003019999999N0500001N1-00121-00551100611ADDGF107991071001999999071001MA1999999098891MD1710121+9999REMSYN066AAXX  14001 27008 42984 71603 11012 21055 39889 40061 57012 87070;
0181270080999992000021403004+59400+035920FM-12+013699999V0201601N003019999999N0500001N1-00171-00441100461ADDAA199000091AJ100429199999999GF108991081001999999071999IA1239MD1710151+9999REMSYN076AAXX  14031 27008 32984 81603 11017 21044 40046 57015 8807/ 333 47042 55000;EQDQ01  00002PRCP99
0196270080999992000021406004+59400+035920FM-12+013699999V0201801N002010042019N0120001N1-00161-00241100431ADDAA199000021AY171061AY221061GA1071+004209069GF108991071071004501021999KA1120N-00171MD1710021+9999MW1711REMSYN082AAXX  14061 27008 31462 81802 11016 21024 40043 57002 77172 8772/ 333 21017 87714;
0159270080999992000021409004+59400+035920FM-12+013699999V0202001N002010120019N0400001N1-00011-00181100471ADDAY171031AY221031GF108991999091012501001001MD1310041+9999MW1021REMSYN066AAXX  14091 27008 41682 82002 11001 21018 40047 53004 70272 87900;EQDQ01+000072SCOTLC
0161270080999992000021412004+59400+035920FM-12+013699999V0202001N003010300019N0400001N1+00101-00291100541ADDAY171061AY221061GF107991021091008001031001MA1999999098831MD1210171+9999MW1021REMSYN072AAXX  14121 27008 41582 72003 10010 21029 39883 40054 52017 70272 82930;
0166270080999992000021415004+59400+035920FM-12+013699999V0202001N003010060019N0400001N1-00081-00331100631ADDAY181031AY221031GA1071+006009099GF107991071091008001001001MD1210081+9999MW1021REMSYN076AAXX  14151 27008 41582 72003 11008 21033 40063 52008 70282 87900 333 87920;
0180270080999992000021418004+59400+035920FM-12+013699999V0201601N001019999999N0500001N1-00181-00461100631ADDAA100000191AY181061AY221061GF107991071001999999031001KA1999M+00121MD1410001+9999MW1021REMSYN082AAXX  14181 27008 11984 71601 11018 21046 40063 54000 69910 70282 87030 333 10012;
0133270080999992000021500004+59400+035920FM-12+013699999V0201801N002019999999N0500001N1-00221-00471100571ADDGF108991081001999999071999MA1999999098851MD1410001+9999REMSYN066AAXX  15001 27008 42984 81802 11022 21047 39885 40057 54000 8807/;
0181270080999992000021503004+59400+035920FM-12+013699999V0201801N002019999999N0500001N1-00211-00421100551ADDAA199000091AJ100429199999999GF108991081001999999071999IA1279MD1810021+9999REMSYN076AAXX  15031 27008 32984 81802 11021 21042 40055 58002 8807/ 333 43042 55005;EQDQ01  00002PRCP99
0209270080999992000021506004+59400+035920FM-12+013699999V0201601N003019999999N0400001N1-00341-00511100561ADDAA199000091AY181061AY221061GF108991071001999999031021KA1999N+99999MD1410001+9999MW1021REMSYN076AAXX  15061 27008 31982 81603 11034 21051 40056 54000 70282 87032 333 21024;EQDQ01  00002PRCP99Q02 -00242ATMN  
0112270080999992000021509004+59400+035920FM-12+013699999V0201801N002019999999N0400001N1-00241-00461100601ADDGF107991061001999999031021MD1310051+9999REMSYN060AAXX  15091 27008 42982 71802 11024 21046 40060 53005 86032;
0161270080999992000021512004+59400+035920FM-12+013699999V0201801N002010750019N0260001N1-00121-00451100601ADDAY181061AY221061GF107991021091008001001091MA1999999098881MD1410001+9999MW1261REMSYN072AAXX  15121 27008 41576 71802 11012 21045 39888 40060 54000 72682 82909;
0112270080999992000021515004+59400+035920FM-12+013699999V0202001N002010300019N0400001N1-00221-00401100551ADDGF107991031091008001031021MD1810051+9999REMSYN060AAXX  15151 27008 42582 72002 11022 21040 40055 58005 83932;
0174270080999992000021518004+59400+035920FM-12+013699999V0202001N002010060019N0500001N1-00391-00541100561ADDAA100000791GA1071+006009099GF107991071091008001001001KA1120M-00101MD1410001+9999REMSYN082AAXX  15181 27008 12584 72002 11039 21054 40056 54000 69900 87900 333 11010 87920;
0180270080999992000021600004+59400+035920FM-12+013699999V0202001N001010075019N0160001N1-00311-00411100591ADDAY181061AY221061GF108991999091008001011011MA1999999098861MD1410001+9999MW1851REMSYN072AAXX  16001 27008 41566 82001 11031 21041 39886 40059 54000 78582 88911;EQDQ01+000082SCOTLC
0240270080999992000021603004+59400+035920FM-12+013699999V0202001N001010063019N0500001N1-00351-00841999999ADDAA112999999AA224999929AY181031AY221031GA1081+006309099GF108991081999008001999999GJ100549MD1310011+9999MW1021REMSYN101AAXX  16031 27008 /1584 82001 11035 21084 53001 70282 88/// 333 55009 88921 555 21047 69502 7990/ /-;EQDQ01  95002PRCP12
0180270080999992000021606004+59400+035920FM-12+013699999V0201801N001010120019N0400001N1-00471-00531100611ADDAA100000791AY181061AY221061GF106991051051012501001021KA1999N-00471MD1410001+9999MW1021REMSYN082AAXX  16061 27008 11682 61801 11047 21053 40061 54000 69900 70282 85502 333 21047;
0140270080999992000021609004+59400+035920FM-12+013699999V0201601N002010750019N0400001N1-00271-00431100631ADDAY181031AY221031GF107991031091008001001021MD1310031+9999MW1021REMSYN066AAXX  16091 27008 41582 71602 11027 21043 40063 53003 70282 83902;
0161270080999992000021612004+59400+035920FM-12+013699999V0201601N003010120019N0400001N1-00131-00461100591ADDAY181061AY221061GF107991071091012501001001MA1999999098871MD1810031+9999MW1021REMSYN072AAXX  16121 27008 41682 71603 11013 21046 39887 40059 58003 70282 87900;
0166270080999992000021615004+59400+035920FM-12+013699999V0201601N003010057019N0140001N1-00191-00401100571ADDAY181031AY221031GA1081+005709099GF108991081091004501999999MD1710021+9999MW1851REMSYN076AAXX  16151 27008 41464 81603 11019 21040 40057 57002 78582 889// 333 88919;
0202270080999992000021618004+59400+035920FM-12+013699999V0201401N002010051019N0110001N1-00221-00341100601ADDAA100000191AY181061AY221061GA1071+005109099GF107991071091004501001001KA1120M-00131MD1310031+9999MW1851REMSYN088AAXX  16181 27008 11461 71402 11022 21034 40060 53003 69920 78582 87900 333 11013 87917;
0187270080999992000021700004+59400+035920FM-12+013699999V0201401N002010045019N0230001N1-00271-00371100651ADDAY181061AY221061GA1081+004509099GF108991081091004501999999MA1999999098921MD1210031+9999MW1021REMSYN082AAXX  17001 27008 41473 81402 11027 21037 39892 40065 52003 70282 889// 333 88915;
0209270080999992000021703004+59400+035920FM-12+013699999V0201601N002010048019N0090001N1-00261-00321100661ADDAJ100479199999999AY181031AY221031GA1081+004809099GF108991081091004501999999GJ100009IA1239MD1210011+9999MW1851REMSYN088AAXX  17031 27008 /1459 81602 11026 21032 40066 52001 78582 889// 333 47047 55000 88916;
0202270080999992000021706004+59400+035920FM-12+013699999V0201401N002010051019N0190001N1-00231-00351100671ADDAA100002091AY181061AY221061GA1081+005109099GF108991081091004501999999KA1120N-00291MD1210021+9999MW1851REMSYN088AAXX  17061 27008 11469 81402 11023 21035 40067 52002 60020 78582 889// 333 21029 88917;
0166270080999992000021709004+59400+035920FM-12+013699999V0201401N001010054019N0400001N1-00181-00361100721ADDAY181031AY221031GA1061+005409099GF108991081091004501999999MD1210051+9999MW1021REMSYN076AAXX  17091 27008 41482 81401 11018 21036 40072 52005 70282 889// 333 86918;
0187270080999992000021712004+59400+035920FM-12+013699999V0201101N002010048019N0170001N1-00121-00291100761ADDAY181061AY221061GA1081+004809099GF108991081091004501999999MA1999999099041MD1210041+9999MW1851REMSYN082AAXX  17121 27008 41467 81102 11012 21029 39904 40076 52004 78582 889// 333 88916;
0166270080999992000021715004+59400+035920FM-12+013699999V0201101N002010051019N0180001N1-00081-00241100731ADDAY181031AY221031GA1081+005109099GF108991081091004501999999MD1810031+9999MW1851REMSYN076AAXX  17151 27008 41468 81102 11008 21024 40073 58003 78582 889// 333 88917;
0221270080999992000021718004+59400+035920FM-12+013699999V0201601N003010054019N0150001N1+00001-00081100821ADDAA100000891AY181061AY221061GA1081+005409099GF108991081091004501999999KA1120M+99999MD1310101+9999MW1851REMSYN088AAXX  17181 27008 11465 81603 10000 21008 40082 53010 69970 78582 889// 333 11008 88918;EQDQ01 -00082ATMX  
0187270080999992000021800004+59400+035920FM-12+013699999V0201601N003010051019N0130001N1-00031-00121100951ADDAY181061AY221061GA1071+005109099GF107991071091004501001001MA1999999099241MD1210101+9999MW1851REMSYN082AAXX  18001 27008 41463 71603 11003 21012 39924 40095 52010 78582 87900 333 87917;
0209270080999992000021803004+59400+035920FM-12+013699999V0201601N004010054019N0500001N1-00291-00491101021ADDAJ100519199999999AY181031AY231031GA1081+005409099GF108991081091004501999999GJ100009IA1239MD1210041+9999MW1361REMSYN088AAXX  18031 27008 /1484 81604 11029 21049 40102 52004 73683 889// 333 47051 55000 88918;
0180270080999992000021806004+59400+035920FM-12+013699999V0201601N002019999999N0400001N1-00341-00551101071ADDAA100002091AY181061AY231061GF108991081001999999071999KA1999N-00291MD1210051+9999MW1021REMSYN082AAXX  18061 27008 41982 81602 11034 21055 40107 52005 60020 70283 8807/ 333 21029;
0140270080999992000021809004+59400+035920FM-12+013699999V0201401N002019999999N0160001N1-00251-00471101091ADDAY171031AY221031GF108991081001999999071999MD1210021+9999MW1711REMSYN066AAXX  18091 27008 41966 81402 11025 21047 40109 52002 77172 8807/;
0161270080999992000021812004+59400+035920FM-12+013699999V0201401N004019999999N0120001N1-00181-00421100971ADDAY171061AY231061GF108991081001999999071999MA1999999099251MD1810101+9999MW1701REMSYN072AAXX  18121 27008 41962 81404 11018 21042 39925 40097 58010 77073 8807/;
0140270080999992000021815004+59400+035920FM-12+013699999V0201401N003019999999N0130001N1-00181-00261100841ADDAY171031AY231031GF108991081001999999071999MD1710131+9999MW1711REMSYN066AAXX  18151 27008 41963 81403 11018 21026 40084 57013 77173 8807/;
0202270080999992000021818004+59400+035920FM-12+013699999V0201601N003010036019N0140001N1-00161-00301100811ADDAA100001091AY171061AY231061GA1071+003609069GF108991071071004501021999KA1120M-00181MD1710031+9999MW1711REMSYN088AAXX  18181 27008 11464 81603 11016 21030 40081 57003 69990 77173 8772/ 333 11018 87712;
0187270080999992000021900004+59400+035920FM-12+013699999V0201401N002010036019N0090001N1-00271-00401100781ADDAY171061AY221061GA1071+003609069GF108991071071004501021999MA1999999099051MD1810051+9999MW1731REMSYN082AAXX  19001 27008 41459 81402 11027 21040 39905 40078 58005 77372 8772/ 333 87712;
0209270080999992000021903004+59400+035920FM-12+013699999V0202001N001010036019N0150001N1-00201-00351100771ADDAJ100539199999999AY171031AY221031GA1071+003609069GF108991071071004501021999GJ100009IA1239MD1410001+9999MW1711REMSYN088AAXX  19031 27008 /1465 82001 11020 21035 40077 54000 77172 8772/ 333 47053 55000 87712;
0202270080999992000021906004+59400+035920FM-12+013699999V0202701N001010033019N0200001N1-00241-00331100941ADDAA100002091AY171061AY221061GA1071+003309069GF108991071071004501021999KA1120N-00271MD1310171+9999MW1021REMSYN088AAXX  19061 27008 11470 82701 11024 21033 40094 53017 60020 70272 8772/ 333 21027 87711;
0112270080999992000021909004+59400+035920FM-12+013699999V0203201N001019999999N0400001N1-00121-00381101101ADDGF107991071001999999031001MD1210151+9999REMSYN060AAXX  19091 27008 42982 73201 11012 21038 40110 52015 87030;
0133270080999992000021912004+59400+035920FM-12+013699999V0203201N001010120019N0400001N1-00071-00561101221ADDGF107991051041012501001021MA1999999099491MD1210121+9999REMSYN066AAXX  19121 27008 42682 73201 11007 21056 39949 40122 52012 85402;
0112270080999992000021915004+59400+035920FM-12+013699999V0209999C000019999999N0400001N1-00161-00461101311ADDGF108991071001999999031021MD1210091+9999REMSYN060AAXX  19151 27008 42982 80000 11016 21046 40131 52009 87032;
0152270080999992000021918004+59400+035920FM-12+013699999V0203201N001019999999N0500001N1-00261-00561101451ADDAA100000391GF108991081001999999071999KA1999M-00031MD1210131+9999REMSYN076AAXX  19181 27008 12984 83201 11026 21056 40145 52013 69930 8807/ 333 11003;
0133270080999992000022000004+59400+035920FM-12+013699999V0209999C000019999999N0500001N1-00681-00801101571ADDGF108991001001999999001021MA1999999099791MD1210061+9999REMSYN066AAXX  20001 27008 42984 80000 11068 21080 39979 40157 52006 80002;
0181270080999992000022003004+59400+035920FM-12+013699999V0203201N001019999999N0500001N1-00721-00851101601ADDAA199000091AJ100539199999999GF107991001001999999001021IA1239MD1210031+9999REMSYN076AAXX  20031 27008 32984 73201 11072 21085 40160 52003 80002 333 47053 55004;EQDQ01  00002PRCP99
0181270080999992000022006004+59400+035920FM-12+013699999V0203601N002019999999N0400001N1-00811-00951101651ADDAA199000091GF107991001001999999001021KA1999N+99999MD1210051+9999REMSYN070AAXX  20061 27008 32982 73602 11081 21095 40165 52005 80002 333 21072;EQDQ01  00002PRCP99Q02 -00722ATMN  
0112270080999992000022009004+59400+035920FM-12+013699999V0203601N003019999999N0400001N1-00731-00981101701ADDGF107991001001999999001061MD1210051+9999REMSYN060AAXX  20091 27008 42982 73603 11073 21098 40170 52005 80006;
0133270080999992000022012004+59400+035920FM-12+013699999V0203401N003019999999N0400001N1-00591-00891101701ADDGF107991001001999999001021MA1999999099941MD1210021+9999REMSYN066AAXX  20121 27008 42982 73403 11059 21089 39994 40170 52002 80002;
0112270080999992000022015004+59400+035920FM-12+013699999V0203601N002019999999N0400001N1-00631-00901101691ADDGF108991001001999999001021MD1810021+9999REMSYN060AAXX  20151 27008 42982 83602 11063 21090 40169 58002 80002;
0165270080999992000022018004+59400+035920FM-12+013699999V0203601N003019999999N0500001N1-00831-00971101671ADDAA199000091GF107991001001999999001021KA1999M-00591MD1710031+9999REMSYN070AAXX  20181 27008 32984 73603 11083 21097 40167 57003 80002 333 11059;EQDQ01  00002PRCP99
0133270080999992000022100004+59400+035920FM-12+013699999V0203401N001019999999N0500001N1-00861-00971101591ADDGF108991081001999999011999MA1999999099801MD1710061+9999REMSYN066AAXX  21001 27008 42984 83401 11086 21097 39980 40159 57006 8801/;
0181270080999992000022103004+59400+035920FM-12+013699999V0203201N002019999999N0500001N1-00931-01051101561ADDAA199000091AJ100539199999999GF108991081001999999021999IA1239MD1710031+9999REMSYN076AAXX  21031 27008 32984 83202 11093 21105 40156 57003 8802/ 333 47053 55000;EQDQ01  00002PRCP99
0181270080999992000022106004+59400+035920FM-12+013699999V0203201N002019999999N0400001N1-00991-01111101471ADDAA199000091GF108991081001999999071999KA1999N+99999MD1710081+9999REMSYN070AAXX  21061 27008 32982 83202 11099 21111 40147 57008 8807/ 333 21093;EQDQ01  00002PRCP99Q02 -00932ATMN  
0112270080999992000022109004+59400+035920FM-12+013699999V0203601N003019999999N0400001N1-00881-01071101421ADDGF107991001001999999001091MD1710051+9999REMSYN060AAXX  21091 27008 42982 73603 11088 21107 40142 57005 80009;
0112270080999992000022115004+59400+035920FM-12+013699999V0202901N002019999999N0400001N1-00581-00921101391ADDGF107991001001999999001021MD1310011+9999REMSYN060AAXX  21151 27008 42982 72902 11058 21092 40139 53001 80002;
0175270080999992000022118004+59400+035920FM-12+013699999V0202701N001012200019N0500001N1-00801-01071101491ADDAA199000091GA1001+999999999GF100991001001999999001001KA1999M-00561MD1210081+9999REMSYN064AAXX  21181 27008 32984 02701 11080 21107 40149 52008 333 11056;EQDQ01  00002PRCP99
0133270080999992000022200004+59400+035920FM-12+013699999V0202501N002019999999N0500001N1-01031-01231101611ADDGF107991071001999999031001MA1999999099811MD1210071+9999REMSYN066AAXX  22001 27008 42984 72502 11103 21123 39981 40161 52007 87030;
0179270080999992000022203004+59400+035920FM-12+013699999V0202701N002019999999N0170001N1-00831-01021101621ADDAJ100539199999999AY171031AY221031GF108991081001999999071999IA1239MD1210031+9999MW1711REMSYN082AAXX  22031 27008 /1967 82702 11083 21102 40162 52003 77172 8807/ 333 47053 55000;
0180270080999992000022206004+59400+035920FM-12+013699999V0203201N001019999999N0150001N1-00861-01051101671ADDAA100000191AY171061AY221061GF108991081001999999071999KA1999N-01031MD1210041+9999MW1711REMSYN082AAXX  22061 27008 11965 83201 11086 21105 40167 52004 69920 77172 8807/ 333 21103;
0140270080999992000022209004+59400+035920FM-12+013699999V0203601N002019999999N0400001N1-00791-01151101821ADDAY171031AY221031GF108991081001999999071999MD1210161+9999MW1221REMSYN066AAXX  22091 27008 41982 83602 11079 21115 40182 52016 72272 8807/;
0161270080999992000022212004+59400+035920FM-12+013699999V0203401N002019999999N0170001N1-00701-01171101821ADDAY171061AY221061GF108991081001999999071999MA1999999100041MD1410001+9999MW1701REMSYN072AAXX  22121 27008 41967 83402 11070 21117 30004 40182 54000 77072 8807/;
0140270080999992000022215004+59400+035920FM-12+013699999V0203401N002019999999N0170001N1-00741-01181101841ADDAY171031AY221031GF108991081001999999071999MD1310021+9999MW1701REMSYN066AAXX  22151 27008 41967 83402 11074 21118 40184 53002 77072 8807/;
0180270080999992000022218004+59400+035920FM-12+013699999V0203201N001019999999N0130001N1-00901-01191101851ADDAA100000391AY171061AY221061GF108991081001999999071999KA1999M-00681MD1410001+9999MW1711REMSYN082AAXX  22181 27008 11963 83201 11090 21119 40185 54000 69930 77172 8807/ 333 11068;
0187270080999992000022300004+59400+035920FM-12+013699999V0203401N001010036019N0250001N1-00881-01071101881ADDAY171061AY221061GA1071+003609069GF108991071071004501021999MA1999999100091MD1210021+9999MW1021REMSYN082AAXX  23001 27008 41475 83401 11088 21107 30009 40188 52002 70272 8772/ 333 87712;
0151270080999992000022303004+59400+035920FM-12+013699999V0202901N002019999999N0500001N1-01021-01301101741ADDAJ100559199999999GF107991071001999999071001IA1239MD1810151+9999REMSYN076AAXX  23031 27008 /2984 72902 11102 21130 40174 58015 87070 333 47055 55000;
0199270080999992000022306004+59400+035920FM-12+013699999V0203401N003019999999N0110001N1-01131-01331101741ADDAA100000891AY171061AY221061GF108991081001999999071999KA1999N+99999MD1410001+9999MW1711REMSYN082AAXX  23061 27008 11961 83403 11113 21133 40174 54000 69980 77172 8807/ 333 21104;EQDQ01 -01042ATMN  
0140270080999992000022309004+59400+035920FM-12+013699999V0203601N002019999999N0400001N1-01091-01531101771ADDAY171031AY231031GF107991001001999999001021MD1310031+9999MW1361REMSYN066AAXX  23091 27008 41982 73602 11109 21153 40177 53003 73673 80002;
0155270080999992000022312004+59400+035920FM-12+013699999V0203601N005019999999N0400001N1-00801-01481101731ADDAY171061AY231061GF107991999999999999999999MA1999999099901MD1810021+9999MW1331REMSYN066AAXX  23121 27008 41982 73605 11080 21148 3999/ 40173 58002 73373;
