0140287910999992000010100004+54620+072580FM-12+010999999V0200901N007019999999N0060001N1-02471-02651102491ADDAY171061AY231061GF108991081001999999021999MD1710481+9999MW1361REMSYN066AAXX  01001 28791 41956 80907 11247 21265 40249 57048 73673 8802/;
0180287910999992000010106004+54620+072580FM-12+010999999V0200601N006019999999N0500001N1-02341-02591102271ADDAA100000891AY171061AY231061GF108991001001999999001091KA1999N-02821MD1710071+9999MW1361REMSYN082AAXX  01061 28791 11999 80606 11234 21259 40227 57007 69980 73673 80009 333 21282;
0140287910999992000010112004+54620+072580FM-12+010999999V0200501N004019999999N0050001N1-02351-02601102351ADDAY171061AY231061GF108991081001999999021999MD1210101+9999MW1711REMSYN066AAXX  01121 28791 41950 80504 11235 21260 40235 52010 77173 8802/;
0190287910999992000010118004+54620+072580FM-12+010999999V0200501N003012200019N0400001N1-02661-02901102441ADDAA100000591AY171061AY211061GA1001+999999999GF100991001001999999001001KA1999M-02291MD1210071+9999MW1021REMSYN076AAXX  01181 28791 11982 00503 11266 21290 40244 52007 69960 70271 333 11229;
0122287910999992000010200004+54620+072580FM-12+010999999V0202601N005012200019N0400001N1-02841-03081102791ADDGA1001+999999999GF100991001001999999001001MD1210211+9999REMSYN054AAXX  02001 28791 42982 02605 11284 21308 40279 52021;
0165287910999992000010206004+54620+072580FM-12+010999999V0203401N003012200019N0500001N1-02891-03201103251ADDAA106000091GF102991001001999999001011KA1999N-03041MD1210231+9999REMSYN070AAXX  02061 28791 32999 23403 11289 21320 40325 52023 80001 333 21304;EQDQ01  00002PRCP06
0122287910999992000010212004+54620+072580FM-12+010999999V0203101N003012200019N0400001N1-02901-03201103671ADDGA1001+999999999GF100991001001999999001001MD1210241+9999REMSYN054AAXX  02121 28791 42982 03103 11290 21320 40367 52024;
0175287910999992000010218004+54620+072580FM-12+010999999V0203001N002012200019N0450001N1-03081-03381104111ADDAA106000091GA1001+999999999GF100991001001999999001001KA1999M-02791MD1210181+9999REMSYN064AAXX  02181 28791 32983 03002 11308 21338 40411 52018 333 11279;EQDQ01  00002PRCP06
0122287910999992000010300004+54620+072580FM-12+010999999V0202601N002012200019N0450001N1-03221-03521104301ADDGA1001+999999999GF100991001001999999001001MD1210111+9999REMSYN054AAXX  03001 28791 42983 02602 11322 21352 40430 52011;
0180287910999992000010306004+54620+072580FM-12+010999999V0202901N002019999999N0040001N1-02821-03131104351ADDAA100000391AY171061AY221061GF108991051001999999011051KA1999N-03271MD1710031+9999MW1711REMSYN082AAXX  03061 28791 11996 82902 11282 21313 40435 57003 69930 77172 85015 333 21327;
0112287910999992000010312004+54620+072580FM-12+010999999V0202301N002012200019N0400001N1-02981-03281104481ADDGF102991001001999999001091MD1210011+9999REMSYN060AAXX  03121 28791 42982 22302 11298 21328 40448 52001 80009;
0162287910999992000010318004+54620+072580FM-12+010999999V0202401N002012200019N0400001N1-03161-03381104781ADDAA100000391GA1001+999999999GF100991001001999999001001KA1999M-02711MD1210101+9999REMSYN070AAXX  03181 28791 12982 02402 11316 21338 40478 52010 69930 333 11271;
0122287910999992000010400004+54620+072580FM-12+010999999V0209999C000012200019N0400001N1-03181-03471104921ADDGA1001+999999999GF100991001001999999001001MD1210071+9999REMSYN054AAXX  04001 28791 42982 00000 11318 21347 40492 52007;
0175287910999992000010406004+54620+072580FM-12+010999999V0201901N002012200019N0500001N1-03251-03551104871ADDAA106000091GA1001+999999999GF100991001001999999001001KA1999N-03891MD1710011+9999REMSYN064AAXX  04061 28791 32999 01902 11325 21355 40487 57001 333 21389;EQDQ01  00002PRCP06
0122287910999992000010412004+54620+072580FM-12+010999999V0201601N002012200019N0400001N1-03131-03421104701ADDGA1001+999999999GF100991001001999999001001MD1710051+9999REMSYN054AAXX  04121 28791 42982 01602 11313 21342 40470 57005;
0112287910999992000010500004+54620+072580FM-12+010999999V0201201N003019999999N0400001N1-02601+99999103691ADDGF108991081001999999071999MD1710271+9999REMSYN060AAXX  05001 28791 42982 81203 11260 21248 40369 57027 8807/;
0165287910999992000010506004+54620+072580FM-12+010999999V0201201N006019999999N0500001N1-02361-02681103041ADDAA106000091GF108991001001999999001051KA1999N-03331MD1710301+9999REMSYN070AAXX  05061 28791 32999 81206 11236 21268 40304 57030 80005 333 21333;EQDQ01  00002PRCP06
0140287910999992000010512004+54620+072580FM-12+010999999V0201201N007019999999N0450001N1-02101-02501102371ADDAY131061AY221061GF108991081001999999021999MD1710321+9999MW1361REMSYN066AAXX  05121 28791 41983 81207 11210 21250 40237 57032 73632 8802/;
0216287910999992000010518004+54620+072580FM-12+010999999V0201301N008019999999N0400001N1-01981-02311101951ADDAA106000091AY131061AY221061GF108991081001999999021999KA1120M-02011MD1710161+9999MW1361OA140101201REMSYN088AAXX  05181 28791 31982 81308 11198 21231 40195 57016 73632 8802/ 333 11201 91012 91112;EQDQ01  00002PRCP06
0165287910999992000010606004+54620+072580FM-12+010999999V0200201N002019999999N0500001N1-02051-02301101681ADDAA106000091GF108991001001999999001051KA1999N-02201MD1210031+9999REMSYN070AAXX  06061 28791 32999 80202 11205 21230 40168 52003 80005 333 21220;EQDQ01  00002PRCP06
0140287910999992000010612004+54620+072580FM-12+010999999V0201101N001019999999N0500001N1-01911-02171101841ADDAY171061AY221061GF108991081001999999071999MD1210101+9999MW1021REMSYN066AAXX  06121 28791 41984 81101 11191 21217 40184 52010 70272 8807/;
0122287910999992000010700004+54620+072580FM-12+010999999V0203101N002012200019N0300001N1-02461-02701102071ADDGA1001+999999999GF100991001001999999001001MD1210041+9999REMSYN054AAXX  07001 28791 42980 03102 11246 21270 40207 52004;
0175287910999992000010706004+54620+072580FM-12+010999999V0202901N001012200019N0500001N1-02481-02731102331ADDAA106000091GA1001+999999999GF100991001001999999001001KA1999N-02541MD1210151+9999REMSYN064AAXX  07061 28791 32999 02901 11248 21273 40233 52015 333 21254;EQDQ01  00002PRCP06
0112287910999992000010712004+54620+072580FM-12+010999999V0209999C000019999999N0500001N1-02631+99999102311ADDGF108991001001999999001041MD1210041+9999REMSYN060AAXX  07121 28791 42984 80000 11263 21187 40231 52004 80004;
0165287910999992000010718004+54620+072580FM-12+010999999V0201101N003019999999N0400001N1-02421-02661102301ADDAA106000091GF108991081001999999021999KA1999M-02261MD1710051+9999REMSYN070AAXX  07181 28791 32982 81103 11242 21266 40230 57005 8802/ 333 11226;EQDQ01  00002PRCP06
0140287910999992000010800004+54620+072580FM-12+010999999V0200901N004019999999N0060001N1-02371-02611101981ADDAY171061AY231061GF108991081001999999021999MD1710211+9999MW1711REMSYN066AAXX  08001 28791 41956 80904 11237 21261 40198 57021 77173 8802/;
0180287910999992000010806004+54620+072580FM-12+010999999V0200701N004019999999N0040001N1-02291-02541101511ADDAA100000591AY171061AY231061GF108991081001999999021999KA1999N-02601MD1710041+9999MW1711REMSYN082AAXX  08061 28791 11996 80704 11229 21254 40151 57004 69960 77173 8802/ 333 21260;
0150287910999992000010812004+54620+072580FM-12+010999999V0201001N002012200019N0400001N1-02611-02851102031ADDAY171061AY211061GA1001+999999999GF100991001001999999001001MD1210111+9999MW1011REMSYN060AAXX  08121 28791 41982 01002 11261 21285 40203 52011 70171;
0162287910999992000010818004+54620+072580FM-12+010999999V0203201N001012200019N0400001N1-02921-03151102461ADDAA100000891GA1001+999999999GF100991001001999999001001KA1999M-02191MD1210221+9999REMSYN070AAXX  08181 28791 12982 03201 11292 21315 40246 52022 69970 333 11219;
0122287910999992000010900004+54620+072580FM-12+010999999V0209999C000012200019N0400001N1-03141-03361102841ADDGA1001+999999999GF100991001001999999001001MD1210191+9999REMSYN054AAXX  09001 28791 42982 00000 11314 21336 40284 52019;
0122287910999992000010912004+54620+072580FM-12+010999999V0201901N002012200019N0400001N1-02501-02811103071ADDGA1001+999999999GF100991001001999999001001MD1210051+9999REMSYN054AAXX  09121 28791 42982 01902 11250 21281 40307 52005;
0193287910999992000011006004+54620+072580FM-12+010999999V0202201N007019999999N0500001N1-00741-00951101881ADDAA106000091AY131061AY221061GF108991001001999999001051KA1999N-02111MD1710121+9999MW1361REMSYN076AAXX  10061 28791 31999 82207 11074 21095 40188 57012 73632 80005 333 21211;EQDQ01  00002PRCP06
0184287910999992000011012004+54620+072580FM-12+010999999V0202401N009019999999N0010001N1-00671-00791101701ADDAY171061AY231061GF108991081001999999021999MD1710031+9999MW1731OA140101301OA249901301REMSYN088AAXX  10121 28791 41910 82409 11067 21079 40170 57003 77373 8802/ 333 91013 91113 92992;
0140287910999992000011100004+54620+072580FM-12+010999999V0202401N005010300019N0060001N1-00721-00851101511ADDAY171061AY231061GF108991031071004501021999MD1710061+9999MW1711REMSYN066AAXX  11001 28791 41456 82405 11072 21085 40151 57006 77173 8372/;
0180287910999992000011106004+54620+072580FM-12+010999999V0202401N006019999999N0040001N1-00691-00851101591ADDAA100000591AY171061AY231061GF108991081001999999021999KA1999N-00791MD1210071+9999MW1711REMSYN082AAXX  11061 28791 11996 82406 11069 21085 40159 52007 69950 77173 8802/ 333 21079;
0151287910999992000011112004+54620+072580FM-12+010999999V02099999999992200019N0050001N1-00621-00701101591ADDAW1771AZ111061GF102991999001999999999999MD1210061+9999REMSYN066AAXX  11121 28791 44950 25005 11062 21070 40159 52006 77713 880//;EQDQ01+000082SCOTLC
0180287910999992000011118004+54620+072580FM-12+010999999V0202401N006019999999N0070001N1-00591-00661101541ADDAA100000391AY171061AY231061GF108991081001999999021999KA1999M-00541MD1710021+9999MW1711REMSYN082AAXX  11181 28791 11957 82406 11059 21066 40154 57002 69930 77173 8802/ 333 11054;
0140287910999992000011200004+54620+072580FM-12+010999999V0202201N003019999999N0060001N1-00571-00681101421ADDAY171061AY231061GF108991081001999999021999MD1710061+9999MW1711REMSYN066AAXX  12001 28791 41956 82203 11057 21068 40142 57006 77173 8802/;
0199287910999992000011206004+54620+072580FM-12+010999999V0202101N003019999999N0040001N1-00771-00871101331ADDAA100002091AY171061AY221061GF108991081001999999011999KA1999N+99999MD1710021+9999MW1711REMSYN082AAXX  12061 28791 11996 82103 11077 21087 40133 57002 60020 77172 8801/ 333 21069;EQDQ01 -00692ATMN  
0166287910999992000011300004+54620+072580FM-12+010999999V0202801N003010078019N0350001N1-00491-00551101721ADDAY171061AY221061GA1081+007809059GF108991081051999999999999MD1210111+9999MW1021REMSYN076AAXX  13001 28791 41981 82803 11049 21055 40172 52011 70272 885// 333 88626;
0180287910999992000011306004+54620+072580FM-12+010999999V0202501N005019999999N0040001N1-00631-00751101861ADDAA100000191AY171061AY221061GF108991081001999999021999KA1999N-00731MD1210151+9999MW1711REMSYN082AAXX  13061 28791 11996 82505 11063 21075 40186 52015 69920 77172 8802/ 333 21073;
0140287910999992000011312004+54620+072580FM-12+010999999V0202301N002019999999N0060001N1-00921-01031101971ADDAY171061AY221061GF108991081001999999011999MD1210101+9999MW1711REMSYN066AAXX  13121 28791 41956 82302 11092 21103 40197 52010 77172 8801/;
0180287910999992000011318004+54620+072580FM-12+010999999V0202101N002019999999N0070001N1-01381-01441102021ADDAA100000191AY171061AY221061GF108991081001999999071999KA1999M-00591MD1410001+9999MW1711REMSYN082AAXX  13181 28791 11957 82102 11138 21144 40202 54000 69920 77172 8807/ 333 11059;
0144287910999992000011400004+54620+072580FM-12+010999999V0202301N004019999999N0070001N1-01091-01151101851ADDAY171061AY221061GF108991081001999999071999MD1710081+9999MW1711REMSYN070    AAXX  14001 28791 41957 82304 11109 21115 40185 57008 77172 8807/;
0171287910999992000011412004+54620+072580FM-12+010999999V0202301N006019999999N0350001N1-00601-00711100571ADDAY171061AY231061GF108991081001999999071999MD1710171+9999MW1361OA149901201REMSYN086    AAXX  14121 28791 41981 82306 11060 21071 40057 57017 73673 8807/ 333 91112 92990;
0203287910999992000011418004+54620+072580FM-12+010999999V0202401N006019999999N0050001N1-00351-00431100401ADDAA100001091AY171061AY231061GF108991081001999999071999KA1999M+99999MD1710011+9999MW1711REMSYN086    AAXX  14181 28791 11950 82406 11035 21043 40040 57001 60010 77173 8807/ 333 11051;EQDQ01 -00512ATMX  
0144287910999992000011500004+54620+072580FM-12+010999999V0202501N006019999999N0400001N1-00571-00751100511ADDAY171061AY231061GF108991001001999999001051MD1210071+9999MW1361REMSYN070    AAXX  15001 28791 41982 82506 11057 21075 40051 52007 73673 80005;
0203287910999992000011506004+54620+072580FM-12+010999999V0203001N005012200019N0500001N1-00961-01371100971ADDAA100000791AY131061AY211061GF103991031001999999041001KA1999N+99999MD1210221+9999MW1011REMSYN086    AAXX  15061 28791 11999 33005 11096 21137 40097 52022 69900 70131 83040 333 21063;EQDQ01 -00632ATMN  
0126287910999992000011512004+54620+072580FM-12+010999999V0203101N005012200019N0400001N1-02291-02861101641ADDGA1001+999999999GF100991001001999999001001MD1210431+9999REMSYN058    AAXX  15121 28791 42982 03105 11229 21286 40164 52043;
0179287910999992000011518004+54620+072580FM-12+010999999V0203001N004012200019N0400001N1-02661-03121102451ADDAA199000091GA1001+999999999GF100991001001999999001001KA1999M-00501MD1210311+9999REMSYN068    AAXX  15181 28791 32982 03004 11266 21312 40245 52031 333 11050;EQDQ01  00002PRCP99
0126287910999992000011600004+54620+072580FM-12+010999999V0202901N005012200019N0400001N1-02741-03121103141ADDGA1001+999999999GF100991001001999999001001MD1210261+9999REMSYN058    AAXX  16001 28791 42982 02905 11274 21312 40314 52026;
0169287910999992000011606004+54620+072580FM-12+010999999V0202501N002012200019N0500001N1-02831-03201103521ADDAA199000091GF103991001001999999001011KA1999N-02891MD1210151+9999REMSYN074    AAXX  16061 28791 32999 32502 11283 21320 40352 52015 80001 333 21289;EQDQ01  00002PRCP99
0116287910999992000011612004+54620+072580FM-12+010999999V0202601N002019999999N0350001N1-02691-03001103401ADDGF108991001001999999001051MD1710071+9999REMSYN064    AAXX  16121 28791 42981 82602 11269 21300 40340 57007 80005;
0158287910999992000011618004+54620+072580FM-12+010999999V0201701N003019999999N0400001N1-02261-02581103081ADDGF108991001001999999001051KA1999M+99999MD1710141+9999REMSYN074    AAXX  16181 28791 42982 81703 11226 21258 40308 57014 80005 333 11240;EQDQ01 -02402ATMX  
0126287910999992000011700004+54620+072580FM-12+010999999V0201601N002012200019N0400001N1-02481-02871102681ADDGA1001+999999999GF100991001001999999001001MD1710211+9999REMSYN058    AAXX  17001 28791 42982 01602 11248 21287 40268 57021;
0184287910999992000011706004+54620+072580FM-12+010999999V0201901N003019999999N0200001N1-01561-01831102391ADDAA100000791AY171061AY211061GF108991031001999999011051KA1999N-02521MD1710101+9999MW1221REMSYN086    AAXX  17061 28791 11998 81903 11156 21183 40239 57010 69900 72271 83015 333 21252;
0116287910999992000011712004+54620+072580FM-12+010999999V0202001N006019999999N0280001N1-01231-01501102101ADDGF108991001001999999001051MD1710081+9999REMSYN064    AAXX  17121 28791 42978 82006 11123 21150 40210 57008 80005;
0156287910999992000011718004+54620+072580FM-12+010999999V0202201N003019999999N0400001N1-01291-01491101941ADDAA100000791GF108991001001999999001051KA1999M-01141MD1710071+9999REMSYN080    AAXX  17181 28791 12982 82203 11129 21149 40194 57007 69900 80005 333 11114;
0126287910999992000011800004+54620+072580FM-12+010999999V0202001N001012200019N0350001N1-01811-02001101781ADDGA1001+999999999GF100991001001999999001001MD1710121+9999REMSYN058    AAXX  18001 28791 42981 02001 11181 21200 40178 57012;
0184287910999992000011806004+54620+072580FM-12+010999999V0202001N002019999999N0500001N1-01721-01911101761ADDAA100000791AY171061AY211061GF108991001001999999001071KA1999N-01831MD1210041+9999MW1021REMSYN086    AAXX  18061 28791 11999 82002 11172 21191 40176 52004 69900 70271 80007 333 21183;
0116287910999992000011812004+54620+072580FM-12+010999999V0202101N002019999999N0300001N1-01621-01811101711ADDGF108991001001999999001091MD1210021+9999REMSYN064    AAXX  18121 28791 42980 82102 11162 21181 40171 52002 80009;
0178287910999992000011818004+54620+072580FM-12+010999999V0202301N003019999999N0070001N1-01331-01461101931ADDAA199000021AY171061AY221061GF108991081001999999071999KA1999M-01351MD1210161+9999MW1711REMSYN080    AAXX  18181 28791 31957 82303 11133 21146 40193 52016 77172 8807/ 333 11135;
0144287910999992000011900004+54620+072580FM-12+010999999V0202501N004019999999N0070001N1-01311-01441102101ADDAY171061AY221061GF108991081001999999071999MD1210131+9999MW1711REMSYN070    AAXX  19001 28791 41957 82504 11131 21144 40210 52013 77172 8807/;
0206287910999992000011906004+54620+072580FM-12+010999999V0202401N002010072019N0040001N1-01051-01111102541ADDAA100000591AY171061AY221061GA1081+007209059GF108991081051008001999999KA1120N-01911MD1210191+9999MW1711REMSYN092    AAXX  19061 28791 11596 82402 11105 21111 40254 52019 69950 77172 885// 333 21191 88624;
0144287910999992000011912004+54620+072580FM-12+010999999V0202401N001019999999N0350001N1-01391-01521102731ADDAY171061AY211061GF108991081001999999051999MD1210071+9999MW1031REMSYN070    AAXX  19121 28791 41981 82401 11139 21152 40273 52007 70371 8805/;
0146287910999992000011918004+54620+072580FM-12+010999999V0201801N003019999999N0400001N1-01771-01891102781ADDAA100000791GF108991999999999999999999KA1999M-00911MD1710031+9999REMSYN070AAXX  19181 28791 12982 81803 11177 21189 40278 57003 69900 333 11091;
0180287910999992000012000004+54620+072580FM-12+010999999V0201401N002019999999N0500001N1-01241-01591102111ADDAA100001091AY171061AY221061GF107991001001999999001091KA1999N-01631MD1210211+9999MW1021REMSYN082AAXX  10601 28791 11999 71402 11124 21159 40211 52021 69990 70272 80009 333 21163;
0175287910999992000012006004+54620+072580FM-12+010999999V0201801N002012200019N0500001N1-01831-02021102591ADDAA199000091GA1001+999999999GF100991001001999999001001KA1999N-02371MD1710141+9999REMSYN064AAXX  20061 28791 32999 01802 11183 21202 40259 57014 333 21237;EQDQ01  00002PRCP99
0112287910999992000012012004+54620+072580FM-12+010999999V0201101N003019999999N0400001N1-01551-01681102301ADDGF108991001001999999001011MD1710101+9999REMSYN060AAXX  20121 28791 42982 81103 11155 21168 40230 57010 80001;
0159287910999992000012018004+54620+072580FM-12+010999999V0201201N006019999999N0400001N1-01611+99999101971ADDAA199000091GF105991001001999999001011KA1999M-01511MD1710151+9999REMSYN064AAXX  20181 28791 32982 51206 11161 40197 57015 80001 333 11151;EQDQ01  00002PRCP99
0112287910999992000012100004+54620+072580FM-12+010999999V0201501N007019999999N0300001N1-01211-01411101701ADDGF108991081001999999071999MD1710081+9999REMSYN060AAXX  21001 28791 42980 81507 11121 21141 40170 57008 8807/;
0140287910999992000012112004+54620+072580FM-12+010999999V0201001N005019999999N0500001N1-01221-01351102401ADDAY171061AY221061GF108991051001999999031011MD1210121+9999MW1021REMSYN066AAXX  21121 28791 41984 81005 11122 21135 40240 52012 70272 85031;
0152287910999992000012118004+54620+072580FM-12+010999999V0201201N005019999999N0450001N1-01021-01151102311ADDAA100000791GF108991081001999999021999KA1999M-00881MD1710031+9999REMSYN076AAXX  21181 28791 12983 81205 11102 21115 40231 57003 69900 8802/ 333 11088;
0112287910999992000012200004+54620+072580FM-12+010999999V0201101N005019999999N0400001N1-00721-00851102181ADDGF108991081001999999021999MD1710071+9999REMSYN060AAXX  22001 28791 42982 81105 11072 21085 40218 57007 8802/;
0193287910999992000012206004+54620+072580FM-12+010999999V0201201N007019999999N0500001N1-01241-01511102191ADDAA199000091AY171061AY221061GF108991001001999999001051KA1999N-01371MD1210011+9999MW1361REMSYN076AAXX  22061 28791 32999 81207 11124 21151 40219 52001 73672 80005 333 21137;EQDQ01  00002PRCP99
0140287910999992000012212004+54620+072580FM-12+010999999V0201101N008019999999N0500001N1-01181-01451102131ADDAY131061AY221061GF108991001001999999001091MD1710051+9999MW1361REMSYN066AAXX  22121 28791 41984 81108 11118 21145 40213 57005 73632 80009;
0216287910999992000012218004+54620+072580FM-12+010999999V0201201N008019999999N0400001N1-01031-01561102021ADDAA199000091AY131061AY221061GF108991001001999999001011KA1120M-01021MD1710021+9999MW1361OA140101201REMSYN088AAXX  22181 28791 32982 81208 11103 21156 40202 57002 73632 80001 333 11102 91012 91112;EQDQ01  00002PRCP99
0167287910999992000012300004+54620+072580FM-12+010999999V0201201N008019999999N0400001N1-01191-01631101921ADDAY131061AY221061GF108991001001999999001011MD1710061+9999MW1361OA140101201REMSYN082AAXX  23001 28791 41982 81208 11119 21163 40192 57006 73632 80001 333 91012 91112;
0140287910999992000012312004+54620+072580FM-12+010999999V0201301N006019999999N0400001N1-01131-01481101921ADDAY171061AY231061GF108991081001999999021999MD1210031+9999MW1361REMSYN066AAXX  23121 28791 41982 81306 11113 21148 40192 52003 73673 8802/;
0180287910999992000012318004+54620+072580FM-12+010999999V0201101N005019999999N0070001N1-01231-01431101871ADDAA100000591AY171061AY231061GF108991081001999999021999KA1999M-01101MD1710061+9999MW1711REMSYN082AAXX  23181 28791 11957 81105 11123 21143 40187 57006 69940 77173 8802/ 333 11110;
0140287910999992000012400004+54620+072580FM-12+010999999V0201201N003019999999N0070001N1-01351-01551101821ADDAY171061AY231061GF108991081001999999021999MD1710031+9999MW1711REMSYN066AAXX  24001 28791 41957 81203 11135 21155 40182 57003 77173 8802/;
0180287910999992000012406004+54620+072580FM-12+010999999V0202101N003012200019N0040001N1-01021-01151101901ADDAA100005191AY171061AY221061GF108991021051008001001011KA1999N-01371MD1210041+9999MW1101REMSYN082AAXX  24061 28791 11596 82103 11102 21115 40190 52004 60050 71072 82501 333 21137;
0112287910999992000012412004+54620+072580FM-12+010999999V0201801N002012200019N0500001N1-01661-01791102101ADDGF102991021001999999031001MD1210071+9999REMSYN060AAXX  24121 28791 42999 21802 11166 21179 40210 52007 82030;
0180287910999992000012418004+54620+072580FM-12+010999999V0201301N001019999999N0080001N1-01221-01281102851ADDAA100000791AY111061AY211061GF108991081001999999051999KA1999M-01001MD1710031+9999MW1101REMSYN082AAXX  24181 28791 11958 81301 11122 21128 40285 57003 69900 71011 8805/ 333 11100;
0140287910999992000012500004+54620+072580FM-12+010999999V0202601N006019999999N0060001N1-00841-00941102101ADDAY171061AY231061GF108991081001999999021999MD1210111+9999MW1711REMSYN066AAXX  25001 28791 41956 82606 11084 21094 40210 52011 77173 8802/;
0186287910999992000012506004+54620+072580FM-12+010999999V0202401N008019999999N0010001N1-01631-01891102661ADDAA100000391AY171061AY231061GF108991081001999999011999KA1120N-01661MD1210301+9999MW1711REMSYN088AAXX  25061 28791 11994 82408 11163 21189 40266 52030 69930 77173 8801/ 333 21166 92982;
0177287910999992000012512004+54620+072580FM-12+010999999V0202401N008012200019N0500001N1-01671-02011103161ADDAY171061AY231061GA1001+999999999GF100991001001999999001001MD1210291+9999MW1371OA140101201REMSYN076AAXX  25121 28791 41999 02408 11167 21201 40316 52029 73773 333 91012 91112;
0196287910999992000012518004+54620+072580FM-12+010999999V0202401N005012200019N0350001N1-02131-02461103771ADDAA100000191AY131061AY201061GA1001+999999999GF100991001001999999001001KA1120M-01411MD1210191+9999MW1361REMSYN082AAXX  25181 28791 11981 02405 11213 21246 40377 52019 69920 73630 333 11141 91112;
0150287910999992000012600004+54620+072580FM-12+010999999V0202401N004012200019N0300001N1-02261-02581104111ADDAY131061AY201061GA1001+999999999GF100991001001999999001001MD1210101+9999MW1021REMSYN060AAXX  26001 28791 41980 02404 11226 21258 40411 52010 70230;
0165287910999992000012606004+54620+072580FM-12+010999999V0202001N004012200019N0500001N1-02191-02591104451ADDAA199000091GF102991001001999999001011KA1999N-02421MD1210121+9999REMSYN070AAXX  26061 28791 32999 22004 11219 21259 40445 52012 80001 333 21242;EQDQ01  00002PRCP99
0112287910999992000012612004+54620+072580FM-12+010999999V0201601N002019999999N0500001N1-02111-02441104421ADDGF108991001001999999001041MD1710031+9999REMSYN060AAXX  26121 28791 42999 81602 11211 21244 40442 57003 80004;
0175287910999992000012618004+54620+072580FM-12+010999999V0201501N003012200019N0350001N1-02031-02281104201ADDAA199000091GA1001+999999999GF100991001001999999001001KA1999M-01941MD1710131+9999REMSYN064AAXX  26181 28791 32981 01503 11203 21228 40420 57013 333 11194;EQDQ01  00002PRCP99
0122287910999992000012700004+54620+072580FM-12+010999999V0201401N003012200019N0300001N1-02011-02341103821ADDGA1001+999999999GF100991001001999999001001MD1710181+9999REMSYN054AAXX  27001 28791 42980 01403 11201 21234 40382 57018;
0165287910999992000012706004+54620+072580FM-12+010999999V0201501N006019999999N0500001N1-01771-02181103591ADDAA199000091GF108991001001999999001011KA1999N-02191MD1710141+9999REMSYN070AAXX  27061 28791 32999 81506 11177 21218 40359 57014 80001 333 21219;EQDQ01  00002PRCP99
0112287910999992000012712004+54620+072580FM-12+010999999V0201301N006019999999N0500001N1-01591-01931103281ADDGF108991001001999999001011MD1710111+9999REMSYN060AAXX  27121 28791 42999 81306 11159 21193 40328 57011 80001;
0175287910999992000012718004+54620+072580FM-12+010999999V0201501N004012200019N0450001N1-01561-01901103091ADDAA199000091GA1001+999999999GF100991001001999999001001KA1999M-01541MD1710101+9999REMSYN064AAXX  27181 28791 32983 01504 11156 21190 40309 57010 333 11154;EQDQ01  00002PRCP99
0122287910999992000012800004+54620+072580FM-12+010999999V0201401N001012200019N0300001N1-01971-02231102981ADDGA1001+999999999GF100991001001999999001001MD1710021+9999REMSYN054AAXX  28001 28791 42980 01401 11197 21223 40298 57002;
0165287910999992000012806004+54620+072580FM-12+010999999V0201201N001019999999N0500001N1-01581-02091102761ADDAA199000091GF108991001001999999001011KA1999N-02051MD1710101+9999REMSYN070AAXX  28061 28791 32999 81201 11158 21209 40276 57010 80001 333 21205;EQDQ01  00002PRCP99
0175287910999992000012818004+54620+072580FM-12+010999999V0201601N004012200019N0400001N1-01661-02001102241ADDAA199000091GA1001+999999999GF100991001001999999001001KA1999M-01361MD1710071+9999REMSYN064AAXX  28181 28791 32982 01604 11166 21200 40224 57007 333 11136;EQDQ01  00002PRCP99
0140287910999992000012900004+54620+072580FM-12+010999999V0202001N003019999999N0070001N1-01371-01571102251ADDAY171061AY211061GF108991081001999999021999MD1210071+9999MW1711REMSYN066AAXX  29001 28791 41957 82003 11137 21157 40225 52007 77171 8802/;
0180287910999992000012906004+54620+072580FM-12+010999999V0202601N001019999999N0040001N1-00791-00931102411ADDAA100000591AY171061AY221061GF108991081001999999021999KA1999N-01761MD1210111+9999MW1711REMSYN082AAXX  29061 28791 11996 82601 11079 21093 40241 52011 69940 77172 8802/ 333 21176;
0140287910999992000012912004+54620+072580FM-12+010999999V0209999C000019999999N0500001N1-00811-00951102481ADDAY171061AY221061GF108991081001999999021999MD1210021+9999MW1021REMSYN066AAXX  29121 28791 41999 80000 11081 21095 40248 52002 70272 8802/;
0180287910999992000012918004+54620+072580FM-12+010999999V0202901N002019999999N0070001N1-00891-01041102401ADDAA100002091AY171061AY221061GF108991081001999999021999KA1999M-00661MD1710041+9999MW1711REMSYN082AAXX  29181 28791 11957 82902 11089 21104 40240 57004 60020 77172 8802/ 333 11066;
0140287910999992000013000004+54620+072580FM-12+010999999V0203301N003019999999N0070001N1-01141-01201102221ADDAY171061AY221061GF108991081001999999021999MD1710071+9999MW1711REMSYN066AAXX  30001 28791 41957 83303 11114 21120 40222 57007 77172 8802/;
0209287910999992000013006004+54620+072580FM-12+010999999V0202801N002012200019N0500001N1-01601-01791102281ADDAA100000591AY171061AY211061GA1001+999999999GF100991001001999999001001KA1999N+99999MD1210021+9999MW1021REMSYN076AAXX  30061 28791 11999 02802 11160 21179 40228 52002 69940 70271 333 21153;EQDQ01 -01532ATMN  
0112287910999992000013012004+54620+072580FM-12+010999999V0202401N002019999999N0500001N1-01621-01811102221ADDGF108991081001999999071999MD1410001+9999REMSYN060AAXX  30121 28791 42999 82402 11162 21181 40222 54000 8807/;
0166287910999992000013018004+54620+072580FM-12+010999999V0202401N005019999999N0350001N1-00861-01011102131ADDAA100000791AY171061AY221061GF108991081001999999021999MD1710011+9999MW1021REMSYN081AAXX  30181 28791 11981 82405 11086 21101 40213 57001 69900 70272 8802/ 333 1144;
0150287910999992000013100004+54620+072580FM-12+010999999V0202601N006019999999N0032001N1-00801-00941102201ADDAY171061AY231061GF108991081001999999021999MD1210041+9999MW1711REMSYN076AAXX  31001 28791 41932 82606 11080 21094 40220 52004 77173 8802/ 333 92982;
0190287910999992000013106004+54620+072580FM-12+010999999V0202701N005012200019N0500001N1-01121-01251102621ADDAA100001091AY171061AY231061GA1001+999999999GF100991001001999999001001KA1999N-01191MD1210271+9999MW1021REMSYN076AAXX  31061 28791 11999 02705 11112 21125 40262 52027 60010 70273 333 21119;
0122287910999992000013112004+54620+072580FM-12+010999999V0202501N003012200019N0500001N1-01241-01441102931ADDGA1001+999999999GF100991001001999999001001MD1210151+9999REMSYN054AAXX  31121 28791 42999 02503 11124 21144 40293 52015;
0175287910999992000013118004+54620+072580FM-12+010999999V0202301N002012200019N0300001N1-02191-02311103191ADDAA199000091GA1001+999999999GF100991001001999999001001KA1999M-01011MD1210041+9999REMSYN064AAXX  31181 28791 32980 02302 11219 21231 40319 52004 333 11101;EQDQ01  00002PRCP99
0140287910999992000020100004+54620+072580FM-12+010999999V0202101N001019999999N0005001N1-02011-02131103181ADDAY141061AY211061GF108991081001999999021999MD1710011+9999MW1481REMSYN066AAXX  01001 28791 41905 82101 11201 21213 40318 57001 74841 8802/;
0193287910999992000020106004+54620+072580FM-12+010999999V0202201N002019999999N0040001N1-01481-01611103021ADDAA199000091AY141061AY221061GF108991081001999999021999KA1999N-02211MD1710081+9999MW1101REMSYN076AAXX  01061 28791 31996 82202 11148 21161 40302 57008 71042 8802/ 333 21221;EQDQ01  00002PRCP99
0140287910999992000020112004+54620+072580FM-12+010999999V0202301N002019999999N0500001N1-00791-00811102711ADDAY171061AY221061GF108991081001999999051999MD1710061+9999MW1101REMSYN066AAXX  01121 28791 41999 82302 11079 21081 40271 57006 71072 8805/;
0180287910999992000020118004+54620+072580FM-12+010999999V0202001N002019999999N0050001N1-00731-00781102671ADDAA100000191AY121061AY221061GF108991081001999999021999KA1999M-00751MD1710031+9999MW1101REMSYN082AAXX  01181 28791 11950 82002 11073 21078 40267 57003 69920 71022 8802/ 333 11075;
0140287910999992000020200004+54620+072580FM-12+010999999V0202001N002019999999N0060001N1-00781-00801102451ADDAY121061AY221061GF108991081001999999021999MD1710141+9999MW1101REMSYN066AAXX  02001 28791 41956 82002 11078 21080 40245 57014 71022 8802/;
0181287910999992000020206004+54620+072580FM-12+010999999V0201501N002012200019N0500001N1-01051-01181102421ADDAA199000091GF103991001001999999001011KA1999N+99999MD1710071+9999REMSYN070AAXX  02061 28791 32999 31502 11105 21118 40242 57007 80001 333 21094;EQDQ01  00002PRCP99Q02 -00942ATMN  
0112287910999992000020212004+54620+072580FM-12+010999999V0201401N005019999999N0200001N1-01471-01531102261ADDGF105991001001999999001041MD1710061+9999REMSYN060AAXX  02121 28791 42998 51405 11147 21153 40226 57006 80004;
0203287910999992000020218004+54620+072580FM-12+010999999V0201501N003012200019N0080001N1-01701-01831102001ADDAA199000091AY111061AY211061GA1001+999999999GF100991001001999999001001KA1999M-00881MD1710141+9999MW1101REMSYN070AAXX  02181 28791 31958 01503 11170 21183 40200 57014 71011 333 11088;EQDQ01  00002PRCP99
0150287910999992000020300004+54620+072580FM-12+010999999V0201201N005012200019N0060001N1-01971-02161101651ADDAY101061AY201061GA1001+999999999GF100991001001999999001001MD1710071+9999MW1101REMSYN060AAXX  03001 28791 41956 01205 11197 21216 40165 57007 71000;
0165287910999992000020306004+54620+072580FM-12+010999999V0201201N006019999999N0500001N1-01981-02171101411ADDAA199000091GF108991001001999999001091KA1999N-02101MD1710121+9999REMSYN070AAXX  03061 28791 32999 81206 11198 21217 40141 57012 80009 333 21210;EQDQ01  00002PRCP99
0140287910999992000020312004+54620+072580FM-12+010999999V0201201N003019999999N0040001N1-01711-01901101151ADDAY171061AY221061GF108991051001999999011051MD1710071+9999MW1711REMSYN066AAXX  03121 28791 41996 81203 11171 21190 40115 57007 77172 85015;
0190287910999992000020318004+54620+072580FM-12+010999999V0201201N002012200019N0060001N1-01961-02151101221ADDAA100000391AY171061AY211061GA1001+999999999GF100991001001999999001001KA1999M-01711MD1710011+9999MW1101REMSYN076AAXX  03181 28791 11956 01202 11196 21215 40122 57001 69930 71071 333 11171;
0150287910999992000020400004+54620+072580FM-12+010999999V0202101N002012200019N0070001N1-01791-01911101381ADDAY101061AY201061GA1001+999999999GF100991001001999999001001MD1210061+9999MW1101REMSYN060AAXX  04001 28791 41957 02102 11179 21191 40138 52006 71000;
0165287910999992000020406004+54620+072580FM-12+010999999V0201901N003019999999N0200001N1-01331-01391101401ADDAA199000091GF106991001001999999001041KA1999N-01981MD1410001+9999REMSYN070AAXX  04061 28791 32998 61903 11133 21139 40140 54000 80004 333 21198;EQDQ01  00002PRCP99
0140287910999992000020412004+54620+072580FM-12+010999999V0201901N009019999999N0200001N1-00521-00661101041ADDAY171061AY231061GF108991081001999999071999MD1710201+9999MW1361REMSYN066AAXX  04121 28791 41998 81909 11052 21066 40104 57020 73673 8807/;
0184287910999992000020500004+54620+072580FM-12+010999999V0202401N008019999999N0400001N1+00081-00131100731ADDAY131061AY221061GF108991081001999999021999MD1210131+9999MW1371OA140101201OA249901501REMSYN088AAXX  05001 28791 41982 82408 10008 21013 40073 52013 73732 8802/ 333 91012 91115 92990;
0225287910999992000020506004+54620+072580FM-12+010999999V0202301N006010075019N0500001N1-00081-00331101111ADDAA100000591AY131061AY221061GA1081+007509069GF108991081051008001999999KA1120N-00411MD1210131+9999MW1021OA149901201REMSYN100AAXX  05061 28791 11599 82306 11008 21033 40111 52013 69960 70232 885// 333 21041 88625 91112 92990;
0112287910999992000020512004+54620+072580FM-12+010999999V0202201N005019999999N0500001N1-00041-00311101211ADDGF108991081001999999021999MD1210031+9999REMSYN060AAXX  05121 28791 42999 82205 11004 21031 40121 52003 8802/;
0174287910999992000020518004+54620+072580FM-12+010999999V0202101N003019999999N0060001N1-00241-00301101091ADDAA199000021AY171061AY221061GF108991081001999999021999KA1999M+00081MD1710081+9999MW1711REMSYN076AAXX  05181 28791 31956 82103 11024 21030 40109 57008 77172 8802/ 333 10008;
0166287910999992000020600004+54620+072580FM-12+010999999V0202501N002010072019N0300001N1-00261-00291101001ADDAY171061AY221061GA1081+007209059GF108991081051008001999999MD1210011+9999MW1221REMSYN076AAXX  06001 28791 41580 82502 11026 21029 40100 52001 72272 885// 333 88624;
0171287910999992000020606004+54620+072580FM-12+010999999V0202601N003012200019N0500001N1-00611-00721101351ADDAA100002091GF102991021001999999041001KA1999N+99999MD1210241+9999REMSYN076AAXX  06061 28791 12999 22603 11061 21072 40135 52024 60020 82040 333 21055;EQDQ01 -00552ATMN  
0166287910999992000020612004+54620+072580FM-12+010999999V0202901N004010075019N0500001N1-00681-00841101921ADDAY171061AY221061GA1081+007509059GF108991081051008001999999MD1210281+9999MW1021REMSYN076AAXX  06121 28791 41599 82904 11068 21084 40192 52028 70272 885// 333 88625;
0190287910999992000020618004+54620+072580FM-12+010999999V0202801N002012200019N0070001N1-01631-01761102601ADDAA100000791AY111061AY211061GA1001+999999999GF100991001001999999001001KA1999M-00511MD1210221+9999MW1101REMSYN076AAXX  06181 28791 11957 02802 11163 21176 40260 52022 69900 71011 333 11051;
0150287910999992000020700004+54620+072580FM-12+010999999V0209999C000012200019N0060001N1-02371-02551102841ADDAY101061AY201061GA1001+999999999GF100991001001999999001001MD1210091+9999MW1101REMSYN060AAXX  07001 28791 41956 00000 11237 21255 40284 52009 71000;
0175287910999992000020706004+54620+072580FM-12+010999999V0209999C000012200019N0500001N1-01931-02121102811ADDAA199000091GA1001+999999999GF100991001001999999001001KA1999N-02401MD1710081+9999REMSYN064AAXX  07061 28791 32999 00000 11193 21212 40281 57008 333 21240;EQDQ01  00002PRCP99
0112287910999992000020712004+54620+072580FM-12+010999999V0202301N002012200019N0500001N1-01891-02081102531ADDGF102991001001999999001011MD1710161+9999REMSYN060AAXX  07121 28791 42999 22302 11189 21208 40253 57016 80001;
0174287910999992000020718004+54620+072580FM-12+010999999V0201101N002019999999N0060001N1-01711-01831102361ADDAA199000021AY171061AY211061GF108991081001999999021999KA1999M-01581MD1710071+9999MW1711REMSYN076AAXX  07181 28791 31956 81102 11171 21183 40236 57007 77171 8802/ 333 11158;
0140287910999992000020800004+54620+072580FM-12+010999999V0200701N004019999999N0060001N1-01351-01481101961ADDAY171061AY221061GF108991081001999999021999MD1710191+9999MW1711REMSYN066AAXX  08001 28791 41956 80704 11135 21148 40196 57019 77172 8802/;
0180287910999992000020806004+54620+072580FM-12+010999999V0201301N004019999999N0040001N1-00821-00961101591ADDAA100000891AY171061AY221061GF108991081001999999021999KA1999N-01961MD1710321+9999MW1711REMSYN082AAXX  08061 28791 11996 81304 11082 21096 40159 57032 69980 77172 8802/ 333 21196;
0140287910999992000020812004+54620+072580FM-12+010999999V0202301N002019999999N0200001N1-01141-01271101481ADDAY171061AY221061GF108991001001999999001051MD1710121+9999MW1021REMSYN066AAXX  08121 28791 41998 82302 11114 21127 40148 57012 70272 80005;
0174287910999992000020818004+54620+072580FM-12+010999999V0202801N002019999999N0400001N1-01551-01681101511ADDAA100000891AY171061AY221061GF108991999999999999999999KA1999M-00781MD1710011+9999MW1021REMSYN076AAXX  08181 28791 11982 82802 11155 21168 40151 57001 69970 70272 333 11078;
0150287910999992000020900004+54620+072580FM-12+010999999V0202701N002012200019N0060001N1-01911-02101101701ADDAY111061AY211061GA1001+999999999GF100991001001999999001001MD1210081+9999MW1101REMSYN060AAXX  09001 28791 41956 02702 11191 21210 40170 52008 71011;
0180287910999992000020906004+54620+072580FM-12+010999999V0202601N003012200019N0040001N1-01951-02141101941ADDAA100000791AY171061AY211061GF102991001001999999001091KA1999N-01911MD1210141+9999MW1101REMSYN082AAXX  09061 28791 11996 22603 11195 21214 40194 52014 69900 71071 80009 333 21191;
0122287910999992000020912004+54620+072580FM-12+010999999V0202601N003012200019N0500001N1-02151-02331102061ADDGA1001+999999999GF100991001001999999001001MD1210111+9999REMSYN054AAXX  09121 28791 42999 02603 11215 21233 40206 52011;
0162287910999992000020918004+54620+072580FM-12+010999999V0209999C000012200019N0350001N1-02221-02401102421ADDAA100000791GA1001+999999999GF100991001001999999001001KA1999M-01601MD1210101+9999REMSYN070AAXX  09181 28791 12981 00000 11222 21240 40242 52010 69900 333 11160;
0122287910999992000021000004+54620+072580FM-12+010999999V0202301N002012200019N0400001N1-02091-02281102731ADDGA1001+999999999GF100991001001999999001001MD1210211+9999REMSYN054AAXX  10001 28791 42982 02302 11209 21228 40273 52021;
0190287910999992000021006004+54620+072580FM-12+010999999V0202401N003012200019N0500001N1-01891-02081102821ADDAA100000791AY171061AY211061GA1001+999999999GF100991001001999999001001KA1999N-02251MD1210111+9999MW1011REMSYN076AAXX  10061 28791 11999 02403 11189 21208 40282 52011 69900 70171 333 21225;
0112287910999992000021012004+54620+072580FM-12+010999999V0202101N002012200019N0500001N1-01921-02111102951ADDGF102991001001999999001011MD1210081+9999REMSYN060AAXX  10121 28791 42999 22102 11192 21211 40295 52008 80001;
0180287910999992000021018004+54620+072580FM-12+010999999V0202001N002019999999N0060001N1-01661-01851102931ADDAA100000791AY171061AY211061GF108991081001999999021999KA1999M-01551MD1710031+9999MW1711REMSYN082AAXX  10181 28791 11956 82002 11166 21185 40293 57003 69900 77171 8802/ 333 11155;
0140287910999992000021100004+54620+072580FM-12+010999999V0201701N002019999999N0060001N1-01591-01721102951ADDAY171061AY221061GF108991081001999999021999MD1210011+9999MW1711REMSYN066AAXX  11001 28791 41956 81702 11159 21172 40295 52001 77172 8802/;
0180287910999992000021106004+54620+072580FM-12+010999999V0201501N004019999999N0040001N1-01311-01441102681ADDAA100000891AY171061AY221061GF108991081001999999021999KA1999N-02261MD1710071+9999MW1711REMSYN082AAXX  11061 28791 11996 81504 11131 21144 40268 57007 69970 77172 8802/ 333 21226;
0140287910999992000021112004+54620+072580FM-12+010999999V0201501N005019999999N0040001N1-00941-01061102481ADDAY171061AY221061GF108991081001999999021999MD1710041+9999MW1711REMSYN066AAXX  11121 28791 41996 81505 11094 21106 40248 57004 77172 8802/;
0199287910999992000021118004+54620+072580FM-12+010999999V0201701N002019999999N0070001N1-00621-00701102231ADDAA100000591AY171061AY221061GF108991081001999999021999KA1999M+99999MD1710121+9999MW1711REMSYN082AAXX  11181 28791 11957 81702 11062 21070 40223 57012 69950 77172 8802/ 333 11086;EQDQ01 -00862ATMX  
0140287910999992000021200004+54620+072580FM-12+010999999V0201701N003019999999N0400001N1-00381-00461102051ADDAY171061AY221061GF108991081001999999021999MD1710081+9999MW1021REMSYN066AAXX  12001 28791 42982 81703 11038 21046 40205 57008 70272 8802/;
0180287910999992000021206004+54620+072580FM-12+010999999V0201501N004019999999N0040001N1-00421-00471101861ADDAA100000191AY171061AY221061GF108991081001999999071999KA1999N-00891MD1710061+9999MW1711REMSYN082AAXX  12061 28791 11996 81504 11042 21047 40186 57006 69920 77172 8807/ 333 21089;
0140287910999992000021212004+54620+072580FM-12+010999999V0201401N003019999999N0500001N1-00361-00411101721ADDAY171061AY221061GF108991081001999999071999MD1710081+9999MW1021REMSYN066AAXX  12121 28791 41999 81403 11036 21041 40172 57008 70272 8807/;
0199287910999992000021218004+54620+072580FM-12+010999999V0201501N005019999999N0060001N1-00221-00251101511ADDAA100000391AY121061AY221061GF108991081001999999071999KA1999M+99999MD1710141+9999MW1101REMSYN082AAXX  12181 28791 11956 81505 11022 21025 40151 57014 69930 71022 8807/ 333 11035;EQDQ01 -00352ATMX  
0140287910999992000021300004+54620+072580FM-12+010999999V0202301N004019999999N0070001N1-00051-00141101271ADDAY171061AY221061GF108991081001999999071999MD1710071+9999MW1101REMSYN066AAXX  13001 28791 41957 82304 11005 21014 40127 57007 71072 8807/;
0127287910999992000021306004+54620+072580FM-12+010999999V0202201N005019999999N0500001N1-00121-00321101261ADDGF108991999999999999999999MD1710011+9999REMSYN075AAXX  13061 28791 12999 82205 11012 21032 40126 57001 6020 8807/ 333 21031;
0138287910999992000021312004+54620+072580FM-12+010999999V0202401N007010072019N0500001N1-00311-00591101391ADDGA1081+007209059GF108991081051008001999999MD1210051+9999REMSYN070AAXX  13121 28791 42599 82407 11031 21059 40139 52005 885// 333 88624;
0180287910999992000021406004+54620+072580FM-12+010999999V0201801N001019999999N0040001N1-00511-00651101671ADDAA100000591AY171061AY221061GF108991081001999999071999KA1999N-00751MD1410001+9999MW1711REMSYN082AAXX  14061 28791 11996 81801 11051 21065 40167 54000 69940 77172 8807/ 333 21075;
0140287910999992000021412004+54620+072580FM-12+010999999V0201101N002019999999N0500001N1-00371-00521101581ADDAY171061AY221061GF108991081001999999021999MD1710061+9999MW1021REMSYN066AAXX  14121 28791 41999 81102 11037 21052 40158 57006 70272 8802/;
0180287910999992000021418004+54620+072580FM-12+010999999V0201901N002019999999N0070001N1-00711-00761101451ADDAA100000791AY171061AY221061GF108991081001999999011999KA1999M-00241MD1710091+9999MW1711REMSYN082AAXX  14181 28791 11957 81902 11071 21076 40145 57009 69900 77172 8801/ 333 11024;
0140287910999992000021500004+54620+072580FM-12+010999999V0201601N001019999999N0060001N1-00771-00831101271ADDAY171061AY241061GF108991001001999999001051MD1710101+9999MW1101REMSYN066AAXX  15001 28791 41956 81601 11077 21083 40127 57010 71074 80005;
0180287910999992000021506004+54620+072580FM-12+010999999V0202301N004019999999N0040001N1-00611-00721101141ADDAA100000591AY171061AY241061GF108991081001999999021999KA1999N-01181MD1710051+9999MW1711REMSYN082AAXX  15061 28791 11996 82304 11061 21072 40114 57005 69950 77174 8802/ 333 21118;
0140287910999992000021512004+54620+072580FM-12+010999999V0202501N005019999999N0500001N1-00761-00941101161ADDAY171061AY221061GF108991031001999999031051MD1210041+9999MW1021REMSYN066AAXX  15121 28791 41999 82505 11076 21094 40116 52004 70272 83035;
0180287910999992000021518004+54620+072580FM-12+010999999V0202601N005019999999N0350001N1-00571-00791101481ADDAA100000591AY131061AY221061GF108991081001999999021999KA1999M-00541MD1210171+9999MW1361REMSYN082AAXX  15181 28791 11981 82605 11057 21079 40148 52017 69940 73632 8802/ 333 11054;
0150287910999992000021600004+54620+072580FM-12+010999999V0202701N006012200019N0300001N1-00871-01061101901ADDAY131061AY211061GA1001+999999999GF100991001001999999001001MD1210181+9999MW1361REMSYN060AAXX  16001 28791 41980 02706 11087 21106 40190 52018 73631;
0112287910999992000021612004+54620+072580FM-12+010999999V0202701N003019999999N0500001N1-00891-01131102681ADDGF106991001001999999001011MD1210121+9999REMSYN060AAXX  16121 28791 42999 62703 11089 21113 40268 52012 80001;
0186287910999992000021706004+54620+072580FM-12+010999999V0202401N007010042019N0500001N1-00761-01061102621ADDAA100000891AY171061AY231061GF105991051061004501001001KA1120N-01701MD1410001+9999MW1361REMSYN088AAXX  17061 28791 11499 52407 11076 21106 40262 54000 69980 73673 85600 333 21170 92980;
0140287910999992000021712004+54620+072580FM-12+010999999V0202301N004019999999N0500001N1-00931-01181102661ADDAY131061AY211061GF108991001001999999001041MD1210051+9999MW1031REMSYN066AAXX  17121 28791 41999 82304 11093 21118 40266 52005 70331 80004;
0152287910999992000021718004+54620+072580FM-12+010999999V0202101N002019999999N0450001N1-01021-01151102561ADDAA100000791GF108991081001999999021999KA1999M-00741MD1710101+9999REMSYN076AAXX  17181 28791 12983 82102 11102 21115 40256 57010 69900 8802/ 333 11074;
0140287910999992000021800004+54620+072580FM-12+010999999V0202201N003019999999N0070001N1-00771-00911102371ADDAY171061AY221061GF108991081001999999021999MD1710111+9999MW1711REMSYN066AAXX  18001 28791 41957 82203 11077 21091 40237 57011 77172 8802/;
0180287910999992000021806004+54620+072580FM-12+010999999V0202501N003019999999N0040001N1-00581-00731102371ADDAA100000591AY171061AY211061GF108991081001999999021999KA1999N-01451MD1410001+9999MW1711REMSYN082AAXX  18061 28791 11996 82503 11058 21073 40237 54000 69960 77171 8802/ 333 21145;
0122287910999992000021812004+54620+072580FM-12+010999999V0202801N002012200019N0500001N1-00691-00941102451ADDGA1001+999999999GF100991001001999999001001MD1210051+9999REMSYN054AAXX  18121 28791 42999 02802 11069 21094 40245 52005;
0154287910999992000021818004+54620+072580FM-12+010999999V0203001N002012200019N0060001N1-01261-01321102791ADDAA100000191GA1001+999999999GF100991001001999999001001MD1210051+9999REMSYN075AAXX  18181 28791 11956 03002 11126 21132 40279 52005 69920 7100 333 11047;
0140287910999992000021900004+54620+072580FM-12+010999999V0203001N002019999999N0070001N1-01221-01281102931ADDAY171061AY211061GF108991081001999999021999MD1210031+9999MW1711REMSYN066AAXX  19001 28791 41957 83002 11122 21128 40293 52003 77171 8802/;
0190287910999992000021906004+54620+072580FM-12+010999999V0202901N002012200019N0500001N1-01121-01181103121ADDAA100000391AY171061AY211061GA1001+999999999GF100991001001999999001001KA1999N-01271MD1210081+9999MW1011REMSYN076AAXX  19061 28791 11999 02902 11112 21118 40312 52008 69930 70171 333 21127;
0122287910999992000021912004+54620+072580FM-12+010999999V0203001N001012200019N0500001N1-01201-01471103291ADDGA1001+999999999GF100991001001999999001001MD1210111+9999REMSYN054AAXX  19121 28791 42999 03001 11120 21147 40329 52011;
0203287910999992000021918004+54620+072580FM-12+010999999V0203001N002012200019N0060001N1-01621-01681103561ADDAA199000091AY101061AY201061GA1001+999999999GF100991001001999999001001KA1999M-00951MD1210101+9999MW1101REMSYN070AAXX  19181 28791 31956 03002 11162 21168 40356 52010 71000 333 11095;EQDQ01  00002PRCP99
0128287910999992000022000004+54620+072580FM-12+010999999V0202901N002012200019N0070001N1-01941-02001103691ADDGA1001+999999999GF100991001001999999001001MD1210051+9999REMSYN060AAXX  20001 28791 41957 02902 11194 21200 40369 52005 87100;
0193287910999992000022006004+54620+072580FM-12+010999999V0202201N003019999999N0040001N1-01911-02101103791ADDAA199000091AY111061AY211061GF108991001001999999001041KA1999N-02521MD1210021+9999MW1101REMSYN076AAXX  20061 28791 31996 82203 11191 21210 40379 52002 71011 80004 333 21252;EQDQ01  00002PRCP99
0112287910999992000022012004+54620+072580FM-12+010999999V0202001N003019999999N0500001N1-01431-01631103681ADDGF108991081001999999041999MD1710041+9999REMSYN060AAXX  20121 28791 42999 82003 11143 21163 40368 57004 8804/;
0199287910999992000022018004+54620+072580FM-12+010999999V0202101N003019999999N0400001N1-01161-01291103511ADDAA100000791AY171061AY221061GF108991081001999999051999KA1999M+99999MD1710161+9999MW1021REMSYN082AAXX  20181 28791 11982 82103 11116 21129 40351 57016 69900 70272 8805/ 333 11141;EQDQ01 -01412ATMX  
0112287910999992000022100004+54620+072580FM-12+010999999V0202301N005019999999N0350001N1-01201-01471103381ADDGF108991081001999999011999MD1710051+9999REMSYN060AAXX  21001 28791 42981 82305 11120 21147 40338 57005 8801/;
0152287910999992000022106004+54620+072580FM-12+010999999V0202401N006019999999N0500001N1-01261-01531103411ADDAA100000791GF107991071001999999051001KA1999N-01541MD1710071+9999REMSYN076AAXX  21061 28791 12999 72406 11126 21153 40341 57007 69900 87050 333 21154;
0112287910999992000022112004+54620+072580FM-12+010999999V0202601N004019999999N0500001N1-00901-01241103431ADDGF108991001001999999001051MD1210081+9999REMSYN060AAXX  21121 28791 42999 82604 11090 21124 40343 52008 80005;
0165287910999992000022118004+54620+072580FM-12+010999999V0202701N004019999999N0350001N1-00821-01191103561ADDAA199000091GF108991081001999999041999KA1999M-00841MD1210011+9999REMSYN070AAXX  21181 28791 32981 82704 11082 21119 40356 52001 8804/ 333 11084;EQDQ01  00002PRCP99
0112287910999992000022200004+54620+072580FM-12+010999999V0202501N006012200019N0300001N1-01141-01421103701ADDGF102991021001999999031001MD1210011+9999REMSYN060AAXX  22001 28791 42980 22506 11114 21142 40370 52001 82030;
0175287910999992000022206004+54620+072580FM-12+010999999V0202401N005012200019N0500001N1-01181-01701103821ADDAA199000091GA1001+999999999GF100991001001999999001001KA1999N-01461MD1210021+9999REMSYN064AAXX  22061 28791 32999 02405 11118 21170 40382 52002 333 21146;EQDQ01  00002PRCP99
0112287910999992000022212004+54620+072580FM-12+010999999V0202301N005012200019N0500001N1-00931-01491103831ADDGF103991001001999999001091MD1710011+9999REMSYN060AAXX  22121 28791 42999 32305 11093 21149 40383 57001 80009;
0175287910999992000022218004+54620+072580FM-12+010999999V0202301N003012200019N0350001N1-01161-01511103811ADDAA199000091GA1001+999999999GF100991001001999999001001KA1999M-00891MD1710011+9999REMSYN064AAXX  22181 28791 32981 02303 11116 21151 40381 57001 333 11089;EQDQ01  00002PRCP99
0122287910999992000022300004+54620+072580FM-12+010999999V0202301N005012200019N0300001N1-01481-01821103751ADDGA1001+999999999GF100991001001999999001001MD1710051+9999REMSYN054AAXX  23001 28791 42980 02305 11148 21182 40375 57005;
0165287910999992000022306004+54620+072580FM-12+010999999V0202201N003019999999N0500001N1-01141-01761103771ADDAA199000091GF107991001001999999001011KA1999N-01961MD1210021+9999REMSYN070AAXX  23061 28791 32999 72203 11114 21176 40377 52002 80001 333 21196;EQDQ01  00002PRCP99
0112287910999992000022312004+54620+072580FM-12+010999999V0202201N003019999999N0500001N1-01261-01881103711ADDGF105991001001999999001011MD1710011+9999REMSYN060AAXX  23121 28791 42999 52203 11126 21188 40371 57001 80001;
0175287910999992000022318004+54620+072580FM-12+010999999V0202101N002012200019N0350001N1-01851-02041103631ADDAA199000091GA1001+999999999GF100991001001999999001001KA1999M-00881MD1710061+9999REMSYN064AAXX  23181 28791 32981 02102 11185 21204 40363 57006 333 11088;EQDQ01  00002PRCP99
0122287910999992000022400004+54620+072580FM-12+010999999V0201801N001012200019N0450001N1-02311-02551103571ADDGA1001+999999999GF100991001001999999001001MD1710031+9999REMSYN054AAXX  24001 28791 42983 01801 11231 21255 40357 57003;
0175287910999992000022406004+54620+072580FM-12+010999999V0202201N003012200019N0500001N1-01281-01891103341ADDAA199000091GA1001+999999999GF100991001001999999001001KA1999N-02381MD1710121+9999REMSYN064AAXX  24061 28791 32999 02203 11128 21189 40334 57012 333 21238;EQDQ01  00002PRCP99
0122287910999992000022412004+54620+072580FM-12+010999999V0201501N005012200019N0500001N1-00861-01291103081ADDGA1001+999999999GF100991001001999999001001MD1710101+9999REMSYN054AAXX  24121 28791 42999 01505 11086 21129 40308 57010;
0175287910999992000022418004+54620+072580FM-12+010999999V0201901N003012200019N0400001N1-01541-01811102881ADDAA199000091GA1001+999999999GF100991001001999999001001KA1999M-00791MD1710131+9999REMSYN064AAXX  24181 28791 32982 01903 11154 21181 40288 57013 333 11079;EQDQ01  00002PRCP99
0122287910999992000022500004+54620+072580FM-12+010999999V0201901N002012200019N0400001N1-01751-02011102491ADDGA1001+999999999GF100991001001999999001001MD1710271+9999REMSYN054AAXX  25001 28791 42982 01902 11175 21201 40249 57027;
0165287910999992000022506004+54620+072580FM-12+010999999V0201901N004019999999N0500001N1-01151-01501102181ADDAA199000091GF108991001001999999001091KA1999N-01861MD1710141+9999REMSYN070AAXX  25061 28791 32999 81904 11115 21150 40218 57014 80009 333 21186;EQDQ01  00002PRCP99
0112287910999992000022512004+54620+072580FM-12+010999999V0202001N004019999999N0500001N1-00671-01001101891ADDGF108991081001999999021999MD1710111+9999REMSYN060AAXX  25121 28791 42999 82004 11067 21100 40189 57011 8802/;
0174287910999992000022518004+54620+072580FM-12+010999999V0202501N004019999999N0060001N1-00521-00661101621ADDAA199000021AY171061AY221061GF108991081001999999021999KA1999M-00541MD1710161+9999MW1711REMSYN076AAXX  25181 28791 31956 82504 11052 21066 40162 57016 77172 8802/ 333 11054;
0140287910999992000022600004+54620+072580FM-12+010999999V0202201N002019999999N0400001N1-01411-01541101571ADDAY171061AY221061GF105991001001999999001091MD1710051+9999MW1021REMSYN066AAXX  26001 28791 41982 52202 11141 21154 40157 57005 70272 80009;
0152287910999992000022606004+54620+072580FM-12+010999999V0202401N006019999999N0500001N1-00941-01291101351ADDAA100001091GF108991081001999999071999KA1999N-01831MD1710121+9999REMSYN076AAXX  26061 28791 12999 82406 11094 21129 40135 57012 69990 8807/ 333 21183;
0112287910999992000022612004+54620+072580FM-12+010999999V0202401N004012200019N0500001N1-00861-01291101321ADDGF102991001001999999001011MD1710011+9999REMSYN060AAXX  26121 28791 42999 22404 11086 21129 40132 57001 80001;
0175287910999992000022618004+54620+072580FM-12+010999999V0202401N002012200019N0300001N1-01651-01841101441ADDAA199000091GA1001+999999999GF100991001001999999001001KA1999M-00751MD1210021+9999REMSYN064AAXX  26181 28791 32980 02402 11165 21184 40144 52002 333 11075;EQDQ01  00002PRCP99
0112287910999992000022700004+54620+072580FM-12+010999999V0202001N002019999999N0450001N1-01941-02131101451ADDGF108991001001999999001051MD1710051+9999REMSYN060AAXX  27001 28791 42983 82002 11194 21213 40145 57005 80005;
0165287910999992000022706004+54620+072580FM-12+010999999V0202001N001019999999N0500001N1-01201-01471101241ADDAA199000091GF108991081001999999071999KA1999N-02111MD1710031+9999REMSYN070AAXX  27061 28791 32999 82001 11120 21147 40124 57003 8807/ 333 21211;EQDQ01  00002PRCP99
0140287910999992000022712004+54620+072580FM-12+010999999V0203401N002019999999N0040001N1-00971-01141101081ADDAY171061AY221061GF108991081001999999021999MD1410001+9999MW1711REMSYN066AAXX  27121 28791 41996 83402 11097 21114 40108 54000 77172 8802/;
0190287910999992000022718004+54620+072580FM-12+010999999V0202701N002012200019N0400001N1-01441-01571101431ADDAA100002091AY171061AY211061GA1001+999999999GF100991001001999999001001KA1999M-00951MD1210201+9999MW1011REMSYN076AAXX  27181 28791 11982 02702 11144 21157 40143 52020 60020 70171 333 11095;
0122287910999992000022800004+54620+072580FM-12+010999999V0202201N003012200019N0400001N1-02311-02491102011ADDGA1001+999999999GF100991001001999999001001MD1210231+9999REMSYN054AAXX  28001 28791 42982 02203 11231 21249 40201 52023;
0180287910999992000022806004+54620+072580FM-12+010999999V0201601N005019999999N0040001N1-01491-01691101881ADDAA100000791AY171061AY221061GF108991081001999999011999KA1999N-02611MD1710161+9999MW1711REMSYN082AAXX  28061 28791 11996 81605 11149 21169 40188 57016 69900 77172 8801/ 333 21261;
0166287910999992000022812004+54620+072580FM-12+010999999V0202101N004010066019N0040001N1-00781-01051101661ADDAY181061AY271061GA1061+006609099GF106991061091008001001001MD1710031+9999MW1261REMSYN076AAXX  28121 28791 41596 62104 11078 21105 40166 57003 72687 86900 333 86922;
0190287910999992000022818004+54620+072580FM-12+010999999V0202401N004012200019N0400001N1-01681-02021101731ADDAA100000391AY181061AY271061GA1001+999999999GF100991001001999999001001KA1999M-00761MD1210041+9999MW1021REMSYN076AAXX  28181 28791 11982 02404 11168 21202 40173 52004 69930 70287 333 11076;
0122287910999992000022900004+54620+072580FM-12+010999999V0202301N002012200019N0400001N1-02581-02761101761ADDGA1001+999999999GF100991001001999999001001MD1710021+9999REMSYN054AAXX  29001 28791 42982 02302 11258 21276 40176 57002;
0175287910999992000022906004+54620+072580FM-12+010999999V0202401N005012200019N0500001N1-01981-02241101761ADDAA199000091GA1001+999999999GF100991001001999999001001KA1999N-02741MD1710091+9999REMSYN064AAXX  29061 28791 32999 02405 11198 21224 40176 57009 333 21274;EQDQ01  00002PRCP99
0166287910999992000032912004+54620+072580FM-12+010999999V0202201N005010063019N0200001N1-00151-00321102271ADDAY181061AY231061GA1081+006309099GF108991081091008001999999MD1710251+9999MW1261REMSYN076AAXX  29121 28791 41598 82205 11015 21032 40227 57025 72683 889// 333 88921;
0190287910999992000032918004+54620+072580FM-12+010999999V0202201N002012200019N0060001N1-00721-00771102061ADDAA100000791AY111061AY211061GA1001+999999999GF100991001001999999001001KA1999M+00101MD1710091+9999MW1101REMSYN076AAXX  29181 28791 11956 02202 11072 21077 40206 57009 69900 71011 333 10010;
0150287910999992000033000004+54620+072580FM-12+010999999V0202301N002012200019N0070001N1-00981-01061101991ADDAY101061AY201061GA1001+999999999GF100991001001999999001001MD1710051+9999MW1101REMSYN060AAXX  30001 28791 41957 02302 11098 21106 40199 57005 71000;
0175287910999992000033006004+54620+072580FM-12+010999999V0202401N007012200019N0500001N1-00261-00561101941ADDAA199000091GA1001+999999999GF100991001001999999001001KA1999N-01171MD1210011+9999REMSYN064AAXX  30061 28791 32999 02407 11026 21056 40194 52001 333 21117;EQDQ01  00002PRCP99
0122287910999992000033012004+54620+072580FM-12+010999999V0202601N004012200019N0500001N1+00051-00651101781ADDGA1001+999999999GF100991001001999999001001MD1710121+9999REMSYN054AAXX  30121 28791 42999 02604 10005 21065 40178 57012;
0175287910999992000033018004+54620+072580FM-12+010999999V0202401N004012200019N0400001N1-00321-00601101731ADDAA199000091GA1001+999999999GF100991001001999999001001KA1999M+00111MD1710031+9999REMSYN064AAXX  30181 28791 32982 02404 11032 21060 40173 57003 333 10011;EQDQ01  00002PRCP99
0112287910999992000033100004+54620+072580FM-12+010999999V0202101N004012200019N0300001N1-00701-00911101591ADDGF102991001001999999001011MD1710041+9999REMSYN060AAXX  31001 28791 42980 22104 11070 21091 40159 57004 80001;
0165287910999992000033106004+54620+072580FM-12+010999999V0202401N006019999999N0500001N1-00141-00701101451ADDAA199000091GF106991061001999999031001KA1999N-00781MD1710071+9999REMSYN070AAXX  31061 28791 32999 62406 11014 21070 40145 57007 86030 333 21078;EQDQ01  00002PRCP99
0112287910999992000033112004+54620+072580FM-12+010999999V0202101N004019999999N0500001N1+00161-00581101231ADDGF108991001001999999001011MD1710101+9999REMSYN060AAXX  31121 28791 42999 82104 10016 21058 40123 57010 80001;
0165287910999992000033118004+54620+072580FM-12+010999999V0202401N005019999999N0500001N1-00151-00491101101ADDAA199000091GF108991001001999999001041KA1999M+00211MD1710011+9999REMSYN070AAXX  31181 28791 32984 82405 11015 21049 40110 57001 80004 333 10021;EQDQ01  00002PRCP99
0092287910999992000040100004+54620+072580FM-12+010999999V0202301N007019999999N0500001N1-00171-00441100911ADDGF108991081001999999021999REMSYN054AAXX  01001 28791 42984 82307 11017 21044 40091 8802/;
0210287910999992000040106004+54620+072580FM-12+010999999V0202601N008010072019N0500001N1+00141-00241101031ADDAA199000091GA1071+007209069GF107991071051008001001001KA1120N-00281MD1210141+9999OA140101201REMSYN088AAXX  01061 28791 32599 72608 10014 21024 40103 52014 87500 333 21028 87624 91012 91113;EQDQ01  00002PRCP99
0132287910999992000040112004+54620+072580FM-12+010999999V0202701N006012200019N0500001N1+00431-00081101501ADDGA1001+999999999GF100991001001999999001001MD1210321+9999REMSYN064AAXX  01121 28791 42999 02706 10043 21008 40150 52032 333 91112;
0175287910999992000040118004+54620+072580FM-12+010999999V0202901N003012200019N0400001N1+00101-00131102091ADDAA199000091GA1001+999999999GF100991001001999999001001KA1999M+00461MD1210291+9999REMSYN064AAXX  01181 28791 32982 02903 10010 21013 40209 52029 333 10046;EQDQ01  00002PRCP99
0122287910999992000040200004+54620+072580FM-12+010999999V0203001N001012200019N0500001N1-00361-00581102741ADDGA1001+999999999GF100991001001999999001001MD1210281+9999REMSYN054AAXX  02001 28791 42984 03001 11036 21058 40274 52028;
0175287910999992000040206004+54620+072580FM-12+010999999V0201301N003012200019N0500001N1+00071-00841103171ADDAA199000091GA1001+999999999GF100991001001999999001001KA1999N-00401MD1210191+9999REMSYN064AAXX  02061 28791 32999 01303 10007 21084 40317 52019 333 21040;EQDQ01  00002PRCP99
0122287910999992000040212004+54620+072580FM-12+010999999V0201301N003012200019N0500001N1+00221-00311103051ADDGA1001+999999999GF100991001001999999001001MD1710051+9999REMSYN054AAXX  02121 28791 42999 01303 10022 21031 40305 57005;
0203287910999992000040218004+54620+072580FM-12+010999999V0201201N003012200019N0200001N1-00241-00361102791ADDAA199000091AY101061AY201061GA1001+999999999GF100991001001999999001001KA1999M+00241MD1710101+9999MW1101REMSYN070AAXX  02181 28791 31998 01203 11024 21036 40279 57010 71000 333 10024;EQDQ01  00002PRCP99
0150287910999992000040300004+54620+072580FM-12+010999999V0201601N002012200019N0060001N1-00351-00401102411ADDAY101061AY201061GA1001+999999999GF100991001001999999001001MD1710181+9999MW1101REMSYN060AAXX  03001 28791 41956 01602 11035 21040 40241 57018 71000;
0165287910999992000040306004+54620+072580FM-12+010999999V0202101N004012200019N0500001N1+00411+00041102091ADDAA199000091GF102991021001999999031001KA1999N-00401MD1710141+9999REMSYN070AAXX  03061 28791 32999 22104 10041 20004 40209 57014 82030 333 21040;EQDQ01  00002PRCP99
0112287910999992000040312004+54620+072580FM-12+010999999V0201901N002019999999N0500001N1+00641+00221101861ADDGF107991071001999999031001MD1710091+9999REMSYN060AAXX  03121 28791 42999 71902 10064 20022 40186 57009 87030;
0175287910999992000040318004+54620+072580FM-12+010999999V0202801N003012200019N0450001N1+00161-00061102251ADDAA199000091GA1001+999999999GF100991001001999999001001KA1999M+00721MD1210201+9999REMSYN064AAXX  03181 28791 32983 02803 10016 21006 40225 52020 333 10072;EQDQ01  00002PRCP99
0150287910999992000040400004+54620+072580FM-12+010999999V0202901N003012200019N0080001N1-00061-00181102601ADDAY101061AY201061GA1001+999999999GF100991001001999999001001MD1210181+9999MW1101REMSYN060AAXX  04001 28791 41958 02903 11006 21018 40260 52018 71000;
0165287910999992000040406004+54620+072580FM-12+010999999V0202901N002019999999N0500001N1+00411+00041103071ADDAA199000091GF107991071001999999031001KA1999N-00091MD1210201+9999REMSYN070AAXX  04061 28791 32999 72902 10041 20004 40307 52020 87030 333 21009;EQDQ01  00002PRCP99
0122287910999992000040412004+54620+072580FM-12+010999999V0202901N002012200019N0500001N1+00741-00171103241ADDGA1001+999999999GF100991001001999999001001MD1210061+9999REMSYN054AAXX  04121 28791 42999 02902 10074 21017 40324 52006;
0203287910999992000040418004+54620+072580FM-12+010999999V0202301N001012200019N0080001N1-00141-00231103391ADDAA199000091AY101061AY201061GA1001+999999999GF100991001001999999001001KA1999M+00791MD1210011+9999MW1101REMSYN070AAXX  04181 28791 31958 02301 11014 21023 40339 52001 71000 333 10079;EQDQ01  00002PRCP99
0138287910999992000040500004+54620+072580FM-12+010999999V0202501N002010075019N0300001N1+00081-00091103301ADDGA1081+007509059GF108991081051008001999999MD1710011+9999REMSYN070AAXX  05001 28791 42580 82502 10008 21009 40330 57001 885// 333 88625;
0175287910999992000040506004+54620+072580FM-12+010999999V0201701N005012200019N0500001N1+00651+00181102921ADDAA199000091GA1001+999999999GF100991001001999999001001KA1999N-00161MD1710061+9999REMSYN064AAXX  05061 28791 32999 01705 10065 20018 40292 57006 333 21016;EQDQ01  00002PRCP99
0147287910999992000040518004+54620+072580FM-12+010999999V0202101N002012200019N0400001N1+00391+00111999999ADDAA199000091GA1001+999999999GF100991001001999999001001REMSYN063AAXX  05181 28791 32982 02102 10039 20011 4008 57016 333 10110;EQDQ01  00002PRCP99
0140287910999992000040600004+54620+072580FM-12+010999999V0209999C000019999999N0070001N1-00141-00201101901ADDAY111061AY211061GF108991081001999999071999MD1710051+9999MW1101REMSYN066AAXX  06001 28791 41957 80000 11014 21020 40190 57005 71011 8807/;
0165287910999992000040606004+54620+072580FM-12+010999999V0201901N001019999999N0500001N1+00661+00051101891ADDAA199000091GF108991001001999999001051KA1999N-00211MD1210071+9999REMSYN070AAXX  06061 28791 32999 81901 10066 20005 40189 52007 80005 333 21021;EQDQ01  00002PRCP99
0112287910999992000040612004+54620+072580FM-12+010999999V0201101N004012200019N0500001N1+01021+00411102041ADDGF103991031001999999041001MD1210121+9999REMSYN060AAXX  06121 28791 42999 31104 10102 20041 40204 52012 83040;
0175287910999992000040618004+54620+072580FM-12+010999999V0200801N004012200019N0450001N1+00081-00251102581ADDAA199000091GA1001+999999999GF100991001001999999001001KA1999M+01061MD1210281+9999REMSYN064AAXX  06181 28791 32983 00804 10008 21025 40258 52028 333 10106;EQDQ01  00002PRCP99
0122287910999992000040700004+54620+072580FM-12+010999999V0200701N005012200019N0400001N1-00351-00671103051ADDGA1001+999999999GF100991001001999999001001MD1210171+9999REMSYN054AAXX  07001 28791 42982 00705 11035 21067 40305 52017;
0175287910999992000040706004+54620+072580FM-12+010999999V0200801N006012200019N0500001N1+00031-00561103391ADDAA199000091GA1001+999999999GF100991001001999999001001KA1999N-00391MD1210131+9999REMSYN064AAXX  07061 28791 32999 00806 10003 21056 40339 52013 333 21039;EQDQ01  00002PRCP99
0122287910999992000040712004+54620+072580FM-12+010999999V0201101N006012200019N0500001N1+00321-00631103311ADDGA1001+999999999GF100991001001999999001001MD1710031+9999REMSYN054AAXX  07121 28791 42999 01106 10032 21063 40331 57003;
0175287910999992000040718004+54620+072580FM-12+010999999V0201201N005012200019N0450001N1-00231-00481103291ADDAA199000091GA1001+999999999GF100991001001999999001001KA1999M+00421MD1710041+9999REMSYN064AAXX  07181 28791 32983 01205 11023 21048 40329 57004 333 10042;EQDQ01  00002PRCP99
0150287910999992000040800004+54620+072580FM-12+010999999V0201201N003012200019N0090001N1-00551-00591103161ADDAY111061AY211061GA1001+999999999GF100991001001999999001001MD1710071+9999MW1101REMSYN060AAXX  08001 28791 41959 01203 11055 21059 40316 57007 71011;
0175287910999992000040806004+54620+072580FM-12+010999999V0201301N007012200019N0500001N1+00461-00421102901ADDAA199000091GA1001+999999999GF100991001001999999001001KA1999N-00601MD1710141+9999REMSYN064AAXX  08061 28791 32999 01307 10046 21042 40290 57014 333 21060;EQDQ01  00002PRCP99
0139287910999992000040812004+54620+072580FM-12+010999999V0201401N008019999999N0500001N1+00981-00191102381ADDGF105991001001999999001041MD1710181+9999OA140101201REMSYN076AAXX  08121 28791 42999 51408 10098 21019 40238 57018 80004 333 91012 91113;
0171287910999992000040818004+54620+072580FM-12+010999999V0201501N004019999999N0400001N1+00521-00341101941ADDAA199000091GF108991081001999999021999KA1120M+01021MD1710171+9999REMSYN076AAXX  08181 28791 32982 81504 10052 21034 40194 57017 8802/ 333 10102 91112;EQDQ01  00002PRCP99
0175287910999992000040900004+54620+072580FM-12+010999999V0201601N005019999999N0400001N1+00441+00291101002ADDAY161061AY221061GF108991081001999999071999MD1710682+9999MW1021REMSYN066AAXX  09001 28791 41982 81605 10044 20029 40100 57068 70262 8807/;EQDQ01+101003APOSLPQ02+000682APC3  
0174287910999992000040906004+54620+072580FM-12+010999999V0202501N006010066019N0500001N1+00791+00381101711ADDAA100002091GA1071+006609099GF107991071091008001001001KA1120N+00401MD1710101+9999REMSYN082AAXX  09061 28791 12599 72506 10079 20038 40171 57010 60020 87900 333 20040 87922;
0185287910999992000040912004+54620+072580FM-12+010999999V0202701N004010039019N0040001N1+00561+00491100762ADDAY181061AY221061GA1081+003909069GF108991081071004501999999MD1210071+9999MW1801REMSYN076AAXX  09121 28791 41496 82704 10056 20049 40076 52007 78082 887// 333 88713;EQDQ01+100763APOSLP
0180287910999992000040918004+54620+072580FM-12+010999999V0202801N005019999999N0400001N1+00191+00001101461ADDAA100002091AY181061AY221061GF107991071001999999051999KA1999M+00841MD1210391+9999MW1021REMSYN082AAXX  09181 28791 11982 72805 10019 21000 40146 52039 60020 70282 8705/ 333 10084;
0138287910999992000041000004+54620+072580FM-12+010999999V0202101N005010063019N0350001N1+00031-00241102141ADDGA1081+006309099GF108991081091008001999999MD1210351+9999REMSYN070AAXX  10001 28791 42581 82105 10003 21024 40214 52035 889// 333 88921;
0175287910999992000041006004+54620+072580FM-12+010999999V0200401N005012200019N0500001N1+00091-00881102841ADDAA199000091GA1001+999999999GF100991001001999999001001KA1999N-00161MD1210291+9999REMSYN064AAXX  10061 28791 32999 00405 10009 21088 40284 52029 333 21016;EQDQ01  00002PRCP99
0122287910999992000041012004+54620+072580FM-12+010999999V0200401N004012200019N0500001N1+00521-00851103041ADDGA1001+999999999GF100991001001999999001001MD1210061+9999REMSYN054AAXX  10121 28791 42999 00404 10052 21085 40304 52006;
0175287910999992000041018004+54620+072580FM-12+010999999V0202901N001012200019N0450001N1-00221-00691103201ADDAA199000091GA1001+999999999GF100991001001999999001001KA1999M+00551MD1210051+9999REMSYN064AAXX  10181 28791 32983 02901 11022 21069 40320 52005 333 10055;EQDQ01  00002PRCP99
0150287910999992000041100004+54620+072580FM-12+010999999V0202101N002012200019N0040001N1-00551-00621103371ADDAY101061AY201061GA1001+999999999GF100991001001999999001001MD1210131+9999MW1101REMSYN060AAXX  11001 28791 41996 02102 11055 21062 40337 52013 71000;
0175287910999992000041106004+54620+072580FM-12+010999999V0201701N004012200019N0500001N1+00621-00621103371ADDAA199000091GA1001+999999999GF100991001001999999001001KA1999N-00591MD1710071+9999REMSYN064AAXX  11061 28791 32999 01704 10062 21062 40337 57007 333 21059;EQDQ01  00002PRCP99
0112287910999992000041112004+54620+072580FM-12+010999999V0201701N005012200019N0500001N1+01001-00571103161ADDGF103991001001999999001011MD1710071+9999REMSYN060AAXX  11121 28791 42999 31705 10100 21057 40316 57007 80001;
0165287910999992000041118004+54620+072580FM-12+010999999V0201601N003012200019N0400001N1-00071-00601103001ADDAA199000091GF102991001001999999001011KA1999M+01051MD1710041+9999REMSYN070AAXX  11181 28791 32982 21603 11007 21060 40300 57004 80001 333 10105;EQDQ01  00002PRCP99
0112287910999992000041200004+54620+072580FM-12+010999999V0201401N004019999999N0200001N1-00021-00521102701ADDGF108991001001999999001051MD1710201+9999REMSYN060AAXX  12001 28791 42998 81404 11002 21052 40270 57020 80005;
0188287910999992000041206004+54620+072580FM-12+010999999V0201301N010019999999N0500001N1+00721-00301102261ADDAA199000091GF108991001001999999001091KA1120N-00211MD1710091+9999OA140101401REMSYN082AAXX  12061 28791 32999 81310 10072 21030 40226 57009 80009 333 21021 91014 91114;EQDQ01  00002PRCP99
0122287910999992000041212004+54620+072580FM-12+010999999V0201301N005019999999N0500001N1+00911-00191101841ADDGF108991081001999999071999MD1710121+9999REMSYN070AAXX  12121 28791 42999 81305 10091 21019 40184 57012 8807/ 333 91114;
0175287910999992000041218004+54620+072580FM-12+010999999V0201301N004012200019N0400001N1+00601-00091101341ADDAA199000091GA1001+999999999GF100991001001999999001001KA1999M+01021MD1710291+9999REMSYN064AAXX  12181 28791 32982 01304 10060 21009 40134 57029 333 10102;EQDQ01  00002PRCP99
0112287910999992000041300004+54620+072580FM-12+010999999V0201101N001019999999N0200001N1+00061-00111101051ADDGF108991001001999999001091MD1710151+9999REMSYN060AAXX  13001 28791 42998 81101 10006 21011 40105 57015 80009;
0165287910999992000041306004+54620+072580FM-12+010999999V0201601N002019999999N0500001N1+01521+00251100911ADDAA199000091GF107991001001999999001041KA1999N-00071MD1710071+9999REMSYN070AAXX  13061 28791 32999 71602 10152 20025 40091 57007 80004 333 21007;EQDQ01  00002PRCP99
0138287910999992000041312004+54620+072580FM-12+010999999V0201601N004010066019N0500001N1+01961+00321100631ADDGA1061+006609099GF108991061091008001001011MD1710121+9999REMSYN070AAXX  13121 28791 42599 81604 10196 20032 40063 57012 86901 333 86922;
0165287910999992000041318004+54620+072580FM-12+010999999V0202001N002012200019N0500001N1+00741+00341100651ADDAA199000091GF102991021001999999031001KA1999M+02111MD1710011+9999REMSYN070AAXX  13181 28791 32984 22002 10074 20034 40065 57001 82030 333 10211;EQDQ01  00002PRCP99
0112287910999992000041400004+54620+072580FM-12+010999999V0202301N003019999999N0200001N1+00601+00151100711ADDGF108991081001999999051999MD1210101+9999REMSYN060AAXX  14001 28791 42998 82303 10060 20015 40071 52010 8805/;
0193287910999992000041406004+54620+072580FM-12+010999999V0202001N005019999999N0500001N1+01371+00641100631ADDAA199000091AY161061AY221061GF108991081001999999071999KA1999N+00331MD1210031+9999MW1021REMSYN076AAXX  14061 28791 31999 82005 10137 20064 40063 52003 70262 8807/ 333 20033;EQDQ01  00002PRCP99
0180287910999992000041418004+54620+072580FM-12+010999999V0202201N003019999999N0400001N1+00611+00561100671ADDAA100005191AY161061AY221061GF108991081001999999071999KA1999M+01371MD1410001+9999MW1021REMSYN082AAXX  14181 28791 11982 82203 10061 20056 40067 54000 60050 70262 8807/ 333 10137;
0138287910999992000041500004+54620+072580FM-12+010999999V0202501N005010033019N0200001N1+00691+00651100751ADDGA1081+003309029GF108991081001999999021999MD1210051+9999REMSYN070AAXX  15001 28791 42998 82505 10069 20065 40075 52005 8802/ 333 88511;
0187287910999992000041506004+54620+072580FM-12+010999999V0202401N005010066019N0500001N1+00581+00291101011ADDAA199000091GA1081+006609059GF108991081051008001999999KA1120N+00491MD1210081+9999REMSYN076AAXX  15061 28791 32599 82405 10058 20029 40101 52008 885// 333 20049 88622;EQDQ01  00002PRCP99
0140287910999992000041512004+54620+072580FM-12+010999999V0202701N005010300019N0040001N1+00531+00441101101ADDAY161061AY221061GF108991031071008001021999MD1210051+9999MW1611REMSYN066AAXX  15121 28791 41596 82705 10053 20044 40110 52005 76162 8372/;
0180287910999992000041518004+54620+072580FM-12+010999999V0203101N003010300019N0060001N1+00561+00541101341ADDAA100002091AY161061AY221061GF108991031071004501021999KA1999M+00651MD1210171+9999MW1611REMSYN082AAXX  15181 28791 11456 83103 10056 20054 40134 52017 60020 76162 8372/ 333 10065;
0140287910999992000041600004+54620+072580FM-12+010999999V0203201N003019999999N0200001N1+00511+00441101741ADDAY161061AY221061GF108991081001999999041999MD1210261+9999MW1021REMSYN066AAXX  16001 28791 41998 83203 10051 20044 40174 52026 70262 8804/;
0162287910999992000041606004+54620+072580FM-12+010999999V0203101N003012200019N0500001N1+01101+00651102071ADDAA100003091GA1001+999999999GF100991001001999999001001KA1999N+00481MD1210111+9999REMSYN070AAXX  16061 28791 12999 03103 10110 20065 40207 52011 60030 333 20048;
0112287910999992000041612004+54620+072580FM-12+010999999V0203101N004012200019N0500001N1+01631+00231102091ADDGF101991001001999999001011MD1210051+9999REMSYN060AAXX  16121 28791 42999 13104 10163 20023 40209 52005 80001;
0175287910999992000041618004+54620+072580FM-12+010999999V0202701N001012200019N0400001N1+00491+00191102271ADDAA199000091GA1001+999999999GF100991001001999999001001KA1999M+01631MD1210011+9999REMSYN064AAXX  16181 28791 32982 02701 10049 20019 40227 52001 333 10163;EQDQ01  00002PRCP99
0165287910999992000041706004+54620+072580FM-12+010999999V0202901N007019999999N0500001N1+01721+00021102261ADDAA199000091GF108991001001999999001041KA1999N+00071MD1710031+9999REMSYN070AAXX  17061 28791 32999 82907 10172 20002 40226 57003 80004 333 20007;EQDQ01  00002PRCP99
0132287910999992000041712004+54620+072580FM-12+010999999V0202901N005012200019N0500001N1+02021-00251102071ADDGA1001+999999999GF100991001001999999001001MD1710061+9999REMSYN064AAXX  17121 28791 42999 02905 10202 21025 40207 57006 333 91112;
0175287910999992000041718004+54620+072580FM-12+010999999V0202601N001012200019N0350001N1+01001+00171102281ADDAA199000091GA1001+999999999GF100991001001999999001001KA1999M+02061MD1210061+9999REMSYN064AAXX  17181 28791 32981 02601 10100 20017 40228 52006 333 10206;EQDQ01  00002PRCP99
0112287910999992000041800004+54620+072580FM-12+010999999V0202401N002019999999N0500001N1+00261+00021102351ADDGF108991001001999999001051MD1210031+9999REMSYN060AAXX  18001 28791 42999 82402 10026 20002 40235 52003 80005;
0165287910999992000041806004+54620+072580FM-12+010999999V0202301N003019999999N0500001N1+01671+00411102381ADDAA199000091GF106991061001999999081001KA1999N+00201MD1210061+9999REMSYN070AAXX  18061 28791 32999 62303 10167 20041 40238 52006 86080 333 20020;EQDQ01  00002PRCP99
0112287910999992000041812004+54620+072580FM-12+010999999V0200601N006019999999N0500001N1+01661+00251102651ADDGF108991001001999999001091MD1210031+9999REMSYN060AAXX  18121 28791 42999 80606 10166 20025 40265 52003 80009;
0165287910999992000041818004+54620+072580FM-12+010999999V0200601N004019999999N0350001N1+00621+00091103031ADDAA199000091GF108991001001999999001091KA1999M+01811MD1210151+9999REMSYN070AAXX  18181 28791 32981 80604 10062 20009 40303 52015 80009 333 10181;EQDQ01  00002PRCP99
0122287910999992000041900004+54620+072580FM-12+010999999V0201001N003012200019N0500001N1+00181-00071103201ADDGA1001+999999999GF100991001001999999001001MD1210071+9999REMSYN054AAXX  19001 28791 42999 01003 10018 21007 40320 52007;
0165287910999992000041906004+54620+072580FM-12+010999999V0200901N004019999999N0500001N1+01361-00071103211ADDAA199000091GF106991001001999999001041KA1999N+00091MD1710041+9999REMSYN070AAXX  19061 28791 32999 60904 10136 21007 40321 57004 80004 333 20009;EQDQ01  00002PRCP99
0112287910999992000041912004+54620+072580FM-12+010999999V0200701N002019999999N0500001N1+01731-00171102951ADDGF108991001001999999001011MD1710141+9999REMSYN060AAXX  19121 28791 42999 80702 10173 21017 40295 57014 80001;
0175287910999992000041918004+54620+072580FM-12+010999999V0201201N001012200019N0500001N1+00611-00021102901ADDAA199000091GA1001+999999999GF100991001001999999001001KA1999M+01751MD1710051+9999REMSYN064AAXX  19181 28791 32984 01201 10061 21002 40290 57005 333 10175;EQDQ01  00002PRCP99
0112287910999992000042000004+54620+072580FM-12+010999999V0201001N001012200019N0500001N1+00141-00241102841ADDGF102991001001999999001011MD1710021+9999REMSYN060AAXX  20001 28791 42999 21001 10014 21024 40284 57002 80001;
0175287910999992000042006004+54620+072580FM-12+010999999V0201301N003012200019N0500001N1+01761-00141102761ADDAA199000091GA1001+999999999GF100991001001999999001001KA1999N+00111MD1710071+9999REMSYN064AAXX  20061 28791 32999 01303 10176 21014 40276 57007 333 20011;EQDQ01  00002PRCP99
0122287910999992000042012004+54620+072580FM-12+010999999V0201301N003012200019N0500001N1+01971-00331102401ADDGA1001+999999999GF100991001001999999001001MD1710131+9999REMSYN054AAXX  20121 28791 42999 01303 10197 21033 40240 57013;
0175287910999992000042018004+54620+072580FM-12+010999999V0200901N002012200019N0400001N1+00671-00031102371ADDAA199000091GA1001+999999999GF100991001001999999001001KA1999M+02001MD1710051+9999REMSYN064AAXX  20181 28791 32982 00902 10067 21003 40237 57005 333 10200;EQDQ01  00002PRCP99
0165287910999992000042106004+54620+072580FM-12+010999999V0201601N003019999999N0500001N1+01831-00571102071ADDAA199000091GF108991001001999999001091KA1999N+00141MD1710061+9999REMSYN070AAXX  21061 28791 32999 81603 10183 21057 40207 57006 80009 333 20014;EQDQ01  00002PRCP99
0112287910999992000042112004+54620+072580FM-12+010999999V0202001N004019999999N0500001N1+01991-00741101641ADDGF105991001001999999001091MD1710241+9999REMSYN060AAXX  21121 28791 42999 52004 10199 21074 40164 57024 80009;
0165287910999992000042118004+54620+072580FM-12+010999999V0202301N002019999999N0400001N1+00691-00461101671ADDAA199000091GF105991001001999999001011KA1999M+02061MD1410001+9999REMSYN070AAXX  21181 28791 32982 52302 10069 21046 40167 54000 80001 333 10206;EQDQ01  00002PRCP99
0175287910999992000042200004+54620+072580FM-12+010999999V0202201N003012200019N0400001N1+01041+00151101531ADDAA199000091GA1001+999999999GF100991001001999999001001KA1999M+02091MD1710151+9999REMSYN064AAXX  23181 28791 32982 02203 10104 20015 40153 57015 333 10209;EQDQ01  00002PRCP99
0165287910999992000042206004+54620+072580FM-12+010999999V0203201N003019999999N0500001N1+01981-00051101581ADDAA199000091GF108991001001999999001041KA1999N+00401MD1410001+9999REMSYN070AAXX  22061 28791 32999 83203 10198 21005 40158 54000 80004 333 20040;EQDQ01  00002PRCP99
0171287910999992000042218004+54620+072580FM-12+010999999V0200201N003019999999N0450001N1+01101+00021102191ADDAA199000091GF108991001001999999001011KA1120M+02261MD1210261+9999REMSYN076AAXX  22181 28791 32983 80203 10110 20002 40219 52026 80001 333 10226 91113;EQDQ01  00002PRCP99
0122287910999992000042300004+54620+072580FM-12+010999999V0203101N001012200019N0500001N1+00171-00271102541ADDGA1001+999999999GF100991001001999999001001MD1210101+9999REMSYN054AAXX  23001 28791 42999 03101 10017 21027 40254 52010;
0175287910999992000042306004+54620+072580FM-12+010999999V0202201N004012200019N0500001N1+01611-00251102391ADDAA199000091GA1001+999999999GF100991001001999999001001KA1999N+00111MD1710071+9999REMSYN064AAXX  23061 28791 32999 02204 10161 21025 40239 57007 333 20011;EQDQ01  00002PRCP99
0122287910999992000042312004+54620+072580FM-12+010999999V0202801N004012200019N0500001N1+02081-00171101841ADDGA1001+999999999GF100991001001999999001001MD1710241+9999REMSYN054AAXX  23121 28791 42999 02804 10208 21017 40184 57024;
0112287910999992000042400004+54620+072580FM-12+010999999V0202201N004019999999N0500001N1+00881+00321101161ADDGF108991081001999999041999MD1710291+9999REMSYN060AAXX  24001 28791 42999 82204 10088 20032 40116 57029 8804/;
0175287910999992000042406004+54620+072580FM-12+010999999V0202601N006012200019N0500001N1+02161+00111100801ADDAA199000091GA1001+999999999GF100991001001999999001001KA1999N+00851MD1710171+9999REMSYN064AAXX  24061 28791 32999 02606 10216 20011 40080 57017 333 20085;EQDQ01  00002PRCP99
0165287910999992000042418004+54620+072580FM-12+010999999V0202101N005019999999N0400001N1+01261+00741101661ADDAA199000091GF108991001001999999001011KA1999M+02571MD1210241+9999REMSYN070AAXX  24181 28791 32982 82105 10126 20074 40166 52024 80001 333 10257;EQDQ01  00002PRCP99
0165287910999992000042506004+54620+072580FM-12+010999999V0202701N003010075019N0500001N1+01631+00171101311ADDAA199000091GF105991051021008001001001KA1999N+00611MD1710211+9999REMSYN070AAXX  25061 28791 32599 52703 10163 20017 40131 57021 85200 333 20061;EQDQ01  00002PRCP99
0112287910999992000042512004+54620+072580FM-12+010999999V0202701N005019999999N0500001N1+01881-00221100851ADDGF108991021001999999031041MD1710191+9999REMSYN060AAXX  25121 28791 42999 82705 10188 21022 40085 57019 82034;
0190287910999992000042518004+54620+072580FM-12+010999999V0202901N002012200019N0500001N1+01121+00451100791ADDAA100000791AY161061AY211061GA1001+999999999GF100991001001999999001001KA1999M+01951MD1710041+9999MW1011REMSYN076AAXX  25181 28791 11984 02902 10112 20045 40079 57004 69900 70161 333 10195;
0112287910999992000042600004+54620+072580FM-12+010999999V0203201N007012200019N0500001N1+00501+00001101031ADDGF102991021051008001001001MD1210121+9999REMSYN060AAXX  26001 28791 42599 23207 10050 20000 40103 52012 82500;
0197287910999992000042606004+54620+072580FM-12+010999999V0203401N009010075019N0500001N1+00451-00401101651ADDAA100000791GA1081+007509069GF108991081051008001999999KA1120N+00371MD1210261+9999OA140101401REMSYN094AAXX  26061 28791 12599 83409 10045 21040 40165 52026 69900 885// 333 20037 88625 91014 91114;
0161287910999992000042612004+54620+072580FM-12+010999999V0202701N008010084019N0500001N1+00621-00461102131ADDGA1061+008409069GF106991061041008001001001MD1210251+9999OA140101201REMSYN082AAXX  26121 28791 42599 62708 10062 21046 40213 52025 86400 333 86628 91012 91114;
0181287910999992000042618004+54620+072580FM-12+010999999V0202201N002012200019N0400001N1+00061-00341102401ADDAA199000091GA1001+999999999GF100991001001999999001001KA1120M+00721MD1210121+9999REMSYN070AAXX  26181 28791 32982 02202 10006 21034 40240 52012 333 10072 91112;EQDQ01  00002PRCP99
0112287910999992000042700004+54620+072580FM-12+010999999V0202001N006012200019N0500001N1+00341+00021102281ADDGF103991031051008001001001MD1710131+9999REMSYN060AAXX  27001 28791 42599 32006 10034 20002 40228 57013 83500;
0188287910999992000042706004+54620+072580FM-12+010999999V0202801N009019999999N0500001N1+01881-00271101771ADDAA199000091GF105991001001999999001011KA1120N-00011MD1710271+9999OA140101501REMSYN082AAXX  27061 28791 32999 52809 10188 21027 40177 57027 80001 333 21001 91015 91115;EQDQ01  00002PRCP99
0149287910999992000042712004+54620+072580FM-12+010999999V0202601N009012200019N0500001N1+02371-00331101341ADDGA1001+999999999GF100991001001999999001001MD1710181+9999OA140101501REMSYN070AAXX  27121 28791 42999 02609 10237 21033 40134 57018 333 91015 91118;
0122287910999992000042800004+54620+072580FM-12+010999999V0202501N007012200019N0500001N1+01381-00121100791ADDGA1001+999999999GF100991001001999999001001MD1710161+9999REMSYN054AAXX  28001 28791 42999 02507 10138 21012 40079 57016;
0188287910999992000042806004+54620+072580FM-12+010999999V0202701N008012200019N0500001N1+02221+00151100481ADDAA199000091GF102991021001999999081001KA1120N+01351MD1710071+9999OA140101401REMSYN082AAXX  28061 28791 32999 22708 10222 20015 40048 57007 82080 333 20135 91014 91115;EQDQ01  00002PRCP99
0150287910999992000042812004+54620+072580FM-12+010999999V0203501N005010300019N0500001N1+01191+00621100611ADDAY191061AY281061GF108991031091008001061011MD1210131+9999MW1251REMSYN076AAXX  28121 28791 41599 83505 10119 20062 40061 52013 72598 83961 333 91116;
0232287910999992000042818004+54620+072580FM-12+010999999V0203501N004010027019N0270001N1+00481+00211101241ADDAA100003091AY191061AY281061GA1081+002709079GF108991081091002501999999HL10009KA1120M+02341MD1210241+9999MW1021OA149901301REMSYN100AAXX  28181 28791 11377 83504 10048 20021 40124 52024 60030 70298 889// 333 10234 88709 91113 93211;
0112287910999992000042900004+54620+072580FM-12+010999999V0203601N003019999999N0500001N1+00061-00341101511ADDGF106991061001999999071001MD1210101+9999REMSYN060AAXX  29001 28791 42999 63603 10006 21034 40151 52010 86070;
0187287910999992000042906004+54620+072580FM-12+010999999V0201901N005010081019N0500001N1+00321-00671101531ADDAA199000091GA1071+008109059GF108991071041008001001041KA1120N-00031MD1710021+9999REMSYN076AAXX  29061 28791 32599 81905 10032 21067 40153 57002 87404 333 21003 87627;EQDQ01  00002PRCP99
0112287910999992000042912004+54620+072580FM-12+010999999V0200401N006010750019N0500001N1+00341-00641101451ADDGF108991021041008001001051MD1710071+9999REMSYN060AAXX  29121 28791 42599 80406 10034 21064 40145 57007 82405;
0175287910999992000042918004+54620+072580FM-12+010999999V0200501N003012200019N0400001N1+00001-00631101431ADDAA199000091GA1001+999999999GF100991001001999999001001KA1999M+00491MD1710021+9999REMSYN064AAXX  29181 28791 32982 00503 10000 21063 40143 57002 333 10049;EQDQ01  00002PRCP99
0122287910999992000043000004+54620+072580FM-12+010999999V0203301N003012200019N0500001N1-00321-00751101561ADDGA1001+999999999GF100991001001999999001001MD1210101+9999REMSYN054AAXX  30001 28791 42999 03303 11032 21075 40156 52010;
0165287910999992000043006004+54620+072580FM-12+010999999V0203001N003010075019N0500001N1+00511-00971101841ADDAA199000091GF105991051021008001001001KA1999N-00391MD1210071+9999REMSYN070AAXX  30061 28791 32599 53003 10051 21097 40184 52007 85200 333 21039;EQDQ01  00002PRCP99
0112287910999992000043012004+54620+072580FM-12+010999999V0202801N002010075019N0500001N1+00881-01271101951ADDGF105991051011008001001001MD1210031+9999REMSYN060AAXX  30121 28791 42599 52802 10088 21127 40195 52003 85100;
0175287910999992000043018004+54620+072580FM-12+010999999V0201801N004012200019N0400001N1+00241-00901102261ADDAA199000091GA1001+999999999GF100991001001999999001001KA1999M+00911MD1210221+9999REMSYN064AAXX  30181 28791 32982 01804 10024 21090 40226 52022 333 10091;EQDQ01  00002PRCP99
0112287910999992000050100004+54620+072580FM-12+010999999V0201301N004019999999N0500001N1-00191-00721101921ADDGF108991001001999999001091MD1710151+9999REMSYN060AAXX  01001 28791 42999 81304 11019 21072 40192 57015 80009;
0188287910999992000050106004+54620+072580FM-12+010999999V0201201N011019999999N0500001N1+00671-01091101441ADDAA199000091GF108991081001999999011999KA1120N-00221MD1710281+9999OA140101501REMSYN082AAXX  01061 28791 32999 81211 10067 21109 40144 57028 8801/ 333 21022 91015 91118;EQDQ01  00002PRCP99
0127287910999992000050112004+54620+072580FM-12+010999999V0201201N011019999999N0500001N1+00721-01031100921ADDGF108991081001999999051999MD1710191+9999REMSYN075AAXX  01121 28791 42999 81211 10072 21103 40092 57019 8805/ 33391017 91123;
0188287910999992000050118004+54620+072580FM-12+010999999V0200901N008019999999N0450001N1+00451-00061100481ADDAA199000091GF108991081001999999051999KA1120M+00961MD1710221+9999OA140101201REMSYN082AAXX  01181 28791 32983 80908 10045 21006 40048 57022 8805/ 333 10096 91012 91117;EQDQ01  00002PRCP99
0172287910999992000050200004+54620+072580FM-12+010999999V0200901N005010030019N0500001N1+00241-00061100371ADDAY161061AY221061GA1061+003009079GF108991061071004501021999MD1210051+9999MW1021REMSYN082AAXX  02001 28791 41499 80905 10024 21006 40037 52005 70262 8672/ 333 86710 91113;
0174287910999992000050206004+54620+072580FM-12+010999999V0201301N007010054019N0500001N1+00491+00131100561ADDAA100000791GA1081+005409099GF108991081091004501999999KA1120N+00161MD1210031+9999REMSYN082AAXX  02061 28791 12499 81307 10049 20013 40056 52003 69900 889// 333 20016 88918;
0189287910999992000050212004+54620+072580FM-12+010999999V0201201N008010072019N0500001N1+00621+00261100491ADDAY181061AY221061GA1081+007209069GF108991081051008001999999MD1710181+9999MW1021OA140101301REMSYN088AAXX  02121 28791 41599 81208 10062 20026 40049 57018 70282 885// 333 88624 91013 91114;
0196287910999992000050218004+54620+072580FM-12+010999999V0202501N003012200019N0400001N1+00441+00321100721ADDAA100009991AY161061AY211061GA1001+999999999GF100991001001999999001001KA1120M+00661MD1210241+9999MW1011REMSYN082AAXX  02181 28791 11982 02503 10044 20032 40072 52024 60100 70161 333 10066 91113;
0122287910999992000050300004+54620+072580FM-12+010999999V0201801N002012200019N0500001N1-00041-00161100921ADDGA1001+999999999GF100991001001999999001001MD1210091+9999REMSYN054AAXX  03001 28791 42999 01802 11004 21016 40092 52009;
0191287910999992000050306004+54620+072580FM-12+010999999V0201901N007010033019N0500001N1+00551+00361100491ADDAY181061AY221061GA1081+003309079GF108991081091004501999999KA1120N-00081MD1710251+9999MW1251REMSYN088AAXX  03061 28791 11499 81907 10055 20036 40049 57025 72582 889// 333 21008 88711 91113;
0189287910999992000050312004+54620+072580FM-12+010999999V0202301N010010039019N0040001N1+00321+00081100531ADDAY181061AY221061GA1081+003909079GF108991081091004501999999MD1210091+9999MW1801OA140101801REMSYN088AAXX  03121 28791 41496 82310 10032 20008 40053 52009 78082 889// 333 88713 91018 91118;
0196287910999992000050318004+54620+072580FM-12+010999999V0202401N006012200019N0400001N1+00251-00241100771ADDAA100005191AY181061AY221061GA1001+999999999GF100991001001999999001001KA1120M+00571MD1210051+9999MW1011REMSYN082AAXX  03181 28791 11982 02406 10025 21024 40077 52005 60050 70182 333 10057 91118;
0122287910999992000050400004+54620+072580FM-12+010999999V0202501N005012200019N0500001N1+00121-00331100811ADDGA1001+999999999GF100991001001999999001001MD1210011+9999REMSYN054AAXX  04001 28791 42999 02505 10012 21033 40081 52001;
0187287910999992000050406004+54620+072580FM-12+010999999V0202601N005010051019N0500001N1+00641-00271101041ADDAA199000091GA1081+005109099GF108991081091004501999999KA1120N+00081MD1210081+9999REMSYN076AAXX  04061 28791 32499 82605 10064 21027 40104 52008 889// 333 20008 88917;EQDQ01  00002PRCP99
0138287910999992000050412004+54620+072580FM-12+010999999V0202501N006010057019N0500001N1+00841-00471100791ADDGA1081+005709099GF108991081091004501999999MD1710161+9999REMSYN070AAXX  04121 28791 42499 82506 10084 21047 40079 57016 889// 333 88919;
0165287910999992000050418004+54620+072580FM-12+010999999V0203001N002012200019N0450001N1+00271-00321100751ADDAA199000091GF102991001001999999001011KA1999M+00951MD1710021+9999REMSYN070AAXX  04181 28791 32983 23002 10027 21032 40075 57002 80001 333 10095;EQDQ01  00002PRCP99
0112287910999992000050500004+54620+072580FM-12+010999999V0202601N003019999999N0500001N1+00091-00331100791ADDGF108991081001999999041999MD1210081+9999REMSYN060AAXX  05001 28791 42999 82603 10009 21033 40079 52008 8804/;
0187287910999992000050506004+54620+072580FM-12+010999999V0202601N007010063019N0500001N1+00541-00011101081ADDAA199000091GA1071+006309099GF107991071091008001001001KA1120N-00041MD1210161+9999REMSYN076AAXX  05061 28791 32599 72607 10054 21001 40108 52016 87900 333 21004 87921;EQDQ01  00002PRCP99
0138287910999992000050512004+54620+072580FM-12+010999999V0203101N005010066019N0500001N1+00801-00251101501ADDGA1071+006609099GF107991071091008001001001MD1210211+9999REMSYN070AAXX  05121 28791 42599 73105 10080 21025 40150 52021 87900 333 87922;
0175287910999992000050518004+54620+072580FM-12+010999999V0202301N003012200019N0400001N1+00371-00261101991ADDAA199000091GA1001+999999999GF100991001001999999001001KA1999M+00831MD1210181+9999REMSYN064AAXX  05181 28791 32982 02303 10037 21026 40199 52018 333 10083;EQDQ01  00002PRCP99
0112287910999992000050600004+54620+072580FM-12+010999999V0202201N004019999999N0500001N1+00261-00261102021ADDGF108991001001999999001041MD1410001+9999REMSYN060AAXX  06001 28791 42999 82204 10026 21026 40202 54000 80004;
0188287910999992000050606004+54620+072580FM-12+010999999V0202201N009019999999N0500001N1+01411-00331101641ADDAA199000091GF108991001001999999001071KA1120N+00181MD1710111+9999OA140101301REMSYN082AAXX  06061 28791 32999 82209 10141 21033 40164 57011 80007 333 20018 91013 91113;EQDQ01  00002PRCP99
0122287910999992000050612004+54620+072580FM-12+010999999V0202801N005019999999N0500001N1+01561-00051101361ADDGF108991081001999999041999MD1210061+9999REMSYN070AAXX  06121 28791 42999 82805 10156 21005 40136 52006 8804/ 333 91116;
0175287910999992000050618004+54620+072580FM-12+010999999V0202501N005012200019N0400001N1+00851+00291101531ADDAA199000091GA1001+999999999GF100991001001999999001001KA1999M+01691MD1210091+9999REMSYN064AAXX  06181 28791 32982 02505 10085 20029 40153 52009 333 10169;EQDQ01  00002PRCP99
0100287910999992000050700004+54620+072580FM-12+010999999V0202101N002019999999N0500001N1+00461+99999999999ADDGF107991071001999999031001MD1210071+9999REMSYN048AAXX  07001 28791 42999 72102 10046 52007 87030;
0165287910999992000050706004+54620+072580FM-12+010999999V0202701N006012200019N0500001N1+01731-00191101701ADDAA199000091GF106991041021012501001041KA1999N+00401MD1710021+9999REMSYN070AAXX  07061 28791 32699 62706 10173 21019 40170 57002 84204 333 20040;EQDQ01  00002PRCP99
0112287910999992000050712004+54620+072580FM-12+010999999V0202701N004019999999N0500001N1+01841-00071101501ADDGF107991071001999999061001MD1710081+9999REMSYN060AAXX  07121 28791 42999 72704 10184 21007 40150 57008 87060;
0165287910999992000050718004+54620+072580FM-12+010999999V0201701N002019999999N0450001N1+01201+00271101291ADDAA199000091GF108991081001999999021999KA1999M+01921MD1710141+9999REMSYN070AAXX  07181 28791 32983 81702 10120 20027 40129 57014 8802/ 333 10192;EQDQ01  00002PRCP99
0112287910999992000050800004+54620+072580FM-12+010999999V0201901N003019999999N0500001N1+00851+00171100911ADDGF107991071001999999031001MD1710181+9999REMSYN060AAXX  08001 28791 42999 71903 10085 20017 40091 57018 87030;
0181287910999992000050806004+54620+072580FM-12+010999999V0202401N005010042019N0500001N1+01721+00151100411ADDAA199000091GF108991999071004501021999KA1999N+00821MD1710221+9999REMSYN070AAXX  08061 28791 32499 82405 10172 20015 40041 57022 8872/ 333 20082;EQDQ01+000082SCOTLCQ02  00002PRCP99
0140287910999992000050812004+54620+072580FM-12+010999999V0201901N002010300019N0500001N1+01371+00671100141ADDAY181061AY221061GF108991041091004501041999MD1710141+9999MW1251REMSYN066AAXX  08121 28791 41499 81902 10137 20067 40014 57014 72582 8494/;
0202287910999992000050818004+54620+072580FM-12+010999999V0202801N004010063019N0400001N1+01081+00771100141ADDAA100000791AY181061AY221061GA1081+006309099GF108991081091008001999999KA1120M+01731MD1210071+9999MW1021REMSYN088AAXX  08181 28791 11582 82804 10108 20077 40014 52007 69900 70282 889// 333 10173 88921;
0122287910999992000050900004+54620+072580FM-12+010999999V0202701N003012200019N0500001N1+00241-00391100771ADDGA1001+999999999GF100991001001999999001001MD1210441+9999REMSYN054AAXX  09001 28791 42999 02703 10024 21039 40077 52044;
0149287910999992000050912004+54620+072580FM-12+010999999V0203001N001012200019N0500001N1+01361-00901101161ADDGA1001+999999999GF100991001001999999001001MD1210081+9999OA140101201REMSYN070AAXX  09121 28791 42999 03001 10136 21090 40116 52008 333 91012 91116;
0181287910999992000050918004+54620+072580FM-12+010999999V0202701N002012200019N0400001N1+00541-00501101511ADDAA199000091GA1001+999999999GF100991001001999999001001KA1120M+01371MD1210131+9999REMSYN070AAXX  09181 28791 32982 02702 10054 21050 40151 52013 333 10137 91112;EQDQ01  00002PRCP99
0122287910999992000051000004+54620+072580FM-12+010999999V0201001N001012200019N0500001N1-00141-00581101711ADDGA1001+999999999GF100991001001999999001001MD1210071+9999REMSYN054AAXX  10001 28791 42999 01001 11014 21058 40171 52007;
0165287910999992000051006004+54620+072580FM-12+010999999V0201101N006019999999N0500001N1+01301-00741101481ADDAA199000091GF108991001001999999001051KA1999N-00181MD1710091+9999REMSYN070AAXX  10061 28791 32999 81106 10130 21074 40148 57009 80005 333 21018;EQDQ01  00002PRCP99
0167287910999992000051012004+54620+072580FM-12+010999999V0201201N008019999999N0040001N1+01281-00381100781ADDAY161061AY221061GF108991081001999999071999MD1710401+9999MW1611OA140101301REMSYN082AAXX  10121 28791 41996 81208 10128 21038 40078 57040 76162 8807/ 333 91013 91113;
0203287910999992000051018004+54620+072580FM-12+010999999V0200901N007019999999N0060001N1+00641+00501100191ADDAA100002091AY161061AY221061GF108991081001999999021999KA1120M+01561MD1710271+9999MW1611OA140101201REMSYN094AAXX  10181 28791 11956 80907 10064 20050 40019 57027 60020 76162 8802/ 333 10156 91012 91113;
0150287910999992000051100004+54620+072580FM-12+010999999V0200701N003019999999N0500001N1+00491+00441099961ADDAY161061AY221061GF108991081001999999051999MD1710041+9999MW1021REMSYN076AAXX  11001 28791 41999 80703 10049 20044 49996 57004 70262 8805/ 333 91113;
0202287910999992000051106004+54620+072580FM-12+010999999V0202101N002010066019N0040001N1+01301+00841099851ADDAA100007191AY181061AY221061GA1081+006609099GF108991081091008001999999KA1120N+00441MD1710041+9999MW1801REMSYN088AAXX  11061 28791 11596 82102 10130 20084 49985 57004 60070 78082 889// 333 20044 88922;
0166287910999992000051112004+54620+072580FM-12+010999999V0200701N005010057019N0500001N1+01121+00921099901ADDAY191061AY281061GA1071+005709099GF107991071091004501001001MD1210101+9999MW1021REMSYN076AAXX  11121 28791 41499 70705 10112 20092 49990 52010 70298 87900 333 87919;
0202287910999992000051118004+54620+072580FM-12+010999999V0200401N004010063019N0070001N1+00581+00511100041ADDAA100030091AY181061AY221061GA1081+006309099GF108991081091008001999999KA1120M+01351MD1210031+9999MW1801REMSYN088AAXX  11181 28791 11557 80404 10058 20051 40004 52003 60300 78082 889// 333 10135 88921;
