0232306050999992000010100004+53330+101180FM-12+060099999V0209999C000010075019N0500001N1-03221-03461104791ADDAA112000391AJ100299199999999GF106991061091008001001001GJ101509IA1239KA1120N-03231MA1999999096281MD1210151+9999REMSYN110AAXX  01001 30605 12599 60000 11322 21346 39628 40479 52015 69932 86900 333 21323 47029 55025 555 1/135 7997/;
0275306050999992000010200004+53330+101180FM-12+060099999V0209999C000012200019N0500001N1-04141-04431103681ADDAA112000791AA224999999AJ100299199999999GA1001+999999999GF100991001001999999001001GJ102889IA1239KA1120N-04141MA1999999094981MD1710201+9999REMSYN107AAXX  02001 30605 32999 00000 11414 21443 39498 40368 57020 69902 333 21414 47029 55048 555 1/150 7990/ /-;EQDQ01  99992PRCP24
0199306050999992000010212004+53330+101180FM-12+060099999V0209999C000012200019N0500001N1-03601-03901103071ADDAA106000091GF102991001001999999001011KA1120M-03141MA1999999094571MD1610071+9999REMSYN089AAXX  02121 30605 32999 20000 11360 21390 39457 40307 56007 80001 333 11314 555 1/145 /-;EQDQ01  00002PRCP06
0246306050999992000010300004+53330+101180FM-12+060099999V0209999C000012200019N0500001N1-03721-04011102811ADDAA106000091AJ100299199999999GF102991001001999999001011GJ103249IA1239KA1120N-03951MD1310011+9999REMSYN104AAXX  03001 30605 32999 20000 11372 21401 3429/ 40281 53001 80001 333 21395 47029 55054 555 1/139 7000/;EQDQ01+042901APOSP Q02  00002PRCP06
0211306050999992000010312004+53330+101180FM-12+060099999V0209999C000019999999N0100001N1-02781-03031103621ADDAA112000591AY171061AY221061GF108991001001999999001071KA1120M-02751MA1999999095251MD1210391+9999MW1711REMSYN098AAXX  03121 30605 11997 80000 11278 21303 39525 40362 52039 69962 77172 80007 333 11275 555 1/128;
0260306050999992000010400004+53330+101180FM-12+060099999V0209999C000019999999N0100001N1-03061-03291104461ADDAA112000591AJ100299199999999AY171061AY221061GF108991001001999999001071GJ100009IA1239KA1120N-03081MA1999999096031MD1210161+9999MW1711REMSYN116AAXX  04001 30605 11997 80000 11306 21329 39603 40446 52016 69942 77172 80007 333 21308 47029 55000 555 1/134 7001/;
0211306050999992000010412004+53330+101180FM-12+060099999V0209999C000019999999N0020001N1-03121-03361105161ADDAA112000191AY171061AY221061GF108991001001999999001071KA1120M-02681MA1999999096651MD1710261+9999MW1711REMSYN098AAXX  04121 30605 11995 80000 11312 21336 39665 40516 57026 69922 77172 80007 333 11268 555 1/134;
0260306050999992000010500004+53330+101180FM-12+060099999V0209999C000019999999N0500001N1-03591-03831104711ADDAA112000791AJ100299199999999AY171061AY221061GF108991001001999999001071GJ100009IA1239KA1120N-03591MA1999999096991MD1810011+9999MW1111REMSYN116AAXX  05001 30605 11999 80000 11359 21383 39699 40471 58001 69902 71172 80007 333 21359 47029 55000 555 1/139 7991/;
0183306050999992000010512004+53330+101180FM-12+060099999V0209999C000019999999N0500001N1-03631-03901105641ADDAA112000791GF106991001001999999001071KA1120M-03151MA1999999096921MD1710031+9999REMSYN092AAXX  05121 30605 12999 60000 11363 21390 39692 40564 57003 69902 80007 333 11315 555 1/147;
0255306050999992000010600004+53330+101180FM-12+060099999V0209999C000012200019N0500001N1-04381-04611105451ADDAA106000091AJ100299199999999GA1001+999999999GF100991001001999999001001GJ100009IA1239KA1120N-04501MA1999999096471MD1610121+9999REMSYN098AAXX  06001 30605 32999 00000 11438 21461 39647 40545 56012 333 21450 47029 55000 555 1/152 7990/;EQDQ01  00002PRCP06
0206306050999992000010612004+53330+101180FM-12+060099999V0209999C000012200019N0500001N1-03941-04221104211ADDAA106000091GA1001+999999999GF100991001001999999001001KA1120M-03051MA1999999095501MD1810271+9999REMSYN080AAXX  06121 30605 32999 00000 11394 21422 39550 40421 58027 333 11305 555 1/150;EQDQ01  00002PRCP06
0245306050999992000010700004+53330+101180FM-12+060099999V0209999C000012200019N0500001N1-04611-04851103721ADDAA106000091AJ100299199999999GF102991001001999999001011GJ103129IA1239KA1120N-04611MA1999999094801MD1610051+9999REMSYN104AAXX  07001 30605 32999 20000 11461 21485 39480 40372 56005 80001 333 21461 47029 55052 555 1/152 7000/;EQDQ01  00002PRCP06
0209306050999992000010712004+53330+101180FM-12+060099999V0209999C000012200019N9999999N1-03581-03801103601ADDAA106000091GA1001+999999999GF100991001001999999001001KA1120M-03431MA1999999096281MD1810041+9999REMSYN083AAXX  07121 30605 325// 00000 11358 21380 39628 40360 58004 333 11343 555 1/146 /-;EQDQ01  00002PRCP06
0274306050999992000010800004+53330+101180FM-12+060099999V0209999C000019999999N9999999N1-03431-03811103111ADDAA112000791AA224999929AJ100289199999999AY171061AY221061GF108991001001999999001071GJ103609IA1239KA1120N-04061MA1999999094641MD1010091+9999MW1711REMSYN119AAXX  08001 30605 119// 80000 11343 21381 39464 40311 50009 69902 77172 80007 333 21406 47028 55060 555 1/133 7990/ /-;
0221306050999992000010812004+53330+101180FM-12+060099999V0209999C000012200019N0500001N1-03201-03431103361ADDAA112000791AY171061AY221061GA1001+999999999GF100991001001999999001001KA1120M-02621MA1999999094971MD1210051+9999MW1021REMSYN092AAXX  08121 30605 11999 00000 11320 21343 39497 40336 52005 69902 70272 333 11262 555 1/140;
0259306050999992000010900004+53330+101180FM-12+060099999V0201001N002019999999N0500001N1-02391-02711103271ADDAA106000091AA224999929AJ100299199999999GF108991001001999999001071GJ101629IA1239KA1120N-03561MA1999999094231MD1610251+9999REMSYN107AAXX  09001 30605 32999 81002 11239 21271 39423 40327 56025 80007 333 21356 47029 55027 555 1/130 7990/ /-;EQDQ01  00002PRCP06
0186306050999992000010912004+53330+101180FM-12+060099999V0209999C000012200019N0500001N1-02561-02881102791ADDAA106000091GF108991031051008001001011KA1999N+99999MA1999999094651MD1210301+9999REMSYN076AAXX  09121 30605 32599 80000 11256 21288 39465 40279 52030 83501 333 2095/;EQDQ01  00002PRCP06
0279306050999992000011000004+53330+101180FM-12+060099999V0209999C000012200019N0500001N1-02601-02841103981ADDAA112000391AJ100299199999999AY171061AY221061GF108991031051008001001011GJ100729IA1239KA1120N+99999MA1999999095741MD1210241+9999MW1021REMSYN116AAXX  10001 30605 11599 80000 11260 21284 39574 40398 52024 69932 70272 83501 333 21026 47029 55012 555 1/126 7993/;EQDQ01 -00262ATMN  
0255306050999992000011100004+53330+101180FM-12+060099999V0201801N002012200019N0500001N1-01991-02461103621ADDAA106000091AJ100299199999999GA1001+999999999GF100991001001999999001001GJ102829IA1239KA1120N-02631MA1999999095601MD1710251+9999REMSYN098AAXX  11001 30605 32999 01802 11199 21246 39560 40362 57025 333 21263 47029 55047 555 1/127 7994/;EQDQ01  00002PRCP06
0199306050999992000011112004+53330+101180FM-12+060099999V0200201N001019999999N0500001N1-02051-02241103171ADDAA106000091GF105991001001999999001011KA1120M-01131MA1999999095161MD1710081+9999REMSYN089AAXX  11121 30605 32999 50201 11205 21224 39516 40317 57008 80001 333 11113 555 1/131 /-;EQDQ01  00002PRCP06
0196306050999992000011212004+53330+101180FM-12+060099999V0209999C000019999999N0500001N1-02051-02301102781ADDAA106000091GF108991001001999999001071KA1120M-01101MA1999999094801MD1810031+9999REMSYN086AAXX  12121 30605 32999 80000 11205 21230 39480 40278 58003 80007 333 11110 555 1/124;EQDQ01  00002PRCP06
0245306050999992000011300004+53330+101180FM-12+060099999V0202201N006019999999N0500001N1-01481-02181102261ADDAA106000091AJ100299199999999GF105991001001999999001051GJ100129IA1239KA1120N-02031MA1999999094491MD1710091+9999REMSYN104AAXX  13001 30605 32999 52206 11148 21218 39449 40226 57009 80005 333 21203 47029 55002 555 1/120 7000/;EQDQ01  00002PRCP06
0199306050999992000011312004+53330+101180FM-12+060099999V0201501N002019999999N0500001N1-01231-02001102351ADDAA106000091GF108991001001999999001071KA1120M-01001MA1999999094371MD1010081+9999REMSYN089AAXX  13121 30605 32999 81502 11123 21200 39437 40235 50008 80007 333 11100 555 1/117 /-;EQDQ01  00002PRCP06
0241306050999992000011400004+53330+101180FM-12+060099999V0201901N002010075019N0500001N1-01441-02151102751ADDAA199000091AJ100299199999999GF105991051091008001001011IA1239KA1120N-01641MA1999999094951MD1210141+9999REMSYN108    AAXX  14001 30605 32599 51902 11144 21215 39495 40275 52014 85901 333 21164 47029 5013/ 555 -/117 7000/;EQDQ01  00002PRCP99
0235306050999992000011412004+53330+101180FM-12+060099999V0209999C000012200019N0500001N1-01451-02281102981ADDAA199000091GF103991001001999999001011KA1120M-00841MA1999999999999MD1010141+9999REMSYN093    AAXX  14121 30605 32599 30000 11145 21228 39955 40298 50014 80001 333 11084 555 1/122 /-;EQDQ01+008002SCOLCBQ02  00002PRCP99Q03 099553APOSP 
0259306050999992000011500004+53330+101180FM-12+060099999V0202101N002012200019N0500001N1-01591-02291102981ADDAA199000091AJ100299199999999GA1001+999999999GF100991001001999999001001GJ103849IA1239KA1120N-01821MA1999999095131MD1810041+9999REMSYN102    AAXX  15001 30605 32999 02102 11159 21229 39513 40298 58004 333 21182 47029 55064 555 1/122 7000/;EQDQ01  00002PRCP99
0200306050999992000011512004+53330+101180FM-12+060099999V0202301N001012200019N0500001N1-01321-02031102391ADDAA199000091GF102991001001999999001011KA1120M-01061MA1999999094651MD1710041+9999REMSYN090    AAXX  15121 30605 32999 22301 11132 21203 39465 40239 57004 80001 333 11106 555 1/122;EQDQ01  00002PRCP99
0249306050999992000011700004+53330+101180FM-12+060099999V0203301N001012200019N0500001N1-01751-02341103121ADDAA199000091AJ100299199999999GF105991031091008001001011GJ102949IA1239KA1120N-01751MA1999999095211MD1210251+9999REMSYN108    AAXX  17001 30605 32599 53301 11175 21234 39521 40312 52025 83901 333 21175 47029 55049 555 1/124 7000/;EQDQ01  00002PRCP99
0221306050999992000011712004+53330+101180FM-12+060099999V0209999C000012200019N0500001N1+99999-02331104081ADDAA112002091AY181061AY221061GF105991031091008001001011MA1999999095971MD1210291+9999MW1021REMSYN102    AAXX  17121 30605 11599 50000 10215 21233 39597 40408 52029 60022 70282 83901 333 1//30 555 1/126;EQDQ01 +02153ATOT  
0264306050999992000011800004+53330+101180FM-12+060099999V0209999C000012200019N0500001N1-02561-02741104061ADDAA112000791AJ100309199999999AY171061AY211061GF103991001001999999001011GJ100009IA1239KA1120N-02561MA1999999095821MD1710101+9999MW1011REMSYN120    AAXX  18001 30605 11999 30000 11256 21274 39582 40406 57010 69902 70171 80001 333 21256 47030 55000 555 1/131 7002/;
0249306050999992000011900004+53330+101180FM-12+060099999V0209999C000012200019N0500001N1-02781-02961102971ADDAA199000091AJ100309199999999GF103991001001999999001011GJ102889IA1239KA1120N-02781MA1999999094751MD1310021+9999REMSYN108    AAXX  19001 30605 32999 30000 11278 21296 39475 40297 53002 80001 333 21278 47030 55048 555 1/132 7000/;EQDQ01  00002PRCP99
0203306050999992000011912004+53330+101180FM-12+060099999V0209999C000019999999N0500001N1-01731-01921102691ADDAA199000091GF108991001001999999001071KA1120M-00711MA1999999094871MD1110051+9999REMSYN093    AAXX  19121 30605 32999 80000 11173 21192 39487 40269 51005 80007 333 11071 555 1/122 /-;EQDQ01  00002PRCP99
0274306050999992000012000004+53330+101180FM-12+060099999V0201801N001010075019N0040001N1-01251-01381103161ADDAA112000592AA224000492AJ100309199999999AY181061AY221061GF108991081091008001999999GJ103609IA1239KA1120N-01951MA1999999095391MD1210271+9999MW1851REMSYN119AAXX  20001 30605 11596 81801 11125 21138 39539 40316 52027 69942 78582 889// 333 21195 47030 55060 555 1/114 7994/ /-;
0214306050999992000012012004+53330+101180FM-12+060099999V0209999C000010075019N0500001N1-01431-01561103571ADDAA112001091AY181061AY221061GF108991051091008001001011KA1120M-00751MA1999999095721MD1210121+9999MW1851REMSYN101AAXX  20121 30605 11599 80000 11143 21156 39572 40357 52012 60012 78582 85901 333 11075 555 1/118 /-;
0274306050999992000012100004+53330+101180FM-12+060099999V0209999C000010120019N0200001N1-01431-01561103571ADDAA112001091AA224002091AJ100339199999999AY171061AY221061GF108991061051012501001011GJ100189IA1239KA1120N-01441MA1999999095721MD1410001+9999MW1711REMSYN119AAXX  21001 30605 11698 80000 11143 21156 39572 40357 54000 60012 77172 86501 333 21144 47033 55003 555 1/119 7002/ /-;
0214306050999992000012112004+53330+101180FM-12+060099999V0209999C000012200019N0200001N1-01811-02001103971ADDAA112000191AY171061AY211061GF106991041051008001001011KA1120M-01141MA1999999095971MD1110121+9999MW1711REMSYN101AAXX  21121 30605 11598 60000 11181 21200 39597 40397 51012 69922 77171 84501 333 11114 555 1/125 /-;
0274306050999992000012200004+53330+101180FM-12+060099999V0209999C000012200019N0200001N1-02481-02661104561ADDAA112000191AA224000491AJ100339199999999AY171061AY221061GF108991041051008001001011GJ102829IA1239KA1120N-02481MA1999999096311MD1310101+9999MW1711REMSYN119AAXX  22001 30605 11598 80000 11248 21266 39631 40456 53010 69922 77172 84501 333 21248 47033 55047 555 1/132 7994/ /-;
0214306050999992000012212004+53330+101180FM-12+060099999V0209999C000012200019N0200001N1-02161-02281105101ADDAA112000391AY171061AY221061GF108991031051008001001011KA1120M-01641MA1999999096911MD1210271+9999MW1701REMSYN101AAXX  22121 30605 11598 80000 11216 21228 39691 40510 52027 69932 77072 83501 333 11164 555 1/128 /-;
0256306050999992000012300004+53330+101180FM-12+060099999V0209999C000012200019N0500001N1-03141-03361106021ADDAA112000791AA224999929AJ101349199999999GA1001+999999999GF100991001001999999001001GJ102289IA1239KA1120N-05181MA1999999097441MD1210091+9999REMSYN107AAXX  23001 30605 12999 00000 11314 21336 39744 40602 52009 69902 333 21518 47134 55038 555 1/141 7990/ /-;
0251306050999992000012400004+53330+101180FM-12+060099999V0201201N001010120019N0500001N1-03001-03231106011ADDAA124000091AJ100339199999999GF106991061051012501001001GJ103189IA1239MA1999999097471MD1310041+9999REMSYN107AAXX  24001 30605 32699 61201 11300 21323 39747 40601 53004 86500 333 22319 47033 55053 555 1/130 7000/ /-;EQDQ01  00002PRCP99Q02  00003PRCP99
0225306050999992000012412004+53330+101180FM-12+060099999V0201501N002012200019N0500001N1-02171-02351999999ADDAA199000091GA1001+999999999GF100991001001999999001001KA1120M-01321MA1999999097241MD1010041+9999REMSYN083AAXX  24121 30605 32999 01502 11217 21235 39724 40004 50004 333 11132 555 1/134 /-;EQDQ01  00002PRCP99Q02 100043APOSLP
0274306050999992000012500004+53330+101180FM-12+060099999V0202201N004012200019N0500001N1-01351-02291104651ADDAA124000091AJ100339199999999GA1001+999999999GF100991001001999999001001GJ104209IA1239KA1120N-02541MA1999999096741MD1710091+9999REMSYN101AAXX  25001 30605 32999 02204 11135 21229 39674 40465 57009 333 21254 47033 55070 555 1/120 7000/ /-;EQDQ01  00002PRCP99Q02  00003PRCP99
0209306050999992000012512004+53330+101180FM-12+060099999V0209999C000012200019N0500001N1-02231-02411105071ADDAA199000091GA1001+999999999GF100991001001999999001001KA1120M-00611MA1999999096571MD1810081+9999REMSYN083AAXX  25121 30605 32999 00000 11223 21241 39657 40507 58008 333 11061 555 1/132 /-;EQDQ01  00002PRCP99
0302306050999992000012600004+53330+101180FM-12+060099999V0201901N003012200019N0500001N1-01111-02361104051ADDAA124000091AJ100319199999999AY131061AY201061GA1001+999999999GF100991001001999999001001GJ104389IA1239KA1120N-02481MA1999999096251MD1710061+9999MW1361REMSYN107AAXX  26001 30605 31999 01903 11111 21236 39625 40405 57006 73630 333 21248 47031 55073 555 1/119 7000/ /-;EQDQ01  00002PRCP99Q02  00003PRCP99
0227306050999992000012612004+53330+101180FM-12+060099999V0209999C000019999999N0500001N1-01911-02241104171ADDAA199000091AY131061AY221061GF105991001001999999001011KA1120M-00541MA1999999096131MD1110121+9999MW1011REMSYN095AAXX  26121 30605 31999 50000 11191 21224 39613 40417 51012 70132 80001 333 11054 555 1/126 /-;EQDQ01  00002PRCP99
0274306050999992000012700004+53330+101180FM-12+060099999V0209999C000019999999N0100001N1-01331-01461104411ADDAA112001091AA224001091AJ100339199999999AY171061AY221061GF108991081001999999021999GJ104209IA1239KA1120N-01981MA1999999096521MD1210041+9999MW1711REMSYN119AAXX  27001 30605 11997 80000 11133 21146 39652 40441 52004 60012 77172 8802/ 333 21198 47033 55070 555 1/114 7001/ /-;
0214306050999992000012712004+53330+101180FM-12+060099999V0209999C000012200019N0100001N1-01421-01541104551ADDAA112000891AY131061AY221061GF108991041091008001001011KA1120M-00861MA1999999096631MD1310191+9999MW1851REMSYN101AAXX  27121 30605 11597 80000 11142 21154 39663 40455 53019 69972 78532 84901 333 11086 555 1/121 /-;
0246306050999992000012800004+53330+101180FM-12+060099999V0209999C000012200019N0500001N1-01281-02501105291ADDAA112001091AA224802092AJ100349199999999GF108991021091008001001011GJ102229IA1239KA1120N-02381MA1999999097011MD1210081+9999REMSYN113AAXX  28001 30605 12599 80000 11128 21250 39701 40529 52008 60012 82901 333 21238 47034 55037 555 1/133 7802/ /-;
0264306050999992000012900004+53330+101180FM-12+060099999V0202101N002012200019N0500001N1-02131-02321105391ADDAA124000091AJ100349199999999GF102991001001999999001011GJ103369IA1239KA1120N-02601MA1999999097191MD1510031+9999REMSYN107AAXX  29001 30605 32999 22102 11213 21232 39719 40539 55003 80001 333 21260 47034 55056 555 1/132 7000/ /-;EQDQ01  00002PRCP99Q02  00003PRCP99
0274306050999992000013000004+53330+101180FM-12+060099999V0201501N003012200019N0500001N1-02341-02521104931ADDAA124000091AJ100339199999999GA1001+999999999GF100991001001999999001001GJ104449IA1239KA1120N-02341MA1999999096691MD1710191+9999REMSYN101AAXX  30001 30605 32999 01503 11234 21252 39669 40493 57019 333 21234 47033 55074 555 1/129 7000/ /-;EQDQ01  00002PRCP99Q02  00003PRCP99
0209306050999992000013012004+53330+101180FM-12+060099999V0201501N001012200019N0500001N1-01711-02131104111ADDAA199000091GA1001+999999999GF100991001001999999001001KA1120M-00891MA1999999096141MD1710101+9999REMSYN083AAXX  30121 30605 32999 01501 11171 21213 39614 40411 57010 333 11089 555 1/123 /-;EQDQ01  00002PRCP99
0274306050999992000013100004+53330+101180FM-12+060099999V0201201N002012200019N0500001N1-02151-02401103411ADDAA124000091AJ100339199999999GA1001+999999999GF100991001001999999001001GJ104629IA1239KA1120N-02151MA1999999095351MD1710131+9999REMSYN101AAXX  31001 30605 32999 01202 11215 21240 39535 40341 57013 333 21215 47033 55077 555 1/127 7000/ /-;EQDQ01  00002PRCP99Q02  00003PRCP99
0209306050999992000013112004+53330+101180FM-12+060099999V0209999C000012200019N0500001N1-01811-02071102901ADDAA199000091GA1001+999999999GF100991001001999999001001KA1120M-00611MA1999999094981MD1810011+9999REMSYN083AAXX  31121 30605 32999 00000 11181 21207 39498 40290 58001 333 11061 555 1/129 /-;EQDQ01  00002PRCP99
0280306050999992000020100004+53330+101180FM-12+060099999V0202101N001012200019N0500001N1-02661-02881103241ADDAA124000091AJ100339199999999GF105991031091008001001011GJ104629IA1239KA1120N+99999MA1999999095041MD1310021+9999REMSYN107AAXX  01001 30605 32599 52101 11266 21288 39504 40324 53002 83901 333 20270 47033 55077 555 1/129 7000/ /-;EQDQ01  00002PRCP99Q02  00003PRCP99Q03 +02702ATMN  
0214306050999992000020112004+53330+101180FM-12+060099999V0209999C000010075019N0040001N1-00961-01051103141ADDAA112001091AY181061AY221061GF108991081091008001999999KA1120M-00711MA1999999095451MD1210101+9999MW1851REMSYN101AAXX  01121 30605 11596 80000 11096 21105 39545 40314 52010 60012 78582 889// 333 11071 555 1/111 /-;
0274306050999992000020200004+53330+101180FM-12+060099999V0209999C000012200019N0200001N1-01751-01871103551ADDAA112003091AA224003091AJ100399199999999AY181061AY211061GF106991031091008001001011GJ105049IA1239KA1120N-01761MA1999999095601MD1310041+9999MW1851REMSYN119AAXX  02001 30605 11598 60000 11175 21187 39560 40355 53004 60032 78581 83901 333 21176 47039 55084 555 1/126 7003/ /-;
0196306050999992000020212004+53330+101180FM-12+060099999V0209999C000012200019N0500001N1-01881-02001103191ADDAA112000791GA1001+999999999GF100991001001999999001001KA1120M-00541MA1999999095031MD1210011+9999REMSYN089AAXX  02121 30605 12999 00000 11188 21200 39503 40319 52001 69902 333 11054 555 1/131 /-;
0264306050999992000020300004+53330+101180FM-12+060099999V0202101N002012200019N0500001N1-01711-02211103071ADDAA124000091AJ100399199999999GF101991001001999999001011GJ103849IA1239KA1120N-02221MA1999999095171MD1410001+9999REMSYN107AAXX  03001 30605 32999 12102 11171 21221 39517 40307 54000 80001 333 21222 47039 55064 555 1/124 7000/ /-;EQDQ01  00002PRCP99Q02  00003PRCP99
0209306050999992000020312004+53330+101180FM-12+060099999V0209999C000012200019N0500001N1-02041-02161103101ADDAA199000091GA1001+999999999GF100991001001999999001001KA1120M-00951MA1999999095101MD1410001+9999REMSYN083AAXX  03121 30605 32999 00000 11204 21216 39510 40310 54000 333 11095 555 1/131 /-;EQDQ01  00002PRCP99
0274306050999992000020400004+53330+101180FM-12+060099999V0209999C000012200019N0500001N1-02941-03111103381ADDAA124000091AJ100389199999999GA1001+999999999GF100991001001999999001001GJ104689IA1239KA1120N-02941MA1999999095071MD1310061+9999REMSYN101AAXX  04001 30605 32999 00000 11294 21311 39507 40338 53006 333 21294 47038 55078 555 1/136 7000/ /-;EQDQ01  00002PRCP99Q02  00003PRCP99
0209306050999992000020412004+53330+101180FM-12+060099999V0209999C000012200019N0500001N1-02251-02431103401ADDAA199000091GA1001+999999999GF100991001001999999001001KA1120M-01201MA1999999095321MD1310291+9999REMSYN083AAXX  04121 30605 32999 00000 11225 21243 39532 40340 53029 333 11120 555 1/132 /-;EQDQ01  00002PRCP99
0218306050999992000020500004+53330+101180FM-12+060099999V0209999C000010003019N0500001N1-02881-03051103241ADDAA124000091GA1051+000309059GF107991999999999999999999MA1999999095431MD1310041+9999REMSYN089AAXX  05001 30605 32999 70000 11288 21305 39543 40324 53004 333 85501 555 1/131 7000/ /-;EQDQ01  00002PRCP99Q02  00003PRCP99
0214306050999992000020512004+53330+101180FM-12+060099999V0209999C000012200019N0200001N1-01991-02181103791ADDAA112000791AY181061AY211061GF103991031091008001001001KA1120M-01261MA1999999095751MD1010111+9999MW1851REMSYN101AAXX  05121 30605 21598 30000 11199 21218 39575 40379 50011 69902 78581 83900 333 11126 555 1/129 /-;
0265306050999992000020600004+53330+101180FM-12+060099999V0201801N001012200019N0500001N1-02521-02701103751ADDAA112000191AA224000291AJ100389199999999GF102991001001999999001011GJ103789IA1239KA1120N-02651MA1999999095551MD1610011+9999REMSYN113AAXX  06001 30605 12599 21801 11252 21270 39555 40375 56001 69922 80001 333 21265 47038 55063 555 1/130 7992/ /-;EQDQ01+008002SCOLCB
0209306050999992000020612004+53330+101180FM-12+060099999V0209999C000012200019N0500001N1-01471-01761102961ADDAA199000091GA1001+999999999GF100991001001999999001001KA1120M-00311MA1999999095141MD1810151+9999REMSYN083AAXX  06121 30605 32999 00000 11147 21176 39514 40296 58015 333 11031 555 1/125 /-;EQDQ01  00002PRCP99
0280306050999992000020700004+53330+101180FM-12+060099999V0209999C000010075019N0500001N1-01891-02081102661ADDAA124000091AJ100389199999999GF108991081091008001999999GJ104509IA1239KA1120N+99999MA1999999094741MD1510001+9999REMSYN107AAXX  07001 30605 32599 80000 11189 21208 39474 40266 55000 889// 333 21171 47038 55075 555 1/118 7000/ /-;EQDQ01  00002PRCP99Q02  00003PRCP99Q03 -01712ATMN  
0274306050999992000020800004+53330+101180FM-12+060099999V0209999C000010075019N0100001N1-00991-01121102871ADDAA112002091AA224002091AJ100409199999999AY181061AY221061GF108991081091008001999999GJ101749IA1239KA1120N-01121MA1999999095201MD1710111+9999MW1851REMSYN119AAXX  08001 30605 11597 80000 11099 21112 39520 40287 57011 60022 78582 889// 333 21112 47040 55029 555 1/110 7002/ /-;
0193306050999992000020812004+53330+101180FM-12+060099999V0209999C000012200019N0500001N1-01311-01441102631ADDAA112000791GA1001+999999999GF100991001001999999001001KA1120M-00081MA1999999094881MD1310111+9999REMSYN086AAXX  08121 30605 12999 00000 11131 21144 39488 40263 53011 69902 333 11008 555 1/125;
0274306050999992000020900004+53330+101180FM-12+060099999V0201701N001010075019N0040001N1-01291-01421102561ADDAA112000191AA224000291AJ100409199999999AY181061AY221061GF108991081091008001999999GJ104389IA1239KA1120N-01541MA1999999094821MD1610021+9999MW1851REMSYN119AAXX  09001 30605 11596 81701 11129 21142 39482 40256 56002 69922 78582 889// 333 21154 47040 55073 555 1/113 7992/ /-;
0187306050999992000020912004+53330+101180FM-12+060099999V0209999C000012200019N0500001N1-01511-01641102241ADDAA199000021GA1001+999999999GF100991001001999999001001KA1120M-00611MA1999999094461MD1710011+9999REMSYN080AAXX  09121 30605 32999 00000 11151 21164 39446 40224 57001 333 11061 555 1/125;
0259306050999992000021000004+53330+101180FM-12+060099999V0209999C000019999999N0500001N1-02291-02411102171ADDAA124000291AA299000091AJ100409199999999GF105991001001999999001011GJ102889IA1239KA1120N-02391MA1999999094171MD1710111+9999REMSYN107AAXX  10001 30605 32999 50000 11229 21241 39417 40217 57011 80001 333 21239 47040 55048 555 1/124 7992/ /-;EQDQ01  00002PRCP99
0194306050999992000021012004+53330+101180FM-12+060099999V0209999C000010075019N0500001N1-01171-01441999999ADDAA199000091GF108991081091008001999999KA1120M-00101MD1219999+9999REMSYN083AAXX  10121 30605 32599 80000 11117 21144 40494 520/4 889// 333 11010 555 1/112 /-;EQDQ01  00002PRCP99Q02 104943APOSLP
0274306050999992000021100004+53330+101180FM-12+060099999V0203501N002019999999N0100001N1-01071-01201102821ADDAA112001091AA224001091AJ100409199999999AY171061AY221061GF108991081001999999021999GJ100009IA1239KA1120N-01231MA1999999095131MD1210151+9999MW1711REMSYN119AAXX  11001 30605 11997 83502 11107 21120 39513 40282 52015 60012 77172 8802/ 333 21123 47040 55000 555 1/112 7001/ /-;
0274306050999992000021200004+53330+101180FM-12+060099999V0209999C000012200019N0200001N1-01731-01851103731ADDAA112000591AA224000791AJ100409199999999AY181061AY221061GF108991031091008001001011GJ101089IA1239KA1120N-01741MA1999999095771MD1110041+9999MW1851REMSYN119AAXX  12001 30605 11598 80000 11173 21185 39577 40373 51004 69942 78582 83901 333 21174 47040 55018 555 1/120 7997/ /-;
0214306050999992000021212004+53330+101180FM-12+060099999V0203001N001012200019N0200001N1-01491-01621103851ADDAA112000391AY181061AY221061GF108991031091008001001011KA1120M-00951MA1999999095951MD1210121+9999MW1851REMSYN101AAXX  12121 30605 11598 83001 11149 21162 39595 40385 52012 69932 78582 83901 333 11095 555 1/121 /-;
0209306050999992000021312004+53330+101180FM-12+060099999V0209999C000012200019N0500001N1-02071-02261103981ADDAA199000091GA1001+999999999GF100991001001999999001001KA1120M-00901MA1999999095901MD1310121+9999REMSYN083AAXX  13121 30605 32999 00000 11207 21226 39590 40398 53012 333 11090 555 1/133 /-;EQDQ01  00002PRCP99
0190306050999992000021412004+53330+101180FM-12+060099999V0209999C000012200019N0500001N1-01911-02241103331ADDAA199000091GA1001+999999999GF100991001001999999001001MA1999999095351MD1010031+9999REMSYN077AAXX  14121 30605 32999 00000 11191 21224 39535 40333 50003 333 555 1/131 /-;EQDQ01  00002PRCP99
0199306050999992000021512004+53330+101180FM-12+060099999V0209999C000019999999N0500001N1-01591-02101102541ADDAA199000091GF106991001001999999001011KA1120M-00461MA1999999094721MD1010001+9999REMSYN089AAXX  15121 30605 32999 60000 11159 21210 39472 40254 50000 80001 333 11046 555 1/126 /-;EQDQ01  00002PRCP99
0274306050999992000021600004+53330+101180FM-12+060099999V0209999C000012200019N0500001N1-02631-02841102531ADDAA124000091AJ100389199999999GA1001+999999999GF100991001001999999001001GJ104929IA1239KA1120N-02631MA1999999094391MD1510011+9999REMSYN101AAXX  16001 30605 32999 00000 11263 21284 39439 40253 55001 333 21263 47038 55082 555 1/131 7000/ /-;EQDQ01  00002PRCP99Q02  00003PRCP99
0199306050999992000021612004+53330+101180FM-12+060099999V0209999C000019999999N0500001N1-01411+99999102001ADDAA199000091GF108991999001999999001031KA1120M-00511MA1999999094271MD1010081+9999REMSYN089AAXX  16121 30605 32999 80000 11141 212/8 39427 40200 50008 8/003 333 11051 555 1/122 /-;EQDQ01  00002PRCP99
0252306050999992000021700004+53330+101180FM-12+060099999V0200301N001010075019N0010001N1-00611-00701102531ADDAA112003091AA224003091AJ100449199999999GF108991081091008001999999GJ104629IA1239KA1120N-01771MA1999999094991MD1310361+9999REMSYN119AAXX  17001 30605 1/594 80301 11061 21070 39499 40253 53036 60032 78582 889// 333 21177 47044 55077 555 1/107 7003/ /-;
0214306050999992000021712004+53330+101180FM-12+060099999V0209999C000012200019N0200001N1-00891-01001103121ADDAA112003091AY181061AY221061GF106991021091008001001011KA1120M-00511MA1999999095451MD1210181+9999MW1851REMSYN101AAXX  17121 30605 11598 60000 11089 21100 39545 40312 52018 60032 78582 82901 333 11051 555 1/117 /-;
0246306050999992000021800004+53330+101180FM-12+060099999V0201701N002012200019N0500001N1-01451-01721103341ADDAA112000791AA224003091AJ100499199999999GF102991001001999999001011GJ100009IA1239KA1120N-01621MA1999999095501MD1610031+9999REMSYN113AAXX  18001 30605 12999 21702 11145 21172 39550 40334 56003 69902 80001 333 21162 47049 55000 555 1/125 7003/ /-;
0199306050999992000021812004+53330+101180FM-12+060099999V0209999C000019999999N0500001N1-01441-01571103061ADDAA199000091GF108991001001999999001011KA1120M-00511MA1999999095241MD1010061+9999REMSYN089AAXX  18121 30605 32999 80000 11144 21157 39524 40306 50006 80001 333 11051 555 1/124 /-;EQDQ01  00002PRCP99
0264306050999992000021900004+53330+101180FM-12+060099999V0202901N002012200019N0500001N1-01391-01821102951ADDAA124000091AJ100489199999999GF103991021091008001001011GJ103549IA1239KA1120N-01421MA1999999095151MD1710021+9999REMSYN107AAXX  19001 30605 32599 32902 11139 21182 39515 40295 57002 82901 333 21142 47048 55059 555 1/120 7000/ /-;EQDQ01  00002PRCP99Q02  00003PRCP99
0196306050999992000021912004+53330+101180FM-12+060099999V0209999C000012200019N0500001N1-01271-01471102541ADDAA199000091GF105991021091008001001011KA1120M-00361MA1999999094811MD1510011+9999REMSYN086AAXX  19121 30605 32599 50000 11127 21147 39481 40254 55001 82901 333 11036 555 1/124;EQDQ01  00002PRCP99
0240306050999992000022000004+53330+101180FM-12+060099999V02099999999999999999N0500001N1-01671-01931999999ADDAA199000091AJ100489199999999GF105991001001999999001031GJ104509IA1239KA1120N-02081MA1999999094891MD1210081+9999REMSYN099AAXX  20001 30605 32999 501// 11167 21193 39489 52008 80003 333 21208 47048 55075 555 1/1240 00//-;EQDQ01  00002PRCP99
0293306050999992000022012004+53330+101180FM-12+060099999V0209999C000012200019N0500001N1-02611-02841102521ADDAA124000091AJ100389199999999GA1001+999999999GF100991001001999999001001GJ104929IA1239KA1120M-02061KA2120N-02631MA1999999094291MD1310011+9999REMSYN107AAXX  20121 30605 32999 00000 11261 21284 39429 40252 53001 333 11206 21263 47038 55082 555 1/121 7000/ /-;EQDQ01  00002PRCP99Q02  00003PRCP99
0246306050999992000022100004+53330+101180FM-12+060099999V0209999C000012200019N0200001N1-01951-02071103481ADDAA112002091AA224002091AJ100509199999999GF108991031091008001001011GJ104689IA1239KA1120N-01951MA1999999095481MD1310141+9999REMSYN113AAXX  21001 30605 12598 80000 11195 21207 39548 40348 53014 60022 83901 333 21195 47050 55078 555 1/128 7002/ /-;
0274306050999992000022200004+53330+101180FM-12+060099999V0201301N001019999999N0500001N1-01571-01841103721ADDAA112000792AA224000392AJ100509199999999AY171061AY211061GF108991001001999999001031GJ101869IA1239KA1120N-02191MA1999999095811MD1710101+9999MW1261REMSYN119AAXX  22001 30605 11999 81301 11157 21184 39581 40372 57010 69902 72671 80003 333 21219 47050 55031 555 1/120 7993/ /-;
0214306050999992000022212004+53330+101180FM-12+060099999V0202701N001012200019N0500001N1-01151-01211103291ADDAA112000391AY181061AY221061GF106991031091008001001011KA1120M-00921MA1999999095541MD1310231+9999MW1751REMSYN101AAXX  22121 30605 11599 62701 11115 21121 39554 40329 53023 69932 77582 83901 333 11092 555 1/122 /-;
0214306050999992000022312004+53330+101180FM-12+060099999V0202501N002010075019N0500001N1-00111-01371102381ADDAA112000791AY181061AY221061GF108991081091008001999999KA1120M-00081MA1999999094971MD1610141+9999MW1021REMSYN101AAXX  23121 30605 11599 82502 11011 21137 39497 40238 56014 69902 70282 889// 333 11008 555 1/106 /-;
0264306050999992000022400004+53330+101180FM-12+060099999V0201401N001010075019N0500001N1-00691-01421102531ADDAA124000091AJ100459199999999GF108991061091008001001011GJ100009IA1239KA1120N-00771MA1999999094961MD1310051+9999REMSYN107AAXX  24001 30605 32599 81401 11069 21142 39496 40253 53005 86901 333 21077 47045 55000 555 1/114 7000/ /-;EQDQ01  00002PRCP99Q02  00003PRCP99
0214306050999992000022412004+53330+101180FM-12+060099999V0202301N002010075019N0020001N1-00631-00751102471ADDAA112000591AY181061AY221061GF108991081091008001999999KA1120M-00171MA1999999095211MD1210191+9999MW1851REMSYN101AAXX  24121 30605 11595 82302 11063 21075 39521 40247 52019 69962 78582 889// 333 11017 555 1/107 /-;
0237306050999992000022500004+53330+101180FM-12+060099999V0209999C000019999999N0020001N1-00791-00851102871ADDAA112008991AJ100639199999999AY181061AY221061GJ100009IA1239KA1120N-00781MA1999999095251MD1710011+9999MW1851REMSYN119AAXX  25001 30605 11595 /0000 11079 21085 39525 40287 57001 60092 78582 889// 333 21078 47063 55000 555 1/109 7) 10//-;
0186306050999992000022512004+53330+101180FM-12+060099999V0209999C000010075019N0500001N1-00721-00811102461ADDAA112000391GF108991061091008001001011KA1120M-00171MA1999999094291MD1019999+9999REMSYN095AAXX  25121 30605 12599 80000 11072 21081 39429 40246 50/01 69932 86901 333 11017 555 1/111 /-;
0274306050999992000022600004+53330+101180FM-12+060099999V0209999C000010075019N0500001N1-00831+99999102511ADDAA112000591AA224000791AJ100509199999999AY181061AY221061GF108991071091008001001011GJ100549IA1239KA1120N-00841MA1999999094911MD1810041+9999MW1021REMSYN119AAXX  26001 30605 11599 80000 11083 20089 39491 40251 58004 69942 70282 87901 333 21084 47050 55009 555 1/111 7997/ /-;
0264306050999992000022700004+53330+101180FM-12+060099999V0202201N002012200019N0500001N1-00591-01491102061ADDAA124000091AJ100509199999999GF102991001001999999001011GJ104389IA1239KA1120N-01271MA1999999094551MD1110031+9999REMSYN107AAXX  27001 30605 32999 22202 11059 21149 39455 40206 51003 80001 333 21127 47050 55073 555 1/112 7000/ /-;EQDQ01  00002PRCP99Q02  00003PRCP99
0264306050999992000022800004+53330+101180FM-12+060099999V0201601N002010075019N0500001N1-00231-01311101671ADDAA124000091AJ100509199999999GF108991061091008001001011GJ104809IA1239KA1120N-00611MA1999999094291MD1710051+9999REMSYN107AAXX  28001 30605 32599 81602 11023 21131 39429 40167 57005 86901 333 21061 47050 55080 555 1/110 7000/ /-;EQDQ01  00002PRCP99Q02  00003PRCP99
0199306050999992000022812004+53330+101180FM-12+060099999V0209999C000012200019N0500001N1-00611-01011101631ADDAA199000091GF103991001001999999001011KA1120M+00691MA1999999094181MD1110101+9999REMSYN089AAXX  28121 30605 32999 30000 11061 21101 39418 40163 51010 80001 333 10069 555 1/117 /-;EQDQ01  00002PRCP99
0264306050999992000022900004+53330+101180FM-12+060099999V0209999C000012200019N0500001N1-00691-01481102711ADDAA124000091AJ100489199999999GF102991001001999999001011GJ103309IA1239KA1120N-00721MA1999999095131MD1210371+9999REMSYN107AAXX  29001 30605 32999 20000 11069 21148 39513 40271 52037 80001 333 21072 47048 55055 555 1/118 7000/ /-;EQDQ01  00002PRCP99Q02  00003PRCP99
0199306050999992000022912004+53330+101180FM-12+060099999V0201001N003012200019N0500001N1-00511-01411102111ADDAA199000091GF108991021051008001001011KA1120M-00021MA1999999094621MD1810141+9999REMSYN089AAXX  29121 30605 32599 81003 11051 21141 39462 40211 58014 82501 333 11002 555 1/111 /-;EQDQ01  00002PRCP99
0214306050999992000030112004+53330+101180FM-12+060099999V0203301N001010075019N0200001N1-00571-00751101651ADDAA112000791AY181061AY221061GF108991081091008001999999KA1120M+00001MA1999999094181MD1210091+9999MW1261REMSYN101AAXX  01121 30605 11598 83301 11057 21075 39418 40165 52009 69902 72682 889// 333 10000 555 1/107 /-;
0229306050999992000030200004+53330+101180FM-12+060099999V0200901N001010075019N0500001N1-01131-01331101311ADDAA124000021AJ100459199999999GF108991081091008001999999GJ102169IA1239KA1120N-01531MA1999999093711MD1710101+9999REMSYN107AAXX  02001 30605 32599 80901 11113 21133 39371 40131 57010 889// 333 21153 47045 55036 555 1/114 7990/ /-;
0199306050999992000030212004+53330+101180FM-12+060099999V0203401N002010075019N0500001N1-00111-01571101331ADDAA199000091GF106991061091008001001001KA1120M+00091MA1999999094031MD1210181+9999REMSYN089AAXX  02121 30605 32599 63402 11011 21157 39403 40133 52018 86900 333 10009 555 1/108 /-;EQDQ01  00002PRCP99
0246306050999992000030300004+53330+101180FM-12+060099999V0209999C000012200019N0500001N1-01851-01971103362ADDAA112001091AA224001091AJ100459199999999GF105991021091008001001011GJ102589IA1239KA1120N-01861MA1999999095401MD1110201+9999REMSYN113AAXX  03001 30605 11599 50000 11185 21197 39540 40336 51020 60012 82901 333 21186 47045 55043 555 1/124 7001/ /-;
0199306050999992000030312004+53330+101180FM-12+060099999V0203201N001010075019N0500001N1-00741-01501102271ADDAA199000091GF108991061091008001001011KA1120M-00091MA1999999094711MD1610031+9999REMSYN089AAXX  03121 30605 32599 83201 11074 21150 39471 40227 56003 86901 333 11009 555 1/111 /-;EQDQ01  00002PRCP99
0264306050999992000030400004+53330+101180FM-12+060099999V0203301N001010075019N0500001N1-00471-01531101401ADDAA124000091AJ100449199999999GF108991081091008001999999GJ101089IA1239KA1120N-00741MA1999999093971MD1610041+9999REMSYN107AAXX  04001 30605 32599 83301 11047 21153 39397 40140 56004 889// 333 21074 47044 55018 555 1/109 7000/ /-;EQDQ01  00002PRCP99Q02  00003PRCP99
0214306050999992000030412004+53330+101180FM-12+060099999V0203501N002010075019N0020001N1-01071-01201103041ADDAA112016091AY181061AY221061GF108991081091008001999999KA1120M+00031MA1999999095331MD1210051+9999MW1851REMSYN101AAXX  04121 30605 11595 83502 11107 21120 39533 40304 52005 60162 78582 889// 333 10003 555 1/108 /-;
0274306050999992000030500004+53330+101180FM-12+060099999V0209999C000010075019N0500001N1-01911-02031103711ADDAA112000191AA224002091AJ100479199999999AY181061AY221061GF108991051091008001001011GJ100009IA1239KA1120N-01891MA1999999095701MD1710041+9999MW1021REMSYN119AAXX  05001 30605 12599 80000 11191 21203 39570 40371 57004 69912 70282 85901 333 21189 47047 55000 555 1/119 7002/ /-;
0186306050999992000030512004+53330+101180FM-12+060099999V0201201N001010075019N0500001N1-01151-01591102471ADDAA112000191GF108991081091008001999999KA1120M-00761MA1999999094791MD1510221+9999REMSYN095AAXX  05121 30605 12599 81201 11115 21159 39479 40247 55022 69922 889// 333 11076 555 1/112 /-;
0274306050999992000030600004+53330+101180FM-12+060099999V0203601N002010075019N0040001N1-00891-01041103631ADDAA112003091AA224004091AJ100509199999999AY181061AY221061GF108991051091008001001011GJ101089IA1239KA1120N-01251MA1999999095931MD1210231+9999MW1851REMSYN119AAXX  06001 30605 11596 83602 11089 21104 39593 40363 52023 60032 78582 85901 333 21125 47050 55018 555 1/112 7004/ /-;
0190306050999992000030612004+53330+101180FM-12+060099999V0209999C000012200019N0500001N1+99999+99999103801ADDAA112000791GA1001+999999999GF100991001001999999001001KA1120M-00271MA1999999096071MD1310071+9999REMSYN083AAXX  06121 30605 12999 00000 21107 39607 40380 53007 69902 333 11027 555 1/122 /-;
0264306050999992000030700004+53330+101180FM-12+060099999V0202101N002012200019N0500001N1-01191-01461103651ADDAA124000091AJ100509199999999GF102991001001999999001011GJ103669IA1239KA1120N-01941MA1999999095861MD1710091+9999REMSYN107AAXX  07001 30605 32999 22102 11119 21146 39586 40365 57009 80001 333 21194 47050 55061 555 1/119 7000/ /-;EQDQ01  00002PRCP99Q02  00003PRCP99
0274306050999992000030800004+53330+101180FM-12+060099999V0202201N002012200019N0500001N1-01051-01451102701ADDAA124000091AJ100479199999999GA1001+999999999GF100991001001999999001001GJ105469IA1239KA1120N-01901MA1999999095561MD1710011+9999REMSYN101AAXX  08001 30605 32999 02202 11105 21145 39556 40270 57001 333 21190 47047 55091 555 1/124 7000/ /-;EQDQ01  00002PRCP99Q02  00003PRCP99
0264306050999992000030900004+53330+101180FM-12+060099999V0202301N002019999999N0500001N1-00781-01531103071ADDAA124000091AJ100489199999999GF106991001001999999001011GJ105889IA1239KA1120N-01701MA1999999095451MD1410001+9999REMSYN107AAXX  09001 30605 32999 62302 11078 21153 39545 40307 54000 80001 333 21170 47048 55098 555 1/114 7000/ /-;EQDQ01  00002PRCP99Q02  00003PRCP99
0209306050999992000030912004+53330+101180FM-12+060099999V0209999C000012200019N0500001N1-00451-01061102851ADDAA199000091GA1001+999999999GF100991001001999999001001KA1120M+00461MA1999999095331MD1310031+9999REMSYN083AAXX  09121 30605 32999 00000 11045 21106 39533 40285 53003 333 10046 555 1/116 0-;EQDQ01  00002PRCP99
0264306050999992000031000004+53330+101180FM-12+060099999V0202001N002019999999N0500001N1-00591-01431102571ADDAA124000091AJ100479199999999GF105991001001999999001011GJ105589IA1239KA1120N-01261MA1999999095031MD1610031+9999REMSYN107AAXX  10001 30605 32999 52002 11059 21143 39503 40257 56003 80001 333 21126 47047 55093 555 1/115 7000/ /-;EQDQ01  00002PRCP99Q02  00003PRCP99
0199306050999992000031012004+53330+101180FM-12+060099999V0209999C000012200019N0500001N1-00511-01051102151ADDAA199000091GF106991021051008001001011KA1120M+00311MA1999999094911MD1210051+9999REMSYN089AAXX  10121 30605 32599 60000 11051 21105 39491 40215 52005 82501 333 10031 555 1/117 /-;EQDQ01  00002PRCP99
0264306050999992000031100004+53330+101180FM-12+060099999V0202301N002019999999N0500001N1-00571-01241102601ADDAA124000091AJ100479199999999GF108991001001999999001011GJ105529IA1239KA1120N-01371MA1999999095061MD1210011+9999REMSYN107AAXX  11001 30605 32999 82302 11057 21124 39506 40260 52001 80001 333 21137 47047 55092 555 1/112 7000/ /-;EQDQ01  00002PRCP99Q02  00003PRCP99
0199306050999992000031112004+53330+101180FM-12+060099999V0209999C000012200019N0500001N1-00431-01171102621ADDAA199000091GF103991001001999999001011KA1120M+00381MA1999999095121MD1310111+9999REMSYN089AAXX  11121 30605 32999 30000 11043 21117 39512 40262 53011 80001 333 10038 555 1/115 /-;EQDQ01  00002PRCP99
0264306050999992000031200004+53330+101180FM-12+060099999V0201901N002012200019N0500001N1-00671-01181102791ADDAA124000091AJ100459199999999GF102991001001999999001011GJ105229IA1239KA1120N-00761MA1999999095211MD1310051+9999REMSYN107AAXX  12001 30605 32999 21902 11067 21118 39521 40279 53005 80001 333 21076 47045 55087 555 1/114 7000/ /-;EQDQ01  00002PRCP99Q02  00003PRCP99
0199306050999992000031212004+53330+101180FM-12+060099999V0209999C000012200019N0500001N1-00431-01031102721ADDAA199000091GF101991001001999999001011KA1120M+00431MA1999999095211MD1310111+9999REMSYN089AAXX  12121 30605 32999 10000 11043 21103 39521 40272 53011 80001 333 10043 555 1/114 /-;EQDQ01  00002PRCP99
0264306050999992000031300004+53330+101180FM-12+060099999V0202101N002012200019N0500001N1-00211-01141102941ADDAA124000091AJ100559199999999GF101991001001999999001011GJ105709IA1239KA1120N-00821MA1999999095261MD1110041+9999REMSYN107AAXX  13001 30605 32999 12102 11021 21114 39526 40294 51004 80001 333 21082 47055 55095 555 1/114 7000/ /-;EQDQ01  00002PRCP99Q02  00003PRCP99
0199306050999992000031312004+53330+101180FM-12+060099999V0209999C000012200019N0500001N1-00391-00931102621ADDAA199000091GF102991011051008001001011KA1120M+00501MA1999999095131MD1310061+9999REMSYN089AAXX  13121 30605 32599 20000 11039 21093 39513 40262 53006 81501 333 10050 555 1/112 /-;EQDQ01  00002PRCP99
0264306050999992000031400004+53330+101180FM-12+060099999V0202001N002012200019N0500001N1-00351-01161102411ADDAA124000091AJ100439199999999GF102991001001999999001011GJ105709IA1239KA1120N-00851MA1999999094921MD1610031+9999REMSYN107AAXX  14001 30605 32999 22002 11035 21116 39492 40241 56003 80001 333 21085 47043 55095 555 1/109 7000/ /-;EQDQ01  00002PRCP99Q02  00003PRCP99
0199306050999992000031412004+53330+101180FM-12+060099999V0202601N001019999999N0500001N1-00291-01051103031ADDAA199000091GF105991001001999999001011KA1120M+00431MA1999999094611MD1310021+9999REMSYN089AAXX  14121 30605 32999 52601 11029 21105 39461 40303 53002 80001 333 10043 555 1/113 /-;EQDQ01  00002PRCP99
0264306050999992000031500004+53330+101180FM-12+060099999V0202001N002012200019N0500001N1-00331-01391101781ADDAA124000091AJ100439199999999GF108991031051008001001011GJ105589IA1239KA1120N-00871MA1999999094361MD1610031+9999REMSYN107AAXX  15001 30605 32599 82002 11033 21139 39436 40178 56003 83501 333 21087 47043 55093 555 1/112 7000/ /-;EQDQ01  00002PRCP99Q02  00003PRCP99
0231306050999992000031512004+53330+101180FM-12+060099999V0203201N999990075019N0500001N1+00121-00141101551ADDAA199000091GF108991071091008001001011KA1120M+00721MA1999999094281MD1310121+9999REMSYN089AAXX  15121 30605 32599 83281 10012 21014 39428 40155 53012 87901 333 10072 555 1/101 /-;EQDQ01+008103WOSPD Q02  00002PRCP99Q030008103WOSPD 
0264306050999992000031600004+53330+101180FM-12+060099999V0209999C000010075019N0500001N1-00331-00421101371ADDAA124000091AJ100439199999999GF108991061091008001001011GJ103189IA1239KA1120N-00331MA1999999093991MD1710081+9999REMSYN107AAXX  16001 30605 32599 80000 11033 21042 39399 40137 57008 86901 333 21033 47043 55053 555 1/107 7000/ /-;EQDQ01  00002PRCP99Q02  00003PRCP99
0214306050999992000031612004+53330+101180FM-12+060099999V0202001N001010075019N0040001N1-00011-00011100851ADDAA112000591AY181061AY221061GF108991081091008001999999KA1120M+00481MA1999999093601MD1410001+9999MW1851REMSYN101AAXX  16121 30605 11596 82001 11001 21001 39360 40085 54000 69962 78582 889// 333 10048 555 1/101 /-;
0274306050999992000031700004+53330+101180FM-12+060099999V0203401N001010075019N0500001N1-00471-00781102651ADDAA112008991AA224010091AJ100489199999999AY181061AY221061GF108991081091008001999999GJ102109IA1239KA1120N-00511MA1999999094601MD1210331+9999MW1851REMSYN119AAXX  17001 30605 11599 83401 11047 21078 39460 40265 52033 60092 78582 889// 333 21051 47048 55035 555 1/107 7010/ /-;
0205306050999992000031712004+53330+101180FM-12+060099999V0209999C000012200019N0500001N1-00671-00911102321ADDAA112000791GF101991001001999999001011KA1120M-00071MA1999999094781MD1710041+9999REMSYN095AAXX  17121 30605 12599 10000 11067 21091 39478 40232 57004 69902 80001 333 11007 555 1/120 /-;EQDQ01+008002SCOLCB
0229306050999992000031800004+53330+101180FM-12+060099999V0202201N003012200019N0500001N1-00611-01301102031ADDAA124000021AJ100519199999999GF108991021051012501001011GJ102589IA1239KA1120N-01351MA1999999094521MD1710101+9999REMSYN107AAXX  18001 30605 32699 82203 11061 21130 39452 40203 57010 82501 333 21135 47051 55043 555 1/112 7990/ /-;
0199306050999992000031812004+53330+101180FM-12+060099999V0203601N001010120019N0500001N1-00211+99999100571ADDAA199000091GF108991051051012501001011KA1120M+00371MA1999999094201MD1310111+9999REMSYN089AAXX  18121 30605 32699 83601 11021 20102 39420 40057 53011 85501 333 10037 555 1/111 /-;EQDQ01  00002PRCP99
0293306050999992000031900004+53330+101180FM-12+060099999V0202001N001010075019N0020001N1+00551-00771102191ADDAA112000792AA224999999AJ100509199999999AY181061AY221061GF108991081091008001999999GJ102169IA1239KA1120N-01011MA1999999094661MD1310191+9999MW1861REMSYN119AAXX  19001 30605 11595 82001 10055 21077 39466 40219 53019 69902 78682 889// 333 21101 47050 55036 555 1/108 7000/ /-;EQDQ01  00002PRCP24
0186306050999992000031912004+53330+101180FM-12+060099999V0209999C000012200019N0500001N1-00431-01171102351ADDAA112000391GF103991021091008001001011KA1120M+00101MA1999999094871MD1310061+9999REMSYN095AAXX  19121 30605 12599 30000 11043 21117 39487 40235 53006 69932 82901 333 10010 555 1/116 /-;
0264306050999992000032000004+53330+101180FM-12+060099999V0202201N002019999999N0500001N1-01001-01361102741ADDAA124000091AJ100489199999999GF105991001001999999001011GJ102769IA1239KA1120N-01091MA1999999095071MD1210041+9999REMSYN107AAXX  20001 30605 32999 52202 11100 21136 39507 40274 52004 80001 333 21109 47048 55046 555 1/115 7000/ /-;EQDQ01  00002PRCP99Q02  00003PRCP99
0274306050999992000032100004+53330+101180FM-12+060099999V0203301N001010075019N0005001N1-00651-00771102371ADDAA112003091AA224003091AJ100509199999999AY181061AY221061GF108991081091008001999999GJ103489IA1239KA1120M-00651MA1999999094911MD1110101+9999MW1861REMSYN119AAXX  21001 30605 11593 83301 11065 21077 39491 40237 51010 60032 78682 889// 333 11065 47050 55058 555 1/107 7003/ /-;
0214306050999992000032112004+53330+101180FM-12+060099999V0203301N001010075019N0200001N1-00651-00971102881ADDAA112003091AY181061AY231061GF108991061091008001001011KA1120M-00461MA1999999095301MD1210181+9999MW1261REMSYN101AAXX  21121 30605 11598 83301 11065 21097 39530 40288 52018 60032 72683 86901 333 11046 555 1/109 /-;
0240306050999992000032200004+53330+101180FM-12+060099999V0202001N001019999999N0500001N1-01541-01641103161ADDAA124003091AA299000021AJ100519199999999GF106991001001999999001011GJ100009IA1239KA1120N-01841MA1999999095321MD1410001+9999REMSYN107AAXX  22001 30605 32999 62001 11154 21164 39532 40316 54000 80001 333 21184 47051 55000 555 1/123 7003/ /-;
0196306050999992000032212004+53330+101180FM-12+060099999V0209999C000010075019N0500001N1-00591-01161102391ADDAA199000091GF108991061091008001001011KA1120M-00231MA1999999094861MD1710031+9999REMSYN086AAXX  22121 30605 32599 80000 11059 21116 39486 40239 57003 86901 333 11023 555 1/114;EQDQ01  00002PRCP99
0264306050999992000032300004+53330+101180FM-12+060099999V0209999C000010075019N0500001N1-00931-01141102641ADDAA124000091AJ100489199999999GF108991081091008001999999GJ102709IA1239KA1120N-01111MA1999999095001MD1310051+9999REMSYN107AAXX  23001 30605 32599 80000 11093 21114 39500 40264 53005 889// 333 21111 47048 55045 555 1/111 7000/ /-;EQDQ01  00002PRCP99Q02  00003PRCP99
0199306050999992000032412004+53330+101180FM-12+060099999V0209999C000010075019N0500001N1+00131-00501102001ADDAA199000091GF108991061091008001001011KA1120M+01131MA1999999094701MD1710011+9999REMSYN089AAXX  24121 30605 32599 80000 10013 21050 39470 40200 57001 86901 333 10113 555 1/101 /-;EQDQ01  00002PRCP99
0264306050999992000032500004+53330+101180FM-12+060099999V0202101N003010075019N0500001N1+00671-00921101221ADDAA124000091AJ100479199999999GF108991051051008001001011GJ100369IA1239KA1120N-00331MA1999999094111MD1710101+9999REMSYN107AAXX  25001 30605 32599 82103 10067 21092 39411 40122 57010 85501 333 21033 47047 55006 555 1/101 7000/ /-;EQDQ01  00002PRCP99Q02  00003PRCP99
0199306050999992000032512004+53330+101180FM-12+060099999V0202401N002010075019N0500001N1+01121-00711100451ADDAA199000091GF108991081091008001999999KA1120M+01491MA1999999093501MD1310081+9999REMSYN089AAXX  25121 30605 32599 82402 10112 21071 39350 40045 53008 889// 333 10149 555 1/001 /-;EQDQ01  00002PRCP99
0274306050999992000032600004+53330+101180FM-12+060099999V0209999C000010012019N0500001N1+00011-00121101851ADDAA112001091AA224001091AJ100379199999999AY181061AY221061GF108991081091001501999999GJ104569IA1239KA1120N+00011MA1999999094501MD1210281+9999MW1851REMSYN119AAXX  26001 30605 11299 80000 10001 21012 39450 40185 52028 60012 78582 889// 333 20001 47037 55076 555 1/103 7001/ /-;
0245306050999992000032700004+53330+101180FM-12+060099999V0209999C000010075019N0500001N1-00921-01031102551ADDAA199000091AJ100379199999999GF108991061051008001001011GJ100849IA1279KA1120N-00991MA1999999094921MD1810131+9999REMSYN104AAXX  27001 30605 32599 80000 11092 21103 39492 40255 58013 86501 333 21099 43037 55014 555 1/113 7990/;EQDQ01  00002PRCP99
0199306050999992000032712004+53330+101180FM-12+060099999V0201101N001010075019N0500001N1+00211-00631101621ADDAA199000091GF108991051051008001001011KA1120M+00551MA1999999094361MD1010031+9999REMSYN089AAXX  27121 30605 32599 81101 10021 21063 39436 40162 50003 85501 333 10055 555 1/101 /-;EQDQ01  00002PRCP99
0245306050999992000032800004+53330+101180FM-12+060099999V0202901N003010075019N0500001N1+00511-00241102441ADDAA199000091AJ100369199999999GF108991071091008001001011GJ100849IA1279KA1120N-00031MA1999999093901MD1510031+9999REMSYN104AAXX  28001 30605 32599 82903 10051 21024 39390 40244 55003 87901 333 21003 43036 55014 555 1/001 7000/;EQDQ01  00002PRCP99
0211306050999992000032812004+53330+101180FM-12+060099999V0203401N001010075019N0500001N1-00011-00161102031ADDAA112003091AY181061AY221061GF106991051091008001001011KA1120M+00621MA1999999094691MD1310151+9999MW1021REMSYN098AAXX  28121 30605 12599 63401 11001 21016 39469 40203 53015 60032 70282 85901 333 10062 555 1/102;
0259306050999992000032900004+53330+101180FM-12+060099999V0202101N001012200019N0500001N1-00751-01291102781ADDAA124003091AA299000091AJ100769199999999GF101991001001999999001011GJ100369IA1309KA1120N-01001MA1999999095181MD1410001+9999REMSYN107AAXX  29001 30605 32999 12101 11075 21129 39518 40278 54000 80001 333 21100 42076 55006 555 1/115 7003/ /-;EQDQ01  00002PRCP99
0164306050999992000032912004+53330+101180FM-12+060099999V0203501N001010075019N0500001N1+00121-01001101871ADDAA124000391GF108991061091008001001011MA1999999094511MD1310101+9999REMSYN086AAXX  29121 30605 32599 83501 10012 21100 39451 40187 53010 86901 333 70054 555 19103;
0260306050999992000033000004+53330+101180FM-12+060099999V0203201N002010075019N0005001N1-00471-00571999999ADDAA112004191AJ100429199999999AY181061AY221061GF108991081091008001999999GJ102769IA1239KA1120N-00571MA1999999095061MD1210221+9999MW1861REMSYN116AAXX  30001 30605 11593 83202 11047 21057 39506 4/257 52022 60042 78682 889// 333 21057 47042 55046 555 1/105 7004/;
0211306050999992000033012004+53330+101180FM-12+060099999V0209999C000012200019N0500001N1-00511-00721101971ADDAA112001091AY181061AY221061GF105991021051008001001011KA1120M-00011MA1999999094501MD1710101+9999MW1021REMSYN098AAXX  30121 30605 11599 50000 11051 21072 39450 40197 57010 60012 70282 82501 333 11001 555 1/117;
0245306050999992000040100004+53330+101180FM-12+060099999V0202401N001010075019N0500001N1-00591-01071101631ADDAA199000091AJ100379199999999GF108991061091008001001011GJ104329IA1239KA1120N-00921MA1999999094151MD1310121+9999REMSYN104AAXX  01001 30605 32599 82401 11059 21107 39415 40163 53012 86901 333 21092 47037 55072 555 1/108 7000/;EQDQ01  00002PRCP99
0196306050999992000040112004+53330+101180FM-12+060099999V0209999C000010075019N0500001N1+00171-00871101061ADDAA199000091GF108991081091008001999999KA1120M+00791MA1999999093831MD1110171+9999REMSYN086AAXX  01121 30605 32599 80000 10017 21087 39383 40106 51017 889// 333 10079 555 1/101;EQDQ01  00002PRCP99
0245306050999992000040200004+53330+101180FM-12+060099999V0202101N002010075019N0500001N1+00151-00721100591ADDAA199000091AJ100399199999999GF107991051091008001001011GJ102709IA1279KA1120N-00361MA1999999093391MD1310091+9999REMSYN104AAXX  02001 30605 32599 72102 10015 21072 39339 40059 53009 85901 333 21036 43039 55045 555 1/103 7000/;EQDQ01  00002PRCP99
0211306050999992000040212004+53330+101180FM-12+060099999V0202101N001010075019N0500001N1+00091-00621101411ADDAA112000791AY181061AY221061GF107991071091008001001031KA1120M+00691MA1999999095141MD1110201+9999MW1261REMSYN098AAXX  02121 30605 11599 72101 10009 21062 39514 40141 51020 69902 72682 87903 333 10069 555 1/101;
0246306050999992000040300004+53330+101180FM-12+060099999V0203201N002012200019N0500001N1-00371-01131102901ADDAA112000791AA224999929AJ100379199999999GF106991021091008001001011GJ101269IA1279KA1120N-00371MA1999999095401MD1310341+9999REMSYN113AAXX  03001 30605 12599 63202 11037 21113 39540 40290 53034 69902 82901 333 21037 43037 55021 555 1/107 7990/ /-;
0199306050999992000040312004+53330+101180FM-12+060099999V0203301N001012200019N0500001N1-00231-01271103101ADDAA199000091GF101991001001999999001011KA1120M+00011MA1999999095611MD1210081+9999REMSYN089AAXX  03121 30605 32999 13301 11023 21127 39561 40310 52008 80001 333 10001 555 1/110 /-;EQDQ01  00002PRCP99
0245306050999992000040400004+53330+101180FM-12+060099999V0201601N004019999999N0500001N1-00401-01341102461ADDAA199000091AJ100379199999999GF105991001001999999001011GJ105169IA1279KA1120N-01231MA1999999094981MD1710181+9999REMSYN104AAXX  04001 30605 32999 51604 11040 21134 39498 40246 57018 80001 333 21123 43037 55086 555 1/109 7000/;EQDQ01  00002PRCP99
0199306050999992000040412004+53330+101180FM-12+060099999V0209999C000019999999N0500001N1+00271-00981101451ADDAA199000091GF106991001001999999001011KA1120M+00841MA1999999094211MD1710111+9999REMSYN089AAXX  04121 30605 32999 60000 10027 21098 39421 40145 57011 80001 333 10084 555 1/103 /-;EQDQ01  00002PRCP99
