0165339900999992000010106004+44500+034170FM-12+007299999V0202101N001010900019N0210001N1+00541+00371101341ADDAA106000091GF107991031051012501001021KA1999N+00541MD1710021+9999REMSYN070AAXX  01061 33990 32671 72101 10054 20037 40134 57002 83502 333 20054;EQDQ01  00002PRCP06
0161339900999992000010112004+44500+034170FM-12+007299999V0201801N002010075019N0170001N1+00811+00591101281ADDAY181061AY221061GF107991071091008001001001MA1999999100411MD1810061+9999MW1801REMSYN072AAXX  01121 33990 41567 71802 10081 20059 30041 40128 58006 78082 87900;
0161339900999992000010412004+44500+034170FM-12+007299999V0200601N002010042019N0140001N1+00001-00241102061ADDAY181061AY221061GF108991081091004501999999MA1999999101151MD1610101+9999MW1851REMSYN072AAXX  04121 33990 41464 80602 10000 21024 30115 40206 56010 78582 889//;
0168339900999992000010503004+44500+034170FM-12+007299999V0202901N002010084019N0210001N1-00031-00441101971ADDGA1071+008409069GF107991071051008001001001GJ100669MD1710071+9999REMSYN092AAXX  05031 33990 42571 72902 11003 21044 40197 57007 87500 333 55011 87628 555 21005 7990/;
0159339900999992000010506004+44500+034170FM-12+007299999V0203201N002010078019N0210001N1-00031-00411102041ADDGA1081+007809059GF108991081051008001999999MA1999999101131MD1710071+9999REMSYN076AAXX  05061 33990 42571 83202 11003 21041 30113 40204 57007 885// 333 88626;
0143339900999992000010509004+44500+034170FM-12+007299999V0200501N001010072019N0180001N1+00051-00351102151ADDGA1081+007209069GF108991081051008001999999MD1310061+9999REMSYN075AAXX  05091 33990 42568 80501 10005 21035 40215 53006 885// 333 88624 1701;
0161339900999992000010609004+44500+034170FM-12+007299999V0209999C000010042019N0100001N1+00271+00221102011ADDAY181031AY251031GF108991081091004501999999MA1999999101121MD1410001+9999MW1251REMSYN072AAXX  06091 33990 41460 80000 10027 20022 30112 40201 54000 72585 889//;
0161339900999992000010612004+44500+034170FM-12+007299999V0209999C000010042019N0100001N1+00271+00221102011ADDAY181061AY251061GF108991081091004501999999MA1999999101121MD1410001+9999MW1251REMSYN072AAXX  06121 33990 41460 80000 10027 20022 30112 40201 54000 72585 889//;
0112339900999992000010615004+44500+034170FM-12+007299999V0203001N002010075019N0110001N1+00281+00201102081ADDGF108991081051008001999999MD1310071+9999REMSYN060AAXX  06151 33990 42561 83002 10028 20020 40208 53007 885//;
0152339900999992000010706004+44500+034170FM-12+007299999V0202901N001010900019N0160001N1+00141+00001102471ADDAA112000591GF106991021051008001001021KA1999N+00141MD1210101+9999REMSYN076AAXX  07061 33990 12566 62901 10014 20000 40247 52010 69942 82502 333 20014;
0112339900999992000010709004+44500+034170FM-12+007299999V0200301N001010075019N0240001N1+00481+00071102511ADDGF108991081061008001999999MD1110061+9999REMSYN060AAXX  07091 33990 42574 80301 10048 20007 40251 51006 886//;
0133339900999992000010712004+44500+034170FM-12+007299999V0200401N001010075019N0260001N1+00531+00151102481ADDGF107991071061008001001001MA1999999101581MD1610031+9999REMSYN066AAXX  07121 33990 42576 70401 10053 20015 30158 40248 56003 87600;
0112339900999992000010715004+44500+034170FM-12+007299999V0200601N004010042019N0280001N1+00441+00191102521ADDGF108991081061004501999999MD1110041+9999REMSYN060AAXX  07151 33990 42478 80604 10044 20019 40252 51004 886//;
0187339900999992000010718004+44500+034170FM-12+007299999V0200901N004010048019N0250001N1+00381+00151102601ADDAA106000091GA1081+004809069GF108991081061004501999999KA1120M+00551MD1210081+9999REMSYN076AAXX  07181 33990 32475 80904 10038 20015 40260 52008 886// 333 10055 88716;EQDQ01  00002PRCP06
0138339900999992000010721004+44500+034170FM-12+007299999V0200801N003010042019N0230001N1+00321+00111102611ADDGA1081+004209069GF108991081061004501999999MD1310011+9999REMSYN070AAXX  07211 33990 42473 80803 10032 20011 40261 53001 886// 333 88714;
0159339900999992000010800004+44500+034170FM-12+007299999V0200401N002010048019N0240001N1+00361+00071102581ADDGA1081+004809069GF108991081061004501999999MA1999999101681MD1610031+9999REMSYN076AAXX  08001 33990 42474 80402 10036 20007 30168 40258 56003 886// 333 88716;
0168339900999992000010803004+44500+034170FM-12+007299999V0200501N003010048019N0260001N1+00341+00051102531ADDGA1081+004809079GF108991081061004501999999GJ100669MD1610051+9999REMSYN092AAXX  08031 33990 42476 80503 10034 20005 40253 56005 886// 333 55011 88716 555 20030 7000/;
0165339900999992000010806004+44500+034170FM-12+007299999V0200901N003012200019N0230001N1+00331+00011102551ADDAA106000091GF103991031061004501001001KA1999N+00301MD1210021+9999REMSYN070AAXX  08061 33990 32473 30903 10033 20001 40255 52002 83600 333 20030;EQDQ01  00002PRCP06
0112339900999992000010809004+44500+034170FM-12+007299999V0200701N004010075019N0220001N1+00411+00161102581ADDGF107991071051008001001001MD1210041+9999REMSYN060AAXX  08091 33990 42572 70704 10041 20016 40258 52004 87500;
0139339900999992000010812004+44500+034170FM-12+007299999V0200601N003010048019N0200001N1+00431+00121102521ADDGA1061+004809069GF108991081061004501999999MA1999999101621REMSYN070AAXX  08121 33990 42470 80603 10043 20012 30162 40252 886// 333 86716;
0138339900999992000010815004+44500+034170FM-12+007299999V0200601N001010051019N0200001N1+00391+00131102511ADDGA1081+005109069GF108991081061004501999999MD1710011+9999REMSYN070AAXX  08151 33990 42470 80601 10039 20013 40251 57001 886// 333 88717;
0187339900999992000010818004+44500+034170FM-12+007299999V0200701N004010048019N0190001N1+00331+00091102551ADDAA106000091GA1081+004809069GF108991081061004501999999KA1120M+00441MD1310041+9999REMSYN076AAXX  08181 33990 32469 80704 10033 20009 40255 53004 886// 333 10044 88716;EQDQ01  00002PRCP06
0138339900999992000010821004+44500+034170FM-12+007299999V0203401N002010060019N0190001N1+00271-00031102541ADDGA1081+006009059GF108991081051008001999999MD1810011+9999REMSYN070AAXX  08211 33990 42569 83402 10027 21003 40254 58001 885// 333 88620;
0159339900999992000010900004+44500+034170FM-12+007299999V0203201N001010066019N0170001N1-00021-00051102521ADDGA1081+006609059GF108991081051008001999999MA1999999101621MD1710021+9999REMSYN076AAXX  09001 33990 42567 83201 11002 21005 30162 40252 57002 885// 333 88622;
0138339900999992000010903004+44500+034170FM-12+007299999V0203001N001010075019N0170001N1+00151-00101102501ADDGF108991081051008001999999MD1710041+9999REMSYN086AAXX  09031 33990 42567 83001 10015 21010 40250 57004 885// 333 55001 555 20015 7000/;
0112339900999992000010909004+44500+034170FM-12+007299999V0200301N002010360019N0210001N1+00451+00001102541ADDGF106991011051008001031001MD1810021+9999REMSYN060AAXX  09091 33990 42571 60302 10045 20000 40254 58002 81530;
0133339900999992000010912004+44500+034170FM-12+007299999V0203601N001010075019N0170001N1+00331-00051102521ADDGF108991081051008001999999MA1999999101621MD1710021+9999REMSYN066AAXX  09121 33990 42567 83601 10033 21005 30162 40252 57002 885//;
0112339900999992000010915004+44500+034170FM-12+007299999V0203501N001010075019N0160001N1+00311-00011102511ADDGF108991081051008001999999MD1610011+9999REMSYN060AAXX  09151 33990 42566 83501 10031 21001 40251 56001 885//;
0165339900999992000010918004+44500+034170FM-12+007299999V0203001N002010075019N0160001N1+00251-00081102581ADDAA106000091GF108991081051008001999999KA1999M+00451MD1310071+9999REMSYN070AAXX  09181 33990 32566 83002 10025 21008 40258 53007 885// 333 10045;EQDQ01  00002PRCP06
0112339900999992000010921004+44500+034170FM-12+007299999V0203201N001010075019N0140001N1+00191-00061102601ADDGF108991081051008001999999MD1210021+9999REMSYN060AAXX  09211 33990 42564 83201 10019 21006 40260 52002 885//;
0133339900999992000011000004+44500+034170FM-12+007299999V0203201N001010075019N0160001N1+00181-00101102621ADDGF108991081051008001999999MA1999999101721MD1210021+9999REMSYN066AAXX  10001 33990 42566 83201 10018 21010 30172 40262 52002 885//;
0138339900999992000011003004+44500+034170FM-12+007299999V0203001N001010075019N0160001N1+00171-00141102671ADDGF108991081051008001999999MD1110031+9999REMSYN086AAXX  10031 33990 42566 83001 10017 21014 40267 51003 885// 333 55018 555 20013 7000/;
0165339900999992000011006004+44500+034170FM-12+007299999V0203501N001010075019N0110001N1+00211-00101102761ADDAA106000091GF108991081051008001999999KA1999N+00131MD1310111+9999REMSYN070AAXX  10061 33990 32561 83501 10021 21010 40276 53011 885// 333 20013;EQDQ01  00002PRCP06
0112339900999992000011009004+44500+034170FM-12+007299999V0200801N002010042019N0100001N1+00271+00031102801ADDGF108991081061004501999999MD1110041+9999REMSYN060AAXX  10091 33990 42460 80802 10027 20003 40280 51004 886//;
0133339900999992000011012004+44500+034170FM-12+007299999V0200901N001010042019N0100001N1+00241+00001102791ADDGF108991081061004501999999MA1999999101891MD1810011+9999REMSYN066AAXX  10121 33990 42460 80901 10024 20000 30189 40279 58001 886//;
0140339900999992000011015004+44500+034170FM-12+007299999V0201101N001010042019N0070001N1+00261+00051102841ADDAY151031AY221031GF108991081061004501999999MD1310051+9999MW1511REMSYN066AAXX  10151 33990 41457 81101 10026 20005 40284 53005 75152 886//;
0202339900999992000011018004+44500+034170FM-12+007299999V0200401N001010042019N0120001N1+00251+00011102831ADDAA112000791AY151061AY221061GA1081+004209069GF108991081061004501999999KA1120M+00311MD1810011+9999MW1021REMSYN088AAXX  10181 33990 11462 80401 10025 20001 40283 58001 69902 70252 886// 333 10031 88714;
0138339900999992000011021004+44500+034170FM-12+007299999V0202401N001010039019N0100001N1+00211-00011102891ADDGA1081+003909069GF108991081061004501999999MD1310061+9999REMSYN070AAXX  10211 33990 42460 82401 10021 21001 40289 53006 886// 333 88713;
0159339900999992000011100004+44500+034170FM-12+007299999V0200601N003010036019N0100001N1+00201+00011102921ADDGA1081+003609069GF108991081061004501999999MA1999999102021MD1210031+9999REMSYN076AAXX  11001 33990 42460 80603 10020 20001 30202 40292 52003 886// 333 88712;
0168339900999992000011103004+44500+034170FM-12+007299999V0200401N002010042019N0100001N1+00181-00071102951ADDGA1081+004209079GF108991081061004501999999GJ100009MD1210031+9999REMSYN092AAXX  11031 33990 42460 80402 10018 21007 40295 52003 886// 333 55000 88714 555 20015 7990/;
0187339900999992000011106004+44500+034170FM-12+007299999V0200601N003010045019N0150001N1+00181-00161103101ADDAA106000091GA1081+004509069GF108991081061004501999999KA1120N+00151MD1210131+9999REMSYN076AAXX  11061 33990 32465 80603 10018 21016 40310 52013 886// 333 20015 88715;EQDQ01  00002PRCP06
0112339900999992000011109004+44500+034170FM-12+007299999V0200601N004010042019N0120001N1+00191-00311103091ADDGF108991081061004501999999MD1110011+9999REMSYN060AAXX  11091 33990 42462 80604 10019 21031 40309 51001 886//;
0133339900999992000011112004+44500+034170FM-12+007299999V0200601N002010042019N0150001N1+00221-00351103091ADDGF108991081061004501999999MA1999999102191MD1510001+9999REMSYN066AAXX  11121 33990 42465 80602 10022 21035 30219 40309 55000 886//;
0112339900999992000011115004+44500+034170FM-12+007299999V0202601N002012200019N0170001N1+00081-00381103141ADDGF103991031041012501001001MD1210031+9999REMSYN060AAXX  11151 33990 42667 32602 10008 21038 40314 52003 83400;
0165339900999992000011118004+44500+034170FM-12+007299999V0202901N002012200019N0230001N1+00021-00351103171ADDAA106000091GF102991021041012501001001KA1999M+00241MD1210031+9999REMSYN070AAXX  11181 33990 32673 22902 10002 21035 40317 52003 82400 333 10024;EQDQ01  00002PRCP06
0112339900999992000011121004+44500+034170FM-12+007299999V0202901N001010120019N0250001N1+00061-00341103151ADDGF105991051051012501001001MD1810021+9999REMSYN060AAXX  11211 33990 42675 52901 10006 21034 40315 58002 85500;
0133339900999992000011200004+44500+034170FM-12+007299999V0202901N001010120019N0260001N1+00041-00321103201ADDGF106991061051012501001001MA1999999102281MD1310051+9999REMSYN066AAXX  12001 33990 42676 62901 10004 21032 30228 40320 53005 86500;
0138339900999992000011203004+44500+034170FM-12+007299999V0202801N001012200019N0250001N1+00071-00321103161ADDGF102991021051012501001001MD1710041+9999REMSYN086AAXX  12031 33990 42675 22801 10007 21032 40316 57004 82500 333 55000 555 20002 7000/;
0165339900999992000011206004+44500+034170FM-12+007299999V0202901N002010360019N0180001N1+00071-00261103181ADDAA106000091GF108991021041012501021999KA1999N+00021MD1310021+9999REMSYN070AAXX  12061 33990 32668 82902 10007 21026 40318 53002 8242/ 333 20002;EQDQ01  00002PRCP06
0112339900999992000011209004+44500+034170FM-12+007299999V0200901N001010120019N0190001N1+00331-00181103181ADDGF108991081081008001999999MD1210021+9999REMSYN060AAXX  12091 33990 42569 80901 10033 21018 40318 52002 888//;
0133339900999992000011212004+44500+034170FM-12+007299999V0200501N001010120019N0210001N1+00421+00001103141ADDGF108991081081008001999999MA1999999102241MD1810041+9999REMSYN066AAXX  12121 33990 42571 80501 10042 21000 30224 40314 58004 888//;
0112339900999992000011215004+44500+034170FM-12+007299999V0200501N001010075019N0180001N1+00271-00281103181ADDGF108991081051008001999999MD1310041+9999REMSYN060AAXX  12151 33990 42568 80501 10027 21028 40318 53004 885//;
0165339900999992000011218004+44500+034170FM-12+007299999V0200301N001010075019N0180001N1+00291+00131103161ADDAA106000091GF108991081051008001999999KA1999M+00441MD1810021+9999REMSYN070AAXX  12181 33990 32568 80301 10029 20013 40316 58002 885// 333 10044;EQDQ01  00002PRCP06
0112339900999992000011221004+44500+034170FM-12+007299999V0203001N001010360019N0160001N1+00191-00181103231ADDGF107991041051008001071001MD1210031+9999REMSYN060AAXX  12211 33990 42566 73001 10019 21018 40323 52003 84570;
0133339900999992000011300004+44500+034170FM-12+007299999V0202901N001010360019N0160001N1+00171+99999103261ADDGF107991021051008001071001MA1999999102341MD1210011+9999REMSYN066AAXX  13001 33990 42566 72901 10017 20021 30234 40326 52001 82570;
0138339900999992000011303004+44500+034170FM-12+007299999V0203301N001019999999N0170001N1+00171-00271103261ADDGF107991071001999999071001MD1410001+9999REMSYN086AAXX  13031 33990 42967 73301 10017 21027 40326 54000 87070 333 55000 555 20015 7000/;
0165339900999992000011306004+44500+034170FM-12+007299999V0200501N002010360019N0180001N1+00231-00231103321ADDAA106000091GF107991021051012501071001KA1999N+00151MD1310081+9999REMSYN070AAXX  13061 33990 32668 70502 10023 21023 40332 53008 82570 333 20015;EQDQ01  00002PRCP06
0112339900999992000011309004+44500+034170FM-12+007299999V0200601N005010360019N0200001N1+00331-00181103341ADDGF107991021051012501071001MD1210021+9999REMSYN060AAXX  13091 33990 42670 70605 10033 21018 40334 52002 82570;
0133339900999992000011312004+44500+034170FM-12+007299999V0200701N005010360019N0200001N1+00361-00171103291ADDGF106991021051012501041001MA1999999102391MD1810051+9999REMSYN066AAXX  13121 33990 42670 60705 10036 21017 30239 40329 58005 82540;
0112339900999992000011315004+44500+034170FM-12+007299999V0200601N003010360019N0180001N1+00271-00151103341ADDGF106991021051012501041001MD1310051+9999REMSYN060AAXX  13151 33990 42668 60603 10027 21015 40334 53005 82540;
0165339900999992000011318004+44500+034170FM-12+007299999V0200401N003010360019N0170001N1+00231-00201103381ADDAA106000091GF106991021051008001051001KA1999M+00371MD1210041+9999REMSYN070AAXX  13181 33990 32567 60403 10023 21020 40338 52004 82550 333 10037;EQDQ01  00002PRCP06
0116339900999992000011321004+44500+034170FM-12+007299999V0200701N002010360019N0170001N1+00171-00211103441ADDGF107991021051008001051001MD1110031+9999REMSYN064    AAXX  13211 33990 42567 70702 10017 21021 40344 51003 82550;
0137339900999992000011400004+44500+034170FM-12+007299999V0200401N001012200019N0150001N1-00021-00201103431ADDGF102991021051008001001001MA1999999102501MD1810011+9999REMSYN070    AAXX  14001 33990 42565 20401 11002 21020 30250 40343 58001 82500;
0142339900999992000011403004+44500+034170FM-12+007299999V0201201N002010360019N0160001N1+00021-00151103411ADDGF107991021051008001051001MD1710011+9999REMSYN090    AAXX  14031 33990 42566 71202 10002 21015 40341 57001 82550 333 55025 555 21003 7000/;
0169339900999992000011406004+44500+034170FM-12+007299999V0203001N002010075019N0190001N1+00131-00251103451ADDAA199000091GF108991081051008001999999KA1999N-00031MD1310031+9999REMSYN074    AAXX  14061 33990 32569 83002 10013 21025 40345 53003 885// 333 21003;EQDQ01  00002PRCP99
0116339900999992000011409004+44500+034170FM-12+007299999V0200801N001010075019N0170001N1+00371-00191103441ADDGF107991051051008001031001MD1110011+9999REMSYN064    AAXX  14091 33990 42567 70801 10037 21019 40344 51001 85530;
0142339900999992000011412004+44500+034170FM-12+007299999V0201001N002019999999N0150001N1+00301-00081103331ADDGF107991999001008001011001MA1999999102431REMSYN070    AAXX  14121 33990 42565 71002 10030 21008 30243 40333 85010 87500;EQDQ01+000052SCOTLC
0116339900999992000011415004+44500+034170FM-12+007299999V0200601N002010075019N0140001N1+00281-00081103361ADDGF108991081051008001999999MD1310031+9999REMSYN064    AAXX  14151 33990 42564 80602 10028 21008 40336 53003 885//;
0191339900999992000011418004+44500+034170FM-12+007299999V0200601N004010078019N0140001N1+00261-00071103361ADDAA199000091GA1081+007809059GF108991081051008001999999KA1120M+00411MD1410001+9999REMSYN080    AAXX  14181 33990 32564 80604 10026 21007 40336 54000 885// 333 10041 88626;EQDQ01  00002PRCP99
0116339900999992000011421004+44500+034170FM-12+007299999V0200601N003010075019N0150001N1+00171-00211103381ADDGF107991071051008001001001MD1410001+9999REMSYN064    AAXX  14211 33990 42565 70603 10017 21021 40338 54000 87500;
0163339900999992000011500004+44500+034170FM-12+007299999V0200701N004010072019N0150001N1+00171-00211103281ADDGA1081+007209059GF108991081051008001999999MA1999999102361MD1810101+9999REMSYN080    AAXX  15001 33990 42565 80704 10017 21021 30236 40328 58010 885// 333 88624;
0172339900999992000011503004+44500+034170FM-12+007299999V0200501N003010063019N0140001N1+00151-00231103211ADDGA1081+006309069GF108991081051008001999999GJ100189MD1710071+9999REMSYN096    AAXX  15031 33990 42564 80503 10015 21023 40321 57007 885// 333 55003 88621 555 20012 7000/;
0191339900999992000011506004+44500+034170FM-12+007299999V0203001N001010066019N0130001N1+00121-00201103161ADDAA199000091GA1081+006609059GF108991081051008001999999KA1120N+00121MD1710051+9999REMSYN080    AAXX  15061 33990 32563 83001 10012 21020 40316 57005 885// 333 20012 88622;EQDQ01  00002PRCP99
0116339900999992000011509004+44500+034170FM-12+007299999V0200601N003010021019N0110001N1+00141-00081103041ADDGF108991081061002501999999MD1810121+9999REMSYN064    AAXX  15091 33990 42361 80603 10014 21008 40304 58012 886//;
0163339900999992000011512004+44500+034170FM-12+007299999V0209999C000010033019N0110001N1+00141-00111102851ADDGA1081+003309069GF108991081061004501999999MA1999999101931MD1710191+9999REMSYN080    AAXX  15121 33990 42461 80000 10014 21011 30193 40285 57019 886// 333 88711;
0144339900999992000011515004+44500+034170FM-12+007299999V0209999C000010042019N0080001N1+00171-00081102821ADDAY121031AY221031GF108991081061004501999999MD1610031+9999MW1101REMSYN070    AAXX  15151 33990 41458 80000 10017 21008 40282 56003 71022 886//;
0191339900999992000011518004+44500+034170FM-12+007299999V0203001N001010036019N0150001N1+00161-00031102751ADDAA199000091GA1081+003609069GF108991081061004501999999KA1120M+00201MD1810071+9999REMSYN080    AAXX  15181 33990 32465 83001 10016 21003 40275 58007 886// 333 10020 88712;EQDQ01  00002PRCP99
0116339900999992000011521004+44500+034170FM-12+007299999V0203001N002010075019N0190001N1+00111-00151102651ADDGF105991051061008001001001MD1710101+9999REMSYN064    AAXX  15211 33990 42569 53002 10011 21015 40265 57010 85600;
0137339900999992000011600004+44500+034170FM-12+007299999V0203501N001012200019N0210001N1+00001-00271102551ADDGF102991021041012501001001MA1999999101631MD1610101+9999REMSYN070    AAXX  16001 33990 42671 23501 10000 21027 30163 40255 56010 82400;
0160339900999992000011603004+44500+034170FM-12+007299999V0203601N001012200019N0230001N1-00021-00231102471ADDGA1001+999999999GF100991001001999999001001GJ100009MD1710081+9999REMSYN084    AAXX  16031 33990 42973 03601 11002 21023 40247 57008 333 55000 555 21002 7000/;
0169339900999992000011606004+44500+034170FM-12+007299999V0202901N001012200019N0170001N1+00031-00141102521ADDAA199000091GF103991021041012501001011KA1999N-00021MD1310051+9999REMSYN074    AAXX  16061 33990 32667 32901 10003 21014 40252 53005 82401 333 21002;EQDQ01  00002PRCP99
0116339900999992000011609004+44500+034170FM-12+007299999V0200901N001010120019N0180001N1+00481-00221102471ADDGF108991081081008001999999MD1810031+9999REMSYN064    AAXX  16091 33990 42568 80901 10048 21022 40247 58003 888//;
0137339900999992000011612004+44500+034170FM-12+007299999V0200701N001010075019N0140001N1+00451+00001102421ADDGF108991081051008001999999MA1999999101521MD1710051+9999REMSYN070    AAXX  16121 33990 42564 80701 10045 20000 30152 40242 57005 885//;
0116339900999992000011615004+44500+034170FM-12+007299999V0202701N001010075019N0120001N1+00391+00111102391ADDGF108991081051008001999999MD1710031+9999REMSYN064    AAXX  16151 33990 42562 82701 10039 20011 40239 57003 885//;
0191339900999992000011618004+44500+034170FM-12+007299999V0202901N003010135019N0150001N1+00401-00181102311ADDAA199000091GA1081+013509059GF108991081051012501999999KA1120M+00531MD1710071+9999REMSYN080    AAXX  16181 33990 32665 82903 10040 21018 40231 57007 885// 333 10053 88645;EQDQ01  00002PRCP99
0116339900999992000011621004+44500+034170FM-12+007299999V0202301N003010360019N0160001N1+00331-00211102161ADDGF107991031051012501041001MD1710151+9999REMSYN064    AAXX  16211 33990 42666 72303 10033 21021 40216 57015 83540;
0137339900999992000011700004+44500+034170FM-12+007299999V0202101N001012200019N0160001N1+00231-00401101981ADDGF103991031051008001001001MA1999999101091MD1710181+9999REMSYN070    AAXX  17001 33990 42566 32101 10023 21040 30109 40198 57018 83500;
0132339900999992000011703004+44500+034170FM-12+007299999V0202601N001012200019N0150001N1+00151-00671101781ADDGF101991011001999999031001MD1710211+9999REMSYN080    AAXX  17031 33990 42965 12601 10015 21067 40178 57021 81030 555 20000 7000/;
0169339900999992000011706004+44500+034170FM-12+007299999V0203001N002012200019N0160001N1+00151-00721101671ADDAA199000091GF102991021051999999001011KA1999N+00001MD1710111+9999REMSYN074    AAXX  17061 33990 32966 23002 10015 21072 40167 57011 82501 333 20000;EQDQ01  00002PRCP99
0116339900999992000011709004+44500+034170FM-12+007299999V0202101N002010075019N0210001N1+00431-00671101401ADDGF108991081051008001999999MD1710251+9999REMSYN064    AAXX  17091 33990 42571 82102 10043 21067 40140 57025 885//;
0165339900999992000011712004+44500+034170FM-12+007299999V0200201N002010075019N0110001N1+00331-00051100971ADDAY181061AY211061GF108991081091008001999999MA1999999100081MD1710431+9999MW1851REMSYN076    AAXX  17121 33990 41561 80202 10033 21005 30008 40097 57043 78581 889//;
0144339900999992000011715004+44500+034170FM-12+007299999V0202101N001010075019N0110001N1+00231+00151100471ADDAY181031AY221031GF108991081091008001999999MD1710501+9999MW1021REMSYN070    AAXX  17151 33990 41561 82101 10023 20015 40047 57050 70282 889//;
0184339900999992000011718004+44500+034170FM-12+007299999V0201801N003010075019N0140001N1+00291-00131100071ADDAA112004191AY181061AY221061GF108991081051008001999999KA1999M+00441MD1710391+9999MW1021REMSYN086    AAXX  17181 33990 11564 81803 10029 21013 40007 57039 60042 70282 885// 333 10044;
0144339900999992000011721004+44500+034170FM-12+007299999V0202401N002010075019N0140001N1+00241-00251099761ADDAY181031AY221031GF108991081091008001999999MD1710311+9999MW1871REMSYN070    AAXX  17211 33990 41564 82402 10024 21025 49976 57031 78782 889//;
0165339900999992000011800004+44500+034170FM-12+007299999V0202301N002010075019N0100001N1+00231-00021099341ADDAY181061AY221061GF108991081051008001999999MA1999999098471MD1710411+9999MW1021REMSYN076    AAXX  18001 33990 41560 82302 10023 21002 39847 49934 57041 70282 885//;
0170339900999992000011803004+44500+034170FM-12+007299999V0202101N002010075019N0090001N1+00211-00101099051ADDAY181031AY221031GF108991081091008001999999MD1710291+9999MW1501REMSYN096    AAXX  18031 33990 41559 82102 10021 21010 49905 57029 75082 889// 333 55005 555 20019 7006/;
0184339900999992000011806004+44500+034170FM-12+007299999V0202701N002010075019N0060001N1+00051-00011098951ADDAA112005191AY181061AY221061GF108991081091008001999999KA1999N+00051MD1710111+9999MW1851REMSYN086    AAXX  18061 33990 11556 82702 10005 21001 49895 57011 60052 78582 889// 333 20005;
0138339900999992000011809004+44500+034170FM-12+007299999V0202701N003019999999N0220001N1+00391+00161098871ADDAY181031AY221031GF108991999999008001999999MD1710071+9999MW1021REMSYN064    AAXX  18091 33990 41572 82703 10039 20016 49887 57007 70282;
0165339900999992000011812004+44500+034170FM-12+007299999V0202501N002010075019N0250001N1+00681-00181098821ADDAY181061AY221061GF107991061031008001001011MA1999999097951MD1710051+9999MW1021REMSYN076    AAXX  18121 33990 41575 72502 10068 21018 39795 49882 57005 70282 86301;
0116339900999992000011815004+44500+034170FM-12+007299999V0202701N001010075019N0230001N1+00371-00161098821ADDGF108991061051008001071999MD1410001+9999REMSYN064    AAXX  18151 33990 42573 82701 10037 21016 49882 54000 8657/;
0156339900999992000011818004+44500+034170FM-12+007299999V0202901N001010075019N0190001N1+00291-00131098881ADDAA112000391GF108991061051008001021999KA1999M+00681MD1310061+9999REMSYN080    AAXX  18181 33990 12569 82901 10029 21013 49888 53006 69932 8652/ 333 10068;
0116339900999992000011821004+44500+034170FM-12+007299999V0202101N002010075019N0230001N1+00271-00321099051ADDGF106991061051008001001001MD1210171+9999REMSYN064    AAXX  18211 33990 42573 62102 10027 21032 49905 52017 86500;
0165339900999992000011900004+44500+034170FM-12+007299999V0202701N003010075019N0080001N1+00201-00481099331ADDAY181061AY221061GF106991061091008001001001MA1999999098461MD1210281+9999MW1851REMSYN076    AAXX  19001 33990 41558 62703 10020 21048 39846 49933 52028 78582 86900;
0170339900999992000011903004+44500+034170FM-12+007299999V0202901N005010360019N0200001N1+00291-00591099451ADDAY181031AY221031GF105991031051012501041001MD1210111+9999MW1021REMSYN096    AAXX  19031 33990 41670 52905 10029 21059 49945 52011 70282 83540 333 55034 555 20001 7003/;
0213339900999992000011906004+44500+034170FM-12+007299999V0200301N001010075019N0050001N1+00171-00141099741ADDAA112000591AJ100009199999999AY181061AY221061GF106991061091008001001001IA1239KA1120N+00011MD1210281+9999MW1851REMSYN092    AAXX  19061 33990 11550 60301 10017 21014 49974 52028 69952 78582 86900 333 20001 47997;
0144339900999992000011909004+44500+034170FM-12+007299999V0203101N002012200019N0350001N1+00541-00421099851ADDAY181031AY221031GF103991021091008001041001MD1210121+9999MW1021REMSYN070    AAXX  19091 33990 41581 33102 10054 21042 49985 52012 70282 82940;
0165339900999992000011912004+44500+034170FM-12+007299999V0202601N002012200019N0300001N1+00531-00561099961ADDAY181061AY221061GF102991021031008001041001MA1999999099081MD1110111+9999MW1261REMSYN076    AAXX  19121 33990 41580 22602 10053 21056 39908 49996 51011 72682 82340;
0116339900999992000011915004+44500+034170FM-12+007299999V0209999C000010075019N0350001N1+00351-00551100151ADDGF106991061091008001001001MD1110191+9999REMSYN064    AAXX  19151 33990 42581 60000 10035 21055 40015 51019 86900;
0180339900999992000011918004+44500+034170FM-12+007299999V0200101N003010075019N0280001N1+00131-00191100221ADDAA112000591AY181061AY211061GF106991061091008001001001KA1999M+00581MD1110061+9999MW1021REMSYN082AAXX  19181 33990 11578 60103 10013 21019 40022 51006 69952 70281 86900 333 10058;
0140339900999992000011921004+44500+034170FM-12+007299999V0202701N002010075019N0210001N1+00001-00241100251ADDAY181031AY221031GF105991051091008001001001MD1310031+9999MW1851REMSYN066AAXX  19211 33990 41571 52702 10000 21024 40025 53003 78582 85900;
0161339900999992000012000004+44500+034170FM-12+007299999V0200501N002012200019N0260001N1+00061-00591100401ADDAY181061AY221061GF103991021041008001041001MA1999999099501MD1310141+9999MW1021REMSYN072AAXX  20001 33990 41576 30502 10006 21059 39950 40040 53014 70282 82440;
0138339900999992000012003004+44500+034170FM-12+007299999V0200401N001012200019N0300001N1+00061-00671100451ADDGF102991021041008001001001MD1110051+9999REMSYN086AAXX  20031 33990 42580 20401 10006 21067 40045 51005 82400 333 55057 555 20000 7999/;
0181339900999992000012006004+44500+034170FM-12+007299999V0200201N003012200019N0230001N1+00081-00691100671ADDAA112000191AJ100009199999999GF103991031041008001001001IA1239KA1120N-00011MD1210221+9999REMSYN082AAXX  20061 33990 12573 30203 10008 21069 40067 52022 69922 83400 333 21001 47997;
0112339900999992000012009004+44500+034170FM-12+007299999V0203201N002012200019N0270001N1+00321-00671100721ADDGF102991021021008001001001MD1210061+9999REMSYN060AAXX  20091 33990 42577 23202 10032 21067 40072 52006 82200;
0133339900999992000012012004+44500+034170FM-12+007299999V0203601N002012200019N0250001N1+00031-00851100781ADDGF107991021031008001001011MA1999999099881MD1310051+9999REMSYN066AAXX  20121 33990 42575 73602 10003 21085 39988 40078 53005 82301;
0140339900999992000012015004+44500+034170FM-12+007299999V0203501N004010075019N0070001N1-00331-00761100951ADDAY181031AY211031GF108991081091008001999999MD1210151+9999MW1851REMSYN066AAXX  20151 33990 41557 83504 11033 21076 40095 52015 78581 889//;
0152339900999992000012018004+44500+034170FM-12+007299999V0200501N002010075019N0200001N1-00491-01021101191ADDAA112000191GF106991061031008001001001KA1999M+00321MD1210241+9999REMSYN076AAXX  20181 33990 11570 60502 11049 21102 40119 52024 69922 86300 333 10032;
0112339900999992000012021004+44500+034170FM-12+007299999V0201201N002019999999N0240001N1-00391-01111101101ADDGF105991051001999999041001MD1810031+9999REMSYN060AAXX  20211 33990 42974 51202 11039 21111 40110 58003 85040;
0133339900999992000012100004+44500+034170FM-12+007299999V0201801N001010360019N0250001N1-00151-00971101101ADDGF106991021051012501041001MA1999999100201MD1310021+9999REMSYN066AAXX  21001 33990 42675 61801 11015 21097 30020 40110 53002 82540;
0166339900999992000012103004+44500+034170FM-12+007299999V0201601N002010120019N0150001N1-00051-00501100941ADDAY181031AY221031GF105991051091012501001001MD1810161+9999MW1851REMSYN092AAXX  21031 33990 41665 51602 11005 21050 40094 58016 78582 85900 333 55070 555 21049 7992/;
0209339900999992000012106004+44500+034170FM-12+007299999V0202101N003010075019N0220001N1+00151-00651100871ADDAA112000791AJ100019199999999AY181061AY221061GF108991081091008001999999IA1239KA1120N-00491MD1610071+9999MW1021REMSYN088AAXX  21061 33990 11572 82103 10015 21065 40087 56007 69902 70282 889// 333 21049 47001;
0140339900999992000012109004+44500+034170FM-12+007299999V0202101N002010075019N0034001N1+00171-00241100661ADDAY181031AY221031GF108991081091008001999999MD1710211+9999MW1861REMSYN066AAXX  21091 33990 41534 82102 10017 21024 40066 57021 78682 889//;
0161339900999992000012112004+44500+034170FM-12+007299999V0202301N003010075019N0038001N1+00131-00091100331ADDAY181061AY221061GF108991081091008001999999MA1999999099441MD1710321+9999MW1861REMSYN072AAXX  21121 33990 41538 82303 10013 21009 39944 40033 57032 78682 889//;
0140339900999992000012115004+44500+034170FM-12+007299999V0201701N003010075019N0019001N1+00131+00051100061ADDAY181031AY221031GF108991081091008001999999MD1710271+9999MW1861REMSYN066AAXX  21151 33990 41519 81703 10013 20005 40006 57027 78682 889//;
0180339900999992000012118004+44500+034170FM-12+007299999V0202001N003010075019N0070001N1+00171+00061099841ADDAA112016091AY181061AY221061GF108991081091008001999999KA1999M+00261MD1710221+9999MW1841REMSYN082AAXX  21181 33990 11557 82003 10017 20006 49984 57022 60162 78482 889// 333 10026;
0140339900999992000012121004+44500+034170FM-12+007299999V0202401N004010075019N0090001N1+00231+00071099581ADDAY181031AY221031GF108991081091008001999999MD1710251+9999MW1831REMSYN066AAXX  21211 33990 41559 82404 10023 20007 49958 57025 78382 889//;
0161339900999992000012200004+44500+034170FM-12+007299999V0202301N005010075019N0140001N1+00331-00081099391ADDAY181061AY221061GF108991061091008001001011MA1999999098511MD1710191+9999MW1021REMSYN072AAXX  22001 33990 41564 82305 10033 21008 39851 49939 57019 70282 86901;
0207339900999992000012203004+44500+034170FM-12+007299999V0202101N003010075019N0090001N1-00011-00501999999ADDAY191031AY221031GF106991061091008001001001MD1310101+9999MW1851REMSYN098AAXX  22031 33990 41559 62103 11001 21050 40751 53010 78592 86900 333 55000 555 21001 7031/ 88031;EQDQ01+107513APOSLPQ02 107513APOSLP
0228339900999992000012206004+44500+034170FM-12+007299999V0203001N005010075019N0110001N1-00291-00801999999ADDAA112015091AJ100029199999999AY191061AY281061GF107991051091008001001021IA1239KA1120N-00291MD1210491+9999MW1021REMSYN088AAXX  22061 33990 11561 73005 11029 21080 40001 52049 60152 70298 85902 333 21029 47002;EQDQ01+100013APOSLP
0157339900999992000012209004+44500+034170FM-12+007299999V0203001N006012200019N0250001N1-00331-01161100742ADDGF102991011021012501041001MD1210722+9999REMSYN070AAXX  22091 33990 42675 23006 11033 21116 40074 52072 81240 333 91119;EQDQ01+100743APOSLPQ02+000722APC3  
0133339900999992000012212004+44500+034170FM-12+007299999V0203101N006012200019N0300001N1-00411-01411101061ADDGF102991011021012501041001MA1999999100141MD1210321+9999REMSYN066AAXX  22121 33990 42680 23106 11041 21141 30014 40106 52032 81240;
0112339900999992000012215004+44500+034170FM-12+007299999V0203201N005012200019N0300001N1-00481-01361101331ADDGF101991011051012501001001MD1210271+9999REMSYN060AAXX  22151 33990 42680 13205 11048 21136 40133 52027 81500;
0199339900999992000012218004+44500+034170FM-12+007299999V0203401N003019999999N0090001N1-00431-01031101661ADDAA112000791AY181061AY211061GF106991999091012501999999KA1999M-00271MD1210321+9999MW1851REMSYN082AAXX  22181 33990 11659 63403 11043 21103 40166 52032 69902 78581 889// 333 11027;EQDQ01+000082SCOTLC
0140339900999992000012221004+44500+034170FM-12+007299999V0203201N001010075019N0060001N1-00381-00671101731ADDAY181031AY221031GF108991081091008001999999MD1010071+9999MW1851REMSYN066AAXX  22211 33990 41556 83201 11038 21067 40173 50007 78582 889//;
0161339900999992000012300004+44500+034170FM-12+007299999V0203001N002010075019N0100001N1-00391-00651101871ADDAY181061AY221061GF106991061091008001001001MA1999999100941MD1310141+9999MW1261REMSYN072AAXX  23001 33990 41560 63002 11039 21065 30094 40187 53014 72682 86900;
0138339900999992000012303004+44500+034170FM-12+007299999V0203001N001010360019N0180001N1-00331-00931101901ADDGF106991021051012501041001MD1110031+9999REMSYN086AAXX  23031 33990 42668 63001 11033 21093 40190 51003 82540 333 55060 555 21047 7002/;
0181339900999992000012306004+44500+034170FM-12+007299999V0202901N003012200019N0250001N1-00271-01121101941ADDAA112002091AJ100059199999999GF102991021001999999041001IA1279KA1120N-00471MD1210061+9999REMSYN082AAXX  23061 33990 12975 22903 11027 21112 40194 52006 60022 82040 333 21047 43005;
0112339900999992000012309004+44500+034170FM-12+007299999V0202701N004012200019N0300001N1+00161-01151101971ADDGF103991021021012501001011MD1210031+9999REMSYN060AAXX  23091 33990 42680 32704 10016 21115 40197 52003 82201;
0133339900999992000012312004+44500+034170FM-12+007299999V0202301N002012200019N0300001N1+00221-01091101951ADDGF102991021021012501001001MA1999999101061MD1410001+9999REMSYN066AAXX  23121 33990 42680 22302 10022 21109 30106 40195 54000 82200;
0112339900999992000012315004+44500+034170FM-12+007299999V0202901N001012200019N0300001N1-00131-00891102021ADDGF104991021041012501041011MD1310051+9999REMSYN060AAXX  23151 33990 42680 42901 11013 21089 40202 53005 82441;
0165339900999992000012318004+44500+034170FM-12+007299999V0203201N001010360019N0280001N1-00071-00841101981ADDAA199000091GF106991021041012501031001KA1999M+00261MD1810041+9999REMSYN070AAXX  23181 33990 32678 63201 11007 21084 40198 58004 82430 333 10026;EQDQ01  00002PRCP99
0138339900999992000012321004+44500+034170FM-12+007299999V0201801N001010108019N0250001N1+00021-00651101941ADDGA1081+010809059GF108991081051012501999999MD1710041+9999REMSYN070AAXX  23211 33990 42675 81801 10002 21065 40194 57004 885// 333 88636;
0161339900999992000012400004+44500+034170FM-12+007299999V0200201N003010075019N0170001N1+00131-00291101751ADDAY181061AY221061GF108991081091008001999999MA1999999100841MD1710191+9999MW1851REMSYN072AAXX  24001 33990 41567 80203 10013 21029 30084 40175 57019 78582 889//;
0166339900999992000012403004+44500+034170FM-12+007299999V0203001N002010075019N0046001N1+00071+00011101371ADDAY181031AY281031GF108991081091008001999999MD1710371+9999MW1851REMSYN092AAXX  24031 33990 41546 83002 10007 20001 40137 57037 78588 889// 333 55066 555 21009 7002/;
0209339900999992000012406004+44500+034170FM-12+007299999V0202901N002010075019N0070001N1+00071+00041101181ADDAA112007991AJ100079199999999AY181061AY281061GF108991081091008001999999IA1279KA1120N-00091MD1710191+9999MW1801REMSYN088AAXX  24061 33990 11557 82902 10007 20004 40118 57019 60082 78088 889// 333 21009 43007;
0140339900999992000012409004+44500+034170FM-12+007299999V0202901N002010075019N0110001N1+00231+00151100841ADDAY181031AY281031GF108991081091008001999999MD1710331+9999MW1801REMSYN066AAXX  24091 33990 41561 82902 10023 20015 40084 57033 78088 889//;
0161339900999992000012412004+44500+034170FM-12+007299999V0203201N002010075019N0090001N1+00391+00321100531ADDAY181061AY221061GF108991081091008001999999MA1999999099641MD1710311+9999MW1811REMSYN072AAXX  24121 33990 41559 83202 10039 20032 39964 40053 57031 78182 889//;
0140339900999992000012415004+44500+034170FM-12+007299999V0202701N002010075019N0070001N1+00411+00341100341ADDAY181031AY281031GF108991081091008001999999MD1710181+9999MW1811REMSYN066AAXX  24151 33990 41557 82702 10041 20034 40034 57018 78188 889//;
0180339900999992000012418004+44500+034170FM-12+007299999V0202901N001010075019N0080001N1+00541+00471100181ADDAA112036191AY181061AY281061GF108991081091008001999999KA1999M+00581MD1710161+9999MW1811REMSYN082AAXX  24181 33990 11558 82901 10054 20047 40018 57016 60362 78188 889// 333 10058;
0140339900999992000012421004+44500+034170FM-12+007299999V0202301N002010360019N0180001N1+00411+00231100061ADDAY181031AY221031GF107991021091012501031001MD1710121+9999MW1021REMSYN066AAXX  24211 33990 41668 72302 10041 20023 40006 57012 70282 82930;
0133339900999992000012500004+44500+034170FM-12+007299999V0202101N003019999999N0200001N1+00531-00291100101ADDGF107991001001999999001061MA1999999099221MD1310041+9999REMSYN066AAXX  25001 33990 41970 72103 10053 21029 39922 40010 53004 80006;
0144339900999992000012503004+44500+034170FM-12+007299999V0202801N002019999999N0200001N1+00421-00401100241ADDGF107991001001999999001061MD1310141+9999REMSYN092AAXX  25031 33990 42970 72802 10042 21040 40024 53014 80006 333 55000 555 20036 7043/ 88043;
0181339900999992000012506004+44500+034170FM-12+007299999V0203201N002010900019N0200001N1+00331-00531100621ADDAA112000891AJ100039199999999GF107991011021012501001021IA1309KA1120N+00301MD1210371+9999REMSYN082AAXX  25061 33990 12670 73202 10033 21053 40062 52037 69982 81202 333 20030 42003;
0112339900999992000012509004+44500+034170FM-12+007299999V0200101N004010360019N0250001N1+00511-00971100891ADDGF106991021021012501041091MD1110271+9999REMSYN060AAXX  25091 33990 42675 60104 10051 21097 40089 51027 82249;
0133339900999992000012512004+44500+034170FM-12+007299999V0203401N003010900019N0230001N1+00221-00981101141ADDGF105991021021012501041061MA1999999100251MD1210251+9999REMSYN066AAXX  25121 33990 42673 53403 10022 21098 30025 40114 52025 82246;
0112339900999992000012515004+44500+034170FM-12+007299999V0202701N003010120019N0220001N1-00051-01251101451ADDGF108991051021012501001011MD1210291+9999REMSYN060AAXX  25151 33990 42672 82703 11005 21125 40145 52029 85201;
0165339900999992000012518004+44500+034170FM-12+007299999V0202801N003010120019N0270001N1-00111-01571101691ADDAA199000091GF106991061051012501001001KA1999M+00581MD1110241+9999REMSYN070AAXX  25181 33990 32677 62803 11011 21157 40169 51024 86500 333 10058;EQDQ01  00002PRCP99
0140339900999992000012521004+44500+034170FM-12+007299999V0203201N003010075019N0015001N1-00471-00601101831ADDAY181031AY221031GF108991081091008001999999MD1210121+9999MW1861REMSYN066AAXX  25211 33990 41515 83203 11047 21060 40183 52012 78682 889//;
0161339900999992000012600004+44500+034170FM-12+007299999V0203001N003010075019N0035001N1-00391-00761101891ADDAY181061AY221061GF108991081091008001999999MA1999999100961MD1110061+9999MW1851REMSYN072AAXX  26001 33990 41535 83003 11039 21076 30096 40189 51006 78582 889//;
0166339900999992000012603004+44500+034170FM-12+007299999V0202801N002010075019N0200001N1-00451-01491101941ADDAY181031AY221031GF106991051021008001011001MD1110051+9999MW1021REMSYN092AAXX  26031 33990 41570 62802 11045 21149 40194 51005 70282 85210 333 55043 555 21048 7004/;
0209339900999992000012606004+44500+034170FM-12+007299999V0202701N002012200019N0240001N1-00541-01741102041ADDAA112004191AJ100079199999999AY181061AY211061GF103991031081012501001001IA1239KA1120N-00541MD1210101+9999MW1021REMSYN088AAXX  26061 33990 11674 32702 11054 21174 40204 52010 60042 70281 83800 333 21054 47007;
0112339900999992000012609004+44500+034170FM-12+007299999V0202101N002012200019N0270001N1-00031-01401102031ADDGF101991011051012501001001MD1110011+9999REMSYN060AAXX  26091 33990 42677 12102 11003 21140 40203 51001 81500;
0133339900999992000012612004+44500+034170FM-12+007299999V0200301N002012200019N0270001N1-00091-01461101951ADDGF102991021051012501001001MA1999999101041MD1810081+9999REMSYN066AAXX  26121 33990 42677 20302 11009 21146 30104 40195 58008 82500;
0112339900999992000012615004+44500+034170FM-12+007299999V0203101N002012200019N0250001N1-00271-01271101991ADDGF103991031051012501001001MD1310021+9999REMSYN060AAXX  26151 33990 42675 33102 11027 21127 40199 53002 83500;
0137339900999992000012618004+44500+034170FM-12+007299999V0202501N002019999999N0240001N1-00301+99999999999ADDAA199000091GF106991999999012501999999REMSYN069AAXX  26181 33990 32674 62502 11030 2112 40202 51003 86500 333 11001;EQDQ01  00002PRCP99
0112339900999992000012621004+44500+034170FM-12+007299999V0202901N003010120019N0230001N1-00181-00971101941ADDGF107991061051012501031001MD1810061+9999REMSYN060AAXX  26211 33990 42673 72903 11018 21097 40194 58006 86530;
0161339900999992000012700004+44500+034170FM-12+007299999V0202501N001010075019N0080001N1-00261-00831101861ADDAY181061AY221061GF107991071091008001001001MA1999999100951MD1710081+9999MW1851REMSYN072AAXX  27001 33990 41558 72501 11026 21083 30095 40186 57008 78582 87900;
0166339900999992000012703004+44500+034170FM-12+007299999V0203001N001010360019N0200001N1-00351-00671101901ADDAY181031AY221031GF106991031031012501041011MD1310021+9999MW1021REMSYN092AAXX  27031 33990 41670 63001 11035 21067 40190 53002 70282 83341 333 55067 555 21035 7994/;
0209339900999992000012706004+44500+034170FM-12+007299999V0202901N001010360019N0230001N1-00211-00671101911ADDAA112000591AJ100059199999999AY181061AY221061GF107991031021012501031001IA1239KA1120N-00351MD1110031+9999MW1021REMSYN088AAXX  27061 33990 11673 72901 11021 21067 40191 51003 69942 70282 83230 333 21035 47005;
0112339900999992000012709004+44500+034170FM-12+007299999V0200101N001010075019N0250001N1+00111-00521101911ADDGF105991051051008001001001MD1410001+9999REMSYN060AAXX  27091 33990 42575 50101 10011 21052 40191 54000 85500;
0133339900999992000012712004+44500+034170FM-12+007299999V0202601N002010075019N0230001N1+00291-00551101821ADDGF106991061091008001001001MA1999999100931MD1710071+9999REMSYN066AAXX  27121 33990 42573 62602 10029 21055 30093 40182 57007 86900;
0140339900999992000012715004+44500+034170FM-12+007299999V0203101N002010042019N0160001N1+00111-00241101881ADDAY181031AY221031GF108991081091004501999999MD1110041+9999MW1851REMSYN066AAXX  27151 33990 41466 83102 10011 21024 40188 51004 78582 889//;
0180339900999992000012718004+44500+034170FM-12+007299999V0202101N002010075019N0180001N1+00271-00351101901ADDAA112000191AY181061AY221061GF108991081091008001999999KA1999M+00371MD1310041+9999MW1871REMSYN082AAXX  27181 33990 11568 82102 10027 21035 40190 53004 69922 78782 889// 333 10037;
0140339900999992000012721004+44500+034170FM-12+007299999V0202201N003010075019N0160001N1+00241+00001101851ADDAY181031AY221031GF108991081091008001999999MD1610051+9999MW1801REMSYN066AAXX  27211 33990 41566 82203 10024 21000 40185 56005 78082 889//;
0161339900999992000012800004+44500+034170FM-12+007299999V0200201N002010075019N0170001N1+00271-00091101891ADDAY181061AY221061GF108991081091008001999999MA1999999101001MD1310041+9999MW1801REMSYN072AAXX  28001 33990 41567 80202 10027 21009 30100 40189 53004 78082 889//;
0166339900999992000012803004+44500+034170FM-12+007299999V0201901N001010075019N0250001N1+00341-00261101921ADDAY181031AY221031GF108991081091008001999999MD1110031+9999MW1021REMSYN092AAXX  28031 33990 41575 81901 10034 21026 40192 51003 70282 889// 333 55017 555 20019 7001/;
0209339900999992000012806004+44500+034170FM-12+007299999V0202201N001010075019N0260001N1+00361-00201102031ADDAA112001091AJ100009199999999AY181061AY221061GF108991081091008001999999IA1309KA1120N+00191MD1310111+9999MW1021REMSYN088AAXX  28061 33990 11576 82201 10036 21020 40203 53011 60012 70282 889// 333 20019 42997;
0112339900999992000012809004+44500+034170FM-12+007299999V0202501N001010075019N0210001N1+00491-00171102051ADDGF108991081091008001999999MD1210021+9999REMSYN060AAXX  28091 33990 42571 82501 10049 21017 40205 52002 889//;
0133339900999992000012812004+44500+034170FM-12+007299999V0202101N002010075019N0220001N1+00451-00121101971ADDGF108991081091008001999999MA1999999101081MD1810081+9999REMSYN066AAXX  28121 33990 42572 82102 10045 21012 30108 40197 58008 889//;
0112339900999992000012815004+44500+034170FM-12+007299999V0202301N001010075019N0200001N1+00431-00281102021ADDGF108991081051008001999999MD1310051+9999REMSYN060AAXX  28151 33990 42570 82301 10043 21028 40202 53005 885//;
0165339900999992000012818004+44500+034170FM-12+007299999V0202501N002010075019N0200001N1+00431-00351102111ADDAA199000091GF108991081051008001999999KA1999M+00491MD1210091+9999REMSYN070AAXX  28181 33990 32570 82502 10043 21035 40211 52009 885// 333 10049;EQDQ01  00002PRCP99
0112339900999992000012821004+44500+034170FM-12+007299999V0201801N001010075019N0200001N1+00351-00281102111ADDGF108991081051008001999999MD1410001+9999REMSYN060AAXX  28211 33990 42570 81801 10035 21028 40211 54000 885//;
0187339900999992000012900004+44500+034170FM-12+007299999V0202101N002010084019N0180001N1+00391+00111102111ADDAY181061AY221061GA1081+008409059GF108991081091008001999999MA1999999101221MD1410001+9999MW1801REMSYN082AAXX  29001 33990 41568 82102 10039 20011 30122 40211 54000 78082 889// 333 88628;
0196339900999992000012903004+44500+034170FM-12+007299999V0202401N002010102019N0170001N1+00441+00111102041ADDAY181031AY221031GA1081+010209069GF108991081051012501999999GJ100009MD1810071+9999MW1021REMSYN098AAXX  29031 33990 41667 82402 10044 20011 40204 58007 70282 885// 333 55000 88634 555 20035 7991/;
0228339900999992000012906004+44500+034170FM-12+007299999V02099999999992200019N0180001N1+00481+00151102091ADDAA112000191AJ100009199999999AY181061AY221061GF102991999091008001999999IA1259KA1120N+00351MD1310051+9999MW1021REMSYN088AAXX  29061 33990 11568 2102/ 10048 20015 40209 53005 69912 70282 889// 333 20035 41998;EQDQ01+000082SCOTLC
0140339900999992000012909004+44500+034170FM-12+007299999V0202301N003010075019N0140001N1+00541+00221102101ADDAY121031AY221031GF108991061091008001021999MD1210011+9999MW1251REMSYN066AAXX  29091 33990 41564 82303 10054 20022 40210 52001 72522 8692/;
0161339900999992000012912004+44500+034170FM-12+007299999V0201801N003010075019N0150001N1+00641+00281101921ADDAY181061AY221061GF107991071091008001001001MA1999999101031MD1810181+9999MW1021REMSYN072AAXX  29121 33990 41565 71803 10064 20028 30103 40192 58018 70282 87900;
0112339900999992000012915004+44500+034170FM-12+007299999V0202101N002012200019N0180001N1+00451-00091101921ADDGF103991031041008001001001MD1410001+9999REMSYN060AAXX  29151 33990 42568 32102 10045 21009 40192 54000 83400;
0152339900999992000012918004+44500+034170FM-12+007299999V0202301N003012200019N0200001N1+00331-00181101891ADDAA112000791GF102991021001999999031001KA1999M+00751MD1810031+9999REMSYN076AAXX  29181 33990 12970 22303 10033 21018 40189 58003 69902 82030 333 10075;
0122339900999992000012921004+44500+034170FM-12+007299999V0203401N003012200019N0230001N1+00311-00371101881ADDGA1001+999999999GF100991001001999999001001MD1610011+9999REMSYN054AAXX  29211 33990 42973 03403 10031 21037 40188 56001;
0143339900999992000013000004+44500+034170FM-12+007299999V0202701N001012200019N0230001N1+00231-00301101841ADDGA1001+999999999GF100991001001999999001001MA1999999100951MD1810041+9999REMSYN060AAXX  30001 33990 42973 02701 10023 21030 30095 40184 58004;
0138339900999992000013003004+44500+034170FM-12+007299999V0202301N002012200019N0240001N1+00211-00361101841ADDGF102991021051012501001001MD1410001+9999REMSYN086AAXX  30031 33990 42674 22302 10021 21036 40184 54000 82500 333 55006 555 20017 7000/;
0194339900999992000013006004+44500+034170FM-12+007299999V0201601N001010120019N0260001N1+00431-00081101841ADDAA199000091AJ100009199999999GF106991061081008001001001IA1259KA1120N+00171MD1410001+9999REMSYN076AAXX  30061 33990 32576 61601 10043 21008 40184 54000 86800 333 20017 41998;EQDQ01  00002PRCP99
0112339900999992000013009004+44500+034170FM-12+007299999V0202201N003010075019N0200001N1+00721+00291101811ADDGF107991061031008001001021MD1810021+9999REMSYN060AAXX  30091 33990 42570 72203 10072 20029 40181 58002 86302;
0159339900999992000013012004+44500+034170FM-12+007299999V0202101N001010069019N0210001N1+00691+00281101591ADDGA1061+006909029GF108991081081008001999999MA1999999100711MD1710221+9999REMSYN076AAXX  30121 33990 42571 82101 10069 20028 30071 40159 57022 888// 333 86823;
0112339900999992000013015004+44500+034170FM-12+007299999V0202401N002010120019N0210001N1+00721+00401101431ADDGF107991071081008001001001MD1710161+9999REMSYN060AAXX  30151 33990 42571 72402 10072 20040 40143 57016 87800;
0165339900999992000013018004+44500+034170FM-12+007299999V0202201N003010075019N0200001N1+00751+00431101381ADDAA199000091GF106991061051008001001001KA1999M+00781MD1610051+9999REMSYN070AAXX  30181 33990 32570 62203 10075 20043 40138 56005 86500 333 10078;EQDQ01  00002PRCP99
0140339900999992000013021004+44500+034170FM-12+007299999V0202401N003010075019N0110001N1+00761+00411101271ADDAY181031AY221031GF108991081091008001999999MD1810101+9999MW1801REMSYN066AAXX  30211 33990 41561 82403 10076 20041 40127 58010 78082 889//;
0161339900999992000013100004+44500+034170FM-12+007299999V0203401N002010075019N0080001N1+00671+00581101161ADDAY181061AY221061GF108991081091008001999999MA1999999100291MD1710111+9999MW1811REMSYN072AAXX  31001 33990 41558 83402 10067 20058 30029 40116 57011 78182 889//;
0166339900999992000013103004+44500+034170FM-12+007299999V0203301N002010075019N0160001N1+00741+00361101091ADDAY181031AY221031GF106991061031008001001001MD1610071+9999MW1021REMSYN092AAXX  31031 33990 41566 63302 10074 20036 40109 56007 70282 86300 333 55020 555 20057 7005/;
0180339900999992000013106004+44500+034170FM-12+007299999V0203401N003010075019N0180001N1+00631+00071101341ADDAA112005191AY181061AY221061GF108991081091008001999999KA1999N+00571MD1310231+9999MW1021REMSYN082AAXX  31061 33990 11568 83403 10063 20007 40134 53023 60052 70282 889// 333 20057;
0112339900999992000013109004+44500+034170FM-12+007299999V0202201N003012200019N0250001N1+00811-00301101581ADDGF103991021011012501041001MD1110251+9999REMSYN060AAXX  31091 33990 42675 32203 10081 21030 40158 51025 82140;
0107339900999992000013112004+44500+034170FM-12+007299999V0200601N002012200019N0280001N1+00801-00471999999ADDGF102991011011012501041001MA1999999100771REMSYN054AAXX  31121 33990 42678 20602 10080 21047 30077 81140;
0122339900999992000013115004+44500+034170FM-12+007299999V0202101N002012200019N0300001N1+00531-00431101791ADDGA1001+999999999GF100991001001999999001001MD1110131+9999REMSYN054AAXX  31151 33990 42980 02102 10053 21043 40179 51013;
0175339900999992000013118004+44500+034170FM-12+007299999V0202101N002012200019N0350001N1+00431-00431101841ADDAA199000091GA1001+999999999GF100991001001999999001001KA1999M+00961MD1110051+9999REMSYN064AAXX  31181 33990 32981 02102 10043 21043 40184 51005 333 10096;EQDQ01  00002PRCP99
0112339900999992000013121004+44500+034170FM-12+007299999V0202101N003010360019N0290001N1+00571+00111101631ADDGF108991021061008001051999MD1810211+9999REMSYN060AAXX  31211 33990 42579 82103 10057 20011 40163 58021 8265/;
0166339900999992000020103004+44500+034170FM-12+007299999V0203201N002010120019N0270001N1+00771+00211101271ADDAY181031AY221031GF106991061051012501001001MD1810091+9999MW1021REMSYN092AAXX  01031 33990 41677 63202 10077 20021 40127 58009 70282 86500 333 55055 555 20042 7001/;
0186339900999992000020106004+44500+034170FM-12+007299999V0203101N006012200019N0240001N1+00811-00071101341ADDAA112001091AY181061AY221061GF103991031051008001001001KA1120N+00421MD1210071+9999MW1021REMSYN088AAXX  01061 33990 11574 33106 10081 21007 40134 52007 60012 70282 83500 333 20042 91119;
0112339900999992000020109004+44500+034170FM-12+007299999V0203301N007010075019N0240001N1+00581-00291101591ADDGF106991061051008001001001MD1210231+9999REMSYN060AAXX  01091 33990 42574 63307 10058 21029 40159 52023 86500;
0143339900999992000020112004+44500+034170FM-12+007299999V0203601N006010075019N0250001N1+00451-00391101831ADDGF106991051051008001001021MA1999999100541MD1210241+9999REMSYN076AAXX  01121 33990 42575 63606 10045 21039 30054 40183 52024 85502 333 91118;
0112339900999992000020115004+44500+034170FM-12+007299999V0203601N002012200019N0240001N1+00311-00481102121ADDGF104991041051012501001001MD1210291+9999REMSYN060AAXX  01151 33990 42674 43602 10031 21048 40212 52029 84500;
0165339900999992000020118004+44500+034170FM-12+007299999V0203201N004012200019N0240001N1+00281-00611102331ADDAA199000091GF102991021051012501001001KA1999M+00811MD1210211+9999REMSYN070AAXX  01181 33990 32674 23204 10028 21061 40233 52021 82500 333 10081;EQDQ01  00002PRCP99
0122339900999992000020121004+44500+034170FM-12+007299999V0202701N001012200019N0240001N1+00131-00791102541ADDGA1001+999999999GF100991001001999999001001MD1210181+9999REMSYN054AAXX  01211 33990 42974 02701 10013 21079 40254 52018;
0143339900999992000020200004+44500+034170FM-12+007299999V0203001N001012200019N0260001N1+00211-01001102581ADDGA1001+999999999GF100991001001999999001001MA1999999101661MD1110041+9999REMSYN060AAXX  02001 33990 42976 03001 10021 21100 30166 40258 51004;
0138339900999992000020203004+44500+034170FM-12+007299999V0202701N001010075019N0230001N1+00231-00641102551ADDGF108991081051008001999999MD1710011+9999REMSYN086AAXX  02031 33990 42573 82701 10023 21064 40255 57001 885// 333 55000 555 20020 7000/;
0165339900999992000020206004+44500+034170FM-12+007299999V0203101N001010360019N0250001N1+00271-00421102541ADDAA199000091GF107991021051008001071001KA1999N+00071MD1710021+9999REMSYN070AAXX  02061 33990 32575 73101 10027 21042 40254 57002 82570 333 20007;EQDQ01  00002PRCP99
0112339900999992000020209004+44500+034170FM-12+007299999V0203601N002010075019N0150001N1+00581+00131102441ADDGF107991061051008001081001MD1710091+9999REMSYN060AAXX  02091 33990 42565 73602 10058 20013 40244 57009 86580;
0133339900999992000020212004+44500+034170FM-12+007299999V0202101N003010075019N0160001N1+00761+00231102141ADDGF107991051051008001031001MA1999999101261MD1710281+9999REMSYN066AAXX  02121 33990 42566 72103 10076 20023 30126 40214 57028 85530;
0112339900999992000020215004+44500+034170FM-12+007299999V0202201N002012200019N0140001N1+00641+00331102001ADDGF102991021051008001001001MD1710151+9999REMSYN060AAXX  02151 33990 42564 22202 10064 20033 40200 57015 82500;
0175339900999992000020218004+44500+034170FM-12+007299999V0203401N002012200019N0120001N1+00511+00241101871ADDAA199000091GA1001+999999999GF100991001001999999001001KA1999M+00981MD1710131+9999REMSYN064AAXX  02181 33990 32962 03402 10051 20024 40187 57013 333 10098;EQDQ01  00002PRCP99
0122339900999992000020221004+44500+034170FM-12+007299999V0202101N001012200019N0170001N1+00651+00121101741ADDGA1001+999999999GF100991001001999999001001MD1710131+9999REMSYN054AAXX  02211 33990 42967 02101 10065 20012 40174 57013;
0143339900999992000020300004+44500+034170FM-12+007299999V0203201N002012200019N0160001N1+00541+00161101561ADDGA1001+999999999GF100991001001999999001001MA1999999100671MD1710181+9999REMSYN060AAXX  03001 33990 42966 03202 10054 20016 30067 40156 57018;
0156339900999992000020303004+44500+034170FM-12+007299999V0203101N002012200019N0140001N1+00581+00241101351ADDGA1001+999999999GF100991001001999999001001GJ101509MD1710211+9999REMSYN080AAXX  03031 33990 42964 03102 10058 20024 40135 57021 333 55025 555 20047 7000/;
0165339900999992000020306004+44500+034170FM-12+007299999V0203401N001019999999N0120001N1+00641+00381101271ADDAA199000091GF107991061001999999031021KA1999N+00471MD1710081+9999REMSYN070AAXX  03061 33990 32962 73401 10064 20038 40127 57008 86032 333 20047;EQDQ01  00002PRCP99
0112339900999992000020309004+44500+034170FM-12+007299999V0200501N002019999999N0150001N1+01041+00641101071ADDGF106991061001999999041001MD1710181+9999REMSYN060AAXX  03091 33990 42965 60502 10104 20064 40107 57018 86040;
0133339900999992000020312004+44500+034170FM-12+007299999V0202501N004019999999N0210001N1+01711+00111100911ADDGF107991061001999999041011MA1999999100071MD1610131+9999REMSYN066AAXX  03121 33990 42971 72504 10171 20011 30007 40091 56013 86041;
0112339900999992000020315004+44500+034170FM-12+007299999V0203001N002010360019N0180001N1+01131+00251101111ADDGF108991011051012501071999MD1310171+9999REMSYN060AAXX  03151 33990 42668 83002 10113 20025 40111 53017 8157/;
0165339900999992000020318004+44500+034170FM-12+007299999V0203401N004010075019N0180001N1+01031+00321101361ADDAA199000091GF108991051051008001071999KA1999M+01711MD1210251+9999REMSYN070AAXX  03181 33990 32568 83404 10103 20032 40136 52025 8557/ 333 10171;EQDQ01  00002PRCP99
0112339900999992000020321004+44500+034170FM-12+007299999V0203301N004010075019N0160001N1+00731+00171101601ADDGF108991061031008001071999MD1210231+9999REMSYN060AAXX  03211 33990 42566 83304 10073 20017 40160 52023 8637/;
0133339900999992000020400004+44500+034170FM-12+007299999V0203401N002010120019N0180001N1+00641-00011101661ADDGF108991061081008001071999MA1999999100771MD1110051+9999REMSYN066AAXX  04001 33990 42568 83402 10064 21001 30077 40166 51005 8687/;
0138339900999992000020403004+44500+034170FM-12+007299999V0203401N005019999999N0200001N1+00541-00241101891ADDGF108991081001999999071999MD1310231+9999REMSYN086AAXX  04031 33990 42970 83405 10054 21024 40189 53023 8807/ 333 55037 555 20054 7000/;
0165339900999992000020406004+44500+034170FM-12+007299999V0203401N004010360019N0220001N1+00471-00231102081ADDAA199000091GF108991021021008001071999KA1999N+00471MD1210191+9999REMSYN070AAXX  04061 33990 32572 83404 10047 21023 40208 52019 8227/ 333 20047;EQDQ01  00002PRCP99
0092339900999992000020409004+44500+034170FM-12+007299999V02099999999990360019N0260001N1+00581-00361102321ADDGF108991021061008001021021REMSYN054AAXX  04091 33990 42576 89001 10058 21036 40232 82622;
0133339900999992000020412004+44500+034170FM-12+007299999V0200101N003012200019N0270001N1+00561-00541102421ADDGF106991031051008001001011MA1999999101521MD1310091+9999REMSYN066AAXX  04121 33990 42577 60103 10056 21054 30152 40242 53009 83501;
0112339900999992000020415004+44500+034170FM-12+007299999V0200901N002010075019N0280001N1+00421-00301102601ADDGF105991051051008001001001MD1310181+9999REMSYN060AAXX  04151 33990 42578 50902 10042 21030 40260 53018 85500;
0165339900999992000020418004+44500+034170FM-12+007299999V0203201N002012200019N0300001N1+00121-00591102861ADDAA199000091GF102991021041012501001001KA1999M+00681MD1110241+9999REMSYN070AAXX  04181 33990 32680 23202 10012 21059 40286 51024 82400 333 10068;EQDQ01  00002PRCP99
0112339900999992000020421004+44500+034170FM-12+007299999V0203001N002012200019N0350001N1+00101-01211102971ADDGF103991031041012501001001MD1310111+9999REMSYN060AAXX  04211 33990 42681 33002 10010 21121 40297 53011 83400;
0143339900999992000020500004+44500+034170FM-12+007299999V0203201N001012200019N0400001N1-00011-01341103031ADDGA1001+999999999GF100991001001999999001001MA1999999102111MD1210061+9999REMSYN060AAXX  05001 33990 42982 03201 11001 21134 30211 40303 52006;
0156339900999992000020503004+44500+034170FM-12+007299999V0202701N002012200019N0400001N1-00071-01291103011ADDGA1001+999999999GF100991001001999999001001GJ101629MD1810021+9999REMSYN080AAXX  05031 33990 42982 02702 11007 21129 40301 58002 333 55027 555 21008 7000/;
0175339900999992000020506004+44500+034170FM-12+007299999V0209999C000012200019N0400001N1+00011-01191102921ADDAA199000091GA1001+999999999GF100991001001999999001001KA1999N-00101MD1710091+9999REMSYN064AAXX  05061 33990 32982 00000 10001 21119 40292 57009 333 21010;EQDQ01  00002PRCP99
0112339900999992000020509004+44500+034170FM-12+007299999V0202401N003012200019N0400001N1+00541-00541102591ADDGF103991031051012501001001MD1710311+9999REMSYN060AAXX  05091 33990 42682 32403 10054 21054 40259 57031 83500;
0133339900999992000020512004+44500+034170FM-12+007299999V0202701N003010900019N0350001N1+00511-00431102121ADDGF107991021051012501001021MA1999999101231MD1710461+9999REMSYN066AAXX  05121 33990 42681 72703 10051 21043 30123 40212 57046 82502;
0112339900999992000020515004+44500+034170FM-12+007299999V0202101N002010120019N0300001N1+00331-00381101751ADDGF107991051051012501041021MD1710371+9999REMSYN060AAXX  05151 33990 42680 72102 10033 21038 40175 57037 85542;
0154339900999992000020518004+44500+034170FM-12+007299999V0202201N002019999999N0180001N1+00261+00131101491ADDAA112000191AY181061AY221061KA1999M+00591MD1710261+9999MW1801REMSYN082AAXX  05181 33990 11568 /2202 10026 20013 40149 57026 69912 78082 889// 333 10059;
0140339900999992000020521004+44500+034170FM-12+007299999V0203001N001012200019N0200001N1+00391+00111101321ADDAY181031AY211031GF104991041091008001001001MD1710171+9999MW1251REMSYN066AAXX  05211 33990 41570 43001 10039 20011 40132 57017 72581 84900;
0161339900999992000020600004+44500+034170FM-12+007299999V0203601N001010075019N0200001N1+00451+00061101421ADDAY181061AY211061GF107991071091008001001001MA1999999100531MD1310101+9999MW1801REMSYN072AAXX  06001 33990 41570 73601 10045 20006 30053 40142 53010 78081 87900;
0166339900999992000020603004+44500+034170FM-12+007299999V0203601N004012200019N0220001N1+00371-00441101591ADDAY181031AY211031GF102991021051012501001001MD1210171+9999MW1021REMSYN092AAXX  06031 33990 41672 23604 10037 21044 40159 52017 70281 82500 333 55071 555 20026 7996/;
0112339900999992000020609004+44500+034170FM-12+007299999V0203601N005012200019N0300001N1+00601-00451101921ADDGF103991031021008001001001MD1210081+9999REMSYN060AAXX  06091 33990 42580 33605 10060 21045 40192 52008 83200;
0133339900999992000020612004+44500+034170FM-12+007299999V0203601N008012200019N0300001N1+00561-00591102031ADDGF103991031021008001001001MA1999999101141MD1210111+9999REMSYN066AAXX  06121 33990 42580 33608 10056 21059 30114 40203 52011 83200;
0112339900999992000020615004+44500+034170FM-12+007299999V0203401N003012200019N0300001N1+00411-00711102211ADDGF107991031041008001001011MD1210181+9999REMSYN060AAXX  06151 33990 42580 73403 10041 21071 40221 52018 83401;
0165339900999992000020618004+44500+034170FM-12+007299999V0203201N002012200019N0280001N1+00231-00821102351ADDAA199000091GF102991021051008001001001KA1999M+00671MD1210141+9999REMSYN070AAXX  06181 33990 32578 23202 10023 21082 40235 52014 82500 333 10067;EQDQ01  00002PRCP99
0122339900999992000020621004+44500+034170FM-12+007299999V0203201N002012200019N0280001N1+00231-00821102371ADDGA1001+999999999GF100991001001999999001001MD1110021+9999REMSYN054AAXX  06211 33990 42978 03202 10023 21082 40237 51002;
0143339900999992000020700004+44500+034170FM-12+007299999V0202901N002012200019N0300001N1+00211-01001102441ADDGA1001+999999999GF100991001001999999001001MA1999999101521MD1310041+9999REMSYN060AAXX  07001 33990 42980 02902 10021 21100 30152 40244 53004;
0156339900999992000020703004+44500+034170FM-12+007299999V0202901N001012200019N0300001N1+00191-00621102431ADDGA1001+999999999GF100991001001999999001001GJ104809MD1810011+9999REMSYN080AAXX  07031 33990 42980 02901 10019 21062 40243 58001 333 55080 555 20016 7000/;
0165339900999992000020706004+44500+034170FM-12+007299999V0203401N001012200019N0250001N1+00311-00171102501ADDAA199000091GF103991021051008001001021KA1999N+00151MD1310091+9999REMSYN070AAXX  07061 33990 32575 33401 10031 21017 40250 53009 82502 333 20015;EQDQ01  00002PRCP99
0112339900999992000020709004+44500+034170FM-12+007299999V0201301N002012200019N0300001N1+00771+00041102491ADDGF102991021051008001001001MD1010001+9999REMSYN060AAXX  07091 33990 42580 21302 10077 20004 40249 50000 82500;
0112339900999992000020715004+44500+034170FM-12+007299999V0203601N001010075019N0180001N1+00641+00141102381ADDGF107991071051008001001001MD1410001+9999REMSYN060AAXX  07151 33990 42568 73601 10064 20014 40238 54000 87500;
0175339900999992000020718004+44500+034170FM-12+007299999V0203001N001012200019N0140001N1+00451+00141102341ADDAA199000091GA1001+999999999GF100991001001999999001001KA1999M+00771MD1810041+9999REMSYN064AAXX  07181 33990 32964 03001 10045 20014 40234 58004 333 10077;EQDQ01  00002PRCP99
0122339900999992000020721004+44500+034170FM-12+007299999V0202901N002012200019N0120001N1+00441+00291102311ADDGA1001+999999999GF100991001001999999001001MD1710031+9999REMSYN054AAXX  07211 33990 42962 02902 10044 20029 40231 57003;
0133339900999992000020800004+44500+034170FM-12+007299999V0203501N001012200019N0110001N1+00451+00331102221ADDGF102991021051008001001001MA1999999101331MD1710091+9999REMSYN066AAXX  08001 33990 42561 23501 10045 20033 30133 40222 57009 82500;
0145339900999992000020803004+44500+034170FM-12+007299999V0203501N001012200019N0110001N1+00461+00341102131ADDGF102991021051008001001001GJ104329MD1710091+9999REMSYN085AAXX  08031 33990 42561 23501 10046 20034 40213 57009 82500 333 55072 555 20043 700/;
0165339900999992000020806004+44500+034170FM-12+007299999V0203601N001012200019N0100001N1+00461+00311102171ADDAA199000091GF102991011051008001011001KA1999N+00431MD1010401+9999REMSYN070AAXX  08061 33990 32560 23601 10046 20031 40217 5004/ 81510 333 20043;EQDQ01  00002PRCP99
0112339900999992000020809004+44500+034170FM-12+007299999V0201501N001012200019N0180001N1+00991+00531102141ADDGF102991021061008001001091MD1810021+9999REMSYN060AAXX  08091 33990 42568 21501 10099 20053 40214 58002 82609;
0133339900999992000020812004+44500+034170FM-12+007299999V0201201N002010360019N0200001N1+01061+00511101961ADDGF108991011061008001031091MA1999999101081MD1810181+9999REMSYN066AAXX  08121 33990 42570 81202 10106 20051 30108 40196 58018 81639;
0112339900999992000020815004+44500+034170FM-12+007299999V0202701N002010360019N0220001N1+00841+00411101921ADDGF108991031051008001051011MD1710041+9999REMSYN060AAXX  08151 33990 42572 82702 10084 20041 40192 57004 83551;
0165339900999992000020818004+44500+034170FM-12+007299999V0201001N001019999999N0240001N1+00671+00441101931ADDAA199000091GF106991061001999999031001KA1999M+01131MD1010011+9999REMSYN070AAXX  08181 33990 32974 61001 10067 20044 40193 50001 86030 333 10113;EQDQ01  00002PRCP99
0112339900999992000020821004+44500+034170FM-12+007299999V0209999C000012200019N0230001N1+00581+00371101821ADDGF103991031001999999031001MD1810121+9999REMSYN060AAXX  08211 33990 42973 30000 10058 20037 40182 58012 83030;
0143339900999992000020900004+44500+034170FM-12+007299999V0209999C000012200019N0230001N1+00551+00331101651ADDGA1001+999999999GF100991001001999999001001MA1999999100761MD1710171+9999REMSYN060AAXX  09001 33990 42973 00000 10055 20033 30076 40165 57017;
0156339900999992000020903004+44500+034170FM-12+007299999V0203001N002012200019N0250001N1+00461+00241101511ADDGA1001+999999999GF100991001001999999001001GJ104389MD1610141+9999REMSYN080AAXX  09031 33990 42975 03002 10046 20024 40151 56014 333 55073 555 20045 7000/;
0165339900999992000020906004+44500+034170FM-12+007299999V0203301N001019999999N0190001N1+00561+00321101461ADDAA199000091GF107991001001999999001011KA1999N+00421MD1610051+9999REMSYN070AAXX  09061 33990 32969 73301 10056 20032 40146 56005 80001 333 20042;EQDQ01  00002PRCP99
0112339900999992000020909004+44500+034170FM-12+007299999V0200401N001019999999N0170001N1+01111+00461101351ADDGF107991021001999999041011MD1710091+9999REMSYN060AAXX  09091 33990 42967 70401 10111 20046 40135 57009 82041;
0133339900999992000020912004+44500+034170FM-12+007299999V0200501N002010360019N0120001N1+01481+00641101171ADDGF107991011051008001031021MA1999999100321MD1710161+9999REMSYN066AAXX  09121 33990 42562 70502 10148 20064 30032 40117 57016 81532;
0112339900999992000020915004+44500+034170FM-12+007299999V0203301N002019999999N0120001N1+00991+00591101261ADDGF107991021001999999041021MD1310071+9999REMSYN060AAXX  09151 33990 42962 73302 10099 20059 40126 53007 82042;
0165339900999992000020918004+44500+034170FM-12+007299999V0203401N001019999999N0110001N1+00841+00621101451ADDAA199000091GF108991081001999999071999KA1999M+01491MD1210181+9999REMSYN070AAXX  09181 33990 32961 83401 10084 20062 40145 52018 8807/ 333 10149;EQDQ01  00002PRCP99
0112339900999992000020921004+44500+034170FM-12+007299999V0203301N001019999999N0110001N1+00771+00581101561ADDGF108991081001999999071999MD1210111+9999REMSYN060AAXX  09211 33990 42961 83301 10077 20058 40156 52011 8807/;
0138339900999992000021003004+44500+034170FM-12+007299999V0203001N001010075019N0100001N1+00791+00641101691ADDGF106991061051008001001001MD1210051+9999REMSYN086AAXX  10031 33990 42560 63001 10079 20064 40169 52005 86500 333 55056 555 20073 7000/;
0165339900999992000021006004+44500+034170FM-12+007299999V0203301N002010360019N0100001N1+00781+00701101891ADDAA199000091GF107991021051008001031001KA1999N+00711MD1310201+9999REMSYN070AAXX  10061 33990 32560 73302 10078 20070 40189 53020 82530 333 20071;EQDQ01  00002PRCP99
0112339900999992000021009004+44500+034170FM-12+007299999V0200301N002010360019N0100001N1+01091+00711102011ADDGF106991031021012501031001MD1210121+9999REMSYN060AAXX  10091 33990 42660 60302 10109 20071 40201 52012 83230;
0133339900999992000021012004+44500+034170FM-12+007299999V0203601N001010120019N0100001N1+01131+00801102011ADDGF108991081091012501999999MA1999999101151MD1110021+9999REMSYN066AAXX  10121 33990 42660 83601 10113 20080 30115 40201 51002 889//;
0140339900999992000021015004+44500+034170FM-12+007299999V0200301N001010360019N0110001N1+00991+00781102101ADDAY181031AY221031GF107991021021012501031001MD1210071+9999MW1021REMSYN066AAXX  10151 33990 41661 70301 10099 20078 40210 52007 70282 82230;
0180339900999992000021018004+44500+034170FM-12+007299999V0200901N001010120019N0100001N1+00841+00731102241ADDAA112000191AY181061AY221061GF108991081031012501999999KA1999M+01321MD1210141+9999MW1021REMSYN082AAXX  10181 33990 11660 80901 10084 20073 40224 52014 69912 70282 883// 333 10132;
0166339900999992000021021004+44500+034170FM-12+007299999V0203401N001010030019N0100001N1+00781+00701102271ADDAY181031AY221031GA1081+003009069GF108991081061002501999999MD1210031+9999MW1021REMSYN076AAXX  10211 33990 41360 83401 10078 20070 40227 52003 70282 886// 333 88710;
0187339900999992000021100004+44500+034170FM-12+007299999V0200601N001010021019N0050001N1+00741+00671102281ADDAY181061AY221061GA1081+002109069GF108991081061002501999999MA1999999101421MD1210031+9999MW1101REMSYN082AAXX  11001 33990 41350 80601 10074 20067 30142 40228 52003 71082 886// 333 88707;
0166339900999992000021103004+44500+034170FM-12+007299999V0200901N001010021019N0045001N1+00681+00611102331ADDAY121031AY221031GF108991081061002501999999MD1210031+9999MW1101REMSYN092AAXX  11031 33990 41345 80901 10068 20061 40233 52003 71022 886// 333 55028 555 20068 7991/;
0194339900999992000021106004+44500+034170FM-12+007299999V0200601N001010006019N0007001N1+00641+00601102471ADDAA109006192AA248006092AY151061AY241061GA1091+999999999GF109991091999999999999999MD1210141+9999MW1511REMSYN082AAXX  11061 33990 11/07 90601 10064 20060 40247 52014 69912 75154 333 60068 96047;
0106339900999992000021109004+44500+034170FM-12+007299999V0200401N002019999999N0017001N1+00421+00051102561ADDGF108991999999004501999999MD1210111+9999REMSYN054AAXX  11091 33990 41417 80402 10042 20005 40256 52011;
0161339900999992000021112004+44500+034170FM-12+007299999V0200901N002010042019N0140001N1+00681+00401102571ADDAY151061AY241061GF108991081061004501999999MA1999999101681MD1210031+9999MW1021REMSYN072AAXX  11121 33990 41464 80902 10068 20040 30168 40257 52003 70254 886//;
0112339900999992000021115004+44500+034170FM-12+007299999V0202701N001010042019N0150001N1+00641+00411102641ADDGF108991081061004501999999MD1210061+9999REMSYN060AAXX  11151 33990 42465 82701 10064 20041 40264 52006 886//;
0152339900999992000021118004+44500+034170FM-12+007299999V0203001N002010042019N0150001N1+00541+00401102811ADDAA112000391GF106991061061004501001001KA1999M+00691MD1210171+9999REMSYN076AAXX  11181 33990 12465 63002 10054 20040 40281 52017 69932 86600 333 10069;
0122339900999992000021121004+44500+034170FM-12+007299999V0202701N002012200019N0140001N1+00351+00221102831ADDGA1001+999999999GF100991001001999999001001MD1110021+9999REMSYN054AAXX  11211 33990 42964 02702 10035 20022 40283 51002;
0143339900999992000021200004+44500+034170FM-12+007299999V0202701N001012200019N0220001N1+00351-00251102841ADDGA1001+999999999GF100991001001999999001001MA1999999101941MD1210011+9999REMSYN060AAXX  12001 33990 42972 02701 10035 21025 30194 40284 52001;
0156339900999992000021203004+44500+034170FM-12+007299999V0202901N002012200019N0230001N1+00331-00421102821ADDGA1001+999999999GF100991001001999999001001GJ100009MD1810021+9999REMSYN080AAXX  12031 33990 42973 02902 10033 21042 40282 58002 333 55000 555 20025 7994/;
0175339900999992000021206004+44500+034170FM-12+007299999V0202701N002012200019N0260001N1+00531-00431102891ADDAA199000091GA1001+999999999GF100991001001999999001001KA1999N+00251MD1310071+9999REMSYN064AAXX  12061 33990 32976 02702 10053 21043 40289 53007 333 20025;EQDQ01  00002PRCP99
0112339900999992000021209004+44500+034170FM-12+007299999V0200901N002012200019N0250001N1+00841+00061102861ADDGF101991011001999999031001MD1810021+9999REMSYN060AAXX  12091 33990 42975 10902 10084 20006 40286 58002 81030;
0113339900999992000021212004+44500+034170FM-12+007299999V0201201N002012200019N0230001N1+00861+00191102711ADDGF101991011001999999031001MA1999999101821REMSYN060AAXX  12121 33990 42973 11202 10086 20019 30182 40271 81030;
0122339900999992000021215004+44500+034170FM-12+007299999V0202401N001012200019N0200001N1+00561+00161102641ADDGA1001+999999999GF100991001001999999001001MD1710081+9999REMSYN054AAXX  12151 33990 42970 02401 10056 20016 40264 57008;
0165339900999992000021218004+44500+034170FM-12+007299999V0202901N002012200019N0190001N1+00411-00051102661ADDAA199000091GF102991021061008001001001KA1999M+00911MD1310021+9999REMSYN070AAXX  12181 33990 32569 22902 10041 21005 40266 53002 82600 333 10091;EQDQ01  00002PRCP99
0122339900999992000021221004+44500+034170FM-12+007299999V0203001N001012200019N0200001N1+00361-00141102561ADDGA1001+999999999GF100991001001999999001001MD1810101+9999REMSYN054AAXX  12211 33990 42970 03001 10036 21014 40256 58010;
0143339900999992000021300004+44500+034170FM-12+007299999V0202501N001012200019N0200001N1+00341-00161102481ADDGA1001+999999999GF100991001001999999001001MA1999999101581MD1710081+9999REMSYN060AAXX  13001 33990 42970 02501 10034 21016 30158 40248 57008;
0156339900999992000021303004+44500+034170FM-12+007299999V0203101N002012200019N0170001N1+00231-00101102341ADDGA1001+999999999GF100991001001999999001001GJ104809MD1710131+9999REMSYN080AAXX  13031 33990 42967 03102 10023 21010 40234 57013 333 55080 555 20021 7000/;
0165339900999992000021306004+44500+034170FM-12+007299999V0209999C000012200019N0190001N1+00291-00101102321ADDAA199000091GF102991021051012501001001KA1999N+00191MD1510021+9999REMSYN070AAXX  13061 33990 32669 20000 10029 21010 40232 55002 82500 333 20019;EQDQ01  00002PRCP99
0112339900999992000021309004+44500+034170FM-12+007299999V0201001N002010120019N0220001N1+00761+00021102241ADDGF106991061081008001001001MD1810071+9999REMSYN060AAXX  13091 33990 42572 61002 10076 20002 40224 58007 86800;
0133339900999992000021312004+44500+034170FM-12+007299999V0201201N002010075019N0220001N1+00661-00011102121ADDGF105991051021008001001001MA1999999101231MD1710131+9999REMSYN066AAXX  13121 33990 42572 51202 10066 21001 30123 40212 57013 85200;
0112339900999992000021315004+44500+034170FM-12+007299999V0201101N001010075019N0200001N1+00561+00071102101ADDGF107991071051008001001001MD1610021+9999REMSYN060AAXX  13151 33990 42570 71101 10056 20007 40210 56002 87500;
0187339900999992000021318004+44500+034170FM-12+007299999V0201401N002010045019N0160001N1+00511+00211102121ADDAA199000091GA1081+004509069GF108991081061004501999999KA1120M+00801MD1310021+9999REMSYN076AAXX  13181 33990 32466 81402 10051 20021 40212 53002 886// 333 10080 88715;EQDQ01  00002PRCP99
0138339900999992000021321004+44500+034170FM-12+007299999V0201301N002010066019N0170001N1+00451+00031102131ADDGA1081+006609059GF108991081051008001999999MD1110011+9999REMSYN070AAXX  13211 33990 42567 81302 10045 20003 40213 51001 885// 333 88622;
0133339900999992000021400004+44500+034170FM-12+007299999V0201401N002010042019N0140001N1+00401+00091102111ADDGF108991081061004501999999MA1999999101221MD1810021+9999REMSYN066AAXX  14001 33990 42464 81402 10040 20009 30122 40211 58002 886//;
0168339900999992000021403004+44500+034170FM-12+007299999V0203601N002010048019N0140001N1+00381+00091102051ADDGA1081+004809079GF108991081061004501999999GJ103549MD1710061+9999REMSYN092AAXX  14031 33990 42464 83602 10038 20009 40205 57006 886// 333 55059 88716 555 20038 7000/;
0187339900999992000021406004+44500+034170FM-12+007299999V0200301N002010066019N0150001N1+00381+00041102051ADDAA199000091GA1081+006609059GF108991081051008001999999KA1120N+00351MD1510001+9999REMSYN076AAXX  14061 33990 32565 80302 10038 20004 40205 55000 885// 333 20035 88622;EQDQ01  00002PRCP99
0161339900999992000021412004+44500+034170FM-12+007299999V0202101N001010042019N0110001N1+00311+00181101941ADDAY181061AY291061GF108991081091004501999999MA1999999101051MD1810121+9999MW1801REMSYN072AAXX  14121 33990 41461 82101 10031 20018 30105 40194 58012 78089 889//;
0140339900999992000021415004+44500+034170FM-12+007299999V0202901N002010042019N0120001N1+00271+00171101851ADDAY181031AY221031GF108991081091004501999999MD1210091+9999MW1021REMSYN066AAXX  14151 33990 41462 82902 10027 20017 40185 52009 70282 889//;
0146339900999992000021418004+44500+034170FM-12+007299999V0209999C000019999999N0150001N1+00281+00181101851ADDAA112003091GF108991999999008001999999KA1999M+00391MD1410001+9999REMSYN070AAXX  14181 33990 11565 80000 10028 20018 40185 54000 60032 333 10039;
0134339900999992000021421004+44500+034170FM-12+007299999V0202801N001019999999N0170001N1+00231+00151101791ADDAY181031AY221031GF108991999999004501999999MD1810061+9999MW1801REMSYN060AAXX  14211 33990 41467 82801 10023 20015 40179 58006 78082;
0203339900999992000021500004+44500+034170FM-12+007299999V0203001N002010360019N0220001N1+00281+00181101711ADDAY181061AY221061GF108991031091008001051999KA1999N+99999MA1999999100821MD1710081+9999MW1021REMSYN082AAXX  15001 33990 41572 83002 10028 20018 30082 40171 57008 70282 8395/ 333 27102;EQDQ01 +01022ATMN  
0138339900999992000021503004+44500+034170FM-12+007299999V0202801N002012200019N0290001N1+00211+00081101601ADDGF102991021001999999031001MD1610111+9999REMSYN086AAXX  15031 33990 42979 22802 10021 20008 40160 56011 82030 333 55000 555 20020 7006/;
0152339900999992000021506004+44500+034170FM-12+007299999V0202901N002019999999N0200001N1+00231+00041101611ADDAA112003091GF107991071001999999071001KA1999N+00201MD1310011+9999REMSYN076AAXX  15061 33990 12970 72902 10023 20004 40161 53001 60032 87070 333 20020;
0112339900999992000021509004+44500+034170FM-12+007299999V0200901N002012200019N0180001N1+00701+00131101601ADDGF104991021021012501001011MD1410001+9999REMSYN060AAXX  15091 33990 42668 40902 10070 20013 40160 54000 82201;
0161339900999992000021512004+44500+034170FM-12+007299999V0201501N001010120019N0180001N1+00661+00141101621ADDAY181061AY211061GF106991051031012501001011MA1999999100731MD1210011+9999MW1021REMSYN072AAXX  15121 33990 41668 61501 10066 20014 30073 40162 52001 70281 85301;
0112339900999992000021515004+44500+034170FM-12+007299999V0203401N001012200019N0160001N1+00521+00201101651ADDGF105991031021008001001011MD1210031+9999REMSYN060AAXX  15151 33990 42566 53401 10052 20020 40165 52003 83201;
0152339900999992000021518004+44500+034170FM-12+007299999V0202901N001012200019N0150001N1+00371+00141101711ADDAA112000791GF101991011051012501001001KA1999M+00761MD1210061+9999REMSYN076AAXX  15181 33990 12665 12901 10037 20014 40171 52006 69902 81500 333 10076;
0122339900999992000021521004+44500+034170FM-12+007299999V0202701N001012200019N0180001N1+00271-00051101731ADDGA1001+999999999GF100991001001999999001001MD1210021+9999REMSYN054AAXX  15211 33990 42968 02701 10027 21005 40173 52002;
0143339900999992000021600004+44500+034170FM-12+007299999V0202901N001012200019N0190001N1+00271-00191101731ADDGA1001+999999999GF100991001001999999001001MA1999999100841MD1410001+9999REMSYN060AAXX  16001 33990 42969 02901 10027 21019 30084 40173 54000;
0156339900999992000021603004+44500+034170FM-12+007299999V0202901N001012200019N0200001N1+00251-00241101741ADDGA1001+999999999GF100991001001999999001001GJ102289MD1210011+9999REMSYN080AAXX  16031 33990 42970 02901 10025 21024 40174 52001 333 55038 555 20019 7990/;
0165339900999992000021606004+44500+034170FM-12+007299999V0201801N001012200019N0200001N1+00271-00221101771ADDAA199000091GF102991011001999999041011KA1999N+00191MD1210031+9999REMSYN070AAXX  16061 33990 32970 21801 10027 21022 40177 52003 81041 333 20019;EQDQ01  00002PRCP99
0112339900999992000021609004+44500+034170FM-12+007299999V0200901N003012200019N0220001N1+00661+00171101801ADDGF103991031021008001001001MD1310031+9999REMSYN060AAXX  16091 33990 42572 30903 10066 20017 40180 53003 83200;
0159339900999992000021612004+44500+034170FM-12+007299999V0201201N002010039019N0130001N1+00581+00261101791ADDGA1081+003909069GF108991081061004501999999MA1999999100901MD1810011+9999REMSYN076AAXX  16121 33990 42463 81202 10058 20026 30090 40179 58001 886// 333 88713;
0112339900999992000021615004+44500+034170FM-12+007299999V0202101N001010042019N0120001N1+00481+00281101791ADDGF108991081061004501999999MD1410001+9999REMSYN060AAXX  16151 33990 42462 82101 10048 20028 40179 54000 886//;
0187339900999992000021618004+44500+034170FM-12+007299999V0203201N001010036019N0130001N1+00471+00301101841ADDAA199000091GA1081+003609069GF108991081061004501999999KA1120M+00751MD1110051+9999REMSYN076AAXX  16181 33990 32463 83201 10047 20030 40184 51005 886// 333 10075 88712;EQDQ01  00002PRCP99
0140339900999992000021621004+44500+034170FM-12+007299999V0203401N001010075019N0080001N1+00461+00391101881ADDAY181031AY221031GF108991081091008001999999MD1310041+9999MW1801REMSYN066AAXX  16211 33990 41558 83401 10046 20039 40188 53004 78082 889//;
0161339900999992000021700004+44500+034170FM-12+007299999V0202701N001010075019N0100001N1+00371+00301101841ADDAY181061AY221061GF108991081091008001999999MA1999999100951MD1810041+9999MW1801REMSYN072AAXX  17001 33990 41560 82701 10037 20030 30095 40184 58004 78082 889//;
0166339900999992000021703004+44500+034170FM-12+007299999V0202901N002010075019N0130001N1+00251+00151101841ADDAY181031AY221031GF106991061051008001001001MD1410001+9999MW1021REMSYN092AAXX  17031 33990 41563 62902 10025 20015 40184 54000 70282 86500 333 55043 555 20023 7002/;
0202339900999992000021706004+44500+034170FM-12+007299999V0203601N002010054019N0120001N1+00381+00261101841ADDAA112002091AY181061AY221061GA1081+005409099GF108991081091004501999999KA1120N+00231MD1410001+9999MW1251REMSYN088AAXX  17061 33990 11462 83602 10038 20026 40184 54000 60022 72582 889// 333 20023 88918;
0133339900999992000021712004+44500+034170FM-12+007299999V0201301N002010042019N0180001N1+00581+00241101731ADDGF108991081091004501999999MA1999999100841MD1810131+9999REMSYN066AAXX  17121 33990 42468 81302 10058 20024 30084 40173 58013 889//;
0122339900999992000021715004+44500+034170FM-12+007299999V0203301N001012200019N0210001N1+00431+00181101681ADDGA1001+999999999GF100991001001999999001001MD1810051+9999REMSYN054AAXX  17151 33990 42971 03301 10043 20018 40168 58005;
0146339900999992000021718004+44500+034170FM-12+007299999V0202901N002019999999N0270001N1+00311-00011101701ADDAA199000021GF105991001001999999001011KA1999M+00581MD1210021+9999REMSYN070AAXX  17181 33990 32977 52902 10031 21001 40170 52002 80001 333 10058;
0112339900999992000021721004+44500+034170FM-12+007299999V0202901N001019999999N0300001N1+00291-00221101631ADDGF108991021001999999041051MD1610071+9999REMSYN060AAXX  17211 33990 42980 82901 10029 21022 40163 56007 82045;
0133339900999992000021800004+44500+034170FM-12+007299999V0203101N002019999999N0280001N1+00351-00091101631ADDGF108991001001999999001011MA1999999100741MD1510001+9999REMSYN066AAXX  18001 33990 42978 83102 10035 21009 30074 40163 55000 80001;
0138339900999992000021803004+44500+034170FM-12+007299999V0203001N001019999999N0240001N1+00451+00091101461ADDGF108991081001999999051999MD1710171+9999REMSYN086AAXX  18031 33990 42974 83001 10045 20009 40146 57017 8805/ 333 55000 555 20025 7990/;
0165339900999992000021806004+44500+034170FM-12+007299999V0202401N002019999999N0230001N1+00581+00241101431ADDAA199000091GF108991081001999999051999KA1999N+00251MD1610031+9999REMSYN070AAXX  18061 33990 32973 82402 10058 20024 40143 56003 8805/ 333 20025;EQDQ01  00002PRCP99
0112339900999992000021809004+44500+034170FM-12+007299999V0203301N001019999999N0180001N1+00901+00381101321ADDGF107991061001999999051021MD1810091+9999REMSYN060AAXX  18091 33990 42968 73301 10090 20038 40132 58009 86052;
0133339900999992000021812004+44500+034170FM-12+007299999V0201101N004019999999N0180001N1+00841+00581101161ADDGF107991031001999999041021MA1999999100291MD1710161+9999REMSYN066AAXX  18121 33990 42968 71104 10084 20058 30029 40116 57016 83042;
0112339900999992000021815004+44500+034170FM-12+007299999V0202001N001019999999N0170001N1+00781+00581101101ADDGF107991071001999999071001MD1710061+9999REMSYN060AAXX  18151 33990 42967 72001 10078 20058 40110 57006 87070;
0165339900999992000021818004+44500+034170FM-12+007299999V0202201N001019999999N0150001N1+00681+00471101071ADDAA199000091GF107991041001999999031021KA1999M+01031MD1610031+9999REMSYN070AAXX  18181 33990 32965 72201 10068 20047 40107 56003 84032 333 10103;EQDQ01  00002PRCP99
0112339900999992000021821004+44500+034170FM-12+007299999V0203101N002019999999N0160001N1+00651+00371100931ADDGF108991081001999999071999MD1810161+9999REMSYN060AAXX  18211 33990 42966 83102 10065 20037 40093 58016 8807/;
0133339900999992000021900004+44500+034170FM-12+007299999V0202401N001012200019N0170001N1+00551+00361100771ADDGF102991021001999999041001MA1999999099881MD1710161+9999REMSYN066AAXX  19001 33990 42967 22401 10055 20036 39988 40077 57016 82040;
0138339900999992000021903004+44500+034170FM-12+007299999V0202401N002010360019N0220001N1+00951+00301100551ADDGF107991021051012501031001MD1710201+9999REMSYN086AAXX  19031 33990 42672 72402 10095 20030 40055 57020 82530 333 55025 555 20054 7000/;
0165339900999992000021906004+44500+034170FM-12+007299999V0202301N001019999999N0240001N1+00801+00411100491ADDAA199000091GF107991061001999999031021KA1999N+00541MD1610061+9999REMSYN070AAXX  19061 33990 32974 72301 10080 20041 40049 56006 86032 333 20054;EQDQ01  00002PRCP99
0140339900999992000021909004+44500+034170FM-12+007299999V0203001N001010360019N0170001N1+00891+00771100541ADDAY181031AY221031GF108991021091008001051999MD1310041+9999MW1801REMSYN066AAXX  19091 33990 41567 83001 10089 20077 40054 53004 78082 8295/;
0161339900999992000021912004+44500+034170FM-12+007299999V0202101N003010042019N0150001N1+00901+00641100531ADDAY181061AY221061GF108991061091004501051999MA1999999099661MD1510001+9999MW1021REMSYN072AAXX  19121 33990 41465 82103 10090 20064 39966 40053 55000 70282 8695/;
0112339900999992000021915004+44500+034170FM-12+007299999V0202101N003010360019N0230001N1+00751+00211100621ADDGF108991021061008001031011MD1210091+9999REMSYN060AAXX  19151 33990 42573 82103 10075 20021 40062 52009 82631;
0152339900999992000021918004+44500+034170FM-12+007299999V0202401N003012200019N0350001N1+00521-00101100921ADDAA112001091GF103991031001999999031001KA1999M+01151MD1210281+9999REMSYN076AAXX  19181 33990 12981 32403 10052 21010 40092 52028 60012 83030 333 10115;
0112339900999992000021921004+44500+034170FM-12+007299999V0202301N003010075019N0260001N1+00491-00141101101ADDGF106991061061008001001001MD1210181+9999REMSYN060AAXX  19211 33990 42576 62303 10049 21014 40110 52018 86600;
0133339900999992000022000004+44500+034170FM-12+007299999V0202101N002010360019N0290001N1+00381-00541101331ADDGF105991021041012501051001MA1999999100441MD1210231+9999REMSYN066AAXX  20001 33990 42679 52102 10038 21054 30044 40133 52023 82450;
0138339900999992000022003004+44500+034170FM-12+007299999V0202201N002012200019N0300001N1+00401-00431101451ADDGF103991021041012501041001MD1210121+9999REMSYN086AAXX  20031 33990 42680 32202 10040 21043 40145 52012 82440 333 55008 555 20037 7001/;
0165339900999992000022006004+44500+034170FM-12+007299999V0201801N001010360019N0220001N1+00591-00201101611ADDAA199000091GF105991021041012501031001KA1999N+00341MD1310161+9999REMSYN070AAXX  20061 33990 32672 51801 10059 21020 40161 53016 82430 333 20034;EQDQ01  00002PRCP99
0140339900999992000022009004+44500+034170FM-12+007299999V0202101N001010120019N0170001N1+00631+00211101721ADDAY181031AY221031GF108991081091012501999999MD1210111+9999MW1801REMSYN066AAXX  20091 33990 41667 82101 10063 20021 40172 52011 78082 889//;
0161339900999992000022012004+44500+034170FM-12+007299999V0201801N001010120019N0180001N1+00651+00321101681ADDAY181061AY221061GF107991071031012501001011MA1999999100791MD1810041+9999MW1021REMSYN072AAXX  20121 33990 41668 71801 10065 20032 30079 40168 58004 70282 87301;
0112339900999992000022015004+44500+034170FM-12+007299999V0201601N001010075019N0170001N1+00601+00361101711ADDGF106991061051008001001001MD1310031+9999REMSYN060AAXX  20151 33990 42567 61601 10060 20036 40171 53003 86500;
0152339900999992000022018004+44500+034170FM-12+007299999V0203001N001010120019N0230001N1+00561+00291101721ADDAA112001091GF108991081051012501999999KA1999M+00671MD1210011+9999REMSYN076AAXX  20181 33990 12673 83001 10056 20029 40172 52001 60012 885// 333 10067;
0112339900999992000022021004+44500+034170FM-12+007299999V0203201N001019999999N0200001N1+00541+00081101581ADDGF107991071001999999071001MD1810141+9999REMSYN060AAXX  20211 33990 42970 73201 10054 20008 40158 58014 87070;
0133339900999992000022100004+44500+034170FM-12+007299999V0200501N003019999999N0200001N1+00641+00301101401ADDGF107991071001999999011001MA1999999100511MD1710181+9999REMSYN066AAXX  21001 33990 41970 70503 10064 20030 30051 40140 57018 87010;
0166339900999992000022103004+44500+034170FM-12+007299999V0203601N001010075019N0110001N1+00581+00371101151ADDAY181031AY221031GF108991081091008001999999MD1710251+9999MW1801REMSYN092AAXX  21031 33990 41561 83601 10058 20037 40115 57025 78082 889// 333 55015 555 20052 7002/;
0180339900999992000022106004+44500+034170FM-12+007299999V0203001N002010075019N0100001N1+00501+00431100921ADDAA112006191AY181061AY221061GF108991081091008001999999KA1999N+00501MD1710231+9999MW1801REMSYN082AAXX  21061 33990 11560 83002 10050 20043 40092 57023 60062 78082 889// 333 20050;
0140339900999992000022109004+44500+034170FM-12+007299999V0200501N002010075019N0170001N1+00591+00471100731ADDAY181031AY221031GF108991081091008001999999MD1710191+9999MW1021REMSYN066AAXX  21091 33990 41567 80502 10059 20047 40073 57019 70282 889//;
0161339900999992000022112004+44500+034170FM-12+007299999V0202701N001010075019N0027001N1+00661+00591100601ADDAY181061AY221061GF108991081091008001999999MA1999999099731MD1710111+9999MW1811REMSYN072AAXX  21121 33990 41527 82701 10066 20059 39973 40060 57011 78182 889//;
0140339900999992000022115004+44500+034170FM-12+007299999V0201501N001010021019N0030001N1+00701+00651100571ADDAY181031AY281031GF108991081091002501999999MD1710031+9999MW1801REMSYN066AAXX  21151 33990 41330 81501 10070 20065 40057 57003 78088 889//;
0180339900999992000022118004+44500+034170FM-12+007299999V0200701N001012200019N0120001N1+00541+00491100551ADDAA112008991AY181061AY221061GF107991041091008001001011KA1999M+00721MD1710041+9999MW1021REMSYN082AAXX  21181 33990 11562 70701 10054 20049 40055 57004 60092 70282 84901 333 10072;
0112339900999992000022121004+44500+034170FM-12+007299999V0202301N003010360019N0180001N1+00461-00081100661ADDGF105991031051008001031001MD1310111+9999REMSYN060AAXX  21211 33990 42568 52303 10046 21008 40066 53011 83530;
0138339900999992000022203004+44500+034170FM-12+007299999V0203201N002012200019N0240001N1+00191-00281101111ADDGF102991021051008001001001MD1210291+9999REMSYN086AAXX  22031 33990 42574 23202 10019 21028 40111 52029 82500 333 55000 555 20019 7014/;
0165339900999992000022206004+44500+034170FM-12+007299999V0203401N002010075019N0210001N1+00241-00501101351ADDAA199000091GF105991051051008001001001KA1999N+00151MD1210241+9999REMSYN070AAXX  22061 33990 32571 53402 10024 21050 40135 52024 85500 333 20015;EQDQ01  00002PRCP99
0112339900999992000022209004+44500+034170FM-12+007299999V0203201N002010075019N0270001N1+00531-00471101471ADDGF106991061051008001001001MD1210121+9999REMSYN060AAXX  22091 33990 42577 63202 10053 21047 40147 52012 86500;
0133339900999992000022212004+44500+034170FM-12+007299999V0203001N002010075019N0290001N1+00501-00561101521ADDGF106991061051008001001001MA1999999100631MD1110051+9999REMSYN066AAXX  22121 33990 42579 63002 10050 21056 30063 40152 51005 86500;
0112339900999992000022215004+44500+034170FM-12+007299999V0203601N002012200019N0270001N1+00161-00791101681ADDGF103991031051008001001001MD1310141+9999REMSYN060AAXX  22151 33990 42577 33602 10016 21079 40168 53014 83500;
0175339900999992000022218004+44500+034170FM-12+007299999V0203001N003012200019N0210001N1-00051-00791101831ADDAA199000091GA1001+999999999GF100991001001999999001001KA1999M+00581MD1110151+9999REMSYN064AAXX  22181 33990 32971 03003 11005 21079 40183 51015 333 10058;EQDQ01  00002PRCP99
0122339900999992000022221004+44500+034170FM-12+007299999V0202901N004012200019N0210001N1-00061-00851101901ADDGA1001+999999999GF100991001001999999001001MD1210071+9999REMSYN054AAXX  22211 33990 42971 02904 11006 21085 40190 52007;
0133339900999992000022300004+44500+034170FM-12+007299999V0202801N002010075019N0220001N1-00071-00911101981ADDGF107991071051008001001001MA1999999101071MD1210081+9999REMSYN066AAXX  23001 33990 42572 72802 11007 21091 30107 40198 52008 87500;
0138339900999992000022303004+44500+034170FM-12+007299999V0202801N002010075019N0220001N1-00041-00911102011ADDGF108991081051008001999999MD1210031+9999REMSYN086AAXX  23031 33990 42572 82802 11004 21091 40201 52003 885// 333 55082 555 21007 7000/;
0165339900999992000022306004+44500+034170FM-12+007299999V0200401N001010075019N0200001N1+00071-00661102221ADDAA199000091GF106991061051008001001001KA1999N-00071MD1210211+9999REMSYN070AAXX  23061 33990 32570 60401 10007 21066 40222 52021 86500 333 21007;EQDQ01  00002PRCP99
0112339900999992000022309004+44500+034170FM-12+007299999V0201201N002010120019N0250001N1+00291-00441102331ADDGF106991061081008001001001MD1210131+9999REMSYN060AAXX  23091 33990 42575 61202 10029 21044 40233 52013 86800;
0133339900999992000022312004+44500+034170FM-12+007299999V0201301N002010075019N0270001N1+00291-00361102371ADDGF106991061051008001001001MA1999999101481MD1110041+9999REMSYN066AAXX  23121 33990 42577 61302 10029 21036 30148 40237 51004 86500;
0112339900999992000022315004+44500+034170FM-12+007299999V0201301N002010075019N0270001N1+00171-00341102571ADDGF106991061051008001001001MD1310171+9999REMSYN060AAXX  23151 33990 42577 61302 10017 21034 40257 53017 86500;
0180339900999992000022318004+44500+034170FM-12+007299999V0201201N001010075019N0200001N1+00151-00401102691ADDAA112000791AY121061AY221061GF107991071091008001001001KA1999M+00461MD1210121+9999MW1271REMSYN082AAXX  23181 33990 11570 71201 10015 21040 40269 52012 69902 72722 87900 333 10046;
0140339900999992000022321004+44500+034170FM-12+007299999V0202801N001010075019N0240001N1+00101-00431102771ADDAY181031AY221031GF107991071031008001001001MD1210081+9999MW1021REMSYN066AAXX  23211 33990 41574 72801 10010 21043 40277 52008 70282 87300;
0133339900999992000022400004+44500+034170FM-12+007299999V0203001N002010075019N0250001N1+00061-00441102801ADDGF107991071051008001001001MA1999999101881MD1110031+9999REMSYN066AAXX  24001 33990 42575 73002 10006 21044 30188 40280 51003 87500;
0138339900999992000022403004+44500+034170FM-12+007299999V0203001N001010120019N0200001N1+00091-00371102781ADDGF107991071081008001001001MD1810021+9999REMSYN086AAXX  24031 33990 42570 73001 10009 21037 40278 58002 87800 333 55043 555 20002 7990/;
0180339900999992000022406004+44500+034170FM-12+007299999V0202901N001010075019N0210001N1+00121-00261102891ADDAA112000791AY121061AY221061GF107991071091008001001001KA1999N+00021MD1310111+9999MW1261REMSYN082AAXX  24061 33990 11571 72901 10012 21026 40289 53011 69902 72622 87900 333 20002;
0140339900999992000022409004+44500+034170FM-12+007299999V0200601N003010075019N0230001N1+00291-00191102921ADDAY181031AY221031GF108991051091008001051999MD1110051+9999MW1021REMSYN066AAXX  24091 33990 41573 80603 10029 21019 40292 51005 70282 8595/;
0161339900999992000022412004+44500+034170FM-12+007299999V0200801N002010075019N0190001N1+00241-00191102881ADDAY181061AY221061GF108991061091008001051999MA1999999101981MD1610041+9999MW1851REMSYN072AAXX  24121 33990 41569 80802 10024 21019 30198 40288 56004 78582 8695/;
0140339900999992000022415004+44500+034170FM-12+007299999V0202101N002010042019N0160001N1+00191-00121102841ADDAY181031AY221031GF108991061091004501051999MD1710041+9999MW1851REMSYN066AAXX  24151 33990 41466 82102 10019 21012 40284 57004 78582 8695/;
0180339900999992000022418004+44500+034170FM-12+007299999V0203001N001010042019N0180001N1+00121-00051102871ADDAA112000191AY181061AY221061GF108991081091004501999999KA1999M+00391MD1210011+9999MW1851REMSYN082AAXX  24181 33990 11468 83001 10012 21005 40287 52001 69922 78582 889// 333 10039;
0140339900999992000022421004+44500+034170FM-12+007299999V0203301N001010075019N0190001N1+00091-00051102851ADDAY181031AY221031GF108991081091008001999999MD1810021+9999MW1851REMSYN066AAXX  24211 33990 41569 83301 10009 21005 40285 58002 78582 889//;
0161339900999992000022500004+44500+034170FM-12+007299999V0202901N001010360019N0270001N1-00021-00331102781ADDAY181061AY221061GF106991031051012501031001MA1999999101861MD1810071+9999MW1021REMSYN072AAXX  25001 33990 41677 62901 11002 21033 30186 40278 58007 70282 83530;
0138339900999992000022503004+44500+034170FM-12+007299999V0202701N002012200019N0350001N1+00001-00591102761ADDGF102991021041012501001001MD1610021+9999REMSYN086AAXX  25031 33990 42681 22702 10000 21059 40276 56002 82400 333 55007 555 21003 7995/;
0152339900999992000022506004+44500+034170FM-12+007299999V0201901N002012200019N0280001N1+00121-00761102761ADDAA112000391GF102991021041012501001001KA1999N-00081MD1510001+9999REMSYN076AAXX  25061 33990 12678 21902 10012 21076 40276 55000 69932 82400 333 21008;
0112339900999992000022509004+44500+034170FM-12+007299999V0201201N002012200019N0280001N1+00431-00861102651ADDGF101991011021008001001001MD1810091+9999REMSYN060AAXX  25091 33990 42578 11202 10043 21086 40265 58009 81200;
0133339900999992000022512004+44500+034170FM-12+007299999V0202001N002010075019N0250001N1+00371-00781102481ADDGF106991061051008001001001MA1999999101581MD1710171+9999REMSYN066AAXX  25121 33990 42575 62002 10037 21078 30158 40248 57017 86500;
0112339900999992000022515004+44500+034170FM-12+007299999V0201801N001010075019N0210001N1+00291-00641102411ADDGF107991071031008001001001MD1710071+9999REMSYN060AAXX  25151 33990 42571 71801 10029 21064 40241 57007 87300;
0165339900999992000022518004+44500+034170FM-12+007299999V02099999999990075019N0210001N1+00291-00551102271ADDAA199000091GF107991071051008001001001KA1999M+00571MD1710131+9999REMSYN070AAXX  25181 33990 32571 7/180 10029 21055 40227 57013 87500 333 10057;EQDQ01  00002PRCP99
