0197351730999992000010100004+51620+069800FM-12+031299999V0202701N002010063019N0200001N1-01021-01021101971ADDAY171061AY221061GA1081+006309069GF108991081051008001999999MA1999999098021MD1710101+9999MW1021REMSYN092AAXX  01001 35173 41598 82702 11102 21102 39802 40197 57010 70272 885// 333 88621 555 1/113;
0178351730999992000010103004+51620+069800FM-12+031299999V0209999C000019999999N0200001N1-01231-01291102021ADDAA112007091AJ100139199999999GF108991081001999999021999IA1249MD1310021+9999REMSYN092AAXX  01031 35173 /2998 80000 11123 21129 40202 53002 8802/ 333 48013 555 21170 60072 7007/;
0180351730999992000010106004+51620+069800FM-12+031299999V0202701N002019999999N0040001N1-00941-01011102021ADDAA100000891AY171061AY221061GF108991081001999999021999KA1999N-01701MD1210041+9999MW1711REMSYN082AAXX  01061 35173 11996 82702 11094 21101 40202 52004 69970 77172 8802/ 333 21170;
0140351730999992000010109004+51620+069800FM-12+031299999V0202301N002019999999N0040001N1-00801-00941101921ADDAY171031AY221031GF108991081001999999021999MD1810081+9999MW1711REMSYN066AAXX  01091 35173 41996 82302 11080 21094 40192 58008 77172 8802/;
0171351730999992000010112004+51620+069800FM-12+031299999V0202301N002019999999N0010001N1-00841-00901101961ADDAY171061AY221061GF108991081001999999021999MA1999999098041MD1310041+9999MW1711REMSYN082AAXX  01121 35173 41994 82302 11084 21090 39804 40196 53004 77172 8802/ 555 1/108;
0195351730999992000010115004+51620+069800FM-12+031299999V0203201N002010087019N0200001N1-00881-00951101991ADDAY171031AY221031GA1081+008709069GF108991081051008001999999KA1120M-00741MD1210011+9999MW1021REMSYN092AAXX  01151 35173 /1598 83202 11088 21095 40199 52001 70272 885// 333 11074 88629 555 60012;
0202351730999992000010118004+51620+069800FM-12+031299999V0203601N002010087019N0200001N1-01471-01671102221ADDAA100001091AY171061AY211061GA1061+008709059GF106991061051008001001001KA1120M-00741MD1210131+9999MW1011REMSYN088AAXX  01181 35173 11598 63602 11147 21167 40222 52013 60010 70171 86500 333 11074 86629;
0122351730999992000010121004+51620+069800FM-12+031299999V0203601N002012200019N0200001N1-01931-02121102491ADDGA1001+999999999GF100991001001999999001001MD1210191+9999REMSYN054AAXX  01211 35173 42998 03602 11193 21212 40249 52019;
0153351730999992000010200004+51620+069800FM-12+031299999V0200501N002012200019N0200001N1-02291-02541102821ADDGA1001+999999999GF100991001001999999001001MA1999999098631MD1210261+9999REMSYN070AAXX  02001 35173 42998 00502 11229 21254 39863 40282 52026 555 1/124;
0201351730999992000010203004+51620+069800FM-12+031299999V0200501N002012200019N0200001N1-02821-03061103211ADDAA106000091AJ100159199999999GA1001+999999999GF100991001001999999001001IA1249MD1210291+9999REMSYN080AAXX  02031 35173 32998 00502 11282 21306 40321 52029 333 48015 555 21286 7001/;EQDQ01  00002PRCP06
0175351730999992000010206004+51620+069800FM-12+031299999V0203601N002012200019N0040001N1-02801-03111103561ADDAA106000091GA1001+999999999GF100991001001999999001001KA1999N-02861MD1210341+9999REMSYN064AAXX  02061 35173 32996 03602 11280 21311 40356 52034 333 21286;EQDQ01  00002PRCP06
0122351730999992000010209004+51620+069800FM-12+031299999V0203601N002012200019N0040001N1-02611-03001103751ADDGA1001+999999999GF100991001001999999001001MD1210221+9999REMSYN054AAXX  02091 35173 42996 03602 11261 21300 40375 52022;
0153351730999992000010212004+51620+069800FM-12+031299999V0203601N002012200019N0200001N1-02901-03201104081ADDGA1001+999999999GF100991001001999999001001MA1999999099731MD1210251+9999REMSYN070AAXX  02121 35173 42998 03602 11290 21320 39973 40408 52025 555 1/130;
0175351730999992000010215004+51620+069800FM-12+031299999V0209999C000012200019N0200001N1-03101-03341104291ADDAA106000091GA1001+999999999GF100991001001999999001001KA1999M-02601MD1210171+9999REMSYN064AAXX  02151 35173 32998 00000 11310 21334 40429 52017 333 11260;EQDQ01  00002PRCP06
0175351730999992000010218004+51620+069800FM-12+031299999V0209999C000012200019N0200001N1-03201-03431104561ADDAA106000091GA1001+999999999GF100991001001999999001001KA1999M-02601MD1210241+9999REMSYN064AAXX  02181 35173 32998 00000 11320 21343 40456 52024 333 11260;EQDQ01  00002PRCP06
0122351730999992000010221004+51620+069800FM-12+031299999V0209999C000012200019N0200001N1-03251-03481104651ADDGA1001+999999999GF100991001001999999001001MD1210071+9999REMSYN054AAXX  02211 35173 42998 00000 11325 21348 40465 52007;
0153351730999992000010300004+51620+069800FM-12+031299999V0209999C000012200019N0200001N1-03431-03641104761ADDGA1001+999999999GF100991001001999999001001MA1999999100301MD1210091+9999REMSYN070AAXX  03001 35173 42998 00000 11343 21364 30030 40476 52009 555 1/137;
0201351730999992000010303004+51620+069800FM-12+031299999V0209999C000012200019N0200001N1-03541-03831104831ADDAA106000091AJ100159199999999GA1001+999999999GF100991001001999999001001IA1249MD1210051+9999REMSYN080AAXX  03031 35173 32998 00000 11354 21383 40483 52005 333 48015 555 21362 7000/;EQDQ01  00002PRCP06
0175351730999992000010306004+51620+069800FM-12+031299999V0203601N002012200019N0040001N1-03061-03291104801ADDAA106000091GA1001+999999999GF100991001001999999001001KA1999N-03621MD1210041+9999REMSYN064AAXX  03061 35173 32996 03602 11306 21329 40480 52004 333 21362;EQDQ01  00002PRCP06
0122351730999992000010309004+51620+069800FM-12+031299999V0209999C000012200019N0040001N1-02631-02871104751ADDGA1001+999999999GF100991001001999999001001MD1210041+9999REMSYN054AAXX  03091 35173 42996 00000 11263 21287 40475 52004;
0153351730999992000010312004+51620+069800FM-12+031299999V0209999C000012200019N0040001N1-02961-03191104851ADDGA1001+999999999GF100991001001999999001001MA1999999100461MD1210031+9999REMSYN070AAXX  03121 35173 42996 00000 11296 21319 30046 40485 52003 555 1/135;
0175351730999992000010315004+51620+069800FM-12+031299999V0200501N002012200019N0200001N1-02941-03171104861ADDAA106000091GA1001+999999999GF100991001001999999001001KA1999M-02601MD1210031+9999REMSYN064AAXX  03151 35173 32998 00502 11294 21317 40486 52003 333 11260;EQDQ01  00002PRCP06
0191351730999992000010318004+51620+069800FM-12+031299999V0209999C000012200019N0200001N1-02981-03211999999ADDAA106000091GA1001+999999999GF100991001001999999001001KA1999M-02601MD1210021+9999REMSYN064AAXX  03181 35173 32998 00000 11298 21321 40119 52002 333 11260;EQDQ01+101193APOSLPQ02  00002PRCP06
0153351730999992000010400004+51620+069800FM-12+031299999V0200901N002012200019N0200001N1-03081-03321104901ADDGA1001+999999999GF100991001001999999001001MA1999999100491MD1810021+9999REMSYN070AAXX  04001 35173 42998 00902 11308 21332 30049 40490 58002 555 1/135;
0201351730999992000010403004+51620+069800FM-12+031299999V0200901N004012200019N0200001N1-02531-02771104811ADDAA106000091AJ100159199999999GA1001+999999999GF100991001001999999001001IA1249MD1310011+9999REMSYN080AAXX  04031 35173 32998 00904 11253 21277 40481 53001 333 48015 555 21317 7000/;EQDQ01  00002PRCP06
0175351730999992000010406004+51620+069800FM-12+031299999V0200901N002012200019N0040001N1-02471-02781104691ADDAA106000091GA1001+999999999GF100991001001999999001001KA1999N-03171MD1810111+9999REMSYN064AAXX  04061 35173 32996 00902 11247 21278 40469 58011 333 21317;EQDQ01  00002PRCP06
0141351730999992000010409004+51620+069800FM-12+031299999V0201101N004012200019N0040001N1-02011-02501999999ADDGA1001+999999999GF100991001001999999001001MD1710131+9999REMSYN054AAXX  04091 35173 42996 01104 11201 21250 40147 57013;EQDQ01+101473APOSLP
0153351730999992000010412004+51620+069800FM-12+031299999V0201101N004012200019N0200001N1-02191-02671104301ADDGA1001+999999999GF100991001001999999001001MA1999999100091MD1710171+9999REMSYN070AAXX  04121 35173 42998 01104 11219 21267 30009 40430 57017 555 1/124;
0175351730999992000010415004+51620+069800FM-12+031299999V0200901N004012200019N0200001N1-02251-02731104141ADDAA106000091GA1001+999999999GF100991001001999999001001KA1999M-01901MD1710181+9999REMSYN064AAXX  04151 35173 32998 00904 11225 21273 40414 57018 333 11190;EQDQ01  00002PRCP06
0112351730999992000010509004+51620+069800FM-12+031299999V0201401N004019999999N0040001N1-01371-01981102241ADDGF108991081001999999011999MD1710351+9999REMSYN060AAXX  05091 35173 42996 81404 11137 21198 40224 57035 8801/;
0143351730999992000010512004+51620+069800FM-12+031299999V0209999C000019999999N0200001N1-01311-01831102031ADDGF108991081001999999021999MA1999999098031MD1710191+9999REMSYN076AAXX  05121 35173 42998 80000 11131 21183 39803 40203 57019 8802/ 555 1/113;
0165351730999992000010515004+51620+069800FM-12+031299999V0201601N002012200019N0200001N1-01051-01681101671ADDAA106000091GF103991001001999999001081KA1999M-01021MD1710311+9999REMSYN070AAXX  05151 35173 32998 31602 11105 21168 40167 57031 80008 333 11102;EQDQ01  00002PRCP06
0175351730999992000010518004+51620+069800FM-12+031299999V0201401N002012200019N0200001N1-01331-01681101551ADDAA106000091GA1001+999999999GF100991001001999999001001KA1999M-01021MD1710161+9999REMSYN064AAXX  05181 35173 32998 01402 11133 21168 40155 57016 333 11102;EQDQ01  00002PRCP06
0122351730999992000010521004+51620+069800FM-12+031299999V0202501N002012200019N0200001N1-01351-01621101501ADDGA1001+999999999GF100991001001999999001001MD1710051+9999REMSYN054AAXX  05211 35173 42998 02502 11135 21162 40150 57005;
0191351730999992000010603004+51620+069800FM-12+031299999V0203601N002012200019N0200001N1-01511-01641101691ADDAA106000091AJ100159199999999GF102991021001999999071001IA1249MD1210111+9999REMSYN086AAXX  06031 35173 32998 23602 11151 21164 40169 52011 82070 333 48015 555 21155 7000/;EQDQ01  00002PRCP06
0193351730999992000010606004+51620+069800FM-12+031299999V0203601N002019999999N0040001N1-01471-01601101831ADDAA106000091AY171061AY211061GF106991021001999999031061KA1999N-01551MD1210131+9999MW1011REMSYN076AAXX  06061 35173 31996 63602 11147 21160 40183 52013 70171 82036 333 21155;EQDQ01  00002PRCP06
0122351730999992000010609004+51620+069800FM-12+031299999V0203401N002012200019N0040001N1-01351-01701101831ADDGA1001+999999999GF100991001001999999001001MD1210031+9999REMSYN054AAXX  06091 35173 42996 03402 11135 21170 40183 52003;
0155351730999992000010615004+51620+069800FM-12+031299999V0209999C000012200019N0200001N1-02431-02551102261ADDGA1001+999999999GF100991001001999999001001KA1120M-01301MD1210091+9999REMSYN074AAXX  06151 35173 /2998 00000 11243 21255 40226 52009 333 11130 555 69902;
0122351730999992000010621004+51620+069800FM-12+031299999V0209999C000012200019N0200001N1-02551-02671102451ADDGA1001+999999999GF100991001001999999001001MD1210061+9999REMSYN054AAXX  06211 35173 42998 00000 11255 21267 40245 52006;
0153351730999992000010700004+51620+069800FM-12+031299999V0209999C000012200019N0200001N1-02781-02901102641ADDGA1001+999999999GF100991001001999999001001MA1999999098371MD1210131+9999REMSYN070AAXX  07001 35173 42998 00000 11278 21290 39837 40264 52013 555 1/129;
0201351730999992000010703004+51620+069800FM-12+031299999V0202001N002012200019N0200001N1-02691-02861102701ADDAA106000091AJ100159199999999GA1001+999999999GF100991001001999999001001IA1249MD1210081+9999REMSYN080AAXX  07031 35173 32998 02002 11269 21286 40270 52008 333 48015 555 21281 7990/;EQDQ01  00002PRCP06
0165351730999992000010706004+51620+069800FM-12+031299999V0201801N002012200019N0040001N1-02611-02711102701ADDAA106000091GF103991001001999999001071KA1999N-02811MD1210021+9999REMSYN070AAXX  07061 35173 32996 31802 11261 21271 40270 52002 80007 333 21281;EQDQ01  00002PRCP06
0112351730999992000010709004+51620+069800FM-12+031299999V0201601N002019999999N0040001N1-02171-02291102531ADDGF106991001001999999001081MD1810101+9999REMSYN060AAXX  07091 35173 42996 61602 11217 21229 40253 58010 80008;
0171351730999992000010712004+51620+069800FM-12+031299999V0201801N002019999999N0010001N1-02081-02201102531ADDAY171061AY211061GF108991081001999999021999MA1999999098381MD1310011+9999MW1711REMSYN082AAXX  07121 35173 41994 81802 11208 21220 39838 40253 53001 77171 8802/ 555 1/121;
0173351730999992000010715004+51620+069800FM-12+031299999V0201801N002012200019N0200001N1-02111-02231102301ADDAY171031AY211031GF103991031001999999031001KA1120M-02071MD1810221+9999MW1011REMSYN086AAXX  07151 35173 /1998 31802 11211 21223 40230 58022 70171 83030 333 11207 555 69922;
0180351730999992000010718004+51620+069800FM-12+031299999V0201401N002019999999N0200001N1-02071-02191102181ADDAA100000191AY171061AY211061GF108991081001999999031999KA1999M-02071MD1710111+9999MW1031REMSYN082AAXX  07181 35173 11998 81402 11207 21219 40218 57011 69920 70371 8803/ 333 11207;
0112351730999992000010721004+51620+069800FM-12+031299999V0209999C000019999999N0200001N1-02151-02271101951ADDGF108991001001999999001071MD1710221+9999REMSYN060AAXX  07211 35173 42998 80000 11215 21227 40195 57022 80007;
0191351730999992000010803004+51620+069800FM-12+031299999V0209999C000019999999N0200001N1-01871-01991101621ADDAA106000091AJ100159199999999GF108991081001999999021999IA1249MD1710101+9999REMSYN086AAXX  08031 35173 32998 80000 11187 21199 40162 57010 8802/ 333 48015 555 21218 7992/;EQDQ01  00002PRCP06
0174351730999992000010806004+51620+069800FM-12+031299999V0209999C000019999999N0040001N1-01811-01931101641ADDAA106000021AY171061AY221061GF108991081001999999021999KA1999N-02181MD1310041+9999MW1711REMSYN076AAXX  08061 35173 31996 80000 11181 21193 40164 53004 77172 8802/ 333 21218;
0140351730999992000010809004+51620+069800FM-12+031299999V0203601N002019999999N0040001N1-01751-02011101641ADDAY171031AY221031GF105991001001999999001041MD1210011+9999MW1011REMSYN066AAXX  08091 35173 41996 53602 11175 21201 40164 52001 70172 80004;
0171351730999992000010812004+51620+069800FM-12+031299999V0203401N002019999999N0200001N1-02031-02221101971ADDAY171061AY221061GF106991001001999999001061MA1999999097871MD1210281+9999MW1021REMSYN082AAXX  08121 35173 41998 63402 11203 21222 39787 40197 52028 70272 80006 555 1/122;
0155351730999992000010815004+51620+069800FM-12+031299999V0203401N002012200019N0200001N1-02431-02551102391ADDGA1001+999999999GF100991001001999999001001KA1120M-01601MD1210331+9999REMSYN074AAXX  08151 35173 /2998 03402 11243 21255 40239 52033 333 11160 555 69922;
0152351730999992000010818004+51620+069800FM-12+031299999V0209999C000012200019N0200001N1-02551-02731102711ADDAA100000191GF103991031001999999071001KA1999M-01601MD1210291+9999REMSYN076AAXX  08181 35173 12998 30000 11255 21273 40271 52029 69920 83070 333 11160;
0122351730999992000010821004+51620+069800FM-12+031299999V0209999C000012200019N0200001N1-02571-02741102961ADDGA1001+999999999GF100991001001999999001001MD1210221+9999REMSYN054AAXX  08211 35173 42998 00000 11257 21274 40296 52022;
0153351730999992000010900004+51620+069800FM-12+031299999V0209999C000012200019N0200001N1-02661-02831103211ADDGA1001+999999999GF100991001001999999001001MA1999999098931MD1210221+9999REMSYN070AAXX  09001 35173 42998 00000 11266 21283 39893 40321 52022 555 1/129;
0191351730999992000010903004+51620+069800FM-12+031299999V0201801N002019999999N0200001N1-02131-02251103241ADDAA106000091AJ100159199999999GF108991081001999999021999IA1249MD1210141+9999REMSYN086AAXX  09031 35173 32998 81802 11213 21225 40324 52014 8802/ 333 48015 555 21269 7992/;EQDQ01  00002PRCP06
0112351730999992000010909004+51620+069800FM-12+031299999V0201801N004019999999N0040001N1-01331-01461103261ADDGF106991001001999999001081MD1210011+9999REMSYN060AAXX  09091 35173 42996 61804 11133 21146 40326 52001 80008;
0143351730999992000010912004+51620+069800FM-12+031299999V0201801N002012200019N0200001N1-01751-01851103411ADDGF103991001001999999001021MA1999999099291MD1210081+9999REMSYN076AAXX  09121 35173 42998 31802 11175 21185 39929 40341 52008 80002 555 1/119;
0165351730999992000010915004+51620+069800FM-12+031299999V0201801N002019999999N0200001N1-01631-01761103451ADDAA106000091GF108991081001999999021999KA1999M-01271MD1210051+9999REMSYN070AAXX  09151 35173 32998 81802 11163 21176 40345 52005 8802/ 333 11127;EQDQ01  00002PRCP06
0174351730999992000010918004+51620+069800FM-12+031299999V0202001N002019999999N0010001N1-01391-01451103331ADDAA106000021AY171061AY211061GF108991081001999999021999KA1999M-01271MD1810081+9999MW1711REMSYN076AAXX  09181 35173 31994 82002 11139 21145 40333 58008 77171 8802/ 333 11127;
0140351730999992000010921004+51620+069800FM-12+031299999V0201801N002019999999N0200001N1-01221-01281103181ADDAY171031AY221031GF108991081001999999021999MD1710111+9999MW1021REMSYN066AAXX  09211 35173 41998 81802 11122 21128 40318 57011 70272 8802/;
0171351730999992000011000004+51620+069800FM-12+031299999V0201801N002019999999N0200001N1-01011-01071103111ADDAY171061AY221061GF108991081001999999011999MA1999999099111MD1710041+9999MW1021REMSYN082AAXX  10001 35173 41998 81802 11101 21107 39911 40311 57004 70272 8801/ 555 1/111;
0206351730999992000011003004+51620+069800FM-12+031299999V0201801N002019999999N0010001N1-00891-00961102921ADDAA112000591AJ100169199999999AY171031AY221031GF108991081001999999021999IA1249MD1710171+9999MW1711REMSYN098AAXX  10031 35173 /1994 81802 11089 21096 40292 57017 77172 8802/ 333 48016 555 21165 69952 7995/;
0199351730999992000011006004+51620+069800FM-12+031299999V0202301N008010042019N0040001N1-00811-00911102831ADDAA100000591AY171061AY231061GF108991999071004501021999KA1999N-01651MD1710071+9999MW1711REMSYN082AAXX  10061 35173 11496 82308 11081 21091 40283 57007 69950 77173 8872/ 333 21165;EQDQ01+000082SCOTLC
0140351730999992000011009004+51620+069800FM-12+031299999V0202501N008019999999N0040001N1-00931-01141102791ADDAY171031AY231031GF108991081001999999071999MD1710061+9999MW1361REMSYN066AAXX  10091 35173 41996 82508 11093 21114 40279 57006 73673 8807/;
0171351730999992000011012004+51620+069800FM-12+031299999V0202301N006019999999N0200001N1-01071-01201102791ADDAY171061AY231061GF108991031001999999071051MA1999999098781MD1710031+9999MW1021REMSYN082AAXX  10121 35173 41998 82306 11107 21120 39878 40279 57003 70273 83075 555 1/112;
0145351730999992000011015004+51620+069800FM-12+031299999V0202001N006019999999N0200001N1-01191-01251102751ADDGF108991081001999999021999KA1120M-00741MD1710051+9999REMSYN080AAXX  10151 35173 /2998 82006 11119 21125 40275 57005 8802/ 333 11074 555 60012;
0180351730999992000011018004+51620+069800FM-12+031299999V0202001N004019999999N0010001N1-01301-01361102621ADDAA100001091AY171061AY221061GF108991081001999999021999KA1999M-00741MD1710141+9999MW1711REMSYN082AAXX  10181 35173 11994 82004 11130 21136 40262 57014 60010 77172 8802/ 333 11074;
0140351730999992000011021004+51620+069800FM-12+031299999V0202301N008010075019N0010001N1-01031-01091102521ADDAY171031AY231031GF108991081051008001999999MD1710051+9999MW1781REMSYN066AAXX  10211 35173 41594 82308 11103 21109 40252 57005 77873 885//;
0190351730999992000011100004+51620+069800FM-12+031299999V0202501N008010042019N0010001N1-00991-01111102451ADDAY171061AY231061GF108991999071004501021999MA1999999098481MD1210061+9999MW1711REMSYN082AAXX  11001 35173 41494 82508 11099 21111 39848 40245 52006 77173 8872/ 555 1/111;EQDQ01+000082SCOTLC
0206351730999992000011103004+51620+069800FM-12+031299999V0202301N004010075019N0010001N1-01011-01071102451ADDAA112000591AJ100239199999999AY171031AY231031GF108991081051008001999999IA1249MD1410001+9999MW1781REMSYN098AAXX  11031 35173 /1594 82304 11101 21107 40245 54000 77873 885// 333 48023 555 21133 69952 7002/;
0202351730999992000011106004+51620+069800FM-12+031299999V0202301N004010078019N0040001N1-00891-01041102481ADDAA100000591AY171061AY231061GA1081+007809059GF108991081051008001999999KA1120N-01331MD1310031+9999MW1021REMSYN088AAXX  11061 35173 11596 82304 11089 21104 40248 53003 69950 70273 885// 333 21133 88626;
0140351730999992000011109004+51620+069800FM-12+031299999V0202301N002019999999N0040001N1-00811-00911102391ADDAY171031AY221031GF108991081001999999021999MD1810061+9999MW1021REMSYN066AAXX  11091 35173 41996 82302 11081 21091 40239 58006 70272 8802/;
0197351730999992000011112004+51620+069800FM-12+031299999V0202301N002010072019N0200001N1-00821-00961102431ADDAY171061AY221061GA1081+007209069GF108991081051008001999999MA1999999098491MD1310041+9999MW1021REMSYN092AAXX  11121 35173 41598 82302 11082 21096 39849 40243 53004 70272 885// 333 88624 555 1/109;
0195351730999992000011115004+51620+069800FM-12+031299999V0202301N004010039019N0200001N1-00841-00941102391ADDAY171031AY221031GA1081+003909079GF108991081061004501999999KA1120M-00771MD1810041+9999MW1221REMSYN092AAXX  11151 35173 /1498 82304 11084 21094 40239 58004 72272 886// 333 11077 88713 555 69922;
0202351730999992000011118004+51620+069800FM-12+031299999V0202301N008010039019N0200001N1-00771-00951102271ADDAA100000191AY131061AY231061GA1081+003909069GF108991081061004501999999KA1120M-00771MD1710111+9999MW1361REMSYN088AAXX  11181 35173 11498 82308 11077 21095 40227 57011 69920 73633 886// 333 11077 88713;
0166351730999992000011121004+51620+069800FM-12+031299999V0202301N008010066019N0200001N1-00831-01021102161ADDAY131031AY231031GA1081+006609059GF108991081051008001999999MD1710111+9999MW1361REMSYN076AAXX  11211 35173 41598 82308 11083 21102 40216 57011 73633 885// 333 88622;
0171351730999992000011200004+51620+069800FM-12+031299999V0202301N006019999999N0200001N1-00901-01061102061ADDAY131061AY221061GF108991081001999999071999MA1999999098111MD1710121+9999MW1021REMSYN082AAXX  12001 35173 41998 82306 11090 21106 39811 40206 57012 70232 8807/ 555 1/111;
0191351730999992000011203004+51620+069800FM-12+031299999V0202001N004019999999N0200001N1-01021-01081101921ADDAA106000091AJ100239199999999GF108991081001999999021999IA1249MD1710141+9999REMSYN086AAXX  12031 35173 32998 82004 11102 21108 40192 57014 8802/ 333 48023 555 21102 7992/;EQDQ01  00002PRCP06
0174351730999992000011206004+51620+069800FM-12+031299999V0202001N004019999999N0040001N1-01051-01111101831ADDAA106000021AY171061AY221061GF107991071001999999031001KA1999N-01021MD1710091+9999MW1221REMSYN076AAXX  12061 35173 31996 72004 11105 21111 40183 57009 72272 87030 333 21102;
0140351730999992000011209004+51620+069800FM-12+031299999V0202501N004019999999N0040001N1-00791-00931101711ADDAY171031AY221031GF108991081001999999071999MD1710091+9999MW1021REMSYN066AAXX  12091 35173 41996 82504 11079 21093 40171 57009 70272 8807/;
0171351730999992000011212004+51620+069800FM-12+031299999V0202701N004019999999N0200001N1-00851-00921101841ADDAY171061AY221061GF108991081001999999021999MA1999999097921MD1310131+9999MW1021REMSYN082AAXX  12121 35173 41998 82704 11085 21092 39792 40184 53013 70272 8802/ 555 1/108;
0167351730999992000011215004+51620+069800FM-12+031299999V0202701N002010039019N0200001N1-01031-01031102031ADDGA1051+003909079GF105991051071004501001001KA1120M-00691MD1210161+9999REMSYN086AAXX  12151 35173 /2498 52702 11103 21103 40203 52016 85700 333 11069 85713 555 69972;
0193351730999992000011218004+51620+069800FM-12+031299999V0202701N002010036019N0200001N1-00611-00651102161ADDAA100000891GA1081+003609069GF108991081061004501999999KA1120M+99999MD1210181+9999REMSYN082AAXX  12181 35173 12498 82702 11061 21065 40216 52018 69970 886// 333 11069 88712;EQDQ01 -00692ATMX  
0138351730999992000011221004+51620+069800FM-12+031299999V0202701N002010033019N0200001N1-00491-00551102251ADDGA1081+003309069GF108991081071004501999999MD1210091+9999REMSYN070AAXX  12211 35173 42498 82702 11049 21055 40225 52009 887// 333 88711;
0169351730999992000011300004+51620+069800FM-12+031299999V0202701N004010063019N0200001N1-00671-00751102391ADDGA1071+006309069GF107991071051008001001001MA1999999098481MD1210131+9999REMSYN086AAXX  13001 35173 42598 72704 11067 21075 39848 40239 52013 87500 333 87621 555 1/107;
0228351730999992000011303004+51620+069800FM-12+031299999V0202701N002010069019N0200001N1-00821-00841102531ADDAA112999929AJ100249199999999AY171031AY221031GA1081+006909069GF108991051051008001999999IA1249MD1210081+9999MW1221REMSYN104AAXX  13031 35173 /1598 82702 11082 21084 40253 52008 72272 855// 333 48024 88623 555 21104 69902 7997/;
0180351730999992000011306004+51620+069800FM-12+031299999V0202301N004019999999N0040001N1-00631-00751102551ADDAA100000791AY171061AY221061GF108991081001999999021999KA1999N-01041MD1210051+9999MW1711REMSYN082AAXX  13061 35173 11996 82304 11063 21075 40255 52005 69900 77172 8802/ 333 21104;
0140351730999992000011309004+51620+069800FM-12+031299999V0202301N004019999999N0040001N1-00571-00711102471ADDAY171031AY221031GF108991081001999999021999MD1810071+9999MW1711REMSYN066AAXX  13091 35173 41996 82304 11057 21071 40247 58007 77172 8802/;
0171351730999992000011312004+51620+069800FM-12+031299999V0202701N004019999999N0200001N1-00711-00841102501ADDAY171061AY221061GF108991081001999999021999MA1999999098561MD1410001+9999MW1021REMSYN082AAXX  13121 35173 41998 82704 11071 21084 39856 40250 54000 70272 8802/ 555 1/108;
0182351730999992000011403004+51620+069800FM-12+031299999V0202301N002019999999N0200001N1-01071-01131102301ADDAA112000291AJ100259199999999GF106991061001999999071001IA1249MD1710141+9999REMSYN096    AAXX  14031 35173 /2998 62302 11107 21113 40230 57014 86070 333 48025 555 21110 69922 7992/;
0184351730999992000011406004+51620+069800FM-12+031299999V0202301N008019999999N0040001N1-00661-00741102081ADDAA100000191AY131061AY211061GF108991081001999999011999KA1999N-01101MD1710171+9999MW1361REMSYN086    AAXX  14061 35173 11996 82308 11066 21074 40208 57017 69920 73631 8801/ 333 21110;
0144351730999992000011409004+51620+069800FM-12+031299999V0202301N008019999999N0040001N1-00641-00641101861ADDAY171031AY231031GF108991081001999999021999MD1710211+9999MW1711REMSYN070    AAXX  14091 35173 41996 82308 11064 21064 40186 57021 77173 8802/;
0175351730999992000011412004+51620+069800FM-12+031299999V0202701N008019999999N0200001N1-00611-00611101641ADDAY171061AY231061GF108991081001999999021999MA1999999097751MD1710221+9999MW1361REMSYN086    AAXX  14121 35173 41998 82708 11061 21061 39775 40164 57022 73673 8802/ 555 1/107;
0177351730999992000011415004+51620+069800FM-12+031299999V0202701N008019999999N0010001N1-00591-00661101721ADDAY131031AY231031GF108991081001999999021999KA1120M-00541MD1310081+9999MW1381REMSYN090    AAXX  14151 35173 /1994 82708 11059 21066 40172 53008 73833 8802/ 333 11054 555 69952;
0206351730999992000011418004+51620+069800FM-12+031299999V0202501N008010039019N0200001N1-00631-00751101771ADDAA100000591AY131061AY231061GA1071+003909069GF107991071071004501001001KA1120M-00541MD1210051+9999MW1361REMSYN092    AAXX  14181 35173 11498 72508 11063 21075 40177 52005 69950 73633 87700 333 11054 87713;
0217351730999992000011503004+51620+069800FM-12+031299999V0202501N006010072019N0200001N1-00641-00761101631ADDAA199000091AJ100229199999999GA1081+007209069GF108991081051008001999999IA1249MD1710181+9999REMSYN096    AAXX  15031 35173 32598 82506 11064 21076 40163 57018 885// 333 48022 88624 555 21070 7995/;EQDQ01  00002PRCP99
0197351730999992000011506004+51620+069800FM-12+031299999V0202301N008010042019N0040001N1-00601-00641101471ADDAA199000021AY171061AY231061GF108991999071004501021999KA1999N-00701MD1710151+9999MW1711REMSYN080    AAXX  15061 35173 31496 82308 11060 21064 40147 57015 77173 8872/ 333 21070;EQDQ01+000082SCOTLC
0163351730999992000011509004+51620+069800FM-12+031299999V0202501N008010042019N0040001N1-00571-00641101451ADDAY171031AY231031GF108991999071004501021999MD1710011+9999MW1711REMSYN070    AAXX  15091 35173 41496 82508 11057 21064 40145 57001 77173 8872/;EQDQ01+000082SCOTLC
0175351730999992000011512004+51620+069800FM-12+031299999V0203201N006010075019N0010001N1-00761-00891101841ADDAY171061AY231061GF108991081051008001999999MA1999999097931MD1310351+9999MW1711REMSYN086    AAXX  15121 35173 41594 83206 11076 21089 39793 40184 53035 77173 885// 555 1/108;
0177351730999992000011515004+51620+069800FM-12+031299999V0203401N002019999999N0200001N1-01221-01571102421ADDAY171031AY221031GF106991061001999999071001KA1120M-00541MD1210491+9999MW1021REMSYN090    AAXX  15151 35173 /1998 63402 11122 21157 40242 52049 70272 86070 333 11054 555 60022;
0194351730999992000011518004+51620+069800FM-12+031299999V0203601N002012200019N0200001N1-01961-02291102951ADDAA100002091AY171061AY211061GA1001+999999999GF100991001001999999001001KA1999M-00541MD1210381+9999MW1011REMSYN080    AAXX  15181 35173 11998 03602 11196 21229 40295 52038 60020 70171 333 11054;
0157351730999992000011600004+51620+069800FM-12+031299999V0209999C000012200019N0200001N1-02651-02901103601ADDGA1001+999999999GF100991001001999999001001MA1999999099331MD1210181+9999REMSYN074    AAXX  16001 35173 42998 00000 11265 21290 39933 40360 52018 555 1/128;
0205351730999992000011603004+51620+069800FM-12+031299999V0209999C000012200019N0200001N1-02911-03091103801ADDAA199000091AJ100239199999999GA1001+999999999GF100991001001999999001001IA1249MD1210141+9999REMSYN084    AAXX  16031 35173 32998 00000 11291 21309 40380 52014 333 48023 555 21294 7002/;EQDQ01  00002PRCP99
0179351730999992000011606004+51620+069800FM-12+031299999V0203601N002012200019N0040001N1-02231-02481103781ADDAA199000091GA1001+999999999GF100991001001999999001001KA1999N-02941MD1210101+9999REMSYN068    AAXX  16061 35173 32996 03602 11223 21248 40378 52010 333 21294;EQDQ01  00002PRCP99
0126351730999992000011609004+51620+069800FM-12+031299999V0203601N002012200019N0040001N1-01751-02171103541ADDGA1001+999999999GF100991001001999999001001MD1810161+9999REMSYN058    AAXX  16091 35173 42996 03602 11175 21217 40354 58016;
0147351730999992000011612004+51620+069800FM-12+031299999V0201401N002012200019N0200001N1-02011-02201103511ADDGF104991001001999999001061MA1999999099341MD1710071+9999REMSYN080    AAXX  16121 35173 42998 41402 11201 21220 39934 40351 57007 80006 555 1/123;
0169351730999992000011615004+51620+069800FM-12+031299999V0201801N004019999999N0200001N1-01771-01891103391ADDAA199000091GF108991001001999999001071KA1999M-01601MD1710081+9999REMSYN074    AAXX  16151 35173 32998 81804 11177 21189 40339 57008 80007 333 11160;EQDQ01  00002PRCP99
0197351730999992000011618004+51620+069800FM-12+031299999V0201801N002019999999N0200001N1-01391-01521103151ADDAA199000021AY171061AY211061GF107991071001999999011001KA1999M+99999MD1710171+9999MW1221REMSYN080    AAXX  16181 35173 31998 71802 11139 21152 40315 57017 72271 87010 333 11160;EQDQ01 -01602ATMX  
0116351730999992000011621004+51620+069800FM-12+031299999V0201801N002019999999N0200001N1-01341-01471103001ADDGF108991081001999999021999MD1710141+9999REMSYN064    AAXX  16211 35173 42998 81802 11134 21147 40300 57014 8802/;
0147351730999992000011700004+51620+069800FM-12+031299999V0201801N002012200019N0200001N1-01321-01451102881ADDGF103991031001999999041001MA1999999098841MD1710111+9999REMSYN080    AAXX  17001 35173 42998 31802 11132 21145 39884 40288 57011 83040 555 1/115;
0192351730999992000011703004+51620+069800FM-12+031299999V0201801N002012200019N0200001N1-01631-01761102871ADDAA112999929AJ100239199999999GA1001+999999999GF100991001001999999001001IA1249MD1710051+9999REMSYN090    AAXX  17031 35173 /2998 01802 11163 21176 40287 57005 333 48023 555 21178 69902 7990/;
0166351730999992000011706004+51620+069800FM-12+031299999V0201401N002012200019N0040001N1-01671-01861102861ADDAA100000791GA1001+999999999GF100991001001999999001001KA1999N-01781MD1710031+9999REMSYN074    AAXX  17061 35173 12996 01402 11167 21186 40286 57003 69900 333 21178;
0116351730999992000011709004+51620+069800FM-12+031299999V0201401N002019999999N0040001N1-01341-01541102641ADDGF108991081001999999011999MD1710151+9999REMSYN064    AAXX  17091 35173 42996 81402 11134 21154 40264 57015 8801/;
0147351730999992000011712004+51620+069800FM-12+031299999V0201401N004019999999N0200001N1-00951-01111102431ADDGF108991081001999999011999MA1999999098471MD1710141+9999REMSYN080    AAXX  17121 35173 42998 81404 11095 21111 39847 40243 57014 8801/ 555 1/110;
0169351730999992000011715004+51620+069800FM-12+031299999V0201401N004019999999N0200001N1-01161-01291102381ADDAA199000091GF106991001001999999001071KA1999M-00911MD1710081+9999REMSYN074    AAXX  17151 35173 32998 61404 11116 21129 40238 57008 80007 333 11091;EQDQ01  00002PRCP99
0169351730999992000011718004+51620+069800FM-12+031299999V0201401N004019999999N0200001N1-01531-01661102251ADDAA199000091GF108991081001999999071999KA1999M-00911MD1710181+9999REMSYN074    AAXX  17181 35173 32998 81404 11153 21166 40225 57018 8807/ 333 11091;EQDQ01  00002PRCP99
0144351730999992000011721004+51620+069800FM-12+031299999V0201401N004010075019N0010001N1-01671-01791102131ADDAY171031AY221031GF108991081051008001999999MD1710151+9999MW1711REMSYN070    AAXX  17211 35173 41594 81404 11167 21179 40213 57015 77172 885//;
0194351730999992000011800004+51620+069800FM-12+031299999V0201601N002010042019N0010001N1-01551-01681102001ADDAY171061AY221061GF108991999071004501021999MA1999999097961MD1710101+9999MW1711REMSYN086    AAXX  18001 35173 41494 81602 11155 21168 39796 40200 57010 77172 8872/ 555 1/117;EQDQ01+000082SCOTLC
0229351730999992000011803004+51620+069800FM-12+031299999V0201601N002010042019N0010001N1-01451-01581101971ADDAA112000491AJ100239199999999AY171031AY271031GF108991999071004501021999IA1249MD1710011+9999MW1711REMSYN102    AAXX  18031 35173 /1494 81602 11145 21158 40197 57001 77177 8872/ 333 48023 555 21171 69942 7994/;EQDQ01+000082SCOTLC
0184351730999992000011806004+51620+069800FM-12+031299999V0201801N002019999999N0040001N1-01431-01561102081ADDAA100000591AY171061AY221061GF106991001001999999001081KA1999N-01711MD1310111+9999MW1011REMSYN086    AAXX  18061 35173 11996 61802 11143 21156 40208 53011 69940 70172 80008 333 21171;
0126351730999992000011809004+51620+069800FM-12+031299999V0201801N002012200019N0040001N1-01181-01451102061ADDGA1001+999999999GF100991001001999999001001MD1210021+9999REMSYN058    AAXX  18091 35173 42996 01802 11118 21145 40206 52002;
0157351730999992000011812004+51620+069800FM-12+031299999V0201801N002012200019N0200001N1-01631-01821102261ADDGA1001+999999999GF100991001001999999001001MA1999999098201MD1210121+9999REMSYN074    AAXX  18121 35173 42998 01802 11163 21182 39820 40226 52012 555 1/119;
0159351730999992000011815004+51620+069800FM-12+031299999V0201801N002012200019N0200001N1-01741-01861102431ADDGA1001+999999999GF100991001001999999001001KA1120M-01101MD1210151+9999REMSYN078    AAXX  18151 35173 /2998 01802 11174 21186 40243 52015 333 11110 555 69902;
0194351730999992000011818004+51620+069800FM-12+031299999V0201601N002010001519N0001001N1-01861-01921102571ADDAA100000791AY141061AY211061GA1091+999999999GF109991091999999999999999KA1999M-01101MD1210101+9999MW1491REMSYN080    AAXX  18181 35173 11/91 91602 11186 21192 40257 52010 69900 74941 333 11110;
0154351730999992000011821004+51620+069800FM-12+031299999V0201601N002010001519N0001001N1-01671-01731102681ADDAY141031AY241031GA1091+999999999GF109991091999999999999999MD1210141+9999MW1491REMSYN064    AAXX  18211 35173 41/91 91602 11167 21173 40268 52014 74944;
0175351730999992000011900004+51620+069800FM-12+031299999V0201601N002019999999N0200001N1-01631-01761102731ADDAY141061AY221061GF106991061001999999051001MA1999999098661MD1210071+9999MW1011REMSYN086    AAXX  19001 35173 41998 61602 11163 21176 39866 40273 52007 70142 86050 555 1/121;
0195351730999992000011903004+51620+069800FM-12+031299999V0201601N002019999999N0200001N1-01541-01601102811ADDAA199000091AJ100239199999999GF108991081001999999021999IA1249MD1210081+9999REMSYN090    AAXX  19031 35173 32998 81602 11154 21160 40281 52008 8802/ 333 48023 555 21190 7990/;EQDQ01  00002PRCP99
0169351730999992000011906004+51620+069800FM-12+031299999V0201801N002019999999N0040001N1-01431-01491102901ADDAA199000091GF108991081001999999011999KA1999N-01901MD1210111+9999REMSYN074    AAXX  19061 35173 32996 81802 11143 21149 40290 52011 8801/ 333 21190;EQDQ01  00002PRCP99
0116351730999992000011909004+51620+069800FM-12+031299999V0201801N002019999999N0040001N1-01171-01371102931ADDGF108991081001999999071999MD1210051+9999REMSYN064    AAXX  19091 35173 42996 81802 11117 21137 40293 52005 8807/;
0157351730999992000011912004+51620+069800FM-12+031299999V0201601N002012200019N0200001N1-01491-01621103021ADDGA1001+999999999GF100991001001999999001001MA1999999098941MD1210041+9999REMSYN074    AAXX  19121 35173 42998 01602 11149 21162 39894 40302 52004 555 1/117;
0175351730999992000011915004+51620+069800FM-12+031299999V0201401N002012200019N0200001N1-01531-01591103031ADDAA199000091GA1001+999999999GF100991001001999999001001KA1999M-01131MD1210011+9999REMSYN064AAXX  19151 35173 32998 01402 11153 21159 40303 52001 333 11113;EQDQ01  00002PRCP99
0175351730999992000011918004+51620+069800FM-12+031299999V0209999C000012200019N0200001N1-01671-01731103041ADDAA199000091GA1001+999999999GF100991001001999999001001KA1999M-01131MD1810021+9999REMSYN064AAXX  19181 35173 32998 00000 11167 21173 40304 58002 333 11113;EQDQ01  00002PRCP99
0122351730999992000011921004+51620+069800FM-12+031299999V0209999C000012200019N0200001N1-01741-01801102921ADDGA1001+999999999GF100991001001999999001001MD1710111+9999REMSYN054AAXX  19211 35173 42998 00000 11174 21180 40292 57011;
0153351730999992000012000004+51620+069800FM-12+031299999V0201401N002012200019N0200001N1-01671-01731102751ADDGA1001+999999999GF100991001001999999001001MA1999999098661MD1710161+9999REMSYN070AAXX  20001 35173 42998 01402 11167 21173 39866 40275 57016 555 1/121;
0201351730999992000012003004+51620+069800FM-12+031299999V0209999C000012200019N0200001N1-01841-01901102611ADDAA199000091AJ100239199999999GA1001+999999999GF100991001001999999001001IA1249MD1710151+9999REMSYN080AAXX  20031 35173 32998 00000 11184 21190 40261 57015 333 48023 555 21187 7000/;EQDQ01  00002PRCP99
0165351730999992000012006004+51620+069800FM-12+031299999V0201601N002019999999N0040001N1-01631-01691102341ADDAA199000091GF106991001001999999001081KA1999N-01871MD1710231+9999REMSYN070AAXX  20061 35173 32996 61602 11163 21169 40234 57023 80008 333 21187;EQDQ01  00002PRCP99
0112351730999992000012009004+51620+069800FM-12+031299999V0201401N004019999999N0040001N1-01251-01311102041ADDGF106991001001999999001081MD1710221+9999REMSYN060AAXX  20091 35173 42996 61404 11125 21131 40204 57022 80008;
0143351730999992000012012004+51620+069800FM-12+031299999V0201401N004019999999N0200001N1-01331-01531101951ADDGF107991031001999999071051MA1999999097951MD1710111+9999REMSYN076AAXX  20121 35173 42998 71404 11133 21153 39795 40195 57011 83075 555 1/116;
0165351730999992000012015004+51620+069800FM-12+031299999V0201401N006019999999N0200001N1-01171-01441101751ADDAA199000091GF108991051001999999071051KA1999M-01101MD1710181+9999REMSYN070AAXX  20151 35173 32998 81406 11117 21144 40175 57018 85075 333 11110;EQDQ01  00002PRCP99
0181351730999992000012018004+51620+069800FM-12+031299999V0201601N006019999999N0200001N1-01021-01221101491ADDAA199000091GF106991061001999999071001KA1999M+99999MD1710221+9999REMSYN070AAXX  20181 35173 32998 61606 11102 21122 40149 57022 86070 333 11110;EQDQ01  00002PRCP99Q02 -01102ATMX  
0112351730999992000012021004+51620+069800FM-12+031299999V0201801N006019999999N0200001N1-00711-00921101531ADDGF108991081001999999021999MD1310081+9999REMSYN060AAXX  20211 35173 42998 81806 11071 21092 40153 53008 8802/;
0143351730999992000012100004+51620+069800FM-12+031299999V0201801N002019999999N0200001N1-00671-00831101711ADDGF108991081001999999021999MA1999999097821MD1210191+9999REMSYN076AAXX  21001 35173 42998 81802 11067 21083 39782 40171 52019 8802/ 555 1/108;
0206351730999992000012103004+51620+069800FM-12+031299999V0201801N002019999999N0200001N1-00551-00621101871ADDAA112000291AJ100239199999999AY171031AY221031GF108991081001999999021999IA1249MD1210171+9999MW1021REMSYN098AAXX  21031 35173 /1998 81802 11055 21062 40187 52017 70272 8802/ 333 48023 555 21118 69922 7992/;
0180351730999992000012106004+51620+069800FM-12+031299999V0201801N002019999999N0040001N1-00431-00551102021ADDAA100000191AY171061AY221061GF108991081001999999011999KA1999N-01181MD1210161+9999MW1021REMSYN082AAXX  21061 35173 11996 81802 11043 21055 40202 52016 69920 70272 8801/ 333 21118;
0112351730999992000012109004+51620+069800FM-12+031299999V0209999C000019999999N0040001N1-00301-00501102081ADDGF108991081001999999011999MD1210071+9999REMSYN060AAXX  21091 35173 42996 80000 11030 21050 40208 52007 8801/;
0143351730999992000012112004+51620+069800FM-12+031299999V0202701N002019999999N0200001N1-00271-00371102081ADDGF108991081001999999021999MA1999999098241MD1210021+9999REMSYN076AAXX  21121 35173 42998 82702 11027 21037 39824 40208 52002 8802/ 555 1/103;
0165351730999992000012115004+51620+069800FM-12+031299999V0201401N002019999999N0200001N1-00281-00381102061ADDAA199000091GF108991081001999999021999KA1999M-00201MD1810021+9999REMSYN070AAXX  21151 35173 32998 81402 11028 21038 40206 58002 8802/ 333 11020;EQDQ01  00002PRCP99
0165351730999992000012118004+51620+069800FM-12+031299999V0201601N004019999999N0200001N1-00311-00451101891ADDAA199000091GF108991081001999999021999KA1999M-00201MD1710181+9999REMSYN070AAXX  21181 35173 32998 81604 11031 21045 40189 57018 8802/ 333 11020;EQDQ01  00002PRCP99
0112351730999992000012121004+51620+069800FM-12+031299999V0201601N004019999999N0200001N1-00291-00421101791ADDGF108991081001999999021999MD1710101+9999REMSYN060AAXX  21211 35173 42998 81604 11029 21042 40179 57010 8802/;
0096351730999992000012200004+51620+069800FM-12+031299999V0201401N006019999999N0200001N1-00471-00671999999ADDGF108991081001999999011999REMSYN058AAXX  22001 35173 42998 81406 11047 21067 8801/ 555 1/106;
0191351730999992000012203004+51620+069800FM-12+031299999V0201401N006019999999N0200001N1-00651-01061101691ADDAA199000091AJ100239199999999GF106991041001999999031041IA1249MD1710051+9999REMSYN086AAXX  22031 35173 32998 61406 11065 21106 40169 57005 84034 333 48023 555 21068 7000/;EQDQ01  00002PRCP99
0193351730999992000012206004+51620+069800FM-12+031299999V0201401N008019999999N0040001N1-00511-01151101731ADDAA199000091AY131061AY221061GF106991001001999999001011KA1999N-00681MD1310051+9999MW1361REMSYN076AAXX  22061 35173 31996 61408 11051 21115 40173 53005 73632 80001 333 21068;EQDQ01  00002PRCP99
0140351730999992000012209004+51620+069800FM-12+031299999V0201401N006019999999N0040001N1-00411-00951101661ADDAY131031AY221031GF107991001001999999001011MD1810051+9999MW1021REMSYN066AAXX  22091 35173 41996 71406 11041 21095 40166 58005 70232 80001;
0171351730999992000012212004+51620+069800FM-12+031299999V0201401N004019999999N0200001N1-00471-00911101641ADDAY131061AY221061GF108991021001999999071051MA1999999097781MD1710021+9999MW1021REMSYN082AAXX  22121 35173 41998 81404 11047 21091 39778 40164 57002 70232 82075 555 1/106;
0165351730999992000012215004+51620+069800FM-12+031299999V0201601N006019999999N0200001N1-00501-00821101581ADDAA199000091GF108991001001999999001071KA1999M-00291MD1710081+9999REMSYN070AAXX  22151 35173 32998 81606 11050 21082 40158 57008 80007 333 11029;EQDQ01  00002PRCP99
0165351730999992000012218004+51620+069800FM-12+031299999V0201601N006019999999N0200001N1-00541-00871101501ADDAA199000091GF108991001001999999001071KA1999M-00291MD1710071+9999REMSYN070AAXX  22181 35173 32998 81606 11054 21087 40150 57007 80007 333 11029;EQDQ01  00002PRCP99
0112351730999992000012221004+51620+069800FM-12+031299999V0201601N006019999999N0200001N1-00591-00891101471ADDGF108991081001999999011999MD1710041+9999REMSYN060AAXX  22211 35173 42998 81606 11059 21089 40147 57004 8801/;
0143351730999992000012300004+51620+069800FM-12+031299999V0201801N004019999999N0200001N1-00491-00701101511ADDGF108991081001999999021999MA1999999097641MD1310051+9999REMSYN076AAXX  23001 35173 42998 81804 11049 21070 39764 40151 53005 8802/ 555 1/106;
0213351730999992000012303004+51620+069800FM-12+031299999V0201801N004010066019N0200001N1-00391-00541101501ADDAA199000091AJ100239199999999GA1081+006609069GF108991081051008001999999IA1249MD1210011+9999REMSYN092AAXX  23031 35173 32598 81804 11039 21054 40150 52001 885// 333 48023 88622 555 21060 7000/;EQDQ01  00002PRCP99
0196351730999992000012306004+51620+069800FM-12+031299999V0201801N002010069019N0040001N1-00331-00401101621ADDAA199000021AY171061AY221061GA1081+006909059GF108991081051008001999999KA1120N-00601MD1210121+9999MW1221REMSYN082AAXX  23061 35173 31596 81802 11033 21040 40162 52012 72272 885// 333 21060 88623;
0140351730999992000012309004+51620+069800FM-12+031299999V0201801N002019999999N0040001N1-00241-00331101651ADDAY171031AY221031GF108991081001999999021999MD1210051+9999MW1221REMSYN066AAXX  23091 35173 41996 81802 11024 21033 40165 52005 72272 8802/;
0196351730999992000012312004+51620+069800FM-12+031299999V0202301N002010063019N0200001N1-00231-00351101871ADDAY171061AY221061GA1081+006309069GF108991081051008001999999MA1999999098031MD1210211+9999MW1021REMSYN091AAXX  23121 3517341598 82302 11023 21035 39803 40187 52021 70272 885// 333 88621 555 1/102;
0167351730999992000012315004+51620+069800FM-12+031299999V0202001N004010039019N0200001N1-00441-00571101921ADDGA1081+003909079GF108991081061004501999999KA1120M-00191MD1210031+9999REMSYN086AAXX  23151 35173 /2498 82004 11044 21057 40192 52003 886// 333 11019 88713 555 60022;
0174351730999992000012318004+51620+069800FM-12+031299999V0202701N004010039019N0200001N1-00501-00711102061ADDAA100002091GA1081+003909069GF108991081061004501999999KA1120M-00191MD1210111+9999REMSYN082AAXX  23181 35173 12498 82704 11050 21071 40206 52011 60020 886// 333 11019 88713;
0138351730999992000012321004+51620+069800FM-12+031299999V0202701N004010066019N0200001N1-00941-01191102241ADDGA1081+006609059GF108991081051008001999999MD1210121+9999REMSYN070AAXX  23211 35173 42598 82704 11094 21119 40224 52012 885// 333 88622;
0143351730999992000012400004+51620+069800FM-12+031299999V0202701N002019999999N0200001N1-01161-01441102331ADDGF108991081001999999071999MA1999999098341MD1210051+9999REMSYN076AAXX  24001 35173 42998 82702 11116 21144 39834 40233 52005 8807/ 555 1/113;
0191351730999992000012403004+51620+069800FM-12+031299999V0202301N002019999999N0200001N1-01021-01221102241ADDAA199000091AJ100249199999999GF108991081001999999021999IA1249MD1810061+9999REMSYN086AAXX  24031 35173 32998 82302 11102 21122 40224 58006 8802/ 333 48024 555 21117 7002/;EQDQ01  00002PRCP99
0174351730999992000012406004+51620+069800FM-12+031299999V0201401N004019999999N0040001N1-01031-01161102291ADDAA199000021AY171061AY221061GF108991081001999999021999KA1999N-01171MD1310041+9999MW1711REMSYN076AAXX  24061 35173 31996 81404 11103 21116 40229 53004 77172 8802/ 333 21117;
0140351730999992000012409004+51620+069800FM-12+031299999V0201401N004019999999N0040001N1-00771-00951102191ADDAY171031AY271031GF108991081001999999021999MD1810051+9999MW1011REMSYN066AAXX  24091 35173 41996 81404 11077 21095 40219 58005 70177 8802/;
0171351730999992000012412004+51620+069800FM-12+031299999V0202001N006019999999N0200001N1-00511-00831102251ADDAY171061AY221061GF107991071001999999071001MA1999999098351MD1310081+9999MW1021REMSYN082AAXX  24121 35173 41998 72006 11051 21083 39835 40225 53008 70272 87070 555 1/106;
0167351730999992000012415004+51620+069800FM-12+031299999V0202001N006010039019N0200001N1-00831-01021102421ADDGA1061+003909079GF106991061071004501001001KA1120M-00391MD1210131+9999REMSYN086AAXX  24151 35173 /2498 62006 11083 21102 40242 52013 86700 333 11039 86713 555 69942;
0202351730999992000012418004+51620+069800FM-12+031299999V0202001N008010039019N0200001N1-01171-01371102771ADDAA100000591AY131061AY221061GA1081+003909069GF108991081061004501999999KA1120M-00391MD1210271+9999MW1361REMSYN088AAXX  24181 35173 11498 82008 11117 21137 40277 52027 69940 73632 886// 333 11039 88713;
0150351730999992000012421004+51620+069800FM-12+031299999V0201801N002012200019N0200001N1-01861-02051103151ADDAY131031AY211031GA1001+999999999GF100991001001999999001001MD1210261+9999MW1011REMSYN060AAXX  24211 35173 41998 01802 11186 21205 40315 52026 70131;
0181351730999992000012500004+51620+069800FM-12+031299999V0201801N002012200019N0200001N1-01961-02221103411ADDAY131061AY211061GA1001+999999999GF100991001001999999001001MA1999999099251MD1210241+9999MW1021REMSYN076AAXX  25001 35173 41998 01802 11196 21222 39925 40341 52024 70231 555 1/122;
0201351730999992000012503004+51620+069800FM-12+031299999V0202001N002012200019N0200001N1-02071-02321103601ADDAA199000091AJ100229199999999GA1001+999999999GF100991001001999999001001IA1249MD1210161+9999REMSYN080AAXX  25031 35173 32998 02002 11207 21232 40360 52016 333 48022 555 21211 7994/;EQDQ01  00002PRCP99
0175351730999992000012506004+51620+069800FM-12+031299999V0202301N004012200019N0040001N1-01881-02211103841ADDAA199000091GA1001+999999999GF100991001001999999001001KA1999N-02111MD1210261+9999REMSYN064AAXX  25061 35173 32996 02304 11188 21221 40384 52026 333 21211;EQDQ01  00002PRCP99
0122351730999992000012509004+51620+069800FM-12+031299999V0202301N004012200019N0040001N1-01681-02101103951ADDGA1001+999999999GF100991001001999999001001MD1210141+9999REMSYN054AAXX  25091 35173 42996 02304 11168 21210 40395 52014;
0153351730999992000012512004+51620+069800FM-12+031299999V0202301N002012200019N0040001N1-01851-02111104141ADDGA1001+999999999GF100991001001999999001001MA1999999099981MD1210171+9999REMSYN070AAXX  25121 35173 42996 02302 11185 21211 39998 40414 52017 555 1/122;
0175351730999992000012515004+51620+069800FM-12+031299999V0201801N002012200019N0200001N1-02251-02431104491ADDAA199000091GA1001+999999999GF100991001001999999001001KA1999M-00811MD1210271+9999REMSYN064AAXX  25151 35173 32998 01802 11225 21243 40449 52027 333 11081;EQDQ01  00002PRCP99
0175351730999992000012518004+51620+069800FM-12+031299999V0201401N002012200019N0200001N1-02311-02491104541ADDAA199000091GA1001+999999999GF100991001001999999001001KA1999M-01601MD1210031+9999REMSYN064AAXX  25181 35173 32998 01402 11231 21249 40454 52003 333 11160;EQDQ01  00002PRCP99
0122351730999992000012521004+51620+069800FM-12+031299999V0201601N002012200019N0200001N1-02451-02631104621ADDGA1001+999999999GF100991001001999999001001MD1210061+9999REMSYN054AAXX  25211 35173 42998 01602 11245 21263 40462 52006;
0171351730999992000012600004+51620+069800FM-12+031299999V0201601N002019999999N0010001N1-02311-02491104741ADDAY101061AY211061GF108991001001999999001071MA1999999100471MD1210131+9999MW1101REMSYN082AAXX  26001 35173 41994 81602 11231 21249 30047 40474 52013 71001 80007 555 1/125;
0191351730999992000012603004+51620+069800FM-12+031299999V0201401N002012200019N0200001N1-02431-02611104661ADDAA199000091AJ100229199999999GF104991001001999999001061IA1249MD1810091+9999REMSYN086AAXX  26031 35173 32998 41402 11243 21261 40466 58009 80006 333 48022 555 21250 7000/;EQDQ01  00002PRCP99
0175351730999992000012606004+51620+069800FM-12+031299999V0201601N002012200019N0040001N1-01821-02011104591ADDAA199000091GA1001+999999999GF100991001001999999001001KA1999N-02501MD1310031+9999REMSYN064AAXX  26061 35173 32996 01602 11182 21201 40459 53003 333 21250;EQDQ01  00002PRCP99
0122351730999992000012609004+51620+069800FM-12+031299999V0201401N002012200019N0040001N1-01341-02051104331ADDGA1001+999999999GF100991001001999999001001MD1810171+9999REMSYN054AAXX  26091 35173 42996 01402 11134 21205 40433 58017;
0143351730999992000012612004+51620+069800FM-12+031299999V0201401N002019999999N0040001N1-01681-02181104341ADDGF106991001001999999001011MA1999999100181MD1710061+9999REMSYN076AAXX  26121 35173 42996 61402 11168 21218 30018 40434 57006 80001 555 1/119;
0175351730999992000012615004+51620+069800FM-12+031299999V0201401N002012200019N0200001N1-01741-02151104291ADDAA199000091GA1001+999999999GF100991001001999999001001KA1999M-01321MD1710051+9999REMSYN064AAXX  26151 35173 32998 01402 11174 21215 40429 57005 333 11132;EQDQ01  00002PRCP99
0175351730999992000012618004+51620+069800FM-12+031299999V0201401N002012200019N0200001N1-01801-02141104151ADDAA199000091GA1001+999999999GF100991001001999999001001KA1999M-01321MD1710141+9999REMSYN064AAXX  26181 35173 32998 01402 11180 21214 40415 57014 333 11132;EQDQ01  00002PRCP99
0122351730999992000012621004+51620+069800FM-12+031299999V0201401N002012200019N0200001N1-01641-01901103991ADDGA1001+999999999GF100991001001999999001001MD1710121+9999REMSYN054AAXX  26211 35173 42998 01402 11164 21190 40399 57012;
0143351730999992000012700004+51620+069800FM-12+031299999V0201401N002012200019N0200001N1-01591-01781103781ADDGF101991001001999999001011MA1999999099671MD1710201+9999REMSYN076AAXX  27001 35173 42998 11402 11159 21178 39967 40378 57020 80001 555 1/119;
0191351730999992000012703004+51620+069800FM-12+031299999V0201601N004012200019N0200001N1-01511-01701103671ADDAA199000091AJ100229199999999GF101991001001999999001011IA1249MD1710101+9999REMSYN086AAXX  27031 35173 32998 11604 11151 21170 40367 57010 80001 333 48022 555 21181 7000/;EQDQ01  00002PRCP99
0165351730999992000012706004+51620+069800FM-12+031299999V0201601N004012200019N0040001N1-01261-01531103481ADDAA199000091GF103991001001999999001011KA1999N-01811MD1710131+9999REMSYN070AAXX  27061 35173 32996 31604 11126 21153 40348 57013 80001 333 21181;EQDQ01  00002PRCP99
0112351730999992000012709004+51620+069800FM-12+031299999V0201401N002019999999N0040001N1-01031-01391103331ADDGF106991001001999999001011MD1710121+9999REMSYN060AAXX  27091 35173 42996 61402 11103 21139 40333 57012 80001;
0143351730999992000012712004+51620+069800FM-12+031299999V0201401N002019999999N0040001N1-01131-01411103191ADDGF105991031001999999071051MA1999999099171MD1710151+9999REMSYN076AAXX  27121 35173 42996 51402 11113 21141 39917 40319 57015 83075 555 1/114;
0175351730999992000012715004+51620+069800FM-12+031299999V0200901N002012200019N0200001N1-01311-01581103161ADDAA199000091GA1001+999999999GF100991001001999999001001KA1999M-00971MD1710061+9999REMSYN064AAXX  27151 35173 32998 00902 11131 21158 40316 57006 333 11097;EQDQ01  00002PRCP99
0175351730999992000012718004+51620+069800FM-12+031299999V0209999C000012200019N0200001N1-01351-01621103071ADDAA199000091GA1001+999999999GF100991001001999999001001KA1999M-00971MD1710091+9999REMSYN064AAXX  27181 35173 32998 00000 11135 21162 40307 57009 333 11097;EQDQ01  00002PRCP99
0122351730999992000012721004+51620+069800FM-12+031299999V0209999C000012200019N0200001N1-01481-01681102981ADDGA1001+999999999GF100991001001999999001001MD1710121+9999REMSYN054AAXX  27211 35173 42998 00000 11148 21168 40298 57012;
0153351730999992000012800004+51620+069800FM-12+031299999V0201401N002012200019N0200001N1-01411-01681102831ADDGA1001+999999999GF100991001001999999001001MA1999999098821MD1710081+9999REMSYN070AAXX  28001 35173 42998 01402 11141 21168 39882 40283 57008 555 1/117;
0191351730999992000012803004+51620+069800FM-12+031299999V0201401N002012200019N0200001N1-01391-01661102831ADDAA199000091AJ100229199999999GF103991001001999999001011IA1249MD1710041+9999REMSYN086AAXX  28031 35173 32998 31402 11139 21166 40283 57004 80001 333 48022 555 21151 7000/;EQDQ01  00002PRCP99
0165351730999992000012806004+51620+069800FM-12+031299999V0201401N002019999999N0040001N1-01211-01561102801ADDAA199000091GF106991001001999999001081KA1999N-01511MD1410001+9999REMSYN070AAXX  28061 35173 32996 61402 11121 21156 40280 54000 80008 333 21151;EQDQ01  00002PRCP99
0112351730999992000012809004+51620+069800FM-12+031299999V0201601N004019999999N0040001N1-01011-01371102511ADDGF105991001001999999001071MD1810251+9999REMSYN060AAXX  28091 35173 42996 51604 11101 21137 40251 58025 80007;
0143351730999992000012812004+51620+069800FM-12+031299999V0201401N006019999999N0040001N1-01231-01501102461ADDGF106991001001999999001081MA1999999098461MD1710071+9999REMSYN076AAXX  28121 35173 42996 61406 11123 21150 39846 40246 57007 80008 555 1/114;
0175351730999992000012815004+51620+069800FM-12+031299999V0201401N006012200019N0200001N1-01291-01491102531ADDAA199000091GA1001+999999999GF100991001001999999001001KA1999M-00951MD1310041+9999REMSYN064AAXX  28151 35173 32998 01406 11129 21149 40253 53004 333 11095;EQDQ01  00002PRCP99
0175351730999992000012818004+51620+069800FM-12+031299999V0201601N004012200019N0200001N1-01251-01451102441ADDAA199000091GA1001+999999999GF100991001001999999001001KA1999M-00951MD1810061+9999REMSYN064AAXX  28181 35173 32998 01604 11125 21145 40244 58006 333 11095;EQDQ01  00002PRCP99
0122351730999992000012821004+51620+069800FM-12+031299999V0201601N004012200019N0200001N1-01321-01511102481ADDGA1001+999999999GF100991001001999999001001MD1310021+9999REMSYN054AAXX  28211 35173 42998 01604 11132 21151 40248 53002;
0171351730999992000012900004+51620+069800FM-12+031299999V0201801N002019999999N0010001N1-00941-01011102521ADDAY171061AY211061GF108991081001999999021999MA1999999098551MD1210091+9999MW1711REMSYN082AAXX  29001 35173 41994 81802 11094 21101 39855 40252 52009 77171 8802/ 555 1/111;
0178351730999992000012903004+51620+069800FM-12+031299999V0201801N002019999999N0200001N1-00991-01071102591ADDAA112000991AJ100239199999999GF108991081001999999021999IA1249MD1210061+9999REMSYN092AAXX  29031 35173 /2998 81802 11099 21107 40259 52006 8802/ 333 48023 555 21134 69992 7999/;
0180351730999992000012906004+51620+069800FM-12+031299999V0209999C000019999999N0040001N1-00891-00961102571ADDAA100001091AY171061AY221061GF108991081001999999021999KA1999N-01341MD1810011+9999MW1711REMSYN082AAXX  29061 35173 11996 80000 11089 21096 40257 58001 69990 77172 8802/ 333 21134;
0140351730999992000012909004+51620+069800FM-12+031299999V0209999C000019999999N0040001N1-00821-00881102501ADDAY171031AY271031GF108991081001999999021999MD1710051+9999MW1711REMSYN066AAXX  29091 35173 41996 80000 11082 21088 40250 57005 77177 8802/;
0171351730999992000012912004+51620+069800FM-12+031299999V0209999C000019999999N0020001N1-00771-00831102401ADDAY171061AY271061GF108991081001999999021999MA1999999098471MD1710081+9999MW1731REMSYN082AAXX  29121 35173 41995 80000 11077 21083 39847 40240 57008 77377 8802/ 555 1/107;
0173351730999992000012915004+51620+069800FM-12+031299999V0200501N002019999999N0010001N1-00831-00831102331ADDAY171031AY271031GF108991081001999999021999KA1120M-00711MD1710081+9999MW1731REMSYN086AAXX  29151 35173 /1994 80502 11083 21083 40233 57008 77377 8802/ 333 11071 555 60062;
0180351730999992000012918004+51620+069800FM-12+031299999V0203601N002019999999N0010001N1-00831-00851102301ADDAA100006191AY171061AY271061GF108991081001999999021999KA1999M-00711MD1710031+9999MW1711REMSYN082AAXX  29181 35173 11994 83602 11083 21085 40230 57003 60060 77177 8802/ 333 11071;
0140351730999992000012921004+51620+069800FM-12+031299999V0203601N002019999999N0200001N1-01011-01071102421ADDAY171031AY221031GF108991081001999999071999MD1310091+9999MW1021REMSYN066AAXX  29211 35173 41998 83602 11101 21107 40242 53009 70272 8807/;
0181351730999992000013000004+51620+069800FM-12+031299999V0203601N002012200019N0200001N1-01731-01791102681ADDAY171061AY211061GA1001+999999999GF100991001001999999001001MA1999999098591MD1210141+9999MW1011REMSYN076AAXX  30001 35173 41998 03602 11173 21179 39859 40268 52014 70171 555 1/119;
0188351730999992000013003004+51620+069800FM-12+031299999V0202901N002012200019N0200001N1-02551-02611102961ADDAA112001091AJ100259199999999GA1001+999999999GF100991001001999999001001IA1249MD1210141+9999REMSYN086AAXX  30031 35173 /2998 02902 11255 21261 40296 52014 333 48025 555 21258 60012 7007/;
0162351730999992000013006004+51620+069800FM-12+031299999V0202701N002012200019N0040001N1-02001-02191103001ADDAA100001091GA1001+999999999GF100991001001999999001001KA1999N-02581MD1210121+9999REMSYN070AAXX  30061 35173 12996 02702 11200 21219 40300 52012 60010 333 21258;
0112351730999992000013009004+51620+069800FM-12+031299999V0202701N002019999999N0200001N1-01611-01951102921ADDGF106991001001999999001081MD1810011+9999REMSYN060AAXX  30091 35173 42998 62702 11161 21195 40292 58001 80008;
0143351730999992000013012004+51620+069800FM-12+031299999V0202301N002019999999N0040001N1-01301-01501102981ADDGF108991081001999999021999MA1999999098931MD1310091+9999REMSYN076AAXX  30121 35173 42996 82302 11130 21150 39893 40298 53009 8802/ 555 1/114;
0195351730999992000013015004+51620+069800FM-12+031299999V0202301N004010069019N0010001N1-01031-01161102921ADDAY171031AY221031GA1081+006909069GF108991081051008001999999KA1120M-00991MD1410001+9999MW1781REMSYN092AAXX  30151 35173 /1594 82304 11103 21116 40292 54000 77872 885// 333 11099 88623 555 69922;
0202351730999992000013018004+51620+069800FM-12+031299999V0202301N004010075019N0200001N1-01041-01321102971ADDAA100000191AY171061AY221061GA1081+007509059GF108991081051008001999999KA1120M-00991MD1310051+9999MW1021REMSYN088AAXX  30181 35173 11598 82304 11104 21132 40297 53005 69920 70272 885// 333 11099 88625;
0138351730999992000013021004+51620+069800FM-12+031299999V0202301N004010033019N0200001N1-00991-01111102971ADDGA1081+003309069GF108991081061999999999999MD1410001+9999REMSYN070AAXX  30211 35173 42998 82304 11099 21111 40297 54000 886// 333 88711;
0197351730999992000013100004+51620+069800FM-12+031299999V0202701N004010027019N0200001N1-00971-01051102971ADDAY171061AY221061GA1081+002709079GF108991081061002501999999MA1999999098991MD1310011+9999MW1201REMSYN092AAXX  31001 35173 41398 82704 11097 21105 39899 40297 53001 72072 886// 333 88709 555 1/111;
0228351730999992000013103004+51620+069800FM-12+031299999V0202701N002010021019N0010001N1-00911-00941103061ADDAA112999929AJ100259199999999AY121031AY221031GA1081+002109079GF108991081061002501999999IA1249MD1210091+9999MW1101REMSYN104AAXX  31031 35173 /1394 82702 11091 21094 40306 52009 71022 886// 333 48025 88707 555 21109 69902 7992/;
0202351730999992000013106004+51620+069800FM-12+031299999V0202501N002010027019N0040001N1-00851-00921103181ADDAA100000791AY171061AY221061GA1081+002709069GF108991081061002501999999KA1120N-01091MD1210131+9999MW1021REMSYN088AAXX  31061 35173 11396 82502 11085 21092 40318 52013 69900 70272 886// 333 21109 88709;
0138351730999992000013109004+51620+069800FM-12+031299999V0202701N004010060019N0040001N1-00601-00711103211ADDGA1081+006009059GF108991081051008001999999MD1210061+9999REMSYN070AAXX  31091 35173 42596 82704 11060 21071 40321 52006 885// 333 88620;
0143351730999992000013112004+51620+069800FM-12+031299999V0202501N002019999999N0040001N1-00621-00741103281ADDGF108991081001999999021999MA1999999099331MD1210061+9999REMSYN076AAXX  31121 35173 42996 82502 11062 21074 39933 40328 52006 8802/ 555 1/107;
0145351730999992000013115004+51620+069800FM-12+031299999V0202701N002019999999N0200001N1-00731-00821103441ADDGF108991081001999999021999KA1120M-00541MD1210141+9999REMSYN080AAXX  31151 35173 /2998 82702 11073 21082 40344 52014 8802/ 333 11054 555 69952;
0202351730999992000013118004+51620+069800FM-12+031299999V0202301N002010030019N0010001N1-00631-00751103421ADDAA100000591AY101061AY221061GA1081+003009069GF108991081061004501999999KA1120M-00541MD1410001+9999MW1101REMSYN088AAXX  31181 35173 11494 82302 11063 21075 40342 54000 69950 71002 886// 333 11054 88710;
0138351730999992000013121004+51620+069800FM-12+031299999V0202301N002010033019N0200001N1-00571-00681103371ADDGA1081+003309069GF108991081061999999999999MD1810041+9999REMSYN070AAXX  31211 35173 42998 82302 11057 21068 40337 58004 886// 333 88711;
0169351730999992000020100004+51620+069800FM-12+031299999V0202301N00201030001CN0200001N1-00541-00641103331ADDGA1081+999999059GF108991081051008001999999MA1999999099391MD1710041+9999REMSYN086AAXX  01001 35173 42598 82302 11054 21064 39939 40333 57004 885// 333 88621 555 1/106;
0206351730999992000020103004+51620+069800FM-12+031299999V0201801N002019999999N0200001N1-00881-00991103391ADDAA112000291AJ100289199999999AY171031AY221031GF108991081001999999021999IA1249MD1410001+9999MW1021REMSYN098AAXX  01031 35173 /1998 81802 11088 21099 40339 54000 70272 8802/ 333 48028 555 21089 69922 7997/;
0174351730999992000020106004+51620+069800FM-12+031299999V0201801N002019999999N0040001N1-00731-00861103301ADDAA100000191AY171061AY221061GF107991999999008001999999KA1999N-00891MD1810061+9999MW1781REMSYN076AAXX  01061 35173 11596 71802 11073 21086 40330 58006 69920 77872 333 21089;
0140351730999992000020109004+51620+069800FM-12+031299999V0201801N002010075019N0040001N1-00611-00801103141ADDAY171031AY271031GF107991071051008001001001MD1710131+9999MW1781REMSYN066AAXX  01091 35173 41596 71802 11061 21080 40314 57013 77877 87500;
0171351730999992000020112004+51620+069800FM-12+031299999V0201401N002019999999N0040001N1-00731-00941103091ADDAY171061AY221061GF108991081001999999071999MA1999999099131MD1710071+9999MW1021REMSYN082AAXX  01121 35173 41996 81402 11073 21094 39913 40309 57007 70272 8807/ 555 1/107;
0145351730999992000020115004+51620+069800FM-12+031299999V0201401N002019999999N0200001N1-00951-01111103021ADDGF108991081001999999071999KA1120M-00541MD1710091+9999REMSYN080AAXX  01151 35173 /2998 81402 11095 21111 40302 57009 8807/ 333 11054 555 69942;
0152351730999992000020118004+51620+069800FM-12+031299999V0201801N004019999999N0200001N1-00931-01051102901ADDAA100000591GF108991081001999999021999KA1999M-00541MD1710121+9999REMSYN076AAXX  01181 35173 12998 81804 11093 21105 40290 57012 69940 8802/ 333 11054;
0112351730999992000020121004+51620+069800FM-12+031299999V0201801N004019999999N0200001N1-01071-01131102781ADDGF108991081001999999021999MD1710131+9999REMSYN060AAXX  01211 35173 42998 81804 11107 21113 40278 57013 8802/;
0153351730999992000020200004+51620+069800FM-12+031299999V0201401N004012200019N0200001N1-01391-01451102651ADDGA1001+999999999GF100991001001999999001001MA1999999098611MD1710181+9999REMSYN070AAXX  02001 35173 42998 01404 11139 21145 39861 40265 57018 555 1/116;
0191351730999992000020203004+51620+069800FM-12+031299999V0201401N002012200019N0040001N1-01481-01541102601ADDAA199000091AJ100299199999999GF102991001001999999001081IA1249MD1710071+9999REMSYN086AAXX  02031 35173 32996 21402 11148 21154 40260 57007 80008 333 48029 555 21151 7994/;EQDQ01  00002PRCP99
0165351730999992000020206004+51620+069800FM-12+031299999V0201401N002012200019N0040001N1-01421-01481102541ADDAA199000091GF103991001001999999001081KA1999N-01511MD1710041+9999REMSYN070AAXX  02061 35173 32996 31402 11142 21148 40254 57004 80008 333 21151;EQDQ01  00002PRCP99
0112351730999992000020209004+51620+069800FM-12+031299999V0201601N002019999999N0040001N1-01451-01721102271ADDGF106991001001999999001081MD1710251+9999REMSYN060AAXX  02091 35173 42996 61602 11145 21172 40227 57025 80008;
0143351730999992000020212004+51620+069800FM-12+031299999V0201401N002019999999N0040001N1-01581-01771102141ADDGF106991001001999999001011MA1999999098091MD1710161+9999REMSYN076AAXX  02121 35173 42996 61402 11158 21177 39809 40214 57016 80001 555 1/116;
0175351730999992000020215004+51620+069800FM-12+031299999V0201601N002012200019N0200001N1-01731-01921102031ADDAA199000091GA1001+999999999GF100991001001999999001001KA1999M-01351MD1710131+9999REMSYN064AAXX  02151 35173 32998 01602 11173 21192 40203 57013 333 11135;EQDQ01  00002PRCP99
0175351730999992000020218004+51620+069800FM-12+031299999V0201401N002012200019N0200001N1-01691-01881101881ADDAA199000091GA1001+999999999GF100991001001999999001001KA1999M-01351MD1710141+9999REMSYN064AAXX  02181 35173 32998 01402 11169 21188 40188 57014 333 11135;EQDQ01  00002PRCP99
0122351730999992000020221004+51620+069800FM-12+031299999V0201601N002012200019N0200001N1-01731-01921101671ADDGA1001+999999999GF100991001001999999001001MD1710201+9999REMSYN054AAXX  02211 35173 42998 01602 11173 21192 40167 57020;
0143351730999992000020300004+51620+069800FM-12+031299999V0201601N004012200019N0200001N1-01571-01761101381ADDGF103991001001999999001041MA1999999097361MD1710261+9999REMSYN076AAXX  03001 35173 42998 31604 11157 21176 39736 40138 57026 80004 555 1/117;
0191351730999992000020303004+51620+069800FM-12+031299999V0201401N004019999999N0040001N1-01151-01281101191ADDAA199000091AJ100299199999999GF108991081001999999021999IA1249MD1710111+9999REMSYN086AAXX  03031 35173 32996 81404 11115 21128 40119 57011 8802/ 333 48029 555 21176 7000/;EQDQ01  00002PRCP99
0193351730999992000020306004+51620+069800FM-12+031299999V0201801N008019999999N0040001N1-00741-00831101061ADDAA199000091AY171061AY231061GF105991021001999999071051KA1999N-01761MD1710071+9999MW1361REMSYN076AAXX  03061 35173 31996 51808 11074 21083 40106 57007 73673 82075 333 21176;EQDQ01  00002PRCP99
0140351730999992000020309004+51620+069800FM-12+031299999V0201801N006019999999N0040001N1-00511-00581101071ADDAY171031AY231031GF108991081001999999021999MD1310041+9999MW1711REMSYN066AAXX  03091 35173 41996 81806 11051 21058 40107 53004 77173 8802/;
0171351730999992000020312004+51620+069800FM-12+031299999V0202301N006019999999N0040001N1-00731-00901101321ADDAY171061AY231061GF106991061001999999071001MA1999999097431MD1210211+9999MW1021REMSYN082AAXX  03121 35173 41996 62306 11073 21090 39743 40132 52021 70273 86070 555 1/108;
0145351730999992000020315004+51620+069800FM-12+031299999V0202301N004019999999N0200001N1-00671-00791101411ADDGF108991081001999999021999KA1120M-00481MD1210101+9999REMSYN080AAXX  03151 35173 /2998 82304 11067 21079 40141 52010 8802/ 333 11048 555 69972;
0152351730999992000020318004+51620+069800FM-12+031299999V0202301N004019999999N0200001N1-00651-00771101541ADDAA100000891GF108991081001999999011999KA1999M-00481MD1210131+9999REMSYN076AAXX  03181 35173 12998 82304 11065 21077 40154 52013 69970 8801/ 333 11048;
0112351730999992000020321004+51620+069800FM-12+031299999V0202301N004019999999N0200001N1-00711-00841101741ADDGF108991081001999999021999MD1210171+9999REMSYN060AAXX  03211 35173 42998 82304 11071 21084 40174 52017 8802/;
0153351730999992000020400004+51620+069800FM-12+031299999V0202001N002012200019N0200001N1-01491-01621102061ADDGA1001+999999999GF100991001001999999001001MA1999999098021MD1210191+9999REMSYN070AAXX  04001 35173 42998 02002 11149 21162 39802 40206 52019 555 1/117;
0186351730999992000020403004+51620+069800FM-12+031299999V0201801N004019999999N0020001N1-01011-01071101971ADDAA112000291AJ100329199999999AY171031AY211031GF108991081001999999021999IA1249MW1731REMSYN092AAXX  04031 35173 /1995 81804 11101 21107 40197 77371 8802/ 333 48032 555 21153 69922 7999/;
0199351730999992000020406004+51620+069800FM-12+031299999V0202301N008010042019N0010001N1-00721-00811101931ADDAA100000191AY171061AY231061GF108991999071004501021999KA1999N-01531MD1410001+9999MW1381REMSYN082AAXX  04061 35173 11494 82308 11072 21081 40193 54000 69920 73873 8872/ 333 21153;EQDQ01+000082SCOTLC
0215351730999992000020506004+51620+069800FM-12+031299999V0202001N006010039019N0040001N1-00181-00321101701ADDAA199000091AY131061AY221061GA1081+003909069GF108991081061004501999999KA1120N-00331MD1210041+9999MW1021REMSYN082AAXX  05061 35173 31496 82006 11018 21032 40170 52004 70232 886// 333 21033 88713;EQDQ01  00002PRCP99
0140351730999992000020509004+51620+069800FM-12+031299999V0202001N004019999999N0020001N1-00081-00201101631ADDAY171031AY221031GF108991081001999999021999MD1810051+9999MW1731REMSYN066AAXX  05091 35173 41995 82004 11008 21020 40163 58005 77372 8802/;
0171351730999992000020512004+51620+069800FM-12+031299999V0202301N006019999999N0040001N1-00061-00181101541ADDAY171061AY271061GF108991081001999999021999MA1999999097741MD1710091+9999MW1711REMSYN082AAXX  05121 35173 41996 82306 11006 21018 39774 40154 57009 77177 8802/ 555 1/100;
0175351730999992000020706004+51620+069800FM-12+031299999V0200501N004012200019N0040001N1-01111-01241102481ADDAA199000091GA1001+999999999GF100991001001999999001001KA1999N-02161MD1710121+9999REMSYN064AAXX  07061 35173 32996 00504 11111 21124 40248 57012 333 21216;EQDQ01  00002PRCP99
0112351730999992000020709004+51620+069800FM-12+031299999V0200501N004012200019N0040001N1-01021-01221102211ADDGF103991031001999999071001MD1710241+9999REMSYN060AAXX  07091 35173 42996 30504 11102 21122 40221 57024 83070;
0171351730999992000020712004+51620+069800FM-12+031299999V0200901N004019999999N0040001N1-00931-01181102011ADDAY171061AY221061GF108991081001999999021999MA1999999098071MD1710181+9999MW1711REMSYN082AAXX  07121 35173 41996 80904 11093 21118 39807 40201 57018 77172 8802/ 555 1/109;
0173351730999992000020715004+51620+069800FM-12+031299999V0200901N004019999999N0010001N1-00951-01161101971ADDAY171031AY271031GF108991081001999999021999KA1120M-00891MD1710051+9999MW1711REMSYN086AAXX  07151 35173 /1994 80904 11095 21116 40197 57005 77177 8802/ 333 11089 555 69962;
0174351730999992000020718004+51620+069800FM-12+031299999V0201101N002019999999N0200001N1-00871-00901101801ADDAA100000591AY171061AY221061GF108991999999999999999999KA1999M-00891MD1710141+9999MW1021REMSYN076AAXX  07181 35173 11998 81102 11087 21090 40180 57014 69960 70272 333 11089;
0140351730999992000020721004+51620+069800FM-12+031299999V0200901N002019999999N0010001N1-00841-00901101771ADDAY171031AY221031GF108991081001999999021999MD1710031+9999MW1711REMSYN066AAXX  07211 35173 41994 80902 11084 21090 40177 57003 77172 8802/;
0171351730999992000020800004+51620+069800FM-12+031299999V0200901N002019999999N0200001N1-01341-01401101821ADDAY171061AY221061GF108991081001999999021999MA1999999097821MD1710031+9999MW1021REMSYN082AAXX  08001 35173 41998 80902 11134 21140 39782 40182 57003 70272 8802/ 555 1/114;
0178351730999992000020803004+51620+069800FM-12+031299999V0209999C000019999999N0040001N1-01381-01441101831ADDAA112000491AJ100339199999999GF108991081001999999011999IA1249MD1410001+9999REMSYN092AAXX  08031 35173 /2996 80000 11138 21144 40183 54000 8801/ 333 48033 555 21140 69942 7001/;
0191351730999992000020806004+51620+069800FM-12+031299999V0201101N999992200019N0029001N1+99999+99999101881ADDAA100000591GF102991999001000751011999KA1999N-01401MD1310061+9999REMSYN064AAXX  08061 35173 11129 21135 40188 53006 69940 8801/ 333 21140;EQDQ01+003503WOSPD Q02+000082SCOTLCQ030003503WOSPD 
0171351730999992000020812004+51620+069800FM-12+031299999V0203201N002019999999N0040001N1-01091-01151101851ADDAY171061AY221061GF108991081001999999071999MA1999999097881MD1310041+9999MW1021REMSYN082AAXX  08121 35173 41996 83202 11109 21115 39788 40185 53004 70272 8807/ 555 1/111;
0155351730999992000020815004+51620+069800FM-12+031299999V0209999C000012200019N0200001N1-01661-01721102021ADDGA1001+999999999GF100991001001999999001001KA1120M-01071MD1210091+9999REMSYN074AAXX  08151 35173 /2998 00000 11166 21172 40202 52009 333 11107 555 69942;
0162351730999992000020818004+51620+069800FM-12+031299999V0209999C000012200019N0200001N1-02201-02261102171ADDAA100000591GA1001+999999999GF100991001001999999001001KA1999M-01071MD1210051+9999REMSYN070AAXX  08181 35173 12998 00000 11220 21226 40217 52005 69940 333 11107;
0122351730999992000020821004+51620+069800FM-12+031299999V0209999C000012200019N0200001N1-02531-02581102281ADDGA1001+999999999GF100991001001999999001001MD1210061+9999REMSYN054AAXX  08211 35173 42998 00000 11253 21258 40228 52006;
0181351730999992000020900004+51620+069800FM-12+031299999V0209999C000012200019N0001001N1-02351-02411102231ADDAY141061AY201061GA1001+999999999GF100991001001999999001001MA1999999098061MD1810021+9999MW1481REMSYN076AAXX  09001 35173 41991 00000 11235 21241 39806 40223 58002 74840 555 1/126;
0229351730999992000020903004+51620+069800FM-12+031299999V0209999C000012200019N0040001N1-02341-02401102341ADDAA199000091AJ100349199999999AY141031AY201031GA1001+999999999GF100991001001999999001001IA1249MD1310111+9999MW1021REMSYN086AAXX  09031 35173 31996 00000 11234 21240 40234 53011 70240 333 48034 555 21256 7994/;EQDQ01  00002PRCP99
0193351730999992000020906004+51620+069800FM-12+031299999V0209999C000012200019N0040001N1-02311-02361102451ADDAA199000091AY141061AY201061GF102991001001999999001041KA1999N-02561MD1210111+9999MW1021REMSYN076AAXX  09061 35173 31996 20000 11231 21236 40245 52011 70240 80004 333 21256;EQDQ01  00002PRCP99
0112351730999992000020909004+51620+069800FM-12+031299999V0202701N002012200019N0040001N1-01831-01891102441ADDGF102991001001999999001041MD1210061+9999REMSYN060AAXX  09091 35173 42996 22702 11183 21189 40244 52006 80004;
0153351730999992000020912004+51620+069800FM-12+031299999V0202701N002012200019N0040001N1-01951-02011102581ADDGA1001+999999999GF100991001001999999001001MA1999999098461MD1210121+9999REMSYN070AAXX  09121 35173 42996 02702 11195 21201 39846 40258 52012 555 1/121;
0175351730999992000020915004+51620+069800FM-12+031299999V0209999C000012200019N0200001N1-02331-02391102861ADDAA199000091GA1001+999999999GF100991001001999999001001KA1999M-01701MD1210211+9999REMSYN064AAXX  09151 35173 32998 00000 11233 21239 40286 52021 333 11170;EQDQ01  00002PRCP99
0175351730999992000020918004+51620+069800FM-12+031299999V0209999C000012200019N0200001N1-02301-02361103111ADDAA199000091GA1001+999999999GF100991001001999999001001KA1999M-01701MD1210231+9999REMSYN064AAXX  09181 35173 32998 00000 11230 21236 40311 52023 333 11170;EQDQ01  00002PRCP99
0150351730999992000020921004+51620+069800FM-12+031299999V0209999C000012200019N0200001N1-02261-02321103201ADDAY141031AY201031GA1001+999999999GF100991001001999999001001MD1210091+9999MW1281REMSYN060AAXX  09211 35173 41998 00000 11226 21232 40320 52009 72840;
0171351730999992000021000004+51620+069800FM-12+031299999V0209999C000019999999N0200001N1-02171-02231103341ADDAY141061AY211061GF108991081001999999071999MA1999999099141MD1210151+9999MW1021REMSYN082AAXX  10001 35173 41998 80000 11217 21223 39914 40334 52015 70241 8807/ 555 1/124;
0191351730999992000021003004+51620+069800FM-12+031299999V0201801N002019999999N0040001N1-02181-02241103451ADDAA199000091AJ100349199999999GF108991081001999999071999IA1249MD1210111+9999REMSYN086AAXX  10031 35173 32996 81802 11218 21224 40345 52011 8807/ 333 48034 555 21234 7000/;EQDQ01  00002PRCP99
0165351730999992000021006004+51620+069800FM-12+031299999V0201801N002019999999N0040001N1-02051-02111103491ADDAA199000091GF108991081001999999071999KA1999N-02341MD1210071+9999REMSYN070AAXX  10061 35173 32996 81802 11205 21211 40349 52007 8807/ 333 21234;EQDQ01  00002PRCP99
0112351730999992000021009004+51620+069800FM-12+031299999V0201801N002012200019N0040001N1-01761-01821103461ADDGF102991001001999999001011MD1410001+9999REMSYN060AAXX  10091 35173 42996 21802 11176 21182 40346 54000 80001;
0143351730999992000021012004+51620+069800FM-12+031299999V0201801N002019999999N0040001N1-01911-01971103491ADDGF105991001001999999001081MA1999999099331MD1310011+9999REMSYN076AAXX  10121 35173 42996 51802 11191 21197 39933 40349 53001 80008 555 1/117;
0175351730999992000021015004+51620+069800FM-12+031299999V0201601N002012200019N0200001N1-02081-02141103571ADDAA199000091GA1001+999999999GF100991001001999999001001KA1999M-01521MD1210051+9999REMSYN064AAXX  10151 35173 32998 01602 11208 21214 40357 52005 333 11152;EQDQ01  00002PRCP99
0175351730999992000021018004+51620+069800FM-12+031299999V0201401N002012200019N0200001N1-02031-02091103491ADDAA199000091GA1001+999999999GF100991001001999999001001KA1999M-01521MD1810061+9999REMSYN064AAXX  10181 35173 32998 01402 11203 21209 40349 58006 333 11152;EQDQ01  00002PRCP99
0122351730999992000021021004+51620+069800FM-12+031299999V0201601N002012200019N0200001N1-01951-02011103391ADDGA1001+999999999GF100991001001999999001001MD1710081+9999REMSYN054AAXX  10211 35173 42998 01602 11195 21201 40339 57008;
0171351730999992000021100004+51620+069800FM-12+031299999V0201601N004019999999N0010001N1-01651-01711103181ADDAY171061AY211061GF108991081001999999021999MA1999999099091MD1710151+9999MW1711REMSYN082AAXX  11001 35173 41994 81604 11165 21171 39909 40318 57015 77171 8802/ 555 1/119;
0206351730999992000021103004+51620+069800FM-12+031299999V0201601N006019999999N0040001N1-01471-01531103111ADDAA112000691AJ100359199999999AY171031AY271031GF108991081001999999021999IA1249MD1710061+9999MW1711REMSYN098AAXX  11031 35173 /1996 81606 11147 21153 40311 57006 77177 8802/ 333 48035 555 21211 69962 7996/;
0180351730999992000021106004+51620+069800FM-12+031299999V0201801N008019999999N0040001N1-00981-01101102951ADDAA100000591AY171061AY231061GF108991081001999999021999KA1999N-02111MD1710071+9999MW1361REMSYN082AAXX  11061 35173 11996 81808 11098 21110 40295 57007 69960 73673 8802/ 333 21211;
0140351730999992000021109004+51620+069800FM-12+031299999V0201801N010019999999N0010001N1-00741-00831102811ADDAY171031AY231031GF108991081001999999021999MD1710101+9999MW1381REMSYN066AAXX  11091 35173 41994 81810 11074 21083 40281 57010 73873 8802/;
0171351730999992000021112004+51620+069800FM-12+031299999V0201801N006019999999N0020001N1-00551-00621102751ADDAY171061AY231061GF108991081001999999021999MA1999999098831MD1710031+9999MW1731REMSYN082AAXX  11121 35173 41995 81806 11055 21062 39883 40275 57003 77373 8802/ 555 1/105;
0173351730999992000021115004+51620+069800FM-12+031299999V0201801N006019999999N0010001N1-00521-00551102711ADDAY171031AY271031GF108991081001999999021999KA1120M-00491MD1710041+9999MW1731REMSYN086AAXX  11151 35173 /1994 81806 11052 21055 40271 57004 77377 8802/ 333 11049 555 60042;
0180351730999992000021118004+51620+069800FM-12+031299999V0201801N008019999999N0010001N1-00541-00541102591ADDAA100004191AY171061AY231061GF108991081001999999021999KA1999M-00491MD1710111+9999MW1711REMSYN082AAXX  11181 35173 11994 81808 11054 21054 40259 57011 60040 77173 8802/ 333 11049;
0140351730999992000021121004+51620+069800FM-12+031299999V0201801N008019999999N0010001N1-00571-00571102431ADDAY171031AY231031GF108991081001999999021999MD1710161+9999MW1711REMSYN066AAXX  11211 35173 41994 81808 11057 21057 40243 57016 77173 8802/;
0171351730999992000021200004+51620+069800FM-12+031299999V0201801N006019999999N0200001N1-00531-00561102251ADDAY171061AY221061GF108991081001999999011999MA1999999098351MD1710071+9999MW1021REMSYN082AAXX  12001 35173 41998 81806 11053 21056 39835 40225 57007 70272 8801/ 555 1/106;
0178351730999992000021203004+51620+069800FM-12+031299999V0202001N004019999999N0040001N1-00391-00411102091ADDAA112001091AJ100379199999999GF108991081001999999021999IA1249MD1710121+9999REMSYN092AAXX  12031 35173 /2996 82004 11039 21041 40209 57012 8802/ 333 48037 555 21058 60010 7005/;
0180351730999992000021206004+51620+069800FM-12+031299999V0201801N002019999999N0040001N1-00031-00091102001ADDAA100001091AY171061AY221061GF108991081001999999021999KA1999N-00581MD1710041+9999MW1221REMSYN082AAXX  12061 35173 11996 81802 11003 21009 40200 57004 60010 72272 8802/ 333 21058;
0138351730999992000021209004+51620+069800FM-12+031299999V0202701N004010087019N0040001N1+00031-00111101961ADDGA1081+008709059GF108991081051008001999999MD1710031+9999REMSYN070AAXX  12091 35173 42596 82704 10003 21011 40196 57003 885// 333 88629;
0197351730999992000021300004+51620+069800FM-12+031299999V0202301N004010063019N0200001N1-00081-00111101811ADDAY171061AY221061GA1081+006309069GF108991081051008001999999MA1999999098001MD1710041+9999MW1021REMSYN092AAXX  13001 35173 41598 82304 11008 21011 39800 40181 57004 70272 885// 333 88621 555 1/102;
0178351730999992000021303004+51620+069800FM-12+031299999V0202301N004019999999N0040001N1-00181-00231101861ADDAA112001091AJ100419199999999GF108991081001999999071999IA1249MD1310031+9999REMSYN092AAXX  13031 35173 /2996 82304 11018 21023 40186 53003 8807/ 333 48041 555 21019 60012 7003/;
0199351730999992000021306004+51620+069800FM-12+031299999V0202501N006019999999N0040001N1-00331-00401101921ADDAA100001091AY171061AY221061GF108991081001999999021999KA1999N+99999MD1210041+9999MW1021REMSYN082AAXX  13061 35173 11996 82506 11033 21040 40192 52004 60010 70272 8802/ 333 21019;EQDQ01 -00192ATMN  
0171351730999992000021312004+51620+069800FM-12+031299999V0202501N004019999999N0040001N1-00311-00351102051ADDAY171061AY221061GF107991071001999999051001MA1999999098191MD1210071+9999MW1021REMSYN082AAXX  13121 35173 41996 72504 11031 21035 39819 40205 52007 70272 87050 555 1/104;
0167351730999992000021315004+51620+069800FM-12+031299999V0202001N004010066019N0200001N1-00331-00371102071ADDGA1081+006609069GF108991081051008001999999KA1120M-00141MD1210021+9999REMSYN086AAXX  13151 35173 /2598 82004 11033 21037 40207 52002 885// 333 11014 88622 555 69902;
0174351730999992000021318004+51620+069800FM-12+031299999V0202301N004010060019N0200001N1-00371-00451102091ADDAA100000191GA1081+006009059GF108991081051008001999999KA1120M-00141MD1210021+9999REMSYN082AAXX  13181 35173 12598 82304 11037 21045 40209 52002 69920 885// 333 11014 88620;
0138351730999992000021321004+51620+069800FM-12+031299999V0202301N004010039019N0200001N1-00431-00491102121ADDGA1081+003909069GF108991081061004501999999MD1210021+9999REMSYN070AAXX  13211 35173 42498 82304 11043 21049 40212 52002 886// 333 88713;
0169351730999992000021400004+51620+069800FM-12+031299999V0209999C000010033019N0200001N1-00571-00641102091ADDGA1081+003309079GF108991081061004501999999MA1999999098201MD1810051+9999REMSYN086AAXX  14001 35173 42498 80000 11057 21064 39820 40209 58005 886// 333 88711 555 1/107;
0213351730999992000021403004+51620+069800FM-12+031299999V0201801N002010066019N0040001N1-00621-00741102031ADDAA199000091AJ100419199999999GA1081+006609069GF108991081051008001999999IA1249MD1710071+9999REMSYN092AAXX  14031 35173 32596 81802 11062 21074 40203 57007 885// 333 48041 88622 555 21065 7992/;EQDQ01  00002PRCP99
0174351730999992000021406004+51620+069800FM-12+031299999V0202001N002019999999N0040001N1-00381-00461101941ADDAA199000021AY171061AY221061GF108991081001999999021999KA1999N-00651MD1710041+9999MW1711REMSYN076AAXX  14061 35173 31996 82002 11038 21046 40194 57004 77172 8802/ 333 21065;
0166351730999992000021409004+51620+069800FM-12+031299999V0202301N002010069019N0040001N1-00301-00471101831ADDAY171031AY221031GA1081+006909059GF108991081051008001999999MD1710111+9999MW1021REMSYN076AAXX  14091 35173 41596 82302 11030 21047 40183 57011 70272 885// 333 88623;
0197351730999992000021412004+51620+069800FM-12+031299999V0202301N002010087019N0040001N1-00331-00541101771ADDAY171061AY221061GA1061+008709089GF106991061081008001001001MA1999999097921MD1710061+9999MW1021REMSYN092AAXX  14121 35173 41596 62302 11033 21054 39792 40177 57006 70272 86800 333 86829 555 1/105;
0155351730999992000021415004+51620+069800FM-12+031299999V0201601N002012200019N0200001N1-00871-00901101751ADDGA1001+999999999GF100991001001999999001001KA1120M-00151MD1710091+9999REMSYN074AAXX  14151 35173 /2998 01602 11087 21090 40175 57009 333 11015 555 69920;
0152351730999992000021418004+51620+069800FM-12+031299999V0201601N002019999999N0200001N1-00671-00721101651ADDAA100000191GF108991081001999999011999KA1999M-00151MD1710071+9999REMSYN076AAXX  14181 35173 12998 81602 11067 21072 40165 57007 69920 8801/ 333 11015;
0112351730999992000021421004+51620+069800FM-12+031299999V0201801N002019999999N0200001N1-00721-00771101451ADDGF108991081001999999021999MD1710211+9999REMSYN060AAXX  14211 35173 42998 81802 11072 21077 40145 57021 8802/;
0171351730999992000021500004+51620+069800FM-12+031299999V0201401N002019999999N0200001N1-00741-00801101431ADDAY171061AY221061GF108991081001999999011999MA1999999097531MD1710021+9999MW1021REMSYN082AAXX  15001 35173 41998 81402 11074 21080 39753 40143 57002 70272 8801/ 555 1/108;
0206351730999992000021503004+51620+069800FM-12+031299999V0209999C000019999999N0040001N1-00781-00841101411ADDAA112003091AJ100409199999999AY171031AY221031GF108991081001999999021999IA1249MD1710031+9999MW1711REMSYN098AAXX  15031 35173 /1996 80000 11078 21084 40141 57003 77172 8802/ 333 48040 555 21080 60032 7003/;
0180351730999992000021506004+51620+069800FM-12+031299999V0203401N002019999999N0040001N1-00771-00911101551ADDAA100003091AY171061AY221061GF105991001001999999001061KA1999N-00871MD1310151+9999MW1021REMSYN082AAXX  15061 35173 11996 53402 11077 21091 40155 53015 60030 70272 80006 333 21087;
0112351730999992000021509004+51620+069800FM-12+031299999V0203401N004012200019N0040001N1-00831-00971101671ADDGF102991021071004501001001MD1210081+9999REMSYN060AAXX  15091 35173 42496 23404 11083 21097 40167 52008 82700;
0169351730999992000021512004+51620+069800FM-12+031299999V0202701N004010039019N0040001N1-00951-01071101851ADDGA1061+003909079GF106991061071004501001001MA1999999097911MD1210181+9999REMSYN086AAXX  15121 35173 42496 62704 11095 21107 39791 40185 52018 86700 333 86713 555 1/108;
0167351730999992000021515004+51620+069800FM-12+031299999V0202701N004010039019N0200001N1-01011-01071102081ADDGA1081+003909069GF108991081061004501999999KA1120M-00701MD1210211+9999REMSYN086AAXX  15151 35173 /2498 82704 11101 21107 40208 52021 886// 333 11070 88613 555 69902;
0180351730999992000021518004+51620+069800FM-12+031299999V0202701N004010075019N0010001N1-01311-01371102281ADDAA100000791AY171061AY221061GF107991071051008001001001KA1999M-00701MD1210151+9999MW1781REMSYN082AAXX  15181 35173 11594 72704 11131 21137 40228 52015 69900 77872 87500 333 11070;
0113351730999992000021521004+51620+069800FM-12+031299999V0202701N006019999999N0200001N1-01231-01291999999ADDGF108991999999008001999999REMSYN075AAXX  15211 35173 41598 82706 11123 21129 0247 52020 70272 885// 333 88624;
0181351730999992000021600004+51620+069800FM-12+031299999V0202501N002012200019N0200001N1-01731-01851102851ADDAY171061AY211061GA1001+999999999GF100991001001999999001001MA1999999098751MD1210281+9999MW1021REMSYN076AAXX  16001 35173 41998 02502 11173 21185 39875 40285 52028 70271 555 1/119;
0188351730999992000021603004+51620+069800FM-12+031299999V0209999C000012200019N0040001N1-01911-02101103111ADDAA112999929AJ100409199999999GA1001+999999999GF100991001001999999001001IA1249MD1210221+9999REMSYN086AAXX  16031 35173 /2996 00000 11191 21210 40311 52022 333 48040 555 21196 69902 7990/;
0152351730999992000021606004+51620+069800FM-12+031299999V0202301N002019999999N0040001N1-01381-01511103261ADDAA100000791GF106991001001999999001071KA1999N-01961MD1210221+9999REMSYN076AAXX  16061 35173 12996 62302 11138 21151 40326 52022 69900 80007 333 21196;
0112351730999992000021609004+51620+069800FM-12+031299999V0202301N002012200019N0040001N1-01131-01331103261ADDGF102991001001999999001081MD1210051+9999REMSYN060AAXX  16091 35173 42996 22302 11113 21133 40326 52005 80008;
0143351730999992000021612004+51620+069800FM-12+031299999V0202001N002019999999N0040001N1-01171-01371103411ADDGF106991061001999999071001MA1999999099371MD1210131+9999REMSYN076AAXX  16121 35173 42996 62002 11117 21137 39937 40341 52013 86070 555 1/113;
0165351730999992000021615004+51620+069800FM-12+031299999V0202001N002019999999N0200001N1-01211-01341103411ADDAA199000091GF108991081001999999071999KA1999M-01061MD1410001+9999REMSYN070AAXX  16151 35173 32998 82002 11121 21134 40341 54000 8807/ 333 11106;EQDQ01  00002PRCP99
0165351730999992000021618004+51620+069800FM-12+031299999V0201801N002019999999N0200001N1-01171-01301103391ADDAA199000091GF108991081001999999021999KA1999M-01061MD1810021+9999REMSYN070AAXX  16181 35173 32998 81802 11117 21130 40339 58002 8802/ 333 11106;EQDQ01  00002PRCP99
0112351730999992000021621004+51620+069800FM-12+031299999V0201801N002019999999N0200001N1-01111-01241103361ADDGF108991081001999999021999MD1710021+9999REMSYN060AAXX  16211 35173 42998 81802 11111 21124 40336 57002 8802/;
0171351730999992000021700004+51620+069800FM-12+031299999V0201801N002019999999N0200001N1-01181-01311103361ADDAY171061AY221061GF108991081001999999021999MA1999999099321MD1710011+9999MW1021REMSYN082AAXX  17001 35173 41998 81802 11118 21131 39932 40336 57001 70272 8802/ 555 1/112;
0178351730999992000021703004+51620+069800FM-12+031299999V0201801N002019999999N0040001N1-01071-01201103361ADDAA112000391AJ100409199999999GF108991081001999999071999IA1249MD1310011+9999REMSYN092AAXX  17031 35173 /2996 81802 11107 21120 40336 53001 8807/ 333 48040 555 21122 69932 7993/;
0180351730999992000021706004+51620+069800FM-12+031299999V0202701N002019999999N0040001N1-00921-00991103381ADDAA100000391AY171061AY221061GF108991081001999999021999KA1999N-01221MD1210051+9999MW1021REMSYN082AAXX  17061 35173 11996 82702 11092 21099 40338 52005 69930 70272 8802/ 333 21122;
0112351730999992000021709004+51620+069800FM-12+031299999V0201801N002019999999N0040001N1-00861-01011103311ADDGF108991081001999999011999MD1810051+9999REMSYN060AAXX  17091 35173 42996 81802 11086 21101 40331 58005 8801/;
0143351730999992000021712004+51620+069800FM-12+031299999V0202301N002019999999N0040001N1-00871-01061103221ADDGF108991081001999999011999MA1999999099251MD1710081+9999REMSYN076AAXX  17121 35173 42996 82302 11087 21106 39925 40322 57008 8801/ 555 1/108;
0145351730999992000021715004+51620+069800FM-12+031299999V0202301N002019999999N0200001N1-01021-01221103251ADDGF108991081001999999021999KA1120M-00731MD1410001+9999REMSYN080AAXX  17151 35173 /2998 82302 11102 21122 40325 54000 8802/ 333 11073 555 69902;
0190351730999992000021718004+51620+069800FM-12+031299999V0202301N002010001519N0001001N1-01131-01261103221ADDAA100000791AY141061AY221061GA1091+999999999GF109991091999999999999999KA1999M-00731MD1810051+9999MW1491REMSYN076AAXX  17181 35173 11/91 92302 11113 21126 40322 58005 69900 74942 333 11073;
0150351730999992000021721004+51620+069800FM-12+031299999V0209999C000010001519N0001001N1-01171-01231103191ADDAY141031AY241031GA1091+999999999GF109991091999999999999999MD1710041+9999MW1491REMSYN060AAXX  17211 35173 41/91 90000 11117 21123 40319 57004 74944;
0181351730999992000021800004+51620+069800FM-12+031299999V0202301N002010001519N0001001N1-01191-01251103111ADDAY141061AY241061GA1091+999999999GF109991091999999999999999MA1999999099081MD1710081+9999MW1491REMSYN076AAXX  18001 35173 41/91 92302 11119 21125 39908 40311 57008 74944 555 1/114;
0229351730999992000021803004+51620+069800FM-12+031299999V0209999C000010003019N0002001N1-01231-01291103091ADDAA199000091AJ100409199999999AY141031AY241031GA1091+999999999GF109991091999999999999999IA1249MD1710021+9999MW1491REMSYN086AAXX  18031 35173 31/92 90000 11123 21129 40309 57002 74944 333 48040 555 21124 7990/;EQDQ01  00002PRCP99
0215351730999992000021806004+51620+069800FM-12+031299999V0209999C000010075019N0040001N1-01191-01251103081ADDAA199000091AY141061AY221061GA1071+007509059GF107991071051008001001001KA1120N-01241MD1710011+9999MW1021REMSYN082AAXX  18061 35173 31596 70000 11119 21125 40308 57001 70242 87500 333 21124 87625;EQDQ01  00002PRCP99
0138351730999992000021809004+51620+069800FM-12+031299999V0201801N002010075019N0040001N1-01031-01091102971ADDGA1081+007509059GF108991081051008001999999MD1710071+9999REMSYN070AAXX  18091 35173 42596 81802 11103 21109 40297 57007 885// 333 88625;
0169351730999992000021812004+51620+069800FM-12+031299999V0202301N002010036019N0040001N1-00871-00941102931ADDGA1061+003609079GF108991061071004501011999MA1999999098971MD1710011+9999REMSYN086AAXX  18121 35173 42496 82302 11087 21094 39897 40293 57001 8671/ 333 86712 555 1/106;
0173351730999992000021815004+51620+069800FM-12+031299999V0202001N002010042019N0010001N1-00931-01051103091ADDAY171031AY221031GF108991081061004501999999KA1120M-00791MD1310131+9999MW1771REMSYN086AAXX  18151 35173 /1494 82002 11093 21105 40309 53013 77772 886// 333 11079 555 69922;
0180351730999992000021818004+51620+069800FM-12+031299999V0209999C000019999999N0200001N1-01071-01201103141ADDAA100000191AY171061AY221061GF108991081001999999011999KA1999M-00791MD1210021+9999MW1021REMSYN082AAXX  18181 35173 11998 80000 11107 21120 40314 52002 69920 70272 8801/ 333 11079;
0166351730999992000021821004+51620+069800FM-12+031299999V0209999C000010081019N0200001N1-01141-01271103181ADDAY171031AY221031GA1071+008109059GF107991071051008001001001MD1210041+9999MW1021REMSYN076AAXX  18211 35173 41598 70000 11114 21127 40318 52004 70272 87500 333 87627;
0197351730999992000021900004+51620+069800FM-12+031299999V0209999C000010075019N0200001N1-01301-01361103251ADDAY171061AY241061GA1071+007509069GF107991071051008001001001MA1999999099201MD1210041+9999MW1281REMSYN092AAXX  19001 35173 41598 70000 11130 21136 39920 40325 52004 72874 87500 333 87625 555 1/114;
0206351730999992000021903004+51620+069800FM-12+031299999V0209999C000010075019N0040001N1-01441-01571103391ADDAA112000591AJ100409199999999AY171031AY221031GF108991081051008001999999IA1249MD1210121+9999MW1781REMSYN098AAXX  19031 35173 /1596 80000 11144 21157 40339 52012 77872 885// 333 48040 555 21151 69952 7997/;
0190351730999992000021906004+51620+069800FM-12+031299999V0203201N002012200019N0040001N1-00931-01091103461ADDAA100000591AY171061AY221061GA1001+999999999GF100991001001999999001001KA1999N-01511MD1210141+9999MW1021REMSYN076AAXX  19061 35173 11996 03202 11093 21109 40346 52014 69950 70272 333 21151;
0112351730999992000021909004+51620+069800FM-12+031299999V0203201N004019999999N0040001N1-00801-01021103511ADDGF105991001001999999001081MD1210061+9999REMSYN060AAXX  19091 35173 42996 53204 11080 21102 40351 52006 80008;
0143351730999992000021912004+51620+069800FM-12+031299999V0203201N002012200019N0040001N1-01051-01251103631ADDGF103991001001999999001081MA1999999099611MD1210091+9999REMSYN076AAXX  19121 35173 42996 33202 11105 21125 39961 40363 52009 80008 555 1/113;
0155351730999992000021915004+51620+069800FM-12+031299999V0203201N002012200019N0200001N1-01571-01701103861ADDGA1001+999999999GF100991001001999999001001KA1120M-00741MD1210131+9999REMSYN074AAXX  19151 35173 /2998 03202 11157 21170 40386 52013 333 11074 555 69922;
0180351730999992000021918004+51620+069800FM-12+031299999V0209999C000019999999N0010001N1-02341-02521104091ADDAA100000191AY101061AY211061GF108991001001999999001071KA1999M-00741MD1210111+9999MW1101REMSYN082AAXX  19181 35173 11994 80000 11234 21252 40409 52011 69920 71001 80007 333 11074;
0140351730999992000021921004+51620+069800FM-12+031299999V0209999C000019999999N0010001N1-02421-02601104251ADDAY101031AY221031GF108991001001999999001071MD1210131+9999MW1101REMSYN066AAXX  19211 35173 41994 80000 11242 21260 40425 52013 71002 80007;
0171351730999992000022000004+51620+069800FM-12+031299999V0203601N002019999999N0010001N1-01881-02001104061ADDAY171061AY221061GF108991081001999999021999MA1999999099891MD1810091+9999MW1711REMSYN082AAXX  20001 35173 41994 83602 11188 21200 39989 40406 58009 77172 8802/ 555 1/121;
0206351730999992000022003004+51620+069800FM-12+031299999V0203601N002019999999N0040001N1-01601-01731104151ADDAA112000391AJ100409199999999AY171031AY271031GF108991081001999999021999IA1249MD1310131+9999MW1711REMSYN098AAXX  20031 35173 /1996 83602 11160 21173 40415 53013 77177 8802/ 333 48040 555 21247 69932 7995/;
0180351730999992000022006004+51620+069800FM-12+031299999V0202701N002019999999N0040001N1-01481-01681104211ADDAA100000391AY171061AY221061GF108991081001999999071999KA1999N-02471MD1210071+9999MW1021REMSYN082AAXX  20061 35173 11996 82702 11148 21168 40421 52007 69930 70272 8807/ 333 21247;
0112351730999992000022009004+51620+069800FM-12+031299999V0202301N002019999999N0040001N1-01261-01461104131ADDGF106991031001999999071051MD1810031+9999REMSYN060AAXX  20091 35173 42996 62302 11126 21146 40413 58003 83075;
0143351730999992000022012004+51620+069800FM-12+031299999V0202301N002019999999N0040001N1-01301-01501104141ADDGF108991081001999999071999MA1999999100051MD1710011+9999REMSYN076AAXX  20121 35173 42996 82302 11130 21150 30005 40414 57001 8807/ 555 1/113;
0145351730999992000022015004+51620+069800FM-12+031299999V0202701N002019999999N0200001N1-01271-01401104171ADDGF105991051001999999051001KA1120M-01201MD1310031+9999REMSYN080AAXX  20151 35173 /1998 52702 11127 21140 40417 53003 85050 333 11120 555 69922;
0162351730999992000022018004+51620+069800FM-12+031299999V0202301N002012200019N0200001N1-01751-01871104241ADDAA100000191GA1001+999999999GF100991001001999999001001KA1999M-01201MD1210011+9999REMSYN070AAXX  20181 35173 12998 02302 11175 21187 40424 52001 69920 333 11120;
0153351730999992000022100004+51620+069800FM-12+031299999V0209999C000012200019N0200001N1-02161-02341104371ADDGA1001+999999999GF100991001001999999001001MA1999999100131MD1210031+9999REMSYN070AAXX  21001 35173 42998 00000 11216 21234 30013 40437 52003 555 1/125;
0191351730999992000022103004+51620+069800FM-12+031299999V0209999C000019999999N0040001N1-01991-02181104391ADDAA199000091AJ100409199999999GF105991051001999999071001IA1249MD1210051+9999REMSYN086AAXX  21031 35173 32996 50000 11199 21218 40439 52005 85070 333 48040 555 21221 7992/;EQDQ01  00002PRCP99
0175351730999992000022106004+51620+069800FM-12+031299999V0202001N002012200019N0040001N1-01751-01941104001ADDAA199000091GA1001+999999999GF100991001001999999001001KA1999N-02211MD1210061+9999REMSYN064AAXX  21061 35173 32996 02002 11175 21194 40400 52006 333 21221;EQDQ01  00002PRCP99
0141351730999992000022109004+51620+069800FM-12+031299999V0202501N002012200019N0040001N1-01471-01671999999ADDGA1001+999999999GF100991001001999999001001MD1410001+9999REMSYN054AAXX  21091 35173 42996 02502 11147 21167 40337 54000;EQDQ01+103373APOSLP
0137351730999992000022112004+51620+069800FM-12+031299999V0202501N002012200019N0040001N1-01311-01581999999ADDGF102991001001999999001091MA1999999100351MD1310111+9999REMSYN070AAXX  21121 35173 42996 22502 11131 21158 30035 53011 80009 555 1/112;
0175351730999992000022115004+51620+069800FM-12+031299999V0209999C000012200019N0200001N1-01811-01931104561ADDAA199000091GA1001+999999999GF100991001001999999001001KA1999M-01251MD1210031+9999REMSYN064AAXX  21151 35173 32998 00000 11181 21193 40456 52003 333 11125;EQDQ01  00002PRCP99
0165351730999992000022118004+51620+069800FM-12+031299999V0209999C000019999999N0200001N1-01771-01961104581ADDAA199000091GF108991001001999999001071KA1999M-01251MD1210021+9999REMSYN070AAXX  21181 35173 32998 80000 11177 21196 40458 52002 80007 333 11125;EQDQ01  00002PRCP99
