0167388780999992000073003004+38170+073970FM-12+357699999V0209999C000012200019N0500001N1+01531+00431999999ADDAA199000091GF103991031001999999081001MD1810031+9999ME1430909REMSYN076AAXX  30031 38878 32999 30000 10153 20043 47090 58003 83080 555 20134 7000/;EQDQ01  00002PRCP99
0184388780999992000073015004+38170+073970FM-12+357699999V0209999C000012200019N0500001N1+02061+00501999999ADDAA199000091GF103991001001999999001031KA1120M+02431MD1810081+9999ME1431109REMSYN080AAXX  30151 38878 32999 30000 10206 20050 47110 58008 80003 333 10243 555 50189;EQDQ01  00002PRCP99
