0143407340999992000011109004+36500+051580FM-12-002099999V0200601N003010360019N0120001N1+01061+00341102461ADDGF106991011011008001031001MA1999999102691MD1810101+9999REMSYN076AAXX  11091 40734 42562 60603 10106 20034 30269 40246 58010 81130 90845 333;
0182407340999992000011500004+36500+051580FM-12-002099999V0209999C000010360019N0070001N1+00441+00401102971ADDAA106000591AY161061AY261061GF106991031051008001071001MA1999999103021MD1810101+9999MW1601REMSYN082    AAXX  15001 40734 11557 60000 10044 20040 30302 40297 58010 69961 76066 83570;
0182407340999992000011618004+36500+051580FM-12-002099999V0202601N006010360019N0080001N1+00481+00301102131ADDAA106000391AY181061AY261061GF108991041031008001021999MA1999999102361MD1210101+9999MW1211REMSYN082    AAXX  16181 40734 11558 82606 10048 20030 30236 40213 52010 69931 72186 8432/;
0183407340999992000012000004+36500+051580FM-12-002099999V0201701N003012200019N0100001N1+00641+00311101171ADDAA199000091GA1001+999999999GF100991001001999999001001MA1999999101401MD1210271+9999REMSYN070AAXX  20001 40734 32960 01703 10064 20031 30140 40117 52027 92345 333;EQDQ01  00002PRCP99
0201407340999992000012412004+36500+051580FM-12-002099999V0202901N003012200019N0120001N1+01061+00781102671ADDAA199000091GA1011+006009089GF103991011011999999071001MA1999999102901MD1610101+9999REMSYN088AAXX  24121 40734 32962 32903 10106 20078 30290 40267 56010 81170 91150 333 81820 83359;EQDQ01  00002PRCP99
0215407340999992000012418004+36500+051580FM-12-002099999V0209999C00001036001CN0120001N1+00761+00621102521ADDAA199000091GA1011+007509069GF107991011041008001071001GJ101509MA1999999102751MD1810051+9999REMSYN094AAXX  24181 40734 32562 70000 10076 20062 30275 40252 58005 81470 91750 333 55025 81625 87359;EQDQ01  00002PRCP99
0183407340999992000012500004+36500+051580FM-12-002099999V0209999C000012200019N0120001N1+00381+00281102221ADDAA199000091GA1001+999999999GF100991001001999999001001MA1999999102451MD1710151+9999REMSYN070AAXX  25001 40734 32962 00000 10038 20028 30245 40222 57015 92350 333;EQDQ01  00002PRCP99
0201407340999992000012506004+36500+051580FM-12-002099999V0209999C000012200019N0150001N1+01001+00461101971ADDAA124000091GA1001+999999999GF100991001001999999001001MA1999999102201MD1610081+9999REMSYN088AAXX  25061 40734 32965 00000 10100 20046 30220 40197 56008 90550 333 30102 50091 70000;EQDQ01  00002PRCP24
0195407340999992000012512004+36500+051580FM-12-002099999V0200301N002012200019N0120001N1+01301+00961101451ADDAA199000091GA1021+060009019GF102991001001999999001021MA1999999101681MD1810221+9999REMSYN082AAXX  25121 40734 32962 20302 10130 20096 30168 40145 58022 80002 91145 333 82070;EQDQ01  00002PRCP99
0189407340999992000012518004+36500+051580FM-12-002099999V0202101N003012200019N0100001N1+00621+00481101241ADDAA199000091GA1001+999999999GF100991001001999999001001MA1999999101481MD1810141+9999REMSYN076AAXX  25181 40734 32960 02103 10062 20048 30148 40124 58014 91745 333 55087;EQDQ01  00002PRCP99
0183407340999992000012600004+36500+051580FM-12-002099999V0201701N003012200019N0100001N1+00501+00251101071ADDAA199000091GA1001+999999999GF100991001001999999001001MA1999999101301MD1810061+9999REMSYN070AAXX  26001 40734 32960 01703 10050 20025 30130 40107 58006 92350 333;EQDQ01  00002PRCP99
0219407340999992000012606004+36500+051580FM-12-002099999V0201801N00301220001CN0100001N1+00901+00641101111ADDAA124000091GA1011+007509089GF106991011011008001001061MA1999999101341MD1010041+9999REMSYN106AAXX  26061 40734 32560 61803 10090 20064 30134 40111 50004 81106 90545 333 30000 50091 70000 81825 86268;EQDQ01  00002PRCP24
0183407340999992000020200004+36500+051580FM-12-002099999V0202101N002012200019N0100001N1+00461+00211101671ADDAA199000091GA1001+999999999GF100991001001999999001001MA1999999101901MD1310101+9999REMSYN070AAXX  02001 40734 32960 02102 10046 20021 30190 40167 53010 92350 333;EQDQ01  00002PRCP99
0189407340999992000020418004+36500+051580FM-12-002099999V0209999C000012200019N0100001N1+00461+00361101651ADDAA199000091GA1001+999999999GF100991001001999999001001MA1999999101881MD1110051+9999REMSYN076AAXX  04181 40734 32960 00000 10046 20036 30188 40165 51005 91750 333 55097;EQDQ01  00002PRCP99
0183407340999992000020500004+36500+051580FM-12-002099999V0209999C000012200019N0100001N1+00241+00031101651ADDAA199000091GA1001+999999999GF100991001001999999001001MA1999999101881MD1410001+9999REMSYN070AAXX  05001 40734 32960 00000 10024 20003 30188 40165 54000 92350 333;EQDQ01  00002PRCP99
0213407340999992000020506004+36500+051580FM-12-002099999V0202801N009012200019N0100001N1+00981+00631102121ADDAA124000091GA1011+009009029GF101991011011008001001011MA1999999102351MD1210231+9999REMSYN100AAXX  05061 40734 32560 12809 10098 20063 30235 40212 52023 81101 90550 333 31102 50131 70000 81830;EQDQ01  00002PRCP24
0234407340999992000020806004+36500+051580FM-12-002099999V0209999C00001036001CN0070001N1+00481+00341102671ADDAA106002091AY161061AY221061GA1031+004509079GF108991031071004501021999MA1999999102901MD1610101+9999MW1101REMSYN118AAXX  08061 40734 11457 80000 10048 20034 30290 40267 56010 60021 71062 8372/ 90550 333 32002 50331 70226 83715 88457;
0183407340999992000020900004+36500+051580FM-12-002099999V0209999C000012200019N0120001N1+00101-00011102171ADDAA199000091GA1001+999999999GF100991001001999999001001MA1999999102401MD1710121+9999REMSYN070AAXX  09001 40734 32962 00000 10010 21001 30240 40217 57012 92350 333;EQDQ01  00002PRCP99
0183407340999992000020912004+36500+051580FM-12-002099999V0200601N004012200019N0150001N1+01041+00101102211ADDAA199000091GA1001+999999999GF100991001001999999001001MA1999999102441MD1610051+9999REMSYN070AAXX  09121 40734 32965 00604 10104 20010 30244 40221 56005 91150 333;EQDQ01  00002PRCP99
0229407340999992000021206004+36500+051580FM-12-002099999V0203001N002012200019N0030001N1+00701+00701102421ADDAA124000091AY141061AY201061GA1001+999999999GF100991001001999999001001MA1999999102651MD1210151+9999MW1421REMSYN094AAXX  12061 40734 31930 03002 10070 20070 30265 40242 52015 74240 90550 333 31002 50091 70000;EQDQ01  00002PRCP24
0195407340999992000021212004+36500+051580FM-12-002099999V0202901N007012200019N0100001N1+01201+00751102481ADDAA199000091GA1011+006009029GF101991011011008001001001MA1999999102711MD1310021+9999REMSYN082AAXX  12121 40734 32560 12907 10120 20075 30271 40248 53002 81100 91150 333 81820;EQDQ01  00002PRCP99
0209407340999992000021218004+36500+051580FM-12-002099999V0202101N002012200019N0100001N1+00701+00611102461ADDAA199000091GA1011+060009019GF101991001001999999001021GJ104689MA1999999102691MD1810041+9999REMSYN088AAXX  12181 40734 32960 12102 10070 20061 30269 40246 58004 80002 91750 333 55078 81070;EQDQ01  00002PRCP99
0201407340999992000021300004+36500+051580FM-12-002099999V0209999C00001036001CN0100001N1+00781+00611102241ADDAA199000091GA1011+009009069GF105991011041008001071001MA1999999102471MD1710121+9999REMSYN088AAXX  13001 40734 32560 50000 10078 20061 30247 40224 57012 81470 92345 333 81630 85360;EQDQ01  00002PRCP99
0233407340999992000021318004+36500+051580FM-12-002099999V0209999C00001036001CN0100001N1+00841+00671101601ADDAA199000091GA1031+009009069GF108991031051008001021999GJ100909MA1999999101831REMSYN094AAXX  13181 40734 32560 80000 10084 20067 30183 40160 58000 8352/ 91750 333 55015 83630 88460;EQDQ01+000082APCTENQ02+000002APC3  Q03  00002PRCP99
0146407340999992000021321004+36500+051580FM-12-002099999V0202601N002019999999N0100001N1-00842+99999101511ADDGF108991999999999999999999MA1999999101741MD1810091+9999REMSYN060AAXX  13211 40734 42960 82602 11084 20067 30174 40151 58009;EQDQ01-000843ATOT  
0256407340999992000021406004+36500+051580FM-12-002099999V0202501N00501007501CN0060001N1+00701+00521101941ADDAA106002091AY161061AY261061GA1021+006009099GA2031+007509069GF108991041031004501021999MA1999999102171MD1210241+9999MW1601REMSYN124AAXX  14061 40734 11456 82505 10070 20052 30217 40194 52024 60021 76066 8432/ 90550 333 32003 50111 70048 82920 83625 88556;
0238407340999992000021412004+36500+051580FM-12-002099999V0202801N00801036001CN0100001N1+00781+00501102071ADDAA106001091AY161061AY261061GA1011+006009099GA2041+007509069GF108991041031008001021999MA1999999102301MD1510001+9999MW1021REMSYN106AAXX  14121 40734 11560 82808 10078 20050 30230 40207 55000 60011 70266 8432/ 91145 333 81920 84625 88458;
0252407340999992000021418004+36500+051580FM-12-002099999V0202401N00501036001CN0100001N1+00721+00451102371ADDAA106000191AY161061AY261061GA1011+006009099GA2041+007509069GF108991041031008001021999GJ100009MA1999999102601MD1210101+9999MW1021REMSYN112AAXX  14181 40734 11560 82405 10072 20045 30260 40237 52010 69921 70266 8432/ 91745 333 55000 81920 84625 88458;
0201407340999992000021500004+36500+051580FM-12-002099999V0209999C000012200019N0100001N1+00361+00321102331ADDAA199000091GA1011+007509099GF102991011031999999031001MA1999999102561MD1810041+9999REMSYN088AAXX  15001 40734 32960 20000 10036 20032 30256 40233 58004 81330 92350 333 81925 82360;EQDQ01  00002PRCP99
0194407340999992000021506004+36500+051580FM-12-002099999V0209999C000012200019N0100001N1+00781+00561102371ADDAA124001391GA1011+007509029GF101991011011008001031001MA1999999102601MD1110101+9999REMSYN100AAXX  15061 40734 32560 10000 10078 20056 30260 40237 51010 81130 90545 333 31002 50081 70012 81825;
0201407340999992000021512004+36500+051580FM-12-002099999V0200801N005012200019N0100001N1+01021+00581102171ADDAA199000091GA1021+009009089GF103991021011008001031001MA1999999102401MD1610151+9999REMSYN088AAXX  15121 40734 32560 30805 10102 20058 30240 40217 56015 82130 91150 333 82830 83360;EQDQ01  00002PRCP99
0215407340999992000021518004+36500+051580FM-12-002099999V0201501N003012200019N0100001N1+00661+00571102151ADDAA199000091GA1021+009009069GF104991021041008001071001GJ103009MA1999999102381MD1010021+9999REMSYN094AAXX  15181 40734 32560 41503 10066 20057 30238 40215 50002 82470 91745 333 55050 82630 84360;EQDQ01  00002PRCP99
0183407340999992000021600004+36500+051580FM-12-002099999V0209999C000012200019N0100001N1+00441+00401101901ADDAA199000091GA1001+999999999GF100991001001999999001001MA1999999102131MD1810101+9999REMSYN070AAXX  16001 40734 32960 00000 10044 20040 30213 40190 58010 92350 333;EQDQ01  00002PRCP99
0195407340999992000021700004+36500+051580FM-12-002099999V0209999C000012200019N0100001N1+00601+00511101431ADDAA199000091GA1011+060009019GF101991001001999999001011MA1999999101661MD1510021+9999REMSYN082AAXX  17001 40734 32960 10000 10060 20051 30166 40143 55002 80001 92350 333 81070;EQDQ01  00002PRCP99
0201407340999992000021706004+36500+051580FM-12-002099999V0200601N003012200019N0120001N1+99999+99999101481ADDAA124000091GA1001+999999999GF100991001001999999001001MA1999999101711MD1010001+9999REMSYN088AAXX  17061 40734 32962 00603 101/1 20075 30171 40148 50000 90565 333 31001 50091 70000;EQDQ01  00002PRCP24
0237407340999992000021718004+36500+051580FM-12-002099999V0202801N005010036019N0030001N1+00901+00821101571ADDAA199000091AY121061AY221061GA1081+003609059GF108991081061004501999999GJ104089MA1999999101801MD1110081+9999MW1101REMSYN094AAXX  17181 40734 31430 82805 10090 20082 30180 40157 51008 71022 886// 91750 333 55068 88612;EQDQ01  00002PRCP99
0248407340999992000021806004+36500+051580FM-12-002099999V0202701N005010090019N0080001N1+00941+00771102301ADDAA106007191AY161061GA1021+006009099GA2051+009009069GF108991051031999999021999MA1999999102531MD1210231+9999MW1111REMSYN124AAXX  18061 40734 11958 82705 10094 20077 30253 40230 52023 60071 7116/ 8532/ 90550 333 31007 50271 70071 82920 85630 88458;
0223407340999992000021812004+36500+051580FM-12-002099999V0203301N00301036001CN9999999N1+01081+00891999999ADDAA199000091GA1011+007509099GA2031+009009069GF105991031031008001071001MA1999999102501MD1610131+9999REMSYN094AAXX  18121 40734 3256/ 53303 10108 20089 30250 400/0 56013 83370 91145 333 81925 83630 85359;EQDQ01  00002PRCP99
0183407340999992000021900004+36500+051580FM-12-002099999V0201701N002012200019N0100001N1+00521+00481102151ADDAA199000091GA1001+999999999GF100991001001999999001001MA1999999102381MD1710101+9999REMSYN070AAXX  19001 40734 32960 01702 10052 20048 30238 40215 57010 92345 333;EQDQ01  00002PRCP99
0215407340999992000021918004+36500+051580FM-12-002099999V0209999C00001036001CN0100001N1+00941+00821101671ADDAA199000091GA1031+009009069GF105991031051008001071001GJ103309MA1999999101901MD1610081+9999REMSYN094AAXX  19181 40734 32560 50000 10094 20082 30190 40167 56008 83570 91745 333 55055 83630 85358;EQDQ01  00002PRCP99
0201407340999992000022000004+36500+051580FM-12-002099999V0202101N002012200019N0100001N1+00641+00601101371ADDAA199000091GA1031+006009069GF104991031051008001031001MA1999999101601MD1610031+9999REMSYN088AAXX  20001 40734 32560 42102 10064 20060 30160 40137 56003 83530 92350 333 83620 84360;EQDQ01  00002PRCP99
0230407340999992000022018004+36500+051580FM-12-002099999V0203001N004010045019N0080001N1+01001+00881101771ADDAA106002091AY161061AY221061GA1051+004509079GF108991051071004501021999GJ103849MA1999999102001MD1210301+9999MW1611REMSYN106AAXX  20181 40734 11458 83004 10100 20088 30200 40177 52030 60021 76162 8572/ 91750 333 55064 85715 88550;
0238407340999992000022100004+36500+051580FM-12-002099999V0202701N005010045019N0060001N1+00961+00841102061ADDAA106001091AY161061AY261061GA1051+004509079GA2011+006009099GF108991051031004501021999MA1999999102291MD1210191+9999MW1621REMSYN106AAXX  21001 40734 11456 82705 10096 20084 30229 40206 52019 60011 76266 8532/ 92350 333 85715 81920 88550;
0234407340999992000022106004+36500+051580FM-12-002099999V0200301N002012200019N0100001N1+01141+00861102221ADDAA106002091AY161061AY221061GA1011+007509069GF103991011041008001031001MA1999999102451MD1210071+9999MW1011REMSYN118AAXX  21061 40734 11560 30302 10114 20086 30245 40222 52007 60021 70162 81430 90550 333 31007 50141 70050 81625 83360;
0201407340999992000022206004+36500+051580FM-12-002099999V0200601N004012200019N0120001N1+01181+00591101551ADDAA124000091GA1001+999999999GF100991001001999999001001MA1999999101781MD1010011+9999REMSYN088AAXX  22061 40734 32962 00604 10118 20059 30178 40155 50001 90550 333 31001 50131 70000;EQDQ01  00002PRCP24
0183407340999992000022212004+36500+051580FM-12-002099999V0200901N005012200019N0150001N1+01401+00841101201ADDAA199000091GA1001+999999999GF100991001001999999001001MA1999999101431MD1610171+9999REMSYN070AAXX  22121 40734 32965 00905 10140 20084 30143 40120 56017 91150 333;EQDQ01  00002PRCP99
0189407340999992000022218004+36500+051580FM-12-002099999V0209999C000012200019N0150001N1+00821+00681101171ADDAA199000091GA1001+999999999GF100991001001999999001001MA1999999101401MD1110041+9999REMSYN076AAXX  22181 40734 32965 00000 10082 20068 30140 40117 51004 91745 333 55102;EQDQ01  00002PRCP99
0183407340999992000022300004+36500+051580FM-12-002099999V0209999C000012200019N0150001N1+00541+00481101071ADDAA199000091GA1001+999999999GF100991001001999999001001MA1999999101301MD1610061+9999REMSYN070AAXX  23001 40734 32965 00000 10054 20048 30130 40107 56006 92350 333;EQDQ01  00002PRCP99
0201407340999992000022306004+36500+051580FM-12-002099999V0203101N002012200019N0150001N1+01261+00961101271ADDAA124000091GA1001+999999999GF100991001001999999001001MA1999999101501MD1310171+9999REMSYN088AAXX  23061 40734 32965 03102 10126 20096 30150 40127 53017 90550 333 31003 50271 70000;EQDQ01  00002PRCP24
0183407340999992000022312004+36500+051580FM-12-002099999V0203601N003012200019N0100001N1+01321+00981101171ADDAA199000091GA1001+999999999GF100991001001999999001001MA1999999101401MD1610131+9999REMSYN070AAXX  23121 40734 32960 03603 10132 20098 30140 40117 56013 91150 333;EQDQ01  00002PRCP99
0189407340999992000022318004+36500+051580FM-12-002099999V0201201N002012200019N0100001N1+00901+00781101271ADDAA199000091GA1001+999999999GF100991001001999999001001MA1999999101501MD1310101-1021REMSYN076AAXX  23181 40734 32960 01202 10090 20078 30150 40127 53010 91745 333 59102;EQDQ01  00002PRCP99
0201407340999992000022400004+36500+051580FM-12-002099999V0202701N012010060019N0100001N1+00861+00781101671ADDAA199000091GA1051+006009079GF108991051071008001021999MA1999999101901MD1210401+9999REMSYN088AAXX  24001 40734 32560 82712 10086 20078 30190 40167 52040 8572/ 92350 333 85720 88458;EQDQ01  00002PRCP99
0241407340999992000022406004+36500+051580FM-12-002099999V0202701N00801036001CN0100001N1+01101+00681102371ADDAA124000091GA1011+006009089GA2031+007509069GF108991031081008001021999MA1999999102601MD1210301+9999REMSYN112AAXX  24061 40734 32560 82708 10110 20068 30260 40237 52030 8382/ 90550 333 30005 50271 70000 81820 83625 88458;EQDQ01  00002PRCP24
0223407340999992000022412004+36500+051580FM-12-002099999V0203301N00401036001CN0100001N1+01061+00871102441ADDAA199000091GA1031+004509079GA2011+007509099GF108991041031004501021999MA1999999102671MD1610021+9999REMSYN094AAXX  24121 40734 32460 83304 10106 20087 30267 40244 56002 8432/ 91145 333 83715 81925 88459;EQDQ01  00002PRCP99
0230407340999992000022418004+36500+051580FM-12-002099999V0202401N002010036019N0040001N1+00961+00931102561ADDAA106000591AY151061AY221061GA1051+003609079GF108991051071002501021999GJ100009MA1999999102791MD1310061+9999MW1511REMSYN106AAXX  24181 40734 11340 82402 10096 20093 30279 40256 53006 69941 75152 8572/ 91750 333 55000 85712 88458;
0216407340999992000022500004+36500+051580FM-12-002099999V0209999C00001036001CN0060001N1+00921+00841102471ADDAA106002091AY151061AY221061GA1031+004509079GF108991031071004501021999MA1999999102701MD1610051+9999MW1511REMSYN100AAXX  25001 40734 11456 80000 10092 20084 30270 40247 56005 60021 75152 8372/ 92350 333 83715 88458;
0234407340999992000022506004+36500+051580FM-12-002099999V0200901N008010036019N0060001N1+00921+00841102301ADDAA106001091AY151061AY251061GA1051+003609079GF108991051071004501021999MA1999999102531MD1610071+9999MW1201REMSYN118AAXX  25061 40734 11456 80908 10092 20084 30253 40230 56007 60011 72055 8572/ 90545 333 32008 50051 70036 85712 88458;
0216407340999992000022600004+36500+051580FM-12-002099999V0209999C000012200019N0070001N1+00741+00651101671ADDAA106002091AY151061AY211061GA1031+003009079GF104991031071004501071001MA1999999101901MD1110101+9999MW1011REMSYN100AAXX  26001 40734 11457 40000 10074 20065 30190 40167 51010 60021 70151 83770 92350 333 83710 84357;
0256407340999992000022606004+36500+051580FM-12-002099999V0202701N006010060019N0060001N1+00821+00601102071ADDAA106002091AY161061AY251061GA1041+003009079GA2021+006009099GF108991051031004501021999MA1999999102301MD1210201+9999MW1601REMSYN124AAXX  26061 40734 11456 82706 10082 20060 30230 40207 52020 60021 76065 8532/ 90550 333 32006 50171 70044 84710 82920 88556;
0238407340999992000022612004+36500+051580FM-12-002099999V0202701N00501036001CN0090001N1+00701+00611102171ADDAA106002091AY161061AY261061GA1011+006009099GA2031+007509069GF108991041031008001021999MA1999999102401MD1310101+9999MW1211REMSYN106AAXX  26121 40734 11559 82705 10070 20061 30240 40217 53010 60021 72166 8432/ 91145 333 81920 83625 88457;
0252407340999992000022618004+36500+051580FM-12-002099999V0201501N002010045019N0050001N1+00661+00571102071ADDAA106000591AY161061AY251061GA1051+004509079GA2011+007509099GF108991051031004501021999GJ100009MA1999999102301MD1610101+9999MW1211REMSYN112AAXX  26181 40734 11450 81502 10066 20057 30230 40207 56010 69941 72165 8532/ 91745 333 55000 85715 81925 88458;
0200407340999992000022706004+36500+051580FM-12-002099999V0200901N00501036001CN0120001N1+00861+00551101671ADDAA124003891GA1011+007509089GF107991011011008001071001MA1999999101901MD1410001+9999REMSYN106AAXX  27061 40734 32562 70905 10086 20055 30190 40167 54000 81170 90545 333 31005 50031 70038 81825 87359;
0201407340999992000022712004+36500+051580FM-12-002099999V0200801N00401036001CN0120001N1+00981+00441101641ADDAA199000091GA1031+009009069GF107991031041008001071001MA1999999101871MD1410001+9999REMSYN088AAXX  27121 40734 32562 70804 10098 20044 30187 40164 54000 83470 91150 333 83630 87359;EQDQ01  00002PRCP99
0215407340999992000022718004+36500+051580FM-12-002099999V0201501N00301036001CN0100001N1+00861+00651101961ADDAA199000091GA1031+009009069GF108991031051008001021999GJ100309MA1999999102191MD1210161+9999REMSYN094AAXX  27181 40734 32560 81503 10086 20065 30219 40196 52016 8352/ 91745 333 55005 83630 88459;EQDQ01  00002PRCP99
0201407340999992000022800004+36500+051580FM-12-002099999V0209999C00001036001CN0100001N1+00821+00651102071ADDAA199000091GA1021+009009069GF107991021041008001071001MA1999999102301MD1310081+9999REMSYN088AAXX  28001 40734 32560 70000 10082 20065 30230 40207 53008 82470 92350 333 82630 87459;EQDQ01  00002PRCP99
0241407340999992000022806004+36500+051580FM-12-002099999V0202701N00801036001CN0100001N1+00761+00351102531ADDAA124000091GA1011+007509099GA2031+009009069GF108991041031008001021999MA1999999102761MD1210301+9999REMSYN112AAXX  28061 40734 32560 82708 10076 20035 30276 40253 52030 8432/ 90550 333 30007 50091 70000 81925 83630 88459;EQDQ01  00002PRCP24
0223407340999992000022812004+36500+051580FM-12-002099999V0202701N01001036001CN0100001N1+00961+00221102871ADDAA199000091GA1011+007509099GA2031+009009069GF108991041031008001021999MA1999999103101MD1210171+9999REMSYN094AAXX  28121 40734 32560 82710 10096 20022 30310 40287 52017 8432/ 91145 333 81925 83630 88460;EQDQ01  00002PRCP99
0237407340999992000022818004+36500+051580FM-12-002099999V0202501N00501036001CN0100001N1+00701+00331103301ADDAA199000091GA1011+009009099GA2031+009909069GF106991031031008001071001GJ100009MA1999999103531MD1110181+9999REMSYN100AAXX  28181 40734 32560 62505 10070 20033 30353 40330 51018 83370 91750 333 55000 81930 83633 86460;EQDQ01  00002PRCP99
0238407340999992000022900004+36500+051580FM-12-002099999V0202701N00801007501CN0060001N1+00581+00441103401ADDAA106001091AY121061AY221061GA1021+006009099GA2031+007509069GF108991041031004501021999MA1999999103631MD1110061+9999MW1601REMSYN106AAXX  29001 40734 11456 82708 10058 20044 30363 40340 51006 60011 76022 8432/ 92350 333 82920 83625 88556;
0238407340999992000022912004+36500+051580FM-12-002099999V0202701N00501036001CN0080001N1+00581+00401103471ADDAA106000591AY161061AY261061GA1011+006009099GA2031+007509069GF108991031031008001021999MA1999999103701MD1610131+9999MW1611REMSYN106AAXX  29121 40734 11558 82705 10058 20040 30370 40347 56013 69941 76166 8332/ 91150 333 81920 83625 88557;
0228407340999992000030106004+36500+051580FM-12-002099999V0203001N00201036001CN0100001N1+00641+00461103071ADDAA106001091AY161061AY261061GA1021+007509089GF108991021011008001071001MA1999999103301MD1410001+9999MW1011REMSYN112AAXX  01061 40734 11560 83002 10064 20046 30330 40307 54000 69991 70166 82170 90550 333 32003 50031 82825 87359;
0201407340999992000030112004+36500+051580FM-12-002099999V0203201N00301036001CN0120001N1+00821+00511102571ADDAA199000091GA1021+007509069GF106991021041008001071001MA1999999102801MD1710301+9999REMSYN088AAXX  01121 40734 32562 63203 10082 20051 30280 40257 57030 82470 91145 333 82625 86360;EQDQ01  00002PRCP99
0215407340999992000030118004+36500+051580FM-12-002099999V0209999C00001036001CN0100001N1+00721+00581102251ADDAA199000091GA1021+009009069GF107991021041008001071001GJ100849MA1999999102481MD1710161+9999REMSYN094AAXX  01181 40734 32560 70000 10072 20058 30248 40225 57016 82470 91745 333 55014 82630 87459;EQDQ01  00002PRCP99
0238407340999992000030200004+36500+051580FM-12-002099999V0202601N00401036001CN0080001N1+00641+00551101821ADDAA106001091AY121061AY221061GA1011+007509099GA2031+009009069GF108991041031008001021999MA1999999102051MD1710221+9999MW1251REMSYN106AAXX  02001 40734 11558 82604 10064 20055 30205 40182 57022 60011 72522 8432/ 92350 333 81925 83630 88459;
0222407340999992000030206004+36500+051580FM-12-002099999V0209999C00001036001CN0100001N1+00721+00491101701ADDAA124001091GA1011+006009079GA2031+009009069GF108991041071008001021999MA1999999101931MD1010011+9999REMSYN112AAXX  02061 40734 32560 80000 10072 20049 30193 40170 50001 8472/ 90550 333 31006 50101 70010 81720 83630 88458;
0238407340999992000030212004+36500+051580FM-12-002099999V0202701N006010075019N0080001N1+00661+00481101771ADDAA106000191AY161061AY221061GA1041+006009079GA2011+007509099GF108991051031008001021999MA1999999102001MD1310101+9999MW1211REMSYN106AAXX  02121 40734 11558 82706 10066 20048 30200 40177 53010 69921 72162 8532/ 91450 333 84720 81925 88458;
0252407340999992000030218004+36500+051580FM-12-002099999V0202701N00501036001CN0090001N1+00701+00331102171ADDAA106000191AY161061AY221061GA1011+007509099GA2041+009009069GF108991041031008001021999GJ100009MA1999999102401MD1110101+9999MW1211REMSYN112AAXX  02181 40734 11559 82705 10070 20033 30240 40217 51010 69911 72162 8432/ 91745 333 55000 81925 84630 88458;
0204407340999992000030300004+36500+051580FM-12-002099999V0202501N00401036001CN0100001N1+00681+00361102271ADDAA199000021GA1011+006009089GA2031+009009069GF108991031081008001021999MA1999999102501MD1110011+9999REMSYN094AAXX  03001 40734 32560 82504 10068 20036 30250 40227 51001 8382/ 92350 333 81820 83630 88459;
0194407340999992000030306004+36500+051580FM-12-002099999V0202701N005012200019N0120001N1+00921+00251102631ADDAA124000391GA1011+009009029GF101991011011008001031001MA1999999102861MD1210161+9999REMSYN100AAXX  03061 40734 32562 12705 10092 20025 30286 40263 52016 81130 90550 333 31005 50031 70003 81830;
0189407340999992000030318004+36500+051580FM-12-002099999V0201501N002012200019N0150001N1+00561+00381102631ADDAA199000091GA1001+999999999GF100991001001999999001001MA1999999102861MD1810041+9999REMSYN076AAXX  03181 40734 32965 01502 10056 20038 30286 40263 58004 91750 333 55100;EQDQ01  00002PRCP99
0201407340999992000030406004+36500+051580FM-12-002099999V0200901N006012200019N0200001N1+01001-00261102141ADDAA124000091GA1001+999999999GF100991001001999999001001MA1999999102371MD1710061+9999REMSYN088AAXX  04061 40734 32970 00906 10100 21026 30237 40214 57006 90550 333 31102 50441 70000;EQDQ01  00002PRCP24
0211407340999992000030500004+36500+051580FM-12-002099999V0202401N003010570019N0100001N1+00701+00521101761ADDAA199000091GA1061+057009089GF106991999001999999001061MA1999999101991MD1310061+9999REMSYN082AAXX  05001 40734 32960 62403 10070 20052 30199 40176 53006 80006 92350 333 86269;EQDQ01+000002SCOTLCQ02  00002PRCP99
0219407340999992000030506004+36500+051580FM-12-002099999V0202901N00501090001CN0100001N1+01001+00711102161ADDAA124000091GA1021+030009039GF105991011011008001031081MA1999999102391MD1110171+9999REMSYN106AAXX  05061 40734 32560 52905 10100 20071 30239 40216 51017 81138 90550 333 30003 50181 70000 82360 85270;EQDQ01  00002PRCP24
0201407340999992000030512004+36500+051580FM-12-002099999V0203401N002012200019N0120001N1+01101+00721102131ADDAA199000091GA1021+006009089GF103991021011008001001011MA1999999102361MD1610031+9999REMSYN088AAXX  05121 40734 32562 33402 10110 20072 30236 40213 56003 82101 91150 333 82820 83070;EQDQ01  00002PRCP99
0189407340999992000030518004+36500+051580FM-12-002099999V0201201N002012200019N0120001N1+00721+00401102101ADDAA199000091GA1001+999999999GF100991001001999999001001MA1999999102331MD1810031+9999REMSYN076AAXX  05181 40734 32962 01202 10072 20040 30233 40210 58003 91750 333 55075;EQDQ01  00002PRCP99
0183407340999992000030600004+36500+051580FM-12-002099999V0201501N002012200019N0100001N1+00321+00051101701ADDAA199000091GA1001+999999999GF100991001001999999001001MA1999999102931MD1810241+9999REMSYN070AAXX  06001 40734 32960 01502 10032 20005 30293 40170 58024 92350 333;EQDQ01  00002PRCP99
0201407340999992000030606004+36500+051580FM-12-002099999V0200901N003012200019N0150001N1+01181+00501101611ADDAA124000091GA1001+999999999GF100991001001999999001001MA1999999101841MD1710061+9999REMSYN088AAXX  06061 40734 32965 00903 10118 20050 30184 40161 57006 90550 333 30002 50441 70000;EQDQ01  00002PRCP24
0205407340999992000030612004+36500+051580FM-12-002099999V0200901N008012200019N0150001N1+01421+00431101171ADDAA199000091GA1021+060009019GF102991999011999999051999MA1999999101401MD1710201+9999REMSYN076AAXX  06121 40734 32965 20908 10142 20043 30140 40117 57020 8/150 333 82070;EQDQ01+000002SCOHCGQ02  00002PRCP99
0209407340999992000030618004+36500+051580FM-12-002099999V0200901N002012200019N0150001N1+00941+00681100961ADDAA199000091GA1041+057009019GF104991001001999999001021GJ106009MA1999999101191MD1710111+9999REMSYN088AAXX  06181 40734 32965 40902 10094 20068 30119 40096 57011 80002 91745 333 55100 84069;EQDQ01  00002PRCP99
0183407340999992000030700004+36500+051580FM-12-002099999V0202301N003012200019N0120001N1+00681+00501100771ADDAA199000091GA1001+999999999GF100991001001999999001001MA1999999101001MD1510001+9999REMSYN070AAXX  07001 40734 32962 02303 10068 20050 30100 40077 55000 92350 333;EQDQ01  00002PRCP99
0213407340999992000030706004+36500+051580FM-12-002099999V0209999C000012200019N0150001N1+01661+00801101171ADDAA124000091GA1011+060009019GF101991001001999999001011MA1999999101401MD1210201+9999REMSYN100AAXX  07061 40734 32965 10000 10166 20080 30140 40117 52020 80001 90550 333 30004 50271 70000 81070;EQDQ01  00002PRCP24
0201407340999992000030712004+36500+051580FM-12-002099999V0203101N00501036001CN0100001N1+01201+01011101421ADDAA199000091GA1031+004509079GF106991031071004501021001MA1999999101651MD1110181+9999REMSYN088AAXX  07121 40734 32460 63105 10120 20101 30165 40142 51018 83720 91150 333 83715 86460;EQDQ01  00002PRCP99
0237407340999992000030718004+36500+051580FM-12-002099999V0202901N00201036001CN0100001N1+01081+00971101691ADDAA199000091GA1011+004509079GA2031+009009069GF108991041071004501021999GJ104509MA1999999101921MD1210141+9999REMSYN100AAXX  07181 40734 32460 82902 10108 20097 30192 40169 52014 8472/ 91745 333 55075 81715 83630 88459;EQDQ01  00002PRCP99
0201407340999992000030800004+36500+051580FM-12-002099999V0202601N00301036001CN0100001N1+01001+00881101771ADDAA199000091GA1031+009009069GF108991031051008001021999MA1999999102001MD1110061+9999REMSYN088AAXX  08001 40734 32560 82603 10100 20088 30200 40177 51006 8352/ 92350 333 83630 88459;EQDQ01  00002PRCP99
0234407340999992000030806004+36500+051580FM-12-002099999V0200901N005010024019N0020001N1+00941+00911101941ADDAA106000191AY151061AY221061GA1051+002409079GF108991051071002501021999MA1999999102171MD1010101+9999MW1511REMSYN118AAXX  08061 40734 11320 80905 10094 20091 30217 40194 50010 69911 75152 8572/ 90545 333 31009 50101 70001 85708 88458;
0216407340999992000030812004+36500+051580FM-12-002099999V0200801N004010024019N0070001N1+01001+00831101601ADDAA106000191AY151061AY221061GA1051+002409079GF108991051061002501021999MA1999999101531MD1810221+9999MW1101REMSYN100AAXX  08121 40734 11357 80804 10100 20083 30153 40160 58022 69921 71052 8562/ 91150 333 85708 88457;
0230407340999992000030818004+36500+051580FM-12-002099999V0209999C000010021019N0050001N1+00901+00821101641ADDAA106002091AY151061AY221061GA1061+002109079GF108991061061002501021999GJ100009MA1999999101871MD1310071+9999MW1511REMSYN106AAXX  08181 40734 11350 80000 10090 20082 30187 40164 53007 60021 75152 8662/ 91750 333 55000 86707 88457;
0216407340999992000030900004+36500+051580FM-12-002099999V0202701N00501036001CN0070001N1+00621+00531101571ADDAA106005191AY151061AY221061GA1041+003009079GF108991041071004501021999MA1999999101701MD1810101+9999MW1101REMSYN100AAXX  09001 40734 11457 82705 10062 20053 30170 40157 58010 60051 71052 8472/ 92350 333 84710 88457;
0275407340999992000030906004+36500+051580FM-12-002099999V0202701N010010060019N0040001N1+00381+00231102131ADDAA106016091AY161061AY261061GA1041+003009079GA2021+006009099GF108991051031004501021999MA1999999102361MD1210502+9999MW1631REMSYN124AAXX  09061 40734 11440 82710 10038 20023 30236 40213 52050 60161 76366 8532/ 90550 333 32005 50561 70232 84710 82920 88550;EQDQ01+000502APC3  
0210407340999992000030912004+36500+051580FM-12-002099999V0203001N005012200019N0100001N1+00901+00401102071ADDAA106006191AY161061AY261061GA1011+007509029GF103991011011008001001011MA1999999102301MD1610101+9999MW1011REMSYN094AAXX  09121 40734 11560 33005 10090 20040 30230 40207 56010 60061 70166 81101 91150 333 81825;
0170407340999992000030918004+36500+051580FM-12-002099999V0201501N003012200019N0150001N1+00541+00401101861ADDAA199000021GA1001+999999999GF100991001001999999001001MA1999999102091MD1710211+9999REMSYN076AAXX  09181 40734 32965 01503 10054 20040 30209 40186 57021 91750 333 55045;
0183407340999992000031000004+36500+051580FM-12-002099999V0209999C000012200019N0150001N1+00261+00161101421ADDAA199000091GA1001+999999999GF100991001001999999001001MA1999999101651MD1710151+9999REMSYN070AAXX  10001 40734 32965 00000 10026 20016 30165 40142 57015 92350 333;EQDQ01  00002PRCP99
0182407340999992000031006004+36500+051580FM-12-002099999V0209999C000012200019N0100001N1+01241+00651101371ADDAA124005691GA1001+999999999GF100991001001999999001001MA1999999101601MD1410001+9999REMSYN088AAXX  10061 40734 32960 00000 10124 20065 30160 40137 54000 90545 333 31102 50131 70057;
0183407340999992000031012004+36500+051580FM-12-002099999V0200901N003012200019N0100001N1+01421+00721100971ADDAA199000091GA1001+999999999GF100991001001999999001001MA1999999101201MD1710201+9999REMSYN070AAXX  10121 40734 32960 00903 10142 20072 30120 40097 57020 91150 333;EQDQ01  00002PRCP99
0189407340999992000031018004+36500+051580FM-12-002099999V0209999C000012200019N0100001N1+00841+00621100811ADDAA199000091GA1001+999999999GF100991001001999999001001MA1999999101041MD1510041+9999REMSYN076AAXX  10181 40734 32960 00000 10084 20062 30104 40081 55004 91745 333 55100;EQDQ01  00002PRCP99
0183407340999992000031100004+36500+051580FM-12-002099999V0202401N003012200019N0100001N1+00821+00451100971ADDAA199000091GA1001+999999999GF100991001001999999001001MA1999999101201MD1310201+9999REMSYN070AAXX  11001 40734 32960 02403 10082 20045 30120 40097 53020 92350 333;EQDQ01  00002PRCP99
0201407340999992000031106004+36500+051580FM-12-002099999V0200601N002012200019N0120001N1+01701+00501101171ADDAA124000091GA1001+999999999GF100991001001999999001001MA1999999101401MD1410001+9999REMSYN088AAXX  11061 40734 32962 00602 10170 20050 30140 40117 54000 90550 333 31001 50311 70000;EQDQ01  00002PRCP24
0183407340999992000031112004+36500+051580FM-12-002099999V0200601N004012200019N0200001N1+01701+00431100771ADDAA199000091GA1001+999999999GF100991001001999999001001MA1999999101001MD1610201+9999REMSYN070AAXX  11121 40734 32970 00604 10170 20043 30100 40077 56020 91150 333;EQDQ01  00002PRCP99
0209407340999992000031118004+36500+051580FM-12-002099999V0201201N002012200019N0150001N1+00981+00771100831ADDAA199000091GA1031+030009079GF103991031001999999031001GJ106189MA1999999101061MD1110031+9999REMSYN088AAXX  11181 40734 32965 31202 10098 20077 30106 40083 51003 83030 91750 333 55103 83360;EQDQ01  00002PRCP99
0251407340999992000031200004+36500+051580FM-12-002099999V0202701N004010021019N0040001N1+00921+00891101972ADDAA106003091AY151061AY221061GA1061+002109079GF108991061061002501021999MA1999999102202MD1210441+9999MW1511REMSYN100AAXX  12001 40734 11340 82704 10092 20089 30220 40197 52044 60031 75152 8662/ 92350 333 86707 88456;EQDQ01+102203APOSP Q02+101973APOSLP
0238407340999992000031212004+36500+051580FM-12-002099999V0203301N00301036001CN0090001N1+00901+00731102201ADDAA106001091AY161061AY261061GA1011+006009099GA2021+007509069GF108991021031008001021999MA1999999102431MD1710171+9999MW1211REMSYN106AAXX  12121 40734 11559 83303 10090 20073 30243 40220 57017 60011 72166 8232/ 91150 333 81920 82625 88459;
0252407340999992000031218004+36500+051580FM-12-002099999V0209999C000010030019N0070001N1+00821+00791102051ADDAA106001091AY151061AY221061GA1051+003009079GA2011+006009099GF108991051031004501021999GJ100009MA1999999102281MD1710051+9999MW1201REMSYN112AAXX  12181 40734 11457 80000 10082 20079 30228 40205 57005 60011 72052 8532/ 91750 333 55000 85710 81920 88458;
0204407340999992000031300004+36500+051580FM-12-002099999V0201101N00401036001CN0100001N1+00821+00541101671ADDAA199000021GA1011+006009099GA2021+007509069GF108991021031008001021999MA1999999101901MD1710201+9999REMSYN094AAXX  13001 40734 32560 81104 10082 20054 30190 40167 57020 8232/ 92350 333 81920 82625 88458;
0200407340999992000031306004+36500+051580FM-12-002099999V0200601N004012200019N0100001N1+01021+00731101401ADDAA124002091GA1011+007509099GF103991011031008001031001MA1999999101631MD1810071+9999REMSYN106AAXX  13061 40734 32560 30604 10102 20073 30163 40140 58007 81330 90550 333 31007 50201 70020 81925 83360;
0223407340999992000031312004+36500+051580FM-12-002099999V0200601N00301036001CN0100001N1+01041+00751101321ADDAA199000091GA1011+007509099GA2021+009009069GF107991021031008001071001MA1999999101551MD1610081+9999REMSYN094AAXX  13121 40734 32560 70603 10104 20075 30155 40132 56008 82370 91145 333 81925 82630 87359;EQDQ01  00002PRCP99
0229407340999992000031318004+36500+051580FM-12-002099999V0209999C00001036001CN0100001N1+00961+00791101451ADDAA199000091GA1011+007509099GA2021+009009069GF107991021031008001071001MA1999999101681MD1210101+9999REMSYN100AAXX  13181 40734 32560 70000 10096 20079 30168 40145 52010 82370 91745 333 50025 81925 82630 87359;EQDQ01  00002PRCP99
0223407340999992000031400004+36500+051580FM-12-002099999V0202201N00301036001CN0100001N1+00901+00731101671ADDAA199000091GA1011+007509099GA2031+009009069GF108991021031008001021999MA1999999101901MD1310061+9999REMSYN094AAXX  14001 40734 32560 82203 10090 20073 30190 40167 53006 8232/ 92345 333 81925 83630 88458;EQDQ01  00002PRCP99
0219407340999992000031406004+36500+051580FM-12-002099999V0202701N00601036001CN0100001N1+00981+00241101891ADDAA124000091GA1021+009009069GF108991021041008001021999MA1999999102121MD1210181+9999REMSYN106AAXX  14061 40734 32560 82706 10098 20024 30212 40189 52018 8242/ 90545 333 31007 50091 70000 82630 88458;EQDQ01  00002PRCP24
0201407340999992000031412004+36500+051580FM-12-002099999V0202901N00701036001CN0100001N1+00881+00571101901ADDAA199000091GA1021+007509099GF108991021031008001021999MA1999999102131MD1610071+9999REMSYN088AAXX  14121 40734 32560 82907 10088 20057 30213 40190 56007 8232/ 91150 333 82925 88458;EQDQ01  00002PRCP99
0252407340999992000031418004+36500+051580FM-12-002099999V0202501N00801006001CN0060001N1+00401+00301102501ADDAA106007991AY181061AY261061GA1031+004509079GA2021+006009099GF108991041031008001021999GJ100009MA1999999102731MD1210401+9999MW1611REMSYN112AAXX  14181 40734 11556 82508 10040 20030 30273 40250 52040 60081 76186 8432/ 91745 333 55000 83715 82920 88557;
0257407340999992000031500004+36500+051580FM-12-002099999V0201401N99999036001CN0060001N1+00341+00241102571ADDAA106005191AY161061AY261061GA1021+004509079GA2011+006009099GF108991021031004501021999MA1999999102801MD1410001+9999MW1611REMSYN106AAXX  15001 40734 11456 86404 10034 20024 30280 40257 54000 60051 76166 8232/ 92350 333 82715 81920 88557;EQDQ01+010401WOSPD 
0256407340999992000031506004+36500+051580FM-12-002099999V0202601N00401036001CN0060001N1+00401+00251102901ADDAA106005191AY161061AY261061GA1031+004509079GA2011+006009099GF108991031031004501021999MA1999999103131MD1210201+9999MW1611REMSYN124AAXX  15061 40734 11456 82604 10040 20025 30313 40290 52020 60051 76166 8332/ 90550 333 32003 50171 70175 83715 81920 88557;
0238407340999992000031512004+36500+051580FM-12-002099999V0201801N004010036019N0060001N1+00381+00061103151ADDAA106005191AY161061AY261061GA1051+003609079GA2011+006009099GF108991051031004501021999MA1999999103381MD1210171+9999MW1611REMSYN106AAXX  15121 40734 11456 81804 10038 20006 30338 40315 52017 60051 76166 8532/ 91150 333 85712 81920 88556;
0204407340999992000031518004+36500+051580FM-12-002099999V0201701N003012200019N0120001N1+00201+00101102871ADDAA106000791AY161061AY261061GA1001+999999999GF100991001001999999001001MA1999999103101MD1710131+9999MW1011REMSYN088AAXX  15181 40734 11962 01703 10020 20010 30310 40287 57013 69901 70166 91745 333 55000;
0164407340999992000031600004+36500+051580FM-12-002099999V0209999C000012200019N0120001N1+00101-00061102421ADDAA199000021GA1001+999999999GF100991001001999999001001MA1999999102651MD1710241+9999REMSYN070AAXX  16001 40734 32962 00000 10010 21006 30265 40242 57024 92345 333;
0172407340999992000031606004+36500+051580FM-12-002099999V0200701N004012200019N0150001N1+00681-00111102431ADDAA124005191GF101991011011008001001001MA1999999102661MD1310061+9999REMSYN094AAXX  16061 40734 32565 10704 10068 21011 30266 40243 53006 81100 90545 333 31104 5///1 70052;
0189407340999992000031618004+36500+051580FM-12-002099999V0201501N003012200019N0120001N1+00461+00371102171ADDAA199000091GA1001+999999999GF100991001001999999001001MA1999999102401MD1410001+9999REMSYN076AAXX  16181 40734 32962 01503 10046 20037 30240 40217 54000 91750 333 55107;EQDQ01  00002PRCP99
0201407340999992000031706004+36500+051580FM-12-002099999V0200701N003012200019N0120001N1+00921+00421101891ADDAA124000091GA1001+999999999GF100991001001999999001001MA1999999102051MD1010001+9999REMSYN088AAXX  17061 40734 32962 00703 10092 20042 30205 40189 50000 90550 333 31102 50181 70000;EQDQ01  00002PRCP24
0183407340999992000031712004+36500+051580FM-12-002099999V0200901N005012200019N0150001N1+01141+00471101541ADDAA199000091GA1001+999999999GF100991001001999999001001MA1999999101771MD1810161+9999REMSYN070AAXX  17121 40734 32965 00905 10114 20047 30177 40154 58016 91150 333;EQDQ01  00002PRCP99
0183407340999992000031800004+36500+051580FM-12-002099999V0209999C000012200019N0150001N1+00601+00511101271ADDAA199000091GA1001+999999999GF100991001001999999001001MA1999999101501MD1810131+9999REMSYN070AAXX  18001 40734 32965 00000 10060 20051 30150 40127 58013 92350 333;EQDQ01  00002PRCP99
0211407340999992000031812004+36500+051580FM-12-002099999V0200601N004012200019N0150001N1+01201+00941100871ADDAA199000091GA1041+057009089GF104991999001999999001061MA1999999101101MD1710201+9999REMSYN082AAXX  18121 40734 32965 40604 10120 20094 30110 40087 57020 80006 91150 333 84269;EQDQ01+000002SCOTLCQ02  00002PRCP99
0225407340999992000031818004+36500+051580FM-12-002099999V0209999C000010510019N0100001N1+01101+00941100801ADDAA199000091GA1081+051009089GF108991999001999999001071GJ105409MA1999999101031MD1810071+9999REMSYN088AAXX  18181 40734 32960 80000 10110 20094 30103 40080 58007 80007 91750 333 55090 88267;EQDQ01+000002SCOTLCQ02  00002PRCP99
0223407340999992000031900004+36500+051580FM-12-002099999V0203001N00801036001CN0100001N1+01141+00861100771ADDAA199000091GA1011+007509099GA2021+009009069GF108991021031008001021999MA1999999101001MD1310201+9999REMSYN094AAXX  19001 40734 32560 83008 10114 20086 30100 40077 53020 8232/ 92350 333 81925 82630 88459;EQDQ01  00002PRCP99
0183407340999992000031912004+36500+051580FM-12-002099999V0203401N004012200019N0100001N1+01741+00831101171ADDAA199000091GA1001+999999999GF100991001001999999001001MA1999999101401MD1210171+9999REMSYN070AAXX  19121 40734 32960 03404 10174 20083 30140 40117 52017 91145 333;EQDQ01  00002PRCP99
0213407340999992000032006004+36500+051580FM-12-002099999V0202901N006012200019N0100001N1+01201+00751102021ADDAA124000091GA1011+009009059GF101991011041008001001001MA1999999102251MD1110021+9999REMSYN100AAXX  20061 40734 32560 12906 10120 20075 30225 40202 51002 81400 90550 333 30009 50351 70000 81630;EQDQ01  00002PRCP24
0189407340999992000032018004+36500+051580FM-12-002099999V0200801N005012200019N0100001N1+01001+00881101661ADDAA199000091GA1001+999999999GF100991001001999999001001MA1999999101891MD1410001+9999REMSYN076AAXX  20181 40734 32960 00805 10100 20088 30189 40166 54000 91745 333 55093;EQDQ01  00002PRCP99
0223407340999992000032100004+36500+051580FM-12-002099999V0202601N00401036001CN0100001N1+01001+00881101671ADDAA199000091GA1011+007509099GA2021+009009069GF108991021031008001021999MA1999999101901MD1110111+9999REMSYN094AAXX  21001 40734 32560 82604 10100 20088 30190 40167 51011 8232/ 92350 333 81925 82630 88458;EQDQ01  00002PRCP99
0269407340999992000032106004+36500+051580FM-12-002099999V0203101N00401036001CN0040001N1+01081+00811101881ADDAA124000091AY121061AY221061GA1031+006009079GA2011+007509099GF108991031031008001021999MA1999999102211MD1210061+9999MW1101REMSYN118AAXX  21061 40734 31540 83104 10108 20081 30221 40188 52006 71022 8332/ 90545 333 30007 50271 70000 83720 81925 88458;EQDQ01  00002PRCP24
0229407340999992000032112004+36500+051580FM-12-002099999V0203601N00301036001CN0050001N1+01101+00941101771ADDAA199000091AY121061AY221061GA1021+004509079GF108991021071004501021999MA1999999102001MD1710201+9999MW1101REMSYN094AAXX  21121 40734 31450 83603 10110 20094 30200 40177 57020 71022 8272/ 91145 333 82715 88458;EQDQ01  00002PRCP99
0243407340999992000032118004+36500+051580FM-12-002099999V0200601N00201036001CN0040001N1+01001+00881101571ADDAA199000091AY121061AY221061GA1031+004509079GF108991031061004501021999GJ100009MA1999999101801MD1610101+9999MW1101REMSYN100AAXX  21181 40734 31440 80602 10100 20088 30180 40157 56010 71022 8362/ 91745 333 55000 83715 88457;EQDQ01  00002PRCP99
0178407340999992000032312004+36500+051580FM-12-002099999V0203501N002010042019N0060001N1+00961+00841101501ADDAA106000591AY151061AY221061GF108991051031004501021999MA1999999101731MD1810171+9999MW1501REMSYN078AAXX  23121 40734 11456 83502 10096 20084 30173 40150 58017 69941 75052 8532/;
0201407340999992000032812004+36500+051580FM-12-002099999V0200401N00401036001CN0100001N1+01241+00891102341ADDAA199000091GA1021+009009069GF105991021041008001031001MA1999999102571MD1710161+9999REMSYN088AAXX  28121 40734 32560 50404 10124 20089 30257 40234 57016 82430 91150 333 82630 84360;EQDQ01  00002PRCP99
0215407340999992000032818004+36500+051580FM-12-002099999V0209999C00001036001CN0100001N1+01101+00821102211ADDAA199000091GA1021+009009069GF105991021041008001071001GJ102709MA1999999102441MD1710061+9999REMSYN094AAXX  28181 40734 32560 50000 10110 20082 30244 40221 57006 82470 91750 333 55045 82630 85359;EQDQ01  00002PRCP99
0183407340999992000032900004+36500+051580FM-12-002099999V0209999C000012200019N0100001N1+00681+00651101951ADDAA199000091GA1001+999999999GF100991001001999999001001MA1999999102181MD1710121+9999REMSYN070AAXX  29001 40734 32960 00000 10068 20065 30218 40195 57012 92350 333;EQDQ01  00002PRCP99
0201407340999992000032906004+36500+051580FM-12-002099999V0203601N003012200019N0120001N1+01201+00911102001ADDAA124000091GA1001+999999999GF100991001001999999001001MA1999999102231MD1310031+9999REMSYN088AAXX  29061 40734 32962 03603 10120 20091 30223 40200 53003 90550 333 31005 50271 70000;EQDQ01  00002PRCP24
0189407340999992000032918004+36500+051580FM-12-002099999V0209999C000012200019N0100001N1+00981+00901101801ADDAA199000091GA1001+999999999GF100991001001999999001001MA1999999102031MD1110031+9999REMSYN076AAXX  29181 40734 32960 00000 10098 20090 30203 40180 51003 91750 333 55103;EQDQ01  00002PRCP99
0195407340999992000033000004+36500+051580FM-12-002099999V0209999C000012200019N0100001N1+00641+00581101631ADDAA199000091GA1031+030009079GF103991031001999999031001MA1999999101861MD1810071+9999REMSYN082AAXX  30001 40734 32960 30000 10064 20058 30186 40163 58007 83030 92350 333 83360;EQDQ01  00002PRCP99
0219407340999992000033006004+36500+051580FM-12-002099999V0203301N002012200019N0100001N1+01341+00101101971ADDAA124000091GA1011+007509089GF104991011011008001031021MA1999999102201MD1210271+9999REMSYN106AAXX  30061 40734 32560 43302 10134 20010 30220 40197 52027 81132 90550 333 30006 50221 70000 81825 84070;EQDQ01  00002PRCP24
0195407340999992000040212004+36500+051580FM-12-002099999V0202901N004010600019N0100001N1+01741+01051102071ADDAA199000091GA1051+060009019GF105991001001999999001011MA1999999102301MD1710131+9999REMSYN082AAXX  02121 40734 32960 52904 10174 20105 30230 40207 57013 80001 91150 333 85070;EQDQ01  00002PRCP99
0183407340999992000040300004+36500+051580FM-12-002099999V0209999C000012200019N0100001N1+00961+00881101871ADDAA199000091GA1001+999999999GF100991001001999999001001MA1999999102101MD1710111+9999REMSYN070AAXX  03001 40734 32960 00000 10096 20088 30210 40187 57011 92345 333;EQDQ01  00002PRCP99
0223407340999992000040312004+36500+051580FM-12-002099999V0203301N003012200019N0080001N1+01361+01211101811ADDAA199000091AY101061AY201061GA1041+054009089GF104991011001999999031061MA1999999102041MD1610081+9999MW1101REMSYN088AAXX  03121 40734 31958 43303 10136 20121 30204 40181 56008 71000 81036 91150 333 84268;EQDQ01  00002PRCP99
0253407340999992000040418004+36500+051580FM-12-002099999V0209999C000012200019N0060001N1+01321+01221101801ADDAA199000091AY111061AY211061GA1041+054009089GF104991999001008001001061GJ102709MA1999999102031MD1010001+9999MW1101REMSYN094AAXX  04181 40734 31556 40000 10132 20122 30203 40180 50000 71011 80006 91750 333 55045 84268;EQDQ01+000002SCOTLCQ02  00002PRCP99
0183407340999992000040500004+36500+051580FM-12-002099999V0209999C000012200019N0100001N1+01101+01071101551ADDAA199000091GA1001+999999999GF100991001001999999001001MA1999999101781MD1810121+9999REMSYN070AAXX  05001 40734 32960 00000 10110 20107 30178 40155 58012 92350 333;EQDQ01  00002PRCP99
0213407340999992000040506004+36500+051580FM-12-002099999V0200401N003010600019N0100001N1+01761+01331101571ADDAA124000091GA1061+060009019GF106991001001999999001011MA1999999101801MD1010001+9999REMSYN100AAXX  05061 40734 32960 60403 10176 20133 30180 40157 50000 80001 90545 333 30007 50181 70000 86070;EQDQ01  00002PRCP24
0201407340999992000040512004+36500+051580FM-12-002099999V0200801N005012200019N0100001N1+02001+01041101371ADDAA199000091GA1011+007509089GF103991011021008001001011MA1999999101601MD1710131+9999REMSYN088AAXX  05121 40734 32560 30805 10200 20104 30160 40137 57013 81201 91150 333 81825 83070;EQDQ01  00002PRCP99
0189407340999992000040518004+36500+051580FM-12-002099999V0201001N003012200019N0100001N1+01481+01191101271ADDAA199000091GA1001+999999999GF100991001001999999001001MA1999999101501MD1710071+9999REMSYN076AAXX  05181 40734 32960 01003 10148 20119 30150 40127 57007 91750 333 55080;EQDQ01  00002PRCP99
0195407340999992000040600004+36500+051580FM-12-002099999V0209999C000012200019N0100001N1+01241+01081101071ADDAA199000091GA1021+060009019GF102991001001999999001011MA1999999101301MD1710121+9999REMSYN082AAXX  06001 40734 32960 20000 10124 20108 30130 40107 57012 80001 92350 333 82070;EQDQ01  00002PRCP99
0213407340999992000040606004+36500+051580FM-12-002099999V0200101N002012200019N0100001N1+01621+01261101141ADDAA124000091GA1011+007509029GF101991011011008001001001MA1999999101371MD1110071+9999REMSYN100AAXX  06061 40734 32560 10102 10162 20126 30137 40114 51007 81100 90545 333 30008 50351 70000 81825;EQDQ01  00002PRCP24
0209407340999992000040618004+36500+051580FM-12-002099999V0209999C000012200019N0100001N1+01701+01541100871ADDAA199000091GA1011+030009079GF101991011001999999031001GJ106129MA1999999101101MD1410001+9999REMSYN088AAXX  06181 40734 32960 10000 10170 20154 30110 40087 54000 81030 91745 333 55102 81360;EQDQ01  00002PRCP99
0191407340999992000040706004+36500+051580FM-12-002099999V0200501N002012200019N0100001N1+02081+01381100841ADDAA124000091GF101991001001999999001011MA1999999101071MD1010011+9999REMSYN094AAXX  07061 40734 32960 10502 10208 20138 30107 40084 50001 80001 90545 333 30001 50351 70000;EQDQ01  00002PRCP24
0195407340999992000040712004+36500+051580FM-12-002099999V0200601N003012200019N0100001N1+02201+01491100471ADDAA199000091GA1041+060009019GF104991001001999999001011MA1999999100701MD1710201+9999REMSYN082AAXX  07121 40734 32960 40603 10220 20149 30070 40047 57020 80001 91145 333 84070;EQDQ01  00002PRCP99
0209407340999992000040718004+36500+051580FM-12-002099999V0209999C000012200019N0100001N1+01961+01461100471ADDAA199000091GA1041+060009019GF104991001001999999001011GJ105709MA1999999100701MD1110041+9999REMSYN088AAXX  07181 40734 32960 40000 10196 20146 30070 40047 51004 80001 91745 333 55095 84070;EQDQ01  00002PRCP99
0183407340999992000040800004+36500+051580FM-12-002099999V0200901N005012200019N0100001N1+02001+01461100441ADDAA199000091GA1001+999999999GF100991001001999999001001MA1999999100671MD1810031+9999REMSYN070AAXX  08001 40734 32960 00905 10200 20146 30067 40044 58003 92350 333;EQDQ01  00002PRCP99
0259407340999992000040818004+36500+051580FM-12-002099999V0202701N004010300019N0100001N1+01501+01341101171ADDAA199000091GA1011+009009099GA2021+012009069GA3041+030009039GF107991021031008001071061GJ100009MA1999999101401MD1210101+9999REMSYN106AAXX  08181 40734 32560 72704 10150 20134 30140 40117 52010 82376 91750 333 55000 81930 82640 84360 87270;EQDQ01  00002PRCP99
0195407340999992000040900004+36500+051580FM-12-002099999V0209999C000012200019N0100001N1+01261+01201100971ADDAA199000091GA1041+060009019GF104991001001999999001021MA1999999101201MD1710121+9999REMSYN082AAXX  09001 40734 32960 40000 10126 20120 30120 40097 57012 80002 92350 333 84070;EQDQ01  00002PRCP99
0237407340999992000040918004+36500+051580FM-12-002099999V0202701N01101009001CN0100001N1+01521+01231101071ADDAA199000091GA1021+007509099GA2031+009009069GF106991021091008001001061GJ102349MA1999999101301MD1310471+9999REMSYN100AAXX  09181 40734 32560 62711 10152 20123 30130 40107 53047 82906 91745 333 55039 82925 83630 86268;EQDQ01  00002PRCP99
0215407340999992000041000004+36500+051580FM-12-002099999V0201301N004012200019N0100001N1+01501+01251100212ADDAA199000091GA1001+999999999GF100991001001999999001001MA1999999100442MD1810361+9999REMSYN070AAXX  10001 40734 32960 01304 10150 20125 30044 40021 58036 92350 333;EQDQ01+100443APOSP Q02+100213APOSLPQ03  00002PRCP99
0235407340999992000041006004+36500+051580FM-12-002099999V0203001N012012200019N0100001N1+01661+01271100541ADDAA124000091GA1011+009009089GF103991021031008001031021MA1999999100801MD1210512+9999REMSYN106AAXX  10061 40734 32560 33012 10166 20127 30080 40054 52051 82332 90545 333 30013 50181 70000 81830 81935;EQDQ01+000512APC3  Q02  00002PRCP24
0201407340999992000041012004+36500+051580FM-12-002099999V0203301N005012200019N0100001N1+01641+01241100901ADDAA199000091GA1021+006009089GF104991021011004501031001MA1999999101131MD1210181+9999REMSYN088AAXX  10121 40734 32460 43305 10164 20124 30113 40090 52018 82130 91150 333 82820 84360;EQDQ01  00002PRCP99
0189407340999992000041018004+36500+051580FM-12-002099999V0209999C000012200019N0100001N1+01321+01221101301ADDAA199000091GA1001+999999999GF100991001001999999001001MA1999999101541MD1210231+9999REMSYN076AAXX  10181 40734 32960 00000 10132 20122 30154 40130 52023 91750 333 55070;EQDQ01  00002PRCP99
0201407340999992000041100004+36500+051580FM-12-002099999V0202701N00501036001CN0100001N1+01321+01171101471ADDAA199000091GA1021+009009069GF106991021041008001021001MA1999999101701MD1210131+9999REMSYN088AAXX  11001 40734 32560 62705 10132 20117 30170 40147 52013 82420 92350 333 82630 85460;EQDQ01  00002PRCP99
0191407340999992000041106004+36500+051580FM-12-002099999V0203101N004012200019N0100001N1+01541+01221101571ADDAA124000091GF101991011011008001001001MA1999999101801MD1410001+9999REMSYN094AAXX  11061 40734 32560 13104 10154 20122 30180 40157 54000 81100 90550 333 30011 50271 70000;EQDQ01  00002PRCP24
0183407340999992000041112004+36500+051580FM-12-002099999V0200901N004012200019N0100001N1+01581+01221101371ADDAA199000091GA1001+999999999GF100991001001999999001001MA1999999101601MD1710201+9999REMSYN070AAXX  11121 40734 32960 00904 10158 20122 30160 40137 57020 91150 333;EQDQ01  00002PRCP99
0209407340999992000041118004+36500+051580FM-12-002099999V0209999C000010030019N0100001N1+01361+01301101071ADDAA199000091GA1071+003009069GF107991071061012501001001GJ106189MA1999999101301MD1710111+9999REMSYN088AAXX  11181 40734 32660 70000 10136 20130 30130 40107 57011 87600 91745 333 55103 87710;EQDQ01  00002PRCP99
0183407340999992000041200004+36500+051580FM-12-002099999V0202701N003012200019N0100001N1+01241+01081101111ADDAA199000091GA1001+999999999GF100991001001999999001001MA1999999101341MD1610041+9999REMSYN070AAXX  12001 40734 32960 02703 10124 20108 30134 40111 56004 92350 333;EQDQ01  00002PRCP99
0241407340999992000041206004+36500+051580FM-12-002099999V0203301N004012200019N0080001N1+01461+01241101301ADDAA124000091AY121061AY211061GA1021+004509069GF102991021061004501001001MA1999999101531MD1010081+9999MW1101REMSYN106AAXX  12061 40734 31458 23304 10146 20124 30153 40130 50008 71021 82600 90550 333 30010 50531 70000 82715;EQDQ01  00002PRCP24
0183407340999992000041212004+36500+051580FM-12-002099999V0200901N006012200019N0120001N1+01721+01331101021ADDAA199000091GA1001+999999999GF100991001001999999001001MA1999999101251MD1710251+9999REMSYN070AAXX  12121 40734 32962 00906 10172 20133 30125 40102 57025 91145 333;EQDQ01  00002PRCP99
0225407340999992000041218004+36500+051580FM-12-002099999V0202701N005012200019N0100001N1+01521+01421100991ADDAA199000091GA1031+060009089GF103991999001999999001081GJ104569MA1999999101221MD1310101+9999REMSYN088AAXX  12181 40734 32960 32705 10152 20142 30122 40099 53010 80008 91745 333 55076 83270;EQDQ01+000002SCOTLCQ02  00002PRCP99
0183407340999992000041300004+36500+051580FM-12-002099999V0202601N005012200019N0100001N1+01421+01321101341ADDAA199000091GA1001+999999999GF100991001001999999001001MA1999999101571MD1110071+9999REMSYN070AAXX  13001 40734 32960 02605 10142 20132 30157 40134 51007 92350 333;EQDQ01  00002PRCP99
0241407340999992000041306004+36500+051580FM-12-002099999V0203601N003010030019N0040001N1+01461+01301101401ADDAA124000091AY121061AY221061GA1081+003009069GF108991081061002501999999MA1999999101631MD1610021+9999MW1101REMSYN106AAXX  13061 40734 31340 83603 10146 20130 30163 40140 56002 71022 886// 90545 333 30014 50181 70000 88710;EQDQ01  00002PRCP24
0239407340999992000041312004+36500+051580FM-12-002099999V0200601N002010030019N0050001N1+01561+01311101271ADDAA199000091AY121061AY221061GA1081+003009069GF199999081061002501999999MA1999999101501MD1610101+9999MW1101REMSYN088AAXX  13121 40734 31350 70602 10156 20131 30150 40127 56010 71022 886// 91145 333 88710;EQDQ01+000072SCOTCVQ02  00002PRCP99
0265407340999992000041318004+36500+051580FM-12-002099999V0209999C000010300019N0050001N1+01441+01311101401ADDAA199000091AY121061AY221061GA1031+003009079GA2031+030009039GF106991041061002501031061GJ100009MA1999999101631MD1210131+9999MW1101REMSYN106AAXX  13181 40734 31350 60000 10144 20131 30163 40140 52013 71022 84636 91745 333 55000 83710 83360 85270;EQDQ01  00002PRCP99
0223407340999992000041400004+36500+051580FM-12-002099999V0209999C000010021019N0030001N1+01421+01361101241ADDAA199000091AY121061AY221061GA1081+002109069GF108991081061002501999999MA1999999101471MD1610061+9999MW1101REMSYN088AAXX  14001 40734 31330 80000 10142 20136 30147 40124 56006 71022 886// 92345 333 88707;EQDQ01  00002PRCP99
0213407340999992000041406004+36500+051580FM-12-002099999V0202701N004010030019N0100001N1+01541+01381101301ADDAA124000091GA1081+003009069GF108991081061004501999999MA1999999101531MD1210101+9999REMSYN100AAXX  14061 40734 32460 82704 10154 20138 30153 40130 52010 886// 90550 333 30013 50271 70000 88710;EQDQ01  00002PRCP24
0225407340999992000041418004+36500+051580FM-12-002099999V0209999C000010510019N0100001N1+01421+01361100771ADDAA199000091GA1081+051009089GF108991999001999999001071GJ100189MA1999999101001MD1810101+9999REMSYN088AAXX  14181 40734 32960 80000 10142 20136 30100 40077 58010 80007 91750 333 55003 88267;EQDQ01+000002SCOTLCQ02  00002PRCP99
0223407340999992000041500004+36500+051580FM-12-002099999V0209999C000010045019N0020001N1+01421+01391100571ADDAA199000091AY121061AY221061GA1081+004509069GF108991081061004501999999MA1999999100801MD1510201+9999MW1101REMSYN088AAXX  15001 40734 31420 80000 10142 20139 30080 40057 55020 71022 886// 92350 333 88715;EQDQ01  00002PRCP99
0234407340999992000041506004+36500+051580FM-12-002099999V0202701N005010021019N0010001N1+01421+01391101031ADDAA106000791AY121061AY221061GA1061+002109079GF108991061061002501021999MA1999999101261MD1210211+9999MW1201REMSYN118AAXX  15061 40734 11310 82705 10142 20139 30126 40103 52021 69901 72022 8662/ 90550 333 31013 50131 79999 86707 88458;
0182407340999992000041512004+36500+051580FM-12-002099999V0202801N00501090001CN0120001N1+01641+01011101041ADDAA199000021GA1011+009009069GF108991011041008001001071MA1999999101271MD1510021+9999REMSYN088AAXX  15121 40734 32562 82805 10164 20101 30127 40104 55002 81407 91150 333 81630 88267;
0252407340999992000041518004+36500+051580FM-12-002099999V0201201N00201036001CN0100001N1+01521+01231101221ADDAA106000191AY181061AY221061GA1011+007509099GA2021+009009069GF108991031031008001021999GJ100009MA1999999101451MD1010161+9999MW1021REMSYN112AAXX  15181 40734 11560 81202 10152 20123 30145 40122 50016 69921 70282 8332/ 91750 333 55000 81925 82630 88459;
0211407340999992000041600004+36500+051580FM-12-002099999V0209999C000010600019N0100001N1+01201+01041101271ADDAA199000091GA1051+060009089GF105991999001999999001061MA1999999101501MD1110031+9999REMSYN082AAXX  16001 40734 32960 50000 10120 20104 30150 40127 51003 80006 92350 333 85270;EQDQ01+000002SCOTLCQ02  00002PRCP99
0222407340999992000041606004+36500+051580FM-12-002099999V0203301N00301090001CN0100001N1+01761+01141101471ADDAA124000391GA1021+009009089GA2031+030009039GF106991021011008001031061MA1999999101701MD1310071+9999REMSYN112AAXX  16061 40734 32560 63303 10176 20114 30170 40147 53007 82136 90550 333 30009 50181 70002 82830 83360 86270;
0273407340999992000041612004+36500+051580FM-12-002099999V0203101N00601007501CN0070001N1+01561+01271101271ADDAA199000091AY121061AY211061GA1021+006009099GA2031+007509069GA3041+030009039GF107991041031008001031061MA1999999101501MD1610101+9999MW1101REMSYN106AAXX  16121 40734 31557 73106 10156 20127 30150 40127 56010 71021 84336 91150 333 82920 83625 84360 85270;EQDQ01  00002PRCP99
0230407340999992000041618004+36500+051580FM-12-002099999V0202401N00301220001CN0070001N1+01381+01281101441ADDAA106002091AY181061AY221061GA1031+009009069GF105991031051008001001081GJ101809MA1999999101671MD1110201+9999MW1101REMSYN106AAXX  16181 40734 11557 52403 10138 20128 30167 40144 51020 60021 71082 83508 91750 333 55030 83630 85267;
0183407340999992000041700004+36500+051580FM-12-002099999V0202401N002012200019N0100001N1+01221+01061101571ADDAA199000091GA1001+999999999GF100991001001999999001001MA1999999101801MD1110041+9999REMSYN070AAXX  17001 40734 32960 02402 10122 20106 30180 40157 51004 92350 333;EQDQ01  00002PRCP99
0194407340999992000041706004+36500+051580FM-12-002099999V0200801N004012200019N0150001N1+01901+01171101771ADDAA124002391GA1011+060009019GF101991001001999999001011MA1999999102001MD1210071+9999REMSYN100AAXX  17061 40734 32965 10804 10190 20117 30200 40177 52007 80001 90545 333 31008 50311 70022 81070;
0211407340999992000041712004+36500+051580FM-12-002099999V0200301N003010540019N0120001N1+01741+01311101671ADDAA199000091GA1071+054009089GF107991999001999999001061MA1999999101901MD1610031+9999REMSYN082AAXX  17121 40734 32962 70303 10174 20131 30190 40167 56003 80006 91150 333 87268;EQDQ01+000002SCOTLCQ02  00002PRCP99
0225407340999992000041718004+36500+051580FM-12-002099999V0209999C000010510019N0120001N1+01501+01441101571ADDAA199000091GA1071+051009089GF107991999001999999001061GJ104689MA1999999101801MD1610021+9999REMSYN088AAXX  17181 40734 32962 70000 10150 20144 30180 40157 56002 80006 91750 333 55078 87267;EQDQ01+000002SCOTLCQ02  00002PRCP99
0211407340999992000041800004+36500+051580FM-12-002099999V0209999C000010510019N0120001N1+01361+01161101471ADDAA199000091GA1081+051009089GF108991999001999999001071MA1999999101701MD1610041+9999REMSYN082AAXX  18001 40734 32962 80000 10136 20116 30170 40147 56004 80007 92350 333 88267;EQDQ01+000002SCOTLCQ02  00002PRCP99
0213407340999992000041806004+36500+051580FM-12-002099999V0200401N003012200019N0100001N1+01621+01491101471ADDAA124000091GA1031+004509069GF103991031061004501001001MA1999999101701MD1410001+9999REMSYN100AAXX  18061 40734 32460 30403 10162 20149 30170 40147 54000 83600 90550 333 30011 50441 70000 83715;EQDQ01  00002PRCP24
0195407340999992000041812004+36500+051580FM-12-002099999V0200601N004012200019N0100001N1+01741+01351101371ADDAA199000091GA1031+060009019GF103991001001999999001011MA1999999101601MD1810091+9999REMSYN082AAXX  18121 40734 32960 30604 10174 20135 30160 40137 58009 80001 91150 333 83070;EQDQ01  00002PRCP99
0247407340999992000041906004+36500+051580FM-12-002099999V0203101N003010030019N0010001N1+01501+01441101331ADDAA124000091AY141061AY221061GA1051+003009079GF108991051061004501021999MA1999999101561MD1010031+9999MW1101REMSYN112AAXX  19061 40734 31410 83103 10150 20144 30156 40133 50003 71042 8562/ 90550 333 30010 50351 70000 85710 88457;EQDQ01  00002PRCP24
0229407340999992000041912004+36500+051580FM-12-002099999V0200501N004012200019N0100001N1+01881+01411101171ADDAA199000091AY111061AY211061GA1011+009009089GF103991011011008001001011MA1999999101401MD1710161+9999MW1031REMSYN094AAXX  19121 40734 31560 30504 10188 20141 30140 40117 57016 70311 81101 91150 333 81830 83070;EQDQ01  00002PRCP99
0209407340999992000041918004+36500+051580FM-12-002099999V0201301N003012200019N0100001N1+01621+01401100941ADDAA199000091GA1031+060009019GF103991001001999999001021GJ103429MA1999999101171MD1710111+9999REMSYN088AAXX  19181 40734 32960 31303 10162 20140 30117 40094 57011 80002 91745 333 55057 83070;EQDQ01  00002PRCP99
0211407340999992000042000004+36500+051580FM-12-002099999V0209999C000010570019N0100001N1+01501+01401100771ADDAA199000091GA1061+057009089GF106991999001999999001061MA1999999101001MD1510051+9999REMSYN082AAXX  20001 40734 32960 60000 10150 20140 30100 40077 55005 80006 92350 333 86269;EQDQ01+000002SCOTLCQ02  00002PRCP99
0213407340999992000042006004+36500+051580FM-12-002099999V0200301N003010600019N0100001N1+01901+01581100801ADDAA124000091GA1051+060009019GF105991001001999999001021MA1999999101031MD1110071+9999REMSYN100AAXX  20061 40734 32960 50303 10190 20158 30103 40080 51007 80002 90550 333 30012 50351 70000 85070;EQDQ01  00002PRCP24
0215407340999992000042018004+36500+051580FM-12-002099999V0202701N01001036001CN0100001N1+01861+01651100771ADDAA199000091GA1011+012009099GF107991011031012501031001GJ106009MA1999999101001MD1310201+9999REMSYN094AAXX  20181 40734 32660 72710 10186 20165 30100 40077 53020 81330 91750 333 55100 81940 87269;EQDQ01  00002PRCP99
0241407340999992000042106004+36500+051580FM-12-002099999V0202401N003010300019N0100001N1+02321+01851100571ADDAA124000091GA1011+009009099GA2041+030009039GF107991011031008001071061MA1999999100801MD1310101+9999REMSYN112AAXX  21061 40734 32560 72403 10232 20185 30080 40057 53010 81376 90545 333 30016 50351 70000 81930 84360 87268;EQDQ01  00002PRCP24
0230407340999992000042118004+36500+051580FM-12-002099999V0201001N002012200019N0100001N1+01921+01541100611ADDAA106003091AY181061AY221061GA1011+009009089GF103991011011008001031001GJ100909MA1999999100841MD1510061+9999MW1011REMSYN106AAXX  21181 40734 11560 31002 10192 20154 30084 40061 55006 60031 70182 81130 91745 333 55015 81830 83360;
0183407340999992000042200004+36500+051580FM-12-002099999V0209999C000012200019N0100001N1+01601+01381100571ADDAA199000091GA1001+999999999GF100991001001999999001001MA1999999100801MD1310051+9999REMSYN070AAXX  22001 40734 32960 00000 10160 20138 30080 40057 53005 92345 333;EQDQ01  00002PRCP99
0182407340999992000042206004+36500+051580FM-12-002099999V0202801N005012200019N0100001N1+02361+01491100871ADDAA124002891GA1001+999999999GF100991001001999999001001MA1999999101101MD1210151+9999REMSYN088AAXX  22061 40734 32960 02805 10236 20149 30110 40087 52015 90545 333 30013 50461 70028;
0189407340999992000042218004+36500+051580FM-12-002099999V0209999C000012200019N0100001N1+01801+01591100871ADDAA199000091GA1001+999999999GF100991001001999999001001MA1999999101101MD1110081+9999REMSYN076AAXX  22181 40734 32960 00000 10180 20159 30110 40087 51008 91750 333 55105;EQDQ01  00002PRCP99
0183407340999992000042300004+36500+051580FM-12-002099999V0202401N003012200019N0100001N1+01641+01391100871ADDAA199000091GA1001+999999999GF100991001001999999001001MA1999999101101MD1310021+9999REMSYN070AAXX  23001 40734 32960 02403 10164 20139 30110 40087 53002 92345 333;EQDQ01  00002PRCP99
0201407340999992000042306004+36500+051580FM-12-002099999V0200401N003012200019N0100001N1+02121+01621101071ADDAA124000091GA1001+999999999GF100991001001999999001001MA1999999101301MD1210121+9999REMSYN088AAXX  23061 40734 32960 00403 10212 20162 30130 40107 52012 90550 333 30013 50531 70000;EQDQ01  00002PRCP24
0195407340999992000042312004+36500+051580FM-12-002099999V0200601N004012200019N0100001N1+02321+01471101141ADDAA199000091GA1021+006009029GF102991021011008001001001MA1999999101371MD1810091+9999REMSYN082AAXX  23121 40734 32560 20604 10232 20147 30137 40114 58009 82100 91150 333 82820;EQDQ01  00002PRCP99
0189407340999992000042318004+36500+051580FM-12-002099999V0200601N002012200019N0100001N1+01841+01311101141ADDAA199000091GA1001+999999999GF100991001001999999001001MA1999999101271MD1610031+9999REMSYN076AAXX  23181 40734 32960 00602 10184 20131 30127 40114 56003 91745 333 55110;EQDQ01  00002PRCP99
0201407340999992000042406004+36500+051580FM-12-002099999V0202901N007012200019N0100001N1+02161+01531101151ADDAA124000091GA1001+999999999GF100991001001999999001001MA1999999101381MD1110081+9999REMSYN088AAXX  24061 40734 32960 02907 10216 20153 30138 40115 51008 90550 333 30013 50531 70000;EQDQ01  00002PRCP24
0183407340999992000042500004+36500+051580FM-12-002099999V0202301N002012200019N0100001N1+01561+01461101281ADDAA199000091GA1001+999999999GF100991001001999999001001MA1999999101511MD1610041+9999REMSYN070AAXX  25001 40734 32960 02302 10156 20146 30151 40128 56004 92345 333;EQDQ01  00002PRCP99
0191407340999992000042606004+36500+051580FM-12-002099999V0203301N003012200019N0100001N1+01901+01521101571ADDAA124000091GF101991011021008001001001MA1999999101801MD1210101+9999REMSYN094AAXX  26061 40734 32560 13303 10190 20152 30180 40157 52010 81200 90550 333 30011 50441 70000;EQDQ01  00002PRCP24
0201407340999992000042612004+36500+051580FM-12-002099999V0200601N00301036001CN0100001N1+01921+01701101571ADDAA199000091GA1011+006009089GF106991011011008001071001MA1999999101801MD1810041+9999REMSYN088AAXX  26121 40734 32560 60603 10192 20170 30180 40157 58004 81170 91145 333 81820 86360;EQDQ01  00002PRCP99
0189407340999992000042618004+36500+051580FM-12-002099999V0201801N002012200019N0100001N1+01701+01601101671ADDAA199000091GA1001+999999999GF100991001001999999001001MA1999999101901MD1110071+9999REMSYN076AAXX  26181 40734 32960 01802 10170 20160 30190 40167 51007 91745 333 55075;EQDQ01  00002PRCP99
0183407340999992000042700004+36500+051580FM-12-002099999V0209999C000012200019N0100001N1+01381+01321101581ADDAA199000091GA1001+999999999GF100991001001999999001001MA1999999101811MD1710091+9999REMSYN070AAXX  27001 40734 32960 00000 10138 20132 30181 40158 57009 92345 333;EQDQ01  00002PRCP99
0191407340999992000042706004+36500+051580FM-12-002099999V0200601N003012200019N0120001N1+01901+01631101771ADDAA124000091GF101991011011008001001001MA1999999102001MD1310111+9999REMSYN094AAXX  27061 40734 32562 10603 10190 20163 30200 40177 53011 81100 90550 333 30011 50271 70000;EQDQ01  00002PRCP24
0173407340999992000042712004+36500+051580FM-12-002099999V0200801N004012200019N0120001N1+02361+01721101711ADDAA199000091GF101991011011008001001001MA1999999101941MD1810041+9999REMSYN076AAXX  27121 40734 32562 10804 10236 20172 30194 40171 58004 81100 91150 333;EQDQ01  00002PRCP99
0223407340999992000042912004+36500+051580FM-12-002099999V0200401N00201012001CN0100001N1+02001+01851100771ADDAA199000091GA1021+010509099GA2031+012009069GF105991031031012501071001MA1999999101001MD1510101+9999REMSYN094AAXX  29121 40734 32660 50402 10200 20185 30100 40077 55010 83370 91145 333 82935 83640 85360;EQDQ01  00002PRCP99
0215407340999992000042918004+36500+051580FM-12-002099999V0202801N004012200019N0100001N1+01881+01711100701ADDAA199000091GA1011+007509099GF102991021031008001001001GJ104749MA1999999100931MD1310131+9999REMSYN094AAXX  29181 40734 32560 22804 10188 20171 30093 40070 53013 82300 91745 333 55079 81925 82630;EQDQ01  00002PRCP99
0195407340999992000043000004+36500+051580FM-12-002099999V0202401N003012200019N0100001N1+01761+01661100801ADDAA199000091GA1031+030009079GF103991031001999999031001MA1999999101031MD1810031+9999REMSYN082AAXX  30001 40734 32960 32403 10176 20166 30103 40080 58003 83030 92345 333 83360;EQDQ01  00002PRCP99
0201407340999992000043006004+36500+051580FM-12-002099999V0200401N004012200019N0100001N1+02201+01711100881ADDAA124000091GA1001+999999999GF100991001001999999001001MA1999999101101MD1510001+9999REMSYN088AAXX  30061 40734 32960 00404 10220 20171 30110 40088 55000 90550 333 30016 50441 70000;EQDQ01  00002PRCP24
0211407340999992000043012004+36500+051580FM-12-002099999V0200301N003010510019N0100001N1+02201+01781100571ADDAA199000091GA1061+051009089GF106991999001999999001071MA1999999100801MD1810101+9999REMSYN082AAXX  30121 40734 32960 60303 10220 20178 30080 40057 58010 80007 91150 333 86267;EQDQ01+000002SCOTLCQ02  00002PRCP99
0215407340999992000043018004+36500+051580FM-12-002099999V0201501N002012200019N0100001N1+02021+01801100801ADDAA199000091GA1031+009009069GF104991031041008001071001GJ104809MA1999999101031MD1110031+9999REMSYN094AAXX  30181 40734 32560 41502 10202 20180 30103 40080 51003 83470 91750 333 55080 83630 87267;EQDQ01  00002PRCP99
0201407340999992000050100004+36500+051580FM-12-002099999V0202501N003012200019N0100001N1+01901+01771101051ADDAA199000091GA1031+009009069GF104991031041008001031001MA1999999101281MD1110281+9999REMSYN088AAXX  01001 40734 32560 42503 10190 20177 30128 40105 51028 83430 92350 333 83630 84360;EQDQ01  00002PRCP99
0256407340999992000050106004+36500+051580FM-12-002099999V0203001N00201036001CN0080001N1+01781+01711101351ADDAA106002091AY181061AY221061GA1031+006009079GA2011+009009099GF108991041031008001021999MA1999999101581MD1210121+9999MW1251REMSYN124AAXX  01061 40734 11558 83002 10178 20171 30158 40135 52012 60021 72582 8432/ 90250 333 31017 50441 70022 83720 81930 88460;
0204407340999992000050112004+36500+051580FM-12-002099999V0200201N00301036001CN0100001N1+01981+01791101281ADDAA199000021GA1011+007509099GA2011+009009069GF108991021031008001021999MA1999999101511MD1810061+9999REMSYN094AAXX  01121 40734 32560 80203 10198 20179 30151 40128 58006 8232/ 91145 333 81925 81630 88460;
0170407340999992000050118004+36500+051580FM-12-002099999V0201801N002012200019N0100001N1+01701+01601101281ADDAA199000021GA1001+999999999GF100991001001999999001001MA1999999101511MD1010011+9999REMSYN076AAXX  01181 40734 32960 01802 10170 20160 30151 40128 50001 91745 333 55000;
0183407340999992000050200004+36500+051580FM-12-002099999V0209999C000012200019N0100001N1+01481+01421101121ADDAA199000091GA1001+999999999GF100991001001999999001001MA1999999101351MD1610081+9999REMSYN070AAXX  02001 40734 32960 00000 10148 20142 30135 40112 56008 92350 333;EQDQ01  00002PRCP99
0182407340999992000050206004+36500+051580FM-12-002099999V0200701N005012200019N0100001N1+02021+01681101271ADDAA124002391GA1001+999999999GF100991001001999999001001MA1999999101501MD1210061+9999REMSYN088AAXX  02061 40734 32960 00705 10202 20168 30150 40127 52006 90550 333 30012 50221 70022;
0183407340999992000050212004+36500+051580FM-12-002099999V0200901N005012200019N0100001N1+02201+01831101171ADDAA199000091GA1001+999999999GF100991001001999999001001MA1999999101401MD1710101+9999REMSYN070AAXX  02121 40734 32960 00905 10220 20183 30140 40117 57010 91150 333;EQDQ01  00002PRCP99
0189407340999992000050218004+36500+051580FM-12-002099999V0201501N002012200019N0100001N1+01881+01781101111ADDAA199000091GA1001+999999999GF100991001001999999001001MA1999999101341MD1410001+9999REMSYN076AAXX  02181 40734 32960 01502 10188 20178 30134 40111 54000 91745 333 55100;EQDQ01  00002PRCP99
0183407340999992000050300004+36500+051580FM-12-002099999V0202301N002012200019N0100001N1+01601+01501100671ADDAA199000091GA1001+999999999GF100991001001999999001001MA1999999100901MD1610141+9999REMSYN070AAXX  03001 40734 32960 02302 10160 20150 30090 40067 56014 92345 333;EQDQ01  00002PRCP99
0201407340999992000050306004+36500+051580FM-12-002099999V0203101N005012200019N0100001N1+01861+01691100741ADDAA124000091GA1001+999999999GF100991001001999999001001MA1999999100971MD1310041+9999REMSYN088AAXX  03061 40734 32960 03105 10186 20169 30097 40074 53004 90550 333 30012 50531 70000;EQDQ01  00002PRCP24
0195407340999992000050312004+36500+051580FM-12-002099999V0200301N002012200019N0120001N1+02721+02191100771ADDAA199000091GA1011+009009029GF101991011011008001001001MA1999999101001MD1710091+9999REMSYN082AAXX  03121 40734 32562 10302 10272 20219 30100 40077 57009 81100 91150 333 81830;EQDQ01  00002PRCP99
0209407340999992000050318004+36500+051580FM-12-002099999V0202701N002012200019N0100001N1+02141+01821100571ADDAA199000091GA1021+057009019GF102991001001999999001021GJ107029MA1999999100801MD1110021+9999REMSYN088AAXX  03181 40734 32960 22702 10214 20182 30080 40057 51002 80002 91750 333 55117 82069;EQDQ01  00002PRCP99
0289407340999992000050400004+36500+051580FM-12-002099999V0209999C000010045019N0040001N1+01761+01601101672ADDAA106002091AY161061AY211061GA1061+004509079GA2011+006009099GF108991061031004501021999MA1999999101902MD1210502+9999MW1531REMSYN106AAXX  04001 40734 11440 80000 10176 20160 30190 40167 52050 60021 75361 8632/ 92350 333 86715 81920 88457;EQDQ01+101903APOSP Q02+101673APOSLPQ03+000502APC3  
0234407340999992000050406004+36500+051580FM-12-002099999V0202701N005010024019N0015001N1+01541+01511102081ADDAA106006191AY161061AY251061GA1061+002409079GF108991061061002501021999MA1999999102311MD1210301+9999MW1511REMSYN118AAXX  04061 40734 11315 82705 10154 20151 30231 40208 52030 60061 75165 8662/ 90545 333 32017 50181 70080 86708 88456;
0191407340999992000050606004+36500+051580FM-12-002099999V0200901N005012200019N0120001N1+01921+01461101421ADDAA124000091GF101991011001999999031001MA1999999101651MD1710131+9999REMSYN094AAXX  06061 40734 32962 10905 10192 20146 30165 40142 57013 81030 90550 333 31010 50221 70000;EQDQ01  00002PRCP24
0195407340999992000050612004+36500+051580FM-12-002099999V0200901N005012200019N0120001N1+01941+01601101081ADDAA199000091GA1031+054009019GF103991011011008001001021MA1999999101311MD1810181+9999REMSYN082AAXX  06121 40734 32562 30905 10194 20160 30131 40108 58018 81102 91150 333 83068;EQDQ01  00002PRCP99
0237407340999992000050618004+36500+051580FM-12-002099999V0209999C00001007501CN0100001N1+01861+01691101401ADDAA199000091GA1021+006009099GA2031+007509069GF108991031031008001021999GJ106129MA1999999101631MD1210331+9999REMSYN100AAXX  06181 40734 32560 80000 10186 20169 30163 40140 52033 8332/ 91750 333 55102 82920 83625 88459;EQDQ01  00002PRCP99
0223407340999992000050700004+36500+051580FM-12-002099999V0209999C00001036001CN0100001N1+01821+01721100871ADDAA199000091GA1011+006009099GA2021+007509069GF108991021031008001021999MA1999999101101MD1610181+9999REMSYN094AAXX  07001 40734 32560 80000 10182 20172 30110 40087 56018 8232/ 92350 333 81920 82625 88459;EQDQ01  00002PRCP99
0223407340999992000050712004+36500+051580FM-12-002099999V0203101N00301007501CN0100001N1+01981+01831101371ADDAA199000091GA1021+006009099GA2031+007509069GF108991041031004501021999MA1999999101601MD1110031+9999REMSYN094AAXX  07121 40734 32460 83103 10198 20183 30160 40137 51003 8432/ 91145 333 82920 83625 88457;EQDQ01  00002PRCP99
0238407340999992000050800004+36500+051580FM-12-002099999V0203101N002010021019N0020001N1+01721+01691101411ADDAA106002091AY151061AY221061GA1061+002109079GA2011+007509099GF108991061031001501021999MA1999999101641MD1510001+9999MW1511REMSYN106AAXX  08001 40734 11220 83102 10172 20169 30164 40141 55000 60021 75152 8632/ 92350 333 86707 81925 88457;
0234407340999992000050806004+36500+051580FM-12-002099999V0200201N00201036001CN0100001N1+01801+01701101311ADDAA106000391AY151061AY221061GA1031+005409079GF108991031071004501021999MA1999999101541MD1810061+9999MW1021REMSYN118AAXX  08061 40734 11460 80202 10180 20170 30154 40131 58006 69931 70252 8372/ 90545 333 31017 50151 70024 83718 88459;
0182407340999992000050812004+36500+051580FM-12-002099999V0200501N00601090001CN0100001N1+02001+01741100871ADDAA199000021GA1011+006009089GF106991021081008001001021MA1999999101101MD1710391+9999REMSYN088AAXX  08121 40734 32560 60506 10200 20174 30110 40087 57039 82802 91150 333 81820 86267;
0215407340999992000050818004+36500+051580FM-12-002099999V0209999C00001036001CN0100001N1+01861+01791100771ADDAA199000091GA1031+004509079GF108991031061004501021999GJ101809MA1999999101001MD1610011+9999REMSYN094AAXX  08181 40734 32460 80000 10186 20179 30100 40077 56001 8362/ 91745 333 55030 83715 88459;EQDQ01  00002PRCP99
0238407340999992000050900004+36500+051580FM-12-002099999V0202701N003010045019N0050001N1+01781+01751100981ADDAA106001091AY161061AY221061GA1051+004509079GA2011+006009099GF108991051031004501021999MA1999999101211MD1210111+9999MW1611REMSYN106AAXX  09001 40734 11450 82703 10178 20175 30121 40098 52011 60011 76162 8532/ 92345 333 85715 81920 88556;
0256407340999992000050906004+36500+051580FM-12-002099999V0202701N013010024019N0030001N1+01481+01421101571ADDAA106006191AY161061AY251061GA1051+002409079GA2011+007509099GF108991051031002501021999MA1999999101801MD1210391+9999MW1511REMSYN124AAXX  09061 40734 11330 82713 10148 20142 30180 40157 52039 60061 75165 8532/ 90550 333 32015 50391 70074 85708 81925 88457;
0238407340999992000050912004+36500+051580FM-12-002099999V0202901N00601036001CN0060001N1+01501+01401101981ADDAA106000391AY151061AY221061GA1031+004509079GA2011+007509099GF108991041031004501021999MA1999999102211MD1110101+9999MW1501REMSYN106AAXX  09121 40734 11456 82906 10150 20140 30221 40198 51010 69931 75052 8432/ 91150 333 83715 81925 88458;
0184407340999992000050918004+36500+051580FM-12-002099999V0209999C000010021019N0030001N1+01341+01341102041ADDAA106007991AY151061AY251061GF108991061061002501021999MA1999999102271MD1310061+9999MW1511REMSYN084AAXX  09181 40734 11330 80000 10134 20134 30227 40204 53006 60081 75155 8662/ 91150;
0234407340999992000051006004+36500+051580FM-12-002099999V0209999C000010024019N0030001N1+01621+01361102071ADDAA106003091AY151061AY251061GA1061+002409079GF108991061061002501021999MA1999999102301MD1110041+9999MW1511REMSYN118AAXX  10061 40734 11330 80000 10162 20136 30230 40207 51004 60031 75155 8662/ 90545 333 32012 50081 70193 86708 88457;
0238407340999992000051012004+36500+051580FM-12-002099999V0200601N005012200019N0100001N1+01781+01461101871ADDAA106000791AY151061AY221061GA1011+006009099GA2031+007509089GF104991031031004501071001MA1999999102101MD1810101+9999MW1011REMSYN106AAXX  10121 40734 11460 40605 10178 20146 30210 40187 58010 69901 70152 83370 91145 333 81920 83825 84358;
0196407340999992000051018004+36500+051580FM-12-002099999V0201801N00301036001CN0100001N1+01681+01481101881ADDAA199000021GA1031+009009069GF107991031041008001071001GJ102169MA1999999102111MD1310031+9999REMSYN094AAXX  10181 40734 32560 71803 10168 20148 30211 40188 53003 83470 91745 333 55036 83630 87459;
0201407340999992000051100004+36500+051580FM-12-002099999V0209999C00001036001CN0100001N1+01581+01451101881ADDAA199000091GA1031+009009069GF108991031051008001021999MA1999999102111MD1410001+9999REMSYN088AAXX  11001 40734 32560 80000 10158 20145 30211 40188 54000 8352/ 92350 333 83630 88459;EQDQ01  00002PRCP99
0200407340999992000051106004+36500+051580FM-12-002099999V0202701N00601036001CN0100001N1+01761+01481101971ADDAA124000791GA1011+006009089GF108991011011008001021999MA1999999102201MD1210051+9999REMSYN106AAXX  11061 40734 32560 82706 10176 20148 30220 40197 52005 8112/ 90550 333 31015 50531 79999 81820 88459;
0189407340999992000051118004+36500+051580FM-12-002099999V0209999C000012200019N0150001N1+01501+01441101801ADDAA199000091GA1001+999999999GF100991001001999999001001MA1999999102031MD1310031+9999REMSYN076AAXX  11181 40734 32965 00000 10150 20144 30203 40180 53003 91750 333 55030;EQDQ01  00002PRCP99
0183407340999992000051200004+36500+051580FM-12-002099999V0209999C000012200019N0150001N1+01241+01181101711ADDAA199000091GA1001+999999999GF100991001001999999001001MA1999999101941MD1610061+9999REMSYN070AAXX  12001 40734 32965 00000 10124 20118 30194 40171 56006 92345 333;EQDQ01  00002PRCP99
0191407340999992000051206004+36500+051580FM-12-002099999V0203101N004012200019N0150001N1+01901+01521101671ADDAA124000091GF101991011011008001001001MA1999999101901MD1810041+9999REMSYN094AAXX  12061 40734 32565 13104 10190 20152 30190 40167 58004 81100 90550 333 31011 50181 70000;EQDQ01  00002PRCP24
0195407340999992000051212004+36500+051580FM-12-002099999V0203501N004012200019N0120001N1+02021+01641101451ADDAA199000091GA1011+009009029GF101991011011008001031001MA1999999101681MD1710171+9999REMSYN082AAXX  12121 40734 32562 13504 10202 20164 30168 40145 57017 81130 91150 333 81830;EQDQ01  00002PRCP99
0189407340999992000051218004+36500+051580FM-12-002099999V0209999C000012200019N0120001N1+01661+01561101271ADDAA199000091GA1001+999999999GF100991001001999999001001MA1999999101501MD1610021+9999REMSYN076AAXX  12181 40734 32962 00000 10166 20156 30150 40127 56002 91745 333 55118;EQDQ01  00002PRCP99
0183407340999992000051300004+36500+051580FM-12-002099999V0201701N003012200019N0120001N1+01441+01191100911ADDAA199000091GA1001+999999999GF100991001001999999001001MA1999999101141MD1710161+9999REMSYN070AAXX  13001 40734 32962 01703 10144 20119 30114 40091 57016 92345 333;EQDQ01  00002PRCP99
0191407340999992000051306004+36500+051580FM-12-002099999V0203301N004012200019N0100001N1+02021+01641101201ADDAA124000091GF101991011011008001001001MA1999999101431MD1010081+9999REMSYN094AAXX  13061 40734 32560 13304 10202 20164 30143 40120 50008 81100 90545 333 30010 50441 70000;EQDQ01  00002PRCP24
0195407340999992000051312004+36500+051580FM-12-002099999V0203601N003012200019N0150001N1+02181+01801101111ADDAA199000091GA1011+006009029GF101991011011008001001001MA1999999101341MD1810041+9999REMSYN082AAXX  13121 40734 32565 13603 10218 20180 30134 40111 58004 81100 91145 333 81820;EQDQ01  00002PRCP99
0189407340999992000051318004+36500+051580FM-12-002099999V0201501N002012200019N0100001N1+01821+01691101051ADDAA199000091GA1001+999999999GF100991001001999999001001MA1999999101281MD1810011+9999REMSYN076AAXX  13181 40734 32960 01502 10182 20169 30128 40105 58001 91745 333 55122;EQDQ01  00002PRCP99
0183407340999992000051400004+36500+051580FM-12-002099999V0202001N002012200019N0100001N1+01481+01421101151ADDAA199000091GA1001+999999999GF100991001001999999001001MA1999999101381MD1310081+9999REMSYN070AAXX  14001 40734 32960 02002 10148 20142 30138 40115 53008 92350 333;EQDQ01  00002PRCP99
0213407340999992000051406004+36500+051580FM-12-002099999V0202901N011012200019N0100001N1+02161+01781101771ADDAA124000091GA1011+007509029GF101991011021008001001001MA1999999102001MD1210221+9999REMSYN100AAXX  14061 40734 32560 12911 10216 20178 30200 40177 52022 81200 90550 333 30012 50441 70000 81825;EQDQ01  00002PRCP24
0238407340999992000051412004+36500+051580FM-12-002099999V0202601N00401036001CN0080001N1+01781+01651101771ADDAA106000791AY151061AY221061GA1011+006009089GA2031+007509069GF108991031081008001021999MA1999999102001MD1810101+9999MW1201REMSYN106AAXX  14121 40734 11558 82604 10178 20165 30200 40177 58010 69901 72052 8382/ 91145 333 81820 83625 88459;
0230407340999992000051418004+36500+051580FM-12-002099999V0202701N003010024019N0050001N1+01601+01541101641ADDAA106000591AY151061AY221061GA1051+002409079GF108991051061002501021999GJ102409MA1999999101871MD1410001+9999MW1101REMSYN106AAXX  14181 40734 11350 82703 10160 20154 30187 40164 54000 69941 71052 8562/ 91745 333 55040 85708 88457;
0216407340999992000051500004+36500+051580FM-12-002099999V0202701N005010021019N0030001N1+01501+01441101541ADDAA106002091AY151061AY251061GA1061+002109079GF108991061061002501021999MA1999999101771MD1610031+9999MW1511REMSYN100AAXX  15001 40734 11330 82705 10150 20144 30177 40154 56003 60021 75155 8662/ 92350 333 86707 88457;
0222407340999992000051506004+36500+051580FM-12-002099999V0202701N00601036001CN0100001N1+01581+01331101671ADDAA124002891GA1011+006009079GA2031+009009069GF108991041071008001021999MA1999999101901MD1110071+9999REMSYN112AAXX  15061 40734 32560 82706 10158 20133 30190 40167 51007 8472/ 90545 333 31012 50371 70028 81720 83630 88458;
0204407340999992000051512004+36500+051580FM-12-002099999V0203101N00501036001CN0120001N1+01801+01451101561ADDAA199000021GA1011+007509099GA2031+009009069GF107991031031008001071001MA1999999101791MD1810051+9999REMSYN094AAXX  15121 40734 32562 73105 10180 20145 30179 40156 58005 83370 91145 333 81925 83630 87459;
0215407340999992000051518004+36500+051580FM-12-002099999V0202501N00401036001CN0100001N1+01661+01431101781ADDAA199000091GA1031+009009069GF108991031051008001021999GJ100009MA1999999102011MD1210231+9999REMSYN094AAXX  15181 40734 32560 82504 10166 20143 30201 40178 52023 8352/ 91750 333 55000 83630 88459;EQDQ01  00002PRCP99
0223407340999992000051612004+36500+051580FM-12-002099999V0203401N00201036001CN0100001N1+01861+01481101481ADDAA199000091GA1011+006009099GA2031+007509069GF106991031031008001071001MA1999999101711MD1610041+9999REMSYN094AAXX  16121 40734 32560 63402 10186 20148 30171 40148 56004 83370 91150 333 81920 83625 86360;EQDQ01  00002PRCP99
0237407340999992000051618004+36500+051580FM-12-002099999V0202101N00301036001CN0100001N1+01621+01461101671ADDAA199000091GA1011+007509099GA2031+009009069GF107991031031008001071001GJ100009MA1999999101901MD1210131+9999REMSYN100AAXX  16181 40734 32560 72103 10162 20146 30190 40167 52013 83370 91745 333 55000 81925 83630 87359;EQDQ01  00002PRCP99
0238407340999992000051700004+36500+051580FM-12-002099999V0202101N00401036001CN0080001N1+01481+01421101521ADDAA106002091AY161061AY221061GA1011+006009099GA2031+007509069GF108991041031008001021999MA1999999101751MD1710091+9999MW1211REMSYN106AAXX  17001 40734 11558 82104 10148 20142 30175 40152 57009 60021 72162 8432/ 92350 333 81920 83625 88457;
0200407340999992000051706004+36500+051580FM-12-002099999V0209999C00001036001CN0100001N1+01821+01471101431ADDAA124002091GA1031+006009079GF107991031071008001071001MA1999999101661MD1610041+9999REMSYN106AAXX  17061 40734 32560 70000 10182 20147 30166 40143 56004 83770 90545 333 32014 50011 70020 83720 87458;
0182407340999992000051712004+36500+051580FM-12-002099999V0200601N005012200019N0100001N1+01981+01501101131ADDAA199000021GA1021+006009079GF104991021071008001071001MA1999999101361MD1810141+9999REMSYN088AAXX  17121 40734 32560 40605 10198 20150 30136 40113 58014 82770 91145 333 82720 84360;
0215407340999992000051718004+36500+051580FM-12-002099999V0202201N002010060019N0100001N1+01781+01651101321ADDAA199000091GA1061+006009079GF106991041061008001021001GJ101689MA1999999101551MD1210191+9999REMSYN094AAXX  17181 40734 32560 62202 10178 20165 30155 40132 52019 84620 91745 333 55028 86720 86459;EQDQ01  00002PRCP99
0216407340999992000051800004+36500+051580FM-12-002099999V0201501N002010030019N0060001N1+01621+01521101481ADDAA106000891AY151061AY221061GA1061+003009079GF108991061061004501021999MA1999999101711MD1110031+9999MW1501REMSYN100AAXX  18001 40734 11456 81502 10162 20152 30171 40148 51003 69981 75052 8662/ 92350 333 86710 88457;
0200407340999992000051806004+36500+051580FM-12-002099999V0200601N00301036001CN0100001N1+01861+01521101371ADDAA124000891GA1021+009009069GF107991021041008001071001MA1999999101601MD1710111+9999REMSYN106AAXX  18061 40734 32560 70603 10186 20152 30160 40137 57011 82470 90550 333 31014 50351 70008 82630 87360;
0237407340999992000051818004+36500+051580FM-12-002099999V0202101N00501036001CN0100001N1+01821+01701101071ADDAA199000091GA1011+007509099GA2031+009009069GF108991031031008001021999GJ101329MA1999999101301MD1210171+9999REMSYN100AAXX  18181 40734 32560 82105 10182 20170 30130 40107 52017 8332/ 91750 333 55022 81925 83630 88459;EQDQ01  00002PRCP99
0223407340999992000051900004+36500+051580FM-12-002099999V0209999C00001036001CN0100001N1+01741+01641101031ADDAA199000091GA1011+007509099GA2031+009009069GF108991031031008001021999MA1999999101261MD1810041+9999REMSYN094AAXX  19001 40734 32560 80000 10174 20164 30126 40103 58004 8332/ 92350 333 81925 83630 88459;EQDQ01  00002PRCP99
0241407340999992000051906004+36500+051580FM-12-002099999V0203201N00201007501CN0100001N1+01921+01701101071ADDAA124000091GA1021+006009099GA2031+007509069GF108991041031008001071999MA1999999101301MD1510001+9999REMSYN112AAXX  19061 40734 32560 83202 10192 20170 30130 40107 55000 8437/ 90550 333 30017 50441 70000 82920 83625 88457;EQDQ01  00002PRCP24
0216407340999992000051912004+36500+051580FM-12-002099999V0200601N00501036001CN0100001N1+01961+01701100901ADDAA106000591AY151061AY221061GA1031+003009079GF107991031071004501071001MA1999999101131MD1710221+9999MW1011REMSYN100AAXX  19121 40734 11460 70605 10196 20170 30113 40090 57022 69961 70152 83770 91145 333 83710 88358;
0237407340999992000051918004+36500+051580FM-12-002099999V0202701N00401036001CN0100001N1+01841+01711100871ADDAA199000091GA1011+007509099GA2021+009009069GF108991031031008001021999GJ100669MA1999999101101MD1110031+9999REMSYN100AAXX  19181 40734 32560 82704 10184 20171 30110 40087 51003 8332/ 91745 333 55011 81925 82630 88459;EQDQ01  00002PRCP99
0238407340999992000052000004+36500+051580FM-12-002099999V0202601N004010075019N0060001N1+01701+01671100981ADDAA106004191AY181061AY251061GA1041+004509079GA2011+007509099GF108991051031004501021999MA1999999101211MD1310061+9999MW1501REMSYN106AAXX  20001 40734 11456 82604 10170 20167 30121 40098 53006 60041 75085 8532/ 92345 333 84715 81925 88458;
0228407340999992000052006004+36500+051580FM-12-002099999V0202801N005010360019N0080001N1+01601+01541101171ADDAA106000891AY181061AY251061GA1031+004509069GF108991031071004501021999MA1999999101411MD1310101+9999MW1201REMSYN112AAXX  20061 40734 11458 82805 10160 20154 30141 40117 53010 69971 72085 8372/ 90550 333 31015 50261 70057 83715;
0223407340999992000052100004+36500+051580FM-12-002099999V0209999C00001007501CN0100001N1+01681+01581101671ADDAA199000091GA1021+006009099GA2031+007509069GF108991041031008001021999MA1999999101901MD1410001+9999REMSYN094AAXX  21001 40734 32560 80000 10168 20158 30190 40167 54000 8432/ 92345 333 82920 83625 88458;EQDQ01  00002PRCP99
0216407340999992000052106004+36500+051580FM-12-002099999V0200501N00301036001CN0100001N1+01921+01711101651ADDAA124000391GA1011+007509099GA2031+009009069GF108991031031008001021999MA1999999101881MD1410001+9999REMSYN106AAXX  21061 40734 32560 80503 10192 20171 30188 40165 54000 8332/ 90545 333 30016 70002 81925 83630 88458;
0201407340999992000052112004+36500+051580FM-12-002099999V0200601N00401090001CN0100001N1+02061+01741101511ADDAA199000091GA1021+007509089GF107991021021008001001061MA1999999101741MD1710091+9999REMSYN088AAXX  21121 40734 32560 70604 10206 20174 30174 40151 57009 82206 91145 333 82825 87270;EQDQ01  00002PRCP99
0189407340999992000052218004+36500+051580FM-12-002099999V0201201N002012200019N0100001N1+01921+01751101551ADDAA199000091GA1001+999999999GF100991001001999999001001MA1999999101781MD1310041+9999REMSYN076AAXX  22181 40734 32960 01202 10192 20175 30178 40155 53004 91745 333 55107;EQDQ01  00002PRCP99
0201407340999992000052300004+36500+051580FM-12-002099999V0203301N005012200019N9999999N1+02441+01751101101ADDAA199000091GA1021+009009029GF103991021021008001031001MA1999999101331MD1810111+9999REMSYN088AAXX  24121 40734 3256/ 33305 10244 20175 30133 40110 58011 82230 91150 333 82830 83360;EQDQ01  00002PRCP99
0237407340999992000052318004+36500+051580FM-12-002099999V0201201N00201036001CN9999999N1+02141+01781101001ADDAA199000091GA1011+010509099GA2021+012009069GF106991021031012501071001GJ105409MA1999999101231MD1810021+9999REMSYN100AAXX  23181 40734 3560/ 61202 10214 20178 30123 40100 58002 82370 91745 333 55090 81935 82640 86359;EQDQ01  00002PRCP99
0223407340999992000052400004+36500+051580FM-12-002099999V0209999C00001036001CN0100001N1+01941+01841101071ADDAA199000091GA1011+010509099GA2021+012009069GF107991021031012501071001MA1999999101301MD1510101+9999REMSYN094AAXX  24001 40734 32660 70000 10194 20184 30130 40107 55010 82370 92345 333 81935 82640 87360;EQDQ01  00002PRCP99
0129407340999992000052406004+36500+051580FM-12-002099999V0203001N006019999999N0100001N1+02341+99999999999ADDAA124000791GA1031+027009079GF105991999999008001999999REMSYN064AAXX  24061 40734 32560 53006 10234 333 30019 50571 79999 83359;
0189407340999992000052418004+36500+051580FM-12-002099999V0202101N003012200019N0100001N1+02001+01801101081ADDAA199000091GA1001+999999999GF100991001001999999001001MA1999999101311MD1310061+9999REMSYN076AAXX  24181 40734 32960 02103 1020/ 20180 30131 40108 53006 91745 333 55086;EQDQ01  00002PRCP99
0183407340999992000052500004+36500+051580FM-12-002099999V0202501N002012200019N0100001N1+01801+01561101051ADDAA199000091GA1001+999999999GF100991001001999999001001MA1999999101281MD1410001+9999REMSYN070AAXX  25001 40734 32960 02502 10180 20156 30128 40105 54000 92345 333;EQDQ01  00002PRCP99
0120407340999992000052506004+36500+051580FM-12-002099999V0203001N005012200019N0120001N1+02421+99999999999ADDAA199000091GA1001+999999999GF100991001001999999001001REMSYN036AAXX  25061 40734 32962 03005 10242;EQDQ01  00002PRCP99
0183407340999992000052512004+36500+051580FM-12-002099999V0200301N003012200019N0120001N1+02381+01881100871ADDAA199000091GA1001+999999999GF100991001001999999001001MA1999999101101MD1810081+9999REMSYN070AAXX  25121 40734 32962 00303 10238 20188 30110 40087 58008 91145 333;EQDQ01  00002PRCP99
0183407340999992000052600004+36500+051580FM-12-002099999V0202101N003012200019N0100001N1+01681+01521100621ADDAA199000091GA1001+999999999GF100991001001999999001001MA1999999100851MD1310021+9999REMSYN070AAXX  26001 40734 32960 02103 10168 20152 30085 40062 53002 92350 333;EQDQ01  00002PRCP99
0201407340999992000052606004+36500+051580FM-12-002099999V0202901N003012200019N0100001N1+02521+01861100671ADDAA124000091GA1001+999999999GF100991001001999999001001MA1999999100901MD1110021+9999REMSYN088AAXX  26061 40734 32960 02903 10252 20186 30090 40067 51002 90545 333 30014 50531 70000;EQDQ01  00002PRCP24
0183407340999992000052612004+36500+051580FM-12-002099999V0203601N003012200019N0100001N1+02851+01361100401ADDAA199000091GA1001+999999999GF100991001001999999001001MA1999999100631MD1710171+9999REMSYN070AAXX  26121 40734 32960 03603 10285 20136 30063 40040 57017 91145 333;EQDQ01  00002PRCP99
0110407340999992000052618004+36500+051580FM-12-002099999V0209999C000012200019N0100001N1+01981+01661999999ADDAA199000091GF101991999999008001999999REMSYN042AAXX  26181 40734 32560 10000 10198 20166;EQDQ01  00002PRCP99
0195407340999992000052700004+36500+051580FM-12-002099999V0209999C000012200019N9999999N1+01941+01601100421ADDAA199000091GA1011+009009059GF101991011041008001001001MA1999999100651MD1210051+9999REMSYN082AAXX  27001 40734 325// 10000 10194 20160 30065 40042 52005 81400 92345 333 81630;EQDQ01  00002PRCP99
0201407340999992000052812004+36500+051580FM-12-002099999V0200301N00501036001CN0120001N1+02401+01791101371ADDAA199000091GA1011+007509089GF107991021081008001071001MA1999999101601MD1110021+9999REMSYN088AAXX  28121 40734 32562 70305 10240 20179 30160 40137 51002 82870 91150 333 81825 87360;EQDQ01  00002PRCP99
0209407340999992000052818004+36500+051580FM-12-002099999V0202101N00101036001CN0100001N1+02161+01901999999ADDAA199000091GA1021+007509089GF107991021021008001071001GJ104929MA1999999101761MD1210131+9999REMSYN088AAXX  28181 40734 32560 72101 10216 20190 30176 52013 82270 91745 333 55082 82825 87359;EQDQ01  00002PRCP99
0183407340999992000052900004+36500+051580FM-12-002099999V0202101N002012200019N0100001N1+01801+99999101471ADDAA199000091GA1001+999999999GF100991001001999999001001MA1999999101701MD1510021+9999REMSYN070AAXX  29001 40734 32960 02102 10180 20659 30170 40147 55002 92345 333;EQDQ01  00002PRCP99
0191407340999992000052906004+36500+051580FM-12-002099999V0200801N008012200019N0120001N1+02601+01631101441ADDAA124000091GF101991011011008001001001MA1999999101671MD1810031+9999REMSYN094AAXX  29061 40734 32562 10808 10260 20163 30167 40144 58003 81100 90545 333 30014 50621 70000;EQDQ01  00002PRCP24
0173407340999992000052912004+36500+051580FM-12-002099999V0200601N004012200019N0120001N1+02621+01611101221ADDAA199000091GF101991011011008001001001MA1999999101451MD1610131+9999REMSYN076AAXX  29121 40734 32562 10604 10262 20161 30145 40122 56013 81100 91145 333;EQDQ01  00002PRCP99
0209407340999992000052918004+36500+051580FM-12-002099999V0201801N002012200019N0100001N1+02141+01921101161ADDAA199000091GA1011+009009059GF101991011041008001001001GJ107329MA1999999101391MD1310031+9999REMSYN088AAXX  29181 40734 32560 11802 10214 20192 30139 40116 53003 81400 91745 333 55122 81630;EQDQ01  00002PRCP99
0183407340999992000053000004+36500+051580FM-12-002099999V0209999C000012200019N0100001N1+01761+01631101011ADDAA199000091GA1001+999999999GF100991001001999999001001MA1999999101241MD1810061+9999REMSYN070AAXX  30001 40734 32960 00000 10176 20163 30124 40101 58006 92345 333;EQDQ01  00002PRCP99
0201407340999992000053006004+36500+051580FM-12-002099999V0209999C000012200019N0100001N1+02441+01791101071ADDAA124000091GA1001+999999999GF100991001001999999001001MA1999999101301MD1410001+9999REMSYN088AAXX  30061 40734 32960 00000 10244 20179 30130 40107 54000 90550 333 30014 50701 70000;EQDQ01  00002PRCP24
