0146422710999992000020109004+27380+080170FM-12+014299999V02099999999999999999N0020001N1+01201-00101103351ADDAA199000091GF106991999999999999999999MD1210191+9999REMSYN064AAXX  01094 42271 32/20 60/12 1012/ 21010 40335 52019 333 8/497;EQDQ01  00002PRCP99
0152422710999992000032412004+27380+080170FM-12+014299999V0200601N003612200019N0200001N1+01851-00371102461ADDAA199000091GA1001+999999999GF100991001001999999001001MD1810101+9999REMSYN054AAXX  24124 42271 32970 00607 10185 21037 40246 58010;EQDQ01  00002PRCP99
