0218442770999992000010100004+46400+096250FM-12+214799999V0202701N005012200019N9999999N1-02241-02291103491ADDAA112000791GA1001+999999999GF100991001001999999001001KA1120N+99999MA1999999077831MD1210101+9999REMSYN092AAXX  01001 44277 329// 02705 11224 21229 37783 40349 52010 69902 333 21214 55/// 555 31260;EQDQ01 -02142ATMN  
0173442770999992000010103004+46400+096250FM-12+214799999V0202701N004012200019N0500001N1-02031-02031103381ADDAA106000091GA1001+999999999GF100991001001999999001001MA1999999077901MD1210081+9999REMSYN060AAXX  01031 44277 32999 02704 11203 21203 37790 40338 52008;EQDQ01  00002PRCP06
0163442770999992000010106004+46400+096250FM-12+214799999V0202701N004019999999N0500001N1-01741-01931102951ADDAA106000091GF106991001001999999001081MA1999999077821MD1810081+9999REMSYN066AAXX  01061 44277 32999 62704 11174 21193 37782 40295 58008 83008;EQDQ01  00002PRCP06
0186442770999992000010112004+46400+096250FM-12+214799999V0209999C000010120019N9999999N1-02051-02171102721ADDAA106000091GF108991051051012501051999KA1999M-01601MA1999999077361MD1710311+9999REMSYN076AAXX  01121 44277 326// 80000 11205 21217 37736 40272 57031 8555/ 333 11160;EQDQ01  00002PRCP06
0163442770999992000010115004+46400+096250FM-12+214799999V0202701N006010075019N9999999N1-01361-01711101681ADDAA106000091GF108991061051008001051999MA1999999077131MD1710231+9999REMSYN066AAXX  01151 44277 325// 82706 11136 21171 37713 40168 57023 8655/;EQDQ01  00002PRCP06
0173442770999992000010118004+46400+096250FM-12+214799999V0202701N016010360019N9999999N1-01271-01541101571ADDAA106000091GF106991041051008001041001MA1999999077061MD1710071+9999REMSYN076AAXX  01181 44277 325// 62716 11127 21154 37706 40157 57007 84540 333 91216;EQDQ01  00002PRCP06
0173442770999992000010121004+46400+096250FM-12+214799999V0202701N012010360019N9999999N1-01431-01491101681ADDAA106000091GF108991041051012501051001MA1999999077081MD1310021+9999REMSYN076AAXX  01211 44277 326// 82712 11143 21149 37708 40168 53002 84550 333 91212;EQDQ01  00002PRCP06
0202442770999992000010200004+46400+096250FM-12+214799999V0202701N002010360019N9999999N1-01491-01621101781ADDAA106000091GF108991041051008001051001KA1120N-02061MA1999999077061MD1810021+9999REMSYN092AAXX  02001 44277 325// 82702 11149 21162 37706 40178 58002 84550 333 21206 55/// 555 31209;EQDQ01  00002PRCP06
0163442770999992000010203004+46400+096250FM-12+214799999V0209999C000010075019N0500001N1-01431-01491101551ADDAA106000091GF108991081051008001001001MA1999999077011MD1710051+9999REMSYN066AAXX  02031 44277 32599 80000 11143 21149 37701 40155 57005 88500;EQDQ01  00002PRCP06
0163442770999992000010206004+46400+096250FM-12+214799999V0202301N007010360019N0500001N1-01051-01331100991ADDAA106000091GF106991041051012501051041MA1999999076871MD1710141+9999REMSYN066AAXX  02061 44277 32699 62307 11105 21133 37687 40099 57014 84554;EQDQ01  00002PRCP06
0163442770999992000010209004+46400+096250FM-12+214799999V0202301N007010120019N0500001N1-01041-01241100991ADDAA106000091GF108991061051012501051001MA1999999076871MD1410001+9999REMSYN066AAXX  02091 44277 32699 82307 11104 21124 37687 40099 54000 86550;EQDQ01  00002PRCP06
0186442770999992000010212004+46400+096250FM-12+214799999V0202701N005012200019N9999999N1-01171-01301101071ADDAA106000091GF103991021051012501051999KA1999M-00891MA1999999076821MD1810051+9999REMSYN076AAXX  02121 44277 326// 32705 11117 21130 37682 40107 58005 8255/ 333 11089;EQDQ01  00002PRCP06
0163442770999992000010215004+46400+096250FM-12+214799999V0202701N007012200019N9999999N1-01411-01471101281ADDAA106000091GF102991021001999999051999MA1999999076761MD1710061+9999REMSYN066AAXX  02151 44277 329// 22707 11141 21147 37676 40128 57006 8205/;EQDQ01  00002PRCP06
0163442770999992000010218004+46400+096250FM-12+214799999V0202701N007012200019N9999999N1-01491-01551101261ADDAA106000091GF101991011001999999051999MA1999999076691MD1710071+9999REMSYN066AAXX  02181 44277 329// 12707 11149 21155 37669 40126 57007 8105/;EQDQ01  00002PRCP06
0163442770999992000010221004+46400+096250FM-12+214799999V0202701N008012200019N9999999N1-01611-01671101231ADDAA106000091GF102991011001999999051041MA1999999076641MD1710051+9999REMSYN066AAXX  02211 44277 329// 22708 11161 21167 37664 40123 57005 81054;EQDQ01  00002PRCP06
0201442770999992000010300004+46400+096250FM-12+214799999V0202701N009012200019N9999999N1-01661-01721101471ADDAA106000091GF103991021051012501001041KA1120N-01681MA1999999076661MD1310021+9999REMSYN091AAXX  03001 44277 326// 32709 11166 21172 37666 40147 53002 82504 333 21168 55/// 555 3120;EQDQ01  00002PRCP06
0163442770999992000010303004+46400+096250FM-12+214799999V0202701N007012200019N0500001N1-01501-01771101391ADDAA106000091GF102991011051012501051001MA1999999076801MD1210141+9999REMSYN066AAXX  03031 44277 32699 22707 11150 21177 37680 40139 52014 81550;EQDQ01  00002PRCP06
0163442770999992000010306004+46400+096250FM-12+214799999V0202301N007012200019N0500001N1-01461-01731101391ADDAA106000091GF101991011001999999051001MA1999999076811MD1210011+9999REMSYN066AAXX  03061 44277 32999 12307 11146 21173 37681 40139 52001 81050;EQDQ01  00002PRCP06
0163442770999992000010309004+46400+096250FM-12+214799999V0202701N007010075019N0100001N1-01421-01771101281ADDAA106000091GF107991051041008001051001MA1999999076841MD1210031+9999REMSYN066AAXX  03091 44277 32597 72707 11142 21177 37684 40128 52003 85450;EQDQ01  00002PRCP06
0186442770999992000010312004+46400+096250FM-12+214799999V0209999C000012200019N9999999N1-01791-02051101981ADDAA106000091GF103991021051012501051001KA1999M-01311MA1999999076981MD1210141+9999REMSYN076AAXX  03121 44277 326// 30000 11179 21205 37698 40198 52014 82550 333 11131;EQDQ01  00002PRCP06
0163442770999992000010315004+46400+096250FM-12+214799999V0209999C000010360019N9999999N1-02191-02251102561ADDAA106000091GF105991031051008001051001MA1999999077061MD1210061+9999REMSYN066AAXX  03151 44277 325// 50000 11219 21225 37706 40256 52006 83550;EQDQ01  00002PRCP06
0161442770999992000010318004+46400+096250FM-12+214799999V0209999C000010075019N9999999N1-02041-02041102191ADDAY171061AY221061GF106991051051008001051001MA1999999077021MD1810041+9999MW1021REMSYN072AAXX  03181 44277 415// 60000 11204 21204 37702 40219 58004 70272 85550;
0133442770999992000010321004+46400+096250FM-12+214799999V0202701N002012200019N9999999N1-02211-02271102421ADDGF102991011051008001051001MA1999999076991MD1710031+9999REMSYN066AAXX  03211 44277 425// 22702 11221 21227 37699 40242 57003 81550;
0228442770999992000010400004+46400+096250FM-12+214799999V0202301N003012200019N9999999N1-02381-02501102661ADDAA112000791AJ100009199999999GA1001+999999999GF100991001001999999001001IA1229KA1120N-02381MA1999999077001MD1310011+9999REMSYN098AAXX  04001 44277 119// 02303 11238 21250 37700 40266 53001 69902 333 21238 46000 55/// 555 31270;
0163442770999992000010403004+46400+096250FM-12+214799999V0202501N004012200019N0500001N1-02041-02161102191ADDAA106000091GF102991021051012501051001MA1999999076991MD1810011+9999REMSYN066AAXX  04031 44277 32699 22504 11204 21216 37699 40219 58001 82550;EQDQ01  00002PRCP06
0157442770999992000010406004+46400+096250FM-12+214799999V0202701N004010900019N0500001N1-02001-02191999999ADDAA106000091GF105991021051012501051041MA1999999076991MD1410001+9999REMSYN060AAXX  04061 44277 32699 52704 11200 21219 37699 54000 82554;EQDQ01  00002PRCP06
0161442770999992000010409004+46400+096250FM-12+214799999V0202701N004010360019N0100001N1-02121-02301102441ADDAY171031AY221031GF107991041051008001051001MA1999999077121MD1310131+9999MW1151REMSYN072AAXX  04091 44277 41597 72704 11212 21230 37712 40244 53013 71572 84550;
0173442770999992000010412004+46400+096250FM-12+214799999V0209999C000010360019N9999999N1-02381-02441103061ADDAA112000791GF106991031051012501051001KA1999M-01601MA1999999077321MD1210201+9999REMSYN082AAXX  04121 44277 126// 60000 11238 21244 37732 40306 52020 69902 83550 333 11160;
0163442770999992000010415004+46400+096250FM-12+214799999V0209999C000010360019N9999999N1-02441-02501103191ADDAA106000091GF106991021051012501051001MA1999999077451MD1210131+9999REMSYN066AAXX  04151 44277 326// 60000 11244 21250 37745 40319 52013 82550;EQDQ01  00002PRCP06
0163442770999992000010418004+46400+096250FM-12+214799999V0209999C000012200019N9999999N1-02731-02791103811ADDAA106000091GF102991021051012501051001MA1999999077611MD1210161+9999REMSYN066AAXX  04181 44277 326// 20000 11273 21279 37761 40381 52016 82550;EQDQ01  00002PRCP06
0163442770999992000010421004+46400+096250FM-12+214799999V0209999C000012200019N9999999N1-02821-02881104341ADDAA106000091GF104991021051012501051041MA1999999077861MD1210251+9999REMSYN066AAXX  04211 44277 326// 40000 11282 21288 37786 40434 52025 82554;EQDQ01  00002PRCP06
0247442770999992000010500004+46400+096250FM-12+214799999V0209999C000012200019N9999999N1-02941-02991999999ADDAA106000091AJ100009199999999GF103991021051012501051001IA1219KA1120N-03171MA1999999077761MD1210101+9999REMSYN098AAXX  05001 44277 326// 30000 11294 21299 37776 40132 52010 82550 333 21317 45000 55/// 555 31351;EQDQ01+101323APOSLPQ02  00002PRCP06
0163442770999992000010503004+46400+096250FM-12+214799999V0202701N007012200019N0500001N1-02761-02871104201ADDAA106000091GF102991001001999999001041MA1999999077821MD1210061+9999REMSYN066AAXX  05031 44277 32999 22707 11276 21287 37782 40420 52006 80004;EQDQ01  00002PRCP06
0163442770999992000010506004+46400+096250FM-12+214799999V0202701N005012200019N0100001N1-02651-02771103961ADDAA106000091GF103991011051008001001041MA1999999077851MD1210031+9999REMSYN066AAXX  05061 44277 32597 32705 11265 21277 37785 40396 52003 81504;EQDQ01  00002PRCP06
0163442770999992000010509004+46400+096250FM-12+214799999V0209999C000012200019N0500001N1-02691-02801104081ADDAA106000091GF102991021051012501001041MA1999999077851MD1410001+9999REMSYN066AAXX  05091 44277 32699 20000 11269 21280 37785 40408 54000 82504;EQDQ01  00002PRCP06
0166442770999992000010512004+46400+096250FM-12+214799999V0209999C000012200019N9999999N1-02961-03011104581ADDAA106000091GF102991021001999999051011KA1999M-02601MA1999999077911REMSYN070AAXX  05121 44277 329// 20000 11296 21301 37791 40458 82051 333 11260;EQDQ01  00002PRCP06
0173442770999992000010515004+46400+096250FM-12+214799999V0209999C000012200019N9999999N1-03111-03111104711ADDAA106000091GA1001+999999999GF100991001001999999001001MA1999999077911MD1410001+9999REMSYN060AAXX  05151 44277 329// 00000 11311 21311 37791 40471 54000;EQDQ01  00002PRCP06
0173442770999992000010518004+46400+096250FM-12+214799999V0209999C000012200019N9999999N1-03021-03131104581ADDAA106000091GA1001+999999999GF100991001001999999001001MA1999999077911MD1410001+9999REMSYN060AAXX  05181 44277 329// 00000 11302 21313 37791 40458 54000;EQDQ01  00002PRCP06
0173442770999992000010521004+46400+096250FM-12+214799999V0209999C000012200019N9999999N1-03051-03151104441ADDAA106000091GA1001+999999999GF100991001001999999001001MA1999999077821MD1810091+9999REMSYN060AAXX  05211 44277 329// 00000 11305 21315 37782 40444 58009;EQDQ01  00002PRCP06
0163442770999992000010603004+46400+096250FM-12+214799999V0209999C000019999999N0100001N1-02661-02771103941ADDAA106000091GF107991031001999999051031MA1999999077681MD1710031+9999REMSYN066AAXX  06031 44277 32997 70000 11266 21277 37768 40394 57003 83053;EQDQ01  00002PRCP06
0163442770999992000010606004+46400+096250FM-12+214799999V0209999C000010360019N0500001N1-02461-02671103441ADDAA106000091GF107991021051012501051041MA1999999077481MD1710201+9999REMSYN066AAXX  06061 44277 32699 70000 11246 21267 37748 40344 57020 82554;EQDQ01  00002PRCP06
0163442770999992000010609004+46400+096250FM-12+214799999V0209999C000019999999N0500001N1-02381-02631103061ADDAA106000091GF106991021001999999051041MA1999999077341MD1710141+9999REMSYN066AAXX  06091 44277 32999 60000 11238 21263 37734 40306 57014 82054;EQDQ01  00002PRCP06
0202442770999992000010612004+46400+096250FM-12+214799999V0202301N002012200019N9999999N1-01601-02711103161ADDAA106000091GF103991021001999999051041KA1999M+99999MA1999999077191MD1710151+9999REMSYN076AAXX  06121 44277 329// 32302 11160 21271 37719 40316 57015 82054 333 11217;EQDQ01  00002PRCP06Q02 -02172ATMX  
0163442770999992000010615004+46400+096250FM-12+214799999V0209999C000012200019N9999999N1-02601-02771103031ADDAA106000091GF102991011001999999051041MA1999999077071MD1710121+9999REMSYN066AAXX  06151 44277 329// 20000 11260 21277 37707 40303 57012 81054;EQDQ01  00002PRCP06
0152442770999992000010621004+46400+096250FM-12+214799999V0202701N006012200019N9999999N1-01721-01781101742ADDGF101991011001999999051001MA1999999076901MD1710071+9999REMSYN066AAXX  06211 44277 429// 12706 11172 21178 37690 40174 57007 81050;EQDQ01+101743APOSLP
0218442770999992000010700004+46400+096250FM-12+214799999V0209999C000012200019N9999999N1-01901-01961101951ADDAA112000791AJ100009199999999GF101991011051012501001001IA1229KA1120N-02631MA1999999076891MD1710011+9999REMSYN104AAXX  07001 44277 126// 10000 11190 21196 37689 40195 57001 69902 81500 333 21263 46000 55/// 555 31265;
0179442770999992000010703004+46400+096250FM-12+214799999V0202701N004019999999N0500001N1-01311-01371101312ADDAA106000091GF105991031001999999051021MA1999999076891MD1410001+9999REMSYN066AAXX  07031 44277 32999 52704 11131 21137 37689 40131 54000 83052;EQDQ01+101313APOSLPQ02  00002PRCP06
0163442770999992000010709004+46400+096250FM-12+214799999V0202701N009010360019N0500001N1-00711-00921100431ADDAA106000091GF108991021051012501051001MA1999999076741MD1710101+9999REMSYN066AAXX  07091 44277 32699 82709 11071 21092 37674 40043 57010 82550;EQDQ01  00002PRCP06
0230442770999992000010712004+46400+096250FM-12+214799999V0202701N012012200019N9999999N1-00801-01071100531ADDAA106000091AY131061AY221061GA1001+999999999GF100991001001999999001001KA1120M-00571MA1999999076741MD1410001+9999MW1021REMSYN082AAXX  07121 44277 315// 02712 11080 21107 37674 40053 54000 70232 333 11057 91214;EQDQ01  00002PRCP06
0173442770999992000010715004+46400+096250FM-12+214799999V0202701N016010360019N9999999N1-00751-01051100531ADDAA106000091GF106991031051012501041001MA1999999076731MD1810011+9999REMSYN076AAXX  07151 44277 326// 62716 11075 21105 37673 40053 58001 83540 333 91216;EQDQ01  00002PRCP06
0140442770999992000010718004+46400+096250FM-12+214799999V0202701N016012200019N9999999N1+99999+99999100621ADDAA106000091GF103991011051012501041001MD1410001+9999REMSYN058AAXX  07181 44277 326// 32716 13767 40062 54000 81540 333;EQDQ01  00002PRCP06
0173442770999992000010721004+46400+096250FM-12+214799999V0202701N008012200019N9999999N1-01281-01361101201ADDAA106000091GF101991999999999999999999MA1999999076931MD1310581+9999REMSYN060AAXX  07211 44277 329// 12708 11128 21136 37693 40120 53000;EQDQ01+000002APC3  Q02  00002PRCP06
0163442770999992000010803004+46400+096250FM-12+214799999V0202701N005012200019N0500001N1-01341-01401101571ADDAA106000091GF102991001001999999001041MA1999999077111MD1210161+9999REMSYN066AAXX  08031 44277 32999 22705 11134 21140 37711 40157 52016 80004;EQDQ01  00002PRCP06
0173442770999992000010806004+46400+096250FM-12+214799999V0202701N007012200019N0500001N1-00981-01341101251ADDAA106000091GA1001+999999999GF100991001001999999001001MA1999999077121MD1210011+9999REMSYN060AAXX  08061 44277 32999 02707 11098 21134 37712 40125 52001;EQDQ01  00002PRCP06
0173442770999992000010809004+46400+096250FM-12+214799999V0202701N005012200019N0500001N1-00951-01301101381ADDAA106000091GA1001+999999999GF100991001001999999001001MA1999999077181MD1210061+9999REMSYN060AAXX  08091 44277 32999 02705 11095 21130 37718 40138 52006;EQDQ01  00002PRCP06
0212442770999992000010812004+46400+096250FM-12+214799999V0209999C000012200019N9999999N1-02172-02291102822ADDAA106000091GA1001+999999999GF100991001001999999001001KA1999M-00861MA1999999077301MD1210121+9999REMSYN070AAXX  08121 44277 329// 00000 11217 21229 37730 40282 52012 333 11086;EQDQ01+102823APOSLPQ02  00002PRCP06
0173442770999992000010815004+46400+096250FM-12+214799999V0209999C000012200019N9999999N1-01991-02591102591ADDAA106000091GA1001+999999999GF100991001001999999001001MA1999999077301MD1410001+9999REMSYN060AAXX  08151 44277 329// 00000 11199 21259 37730 40259 54000;EQDQ01  00002PRCP06
0173442770999992000010818004+46400+096250FM-12+214799999V0209999C000012200019N9999999N1-01991-02111102451ADDAA106000091GA1001+999999999GF100991001001999999001001MA1999999077211MD1810091+9999REMSYN060AAXX  08181 44277 329// 00000 11199 21211 37721 40245 58009;EQDQ01  00002PRCP06
0202442770999992000010900004+46400+096250FM-12+214799999V0209999C000010360019N9999999N1-01031-01471101381ADDAA106000091GF106991031051012501051041KA1120N-02181MA1999999077171MD1310081+9999REMSYN092AAXX  09001 44277 326// 60000 11103 21147 37717 40138 53008 83554 333 21218 55/// 555 31225;EQDQ01  00002PRCP06
0179442770999992000010903004+46400+096250FM-12+214799999V0209999V999992200019N0500001N1-00711-01091101091ADDAA106000091GF102991011051012501051041MA1999999077211MD1210041+9999REMSYN066AAXX  09031 44277 32699 29999 11071 21109 37721 40109 52004 81554;EQDQ01+009901WOSPD Q02  00002PRCP06
0163442770999992000010909004+46400+096250FM-12+214799999V0203401N001010120019N0500001N1-00671-01001101481ADDAA106000091GF108991051051012501051011MA1999999077401MD1210101+9999REMSYN066AAXX  09091 44277 32699 83401 11067 21100 37740 40148 52010 85551;EQDQ01  00002PRCP06
0186442770999992000010912004+46400+096250FM-12+214799999V0209999C000010360019N9999999N1-01011-01211101781ADDAA106000091GF107991031051012501051041KA1999M-00291MA1999999077531MD1210131+9999REMSYN076AAXX  09121 44277 326// 70000 11101 21121 37753 40178 52013 83554 333 11029;EQDQ01  00002PRCP06
0163442770999992000010915004+46400+096250FM-12+214799999V0209999C000010360019N9999999N1-01101-01301102021ADDAA106000091GF107991041051012501051041MA1999999077551MD1210021+9999REMSYN066AAXX  09151 44277 326// 70000 11110 21130 37755 40202 52002 84554;EQDQ01  00002PRCP06
0163442770999992000010918004+46400+096250FM-12+214799999V0209999C000010120019N9999999N1-01091-01291102021ADDAA106000091GF108991061051012501051999MA1999999077581MD1210031+9999REMSYN066AAXX  09181 44277 326// 80000 11109 21129 37758 40202 52003 8655/;EQDQ01  00002PRCP06
0163442770999992000010921004+46400+096250FM-12+214799999V0209999C000010120019N9999999N1-01221-01421102191ADDAA106000091GF107991051051012501051041MA1999999077641MD1210061+9999REMSYN066AAXX  09211 44277 326// 70000 11122 21142 37764 40219 52006 85554;EQDQ01  00002PRCP06
0202442770999992000011000004+46400+096250FM-12+214799999V0209999C000010360019N9999999N1-01291-01421102321ADDAA106000091GF107991021051012501051041KA1120N-01391MA1999999077661MD1210021+9999REMSYN092AAXX  10001 44277 326// 70000 11129 21142 37766 40232 52002 82554 333 21139 55/// 555 31165;EQDQ01  00002PRCP06
0191442770999992000011003004+46400+096250FM-12+214799999V0209999C000010075019N0100001N1-01031-01161102041ADDAA106000091AY121031AY221031GF107991051051008001051001MA1999999077731MD1210071+9999MW1041REMSYN072AAXX  10031 44277 31597 70000 11103 21116 37773 40204 52007 70422 85550;EQDQ01  00002PRCP06
0161442770999992000011006004+46400+096250FM-12+214799999V0200901N001010075019N0040001N1-01081-01141102151ADDAY171061AY221061GF108991061051008001071999MA1999999077721MD1810011+9999MW1701REMSYN072AAXX  10061 44277 41596 80901 11108 21114 37772 40215 58001 77072 8657/;
0201442770999992000011012004+46400+096250FM-12+214799999V0200501N001010075019N9999999N1-01551-01551102951ADDAA112000891AY171061AY271061GF108991081001008001021999KA1999M-00951MA1999999077861MD1210081+9999MW1711REMSYN088AAXX  10121 44277 115// 80501 11155 21155 37786 40295 52008 69972 77177 8802/ 333 11095;
0161442770999992000011015004+46400+096250FM-12+214799999V0209999C000012200019N9999999N1-01901-01901103271ADDAY171031AY211031GF102991021051012501051001MA1999999077891MD1210031+9999MW1021REMSYN072AAXX  10151 44277 416// 20000 11190 21190 37789 40327 52003 70271 82550;
0144442770999992000011018004+46400+096250FM-12+214799999V0209999C000012200019N9999999N1-02371-02371103861ADDAA106000021GF102991021001999999051021MA1999999077891MD1410001+9999REMSYN066AAXX  10181 44277 329// 20000 11237 21237 37789 40386 54000 82052;
0163442770999992000011021004+46400+096250FM-12+214799999V0202301N002012200019N9999999N1-02251-02251103621ADDAA106000091GF102991021001999999051001MA1999999077881MD1810011+9999REMSYN066AAXX  10211 44277 329// 22302 11225 21225 37788 40362 58001 82050;EQDQ01  00002PRCP06
0224442770999992000011100004+46400+096250FM-12+214799999V0202701N005012200019N9999999N1-02751-02751104201ADDAA112999999AJ100019199999999GF102991021001999999051001IA1239KA1120N-02811MA1999999077851MD1710031+9999REMSYN110AAXX  11001 44277 129// 22705 11275 21275 37785 40420 57003 699/2 82050 333 21281 47001 55/// 555 31303 93001;
0173442770999992000011106004+46400+096250FM-12+214799999V0209999C000012200019N0500001N1-01631-01631102822ADDAA106000091GA1001+999999999GF100991001001999999001001MA1999999077841MD1810061+9999REMSYN060AAXX  11061 44277 32999 00000 11163 21163 37784 40282 58006;EQDQ01  00002PRCP06
0173442770999992000011109004+46400+096250FM-12+214799999V0209999C000012200019N0500001N1-01781-01901103031ADDAA106000091GA1001+999999999GF100991001001999999001001MA1999999077851MD1310011+9999REMSYN060AAXX  11091 44277 32999 00000 11178 21190 37785 40303 53001;EQDQ01  00002PRCP06
0196442770999992000011112004+46400+096250FM-12+214799999V0209999C000012200019N9999999N1-02601-02651104101ADDAA106000091GA1001+999999999GF100991001001999999001001KA1999M-01421MA1999999077861MD1210011+9999REMSYN070AAXX  11121 44277 329// 00000 11260 21265 37786 40410 52001 333 11142;EQDQ01  00002PRCP06
0173442770999992000011115004+46400+096250FM-12+214799999V0209999C000012200019N9999999N1-02751-02811104201ADDAA106000091GA1001+999999999GF100991001001999999001001MA1999999077791MD1810071+9999REMSYN060AAXX  11151 44277 329// 00000 11275 21281 37779 40420 58007;EQDQ01  00002PRCP06
0173442770999992000011118004+46400+096250FM-12+214799999V0209999C000012200019N9999999N1-02701-02761103941ADDAA106000091GA1001+999999999GF100991001001999999001001MA1999999077671MD1710121+9999REMSYN060AAXX  11181 44277 329// 00000 11270 21276 37767 40394 57012;EQDQ01  00002PRCP06
0173442770999992000011121004+46400+096250FM-12+214799999V0209999C000012200019N9999999N1-01981-02041102981ADDAA106000091GA1001+999999999GF100991001001999999001001MA1999999077551MD1710121+9999REMSYN060AAXX  11211 44277 329// 00000 11198 21204 37755 40298 57012;EQDQ01  00002PRCP06
0231442770999992000011200004+46400+096250FM-12+214799999V0202701N003012200019N9999999N1-01951-02071102851ADDAA106000091AJ100019199999999GF103991021051012501051041IA1239KA1120N-02881MA1999999077491MD1710061+9999REMSYN098AAXX  12001 44277 326// 32703 11195 21207 37749 40285 57006 82554 333 21288 47001 55/// 555 31310;EQDQ01  00002PRCP06
0191442770999992000011203004+46400+096250FM-12+214799999V0209999C000010900019N0200001N1-02051-02171102851ADDAA106000091AY121031AY211031GF106991021031012501051041MA1999999077471MD1710021+9999MW1041REMSYN072AAXX  12031 44277 31698 60000 11205 21217 37747 40285 57002 70421 82354;EQDQ01  00002PRCP06
0179442770999992000011206004+46400+096250FM-12+214799999V0209999C000010360019N0500001N1-01251-01451999999ADDAA106000091GF107991021051012501051001MA1999999077421MD1310051+9999REMSYN066AAXX  12061 44277 32699 70000 11125 21145 37742 40186 53005 82550;EQDQ01+101863APOSLPQ02  00002PRCP06
0163442770999992000011209004+46400+096250FM-12+214799999V0209999C000010120019N0500001N1-01901-01901102741ADDAA106000091GF107991051051012501051001MA1999999077461MD1210041+9999REMSYN066AAXX  12091 44277 32699 70000 11190 21190 37746 40274 52004 85550;EQDQ01  00002PRCP06
0186442770999992000011212004+46400+096250FM-12+214799999V0209999C000012200019N9999999N1-02201-02201103091ADDAA106000091GF103991021001999999051041KA1999M-01201MA1999999077501MD1210041+9999REMSYN076AAXX  12121 44277 329// 30000 11220 21220 37750 40309 52004 82054 333 11120;EQDQ01  00002PRCP06
0173442770999992000011215004+46400+096250FM-12+214799999V0209999C000012200019N9999999N1-02311-02361103211ADDAA106000091GA1001+999999999GF100991001001999999001001MA1999999077501MD1410001+9999REMSYN060AAXX  12151 44277 329// 00000 11231 21236 37750 40321 54000;EQDQ01  00002PRCP06
0157442770999992000011218004+46400+096250FM-12+214799999V02099999999992200019N9999999N1-01981-02171102721ADDAA106000091GF102991999999999999999999MA1999999077421MD1810081+9999REMSYN060AAXX  12181 44277 329// 2707/ 11198 21217 37742 40272 58008;EQDQ01  00002PRCP06
0143442770999992000011221004+46400+096250FM-12+214799999V0202701N003012200019N9999999N1-02191-02251102961ADDGA1001+999999999GF100991001001999999001001MA1999999077391MD1710031+9999REMSYN060AAXX  12211 44277 1/81/ 02703 11219 21225 37739 40296 57003;
0241442770999992000011300004+46400+096250FM-12+214799999V0209999C000012200019N9999999N1-02091-02211102711ADDAA106000091AJ100019199999999GA1001+999999999GF100991001001999999001001IA1239KA1120N-02471MA1999999077331MD1710061+9999REMSYN092AAXX  13001 44277 329// 00000 11209 21221 37733 40271 57006 333 21247 47001 55/// 555 31283;EQDQ01  00002PRCP06
0191442770999992000011303004+46400+096250FM-12+214799999V0209999C000019999999N0200001N1-01821-01941102371ADDAA106000091AY111031AY201031GF105991021001999999051091MA1999999077311MD1710021+9999MW1041REMSYN072AAXX  13031 44277 32998 50000 11182 21194 37731 40237 57002 70410 82059;EQDQ01  00002PRCP06
0163442770999992000011306004+46400+096250FM-12+214799999V0209999C000010360019N0500001N1-01351-01621101811ADDAA106000091GF107991021051012501071021MA1999999077191MD1710121+9999REMSYN066AAXX  13061 44277 32699 70000 11135 21162 37719 40181 57012 82572;EQDQ01  00002PRCP06
0163442770999992000011309004+46400+096250FM-12+214799999V0202701N003010120019N0500001N1-01171-01521101491ADDAA106000091GF107991051051012501051021MA1999999077131MD1710031+9999REMSYN066AAXX  13091 44277 32699 72703 11117 21152 37713 40149 57003 85552;EQDQ01  00002PRCP06
0186442770999992000011312004+46400+096250FM-12+214799999V0202701N006010360019N9999999N1-01061-01341101361ADDAA106000091GF107991041051012501051021KA1999M-01031MA1999999077101MD1710031+9999REMSYN076AAXX  13121 44277 326// 72706 11106 21134 37710 40136 57003 84552 333 11103;EQDQ01  00002PRCP06
0173442770999992000011315004+46400+096250FM-12+214799999V0202701N010010120019N9999999N1-01091-01371101231ADDAA106000091GF107991051051012501041001MA1999999077041MD1710061+9999REMSYN076AAXX  13151 44277 316// 72710 11109 21137 37704 40123 57006 85540 333 91212;EQDQ01  00002PRCP06
0201442770999992000011318004+46400+096250FM-12+214799999V0202701N006012200019N9999999N1-01621-01881102021ADDAA106000091AY131061AY211061GF104991021051012501051001MA1999999077181MD1310141+9999MW1021REMSYN082AAXX  13181 44277 316// 42706 11162 21188 37718 40202 53014 70231 82550 333 91212;EQDQ01  00002PRCP06
0167442770999992000011321004+46400+096250FM-12+214799999V0203201N003012200019N9999999N1-01951-02141102451ADDAA199000091GF102991011051012501051001MA1999999077251MD1210071+9999REMSYN070    AAXX  13211 44277 326// 23203 11195 21214 37725 40245 52007 81550;EQDQ01  00002PRCP99
0235442770999992000011400004+46400+096250FM-12+214799999V0209999C000012200019N9999999N1-02121-02241102841ADDAA199000091AJ100019199999999GF101991011001999999051001IA1229KA1120N-02331MA1999999077381MD1210131+9999REMSYN102    AAXX  14001 44277 329// 10000 11212 21224 37738 40284 52013 81050 333 21233 46001 55/// 555 31303;EQDQ01  00002PRCP99
0177442770999992000011403004+46400+096250FM-12+214799999V0202701N005012200019N0500001N1-01691-01811102661ADDAA199000091GA1001+999999999GF100991001001999999001001MA1999999077571MD1210191+9999REMSYN064    AAXX  14031 44277 32999 02705 11169 21181 37757 40266 52019;EQDQ01  00002PRCP99
0167442770999992000011406004+46400+096250FM-12+214799999V0202701N004012200019N0500001N1-01461-01591102441ADDAA199000091GF101991011001999999051001MA1999999077591MD1210021+9999REMSYN070    AAXX  14061 44277 32999 12704 11146 21159 37759 40244 52002 81050;EQDQ01  00002PRCP99
0167442770999992000011409004+46400+096250FM-12+214799999V0202701N004012200019N0500001N1-01621-01751102681ADDAA199000091GF102991021051008001051001MA1999999077681MD1210091+9999REMSYN070    AAXX  14091 44277 32599 22704 11162 21175 37768 40268 52009 82550;EQDQ01  00002PRCP99
0206442770999992000011412004+46400+096250FM-12+214799999V0209999C000012200019N9999999N1-02371-02421103862ADDAA199000091GF101991011001999999051001KA1999M-01421MA1999999077891MD1310191+9999REMSYN080    AAXX  14121 44277 329// 10000 11237 21242 37789 40386 53019 81050 333 11142;EQDQ01+103863APOSLPQ02  00002PRCP99
0177442770999992000011415004+46400+096250FM-12+214799999V0209999C000012200019N9999999N1-02401-02401103731ADDAA199000091GA1001+999999999GF100991001001999999001001MA1999999077821MD1810051+9999REMSYN064    AAXX  14151 44277 329// 00000 11240 21240 37782 40373 58005;EQDQ01  00002PRCP99
0177442770999992000011418004+46400+096250FM-12+214799999V0202301N002012200019N9999999N1-02561-02621103821ADDAA199000091GA1001+999999999GF100991001001999999001001MA1999999077741MD1710081+9999REMSYN064    AAXX  14181 44277 329// 02302 11256 21262 37774 40382 57008;EQDQ01  00002PRCP99
0167442770999992000011421004+46400+096250FM-12+214799999V0209999C000012200019N9999999N1-02641-02641103821ADDAA199000091GF101991011001999999051001MA1999999077671MD1710071+9999REMSYN070    AAXX  14211 44277 329// 10000 11264 21264 37767 40382 57007 81050;EQDQ01  00002PRCP99
0257442770999992000011500004+46400+096250FM-12+214799999V0209999C000012200019N9999999N1-02651+99999103991ADDAA199000091AJ100009199999999AY151061AY201061GF101991999999999999999999IA1229KA1120N-02851MA1999999077631MD1210041+9999MW1101REMSYN102    AAXX  15001 44277 329// 10000 11265 21264 37763 40399 52004 71050 333 21285 46000 55/// 555 31307;EQDQ01  00002PRCP99
0167442770999992000011506004+46400+096250FM-12+214799999V0202301N005012200019N0500001N1-01291-01641102232ADDAA199000091GF102991021001999999051041MA1999999077581MD1710031+9999REMSYN070    AAXX  15061 44277 32999 22305 11129 21164 37758 40223 57003 82054;EQDQ01  00002PRCP99
0167442770999992000011509004+46400+096250FM-12+214799999V0202701N009012200019N0500001N1-01441-01791102341ADDAA199000091GF102991011001999999051041MA1999999077591MD1310011+9999REMSYN070    AAXX  15091 44277 32999 22709 11144 21179 37759 40234 53001 81054;EQDQ01  00002PRCP99
0200442770999992000011512004+46400+096250FM-12+214799999V0202701N005012200019N9999999N1-01891-02011103001ADDAA199000091GA1001+999999999GF100991001001999999001001KA1999M-01251MA1999999077671MD1210081+9999REMSYN074    AAXX  15121 44277 319// 02705 11189 21201 37767 40300 52008 333 11125;EQDQ01  00002PRCP99
0177442770999992000011515004+46400+096250FM-12+214799999V0202701N006012200019N9999999N1-01871-01991103141ADDAA199000091GA1001+999999999GF100991001001999999001001MA1999999077781MD1210111+9999REMSYN064    AAXX  15151 44277 329// 02706 11187 21199 37778 40314 52011;EQDQ01  00002PRCP99
0177442770999992000011518004+46400+096250FM-12+214799999V0202601N005012200019N9999999N1-01851-01971103031ADDAA199000091GA1001+999999999GF100991001001999999001001MA1999999077771MD1810011+9999REMSYN064    AAXX  15181 44277 329// 02605 11185 21197 37777 40303 58001;EQDQ01  00002PRCP99
0177442770999992000011521004+46400+096250FM-12+214799999V0203601N005012200019N9999999N1-01891-02081103001ADDAA199000091GA1001+999999999GF100991001001999999001001MA1999999077731MD1710041+9999REMSYN064    AAXX  15211 44277 329// 03605 11189 21208 37773 40300 57004;EQDQ01  00002PRCP99
0245442770999992000011600004+46400+096250FM-12+214799999V0202701N012012200019N9999999N1-01561-01831102551ADDAA199000091AJ100009199999999GA1001+999999999GF100991001001999999001001IA1229KA1120N-02231MA1999999077641MD1710091+9999REMSYN096    AAXX  16001 44277 329// 02712 11156 21183 37764 40255 57009 333 21223 46000 55/// 555 31273;EQDQ01  00002PRCP99
0167442770999992000011603004+46400+096250FM-12+214799999V0202701N009010900019N0500001N1-01271-01541102231ADDAA199000091GF105991021051008001051041MA1999999077561MD1710081+9999REMSYN070    AAXX  16031 44277 32599 52709 11127 21154 37756 40223 57008 82554;EQDQ01  00002PRCP99
0167442770999992000011606004+46400+096250FM-12+214799999V0202701N009010900019N0500001N1-01271-01541102231ADDAA199000091GF105991021051008001051041MA1999999077561MD1710081+9999REMSYN070    AAXX  16061 44277 32599 52709 11127 21154 37756 40223 57008 82554;EQDQ01  00002PRCP99
0177442770999992000011609004+46400+096250FM-12+214799999V0202701N009010360019N0500001N1-01271-01541102231ADDAA199000091GF106991031051012501051041MA1999999077601MD1310101+9999REMSYN080    AAXX  16091 44277 32699 62709 11127 21154 37760 40223 53010 83554 333 91214;EQDQ01  00002PRCP99
0183442770999992000011618004+46400+096250FM-12+214799999V0202701N002019999999N9999999N1-02091-02211103371ADDAA199000091GF107991999001999999051001MA1999999077801MD1210071+9999REMSYN070    AAXX  16181 44277 329// 72702 11209 21221 37780 40337 52007 81050;EQDQ01+000012SCOTLCQ02  00002PRCP99
0177442770999992000011621004+46400+096250FM-12+214799999V0202701N003012200019N9999999N1-01901-02021103171ADDAA199000091GA1001+999999999GF100991001001999999001001MA1999999077831MD1210031+9999REMSYN064    AAXX  16211 44277 329// 02703 11190 21202 37783 40317 52003;EQDQ01  00002PRCP99
0216442770999992000011700004+46400+096250FM-12+214799999V0200701N004012200019N9999999N1-02091-02211103631ADDAA199000091GA1001+999999999GF100991001001999999001001KA1120N-02301MA1999999077951MD1210121+9999REMSYN090    AAXX  17001 44277 329// 00704 11209 21221 37795 40363 52012 333 21230 55/// 555 31290;EQDQ01  00002PRCP99
0177442770999992000011703004+46400+096250FM-12+214799999V0202701N006012200019N0500001N1-01771-01961103561ADDAA199000091GA1001+999999999GF100991001001999999001001MA1999999078151MD1210201+9999REMSYN064    AAXX  17031 44277 32999 02706 11177 21196 37815 40356 52020;EQDQ01  00002PRCP99
0177442770999992000011706004+46400+096250FM-12+214799999V0202701N010012200019N0500001N1-01661-01921103451ADDAA199000091GF101991011001999999041001MA1999999078241MD1210091+9999REMSYN080    AAXX  17061 44277 32999 12710 11166 21192 37824 40345 52009 81040 333 91212;EQDQ01  00002PRCP99
0177442770999992000011709004+46400+096250FM-12+214799999V0202701N007012200019N0500001N1-01731-01991103721ADDAA199000091GF101991011051012501001001MA1999999078411MD1110171+9999REMSYN080    AAXX  17091 44277 32699 12707 11173 21199 37841 40372 51017 81500 333 91212;EQDQ01  00002PRCP99
0216442770999992000011712004+46400+096250FM-12+214799999V0209999C000012200019N9999999N1-02281-02461104672ADDAA199000091GA1001+999999999GF100991001001999999001001KA1999M-01541MA1999999078591MD1210181+9999REMSYN074    AAXX  17121 44277 329// 00000 11228 21246 37859 40467 52018 333 11154;EQDQ01+104673APOSLPQ02  00002PRCP99
0205442770999992000011803004+46400+096250FM-12+214799999V0209999C000012200019N0100001N1-01691-02031103961ADDAA199000091AY101031AY201031GA1001+999999999GF100991001001999999001001MA1999999078881MD1310021+9999MW1041REMSYN070    AAXX  18031 44277 31997 00000 11169 21203 37888 40396 53002 70400;EQDQ01  00002PRCP99
0193442770999992000011806004+46400+096250FM-12+214799999V0209999C000012200019N0500001N1-01041-01761103082ADDAA199000091GA1001+999999999GF100991001001999999001001MA1999999078491MD1710091+9999REMSYN064    AAXX  18061 44277 32999 00000 11104 21176 37849 40308 57009;EQDQ01+103083APOSLPQ02  00002PRCP99
0177442770999992000011809004+46400+096250FM-12+214799999V0203201N003012200019N0500001N1-01341-01951103151ADDAA199000091GA1001+999999999GF100991001001999999001001MA1999999078341MD1710151+9999REMSYN064    AAXX  18091 44277 32999 03203 11134 21195 37834 40315 57015;EQDQ01  00002PRCP99
0216442770999992000011812004+46400+096250FM-12+214799999V0209999C000012200019N9999999N1-02271-02671104142ADDAA199000091GA1001+999999999GF100991001001999999001001KA1999M-00961MA1999999078251MD1710091+9999REMSYN074    AAXX  18121 44277 329// 00000 11227 21267 37825 40414 57009 333 11096;EQDQ01+104143APOSLPQ02  00002PRCP99
0177442770999992000011815004+46400+096250FM-12+214799999V0209999C000012200019N9999999N1-02191-02511103861ADDAA199000091GA1001+999999999GF100991001001999999001001MA1999999078141MD1710111+9999REMSYN064    AAXX  18151 44277 329// 00000 11219 21251 37814 40386 57011;EQDQ01  00002PRCP99
0177442770999992000011818004+46400+096250FM-12+214799999V0209999C000012200019N9999999N1-02351-02671103991ADDAA199000091GA1001+999999999GF100991001001999999001001MA1999999077991MD1710151+9999REMSYN064    AAXX  18181 44277 329// 00000 11235 21267 37799 40399 57015;EQDQ01  00002PRCP99
0177442770999992000011821004+46400+096250FM-12+214799999V0209999C000012200019N0500001N1-02411-02811103731ADDAA199000091GA1001+999999999GF100991001001999999001001MA1999999077851MD1710141+9999REMSYN064    AAXX  18211 44277 32999 00000 11241 21281 37785 40373 57014;EQDQ01  00002PRCP99
0216442770999992000011900004+46400+096250FM-12+214799999V0209999C000012200019N9999999N1-02241-02631103491ADDAA199000091GA1001+999999999GF100991001001999999001001KA1120N-02461MA1999999077761MD1710091+9999REMSYN090    AAXX  19001 44277 329// 00000 11224 21263 37776 40349 57009 333 21246 55/// 555 31291;EQDQ01  00002PRCP99
0167442770999992000011903004+46400+096250FM-12+214799999V0203201N001010360019N0500001N1-01131-01571102261ADDAA199000091GF107991011051012501051041MA1999999077861MD1410001+9999REMSYN070    AAXX  19031 44277 32699 73201 11113 21157 37786 40226 54000 81554;EQDQ01  00002PRCP99
0167442770999992000011906004+46400+096250FM-12+214799999V0209999C000019999999N0500001N1-01051-01681102041ADDAA199000091GF107991041001999999051041MA1999999077701MD1810061+9999REMSYN070    AAXX  19061 44277 32999 70000 11105 21168 37770 40204 58006 84054;EQDQ01  00002PRCP99
0167442770999992000011909004+46400+096250FM-12+214799999V0203201N003010360019N0500001N1-01261-01881102361ADDAA199000091GF107991011051012501051041MA1999999077681MD1710021+9999REMSYN070    AAXX  19091 44277 32699 73203 11126 21188 37768 40236 57002 81554;EQDQ01  00002PRCP99
0146442770999992000011912004+46400+096250FM-12+214799999V0209999C000019999999N0300001N1-01601-02121102531ADDAA199000091GF108991001001999999001021MD1210171+9999REMSYN064    AAXX  19121 44277 32980 80000 1116/ 21212 40253 52017 80002;EQDQ01  00002PRCP99
0179442770999992000011915004+46400+096250FM-12+214799999V0202701N029020360019N9999999N1-01211-01831102251ADDAA199000091GF107991031051012501071071MA1999999077711MD1310051+9999REMSYN066AAXX  19151 44277 326// 72729 11121 21183 37771 40225 53005 83577;EQDQ01+002903WOSPD Q02  00002PRCP99
0163442770999992000011918004+46400+096250FM-12+214799999V0203201N005010360019N9999999N1-01401-01911102341ADDAA199000091GF106991021051012501051071MA1999999077641MD1810071+9999REMSYN066AAXX  19181 44277 326// 63205 11140 21191 37764 40234 58007 82557;EQDQ01  00002PRCP99
0163442770999992000011921004+46400+096250FM-12+214799999V0209999C000010360019N9999999N1-01631-02121102551ADDAA199000091GF106991021051012501071021MA1999999077651MD1310011+9999REMSYN066AAXX  19211 44277 326// 60000 11163 21212 37765 40255 53001 82572;EQDQ01  00002PRCP99
0202442770999992000012000004+46400+096250FM-12+214799999V0209999C000010360019N9999999N1-01421-02341102341ADDAA199000091GF108991021051012501051999KA1120N-02001MA1999999077651MD1410001+9999REMSYN092AAXX  20001 44277 316// 80000 11142 21234 37765 40234 54000 8255/ 333 21200 55/// 555 31221;EQDQ01  00002PRCP99
0191442770999992000012003004+46400+096250FM-12+214799999V0209999C000010360019N0200001N1-01711-01841102471ADDAA199000091AY121031AY221031GF107991021051012501051001MA1999999077691MD1310041+9999MW1031REMSYN072AAXX  20031 44277 32698 70000 11171 21184 37769 40247 53004 70322 82550;EQDQ01  00002PRCP99
0163442770999992000012006004+46400+096250FM-12+214799999V0203201N009010360019N0500001N1-01191-01811102251ADDAA199000091GF106991011051012501051021MA1999999077661MD1810031+9999REMSYN066AAXX  20061 44277 32699 63209 11119 21181 37766 40225 58003 81552;EQDQ01  00002PRCP99
0163442770999992000012009004+46400+096250FM-12+214799999V0200901N004012200019N0500001N1-01091-01621102151ADDAA199000091GF102991011001012501051041MA1999999077691MD1310031+9999REMSYN066AAXX  20091 44277 32699 20904 11109 21162 37769 40215 53003 81054;EQDQ01  00002PRCP99
0196442770999992000012012004+46400+096250FM-12+214799999V0209999C000012200019N9999999N1-01871-02361103001ADDAA199000091GA1001+999999999GF100991001001999999001001KA1999M-00691MA1999999077701MD1210011+9999REMSYN070AAXX  20121 44277 329// 00000 11187 21236 37770 40300 52001 333 11069;EQDQ01  00002PRCP99
0173442770999992000012015004+46400+096250FM-12+214799999V0209999C000012200019N9999999N1-02251-02651103351ADDAA199000091GA1001+999999999GF100991001001999999001001MA1999999077711MD1210011+9999REMSYN060AAXX  20151 44277 329// 00000 11225 21265 37771 40335 52001;EQDQ01  00002PRCP99
0173442770999992000012018004+46400+096250FM-12+214799999V0209999C000012200019N9999999N1-02161-02341103351ADDAA199000091GA1001+999999999GF100991001001999999001001MA1999999077691MD1810021+9999REMSYN060AAXX  20181 44277 329// 00000 11216 21234 37769 40335 58002;EQDQ01  00002PRCP99
0173442770999992000012021004+46400+096250FM-12+214799999V0202701N003012200019N9999999N1-02391-02511103591ADDAA199000091GA1001+999999999GF100991001001999999001001MA1999999077411MD1710021+9999REMSYN060AAXX  20211 44277 329// 02703 11239 21251 37741 40359 57002;EQDQ01  00002PRCP99
0202442770999992000012100004+46400+096250FM-12+214799999V0209999C000012200019N9999999N1-02461-02511103701ADDAA199000091GF102991021001999999081001KA1120N-02531MA1999999077671MD1810051+9999REMSYN092AAXX  21001 44277 329// 20000 11246 21251 37767 40370 58005 82080 333 21253 55/// 555 31292;EQDQ01  00002PRCP99
0179442770999992000012103004+46400+096250FM-12+214799999V0209999C000012200019N0100001N1-01821-01821102902ADDAA199000091GF103991021051008001001041MA1999999077731MD1310071+9999REMSYN066AAXX  21031 44277 32597 30000 11182 21182 37773 40290 53007 82504;EQDQ01+102903APOSLPQ02  00002PRCP99
0163442770999992000012106004+46400+096250FM-12+214799999V0202701N003012200019N0500001N1-01261-01261102361ADDAA199000091GF104991021051008001051041MA1999999077681MD1810051+9999REMSYN066AAXX  21061 44277 32599 42703 11126 21126 37768 40236 58005 82554;EQDQ01  00002PRCP99
0163442770999992000012109004+46400+096250FM-12+214799999V0202701N005010360019N0100001N1-01431-01561102471ADDAA199000091GF106991031051008001081031MA1999999077731MD1310041+9999REMSYN066AAXX  21091 44277 32597 62705 11143 21156 37773 40247 53004 83583;EQDQ01  00002PRCP99
0202442770999992000012112004+46400+096250FM-12+214799999V0209999C000012200019N9999999N1-02081-02081103502ADDAA199000091GF103991021041008001051001KA1999M-01211MA1999999077881MD1210151+9999REMSYN076AAXX  21121 44277 325// 30000 11208 21208 37788 40350 52015 82450 333 11121;EQDQ01+103503APOSLPQ02  00002PRCP99
0163442770999992000012115004+46400+096250FM-12+214799999V0202701N002012200019N9999999N1-01901-01901103271ADDAA199000091GF101991011001999999051001MA1999999077861MD1810021+9999REMSYN066AAXX  21151 44277 329// 12702 11190 21190 37786 40327 58002 81050;EQDQ01  00002PRCP99
0163442770999992000012118004+46400+096250FM-12+214799999V0209999C000012200019N9999999N1+99999+99999103251ADDAA199000091GF101991011001999999051001MA1999999077841MD1710021+9999REMSYN066AAXX  21181 44277 329// 10000 1197/ 21197 37784 40325 57002 81050;EQDQ01  00002PRCP99
0163442770999992000012121004+46400+096250FM-12+214799999V0209999C000012200019N9999999N1-01081-02081103501ADDAA199000091GF103991021041008001051001MA1999999077881MD1210151+9999REMSYN066AAXX  21211 44277 325// 30000 11108 21208 37788 40350 52015 82450;EQDQ01  00002PRCP99
0202442770999992000012200004+46400+096250FM-12+214799999V0209999C000012200019N9999999N1-02222+99999103491ADDAA199000091GF103991011041008001051041KA1120N-02321MA1999999077841MD1410001+9999REMSYN092AAXX  22001 44277 325// 30000 11222 21221 37784 40349 54000 81454 333 21232 55/// 555 31286;EQDQ01  00002PRCP99
0161442770999992000012203004+46400+096250FM-12+214799999V0202701N001012200019N0100001N1-01961-01961103381ADDAY101031AY201031GF103991021051012501071001MA1999999077901MD1310061+9999MW1761REMSYN072AAXX  22031 44277 41697 32701 11196 21196 37790 40338 53006 77600 82570;
0133442770999992000012206004+46400+096250FM-12+214799999V0202701N004012200019N0002001N1-01731-01731103061ADDGF103991021051008001051001MA1999999077901MD1410001+9999REMSYN066AAXX  22061 44277 42592 32704 11173 21173 37790 40306 54000 82550;
0161442770999992000012209004+46400+096250FM-12+214799999V0202701N005012200019N0040001N1-01801-01801103161ADDAY101031AY201031GF104991031051004501071001MA1999999077921MD1310021+9999MW1151REMSYN072AAXX  22091 44277 41496 42705 11180 21180 37792 40316 53002 71500 83570;
0186442770999992000012212004+46400+096250FM-12+214799999V0209999C000012200019N9999999N1-02271-02271103872ADDAA199000021GF103991021051012501001041KA1999M-01571MA1999999078041MD1210121+9999REMSYN076AAXX  22121 44277 326// 30000 11227 21227 37804 40387 52012 82504 333 11157;EQDQ01+103873APOSLP
0144442770999992000012215004+46400+096250FM-12+214799999V0209999C000012200019N9999999N1-02441-02441104121ADDAA199000021GF102991001001999999001041MA1999999078081MD1210041+9999REMSYN066AAXX  22151 44277 329// 20000 11244 21244 37808 40412 52004 80004;
0163442770999992000012218004+46400+096250FM-12+214799999V0209999C000012200019N9999999N1-02631-02631104361ADDAA199000091GF101991011001999999051001MA1999999078111MD1210031+9999REMSYN066AAXX  22181 44277 329// 10000 11263 21263 37811 40436 52003 81050;EQDQ01  00002PRCP99
0173442770999992000012221004+46400+096250FM-12+214799999V0209999C000012200019N9999999N1-02871-02881104861ADDAA199000091GA1001+999999999GF100991001001999999001001MA1999999078171MD1210061+9999REMSYN060AAXX  22211 44277 329// 00000 11287 21288 37817 40486 52006;EQDQ01  00002PRCP99
0202442770999992000012300004+46400+096250FM-12+214799999V0209999C000012200019N9999999N1-02721-02721104621ADDAA199000091GF102991021001999999051001KA1120N-03001MA1999999078211MD1210041+9999REMSYN092AAXX  23001 44277 329// 20000 11272 21272 37821 40462 52004 82050 333 21300 55/// 555 31316;EQDQ01  00002PRCP99
0139442770999992000012303004+46400+096250FM-12+214799999V0209999C000012200019N0100001N1-02461+99999999999ADDAA199000091GF102991999999008001999999REMSYN071AAXX  23031 44277 31597 20000 11246 2146 37838 40464 52017 77600 81502;EQDQ01  00002PRCP99
0172442770999992000012306004+46400+096250FM-12+214799999V0203601N005010360019N0040001N1-02281-02281104401ADDAA199000021AY121061AY211061GF107991031051008001011091MA1999999078421MD1210021+9999MW1761REMSYN072AAXX  23061 44277 31596 73605 11228 21228 37842 40440 52002 77621 83519;
0144442770999992000012309004+46400+096250FM-12+214799999V0200501N003010360019N0500001N1-01941-01941103931ADDAA199000021GF107991041051008001071021MA1999999078411MD1810011+9999REMSYN066AAXX  23091 44277 32599 70503 11194 21194 37841 40393 58001 84572;
0201442770999992000012312004+46400+096250FM-12+214799999V0200901N003010075019N9999999N1-02121-02121104301ADDAA112000791AY171061AY221061GF108991061041008001071011KA1999M-01181MA1999999078481MD1310071+9999MW1711REMSYN088AAXX  23121 44277 115// 80903 11212 21212 37848 40430 53007 69902 77172 86471 333 11118;
0161442770999992000012318004+46400+096250FM-12+214799999V0209999C000010120019N9999999N1-02321-02321104541ADDAY171061AY271061GF107991061051012501071999MA1999999078531MD1210021+9999MW1701REMSYN072AAXX  23181 44277 416// 70000 11232 21232 37853 40454 52002 77077 8657/;
0161442770999992000012321004+46400+096250FM-12+214799999V0209999C000010360019N9999999N1-02401-02401104791ADDAY171031AY221031GF107991041051012501071071MA1999999078591MD1210061+9999MW1761REMSYN072AAXX  23211 44277 416// 70000 11240 21240 37859 40479 52006 77672 84577;
0172442770999992000012403004+46400+096250FM-12+214799999V0202701N001010360019N0020001N1-02681+99999105301ADDAA199000021AY121031AY221031GF107991041041008001011071MA1999999078841MD1210191+9999MW1761REMSYN072AAXX  24031 44277 31595 72701 11268 21263 37884 40530 52019 77622 84417;
0188442770999992000012406004+46400+096250FM-12+214799999V0203601N001010900019N0100001N1-02421-02421105191ADDAA199000021AY121061AY221061GF105991021041008001011071MA1999999078891MD1210051+9999MW1761REMSYN088AAXX  24061 44277 31597 53601 11242 21242 37889 40519 52005 77622 82417 555 81001 82002;
0144442770999992000012409004+46400+096250FM-12+214799999V0209999C000012200019N0500001N1-02281-02281105071ADDAA199000021GF101991011041012501001001MA1999999078901MD1210011+9999REMSYN066AAXX  24091 44277 32699 10000 11228 21228 37890 40507 52001 81400;
0177442770999992000012412004+46400+096250FM-12+214799999V0202201N002012200019N9999999N1-02921-02921106061ADDAA199000021GA1001+999999999GF100991001001999999001001KA1999M-02211MA1999999079091MD1210191+9999REMSYN070AAXX  24121 44277 329// 02202 11292 21292 37909 40606 52019 333 11221;
0144442770999992000012415004+46400+096250FM-12+214799999V0209999C000012200019N9999999N1-03401+99999106181ADDAA199000021GF102991011001999999051071MA1999999079101MD1210011+9999REMSYN066AAXX  24151 44277 329// 20000 11340 21302 37910 40618 52001 81057;
0183442770999992000012500004+46400+096250FM-12+214799999V0209999C000012200019N9999999N1-03061-03061106451ADDAA199000091GA1001+999999999GF100991001001999999001001MA1999999079161MD1610031+9999REMSYN070AAXX  25001 44277 329// 00000 11306 21306 37916 40645 56003 555 31336;EQDQ01  00002PRCP99
0173442770999992000012503004+46400+096250FM-12+214799999V0209999C000012200019N0500001N1-02561-02571105841ADDAA199000091GA1001+999999999GF100991001001999999001001MA1999999079201MD1310041+9999REMSYN060AAXX  25031 44277 32999 00000 11256 21257 37920 40584 53004;EQDQ01  00002PRCP99
0189442770999992000012506004+46400+096250FM-12+214799999V0209999C000012200019N0500001N1-02061-02101999999ADDAA199000091GA1001+999999999GF100991001001999999001001MA1999999079131MD1810071+9999REMSYN060AAXX  25061 44277 32999 00000 11206 2121/ 37913 40509 58007;EQDQ01+105093APOSLPQ02  00002PRCP99
0196442770999992000012512004+46400+096250FM-12+214799999V0209999C000012200019N9999999N1-02861-02861106201ADDAA199000091GA1001+999999999GF100991001001999999001001KA1999M-02011MA1999999079171MD1210021+9999REMSYN070AAXX  25121 44277 329// 00000 11286 21286 37917 40620 52002 333 11201;EQDQ01  00002PRCP99
0173442770999992000012515004+46400+096250FM-12+214799999V0209999C000012200019N9999999N1-02861-02861106201ADDAA199000091GA1001+999999999GF100991001001999999001001MA1999999079211MD1210041+9999REMSYN060AAXX  25151 44277 329// 00000 11286 21286 37921 40620 52004;EQDQ01  00002PRCP99
0241442770999992000012600004+46400+096250FM-12+214799999V0209999C000012200019N9999999N1-02821-02821105941ADDAA199000091AJ100019199999999GA1001+999999999GF100991001001999999001001IA1239KA1120N-03051MA1999999079071MD1710021+9999REMSYN092AAXX  26001 44277 329// 00000 11282 21282 37907 40594 57002 333 21305 47001 55/// 555 31341;EQDQ01  00002PRCP99
0173442770999992000012603004+46400+096250FM-12+214799999V0209999C000012200019N0500001N1-02361-02371105321ADDAA199000091GA1001+999999999GF100991001001999999001001MA1999999079011MD1710061+9999REMSYN060AAXX  26031 44277 32999 00000 11236 21237 37901 40532 57006;EQDQ01  00002PRCP99
0173442770999992000012606004+46400+096250FM-12+214799999V0209999C000012200019N0500001N1-01801-01991104491ADDAA199000091GA1001+999999999GF100991001001999999001001MA1999999078891MD1710121+9999REMSYN060AAXX  26061 44277 32999 00000 11180 21199 37889 40449 57012;EQDQ01  00002PRCP99
0173442770999992000012609004+46400+096250FM-12+214799999V0209999C000012200019N0500001N1-01781-01901104351ADDAA199000091GA1001+999999999GF100991001001999999001001MA1999999078811MD1710081+9999REMSYN060AAXX  26091 44277 32999 00000 11178 21190 37881 40435 57008;EQDQ01  00002PRCP99
0163442770999992000012615004+46400+096250FM-12+214799999V0209999C000012200019N9999999N1-02641-02701105171ADDAA199000091GF101991011001999999051001MA1999999078721MD1710081+9999REMSYN066AAXX  26151 44277 329// 10000 11264 21270 37872 40517 57008 81050;EQDQ01  00002PRCP99
0163442770999992000012618004+46400+096250FM-12+214799999V0209999C000012200019N9999999N1-02701-02761105291ADDAA199000091GF103991021001999999051041MA1999999078681MD1710041+9999REMSYN066AAXX  26181 44277 329// 30000 11270 21276 37868 40529 57004 82054;EQDQ01  00002PRCP99
0179442770999992000012621004+46400+096250FM-12+214799999V0202701N008010360019N9999999N1-01981-02041104312ADDAA199000091GF107991011051012501051041MA1999999078012MD1710071+9999REMSYN066AAXX  26211 44277 326// 72708 11198 21204 37801 40431 57007 81554;EQDQ01+078013APOSP Q02  00002PRCP99
0259442770999992000012700004+46400+096250FM-12+214799999V0202701N006012200019N9999999N1-01991-02111104311ADDAA199000091AJ100019199999999AY131061AY211061GF101991011001999999051001IA1229KA1120N-02761MA1999999078561MD1710051+9999MW1021REMSYN104AAXX  27001 44277 319// 12706 11199 21211 37856 40431 57005 70231 81050 333 21276 46001 55/// 555 31300;EQDQ01  00002PRCP99
0207442770999992000012703004+46400+096250FM-12+214799999V0202701N008012200019N0500001N1-01981-02041104441ADDAA199000091AY131031AY201031GF102991011051012501001021MA1999999999999MD1310111+9999MW1021REMSYN072AAXX  27031 44277 31699 22708 11198 21204 37967 40444 53011 70230 81502;EQDQ01  00002PRCP99Q02 079673APOSP 
0179442770999992000012706004+46400+096250FM-12+214799999V0209999C000012200019N0500001N1-01661-01791999999ADDAA199000091GF102991011051008001001021MA1999999078701MD1210031+9999REMSYN066AAXX  27061 44277 32599 20000 11166 21179 37870 4011/ 52003 81502;EQDQ01+101103APOSLPQ02  00002PRCP99
0179442770999992000012709004+46400+096250FM-12+214799999V0209999C000012200019N0100001N1-01711-01771104111ADDAA199000091GF102991999051008001001001MA1999999078681MD1810021+9999REMSYN066AAXX  27091 44277 32597 20000 11171 21177 37868 40411 58002 86500;EQDQ01+000062SCOTLCQ02  00002PRCP99
0173442770999992000012715004+46400+096250FM-12+214799999V0202701N002012200019N9999999N1-02431-02491104921ADDAA199000091GA1001+999999999GF100991001001999999001001MA1999999078661MD1710011+9999REMSYN060AAXX  27151 44277 329// 02702 11243 21249 37866 40492 57001;EQDQ01  00002PRCP99
0174442770999992000012718004+46400+096250FM-12+214799999V0209999C000012200019N9999999N1-02621-02681105171ADDAA199000091GA1001+999999999GF100991001001999999001001MD1310021+9999REMSYN060AAXX  27181 44277 329// 00000 11262 21268 38768 40517 53002;EQDQ01+087683APOSP Q02  00002PRCP99
0173442770999992000012721004+46400+096250FM-12+214799999V0202301N005012200019N9999999N1-02521-02581104911ADDAA199000091GA1001+999999999GF100991001001999999001001MA1999999078641MD1810041+9999REMSYN060AAXX  27211 44277 329// 02305 11252 21258 37864 40491 58004;EQDQ01  00002PRCP99
0241442770999992000012800004+46400+096250FM-12+214799999V0202701N004012200019N9999999N1-02731-02741105131ADDAA199000091AJ100019199999999GA1001+999999999GF100991001001999999001001IA1229KA1120N-02741MA1999999078651MD1310011+9999REMSYN092AAXX  28001 44277 319// 02704 11273 21274 37865 40513 53001 333 21274 46001 55/// 555 31307;EQDQ01  00002PRCP99
0173442770999992000012803004+46400+096250FM-12+214799999V0202301N002012200019N0500001N1-02431-02491105051ADDAA199000091GA1001+999999999GF100991001001999999001001MA1999999078801MD1210151+9999REMSYN060AAXX  28031 44277 32999 02302 11243 21249 37880 40505 52015;EQDQ01  00002PRCP99
0173442770999992000012806004+46400+096250FM-12+214799999V0202701N001012200019N0500001N1-01791-01981104491ADDAA199000091GA1001+999999999GF100991001001999999001001MA1999999078881MD1210081+9999REMSYN060AAXX  28061 44277 32999 02701 11179 21198 37888 40449 52008;EQDQ01  00002PRCP99
0173442770999992000012809004+46400+096250FM-12+214799999V0202701N002012200019N0500001N1-01731-01921104511ADDAA199000091GA1001+999999999GF100991001001999999001001MA1999999078951MD1210071+9999REMSYN060AAXX  28091 44277 32999 02702 11173 21192 37895 40451 52007;EQDQ01  00002PRCP99
0212442770999992000012812004+46400+096250FM-12+214799999V0209999C000012200019N9999999N1-02761-02811999999ADDAA199000091GA1001+999999999GF100991001001999999001001KA1999M-01491MA1999999079061MD1210111+9999REMSYN070AAXX  28121 44277 329// 00000 11276 21281 37906 40594 52011 333 11149;EQDQ01+105943APOSLPQ02  00002PRCP99
0189442770999992000012815004+46400+096250FM-12+214799999V0209999C000012200019N9999999N1-02341-02401999999ADDAA199000091GA1001+999999999GF100991001001999999001001MA1999999079121MD1210061+9999REMSYN060AAXX  28151 44277 329// 00000 11234 21240 37912 40533 52006;EQDQ01+105333APOSLPQ02  00002PRCP99
0173442770999992000012818004+46400+096250FM-12+214799999V0209999C000012200019N9999999N1-02881-02881104061ADDAA199000091GA1001+999999999GF100991001001999999001001MA1999999079191MD1410001+9999REMSYN060AAXX  28181 44277 329// 00000 11288 21288 37919 40406 54000;EQDQ01  00002PRCP99
0189442770999992000012821004+46400+096250FM-12+214799999V0209999C000012200019N9999999N1-02671-02731105822ADDAA199000091GA1001+999999999GF100991001001999999001001MA1999999079121MD1410001+9999REMSYN060AAXX  28211 44277 329// 00000 11267 21273 37912 40582 54000;EQDQ01+105823APOSLPQ02  00002PRCP99
0235442770999992000012900004+46400+096250FM-12+214799999V0209999C000012200019N9999999N1-02831-02881105941ADDAA199000091AJ100099199999999GA1001+999999999GF100991001001999999001001IA1229KA1120N-02971MA1999999079121MD1410001+9999REMSYN086AAXX  29001 44277 329// 00000 11283 21288 37912 40594 54000 333 21297 46009 555 31332;EQDQ01  00002PRCP99
0163442770999992000012903004+46400+096250FM-12+214799999V0202501N001012200019N0500001N1-02221-02271105211ADDAA199000091GF101991001001999999001041MA1999999079121MD1410001+9999REMSYN066AAXX  29031 44277 32999 12501 11222 21227 37912 40521 54000 80004;EQDQ01  00002PRCP99
0173442770999992000012906004+46400+096250FM-12+214799999V0209999C000012200019N0500001N1-01621-01961104531ADDAA199000091GA1001+999999999GF100991001001999999001001MA1999999079111MD1810011+9999REMSYN060AAXX  29061 44277 32999 00000 11162 21196 37911 40453 58001;EQDQ01  00002PRCP99
0173442770999992000012909004+46400+096250FM-12+214799999V0209999C000012200019N0500001N1-01571-01841104531ADDAA199000091GA1001+999999999GF100991001001999999001001MA1999999079121MD1310011+9999REMSYN060AAXX  29091 44277 32999 00000 11157 21184 37912 40453 53001;EQDQ01  00002PRCP99
0196442770999992000012912004+46400+096250FM-12+214799999V0202701N002012200019N9999999N1-02411-02601105591ADDAA199000091GA1001+999999999GF100991001001999999001001KA1999M-01211MA1999999079181MD1210061+9999REMSYN070AAXX  29121 44277 329// 02702 11241 21260 37918 40559 52006 333 11121;EQDQ01  00002PRCP99
0173442770999992000012915004+46400+096250FM-12+214799999V0209999C000012200019N9999999N1-02551-02731105841ADDAA199000091GA1001+999999999GF100991001001999999001001MA1999999079181MD1010001+9999REMSYN060AAXX  29151 44277 329// 00000 11255 21273 37918 40584 5000/;EQDQ01  00002PRCP99
0173442770999992000012918004+46400+096250FM-12+214799999V0209999C000012200019N9999999N1-02801-02921106081ADDAA199000091GA1001+999999999GF100991001001999999001001MA1999999079171MD1810011+9999REMSYN060AAXX  29181 44277 329// 00000 11280 21292 37917 40608 58001;EQDQ01  00002PRCP99
0189442770999992000012921004+46400+096250FM-12+214799999V0209999C000012200019N9999999N1-02921-03031999999ADDAA199000091GA1001+999999999GF100991001001999999001001MA1999999079171MD1410001+9999REMSYN060AAXX  29211 44277 329// 00000 11292 21303 37917 40420 54000;EQDQ01+104203APOSLPQ02  00002PRCP99
0240442770999992000013000004+46400+096250FM-12+214799999V0202701N002012200019N9999999N1-02871-02991106201ADDAA199000091AJ100019199999999GA1001+999999999GF100991001001999999001001IA1229KA1120N-03011MA1999999079171MD1410001+9999REMSYN091AAXX  30001 44277 329// 02702 11287 21299 37917 40620 54000 333 21301 46001 55/// 555 3126;EQDQ01  00002PRCP99
0201442770999992000013003004+46400+096250FM-12+214799999V0209999C000012200019N0200001N1-02211-02211105151ADDAA199000091AY101031AY201031GA1001+999999999GF100991001001999999001001MA1999999079191MD1310021+9999MW1041REMSYN066AAXX  30031 44277 31998 00000 11221 21221 37919 40515 53002 70400;EQDQ01  00002PRCP99
0173442770999992000013006004+46400+096250FM-12+214799999V0209999C000012200019N0500001N1-01621-01811104671ADDAA199000091GA1001+999999999GF100991001001999999001001MA1999999079151MD1810041+9999REMSYN060AAXX  30061 44277 32999 00000 11162 21181 37915 40467 58004;EQDQ01  00002PRCP99
0173442770999992000013009004+46400+096250FM-12+214799999V0209999C000012200019N0500001N1-01701-01891104641ADDAA199000091GA1001+999999999GF100991001001999999001001MA1999999079111MD1710041+9999REMSYN060AAXX  30091 44277 32999 00000 11170 21189 37911 40464 57004;EQDQ01  00002PRCP99
0196442770999992000013012004+46400+096250FM-12+214799999V0209999C000012200019N9999999N1-02621-02681105701ADDAA199000091GA1001+999999999GF100991001001999999001001KA1999M-01531MA1999999079141MD1310031+9999REMSYN070AAXX  30121 44277 329// 00000 11262 21268 37914 40570 53003 333 11153;EQDQ01  00002PRCP99
0173442770999992000013015004+46400+096250FM-12+214799999V0202701N003012200019N9999999N1-02851-02901105811ADDAA199000091GA1001+999999999GF100991001001999999001001MA1999999079041MD1810101+9999REMSYN060AAXX  30151 44277 329// 02703 11285 21290 37904 40581 58010;EQDQ01  00002PRCP99
0173442770999992000013018004+46400+096250FM-12+214799999V0202701N004012200019N9999999N1-02911-02971105661ADDAA199000091GA1001+999999999GF100991001001999999001001MA1999999078841MD1710201+9999REMSYN060AAXX  30181 44277 329// 02704 11291 21297 37884 40566 57020;EQDQ01  00002PRCP99
0173442770999992000013021004+46400+096250FM-12+214799999V0202701N005012200019N9999999N1-02651-02811105661ADDAA199000091GA1001+999999999GF100991001001999999001001MA1999999078701MD1710141+9999REMSYN060AAXX  30211 44277 329// 02705 11265 21281 37870 40566 57014;EQDQ01  00002PRCP99
0241442770999992000013100004+46400+096250FM-12+214799999V0202701N005012200019N9999999N1-02751-02811105271ADDAA199000091AJ100019199999999GA1001+999999999GF100991001001999999001001IA1229KA1120N-02981MA1999999078591MD1710101+9999REMSYN092AAXX  31001 44277 329// 02705 11275 21281 37859 40527 57010 333 21298 46001 55/// 555 31328;EQDQ01  00002PRCP99
0217442770999992000013103004+46400+096250FM-12+214799999V0209999C000012200019N0500001N1-02211-02271104552ADDAA199000091AY101031AY201031GA1001+999999999GF100991001001999999001001MA1999999078551MD1710041+9999MW1041REMSYN066AAXX  31031 44277 32999 00000 11221 21227 37855 40455 57004 70400;EQDQ01+104553APOSLPQ02  00002PRCP99
0173442770999992000013106004+46400+096250FM-12+214799999V0209999C000012200019N0500001N1-01731-01921103851ADDAA199000091GA1001+999999999GF100991001001999999001001MA1999999078511MD1710041+9999REMSYN060AAXX  31061 44277 32999 00000 11173 21192 37851 40385 57004;EQDQ01  00002PRCP99
0163442770999992000013109004+46400+096250FM-12+214799999V0209999C000012200019N0500001N1-01681-01871103721ADDAA199000091GF101991001001999999001041MA1999999078441MD1710101+9999REMSYN066AAXX  31091 44277 32999 10000 11168 21187 37844 40372 57010 80004;EQDQ01  00002PRCP99
0202442770999992000013112004+46400+096250FM-12+214799999V0202301N002012200019N9999999N1-02461-02511104512ADDAA199000091GF101991001001999999001041KA1999M-01591MA1999999078341MD1710071+9999REMSYN076AAXX  31121 44277 329// 12302 11246 21251 37834 40451 57007 80004 333 11159;EQDQ01+104513APOSLPQ02  00002PRCP99
0173442770999992000013115004+46400+096250FM-12+214799999V0209999C000012200019N9999999N1-02431-02491104391ADDAA199000091GA1001+999999999GF100991001001999999001001MA1999999078271MD1710071+9999REMSYN060AAXX  31151 44277 329// 00000 11243 21249 37827 40439 57007;EQDQ01  00002PRCP99
0173442770999992000013121004+46400+096250FM-12+214799999V0202701N002012200019N9999999N1-02771-02831104601ADDAA199000091GA1001+999999999GF100991001001999999001001MA1999999078091MD1710111+9999REMSYN060AAXX  31211 44277 329// 02702 11277 21283 37809 40460 57011;EQDQ01  00002PRCP99
0231442770999992000020100004+46400+096250FM-12+214799999V0209999C000012200019N9999999N1-02841-02901104601ADDAA199000091AJ100009199999999GF102991011051012501051041IA1229KA1120N-02961MA1999999078061MD1710031+9999REMSYN098AAXX  01001 44277 326// 20000 11284 21290 37806 40460 57003 81554 333 21296 46000 55/// 555 31315;EQDQ01  00002PRCP99
0207442770999992000020103004+46400+096250FM-12+214799999V0209999C000012200019N0200001N1-02061-02121103632ADDAA199000091AY101031AY201031GF104991031001999999051021MA1999999078031MD1710031+9999MW1041REMSYN072AAXX  01031 44277 31998 40000 11206 21212 37803 40363 57003 70400 83052;EQDQ01+103633APOSLPQ02  00002PRCP99
0163442770999992000020106004+46400+096250FM-12+214799999V0209999C000019999999N0500001N1-01651-01841103081ADDAA199000091GF105991031001999999051021MA1999999078401MD1710021+9999REMSYN066AAXX  01061 44277 32999 50000 11165 21184 37840 40308 57002 83052;EQDQ01  00002PRCP99
0173442770999992000020109004+46400+096250FM-12+214799999V0209999C000012200019N0500001N1-01541-01731102971ADDAA199000091GA1001+999999999GF100991001001999999001001MA1999999078051MD1710041+9999REMSYN060AAXX  01091 44277 32999 00000 11154 21173 37805 40297 57004;EQDQ01  00002PRCP99
0212442770999992000020112004+46400+096250FM-12+214799999V0209999C000012200019N9999999N1-02491-02611104242ADDAA199000091GA1001+999999999GF100991001001999999001001KA1999M-01381MA1999999078061MD1210011+9999REMSYN070AAXX  01121 44277 329// 00000 11249 21261 37806 40424 52001 333 11138;EQDQ01+104243APOSLPQ02  00002PRCP99
0173442770999992000020115004+46400+096250FM-12+214799999V0202701N002012200019N9999999N1-02251-02371103861ADDAA199000091GA1001+999999999GF100991001001999999001001MA1999999078061MD1410001+9999REMSYN060AAXX  01151 44277 329// 02702 11225 21237 37806 40386 54000;EQDQ01  00002PRCP99
0173442770999992000020118004+46400+096250FM-12+214799999V0209999C000012200019N9999999N1-02421-02531104121ADDAA199000091GA1001+999999999GF100991001001999999001001MA1999999078061MD1410001+9999REMSYN060AAXX  01181 44277 329// 00000 11242 21253 37806 40412 54000;EQDQ01  00002PRCP99
0189442770999992000020121004+46400+096250FM-12+214799999V0202701N005012200019N9999999N1-02351-02701999999ADDAA199000091GA1001+999999999GF100991001001999999001001MA1999999078041MD1810021+9999REMSYN060AAXX  01211 44277 329// 02705 11235 2127/ 37804 40247 58002;EQDQ01+102473APOSLPQ02  00002PRCP99
0241442770999992000020200004+46400+096250FM-12+214799999V0209999C000012200019N9999999N1-02271-02391103871ADDAA199000091AJ100009199999999GA1001+999999999GF100991001001999999001001IA1229KA1120N-02641MA1999999078021MD1710021+9999REMSYN092AAXX  02001 44277 329// 00000 11227 21239 37802 40387 57002 333 21264 46000 55/// 555 31310;EQDQ01  00002PRCP99
0191442770999992000020203004+46400+096250FM-12+214799999V0209999C000012200019N0200001N1-02761+99999103291ADDAA199000091AY101031AY201031GF101991001001999999001041MA1999999077961MD1710061+9999MW1041REMSYN072AAXX  02031 44277 31998 10000 11276 21188 37796 40329 57006 70400 80004;EQDQ01  00002PRCP99
0163442770999992000020206004+46400+096250FM-12+214799999V0209999C000019999999N0500001N1-01231-01501102392ADDAA199000091GF107991041001999999051071MA1999999077831MD1710161+9999REMSYN066AAXX  02061 44277 32999 70000 11123 21150 37783 40239 57016 84057;EQDQ01  00002PRCP99
0163442770999992000020209004+46400+096250FM-12+214799999V0209999C000019999999N0500001N1-01191-01461102391ADDAA199000091GF107991031001999999051071MA1999999077771MD1710061+9999REMSYN066AAXX  02091 44277 32999 70000 11119 21146 37777 40239 57006 83057;EQDQ01  00002PRCP99
0186442770999992000020212004+46400+096250FM-12+214799999V0209999C000012200019N9999999N1-02011-02071103251ADDAA199000091GF103991021051012501051041KA1999M-01081MA1999999077771MD1410001+9999REMSYN076AAXX  02121 44277 326// 30000 11201 21207 37777 40325 54000 82554 333 11108;EQDQ01  00002PRCP99
0163442770999992000020215004+46400+096250FM-12+214799999V0209999C000012200019N9999999N1-02301-02311103471ADDAA199000091GF102991001001999999001041MA1999999077731MD1710041+9999REMSYN066AAXX  02151 44277 329// 20000 11230 21231 37773 40347 57004 80004;EQDQ01  00002PRCP99
0163442770999992000020218004+46400+096250FM-12+214799999V0209999C000012200019N9999999N1-02291-02291103471ADDAA199000091GF102991001001999999001041MA1999999077681MD1710051+9999REMSYN066AAXX  02181 44277 329// 20000 11229 21229 37768 40347 57005 80004;EQDQ01  00002PRCP99
0163442770999992000020221004+46400+096250FM-12+214799999V0209999C000012200019N9999999N1-02101-02161103101ADDAA199000091GF103991021001999999051041MA1999999077601MD1710081+9999REMSYN066AAXX  02211 44277 329// 30000 11210 21216 37760 40310 57008 82054;EQDQ01  00002PRCP99
0231442770999992000020300004+46400+096250FM-12+214799999V0209999C000010360019N9999999N1+99999+99999102771ADDAA199000091AJ100009199999999GF107991041051008001051041IA1229KA1120N-02461MA1999999077591MD1710011+9999REMSYN098AAXX  03001 44277 325// 70000 11185 2197/ 37759 40277 57001 84554 333 21246 46000 55/// 555 31262;EQDQ01  00002PRCP99
0163442770999992000020303004+46400+096250FM-12+214799999V0202701N005010075019N0500001N1-01351-01551102341ADDAA199000091GF108991071051008001051011MA1999999077591MD1410001+9999REMSYN066AAXX  03031 44277 32599 82705 11135 21155 37759 40234 54000 87551;EQDQ01  00002PRCP99
0163442770999992000020306004+46400+096250FM-12+214799999V0202901N006010120019N0500001N1-01031-01311101911ADDAA199000091GF107991061051012501051001MA1999999077571MD1810021+9999REMSYN066AAXX  03061 44277 32699 72906 11103 21131 37757 40191 58002 86550;EQDQ01  00002PRCP99
0163442770999992000020309004+46400+096250FM-12+214799999V0202701N004010120019N0500001N1-00971-01381101911ADDAA199000091GF107991061051012501051001MA1999999077571MD1410001+9999REMSYN066AAXX  03091 44277 32699 72704 11097 21138 37757 40191 54000 86550;EQDQ01  00002PRCP99
0186442770999992000020312004+46400+096250FM-12+214799999V0209999C000010360019N9999999N1-01721-01841102661ADDAA199000091GF105991041051012501051001KA1999M-00761MA1999999077611MD1310041+9999REMSYN076AAXX  03121 44277 326// 50000 11172 21184 37761 40266 53004 84550 333 11076;EQDQ01  00002PRCP99
0163442770999992000020315004+46400+096250FM-12+214799999V0209999C000012200019N9999999N1-01761-01881102771ADDAA199000091GF103991021051012501051001MA1999999077631MD1210021+9999REMSYN066AAXX  03151 44277 326// 30000 11176 21188 37763 40277 52002 82550;EQDQ01  00002PRCP99
0173442770999992000020318004+46400+096250FM-12+214799999V0203601N002012200019N9999999N1-01711-01771102661ADDAA199000091GA1001+999999999GF100991001001999999001001MA1999999077611MD1810021+9999REMSYN060AAXX  03181 44277 329// 03602 11171 21177 37761 40266 58002;EQDQ01  00002PRCP99
0163442770999992000020321004+46400+096250FM-12+214799999V0203201N002012200019N9999999N1-01801+99999102771ADDAA199000091GF101991011001999999051001MA1999999077631MD1310011+9999REMSYN066AAXX  03211 44277 329// 13202 11180 21119 37763 40277 53001 81050;EQDQ01  00002PRCP99
0247442770999992000020400004+46400+096250FM-12+214799999V0202701N003012200019N9999999N1-02261-02321999999ADDAA199000091AJ100009199999999GF101991011051012501001001IA1229KA1120N-02331MA1999999077671MD1210041+9999REMSYN098AAXX  04001 44277 326// 12703 11226 21232 37767 40347 52004 81500 333 21233 46000 55/// 555 31276;EQDQ01+103473APOSLPQ02  00002PRCP99
0163442770999992000020403004+46400+096250FM-12+214799999V0202701N004012200019N0500001N1-01371-01501102601ADDAA199000091GF101991011001999999051001MA1999999077761MD1210091+9999REMSYN066AAXX  04031 44277 32999 12704 11137 21150 37776 40260 52009 81050;EQDQ01  00002PRCP99
0163442770999992000020406004+46400+096250FM-12+214799999V0202701N005012200019N0500001N1-01011-01291102171ADDAA199000091GF101991011001999999051001MA1999999077801MD1210041+9999REMSYN066AAXX  04061 44277 32999 12705 11101 21129 37780 40217 52004 81050;EQDQ01  00002PRCP99
0163442770999992000020409004+46400+096250FM-12+214799999V0202901N005012200019N0500001N1-01001-01281102301ADDAA199000091GF103991011001999999051041MA1999999077911MD1210111+9999REMSYN066AAXX  04091 44277 32999 32905 11100 21128 37791 40230 52011 81054;EQDQ01  00002PRCP99
0186442770999992000020412004+46400+096250FM-12+214799999V0203201N002012200019N9999999N1-01671-01791103191ADDAA199000091GF101991011001999999051001KA1999M-00951MA1999999077991MD1210081+9999REMSYN076AAXX  04121 44277 329// 13202 11167 21179 37799 40319 52008 81050 333 11095;EQDQ01  00002PRCP99
0173442770999992000020415004+46400+096250FM-12+214799999V0209999C000012200019N9999999N1-01781-01901103291ADDAA199000091GA1001+999999999GF100991001001999999001001MA1999999078031MD1210041+9999REMSYN060AAXX  04151 44277 329// 00000 11178 21190 37803 40329 52004;EQDQ01  00002PRCP99
0163442770999992000020418004+46400+096250FM-12+214799999V0209999C000012200019N9999999N1-01361-01981103271ADDAA199000091GF102991021051012501051021MA1999999077901MD1810131+9999REMSYN066AAXX  04181 44277 326// 20000 11136 21198 37790 40327 58013 82552;EQDQ01  00002PRCP99
0163442770999992000020421004+46400+096250FM-12+214799999V0202701N002010360019N9999999N1-01061-01201102151ADDAA199000091GF108991041051012501051011MA1999999077711MD1710191+9999REMSYN066AAXX  04211 44277 326// 82702 11106 21120 37771 40215 57019 84551;EQDQ01  00002PRCP99
0232442770999992000020500004+46400+096250FM-12+214799999V0202701N016010075019N9999999N1-01151-01181101911ADDAA199000091AJ100009199999999GF107991051051008001051001IA1229KA1120N-02231MD1710131+9999REMSYN098AAXX  05001 44277 325// 72716 11115 21118 3758/ 40191 57013 85550 333 21223 46000 55/// 555 31258;EQDQ01+075803APOSP Q02  00002PRCP99
0161442770999992000020503004+46400+096250FM-12+214799999V0202301N014010042019N0020001N1-01381-01511999999ADDAY131031AY221031GF107991051051004501051001MA1999999077571MD1710011+9999MW1731REMSYN072AAXX  05031 44277 41495 72314 11138 21151 37757 57001 77332 85550 91214;
0154442770999992000020506004+46400+096250FM-12+214799999V0202301N010010360019N0100001N1-01471-01471102341ADDAA199000021AY121061GF107991041051008001051041MA1999999077551MW1001REMSYN076AAXX  05061 44277 32597 72310 11147 21147 37755 40234 7002/ 84554 333 91212;
0161442770999992000020509004+46400+096250FM-12+214799999V0202301N009010360019N0100001N1-01531-01531102441ADDAY121031AY221031GF107991031051004501051041MA1999999077611MD1310061+9999MW1151REMSYN072AAXX  05091 44277 41497 72309 11153 21153 37761 40244 53006 71522 83554;
0173442770999992000020512004+46400+096250FM-12+214799999V0202701N002012200019N9999999N1-01841-01901103161ADDAA112000791GF103991021051012501051041KA1999M-00861MA1999999077861MD1210251+9999REMSYN082AAXX  05121 44277 126// 32702 11184 21190 37786 40316 52025 69902 82554 333 11086;
0144442770999992000020515004+46400+096250FM-12+214799999V0202701N001012200019N9999999N1-02041-02041103641ADDAA199000021GF102991011051012501051001MA1999999078091MD1210231+9999REMSYN066AAXX  05151 44277 326// 22701 11204 21204 37809 40364 52023 81550;
0173442770999992000020518004+46400+096250FM-12+214799999V0209999C000012200019N9999999N1-02461-02461104511ADDAA199000091GA1001+999999999GF100991001001999999001001MA1999999078261MD1210171+9999REMSYN060AAXX  05181 44277 329// 00000 11246 21246 37826 40451 52017;EQDQ01  00002PRCP99
0173442770999992000020521004+46400+096250FM-12+214799999V0209999C000012200019N9999999N1-02511-02511104641ADDAA199000091GA1001+999999999GF100991001001999999001001MA1999999078411MD1210151+9999REMSYN060AAXX  05211 44277 329// 00000 11251 21251 37841 40464 52015;EQDQ01  00002PRCP99
0247442770999992000020600004+46400+096250FM-12+214799999V0202701N001012200019N9999999N1-02521-02581104781ADDAA199000091AJ100009199999999GA1001+999999999GF100991001001999999001001IA1229KA1120N-02601MA1999999078501MD1210091+9999REMSYN098AAXX  06001 44277 329// 02701 11252 21258 37850 40478 52009 333 21260 46000 55/// 555 31290 93100;EQDQ01  00002PRCP99
0189442770999992000020603004+46400+096250FM-12+214799999V0202701N001012200019N0500001N1-01741-01861103962ADDAA199000091GA1001+999999999GF100991001001999999001001MA1999999078581MD1210081+9999REMSYN060AAXX  06031 44277 32999 02701 11174 21186 37858 40396 52008;EQDQ01+103963APOSLPQ02  00002PRCP99
0152442770999992000020606004+46400+096250FM-12+214799999V0202701N001012200019N0500001N1-01021-01381103221ADDAA199000091GA1001+999999999GF100991001001999999001001MD1810031+9999REMSYN054AAXX  06061 44277 32999 02701 11102 21138 40322 58003;EQDQ01  00002PRCP99
0163442770999992000020609004+46400+096250FM-12+214799999V0202701N002019999999N0500001N1-00201-01391102881ADDAA199000091GF107991041001999999051041MA1999999078521MD1710031+9999REMSYN066AAXX  06091 44277 32999 72702 1102/ 21139 37852 40288 57003 84054;EQDQ01  00002PRCP99
0186442770999992000020612004+46400+096250FM-12+214799999V0209999C000012200019N9999999N1-01771-01961103961ADDAA199000091GF103991021051999999051041KA1999M-00761MA1999999078471MD1710051+9999REMSYN076AAXX  06121 44277 329// 30000 11177 21196 37847 40396 57005 82554 333 11076;EQDQ01  00002PRCP99
0173442770999992000020615004+46400+096250FM-12+214799999V0209999C000012200019N0500001N1-01951-02141104041ADDAA199000091GA1001+999999999GF100991001001999999001001MA1999999078351MD1710121+9999REMSYN060AAXX  06151 44277 32999 00000 11195 21214 37835 40404 57012;EQDQ01  00002PRCP99
0173442770999992000020618004+46400+096250FM-12+214799999V0209999C000012200019N9999999N1-01671-02011103581ADDAA199000091GA1001+999999999GF100991001001999999001001MA1999999078261MD1710091+9999REMSYN060AAXX  06181 44277 329// 00000 11167 21201 37826 40358 57009;EQDQ01  00002PRCP99
0173442770999992000020621004+46400+096250FM-12+214799999V0202701N002012200019N9999999N1-01471-01981103101ADDAA199000091GA1001+999999999GF100991001001999999001001MA1999999078141MD1710121+9999REMSYN060AAXX  06211 44277 329// 02702 11147 21198 37814 40310 57012;EQDQ01  00002PRCP99
0241442770999992000020700004+46400+096250FM-12+214799999V0203201N003012200019N9999999N1-01531-02041102971ADDAA199000091AJ100009199999999GA1001+999999999GF100991001001999999001001IA1219KA1120N-02161MA1999999078051MD1710091+9999REMSYN092AAXX  07001 44277 329// 03203 11153 21204 37805 40297 57009 333 21216 45000 55/// 555 31249;EQDQ01  00002PRCP99
0157442770999992000020703004+46400+096250FM-12+214799999V0202701N003012200019N0200001N1-00951-01541102431ADDAA199000091GF101991999999999999999999MA1999999078011MD1710041+9999REMSYN060AAXX  07031 44277 31998 12703 11095 21154 37801 40243 57004;EQDQ01  00002PRCP99
0163442770999992000020706004+46400+096250FM-12+214799999V0203201N007012200019N0500001N1-00431-01281101711ADDAA199000091GF102991011001999999051041MA1999999077931MD1710081+9999REMSYN066AAXX  07061 44277 32999 23207 11043 21128 37793 40171 57008 81054;EQDQ01  00002PRCP99
0163442770999992000020709004+46400+096250FM-12+214799999V0202701N005012200019N0500001N1-00401-01341101711ADDAA199000091GF103991001001999999001041MA1999999077881MD1710051+9999REMSYN066AAXX  07091 44277 32999 32705 11040 21134 37788 40171 57005 80004;EQDQ01  00002PRCP99
0218442770999992000020712004+46400+096250FM-12+214799999V0209999C000012200019N9999999N1+99999-02131999999ADDAA199000091GF102991001001999999001041KA1999M-00361MA1999999077881MD1410001+9999REMSYN076AAXX  07121 44277 329// 20000 11171 21213 37788 40306 54000 80004 333 11036;EQDQ01-001713ATOT  Q02+103063APOSLPQ03  00002PRCP99
0163442770999992000020715004+46400+096250FM-12+214799999V0202701N005012200019N0500001N1-00401-01341101711ADDAA199000091GF103991001001999999001041MA1999999077881MD1710051+9999REMSYN066AAXX  07151 44277 32999 32705 11040 21134 37788 40171 57005 80004;EQDQ01  00002PRCP99
0189442770999992000020721004+46400+096250FM-12+214799999V0209999C000012200019N9999999N1-02132-02311103232ADDAA199000091GA1001+999999999GF100991001001999999001001MA1999999077661MD1710131+9999REMSYN060AAXX  07211 44277 329// 00000 11213 21231 37766 40323 57013;EQDQ01+103233APOSLPQ02  00002PRCP99
0231442770999992000020800004+46400+096250FM-12+214799999V0209999C000012200019N9999999N1-02081-02261103101ADDAA199000091AJ100009199999999GF101991001001999999001041IA1219KA1120N-02171MA1999999077611MD1710051+9999REMSYN098AAXX  08001 44277 329// 10000 11208 21226 37761 40310 57005 80004 333 21217 45000 55/// 555 31254;EQDQ01  00002PRCP99
0163442770999992000020806004+46400+096250FM-12+214799999V0202901N003019999999N0500001N1-00831-01411101711ADDAA199000091GF106991031001999999051021MA1999999077561MD1810051+9999REMSYN066AAXX  08061 44277 32999 62903 11083 21141 37756 40171 58005 83052;EQDQ01  00002PRCP99
0163442770999992000020809004+46400+096250FM-12+214799999V0209999C000019999999N0500001N1-00801-01421101581ADDAA199000091GF105991031001999999051041MA1999999077531MD1710031+9999REMSYN066AAXX  08091 44277 32999 50000 11080 21142 37753 40158 57003 83054;EQDQ01  00002PRCP99
0186442770999992000020812004+46400+096250FM-12+214799999V0202701N002012200019N9999999N1-01621-01961102551ADDAA199000091GF103991031001999999051041KA1999M-00541MA1999999077551MD1310021+9999REMSYN076AAXX  08121 44277 329// 32702 11162 21196 37755 40255 53002 83054 333 11054;EQDQ01  00002PRCP99
0163442770999992000020815004+46400+096250FM-12+214799999V0209999C000012200019N9999999N1-01901-02161102741ADDAA199000091GF102991001001999999001041MA1999999077531MD1810021+9999REMSYN066AAXX  08151 44277 329// 20000 11190 21216 37753 40274 58002 80004;EQDQ01  00002PRCP99
0163442770999992000020818004+46400+096250FM-12+214799999V0209999C000012200019N9999999N1-02161-02161102421ADDAA199000091GF102991001001999999001041MA1999999077531MD1410001+9999REMSYN066AAXX  08181 44277 329// 20000 11216 21216 37753 40242 54000 80004;EQDQ01  00002PRCP99
0163442770999992000020821004+46400+096250FM-12+214799999V0202701N002012200019N9999999N1-01891-02081102741ADDAA199000091GF102991001001999999001041MA1999999077541MD1310011+9999REMSYN066AAXX  08211 44277 329// 22702 11189 21208 37754 40274 53001 80004;EQDQ01  00002PRCP99
0231442770999992000020900004+46400+096250FM-12+214799999V0209999C000012200019N9999999N1-02061-02181103101ADDAA199000091AJ100009199999999GF102991021001999999051001IA1219KA1120N-02121MA1999999077561MD1210021+9999REMSYN098AAXX  09001 44277 329// 20000 11206 21218 37756 40310 52002 82050 333 21212 45000 55/// 555 31243;EQDQ01  00002PRCP99
0163442770999992000020903004+46400+096250FM-12+214799999V0209999C000012200019N0500001N1-00731-01071101611ADDAA199000091GF101991011001999999051001MA1999999077641MD1210081+9999REMSYN066AAXX  09031 44277 32999 10000 11073 21107 37764 40161 52008 81050;EQDQ01  00002PRCP99
0173442770999992000020906004+46400+096250FM-12+214799999V0200501N003012200019N0500001N1-00551-01061101511ADDAA199000091GA1001+999999999GF100991001001999999001001MA1999999077631MD1810011+9999REMSYN060AAXX  09061 44277 32999 00503 11055 21106 37763 40151 58001;EQDQ01  00002PRCP99
0164442770999992000020909004+46400+096250FM-12+214799999V0200501N001012200019N0500001N1-00411-00871101321ADDAA199000091GF101991011001999999051001MD1710031+9999REMSYN066AAXX  09091 44277 32999 10501 11041 21087 3760/ 40132 57003 81050;EQDQ01+076003APOSP Q02  00002PRCP99
0186442770999992000020912004+46400+096250FM-12+214799999V0202901N002012200019N9999999N1-01431-01701102341ADDAA199000091GF101991011001999999051001KA1999M-00301MA1999999077631MD1310031+9999REMSYN076AAXX  09121 44277 329// 12902 11143 21170 37763 40234 53003 81050 333 11030;EQDQ01  00002PRCP99
0173442770999992000020915004+46400+096250FM-12+214799999V0209999C000012200019N9999999N1-01741-01861102791ADDAA199000091GA1001+999999999GF100991001001999999001001MA1999999077881MD1210051+9999REMSYN060AAXX  09151 44277 329// 00000 11174 21186 37788 40279 52005;EQDQ01  00002PRCP99
0173442770999992000020918004+46400+096250FM-12+214799999V0202701N002012200019N9999999N1-01731-01791102791ADDAA199000091GA1001+999999999GF100991001001999999001001MA1999999077701MD1210021+9999REMSYN060AAXX  09181 44277 329// 02702 11173 21179 37770 40279 52002;EQDQ01  00002PRCP99
0173442770999992000020921004+46400+096250FM-12+214799999V0202701N002012200019N9999999N1-01821-01881102901ADDAA199000091GA1001+999999999GF100991001001999999001001MA1999999077681MD1010021+9999REMSYN060AAXX  09211 44277 329// 02702 11182 21188 37768 40290 50002;EQDQ01  00002PRCP99
0202442770999992000021000004+46400+096250FM-12+214799999V0202701N002012200019N9999999N1-01771-01771102901ADDAA199000091GF101991011001999999051001KA1120N-01991MA1999999077671MD1710011+9999REMSYN092AAXX  10001 44277 329// 12702 11177 21177 37767 40290 57001 81050 333 21199 55/// 555 31237;EQDQ01  00002PRCP99
0207442770999992000021003004+46400+096250FM-12+214799999V0209999C000012200019N0200001N1-00961-01081102042ADDAA199000091AY101031AY201031GF101991001001999999001041MA1999999077661MD1710011+9999MW1041REMSYN072AAXX  10031 44277 31998 10000 11096 21108 37766 40204 57001 70400 80004;EQDQ01+102043APOSLPQ02  00002PRCP99
0163442770999992000021006004+46400+096250FM-12+214799999V0209999C000012200019N0500001N1-00181-00711101122ADDAA199000091GF101991001001999999001041MA1999999077641MD1710021+9999REMSYN066AAXX  10061 44277 32999 10000 11018 21071 37764 40112 57002 80004;EQDQ01  00002PRCP99
0179442770999992000021009004+46400+096250FM-12+214799999V0209999C000012200019N0500001N1-00181+99999101121ADDAA199000091GF101991001001999999001041MA1999999077631MD1710011+9999REMSYN066AAXX  10091 44277 32999 10000 11018 21279 37763 40112 57001 80004;EQDQ01-002793ATOD  Q02  00002PRCP99
0196442770999992000021012004+46400+096250FM-12+214799999V0209999C000012200019N9999999N1-01011-01371101911ADDAA199000091GA1001+999999999GF100991001001999999001001KA1999M-00101MA1999999077641MD1310011+9999REMSYN070AAXX  10121 44277 329// 00000 11101 21137 37764 40191 53001 333 11010;EQDQ01  00002PRCP99
0173442770999992000021015004+46400+096250FM-12+214799999V0209999C000012200019N9999999N1-01251-01521102121ADDAA199000091GA1001+999999999GF100991001001999999001001MA1999999077621MD1810021+9999REMSYN060AAXX  10151 44277 329// 00000 11125 21152 37762 40212 58002;EQDQ01  00002PRCP99
0173442770999992000021018004+46400+096250FM-12+214799999V0202701N005012200019N9999999N1-00901-01231101681ADDAA199000091GA1001+999999999GF100991001001999999001001MA1999999077541MD1710081+9999REMSYN060AAXX  10181 44277 329// 02705 1109/ 21123 37754 40168 57008;EQDQ01  00002PRCP99
0163442770999992000021021004+46400+096250FM-12+214799999V0209999C000012200019N9999999N1-00871-01251101681ADDAA199000091GF102991021001999999051001MA1999999077541MD1410001+9999REMSYN066AAXX  10211 44277 329// 20000 11087 21125 37754 40168 54000 82050;EQDQ01  00002PRCP99
0202442770999992000021100004+46400+096250FM-12+214799999V0202701N007019999999N9999999N1-01031-01311101781ADDAA199000091GF106991011051999999051041KA1120N-01331MA1999999077531MD1810011+9999REMSYN092AAXX  11001 44277 329// 62707 11103 21131 37753 40178 58001 81554 333 21133 55/// 555 31195;EQDQ01  00002PRCP99
0163442770999992000021103004+46400+096250FM-12+214799999V0202501N004010360019N0500001N1-00881-01221101811ADDAA199000091GF106991011051012501051021MA1999999077551MD1310021+9999REMSYN066AAXX  11031 44277 32699 62504 11088 21122 37755 40181 53002 81552;EQDQ01  00002PRCP99
0163442770999992000021106004+46400+096250FM-12+214799999V0202701N004019999999N0500001N1-00621-01121101711ADDAA199000091GF106991031001999999051021MA1999999077531MD1810021+9999REMSYN066AAXX  11061 44277 32999 62704 11062 21112 37753 40171 58002 83052;EQDQ01  00002PRCP99
0191442770999992000021109004+46400+096250FM-12+214799999V0202701N003010075019N0100001N1-00801-01161101711ADDAA199000091AY121031AY221031GF107991051051008001051001MA1999999077561MD1310031+9999MW1151REMSYN072AAXX  11091 44277 31597 72703 11080 21116 37756 40171 53003 71522 85550;EQDQ01  00002PRCP99
0201442770999992000021112004+46400+096250FM-12+214799999V0201801N002010075019N9999999N1-01191-01191102251ADDAA112000791AY171061AY221061GF108991081051008001999999KA1999M-00481MA1999999077661MD1210101+9999MW1711REMSYN088AAXX  11121 44277 115// 81802 11119 21119 37766 40225 52010 69902 77172 885// 333 11048;
0180442770999992000021115004+46400+096250FM-12+214799999V0209999C000010075019N9999999N1-01311-01311102361ADDAY171031AY271031GF108991999051008001021999MA1999999077691MD1210031+9999MW1711REMSYN072AAXX  11151 44277 415// 80000 11131 21131 37769 40236 52003 77177 8852/;EQDQ01+000082SCOTLC
0161442770999992000021118004+46400+096250FM-12+214799999V0209999C000010075019N9999999N1-01551-01551102681ADDAY171061AY271061GF108991061051008001071011MA1999999077721MD1210031+9999MW1711REMSYN072AAXX  11181 44277 415// 80000 11155 21155 37772 40268 52003 77177 86571;
0180442770999992000021121004+46400+096250FM-12+214799999V0201801N002010075019N9999999N1-01571-01571102681ADDAY171031AY271031GF108991999051008001021999MA1999999077741MD1210021+9999MW1711REMSYN072AAXX  11211 44277 415// 81802 11157 21157 37774 40268 52002 77177 8852/;EQDQ01+000082SCOTLC
0161442770999992000021203004+46400+096250FM-12+214799999V0202001N003012200019N0500001N1-01771+99999103161ADDAY171031AY211031GF103991011051012501051021MA1999999077921MD1210121+9999MW1021REMSYN072AAXX  12031 44277 41699 32003 11177 21137 37792 40316 52012 70271 81552;
0149442770999992000021206004+46400+096250FM-12+214799999V0209999C000010900019N0500001N1-01531-01591102971ADDGF106991021051012501051041MA1999999077991MD1210071+9999REMSYN082AAXX  12061 44277 42699 60000 11153 21159 37799 40297 52007 82554 555 81004 82004;
0161442770999992000021209004+46400+096250FM-12+214799999V0200501N004010075019N0040001N1-01671-01671103191ADDAY171031AY221031GF107991061051008001071001MA1999999078031MD1210041+9999MW1711REMSYN072AAXX  12091 44277 41596 70504 11167 21167 37803 40319 52004 77172 86570;
0201442770999992000021212004+46400+096250FM-12+214799999V0209999C000010360019N9999999N1-02611+99999104361ADDAA112000791AY171061AY211061GF106991041051008001071001KA1999M-01381MA1999999078091MD1210061+9999MW1021REMSYN088AAXX  12121 44277 115// 60000 11261 2121/ 37809 40436 52006 69902 70271 84570 333 11138;
0144442770999992000021215004+46400+096250FM-12+214799999V0202701N003012200019N9999999N1-02521-02521104381ADDAA199000021GF104991021051008001051001MA1999999078161MD1210071+9999REMSYN066AAXX  12151 44277 325// 42703 11252 21252 37816 40438 52007 82550;
0144442770999992000021218004+46400+096250FM-12+214799999V0202701N002012200019N9999999N1-02631-02631104501ADDAA199000021GF102991021001999999051001MA1999999078151MD1810011+9999REMSYN066AAXX  12181 44277 329// 22702 11263 21263 37815 40450 58001 82050;
0154442770999992000021221004+46400+096250FM-12+214799999V0209999C000012200019N9999999N1-03031-03041104841ADDAA199000021GA1001+999999999GF100991001001999999001001MA1999999078121MD1710031+9999REMSYN060AAXX  12211 44277 329// 00000 11303 21304 37812 40484 57003;
0227442770999992000021300004+46400+096250FM-12+214799999V0209999C000012200019N9999999N1-03171-03181105101ADDAA199000091AJ100059199999999GA1001+999999999GF100991001001999999001001IA1239MA1999999078111MD1710011+9999REMSYN091AAXX  13001 44277 329// 00000 11317 21318 37811 40510 57001 333 31325 47005 55/// 555 3161;EQDQ01  00002PRCP99
0189442770999992000021303004+46400+096250FM-12+214799999V0209999C000012200019N0500001N1-02431-02431104122ADDAA199000091GA1001+999999999GF100991001001999999001001MA1999999078111MD1410001+9999REMSYN060AAXX  13031 44277 32999 00000 11243 21243 37811 40412 54000;EQDQ01+104123APOSLPQ02  00002PRCP99
0179442770999992000021306004+46400+096250FM-12+214799999V0209999C000012200019N0500001N1-01801-01861103422ADDAA199000091GF102991011001999999051041MA1999999078111MD1410001+9999REMSYN066AAXX  13061 44277 32999 20000 11180 21186 37811 40342 54000 81054;EQDQ01+103423APOSLPQ02  00002PRCP99
0173442770999992000021309004+46400+096250FM-12+214799999V0209999C000012200019N0500001N1-02011-02201103641ADDAA199000091GA1001+999999999GF100991001001999999001001MA1999999078101MD1810011+9999REMSYN060AAXX  13091 44277 32999 00000 11201 21220 37810 40364 58001;EQDQ01  00002PRCP99
0196442770999992000021312004+46400+096250FM-12+214799999V0209999C000012200019N9999999N1-02781-02781103621ADDAA199000091GA1001+999999999GF100991001001999999001001KA1999M-01521MA1999999078121MD1210021+9999REMSYN070AAXX  13121 44277 329// 00000 11278 21278 37812 40362 52002 333 11152;EQDQ01  00002PRCP99
0189442770999992000021315004+46400+096250FM-12+214799999V0209999C000012200019N9999999N1-02851+99999104742ADDAA199000091GA1001+999999999GF100991001001999999001001MA1999999078191MD1210041+9999REMSYN060AAXX  13151 44277 329// 00000 11285 21284 37819 40474 52004;EQDQ01+104743APOSLPQ02  00002PRCP99
0173442770999992000021318004+46400+096250FM-12+214799999V0201801N005012200019N9999999N1-02441-02441104261ADDAA199000091GA1001+999999999GF100991001001999999001001MA1999999078191MD1410001+9999REMSYN060AAXX  13181 44277 329// 01805 11244 21244 37819 40426 54000;EQDQ01  00002PRCP99
0173442770999992000021321004+46400+096250FM-12+214799999V0209999C000012200019N9999999N1-02011-02071103781ADDAA199000091GA1001+999999999GF100991001001999999001001MA1999999078191MD1410001+9999REMSYN060AAXX  13211 44277 329// 00000 11201 21207 37819 40378 54000;EQDQ01  00002PRCP99
0241442770999992000021400004+46400+096250FM-12+214799999V0209999C000012200019N9999999N1-02031-02091103781ADDAA199000091AJ100059199999999GA1001+999999999GF100991001001999999001001IA1239KA1120N-03011MA1999999078191MD1410001+9999REMSYN092AAXX  14001 44277 329// 00000 11203 21209 37819 40378 54000 333 21301 47005 55/// 555 31336;EQDQ01  00002PRCP99
0163442770999992000021403004+46400+096250FM-12+214799999V0202701N006012200019N0500001N1-01511-01641103241ADDAA199000091GF101991001001999999001041MA1999999078161MD1810031+9999REMSYN066AAXX  14031 44277 32999 12706 11151 21164 37816 40324 58003 80004;EQDQ01  00002PRCP99
0163442770999992000021406004+46400+096250FM-12+214799999V0202701N001010900019N0500001N1-01161-01291102911ADDAA199000091GF106991011051012501051041MA1999999078161MD1410001+9999REMSYN066AAXX  14061 44277 32699 62701 11116 21129 37816 40291 54000 81554;EQDQ01  00002PRCP99
0163442770999992000021409004+46400+096250FM-12+214799999V0202701N001010360019N0500001N1-01271-01471102881ADDAA199000091GF107991011051012501051041MA1999999078121MD1810041+9999REMSYN066AAXX  14091 44277 32699 72701 11127 21147 37812 40288 58004 81554;EQDQ01  00002PRCP99
0218442770999992000021412004+46400+096250FM-12+214799999V0202301N002012200019N9999999N1-01951-02071103642ADDAA199000091GF102991999001999999051001KA1999M-00731MA1999999078141MD1310021+9999REMSYN076AAXX  14121 44277 3//// 22302 11195 21207 37814 40364 53002 81050 333 11073;EQDQ01+000012SCOTLCQ02+103643APOSLPQ03  00002PRCP99
0163442770999992000021418004+46400+096250FM-12+214799999V0209999C000012200019N9999999N1-02361-02371103991ADDAA199000091GF102991001001999999001021MA1999999077971MD1710131+9999REMSYN066AAXX  14181 44277 329// 20000 11236 21237 37797 40399 57013 80002;EQDQ01  00002PRCP99
0195442770999992000021421004+46400+096250FM-12+214799999V0202701N002012200019N9999999N1-01861-01921999999ADDAA199000091GF102991001001999999001021MA1999999077871MD1710101+9999REMSYN066AAXX  14211 44277 329// 22702 11186 21192 37787 40237 57010 80002;EQDQ01+102373APOSLPQ02  00002PRCP99Q03 102373APOSLP
0247442770999992000021500004+46400+096250FM-12+214799999V0203201N002012200019N9999999N1-02371-02421103732ADDAA199000091AJ100049199999999GF103991021001999999051041IA1239KA1120N-02621MA1999999077801MD1710071+9999REMSYN098AAXX  15001 44277 329// 33202 11237 21242 37780 40373 57007 82054 333 21262 47004 55/// 555 31299;EQDQ01+103733APOSLPQ02  00002PRCP99
0163442770999992000021506004+46400+096250FM-12+214799999V0209999C000012200019N0500001N1-00801-01121101842ADDAA199000091GF101991001001999999001041MA1999999077721MD1710051+9999REMSYN066AAXX  15061 44277 32999 10000 11080 21112 37772 40184 57005 80004;EQDQ01  00002PRCP99
0163442770999992000021509004+46400+096250FM-12+214799999V0209999C000012200019N0500001N1-01031-01231102041ADDAA199000091GF101991001001999999001041MA1999999077681MD1710041+9999REMSYN066AAXX  15091 44277 32999 10000 11103 21123 37768 40204 57004 80004;EQDQ01  00002PRCP99
0202442770999992000021512004+46400+096250FM-12+214799999V0202701N003012200019N9999999N1-01791-01911102772ADDAA199000091GF101991011001999999051001KA1999M-00161MA1999999077651MD1710031+9999REMSYN076AAXX  15121 44277 329// 12703 11179 21191 37765 40277 57003 81050 333 11016;EQDQ01+102773APOSLPQ02  00002PRCP99
0163442770999992000021515004+46400+096250FM-12+214799999V0202701N005019999999N9999999N1-01431-01561102341ADDAA199000091GF107991041001999999071071MA1999999077651MD1410001+9999REMSYN066AAXX  15151 44277 329// 72705 11143 21156 37765 40234 54000 84077;EQDQ01  00002PRCP99
0173442770999992000021518004+46400+096250FM-12+214799999V0209999C000012200019N9999999N1-01531-01661102441ADDAA199000091GA1001+999999999GF100991001001999999001001MA1999999077621MD1810031+9999REMSYN060AAXX  15181 44277 329// 00000 11153 21166 37762 40244 58003;EQDQ01  00002PRCP99
0173442770999992000021521004+46400+096250FM-12+214799999V0202701N003012200019N9999999N1-01631-01761102551ADDAA199000091GA1001+999999999GF100991001001999999001001MA1999999077611MD1710011+9999REMSYN060AAXX  15211 44277 329// 02703 11163 21176 37761 40255 57001;EQDQ01  00002PRCP99
0231442770999992000021600004+46400+096250FM-12+214799999V0202701N002012200019N9999999N1-01901-02021102871ADDAA199000091AJ100039199999999GF103991021001999999051041IA1239KA1120N-02181MA1999999077591MD1710021+9999REMSYN098AAXX  16001 44277 329// 32702 11190 21202 37759 40287 57002 82054 333 21218 47003 55/// 555 31270;EQDQ01  00002PRCP99
0179442770999992000021603004+46400+096250FM-12+214799999V0209999C000019999999N0500001N1-01071-01271102022ADDAA199000091GF106991031001999999051041MA1999999077611MD1310021+9999REMSYN066AAXX  16031 44277 32999 60000 11107 21127 37761 40202 53002 83054;EQDQ01+102023APOSLPQ02  00002PRCP99
0179442770999992000021606004+46400+096250FM-12+214799999V0209999C000019999999N0500001N1-00521-00931101422ADDAA199000091GF106991041001999999051041MA1999999077581MD1810031+9999REMSYN066AAXX  16061 44277 32999 60000 11052 21093 37758 40142 58003 84054;EQDQ01+101423APOSLPQ02  00002PRCP99
0163442770999992000021609004+46400+096250FM-12+214799999V0202701N001010360019N0500001N1-00581-01011101511ADDAA199000091GF107991021051012501051041MA1999999077591MD1310011+9999REMSYN066AAXX  16091 44277 32699 72701 11058 21101 37759 40151 53001 82554;EQDQ01  00002PRCP99
0218442770999992000021612004+46400+096250FM-12+214799999V0209999C000012200019N9999999N1+99999+99999102472ADDAA199000091GF102991001001999999001041KA1999M-00481MA1999999077671MD1210081+9999REMSYN076AAXX  16121 44277 329// 20000 1135/ 21162 37767 40247 52008 80004 333 11048;EQDQ01-003503ATOT  Q02+102473APOSLPQ03  00002PRCP99
0163442770999992000021618004+46400+096250FM-12+214799999V0202701N005019999999N9999999N1-01021-01301102041ADDAA199000091GF107991051001999999071071MA1999999077721MD1210011+9999REMSYN066AAXX  16181 44277 329// 72705 11102 21130 37772 40204 52001 85077;EQDQ01  00002PRCP99
0163442770999992000021621004+46400+096250FM-12+214799999V0202701N004010360019N9999999N1-01171-01441102251ADDAA199000091GF107991031051012501051041MA1999999077701MD1810021+9999REMSYN066AAXX  16211 44277 326// 72704 11117 21144 37770 40225 58002 83554;EQDQ01  00002PRCP99
0231442770999992000021700004+46400+096250FM-12+214799999V0202701N005010075019N9999999N1-01031-01231102041ADDAA199000091AJ100039199999999GF107991061051008001051001IA1239KA1120N-01731MA1999999077731MD1310031+9999REMSYN098AAXX  17001 44277 325// 72705 11103 21123 37773 40204 53003 86550 333 21173 47003 55/// 555 31222;EQDQ01  00002PRCP99
0163442770999992000021703004+46400+096250FM-12+214799999V0201601N003010360019N0500001N1-00941-01151102201ADDAA199000091GF107991041051012501051001MA1999999077931MD1210201+9999REMSYN066AAXX  17031 44277 32699 71603 11094 21115 37793 40220 52020 84550;EQDQ01  00002PRCP99
0191442770999992000021706004+46400+096250FM-12+214799999V0201401N004010075019N0100001N1-01141-01201102541ADDAA199000091AY121061AY221061GF107991061051008001071001MA1999999078051MD1210121+9999MW1151REMSYN072AAXX  17061 44277 31597 71404 11114 21120 37805 40254 52012 71522 86570;EQDQ01  00002PRCP99
0161442770999992000021709004+46400+096250FM-12+214799999V0209999C000010900019N0100001N1-01151-01211102781ADDAY171031AY221031GF105991021051008001051041MA1999999078081MD1210031+9999MW1221REMSYN072AAXX  17091 44277 41597 50000 11115 21121 37808 40278 52003 72272 82554;
0173442770999992000021712004+46400+096250FM-12+214799999V0202301N002012200019N9999999N1-01541-01601103241ADDAA112000791GF103991021051008001051001KA1999M-00891MA1999999078171MD1210091+9999REMSYN082AAXX  17121 44277 425// 32302 11154 21160 37817 40324 52009 69902 82550 333 11089;
0144442770999992000021715004+46400+096250FM-12+214799999V0209999C000012200019N9999999N1-02111-02111103901ADDAA199000021GF102991021001999999051001MA1999999078211MD1210041+9999REMSYN066AAXX  17151 44277 329// 20000 11211 21211 37821 40390 52004 82050;
