0181444780999992000012006004+26480+087270FM-12+0072VNVT V0209999C000010001519N0001001N1+01321+01291101101ADDAY141061AY241061GA1091+999999999GF109991091999999999999999MA1999999100241MD1999999-0281MW1451REMSYN076AAXX  20064 44478 41/01 90000 10132 20129 30024 40110 74544 89/// 333 59028;
0173444780999992000012100004+26480+087270FM-12+0072VNVT V0209999C000010003019N0004001N1+01141+01121101291ADDAY141061GA1091+999999999GF109991091999999999999999MA1999999100431MD1999999+0251MW1471REMSYN076AAXX  21004 44478 41/04 90000 10114 20112 30043 40129 7474/ 89/// 333 58025;
0165444780999992000012106004+26480+087270FM-12+0072VNVT V0200901N004110021019N0015001N1+01801+01501101651ADDAY141061AY241061GF108991081061002501999999MA1999999100791MD1999999+0551MW1101REMSYN076AAXX  21064 44478 41315 80908 10180 20150 30079 40165 71044 886// 333 58055;
0224444780999992000012112004+26480+087270FM-12+0072VNVT V0201201N003112200019N0015001N1+02001+01541101371ADDAA199000091AY141061AY241061GA1001+999999999GF100991001001999999001001KA1120M+02321MA1999999100511MD1999999+0591MW1051REMSYN076AAXX  21124 44478 31915 01206 10200 20154 30051 40137 70544 333 10232 58059;EQDQ01  00002PRCP99
0167444780999992000012200004+26480+087270FM-12+0072VNVT V0200901N002612200019N0015001N1+01301+01271101461ADDAY141061GA1001+999999999GF100991001001999999001001MA1999999100601MD1999999+0171MW1101REMSYN070AAXX  22004 44478 41915 00905 10130 20127 30060 40146 7104/ 333 58017;
0175444780999992000012206004+26480+087270FM-12+0072VNVT V0200901N006212200019N0060001N1+02141+01311101621ADDAY141061AY241061GA1001+999999999GF100991001001999999001001MA1999999100761MD1999999-0031MW1051REMSYN070AAXX  22064 44478 41956 00912 10214 20131 30076 40162 70544 333 59003;
0137444780999992000012406004+26480+087270FM-12+0072VNVT V0200901N005112200019N0100001N1+02121+01411101861ADDGF103991011051008001061001MA1999999101011MD1999999+0351REMSYN070AAXX  24064 44478 42560 30910 10212 20141 30101 40186 81560 333 58035;
0196444780999992000012412004+26480+087270FM-12+0072VNVT V0200901N001012200019N0070001N1+02161+01541101561ADDAA199000091GA1001+999999999GF100991001001999999001001KA1120M+02361MA1999999100681MD1999999+0351REMSYN070AAXX  24124 44478 32957 00902 10216 20154 30068 40156 333 10236 58035;EQDQ01  00002PRCP99
0147444780999992000012606004+26480+087270FM-12+0072VNVT V0209999C000012200019N0100001N1+02271+01401101981ADDGA1001+999999999GF100991001001999999001001MA1999999101121MD1999999-0011REMSYN064AAXX  26064 44478 42960 00000 10227 20140 30112 40198 333 59001;
0196444780999992000012612004+26480+087270FM-12+0072VNVT V0209999C000012200019N0100001N1+02201+01501101531ADDAA199000091GA1001+999999999GF100991001001999999001001KA1120M+02551MA1999999100671MD1999999-0111REMSYN070AAXX  26124 44478 32960 00000 10220 20150 30067 40153 333 10255 59011;EQDQ01  00002PRCP99
0167444780999992000012700004+26480+087270FM-12+0072VNVT V0209999C000012200019N0003001N1+01001+01001101441ADDAY141061GA1001+999999999GF100991001001999999001001MA1999999100581MD1999999-0301MW1461REMSYN070AAXX  27004 44478 41903 00000 10100 20100 30058 40144 7464/ 333 59030;
0175444780999992000012706004+26480+087270FM-12+0072VNVT V0202101N000512200019N0040001N1+02231+01411101731ADDAY141061AY241061GA1001+999999999GF100991001001999999001001MA1999999100881MD1999999-0241MW1051REMSYN070AAXX  27064 44478 41940 02101 10223 20141 30088 40173 70544 333 59024;
0214444780999992000012712004+26480+087270FM-12+0072VNVT V0202701N001010360019N0050001N1+02201+01461101431ADDAA199000091AY141061AY241061GF105991011021008001031001KA1120M+02551MA1999999100581MD1999999-0091MW1051REMSYN082AAXX  27124 44478 31550 52702 10220 20146 30058 40143 70544 81230 333 10255 59009;EQDQ01  00002PRCP99
0167444780999992000012800004+26480+087270FM-12+0072VNVT V0203601N002112200019N0000001N1+01201+01201101341ADDAY141061GA1001+999999999GF100991001001999999001001MA1999999100501MD1999999-0081MW1461REMSYN070AAXX  28004 44478 41900 03604 10120 20120 30050 40134 7464/ 333 59008;
0154444780999992000012806004+26480+087270FM-12+0072VNVT V0201801N001012200019N0020001N1+02071+01451100741ADDAY141061AY241061GA1001+999999999GF100991001001999999001001MD1999999-0141MW1101REMSYN064AAXX  28064 44478 41920 01802 10207 20145 40074 71044 333 59014;
0224444780999992000012812004+26480+087270FM-12+0072VNVT V0202701N001012200019N0050001N1+02201+01581101171ADDAA199000091AY101061AY201061GA1001+999999999GF100991001001999999001001KA1120M+02501MA1999999100321MD1999999-0261MW1051REMSYN076AAXX  28124 44478 31950 02702 10220 20158 30032 40117 70500 333 10250 59026;EQDQ01  00002PRCP99
0167444780999992000012900004+26480+087270FM-12+0072VNVT V0202701N000512200019N0010001N1+01071+01041101261ADDAY141061GA1001+999999999GF100991001001999999001001MA1999999100421MD1999999-0081MW1411REMSYN070AAXX  29004 44478 41910 02701 10107 20104 30042 40126 7414/ 333 59008;
0167444780999992000013100004+26480+087270FM-12+0072VNVT V0209999C000012200019N0005001N1+01051+01031101751ADDAY141061GA1001+999999999GF100991001001999999001001MA1999999100891MD1999999+0151MW1411REMSYN070AAXX  31004 44478 41905 00000 10105 20103 30089 40175 7414/ 333 58015;
0224444780999992000013103004+26480+087270FM-12+0072VNVT V0209999C000012200019N0015001N1+01271+01251102001ADDAA199000091AY141031AY241031GA1001+999999999GF100991001001999999001001KA1120N+01021MA1999999101141MD1999999+0151MW1101REMSYN076AAXX  31034 44478 31915 00000 10127 20125 30114 40200 71044 333 20102 58015;EQDQ01  00002PRCP99
0175444780999992000013106004+26480+087270FM-12+0072VNVT V0200901N005112200019N0040001N1+02201+01441102001ADDAY141061AY241061GA1001+999999999GF100991001001999999001001MA1999999101141MD1999999+0131MW1051REMSYN070AAXX  31064 44478 41940 00910 10220 20144 30114 40200 70544 333 58013;
0157444780999992000020100004+26480+087270FM-12+0072VNVT V0209999C000012200019N0010001N1+00871+00851101541ADDAY121061GF104991001001999999001061MA1999999100701MD1999999-0191MW1411REMSYN076AAXX  01004 44478 41910 40000 10087 20085 30070 40154 7412/ 80006 333 59019;
0181444780999992000020103004+26480+087270FM-12+0072VNVT V0209999C000012200019N0015001N1+01231+01151101781ADDAA199000091AY141031AY221031GF104991001001999999001061MA1999999100921MW1101REMSYN076AAXX  01034 44478 31915 40000 10123 20115 30092 40178 71042 80006 333 2/81/;EQDQ01  00002PRCP99
0116444780999992000020106004+26480+087270FM-12+0072VNVT V02099999999999999999N0100001N1+02251+99999999999ADDGF105991001001999999081999MD1999999-0211REMSYN064AAXX  01064 44478 42960 5091/ 10225 300/3 40/79 8008/ 333 59021;
0165444780999992000020809004+26480+087270FM-12+0072VNVT V0202101N004110012019N0100001N1+01721+01561101261ADDAY141031AY241031GF108991081061001501999999MA1999999100371MD1999999+0151MW1101REMSYN076AAXX  08094 44478 41260 82108 10172 20156 30037 40126 71044 886// 333 58015;
0214444780999992000020812004+26480+087270FM-12+0072VNVT V0202701N002610021019N0030001N1+01781+01441101151ADDAA199000091AY141061AY221061GF107991071061002501001001KA1120M+01851MA1999999100301MD1999999+0091MW1101REMSYN082AAXX  08124 44478 31330 72705 10178 20144 30030 40115 71042 87600 333 10185 58009;EQDQ01  00002PRCP99
0224444780999992000021103004+26480+087270FM-12+0072VNVT V0209999C000012200019N0015001N1+01141+01111101601ADDAA199000091AY141031AY241031GA1001+999999999GF100991001001999999001001KA1120N+00721MA1999999100741MD1999999+0071MW1101REMSYN076AAXX  11034 44478 31915 00000 10114 20111 30074 40160 71044 333 20072 58007;EQDQ01  00002PRCP99
0175444780999992000021406004+26480+087270FM-12+0072VNVT V0202701N005112200019N0050001N1+02281+01351101581ADDAY141061AY241061GA1001+999999999GF100991001001999999001001MA1999999100731MD1999999+0071MW1051REMSYN070AAXX  14064 44478 41950 02710 10228 20135 30073 40158 70544 333 58007;
0147444780999992000021409004+26480+087270FM-12+0072VNVT V0202701N007712200019N0150001N1+02541+00501101281ADDGA1001+999999999GF100991001001999999001001MA1999999100441MD1999999+0131REMSYN064AAXX  14094 44478 42965 02715 10254 20050 30044 40128 333 58013;
0196444780999992000021412004+26480+087270FM-12+0072VNVT V0202701N004112200019N0080001N1+02181+00661101251ADDAA199000091GA1001+999999999GF100991001001999999001001KA1120M+02641MA1999999100411MD1999999+0141REMSYN070AAXX  14124 44478 32958 02708 10218 20066 30041 40125 333 10264 58014;EQDQ01  00002PRCP99
0196444780999992000021512004+26480+087270FM-12+0072VNVT V0202701N001012200019N0080001N1+02201+01011101151ADDAA199000091GA1001+999999999GF100991001001999999001001KA1120M+02401MA1999999100341MD1999999-0071REMSYN070AAXX  15124 44478 32958 02702 10220 20101 30034 40115 333 10240 59007;EQDQ01  00002PRCP99
0224444780999992000021803004+26480+087270FM-12+0072VNVT V0209999C000012200019N0010001N1+01221+01181101181ADDAA199000091AY141031AY241031GA1001+999999999GF100991001001999999001001KA1120N+00951MA1999999100341MD1999999-0031MW1421REMSYN076AAXX  18034 44478 31910 00000 10122 20118 30034 40118 74244 333 20095 59003;EQDQ01  00002PRCP99
0175444780999992000021806004+26480+087270FM-12+0072VNVT V0202701N002112200019N0030001N1+02201+01201101261ADDAY141061AY241061GA1001+999999999GF100991001001999999001001MA1999999100421MD1999999+0091MW1101REMSYN070AAXX  18064 44478 41930 02704 10220 20120 30042 40126 71044 333 58009;
0147444780999992000021809004+26480+087270FM-12+0072VNVT V0202701N005112200019N0070001N1+02561+01231101061ADDGA1001+999999999GF100991001001999999001001MA1999999100171MD1999999+0101REMSYN064AAXX  18094 44478 42957 02710 10256 20123 30017 40106 333 58010;
0167444780999992000021900004+26480+087270FM-12+0072VNVT V0209999C000012200019N0015001N1+00621+00531101071ADDAY141061GA1001+999999999GF100991001001999999001001MA1999999100221MD1999999+0011MW1101REMSYN070AAXX  19004 44478 41915 00000 10062 20053 30022 40107 7104/ 333 58001;
0175444780999992000021906004+26480+087270FM-12+0072VNVT V0201801N000512200019N0030001N1+02101+00991101401ADDAY141061AY241061GA1001+999999999GF100991001001999999001001MA1999999100541MD1999999+0121MW1051REMSYN070AAXX  19064 44478 41/30 01801 10210 20099 30054 40140 70544 333 58012;
0157444780999992000022100004+26480+087270FM-12+0072VNVT V0209999C000012200019N0015001N1+00721+00591101251ADDAY141061GF104991041999999999031001MA1999999100401MD1999999+0141MW1101REMSYN076AAXX  21004 44478 41915 40000 10072 20059 30040 40125 7104/ 84/30 333 58014;
0198444780999992000022103004+26480+087270FM-12+0072VNVT V0203601N001012200019N0015001N1+00951+00791101471ADDAA199000091GF104991041001999999031001KA1120N+00721MA1999999100611MD1999999+0161MW1101REMSYN082AAXX  21034 44478 31915 43602 10095 20079 30061 40147 710/2 84030 333 20072 58016;EQDQ01  00002PRCP99
0184444780999992000022106004+26480+087270FM-12+0072VNVT V0200901N003112200019N0020001N1+02382+00691101591ADDAY141061AY221061GF103991031001001501031001MA1999999100731MD1999999+0151MW1011REMSYN076AAXX  21064 44478 41295 30906 10238 20069 30073 40159 70142 83030 333 58015;EQDQ01+002383ATOT  
0224444780999992000022203004+26480+087270FM-12+0072VNVT V0200501N000512200019N0015001N1+01261+01031101621ADDAA199000091AY141031AY241031GA1001+999999999GF100991001001999999001001KA1120N+00741MA1999999100761MD1999999+0151MW1101REMSYN076AAXX  22034 44478 31915 00501 10126 20103 30076 40162 71044 333 20074 58015;EQDQ01  00002PRCP99
0147444780999992000022206004+26480+087270FM-12+0072VNVT V0200901N002612200019N0060001N1+02261+00971101701ADDGA1001+999999999GF100991001001999999001001MA1999999100841MD1999999+0111REMSYN064AAXX  22064 44478 42956 00905 10226 20097 30084 40170 333 58011;
0224444780999992000022212004+26480+087270FM-12+0072VNVT V0201201N002112200019N0050001N1+02301+01041101311ADDAA199000091AY101061AY201061GA1001+999999999GF100991001001999999001001KA1120M+02601MA1999999100451MD1999999+0061MW1051REMSYN076AAXX  22124 44478 31950 01204 10230 20104 30045 40131 70500 333 10260 58006;EQDQ01  00002PRCP99
0224444780999992000030912004+26480+087270FM-12+0072VNVT V0202701N004112200019N0050001N1+02401+01301100431ADDAA199000091AY141061AY241061GA1001+999999999GF100991001001999999001001KA1120M+02801MA1999999099591MD1999999-0101MW1051REMSYN076AAXX  09124 44478 31950 02708 10240 20130 39959 40043 70544 333 10280 59010;EQDQ01  00002PRCP99
0105444780999992000031106004+26480+087270FM-12+0072VNVT V0200901N002619999999N0080001N1+02531-01501101001ADDMA1999999100241MD1999999+0091REMSYN064AAXX  11064 44478 /2958 /0905 10253 2115/ 30024 4010/ 333 58009;
0112444780999992000031309004+26480+087270FM-12+0072VNVT V0200901N005112200019N9999999N1+02001+99999999999ADDGA1001+999999999GF100991001001999999001001REMSYN058AAXX  13094 44478 42/6/ 00910 10200 201=7 3996/ 40053 333;
0195444780999992000031403004+26480+087270FM-12+0072VNVT V0203601N002119999999N0040001N1+01941+01691100951ADDAA124000191AY181031AY221031GF106991999999008001999999KA1120N+01601MA1999999100111MD1999999+0081MW1051REMSYN082AAXX  14034 44478 21540 63604 10194 20169 30011 40095 70582 333 20160 58008 69924;
0147444780999992000031406004+26480+087270FM-12+0072VNVT V0201401N003112200019N0100001N1+02611+01671101011ADDGA1001+999999999GF100991001001999999001001MA1999999100171MD1999999+0191REMSYN064AAXX  14064 44478 42960 01406 10261 20167 30017 40101 333 58019;
0137444780999992000031409004+26480+087270FM-12+0072VNVT V0202701N005112200019N0100001N1+02921+01481100691ADDGF102991021021008001001001MA1999999099851MD1999999+0161REMSYN070AAXX  14094 44478 42560 22710 10292 20148 39985 40069 82200 333 58016;
0137444780999992000031509004+26480+087270FM-12+0072VNVT V0202701N003112200019N0080001N1+02901+01181100631ADDGF101991011021008001001001MA1999999099791MD1999999-0101REMSYN070AAXX  15094 44478 42558 12706 10290 20118 39979 40063 81200 333 59010;
0196444780999992000031512004+26480+087270FM-12+0072VNVT V0202701N003112200019N0150001N1+02581+01061100551ADDAA199000091GA1001+999999999GF100991001001999999001001KA1120M+02971MA1999999099711MD1999999-0081REMSYN070AAXX  15124 44478 32965 02706 10258 20106 39971 40055 333 10297 59008;EQDQ01  00002PRCP99
0157444780999992000031600004+26480+087270FM-12+0072VNVT V0209999C000012200019N0020001N1+01241+01111100711ADDAY121061GF104991041001999999051001MA1999999099871MD1999999-0091MW1101REMSYN076AAXX  16004 44478 41920 40000 10124 20111 39987 40071 7102/ 84050 333 59009;
0224444780999992000031603004+26480+087270FM-12+0072VNVT V0200901N001012200019N0025001N1+01891+01231100961ADDAA199000091AY141031AY241031GA1001+999999999GF100991001001999999001001KA1120N+01201MA1999999100121MD1999999-0071MW1101REMSYN076AAXX  16034 44478 31925 00902 10189 20123 30012 40096 71044 333 20120 59007;EQDQ01  00002PRCP99
0147444780999992000031609004+26480+087270FM-12+0072VNVT V0202701N003112200019N0080001N1+02941+01101100581ADDGA1001+999999999GF100991001001999999001001MA1999999099741MD1999999-0051REMSYN064AAXX  16094 44478 42958 02706 10294 20110 39974 40058 333 59005;
0196444780999992000031612004+26480+087270FM-12+0072VNVT V0202701N002112200019N0060001N1+02641+01221100581ADDAA199000091GA1001+999999999GF100991001001999999001001KA1120M+02961MA1999999099741MD1999999+0031REMSYN070AAXX  16124 44478 32956 02704 10264 20122 39974 40058 333 10296 58003;EQDQ01  00002PRCP99
0125444780999992000031700004+26480+087270FM-12+0072VNVT V0200901N001019999999N0030001N1+01401+01141100611ADDAY141061MA1999999099771MD1999999-0101MW1101REMSYN070AAXX  17004 44478 41930 /0902 1014/ 20114 39977 40061 7104/ 333 59010;
0147444780999992000031706004+26480+087270FM-12+0072VNVT V0200901N005112200019N0100001N1+02721+01171100311ADDGA1001+999999999GF100991001001999999001001MA1999999100071MD1999999-0051REMSYN064AAXX  17064 44478 42960 00910 10272 20117 30007 40031 333 59005;
0147444780999992000031709004+26480+087270FM-12+0072VNVT V0202701N003112200019N0100001N1+02961+01261100591ADDGA1001+999999999GF100991001001999999001001MA1999999099751MD1999999-0061REMSYN064AAXX  17094 44478 42960 02706 10296 20126 39975 40059 333 59006;
0196444780999992000031712004+26480+087270FM-12+0072VNVT V0202701N003112200019N0100001N1+02761+01361100491ADDAA199000091GA1001+999999999GF100991001001999999001001KA1120M+03001MA1999999099651MD1999999-0091REMSYN070AAXX  17124 44478 32960 02706 10276 20136 39965 40049 333 10300 59009;EQDQ01  00002PRCP99
0167444780999992000031800004+26480+087270FM-12+0072VNVT V0200901N002112200019N0040001N1+01641+01281100801ADDAY141061GA1001+999999999GF100991001001999999001001MA1999999099961MD1999999+0191MW1051REMSYN070AAXX  18004 44478 41940 00904 10164 20128 39996 40080 7054/ 333 58019;
0196444780999992000031812004+26480+087270FM-12+0072VNVT V0209999C000012200019N0100001N1+02911+01431100581ADDAA199000091GA1001+999999999GF100991001001999999001001KA1120M+03051MA1999999099741MD1999999+0091REMSYN070AAXX  18124 44478 32960 00000 10291 20143 39974 40058 333 10305 58009;EQDQ01  00002PRCP99
0175444780999992000031900004+26480+087270FM-12+0072VNVT V0209999C000012200019N0050001N1+01761+01351100821ADDAY141061AY211061GA1001+999999999GF100991001001999999001001MA1999999099981MD1999999+0021MW1051REMSYN070AAXX  19004 44478 41950 00000 10176 20135 39998 40082 70541 333 58002;
0196444780999992000031912004+26480+087270FM-12+0072VNVT V0202701N004112200019N0100001N1+02921+01531100581ADDAA199000091GA1001+999999999GF100991001001999999001001KA1120M+03221MA1999999099741MD1999999+0001REMSYN070AAXX  19124 44478 32960 02708 10292 20153 39974 40058 333 10322 58000;EQDQ01  00002PRCP99
0167444780999992000032000004+26480+087270FM-12+0072VNVT V0209999C000012200019N0025001N1+01281+01131100751ADDAY141061GA1001+999999999GF100991001001999999001001MA1999999099911MD1999999-0071MW1011REMSYN070AAXX  20004 44478 41925 00000 10128 20113 39991 40075 7014/ 333 59007;
0147444780999992000032006004+26480+087270FM-12+0072VNVT V0202701N004112200019N0060001N1+02911+00831101051ADDGA1001+999999999GF100991001001999999001001MA1999999100211MD1999999-0011REMSYN064AAXX  20064 44478 42956 02708 10291 20083 30021 40105 333 59001;
0141444780999992000032009004+26480+087270FM-12+0072VNVT V0202701N003112200019N0080001N1+03141+01081999999ADDGA1001+999999999GF100991001001999999001001MA1999999099861MD1999999-0051REMSYN058AAXX  20094 44478 42958 02706 10314 20108 39986 333 59005;
0196444780999992000032012004+26480+087270FM-12+0072VNVT V0202701N002112200019N0080001N1+02801+01051100671ADDAA199000091GA1001+999999999GF100991001001999999001001KA1120M+03201MA1999999099831MD1999999+0091REMSYN070AAXX  20124 44478 32958 02704 10280 20105 39983 40067 333 10320 58009;EQDQ01  00002PRCP99
0167444780999992000032100004+26480+087270FM-12+0072VNVT V0209999C000012200019N0020001N1+01121+01051101021ADDAY141061GA1001+999999999GF100991001001999999001001MA1999999100181MD1999999+0271MW1101REMSYN070AAXX  21004 44478 41920 00000 10112 20105 30018 40102 7104/ 333 58027;
0147444780999992000032109004+26480+087270FM-12+0072VNVT V0202701N004112200019N0080001N1+03221+01021101031ADDGA1001+999999999GF100991001001999999001001MA1999999100191MD1999999+0261REMSYN064AAXX  21094 44478 42958 02708 10322 20102 30019 40103 333 58026;
0186444780999992000100312004+26480+087270FM-12+0072VNVT V0209999C000012200019N0250001N1+03141+02421100611ADDAA199000091GF101991011011008001001001KA1120M+03321MA1999999099791MD1999999-0021REMSYN076AAXX  03124 44478 32575 10000 10314 20242 39979 40061 81100 333 10332 59002;EQDQ01  00002PRCP99
0137444780999992000100400004+26480+087270FM-12+0072VNVT V0200701N001010360019N0150001N1+02501+02431100871ADDGF106991041081008001071001MA1999999100051MD1999999-0041REMSYN070AAXX  04004 44478 42565 60702 10250 20243 30005 40087 84870 333 59004;
0186444780999992000100403004+26480+087270FM-12+0072VNVT V0200901N001012200019N0200001N1+02831+02511100981ADDAA199000091GF102991011021008001031001KA1120N+02501MA1999999100161MD1999999-0091REMSYN076AAXX  04034 44478 32570 20902 10283 20251 30016 40098 81230 333 20250 59009;EQDQ01  00002PRCP99
0137444780999992000100409004+26480+087270FM-12+0072VNVT V0201201N001012200019N0200001N1+03351+02321100581ADDGF103991031021008001001001MA1999999099761MD1999999-0131REMSYN070AAXX  04094 44478 42570 31202 10335 20232 39976 40058 83200 333 59013;
0186444780999992000100412004+26480+087270FM-12+0072VNVT V0200901N002110360019N0150001N1+02861+02361100601ADDAA199000091GF105991031091008001031001KA1120M+03421MA1999999099731MD1999999-0011REMSYN076AAXX  04124 44478 32565 50904 10286 20236 39973 40060 83930 333 10342 59001;EQDQ01  00002PRCP99
0137444780999992000100500004+26480+087270FM-12+0072VNVT V0209999C000012200019N0060001N1+02441+02411100971ADDGF103991031091008001061001MA1999999100151MD1999999+0101REMSYN070AAXX  05004 44478 42556 30000 10244 20241 30015 40097 83960 333 58010;
0173444780999992000100503004+26480+087270FM-12+0072VNVT V0200901N001012200019N0100001N1+02631+02471101161ADDAA124011991GF104991021051008001051001KA1120N+02401MA1999999100341MD1999999+0181REMSYN082AAXX  05034 44478 22560 40902 10263 20247 30034 40116 82550 333 20240 58018 60124;
0137444780999992000100506004+26480+087270FM-12+0072VNVT V0202001N001012200019N0150001N1+03121+02471101021ADDGF103991031021008001001001MA1999999100201MD1999999+0111REMSYN070AAXX  05064 44478 42565 32002 10312 20247 30020 40102 83200 333 58011;
0137444780999992000100509004+26480+087270FM-12+0072VNVT V0209999C000012200019N0150001N1+03401+02561100671ADDGF103991031021008001001011MA1999999099851MD1999999+0091REMSYN070AAXX  05094 44478 42565 30000 10340 20256 39985 40067 83201 333 58009;
0165444780999992000100600004+26480+087270FM-12+0072VNVT V0209999C000010360019N0050001N1+02551+02471101051ADDAY121061AY211061GF107991041091008001071001MA1999999100231MD1999999+0081MW1171REMSYN076AAXX  06004 44478 41550 70000 10255 20247 30023 40105 71721 84970 333 58008;
0186444780999992000100603004+26480+087270FM-12+0072VNVT V0209999C000012200019N0150001N1+02921+02651101181ADDAA199000091GF104991021051008001041011KA1120N+02551MA1999999100361MD1999999+0021REMSYN076AAXX  06034 44478 32565 40000 10292 20265 30036 40118 82541 333 20255 58002;EQDQ01  00002PRCP99
0137444780999992000100609004+26480+087270FM-12+0072VNVT V0209999C000012200019N0150001N1+03401+02561100661ADDGF103991031021008001001001MA1999999099841MD1999999+0011REMSYN070AAXX  06094 44478 42565 30000 10340 20256 39984 40066 83200 333 58001;
0186444780999992000100612004+26480+087270FM-12+0072VNVT V0209999C000012200019N0150001N1+03221+02481100691ADDAA199000091GF101991011021008001001001KA1120M+03461MA1999999099871MD1999999+0001REMSYN076AAXX  06124 44478 32565 10000 10322 20248 39987 40069 81200 333 10346 58000;EQDQ01  00002PRCP99
0196444780999992000100903004+26480+087270FM-12+0072VNVT V0200901N001012200019N0100001N1+02761+02531100741ADDAA199000091GA1001+999999999GF100991001001999999001001KA1120N+02401MA1999999099921MD1999999-0171REMSYN070AAXX  09034 44478 32960 00902 10276 20253 39992 40074 333 20240 59017;EQDQ01  00002PRCP99
0137444780999992000100906004+26480+087270FM-12+0072VNVT V0203001N001012200019N0150001N1+03221+02521100681ADDGF102991021021008001001001MA1999999099861MD1999999-0151REMSYN070AAXX  09064 44478 42565 23002 10322 20252 39986 40068 82200 333 59015;
0137444780999992000100909004+26480+087270FM-12+0072VNVT V0202701N002112200019N0150001N1+03421+02301100301ADDGF102991021021008001001001MA1999999099481MD1999999-0121REMSYN070AAXX  09094 44478 42565 22704 10342 20230 39948 40030 82200 333 59012;
0157444780999992000101000004+26480+087270FM-12+0072VNVT V0209999C000012200019N0030001N1+02401+02341100721ADDAY121061GF104991041051008001001001MA1999999099901MD1999999-0141MW1101REMSYN076AAXX  10004 44478 42530 40000 10240 20234 39990 40072 7102/ 84500 333 59014;
0186444780999992000101003004+26480+087270FM-12+0072VNVT V0200501N001012200019N0100001N1+02681+02341100851ADDAA199000091GF102991021021008001001001KA1120N+02401MA1999999100031MD1999999+0111REMSYN076AAXX  10034 44478 32560 20502 10268 20234 30003 40085 82200 333 20240 58011;EQDQ01  00002PRCP99
0186444780999992000101012004+26480+087270FM-12+0072VNVT V0209999C000012200019N0100001N1+03001+02431100411ADDAA199000091GF101991011041008001001001KA1120M+03421MA1999999099591MD1999999+0111REMSYN076AAXX  10124 44478 32560 10000 10300 20243 39959 40041 81400 333 10342 58011;EQDQ01  00002PRCP99
0137444780999992000101100004+26480+087270FM-12+0072VNVT V0200901N004110120019N9999999N1+02351+02211100871ADDGF107991071051012501001001MA1999999100051MD1999999+0151REMSYN070AAXX  11004 44478 2565/ 70908 10235 20221 30005 40087 87500 333 58015;
0186444780999992000101103004+26480+087270FM-12+0072VNVT V0200901N002610042019N0150001N1+02481+02241101021ADDAA199000091GF106991061051004501001001KA1120N+02351MA1999999100201MD1999999+0171REMSYN076AAXX  11034 44478 32465 60905 10248 20224 30020 40102 86500 333 20235 58017;EQDQ01  00002PRCP99
0137444780999992000101106004+26480+087270FM-12+0072VNVT V0201801N000512200019N0150001N1+03061+02371100941ADDGF102991021021008001001001MA1999999100121MD1999999+0171REMSYN070AAXX  11064 44478 42565 21801 10306 20237 30012 40094 82200 333 58017;
0137444780999992000101109004+26480+087270FM-12+0072VNVT V0202701N001012200019N0150001N1+03161+02461100511ADDGF103991031021008001001001MA1999999099691MD1999999+0081REMSYN070AAXX  11094 44478 42565 32702 10316 20246 39969 40051 83200 333 58008;
0186444780999992000101203004+26480+087270FM-12+0072VNVT V0200901N000512200019N0080001N1+02821+02521101031ADDAA199000091GF104991041061002501001001KA1120N+02381MA1999999100211MD1999999+0011REMSYN076AAXX  12034 44478 32358 40901 10282 20252 30021 40103 84600 333 20238 58001;EQDQ01  00002PRCP99
0137444780999992000101206004+26480+087270FM-12+0072VNVT V0209999C000012200019N0150001N1+03191+02521100891ADDGF103991031021008001001001MA1999999100071MD1999999-0051REMSYN070AAXX  12064 44478 42565 30000 10319 20252 30007 40089 83200 333 59005;
0196444780999992000101303004+26480+087270FM-12+0072VNVT V0200901N001012200019N0100001N1+02701+02351100761ADDAA199000091GA1001+999999999GF100991001001999999001001KA1120N+02421MA1999999099941MD1999999-0271REMSYN070AAXX  13034 44478 32960 00902 1027/ 20235 39994 40076 333 20242 59027;EQDQ01  00002PRCP99
0137444780999992000101309004+26480+087270FM-12+0072VNVT V0203601N001012200019N0150001N1+03301+02461100171ADDGF103991031021008001001001MA1999999099351MD1999999-0291REMSYN070AAXX  13094 44478 42565 33602 10330 20246 39935 40017 83200 333 59029;
0224444780999992000101312004+26480+087270FM-12+0072VNVT V0209999C000012200019N0040001N1+02921+02471100211ADDAA199000091AY101061AY201061GA1001+999999999GF100991001001999999001001KA1120M+03401MA1999999099391MD1999999-0171MW1051REMSYN076AAXX  13124 44478 31940 00000 10292 20247 39939 40021 70500 333 10340 59017;EQDQ01  00002PRCP99
0167444780999992000101900004+26480+087270FM-12+0072VNVT V0209999C000012200019N0030001N1+02101+02071100821ADDAY141061GA1001+999999999GF100991001001999999001001MA1999999100001MD1999999+0051MW1101REMSYN070AAXX  19004 44478 41930 00000 10210 20207 30000 40082 7104/ 333 58005;
0196444780999992000101903004+26480+087270FM-12+0072VNVT V0200901N001012200019N0150001N1+02631+02271100971ADDAA199000091GA1001+999999999GF100991001001999999001001KA1120N+02101MA1999999100151MD1999999+0071REMSYN070AAXX  19034 44478 32965 00902 10263 20227 30015 40097 333 20210 58007;EQDQ01  00002PRCP99
0137444780999992000101906004+26480+087270FM-12+0072VNVT V0200901N001012200019N0150001N1+03161+02291100881ADDGF102991021021008001001001MA1999999100061MD1999999+0091REMSYN070AAXX  19064 44478 42565 20902 10316 20229 30006 40088 82200 333 58009;
0186444780999992000102003004+26480+087270FM-12+0072VNVT V0200901N001012200019N0150001N1+02481+02211100961ADDAA199000091GF102991021021008001001001KA1120N+02071MA1999999100141MD1999999-0011REMSYN076AAXX  20034 44478 32565 20902 10248 20221 30014 40096 82200 333 20207 59001;EQDQ01  00002PRCP99
0137444780999992000102006004+26480+087270FM-12+0072VNVT V0200901N001012200019N0150001N1+03141+02181100911ADDGF101991011021008001001001MA1999999100091MD1999999+0031REMSYN070AAXX  20064 44478 42565 10902 10314 20218 30009 40091 81200 333 58003;
0137444780999992000102009004+26480+087270FM-12+0072VNVT V0201201N001012200019N0150001N1+03221+02021100541ADDGF103991031011008001001001MA1999999099721MD1999999+0031REMSYN070AAXX  20094 44478 42565 31202 10322 20202 39972 40054 83100 333 58003;
0186444780999992000102012004+26480+087270FM-12+0072VNVT V0209999C000012200019N0100001N1+02901+02291100521ADDAA199000091GF101991011021008001001001KA1120M+03401MA1999999099701MD1999999+0091REMSYN076AAXX  20124 44478 32560 10000 10290 20229 39970 40052 81200 333 10340 58009;EQDQ01  00002PRCP99
0196444780999992000102103004+26480+087270FM-12+0072VNVT V0200901N001012200019N0100001N1+02521+02221100951ADDAA199000091GA1001+999999999GF100991001001999999001001KA1120N+02101MA1999999100131MD1999999-0011REMSYN070AAXX  21034 44478 32960 00902 10252 20222 30013 40095 333 20210 59001;EQDQ01  00002PRCP99
0186444780999992000102212004+26480+087270FM-12+0072VNVT V0209999C000012200019N0100001N1+02801+02241100461ADDAA199000091GF104991041021008001001001KA1120M+03241MA1999999099641MD1999999-0061REMSYN076AAXX  22124 44478 32560 40000 10280 20224 39964 40046 84200 333 10324 59006;EQDQ01  00002PRCP99
0157444780999992000102300004+26480+087270FM-12+0072VNVT V0200401N001010360019N0050001N1+02131+02091100721ADDAY121061GF105991031051008001041999MA1999999099901MD1999999-0111MW1051REMSYN076AAXX  23004 44478 41550 50402 10213 20209 39990 40072 7052/ 8354/ 333 59011;
0173444780999992000102303004+26480+087270FM-12+0072VNVT V0209999C000010360019N0100001N1+02471+02171100881ADDAA124002091GF106991041051008001031011KA1120N+02101MA1999999100061MD1999999-0091REMSYN082AAXX  23034 44478 22560 60000 10247 20217 30006 40088 84531 333 20210 59009 60024;
0137444780999992000102306004+26480+087270FM-12+0072VNVT V0203601N001012200019N0150001N1+02761+02231100811ADDGF104991041051008001031001MA1999999099991MD1999999-0071REMSYN070AAXX  23064 44478 42565 43602 10276 20223 39999 40081 84530 333 59007;
0137444780999992000102309004+26480+087270FM-12+0072VNVT V0201801N001012200019N0150001N1+02961+02261100551ADDGF103991031021008001001001MA1999999099731MD1999999+0101REMSYN070AAXX  23094 44478 42565 31802 10296 20226 39973 40055 83200 333 58010;
0196444780999992000102312004+26480+087270FM-12+0072VNVT V0209999C000012200019N0060001N1+02711+02271100511ADDAA199000091GA1001+999999999GF100991001001999999001001KA1120M+03101MA1999999099651MD1999999+0051REMSYN070AAXX  23124 44478 32956 00000 10271 20227 39965 40051 333 10310 58005;EQDQ01  00002PRCP99
0157444780999992000102400004+26480+087270FM-12+0072VNVT V0209999C000012200019N0050001N1+02171+02091100921ADDAY121061GF104991041051008001001001MA1999999100101MD1999999+0201MW1051REMSYN076AAXX  24004 44478 41550 40000 10217 20209 30010 40092 7052/ 84500 333 58020;
0186444780999992000102403004+26480+087270FM-12+0072VNVT V0200901N003112200019N0100001N1+02451+02171101091ADDAA199000091GF104991041021008001001001KA1120N+02121MA1999999100271MD1999999+0211REMSYN076AAXX  24034 44478 32560 40906 10245 20217 30027 40109 84200 333 20212 58021;EQDQ01  00002PRCP99
0137444780999992000102406004+26480+087270FM-12+0072VNVT V0200901N003112200019N0150001N1+02871+02311101071ADDGF102991021021008001001001MA1999999100251MD1999999+0261REMSYN070AAXX  24064 44478 42565 20906 10287 20231 30025 40107 82200 333 58026;
0137444780999992000102409004+26480+087270FM-12+0072VNVT V0200901N001012200019N0150001N1+03021+02261100831ADDGF103991031021008001001001MA1999999100011MD1999999+0281REMSYN070AAXX  24094 44478 42565 30902 10302 20226 30001 40083 83200 333 58028;
0186444780999992000102412004+26480+087270FM-12+0072VNVT V0209999C000012200019N0080001N1+02701+02381100781ADDAA199000091GF101991011021008001001001KA1120M+03161MA1999999099961MD1999999+0271REMSYN076AAXX  24124 44478 32558 10000 10270 20238 39996 40078 81200 333 10316 58027;EQDQ01  00002PRCP99
0157444780999992000102500004+26480+087270FM-12+0072VNVT V0209999C000012200019N0060001N1+02221+02161101141ADDAY121061GF104991041051008001001001MA1999999100311MD1999999+0211MW1051REMSYN076AAXX  25004 44478 41556 40000 10222 20216 30031 40114 7052/ 84500 333 58021;
0171444780999992000102503004+26480+087270FM-12+0072VNVT V0200701N001012200019N0100001N1+02491+02171101331ADDAA199000091GF104991041051008001001001KA1120N+02201MA1999999100501REMSYN075AAXX  25034 44478 32560 40702 10249 20217 30050 40133 84500 333 20220 5803;EQDQ01  00002PRCP99
0137444780999992000102506004+26480+087270FM-12+0072VNVT V0200401N001012200019N0150001N1+02971+02261101251ADDGF104991041021008001001001MA1999999100431MD1999999+0181REMSYN070AAXX  25064 44478 42565 40402 10297 20226 30043 40125 84200 333 58018;
0186444780999992000102512004+26480+087270FM-12+0072VNVT V0200901N003112200019N0080001N1+02801+02371100891ADDAA199000091GF101991011021008001001001KA1120M+03251MA1999999100071MD1999999-0111REMSYN076AAXX  25124 44478 32558 10906 10280 20237 30007 40089 81200 333 10325 59011;EQDQ01  00002PRCP99
0167444780999992000102600004+26480+087270FM-12+0072VNVT V0209999C000012200019N0010001N1+02001+01971101121ADDAY141061GA1001+999999999GF100991001001999999001001MA1999999100291MD1999999-0021MW1421REMSYN070AAXX  26004 44478 41910 00000 10200 20197 30029 40112 7424/ 333 59002;
0196444780999992000102603004+26480+087270FM-12+0072VNVT V0209999C000012200019N0150001N1+02461+02191101231ADDAA199000091GA1001+999999999GF100991001001999999001001KA1120N+02001MA1999999100401MD1999999-0101REMSYN070AAXX  26034 44478 32965 00000 10246 20219 30040 40123 333 20200 59010;EQDQ01  00002PRCP99
0147444780999992000102606004+26480+087270FM-12+0072VNVT V0209999C000012200019N0150001N1+03121+02101101171ADDGA1001+999999999GF100991001001999999001001MA1999999100341MD1999999-0091REMSYN064AAXX  26064 44478 42965 00000 10312 20210 30034 40117 333 59009;
0137444780999992000102609004+26480+087270FM-12+0072VNVT V0209999C000012200019N0150001N1+03221+01981100861ADDGF101991011021008001001001MA1999999100041MD1999999-0061REMSYN070AAXX  26094 44478 42565 10000 10322 20198 30004 40086 81200 333 59006;
0186444780999992000102712004+26480+087270FM-12+0072VNVT V0200901N003112200019N0150001N1+02801+02121100831ADDAA199000091GF103991031021008001001001KA1120M+03201MA1999999100001MD1999999+0001REMSYN076AAXX  27124 44478 32565 30906 10280 20212 30000 40083 83200 333 10320 58000;EQDQ01  00002PRCP99
0137444780999992000102800004+26480+087270FM-12+0072VNVT V0203601N001012200019N0150001N1+02041+01951101071ADDGF104991021051008001001011MA1999999100241MD1999999+0041REMSYN070AAXX  28004 44478 42565 43602 10204 20195 30024 40107 82501 333 58004;
0186444780999992000102803004+26480+087270FM-12+0072VNVT V0200901N004112200019N0250001N1+02461+01861101231ADDAA199000091GF104991021051008001001011KA1120N+02051MA1999999099392MD1999999-0011REMSYN076AAXX  28034 44478 32575 40908 10246 20186 39939 40123 82501 333 20205 59001;EQDQ01  00002PRCP99
0137444780999992000102809004+26480+087270FM-12+0072VNVT V0200901N007710360019N0150001N1+02661+01891100831ADDGF105991041021008001031001MA1999999100001MD1999999+0001REMSYN070AAXX  28094 44478 42565 50915 10266 20189 30000 40083 84230 333 58000;
0186444780999992000102903004+26480+087270FM-12+0072VNVT V0200701N002610360019N0150001N1+02131+01731101641ADDAA199000091GF108991041051008001071999KA1120N+02041MA1999999100811MD1999999+0421REMSYN076AAXX  29034 44478 32565 80705 10213 20173 30081 40164 8457/ 333 20204 58042;EQDQ01  00002PRCP99
0137444780999992000102906004+26480+087270FM-12+0072VNVT V0200901N004110360019N0150001N1+02471+01661101521ADDGF106991031051008001031001MA1999999100691MD1999999+0371REMSYN070AAXX  29064 44478 42565 60908 10247 20166 30069 40152 83530 333 58037;
0137444780999992000102909004+26480+087270FM-12+0072VNVT V0200901N001010360019N0150001N1+02601+01821101221ADDGF106991031051008001031001MA1999999100391MD1999999+0391REMSYN070AAXX  29094 44478 42565 60902 10260 20182 30039 40122 83530 333 58039;
0186444780999992000102912004+26480+087270FM-12+0072VNVT V0209999C000012200019N0150001N1+02401+01941101121ADDAA199000091GF103991031051008001001001KA1120M+02681MA1999999100321MD1999999+0071REMSYN076AAXX  29124 44478 32565 30000 10240 20194 30032 40112 83500 333 10268 58007;EQDQ01  00002PRCP99
0147444780999992000103000004+26480+087270FM-12+0072VNVT V0209999C000012200019N0300001N1+01561+01541101281ADDGA1001+999999999GF100991001001999999001001MA1999999100441MD1999999-0161REMSYN064AAXX  30004 44478 42980 00000 10156 20154 30044 40128 333 59016;
0196444780999992000103003004+26480+087270FM-12+0072VNVT V0209999C000012200019N0400001N1+02201+01891101381ADDAA199000091GA1001+999999999GF100991001001999999001001KA1120N+01551MA1999999100531MD1999999-0281REMSYN070AAXX  30034 44478 32982 00000 10220 20189 30053 40138 333 20155 59028;EQDQ01  00002PRCP99
0147444780999992000103006004+26480+087270FM-12+0072VNVT V0201801N002112200019N0400001N1+02941+01681101231ADDGA1001+999999999GF100991001001999999001001MA1999999100391MD1999999-0301REMSYN064AAXX  30064 44478 42982 01804 10294 20168 30039 40123 333 59030;
0147444780999992000103100004+26480+087270FM-12+0072VNVT V0209999C000012200019N0200001N1+01761+01731101141ADDGA1001+999999999GF100991001001999999001001MA1999999100311MD1999999-0131REMSYN064AAXX  31004 44478 42970 00000 10176 20173 30031 40114 333 59013;
0196444780999992000103103004+26480+087270FM-12+0072VNVT V0209999C000012200019N0200001N1+02271+01981101301ADDAA199000091GA1001+999999999GF100991001001999999001001KA1120N+01751MA1999999100471MD1999999-0061REMSYN070AAXX  31034 44478 32970 00000 10227 20198 30047 40130 333 20175 59006;EQDQ01  00002PRCP99
0137444780999992000103106004+26480+087270FM-12+0072VNVT V0201201N000512200019N0250001N1+03001+01971101191ADDGF101991011021008001001001MA1999999100361MD1999999-0031REMSYN070AAXX  31064 44478 42575 11201 10300 20197 30036 40119 81200 333 59003;
0137444780999992000103109004+26480+087270FM-12+0072VNVT V0200901N002112200019N0250001N1+03161+01841100911ADDGF103991031021008001001001MA1999999100081MD1999999+0121REMSYN070AAXX  31094 44478 42575 30904 10316 20184 30008 40091 83200 333 58012;
0186444780999992000103112004+26480+087270FM-12+0072VNVT V0200901N001012200019N0200001N1+02761+02001100891ADDAA199000091GF101991011021008001001001KA1120M+03221MA1999999100061MD1999999+0121REMSYN076AAXX  31124 44478 32570 10902 10276 20200 30006 40089 81200 333 10322 58012;EQDQ01  00002PRCP99
0147444780999992000110100004+26480+087270FM-12+0072VNVT V0209999C000012200019N0200001N1+01921+01831101261ADDGA1001+999999999GF100991001001999999001001MA1999999100431MD1999999+0121REMSYN064AAXX  01004 44478 42970 00000 10192 20183 30043 40126 333 58012;
0196444780999992000110103004+26480+087270FM-12+0072VNVT V0200901N001012200019N0250001N1+02551+01981101481ADDAA199000091GA1001+999999999GF100991001001999999001001KA1120N+01921MA1999999100651MD1999999+0181REMSYN070AAXX  01034 44478 32975 00902 10255 20198 30065 40148 333 20192 58018;EQDQ01  00002PRCP99
0137444780999992000110106004+26480+087270FM-12+0072VNVT V0200901N001012200019N0250001N1+03021+01971101371ADDGF101991011021008001001001MA1999999100541MD1999999+0181REMSYN070AAXX  01064 44478 42575 10902 10302 20197 30054 40137 81200 333 58018;
0137444780999992000110109004+26480+087270FM-12+0072VNVT V0200901N003112200019N0250001N1+03001+01821101081ADDGF101991011021008001001001MA1999999100251MD1999999+0191REMSYN070AAXX  01094 44478 42575 10906 10300 20182 30025 40108 81200 333 58019;
0147444780999992000110200004+26480+087270FM-12+0072VNVT V0209999C000012200019N0150001N1+01791+01721101431ADDGA1001+999999999GF100991001001999999001001MA1999999100601MD1999999+0171REMSYN064AAXX  02004 44478 42965 00000 10179 20172 30060 40143 333 58017;
0196444780999992000110203004+26480+087270FM-12+0072VNVT V0209999C000012200019N0200001N1+02411+02091101591ADDAA199000091GA1001+999999999GF100991001001999999001001KA1120N+01751MA1999999100761MD1999999+0111REMSYN070AAXX  02034 44478 32970 00000 10241 20209 30076 40159 333 20175 58011;EQDQ01  00002PRCP99
0147444780999992000110206004+26480+087270FM-12+0072VNVT V0200901N001012200019N0200001N1+03081+01871101461ADDGA1001+999999999GF100991001001999999001001MA1999999100631MD1999999+0091REMSYN064AAXX  02064 44478 42970 00902 10308 20187 30063 40146 333 58009;
0137444780999992000110209004+26480+087270FM-12+0072VNVT V0200901N001012200019N0200001N1+03221+01601101231ADDGF101991011021008001001001MA1999999100401MD1999999+0151REMSYN070AAXX  02094 44478 42570 10902 10322 20160 30040 40123 81200 333 58015;
0196444780999992000110212004+26480+087270FM-12+0072VNVT V0209999C000012200019N0150001N1+02761+01921101271ADDAA199000091GA1001+999999999GF100991001001999999001001KA1120M+03321MA1999999100441MD1999999+0191REMSYN070AAXX  02124 44478 32965 00000 10276 20192 30044 40127 333 10332 58019;EQDQ01  00002PRCP99
0159444780999992000110300004+26480+087270FM-12+0072VNVT V0209999C000012200019N0040001N1+01701+01671101451ADDGA1001+999999999GF100991001001999999001001MA1999999100621MD1999999+0021MW1051REMSYN070AAXX  03004 44478 41940 00000 10170 20167 30062 40145 705// 333 58002;
0196444780999992000110303004+26480+087270FM-12+0072VNVT V0209999C000012200019N0150001N1+02321+01931101631ADDAA199000091GA1001+999999999GF100991001001999999001001KA1120N+01701MA1999999100801MD1999999+0041REMSYN070AAXX  03034 44478 32965 00000 10232 20193 30080 40163 333 20170 58004;EQDQ01  00002PRCP99
0147444780999992000110306004+26480+087270FM-12+0072VNVT V0209999C000012200019N0150001N1+03011+01861101551ADDGA1001+999999999GF100991001001999999001001MA1999999100721MD1999999+0091REMSYN064AAXX  03064 44478 42965 00000 10301 20186 30072 40155 333 58009;
0147444780999992000110309004+26480+087270FM-12+0072VNVT V0209999C000012200019N0150001N1+03151+01791101241ADDGA1001+999999999GF100991001001999999001001MA1999999100411MD1999999+0011REMSYN064AAXX  03094 44478 42965 00000 10315 20179 30041 40124 333 58001;
0196444780999992000110312004+26480+087270FM-12+0072VNVT V0209999C000012200019N0150001N1+02761+01921101251ADDAA199000091GA1001+999999999GF100991001001999999001001KA1120M+03301MA1999999100421MD1999999-0021REMSYN070AAXX  03124 44478 32565 00000 10276 20192 30042 40125 333 10330 59002;EQDQ01  00002PRCP99
0167444780999992000110400004+26480+087270FM-12+0072VNVT V0209999C000012200019N0030001N1+01701+01691101541ADDAY141061GA1001+999999999GF100991001001999999001001MA1999999100711MD1999999+0091MW1101REMSYN070AAXX  04004 44478 41930 00000 10170 20169 30071 40154 7104/ 333 58009;
0196444780999992000110403004+26480+087270FM-12+0072VNVT V0209999C000012200019N0100001N1+02351+01901101671ADDAA199000091GA1001+999999999GF100991001001999999001001KA1120N+01711MA1999999100851MD1999999+0041REMSYN070AAXX  04034 44478 32960 00000 10235 20190 30085 40167 333 20171 58004;EQDQ01  00002PRCP99
0147444780999992000110406004+26480+087270FM-12+0072VNVT V0202701N001012200019N0150001N1+02941+01871101551ADDGA1001+999999999GF100991001001999999001001MA1999999100721MD1999999+0001REMSYN064AAXX  04064 44478 42965 02702 10294 20187 30072 40155 333 58000;
0196444780999992000110412004+26480+087270FM-12+0072VNVT V0202701N001012200019N0080001N1+02741+01831101251ADDAA199000091GA1001+999999999GF100991001001999999001001KA1120M+03231MA1999999100421MD1999999+0001REMSYN070AAXX  04124 44478 32958 02702 10274 20183 30042 40125 333 10323 58000;EQDQ01  00002PRCP99
0157444780999992000110500004+26480+087270FM-12+0072VNVT V0209999C000012200019N0020001N1+01751+01721101351ADDAY121061GF101991011051008001001001MA1999999100521MD1999999-0191MW1101REMSYN076AAXX  05004 44478 41520 10000 10175 20172 30052 40135 7102/ 81500 333 59019;
0196444780999992000110503004+26480+087270FM-12+0072VNVT V0209999C000012200019N0060001N1+02171+01921101491ADDAA199000091GA1001+999999999GF100991001001999999001001KA1120N+01751MA1999999100661MD1999999-0181REMSYN070AAXX  05034 44478 32956 00000 10217 20192 30066 40149 333 20175 59018;EQDQ01  00002PRCP99
0137444780999992000110509004+26480+087270FM-12+0072VNVT V0202701N002112200019N0100001N1+02981+01841100961ADDGF102991021021008001001001MA1999999100131MD1999999-0331REMSYN070AAXX  05094 44478 42560 22704 10298 20184 30013 40096 82200 333 59033;
0196444780999992000110512004+26480+087270FM-12+0072VNVT V0209999C000012200019N0080001N1+02671+02021100971ADDAA199000091GA1001+999999999GF100991001001999999001001KA1120M+03201MA1999999100141MD1999999-0281REMSYN070AAXX  05124 44478 32958 00000 10267 20202 30014 40097 333 10320 59028;EQDQ01  00002PRCP99
0167444780999992000110600004+26480+087270FM-12+0072VNVT V0209999C000012200019N0005001N1+01831+01821100971ADDAY141061GA1001+999999999GF100991001001999999001001MA1999999100141MD1999999-0381MW1411REMSYN070AAXX  06004 44478 41905 00000 10183 20182 30014 40097 7414/ 333 59038;
0224444780999992000110603004+26480+087270FM-12+0072VNVT V0209999C000012200019N0050001N1+02171+02001101181ADDAA199000091AY141031AY241031GA1001+999999999GF100991001001999999001001KA1120N+01841MA1999999100341MD1999999-0321MW1051REMSYN076AAXX  06034 44478 31950 00000 10217 20200 30034 40118 70544 333 20184 59032;EQDQ01  00002PRCP99
0147444780999992000110606004+26480+087270FM-12+0072VNVT V0202701N002112200019N0070001N1+02771+02121101091ADDGA1001+999999999GF100991001001999999001001MA1999999100251MD1999999-0271REMSYN064AAXX  06064 44478 42957 02704 10277 20212 30025 40109 333 59027;
0147444780999992000110609004+26480+087270FM-12+0072VNVT V0202701N003112200019N0070001N1+02901+01981100781ADDGA1001+999999999GF100991001001999999001001MA1999999099941MD1999999-0091REMSYN064AAXX  06094 44478 42957 02706 10290 20198 39994 40078 333 59009;
0173444780999992000110700004+26480+087270FM-12+0072VNVT V0209999C000010003019N0005001N1+01881+01851101101ADDAY141061GA1091+999999999GF109991091999999999999999MA1999999100271MD1999999+0131MW1431REMSYN076AAXX  07004 44478 41/05 90000 10188 20185 30027 40110 7434/ 89/// 333 58013;
0224444780999992000110703004+26480+087270FM-12+0072VNVT V0200901N001012200019N0020001N1+02101+02031101131ADDAA199000091AY141031AY241031GA1001+999999999GF100991001001999999001001KA1120N+01871MA1999999100501MD1999999+0161MW1101REMSYN076AAXX  07034 44478 31920 00902 10210 20203 30050 40113 71044 333 20187 58016;EQDQ01  00002PRCP99
0147444780999992000110709004+26480+087270FM-12+0072VNVT V0202101N001012200019N0070001N1+02901+02061101011ADDGA1001+999999999GF100991001001999999001001MA1999999100181MD1999999+0141REMSYN064AAXX  07094 44478 42957 02102 10290 20206 30018 40101 333 58014;
0165444780999992000110906004+26480+087270FM-12+0072VNVT V0209999C000012200019N0030001N1+02621+02181101231ADDAY141061AY221061GF104991041021008001001001MA1999999100401MD1999999-0161MW1051REMSYN076AAXX  09064 44478 41530 40000 10262 20218 30040 40123 70542 84200 333 59016;
0165444780999992000110909004+26480+087270FM-12+0072VNVT V0200901N001012200019N0050001N1+02821+02141100921ADDAY141031AY241031GF103991031021008001001001MA1999999100091MD1999999-0171MW1051REMSYN076AAXX  09094 44478 41550 30902 10282 20214 30009 40092 70544 83200 333 59017;
0224444780999992000110912004+26480+087270FM-12+0072VNVT V0209999C000012200019N0020001N1+02561+02171100851ADDAA199000091AY141061AY241061GA1001+999999999GF100991001001999999001001KA1120M+02931MA1999999100021MD1999999-0261MW1101REMSYN076AAXX  09124 44478 31920 00000 10256 20217 30002 40085 71044 333 10293 59026;EQDQ01  00002PRCP99
0173444780999992000111000004+26480+087270FM-12+0072VNVT V0209999C000010003019N0005001N1+02001+01981101131ADDAY141061GA1091+999999999GF109991091999999999999999MA1999999100301MD1999999-0011MW1471REMSYN076AAXX  10004 44478 41/05 90000 10200 20198 30030 40113 7474/ 89/// 333 59001;
0224444780999992000111003004+26480+087270FM-12+0072VNVT V0209999C000012200019N0010001N1+02161+02141101281ADDAA199000091AY141031AY241031GA1001+999999999GF100991001001999999001001KA1120N+01951MA1999999100451MD1999999-0011MW1421REMSYN076AAXX  10034 44478 31910 00000 10216 20214 30045 40128 74244 333 20195 59001;EQDQ01  00002PRCP99
0165444780999992000111006004+26480+087270FM-12+0072VNVT V0200901N001012200019N0040001N1+02691+02211101251ADDAY141061AY241061GF104991041021008001001001MA1999999100421MD1999999+0021MW1051REMSYN076AAXX  10064 44478 41540 40902 10269 20221 30042 40125 70544 84200 333 58002;
0165444780999992000111009004+26480+087270FM-12+0072VNVT V0201201N001012200019N0040001N1+02901+02161101001ADDAY141031AY241031GF101991011021008001001001MA1999999100171MD1999999+0081MW1051REMSYN076AAXX  10094 44478 41540 11202 10290 20216 30017 40100 70544 81200 333 58008;
0214444780999992000111012004+26480+087270FM-12+0072VNVT V0209999C000012200019N0025001N1+02601+02211101051ADDAA199000091AY141061AY241061GF104991041021008001001001KA1120M+03001MA1999999100221MD1999999+0201MW1101REMSYN082AAXX  10124 44478 31525 40000 10260 20221 30022 40105 71044 84200 333 10300 58020;EQDQ01  00002PRCP99
0157444780999992000111100004+26480+087270FM-12+0072VNVT V0209999C000010360019N0030001N1+02121+02041101451ADDAY121061GF108991041051008001021999MA1999999100621MD1999999+0321MW1101REMSYN076AAXX  11004 44478 41530 80000 10212 20204 30062 40145 7102/ 8452/ 333 58032;
0240444780999992000111103004+26480+087270FM-12+0072VNVT V0200901N001012200019N0040001N1+02321+02141101591ADDAA199000091AY141031AY241031GA1001+999999999GF100991001001999999001001KA1120N+02081MA1999999999999MD1999999+0341MW1051REMSYN076AAXX  11034 44478 31940 00902 10232 20214 39976 40159 70544 333 20208 58034;EQDQ01  00002PRCP99Q02 099763APOSP 
0184444780999992000111106004+26480+087270FM-12+0072VNVT V0200901N002110075019N0060001N1+02681+02181101471ADDAY141061AY221061GF105991051021008001001001MA1999999100642MD1999999+0221MW1051REMSYN076AAXX  11064 44478 41556 50904 10268 20218 30064 40147 70542 85200 333 58022;EQDQ01+100643APOSP 
0165444780999992000111109004+26480+087270FM-12+0072VNVT V0200901N001012200019N0050001N1+02761+02121101171ADDAY141031AY241031GF103991031021008001001001MA1999999100341MD1999999+0171MW1051REMSYN076AAXX  11094 44478 41550 30902 10276 20212 30034 40117 70544 83200 333 58017;
0214444780999992000111203004+26480+087270FM-12+0072VNVT V0200901N002110021019N0030001N1+02261+02091101371ADDAA199000091AY141031AY221031GF105991051051002501001001KA1120N+02021MA1999999100541MD1999999-0221MW1101REMSYN082AAXX  12034 44478 31330 50904 10226 20209 30054 40137 71042 85500 333 20202 59022;EQDQ01  00002PRCP99
0165444780999992000111206004+26480+087270FM-12+0072VNVT V0200901N003112200019N0060001N1+02581+02161101311ADDAY141061AY221061GF104991041021008001001001MA1999999100481MD1999999-0161MW1021REMSYN076AAXX  12064 44478 41556 40906 10258 20216 30048 40131 70242 84200 333 59016;
0137444780999992000111209004+26480+087270FM-12+0072VNVT V0200901N003112200019N0060001N1+02751+02121101021ADDGF104991041021008001001001MA1999999100191MD1999999-0151REMSYN070AAXX  12094 44478 42556 40906 10275 20212 30019 40102 84200 333 59015;
0157444780999992000111300004+26480+087270FM-12+0072VNVT V0209999C000012200019N0020001N1+01741+01721101141ADDAY141061GF104991041051008001001001MA1999999100301MD1999999-0081MW1101REMSYN076AAXX  13004 44478 41520 40000 10174 20172 30030 40114 7104/ 84500 333 59008;
0214444780999992000111303004+26480+087270FM-12+0072VNVT V0200901N001012200019N0025001N1+02081+01951101271ADDAA199000091AY141031AY221031GF103991031001999999051001KA1120N+01721MA1999999100431MD1999999-0111MW1101REMSYN082AAXX  13034 44478 31925 30902 10208 20195 30043 40127 71042 83050 333 20172 59011;EQDQ01  00002PRCP99
0137444780999992000111309004+26480+087270FM-12+0072VNVT V0201201N002112200019N0070001N1+02821+01981100881ADDGF102991021021008001001001MA1999999100041MD1999999-0151REMSYN070AAXX  13094 44478 42557 21204 10282 20198 30004 40088 82200 333 59015;
0167444780999992000111400004+26480+087270FM-12+0072VNVT V0209999C000012200019N0010001N1+01741+01721101041ADDAY141061GA1001+999999999GF100991001001999999001001MA1999999100211MD1999999-0091MW1411REMSYN070AAXX  14004 44478 41910 00000 10174 20172 30021 40104 7414/ 333 59009;
0214444780999992000111403004+26480+087270FM-12+0072VNVT V0209999C000012200019N0015001N1+02021+01931101261ADDAA199000091AY141031AY241031GF104991041001999999051001KA1120N+01741MA1999999100431MD1999999+0001MW1101REMSYN082AAXX  14034 44478 31915 40000 10202 20193 30043 40126 71044 84050 333 20174 58000;EQDQ01  00002PRCP99
0165444780999992000111406004+26480+087270FM-12+0072VNVT V0209999C000012200019N0040001N1+02521+02051101271ADDAY141061AY241061GF103991031001999999051001MA1999999100441MD1999999+0081MW1051REMSYN076AAXX  14064 44478 41940 30000 10252 20205 30044 40127 70544 83050 333 58008;
0224444780999992000111412004+26480+087270FM-12+0072VNVT V0202701N001012200019N0040001N1+02501+02061101011ADDAA199000091AY141061AY241061GA1001+999999999GF100991001001999999001001KA1120M+02871MA1999999100181MD1999999+0121MW1051REMSYN076AAXX  14124 44478 31940 02702 10250 20206 30018 40101 70544 333 10287 58012;EQDQ01  00002PRCP99
0157444780999992000111500004+26480+087270FM-12+0072VNVT V0209999C000010360019N0025001N1+01901+01871101261ADDAY121061GF105991031051008001041001MA1999999100431MD1999999+0221MW1101REMSYN076AAXX  15004 44478 41525 50000 10190 20187 30043 40126 7102/ 83540 333 58022;
0214444780999992000111503004+26480+087270FM-12+0072VNVT V0200901N001012200019N0025001N1+02061+01941101531ADDAA199000091AY141031AY221031GF102991021051008001001001KA1120N+01901MA1999999100661MD1999999+0261MW1101REMSYN082AAXX  15034 44478 31525 20902 10206 20194 30066 40153 71042 82500 333 20190 58026;EQDQ01  00002PRCP99
0165444780999992000111506004+26480+087270FM-12+0072VNVT V0200901N002112200019N0060001N1+02521+02011101531ADDAY141061AY221061GF104991041021008001001001MA1999999100691MD1999999+0251MW1021REMSYN076AAXX  15064 44478 41556 40904 10252 20201 30069 40153 70242 84200 333 58025;
0165444780999992000111509004+26480+087270FM-12+0072VNVT V0200901N001012200019N0060001N1+02661+01991101311ADDAY141031AY221031GF103991031021008001001001MA1999999100471MD1999999+0391MW1021REMSYN076AAXX  15094 44478 41556 30902 10266 20199 30047 40131 70242 83200 333 58039;
0214444780999992000111512004+26480+087270FM-12+0072VNVT V0200901N001012200019N0050001N1+02361+01961101311ADDAA199000091AY121061AY211061GF102991021021008001001001KA1120M+02771MA1999999100481MD1999999+0301MW1051REMSYN082AAXX  15124 44478 31550 20902 10236 20196 30048 40131 70521 82200 333 10277 58030;EQDQ01  00002PRCP99
0224444780999992000111603004+26480+087270FM-12+0072VNVT V0209999C000012200019N0025001N1+01961+01891101661ADDAA199000091AY141031AY241031GA1001+999999999GF100991001001999999001001KA1120N+01601MA1999999100811MD1999999+0121MW1101REMSYN076AAXX  16034 44478 31925 00000 10196 20189 30081 40166 71044 333 20160 58012;EQDQ01  00002PRCP99
0117444780999992000111609004+26480+087270FM-12+0072VNVT V0200901N001012200019N0150001N1+02901+99999999999ADDGA1001+999999999GF100991001001999999001001REMSYN063AAXX  16094 44478 42965 00902 10290 2012 30043 40138 333 59003;
0165444780999992000111700004+26480+087270FM-12+0072VNVT V0209999C000012200019N0010001N1+01621+01601101341ADDAY121061AY211061GF102991021051008001001001MA1999999100501MD1999999-0101MW1401REMSYN076AAXX  17004 44478 41510 20000 10162 20160 30050 40134 74021 82500 333 59010;
0224444780999992000111703004+26480+087270FM-12+0072VNVT V0209999C000012200019N0025001N1+02011+01871101571ADDAA199000091AY141031AY241031GA1001+999999999GF100991001001999999001001KA1120N+01621MA1999999100731MD1999999-0081MW1101REMSYN076AAXX  17034 44478 31925 00000 10201 20187 30073 40157 71044 333 20162 59008;EQDQ01  00002PRCP99
0196444780999992000111712004+26480+087270FM-12+0072VNVT V0209999C000012200019N0080001N1+02451+01821101091ADDAA199000091GA1001+999999999GF100991001001999999001001KA1120M+03151MA1999999100261MD1999999-0091REMSYN070AAXX  17124 44478 32558 00000 10245 20182 30026 40109 333 10315 59009;EQDQ01  00002PRCP99
0167444780999992000111800004+26480+087270FM-12+0072VNVT V0209999C000012200019N0010001N1+01601+01581101121ADDAY141061GA1001+999999999GF100991001001999999001001MA1999999100291MD1999999-0211MW1401REMSYN070AAXX  18004 44478 41910 00000 10160 20158 30029 40112 7404/ 333 59021;
0224444780999992000111803004+26480+087270FM-12+0072VNVT V0209999C000012200019N0025001N1+01981+01821101341ADDAA199000091AY141031AY241031GA1001+999999999GF100991001001999999001001KA1120N+01581MA1999999100501MD1999999-0231MW1101REMSYN076AAXX  18034 44478 31925 00000 10198 20182 30050 40134 71044 333 20158 59023;EQDQ01  00002PRCP99
0147444780999992000111806004+26480+087270FM-12+0072VNVT V0209999C000012200019N0080001N1+02781+01891101231ADDGA1001+999999999GF100991001001999999001001MA1999999100401MD1999999-0241REMSYN064AAXX  18064 44478 42958 00000 10278 20189 30040 40123 333 59024;
0137444780999992000111809004+26480+087270FM-12+0072VNVT V0202701N002112200019N0080001N1+02901+01541100761ADDGF103991031021008001001001MA1999999100101MD1999999-0171REMSYN070AAXX  18094 44478 42558 32704 10290 20154 30010 40076 83200 333 59017;
0196444780999992000111812004+26480+087270FM-12+0072VNVT V0209999C000012200019N0070001N1+02501+01881100831ADDAA199000091GA1001+999999999GF100991001001999999001001KA1120M+03051MA1999999100001MD1999999-0261REMSYN070AAXX  18124 44478 32957 00000 10250 20188 30000 40083 333 10305 59026;EQDQ01  00002PRCP99
0167444780999992000111900004+26480+087270FM-12+0072VNVT V0209999C000012200019N0010001N1+01681+01661101101ADDAY141061GA1001+999999999GF100991001001999999001001MA1999999100271MD1999999-0021MW1421REMSYN070AAXX  19004 44478 41910 00000 10168 20166 30027 40110 7424/ 333 59002;
0165444780999992000111906004+26480+087270FM-12+0072VNVT V0202701N001512200019N0020001N1+02621+01841101131ADDAY141061AY241061GF102991021001999999051001MA1999999100301MD1999999-0101MW1101REMSYN076AAXX  19064 44478 41920 22703 10262 20184 30030 40113 71044 82050 333 59010;
0165444780999992000111909004+26480+087270FM-12+0072VNVT V0202701N003112200019N0050001N1+02821+01721100821ADDAY141031AY241031GF102991021021008001001001MA1999999099991MD1999999-0011MW1051REMSYN076AAXX  19094 44478 41550 22706 10282 20172 39999 40082 70544 82200 333 59001;
0224444780999992000111912004+26480+087270FM-12+0072VNVT V0209999C000012200019N0030001N1+02521+01821100711ADDAA199000091AY141061AY241061GA1001+999999999GF100991001001999999001001KA1120M+02931MA1999999099881MD1999999-0181MW1051REMSYN076AAXX  19124 44478 31930 00000 10252 20182 39988 40071 70544 333 10293 59018;EQDQ01  00002PRCP99
0167444780999992000112000004+26480+087270FM-12+0072VNVT V0209999C000012200019N0010001N1+01761+01731101081ADDAY141061GA1001+999999999GF100991001001999999001001MA1999999100241MD1999999-0031MW1401REMSYN070AAXX  20004 44478 41910 00000 10176 20173 30024 40108 7404/ 333 59003;
0175444780999992000112006004+26480+087270FM-12+0072VNVT V0200901N002112200019N0030001N1+02451+01801101301ADDAY141061AY241061GA1001+999999999GF100991001001999999001001MA1999999100461MD1999999+0161MW1051REMSYN070AAXX  20064 44478 41930 00904 10245 20180 30046 40130 70544 333 58016;
0175444780999992000112009004+26480+087270FM-12+0072VNVT V0200901N001012200019N0050001N1+02701+01881101001ADDAY141031AY241031GA1001+999999999GF100991001001999999001001MA1999999100161MD1999999+0171MW1051REMSYN070AAXX  20094 44478 41950 00902 10270 20188 30016 40100 70544 333 58017;
0167444780999992000112100004+26480+087270FM-12+0072VNVT V0200901N002112200019N0030001N1+01731+01561101301ADDAY141061GA1001+999999999GF100991001001999999001001MA1999999100471MD1999999+0231MW1101REMSYN070AAXX  21004 44478 41930 00904 10173 20156 30047 40130 7104/ 333 58023;
0214444780999992000112103004+26480+087270FM-12+0072VNVT V0200901N002612200019N0100001N1+02041+01611101531ADDAA199000091AY141031AY241031GF102991021001999999051001KA1120N+01731MA1999999100691MD1999999+0211MW1011REMSYN082AAXX  21034 44478 31960 20905 10204 20161 30069 40153 70144 82050 333 20173 58021;EQDQ01  00002PRCP99
0137444780999992000112109004+26480+087270FM-12+0072VNVT V0200901N004112200019N0150001N1+02621+01781101131ADDGF103991031001999999051001MA1999999100291MD1999999+0131REMSYN070AAXX  21094 44478 42965 30908 10262 20178 30029 40113 83050 333 58013;
0157444780999992000112200004+26480+087270FM-12+0072VNVT V0200901N002112200019N0030001N1+01711+01651101441ADDAY121061GF104991041021012501001001MA1999999100601MD1999999+0131MW1101REMSYN076AAXX  22004 44478 41630 40904 10171 20165 30060 40144 7102/ 84200 333 58013;
0186444780999992000112203004+26480+087270FM-12+0072VNVT V0200901N003112200019N0100001N1+02161+01491101681ADDAA199000091GF102991021021008001001001KA1120N+01621MA1999999100831MD1999999+0141REMSYN076AAXX  22034 44478 32560 20906 10216 20149 30083 40168 82200 333 20162 58014;EQDQ01  00002PRCP99
0146444780999992000112209004+26480+087270FM-12+0072VNVT V0201201N001012200019N0150001N1+02761+01791101341ADDGA1001+999999999GF100991001001999999001001MA1999999100491MD1999999+0201REMSYN063AAXX  22094 44478 42965 01202 10276 20179 3004940134 333 58020;
0214444780999992000112212004+26480+087270FM-12+0072VNVT V0209999C000012200019N0030001N1+02341+01871101361ADDAA199000091AY121061AY201061GF102991021051008001001001KA1120M+02841MA1999999100511MD1999999+0221MW1101REMSYN082AAXX  22124 44478 31530 20000 10234 20187 30051 40136 71020 82500 333 10284 58022;EQDQ01  00002PRCP99
0167444780999992000112300004+26480+087270FM-12+0072VNVT V0209999C000012200019N0020001N1+01471+01441101661ADDAY141061GA1001+999999999GF100991001001999999001001MA1999999100811MD1999999+0211MW1101REMSYN070AAXX  23004 44478 41920 00000 10147 20144 30081 40166 7104/ 333 58021;
0224444780999992000112303004+26480+087270FM-12+0072VNVT V0200401N000512200019N0025001N1+01821+01671101851ADDAA199000091AY141031AY241031GA1001+999999999GF100991001001999999001001KA1120N+01451MA1999999101001MD1999999+0171MW1101REMSYN076AAXX  23034 44478 31925 00401 10182 20167 30100 40185 71044 333 20145 58017;EQDQ01  00002PRCP99
0147444780999992000112306004+26480+087270FM-12+0072VNVT V0200501N002612200019N0150001N1+02601+01611101731ADDGA1001+999999999GF100991001001999999001001MA1999999100881MD1999999+0051REMSYN064AAXX  23064 44478 42965 00505 10260 20161 30088 40173 333 58005;
0147444780999992000112309004+26480+087270FM-12+0072VNVT V0201801N001012200019N0100001N1+02821+01721101361ADDGA1001+999999999GF100991001001999999001001MA1999999100511MD1999999+0021REMSYN064AAXX  23094 44478 42960 01802 10282 20172 30051 40136 333 58002;
0196444780999992000112312004+26480+087270FM-12+0072VNVT V0209999C000012200019N0060001N1+02401+01761101311ADDAA199000091GA1001+999999999GF100991001001999999001001KA1120M+02941MA1999999100471MD1999999-0041REMSYN070AAXX  23124 44478 32956 00000 10240 20176 30047 40131 333 10294 59004;EQDQ01  00002PRCP99
0165444780999992000112400004+26480+087270FM-12+0072VNVT V0209999C000012200019N0010001N1+01621+99999101501ADDAY121061AY211061GF102991021051008001001001MA1999999100651MD1999999-0161MW1401REMSYN076AAXX  24004 44478 41510 20000 10162 20167 30065 40150 74021 82500 333 59016;
0214444780999992000112403004+26480+087270FM-12+0072VNVT V0209999C000012200019N0020001N1+01911+01831101701ADDAA199000091AY141031AY221031GF103991031051008001001001KA1120N+01601MA1999999100851MD1999999-0151MW1101REMSYN082AAXX  24034 44478 31520 30000 10191 20183 30085 40170 71042 83500 333 20160 59015;EQDQ01  00002PRCP99
0147444780999992000112406004+26480+087270FM-12+0072VNVT V0201801N001012200019N0070001N1+02601+01781101531ADDGA1001+999999999GF100991001001999999001001MA1999999100681MD1999999-0121REMSYN064AAXX  24064 44478 42957 01802 10260 20178 30068 40153 333 59012;
0137444780999992000112409004+26480+087270FM-12+0072VNVT V0202701N003112200019N0070001N1+02721+01681101221ADDGF102991021021008001001001MA1999999100371MD1999999-0141REMSYN070AAXX  24094 44478 42557 22706 10272 20168 30037 40122 82200 333 59014;
0214444780999992000112412004+26480+087270FM-12+0072VNVT V0209999C000012200019N0040001N1+02391+01811101021ADDAA199000091AY111061AY201061GF101991011051008001001001KA1120M+02851MA1999999100181MD1999999-0291MW1051REMSYN082AAXX  24124 44478 31540 10000 10239 20181 30018 40102 70510 81500 333 10285 59029;EQDQ01  00002PRCP99
0167444780999992000112500004+26480+087270FM-12+0072VNVT V0209999C000012200019N0020001N1+01701+01651101281ADDAY141061GA1001+999999999GF100991001001999999001001MA1999999100441MD1999999-0211MW1101REMSYN070AAXX  25004 44478 41920 00000 10170 20165 30044 40128 7104/ 333 59021;
0224444780999992000112503004+26480+087270FM-12+0072VNVT V0209999C000012200019N0025001N1+01981+01791101501ADDAA199000091AY141031AY241031GA1001+999999999GF100991001001999999001001KA1120N+01701MA1999999100651MD1999999-0201MW1101REMSYN076AAXX  25034 44478 31925 00000 10198 20179 30065 40150 71044 333 20170 59020;EQDQ01  00002PRCP99
0224444780999992000112512004+26480+087270FM-12+0072VNVT V0209999C000012200019N0020001N1+02341+02041101021ADDAA199000091AY141061AY201061GA1001+999999999GF100991001001999999001001KA1120M+02851MA1999999100181MD1999999+0001MW1101REMSYN076AAXX  25124 44478 31920 00000 10234 20204 30018 40102 71040 333 10285 58000;EQDQ01  00002PRCP99
0211444780999992000112603004+26480+087270FM-12+0072VNVT V0209999C000012200019N0015001N1+01701+01191999999ADDAA199000091GA1001+999999999GF100991001001999999001001KA1120N+01061MA1999999088471MD1999999+0131ME1315569REMSYN076AAXX  26034 44478 31915 00000 10170 20119 38847 48556 81100 333 20106 58013;EQDQ01  00002PRCP99
0194444780999992000112606004+26480+087270FM-12+0072VNVT V0202701N001012200019N0025001N1+02581+01861101521ADDAY141061AY241061GA1001+999999999GF100991001001999999001001MA1999999100672MD1999999+0091MW1051REMSYN070AAXX  26064 44478 41925 02702 10258 20186 30067 40152 70544 333 58009;EQDQ01+100673APOSP 
0175444780999992000112609004+26480+087270FM-12+0072VNVT V0200901N001012200019N0040001N1+02861+01461101211ADDAY141031AY241031GA1001+999999999GF100991001001999999001001MA1999999100361MD1999999+0171MW1051REMSYN070AAXX  26094 44478 41940 00902 10286 20146 30036 40121 70544 333 58017;
0224444780999992000112612004+26480+087270FM-12+0072VNVT V0209999C000012200019N0030001N1+02441+01721101251ADDAA199000091AY141061AY241061GA1001+999999999GF100991001001999999001001KA1120M+02961MA1999999100401MD1999999+0221MW1051REMSYN076AAXX  26124 44478 31930 00000 10244 20172 30040 40125 70544 333 10296 58022;EQDQ01  00002PRCP99
0167444780999992000112700004+26480+087270FM-12+0072VNVT V0209999C000012200019N0005001N1+01451+01431101461ADDAY141061GA1001+999999999GF100991001001999999001001MA1999999100611MD1999999+0091MW1421REMSYN070AAXX  27004 44478 41905 00000 10145 20143 30061 40146 7424/ 333 58009;
0224444780999992000112703004+26480+087270FM-12+0072VNVT V0209999C000012200019N0015001N1+01761+01691101661ADDAA199000091AY141031AY241031GA1001+999999999GF100991001001999999001001KA1120N+01451MA1999999100811MD1999999+0091MW1101REMSYN076AAXX  27034 44478 31915 00000 10176 20169 30081 40166 71044 333 20145 58009;EQDQ01  00002PRCP99
0175444780999992000112706004+26480+087270FM-12+0072VNVT V0209999C000012200019N0030001N1+02701+01831101601ADDAY141061AY241061GA1001+999999999GF100991001001999999001001MA1999999100751MD1999999+0081MW1051REMSYN070AAXX  27064 44478 41930 00000 10270 20183 30075 40160 70544 333 58008;
0147444780999992000112709004+26480+087270FM-12+0072VNVT V0200901N002612200019N0070001N1+01921+01541101251ADDGA1001+999999999GF100991001001999999001001MA1999999100401MD1999999+0041REMSYN064AAXX  27094 44478 42957 00905 10192 20154 30040 40125 333 58004;
0224444780999992000112712004+26480+087270FM-12+0072VNVT V0209999C000012200019N0050001N1+02461+01701101281ADDAA199000091AY101061AY201061GA1001+999999999GF100991001001999999001001KA1120M+03101MA1999999100431MD1999999+0031MW1051REMSYN076AAXX  27124 44478 31950 00000 10246 20170 30043 40128 70500 333 10310 58003;EQDQ01  00002PRCP99
0224444780999992000112803004+26480+087270FM-12+0072VNVT V0209999C000012200019N0015001N1+01771+01691101561ADDAA199000091AY141031AY241031GA1001+999999999GF100991001001999999001001KA1120N+01431MA1999999100711MD1999999-0101MW1101REMSYN076AAXX  28034 44478 31915 00000 10177 20169 30071 40156 71044 333 20143 59010;EQDQ01  00002PRCP99
0147444780999992000112806004+26480+087270FM-12+0072VNVT V0201801N001012200019N0070001N1+02761+01681101481ADDGA1001+999999999GF100991001001999999001001MA1999999100641MD1999999-0111REMSYN064AAXX  28064 44478 42957 01802 10276 20168 30064 40148 333 59011;
0147444780999992000112809004+26480+087270FM-12+0072VNVT V0201801N001012200019N0120001N1+02901+01521101131ADDGA1001+999999999GF100991001001999999001001MA1999999100281MD1999999-0121REMSYN064AAXX  28094 44478 42962 01802 10290 20152 30028 40113 333 59012;
0224444780999992000112903004+26480+087270FM-12+0072VNVT V0209999C000012200019N0015001N1+01661+01551101421ADDAA199000091AY141031AY241031GA1001+999999999GF100991001001999999001001KA1120N+01271MA1999999100571MD1999999-0141MW1101REMSYN076AAXX  29034 44478 31915 00000 10166 20155 30057 40142 71044 333 20127 59014;EQDQ01  00002PRCP99
0175444780999992000112906004+26480+087270FM-12+0072VNVT V0201201N001012200019N0050001N1+02521+01511101401ADDAY141061AY241061GA1001+999999999GF100991001001999999001001MA1999999100551MD1999999-0091MW1051REMSYN070AAXX  29064 44478 41950 01202 10252 20151 30055 40140 70544 333 59009;
0224444780999992000112912004+26480+087270FM-12+0072VNVT V0209999C000012200019N0050001N1+02241+01501101161ADDAA199000091AY101061AY201061GA1001+999999999GF100991001001999999001001KA1120M+02851MA1999999100311MD1999999+0131MW1051REMSYN076AAXX  29124 44478 31950 00000 10224 20150 30031 40116 70500 333 10285 58013;EQDQ01  00002PRCP99
0167444780999992000113000004+26480+087270FM-12+0072VNVT V0209999C000012200019N0008001N1+01251+01231101321ADDAY141061GA1001+999999999GF100991001001999999001001MA1999999100481MD1999999+0071MW1411REMSYN070AAXX  30004 44478 41908 00000 10125 20123 30048 40132 7414/ 333 58007;
0224444780999992000113003004+26480+087270FM-12+0072VNVT V0209999C000012200019N0015001N1+01571+01551101581ADDAA199000091AY141031AY241031GA1001+999999999GF100991001001999999001001KA1120N+01251MA1999999100731MD1999999+0161MW1101REMSYN076AAXX  30034 44478 31915 00000 10157 20155 30073 40158 71044 333 20125 58016;EQDQ01  00002PRCP99
0175444780999992000113006004+26480+087270FM-12+0072VNVT V0209999C000012200019N0020001N1+02441+01731101541ADDAY141061AY241061GA1001+999999999GF100991001001999999001001MA1999999100691MD1999999+0141MW1101REMSYN070AAXX  30064 44478 41920 00000 10244 20173 30069 40154 71044 333 58014;
0167444780999992000120100004+26480+087270FM-12+0072VNVT V0209999C000012200019N0005001N1+00151+00131101371ADDAY141061GA1001+999999999GF100991001001999999001001MA1999999100521MD1999999+0041MW1401REMSYN070AAXX  01004 44478 41905 00000 10015 20013 30052 40137 7404/ 333 58004;
0256444780999992000120103004+26480+087270FM-12+0072VNVT V0209999C000012200019N0015001N1+01422+01282101601ADDAA199000091AY141031AY241031GA1001+999999999GF100991001001999999001001KA1120N+00931MA1999999100751MD1999999+0021MW1101REMSYN076AAXX  01034 44478 31915 00000 10142 20128 30075 40160 71044 333 20093 58002;EQDQ01+001423ATOT  Q02+001283ATOD  Q03  00002PRCP99
0147444780999992000120109004+26480+087270FM-12+0072VNVT V0202701N003112200019N0080001N1+02561+00941101331ADDGA1001+999999999GF100991001001999999001001MA1999999100481MD1999999+0141REMSYN064AAXX  01094 44478 42958 02706 10256 20094 30048 40133 333 58014;
0224444780999992000120112004+26480+087270FM-12+0072VNVT V0202701N002112200019N0050001N1+02001+01841101211ADDAA199000091AY101061AY201061GA1001+999999999GF100991001001999999001001KA1120M+02751MA1999999100361MD1999999-0101MW1051REMSYN076AAXX  01124 44478 31950 02704 10200 20184 30036 40121 70500 333 10275 59010;EQDQ01  00002PRCP99
0167444780999992000120200004+26480+087270FM-12+0072VNVT V0209999C000012200019N0005001N1+00881+00861101611ADDAY141061GA1001+999999999GF100991001001999999001001MA1999999100761MD1999999+0241MW1411REMSYN070AAXX  02004 44478 41905 00000 10088 20086 30076 40161 7414/ 333 58024;
0224444780999992000120203004+26480+087270FM-12+0072VNVT V0203601N000512200019N0010001N1+01171+01151101851ADDAA199000091AY141031AY241031GA1001+999999999GF100991001001999999001001KA1120N+00881MA1999999101001MD1999999+0251MW1441REMSYN076AAXX  02034 44478 31910 03601 10117 20115 30100 40185 74444 333 20088 58025;EQDQ01  00002PRCP99
0167444780999992000120300004+26480+087270FM-12+0072VNVT V0209999C000012200019N0002001N1+00901+00901101831ADDAY141061GA1001+999999999GF100991001001999999001001MA1999999100981MD1999999+0221MW1411REMSYN070AAXX  03004 44478 41902 00000 10090 20090 30098 40183 7414/ 333 58022;
0224444780999992000120303004+26480+087270FM-12+0072VNVT V0209999C000012200019N0015001N1+01331+01291101991ADDAA199000091AY141031AY241031GA1001+999999999GF100991001001999999001001KA1120N+00881MA1999999101141MD1999999+0141MW1101REMSYN076AAXX  03034 44478 31915 00000 10133 20129 30114 40199 71044 333 20088 58014;EQDQ01  00002PRCP99
0175444780999992000120306004+26480+087270FM-12+0072VNVT V0202701N001012200019N0050001N1+02461+00991101891ADDAY141061AY241061GA1001+999999999GF100991001001999999001001MA1999999101041MD1999999+0091MW1051REMSYN070AAXX  03064 44478 41950 02702 10246 20099 30104 40189 70544 333 58009;
0147444780999992000120309004+26480+087270FM-12+0072VNVT V0202701N003112200019N0070001N1+02701+01041101471ADDGA1001+999999999GF100991001001999999001001MA1999999100621MD1999999-0071REMSYN064AAXX  03094 44478 42957 02706 10270 20104 30062 40147 333 59007;
0167444780999992000120400004+26480+087270FM-12+0072VNVT V0209999C000012200019N0003001N1+00771+00771101371ADDAY141061GA1001+999999999GF100991001001999999001001MA1999999100521MD1999999-0461MW1421REMSYN070AAXX  04004 44478 41903 00000 10077 20077 30052 40137 7424/ 333 59046;
0224444780999992000120403004+26480+087270FM-12+0072VNVT V0209999C000012200019N0015001N1+01221+01191101591ADDAA199000091AY141031AY241031GA1001+999999999GF100991001001999999001001KA1120N+00761MA1999999100741MD1999999-0401MW1101REMSYN076AAXX  04034 44478 31915 00000 10122 20119 30074 40159 71044 333 20076 59040;EQDQ01  00002PRCP99
0147444780999992000120406004+26480+087270FM-12+0072VNVT V0200901N001012200019N0060001N1+02342+01291101521ADDGA1001+999999999GF100991001001999999001001MA1999999100671MD1999999-0371REMSYN064AAXX  04064 44478 42956 00902 10234 20129 30067 40152 333 59037;
0224444780999992000120412004+26480+087270FM-12+0072VNVT V0209999C000012200019N0050001N1+02201+01341101181ADDAA199000091AY101061AY201061GA1001+999999999GF100991001001999999001001KA1120M+02731MA1999999100331MD1999999-0281MW1051REMSYN076AAXX  04124 44478 31950 00000 10220 20134 30033 40118 70500 333 10273 59028;EQDQ01  00002PRCP99
0175444780999992000120506004+26480+087270FM-12+0072VNVT V0201801N000512200019N0050001N1+02361+01341101441ADDAY141061AY241061GA1001+999999999GF100991001001999999001001MA1999999100591MD1999999-0081MW1051REMSYN070AAXX  05064 44478 41950 01801 10236 20134 30059 40144 70544 333 59008;
0147444780999992000120509004+26480+087270FM-12+0072VNVT V0202101N001012200019N0060001N1+02641+01061101111ADDGA1001+999999999GF100991001001999999001001MA1999999100261MD1999999-0091REMSYN064AAXX  05094 44478 42956 02102 10264 20106 30026 40111 333 59009;
0167444780999992000120600004+26480+087270FM-12+0072VNVT V0209999C000012200019N0008001N1+00901+00901101351ADDAY141061GA1001+999999999GF100991001001999999001001MA1999999100501MD1999999+0051MW1411REMSYN070AAXX  06004 44478 41908 00000 10090 20090 30050 40135 7414/ 333 58005;
0224444780999992000120603004+26480+087270FM-12+0072VNVT V0209999C000012200019N0015001N1+01301+01251101631ADDAA199000091AY141031AY241031GA1001+999999999GF100991001001999999001001KA1120N+00901MA1999999100781MD1999999+0151MW1101REMSYN076AAXX  06034 44478 31915 00000 10130 20125 30078 40163 71044 333 20090 58015;EQDQ01  00002PRCP99
0147444780999992000120606004+26480+087270FM-12+0072VNVT V0209999C000012200019N0060001N1+02401+01261101581ADDGA1001+999999999GF100991001001999999001001MA1999999100731MD1999999+0141REMSYN064AAXX  06064 44478 42956 00000 10240 20126 30073 40158 333 58014;
0147444780999992000120609004+26480+087270FM-12+0072VNVT V0201801N001012200019N0070001N1+02601+00941101311ADDGA1001+999999999GF100991001001999999001001MA1999999100461MD1999999+0201REMSYN064AAXX  06094 44478 42957 01802 10260 20094 30046 40131 333 58020;
0167444780999992000120700004+26480+087270FM-12+0072VNVT V0209999C000012200019N0005001N1+00961+00951101491ADDAY141061GA1001+999999999GF100991001001999999001001MA1999999100641MD1999999+0141MW1411REMSYN070AAXX  07004 44478 41905 00000 10096 20095 30064 40149 7414/ 333 58014;
0224444780999992000120703004+26480+087270FM-12+0072VNVT V0209999C000012200019N0015001N1+01361+01311101711ADDAA199000091AY141031AY241031GA1001+999999999GF100991001001999999001001KA1120N+00951MA1999999100861MD1999999+0081MW1101REMSYN076AAXX  07034 44478 31915 00000 10136 20131 30086 40171 71044 333 20095 58008;EQDQ01  00002PRCP99
0175444780999992000120706004+26480+087270FM-12+0072VNVT V0202001N001012200019N0050001N1+02421+01201101671ADDAY141061AY241061GA1001+999999999GF100991001001999999001001MA1999999100821MD1999999+0091MW1051REMSYN070AAXX  07064 44478 41950 02002 10242 20120 30082 40167 70544 333 58009;
0147444780999992000120709004+26480+087270FM-12+0072VNVT V0202701N002112200019N0100001N1+02621+01101101421ADDGA1001+999999999GF100991001001999999001001MA1999999100571MD1999999+0111REMSYN064AAXX  07094 44478 42960 02704 10262 20110 30057 40142 333 58011;
0224444780999992000120712004+26480+087270FM-12+0072VNVT V0209999C000012200019N0050001N1+02341+01321101331ADDAA199000091AY141061AY201061GA1001+999999999GF100991001001999999001001KA1120M+02721MA1999999100491MD1999999+0051MW1051REMSYN076AAXX  07124 44478 31950 00000 10234 20132 30049 40133 70540 333 10272 58005;EQDQ01  00002PRCP99
0147444780999992000120806004+26480+087270FM-12+0072VNVT V0201201N001012200019N0060001N1+02381+01361101611ADDGA1001+999999999GF100991001001999999001001MA1999999100761MD1999999-0061REMSYN064AAXX  08064 44478 42956 01202 10238 20136 30076 40161 333 59006;
0147444780999992000120809004+26480+087270FM-12+0072VNVT V0202701N001012200019N0080001N1+02621+01091101271ADDGA1001+999999999GF100991001001999999001001MA1999999100421MD1999999-0141REMSYN064AAXX  08094 44478 42958 02702 10262 20109 30042 40127 333 59014;
0196444780999992000120812004+26480+087270FM-12+0072VNVT V0209999C000012200019N0060001N1+02301+01301101211ADDAA199000091GA1001+999999999GF100991001001999999001001KA1120M+02751MA1999999100371MD1999999-0121REMSYN070AAXX  08124 44478 32956 00000 10230 20130 30037 40121 333 10275 59012;EQDQ01  00002PRCP99
0167444780999992000120900004+26480+087270FM-12+0072VNVT V0209999C000012200019N0003001N1+00951+00951101221ADDAY141061GA1001+999999999GF100991001001999999001001MA1999999100381MD1999999-0281MW1411REMSYN070AAXX  09004 44478 41903 00000 10095 20095 30038 40122 7414/ 333 59028;
0224444780999992000120903004+26480+087270FM-12+0072VNVT V0209999C000012200019N0010001N1+01301+01301101451ADDAA199000091AY141031AY241031GA1001+999999999GF100991001001999999001001KA1120N+00951MA1999999100601MD1999999-0261MW1421REMSYN076AAXX  09034 44478 31910 00000 10130 20130 30060 40145 74244 333 20095 59026;EQDQ01  00002PRCP99
0175444780999992000120909004+26480+087270FM-12+0072VNVT V0202701N001012200019N0040001N1+02501+01301101221ADDAY141031AY241031GA1001+999999999GF100991001001999999001001MA1999999100371MD1999999-0061MW1051REMSYN070AAXX  09094 44478 41940 02702 10250 20130 30037 40122 70544 333 59006;
0157444780999992000121000004+26480+087270FM-12+0072VNVT V0209999C000012200019N0004001N1+00981+00981101391ADDAY141061GF102991001001999999001011MA1999999100541MD1999999+0161MW1411REMSYN076AAXX  10004 44478 41904 20000 10098 20098 30054 40139 7414/ 80001 333 58016;
0214444780999992000121003004+26480+087270FM-12+0072VNVT V0209999C000012200019N0015001N1+01301+01291101591ADDAA199000091AY141031AY241031GF102991001001999999001011KA1120N+00981MA1999999100741MD1999999+0141MW1101REMSYN082AAXX  10034 44478 31915 20000 10130 20129 30074 40159 71044 80001 333 20098 58014;EQDQ01  00002PRCP99
0175444780999992000121006004+26480+087270FM-12+0072VNVT V0209999C000012200019N0050001N1+02341+01351101531ADDAY141061AY241061GA1001+999999999GF100991001001999999001001MA1999999100681MD1999999+0111MW1051REMSYN070AAXX  10064 44478 41950 00000 10234 20135 30068 40153 70544 333 58011;
0165444780999992000121009004+26480+087270FM-12+0072VNVT V0201201N003112200019N0050001N1+02561+01201101251ADDAY141031AY241031GF103991001001999999001031MA1999999100401MD1999999+0031MW1051REMSYN076AAXX  10094 44478 41950 31206 10256 20120 30040 40125 70544 80003 333 58003;
0214444780999992000121012004+26480+087270FM-12+0072VNVT V0209999C000012200019N0025001N1+02221+01361101221ADDAA199000091AY141061AY221061GF102991001001999999001011KA1120M+02681MA1999999100381MD1999999+0081MW1101REMSYN082AAXX  10124 44478 31925 20000 10222 20136 30038 40122 71042 80001 333 10268 58008;EQDQ01  00002PRCP99
0167444780999992000121100004+26480+087270FM-12+0072VNVT V0209999C000012200019N0003001N1+01001+00991101391ADDAY141061GA1001+999999999GF100991001001999999001001MA1999999100541MD1999999+0001MW1411REMSYN070AAXX  11004 44478 41903 00000 10100 20099 30054 40139 7414/ 333 58000;
0224444780999992000121103004+26480+087270FM-12+0072VNVT V0209999C000012200019N0015001N1+01381+01341101661ADDAA199000091AY141031AY241031GA1001+999999999GF100991001001999999001001KA1120N+01001MA1999999100811MD1999999-0071MW1101REMSYN076AAXX  11034 44478 31915 00000 10138 20134 30081 40166 71044 333 20100 59007;EQDQ01  00002PRCP99
0175444780999992000121106004+26480+087270FM-12+0072VNVT V0202701N001012200019N0050001N1+02341+01261101501ADDAY141061AY241061GA1001+999999999GF100991001001999999001001MA1999999100651MD1999999-0251MW1051REMSYN070AAXX  11064 44478 41950 02702 10234 20126 30065 40150 70544 333 59025;
0165444780999992000121109004+26480+087270FM-12+0072VNVT V0201801N001012200019N0050001N1+02501+01161101371ADDAY141031AY241031GF101991011011008001001001MA1999999100521MD1999999+0121MW1051REMSYN076AAXX  11094 44478 41550 11802 10250 20116 30052 40137 70544 81100 333 58012;
0224444780999992000121112004+26480+087270FM-12+0072VNVT V0209999C000012200019N0030001N1+02201+01501101221ADDAA199000091AY141061AY241061GA1001+999999999GF100991001001999999001001KA1120M+02661MA1999999100381MD1999999+0001MW1051REMSYN076AAXX  11124 44478 31930 00000 10220 20150 30038 40122 70544 333 10266 58000;EQDQ01  00002PRCP99
0224444780999992000121203004+26480+087270FM-12+0072VNVT V0209999C000012200019N0015001N1+01401+01401101731ADDAA199000091AY141031AY241031GA1001+999999999GF100991001001999999001001KA1120N+00951MA1999999100881MD1999999+0071MW1101REMSYN076AAXX  12034 44478 31915 00000 10140 20140 30088 40173 71044 333 20095 58007;EQDQ01  00002PRCP99
0147444780999992000121206004+26480+087270FM-12+0072VNVT V0200901N002112200019N0080001N1+02261+01451101641ADDGA1001+999999999GF100991001001999999001001MA1999999100791MD1999999+0141REMSYN064AAXX  12064 44478 42958 00904 10226 20145 30079 40164 333 58014;
0224444780999992000121212004+26480+087270FM-12+0072VNVT V0209999C000012200019N0030001N1+02101+01611101421ADDAA199000091AY101061AY201061GA1001+999999999GF100991001001999999001001KA1120M+02551MA1999999100571MD1999999+0191MW1051REMSYN076AAXX  12124 44478 31930 00000 10210 20161 30057 40142 70500 333 10255 58019;EQDQ01  00002PRCP99
0167444780999992000121300004+26480+087270FM-12+0072VNVT V0209999C000012200019N0005001N1+01071+01071101431ADDAY141061GA1001+999999999GF100991001001999999001001MA1999999100581MD1999999-0041MW1411REMSYN070AAXX  13004 44478 41905 00000 10107 20107 30058 40143 7414/ 333 59004;
0224444780999992000121303004+26480+087270FM-12+0072VNVT V0209999C000012200019N0015001N1+01381+01351101611ADDAA199000091AY141031AY241031GA1001+999999999GF100991001001999999001001KA1120N+01051MA1999999100761MD1999999-0121MW1101REMSYN076AAXX  13034 44478 31915 00000 10138 20135 30076 40161 71044 333 20105 59012;EQDQ01  00002PRCP99
0175444780999992000121309004+26480+087270FM-12+0072VNVT V0202701N001012200019N0050001N1+02461+01461101151ADDAY141031AY241031GA1001+999999999GF100991001001999999001001MA1999999100301MD1999999-0271MW1051REMSYN070AAXX  13094 44478 41950 02702 10246 20146 30030 40115 70544 333 59027;
0167444780999992000121400004+26480+087270FM-12+0072VNVT V0209999C000012200019N0003001N1+00941+00941101261ADDAY141061GA1001+999999999GF100991001001999999001001MA1999999100421MD1999999-0161MW1411REMSYN070AAXX  14004 44478 41903 00000 10094 20094 30042 40126 7414/ 333 59016;
0224444780999992000121403004+26480+087270FM-12+0072VNVT V0209999C000012200019N0006001N1+01301+01301101501ADDAA199000091AY141031AY241031GA1001+999999999GF100991001001999999001001KA1120N+00941MA1999999100651MD1999999-0111MW1421REMSYN076AAXX  14034 44478 31906 00000 10130 20130 30065 40150 74244 333 20094 59011;EQDQ01  00002PRCP99
0175444780999992000121406004+26480+087270FM-12+0072VNVT V0201401N001012200019N0030001N1+02301+01531101401ADDAY141061AY241061GA1001+999999999GF100991001001999999001001MA1999999100551MD1999999-0111MW1051REMSYN070AAXX  14064 44478 41930 01402 10230 20153 30055 40140 70544 333 59011;
0147444780999992000121409004+26480+087270FM-12+0072VNVT V0201801N002112200019N0050001N1+02541+01261101331ADDGA1001+999999999GF100991001001999999001001MA1999999100471MD1999999+0171REMSYN064AAXX  14094 44478 42950 01804 10254 20126 30047 40133 333 58017;
0224444780999992000121412004+26480+087270FM-12+0072VNVT V0209999C000012200019N0020001N1+02241+01511101231ADDAA199000091AY141061AY241061GA1001+999999999GF100991001001999999001001KA1120M+02661MA1999999100391MD1999999+0101MW1101REMSYN076AAXX  14124 44478 31920 00000 10224 20151 30039 40123 71044 333 10266 58010;EQDQ01  00002PRCP99
0167444780999992000121500004+26480+087270FM-12+0072VNVT V0209999C000012200019N0009001N1+00921+00921101361ADDAY141061GA1001+999999999GF100991001001999999001001MA1999999100541MD1999999+0091MW1411REMSYN070AAXX  15004 44478 41909 00000 10092 20092 30054 40136 7414/ 333 58009;
0224444780999992000121503004+26480+087270FM-12+0072VNVT V0209999C000012200019N0010001N1+01341+01311101631ADDAA199000091AY141031AY241031GA1001+999999999GF100991001001999999001001KA1120N+00921MA1999999100781MD1999999+0131MW1421REMSYN076AAXX  15034 44478 31910 00000 10134 20131 30078 40163 74244 333 20092 58013;EQDQ01  00002PRCP99
0147444780999992000121509004+26480+087270FM-12+0072VNVT V0202701N003112200019N0060001N1+02641+01211101321ADDGA1001+999999999GF100991001001999999001001MA1999999100471MD1999999+0101REMSYN064AAXX  15094 44478 42956 02706 10264 20121 30047 40132 333 58010;
0224444780999992000121512004+26480+087270FM-12+0072VNVT V0209999C000012200019N0030001N1+02261+01411101401ADDAA199000091AY111061AY201061GA1001+999999999GF100991001001999999001001KA1120M+02721MA1999999100551MD1999999+0161MW1051REMSYN076AAXX  15124 44478 31930 00000 10226 20141 30055 40140 70510 333 10272 58016;EQDQ01  00002PRCP99
0214444780999992000121603004+26480+087270FM-12+0072VNVT V0209999C000012200019N0015001N1+01321+01291101851ADDAA199000091AY141031AY221031GF104991001001999999001011KA1120N+01021MA1999999101001MD1999999+0221MW1101REMSYN082AAXX  16034 44478 31915 40000 10132 20129 30100 40185 71042 80001 333 20102 58022;EQDQ01  00002PRCP99
0165444780999992000121606004+26480+087270FM-12+0072VNVT V0203001N001019999999N0050001N1+02401+01341101801ADDAY141061AY221061GF107991001001999999001011MA1999999100951MD1999999+0211MW1051REMSYN076AAXX  16064 44478 41950 73002 10240 20134 30095 40180 70542 80001 333 58021;
0137444780999992000121609004+26480+087270FM-12+0072VNVT V0202101N001012200019N0060001N1+02721+01271101381ADDGF103991001001999999001011MA1999999100531MD1999999+0061REMSYN070AAXX  16094 44478 42956 32102 10272 20127 30053 40138 80001 333 58006;
0157444780999992000121700004+26480+087270FM-12+0072VNVT V0209999C000012200019N0010001N1+01001+01001101691ADDAY141061GF102991001001999999001011MA1999999100841MD1999999+0121MW1411REMSYN076AAXX  17004 44478 41910 20000 10100 20100 30084 40169 7414/ 80001 333 58012;
0224444780999992000121703004+26480+087270FM-12+0072VNVT V0209999C000012200019N0015001N1+01421+01391101911ADDAA199000091AY141031AY241031GA1001+999999999GF100991001001999999001001KA1120N+01001MA1999999101061MD1999999+0061MW1101REMSYN076AAXX  17034 44478 31915 00000 10142 20139 30106 40191 71044 333 20100 58006;EQDQ01  00002PRCP99
0175444780999992000121706004+26480+087270FM-12+0072VNVT V0209999C000012200019N0050001N1+02461+01341101731ADDAY141061AY241061GA1001+999999999GF100991001001999999001001MA1999999100881MD1999999-0071MW1051REMSYN070AAXX  17064 44478 41950 00000 10246 20134 30088 40173 70544 333 59007;
0224444780999992000121712004+26480+087270FM-12+0072VNVT V0209999C000012200019N0050001N1+02431+01311101381ADDAA199000091AY101061AY201061GA1001+999999999GF100991001001999999001001KA1120M+02771MA1999999100531MD1999999-0171MW1051REMSYN076AAXX  17124 44478 31950 00000 10243 20131 30053 40138 70500 333 10277 59017;EQDQ01  00002PRCP99
0167444780999992000121800004+26480+087270FM-12+0072VNVT V0209999C000012200019N0002001N1+00901+00901101401ADDAY141061GA1001+999999999GF100991001001999999001001MA1999999100551MD1999999-0291MW1411REMSYN070AAXX  18004 44478 41902 00000 10090 20090 30055 40140 7414/ 333 59029;
0224444780999992000121803004+26480+087270FM-12+0072VNVT V0209999C000012200019N0015001N1+01341+01311101611ADDAA199000091AY141031AY241031GA1001+999999999GF100991001001999999001001KA1120N+00901MA1999999100761MD1999999-0301MW1101REMSYN076AAXX  18034 44478 31915 00000 10134 20131 30076 40161 71044 333 20090 59030;EQDQ01  00002PRCP99
0147444780999992000121809004+26480+087270FM-12+0072VNVT V0202701N001012200019N0060001N1+02641+01381101091ADDGA1001+999999999GF100991001001999999001001MA1999999100241MD1999999-0321REMSYN064AAXX  18094 44478 42956 02702 10264 20138 30024 40109 333 59032;
0224444780999992000121812004+26480+087270FM-12+0072VNVT V0209999C000012200019N0020001N1+02271+01461101051ADDAA199000091AY141061AY241061GA1001+999999999GF100991001001999999001001KA1120M+02751MA1999999100211MD1999999-0321MW1101REMSYN076AAXX  18124 44478 31920 00000 10227 20146 30021 40105 71044 333 10275 59032;EQDQ01  00002PRCP99
0167444780999992000121900004+26480+087270FM-12+0072VNVT V0209999C000012200019N0002001N1+00971+00971101111ADDAY141061GA1001+999999999GF100991001001999999001001MA1999999100271MD1999999-0281MW1411REMSYN070AAXX  19004 44478 41902 00000 10097 20097 30027 40111 7414/ 333 59028;
0224444780999992000121903004+26480+087270FM-12+0072VNVT V0209999C000012200019N0010001N1+01281+01281101381ADDAA199000091AY141031AY241031GA1001+999999999GF100991001001999999001001KA1120N+00971MA1999999100531MD1999999-0231MW1421REMSYN076AAXX  19034 44478 31910 00000 10128 20128 30053 40138 74244 333 20097 59023;EQDQ01  00002PRCP99
0159444780999992000122000004+26480+087270FM-12+0072VNVT V0209999C000012200019N0008001N1+00951+00941101351ADDGA1001+999999999GF100991001001999999001001MA1999999100501MD1999999+0231MW1411REMSYN070AAXX  20004 44478 41908 00000 10095 20094 30050 40135 741// 333 58023;
0224444780999992000122003004+26480+087270FM-12+0072VNVT V0209999C000012200019N0008001N1+01251+01231101661ADDAA199000091AY141031AY241031GA1001+999999999GF100991001001999999001001KA1120N+00951MA1999999100811MD1999999+0281MW1441REMSYN076AAXX  20034 44478 31908 00000 10125 20123 30081 40166 74444 333 20095 58028;EQDQ01  00002PRCP99
0175444780999992000122009004+26480+087270FM-12+0072VNVT V0209999C000012200019N0040001N1+02421+01521101281ADDAY141031AY241031GA1001+999999999GF100991001001999999001001MA1999999100431MD1999999+0261MW1051REMSYN070AAXX  20094 44478 41940 00000 10242 20152 30043 40128 70544 333 58026;
0224444780999992000122012004+26480+087270FM-12+0072VNVT V0209999C000012200019N0015001N1+02001+01671101281ADDAA199000091AY141061AY241061GA1001+999999999GF100991001001999999001001KA1120M+02471MA1999999100441MD1999999+0291MW1101REMSYN076AAXX  20124 44478 31915 00000 10200 20167 30044 40128 71044 333 10247 58029;EQDQ01  00002PRCP99
0159444780999992000122100004+26480+087270FM-12+0072VNVT V0209999C000012200019N0001001N1+00951+00951101551ADDGA1001+999999999GF100991001001999999001001MA1999999100701MD1999999+0201MW1461REMSYN070AAXX  21004 44478 41501 00000 10095 20095 30070 40155 746// 333 58020;
0224444780999992000122103004+26480+087270FM-12+0072VNVT V0209999C000012200019N0008001N1+01311+01291101741ADDAA199000091AY141031AY241031GA1001+999999999GF100991001001999999001001KA1120N+00951MA1999999100891MD1999999+0081MW1421REMSYN076AAXX  21034 44478 31908 00000 10131 20129 30089 40174 74244 333 20095 58008;EQDQ01  00002PRCP99
0175444780999992000122106004+26480+087270FM-12+0072VNVT V0209999C000012200019N0030001N1+02301+01461101641ADDAY141061AY241061GA1001+999999999GF100991001001999999001001MA1999999100791MD1999999+0031MW1101REMSYN070AAXX  21064 44478 41930 00000 10230 20146 30079 40164 71044 333 58003;
0167444780999992000122200004+26480+087270FM-12+0072VNVT V0209999C000012200019N0003001N1+01051+01041101511ADDAY141061GA1001+999999999GF100991001001999999001001MA1999999100661MD1999999-0041MW1411REMSYN070AAXX  22004 44478 41903 00000 10105 20104 30066 40151 7414/ 333 59004;
0224444780999992000122203004+26480+087270FM-12+0072VNVT V0209999C000012200019N0008001N1+01301+01271101691ADDAA199000091AY141031AY241031GA1001+999999999GF100991001001999999001001KA1120N+01001MA1999999100841MD1999999-0051MW1421REMSYN076AAXX  22034 44478 31908 00000 10130 20127 30084 40169 74244 333 20100 59005;EQDQ01  00002PRCP99
0194444780999992000122206004+26480+087270FM-12+0072VNVT V0202701N001012200019N0040001N1+02402+01511101591ADDAY141061AY241061GA1001+999999999GF100991001001999999001001MA1999999100741MD1999999-0051MW1051REMSYN070AAXX  22064 44478 41940 02702 10240 20151 30074 40159 70544 333 59005;EQDQ01+002403ATOT  
0167444780999992000122500004+26480+087270FM-12+0072VNVT V0209999C000012200019N0010001N1+01171+01171101361ADDAY141061GA1001+999999999GF100991001001999999001001MA1999999100511MD1999999-0081MW1411REMSYN070AAXX  25004 44478 41910 00000 10117 20117 30051 40136 7414/ 333 59008;
0224444780999992000122503004+26480+087270FM-12+0072VNVT V0209999C000012200019N0015001N1+01571+01451101591ADDAA199000091AY141031AY241031GA1001+999999999GF100991001001999999001001KA1120N+01151MA1999999100741MD1999999-0051MW1101REMSYN076AAXX  25034 44478 31915 00000 10157 20145 30074 40159 71044 333 20115 59005;EQDQ01  00002PRCP99
0147444780999992000122506004+26480+087270FM-12+0072VNVT V0209999C000012200019N0100001N1+02601+01331101861ADDGA1001+999999999GF100991001001999999001001MA1999999100711MD1999999+0041REMSYN064AAXX  25064 44478 42960 00000 10260 20133 30071 40186 333 58004;
0137444780999992000122509004+26480+087270FM-12+0072VNVT V0202701N001512200019N0120001N1+02701+01241101281ADDGF103991031021008001001001MA1999999100431MD1999999+0061REMSYN070AAXX  25094 44478 42562 32703 10270 20124 30043 40128 83200 333 58006;
0186444780999992000122512004+26480+087270FM-12+0072VNVT V0209999C000012200019N0060001N1+02401+01581101271ADDAA199000091GF102991021051008001001001KA1120M+02801MA1999999100431MD1999999+0071REMSYN076AAXX  25124 44478 32556 20000 10240 20158 30043 40127 82500 333 10280 58007;EQDQ01  00002PRCP99
0167444780999992000122600004+26480+087270FM-12+0072VNVT V0209999C000012200019N0010001N1+01101+01101101441ADDAY141061GA1001+999999999GF100991001001999999001001MA1999999100591MD1999999+0081MW1411REMSYN070AAXX  26004 44478 41910 00000 10110 20110 30059 40144 7414/ 333 58008;
0224444780999992000122603004+26480+087270FM-12+0072VNVT V0209999C000012200019N0015001N1+01441+01411101691ADDAA199000091AY141031AY241031GA1001+999999999GF100991001001999999001001KA1120N+01101MA1999999100841MD1999999+0101MW1101REMSYN076AAXX  26034 44478 31915 00000 10144 20141 30084 40169 71044 333 20110 58010;EQDQ01  00002PRCP99
0147444780999992000122606004+26480+087270FM-12+0072VNVT V0201801N001012200019N0150001N1+02521+01221101691ADDGA1001+999999999GF100991001001999999001001MA1999999100841MD1999999+0131REMSYN064AAXX  26064 44478 42965 01802 10252 20122 30084 40169 333 58013;
0147444780999992000122609004+26480+087270FM-12+0072VNVT V0201801N001012200019N0150001N1+02701+01221101401ADDGA1001+999999999GF100991001001999999001001MA1999999100351MD1999999+0161REMSYN064AAXX  26094 44478 42965 01802 10270 20122 30035 40140 333 58016;
0224444780999992000122612004+26480+087270FM-12+0072VNVT V0209999C000012200019N0040001N1+02321+01451101401ADDAA199000091AY101061AY201061GA1001+999999999GF100991001001999999001001KA1120M+02861MA1999999100551MD1999999+0121MW1051REMSYN076AAXX  26124 44478 31940 00000 10232 20145 30055 40140 70500 333 10286 58012;EQDQ01  00002PRCP99
0167444780999992000122700004+26480+087270FM-12+0072VNVT V0209999C000012200019N0002001N1+01051+01051101591ADDAY141061GA1001+999999999GF100991001001999999001001MA1999999100741MD1999999+0151MW1411REMSYN070AAXX  27004 44478 41902 00000 10105 20105 30074 40159 7414/ 333 58015;
0224444780999992000122703004+26480+087270FM-12+0072VNVT V0209999C000012200019N0015001N1+01441+01371101791ADDAA199000091AY141031AY241031GA1001+999999999GF100991001001999999001001KA1120N+01041MA1999999100941MD1999999+0101MW1101REMSYN076AAXX  27034 44478 31915 00000 10144 20137 30094 40179 71044 333 20104 58010;EQDQ01  00002PRCP99
0167444780999992000122800004+26480+087270FM-12+0072VNVT V0209999C000012200019N0005001N1+01001+01001101551ADDAY141061GA1001+999999999GF100991001001999999001001MA1999999100701MD1999999-0041MW1411REMSYN070AAXX  28004 44478 41905 00000 10100 20100 30070 40155 7414/ 333 59004;
0224444780999992000122803004+26480+087270FM-12+0072VNVT V0209999C000012200019N0010001N1+01351+01321101751ADDAA199000091AY141031AY241031GA1001+999999999GF100991001001999999001001KA1120N+01001MA1999999100901MD1999999-0041MW1421REMSYN076AAXX  28034 44478 31910 00000 10135 20132 30090 40175 74244 333 20100 59004;EQDQ01  00002PRCP99
0147444780999992000122806004+26480+087270FM-12+0072VNVT V0209999C000012200019N0080001N1+02401+01261101741ADDGA1001+999999999GF100991001001999999001001MA1999999100891MD1999999-0031REMSYN064AAXX  28064 44478 42958 00000 10240 20126 30089 40174 333 59003;
0147444780999992000122809004+26480+087270FM-12+0072VNVT V0209999C000012200019N0080001N1+02621+01021101521ADDGA1001+999999999GF100991001001999999001001MA1999999100681MD1999999+0041REMSYN064AAXX  28094 44478 42958 00000 10262 20102 30068 40152 333 58004;
0224444780999992000122903004+26480+087270FM-12+0072VNVT V0209999C000012200019N0010001N1+01291+01271101691ADDAA199000091AY141031AY241031GA1001+999999999GF100991001001999999001001KA1120N+00901MA1999999100841MD1999999-0061MW1421REMSYN076AAXX  29034 44478 31910 00000 10129 20127 30084 40169 74244 333 20090 59006;EQDQ01  00002PRCP99
0147444780999992000122909004+26480+087270FM-12+0072VNVT V0202701N001012200019N0060001N1+02541+01101101291ADDGA1001+999999999GF100991001001999999001001MA1999999100401MD1999999-0241REMSYN064AAXX  29094 44478 42956 02702 10254 20110 30040 40129 333 59024;
0224444780999992000122912004+26480+087270FM-12+0072VNVT V0209999C000012200019N0050001N1+02141+01401101341ADDAA199000091AY101061AY201061GA1001+999999999GF100991001001999999001001KA1120M+02661MA1999999100491MD1999999-0231MW1051REMSYN076AAXX  29124 44478 31950 00000 10214 20140 30049 40134 70500 333 10266 59023;EQDQ01  00002PRCP99
0167444780999992000123000004+26480+087270FM-12+0072VNVT V0209999C000012200019N0003001N1+00871+00871101441ADDAY141061GA1001+999999999GF100991001001999999001001MA1999999100591MD1999999-0011MW1411REMSYN070AAXX  30004 44478 41903 00000 10087 20087 30059 40144 7414/ 333 59001;
0224444780999992000123003004+26480+087270FM-12+0072VNVT V0209999C000012200019N0008001N1+01191+01191101621ADDAA199000091AY141031AY241031GA1001+999999999GF100991001001999999001001KA1120N+00871MA1999999100771MD1999999-0071MW1421REMSYN076AAXX  30034 44478 31908 00000 10119 20119 30077 40162 74244 333 20087 59007;EQDQ01  00002PRCP99
0175444780999992000123009004+26480+087270FM-12+0072VNVT V0209999C000012200019N0050001N1+02501+01421101321ADDAY141031AY241031GA1001+999999999GF100991001001999999001001MA1999999100461MD1999999-0041MW1051REMSYN070AAXX  30094 44478 41950 00000 10250 20142 30046 40132 70544 333 59004;
0224444780999992000123012004+26480+087270FM-12+0072VNVT V0209999C000012200019N0040001N1+02001+01081101291ADDAA199000091AY141061AY241061GA1001+999999999GF100991001001999999001001KA1120M+02601MA1999999100451MD1999999-0041MW1051REMSYN076AAXX  30124 44478 31940 00000 10200 20108 30045 40129 70544 333 10260 59004;EQDQ01  00002PRCP99
0165444780999992000123100004+26480+087270FM-12+0072VNVT V0209999C000019999999N0015001N1+01141+99999101371ADDAY121061AY211061GF105991051001999999041001MA1999999100521MD1999999-0071MW1101REMSYN076AAXX  31004 44478 41915 50000 10114 20209 30052 40137 71021 85040 333 59007;
0214444780999992000123103004+26480+087270FM-12+0072VNVT V0209999C000019999999N0015001N1+01321+01251101631ADDAA199000091AY141031AY241031GF105991051001999999051001KA1120N+01071MA1999999100781MD1999999+0011MW1101REMSYN082AAXX  31034 44478 31915 50000 10132 20125 30078 40163 71044 85050 333 20107 58001;EQDQ01  00002PRCP99
