0221450050999992000022315004+99999+999999FM-12+999999999V0203501N00201001201CN0060001N1+01351+01241101661ADDAY161031AY221031GA1011+001209079GA2031+003609069GF108991081051001501999999MA1999999100861MD1110141+0311MW1601REMSYN100AAXX  2315  45005 41256 83502 10135 20124 30086 40166 51014 76062 885// 333 58031 81704 83612 85630;
