0115471094999992000010100004+37750+128670FM-15+1407RKNF V0200801N003610001519N0000001N1+99999+99999999999ADDMW1001MW2711REMMET091RKNF 2359Z 08007KT 0000 -SN 9FG000 M04/M05 A3021 RMK CIGW000/1SN00/6SN01/90402/ QFF1032PT6;
0103471094999992000010101004+37750+128670FM-15+1407RKNF V0200901N002610001519N0000001N1+99999+99999999999ADDMW1001MW2711REMMET079RKNF 0059Z 09005KT 0000 -SN 9FG000 M04/M05 A3024 RMK CIGW000/1SN00/ QFF1032PT9;
0070471094999992000010101014+37750+128670FM-16+1407RKNF V0201001N003110001519N0000001N1+99999+99999999999ADDMW1001MW2441REMMET046RKNF 0101Z 10006KT 0000 FG 9FG000 RMK CIGW000;
0102471094999992000010101594+37750+128670FM-16+1407RKNF V0201201N004610001519N0000001N1+99999+99999999999ADDMW1001MW2441REMMET078RKNF 0159Z 12009KT 0000 FG 9FG000 M04/M05 A3021 RMK CIGW000/1SN00/ QFF1033PT2;
0096471094999992000010102594+37750+128670FM-16+1407RKNF V0201001N002610001519N0000001N1+99999+99999999999ADDMW1001MW2441REMMET072RKNF 0259Z 10005KT 0000 FG 9FG000 M04/M04 A3021 RMK CIGW000/ QFF1033PT2;
0096471094999992000010104004+37750+128670FM-15+1407RKNF V0200901N001510001519N0000001N1+99999+99999999999ADDMW1001MW2441REMMET072RKNF 0359Z 09003KT 0000 FG 9FG000 M04/M04 A3017 RMK CIGW000/ QFF1031PT9;
0071471094999992000010104024+37750+128670FM-16+1407RKNF V0201101N002110001519N0000001N1+99999+99999999999ADDMW1001MW2711REMMET047RKNF 0402Z 11004KT 0000 -SN 9FG000 RMK CIGW000;
0103471094999992000010105004+37750+128670FM-15+1407RKNF V0200901N001510001519N0000001N1+99999+99999999999ADDMW1001MW2711REMMET079RKNF 0459Z 09003KT 0000 -SN 9FG000 M03/M04 A3017 RMK CIGW000/1SN01/ QFF1031PT5;
0114471094999992000010106004+37750+128670FM-15+1407RKNF V0201001N002110001519N0000001N1+99999+99999999999ADDMW1001MW2711REMMET090RKNF 0559Z 10004KT 0000 -SN 9FG000 M03/M04 A3017 RMK CIGW0001SN00/6SN01/90402/ QFF1030PT5;
0103471094999992000010107004+37750+128670FM-15+1407RKNF V0200801N003110001519N0000001N1+99999+99999999999ADDMW1001MW2711REMMET079RKNF 0659Z 08006KT 0000 -SN 9FG000 M03/M03 A3017 RMK CIGW000/1SN00/ QFF1030PT5;
0103471094999992000010107594+37750+128670FM-16+1407RKNF V0200901N002610001519N0000001N1+99999+99999999999ADDMW1001MW2711REMMET079RKNF 0759Z 09005KT 0000 -SN 9FG000 M04/M04 A3016 RMK CIGW000/1SN01/ QFF1030PT2;
0103471094999992000010108594+37750+128670FM-16+1407RKNF V0200701N003110001519N0000001N1+99999+99999999999ADDMW1001MW2711REMMET079RKNF 0859Z 07006KT 0000 -SN 9FG000 M04/M05 A3015 RMK CIGW000/1SN00/ QFF1029PT8;
0103471094999992000010109594+37750+128670FM-16+1407RKNF V0200801N003610001519N0000001N1+99999+99999999999ADDMW1001MW2711REMMET079RKNF 0959Z 08007KT 0000 -SN 9FG000 M04/M05 A3013 RMK CIGW000/1SN00/ QFF1029PT5;
0103471094999992000010111004+37750+128670FM-15+1407RKNF V0200601N004610001519N0000001N1+99999+99999999999ADDMW1001MW2711REMMET079RKNF 1059Z 06009KT 0000 -SN 9FG000 M04/M05 A3012 RMK CIGW000/1SN00/ QFF1029PT2;
0070471094999992000010111074+37750+128670FM-16+1407RKNF V0200701N004110001519N0000001N1+99999+99999999999ADDMW1001MW2441REMMET046RKNF 1107Z 07008KT 0000 FG 9FG000 RMK CIGW000;
0114471094999992000010111594+37750+128670FM-16+1407RKNF V0200801N003110001519N0000001N1+99999+99999999999ADDMW1001MW2441REMMET090RKNF 1159Z 08006KT 0000 FG 9FG000 M04/M04 A3012 RMK CIGW000/1SN00/6SN01/90402/ QFF1029PT2;
0096471094999992000010112594+37750+128670FM-16+1407RKNF V0200701N002110001519N0000001N1+99999+99999999999ADDMW1001MW2441REMMET072RKNF 1259Z 07004KT 0000 FG 9FG000 M04/M04 A3011 RMK CIGW000/ QFF1028PT8;
0096471094999992000010113594+37750+128670FM-16+1407RKNF V0200401N001510001519N0000001N1+99999+99999999999ADDMW1001MW2441REMMET072RKNF 1359Z 04003KT 0000 FG 9FG000 M04/M04 A3009 RMK CIGW000/ QFF1027PT8;
0102471094999992000010114594+37750+128670FM-16+1407RKNF V0200601N002610001519N0000001N1+99999+99999999999ADDMW1001MW2441REMMET078RKNF 1459Z 06005KT 0000 FG 9FG000 M04/M05 A3007 RMK CIGW000/20003/ QFF1027PT1;
0096471094999992000010115594+37750+128670FM-16+1407RKNF V0209999C000010001519N0000001N1+99999+99999999999ADDMW1001MW2441REMMET072RKNF 1559Z 00000KT 0000 FG 9FG000 M04/M04 A3004 RMK CIGW000/ QFF1026PT5;
0096471094999992000010116594+37750+128670FM-16+1407RKNF V0209999C000010001519N0000001N1+99999+99999999999ADDMW1001MW2441REMMET072RKNF 1659Z 00000KT 0000 FG 9FG000 M04/M04 A3002 RMK CIGW000/ QFF1024PT8;
0096471094999992000010117594+37750+128670FM-16+1407RKNF V0202401N001510001519N0000001N1+99999+99999999999ADDMW1001MW2441REMMET072RKNF 1759Z 24003KT 0000 FG 9FG000 M04/M04 A3000 RMK CIGW000/ QFF1024PT1;
0096471094999992000010118594+37750+128670FM-16+1407RKNF V0202301N002610001519N0000001N1+99999+99999999999ADDMW1001MW2441REMMET072RKNF 1859Z 23005KT 0000 FG 9FG000 M04/M04 A2997 RMK CIGW000/ QFF1022PT7;
0096471094999992000010119594+37750+128670FM-16+1407RKNF V0202101N002110001519N0000001N1+99999+99999999999ADDMW1001MW2441REMMET072RKNF 1959Z 21004KT 0000 FG 9FG000 M04/M05 A2995 RMK CIGW000/ QFF1022PT7;
0096471094999992000010121004+37750+128670FM-15+1407RKNF V0202001N001510001519N0000001N1+99999+99999999999ADDMW1001MW2441REMMET072RKNF 2059Z 20003KT 0000 FG 9FG000 M04/M04 A2992 RMK CIGW000/ QFF1021PT7;
0071471094999992000010121344+37750+128670FM-16+1407RKNF V0202401N003610001519N0000001N1+99999+99999999999ADDMW1001MW2711REMMET047RKNF 2134Z 24007KT 0000 -SN 9FG000 RMK CIGW000;
0103471094999992000010122004+37750+128670FM-15+1407RKNF V0202501N004610001519N0000001N1+99999+99999999999ADDMW1001MW2711REMMET079RKNF 2159Z 25009KT 0000 -SN 9FG000 M03/M03 A2989 RMK CIGW000/1SN01/ QFF1021PT0;
0103471094999992000010122594+37750+128670FM-16+1407RKNF V0202301N005110001519N0000001N1+99999+99999999999ADDMW1001MW2711REMMET079RKNF 2259Z 23010KT 0000 -SN 9FG000 M03/M04 A2984 RMK CIGW000/1SN00/ QFF1019PT0;
0146471094999992000010200004+37750+128670FM-15+1407RKNF V0202401N004610001519N0000001N1+99999+99999999999ADDMW1001MW2711OC101031REMMET095RKNF 2359Z 24009G020KT 0000 -SN 9FG000 M03/M03 A2979 RMK CIGW000/1SN00/6SN01/90402/ QFF1016PT6;EQDQ01+000003PRSWM1
0122471094999992000010201594+37750+128670FM-16+1407RKNF V0202301N007210001519N0000001N1+99999+99999999999ADDMW1001MW2711REMMET079RKNF 0159Z 23014KT 0000 -SN 9FG000 M03/M03 A2975 RMK CIGW000/1SN05/ QFF1014PT9;EQDQ01+000003PRSWM1
0134471094999992000010202594+37750+128670FM-16+1407RKNF V0202601N006210001519N0000001N1+99999+99999999999ADDMW1001MW2711OC101231REMMET083RKNF 0259Z 26012G024KT 0000 -SN 9FG000 M03/M03 A2971 RMK CIGW000/1SN07/ QFF1013PT6;EQDQ01+000003PRSWM1
0134471094999992000010203594+37750+128670FM-16+1407RKNF V0202801N005710001519N0000001N1+99999+99999999999ADDMW1001MW2711OC101131REMMET083RKNF 0359Z 28011G022KT 0000 -SN 9FG000 M03/M03 A2971 RMK CIGW000/1SN08/ QFF1013PT6;EQDQ01+000003PRSWM1
0134471094999992000010204594+37750+128670FM-16+1407RKNF V0202501N007210001519N0000001N1+99999+99999999999ADDMW1001MW2711OC101441REMMET083RKNF 0459Z 25014G028KT 0000 -SN 9FG000 M04/M04 A2968 RMK CIGW000/1SN06/ QFF1013PT9;EQDQ01+000003PRSWM1
0134471094999992000010205004+37750+128670FM-15+1407RKNF V0202501N007210001519N0000001N1+99999+99999999999ADDMW1001MW2711OC101441REMMET083RKNF 0459Z 25014G028KT 0000 -SN 9FG000 M04/M04 A2968 RMK CIGW000/1SN06/ QFF1013PT3;EQDQ01+000003PRSWM1
0146471094999992000010206004+37750+128670FM-15+1407RKNF V0202701N008210001519N0000001N1+99999+99999999999ADDMW1001MW2711OC101651REMMET095RKNF 0559Z 27016G032KT 0000 -SN 9FG000 M05/M05 A2966 RMK CIGW000/1SN01/6SN29/90405/ QFF1012PT9;EQDQ01+000003PRSWM1
0101471094999992000010206114+37750+128670FM-16+1407RKNF V0202601N007710001519N0000001N1+99999+99999999999ADDMW1001MW2441OC101391REMMET050RKNF 0611Z 26015G027KT 0000 FG 9FG000 RMK CIGW000;EQDQ01+000003PRSWM1
0223471094999992000010207004+37750+128670FM-15+1407RKNF V0202501N009310012019N0008001N1-00501-00601999999ADDGA1021+000159999GA2071+001209999GF107991999999999999999999MA1100411999999MW1441OC101491REMMET089RKNF 0659Z 25018G029KT 0800 FG 4FG/// BKN004 M05/M06 A2965 RMK CIGE004/1SN00/ QFF1013PT3;EQDQ01+000003PRSWM1Q02    003PRSWM1
0166471094999992000010207224+37750+128670FM-16+1407RKNF V0202701N010310018019N0016001N1+99999+99999999999ADDGA1031+000159999GA2071+001809999GF107991999999999999999999MW1001MW2101OC101541REMMET057RKNF 0722Z 27020G030KT 1600 BR 3FG/// BKN006 RMK CIGE006;EQDQ01+000003PRSWM1
0166471094999992000010207344+37750+128670FM-16+1407RKNF V0202901N008710024019N0032001N1+99999+99999999999ADDGA1021+000159999GA2071+002409999GF107991999999999999999999MW1001MW2101OC101391REMMET057RKNF 0734Z 29017G027KT 3200 BR 2FG/// BKN008 RMK CIGE008;EQDQ01+000003PRSWM1
0217471094999992000010207594+37750+128670FM-15+1407RKNF V0202601N008210024019N0032001N1-00601-00701999999ADDGA1021+000159999GA2071+002409999GF107991999999999999999999MA1100411999999MW1101OC101441REMMET083RKNF 0759Z 26016G028KT 3200 BR 2FG/// BKN008 M06/M07 A2965 RMK CIGE008/ QFF1013PT3;EQDQ01+000003PRSWM1Q02    003PRSWM1
0217471094999992000010208594+37750+128670FM-15+1407RKNF V0202901N007710024019N0032001N1-00701-00801999999ADDGA1021+000159999GA2071+002409999GF107991999999999999999999MA1100441999999MW1101OC101391REMMET083RKNF 0859Z 29015G027KT 3200 BR 2FG/// BKN008 M07/M08 A2966 RMK CIGE008/ QFF1013PT6;EQDQ01+000003PRSWM1Q02    003PRSWM1
0217471094999992000010209594+37750+128670FM-15+1407RKNF V0202701N007210024019N0032001N1-00701-00801999999ADDGA1021+000159999GA2071+002409999GF107991999999999999999999MA1100581999999MW1101OC101291REMMET083RKNF 0959Z 27014G025KT 3200 BR 2FG/// BKN008 M07/M08 A2970 RMK CIGE008/ QFF1014PT6;EQDQ01+000003PRSWM1Q02    003PRSWM1
0217471094999992000010211004+37750+128670FM-15+1407RKNF V0202501N007710024019N0032001N1-00701-00801999999ADDGA1021+000159999GA2071+002409999GF107991999999999999999999MA1100611999999MW1101OC101341REMMET083RKNF 1059Z 25015G026KT 3200 BR 2FG/// BKN008 M07/M08 A2971 RMK CIGE008/ QFF1014PT6;EQDQ01+000003PRSWM1Q02    003PRSWM1
0159471094999992000010211104+37750+128670FM-16+1407RKNF V0202601N006712200019N0048001N1+99999+99999999999ADDGA1011+000159999GA2021+002409999GF104991999999999999999999MW1001MW2101OC101291REMMET050RKNF 1110Z 26013G025KT 4800 BR 1FG/// SCT008 RMK ;EQDQ01+000003PRSWM1
0198471094999992000010211594+37750+128670FM-15+1407RKNF V0202801N007212200019N0060001N1-00801-01001999999ADDGA1021+002409999GF104991999999999999999999MA1100581999999MW1101OC101391REMMET080RKNF 1159Z 28014G027KT 6000 BR SCT008 M08/M10 A2970 RMK 6SN00/90405/ QFF1014PT6;EQDQ01+000003PRSWM1Q02    003PRSWM1
0185471094999992000010212594+37750+128670FM-15+1407RKNF V0203001N006712200019N0080001N1-00901-01001999999ADDGA1021+002409999GF102991999999999999999999MA1100581999999MW1101OC101231REMMET067RKNF 1259Z 30013G024KT 8000 BR FEW008 M09/M10 A2970 RMK QFF1014PT6;EQDQ01+000003PRSWM1Q02    003PRSWM1
0192471094999992000010214594+37750+128670FM-15+1407RKNF V0202901N007212200019N0080001N1-01101-01301999999ADDGA1021+002409999GF102991999999999999999999MA1100581999999MW1101OC101491REMMET074RKNF 1459Z 29014G029KT 8000 BR FEW008 M11/M13 A2970 RMK 20030/ QFF1016PT0;EQDQ01+000003PRSWM1Q02    003PRSWM1
0115471094999992000010215004+37750+128670FM-15+1407RKNF V0202701N007712200019N0080001N1+99999+99999999999ADDMW1001MW2101OC101441REMMET064RKNF 1359Z 27015G028KT 8000 BR 008 M09/M11 A2969 RMK QFF1014PT6;EQDQ01+000003PRSWM1
0185471094999992000010215594+37750+128670FM-15+1407RKNF V0203001N010312200019N0080001N1-01001-01201999999ADDGA1021+002409999GF102991999999999999999999MA1100611999999MW1101OC101541REMMET067RKNF 1559Z 30020G030KT 8000 BR FEW008 M10/M12 A2971 RMK QFF1016PT3;EQDQ01+000003PRSWM1Q02    003PRSWM1
0185471094999992000010217004+37750+128670FM-15+1407RKNF V0202701N009312200019N0090001N1-01101-01201999999ADDGA1021+003009999GF102991999999999999999999MA1100581999999MW1101OC101651REMMET067RKNF 1659Z 27018G032KT 9000 BR FEW010 M11/M12 A2970 RMK QFF1016PT0;EQDQ01+000003PRSWM1Q02    003PRSWM1
0136471094999992000010217344+37750+128670FM-16+1407RKNF V0202801N010812200019N0090001N1+99999+99999999999ADDGA1021+003009999GF102991999999999999999999MW1001MW2101OC102111REMMET043RKNF 1734Z 28021G041KT 9000 BR FEW010 RMK ;EQDQ01+000003PRSWM1
0185471094999992000010217594+37750+128670FM-15+1407RKNF V0202601N010312200019N0090001N1-01101-01301999999ADDGA1021+003009999GF102991999999999999999999MA1100681999999MW1101OC102211REMMET067RKNF 1759Z 26020G043KT 9000 BR FEW010 M11/M13 A2973 RMK QFF1017PT4;EQDQ01+000003PRSWM1Q02    003PRSWM1
0185471094999992000010218594+37750+128670FM-15+1407RKNF V0202901N011312200019N0080001N1-01201-01301999999ADDGA1021+001209999GF102991999999999999999999MA1100611999999MW1101OC102161REMMET067RKNF 1859Z 29022G042KT 8000 BR FEW004 M12/M13 A2971 RMK QFF1017PT4;EQDQ01+000003PRSWM1Q02    003PRSWM1
0185471094999992000010219594+37750+128670FM-15+1407RKNF V0202801N012312200019N0080001N1-01201-01301999999ADDGA1021+001209999GF102991999999999999999999MA1100681999999MW1101OC102111REMMET067RKNF 1959Z 28024G041KT 8000 BR FEW004 M12/M13 A2973 RMK QFF1018PT4;EQDQ01+000003PRSWM1Q02    003PRSWM1
0117471094999992000010220594+37750+128670FM-16+1407RKNF V0203001N009312200019N0112651N1+99999+99999999999ADDMA1100851999999MW1001OC102061REMMET057RKNF 2059Z 30018G040KT 9999 M13/M14 A2978 RMK QFF1020PT8;EQDQ01+000000PRSWM2
0117471094999992000010222004+37750+128670FM-15+1407RKNF V0202701N007712200019N0112651N1+99999+99999999999ADDMA1100981999999MW1001OC101851REMMET057RKNF 2159Z 27015G036KT 9999 M13/M15 A2982 RMK QFF1022PT2;EQDQ01+000000PRSWM2
0127471094999992000010222164+37750+128670FM-16+1407RKNF V0202601N006212200019N0112651N1+99999+99999999999ADDGA1021+003009999GF102991999999999999999999MW1001OC101801REMMET040RKNF 2216Z 26012G035KT 9999 FEW010 RMK ;EQDQ01+000000PRSWM2
0166471094999992000010222594+37750+128670FM-15+1407RKNF V0202801N007212200019N0112651N1-01301-01501999999ADDGA1021+001809999GF102991999999999999999999MA1100981999999MW1001OC101951REMMET064RKNF 2259Z 28014G038KT 9999 FEW006 M13/M15 A2982 RMK QFF1022PT2;EQDQ01+000000PRSWM2
0117471094999992000010223594+37750+128670FM-16+1407RKNF V0202501N006712200019N0112651N1+99999+99999999999ADDMA1101051999999MW1001OC101751REMMET057RKNF 2359Z 25013G034KT 9999 M12/M14 A2984 RMK QFF1022PT8;EQDQ01+000000PRSWM2
0117471094999992000010300594+37750+128670FM-16+1407RKNF V0202601N007212200019N0112651N1+99999+99999999999ADDMA1101121999999MW1001OC101801REMMET057RKNF 0059Z 26014G035KT 9999 M11/M13 A2986 RMK QFF1023PT8;EQDQ01+000000PRSWM2
0166471094999992000010301594+37750+128670FM-15+1407RKNF V0202701N006212200019N0112651N1-00901-01301999999ADDGA1021+054009999GF102991999999999999999999MA1101191999999MW1001OC101701REMMET064RKNF 0159Z 27012G033KT 9999 FEW180 M09/M13 A2988 RMK QFF1023PT8;EQDQ01+000000PRSWM2
0166471094999992000010302594+37750+128670FM-15+1407RKNF V0202701N005712200019N0112651N1-00901-01201999999ADDGA1021+054009999GF104991999999999999999999MA1101221999999MW1001OC101341REMMET064RKNF 0259Z 27011G026KT 9999 SCT180 M09/M12 A2989 RMK QFF1024PT5;EQDQ01+000000PRSWM2
0166471094999992000010303594+37750+128670FM-15+1407RKNF V0202801N005112200019N0112651N1-00701-01001999999ADDGA1021+054009999GF102991999999999999999999MA1101191999999MW1001OC101181REMMET064RKNF 0359Z 28010G023KT 9999 FEW180 M07/M10 A2988 RMK QFF1023PT8;EQDQ01+000000PRSWM2
0166471094999992000010304594+37750+128670FM-15+1407RKNF V0202801N002612200019N0112651N1-00601-01301999999ADDGA1021+054009999GF104991999999999999999999MA1101221999999MW1001OC100821REMMET064RKNF 0459Z 28005G016KT 9999 SCT180 M06/M13 A2989 RMK QFF1023PT9;EQDQ01+000000PRSWM2
0162471094999992000010305594+37750+128670FM-15+1407RKNF V0202701N003110540019N0112651N1-00601-01301999999ADDGA1071+054009999GF107991999999999999999999MA1101291999999MW1001REMMET068RKNF 0559Z 27006KT 9999 BKN180 M06/M13 A2991 RMK CIG180/ QFF1024PT6;EQDQ01+000000PRSWM2
0154471094999992000010307594+37750+128670FM-15+1407RKNF V0202601N004612200019N0112651N1-00801-01101999999ADDGA1021+054009999GF104991999999999999999999MA1101351999999MW1001REMMET060RKNF 0759Z 26009KT 9999 SCT180 M08/M11 A2993 RMK QFF1026PT2;EQDQ01+000000PRSWM2
0154471094999992000010308594+37750+128670FM-15+1407RKNF V0202801N003612200019N0112651N1-01001-01301999999ADDGA1021+054009999GF102991999999999999999999MA1101351999999MW1001REMMET060RKNF 0859Z 28007KT 9999 FEW180 M10/M13 A2993 RMK QFF1027PT7;EQDQ01+000000PRSWM2
0154471094999992000010309594+37750+128670FM-15+1407RKNF V0202701N005112200019N0112651N1-01001-01301999999ADDGA1021+054009999GF102991999999999999999999MA1101421999999MW1001REMMET060RKNF 0959Z 27010KT 9999 FEW180 M10/M13 A2995 RMK QFF1027PT7;EQDQ01+000000PRSWM2
0154471094999992000010310594+37750+128670FM-15+1407RKNF V0202501N006712200019N0112651N1-00901-01301999999ADDGA1021+054009999GF102991999999999999999999MA1101421999999MW1001REMMET060RKNF 1059Z 25013KT 9999 FEW180 M09/M13 A2995 RMK QFF1027PT7;EQDQ01+000000PRSWM2
0161471094999992000010311594+37750+128670FM-15+1407RKNF V0202601N006212200019N0112651N1-00801-01301999999ADDGA1021+054009999GF102991999999999999999999MA1101421999999MW1001REMMET067RKNF 1159Z 26012KT 9999 FEW180 M08/M13 A2995 RMK 90404/ QFF1027PT0;EQDQ01+000000PRSWM2
0105471094999992000010312594+37750+128670FM-16+1407RKNF V0202801N004112200019N0112651N1+99999+99999999999ADDMA1101461999999MW1001REMMET053RKNF 1259Z 28008KT 9999 M10/M16 A2996 RMK QFF1027PT3;EQDQ01+000000PRSWM2
0105471094999992000010313594+37750+128670FM-16+1407RKNF V0202701N003112200019N0112651N1+99999+99999999999ADDMA1101491999999MW1001REMMET053RKNF 1359Z 27006KT 9999 M08/M18 A2997 RMK QFF1027PT1;EQDQ01+000000PRSWM2
0105471094999992000010314594+37750+128670FM-16+1407RKNF V0202501N002612200019N0112651N1+99999+99999999999ADDMA1101491999999MW1001REMMET053RKNF 1459Z 25005KT 9999 M08/M18 A2997 RMK QFF1026PT3;EQDQ01+000000PRSWM2
0105471094999992000010315594+37750+128670FM-16+1407RKNF V0202801N004112200019N0112651N1+99999+99999999999ADDMA1101491999999MW1001REMMET053RKNF 1559Z 28008KT 9999 M07/M16 A2997 RMK QFF1026PT0;EQDQ01+000000PRSWM2
0105471094999992000010316594+37750+128670FM-16+1407RKNF V0202601N003612200019N0112651N1+99999+99999999999ADDMA1101591999999MW1001REMMET053RKNF 1659Z 26007KT 9999 M07/M15 A3000 RMK QFF1026PT7;EQDQ01+000000PRSWM2
0105471094999992000010317594+37750+128670FM-16+1407RKNF V0202701N004612200019N0112651N1+99999+99999999999ADDMA1101591999999MW1001REMMET053RKNF 1759Z 27009KT 9999 M08/M16 A3000 RMK QFF1026PT8;EQDQ01+000000PRSWM2
0105471094999992000010318594+37750+128670FM-16+1407RKNF V0202401N003112200019N0112651N1+99999+99999999999ADDMA1101591999999MW1001REMMET053RKNF 1859Z 24006KT 9999 M08/M16 A3000 RMK QFF1027PT0;EQDQ01+000000PRSWM2
0105471094999992000010319594+37750+128670FM-16+1407RKNF V0202601N003612200019N0112651N1+99999+99999999999ADDMA1101591999999MW1001REMMET053RKNF 1959Z 26007KT 9999 M08/M16 A3000 RMK QFF1027PT0;EQDQ01+000000PRSWM2
0105471094999992000010320594+37750+128670FM-16+1407RKNF V0202901N004112200019N0112651N1+99999+99999999999ADDMA1101631999999MW1001REMMET053RKNF 2059Z 29008KT 9999 M08/M16 A3001 RMK QFF1028PT1;EQDQ01+000000PRSWM2
0105471094999992000010321594+37750+128670FM-16+1407RKNF V0203001N003112200019N0112651N1+99999+99999999999ADDMA1101661999999MW1001REMMET053RKNF 2159Z 30006KT 9999 M08/M16 A3002 RMK QFF1029PT1;EQDQ01+000000PRSWM2
0173471094999992000010322594+37750+128670FM-15+1407RKNF V0202701N003612200019N0080001N1-00701-01301999999ADDGA1021+054009999GF102991999999999999999999MA1101691999999MW1101REMMET063RKNF 2259Z 27007KT 8000 BR FEW180 M07/M13 A3003 RMK QFF1028PT4;EQDQ01+000003PRSWM1Q02    003PRSWM1
0173471094999992000010323594+37750+128670FM-15+1407RKNF V0202901N002612200019N0060001N1-00701-01201999999ADDGA1021+054009999GF104991999999999999999999MA1101691999999MW1101REMMET063RKNF 2359Z 29005KT 6000 BR SCT180 M07/M12 A3003 RMK QFF1027PT9;EQDQ01+000003PRSWM1Q02    003PRSWM1
0173471094999992000010400594+37750+128670FM-15+1407RKNF V0202701N004112200019N0060001N1-00501-01201999999ADDGA1021+054009999GF104991999999999999999999MA1101831999999MW1101REMMET063RKNF 0059Z 27008KT 6000 BR SCT180 M05/M12 A3007 RMK QFF1029PT4;EQDQ01+000003PRSWM1Q02    003PRSWM1
0114471094999992000010402004+37750+128670FM-15+1407RKNF V0202801N003612200019N0060001N1+99999+99999999999ADDMA1101861999999MW1001MW2101REMMET056RKNF 0159Z 28007KT 6000 BR M05/M10 A3008 RMK QFF1029PT7;EQDQ01+000003PRSWM1
0114471094999992000010402594+37750+128670FM-16+1407RKNF V0202601N001512200019N0060001N1+99999+99999999999ADDMA1101831999999MW1001MW2101REMMET056RKNF 0259Z 26003KT 6000 BR M02/M11 A3007 RMK QFF1028PT0;EQDQ01+000003PRSWM1
0114471094999992000010403594+37750+128670FM-16+1407RKNF V0209999C000012200019N0060001N1+99999+99999999999ADDMA1101761999999MW1001MW2051REMMET056RKNF 0359Z 00000KT 6000 HZ M02/M11 A3005 RMK QFF1027PT7;EQDQ01+000003PRSWM1
0181471094999992000010405594+37750+128670FM-15+1407RKNF V0209999C000010540019N0060001N1-00401-01201999999ADDGA1071+054009999GF107991999999999999999999MA1101831999999MW1051REMMET071RKNF 0559Z 00000KT 6000 HZ BKN180 M04/M12 A3007 RMK CIG180/ QFF1028PT0;EQDQ01+000003PRSWM1Q02    003PRSWM1
0181471094999992000010406594+37750+128670FM-15+1407RKNF V0202701N002610540019N0060001N1-00501-01201999999ADDGA1071+054009999GF107991999999999999999999MA1101831999999MW1051REMMET071RKNF 0659Z 27005KT 6000 HZ BKN180 M05/M12 A3007 RMK CIG180/ QFF1028PT0;EQDQ01+000003PRSWM1Q02    003PRSWM1
0181471094999992000010407594+37750+128670FM-15+1407RKNF V0202501N002110540019N0080001N1-00601-01201999999ADDGA1071+054009999GF107991999999999999999999MA1101761999999MW1051REMMET071RKNF 0759Z 25004KT 8000 HZ BKN180 M06/M12 A3005 RMK CIG180/ QFF1029PT0;EQDQ01+000003PRSWM1Q02    003PRSWM1
0204471094999992000010408594+37750+128670FM-15+1407RKNF V0202801N001510540019N0060001N1-00601-01201999999ADDGA1021+003609999GA2071+054009999GF107991999999999999999999MA1101861999999MW1051REMMET078RKNF 0859Z 28003KT 6000 HZ FEW012 BKN180 M06/M12 A3008 RMK CIG180/ QFF1029PT7;EQDQ01+000003PRSWM1Q02    003PRSWM1
0204471094999992000010409594+37750+128670FM-15+1407RKNF V0203001N002610540019N0060001N1-00601-01201999999ADDGA1021+003609999GA2071+054009999GF107991999999999999999999MA1101861999999MW1051REMMET078RKNF 0959Z 30005KT 6000 HZ FEW012 BKN180 M06/M12 A3008 RMK CIG180/ QFF1029PT7;EQDQ01+000003PRSWM1Q02    003PRSWM1
0204471094999992000010410594+37750+128670FM-15+1407RKNF V0202701N003110540019N0080001N1-00601-01101999999ADDGA1021+003609999GA2071+054009999GF107991999999999999999999MA1101901999999MW1051REMMET078RKNF 1059Z 27006KT 8000 HZ FEW012 BKN180 M06/M11 A3009 RMK CIG180/ QFF1029PT9;EQDQ01+000003PRSWM1Q02    003PRSWM1
0196471094999992000010412594+37750+128670FM-15+1407RKNF V0203001N002112200019N0080001N1-00601-01001999999ADDGA1021+003609999GA2021+054009999GF104991999999999999999999MA1101901999999MW1101REMMET070RKNF 1259Z 30004KT 8000 BR FEW012 SCT180 M06/M10 A3009 RMK QFF1028PT9;EQDQ01+000003PRSWM1Q02    003PRSWM1
0114471094999992000010413004+37750+128670FM-15+1407RKNF V0202801N003612200019N0080001N1+99999+99999999999ADDMW1001MW2101REMMET071RKNF 1159Z 28007KT 8000 BR 012 180 M07/M11 A3008 RMK 90404/ QFF1029PT6;EQDQ01+000003PRSWM1
0204471094999992000010414594+37750+128670FM-15+1407RKNF V0202801N002610540019N0090001N1-00601-01001999999ADDGA1021+003609999GA2071+054009999GF107991999999999999999999MA1101931999999MW1101REMMET078RKNF 1459Z 28005KT 9000 BR SCT012 BKN180 M06/M10 A3010 RMK CIG180/ QFF1028PT3;EQDQ01+000003PRSWM1Q02    003PRSWM1
0204471094999992000010415594+37750+128670FM-15+1407RKNF V0202501N001510540019N0080001N1-00701-00901999999ADDGA1021+003609999GA2071+054009999GF107991999999999999999999MA1101861999999MW1101REMMET078RKNF 1559Z 25003KT 8000 BR SCT012 BKN180 M07/M09 A3008 RMK CIG180/ QFF1027PT6;EQDQ01+000003PRSWM1Q02    003PRSWM1
0227471094999992000010416594+37750+128670FM-15+1407RKNF V0202301N002610540019N0080001N1-00601-01101999999ADDGA1021+003609999GA2021+024009999GA3071+054009999GF107991999999999999999999MA1101831999999MW1101REMMET085RKNF 1659Z 23005KT 8000 BR FEW012 SCT080 BKN180 M06/M11 A3007 RMK CIG180/ QFF1027PT9;EQDQ01+000003PRSWM1Q02    003PRSWM1
0204471094999992000010417594+37750+128670FM-15+1407RKNF V0202601N001010540019N0080001N1-00501-01101999999ADDGA1021+024009999GA2071+054009999GF107991999999999999999999MA1101861999999MW1101REMMET078RKNF 1759Z 26002KT 8000 BR SCT080 BKN180 M05/M11 A3008 RMK CIG180/ QFF1028PT3;EQDQ01+000003PRSWM1Q02    003PRSWM1
0204471094999992000010418594+37750+128670FM-15+1407RKNF V0209999C000010540019N0080001N1-00501-01001999999ADDGA1021+003609999GA2071+054009999GF107991999999999999999999MA1101831999999MW1101REMMET078RKNF 1859Z 00000KT 8000 BR SCT012 BKN180 M05/M10 A3007 RMK CIG180/ QFF1027PT9;EQDQ01+000003PRSWM1Q02    003PRSWM1
0204471094999992000010420004+37750+128670FM-15+1407RKNF V0202501N001510540019N0060001N1-00501-01001999999ADDGA1021+003609999GA2071+054009999GF107991999999999999999999MA1101831999999MW1101REMMET078RKNF 1959Z 25003KT 6000 BR SCT012 BKN180 M05/M10 A3007 RMK CIG180/ QFF1027PT6;EQDQ01+000003PRSWM1Q02    003PRSWM1
0177471094999992000010420174+37750+128670FM-16+1407RKNF V0202701N002110036019N0060001N1+99999+99999999999ADDGA1021+001209999GA2071+003609999GA3071+054009999GF107991999999999999999999MW1001MW2101REMMET060RKNF 2017Z 27004KT 6000 BR FEW004 BKN012 BKN180 RMK CIGE012;EQDQ01+000003PRSWM1
0228471094999992000010420594+37750+128670FM-15+1407RKNF V0202401N001010036019N0060001N1-00501-00901999999ADDGA1021+001209999GA2071+003609999GA3071+024009999GF107991999999999999999999MA1101831999999MW1101REMMET086RKNF 2059Z 24002KT 6000 BR FEW004 BKN012 BKN080 M05/M09 A3007 RMK CIGE012/ QFF1028PT3;EQDQ01+000003PRSWM1Q02    003PRSWM1
0228471094999992000010422004+37750+128670FM-15+1407RKNF V0209999C000010036019N0060001N1-00601-00801999999ADDGA1021+001209999GA2071+003609999GA3081+024009999GF108991999999999999999999MA1101761999999MW1101REMMET086RKNF 2159Z 00000KT 6000 BR FEW004 BKN012 OVC080 M06/M08 A3005 RMK CIGE012/ QFF1027PT9;EQDQ01+000003PRSWM1Q02    003PRSWM1
0178471094999992000010422084+37750+128670FM-16+1407RKNF V0202601N001510036019N0048001N1+99999+99999999999ADDGA1011+000159999GA2021+001209999GA3081+003609999GF108991999999999999999999MW1001MW2711REMMET061RKNF 2208Z 26003KT 4800 -SN 1FG/// SCT004 OVC012 RMK CIGE012;EQDQ01+000003PRSWM1
0156471094999992000010422264+37750+128670FM-16+1407RKNF V0202401N002619999999N0032001N1+99999+99999999999ADDGA1021+000159999GF102991999999999999999999MW1001MW2711REMMET055RKNF 2226Z 24005KT 3200 -SN 2FG/// 004 012 RMK CIGE004;EQDQ01+000003PRSWM1Q02 001203SCOCIG
0155471094999992000010422364+37750+128670FM-16+1407RKNF V0202501N001510012019N0016001N1+99999+99999999999ADDGA1031+000159999GA2081+001209999GF108991999999999999999999MW1001MW2711REMMET054RKNF 2236Z 25003KT 1600 -SN 3FG/// OVC004 RMK CIGE004;EQDQ01+000003PRSWM1
0090471094999992000010422424+37750+128670FM-16+1407RKNF V0202701N003110001519N0000001N1+99999+99999999999ADDMW1001MW2711REMMET047RKNF 2242Z 27006KT 0000 -SN 9FG000 RMK CIGW000;EQDQ01+000003PRSWM1
0122471094999992000010423004+37750+128670FM-15+1407RKNF V0203001N002110001519N0000001N1+99999+99999999999ADDMW1001MW2711REMMET079RKNF 2259Z 30004KT 0000 -SN 9FG000 M06/M07 A3005 RMK CIGW000/1SN01/ QFF1027PT9;EQDQ01+000003PRSWM1
0134471094999992000010423594+37750+128670FM-16+1407RKNF V0202901N002610001519N0000001N1+99999+99999999999ADDMW1001MW2711REMMET091RKNF 2359Z 29005KT 0000 -SN 9FG000 M05/M06 A3004 RMK CIGW000/1SN04/6SN05/90404/ QFF1027PT5;EQDQ01+000003PRSWM1
0122471094999992000010500594+37750+128670FM-16+1407RKNF V0202801N003110001519N0000001N1+99999+99999999999ADDMW1001MW2711REMMET079RKNF 0059Z 28006KT 0000 -SN 9FG000 M05/M06 A3004 RMK CIGW000/1SN09/ QFF1027PT5;EQDQ01+000003PRSWM1
0122471094999992000010502004+37750+128670FM-15+1407RKNF V0200301N004610001519N0000001N1+99999+99999999999ADDMW1001MW2711REMMET079RKNF 0159Z 03009KT 0000 -SN 9FG000 M04/M05 A3005 RMK CIGW000/1SN04/ QFF1027PT5;EQDQ01+000003PRSWM1
0122471094999992000010503004+37750+128670FM-15+1407RKNF V0200601N004110001519N0000001N1+99999+99999999999ADDMW1001MW2711REMMET079RKNF 0259Z 06008KT 0000 -SN 9FG000 M04/M05 A3003 RMK CIGW000/1SN02/ QFF1026PT8;EQDQ01+000003PRSWM1
0122471094999992000010504004+37750+128670FM-15+1407RKNF V0200801N002610001519N0000001N1+99999+99999999999ADDMW1001MW2711REMMET079RKNF 0359Z 08005KT 0000 -SN 9FG000 M04/M04 A3001 RMK CIGW000/1SN04/ QFF1026PT1;EQDQ01+000003PRSWM1
0122471094999992000010504594+37750+128670FM-16+1407RKNF V0200701N004610001519N0000001N1+99999+99999999999ADDMW1001MW2711REMMET079RKNF 0459Z 07009KT 0000 -SN 9FG000 M03/M04 A3000 RMK CIGW000/1SN06/ QFF1025PT8;EQDQ01+000003PRSWM1
0134471094999992000010505594+37750+128670FM-16+1407RKNF V0200801N003610001519N0000001N1+99999+99999999999ADDMW1001MW2711REMMET091RKNF 0559Z 08007KT 0000 -SN 9FG000 M03/M04 A3000 RMK CIGW000/1SN05/6SN30/90407/ QFF1024PT4;EQDQ01+000003PRSWM1
0122471094999992000010506594+37750+128670FM-16+1407RKNF V0200501N002610001519N0000001N1+99999+99999999999ADDMW1001MW2711REMMET079RKNF 0659Z 05005KT 0000 -SN 9FG000 M03/M03 A2998 RMK CIGW000/1SN04/ QFF1024PT1;EQDQ01+000003PRSWM1
0122471094999992000010507594+37750+128670FM-16+1407RKNF V0200701N005110001519N0000001N1+99999+99999999999ADDMW1001MW2711REMMET079RKNF 0759Z 07010KT 0000 -SN 9FG000 M03/M03 A2997 RMK CIGW000/1SN06/ QFF1023PT7;EQDQ01+000003PRSWM1
0122471094999992000010508594+37750+128670FM-16+1407RKNF V0200601N004610001519N0000001N1+99999+99999999999ADDMW1001MW2711REMMET079RKNF 0859Z 06009KT 0000 -SN 9FG000 M04/M04 A2996 RMK CIGW000/1SN04/ QFF1023PT1;EQDQ01+000003PRSWM1
0122471094999992000010509594+37750+128670FM-16+1407RKNF V0200801N006210001519N0000001N1+99999+99999999999ADDMW1001MW2711REMMET079RKNF 0959Z 08012KT 0000 -SN 9FG000 M03/M04 A2998 RMK CIGW000/1SN09/ QFF1024PT8;EQDQ01+000003PRSWM1
0122471094999992000010510594+37750+128670FM-16+1407RKNF V0200701N005710001519N0000001N1+99999+99999999999ADDMW1001MW2711REMMET079RKNF 1059Z 07011KT 0000 -SN 9FG000 M03/M03 A2997 RMK CIGW000/1SN09/ QFF1023PT7;EQDQ01+000003PRSWM1
0134471094999992000010511594+37750+128670FM-16+1407RKNF V0200901N004110001519N0000001N1+99999+99999999999ADDMW1001MW2711REMMET091RKNF 1159Z 09008KT 0000 -SN 9FG000 M02/M03 A2996 RMK CIGW000/1SN01/6SN33/90410/ QFF1023PT1;EQDQ01+000003PRSWM1
0122471094999992000010512594+37750+128670FM-16+1407RKNF V0200601N003610001519N0000001N1+99999+99999999999ADDMW1001MW2711REMMET079RKNF 1259Z 06007KT 0000 -SN 9FG000 M02/M02 A2995 RMK CIGW000/1SN01/ QFF1023PT1;EQDQ01+000003PRSWM1
0122471094999992000010513594+37750+128670FM-16+1407RKNF V0200501N004110001519N0000001N1+99999+99999999999ADDMW1001MW2711REMMET079RKNF 1359Z 05008KT 0000 -SN 9FG000 M02/M02 A2992 RMK CIGW000/1SN01/ QFF1021PT3;EQDQ01+000003PRSWM1
0128471094999992000010514594+37750+128670FM-16+1407RKNF V0200701N003110001519N0000001N1+99999+99999999999ADDMW1001MW2711REMMET085RKNF 1459Z 07006KT 0000 -SN 9FG000 M01/M01 A2991 RMK CIGW000/1SN00/20070/ QFF1020PT6;EQDQ01+000003PRSWM1
0122471094999992000010515594+37750+128670FM-16+1407RKNF V0200801N001510001519N0000001N1+99999+99999999999ADDMW1001MW2711REMMET079RKNF 1559Z 08003KT 0000 -SN 9FG000 M01/M01 A2987 RMK CIGW000/1SN00/ QFF1018PT9;EQDQ01+000003PRSWM1
0122471094999992000010516594+37750+128670FM-16+1407RKNF V0200901N002610001519N0000001N1+99999+99999999999ADDMW1001MW2711REMMET079RKNF 1659Z 09005KT 0000 -SN 9FG000 M01/M01 A2985 RMK CIGW000/1SN00/ QFF1018PT2;EQDQ01+000003PRSWM1
0134471094999992000010518004+37750+128670FM-15+1407RKNF V0201001N003610001519N0000001N1+99999+99999999999ADDMW1001MW2711REMMET091RKNF 1759Z 10007KT 0000 -SN 9FG000 M01/M01 A2981 RMK CIGW000/1SN01/6SN03/90410/ QFF1016PT9;EQDQ01+000003PRSWM1
0122471094999992000010519004+37750+128670FM-15+1407RKNF V0200701N003110001519N0000001N1+99999+99999999999ADDMW1001MW2711REMMET079RKNF 1859Z 07006KT 0000 -SN 9FG000 M00/M01 A2978 RMK CIGW000/1SN00/ QFF1015PT5;EQDQ01+000003PRSWM1
0120471094999992000010521004+37750+128670FM-15+1407RKNF V0201101N006710001519N0000001N1+99999+99999999999ADDMW1001MW2611REMMET077RKNF 2059Z 11013KT 0000 -RA 9FG000 00/00 A2977 RMK CIGW000/1RA04/ QFF1014PT8;EQDQ01+000003PRSWM1
0134471094999992000010521594+37750+128670FM-16+1407RKNF V0201501N007710001519N0000001N1+99999+99999999999ADDMW1001MW2611OC101291REMMET083RKNF 2159Z 15015G025KT 0000 -RA 9FG000 M00/M01 A2975 RMK CIGW000/1RA01/ QFF1014PT5;EQDQ01+000003PRSWM1
0134471094999992000010600594+37750+128670FM-16+1407RKNF V0202401N004610001519N0000001N1+99999+99999999999ADDMW1001MW2611OC101081REMMET083RKNF 0059Z 24009G021KT 0000 -RA 9FG000 M00/M01 A2975 RMK CIGW000/1RA00/ QFF1013PT8;EQDQ01+000003PRSWM1
0134471094999992000010602004+37750+128670FM-15+1407RKNF V0202601N005710001519N0000001N1+99999+99999999999ADDMW1001MW2611OC101081REMMET083RKNF 0159Z 26011G021KT 0000 -RA 9FG000 M00/M01 A2975 RMK CIGW000/1RA00/ QFF1014PT2;EQDQ01+000003PRSWM1
0089471094999992000010602054+37750+128670FM-16+1407RKNF V0202701N004610001519N0000001N1+99999+99999999999ADDMW1001MW2441REMMET046RKNF 0205Z 27009KT 0000 FG 9FG000 RMK CIGW000;EQDQ01+000003PRSWM1
0133471094999992000010602594+37750+128670FM-16+1407RKNF V0202801N005710001519N0000001N1+99999+99999999999ADDMW1001MW2441OC101231REMMET082RKNF 0259Z 28011G024KT 0000 FG 9FG000 M01/M01 A2974 RMK CIGW000/1RA00/ QFF1013PT5;EQDQ01+000003PRSWM1
0127471094999992000010603594+37750+128670FM-16+1407RKNF V0202701N007210001519N0000001N1+99999+99999999999ADDMW1001MW2441OC101391REMMET076RKNF 0359Z 27014G027KT 0000 FG 9FG000 M02/M02 A2971 RMK CIGW000/ QFF1012PT5;EQDQ01+000003PRSWM1
0127471094999992000010604574+37750+128670FM-16+1407RKNF V0202701N005710001519N0000001N1+99999+99999999999ADDMW1001MW2441OC101181REMMET076RKNF 0457Z 27011G023KT 0000 FG 9FG000 M03/M04 A2969 RMK CIGW000/ QFF1012PT5;EQDQ01+000003PRSWM1
0133471094999992000010606004+37750+128670FM-15+1407RKNF V0202801N006210001519N0000001N1+99999+99999999999ADDMW1001MW2441OC101291REMMET082RKNF 0559Z 28012G025KT 0000 FG 9FG000 M04/M04 A2970 RMK CIGW000/6RA00/ QFF1012PT8;EQDQ01+000003PRSWM1
0127471094999992000010606594+37750+128670FM-16+1407RKNF V0202701N005110001519N0000001N1+99999+99999999999ADDMW1001MW2441OC101081REMMET076RKNF 0659Z 27010G021KT 0000 FG 9FG000 M05/M06 A2970 RMK CIGW000/ QFF1012PT8;EQDQ01+000003PRSWM1
0127471094999992000010607594+37750+128670FM-16+1407RKNF V0202501N007710001519N0000001N1+99999+99999999999ADDMW1001MW2441OC101391REMMET076RKNF 0759Z 25015G027KT 0000 FG 9FG000 M05/M06 A2970 RMK CIGW000/ QFF1012PT8;EQDQ01+000003PRSWM1
0127471094999992000010608594+37750+128670FM-16+1407RKNF V0202401N008210001519N0000001N1+99999+99999999999ADDMW1001MW2441OC101441REMMET076RKNF 0859Z 24016G028KT 0000 FG 9FG000 M07/M08 A2966 RMK CIGW000/ QFF1011PT9;EQDQ01+000003PRSWM1
0127471094999992000010610004+37750+128670FM-15+1407RKNF V0202601N007210001519N0000001N1+99999+99999999999ADDMW1001MW2441OC101291REMMET076RKNF 0959Z 26014G025KT 0000 FG 9FG000 M07/M08 A2965 RMK CIGW000/ QFF1012PT6;EQDQ01+000003PRSWM1
0102471094999992000010610034+37750+128670FM-16+1407RKNF V0202501N007710001519N0000001N1+99999+99999999999ADDMW1001MW2711OC101341REMMET051RKNF 1003Z 25015G026KT 0000 -SN 9FG000 RMK CIGW000;EQDQ01+000003PRSWM1
0134471094999992000010611004+37750+128670FM-15+1407RKNF V0202701N008210001519N0000001N1+99999+99999999999ADDMW1001MW2711OC101491REMMET083RKNF 1059Z 27016G029KT 0000 -SN 9FG000 M09/M11 A2964 RMK CIGW000/1SN00/ QFF1012PT9;EQDQ01+000003PRSWM1
0166471094999992000010611064+37750+128670FM-16+1407RKNF V0202401N007210012019N0016001N1+99999+99999999999ADDGA1031+000159999GA2071+001209999GF107991999999999999999999MW1001MW2101OC101391REMMET057RKNF 1106Z 24014G027KT 1600 BR 3FG/// BKN004 RMK CIGE004;EQDQ01+000003PRSWM1
0188471094999992000010611164+37750+128670FM-16+1407RKNF V0202601N007710540019N0032001N1+99999+99999999999ADDGA1021+000159999GA2021+001209999GA3071+054009999GF107991999999999999999999MW1001MW2101OC101441REMMET063RKNF 1116Z 26015G028KT 3200 BR 2FG/// SCT004 BKN180 RMK CIG180;EQDQ01+000003PRSWM1
0257471094999992000010612004+37750+128670FM-15+1407RKNF V0202501N009310540019N0032001N1-01201-01301999999ADDGA1021+000159999GA2021+001209999GA3071+054009999GF107991999999999999999999MA1100341999999MW1101OC101651REMMET107RKNF 1159Z 25018G032KT 3200 BR 2FG/// SCT004 BKN180 M12/M13 A2963 RMK CIG180/1SN00/6SN00/90406/ QFF1012PT9;EQDQ01+000003PRSWM1Q02    003PRSWM1
0182471094999992000010612164+37750+128670FM-16+1407RKNF V0202401N008212200019N0048001N1+99999+99999999999ADDGA1011+000159999GA2021+001209999GA3021+054009999GF104991999999999999999999MW1001MW2101OC101541REMMET057RKNF 1216Z 24016G030KT 4800 BR 1FG/// SCT004 SCT180 RMK ;EQDQ01+000003PRSWM1
0208471094999992000010612594+37750+128670FM-15+1407RKNF V0202701N009812200019N0080001N1-01401-01601999999ADDGA1021+001209999GA2021+054009999GF104991999999999999999999MA1100341999999MW1101OC101751REMMET074RKNF 1259Z 27019G034KT 8000 BR FEW004 SCT180 M14/M16 A2963 RMK QFF1013PT3;EQDQ01+000003PRSWM1Q02    003PRSWM1
0208471094999992000010613594+37750+128670FM-15+1407RKNF V0202501N010812200019N0090001N1-01501-01701999999ADDGA1021+001209999GA2021+054009999GF104991999999999999999999MA1100271999999MW1101OC101801REMMET074RKNF 1359Z 25021G035KT 9000 BR FEW004 SCT180 M15/M17 A2961 RMK QFF1013PT0;EQDQ01+000003PRSWM1Q02    003PRSWM1
0215471094999992000010615004+37750+128670FM-15+1407RKNF V0202301N012912200019N0090001N1-01501-01701999999ADDGA1021+001209999GA2021+054009999GF104991999999999999999999MA1100201999999MW1101OC102161REMMET081RKNF 1459Z 23025G042KT 9000 BR FEW004 SCT180 M15/M17 A2959 RMK 20007/ QFF1012PT7;EQDQ01+000003PRSWM1Q02    003PRSWM1
0143471094999992000010615334+37750+128670FM-16+1407RKNF V0202501N013910012019N0060001N1+99999+99999999999ADDGA1071+001209999GF107991999999999999999999MW1001MW2101OC102111REMMET050RKNF 1533Z 25027G041KT 6000 BR BKN004 RMK CIGE004;EQDQ01+000003PRSWM1
0217471094999992000010616004+37750+128670FM-15+1407RKNF V0202401N012910012019N0048001N1-01501-01701999999ADDGA1011+000159999GA2071+001209999GF107991999999999999999999MA1100171999999MW1101OC102061REMMET083RKNF 1559Z 24025G040KT 4800 BR 1FG/// BKN004 M15/M17 A2958 RMK CIGE004/ QFF1012PT7;EQDQ01+000003PRSWM1Q02    003PRSWM1
0189471094999992000010616074+37750+128670FM-16+1407RKNF V0202201N012310012019N0032001N1+99999+99999999999ADDGA1021+000159999GA2071+001209999GA3071+003609999GF107991999999999999999999MW1001MW2101OC102211REMMET064RKNF 1607Z 22024G043KT 3200 BR 2FG/// BKN004 BKN012 RMK CIGE004;EQDQ01+000003PRSWM1
0240471094999992000010617004+37750+128670FM-15+1407RKNF V0202501N013410012019N0032001N1-01601-01701999999ADDGA1021+000159999GA2071+001209999GA3071+003609999GF107991999999999999999999MA1100171999999MW1101OC102261REMMET090RKNF 1659Z 25026G044KT 3200 BR 2FG/// BKN004 BKN012 M16/M17 A2958 RMK CIGE004/ QFF1013PT7;EQDQ01+000003PRSWM1Q02    003PRSWM1
0166471094999992000010617344+37750+128670FM-16+1407RKNF V0202301N011810012019N0016001N1+99999+99999999999ADDGA1031+000159999GA2071+001209999GF107991999999999999999999MW1001MW2101OC102111REMMET057RKNF 1734Z 23023G041KT 1600 BR 3FG/// BKN004 RMK CIGE004;EQDQ01+000003PRSWM1
0217471094999992000010617594+37750+128670FM-15+1407RKNF V0202401N012310012019N0016001N1-01601-01801999999ADDGA1031+000159999GA2081+001209999GF108991999999999999999999MA1100311999999MW1101OC102061REMMET083RKNF 1759Z 24024G040KT 1600 BR 3FG/// OVC004 M16/M18 A2962 RMK CIGE004/ QFF1015PT0;EQDQ01+000003PRSWM1Q02    003PRSWM1
0217471094999992000010620004+37750+128670FM-15+1407RKNF V0202401N012910012019N0040001N1-01901-02101999999ADDGA1011+000159999GA2071+001209999GF107991999999999999999999MA1100411999999MW1101OC102111REMMET083RKNF 1959Z 24025G041KT 4000 BR 1FG/// BKN004 M19/M21 A2965 RMK CIGE004/ QFF1017PT5;EQDQ01+000003PRSWM1Q02    003PRSWM1
0159471094999992000010620064+37750+128670FM-16+1407RKNF V0202301N013412200019N0048001N1+99999+99999999999ADDGA1011+000159999GA2021+001209999GF104991999999999999999999MW1001MW2101OC102161REMMET050RKNF 2006Z 23026G042KT 4800 BR 1FG/// SCT004 RMK ;EQDQ01+000003PRSWM1
0185471094999992000010620594+37750+128670FM-15+1407RKNF V0202501N014912200019N0080001N1-02001-02201999999ADDGA1021+001209999GF102991999999999999999999MA1100411999999MW1101OC102261REMMET067RKNF 2059Z 25029G044KT 8000 BR FEW004 M20/M22 A2965 RMK QFF1018PT9;EQDQ01+000003PRSWM1Q02    003PRSWM1
0185471094999992000010621594+37750+128670FM-15+1407RKNF V0202401N014412200019N0090001N1-02101-02301999999ADDGA1021+003009999GF102991999999999999999999MA1100441999999MW1101OC102211REMMET067RKNF 2159Z 24028G043KT 9000 BR FEW010 M21/M23 A2966 RMK QFF1019PT9;EQDQ01+000003PRSWM1Q02    003PRSWM1
0185471094999992000010623594+37750+128670FM-15+1407RKNF V0202201N014912200019N0090001N1-02101-02301999999ADDGA1021+003009999GF102991999999999999999999MA1100641999999MW1101OC102211REMMET067RKNF 2359Z 22029G043KT 9000 BR FEW010 M21/M23 A2972 RMK QFF1023PT4;EQDQ01+000003PRSWM1Q02    003PRSWM1
0115471094999992000010700004+37750+128670FM-15+1407RKNF V0202301N013912200019N0090001N1+99999+99999999999ADDMW1001MW2101OC102161REMMET064RKNF 2259Z 23027G042KT 9000 BR 010 M21/M23 A2969 RMK QFF1021PT7;EQDQ01+000003PRSWM1
0185471094999992000010700594+37750+128670FM-15+1407RKNF V0202501N011812200019N0090001N1-02001-02201999999ADDGA1021+003009999GF102991999999999999999999MA1100711999999MW1101OC102111REMMET067RKNF 0059Z 25023G041KT 9000 BR FEW010 M20/M22 A2974 RMK QFF1024PT7;EQDQ01+000003PRSWM1Q02    003PRSWM1
0117471094999992000010701594+37750+128670FM-16+1407RKNF V0202401N010812200019N0112651N1+99999+99999999999ADDMA1100811999999MW1001OC102161REMMET057RKNF 0159Z 24021G042KT 9999 M19/M22 A2977 RMK QFF1026PT4;EQDQ01+000000PRSWM2
0166471094999992000010702594+37750+128670FM-15+1407RKNF V0202501N010312200019N0112651N1-01801-02101999999ADDGA1021+003609999GF102991999999999999999999MA1100711999999MW1001OC102111REMMET064RKNF 0259Z 25020G041KT 9999 FEW012 M18/M21 A2974 RMK QFF1024PT4;EQDQ01+000000PRSWM2
0166471094999992000010703594+37750+128670FM-15+1407RKNF V0202301N011312200019N0112651N1-01701-02101999999ADDGA1021+003609999GF102991999999999999999999MA1100641999999MW1001OC102211REMMET064RKNF 0359Z 23022G043KT 9999 FEW012 M17/M21 A2972 RMK QFF1023PT4;EQDQ01+000000PRSWM2
0166471094999992000010705004+37750+128670FM-15+1407RKNF V0202601N010812200019N0112651N1-01701-02101999999ADDGA1021+003609999GF102991999999999999999999MA1100581999999MW1001OC102161REMMET064RKNF 0459Z 26021G042KT 9999 FEW012 M17/M21 A2970 RMK QFF1022PT7;EQDQ01+000000PRSWM2
0166471094999992000010705594+37750+128670FM-15+1407RKNF V0202501N014412200019N0112651N1-01701-02101999999ADDGA1021+003609999GF102991999999999999999999MA1100541999999MW1001OC102111REMMET064RKNF 0559Z 25028G041KT 9999 FEW012 M17/M21 A2969 RMK QFF1023PT0;EQDQ01+000000PRSWM2
0166471094999992000010707004+37750+128670FM-15+1407RKNF V0202701N010312200019N0112651N1-01701-02101999999ADDGA1021+003609999GF102991999999999999999999MA1100611999999MW1001OC102111REMMET064RKNF 0659Z 27020G041KT 9999 FEW012 M17/M21 A2971 RMK QFF1024PT0;EQDQ01+000000PRSWM2
0166471094999992000010707594+37750+128670FM-15+1407RKNF V0202601N011812200019N0112651N1-01701-02001999999ADDGA1021+003609999GF102991999999999999999999MA1100641999999MW1001OC102211REMMET064RKNF 0759Z 26023G043KT 9999 FEW012 M17/M20 A2972 RMK QFF1025PT1;EQDQ01+000000PRSWM2
0166471094999992000010708594+37750+128670FM-15+1407RKNF V0202401N011312200019N0112651N1-01801-02101999999ADDGA1021+003609999GF102991999999999999999999MA1100681999999MW1001OC102161REMMET064RKNF 0859Z 24022G042KT 9999 FEW012 M18/M21 A2973 RMK QFF1026PT1;EQDQ01+000000PRSWM2
0117471094999992000010709594+37750+128670FM-16+1407RKNF V0202301N010312200019N0112651N1+99999+99999999999ADDMA1100711999999MW1001OC102061REMMET057RKNF 0959Z 23020G040KT 9999 M18/M21 A2974 RMK QFF1026PT8;EQDQ01+000000PRSWM2
0117471094999992000010710594+37750+128670FM-16+1407RKNF V0202201N010812200019N0112651N1+99999+99999999999ADDMA1100711999999MW1001OC102111REMMET057RKNF 1059Z 22021G041KT 9999 M18/M21 A2974 RMK QFF1027PT4;EQDQ01+000000PRSWM2
0124471094999992000010711594+37750+128670FM-16+1407RKNF V0202501N011812200019N0112651N1+99999+99999999999ADDMA1100681999999MW1001OC102061REMMET064RKNF 1159Z 25023G040KT 9999 M18/M21 A2973 RMK 90406/ QFF1026PT4;EQDQ01+000000PRSWM2
0117471094999992000010712594+37750+128670FM-16+1407RKNF V0202401N010312200019N0112651N1+99999+99999999999ADDMA1100711999999MW1001OC102111REMMET057RKNF 1259Z 24020G041KT 9999 M18/M21 A2974 RMK QFF1026PT8;EQDQ01+000000PRSWM2
0117471094999992000010713594+37750+128670FM-16+1407RKNF V0202601N010812200019N0112651N1+99999+99999999999ADDMA1100711999999MW1001OC101951REMMET057RKNF 1359Z 26021G038KT 9999 M18/M21 A2974 RMK QFF1026PT4;EQDQ01+000000PRSWM2
0117471094999992000010714594+37750+128670FM-16+1407RKNF V0202301N011812200019N0112651N1+99999+99999999999ADDMA1100681999999MW1001OC102211REMMET057RKNF 1459Z 23023G043KT 9999 M18/M21 A2973 RMK QFF1025PT4;EQDQ01+000000PRSWM2
0185471094999992000010716004+37750+128670FM-15+1407RKNF V0202401N010312200019N0080001N1-01701-02001999999ADDGA1021+003609999GF104991999999999999999999MA1100711999999MW1101OC102061REMMET067RKNF 1559Z 24020G040KT 8000 BR SCT012 M17/M20 A2974 RMK QFF1025PT1;EQDQ01+000003PRSWM1Q02    003PRSWM1
0166471094999992000010716324+37750+128670FM-16+1407RKNF V0202601N009310036019N0060001N1+99999+99999999999ADDGA1021+001209999GA2071+003609999GF107991999999999999999999MW1001MW2101OC102111REMMET057RKNF 1632Z 26018G041KT 6000 BR FEW004 BKN012 RMK CIGE012;EQDQ01+000003PRSWM1
0240471094999992000010717004+37750+128670FM-15+1407RKNF V0202501N009810036019N0048001N1-01701-01901999999ADDGA1011+000159999GA2021+001209999GA3071+003609999GF107991999999999999999999MA1100681999999MW1101OC102211REMMET090RKNF 1659Z 25019G043KT 4800 BR 1FG/// SCT004 BKN012 M17/M19 A2973 RMK CIGE012/ QFF1024PT4;EQDQ01+000003PRSWM1Q02    003PRSWM1
0189471094999992000010717244+37750+128670FM-16+1407RKNF V0202301N008710012019N0032001N1+99999+99999999999ADDGA1021+000159999GA2071+001209999GA3071+003609999GF107991999999999999999999MW1001MW2101OC102061REMMET064RKNF 1724Z 23017G040KT 3200 BR 2FG/// BKN004 BKN012 RMK CIGE004;EQDQ01+000003PRSWM1
0217471094999992000010717594+37750+128670FM-15+1407RKNF V0202401N007710012019N0032001N1-01701-01901999999ADDGA1021+000159999GA2071+001209999GF107991999999999999999999MA1100681999999MW1101OC101851REMMET083RKNF 1759Z 24015G036KT 3200 BR 2FG/// BKN004 M17/M19 A2973 RMK CIGE004/ QFF1024PT4;EQDQ01+000003PRSWM1Q02    003PRSWM1
0167471094999992000010718284+37750+128670FM-16+1407RKNF V0202501N009310012019N0016001N1+99999+99999999999ADDGA1031+000159999GA2081+001209999GF108991999999999999999999MW1001MW2711OC102061REMMET058RKNF 1828Z 25018G040KT 1600 -SN 3FG/// OVC004 RMK CIGE004;EQDQ01+000003PRSWM1
0224471094999992000010719004+37750+128670FM-15+1407RKNF V0202201N010310012019N0016001N1-01701-01901999999ADDGA1031+000159999GA2081+001209999GF108991999999999999999999MA1100641999999MW1711OC102161REMMET090RKNF 1859Z 22020G042KT 1600 -SN 3FG/// OVC004 M17/M19 A2972 RMK CIGE004/1SN00/ QFF1024PT4;EQDQ01+000003PRSWM1Q02    003PRSWM1
0224471094999992000010720004+37750+128670FM-15+1407RKNF V0202401N011310012019N0016001N1-01601-01801999999ADDGA1031+000159999GA2081+001209999GF108991999999999999999999MA1100681999999MW1711OC102061REMMET090RKNF 1959Z 24022G040KT 1600 -SN 3FG/// OVC004 M16/M18 A2973 RMK CIGE004/1SN00/ QFF1024PT7;EQDQ01+000003PRSWM1Q02    003PRSWM1
0247471094999992000010720594+37750+128670FM-15+1407RKNF V0202301N010810012019N0016001N1-01501-01701999999ADDGA1031+000159999GA2071+001209999GA3081+003609999GF108991999999999999999999MA1100711999999MW1711OC102261REMMET097RKNF 2059Z 23021G044KT 1600 -SN 3FG/// BKN004 OVC012 M15/M17 A2974 RMK CIGE004/1SN00/ QFF1025PT1;EQDQ01+000003PRSWM1Q02    003PRSWM1
0224471094999992000010722004+37750+128670FM-15+1407RKNF V0202501N010310012019N0016001N1-01501-01701999999ADDGA1031+000159999GA2071+001209999GF107991999999999999999999MA1100811999999MW1711OC102061REMMET090RKNF 2159Z 25020G040KT 1600 -SN 3FG/// BKN004 M15/M17 A2977 RMK CIGE004/1SN00/ QFF1025PT1;EQDQ01+000003PRSWM1Q02    003PRSWM1
0224471094999992000010722594+37750+128670FM-15+1407RKNF V0202601N007710012019N0016001N1-01501-01601999999ADDGA1031+000159999GA2071+001209999GF107991999999999999999999MA1100851999999MW1711OC101701REMMET090RKNF 2259Z 26015G033KT 1600 -SN 3FG/// BKN004 M15/M16 A2978 RMK CIGE004/1SN00/ QFF1025PT4;EQDQ01+000003PRSWM1Q02    003PRSWM1
0230471094999992000010800004+37750+128670FM-15+1407RKNF V0202501N008710012019N0016001N1-01501-01601999999ADDGA1031+000159999GA2071+001209999GF107991999999999999999999MA1100911999999MW1711OC101751REMMET096RKNF 2359Z 25017G034KT 1600 -SN 3FG/// BKN004 M15/M16 A2980 RMK CIGE004/1SN00/6SN00/ QFF1026PT4;EQDQ01+000003PRSWM1Q02    003PRSWM1
0224471094999992000010800594+37750+128670FM-15+1407RKNF V0202701N007210012019N0016001N1-01501-01601999999ADDGA1031+000159999GA2081+001209999GF108991999999999999999999MA1100981999999MW1711OC101591REMMET090RKNF 0059Z 27014G031KT 1600 -SN 3FG/// OVC004 M15/M16 A2982 RMK CIGE004/1SN01/ QFF1027PT4;EQDQ01+000003PRSWM1Q02    003PRSWM1
0224471094999992000010801594+37750+128670FM-15+1407RKNF V0202801N005710012019N0016001N1-01401-01501999999ADDGA1031+000159999GA2071+001209999GF107991999999999999999999MA1100981999999MW1711OC101391REMMET090RKNF 0159Z 28011G027KT 1600 -SN 3FG/// BKN004 M14/M15 A2982 RMK CIGE004/1SN01/ QFF1027PT1;EQDQ01+000003PRSWM1Q02    003PRSWM1
0167471094999992000010802454+37750+128670FM-16+1407RKNF V0202701N006210012019N0032001N1+99999+99999999999ADDGA1021+000159999GA2071+001209999GF107991999999999999999999MW1001MW2711OC101441REMMET058RKNF 0245Z 27012G028KT 3200 -SN 2FG/// BKN004 RMK CIGE004;EQDQ01+000003PRSWM1
0224471094999992000010802594+37750+128670FM-15+1407RKNF V0202801N007210012019N0040001N1-01301-01401999999ADDGA1011+000159999GA2071+001209999GF107991999999999999999999MA1100911999999MW1711OC101541REMMET090RKNF 0259Z 28014G030KT 4000 -SN 1FG/// BKN004 M13/M14 A2980 RMK CIGE004/1SN00/ QFF1025PT4;EQDQ01+000003PRSWM1Q02    003PRSWM1
0224471094999992000010803594+37750+128670FM-15+1407RKNF V0202601N006710012019N0040001N1-01201-01401999999ADDGA1011+000159999GA2071+001209999GF107991999999999999999999MA1100911999999MW1711OC101441REMMET090RKNF 0359Z 26013G028KT 4000 -SN 1FG/// BKN004 M12/M14 A2980 RMK CIGE004/1SN00/ QFF1025PT4;EQDQ01+000003PRSWM1Q02    003PRSWM1
0159471094999992000010804014+37750+128670FM-16+1407RKNF V0202501N006212200019N0048001N1+99999+99999999999ADDGA1011+000159999GA2021+001809999GF104991999999999999999999MW1001MW2101OC101391REMMET050RKNF 0401Z 25012G027KT 4800 BR 1FG/// SCT006 RMK ;EQDQ01+000003PRSWM1
0215471094999992000010804594+37750+128670FM-15+1407RKNF V0202301N007212200019N0048001N1-01201-01401999999ADDGA1011+000159999GA2021+001809999GF104991999999999999999999MA1100911999999MW1101OC101491REMMET081RKNF 0459Z 23014G029KT 4800 BR 1FG/// SCT006 M12/M14 A2980 RMK 1SN00/ QFF1025PT4;EQDQ01+000003PRSWM1Q02    003PRSWM1
0171471094999992000010807004+37750+128670FM-15+1407RKNF V0202201N007712200019N0048001N1+99999+99999999999ADDGA1011+000159999GF101991999999999999999999MW1001MW2101OC101591REMMET078RKNF 0559Z 22015G031KT 4800 BR 1FG/// 006 M12/M14 A2980 RMK 6SN02/ QFF1024PT7;EQDQ01+000003PRSWM1
0208471094999992000010808004+37750+128670FM-15+1407RKNF V0202501N007212200019N0048001N1-01201-01401999999ADDGA1011+000159999GA2021+002409999GF104991999999999999999999MA1100981999999MW1101OC101491REMMET074RKNF 0759Z 25014G029KT 4800 BR 1FG/// SCT008 M12/M14 A2982 RMK QFF1026PT1;EQDQ01+000003PRSWM1Q02    003PRSWM1
0185471094999992000010808594+37750+128670FM-15+1407RKNF V0202601N005712200019N0080001N1-01401-01501999999ADDGA1021+002409999GF102991999999999999999999MA1101081999999MW1101OC101291REMMET067RKNF 0859Z 26011G025KT 8000 BR FEW008 M14/M15 A2985 RMK QFF1026PT8;EQDQ01+000003PRSWM1Q02    003PRSWM1
0166471094999992000010809594+37750+128670FM-15+1407RKNF V0202401N006712200019N0112651N1-01401-01501999999ADDGA1021+002409999GF102991999999999999999999MA1101121999999MW1001OC101341REMMET064RKNF 0959Z 24013G026KT 9999 FEW008 M14/M15 A2986 RMK QFF1027PT1;EQDQ01+000000PRSWM2
0117471094999992000010810594+37750+128670FM-16+1407RKNF V0202501N006212200019N0112651N1+99999+99999999999ADDMA1101191999999MW1001OC101231REMMET057RKNF 1059Z 25012G024KT 9999 M14/M15 A2988 RMK QFF1027PT8;EQDQ01+000000PRSWM2
0124471094999992000010811594+37750+128670FM-16+1407RKNF V0202601N007212200019N0112651N1+99999+99999999999ADDMA1101151999999MW1001OC101291REMMET064RKNF 1159Z 26014G025KT 9999 M14/M16 A2987 RMK 90406/ QFF1027PT4;EQDQ01+000000PRSWM2
0117471094999992000010812594+37750+128670FM-16+1407RKNF V0202501N007712200019N0112651N1+99999+99999999999ADDMA1101191999999MW1001OC101341REMMET057RKNF 1259Z 25015G026KT 9999 M15/M16 A2988 RMK QFF1028PT1;EQDQ01+000000PRSWM2
0117471094999992000010813594+37750+128670FM-16+1407RKNF V0202301N006712200019N0112651N1+99999+99999999999ADDMA1101221999999MW1001OC101291REMMET057RKNF 1359Z 23013G025KT 9999 M15/M16 A2989 RMK QFF1027PT8;EQDQ01+000000PRSWM2
0124471094999992000010814594+37750+128670FM-16+1407RKNF V0202501N008212200019N0112651N1+99999+99999999999ADDMA1101221999999MW1001OC101391REMMET064RKNF 1459Z 25016G027KT 9999 M14/M16 A2989 RMK 20002/ QFF1027PT4;EQDQ01+000000PRSWM2
0116471094999992000010815594+37750+128670FM-16+1407RKNF V0202701N006212200019N0112651N1+99999+99999999999ADDMA1101291999999MW1001OC101181REMMET056RKNF 1559Z 27012G023KT 9999 M15/M16 A2991 MK QFF1027PT7;EQDQ01+000000PRSWM2
0117471094999992000010816594+37750+128670FM-16+1407RKNF V0202501N005112200019N0112651N1+99999+99999999999ADDMA1101191999999MW1001OC101081REMMET057RKNF 1659Z 25010G021KT 9999 M15/M17 A2988 RMK QFF1026PT8;EQDQ01+000000PRSWM2
0117471094999992000010817594+37750+128670FM-16+1407RKNF V0202401N005712200019N0112651N1+99999+99999999999ADDMA1101351999999MW1001OC101131REMMET057RKNF 1759Z 24011G022KT 9999 M15/M17 A2993 RMK QFF1028PT5;EQDQ01+000000PRSWM2
0117471094999992000010818594+37750+128670FM-16+1407RKNF V0202601N005112200019N0112651N1+99999+99999999999ADDMA1101391999999MW1001OC101031REMMET057RKNF 1859Z 26010G020KT 9999 M15/M17 A2994 RMK QFF1029PT1;EQDQ01+000000PRSWM2
0117471094999992000010819594+37750+128670FM-16+1407RKNF V0202501N004112200019N0112651N1+99999+99999999999ADDMA1101391999999MW1001OC100931REMMET057RKNF 1959Z 25008G018KT 9999 M14/M16 A2994 RMK QFF1029PT1;EQDQ01+000000PRSWM2
0117471094999992000010820594+37750+128670FM-16+1407RKNF V0202301N003112200019N0112651N1+99999+99999999999ADDMA1101391999999MW1001OC100821REMMET057RKNF 2059Z 23006G016KT 9999 M13/M15 A2994 RMK QFF1029PT1;EQDQ01+000000PRSWM2
0117471094999992000010821594+37750+128670FM-16+1407RKNF V0202401N003612200019N0112651N1+99999+99999999999ADDMA1101421999999MW1001OC100871REMMET057RKNF 2159Z 24007G017KT 9999 M14/M16 A2995 RMK QFF1030PT5;EQDQ01+000000PRSWM2
0166471094999992000010822594+37750+128670FM-15+1407RKNF V0202601N004612200019N0112651N1-01401-01601999999ADDGA1021+054009999GF104991999999999999999999MA1101421999999MW1001OC101031REMMET064RKNF 2259Z 26009G020KT 9999 SCT180 M14/M16 A2995 RMK QFF1030PT5;EQDQ01+000000PRSWM2
0162471094999992000010823594+37750+128670FM-15+1407RKNF V0202501N006210540019N0112651N1-01201-01401999999ADDGA1071+054009999GF107991999999999999999999MA1101461999999MW1001REMMET068RKNF 2359Z 25012KT 9999 BKN180 M12/M14 A2996 RMK CIG180/ QFF1029PT7;EQDQ01+000000PRSWM2
0162471094999992000010900594+37750+128670FM-15+1407RKNF V0202801N004610540019N0112651N1-00901-01101999999ADDGA1071+054009999GF107991999999999999999999MA1101491999999MW1001REMMET068RKNF 0059Z 28009KT 9999 BKN180 M09/M11 A2997 RMK CIG180/ QFF1029PT7;EQDQ01+000000PRSWM2
0185471094999992000010902594+37750+128670FM-15+1407RKNF V0202701N003610540019N0112651N1-00701-01401999999ADDGA1021+024009999GA2071+054009999GF107991999999999999999999MA1101491999999MW1001REMMET075RKNF 0259Z 27007KT 9999 FEW080 BKN180 M07/M14 A2997 RMK CIG180/ QFF1028PT4;EQDQ01+000000PRSWM2
0106471094999992000010903004+37750+128670FM-15+1407RKNF V0202601N003110540019N0112651N1+99999+99999999999ADDMW1001REMMET069RKNF 0159Z 26006KT 9999 080 180 M07/M13 A3000 RMK CIG180/ QFF1029PT4;EQDQ01+000000PRSWM2
0185471094999992000010903594+37750+128670FM-15+1407RKNF V0202501N004110540019N0112651N1-00501-01701999999ADDGA1021+024009999GA2071+054009999GF107991999999999999999999MA1101421999999MW1001REMMET075RKNF 0359Z 25008KT 9999 SCT080 BKN180 M05/M17 A2995 RMK CIG180/ QFF1027PT1;EQDQ01+000000PRSWM2
0185471094999992000010904594+37750+128670FM-15+1407RKNF V0202801N003610240019N0112651N1-00601-01401999999ADDGA1071+024009999GA2081+054009999GF108991999999999999999999MA1101351999999MW1001REMMET075RKNF 0459Z 28007KT 9999 BKN080 OVC180 M06/M14 A2993 RMK CIG080/ QFF1026PT4;EQDQ01+000000PRSWM2
0185471094999992000010907004+37750+128670FM-15+1407RKNF V0202701N003610240019N0112651N1-00601-01401999999ADDGA1071+024009999GA2071+054009999GF107991999999999999999999MA1101321999999MW1001REMMET075RKNF 0659Z 27007KT 9999 BKN080 BKN180 M06/M14 A2992 RMK CIG080/ QFF1026PT1;EQDQ01+000000PRSWM2
0185471094999992000010907594+37750+128670FM-15+1407RKNF V0202501N004110240019N0112651N1-00601-01301999999ADDGA1071+024009999GA2071+054009999GF107991999999999999999999MA1101321999999MW1001REMMET075RKNF 0759Z 25008KT 9999 BKN080 BKN180 M06/M13 A2992 RMK CIG080/ QFF1026PT0;EQDQ01+000000PRSWM2
0185471094999992000010908594+37750+128670FM-15+1407RKNF V0202401N003610240019N0112651N1-00501-01401999999ADDGA1071+024009999GA2071+054009999GF107991999999999999999999MA1101321999999MW1001REMMET075RKNF 0859Z 24007KT 9999 BKN080 BKN180 M05/M14 A2992 RMK CIG080/ QFF1025PT0;EQDQ01+000000PRSWM2
0185471094999992000010909594+37750+128670FM-15+1407RKNF V0202601N004610240019N0112651N1-00501-01401999999ADDGA1071+024009999GA2071+054009999GF107991999999999999999999MA1101321999999MW1001REMMET075RKNF 0959Z 26009KT 9999 BKN080 BKN180 M05/M14 A2992 RMK CIG080/ QFF1025PT0;EQDQ01+000000PRSWM2
0162471094999992000010910594+37750+128670FM-15+1407RKNF V0202301N004110240019N0112651N1-00401-01201999999ADDGA1081+024009999GF108991999999999999999999MA1101351999999MW1001REMMET068RKNF 1059Z 23008KT 9999 OVC080 M04/M12 A2993 RMK CIG080/ QFF1025PT3;EQDQ01+000000PRSWM2
0168471094999992000010911594+37750+128670FM-15+1407RKNF V0202501N003110240019N0112651N1-00501-01401999999ADDGA1081+024009999GF108991999999999999999999MA1101291999999MW1001REMMET074RKNF 1159Z 25006KT 9999 OVC080 M05/M14 A2991 RMK CIG080/90406/ QFF1023PT9;EQDQ01+000000PRSWM2
0102471094999992000010912594+37750+128670FM-16+1407RKNF V0202401N003610240019N0112651N1+99999+99999999999ADDMW1001REMMET065RKNF 1259Z 24007KT 9999 080 M07/M15 A2991 RMK CIG080/ QFF1023PT9;EQDQ01+000000PRSWM2
0185471094999992000010913594+37750+128670FM-15+1407RKNF V0202601N005110540019N0112651N1-00801-01401999999ADDGA1021+024009999GA2071+054009999GF107991999999999999999999MA1101191999999MW1001REMMET075RKNF 1359Z 26010KT 9999 SCT080 BKN180 M08/M14 A2988 RMK CIG180/ QFF1022PT9;EQDQ01+000000PRSWM2
0185471094999992000010914594+37750+128670FM-15+1407RKNF V0202501N006210240019N0112651N1-00801-01201999999ADDGA1021+004509999GA2071+024009999GF107991999999999999999999MA1101151999999MW1001REMMET075RKNF 1459Z 25012KT 9999 FEW015 BKN080 M08/M12 A2987 RMK CIG080/ QFF1022PT3;EQDQ01+000000PRSWM2
0204471094999992000010916004+37750+128670FM-15+1407RKNF V0202401N005110240019N0080001N1-00701-00901999999ADDGA1021+004509999GA2071+024009999GF107991999999999999999999MA1101151999999MW1101REMMET078RKNF 1559Z 24010KT 8000 BR SCT015 BKN080 M07/M09 A2987 RMK CIG080/ QFF1021PT6;EQDQ01+000003PRSWM1Q02    003PRSWM1
0178471094999992000010916234+37750+128670FM-16+1407RKNF V0202601N006210024019N0032001N1+99999+99999999999ADDGA1021+000159999GA2071+002409999GA3081+024009999GF108991999999999999999999MW1001MW2711REMMET061RKNF 1623Z 26012KT 3200 -SN 2FG/// BKN008 OVC080 RMK CIGE008;EQDQ01+000003PRSWM1
0235471094999992000010916594+37750+128670FM-15+1407RKNF V0202501N007210024019N0032001N1-00901-01001999999ADDGA1021+000159999GA2071+002409999GA3081+024009999GF108991999999999999999999MA1101121999999MW1711REMMET093RKNF 1659Z 25014KT 3200 -SN 2FG/// BKN008 OVC080 M09/M10 A2986 RMK CIGE008/1SN00/ QFF1021PT8;EQDQ01+000003PRSWM1Q02    003PRSWM1
0241471094999992000010918004+37750+128670FM-15+1407RKNF V0202701N007710018019N0032001N1-01001-01101999999ADDGA1021+000159999GA2071+001809999GA3081+024009999GF108991999999999999999999MA1101081999999MW1711REMMET099RKNF 1759Z 27015KT 3200 -SN 2FG/// BKN006 OVC080 M10/M11 A2985 RMK CIGE006/1SN00/6SN00/ QFF1021PT9;EQDQ01+000003PRSWM1Q02    003PRSWM1
0247471094999992000010919004+37750+128670FM-15+1407RKNF V0202601N007210018019N0032001N1-00901-01001999999ADDGA1021+000159999GA2071+001809999GA3081+024009999GF108991999999999999999999MA1101051999999MW1711OC101391REMMET097RKNF 1859Z 26014G027KT 3200 -SN 2FG/// BKN006 OVC080 M09/M10 A2984 RMK CIGE006/1SN00/ QFF1021PT1;EQDQ01+000003PRSWM1Q02    003PRSWM1
0247471094999992000010919594+37750+128670FM-15+1407RKNF V0202801N008710018019N0032001N1-00801-00901999999ADDGA1021+000159999GA2071+001809999GA3081+024009999GF108991999999999999999999MA1100981999999MW1711OC101591REMMET097RKNF 1959Z 28017G031KT 3200 -SN 2FG/// BKN006 OVC080 M08/M09 A2982 RMK CIGE006/1SN00/ QFF1020PT8;EQDQ01+000003PRSWM1Q02    003PRSWM1
0247471094999992000010920594+37750+128670FM-15+1407RKNF V0202701N008210018019N0040001N1-00901-01001999999ADDGA1011+000159999GA2071+001809999GA3081+024009999GF108991999999999999999999MA1101121999999MW1711OC101651REMMET097RKNF 2059Z 27016G032KT 4000 -SN 1FG/// BKN006 OVC080 M09/M10 A2986 RMK CIGE006/1SN00/ QFF1021PT8;EQDQ01+000003PRSWM1Q02    003PRSWM1
0247471094999992000010921594+37750+128670FM-15+1407RKNF V0202601N007210018019N0040001N1-01001-01101999999ADDGA1011+000159999GA2071+001809999GA3081+024009999GF108991999999999999999999MA1101121999999MW1711OC101441REMMET097RKNF 2159Z 26014G028KT 4000 -SN 1FG/// BKN006 OVC080 M10/M11 A2986 RMK CIGE006/1SN00/ QFF1021PT8;EQDQ01+000003PRSWM1Q02    003PRSWM1
0185471094999992000010922594+37750+128670FM-15+1407RKNF V0202701N007712200019N0060001N1-01001-01101999999ADDGA1021+002409999GF104991999999999999999999MA1101191999999MW1101OC101391REMMET067RKNF 2259Z 27015G027KT 6000 BR SCT008 M10/M11 A2988 RMK QFF1022PT5;EQDQ01+000003PRSWM1Q02    003PRSWM1
0122471094999992000011001004+37750+128670FM-15+1407RKNF V0202901N006712200019N0080001N1+99999+99999999999ADDMW1001MW2101OC101291REMMET071RKNF 2359Z 29013G025KT 8000 BR 008 M09/M11 A2992 RMK 6SN00/ QFF1023PT9;EQDQ01+000003PRSWM1
0173471094999992000011001594+37750+128670FM-15+1407RKNF V0202901N004112200019N0090001N1-00801-01201999999ADDGA1021+002409999GF102991999999999999999999MA1101491999999MW1101REMMET063RKNF 0159Z 29008KT 9000 BR FEW008 M08/M12 A2997 RMK QFF1026PT3;EQDQ01+000003PRSWM1Q02    003PRSWM1
0115471094999992000011002004+37750+128670FM-15+1407RKNF V0202801N005712200019N0090001N1+99999+99999999999ADDMW1001MW2101OC101181REMMET064RKNF 0059Z 28011G023KT 9000 BR 008 M09/M11 A2995 RMK QFF1026PT0;EQDQ01+000003PRSWM1
0173471094999992000011002594+37750+128670FM-15+1407RKNF V0202801N002112200019N0090001N1-00701-01201999999ADDGA1021+002409999GF102991999999999999999999MA1101491999999MW1101REMMET063RKNF 0259Z 28004KT 9000 BR FEW008 M07/M12 A2997 RMK QFF1026PT2;EQDQ01+000003PRSWM1Q02    003PRSWM1
0154471094999992000011003594+37750+128670FM-15+1407RKNF V0202601N001512200019N0112651N1-00601-01101999999ADDGA1021+002409999GF102991999999999999999999MA1101491999999MW1001REMMET060RKNF 0359Z 26003KT 9999 FEW008 M06/M11 A2997 RMK QFF1025PT9;EQDQ01+000000PRSWM2
0105471094999992000011004594+37750+128670FM-16+1407RKNF V0202701N002612200019N0112651N1+99999+99999999999ADDMA1101521999999MW1001REMMET053RKNF 0459Z 27005KT 9999 M06/M12 A2998 RMK QFF1026PT2;EQDQ01+000000PRSWM2
0105471094999992000011005594+37750+128670FM-16+1407RKNF V0202501N002112200019N0112651N1+99999+99999999999ADDMA1101491999999MW1001REMMET053RKNF 0559Z 25004KT 9999 M06/M12 A2997 RMK QFF1026PT6;EQDQ01+000000PRSWM2
0105471094999992000011006594+37750+128670FM-16+1407RKNF V0202701N003112200019N0112651N1+99999+99999999999ADDMA1101591999999MW1001REMMET053RKNF 0659Z 27006KT 9999 M07/M12 A3000 RMK QFF1027PT2;EQDQ01+000000PRSWM2
0105471094999992000011008004+37750+128670FM-15+1407RKNF V0202401N002612200019N0112651N1+99999+99999999999ADDMA1101631999999MW1001REMMET053RKNF 0759Z 24005KT 9999 M07/M13 A3001 RMK QFF1027PT6;EQDQ01+000000PRSWM2
0105471094999992000011008594+37750+128670FM-16+1407RKNF V0202501N003612200019N0112651N1+99999+99999999999ADDMA1101691999999MW1001REMMET053RKNF 0859Z 25007KT 9999 M07/M13 A3003 RMK QFF1028PT3;EQDQ01+000000PRSWM2
0105471094999992000011009594+37750+128670FM-16+1407RKNF V0202301N002112200019N0112651N1+99999+99999999999ADDMA1101831999999MW1001REMMET053RKNF 0959Z 23004KT 9999 M08/M14 A3007 RMK QFF1029PT9;EQDQ01+000000PRSWM2
0105471094999992000011010594+37750+128670FM-16+1407RKNF V0202601N001512200019N0112651N1+99999+99999999999ADDMA1101831999999MW1001REMMET053RKNF 1059Z 26003KT 9999 M09/M14 A3007 RMK QFF1030PT3;EQDQ01+000000PRSWM2
0112471094999992000011011594+37750+128670FM-16+1407RKNF V0202401N002612200019N0112651N1+99999+99999999999ADDMA1101901999999MW1001REMMET060RKNF 1159Z 24005KT 9999 M09/M14 A3009 RMK 90406/ QFF1031PT4;EQDQ01+000000PRSWM2
0105471094999992000011014004+37750+128670FM-15+1407RKNF V0202601N001512200019N0112651N1+99999+99999999999ADDMA1101931999999MW1001REMMET053RKNF 1359Z 26003KT 9999 M09/M16 A3010 RMK QFF1031PT7;EQDQ01+000000PRSWM2
0105471094999992000011015004+37750+128670FM-15+1407RKNF V0202501N002612200019N0112651N1+99999+99999999999ADDMA1101931999999MW1001REMMET053RKNF 1459Z 25005KT 9999 M10/M16 A3010 RMK QFF1030PT7;EQDQ01+000000PRSWM2
0105471094999992000011015594+37750+128670FM-16+1407RKNF V0202501N001512200019N0112651N1+99999+99999999999ADDMA1101931999999MW1001REMMET053RKNF 1559Z 25003KT 9999 M10/M16 A3010 RMK QFF1030PT7;EQDQ01+000000PRSWM2
0105471094999992000011016594+37750+128670FM-16+1407RKNF V0202701N002112200019N0112651N1+99999+99999999999ADDMA1101901999999MW1001REMMET053RKNF 1659Z 27004KT 9999 M11/M17 A3009 RMK QFF1030PT4;EQDQ01+000000PRSWM2
0105471094999992000011018004+37750+128670FM-15+1407RKNF V0202601N001012200019N0112651N1+99999+99999999999ADDMA1101931999999MW1001REMMET053RKNF 1759Z 26002KT 9999 M11/M15 A3010 RMK QFF1030PT7;EQDQ01+000000PRSWM2
0105471094999992000011019004+37750+128670FM-15+1407RKNF V0202401N002612200019N0112651N1+99999+99999999999ADDMA1101961999999MW1001REMMET053RKNF 1859Z 24005KT 9999 M11/M14 A3011 RMK QFF1032PT1;EQDQ01+000000PRSWM2
0105471094999992000011020004+37750+128670FM-15+1407RKNF V0202701N001512200019N0112651N1+99999+99999999999ADDMA1101961999999MW1001REMMET053RKNF 1959Z 27003KT 9999 M12/M14 A3011 RMK QFF1032PT1;EQDQ01+000000PRSWM2
0124471094999992000011020464+37750+128670FM-16+1407RKNF V0209999C000012200019N0080001N1+99999+99999999999ADDGA1021+001209999GF102991999999999999999999MW1001MW2101REMMET039RKNF 2046Z 00000KT 8000 BR FEW004 RMK ;EQDQ01+000003PRSWM1
0196471094999992000011021004+37750+128670FM-15+1407RKNF V0202801N001012200019N0048001N1-01101-01301999999ADDGA1011+000159999GA2021+001209999GF104991999999999999999999MA1101961999999MW1101REMMET070RKNF 2059Z 28002KT 4800 BR 1FG/// SCT004 M11/M13 A3011 RMK QFF1032PT1;EQDQ01+000003PRSWM1Q02    003PRSWM1
0154471094999992000011021134+37750+128670FM-16+1407RKNF V0209999C000010012019N0032001N1+99999+99999999999ADDGA1021+000159999GA2071+001209999GF107991999999999999999999MW1001MW2101REMMET053RKNF 2113Z 00000KT 3200 BR 2FG/// BKN004 RMK CIGE004;EQDQ01+000003PRSWM1
0154471094999992000011021264+37750+128670FM-16+1407RKNF V0209999C000010012019N0016001N1+99999+99999999999ADDGA1031+000159999GA2081+001209999GF108991999999999999999999MW1001MW2101REMMET053RKNF 2126Z 00000KT 1600 BR 3FG/// OVC004 RMK CIGE004;EQDQ01+000003PRSWM1
0089471094999992000011021344+37750+128670FM-16+1407RKNF V0202901N001510001519N0000001N1+99999+99999999999ADDMW1001MW2441REMMET046RKNF 2134Z 29003KT 0000 FG 9FG000 RMK CIGW000;EQDQ01+000003PRSWM1
0115471094999992000011021594+37750+128670FM-16+1407RKNF V0209999C000010001519N0000001N1+99999+99999999999ADDMW1001MW2441REMMET072RKNF 2159Z 00000KT 0000 FG 9FG000 M11/M12 A3012 RMK CIGW000/ QFF1032PT4;EQDQ01+000003PRSWM1
0115471094999992000011022594+37750+128670FM-16+1407RKNF V0201401N001510001519N0000001N1+99999+99999999999ADDMW1001MW2441REMMET072RKNF 2259Z 14003KT 0000 FG 9FG000 M10/M11 A3013 RMK CIGW000/ QFF1032PT7;EQDQ01+000003PRSWM1
0115471094999992000011023594+37750+128670FM-16+1407RKNF V0209999C000010001519N0000001N1+99999+99999999999ADDMW1001MW2441REMMET072RKNF 2359Z 00000KT 0000 FG 9FG000 M10/M11 A3015 RMK CIGW000/ QFF1033PT0;EQDQ01+000003PRSWM1
0115471094999992000011100594+37750+128670FM-16+1407RKNF V0200901N002610001519N0000001N1+99999+99999999999ADDMW1001MW2441REMMET072RKNF 0059Z 09005KT 0000 FG 9FG000 M09/M10 A3018 RMK CIGW000/ QFF1034PT3;EQDQ01+000003PRSWM1
0115471094999992000011101594+37750+128670FM-16+1407RKNF V0200901N003110001519N0000001N1+99999+99999999999ADDMW1001MW2441REMMET072RKNF 0159Z 09006KT 0000 FG 9FG000 M09/M10 A3018 RMK CIGW000/ QFF1034PT4;EQDQ01+000003PRSWM1
0115471094999992000011102594+37750+128670FM-16+1407RKNF V0200701N004610001519N0000001N1+99999+99999999999ADDMW1001MW2441REMMET072RKNF 0259Z 07009KT 0000 FG 9FG000 M08/M09 A3015 RMK CIGW000/ QFF1033PT1;EQDQ01+000003PRSWM1
0115471094999992000011103594+37750+128670FM-16+1407RKNF V0200601N003610001519N0000001N1+99999+99999999999ADDMW1001MW2441REMMET072RKNF 0359Z 06007KT 0000 FG 9FG000 M08/M09 A3013 RMK CIGW000/ QFF1032PT8;EQDQ01+000003PRSWM1
0115471094999992000011104594+37750+128670FM-16+1407RKNF V0200801N001510001519N0000001N1+99999+99999999999ADDMW1001MW2441REMMET072RKNF 0459Z 08003KT 0000 FG 9FG000 M08/M09 A3012 RMK CIGW000/ QFF1032PT4;EQDQ01+000003PRSWM1
0115471094999992000011105594+37750+128670FM-16+1407RKNF V0201001N002610001519N0000001N1+99999+99999999999ADDMW1001MW2441REMMET072RKNF 0559Z 10005KT 0000 FG 9FG000 M07/M08 A3011 RMK CIGW000/ QFF1032PT0;EQDQ01+000003PRSWM1
0115471094999992000011106594+37750+128670FM-16+1407RKNF V0200901N001510001519N0000001N1+99999+99999999999ADDMW1001MW2441REMMET072RKNF 0659Z 09003KT 0000 FG 9FG000 M08/M09 A3013 RMK CIGW000/ QFF1033PT3;EQDQ01+000003PRSWM1
0115471094999992000011107594+37750+128670FM-16+1407RKNF V0200901N002610001519N0000001N1+99999+99999999999ADDMW1001MW2441REMMET072RKNF 0759Z 09005KT 0000 FG 9FG000 M08/M09 A3015 RMK CIGW000/ QFF1034PT0;EQDQ01+000003PRSWM1
0115471094999992000011108594+37750+128670FM-16+1407RKNF V0201001N006210001519N0000001N1+99999+99999999999ADDMW1001MW2441REMMET072RKNF 0859Z 10012KT 0000 FG 9FG000 M08/M09 A3012 RMK CIGW000/ QFF1032PT3;EQDQ01+000003PRSWM1
0115471094999992000011109594+37750+128670FM-16+1407RKNF V0200901N003610001519N0000001N1+99999+99999999999ADDMW1001MW2441REMMET072RKNF 0959Z 09007KT 0000 FG 9FG000 M08/M09 A3013 RMK CIGW000/ QFF1032PT7;EQDQ01+000003PRSWM1
0115471094999992000011110594+37750+128670FM-16+1407RKNF V0201001N005710001519N0000001N1+99999+99999999999ADDMW1001MW2441REMMET072RKNF 1059Z 10011KT 0000 FG 9FG000 M07/M08 A3015 RMK CIGW000/ QFF1033PT0;EQDQ01+000003PRSWM1
0121471094999992000011111594+37750+128670FM-16+1407RKNF V0200801N004610001519N0000001N1+99999+99999999999ADDMW1001MW2441REMMET078RKNF 1159Z 08009KT 0000 FG 9FG000 M07/M08 A3015 RMK CIGW000/90406/ QFF1033PT0;EQDQ01+000003PRSWM1
0115471094999992000011112594+37750+128670FM-16+1407RKNF V0201101N003610001519N0000001N1+99999+99999999999ADDMW1001MW2441REMMET072RKNF 1259Z 11007KT 0000 FG 9FG000 M07/M07 A3013 RMK CIGW000/ QFF1032PT0;EQDQ01+000003PRSWM1
0115471094999992000011113594+37750+128670FM-16+1407RKNF V0201001N003110001519N0000001N1+99999+99999999999ADDMW1001MW2441REMMET072RKNF 1359Z 10006KT 0000 FG 9FG000 M06/M07 A3016 RMK CIGW000/ QFF1032PT2;EQDQ01+000003PRSWM1
0115471094999992000011115004+37750+128670FM-15+1407RKNF V0200801N004610001519N0000001N1+99999+99999999999ADDMW1001MW2441REMMET072RKNF 1459Z 08009KT 0000 FG 9FG000 M06/M07 A3015 RMK CIGW000/ QFF1031PT9;EQDQ01+000003PRSWM1
0090471094999992000011115284+37750+128670FM-16+1407RKNF V0200701N003610001519N0000001N1+99999+99999999999ADDMW1001MW2711REMMET047RKNF 1528Z 07007KT 0000 -SN 9FG000 RMK CIGW000;EQDQ01+000003PRSWM1
0122471094999992000011115594+37750+128670FM-16+1407RKNF V0200801N003110001519N0000001N1+99999+99999999999ADDMW1001MW2711REMMET079RKNF 1559Z 08006KT 0000 -SN 9FG000 M06/M06 A3012 RMK CIGW000/1SN00/ QFF1031PT2;EQDQ01+000003PRSWM1
0121471094999992000011116594+37750+128670FM-16+1407RKNF V0200901N002110001519N0000001N1+99999+99999999999ADDMW1001MW2731REMMET078RKNF 1659Z 09004KT 0000 SN 9FG000 M06/M06 A3013 RMK CIGW000/1SN00/ QFF1031PT5;EQDQ01+000003PRSWM1
0128471094999992000011117594+37750+128670FM-16+1407RKNF V0200701N001510001519N0000001N1+99999+99999999999ADDMW1001MW2711REMMET085RKNF 1759Z 07003KT 0000 -SN 9FG000 M05/M06 A3012 RMK CIGW000/1SN00/6SN00/ QFF1030PT2;EQDQ01+000003PRSWM1
0122471094999992000011118594+37750+128670FM-16+1407RKNF V0200801N001010001519N0000001N1+99999+99999999999ADDMW1001MW2711REMMET079RKNF 1859Z 08002KT 0000 -SN 9FG000 M05/M06 A3010 RMK CIGW000/1SN00/ QFF1030PT2;EQDQ01+000003PRSWM1
0122471094999992000011119594+37750+128670FM-16+1407RKNF V0200601N002110001519N0000001N1+99999+99999999999ADDMW1001MW2711REMMET079RKNF 1959Z 06004KT 0000 -SN 9FG000 M05/M06 A3007 RMK CIGW000/1SN01/ QFF1029PT2;EQDQ01+000003PRSWM1
0122471094999992000011120594+37750+128670FM-16+1407RKNF V0200901N001510001519N0000001N1+99999+99999999999ADDMW1001MW2711REMMET079RKNF 2059Z 09003KT 0000 -SN 9FG000 M05/M06 A3007 RMK CIGW000/1SN01/ QFF1029PT2;EQDQ01+000003PRSWM1
0122471094999992000011121594+37750+128670FM-16+1407RKNF V0200701N001010001519N0000001N1+99999+99999999999ADDMW1001MW2711REMMET079RKNF 2159Z 07002KT 0000 -SN 9FG000 M05/M06 A3005 RMK CIGW000/1SN01/ QFF1028PT8;EQDQ01+000003PRSWM1
0122471094999992000011123004+37750+128670FM-15+1407RKNF V0201001N002110001519N0000001N1+99999+99999999999ADDMW1001MW2711REMMET079RKNF 2259Z 10004KT 0000 -SN 9FG000 M05/M06 A3004 RMK CIGW000/1SN01/ QFF1027PT5;EQDQ01+000003PRSWM1
0134471094999992000011123594+37750+128670FM-16+1407RKNF V0201301N001510001519N0000001N1+99999+99999999999ADDMW1001MW2711REMMET091RKNF 2359Z 13003KT 0000 -SN 9FG000 M05/M06 A3005 RMK CIGW000/1SN00/6SN04/90406/ QFF1027PT8;EQDQ01+000003PRSWM1
0122471094999992000011202004+37750+128670FM-15+1407RKNF V0200901N002110001519N0000001N1+99999+99999999999ADDMW1001MW2711REMMET079RKNF 0159Z 09004KT 0000 -SN 9FG000 M04/M05 A3004 RMK CIGW000/1SN02/ QFF1026PT5;EQDQ01+000003PRSWM1
0122471094999992000011202594+37750+128670FM-16+1407RKNF V0201001N001510001519N0000001N1+99999+99999999999ADDMW1001MW2711REMMET079RKNF 0259Z 10003KT 0000 -SN 9FG000 M04/M05 A3001 RMK CIGW000/1SN02/ QFF1025PT8;EQDQ01+000003PRSWM1
0122471094999992000011203594+37750+128670FM-16+1407RKNF V0201101N002110001519N0000001N1+99999+99999999999ADDMW1001MW2711REMMET079RKNF 0359Z 11004KT 0000 -SN 9FG000 M04/M05 A2997 RMK CIGW000/1SN04/ QFF1024PT4;EQDQ01+000003PRSWM1
0122471094999992000011205004+37750+128670FM-15+1407RKNF V0201001N001510001519N0000001N1+99999+99999999999ADDMW1001MW2711REMMET079RKNF 0459Z 10003KT 0000 -SN 9FG000 M03/M03 A2995 RMK CIGW000/1SN05/ QFF1023PT1;EQDQ01+000003PRSWM1
0134471094999992000011206004+37750+128670FM-15+1407RKNF V0200801N002110001519N0000001N1+99999+99999999999ADDMW1001MW2711REMMET091RKNF 0559Z 08004KT 0000 -SN 9FG000 M03/M03 A2994 RMK CIGW000/1SN04/6SN19/90408/ QFF1022PT4;EQDQ01+000003PRSWM1
0122471094999992000011206594+37750+128670FM-16+1407RKNF V0201101N003110001519N0000001N1+99999+99999999999ADDMW1001MW2711REMMET079RKNF 0659Z 11006KT 0000 -SN 9FG000 M04/M05 A2994 RMK CIGW000/1SN04/ QFF1023PT1;EQDQ01+000003PRSWM1
0122471094999992000011207594+37750+128670FM-16+1407RKNF V0200901N004110001519N0000001N1+99999+99999999999ADDMW1001MW2711REMMET079RKNF 0759Z 09008KT 0000 -SN 9FG000 M04/M05 A2994 RMK CIGW000/1SN03/ QFF1023PT1;EQDQ01+000003PRSWM1
0122471094999992000011208594+37750+128670FM-16+1407RKNF V0200801N002610001519N0000001N1+99999+99999999999ADDMW1001MW2711REMMET079RKNF 0859Z 08005KT 0000 -SN 9FG000 M05/M05 A2994 RMK CIGW000/1SN02/ QFF1023PT1;EQDQ01+000003PRSWM1
0122471094999992000011209594+37750+128670FM-16+1407RKNF V0200501N002110001519N0000001N1+99999+99999999999ADDMW1001MW2711REMMET079RKNF 0959Z 05004KT 0000 -SN 9FG000 M05/M05 A2993 RMK CIGW000/1SN02/ QFF1022PT7;EQDQ01+000003PRSWM1
0122471094999992000011210594+37750+128670FM-16+1407RKNF V0200601N001510001519N0000001N1+99999+99999999999ADDMW1001MW2711REMMET079RKNF 1059Z 06003KT 0000 -SN 9FG000 M04/M05 A2992 RMK CIGW000/1SN03/ QFF1022PT4;EQDQ01+000003PRSWM1
0134471094999992000011212004+37750+128670FM-15+1407RKNF V0200401N002610001519N0000001N1+99999+99999999999ADDMW1001MW2711REMMET091RKNF 1159Z 04005KT 0000 -SN 9FG000 M04/M05 A2992 RMK CIGW000/1SN01/6SN15/90410/ QFF1022PT4;EQDQ01+000003PRSWM1
0122471094999992000011212594+37750+128670FM-16+1407RKNF V0200501N003610001519N0000001N1+99999+99999999999ADDMW1001MW2711REMMET079RKNF 1259Z 05007KT 0000 -SN 9FG000 M04/M05 A2991 RMK CIGW000/1SN01/ QFF1022PT1;EQDQ01+000003PRSWM1
0122471094999992000011213594+37750+128670FM-16+1407RKNF V0200701N003110001519N0000001N1+99999+99999999999ADDMW1001MW2711REMMET079RKNF 1359Z 07006KT 0000 -SN 9FG000 M04/M04 A2988 RMK CIGW000/1SN01/ QFF1020PT7;EQDQ01+000003PRSWM1
0128471094999992000011214594+37750+128670FM-16+1407RKNF V0200601N005110001519N0000001N1+99999+99999999999ADDMW1001MW2711REMMET085RKNF 1459Z 06010KT 0000 -SN 9FG000 M04/M04 A2987 RMK CIGW000/1SN01/20041/ QFF1020PT0;EQDQ01+000003PRSWM1
0122471094999992000011215594+37750+128670FM-16+1407RKNF V0200901N001510001519N0000001N1+99999+99999999999ADDMW1001MW2711REMMET079RKNF 1559Z 09003KT 0000 -SN 9FG000 M03/M04 A2984 RMK CIGW000/1SN01/ QFF1018PT7;EQDQ01+000003PRSWM1
0122471094999992000011217004+37750+128670FM-15+1407RKNF V0200801N001010001519N0000001N1+99999+99999999999ADDMW1001MW2711REMMET079RKNF 1659Z 08002KT 0000 -SN 9FG000 M03/M04 A2981 RMK CIGW000/1SN02/ QFF1017PT2;EQDQ01+000003PRSWM1
0134471094999992000011218004+37750+128670FM-15+1407RKNF V0209999C000010001519N0000001N1+99999+99999999999ADDMW1001MW2711REMMET091RKNF 1759Z 00000KT 0000 -SN 9FG000 M03/M03 A2981 RMK CIGW000/1SN04/6SN10/90410/ QFF1017PT2;EQDQ01+000003PRSWM1
0122471094999992000011219004+37750+128670FM-15+1407RKNF V0202001N000510001519N0000001N1+99999+99999999999ADDMW1001MW2711REMMET079RKNF 1859Z 20001KT 0000 -SN 9FG000 M03/M03 A2979 RMK CIGW000/1SN04/ QFF1017PT3;EQDQ01+000003PRSWM1
0122471094999992000011220594+37750+128670FM-16+1407RKNF V0202801N003610001519N0000001N1+99999+99999999999ADDMW1001MW2711REMMET079RKNF 2059Z 28007KT 0000 -SN 9FG000 M03/M04 A2977 RMK CIGW000/1SN02/ QFF1016PT3;EQDQ01+000003PRSWM1
0122471094999992000011221594+37750+128670FM-16+1407RKNF V0202901N004110001519N0000001N1+99999+99999999999ADDMW1001MW2711REMMET079RKNF 2159Z 29008KT 0000 -SN 9FG000 M04/M04 A2977 RMK CIGW000/1SN03/ QFF1016PT3;EQDQ01+000003PRSWM1
0122471094999992000011222594+37750+128670FM-16+1407RKNF V0202701N003110001519N0000001N1+99999+99999999999ADDMW1001MW2711REMMET079RKNF 2259Z 27006KT 0000 -SN 9FG000 M04/M05 A2975 RMK CIGW000/1SN08/ QFF1016PT0;EQDQ01+000003PRSWM1
0134471094999992000011223594+37750+128670FM-16+1407RKNF V0202901N002610001519N0000001N1+99999+99999999999ADDMW1001MW2711REMMET091RKNF 2359Z 29005KT 0000 -SN 9FG000 M04/M05 A2974 RMK CIGW000/1SN01/6SN20/90412/ QFF1015PT6;EQDQ01+000003PRSWM1
0122471094999992000011301004+37750+128670FM-15+1407RKNF V0202801N003110001519N0000001N1+99999+99999999999ADDMW1001MW2711REMMET079RKNF 0059Z 28006KT 0000 -SN 9FG000 M04/M05 A2975 RMK CIGW000/1SN00/ QFF1016PT5;EQDQ01+000003PRSWM1
0122471094999992000011301594+37750+128670FM-16+1407RKNF V0202801N004610001519N0000001N1+99999+99999999999ADDMW1001MW2711REMMET079RKNF 0159Z 28009KT 0000 -SN 9FG000 M04/M05 A2975 RMK CIGW000/1SN00/ QFF1016PT5;EQDQ01+000003PRSWM1
0122471094999992000011302594+37750+128670FM-16+1407RKNF V0202701N003110001519N0000001N1+99999+99999999999ADDMW1001MW2711REMMET079RKNF 0259Z 27006KT 0000 -SN 9FG000 M04/M05 A2972 RMK CIGW000/1SN01/ QFF1014PT6;EQDQ01+000003PRSWM1
0122471094999992000011304004+37750+128670FM-15+1407RKNF V0202901N004110001519N0000001N1+99999+99999999999ADDMW1001MW2711REMMET079RKNF 0359Z 29008KT 0000 -SN 9FG000 M05/M06 A2969 RMK CIGW000/1SN01/ QFF1013PT6;EQDQ01+000003PRSWM1
0122471094999992000011305004+37750+128670FM-15+1407RKNF V0202801N004610001519N0000001N1+99999+99999999999ADDMW1001MW2711REMMET079RKNF 0459Z 28009KT 0000 -SN 9FG000 M06/M06 A2969 RMK CIGW000/1SN00/ QFF1013PT6;EQDQ01+000003PRSWM1
0146471094999992000011305594+37750+128670FM-16+1407RKNF V0202701N003610001519N0000001N1+99999+99999999999ADDMW1001MW2711OC100931REMMET095RKNF 0559Z 27007G018KT 0000 -SN 9FG000 M06/M06 A2968 RMK CIGW000/1SN02/6SN04/90413/ QFF1012PT9;EQDQ01+000003PRSWM1
0134471094999992000011306594+37750+128670FM-16+1407RKNF V0203001N004110001519N0000001N1+99999+99999999999ADDMW1001MW2711OC100981REMMET083RKNF 0659Z 30008G019KT 0000 -SN 9FG000 M06/M07 A2969 RMK CIGW000/1SN00/ QFF1014PT3;EQDQ01+000003PRSWM1
0122471094999992000011307594+37750+128670FM-16+1407RKNF V0202901N006210001519N0000001N1+99999+99999999999ADDMW1001MW2711REMMET079RKNF 0759Z 29012KT 0000 -SN 9FG000 M08/M09 A2969 RMK CIGW000/1SN01/ QFF1014PT3;EQDQ01+000003PRSWM1
0122471094999992000011308594+37750+128670FM-16+1407RKNF V0203001N007210001519N0000001N1+99999+99999999999ADDMW1001MW2711REMMET079RKNF 0859Z 30014KT 0000 -SN 9FG000 M09/M10 A2972 RMK CIGW000/1SN01/ QFF1016PT0;EQDQ01+000003PRSWM1
0122471094999992000011309594+37750+128670FM-16+1407RKNF V0203201N006710001519N0000001N1+99999+99999999999ADDMW1001MW2711REMMET079RKNF 0959Z 32013KT 0000 -SN 9FG000 M09/M10 A2973 RMK CIGW000/1SN01/ QFF1016PT3;EQDQ01+000003PRSWM1
0134471094999992000011311594+37750+128670FM-16+1407RKNF V0203201N006210001519N0000001N1+99999+99999999999ADDMW1001MW2711REMMET091RKNF 1159Z 32012KT 0000 -SN 9FG000 M10/M11 A2977 RMK CIGW000/1SN01/6SN05/90413/ QFF1018PT3;EQDQ01+000003PRSWM1
0122471094999992000011312594+37750+128670FM-16+1407RKNF V0203101N005710001519N0000001N1+99999+99999999999ADDMW1001MW2711REMMET079RKNF 1259Z 31011KT 0000 -SN 9FG000 M10/M11 A2978 RMK CIGW000/1SN01/ QFF1018PT7;EQDQ01+000003PRSWM1
0122471094999992000011314004+37750+128670FM-15+1407RKNF V0203001N003610001519N0000001N1+99999+99999999999ADDMW1001MW2711REMMET079RKNF 1359Z 30007KT 0000 -SN 9FG000 M10/M11 A2980 RMK CIGW000/1SN00/ QFF1019PT7;EQDQ01+000003PRSWM1
0089471094999992000011314064+37750+128670FM-16+1407RKNF V0202901N003110001519N0000001N1+99999+99999999999ADDMW1001MW2441REMMET046RKNF 1406Z 29006KT 0000 FG 9FG000 RMK CIGW000;EQDQ01+000003PRSWM1
0127471094999992000011314594+37750+128670FM-16+1407RKNF V0202701N001510001519N0000001N1+99999+99999999999ADDMW1001MW2441REMMET084RKNF 1459Z 27003KT 0000 FG 9FG000 M10/M11 A2982 RMK CIGW000/1SN00/20037/ QFF1020PT0;EQDQ01+000003PRSWM1
0205471094999992000011316004+37750+128670FM-15+1407RKNF V0203301N002610012019N0008001N1-01001-01101999999ADDGA1021+000159999GA2071+001209999GF107991999999999999999999MA1100951999999MW1441REMMET079RKNF 1559Z 33005KT 0800 FG 4FG/// BKN004 M10/M11 A2981 RMK CIGE004/ QFF1020PT7;EQDQ01+000003PRSWM1Q02    003PRSWM1
0154471094999992000011316024+37750+128670FM-16+1407RKNF V0203501N003110012019N0016001N1+99999+99999999999ADDGA1031+000159999GA2071+001209999GF107991999999999999999999MW1001MW2101REMMET053RKNF 1602Z 35006KT 1600 BR 3FG/// BKN004 RMK CIGE004;EQDQ01+000003PRSWM1
0147471094999992000011316064+37750+128670FM-16+1407RKNF V0200301N002612200019N0032001N1+99999+99999999999ADDGA1021+000159999GA2021+001209999GF104991999999999999999999MW1001MW2101REMMET046RKNF 1606Z 03005KT 3200 BR 2FG/// SCT004 RMK ;EQDQ01+000003PRSWM1
0147471094999992000011316094+37750+128670FM-16+1407RKNF V0200401N002112200019N0048001N1+99999+99999999999ADDGA1011+000159999GA2021+001209999GF104991999999999999999999MW1001MW2101REMMET046RKNF 1609Z 04004KT 4800 BR 1FG/// SCT004 RMK ;EQDQ01+000003PRSWM1
0196471094999992000011316594+37750+128670FM-15+1407RKNF V0200201N002612200019N0060001N1-01001-01101999999ADDGA1021+001209999GA2021+003009999GF104991999999999999999999MA1100951999999MW1101REMMET070RKNF 1659Z 02005KT 6000 BR FEW004 SCT010 M10/M11 A2981 RMK QFF1020PT1;EQDQ01+000003PRSWM1Q02    003PRSWM1
0209471094999992000011318004+37750+128670FM-15+1407RKNF V0200101N001512200019N0048001N1-00901-01001999999ADDGA1011+000159999GA2021+001209999GF104991999999999999999999MA1101051999999MW1101REMMET083RKNF 1759Z 01003KT 4800 BR 1FG/// SCT004 M09/M10 A2984 RMK 6SN01/90413/ QFF1021PT0;EQDQ01+000003PRSWM1Q02    003PRSWM1
0154471094999992000011318124+37750+128670FM-16+1407RKNF V0200401N001010012019N0032001N1+99999+99999999999ADDGA1021+000159999GA2071+001209999GF107991999999999999999999MW1001MW2101REMMET053RKNF 1812Z 04002KT 3200 BR 2FG/// BKN004 RMK CIGE004;EQDQ01+000003PRSWM1
0154471094999992000011318194+37750+128670FM-16+1407RKNF V0200301N002110012019N0016001N1+99999+99999999999ADDGA1031+000159999GA2081+001209999GF108991999999999999999999MW1001MW2101REMMET053RKNF 1819Z 03004KT 1600 BR 3FG/// OVC004 RMK CIGE004;EQDQ01+000003PRSWM1
0205471094999992000011318594+37750+128670FM-15+1407RKNF V0200601N002610012019N0016001N1-00901-01001999999ADDGA1031+000159999GA2081+001209999GF108991999999999999999999MA1101081999999MW1101REMMET079RKNF 1859Z 06005KT 1600 BR 3FG/// OVC004 M09/M10 A2985 RMK CIGE004/ QFF1021PT4;EQDQ01+000003PRSWM1Q02    003PRSWM1
0205471094999992000011320004+37750+128670FM-15+1407RKNF V0200901N001010012019N0016001N1-00901-01001999999ADDGA1031+000159999GA2081+001209999GF108991999999999999999999MA1101081999999MW1101REMMET079RKNF 1959Z 09002KT 1600 BR 3FG/// OVC004 M09/M10 A2985 RMK CIGE004/ QFF1021PT5;EQDQ01+000003PRSWM1Q02    003PRSWM1
0089471094999992000011320134+37750+128670FM-16+1407RKNF V0200501N001510001519N0000001N1+99999+99999999999ADDMW1001MW2441REMMET046RKNF 2013Z 05003KT 0000 FG 9FG000 RMK CIGW000;EQDQ01+000003PRSWM1
0115471094999992000011321004+37750+128670FM-15+1407RKNF V0209999C000010001519N0000001N1+99999+99999999999ADDMW1001MW2441REMMET072RKNF 2059Z 00000KT 0000 FG 9FG000 M09/M10 A2986 RMK CIGW000/ QFF1022PT8;EQDQ01+000003PRSWM1
0115471094999992000011321594+37750+128670FM-16+1407RKNF V0209999C000010001519N0000001N1+99999+99999999999ADDMW1001MW2441REMMET072RKNF 2159Z 00000KT 0000 FG 9FG000 M09/M10 A2988 RMK CIGW000/ QFF1023PT8;EQDQ01+000003PRSWM1
0115471094999992000011322594+37750+128670FM-16+1407RKNF V0200901N001010001519N0000001N1+99999+99999999999ADDMW1001MW2441REMMET072RKNF 2259Z 09002KT 0000 FG 9FG000 M09/M10 A2991 RMK CIGW000/ QFF1024PT5;EQDQ01+000003PRSWM1
0115471094999992000011400004+37750+128670FM-15+1407RKNF V0209999C000010001519N0000001N1+99999+99999999999ADDMW1001MW2441REMMET072RKNF 2359Z 00000KT 0000 FG 9FG000 M08/M09 A2993 RMK CIGW000/ QFF1025PT2;EQDQ01+000003PRSWM1
0177471094999992000011400024+37750+128670FM-16+1407RKNF V0209999C000010024019N0016001N1+99999+99999999999ADDGA1031+000159999GA2071+002409999GA3081+003609999GF108991999999999999999999MW1001MW2101REMMET060RKNF 0002Z 00000KT 1600 BR 3FG/// BKN008 OVC012 RMK CIGE008;EQDQ01+000003PRSWM1
0177471094999992000011400044+37750+128670FM-16+1407RKNF V0209999C000010036019N0032001N1+99999+99999999999ADDGA1021+000159999GA2021+002409999GA3081+003609999GF108991999999999999999999MW1001MW2101REMMET060RKNF 0004Z 00000KT 3200 BR 2FG/// SCT008 OVC012 RMK CIGE012;EQDQ01+000003PRSWM1
0177471094999992000011400054+37750+128670FM-16+1407RKNF V0209999C000010036019N0048001N1+99999+99999999999ADDGA1011+000159999GA2021+002409999GA3081+003609999GF108991999999999999999999MW1001MW2101REMMET060RKNF 0005Z 00000KT 4800 BR 1FG/// SCT008 OVC012 RMK CIGE012;EQDQ01+000003PRSWM1
0205471094999992000011400594+37750+128670FM-15+1407RKNF V0200901N000510036019N0090001N1-00601-00801999999ADDGA1021+002409999GA2071+003609999GF107991999999999999999999MA1101421999999MW1101REMMET079RKNF 0059Z 09001KT 9000 BR FEW008 BKN012 M06/M08 A2995 RMK CIGE012/ QFF1025PT2;EQDQ01+000003PRSWM1Q02    003PRSWM1
0205471094999992000011401594+37750+128670FM-15+1407RKNF V0209999C000010036019N0090001N1-00601-00901999999ADDGA1071+003609999GA2071+054009999GF107991999999999999999999MA1101421999999MW1101REMMET079RKNF 0159Z 00000KT 9000 BR BKN012 BKN180 M06/M09 A2995 RMK CIGE012/ QFF1025PT9;EQDQ01+000003PRSWM1Q02    003PRSWM1
0205471094999992000011402594+37750+128670FM-15+1407RKNF V0209999C000010036019N0090001N1-00501-00701999999ADDGA1071+003609999GA2071+054009999GF107991999999999999999999MA1101351999999MW1101REMMET079RKNF 0259Z 00000KT 9000 BR BKN012 BKN180 M05/M07 A2993 RMK CIGE012/ QFF1024PT2;EQDQ01+000003PRSWM1Q02    003PRSWM1
0205471094999992000011403594+37750+128670FM-15+1407RKNF V0200701N000510036019N0090001N1-00501-00701999999ADDGA1071+003609999GA2071+054009999GF107991999999999999999999MA1101321999999MW1101REMMET079RKNF 0359Z 07001KT 9000 BR BKN012 BKN180 M05/M07 A2992 RMK CIGE012/ QFF1024PT2;EQDQ01+000003PRSWM1Q02    003PRSWM1
0205471094999992000011405594+37750+128670FM-15+1407RKNF V0202101N000510036019N0090001N1-00601-00801999999ADDGA1071+003609999GA2081+054009999GF108991999999999999999999MA1101321999999MW1101REMMET079RKNF 0559Z 21001KT 9000 BR BKN012 OVC180 M06/M08 A2992 RMK CIGE012/ QFF1024PT2;EQDQ01+000003PRSWM1Q02    003PRSWM1
0116471094999992000011406004+37750+128670FM-15+1407RKNF V0200901N000510036019N0090001N1+99999+99999999999ADDMW1001MW2101REMMET073RKNF 0459Z 09001KT 9000 BR 012 180 M05/M07 A2991 RMK CIGE012/ QFF1023PT2;EQDQ01+000003PRSWM1
0205471094999992000011406594+37750+128670FM-15+1407RKNF V0202701N002610036019N0090001N1-00601-00901999999ADDGA1071+003609999GA2081+054009999GF108991999999999999999999MA1101351999999MW1101REMMET079RKNF 0659Z 27005KT 9000 BR BKN012 OVC180 M06/M09 A2993 RMK CIGE012/ QFF1024PT5;EQDQ01+000003PRSWM1Q02    003PRSWM1
0205471094999992000011408004+37750+128670FM-15+1407RKNF V0202801N001510036019N0048001N1-00701-00901999999ADDGA1011+000159999GA2081+003609999GF108991999999999999999999MA1101391999999MW1101REMMET079RKNF 0759Z 28003KT 4800 BR 1FG/// OVC012 M07/M09 A2994 RMK CIGE012/ QFF1024PT9;EQDQ01+000003PRSWM1Q02    003PRSWM1
0177471094999992000011408104+37750+128670FM-16+1407RKNF V0202501N002610036019N0032001N1+99999+99999999999ADDGA1021+000159999GA2021+001209999GA3081+003609999GF108991999999999999999999MW1001MW2101REMMET060RKNF 0810Z 25005KT 3200 BR 2FG/// SCT004 OVC012 RMK CIGE012;EQDQ01+000003PRSWM1
0177471094999992000011408224+37750+128670FM-16+1407RKNF V0202401N001510012019N0016001N1+99999+99999999999ADDGA1031+000159999GA2071+001209999GA3081+003609999GF108991999999999999999999MW1001MW2101REMMET060RKNF 0822Z 24003KT 1600 BR 3FG/// BKN004 OVC012 RMK CIGE004;EQDQ01+000003PRSWM1
0205471094999992000011409004+37750+128670FM-15+1407RKNF V0202301N003610012019N0016001N1-00801-00901999999ADDGA1031+000159999GA2081+001209999GF108991999999999999999999MA1101391999999MW1101REMMET079RKNF 0859Z 23007KT 1600 BR 3FG/// OVC004 M08/M09 A2994 RMK CIGE004/ QFF1024PT9;EQDQ01+000003PRSWM1Q02    003PRSWM1
0089471094999992000011409344+37750+128670FM-16+1407RKNF V0202501N004110001519N0000001N1+99999+99999999999ADDMW1001MW2441REMMET046RKNF 0934Z 25008KT 0000 FG 9FG000 RMK CIGW000;EQDQ01+000003PRSWM1
0115471094999992000011409594+37750+128670FM-16+1407RKNF V0202601N003610001519N0000001N1+99999+99999999999ADDMW1001MW2441REMMET072RKNF 0959Z 26007KT 0000 FG 9FG000 M09/M10 A2995 RMK CIGW000/ QFF1026PT2;EQDQ01+000003PRSWM1
0115471094999992000011410594+37750+128670FM-16+1407RKNF V0202901N005110001519N0000001N1+99999+99999999999ADDMW1001MW2441REMMET072RKNF 1059Z 29010KT 0000 FG 9FG000 M10/M11 A2995 RMK CIGW000/ QFF1026PT2;EQDQ01+000003PRSWM1
0121471094999992000011411594+37750+128670FM-16+1407RKNF V0202701N004110001519N0000001N1+99999+99999999999ADDMW1001MW2441REMMET078RKNF 1159Z 27008KT 0000 FG 9FG000 M10/M12 A2996 RMK CIGW000/90413/ QFF1026PT6;EQDQ01+000003PRSWM1
0205471094999992000011413594+37750+128670FM-15+1407RKNF V0202901N005110012019N0008001N1-01201-01301999999ADDGA1021+000159999GA2071+001209999GF107991999999999999999999MA1101461999999MW1441REMMET079RKNF 1359Z 29010KT 0800 FG 4FG/// BKN004 M12/M13 A2996 RMK CIGE004/ QFF1026PT6;EQDQ01+000003PRSWM1Q02    003PRSWM1
0115471094999992000011415004+37750+128670FM-15+1407RKNF V0203001N004110001519N0000001N1+99999+99999999999ADDMW1001MW2441REMMET072RKNF 1459Z 30008KT 0000 FG 9FG000 M12/M14 A2996 RMK CIGW000/ QFF1026PT6;EQDQ01+000003PRSWM1
0154471094999992000011415194+37750+128670FM-16+1407RKNF V0203101N003610012019N0016001N1+99999+99999999999ADDGA1031+000159999GA2071+001209999GF107991999999999999999999MW1001MW2101REMMET053RKNF 1519Z 31007KT 1600 BR 3FG/// BKN004 RMK CIGE004;EQDQ01+000003PRSWM1
0147471094999992000011415384+37750+128670FM-16+1407RKNF V0202901N002612200019N0032001N1+99999+99999999999ADDGA1021+000159999GA2021+001209999GF104991999999999999999999MW1001MW2101REMMET046RKNF 1538Z 29005KT 3200 BR 2FG/// SCT004 RMK ;EQDQ01+000003PRSWM1
0196471094999992000011416004+37750+128670FM-15+1407RKNF V0203201N003112200019N0032001N1-01201-01301999999ADDGA1021+000159999GA2021+001209999GF104991999999999999999999MA1101461999999MW1101REMMET070RKNF 1559Z 32006KT 3200 BR 2FG/// SCT004 M12/M13 A2996 RMK QFF1025PT9;EQDQ01+000003PRSWM1Q02    003PRSWM1
0147471094999992000011416054+37750+128670FM-16+1407RKNF V0203101N002112200019N0048001N1+99999+99999999999ADDGA1011+000159999GA2021+001209999GF104991999999999999999999MW1001MW2101REMMET046RKNF 1605Z 31004KT 4800 BR 1FG/// SCT004 RMK ;EQDQ01+000003PRSWM1
0173471094999992000011416594+37750+128670FM-15+1407RKNF V0203201N005112200019N0060001N1-01201-01301999999ADDGA1021+001209999GF102991999999999999999999MA1101521999999MW1101REMMET063RKNF 1659Z 32010KT 6000 BR FEW004 M12/M13 A2998 RMK QFF1026PT6;EQDQ01+000003PRSWM1Q02    003PRSWM1
0114471094999992000011418004+37750+128670FM-15+1407RKNF V0203301N004112200019N0080001N1+99999+99999999999ADDMA1101591999999MW1001MW2101REMMET056RKNF 1759Z 33008KT 8000 BR M12/M14 A3000 RMK QFF1027PT9;EQDQ01+000003PRSWM1
0114471094999992000011419004+37750+128670FM-15+1407RKNF V0203201N003612200019N0080001N1+99999+99999999999ADDMA1101591999999MW1001MW2101REMMET056RKNF 1859Z 32007KT 8000 BR M12/M14 A3000 RMK QFF1027PT9;EQDQ01+000003PRSWM1
0114471094999992000011419594+37750+128670FM-16+1407RKNF V0203301N006212200019N0080001N1+99999+99999999999ADDMA1101591999999MW1001MW2101REMMET056RKNF 1959Z 33012KT 8000 BR M11/M13 A3000 RMK QFF1027PT6;EQDQ01+000003PRSWM1
0114471094999992000011420594+37750+128670FM-16+1407RKNF V0203501N005712200019N0080001N1+99999+99999999999ADDMA1101631999999MW1001MW2101REMMET056RKNF 2059Z 35011KT 8000 BR M11/M12 A3001 RMK QFF1028PT9;EQDQ01+000003PRSWM1
0114471094999992000011421594+37750+128670FM-16+1407RKNF V0203601N004612200019N0080001N1+99999+99999999999ADDMA1101631999999MW1001MW2101REMMET056RKNF 2159Z 36009KT 8000 BR M10/M13 A3001 RMK QFF1029PT3;EQDQ01+000003PRSWM1
0173471094999992000011422594+37750+128670FM-15+1407RKNF V0200301N001512200019N0090001N1-00901-01401999999ADDGA1021+054009999GF102991999999999999999999MA1101731999999MW1051REMMET063RKNF 2259Z 03003KT 9000 HZ FEW180 M09/M14 A3004 RMK QFF1029PT4;EQDQ01+000003PRSWM1Q02    003PRSWM1
0154471094999992000011423594+37750+128670FM-15+1407RKNF V0200801N001512200019N0112651N1-00601-01001999999ADDGA1021+054009999GF102991999999999999999999MA1101761999999MW1001REMMET060RKNF 2359Z 08003KT 9999 FEW180 M06/M10 A3005 RMK QFF1029PT3;EQDQ01+000000PRSWM2
0162471094999992000011500594+37750+128670FM-15+1407RKNF V0200901N002110540019N0112651N1-00701-01301999999ADDGA1071+054009999GF107991999999999999999999MA1101831999999MW1001REMMET068RKNF 0059Z 09004KT 9999 BKN180 M07/M13 A3007 RMK CIG180/ QFF1030PT0;EQDQ01+000000PRSWM2
0162471094999992000011502004+37750+128670FM-15+1407RKNF V0200801N003110540019N0112651N1-00401-01101999999ADDGA1071+054009999GF107991999999999999999999MA1101861999999MW1001REMMET068RKNF 0159Z 08006KT 9999 BKN180 M04/M11 A3008 RMK CIG180/ QFF1030PT0;EQDQ01+000000PRSWM2
0102471094999992000011503004+37750+128670FM-15+1407RKNF V0209999C000010540019N0112651N1+99999+99999999999ADDMW1001REMMET065RKNF 0259Z 00000KT 9999 180 M02/M11 A3008 RMK CIG180/ QFF1029PT7;EQDQ01+000000PRSWM2
0154471094999992000011503594+37750+128670FM-15+1407RKNF V0202501N001012200019N0112651N1-00301-01001999999ADDGA1021+054009999GF104991999999999999999999MA1101831999999MW1001REMMET060RKNF 0359Z 25002KT 9999 SCT180 M03/M10 A3007 RMK QFF1028PT9;EQDQ01+000000PRSWM2
0154471094999992000011505004+37750+128670FM-15+1407RKNF V0209999C000012200019N0112651N1-00201-00701999999ADDGA1021+054009999GF104991999999999999999999MA1101731999999MW1001REMMET060RKNF 0459Z 00000KT 9999 SCT180 M02/M07 A3004 RMK QFF1028PT3;EQDQ01+000000PRSWM2
0162471094999992000011506004+37750+128670FM-15+1407RKNF V0209999C000010540019N0112651N1-00401-00801999999ADDGA1071+054009999GF107991999999999999999999MA1101691999999MW1001REMMET068RKNF 0559Z 00000KT 9999 BKN180 M04/M08 A3003 RMK CIG180/ QFF1028PT3;EQDQ01+000000PRSWM2
0181471094999992000011507594+37750+128670FM-15+1407RKNF V0209999C000010540019N0090001N1-00601-00801999999ADDGA1071+054009999GF107991999999999999999999MA1101691999999MW1101REMMET071RKNF 0759Z 00000KT 9000 BR BKN180 M06/M08 A3003 RMK CIG180/ QFF1029PT3;EQDQ01+000003PRSWM1Q02    003PRSWM1
0181471094999992000011509004+37750+128670FM-15+1407RKNF V0209999C000010540019N0090001N1-00701-01001999999ADDGA1071+054009999GF107991999999999999999999MA1101731999999MW1101REMMET071RKNF 0859Z 00000KT 9000 BR BKN180 M07/M10 A3004 RMK CIG180/ QFF1029PT3;EQDQ01+000003PRSWM1Q02    003PRSWM1
0181471094999992000011509594+37750+128670FM-15+1407RKNF V0201701N001010540019N0090001N1-00701-00901999999ADDGA1071+054009999GF107991999999999999999999MA1101831999999MW1101REMMET071RKNF 0959Z 17002KT 9000 BR BKN180 M07/M09 A3007 RMK CIG180/ QFF1029PT9;EQDQ01+000003PRSWM1Q02    003PRSWM1
0173471094999992000011510594+37750+128670FM-15+1407RKNF V0202401N004112200019N0090001N1-00701-00901999999ADDGA1021+054009999GF104991999999999999999999MA1101831999999MW1101REMMET063RKNF 1059Z 24008KT 9000 BR SCT180 M07/M09 A3007 RMK QFF1029PT6;EQDQ01+000003PRSWM1Q02    003PRSWM1
0180471094999992000011511594+37750+128670FM-15+1407RKNF V0202501N005712200019N0080001N1-00701-00901999999ADDGA1021+054009999GF104991999999999999999999MA1101831999999MW1101REMMET070RKNF 1159Z 25011KT 8000 BR SCT180 M07/M09 A3007 RMK 90413/ QFF1028PT3;EQDQ01+000003PRSWM1Q02    003PRSWM1
0173471094999992000011512594+37750+128670FM-15+1407RKNF V0202701N005112200019N0080001N1-00701-00901999999ADDGA1021+054009999GF104991999999999999999999MA1101761999999MW1101REMMET063RKNF 1259Z 27010KT 8000 BR SCT180 M07/M09 A3005 RMK QFF1028PT9;EQDQ01+000003PRSWM1Q02    003PRSWM1
0173471094999992000011513594+37750+128670FM-15+1407RKNF V0202501N004612200019N0080001N1-00701-00901999999ADDGA1021+054009999GF104991999999999999999999MA1101761999999MW1101REMMET063RKNF 1359Z 25009KT 8000 BR SCT180 M07/M09 A3005 RMK QFF1027PT6;EQDQ01+000003PRSWM1Q02    003PRSWM1
0181471094999992000011514594+37750+128670FM-15+1407RKNF V0202701N004110540019N0080001N1-00701-00901999999ADDGA1071+054009999GF107991999999999999999999MA1101731999999MW1101REMMET071RKNF 1459Z 27008KT 8000 BR BKN180 M07/M09 A3004 RMK CIG180/ QFF1027PT2;EQDQ01+000003PRSWM1Q02    003PRSWM1
0181471094999992000011516004+37750+128670FM-15+1407RKNF V0202801N003610540019N0090001N1-00701-00901999999ADDGA1071+054009999GF107991999999999999999999MA1101691999999MW1101REMMET071RKNF 1659Z 28007KT 9000 BR BKN180 M07/M09 A3003 RMK CIG180/ QFF1026PT5;EQDQ01+000003PRSWM1Q02    003PRSWM1
0181471094999992000011516594+37750+128670FM-15+1407RKNF V0202801N003610540019N0090001N1-00701-00901999999ADDGA1071+054009999GF107991999999999999999999MA1101691999999MW1101REMMET071RKNF 1659Z 28007KT 9000 BR BKN180 M07/M09 A3003 RMK CIG180/ QFF1026PT5;EQDQ01+000003PRSWM1Q02    003PRSWM1
0181471094999992000011518004+37750+128670FM-15+1407RKNF V0202901N004610540019N0080001N1-00701-00801999999ADDGA1071+054009999GF107991999999999999999999MA1101691999999MW1101REMMET071RKNF 1759Z 29009KT 8000 BR BKN180 M07/M08 A3003 RMK CIG180/ QFF1026PT5;EQDQ01+000003PRSWM1Q02    003PRSWM1
0153471094999992000011518044+37750+128670FM-16+1407RKNF V0202701N003110540019N0060001N1+99999+99999999999ADDGA1021+001209999GA2071+054009999GF107991999999999999999999MW1001MW2101REMMET052RKNF 1804Z 27006KT 6000 BR FEW004 BKN180 RMK CIG180;EQDQ01+000003PRSWM1
0177471094999992000011518344+37750+128670FM-16+1407RKNF V0202801N004610012019N0048001N1+99999+99999999999ADDGA1011+000159999GA2071+001209999GA3081+054009999GF108991999999999999999999MW1001MW2101REMMET060RKNF 1834Z 28009KT 4800 BR 1FG/// BKN004 OVC180 RMK CIGE004;EQDQ01+000003PRSWM1
0228471094999992000011518594+37750+128670FM-15+1407RKNF V0203001N006210012019N0048001N1-00701-00801999999ADDGA1011+000159999GA2071+001209999GA3081+054009999GF108991999999999999999999MA1101661999999MW1101REMMET086RKNF 1859Z 30012KT 4800 BR 1FG/// BKN004 OVC180 M07/M08 A3002 RMK CIGE004/ QFF1026PT8;EQDQ01+000003PRSWM1Q02    003PRSWM1
