0244471120999992000010100004+37480+126630FM-12+007099999V0200501N002119999999N0050001N1+00131-00011102671ADDAA106000091AY121061AY221061GF106991041001999999061041IA1019IA2999+00009KA1120N+00041MA1999999101811MD1210031+9999MW1101REMSYN094AAXX  01004 47112 31950 60504 10013 21001 30181 40267 52003 71022 84064 333 20004 30100 92022;EQDQ01  00002PRCP06
0191471120999992000010103004+37480+126630FM-12+007099999V0200501N002612200019N0050001N1+00121-00021102671ADDAA106000091AY111031AY211031GF103991001001999999001041MA1999999101811MD1710021+9999MW1101REMSYN072AAXX  01034 47112 31950 30505 10012 21002 30181 40267 57002 71011 80004;EQDQ01  00002PRCP06
0183471120999992000010106004+37480+126630FM-12+007099999V0201401N002112200019N0120001N1+01001-00171102231ADDAA106000091GA1001+999999999GF100991001001999999001001MA1999999101401MD1710261+9999REMSYN070AAXX  01064 47112 32962 01404 10100 21017 30140 40223 57026 333 92022;EQDQ01  00002PRCP06
0163471120999992000010109004+37480+126630FM-12+007099999V0201401N002119999999N0100001N1+00851-00191102191ADDAA106000091GF107991021001999999031021MA1999999101361MD1710041+9999REMSYN066AAXX  01094 47112 32960 71404 10085 21019 30136 40219 57004 82032;EQDQ01  00002PRCP06
0198471120999992000010112004+37480+126630FM-12+007099999V0201401N005119999999N0150001N1+00881+00271102211ADDAA106000091GF108991999999008001999999IA2999+00609KA1120M+01151MA1999999101381MD1710081+9999REMSYN076AAXX  01124 47112 31565 81410 10088 20027 30138 40221 57008 333 10115 3/006;EQDQ01  00002PRCP06
0163471120999992000010118004+37480+126630FM-12+007099999V0201401N005110075019N0170001N1+00801+00371101821ADDAA106000091GF106991061051008001001999MA1999999100981MD1710261+9999REMSYN066AAXX  01184 47112 32567 61410 10080 20037 30098 40182 57026 8650/;EQDQ01  00002PRCP06
0161471120999992000010121004+37480+126630FM-12+007099999V0201601N007710075019N0100001N1+00741+00431101421ADDAY161031AY221031GF108991061071008001021999MA1999999100591MD1710391+9999MW1601REMSYN072AAXX  01214 47112 41560 81615 10074 20043 30059 40142 57039 76062 8672/;
0237471120999992000010200004+37480+126630FM-12+007099999V0202701N007210042019N0030001N1+00641+00601101481ADDAA112005191AY161061AY261061GF108991061071004501021999IA1019IA2999+00609KA1120N+00591MA1999999100641MD1010061+9999MW1611REMSYN106AAXX  02004 47112 11430 82714 10064 20060 30064 40148 50006 60052 76166 8672/ 333 20059 30006 70049 92022;
0141471120999992000010203004+37480+126630FM-12+007099999V0202901N008210075019N0060001N1+00561+00451101561ADDAY121031AY221031GF107991061051008001021001MA1999999100731MW1101REMSYN066AAXX  02034 47112 41556 72916 10056 20045 30073 40156 71022 86520;
0143471120999992000010206004+37480+126630FM-12+007099999V0203201N007212200019N0120001N1+00601+00061101491ADDGF102991021051008001001001MA1999999100661MD1810041+9999REMSYN076AAXX  02064 47112 42562 23214 10060 20006 30066 40149 58004 82500 333 9203/;
0173471120999992000010209004+37480+126630FM-12+007099999V0203201N007712200019N0150001N1+00391-00131101731ADDAA106000091GA1001+999999999GF100991001001999999001001MA1999999100881MD1210231+9999REMSYN060AAXX  02094 47112 32965 03215 10039 21013 30088 40173 52023;EQDQ01  00002PRCP06
0225471120999992000010212004+37480+126630FM-12+007099999V0202901N006712200019N0200001N1+00141-00041101691ADDAA112000891GA1001+999999999GF100991001001999999001001IA1099IA2999+00109KA1120M+00841MA1999999100851MD1710041+9999REMSYN100AAXX  02124 47112 12970 02913 10014 21004 30085 40169 57004 69982 333 10084 31001 55035 70057 92044;
0173471120999992000010215004+37480+126630FM-12+007099999V0203401N006212200019N0200001N1+00001-00271101901ADDAA106000091GA1001+999999999GF100991001001999999001001MA1999999101041MD1210101+9999REMSYN060AAXX  02154 47112 32970 03412 10000 21027 30104 40190 52010;EQDQ01  00002PRCP06
0173471120999992000010218004+37480+126630FM-12+007099999V0203401N004612200019N0200001N1-00151-00431102001ADDAA106000091GF104991041051008001001001MA1999999101141MD1210101+9999REMSYN076AAXX  02184 47112 32570 43409 11015 21043 30114 40200 52010 84500 333 92044;EQDQ01  00002PRCP06
0173471120999992000010221004+37480+126630FM-12+007099999V0203401N004612200019N0200001N1-00271-00431102001ADDAA106000091GA1001+999999999GF100991001001999999001001MA1999999101141MD1210041+9999REMSYN060AAXX  02214 47112 32970 03409 11027 21043 30114 40200 52004;EQDQ01  00002PRCP06
0232471120999992000010300004+37480+126630FM-12+007099999V0203201N003612200019N0150001N1-00301-00901102331ADDAA106000091GA1001+999999999GF100991001001999999001001IA1149IA2999-00309KA1120N-00341MA1999999101461MD1210151+9999REMSYN088AAXX  03004 47112 32965 03207 11030 21090 30146 40233 52015 333 21034 34103 70010 92033;EQDQ01  00002PRCP06
0173471120999992000010303004+37480+126630FM-12+007099999V0203201N003612200019N0150001N1-00121-00921102381ADDAA106000091GA1001+999999999GF100991001001999999001001MA1999999101511MD1310061+9999REMSYN060AAXX  03034 47112 32965 03207 11012 21092 30151 40238 53006;EQDQ01  00002PRCP06
0173471120999992000010306004+37480+126630FM-12+007099999V0203401N004619999999N0130001N1-00031-00861102321ADDAA106000091GF106991001001999999001021MA1999999101451MD1210031+9999REMSYN076AAXX  03064 47112 32963 63409 11003 21086 30145 40232 52003 80002 333 92022;EQDQ01  00002PRCP06
0163471120999992000010309004+37480+126630FM-12+007099999V0203201N001012200019N0140001N1-00151-00871102401ADDAA106000091GF101991001001999999001011MA1999999101541MD1210111+9999REMSYN066AAXX  03094 47112 32964 13202 11015 21087 30154 40240 52011 80001;EQDQ01  00002PRCP06
0232471120999992000010312004+37480+126630FM-12+007099999V0203401N002612200019N0120001N1-00231-00781102441ADDAA106000091GA1001+999999999GF100991001001999999001001IA1149IA2999-00509KA1120M+00091MA1999999101571MD1010031+9999REMSYN088AAXX  03124 47112 32962 03405 11023 21078 30157 40244 50003 333 10009 34105 55078 92011;EQDQ01  00002PRCP06
0173471120999992000010315004+37480+126630FM-12+007099999V0203601N002112200019N0120001N1-00241-00751102531ADDAA106000091GA1001+999999999GF100991001001999999001001MA1999999101661MD1210091+9999REMSYN060AAXX  03154 47112 32962 03604 11024 21075 30166 40253 52009;EQDQ01  00002PRCP06
0183471120999992000010318004+37480+126630FM-12+007099999V0203601N002112200019N0120001N1-00341-00771102551ADDAA106000091GA1001+999999999GF100991001001999999001001MA1999999101681MD1210021+9999REMSYN070AAXX  03184 47112 32962 03604 11034 21077 30168 40255 52002 333 92011;EQDQ01  00002PRCP06
0173471120999992000010321004+37480+126630FM-12+007099999V0203601N001012200019N0120001N1-00371-00741102521ADDAA106000091GA1001+999999999GF100991001001999999001001MA1999999101641MD1710031+9999REMSYN060AAXX  03214 47112 32962 03602 11037 21074 30164 40252 57003;EQDQ01  00002PRCP06
0226471120999992000010400004+37480+126630FM-12+007099999V0203201N002112200019N0120001N1-00351-00671102641ADDAA106000091GA1001+999999999GF100991001001999999001001IA1019IA2999-00309KA1120N-00411MA1999999101761MD1710111+9999REMSYN082AAXX  04004 47112 32962 03204 11035 21067 30176 40264 57011 333 21041 30103 92022;EQDQ01  00002PRCP06
0173471120999992000010403004+37480+126630FM-12+007099999V0201401N001012200019N0100001N1+00231-00681102621ADDAA106000091GA1001+999999999GF100991001001999999001001MA1999999101761MD1310021+9999REMSYN060AAXX  04034 47112 32960 01402 10023 21068 30176 40262 53002;EQDQ01  00002PRCP06
0163471120999992000010409004+37480+126630FM-12+007099999V0203201N001510075019N0070001N1+00221-00501102461ADDAA106000091GF108991071051008001011999MA1999999101601MD1010001+9999REMSYN066AAXX  04094 47112 31557 83203 10022 21050 30160 40246 50000 8751/;EQDQ01  00002PRCP06
0250471120999992000010412004+37480+126630FM-12+007099999V0203401N001510075019N0070001N1+00201-00461102431ADDAA106000091AY121061AY221061GF106991061051008001001001IA1099IA2999+00109KA1120M+00421MA1999999101571MD1710031+9999MW1101REMSYN100AAXX  04124 47112 31557 63403 10020 21046 30157 40243 57003 71022 86500 333 10042 31001 55043 92011;EQDQ01  00002PRCP06
0191471120999992000010415004+37480+126630FM-12+007099999V0200201N002610075019N0120001N1+00141-00521102351ADDAA106000091AY121031AY221031GF108991051051008001011999MA1999999101491MD1710081+9999MW1101REMSYN072AAXX  04154 47112 31562 80205 10014 21052 30149 40235 57008 71022 8551/;EQDQ01  00002PRCP06
0201471120999992000010418004+37480+126630FM-12+007099999V0200201N003110075019N0080001N1+00161-00511102321ADDAA106000091AY121061AY221061GF108991061051008001011999MA1999999101461MD1810031+9999MW1101REMSYN082AAXX  04184 47112 31558 80206 10016 21051 30146 40232 58003 71022 8651/ 333 92022;EQDQ01  00002PRCP06
0161471120999992000010421004+37480+126630FM-12+007099999V0200901N003610075019N0040001N1+00231-00141102211ADDAY171031AY271031GF108991061071008001021999MA1999999101361MD1810101+9999MW1711REMSYN072AAXX  04214 47112 41540 80907 10023 21014 30136 40221 58010 77177 8672/;
0260471120999992000010500004+37480+126630FM-12+007099999V0200901N003610075019N0020001N1+00151+00121102131ADDAA112005191AJ100149199999999AY171061AY261061GF108991061071008001021999IA1099IA2999+00109KA1120N+00101MA1999999101271MD1710091+9999MW1611REMSYN112AAXX  05004 47112 11520 80907 10015 20012 30127 40213 57009 60052 76176 8672/ 333 20010 31001 41014 70051 92022;
0161471120999992000010503004+37480+126630FM-12+007099999V0200701N003110075019N0020001N1+00261+00211101991ADDAY161031AY261031GF108991061071008001021999MA1999999101141MD1710131+9999MW1611REMSYN072AAXX  05034 47112 41520 80706 10026 20021 30114 40199 57013 76166 8672/;
0161471120999992000010506004+37480+126630FM-12+007099999V0201101N005710075019N0080001N1+00441+00401101521ADDAY161061AY221061GF107991051051008001011001MA1999999100681MD1710361+9999MW1211REMSYN072AAXX  05064 47112 41558 71111 10044 20040 30068 40152 57036 72162 85510;
0161471120999992000010509004+37480+126630FM-12+007099999V0200901N003610075019N0030001N1+00531+00431101631ADDAY161031AY261031GF108991061071008001021999MA1999999100791MD1710111+9999MW1601REMSYN072AAXX  05094 47112 41530 80907 10053 20043 30079 40163 57011 76066 8672/;
0243471120999992000010512004+37480+126630FM-12+007099999V0200701N004610075019N0035001N1+00561+00441101551ADDAA112009991AY161061AY261061GF108991061071008001021999IA1099IA2999+00409KA1120M+00611MA1999999100711MD1710071+9999MW1601REMSYN112AAXX  05124 47112 11535 80709 10056 20044 30071 40155 57007 60102 76066 8672/ 333 10061 31004 55000 70153 92022;
0161471120999992000010515004+37480+126630FM-12+007099999V0200901N003610075019N0030001N1+00561+00531101301ADDAY161031AY261031GF108991061051008001021999MA1999999100461MD1710201+9999MW1611REMSYN072AAXX  05154 47112 41530 80907 10056 20053 30046 40130 57020 76166 8652/;
0161471120999992000010521004+37480+126630FM-12+007099999V0202901N002610360019N0035001N1+00381+00371101191ADDAY161031AY261031GF108991041051008001011999MA1999999100351MD1810061+9999MW1211REMSYN072AAXX  05214 47112 41535 82905 10038 20037 30035 40119 58006 72166 8451/;
0144471120999992000010603004+37480+126630FM-12+007099999V0203201N007710075019N0140001N1+00531+00241101621ADDAA106000021GF108991061051008001011999MA1999999100781MD1210121+9999REMSYN066AAXX  06034 47112 31564 83215 10053 20024 30078 40162 52012 8651/;
0163471120999992000010606004+37480+126630FM-12+007099999V0202901N009810360019N0100001N1+00351+00001101581ADDAA106000091GF108991041051008001011999MA1999999100731MD1710051+9999REMSYN066AAXX  06064 47112 32560 82919 10035 20000 30073 40158 57005 8451/;EQDQ01  00002PRCP06
0163471120999992000010609004+37480+126630FM-12+007099999V0203201N009812200019N0100001N1+00021-00621101891ADDAA106000091GF104991031051008001001011MA1999999101031MD1210301+9999REMSYN066AAXX  06094 47112 32560 43219 10002 21062 30103 40189 52030 83501;EQDQ01  00002PRCP06
0228471120999992000010612004+37480+126630FM-12+007099999V0203201N009310075019N0100001N1-00121-00901102061ADDAA106000091GF106991051051008001031001IA1099IA2999-00209KA1120M+00591MA1999999101201MD1210161+9999REMSYN100AAXX  06124 47112 32560 63218 11012 21090 30120 40206 52016 85530 333 10059 31102 55004 70138 92022;EQDQ01  00002PRCP06
0161471120999992000010615004+37480+126630FM-12+007099999V0203401N008210075019N0050001N1-00371-00811102061ADDAY171031AY221031GF108991061071008001021999MA1999999101191MD1010011+9999MW1711REMSYN072AAXX  06154 47112 41550 83416 11037 21081 30119 40206 50001 77172 8672/;
0143471120999992000010621004+37480+126630FM-12+007099999V0203601N003112200019N0120001N1-01051-01761102491ADDGA1001+999999999GF100991001001999999001001MA1999999101591MD1210151+9999REMSYN060AAXX  06214 47112 42962 03606 11105 21176 30159 40249 52015;
0209471120999992000010700004+37480+126630FM-12+007099999V0200501N003112200019N0200001N1-01091-01961102691ADDAA112000791GF102991021051008001001001IA1099IA2999-01009KA1120N-01121MA1999999101781MD1210191+9999REMSYN100AAXX  07004 47112 32570 20506 11109 21196 30178 40269 52019 69902 82500 333 21112 31110 79999 92022;
0173471120999992000010703004+37480+126630FM-12+007099999V0203401N002612200019N0200001N1-00791-01791102721ADDAA106000091GA1001+999999999GF100991001001999999001001MA1999999101821MD1710031+9999REMSYN060AAXX  07034 47112 32970 03405 11079 21179 30182 40272 57003;EQDQ01  00002PRCP06
0173471120999992000010706004+37480+126630FM-12+007099999V0203401N002610360019N0250001N1-00791-01791102721ADDAA106000091GF106991031051008001061001MA1999999101821MD1210031+9999REMSYN076AAXX  07064 47112 32575 63405 11079 21179 30182 40272 52003 83560 333 92033;EQDQ01  00002PRCP06
0163471120999992000010709004+37480+126630FM-12+007099999V0202501N001512200019N0150001N1-00681-01141102431ADDAA106000091GF101991011001999999041001MA1999999101541MD1810011+9999REMSYN066AAXX  07094 47112 32965 12503 11068 21114 30154 40243 58001 81040;EQDQ01  00002PRCP06
0209471120999992000010712004+37480+126630FM-12+007099999V0201601N003112200019N0180001N1-00601-01041102341ADDAA100000091GF102991021001999999041001IA1149IA2999-00709MA1999999101451MD1710091+9999REMSYN094AAXX  07124 47112 32968 21606 11060 21104 30145 40234 57009 6//// 82040 333 34107 55060 92022;EQDQ01  00002PRCP00
0180471120999992000010715004+37480+126630FM-12+007099999V0201601N003110075019N0060001N1-00581-00881102341ADDAY171031AY271031GF108991061071008001021999MA1999999101461MD1410001+9999MW1711REMSYN072AAXX  07154 47112 41556 81606 11058 21088 30146 40234 57000 77177 8672/;EQDQ01+000072APCTEN
0171471120999992000010718004+37480+126630FM-12+007099999V0201401N002610075019N0080001N1-00581-00751102311ADDAY171061AY271061GF106991051051008001011001MA1999999101431MD1710021+9999MW1711REMSYN082AAXX  07184 47112 41558 61405 11058 21075 30143 40231 57002 77177 85510 333 92022;
0161471120999992000010721004+37480+126630FM-12+007099999V0201401N002610075019N0050001N1-00471-00581102291ADDAY171031AY271031GF108991061071008001021999MA1999999101421MD1010021+9999MW1711REMSYN072AAXX  07214 47112 41550 81405 11047 21058 30142 40229 50002 77177 8672/;
0260471120999992000010800004+37480+126630FM-12+007099999V0201101N002610075019N0030001N1-00361-00471102361ADDAA112004191AJ100519199999999AY171061AY221061GF108991061071008001021999IA1099IA2999+00009KA1120N-00611MA1999999101491MD1210071+9999MW1711REMSYN112AAXX  08004 47112 11530 81105 11036 21047 30149 40236 52007 60042 77172 8672/ 333 21061 31000 41051 70046 92022;
0133471120999992000010803004+37480+126630FM-12+007099999V0203201N002610075019N0130001N1-00151-00481102421ADDGF105991051051008001001001MA1999999101551MD1310071+9999REMSYN066AAXX  08034 47112 42563 53205 11015 21048 30155 40242 53007 85500;
0153471120999992000010806004+37480+126630FM-12+007099999V0203201N002612200019N0250001N1-00011-00521102341ADDGA1001+999999999GF100991001001999999001001MA1999999101471MD1210081+9999REMSYN070AAXX  08064 47112 42975 03205 11001 21052 30147 40234 52008 333 92022;
0153471120999992000010809004+37480+126630FM-12+007099999V0203201N002612200019N0250001N1-00011-00521102341ADDAA106000091GA1001+999999999GF100991001001999999001001MA1999999101471REMSYN054AAXX  08094 47112 32975 03205 11001 21052 30147 40234;EQDQ01  00002PRCP06
0244471120999992000010812004+37480+126630FM-12+007099999V0203201N002612200019N0250001N1-00011-00521102341ADDAA106000091GA1001+999999999GF100991001001999999001001IA1149IA2999+00609KA1120M+00051MA1999999101471MD1410001+9999REMSYN100AAXX  08124 47112 32975 03205 11001 21052 30147 40234 54000 333 10005 34006 44/// 55055 70001 92022;EQDQ01  00002PRCP06
0189471120999992000010815004+37480+126630FM-12+007099999V0200901N003112200019N0200001N1-00301-00711102531ADDAA106000091GA1001+999999999GF100991001001999999001001MA1999999101651MD1710191+9999REMSYN060AAXX  08154 47112 32970 00906 11030 21071 30165 40253 57000;EQDQ01+000002APC3  Q02  00002PRCP06
0183471120999992000010818004+37480+126630FM-12+007099999V0209999C000012200019N0200001N1-00311-00771102501ADDAA106000091GA1001+999999999GF100991001001999999001001MA1999999101631MD1010031+9999REMSYN070AAXX  08184 47112 32970 00000 11031 21077 30163 40250 50003 333 92022;EQDQ01  00002PRCP06
0173471120999992000010821004+37480+126630FM-12+007099999V0200501N002112200019N0200001N1-00401-00621102491ADDAA106000091GA1001+999999999GF100991001001999999001001MA1999999101611MD1710021+9999REMSYN060AAXX  08214 47112 32970 00504 11040 21062 30161 40249 57002;EQDQ01  00002PRCP06
0216471120999992000010900004+37480+126630FM-12+007099999V0200901N002619999999N0100001N1-00321-00691102411ADDAA106000091GF106991001001999999001021IA1149IA2999-00409KA1120N-00421MA1999999101541MD1710181+9999REMSYN088AAXX  09004 47112 32960 60905 11032 21069 30154 40241 57018 80002 333 21042 34104 92022;EQDQ01  00002PRCP06
0163471120999992000010903004+37480+126630FM-12+007099999V0200901N003119999999N0120001N1+00061-00671102361ADDAA106000091GF106991001001999999001021MA1999999101501MD1310041+9999REMSYN066AAXX  09034 47112 32962 60906 10006 21067 30150 40236 53004 80002;EQDQ01  00002PRCP06
0163471120999992000010909004+37480+126630FM-12+007099999V0203201N002110360019N0130001N1+00081-00551102081ADDAA106000091GF108991031051008001011999MA1999999101221MD1710061+9999REMSYN066AAXX  09094 47112 32563 83204 10008 21055 30122 40208 57006 8351/;EQDQ01  00002PRCP06
0222471120999992000010912004+37480+126630FM-12+007099999V0201401N000510360019N0120001N1+00091-00471102101ADDAA106000091GF108991041051008001021999IA1099IA2999+00009KA1120M+00251MA1999999101251MD1310021+9999REMSYN094AAXX  09124 47112 32562 81401 10009 21047 30125 40210 53002 8452/ 333 10025 31100 55020 92011;EQDQ01  00002PRCP06
0161471120999992000010915004+37480+126630FM-12+007099999V0203201N001510075019N0100001N1+00081-00311102131ADDAY171031AY221031GF108991061051008001011999MA1999999101271MD1210031+9999MW1221REMSYN072AAXX  09154 47112 41560 83203 10008 21031 30127 40213 52003 72272 8651/;
0143471120999992000010918004+37480+126630FM-12+007099999V0201801N003110075019N0100001N1+00111-00201102131ADDGF107991061051008001011001MA1999999101271MD1010001+9999REMSYN076AAXX  09184 47112 42560 71806 10011 21020 30127 40213 50000 86510 333 92011;
0161471120999992000010921004+37480+126630FM-12+007099999V0203601N003110075019N0080001N1+00011-00181102291ADDAY171031AY221031GF106991061051008001011001MA1999999101431MD1210151+9999MW1221REMSYN072AAXX  09214 47112 41558 63606 10001 21018 30143 40229 52015 72272 86510;
0219471120999992000011000004+37480+126630FM-12+007099999V0203401N005112200019N0100001N1-00081-00381102531ADDAA112000191GA1001+999999999GF100991001001999999001001IA1149IA2999-00209KA1120N-00081MA1999999101661MD1210241+9999REMSYN094AAXX  10004 47112 12960 03410 11008 21038 30166 40253 52024 69912 333 21008 34102 70001 92022;
0154471120999992000011003004+37480+126630FM-12+007099999V0203201N006712200019N0200001N1+00071-00801102691ADDAA106000021GA1001+999999999GF100991001001999999001001MA1999999101831MD1310151+9999REMSYN060AAXX  10034 47112 32970 03213 10007 21080 30183 40269 53015;
0183471120999992000011006004+37480+126630FM-12+007099999V0203201N003612200019N0250001N1+00181-00931102611ADDAA106000091GA1001+999999999GF100991001001999999001001MA1999999101751MD1710081+9999REMSYN070AAXX  10064 47112 32975 03207 10018 21093 30175 40261 57008 333 92011;EQDQ01  00002PRCP06
0173471120999992000011009004+37480+126630FM-12+007099999V0203401N005112200019N0220001N1-00061-00881102741ADDAA106000091GA1001+999999999GF100991001001999999001001MA1999999101871MD1210121+9999REMSYN060AAXX  10094 47112 32972 03410 11006 21088 30187 40274 52012;EQDQ01  00002PRCP06
0232471120999992000011012004+37480+126630FM-12+007099999V0203401N004112200019N0150001N1-00291-00841102911ADDAA106000091GA1001+999999999GF100991001001999999001001IA1099IA2999-00509KA1120M+00191MA1999999102031MD1210161+9999REMSYN088AAXX  10124 47112 32965 03408 11029 21084 30203 40291 52016 333 10019 31105 70001 92033;EQDQ01  00002PRCP06
0173471120999992000011015004+37480+126630FM-12+007099999V0203401N003112200019N0130001N1-00481-00961102911ADDAA106000091GA1001+999999999GF100991001001999999001001MA1999999102021MD1510011+9999REMSYN060AAXX  10154 47112 32963 03406 11048 21096 30202 40291 55001;EQDQ01  00002PRCP06
0183471120999992000011018004+37480+126630FM-12+007099999V0200201N002612200019N0110001N1-00511-00971102891ADDAA106000091GA1001+999999999GF100991001001999999001001MA1999999102001MD1810021+9999REMSYN070AAXX  10184 47112 32961 00205 11051 21097 30200 40289 58002 333 92011;EQDQ01  00002PRCP06
0173471120999992000011021004+37480+126630FM-12+007099999V0200201N002612200019N0100001N1-00601-00911102841ADDAA106000091GA1001+999999999GF100991001001999999001001MA1999999101951MD1510051+9999REMSYN060AAXX  10214 47112 32960 00205 11060 21091 30195 40284 55005;EQDQ01  00002PRCP06
0216471120999992000011100004+37480+126630FM-12+007099999V0200201N002112200019N0100001N1-00521-00851102901ADDAA106000091GF103991001001999999001011IA1099IA2999-00509KA1120N-00641MA1999999102021MD1310071+9999REMSYN088AAXX  11004 47112 32960 30204 11052 21085 30202 40290 53007 80001 333 21064 31105 92011;EQDQ01  00002PRCP06
0183471120999992000011103004+37480+126630FM-12+007099999V0200901N003619999999N0080001N1+00231-00801102761ADDAA106000091AY121031GF105991001001999999001011MA1999999101901MD1710111+9999MW1101REMSYN072AAXX  11034 47112 32958 50907 10023 21080 30190 40276 57011 7102/ 80001;EQDQ01  00002PRCP06
0173471120999992000011106004+37480+126630FM-12+007099999V0200901N003110360019N0100001N1+00491-00671102561ADDAA106000091GF108991021051008001011999MA1999999101711MD1810191+9999REMSYN076AAXX  11064 47112 32560 80906 10049 21067 30171 40256 58019 8251/ 333 92011;EQDQ01  00002PRCP06
0163471120999992000011109004+37480+126630FM-12+007099999V0200701N003110360019N0120001N1+00401-00491102531ADDAA106000091GF108991041051008001011999MA1999999101681MD1810031+9999REMSYN066AAXX  11094 47112 32562 80706 10040 21049 30168 40253 58003 8451/;EQDQ01  00002PRCP06
0222471120999992000011112004+37480+126630FM-12+007099999V0200901N004110075019N0120001N1+00461-00511102461ADDAA106000091GF108991061051008001021999IA1099IA2999+00309KA1120M+00491MA1999999101611MD1710071+9999REMSYN094AAXX  11124 47112 32562 80908 10046 21051 30161 40246 57007 8652/ 333 10049 31003 55054 92022;EQDQ01  00002PRCP06
0163471120999992000011115004+37480+126630FM-12+007099999V0200701N002610075019N0120001N1+00341-00361102501ADDAA106000091GF108991061051008001021999MA1999999101651MD1310041+9999REMSYN066AAXX  11154 47112 32562 80705 10034 21036 30165 40250 53004 8652/;EQDQ01  00002PRCP06
0173471120999992000011118004+37480+126630FM-12+007099999V0200901N004119999999N0120001N1+00371-00291102321ADDAA106000091GF106991061051999999001001MA1999999101471MD1710181+9999REMSYN076AAXX  11184 47112 32962 60908 10037 21029 30147 40232 57018 86500 333 92022;EQDQ01  00002PRCP06
0163471120999992000011121004+37480+126630FM-12+007099999V0200701N003110075019N0120001N1+00401-00201102141ADDAA106000091GF108991051051008001021999MA1999999101291MD1710181+9999REMSYN066AAXX  11214 47112 32562 80706 10040 21020 30129 40214 57018 8552/;EQDQ01  00002PRCP06
0216471120999992000011200004+37480+126630FM-12+007099999V0203201N002110075019N0120001N1+00261-00151102181ADDAA106000091GF108991061051008001011999IA1099IA2999+00209KA1120N+00221MA1999999101331MD1210031+9999REMSYN088AAXX  12004 47112 31562 83204 10026 21015 30133 40218 52003 8651/ 333 20022 31002 92011;EQDQ01  00002PRCP06
0161471120999992000011203004+37480+126630FM-12+007099999V0200501N002610075019N0100001N1+00411+00031102171ADDAY161031AY261031GF108991061071008001021999MA1999999101321MD1710051+9999MW1601REMSYN072AAXX  12034 47112 41560 80505 10041 20003 30132 40217 57005 76066 8672/;
0171471120999992000011206004+37480+126630FM-12+007099999V0200901N004110075019N0100001N1+00451+00291101801ADDAY161061AY261061GF108991061071008001021999MA1999999100951MD1710051+9999MW1611REMSYN082AAXX  12064 47112 41560 80908 10045 20029 30095 40180 57005 76166 8672/ 333 92033;
0161471120999992000011209004+37480+126630FM-12+007099999V0200901N003610075019N0080001N1+00421+00331101721ADDAY161031AY261031GF108991061071008001021999MA1999999100881MD1710081+9999MW1611REMSYN072AAXX  12094 47112 41558 80907 10042 20033 30088 40172 57008 76166 8672/;
0243471120999992000011212004+37480+126630FM-12+007099999V0202701N001510075019N0050001N1+00361+00331101681ADDAA112004191AY161061AY261061GF108991061071008001021999IA1099IA2999+00309KA1120M+00501MA1999999100831MD1710051+9999MW1611REMSYN112AAXX  12124 47112 11550 82703 10036 20033 30083 40168 57005 60042 76166 8672/ 333 10050 31003 55000 70046 92011;
0161471120999992000011215004+37480+126630FM-12+007099999V0202901N003110075019N0070001N1+00231+00221101551ADDAY161031AY261031GF108991061071008001021999MA1999999100701MD1710131+9999MW1611REMSYN072AAXX  12154 47112 41557 82906 10023 20022 30070 40155 57013 76166 8672/;
0171471120999992000011218004+37480+126630FM-12+007099999V0203201N001510075019N0080001N1+00231+00231101531ADDAY161061AY221061GF108991061051008001021999MA1999999100681MD1510031+9999MW1211REMSYN082AAXX  12184 47112 41558 83203 10023 20023 30068 40153 55003 72162 8652/ 333 92011;
0161471120999992000011221004+37480+126630FM-12+007099999V0203201N000510075019N0080001N1+00241+00231101491ADDAY121031AY221031GF108991061051008001011999MA1999999100651MD1810031+9999MW1101REMSYN072AAXX  12214 47112 41558 83201 10024 20023 30065 40149 58003 71022 8651/;
0237471120999992000011300004+37480+126630FM-12+007099999V0203201N004610075019N0035001N1+00221+00191101551ADDAA112000591AY121061AY221061GF108991061051008001021999IA1099IA2999+00209KA1120N+00221MA1999999100701MD1710061+9999MW1101REMSYN106AAXX  13004 47112 11535 83209 10022 20019 30070 40155 57006 69942 71022 8652/ 333 20022 31002 70022 92022;
0180471120999992000011303004+37480+126630FM-12+007099999V0202901N006710075019N0035001N1+00211+00071101601ADDAY161031AY261031GF108991999061008001051021MA1999999100751MD1310031+9999MW1601REMSYN072AAXX  13034 47112 41535 82913 10021 20007 30075 40160 53003 76066 88652;EQDQ01+000082SCOTLC
0171471120999992000011306004+37480+126630FM-12+007099999V0202901N006210075019N0050001N1+00161-00151101581ADDAY121061AY221061GF108991051051008001021999MA1999999100731MD1810021+9999MW1101REMSYN082AAXX  13064 47112 41550 82912 10016 21015 30073 40158 58002 71022 8552/ 333 92033;
0161471120999992000011309004+37480+126630FM-12+007099999V0202901N006210075019N0090001N1+00031-00421101751ADDAY121031AY221031GF108991051051008001021999MA1999999100891MD1210171+9999MW1101REMSYN072AAXX  13094 47112 41559 82912 10003 21042 30089 40175 52017 71022 8552/;
0237471120999992000011312004+37480+126630FM-12+007099999V0203401N004610075019N0080001N1-00061-00391101921ADDAA112000791AY121061AY221061GF108991051051008001021999IA1099IA2999-00109KA1120M+00271MA1999999101061MD1210171+9999MW1101REMSYN106AAXX  13124 47112 41558 83409 11006 21039 30106 40192 52017 69902 71022 8552/ 333 10027 31101 70004 92033;
0191471120999992000011315004+37480+126630FM-12+007099999V0203401N002110360019N0090001N1-00111-00451101981ADDAA106000091AY121031AY221031GF108991021051008001011999MA1999999101111MD1210051+9999MW1101REMSYN072AAXX  13154 47112 32559 83404 11011 21045 30111 40198 52005 71022 8251/;EQDQ01  00002PRCP06
0201471120999992000011318004+37480+126630FM-12+007099999V0203401N000510360019N0090001N1-00151-00431102081ADDAA106000091AY121061AY221061GF108991021051008001011999MA1999999101211MD1210101+9999MW1101REMSYN082AAXX  13184 47112 31559 83401 11015 21043 30121 40208 52010 71022 8251/ 333 92000;EQDQ01  00002PRCP06
0195471120999992000011321004+37480+126630FM-12+007099999V0200201N001010360019N0090001N1-00151-00491102141ADDAA199000091AY121031AY221031GF108991031051008001011999MA1999999101271MD1010061+9999MW1101REMSYN076    AAXX  13214 47112 31559 80202 11015 21049 30127 40214 50006 71022 8351/;EQDQ01  00002PRCP99
0248471120999992000011400004+37480+126630FM-12+007099999V0201601N001010360019N0090001N1-00081-00471102241ADDAA199000091AY121061AY221061GF108991021051008001021999IA1099IA2999+00009KA1120N-00161MA1999999101381MD1210101+9999MW1101REMSYN098    AAXX  14004 47112 31559 81602 11008 21047 30138 40224 52010 71022 8252/ 333 21016 31100 92011;EQDQ01  00002PRCP99
0165471120999992000011403004+37480+126630FM-12+007099999V0202701N002610075019N0050001N1-00021-00331102291ADDAY171031AY221031GF108991061051008001021999MA1999999101431MD1310051+9999MW1221REMSYN076    AAXX  14034 47112 41550 82705 11002 21033 30143 40229 53005 72272 8652/;
0175471120999992000011406004+37480+126630FM-12+007099999V0203201N004110075019N0090001N1+00041-00371102241ADDAY121061AY221061GF108991051051008001021999MA1999999101371MD1010061+9999MW1101REMSYN086    AAXX  14064 47112 41559 83208 10004 21037 30137 40224 50006 71022 8552/ 333 92011;
0176471120999992000011409004+37480+126630FM-12+007099999V0203201N004110360019N0050001N1-00021-00461102411ADDAA199000021AY121031AY221031GF108991041051008001011999MA1999999101541MD1210231+9999MW1101REMSYN076    AAXX  14094 47112 31550 83208 11002 21046 30154 40241 52023 71022 8451/;
0247471120999992000011412004+37480+126630FM-12+007099999V0200201N001510075019N0050001N1-00061-00581102531ADDAA124000791AY121061AY221061GF107991051051008001011001IA1019IA2999-00209KA1120M+00101MA1999999101661MD1310111+9999MW1101REMSYN116    AAXX  14124 47112 31550 70203 11006 21058 30166 40253 53011 71022 85510 333 10010 30102 44/// 55000 79999 92022;
0176471120999992000011415004+37480+126630FM-12+007099999V0203201N004112200019N0050001N1-00021-00461102411ADDAA199000021AY111031AY211031GF102991021051008001001001MA1999999101541MD1210021+9999MW1101REMSYN076    AAXX  14154 47112 31550 23208 11002 21046 30154 40241 52002 71011 82500;
0187471120999992000011418004+37480+126630FM-12+007099999V0200201N001512200019N0100001N1-00171-00651102571ADDAA199000091GA1001+999999999GF100991001001999999001001MA1999999101701MD1210021+9999REMSYN074    AAXX  14184 47112 32960 00203 11017 21065 30170 40257 52002 333 92033;EQDQ01  00002PRCP99
0205471120999992000011421004+37480+126630FM-12+007099999V0203601N002112200019N0050001N1-00361-00671102651ADDAA199000091AY101031AY201031GA1001+999999999GF100991001001999999001001MA1999999101781MD1010051+9999MW1101REMSYN070    AAXX  14214 47112 31950 03604 11036 21067 30178 40265 50005 71000;EQDQ01  00002PRCP99
0241471120999992000011500004+37480+126630FM-12+007099999V0203401N002119999999N0090001N1-00251-00601102761ADDAA124000021AY121061AY221061GF107991001001999999001011IA1149IA2999+00009KA1120N-00371MA1999999101881MD1210111+9999MW1101REMSYN110    AAXX  15004 47112 32959 73404 11025 21060 30188 40276 52011 71022 80001 333 21037 34100 44/// 70000 92011;
0167471120999992000011503004+37480+126630FM-12+007099999V0203601N002619999999N0100001N1+00021-00621102701ADDAA199000091GF106991051001999999041011MA1999999101831MD1310051+9999REMSYN070    AAXX  15034 47112 32960 63605 10002 21062 30183 40270 53005 85041;EQDQ01  00002PRCP99
0205471120999992000011506004+37480+126630FM-12+007099999V0203401N004119999999N0090001N1+00191-00431102441ADDAA199000091AY121061AY221061GF105991001001999999001011MA1999999101581MD1710251+9999MW1101REMSYN086    AAXX  15064 47112 31959 53408 10019 21043 30158 40244 57025 71022 80001 333 92011;EQDQ01  00002PRCP99
0167471120999992000011509004+37480+126630FM-12+007099999V0203401N002619999999N0100001N1+00051-00551102501ADDAA199000091GF105991001001999999001011MA1999999101631MD1010051+9999REMSYN070    AAXX  15094 47112 32960 53405 10005 21055 30163 40250 50005 80001;EQDQ01  00002PRCP99
0226471120999992000011512004+37480+126630FM-12+007099999V0203401N003112200019N0100001N1-00101-00451102561ADDAA199000091GF102991001001999999001011IA1099IA2999-00309KA1120M+00251MA1999999101691MD1310051+9999REMSYN098    AAXX  15124 47112 32960 23406 11010 21045 30169 40256 53005 80001 333 10025 31103 55062 92011;EQDQ01  00002PRCP99
0195471120999992000011515004+37480+126630FM-12+007099999V0203201N003619999999N0090001N1-00131-00391102531ADDAA199000091AY121031AY221031GF106991001001999999001011MA1999999101661MD1710021+9999MW1101REMSYN076    AAXX  15154 47112 31959 63207 11013 21039 30166 40253 57002 71022 80001;EQDQ01  00002PRCP99
0205471120999992000011518004+37480+126630FM-12+007099999V0203201N003119999999N0080001N1-00161-00451102511ADDAA199000091AY121061AY221061GF105991001001999999001011MA1999999101641MD1010031+9999MW1101REMSYN086    AAXX  15184 47112 31958 53206 11016 21045 30164 40251 50003 71022 80001 333 92011;EQDQ01  00002PRCP99
0211471120999992000011521004+37480+126630FM-12+007099999V0203601N002612200019N0080001N1-00221-00461102421ADDAA199000091AY121031AY221031GF104991001001999999001011MA1999999101551MD1710091+9999MW1101REMSYN076    AAXX  15214 47112 31558 43605 11022 21046 30155 40242 57009 71022 80001;EQDQ01+008002SCOLCBQ02  00002PRCP99
0264471120999992000011600004+37480+126630FM-12+007099999V0203401N002612200019N0050001N1-00221-00401102521ADDAA199000091AY101061AY201061GA1001+999999999GF100991001001999999001001IA1019IA2999-00109KA1120N-00291MA1999999101641MD1210101+9999MW1101REMSYN098    AAXX  16004 47112 31950 03405 11022 21040 30164 40252 52010 71000 333 21029 30101 44/// 92033;EQDQ01  00002PRCP99
0177471120999992000011603004+37480+126630FM-12+007099999V0203401N003112200019N0150001N1+00151-00401102401ADDAA199000091GA1001+999999999GF100991001001999999001001MA1999999101541MD1710101+9999REMSYN064    AAXX  16034 47112 32965 03406 10015 21040 30154 40240 57010;EQDQ01  00002PRCP99
0177471120999992000011606004+37480+126630FM-12+007099999V0203401N002619999999N0250001N1-00281-00431102501ADDAA199000091GF106991001001999999001021MA1999999101631MD1710031+9999REMSYN080    AAXX  16064 47112 32975 63405 11028 21043 30163 40250 57003 80002 333 92033;EQDQ01  00002PRCP99
0167471120999992000011609004+37480+126630FM-12+007099999V0203401N003119999999N0170001N1+00151-00531102241ADDAA199000091GF106991001001999999001011MA1999999101381MD1810011+9999REMSYN070    AAXX  16094 47112 32967 63406 10015 21053 30138 40224 58001 80001;EQDQ01  00002PRCP99
0236471120999992000011612004+37480+126630FM-12+007099999V0203401N003112200019N0110001N1-00041-00531102271ADDAA199000091GA1001+999999999GF100991001001999999001001IA1149IA2999-00309KA1120M+00401MA1999999101411MD1810021+9999REMSYN092    AAXX  16124 47112 32961 03406 11004 21053 30141 40227 58002 333 10040 34103 44/// 92022;EQDQ01  00002PRCP99
0177471120999992000011615004+37480+126630FM-12+007099999V0200201N002612200019N0100001N1-00261-00741102231ADDAA199000091GA1001+999999999GF100991001001999999001001MA1999999101361MD1310041+9999REMSYN064    AAXX  16154 47112 32960 00205 11026 21074 30136 40223 53004;EQDQ01  00002PRCP99
0215471120999992000011618004+37480+126630FM-12+007099999V0203401N002112200019N0080001N1-00351-00681102211ADDAA199000091AY101061AY201061GA1001+999999999GF100991001001999999001001MA1999999101341MD1510031+9999MW1101REMSYN080    AAXX  16184 47112 31958 03404 11035 21068 30134 40221 55003 71000 333 92022;EQDQ01  00002PRCP99
0205471120999992000011621004+37480+126630FM-12+007099999V0203401N002612200019N0060001N1-00451-00691102151ADDAA199000091AY101031AY201031GA1001+999999999GF100991001001999999001001MA1999999101271MD1710061+9999MW1101REMSYN070    AAXX  16214 47112 31956 03405 11045 21069 30127 40215 57006 71000;EQDQ01  00002PRCP99
0248471120999992000011700004+37480+126630FM-12+007099999V0202901N000519999999N0050001N1-00331-00571102271ADDAA199000091AY121061AY221061GF107991021001999999041011IA1099IA2999-00209KA1120N-00471MA1999999101391MD1210121+9999MW1101REMSYN098    AAXX  17004 47112 31950 72901 11033 21057 30139 40227 52012 71022 82041 333 21047 31102 92011;EQDQ01  00002PRCP99
0167471120999992000011703004+37480+126630FM-12+007099999V0203201N002619999999N0100001N1+00071-00481102201ADDAA199000091GF105991001001999999001011MA1999999101341MD1510051+9999REMSYN070    AAXX  17034 47112 32960 53205 10007 21048 30134 40220 55005 80001;EQDQ01  00002PRCP99
0187471120999992000011706004+37480+126630FM-12+007099999V0203201N003612200019N0100001N1+00241-00511102031ADDAA199000091GA1001+999999999GF100991001001999999001001MA1999999101171MD1810161+9999REMSYN074    AAXX  17064 47112 32960 03207 10024 21051 30117 40203 58016 333 92011;EQDQ01  00002PRCP99
0177471120999992000011709004+37480+126630FM-12+007099999V0203201N004612200019N0100001N1+00081-00481102151ADDAA199000091GA1001+999999999GF100991001001999999001001MA1999999101291MD1210121+9999REMSYN064    AAXX  17094 47112 32960 03209 10008 21048 30129 40215 52012;EQDQ01  00002PRCP99
0242471120999992000011712004+37480+126630FM-12+007099999V0203401N003612200019N0120001N1-00081-00551102181ADDAA199000091GA1001+999999999GF100991001001999999001001IA1019IA2999-00309KA1120M+00301MA1999999101321MD1310021+9999REMSYN098    AAXX  17124 47112 32962 03407 11008 21055 30132 40218 53002 333 10030 30103 44/// 55074 92033;EQDQ01  00002PRCP99
0177471120999992000011715004+37480+126630FM-12+007099999V0203401N002612200019N0120001N1-00281-00651102231ADDAA199000091GA1001+999999999GF100991001001999999001001MA1999999101361MD1710081+9999REMSYN064    AAXX  17154 47112 32962 03405 11028 21065 30136 40223 57008;EQDQ01  00002PRCP99
0177471120999992000011721004+37480+126630FM-12+007099999V0203201N002612200019N0100001N1-00441-00791102191ADDAA199000091GA1001+999999999GF100991001001999999001001MA1999999101321MD1810061+9999REMSYN064    AAXX  17214 47112 32960 03205 11044 21079 30132 40219 58006;EQDQ01  00002PRCP99
0264471120999992000011800004+37480+126630FM-12+007099999V0203201N002612200019N0090001N1-00371-00751102281ADDAA199000091AY101061AY201061GA1001+999999999GF100991001001999999001001IA1289IA2999-00209KA1120N-00521MA1999999101401MD1310081+9999MW1101REMSYN098    AAXX  18004 47112 31959 03205 11037 21075 30140 40228 53008 71000 333 21052 3/102 44/// 92022;EQDQ01  00002PRCP99
0177471120999992000011803004+37480+126630FM-12+007099999V0203401N003112200019N0150001N1-00011-00781102271ADDAA199000091GA1001+999999999GF100991001001999999001001MA1999999101411MD1310011+9999REMSYN064    AAXX  18034 47112 32965 03406 11001 21078 30141 40227 53001;EQDQ01  00002PRCP99
0177471120999992000011806004+37480+126630FM-12+007099999V0202901N003612200019N0150001N1+00111-00681102231ADDAA199000091GA1001+999999999GF100991001001999999001001MA1999999101411MD1710031+9999REMSYN064    AAXX  18064 47112 32965 02907 10011 21068 30141 40223 57003;EQDQ01  00002PRCP99
0177471120999992000011809004+37480+126630FM-12+007099999V0203201N003612200019N0150001N1-00011-00841102131ADDAA199000091GA1001+999999999GF100991001001999999001001MA1999999101271MD1210021+9999REMSYN064    AAXX  18094 47112 32965 03207 11001 21084 30127 40213 52002;EQDQ01  00002PRCP99
0236471120999992000011812004+37480+126630FM-12+007099999V0202701N001512200019N0150001N1-00011-00631102151ADDAA199000091GA1001+999999999GF100991001001999999001001IA1099IA2999-00309KA1120M+00211MA1999999101291MD1310021+9999REMSYN092    AAXX  18124 47112 32965 02703 11001 21063 30129 40215 53002 333 10021 31103 55077 92011;EQDQ01  00002PRCP99
0167471120999992000011815004+37480+126630FM-12+007099999V0202901N000519999999N0130001N1+00011-00571102061ADDAA199000091GF107991071001999999011001MA1999999101201MD1710091+9999REMSYN070    AAXX  18154 47112 32963 72901 10001 21057 30120 40206 57009 87010;EQDQ01  00002PRCP99
0175471120999992000011818004+37480+126630FM-12+007099999V0202501N000510075019N0008001N1-00131-00171101951ADDAY171061AY271061GF108991061071008001021999MA1999999101091MD1710111+9999MW1731REMSYN086    AAXX  18184 47112 41508 82501 11013 21017 30109 40195 57011 77377 8672/ 333 92011;
0165471120999992000011821004+37480+126630FM-12+007099999V0203401N002610075019N0070001N1-00391-00421101821ADDAY171031AY221031GF108991051051008001011999MA1999999100951MD1710131+9999MW1221REMSYN076    AAXX  18214 47112 41557 83405 11039 21042 30095 40182 57013 72272 8551/;
0236471120999992000011900004+37480+126630FM-12+007099999V0203201N004612200019N0170001N1-00371-00791102021ADDAA112003091AJ100059199999999GF106991021051008001001011IA1099IA2999-00509KA1120N-00461MA1999999101141MD1210191+9999REMSYN110    AAXX  19004 47112 12567 63209 11037 21079 30114 40202 52019 60032 82501 333 21046 31105 42005 70032 92011;
0137471120999992000011903004+37480+126630FM-12+007099999V0203201N009310075019N0100001N1-00401-00871102121ADDGF107991071051008001001001MA1999999101241MD1210101+9999REMSYN070    AAXX  19034 47112 42560 73218 11040 21087 30124 40212 52010 87500;
0137471120999992000011909004+37480+126630FM-12+007099999V0203401N008210075019N0110001N1-00581-01101102311ADDGF105991051051008001001001MA1999999101431MD1210231+9999REMSYN070    AAXX  19094 47112 41561 53416 11058 21110 30143 40231 52023 85500;
0219471120999992000011912004+37480+126630FM-12+007099999V0203401N007212200019N0120001N1-00631-01231102531ADDAA112000191GF101991011051008001001001IA1279IA2999-00809KA1120M+00021MA1999999101641MD1210211+9999REMSYN110    AAXX  19124 47112 12562 13414 11063 21123 30164 40253 52021 69922 81500 333 10002 3/108 43/// 70033 92033;
0167471120999992000011915004+37480+126630FM-12+007099999V0203401N006212200019N0130001N1-00651-01211102581ADDAA199000091GF102991021051008001001001MA1999999101691MD1310051+9999REMSYN070    AAXX  19154 47112 32563 23412 11065 21121 30169 40258 53005 82500;EQDQ01  00002PRCP99
0163471120999992000011918004+37480+126630FM-12+007099999V0203201N006212200019N0170001N1-00741-01191102751ADDAA199000091GF103991031051008001001001MA1999999101861MD1210171+9999REMSYN066AAXX  19184 47112 32567 33212 11074 21119 30186 40275 52017 83500;EQDQ01  00002PRCP99
0173471120999992000011921004+37480+126630FM-12+007099999V0203401N007712200019N0250001N1-00851-01541102921ADDAA199000091GA1001+999999999GF100991001001999999001001MA1999999102021MD1210161+9999REMSYN060AAXX  19214 47112 32975 03415 11085 21154 30202 40292 52016;EQDQ01  00002PRCP99
0226471120999992000012000004+37480+126630FM-12+007099999V0203201N005712200019N0200001N1-00901-01541103221ADDAA124000191AJ100039199999999GF101991011051008001001001IA1099IA2999-00909KA1120N-00941MA1999999102321MD1210301+9999REMSYN100AAXX  20004 47112 32570 13211 11090 21154 30232 40322 52030 81500 333 21094 31109 41003 70001 92011;
0173471120999992000012006004+37480+126630FM-12+007099999V0203201N007212200019N0200001N1-00561-01461103281ADDAA199000091GF101991011051008001001001MA1999999102391MD1810031+9999REMSYN076AAXX  20064 47112 32570 13214 11056 21146 30239 40328 58003 81500 333 92022;EQDQ01  00002PRCP99
0173471120999992000012009004+37480+126630FM-12+007099999V0203201N005112200019N0200001N1-00621-01561103431ADDAA199000091GA1001+999999999GF100991001001999999001001MA1999999102531MD1210141+9999REMSYN060AAXX  20094 47112 32970 03210 11062 21156 30253 40343 52014;EQDQ01  00002PRCP99
0232471120999992000012012004+37480+126630FM-12+007099999V0203201N004612200019N0250001N1-00751-01371103621ADDAA199000091GA1001+999999999GF100991001001999999001001IA1019IA2999-00909KA1120M-00501MA1999999102721MD1210191+9999REMSYN088AAXX  20124 47112 32975 03209 11075 21137 30272 40362 52019 333 11050 30109 55092 92033;EQDQ01  00002PRCP99
0173471120999992000012015004+37480+126630FM-12+007099999V0203201N005112200019N0250001N1-00901-01511103701ADDAA199000091GA1001+999999999GF100991001001999999001001MA1999999102791MD1310071+9999REMSYN060AAXX  20154 47112 32975 03210 11090 21151 30279 40370 53007;EQDQ01  00002PRCP99
0183471120999992000012018004+37480+126630FM-12+007099999V0203401N002112200019N0250001N1-00981-01491103811ADDAA199000091GA1001+999999999GF100991001001999999001001MA1999999102901MD1210111+9999REMSYN070AAXX  20184 47112 32975 03404 11098 21149 30290 40381 52011 333 92033;EQDQ01  00002PRCP99
0173471120999992000012021004+37480+126630FM-12+007099999V0200201N001512200019N0200001N1-00981-01461103891ADDAA199000091GA1001+999999999GF100991001001999999001001MA1999999102981MD1210081+9999REMSYN060AAXX  20214 47112 32970 00203 11098 21146 30298 40389 52008;EQDQ01  00002PRCP99
0232471120999992000012100004+37480+126630FM-12+007099999V0200201N002112200019N0200001N1-00941-01751103981ADDAA199000091GA1001+999999999GF100991001001999999001001IA1279IA2999-00909KA1120N-01061MA1999999103071MD1210091+9999REMSYN088AAXX  21004 47112 32570 00204 11094 21175 30307 40398 52009 333 21106 3/109 43/// 92022;EQDQ01  00002PRCP99
0173471120999992000012103004+37480+126630FM-12+007099999V0202901N002112200019N0170001N1-00571-01511104011ADDAA199000091GA1001+999999999GF100991001001999999001001MA1999999103111MD1310041+9999REMSYN060AAXX  21034 47112 32967 02904 11057 21151 30311 40401 53004;EQDQ01  00002PRCP99
0173471120999992000012106004+37480+126630FM-12+007099999V0202701N004112200019N0160001N1-00381-01371103891ADDAA199000091GF102991001001999999001011MA1999999103001MD1810111+9999REMSYN076AAXX  21064 47112 32966 22708 11038 21137 30300 40389 58011 80001 333 92033;EQDQ01  00002PRCP99
0163471120999992000012109004+37480+126630FM-12+007099999V0202901N003112200019N0150001N1-00431-01311103971ADDAA199000091GF102991001001999999001011MA1999999103081MD1010081+9999REMSYN066AAXX  21094 47112 32965 22906 11043 21131 30308 40397 50008 80001;EQDQ01  00002PRCP99
0232471120999992000012112004+37480+126630FM-12+007099999V0201101N001012200019N0150001N1-00441-01171103871ADDAA199000091GA1001+999999999GF100991001001999999001001IA1099IA2999-00709KA1120M-00301MA1999999102981MD1710101+9999REMSYN088AAXX  21124 47112 32965 01102 11044 21117 30298 40387 57010 333 11030 31107 55089 92011;EQDQ01  00002PRCP99
0163471120999992000012115004+37480+126630FM-12+007099999V0201401N002112200019N0150001N1-00461-01151103771ADDAA199000091GF104991001001999999001011MA1999999102871MD1710101+9999REMSYN066AAXX  21154 47112 32965 41404 11046 21115 30287 40377 57010 80001;EQDQ01  00002PRCP99
0173471120999992000012118004+37480+126630FM-12+007099999V0201401N001019999999N0120001N1-00451-01091103691ADDAA199000091GF105991001001999999001011MA1999999102801MD1810071+9999REMSYN076AAXX  21184 47112 32962 51402 11045 21109 30280 40369 58007 80001 333 92011;EQDQ01  00002PRCP99
0163471120999992000012121004+37480+126630FM-12+007099999V0201101N002619999999N0100001N1-00431-00961103511ADDAA199000091GF106991001001999999001021MA1999999102621MD1710181+9999REMSYN066AAXX  21214 47112 32960 61105 11043 21096 30262 40351 57018 80002;EQDQ01  00002PRCP99
0244471120999992000012200004+37480+126630FM-12+007099999V0200901N003119999999N0050001N1-00361-01121103431ADDAA199000091AY121061AY221061GF106991021041999999001021IA1019IA2999-00409KA1120N-00501MA1999999102541MD1710081+9999MW1101REMSYN094AAXX  22004 47112 31950 60906 11036 21112 30254 40343 57008 71022 82402 333 21050 30104 92022;EQDQ01  00002PRCP99
0191471120999992000012203004+37480+126630FM-12+007099999V0200901N001519999999N0050001N1+00071-01201103171ADDAA199000091AY121031AY221031GF107991001001999999001021MA1999999102311MD1710241+9999MW1101REMSYN072AAXX  22034 47112 31950 70903 10007 21120 30231 40317 57024 71022 80002;EQDQ01  00002PRCP99
0161471120999992000012206004+37480+126630FM-12+007099999V0201401N003110075019N0120001N1+00121-00871102791ADDAY171061AY221061GF108991051071008001021999MA1999999101931MD1710381+9999MW1701REMSYN072AAXX  22064 47112 41562 81406 10012 21087 30193 40279 57038 77072 8572/;
0161471120999992000012209004+37480+126630FM-12+007099999V0201401N003110075019N0005001N1-00101-00171102771ADDAY171031AY271031GF108991061071008001021999MA1999999101901MD1510031+9999MW1711REMSYN072AAXX  22094 47112 41505 81406 11010 21017 30190 40277 55003 77177 8672/;
0231471120999992000012212004+37480+126630FM-12+007099999V0201101N002610075019N0005001N1-00041-00081102661ADDAA112002091AY171061AY271061GF108991051071008001021999IA2999+00009KA1120M+00231MA1999999101801MD1710111+9999MW1711REMSYN106AAXX  22124 47112 41505 81105 11004 21008 30180 40266 57011 60022 77177 8572/ 333 10023 3/100 70010 92011;
0161471120999992000012215004+37480+126630FM-12+007099999V0200901N003110075019N0003001N1-00011-00041102461ADDAY171031AY271031GF108991061071008001021999MA1999999101601MD1710201+9999MW1711REMSYN072AAXX  22154 47112 41503 80906 11001 21004 30160 40246 57020 77177 8672/;
0171471120999992000012218004+37480+126630FM-12+007099999V0200201N002110075019N0003001N1-00041-00061102311ADDAY171061AY271061GF108991061071008001021999MA1999999101451MD1710151+9999MW1711REMSYN082AAXX  22184 47112 41503 80204 11004 21006 30145 40231 57015 77177 8672/ 333 92022;
0161471120999992000012221004+37480+126630FM-12+007099999V0203601N002110075019N0002001N1-00031-00051102241ADDAY171031AY241031GF108991051071008001021999MA1999999101381MD1810071+9999MW1701REMSYN072AAXX  22214 47112 41502 83604 11003 21005 30138 40224 58007 77074 8572/;
0232471120999992000012300004+37480+126630FM-12+007099999V0203401N003610360019N0120001N1+00001-00061102421ADDAA112000891AJ100089199999999GF107991041051008001011001IA1099IA2999+00009KA1120N-00051MA1999999101551MD1210171+9999REMSYN106AAXX  23004 47112 12562 73407 10000 21006 30155 40242 52017 69972 84510 333 21005 31000 41008 70026 92011;
0164471120999992000012306004+37480+126630FM-12+007099999V0203201N004112200019N0150001N1+00631-00011102351ADDAA199000021GA1001+999999999GF100991001001999999001001MA1999999101511MD1710021+9999REMSYN070AAXX  23064 47112 32965 03208 10063 21001 30151 40235 57002 333 92011;
0133471120999992000012309004+37480+126630FM-12+007099999V0202901N005112200019N0120001N1+00371-00201102461ADDGF102991001001999999001021MA1999999101601MD1210101+9999REMSYN066AAXX  23094 47112 42962 22910 10037 21020 30160 40246 52010 80002;
0209471120999992000012312004+37480+126630FM-12+007099999V0203401N004612200019N0120001N1+00121-00171102621ADDAA124000891GF102991001001999999001021IA1099IA2999+00009KA1120M+00701MA1999999101761MD1210161+9999REMSYN100AAXX  23124 47112 32962 23409 10012 21017 30176 40262 52016 80002 333 10070 31000 55065 70007 92033;
0173471120999992000012315004+37480+126630FM-12+007099999V0203401N004112200019N0120001N1-00031-00341102711ADDAA199000091GA1001+999999999GF100991001001999999001001MA1999999101841MD1210081+9999REMSYN060AAXX  23154 47112 32962 03408 11003 21034 30184 40271 52008;EQDQ01  00002PRCP99
0183471120999992000012318004+37480+126630FM-12+007099999V0203201N004112200019N0200001N1-00151-00401102871ADDAA199000091GA1001+999999999GF100991001001999999001001MA1999999102001MD1210161+9999REMSYN070AAXX  23184 47112 32970 03208 11015 21040 30200 40287 52016 333 92033;EQDQ01  00002PRCP99
0173471120999992000012321004+37480+126630FM-12+007099999V0203201N003112200019N0120001N1-00261-00561102921ADDAA199000091GA1001+999999999GF100991001001999999001001MA1999999102041MD1010041+9999REMSYN060AAXX  23214 47112 32962 03206 11026 21056 30204 40292 50004;EQDQ01  00002PRCP99
0260471120999992000012400004+37480+126630FM-12+007099999V0203201N003112200019N0080001N1-00331-00641103041ADDAA199000091AY101061AY201061GA1001+999999999GF100991001001999999001001IA1149IA2999-00309KA1120N-00391MA1999999102161MD1210121+9999MW1101REMSYN094AAXX  24004 47112 32958 03206 11033 21064 30216 40304 52012 71000 333 21039 34103 44/// 92022;EQDQ01  00002PRCP99
0201471120999992000012403004+37480+126630FM-12+007099999V0202901N005112200019N0090001N1-00081-00821103071ADDAA199000091AY101031AY201031GA1001+999999999GF100991001001999999001001MA1999999102201MD1310041+9999MW1101REMSYN066AAXX  24034 47112 31959 02910 11008 21082 30220 40307 53004 71000;EQDQ01  00002PRCP99
0201471120999992000012406004+37480+126630FM-12+007099999V0203201N003619999999N0090001N1-00011-00841102961ADDAA199000091AY121061AY221061GF106991001001999999001021MA1999999102091MD1710111+9999MW1101REMSYN082AAXX  24064 47112 31959 63207 11001 21084 30209 40296 57011 71022 80002 333 92033;EQDQ01  00002PRCP99
0163471120999992000012409004+37480+126630FM-12+007099999V0202701N004119999999N0110001N1-00231-01091103031ADDAA199000091GF106991061001999999011001MA1999999102151MD1010061+9999REMSYN066AAXX  24094 47112 32961 62708 11023 21109 30215 40303 50006 86010;EQDQ01  00002PRCP99
0222471120999992000012412004+37480+126630FM-12+007099999V0203401N006219999999N0120001N1-00471-01341103071ADDAA199000091GF106991061001999999011001IA1099IA2999-00509KA1120M+00031MA1999999102181MD1210031+9999REMSYN094AAXX  24124 47112 32962 63412 11047 21134 30218 40307 52003 86010 333 10003 31105 55063 92022;EQDQ01  00002PRCP99
0173471120999992000012415004+37480+126630FM-12+007099999V0203201N003112200019N0120001N1-00651-01371103161ADDAA199000091GA1001+999999999GF100991001001999999001001MA1999999102271MD1310091+9999REMSYN060AAXX  24154 47112 32962 03206 11065 21137 30227 40316 53009;EQDQ01  00002PRCP99
0183471120999992000012418004+37480+126630FM-12+007099999V0203201N004612200019N0120001N1-00811-01611103161ADDAA199000091GA1001+999999999GF100991001001999999001001MA1999999102261MD1010011+9999REMSYN070AAXX  24184 47112 32962 03209 11081 21161 30226 40316 50001 333 92022;EQDQ01  00002PRCP99
0173471120999992000012421004+37480+126630FM-12+007099999V0203401N004612200019N0120001N1-00961-01701103191ADDAA199000091GA1001+999999999GF100991001001999999001001MA1999999102291MD1810031+9999REMSYN060AAXX  24214 47112 32962 03409 11096 21170 30229 40319 58003;EQDQ01  00002PRCP99
0226471120999992000012500004+37480+126630FM-12+007099999V0203601N003612200019N0250001N1-00931-01841103321ADDAA199000091GA1001+999999999GF100991001001999999001001IA1019IA2999-00809KA1120N-01031MA1999999102421MD1210131+9999REMSYN082AAXX  25004 47112 32975 03607 11093 21184 30242 40332 52013 333 21103 30108 92044;EQDQ01  00002PRCP99
0173471120999992000012503004+37480+126630FM-12+007099999V0203201N003612200019N0250001N1-00461-01811103271ADDAA199000091GA1001+999999999GF100991001001999999001001MA1999999102391MD1510031+9999REMSYN060AAXX  25034 47112 32975 03207 11046 21181 30239 40327 55003;EQDQ01  00002PRCP99
0183471120999992000012506004+37480+126630FM-12+007099999V0203201N004612200019N0250001N1-00331-01811103111ADDAA199000091GA1001+999999999GF100991001001999999001001MA1999999102231MD1710161+9999REMSYN070AAXX  25064 47112 32975 03209 11033 21181 30223 40311 57016 333 92044;EQDQ01  00002PRCP99
0173471120999992000012509004+37480+126630FM-12+007099999V0203201N006212200019N0220001N1-00491-01591103141ADDAA199000091GA1001+999999999GF100991001001999999001001MA1999999102251MD1810021+9999REMSYN060AAXX  25094 47112 32972 03212 11049 21159 30225 40314 58002;EQDQ01  00002PRCP99
0232471120999992000012512004+37480+126630FM-12+007099999V0203201N005112200019N0220001N1-00711-01411103251ADDAA199000091GA1001+999999999GF100991001001999999001001IA1149IA2999-00809KA1120M-00281MA1999999102351MD1210101+9999REMSYN088AAXX  25124 47112 32972 03210 11071 21141 30235 40325 52010 333 11028 34108 44/// 92033;EQDQ01  00002PRCP99
0173471120999992000012515004+37480+126630FM-12+007099999V0203201N004612200019N0200001N1-00881-01421103281ADDAA199000091GA1001+999999999GF100991001001999999001001MA1999999102381MD1210031+9999REMSYN060AAXX  25154 47112 32970 03209 11088 21142 30238 40328 52003;EQDQ01  00002PRCP99
0183471120999992000012518004+37480+126630FM-12+007099999V0203601N002612200019N0200001N1-00951-01421103291ADDAA199000091GA1001+999999999GF100991001001999999001001MA1999999102391MD1210011+9999REMSYN070AAXX  25184 47112 32570 03605 11095 21142 30239 40329 52001 333 92022;EQDQ01  00002PRCP99
0173471120999992000012521004+37480+126630FM-12+007099999V0203401N004112200019N0200001N1-00931-01661103131ADDAA199000091GA1001+999999999GF100991001001999999001001MA1999999102231MD1210011+9999REMSYN060AAXX  25214 47112 32970 03408 11093 21166 30223 40313 52001;EQDQ01  00002PRCP99
0226471120999992000012600004+37480+126630FM-12+007099999V0203201N003112200019N0220001N1-00851-01551103171ADDAA199000091GA1001+999999999GF100991001001999999001001IA1099IA2999-00709KA1120N-00981MA1999999102271MD1010041+9999REMSYN082AAXX  26004 47112 32972 03206 11085 21155 30227 40317 50004 333 21098 31107 92022;EQDQ01  00002PRCP99
0173471120999992000012603004+37480+126630FM-12+007099999V0203201N004112200019N0200001N1-00631-01591103141ADDAA199000091GA1001+999999999GF100991001001999999001001MA1999999102251MD1510021+9999REMSYN060AAXX  26034 47112 32970 03208 11063 21159 30225 40314 55002;EQDQ01  00002PRCP99
0183471120999992000012606004+37480+126630FM-12+007099999V0202901N003612200019N0150001N1-00511-01641102961ADDAA199000091GA1001+999999999GF100991001001999999001001MA1999999102081MD1710171+9999REMSYN070AAXX  26064 47112 32965 02907 11051 21164 30208 40296 57017 333 92022;EQDQ01  00002PRCP99
0173471120999992000012609004+37480+126630FM-12+007099999V0203401N004612200019N0150001N1-00551-01511103031ADDAA199000091GA1001+999999999GF100991001001999999001001MA1999999102141MD1210061+9999REMSYN060AAXX  26094 47112 32965 03409 11055 21151 30214 40303 52006;EQDQ01  00002PRCP99
0232471120999992000012612004+37480+126630FM-12+007099999V0203401N004612200019N0200001N1-00711-01451103121ADDAA199000091GA1001+999999999GF100991001001999999001001IA1019IA2999-00809KA1120M-00421MA1999999102231MD1210091+9999REMSYN088AAXX  26124 47112 32970 03409 11071 21145 30223 40312 52009 333 11042 30108 55092 92033;EQDQ01  00002PRCP99
0173471120999992000012615004+37480+126630FM-12+007099999V0203401N003612200019N0200001N1-00791-01431103171ADDAA199000091GA1001+999999999GF100991001001999999001001MA1999999102271MD1210041+9999REMSYN060AAXX  26154 47112 32970 03407 11079 21143 30227 40317 52004;EQDQ01  00002PRCP99
0183471120999992000012618004+37480+126630FM-12+007099999V0203601N003612200019N0200001N1-01091-01451103231ADDAA199000091GA1001+999999999GF100991001001999999001001MA1999999102331MD1510061+9999REMSYN070AAXX  26184 47112 32970 03607 11109 21145 30233 40323 55006 333 92044;EQDQ01  00002PRCP99
0173471120999992000012621004+37480+126630FM-12+007099999V0203601N002112200019N0200001N1-00971-01441103271ADDAA199000091GA1001+999999999GF100991001001999999001001MA1999999102361MD1710031+9999REMSYN060AAXX  26214 47112 32970 03604 11097 21144 30236 40327 57003;EQDQ01  00002PRCP99
0232471120999992000012700004+37480+126630FM-12+007099999V0200201N002112200019N0140001N1-00901-01471103391ADDAA199000091GA1001+999999999GF100991001001999999001001IA1149IA2999-00809KA1120N-01011MA1999999102491MD1210131+9999REMSYN088AAXX  27004 47112 32964 00204 11090 21147 30249 40339 52013 333 21101 34108 44/// 92022;EQDQ01  00002PRCP99
0247471120999992000012703004+37480+126630FM-12+007099999V0203201N003112200019N0130001N1-00351-00801999999ADDAA199000091GA1001+999999999GF100991001001999999001001MA1999999999999MD1710051+9999REMSYN070AAXX  27034 47112 32963 03206 11035 21080 30050 40133 57005 333 92033;EQDQ01+100503APOSP Q02+101333APOSLPQ03  00002PRCP99Q04 100503APOSP Q05 101333APOSLP
0205471120999992000012706004+37480+126630FM-12+007099999V0203201N003112200019N0180001N1-00091-01381103212ADDAA199000091GA1001+999999999GF100991001001999999001001MA1999999102342MD1810121+9999REMSYN060AAXX  27064 47112 32968 03206 11009 21138 30234 40321 58012;EQDQ01+102343APOSP Q02+103213APOSLPQ03  00002PRCP99
0173471120999992000012709004+37480+126630FM-12+007099999V0203201N004612200019N0180001N1-00311-01411103271ADDAA199000091GA1001+999999999GF100991001001999999001001MA1999999102391MD1210061+9999REMSYN060AAXX  27094 47112 32968 03209 11031 21141 30239 40327 52006;EQDQ01  00002PRCP99
0191471120999992000012715004+37480+126630FM-12+007099999V0200201N001012200019N0150001N1-00491-01101103331ADDAA199000091GA1001+999999999GF100991001001999999001001MA1999999102441REMSYN060AAXX  27154 47112 32965 00202 11049 21110 30244 40333 53000;EQDQ01+000032APCTENQ02+000002APC3  Q03  00002PRCP99
0183471120999992000012718004+37480+126630FM-12+007099999V0209999C000012200019N0150001N1-00511-01081103381ADDAA199000091GA1001+999999999GF100991001001999999001001MA1999999102491MD1010051+9999REMSYN070AAXX  27184 47112 32965 01600 11051 21108 30249 40338 50005 333 92011;EQDQ01  00002PRCP99
0173471120999992000012721004+37480+126630FM-12+007099999V0202501N000512200019N0120001N1-00661-00961103391ADDAA199000091GA1001+999999999GF100991001001999999001001MA1999999102501MD1010011+9999REMSYN060AAXX  27214 47112 32962 02501 11066 21096 30250 40339 50001;EQDQ01  00002PRCP99
0226471120999992000012800004+37480+126630FM-12+007099999V0201401N001012200019N0200001N1-00431-00831103481ADDAA199000091GA1001+999999999GF100991001001999999001001IA1019IA2999-00309KA1120N-00731MA1999999102591MD1210091+9999REMSYN082AAXX  28004 47112 32970 01402 11043 21083 30259 40348 52009 333 21073 30103 92033;EQDQ01  00002PRCP99
0205471120999992000012803004+37480+126630FM-12+007099999V0202701N003112200019N0200001N1-00081-00761103471ADDAA199000091GA1001+999999999GF100991001001999999001001MA1999999102591MD1710011+9999REMSYN060AAXX  28034 47112 32970 02706 11008 21076 30259 40347 53000;EQDQ01+000032APCTENQ02+000002APC3  Q03  00002PRCP99
0184471120999992000012806004+37480+126630FM-12+007099999V0202001N003112200019N0110001N1-00021+99999103301ADDAA199000091GA1001+999999999GF100991001001999999001001MD1210051+9999REMSYN070AAXX  28064 47112 32961 02006 11002 24302 34340 40330 52005 333 92022;EQDQ01+043401APOSP Q02  00002PRCP99
0173471120999992000012809004+37480+126630FM-12+007099999V0202701N003112200019N0140001N1-00011-00491103351ADDAA199000091GA1001+999999999GF100991001001999999001001MA1999999102481MD1010051+9999REMSYN060AAXX  28094 47112 32964 02706 11001 21049 30248 40335 50005;EQDQ01  00002PRCP99
0226471120999992000012812004+37480+126630FM-12+007099999V0203201N001012200019N0120001N1-00191-00431103411ADDAA199000091GA1001+999999999GF100991001001999999001001IA1019IA2999-00509KA1120M+00321MA1999999102531MD1210051+9999REMSYN082AAXX  28124 47112 32962 03202 11019 21043 30253 40341 52005 333 10032 30105 92011;EQDQ01  00002PRCP99
0173471120999992000012815004+37480+126630FM-12+007099999V0209999C000012200019N0090001N1-00131-00381103351ADDAA199000091GA1001+999999999GF100991001001999999001001MA1999999102481MD1710051+9999REMSYN060AAXX  28154 47112 31959 00000 11013 21038 30248 40335 57005;EQDQ01  00002PRCP99
0201471120999992000012818004+37480+126630FM-12+007099999V0203401N001010075019N0050001N1-00161-00301103341ADDAA199000091AY121061AY221061GF106991061051008001001001MA1999999102471MD1010011+9999MW1101REMSYN082AAXX  28184 47112 31550 63402 11016 21030 30247 40334 50001 71022 86500 333 92011;EQDQ01  00002PRCP99
0191471120999992000012821004+37480+126630FM-12+007099999V0200901N001510075019N0050001N1-00131-00461103311ADDAA199000091AY121031AY221031GF106991061051008001001001MA1999999102431MD1010031+9999MW1101REMSYN072AAXX  28214 47112 31550 60903 11013 21046 30243 40331 50003 71022 86500;EQDQ01  00002PRCP99
0244471120999992000012900004+37480+126630FM-12+007099999V0201401N001010360019N0050001N1-00041-00431103381ADDAA199000091AY121061AY221061GF108991041051008001011999IA1019IA2999-00109KA1120N-00211MA1999999102501MD1210071+9999MW1101REMSYN094AAXX  29004 47112 31550 81402 11004 21043 30250 40338 52007 71022 8451/ 333 21021 30101 92011;EQDQ01  00002PRCP99
0191471120999992000012903004+37480+126630FM-12+007099999V0202001N004110360019N0070001N1+00161-00361103311ADDAA199000091AY121031AY221031GF108991031051008001011999MA1999999102441MD1710061+9999MW1101REMSYN072AAXX  29034 47112 31557 82008 10016 21036 30244 40331 57006 71022 8351/;EQDQ01  00002PRCP99
0173471120999992000012906004+37480+126630FM-12+007099999V0202001N003610360019N0120001N1+00251-00341103151ADDAA199000091GF108991031051008001011999MA1999999102291MD1810161+9999REMSYN076AAXX  29064 47112 32562 82007 10025 21034 30229 40315 58016 8351/ 333 9202/;EQDQ01  00002PRCP99
0163471120999992000012909004+37480+126630FM-12+007099999V0202001N002612200019N0150001N1+00121-00251103131ADDAA199000091GF104991041001999999061001MA1999999102261MD1710021+9999REMSYN066AAXX  29094 47112 32965 42005 10012 21025 30226 40313 57002 84060;EQDQ01  00002PRCP99
0264471120999992000012912004+37480+126630FM-12+007099999V0201801N004112200019N0200001N1+00101-00181103121ADDAA199000091GA1001+999999999GF100991001001999999001001IA1019IA2999-00109KA1120M+00351MA1999999102261MD1710011+9999REMSYN088AAXX  29124 47112 32970 01808 10010 21018 30226 40312 53000 333 10035 30101 55020 92022;EQDQ01+000032APCTENQ02+000002APC3  Q03  00002PRCP99
0161471120999992000012915004+37480+126630FM-12+007099999V0201801N003110075019N0120001N1+00091+00001103051ADDAY171031AY271031GF106991051051008001021001MA1999999102181MD1510081+9999MW1221REMSYN072AAXX  29154 47112 41562 61806 10009 20000 30218 40305 55008 72277 85520;
0154471120999992000012918004+37480+126630FM-12+007099999V0203201N009810075019N0100001N1+00111-00291102971ADDAA199000021GF108991061051008001021999MA1999999102101MD1810081+9999REMSYN076AAXX  29184 47112 32560 83219 10011 21029 30210 40297 58008 8652/ 333 9203/;
0144471120999992000012921004+37480+126630FM-12+007099999V0203201N009810075019N0100001N1-00271-00641103101ADDAA199000021GF107991051051008001011001MA1999999102221MD1210121+9999REMSYN066AAXX  29214 47112 32560 73219 11027 21064 30222 40310 52012 85510;
0209471120999992000013000004+37480+126630FM-12+007099999V0203201N010312200019N0250001N1-00521-01051103381ADDAA112000191GF101991011051008001001001IA1289IA2999-00509KA1120N-00531MA1999999102491MD1210271+9999REMSYN100AAXX  30004 47112 32575 13220 11052 21105 30249 40338 52027 69912 81500 333 21053 3/105 44/// 92066;
0133471120999992000013003004+37480+126630FM-12+007099999V0203201N008212200019N0250001N1-00421-01111103521ADDGF102991021051008001001001MA1999999102631MD1310141+9999REMSYN066AAXX  30034 47112 42575 23216 11042 21111 30263 40352 53014 82500;
0143471120999992000013006004+37480+126630FM-12+007099999V0203201N007212200019N0200001N1-00291-01091103441ADDGF102991021051008001001001MA1999999102561MD1810081+9999REMSYN076AAXX  30064 47112 42570 23214 11029 21109 30256 40344 58008 82500 333 92055;
0133471120999992000013009004+37480+126630FM-12+007099999V0203201N008212200019N0150001N1-00471-01031103581ADDGF101991011051008001001001MA1999999102691MD1210141+9999REMSYN066AAXX  30094 47112 42565 13216 11047 21103 30269 40358 52014 81500;
0225471120999992000013012004+37480+126630FM-12+007099999V0203401N006212200019N0150001N1-00631-01241103731ADDAA112000791GA1001+999999999GF100991001001999999001001IA1019IA2999-00709KA1120M+00201MA1999999102831MD1210141+9999REMSYN100AAXX  30124 47112 12965 03412 11063 21124 30283 40373 52014 69902 333 10020 30107 55090 70001 92022;
0173471120999992000013015004+37480+126630FM-12+007099999V0203401N003612200019N0150001N1-00711-01291103801ADDAA199000091GA1001+999999999GF100991001001999999001001MA1999999102901MD1210071+9999REMSYN060AAXX  30154 47112 32965 03407 11071 21129 30290 40380 52007;EQDQ01  00002PRCP99
0183471120999992000013018004+37480+126630FM-12+007099999V0203401N005112200019N0120001N1-00751-01411103811ADDAA199000091GA1001+999999999GF100991001001999999001001MA1999999102901MD1510001+9999REMSYN070AAXX  30184 47112 32962 03410 11075 21141 30290 40381 55000 333 92022;EQDQ01  00002PRCP99
0173471120999992000013021004+37480+126630FM-12+007099999V0203401N004612200019N0120001N1-00881-01451103771ADDAA199000091GA1001+999999999GF100991001001999999001001MA1999999102861MD1810041+9999REMSYN060AAXX  30214 47112 32962 03409 11088 21145 30286 40377 58004;EQDQ01  00002PRCP99
0226471120999992000013100004+37480+126630FM-12+007099999V0203401N005112200019N0170001N1-00931-01621103881ADDAA199000091GA1001+999999999GF100991001001999999001001IA1019IA2999-00809KA1120N-00951MA1999999102971MD1210111+9999REMSYN082AAXX  31004 47112 32967 03410 11093 21162 30297 40388 52011 333 21095 30108 92033;EQDQ01  00002PRCP99
0173471120999992000013103004+37480+126630FM-12+007099999V0203201N004612200019N0200001N1-00651-01561103881ADDAA199000091GA1001+999999999GF100991001001999999001001MA1999999102981MD1310011+9999REMSYN060AAXX  31034 47112 32970 03209 11065 21156 30298 40388 53001;EQDQ01  00002PRCP99
0183471120999992000013106004+37480+126630FM-12+007099999V0203201N004612200019N0250001N1-00521-01751103681ADDAA199000091GA1001+999999999GF100991001001999999001001MA1999999102791MD1710191+9999REMSYN070AAXX  31064 47112 32975 03209 11052 21175 30279 40368 57019 333 92033;EQDQ01  00002PRCP99
0173471120999992000013109004+37480+126630FM-12+007099999V0203201N003112200019N0180001N1-00591-01601103671ADDAA199000091GA1001+999999999GF100991001001999999001001MA1999999102781MD1810011+9999REMSYN060AAXX  31094 47112 32968 03206 11059 21160 30278 40367 58001;EQDQ01  00002PRCP99
0226471120999992000013112004+37480+126630FM-12+007099999V0203201N002612200019N0150001N1-00671-01441103731ADDAA199000091GA1001+999999999GF100991001001999999001001IA1019IA2999-00809KA1120M-00431MA1999999102831MD1310051+9999REMSYN082AAXX  31124 47112 32965 03205 11067 21144 30283 40373 53005 333 11043 30108 92022;EQDQ01  00002PRCP99
0173471120999992000013115004+37480+126630FM-12+007099999V0203201N001012200019N0180001N1-00871-01501103641ADDAA199000091GA1001+999999999GF100991001001999999001001MA1999999102791MD1210031+9999REMSYN060AAXX  31154 47112 32968 03202 11087 21150 30279 40364 52003;EQDQ01  00002PRCP99
0183471120999992000013118004+37480+126630FM-12+007099999V0203401N002112200019N0150001N1-00931-01451103611ADDAA199000091GA1001+999999999GF100991001001999999001001MA1999999102711MD1710091+9999REMSYN070AAXX  31184 47112 32965 03404 11093 21145 30271 40361 57009 333 92022;EQDQ01  00002PRCP99
0173471120999992000013121004+37480+126630FM-12+007099999V0200201N001512200019N0150001N1-00961-01471103511ADDAA199000091GA1001+999999999GF100991001001999999001001MA1999999102611MD1710101+9999REMSYN060AAXX  31214 47112 32965 00203 11096 21147 30261 40351 57010;EQDQ01  00002PRCP99
0226471120999992000020100004+37480+126630FM-12+007099999V0202701N001012200019N0170001N1-00861-01491103511ADDAA199000091GA1001+999999999GF100991001001999999001001IA1019IA2999-00609KA1120N-01011MA1999999102611MD1010001+9999REMSYN082AAXX  01004 47112 32967 02702 11086 21149 30261 40351 50000 333 21101 30106 92011;EQDQ01  00002PRCP99
0163471120999992000020103004+37480+126630FM-12+007099999V0202301N003112200019N0170001N1-00341-01221103441ADDAA199000091GF104991001001999999001011MA1999999102561MD1710051+9999REMSYN066AAXX  01034 47112 32967 42306 11034 21122 30256 40344 57005 80001;EQDQ01  00002PRCP99
0173471120999992000020106004+37480+126630FM-12+007099999V0203201N004612200019N0170001N1-00251-01191103201ADDAA199000091GF104991001001999999001021MA1999999102321MD1710241+9999REMSYN076AAXX  01064 47112 32967 43209 11025 21119 30232 40320 57024 80002 333 92011;EQDQ01  00002PRCP99
0163471120999992000020109004+37480+126630FM-12+007099999V0202701N004112200019N0150001N1-00381-00831103121ADDAA199000091GF102991001001999999001021MA1999999102241MD1210081+9999REMSYN066AAXX  01094 47112 32965 22708 11038 21083 30224 40312 52008 80002;EQDQ01  00002PRCP99
0232471120999992000020112004+37480+126630FM-12+007099999V0202901N001012200019N0150001N1-00431-01681103151ADDAA199000091GA1001+999999999GF100991001001999999001001IA1019IA2999-00509KA1120M-00231MA1999999102271MD1210031+9999REMSYN088AAXX  01124 47112 32965 02902 11043 21168 30227 40315 52003 333 11023 30105 55075 92033;EQDQ01  00002PRCP99
0173471120999992000020115004+37480+126630FM-12+007099999V0203201N004612200019N0120001N1-00501-01621103131ADDAA199000091GA1001+999999999GF100991001001999999001001MA1999999102251MD1710021+9999REMSYN060AAXX  01154 47112 32962 03209 11050 21162 30225 40313 57002;EQDQ01  00002PRCP99
0183471120999992000020118004+37480+126630FM-12+007099999V0203601N001012200019N0100001N1-00631-00941103151ADDAA199000091GA1001+999999999GF100991001001999999001001MA1999999102271MD1210021+9999REMSYN070AAXX  01184 47112 32960 03602 11063 21094 30227 40315 52002 333 92033;EQDQ01  00002PRCP99
0173471120999992000020121004+37480+126630FM-12+007099999V0201101N001512200019N0100001N1-00641-00981103101ADDAA199000091GA1001+999999999GF100991001001999999001001MA1999999102221MD1710051+9999REMSYN060AAXX  01214 47112 32960 01103 11064 21098 30222 40310 57005;EQDQ01  00002PRCP99
0214471120999992000020200004+37480+126630FM-12+007099999V0209999C000012200019N0110001N1-00461-01001103161ADDAA199000091GA1001+999999999GF100991001001999999001001IA1099KA1120N-00671MA1999999102311MD1210051+9999REMSYN082AAXX  02004 47112 32961 00000 11046 21100 30231 40316 52005 333 21067 31087 92000;EQDQ01  00002PRCP99
0173471120999992000020203004+37480+126630FM-12+007099999V0203401N001512200019N0130001N1-00221-01021103281ADDAA199000091GA1001+999999999GF100991001001999999001001MA1999999102401MD1710031+9999REMSYN060AAXX  02034 47112 32963 03403 11022 21102 30240 40328 57003;EQDQ01  00002PRCP99
0173471120999992000020206004+37480+126630FM-12+007099999V0202501N003612200019N0150001N1+00051-00891103111ADDAA199000091GA1001+999999999GF100991001001999999001001MA1999999102241MD1710181+9999REMSYN060AAXX  02064 47112 32965 02507 10005 21089 30224 40311 57018;EQDQ01  00002PRCP99
0173471120999992000020209004+37480+126630FM-12+007099999V0202901N004112200019N0150001N1-00121-00721103011ADDAA199000091GA1001+999999999GF100991001001999999001001MA1999999102141MD1710101+9999REMSYN060AAXX  02094 47112 32965 02908 11012 21072 30214 40301 57010;EQDQ01  00002PRCP99
0222471120999992000020212004+37480+126630FM-12+007099999V0203401N001512200019N0120001N1-00241-00551103021ADDAA199000091GF102991001001999999001011IA1019IA2999-00509KA1120M+00141MA1999999102141MD1310011+9999REMSYN094AAXX  02124 47112 32962 23403 11024 21055 30214 40302 53001 80001 333 10014 30105 55068 92011;EQDQ01  00002PRCP99
0163471120999992000020215004+37480+126630FM-12+007099999V0200201N001010360019N0120001N1-00281-00611103001ADDAA199000091GF107991041051008001031001MA1999999102121MD1310021+9999REMSYN066AAXX  02154 47112 32562 70202 11028 21061 30212 40300 53002 84530;EQDQ01  00002PRCP99
0173471120999992000020218004+37480+126630FM-12+007099999V0203601N001010075019N0120001N1-00211-00551102961ADDAA199000091GF108991051051008001021999MA1999999102091MD1710031+9999REMSYN076AAXX  02184 47112 32562 83602 11021 21055 30209 40296 57003 8552/ 333 92011;EQDQ01  00002PRCP99
0161471120999992000020221004+37480+126630FM-12+007099999V0201101N002110075019N0100001N1-00221-00621102851ADDAY171031AY271031GF108991061051008001021999MA1999999101981MD1710111+9999MW1711REMSYN072AAXX  02214 47112 41560 81104 11022 21062 30198 40285 57011 77177 8652/;
0237471120999992000020300004+37480+126630FM-12+007099999V0201601N002610360019N0030001N1-00161-00411102861ADDAA112000191AY171061AY271061GF107991041051008001011001IA1099IA2999-00109KA1120N-00291MA1999999101991MD1210011+9999MW1101REMSYN106AAXX  03004 47112 11530 71605 11016 21041 30199 40286 52001 69912 71077 84510 333 21029 31101 70001 92033;
0171471120999992000020303004+37480+126630FM-12+007099999V0202001N004112200019N0030001N1+00171-00331102781ADDAY101031AY201031GA1001+999999999GF100991001001999999001001MA1999999101921MD1510071+9999MW1101REMSYN066AAXX  03034 47112 41930 02008 10017 21033 30192 40278 55007 71000;
0171471120999992000020306004+37480+126630FM-12+007099999V0202701N007210075019N0017001N1+00051-00261102661ADDAY171061AY271061GF108991061051008001021999MA1999999101791MD1710131+9999MW1701REMSYN082AAXX  03064 47112 41517 82714 10005 21026 30179 40266 57013 77077 8652/ 333 92033;
0144471120999992000020309004+37480+126630FM-12+007099999V0203401N004110360019N0110001N1-00011-00441102731ADDAA199000021GF106991031051008001011001MA1999999101861MD1210071+9999REMSYN066AAXX  03094 47112 32561 63408 11001 21044 30186 40273 52007 83510;
0213471120999992000020312004+37480+126630FM-12+007099999V0203401N003112200019N0080001N1-00151-00541102881ADDAA112000791GA1001+999999999GF100991001001999999001001IA1099IA2999-00309KA1120M+00351MA1999999102011MD1210151+9999REMSYN088AAXX  03124 47112 12958 03406 11015 21054 30201 40288 52015 69902 333 10035 31103 92022;
0154471120999992000020315004+37480+126630FM-12+007099999V0203201N003612200019N0090001N1-00321-00741102921ADDAA199000021GA1001+999999999GF100991001001999999001001MA1999999102041MD1310031+9999REMSYN060AAXX  03154 47112 32959 03207 11032 21074 30204 40292 53003;
0164471120999992000020318004+37480+126630FM-12+007099999V0202901N002612200019N0110001N1-00421-00911103031ADDAA199000021GA1001+999999999GF100991001001999999001001MA1999999102151MD1210111+9999REMSYN070AAXX  03184 47112 32961 02905 11042 21091 30215 40303 52011 333 92022;
0173471120999992000020321004+37480+126630FM-12+007099999V0203601N001012200019N0120001N1-00561-00971103061ADDAA199000091GA1001+999999999GF100991001001999999001001MA1999999102171MD1010031+9999REMSYN060AAXX  03214 47112 32962 03602 11056 21097 30217 40306 50003;EQDQ01  00002PRCP99
0226471120999992000020400004+37480+126630FM-12+007099999V0200201N001012200019N0120001N1-00401-00981103261ADDAA199000091GA1001+999999999GF100991001001999999001001IA1019IA2999-00209KA1120N-00591MA1999999102371MD1210201+9999REMSYN082AAXX  04004 47112 32962 00202 11040 21098 30237 40326 52020 333 21059 30102 92022;EQDQ01  00002PRCP99
0173471120999992000020403004+37480+126630FM-12+007099999V0200501N002112200019N0250001N1+00021-01131103231ADDAA199000091GA1001+999999999GF100991001001999999001001MA1999999102361MD1310021+9999REMSYN060AAXX  04034 47112 32975 00504 10002 21113 30236 40323 53002;EQDQ01  00002PRCP99
0183471120999992000020406004+37480+126630FM-12+007099999V0203201N003112200019N0250001N1+00171-01051102981ADDAA199000091GA1001+999999999GF100991001001999999001001MA1999999102111MD1710241+9999REMSYN070AAXX  04064 47112 32975 03206 10017 21105 30211 40298 57024 333 92022;EQDQ01  00002PRCP99
0189471120999992000020409004+37480+126630FM-12+007099999V0203201N002112200019N0250001N1-00031-00811102981ADDAA199000091GA1001+999999999GF100991001001999999001001MA1999999102111MD1410001+9999REMSYN060AAXX  04094 47112 32975 03204 11003 21081 30211 40298 58000;EQDQ01+000082APCTENQ02  00002PRCP99
0232471120999992000020412004+37480+126630FM-12+007099999V0202901N002612200019N0250001N1-00131-00611103001ADDAA199000091GA1001+999999999GF100991001001999999001001IA1019IA2999-00409KA1120M+00241MA1999999102121MD1210011+9999REMSYN088AAXX  04124 47112 32975 02905 11013 21061 30212 40300 52001 333 10024 30104 55092 92022;EQDQ01  00002PRCP99
0173471120999992000020415004+37480+126630FM-12+007099999V0200201N002612200019N0250001N1-00241-00801102961ADDAA199000091GA1001+999999999GF100991001001999999001001MA1999999102081MD1710041+9999REMSYN060AAXX  04154 47112 32975 00205 11024 21080 30208 40296 57004;EQDQ01  00002PRCP99
0183471120999992000020418004+37480+126630FM-12+007099999V0203601N001512200019N0200001N1-00341-00821102871ADDAA199000091GA1001+999999999GF100991001001999999001001MA1999999101991MD1710091+9999REMSYN070AAXX  04184 47112 32970 03603 11034 21082 30199 40287 57009 333 92022;EQDQ01  00002PRCP99
0173471120999992000020421004+37480+126630FM-12+007099999V0200201N001512200019N0150001N1-00521-01071102791ADDAA199000091GA1001+999999999GF100991001001999999001001MA1999999101901MD1710091+9999REMSYN060AAXX  04214 47112 32965 00203 11052 21107 30190 40279 57009;EQDQ01  00002PRCP99
0210471120999992000020500004+37480+126630FM-12+007099999V0200901N003112200019N0150001N1-00271-00781102681ADDAA199000091GF103991001001999999001011IA1099IA2999+00509KA1120N-00541MA1999999101851MD1710011+9999REMSYN082AAXX  05004 47112 32965 30906 11027 21078 30185 40268 57001 80001 333 21054 31005;EQDQ01  00002PRCP99
0191471120999992000020503004+37480+126630FM-12+007099999V0203201N001010360019N0090001N1+00171-00451102621ADDAA199000091AY121031AY221031GF108991041051008001011999MA1999999101751MD1610111+9999MW1101REMSYN072AAXX  05034 47112 31559 83202 10017 21045 30175 40262 56011 71022 8451/;EQDQ01  00002PRCP99
0173471120999992000020506004+37480+126630FM-12+007099999V0203401N003110360019N0100001N1+00201-00421102461ADDAA199000091GF108991031051008001011999MA1999999101601MD1710151+9999REMSYN076AAXX  05064 47112 32560 83406 10020 21042 30160 40246 57015 8351/ 333 92011;EQDQ01  00002PRCP99
0161471120999992000020509004+37480+126630FM-12+007099999V0202701N002610075019N0080001N1+00141-00291102271ADDAY171031AY271031GF108991061071008001021999MA1999999101411MD1710191+9999MW1701REMSYN072AAXX  05094 47112 41558 82705 10014 21029 30141 40227 57019 77077 8672/;
0266471120999992000020512004+37480+126630FM-12+007099999V0203201N002110075019N0050001N1-00051-00081102241ADDAA112000591AJ100019199999999AY171061AY271061GF108991061071008001021999IA1099IA2999-00109KA1120M+00301MA1999999101381MD1710041+9999MW1711REMSYN118AAXX  05124 47112 41550 83204 11005 21008 30138 40224 57004 69962 77177 8672/ 333 10030 31101 41001 55018 70006 92011;
0161471120999992000020515004+37480+126630FM-12+007099999V0203401N001010075019N0070001N1-00081-00111102181ADDAY171031AY221031GF108991051051008001021999MA1999999101311MD1710061+9999MW1221REMSYN072AAXX  05154 47112 41557 83402 11008 21011 30131 40218 57006 72272 8552/;
0171471120999992000020518004+37480+126630FM-12+007099999V0200501N000510075019N0080001N1-00091-00151102151ADDAY171061AY221061GF108991061051008001021999MA1999999101291MD1510021+9999MW1221REMSYN082AAXX  05184 47112 41558 80501 11009 21015 30129 40215 55002 72272 8652/ 333 92011;
0161471120999992000020521004+37480+126630FM-12+007099999V0202701N002610075019N0070001N1-00091-00141102081ADDAY171031AY271031GF108991061071008001021999MA1999999101221MD1710071+9999MW1711REMSYN072AAXX  05214 47112 41557 82705 11009 21014 30122 40208 57007 77177 8672/;
0243471120999992000020600004+37480+126630FM-12+007099999V0203201N002110075019N0080001N1-00021-00071102121ADDAA112000191AY171061AY221061GF108991051051008001021999IA1229IA2999+00109KA1120N-00101MA1999999101261MD1310041+9999MW1221REMSYN112AAXX  06004 47112 11558 83204 11002 21007 30126 40212 53004 69922 72272 8552/ 333 21010 3/001 46/// 70008 92000;
0144471120999992000020603004+37480+126630FM-12+007099999V0203401N003112200019N0140001N1+00181-00091102111ADDAA199000021GF102991021051008001001001MA1999999101251MD1310011+9999REMSYN066AAXX  06034 47112 32564 23406 10018 21009 30125 40211 53001 82500;
0171471120999992000020606004+37480+126630FM-12+007099999V0202901N004110075019N0080001N1+00091-00121101951ADDAY171061AY221061GF108991061071008001021999MA1999999101091MD1710161+9999MW1701REMSYN082AAXX  06064 47112 41558 82908 10009 21012 30109 40195 57016 77072 8672/ 333 92022;
0161471120999992000020609004+37480+126630FM-12+007099999V0203201N003110075019N0090001N1+00031-00151101991ADDAY121031AY221031GF106991061051008001001001MA1999999101131MD1210041+9999MW1101REMSYN072AAXX  06094 47112 41559 63206 10003 21015 30113 40199 52004 71022 86500;
0243471120999992000020612004+37480+126630FM-12+007099999V0202701N003110360019N0080001N1+00001-00101102031ADDAA112000791AY121061AY221061GF108991041051008001011999IA1149IA2999+00009KA1120M+00321MA1999999101171MD1210041+9999MW1101REMSYN112AAXX  06124 47112 11558 82706 11000 21010 30117 40203 52004 69902 71022 8451/ 333 10032 34100 44/// 70002 92022;
0172471120999992000020615004+37480+126630FM-12+007099999V0203201N002110075019N0080001N1-00021-00131101991ADDAA199000021AY121031AY221031GF106991061051008001001001MA1999999101131MD1510041+9999MW1101REMSYN072AAXX  06154 47112 31558 63204 11002 21013 30113 40199 55004 71022 86500;
0172471120999992000020618004+37480+126630FM-12+007099999V0200501N001010360019N0040001N1-00071-00141101971ADDAA199000021AY121061AY221061GF108991041051008001011999MA1999999101111MD1710011+9999MW1101REMSYN072AAXX  06184 47112 31540 80502 11007 21014 30111 40197 57001 71022 8451/;
0191471120999992000020621004+37480+126630FM-12+007099999V0200501N002110075019N0020001N1-00191-00401101861ADDAA199000091AY121031AY221031GF106991061051008001001001MA1999999101001MD1710111+9999MW1101REMSYN072AAXX  06214 47112 31520 60504 11019 21040 30100 40186 57011 71022 86500;EQDQ01  00002PRCP99
0244471120999992000020700004+37480+126630FM-12+007099999V0203601N001510075019N0050001N1-00141-00461101871ADDAA199000091AY121061AY221061GF108991051051008001011999IA1099IA2999+00009KA1120N-00221MA1999999101011MD1710051+9999MW1101REMSYN094AAXX  07004 47112 31550 83603 11014 21046 30101 40187 57005 71022 8551/ 333 21022 31000 92011;EQDQ01  00002PRCP99
0191471120999992000020703004+37480+126630FM-12+007099999V0202901N001510360019N0080001N1+00161-00461101641ADDAA199000091AY121031AY221031GF108991021051008001011999MA1999999100791MD1710031+9999MW1101REMSYN072AAXX  07034 47112 31558 82903 10016 21046 30079 40164 57003 71022 8251/;EQDQ01  00002PRCP99
0171471120999992000020706004+37480+126630FM-12+007099999V0202901N005710075019N0030001N1-00011-00261101441ADDAY171061AY221061GF108991061051008001021999MA1999999100581MD1710211+9999MW1221REMSYN082AAXX  07064 47112 41530 82911 11001 21026 30058 40144 57021 72272 8652/ 333 92011;
0161471120999992000020709004+37480+126630FM-12+007099999V0203401N006210075019N0035001N1-00091-00661101371ADDAY121031AY221031GF108991051051008001021999MA1999999100511MD1810071+9999MW1101REMSYN072AAXX  07094 47112 41535 83412 11009 21066 30051 40137 58007 71022 8552/;
0219471120999992000020712004+37480+126630FM-12+007099999V0203401N007712200019N0200001N1-00331-00851101501ADDAA124000021GA1001+999999999GF100991001001999999001001IA1019IA2999-00409KA1120M+00261MA1999999100641MD1210131+9999REMSYN094AAXX  07124 47112 32970 03415 11033 21085 30064 40150 52013 333 10026 30104 55012 70000 92044;
0143471120999992000020715004+37480+126630FM-12+007099999V0203401N007712200019N0200001N1-00451-01201101541ADDGA1001+999999999GF100991001001999999001001MA1999999100671MD1310031+9999REMSYN060AAXX  07154 47112 42970 03415 11045 21120 30067 40154 53003;
0164471120999992000020718004+37480+126630FM-12+007099999V0203201N006712200019N0200001N1-00601-01281101491ADDAA199000021GA1001+999999999GF100991001001999999001001MA1999999100621MD1810051+9999REMSYN070AAXX  07184 47112 32970 03213 11060 21128 30062 40149 58005 333 92044;
0173471120999992000020721004+37480+126630FM-12+007099999V0203401N008212200019N0200001N1-00681-01241101501ADDAA199000091GA1001+999999999GF100991001001999999001001MA1999999100631MD1010011+9999REMSYN060AAXX  07214 47112 32970 03416 11068 21124 30063 40150 50001;EQDQ01  00002PRCP99
0222471120999992000020800004+37480+126630FM-12+007099999V0203401N006712200019N0140001N1-00751-01361101671ADDAA199000091GF101991011051999999001001IA1149IA2999-00709KA1120N-00781MA1999999100791MD1210171+9999REMSYN094AAXX  08004 47112 32964 13413 11075 21136 30079 40167 52017 81500 333 21078 34107 44/// 92033;EQDQ01  00002PRCP99
0163471120999992000020803004+37480+126630FM-12+007099999V0203401N006212200019N0140001N1-00531-01451101761ADDAA199000091GF102991021051008001001001MA1999999100881MD1310091+9999REMSYN066AAXX  08034 47112 32564 23412 11053 21145 30088 40176 53009 82500;EQDQ01  00002PRCP99
0173471120999992000020806004+37480+126630FM-12+007099999V0203401N007712200019N0130001N1-00411-01471101731ADDAA199000091GF102991021051008001001001MA1999999100861MD1810021+9999REMSYN076AAXX  08064 47112 32563 23415 11041 21147 30086 40173 58002 82500 333 92033;EQDQ01  00002PRCP99
0173471120999992000020809004+37480+126630FM-12+007099999V0203401N006212200019N0150001N1-00521-01321101931ADDAA199000091GA1001+999999999GF100991001001999999001001MA1999999101051MD1210021+9999REMSYN060AAXX  08094 47112 32965 03412 11052 21132 30105 40193 52002;EQDQ01  00002PRCP99
0232471120999992000020812004+37480+126630FM-12+007099999V0203401N005712200019N0150001N1-00601-01311102191ADDAA199000091GA1001+999999999GF100991001001999999001001IA1099IA2999-00709KA1120M-00361MA1999999101311MD1210251+9999REMSYN088AAXX  08124 47112 32965 03411 11060 21131 30131 40219 52025 333 11036 31107 55082 92022;EQDQ01  00002PRCP99
0173471120999992000020815004+37480+126630FM-12+007099999V0203401N005712200019N0150001N1-00601-01361102241ADDAA199000091GA1001+999999999GF100991001001999999001001MA1999999101361MD1310051+9999REMSYN060AAXX  08154 47112 32965 03411 11060 21136 30136 40224 53005;EQDQ01  00002PRCP99
0183471120999992000020818004+37480+126630FM-12+007099999V0203401N003612200019N0150001N1-00671-01241102301ADDAA199000091GA1001+999999999GF100991001001999999001001MA1999999101421MD1210061+9999REMSYN070AAXX  08184 47112 32965 03407 11067 21124 30142 40230 52006 333 92022;EQDQ01  00002PRCP99
0173471120999992000020821004+37480+126630FM-12+007099999V0203401N005112200019N0150001N1-00721-01401102361ADDAA199000091GA1001+999999999GF100991001001999999001001MA1999999101471MD1210061+9999REMSYN060AAXX  08214 47112 32965 03410 11072 21140 30147 40236 52006;EQDQ01  00002PRCP99
0226471120999992000020900004+37480+126630FM-12+007099999V0203601N002112200019N0250001N1-00671-01331102431ADDAA199000091GA1001+999999999GF100991001001999999001001IA1019IA2999-00609KA1120N-00821MA1999999101551MD1210071+9999REMSYN082AAXX  09004 47112 32975 03604 11067 21133 30155 40243 52007 333 21082 30106 92033;EQDQ01  00002PRCP99
0173471120999992000020903004+37480+126630FM-12+007099999V0203401N002112200019N0250001N1-00341-01371102431ADDAA199000091GA1001+999999999GF100991001001999999001001MA1999999101561MD1310011+9999REMSYN060AAXX  09034 47112 32975 03404 11034 21137 30156 40243 53001;EQDQ01  00002PRCP99
0131471120999992000020909004+37480+126630FM-12+007099999V0202701N004619999999N9999999N1-00211-01181102291ADDAA199000091MA1999999101421MD1810031+9999REMSYN060AAXX  09094 47112 3//// /2709 11021 21118 30142 40229 58003;EQDQ01  00002PRCP99
0220471120999992000020912004+37480+126630FM-12+007099999V0203201N003612200019N0250001N1-00251-01571102291ADDAA199000091GA1001+999999999GF100991001001999999001001IA1019IA2999-00509KA1120M-00051MA1999999101421MD1510001+9999REMSYN076AAXX  09124 47112 32975 03207 11025 21157 30142 40229 55000 333 11005 30105;EQDQ01  00002PRCP99
0173471120999992000020915004+37480+126630FM-12+007099999V0203401N002112200019N0250001N1-00411-01251102311ADDAA199000091GA1001+999999999GF100991001001999999001001MA1999999101431MD1210011+9999REMSYN060AAXX  09154 47112 32975 03404 11041 21125 30143 40231 52001;EQDQ01  00002PRCP99
0183471120999992000020918004+37480+126630FM-12+007099999V0200201N001012200019N0250001N1-00491-01631102341ADDAA199000091GA1001+999999999GF100991001001999999001001MA1999999101461MD1210031+9999REMSYN070AAXX  09184 47112 32975 00202 11049 21163 30146 40234 52003 333 92000;EQDQ01  00002PRCP99
0173471120999992000020921004+37480+126630FM-12+007099999V0200501N000512200019N0220001N1-00611-01721102291ADDAA199000091GA1001+999999999GF100991001001999999001001MA1999999101401MD1710051+9999REMSYN060AAXX  09214 47112 32972 00501 11061 21172 30140 40229 57005;EQDQ01  00002PRCP99
0216471120999992000021000004+37480+126630FM-12+007099999V0201401N001010360019N0130001N1-00311-01721102351ADDAA199000091GF105991021051008001031001IA1019IA2999-00209KA1120N-00611MA1999999101481MD1210071+9999REMSYN088AAXX  10004 47112 32563 51402 11031 21172 30148 40235 52007 82530 333 21061 30102 92011;EQDQ01  00002PRCP99
0163471120999992000021003004+37480+126630FM-12+007099999V0202001N001510360019N0100001N1+00151-01541102251ADDAA199000091GF106991021051008001031001MA1999999101391MD1710081+9999REMSYN066AAXX  10034 47112 32560 62003 10015 21154 30139 40225 57008 82530;EQDQ01  00002PRCP99
0173471120999992000021006004+37480+126630FM-12+007099999V0202301N003112200019N0120001N1+00251-00881102011ADDAA199000091GF101991011051008001001001MA1999999101161MD1710241+9999REMSYN076AAXX  10064 47112 32562 12306 10025 21088 30116 40201 57024 81500 333 92011;EQDQ01  00002PRCP99
0173471120999992000021009004+37480+126630FM-12+007099999V0202501N003112200019N0200001N1+00041-00561102021ADDAA199000091GA1001+999999999GF100991001001999999001001MA1999999101161MD1010011+9999REMSYN060AAXX  10094 47112 32970 02506 10004 21056 30116 40202 50001;EQDQ01  00002PRCP99
0232471120999992000021012004+37480+126630FM-12+007099999V0201801N002612200019N0200001N1-00021-00321102011ADDAA199000091GA1001+999999999GF100991001001999999001001IA1019IA2999-00309KA1120M+00361MA1999999101151MD1510011+9999REMSYN088AAXX  10124 47112 32970 01805 11002 21032 30115 40201 55001 333 10036 30103 55065 92022;EQDQ01  00002PRCP99
0163471120999992000021015004+37480+126630FM-12+007099999V0201801N002110075019N0200001N1+00001-00281101981ADDAA199000091GF106991061051008001001001MA1999999101121MD1710031+9999REMSYN066AAXX  10154 47112 32570 61804 10000 21028 30112 40198 57003 86500;EQDQ01  00002PRCP99
0173471120999992000021018004+37480+126630FM-12+007099999V0201801N003110075019N0100001N1+00021-00281102001ADDAA199000091GF107991071051008001001001MA1999999101141MD1010021+9999REMSYN076AAXX  10184 47112 32560 71806 10002 21028 30114 40200 50002 87500 333 92022;EQDQ01  00002PRCP99
0191471120999992000021021004+37480+126630FM-12+007099999V0201801N002110075019N0050001N1+00011-00261101951ADDAA199000091AY121031AY221031GF106991061051008001001001MA1999999101091MD1010051+9999MW1101REMSYN072AAXX  10214 47112 31550 61804 10001 21026 30109 40195 50005 71022 86500;EQDQ01  00002PRCP99
0244471120999992000021100004+37480+126630FM-12+007099999V0202001N003612200019N0050001N1+00081-00181102011ADDAA199000091AY101061AY201061GF101991011051008001001001IA1019IA2999+00109KA1120N-00071MA1999999101151MD1010061+9999MW1101REMSYN094AAXX  11004 47112 32550 12007 10008 21018 30115 40201 50006 71000 81500 333 21007 30001 92022;EQDQ01  00002PRCP99
0131471120999992000021103004+37480+126630FM-12+007099999V0202701N003619999999N9999999N1+00401-00201102081ADDAA199000091MA1999999101231MD1210081+9999REMSYN060AAXX  11034 47112 3//// /2707 10040 21020 30123 40208 52008;EQDQ01  00002PRCP99
0173471120999992000021106004+37480+126630FM-12+007099999V0203201N005712200019N0110001N1+00431-00551101951ADDAA199000091GA1001+999999999GF100991001001999999001001MA1999999101111MD1810131+9999REMSYN060AAXX  11064 47112 32961 03211 10043 21055 30111 40195 58013;EQDQ01  00002PRCP99
0173471120999992000021109004+37480+126630FM-12+007099999V0202701N004112200019N0110001N1+00251-00401101971ADDAA199000091GA1001+999999999GF100991001001999999001001MA1999999101111MD1010011+9999REMSYN060AAXX  11094 47112 32961 02708 10025 21040 30111 40197 50001;EQDQ01  00002PRCP99
0232471120999992000021112004+37480+126630FM-12+007099999V0202701N004112200019N0120001N1+00141-00261102041ADDAA199000091GA1001+999999999GF100991001001999999001001IA1019IA2999+00009KA1120M+00551MA1999999101181MD1210071+9999REMSYN088AAXX  11124 47112 32962 02708 10014 21026 30118 40204 52007 333 10055 30000 55083 92011;EQDQ01  00002PRCP99
0173471120999992000021115004+37480+126630FM-12+007099999V0202901N003612200019N0120001N1+00111-00141102091ADDAA199000091GA1001+999999999GF100991001001999999001001MA1999999101231MD1310051+9999REMSYN060AAXX  11154 47112 32962 02907 10011 21014 30123 40209 53005;EQDQ01  00002PRCP99
0211471120999992000021118004+37480+126630FM-12+007099999V0202301N001012200019N0080001N1+00041-00091102031ADDAA199000091AY101061AY201061GA1001+999999999GF100991001001999999001001MA1999999101171MD1710061+9999MW1101REMSYN076AAXX  11184 47112 31958 02302 10004 21009 30117 40203 57006 71000 333 92011;EQDQ01  00002PRCP99
0201471120999992000021121004+37480+126630FM-12+007099999V0201801N002112200019N0070001N1-00021-00111102001ADDAA199000091AY101031AY201031GA1001+999999999GF100991001001999999001001MA1999999101131MD1810031+9999MW1101REMSYN066AAXX  11214 47112 31957 01804 11002 21011 30113 40200 58003 71000;EQDQ01  00002PRCP99
0254471120999992000021200004+37480+126630FM-12+007099999V0201801N003612200019N0012001N1+00081-00061102051ADDAA199000091AY101061AY201061GA1001+999999999GF100991001001999999001001IA1019IA2999+00109KA1120N-00031MA1999999101191MD1210051+9999MW1101REMSYN088AAXX  12004 47112 31912 01807 10008 21006 30119 40205 52005 71000 333 21003 30001 92022;EQDQ01  00002PRCP99
0191471120999992000021203004+37480+126630FM-12+007099999V0202001N004110075019N0012001N1+00481+00031102041ADDAA199000091AY121031AY221031GF107991051051008001011001MA1999999101201MD1310011+9999MW1101REMSYN072AAXX  12034 47112 31512 72008 10048 20003 30120 40204 53001 71022 85510;EQDQ01  00002PRCP99
0201471120999992000021206004+37480+126630FM-12+007099999V0202301N003112200019N0040001N1+00551+00001101851ADDAA199000091AY111061AY211061GF104991041051008001001001MA1999999101011MD1710191+9999MW1101REMSYN082AAXX  12064 47112 31540 42306 10055 20000 30101 40185 57019 71011 84500 333 92022;EQDQ01  00002PRCP99
0217471120999992000021209004+37480+126630FM-12+007099999V0202301N002612200019N0030001N1+00391+00041101861ADDAA199000091AY101031AY201031GA1001+999999999GF100991001001999999001001MA1999999101011MD1810011+9999MW1101REMSYN066AAXX  12094 47112 31930 02305 10039 20004 30101 40186 58000 71000;EQDQ01+000002APC3  Q02  00002PRCP99
0254471120999992000021212004+37480+126630FM-12+007099999V0203401N002612200019N0020001N1+00181+00001102001ADDAA199000091AY101061AY201061GA1001+999999999GF100991001001999999001001IA1019IA2999+00009KA1120M+00671MA1999999101151MD1210131+9999MW1101REMSYN088AAXX  12124 47112 31920 03405 10018 20000 30115 40200 52013 71000 333 10067 30100 92022;EQDQ01  00002PRCP99
0201471120999992000021215004+37480+126630FM-12+007099999V0202301N003112200019N0009001N1+00111+00031101981ADDAA199000091AY141031AY221031GA1001+999999999GF100991001001999999001001MA1999999101131MD1510021+9999MW1441REMSYN066AAXX  12154 47112 31909 02306 10011 20003 30113 40198 55002 74442;EQDQ01  00002PRCP99
0211471120999992000021218004+37480+126630FM-12+007099999V0202301N001012200019N0005001N1+00101+00061102011ADDAA199000091AY141061AY221061GA1001+999999999GF100991001001999999001001MA1999999101151MD1010031+9999MW1441REMSYN076AAXX  12184 47112 31905 02302 10010 20006 30115 40201 50003 74442 333 92022;EQDQ01  00002PRCP99
0201471120999992000021221004+37480+126630FM-12+007099999V0202701N001010001519N0001001N1-00091-00111102051ADDAA199000091AY141031AY241031GA1091+999999999GF109991091999999999999999MA1999999101191MD1210031+9999MW1451REMSYN066AAXX  12214 47112 31/01 92702 11009 21011 30119 40205 52003 74544;EQDQ01  00002PRCP99
0254471120999992000021300004+37480+126630FM-12+007099999V0202001N002610001519N0000001N1+00011+00001102151ADDAA199000091AY141061AY241061GA1091+999999999GF109991091999999999999999IA1019IA2999+00009KA1120N-00091MA1999999101291MD1210101+9999MW1471REMSYN088AAXX  13004 47112 31/00 92005 10001 20000 30129 40215 52010 74744 333 21009 30000 92011;EQDQ01  00002PRCP99
0201471120999992000021303004+37480+126630FM-12+007099999V0202301N003112200019N0007001N1+00291+00091102071ADDAA199000091AY141031AY241031GA1001+999999999GF100991001001999999001001MA1999999101221MD1710071+9999MW1441REMSYN066AAXX  13034 47112 31507 02306 10029 20009 30122 40207 57007 74444;EQDQ01  00002PRCP99
0201471120999992000021306004+37480+126630FM-12+007099999V0202301N003110075019N0040001N1+00451+00071101831ADDAA199000091AY141061AY221061GF106991061051008001001001MA1999999100991MD1710231+9999MW1281REMSYN082AAXX  13064 47112 31540 62306 10045 20007 30099 40183 57023 72842 86500 333 92011;EQDQ01  00002PRCP99
0149471120999992000021309004+37480+126630FM-12+007099999V0203401N002610006019N0006001N1+99999+99999999999ADDAA199000091GA1091+999999999GF109991091999999999999999REMSYN065AAXX  13094 47112 31/06 93405 1023 20014 30083 40168 57001 74744;EQDQ01  00002PRCP99
0260471120999992000021312004+37480+126630FM-12+007099999V0202701N000510003019N0005001N1+00081+00061101721ADDAA199000091AY141061AY241061GA1091+999999999GF109991091999999999999999IA1019IA2999+00009KA1120M+00521MA1999999100871MD1210031+9999MW1471REMSYN094AAXX  13124 47112 31/05 92701 10008 20006 30087 40172 52003 74744 333 10052 30000 55009 92022;EQDQ01  00002PRCP99
0201471120999992000021315004+37480+126630FM-12+007099999V0202501N001510003019N0005001N1+00081+00061101711ADDAA199000091AY141031AY241031GA1091+999999999GF109991091999999999999999MA1999999100851MD1710021+9999MW1451REMSYN066AAXX  13154 47112 31/05 92503 10008 20006 30085 40171 57002 74544;EQDQ01  00002PRCP99
0171471120999992000021318004+37480+126630FM-12+007099999V0203401N002110075019N0012001N1+00091+00051101591ADDAY171061AY271061GF108991061051008001021999MA1999999100731MD1710121+9999MW1711REMSYN082AAXX  13184 47112 41512 83404 10009 20005 30073 40159 57012 77177 8652/ 333 92022;
