0232471210999992000010100004+37180+128450FM-12+023999999V0209999C000012200019N0150001N1-00461-00541102981ADDAA106000091GA1001+999999999GF100991001001999999001001IA1289IA2999-00209KA1120N-00641MA1999999099951MD1210061+9999REMSYN088AAXX  01004 47121 32965 00000 11046 21054 39995 40298 52006 80006 333 21064 3/102 44///;EQDQ01  00002PRCP06
0163471210999992000010103004+37180+128450FM-12+023999999V0202301N001010360019N0200001N1+00431-00041102671ADDAA106000091GF106991011051012501031011MA1999999099751MD1710201+9999REMSYN066AAXX  01034 47121 32670 62302 10043 21004 39975 40267 57020 81531;EQDQ01  00002PRCP06
0163471210999992000010106004+37180+128450FM-12+023999999V0201101N002110360019N0250001N1+00761+00091102481ADDAA106000091GF108991041051012501021999MA1999999099601MD1810141+9999REMSYN066AAXX  01064 47121 32675 81104 10076 20009 39960 40248 58014 8452/;EQDQ01  00002PRCP06
0163471210999992000010109004+37180+128450FM-12+023999999V0200901N002610360019N0250001N1+00541+00071102491ADDAA106000091GF106991021051012501031001MA1999999099591MD1710011+9999REMSYN066AAXX  01094 47121 32675 60905 10054 20007 39959 40249 57001 82530;EQDQ01  00002PRCP06
0216471210999992000010112004+37180+128450FM-12+023999999V0201601N000512200019N0200001N1+00111-00031102531ADDAA106000091GF103991031001999999031001IA1149IA2999-00109KA1120M+00871MA1999999099571MD1710021+9999REMSYN088AAXX  01124 47121 32970 31601 10011 21003 39957 40253 57002 83030 333 10087 34101 55015;EQDQ01  00002PRCP06
0163471210999992000010115004+37180+128450FM-12+023999999V0203401N001010120019N0150001N1+00051-00061102381ADDAA106000091GF108991061051012501021999MA1999999099421MD1710151+9999REMSYN066AAXX  01154 47121 32665 83402 10005 21006 39942 40238 57015 8652/;EQDQ01  00002PRCP06
0163471210999992000010118004+37180+128450FM-12+023999999V0209999C000010120019N0150001N1+00051-00051102131ADDAA106000091GF108991061051012501021999MA1999999099181MD1710241+9999REMSYN066AAXX  01184 47121 32665 80000 10005 21005 39918 40213 57024 8652/;EQDQ01  00002PRCP06
0161471210999992000010121004+37180+128450FM-12+023999999V0202901N000510075019N0150001N1+00141+00031101851ADDAY161031AY261031GF108991061051008001021999MA1999999098921MD1710261+9999MW1601REMSYN072AAXX  01214 47121 41565 82901 10014 20003 39892 40185 57026 76066 8652/;
0186471210999992000010200004+37180+128450FM-12+023999999V0202701N001010120019N0200001N1+00231+00151101571ADDGF106991061051012501031001IA1149IA2999+00109KA1120N-00031MA1999999098661MD1710271+9999REMSYN088AAXX  02004 47121 12670 62702 10023 20015 39866 40157 57027 86530 333 21003 34001 44///;
0161471210999992000010203004+37180+128450FM-12+023999999V0202901N001510075019N0150001N1+00591+00421101351ADDAY121031AY221031GF108991061051008001021011MA1999999098481MD1710171+9999MW1211REMSYN072AAXX  02034 47121 41565 82903 10059 20042 39848 40135 57017 72122 86521;
0172471210999992000010206004+37180+128450FM-12+023999999V0202501N004610075019N0180001N1+00521+00041101421ADDAA106000021AY161061AY221061GF107991071051008001031001MA1999999098541MD1210061+9999MW1211REMSYN072AAXX  02064 47121 31568 72509 10052 20004 39854 40142 52006 72162 87530;
0133471210999992000010209004+37180+128450FM-12+023999999V0202501N004612200019N0180001N1+00371-00161101501ADDGF102991021051012501001001MA1999999098611MD1010071+9999REMSYN066AAXX  02094 47121 41668 22509 10037 21016 39861 40150 50007 82500;
0209471210999992000010212004+37180+128450FM-12+023999999V0202501N003612200019N0150001N1+00221-00271101631ADDAA112004191GF103991031051012501001001IA1149IA2999+00009KA1120M+00601MA1999999098721MD1210111+9999REMSYN100AAXX  02124 47121 11665 32507 10022 21027 39872 40163 52011 60042 83500 333 10060 34000 55002 70035;
0179471210999992000010215004+37180+128450FM-12+023999999V0202701N004112200019N0120001N1+00071-00471101731ADDAA106000091GF102991999051012501001001MA1999999098801MD1710081+9999REMSYN066AAXX  02154 47121 32662 22708 10007 21047 39880 40173 57008 81500;EQDQ01+000012SCOTLCQ02  00002PRCP06
0173471210999992000010218004+37180+128450FM-12+023999999V0202701N002112200019N0120001N1-00081-00631101921ADDAA106000091GA1001+999999999GF100991001001999999001001MA1999999098971MD1210171+9999REMSYN060AAXX  02184 47121 32962 02704 11008 21063 39897 40192 52017;EQDQ01  00002PRCP06
0179471210999992000010221004+37180+128450FM-12+023999999V0202701N002112200019N0120001N1-00231-00731102001ADDAA106000091GF102991999051999999001001MA1999999099021MD1310051+9999REMSYN066AAXX  02214 47121 32962 22704 11023 21073 39902 40200 53005 81500;EQDQ01+000012SCOTLCQ02  00002PRCP06
0226471210999992000010300004+37180+128450FM-12+023999999V0202501N001012200019N0200001N1-00301-00781102171ADDAA106000091GA1001+999999999GF100991001001999999001001IA1149IA2999-00309KA1120N-00411MA1999999099181MD1210171+9999REMSYN082AAXX  03004 47121 32970 02502 11030 21078 39918 40217 52017 333 21041 34103 70037;EQDQ01  00002PRCP06
0205471210999992000010303004+37180+128450FM-12+023999999V0202701N001012200019N0250001N1+00031-00821102141ADDAA106000091GA1001+999999999GF100991001001999999001001MA1999999099191MD1710031+9999REMSYN060AAXX  03034 47121 32975 02702 10003 21082 39919 40214 53000;EQDQ01+000032APCTENQ02+000002APC3  Q03  00002PRCP06
0163471210999992000010306004+37180+128450FM-12+023999999V0202501N003612200019N0250001N1+00211-01021102041ADDAA106000091GF101991001001999999001999MA1999999099111MD1810071+9999REMSYN066AAXX  03064 47121 32975 12507 10021 21102 39911 40204 58007 8000/;EQDQ01  00002PRCP06
0163471210999992000010309004+37180+128450FM-12+023999999V0202501N002612200019N0250001N1-00011-01031102291ADDAA106000091GF102991001001999999001011MA1999999099331MD1210211+9999REMSYN066AAXX  03094 47121 32975 22505 11001 21103 39933 40229 52021 80001;EQDQ01  00002PRCP06
0238471210999992000010312004+37180+128450FM-12+023999999V0203401N000512200019N0200001N1-00341-00831102411ADDAA106000091GF102991001001999999001011IA1149IA2999-00309KA1120M+00321MA1999999099411MD1210081+9999REMSYN094AAXX  03124 47121 32670 23401 11034 21083 39941 40241 52008 80001 333 10032 34103 44/// 55080;EQDQ01+012502SCOLCBQ02  00002PRCP06
0163471210999992000010315004+37180+128450FM-12+023999999V0202701N000512200019N0180001N1-00561-00811102571ADDAA106000091GF102991001001999999001999MA1999999099541MD1210131+9999REMSYN066AAXX  03154 47121 32968 22701 11056 21081 39954 40257 52013 8000/;EQDQ01  00002PRCP06
0127471210999992000010318004+37180+128450FM-12+023999999V0209999C000012200019N0150001N1-00611-00701102251ADDGF102991999999999999999999MA1999999099501MD1210021+9999REMSYN060AAXX  03184 47121 41965 20000 11061 21070 39950 40225 52002;
0173471210999992000010321004+37180+128450FM-12+023999999V0202901N001012200019N0120001N1-00801-00891102661ADDAA106000091GA1001+999999999GF100991001001999999001001MA1999999099601MD1210041+9999REMSYN060AAXX  03214 47121 32962 02902 11080 21089 39960 40266 52004;EQDQ01  00002PRCP06
0220471210999992000010400004+37180+128450FM-12+023999999V0209999C000012200019N0150001N1-00741-00841102731ADDAA106000091GA1001+999999999GF100991001001999999001001IA1149IA2999-00409KA1120N-00861MA1999999099681MD1210071+9999REMSYN076AAXX  04004 47121 32665 00000 11074 21084 39968 40273 52007 333 21086 34104;EQDQ01  00002PRCP06
0173471210999992000010403004+37180+128450FM-12+023999999V0209999C000012200019N0200001N1-00111-00721102661ADDAA106000091GA1001+999999999GF100991001001999999001001MA1999999099681MD1510001+9999REMSYN060AAXX  04034 47121 32970 00900 11011 21072 39968 40266 55000;EQDQ01  00002PRCP06
0163471210999992000010409004+37180+128450FM-12+023999999V0201801N001019999999N0150001N1+00121-00961102501ADDAA106000091GF105991001001999999001011MA1999999099551MD1210051+9999REMSYN066AAXX  04094 47121 32965 51802 10012 21096 39955 40250 52005 80001;EQDQ01  00002PRCP06
0216471210999992000010412004+37180+128450FM-12+023999999V0209999C000010120019N0120001N1-00081-00681102521ADDAA106000091GF108991061051012501011999IA1149IA2999-00109KA1120M+00411MA1999999099551MD1510001+9999REMSYN088AAXX  04124 47121 32662 80000 11008 21068 39955 40252 55000 8651/ 333 10041 34101 55055;EQDQ01  00002PRCP06
0163471210999992000010415004+37180+128450FM-12+023999999V0209999C000010120019N0120001N1-00111-00681102591ADDAA106000091GF108991061051012501011999MA1999999099611MD1210061+9999REMSYN066AAXX  04154 47121 32662 80000 11011 21068 39961 40259 52006 8651/;EQDQ01  00002PRCP06
0163471210999992000010418004+37180+128450FM-12+023999999V0209999C000010120019N0120001N1-00161-00601102501ADDAA106000091GF108991061051012501011999MA1999999099521MD1710091+9999REMSYN066AAXX  04184 47121 32662 80000 11016 21060 39952 40250 57009 8651/;EQDQ01  00002PRCP06
0163471210999992000010421004+37180+128450FM-12+023999999V0203201N000510120019N0120001N1-00091-00581102411ADDAA106000091GF108991061051012501011999MA1999999099431MD1710091+9999REMSYN066AAXX  04214 47121 32662 83201 11009 21058 39943 40241 57009 8651/;EQDQ01  00002PRCP06
0229471210999992000010500004+37180+128450FM-12+023999999V0203201N001010075019N0100001N1+00011-00301102341ADDAA112000791AY171061GF108991061071008001081999IA1289IA2999+00009KA1120N-00191MA1999999099301MD1710051+9999MW1701REMSYN106AAXX  05004 47121 11560 83202 10001 21030 39930 40234 57005 69902 7707/ 8678/ 333 21019 3/100 44/// 7000/;
0153471210999992000010503004+37180+128450FM-12+023999999V0202701N001010075019N0120001N1+00111+00051102151ADDAY161031GF108991051071008001021999MA1999999099211MD1510171+9999MW1611REMSYN072AAXX  05034 47121 41562 82702 10011 20005 39921 40215 55017 7616/ 8572/;
0161471210999992000010506004+37180+128450FM-12+023999999V0209999C000010075019N0050001N1+00181+00151102011ADDAY161061AY261061GF108991061071008001021999MA1999999099081MD1810131+9999MW1611REMSYN072AAXX  05064 47121 41550 80000 10018 20015 39908 40201 58013 76166 8672/;
0161471210999992000010509004+37180+128450FM-12+023999999V0202701N001010075019N0060001N1+00231+00211101921ADDAY161031AY261031GF108991061071008001021999MA1999999098991MD1810091+9999MW1611REMSYN072AAXX  05094 47121 41556 82702 10023 20021 39899 40192 58009 76166 8672/;
0237471210999992000010512004+37180+128450FM-12+023999999V0202901N001010075019N0080001N1+00241+00221101841ADDAA112008991AY161061AY261061GF108991051071008001021999IA1099IA2999+00209KA1120M+00261MA1999999098921MD1510071+9999MW1601REMSYN106AAXX  05124 47121 11558 82902 10024 20022 39892 40184 55007 60092 76066 8572/ 333 10026 31002 55000 70090;
0161471210999992000010515004+37180+128450FM-12+023999999V0202901N002110075019N0090001N1+00201+00181101621ADDAY161031AY261031GF108991061071008001021999MA1999999098701MD1710221+9999MW1601REMSYN072AAXX  05154 47121 41559 82904 10020 20018 39870 40162 57022 76066 8672/;
0161471210999992000010521004+37180+128450FM-12+023999999V0202901N001510075019N0050001N1+00361+00361101281ADDAY161031AY261031GF108991061071008001021999MA1999999098391MD1810061+9999MW1631REMSYN072AAXX  05214 47121 41550 82903 10036 20036 39839 40128 58006 76366 8672/;
0161471210999992000010603004+37180+128450FM-12+023999999V0202501N003610075019N0150001N1+00621+00481101311ADDAY161031AY261031GF108991061051008001021999MA1999999098441MD1310091+9999MW1211REMSYN072AAXX  06034 47121 41565 82507 10062 20048 39844 40131 53009 72166 8652/;
0161471210999992000010606004+37180+128450FM-12+023999999V0202501N004110075019N0150001N1+00431+00171101371ADDAY151061AY251061GF108991061051008001021999MA1999999098491MD1810051+9999MW1201REMSYN072AAXX  06064 47121 41565 82508 10043 20017 39849 40137 58005 72055 8652/;
0133471210999992000010609004+37180+128450FM-12+023999999V0202701N002110075019N0150001N1+00301-00171101521ADDGF106991061051008001001001MA1999999098621MD1210131+9999REMSYN066AAXX  06094 47121 41565 62704 10030 21017 39862 40152 52013 86500;
0203471210999992000010612004+37180+128450FM-12+023999999V0202701N004612200019N0180001N1-00031-00811101771ADDAA106000021GF104991041051008001001001IA1099IA2999+00009KA1120M+00681MA1999999098821MD1210211+9999REMSYN094AAXX  06124 47121 32568 42709 11003 21081 39882 40177 52021 84500 333 10068 31000 55000 70110;
0163471210999992000010615004+37180+128450FM-12+023999999V0202501N004612200019N0180001N1-00301-01061101851ADDAA106000091GF104991041051008001001001MA1999999098871MD1210051+9999REMSYN066AAXX  06154 47121 32568 42509 11030 21106 39887 40185 52005 84500;EQDQ01  00002PRCP06
0133471210999992000010621004+37180+128450FM-12+023999999V0202901N005712200019N0120001N1-00681-01831102181ADDGF102991021051008001001001MA1999999099151MD1210231+9999REMSYN066AAXX  06214 47121 41562 22911 11068 21183 39915 40218 52023 82500;
0213471210999992000010700004+37180+128450FM-12+023999999V0203201N003612200019N0250001N1-00881-01911102551ADDAA112000791GA1001+999999999GF100991001001999999001001IA1169IA2999-00609KA1120N-00891MA1999999099481MD1210331+9999REMSYN088AAXX  07004 47121 12975 03207 11088 21191 39948 40255 52033 69902 333 21089 35106 79999;
0163471210999992000010703004+37180+128450FM-12+023999999V0202501N004112200019N0250001N1-00571-01681102481ADDAA106000091GF101991011051012501001001MA1999999099461MD1510021+9999REMSYN066AAXX  07034 47121 32675 12508 11057 21168 39946 40248 55002 81500;EQDQ01  00002PRCP06
0133471210999992000010706004+37180+128450FM-12+023999999V0202501N004112200019N0250001N1-00441-01551102251ADDGF101991011051012501001001MA1999999099241MD1810211+9999REMSYN066AAXX  07064 47121 42675 12508 11044 21155 39924 40225 58021 81500;
0143471210999992000010709004+37180+128450FM-12+023999999V0202501N003112200019N0250001N1-00671-01551102381ADDGA1001+999999999GF100991001001999999001001MA1999999099351MD1210101+9999REMSYN060AAXX  07094 47121 42975 02506 11067 21155 39935 40238 52010;
0219471210999992000010712004+37180+128450FM-12+023999999V0202701N001512200019N0200001N1-00791-01401102401ADDAA112000791GA1001+999999999GF100991001001999999001001IA1149IA2999-00609KA1120M-00301MA1999999099351MD1510001+9999REMSYN094AAXX  07124 47121 12970 02703 11079 21140 39935 40240 55000 69902 333 11030 34106 55084 79999;
0143471210999992000010715004+37180+128450FM-12+023999999V0203201N000512200019N0200001N1+99999+99999999999ADDAA106000091GA1001+999999999GF100991001001999999001001REMSYN059AAXX  07154 47121 32970 03201 1109 21124 39936 40243 58001;EQDQ01  00002PRCP06
0161471210999992000010718004+37180+128450FM-12+023999999V0203201N000510042019N0030001N1-00871-01081102391ADDAY171061AY271061GF108991061071004501021999MA1999999099331MD1810031+9999MW1711REMSYN072AAXX  07184 47121 41430 83201 11087 21108 39933 40239 58003 77177 8672/;
0161471210999992000010721004+37180+128450FM-12+023999999V0202701N000510075019N0050001N1-00911-01031102411ADDAY171031AY271031GF108991061071008001021999MA1999999099341MD1010011+9999MW1711REMSYN072AAXX  07214 47121 41550 82701 11091 21103 39934 40241 50001 77177 8672/;
0237471210999992000010800004+37180+128450FM-12+023999999V0209999C000010075019N0100001N1-00781-00911102461ADDAA112000591AY171061AY271061GF105991051051008001001001IA1079IA2999-00209KA1120N-00951MA1999999099411MD1210061+9999MW1711REMSYN106AAXX  08004 47121 11560 50000 11078 21091 39941 40246 52006 69952 77177 85500 333 21095 38102 48/// 70005;
0153471210999992000010803004+37180+128450FM-12+023999999V0202301N001010360019N0180001N1-00191-00621102301ADDAW1711AZ171031GF106991021051008001031001MA1999999099311MD1510091+9999REMSYN072AAXX  08034 47121 14568 62302 11019 21062 39931 40230 55009 77177 82530;
0133471210999992000010806004+37180+128450FM-12+023999999V0202501N002112200019N0250001N1-00021-00611102221ADDGF104991041051008001001001MA1999999099261MD1810051+9999REMSYN066AAXX  08064 47121 41575 42504 11002 21061 39926 40222 58005 84500;
0133471210999992000010809004+37180+128450FM-12+023999999V0202701N002112200019N0200001N1-00231-00731102331ADDGF102991021051008001001001MA1999999099351MD1210091+9999REMSYN066AAXX  08094 47121 41570 22704 11023 21073 39935 40233 52009 82500;
0219471210999992000010812004+37180+128450FM-12+023999999V0203201N002112200019N0180001N1-00431-00721102531ADDAA112000191GA1001+999999999GF100991001001999999001001IA1149IA2999-00309KA1120M-00021MA1999999099521MD1310171+9999REMSYN094AAXX  08124 47121 11968 03204 11043 21072 39952 40253 53017 69912 333 11002 34103 55052 70006;
0127471210999992000010815004+37180+128450FM-12+023999999V0202701N000512200019N0180001N1-00701-00771102601ADDGF101991999999012501999999MA1999999099561MD1210041+9999REMSYN060AAXX  08154 47121 41668 12701 11070 21077 39956 40260 52004;
0173471210999992000010818004+37180+128450FM-12+023999999V0209999C000012200019N0150001N1-00811-00881102621ADDAA106000091GA1001+999999999GF100991001001999999001001MA1999999099561MD1010001+9999REMSYN060AAXX  08184 47121 32965 00000 11081 21088 39956 40262 50000;EQDQ01  00002PRCP06
0158471210999992000010821004+37180+128450FM-12+023999999V0202701N000512200019N0120001N1-00891-00991102671ADDAA106000091GA1001+999999999GF100991001001999999001001MA1999999099601REMSYN059AAXX  08214 47121 32962 02701 11089 21099 39960 40267 5004;EQDQ01  00002PRCP06
0216471210999992000010900004+37180+128450FM-12+023999999V0209999C000019999999N0120001N1-00781-00861102601ADDAA106000091GF107991001001999999001021IA1149IA2999-00309KA1120N-00911MA1999999099551MD1210051+9999REMSYN088AAXX  09004 47121 32962 70000 11078 21086 39955 40260 52005 80002 333 21091 34103 70001;EQDQ01  00002PRCP06
0163471210999992000010903004+37180+128450FM-12+023999999V0203201N000510360019N0120001N1-00491-00771102471ADDAA106000091GF108991021051012501021999MA1999999099451MD1510091+9999REMSYN066AAXX  09034 47121 32662 83201 11049 21077 39945 40247 55009 8252/;EQDQ01  00002PRCP06
0163471210999992000010909004+37180+128450FM-12+023999999V0209999C000010360019N0150001N1-00151-00701102051ADDAA106000091GF108991041051012501031999MA1999999099081MD1710061+9999REMSYN066AAXX  09094 47121 32665 80000 11015 21070 39908 40205 57006 8453/;EQDQ01  00002PRCP06
0202471210999992000010912004+37180+128450FM-12+023999999V0209999C000010360019N0150001N1-00171-00631102091ADDAA106000091GF108991031051012501031999IA1149IA2999+00009KA1120M-00121MA1999999099121REMSYN088AAXX  09124 47121 32665 82700 11017 21063 39912 40209 8353/ 333 11012 34000 44/// 55000;EQDQ01  00002PRCP06
0163471210999992000010915004+37180+128450FM-12+023999999V0209999C000010360019N0150001N1-00181-00631102101ADDAA106000091GF108991041051012501031999MA1999999099131MD1310051+9999REMSYN066AAXX  09154 47121 32665 80000 11018 21063 39913 40210 53005 8453/;EQDQ01  00002PRCP06
0163471210999992000010918004+37180+128450FM-12+023999999V0202701N001012200019N0150001N1-00241-00631102131ADDAA106000091GF102991021001999999031001MA1999999099151MD1010021+9999REMSYN066AAXX  09184 47121 32965 22702 11024 21063 39915 40213 50002 82030;EQDQ01  00002PRCP06
0163471210999992000010921004+37180+128450FM-12+023999999V0203401N001010360019N0120001N1-00191-00631102231ADDAA106000091GF108991031051012501011999MA1999999099251MD1210101+9999REMSYN066AAXX  09214 47121 32662 83402 11019 21063 39925 40223 52010 8351/;EQDQ01  00002PRCP06
0216471210999992000011000004+37180+128450FM-12+023999999V0209999C000010120019N0180001N1-00151-00451102341ADDAA106000091GF106991061051012501001001IA1149IA2999+00009KA1120N-00281MA1999999099371MD1210121+9999REMSYN088AAXX  10004 47121 32668 60000 11015 21045 39937 40234 52012 86500 333 21028 34100 44///;EQDQ01  00002PRCP06
0163471210999992000011003004+37180+128450FM-12+023999999V0202501N003112200019N0200001N1+00271-00641102371ADDAA106000091GF101991011051012501001001MA1999999099441MD1310071+9999REMSYN066AAXX  10034 47121 32670 12506 10027 21064 39944 40237 53007 81500;EQDQ01  00002PRCP06
0173471210999992000011006004+37180+128450FM-12+023999999V0202901N002612200019N0200001N1+00351-01141102321ADDAA106000091GA1001+999999999GF100991001001999999001001MA1999999099401MD1710041+9999REMSYN060AAXX  10064 47121 32970 02905 10035 21114 39940 40232 57004;EQDQ01  00002PRCP06
0173471210999992000011009004+37180+128450FM-12+023999999V0202901N001512200019N0200001N1+00071-00861102551ADDAA106000091GA1001+999999999GF100991001001999999001001MA1999999099591MD1210191+9999REMSYN060AAXX  10094 47121 32970 02903 10007 21086 39959 40255 52019;EQDQ01  00002PRCP06
0226471210999992000011012004+37180+128450FM-12+023999999V0209999C000012200019N0150001N1-00311-00731102781ADDAA106000091GA1001+999999999GF100991001001999999001001IA1149IA2999-00309KA1120M+00391MA1999999099771MD1210181+9999REMSYN082AAXX  10124 47121 32965 00000 11031 21073 39977 40278 52018 333 10039 34103 55070;EQDQ01  00002PRCP06
0173471210999992000011015004+37180+128450FM-12+023999999V0209999C000012200019N0150001N1-00581-00781102941ADDAA106000091GA1001+999999999GF100991001001999999001001MA1999999099901MD1210131+9999REMSYN060AAXX  10154 47121 32965 00000 11058 21078 39990 40294 52013;EQDQ01  00002PRCP06
0173471210999992000011018004+37180+128450FM-12+023999999V0209999C000012200019N0150001N1-00801-00891102981ADDAA106000091GA1001+999999999GF100991001001999999001001MA1999999099911MD1010011+9999REMSYN060AAXX  10184 47121 32965 00000 11080 21089 39991 40298 50001;EQDQ01  00002PRCP06
0173471210999992000011021004+37180+128450FM-12+023999999V0202701N000512200019N0120001N1-00961-01041103031ADDAA106000091GA1001+999999999GF100991001001999999001001MA1999999099941MD1210021+9999REMSYN060AAXX  10214 47121 32962 02701 11096 21104 39994 40303 52002;EQDQ01  00002PRCP06
0210471210999992000011100004+37180+128450FM-12+023999999V0209999C000012200019N0150001N1-00861-00961103141ADDAA106000091GF102991999999999999999999IA1149IA2999-00509KA1120N-01031MA1999999100061MD1210121+9999REMSYN082AAXX  11004 47121 32965 20000 11086 21096 30006 40314 52012 333 21103 34105 44///;EQDQ01  00002PRCP06
0163471210999992000011103004+37180+128450FM-12+023999999V0202001N001512200019N0250001N1+00101-00611102781ADDAA106000091GF103991001001999999001051MA1999999099821MD1510241+9999REMSYN066AAXX  11034 47121 32975 32003 10010 21061 39982 40278 55024 80005;EQDQ01  00002PRCP06
0163471210999992000011106004+37180+128450FM-12+023999999V0202301N000519999999N0300001N1+00621-00611102481ADDAA106000091GF107991001001999999001071MA1999999099581MD1710241+9999REMSYN066AAXX  11064 47121 32980 72301 10062 21061 39958 40248 57024 80007;EQDQ01  00002PRCP06
0163471210999992000011109004+37180+128450FM-12+023999999V0209999C000010120019N0300001N1+00441-00491102591ADDAA106000091GF107991051051012501001071MA1999999099671MD1210091+9999REMSYN066AAXX  11094 47121 32680 70000 10044 21049 39967 40259 52009 85507;EQDQ01  00002PRCP06
0216471210999992000011112004+37180+128450FM-12+023999999V0200501N004619999999N0250001N1+00281-00361102621ADDAA106000091GF108991081001999999021999IA1099IA2999+00109KA1120M+00661MA1999999099681MD1310021+9999REMSYN088AAXX  11124 47121 32975 80509 10028 21036 39968 40262 53002 8802/ 333 10066 31001 55063;EQDQ01  00002PRCP06
0163471210999992000011115004+37180+128450FM-12+023999999V0200701N001010120019N0250001N1+00261-00321102671ADDAA106000091GF108991051051012501021999MA1999999099731MD1310041+9999REMSYN066AAXX  11154 47121 32675 80702 10026 21032 39973 40267 53004 8552/;EQDQ01  00002PRCP06
0163471210999992000011118004+37180+128450FM-12+023999999V0200501N002610120019N0250001N1+00311-00221102491ADDAA106000091GF108991051051012501021999MA1999999099561MD1710171+9999REMSYN066AAXX  11184 47121 32675 80505 10031 21022 39956 40249 57017 8552/;EQDQ01  00002PRCP06
0163471210999992000011121004+37180+128450FM-12+023999999V0209999C000010120019N0250001N1+00161-00191102291ADDAA106000091GF108991051051012501021999MA1999999099351MD1710211+9999REMSYN066AAXX  11214 47121 32675 80000 10016 21019 39935 40229 57021 8552/;EQDQ01  00002PRCP06
0210471210999992000011200004+37180+128450FM-12+023999999V0201401N000510120019N0250001N1+00121-00151102301ADDAA106000091GF108991051051012501021999IA1099IA2999+00009KA1120N+00051MA1999999099361MD1310011+9999REMSYN082AAXX  12004 47121 32675 81401 10012 21015 39936 40230 53001 8552/ 333 20005 31000;EQDQ01  00002PRCP06
0163471210999992000011203004+37180+128450FM-12+023999999V0201601N000510360019N0200001N1+00641-00091102051ADDAA106000091GF108991041051012501021999MA1999999099161MD1510191+9999REMSYN066AAXX  12034 47121 32670 81601 10064 21009 39916 40205 55019 8452/;EQDQ01  00002PRCP06
0161471210999992000011206004+37180+128450FM-12+023999999V0200701N001510360019N0200001N1+00541+00161101831ADDAY161061AY261061GF108991021071008001021999MA1999999098951MD1710221+9999MW1601REMSYN072AAXX  12064 47121 41570 80703 10054 20016 39895 40183 57022 76066 8272/;
0161471210999992000011209004+37180+128450FM-12+023999999V0200501N001010120019N0200001N1+00471+00161101791ADDAY161031AY261031GF108991061051012501021999MA1999999098891MD1810051+9999MW1601REMSYN072AAXX  12094 47121 41670 80502 10047 20016 39889 40179 58005 76066 8652/;
0237471210999992000011212004+37180+128450FM-12+023999999V0200201N001010360019N0180001N1+00341+00131101731ADDAA112000191AY161061AY221061GF108991041051012501021999IA1099IA2999+00209KA1120M+00671MA1999999098821MD1710071+9999MW1211REMSYN106AAXX  12124 47121 11668 80202 10034 20013 39882 40173 57007 69922 72162 8452/ 333 10067 31002 55000 70002;
0133471210999992000011215004+37180+128450FM-12+023999999V0209999C000010360019N0150001N1+00261+00161101581ADDGF108991041051012501021999MA1999999098681MD1710151+9999REMSYN066AAXX  12154 47121 41665 80000 10026 20016 39868 40158 57015 8452/;
0161471210999992000011218004+37180+128450FM-12+023999999V0209999C000010120019N0120001N1+00181+00161101481ADDAY161061AY221061GF108991051051012501021999MA1999999098571MD1810111+9999MW1601REMSYN072AAXX  12184 47121 41662 80000 10018 20016 39857 40148 58011 76062 8552/;
0161471210999992000011221004+37180+128450FM-12+023999999V0209999C000010075019N0100001N1+00191+00181101391ADDAY161031AY261031GF108991051071008001021999MA1999999098481MD1810091+9999MW1611REMSYN072AAXX  12214 47121 41560 80000 10019 20018 39848 40139 58009 76166 8572/;
0231471210999992000011300004+37180+128450FM-12+023999999V0209999C000010075019N0060001N1+00181+00181101411ADDAA112003091AY161061AY261061GF108991051071008001021999IA1099IA2999+00309KA1120N+00161MA1999999098491MD1510011+9999MW1601REMSYN100AAXX  13004 47121 11556 80000 10018 20018 39849 40141 55001 60032 76066 8572/ 333 20016 31003 70032;
0196471210999992000011303004+37180+128450FM-12+023999999V0202501N002610042019N0120001N1+00251+00141101401ADDAY161031AY221031GF108991051061004501021999MA1999999098491MD1710011+9999MW1021REMSYN072AAXX  13034 47121 41462 82505 10025 20014 39849 40140 53000 70262 8562/;EQDQ01+000032APCTENQ02+000002APC3  
0133471210999992000011306004+37180+128450FM-12+023999999V02099999999990075019N0120001N1+00291-00181101351ADDGF108991051051008001021999MA1999999098451MD1810041+9999REMSYN066AAXX  13064 47121 42562 8270/ 10029 21018 39845 40135 58004 8552/;
0161471210999992000011309004+37180+128450FM-12+023999999V0202501N003610120019N0150001N1+00081-00371101581ADDAY171031AY221031GF108991051051012501021999MA1999999098651MD1210201+9999MW1021REMSYN072AAXX  13094 47121 41665 82507 10008 21037 39865 40158 52020 70272 8552/;
0209471210999992000011312004+37180+128450FM-12+023999999V0202701N002610075019N0100001N1-00041-00541101751ADDAA112000791GF107991071051008001001001IA1099IA2999+00009KA1120M+00431MA1999999098801MD1210151+9999REMSYN100AAXX  13124 47121 12560 72705 11004 21054 39880 40175 52015 69902 87500 333 10043 31000 55000 70032;
0163471210999992000011315004+37180+128450FM-12+023999999V0202301N001010120019N0100001N1-00081-00561101871ADDAA106000091GF108991061051012501011999MA1999999098911MD1210121+9999REMSYN066AAXX  13154 47121 32660 82302 11008 21056 39891 40187 52012 8651/;EQDQ01  00002PRCP06
0191471210999992000011318004+37180+128450FM-12+023999999V0202901N000510120019N0060001N1-00121-00561101941ADDAA106000091AY121061AY221061GF108991061051012501011999MA1999999098981MD1010071+9999MW1101REMSYN072AAXX  13184 47121 31656 82901 11012 21056 39898 40194 50007 71022 8651/;EQDQ01  00002PRCP06
0195471210999992000011321004+37180+128450FM-12+023999999V0203401N001010120019N0060001N1-00161-00521102021ADDAA199000091AY121031AY221031GF108991061051012501011999MA1999999099051MD1210071+9999MW1101REMSYN076    AAXX  13214 47121 31656 83402 11016 21052 39905 40202 52007 71022 8651/;EQDQ01  00002PRCP99
0248471210999992000011400004+37180+128450FM-12+023999999V0202501N001010900019N0090001N1-00201-00471102261ADDAA199000091AY121061AY221061GF108991031051012501001021IA1149IA2999+00009KA1120N-00231MA1999999099281MD1210231+9999MW1101REMSYN098    AAXX  14004 47121 31659 82502 11020 21047 39928 40226 52023 71022 83502 333 21023 34100 44///;EQDQ01  00002PRCP99
0167471210999992000011403004+37180+128450FM-12+023999999V0202701N002110120019N0120001N1+00021-00491102191ADDAA199000091GF105991051051012501001001MA1999999099241MD1710041+9999REMSYN070    AAXX  14034 47121 32662 52704 10002 21049 39924 40219 57004 85500;EQDQ01  00002PRCP99
0167471210999992000011406004+37180+128450FM-12+023999999V0202501N001510120019N0150001N1+00151-00461102071ADDAA199000091GF107991061051012501001021MA1999999099141MD1810101+9999REMSYN070    AAXX  14064 47121 32665 72503 10015 21046 39914 40207 58010 86502;EQDQ01  00002PRCP99
0167471210999992000011409004+37180+128450FM-12+023999999V0202701N002610360019N0120001N1-00031-00531102331ADDAA199000091GF108991041051012501021999MA1999999099371MD1210231+9999REMSYN070    AAXX  14094 47121 32662 82705 11003 21053 39937 40233 52023 8452/;EQDQ01  00002PRCP99
0220471210999992000011412004+37180+128450FM-12+023999999V0202501N002110360019N0120001N1-00091-00661102471ADDAA199000091GF108991031051012501021999IA1099IA2999+00009KA1120M+00231MA1999999099501MD1210131+9999REMSYN092    AAXX  14124 47121 32662 82504 11009 21066 39950 40247 52013 8352/ 333 10023 31100 55009;EQDQ01  00002PRCP99
0167471210999992000011415004+37180+128450FM-12+023999999V0209999C000010360019N0120001N1-00131-00751102461ADDAA199000091GF106991021051012501031001MA1999999099481MD1310011+9999REMSYN070    AAXX  14154 47121 32662 60000 11013 21075 39948 40246 53001 82530;EQDQ01  00002PRCP99
0195471210999992000011418004+37180+128450FM-12+023999999V0201401N000510360019N0080001N1-00341-00631102611ADDAA199000091AY121061AY221061GF107991031051012501031001MA1999999099601MD1010121+9999MW1101REMSYN076    AAXX  14184 47121 31658 71401 11034 21063 39960 40261 50012 71022 83530;EQDQ01  00002PRCP99
0195471210999992000011421004+37180+128450FM-12+023999999V0209999C000012200019N0060001N1-00551-00711102611ADDAA199000091AY121031AY221031GF104991021051012501031001MA1999999099581MD1810021+9999MW1101REMSYN076    AAXX  14214 47121 31656 40000 11055 21071 39958 40261 58002 71022 82530;EQDQ01  00002PRCP99
0214471210999992000011500004+37180+128450FM-12+023999999V0201101N001012200019N0100001N1-00551-00681102781ADDAA199000091GF102991001001999999001021IA1149IA2999-00309KA1120N-00711MA1999999099741MD1210161+9999REMSYN086    AAXX  15004 47121 32960 21102 11055 21068 39974 40278 52016 80002 333 21071 34103;EQDQ01  00002PRCP99
0167471210999992000011503004+37180+128450FM-12+023999999V0201801N001012200019N0120001N1+00011-00631102701ADDAA199000091GF102991001001999999001011MA1999999099731MD1310011+9999REMSYN070    AAXX  15034 47121 32962 21802 10001 21063 39973 40270 53001 80001;EQDQ01  00002PRCP99
0167471210999992000011506004+37180+128450FM-12+023999999V0201801N002119999999N0150001N1+00361-00631102341ADDAA199000091GF106991001001999999001021MA1999999099421MD1710311+9999REMSYN070    AAXX  15064 47121 32965 61804 10036 21063 39942 40234 57031 80002;EQDQ01  00002PRCP99
0167471210999992000011509004+37180+128450FM-12+023999999V0209999C000012200019N0150001N1+00111-00651102441ADDAA199000091GF103991001001999999001021MA1999999099491MD1810071+9999REMSYN070    AAXX  15094 47121 32965 30000 10011 21065 39949 40244 58007 80002;EQDQ01  00002PRCP99
0226471210999992000011512004+37180+128450FM-12+023999999V0203401N000512200019N0150001N1-00181-00501102561ADDAA199000091GF102991001001999999001011IA1149IA2999-00209KA1120M+00531MA1999999099581MD1310091+9999REMSYN098    AAXX  15124 47121 32965 23401 11018 21050 39958 40256 53009 80001 333 10053 34102 44/// 55072;EQDQ01  00002PRCP99
0167471210999992000011515004+37180+128450FM-12+023999999V0209999C000012200019N0150001N1-00361-00551102571ADDAA199000091GF102991001001999999001011MA1999999099561MD1710021+9999REMSYN070    AAXX  15154 47121 32965 20000 11036 21055 39956 40257 57002 80001;EQDQ01  00002PRCP99
0167471210999992000011518004+37180+128450FM-12+023999999V0209999C000012200019N0120001N1-00371-00511102511ADDAA199000091GF103991001001999999001011MA1999999099501MD1810061+9999REMSYN070    AAXX  15184 47121 32962 33200 11037 21051 39950 40251 58006 80001;EQDQ01  00002PRCP99
0195471210999992000011521004+37180+128450FM-12+023999999V0209999C000012200019N0080001N1-00331-00461102391ADDAA199000091AY111031AY201031GF104991001001999999001021MA1999999099391MD1710111+9999MW1101REMSYN076    AAXX  15214 47121 32958 40000 11033 21046 39939 40239 57011 71010 80002;EQDQ01  00002PRCP99
0248471210999992000011600004+37180+128450FM-12+023999999V0209999C000019999999N0090001N1-00271-00401102441ADDAA199000091AY121061AY221061GF108991081001999999021999IA1149IA2999+00009KA1120N-00401MA1999999099451MD1310061+9999MW1101REMSYN098    AAXX  16004 47121 31959 80000 11027 21040 39945 40244 53006 71022 8802/ 333 21040 34100 44///;EQDQ01  00002PRCP99
0177471210999992000011603004+37180+128450FM-12+023999999V0200501N001012200019N0150001N1+00401-00311102211ADDAA199000091GA1001+999999999GF100991001001999999001001MA1999999099301MD1710151+9999REMSYN064    AAXX  16034 47121 32965 00502 10040 21031 39930 40221 57015;EQDQ01  00002PRCP99
0177471210999992000011606004+37180+128450FM-12+023999999V0202701N001512200019N0250001N1+00751-00821101871ADDAA199000091GA1001+999999999GF100991001001999999001001MA1999999099001MD1710291+9999REMSYN064    AAXX  16064 47121 32975 02703 10075 21082 39900 40187 57029;EQDQ01  00002PRCP99
0167471210999992000011609004+37180+128450FM-12+023999999V0202901N001019999999N0250001N1+00431-00511102021ADDAA199000091GF105991001001999999001021MA1999999099111MD1210111+9999REMSYN070    AAXX  16094 47121 32975 52902 10043 21051 39911 40202 52011 80002;EQDQ01  00002PRCP99
0220471210999992000011612004+37180+128450FM-12+023999999V0209999C000012200019N0200001N1-00021-00501102171ADDAA199000091GF102991001001999999001011IA1019IA2999-00209KA1120M+00811MA1999999099211MD1210101+9999REMSYN092    AAXX  16124 47121 32970 20000 11002 21050 39921 40217 52010 80001 333 10081 30102 55067;EQDQ01  00002PRCP99
0167471210999992000011615004+37180+128450FM-12+023999999V0202901N001012200019N0150001N1-00231-00511102211ADDAA199000091GF102991001001999999001011MA1999999099231MD1310011+9999REMSYN070    AAXX  16154 47121 32965 22902 11023 21051 39923 40221 53001 80001;EQDQ01  00002PRCP99
0177471210999992000011618004+37180+128450FM-12+023999999V0209999C000012200019N0120001N1-00471-00571102231ADDAA199000091GA1001+999999999GF100991001001999999001001MA1999999099221MD1310011+9999REMSYN064    AAXX  16184 47121 32962 00000 11047 21057 39922 40223 53001;EQDQ01  00002PRCP99
0195471210999992000011621004+37180+128450FM-12+023999999V0202701N001012200019N0070001N1-00571-00631102131ADDAA199000091AY111031AY201031GF103991001001999999001999MA1999999099111MD1710111+9999MW1101REMSYN076    AAXX  16214 47121 31957 32702 11057 21063 39911 40213 57011 71010 8000/;EQDQ01  00002PRCP99
0214471210999992000011700004+37180+128450FM-12+023999999V0209999C000010900019N0120001N1-00391-00481102251ADDAA199000091GF107991021051012501001081IA1019IA2999+00009KA1120N-00581MA1999999099251MD1210141+9999REMSYN086    AAXX  17004 47121 32662 70000 11039 21048 39925 40225 52014 82508 333 21058 30100;EQDQ01  00002PRCP99
0167471210999992000011703004+37180+128450FM-12+023999999V0203401N001010120019N0150001N1+00051-00461102091ADDAA199000091GF108991061051012501001071MA1999999099141MD1510111+9999REMSYN070    AAXX  17034 47121 32665 83402 10005 21046 39914 40209 55011 86507;EQDQ01  00002PRCP99
0167471210999992000011706004+37180+128450FM-12+023999999V0202701N000510120019N0180001N1+00351-00301101831ADDAA199000091GF106991061051012501001001MA1999999098921MD1710221+9999REMSYN070    AAXX  17064 47121 32668 62701 10035 21030 39892 40183 57022 86500;EQDQ01  00002PRCP99
0167471210999992000011709004+37180+128450FM-12+023999999V0202901N001510120019N0200001N1+00241-00361102011ADDAA199000091GF106991061051012501001001MA1999999099091MD1210171+9999REMSYN070    AAXX  17094 47121 32670 62903 10024 21036 39909 40201 52017 86500;EQDQ01  00002PRCP99
0220471210999992000011712004+37180+128450FM-12+023999999V0202901N001010360019N0150001N1-00041-00391102111ADDAA199000091GF106991021051012501031001IA1019IA2999-00109KA1120M+00411MA1999999099161MD1210071+9999REMSYN092    AAXX  17124 47121 32665 62902 11004 21039 39916 40211 52007 82530 333 10041 30101 55002;EQDQ01  00002PRCP99
0167471210999992000011715004+37180+128450FM-12+023999999V0202701N001510360019N0150001N1-00081-00401102121ADDAA199000091GF107991031051012501031001MA1999999099161MD1410001+9999REMSYN070    AAXX  17154 47121 32665 72703 11008 21040 39916 40212 54000 83530;EQDQ01  00002PRCP99
0195471210999992000011721004+37180+128450FM-12+023999999V0202901N001510120019N0060001N1-00131-00461102101ADDAA199000091AY121031AY221031GF108991051051012501021999MA1999999099131MD1710041+9999MW1101REMSYN076    AAXX  17214 47121 31656 82903 11013 21046 39913 40210 57004 71022 8552/;EQDQ01  00002PRCP99
0242471210999992000011800004+37180+128450FM-12+023999999V0203201N001510360019N0060001N1-00121-00441102171ADDAA199000091AY121061AY221061GF107991041051012501011001IA1019IA2999+00009KA1120N-00161MA1999999099201MD1210071+9999MW1101REMSYN092    AAXX  18004 47121 31656 73203 11012 21044 39920 40217 52007 71022 84510 333 21016 30000;EQDQ01  00002PRCP99
0167471210999992000011803004+37180+128450FM-12+023999999V0203401N002612200019N0120001N1+00121-00541102051ADDAA199000091GF104991041051012501001001MA1999999099111MD1510091+9999REMSYN070    AAXX  18034 47121 32662 43405 10012 21054 39911 40205 55009 84500;EQDQ01  00002PRCP99
0167471210999992000011806004+37180+128450FM-12+023999999V0202301N003112200019N0180001N1+00281-00801101841ADDAA199000091GF101991011051012501001001MA1999999098921MD1710191+9999REMSYN070    AAXX  18064 47121 32668 12306 10028 21080 39892 40184 57019 81500;EQDQ01  00002PRCP99
0177471210999992000011809004+37180+128450FM-12+023999999V0202701N002112200019N0180001N1+00051-01161101911ADDAA199000091GA1001+999999999GF100991001001999999001001MA1999999098971MD1010041+9999REMSYN064    AAXX  18094 47121 32968 02704 10005 21116 39897 40191 50004;EQDQ01  00002PRCP99
0230471210999992000011812004+37180+128450FM-12+023999999V0203201N000512200019N0180001N1-00181-01001102101ADDAA199000091GA1001+999999999GF100991001001999999001001IA1019IA2999-00309KA1120M+00361MA1999999099131MD1210161+9999REMSYN086    AAXX  18124 47121 32968 03201 11018 21100 39913 40210 52016 333 10036 30103 55063;EQDQ01  00002PRCP99
0177471210999992000011815004+37180+128450FM-12+023999999V0203201N000512200019N0150001N1-00471-00931102151ADDAA199000091GA1001+999999999GF100991001001999999001001MA1999999099141MD1510011+9999REMSYN064    AAXX  18154 47121 32965 03201 11047 21093 39914 40215 55001;EQDQ01  00002PRCP99
0177471210999992000011818004+37180+128450FM-12+023999999V0203201N000512200019N0150001N1-00731-00901102071ADDAA199000091GA1001+999999999GF100991001001999999001001MA1999999099031MD1710111+9999REMSYN064    AAXX  18184 47121 32965 03201 11073 21090 39903 40207 57011;EQDQ01  00002PRCP99
0167471210999992000011821004+37180+128450FM-12+023999999V0202701N002110360019N0150001N1-00711-00871101931ADDAA199000091GF108991031051012501021999MA1999999098901MD1810131+9999REMSYN070    AAXX  18214 47121 32665 82704 11071 21087 39890 40193 58013 8352/;EQDQ01  00002PRCP99
0217471210999992000011900004+37180+128450FM-12+023999999V0209999C000010075019N0080001N1-00611-00711101861ADDAA112000391AY171061AY271061GF108991061071008001021999KA1120N-00811MA1999999098851MD1710051+9999MW1731REMSYN104    AAXX  19004 47121 11558 80000 11061 21071 39885 40186 57005 69932 77377 8672/ 333 21081 49005 70003;
0165471210999992000011903004+37180+128450FM-12+023999999V0202701N001510075019N0150001N1-00181-00581101831ADDAY171031AY271031GF108991061071008001021999MA1999999098871MD1310021+9999MW1701REMSYN076    AAXX  19034 47121 41565 82703 11018 21058 39887 40183 53002 77077 8672/;
0137471210999992000011909004+37180+128450FM-12+023999999V0202901N003112200019N0200001N1-00621-01191102101ADDGF103991021051012501031001MA1999999099081MD1210221+9999REMSYN070    AAXX  19094 47121 42670 32906 11062 21119 39908 40210 52022 82530;
0239471210999992000011912004+37180+128450FM-12+023999999V0202501N004110120019N0120001N1-00741-01401102321ADDAA112002091AY171061GF106991061051012501999999IA1019IA2999-00209KA1120M-00101MA1999999099281MD1210201+9999MW1221REMSYN116    AAXX  19124 47121 11662 62508 11074 21140 39928 40232 52020 60022 7227/ 865// 333 11010 30102 43/// 55020 70017;
0148471210999992000011915004+37180+128450FM-12+023999999V0202501N002612200019N0150001N1-00931-01441102491ADDAA199000021GF102991021051012501001001MA1999999099421MD1210141+9999REMSYN070    AAXX  19154 47121 32665 22505 11093 21144 39942 40249 52014 82500;
0163471210999992000011918004+37180+128450FM-12+023999999V0202501N002112200019N0120001N1-01001-01451102611ADDAA199000021GF104991999051012501001001MA1999999099521MD1210111+9999REMSYN066AAXX  19184 47121 32662 42504 11100 21145 39952 40261 52011 86500;EQDQ01+000062SCOTLC
0161471210999992000011921004+37180+128450FM-12+023999999V0202501N002610120019N0100001N1-01001-01441102721ADDAY171031AY271031GF108991061051012501011999MA1999999099641MD1210111+9999MW1701REMSYN072AAXX  19214 47121 41660 82505 11100 21144 39964 40272 52011 77077 8651/;
0209471210999992000012000004+37180+128450FM-12+023999999V0202701N002112200019N0180001N1-01051-01771103011ADDAA112000791GF103991031051012501001001IA1129IA2999-00409KA1120N-01091MA1999999099911MD1210271+9999REMSYN100AAXX  20004 47121 11668 32704 11105 21177 39991 40301 52027 69902 83500 333 21109 33104 43/// 70014;
0133471210999992000012006004+37180+128450FM-12+023999999V0202901N002612200019N0300001N1-00631-02011103021ADDGF101991011051012501001001MA1999999099971MD1810031+9999REMSYN066AAXX  20064 47121 41680 12905 11063 21201 39997 40302 58003 81500;
0154471210999992000012009004+37180+128450FM-12+023999999V0202501N003112200019N0250001N1-00801-01881103271ADDAA199000021GA1001+999999999GF100991001001999999001001MA1999999100191MD1210221+9999REMSYN060AAXX  20094 47121 32975 02506 11080 21188 30019 40327 52022;
0208471210999992000012012004+37180+128450FM-12+023999999V0209999C000012200019N0250001N1-00961-01871103491ADDAA199000091GA1001+999999999GF100991001001999999001001KA1120M-00581MA1999999100391MD1210201+9999REMSYN082AAXX  20124 47121 32975 00000 11096 21187 30039 40349 52020 333 11058 44000 55080;EQDQ01  00002PRCP99
0173471210999992000012015004+37180+128450FM-12+023999999V0202701N002112200019N0250001N1-01261-01661103631ADDAA199000091GA1001+999999999GF100991001001999999001001MA1999999100481MD1210101+9999REMSYN060AAXX  20154 47121 32975 02704 11126 21166 30048 40363 52010;EQDQ01  00002PRCP99
0173471210999992000012018004+37180+128450FM-12+023999999V0202701N002112200019N0250001N1-01361-01651103731ADDAA199000091GA1001+999999999GF100991001001999999001001MA1999999100581MD1210091+9999REMSYN060AAXX  20184 47121 32975 02704 11136 21165 30058 40373 52009;EQDQ01  00002PRCP99
0173471210999992000012021004+37180+128450FM-12+023999999V0209999C000012200019N0250001N1-01531-01731103871ADDAA199000091GA1001+999999999GF100991001001999999001001MA1999999100691MD1310111+9999REMSYN060AAXX  20214 47121 32975 00000 11153 21173 30069 40387 53011;EQDQ01  00002PRCP99
0243471210999992000012100004+37180+128450FM-12+023999999V0209999C000012200019N0250001N1-01411-01631104091ADDAA199000091AJ100029199999999GA1001+999999999GF100991001001999999001001IA1309IA2999-00809KA1120N-01661MA1999999100921MD1210231+9999REMSYN082AAXX  21004 47121 32975 00000 11141 21163 30092 40409 52023 333 21166 3/108 42002;EQDQ01  00002PRCP99
0173471210999992000012103004+37180+128450FM-12+023999999V0202701N001012200019N0250001N1-00711-01661103921ADDAA199000091GA1001+999999999GF100991001001999999001001MA1999999100831MD1510091+9999REMSYN060AAXX  21034 47121 32975 02702 11071 21166 30083 40392 55009;EQDQ01  00002PRCP99
0163471210999992000012106004+37180+128450FM-12+023999999V0203401N001512200019N0250001N1-00311-01781103721ADDAA199000091GF102991001001999999001011MA1999999100691MD1810141+9999REMSYN066AAXX  21064 47121 32975 23403 11031 21178 30069 40372 58014 80001;EQDQ01  00002PRCP99
0173471210999992000012109004+37180+128450FM-12+023999999V0202901N001012200019N0250001N1-00451-01561103841ADDAA199000091GA1001+999999999GF100991001001999999001001MA1999999100781MD1210101+9999REMSYN060AAXX  21094 47121 32975 02902 11045 21156 30078 40384 52010;EQDQ01  00002PRCP99
0238471210999992000012112004+37180+128450FM-12+023999999V0200901N001012200019N0200001N1-00811-01321103951ADDAA199000091GF102991001001999999001011IA1099IA2999-00609KA1120M-00211MA1999999100851MD1310071+9999REMSYN094AAXX  21124 47121 32970 20902 11081 21132 30085 40395 53007 82001 333 11021 31106 41/// 55091;EQDQ01+000022SCOTLCQ02  00002PRCP99
0179471210999992000012115004+37180+128450FM-12+023999999V0209999C000012200019N0150001N1-01041-01341103921ADDAA199000091GF103991001001999999001081MA1999999100801MD1710061+9999REMSYN066AAXX  21154 47121 32965 30000 11104 21134 30080 40392 57006 83008;EQDQ01+000032SCOTLCQ02  00002PRCP99
0179471210999992000012118004+37180+128450FM-12+023999999V0202901N001019999999N0120001N1-01181-01351103821ADDAA199000091GF106991001001999999001091MA1999999100681MD1710121+9999REMSYN066AAXX  21184 47121 32962 62902 11118 21135 30068 40382 57012 86009;EQDQ01+000062SCOTLCQ02  00002PRCP99
0191471210999992000012121004+37180+128450FM-12+023999999V0209999C000012200019N0080001N1-01101-01281103761ADDAA199000091AY101031AY201031GF103991001001999999001021MA1999999100631MD1810051+9999MW1101REMSYN072AAXX  21214 47121 32958 30000 11110 21128 30063 40376 58005 71000 80002;EQDQ01  00002PRCP99
0163471210999992000012203004+37180+128450FM-12+023999999V0209999C000019999999N0150001N1-00351-01251103361ADDAA199000091GF107991001001999999001021MA1999999100331MD1710251+9999REMSYN066AAXX  22034 47121 32965 70000 11035 21125 30033 40336 57025 80002;EQDQ01  00002PRCP99
0163471210999992000012206004+37180+128450FM-12+023999999V0202001N001010360019N0200001N1+00241-01481102831ADDAA199000091GF107991031051012501031001MA1999999099891MD1710441+9999REMSYN066AAXX  22064 47121 32670 72002 10024 21148 39989 40283 57044 83530;EQDQ01  00002PRCP99
0163471210999992000012209004+37180+128450FM-12+023999999V0202701N000510360019N0200001N1+00211-00911102761ADDAA199000091GF108991031051012501021999MA1999999099811MD1710081+9999REMSYN066AAXX  22094 47121 32670 82701 10021 21091 39981 40276 57008 8352/;EQDQ01  00002PRCP99
0279471210999992000012212004+37180+128450FM-12+023999999V0209999C000010042019N0020001N1-00151-00201102801ADDAA112001091AJ100039199999999AY171061AY271061GF108991061071004501021999IA1239IA2999+00009KA1120M+00321MA1999999099811MD1310041+9999MW1731REMSYN112AAXX  22124 47121 11420 80000 11015 21020 39981 40280 53000 60012 77377 8672/ 333 10032 3/000 47003 55027 70012;EQDQ01+000002APC3  
0161471210999992000012215004+37180+128450FM-12+023999999V0209999C000010075019N0030001N1-00151-00181102611ADDAY171031AY271031GF108991061071008001021999MA1999999099631MD1710181+9999MW1711REMSYN072AAXX  22154 47121 41530 80000 11015 21018 39963 40261 57018 77177 8672/;
0161471210999992000012218004+37180+128450FM-12+023999999V0209999C000010042019N0030001N1-00141-00161102431ADDAY171061AY271061GF108991061071004501021999MA1999999099451MD1710181+9999MW1711REMSYN072AAXX  22184 47121 41430 80000 11014 21016 39945 40243 57018 77177 8672/;
0161471210999992000012221004+37180+128450FM-12+023999999V0209999C000010042019N0030001N1-00131-00151102261ADDAY171031AY261031GF108991061071004501021999MA1999999099291MD1710161+9999MW1711REMSYN072AAXX  22214 47121 41430 80000 11013 21015 39929 40226 57016 77176 8672/;
0218471210999992000012300004+37180+128450FM-12+023999999V0209999C000010075019N0020001N1-00061-00091102331ADDAA112003091AY171061AY271061GF108991051071008001021999IA1029IA2999+00009MA1999999099361MD1210081+9999MW1701REMSYN100AAXX  23004 47121 11520 80000 11006 21009 39936 40233 52008 60032 77077 8572/ 333 39000 49/// 70033;
0133471210999992000012303004+37180+128450FM-12+023999999V0203401N000510120019N0120001N1+00131-00041102321ADDGF108991061071012501021999MA1999999099371MD1310011+9999REMSYN066AAXX  23034 47121 41662 83401 10013 21004 39937 40232 53001 8672/;
0144471210999992000012306004+37180+128450FM-12+023999999V0200901N001010075019N0150001N1+00441+00191102231ADDAA199000021GF107991071051008001001001MA1999999099321MD1810061+9999REMSYN066AAXX  23064 47121 32565 70902 10044 20019 39932 40223 58006 87500;
0144471210999992000012309004+37180+128450FM-12+023999999V0202501N001010120019N0150001N1+00291+00091102371ADDAA199000021GF108991061051012501021999MA1999999099441MD1210121+9999REMSYN066AAXX  23094 47121 32665 82502 10029 20009 39944 40237 52012 8652/;
0209471210999992000012312004+37180+128450FM-12+023999999V0203201N001010360019N0120001N1+00221+00081102491ADDAA112000591GF106991021051012501031001IA1099IA2999+00009KA1120M+00451MA1999999099551MD1210111+9999REMSYN100AAXX  23124 47121 12662 63202 10022 20008 39955 40249 52011 69942 82530 333 10045 31000 55001 70033;
0152471210999992000012315004+37180+128450FM-12+023999999V0209999C000019999999N0120001N1+00021-00061102561ADDGF108991999001999999031001MA1999999099591MD1210041+9999REMSYN066AAXX  23154 47121 42962 80000 10002 21006 39959 40256 52004 83030;EQDQ01+000032SCOTLC
0163471210999992000012318004+37180+128450FM-12+023999999V0203201N002110120019N0120001N1-00031-00191102671ADDAA199000091GF107991071051012501001001MA1999999099701MD1210101+9999REMSYN066AAXX  23184 47121 32662 73204 11003 21019 39970 40267 52010 87500;EQDQ01  00002PRCP99
0163471210999992000012321004+37180+128450FM-12+023999999V0203201N002119999999N0150001N1-00131-00451102731ADDAA199000091GF106991021051999999031001MA1999999099741MD1010041+9999REMSYN066AAXX  23214 47121 32965 63204 11013 21045 39974 40273 50004 82530;EQDQ01  00002PRCP99
0216471210999992000012400004+37180+128450FM-12+023999999V0202701N001510120019N0180001N1-00241-00571102881ADDAA199000091GF105991051051012501001001IA1149IA2999-00209KA1120N-00281MA1999999099871MD1210131+9999REMSYN088AAXX  24004 47121 32668 52703 11024 21057 39987 40288 52013 85500 333 21028 34102 44///;EQDQ01  00002PRCP99
0163471210999992000012403004+37180+128450FM-12+023999999V0202701N001012200019N0150001N1+00121-00611102781ADDAA199000091GF104991041051012501001001MA1999999099821MD1510051+9999REMSYN066AAXX  24034 47121 32665 42702 10012 21061 39982 40278 55005 84500;EQDQ01  00002PRCP99
0163471210999992000012406004+37180+128450FM-12+023999999V0202701N002112200019N0180001N1+00211-00781102611ADDAA199000091GF102991021051012501001001MA1999999099671MD1710151+9999REMSYN066AAXX  24064 47121 32668 22704 10021 21078 39967 40261 57015 82500;EQDQ01  00002PRCP99
0163471210999992000012409004+37180+128450FM-12+023999999V0202701N001519999999N0150001N1+00011-00781102741ADDAA199000091GF106991001001999999001021MA1999999099771MD1210101+9999REMSYN066AAXX  24094 47121 32965 62703 10001 21078 39977 40274 52010 80002;EQDQ01  00002PRCP99
0222471210999992000012412004+37180+128450FM-12+023999999V0202701N001019999999N0150001N1-00121-00821102771ADDAA199000091GF105991001001999999001011IA1149IA2999-00109KA1120M+00261MA1999999099791MD1210021+9999REMSYN094AAXX  24124 47121 32965 52702 11012 21082 39979 40277 52002 80001 333 10026 34101 44/// 55051;EQDQ01  00002PRCP99
0163471210999992000012415004+37180+128450FM-12+023999999V0202901N001019999999N0120001N1-00251-00791102871ADDAA199000091GF106991001001999999001011MA1999999099871MD1310081+9999REMSYN066AAXX  24154 47121 32962 62902 11025 21079 39987 40287 53008 80001;EQDQ01  00002PRCP99
0163471210999992000012418004+37180+128450FM-12+023999999V0203201N002119999999N0120001N1-00431-00931102901ADDAA199000091GF106991001001999999001011MA1999999099871MD1010011+9999REMSYN066AAXX  24184 47121 32962 63204 11043 21093 39987 40290 50001 80001;EQDQ01  00002PRCP99
0163471210999992000012421004+37180+128450FM-12+023999999V0203201N001012200019N0120001N1-00591-01041102911ADDAA199000091GF106991041051012501001011MA1999999099861MD1710011+9999REMSYN066AAXX  24214 47121 32662 63202 11059 21104 39986 40291 57001 84501;EQDQ01  00002PRCP99
0231471210999992000012500004+37180+128450FM-12+023999999V0203201N003110360019N0120001N1-00681-01131103071ADDAA112000791AY171061AY221061GF107991041051012501031001IA1149IA2999-00309KA1120N-00681MA1999999100011MD1210141+9999MW1711REMSYN100AAXX  25004 47121 11662 73206 11068 21113 30001 40307 52014 69902 77172 84530 333 21068 34103 79999;
0133471210999992000012503004+37180+128450FM-12+023999999V0203201N002110360019N0150001N1-00441-01161102941ADDGF106991021051012501031011MA1999999099921MD1510091+9999REMSYN066AAXX  25034 47121 42665 63204 11044 21116 39992 40294 55009 82531;
0133471210999992000012506004+37180+128450FM-12+023999999V0202701N002112200019N0200001N1-00121-01141102731ADDGF101991011051012501001001MA1999999099741MD1710181+9999REMSYN066AAXX  25064 47121 42670 12704 11012 21114 39974 40273 57018 81500;
0143471210999992000012509004+37180+128450FM-12+023999999V0202501N004112200019N0200001N1-00401-01771102841ADDGA1001+999999999GF100991001001999999001001MA1999999099821MD1210081+9999REMSYN060AAXX  25094 47121 42970 02508 11040 21177 39982 40284 52008;
0209471210999992000012512004+37180+128450FM-12+023999999V0202701N003112200019N0180001N1-00631-01901103031ADDAA124000791GF102991001001999999001011IA1149IA2999-00609KA1120M-00111MA1999999099971MD1210151+9999REMSYN100AAXX  25124 47121 32968 22706 11063 21190 39997 40303 52015 80001 333 11011 34106 44/// 55048 79999;
0173471210999992000012515004+37180+128450FM-12+023999999V0201101N000512200019N0150001N1-00911-01641103041ADDAA199000091GA1001+999999999GF100991001001999999001001MA1999999099961MD1310021+9999REMSYN060AAXX  25154 47121 32965 01101 11091 21164 39996 40304 53002;EQDQ01  00002PRCP99
0173471210999992000012518004+37180+128450FM-12+023999999V0202701N002112200019N0150001N1-01021-01741103071ADDAA199000091GA1001+999999999GF100991001001999999001001MA1999999099971MD1810011+9999REMSYN060AAXX  25184 47121 32965 02704 11102 21174 39997 40307 58001;EQDQ01  00002PRCP99
0173471210999992000012521004+37180+128450FM-12+023999999V0209999C000012200019N0150001N1-01261-01731103051ADDAA199000091GA1001+999999999GF100991001001999999001001MA1999999099931MD1810041+9999REMSYN060AAXX  25214 47121 32965 00000 11126 21173 39993 40305 58004;EQDQ01  00002PRCP99
0226471210999992000012600004+37180+128450FM-12+023999999V0203201N001512200019N0250001N1-01171-01671103101ADDAA199000091GA1001+999999999GF100991001001999999001001IA1149IA2999-00809KA1120N-01401MA1999999099981MD1210051+9999REMSYN082AAXX  26004 47121 32975 03203 11117 21167 39998 40310 52005 333 21140 34108 44///;EQDQ01  00002PRCP99
0173471210999992000012603004+37180+128450FM-12+023999999V0203201N002612200019N0250001N1-00691-01771102941ADDAA199000091GA1001+999999999GF100991001001999999001001MA1999999099881MD1710101+9999REMSYN060AAXX  26034 47121 32975 03205 11069 21177 39988 40294 57010;EQDQ01  00002PRCP99
0173471210999992000012606004+37180+128450FM-12+023999999V0202701N002112200019N0280001N1-00461-01791102741ADDAA199000091GA1001+999999999GF100991001001999999001001MA1999999099721MD1810161+9999REMSYN060AAXX  26064 47121 32978 02704 11046 21179 39972 40274 58016;EQDQ01  00002PRCP99
0173471210999992000012609004+37180+128450FM-12+023999999V0202701N001512200019N0280001N1-00591-01731102891ADDAA199000091GA1001+999999999GF100991001001999999001001MA1999999099851MD1210131+9999REMSYN060AAXX  26094 47121 32978 02703 11059 21173 39985 40289 52013;EQDQ01  00002PRCP99
0232471210999992000012612004+37180+128450FM-12+023999999V0209999C000012200019N0200001N1-00901-01551103031ADDAA199000091GA1001+999999999GF100991001001999999001001IA1149IA2999-00709KA1120M-00401MA1999999099951MD1210101+9999REMSYN088AAXX  26124 47121 32970 00000 11090 21155 39995 40303 52010 333 11040 34107 44/// 55092;EQDQ01  00002PRCP99
0173471210999992000012615004+37180+128450FM-12+023999999V0202901N000512200019N0200001N1-01161-01471103151ADDAA199000091GA1001+999999999GF100991001001999999001001MA1999999100031MD1210081+9999REMSYN060AAXX  26154 47121 32970 02901 11116 21147 30003 40315 52008;EQDQ01  00002PRCP99
0173471210999992000012618004+37180+128450FM-12+023999999V0209999C000012200019N0200001N1-01301-01491103231ADDAA199000091GA1001+999999999GF100991001001999999001001MA1999999100101MD1010071+9999REMSYN060AAXX  26184 47121 32970 00000 11130 21149 30010 40323 50007;EQDQ01  00002PRCP99
0173471210999992000012621004+37180+128450FM-12+023999999V0202701N001012200019N0200001N1-01451-01601103341ADDAA199000091GA1001+999999999GF100991001001999999001001MA1999999100181MD1210091+9999REMSYN060AAXX  26214 47121 32970 02702 11145 21160 30018 40334 52009;EQDQ01  00002PRCP99
0226471210999992000012700004+37180+128450FM-12+023999999V0209999C000012200019N0200001N1-01261-01441103411ADDAA199000091GA1001+999999999GF100991001001999999001001IA1149IA2999-00809KA1120N-01491MA1999999100271MD1210091+9999REMSYN082AAXX  27004 47121 32970 00000 11126 21144 30027 40341 52009 333 21149 34108 44///;EQDQ01  00002PRCP99
0173471210999992000012703004+37180+128450FM-12+023999999V0200201N001012200019N0250001N1-00261-01041103161ADDAA199000091GA1001+999999999GF100991001001999999001001MA1999999100151MD1510121+9999REMSYN060AAXX  27034 47121 32975 00202 11026 21104 30015 40316 55012;EQDQ01  00002PRCP99
0173471210999992000012706004+37180+128450FM-12+023999999V0202301N002112200019N0250001N1+00021-01491102921ADDAA199000091GA1001+999999999GF100991001001999999001001MA1999999099951MD1710201+9999REMSYN060AAXX  27064 47121 32975 02304 10002 21149 39995 40292 57020;EQDQ01  00002PRCP99
0173471210999992000012709004+37180+128450FM-12+023999999V0202701N002112200019N0250001N1-00221-01531103111ADDAA199000091GA1001+999999999GF100991001001999999001001MA1999999100101MD1210161+9999REMSYN060AAXX  27094 47121 32975 02704 11022 21153 30010 40311 52016;EQDQ01  00002PRCP99
0173471210999992000012715004+37180+128450FM-12+023999999V0209999C000012200019N0200001N1-00901-01321103391ADDAA199000091GA1001+999999999GF100991001001999999001001MA1999999100301MD1210071+9999REMSYN060AAXX  27154 47121 32970 00000 11090 21132 30030 40339 52007;EQDQ01  00002PRCP99
0173471210999992000012718004+37180+128450FM-12+023999999V0209999C000012200019N0150001N1-01211-01371103521ADDAA199000091GA1001+999999999GF100991001001999999001001MA1999999100381MD1010091+9999REMSYN060AAXX  27184 47121 32965 00000 11121 21137 30038 40352 50009;EQDQ01  00002PRCP99
0173471210999992000012721004+37180+128450FM-12+023999999V0202701N001012200019N0150001N1-01341-01471103581ADDAA199000091GA1001+999999999GF100991001001999999001001MA1999999100421MD1210041+9999REMSYN060AAXX  27214 47121 32965 02702 11134 21147 30042 40358 52004;EQDQ01  00002PRCP99
0220471210999992000012800004+37180+128450FM-12+023999999V0209999C000012200019N0180001N1-01201-01391103631ADDAA199000091GA1001+999999999GF100991001001999999001001IA1149IA2999-00809KA1120N-01441MA1999999100491MD1210071+9999REMSYN076AAXX  28004 47121 32968 00000 11120 21139 30049 40363 52007 333 21144 34108;EQDQ01  00002PRCP99
0173471210999992000012803004+37180+128450FM-12+023999999V0202901N001512200019N0200001N1-00291-01301103401ADDAA199000091GA1001+999999999GF100991001001999999001001MA1999999100381MD1510111+9999REMSYN060AAXX  28034 47121 32970 02903 11029 21130 30038 40340 55011;EQDQ01  00002PRCP99
0173471210999992000012806004+37180+128450FM-12+023999999V0202701N001512200019N0200001N1+00281-01501103141ADDAA199000091GA1001+999999999GF100991001001999999001001MA1999999100191MD1710191+9999REMSYN060AAXX  28064 47121 32970 02703 10028 21150 30019 40314 57019;EQDQ01  00002PRCP99
0173471210999992000012809004+37180+128450FM-12+023999999V0203201N001512200019N0250001N1+00001-01351103221ADDAA199000091GA1001+999999999GF100991001001999999001001MA1999999100241MD1210051+9999REMSYN060AAXX  28094 47121 32975 03203 10000 21135 30024 40322 52005;EQDQ01  00002PRCP99
0232471210999992000012812004+37180+128450FM-12+023999999V0209999C000012200019N0200001N1-00471-01001103431ADDAA199000091GA1001+999999999GF100991001001999999001001IA1149IA2999-00509KA1120M+00371MA1999999100391MD1210151+9999REMSYN088AAXX  28124 47121 32970 00000 11047 21100 30039 40343 52015 333 10037 34105 44/// 55093;EQDQ01  00002PRCP99
0189471210999992000012815004+37180+128450FM-12+023999999V0209999C000012200019N0150001N1-00841+99999999999ADDAA199000091GA1001+999999999GF100991001001999999001001MA1999999100381MD1210051+9999REMSYN060AAXX  28154 47121 32965 00000 11084 21075 30038 40238 52005;EQDQ01+102383APOSLPQ02  00002PRCP99
0153471210999992000012818004+37180+128450FM-12+023999999V0209999C000012200019N0150001N1-01041-01211103451ADDAA199000091GA1001+999999999GF100991001001999999001001MA1999999100341REMSYN054AAXX  28184 47121 32965 00000 11104 21121 30034 40345;EQDQ01  00002PRCP99
0173471210999992000012821004+37180+128450FM-12+023999999V0203201N000512200019N0120001N1-01151-01271103501ADDAA199000091GA1001+999999999GF100991001001999999001001MA1999999100381MD1210031+9999REMSYN060AAXX  28214 47121 32962 03201 11115 21127 30038 40350 52003;EQDQ01  00002PRCP99
0216471210999992000012900004+37180+128450FM-12+023999999V0209999C000019999999N0180001N1-01041-01201103591ADDAA199000091GF105991001001999999001011IA1149IA2999-00609KA1120N-01231MA1999999100471MD1210101+9999REMSYN088AAXX  29004 47121 32968 53600 11104 21120 30047 40359 52010 80001 333 21123 34106 44///;EQDQ01  00002PRCP99
0179471210999992000012903004+37180+128450FM-12+023999999V0200901N000512200019N0180001N1-00271-00941103351ADDAA199000091GA1001+999999999GF100991001001999999001001MA1999999100331MD1710141+9999REMSYN066AAXX  29034 47121 32968 00901 11027 21094 30033 40335 57014 80007;EQDQ01  00002PRCP99
0163471210999992000012906004+37180+128450FM-12+023999999V0202301N000519999999N0200001N1+00141-00881103021ADDAA199000091GF105991001001999999001021MA1999999100051MD1710281+9999REMSYN066AAXX  29064 47121 32970 52301 10014 21088 30005 40302 57028 80002;EQDQ01  00002PRCP99
0163471210999992000012909004+37180+128450FM-12+023999999V0202501N003112200019N0200001N1-00011-00771103161ADDAA199000091GF104991021051012501001011MA1999999100181MD1210121+9999REMSYN066AAXX  29094 47121 32670 42506 11001 21077 30018 40316 52012 82501;EQDQ01  00002PRCP99
0216471210999992000012912004+37180+128450FM-12+023999999V0209999C000010360019N0180001N1-00271-00751103221ADDAA199000091GF106991031051012501031001IA1149IA2999-00409KA1120M+00221MA1999999100201MD1210031+9999REMSYN088AAXX  29124 47121 32668 60000 11027 21075 30020 40322 52003 83530 333 10022 34104 55056;EQDQ01  00002PRCP99
0163471210999992000012915004+37180+128450FM-12+023999999V0209999C000012200019N0120001N1-00431-00751103161ADDAA199000091GF103991031001999999031001MA1999999100131MD1710081+9999REMSYN066AAXX  29154 47121 32962 30000 11043 21075 30013 40316 57008 83030;EQDQ01  00002PRCP99
0161471210999992000012918004+37180+128450FM-12+023999999V0209999C000010075019N0060001N1-00441-00651102961ADDAY171061AY221061GF108991051051008001021999MA1999999099931MD1710191+9999MW1711REMSYN072AAXX  29184 47121 41556 80000 11044 21065 39993 40296 57019 77172 8552/;
0161471210999992000012921004+37180+128450FM-12+023999999V0202501N003610075019N0050001N1-00061-00451102851ADDAY171031AY221031GF108991061061008001021999MA1999999099871MD1710061+9999MW1221REMSYN072AAXX  29214 47121 41550 82507 11006 21045 39987 40285 57006 72272 8662/;
0237471210999992000013000004+37180+128450FM-12+023999999V0202901N004110120019N0120001N1-00221-00891103061ADDAA112000791AY171061AY271061GF106991061081008001001001IA1219IA2999-00209KA1120N-00591MA1999999100051MD1210181+9999MW1701REMSYN106AAXX  30004 47121 11562 62908 11022 21089 30005 40306 52018 69902 77077 86800 333 21059 3/102 45/// 79999;
0152471210999992000013003004+37180+128450FM-12+023999999V0202501N004112200019N0180001N1-00271-01131103181ADDGF104991999081008001001001MA1999999100161MD1310111+9999REMSYN066AAXX  30034 47121 42568 42508 11027 21113 30016 40318 53011 85800;EQDQ01+000052SCOTLC
0133471210999992000013006004+37180+128450FM-12+023999999V0202501N004612200019N0250001N1-00141-01351103071ADDGF102991021081012501001001MA1999999100071MD1810091+9999REMSYN066AAXX  30064 47121 42675 22509 11014 21135 30007 40307 58009 82800;
0133471210999992000013009004+37180+128450FM-12+023999999V0202501N004612200019N0250001N1-00451-01331103271ADDGF102991021051012501001001MA1999999100231MD1210161+9999REMSYN066AAXX  30094 47121 42675 22509 11045 21133 30023 40327 52016 82500;
0203471210999992000013012004+37180+128450FM-12+023999999V0202701N002612200019N0200001N1-00661-01331103471ADDAA199000021GF101991011051999999001001IA1149IA2999-00609KA1120M-00041MA1999999100401MD1210171+9999REMSYN094AAXX  30124 47121 32970 12705 11066 21133 30040 40347 52017 81500 333 11004 34106 44/// 55072;
0173471210999992000013015004+37180+128450FM-12+023999999V0202701N002112200019N0150001N1-00811-01341103581ADDAA199000091GA1001+999999999GF100991001001999999001001MA1999999100491MD1210091+9999REMSYN060AAXX  30154 47121 32965 02704 11081 21134 30049 40358 52009;EQDQ01  00002PRCP99
0173471210999992000013018004+37180+128450FM-12+023999999V0202701N002112200019N0150001N1-00981-01531103681ADDAA199000091GA1001+999999999GF100991001001999999001001MA1999999100571MD1210071+9999REMSYN060AAXX  30184 47121 32965 02704 11098 21153 30057 40368 52007;EQDQ01  00002PRCP99
0173471210999992000013021004+37180+128450FM-12+023999999V0202701N002612200019N0150001N1-01181-01561103661ADDAA199000091GA1001+999999999GF100991001001999999001001MA1999999100521MD1810041+9999REMSYN060AAXX  30214 47121 32965 02705 11118 21156 30052 40366 58004;EQDQ01  00002PRCP99
0220471210999992000013100004+37180+128450FM-12+023999999V0209999C000012200019N0200001N1-01021-01451103781ADDAA199000091GA1001+999999999GF100991001001999999001001IA1149IA2999-00809KA1120N-01321MA1999999100661MD1210141+9999REMSYN076AAXX  31004 47121 32970 00000 11102 21145 30066 40378 52014 333 21132 34108;EQDQ01  00002PRCP99
0173471210999992000013103004+37180+128450FM-12+023999999V0202501N002112200019N0250001N1-00611-01541103661ADDAA199000091GA1001+999999999GF100991001001999999001001MA1999999100601MD1510071+9999REMSYN060AAXX  31034 47121 32975 02504 11061 21154 30060 40366 55007;EQDQ01  00002PRCP99
0173471210999992000013106004+37180+128450FM-12+023999999V0202501N003112200019N0250001N1-00401-01771103411ADDAA199000091GA1001+999999999GF100991001001999999001001MA1999999100381MD1710221+9999REMSYN060AAXX  31064 47121 32975 02506 11040 21177 30038 40341 57022;EQDQ01  00002PRCP99
0173471210999992000013109004+37180+128450FM-12+023999999V0202501N002112200019N0250001N1-00541-01721103501ADDAA199000091GA1001+999999999GF100991001001999999001001MA1999999100441MD1210071+9999REMSYN060AAXX  31094 47121 32975 02504 11054 21172 30044 40350 52007;EQDQ01  00002PRCP99
0226471210999992000013112004+37180+128450FM-12+023999999V0203401N000512200019N0200001N1-00841-01611103691ADDAA199000091GA1001+999999999GF100991001001999999001001IA1019IA2999-00809KA1120M-00321MA1999999100591MD1210151+9999REMSYN082AAXX  31124 47121 32970 03401 11084 21161 30059 40369 52015 333 11032 30108 55088;EQDQ01  00002PRCP99
0173471210999992000013115004+37180+128450FM-12+023999999V0209999C000012200019N0150001N1-01181-01491103691ADDAA199000091GA1001+999999999GF100991001001999999001001MA1999999100551MD1210051+9999REMSYN060AAXX  31154 47121 32965 00000 11118 21149 30055 40369 52005;EQDQ01  00002PRCP99
0153471210999992000013118004+37180+128450FM-12+023999999V0209999C000012200019N0150001N1-01331-01521103691ADDAA199000091GA1001+999999999GF100991001001999999001001MA1999999100541REMSYN054AAXX  31184 47121 32965 00000 11133 21152 30054 40369;EQDQ01  00002PRCP99
0173471210999992000013121004+37180+128450FM-12+023999999V0202701N001012200019N0150001N1-01501-01641103641ADDAA199000091GA1001+999999999GF100991001001999999001001MA1999999100461MD1710071+9999REMSYN060AAXX  31214 47121 32965 02702 11150 21164 30046 40364 57007;EQDQ01  00002PRCP99
0220471210999992000020100004+37180+128450FM-12+023999999V0209999C000012200019N0180001N1-01361-01551103611ADDAA199000091GA1001+999999999GF100991001001999999001001IA1019IA2999-00909KA1120N-01581MA1999999100451MD1510011+9999REMSYN076AAXX  01004 47121 32968 00000 11136 21155 30045 40361 55001 333 21158 30109;EQDQ01  00002PRCP99
0179471210999992000020103004+37180+128450FM-12+023999999V0202901N001012200019N0180001N1-00491-01541103301ADDAA199000091GF102991001001999999001091MA1999999100261MD1710191+9999REMSYN066AAXX  01034 47121 32968 22902 11049 21154 30026 40330 57019 82009;EQDQ01+000022SCOTLCQ02  00002PRCP99
0163471210999992000020106004+37180+128450FM-12+023999999V0202901N003119999999N0180001N1-00181-01671102971ADDAA199000091GF106991001001999999001021MA1999999099971MD1710291+9999REMSYN066AAXX  01064 47121 32968 62906 11018 21167 39997 40297 57029 80002;EQDQ01  00002PRCP99
0179471210999992000020109004+37180+128450FM-12+023999999V0202501N002619999999N0180001N1-00421-01771103001ADDAA199000091GF105991001001999999001021MA1999999099971MD1710031+9999REMSYN066AAXX  01094 47121 32968 52505 11042 21177 39997 40300 57000 80002;EQDQ01+000002APC3  Q02  00002PRCP99
0215471210999992000020112004+37180+128450FM-12+023999999V0202901N001012200019N0180001N1-00551-01621103121ADDAA199000091GF103991001001999999001021IA1019IA2999-00609KA1120M-00121MA1999999100071MD1210101+9999REMSYN087AAXX  01124 4712132968 32902 11055 21162 30007 40312 52010 80002 333 11012 30106 55075;EQDQ01  00002PRCP99
0163471210999992000020115004+37180+128450FM-12+023999999V0203201N000512200019N0150001N1-00861-01391103131ADDAA199000091GF102991021001999999031001MA1999999100051MD1710021+9999REMSYN066AAXX  01154 47121 32965 23201 11086 21139 30005 40313 57002 82030;EQDQ01  00002PRCP99
0163471210999992000020118004+37180+128450FM-12+023999999V0202701N001012200019N0150001N1-01201-01451103241ADDAA199000091GF102991021001999999031001MA1999999100121MD1010071+9999REMSYN066AAXX  01184 47121 32965 22702 11120 21145 30012 40324 50007 82030;EQDQ01  00002PRCP99
0173471210999992000020121004+37180+128450FM-12+023999999V0202901N000512200019N0200001N1-01341-01491103271ADDAA199000091GA1001+999999999GF100991001001999999001001MA1999999100121MD1210011+9999REMSYN060AAXX  01214 47121 32970 02901 11134 21149 30012 40327 52001;EQDQ01  00002PRCP99
0220471210999992000020200004+37180+128450FM-12+023999999V0203601N001012200019N0200001N1-01221-01431103341ADDAA199000091GA1001+999999999GF100991001001999999001001IA1019IA2999-00809KA1120N-01431MA1999999100211MD1210081+9999REMSYN076AAXX  02004 47121 32970 03602 11122 21143 30021 40334 52008 333 21143 30108;EQDQ01  00002PRCP99
0173471210999992000020203004+37180+128450FM-12+023999999V0200201N001012200019N0250001N1-00261-01441103201ADDAA199000091GA1001+999999999GF100991001001999999001001MA1999999100181MD1510021+9999REMSYN060AAXX  02034 47121 32975 00202 11026 21144 30018 40320 55002;EQDQ01  00002PRCP99
0163471210999992000020206004+37180+128450FM-12+023999999V0202501N001019999999N0250001N1+00031-01251102901ADDAA199000091GF105991001001999999001071MA1999999099931MD1710261+9999REMSYN066AAXX  02064 47121 32975 52502 10003 21125 39993 40290 57026 80007;EQDQ01  00002PRCP99
0163471210999992000020209004+37180+128450FM-12+023999999V0202501N002119999999N0200001N1-00181-01241102941ADDAA199000091GF105991001001999999001021MA1999999099941MD1210011+9999REMSYN066AAXX  02094 47121 32970 52504 11018 21124 39994 40294 52001 80002;EQDQ01  00002PRCP99
0216471210999992000020212004+37180+128450FM-12+023999999V0209999C000012200019N0200001N1-00541-01121103021ADDAA199000091GF104991001001999999001011IA1019IA2999-00609KA1120M+00081MA1999999099981MD1310041+9999REMSYN088AAXX  02124 47121 32970 40000 11054 21112 39998 40302 53004 80001 333 10008 30106 55090;EQDQ01  00002PRCP99
0179471210999992000020215004+37180+128450FM-12+023999999V0209999C000012200019N0150001N1-00851-01131103031ADDAA199000091GA1001+999999999GF100991001001999999001001MA1999999099951MD1710031+9999REMSYN066AAXX  02154 47121 32965 00000 11085 21113 39995 40303 57003 80001;EQDQ01  00002PRCP99
0163471210999992000020218004+37180+128450FM-12+023999999V0209999C000012200019N0120001N1-01041-01201103071ADDAA199000091GF104991001001999999001011MA1999999099971MD1310021+9999REMSYN066AAXX  02184 47121 32962 40000 11104 21120 39997 40307 53002 80001;EQDQ01  00002PRCP99
0163471210999992000020221004+37180+128450FM-12+023999999V0209999C000012200019N0120001N1-01161-01281103051ADDAA199000091GF103991011051999999001011MA1999999099941MD1710031+9999REMSYN066AAXX  02214 47121 32962 30000 11116 21128 39994 40305 57003 81501;EQDQ01  00002PRCP99
0220471210999992000020300004+37180+128450FM-12+023999999V0209999C000012200019N0100001N1-01081-01231103051ADDAA199000091GA1001+999999999GF100991001001999999001001IA1019IA2999-00709KA1120N-01251MA1999999099951MD1210011+9999REMSYN076AAXX  03004 47121 32960 00000 11108 21123 39995 40305 52001 333 21125 30107;EQDQ01  00002PRCP99
0173471210999992000020303004+37180+128450FM-12+023999999V0201401N000512200019N0180001N1-00111-00961102721ADDAA199000091GA1001+999999999GF100991001001999999001001MA1999999099741MD1710211+9999REMSYN060AAXX  03034 47121 32968 01401 11011 21096 39974 40272 57021;EQDQ01  00002PRCP99
0163471210999992000020306004+37180+128450FM-12+023999999V0202501N005112200019N0200001N1+00151-01141102451ADDAA199000091GF103991031051012501001001MA1999999099501MD1710241+9999REMSYN066AAXX  03064 47121 32670 32510 10015 21114 39950 40245 57024 83500;EQDQ01  00002PRCP99
0163471210999992000020309004+37180+128450FM-12+023999999V0202501N002110360019N0200001N1-00091-00901102591ADDAA199000091GF107991021051012501031001MA1999999099611MD1210111+9999REMSYN066AAXX  03094 47121 32670 72504 11009 21090 39961 40259 52011 82530;EQDQ01  00002PRCP99
0237471210999992000020312004+37180+128450FM-12+023999999V0202501N002610120019N0120001N1-00151-00811102671ADDAA112000791AY171061AY271061GF107991071051012501001001IA1019IA2999-00209KA1120M+00221MA1999999099681MD1210071+9999MW1701REMSYN106AAXX  03124 47121 11662 72505 11015 21081 39968 40267 52007 69902 77077 87500 333 10022 30102 55068 7999/;
0144471210999992000020315004+37180+128450FM-12+023999999V0202701N001012200019N0100001N1-00351-00991102831ADDAA199000021GF103991031051012501001001MA1999999099811MD1210131+9999REMSYN066AAXX  03154 47121 32660 32702 11035 21099 39981 40283 52013 83500;
0154471210999992000020318004+37180+128450FM-12+023999999V0203201N001012200019N0100001N1-00711-01051102991ADDAA199000021GA1001+999999999GF100991001001999999001001MA1999999099931MD1210121+9999REMSYN060AAXX  03184 47121 32960 03202 11071 21105 39993 40299 52012;
0154471210999992000020321004+37180+128450FM-12+023999999V0202901N001012200019N0100001N1-00961-01121103131ADDAA199000021GA1001+999999999GF100991001001999999001001MA1999999100031MD1210101+9999REMSYN060AAXX  03214 47121 32960 02902 11096 21112 30003 40313 52010;
0201471210999992000020400004+37180+128450FM-12+023999999V0209999C000012200019N0120001N1-00921-01091103341ADDAA199000021GA1001+999999999GF100991001001999999001001IA1019IA2999-00709KA1120N-01111MA1999999100251MD1210211+9999REMSYN076AAXX  04004 47121 32962 00000 11092 21109 30025 40334 52021 333 21111 30107;
0173471210999992000020403004+37180+128450FM-12+023999999V0209999C000012200019N0200001N1-00061-01001103181ADDAA199000091GA1001+999999999GF100991001001999999001001MA1999999100191MD1510061+9999REMSYN060AAXX  04034 47121 32970 00000 11006 21100 30019 40318 55006;EQDQ01  00002PRCP99
0173471210999992000020406004+37180+128450FM-12+023999999V0202501N001012200019N0280001N1+00381-01391102811ADDAA199000091GA1001+999999999GF100991001001999999001001MA1999999099881MD1710301+9999REMSYN060AAXX  04064 47121 32978 02502 10038 21139 39988 40281 57030;EQDQ01  00002PRCP99
0173471210999992000020409004+37180+128450FM-12+023999999V0209999C000012200019N0250001N1+00151-01241102861ADDAA199000091GA1001+999999999GF100991001001999999001001MA1999999099911MD1010021+9999REMSYN060AAXX  04094 47121 32975 00000 10015 21124 39991 40286 50002;EQDQ01  00002PRCP99
0226471210999992000020412004+37180+128450FM-12+023999999V0209999C000012200019N0250001N1-00391-00901103021ADDAA199000091GA1001+999999999GF100991001001999999001001IA1019IA2999-00609KA1120M+00441MA1999999100001MD1210091+9999REMSYN082AAXX  04124 47121 32975 00000 11039 21090 30000 40302 52009 333 10044 30106 55092;EQDQ01  00002PRCP99
0173471210999992000020415004+37180+128450FM-12+023999999V0209999C000012200019N0200001N1-00661-00971103091ADDAA199000091GA1001+999999999GF100991001001999999001001MA1999999100031MD1310041+9999REMSYN060AAXX  04154 47121 32970 00000 11066 21097 30003 40309 53004;EQDQ01  00002PRCP99
0173471210999992000020418004+37180+128450FM-12+023999999V0209999C000012200019N0120001N1-00891-01051103091ADDAA199000091GA1001+999999999GF100991001001999999001001MA1999999100011MD1710031+9999REMSYN060AAXX  04184 47121 32962 00000 11089 21105 30001 40309 57003;EQDQ01  00002PRCP99
0173471210999992000020421004+37180+128450FM-12+023999999V0209999C000012200019N0100001N1-01081-01201103071ADDAA199000091GA1001+999999999GF100991001001999999001001MA1999999099961MD1010041+9999REMSYN060AAXX  04214 47121 32960 00000 11108 21120 39996 40307 50004;EQDQ01  00002PRCP99
0220471210999992000020500004+37180+128450FM-12+023999999V0209999C000012200019N0200001N1-00911-01051103081ADDAA199000091GA1001+999999999GF100991001001999999001001IA1019IA2999-00709KA1120N-01191MA1999999100001MD1310031+9999REMSYN076AAXX  05004 47121 32970 00000 11091 21105 30000 40308 53003 333 21119 30107;EQDQ01  00002PRCP99
0163471210999992000020503004+37180+128450FM-12+023999999V0202701N000519999999N0250001N1+00091-00971102641ADDAA199000091GF105991001001999999001011MA1999999099681MD1710311+9999REMSYN066AAXX  05034 47121 32975 52701 10009 21097 39968 40264 57031 80001;EQDQ01  00002PRCP99
0163471210999992000020506004+37180+128450FM-12+023999999V0203201N001019999999N0200001N1+00541-01161102411ADDAA199000091GF108991021051999999021999MA1999999099511MD1710181+9999REMSYN066AAXX  05064 47121 32970 83202 10054 21116 39951 40241 57018 8252/;EQDQ01  00002PRCP99
0163471210999992000020509004+37180+128450FM-12+023999999V0200701N000519999999N0180001N1+00451-01131102241ADDAA199000091GF108991021051999999021999MA1999999099341MD1710171+9999REMSYN066AAXX  05094 47121 32968 80701 10045 21113 39934 40224 57017 8252/;EQDQ01  00002PRCP99
0216471210999992000020512004+37180+128450FM-12+023999999V0200901N000519999999N0150001N1+00231-00791102101ADDAA199000091GF108991021051999999021999IA1019IA2999+00009KA1120M+00571MA1999999099171MD1710161+9999REMSYN088AAXX  05124 47121 32965 80901 10023 21079 39917 40210 57016 8252/ 333 10057 30000 55049;EQDQ01  00002PRCP99
0163471210999992000020515004+37180+128450FM-12+023999999V0203201N000519999999N0150001N1+00151-00731102021ADDAA199000091GF108991021051999999021999MA1999999099091MD1510091+9999REMSYN066AAXX  05154 47121 32965 83201 10015 21073 39909 40202 55009 8252/;EQDQ01  00002PRCP99
0161471210999992000020518004+37180+128450FM-12+023999999V0203201N002110120019N0120001N1+00101-00341102001ADDAY121061AY221061GF108991051071012501021999MA1999999099061MD1810031+9999MW1711REMSYN072AAXX  05184 47121 41662 83204 10010 21034 39906 40200 58003 77122 8572/;
0161471210999992000020521004+37180+128450FM-12+023999999V0202901N001510120019N0100001N1+00041-00211101911ADDAY171031AY271031GF108991061071012501021999MA1999999098971MD1710091+9999MW1701REMSYN072AAXX  05214 47121 41660 82903 10004 21021 39897 40191 57009 77077 8672/;
0237471210999992000020600004+37180+128450FM-12+023999999V0202701N001510120019N0100001N1+00021-00311101961ADDAA112000791AY171061AY271061GF108991061051012501021999IA1219IA2999+00109KA1120N-00041MA1999999099011MD1210041+9999MW1701REMSYN106AAXX  06004 47121 11660 82703 10002 21031 39901 40196 52004 69902 77077 8652/ 333 21004 3/001 45/// 79999;
0161471210999992000020603004+37180+128450FM-12+023999999V0202701N002610120019N0120001N1+00111-00451101881ADDAY171031AY271031GF108991061051012501021999MA1999999098951MD1710071+9999MW1701REMSYN072AAXX  06034 47121 41662 82705 10011 21045 39895 40188 57007 77077 8652/;
0133471210999992000020606004+37180+128450FM-12+023999999V0202701N003610120019N0150001N1+00211-00671101711ADDGF106991061051012501001001MA1999999098791MD1710161+9999REMSYN066AAXX  06064 47121 42665 62707 10021 21067 39879 40171 57016 86500;
0133471210999992000020609004+37180+128450FM-12+023999999V0202501N002110120019N0150001N1+00151-00711101791ADDGF106991061051012501001001MA1999999098861MD1010071+9999REMSYN066AAXX  06094 47121 42665 62504 10015 21071 39886 40179 50007 86500;
0209471210999992000020612004+37180+128450FM-12+023999999V0202501N002110120019N0120001N1+00041-00571101881ADDAA112000191GF107991071051012501001001IA1019IA2999+00009KA1120M+00321MA1999999098941MD1210081+9999REMSYN100AAXX  06124 47121 12662 72504 10004 21057 39894 40188 52008 69912 87500 333 10032 30100 55018 70001;
0163471210999992000020615004+37180+128450FM-12+023999999V0202501N001510120019N0100001N1-00041-00591101891ADDAA199000021GF106991061051012501001001MA1999999098941MD1710011+9999REMSYN066AAXX  06154 47121 32660 62503 11004 21059 39894 40189 57000 86500;EQDQ01+000002APC3  
0163471210999992000020618004+37180+128450FM-12+023999999V0202701N001510120019N0100001N1-00151-00591101901ADDAA199000091GF106991061051012501001001MA1999999098941MD1010001+9999REMSYN066AAXX  06184 47121 32660 62703 11015 21059 39894 40190 50000 86500;EQDQ01  00002PRCP99
0163471210999992000020621004+37180+128450FM-12+023999999V0202501N001010120019N0100001N1-00181-00671101851ADDAA199000091GF106991061051012501001001MA1999999098881MD1710061+9999REMSYN066AAXX  06214 47121 32660 62502 11018 21067 39888 40185 57006 86500;EQDQ01  00002PRCP99
0238471210999992000020700004+37180+128450FM-12+023999999V0202701N001010075019N0050001N1-00181-00611101851ADDAA199000091AY121061AY221061GF108991061051008001021999IA1019IA2999+00009KA1120N-00211MA1999999098891MD1010001+9999MW1101REMSYN088AAXX  07004 47121 32550 82702 11018 21061 39889 40185 50000 71022 8652/ 333 21021 30000;EQDQ01  00002PRCP99
0191471210999992000020703004+37180+128450FM-12+023999999V0202701N001019999999N0090001N1-00021-00751101621ADDAA199000091AY121031AY221031GF108991061051999999021999MA1999999098671MD1510211+9999MW1101REMSYN072AAXX  07034 47121 32959 82702 11002 21075 39867 40162 55021 71022 8652/;EQDQ01  00002PRCP99
0179471210999992000020706004+37180+128450FM-12+023999999V0202501N002610120019N0120001N1+00131-00621101261ADDAA199000091GF108991999051012501001001MA1999999098341MD1710331+9999REMSYN066AAXX  07064 47121 32662 82505 10013 21062 39834 40126 57033 87500;EQDQ01+000072SCOTLCQ02  00002PRCP99
0163471210999992000020709004+37180+128450FM-12+023999999V0202501N000510120019N0100001N1-00101-00501101211ADDAA199000091GF108991061051012501021999MA1999999098281MD1710071+9999REMSYN066AAXX  07094 47121 32660 82501 11010 21050 39828 40121 57007 8652/;EQDQ01  00002PRCP99
0237471210999992000020712004+37180+128450FM-12+023999999V0202501N003110075019N0060001N1-00181-00421101141ADDAA112000791AY171061AY221061GF108991061071008001021999IA1019IA2999-00109KA1120M+00171MA1999999098191MD1710081+9999MW1711REMSYN106AAXX  07124 47121 11556 82506 11018 21042 39819 40114 57008 69902 77172 8672/ 333 10017 30101 55008 79999;
0133471210999992000020715004+37180+128450FM-12+023999999V0202701N006212200019N0150001N1-00391-01201101201ADDGF104991041051012501001001MA1999999098231MD1010041+9999REMSYN066AAXX  07154 47121 42665 42712 11039 21120 39823 40120 50004 84500;
0144471210999992000020718004+37180+128450FM-12+023999999V0202701N001510120019N0180001N1-00661-01321101241ADDAA199000021GF108991051051012501021999MA1999999098241MD1310011+9999REMSYN066AAXX  07184 47121 32668 82703 11066 21132 39824 40124 53001 8552/;
0203471210999992000020800004+37180+128450FM-12+023999999V0202501N002112200019N0250001N1-00871-01711101421ADDAA112000791GF104991041051012501001001IA1019IA2999-00609KA1120N-00911MA1999999098391MD1210141+9999REMSYN094AAXX  08004 47121 12675 42504 11087 21171 39839 40142 52014 69902 84500 333 21091 30106 7999/;
0163471210999992000020803004+37180+128450FM-12+023999999V0202701N002610360019N0180001N1-00741-01721101481ADDAA199000091GF108991031051012501011999MA1999999098461MD1310071+9999REMSYN066AAXX  08034 47121 32668 82705 11074 21172 39846 40148 53007 8351/;EQDQ01  00002PRCP99
0133471210999992000020806004+37180+128450FM-12+023999999V0202901N003610900019N0180001N1-00591-01741101481ADDGF105991021051012501001021MA1999999098481MD1010021+9999REMSYN066AAXX  08064 47121 42668 52907 11059 21174 39848 40148 50002 82502;
0173471210999992000020809004+37180+128450FM-12+023999999V0202701N002612200019N0200001N1-00661-01701101791ADDAA199000091GA1001+999999999GF100991001001999999001001MA1999999098771MD1210291+9999REMSYN060AAXX  08094 47121 32970 02705 11066 21170 39877 40179 52029;EQDQ01  00002PRCP99
0197471210999992000020812004+37180+128450FM-12+023999999V0202701N002112200019N0150001N1-00811-01641102051ADDAA199000091GF102991021051012501001001IA1019IA2999-00909MA1999999099001MD1210231+9999REMSYN082AAXX  08124 47121 32665 22704 11081 21164 39900 40205 52023 82500 333 30109 55028;EQDQ01  00002PRCP99
0163471210999992000020815004+37180+128450FM-12+023999999V0202701N002112200019N0150001N1-00921-01591102161ADDAA199000091GF102991001001999999001011MA1999999099101MD1210091+9999REMSYN066AAXX  08154 47121 32965 22704 11092 21159 39910 40216 52009 80001;EQDQ01  00002PRCP99
0163471210999992000020818004+37180+128450FM-12+023999999V0203201N002112200019N0150001N1-01081-01591102251ADDAA199000091GF102991001001999999001011MA1999999099171MD1210081+9999REMSYN066AAXX  08184 47121 32965 23204 11108 21159 39917 40225 52008 80001;EQDQ01  00002PRCP99
0163471210999992000020821004+37180+128450FM-12+023999999V0202701N001012200019N0120001N1-01321-01591102361ADDAA199000091GF102991001001999999001011MA1999999099251MD1210081+9999REMSYN066AAXX  08214 47121 32962 22702 11132 21159 39925 40236 52008 80001;EQDQ01  00002PRCP99
0220471210999992000020900004+37180+128450FM-12+023999999V0209999C000012200019N0180001N1-01161-01471102451ADDAA199000091GA1001+999999999GF100991001001999999001001IA1019IA2999-00909KA1120N-01461MA1999999099351MD1210101+9999REMSYN076AAXX  09004 47121 32968 00000 11116 21147 39935 40245 52010 333 21146 30109;EQDQ01  00002PRCP99
0173471210999992000020903004+37180+128450FM-12+023999999V0203401N002612200019N0200001N1-00431-01621102221ADDAA199000091GA1001+999999999GF100991001001999999001001MA1999999099221MD1710131+9999REMSYN060AAXX  09034 47121 32970 03405 11043 21162 39922 40222 57013;EQDQ01  00002PRCP99
0173471210999992000020909004+37180+128450FM-12+023999999V0202501N003112200019N0250001N1-00231-01691102091ADDAA199000091GA1001+999999999GF100991001001999999001001MA1999999099111MD1210051+9999REMSYN060AAXX  09094 47121 32975 02506 11023 21169 39911 40209 52005;EQDQ01  00002PRCP99
0226471210999992000020912004+37180+128450FM-12+023999999V0202701N001012200019N0200001N1-00511-01531102251ADDAA199000091GA1001+999999999GF100991001001999999001001IA1019IA2999-00709KA1120M+00011MA1999999099241MD1210121+9999REMSYN082AAXX  09124 47121 32970 02702 11051 21153 39924 40225 52012 333 10001 30107 55096;EQDQ01  00002PRCP99
0173471210999992000020915004+37180+128450FM-12+023999999V0202501N000512200019N0150001N1-00871-01431102351ADDAA199000091GA1001+999999999GF100991001001999999001001MA1999999099291MD1210051+9999REMSYN060AAXX  09154 47121 32965 02501 11087 21143 39929 40235 52005;EQDQ01  00002PRCP99
0173471210999992000020918004+37180+128450FM-12+023999999V0203601N000512200019N0150001N1-01081-01421102431ADDAA199000091GA1001+999999999GF100991001001999999001001MA1999999099341MD1210051+9999REMSYN060AAXX  09184 47121 32965 03601 11108 21142 39934 40243 52005;EQDQ01  00002PRCP99
0173471210999992000020921004+37180+128450FM-12+023999999V0209999C000012200019N0150001N1-01341-01511102481ADDAA199000091GA1001+999999999GF100991001001999999001001MA1999999099361MD1710021+9999REMSYN060AAXX  09214 47121 32965 00000 11134 21151 39936 40248 57002;EQDQ01  00002PRCP99
0210471210999992000021000004+37180+128450FM-12+023999999V0200201N000512200019N0200001N1-01161-01391102541ADDAA199000091GF103991001001999999001011IA1019IA2999-00909KA1120N-01471MA1999999099441MD1210091+9999REMSYN082AAXX  10004 47121 32970 30201 11116 21139 39944 40254 52009 80001 333 21147 30109;EQDQ01  00002PRCP99
0163471210999992000021003004+37180+128450FM-12+023999999V0202901N002112200019N0250001N1-00211-01641102191ADDAA199000091GF101991001001999999001011MA1999999099211MD1710231+9999REMSYN066AAXX  10034 47121 32975 12904 11021 21164 39921 40219 57023 80001;EQDQ01  00002PRCP99
0173471210999992000021006004+37180+128450FM-12+023999999V0202301N002112200019N0250001N1+00341-01791101781ADDAA199000091GA1001+999999999GF100991001001999999001001MA1999999098871MD1710341+9999REMSYN060AAXX  10064 47121 32975 02304 10034 21179 39887 40178 57034;EQDQ01  00002PRCP99
0173471210999992000021009004+37180+128450FM-12+023999999V0202501N002112200019N0200001N1+00021-01401101891ADDAA199000091GA1001+999999999GF100991001001999999001001MA1999999098951MD1010071+9999REMSYN060AAXX  10094 47121 32970 02504 10002 21140 39895 40189 50007;EQDQ01  00002PRCP99
0226471210999992000021012004+37180+128450FM-12+023999999V0209999C000012200019N0200001N1-00351-01171102011ADDAA199000091GA1001+999999999GF100991001001999999001001IA1019IA2999-00609KA1120M+00371MA1999999099021MD1210071+9999REMSYN082AAXX  10124 47121 32970 00000 11035 21117 39902 40201 52007 333 10037 30106 55096;EQDQ01  00002PRCP99
0173471210999992000021015004+37180+128450FM-12+023999999V0209999C000012200019N0200001N1-00641-01111102061ADDAA199000091GA1001+999999999GF100991001001999999001001MA1999999099031MD1810011+9999REMSYN060AAXX  10154 47121 32970 00000 11064 21111 39903 40206 58001;EQDQ01  00002PRCP99
0163471210999992000021018004+37180+128450FM-12+023999999V0209999C000010360019N0180001N1-00741-01051102131ADDAA199000091GF108991041051012501021999MA1999999099101MD1010061+9999REMSYN066AAXX  10184 47121 32668 80000 11074 21105 39910 40213 50006 8452/;EQDQ01  00002PRCP99
0163471210999992000021021004+37180+128450FM-12+023999999V0209999C000010120019N0180001N1-00741-01011102081ADDAA199000091GF108991051051012501021999MA1999999099051MD1810051+9999REMSYN066AAXX  10214 47121 32668 80000 11074 21101 39905 40208 58005 8552/;EQDQ01  00002PRCP99
0231471210999992000021100004+37180+128450FM-12+023999999V0203601N000510075019N0025001N1-00541-00761102091ADDAA124000791AY171061AY271061GF106991051051008001011001IA1219IA2999-00109KA1120N-00831MA1999999099071MD1210031+9999MW1701REMSYN100AAXX  11004 47121 11525 63601 11054 21076 39907 40209 52003 77077 85510 333 21083 3/101 45/// 79999;
0103471210999992000021103004+37180+128450FM-12+023999999V0202901N001519999999N0150001N1+99999+99999999999ADDGF106991999999012501999999REMSYN065AAXX  11034 47121 42665 62903 1005 21039 39906 40200 55001 86500;
0133471210999992000021106004+37180+128450FM-12+023999999V0202301N002110120019N0200001N1+00351-00451101811ADDGF105991051051012501001001MA1999999098901MD1710161+9999REMSYN066AAXX  11064 47121 42670 52304 10035 21045 39890 40181 57016 85500;
0144471210999992000021109004+37180+128450FM-12+023999999V0202501N002112200019N0200001N1+00211-00531101831ADDAA199000021GF104991041051999999001001MA1999999098911MD1210011+9999REMSYN066AAXX  11094 47121 32970 42504 10021 21053 39891 40183 52001 84500;
0203471210999992000021112004+37180+128450FM-12+023999999V0202701N001012200019N0180001N1-00011-00651101971ADDAA112000791GF104991041051012501001001IA1019IA2999-00409KA1120M+00391MA1999999099021MD1210111+9999REMSYN094AAXX  11124 47121 11668 42702 11001 21065 39902 40197 52011 69902 84500 333 10039 30104 55051;
0163471210999992000021115004+37180+128450FM-12+023999999V0209999C000012200019N0150001N1-00381-00701102141ADDAA199000091GF104991041051999999001001MA1999999099141MD1210131+9999REMSYN066AAXX  11154 47121 32965 40000 11038 21070 39914 40214 52013 84500;EQDQ01  00002PRCP99
0163471210999992000021118004+37180+128450FM-12+023999999V0209999C000012200019N0150001N1-00671-00801102121ADDAA199000091GF102991021051999999001001MA1999999099091MD1710061+9999REMSYN066AAXX  11184 47121 32965 20000 11067 21080 39909 40212 57006 82500;EQDQ01  00002PRCP99
0173471210999992000021121004+37180+128450FM-12+023999999V0209999C000012200019N0080001N1-00781-00871102141ADDAA199000091GA1001+999999999GF100991001001999999001001MA1999999099101MD1010011+9999REMSYN060AAXX  11214 47121 32958 00000 11078 21087 39910 40214 50001;EQDQ01  00002PRCP99
0238471210999992000021200004+37180+128450FM-12+023999999V0209999C000010360019N0050001N1-00751-00881102251ADDAA199000091AY121061AY211061GF106991021051012501031001IA1019IA2999-00409KA1120N-00931MA1999999099211MD1210111+9999MW1101REMSYN088AAXX  12004 47121 31650 60000 11075 21088 39921 40225 52011 71021 82530 333 21093 30104;EQDQ01  00002PRCP99
0173471210999992000021203004+37180+128450FM-12+023999999V0202501N001012200019N0090001N1+00201-00501102061ADDAA199000091GA1001+999999999GF100991001001999999001001MA1999999099131MD1510081+9999REMSYN060AAXX  12034 47121 31959 02502 10020 21050 39913 40206 55008;EQDQ01  00002PRCP99
0163471210999992000021206004+37180+128450FM-12+023999999V0202501N003612200019N0150001N1+00421-00471101761ADDAA199000091GF104991011051012501001011MA1999999098871MD1710261+9999REMSYN066AAXX  12064 47121 32665 42507 10042 21047 39887 40176 57026 81501;EQDQ01  00002PRCP99
0163471210999992000021209004+37180+128450FM-12+023999999V0202501N002112200019N0180001N1+00231-00541101861ADDAA199000091GF102991001001999999001011MA1999999098941MD1010071+9999REMSYN066AAXX  12094 47121 32968 22504 10023 21054 39894 40186 50007 80001;EQDQ01  00002PRCP99
0216471210999992000021212004+37180+128450FM-12+023999999V0203601N000512200019N0120001N1-00241-00581102061ADDAA199000091GF102991001001999999001011IA1019IA2999-00509KA1120M+00511MA1999999099091MD1210151+9999REMSYN088AAXX  12124 47121 32962 23601 11024 21058 39909 40206 52015 80001 333 10051 30105 55065;EQDQ01  00002PRCP99
0163471210999992000021215004+37180+128450FM-12+023999999V0200201N000512200019N0100001N1-00421-00571102121ADDAA199000091GF102991001001999999001011MA1999999099111MD1210031+9999REMSYN066AAXX  12154 47121 32960 20201 11042 21057 39911 40212 52003 80001;EQDQ01  00002PRCP99
0131471210999992000021218004+37180+128450FM-12+023999999V0209999C000019999999N9999999N1-00661-00741102191ADDAA199000091MA1999999099161MD1810051+9999REMSYN060AAXX  12184 47121 3//// /0000 11066 21074 39916 40219 58005;EQDQ01  00002PRCP99
0201471210999992000021221004+37180+128450FM-12+023999999V0209999C000012200019N0045001N1-00761-00831102231ADDAA199000091AY101031AY201031GA1001+999999999GF100991001001999999001001MA1999999099191MD1710031+9999MW1101REMSYN066AAXX  12214 47121 31945 00000 11076 21083 39919 40223 57003 71000;EQDQ01  00002PRCP99
0248471210999992000021300004+37180+128450FM-12+023999999V0209999C000012200019N0020001N1-00671-00771102361ADDAA199000091AY101061AY201061GA1001+999999999GF100991001001999999001001IA1019IA2999-00409KA1120N-00841MA1999999099321MD1210131+9999MW1101REMSYN082AAXX  13004 47121 32920 00000 11067 21077 39932 40236 52013 71000 333 21084 30104;EQDQ01  00002PRCP99
0191471210999992000021303004+37180+128450FM-12+023999999V0201801N001012200019N0060001N1+00361-00401102001ADDAA199000091AY101031AY201031GF102991001001999999001011MA1999999099091MD1710231+9999MW1101REMSYN072AAXX  13034 47121 32956 21802 10036 21040 39909 40200 57023 71000 80001;EQDQ01  00002PRCP99
0163471210999992000021306004+37180+128450FM-12+023999999V0201401N001519999999N0180001N1+00721-00751101641ADDAA199000091GF108991081001999999011999MA1999999098771MD1710321+9999REMSYN066AAXX  13064 47121 32968 81403 10072 21075 39877 40164 57032 8801/;EQDQ01  00002PRCP99
0163471210999992000021309004+37180+128450FM-12+023999999V0203201N001512200019N0150001N1+00561-00671101581ADDAA199000091GF104991001001999999001061MA1999999098711MD1510071+9999REMSYN066AAXX  13094 47121 32965 43203 10056 21067 39871 40158 55007 80006;EQDQ01  00002PRCP99
0216471210999992000021312004+37180+128450FM-12+023999999V0202301N000519999999N0150001N1+00171-00601101641ADDAA199000091GF107991001001999999001061IA1019IA2999-00209KA1120M+00811MA1999999098721MD1810011+9999REMSYN088AAXX  13124 47121 32965 72301 10017 21060 39872 40164 58001 80006 333 10081 30102 55044;EQDQ01  00002PRCP99
0179471210999992000021315004+37180+128450FM-12+023999999V0209999C000010120019N0150001N1+00001-00561101661ADDAA199000091GF108991051051012501021999MA1999999098721MD1210021+9999REMSYN066AAXX  13154 47121 32665 80000 10000 21056 39872 40166 52000 8552/;EQDQ01+000002APC3  Q02  00002PRCP99
0191471210999992000021318004+37180+128450FM-12+023999999V0209999C000010120019N0080001N1-00071-00491101601ADDAA199000091AY121061AY221061GF108991051051012501021999MA1999999098651MD1710071+9999MW1101REMSYN072AAXX  13184 47121 31658 82500 11007 21049 39865 40160 57007 71022 8552/;EQDQ01  00002PRCP99
0191471210999992000021321004+37180+128450FM-12+023999999V0209999C000010120019N0070001N1-00091-00461101341ADDAA199000091AY121031AY221031GF108991051051012501021999MA1999999098401MD1710251+9999MW1101REMSYN072AAXX  13214 47121 31657 80000 11009 21046 39840 40134 57025 71022 8552/;EQDQ01  00002PRCP99
0254471210999992000021400004+37180+128450FM-12+023999999V0203401N001010042019N0015001N1-00061-00201101391ADDAA112000191AJ100009199999999AY171061AY271061GF108991061071004501021999IA1309IA2999+00009KA1120N-00111MA1999999098451MD1210051+9999MW1711REMSYN106AAXX  14004 47121 11415 83402 11006 21020 39845 40139 52005 69912 77177 8672/ 333 21011 3/100 42000 7000/;
0161471210999992000021403004+37180+128450FM-12+023999999V0201801N000510075019N0045001N1+00141-00131101221ADDAY171031AY261031GF108991061051008001021999MA1999999098311MD1710141+9999MW1681REMSYN072AAXX  14034 47121 41545 81801 10014 21013 39831 40122 57014 76876 8652/;
0133471210999992000021406004+37180+128450FM-12+023999999V0202901N004612200019N0150001N1+00221-00811101061ADDGF103991031081008001001001MA1999999098161MD1710151+9999REMSYN066AAXX  14064 47121 42565 32909 10022 21081 39816 40106 57015 83800;
0161471210999992000021409004+37180+128450FM-12+023999999V0202701N003610120019N0180001N1-00051-00721101131ADDAY171031AY271031GF106991061051012501001001MA1999999098201MD1010051+9999MW1701REMSYN072AAXX  14094 47121 41668 62707 11005 21072 39820 40113 50005 77077 86500;
0209471210999992000021412004+37180+128450FM-12+023999999V0202701N003112200019N0180001N1-00281-01271101371ADDAA106000391GF102991021051012501001001IA1019IA2999-00509KA1120M+00311MA1999999098411MD1210211+9999REMSYN100AAXX  14124 47121 11668 22706 11028 21127 39841 40137 52021 69931 82500 333 10031 30105 55034 70003;
0144471210999992000021415004+37180+128450FM-12+023999999V0202701N005112200019N0150001N1-00491-01641101571ADDAA199000021GF102991021051999999001011MA1999999098581MD1210171+9999REMSYN066AAXX  14154 47121 32965 22710 11049 21164 39858 40157 52017 82501;
0144471210999992000021418004+37180+128450FM-12+023999999V0202701N002112200019N0150001N1-00671-01501101641ADDAA199000021GF103991031051012501001001MA1999999098621MD1210041+9999REMSYN066AAXX  14184 47121 32665 32704 11067 21150 39862 40164 52004 83500;
0112471210999992000021421004+37180+128450FM-12+023999999V0202501N004119999999N9999999N1-00781-01711101691ADDAA199000021MA1999999098661MD1010041+9999REMSYN060AAXX  14214 47121 3//// /2508 11078 21171 39866 40169 50004;
0220471210999992000021500004+37180+128450FM-12+023999999V0202501N003112200019N0200001N1-00751-01911101861ADDAA199000091GA1001+999999999GF100991001001999999001001IA1019IA2999-00709KA1120N-00871MA1999999098831MD1210171+9999REMSYN076AAXX  15004 47121 32970 02506 11075 21191 39883 40186 52017 333 21087 30107;EQDQ01  00002PRCP99
0163471210999992000021503004+37180+128450FM-12+023999999V0202701N006212200019N0250001N1-00481-02171101711ADDAA199000091GF101991011051012501001001MA1999999098711MD1710121+9999REMSYN066AAXX  15034 47121 32675 12712 11048 21217 39871 40171 57012 81500;EQDQ01  00002PRCP99
0163471210999992000021506004+37180+128450FM-12+023999999V0202701N006212200019N0250001N1-00311-01861101421ADDAA199000091GF103991021051012501001011MA1999999098451MD1710261+9999REMSYN066AAXX  15064 47121 32675 32712 11031 21186 39845 40142 57026 82501;EQDQ01  00002PRCP99
