0187471260999992000010100004+36930+126450FM-15+0302RKTM V0200401N007710600019N0048001N1+00101-00201999999ADDGA1011+000159999GA2071+060009999GF107991999999999999999999MA1102641999999MW1101REMMET077RKTM 2356Z 04015KT 4800 BR 1FG/// BKN200 01/M02 A3031 RMK CIG200/ QFF1028PT0;EQDQ01    003PRSWM1
0164471260999992000010101004+36930+126450FM-15+0302RKTM V0200401N008210600019N0060001N1+00101-00201999999ADDGA1071+060009999GF107991999999999999999999MA1102681999999MW1101REMMET070RKTM 0058Z 04016KT 6000 BR BKN200 01/M02 A3032 RMK CIG200/ QFF1028PT4;EQDQ01    003PRSWM1
0156471260999992000010102004+36930+126450FM-15+0302RKTM V0200501N007212200019N0060001N1+00201-00101999999ADDGA1021+060009999GF104991999999999999999999MA1102681999999MW1101REMMET062RKTM 0157Z 05014KT 6000 BR SCT200 02/M01 A3032 RMK QFF1028PT4;EQDQ01    003PRSWM1
0155471260999992000010103004+36930+126450FM-15+0302RKTM V0200601N006712200019N0060001N1+00501+00101999999ADDGA1021+060009999GF104991999999999999999999MA1102611999999MW1101REMMET061RKTM 0256Z 06013KT 6000 BR SCT200 05/01 A3030 RMK QFF1027PT5;EQDQ01    003PRSWM1
0155471260999992000010104004+36930+126450FM-15+0302RKTM V0200601N006212200019N0060001N1+00701+00301999999ADDGA1021+060009999GF104991999999999999999999MA1102571999999MW1101REMMET061RKTM 0357Z 06012KT 6000 BR SCT200 07/03 A3029 RMK QFF1027PT2;EQDQ01    003PRSWM1
0155471260999992000010105004+36930+126450FM-15+0302RKTM V0200801N005112200019N0060001N1+00901+00301999999ADDGA1021+060009999GF102991999999999999999999MA1102511999999MW1051REMMET061RKTM 0458Z 08010KT 6000 HZ FEW200 09/03 A3027 RMK QFF1026PT3;EQDQ01    003PRSWM1
0155471260999992000010105564+36930+126450FM-16+0302RKTM V0200601N004612200019N0060001N1+00901+00301999999ADDGA1021+060009999GF102991999999999999999999MA1102471999999MW1051REMMET061RKTM 0556Z 06009KT 6000 HZ FEW200 09/03 A3026 RMK QFF1026PT0;EQDQ01    003PRSWM1
0163471260999992000010106004+36930+126450FM-15+0302RKTM V0200701N003610600019N0060001N1+00801+00301999999ADDGA1071+060009999GF107991999999999999999999MA1102441999999MW1101REMMET069RKTM 0657Z 07007KT 6000 BR BKN200 08/03 A3025 RMK CIG200/ QFF1025PT6;EQDQ01    003PRSWM1
0163471260999992000010107004+36930+126450FM-15+0302RKTM V0200701N003610600019N0060001N1+00801+00301999999ADDGA1071+060009999GF107991999999999999999999MA1102441999999MW1101REMMET069RKTM 0657Z 07007KT 6000 BR BKN200 08/03 A3025 RMK CIG200/ QFF1025PT6;EQDQ01    003PRSWM1
0186471260999992000010108004+36930+126450FM-15+0302RKTM V0200501N003110600019N0060001N1+00601+00301999999ADDGA1021+030009999GA2071+060009999GF107991999999999999999999MA1102441999999MW1101REMMET076RKTM 0756Z 05006KT 6000 BR FEW100 BKN200 06/03 A3025 RMK CIG200/ QFF1025PT8;EQDQ01    003PRSWM1
0186471260999992000010109004+36930+126450FM-15+0302RKTM V0200701N002610600019N0060001N1+00601+00301999999ADDGA1021+030009999GA2071+060009999GF107991999999999999999999MA1102401999999MW1101REMMET076RKTM 0857Z 07005KT 6000 BR SCT100 BKN200 06/03 A3024 RMK CIG200/ QFF1025PT5;EQDQ01    003PRSWM1
0186471260999992000010110004+36930+126450FM-15+0302RKTM V0201001N002110600019N0080001N1+00601+00301999999ADDGA1021+030009999GA2081+060009999GF108991999999999999999999MA1102401999999MW1101REMMET076RKTM 0958Z 10004KT 8000 BR SCT100 OVC200 06/03 A3024 RMK CIG200/ QFF1025PT6;EQDQ01    003PRSWM1
0186471260999992000010111004+36930+126450FM-15+0302RKTM V0201001N002610600019N0080001N1+00601+00301999999ADDGA1021+030009999GA2071+060009999GF107991999999999999999999MA1102401999999MW1101REMMET076RKTM 1057Z 10005KT 8000 BR SCT100 BKN200 06/03 A3024 RMK CIG200/ QFF1025PT6;EQDQ01    003PRSWM1
0186471260999992000010112004+36930+126450FM-15+0302RKTM V0200701N003610600019N0080001N1+00601+00301999999ADDGA1021+030009999GA2081+060009999GF108991999999999999999999MA1102341999999MW1101REMMET076RKTM 1158Z 07007KT 8000 BR SCT100 OVC200 06/03 A3022 RMK CIG200/ QFF1025PT0;EQDQ01    003PRSWM1
0186471260999992000010113004+36930+126450FM-15+0302RKTM V0200801N005110300019N0080001N1+00601+00301999999ADDGA1071+030009999GA2081+060009999GF108991999999999999999999MA1102341999999MW1101REMMET076RKTM 1256Z 08010KT 8000 BR BKN100 OVC200 06/03 A3022 RMK CIG100/ QFF1025PT0;EQDQ01    003PRSWM1
0186471260999992000010114004+36930+126450FM-15+0302RKTM V0200601N004610300019N0090001N1+00601+00301999999ADDGA1071+030009999GA2081+060009999GF108991999999999999999999MA1102241999999MW1101REMMET076RKTM 1357Z 06009KT 9000 BR BKN100 OVC200 06/03 A3019 RMK CIG100/ QFF1023PT8;EQDQ01    003PRSWM1
0209471260999992000010115004+36930+126450FM-15+0302RKTM V0200501N004110300019N0090001N1+00501+00201999999ADDGA1021+009009999GA2071+030009999GA3081+060009999GF108991999999999999999999MA1102201999999MW1101REMMET083RKTM 1456Z 05008KT 9000 BR FEW030 BKN100 OVC200 05/02 A3018 RMK CIG100/ QFF1023PT3;EQDQ01    003PRSWM1
0209471260999992000010116004+36930+126450FM-15+0302RKTM V0200701N004110300019N0090001N1+00501+00201999999ADDGA1021+009009999GA2071+030009999GA3081+060009999GF108991999999999999999999MA1102101999999MW1101REMMET083RKTM 1556Z 07008KT 9000 BR FEW030 BKN100 OVC200 05/02 A3015 RMK CIG100/ QFF1022PT3;EQDQ01    003PRSWM1
0209471260999992000010117004+36930+126450FM-15+0302RKTM V0200901N005110300019N0090001N1+00501+00201999999ADDGA1021+009009999GA2071+030009999GA3081+060009999GF108991999999999999999999MA1101961999999MW1101REMMET083RKTM 1657Z 09010KT 9000 BR SCT030 BKN100 OVC200 05/02 A3011 RMK CIG100/ QFF1021PT1;EQDQ01    003PRSWM1
0209471260999992000010118004+36930+126450FM-15+0302RKTM V0200901N005110300019N0090001N1+00501+00201999999ADDGA1021+009009999GA2071+030009999GA3081+060009999GF108991999999999999999999MA1102001999999MW1101REMMET083RKTM 1757Z 09010KT 9000 BR FEW030 BKN100 OVC200 05/02 A3012 RMK CIG100/ QFF1021PT4;EQDQ01    003PRSWM1
0209471260999992000010120004+36930+126450FM-15+0302RKTM V0201001N006710300019N0080001N1+00601+00401999999ADDGA1021+009009999GA2071+030009999GA3081+060009999GF108991999999999999999999MA1101731999999MW1101REMMET083RKTM 1957Z 10013KT 8000 BR SCT030 BKN100 OVC200 06/04 A3004 RMK CIG100/ QFF1018PT5;EQDQ01    003PRSWM1
0209471260999992000010121004+36930+126450FM-15+0302RKTM V0201101N007210300019N0080001N1+00601+00401999999ADDGA1021+009009999GA2071+030009999GA3081+060009999GF108991999999999999999999MA1101631999999MW1101REMMET083RKTM 2058Z 11014KT 8000 BR SCT030 BKN100 OVC200 06/04 A3001 RMK CIG100/ QFF1017PT5;EQDQ01    003PRSWM1
0147471260999992000010121304+36930+126450FM-16+0302RKTM V0201101N007710090019N0080001N1+99999+99999999999ADDGA1071+009009999GA2081+030009999GF108991999999999999999999MW1001MW2611OC101341REMMET057RKTM 2130Z 11015G026KT 8000 -RA BKN030 OVC100 RMK CIG030;
0205471260999992000010122004+36930+126450FM-15+0302RKTM V0201101N007710090019N0080001N1+00601+00401999999ADDGA1071+009009999GA2081+030009999GF108991999999999999999999MA1101561999999MW1611OC101391REMMET087RKTM 2157Z 11015G027KT 8000 -RA BKN030 OVC100 06/04 A2999 RMK CIG030/1RA00/ QFF1016PT8;EQDQ01    003PRSWM1
0205471260999992000010123004+36930+126450FM-15+0302RKTM V0201201N006710090019N0060001N1+00601+00401999999ADDGA1071+009009999GA2081+030009999GF108991999999999999999999MA1101561999999MW1611OC101291REMMET087RKTM 2258Z 12013G025KT 6000 -RA BKN030 OVC100 06/04 A2999 RMK CIG030/1RA00/ QFF1016PT8;EQDQ01    003PRSWM1
0250471260999992000010200004+36930+126450FM-15+0302RKTM V0201501N006710090019N0048001N1+00501+00401999999ADDGA1011+000159999GA2021+003609999GA3081+009009999GF108991999999999999999999MA1101631999999MW1611OC101291REMMET100RKTM 2357Z 15013G025KT 4800 -RA 1FG/// SCT012 OVC030 05/04 A3001 RMK CIG030/1RA03/6RA03/ QFF1017PT5;EQDQ01+000003PRSWM1Q02    003PRSWM1
0190471260999992000010200204+36930+126450FM-16+0302RKTM V0201701N006210036019N0032001N1+99999+99999999999ADDGA1021+000159999GA2071+003609999GA3081+009009999GF108991999999999999999999MW1001MW2611OC101131REMMET065RKTM 0020Z 17012G022KT 3200 -RA 2FG/// BKN012 OVC030 RMK CIGE012;EQDQ01+000003PRSWM1
0233471260999992000010202004+36930+126450FM-15+0302RKTM V0202201N007210036019N0032001N1+00301+00201999999ADDGA1021+000159999GA2071+003609999GA3081+009009999GF108991999999999999999999MA1101831999999MW1611REMMET091RKTM 0157Z 22014KT 3200 -RA 2FG/// BKN012 OVC030 03/02 A3007 RMK CIGE012/1RA01/ QFF1019PT7;EQDQ01+000003PRSWM1Q02    003PRSWM1
0176471260999992000010202504+36930+126450FM-16+0302RKTM V0202401N006210090019N0048001N1+99999+99999999999ADDGA1011+000159999GA2021+003609999GA3081+009009999GF108991999999999999999999MW1001MW2101REMMET059RKTM 0250Z 24012KT 4800 BR 1FG/// SCT012 OVC030 RMK CIG030;EQDQ01+000003PRSWM1
0231471260999992000010203004+36930+126450FM-15+0302RKTM V0202301N007210090019N0048001N1+00301+00101999999ADDGA1011+000159999GA2021+003609999GA3081+009009999GF108991999999999999999999MA1101761999999MW1101REMMET089RKTM 0258Z 23014KT 4800 BR 1FG/// SCT012 OVC030 03/01 A3005 RMK CIG030/1RA00/ QFF1019PT1;EQDQ01+000003PRSWM1Q02    003PRSWM1
0202471260999992000010204004+36930+126450FM-15+0302RKTM V0202401N007710090019N0060001N1+00301+00101999999ADDGA1021+003609999GA2071+009009999GF107991999999999999999999MA1101731999999MW1101REMMET076RKTM 0357Z 24015KT 6000 BR SCT012 BKN030 03/01 A3004 RMK CIG030/ QFF1018PT7;EQDQ01+000003PRSWM1Q02    003PRSWM1
0202471260999992000010205004+36930+126450FM-15+0302RKTM V0202601N006710090019N0060001N1+00301+00101999999ADDGA1021+003609999GA2071+009009999GF107991999999999999999999MA1101691999999MW1101REMMET076RKTM 0456Z 26013KT 6000 BR FEW012 BKN030 03/01 A3003 RMK CIG030/ QFF1018PT4;EQDQ01+000003PRSWM1Q02    003PRSWM1
0178471260999992000010206004+36930+126450FM-15+0302RKTM V0202801N006712200019N0080001N1+00301+00101999999ADDGA1021+009009999GF104991999999999999999999MA1101731999999MW1101REMMET068RKTM 0557Z 28013KT 8000 BR SCT030 03/01 A3004 RMK 6RA04/ QFF1018PT7;EQDQ01+000003PRSWM1Q02    003PRSWM1
0171471260999992000010207004+36930+126450FM-15+0302RKTM V0202701N006212200019N0080001N1+00301+00101999999ADDGA1021+009009999GF104991999999999999999999MA1101801999999MW1101REMMET061RKTM 0658Z 27012KT 8000 BR SCT030 03/01 A3006 RMK QFF1019PT4;EQDQ01+000003PRSWM1Q02    003PRSWM1
0171471260999992000010208004+36930+126450FM-15+0302RKTM V0202701N005712200019N0080001N1+00201+00001999999ADDGA1021+009009999GF102991999999999999999999MA1101831999999MW1101REMMET061RKTM 0757Z 27011KT 8000 BR FEW030 02/00 A3007 RMK QFF1019PT7;EQDQ01+000003PRSWM1Q02    003PRSWM1
0172471260999992000010209004+36930+126450FM-15+0302RKTM V0202901N005712200019N0080001N1+00101-00101999999ADDGA1021+009009999GF104991999999999999999999MA1101901999999MW1101REMMET062RKTM 0858Z 29011KT 8000 BR SCT030 01/M01 A3009 RMK QFF1020PT4;EQDQ01+000003PRSWM1Q02    003PRSWM1
0172471260999992000010210004+36930+126450FM-15+0302RKTM V0202801N006212200019N0090001N1+00101-00101999999ADDGA1021+009009999GF102991999999999999999999MA1101961999999MW1101REMMET062RKTM 0957Z 28012KT 9000 BR FEW030 01/M01 A3011 RMK QFF1021PT4;EQDQ01+000003PRSWM1Q02    003PRSWM1
0172471260999992000010211004+36930+126450FM-15+0302RKTM V0203001N006712200019N0090001N1+00101-00201999999ADDGA1021+009009999GF102991999999999999999999MA1102001999999MW1101REMMET062RKTM 1057Z 30013KT 9000 BR FEW030 01/M02 A3012 RMK QFF1021PT9;EQDQ01+000003PRSWM1Q02    003PRSWM1
0153471260999992000010212004+36930+126450FM-15+0302RKTM V0203101N006712200019N0112651N1+00001-00401999999ADDGA1021+009009999GF102991999999999999999999MA1102031999999MW1001REMMET059RKTM 1156Z 31013KT 9999 FEW030 00/M04 A3013 RMK QFF1022PT3;EQDQ01+000000PRSWM2
0104471260999992000010213004+36930+126450FM-15+0302RKTM V0203301N006212200019N0112651N1+00001-00301999999ADDMA1102101999999MW1001REMMET052RKTM 1258Z 33012KT 9999 00/M03 A3015 RMK QFF1022PT6;EQDQ01+000000PRSWM2
0104471260999992000010214004+36930+126450FM-15+0302RKTM V0203101N006212200019N0112651N1+00001-00301999999ADDMA1102031999999MW1001REMMET052RKTM 1357Z 31012KT 9999 00/M03 A3013 RMK QFF1022PT3;EQDQ01+000000PRSWM2
0160471260999992000010215004+36930+126450FM-15+0302RKTM V0203001N005112200019N0112651N1+00001-00401999999ADDGA1021+009009999GF104991999999999999999999MA1102101999999MW1001REMMET066RKTM 1457Z 30010KT 9999 SCT030 00/M04 A3015 RMK 20007/ QFF1022PT6;EQDQ01+000000PRSWM2
0154471260999992000010216004+36930+126450FM-15+0302RKTM V0202901N005112200019N0112651N1-00101-00501999999ADDGA1021+009009999GF102991999999999999999999MA1102131999999MW1001REMMET060RKTM 1557Z 29010KT 9999 FEW030 M01/M05 A3016 RMK QFF1023PT1;EQDQ01+000000PRSWM2
0154471260999992000010217004+36930+126450FM-15+0302RKTM V0203001N005712200019N0112651N1-00101-00501999999ADDGA1021+009009999GF104991999999999999999999MA1102171999999MW1001REMMET060RKTM 1656Z 30011KT 9999 SCT030 M01/M05 A3017 RMK QFF1023PT5;EQDQ01+000000PRSWM2
0154471260999992000010218004+36930+126450FM-15+0302RKTM V0203001N006712200019N0112651N1-00201-00501999999ADDGA1021+009009999GF102991999999999999999999MA1102171999999MW1001REMMET060RKTM 1757Z 30013KT 9999 FEW030 M02/M05 A3017 RMK QFF1023PT5;EQDQ01+000000PRSWM2
0162471260999992000010219004+36930+126450FM-15+0302RKTM V0200301N004110090019N0112651N1-00201-00301999999ADDGA1071+009009999GF107991999999999999999999MA1102171999999MW1001REMMET068RKTM 1855Z 03008KT 9999 BKN030 M02/M03 A3017 RMK CIG030/ QFF1021PT7;EQDQ01+000000PRSWM2
0154471260999992000010220004+36930+126450FM-15+0302RKTM V0203301N004612200019N0112651N1-00301-00601999999ADDGA1021+009009999GF102991999999999999999999MA1102241999999MW1001REMMET060RKTM 1957Z 33009KT 9999 FEW030 M03/M06 A3019 RMK QFF1024PT3;EQDQ01+000000PRSWM2
0154471260999992000010221004+36930+126450FM-15+0302RKTM V0203201N005112200019N0112651N1-00401-00701999999ADDGA1021+009009999GF102991999999999999999999MA1102241999999MW1001REMMET060RKTM 2057Z 32010KT 9999 FEW030 M04/M07 A3019 RMK QFF1024PT3;EQDQ01+000000PRSWM2
0105471260999992000010222004+36930+126450FM-15+0302RKTM V0203301N004112200019N0112651N1+99999+99999999999ADDMA1102271999999MW1001REMMET053RKTM 2157Z 33008KT 9999 M04/M07 A3020 RMK QFF1024PT6;EQDQ01+000000PRSWM2
0105471260999992000010223004+36930+126450FM-15+0302RKTM V0203401N003112200019N0112651N1+99999+99999999999ADDMA1102341999999MW1001REMMET053RKTM 2258Z 34006KT 9999 M04/M08 A3022 RMK QFF1025PT5;EQDQ01+000000PRSWM2
0105471260999992000010300004+36930+126450FM-15+0302RKTM V0203301N002612200019N0112651N1+99999+99999999999ADDMA1102371999999MW1001REMMET053RKTM 2357Z 33005KT 9999 M04/M08 A3023 RMK QFF1025PT8;EQDQ01+000000PRSWM2
0105471260999992000010301004+36930+126450FM-15+0302RKTM V0203401N002112200019N0112651N1+99999+99999999999ADDMA1102441999999MW1001REMMET053RKTM 0058Z 34004KT 9999 M03/M08 A3025 RMK QFF1026PT3;EQDQ01+000000PRSWM2
0154471260999992000010302004+36930+126450FM-15+0302RKTM V0203001N002112200019N0112651N1-00301-00701999999ADDGA1021+060009999GF102991999999999999999999MA1102511999999MW1001REMMET060RKTM 0157Z 30004KT 9999 FEW200 M03/M07 A3027 RMK QFF1027PT0;EQDQ01+000000PRSWM2
0154471260999992000010303004+36930+126450FM-15+0302RKTM V0203201N003112200019N0112651N1-00201-00701999999ADDGA1021+060009999GF102991999999999999999999MA1102441999999MW1001REMMET060RKTM 0257Z 32006KT 9999 FEW200 M02/M07 A3025 RMK QFF1026PT3;EQDQ01+000000PRSWM2
0154471260999992000010304004+36930+126450FM-15+0302RKTM V0203101N004112200019N0112651N1-00101-00701999999ADDGA1021+060009999GF102991999999999999999999MA1102441999999MW1001REMMET060RKTM 0358Z 31008KT 9999 FEW200 M01/M07 A3025 RMK QFF1026PT3;EQDQ01+000000PRSWM2
0154471260999992000010305004+36930+126450FM-15+0302RKTM V0203001N004612200019N0112651N1-00101-00701999999ADDGA1021+060009999GF102991999999999999999999MA1102401999999MW1001REMMET060RKTM 0456Z 30009KT 9999 FEW200 M01/M07 A3024 RMK QFF1026PT0;EQDQ01+000000PRSWM2
0154471260999992000010306004+36930+126450FM-15+0302RKTM V0202801N005112200019N0112651N1+00001-00601999999ADDGA1021+060009999GF104991999999999999999999MA1102401999999MW1001REMMET060RKTM 0557Z 28010KT 9999 SCT200 M00/M06 A3024 RMK QFF1026PT0;EQDQ01+000000PRSWM2
0162471260999992000010307004+36930+126450FM-15+0302RKTM V0202601N005710600019N0112651N1-00101-00601999999ADDGA1071+060009999GF107991999999999999999999MA1102441999999MW1001REMMET068RKTM 0656Z 26011KT 9999 BKN200 M01/M06 A3025 RMK CIG200/ QFF1026PT5;EQDQ01+000000PRSWM2
0154471260999992000010308004+36930+126450FM-15+0302RKTM V0202801N004612200019N0112651N1-00201-00601999999ADDGA1021+060009999GF104991999999999999999999MA1102471999999MW1001REMMET060RKTM 0757Z 28009KT 9999 SCT200 M02/M06 A3026 RMK QFF1026PT9;EQDQ01+000000PRSWM2
0154471260999992000010309004+36930+126450FM-15+0302RKTM V0203101N002612200019N0112651N1-00301-00701999999ADDGA1021+060009999GF102991999999999999999999MA1102471999999MW1001REMMET060RKTM 0858Z 31005KT 9999 FEW200 M03/M07 A3026 RMK QFF1027PT0;EQDQ01+000000PRSWM2
0154471260999992000010310004+36930+126450FM-15+0302RKTM V0203401N002612200019N0112651N1-00301-00701999999ADDGA1021+060009999GF102991999999999999999999MA1102471999999MW1001REMMET060RKTM 0956Z 34005KT 9999 FEW200 M03/M07 A3026 RMK QFF1027PT0;EQDQ01+000000PRSWM2
0154471260999992000010311004+36930+126450FM-15+0302RKTM V0203301N002612200019N0112651N1-00301-00601999999ADDGA1021+060009999GF102991999999999999999999MA1102471999999MW1001REMMET060RKTM 1057Z 33005KT 9999 FEW200 M03/M06 A3026 RMK QFF1027PT0;EQDQ01+000000PRSWM2
0154471260999992000010312004+36930+126450FM-15+0302RKTM V0203501N002112200019N0112651N1-00301-00601999999ADDGA1021+060009999GF102991999999999999999999MA1102511999999MW1001REMMET060RKTM 1158Z 35004KT 9999 FEW200 M03/M06 A3027 RMK QFF1027PT3;EQDQ01+000000PRSWM2
0105471260999992000010313004+36930+126450FM-15+0302RKTM V0203601N002612200019N0112651N1+99999+99999999999ADDMA1102511999999MW1001REMMET053RKTM 1256Z 36005KT 9999 M03/M06 A3027 RMK QFF1027PT2;EQDQ01+000000PRSWM2
0105471260999992000010314004+36930+126450FM-15+0302RKTM V0200201N003612200019N0112651N1+99999+99999999999ADDMA1102511999999MW1001REMMET053RKTM 1357Z 02007KT 9999 M03/M06 A3027 RMK QFF1027PT2;EQDQ01+000000PRSWM2
0105471260999992000010315004+36930+126450FM-15+0302RKTM V0203601N003612200019N0112651N1+99999+99999999999ADDMA1102541999999MW1001REMMET053RKTM 1458Z 36007KT 9999 M03/M06 A3028 RMK QFF1027PT5;EQDQ01+000000PRSWM2
0105471260999992000010316004+36930+126450FM-15+0302RKTM V0203601N005112200019N0112651N1+99999+99999999999ADDMA1102571999999MW1001REMMET053RKTM 1557Z 36010KT 9999 M03/M06 A3029 RMK QFF1027PT9;EQDQ01+000000PRSWM2
0154471260999992000010317004+36930+126450FM-15+0302RKTM V0200101N004612200019N0112651N1-00301-00601999999ADDGA1021+060009999GF102991999999999999999999MA1102541999999MW1001REMMET060RKTM 1657Z 01009KT 9999 FEW200 M03/M06 A3028 RMK QFF1027PT5;EQDQ01+000000PRSWM2
0154471260999992000010318004+36930+126450FM-15+0302RKTM V0200301N003612200019N0112651N1-00301-00701999999ADDGA1021+060009999GF102991999999999999999999MA1102571999999MW1001REMMET060RKTM 1756Z 03007KT 9999 FEW200 M03/M07 A3029 RMK QFF1027PT9;EQDQ01+000000PRSWM2
0105471260999992000010319004+36930+126450FM-15+0302RKTM V0200301N004112200019N0112651N1+99999+99999999999ADDMA1102571999999MW1001REMMET053RKTM 1858Z 03008KT 9999 M04/M07 A3029 RMK QFF1027PT9;EQDQ01+000000PRSWM2
0154471260999992000010320004+36930+126450FM-15+0302RKTM V0200401N004612200019N0112651N1-00401-00701999999ADDGA1021+060009999GF102991999999999999999999MA1102541999999MW1001REMMET060RKTM 1957Z 04009KT 9999 FEW200 M04/M07 A3028 RMK QFF1027PT5;EQDQ01+000000PRSWM2
0154471260999992000010321004+36930+126450FM-15+0302RKTM V0200201N005112200019N0112651N1-00401-00701999999ADDGA1021+060009999GF102991999999999999999999MA1102571999999MW1001REMMET060RKTM 2056Z 02010KT 9999 FEW200 M04/M07 A3029 RMK QFF1028PT0;EQDQ01+000000PRSWM2
0154471260999992000010322004+36930+126450FM-15+0302RKTM V0200401N005112200019N0112651N1-00401-00701999999ADDGA1021+060009999GF102991999999999999999999MA1102571999999MW1001REMMET060RKTM 2157Z 04010KT 9999 FEW200 M04/M07 A3029 RMK QFF1028PT0;EQDQ01+000000PRSWM2
0173471260999992000010323004+36930+126450FM-15+0302RKTM V0200501N006212200019N0080001N1-00401-00701999999ADDGA1021+060009999GF104991999999999999999999MA1102541999999MW1101REMMET063RKTM 2256Z 05012KT 8000 BR SCT200 M04/M07 A3028 RMK QFF1027PT7;EQDQ01+000003PRSWM1Q02    003PRSWM1
0114471260999992000010400004+36930+126450FM-15+0302RKTM V0200401N005712200019N0080001N1+99999+99999999999ADDMA1102611999999MW1001MW2101REMMET056RKTM 2358Z 04011KT 8000 BR M04/M07 A3030 RMK QFF1028PT4;EQDQ01+000003PRSWM1
0114471260999992000010401004+36930+126450FM-15+0302RKTM V0200301N005112200019N0080001N1+99999+99999999999ADDMA1102641999999MW1001MW2101REMMET056RKTM 0057Z 03010KT 8000 BR M03/M06 A3031 RMK QFF1028PT6;EQDQ01+000003PRSWM1
0114471260999992000010402004+36930+126450FM-15+0302RKTM V0200401N004612200019N0090001N1+99999+99999999999ADDMA1102681999999MW1001MW2101REMMET056RKTM 0156Z 04009KT 9000 BR M02/M06 A3032 RMK QFF1028PT9;EQDQ01+000003PRSWM1
0114471260999992000010403004+36930+126450FM-15+0302RKTM V0200601N005112200019N0090001N1+99999+99999999999ADDMA1102641999999MW1001MW2101REMMET056RKTM 0258Z 06010KT 9000 BR M01/M04 A3031 RMK QFF1028PT6;EQDQ01+000003PRSWM1
0172471260999992000010404004+36930+126450FM-15+0302RKTM V0200901N004612200019N0090001N1+00101-00201999999ADDGA1021+060009999GF102991999999999999999999MA1102571999999MW1101REMMET062RKTM 0357Z 09009KT 9000 BR FEW200 01/M02 A3029 RMK QFF1027PT7;EQDQ01+000003PRSWM1Q02    003PRSWM1
0172471260999992000010405004+36930+126450FM-15+0302RKTM V0200801N003612200019N0090001N1+00301-00101999999ADDGA1021+060009999GF102991999999999999999999MA1102511999999MW1101REMMET062RKTM 0457Z 08007KT 9000 BR FEW200 03/M01 A3027 RMK QFF1027PT0;EQDQ01+000003PRSWM1Q02    003PRSWM1
0172471260999992000010406004+36930+126450FM-15+0302RKTM V0200601N003612200019N0090001N1+00301-00201999999ADDGA1021+060009999GF102991999999999999999999MA1102471999999MW1101REMMET062RKTM 0556Z 06007KT 9000 BR FEW200 03/M02 A3026 RMK QFF1026PT7;EQDQ01+000003PRSWM1Q02    003PRSWM1
0172471260999992000010407004+36930+126450FM-15+0302RKTM V0200601N005112200019N0090001N1+00201-00301999999ADDGA1021+060009999GF104991999999999999999999MA1102511999999MW1101REMMET062RKTM 0658Z 06010KT 9000 BR SCT200 02/M03 A3027 RMK QFF1027PT0;EQDQ01+000003PRSWM1Q02    003PRSWM1
0151471260999992000010407314+36930+126450FM-16+0302RKTM V0200801N005710600019N0080001N1+99999+99999999999ADDGA1071+060009999GF107991999999999999999999MA1102511999999MW1001MW2101REMMET051RKTM 0731Z 08011KT 8000 BR BKN200 A3027 RMK CIG200;EQDQ01+000003PRSWM1
0203471260999992000010408004+36930+126450FM-15+0302RKTM V0200601N005710600019N0080001N1+00101-00301999999ADDGA1021+030009999GA2071+060009999GF107991999999999999999999MA1102511999999MW1101REMMET077RKTM 0757Z 06011KT 8000 BR FEW100 BKN200 01/M03 A3027 RMK CIG200/ QFF1027PT2;EQDQ01+000003PRSWM1Q02    003PRSWM1
0203471260999992000010409004+36930+126450FM-15+0302RKTM V0200401N006210300019N0080001N1+00101-00301999999ADDGA1071+030009999GA2071+060009999GF107991999999999999999999MA1102511999999MW1101REMMET077RKTM 0856Z 04012KT 8000 BR BKN100 BKN200 01/M03 A3027 RMK CIG100/ QFF1027PT0;EQDQ01+000003PRSWM1Q02    003PRSWM1
0203471260999992000010410004+36930+126450FM-15+0302RKTM V0200401N005110300019N0080001N1+00101-00301999999ADDGA1071+030009999GA2071+060009999GF107991999999999999999999MA1102441999999MW1101REMMET077RKTM 0957Z 04010KT 8000 BR BKN100 BKN200 01/M03 A3025 RMK CIG100/ QFF1026PT5;EQDQ01+000003PRSWM1Q02    003PRSWM1
0203471260999992000010411004+36930+126450FM-15+0302RKTM V0200501N005110300019N0090001N1+00101-00401999999ADDGA1071+030009999GA2071+060009999GF107991999999999999999999MA1102441999999MW1101REMMET077RKTM 1058Z 05010KT 9000 BR BKN100 BKN200 01/M04 A3025 RMK CIG100/ QFF1026PT5;EQDQ01+000003PRSWM1Q02    003PRSWM1
0203471260999992000010412004+36930+126450FM-15+0302RKTM V0200501N005110300019N0090001N1+00101-00401999999ADDGA1071+030009999GA2071+060009999GF107991999999999999999999MA1102401999999MW1101REMMET077RKTM 1157Z 05010KT 9000 BR BKN100 BKN200 01/M04 A3024 RMK CIG100/ QFF1026PT2;EQDQ01+000003PRSWM1Q02    003PRSWM1
0184471260999992000010413004+36930+126450FM-15+0302RKTM V0200601N006210300019N0112651N1+00101-00401999999ADDGA1071+030009999GA2081+060009999GF108991999999999999999999MA1102341999999MW1001REMMET074RKTM 1256Z 06012KT 9999 BKN100 OVC200 01/M04 A3022 RMK CIG100/ QFF1025PT3;EQDQ01+000000PRSWM2
0184471260999992000010414004+36930+126450FM-15+0302RKTM V0200501N006710300019N0112651N1+00101-00501999999ADDGA1071+030009999GA2081+060009999GF108991999999999999999999MA1102401999999MW1001REMMET074RKTM 1357Z 05013KT 9999 BKN100 OVC200 01/M05 A3024 RMK CIG100/ QFF1026PT0;EQDQ01+000000PRSWM2
0184471260999992000010415004+36930+126450FM-15+0302RKTM V0200401N006210300019N0112651N1+00101-00501999999ADDGA1071+030009999GA2081+060009999GF108991999999999999999999MA1102371999999MW1001REMMET074RKTM 1458Z 04012KT 9999 BKN100 OVC200 01/M05 A3023 RMK CIG100/ QFF1025PT6;EQDQ01+000000PRSWM2
0219471260999992000010416004+36930+126450FM-15+0302RKTM V0200401N006710300019N0112651N1+00101-00401999999ADDGA1021+009009999GA2071+030009999GA3081+060009999GF108991999999999999999999MA1102301999999MW1001OC101181REMMET085RKTM 1557Z 04013G023KT 9999 FEW030 BKN100 OVC200 01/M04 A3021 RMK CIG100/ QFF1024PT8;EQDQ01+000000PRSWM2
0187471260999992000010417004+36930+126450FM-15+0302RKTM V0200601N006710300019N0112651N1+99999+99999999999ADDGA1021+009009999GA2071+030009999GF107991999999999999999999MW1001OC101231REMMET084RKTM 1658Z 06013G024KT 9999 SCT030 BKN100 OC200 01/M04 A3021 RMK CIG100/ QFF1024PT6;EQDQ01+000000PRSWM2
0238471260999992000010418004+36930+126450FM-15+0302RKTM V0200601N007210090019N0090001N1+00101-00301999999ADDGA1071+009009999GA2071+030009999GA3081+060009999GF108991999999999999999999MA1102341999999MW1101OC101341REMMET088RKTM 1756Z 06014G026KT 9000 BR BKN030 BKN100 OVC200 01/M03 A3022 RMK CIG030/ QFF1025PT0;EQDQ01+000003PRSWM1Q02    003PRSWM1
0215471260999992000010419004+36930+126450FM-15+0302RKTM V0200401N007210090019N0090001N1+00001-00301999999ADDGA1071+009009999GA2081+030009999GF108991999999999999999999MA1102301999999MW1101OC101291REMMET081RKTM 1857Z 04014G025KT 9000 BR BKN030 OVC100 00/M03 A3021 RMK CIG030/ QFF1024PT8;EQDQ01+000003PRSWM1Q02    003PRSWM1
0166471260999992000010419054+36930+126450FM-16+0302RKTM V0200401N006710090019N0090001N1+99999+99999999999ADDGA1071+009009999GA2081+030009999GF108991999999999999999999MW1001MW2611OC101231REMMET057RKTM 1905Z 04013G024KT 9000 -RA BKN030 OVC100 RMK CIG030;EQDQ01+000003PRSWM1
0223471260999992000010420004+36930+126450FM-15+0302RKTM V0200401N007210090019N0080001N1+00001-00301999999ADDGA1071+009009999GA2081+030009999GF108991999999999999999999MA1102241999999MW1611OC101391REMMET089RKTM 1958Z 04014G027KT 8000 -RA BKN030 OVC100 M00/M03 A3019 RMK CIG030/1RA01/ QFF1024PT3;EQDQ01+000003PRSWM1Q02    003PRSWM1
0214471260999992000010421004+36930+126450FM-15+0302RKTM V02099999999990090019N0060001N1-00101-00301999999ADDGA1071+009009999GA2081+030009999GF108991999999999999999999MA1102171999999MW1611REMMET088RKTM 2057Z 0501G029KT 6000 -RA BKN030 OVC100 M01/M03 A3017 RMK CIG030/1RA02/ QFF1023PT6;EQDQ01+000003PRSWM1Q02    003PRSWM1
0246471260999992000010422004+36930+126450FM-15+0302RKTM V0200401N007210090019N0048001N1-00101-00301999999ADDGA1011+000159999GA2021+003609999GA3081+009009999GF108991999999999999999999MA1102201999999MW1611OC101341REMMET096RKTM 2157Z 04014G026KT 4800 -RA 1FG/// FEW012 OVC030 M01/M03 A3018 RMK CIG030/1RA02/ QFF1023PT9;EQDQ01+000003PRSWM1Q02    003PRSWM1
0213471260999992000010422194+36930+126450FM-16+0302RKTM V0200501N006710036019N0032001N1+99999+99999999999ADDGA1021+000159999GA2021+001809999GA3071+003609999GA4081+009009999GF108991999999999999999999MW1001MW2611OC101291REMMET072RKTM 2219Z 05013G025KT 3200 -RA 2FG/// FEW006 BKN012 OVC030 RMK CIGE012;EQDQ01+000003PRSWM1
0270471260999992000010423004+36930+126450FM-15+0302RKTM V0200501N006710036019N0032001N1-00101-00201999999ADDGA1021+000159999GA2021+001809999GA3071+003609999GA4081+009009999GF108991999999999999999999MA1102131999999MW1611OC101231REMMET104RKTM 2256Z 05013G024KT 3200 -RA 2FG/// SCT006 BKN012 OVC030 M01/M02 A3016 RMK CIGE012/1RA03/ QFF1023PT3;EQDQ01+000003PRSWM1Q02    003PRSWM1
0190471260999992000010423224+36930+126450FM-16+0302RKTM V0200501N007210018019N0016001N1+99999+99999999999ADDGA1031+000159999GA2071+001809999GA3081+003609999GF108991999999999999999999MW1001MW2611OC101291REMMET065RKTM 2322Z 05014G025KT 1600 -RA 3FG/// BKN006 OVC012 RMK CIGE006;EQDQ01+000003PRSWM1
0102471260999992000010423384+36930+126450FM-16+0302RKTM V0200501N006710001519N0000001N1+99999+99999999999ADDMW1001MW2611OC101181REMMET051RKTM 2338Z 05013G023KT 0000 -RA 9FG000 RMK CIGW000;EQDQ01+000003PRSWM1
0128471260999992000010500004+36930+126450FM-15+0302RKTM V0200301N006210001519N0000001N1+99999+99999999999ADDMW1001MW2611REMMET085RKTM 2357Z 03012KT 0000 -RA 9FG000 M01/M01 A3015 RMK CIGW000/1RA02/6RA10/ QFF1022PT9;EQDQ01+000003PRSWM1
0122471260999992000010501004+36930+126450FM-15+0302RKTM V0200401N006210001519N0000001N1+99999+99999999999ADDMW1001MW2611REMMET079RKTM 0056Z 04012KT 0000 -RA 9FG000 M00/M00 A3016 RMK CIGW000/1RA02/ QFF1023PT3;EQDQ01+000003PRSWM1
0120471260999992000010502004+36930+126450FM-15+0302RKTM V0200201N005710001519N0000001N1+99999+99999999999ADDMW1001MW2611REMMET077RKTM 0157Z 02011KT 0000 -RA 9FG000 00/00 A3015 RMK CIGW000/1RA03/ QFF1022PT9;EQDQ01+000003PRSWM1
0119471260999992000010503004+36930+126450FM-15+0302RKTM V0200301N005110001519N0000001N1+99999+99999999999ADDMW1001MW2631REMMET076RKTM 0258Z 03010KT 0000 RA 9FG000 00/00 A3012 RMK CIGW000/1RA18/ QFF1022PT3;EQDQ01+000003PRSWM1
0119471260999992000010504004+36930+126450FM-15+0302RKTM V0200501N005110001519N0000001N1+99999+99999999999ADDMW1001MW2631REMMET076RKTM 0357Z 05010KT 0000 RA 9FG000 00/00 A3009 RMK CIGW000/1RA19/ QFF1021PT2;EQDQ01+000003PRSWM1
0119471260999992000010505004+36930+126450FM-15+0302RKTM V0200701N006210001519N0000001N1+99999+99999999999ADDMW1001MW2631REMMET076RKTM 0456Z 07012KT 0000 RA 9FG000 01/01 A3005 RMK CIGW000/1RA12/ QFF1019PT4;EQDQ01+000003PRSWM1
0138471260999992000010506004+36930+126450FM-15+0302RKTM V0200801N006710001519N0000001N1+99999+99999999999ADDMW1001MW2611OC101181REMMET087RKTM 0557Z 08013G023KT 0000 -RA 9FG000 01/01 A3001 RMK CIGW000/1RA08/6RA62/ QFF1018PT1;EQDQ01+000003PRSWM1
0101471260999992000010506304+36930+126450FM-16+0302RKTM V0200801N006210001519N0000001N1+99999+99999999999ADDMW1001MW2441OC101131REMMET050RKTM 0630Z 08012G022KT 0000 FG 9FG000 RMK CIGW000;EQDQ01+000003PRSWM1
0119471260999992000010507004+36930+126450FM-15+0302RKTM V0200801N005710001519N0000001N1+99999+99999999999ADDMW1001MW2441REMMET076RKTM 0658Z 08011KT 0000 FG 9FG000 03/03 A3000 RMK CIGW000/1RA02/ QFF1017PT5;EQDQ01+000003PRSWM1
0177471260999992000010507274+36930+126450FM-16+0302RKTM V0200901N006210018019N0016001N1+99999+99999999999ADDGA1031+000159999GA2071+001809999GA3081+003609999GF108991999999999999999999MW1001MW2101REMMET060RKTM 0727Z 09012KT 1600 BR 3FG/// BKN006 OVC012 RMK CIGE006;EQDQ01+000003PRSWM1
0201471260999992000010507454+36930+126450FM-16+0302RKTM V0201001N005710036019N0032001N1+99999+99999999999ADDGA1021+000159999GA2021+001809999GA3071+003609999GA4081+009009999GF108991999999999999999999MW1001MW2101REMMET068RKTM 0745Z 10011KT 3200 BR 2FG/// SCT006 BKN012 OVC030 RMK CIGE0 12;EQDQ01+000003PRSWM1
0249471260999992000010508004+36930+126450FM-15+0302RKTM V0201101N005110036019N0032001N1+00301+00301999999ADDGA1021+000159999GA2021+001809999GA3071+003609999GA4081+009009999GF108991999999999999999999MA1101591999999MW1101REMMET091RKTM 0756Z 11010KT 3200 BR 2FG/// SCT006 BKN012 OVC030 03/03 A3000 RMK CIGE012/ QFF1017PT7;EQDQ01+000003PRSWM1Q02    003PRSWM1
0249471260999992000010509004+36930+126450FM-15+0302RKTM V0201001N005110036019N0032001N1+00301+00301999999ADDGA1021+000159999GA2021+001809999GA3071+003609999GA4081+009009999GF108991999999999999999999MA1101631999999MW1101REMMET091RKTM 0857Z 10010KT 3200 BR 2FG/// FEW006 BKN012 OVC030 03/03 A3001 RMK CIGE012/ QFF1018PT1;EQDQ01+000003PRSWM1Q02    003PRSWM1
0249471260999992000010510004+36930+126450FM-15+0302RKTM V0200701N005110036019N0032001N1+00301+00301999999ADDGA1021+000159999GA2021+001809999GA3071+003609999GA4081+009009999GF108991999999999999999999MA1101631999999MW1101REMMET091RKTM 0957Z 07010KT 3200 BR 2FG/// FEW006 BKN012 OVC030 03/03 A3001 RMK CIGE012/ QFF1018PT1;EQDQ01+000003PRSWM1Q02    003PRSWM1
0249471260999992000010511004+36930+126450FM-15+0302RKTM V0201001N006210036019N0032001N1+00401+00401999999ADDGA1021+000159999GA2021+001809999GA3071+003609999GA4081+009009999GF108991999999999999999999MA1101591999999MW1101REMMET091RKTM 1056Z 10012KT 3200 BR 2FG/// SCT006 BKN012 OVC030 04/04 A3000 RMK CIGE012/ QFF1017PT7;EQDQ01+000003PRSWM1Q02    003PRSWM1
0255471260999992000010512004+36930+126450FM-15+0302RKTM V0200801N006710036019N0032001N1+00401+00401999999ADDGA1021+000159999GA2021+001809999GA3071+003609999GA4081+009009999GF108991999999999999999999MA1101561999999MW1101REMMET097RKTM 1156Z 08013KT 3200 BR 2FG/// SCT006 BKN012 OVC030 04/04 A2999 RMK CIGE012/6RA02/ QFF1017PT4;EQDQ01+000003PRSWM1Q02    003PRSWM1
0202471260999992000010512054+36930+126450FM-16+0302RKTM V0201101N006710018019N0016001N1+99999+99999999999ADDGA1031+000159999GA2071+001809999GA3071+003609999GA4081+009009999GF108991999999999999999999MW1001MW2611REMMET069RKTM 1205Z 11013KT 1600 -RA 3FG/// BKN006 BKN012 OVC030 RMK CIGE 006;EQDQ01+000003PRSWM1
0090471260999992000010512204+36930+126450FM-16+0302RKTM V0201201N006210001519N0000001N1+99999+99999999999ADDMW1001MW2611REMMET047RKTM 1220Z 12012KT 0000 -RA 9FG000 RMK CIGW000;EQDQ01+000003PRSWM1
0120471260999992000010513004+36930+126450FM-15+0302RKTM V0201401N006210001519N0000001N1+99999+99999999999ADDMW1001MW2611REMMET077RKTM 1257Z 14012KT 0000 -RA 9FG000 04/04 A2998 RMK CIGW000/1RA02/ QFF1017PT0;EQDQ01+000003PRSWM1
0120471260999992000010514004+36930+126450FM-15+0302RKTM V0201101N006710001519N0000001N1+99999+99999999999ADDMW1001MW2611REMMET077RKTM 1358Z 11013KT 0000 -RA 9FG000 04/04 A2998 RMK CIGW000/1RA01/ QFF1017PT0;EQDQ01+000003PRSWM1
0126471260999992000010515004+36930+126450FM-15+0302RKTM V0201001N006210001519N0000001N1+99999+99999999999ADDMW1001MW2611REMMET083RKTM 1457Z 10012KT 0000 -RA 9FG000 05/05 A2996 RMK CIGW000/1RA00/20077/ QFF1016PT2;EQDQ01+000003PRSWM1
0120471260999992000010516004+36930+126450FM-15+0302RKTM V0200801N006210001519N0000001N1+99999+99999999999ADDMW1001MW2611REMMET077RKTM 1557Z 08012KT 0000 -RA 9FG000 05/05 A2995 RMK CIGW000/1RA02/ QFF1015PT8;EQDQ01+000003PRSWM1
0120471260999992000010516584+36930+126450FM-16+0302RKTM V0201001N006710001519N0000001N1+99999+99999999999ADDMW1001MW2611REMMET077RKTM 1658Z 10013KT 0000 -RA 9FG000 05/05 A2991 RMK CIGW000/1RA04/ QFF1014PT5;EQDQ01+000003PRSWM1
0126471260999992000010518004+36930+126450FM-15+0302RKTM V0201301N006210001519N0000001N1+99999+99999999999ADDMW1001MW2611REMMET083RKTM 1757Z 13012KT 0000 -RA 9FG000 05/05 A2992 RMK CIGW000/1RA04/6RA13/ QFF1014PT8;EQDQ01+000003PRSWM1
0120471260999992000010519004+36930+126450FM-15+0302RKTM V0201601N005110001519N0000001N1+99999+99999999999ADDMW1001MW2611REMMET077RKTM 1856Z 16010KT 0000 -RA 9FG000 05/05 A2994 RMK CIGW000/1RA02/ QFF1015PT3;EQDQ01+000003PRSWM1
0120471260999992000010521004+36930+126450FM-15+0302RKTM V0202301N004610001519N0000001N1+99999+99999999999ADDMW1001MW2611REMMET077RKTM 2056Z 23009KT 0000 -RA 9FG000 05/05 A2994 RMK CIGW000/1RA00/ QFF1015PT3;EQDQ01+000003PRSWM1
0089471260999992000010521154+36930+126450FM-16+0302RKTM V0202401N005110001519N0000001N1+99999+99999999999ADDMW1001MW2441REMMET046RKTM 2115Z 24010KT 0000 FG 9FG000 RMK CIGW000;EQDQ01+000003PRSWM1
0119471260999992000010522004+36930+126450FM-15+0302RKTM V0202601N004110001519N0000001N1+99999+99999999999ADDMW1001MW2441REMMET076RKTM 2157Z 26008KT 0000 FG 9FG000 04/04 A2996 RMK CIGW000/1RA00/ QFF1016PT0;EQDQ01+000003PRSWM1
0120471260999992000010601004+36930+126450FM-15+0302RKTM V0203301N005110001519N0000001N1+99999+99999999999ADDMW1001MW2511REMMET077RKTM 0057Z 33010KT 0000 -DZ 9FG000 02/02 A3005 RMK CIGW000/1RA00/ QFF1019PT2;EQDQ01+000003PRSWM1
0089471260999992000010601304+36930+126450FM-16+0302RKTM V0203201N006210001519N0000001N1+99999+99999999999ADDMW1001MW2441REMMET046RKTM 0130Z 32012KT 0000 FG 9FG000 RMK CIGW000;EQDQ01+000003PRSWM1
0200471260999992000010601374+36930+126450FM-16+0302RKTM V0203201N006710018019N0016001N1+99999+99999999999ADDGA1031+000159999GA2071+001809999GA3071+003609999GA4081+009009999GF108991999999999999999999MW1001MW2101REMMET067RKTM 0137Z 32013KT 1600 BR 3FG/// BKN006 BKN012 OVC030 RMK CIGE006;EQDQ01+000003PRSWM1
0200471260999992000010601464+36930+126450FM-16+0302RKTM V0203201N006710036019N0032001N1+99999+99999999999ADDGA1021+000159999GA2021+001809999GA3071+003609999GA4081+009009999GF108991999999999999999999MW1001MW2101REMMET067RKTM 0146Z 32013KT 3200 BR 2FG/// SCT006 BKN012 OVC030 RMK CIGE012;EQDQ01+000003PRSWM1
0255471260999992000010602004+36930+126450FM-15+0302RKTM V0203301N007210036019N0032001N1+00201+00101999999ADDGA1021+000159999GA2021+001809999GA3071+003609999GA4081+009009999GF108991999999999999999999MA1101831999999MW1101REMMET097RKTM 0158Z 33014KT 3200 BR 2FG/// SCT006 BKN012 OVC030 02/01 A3007 RMK CIGE012/1RA00/ QFF1019PT9;EQDQ01+000003PRSWM1Q02    003PRSWM1
0200471260999992000010602444+36930+126450FM-16+0302RKTM V0203101N007710036019N0048001N1+99999+99999999999ADDGA1011+000159999GA2021+001809999GA3071+003609999GA4081+009009999GF108991999999999999999999MW1001MW2101REMMET067RKTM 0244Z 31015KT 4800 BR 1FG/// FEW006 BKN012 OVC030 RMK CIGE012;EQDQ01+000003PRSWM1
0203471260999992000010603004+36930+126450FM-15+0302RKTM V0203101N007210036019N0080001N1+00201+00001999999ADDGA1071+003609999GA2081+009009999GF108991999999999999999999MA1101801999999MW1101REMMET077RKTM 0257Z 31014KT 8000 BR BKN012 OVC030 02/00 A3006 RMK CIGE012/ QFF1019PT5;EQDQ01+000003PRSWM1Q02    003PRSWM1
0203471260999992000010604004+36930+126450FM-15+0302RKTM V0203401N006210036019N0080001N1+00301+00101999999ADDGA1071+003609999GA2071+009009999GF107991999999999999999999MA1101731999999MW1101REMMET077RKTM 0357Z 34012KT 8000 BR BKN012 BKN030 03/01 A3004 RMK CIGE012/ QFF1018PT7;EQDQ01+000003PRSWM1Q02    003PRSWM1
0153471260999992000010604204+36930+126450FM-16+0302RKTM V0203301N006210090019N0080001N1+99999+99999999999ADDGA1021+003609999GA2071+009009999GF107991999999999999999999MW1001MW2101REMMET052RKTM 0420Z 33012KT 8000 BR SCT012 BKN030 RMK CIG030;EQDQ01+000003PRSWM1
0202471260999992000010605004+36930+126450FM-15+0302RKTM V0203201N007210090019N0060001N1+00301+00001999999ADDGA1021+003609999GA2071+009009999GF107991999999999999999999MA1101731999999MW1101REMMET076RKTM 0456Z 32014KT 6000 BR SCT012 BKN030 03/00 A3004 RMK CIG030/ QFF1018PT7;EQDQ01+000003PRSWM1Q02    003PRSWM1
0231471260999992000010606004+36930+126450FM-15+0302RKTM V0203401N006710090019N0048001N1+00201+00001999999ADDGA1011+000159999GA2021+003609999GA3071+009009999GF107991999999999999999999MA1101761999999MW1101REMMET089RKTM 0557Z 34013KT 4800 BR 1FG/// SCT012 BKN030 02/00 A3005 RMK CIG030/6RA00/ QFF1019PT1;EQDQ01+000003PRSWM1Q02    003PRSWM1
0215471260999992000010607004+36930+126450FM-15+0302RKTM V0203301N007710090019N0060001N1+00001-00201999999ADDGA1021+003609999GA2081+009009999GF108991999999999999999999MA1101831999999MW1101OC101341REMMET081RKTM 0658Z 33015G026KT 6000 BR SCT012 OVC030 00/M02 A3007 RMK CIG030/ QFF1019PT9;EQDQ01+000003PRSWM1Q02    003PRSWM1
0239471260999992000010608004+36930+126450FM-15+0302RKTM V0203101N009310090019N0080001N1-00101-00401999999ADDGA1021+003609999GA2071+009009999GA3081+060009999GF108991999999999999999999MA1101931999999MW1101OC101491REMMET089RKTM 0757Z 31018G029KT 8000 BR FEW012 BKN030 OVC200 M01/M04 A3010 RMK CIG030/ QFF1021PT2;EQDQ01+000003PRSWM1Q02    003PRSWM1
0317471260999992000010609004+36930+126450SY-MT+0302RKTM V0202501N002110090019N0090001N1-00201-00501101091ADDGA1021+003609999GA2071+009009999GA3081+060009999GF108991021051999999021999MA1102031098401MD1210151+9999MW1101REMSYN066AAXX  06094 47126 ///// 82504 100/6 20027 39840 40109 52015 8252/;MET089RKTM 0856Z 32016G028KT 9000 BR FEW012 BKN030 OVC200 M02/M05 A3013 RMK CIG030/ QFF1022PT3;EQDQ01+000003PRSWM1Q02    003PRSWM1
0216471260999992000010610004+36930+126450FM-15+0302RKTM V0203201N007210090019N0090001N1-00201-00501999999ADDGA1071+009009999GA2081+060009999GF108991999999999999999999MA1102131999999MW1101OC101291REMMET082RKTM 0958Z 32014G025KT 9000 BR BKN030 OVC200 M02/M05 A3016 RMK CIG030/ QFF1023PT1;EQDQ01+000003PRSWM1Q02    003PRSWM1
0197471260999992000010611004+36930+126450FM-15+0302RKTM V0203301N006710090019N0112651N1-00301-00601999999ADDGA1071+009009999GA2071+060009999GF107991999999999999999999MA1102131999999MW1001OC101231REMMET079RKTM 1057Z 33013G024KT 9999 BKN030 BKN200 M03/M06 A3016 RMK CIG030/ QFF1023PT3;EQDQ01+000000PRSWM2
0197471260999992000010612004+36930+126450FM-15+0302RKTM V0203101N006710090019N0112651N1-00301-00601999999ADDGA1071+009009999GA2071+060009999GF107991999999999999999999MA1102201999999MW1001OC101291REMMET079RKTM 1156Z 31013G025KT 9999 BKN030 BKN200 M03/M06 A3018 RMK CIG030/ QFF1023PT9;EQDQ01+000000PRSWM2
0143471260999992000010612254+36930+126450FM-16+0302RKTM V0203201N007210090019N0112651N1+99999+99999999999ADDGA1071+009009999GF107991999999999999999999MW1001MW2711OC101391REMMET050RKTM 1225Z 32014G027KT 9999 -SN BKN030 RMK CIG030;EQDQ01+000003PRSWM1
0200471260999992000010613004+36930+126450FM-15+0302RKTM V0203201N007710090019N0090001N1-00301-00601999999ADDGA1071+009009999GF107991999999999999999999MA1102171999999MW1711OC101541REMMET082RKTM 1258Z 32015G030KT 9000 -SN BKN030 M03/M06 A3017 RMK CIG030/1SN00/ QFF1023PT6;EQDQ01+000003PRSWM1Q02    003PRSWM1
0200471260999992000010614004+36930+126450FM-15+0302RKTM V0203201N007710090019N0080001N1-00401-00701999999ADDGA1071+009009999GF107991999999999999999999MA1102171999999MW1711OC101491REMMET082RKTM 1357Z 32015G029KT 8000 -SN BKN030 M04/M07 A3017 RMK CIG030/1SN01/ QFF1023PT6;EQDQ01+000003PRSWM1Q02    003PRSWM1
0189471260999992000010614294+36930+126450FM-16+0302RKTM V0203101N007710090019N0048001N1+99999+99999999999ADDGA1011+000159999GA2021+001809999GA3081+009009999GF108991999999999999999999MW1001MW2711OC101491REMMET064RKTM 1429Z 31015G029KT 4800 -SN 1FG/// FEW006 OVC030 RMK CIG030;EQDQ01+000003PRSWM1
0206471260999992000010615004+36930+126450FM-15+0302RKTM V0203001N007210090019N0060001N1-00501-00701999999ADDGA1081+009009999GF108991999999999999999999MA1102171999999MW1711OC101441REMMET088RKTM 1456Z 30014G028KT 6000 -SN OVC030 M05/M07 A3017 RMK CIG030/1SN02/20020/ QFF1023PT6;EQDQ01+000003PRSWM1Q02    003PRSWM1
0223471260999992000010616004+36930+126450FM-15+0302RKTM V0203001N007210090019N0048001N1-00501-00701999999ADDGA1011+000159999GA2081+009009999GF108991999999999999999999MA1102171999999MW1711OC101491REMMET089RKTM 1557Z 30014G029KT 4800 -SN 1FG/// OVC030 M05/M07 A3017 RMK CIG030/1SN02/ QFF1023PT6;EQDQ01+000003PRSWM1Q02    003PRSWM1
0246471260999992000010617004+36930+126450FM-15+0302RKTM V0203301N007710090019N0048001N1-00601-00701999999ADDGA1011+000159999GA2021+003609999GA3081+009009999GF108991999999999999999999MA1102171999999MW1711OC101541REMMET096RKTM 1658Z 33015G030KT 4800 -SN 1FG/// SCT012 OVC030 M06/M07 A3017 RMK CIG030/1SN06/ QFF1023PT6;EQDQ01+000003PRSWM1Q02    003PRSWM1
0200471260999992000010619004+36930+126450FM-15+0302RKTM V0203301N006710090019N0090001N1-00801-01101999999ADDGA1081+009009999GF108991999999999999999999MA1102341999999MW1711OC101231REMMET082RKTM 1857Z 33013G024KT 9000 -SN OVC030 M08/M11 A3022 RMK CIG030/1SN01/ QFF1025PT6;EQDQ01+000003PRSWM1Q02    003PRSWM1
0187471260999992000010620004+36930+126450FM-15+0302RKTM V0203201N005110090019N0090001N1-00901-01201999999ADDGA1071+009009999GF107991999999999999999999MA1102401999999MW1101REMMET077RKTM 1958Z 32010KT 9000 BR BKN030 M09/M12 A3024 RMK CIG030/1SN00/ QFF1026PT3;EQDQ01+000003PRSWM1Q02    003PRSWM1
0188471260999992000010621004+36930+126450FM-15+0302RKTM V0200101N004610090019N0090001N1-00901-01201999999ADDGA1081+009009999GF108991999999999999999999MA1102441999999MW1711REMMET078RKTM 2056Z 01009KT 9000 -SN OVC030 M09/M12 A3025 RMK CIG030/1SN00/ QFF1026PT9;EQDQ01+000003PRSWM1Q02    003PRSWM1
0130471260999992000010621104+36930+126450FM-16+0302RKTM V0203501N004110090019N0090001N1+99999+99999999999ADDGA1081+009009999GF108991999999999999999999MW1001MW2101REMMET045RKTM 2110Z 35008KT 9000 BR OVC030 RMK CIG030;EQDQ01+000003PRSWM1
0187471260999992000010622004+36930+126450FM-15+0302RKTM V0200201N004110090019N0090001N1-00901-01301999999ADDGA1071+009009999GF107991999999999999999999MA1102511999999MW1101REMMET077RKTM 2157Z 02008KT 9000 BR BKN030 M09/M13 A3027 RMK CIG030/1SN00/ QFF1027PT5;EQDQ01+000003PRSWM1Q02    003PRSWM1
0131471260999992000010622404+36930+126450FM-16+0302RKTM V0200101N003610090019N0060001N1+99999+99999999999ADDGA1071+009009999GF107991999999999999999999MW1001MW2711REMMET046RKTM 2240Z 01007KT 6000 -SN BKN030 RMK CIG030;EQDQ01+000003PRSWM1
0188471260999992000010623004+36930+126450FM-15+0302RKTM V0203501N003110090019N0048001N1-00901-01201999999ADDGA1071+009009999GF107991999999999999999999MA1102541999999MW1711REMMET078RKTM 2258Z 35006KT 4800 -SN BKN030 M09/M12 A3028 RMK CIG030/1SN01/ QFF1027PT9;EQDQ01+000003PRSWM1Q02    003PRSWM1
0217471260999992000010700004+36930+126450FM-15+0302RKTM V0200101N004110090019N0048001N1-00901-01201999999ADDGA1011+000159999GA2071+009009999GF107991999999999999999999MA1102571999999MW1711REMMET091RKTM 2357Z 01008KT 4800 -SN 1FG/// BKN030 M09/M12 A3029 RMK CIG030/1SN01/6SN03/ QFF1028PT2;EQDQ01+000003PRSWM1Q02    003PRSWM1
0153471260999992000010700404+36930+126450FM-16+0302RKTM V0200201N004610090019N0048001N1+99999+99999999999ADDGA1011+000159999GA2071+009009999GF107991999999999999999999MW1001MW2101REMMET052RKTM 0040Z 02009KT 4800 BR 1FG/// BKN030 RMK CIG030;EQDQ01+000003PRSWM1
0203471260999992000010701004+36930+126450FM-15+0302RKTM V0200401N004112200019N0048001N1-00901-01201999999ADDGA1011+000159999GA2021+009009999GF104991999999999999999999MA1102641999999MW1101REMMET077RKTM 0056Z 04008KT 4800 BR 1FG/// SCT030 M09/M12 A3031 RMK 1SN00/ QFF1028PT9;EQDQ01+000003PRSWM1Q02    003PRSWM1
0173471260999992000010702004+36930+126450FM-15+0302RKTM V0200501N003612200019N0060001N1-00901-01201999999ADDGA1021+009009999GF104991999999999999999999MA1102641999999MW1101REMMET063RKTM 0157Z 05007KT 6000 BR SCT030 M09/M12 A3031 RMK QFF1029PT0;EQDQ01+000003PRSWM1Q02    003PRSWM1
0173471260999992000010703004+36930+126450FM-15+0302RKTM V0200501N004612200019N0090001N1-00901-01201999999ADDGA1021+009009999GF102991999999999999999999MA1102611999999MW1101REMMET063RKTM 0258Z 05009KT 9000 BR FEW030 M09/M12 A3030 RMK QFF1028PT7;EQDQ01+000003PRSWM1Q02    003PRSWM1
0154471260999992000010704004+36930+126450FM-15+0302RKTM V0200501N004112200019N0112651N1-00801-01201999999ADDGA1021+009009999GF102991999999999999999999MA1102541999999MW1001REMMET060RKTM 0356Z 05008KT 9999 FEW030 M08/M12 A3028 RMK QFF1028PT0;EQDQ01+000000PRSWM2
0154471260999992000010705004+36930+126450FM-15+0302RKTM V0200301N002612200019N0112651N1-00701-01101999999ADDGA1021+009009999GF102991999999999999999999MA1102471999999MW1001REMMET060RKTM 0457Z 03005KT 9999 FEW030 M07/M11 A3026 RMK QFF1027PT2;EQDQ01+000000PRSWM2
0161471260999992000010706004+36930+126450FM-15+0302RKTM V0200501N002112200019N0112651N1-00701-01101999999ADDGA1021+009009999GF102991999999999999999999MA1102441999999MW1001REMMET067RKTM 0558Z 05004KT 9999 FEW030 M07/M11 A3025 RMK 6SN00/ QFF1027PT0;EQDQ01+000000PRSWM2
0154471260999992000010707004+36930+126450FM-15+0302RKTM V0200801N001512200019N0112651N1-00501-00901999999ADDGA1021+009009999GF104991999999999999999999MA1102441999999MW1001REMMET060RKTM 0656Z 08003KT 9999 SCT030 M05/M09 A3025 RMK QFF1027PT0;EQDQ01+000000PRSWM2
0082471260999992000010707364+36930+126450FM-16+0302RKTM V0200801N003110090019N0112651N1+99999+99999999999ADDMW1001REMMET045RKTM 0736Z 08006KT 9999 030 A3025 RMK CIG030;EQDQ01+000000PRSWM2
0162471260999992000010708004+36930+126450FM-15+0302RKTM V0200801N003110090019N0112651N1-00801-01301999999ADDGA1071+009009999GF107991999999999999999999MA1102441999999MW1001REMMET068RKTM 0757Z 08006KT 9999 BKN030 M08/M13 A3025 RMK CIG030/ QFF1027PT2;EQDQ01+000000PRSWM2
0131471260999992000010708204+36930+126450FM-16+0302RKTM V0200801N004110090019N0090001N1+99999+99999999999ADDGA1071+009009999GF107991999999999999999999MW1001MW2711REMMET046RKTM 0820Z 08008KT 9000 -SN BKN030 RMK CIG030;EQDQ01+000003PRSWM1
0188471260999992000010709004+36930+126450FM-15+0302RKTM V0201001N003610090019N0090001N1-00801-01301999999ADDGA1071+009009999GF107991999999999999999999MA1102401999999MW1711REMMET078RKTM 0857Z 10007KT 9000 -SN BKN030 M08/M13 A3024 RMK CIG030/1SN00/ QFF1027PT1;EQDQ01+000003PRSWM1Q02    003PRSWM1
0188471260999992000010710004+36930+126450FM-15+0302RKTM V0201101N003110090019N0090001N1-00801-01301999999ADDGA1071+009009999GF107991999999999999999999MA1102401999999MW1711REMMET078RKTM 0958Z 11006KT 9000 -SN BKN030 M08/M13 A3024 RMK CIG030/1SN00/ QFF1027PT1;EQDQ01+000003PRSWM1Q02    003PRSWM1
0188471260999992000010711004+36930+126450FM-15+0302RKTM V0201001N004110090019N0090001N1-00801-01301999999ADDGA1071+009009999GF107991999999999999999999MA1102371999999MW1711REMMET078RKTM 1057Z 10008KT 9000 -SN BKN030 M08/M13 A3023 RMK CIG030/1SN00/ QFF1026PT7;EQDQ01+000003PRSWM1Q02    003PRSWM1
0079471260999992000010711154+36930+126450FM-16+0302RKTM V0201001N004612200019N0090001N1+99999+99999999999ADDMW1001MW2101REMMET036RKTM 1115Z 10009KT 9000 BR 030 RMK ;EQDQ01+000003PRSWM1
0186471260999992000010712004+36930+126450FM-15+0302RKTM V0201001N005112200019N0090001N1-00801-01301999999ADDGA1021+009009999GF104991999999999999999999MA1102371999999MW1101REMMET076RKTM 1157Z 10010KT 9000 BR SCT030 M08/M13 A3023 RMK 1SN00/6SN00/ QFF1026PT7;EQDQ01+000003PRSWM1Q02    003PRSWM1
0154471260999992000010713004+36930+126450FM-15+0302RKTM V0201101N004112200019N0112651N1-00901-01401999999ADDGA1021+009009999GF104991999999999999999999MA1102371999999MW1001REMMET060RKTM 1258Z 11008KT 9999 SCT030 M09/M14 A3023 RMK QFF1026PT7;EQDQ01+000000PRSWM2
0162471260999992000010714004+36930+126450FM-15+0302RKTM V0201401N003610090019N0112651N1-00901-01401999999ADDGA1071+009009999GF107991999999999999999999MA1102341999999MW1001REMMET068RKTM 1356Z 14007KT 9999 BKN030 M09/M14 A3022 RMK CIG030/ QFF1026PT3;EQDQ01+000000PRSWM2
0131471260999992000010714304+36930+126450FM-16+0302RKTM V0201601N004110090019N0112651N1+99999+99999999999ADDGA1071+009009999GF107991999999999999999999MW1001MW2711REMMET046RKTM 1430Z 16008KT 9999 -SN BKN030 RMK CIG030;EQDQ01+000003PRSWM1
0194471260999992000010715004+36930+126450FM-15+0302RKTM V0201801N005110090019N0080001N1-00901-01401999999ADDGA1071+009009999GF107991999999999999999999MA1102341999999MW1711REMMET084RKTM 1457Z 18010KT 8000 -SN BKN030 M09/M14 A3022 RMK CIG030/1SN01/20016/ QFF1026PT3;EQDQ01+000003PRSWM1Q02    003PRSWM1
0188471260999992000010716004+36930+126450FM-15+0302RKTM V0202001N004610090019N0060001N1-00901-01301999999ADDGA1071+009009999GF107991999999999999999999MA1102341999999MW1711REMMET078RKTM 1557Z 20009KT 6000 -SN BKN030 M09/M13 A3022 RMK CIG030/1SN03/ QFF1026PT3;EQDQ01+000003PRSWM1Q02    003PRSWM1
0188471260999992000010717004+36930+126450FM-15+0302RKTM V0202301N005110090019N0060001N1-00801-01201999999ADDGA1071+009009999GF107991999999999999999999MA1102341999999MW1711REMMET078RKTM 1658Z 23010KT 6000 -SN BKN030 M08/M12 A3022 RMK CIG030/1SN01/ QFF1026PT2;EQDQ01+000003PRSWM1Q02    003PRSWM1
0200471260999992000010718004+36930+126450FM-15+0302RKTM V0202701N005710090019N0060001N1-00701-01001999999ADDGA1071+009009999GF107991999999999999999999MA1102341999999MW1711REMMET090RKTM 1756Z 27011KT 6000 -SN BKN030 M07/M10 A3022 RMK CIG030/1SN02/6SN07/90401/ QFF1026PT0;EQDQ01+000003PRSWM1Q02    003PRSWM1
0188471260999992000010720004+36930+126450FM-15+0302RKTM V0202801N006710090019N0080001N1-00501-00801999999ADDGA1071+009009999GF107991999999999999999999MA1102341999999MW1711REMMET078RKTM 1958Z 28013KT 8000 -SN BKN030 M05/M08 A3022 RMK CIG030/1SN01/ QFF1025PT8;EQDQ01+000003PRSWM1Q02    003PRSWM1
0188471260999992000010721004+36930+126450FM-15+0302RKTM V0202801N006210090019N0080001N1-00401-00701999999ADDGA1071+009009999GF107991999999999999999999MA1102371999999MW1711REMMET078RKTM 2057Z 28012KT 8000 -SN BKN030 M04/M07 A3023 RMK CIG030/1SN00/ QFF1026PT2;EQDQ01+000003PRSWM1Q02    003PRSWM1
0188471260999992000010722004+36930+126450FM-15+0302RKTM V0203001N006210090019N0080001N1-00301-00601999999ADDGA1081+009009999GF108991999999999999999999MA1102371999999MW1711REMMET078RKTM 2157Z 30012KT 8000 -SN OVC030 M03/M06 A3023 RMK CIG030/1SN00/ QFF1026PT2;EQDQ01+000003PRSWM1Q02    003PRSWM1
0188471260999992000010723004+36930+126450FM-15+0302RKTM V0202901N006210090019N0080001N1-00301-00601999999ADDGA1081+009009999GF108991999999999999999999MA1102371999999MW1711REMMET078RKTM 2256Z 29012KT 8000 -SN OVC030 M03/M06 A3023 RMK CIG030/1SN00/ QFF1026PT0;EQDQ01+000003PRSWM1Q02    003PRSWM1
0200471260999992000010800004+36930+126450FM-15+0302RKTM V0203001N006210090019N0060001N1-00301-00601999999ADDGA1081+009009999GF108991999999999999999999MA1102371999999MW1711REMMET090RKTM 2358Z 30012KT 6000 -SN OVC030 M03/M06 A3023 RMK CIG030/1SN00/6SN05/90401/ QFF1026PT0;EQDQ01+000003PRSWM1Q02    003PRSWM1
0130471260999992000010801354+36930+126450FM-16+0302RKTM V0202701N007210090019N0090001N1+99999+99999999999ADDGA1071+009009999GF107991999999999999999999MW1001MW2101REMMET045RKTM 0135Z 27014KT 9000 BR BKN030 RMK CIG030;EQDQ01+000003PRSWM1
0187471260999992000010802004+36930+126450FM-15+0302RKTM V0202901N006710090019N0090001N1-00101-00501999999ADDGA1071+009009999GF107991999999999999999999MA1102471999999MW1101REMMET077RKTM 0156Z 29013KT 9000 BR BKN030 M01/M05 A3026 RMK CIG030/1SN00/ QFF1027PT0;EQDQ01+000003PRSWM1Q02    003PRSWM1
0131471260999992000010802304+36930+126450FM-16+0302RKTM V0202801N007210090019N0090001N1+99999+99999999999ADDGA1071+009009999GF107991999999999999999999MW1001MW2711REMMET046RKTM 0230Z 28014KT 9000 -SN BKN030 RMK CIG030;EQDQ01+000003PRSWM1
0188471260999992000010803004+36930+126450FM-15+0302RKTM V0203001N006210090019N0080001N1-00201-00501999999ADDGA1071+009009999GF107991999999999999999999MA1102471999999MW1711REMMET078RKTM 0257Z 30012KT 8000 -SN BKN030 M02/M05 A3026 RMK CIG030/1SN00/ QFF1027PT0;EQDQ01+000003PRSWM1Q02    003PRSWM1
0188471260999992000010804004+36930+126450FM-15+0302RKTM V0203301N005110090019N0060001N1-00301-00601999999ADDGA1071+009009999GF107991999999999999999999MA1102441999999MW1711REMMET078RKTM 0358Z 33010KT 6000 -SN BKN030 M03/M06 A3025 RMK CIG030/1SN02/ QFF1026PT9;EQDQ01+000003PRSWM1Q02    003PRSWM1
0188471260999992000010805004+36930+126450FM-15+0302RKTM V0203601N004610090019N0060001N1-00301-00601999999ADDGA1071+009009999GF107991999999999999999999MA1102401999999MW1711REMMET078RKTM 0457Z 36009KT 6000 -SN BKN030 M03/M06 A3024 RMK CIG030/1SN01/ QFF1026PT3;EQDQ01+000003PRSWM1Q02    003PRSWM1
0217471260999992000010806004+36930+126450FM-15+0302RKTM V0200201N004110090019N0048001N1-00301-00601999999ADDGA1011+000159999GA2081+009009999GF108991999999999999999999MA1102441999999MW1711REMMET091RKTM 0556Z 02008KT 4800 -SN 1FG/// OVC030 M03/M06 A3025 RMK CIG030/1SN00/6SN03/ QFF1026PT7;EQDQ01+000003PRSWM1Q02    003PRSWM1
0211471260999992000010807004+36930+126450FM-15+0302RKTM V0200101N003110090019N0048001N1-00301-00601999999ADDGA1011+000159999GA2071+009009999GF107991999999999999999999MA1102441999999MW1711REMMET085RKTM 0657Z 01006KT 4800 -SN 1FG/// BKN030 M03/M06 A3025 RMK CIG030/1SN01/ QFF1026PT7;EQDQ01+000003PRSWM1Q02    003PRSWM1
0130471260999992000010807254+36930+126450FM-16+0302RKTM V0200101N002610090019N0060001N1+99999+99999999999ADDGA1071+009009999GF107991999999999999999999MW1001MW2101REMMET045RKTM 0725Z 01005KT 6000 BR BKN030 RMK CIG030;EQDQ01+000003PRSWM1
0187471260999992000010808004+36930+126450FM-15+0302RKTM V0203601N002110090019N0080001N1-00301-00601999999ADDGA1071+009009999GF107991999999999999999999MA1102471999999MW1101REMMET077RKTM 0757Z 36004KT 8000 BR BKN030 M03/M06 A3026 RMK CIG030/1SN00/ QFF1027PT0;EQDQ01+000003PRSWM1Q02    003PRSWM1
0181471260999992000010809004+36930+126450FM-15+0302RKTM V0203401N003110090019N0090001N1-00401-00601999999ADDGA1071+009009999GF107991999999999999999999MA1102511999999MW1101REMMET071RKTM 0856Z 34006KT 9000 BR BKN030 M04/M06 A3027 RMK CIG030/ QFF1027PT3;EQDQ01+000003PRSWM1Q02    003PRSWM1
0154471260999992000010810004+36930+126450FM-15+0302RKTM V0203401N002612200019N0112651N1-00401-00601999999ADDGA1021+009009999GF104991999999999999999999MA1102511999999MW1001REMMET060RKTM 0957Z 34005KT 9999 SCT030 M04/M06 A3027 RMK QFF1027PT5;EQDQ01+000000PRSWM2
0154471260999992000010811004+36930+126450FM-15+0302RKTM V0203501N002612200019N0112651N1-00301-00601999999ADDGA1021+009009999GF102991999999999999999999MA1102541999999MW1001REMMET060RKTM 1057Z 35005KT 9999 FEW030 M03/M06 A3028 RMK QFF1027PT9;EQDQ01+000000PRSWM2
0167471260999992000010812004+36930+126450FM-15+0302RKTM V0200101N003612200019N0112651N1-00301-00701999999ADDGA1021+009009999GF102991999999999999999999MA1102541999999MW1001REMMET073RKTM 1156Z 01007KT 9999 FEW030 M03/M07 A3028 RMK 6SN01/90401/ QFF1027PT9;EQDQ01+000000PRSWM2
0154471260999992000010813004+36930+126450FM-15+0302RKTM V0200301N004112200019N0112651N1-00301-00701999999ADDGA1021+009009999GF102991999999999999999999MA1102511999999MW1001REMMET060RKTM 1258Z 03008KT 9999 FEW030 M03/M07 A3027 RMK QFF1027PT5;EQDQ01+000000PRSWM2
0094471260999992000010814004+36930+126450FM-15+0302RKTM V0200601N005112200019N0112651N1+99999+99999999999ADDMW1001REMMET057RKTM 1356Z 06010KT 9999 030 M04/M07 A3028 RMK QFF1027PT9;EQDQ01+000000PRSWM2
0161471260999992000010815004+36930+126450FM-15+0302RKTM V0200801N005112200019N0112651N1-00501-00801999999ADDGA1021+009009999GF102991999999999999999999MA1102541999999MW1001REMMET067RKTM 1457Z 08010KT 9999 FEW030 M05/M08 A3028 RMK 20013/ QFF1027PT9;EQDQ01+000000PRSWM2
0094471260999992000010816004+36930+126450FM-15+0302RKTM V0200601N004112200019N0112651N1+99999+99999999999ADDMW1001REMMET057RKTM 1557Z 06008KT 9999 030 M05/M08 A3029 RMK QFF1028PT0;EQDQ01+000000PRSWM2
0154471260999992000010817004+36930+126450FM-15+0302RKTM V0200801N004612200019N0112651N1-00501-00801999999ADDGA1021+009009999GF102991999999999999999999MA1102511999999MW1001REMMET060RKTM 1658Z 08009KT 9999 FEW030 M05/M08 A3027 RMK QFF1027PT3;EQDQ01+000000PRSWM2
0154471260999992000010818004+36930+126450FM-15+0302RKTM V0200901N004112200019N0112651N1-00501-00801999999ADDGA1021+009009999GF102991999999999999999999MA1102511999999MW1001REMMET060RKTM 1757Z 09008KT 9999 FEW030 M05/M08 A3027 RMK QFF1027PT3;EQDQ01+000000PRSWM2
0154471260999992000010819004+36930+126450FM-15+0302RKTM V0200801N004112200019N0112651N1-00501-00801999999ADDGA1021+009009999GF104991999999999999999999MA1102471999999MW1001REMMET060RKTM 1856Z 08008KT 9999 SCT030 M05/M08 A3026 RMK QFF1027PT0;EQDQ01+000000PRSWM2
0154471260999992000010820004+36930+126450FM-15+0302RKTM V0200701N005112200019N0112651N1-00501-00801999999ADDGA1021+009009999GF102991999999999999999999MA1102511999999MW1001REMMET060RKTM 1958Z 07010KT 9999 FEW030 M05/M08 A3027 RMK QFF1027PT3;EQDQ01+000000PRSWM2
0154471260999992000010821004+36930+126450FM-15+0302RKTM V0200801N005712200019N0112651N1-00501-00801999999ADDGA1021+009009999GF102991999999999999999999MA1102471999999MW1001REMMET060RKTM 2057Z 08011KT 9999 FEW030 M05/M08 A3026 RMK QFF1027PT0;EQDQ01+000000PRSWM2
0154471260999992000010822004+36930+126450FM-15+0302RKTM V0201001N005712200019N0112651N1-00501-00801999999ADDGA1021+060009999GF104991999999999999999999MA1102441999999MW1001REMMET060RKTM 2156Z 10011KT 9999 SCT200 M05/M08 A3025 RMK QFF1026PT7;EQDQ01+000000PRSWM2
0220471260999992000010823004+36930+126450FM-15+0302RKTM V0201001N006210600019N0112651N1-00501-00801999999ADDGA1021+009009999GA2021+030009999GA3071+060009999GF107991999999999999999999MA1102441999999MW1001OC101131REMMET086RKTM 2257Z 10012G022KT 9999 FEW030 SCT100 BKN200 M05/M08 A3025 RMK CIG200/ QFF1026PT7;EQDQ01+000000PRSWM2
0227471260999992000010900004+36930+126450FM-15+0302RKTM V0201401N005110300019N0090001N1-00501-00801999999ADDGA1021+009009999GA2071+030009999GA3081+060009999GF108991999999999999999999MA1102441999999MW1101REMMET085RKTM 2358Z 14010KT 9000 BR SCT030 BKN100 OVC200 M05/M08 A3025 RMK CIG100/ QFF1026PT7;EQDQ01+000003PRSWM1Q02    003PRSWM1
0227471260999992000010901004+36930+126450FM-15+0302RKTM V0201301N005710300019N0090001N1-00401-00701999999ADDGA1021+009009999GA2071+030009999GA3081+060009999GF108991999999999999999999MA1102471999999MW1101REMMET085RKTM 0056Z 13011KT 9000 BR SCT030 BKN100 OVC200 M04/M07 A3026 RMK CIG100/ QFF1027PT0;EQDQ01+000003PRSWM1Q02    003PRSWM1
0227471260999992000010902004+36930+126450FM-15+0302RKTM V0201501N005110300019N0090001N1-00301-00701999999ADDGA1021+009009999GA2071+030009999GA3071+060009999GF107991999999999999999999MA1102471999999MW1101REMMET085RKTM 0157Z 15010KT 9000 BR FEW030 BKN100 BKN200 M03/M07 A3026 RMK CIG100/ QFF1027PT0;EQDQ01+000003PRSWM1Q02    003PRSWM1
0204471260999992000010903004+36930+126450FM-15+0302RKTM V0201401N004610300019N0090001N1-00301-00601999999ADDGA1071+030009999GA2081+060009999GF108991999999999999999999MA1102401999999MW1101REMMET078RKTM 0258Z 14009KT 9000 BR BKN100 OVC200 M03/M06 A3024 RMK CIG100/ QFF1026PT3;EQDQ01+000003PRSWM1Q02    003PRSWM1
0204471260999992000010904004+36930+126450FM-15+0302RKTM V0201201N005110300019N0090001N1-00201-00601999999ADDGA1071+030009999GA2081+060009999GF108991999999999999999999MA1102301999999MW1101REMMET078RKTM 0357Z 12010KT 9000 BR BKN100 OVC200 M02/M06 A3021 RMK CIG100/ QFF1025PT2;EQDQ01+000003PRSWM1Q02    003PRSWM1
0204471260999992000010905004+36930+126450FM-15+0302RKTM V0201101N006210300019N0090001N1-00201-00601999999ADDGA1071+030009999GA2081+060009999GF108991999999999999999999MA1102241999999MW1101REMMET078RKTM 0457Z 11012KT 9000 BR BKN100 OVC200 M02/M06 A3019 RMK CIG100/ QFF1024PT6;EQDQ01+000003PRSWM1Q02    003PRSWM1
0227471260999992000010908004+36930+126450FM-15+0302RKTM V0200601N004110300019N0080001N1-00301-00601999999ADDGA1021+009009999GA2071+030009999GA3081+060009999GF108991999999999999999999MA1102201999999MW1101REMMET085RKTM 0757Z 06008KT 8000 BR FEW030 BKN100 OVC200 M03/M06 A3018 RMK CIG100/ QFF1024PT3;EQDQ01+000003PRSWM1Q02    003PRSWM1
0227471260999992000010909004+36930+126450FM-15+0302RKTM V0200801N004610300019N0060001N1-00201-00501999999ADDGA1021+009009999GA2071+030009999GA3081+060009999GF108991999999999999999999MA1102201999999MW1101REMMET085RKTM 0858Z 08009KT 6000 BR SCT030 BKN100 OVC200 M02/M05 A3018 RMK CIG100/ QFF1024PT3;EQDQ01+000003PRSWM1Q02    003PRSWM1
0227471260999992000010910004+36930+126450FM-15+0302RKTM V0200801N004610300019N0060001N1-00201-00501999999ADDGA1021+009009999GA2071+030009999GA3081+060009999GF108991999999999999999999MA1102201999999MW1101REMMET085RKTM 0956Z 08009KT 6000 BR SCT030 BKN100 OVC200 M02/M05 A3018 RMK CIG100/ QFF1024PT3;EQDQ01+000003PRSWM1Q02    003PRSWM1
0227471260999992000010912004+36930+126450FM-15+0302RKTM V0200901N005110300019N0060001N1-00201-00601999999ADDGA1021+009009999GA2071+030009999GA3071+060009999GF107991999999999999999999MA1102241999999MW1101REMMET085RKTM 1158Z 09010KT 6000 BR FEW030 BKN100 BKN200 M02/M06 A3019 RMK CIG100/ QFF1024PT6;EQDQ01+000003PRSWM1Q02    003PRSWM1
0227471260999992000010913004+36930+126450FM-15+0302RKTM V0200901N004610300019N0080001N1-00201-00501999999ADDGA1021+009009999GA2071+030009999GA3081+060009999GF108991999999999999999999MA1102271999999MW1101REMMET085RKTM 1256Z 09009KT 8000 BR FEW030 BKN100 OVC200 M02/M05 A3020 RMK CIG100/ QFF1024PT8;EQDQ01+000003PRSWM1Q02    003PRSWM1
0227471260999992000010914004+36930+126450FM-15+0302RKTM V0200801N003610300019N0080001N1-00101-00401999999ADDGA1021+009009999GA2071+030009999GA3081+060009999GF108991999999999999999999MA1102271999999MW1101REMMET085RKTM 1357Z 08007KT 8000 BR FEW030 BKN100 OVC200 M01/M04 A3020 RMK CIG100/ QFF1024PT8;EQDQ01+000003PRSWM1Q02    003PRSWM1
0211471260999992000010915004+36930+126450FM-15+0302RKTM V0200401N002110300019N0080001N1-00101-00501999999ADDGA1021+009009999GA2071+030009999GA3081+060009999GF108991999999999999999999MW1101REMMET084RKTM 1458Z 04004KT 8000 BR SCT030 BKN100 OVC200 M01/M05 3020 RMK CIG100/ QFF1024PT8;EQDQ01+000003PRSWM1Q02    003PRSWM1
0204471260999992000010916004+36930+126450FM-15+0302RKTM V0200101N001510090019N0080001N1-00101-00401999999ADDGA1071+009009999GA2081+030009999GF108991999999999999999999MA1102271999999MW1101REMMET078RKTM 1557Z 01003KT 8000 BR BKN030 OVC100 M01/M04 A3020 RMK CIG030/ QFF1024PT8;EQDQ01+000003PRSWM1Q02    003PRSWM1
0204471260999992000010917004+36930+126450FM-15+0302RKTM V0203401N003610090019N0090001N1-00101-00401999999ADDGA1071+009009999GA2081+030009999GF108991999999999999999999MA1102271999999MW1101REMMET078RKTM 1656Z 34007KT 9000 BR BKN030 OVC100 M01/M04 A3020 RMK CIG030/ QFF1024PT8;EQDQ01+000003PRSWM1Q02    003PRSWM1
0204471260999992000010918004+36930+126450FM-15+0302RKTM V0203101N005110090019N0090001N1-00101-00401999999ADDGA1071+009009999GA2081+030009999GF108991999999999999999999MA1102271999999MW1101REMMET078RKTM 1757Z 31010KT 9000 BR BKN030 OVC100 M01/M04 A3020 RMK CIG030/ QFF1024PT6;EQDQ01+000003PRSWM1Q02    003PRSWM1
0154471260999992000010918104+36930+126450FM-16+0302RKTM V0202901N005110090019N0090001N1+99999+99999999999ADDGA1071+009009999GA2081+030009999GF108991999999999999999999MW1001MW2711REMMET053RKTM 1810Z 29010KT 9000 -SN BKN030 OVC100 RMK CIG030;EQDQ01+000003PRSWM1
0211471260999992000010919004+36930+126450FM-15+0302RKTM V0202601N004610090019N0090001N1-00101-00401999999ADDGA1071+009009999GA2081+030009999GF108991999999999999999999MA1102301999999MW1711REMMET085RKTM 1858Z 26009KT 9000 -SN BKN030 OVC100 M01/M04 A3021 RMK CIG030/1SN00/ QFF1025PT2;EQDQ01+000003PRSWM1Q02    003PRSWM1
0153471260999992000010919204+36930+126450FM-16+0302RKTM V0202301N004610090019N0090001N1+99999+99999999999ADDGA1071+009009999GA2081+030009999GF108991999999999999999999MW1001MW2101REMMET052RKTM 1920Z 23009KT 9000 BR BKN030 OVC100 RMK CIG030;EQDQ01+000003PRSWM1
0210471260999992000010920004+36930+126450FM-15+0302RKTM V0202501N006210090019N0090001N1-00101-00301999999ADDGA1071+009009999GA2081+030009999GF108991999999999999999999MA1102341999999MW1101REMMET084RKTM 1957Z 25012KT 9000 BR BKN030 OVC100 M01/M03 A3022 RMK CIG030/1SN00/ QFF1025PT5;EQDQ01+000003PRSWM1Q02    003PRSWM1
0185471260999992000010921004+36930+126450FM-15+0302RKTM V0202801N005110090019N0112651N1+00001-00301999999ADDGA1071+009009999GA2081+030009999GF108991999999999999999999MA1102371999999MW1001REMMET075RKTM 2056Z 28010KT 9999 BKN030 OVC100 M00/M03 A3023 RMK CIG030/ QFF1025PT6;EQDQ01+000000PRSWM2
0185471260999992000010922004+36930+126450FM-15+0302RKTM V0203101N006210300019N0112651N1+00001-00301999999ADDGA1021+009009999GA2071+030009999GF107991999999999999999999MA1102401999999MW1001REMMET075RKTM 2157Z 31012KT 9999 SCT030 BKN100 M00/M03 A3024 RMK CIG100/ QFF1026PT0;EQDQ01+000000PRSWM2
0181471260999992000010923004+36930+126450FM-15+0302RKTM V0203301N005110090019N0090001N1-00101-00301999999ADDGA1071+009009999GF107991999999999999999999MA1102471999999MW1101REMMET071RKTM 2256Z 33010KT 9000 BR BKN030 M01/M03 A3026 RMK CIG030/ QFF1026PT7;EQDQ01+000003PRSWM1Q02    003PRSWM1
0187471260999992000011000004+36930+126450FM-15+0302RKTM V0203401N004610090019N0090001N1-00101-00401999999ADDGA1071+009009999GF107991999999999999999999MA1102611999999MW1101REMMET077RKTM 2356Z 34009KT 9000 BR BKN030 M01/M04 A3030 RMK CIG030/6SN00/ QFF1028PT2;EQDQ01+000003PRSWM1Q02    003PRSWM1
0173471260999992000011002004+36930+126450FM-15+0302RKTM V0203501N004612200019N0090001N1-00201-00501999999ADDGA1021+009009999GF102991999999999999999999MA1102781999999MW1101REMMET063RKTM 0157Z 35009KT 9000 BR FEW030 M02/M05 A3035 RMK QFF1029PT7;EQDQ01+000003PRSWM1Q02    003PRSWM1
0154471260999992000011003004+36930+126450FM-15+0302RKTM V0200101N003612200019N0112651N1-00101-00501999999ADDGA1021+009009999GF102991999999999999999999MA1102811999999MW1001REMMET060RKTM 0256Z 01007KT 9999 FEW030 M01/M05 A3036 RMK QFF1030PT0;EQDQ01+000000PRSWM2
0154471260999992000011004004+36930+126450FM-15+0302RKTM V0203601N003112200019N0112651N1-00101-00501999999ADDGA1021+009009999GF102991999999999999999999MA1102741999999MW1001REMMET060RKTM 0358Z 36006KT 9999 FEW030 M01/M05 A3034 RMK QFF1029PT4;EQDQ01+000000PRSWM2
0105471260999992000011005004+36930+126450FM-15+0302RKTM V0203601N002612200019N0112651N1+99999+99999999999ADDMA1102711999999MW1001REMMET053RKTM 0457Z 36005KT 9999 M01/M05 A3033 RMK QFF1029PT0;EQDQ01+000000PRSWM2
0105471260999992000011006004+36930+126450FM-15+0302RKTM V0203501N004112200019N0112651N1+99999+99999999999ADDMA1102711999999MW1001REMMET053RKTM 0557Z 35008KT 9999 M01/M05 A3033 RMK QFF1029PT0;EQDQ01+000000PRSWM2
0105471260999992000011007004+36930+126450FM-15+0302RKTM V0203401N003612200019N0112651N1+99999+99999999999ADDMA1102741999999MW1001REMMET053RKTM 0658Z 34007KT 9999 M02/M06 A3034 RMK QFF1029PT4;EQDQ01+000000PRSWM2
0105471260999992000011008004+36930+126450FM-15+0302RKTM V0203601N002612200019N0112651N1+99999+99999999999ADDMA1102811999999MW1001REMMET053RKTM 0757Z 36005KT 9999 M02/M06 A3036 RMK QFF1030PT0;EQDQ01+000000PRSWM2
0154471260999992000011009004+36930+126450FM-15+0302RKTM V0203501N002112200019N0112651N1-00301-00701999999ADDGA1021+060009999GF102991999999999999999999MA1102811999999MW1001REMMET060RKTM 0856Z 35004KT 9999 FEW200 M03/M07 A3036 RMK QFF1030PT1;EQDQ01+000000PRSWM2
0154471260999992000011010004+36930+126450FM-15+0302RKTM V0203401N002112200019N0112651N1-00401-00801999999ADDGA1021+060009999GF102991999999999999999999MA1102881999999MW1001REMMET060RKTM 0957Z 34004KT 9999 FEW200 M04/M08 A3038 RMK QFF1030PT9;EQDQ01+000000PRSWM2
0105471260999992000011011004+36930+126450FM-15+0302RKTM V0203501N001512200019N0112651N1+99999+99999999999ADDMA1102881999999MW1001REMMET053RKTM 1058Z 35003KT 9999 M04/M08 A3038 RMK QFF1030PT9;EQDQ01+000000PRSWM2
0105471260999992000011012004+36930+126450FM-15+0302RKTM V0200101N002112200019N0112651N1+99999+99999999999ADDMA1102911999999MW1001REMMET053RKTM 1157Z 01004KT 9999 M04/M08 A3039 RMK QFF1031PT3;EQDQ01+000000PRSWM2
0105471260999992000011013004+36930+126450FM-15+0302RKTM V0200301N001512200019N0112651N1+99999+99999999999ADDMA1102911999999MW1001REMMET053RKTM 1256Z 03003KT 9999 M04/M08 A3039 RMK QFF1031PT3;EQDQ01+000000PRSWM2
0105471260999992000011014004+36930+126450FM-15+0302RKTM V0200201N002112200019N0112651N1+99999+99999999999ADDMA1102951999999MW1001REMMET053RKTM 1357Z 02004KT 9999 M04/M08 A3040 RMK QFF1031PT6;EQDQ01+000000PRSWM2
0105471260999992000011015004+36930+126450FM-15+0302RKTM V0203601N002612200019N0112651N1+99999+99999999999ADDMA1102881999999MW1001REMMET053RKTM 1456Z 36005KT 9999 M05/M09 A3038 RMK QFF1030PT9;EQDQ01+000000PRSWM2
0105471260999992000011016004+36930+126450FM-15+0302RKTM V0200101N003612200019N0112651N1+99999+99999999999ADDMA1102881999999MW1001REMMET053RKTM 1557Z 01007KT 9999 M05/M09 A3038 RMK QFF1030PT9;EQDQ01+000000PRSWM2
0105471260999992000011017004+36930+126450FM-15+0302RKTM V0200201N005112200019N0112651N1+99999+99999999999ADDMA1102881999999MW1001REMMET053RKTM 1658Z 02010KT 9999 M05/M09 A3038 RMK QFF1030PT9;EQDQ01+000000PRSWM2
0105471260999992000011018004+36930+126450FM-15+0302RKTM V0203601N005112200019N0112651N1+99999+99999999999ADDMA1102911999999MW1001REMMET053RKTM 1756Z 36010KT 9999 M05/M10 A3039 RMK QFF1031PT3;EQDQ01+000000PRSWM2
0105471260999992000011019004+36930+126450FM-15+0302RKTM V0200101N005112200019N0112651N1+99999+99999999999ADDMA1102911999999MW1001REMMET053RKTM 1857Z 01010KT 9999 M05/M10 A3039 RMK QFF1031PT3;EQDQ01+000000PRSWM2
0105471260999992000011020004+36930+126450FM-15+0302RKTM V0200301N005712200019N0112651N1+99999+99999999999ADDMA1102841999999MW1001REMMET053RKTM 1957Z 03011KT 9999 M05/M10 A3037 RMK QFF1030PT7;EQDQ01+000000PRSWM2
0105471260999992000011021004+36930+126450FM-15+0302RKTM V0200401N004612200019N0112651N1+99999+99999999999ADDMA1102841999999MW1001REMMET053RKTM 2058Z 04009KT 9999 M06/M10 A3037 RMK QFF1030PT7;EQDQ01+000000PRSWM2
0105471260999992000011022004+36930+126450FM-15+0302RKTM V0200501N004612200019N0112651N1+99999+99999999999ADDMA1102841999999MW1001REMMET053RKTM 2157Z 05009KT 9999 M06/M11 A3037 RMK QFF1030PT7;EQDQ01+000000PRSWM2
0096471260999992000011022274+36930+126450FM-16+0302RKTM V0200501N004612200019N0090001N1+99999+99999999999ADDMA1102841999999MW1001MW2101REMMET038RKTM 2227Z 05009KT 9000 BR A3037 RMK ;EQDQ01+000003PRSWM1
0173471260999992000011023004+36930+126450FM-15+0302RKTM V0200401N005112200019N0080001N1-00601-01001999999ADDGA1021+060009999GF102991999999999999999999MA1102881999999MW1101REMMET063RKTM 2256Z 04010KT 8000 BR FEW200 M06/M10 A3038 RMK QFF1031PT1;EQDQ01+000003PRSWM1Q02    003PRSWM1
0173471260999992000011100004+36930+126450FM-15+0302RKTM V0200601N005712200019N0080001N1-00601-00901999999ADDGA1021+060009999GF102991999999999999999999MA1102811999999MW1101REMMET063RKTM 2356Z 06011KT 8000 BR FEW200 M06/M09 A3036 RMK QFF1030PT4;EQDQ01+000003PRSWM1Q02    003PRSWM1
0173471260999992000011101004+36930+126450FM-15+0302RKTM V0200701N006212200019N0080001N1-00501-00901999999ADDGA1021+060009999GF104991999999999999999999MA1102741999999MW1101REMMET063RKTM 0058Z 07012KT 8000 BR SCT200 M05/M09 A3034 RMK QFF1029PT7;EQDQ01+000003PRSWM1Q02    003PRSWM1
0173471260999992000011102004+36930+126450FM-15+0302RKTM V0200801N007212200019N0080001N1-00401-00801999999ADDGA1021+060009999GF104991999999999999999999MA1102741999999MW1101REMMET063RKTM 0157Z 08014KT 8000 BR SCT200 M04/M08 A3034 RMK QFF1029PT7;EQDQ01+000003PRSWM1Q02    003PRSWM1
0173471260999992000011103004+36930+126450FM-15+0302RKTM V0200901N006212200019N0080001N1-00201-00601999999ADDGA1021+060009999GF104991999999999999999999MA1102781999999MW1101REMMET063RKTM 0258Z 09012KT 8000 BR SCT200 M02/M06 A3035 RMK QFF1029PT9;EQDQ01+000003PRSWM1Q02    003PRSWM1
0173471260999992000011104004+36930+126450FM-15+0302RKTM V0200901N006712200019N0080001N1-00101-00601999999ADDGA1021+060009999GF104991999999999999999999MA1102641999999MW1101REMMET063RKTM 0356Z 09013KT 8000 BR SCT200 M01/M06 A3031 RMK QFF1028PT6;EQDQ01+000003PRSWM1Q02    003PRSWM1
0180471260999992000011105004+36930+126450FM-15+0302RKTM V0200801N005710600019N0060001N1+00001-00401999999ADDGA1071+060009999GF107991999999999999999999MA1102571999999MW1101REMMET070RKTM 0457Z 08011KT 6000 BR BKN200 00/M04 A3029 RMK CIG200/ QFF1027PT9;EQDQ01+000003PRSWM1Q02    003PRSWM1
0203471260999992000011106004+36930+126450FM-15+0302RKTM V0200801N006210600019N0060001N1+00001-00401999999ADDGA1021+030009999GA2071+060009999GF107991999999999999999999MA1102571999999MW1101REMMET077RKTM 0558Z 08012KT 6000 BR FEW100 BKN200 00/M04 A3029 RMK CIG200/ QFF1027PT9;EQDQ01+000003PRSWM1Q02    003PRSWM1
0203471260999992000011107004+36930+126450FM-15+0302RKTM V0200901N006710600019N0060001N1+00001-00401999999ADDGA1021+030009999GA2071+060009999GF107991999999999999999999MA1102571999999MW1101REMMET077RKTM 0657Z 09013KT 6000 BR SCT100 BKN200 00/M04 A3029 RMK CIG200/ QFF1027PT9;EQDQ01+000003PRSWM1Q02    003PRSWM1
0203471260999992000011108004+36930+126450FM-15+0302RKTM V0200901N006710600019N0060001N1+00101-00401999999ADDGA1021+030009999GA2071+060009999GF107991999999999999999999MA1102571999999MW1101REMMET077RKTM 0756Z 09013KT 6000 BR SCT100 BKN200 01/M04 A3029 RMK CIG200/ QFF1027PT9;EQDQ01+000003PRSWM1Q02    003PRSWM1
0203471260999992000011110004+36930+126450FM-15+0302RKTM V0201001N008210300019N0080001N1+00101-00401999999ADDGA1071+030009999GA2081+060009999GF108991999999999999999999MA1102541999999MW1101REMMET077RKTM 0956Z 10016KT 8000 BR BKN100 OVC200 01/M04 A3028 RMK CIG100/ QFF1027PT5;EQDQ01+000003PRSWM1Q02    003PRSWM1
0203471260999992000011111004+36930+126450FM-15+0302RKTM V0200701N007210300019N0090001N1+00101-00401999999ADDGA1071+030009999GA2081+060009999GF108991999999999999999999MA1102541999999MW1101REMMET077RKTM 1057Z 07014KT 9000 BR BKN100 OVC200 01/M04 A3028 RMK CIG100/ QFF1027PT5;EQDQ01+000003PRSWM1Q02    003PRSWM1
0203471260999992000011112004+36930+126450FM-15+0302RKTM V0200801N006710300019N0090001N1+00101-00401999999ADDGA1071+030009999GA2081+060009999GF108991999999999999999999MA1102541999999MW1101REMMET077RKTM 1157Z 08013KT 9000 BR BKN100 OVC200 01/M04 A3028 RMK CIG100/ QFF1027PT5;EQDQ01+000003PRSWM1Q02    003PRSWM1
0184471260999992000011113004+36930+126450FM-15+0302RKTM V0200501N005710300019N0112651N1+00101-00401999999ADDGA1071+030009999GA2081+060009999GF108991999999999999999999MA1102541999999MW1001REMMET074RKTM 1256Z 05011KT 9999 BKN100 OVC200 01/M04 A3028 RMK CIG100/ QFF1027PT5;EQDQ01+000000PRSWM2
0184471260999992000011114004+36930+126450FM-15+0302RKTM V0200301N005110300019N0112651N1+00101-00401999999ADDGA1071+030009999GA2081+060009999GF108991999999999999999999MA1102571999999MW1001REMMET074RKTM 1358Z 03010KT 9999 BKN100 OVC200 01/M04 A3029 RMK CIG100/ QFF1027PT9;EQDQ01+000000PRSWM2
0184471260999992000011115004+36930+126450FM-15+0302RKTM V0200701N005110300019N0112651N1+00101-00401999999ADDGA1071+030009999GA2081+060009999GF108991999999999999999999MA1102541999999MW1001REMMET074RKTM 1457Z 07010KT 9999 BKN100 OVC200 01/M04 A3028 RMK CIG100/ QFF1027PT3;EQDQ01+000000PRSWM2
0207471260999992000011116004+36930+126450FM-15+0302RKTM V0201001N005110300019N0112651N1+00101-00301999999ADDGA1021+009009999GA2071+030009999GA3081+060009999GF108991999999999999999999MA1102511999999MW1001REMMET081RKTM 1557Z 10010KT 9999 FEW030 BKN100 OVC200 01/M03 A3027 RMK CIG100/ QFF1027PT0;EQDQ01+000000PRSWM2
0207471260999992000011117004+36930+126450FM-15+0302RKTM V0201201N005710300019N0112651N1+00101-00301999999ADDGA1021+009009999GA2071+030009999GA3081+060009999GF108991999999999999999999MA1102401999999MW1001REMMET081RKTM 1656Z 12011KT 9999 FEW030 BKN100 OVC200 01/M03 A3024 RMK CIG100/ QFF1025PT8;EQDQ01+000000PRSWM2
0207471260999992000011118004+36930+126450FM-15+0302RKTM V0201101N005110300019N0112651N1+00101-00301999999ADDGA1021+009009999GA2071+030009999GA3081+060009999GF108991999999999999999999MA1102371999999MW1001REMMET081RKTM 1757Z 11010KT 9999 FEW030 BKN100 OVC200 01/M03 A3023 RMK CIG100/ QFF1025PT5;EQDQ01+000000PRSWM2
0184471260999992000011119004+36930+126450FM-15+0302RKTM V0201001N005710300019N0112651N1+00101-00301999999ADDGA1071+030009999GA2081+060009999GF108991999999999999999999MA1102271999999MW1001REMMET074RKTM 1858Z 10011KT 9999 BKN100 OVC200 01/M03 A3020 RMK CIG100/ QFF1024PT5;EQDQ01+000000PRSWM2
0184471260999992000011120004+36930+126450FM-15+0302RKTM V0200901N006210300019N0112651N1+00101-00301999999ADDGA1071+030009999GA2081+060009999GF108991999999999999999999MA1102201999999MW1001REMMET074RKTM 1957Z 09012KT 9999 BKN100 OVC200 01/M03 A3018 RMK CIG100/ QFF1023PT8;EQDQ01+000000PRSWM2
0184471260999992000011121004+36930+126450FM-15+0302RKTM V0200901N005110300019N0112651N1+00101-00301999999ADDGA1071+030009999GA2081+060009999GF108991999999999999999999MA1102171999999MW1001REMMET074RKTM 2056Z 09010KT 9999 BKN100 OVC200 01/M03 A3017 RMK CIG100/ QFF1023PT5;EQDQ01+000000PRSWM2
0184471260999992000011122004+36930+126450FM-15+0302RKTM V0200801N005710300019N0112651N1+00101-00201999999ADDGA1071+030009999GA2081+060009999GF108991999999999999999999MA1102201999999MW1001REMMET074RKTM 2157Z 08011KT 9999 BKN100 OVC200 01/M02 A3018 RMK CIG100/ QFF1023PT8;EQDQ01+000000PRSWM2
0196471260999992000011123004+36930+126450FM-15+0302RKTM V0200801N006210300019N0112651N1+00101-00201999999ADDGA1071+030009999GA2081+060009999GF108991999999999999999999MA1102171999999MW1001OC101131REMMET078RKTM 2258Z 08012G022KT 9999 BKN100 OVC200 01/M02 A3017 RMK CIG100/ QFF1023PT5;EQDQ01+000000PRSWM2
0184471260999992000011200004+36930+126450FM-15+0302RKTM V0200701N006210300019N0112651N1+00201+00001999999ADDGA1071+030009999GA2081+060009999GF108991999999999999999999MA1102171999999MW1001REMMET074RKTM 2356Z 07012KT 9999 BKN100 OVC200 02/M00 A3017 RMK CIG100/ QFF1023PT5;EQDQ01+000000PRSWM2
0166471260999992000011200054+36930+126450FM-16+0302RKTM V0200601N006710300019N0090001N1+99999+99999999999ADDGA1071+030009999GA2081+060009999GF108991999999999999999999MW1001MW2611OC101181REMMET057RKTM 0005Z 06013G023KT 9000 -RA BKN100 OVC200 RMK CIG100;EQDQ01+000003PRSWM1
0221471260999992000011201004+36930+126450FM-15+0302RKTM V0200601N006210300019N0090001N1+00201+00001999999ADDGA1071+030009999GA2081+060009999GF108991999999999999999999MA1102201999999MW1611OC101131REMMET087RKTM 0057Z 06012G022KT 9000 -RA BKN100 OVC200 02/00 A3018 RMK CIG100/1RA00/ QFF1023PT8;EQDQ01+000003PRSWM1Q02    003PRSWM1
0209471260999992000011202004+36930+126450FM-15+0302RKTM V0200701N006210300019N0090001N1+00101+00001999999ADDGA1071+030009999GA2081+060009999GF108991999999999999999999MA1102201999999MW1611REMMET083RKTM 0158Z 07012KT 9000 -RA BKN100 OVC200 01/00 A3018 RMK CIG100/1RA00/ QFF1023PT8;EQDQ01+000003PRSWM1Q02    003PRSWM1
0209471260999992000011203004+36930+126450FM-15+0302RKTM V0200801N007210300019N0090001N1+00201+00001999999ADDGA1021+009009999GA2081+030009999GF108991999999999999999999MA1102131999999MW1611REMMET083RKTM 0257Z 08014KT 9000 -RA SCT030 OVC100 02/00 A3016 RMK CIG100/1RA01/ QFF1023PT1;EQDQ01+000003PRSWM1Q02    003PRSWM1
0175471260999992000011203104+36930+126450FM-16+0302RKTM V0200701N006710090019N0090001N1+99999+99999999999ADDGA1071+009009999GA2081+030009999GF108991999999999999999999MA1102131999999MW1001MW2611REMMET059RKTM 0310Z 07013KT 9000 -RA BKN030 OVC100 A3016 RMK CIG030;EQDQ01+000003PRSWM1
0209471260999992000011204004+36930+126450FM-15+0302RKTM V0201001N007710090019N0090001N1+00201+00001999999ADDGA1071+009009999GA2081+030009999GF108991999999999999999999MA1102001999999MW1611REMMET083RKTM 0356Z 10015KT 9000 -RA BKN030 OVC100 02/00 A3012 RMK CIG030/1RA00/ QFF1022PT1;EQDQ01+000003PRSWM1Q02    003PRSWM1
0209471260999992000011205004+36930+126450FM-15+0302RKTM V0201101N007210090019N0090001N1+00201+00001999999ADDGA1071+009009999GA2081+030009999GF108991999999999999999999MA1101901999999MW1611REMMET083RKTM 0457Z 11014KT 9000 -RA BKN030 OVC100 02/00 A3009 RMK CIG030/1RA01/ QFF1021PT1;EQDQ01+000003PRSWM1Q02    003PRSWM1
0215471260999992000011206004+36930+126450FM-15+0302RKTM V0201001N007210090019N0060001N1+00201+00001999999ADDGA1021+003609999GA2081+009009999GF108991999999999999999999MA1101861999999MW1611REMMET089RKTM 0557Z 10014KT 6000 -RA SCT012 OVC030 02/00 A3008 RMK CIG030/1RA01/6RA03/ QFF1020PT4;EQDQ01+000003PRSWM1Q02    003PRSWM1
0202471260999992000011206104+36930+126450FM-16+0302RKTM V0200801N006710036019N0032001N1+99999+99999999999ADDGA1021+000159999GA2021+001809999GA3071+003609999GA4081+009009999GF108991999999999999999999MW1001MW2611REMMET069RKTM 0610Z 08013KT 3200 -RA 2FG/// SCT006 BKN012 OVC030 RMK CIGE 012;EQDQ01+000003PRSWM1
0178471260999992000011206304+36930+126450FM-16+0302RKTM V0200601N006210018019N0016001N1+99999+99999999999ADDGA1031+000159999GA2071+001809999GA3081+003609999GF108991999999999999999999MW1001MW2611REMMET061RKTM 0630Z 06012KT 1600 -RA 3FG/// BKN006 OVC012 RMK CIGE006;EQDQ01+000003PRSWM1
0233471260999992000011207004+36930+126450FM-15+0302RKTM V0200701N006710018019N0016001N1+00201+00201999999ADDGA1031+000159999GA2071+001809999GA3081+003609999GF108991999999999999999999MA1101831999999MW1611REMMET091RKTM 0658Z 07013KT 1600 -RA 3FG/// BKN006 OVC012 02/02 A3007 RMK CIGE006/1RA02/ QFF1020PT1;EQDQ01+000003PRSWM1Q02    003PRSWM1
0090471260999992000011207204+36930+126450FM-16+0302RKTM V0200501N006710001519N0000001N1+99999+99999999999ADDMW1001MW2611REMMET047RKTM 0720Z 05013KT 0000 -RA 9FG000 RMK CIGW000;EQDQ01+000003PRSWM1
0120471260999992000011208004+36930+126450FM-15+0302RKTM V0200501N006210001519N0000001N1+99999+99999999999ADDMW1001MW2611REMMET077RKTM 0757Z 05012KT 0000 -RA 9FG000 02/02 A3007 RMK CIGW000/1RA02/ QFF1020PT1;EQDQ01+000003PRSWM1
0120471260999992000011209004+36930+126450FM-15+0302RKTM V0200801N006710001519N0000001N1+99999+99999999999ADDMW1001MW2611REMMET077RKTM 0858Z 08013KT 0000 -RA 9FG000 02/02 A3006 RMK CIGW000/1RA01/ QFF1019PT7;EQDQ01+000003PRSWM1
0120471260999992000011210004+36930+126450FM-15+0302RKTM V0200901N005710001519N0000001N1+99999+99999999999ADDMW1001MW2611REMMET077RKTM 0956Z 09011KT 0000 -RA 9FG000 02/02 A3006 RMK CIGW000/1RA00/ QFF1019PT7;EQDQ01+000003PRSWM1
0120471260999992000011211004+36930+126450FM-15+0302RKTM V0200801N005710001519N0000001N1+99999+99999999999ADDMW1001MW2611REMMET077RKTM 1057Z 08011KT 0000 -RA 9FG000 02/02 A3007 RMK CIGW000/1RA01/ QFF1019PT9;EQDQ01+000003PRSWM1
0126471260999992000011212004+36930+126450FM-15+0302RKTM V0200801N005110001519N0000001N1+99999+99999999999ADDMW1001MW2611REMMET083RKTM 1158Z 08010KT 0000 -RA 9FG000 02/02 A3007 RMK CIGW000/1RA01/6RA07/ QFF1019PT9;EQDQ01+000003PRSWM1
0120471260999992000011213004+36930+126450FM-15+0302RKTM V0201001N004110001519N0000001N1+99999+99999999999ADDMW1001MW2611REMMET077RKTM 1257Z 10008KT 0000 -RA 9FG000 02/02 A3007 RMK CIGW000/1RA00/ QFF1019PT9;EQDQ01+000003PRSWM1
0178471260999992000011213124+36930+126450FM-16+0302RKTM V0201201N003610018019N0016001N1+99999+99999999999ADDGA1031+000159999GA2071+001809999GA3081+003609999GF108991999999999999999999MW1001MW2611REMMET061RKTM 1312Z 12007KT 1600 -RA 3FG/// BKN006 OVC012 RMK CIGE006;EQDQ01+000003PRSWM1
0233471260999992000011214004+36930+126450FM-15+0302RKTM V0200801N004110018019N0016001N1+00301+00301999999ADDGA1031+000159999GA2071+001809999GA3081+003609999GF108991999999999999999999MA1101761999999MW1611REMMET091RKTM 1358Z 08008KT 1600 -RA 3FG/// BKN006 OVC012 03/03 A3005 RMK CIGE006/1RA01/ QFF1019PT2;EQDQ01+000003PRSWM1Q02    003PRSWM1
0239471260999992000011215004+36930+126450FM-15+0302RKTM V0200501N002610018019N0016001N1+00301+00301999999ADDGA1031+000159999GA2071+001809999GA3081+003609999GF108991999999999999999999MA1101691999999MW1611REMMET097RKTM 1457Z 05005KT 1600 -RA 3FG/// BKN006 OVC012 03/03 A3003 RMK CIGE006/1RA00/20011/ QFF1018PT5;EQDQ01+000003PRSWM1Q02    003PRSWM1
0233471260999992000011216004+36930+126450FM-15+0302RKTM V0200301N002110018019N0016001N1+00201+00201999999ADDGA1031+000159999GA2071+001809999GA3081+003609999GF108991999999999999999999MA1101691999999MW1611REMMET091RKTM 1558Z 03004KT 1600 -RA 3FG/// BKN006 OVC012 02/02 A3003 RMK CIGE006/1RA00/ QFF1018PT5;EQDQ01+000003PRSWM1Q02    003PRSWM1
0120471260999992000011217004+36930+126450FM-15+0302RKTM V0200201N003110001519N0000001N1+99999+99999999999ADDMW1001MW2611REMMET077RKTM 1657Z 02006KT 0000 -RA 9FG000 02/02 A3003 RMK CIGW000/1RA01/ QFF1018PT5;EQDQ01+000003PRSWM1
0126471260999992000011218004+36930+126450FM-15+0302RKTM V0203501N003610001519N0000001N1+99999+99999999999ADDMW1001MW2611REMMET083RKTM 1757Z 35007KT 0000 -RA 9FG000 02/02 A3003 RMK CIGW000/1RA00/6RA02/ QFF1018PT5;EQDQ01+000003PRSWM1
0089471260999992000011218504+36930+126450FM-16+0302RKTM V0203601N002610001519N0000001N1+99999+99999999999ADDMW1001MW2441REMMET046RKTM 1850Z 36005KT 0000 FG 9FG000 RMK CIGW000;EQDQ01+000003PRSWM1
0119471260999992000011219004+36930+126450FM-15+0302RKTM V0203401N003610001519N0000001N1+99999+99999999999ADDMW1001MW2441REMMET076RKTM 1858Z 34007KT 0000 FG 9FG000 02/02 A3003 RMK CIGW000/1RA00/ QFF1018PT5;EQDQ01+000003PRSWM1
0113471260999992000011220004+36930+126450FM-15+0302RKTM V0203501N003110001519N0000001N1+99999+99999999999ADDMW1001MW2441REMMET070RKTM 1957Z 35006KT 0000 FG 9FG000 02/02 A3002 RMK CIGW000/ QFF1018PT2;EQDQ01+000003PRSWM1
0177471260999992000011220454+36930+126450FM-16+0302RKTM V0203301N005110018019N0016001N1+99999+99999999999ADDGA1031+000159999GA2071+001809999GA3081+003609999GF108991999999999999999999MW1001MW2101REMMET060RKTM 2045Z 33010KT 1600 BR 3FG/// BKN006 OVC012 RMK CIGE006;EQDQ01+000003PRSWM1
0226471260999992000011221004+36930+126450FM-15+0302RKTM V0203501N004610018019N0016001N1+00101+00101999999ADDGA1031+000159999GA2071+001809999GA3081+003609999GF108991999999999999999999MA1101661999999MW1101REMMET084RKTM 2056Z 35009KT 1600 BR 3FG/// BKN006 OVC012 01/01 A3002 RMK CIGE006/ QFF1018PT4;EQDQ01+000003PRSWM1Q02    003PRSWM1
0200471260999992000011221204+36930+126450FM-16+0302RKTM V0200101N005710036019N0032001N1+99999+99999999999ADDGA1021+000159999GA2021+001809999GA3071+003609999GA4081+009009999GF108991999999999999999999MW1001MW2101REMMET067RKTM 2120Z 01011KT 3200 BR 2FG/// SCT006 BKN012 OVC030 RMK CIGE012;EQDQ01+000003PRSWM1
0200471260999992000011221354+36930+126450FM-16+0302RKTM V0203601N004110036019N0048001N1+99999+99999999999ADDGA1011+000159999GA2021+001809999GA3071+003609999GA4081+009009999GF108991999999999999999999MW1001MW2101REMMET067RKTM 2135Z 36008KT 4800 BR 1FG/// FEW006 BKN012 OVC030 RMK CIGE012;EQDQ01+000003PRSWM1
0203471260999992000011222004+36930+126450FM-15+0302RKTM V0203401N004110036019N0080001N1+00101+00001999999ADDGA1071+003609999GA2081+009009999GF108991999999999999999999MA1101661999999MW1101REMMET077RKTM 2157Z 34008KT 8000 BR BKN012 OVC030 01/00 A3002 RMK CIGE012/ QFF1018PT4;EQDQ01+000003PRSWM1Q02    003PRSWM1
0202471260999992000011222354+36930+126450FM-16+0302RKTM V0203301N004110036019N0048001N1+99999+99999999999ADDGA1011+000159999GA2021+001809999GA3071+003609999GA4081+009009999GF108991999999999999999999MW1001MW2611REMMET069RKTM 2235Z 33008KT 4800 -RA 1FG/// SCT006 BKN012 OVC030 RMK CIGE 012;EQDQ01+000003PRSWM1
0201471260999992000011222454+36930+126450FM-16+0302RKTM V0203501N005110036019N0032001N1+99999+99999999999ADDGA1021+000159999GA2021+001809999GA3071+003609999GA4081+009009999GF108991999999999999999999MW1001MW2611REMMET068RKTM 2245Z 35010KT 3200 -RA 2FG/// SCT006 BKN012 OVC030 RMK CIGE012;EQDQ01+000003PRSWM1
0233471260999992000011223004+36930+126450FM-15+0302RKTM V0203201N005110036019N0032001N1+00101+00101999999ADDGA1021+000159999GA2021+001809999GA3081+003609999GF108991999999999999999999MA1101691999999MW1611REMMET091RKTM 2257Z 32010KT 3200 -RA 2FG/// SCT006 OVC012 01/01 A3003 RMK CIGE012/1RA00/ QFF1018PT5;EQDQ01+000003PRSWM1Q02    003PRSWM1
0178471260999992000011223144+36930+126450FM-16+0302RKTM V0203401N006210018019N0016001N1+99999+99999999999ADDGA1031+000159999GA2071+001809999GA3081+003609999GF108991999999999999999999MW1001MW2611REMMET061RKTM 2314Z 34012KT 1600 -RA 3FG/// BKN006 OVC012 RMK CIGE006;EQDQ01+000003PRSWM1
0202471260999992000011223454+36930+126450FM-16+0302RKTM V0203301N005110036019N0032001N1+99999+99999999999ADDGA1021+000159999GA2021+001809999GA3071+003609999GA4081+009009999GF108991999999999999999999MW1001MW2611REMMET069RKTM 2345Z 33010KT 3200 -RA 2FG/// SCT006 BKN012 OVC030 RMK CIGE 012;EQDQ01+000003PRSWM1
0262471260999992000011300004+36930+126450FM-15+0302RKTM V0203301N005110036019N0032001N1+00001+00001999999ADDGA1021+000159999GA2021+001809999GA3071+003609999GA4081+009009999GF108991999999999999999999MA1101691999999MW1611REMMET104RKTM 2358Z 33010KT 3200 -RA 2FG/// SCT006 BKN012 OVC030 00/00 A3003 RMK CIGE012/1RA00/6RA00/ QFF1018PT7;EQDQ01+000003PRSWM1Q02    003PRSWM1
0256471260999992000011301004+36930+126450FM-15+0302RKTM V0203101N005710036019N0032001N1+00001+00001999999ADDGA1021+000159999GA2021+001809999GA3071+003609999GA4081+009009999GF108991999999999999999999MA1101761999999MW1611REMMET098RKTM 0057Z 31011KT 3200 -RA 2FG/// SCT006 BKN012 OVC030 00/00 A3005 RMK CIGE012/1RA01/ QFF1019PT4;EQDQ01+000003PRSWM1Q02    003PRSWM1
0257471260999992000011302004+36930+126450FM-15+0302RKTM V0203301N005110036019N0032001N1+00001+00001999999ADDGA1021+000159999GA2021+001809999GA3071+003609999GA4081+009009999GF108991999999999999999999MA1101801999999MW1611REMMET099RKTM 0156Z 33010KT 3200 -RA 2FG/// SCT006 BKN012 OVC030 M00/M00 A3006 RMK CIGE012/1RA00/ QFF1019T7;EQDQ01+000003PRSWM1Q02    003PRSWM1
0258471260999992000011303004+36930+126450FM-15+0302RKTM V0203201N004110036019N0032001N1+00001+00001999999ADDGA1021+000159999GA2021+001809999GA3071+003609999GA4081+009009999GF108991999999999999999999MA1101761999999MW1611REMMET100RKTM 0258Z 32008KT 3200 -RA 2FG/// SCT006 BKN012 OVC030 M00/M00 A3005 RMK CIGE012/1RA00/ QFF1019PT4;EQDQ01+000003PRSWM1Q02    003PRSWM1
0200471260999992000011303504+36930+126450FM-16+0302RKTM V0202901N005710036019N0048001N1+99999+99999999999ADDGA1011+000159999GA2021+001809999GA3071+003609999GA4081+009009999GF108991999999999999999999MW1001MW2101REMMET067RKTM 0350Z 29011KT 4800 BR 1FG/// FEW006 BKN012 OVC030 RMK CIGE012;EQDQ01+000003PRSWM1
0246471260999992000011304004+36930+126450FM-15+0302RKTM V0203001N006710036019N0060001N1-00101-00301999999ADDGA1021+001809999GA2071+003609999GA3081+009009999GF108991999999999999999999MA1101691999999MW1101OC101231REMMET096RKTM 0357Z 30013G024KT 6000 BR FEW006 BKN012 OVC030 M01/M03 A3003 RMK CIGE012/1RA00/ QFF1018PT9;EQDQ01+000003PRSWM1Q02    003PRSWM1
0217471260999992000011305004+36930+126450FM-15+0302RKTM V0203001N007210036019N0060001N1-00101-00301999999ADDGA1071+003609999GA2081+009009999GF108991999999999999999999MA1101731999999MW1101OC101341REMMET083RKTM 0456Z 30014G026KT 6000 BR BKN012 OVC030 M01/M03 A3004 RMK CIGE012/ QFF1019PT2;EQDQ01+000003PRSWM1Q02    003PRSWM1
0217471260999992000011306004+36930+126450FM-15+0302RKTM V0203101N006710036019N0060001N1-00201-00301999999ADDGA1071+003609999GA2081+009009999GF108991999999999999999999MA1101731999999MW1101OC101291REMMET083RKTM 0557Z 31013G025KT 6000 BR BKN012 OVC030 M02/M03 A3004 RMK CIGE012/ QFF1019PT2;EQDQ01+000003PRSWM1Q02    003PRSWM1
0217471260999992000011307004+36930+126450FM-15+0302RKTM V0203101N006710036019N0060001N1-00201-00401999999ADDGA1071+003609999GA2081+009009999GF108991999999999999999999MA1101831999999MW1101OC101231REMMET083RKTM 0657Z 31013G024KT 6000 BR BKN012 OVC030 M02/M04 A3007 RMK CIGE012/ QFF1020PT2;EQDQ01+000003PRSWM1Q02    003PRSWM1
0217471260999992000011308004+36930+126450FM-15+0302RKTM V0203001N006210036019N0060001N1-00201-00401999999ADDGA1071+003609999GA2081+009009999GF108991999999999999999999MA1101861999999MW1101OC101131REMMET083RKTM 0758Z 30012G022KT 6000 BR BKN012 OVC030 M02/M04 A3008 RMK CIGE012/ QFF1020PT9;EQDQ01+000003PRSWM1Q02    003PRSWM1
0153471260999992000011309204+36930+126450FM-16+0302RKTM V0202901N005710090019N0080001N1+99999+99999999999ADDGA1021+003609999GA2081+009009999GF108991999999999999999999MW1001MW2101REMMET052RKTM 0920Z 29011KT 8000 BR SCT012 OVC030 RMK CIG030;EQDQ01+000003PRSWM1
0204471260999992000011310004+36930+126450FM-15+0302RKTM V0203001N006210090019N0080001N1-00201-00401999999ADDGA1021+003609999GA2081+009009999GF108991999999999999999999MA1101901999999MW1101REMMET078RKTM 0956Z 30012KT 8000 BR SCT012 OVC030 M02/M04 A3009 RMK CIG030/ QFF1021PT2;EQDQ01+000003PRSWM1Q02    003PRSWM1
0204471260999992000011311004+36930+126450FM-15+0302RKTM V0202901N006210090019N0080001N1-00201-00501999999ADDGA1021+003609999GA2081+009009999GF108991999999999999999999MA1101961999999MW1101REMMET078RKTM 1058Z 29012KT 8000 BR FEW012 OVC030 M02/M05 A3011 RMK CIG030/ QFF1021PT9;EQDQ01+000003PRSWM1Q02    003PRSWM1
0181471260999992000011312004+36930+126450FM-15+0302RKTM V0203101N005710090019N0080001N1-00201-00501999999ADDGA1081+009009999GF108991999999999999999999MA1102001999999MW1101REMMET071RKTM 1157Z 31011KT 8000 BR OVC030 M02/M05 A3012 RMK CIG030/ QFF1022PT3;EQDQ01+000003PRSWM1Q02    003PRSWM1
0181471260999992000011313004+36930+126450FM-15+0302RKTM V0203301N005110090019N0080001N1-00301-00601999999ADDGA1081+009009999GF108991999999999999999999MA1102031999999MW1101REMMET071RKTM 1256Z 33010KT 8000 BR OVC030 M03/M06 A3013 RMK CIG030/ QFF1022PT6;EQDQ01+000003PRSWM1Q02    003PRSWM1
0181471260999992000011314004+36930+126450FM-15+0302RKTM V0203401N004110090019N0080001N1-00301-00601999999ADDGA1081+009009999GF108991999999999999999999MA1102031999999MW1101REMMET071RKTM 1358Z 34008KT 8000 BR OVC030 M03/M06 A3013 RMK CIG030/ QFF1022PT6;EQDQ01+000003PRSWM1Q02    003PRSWM1
0187471260999992000011315004+36930+126450FM-15+0302RKTM V0203601N004110090019N0080001N1-00301-00601999999ADDGA1081+009009999GF108991999999999999999999MA1102031999999MW1101REMMET077RKTM 1457Z 36008KT 8000 BR OVC030 M03/M06 A3013 RMK CIG030/20002/ QFF1022PT8;EQDQ01+000003PRSWM1Q02    003PRSWM1
0181471260999992000011317004+36930+126450FM-15+0302RKTM V0203301N003110090019N0080001N1-00301-00601999999ADDGA1081+009009999GF108991999999999999999999MA1102101999999MW1101REMMET071RKTM 1658Z 33006KT 8000 BR OVC030 M03/M06 A3015 RMK CIG030/ QFF1023PT1;EQDQ01+000003PRSWM1Q02    003PRSWM1
0181471260999992000011318004+36930+126450FM-15+0302RKTM V0203301N002610090019N0080001N1-00301-00601999999ADDGA1081+009009999GF108991999999999999999999MA1102131999999MW1101REMMET071RKTM 1756Z 33005KT 8000 BR OVC030 M03/M06 A3016 RMK CIG030/ QFF1023PT5;EQDQ01+000003PRSWM1Q02    003PRSWM1
0181471260999992000011319004+36930+126450FM-15+0302RKTM V0203401N001510090019N0080001N1-00301-00601999999ADDGA1081+009009999GF108991999999999999999999MA1102131999999MW1101REMMET071RKTM 1857Z 34003KT 8000 BR OVC030 M03/M06 A3016 RMK CIG030/ QFF1023PT5;EQDQ01+000003PRSWM1Q02    003PRSWM1
0181471260999992000011320004+36930+126450FM-15+0302RKTM V0200101N001510090019N0080001N1-00301-00601999999ADDGA1071+009009999GF107991999999999999999999MA1102201999999MW1101REMMET071RKTM 1958Z 01003KT 8000 BR BKN030 M03/M06 A3018 RMK CIG030/ QFF1024PT1;EQDQ01+000003PRSWM1Q02    003PRSWM1
0181471260999992000011321004+36930+126450FM-15+0302RKTM V0200101N002110090019N0080001N1-00301-00601999999ADDGA1071+009009999GF107991999999999999999999MA1102201999999MW1101REMMET071RKTM 2057Z 01004KT 8000 BR BKN030 M03/M06 A3018 RMK CIG030/ QFF1024PT1;EQDQ01+000003PRSWM1Q02    003PRSWM1
0181471260999992000011322004+36930+126450FM-15+0302RKTM V0200401N003610090019N0080001N1-00301-00501999999ADDGA1071+009009999GF107991999999999999999999MA1102241999999MW1101REMMET071RKTM 2157Z 04007KT 8000 BR BKN030 M03/M05 A3019 RMK CIG030/ QFF1024PT5;EQDQ01+000003PRSWM1Q02    003PRSWM1
0181471260999992000011323004+36930+126450FM-15+0302RKTM V0200701N004610090019N0060001N1-00301-00601999999ADDGA1081+009009999GF108991999999999999999999MA1102271999999MW1101REMMET071RKTM 2258Z 07009KT 6000 BR OVC030 M03/M06 A3020 RMK CIG030/ QFF1024PT8;EQDQ01+000003PRSWM1Q02    003PRSWM1
0181471260999992000011400004+36930+126450FM-15+0302RKTM V0200901N005110090019N0060001N1-00301-00601999999ADDGA1081+009009999GF108991999999999999999999MA1102301999999MW1101REMMET071RKTM 2356Z 09010KT 6000 BR OVC030 M03/M06 A3021 RMK CIG030/ QFF1025PT2;EQDQ01+000003PRSWM1Q02    003PRSWM1
0131471260999992000011400454+36930+126450FM-16+0302RKTM V0200901N004110090019N0060001N1+99999+99999999999ADDGA1081+009009999GF108991999999999999999999MW1001MW2711REMMET046RKTM 0045Z 09008KT 6000 -SN OVC030 RMK CIG030;EQDQ01+000003PRSWM1
0188471260999992000011401004+36930+126450FM-15+0302RKTM V0200901N003610090019N0060001N1-00301-00601999999ADDGA1081+009009999GF108991999999999999999999MA1102401999999MW1711REMMET078RKTM 0058Z 09007KT 6000 -SN OVC030 M03/M06 A3024 RMK CIG030/1SN00/ QFF1026PT2;EQDQ01+000003PRSWM1Q02    003PRSWM1
0211471260999992000011402004+36930+126450FM-15+0302RKTM V0201001N002610090019N0048001N1-00301-00401999999ADDGA1011+000159999GA2071+009009999GF107991999999999999999999MA1102401999999MW1711REMMET085RKTM 0157Z 10005KT 4800 -SN 1FG/// BKN030 M03/M04 A3024 RMK CIG030/1SN00/ QFF1026PT2;EQDQ01+000003PRSWM1Q02    003PRSWM1
0153471260999992000011402154+36930+126450FM-16+0302RKTM V0201001N002110090019N0048001N1+99999+99999999999ADDGA1011+000159999GA2081+009009999GF108991999999999999999999MW1001MW2101REMMET052RKTM 0215Z 10004KT 4800 BR 1FG/// OVC030 RMK CIG030;EQDQ01+000003PRSWM1
0210471260999992000011403004+36930+126450FM-15+0302RKTM V0200601N001510090019N0048001N1-00101-00301999999ADDGA1011+000159999GA2071+009009999GF107991999999999999999999MA1102341999999MW1101REMMET084RKTM 0256Z 06003KT 4800 BR 1FG/// BKN030 M01/M03 A3022 RMK CIG030/1SN00/ QFF1025PT5;EQDQ01+000003PRSWM1Q02    003PRSWM1
0204471260999992000011404004+36930+126450FM-15+0302RKTM V0200301N001510090019N0048001N1-00101-00401999999ADDGA1011+000159999GA2081+009009999GF108991999999999999999999MA1102301999999MW1101REMMET078RKTM 0357Z 03003KT 4800 BR 1FG/// OVC030 M01/M04 A3021 RMK CIG030/ QFF1025PT2;EQDQ01+000003PRSWM1Q02    003PRSWM1
0204471260999992000011405004+36930+126450FM-15+0302RKTM V0203601N002110090019N0048001N1-00101-00401999999ADDGA1011+000159999GA2081+009009999GF108991999999999999999999MA1102301999999MW1101REMMET078RKTM 0458Z 36004KT 4800 BR 1FG/// OVC030 M01/M04 A3021 RMK CIG030/ QFF1025PT2;EQDQ01+000003PRSWM1Q02    003PRSWM1
0210471260999992000011406004+36930+126450FM-15+0302RKTM V0203401N003110090019N0048001N1-00101-00401999999ADDGA1011+000159999GA2081+009009999GF108991999999999999999999MA1102341999999MW1101REMMET084RKTM 0556Z 34006KT 4800 BR 1FG/// OVC030 M01/M04 A3022 RMK CIG030/6SN00/ QFF1025PT5;EQDQ01+000003PRSWM1Q02    003PRSWM1
