0151476600999992000010100004+35700+139400FM-15+0098RJTC V0203601N002612200019N0112651N1+00901+00201999999ADDGA1021+009009999GF102991999999999999999999MA1102001999999MW1001REMMET076RJTC 0000Z 36005KT 9999 FEW030 09/02 Q1020 RMK 1CU030 A3013 FCST 0009 NOSIG;
0135476600999992000010101004+35700+139400FM-15+0098RJTC V0200301N005712200019N0112651N1+01101+00001999999ADDGA1021+010509999GF102991999999999999999999MA1101901999999MW1001REMMET060RJTC 0100Z 03011KT 9999 FEW035 11/00 Q1019 RMK 1CU035 A3012;
0136476600999992000010102004+35700+139400FM-15+0098RJTC V0203601N005112200019N0112651N1+01201+00001999999ADDGA1021+010509999GF102991999999999999999999MA1101901999999MW1001REMMET061RJTC 0200Z 36010KT 9999 FEW035 12/M00 Q1019 RMK 1CU035 A3009;
0168476600999992000010103004+35700+139400FM-15+0098RJTC V0200201N005712200019N0112651N1+01301-00101999999ADDGA1021+010509999GF102991999999999999999999MA1101801999999MW1001REMMET093RJTC 0300Z 02011KT 9999 FEW035 13/M01 Q1018 RMK 1CU035 A3006 FCST 0312 TEMPO 0408 02012G22KT;
0136476600999992000010104004+35700+139400FM-15+0098RJTC V0200101N006712200019N0112651N1+01401-00301999999ADDGA1021+010509999GF102991999999999999999999MA1101691999999MW1001REMMET061RJTC 0400Z 01013KT 9999 FEW035 14/M03 Q1017 RMK 1CU035 A3004;
0166476600999992000010105004+35700+139400FM-15+0098RJTC V0200201N007212200019N0112651N1+01401-00401999999ADDGA1021+010509999GA2021+066009999GF104991999999999999999999MA1101691999999MW1001REMMET075RJTC 0500Z 02014KT 9999 FEW035 SCT220 14/M04 Q1017 RMK 1CU035 3CI220 A3004;
0182476600999992000010106004+35700+139400FM-15+0098RJTC V0200201N007212200019N0112651N1+01301-00301999999ADDGA1021+010509999GA2021+066009999GF104991999999999999999999MA1101691999999MW1001REMMET091RJTC 0600Z 02014KT 9999 FEW035 SCT220 13/M03 Q1017 RMK 1CU035 3CI220 A3005 FCST 0615 NOSIG;
0177476600999992000010107004+35700+139400FM-15+0098RJTC V0200301N006710660019N0112651N1+01101-00401999999ADDGA1021+012009999GA2071+066009999GF107991999999999999999999MA1101801999999MW1001OC101181REMMET078RJTC 0700Z 03013G23KT 9999 FEW040 BKN220 11/M04 Q1018 RMK 1SC040 5CI220 A3008;
0182476600999992000010108004+35700+139400FM-15+0098RJTC V0200101N006210660019N0112651N1+00901-00401999999ADDGA1021+012009999GA2071+066009999GF107991999999999999999999MA1101901999999MW1001REMMET091RJTC 0800Z 01012KT 9999 FEW040 BKN220 09/M04 Q1019 RMK 1SC040 5CI220 A3009 FCST 0817 NOSIG;
0137476600999992000010122004+35700+139400FM-15+0098RJTC V0203201N001012200019N0112651N1-00201-00301999999ADDGA1021+013509999GF102991999999999999999999MA1102101999999MW1001REMMET062RJTC 2200Z 32002KT 9999 FEW045 M02/M03 Q1021 RMK 1SC045 A3016;
0153476600999992000010123004+35700+139400FM-15+0098RJTC V0202601N001012200019N0112651N1-00101-00101999999ADDGA1021+013509999GF102991999999999999999999MA1102101999999MW1001REMMET078RJTC 2300Z 26002KT 9999 FEW045 M01/M01 Q1021 RMK 2SC045 A3017 FCST 2308 NOSIG;
0215476600999992000010200004+35700+139400FM-15+0098RJTC V0202601N000510135019N0112651N1+00301-00101999999ADDGA1021+010509999GA2071+013509999GF107991999999999999999999MA1102101999999MW1001REMMET105RJTC 0000Z 26001KT 9999 FEW035 BKN045 03/M01 Q1021 RMK 1SC035 5SC045 A3017 FCST 0009 TEMPO 0006 SCT045SC;EQDQ01+000000PRSWM2
0185476600999992000010201004+35700+139400FM-15+0098RJTC V02099999999990135019N0112651N1+00701-00201999999ADDGA1021+009009999GA2071+013509999GF107991999999999999999999MA1102101999999MW1001REMMET075RJTC 0100Z VRB02KT 9999 FEW030 BKN045 07/M02 Q1021 RMK 1CU030 5SC045 A3016;EQDQ01+000000PRSWM2
0185476600999992000010202004+35700+139400FM-15+0098RJTC V0200401N002612200019N0112651N1+00801-00301999999ADDGA1021+009009999GA2021+013509999GF104991999999999999999999MA1102001999999MW1001REMMET075RJTC 0200Z 04005KT 9999 FEW030 SCT045 08/M03 Q1020 RMK 1CU030 3SC045 A3012;EQDQ01+000000PRSWM2
0263476600999992000010203004+35700+139400FM-15+0098RJTC V0200401N003110630019N0112651N1+00901-00301999999ADDGA1021+013509999GA2021+030009999GA3071+063009999GF107991999999999999999999MA1101801999999MW1001REMMET137RJTC 0300Z 04006KT 9999 FEW045 SCT100 BKN210 09/M03 Q1018 RMK 1SC045 3AC100 5CI210 A3009 FCST 0312 TEMPO 0612 SCT045SC BKN100AC BKN210CI;EQDQ01+000000PRSWM2
0215476600999992000010204004+35700+139400FM-15+0098RJTC V0200401N001510630019N0112651N1+00901-00301999999ADDGA1021+013509999GA2021+030009999GA3071+063009999GF107991999999999999999999MA1101801999999MW1001REMMET089RJTC 0400Z 04003KT 9999 FEW045 SCT100 BKN210 09/M03 Q1018 RMK 2SC045 4AC100 6CI210 A3007;EQDQ01+000000PRSWM2
0215476600999992000010205004+35700+139400FM-15+0098RJTC V0201201N001510630019N0112651N1+00901-00401999999ADDGA1021+013509999GA2021+030009999GA3071+063009999GF107991999999999999999999MA1101691999999MW1001REMMET089RJTC 0500Z 12003KT 9999 SCT045 SCT100 BKN210 09/M04 Q1017 RMK 4SC045 4AC100 6CI210 A3005;EQDQ01+000000PRSWM2
0242476600999992000010206004+35700+139400FM-15+0098RJTC V0201301N001010105019N0112651N1+00901-00401999999ADDGA1071+010509999GA2021+030009999GA3071+063009999GF107991999999999999999999MA1101691999999MW1001REMMET116RJTC 0600Z 13002KT 9999 BKN035 SCT100 BKN210 09/M04 Q1017 RMK 5SC035 3AC100 5CI210 A3004 FCST 0615 TEMPO 1315 -SHSN;EQDQ01+000000PRSWM2
0185476600999992000010207004+35700+139400FM-15+0098RJTC V0201501N000510105019N0112651N1+00701-00501999999ADDGA1071+010509999GA2071+030009999GF107991999999999999999999MA1101691999999MW1001REMMET075RJTC 0700Z 15001KT 9999 BKN035 BKN100 07/M05 Q1017 RMK 5SC035 7AC100 A3004;EQDQ01+000000PRSWM2
0212476600999992000010208004+35700+139400FM-15+0098RJTC V0201801N001010105019N0112651N1+00801-00301999999ADDGA1071+010509999GA2071+030009999GF107991999999999999999999MA1101691999999MW1001REMMET102RJTC 0800Z 18002KT 9999 BKN035 BKN100 08/M03 Q1017 RMK 5SC035 7AC100 A3005 FCST 0817 TEMPO 1317 -SHSN;EQDQ01+000000PRSWM2
0154476600999992000010222004+35700+139400FM-15+0098RJTC V0209999C000012200019N0112651N1+00301+00101999999ADDGA1021+013509999GF102991999999999999999999MA1101081999999MW1001REMMET060RJTC 2200Z 00000KT 9999 FEW045 03/01 Q1011 RMK 2SC045 A2987;EQDQ01+000000PRSWM2
0170476600999992000010223004+35700+139400FM-15+0098RJTC V0209999C000012200019N0112651N1+00301+00101999999ADDGA1021+012009999GF102991999999999999999999MA1101021999999MW1001REMMET076RJTC 2300Z 00000KT 9999 FEW040 03/01 Q1010 RMK 2SC040 A2985 FCST 2308 NOSIG;EQDQ01+000000PRSWM2
0170476600999992000010300004+35700+139400FM-15+0098RJTC V0202001N001012200019N0112651N1+00901+00101999999ADDGA1021+012009999GF102991999999999999999999MA1101021999999MW1001REMMET076RJTC 0000Z 20002KT 9999 FEW040 09/01 Q1010 RMK 2SC040 A2984 FCST 0009 NOSIG;EQDQ01+000000PRSWM2
0155476600999992000010301004+35700+139400FM-15+0098RJTC V0201401N002112200019N0112651N1+01001+00001999999ADDGA1021+009009999GF102991999999999999999999MA1100911999999MW1001REMMET061RJTC 0100Z 14004KT 9999 FEW030 10/M00 Q1009 RMK 1CU030 A2981;EQDQ01+000000PRSWM2
0154476600999992000010302004+35700+139400FM-15+0098RJTC V0201501N002112200019N0112651N1+01201+00201999999ADDGA1021+009009999GF102991999999999999999999MA1100711999999MW1001REMMET060RJTC 0200Z 15004KT 9999 FEW030 12/02 Q1007 RMK 1CU030 A2976;EQDQ01+000000PRSWM2
0170476600999992000010303004+35700+139400FM-15+0098RJTC V0201801N003112200019N0112651N1+01301+00401999999ADDGA1021+009009999GF102991999999999999999999MA1100611999999MW1001REMMET076RJTC 0300Z 18006KT 9999 FEW030 13/04 Q1006 RMK 1CU030 A2971 FCST 0312 NOSIG;EQDQ01+000000PRSWM2
0154476600999992000010304004+35700+139400FM-15+0098RJTC V0203501N000512200019N0112651N1+01401+00501999999ADDGA1021+009009999GF102991999999999999999999MA1100411999999MW1001REMMET060RJTC 0400Z 35001KT 9999 FEW030 14/05 Q1004 RMK 1CU030 A2966;EQDQ01+000000PRSWM2
0154476600999992000010305004+35700+139400FM-15+0098RJTC V0200201N006212200019N0112651N1+01501+00301999999ADDGA1021+010509999GF102991999999999999999999MA1100511999999MW1001REMMET060RJTC 0500Z 02012KT 9999 FEW035 15/03 Q1005 RMK 1CU035 A2968;EQDQ01+000000PRSWM2
0170476600999992000010306004+35700+139400FM-15+0098RJTC V0200201N006712200019N0112651N1+01401+00301999999ADDGA1021+010509999GF102991999999999999999999MA1100611999999MW1001REMMET076RJTC 0600Z 02013KT 9999 FEW035 14/03 Q1006 RMK 1CU035 A2972 FCST 0615 NOSIG;EQDQ01+000000PRSWM2
0154476600999992000010307004+35700+139400FM-15+0098RJTC V0200301N003612200019N0112651N1+01301+00301999999ADDGA1021+009009999GF102991999999999999999999MA1100711999999MW1001REMMET060RJTC 0700Z 03007KT 9999 FEW030 13/03 Q1007 RMK 1CU030 A2975;EQDQ01+000000PRSWM2
0170476600999992000010308004+35700+139400FM-15+0098RJTC V0200301N002112200019N0112651N1+01101+00301999999ADDGA1021+009009999GF102991999999999999999999MA1100811999999MW1001REMMET076RJTC 0800Z 03004KT 9999 FEW030 11/03 Q1008 RMK 1CU030 A2977 FCST 0817 NOSIG;EQDQ01+000000PRSWM2
0156476600999992000010322004+35700+139400FM-15+0098RJTC V0209999C000012200019N0112651N1-00201-00301999999ADDGA1021+009009999GF102991999999999999999999MA1101491999999MW1001REMMET062RJTC 2200Z 00000KT 9999 FEW030 M02/M03 Q1015 RMK 1SC030 A2997;EQDQ01+000000PRSWM2
0171476600999992000010323004+35700+139400FM-15+0098RJTC V02099999999992200019N0112651N1+00101+00001999999ADDGA1021+013509999GF102991999999999999999999MA1101491999999MW1001REMMET077RJTC 2300Z VRB01KT 9999 FEW045 01/M00 Q1015 RMK 1SC045 A2999 FCST 2308 NOSIG;EQDQ01+000000PRSWM2
0170476600999992000010400004+35700+139400FM-15+0098RJTC V0202901N001012200019N0112651N1+00801+00001999999ADDGA1021+013509999GF102991999999999999999999MA1101591999999MW1001REMMET076RJTC 0000Z 29002KT 9999 FEW045 08/00 Q1016 RMK 1SC045 A3001 FCST 0009 NOSIG;EQDQ01+000000PRSWM2
0155476600999992000010401004+35700+139400FM-15+0098RJTC V0200301N002612200019N0112651N1+01301-00201999999ADDGA1021+013509999GF102991999999999999999999MA1101591999999MW1001REMMET061RJTC 0100Z 03005KT 9999 FEW045 13/M02 Q1016 RMK 1SC045 A3002;EQDQ01+000000PRSWM2
0155476600999992000010402004+35700+139400FM-15+0098RJTC V0200401N001512200019N0112651N1+01401-00301999999ADDGA1021+063009999GF102991999999999999999999MA1101591999999MW1001REMMET061RJTC 0200Z 04003KT 9999 FEW210 14/M03 Q1016 RMK 1CI210 A3001;EQDQ01+000000PRSWM2
0171476600999992000010403004+35700+139400FM-15+0098RJTC V0200401N002612200019N0112651N1+01501-00301999999ADDGA1021+009009999GF102991999999999999999999MA1101491999999MW1001REMMET077RJTC 0300Z 04005KT 9999 FEW030 15/M03 Q1015 RMK 1CU030 A2999 FCST 0312 NOSIG;EQDQ01+000000PRSWM2
0155476600999992000010405004+35700+139400FM-15+0098RJTC V0202101N001512200019N0112651N1+01601-00201999999ADDGA1021+009009999GF102991999999999999999999MA1101491999999MW1001REMMET061RJTC 0500Z 21003KT 9999 FEW030 16/M02 Q1015 RMK 1CU030 A2999;EQDQ01+000000PRSWM2
0171476600999992000010406004+35700+139400FM-15+0098RJTC V0200601N001512200019N0112651N1+01501-00301999999ADDGA1021+009009999GF102991999999999999999999MA1101591999999MW1001REMMET077RJTC 0600Z 06003KT 9999 FEW030 15/M03 Q1016 RMK 1CU030 A3001 FCST 0615 NOSIG;EQDQ01+000000PRSWM2
0155476600999992000010407004+35700+139400FM-15+0098RJTC V0200201N004112200019N0112651N1+01301-00301999999ADDGA1021+009009999GF102991999999999999999999MA1101691999999MW1001REMMET061RJTC 0700Z 02008KT 9999 FEW030 13/M03 Q1017 RMK 1CU030 A3004;EQDQ01+000000PRSWM2
0171476600999992000010408004+35700+139400FM-15+0098RJTC V0200201N003612200019N0112651N1+01101-00301999999ADDGA1021+009009999GF102991999999999999999999MA1101801999999MW1001REMMET077RJTC 0800Z 02007KT 9999 FEW030 11/M03 Q1018 RMK 1CU030 A3007 FCST 0817 NOSIG;EQDQ01+000000PRSWM2
0156476600999992000010422004+35700+139400FM-15+0098RJTC V0203001N000512200019N0112651N1-00201-00301999999ADDGA1021+009009999GF102991999999999999999999MA1102301999999MW1001REMMET062RJTC 2200Z 30001KT 9999 FEW030 M02/M03 Q1023 RMK 2SC030 A3023;EQDQ01+000000PRSWM2
0172476600999992000010423004+35700+139400FM-15+0098RJTC V0202601N000512200019N0112651N1+00001-00201999999ADDGA1021+012009999GF102991999999999999999999MA1102301999999MW1001REMMET078RJTC 2300Z 26001KT 9999 FEW040 M00/M02 Q1023 RMK 2SC040 A3023 FCST 2308 NOSIG;EQDQ01+000000PRSWM2
0187476600999992000010423164+35700+139400FM-16+0098RJTC V0203101N000510300019N0112651N1+00101+00001999999ADDGA1021+012009999GA2071+030009999GF107991999999999999999999MA1102401999999MW1001REMMET077RJTC 042316Z 31001KT 9999 FEW040 BKN100 01/M00 Q1024 RMK 2SC040 5AC100 A3025;EQDQ01+000000PRSWM2
0223476600999992000010500004+35700+139400FM-15+0098RJTC V0201901N000510300019N0112651N1+00401+00001999999ADDGA1021+012009999GA2071+030009999GF107991999999999999999999MA1102401999999MW1001REMMET113RJTC 0000Z 19001KT 9999 SCT040 BKN100 04/00 Q1024 RMK 3SC040 5AC100 A3026 FCST 0009 BECMG 0203 FEW040SC FEW100AC;EQDQ01+000000PRSWM2
0154476600999992000010501004+35700+139400FM-15+0098RJTC V0201601N001512200019N0112651N1+00901+00001999999ADDGA1021+012009999GF102991999999999999999999MA1102401999999MW1001REMMET060RJTC 0100Z 16003KT 9999 FEW040 09/00 Q1024 RMK 1SC040 A3026;EQDQ01+000000PRSWM2
0185476600999992000010502004+35700+139400FM-15+0098RJTC V0200801N002612200019N0112651N1+01101-00201999999ADDGA1021+012009999GA2021+063009999GF104991999999999999999999MA1102401999999MW1001REMMET075RJTC 0200Z 08005KT 9999 FEW040 SCT210 11/M02 Q1024 RMK 1SC040 3CI210 A3025;EQDQ01+000000PRSWM2
0233476600999992000010503004+35700+139400FM-15+0098RJTC V0200601N003110630019N0112651N1+01201-00301999999ADDGA1021+012009999GA2071+063009999GF107991999999999999999999MA1102301999999MW1001REMMET123RJTC 0300Z 06006KT 9999 FEW040 BKN210 12/M03 Q1023 RMK 1SC040 6CI210 A3022 FCST 0312 BECMG 0810 SCT040SC BKN100AC BKN230CI;EQDQ01+000000PRSWM2
0185476600999992000010505004+35700+139400FM-15+0098RJTC V0200701N001010630019N0112651N1+01301-00201999999ADDGA1021+015009999GA2071+063009999GF107991999999999999999999MA1102201999999MW1001REMMET075RJTC 0500Z 07002KT 9999 FEW050 BKN210 13/M02 Q1022 RMK 1SC050 7CI210 A3019;EQDQ01+000000PRSWM2
0233476600999992000010506004+35700+139400FM-15+0098RJTC V0201501N001510630019N0112651N1+01301-00201999999ADDGA1021+018009999GA2071+063009999GF107991999999999999999999MA1102201999999MW1001REMMET123RJTC 0600Z 15003KT 9999 FEW060 BKN210 13/M02 Q1022 RMK 1SC060 7CI210 A3019 FCST 0615 BECMG 1012 SCT050SC BKN080AC BKN210CI;EQDQ01+000000PRSWM2
0185476600999992000010507004+35700+139400FM-15+0098RJTC V0201601N002110630019N0112651N1+01201-00201999999ADDGA1021+018009999GA2071+063009999GF107991999999999999999999MA1102201999999MW1001REMMET075RJTC 0700Z 16004KT 9999 FEW060 BKN210 12/M02 Q1022 RMK 1SC060 7CI210 A3020;EQDQ01+000000PRSWM2
0254476600999992000010508004+35700+139400FM-15+0098RJTC V0201501N001510630019N0112651N1+00801-00101999999ADDGA1021+012009999GA2021+018009999GA3071+063009999GF107991999999999999999999MA1102301999999MW1001REMMET128RJTC 0800Z 15003KT 9999 FEW040 SCT060 BKN210 08/M01 Q1023 RMK 1SC040 4SC060 7CI210 A3021 FCST 0817 BECMG 0911 BKN060SC OVC080AC;EQDQ01+000000PRSWM2
0184476600999992000010522004+35700+139400FM-15+0098RJTC V0203301N001010090019N0112651N1+00701+00301999999ADDGA1071+009009999GA2081+030009999GF108991999999999999999999MA1102201999999MW1001REMMET074RJTC 2200Z 33002KT 9999 BKN030 OVC100 07/03 Q1022 RMK 6SC030 8AC100 A3019;EQDQ01+000000PRSWM2
0184476600999992000010601004+35700+139400FM-15+0098RJTC V0203301N001510069019N0112651N1+01001+00201999999ADDGA1021+006009999GA2071+006909999GF107991999999999999999999MA1102201999999MW1001REMMET074RJTC 0100Z 33003KT 9999 FEW020 BKN023 10/02 Q1022 RMK 1SC020 7SC023 A3019;EQDQ01+000000PRSWM2
0184476600999992000010602004+35700+139400FM-15+0098RJTC V0200201N001510069019N0112651N1+01101+00201999999ADDGA1071+006909999GA2071+012009999GF107991999999999999999999MA1102101999999MW1001REMMET074RJTC 0200Z 02003KT 9999 BKN023 BKN040 11/02 Q1021 RMK 6SC023 6SC040 A3016;EQDQ01+000000PRSWM2
0238476600999992000010603004+35700+139400FM-15+0098RJTC V0203201N001510075019N0112651N1+01201+00301999999ADDGA1071+007509999GA2071+036009999GF107991999999999999999999MA1101901999999MW1001REMMET128RJTC 0300Z 32003KT 9999 BKN025 BKN120 12/03 Q1019 RMK 5SC025 6AC120 A3012 FCST 0312 TEMPO 0508 -RA BECMG 1012 FEW025SC BKN100AC;EQDQ01+000000PRSWM2
0214476600999992000010604004+35700+139400FM-15+0098RJTC V0200101N002110075019N0112651N1+01301+00401999999ADDGA1071+007509999GA2021+012009999GA3071+036009999GF107991999999999999999999MA1101801999999MW1001REMMET088RJTC 0400Z 01004KT 9999 BKN025 SCT040 BKN120 13/04 Q1018 RMK 5SC025 3SC040 7AC120 A3009;EQDQ01+000000PRSWM2
0214476600999992000010605004+35700+139400FM-15+0098RJTC V0200801N002110075019N0112651N1+01301+00501999999ADDGA1071+007509999GA2021+012009999GA3071+036009999GF107991999999999999999999MA1101691999999MW1001REMMET088RJTC 0500Z 08004KT 9999 BKN025 SCT040 BKN120 13/05 Q1017 RMK 5CU025 3SC040 6AC120 A3005;EQDQ01+000000PRSWM2
0216476600999992000010605214+35700+139400FM-16+0098RJTC V0200601N001510360019N0112651N1+01301+00501999999ADDGA1021+007509999GA2021+012009999GA3071+036009999GF107991999999999999999999MA1101691999999MW1001REMMET090RJTC 060521Z 06003KT 9999 FEW025 SCT040 BKN120 13/05 Q1017 RMK 2CU025 3SC040 6AC120 A3003;EQDQ01+000000PRSWM2
0200476600999992000010606004+35700+139400FM-15+0098RJTC V0200801N001510075019N0112651N1+01401+00501999999ADDGA1071+007509999GA2071+030009999GF107991999999999999999999MA1101691999999MW1001REMMET090RJTC 0600Z 08003KT 9999 BKN025 BKN100 14/05 Q1017 RMK 5SC025 6AC100 A3003 FCST 0615 NOSIG;EQDQ01+000000PRSWM2
0214476600999992000010607004+35700+139400FM-15+0098RJTC V0200301N002110075019N0112651N1+01301+00501999999ADDGA1071+007509999GA2021+012009999GA3071+030009999GF107991999999999999999999MA1101691999999MW1001REMMET088RJTC 0700Z 03004KT 9999 BKN025 SCT040 BKN100 13/05 Q1017 RMK 6SC025 3SC040 6AC100 A3003;EQDQ01+000000PRSWM2
0230476600999992000010608004+35700+139400FM-15+0098RJTC V0200301N002110120019N0112651N1+01201+00501999999ADDGA1021+007509999GA2071+012009999GA3071+030009999GF107991999999999999999999MA1101691999999MW1001REMMET104RJTC 0800Z 03004KT 9999 SCT025 BKN040 BKN100 12/05 Q1017 RMK 4SC025 6SC040 6AC100 A3004 FCST 0817 NOSIG;EQDQ01+000000PRSWM2
0333476600999992000010700004+35700+139400FM-15+0098RJTC V0200401N000510045019N0025001N1+00901+00901999999ADDGA1021+003009999GA2071+004509999GA3081+009009999GF108991999999999999999999MA1100811999999MW1101REMMET191RJTC 0000Z 04001KT 2500 BR SCT010 BKN015 OVC030 09/09 Q1008 RMK 3ST010 5SC015 8SC030 A2979 FCST 0009 BECMG 0102 4000 BR SCT012SC BKN030SC BKN050SC BECMG 0304 NSW BECMG 0406 SCT030CU SCT100AC;EQDQ01+000003PRSWM1Q02    003PRSWM1
0233476600999992000010702004+35700+139400FM-15+0098RJTC V02099999999990045019N0031001N1+01301+01101999999ADDGA1021+003009999GA2071+004509999GA3071+013509999GF107991999999999999999999MA1100711999999MW1101REMMET091RJTC 0200Z VRB01KT 3100 BR FEW010 BKN015 BKN045 13/11 Q1007 RMK 1ST010 5SC015 6SC045 A2976;EQDQ01+000003PRSWM1Q02    003PRSWM1
0235476600999992000010702284+35700+139400FM-16+0098RJTC V0203201N002110135019N0031001N1+01501+01301999999ADDGA1021+004509999GA2071+013509999GA3071+069009999GF107991999999999999999999MA1100611999999MW1101REMMET093RJTC 070228Z 32004KT 3100 BR SCT015 BKN045 BKN230 15/13 Q1006 RMK 3SC015 5SC045 7CI230 A2973;EQDQ01+000003PRSWM1Q02    003PRSWM1
0276476600999992000010703004+35700+139400FM-15+0098RJTC V0203501N001510135019N0040001N1+01501+01301999999ADDGA1021+004509999GA2071+013509999GA3071+069009999GF107991999999999999999999MA1100611999999MW1101REMMET134RJTC 0300Z 35003KT 4000 BR SCT015 BKN045 BKN230 15/13 Q1006 RMK 3SC015 5SC045 7CI230 A2973 FCST 0312 BECMG 0305 NSW SCT045SC BKN230CI;EQDQ01+000003PRSWM1Q02    003PRSWM1
0205476600999992000010703224+35700+139400FM-16+0098RJTC V0201001N001512200019N0050001N1+01701+01401999999ADDGA1021+004509999GA2021+069009999GF104991999999999999999999MA1100611999999MW1101REMMET079RJTC 070322Z 10003KT 5000 BR FEW015 SCT230 17/14 Q1006 RMK 1SC015 4CI230 A2973;EQDQ01+000003PRSWM1Q02    003PRSWM1
0203476600999992000010704004+35700+139400FM-15+0098RJTC V0201101N001510690019N0050001N1+01701+01301999999ADDGA1021+004509999GA2071+069009999GF107991999999999999999999MA1100611999999MW1101REMMET077RJTC 0400Z 11003KT 5000 BR FEW015 BKN230 17/13 Q1006 RMK 1SC015 5CI230 A2972;EQDQ01+000003PRSWM1Q02    003PRSWM1
0203476600999992000010705004+35700+139400FM-15+0098RJTC V0200701N001510690019N0050001N1+01901+01201999999ADDGA1021+006009999GA2071+069009999GF107991999999999999999999MA1100611999999MW1051REMMET077RJTC 0500Z 07003KT 5000 HZ FEW020 BKN230 19/12 Q1006 RMK 1SC020 6CI230 A2972;EQDQ01+000003PRSWM1Q02    003PRSWM1
0253476600999992000010706004+35700+139400FM-15+0098RJTC V0203601N004110300019N0112651N1+01801+00901999999ADDGA1021+006009999GA2021+015009999GA3071+030009999GF107991999999999999999999MA1100611999999MW1001REMMET127RJTC 0600Z 36008KT 9999 FEW020 SCT050 BKN100 18/09 Q1006 RMK 1SC020 3SC050 5AC100 A2973 FCST 0615 TEMPO 0712 FEW025CU BKN045SC;EQDQ01+000000PRSWM2
0186476600999992000010706394+35700+139400FM-16+0098RJTC V0200101N003612200019N0112651N1+01701+00801999999ADDGA1021+006009999GA2021+013509999GF104991999999999999999999MA1100611999999MW1001REMMET076RJTC 070639Z 01007KT 9999 FEW020 SCT045 17/08 Q1006 RMK 1CU020 3SC045 A2973;EQDQ01+000000PRSWM2
0184476600999992000010707004+35700+139400FM-15+0098RJTC V0200401N003112200019N0112651N1+01701+00801999999ADDGA1021+006009999GA2021+013509999GF104991999999999999999999MA1100611999999MW1001REMMET074RJTC 0700Z 04006KT 9999 FEW020 SCT045 17/08 Q1006 RMK 2CU020 3SC045 A2973;EQDQ01+000000PRSWM2
0176476600999992000010707254+35700+139400FM-15+0098RJTC V0200101N00261220001CN0112651N1+01601+00801999999ADDGA1071+012009999GA2021+027009999MA1100711999999MW1001REMMET076RJTC 070725Z 01005KT 9999 BKN040 SCT090 16/08 Q1007 RMK 5CU040 3AC090 A2975;EQDQ01+000042SCOTCVQ02+000000PRSWM2
0223476600999992000010708004+35700+139400FM-15+0098RJTC V0200101N004112200019N0112651N1+01601+00501999999ADDGA1021+006009999GA2021+012009999GF104991999999999999999999MA1100711999999MW1001REMMET113RJTC 0800Z 01008KT 9999 FEW020 SCT040 16/05 Q1007 RMK 2CU020 4SC040 A2976 FCST 0817 TEMPO 0913 FEW025CU BKN040SC;EQDQ01+000000PRSWM2
0214476600999992000010722004+35700+139400FM-15+0098RJTC V0200401N001010060019N0112651N1+00701+00201999999ADDGA1021+004509999GA2071+006009999GA3071+010509999GF107991999999999999999999MA1101491999999MW1001REMMET088RJTC 2200Z 04002KT 9999 FEW015 BKN020 BKN035 07/02 Q1015 RMK 2CU015 6CU020 7SC035 A3000;EQDQ01+000000PRSWM2
0253476600999992000010723004+35700+139400FM-15+0098RJTC V0209999C000010075019N0112651N1+00701+00401999999ADDGA1021+006009999GA2071+007509999GA3081+010509999GF108991999999999999999999MA1101591999999MW1001REMMET127RJTC 2300Z 00000KT 9999 FEW020 BKN025 OVC035 07/04 Q1016 RMK 1CU020 6CU025 8SC035 A3001 FCST 2308 TEMPO 0308 FEW020CU SCT035SC;EQDQ01+000000PRSWM2
0253476600999992000010800004+35700+139400FM-15+0098RJTC V0200301N000510075019N0112651N1+00901+00201999999ADDGA1021+006009999GA2071+007509999GA3081+010509999GF108991999999999999999999MA1101591999999MW1001REMMET127RJTC 0000Z 03001KT 9999 FEW020 BKN025 OVC035 09/02 Q1016 RMK 1CU020 6CU025 8SC035 A3003 FCST 0009 TEMPO 0309 FEW025CU SCT035SC;EQDQ01+000000PRSWM2
0214476600999992000010801004+35700+139400FM-15+0098RJTC V0200401N003110075019N0112651N1+00901+00101999999ADDGA1021+006009999GA2071+007509999GA3071+010509999GF107991999999999999999999MA1101591999999MW1001REMMET088RJTC 0100Z 04006KT 9999 FEW020 BKN025 BKN035 09/01 Q1016 RMK 1CU020 6CU025 7SC035 A3003;EQDQ01+000000PRSWM2
0214476600999992000010802004+35700+139400FM-15+0098RJTC V0200101N004110075019N0112651N1+00901+00101999999ADDGA1021+006009999GA2071+007509999GA3081+010509999GF108991999999999999999999MA1101591999999MW1001REMMET088RJTC 0200Z 01008KT 9999 FEW020 BKN025 OVC035 09/01 Q1016 RMK 1CU020 6CU025 8SC035 A3003;EQDQ01+000000PRSWM2
0230476600999992000010803004+35700+139400FM-15+0098RJTC V0200201N004110075019N0112651N1+00901+00101999999ADDGA1021+006009999GA2071+007509999GA3081+012009999GF108991999999999999999999MA1101591999999MW1001REMMET104RJTC 0300Z 02008KT 9999 FEW020 BKN025 OVC040 09/01 Q1016 RMK 1CU020 6CU025 8SC040 A3000 FCST 0312 NOSIG;EQDQ01+000000PRSWM2
0214476600999992000010804004+35700+139400FM-15+0098RJTC V0200301N003610075019N0112651N1+01001+00101999999ADDGA1021+006009999GA2071+007509999GA3081+012009999GF108991999999999999999999MA1101491999999MW1001REMMET088RJTC 0400Z 03007KT 9999 FEW020 BKN025 OVC040 10/01 Q1015 RMK 1CU020 6CU025 8SC040 A2998;EQDQ01+000000PRSWM2
0230476600999992000010806004+35700+139400FM-15+0098RJTC V0201001N001010600019N0112651N1+01101+00201999999ADDGA1021+012009999GA2021+036009999GA3071+060009999GF107991999999999999999999MA1101391999999MW1001REMMET104RJTC 0600Z 10002KT 9999 FEW040 SCT120 BKN200 11/02 Q1014 RMK 1SC040 4AC120 7CI200 A2997 FCST 0615 NOSIG;EQDQ01+000000PRSWM2
0214476600999992000010807004+35700+139400FM-15+0098RJTC V0200601N001510600019N0112651N1+01101+00201999999ADDGA1021+012009999GA2021+036009999GA3071+060009999GF107991999999999999999999MA1101491999999MW1001REMMET088RJTC 0700Z 06003KT 9999 FEW040 SCT120 BKN200 11/02 Q1015 RMK 1SC040 3AC120 7CI200 A2998;EQDQ01+000000PRSWM2
0200476600999992000010808004+35700+139400FM-15+0098RJTC V0200201N001010600019N0112651N1+00701+00301999999ADDGA1021+036009999GA2071+060009999GF107991999999999999999999MA1101491999999MW1001REMMET090RJTC 0800Z 02002KT 9999 FEW120 BKN200 07/03 Q1015 RMK 1AC120 7CI200 A2998 FCST 0817 NOSIG;EQDQ01+000000PRSWM2
0154476600999992000010822004+35700+139400FM-15+0098RJTC V0203001N000512200019N0112651N1+00001+00001999999ADDGA1021+060009999GF102991999999999999999999MA1102001999999MW1001REMMET060RJTC 2200Z 30001KT 9999 FEW200 00/00 Q1020 RMK 1CI200 A3015;EQDQ01+000000PRSWM2
0170476600999992000010823004+35700+139400FM-15+0098RJTC V0203001N001512200019N0112651N1+00201+00201999999ADDGA1021+060009999GF102991999999999999999999MA1102101999999MW1001REMMET076RJTC 2300Z 30003KT 9999 FEW200 02/02 Q1021 RMK 1CI200 A3016 FCST 2308 NOSIG;EQDQ01+000000PRSWM2
0200476600999992000010900004+35700+139400FM-15+0098RJTC V0203201N001510600019N0112651N1+00801+00301999999ADDGA1021+009009999GA2071+060009999GF107991999999999999999999MA1102101999999MW1001REMMET090RJTC 0000Z 32003KT 9999 FEW030 BKN200 08/03 Q1021 RMK 1SC030 5CI200 A3018 FCST 0009 NOSIG;EQDQ01+000000PRSWM2
0184476600999992000010901004+35700+139400FM-15+0098RJTC V0203401N001510600019N0112651N1+01101+00301999999ADDGA1021+009009999GA2071+060009999GF107991999999999999999999MA1102201999999MW1001REMMET074RJTC 0100Z 34003KT 9999 FEW030 BKN200 11/03 Q1022 RMK 1SC030 7CI200 A3020;EQDQ01+000000PRSWM2
0184476600999992000010902004+35700+139400FM-15+0098RJTC V0200201N001510600019N0112651N1+01201+00101999999ADDGA1021+009009999GA2071+060009999GF107991999999999999999999MA1102101999999MW1001REMMET074RJTC 0200Z 02003KT 9999 FEW030 BKN200 12/01 Q1021 RMK 2SC030 7CI200 A3018;EQDQ01+000000PRSWM2
0230476600999992000010903004+35700+139400FM-15+0098RJTC V0200601N001510600019N0112651N1+01201+00201999999ADDGA1021+010509999GA2021+030009999GA3071+060009999GF107991999999999999999999MA1102101999999MW1001REMMET104RJTC 0300Z 06003KT 9999 SCT035 SCT100 BKN200 12/02 Q1021 RMK 3SC035 3AC100 7CI200 A3015 FCST 0312 NOSIG;EQDQ01+000000PRSWM2
0214476600999992000010904004+35700+139400FM-15+0098RJTC V0200101N001010600019N0112651N1+01401+00101999999ADDGA1021+010509999GA2021+030009999GA3071+060009999GF107991999999999999999999MA1102001999999MW1001REMMET088RJTC 0400Z 01002KT 9999 SCT035 SCT100 BKN200 14/01 Q1020 RMK 3SC035 4AC100 7CI200 A3013;EQDQ01+000000PRSWM2
0214476600999992000010905004+35700+139400FM-15+0098RJTC V0200801N001510600019N0112651N1+01301+00101999999ADDGA1021+010509999GA2021+030009999GA3071+060009999GF107991999999999999999999MA1102001999999MW1001REMMET088RJTC 0500Z 08003KT 9999 SCT035 SCT100 BKN200 13/01 Q1020 RMK 3SC035 4AC100 7CI200 A3012;EQDQ01+000000PRSWM2
0200476600999992000010908004+35700+139400FM-15+0098RJTC V0200801N000510120019N0112651N1+01101+00301999999ADDGA1071+012009999GA2081+057009999GF108991999999999999999999MA1102101999999MW1001REMMET090RJTC 0800Z 08001KT 9999 BKN040 OVC190 11/03 Q1021 RMK 6SC040 8CS190 A3017 FCST 0817 NOSIG;EQDQ01+000000PRSWM2
0243476600999992000010922004+35700+139400FM-15+0098RJTC V0203201N001010090019N0020001N1+00801+00801999999ADDGA1021+004509999GA2071+009009999GA3081+013509999GF108991999999999999999999MA1101191999999MW1101MW2611REMMET095RJTC 2200Z 32002KT 2000 -RA BR SCT015 BKN030 OVC045 08/08 Q1012 RMK 3SC015 5SC030 8SC045 A2990;EQDQ01+000003PRSWM1Q02    003PRSWM1
0331476600999992000010923004+35700+139400FM-15+0098RJTC V0203301N002110090019N0020001N1+00801+00801999999ADDGA1021+002409999GA2071+009009999GA3081+013509999GF108991999999999999999999MA1101191999999MW1101MW2611REMMET183RJTC 2300Z 33004KT 2000 -RA BR FEW008 BKN030 OVC045 08/08 Q1012 RMK 1ST008 5SC030 8SC045 A2988 FCST 2308 TEMPO 2303 1800 FEW005ST BKN015SC OVC030SC BECMG 0406 3000 BECMG 0608 4000 BR;EQDQ01+000003PRSWM1Q02    003PRSWM1
0301476600999992000011000004+35700+139400FM-15+0098RJTC V0200101N004610045019N0020001N1+00701+00701999999ADDGA1071+004509999GA2081+013509999GF108991999999999999999999MA1101081999999MW1101MW2611REMMET169RJTC 0000Z 01009KT 2000 -RA BR BKN015 OVC045 07/07 Q1011 RMK 5SC015 8SC045 A2988 FCST 0009 BECMG 0203 3000 BECMG 0304 4000 BECMG 0405 5000 BR FEW015SC BKN020SC OVC030SC;EQDQ01+000003PRSWM1Q02    003PRSWM1
0205476600999992000011000174+35700+139400FM-16+0098RJTC V0200201N003110045019N0030001N1+00701+00701999999ADDGA1071+004509999GA2071+013509999GF107991999999999999999999MA1101081999999MW1101REMMET079RJTC 100017Z 02006KT 3000 BR BKN015 BKN045 07/07 Q1011 RMK 5SC015 7SC045 A2986;EQDQ01+000003PRSWM1Q02    003PRSWM1
0235476600999992000011000374+35700+139400FM-16+0098RJTC V0200201N003110630019N0040001N1+00801+00801999999ADDGA1021+004509999GA2021+013509999GA3071+063009999GF107991999999999999999999MA1101021999999MW1101REMMET093RJTC 100037Z 02006KT 4000 BR FEW015 SCT045 BKN210 08/08 Q1010 RMK 2SC015 3SC045 5CI210 A2984;EQDQ01+000003PRSWM1Q02    003PRSWM1
0207476600999992000011001004+35700+139400FM-15+0098RJTC V0200301N003112200019N0050001N1+00801+00701999999ADDGA1021+012009999GA2021+024009999GF104991999999999999999999MA1101021999999MW1101REMMET081RJTC 0100Z COR 03006KT 5000 BR FEW040 SCT080 08/07 Q1010 RMK 2SC040 4AC080 A2983;EQDQ01+000003PRSWM1Q02    003PRSWM1
0189476600999992000011002004+35700+139400FM-15+0098RJTC V0200101N003612200019N0112651N1+01101+00801999999ADDGA1021+012009999GA2021+024009999GF104991999999999999999999MA1100811999999MW1001REMMET079RJTC 0200Z 01007KT 9999 FEW040 SCT080 11/08 Q1008 RMK 1SC040 3AC080 A2978 P/FR;EQDQ01+000000PRSWM2
0170476600999992000011003004+35700+139400FM-15+0098RJTC V0200101N002612200019N0112651N1+01401+00901999999ADDGA1021+024009999GF102991999999999999999999MA1100711999999MW1001REMMET076RJTC 0300Z 01005KT 9999 FEW080 14/09 Q1007 RMK 1AC080 A2974 FCST 0312 NOSIG;EQDQ01+000000PRSWM2
0154476600999992000011004004+35700+139400FM-15+0098RJTC V0200301N002112200019N0112651N1+01601+00801999999ADDGA1021+024009999GF102991999999999999999999MA1100511999999MW1001REMMET060RJTC 0400Z 03004KT 9999 FEW080 16/08 Q1005 RMK 1AC080 A2970;EQDQ01+000000PRSWM2
0154476600999992000011005004+35700+139400FM-15+0098RJTC V0200501N003112200019N0112651N1+01701+00801999999ADDGA1021+024009999GF102991999999999999999999MA1100511999999MW1001REMMET060RJTC 0500Z 05006KT 9999 FEW080 17/08 Q1005 RMK 1AC080 A2970;EQDQ01+000000PRSWM2
0170476600999992000011006004+35700+139400FM-15+0098RJTC V0200601N002112200019N0112651N1+01801+00801999999ADDGA1021+009009999GF102991999999999999999999MA1100611999999MW1001REMMET076RJTC 0600Z 06004KT 9999 FEW030 18/08 Q1006 RMK 1CU030 A2971 FCST 0615 NOSIG;EQDQ01+000000PRSWM2
0154476600999992000011007004+35700+139400FM-15+0098RJTC V0203501N003612200019N0112651N1+01701+00701999999ADDGA1021+009009999GF102991999999999999999999MA1100611999999MW1001REMMET060RJTC 0700Z 35007KT 9999 FEW030 17/07 Q1006 RMK 1CU030 A2973;EQDQ01+000000PRSWM2
0170476600999992000011008004+35700+139400FM-15+0098RJTC V0200201N003112200019N0112651N1+01601+00501999999ADDGA1021+009009999GF102991999999999999999999MA1100711999999MW1001REMMET076RJTC 0800Z 02006KT 9999 FEW030 16/05 Q1007 RMK 1CU030 A2975 FCST 0817 NOSIG;EQDQ01+000000PRSWM2
0185476600999992000011022004+35700+139400FM-15+0098RJTC V0203601N006210120019N0112651N1+00701-00401999999ADDGA1071+012009999GA2071+024009999GF107991999999999999999999MA1101691999999MW1001REMMET075RJTC 2200Z 36012KT 9999 BKN040 BKN080 07/M04 Q1017 RMK 6SC040 7AC080 A3005;EQDQ01+000000PRSWM2
0195476600999992000011023004+35700+139400FM-15+0098RJTC V0203501N006212200019N0112651N1+00701-00501999999ADDGA1021+012009999GF104991999999999999999999MA1101801999999MW1001OC101131REMMET093RJTC 2300Z 35012G22KT 9999 SCT040 07/M05 Q1018 RMK 4SC040 A3007 FCST 2308 BECMG 0506 36010KT;EQDQ01+000000PRSWM2
0171476600999992000011100004+35700+139400FM-15+0098RJTC V0200201N004112200019N0112651N1+00701-00401999999ADDGA1021+012009999GF104991999999999999999999MA1101901999999MW1001REMMET077RJTC 0000Z 02008KT 9999 SCT040 07/M04 Q1019 RMK 4SC040 A3011 FCST 0009 NOSIG;EQDQ01+000000PRSWM2
0157476600999992000011100254+35700+139400FM-15+0098RJTC V0200101N004610120019N0112651N1+00801-00401999999ADDGA1071+012009999GF107991999999999999999999MA1102001999999MW1001REMMET063RJTC 110025Z 01009KT 9999 BKN040 08/M04 Q1020 RMK 5SC040 A3012;EQDQ01+000000PRSWM2
0155476600999992000011101004+35700+139400FM-15+0098RJTC V0200101N005710120019N0112651N1+00801-00301999999ADDGA1071+012009999GF107991999999999999999999MA1102001999999MW1001REMMET061RJTC 0100Z 01011KT 9999 BKN040 08/M03 Q1020 RMK 5SC040 A3013;EQDQ01+000000PRSWM2
0185476600999992000011102004+35700+139400FM-15+0098RJTC V0200201N005110120019N0112651N1+00901-00401999999ADDGA1021+009009999GA2071+012009999GF107991999999999999999999MA1102001999999MW1001REMMET075RJTC 0200Z 02010KT 9999 FEW030 BKN040 09/M04 Q1020 RMK 1CU030 5SC040 A3013;EQDQ01+000000PRSWM2
0187476600999992000011103004+35700+139400FM-15+0098RJTC V0200301N006712200019N0112651N1+01101-00401999999ADDGA1021+009009999GF102991999999999999999999MA1101901999999MW1001REMMET093RJTC 0300Z 03013KT 9999 FEW030 11/M04 Q1019 RMK 1CU030 A3010 FCST 0312 TEMPO 0308 03013G25KT;EQDQ01+000000PRSWM2
0155476600999992000011104004+35700+139400FM-15+0098RJTC V0200201N007212200019N0112651N1+01201-00501999999ADDGA1021+009009999GF102991999999999999999999MA1101801999999MW1001REMMET061RJTC 0400Z 02014KT 9999 FEW030 12/M05 Q1018 RMK 1CU030 A3009;EQDQ01+000000PRSWM2
0168476600999992000011104264+35700+139400FM-16+0098RJTC V0200301N006212200019N0112651N1+01201-00501999999ADDGA1021+009009999GF102991999999999999999999MA1101801999999MW1001OC101131REMMET066RJTC 110426Z 03012G22KT 9999 FEW030 12/M05 Q1018 RMK 1CU030 A3009;EQDQ01+000000PRSWM2
0166476600999992000011105004+35700+139400FM-15+0098RJTC V0200301N005712200019N0112651N1+01201-00501999999ADDGA1021+009009999GF102991999999999999999999MA1101901999999MW1001OC101081REMMET064RJTC 0500Z 03011G21KT 9999 FEW030 12/M05 Q1019 RMK 1CU030 A3009;EQDQ01+000000PRSWM2
0171476600999992000011106004+35700+139400FM-15+0098RJTC V0200201N006712200019N0112651N1+01101-00501999999ADDGA1021+030009999GF102991999999999999999999MA1101901999999MW1001REMMET077RJTC 0600Z 02013KT 9999 FEW100 11/M05 Q1019 RMK 1AC100 A3011 FCST 0615 NOSIG;EQDQ01+000000PRSWM2
0155476600999992000011107004+35700+139400FM-15+0098RJTC V0200201N007212200019N0112651N1+00901-00501999999ADDGA1021+030009999GF102991999999999999999999MA1102001999999MW1001REMMET061RJTC 0700Z 02014KT 9999 FEW100 09/M05 Q1020 RMK 1AC100 A3013;EQDQ01+000000PRSWM2
0171476600999992000011108004+35700+139400FM-15+0098RJTC V0200101N005712200019N0112651N1+00701-00601999999ADDGA1021+012009999GF102991999999999999999999MA1102101999999MW1001REMMET077RJTC 0800Z 01011KT 9999 FEW040 07/M06 Q1021 RMK 1SC040 A3017 FCST 0817 NOSIG;EQDQ01+000000PRSWM2
0155476600999992000011122004+35700+139400FM-15+0098RJTC V0203501N002610120019N0112651N1+00301-00501999999ADDGA1071+012009999GF107991999999999999999999MA1102511999999MW1001REMMET061RJTC 2200Z 35005KT 9999 BKN040 03/M05 Q1025 RMK 7SC040 A3028;EQDQ01+000000PRSWM2
0236476600999992000011123004+35700+139400FM-15+0098RJTC V0203601N002610120019N0112651N1+00301-00401999999ADDGA1021+010509999GA2071+012009999GF107991999999999999999999MA1102511999999MW1001REMMET126RJTC 2300Z 36005KT 9999 FEW035 BKN040 03/M04 Q1025 RMK 1SC035 7SC040 A3029 FCST 2308 TEMPO 0408 4500 -RA BR SCT020SC BKN030SC;EQDQ01+000000PRSWM2
0266476600999992000011200004+35700+139400FM-15+0098RJTC V0203601N002110120019N0112651N1+00401-00501999999ADDGA1021+010509999GA2071+012009999GA3081+060009999GF108991999999999999999999MA1102511999999MW1001REMMET140RJTC 0000Z 36004KT 9999 FEW035 BKN040 OVC200 04/M05 Q1025 RMK 1SC035 7SC040 8CI200 A3029 FCST 0009 TEMPO 0409 4500 -RA BR SCT020SC OVC030SC;EQDQ01+000000PRSWM2
0215476600999992000011201004+35700+139400FM-15+0098RJTC V0200101N001510120019N0112651N1+00501-00501999999ADDGA1021+010509999GA2071+012009999GA3071+024009999GF107991999999999999999999MA1102611999999MW1001REMMET089RJTC 0100Z 01003KT 9999 FEW035 BKN040 BKN080 05/M05 Q1026 RMK 1SC035 6SC040 7AC080 A3032;EQDQ01+000000PRSWM2
0215476600999992000011202004+35700+139400FM-15+0098RJTC V0203601N002610114019N0112651N1+00501-00501999999ADDGA1021+010509999GA2071+011409999GA3081+024009999GF108991999999999999999999MA1102511999999MW1001REMMET089RJTC 0200Z 36005KT 9999 FEW035 BKN038 OVC080 05/M05 Q1025 RMK 1SC035 7SC038 8AC080 A3029;EQDQ01+000000PRSWM2
0245476600999992000011202334+35700+139400FM-16+0098RJTC V0203601N002110114019N0112651N1+00501-00501999999ADDGA1021+010209999GA2071+011409999GA3081+024009999GF108991999999999999999999MA1102401999999MW1611MW2711REMMET097RJTC 120233Z 36004KT 9999 -RASN FEW034 BKN038 OVC080 05/M05 Q1024 RMK 1SC034 7SC038 8AS080 A3026;EQDQ01+000003PRSWM1Q02    003PRSWM1
0316476600999992000011203004+35700+139400FM-15+0098RJTC V0203401N002610099019N0112651N1+00501-00501999999ADDGA1021+009009999GA2071+009909999GA3081+024009999GF108991999999999999999999MA1102401999999MW1611MW2711REMMET168RJTC 0300Z 34005KT 9999 -RASN FEW030 BKN033 OVC080 05/M05 Q1024 RMK 2SC030 6SC033 8AS080 A3026 FCST 0312 BECMG 0305 FEW025SC BKN030SC OVC080AC TEMPO 0812 4500 -RASN BR;EQDQ01+000003PRSWM1Q02    003PRSWM1
0256476600999992000011203414+35700+139400FM-16+0098RJTC V0203201N001010120019N0040001N1+00401-00101999999ADDGA1021+009009999GA2071+012009999GA3081+024009999GF108991999999999999999999MA1102401999999MW1711REMMET098RJTC 120341Z 32002KT 4000 -SN BR SCT030 BKN040 OVC080 04/M01 Q1024 RMK 3SC030 7SC040 8AS080 A3025;EQDQ01+000100PRSWM3Q02+000003PRSWM1Q03    003PRSWM1
0244476600999992000011204004+35700+139400FM-15+0098RJTC V0203201N001010120019N0040001N1+00301-00101999999ADDGA1021+009009999GA2071+012009999GA3081+024009999GF108991999999999999999999MA1102401999999MW1101MW2711REMMET096RJTC 0400Z 32002KT 4000 -SN BR SCT030 BKN040 OVC080 03/M01 Q1024 RMK 3SC030 7SC040 8AS080 A3026;EQDQ01+000003PRSWM1Q02    003PRSWM1
0255476600999992000011204074+35700+139400FM-16+0098RJTC V0203301N001510120019N0030001N1+00301+00001999999ADDGA1021+009009999GA2071+012009999GA3081+024009999GF108991999999999999999999MA1102401999999MW1711REMMET097RJTC 120407Z 33003KT 3000 -SN BR SCT030 BKN040 OVC080 03/00 Q1024 RMK 4SC030 7SC040 8AS080 A3025;EQDQ01+000100PRSWM3Q02+000003PRSWM1Q03    003PRSWM1
0255476600999992000011205164+35700+139400FM-16+0098RJTC V0203401N001010135019N0026001N1+00201+00101999999ADDGA1021+006009999GA2021+009009999GA3081+013509999GF108991999999999999999999MA1102401999999MW1611REMMET097RJTC 120516Z 34002KT 2600 -RA BR FEW020 SCT030 OVC045 02/01 Q1024 RMK 2SC020 4SC030 8SC045 A3024;EQDQ01+000100PRSWM3Q02+000003PRSWM1Q03    003PRSWM1
0294476600999992000011206004+35700+139400FM-15+0098RJTC V0203301N001510090019N0035001N1+00201+00201999999ADDGA1021+006009999GA2071+009009999GA3081+013509999GF108991999999999999999999MA1102401999999MW1101MW2611REMMET146RJTC 0600Z 33003KT 3500 -RA BR FEW020 BKN030 OVC045 02/02 Q1024 RMK 2SC020 5SC030 8SC045 A3024 FCST 0615 BECMG 0812 5000 -RA BR FEW025SC BKN045SC;EQDQ01+000003PRSWM1Q02    003PRSWM1
0235476600999992000011207004+35700+139400FM-15+0098RJTC V0203501N001510090019N0035001N1+00301+00301999999ADDGA1021+006009999GA2071+009009999GA3081+013509999GF108991999999999999999999MA1102401999999MW1101MW2611MW3711REMMET097RJTC 0700Z 35003KT 3500 -RASN BR FEW020 BKN030 OVC045 03/03 Q1024 RMK 2SC020 5SC030 8SC045 A3025;EQDQ01+000003PRSWM1
0251476600999992000011208004+35700+139400FM-15+0098RJTC V0203301N002110090019N0035001N1+00201+00201999999ADDGA1021+006009999GA2071+009009999GA3081+013509999GF108991999999999999999999MA1102401999999MW1101MW2611MW3711REMMET113RJTC 0800Z 33004KT 3500 -RASN BR SCT020 BKN030 OVC045 02/02 Q1024 RMK 3SC020 5SC030 8SC045 A3025 FCST 0817 NOSIG;EQDQ01+000003PRSWM1
0234476600999992000011222004+35700+139400FM-15+0098RJTC V0203601N002110060019N0070001N1+00501+00501999999ADDGA1021+004509999GA2071+006009999GA3081+007509999GF108991999999999999999999MA1101191999999MW1611REMMET092RJTC 2200Z 36004KT 7000 -RA SCT015 BKN020 OVC025 05/05 Q1012 RMK 3SC015 7SC020 8SC025 A2991;EQDQ01+000003PRSWM1Q02    003PRSWM1
0255476600999992000011222424+35700+139400FM-16+0098RJTC V0200101N002110045019N0030001N1+00501+00501999999ADDGA1021+003009999GA2071+004509999GA3081+006009999GF108991999999999999999999MA1101191999999MW1611REMMET097RJTC 122242Z 01004KT 3000 -RA BR SCT010 BKN015 OVC020 05/05 Q1012 RMK 3ST010 6SC015 8SC020 A2991;EQDQ01+000100PRSWM3Q02+000003PRSWM1Q03    003PRSWM1
0315476600999992000011300004+35700+139400FM-15+0098RJTC V0203601N001510030019N0025001N1+00601+00601999999ADDGA1021+002409999GA2071+003009999GA3081+004509999GF108991999999999999999999MA1101191999999MW1101MW2511REMMET167RJTC 0000Z 36003KT 2500 -DZ BR SCT008 BKN010 OVC015 06/06 Q1012 RMK 3ST008 6SC010 8SC015 A2990 FCST 0009 BECMG 0001 3000 TEMPO 0106 4000 BR FEW010SC BKN020SC OVC025SC;EQDQ01+000003PRSWM1Q02    003PRSWM1
0216476600999992000011301294+35700+139400FM-16+0098RJTC V0203101N001510075019N0060001N1+00801+00801999999ADDGA1021+004509999GA2071+007509999GA3071+024009999GF107991999999999999999999MA1101021999999MW1001REMMET090RJTC 130129Z 31003KT 6000 FEW015 BKN025 BKN080 08/08 Q1010 RMK 2SC015 6SC025 7AC080 A2984;EQDQ01+000000PRSWM2
0214476600999992000011302004+35700+139400FM-15+0098RJTC V0202801N001510075019N0070001N1+01001+00901999999ADDGA1021+004509999GA2071+007509999GA3071+024009999GF107991999999999999999999MA1101021999999MW1001REMMET088RJTC 0200Z 28003KT 7000 FEW015 BKN025 BKN080 10/09 Q1010 RMK 1SC015 6SC025 7AC080 A2983;EQDQ01+000000PRSWM2
0214476600999992000011304004+35700+139400FM-15+0098RJTC V0200401N001010075019N0112651N1+01201+00901999999ADDGA1021+004509999GA2071+007509999GA3071+012009999GF107991999999999999999999MA1100711999999MW1001REMMET088RJTC 0400Z 04002KT 9999 FEW015 BKN025 BKN040 12/09 Q1007 RMK 1SC015 6SC025 7SC040 A2976;EQDQ01+000000PRSWM2
0214476600999992000011305004+35700+139400FM-15+0098RJTC V0200701N001010120019N0080001N1+01301+00901999999ADDGA1021+007509999GA2071+012009999GA3071+024009999GF107991999999999999999999MA1100611999999MW1001REMMET088RJTC 0500Z 07002KT 8000 SCT025 BKN040 BKN080 13/09 Q1006 RMK 4SC025 6SC040 7AC080 A2972;EQDQ01+000000PRSWM2
0294476600999992000011306004+35700+139400FM-15+0098RJTC V0201001N001010075019N0090001N1+01201+00901999999ADDGA1021+006009999GA2071+007509999GA3071+012009999GF107991999999999999999999MA1100611999999MW1611REMMET152RJTC 0600Z 10002KT 9000 -RA FEW020 BKN025 BKN040 12/09 Q1006 RMK 1SC020 5SC025 7SC040 A2971 FCST 0615 BECMG 0911 4500 -RA BR SCT010ST BKN015SC OVC025SC;EQDQ01+000003PRSWM1Q02    003PRSWM1
0255476600999992000011306054+35700+139400FM-16+0098RJTC V0201101N001510075019N0045001N1+01201+01001999999ADDGA1021+006009999GA2071+007509999GA3081+012009999GF108991999999999999999999MA1100611999999MW1611REMMET097RJTC 130605Z 11003KT 4500 -RA BR SCT020 BKN025 OVC040 12/10 Q1006 RMK 3SC020 6SC025 8SC040 A2971;EQDQ01+000100PRSWM3Q02+000003PRSWM1Q03    003PRSWM1
0255476600999992000011306354+35700+139400FM-16+0098RJTC V02099999999990060019N0030001N1+01101+01001999999ADDGA1021+000309999GA2021+003009999GA3071+006009999GF107991999999999999999999MA1100611999999MW1611REMMET097RJTC 130635Z VRB01KT 3000 -RA BR FEW001 SCT010 BKN020 11/10 Q1006 RMK 2ST001 3ST010 7SC020 A2971;EQDQ01+000100PRSWM3Q02+000003PRSWM1Q03    003PRSWM1
0243476600999992000011307004+35700+139400FM-15+0098RJTC V0200201N003110060019N0035001N1+01001+01001999999ADDGA1021+003009999GA2071+006009999GA3081+012009999GF108991999999999999999999MA1100511999999MW1101MW2611REMMET095RJTC 0700Z 02006KT 3500 -RA BR SCT010 BKN020 OVC040 10/10 Q1005 RMK 3ST010 6SC020 8SC040 A2970;EQDQ01+000003PRSWM1Q02    003PRSWM1
0255476600999992000011307224+35700+139400FM-16+0098RJTC V0203601N001510060019N0028001N1+01001+01001999999ADDGA1021+000309999GA2021+003009999GA3071+006009999GF107991999999999999999999MA1100611999999MW1611REMMET097RJTC 130722Z 36003KT 2800 -RA BR FEW001 SCT010 BKN020 10/10 Q1006 RMK 1ST001 3ST010 7SC020 A2971;EQDQ01+000100PRSWM3Q02+000003PRSWM1Q03    003PRSWM1
0255476600999992000011307384+35700+139400FM-16+0098RJTC V0200801N000510060019N0020001N1+01001+01001999999ADDGA1021+000309999GA2021+003009999GA3071+006009999GF107991999999999999999999MA1100511999999MW1611REMMET097RJTC 130738Z 08001KT 2000 -RA BR FEW001 SCT010 BKN020 10/10 Q1005 RMK 1ST001 4ST010 7SC020 A2970;EQDQ01+000100PRSWM3Q02+000003PRSWM1Q03    003PRSWM1
0272476600999992000011308004+35700+139400FM-15+0098RJTC V0200801N000510060019N0020001N1+01001+01001999999ADDGA1021+000309999GA2021+003009999GA3081+006009999GF108991999999999999999999MA1100511999999MW1101MW2611REMMET124RJTC 0800Z 08001KT 2000 -RA BR FEW001 SCT010 OVC020 10/10 Q1005 RMK 1ST001 4ST010 8SC020 A2969 FCST 0817 BECMG 1416 5000 BR;EQDQ01+000003PRSWM1Q02    003PRSWM1
0237476600999992000011322004+35700+139400FM-15+0098RJTC V0203501N002110015019N0015001N1+00801+00801999999ADDGA1021+000909999GA2071+001509999GA3081+006009999GF108991999999999999999999MA1100611999999MW1101REMMET095RJTC 2200Z COR 35004KT 1500 BR SCT003 BKN005 OVC020 08/08 Q1006 RMK 3ST003 6ST005 8SC020 A2971;EQDQ01+000003PRSWM1Q02    003PRSWM1
0324476600999992000011323004+35700+139400FM-15+0098RJTC V0200301N002110015019N0010001N1+00901+00901999999ADDED199U08009GA1021+000609999GA2071+001509999GA3071+007509999GF107991999999999999999999MA1100611999999MW1101REMMET171RJTC 2300Z 03004KT 1000 R01/0800 BR SCT002 BKN005 BKN025 09/09 Q1006 RMK 3ST002 6ST005 7SC025 A2973 FCST 2308 BECMG 0001 4000 BR FEW010ST BKN020SC BECMG 0103 NSW SCT020SC;EQDQ01+000003PRSWM1Q02    003PRSWM1
0188476600999992000011323274+35700+139400FM-16+0098RJTC V0200101N001010001519N0002001N1+00901+00901999999ADDED199U03009GA1091+000159999GF109991999999000251999999MA1100611999999MW1451REMMET067RJTC 132327Z 01002KT 0200 R01/0300D FG VV000 09/09 Q1006 RMK A2973;EQDQ01+000003PRSWM1Q02    003PRSWM1
0284476600999992000011400004+35700+139400FM-15+0098RJTC V0202701N001010009019N0007001N1+00901+00901999999ADDED199U06009GA1081+000909999GF108991999999999999999999MA1100611999999MW1441REMMET163RJTC 0000Z 27002KT 0700 R01/0600U FG OVC003 09/09 Q1006 RMK 8ST003 A2973 FCST 0009 BECMG 0001 1000 BR BECMG 0102 2500 BR FEW010ST BKN020SC BECMG 0203 NSW SCT020SC;EQDQ01+000003PRSWM1Q02    003PRSWM1
0194476600999992000011401004+35700+139400FM-15+0098RJTC V0202401N001010009019N0007001N1+01001+01001999999ADDED199U12009GA1081+000909999GF108991999999999999999999MA1100811999999MW1441REMMET073RJTC 0100Z 24002KT 0700 R01/1200U FG OVC003 10/10 Q1008 RMK 8ST003 A2978;EQDQ01+000003PRSWM1Q02    003PRSWM1
0228476600999992000011402004+35700+139400FM-15+0098RJTC V0200301N001510015019N0015001N1+01101+01001999999ADDED199U14009GA1021+000909999GA2071+001509999GF107991999999999999999999MA1100811999999MW1101REMMET091RJTC 0200Z COR 03003KT 1500 R01/1400U BR SCT003 BKN005 11/10 Q1008 RMK 3ST003 7ST005 A2977;EQDQ01+000003PRSWM1Q02    003PRSWM1
0196476600999992000011402294+35700+139400FM-16+0098RJTC V0201901N002112200019N0040001N1+01401+01101999999ADDED199U20009GA1021+001509999GF102991999999999999999999MA1100811999999MW1101REMMET075RJTC 140229Z 19004KT 4000 R01/P2000 BR FEW005 14/11 Q1008 RMK 2ST005 A2977;EQDQ01+000003PRSWM1Q02    003PRSWM1
0218476600999992000011403004+35700+139400FM-15+0098RJTC V0201301N000512200019N0050001N1+01501+01001999999ADDGA1021+004509999GF102991999999999999999999MA1100811999999MW1101REMMET108RJTC 0300Z 13001KT 5000 BR FEW015 15/10 Q1008 RMK 1CU015 A2977 FCST 0312 BECMG 0304 NSW TEMPO 0710 BKN040SC;EQDQ01+000003PRSWM1Q02    003PRSWM1
0154476600999992000011404004+35700+139400FM-15+0098RJTC V0200401N001012200019N0112651N1+01801+00801999999ADDGA1021+006009999GF102991999999999999999999MA1100711999999MW1001REMMET060RJTC 0400Z 04002KT 9999 FEW020 18/08 Q1007 RMK 1CU020 A2975;EQDQ01+000000PRSWM2
0154476600999992000011405004+35700+139400FM-15+0098RJTC V0200401N003612200019N0112651N1+01801+00401999999ADDGA1021+007509999GF102991999999999999999999MA1100711999999MW1001REMMET060RJTC 0500Z 04007KT 9999 FEW025 18/04 Q1007 RMK 1CU025 A2975;EQDQ01+000000PRSWM2
0184476600999992000011406004+35700+139400FM-15+0098RJTC V0200301N004112200019N0112651N1+01701+00101999999ADDGA1021+009009999GF102991999999999999999999MA1100811999999MW1001REMMET090RJTC 0600Z 03008KT 9999 FEW030 17/01 Q1008 RMK 1CU030 A2977 FCST 0615 TEMPO 0811 BKN040SC;EQDQ01+000000PRSWM2
0155476600999992000011407004+35700+139400FM-15+0098RJTC V0200301N003612200019N0112651N1+01601-00101999999ADDGA1021+009009999GF102991999999999999999999MA1100911999999MW1001REMMET061RJTC 0700Z 03007KT 9999 FEW030 16/M01 Q1009 RMK 1CU030 A2980;EQDQ01+000000PRSWM2
0185476600999992000011408004+35700+139400FM-15+0098RJTC V0200201N003612200019N0112651N1+01401-00101999999ADDGA1021+015009999GF104991999999999999999999MA1101021999999MW1001REMMET091RJTC 0800Z 02007KT 9999 SCT050 14/M01 Q1010 RMK 4SC050 A2983 FCST 0817 TEMPO 0812 BKN050SC;EQDQ01+000000PRSWM2
0154476600999992000011422004+35700+139400FM-15+0098RJTC V0200301N001512200019N0112651N1+00601+00201999999ADDGA1021+009009999GF102991999999999999999999MA1101691999999MW1001REMMET060RJTC 2200Z 03003KT 9999 FEW030 06/02 Q1017 RMK 2SC030 A3004;EQDQ01+000000PRSWM2
0200476600999992000011423004+35700+139400FM-15+0098RJTC V0203301N001512200019N0112651N1+00401+00201999999ADDGA1021+009009999GA2021+012009999GF104991999999999999999999MA1101801999999MW1001REMMET090RJTC 2300Z 33003KT 9999 FEW030 SCT040 04/02 Q1018 RMK 1SC030 3SC040 A3007 FCST 2308 NOSIG;EQDQ01+000000PRSWM2
0200476600999992000011500004+35700+139400FM-15+0098RJTC V0203101N000512200019N0112651N1+00701+00401999999ADDGA1021+007509999GA2021+009009999GF104991999999999999999999MA1101801999999MW1001REMMET090RJTC 0000Z 31001KT 9999 FEW025 SCT030 07/04 Q1018 RMK 1CU025 3CU030 A3009 FCST 0009 NOSIG;EQDQ01+000000PRSWM2
0184476600999992000011501004+35700+139400FM-15+0098RJTC V0200901N002112200019N0112651N1+01001+00401999999ADDGA1021+007509999GA2021+018009999GF104991999999999999999999MA1101901999999MW1001REMMET074RJTC 0100Z 09004KT 9999 FEW025 SCT060 10/04 Q1019 RMK 1CU025 4SC060 A3010;EQDQ01+000000PRSWM2
0184476600999992000011502004+35700+139400FM-15+0098RJTC V0200601N001512200019N0112651N1+01201+00301999999ADDGA1021+007509999GA2021+009009999GF104991999999999999999999MA1101801999999MW1001REMMET074RJTC 0200Z 06003KT 9999 FEW025 SCT030 12/03 Q1018 RMK 1CU025 3CU030 A3009;EQDQ01+000000PRSWM2
0200476600999992000011503004+35700+139400FM-15+0098RJTC V02099999999992200019N0112651N1+01201+00301999999ADDGA1021+009009999GA2021+018009999GF104991999999999999999999MA1101801999999MW1001REMMET090RJTC 0300Z VRB03KT 9999 FEW030 SCT060 12/03 Q1018 RMK 2CU030 3SC060 A3007 FCST 0312 NOSIG;EQDQ01+000000PRSWM2
0184476600999992000011504004+35700+139400FM-15+0098RJTC V0200301N002612200019N0112651N1+01301+00201999999ADDGA1021+009009999GA2021+024009999GF104991999999999999999999MA1101691999999MW1001REMMET074RJTC 0400Z 03005KT 9999 FEW030 SCT080 13/02 Q1017 RMK 2CU030 3AC080 A3005;EQDQ01+000000PRSWM2
0154476600999992000011505004+35700+139400FM-15+0098RJTC V0201001N002612200019N0112651N1+01301+00101999999ADDGA1021+009009999GF102991999999999999999999MA1101691999999MW1001REMMET060RJTC 0500Z 10005KT 9999 FEW030 13/01 Q1017 RMK 1CU030 A3005;EQDQ01+000000PRSWM2
0170476600999992000011506004+35700+139400FM-15+0098RJTC V0200701N002612200019N0112651N1+01301+00101999999ADDGA1021+009009999GF102991999999999999999999MA1101691999999MW1001REMMET076RJTC 0600Z 07005KT 9999 FEW030 13/01 Q1017 RMK 2CU030 A3005 FCST 0615 NOSIG;EQDQ01+000000PRSWM2
0184476600999992000011507004+35700+139400FM-15+0098RJTC V0201101N001512200019N0112651N1+01201+00101999999ADDGA1021+009009999GA2021+015009999GF104991999999999999999999MA1101801999999MW1001REMMET074RJTC 0700Z 11003KT 9999 FEW030 SCT050 12/01 Q1018 RMK 2CU030 4SC050 A3007;EQDQ01+000000PRSWM2
0214476600999992000011522004+35700+139400FM-15+0098RJTC V0200301N002110150019N0112651N1+00501+00001999999ADDGA1021+007509999GA2071+015009999GA3071+060009999GF107991999999999999999999MA1102201999999MW1001REMMET088RJTC 2200Z 03004KT 9999 FEW025 BKN050 BKN200 05/00 Q1022 RMK 1SC025 6SC050 7CI200 A3020;EQDQ01+000000PRSWM2
0209476600999992000011523004+35700+139400FM-15+0098RJTC V0200401N002610240019N0112651N1+00501+00001999999ADDGA1021+015009999GA2071+024009999GF107991999999999999999999MA1102301999999MW1001REMMET099RJTC 2300Z 04005KT 9999 FEW050 BKN080 05/00 Q1023 RMK 1SC050 7AC080 A3021 FCST 2308 TEMPO 0608 -RA;EQDQ01+000000PRSWM2
0210476600999992000011600004+35700+139400FM-15+0098RJTC V0200101N003610240019N0112651N1+00501-00101999999ADDGA1021+015009999GA2071+024009999GF107991999999999999999999MA1102301999999MW1001REMMET100RJTC 0000Z 01007KT 9999 FEW050 BKN080 05/M01 Q1023 RMK 1SC050 7AC080 A3022 FCST 0009 TEMPO 0609 -RA;EQDQ01+000000PRSWM2
0185476600999992000011601004+35700+139400FM-15+0098RJTC V0200101N003110240019N0112651N1+00601-00101999999ADDGA1021+015009999GA2071+024009999GF107991999999999999999999MA1102301999999MW1001REMMET075RJTC 0100Z 01006KT 9999 FEW050 BKN080 06/M01 Q1023 RMK 1SC050 7AC080 A3021;EQDQ01+000000PRSWM2
0185476600999992000011602004+35700+139400FM-15+0098RJTC V0200201N001510300019N0112651N1+00801-00101999999ADDGA1021+018009999GA2071+030009999GF107991999999999999999999MA1102201999999MW1001REMMET075RJTC 0200Z 02003KT 9999 FEW060 BKN100 08/M01 Q1022 RMK 1SC060 7AC100 A3019;EQDQ01+000000PRSWM2
0210476600999992000011603004+35700+139400FM-15+0098RJTC V0200301N002110600019N0112651N1+01101-00101999999ADDGA1021+030009999GA2071+060009999GF107991999999999999999999MA1102001999999MW1001REMMET100RJTC 0300Z 03004KT 9999 FEW100 BKN200 11/M01 Q1020 RMK 2AC100 7CI200 A3015 FCST 0312 TEMPO 1012 -RA;EQDQ01+000000PRSWM2
0215476600999992000011605004+35700+139400FM-15+0098RJTC V02099999999990600019N0112651N1+01101-00101999999ADDGA1021+018009999GA2021+030009999GA3071+060009999GF107991999999999999999999MA1101901999999MW1001REMMET089RJTC 0500Z VRB03KT 9999 FEW060 SCT100 BKN200 11/M01 Q1019 RMK 1SC060 3AC100 7CI200 A3009;EQDQ01+000000PRSWM2
0240476600999992000011606004+35700+139400FM-15+0098RJTC V0200701N001010300019N0112651N1+01001-00101999999ADDGA1021+012009999GA2071+030009999GA3081+060009999GF108991999999999999999999MA1101801999999MW1001REMMET114RJTC 0600Z 07002KT 9999 SCT040 BKN100 OVC200 10/M01 Q1018 RMK 3SC040 7AC100 8CI200 A3009 FCST 0615 TEMPO 1012 -RA;EQDQ01+000000PRSWM2
0215476600999992000011607004+35700+139400FM-15+0098RJTC V0200301N002110120019N0112651N1+00901-00101999999ADDGA1071+012009999GA2071+030009999GA3081+060009999GF108991999999999999999999MA1101801999999MW1001REMMET089RJTC 0700Z 03004KT 9999 BKN040 BKN100 OVC200 09/M01 Q1018 RMK 6SC040 7AC100 8CI200 A3007;EQDQ01+000000PRSWM2
0240476600999992000011608004+35700+139400FM-15+0098RJTC V0203601N002110120019N0112651N1+00901+00001999999ADDGA1071+012009999GA2071+030009999GA3081+060009999GF108991999999999999999999MA1101801999999MW1001REMMET114RJTC 0800Z 36004KT 9999 BKN040 BKN100 OVC200 09/M00 Q1018 RMK 6SC040 7AC100 8CI200 A3007 FCST 0817 TEMPO 1012 -RA;EQDQ01+000000PRSWM2
0243476600999992000011622004+35700+139400FM-15+0098RJTC V0200101N003610045019N0030001N1+00301+00201999999ADDGA1021+003009999GA2071+004509999GA3081+006009999GF108991999999999999999999MA1101491999999MW1101MW2611REMMET095RJTC 2200Z 01007KT 3000 -RA BR SCT010 BKN015 OVC020 03/02 Q1015 RMK 3ST010 6SC015 8SC020 A2999;EQDQ01+000003PRSWM1Q02    003PRSWM1
0310476600999992000011623004+35700+139400FM-15+0098RJTC V0203601N003610030019N0025001N1+00301+00201999999ADDGA1021+001809999GA2071+003009999GA3081+006009999GF108991999999999999999999MA1101591999999MW1101MW2611MW3711REMMET172RJTC 2300Z 36007KT 2500 -SNRA BR SCT006 BKN010 OVC020 03/02 Q1016 RMK 3ST006 6ST010 8SC020 A3001 FCST 2308 BECMG 0204 4000 -RA BR SCT010ST BKN020SC OVC025SC TEMPO 0608 NSW;EQDQ01+000003PRSWM1
0255476600999992000011702124+35700+139400FM-16+0098RJTC V0200101N003610030019N0050001N1+00401+00401999999ADDGA1021+001509999GA2071+003009999GA3071+007509999GF107991999999999999999999MA1101491999999MW1611REMMET097RJTC 170212Z 01007KT 5000 -RA BR SCT005 BKN010 BKN025 04/04 Q1015 RMK 3ST005 5ST010 7SC025 A2998;EQDQ01+000100PRSWM3Q02+000003PRSWM1Q03    003PRSWM1
0329476600999992000011703004+35700+139400FM-15+0098RJTC V0200201N001510045019N0112651N1+00401+00301999999ADDGA1021+003009999GA2071+004509999GA3071+007509999GF107991999999999999999999MA1101391999999MW1611REMMET187RJTC 0300Z 02003KT 9999 -RA SCT010 BKN015 BKN025 04/03 Q1014 RMK 3ST010 5SC015 6SC025 A2995 P/FR FCST 0312 BECMG 0406 NSW SCT012ST BKN020SC OVC100AC BECMG 0607 SCT025SC BKN040SC BKN100AC;EQDQ01+000003PRSWM1Q02    003PRSWM1
0241476600999992000011703314+35700+139400FM-16+0098RJTC V0203501N003610075019N0112651N1+00601+00401999999ADDGA1021+003009999GA2021+004509999GA3071+007509999GF107991999999999999999999MA1101291999999MW1611REMMET099RJTC 170331Z 35007KT 9999 -RA FEW010 SCT015 BKN025 06/04 Q1013 RMK 2ST010 3SC015 5SC025 A2992 P/FR;EQDQ01+000003PRSWM1Q02    003PRSWM1
0214476600999992000011704004+35700+139400FM-15+0098RJTC V0200201N003610090019N0112651N1+00601+00401999999ADDGA1021+003009999GA2021+004509999GA3071+009009999GF107991999999999999999999MA1101191999999MW1001REMMET088RJTC 0400Z 02007KT 9999 FEW010 SCT015 BKN030 06/04 Q1012 RMK 1ST010 3SC015 5SC030 A2991;EQDQ01+000000PRSWM2
0214476600999992000011705004+35700+139400FM-15+0098RJTC V0200301N003610090019N0112651N1+00701+00401999999ADDGA1021+004509999GA2071+009009999GA3071+013509999GF107991999999999999999999MA1101191999999MW1001REMMET088RJTC 0500Z 03007KT 9999 FEW015 BKN030 BKN045 07/04 Q1012 RMK 2SC015 5SC030 7SC045 A2989;EQDQ01+000000PRSWM2
0230476600999992000011706004+35700+139400FM-15+0098RJTC V0200101N003610120019N0112651N1+00701+00401999999ADDGA1021+004509999GA2021+009009999GA3071+012009999GF107991999999999999999999MA1101191999999MW1001REMMET104RJTC 0600Z 01007KT 9999 FEW015 SCT030 BKN040 07/04 Q1012 RMK 1SC015 4SC030 7SC040 A2988 FCST 0615 NOSIG;EQDQ01+000000PRSWM2
0214476600999992000011707004+35700+139400FM-15+0098RJTC V0203201N003110120019N0112651N1+00701+00501999999ADDGA1021+006009999GA2021+009009999GA3071+012009999GF107991999999999999999999MA1101191999999MW1001REMMET088RJTC 0700Z 32006KT 9999 FEW020 SCT030 BKN040 07/05 Q1012 RMK 1SC020 4SC030 7SC040 A2990;EQDQ01+000000PRSWM2
0154476600999992000011722004+35700+139400FM-15+0098RJTC V0209999C000012200019N0112651N1+00201+00201999999ADDGA1021+006009999GF102991999999999999999999MA1101081999999MW1001REMMET060RJTC 2200Z 00000KT 9999 FEW020 02/02 Q1011 RMK 1SC020 A2988;EQDQ01+000000PRSWM2
0170476600999992000011723004+35700+139400FM-15+0098RJTC V0202701N001512200019N0112651N1+00301+00301999999ADDGA1021+024009999GF102991999999999999999999MA1101191999999MW1001REMMET076RJTC 2300Z 27003KT 9999 FEW080 03/03 Q1012 RMK 1AC080 A2990 FCST 2308 NOSIG;EQDQ01+000000PRSWM2
0144476600999992000011800004+35700+139400FM-15+0098RJTC V0201501N001012200019N0112651N1+00801+00301999999ADDGF100991999999999999999999MA1101291999999MW1001REMMET066RJTC 0000Z 15002KT 9999 SKC 08/03 Q1013 RMK A2992 FCST 0009 NOSIG;EQDQ01+000000PRSWM2
0154476600999992000011801004+35700+139400FM-15+0098RJTC V0201701N001512200019N0112651N1+01101+00401999999ADDGA1021+015009999GF102991999999999999999999MA1101291999999MW1001REMMET060RJTC 0100Z 17003KT 9999 FEW050 11/04 Q1013 RMK 1SC050 A2992;EQDQ01+000000PRSWM2
0154476600999992000011802004+35700+139400FM-15+0098RJTC V0200801N001512200019N0112651N1+01201+00101999999ADDGA1021+009009999GF102991999999999999999999MA1101191999999MW1001REMMET060RJTC 0200Z 08003KT 9999 FEW030 12/01 Q1012 RMK 1CU030 A2990;EQDQ01+000000PRSWM2
0170476600999992000011803004+35700+139400FM-15+0098RJTC V0200801N003612200019N0112651N1+01301+00101999999ADDGA1021+009009999GF102991999999999999999999MA1101081999999MW1001REMMET076RJTC 0300Z 08007KT 9999 FEW030 13/01 Q1011 RMK 2CU030 A2986 FCST 0312 NOSIG;EQDQ01+000000PRSWM2
0185476600999992000011804004+35700+139400FM-15+0098RJTC V0200501N005112200019N0112651N1+01301-00101999999ADDGA1021+009009999GA2021+012009999GF104991999999999999999999MA1101021999999MW1001REMMET075RJTC 0400Z 05010KT 9999 FEW030 SCT040 13/M01 Q1010 RMK 1CU030 3CU040 A2983;EQDQ01+000000PRSWM2
0185476600999992000011805004+35700+139400FM-15+0098RJTC V0200501N004110105019N0112651N1+01201-00201999999ADDGA1021+009009999GA2071+010509999GF107991999999999999999999MA1101021999999MW1001REMMET075RJTC 0500Z 05008KT 9999 FEW030 BKN035 12/M02 Q1010 RMK 1CU030 5CU035 A2983;EQDQ01+000000PRSWM2
0263476600999992000011806004+35700+139400FM-15+0098RJTC V0200601N002610150019N0112651N1+01201-00101999999ADDGA1021+009009999GA2021+010509999GA3071+015009999GF107991999999999999999999MA1101021999999MW1001REMMET137RJTC 0600Z 06005KT 9999 FEW030 SCT035 BKN050 12/M01 Q1010 RMK 1CU030 3CU035 5SC050 A2984 FCST 0615 TEMPO 0610 FEW030CU BKN035CU BKN050SC;EQDQ01+000000PRSWM2
0215476600999992000011807004+35700+139400FM-15+0098RJTC V0200301N002610150019N0112651N1+01101-00101999999ADDGA1021+009009999GA2021+010509999GA3071+015009999GF107991999999999999999999MA1101021999999MW1001REMMET089RJTC 0700Z 03005KT 9999 FEW030 SCT035 BKN050 11/M01 Q1010 RMK 1CU030 3CU035 6SC050 A2985;EQDQ01+000000PRSWM2
0231476600999992000011808004+35700+139400FM-15+0098RJTC V0200201N002610150019N0112651N1+01101-00201999999ADDGA1021+009009999GA2021+010509999GA3071+015009999GF107991999999999999999999MA1101081999999MW1001REMMET105RJTC 0800Z 02005KT 9999 FEW030 SCT035 BKN050 11/M02 Q1011 RMK 1CU030 3CU035 6SC050 A2987 FCST 0817 NOSIG;EQDQ01+000000PRSWM2
0184476600999992000011815004+35700+139400FM-15+0098RJTC V0200901N001510300019N0112651N1+00701+00101999999ADDGA1021+012009999GA2071+030009999GF107991999999999999999999MA1101391999999MW1001REMMET074RJTC 1500Z 09003KT 9999 FEW040 BKN100 07/01 Q1014 RMK 2SC040 7AC100 A2996;EQDQ01+000000PRSWM2
0205476600999992000011822004+35700+139400FM-15+0098RJTC V0201401N001010120019N0112651N1+00501-00101999999ADDGA1021+009009999GA2071+012009999GF107991999999999999999999MA1101491999999MW1611REMMET079RJTC 2200Z 14002KT 9999 -RA FEW030 BKN040 05/M01 Q1015 RMK 2SC030 7SC040 A2997;EQDQ01+000003PRSWM1Q02    003PRSWM1
0313476600999992000011823004+35700+139400FM-15+0098RJTC V0203301N001010105019N0112651N1+00501-00101999999ADDGA1021+009009999GA2071+010509999GF107991999999999999999999MA1101491999999MW1611REMMET187RJTC 2300Z 33002KT 9999 -RA FEW030 BKN035 05/M01 Q1015 RMK 2SC030 7SC035 A2998 FCST 2308 BECMG 2300 NSW TEMPO 0507 -RA FEW020SC BKN030SC TEMPO 0708 4000 -RA BR FEW010ST BKN015ST OVC020SC;EQDQ01+000003PRSWM1Q02    003PRSWM1
0290476600999992000011900004+35700+139400FM-15+0098RJTC V0202901N000510075019N0112651N1+00601-00101999999ADDGA1021+006009999GA2071+007509999GA3081+012009999GF108991999999999999999999MA1101491999999MW1001REMMET164RJTC 0000Z 29001KT 9999 FEW020 BKN025 OVC040 06/M01 Q1015 RMK 1SC020 6SC025 8SC040 A2999 FCST 0009 TEMPO 0507 -RA TEMPO 0709 4000 -RA BR FEW010ST BKN015SC OVC020SC;EQDQ01+000000PRSWM2
0237476600999992000011900454+35700+139400FM-15+0098RJTC V02099999999990075019N0112651N1+00601+00001999999ADDGA1021+006009999GA2071+007509999GA3081+012009999GF108991999999999999999999MA1101491999999MW1611REMMET095RJTC 190045Z VRB01KT 9999 -RA FEW020 BKN025 OVC040 06/M00 Q1015 RMK 1SC020 6SC025 8SC040 A3000;EQDQ01+000003PRSWM1Q02    003PRSWM1
0234476600999992000011901004+35700+139400FM-15+0098RJTC V0200401N001510075019N0112651N1+00601+00001999999ADDGA1021+006009999GA2071+007509999GA3071+012009999GF107991999999999999999999MA1101491999999MW1611REMMET092RJTC 0100Z 04003KT 9999 -RA FEW020 BKN025 BKN040 06/00 Q1015 RMK 1SC020 6SC025 7SC040 A3000;EQDQ01+000003PRSWM1Q02    003PRSWM1
0217476600999992000011901254+35700+139400FM-15+0098RJTC V02099999999990075019N0112651N1+00601+00001999999ADDGA1021+006009999GA2071+007509999GA3081+012009999GF108991999999999999999999MA1101491999999MW1001REMMET091RJTC 190125Z VRB02KT 9999 FEW020 BKN025 OVC040 06/M00 Q1015 RMK 2SC020 6SC025 8SC040 A3000;EQDQ01+000000PRSWM2
0215476600999992000011902004+35700+139400FM-15+0098RJTC V02099999999990075019N0112651N1+00601+00001999999ADDGA1021+006009999GA2071+007509999GA3081+012009999GF108991999999999999999999MA1101491999999MW1001REMMET089RJTC 0200Z VRB03KT 9999 FEW020 BKN025 OVC040 06/M00 Q1015 RMK 2SC020 6SC025 8SC040 A2998;EQDQ01+000000PRSWM2
0339476600999992000011903004+35700+139400FM-15+0098RJTC V0201501N001510075019N0112651N1+00701+00001999999ADDGA1021+006009999GA2071+007509999GA3081+012009999GF108991999999999999999999MA1101391999999MW1001REMMET213RJTC 0300Z 15003KT 9999 FEW020 BKN025 OVC040 07/00 Q1014 RMK 1SC020 6SC025 8SC040 A2995 FCST 0312 TEMPO 0507 -RA TEMPO 0710 4000 -RA BR FEW010ST BKN015SC OVC020SC BECMG 1012 4000 -RA BR FEW010ST BKN015SC OVC020SC;EQDQ01+000000PRSWM2
0214476600999992000011904004+35700+139400FM-15+0098RJTC V0201001N001510075019N0080001N1+00801+00101999999ADDGA1021+006009999GA2071+007509999GA3081+012009999GF108991999999999999999999MA1101291999999MW1001REMMET088RJTC 0400Z 10003KT 8000 FEW020 BKN025 OVC040 08/01 Q1013 RMK 1SC020 6SC025 8SC040 A2992;EQDQ01+000000PRSWM2
0214476600999992000011905004+35700+139400FM-15+0098RJTC V0201401N003110075019N0060001N1+00701+00201999999ADDGA1021+006009999GA2071+007509999GA3071+012009999GF107991999999999999999999MA1101191999999MW1001REMMET088RJTC 0500Z 14006KT 6000 FEW020 BKN025 BKN040 07/02 Q1012 RMK 1SC020 5SC025 7SC040 A2991;EQDQ01+000000PRSWM2
0327476600999992000011906004+35700+139400FM-15+0098RJTC V0201301N002110075019N0090001N1+00701+00301999999ADDGA1021+006009999GA2071+007509999GA3071+012009999GF107991999999999999999999MA1101191999999MW1001REMMET201RJTC 0600Z 13004KT 9000 FEW020 BKN025 BKN040 07/03 Q1012 RMK 1SC020 6SC025 7SC040 A2991 FCST 0615 TEMPO 0608 -RA TEMPO 0810 4000 -RA BR FEW010ST BKN015SC OVC020SC BECMG 1012 FEW010ST BKN015SC OVC020SC;EQDQ01+000000PRSWM2
0214476600999992000011907004+35700+139400FM-15+0098RJTC V0201301N001010075019N0080001N1+00601+00301999999ADDGA1021+006009999GA2071+007509999GA3081+012009999GF108991999999999999999999MA1101191999999MW1001REMMET088RJTC 0700Z 13002KT 8000 FEW020 BKN025 OVC040 06/03 Q1012 RMK 1SC020 7SC025 8SC040 A2990;EQDQ01+000000PRSWM2
0258476600999992000011908004+35700+139400FM-15+0098RJTC V0200801N001010060019N0045001N1+00601+00301999999ADDGA1021+004509999GA2071+006009999GA3081+009009999GF108991999999999999999999MA1101191999999MW1101REMMET116RJTC 0800Z 08002KT 4500 BR FEW015 BKN020 OVC030 06/03 Q1012 RMK 1SC015 6SC020 8SC030 A2990 FCST 0817 TEMPO 0812 -RA;EQDQ01+000003PRSWM1Q02    003PRSWM1
0156476600999992000011922004+35700+139400FM-15+0098RJTC V0209999C000012200019N0112651N1+00001-00101999999ADDGA1021+015009999GF102991999999999999999999MA1100811999999MW1001REMMET062RJTC 2200Z 00000KT 9999 FEW050 M00/M01 Q1008 RMK 1SC050 A2978;EQDQ01+000000PRSWM2
0160476600999992000011923004+35700+139400FM-15+0098RJTC V0202301N001012200019N0112651N1+00101+00101999999ADDGF100991999999999999999999MA1100911999999MW1001REMMET082RJTC 2300Z 23002KT 9999 SKC 01/01 Q1009 RMK A2980 FCST 2308 TEMPO 0408 35012G22KT;EQDQ01+000000PRSWM2
0168476600999992000012000004+35700+139400FM-15+0098RJTC V0203001N001012200019N0112651N1+00701+00101999999ADDGF100991999999999999999999MA1100911999999MW1001REMMET090RJTC 0000Z COR 30002KT 9999 SKC 07/01 Q1009 RMK A2980 FCST COR 0009 TEMPO 0409 35012G22KT;EQDQ01+000000PRSWM2
0128476600999992000012001004+35700+139400FM-15+0098RJTC V0201501N001012200019N0112651N1+01001+00201999999ADDGF100991999999999999999999MA1100911999999MW1001REMMET050RJTC 0100Z 15002KT 9999 SKC 10/02 Q1009 RMK A2980;EQDQ01+000000PRSWM2
0154476600999992000012002004+35700+139400FM-15+0098RJTC V0201101N003112200019N0112651N1+01201+00201999999ADDGA1021+006009999GF102991999999999999999999MA1100811999999MW1001REMMET060RJTC 0200Z 11006KT 9999 FEW020 12/02 Q1008 RMK 1CU020 A2978;EQDQ01+000000PRSWM2
0186476600999992000012003004+35700+139400FM-15+0098RJTC V0201101N002112200019N0112651N1+01301+00001999999ADDGA1021+007509999GF102991999999999999999999MA1100711999999MW1001REMMET092RJTC 0300Z 11004KT 9999 FEW025 13/00 Q1007 RMK 1CU025 A2976 FCST 0312 TEMPO 0509 35012G22KT;EQDQ01+000000PRSWM2
0155476600999992000012004004+35700+139400FM-15+0098RJTC V0201601N001512200019N0112651N1+01301-00101999999ADDGA1021+007509999GF102991999999999999999999MA1100611999999MW1001REMMET061RJTC 0400Z 16003KT 9999 FEW025 13/M01 Q1006 RMK 1CU025 A2973;EQDQ01+000000PRSWM2
0155476600999992000012005004+35700+139400FM-15+0098RJTC V0201601N000512200019N0112651N1+01301-00401999999ADDGA1021+009009999GF104991999999999999999999MA1100611999999MW1001REMMET061RJTC 0500Z 16001KT 9999 SCT030 13/M04 Q1006 RMK 3CU030 A2972;EQDQ01+000000PRSWM2
0187476600999992000012006004+35700+139400FM-15+0098RJTC V0200701N003612200019N0112651N1+01201-00301999999ADDGA1021+009009999GF104991999999999999999999MA1100611999999MW1001REMMET093RJTC 0600Z 07007KT 9999 SCT030 12/M03 Q1006 RMK 3CU030 A2972 FCST 0615 TEMPO 0812 33012G22KT;EQDQ01+000000PRSWM2
0182476600999992000012007004+35700+139400FM-15+0098RJTC V0200801N003612200019N0112651N1+01201-00501999999ADDGA1021+009009999GF104991999999999999999999MA1100611999999MW1001REMMET088RJTC 0700Z 08007KT 9999 SCT030 12/M05 Q1006 RMK 4CU030 A2973 VIRGA ABT 5KM NW-NE MOV SE;EQDQ01+000000PRSWM2
0207476600999992000012008004+35700+139400FM-15+0098RJTC V0203201N002612200019N0112651N1+01001-01101999999ADDGA1021+009009999GF104991999999999999999999MA1100711999999MW1001REMMET113RJTC 0800Z 32005KT 9999 SCT030 10/M11 Q1007 RMK 3CU030 A2976 FCST 0817 TEMPO 0812 BKN030CU TEMPO 1217 33012G22KT;EQDQ01+000000PRSWM2
0155476600999992000012022004+35700+139400FM-15+0098RJTC V0203601N003612200019N0112651N1+00101-01101999999ADDGA1021+009009999GF102991999999999999999999MA1101691999999MW1001REMMET061RJTC 2200Z 36007KT 9999 FEW030 01/M11 Q1017 RMK 1CU030 A3006;EQDQ01+000000PRSWM2
0237476600999992000012023004+35700+139400FM-15+0098RJTC V0203601N006212200019N0112651N1+00201-01101999999ADDGA1021+009009999GA2021+060009999GF104991999999999999999999MA1101901999999MW1001REMMET127RJTC 2300Z 36012KT 9999 SCT030 SCT200 02/M11 Q1019 RMK 3CU030 3CI200 A3009 FCST 2308 TEMPO 0008 35014G28KT TEMPO 0708 BKN030CU;EQDQ01+000000PRSWM2
0207476600999992000012100004+35700+139400FM-15+0098RJTC V0203601N005112200019N0112651N1+00401-01201999999ADDGA1021+009009999GF102991999999999999999999MA1102001999999MW1001REMMET113RJTC 0000Z 36010KT 9999 FEW030 04/M12 Q1020 RMK 2CU030 A3012 FCST 0009 TEMPO 0008 35014G28KT TEMPO 0709 BKN030CU;EQDQ01+000000PRSWM2
0155476600999992000012101004+35700+139400FM-15+0098RJTC V0203601N005112200019N0112651N1+00501-01201999999ADDGA1021+009009999GF102991999999999999999999MA1102001999999MW1001REMMET061RJTC 0100Z 36010KT 9999 FEW030 05/M12 Q1020 RMK 2CU030 A3013;EQDQ01+000000PRSWM2
0168476600999992000012101324+35700+139400FM-16+0098RJTC V0203601N006712200019N0112651N1+00601-01401999999ADDGA1021+009009999GF102991999999999999999999MA1102001999999MW1001OC101231REMMET066RJTC 210132Z 36013G24KT 9999 FEW030 06/M14 Q1020 RMK 2CU030 A3013;EQDQ01+000000PRSWM2
0155476600999992000012102004+35700+139400FM-15+0098RJTC V0203601N007712200019N0112651N1+00601-01401999999ADDGA1021+009009999GF102991999999999999999999MA1102001999999MW1001REMMET061RJTC 0200Z 36015KT 9999 FEW030 06/M14 Q1020 RMK 2CU030 A3012;EQDQ01+000000PRSWM2
0168476600999992000012102324+35700+139400FM-16+0098RJTC V0203601N007712200019N0112651N1+00701-01401999999ADDGA1021+009009999GF102991999999999999999999MA1101901999999MW1001OC101341REMMET066RJTC 210232Z 36015G26KT 9999 FEW030 07/M14 Q1019 RMK 2CU030 A3011;EQDQ01+000000PRSWM2
0182476600999992000012103004+35700+139400FM-15+0098RJTC V0203601N006712200019N0112651N1+00701-01401999999ADDGA1021+009009999GF102991999999999999999999MA1101901999999MW1001OC101291REMMET080RJTC 0300Z 36013G25KT 9999 FEW030 07/M14 Q1019 RMK 2CU030 A3009 FCST 0312 NOSIG;EQDQ01+000000PRSWM2
0155476600999992000012104004+35700+139400FM-15+0098RJTC V0203601N007212200019N0112651N1+00601-01401999999ADDGA1021+009009999GF102991999999999999999999MA1101801999999MW1001REMMET061RJTC 0400Z 36014KT 9999 FEW030 06/M14 Q1018 RMK 2CU030 A3007;EQDQ01+000000PRSWM2
0168476600999992000012104154+35700+139400FM-16+0098RJTC V0203601N008212200019N0112651N1+00701-01401999999ADDGA1021+009009999GF104991999999999999999999MA1101801999999MW1001OC101391REMMET066RJTC 210415Z 36016G27KT 9999 SCT030 07/M14 Q1018 RMK 3CU030 A3009;EQDQ01+000000PRSWM2
0166476600999992000012105004+35700+139400FM-15+0098RJTC V0203601N008712200019N0112651N1+00601-01401999999ADDGA1021+010509999GF104991999999999999999999MA1101901999999MW1001OC101441REMMET064RJTC 0500Z 36017G28KT 9999 SCT035 06/M14 Q1019 RMK 3CU035 A3010;EQDQ01+000000PRSWM2
0196476600999992000012106004+35700+139400FM-15+0098RJTC V0203601N007712200019N0112651N1+00601-01501999999ADDGA1021+010509999GF104991999999999999999999MA1102001999999MW1001OC101391REMMET094RJTC 0600Z 36015G27KT 9999 SCT035 06/M15 Q1020 RMK 3CU035 A3012 FCST 0615 TEMPO 0711 BKN030CU;EQDQ01+000000PRSWM2
0171476600999992000012107004+35700+139400FM-15+0098RJTC V0203601N008212200019N0112651N1+00501-01601999999ADDGA1021+010509999GF102991999999999999999999MA1102101999999MW1001OC101441REMMET069RJTC 0700Z 36016G28KT 9999 FEW035 05/M16 Q1021 RMK 1CU035 A3017 P/RR;EQDQ01+000000PRSWM2
0195476600999992000012108004+35700+139400FM-15+0098RJTC V0203601N007212200019N0112651N1+00301-01701999999ADDGA1021+009009999GF102991999999999999999999MA1102201999999MW1001OC101441REMMET093RJTC 0800Z 36014G28KT 9999 FEW030 03/M17 Q1022 RMK 1CU030 A3019 FCST 0817 TEMPO 1012 35010KT;EQDQ01+000000PRSWM2
0156476600999992000012122004+35700+139400FM-15+0098RJTC V02099999999992200019N0112651N1-00501-01101999999ADDGA1021+060009999GF102991999999999999999999MA1102911999999MW1001REMMET062RJTC 2200Z VRB02KT 9999 FEW200 M05/M11 Q1029 RMK 1CI200 A3040;EQDQ01+000000PRSWM2
0172476600999992000012123004+35700+139400FM-15+0098RJTC V0203101N002112200019N0112651N1-00201-01101999999ADDGA1021+009009999GF102991999999999999999999MA1103011999999MW1001REMMET078RJTC 2300Z 31004KT 9999 FEW030 M02/M11 Q1030 RMK 1CU030 A3043 FCST 2308 NOSIG;EQDQ01+000000PRSWM2
0171476600999992000012200004+35700+139400FM-15+0098RJTC V0202901N001512200019N0112651N1+00401-01101999999ADDGA1021+009009999GF102991999999999999999999MA1103121999999MW1001REMMET077RJTC 0000Z 29003KT 9999 FEW030 04/M11 Q1031 RMK 1CU030 A3045 FCST 0009 NOSIG;EQDQ01+000000PRSWM2
0185476600999992000012201004+35700+139400FM-15+0098RJTC V02099999999990600019N0112651N1+00701-01201999999ADDGA1021+009009999GA2071+060009999GF107991999999999999999999MA1103121999999MW1001REMMET075RJTC 0100Z VRB02KT 9999 FEW030 BKN200 07/M12 Q1031 RMK 1CU030 5CI200 A3046;EQDQ01+000000PRSWM2
0155476600999992000012202004+35700+139400FM-15+0098RJTC V02099999999992200019N0112651N1+00901-01201999999ADDGA1021+060009999GF102991999999999999999999MA1103121999999MW1001REMMET061RJTC 0200Z VRB03KT 9999 FEW200 09/M12 Q1031 RMK 2CI200 A3046;EQDQ01+000000PRSWM2
0194476600999992000012203004+35700+139400FM-15+0098RJTC V02099999999992200019N0112651N1+00901-01301999999ADDGA1021+060009999GF104991999999999999999999MA1103011999999MW1001REMMET100RJTC 0300Z VRB03KT 9999 SCT200 09/M13 Q1030 RMK 3CI200 A3042 FCST 0312 TEMPO 0912 SCT030CU BKN100AC;EQDQ01+000000PRSWM2
0155476600999992000012204004+35700+139400FM-15+0098RJTC V0201801N001512200019N0112651N1+01001-01301999999ADDGA1021+060009999GF104991999999999999999999MA1102911999999MW1001REMMET061RJTC 0400Z 18003KT 9999 SCT200 10/M13 Q1029 RMK 3CI200 A3039;EQDQ01+000000PRSWM2
0155476600999992000012205004+35700+139400FM-15+0098RJTC V0201201N002612200019N0112651N1+01001-01301999999ADDGA1021+060009999GF102991999999999999999999MA1102811999999MW1001REMMET061RJTC 0500Z 12005KT 9999 FEW200 10/M13 Q1028 RMK 2CI200 A3037;EQDQ01+000000PRSWM2
0223476600999992000012206004+35700+139400FM-15+0098RJTC V0201401N002112200019N0112651N1+00901-01101999999ADDGA1021+060009999GF104991999999999999999999MA1102811999999MW1001REMMET129RJTC 0600Z 14004KT 9999 SCT200 09/M11 Q1028 RMK 3CI200 A3037 FCST 0615 TEMPO 0911 SCT030CU BKN100AC BECMG 1112 SCT030CU BKN100AC;EQDQ01+000000PRSWM2
0155476600999992000012207004+35700+139400FM-15+0098RJTC V0201601N003610600019N0112651N1+00801-00501999999ADDGA1071+060009999GF107991999999999999999999MA1102811999999MW1001REMMET061RJTC 0700Z 16007KT 9999 BKN200 08/M05 Q1028 RMK 5CI200 A3038;EQDQ01+000000PRSWM2
0253476600999992000012208004+35700+139400FM-15+0098RJTC V0201701N004110600019N0112651N1+00701-00401999999ADDGA1021+030009999GA2071+060009999GF107991999999999999999999MA1102911999999MW1001REMMET143RJTC 0800Z 17008KT 9999 FEW100 BKN200 07/M04 Q1029 RMK 1AC100 5CI200 A3039 FCST 0817 TEMPO 0911 SCT030CU BKN100AC BECMG 1112 SCT030CU BKN100AC;EQDQ01+000000PRSWM2
0156476600999992000012222004+35700+139400FM-15+0098RJTC V02099999999992200019N0112651N1-00301-00401999999ADDGA1021+012009999GF102991999999999999999999MA1102511999999MW1001REMMET062RJTC 2200Z VRB01KT 9999 FEW040 M03/M04 Q1025 RMK 1SC040 A3029;EQDQ01+000000PRSWM2
0228476600999992000012223004+35700+139400FM-15+0098RJTC V0200401N000512200019N0112651N1-00101-00401999999ADDGA1021+009009999GF102991999999999999999999MA1102511999999MW1001REMMET134RJTC 2300Z 04001KT 9999 FEW030 M01/M04 Q1025 RMK 1CU030 A3028 FCST 2308 BECMG 0406 SCT030SC BKN100AC TEMPO 0608 -RA BKN030SC OVC100AC;EQDQ01+000000PRSWM2
0227476600999992000012300004+35700+139400FM-15+0098RJTC V02099999999992200019N0112651N1+00501-00401999999ADDGA1021+009009999GF102991999999999999999999MA1102511999999MW1001REMMET133RJTC 0000Z VRB01KT 9999 FEW030 05/M04 Q1025 RMK 1CU030 A3027 FCST 0009 BECMG 0406 SCT030SC BKN100AC TEMPO 0609 -RA BKN030SC OVC100AC;EQDQ01+000000PRSWM2
0155476600999992000012301004+35700+139400FM-15+0098RJTC V0200701N001512200019N0112651N1+00801-00401999999ADDGA1021+009009999GF102991999999999999999999MA1102401999999MW1001REMMET061RJTC 0100Z 07003KT 9999 FEW030 08/M04 Q1024 RMK 1CU030 A3026;EQDQ01+000000PRSWM2
0155476600999992000012302004+35700+139400FM-15+0098RJTC V0200501N001512200019N0112651N1+00901-00401999999ADDGA1021+009009999GF102991999999999999999999MA1102301999999MW1001REMMET061RJTC 0200Z 05003KT 9999 FEW030 09/M04 Q1023 RMK 1CU030 A3023;EQDQ01+000000PRSWM2
0236476600999992000012303004+35700+139400FM-15+0098RJTC V0200101N001012200019N0112651N1+01101-00201999999ADDGA1021+009009999GF102991999999999999999999MA1102201999999MW1001REMMET142RJTC 0300Z 01002KT 9999 FEW030 11/M02 Q1022 RMK 1CU030 A3019 FCST 0312 BECMG 0608 SCT030CU BKN100AC BKN200CI TEMPO 0812 -RA BKN025SC OVC080AC;EQDQ01+000000PRSWM2
0185476600999992000012304004+35700+139400FM-15+0098RJTC V02099999999990600019N0112651N1+01301-00101999999ADDGA1021+009009999GA2071+060009999GF107991999999999999999999MA1102001999999MW1001REMMET075RJTC 0400Z VRB02KT 9999 FEW030 BKN200 13/M01 Q1020 RMK 1CU030 6CI200 A3015;EQDQ01+000000PRSWM2
0185476600999992000012305004+35700+139400FM-15+0098RJTC V0200401N003110600019N0112651N1+01301+00001999999ADDGA1021+009009999GA2071+060009999GF107991999999999999999999MA1101901999999MW1001REMMET075RJTC 0500Z 04006KT 9999 FEW030 BKN200 13/M00 Q1019 RMK 1CU030 7CI200 A3012;EQDQ01+000000PRSWM2
0257476600999992000012306004+35700+139400FM-15+0098RJTC V0200501N003610300019N0112651N1+01201+00001999999ADDGA1021+009009999GA2021+012009999GA3071+030009999GF107991999999999999999999MA1101901999999MW1001REMMET131RJTC 0600Z 05007KT 9999 FEW030 SCT040 BKN100 12/00 Q1019 RMK 1SC030 3SC040 5AC100 A3010 FCST 0615 TEMPO 0915 -RA BKN025SC OVC090AC;EQDQ01+000000PRSWM2
0236476600999992000012306094+35700+139400FM-16+0098RJTC V0200301N004110300019N0112651N1+01101+00001999999ADDGA1021+006009999GA2021+012009999GA3071+030009999GF107991999999999999999999MA1101901999999MW1611REMMET094RJTC 230609Z 03008KT 9999 -RA FEW020 SCT040 BKN100 11/00 Q1019 RMK 1SC020 4SC040 6AC100 A3009;EQDQ01+000003PRSWM1Q02    003PRSWM1
0235476600999992000012307004+35700+139400FM-15+0098RJTC V0200401N003610300019N0112651N1+01001-00101999999ADDGA1021+006009999GA2021+012009999GA3071+030009999GF107991999999999999999999MA1101901999999MW1611REMMET093RJTC 0700Z 04007KT 9999 -RA FEW020 SCT040 BKN100 10/M01 Q1019 RMK 1SC020 4SC040 6AC100 A3010;EQDQ01+000003PRSWM1Q02    003PRSWM1
0237476600999992000012307144+35700+139400FM-16+0098RJTC V0200301N003610120019N0112651N1+01001-00101999999ADDGA1021+006009999GA2071+012009999GA3071+024009999GF107991999999999999999999MA1101901999999MW1611REMMET095RJTC 230714Z 03007KT 9999 -RA FEW020 BKN040 BKN080 10/M01 Q1019 RMK 1SC020 5SC040 7AC080 A3009;EQDQ01+000003PRSWM1Q02    003PRSWM1
0309476600999992000012308004+35700+139400FM-15+0098RJTC V0200101N003110600019N0090001N1+00901-00101999999ADDGA1021+006009999GA2021+024009999GA3071+060009999GF107991999999999999999999MA1101901999999MW1001REMMET183RJTC 0800Z 01006KT 9000 FEW020 SCT080 BKN200 09/M01 Q1019 RMK 1SC020 3AC080 7CI200 A3010 FCST 0817 TEMPO 0812 -RA FEW020SC BKN040SC BKN080AC BECMG 1214 -RA FEW020SC BKN030SC OVC080AC;EQDQ01+000000PRSWM2
0184476600999992000012322004+35700+139400FM-15+0098RJTC V0209999C000010150019N0112651N1+00201+00101999999ADDGA1021+012009999GA2071+015009999GF107991999999999999999999MA1101591999999MW1001REMMET074RJTC 2200Z 00000KT 9999 FEW040 BKN050 02/01 Q1016 RMK 1SC040 6SC050 A3001;EQDQ01+000000PRSWM2
0190476600999992000012323004+35700+139400FM-15+0098RJTC V0201501N00101220001CN0112651N1+00401+00001999999ADDGA1071+015009999GA2021+024009999MA1101691999999MW1001REMMET090RJTC 2300Z 15002KT 9999 BKN050 SCT080 04/00 Q1017 RMK 6SC050 4AC080 A3003 FCST 2308 NOSIG;EQDQ01+000042SCOTCVQ02+000000PRSWM2
0190476600999992000012400004+35700+139400FM-15+0098RJTC V0209999999999220001CN0112651N1+00601+00101999999ADDGA1071+015009999GA2021+024009999MA1101691999999MW1001REMMET090RJTC 0000Z VRB01KT 9999 BKN050 SCT080 06/01 Q1017 RMK 6SC050 4AC080 A3005 FCST 0009 NOSIG;EQDQ01+000042SCOTCVQ02+000000PRSWM2
0186476600999992000012400264+35700+139400FM-16+0098RJTC V0203601N001010300019N0112651N1+00701+00101999999ADDGA1021+015009999GA2071+030009999GF107991999999999999999999MA1101691999999MW1001REMMET076RJTC 240026Z 36002KT 9999 SCT050 BKN100 07/01 Q1017 RMK 4SC050 5AC100 A3005;EQDQ01+000000PRSWM2
0214476600999992000012401004+35700+139400FM-15+0098RJTC V0203501N002110300019N0112651N1+00901+00201999999ADDGA1021+009009999GA2021+012009999GA3071+030009999GF107991999999999999999999MA1101691999999MW1001REMMET088RJTC 0100Z 35004KT 9999 FEW030 SCT040 BKN100 09/02 Q1017 RMK 2CU030 4SC040 5AC100 A3005;EQDQ01+000000PRSWM2
0184476600999992000012402004+35700+139400FM-15+0098RJTC V0203501N002112200019N0112651N1+01201+00301999999ADDGA1021+009009999GA2021+030009999GF104991999999999999999999MA1101691999999MW1001REMMET074RJTC 0200Z 35004KT 9999 FEW030 SCT100 12/03 Q1017 RMK 1CU030 3AC100 A3003;EQDQ01+000000PRSWM2
0200476600999992000012403004+35700+139400FM-15+0098RJTC V0200701N003112200019N0112651N1+01401+00501999999ADDGA1021+009009999GA2021+030009999GF104991999999999999999999MA1101591999999MW1001REMMET090RJTC 0300Z 07006KT 9999 FEW030 SCT100 14/05 Q1016 RMK 1CU030 3AC100 A3002 FCST 0312 NOSIG;EQDQ01+000000PRSWM2
0154476600999992000012404004+35700+139400FM-15+0098RJTC V0200801N003110300019N0112651N1+01401+00601999999ADDGA1071+030009999GF107991999999999999999999MA1101491999999MW1001REMMET060RJTC 0400Z 08006KT 9999 BKN100 14/06 Q1015 RMK 5AC100 A2998;EQDQ01+000000PRSWM2
0200476600999992000012405004+35700+139400FM-15+0098RJTC V0201101N001510300019N9999999N1+01301+00501999999ADDGA1071+030009999GA2071+060009999GF107991999999999999999999MA1101391999999MW1001REMMET074RJTC 0500Z 11003KT 6000 BKN100 BKN200 13/05 Q1014 RMK 5AC100 7CI200 A2997;EQDQ01+060002VODIS Q02+000000PRSWM2
0232476600999992000012406004+35700+139400FM-15+0098RJTC V0201001N001510300019N0050001N1+01301+00501999999ADDGA1071+030009999GA2071+060009999GF107991999999999999999999MA1101391999999MW1051REMMET106RJTC 0600Z 10003KT 5000 HZ BKN100 BKN200 13/05 Q1014 RMK 5AC100 7CI200 A2995 FCST 0615 TEMPO 0610 4500 HZ;EQDQ01+000003PRSWM1Q02    003PRSWM1
0233476600999992000012407004+35700+139400FM-15+0098RJTC V0200601N000510300019N0050001N1+01301+00601999999ADDGA1021+012009999GA2071+030009999GA3081+060009999GF108991999999999999999999MA1101391999999MW1051REMMET091RJTC 0700Z 06001KT 5000 HZ FEW040 BKN100 OVC200 13/06 Q1014 RMK 2SC040 6AC100 8CI200 A2997;EQDQ01+000003PRSWM1Q02    003PRSWM1
0219476600999992000012408004+35700+139400FM-15+0098RJTC V0200201N001010300019N0040001N1+01201+00601999999ADDGA1021+012009999GA2071+030009999GF107991999999999999999999MA1101491999999MW1051REMMET093RJTC 0800Z 02002KT 4000 HZ SCT040 BKN100 12/06 Q1015 RMK 3SC040 6AC100 A2997 FCST 0817 NOSIG;EQDQ01+000003PRSWM1Q02    003PRSWM1
0215476600999992000012422004+35700+139400FM-15+0098RJTC V0200301N005110120019N0112651N1+00401-00501999999ADDGA1021+007509999GA2071+012009999GA3081+024009999GF108991999999999999999999MA1101491999999MW1001REMMET089RJTC 2200Z 03010KT 9999 FEW025 BKN040 OVC080 04/M05 Q1015 RMK 1SC025 6SC040 8AC080 A2999;EQDQ01+000000PRSWM2
0240476600999992000012423004+35700+139400FM-15+0098RJTC V0200301N004610120019N0112651N1+00401-00401999999ADDGA1021+007509999GA2071+012009999GA3081+024009999GF108991999999999999999999MA1101491999999MW1001REMMET114RJTC 2300Z 03009KT 9999 FEW025 BKN040 OVC080 04/M04 Q1015 RMK 1SC025 6SC040 8AC080 A3000 FCST 2308 TEMPO 0204 -RA;EQDQ01+000000PRSWM2
0245476600999992000012500004+35700+139400FM-15+0098RJTC V0200101N005110120019N0112651N1+00501-00501999999ADDGA1071+012009999GA2081+024009999GF108991999999999999999999MA1101591999999MW1711REMMET119RJTC 0000Z 01010KT 9999 -SN BKN040 OVC080 05/M05 Q1016 RMK 6SC040 8AC080 A3001 FCST 0009 BECMG 0000 NSW TEMPO 0104 -RA;EQDQ01+000003PRSWM1Q02    003PRSWM1
0215476600999992000012501004+35700+139400FM-15+0098RJTC V0200301N005110105019N0112651N1+00401-00501999999ADDGA1021+009009999GA2071+010509999GA3081+024009999GF108991999999999999999999MA1101591999999MW1001REMMET089RJTC 0100Z 03010KT 9999 FEW030 BKN035 OVC080 04/M05 Q1016 RMK 2SC030 6SC035 8AC080 A3001;EQDQ01+000000PRSWM2
0215476600999992000012502004+35700+139400FM-15+0098RJTC V0200301N005110105019N0112651N1+00401-00601999999ADDGA1021+009009999GA2071+010509999GA3081+024009999GF108991999999999999999999MA1101491999999MW1001REMMET089RJTC 0200Z 03010KT 9999 FEW030 BKN035 OVC080 04/M06 Q1015 RMK 2SC030 6SC035 8AC080 A2999;EQDQ01+000000PRSWM2
0237476600999992000012502094+35700+139400FM-16+0098RJTC V0200201N005110105019N0112651N1+00401-00601999999ADDGA1021+009009999GA2071+010509999GA3081+024009999GF108991999999999999999999MA1101491999999MW1711REMMET095RJTC 250209Z 02010KT 9999 -SN FEW030 BKN035 OVC080 04/M06 Q1015 RMK 2SC030 6SC035 8AC080 A2998;EQDQ01+000003PRSWM1Q02    003PRSWM1
0264476600999992000012503004+35700+139400FM-15+0098RJTC V0200101N004110105019N0112651N1+00401-00601999999ADDGA1021+007509999GA2071+010509999GA3081+030009999GF108991999999999999999999MA1101491999999MW1711REMMET122RJTC 0300Z COR 01008KT 9999 -SN FEW025 BKN035 OVC100 04/M06 Q1015 RMK 2SC025 6SC035 8AC100 A2997 FCST 0312 BECMG 0305 NSW;EQDQ01+000003PRSWM1Q02    003PRSWM1
0215476600999992000012504004+35700+139400FM-15+0098RJTC V0200301N003610105019N0112651N1+00501-00701999999ADDGA1021+007509999GA2071+010509999GA3071+024009999GF107991999999999999999999MA1101391999999MW1001REMMET089RJTC 0400Z 03007KT 9999 FEW025 BKN035 BKN080 05/M07 Q1014 RMK 1SC025 6SC035 7AC080 A2994;EQDQ01+000000PRSWM2
0215476600999992000012505004+35700+139400FM-15+0098RJTC V0200201N003610120019N0112651N1+00501-00801999999ADDGA1021+009009999GA2071+012009999GA3071+024009999GF107991999999999999999999MA1101291999999MW1001REMMET089RJTC 0500Z 02007KT 9999 FEW030 BKN040 BKN080 05/M08 Q1013 RMK 1SC030 6SC040 7AC080 A2994;EQDQ01+000000PRSWM2
0231476600999992000012506004+35700+139400FM-15+0098RJTC V0202601N002110120019N0112651N1+00501-00101999999ADDGA1021+009009999GA2071+012009999GA3071+024009999GF107991999999999999999999MA1101391999999MW1001REMMET105RJTC 0600Z 26004KT 9999 FEW030 BKN040 BKN080 05/M01 Q1014 RMK 1SC030 6SC040 7AC080 A2995 FCST 0615 NOSIG;EQDQ01+000000PRSWM2
0215476600999992000012507004+35700+139400FM-15+0098RJTC V0200201N005110120019N0112651N1+00501-00801999999ADDGA1021+009009999GA2071+012009999GA3071+024009999GF107991999999999999999999MA1101391999999MW1001REMMET089RJTC 0700Z 02010KT 9999 FEW030 BKN040 BKN080 05/M08 Q1014 RMK 1SC030 6SC040 6AC080 A2996;EQDQ01+000000PRSWM2
0201476600999992000012508004+35700+139400FM-15+0098RJTC V0200201N005110120019N0112651N1+00501-00901999999ADDGA1071+012009999GA2071+024009999GF107991999999999999999999MA1101491999999MW1001REMMET091RJTC 0800Z 02010KT 9999 BKN040 BKN080 05/M09 Q1015 RMK 6SC040 6AC080 A2998 FCST 0817 NOSIG;EQDQ01+000000PRSWM2
0156476600999992000012522004+35700+139400FM-15+0098RJTC V0203201N001012200019N0112651N1-00301-00801999999ADDGA1021+007509999GF102991999999999999999999MA1101691999999MW1001REMMET062RJTC 2200Z 32002KT 9999 FEW025 M03/M08 Q1017 RMK 1CU025 A3005;EQDQ01+000000PRSWM2
0188476600999992000012523004+35700+139400FM-15+0098RJTC V0200201N000512200019N0112651N1-00101-00801999999ADDGA1021+007509999GF102991999999999999999999MA1101691999999MW1001REMMET094RJTC 2300Z 02001KT 9999 FEW025 M01/M08 Q1017 RMK 1CU025 A3005 FCST 2308 TEMPO 0108 01012G23KT;EQDQ01+000000PRSWM2
0187476600999992000012600004+35700+139400FM-15+0098RJTC V02099999999992200019N0112651N1+00301-00501999999ADDGA1021+007509999GF102991999999999999999999MA1101691999999MW1001REMMET093RJTC 0000Z VRB01KT 9999 FEW025 03/M05 Q1017 RMK 1CU025 A3006 FCST 0009 TEMPO 0109 01012G23KT;EQDQ01+000000PRSWM2
0155476600999992000012601004+35700+139400FM-15+0098RJTC V0200201N002612200019N0112651N1+00601-00701999999ADDGA1021+007509999GF102991999999999999999999MA1101691999999MW1001REMMET061RJTC 0100Z 02005KT 9999 FEW025 06/M07 Q1017 RMK 1CU025 A3004;EQDQ01+000000PRSWM2
0155476600999992000012602004+35700+139400FM-15+0098RJTC V0200601N002112200019N0112651N1+00701-00901999999ADDGA1021+007509999GF102991999999999999999999MA1101591999999MW1001REMMET061RJTC 0200Z 06004KT 9999 FEW025 07/M09 Q1016 RMK 1CU025 A3003;EQDQ01+000000PRSWM2
0155476600999992000012604004+35700+139400FM-15+0098RJTC V0200301N002612200019N0112651N1+00901-00901999999ADDGA1021+007509999GF102991999999999999999999MA1101391999999MW1001REMMET061RJTC 0400Z 03005KT 9999 FEW025 09/M09 Q1014 RMK 1CU025 A2996;EQDQ01+000000PRSWM2
0185476600999992000012605004+35700+139400FM-15+0098RJTC V0201301N001012200019N0112651N1+00801-01001999999ADDGA1021+007509999GA2021+060009999GF104991999999999999999999MA1101391999999MW1001REMMET075RJTC 0500Z 13002KT 9999 SCT025 SCT200 08/M10 Q1014 RMK 3CU025 4CI200 A2995;EQDQ01+000000PRSWM2
0224476600999992000012606004+35700+139400FM-15+0098RJTC V0200701N002112200019N0112651N1+00901-01001999999ADDGA1021+007509999GA2021+060009999GF104991999999999999999999MA1101391999999MW1001REMMET114RJTC 0600Z 07004KT 9999 SCT025 SCT200 09/M10 Q1014 RMK 3CU025 4CI200 A2995 FCST 0615 TEMPO 0608 BKN025CU SCT200CI;EQDQ01+000000PRSWM2
0155476600999992000012607004+35700+139400FM-15+0098RJTC V0200301N003112200019N0112651N1+00601-01201999999ADDGA1021+007509999GF102991999999999999999999MA1101391999999MW1001REMMET061RJTC 0700Z 03006KT 9999 FEW025 06/M12 Q1014 RMK 2CU025 A2997;EQDQ01+000000PRSWM2
0171476600999992000012608004+35700+139400FM-15+0098RJTC V0200201N004112200019N0112651N1+00601-01301999999ADDGA1021+007509999GF104991999999999999999999MA1101491999999MW1001REMMET077RJTC 0800Z 02008KT 9999 SCT025 06/M13 Q1015 RMK 3CU025 A2998 FCST 0817 NOSIG;EQDQ01+000000PRSWM2
0186476600999992000012622004+35700+139400FM-15+0098RJTC V0200201N001012200019N0112651N1-00501-01001999999ADDGA1021+003009999GA2021+012009999GF104991999999999999999999MA1101901999999MW1001REMMET076RJTC 2200Z 02002KT 9999 FEW010 SCT040 M05/M10 Q1019 RMK 1ST010 3SC040 A3010;EQDQ01+000000PRSWM2
0172476600999992000012623004+35700+139400FM-15+0098RJTC V0200201N001512200019N0112651N1-00201-00701999999ADDGA1021+012009999GF102991999999999999999999MA1101901999999MW1001REMMET078RJTC 2300Z 02003KT 9999 FEW040 M02/M07 Q1019 RMK 2SC040 A3010 FCST 2308 NOSIG;EQDQ01+000000PRSWM2
0202476600999992000012700004+35700+139400FM-15+0098RJTC V0200301N002612200019N0112651N1-00101-00801999999ADDGA1021+012009999GA2021+024009999GF104991999999999999999999MA1101901999999MW1001REMMET092RJTC 0000Z 03005KT 9999 FEW040 SCT080 M01/M08 Q1019 RMK 1SC040 3AC080 A3012 FCST 0009 NOSIG;EQDQ01+000000PRSWM2
0185476600999992000012701004+35700+139400FM-15+0098RJTC V0200301N002612200019N0112651N1+00201-00701999999ADDGA1021+012009999GA2021+060009999GF104991999999999999999999MA1102001999999MW1001REMMET075RJTC 0100Z 03005KT 9999 FEW040 SCT200 02/M07 Q1020 RMK 1SC040 4CI200 A3012;EQDQ01+000000PRSWM2
0185476600999992000012702004+35700+139400FM-15+0098RJTC V0200501N002612200019N0112651N1+00401-00801999999ADDGA1021+009009999GA2021+024009999GF104991999999999999999999MA1101901999999MW1001REMMET075RJTC 0200Z 05005KT 9999 FEW030 SCT080 04/M08 Q1019 RMK 1CU030 3AC080 A3009;EQDQ01+000000PRSWM2
0201476600999992000012703004+35700+139400FM-15+0098RJTC V0200301N003612200019N0112651N1+00701-00801999999ADDGA1021+009009999GA2021+030009999GF104991999999999999999999MA1101691999999MW1001REMMET091RJTC 0300Z 03007KT 9999 FEW030 SCT100 07/M08 Q1017 RMK 1CU030 3AC100 A3006 FCST 0312 NOSIG;EQDQ01+000000PRSWM2
0185476600999992000012704004+35700+139400FM-15+0098RJTC V0200301N003612200019N0112651N1+00701-00901999999ADDGA1021+009009999GA2021+060009999GF104991999999999999999999MA1101591999999MW1001REMMET075RJTC 0400Z 03007KT 9999 FEW030 SCT200 07/M09 Q1016 RMK 2CU030 3CI200 A3003;EQDQ01+000000PRSWM2
0185476600999992000012705004+35700+139400FM-15+0098RJTC V0200601N002612200019N0112651N1+00801-00901999999ADDGA1021+009009999GA2021+024009999GF104991999999999999999999MA1101591999999MW1001REMMET075RJTC 0500Z 06005KT 9999 FEW030 SCT080 08/M09 Q1016 RMK 2CU030 3AC080 A3003;EQDQ01+000000PRSWM2
0185476600999992000012707004+35700+139400FM-15+0098RJTC V0200401N001512200019N0112651N1+00601-01101999999ADDGA1021+007509999GA2021+009009999GF104991999999999999999999MA1101691999999MW1001REMMET075RJTC 0700Z 04003KT 9999 FEW025 SCT030 06/M11 Q1017 RMK 1CU025 4SC030 A3004;EQDQ01+000000PRSWM2
0201476600999992000012708004+35700+139400FM-15+0098RJTC V0200701N002612200019N0112651N1+00601-01001999999ADDGA1021+007509999GA2021+009009999GF104991999999999999999999MA1101801999999MW1001REMMET091RJTC 0800Z 07005KT 9999 FEW025 SCT030 06/M10 Q1018 RMK 2CU025 4SC030 A3008 FCST 0817 NOSIG;EQDQ01+000000PRSWM2
0156476600999992000012715004+35700+139400FM-15+0098RJTC V0203501N001512200019N0112651N1+00001-01001999999ADDGA1021+012009999GF102991999999999999999999MA1102201999999MW1001REMMET062RJTC 1500Z 35003KT 9999 FEW040 M00/M10 Q1022 RMK 1SC040 A3019;EQDQ01+000000PRSWM2
0156476600999992000012722004+35700+139400FM-15+0098RJTC V0203001N000512200019N0112651N1-00501-00801999999ADDGA1021+012009999GF102991999999999999999999MA1102401999999MW1001REMMET062RJTC 2200Z 30001KT 9999 FEW040 M05/M08 Q1024 RMK 1SC040 A3024;EQDQ01+000000PRSWM2
0172476600999992000012723004+35700+139400FM-15+0098RJTC V0203101N001012200019N0112651N1-00201-00801999999ADDGA1021+010509999GF102991999999999999999999MA1102401999999MW1001REMMET078RJTC 2300Z 31002KT 9999 FEW035 M02/M08 Q1024 RMK 1CU035 A3025 FCST 2308 NOSIG;EQDQ01+000000PRSWM2
0145476600999992000012800004+35700+139400FM-15+0098RJTC V0203101N001512200019N0112651N1+00501-00901999999ADDGF100991999999999999999999MA1102511999999MW1001REMMET067RJTC 0000Z 31003KT 9999 SKC 05/M09 Q1025 RMK A3027 FCST 0009 NOSIG;EQDQ01+000000PRSWM2
0129476600999992000012801004+35700+139400FM-15+0098RJTC V0200401N003112200019N0112651N1+00701-01001999999ADDGF100991999999999999999999MA1102511999999MW1001REMMET051RJTC 0100Z 04006KT 9999 SKC 07/M10 Q1025 RMK A3027;EQDQ01+000000PRSWM2
0129476600999992000012802004+35700+139400FM-15+0098RJTC V0200201N004112200019N0112651N1+00801-00901999999ADDGF100991999999999999999999MA1102401999999MW1001REMMET051RJTC 0200Z 02008KT 9999 SKC 08/M09 Q1024 RMK A3026;EQDQ01+000000PRSWM2
0142476600999992000012802294+35700+139400FM-16+0098RJTC V0200101N005712200019N0112651N1+00901-01001999999ADDGF100991999999999999999999MA1102401999999MW1001OC101081REMMET056RJTC 280229Z 01011G21KT 9999 SKC 09/M10 Q1024 RMK A3024;EQDQ01+000000PRSWM2
0161476600999992000012803004+35700+139400FM-15+0098RJTC V0200301N006712200019N0112651N1+00901-01101999999ADDGF100991999999999999999999MA1102301999999MW1001REMMET083RJTC 0300Z 03013KT 9999 SKC 09/M11 Q1023 RMK A3023 FCST 0312 TEMPO 0309 03011G22KT;EQDQ01+000000PRSWM2
0129476600999992000012804004+35700+139400FM-15+0098RJTC V0203601N003112200019N0112651N1+01101-00901999999ADDGF100991999999999999999999MA1102301999999MW1001REMMET051RJTC 0400Z 36006KT 9999 SKC 11/M09 Q1023 RMK A3021;EQDQ01+000000PRSWM2
0129476600999992000012805004+35700+139400FM-15+0098RJTC V0200401N003612200019N0112651N1+01101-01001999999ADDGF100991999999999999999999MA1102201999999MW1001REMMET051RJTC 0500Z 04007KT 9999 SKC 11/M10 Q1022 RMK A3021;EQDQ01+000000PRSWM2
0145476600999992000012806004+35700+139400FM-15+0098RJTC V0200601N003612200019N0112651N1+01101-00901999999ADDGF100991999999999999999999MA1102301999999MW1001REMMET067RJTC 0600Z 06007KT 9999 SKC 11/M09 Q1023 RMK A3022 FCST 0615 NOSIG;EQDQ01+000000PRSWM2
0129476600999992000012807004+35700+139400FM-15+0098RJTC V0200301N003612200019N0112651N1+01001-00901999999ADDGF100991999999999999999999MA1102401999999MW1001REMMET051RJTC 0700Z 03007KT 9999 SKC 10/M09 Q1024 RMK A3025;EQDQ01+000000PRSWM2
0145476600999992000012808004+35700+139400FM-15+0098RJTC V0203601N003612200019N0112651N1+00801-00801999999ADDGF100991999999999999999999MA1102511999999MW1001REMMET067RJTC 0800Z 36007KT 9999 SKC 08/M08 Q1025 RMK A3028 FCST 0817 NOSIG;EQDQ01+000000PRSWM2
0130476600999992000012822004+35700+139400FM-15+0098RJTC V0202301N000512200019N0112651N1-00401-00801999999ADDGF100991999999999999999999MA1103121999999MW1001REMMET052RJTC 2200Z 23001KT 9999 SKC M04/M08 Q1031 RMK A3046;EQDQ01+000000PRSWM2
0146476600999992000012823004+35700+139400FM-15+0098RJTC V0202701N000512200019N0112651N1-00101-00701999999ADDGF100991999999999999999999MA1103121999999MW1001REMMET068RJTC 2300Z 27001KT 9999 SKC M01/M07 Q1031 RMK A3047 FCST 2308 NOSIG;EQDQ01+000000PRSWM2
0171476600999992000012900004+35700+139400FM-15+0098RJTC V0203301N001012200019N0112651N1+00601-00601999999ADDGA1021+024009999GF102991999999999999999999MA1103181999999MW1001REMMET077RJTC 0000Z 33002KT 9999 FEW080 06/M06 Q1032 RMK 1AC080 A3048 FCST 0009 NOSIG;EQDQ01+000000PRSWM2
0155476600999992000012901004+35700+139400FM-15+0098RJTC V0203001N001512200019N0112651N1+01001-00701999999ADDGA1021+024009999GF102991999999999999999999MA1103181999999MW1001REMMET061RJTC 0100Z 30003KT 9999 FEW080 10/M07 Q1032 RMK 1AC080 A3048;EQDQ01+000000PRSWM2
0155476600999992000012902004+35700+139400FM-15+0098RJTC V0203101N001012200019N0112651N1+01201-00701999999ADDGA1021+024009999GF102991999999999999999999MA1103121999999MW1001REMMET061RJTC 0200Z 31002KT 9999 FEW080 12/M07 Q1031 RMK 1AC080 A3046;EQDQ01+000000PRSWM2
0171476600999992000012903004+35700+139400FM-15+0098RJTC V0200501N002612200019N0112651N1+01301-00801999999ADDGA1021+009009999GF102991999999999999999999MA1103011999999MW1001REMMET077RJTC 0300Z 05005KT 9999 FEW030 13/M08 Q1030 RMK 1CU030 A3043 FCST 0312 NOSIG;EQDQ01+000000PRSWM2
0155476600999992000012904004+35700+139400FM-15+0098RJTC V0201101N003112200019N0112651N1+01301-00801999999ADDGA1021+009009999GF102991999999999999999999MA1102911999999MW1001REMMET061RJTC 0400Z 11006KT 9999 FEW030 13/M08 Q1029 RMK 1CU030 A3040;EQDQ01+000000PRSWM2
0129476600999992000012905004+35700+139400FM-15+0098RJTC V0201501N002612200019N0112651N1+01301-00601999999ADDGF100991999999999999999999MA1102911999999MW1001REMMET051RJTC 0500Z 15005KT 9999 SKC 13/M06 Q1029 RMK A3039;EQDQ01+000000PRSWM2
