0173528360999992000010100004+36300+098100FM-12+319299999V0202001N002010900019N0300001N1-00781-01251999999ADDAA106000091GF105991021051017501001021MA1999999069471MD1210141+0701REMSYN076AAXX  01001 52836 32780 52002 11078 21125 36947 52014 82502 333 00700 92501;EQDQ01  00002PRCP06
0127528360999992000010103004+36300+098100FM-12+319299999V0202201N003010900019N0300001N1-00581-01231999999ADDGF106991011011012501001021MA1999999069651MD1210181+9999REMSYN060AAXX  01031 52836 42680 62203 11058 21123 36965 52018 81102;
0186528360999992000010106004+36300+098100FM-12+319299999V0202201N002012200019N0300001N1-00271-01421999999ADDAA106000091GF103991021011012501001021KA1999N-00951MA1999999069561MD1710091+0601REMSYN076AAXX  01061 52836 32680 32202 11027 21142 36956 57009 82102 333 00652 21095;EQDQ01  00002PRCP06
0157528360999992000010109004+36300+098100FM-12+319299999V0202201N001012200019N0300001N1-00331-01431999999ADDAY181031GF104991031091012501001021MA1999999069501MD1710061+0061MW1001REMSYN076AAXX  01091 52836 41680 42201 11033 21143 36950 57006 70080 83902 333 00654;
0184528360999992000010112004+36300+098100FM-12+319299999V0201101N002012200019N0300001N1-00831-01511999999ADDAA106000791AY181061GA1001+999999999GF100991001001999999001001MA1999999069511MD1210011+0051MW1001REMSYN076AAXX  01121 52836 11980 01102 11083 21151 36951 52001 69901 70080 333 00551;
0137528360999992000010115004+36300+098100FM-12+319299999V0201101N003012200019N0300001N1-00851-01891999999ADDGA1001+999999999GF100991001001999999001001MA1999999069381MD1710131+9999REMSYN054AAXX  01151 52836 42980 01103 11085 21189 36938 57013;
0196528360999992000010118004+36300+098100FM-12+319299999V0201101N004012200019N0300001N1-00911-02231999999ADDAA106000091GA1001+999999999GF100991001001999999001001KA1999M-00081MA1999999069171MD1710211+0101REMSYN070AAXX  01181 52836 32980 01104 11091 21223 36917 57021 333 00152 11008;EQDQ01  00002PRCP06
0164528360999992000010121004+36300+098100FM-12+319299999V0201101N003012200019N0300001N1-00941-01921999999ADDAA124000791GA1001+999999999GF100991001001999999001001MA1999999069091MD1710081-0201REMSYN070AAXX  01211 52836 42980 01103 11094 21192 36909 57008 333 05253 79999;
0183528360999992000010200004+36300+098100FM-12+319299999V0201101N005012200019N0300001N1-01011-02061999999ADDAA106000091GA1001+999999999GF100991001001999999001001MA1999999069031MD1710061-0401REMSYN070AAXX  02001 52836 32980 01105 11101 21206 36903 57006 333 05452 79999;EQDQ01  00002PRCP06
0137528360999992000010203004+36300+098100FM-12+319299999V0201101N005012200019N0300001N1-00581-01621999999ADDGA1001+999999999GF100991001001999999001001MA1999999069041MD1210011+9999REMSYN054AAXX  02031 52836 42980 01105 11058 21162 36904 52001;
0186528360999992000010206004+36300+098100FM-12+319299999V0201101N003012200019N0300001N1+00141-01581999999ADDAA106000091GF101991001001999999001021KA1999N-01071MA1999999068901MD1710141-0701REMSYN076AAXX  02061 52836 32980 11103 10014 21158 36890 57014 80002 333 05704 21107;EQDQ01  00002PRCP06
0137528360999992000010209004+36300+098100FM-12+319299999V0202501N003012200019N0300001N1+00101-01761999999ADDGF102991001001999999001021MA1999999068911MD1210011+0061REMSYN070AAXX  02091 52836 42980 22503 10010 21176 36891 52001 80002 333 05604;
0167528360999992000010212004+36300+098100FM-12+319299999V0201801N001012200019N0300001N1-00541-02331999999ADDAA106000091GF101991001001999999001021MA1999999069001MD1210091+0051REMSYN070AAXX  02121 52836 32980 11801 11054 21233 36900 52009 80002 333 05503;EQDQ01  00002PRCP06
0137528360999992000010215004+36300+098100FM-12+319299999V0201101N003012200019N0300001N1-00951-02411999999ADDGA1001+999999999GF100991001001999999001001MA1999999069001MD1410001+9999REMSYN054AAXX  02151 52836 42980 01103 11095 21241 36900 54000;
0196528360999992000010218004+36300+098100FM-12+319299999V0201101N004012200019N0300001N1-00821-02451999999ADDAA106000091GA1001+999999999GF100991001001999999001001KA1999M+00271MA1999999068791MD1710211-0401REMSYN070AAXX  02181 52836 32980 01104 11082 21245 36879 57021 333 05401 10027;EQDQ01  00002PRCP06
0147528360999992000010221004+36300+098100FM-12+319299999V0201101N005012200019N0300001N1-00751-02661999999ADDGA1001+999999999GF100991001001999999001001MA1999999068531MD1710261+0061REMSYN064AAXX  02211 52836 42980 01105 11075 21266 36853 57026 333 05602;
0167528360999992000010300004+36300+098100FM-12+319299999V0201101N002012200019N0300001N1-00781-02641999999ADDAA106000091GF101991001001999999001021MA1999999068541MD1210011+0051REMSYN070AAXX  03001 52836 32980 11102 11078 21264 36854 52001 80002 333 05502;EQDQ01  00002PRCP06
0127528360999992000010303004+36300+098100FM-12+319299999V0201101N002012200019N0300001N1-00221-02161999999ADDGF101991001001999999001021MA1999999068791MD1210251+9999REMSYN060AAXX  03031 52836 42980 11102 11022 21216 36879 52025 80002;
0186528360999992000010306004+36300+098100FM-12+319299999V0202201N004012200019N0300001N1+00131-01961999999ADDAA106000091GF101991001001999999001021KA1999N-01081MA1999999068711MD1710081-0201REMSYN076AAXX  03061 52836 32980 12204 10013 21196 36871 57008 80002 333 05200 21108;EQDQ01  00002PRCP06
0137528360999992000010309004+36300+098100FM-12+319299999V0202201N002019999999N0300001N1+00081-02441999999ADDGF107991001001999999001021MA1999999068691MD1710021+0021REMSYN070AAXX  03091 52836 42980 72202 10008 21244 36869 57002 80002 333 05200;
0167528360999992000010312004+36300+098100FM-12+319299999V0209999C000012200019N0300001N1-00501-02201999999ADDAA106000091GF101991001001999999001021MA1999999068781MD1210091+0021REMSYN070AAXX  03121 52836 32980 10000 11050 21220 36878 52009 80002 333 05200;EQDQ01  00002PRCP06
0127528360999992000010315004+36300+098100FM-12+319299999V0209999C000012200019N0300001N1-00751-01821999999ADDGF102991001001999999001021MA1999999068781MD1410001+9999REMSYN060AAXX  03151 52836 42980 20000 11075 21182 36878 54000 80002;
0186528360999992000010318004+36300+098100FM-12+319299999V0209999C000019999999N0300001N1-00681-01751999999ADDAA106000091GF107991001001999999001021KA1999M+00211MA1999999068731MD1710051-0101REMSYN076AAXX  03181 52836 32980 70000 11068 21175 36873 57005 80002 333 05101 10021;EQDQ01  00002PRCP06
0137528360999992000010321004+36300+098100FM-12+319299999V0202001N002012200019N0300001N1-00541-02061999999ADDGF102991001001999999001021MA1999999068661MD1710071+0011REMSYN070AAXX  03211 52836 42980 22002 11054 21206 36866 57007 80002 333 00102;
0167528360999992000010400004+36300+098100FM-12+319299999V0209999C000019999999N0300001N1-00991-02001999999ADDAA106000091GF107991001001999999001021MA1999999068621MD1710041+0011REMSYN070AAXX  04001 52836 32980 70000 11099 21200 36862 57004 80002 333 00152;EQDQ01  00002PRCP06
0127528360999992000010403004+36300+098100FM-12+319299999V0201101N002019999999N0300001N1-00411-01891999999ADDGF107991001001999999001021MA1999999068671MD1210051+9999REMSYN060AAXX  04031 52836 42980 71102 11041 21189 36867 52005 80002;
0186528360999992000010406004+36300+098100FM-12+319299999V0202501N004019999999N0300001N1+00061-02201999999ADDAA106000091GF107991001001999999001021KA1999N-01171MA1999999068491MD1710181-0201REMSYN076AAXX  04061 52836 32980 72504 10006 21220 36849 57018 80002 333 05251 21117;EQDQ01  00002PRCP06
0137528360999992000010409004+36300+098100FM-12+319299999V0202501N003019999999N0300001N1-00121-01791999999ADDGF107991001001999999001021MA1999999068611MD1210121+0011REMSYN070AAXX  04091 52836 42980 72503 11012 21179 36861 52012 80002 333 05152;
0167528360999992000010412004+36300+098100FM-12+319299999V0202201N002019999999N0300001N1-00271-01901999999ADDAA106000091GF108991081001999999021999MA1999999068671MD1210061+0011REMSYN070AAXX  04121 52836 32980 82202 11027 21190 36867 52006 8802/ 333 05102;EQDQ01  00002PRCP06
0127528360999992000010415004+36300+098100FM-12+319299999V0209999C000019999999N0300001N1-00381-01691999999ADDGF108991081001999999021999MA1999999068671MD1410001+9999REMSYN060AAXX  04151 52836 42980 80000 11038 21169 36867 54000 8802/;
0186528360999992000010418004+36300+098100FM-12+319299999V0202201N001019999999N0300001N1-00441-01581999999ADDAA106000091GF108991081001999999011999KA1999M+00151MA1999999068621MD1710051-0101REMSYN076AAXX  04181 52836 32980 82201 11044 21158 36862 57005 8801/ 333 05102 10015;EQDQ01  00002PRCP06
0137528360999992000010421004+36300+098100FM-12+319299999V0202001N001019999999N0300001N1-00461-01511999999ADDGF108991081001999999021999MA1999999068691MD1210071+0001REMSYN070AAXX  04211 52836 42980 82001 11046 21151 36869 52007 8802/ 333 00001;
0167528360999992000010500004+36300+098100FM-12+319299999V0202201N004019999999N0300001N1-00661-01771999999ADDAA106000091GF108991081001999999021999MA1999999068851MD1210161+0021REMSYN070AAXX  05001 52836 32980 82204 11066 21177 36885 52016 8802/ 333 00203;EQDQ01  00002PRCP06
0167528360999992000010501004+36300+098100FM-12+319299999V0202201N004019999999N0300001N1-00661-01771999999ADDAA106000091GF108991081001999999021999MA1999999068851MD1210161+0021REMSYN070AAXX  05011 52836 32980 82204 11066 21177 36885 52016 8802/ 333 00203;EQDQ01  00002PRCP06
0127528360999992000010503004+36300+098100FM-12+319299999V0202201N005010900019N0250001N1-00581-01511999999ADDGF107991031091017501001021MA1999999068971MD1210121+9999REMSYN060AAXX  05031 52836 42775 72205 11058 21151 36897 52012 83902;
0186528360999992000010506004+36300+098100FM-12+319299999V0202201N006019999999N0150001N1-00381-01471999999ADDAA106000091GF107991001001999999001021KA1999N-00761MA1999999068921MD1710051+0401REMSYN076AAXX  05061 52836 32965 72206 11038 21147 36892 57005 80002 333 00454 21076;EQDQ01  00002PRCP06
0137528360999992000010509004+36300+098100FM-12+319299999V0202501N005010900019N0250001N1-00331-01531999999ADDGF106991021091017501001021MA1999999068921MD1410001+0031REMSYN070AAXX  05091 52836 42775 62505 11033 21153 36892 54000 82902 333 00352;
0167528360999992000010512004+36300+098100FM-12+319299999V0202501N002019999999N0300001N1-00621-01891999999ADDAA106000091GF107991001001999999001021MA1999999069051MD1210131+0041REMSYN070AAXX  05121 52836 32980 72502 11062 21189 36905 52013 80002 333 00454;EQDQ01  00002PRCP06
0127528360999992000010515004+36300+098100FM-12+319299999V0201801N001019999999N0300001N1-00751-02031999999ADDGF107991001001999999001021MA1999999069121MD1210071+9999REMSYN060AAXX  05151 52836 42980 71801 11075 21203 36912 52007 80002;
0186528360999992000010518004+36300+098100FM-12+319299999V0202201N002019999999N0300001N1-00621-01961999999ADDAA106000091GF107991001001999999001021KA1999M-00251MA1999999069191MD1210071+0601REMSYN076AAXX  05181 52836 32980 72202 11062 21196 36919 52007 80002 333 00652 11025;EQDQ01  00002PRCP06
0137528360999992000010521004+36300+098100FM-12+319299999V0209999C000019999999N0300001N1-00761-01721999999ADDGF107991001001999999001021MA1999999069221MD1210031+0051REMSYN070AAXX  05211 52836 42980 70000 11076 21172 36922 52003 80002 333 00553;
0137528360999992000010603004+36300+098100FM-12+319299999V0201101N003012200019N0300001N1-00601-01661999999ADDGA1001+999999999GF100991001001999999001001MA1999999069111MD1710031+9999REMSYN054AAXX  06031 52836 42980 01103 11060 21166 36911 57003;
0196528360999992000010606004+36300+098100FM-12+319299999V0201101N002012200019N0300001N1-00051-01451999999ADDAA106000091GA1001+999999999GF100991001001999999001001KA1999N-01221MA1999999068871MD1710241-0101REMSYN070AAXX  06061 52836 32980 01102 11005 21145 36887 57024 333 05103 21122;EQDQ01  00002PRCP06
0147528360999992000010609004+36300+098100FM-12+319299999V0201601N001012200019N0300001N1+00151-01901999999ADDGA1001+999999999GF100991001001999999001001MA1999999068781MD1710091+0011REMSYN064AAXX  06091 52836 42980 01601 10015 21190 36878 57009 333 05105;
0177528360999992000010612004+36300+098100FM-12+319299999V0201101N001012200019N0300001N1-00581-01741999999ADDAA106000091GA1001+999999999GF100991001001999999001001MA1999999068811MD1210031+0021REMSYN064AAXX  06121 52836 32980 01101 11058 21174 36881 52003 333 05200;EQDQ01  00002PRCP06
0137528360999992000010615004+36300+098100FM-12+319299999V0201101N003012200019N0300001N1-00781-01881999999ADDGA1001+999999999GF100991001001999999001001MA1999999068821MD1210011+9999REMSYN054AAXX  06151 52836 42980 01103 11078 21188 36882 52001;
0147528360999992000010621004+36300+098100FM-12+319299999V0201401N003012200019N0300001N1-00891-02651999999ADDGA1001+999999999GF100991001001999999001001MA1999999068491MD1710171+0071REMSYN064AAXX  06211 52836 42980 01403 11089 21265 36849 57017 333 05751;
0177528360999992000010700004+36300+098100FM-12+319299999V0201101N003012200019N0300001N1-00981-02691999999ADDAA106000091GA1001+999999999GF100991001001999999001001MA1999999068521MD1210031+0061REMSYN064AAXX  07001 52836 32980 01103 11098 21269 36852 52003 333 05602;EQDQ01  00002PRCP06
0127528360999992000010703004+36300+098100FM-12+319299999V0201101N003012200019N0300001N1-00581-02341999999ADDGF102991001001999999001021MA1999999068671MD1210151+9999REMSYN060AAXX  07031 52836 42980 21103 11058 21234 36867 52015 80002;
0186528360999992000010706004+36300+098100FM-12+319299999V0209999C000012200019N0300001N1+00121-02171999999ADDAA106000091GF102991001001999999001021KA1999N-01031MA1999999068571MD1710101-0301REMSYN076AAXX  07061 52836 32980 20000 10012 21217 36857 57010 80002 333 05302 21103;EQDQ01  00002PRCP06
0137528360999992000010709004+36300+098100FM-12+319299999V0202201N002019999999N0300001N1-00051-01811999999ADDGF107991001001999999001021MA1999999068531MD1710041+0031REMSYN070AAXX  07091 52836 42980 72202 11005 21181 36853 57004 80002 333 05352;
0167528360999992000010712004+36300+098100FM-12+319299999V0209999C000019999999N0300001N1-00601-01711999999ADDAA106000091GF106991001001999999001021MA1999999068621MD1210091+0021REMSYN070AAXX  07121 52836 32980 60000 11060 21171 36862 52009 80002 333 05200;EQDQ01  00002PRCP06
0127528360999992000010715004+36300+098100FM-12+319299999V0209999C000012200019N0300001N1-00801-02061999999ADDGF102991001001999999001021MA1999999068711MD1210091+9999REMSYN060AAXX  07151 52836 42980 20000 11080 21206 36871 52009 80002;
0196528360999992000010718004+36300+098100FM-12+319299999V0201401N001012200019N0300001N1-01041-02111999999ADDAA106000091GA1001+999999999GF100991001001999999001001KA1999M+00171MA1999999068681MD1710031+0001REMSYN070AAXX  07181 52836 32980 01401 11104 21211 36868 57003 333 00051 10017;EQDQ01  00002PRCP06
0137528360999992000010721004+36300+098100FM-12+319299999V0201401N003012200019N0300001N1-01071-02201999999ADDGF101991001001999999001021MA1999999068471MD1710211+0001REMSYN070AAXX  07211 52836 42980 11403 11107 21220 36847 57021 80002 333 00052;
0167528360999992000010800004+36300+098100FM-12+319299999V0201401N003019999999N0300001N1-01011-02231999999ADDAA106000091GF107991001001999999001021MA1999999068451MD1710021+0011REMSYN070AAXX  08001 52836 32980 71403 11101 21223 36845 57002 80002 333 05100;EQDQ01  00002PRCP06
0127528360999992000010803004+36300+098100FM-12+319299999V0201101N003019999999N0300001N1-00701-02621999999ADDGF107991001001999999001021MA1999999068771MD1210321+9999REMSYN060AAXX  08031 52836 42980 71103 11070 21262 36877 52032 80002;
0186528360999992000010806004+36300+098100FM-12+319299999V0201101N001012200019N0300001N1-00041-02011999999ADDAA106000091GF101991001001999999001021KA1999N-01141MA1999999068661MD1710111+0101REMSYN076AAXX  08061 52836 32980 11101 11004 21201 36866 57011 80002 333 00152 21114;EQDQ01  00002PRCP06
0137528360999992000010809004+36300+098100FM-12+319299999V0202201N003012200019N0300001N1+00071-01911999999ADDGF101991001001999999001021MA1999999068591MD1710071+0011REMSYN070AAXX  08091 52836 42980 12203 10007 21191 36859 57007 80002 333 00101;
0167528360999992000010812004+36300+098100FM-12+319299999V0209999C000019999999N0300001N1-00531-02031999999ADDAA106000091GF107991001001999999001021MA1999999068681MD1210091+0011REMSYN070AAXX  08121 52836 32980 70000 11053 21203 36868 52009 80002 333 00101;EQDQ01  00002PRCP06
0127528360999992000010815004+36300+098100FM-12+319299999V0201101N003012200019N0300001N1-00851-02091999999ADDGF101991001001999999001021MA1999999068741MD1210061+9999REMSYN060AAXX  08151 52836 42980 11103 11085 21209 36874 52006 80002;
0196528360999992000010818004+36300+098100FM-12+319299999V0201101N004012200019N0300001N1-00881-02231999999ADDAA106000091GA1001+999999999GF100991001001999999001001KA1999M+00161MA1999999068641MD1710101+0001REMSYN070AAXX  08181 52836 32980 01104 11088 21223 36864 57010 333 00002 10016;EQDQ01  00002PRCP06
0137528360999992000010821004+36300+098100FM-12+319299999V0201401N001012200019N0300001N1-00781-02161999999ADDGF101991001001999999001021MA1999999068461MD1710181+0001REMSYN070AAXX  08211 52836 42980 11401 11078 21216 36846 57018 80002 333 00003;
0167528360999992000010900004+36300+098100FM-12+319299999V0201101N005012200019N0300001N1-00801-02381999999ADDAA106000091GF102991001001999999001021MA1999999068361MD1710101+0011REMSYN070AAXX  09001 52836 32980 21105 11080 21238 36836 57010 80002 333 05102;EQDQ01  00002PRCP06
0127528360999992000010903004+36300+098100FM-12+319299999V0201401N005012200019N0300001N1-00351-02191999999ADDGF101991001001999999001021MA1999999068321MD1710041+9999REMSYN060AAXX  09031 52836 42980 11405 11035 21219 36832 57004 80002;
0137528360999992000010909004+36300+098100FM-12+319299999V0201101N003019999999N0300001N1+00161-01841999999ADDGF107991001001999999001021MA1999999068011MD1710101+0061REMSYN070AAXX  09091 52836 42980 71103 10016 21184 36801 57010 80002 333 05601;
0167528360999992000010912004+36300+098100FM-12+319299999V0201101N002019999999N0300001N1-00041-01841999999ADDAA106000091GF108991081001999999021999MA1999999068091MD1210081+0061REMSYN070AAXX  09121 52836 32980 81102 11004 21184 36809 52008 8802/ 333 05605;EQDQ01  00002PRCP06
0127528360999992000010915004+36300+098100FM-12+319299999V0201801N001012200019N0300001N1-00491-01921999999ADDGF102991001001999999001021MA1999999068101MD1210011+9999REMSYN060AAXX  09151 52836 42980 21801 11049 21192 36810 52001 80002;
0196528360999992000010918004+36300+098100FM-12+319299999V0201101N002012200019N0300001N1-00801-01721999999ADDAA106000091GA1001+999999999GF100991001001999999001001KA1999M+00301MA1999999068001MD1710101-0601REMSYN070AAXX  09181 52836 32980 01102 11080 21172 36800 57010 333 05601 10030;EQDQ01  00002PRCP06
0137528360999992000010921004+36300+098100FM-12+319299999V0201401N002012200019N0300001N1-00691-01641999999ADDGF101991001001999999001021MA1999999067951MD1710051+0051REMSYN070AAXX  09211 52836 42980 11402 11069 21164 36795 57005 80002 333 05501;
0167528360999992000011000004+36300+098100FM-12+319299999V0209999C000010150019N0300001N1-00951-01991999999ADDAA106000091GF107991071051017501999999MA1999999068351MD1210401+0001REMSYN070AAXX  10001 52836 32780 70000 11095 21199 36835 52040 875// 333 00052;EQDQ01  00002PRCP06
0127528360999992000011003004+36300+098100FM-12+319299999V0209999C000012200019N0300001N1-00441-02111999999ADDGF102991001001999999001021MA1999999068491MD1210141+9999REMSYN060AAXX  10031 52836 42980 20000 11044 21211 36849 52014 80002;
0186528360999992000011006004+36300+098100FM-12+319299999V0201401N002012200019N0300001N1-00031-01751999999ADDAA106000091GF101991011011012501001001KA1999N-01041MA1999999068311MD1710181+0201REMSYN076AAXX  10061 52836 32680 11402 11003 21175 36831 57018 81100 333 00252 21104;EQDQ01  00002PRCP06
0137528360999992000011009004+36300+098100FM-12+319299999V0202901N001019999999N0300001N1+00011-01641999999ADDGF106991001001999999001021MA1999999068221MD1710091+0021REMSYN070AAXX  10091 52836 42980 62901 10001 21164 36822 57009 80002 333 00252;
0167528360999992000011012004+36300+098100FM-12+319299999V0202701N001019999999N0300001N1-00561-01811999999ADDAA106000091GF106991001001999999001021MA1999999068361MD1210141+0031REMSYN070AAXX  10121 52836 32980 62701 11056 21181 36836 52014 80002 333 00355;EQDQ01  00002PRCP06
0127528360999992000011015004+36300+098100FM-12+319299999V0202201N002012200019N0300001N1-00891-01821999999ADDGF102991001001999999001021MA1999999068581MD1210221+9999REMSYN060AAXX  10151 52836 42980 22202 11089 21182 36858 52022 80002;
0185528360999992000011018004+36300+098100FM-12+319299999V0209999C000019999999N0300001N1-00961-01321999999ADDAA106000791GF107991001001999999001021KA1999M+00141MA1999999068601MD1210021+0601MW1701REMSYN088AAXX  10181 52836 11980 70000 11096 21132 36860 52002 69901 77000 80002 333 00652 10014;
0182528360999992000011021004+36300+098100FM-12+319299999V0201401N002019999999N0200001N1-00981-01341999999ADDAA124000391AY171031AY271031GF108991081001999999021999MA1999999068661MD1210061+0701MW1701REMSYN082AAXX  10211 52836 41970 81402 11098 21134 36866 52006 77077 8802/ 333 00753 70003;
0194528360999992000011100004+36300+098100FM-12+319299999V0201101N002019999999N0200001N1-01061-01431999999ADDAA106000391AY171061AY271061GF107991001001999999001021MA1999999068721MD1210061+0401MW1701REMSYN094AAXX  11001 52836 11970 71102 11106 21143 36872 52006 69931 77077 80002 333 00451 70003 92500;
0194528360999992000011101004+36300+098100FM-12+319299999V0201101N002019999999N0200001N1-01061-01431999999ADDAA106000391AY171999AY271999GF107991001001999999001021MA1999999068721MD1210061+0401MW1701REMSYN094AAXX  11011 52836 11970 71102 11106 21143 36872 52006 69931 77077 80002 333 00451 70003 92500;
0147528360999992000011103004+36300+098100FM-12+319299999V0200901N002019999999N0300001N1-00881-01691999999ADDAY171031GF107991001001999999001021MA1999999068781MD1210061+9999MW1001REMSYN066AAXX  11031 52836 41980 70902 11088 21169 36878 52006 70070 80002;
0193528360999992000011106004+36300+098100FM-12+319299999V0202201N002010900019N0300001N1-00501-01471999999ADDAA106000791AY171061GF107991021011012501001021KA1999N-01181MA1999999068741MD1710041+0401MW1001REMSYN088AAXX  11061 52836 11680 72202 11050 21147 36874 57004 69901 70070 82102 333 00455 21118;
0137528360999992000011109004+36300+098100FM-12+319299999V0202501N002010900019N0300001N1-00411-01581999999ADDGF106991011011012501001021MA1999999068701MD1710041+0051REMSYN070AAXX  11091 52836 42680 62502 11041 21158 36870 57004 81102 333 00554;
0177528360999992000011112004+36300+098100FM-12+319299999V0209999C000012200019N0300001N1-00961-01551999999ADDAA106000091GA1001+999999999GF100991001001999999001001MA1999999068911MD1210211+0061REMSYN064AAXX  11121 52836 32980 00000 11096 21155 36891 52021 333 00654;EQDQ01  00002PRCP06
0137528360999992000011115004+36300+098100FM-12+319299999V0201101N002012200019N0300001N1-01101-01651999999ADDGA1001+999999999GF100991001001999999001001MA1999999068911MD1410001+9999REMSYN054AAXX  11151 52836 42980 01102 11110 21165 36891 54000;
0196528360999992000011118004+36300+098100FM-12+319299999V0201101N004012200019N0300001N1-01131-01791999999ADDAA106000091GA1001+999999999GF100991001001999999001001KA1999M-00361MA1999999068821MD1710091+0201REMSYN070AAXX  11181 52836 32980 01104 11113 21179 36882 57009 333 00252 11036;EQDQ01  00002PRCP06
0164528360999992000011121004+36300+098100FM-12+319299999V0201101N004012200019N0300001N1-01201-01991999999ADDAA124000791GA1001+999999999GF100991001001999999001001MA1999999068741MD1710081+0101REMSYN070AAXX  11211 52836 42980 01104 11120 21199 36874 57008 333 00152 79999;
0173528360999992000011200004+36300+098100FM-12+319299999V0201401N004019999999N0300001N1-01261-02131999999ADDAA106000091GF107991001001999999001021MA1999999068661MD1710081-0101REMSYN076AAXX  12001 52836 32980 71404 11126 21213 36866 57008 80002 333 05152 79999;EQDQ01  00002PRCP06
0127528360999992000011203004+36300+098100FM-12+319299999V0201101N004012200019N0300001N1-00881-02741999999ADDGF102991001001999999001021MA1999999068731MD1210071+9999REMSYN060AAXX  12031 52836 42980 21104 11088 21274 36873 52007 80002;
0186528360999992000011206004+36300+098100FM-12+319299999V0201101N002012200019N0300001N1-00121-02011999999ADDAA106000091GF101991001001999999001021KA1999N-01311MA1999999068581MD1710151-0201REMSYN076AAXX  12061 52836 32980 11102 11012 21201 36858 57015 80002 333 05204 21131;EQDQ01  00002PRCP06
0137528360999992000011209004+36300+098100FM-12+319299999V0209999C000019999999N0300001N1+00121-02341999999ADDGF107991001001999999001021MA1999999068531MD1710051+0021REMSYN070AAXX  12091 52836 42980 70000 10012 21234 36853 57005 80002 333 05205;
0167528360999992000011212004+36300+098100FM-12+319299999V0201101N003010900019N0300001N1-00491-02251999999ADDAA106000091GF107991011051017501001021MA1999999068401MD1710131+0051REMSYN070AAXX  12121 52836 32780 71103 11049 21225 36840 57013 81502 333 05505;EQDQ01  00002PRCP06
0127528360999992000011215004+36300+098100FM-12+319299999V0200901N002010900019N0300001N1-00451-02311999999ADDGF107991021051017501001021MA1999999068201MD1710201+9999REMSYN060AAXX  12151 52836 42780 70902 11045 21231 36820 57020 82502;
0186528360999992000011218004+36300+098100FM-12+319299999V0209999C000019999999N0300001N1-00841-02061999999ADDAA106000091GF107991001001999999001021KA1999M+00181MA1999999068321MD1210121-0501REMSYN076AAXX  12181 52836 32980 70000 11084 21206 36832 52012 80002 333 05503 10018;EQDQ01  00002PRCP06
0137528360999992000011221004+36300+098100FM-12+319299999V0201401N001019999999N0300001N1-00941-01981999999ADDGF107991001001999999001021MA1999999068411MD1210091+0031REMSYN070AAXX  12211 52836 42980 71401 11094 21198 36841 52009 80002 333 05303;
0167528360999992000011300004+36300+098100FM-12+319299999V0201601N002019999999N0300001N1-00751-02091999999ADDAA106000091GF107991001001999999001021MA1999999068381MD1710031+0031REMSYN070AAXX  13001 52836 32980 71602 11075 21209 36838 57003 80002 333 05305;EQDQ01  00002PRCP06
0127528360999992000011303004+36300+098100FM-12+319299999V0209999C000019999999N0300001N1-00541-02221999999ADDGF107991001001999999001021MA1999999068431MD1210051+9999REMSYN060AAXX  13031 52836 42980 70000 11054 21222 36843 52005 80002;
0186528360999992000011306004+36300+098100FM-12+319299999V0203201N002019999999N0300001N1-00181-02191999999ADDAA106000091GF107991001001999999001021KA1999N-01161MA1999999068261MD1710171-0301REMSYN076AAXX  13061 52836 32980 73202 11018 21219 36826 57017 80002 333 05351 21116;EQDQ01  00002PRCP06
0137528360999992000011309004+36300+098100FM-12+319299999V0202501N001019999999N0300001N1-00051-02031999999ADDGF107991001001999999001021MA1999999068121MD1710141+0041REMSYN070AAXX  13091 52836 42980 72501 11005 21203 36812 57014 80002 333 05452;
0177528360999992000011312004+36300+098100FM-12+319299999V0209999C000012200019N0300001N1-00611-01991999999ADDAA106000091GA1001+999999999GF100991001001999999001001MA1999999068111MD1710011+0031REMSYN064AAXX  13121 52836 32980 00000 11061 21199 36811 57001 333 05351;EQDQ01  00002PRCP06
0127528360999992000011315004+36300+098100FM-12+319299999V0200701N002019999999N0300001N1-00441-01871999999ADDGF107991001001999999001021MA1999999067991MD1710121+9999REMSYN060AAXX  13151 52836 42980 70702 11044 21187 36799 57012 80002;
0186528360999992000011318004+36300+098100FM-12+319299999V0201101N004012200019N0300001N1-00261-01781999999ADDAA106000091GF102991001001999999001021KA1999M+00071MA1999999067811MD1710181-0501REMSYN076AAXX  13181 52836 32980 21104 11026 21178 36781 57018 80002 333 05506 10007;EQDQ01  00002PRCP06
0141528360999992000011321004+36300+098100FM-12+319299999V0201101N004019999999N0300001N1-00391-01581999999ADDGF107991001001999999001021MA1999999067711MD1710101+0071REMSYN074    AAXX  13211 52836 42980 71104 11039 21158 36771 57010 80002 333 05706;
0171528360999992000011400004+36300+098100FM-12+319299999V0209999C000019999999N0300001N1-01011-02061999999ADDAA199000091GF107991001001999999001021MA1999999067811MD1210101+0061REMSYN074    AAXX  14001 52836 32980 70000 11101 21206 36781 52010 80002 333 05653;EQDQ01  00002PRCP99
0187528360999992000011401004+36300+098100FM-12+319299999V0209999C000019999999N0300001N1-01011-02061999999ADDAA199000091GF107991001001999999001021MA1999999067811MD1011002+0061REMSYN074    AAXX  14011 52836 32980 70000 11101 21206 36781 5010/ 80002 333 05653;EQDQ01+001002APC3  Q02  00002PRCP99
0131528360999992000011403004+36300+098100FM-12+319299999V0203401N001019999999N0300001N1-00821-02091999999ADDGF107991001001999999001021MA1999999068121MD1210311+9999REMSYN064    AAXX  14031 52836 42980 73401 11082 21209 36812 52031 80002;
0190528360999992000011406004+36300+098100FM-12+319299999V0202501N003019999999N0300001N1-00621-02091999999ADDAA199000091GF107991001001999999001021KA1999N-01271MA1999999068071MD1710051-0201REMSYN080    AAXX  14061 52836 32980 72503 11062 21209 36807 57005 80002 333 05254 21127;EQDQ01  00002PRCP99
0141528360999992000011409004+36300+098100FM-12+319299999V0202901N002019999999N0300001N1-00301-02041999999ADDGF107991001001999999001021MA1999999068151MD1210081+0001REMSYN074    AAXX  14091 52836 42980 72902 11030 21204 36815 52008 80002 333 00053;
0171528360999992000011412004+36300+098100FM-12+319299999V0209999C000019999999N0300001N1-00801-02051999999ADDAA199000091GF106991001001999999001021MA1999999068271MD1210121+0021REMSYN074    AAXX  14121 52836 32980 60000 11080 21205 36827 52012 80002 333 00252;EQDQ01  00002PRCP99
0131528360999992000011415004+36300+098100FM-12+319299999V0201401N001019999999N0300001N1-00861-01961999999ADDGF107991001001999999001021MA1999999068271MD1410001+9999REMSYN064    AAXX  14151 52836 42980 71401 11086 21196 36827 54000 80002;
0190528360999992000011418004+36300+098100FM-12+319299999V0201401N001019999999N0300001N1-00851-01691999999ADDAA199000091GF107991001001999999001021KA1999M-00251MA1999999068231MD1710041+0401REMSYN080    AAXX  14181 52836 32980 71401 11085 21169 36823 57004 80002 333 00456 11025;EQDQ01  00002PRCP99
0141528360999992000011421004+36300+098100FM-12+319299999V0209999C000012200019N0300001N1-01161-01761999999ADDGF102991001001999999001021MA1999999068251MD1210021+0051REMSYN074    AAXX  14211 52836 42980 20000 11116 21176 36825 52002 80002 333 00558;
0131528360999992000011503004+36300+098100FM-12+319299999V0201101N003012200019N0300001N1-00721-01701999999ADDGF102991001001999999001021MA1999999068331MD1210051+9999REMSYN064    AAXX  15031 52836 42980 21103 11072 21170 36833 52005 80002;
0190528360999992000011506004+36300+098100FM-12+319299999V0202701N003019999999N0300001N1-00361-01581999999ADDAA199000091GF107991001001999999001021KA1999N-01371MA1999999068171MD1710161+0101REMSYN080    AAXX  15061 52836 32980 72703 11036 21158 36817 57016 80002 333 00103 21137;EQDQ01  00002PRCP99
0141528360999992000011509004+36300+098100FM-12+319299999V0202501N004019999999N0300001N1-00181-01661999999ADDGF107991001001999999001021MA1999999068071MD1710101+0011REMSYN074    AAXX  15091 52836 42980 72504 11018 21166 36807 57010 80002 333 05101;
0171528360999992000011512004+36300+098100FM-12+319299999V0209999C000012200019N0300001N1-00781-01691999999ADDAA199000091GF102991001001999999001021MA1999999068301MD1210231+0001REMSYN074    AAXX  15121 52836 32980 20000 11078 21169 36830 52023 80002 333 00000;EQDQ01  00002PRCP99
0131528360999992000011515004+36300+098100FM-12+319299999V0209999C000019999999N0300001N1-00911-01741999999ADDGF107991001001999999001021MA1999999068481MD1210181+9999REMSYN064    AAXX  15151 52836 42980 70000 11091 21174 36848 52018 80002;
0190528360999992000011518004+36300+098100FM-12+319299999V0209999C000019999999N0300001N1-01051-01801999999ADDAA199000091GF107991001001999999001021KA1999M-00101MA1999999068611MD1210131+0401REMSYN080    AAXX  15181 52836 32980 70000 11105 21180 36861 52013 80002 333 00452 11010;EQDQ01  00002PRCP99
0170528360999992000011520004+36300+098100FM-12+319299999V0202201N001019999999N0200001N1-01061-01401999999ADDAA124000791GF108991081001999999021999MA1999999068711MD1210101+0501MW1701REMSYN086    AAXX  15201 52836 41970 82201 11106 21140 36871 52010 77000 8802/ 333 00501 79999;
0170528360999992000011521004+36300+098100FM-12+319299999V0202201N001019999999N0200001N1-01061-01401999999ADDAA124000791GF108991081001999999021999MA1999999068711MD1210101+0501MW1701REMSYN086    AAXX  15211 52836 41970 82201 11106 21140 36871 52010 77000 8802/ 333 00501 79999;
0190528360999992000011600004+36300+098100FM-12+319299999V0202201N002019999999N0200001N1-01221-01491999999ADDAA106000191AY171061GF108991081001999999021999MA1999999068841MD1210131+0601MW1701REMSYN098    AAXX  16001 52836 11970 82202 11122 21149 36884 52013 69921 77070 8802/ 333 00600 70002 92500;
0159528360999992000011603004+36300+098100FM-12+319299999V0203601N001019999999N0150001N1-01201-01441999999ADDAY171031AY271031GF108991081001999999011999MA1999999069001MD1210161+9999MW1701REMSYN070    AAXX  16031 52836 41965 83601 11120 21144 36900 52016 77077 8801/;
0205528360999992000011606004+36300+098100FM-12+319299999V0209999C000019999999N0200001N1-01051-01391999999ADDAA106000591AY171061AY271061GF108991081001999999011999KA1999N-01281MA1999999068951MD1710051+0801MW1701REMSYN092    AAXX  16061 52836 11970 80000 11105 21139 36895 57005 69951 77077 8801/ 333 00857 21128;
0161528360999992000011609004+36300+098100FM-12+319299999V0209999C000019999999N0200001N1-00961-01401999999ADDAY171031GF108991081001999999011999MA1999999068881MD1710071+0081MW1701REMSYN080    AAXX  16091 52836 41970 80000 11096 21140 36888 57007 77070 8801/ 333 00858;
0178528360999992000011612004+36300+098100FM-12+319299999V0209999C000019999999N0180001N1-01131-01391999999ADDAA106000191AY171061GF108991081001999999011999MA1999999069011MD1210131+0071MW1701REMSYN086    AAXX  16121 52836 11968 80000 11113 21139 36901 52013 69911 77070 8801/ 333 00754;
0151528360999992000011615004+36300+098100FM-12+319299999V0209999C000019999999N0200001N1-01381-01641999999ADDAY171031GF107991001001999999001081MA1999999069031MD1210021+9999MW1001REMSYN070    AAXX  16151 52836 41970 70000 11138 21164 36903 52002 70070 80008;
0197528360999992000011618004+36300+098100FM-12+319299999V0201101N002019999999N0250001N1-01591-01871999999ADDAA106000791AY171061GF107991001001999999001021KA1999M-00851MA1999999068911MD1710121+0301MW1001REMSYN092    AAXX  16181 52836 11975 71102 11159 21187 36891 57012 69901 70070 80002 333 00355 11085;
0168528360999992000011621004+36300+098100FM-12+319299999V0201101N001012200019N0300001N1-01701-01991999999ADDAA124000891GA1001+999999999GF100991001001999999001001MA1999999068921MD1210011+0201REMSYN074    AAXX  16211 52836 42980 01101 11170 21199 36892 52001 333 00256 70008;
0164528360999992000011700004+36300+098100FM-12+319299999V0209999C000012200019N0300001N1-01741-02081999999ADDAA124000591GF101991001001999999001021MA1999999068891MD1710031+0101REMSYN086    AAXX  17001 52836 32980 10000 11174 21208 36889 57003 80002 333 00155 70006 92501;
0131528360999992000011703004+36300+098100FM-12+319299999V0201101N002019999999N0300001N1-01201-01741999999ADDGF107991001001999999001021MA1999999069051MD1210161+9999REMSYN064    AAXX  17031 52836 42980 71102 11120 21174 36905 52016 80002;
0190528360999992000011706004+36300+098100FM-12+319299999V0209999C000010900019N0300001N1-00781-01641999999ADDAA199000091GF107991011011012501001021KA1999N-01841MA1999999069021MD1710031+0101REMSYN080    AAXX  17061 52836 32680 70000 11078 21164 36902 57003 81102 333 00103 21184;EQDQ01  00002PRCP99
0141528360999992000011709004+36300+098100FM-12+319299999V0202901N001010900019N0250001N1-00751-01541999999ADDGF107991011011012501001021MA1999999069131MD1210111+0031REMSYN074    AAXX  17091 52836 42675 72901 11075 21154 36913 52011 81102 333 00302;
0171528360999992000011712004+36300+098100FM-12+319299999V0209999C000019999999N0300001N1-01141-01511999999ADDAA199000091GF107991001001999999001021MA1999999069251MD1210121+0021REMSYN074    AAXX  17121 52836 32980 70000 11114 21151 36925 52012 80002 333 00200;EQDQ01  00002PRCP99
0131528360999992000011715004+36300+098100FM-12+319299999V0209999C000012200019N0300001N1-01331-01661999999ADDGF102991001001999999001021MA1999999069361MD1210111+9999REMSYN064    AAXX  17151 52836 42980 20000 11133 21166 36936 52011 80002;
0190528360999992000011718004+36300+098100FM-12+319299999V0201101N002012200019N0300001N1-01411-01721999999ADDAA199000091GF101991001001999999001021KA1999M-00671MA1999999069331MD1710031+0401REMSYN080    AAXX  17181 52836 32980 11102 11141 21172 36933 57003 80002 333 00402 11067;EQDQ01  00002PRCP99
0151528360999992000011721004+36300+098100FM-12+319299999V0201401N002012200019N0300001N1-01481-01841999999ADDGA1001+999999999GF100991001001999999001001MA1999999069341MD1210011+0041REMSYN068    AAXX  17211 52836 42980 01402 11148 21184 36934 52001 333 00402;
0177528360999992000011800004+36300+098100FM-12+319299999V0201101N002012200019N0300001N1-01531-01901999999ADDAA199000091GF101991011051017501001001MA1999999069381MD1210041+0501REMSYN080    AAXX  18001 52836 32780 11102 11153 21190 36938 52004 81500 333 00502 92500;EQDQ01  00002PRCP99
0141528360999992000011803004+36300+098100FM-12+319299999V0200901N004012200019N0300001N1-01131-01711999999ADDGA1001+999999999GF100991001001999999001001MA1999999069511MD1210131+9999REMSYN058    AAXX  18031 52836 42980 00904 11113 21171 36951 52013;
0190528360999992000011806004+36300+098100FM-12+319299999V0209999C000012200019N0300001N1-00511-02081999999ADDAA199000091GF101991011011012501001001KA1999N-01691MA1999999069351MD1710161+0301REMSYN080    AAXX  18061 52836 32680 10000 11051 21208 36935 57016 81100 333 00303 21169;EQDQ01  00002PRCP99
0141528360999992000011809004+36300+098100FM-12+319299999V0209999C000012200019N0300001N1-00511-01921999999ADDGF101991001001999999001021MA1999999069241MD1710111+0011REMSYN074    AAXX  18091 52836 42980 10000 11051 21192 36924 57011 80002 333 00102;
0181528360999992000011812004+36300+098100FM-12+319299999V0209999C000012200019N0300001N1-01101-02091999999ADDAA199000091GA1001+999999999GF100991001001999999001001MA1999999069111MD1710131+0011REMSYN068    AAXX  18121 52836 32980 00000 11110 21209 36911 57013 333 05100;EQDQ01  00002PRCP99
0141528360999992000011815004+36300+098100FM-12+319299999V0201401N002012200019N0300001N1-01381-02131999999ADDGA1001+999999999GF100991001001999999001001MA1999999069111MD1410001+9999REMSYN058    AAXX  18151 52836 42980 01402 11138 21213 36911 54000;
0190528360999992000011818004+36300+098100FM-12+319299999V0201401N003012200019N0300001N1-01361-02201999999ADDAA199000091GF101991001001999999001021KA1999M-00401MA1999999069051MD1710061-0301REMSYN080    AAXX  18181 52836 32980 11403 11136 21220 36905 57006 80002 333 05301 11040;EQDQ01  00002PRCP99
0141528360999992000011821004+36300+098100FM-12+319299999V0201401N003019999999N0300001N1-01441-02351999999ADDGF107991001001999999001021MA1999999068961MD1710091+0041REMSYN074    AAXX  18211 52836 42980 71403 11144 21235 36896 57009 80002 333 05400;
0177528360999992000011900004+36300+098100FM-12+319299999V0201401N004019999999N0300001N1-01351-02371999999ADDAA199000091GF107991001001999999001021MA1999999068831MD1710131-0601REMSYN080    AAXX  19001 52836 32980 71404 11135 21237 36883 57013 80002 333 05602 92500;EQDQ01  00002PRCP99
0131528360999992000011903004+36300+098100FM-12+319299999V0201101N004012200019N0300001N1-00851-02901999999ADDGF102991001001999999001021MA1999999068751MD1710081+9999REMSYN064    AAXX  19031 52836 42980 21104 11085 21290 36875 57008 80002;
0190528360999992000011906004+36300+098100FM-12+319299999V0201101N005012200019N0300001N1-00121-02181999999ADDAA199000091GF102991001001999999001021KA1999N-01601MA1999999068461MD1710291-0901REMSYN080    AAXX  19061 52836 32980 21105 11012 21218 36846 57029 80002 333 05904 21160;EQDQ01  00002PRCP99
0141528360999992000011909004+36300+098100FM-12+319299999V0201101N002019999999N0300001N1-00101-02111999999ADDGF107991001001999999001021MA1999999068311MD1710151+0091REMSYN074    AAXX  19091 52836 42980 71102 11010 21211 36831 57015 80002 333 05904;
0171528360999992000011912004+36300+098100FM-12+319299999V0201101N001019999999N0300001N1-00271-02121999999ADDAA199000091GF108991081001999999011999MA1999999068291MD1710021+0081REMSYN074    AAXX  19121 52836 32980 81101 11027 21212 36829 57002 8801/ 333 05808;EQDQ01  00002PRCP99
0127528360999992000011915004+36300+098100FM-12+319299999V0209999C000019999999N0300001N1-00481-01651999999ADDGF107991001001999999001021MA1999999068331MD1210041+9999REMSYN060AAXX  19151 52836 42980 70000 11048 21165 36833 52004 80002;
0186528360999992000011918004+36300+098100FM-12+319299999V0201401N001019999999N0300001N1-00701-02121999999ADDAA199000091GF107991001001999999001021KA1999M+00051MA1999999068081MD1710251-1001REMSYN076AAXX  19181 52836 32980 71401 11070 21212 36808 57025 80002 333 06007 10005;EQDQ01  00002PRCP99
0137528360999992000011921004+36300+098100FM-12+319299999V0202201N002019999999N0300001N1-00981-02121999999ADDGF107991001001999999001021MA1999999067991MD1710091+0101REMSYN070AAXX  19211 52836 42980 72202 11098 21212 36799 57009 80002 333 06005;
0167528360999992000012000004+36300+098100FM-12+319299999V0202901N002019999999N0300001N1-01021-02091999999ADDAA199000091GF108991081001999999021999MA1999999068141MD1210151+0071REMSYN070AAXX  20001 52836 32980 82902 11102 21209 36814 52015 8802/ 333 05703;EQDQ01  00002PRCP99
0127528360999992000012003004+36300+098100FM-12+319299999V0202701N002019999999N0300001N1-00961-02421999999ADDGF107991001001999999001021MA1999999068421MD1210281+9999REMSYN060AAXX  20031 52836 42980 72702 11096 21242 36842 52028 80002;
0186528360999992000012006004+36300+098100FM-12+319299999V0202201N003019999999N0300001N1-00831-02371999999ADDAA199000091GF107991001001999999001021KA1999N-01171MA1999999068381MD1710041-0101REMSYN076AAXX  20061 52836 32980 72203 11083 21237 36838 57004 80002 333 05157 21117;EQDQ01  00002PRCP99
0157528360999992000012009004+36300+098100FM-12+319299999V0202501N004019999999N0120001N1-00901-01661999999ADDAY171031GF108991081001999999011999MA1999999068431MD1210051+0011MW1701REMSYN076AAXX  20091 52836 41962 82504 11090 21166 36843 52005 77070 8801/ 333 00158;
0174528360999992000012012004+36300+098100FM-12+319299999V0209999C000019999999N0200001N1-01001-01461999999ADDAA106000791AY171061GF108991081001999999021999MA1999999068521MD1210091+0021MW1701REMSYN082AAXX  20121 52836 11970 80000 11100 21146 36852 52009 69901 77070 8802/ 333 00257;
0155528360999992000012015004+36300+098100FM-12+319299999V0201101N003019999999N0200001N1-01031-01391999999ADDAY171031AY271031GF108991081001999999021999MA1999999068621MD1210101+9999MW1701REMSYN066AAXX  20151 52836 41970 81103 11103 21139 36862 52010 77077 8802/;
0201528360999992000012018004+36300+098100FM-12+319299999V0209999C000019999999N0150001N1-01071-01361999999ADDAA106000191AY171061AY271061GF108991081001999999011999KA1999M-00531MA1999999068611MD1710011+0501MW1701REMSYN088AAXX  20181 52836 11965 80000 11107 21136 36861 57001 69921 77077 8801/ 333 00554 11053;
0182528360999992000012021004+36300+098100FM-12+319299999V0209999C000019999999N0150001N1-01161-01381999999ADDAA124000591AY171031AY271031GF108991081001999999011999MA1999999068681MD1210071+0701MW1701REMSYN082AAXX  20211 52836 41965 80000 11116 21138 36868 52007 77077 8801/ 333 00752 70004;
0194528360999992000012100004+36300+098100FM-12+319299999V0209999C000019999999N0200001N1-01381-01591999999ADDAA106000591AY171061AY271061GF107991001001999999001021MA1999999068721MD1210041+0601MW1701REMSYN094AAXX  21001 52836 11970 70000 11138 21159 36872 52004 69951 77077 80002 333 00654 70007 92501;
0147528360999992000012103004+36300+098100FM-12+319299999V0201101N004019999999N0300001N1-01101-01541999999ADDAY171031GF107991001001999999001021MA1999999068761MD1210041+9999MW1001REMSYN066AAXX  21031 52836 41980 71104 11110 21154 36876 52004 70070 80002;
0193528360999992000012106004+36300+098100FM-12+319299999V0202201N002010900019N0300001N1-00551-01621999999ADDAA106000191AY171061GF107991011011012501001021KA1999N-01541MA1999999068701MD1710061+0301MW1001REMSYN088AAXX  21061 52836 11680 72202 11055 21162 36870 57006 69911 70070 81102 333 00303 21154;
0157528360999992000012109004+36300+098100FM-12+319299999V0202201N001010900019N0300001N1-00561-01581999999ADDAY171031GF107991021051017501001021MA1999999068761MD1210061+0031MW1001REMSYN076AAXX  21091 52836 41780 72201 11056 21158 36876 52006 70070 82502 333 00303;
0174528360999992000012112004+36300+098100FM-12+319299999V0209999C000019999999N0200001N1-01011-01301999999ADDAA106000791AY171061GF107991001001999999001021MA1999999068861MD1210101+0031MW1701REMSYN082AAXX  21121 52836 11970 70000 11101 21130 36886 52010 69901 77070 80002 333 00300;
0157528360999992000012115004+36300+098100FM-12+319299999V0201101N002012200019N0300001N1-01341-01701999999ADDAY171031GA1001+999999999GF100991001001999999001001MA1999999068831MD1710031+9999MW1001REMSYN060AAXX  21151 52836 41980 01102 11134 21170 36883 57003 70070;
0203528360999992000012118004+36300+098100FM-12+319299999V0201101N003012200019N0300001N1-01311-01881999999ADDAA106000791AY171061GA1001+999999999GF100991001001999999001001KA1999M-00481MA1999999068721MD1710111+0101MW1001REMSYN082AAXX  21181 52836 11980 01103 11131 21188 36872 57011 69901 70070 333 00152 11048;
0164528360999992000012121004+36300+098100FM-12+319299999V0201401N004012200019N0300001N1-01361-02091999999ADDAA124000591GA1001+999999999GF100991001001999999001001MA1999999068601MD1710121-0101REMSYN070AAXX  21211 52836 42980 01404 11136 21209 36860 57012 333 05152 70004;
0170528360999992000012200004+36300+098100FM-12+319299999V0201101N003012200019N0300001N1-01451-02261999999ADDAA124000191GA1001+999999999GF100991001001999999001001MA1999999068571MD1710031-0201REMSYN076AAXX  22001 52836 32980 01103 11145 21226 36857 57003 333 05251 70001 92500;
0137528360999992000012203004+36300+098100FM-12+319299999V0201101N003012200019N0300001N1-01021-02071999999ADDGA1001+999999999GF100991001001999999001001MA1999999068701MD1210131+9999REMSYN054AAXX  22031 52836 42980 01103 11102 21207 36870 52013;
0186528360999992000012206004+36300+098100FM-12+319299999V0209999C000019999999N0300001N1-00421-02061999999ADDAA199000091GF105991001001999999001021KA1999N-01501MA1999999068571MD1710131-0101REMSYN076AAXX  22061 52836 32980 50000 11042 21206 36857 57013 80002 333 05101 21150;EQDQ01  00002PRCP99
0137528360999992000012209004+36300+098100FM-12+319299999V0202501N002012200019N0300001N1-00421-01781999999ADDGF103991001001999999001021MA1999999068601MD1210031+0021REMSYN070AAXX  22091 52836 42980 32502 11042 21178 36860 52003 80002 333 05201;
0167528360999992000012212004+36300+098100FM-12+319299999V0209999C000012200019N0300001N1-01001-01891999999ADDAA199000091GF101991001001999999001021MA1999999068681MD1210081+0021REMSYN070AAXX  22121 52836 32980 10000 11100 21189 36868 52008 80002 333 05200;EQDQ01  00002PRCP99
0137528360999992000012215004+36300+098100FM-12+319299999V0200901N002012200019N0300001N1-01421-02111999999ADDGA1001+999999999GF100991001001999999001001MA1999999068701MD1210021+9999REMSYN054AAXX  22151 52836 42980 00902 11142 21211 36870 52002;
0186528360999992000012218004+36300+098100FM-12+319299999V0201101N004012200019N0300001N1-01301-02201999999ADDAA199000091GF101991001001999999001021KA1999M-00301MA1999999068631MD1710071-0101REMSYN076AAXX  22181 52836 32980 11104 11130 21220 36863 57007 80002 333 05100 11030;EQDQ01  00002PRCP99
0137528360999992000012221004+36300+098100FM-12+319299999V0201101N004019999999N0300001N1-01331-02321999999ADDGF106991001001999999001021MA1999999068531MD1710101+0011REMSYN070AAXX  22211 52836 42980 61104 11133 21232 36853 57010 80002 333 05100;
0167528360999992000012300004+36300+098100FM-12+319299999V0201101N005012200019N0300001N1-01371-02411999999ADDAA199000091GF101991001001999999001021MA1999999068461MD1710071+0011REMSYN070AAXX  23001 52836 32980 11105 11137 21241 36846 57007 80002 333 05101;EQDQ01  00002PRCP99
0137528360999992000012303004+36300+098100FM-12+319299999V0201101N004012200019N0300001N1-00791-02801999999ADDGA1001+999999999GF100991001001999999001001MA1999999068441MD1710021+9999REMSYN054AAXX  23031 52836 42980 01104 11079 21280 36844 57002;
0186528360999992000012306004+36300+098100FM-12+319299999V0202501N008012200019N0300001N1-00761-02191999999ADDAA199000091GF101991001001999999001021KA1999N-01471MA1999999068491MD1210051-0101REMSYN076AAXX  23061 52836 32980 12508 11076 21219 36849 52005 80002 333 05153 21147;EQDQ01  00002PRCP99
0137528360999992000012309004+36300+098100FM-12+319299999V0202201N002019999999N0300001N1-00731-02211999999ADDGF107991001001999999001021MA1999999068791MD1210301+0021REMSYN070AAXX  23091 52836 42980 72202 11073 21221 36879 52030 80002 333 00253;
0167528360999992000012312004+36300+098100FM-12+319299999V0209999C000012200019N0300001N1-01131-02171999999ADDAA199000091GF101991001001999999001021MA1999999069001MD1210211+0031REMSYN070AAXX  23121 52836 32980 10000 11113 21217 36900 52021 80002 333 00351;EQDQ01  00002PRCP99
0127528360999992000012315004+36300+098100FM-12+319299999V0209999C000012200019N0300001N1-01451-02261999999ADDGF101991001001999999001021MA1999999069121MD1210121+9999REMSYN060AAXX  23151 52836 42980 10000 11145 21226 36912 52012 80002;
0196528360999992000012318004+36300+098100FM-12+319299999V0209999C000012200019N0300001N1-01661-02331999999ADDAA199000091GA1001+999999999GF100991001001999999001001KA1999M-00141MA1999999069171MD1210051+0501REMSYN070AAXX  23181 52836 32980 00000 11166 21233 36917 52005 333 00554 11014;EQDQ01  00002PRCP99
0147528360999992000012321004+36300+098100FM-12+319299999V0209999C000012200019N0300001N1-01781-02431999999ADDGA1001+999999999GF100991001001999999001001MA1999999069151MD1710021+0061REMSYN064AAXX  23211 52836 42980 00000 11178 21243 36915 57002 333 00655;
0177528360999992000012400004+36300+098100FM-12+319299999V0201401N005012200019N0300001N1-01621-02361999999ADDAA199000091GA1001+999999999GF100991001001999999001001MA1999999069221MD1210071+0081REMSYN064AAXX  24001 52836 32980 01405 11162 21236 36922 52007 333 00853;EQDQ01  00002PRCP99
0137528360999992000012403004+36300+098100FM-12+319299999V0201101N003012200019N0300001N1-01191-02201999999ADDGA1001+999999999GF100991001001999999001001MA1999999069341MD1210121+9999REMSYN054AAXX  24031 52836 42980 01103 11119 21220 36934 52012;
0196528360999992000012406004+36300+098100FM-12+319299999V0201401N003012200019N0300001N1-00461-02381999999ADDAA199000091GA1001+999999999GF100991001001999999001001KA1999N-01841MA1999999069181MD1710161+0701REMSYN070AAXX  24061 52836 32980 01403 11046 21238 36918 57016 333 00703 21184;EQDQ01  00002PRCP99
0147528360999992000012409004+36300+098100FM-12+319299999V0200901N003012200019N0300001N1-00431-02381999999ADDGA1001+999999999GF100991001001999999001001MA1999999069081MD1710101+0031REMSYN064AAXX  24091 52836 42980 00903 11043 21238 36908 57010 333 00303;
0177528360999992000012412004+36300+098100FM-12+319299999V0200701N002012200019N0300001N1-00921-02531999999ADDAA199000091GA1001+999999999GF100991001001999999001001MA1999999069121MD1210041+0011REMSYN064AAXX  24121 52836 32980 00702 11092 21253 36912 52004 333 00102;EQDQ01  00002PRCP99
0137528360999992000012415004+36300+098100FM-12+319299999V0209999C000012200019N0300001N1-01331-02591999999ADDGA1001+999999999GF100991001001999999001001MA1999999069141MD1210021+9999REMSYN054AAXX  24151 52836 42980 00000 11133 21259 36914 52002;
0186528360999992000012418004+36300+098100FM-12+319299999V0201101N001012200019N0300001N1-01421-02491999999ADDAA199000091GF101991001001999999001021KA1999M-00361MA1999999069231MD1210091+0101REMSYN076AAXX  24181 52836 32980 11101 11142 21249 36923 52009 80002 333 00102 11036;EQDQ01  00002PRCP99
0137528360999992000012421004+36300+098100FM-12+319299999V0209999C000019999999N0300001N1-01481-02541999999ADDGF108991001001999999001071MA1999999069261MD1210031+0011REMSYN070AAXX  24211 52836 42980 80000 11148 21254 36926 52003 80007 333 00103;
0167528360999992000012500004+36300+098100FM-12+319299999V0201101N002019999999N0300001N1-01451-02511999999ADDAA199000091GF107991001001999999001021MA1999999069331MD1210071+0011REMSYN070AAXX  25001 52836 32980 71102 11145 21251 36933 52007 80002 333 00102;EQDQ01  00002PRCP99
0127528360999992000012503004+36300+098100FM-12+319299999V0201101N002019999999N0300001N1-01101-02281999999ADDGF107991001001999999001021MA1999999069461MD1210131+9999REMSYN060AAXX  25031 52836 42980 71102 11110 21228 36946 52013 80002;
0186528360999992000012506004+36300+098100FM-12+319299999V0202901N001019999999N0300001N1-00431-02391999999ADDAA199000091GF107991001001999999001021KA1999N-01591MA1999999069381MD1710081+0201REMSYN076AAXX  25061 52836 32980 72901 11043 21239 36938 57008 80002 333 00200 21159;EQDQ01  00002PRCP99
0137528360999992000012509004+36300+098100FM-12+319299999V0202501N002019999999N0300001N1-00461-02391999999ADDGF107991001001999999001021MA1999999069431MD1210051+0041REMSYN070AAXX  25091 52836 42980 72502 11046 21239 36943 52005 80002 333 00400;
0167528360999992000012512004+36300+098100FM-12+319299999V0209999C000012200019N0300001N1-01051-02771999999ADDAA199000091GF101991001001999999001021MA1999999069541MD1210111+0041REMSYN070AAXX  25121 52836 32980 10000 11105 21277 36954 52011 80002 333 00451;EQDQ01  00002PRCP99
0137528360999992000012515004+36300+098100FM-12+319299999V0201101N001012200019N0300001N1-01261-02461999999ADDGA1001+999999999GF100991001001999999001001MA1999999069561MD1210021+9999REMSYN054AAXX  25151 52836 42980 01101 11126 21246 36956 52002;
0186528360999992000012518004+36300+098100FM-12+319299999V0201401N003012200019N0300001N1-01271-02531999999ADDAA199000091GF101991001001999999001021KA1999M-00401MA1999999069431MD1710131+0201REMSYN076AAXX  25181 52836 32980 11403 11127 21253 36943 57013 80002 333 00202 11040;EQDQ01  00002PRCP99
0137528360999992000012521004+36300+098100FM-12+319299999V0201101N003012200019N0300001N1-01361-02641999999ADDGF101991001001999999001021MA1999999069341MD1710091+0011REMSYN070AAXX  25211 52836 42980 11103 11136 21264 36934 57009 80002 333 00101;
0177528360999992000012600004+36300+098100FM-12+319299999V0201401N002012200019N0300001N1-01421-02671999999ADDAA199000091GA1001+999999999GF100991001001999999001001MA1999999069301MD1710041+0001REMSYN064AAXX  26001 52836 32980 01402 11142 21267 36930 57004 333 00000;EQDQ01  00002PRCP99
0137528360999992000012603004+36300+098100FM-12+319299999V0201101N004012200019N0300001N1-00991-02881999999ADDGA1001+999999999GF100991001001999999001001MA1999999069351MD1210051+9999REMSYN054AAXX  26031 52836 42980 01104 11099 21288 36935 52005;
0196528360999992000012606004+36300+098100FM-12+319299999V0201101N004012200019N0300001N1-00331-02561999999ADDAA199000091GA1001+999999999GF100991001001999999001001KA1999N-01461MA1999999069131MD1710221-0301REMSYN070AAXX  26061 52836 32980 01104 11033 21256 36913 57022 333 05301 21146;EQDQ01  00002PRCP99
0137528360999992000012609004+36300+098100FM-12+319299999V0209999C000012200019N0300001N1+00061-02561999999ADDGF102991001001999999001021MA1999999069031MD1710101+0041REMSYN070AAXX  26091 52836 42980 20000 10006 21256 36903 57010 80002 333 05405;
0167528360999992000012612004+36300+098100FM-12+319299999V0209999C000012200019N0300001N1-00721-02281999999ADDAA199000091GF101991001001999999001021MA1999999069031MD1410001+0051REMSYN070AAXX  26121 52836 32980 10000 11072 21228 36903 54000 80002 333 05503;EQDQ01  00002PRCP99
0127528360999992000012615004+36300+098100FM-12+319299999V0201101N003012200019N0300001N1-00881-02241999999ADDGF101991001001999999001021MA1999999069011MD1710021+9999REMSYN060AAXX  26151 52836 42980 11103 11088 21224 36901 57002 80002;
0186528360999992000012618004+36300+098100FM-12+319299999V0201101N002012200019N0300001N1-01041-02261999999ADDAA199000091GF103991001001999999001021KA1999M+00111MA1999999068901MD1710111-0501REMSYN076AAXX  26181 52836 32980 31102 11104 21226 36890 57011 80002 333 05502 10011;EQDQ01  00002PRCP99
0137528360999992000012621004+36300+098100FM-12+319299999V0201401N002012200019N0300001N1-01101-02281999999ADDGF103991001001999999001021MA1999999068851MD1710051+0051REMSYN070AAXX  26211 52836 42980 31402 11110 21228 36885 57005 80002 333 05503;
0167528360999992000012700004+36300+098100FM-12+319299999V0209999C000019999999N0300001N1-01461-02471999999ADDAA199000091GF107991001001999999001021MA1999999068971MD1210121+0031REMSYN070AAXX  27001 52836 32980 70000 11146 21247 36897 52012 80002 333 05300;EQDQ01  00002PRCP99
0127528360999992000012703004+36300+098100FM-12+319299999V0209999C000019999999N0300001N1-00851-02351999999ADDGF107991001001999999001021MA1999999069111MD1210141+9999REMSYN060AAXX  27031 52836 42980 70000 11085 21235 36911 52014 80002;
0186528360999992000012706004+36300+098100FM-12+319299999V0202901N002019999999N0300001N1-00581-02561999999ADDAA199000091GF107991001001999999001021KA1999N-01541MA1999999068931MD1710181-0201REMSYN076AAXX  27061 52836 32980 72902 11058 21256 36893 57018 80002 333 05253 21154;EQDQ01  00002PRCP99
0137528360999992000012709004+36300+098100FM-12+319299999V0202701N002019999999N0300001N1-00411-02401999999ADDGF107991001001999999001021MA1999999068791MD1710141+0021REMSYN070AAXX  27091 52836 42980 72702 11041 21240 36879 57014 80002 333 05255;
0167528360999992000012712004+36300+098100FM-12+319299999V0209999C000012200019N0300001N1-00821-02261999999ADDAA199000091GF102991001001999999001021MA1999999068851MD1210061+0021REMSYN070AAXX  27121 52836 32980 20000 11082 21226 36885 52006 80002 333 05251;EQDQ01  00002PRCP99
0137528360999992000012715004+36300+098100FM-12+319299999V0209999C000012200019N0300001N1-01371-02471999999ADDGA1001+999999999GF100991001001999999001001MA1999999068921MD1210071+9999REMSYN054AAXX  27151 52836 42980 00000 11137 21247 36892 52007;
0186528360999992000012718004+36300+098100FM-12+319299999V0201401N001012200019N0300001N1-01561-02371999999ADDAA199000091GF101991001001999999001021KA1999M-00351MA1999999068871MD1710051+0001REMSYN076AAXX  27181 52836 32980 11401 11156 21237 36887 57005 80002 333 00055 11035;EQDQ01  00002PRCP99
0137528360999992000012721004+36300+098100FM-12+319299999V0201601N001012200019N0300001N1-01651-02321999999ADDGF101991001001999999001021MA1999999068801MD1710071+0011REMSYN070AAXX  27211 52836 42980 11601 11165 21232 36880 57007 80002 333 05156;
0167528360999992000012800004+36300+098100FM-12+319299999V0201601N002012200019N0300001N1-01601-02321999999ADDAA199000091GF101991001001999999001021MA1999999068901MD1210101+0011REMSYN070AAXX  28001 52836 32980 11602 11160 21232 36890 52010 80002 333 05151;EQDQ01  00002PRCP99
0127528360999992000012803004+36300+098100FM-12+319299999V0201401N002012200019N0300001N1-00941-02391999999ADDGF102991001001999999001021MA1999999069051MD1210151+9999REMSYN060AAXX  28031 52836 42980 21402 11094 21239 36905 52015 80002;
0186528360999992000012806004+36300+098100FM-12+319299999V0202201N003012200019N0300001N1-00461-03011999999ADDAA199000091GF101991001001999999001021KA1999N-01701MA1999999068961MD1710091+0001REMSYN076AAXX  28061 52836 32980 12203 11046 21301 36896 57009 80002 333 00001 21170;EQDQ01  00002PRCP99
0137528360999992000012809004+36300+098100FM-12+319299999V0202501N002019999999N0300001N1-00451-02671999999ADDGF106991001001999999001021MA1999999068961MD1410001+0021REMSYN070AAXX  28091 52836 42980 62502 11045 21267 36896 54000 80002 333 00200;
0177528360999992000012812004+36300+098100FM-12+319299999V0209999C000012200019N0300001N1-01021-02381999999ADDAA199000091GA1001+999999999GF100991001001999999001001MA1999999069111MD1210151+0031REMSYN064AAXX  28121 52836 32980 00000 11102 21238 36911 52015 333 00352;EQDQ01  00002PRCP99
0127528360999992000012815004+36300+098100FM-12+319299999V0209999C000012200019N0300001N1-01381-02421999999ADDGF101991001001999999001021MA1999999069191MD1210081+9999REMSYN060AAXX  28151 52836 42980 10000 11138 21242 36919 52008 80002;
0196528360999992000012818004+36300+098100FM-12+319299999V0209999C000012200019N0300001N1-01501-02451999999ADDAA199000091GA1001+999999999GF100991001001999999001001KA1999M-00351MA1999999069161MD1710031+0301REMSYN070AAXX  28181 52836 32980 00000 11150 21245 36916 57003 333 00301 11035;EQDQ01  00002PRCP99
0147528360999992000012821004+36300+098100FM-12+319299999V0209999C000012200019N0300001N1-01481-02411999999ADDGA1001+999999999GF100991001001999999001001MA1999999069201MD1210041+0041REMSYN064AAXX  28211 52836 42980 00000 11148 21241 36920 52004 333 00402;
0177528360999992000012900004+36300+098100FM-12+319299999V0209999C000012200019N0300001N1-01601-02471999999ADDAA199000091GA1001+999999999GF100991001001999999001001MA1999999069291MD1210091+0041REMSYN064AAXX  29001 52836 32980 00000 11160 21247 36929 52009 333 00400;EQDQ01  00002PRCP99
0127528360999992000012903004+36300+098100FM-12+319299999V0201101N003012200019N0300001N1-01021-02151999999ADDGF101991001001999999001021MA1999999069361MD1210071+9999REMSYN060AAXX  29031 52836 42980 11103 11102 21215 36936 52007 80002;
0186528360999992000012906004+36300+098100FM-12+319299999V0209999C000012200019N0300001N1-00431-02601999999ADDAA199000091GF104991001001999999001021KA1999N-01701MA1999999069201MD1710161+0201REMSYN076AAXX  29061 52836 32980 40000 11043 21260 36920 57016 80002 333 00200 21170;EQDQ01  00002PRCP99
0137528360999992000012909004+36300+098100FM-12+319299999V0202701N002012200019N0300001N1-00411-02411999999ADDGF102991001001999999001021MA1999999069071MD1710131+0011REMSYN070AAXX  29091 52836 42980 22702 11041 21241 36907 57013 80002 333 00100;
0167528360999992000012912004+36300+098100FM-12+319299999V0201101N002012200019N0300001N1-00911-02861999999ADDAA199000091GF101991001001999999001021MA1999999069131MD1210061+0001REMSYN070AAXX  29121 52836 32980 11102 11091 21286 36913 52006 80002 333 00001;EQDQ01  00002PRCP99
0137528360999992000012915004+36300+098100FM-12+319299999V0201401N001012200019N0300001N1-01331-02591999999ADDGA1001+999999999GF100991001001999999001001MA1999999069161MD1210031+9999REMSYN054AAXX  29151 52836 42980 01401 11133 21259 36916 52003;
0196528360999992000012918004+36300+098100FM-12+319299999V0201101N001012200019N0300001N1-01461-02641999999ADDAA199000091GA1001+999999999GF100991001001999999001001KA1999M-00281MA1999999069091MD1710071-0101REMSYN070AAXX  29181 52836 32980 01101 11146 21264 36909 57007 333 05100 11028;EQDQ01  00002PRCP99
0137528360999992000012921004+36300+098100FM-12+319299999V0201401N002019999999N0300001N1-01331-02591999999ADDGF107991001001999999001021MA1999999069021MD1710071+0021REMSYN070AAXX  29211 52836 42980 71402 11133 21259 36902 57007 80002 333 05202;
0167528360999992000013000004+36300+098100FM-12+319299999V0202201N002019999999N0300001N1-01481-02541999999ADDAA199000091GF107991001001999999001021MA1999999069341MD1210321+0011REMSYN070AAXX  30001 52836 32980 72202 11148 21254 36934 52032 80002 333 00101;EQDQ01  00002PRCP99
0147528360999992000013003004+36300+098100FM-12+319299999V0201601N001019999999N0090001N1-01401-01701999999ADDAY171031GF108991081001999999021999MA1999999069501MD1210161+9999MW1701REMSYN066AAXX  30031 52836 41959 81601 11140 21170 36950 52016 77070 8802/;
0193528360999992000013006004+36300+098100FM-12+319299999V0202501N003019999999N0070001N1-01261-01501999999ADDAA106002091AY171061GF108991081001999999021999KA1999N-01561MA1999999069461MD1710041+0301MW1701REMSYN088AAXX  30061 52836 11957 82503 11126 21150 36946 57004 60021 77070 8802/ 333 00358 21156;
0165528360999992000013009004+36300+098100FM-12+319299999V0202701N003019999999N0150001N1-01171-01771999999ADDAY171031AY271031GF108991081001999999021999MA1999999069411MD1710051+0031MW1221REMSYN076AAXX  30091 52836 41965 82703 11117 21177 36941 57005 72277 8802/ 333 00358;
0174528360999992000013012004+36300+098100FM-12+319299999V0202001N002010900019N0300001N1-01391-02021999999ADDAA106000391AY171061GF107991021051017501001021MA1999999069431MD1210021+0031MW1001REMSYN082AAXX  30121 52836 11780 72002 11139 21202 36943 52002 69931 70070 82502 333 00355;
0137528360999992000013015004+36300+098100FM-12+319299999V0209999C000012200019N0300001N1-01851-02291999999ADDGA1001+999999999GF100991001001999999001001MA1999999069391MD1710041+9999REMSYN054AAXX  30151 52836 42980 00000 11185 21229 36939 57004;
0177528360999992000013018004+36300+098100FM-12+319299999V0201401N002012200019N0300001N1-01811-02161999999ADDAA199000021GA1001+999999999GF100991001001999999001001KA1999M-01161MA1999999069211MD1710181+0101REMSYN070AAXX  30181 52836 32980 01402 11181 21216 36921 57018 333 00154 11116;
0164528360999992000013021004+36300+098100FM-12+319299999V0201101N003012200019N0300001N1-01811-02321999999ADDAA124002591GA1001+999999999GF100991001001999999001001MA1999999068941MD1710271-0101REMSYN070AAXX  30211 52836 42980 01103 11181 21232 36894 57027 333 05155 70026;
0170528360999992000013100004+36300+098100FM-12+319299999V0201101N003012200019N0300001N1-01941-02521999999ADDAA124002591GA1001+999999999GF100991001001999999001001MA1999999068841MD1710101-0501REMSYN076AAXX  31001 52836 32980 01103 11194 21252 36884 57010 333 05555 70026 92502;
0137528360999992000013103004+36300+098100FM-12+319299999V0201101N004012200019N0300001N1-01641-02421999999ADDGA1001+999999999GF100991001001999999001001MA1999999068861MD1210021+9999REMSYN054AAXX  31031 52836 42980 01104 11164 21242 36886 52002;
0196528360999992000013106004+36300+098100FM-12+319299999V0200901N001012200019N0300001N1-00971-02111999999ADDAA199000091GA1001+999999999GF100991001001999999001001KA1999N-02091MA1999999068811MD1710051-0701REMSYN070AAXX  31061 52836 32980 00901 11097 21211 36881 57005 333 05703 21209;EQDQ01  00002PRCP99
0147528360999992000013109004+36300+098100FM-12+319299999V0200201N001012200019N0300001N1-00951-02071999999ADDGA1001+999999999GF100991001001999999001001MA1999999068801MD1710011+0061REMSYN064AAXX  31091 52836 42980 00201 11095 21207 36880 57001 333 05602;
0177528360999992000013112004+36300+098100FM-12+319299999V0209999C000012200019N0300001N1-01521-02451999999ADDAA199000091GA1001+999999999GF100991001001999999001001MA1999999068831MD1210031+0061REMSYN064AAXX  31121 52836 32980 00000 11152 21245 36883 52003 333 05651;EQDQ01  00002PRCP99
0137528360999992000013115004+36300+098100FM-12+319299999V0201401N004012200019N0300001N1-01481-02541999999ADDGA1001+999999999GF100991001001999999001001MA1999999068831MD1410001+9999REMSYN054AAXX  31151 52836 42980 01404 11148 21254 36883 54000;
0196528360999992000013118004+36300+098100FM-12+319299999V0201101N004012200019N0300001N1-01501-02711999999ADDAA199000091GA1001+999999999GF100991001001999999001001KA1999M-00601MA1999999068721MD1710111-0501REMSYN070AAXX  31181 52836 32980 01104 11150 21271 36872 57011 333 05503 11060;EQDQ01  00002PRCP99
0147528360999992000013121004+36300+098100FM-12+319299999V0201101N005012200019N0300001N1-01321-02641999999ADDGA1001+999999999GF100991001001999999001001MA1999999068441MD1710281+0051REMSYN064AAXX  31211 52836 42980 01105 11132 21264 36844 57028 333 05505;
0173528360999992000020100004+36300+098100FM-12+319299999V0201101N006019999999N0300001N1-01191-02561999999ADDAA199000091GF107991001001999999001021MA1999999068301MD1710141-0501REMSYN076AAXX  01001 52836 32980 71106 11119 21256 36830 57014 80002 333 05508 92502;EQDQ01  00002PRCP99
0127528360999992000020103004+36300+098100FM-12+319299999V0200901N001019999999N0300001N1-00791-02801999999ADDGF107991001001999999001021MA1999999068521MD1210221+9999REMSYN060AAXX  01031 52836 42980 70901 11079 21280 36852 52022 80002;
0186528360999992000020106004+36300+098100FM-12+319299999V0202501N003012200019N0300001N1-00711-02531999999ADDAA199000091GF101991001001999999001021KA1999N-01701MA1999999068581MD1210061-0201REMSYN076AAXX  01061 52836 32980 12503 11071 21253 36858 52006 80002 333 05203 21170;EQDQ01  00002PRCP99
0137528360999992000020109004+36300+098100FM-12+319299999V0203201N002019999999N0300001N1-00791-02111999999ADDGF107991001001999999001021MA1999999068551MD1710031+0031REMSYN070AAXX  01091 52836 42980 73202 11079 21211 36855 57003 80002 333 05302;
0167528360999992000020112004+36300+098100FM-12+319299999V0209999C000019999999N0300001N1-01211-02241999999ADDAA199000091GF107991001001999999001021MA1999999068601MD1210051+0021REMSYN070AAXX  01121 52836 32980 70000 11121 21224 36860 52005 80002 333 05203;EQDQ01  00002PRCP99
0127528360999992000020115004+36300+098100FM-12+319299999V0201101N002012200019N0300001N1-01371-02141999999ADDGF101991001001999999001021MA1999999068551MD1710051+9999REMSYN060AAXX  01151 52836 42980 11102 11137 21214 36855 57005 80002;
0186528360999992000020118004+36300+098100FM-12+319299999V0201101N001012200019N0300001N1-01381-02221999999ADDAA199000091GF101991001001999999001021KA1999M-00551MA1999999068431MD1710121-0301REMSYN076AAXX  01181 52836 32980 11101 11138 21222 36843 57012 80002 333 05301 11055;EQDQ01  00002PRCP99
0147528360999992000020121004+36300+098100FM-12+319299999V0209999C000012200019N0300001N1-01641-02421999999ADDGA1001+999999999GF100991001001999999001001MA1999999068391MD1710041+0011REMSYN064AAXX  01211 52836 42980 00000 11164 21242 36839 57004 333 05153;
0173528360999992000020200004+36300+098100FM-12+319299999V0200901N001019999999N0300001N1-01401-02311999999ADDAA199000091GF107991001001999999001021MA1999999068421MD1210031+0101REMSYN076AAXX  02001 52836 32980 70901 11140 21231 36842 52003 80002 333 00152 92502;EQDQ01  00002PRCP99
0127528360999992000020203004+36300+098100FM-12+319299999V0201401N002019999999N0300001N1-00621-02351999999ADDGF107991001001999999001021MA1999999068391MD1710031+9999REMSYN060AAXX  02031 52836 42980 71402 11062 21235 36839 57003 80002;
0186528360999992000020206004+36300+098100FM-12+319299999V0203201N001012200019N0300001N1-00501-01881999999ADDAA199000091GF102991001001999999001021KA1999N-01681MA1999999068291MD1710101-0301REMSYN076AAXX  02061 52836 32980 23201 11050 21188 36829 57010 80002 333 05302 21168;EQDQ01  00002PRCP99
0137528360999992000020209004+36300+098100FM-12+319299999V0209999C000019999999N0300001N1-00491-01931999999ADDGF107991001001999999001021MA1999999068231MD1710061+0031REMSYN070AAXX  02091 52836 42980 70000 11049 21193 36823 57006 80002 333 05303;
0167528360999992000020212004+36300+098100FM-12+319299999V0209999C000019999999N0300001N1-00781-01691999999ADDAA199000091GF107991001001999999001021MA1999999068201MD1710031+0041REMSYN070AAXX  02121 52836 32980 70000 11078 21169 36820 57003 80002 333 05404;EQDQ01  00002PRCP99
0127528360999992000020215004+36300+098100FM-12+319299999V0209999C000019999999N0300001N1-01071-01801999999ADDGF107991001001999999001021MA1999999068301MD1210101+9999REMSYN060AAXX  02151 52836 42980 70000 11107 21180 36830 52010 80002;
0186528360999992000020218004+36300+098100FM-12+319299999V0209999C000012200019N0300001N1-01421-01971999999ADDAA199000091GF101991001001999999001021KA1999M-00151MA1999999068281MD1710021-0201REMSYN076AAXX  02181 52836 32980 10000 11142 21197 36828 57002 80002 333 05200 11015;EQDQ01  00002PRCP99
0147528360999992000020221004+36300+098100FM-12+319299999V0209999C000012200019N0300001N1-01501-01861999999ADDGA1001+999999999GF100991001001999999001001MA1999999068201MD1710081+0021REMSYN064AAXX  02211 52836 42980 00000 11150 21186 36820 57008 333 05201;
0183528360999992000020300004+36300+098100FM-12+319299999V0201101N001012200019N0300001N1-01601-01961999999ADDAA199000091GA1001+999999999GF100991001001999999001001MA1999999068291MD1210091-0101REMSYN070AAXX  03001 52836 32980 01101 11160 21196 36829 52009 333 05152 92502;EQDQ01  00002PRCP99
0146528360999992000020303004+36300+098100FM-12+319299999V0209999C000019999999N0300001N1-00342-01721999999ADDGF107991001001999999001021MA1999999068411MD1210121+9999REMSYN060AAXX  03031 52836 42980 70000 11034 21172 36841 52012 80002;EQDQ01-000343ATOT  
0186528360999992000020306004+36300+098100FM-12+319299999V0202501N005019999999N0300001N1-00601-01901999999ADDAA199000091GF107991001001999999001021KA1999N-01671MA1999999068591MD1210181+0301REMSYN076AAXX  03061 52836 32980 72505 11060 21190 36859 52018 80002 333 00351 21167;EQDQ01  00002PRCP99
0137528360999992000020309004+36300+098100FM-12+319299999V0202001N004019999999N0300001N1-00641-02331999999ADDGF107991001001999999001021MA1999999068741MD1210151+0051REMSYN070AAXX  03091 52836 42980 72004 11064 21233 36874 52015 80002 333 00552;
0167528360999992000020312004+36300+098100FM-12+319299999V0202501N002019999999N0300001N1-00891-02031999999ADDAA199000091GF108991081001999999021999MA1999999068951MD1210211+0081REMSYN070AAXX  03121 52836 32980 82502 11089 21203 36895 52021 8802/ 333 00851;EQDQ01  00002PRCP99
0147528360999992000020315004+36300+098100FM-12+319299999V0201101N001019999999N0200001N1-01111-01301999999ADDAY171031GF108991081001999999011999MA1999999069021MD1210071+9999MW1701REMSYN066AAXX  03151 52836 41970 81101 11111 21130 36902 52007 77070 8801/;
0193528360999992000020318004+36300+098100FM-12+319299999V0201101N002019999999N0200001N1-01081-01541999999ADDAA106000791AY171061GF107991001001999999001021KA1999M-00261MA1999999068931MD1710091+0701MW1001REMSYN088AAXX  03181 52836 11970 71102 11108 21154 36893 57009 69901 70070 80002 333 00703 11026;
0173528360999992000020321004+36300+098100FM-12+319299999V0201101N002019999999N0300001N1-01171-01641999999ADDAA124000791GF107991001001999999001021MA1999999068851MD1710081+0701REMSYN076AAXX  03211 52836 42980 71102 11117 21164 36885 57008 88002 333 00703 79999;EQDQ01+000082SCOTLC
0148528360999992000020400004+36300+098100FM-12+319299999V0209999C000019999999N0300001N1-00991-02001999999ADDAA199000021GF107991001001999999001021MA1999999068621MD1710041+0011REMSYN070AAXX  04001 52836 32980 70000 11099 21200 36862 57004 80002 333 00152;
0127528360999992000020403004+36300+098100FM-12+319299999V0201101N003019999999N0300001N1-00931-01841999999ADDGF107991001001999999001021MA1999999068971MD1210051+9999REMSYN060AAXX  04031 52836 42980 71103 11093 21184 36897 52005 80002;
0186528360999992000020406004+36300+098100FM-12+319299999V0209999C000019999999N0300001N1-00341-02471999999ADDAA199000091GF105991001001999999001021KA1999N-01371MA1999999068841MD1710131+0301REMSYN076AAXX  04061 52836 32980 50000 11034 21247 36884 57013 80002 333 00303 21137;EQDQ01  00002PRCP99
0137528360999992000020409004+36300+098100FM-12+319299999V0203201N002012200019N0300001N1-00361-01991999999ADDGF101991011011012501001021MA1999999068841MD1410001+0011REMSYN070AAXX  04091 52836 42680 13202 11036 21199 36884 54000 81102 333 00103;
0167528360999992000020412004+36300+098100FM-12+319299999V0209999C000012200019N0300001N1-00781-01881999999ADDAA199000091GF102991001001999999001021MA1999999068981MD1210141+0001REMSYN070AAXX  04121 52836 32980 20000 11078 21188 36898 52014 80002 333 00001;EQDQ01  00002PRCP99
0137528360999992000020415004+36300+098100FM-12+319299999V0201101N002012200019N0300001N1-01281-02131999999ADDGA1001+999999999GF100991001001999999001001MA1999999069001MD1210021+9999REMSYN054AAXX  04151 52836 42980 01102 11128 21213 36900 52002;
0196528360999992000020418004+36300+098100FM-12+319299999V0201101N003012200019N0300001N1-01141-02051999999ADDAA199000091GA1001+999999999GF100991001001999999001001KA1999M-00201MA1999999068931MD1710071+0001REMSYN070AAXX  04181 52836 32980 01103 11114 21205 36893 57007 333 00051 11020;EQDQ01  00002PRCP99
0147528360999992000020421004+36300+098100FM-12+319299999V0201101N004012200019N0300001N1-01241-02141999999ADDGA1001+999999999GF100991001001999999001001MA1999999068861MD1710071+0001REMSYN064AAXX  04211 52836 42980 01104 11124 21214 36886 57007 333 00051;
0173528360999992000020500004+36300+098100FM-12+319299999V0201101N004012200019N0300001N1-01341-02231999999ADDAA199000091GF102991001001999999001021MA1999999068871MD1210011-0101REMSYN076AAXX  05001 52836 32980 21104 11134 21223 36887 52001 80002 333 05151 92501;EQDQ01  00002PRCP99
0127528360999992000020503004+36300+098100FM-12+319299999V0201101N002019999999N0300001N1-00871-02221999999ADDGF107991001001999999001021MA1999999069031MD1210161+9999REMSYN060AAXX  05031 52836 42980 71102 11087 21222 36903 52016 80002;
0186528360999992000020506004+36300+098100FM-12+319299999V0202501N004019999999N0300001N1-00611-02081999999ADDAA199000091GF107991001001999999001021KA1999N-01361MA1999999068981MD1710051+0101REMSYN076AAXX  05061 52836 32980 72504 11061 21208 36898 57005 80002 333 00153 21136;EQDQ01  00002PRCP99
0137528360999992000020509004+36300+098100FM-12+319299999V0202201N002019999999N0300001N1-00491-02271999999ADDGF107991001001999999001021MA1999999068981MD1410001+0011REMSYN070AAXX  05091 52836 42980 72202 11049 21227 36898 54000 80002 333 00151;
0167528360999992000020512004+36300+098100FM-12+319299999V0201101N002012200019N0300001N1-00971-02191999999ADDAA199000091GF101991001001999999001021MA1999999069041MD1210061+0011REMSYN070AAXX  05121 52836 32980 11102 11097 21219 36904 52006 80002 333 00152;EQDQ01  00002PRCP99
0137528360999992000020515004+36300+098100FM-12+319299999V0201101N003012200019N0300001N1-01211-02241999999ADDGA1001+999999999GF100991001001999999001001MA1999999068971MD1710071+9999REMSYN054AAXX  05151 52836 42980 01103 11121 21224 36897 57007;
0186528360999992000020518004+36300+098100FM-12+319299999V0201101N003012200019N0300001N1-01201-02231999999ADDAA199000091GF101991001001999999001021KA1999M-00391MA1999999068871MD1710101-0101REMSYN076AAXX  05181 52836 32980 11103 11120 21223 36887 57010 80002 333 05151 11039;EQDQ01  00002PRCP99
0147528360999992000020521004+36300+098100FM-12+319299999V0201101N004012200019N0300001N1-01301-02321999999ADDGA1001+999999999GF100991001001999999001001MA1999999068881MD1210011+0001REMSYN064AAXX  05211 52836 42980 01104 11130 21232 36888 52001 333 00051;
0183528360999992000020600004+36300+098100FM-12+319299999V0201101N003012200019N0300001N1-01401-02411999999ADDAA199000091GA1001+999999999GF100991001001999999001001MA1999999068991MD1210111+0101REMSYN070AAXX  06001 52836 32980 01103 11140 21241 36899 52011 333 00151 92501;EQDQ01  00002PRCP99
0127528360999992000020603004+36300+098100FM-12+319299999V0201401N003012200019N0300001N1-00891-02451999999ADDGF101991001001999999001021MA1999999069181MD1210191+9999REMSYN060AAXX  06031 52836 42980 11403 11089 21245 36918 52019 80002;
0186528360999992000020606004+36300+098100FM-12+319299999V0202501N003012200019N0300001N1-00291-02521999999ADDAA199000091GF101991001001999999001021KA1999N-01461MA1999999069141MD1710041+0201REMSYN076AAXX  06061 52836 32980 12503 11029 21252 36914 57004 80002 333 00203 21146;EQDQ01  00002PRCP99
0137528360999992000020609004+36300+098100FM-12+319299999V0202701N002012200019N0300001N1-00251-02171999999ADDGF101991001001999999001021MA1999999069091MD1710051+0011REMSYN070AAXX  06091 52836 42980 12702 11025 21217 36909 57005 80002 333 00102;
0167528360999992000020612004+36300+098100FM-12+319299999V0209999C000012200019N0300001N1-00841-02151999999ADDAA199000091GF101991001001999999001021MA1999999069111MD1210021+0011REMSYN070AAXX  06121 52836 32980 10000 11084 21215 36911 52002 80002 333 00101;EQDQ01  00002PRCP99
0137528360999992000020615004+36300+098100FM-12+319299999V0201101N002012200019N0300001N1-01041-02261999999ADDGA1001+999999999GF100991001001999999001001MA1999999069121MD1210011+9999REMSYN054AAXX  06151 52836 42980 01102 11104 21226 36912 52001;
0196528360999992000020618004+36300+098100FM-12+319299999V0201101N003012200019N0300001N1-01291-02431999999ADDAA199000091GA1001+999999999GF100991001001999999001001KA1999M-00181MA1999999069051MD1710071+0201REMSYN070AAXX  06181 52836 32980 01103 11129 21243 36905 57007 333 00251 11018;EQDQ01  00002PRCP99
0147528360999992000020621004+36300+098100FM-12+319299999V0201101N002012200019N0300001N1-01311-02471999999ADDGA1001+999999999GF100991001001999999001001MA1999999068861MD1710191+0001REMSYN064AAXX  06211 52836 42980 01102 11131 21247 36886 57019 333 00000;
0183528360999992000020700004+36300+098100FM-12+319299999V0201101N003012200019N0300001N1-01241-02541999999ADDAA199000091GA1001+999999999GF100991001001999999001001MA1999999068781MD1710081-0201REMSYN070AAXX  07001 52836 32980 01103 11124 21254 36878 57008 333 05202 92500;EQDQ01  00002PRCP99
0137528360999992000020703004+36300+098100FM-12+319299999V0201101N003012200019N0300001N1-00711-02781999999ADDGA1001+999999999GF100991001001999999001001MA1999999068801MD1210021+9999REMSYN054AAXX  07031 52836 42980 01103 11071 21278 36880 52002;
0186528360999992000020706004+36300+098100FM-12+319299999V0209999C000012200019N0300001N1+00091-02101999999ADDAA199000091GF101991001001999999001021KA1999N-01401MA1999999068631MD1710171-0501REMSYN076AAXX  07061 52836 32980 10000 10009 21210 36863 57017 80002 333 05504 21140;EQDQ01  00002PRCP99
0137528360999992000020709004+36300+098100FM-12+319299999V0202701N004019999999N0300001N1+00041-02001999999ADDGF107991001001999999001021MA1999999068501MD1710131+0061REMSYN070AAXX  07091 52836 42980 72704 10004 21200 36850 57013 80002 333 05603;
0167528360999992000020712004+36300+098100FM-12+319299999V0202001N003019999999N0300001N1-00581-02161999999ADDAA199000091GF107991001001999999001021MA1999999068571MD1210071+0051REMSYN070AAXX  07121 52836 32980 72003 11058 21216 36857 52007 80002 333 05503;EQDQ01  00002PRCP99
0127528360999992000020715004+36300+098100FM-12+319299999V0209999C000019999999N0300001N1-00761-02121999999ADDGF107991001001999999001021MA1999999068711MD1210141+9999REMSYN060AAXX  07151 52836 42980 70000 11076 21212 36871 52014 80002;
0186528360999992000020718004+36300+098100FM-12+319299999V0201401N001012200019N0300001N1-01001-01961999999ADDAA199000091GF102991001001999999001021KA1999M+00141MA1999999068691MD1710021-0401REMSYN076AAXX  07181 52836 32980 21401 11100 21196 36869 57002 80002 333 05403 10014;EQDQ01  00002PRCP99
0137528360999992000020721004+36300+098100FM-12+319299999V0209999C000019999999N0300001N1-01211-02041999999ADDGF107991001001999999001021MA1999999068621MD1710071+0021REMSYN070AAXX  07211 52836 42980 70000 11121 21204 36862 57007 80002 333 05201;
0167528360999992000020800004+36300+098100FM-12+319299999V0201401N003019999999N0300001N1-01011-02231999999ADDAA199000091GF107991001001999999001021MA1999999068451MD1710021+0011REMSYN070AAXX  08001 52836 32980 71403 11101 21223 36845 57002 80002 333 05100;EQDQ01  00002PRCP99
0127528360999992000020803004+36300+098100FM-12+319299999V0201401N002012200019N0300001N1-00711-01931999999ADDGF101991001001999999001021MA1999999068661MD1710011+9999REMSYN060AAXX  08031 52836 42980 11402 11071 21193 36866 57001 80002;
0186528360999992000020806004+36300+098100FM-12+319299999V0209999C000012200019N0300001N1-00011-02001999999ADDAA199000091GF101991011011012501001021KA1999N-01411MA1999999068501MD1710161-0101REMSYN076AAXX  08061 52836 32680 10000 11001 21200 36850 57016 81102 333 05151 21141;EQDQ01  00002PRCP99
0137528360999992000020809004+36300+098100FM-12+319299999V0203201N001012200019N0300001N1-00101-01731999999ADDGF101991011011012501001021MA1999999068401MD1710101+0011REMSYN070AAXX  08091 52836 42680 13201 11010 21173 36840 57010 81102 333 05151;
0167528360999992000020812004+36300+098100FM-12+319299999V0209999C000019999999N0300001N1-00501-01631999999ADDAA199000091GF107991001001999999001021MA1999999068511MD1210111+0011REMSYN070AAXX  08121 52836 32980 70000 11050 21163 36851 52011 80002 333 05101;EQDQ01  00002PRCP99
0127528360999992000020815004+36300+098100FM-12+319299999V0209999C000012200019N0300001N1-00981-01791999999ADDGF101991001001999999001021MA1999999068571MD1210061+9999REMSYN060AAXX  08151 52836 42980 10000 11098 21179 36857 52006 80002;
0196528360999992000020818004+36300+098100FM-12+319299999V0201101N002012200019N0300001N1-00901-01721999999ADDAA199000091GA1001+999999999GF100991001001999999001001KA1999M+00101MA1999999068541MD1710031-0201REMSYN070AAXX  08181 52836 32980 01102 11090 21172 36854 57003 333 05201 10010;EQDQ01  00002PRCP99
0147528360999992000020821004+36300+098100FM-12+319299999V0201401N003012200019N0300001N1-01021-01821999999ADDGA1001+999999999GF100991001001999999001001MA1999999068491MD1710051+0011REMSYN064AAXX  08211 52836 42980 01403 11102 21182 36849 57005 333 05102;
0167528360999992000020900004+36300+098100FM-12+319299999V0201401N003019999999N0300001N1-01091-01881999999ADDAA199000091GF107991001001999999001021MA1999999068551MD1210061+0011REMSYN070AAXX  09001 52836 32980 71403 11109 21188 36855 52006 80002 333 05103;EQDQ01  00002PRCP99
0127528360999992000020903004+36300+098100FM-12+319299999V0201101N002012200019N0300001N1-00591-01951999999ADDGF101991001001999999001021MA1999999068631MD1210081+9999REMSYN060AAXX  09031 52836 42980 11102 11059 21195 36863 52008 80002;
0186528360999992000020906004+36300+098100FM-12+319299999V0202901N002010900019N0300001N1-00211-01961999999ADDAA199000091GF107991011011012501001021KA1999N-01141MA1999999068561MD1710071+0101REMSYN076AAXX  09061 52836 32680 72902 11021 21196 36856 57007 81102 333 00152 21114;EQDQ01  00002PRCP99
0137528360999992000020909004+36300+098100FM-12+319299999V0202501N001012200019N0300001N1-00051-01811999999ADDGF101991011011012501001021MA1999999068421MD1710141+0001REMSYN070AAXX  09091 52836 42680 12501 11005 21181 36842 57014 81102 333 00001;
0177528360999992000020912004+36300+098100FM-12+319299999V0209999C000012200019N0300001N1-00481-01781999999ADDAA199000091GA1001+999999999GF100991001001999999001001MA1999999068501MD1210081+0001REMSYN064AAXX  09121 52836 32980 00000 11048 21178 36850 52008 333 00000;EQDQ01  00002PRCP99
0137528360999992000020915004+36300+098100FM-12+319299999V0201101N001012200019N0300001N1-00761-01711999999ADDGA1001+999999999GF100991001001999999001001MA1999999068511MD1210011+9999REMSYN054AAXX  09151 52836 42980 01101 11076 21171 36851 52001;
0196528360999992000020918004+36300+098100FM-12+319299999V0201101N002012200019N0300001N1-00941-02121999999ADDAA199000091GA1001+999999999GF100991001001999999001001KA1999M+00021MA1999999068411MD1710101-0101REMSYN070AAXX  09181 52836 32980 01102 11094 21212 36841 57010 333 05100 10002;EQDQ01  00002PRCP99
0137528360999992000020921004+36300+098100FM-12+319299999V0209999C000012200019N0300001N1-00941-02201999999ADDGF101991001001999999001021MA1999999068331MD1710081+0021REMSYN070AAXX  09211 52836 42980 10000 11094 21220 36833 57008 80002 333 05201;
0167528360999992000021000004+36300+098100FM-12+319299999V0201101N003019999999N0300001N1-01031-02131999999ADDAA199000091GF107991001001999999001021MA1999999068391MD1210061+0021REMSYN070AAXX  10001 52836 32980 71103 11103 21213 36839 52006 80002 333 05201;EQDQ01  00002PRCP99
0127528360999992000021003004+36300+098100FM-12+319299999V0200901N002019999999N0300001N1-00471-02201999999ADDGF107991001001999999001021MA1999999068541MD1210151+9999REMSYN060AAXX  10031 52836 42980 70902 11047 21220 36854 52015 80002;
0186528360999992000021006004+36300+098100FM-12+319299999V0202001N001010900019N0300001N1-00011-02171999999ADDAA199000091GF107991011011012501001021KA1999N-01121MA1999999068461MD1710081-0101REMSYN076AAXX  10061 52836 32680 72001 11001 21217 36846 57008 81102 333 05102 21112;EQDQ01  00002PRCP99
0137528360999992000021009004+36300+098100FM-12+319299999V0202701N002010900019N0300001N1+00011-01931999999ADDGF107991011011012501001021MA1999999068421MD1710041+0001REMSYN070AAXX  10091 52836 42680 72702 10001 21193 36842 57004 81102 333 00001;
0167528360999992000021012004+36300+098100FM-12+319299999V0209999C000019999999N0300001N1-00451-01981999999ADDAA199000091GF107991001001999999001021MA1999999068431MD1210011+0011REMSYN070AAXX  10121 52836 32980 70000 11045 21198 36843 52001 80002 333 05100;EQDQ01  00002PRCP99
0127528360999992000021015004+36300+098100FM-12+319299999V0201101N003019999999N0300001N1-00581-02071999999ADDGF107991001001999999001021MA1999999068441MD1210011+9999REMSYN060AAXX  10151 52836 42980 71103 11058 21207 36844 52001 80002;
0196528360999992000021018004+36300+098100FM-12+319299999V0201101N003012200019N0300001N1-00681-02161999999ADDAA199000091GA1001+999999999GF100991001001999999001001KA1999M+00151MA1999999068381MD1710061+0001REMSYN070AAXX  10181 52836 32980 01103 11068 21216 36838 57006 333 00003 10015;EQDQ01  00002PRCP99
0147528360999992000021021004+36300+098100FM-12+319299999V0201101N005012200019N0300001N1-00901-02111999999ADDGA1001+999999999GF100991001001999999001001MA1999999068291MD1710091+0001REMSYN064AAXX  10211 52836 42980 01105 11090 21211 36829 57009 333 00000;
0177528360999992000021100004+36300+098100FM-12+319299999V0201101N004012200019N0300001N1-00981-02291999999ADDAA199000091GA1001+999999999GF100991001001999999001001MA1999999068371MD1210081+0001REMSYN064AAXX  11001 52836 32980 01104 11098 21229 36837 52008 333 00001;EQDQ01  00002PRCP99
0137528360999992000021103004+36300+098100FM-12+319299999V0201101N005012200019N0300001N1-00411-02111999999ADDGA1001+999999999GF100991001001999999001001MA1999999068471MD1210101+9999REMSYN054AAXX  11031 52836 42980 01105 11041 21211 36847 52010;
0186528360999992000021106004+36300+098100FM-12+319299999V0201401N001012200019N0300001N1+00191-02491999999ADDAA199000091GF101991011011012501001021KA1999N-01011MA1999999068351MD1710121-0101REMSYN076AAXX  11061 52836 32680 11401 10019 21249 36835 57012 81102 333 05102 21101;EQDQ01  00002PRCP99
0137528360999992000021109004+36300+098100FM-12+319299999V0202901N003012200019N0300001N1+00291-02391999999ADDGF101991001001999999001021MA1999999068271MD1710081+0021REMSYN070AAXX  11091 52836 42980 12903 10029 21239 36827 57008 80002 333 05203;
0167528360999992000021112004+36300+098100FM-12+319299999V0209999C000012200019N0300001N1-00311-02561999999ADDAA199000091GF102991001001999999001021MA1999999068371MD1210101+0011REMSYN070AAXX  11121 52836 32980 20000 11031 21256 36837 52010 80002 333 05101;EQDQ01  00002PRCP99
0127528360999992000021115004+36300+098100FM-12+319299999V0201401N003012200019N0300001N1-00541-02211999999ADDGF101991001001999999001021MA1999999068271MD1710101+9999REMSYN060AAXX  11151 52836 42980 11403 11054 21221 36827 57010 80002;
0196528360999992000021118004+36300+098100FM-12+319299999V0201101N004012200019N0300001N1-00541-02301999999ADDAA199000091GA1001+999999999GF100991001001999999001001KA1999M+00361MA1999999068081MD1710191-0301REMSYN070AAXX  11181 52836 32980 01104 11054 21230 36808 57019 333 05301 10036;EQDQ01  00002PRCP99
0137528360999992000021121004+36300+098100FM-12+319299999V0201101N005019999999N0300001N1-00471-02461999999ADDGF107991001001999999001021MA1999999067941MD1710141+0041REMSYN070AAXX  11211 52836 42980 71105 11047 21246 36794 57014 80002 333 05404;
0167528360999992000021200004+36300+098100FM-12+319299999V0202001N007019999999N0120001N1-00931-02171999999ADDAA199000091GF107991001001999999001021MA1999999068151MD1210211+0021REMSYN070AAXX  12001 52836 32962 72007 11093 21217 36815 52021 80002 333 05201;EQDQ01  00002PRCP99
0139528360999992000021203004+36300+098100FM-12+319299999V0202201N003019999999N0150001N1-01031-02081999999ADDGF108991081001999999021999MA1999999068641MD1210491+9999MW1701REMSYN066AAXX  12031 52836 41965 82203 11103 21208 36864 52049 77000 8802/;
0193528360999992000021206004+36300+098100FM-12+319299999V0209999C000019999999N0090001N1-00931-01241999999ADDAA106000191AY171061GF108991081001999999011999KA1999N-01141MA1999999068641MD1410001+0301MW1701REMSYN088AAXX  12061 52836 11959 80000 11093 21124 36864 54000 69921 77070 8801/ 333 00361 21114;
0165528360999992000021209004+36300+098100FM-12+319299999V0202701N001019999999N0070001N1-00861-01071999999ADDAY171031AY271031GF108991081001999999021999MA1999999068711MD1210071+0041MW1701REMSYN076AAXX  12091 52836 41957 82701 11086 21107 36871 52007 77077 8802/ 333 00462;
0174528360999992000021212004+36300+098100FM-12+319299999V0209999C000019999999N0150001N1-01041-01201999999ADDAA106001091AY171061GF107991001001999999001021MA1999999068841MD1210131+0051MW1001REMSYN082AAXX  12121 52836 11965 70000 11104 21120 36884 52013 60011 70070 80002 333 00557;
0127528360999992000021215004+36300+098100FM-12+319299999V0201101N003019999999N0150001N1-01061-01351999999ADDGF107991001001999999001021MA1999999068901MD1210061+9999REMSYN060AAXX  12151 52836 42965 71103 11106 21135 36890 52006 80002;
0167528360999992000021218004+36300+098100FM-12+319299999V0209999C000019999999N0150001N1-01181-01491999999ADDAA199000021GF108991081001999999021999KA1999M-00401MA1999999068891MD1710011+0801REMSYN076AAXX  12181 52836 32965 80000 11118 21149 36889 57001 8802/ 333 00856 11040;
0154528360999992000021221004+36300+098100FM-12+319299999V0209999C000019999999N0200001N1-01081-01541999999ADDAA124001591GF108991081001999999021999MA1999999068881MD1710011+0901REMSYN076AAXX  12211 52836 42970 80000 11108 21154 36888 57001 8802/ 333 00956 70014;
0160528360999992000021300004+36300+098100FM-12+319299999V0201101N003019999999N0200001N1-01091-01461999999ADDAA124001591GF108991081001999999021999MA1999999068941MD1210061+0801REMSYN082AAXX  13001 52836 32970 81103 11109 21146 36894 52006 8802/ 333 00852 70014 92501;
0127528360999992000021303004+36300+098100FM-12+319299999V0202501N003019999999N0200001N1-01011-01561999999ADDGF107991001001999999001021MA1999999069021MD1210081+9999REMSYN060AAXX  13031 52836 42970 72503 11101 21156 36902 52008 80002;
0186528360999992000021306004+36300+098100FM-12+319299999V0202701N002019999999N0200001N1-01001-01771999999ADDAA199000091GF107991001001999999001021KA1999N-01261MA1999999068961MD1710061+0301REMSYN076AAXX  13061 52836 32970 72702 11100 21177 36896 57006 80002 333 00351 21126;EQDQ01  00002PRCP99
0137528360999992000021309004+36300+098100FM-12+319299999V0209999C000019999999N0300001N1-00841-01861999999ADDGF107991001001999999001021MA1999999068961MD1410001+0031REMSYN070AAXX  13091 52836 42980 70000 11084 21186 36896 54000 80002 333 00300;
0174528360999992000021312004+36300+098100FM-12+319299999V0209999C000019999999N0250001N1-00941-01571999999ADDAA106000791AY171061GF107991001001999999001021MA1999999069171MD1210211+0031MW1001REMSYN082AAXX  13121 52836 11975 70000 11094 21157 36917 52021 69901 70070 80002 333 00301;
0127528360999992000021315004+36300+098100FM-12+319299999V0201101N002019999999N0250001N1-01081-01551999999ADDGF107991001001999999001021MA1999999069201MD1210031+9999REMSYN060AAXX  13151 52836 42975 71102 11108 21155 36920 52003 80002;
0193528360999992000021318004+36300+098100FM-12+319299999V0201101N001019999999N0250001N1-01281-01761999999ADDAA106000791AY171061GF107991001001999999001021KA1999M-00761MA1999999069181MD1710021+0301MW1001REMSYN088AAXX  13181 52836 11975 71101 11128 21176 36918 57002 69901 70070 80002 333 00351 11076;
0154528360999992000021321004+36300+098100FM-12+319299999V0200901N001019999999N0250001N1-01351-01891999999ADDAA124000791GF107991001001999999001021MA1999999069071MD1710111+0201REMSYN076AAXX  13211 52836 42975 70901 11135 21189 36907 57011 80002 333 00253 79999;
0160528360999992000021400004+36300+098100FM-12+319299999V0201101N001019999999N0250001N1-01351-01921999999ADDAA124000791GF108991081001999999011999MA1999999069081MD1210011+0101REMSYN082AAXX  14001 52836 32975 81101 11135 21192 36908 52001 8801/ 333 00153 79999 92501;
0127528360999992000021403004+36300+098100FM-12+319299999V0200901N002019999999N0300001N1-00971-01911999999ADDGF107991001001999999001021MA1999999069171MD1210091+9999REMSYN060AAXX  14031 52836 42980 70902 11097 21191 36917 52009 80002;
0186528360999992000021406004+36300+098100FM-12+319299999V0202901N002012200019N0300001N1-00701-01671999999ADDAA199000091GF101991001001999999001021KA1999N-01471MA1999999069061MD1710111+0101REMSYN076AAXX  14061 52836 32980 12902 11070 21167 36906 57011 80002 333 00103 21147;EQDQ01  00002PRCP99
0167528360999992000021412004+36300+098100FM-12+319299999V0209999C000019999999N0300001N1-00901-02201999999ADDAA199000091GF107991001001999999001021MA1999999069031MD1210051+0011REMSYN070AAXX  14121 52836 32980 70000 11090 21220 36903 52005 80002 333 05100;EQDQ01  00002PRCP99
0127528360999992000021415004+36300+098100FM-12+319299999V0209999C000019999999N0300001N1-01261-02291999999ADDGF107991001001999999001021MA1999999069041MD1210011+9999REMSYN060AAXX  14151 52836 42980 70000 11126 21229 36904 52001 80002;
0186528360999992000021418004+36300+098100FM-12+319299999V0201401N003019999999N0300001N1-01091-02241999999ADDAA199000091GF107991001001999999001021KA1999M-00411MA1999999069021MD1710021-0201REMSYN076AAXX  14181 52836 32980 71403 11109 21224 36902 57002 80002 333 05202 11041;EQDQ01  00002PRCP99
0147528360999992000021421004+36300+098100FM-12+319299999V0201401N003012200019N0300001N1-01261-02401999999ADDGA1001+999999999GF100991001001999999001001MA1999999068931MD1710091+0011REMSYN064AAXX  14211 52836 42980 01403 11126 21240 36893 57009 333 05101;
0167528360999992000021500004+36300+098100FM-12+319299999V0201101N003019999999N0300001N1-01341-02471999999ADDAA199000091GF107991001001999999001021MA1999999068911MD1710021+0021REMSYN070AAXX  15001 52836 32980 71103 11134 21247 36891 57002 80002 333 05200;EQDQ01  00002PRCP99
0127528360999992000021503004+36300+098100FM-12+319299999V0201101N003012200019N0300001N1-00821-02671999999ADDGF101991001001999999001021MA1999999068951MD1210041+9999REMSYN060AAXX  15031 52836 42980 11103 11082 21267 36895 52004 80002;
0186528360999992000021506004+36300+098100FM-12+319299999V0202901N003012200019N0300001N1-00341-01731999999ADDAA199000091GF101991001001999999001021KA1999N-01381MA1999999068801MD1710151-0301REMSYN076AAXX  15061 52836 32980 12903 11034 21173 36880 57015 80002 333 05304 21138;EQDQ01  00002PRCP99
0137528360999992000021509004+36300+098100FM-12+319299999V0202701N003019999999N0300001N1-00271-01901999999ADDGF107991001001999999001021MA1999999068851MD1210051+0011REMSYN070AAXX  15091 52836 42980 72703 11027 21190 36885 52005 80002 333 05103;
0177528360999992000021512004+36300+098100FM-12+319299999V0209999C000012200019N0300001N1-00681-01951999999ADDAA199000091GA1001+999999999GF100991001001999999001001MA1999999068921MD1210071+0011REMSYN064AAXX  15121 52836 32980 00000 11068 21195 36892 52007 333 05102;EQDQ01  00002PRCP99
0137528360999992000021515004+36300+098100FM-12+319299999V0201101N003012200019N0300001N1-01141-02291999999ADDGA1001+999999999GF100991001001999999001001MA1999999068891MD1710031+9999REMSYN054AAXX  15151 52836 42980 01103 11114 21229 36889 57003;
0196528360999992000021518004+36300+098100FM-12+319299999V0201401N004012200019N0300001N1-01001-02431999999ADDAA199000091GA1001+999999999GF100991001001999999001001KA1999M-00151MA1999999068761MD1710131-0301REMSYN070AAXX  15181 52836 32980 01404 11100 21243 36876 57013 333 05301 11015;EQDQ01  00002PRCP99
0147528360999992000021521004+36300+098100FM-12+319299999V0201401N004012200019N0300001N1-01041-02361999999ADDGA1001+999999999GF100991001001999999001001MA1999999068691MD1710071+0021REMSYN064AAXX  15211 52836 42980 01404 11104 21236 36869 57007 333 05202;
0177528360999992000021600004+36300+098100FM-12+319299999V0201101N004012200019N0300001N1-01021-02411999999ADDAA199000091GA1001+999999999GF100991001001999999001001MA1999999068601MD1710091+0031REMSYN064AAXX  16001 52836 32980 01104 11102 21241 36860 57009 333 05303;EQDQ01  00002PRCP99
0127528360999992000021603004+36300+098100FM-12+319299999V0201401N007019999999N0300001N1-00441-02741999999ADDGF107991001001999999001021MA1999999068531MD1710071+9999REMSYN060AAXX  16031 52836 42980 71407 11044 21274 36853 57007 80002;
0186528360999992000021606004+36300+098100FM-12+319299999V0201101N006019999999N0300001N1+00221-03071999999ADDAA199000091GF107991001001999999001021KA1999N-01221MA1999999068321MD1710211-0501REMSYN076AAXX  16061 52836 32980 71106 10022 21307 36832 57021 80002 333 05506 21122;EQDQ01  00002PRCP99
0137528360999992000021609004+36300+098100FM-12+319299999V0202501N002019999999N0300001N1+00641-02361999999ADDGF107991001001999999001021MA1999999068131MD1710191+0071REMSYN070AAXX  16091 52836 42980 72502 10064 21236 36813 57019 80002 333 05709;
0167528360999992000021612004+36300+098100FM-12+319299999V0209999C000012200019N0300001N1-00171-01871999999ADDAA199000091GF101991001001999999001021MA1999999068151MD1210021+0081REMSYN070AAXX  16121 52836 32980 10000 11017 21187 36815 52002 80002 333 05805;EQDQ01  00002PRCP99
0127528360999992000021615004+36300+098100FM-12+319299999V0201101N004019999999N0300001N1-00251-01831999999ADDGF107991001001999999001021MA1999999068161MD1210011+9999REMSYN060AAXX  16151 52836 42980 71104 11025 21183 36816 52001 80002;
0186528360999992000021618004+36300+098100FM-12+319299999V0201101N003019999999N0300001N1-00331-02121999999ADDAA199000091GF107991001001999999001021KA1999M+00661MA1999999068061MD1710101-0701REMSYN076AAXX  16181 52836 32980 71103 11033 21212 36806 57010 80002 333 05707 10066;EQDQ01  00002PRCP99
0137528360999992000021621004+36300+098100FM-12+319299999V0209999C000010150019N0300001N1-00251-01901999999ADDGF107991061051017501001021MA1999999067911MD1710151+0081REMSYN070AAXX  16211 52836 42780 70000 11025 21190 36791 57015 86502 333 05808;
0167528360999992000021700004+36300+098100FM-12+319299999V0202201N002019999999N0300001N1-00781-02151999999ADDAA199000091GF107991001001999999001021MA1999999068041MD1210131+0061REMSYN070AAXX  17001 52836 32980 72202 11078 21215 36804 52013 80002 333 05602;EQDQ01  00002PRCP99
