0185544010999992000010100004+40780+114880FM-12+072699999V0200201N001012200019N0030001N1-00831-01621102661ADDAA106000091GF103991021001999999041021MA1999999093611MD1210071+0031MW1041REMSYN082AAXX  01001 54401 31930 30201 11083 21162 39361 40266 52007 70400 82042 333 05302;EQDQ01  00002PRCP06
0124544010999992000010103004+40780+114880FM-12+072699999V0209999C000019999999N0040001N1-00571-01381102581ADDGF107991051001999999031021MD1710051+9999MW1041REMSYN066AAXX  01031 54401 41940 70000 11057 21138 40258 57005 70400 85032;
0198544010999992000010106004+40780+114880FM-12+072699999V0209999C000019999999N0060001N1-00351-01241102261ADDAA106000091GF107991061001999999031021KA1999N-00931MA1999999093291MD1710271+9999MW1041REMSYN082AAXX  01061 54401 31956 70000 11035 21124 39329 40226 57027 70400 86032 333 21093;EQDQ01  00002PRCP06
0124544010999992000010109004+40780+114880FM-12+072699999V0202001N001019999999N0060001N1-00311-01231102271ADDGF108991081001999999021999MD1710011+9999MW1041REMSYN066AAXX  01091 54401 41956 82001 11031 21123 40227 57001 70400 8802/;
0170544010999992000010112004+40780+114880FM-12+072699999V0202901N003019999999N0120001N1-00131-01181102491ADDAA106000591AY171061GF108991081001999999021999MA1999999093501MD1210221+9999MW1221REMSYN078AAXX  01121 54401 11962 82903 11013 21118 39350 40249 52022 69941 72270 8802/;
0122544010999992000010115004+40780+114880FM-12+072699999V0203401N004012200019N0200001N1-00521-01701102791ADDGA1001+999999999GF100991001001999999001001MD1210251+9999REMSYN054AAXX  01151 54401 42970 03404 11052 21170 40279 52025;
0177544010999992000010118004+40780+114880FM-12+072699999V0202901N002012200019N0200001N1-00821-01831102911ADDAA106000021GA1001+999999999GF100991001001999999001001KA1999M-00101MA1999999093851MD1210101+9999REMSYN070AAXX  01181 54401 32970 02902 11082 21183 39385 40291 52010 333 11010;
0143544010999992000010121004+40780+114880FM-12+072699999V0203401N002012200019N0200001N1-00921-02031103061ADDAA124000591GA1001+999999999GF100991001001999999001001MD1210121+9999REMSYN064AAXX  01211 54401 42970 03402 11092 21203 40306 52012 333 70004;
0185544010999992000010200004+40780+114880FM-12+072699999V0203401N003012200019N0200001N1-00961-02111102981ADDAA106000091GF101991001001999999001021MA1999999093921MD1710051+0301REMSYN088AAXX  02001 54401 32970 13403 11096 21211 39392 40298 57005 80002 333 00351 70004 92501;EQDQ01  00002PRCP06
0122544010999992000010203004+40780+114880FM-12+072699999V0202501N002012200019N0300001N1-00661-01751102861ADDGA1001+999999999GF100991001001999999001001MD1710121+9999REMSYN054AAXX  02031 54401 42980 02502 11066 21175 40286 57012;
0186544010999992000010206004+40780+114880FM-12+072699999V0202501N002019999999N0300001N1-00281-01551102431ADDAA106000091GF105991051001999999031001KA1999N-01021MA1999999093421MD1710381+9999REMSYN076AAXX  02061 54401 32980 52502 11028 21155 39342 40243 57038 85030 333 21102;EQDQ01  00002PRCP06
0112544010999992000010209004+40780+114880FM-12+072699999V0202501N001012200019N0150001N1-00381-01691102461ADDGF102991021001999999031001MD1410001+9999REMSYN060AAXX  02091 54401 42965 22501 11038 21169 40246 54000 82030;
0163544010999992000010212004+40780+114880FM-12+072699999V0209999C000012200019N0150001N1-00701-01611102581ADDAA106000091GF103991001001999999001021MA1999999093471MD1210051+9999REMSYN066AAXX  02121 54401 32965 30000 11070 21161 39347 40258 52005 80002;EQDQ01  00002PRCP06
0124544010999992000010215004+40780+114880FM-12+072699999V0200701N001019999999N0080001N1-00791-01701102561ADDGF108991081001999999021999MD1210011+9999MW1041REMSYN066AAXX  02151 54401 41958 80701 11079 21170 40256 52001 70400 8802/;
0198544010999992000010218004+40780+114880FM-12+072699999V0209999C000019999999N0060001N1-00751-01701102351ADDAA106000091GF108991081001999999021999KA1999M-00191MA1999999093361MD1710121+9999MW1041REMSYN082AAXX  02181 54401 31956 80000 11075 21170 39336 40235 57012 70400 8802/ 333 11019;EQDQ01  00002PRCP06
0124544010999992000010221004+40780+114880FM-12+072699999V0209999C000019999999N0040001N1-00881-01571102291ADDGF108991081001999999021999MD1710091+9999MW1041REMSYN066AAXX  02211 54401 41940 80000 11088 21157 40229 57009 70400 8802/;
0185544010999992000010300004+40780+114880FM-12+072699999V0201601N001019999999N0040001N1-00781-01421102241ADDAA106000091GF107991061001999999031021MA1999999093191MD1710081+0071MW1041REMSYN082AAXX  03001 54401 31940 71601 11078 21142 39319 40224 57008 70400 86032 333 05702;EQDQ01  00002PRCP06
0112544010999992000010303004+40780+114880FM-12+072699999V0201101N001019999999N0200001N1-00521-01481102311ADDGF107991001001999999001021MD1210091+9999REMSYN060AAXX  03031 54401 42970 71101 11052 21148 40231 52009 80002;
0186544010999992000010306004+40780+114880FM-12+072699999V0201101N002019999999N0150001N1-00411-01341102101ADDAA106000091GF107991021001999999031021KA1999N-00951MA1999999093111MD1710171+9999REMSYN076AAXX  03061 54401 32965 71102 11041 21134 39311 40210 57017 82032 333 21095;EQDQ01  00002PRCP06
0112544010999992000010309004+40780+114880FM-12+072699999V0201601N001019999999N0150001N1-00511-01401102201ADDGF107991071001999999031999MD1210051+9999REMSYN060AAXX  03091 54401 42965 71601 11051 21140 40220 52005 8703/;
0175544010999992000010312004+40780+114880FM-12+072699999V0200901N001019999999N0060001N1-00661-01351102341ADDAA106000091GF107991001001999999001021MA1999999093281MD1210121+9999MW1041REMSYN072AAXX  03121 54401 31956 70901 11066 21135 39328 40234 52012 70400 80002;EQDQ01  00002PRCP06
0124544010999992000010315004+40780+114880FM-12+072699999V0201101N001019999999N0060001N1-00691-01181102371ADDGF108991081001999999021999MD1210071+9999MW1041REMSYN066AAXX  03151 54401 41956 81101 11069 21118 40237 52007 70400 8802/;
0198544010999992000010318004+40780+114880FM-12+072699999V0201101N001019999999N0040001N1-00771-01131102381ADDAA106000091GF108991081001999999021999KA1999M-00381MA1999999093361MD1210011+9999MW1101REMSYN082AAXX  03181 54401 31940 81101 11077 21113 39336 40238 52001 71000 8802/ 333 11038;EQDQ01  00002PRCP06
0124544010999992000010321004+40780+114880FM-12+072699999V0201101N001019999999N0040001N1-00771-01131102431ADDGF108991081001999999021999MD1210031+9999MW1101REMSYN066AAXX  03211 54401 41940 81101 11077 21113 40243 52003 71000 8802/;
0185544010999992000010400004+40780+114880FM-12+072699999V0209999C000019999999N0030001N1-00831-01161102601ADDAA106000091GF108991081001999999021999MA1999999093511MD1210121+0031MW1101REMSYN082AAXX  04001 54401 31930 80000 11083 21116 39351 40260 52012 71000 8802/ 333 00351;EQDQ01  00002PRCP06
0132544010999992000010403004+40780+114880FM-12+072699999V0201101N001019999999N0030001N1-00721-00981102641ADDAY171031GF108991081001999999021999MD1210051+9999MW1701REMSYN066AAXX  04031 54401 41930 81101 11072 21098 40264 52005 77070 8802/;
0193544010999992000010406004+40780+114880FM-12+072699999V0202201N001019999999N0030001N1-00581-00941102421ADDAA106000791AY171061GF108991081001999999021999KA1999N-00861MA1999999093371MD1710191+9999MW1101REMSYN088AAXX  04061 54401 11930 82201 11058 21094 39337 40242 57019 69901 71070 8802/ 333 21086;
0175544010999992000010412004+40780+114880FM-12+072699999V0209999C000019999999N0040001N1-00711-01111102551ADDAA106000091GF108991081001999999021999MA1999999093461MD1210031+9999MW1101REMSYN072AAXX  04121 54401 31940 80000 11071 21111 39346 40255 52003 71000 8802/;EQDQ01  00002PRCP06
0124544010999992000010415004+40780+114880FM-12+072699999V0209999C000019999999N0040001N1-00761-01121102561ADDGF108991081001999999021999MD1210021+9999MW1101REMSYN066AAXX  04151 54401 41940 80000 11076 21112 40256 52002 71000 8802/;
0198544010999992000010418004+40780+114880FM-12+072699999V0209999C000019999999N0040001N1-00731-01041102491ADDAA106000091GF108991081001999999021999KA1999M-00511MA1999999093441MD1710041+9999MW1101REMSYN082AAXX  04181 54401 31940 80000 11073 21104 39344 40249 57004 71000 8802/ 333 11051;EQDQ01  00002PRCP06
0145544010999992000010421004+40780+114880FM-12+072699999V0209999C000019999999N0030001N1-00821-01101102491ADDAA124000791GF108991081001999999021999MD1410001+9999MW1101REMSYN076AAXX  04211 54401 41930 80000 11082 21110 40249 54000 71000 8802/ 333 79999;
0192544010999992000010500004+40780+114880FM-12+072699999V0209999C000019999999N0030001N1-00741-00961102491ADDAA106000191AY171061GF108991081001999999021999MA1999999093421MD1710021-0101MW1101REMSYN100AAXX  05001 54401 11930 80000 11074 21096 39342 40249 57002 69911 71070 8802/ 333 05101 70001 92500;
0132544010999992000010503004+40780+114880FM-12+072699999V0202501N002019999999N0040001N1-00561-00831102631ADDAY171031GF108991081001999999021999MD1210151+9999MW1701REMSYN066AAXX  05031 54401 41940 82502 11056 21083 40263 52015 77070 8802/;
0193544010999992000010506004+40780+114880FM-12+072699999V0202201N001019999999N0040001N1-00421-00731102391ADDAA106000191AY171061GF108991081001999999021999KA1999N-00851MA1999999093381MD1710191+9999MW1701REMSYN088AAXX  05061 54401 11940 82201 11042 21073 39338 40239 57019 69911 77070 8802/ 333 21085;
0132544010999992000010509004+40780+114880FM-12+072699999V0200201N003019999999N0080001N1-00431-01321102421ADDAY171031GF108991081001999999021999MD1210011+9999MW1701REMSYN066AAXX  05091 54401 41958 80203 11043 21132 40242 52001 77070 8802/;
0189544010999992000010512004+40780+114880FM-12+072699999V0203401N003019999999N0120001N1-00631-01691102661ADDAA106000791AY171061GF107991999001999999031999MA1999999093591MD1210201+9999MW1001REMSYN078AAXX  05121 54401 11962 73403 11063 21169 39359 40266 52020 69901 70070 8803/;EQDQ01+000082SCOTLC
0112544010999992000010515004+40780+114880FM-12+072699999V0203401N003019999999N0200001N1-00961-02111102901ADDGF107991071001999999031999MD1210191+9999REMSYN060AAXX  05151 54401 42970 73403 11096 21211 40290 52019 8703/;
0143544010999992000010521004+40780+114880FM-12+072699999V0203201N003012200019N0150001N1-01631-02501103271ADDAA124000391GA1001+999999999GF100991001001999999001001MD1210141+9999REMSYN064AAXX  05211 54401 42965 03203 11163 21250 40327 52014 333 70002;
0112544010999992000010603004+40780+114880FM-12+072699999V0203401N005012200019N0200001N1-01641-02771103391ADDGF101991011011012501001001MD1210011+9999REMSYN060AAXX  06031 54401 42670 13405 11164 21277 40339 52001 81100;
0196544010999992000010606004+40780+114880FM-12+072699999V0202901N007012200019N0200001N1-01481-02721103231ADDAA106000091GA1001+999999999GF100991001001999999001001KA1999N-01751MA1999999093871MD1710181+9999REMSYN070AAXX  06061 54401 32970 02907 11148 21272 39387 40323 57018 333 21175;EQDQ01  00002PRCP06
0112544010999992000010609004+40780+114880FM-12+072699999V0203401N006012200019N0150001N1-01581-02811103501ADDGF104991041001999999031001MD1210171+9999REMSYN060AAXX  06091 54401 42965 43406 11158 21281 40350 52017 84030;
0157544010999992000010612004+40780+114880FM-12+072699999V0203401N007012200019N0120001N1+99999+99999103691ADDAA106000091GF102991021001999999031001MA1999999094181MD1210141+9999REMSYN060AAXX  06121 54401 32962 23407 21289 39418 40369 52014 82030;EQDQ01  00002PRCP06
0122544010999992000010615004+40780+114880FM-12+072699999V0203401N004012200019N0200001N1-01821-02991103721ADDGA1001+999999999GF100991001001999999001001MD1210021+9999REMSYN054AAXX  06151 54401 42970 03404 11182 21299 40372 52002;
0122544010999992000010621004+40780+114880FM-12+072699999V0203401N001012200019N0200001N1-01911-03041103731ADDGA1001+999999999GF100991001001999999001001MD1710061+9999REMSYN054AAXX  06211 54401 42970 03401 11191 21304 40373 57006;
0183544010999992000010700004+40780+114880FM-12+072699999V0203401N001012200019N0300001N1-01881-03021103661ADDAA106000091GA1001+999999999GF100991001001999999001001MA1999999094121MD1710081+0011REMSYN070AAXX  07001 54401 32980 03401 11188 21302 39412 40366 57008 333 00152;EQDQ01  00002PRCP06
0112544010999992000010703004+40780+114880FM-12+072699999V0203401N002012200019N0300001N1-01561-02821103451ADDGF102991001001999999001021MD1710151+9999REMSYN060AAXX  07031 54401 42980 23402 11156 21282 40345 57015 80002;
0186544010999992000010706004+40780+114880FM-12+072699999V0202901N002019999999N0300001N1-01301-02661102991ADDAA106000091GF107991051001999999031021KA1999N-01991MA1999999093581MD1710391+9999REMSYN076AAXX  07061 54401 32980 72902 11130 21266 39358 40299 57039 85032 333 21199;EQDQ01  00002PRCP06
0112544010999992000010709004+40780+114880FM-12+072699999V0202501N001019999999N0200001N1-01191-02531102821ADDGF106991041001999999031021MD1710141+9999REMSYN060AAXX  07091 54401 42970 62501 11119 21253 40282 57014 84032;
0163544010999992000010712004+40780+114880FM-12+072699999V0209999C000019999999N0150001N1-01271-02501102871ADDAA106000091GF107991021001999999031021MA1999999093481MD1210041+9999REMSYN066AAXX  07121 54401 32965 70000 11127 21250 39348 40287 52004 82032;EQDQ01  00002PRCP06
0122544010999992000010715004+40780+114880FM-12+072699999V0209999C000012200019N0200001N1-01351-02481102861ADDGA1001+999999999GF100991001001999999001001MD1210031+9999REMSYN054AAXX  07151 54401 42970 00000 11135 21248 40286 52003;
0196544010999992000010718004+40780+114880FM-12+072699999V0203401N003012200019N0200001N1-01481-02491102791ADDAA106000091GA1001+999999999GF100991001001999999001001KA1999M-01121MA1999999093471MD1710041+9999REMSYN070AAXX  07181 54401 32970 03403 11148 21249 39347 40279 57004 333 11112;EQDQ01  00002PRCP06
0122544010999992000010721004+40780+114880FM-12+072699999V0203401N001012200019N0200001N1-01601-02571102761ADDGA1001+999999999GF100991001001999999001001MD1710031+9999REMSYN054AAXX  07211 54401 42970 03401 11160 21257 40276 57003;
0183544010999992000010800004+40780+114880FM-12+072699999V0203401N002012200019N0150001N1-01621-02541102841ADDAA106000091GA1001+999999999GF100991001001999999001001MA1999999093501MD1210061+0061REMSYN070AAXX  08001 54401 32965 03402 11162 21254 39350 40284 52006 333 05603;EQDQ01  00002PRCP06
0112544010999992000010803004+40780+114880FM-12+072699999V0203401N001012200019N0200001N1-01021-02211102731ADDGF101991011001999999031001MD1710011+9999REMSYN060AAXX  08031 54401 42970 13401 11102 21221 40273 57001 81030;
0196544010999992000010806004+40780+114880FM-12+072699999V0202001N001012200019N0120001N1-00511-01911102311ADDAA106000091GA1001+999999999GF100991001001999999001001KA1999N-01691MA1999999093171MD1710321+9999REMSYN070AAXX  08061 54401 32962 02001 11051 21191 39317 40231 57032 333 21169;EQDQ01  00002PRCP06
0124544010999992000010809004+40780+114880FM-12+072699999V0202001N001012200019N0080001N1-00621-02091102331ADDGF101991001001999999001021MD1710021+9999MW1041REMSYN066AAXX  08091 54401 41958 12001 11062 21209 40233 57002 70400 80002;
0175544010999992000010812004+40780+114880FM-12+072699999V0209999C000012200019N0060001N1-01011-02061102461ADDAA106000091GF102991001001999999001021MA1999999093201MD1210051+9999MW1041REMSYN072AAXX  08121 54401 31956 20000 11101 21206 39320 40246 52005 70400 80002;EQDQ01  00002PRCP06
0124544010999992000010815004+40780+114880FM-12+072699999V0209999C000019999999N0040001N1-00931-01951102391ADDGF107991001001999999001021MD1210051+9999MW1041REMSYN066AAXX  08151 54401 41940 70000 11093 21195 40239 52005 70400 80002;
0198544010999992000010818004+40780+114880FM-12+072699999V0209999C000019999999N0040001N1-01071-01981102351ADDAA106000091GF108991081001999999021999KA1999M-00411MA1999999093271MD1210021+9999MW1041REMSYN082AAXX  08181 54401 31940 80000 11107 21198 39327 40235 52002 70400 8802/ 333 11041;EQDQ01  00002PRCP06
0124544010999992000010821004+40780+114880FM-12+072699999V0209999C000012200019N0060001N1-01041-01981102311ADDGF104991001001999999001021MD1710051+9999MW1041REMSYN066AAXX  08211 54401 41956 40000 11104 21198 40231 57005 70400 80002;
0173544010999992000010900004+40780+114880FM-12+072699999V0203601N002012200019N0120001N1-01081-01941102461ADDAA106000091GF102991011001999999041021MA1999999093291MD1210071+0021REMSYN076AAXX  09001 54401 32962 23602 11108 21194 39329 40246 52007 81042 333 05205;EQDQ01  00002PRCP06
0122544010999992000010903004+40780+114880FM-12+072699999V0202501N002012200019N0200001N1-00531-01711102551ADDGA1001+999999999GF100991001001999999001001MD1210181+9999REMSYN054AAXX  09031 54401 42970 02502 11053 21171 40255 52018;
0122544010999992000010909004+40780+114880FM-12+072699999V0203201N002012200019N0300001N1-00161-01981102571ADDGA1001+999999999GF100991001001999999001001MD1210201+9999REMSYN054AAXX  09091 54401 42980 03202 11016 21198 40257 52020;
0173544010999992000010912004+40780+114880FM-12+072699999V0202501N001012200019N0200001N1-00431-01901102811ADDAA106000091GA1001+999999999GF100991001001999999001001MA1999999093701MD1210171+9999REMSYN060AAXX  09121 54401 32970 02501 11043 21190 39370 40281 52017;EQDQ01  00002PRCP06
0122544010999992000010915004+40780+114880FM-12+072699999V0203401N001012200019N0200001N1-00581-02001102801ADDGA1001+999999999GF100991001001999999001001MD1210061+9999REMSYN054AAXX  09151 54401 42970 03401 11058 21200 40280 52006;
0196544010999992000010918004+40780+114880FM-12+072699999V0203401N002012200019N0200001N1-00831-01771102841ADDAA106000091GA1001+999999999GF100991001001999999001001KA1999M+00011MA1999999093831MD1210071+9999REMSYN070AAXX  09181 54401 32970 03402 11083 21177 39383 40284 52007 333 10001;EQDQ01  00002PRCP06
0122544010999992000010921004+40780+114880FM-12+072699999V0203401N002012200019N0200001N1-01041-01951102961ADDGA1001+999999999GF100991001001999999001001MD1210061+9999REMSYN054AAXX  09211 54401 42970 03402 11104 21195 40296 52006;
0183544010999992000011000004+40780+114880FM-12+072699999V0203401N002012200019N0120001N1-01101-01891103111ADDAA106000091GA1001+999999999GF100991001001999999001001MA1999999093971MD1210081+0071REMSYN070AAXX  10001 54401 32962 03402 11110 21189 39397 40311 52008 333 00700;EQDQ01  00002PRCP06
0134544010999992000011003004+40780+114880FM-12+072699999V0201101N001012200019N0030001N1-00631-01701103211ADDGA1001+999999999GF100991001001999999001001MD1210141+9999MW1041REMSYN060AAXX  10031 54401 41930 01101 11063 21170 40321 52014 70400;
0198544010999992000011006004+40780+114880FM-12+072699999V0201601N002012200019N0060001N1-00231-01661102941ADDAA106000091GF102991011001999999031021KA1999N-01181MA1999999093891MD1710221+9999MW1041REMSYN082AAXX  10061 54401 31956 21602 11023 21166 39389 40294 57022 70400 81032 333 21118;EQDQ01  00002PRCP06
0112544010999992000011009004+40780+114880FM-12+072699999V0201101N001019999999N0150001N1-00321-01501103001ADDGF106991021001999999031021MD1210011+9999REMSYN060AAXX  10091 54401 42965 61101 11032 21150 40300 52001 82032;
0163544010999992000011012004+40780+114880FM-12+072699999V0201101N001012200019N0150001N1-00441-01611103071ADDAA106000091GF102991001001999999001021MA1999999093931MD1210031+9999REMSYN066AAXX  10121 54401 32965 21101 11044 21161 39393 40307 52003 80002;EQDQ01  00002PRCP06
0122544010999992000011015004+40780+114880FM-12+072699999V0201101N002012200019N0150001N1-00581-01601103111ADDGA1001+999999999GF100991001001999999001001MD1210091+9999REMSYN054AAXX  10151 54401 42965 01102 11058 21160 40311 52009;
0186544010999992000011018004+40780+114880FM-12+072699999V0201101N002019999999N0200001N1-00651-01461103031ADDAA106000091GF108991081001999999021999KA1999M-00111MA1999999094001MD1710021+9999REMSYN076AAXX  10181 54401 32970 81102 11065 21146 39400 40303 57002 8802/ 333 11011;EQDQ01  00002PRCP06
0124544010999992000011021004+40780+114880FM-12+072699999V0201101N002019999999N0060001N1-00731-01291102961ADDGF108991081001999999021999MD1710091+9999MW1101REMSYN066AAXX  10211 54401 41956 81102 11073 21129 40296 57009 71000 8802/;
0192544010999992000011100004+40780+114880FM-12+072699999V0201401N001019999999N0060001N1-00721-01031103011ADDAA106001091AY171061GF108991081001999999021999MA1999999093941MD1210031+0001MW1701REMSYN100AAXX  11001 54401 11956 81401 11072 21103 39394 40301 52003 69991 77070 8802/ 333 00004 70009 92502;
0140544010999992000011103004+40780+114880FM-12+072699999V0201601N001019999999N0040001N1-00681-00851103051ADDAY171031AY271031GF108991081001999999021999MD1210021+9999MW1711REMSYN066AAXX  11031 54401 41940 81601 11068 21085 40305 52002 77177 8802/;
0201544010999992000011106004+40780+114880FM-12+072699999V0201801N002019999999N0040001N1-00561-00871102821ADDAA106001091AY171061AY271061GF108991081001999999011999KA1999N-00801MA1999999093761MD1710201+9999MW1221REMSYN088AAXX  11061 54401 11940 81802 11056 21087 39376 40282 57020 60011 72277 8801/ 333 21080;
0132544010999992000011109004+40780+114880FM-12+072699999V0201101N001019999999N0030001N1-00661-00911102811ADDAY171031GF108991081001999999021999MD1710041+9999MW1701REMSYN066AAXX  11091 54401 41930 81101 11066 21091 40281 57004 77070 8802/;
0170544010999992000011112004+40780+114880FM-12+072699999V0202001N001019999999N0040001N1-00761-00981102871ADDAA106000591AY171061GF108991081001999999021999MA1999999093761MD1210041+9999MW1701REMSYN078AAXX  11121 54401 11940 82001 11076 21098 39376 40287 52004 69961 77070 8802/;
0140544010999992000011115004+40780+114880FM-12+072699999V0201801N001019999999N0030001N1-00801-00991102881ADDAY171031AY271031GF108991081001999999021999MD1210011+9999MW1701REMSYN066AAXX  11151 54401 41930 81801 11080 21099 40288 52001 77077 8802/;
0201544010999992000011118004+40780+114880FM-12+072699999V0209999C000019999999N0030001N1-00821-01011102851ADDAA106000591AY171061AY271061GF108991081001999999021999KA1999M-00521MA1999999093761MD1710011+9999MW1701REMSYN088AAXX  11181 54401 11930 80000 11082 21101 39376 40285 57001 69961 77077 8802/ 333 11052;
0161544010999992000011121004+40780+114880FM-12+072699999V0201601N001019999999N0030001N1-00841-00941102761ADDAA124003891AY171031AY271031GF108991081001999999021999MD1710101+9999MW1701REMSYN076AAXX  11211 54401 41930 81601 11084 21094 40276 57010 77077 8802/ 333 70038;
0192544010999992000011200004+40780+114880FM-12+072699999V0203201N003019999999N0080001N1-00801-01581102871ADDAA106000391AY171061GF107991071001999999031999MA1999999093751MD1210091-0201MW1701REMSYN100AAXX  12001 54401 11958 73203 11080 21158 39375 40287 52009 69931 77070 8703/ 333 05251 70029 92505;
0132544010999992000011203004+40780+114880FM-12+072699999V0203401N003012200019N0120001N1-00801-01651102961ADDAY171031GF102991001001999999001021MD1210071+9999MW1001REMSYN066AAXX  12031 54401 41962 23403 11080 21165 40296 52007 70070 80002;
0193544010999992000011206004+40780+114880FM-12+072699999V0203401N003012200019N0200001N1-00721-01721102791ADDAA106000791AY171061GF102991021001999999041001KA1999N-00861MA1999999093681MD1710141+9999MW1001REMSYN088AAXX  12061 54401 11970 23403 11072 21172 39368 40279 57014 69901 70070 82040 333 21086;
0112544010999992000011209004+40780+114880FM-12+072699999V0202501N002012200019N0250001N1-00841-01711102971ADDGF102991011001999999041021MD1210141+9999REMSYN060AAXX  12091 54401 42975 22502 11084 21171 40297 52014 81042;
0163544010999992000011212004+40780+114880FM-12+072699999V0203401N003012200019N0200001N1-01081-01871103171ADDAA106000091GF102991021001999999031021MA1999999093971MD1210151+9999REMSYN066AAXX  12121 54401 32970 23403 11108 21187 39397 40317 52015 82032;EQDQ01  00002PRCP06
0122544010999992000011215004+40780+114880FM-12+072699999V0203401N003012200019N0200001N1-01321-02081103301ADDGA1001+999999999GF100991001001999999001001MD1210081+9999REMSYN054AAXX  12151 54401 42970 03403 11132 21208 40330 52008;
0196544010999992000011218004+40780+114880FM-12+072699999V0203401N002012200019N0200001N1-01471-02201103291ADDAA106000091GA1001+999999999GF100991001001999999001001KA1999M-00651MA1999999094031MD1710021+9999REMSYN070AAXX  12181 54401 32970 03402 11147 21220 39403 40329 57002 333 11065;EQDQ01  00002PRCP06
0143544010999992000011221004+40780+114880FM-12+072699999V0203601N001012200019N0200001N1-01551-02251103271ADDAA124000791GA1001+999999999GF100991001001999999001001MD1710061+9999REMSYN064AAXX  12211 54401 42970 03601 11155 21225 40327 57006 333 79999;
0195544010999992000011300004+40780+114880FM-12+072699999V0203401N001012200019N0250001N1-01681-02351103351ADDAA106000091GA1001+999999999GF100991001001999999001001MA1999999093981MD1210011+0201REMSYN082AAXX  13001 54401 32975 03401 11168 21235 39398 40335 52001 333 00259 79999 92504;EQDQ01  00002PRCP06
0112544010999992000011303004+40780+114880FM-12+072699999V0203401N003019999999N0110001N1-01411-02161103371ADDGF107991001001999999001021MD1210031+9999REMSYN060AAXX  13031 54401 42961 73403 11141 21216 40337 52003 80002;
0198544010999992000011306004+40780+114880FM-12+072699999V0201401N001019999999N0060001N1-01071-01821102941ADDAA106000091GF107991001001999999001021KA1999N-01761MA1999999093651MD1710361+9999MW1041REMSYN082AAXX  13061 54401 31956 71401 11107 21182 39365 40294 57036 70400 80002 333 21176;EQDQ01  00002PRCP06
0112544010999992000011309004+40780+114880FM-12+072699999V0201801N001012200019N0150001N1-01071-01781102961ADDGF102991001001999999001021MD1410001+9999REMSYN060AAXX  13091 54401 42965 21801 11107 21178 40296 54000 80002;
0185544010999992000011312004+40780+114880FM-12+072699999V0209999C000012200019N0080001N1-01321-01861103141ADDAA106000091GA1001+999999999GF100991001001999999001001MA1999999093751MD1210101+9999MW1101REMSYN066AAXX  13121 54401 31958 00000 11132 21186 39375 40314 52010 71000;EQDQ01  00002PRCP06
0122544010999992000011315004+40780+114880FM-12+072699999V0203401N002012200019N0150001N1-01251-01811103091ADDGA1001+999999999GF100991001001999999001001MD1210011+9999REMSYN054AAXX  13151 54401 42965 03402 11125 21181 40309 52001;
0196544010999992000011318004+40780+114880FM-12+072699999V0203401N001012200019N0150001N1-01371-01831102991ADDAA106000091GA1001+999999999GF100991001001999999001001KA1999M-00901MA1999999093711MD1710051+9999REMSYN070AAXX  13181 54401 32965 03401 11137 21183 39371 40299 57005 333 11090;EQDQ01  00002PRCP06
0126544010999992000011321004+40780+114880FM-12+072699999V0203401N003012200019N0150001N1-01501-01961103001ADDGA1001+999999999GF100991001001999999001001MD1710011+9999REMSYN058    AAXX  13211 54401 42965 03403 11150 21196 40300 57001;
0193544010999992000011400004+40780+114880FM-12+072699999V0203401N001012200019N0120001N1-01601-02021103191ADDAA199000091GA1001+999999999GF100991001001999999001001MA1999999093811MD1210111-0201REMSYN080    AAXX  14001 54401 32962 03401 11160 21202 39381 40319 52011 333 05201 92503;EQDQ01  00002PRCP99
0126544010999992000011403004+40780+114880FM-12+072699999V0203401N002012200019N0120001N1-00991-01541103201ADDGA1001+999999999GF100991001001999999001001MD1210131+9999REMSYN058    AAXX  14031 54401 42962 03402 11099 21154 40320 52013;
0200544010999992000011406004+40780+114880FM-12+072699999V0202001N001012200019N0120001N1-00531-01321102871ADDAA199000091GA1001+999999999GF100991001001999999001001KA1999N-01641MA1999999093691MD1710251+9999REMSYN074    AAXX  14061 54401 32962 02001 11053 21132 39369 40287 57025 333 21164;EQDQ01  00002PRCP99
0128544010999992000011409004+40780+114880FM-12+072699999V0201601N001012200019N0060001N1-00771-01351102991ADDGF101991001001999999001021MD1210051+9999MW1041REMSYN070    AAXX  14091 54401 41956 11601 11077 21135 40299 52005 70400 80002;
0116544010999992000011415004+40780+114880FM-12+072699999V0203201N002019999999N0120001N1-01021-01671103121ADDGF106991001001999999001021MD1210061+9999REMSYN064    AAXX  14151 54401 42962 63202 11102 21167 40312 52006 80002;
0190544010999992000011418004+40780+114880FM-12+072699999V0200201N001012200019N0150001N1-01181-01821103081ADDAA199000091GF102991001001999999001021KA1999M-00431MA1999999093911MD1210011+9999REMSYN080    AAXX  14181 54401 32965 20201 11118 21182 39391 40308 52001 80002 333 11043;EQDQ01  00002PRCP99
0116544010999992000011421004+40780+114880FM-12+072699999V0203401N002019999999N0120001N1-01061-01751103051ADDGF107991001001999999001021MD1710041+9999REMSYN064    AAXX  14211 54401 42962 73402 11106 21175 40305 57004 80002;
0195544010999992000011500004+40780+114880FM-12+072699999V0209999C000012200019N0060001N1-01291-01741103211ADDAA199000091GF103991001001999999001021MA1999999093921MD1210051+0101MW1041REMSYN092    AAXX  15001 54401 31956 30000 11129 21174 39392 40321 52005 70400 80002 333 00103 92502;EQDQ01  00002PRCP99
0116544010999992000011503004+40780+114880FM-12+072699999V0202201N001012200019N0120001N1-00711-01561103201ADDGF102991001001999999001021MD1210101+9999REMSYN064    AAXX  15031 54401 42962 22201 11071 21156 40320 52010 80002;
0190544010999992000011506004+40780+114880FM-12+072699999V0202501N002012200019N0200001N1-00291-01201102931ADDAA199000091GF101991011011012501001001KA1999N-01341MA1999999093821MD1710201+9999REMSYN080    AAXX  15061 54401 32670 12502 11029 21120 39382 40293 57020 81100 333 21134;EQDQ01  00002PRCP99
0126544010999992000011509004+40780+114880FM-12+072699999V0200201N003012200019N0200001N1-00421-01501103101ADDGA1001+999999999GF100991001001999999001001MD1210151+9999REMSYN058    AAXX  15091 54401 42970 00203 11042 21150 40310 52015;
0177544010999992000011512004+40780+114880FM-12+072699999V0203401N003012200019N0200001N1-00701-01761103411ADDAA199000091GA1001+999999999GF100991001001999999001001MA1999999094171MD1210201+9999REMSYN064    AAXX  15121 54401 32970 03403 11070 21176 39417 40341 52020;EQDQ01  00002PRCP99
0126544010999992000011515004+40780+114880FM-12+072699999V0203401N004012200019N0200001N1-01041-01811103581ADDGA1001+999999999GF100991001001999999001001MD1210191+9999REMSYN058    AAXX  15151 54401 42970 03404 11104 21181 40358 52019;
0200544010999992000011518004+40780+114880FM-12+072699999V0203401N004012200019N0200001N1-01221-01941103531ADDAA199000091GA1001+999999999GF100991001001999999001001KA1999M-00111MA1999999094361MD1410001+9999REMSYN074    AAXX  15181 54401 32970 03404 11122 21194 39436 40353 54000 333 11011;EQDQ01  00002PRCP99
0126544010999992000011521004+40780+114880FM-12+072699999V0202901N003012200019N0200001N1-01301-01991103601ADDGA1001+999999999GF100991001001999999001001MD1210031+9999REMSYN058    AAXX  15211 54401 42970 02903 11130 21199 40360 52003;
0193544010999992000011600004+40780+114880FM-12+072699999V0203401N003012200019N0300001N1-01481-02121103811ADDAA199000091GA1001+999999999GF100991001001999999001001MA1999999094501MD1210111+0601REMSYN080    AAXX  16001 54401 32980 03403 11148 21212 39450 40381 52011 333 00652 92501;EQDQ01  00002PRCP99
0138544010999992000011603004+40780+114880FM-12+072699999V0203201N002012200019N0080001N1-01111-01881103781ADDGA1001+999999999GF100991001001999999001001MD1710021+9999MW1041REMSYN064    AAXX  16031 54401 41958 03202 11111 21188 40378 57002 70400;
0202544010999992000011606004+40780+114880FM-12+072699999V0202201N002012200019N0080001N1-00691-01741103421ADDAA199000091GF102991001001999999001021KA1999N-01531MA1999999094191MD1710291+9999MW1041REMSYN086    AAXX  16061 54401 31958 22202 11069 21174 39419 40342 57029 70400 80002 333 21153;EQDQ01  00002PRCP99
0116544010999992000011609004+40780+114880FM-12+072699999V0209999C000019999999N0150001N1-00681-01721103381ADDGF107991011001999999031021MD1710051+9999REMSYN064    AAXX  16091 54401 42965 70000 11068 21172 40338 57005 81032;
0189544010999992000011612004+40780+114880FM-12+072699999V0209999C000012200019N0080001N1-01061-01711103581ADDAA199000091GA1001+999999999GF100991001001999999001001MA1999999094231MD1210091+9999MW1041REMSYN070    AAXX  16121 54401 31958 00000 11106 21171 39423 40358 52009 70400;EQDQ01  00002PRCP99
0138544010999992000011615004+40780+114880FM-12+072699999V0203401N001012200019N0080001N1-01041-01731103531ADDGA1001+999999999GF100991001001999999001001MD1210021+9999MW1041REMSYN064    AAXX  16151 54401 41958 03401 11104 21173 40353 52002 70400;
0212544010999992000011618004+40780+114880FM-12+072699999V0203401N002012200019N0080001N1-01211-01871103411ADDAA199000091GA1001+999999999GF100991001001999999001001KA1999M-00591MA1999999094181MD1710071+9999MW1041REMSYN080    AAXX  16181 54401 31958 03402 11121 21187 39418 40341 57007 70400 333 11059;EQDQ01  00002PRCP99
0126544010999992000011621004+40780+114880FM-12+072699999V0203401N002012200019N0120001N1-01281-01911103381ADDGA1001+999999999GF100991001001999999001001MD1710031+9999REMSYN058    AAXX  16211 54401 42962 03402 11128 21191 40338 57003;
0193544010999992000011700004+40780+114880FM-12+072699999V0203401N002012200019N0150001N1-01341-01971103451ADDAA199000091GA1001+999999999GF100991001001999999001001MA1999999094141MD1710011-0401REMSYN080    AAXX  17001 54401 32965 03402 11134 21197 39414 40345 57001 333 05401 92501;EQDQ01  00002PRCP99
0138544010999992000011703004+40780+114880FM-12+072699999V0203401N001012200019N0060001N1-00831-01771103351ADDGA1001+999999999GF100991001001999999001001MD1710011+9999MW1041REMSYN064    AAXX  17031 54401 41956 03401 11083 21177 40335 57001 70400;
0212544010999992000011706004+40780+114880FM-12+072699999V0202201N001012200019N0060001N1-00371-01531102951ADDAA199000091GA1001+999999999GF100991001001999999001001KA1999N-01371MA1999999093821MD1710311+9999MW1041REMSYN080    AAXX  17061 54401 31956 02201 11037 21153 39382 40295 57031 70400 333 21137;EQDQ01  00002PRCP99
0138544010999992000011709004+40780+114880FM-12+072699999V0202001N001012200019N0050001N1-00521-01421102931ADDGA1001+999999999GF100991001001999999001001MD1710061+9999MW1041REMSYN064    AAXX  17091 54401 41950 02001 11052 21142 40293 57006 70400;
0189544010999992000011712004+40780+114880FM-12+072699999V0203601N001012200019N0040001N1-00711-01321103041ADDAA199000091GA1001+999999999GF100991001001999999001001MA1999999093821MD1210061+9999MW1041REMSYN070    AAXX  17121 54401 31940 03601 11071 21132 39382 40304 52006 70400;EQDQ01  00002PRCP99
0126544010999992000011715004+40780+114880FM-12+072699999V0203201N002012200019N0120001N1-00461-01511102991ADDGA1001+999999999GF100991001001999999001001MD1210081+9999REMSYN058    AAXX  17151 54401 42962 03202 11046 21151 40299 52008;
0200544010999992000011718004+40780+114880FM-12+072699999V0203401N003012200019N0150001N1-00661-01831102981ADDAA199000091GA1001+999999999GF100991001001999999001001KA1999M-00231MA1999999093931MD1210031+9999REMSYN074    AAXX  17181 54401 32965 03403 11066 21183 39393 40298 52003 333 11023;EQDQ01  00002PRCP99
0126544010999992000011721004+40780+114880FM-12+072699999V0203601N002012200019N0150001N1-00941-01891103041ADDGA1001+999999999GF100991001001999999001001MD1710011+9999REMSYN058    AAXX  17211 54401 42965 03602 11094 21189 40304 57001;
0193544010999992000011800004+40780+114880FM-12+072699999V0203401N004012200019N0300001N1-01071-02011103331ADDAA199000091GA1001+999999999GF100991001001999999001001MA1999999094131MD1210211+0001REMSYN080    AAXX  18001 54401 32980 03404 11107 21201 39413 40333 52021 333 00003 92500;EQDQ01  00002PRCP99
0116544010999992000011803004+40780+114880FM-12+072699999V0203401N004012200019N0250001N1-00971-02141103411ADDGF101991011011012501001001MD1210131+9999REMSYN064    AAXX  18031 54401 42675 13404 11097 21214 40341 52013 81100;
0190544010999992000011806004+40780+114880FM-12+072699999V0203401N005012200019N0250001N1-00881-02041103291ADDAA199000091GF102991011011012501001021KA1999N-01101MA1999999094131MD1710131+9999REMSYN080    AAXX  18061 54401 32675 23405 11088 21204 39413 40329 57013 81102 333 21110;EQDQ01  00002PRCP99
0116544010999992000011809004+40780+114880FM-12+072699999V0203401N003012200019N0300001N1-01011-01981103541ADDGF101991011001999999031001MD1210161+9999REMSYN064    AAXX  18091 54401 42980 13403 11101 21198 40354 52016 81030;
0177544010999992000011812004+40780+114880FM-12+072699999V0202901N003012200019N0250001N1-01191-02071103731ADDAA199000091GA1001+999999999GF100991001001999999001001MA1999999094411MD1210121+9999REMSYN064    AAXX  18121 54401 32975 02903 11119 21207 39441 40373 52012;EQDQ01  00002PRCP99
0126544010999992000011815004+40780+114880FM-12+072699999V0202901N002012200019N0200001N1-01341-02161103751ADDGA1001+999999999GF100991001001999999001001MD1210011+9999REMSYN058    AAXX  18151 54401 42970 02902 11134 21216 40375 52001;
0200544010999992000011818004+40780+114880FM-12+072699999V0203401N001012200019N0200001N1-01421-02171103661ADDAA199000091GA1001+999999999GF100991001001999999001001KA1999M-00651MA1999999094341MD1710081+9999REMSYN074    AAXX  18181 54401 32970 03401 11142 21217 39434 40366 57008 333 11065;EQDQ01  00002PRCP99
0126544010999992000011821004+40780+114880FM-12+072699999V0203401N001012200019N0200001N1-01561-02261103551ADDGA1001+999999999GF100991001001999999001001MD1710141+9999REMSYN058    AAXX  18211 54401 42970 03401 11156 21226 40355 57014;
0187544010999992000011900004+40780+114880FM-12+072699999V0203401N001012200019N0150001N1-01591-02291103541ADDAA199000091GA1001+999999999GF100991001001999999001001MA1999999094151MD1710051+0001REMSYN074    AAXX  19001 54401 32965 03401 11159 21229 39415 40354 57005 333 00055;EQDQ01  00002PRCP99
0187544010999992000011901004+40780+114880FM-12+072699999V0203401N001012200019N0150001N1-01591-02291103541ADDAA199000091GA1001+999999999GF100991001001999999001001MA1999999094151MD1710051+0001REMSYN074    AAXX  19011 54401 32965 03401 11159 21229 39415 40354 57005 333 00055;EQDQ01  00002PRCP99
0126544010999992000011903004+40780+114880FM-12+072699999V0202501N001012200019N0120001N1-00941-02071103431ADDGA1001+999999999GF100991001001999999001001MD1710011+9999REMSYN058    AAXX  19031 54401 42962 02501 11094 21207 40343 57001;
0190544010999992000011906004+40780+114880FM-12+072699999V0202501N002019999999N0200001N1-00481-01851103031ADDAA199000091GF106991001001999999001021KA1999N-01671MA1999999093841MD1710301+9999REMSYN080    AAXX  19061 54401 32970 62502 11048 21185 39384 40303 57030 80002 333 21167;EQDQ01  00002PRCP99
0116544010999992000011909004+40780+114880FM-12+072699999V0203401N004012200019N0300001N1-00671-01941103171ADDGF101991001001999999001021MD1210071+9999REMSYN064    AAXX  19091 54401 42980 13404 11067 21194 40317 52007 80002;
0177544010999992000011912004+40780+114880FM-12+072699999V0203401N003012200019N0200001N1-01031-02131103561ADDAA199000091GA1001+999999999GF100991001001999999001001MA1999999094201MD1210291+9999REMSYN064    AAXX  19121 54401 32970 03403 11103 21213 39420 40356 52029;EQDQ01  00002PRCP99
0126544010999992000011915004+40780+114880FM-12+072699999V0203401N003012200019N0200001N1-01311-02311103651ADDGA1001+999999999GF100991001001999999001001MD1210141+9999REMSYN058    AAXX  19151 54401 42970 03403 11131 21231 40365 52014;
0196544010999992000011918004+40780+114880FM-12+072699999V0202901N002012200019N0200001N1-01461-02391103751ADDAA199000091GA1001+999999999GF100991001001999999001001KA1999M-00411MA1999999094491MD1210151+9999REMSYN070AAXX  19181 54401 32970 02902 11146 21239 39449 40375 52015 333 11041;EQDQ01  00002PRCP99
0122544010999992000011921004+40780+114880FM-12+072699999V0203401N003012200019N0200001N1-01661-02531103851ADDGA1001+999999999GF100991001001999999001001MD1210021+9999REMSYN054AAXX  19211 54401 42970 03403 11166 21253 40385 52002;
0183544010999992000012000004+40780+114880FM-12+072699999V0203401N003012200019N0200001N1-01721-02561104111ADDAA199000091GA1001+999999999GF100991001001999999001001MA1999999094681MD1210171+0051REMSYN070AAXX  20001 54401 32970 03403 11172 21256 39468 40411 52017 333 00551;EQDQ01  00002PRCP99
0122544010999992000012003004+40780+114880FM-12+072699999V0203401N001012200019N0120001N1-01241-02241104201ADDGA1001+999999999GF100991001001999999001001MD1210111+9999REMSYN054AAXX  20031 54401 42962 03401 11124 21224 40420 52011;
0196544010999992000012006004+40780+114880FM-12+072699999V0201601N002012200019N0150001N1-00721-01801103921ADDAA199000091GA1001+999999999GF100991001001999999001001KA1999N-01751MA1999999094601MD1710191+9999REMSYN070AAXX  20061 54401 32965 01602 11072 21180 39460 40392 57019 333 21175;EQDQ01  00002PRCP99
0112544010999992000012009004+40780+114880FM-12+072699999V0209999C000012200019N0120001N1-00721-01801103911ADDGF101991011051017501001001MD1710041+9999REMSYN060AAXX  20091 54401 42762 10000 11072 21180 40391 57004 81500;
0185544010999992000012012004+40780+114880FM-12+072699999V0209999C000012200019N0080001N1-01181-02011104161ADDAA199000091GA1001+999999999GF100991001001999999001001MA1999999094701MD1210141+9999MW1041REMSYN066AAXX  20121 54401 31958 00000 11118 21201 39470 40416 52014 70400;EQDQ01  00002PRCP99
0122544010999992000012015004+40780+114880FM-12+072699999V0203601N001012200019N0120001N1-01201-01961104141ADDGA1001+999999999GF100991001001999999001001MD1210061+9999REMSYN054AAXX  20151 54401 42962 03601 11120 21196 40414 52006;
0196544010999992000012018004+40780+114880FM-12+072699999V0203401N002012200019N0150001N1-01361-02141104051ADDAA199000091GA1001+999999999GF100991001001999999001001KA1999M-00481MA1999999094741MD1710021+9999REMSYN070AAXX  20181 54401 32965 03402 11136 21214 39474 40405 57002 333 11048;EQDQ01  00002PRCP99
0122544010999992000012021004+40780+114880FM-12+072699999V0203401N001012200019N0150001N1-01511-02231104031ADDGA1001+999999999GF100991001001999999001001MD1710051+9999REMSYN054AAXX  20211 54401 42965 03401 11151 21223 40403 57005;
0158544010999992000012100004+40780+114880FM-12+072699999V0203601N001019999999N0120001N1-01541-02221104121ADDAA199000091GF106991999999999999999999MA1999999094691REMSYN075AAXX  21001 54401 32962 63601 11154 21222 39469 40412 5400 80002 333 00002;EQDQ01  00002PRCP99
0112544010999992000012103004+40780+114880FM-12+072699999V0201601N001019999999N0120001N1-01101-01891104001ADDGF107991011001999999031021MD1710041+9999REMSYN060AAXX  21031 54401 42962 71601 11110 21189 40400 57004 81032;
0186544010999992000012106004+40780+114880FM-12+072699999V0201101N001019999999N0120001N1-00991-01831103701ADDAA199000091GF108991081001999999011999KA1999N-01611MA1999999094371MD1710281+9999REMSYN076AAXX  21061 54401 32962 81101 11099 21183 39437 40370 57028 8801/ 333 21161;EQDQ01  00002PRCP99
0124544010999992000012109004+40780+114880FM-12+072699999V0209999C000019999999N0040001N1-00961-01631103561ADDGF108991081001999999021999MD1710151+9999MW1701REMSYN066AAXX  21091 54401 41940 80000 11096 21163 40356 57015 77000 8802/;
0170544010999992000012112004+40780+114880FM-12+072699999V0201101N001019999999N0040001N1-01041-01571103541ADDAA106000191AY171061GF108991081001999999021999MA1999999094191MD1710031+9999MW1701REMSYN078AAXX  21121 54401 11940 81101 11104 21157 39419 40354 57003 69921 77070 8802/;
0132544010999992000012115004+40780+114880FM-12+072699999V0201101N001019999999N0040001N1-01081-01341103411ADDAY171031GF108991081001999999011999MD1710051+9999MW1701REMSYN066AAXX  21151 54401 41940 81101 11108 21134 40341 57005 77070 8801/;
0193544010999992000012118004+40780+114880FM-12+072699999V0201601N001019999999N0040001N1-01101-01301103221ADDAA106001091AY171061GF108991081001999999011999KA1999M-00931MA1999999093981MD1710161+9999MW1701REMSYN088AAXX  21181 54401 11940 81601 11110 21130 39398 40322 57016 60011 77070 8801/ 333 11093;
0161544010999992000012121004+40780+114880FM-12+072699999V0202001N001019999999N0040001N1-01181-01341103141ADDAA124002391AY171031AY271031GF108991081001999999011999MD1710081+9999MW1701REMSYN076AAXX  21211 54401 41940 82001 11118 21134 40314 57008 77077 8801/ 333 70024;
0200544010999992000012200004+40780+114880FM-12+072699999V0201801N001019999999N0030001N1-01201-01341103171ADDAA106001091AY171061AY271061GF108991081001999999021999MA1999999093911MD1210011-0801MW1701REMSYN100AAXX  22001 54401 11930 81801 11120 21134 39391 40317 52001 60011 77077 8802/ 333 05803 70030 92502;
0140544010999992000012203004+40780+114880FM-12+072699999V0202201N001019999999N0050001N1-01021-01331103201ADDAY171031AY271031GF108991001001999999001071MD1210051+9999MW1701REMSYN066AAXX  22031 54401 41950 82201 11102 21133 40320 52005 77077 80007;
0193544010999992000012206004+40780+114880FM-12+072699999V0202001N002019999999N0040001N1-00691-01231102881ADDAA106000191AY171061GF107991001001999999001021KA1999N-01231MA1999999093721MD1710241+9999MW1101REMSYN088AAXX  22061 54401 11940 72002 11069 21123 39372 40288 57024 69911 71070 80002 333 21123;
0124544010999992000012209004+40780+114880FM-12+072699999V0209999C000019999999N0080001N1-00721-01391102921ADDGF107991001001999999001021MD1210021+9999MW1041REMSYN066AAXX  22091 54401 41958 70000 11072 21139 40292 52002 70400 80002;
0156544010999992000012212004+40780+114880FM-12+072699999V0209999C000019999999N0060001N1-00991-01371103071ADDAA199000021GF107991001001999999001021MA1999999093831MD1210091+9999MW1101REMSYN072AAXX  22121 54401 31956 70000 11099 21137 39383 40307 52009 71000 80002;
0122544010999992000012215004+40780+114880FM-12+072699999V0203401N003012200019N0150001N1-00781-01611103161ADDGA1001+999999999GF100991001001999999001001MD1210141+9999REMSYN054AAXX  22151 54401 42965 03403 11078 21161 40316 52014;
0196544010999992000012218004+40780+114880FM-12+072699999V0203401N003012200019N0200001N1-01031-01761103331ADDAA199000091GA1001+999999999GF100991001001999999001001KA1999M-00651MA1999999094141MD1210171+9999REMSYN070AAXX  22181 54401 32970 03403 11103 21176 39414 40333 52017 333 11065;EQDQ01  00002PRCP99
0143544010999992000012221004+40780+114880FM-12+072699999V0203401N003012200019N0200001N1-01191-01911103481ADDAA124000891GA1001+999999999GF100991001001999999001001MD1210111+9999REMSYN064AAXX  22211 54401 42970 03403 11119 21191 40348 52011 333 70007;
0166544010999992000012300004+40780+114880FM-12+072699999V0203201N003012200019N0200001N1-01221-01941103701ADDAA124000191GF102991021001999999031001MA1999999094401MD1210151+0501REMSYN088AAXX  23001 54401 32970 23203 11122 21194 39440 40370 52015 82030 333 00500 70001 92502;
0112544010999992000012303004+40780+114880FM-12+072699999V0200201N004012200019N0150001N1-01081-01871103851ADDGF101991001001999999001021MD1210191+9999REMSYN060AAXX  23031 54401 42965 10204 11108 21187 40385 52019 80002;
0186544010999992000012306004+40780+114880FM-12+072699999V0203401N003012200019N0200001N1-01021-01861103871ADDAA199000091GF101991001001999999001021KA1999N-01301MA1999999094581MD1710011+9999REMSYN076AAXX  23061 54401 32970 13403 11102 21186 39458 40387 57001 80002 333 21130;EQDQ01  00002PRCP99
0112544010999992000012309004+40780+114880FM-12+072699999V0203401N006012200019N0300001N1-01261-02131104171ADDGF103991011001999999041021MD1210201+9999REMSYN060AAXX  23091 54401 42980 33406 11126 21213 40417 52020 81042;
0173544010999992000012312004+40780+114880FM-12+072699999V0203401N004012200019N0200001N1-01531-02341104581ADDAA199000091GA1001+999999999GF100991001001999999001001MA1999999095101MD1210321+9999REMSYN060AAXX  23121 54401 32970 03404 11153 21234 39510 40458 52032;EQDQ01  00002PRCP99
0122544010999992000012315004+40780+114880FM-12+072699999V0202901N005012200019N0200001N1-01821-02571104811ADDGA1001+999999999GF100991001001999999001001MD1210191+9999REMSYN054AAXX  23151 54401 42970 02905 11182 21257 40481 52019;
0196544010999992000012318004+40780+114880FM-12+072699999V0203401N003012200019N0150001N1-01921-02641105021ADDAA199000091GA1001+999999999GF100991001001999999001001KA1999M-00941MA1999999095471MD1210181+9999REMSYN070AAXX  23181 54401 32965 03403 11192 21264 39547 40502 52018 333 11094;EQDQ01  00002PRCP99
0122544010999992000012321004+40780+114880FM-12+072699999V0203201N003012200019N0200001N1-01951-02691105161ADDGA1001+999999999GF100991001001999999001001MD1210081+9999REMSYN054AAXX  23211 54401 42970 03203 11195 21269 40516 52008;
0179544010999992000012400004+40780+114880FM-12+072699999V0202901N002012200019N0300001N1-02001-02691105281ADDAA199000091GF101991001001999999001021MA1999999095601MD1210051+1201REMSYN082AAXX  24001 54401 32980 12902 11200 21269 39560 40528 52005 80002 333 01258 92501;EQDQ01  00002PRCP99
0122544010999992000012403004+40780+114880FM-12+072699999V0202901N002012200019N0200001N1-01721-02821105361ADDGA1001+999999999GF100991001001999999001001MD1210071+9999REMSYN054AAXX  24031 54401 42970 02902 11172 21282 40536 52007;
0196544010999992000012406004+40780+114880FM-12+072699999V0202901N004012200019N0200001N1-01431-02521105131ADDAA199000091GA1001+999999999GF100991001001999999001001KA1999N-02011MA1999999095501MD1710171+9999REMSYN070AAXX  24061 54401 32970 02904 11143 21252 39550 40513 57017 333 21201;EQDQ01  00002PRCP99
0112544010999992000012409004+40780+114880FM-12+072699999V0203201N002012200019N0300001N1-01461-02501105171ADDGF101991011001999999041001MD1210021+9999REMSYN060AAXX  24091 54401 42980 13202 11146 21250 40517 52002 81040;
0173544010999992000012412004+40780+114880FM-12+072699999V0203401N002012200019N0200001N1-01681-02621105331ADDAA199000091GA1001+999999999GF100991001001999999001001MA1999999095621MD1210101+9999REMSYN060AAXX  24121 54401 32970 03402 11168 21262 39562 40533 52010;EQDQ01  00002PRCP99
0112544010999992000012415004+40780+114880FM-12+072699999V0203401N004012200019N0150001N1-01761-02601105241ADDGF104991001001999999001021MD1710041+9999REMSYN060AAXX  24151 54401 42965 43404 11176 21260 40524 57004 80002;
0186544010999992000012418004+40780+114880FM-12+072699999V0203201N002019999999N0150001N1-01841-02581105231ADDAA199000091GF106991001001999999001021KA1999M-01401MA1999999095601MD1210021+9999REMSYN076AAXX  24181 54401 32965 63202 11184 21258 39560 40523 52002 80002 333 11140;EQDQ01  00002PRCP99
0112544010999992000012421004+40780+114880FM-12+072699999V0202901N003012200019N0150001N1-01871-02611105201ADDGF102991001001999999001021MD1710031+9999REMSYN060AAXX  24211 54401 42965 22903 11187 21261 40520 57003 80002;
0179544010999992000012500004+40780+114880FM-12+072699999V0203401N003012200019N0120001N1-01901-02641105331ADDAA199000091GF102991001001999999001021MA1999999095641MD1210071+0001REMSYN082AAXX  25001 54401 32962 23403 11190 21264 39564 40533 52007 80002 333 00001 92501;EQDQ01  00002PRCP99
0112544010999992000012503004+40780+114880FM-12+072699999V0203401N003012200019N0200001N1-01611-02441105271ADDGF101991001001999999001021MD1210021+9999REMSYN060AAXX  25031 54401 42970 13403 11161 21244 40527 52002 80002;
0186544010999992000012506004+40780+114880FM-12+072699999V0203401N004012200019N0300001N1-01271-02221105001ADDAA199000091GF101991001001999999001021KA1999N-01931MA1999999095421MD1710201+9999REMSYN076AAXX  25061 54401 32980 13404 11127 21222 39542 40500 57020 80002 333 21193;EQDQ01  00002PRCP99
0112544010999992000012509004+40780+114880FM-12+072699999V0202901N003012200019N0300001N1-01231-02181105061ADDGF101991001001999999001021MD1210061+9999REMSYN060AAXX  25091 54401 42980 12903 11123 21218 40506 52006 80002;
0173544010999992000012512004+40780+114880FM-12+072699999V0202901N003012200019N0200001N1-01451-02331105261ADDAA199000091GA1001+999999999GF100991001001999999001001MA1999999095621MD1210141+9999REMSYN060AAXX  25121 54401 32970 02903 11145 21233 39562 40526 52014;EQDQ01  00002PRCP99
0122544010999992000012515004+40780+114880FM-12+072699999V0203401N001012200019N0200001N1-01551-02401105351ADDGA1001+999999999GF100991001001999999001001MD1210111+9999REMSYN054AAXX  25151 54401 42970 03401 11155 21240 40535 52011;
0196544010999992000012518004+40780+114880FM-12+072699999V0202901N003012200019N0200001N1-01661-02501105301ADDAA199000091GA1001+999999999GF100991001001999999001001KA1999M-01141MA1999999095731MD1410001+9999REMSYN070AAXX  25181 54401 32970 02903 11166 21250 39573 40530 54000 333 11114;EQDQ01  00002PRCP99
0122544010999992000012521004+40780+114880FM-12+072699999V0203401N004012200019N0200001N1-01661-02481105261ADDGA1001+999999999GF100991001001999999001001MD1710031+9999REMSYN054AAXX  25211 54401 42970 03404 11166 21248 40526 57003;
0189544010999992000012600004+40780+114880FM-12+072699999V0202901N004012200019N0200001N1-01701-02521105391ADDAA199000091GA1001+999999999GF100991001001999999001001MA1999999095771MD1210071+0101REMSYN076AAXX  26001 54401 32970 02904 11170 21252 39577 40539 52007 333 00102 92501;EQDQ01  00002PRCP99
0122544010999992000012603004+40780+114880FM-12+072699999V0203401N003012200019N0300001N1-01381-02271105321ADDGA1001+999999999GF100991001001999999001001MD1710021+9999REMSYN054AAXX  26031 54401 42980 03403 11138 21227 40532 57002;
0196544010999992000012606004+40780+114880FM-12+072699999V0203401N003012200019N0300001N1-00961-01781104991ADDAA199000091GA1001+999999999GF100991001001999999001001KA1999N-01721MA1999999095501MD1710251+9999REMSYN070AAXX  26061 54401 32980 03403 11096 21178 39550 40499 57025 333 21172;EQDQ01  00002PRCP99
0122544010999992000012609004+40780+114880FM-12+072699999V0203401N003012200019N0250001N1-01011-02031105011ADDGA1001+999999999GF100991001001999999001001MD1210011+9999REMSYN054AAXX  26091 54401 42975 03403 11101 21203 40501 52001;
0173544010999992000012612004+40780+114880FM-12+072699999V0203401N005012200019N0200001N1-01251-02151105101ADDAA199000091GA1001+999999999GF100991001001999999001001MA1999999095541MD1210031+9999REMSYN060AAXX  26121 54401 32970 03405 11125 21215 39554 40510 52003;EQDQ01  00002PRCP99
0122544010999992000012615004+40780+114880FM-12+072699999V0203401N003012200019N0150001N1-01351-02221105041ADDGA1001+999999999GF100991001001999999001001MD1710011+9999REMSYN054AAXX  26151 54401 42965 03403 11135 21222 40504 57001;
0196544010999992000012618004+40780+114880FM-12+072699999V0203201N003012200019N0200001N1-01411-02251104921ADDAA199000091GA1001+999999999GF100991001001999999001001KA1999M-00881MA1999999095481MD1710051+9999REMSYN070AAXX  26181 54401 32970 03203 11141 21225 39548 40492 57005 333 11088;EQDQ01  00002PRCP99
0122544010999992000012621004+40780+114880FM-12+072699999V0203401N004012200019N0200001N1-01621-02381104831ADDGA1001+999999999GF100991001001999999001001MD1710131+9999REMSYN054AAXX  26211 54401 42970 03404 11162 21238 40483 57013;
0189544010999992000012700004+40780+114880FM-12+072699999V0203401N003012200019N0300001N1-01631-02351104821ADDAA199000091GA1001+999999999GF100991001001999999001001MA1999999095301MD1710051-0501REMSYN076AAXX  27001 54401 32980 03403 11163 21235 39530 40482 57005 333 05501 92501;EQDQ01  00002PRCP99
0122544010999992000012703004+40780+114880FM-12+072699999V0203401N002012200019N0300001N1-01151-02011104681ADDGA1001+999999999GF100991001001999999001001MD1710061+9999REMSYN054AAXX  27031 54401 42980 03402 11115 21201 40468 57006;
0196544010999992000012706004+40780+114880FM-12+072699999V0202501N002012200019N0300001N1-00711-02051104231ADDAA199000091GA1001+999999999GF100991001001999999001001KA1999N-01691MA1999999094891MD1710351+9999REMSYN070AAXX  27061 54401 32980 02502 11071 21205 39489 40423 57035 333 21169;EQDQ01  00002PRCP99
0122544010999992000012709004+40780+114880FM-12+072699999V0202501N003012200019N0250001N1-00701-01761104081ADDGA1001+999999999GF100991001001999999001001MD1710171+9999REMSYN054AAXX  27091 54401 42975 02503 11070 21176 40408 57017;
0173544010999992000012712004+40780+114880FM-12+072699999V0202901N002012200019N0120001N1-00881-01961104101ADDAA199000091GA1001+999999999GF100991001001999999001001MA1999999094711MD1710011+9999REMSYN060AAXX  27121 54401 32962 02902 11088 21196 39471 40410 57001;EQDQ01  00002PRCP99
0122544010999992000012715004+40780+114880FM-12+072699999V0203401N003012200019N0120001N1-01201-02031104041ADDGA1001+999999999GF100991001001999999001001MD1710031+9999REMSYN054AAXX  27151 54401 42962 03403 11120 21203 40404 57003;
0196544010999992000012718004+40780+114880FM-12+072699999V0203401N003012200019N0150001N1-01471-02221103921ADDAA199000091GA1001+999999999GF100991001001999999001001KA1999M-00581MA1999999094601MD1710081+9999REMSYN070AAXX  27181 54401 32965 03403 11147 21222 39460 40392 57008 333 11058;EQDQ01  00002PRCP99
0122544010999992000012721004+40780+114880FM-12+072699999V0203401N001012200019N0150001N1-01601-02321103801ADDGA1001+999999999GF100991001001999999001001MD1710131+9999REMSYN054AAXX  27211 54401 42965 03401 11160 21232 40380 57013;
0183544010999992000012800004+40780+114880FM-12+072699999V0203401N003012200019N0150001N1-01601-02341103891ADDAA199000091GA1001+999999999GF100991001001999999001001MA1999999094521MD1210051+0081REMSYN070AAXX  28001 54401 32965 03403 11160 21234 39452 40389 52005 333 05800;EQDQ01  00002PRCP99
0134544010999992000012803004+40780+114880FM-12+072699999V0203401N001012200019N0080001N1-01021-01961103851ADDGA1001+999999999GF100991001001999999001001MD1210011+9999MW1041REMSYN060AAXX  28031 54401 41958 03401 11102 21196 40385 52001 70400;
0196544010999992000012806004+40780+114880FM-12+072699999V0202701N001012200019N0120001N1-00461-01731103511ADDAA199000091GA1001+999999999GF100991001001999999001001KA1999N-01651MA1999999094271MD1710261+9999REMSYN070AAXX  28061 54401 32962 02701 11046 21173 39427 40351 57026 333 21165;EQDQ01  00002PRCP99
0112544010999992000012809004+40780+114880FM-12+072699999V0202901N001019999999N0120001N1-00431-01591103501ADDGF107991001001999999001021MD1710031+9999REMSYN060AAXX  28091 54401 42962 72901 11043 21159 40350 57003 80002;
0173544010999992000012812004+40780+114880FM-12+072699999V0203401N004012200019N0200001N1-00591-01851103691ADDAA199000091GA1001+999999999GF100991001001999999001001MA1999999094391MD1210151+9999REMSYN060AAXX  28121 54401 32970 03404 11059 21185 39439 40369 52015;EQDQ01  00002PRCP99
0122544010999992000012815004+40780+114880FM-12+072699999V0203401N004012200019N0200001N1-01071-02091103981ADDGA1001+999999999GF100991001001999999001001MD1210281+9999REMSYN054AAXX  28151 54401 42970 03404 11107 21209 40398 52028;
0196544010999992000012818004+40780+114880FM-12+072699999V0203401N003012200019N0150001N1-01221-02171104001ADDAA199000091GA1001+999999999GF100991001001999999001001KA1999M-00331MA1999999094761MD1210091+9999REMSYN070AAXX  28181 54401 32965 03403 11122 21217 39476 40400 52009 333 11033;EQDQ01  00002PRCP99
0122544010999992000012821004+40780+114880FM-12+072699999V0202901N004012200019N0150001N1-01411-02321104091ADDGA1001+999999999GF100991001001999999001001MD1210051+9999REMSYN054AAXX  28211 54401 42965 02904 11141 21232 40409 52005;
0173544010999992000012900004+40780+114880FM-12+072699999V0202901N003012200019N0200001N1-01441-02321104331ADDAA199000091GF102991001001999999001021MA1999999095001MD1210191+0051REMSYN076AAXX  29001 54401 32970 22903 11144 21232 39500 40433 52019 80002 333 00502;EQDQ01  00002PRCP99
0112544010999992000012903004+40780+114880FM-12+072699999V0203401N004010360019N0200001N1-01241-02191104491ADDGF107991021051017501031021MD1210101+9999REMSYN060AAXX  29031 54401 42770 73404 11124 21219 40449 52010 82532;
0186544010999992000012906004+40780+114880FM-12+072699999V0202901N005010360019N0200001N1-01091-02101104381ADDAA199000091GF107991011051017501031021KA1999N-01471MA1999999095001MD1710101+9999REMSYN076AAXX  29061 54401 32770 72905 11109 21210 39500 40438 57010 81532 333 21147;EQDQ01  00002PRCP99
0112544010999992000012909004+40780+114880FM-12+072699999V0203401N004012200019N0300001N1-01161-02071104541ADDGF101991011001999999031021MD1210101+9999REMSYN060AAXX  29091 54401 42980 13404 11116 21207 40454 52010 81032;
0173544010999992000012912004+40780+114880FM-12+072699999V0203201N003012200019N0150001N1-01361-02251104901ADDAA199000091GA1001+999999999GF100991001001999999001001MA1999999095391MD1210291+9999REMSYN060AAXX  29121 54401 32965 03203 11136 21225 39539 40490 52029;EQDQ01  00002PRCP99
0122544010999992000012915004+40780+114880FM-12+072699999V0203401N001012200019N0150001N1-01601-02451105001ADDGA1001+999999999GF100991001001999999001001MD1210081+9999REMSYN054AAXX  29151 54401 42965 03401 11160 21245 40500 52008;
0196544010999992000012918004+40780+114880FM-12+072699999V0203401N001012200019N0150001N1-01661-02481104941ADDAA199000091GA1001+999999999GF100991001001999999001001KA1999M-01061MA1999999095431MD1710041+9999REMSYN070AAXX  29181 54401 32965 03401 11166 21248 39543 40494 57004 333 11106;EQDQ01  00002PRCP99
0122544010999992000012921004+40780+114880FM-12+072699999V0203401N002012200019N0150001N1-01691-02491104951ADDGA1001+999999999GF100991001001999999001001MD1710011+9999REMSYN054AAXX  29211 54401 42965 03402 11169 21249 40495 57001;
0173544010999992000013000004+40780+114880FM-12+072699999V0203401N002019999999N0120001N1-01721-02451105111ADDAA199000091GF107991031001999999041021MA1999999095531MD1210111+0051REMSYN076AAXX  30001 54401 32962 73402 11172 21245 39553 40511 52011 83042 333 00553;EQDQ01  00002PRCP99
0112544010999992000013003004+40780+114880FM-12+072699999V0203201N003019999999N0250001N1-01271-02221105171ADDGF107991021001004501031021MD1210091+9999REMSYN060AAXX  30031 54401 42475 73203 11127 21222 40517 52009 82032;
0186544010999992000013006004+40780+114880FM-12+072699999V0202901N006019999999N0300001N1-01211-02241105091ADDAA199000091GF106991021001999999041021KA1999N-01781MA1999999095551MD1710071+9999REMSYN076AAXX  30061 54401 32980 62906 11121 21224 39555 40509 57007 82042 333 21178;EQDQ01  00002PRCP99
0112544010999992000013009004+40780+114880FM-12+072699999V0203401N003012200019N0300001N1-01341-02391105311ADDGF101991011001999999031001MD1210171+9999REMSYN060AAXX  30091 54401 42980 13403 11134 21239 40531 52017 81030;
0173544010999992000013012004+40780+114880FM-12+072699999V0203401N003012200019N0150001N1-01611-02511105631ADDAA199000091GA1001+999999999GF100991001001999999001001MA1999999095961MD1210241+9999REMSYN060AAXX  30121 54401 32965 03403 11161 21251 39596 40563 52024;EQDQ01  00002PRCP99
0122544010999992000013015004+40780+114880FM-12+072699999V0203401N003012200019N0150001N1-01831-02661105711ADDGA1001+999999999GF100991001001999999001001MD1210111+9999REMSYN054AAXX  30151 54401 42965 03403 11183 21266 40571 52011;
0196544010999992000013018004+40780+114880FM-12+072699999V0203401N002012200019N0150001N1-01961-02741105701ADDAA199000091GA1001+999999999GF100991001001999999001001KA1999M-01151MA1999999096051MD1710021+9999REMSYN070AAXX  30181 54401 32965 03402 11196 21274 39605 40570 57002 333 11115;EQDQ01  00002PRCP99
0122544010999992000013021004+40780+114880FM-12+072699999V0202901N004012200019N0200001N1-01991-02771105561ADDGA1001+999999999GF100991001001999999001001MD1710161+9999REMSYN054AAXX  30211 54401 42970 02904 11199 21277 40556 57016;
0183544010999992000013100004+40780+114880FM-12+072699999V0203401N003012200019N0200001N1-01971-02751105731ADDAA199000091GA1001+999999999GF100991001001999999001001MA1999999096001MD1210111+0051REMSYN070AAXX  31001 54401 32970 03403 11197 21275 39600 40573 52011 333 00553;EQDQ01  00002PRCP99
0122544010999992000013103004+40780+114880FM-12+072699999V0203401N003012200019N0300001N1-01661-02551105571ADDGA1001+999999999GF100991001001999999001001MD1710131+9999REMSYN054AAXX  31031 54401 42980 03403 11166 21255 40557 57013;
0196544010999992000013106004+40780+114880FM-12+072699999V0202901N003012200019N0300001N1-01241-02241105071ADDAA199000091GA1001+999999999GF100991001001999999001001KA1999N-02051MA1999999095471MD1710401+9999REMSYN070AAXX  31061 54401 32980 02903 11124 21224 39547 40507 57040 333 21205;EQDQ01  00002PRCP99
0122544010999992000013109004+40780+114880FM-12+072699999V0203401N002012200019N0200001N1-01281-02301104961ADDGA1001+999999999GF100991001001999999001001MD1710111+9999REMSYN054AAXX  31091 54401 42970 03402 11128 21230 40496 57011;
0173544010999992000013112004+40780+114880FM-12+072699999V0203201N005012200019N0200001N1-01551-02501999999ADDAA199000091GA1001+999999999GF100991001001999999001001MA1999999095331MD1710031+9999REMSYN060AAXX  31121 54401 32970 03205 11155 21250 39533 40/98 57003;EQDQ01  00002PRCP99
0122544010999992000013115004+40780+114880FM-12+072699999V0202901N004012200019N0200001N1-01681-02571104831ADDGA1001+999999999GF100991001001999999001001MD1710101+9999REMSYN054AAXX  31151 54401 42970 02904 11168 21257 40483 57010;
0196544010999992000013118004+40780+114880FM-12+072699999V0203201N003012200019N0200001N1-01731-02621104611ADDAA199000091GA1001+999999999GF100991001001999999001001KA1999M-01141MA1999999095091MD1710141+9999REMSYN070AAXX  31181 54401 32970 03203 11173 21262 39509 40461 57014 333 11114;EQDQ01  00002PRCP99
0122544010999992000013121004+40780+114880FM-12+072699999V0202901N002012200019N0200001N1-01821-02701104471ADDGA1001+999999999GF100991001001999999001001MD1710011+9999REMSYN054AAXX  31211 54401 42970 02902 11182 21270 40447 57001;
0173544010999992000020100004+40780+114880FM-12+072699999V0202901N003012200019N0300001N1-01841-02691104461ADDAA199000091GF102991001001999999001021MA1999999094881MD1710061+0111REMSYN076AAXX  01001 54401 32980 22903 11184 21269 39488 40446 57006 80002 333 06101;EQDQ01  00002PRCP99
0122544010999992000020103004+40780+114880FM-12+072699999V0203401N002012200019N0300001N1-01431-02421104311ADDGA1001+999999999GF100991001001999999001001MD1710081+9999REMSYN054AAXX  01031 54401 42980 03402 11143 21242 40431 57008;
0196544010999992000020106004+40780+114880FM-12+072699999V0202501N001012200019N0300001N1-00971-02141103861ADDAA199000091GA1001+999999999GF100991001001999999001001KA1999N-01861MA1999999094461MD1710341+9999REMSYN070AAXX  01061 54401 32980 02501 11097 21214 39446 40386 57034 333 21186;EQDQ01  00002PRCP99
0122544010999992000020109004+40780+114880FM-12+072699999V0203401N003012200019N0250001N1-01011-02371103801ADDGA1001+999999999GF100991001001999999001001MD1710081+9999REMSYN054AAXX  01091 54401 42975 03403 11101 21237 40380 57008;
0173544010999992000020112004+40780+114880FM-12+072699999V0203401N003012200019N0200001N1-01321-02421103971ADDAA199000091GA1001+999999999GF100991001001999999001001MA1999999094481MD1210101+9999REMSYN060AAXX  01121 54401 32970 03403 11132 21242 39448 40397 52010;EQDQ01  00002PRCP99
0122544010999992000020115004+40780+114880FM-12+072699999V0203401N004012200019N0200001N1-01461-02441103991ADDGA1001+999999999GF100991001001999999001001MD1210061+9999REMSYN054AAXX  01151 54401 42970 03404 11146 21244 40399 52006;
0196544010999992000020118004+40780+114880FM-12+072699999V0203401N004012200019N0200001N1-01591-02561103891ADDAA199000091GA1001+999999999GF100991001001999999001001KA1999M-00871MA1999999094511MD1710031+9999REMSYN070AAXX  01181 54401 32970 03404 11159 21256 39451 40389 57003 333 11087;EQDQ01  00002PRCP99
0122544010999992000020121004+40780+114880FM-12+072699999V0203401N003012200019N0200001N1-01701-02641103851ADDGA1001+999999999GF100991001001999999001001MD1710061+9999REMSYN054AAXX  01211 54401 42970 03403 11170 21264 40385 57006;
0183544010999992000020200004+40780+114880FM-12+072699999V0203401N003012200019N0300001N1-01721-02661104011ADDAA199000091GA1001+999999999GF100991001001999999001001MA1999999094541MD1210091+0031REMSYN070AAXX  02001 54401 32980 03403 11172 21266 39454 40401 52009 333 05301;EQDQ01  00002PRCP99
0122544010999992000020203004+40780+114880FM-12+072699999V0203401N003012200019N0150001N1-01281-02451103991ADDGA1001+999999999GF100991001001999999001001MD1210031+9999REMSYN054AAXX  02031 54401 42965 03403 11128 21245 40399 52003;
0196544010999992000020206004+40780+114880FM-12+072699999V0203401N004012200019N0200001N1-00941-02281103711ADDAA199000091GA1001+999999999GF100991001001999999001001KA1999N-01741MA1999999094351MD1710221+9999REMSYN070AAXX  02061 54401 32970 03404 11094 21228 39435 40371 57022 333 21174;EQDQ01  00002PRCP99
0112544010999992000020209004+40780+114880FM-12+072699999V0203401N004012200019N0300001N1-00971-02141103681ADDGF101991011001999999031021MD1710051+9999REMSYN060AAXX  02091 54401 42980 13404 11097 21214 40368 57005 81032;
0173544010999992000020212004+40780+114880FM-12+072699999V0203401N003012200019N0200001N1-01181-02331103861ADDAA199000091GA1001+999999999GF100991001001999999001001MA1999999094421MD1210121+9999REMSYN060AAXX  02121 54401 32970 03403 11118 21233 39442 40386 52012;EQDQ01  00002PRCP99
0122544010999992000020215004+40780+114880FM-12+072699999V0203401N005012200019N0200001N1-01381-02401103921ADDGA1001+999999999GF100991001001999999001001MD1210101+9999REMSYN054AAXX  02151 54401 42970 03405 11138 21240 40392 52010;
0196544010999992000020218004+40780+114880FM-12+072699999V0202901N004012200019N0200001N1-01501-02511103861ADDAA199000091GA1001+999999999GF100991001001999999001001KA1999M-00851MA1999999094501MD1710021+9999REMSYN070AAXX  02181 54401 32970 02904 11150 21251 39450 40386 57002 333 11085;EQDQ01  00002PRCP99
0122544010999992000020221004+40780+114880FM-12+072699999V0202901N003012200019N0200001N1-01581-02551103841ADDGA1001+999999999GF100991001001999999001001MD1710031+9999REMSYN054AAXX  02211 54401 42970 02903 11158 21255 40384 57003;
0183544010999992000020300004+40780+114880FM-12+072699999V0203401N004012200019N0250001N1-01711-02621104071ADDAA199000091GA1001+999999999GF100991001001999999001001MA1999999094621MD1210151+0011REMSYN070AAXX  03001 54401 32975 03404 11171 21262 39462 40407 52015 333 00100;EQDQ01  00002PRCP99
0122544010999992000020303004+40780+114880FM-12+072699999V0203201N002012200019N0300001N1-01101-02281104011ADDGA1001+999999999GF100991001001999999001001MD1210011+9999REMSYN054AAXX  03031 54401 42980 03202 11110 21228 40401 52001;
0186544010999992000020306004+40780+114880FM-12+072699999V0202501N002012200019N0300001N1-00521-01861103601ADDAA199000091GF101991001001999999001021KA1999N-01741MA1999999094341MD1710291+9999REMSYN076AAXX  03061 54401 32980 12502 11052 21186 39434 40360 57029 80002 333 21174;EQDQ01  00002PRCP99
0122544010999992000020309004+40780+114880FM-12+072699999V0202901N001012200019N0120001N1-00441-02031103511ADDGA1001+999999999GF100991001001999999001001MD1710091+9999REMSYN054AAXX  03091 54401 42962 02901 11044 21203 40351 57009;
0185544010999992000020312004+40780+114880FM-12+072699999V0203401N002012200019N0060001N1-00841-02051103721ADDAA199000091GA1001+999999999GF100991001001999999001001MA1999999094361MD1210111+9999MW1041REMSYN066AAXX  03121 54401 31956 03402 11084 21205 39436 40372 52011 70400;EQDQ01  00002PRCP99
0134544010999992000020315004+40780+114880FM-12+072699999V0203601N001012200019N0070001N1-01121-02191103671ADDGA1001+999999999GF100991001001999999001001MD1210011+9999MW1041REMSYN060AAXX  03151 54401 41957 03601 11112 21219 40367 52001 70400;
0196544010999992000020318004+40780+114880FM-12+072699999V0203401N003012200019N0150001N1-01321-02341103591ADDAA199000091GA1001+999999999GF100991001001999999001001KA1999M-00361MA1999999094361MD1710011+9999REMSYN070AAXX  03181 54401 32965 03403 11132 21234 39436 40359 57001 333 11036;EQDQ01  00002PRCP99
0122544010999992000020321004+40780+114880FM-12+072699999V0203401N003012200019N0200001N1-01461-02441103531ADDGA1001+999999999GF100991001001999999001001MD1710071+9999REMSYN054AAXX  03211 54401 42970 03403 11146 21244 40353 57007;
0183544010999992000020400004+40780+114880FM-12+072699999V0203401N001012200019N0200001N1-01491-02441103681ADDAA199000091GA1001+999999999GF100991001001999999001001MA1999999094361MD1210071+0031REMSYN070AAXX  04001 54401 32970 03401 11149 21244 39436 40368 52007 333 05302;EQDQ01  00002PRCP99
0124544010999992000020403004+40780+114880FM-12+072699999V0201601N001019999999N0080001N1-01011-02091103511ADDGF107991001001999999001021MD1710121+9999MW1041REMSYN066AAXX  04031 54401 41958 71601 11101 21209 40351 57012 70400 80002;
0198544010999992000020406004+40780+114880FM-12+072699999V0200901N001019999999N0080001N1-00401-01921103101ADDAA199000091GF107991001001999999001021KA1999N-01541MA1999999093931MD1710311+9999MW1041REMSYN082AAXX  04061 54401 31958 70901 11040 21192 39393 40310 57031 70400 80002 333 21154;EQDQ01  00002PRCP99
0124544010999992000020409004+40780+114880FM-12+072699999V0201401N001012200019N0080001N1-00371-01751102981ADDGF102991001001999999001021MD1710131+9999MW1041REMSYN066AAXX  04091 54401 41958 21401 11037 21175 40298 57013 70400 80002;
0185544010999992000020412004+40780+114880FM-12+072699999V0203401N001012200019N0040001N1-00711-01781103131ADDAA199000091GA1001+999999999GF100991001001999999001001MA1999999093881MD1210081+9999MW1041REMSYN066AAXX  04121 54401 31940 03401 11071 21178 39388 40313 52008 70400;EQDQ01  00002PRCP99
0134544010999992000020415004+40780+114880FM-12+072699999V0203401N001012200019N0060001N1-00821-01911103031ADDGA1001+999999999GF100991001001999999001001MD1710031+9999MW1041REMSYN060AAXX  04151 54401 41956 03401 11082 21191 40303 57003 70400;
0208544010999992000020418004+40780+114880FM-12+072699999V0203401N001012200019N0060001N1-00931-02051102861ADDAA199000091GA1001+999999999GF100991001001999999001001KA1999M-00091MA1999999093781MD1710071+9999MW1041REMSYN076AAXX  04181 54401 31956 03401 11093 21205 39378 40286 57007 70400 333 11009;EQDQ01  00002PRCP99
0134544010999992000020421004+40780+114880FM-12+072699999V0203201N002012200019N0060001N1-00861-01821102741ADDGA1001+999999999GF100991001001999999001001MD1710101+9999MW1041REMSYN060AAXX  04211 54401 41956 03202 11086 21182 40274 57010 70400;
0184544010999992000020500004+40780+114880FM-12+072699999V0203401N004019999999N0030001N1-00821-01611102821ADDAA106000791GF108991081001999999021999MA1999999093711MD1210031-0701MW1701REMSYN100AAXX  05001 54401 11930 83404 11082 21161 39371 40282 52003 69901 77000 8802/ 333 05707 79999 92500;
0142544010999992000020503004+40780+114880FM-12+072699999V0209999C000012200019N0030001N1-00691-01081102791ADDAY171031GA1001+999999999GF100991001001999999001001MD1710031+9999MW1221REMSYN060AAXX  05031 54401 41930 00000 11069 21108 40279 57003 72270;
0193544010999992000020506004+40780+114880FM-12+072699999V0202501N001012200019N0120001N1-00051-00891102471ADDAA106000191AY171061GF102991001001999999001021KA1999N-00941MA1999999093481MD1710201+9999MW1001REMSYN088AAXX  05061 54401 11962 22501 11005 21089 39348 40247 57020 69911 70070 80002 333 21094;
0112544010999992000020509004+40780+114880FM-12+072699999V0203201N002019999999N0150001N1+00061-01461102371ADDGF107991021001999999031021MD1710071+9999REMSYN060AAXX  05091 54401 42965 73202 10006 21146 40237 57007 82032;
0154544010999992000020512004+40780+114880FM-12+072699999V0202901N004012200019N0120001N1-00271-01751102661ADDAA199000021GA1001+999999999GF100991001001999999001001MA1999999093631MD1210221+9999REMSYN060AAXX  05121 54401 32962 02904 11027 21175 39363 40266 52022;
0122544010999992000020515004+40780+114880FM-12+072699999V0203401N003012200019N0120001N1-00631-01621102831ADDGA1001+999999999GF100991001001999999001001MD1210121+9999REMSYN054AAXX  05151 54401 42962 03403 11063 21162 40283 52012;
0196544010999992000020518004+40780+114880FM-12+072699999V0203401N003012200019N0150001N1-00821-01831102771ADDAA199000091GA1001+999999999GF100991001001999999001001KA1999M+00131MA1999999093771MD1210021+9999REMSYN070AAXX  05181 54401 32965 03403 11082 21183 39377 40277 52002 333 10013;EQDQ01  00002PRCP99
0143544010999992000020521004+40780+114880FM-12+072699999V0203401N003012200019N0150001N1-01041-01881102811ADDAA124000191GA1001+999999999GF100991001001999999001001MD1210021+9999REMSYN064AAXX  05211 54401 42965 03403 11104 21188 40281 52002 333 70001;
0170544010999992000020600004+40780+114880FM-12+072699999V0202901N003012200019N0150001N1-01101-01941102941ADDAA124000191GA1001+999999999GF100991001001999999001001MA1999999093841MD1210051+0101REMSYN076AAXX  06001 54401 32965 02903 11110 21194 39384 40294 52005 333 00153 70001;
0122544010999992000020603004+40780+114880FM-12+072699999V0202901N002012200019N0300001N1-00511-01601102841ADDGA1001+999999999GF100991001001999999001001MD1710051+9999REMSYN054AAXX  06031 54401 42980 02902 11051 21160 40284 57005;
0186544010999992000020606004+40780+114880FM-12+072699999V0200201N001019999999N0300001N1-00171-01591102521ADDAA199000091GF107991001001999999001021KA1999N-01111MA1999999093521MD1710271+9999REMSYN076AAXX  06061 54401 32980 70201 11017 21159 39352 40252 57027 80002 333 21111;EQDQ01  00002PRCP99
0112544010999992000020609004+40780+114880FM-12+072699999V0200201N003019999999N0150001N1-00181-01951102511ADDGF107991001001999999001021MD1710051+9999REMSYN060AAXX  06091 54401 42965 70203 11018 21195 40251 57005 80002;
0162544010999992000020612004+40780+114880FM-12+072699999V0200201N004019999999N0050001N1-00541-01121102771ADDAA106000791GF108991081001999999021999MA1999999093641MD1210171+9999MW1701REMSYN078AAXX  06121 54401 11950 80204 11054 21112 39364 40277 52017 69901 77000 8802/;
0132544010999992000020615004+40780+114880FM-12+072699999V0203201N001019999999N0040001N1-00851-01891103081ADDAY171031GF108991081001999999021999MD1210331+9999MW1041REMSYN066AAXX  06151 54401 41940 83201 11085 21189 40308 52033 70470 8802/;
0203544010999992000020618004+40780+114880FM-12+072699999V0203401N003012200019N0150001N1-01061-02001103201ADDAA106000191AY171061GA1001+999999999GF100991001001999999001001KA1999M-00021MA1999999094101MD1210131+9999MW1001REMSYN082AAXX  06181 54401 11965 03403 11106 21200 39410 40320 52013 69911 70070 333 11002;
0143544010999992000020621004+40780+114880FM-12+072699999V0202901N002012200019N0150001N1-01121-01981103111ADDAA124000191GA1001+999999999GF100991001001999999001001MD1710091+9999REMSYN064AAXX  06211 54401 42965 02902 11112 21198 40311 57009 333 70001;
0160544010999992000020700004+40780+114880FM-12+072699999V0200201N001019999999N0200001N1-01141-01911103081ADDAA124000191GF106991041001999999031021MA1999999093921MD1710091+0101REMSYN082AAXX  07001 54401 32970 60201 11114 21191 39392 40308 57009 84032 333 00100 70001;
0112544010999992000020703004+40780+114880FM-12+072699999V0203201N002019999999N0200001N1-00621-01831102911ADDGF106991021001999999031021MD1710121+9999REMSYN060AAXX  07031 54401 42970 63202 11062 21183 40291 57012 82032;
0186544010999992000020706004+40780+114880FM-12+072699999V0203201N005019999999N0300001N1-00411-01931102591ADDAA199000091GF107991021001999999031021KA1999N-01291MA1999999093511MD1710291+9999REMSYN076AAXX  07061 54401 32980 73205 11041 21193 39351 40259 57029 82032 333 21129;EQDQ01  00002PRCP99
0112544010999992000020709004+40780+114880FM-12+072699999V0203401N005012200019N0250001N1-00521-01851102631ADDGF101991001001999999001021MD1210011+9999REMSYN060AAXX  07091 54401 42975 13405 11052 21185 40263 52001 80002;
0163544010999992000020712004+40780+114880FM-12+072699999V0202901N003012200019N0250001N1-00901-02081103041ADDAA199000091GF104991001001999999001021MA1999999093821MD1210301+9999REMSYN066AAXX  07121 54401 32975 42903 11090 21208 39382 40304 52030 80002;EQDQ01  00002PRCP99
0122544010999992000020715004+40780+114880FM-12+072699999V0203401N005012200019N0250001N1-01321-02211103351ADDGA1001+999999999GF100991001001999999001001MD1210301+9999REMSYN054AAXX  07151 54401 42975 03405 11132 21221 40335 52030;
0196544010999992000020718004+40780+114880FM-12+072699999V0202901N001012200019N0250001N1-01561-02441103661ADDAA199000091GA1001+999999999GF100991001001999999001001KA1999M-00351MA1999999094401MD1210281+9999REMSYN070AAXX  07181 54401 32975 02901 11156 21244 39440 40366 52028 333 11035;EQDQ01  00002PRCP99
0122544010999992000020721004+40780+114880FM-12+072699999V0202901N002012200019N0200001N1-01671-02491103751ADDGA1001+999999999GF100991001001999999001001MD1210041+9999REMSYN054AAXX  07211 54401 42970 02902 11167 21249 40375 52004;
0183544010999992000020800004+40780+114880FM-12+072699999V0203401N002012200019N0300001N1-01701-02521103921ADDAA199000091GA1001+999999999GF100991001001999999001001MA1999999094531MD1210091+0061REMSYN070AAXX  08001 54401 32980 03402 11170 21252 39453 40392 52009 333 00656;EQDQ01  00002PRCP99
0122544010999992000020803004+40780+114880FM-12+072699999V0203401N001012200019N0200001N1-01281-02251103891ADDGA1001+999999999GF100991001001999999001001MD1710031+9999REMSYN054AAXX  08031 54401 42970 03401 11128 21225 40389 57003;
0196544010999992000020806004+40780+114880FM-12+072699999V0202201N001012200019N0150001N1-00691-02191103431ADDAA199000091GA1001+999999999GF100991001001999999001001KA1999N-01741MA1999999094141MD1710361+9999REMSYN070AAXX  08061 54401 32965 02201 11069 21219 39414 40343 57036 333 21174;EQDQ01  00002PRCP99
0122544010999992000020809004+40780+114880FM-12+072699999V0202501N002012200019N0250001N1-00501-01991103181ADDGA1001+999999999GF100991001001999999001001MD1710211+9999REMSYN054AAXX  08091 54401 42975 02502 11050 21199 40318 57021;
0185544010999992000020812004+40780+114880FM-12+072699999V0203601N001012200019N0060001N1-00811-02171103231ADDAA199000091GA1001+999999999GF100991001001999999001001MA1999999093921MD1710011+9999MW1041REMSYN066AAXX  08121 54401 31956 03601 11081 21217 39392 40323 57001 70400;EQDQ01  00002PRCP99
0134544010999992000020815004+40780+114880FM-12+072699999V0203401N002012200019N0080001N1-01041-02201103161ADDGA1001+999999999GF100991001001999999001001MD1710031+9999MW1041REMSYN060AAXX  08151 54401 41958 03402 11104 21220 40316 57003 70400;
0196544010999992000020818004+40780+114880FM-12+072699999V0203401N003012200019N0200001N1-01211-02271103031ADDAA199000091GA1001+999999999GF100991001001999999001001KA1999M-00411MA1999999093841MD1710051+9999REMSYN070AAXX  08181 54401 32970 03403 11121 21227 39384 40303 57005 333 11041;EQDQ01  00002PRCP99
0122544010999992000020821004+40780+114880FM-12+072699999V0203401N003012200019N0200001N1-01311-02361102901ADDGA1001+999999999GF100991001001999999001001MD1710111+9999REMSYN054AAXX  08211 54401 42970 03403 11131 21236 40290 57011;
0183544010999992000020900004+40780+114880FM-12+072699999V0200201N002012200019N0200001N1-01371-02361102951ADDAA199000091GA1001+999999999GF100991001001999999001001MA1999999093721MD1710011+0081REMSYN070AAXX  09001 54401 32970 00202 11137 21236 39372 40295 57001 333 05803;EQDQ01  00002PRCP99
0124544010999992000020903004+40780+114880FM-12+072699999V0202001N001019999999N0060001N1-00581-01821102751ADDGF107991001001999999001021MD1710091+9999MW1041REMSYN066AAXX  09031 54401 41956 72001 11058 21182 40275 57009 70400 80002;
0186544010999992000020906004+40780+114880FM-12+072699999V0201401N001019999999N0150001N1-00041-01641102311ADDAA199000091GF106991001001999999001021KA1999N-01421MA1999999093291MD1710341+9999REMSYN076AAXX  09061 54401 32965 61401 11004 21164 39329 40231 57034 80002 333 21142;EQDQ01  00002PRCP99
0112544010999992000020909004+40780+114880FM-12+072699999V0209999C000019999999N0200001N1-00051-01691102201ADDGF107991001001999999001021MD1710121+9999REMSYN060AAXX  09091 54401 42970 70000 11005 21169 40220 57012 80002;
0185544010999992000020912004+40780+114880FM-12+072699999V0203401N001012200019N0080001N1-00451-01551102331ADDAA199000091GA1001+999999999GF100991001001999999001001MA1999999093211MD1210041+9999MW1041REMSYN066AAXX  09121 54401 31958 03401 11045 21155 39321 40233 52004 70400;EQDQ01  00002PRCP99
0122544010999992000020915004+40780+114880FM-12+072699999V0203401N002012200019N0150001N1-00681-01951102251ADDGA1001+999999999GF100991001001999999001001MD1210021+9999REMSYN054AAXX  09151 54401 42965 03402 11068 21195 40225 52002;
0196544010999992000020918004+40780+114880FM-12+072699999V0203401N002012200019N0150001N1-00851-01971102201ADDAA199000091GA1001+999999999GF100991001001999999001001KA1999M+00161MA1999999093241MD1210011+9999REMSYN070AAXX  09181 54401 32965 03402 11085 21197 39324 40220 52001 333 10016;EQDQ01  00002PRCP99
0122544010999992000020921004+40780+114880FM-12+072699999V0203601N001012200019N0150001N1-01031-01971102141ADDGA1001+999999999GF100991001001999999001001MD1710081+9999REMSYN054AAXX  09211 54401 42965 03601 11103 21197 40214 57008;
0185544010999992000021000004+40780+114880FM-12+072699999V0203201N002012200019N0080001N1-01051-01961102371ADDAA199000091GF102991001001999999001021MA1999999093301MD1210141+0041MW1041REMSYN082AAXX  10001 54401 31958 23202 11105 21196 39330 40237 52014 70400 80002 333 05403;EQDQ01  00002PRCP99
0122544010999992000021003004+40780+114880FM-12+072699999V0203401N002012200019N0150001N1-00231-01501102281ADDGA1001+999999999GF100991001001999999001001MD1210011+9999REMSYN054AAXX  10031 54401 42965 03402 11023 21150 40228 52001;
0186544010999992000021006004+40780+114880FM-12+072699999V0203401N004012200019N0250001N1-00021-01751102161ADDAA199000091GF101991001001999999001021KA1999N-01141MA1999999093211MD1710101+9999REMSYN076AAXX  10061 54401 32975 13404 11002 21175 39321 40216 57010 80002 333 21114;EQDQ01  00002PRCP99
0122544010999992000021009004+40780+114880FM-12+072699999V0203401N002012200019N0250001N1-00081-01321102301ADDGA1001+999999999GF100991001001999999001001MD1210091+9999REMSYN054AAXX  10091 54401 42975 03402 11008 21132 40230 52009;
0173544010999992000021012004+40780+114880FM-12+072699999V0203401N003012200019N0150001N1-00341-01471102571ADDAA199000091GA1001+999999999GF100991001001999999001001MA1999999093501MD1210201+9999REMSYN060AAXX  10121 54401 32965 03403 11034 21147 39350 40257 52020;EQDQ01  00002PRCP99
0122544010999992000021015004+40780+114880FM-12+072699999V0203401N001012200019N0150001N1-00601-01781102651ADDGA1001+999999999GF100991001001999999001001MD1210161+9999REMSYN054AAXX  10151 54401 42965 03401 11060 21178 40265 52016;
0196544010999992000021018004+40780+114880FM-12+072699999V0203401N002012200019N0150001N1-00741-01831102661ADDAA199000091GA1001+999999999GF100991001001999999001001KA1999M+00051MA1999999093681MD1210021+9999REMSYN070AAXX  10181 54401 32965 03402 11074 21183 39368 40266 52002 333 10005;EQDQ01  00002PRCP99
0122544010999992000021021004+40780+114880FM-12+072699999V0203401N003012200019N0150001N1-00901-01981102621ADDGA1001+999999999GF100991001001999999001001MD1710071+9999REMSYN054AAXX  10211 54401 42965 03403 11090 21198 40262 57007;
0183544010999992000021100004+40780+114880FM-12+072699999V0203401N003012200019N0150001N1-00991-02081102821ADDAA199000091GA1001+999999999GF100991001001999999001001MA1999999093741MD1210131+0041REMSYN070AAXX  11001 54401 32965 03403 11099 21208 39374 40282 52013 333 00401;EQDQ01  00002PRCP99
0122544010999992000021103004+40780+114880FM-12+072699999V0203401N002012200019N0250001N1-00331-01391102681ADDGA1001+999999999GF100991001001999999001001MD1710061+9999REMSYN054AAXX  11031 54401 42975 03402 11033 21139 40268 57006;
0196544010999992000021106004+40780+114880FM-12+072699999V0201601N001012200019N0300001N1+00331-01141102281ADDAA199000091GA1001+999999999GF100991001001999999001001KA1999N-01041MA1999999093391MD1710291+9999REMSYN070AAXX  11061 54401 32980 01601 10033 21114 39339 40228 57029 333 21104;EQDQ01  00002PRCP99
0122544010999992000021109004+40780+114880FM-12+072699999V0202201N001012200019N0120001N1+00571-01311102121ADDGA1001+999999999GF100991001001999999001001MD1710131+9999REMSYN054AAXX  11091 54401 42962 02201 10057 21131 40212 57013;
0173544010999992000021112004+40780+114880FM-12+072699999V0203201N001012200019N0120001N1-00121-01471102271ADDAA199000091GA1001+999999999GF100991001001999999001001MA1999999093271MD1210011+9999REMSYN060AAXX  11121 54401 32962 03201 11012 21147 39327 40227 52001;EQDQ01  00002PRCP99
0122544010999992000021115004+40780+114880FM-12+072699999V0203401N002012200019N0120001N1-00311-01541102261ADDGA1001+999999999GF100991001001999999001001MD1210071+9999REMSYN054AAXX  11151 54401 42962 03402 11031 21154 40226 52007;
0196544010999992000021118004+40780+114880FM-12+072699999V0203401N003012200019N0150001N1-00541-01731102181ADDAA199000091GA1001+999999999GF100991001001999999001001KA1999M+00581MA1999999093331MD1710011+9999REMSYN070AAXX  11181 54401 32965 03403 11054 21173 39333 40218 57001 333 10058;EQDQ01  00002PRCP99
0122544010999992000021121004+40780+114880FM-12+072699999V0203401N002012200019N0150001N1-00681-01711102051ADDGA1001+999999999GF100991001001999999001001MD1710101+9999REMSYN054AAXX  11211 54401 42965 03402 11068 21171 40205 57010;
0173544010999992000021200004+40780+114880FM-12+072699999V0203401N002012200019N0150001N1-00741-01681102261ADDAA199000091GF102991001001999999001021MA1999999093301MD1210071+0041REMSYN076AAXX  12001 54401 32965 23402 11074 21168 39330 40226 52007 80002 333 05403;EQDQ01  00002PRCP99
0122544010999992000021203004+40780+114880FM-12+072699999V0202501N001012200019N0150001N1-00021-00981102201ADDGA1001+999999999GF100991001001999999001001MD1210031+9999REMSYN054AAXX  12031 54401 42965 02501 11002 21098 40220 52003;
0186544010999992000021206004+40780+114880FM-12+072699999V0201101N001012200019N0250001N1+00511-01251101861ADDAA199000091GF101991001001999999001021KA1999N-00751MA1999999093071MD1710261+9999REMSYN076AAXX  12061 54401 32975 11101 10051 21125 39307 40186 57026 80002 333 21075;EQDQ01  00002PRCP99
0112544010999992000021209004+40780+114880FM-12+072699999V0201801N001012200019N0120001N1+00621-01121101771ADDGF102991001001999999001021MD1710091+9999REMSYN060AAXX  12091 54401 42962 21801 10062 21112 40177 57009 80002;
0173544010999992000021212004+40780+114880FM-12+072699999V0203401N001012200019N0110001N1+00121-01311102001ADDAA199000091GA1001+999999999GF100991001001999999001001MA1999999093101MD1210121+9999REMSYN060AAXX  12121 54401 32961 03401 10012 21131 39310 40200 52012;EQDQ01  00002PRCP99
0122544010999992000021215004+40780+114880FM-12+072699999V0209999C000012200019N0110001N1-00221-01121102151ADDGA1001+999999999GF100991001001999999001001MD1210201+9999REMSYN054AAXX  12151 54401 42961 00000 11022 21112 40215 52020;
0208544010999992000021218004+40780+114880FM-12+072699999V0209999C000012200019N0030001N1-00301-01161102191ADDAA199000091GA1001+999999999GF100991001001999999001001KA1999M+00771MA1999999093411MD1210111+9999MW1041REMSYN076AAXX  12181 54401 31930 00000 11030 21116 39341 40219 52011 70400 333 10077;EQDQ01  00002PRCP99
0112544010999992000021221004+40780+114880FM-12+072699999V0202901N003019999999N0120001N1-00041-00921102181ADDGF108991081001999999021999MD1210041+9999REMSYN060AAXX  12211 54401 42962 82903 11004 21092 40218 52004 8802/;
0178544010999992000021300004+40780+114880FM-12+072699999V0202901N002019999999N0300001N1-00201-01321102431ADDAA106000791GF108991081001999999071999MA1999999093581MD1210131+0301MW1701REMSYN094AAXX  13001 54401 11980 82902 11020 21132 39358 40243 52013 69901 77000 8807/ 333 00305 79999;
0112544010999992000021303004+40780+114880FM-12+072699999V0203201N001019999999N0120001N1-00231-01511102571ADDGF106991021001999999031021MD1210071+9999REMSYN060AAXX  13031 54401 42962 63201 11023 21151 40257 52007 82032;
0167544010999992000021306004+40780+114880FM-12+072699999V0203401N003010150019N0150001N1-00121-01401102411ADDAA199000021GF107991051051017501031021KA1999N-00301MA1999999093511MD1710141+9999REMSYN076AAXX  13061 54401 32765 73403 11012 21140 39351 40241 57014 85532 333 21030;
0112544010999992000021309004+40780+114880FM-12+072699999V0203401N003012200019N0200001N1-00201-01441102401ADDGF103991031001999999031001MD1210021+9999REMSYN060AAXX  13091 54401 42970 33403 11020 21144 40240 52002 83030;
0144544010999992000021312004+40780+114880FM-12+072699999V0203201N004012200019N0200001N1-00461-01721102731ADDAA199000021GF101991001001999999001021MA1999999093761MD1210231+9999REMSYN066AAXX  13121 54401 32970 13204 11046 21172 39376 40273 52023 80002;
0112544010999992000021315004+40780+114880FM-12+072699999V0203201N001012200019N0200001N1-00701-01761102961ADDGF102991001001999999001021MD1210171+9999REMSYN060AAXX  13151 54401 42970 23201 11070 21176 40296 52017 80002;
0196544010999992000021318004+40780+114880FM-12+072699999V0203401N002012200019N0150001N1-00791-01771102901ADDAA199000091GA1001+999999999GF100991001001999999001001KA1999M+00081MA1999999093881MD1710051+9999REMSYN070AAXX  13181 54401 32965 03402 11079 21177 39388 40290 57005 333 10008;EQDQ01  00002PRCP99
0143544010999992000021321004+40780+114880FM-12+072699999V0203201N001012200019N0150001N1-00931-02051102951ADDAA124000791GA1001+999999999GF100991001001999999001001MD1210011+9999REMSYN064AAXX  13211 54401 42965 03201 11093 21205 40295 52001 333 79999;
0173544010999992000021400004+40780+114880FM-12+072699999V0202901N002012200019N0200001N1-00981-02061103101ADDAA199000091GF103991021001999999031021MA1999999093981MD1210091+0041REMSYN076AAXX  14001 54401 32970 32902 11098 21206 39398 40310 52009 82032 333 00458;EQDQ01  00002PRCP99
0112544010999992000021403004+40780+114880FM-12+072699999V0203401N004010900019N0200001N1-00861-02091103171ADDGF106991041051017501001021MD1210041+9999REMSYN060AAXX  14031 54401 42770 63404 11086 21209 40317 52004 84502;
0186544010999992000021406004+40780+114880FM-12+072699999V0202901N006010150019N0200001N1-00661-02211103071ADDAA199000091GF106991051051017501001021KA1999N-01021MA1999999093951MD1710071+9999REMSYN076AAXX  14061 54401 32770 62906 11066 21221 39395 40307 57007 85502 333 21102;EQDQ01  00002PRCP99
0173544010999992000021412004+40780+114880FM-12+072699999V0202901N003012200019N0150001N1-01071-02141103461ADDAA199000091GA1001+999999999GF100991001001999999001001MA1999999094201MD1210181+9999REMSYN060AAXX  14121 54401 32965 02903 11107 21214 39420 40346 52018;EQDQ01  00002PRCP99
0122544010999992000021415004+40780+114880FM-12+072699999V0202901N002012200019N0200001N1-01121-02131103531ADDGA1001+999999999GF100991001001999999001001MD1210081+9999REMSYN054AAXX  14151 54401 42970 02902 11112 21213 40353 52008;
0196544010999992000021418004+40780+114880FM-12+072699999V0202901N001012200019N0200001N1-01181-02191103351ADDAA199000091GA1001+999999999GF100991001001999999001001KA1999M-00601MA1999999094141MD1710141+9999REMSYN070AAXX  14181 54401 32970 02901 11118 21219 39414 40335 57014 333 11060;EQDQ01  00002PRCP99
0122544010999992000021421004+40780+114880FM-12+072699999V0203601N001012200019N0150001N1-01341-02281103211ADDGA1001+999999999GF100991001001999999001001MD1710181+9999REMSYN054AAXX  14211 54401 42965 03601 11134 21228 40321 57018;
0195544010999992000021500004+40780+114880FM-12+072699999V0202901N001012200019N0060001N1-01201-02201103331ADDAA199000091GA1001+999999999GF100991001001999999001001MA1999999094051MD1210091+0011MW1041REMSYN076AAXX  15001 54401 31956 02901 11120 21220 39405 40333 52009 70400 333 00152;EQDQ01  00002PRCP99
0112544010999992000021503004+40780+114880FM-12+072699999V0203201N002012200019N0200001N1-00671-01941103241ADDGF102991021011012501001001MD1410001+9999REMSYN060AAXX  15031 54401 42670 23202 11067 21194 40324 54000 82100;
0186544010999992000021506004+40780+114880FM-12+072699999V0202901N003012200019N0200001N1-00381-02051102921ADDAA199000091GF102991021011012501001001KA1999N-01401MA1999999093791MD1710261+9999REMSYN076AAXX  15061 54401 32670 22903 11038 21205 39379 40292 57026 82100 333 21140;EQDQ01  00002PRCP99
0122544010999992000021509004+40780+114880FM-12+072699999V0203201N005012200019N0300001N1-00331-02001102841ADDGA1001+999999999GF100991001001999999001001MD1710091+9999REMSYN054AAXX  15091 54401 42980 03205 11033 21200 40284 57009;
0173544010999992000021512004+40780+114880FM-12+072699999V0203201N004012200019N0200001N1-00591-02231102931ADDAA199000091GA1001+999999999GF100991001001999999001001MA1999999093761MD1210061+9999REMSYN060AAXX  15121 54401 32970 03204 11059 21223 39376 40293 52006;EQDQ01  00002PRCP99
0122544010999992000021515004+40780+114880FM-12+072699999V0203401N002012200019N0200001N1-00791-02121102951ADDGA1001+999999999GF100991001001999999001001MD1210081+9999REMSYN054AAXX  15151 54401 42970 03402 11079 21212 40295 52008;
0196544010999992000021518004+40780+114880FM-12+072699999V0203401N002012200019N0200001N1-01061-02131102901ADDAA199000091GA1001+999999999GF100991001001999999001001KA1999M-00281MA1999999093791MD1710051+9999REMSYN070AAXX  15181 54401 32970 03402 11106 21213 39379 40290 57005 333 11028;EQDQ01  00002PRCP99
0122544010999992000021521004+40780+114880FM-12+072699999V0203401N003012200019N0200001N1-01201-02201102811ADDGA1001+999999999GF100991001001999999001001MD1710091+9999REMSYN054AAXX  15211 54401 42970 03403 11120 21220 40281 57009;
0183544010999992000021600004+40780+114880FM-12+072699999V0203401N004012200019N0200001N1-01201-02181102951ADDAA199000091GA1001+999999999GF100991001001999999001001MA1999999093781MD1210081+0031REMSYN070AAXX  16001 54401 32970 03404 11120 21218 39378 40295 52008 333 05300;EQDQ01  00002PRCP99
0112544010999992000021603004+40780+114880FM-12+072699999V0203201N001019999999N0200001N1-00561-01951102841ADDGF105991011001999999041021MD1710031+9999REMSYN060AAXX  16031 54401 42970 53201 11056 21195 40284 57003 81042;
0186544010999992000021606004+40780+114880FM-12+072699999V0201401N001019999999N0200001N1-00021-01321102501ADDAA199000091GF106991001001999999001021KA1999N-01271MA1999999093491MD1710261+9999REMSYN076AAXX  16061 54401 32970 61401 11002 21132 39349 40250 57026 80002 333 21127;EQDQ01  00002PRCP99
0124544010999992000021609004+40780+114880FM-12+072699999V0203601N001019999999N0060001N1+00041-02141102401ADDGF105991031001999999031021MD1710111+9999MW1041REMSYN066AAXX  16091 54401 41956 53601 10004 21214 40240 57011 70400 83032;
0185544010999992000021612004+40780+114880FM-12+072699999V0202701N001012200019N0060001N1-00211-01761102561ADDAA199000091GA1001+999999999GF100991001001999999001001MA1999999093491MD1210111+9999MW1041REMSYN066AAXX  16121 54401 31956 02701 11021 21176 39349 40256 52011 70400;EQDQ01  00002PRCP99
0134544010999992000021615004+40780+114880FM-12+072699999V0203201N002012200019N0050001N1-00451-01951102701ADDGA1001+999999999GF100991001001999999001001MD1210191+9999MW1041REMSYN060AAXX  16151 54401 41950 03202 11045 21195 40270 52019 70400;
0196544010999992000021618004+40780+114880FM-12+072699999V0203401N002012200019N0150001N1-00711-02031102761ADDAA199000091GA1001+999999999GF100991001001999999001001KA1999M+00131MA1999999093781MD1210101+9999REMSYN070AAXX  16181 54401 32965 03402 11071 21203 39378 40276 52010 333 10013;EQDQ01  00002PRCP99
0122544010999992000021621004+40780+114880FM-12+072699999V0203201N002012200019N0150001N1-00911-02101102811ADDGA1001+999999999GF100991001001999999001001MD1210021+9999REMSYN054AAXX  16211 54401 42965 03202 11091 21210 40281 52002;
0183544010999992000021700004+40780+114880FM-12+072699999V0203401N002012200019N0200001N1-01011-02001102941ADDAA199000091GA1001+999999999GF100991001001999999001001MA1999999093871MD1210071+0011REMSYN070AAXX  17001 54401 32970 03402 11101 21200 39387 40294 52007 333 00102;EQDQ01  00002PRCP99
0122544010999992000021703004+40780+114880FM-12+072699999V0203201N001012200019N0200001N1-00291-01721102841ADDGA1001+999999999GF100991001001999999001001MD1710021+9999REMSYN054AAXX  17031 54401 42970 03201 11029 21172 40284 57002;
0196544010999992000021706004+40780+114880FM-12+072699999V0201401N001012200019N0300001N1+00281-01111102541ADDAA199000091GA1001+999999999GF100991001001999999001001KA1999N-01021MA1999999093631MD1710221+9999REMSYN070AAXX  17061 54401 32980 01401 10028 21111 39363 40254 57022 333 21102;EQDQ01  00002PRCP99
0122544010999992000021709004+40780+114880FM-12+072699999V0201601N001012200019N0200001N1+00361-01431102401ADDGA1001+999999999GF100991001001999999001001MD1710151+9999REMSYN054AAXX  17091 54401 42970 01601 10036 21143 40240 57015;
0173544010999992000021712004+40780+114880FM-12+072699999V0209999C000012200019N0120001N1-00241-01331102611ADDAA199000091GA1001+999999999GF100991001001999999001001MA1999999093561MD1210081+9999REMSYN060AAXX  17121 54401 32962 00000 11024 21133 39356 40261 52008;EQDQ01  00002PRCP99
0122544010999992000021715004+40780+114880FM-12+072699999V0203401N001012200019N0120001N1-00371-01751102591ADDGA1001+999999999GF100991001001999999001001MD1210081+9999REMSYN054AAXX  17151 54401 42962 03401 11037 21175 40259 52008;
0186544010999992000021718004+40780+114880FM-12+072699999V0203601N001019999999N0150001N1-00601-01711102621ADDAA199000091GF106991001001999999001021KA1999M+00511MA1999999093721MD1210081+9999REMSYN076AAXX  17181 54401 32965 63601 11060 21171 39372 40262 52008 80002 333 10051;EQDQ01  00002PRCP99
0112544010999992000021721004+40780+114880FM-12+072699999V0203601N002019999999N0150001N1-00691-01591102581ADDGF107991001001999999001021MD1710041+9999REMSYN060AAXX  17211 54401 42965 73602 11069 21159 40258 57004 80002;
0185544010999992000021800004+40780+114880FM-12+072699999V0200201N001019999999N0060001N1-00721-01581102681ADDAA199000091GF107991001001999999001021MA1999999093671MD1710011+0021MW1041REMSYN082AAXX  18001 54401 31956 70201 11072 21158 39367 40268 57001 70400 80002 333 05203;EQDQ01  00002PRCP99
0124544010999992000021803004+40780+114880FM-12+072699999V0201801N001019999999N0050001N1-00421-01561102631ADDGF107991001001999999001021MD1710021+9999MW1041REMSYN066AAXX  18031 54401 41950 71801 11042 21156 40263 57002 70400 80002;
0198544010999992000021806004+40780+114880FM-12+072699999V0201801N001019999999N0050001N1-00151-01611102361ADDAA199000091GF108991001001999999001071KA1999N-00781MA1999999093411MD1710241+9999MW1041REMSYN082AAXX  18061 54401 31950 81801 11015 21161 39341 40236 57024 70400 80007 333 21078;EQDQ01  00002PRCP99
0175544010999992000021812004+40780+114880FM-12+072699999V0209999C000012200019N0060001N1-00291-01311102451ADDAA199000091GF102991001001999999001021MA1999999093451MD1210111+9999MW1041REMSYN072AAXX  18121 54401 31956 20000 11029 21131 39345 40245 52011 70400 80002;EQDQ01  00002PRCP99
0112544010999992000021815004+40780+114880FM-12+072699999V0202901N001019999999N0120001N1-00161-01301102481ADDGF107991001001999999001021MD1210101+9999REMSYN060AAXX  18151 54401 42962 72901 11016 21130 40248 52010 80002;
0186544010999992000021818004+40780+114880FM-12+072699999V0203401N003019999999N0120001N1-00491-01631102681ADDAA199000091GF106991001001999999001021KA1999M-00091MA1999999093721MD1210171+9999REMSYN076AAXX  18181 54401 32962 63403 11049 21163 39372 40268 52017 80002 333 11009;EQDQ01  00002PRCP99
