0147552790999992000010103004+31370+090020FM-12+470199999V0200701N005012200019N0300001N1-01401-02111999999ADDGA1001+999999999GF100991001001999999001001MA1999999057501MD1210221+0031REMSYN064AAXX  01031 55279 42980 00705 11140 21211 35750 52022 333 00301;
0196552790999992000010106004+31370+090020FM-12+470199999V0200201N003012200019N0300001N1-00881-02011999999ADDAA106000091GA1001+999999999GF100991001001999999001001KA1999N-01991MA1999999057421MD1710081+0301REMSYN070AAXX  01061 55279 32980 00203 11088 21201 35742 57008 333 00351 21199;EQDQ01  00002PRCP06
0137552790999992000010109004+31370+090020FM-12+470199999V0203401N005012200019N0300001N1-00801-01921999999ADDGF101991011011017501001001MA1999999057401MD1710021+0041REMSYN070AAXX  01091 55279 42780 13405 11080 21192 35740 57002 81100 333 00400;
0177552790999992000010112004+31370+090020FM-12+470199999V0202001N001012200019N0300001N1-01321-02261999999ADDAA106000091GA1001+999999999GF100991001001999999001001MA1999999057451MD1210051+0041REMSYN064AAXX  01121 55279 32980 02001 11132 21226 35745 52005 333 00456;EQDQ01  00002PRCP06
0147552790999992000010203004+31370+090020FM-12+470199999V0209999C000012200019N0300001N1-01611-02311999999ADDGA1001+999999999GF100991001001999999001001MA1999999057491MD1210101+0001REMSYN064AAXX  02031 55279 42980 00000 11161 21231 35749 52010 333 00052;
0196552790999992000010206004+31370+090020FM-12+470199999V0202701N004012200019N0300001N1-00681-01981999999ADDAA106000091GA1001+999999999GF100991001001999999001001KA1999N-02291MA1999999057451MD1710041+0001REMSYN070AAXX  02061 55279 32980 02704 11068 21198 35745 57004 333 00002 21229;EQDQ01  00002PRCP06
0147552790999992000010209004+31370+090020FM-12+470199999V0202701N004012200019N0300001N1-00601-02201999999ADDGA1001+999999999GF100991001001999999001001MA1999999057351MD1710101+0011REMSYN064AAXX  02091 55279 42980 02704 11060 21220 35735 57010 333 05102;
0177552790999992000010212004+31370+090020FM-12+470199999V0209999C000012200019N0300001N1-01261-02691999999ADDAA106000091GA1001+999999999GF100991001001999999001001MA1999999057351MD1410001+0011REMSYN064AAXX  02121 55279 32980 00000 11126 21269 35735 54000 333 05101;EQDQ01  00002PRCP06
0196552790999992000010218004+31370+090020FM-12+470199999V0209999C000012200019N0300001N1-01821-02721999999ADDAA106000091GA1001+999999999GF100991001001999999001001KA1999M-00551MA1999999057261MD1710101-0201REMSYN070AAXX  02181 55279 32980 00000 11182 21272 35726 57010 333 05253 11055;EQDQ01  00002PRCP06
0177552790999992000010221004+31370+090020FM-12+470199999V0209999C000012200019N0300001N1-02221-02881999999ADDAA106000091GA1001+999999999GF100991001001999999001001MA1999999057101MD1710061+0031REMSYN064AAXX  02211 55279 32980 00000 11222 21288 35710 57006 333 05351;EQDQ01  00002PRCP06
0147552790999992000010303004+31370+090020FM-12+470199999V0209999C000012200019N0300001N1-01471-02131999999ADDGA1001+999999999GF100991001001999999001001MA1999999057201MD1210101+0031REMSYN064AAXX  03031 55279 42980 00000 11147 21213 35720 52010 333 05301;
0196552790999992000010306004+31370+090020FM-12+470199999V0209999C000012200019N0300001N1-00611-02081999999ADDAA106000091GA1001+999999999GF100991001001999999001001KA1999N-02371MA1999999057131MD1710071-0301REMSYN070AAXX  03061 55279 32980 00000 11061 21208 35713 57007 333 05301 21237;EQDQ01  00002PRCP06
0147552790999992000010309004+31370+090020FM-12+470199999V0203401N003012200019N0300001N1-00621-02171999999ADDGA1001+999999999GF100991001001999999001001MA1999999057031MD1710101+0031REMSYN064AAXX  03091 55279 42980 03403 11062 21217 35703 57010 333 05300;
0177552790999992000010312004+31370+090020FM-12+470199999V0209999C000012200019N0300001N1-01151-02461999999ADDAA106000091GA1001+999999999GF100991001001999999001001MA1999999057061MD1210031+0031REMSYN064AAXX  03121 55279 32980 00000 11115 21246 35706 52003 333 05301;EQDQ01  00002PRCP06
0196552790999992000010318004+31370+090020FM-12+470199999V0209999C000012200019N0300001N1-01731-02981999999ADDAA106000091GA1001+999999999GF100991001001999999001001KA1999M-00481MA1999999057121MD1210011-0101REMSYN070AAXX  03181 55279 32980 00000 11173 21298 35712 52001 333 05101 11048;EQDQ01  00002PRCP06
0147552790999992000010321004+31370+090020FM-12+470199999V0202701N003012200019N0300001N1-01301-02531999999ADDGA1001+999999999GF100991001001999999001001MA1999999057111MD1710011+0011REMSYN064AAXX  03211 55279 42980 02703 11130 21253 35711 57001 333 05107;
0177552790999992000010400004+31370+090020FM-12+470199999V0209999C000012200019N0300001N1-02061-03041999999ADDAA106000091GA1001+999999999GF100991001001999999001001MA1999999057171MD1210061+0011REMSYN064AAXX  04001 55279 32980 00000 11206 21304 35717 52006 333 00102;EQDQ01  00002PRCP06
0147552790999992000010403004+31370+090020FM-12+470199999V0209999C000012200019N0300001N1-01421-02461999999ADDGA1001+999999999GF100991001001999999001001MA1999999057331MD1210161+0011REMSYN064AAXX  04031 55279 42980 00000 11142 21246 35733 52016 333 00101;
0196552790999992000010406004+31370+090020FM-12+470199999V0200401N004012200019N0300001N1-00631-01931999999ADDAA106000091GA1001+999999999GF100991001001999999001001KA1999N-02101MA1999999057261MD1710071+0101REMSYN070AAXX  04061 55279 32980 00404 11063 21193 35726 57007 333 00100 21210;EQDQ01  00002PRCP06
0147552790999992000010409004+31370+090020FM-12+470199999V0203201N006012200019N0300001N1-00421-02031999999ADDGA1001+999999999GF100991001001999999001001MA1999999057171MD1710091+0011REMSYN064AAXX  04091 55279 42980 03206 11042 21203 35717 57009 333 00102;
0177552790999992000010412004+31370+090020FM-12+470199999V0202901N002012200019N0300001N1-01041-02541999999ADDAA106000091GA1001+999999999GF100991001001999999001001MA1999999057211MD1210041+0021REMSYN064AAXX  04121 55279 32980 02902 11104 21254 35721 52004 333 00201;EQDQ01  00002PRCP06
0147552790999992000010421004+31370+090020FM-12+470199999V0209999C000012200019N0300001N1-02021-03091999999ADDGA1001+999999999GF100991001001999999001001MA1999999057131MD1710081+0001REMSYN064AAXX  04211 55279 42980 00000 11202 21309 35713 57008 333 00057;
0177552790999992000010500004+31370+090020FM-12+470199999V0209999C000012200019N0300001N1-02061-03021999999ADDAA106000091GA1001+999999999GF100991001001999999001001MA1999999057131MD1410001+0001REMSYN064AAXX  05001 55279 32980 00000 11206 21302 35713 54000 333 00000;EQDQ01  00002PRCP06
0147552790999992000010503004+31370+090020FM-12+470199999V0209999C000012200019N0300001N1-01471-02481999999ADDGA1001+999999999GF100991001001999999001001MA1999999057231MD1210101+0011REMSYN064AAXX  05031 55279 42980 00000 11147 21248 35723 52010 333 05151;
0196552790999992000010506004+31370+090020FM-12+470199999V0200201N003012200019N0300001N1-00621-02251999999ADDAA106000091GA1001+999999999GF100991001001999999001001KA1999N-02071MA1999999057191MD1710041-0101REMSYN070AAXX  05061 55279 32980 00203 11062 21225 35719 57004 333 05100 21207;EQDQ01  00002PRCP06
0137552790999992000010509004+31370+090020FM-12+470199999V0203201N006012200019N0300001N1-00451-02251999999ADDGF101991011041022501001021MA1999999057061MD1710131+0011REMSYN070AAXX  05091 55279 42880 13206 11045 21225 35706 57013 81402 333 05100;
0167552790999992000010512004+31370+090020FM-12+470199999V0209999C000012200019N0300001N1-01041-02581999999ADDAA106000091GF101991011041022501001001MA1999999057131MD1210071+0011REMSYN070AAXX  05121 55279 32880 10000 11104 21258 35713 52007 81400 333 05100;EQDQ01  00002PRCP06
0196552790999992000010518004+31370+090020FM-12+470199999V0209999C000012200019N0300001N1-01631-02761999999ADDAA106000091GA1001+999999999GF100991001001999999001001KA1999M-00351MA1999999057141MD1410001-0101REMSYN070AAXX  05181 55279 32980 00000 11163 21276 35714 54000 333 05101 11035;EQDQ01  00002PRCP06
0147552790999992000010521004+31370+090020FM-12+470199999V0209999C000012200019N0300001N1-01961-02931999999ADDGA1001+999999999GF100991001001999999001001MA1999999056971MD1710171+0021REMSYN064AAXX  05211 55279 42980 00000 11196 21293 35697 57017 333 05201;
0177552790999992000010600004+31370+090020FM-12+470199999V0209999C000012200019N0300001N1-02061-02951999999ADDAA106000091GA1001+999999999GF100991001001999999001001MA1999999056901MD1710071+0021REMSYN064AAXX  06001 55279 32980 00000 11206 21295 35690 57007 333 05200;EQDQ01  00002PRCP06
0137552790999992000010603004+31370+090020FM-12+470199999V0209999C000012200019N0300001N1-01541-02491999999ADDGF102991001001999999001021MA1999999057001MD1210101+0021REMSYN070AAXX  06031 55279 42980 20000 11154 21249 35700 52010 80002 333 05251;
0186552790999992000010606004+31370+090020FM-12+470199999V0200401N003010900019N0300001N1-00841-02261999999ADDAA106000091GF106991021011017501001021KA1999N-02141MA1999999056851MD1710151-0301REMSYN076AAXX  06061 55279 32780 60403 11084 21226 35685 57015 82102 333 05352 21214;EQDQ01  00002PRCP06
0137552790999992000010609004+31370+090020FM-12+470199999V0202901N007010120019N0300001N1-00741-02101999999ADDGF106991061091012501001001MA1999999056791MD1710061+0031REMSYN070AAXX  06091 55279 42680 62907 11074 21210 35679 57006 86900 333 05353;
0167552790999992000010612004+31370+090020FM-12+470199999V0209999C000012200019N0300001N1-01081-02401999999ADDAA106000091GF102991021041022501001001MA1999999056811MD1210021+0031REMSYN070AAXX  06121 55279 32880 20000 11108 21240 35681 52002 82400 333 05300;EQDQ01  00002PRCP06
0147552790999992000010621004+31370+090020FM-12+470199999V0209999C000012200019N0300001N1-01921-02891999999ADDGA1001+999999999GF100991001001999999001001MA1999999056881MD1710041+0011REMSYN064AAXX  06211 55279 42980 00000 11192 21289 35688 57004 333 05100;
0177552790999992000010700004+31370+090020FM-12+470199999V0200401N001012200019N0300001N1-01981-02871999999ADDAA106000091GA1001+999999999GF100991001001999999001001MA1999999056881MD1410001+0001REMSYN064AAXX  07001 55279 32980 00401 11198 21287 35688 54000 333 00001;EQDQ01  00002PRCP06
0147552790999992000010703004+31370+090020FM-12+470199999V0200201N002012200019N0300001N1-01781-02641999999ADDGA1001+999999999GF100991001001999999001001MA1999999056951MD1210071+0011REMSYN064AAXX  07031 55279 42980 00202 11178 21264 35695 52007 333 05152;
0186552790999992000010706004+31370+090020FM-12+470199999V0203201N006012200019N0300001N1-00581-03201999999ADDAA106000091GF101991001001999999001021KA1999N-02171MA1999999057001MD1210051+0201REMSYN076AAXX  07061 55279 32980 13206 11058 21320 35700 52005 80002 333 00203 21217;EQDQ01  00002PRCP06
0137552790999992000010709004+31370+090020FM-12+470199999V0203401N007012200019N0300001N1-00521-03571999999ADDGF102991001001999999001021MA1999999056811MD1710191+0001REMSYN070AAXX  07091 55279 42980 23407 11052 21357 35681 57019 80002 333 00002;
0196552790999992000010718004+31370+090020FM-12+470199999V0203201N004012200019N0300001N1-00921-03271999999ADDAA106000091GA1001+999999999GF100991001001999999001001KA1999M-00461MA1999999056901MD1710021+0001REMSYN070AAXX  07181 55279 32980 03204 11092 21327 35690 57002 333 00007 11046;EQDQ01  00002PRCP06
0167552790999992000010800004+31370+090020FM-12+470199999V0202201N004012200019N0300001N1-00951-02531999999ADDAA106000091GF101991011041022501001001MA1999999056791MD1710011+0011REMSYN070AAXX  08001 55279 32880 12204 11095 21253 35679 57001 81400 333 05110;EQDQ01  00002PRCP06
0137552790999992000010803004+31370+090020FM-12+470199999V0202201N005010120019N0300001N1-00741-01751999999ADDGF106991061091012501001001MA1999999056901MD1210111+0011REMSYN070AAXX  08031 55279 42680 62205 11074 21175 35690 52011 86900 333 00110;
0186552790999992000010806004+31370+090020FM-12+470199999V0202701N008010900019N0300001N1-00441-01871999999ADDAA106000091GF106991041011012501001021KA1999N-01641MA1999999056801MD1710101-0201REMSYN076AAXX  08061 55279 32680 62708 11044 21187 35680 57010 84102 333 05201 21164;EQDQ01  00002PRCP06
0137552790999992000010809004+31370+090020FM-12+470199999V0202701N004012200019N0300001N1-00321-01891999999ADDGF101991011011017501001021MA1999999056631MD1710171+0021REMSYN070AAXX  08091 55279 42780 12704 11032 21189 35663 57017 81102 333 05202;
0167552790999992000010812004+31370+090020FM-12+470199999V0202701N004010120019N0300001N1-00621-02021999999ADDAA106000091GF107991051091012501001021MA1999999056601MD1710031+0021REMSYN070AAXX  08121 55279 32680 72704 11062 21202 35660 57003 85902 333 05204;EQDQ01  00002PRCP06
0186552790999992000010818004+31370+090020FM-12+470199999V0202201N006010120019N0300001N1-01041-01931999999ADDAA106000091GF107991071091012501999999KA1999M-00241MA1999999056551MD1710061-0401REMSYN076AAXX  08181 55279 32680 72206 11104 21193 35655 57006 879// 333 05451 11024;EQDQ01  00002PRCP06
0186552790999992000010900004+31370+090020FM-12+470199999V0202701N004012200019N0300001N1-00761-01451999999ADDAA106000191AY181061GF103991031041012501001001MA1999999056491MD1210081-0301MW1001REMSYN094AAXX  09001 55279 11680 32704 11076 21145 35649 52008 69921 70080 83400 333 05302 70002 92500;
0157552790999992000010903004+31370+090020FM-12+470199999V0202201N004012200019N0300001N1-00841-01661999999ADDAY181031GF104991021041022501001021MA1999999056621MD1210131+0031MW1001REMSYN076AAXX  09031 55279 41880 42204 11084 21166 35662 52013 70080 82402 333 05351;
0157552790999992000010909004+31370+090020FM-12+470199999V0202901N004010120019N0300001N1-00781-01351999999ADDAY181031GF107991071091012501999999MA1999999056491MD1710041+0011MW1261REMSYN076AAXX  09091 55279 41680 72904 11078 21135 35649 57004 72680 879// 333 05155;
0174552790999992000010912004+31370+090020FM-12+470199999V0202201N001010120019N0300001N1-00921-01551999999ADDAA106000391AY181061GF107991071091012501999999MA1999999056421MD1710071+0021MW1001REMSYN082AAXX  09121 55279 11680 72201 11092 21155 35642 57007 69931 70080 879// 333 05253;
0167552790999992000010918004+31370+090020FM-12+470199999V0201801N004010120019N0300001N1-01061-01451999999ADDAA106000091GF108991081091012501999999MA1999999056481MD1210011+0011REMSYN070AAXX  09181 55279 32680 81804 11106 21145 35648 52001 889// 333 05100;EQDQ01  00002PRCP06
0164552790999992000010921004+31370+090020FM-12+470199999V0202701N003012200019N0300001N1-00921-01741999999ADDAA124000391GA1001+999999999GF100991001001999999001001MA1999999056411MD1710071+0001REMSYN070AAXX  09211 55279 42980 02703 11092 21174 35641 57007 333 00000 70003;
0157552790999992000011000004+31370+090020FM-12+470199999V0202501N007010120019N0300001N1-01061-01421999999ADDAY181061GF107991071091012501999999MA1999999056651MD1210151+0001MW1261REMSYN076AAXX  10001 55279 41680 72507 11106 21142 35665 52015 72680 879// 333 00052;
0193552790999992000011006004+31370+090020FM-12+470199999V0202701N006010120019N0300001N1-00751-01761999999ADDAA106000791AY181061GF107991071091012501999999KA1999N-01291MA1999999056591MD1710061+0101MW1001REMSYN088AAXX  10061 55279 11680 72706 11075 21176 35659 57006 69901 70080 879// 333 00153 21129;
0137552790999992000011009004+31370+090020FM-12+470199999V0203201N004010120019N0300001N1-00821-01721999999ADDGF107991061091012501001021MA1999999056521MD1710071+0001REMSYN070AAXX  10091 55279 42680 73204 11082 21172 35652 57007 86902 333 00000;
0167552790999992000011012004+31370+090020FM-12+470199999V0202201N004010120019N0300001N1-00981-01691999999ADDAA106000091GF108991081091012501999999MA1999999056551MD1210031+0011REMSYN070AAXX  10121 55279 32680 82204 11098 21169 35655 52003 889// 333 00151;EQDQ01  00002PRCP06
0186552790999992000011018004+31370+090020FM-12+470199999V0202701N004010120019N0300001N1-00771-01741999999ADDAA106000091GF106991061091012501001001KA1999M-00631MA1999999056571MD1210011+0101REMSYN076AAXX  10181 55279 32680 62704 11077 21174 35657 52001 86900 333 00103 11063;EQDQ01  00002PRCP06
0154552790999992000011021004+31370+090020FM-12+470199999V0202701N003012200019N0300001N1-00901-01981999999ADDAA124000791GF101991011041022501001001MA1999999056601MD1210031+0201REMSYN076AAXX  10211 55279 42880 12703 11090 21198 35660 52003 81400 333 00200 79999;
0161552790999992000011100004+31370+090020FM-12+470199999V0202501N007012200019N0300001N1-00941-02121999999ADDAA106000091GF101991011041022501001001MA1999999056681MD1210081+9999REMSYN064AAXX  11001 55279 32880 12507 11094 21212 35668 52008 81400 333;EQDQ01  00002PRCP06
0137552790999992000011103004+31370+090020FM-12+470199999V0202701N004012200019N0300001N1-00751-01871999999ADDGF101991011041022501001021MA1999999056801MD1210121+0021REMSYN070AAXX  11031 55279 42880 12704 11075 21187 35680 52012 81402 333 00203;
0186552790999992000011106004+31370+090020FM-12+470199999V0202701N005010120019N0300001N1-00461-01691999999ADDAA106000091GF107991061091012501001021KA1999N-01111MA1999999056781MD1710021+0201REMSYN076AAXX  11061 55279 32680 72705 11046 21169 35678 57002 86902 333 00203 21111;EQDQ01  00002PRCP06
0137552790999992000011109004+31370+090020FM-12+470199999V0203601N007010120019N0300001N1-00691-01711999999ADDGF107991071091012501999999MA1999999056731MD1710051+0021REMSYN070AAXX  11091 55279 42680 73607 11069 21171 35673 57005 879// 333 00201;
0174552790999992000011112004+31370+090020FM-12+470199999V0202501N006010120019N0300001N1-00741-01641999999ADDAA106000191AY181061GF107991071091012501999999MA1999999056811MD1210081+0031MW1001REMSYN082AAXX  11121 55279 11680 72506 11074 21164 35681 52008 69911 70080 879// 333 00302;
0174552790999992000011121004+31370+090020FM-12+470199999V0201801N003010120019N0300001N1-01081-01391999999ADDAA124000191AY181031GF106991061091012501001021MA1999999056931MD1210021+0301MW1851REMSYN082AAXX  11211 55279 41680 61803 11108 21139 35693 52002 78580 86902 333 00352 70001;
0186552790999992000011200004+31370+090020FM-12+470199999V0202201N005010120019N0300001N1-01101-01491999999ADDAA106000791AY181061GF107991061091012501001021MA1999999056921MD1710011+0201MW1001REMSYN094AAXX  12001 55279 11680 72205 11110 21149 35692 57001 69901 70080 86902 333 00252 70001 92500;
0137552790999992000011203004+31370+090020FM-12+470199999V0202201N006012200019N0300001N1-00931-01621999999ADDGF101991011041022501001001MA1999999057101MD1210181+0031REMSYN070AAXX  12031 55279 42880 12206 11093 21162 35710 52018 81400 333 00352;
0186552790999992000011206004+31370+090020FM-12+470199999V0202501N011012200019N0300001N1-00541-01541999999ADDAA106000091GF101991011011017501001001KA1999N-01241MA1999999057101MD1410001+0301REMSYN076AAXX  12061 55279 32780 12511 11054 21154 35710 54000 81100 333 00351 21124;EQDQ01  00002PRCP06
0137552790999992000011209004+31370+090020FM-12+470199999V0202701N009012200019N0300001N1-00481-01731999999ADDGF101991011011017501001001MA1999999057051MD1710051+0031REMSYN070AAXX  12091 55279 42780 12709 11048 21173 35705 57005 81100 333 00302;
0167552790999992000011212004+31370+090020FM-12+470199999V0202701N004012200019N0300001N1-00961-01861999999ADDAA106000091GF103991011041022501001021MA1999999057041MD1710011+0021REMSYN070AAXX  12121 55279 32880 32704 11096 21186 35704 57001 81402 333 00252;EQDQ01  00002PRCP06
0186552790999992000011218004+31370+090020FM-12+470199999V0201601N001012200019N0300001N1-01141-01911999999ADDAA106000091GF101991011041022501001001KA1999M-00401MA1999999056871MD1710161+0001REMSYN076AAXX  12181 55279 32880 11601 11114 21191 35687 57016 81400 333 00053 11040;EQDQ01  00002PRCP06
0137552790999992000011221004+31370+090020FM-12+470199999V0202201N007012200019N0300001N1-00901-02041999999ADDGF101991011041022501001001MA1999999056781MD1710091+0021REMSYN070AAXX  12211 55279 42880 12207 11090 21204 35678 57009 81400 333 05202;
0167552790999992000011300004+31370+090020FM-12+470199999V0202201N010012200019N0300001N1-00921-01901999999ADDAA106000091GF104991021041022501001021MA1999999056751MD1710031+0021REMSYN070AAXX  13001 55279 32880 42210 11092 21190 35675 57003 82402 333 05202;EQDQ01  00002PRCP06
0137552790999992000011303004+31370+090020FM-12+470199999V0202201N004012200019N0300001N1-00731-01731999999ADDGF103991021041022501001021MA1999999056851MD1210101+0031REMSYN070AAXX  13031 55279 42880 32204 11073 21173 35685 52010 82402 333 05303;
0186552790999992000011306004+31370+090020FM-12+470199999V0202201N006010120019N0300001N1-00431-01481999999ADDAA106000091GF107991061091012501001021KA1999N-01511MA1999999056741MD1710111-0401REMSYN076AAXX  13061 55279 32680 72206 11043 21148 35674 57011 86902 333 05401 21151;EQDQ01  00002PRCP06
0137552790999992000011309004+31370+090020FM-12+470199999V0203601N003010120019N0300001N1-00491-01541999999ADDGF107991071091012501999999MA1999999056541MD1710201+0051REMSYN070AAXX  13091 55279 42680 73603 11049 21154 35654 57020 879// 333 05500;
0167552790999992000011312004+31370+090020FM-12+470199999V0209999C000010120019N0300001N1-00801-01511999999ADDAA106000091GF107991061091012501001021MA1999999056521MD1710021+0051REMSYN070AAXX  13121 55279 32680 70000 11080 21151 35652 57002 86902 333 05502;EQDQ01  00002PRCP06
0181552790999992000011400004+31370+090020FM-12+470199999V0202201N007012200019N0300001N1-01141-01981999999ADDAA199000091GA1001+999999999GF100991001001999999001001MA1999999056281MD1410001+0051REMSYN068    AAXX  14001 55279 32980 02207 11114 21198 35628 54000 333 05552;EQDQ01  00002PRCP99
0151552790999992000011403004+31370+090020FM-12+470199999V0202201N007012200019N0300001N1-00791-02281999999ADDGA1001+999999999GF100991001001999999001001MA1999999056381MD1210151+0051REMSYN068    AAXX  14031 55279 42980 02207 11079 21228 35638 52015 333 05551;
0141552790999992000011409004+31370+090020FM-12+470199999V0202501N009012200019N0300001N1-00271-02231999999ADDGF102991001001999999001021MA1999999056121MD1710131+0041REMSYN074    AAXX  14091 55279 42980 22509 11027 21223 35612 57013 80002 333 05402;
0194552790999992000011412004+31370+090020FM-12+470199999V0202701N003012200019N0300001N1-00571-02321999999ADDAA199000091GF102991021041022501001021MA1999999056221MD1210101-0301OA130602201REMSYN086    AAXX  14121 55279 32880 22703 11057 21232 35622 52010 82402 333 05302 91122 91525;EQDQ01  00002PRCP99
0176552790999992000011421004+31370+090020FM-12+470199999V0203201N003010120019N0300001N1-01041-01531999999ADDAA106000791GF108991081091012501999999MA1999999056921MD1410001-0401MW1851REMSYN092    AAXX  14211 55279 11680 83203 11104 21153 35692 54000 69901 78500 889// 333 05411 79999;
0176552790999992000011500004+31370+090020FM-12+470199999V0203201N003010120019N0300001N1-01041-01531999999ADDAA106000791GF108991081091012501999999MA1999999056921MD1410001-0401MW1851REMSYN092    AAXX  15001 55279 11680 83203 11104 21153 35692 54000 69901 78500 889// 333 05411 79999;
0151552790999992000011503004+31370+090020FM-12+470199999V0202201N004012200019N0300001N1-00661-02952999999ADDGA1001+999999999GF100991001001999999001001MA1999999056411MD1210061+0001REMSYN068    AAXX  15031 55279 42980 02204 11066 21295 35641 52006 333 00001;
0194552790999992000011506004+31370+090020FM-12+470199999V0202201N010012200019N0300001N1-00321-02321999999ADDAA199000021GF101991001001999999001021KA1240N-01151MA1999999056311MD1710101+0101OA130602201REMSYN092    AAXX  15061 55279 32980 12210 11032 21232 35631 57010 80002 333 00101 21115 91122 91522;
0141552790999992000011509004+31370+090020FM-12+470199999V0202701N006012200019N0300001N1-00221-01761999999ADDGF102991001001999999001021MA1999999056191MD1710121+0011REMSYN074    AAXX  15091 55279 42980 22706 11022 21176 35619 57012 80002 333 00101;
0175552790999992000011512004+31370+090020FM-12+470199999V0202701N007012200019N0300001N1-00581-02621999999ADDAA199000021GF101991011041022501001021MA1999999056091MD1710101-0101OA130602101REMSYN086    AAXX  15121 55279 32880 12707 11058 21262 35609 57010 81402 333 05100 91121 91527;
0200552790999992000011518004+31370+090020FM-12+470199999V0202201N010012200019N0300001N1-00961-02851999999ADDAA199000091GA1001+999999999GF100991001001999999001001KA1999M-00161MA1999999056411MD1210111+0101REMSYN074    AAXX  15181 55279 32980 02210 11096 21285 35641 52011 333 00152 11016;EQDQ01  00002PRCP99
0151552790999992000011521004+31370+090020FM-12+470199999V0202201N006012200019N0300001N1-01111-02601999999ADDGA1001+999999999GF100991001001999999001001MA1999999056351MD1710061+0001REMSYN068    AAXX  15211 55279 42980 02206 11111 21260 35635 57006 333 00000;
0181552790999992000011600004+31370+090020FM-12+470199999V0202201N006012200019N0300001N1-01311-02781999999ADDAA199000091GA1001+999999999GF100991001001999999001001MA1999999056331MD1710021+0001REMSYN068    AAXX  16001 55279 32980 02206 11131 21278 35633 57002 333 00055;EQDQ01  00002PRCP99
0151552790999992000011603004+31370+090020FM-12+470199999V0202701N006012200019N0300001N1-01021-02651999999ADDGA1001+999999999GF100991001001999999001001MA1999999056471MD1210141+0011REMSYN068    AAXX  16031 55279 42980 02706 11102 21265 35647 52014 333 00154;
0200552790999992000011606004+31370+090020FM-12+470199999V0203201N007012200019N0300001N1-01071-02651999999ADDAA199000091GA1001+999999999GF100991001001999999001001KA1999N-01331MA1999999056531MD1210061+0201REMSYN074    AAXX  16061 55279 32980 03207 11107 21265 35653 52006 333 00258 21133;EQDQ01  00002PRCP99
0151552790999992000011609004+31370+090020FM-12+470199999V0203401N006012200019N0300001N1-00861-02741999999ADDGA1001+999999999GF100991001001999999001001MA1999999056401MD1710131+0021REMSYN068    AAXX  16091 55279 42980 03406 11086 21274 35640 57013 333 00256;
0181552790999992000011612004+31370+090020FM-12+470199999V0209999C000012200019N0200001N1-01161-02541999999ADDAA199000091GA1001+999999999GF100991001001999999001001MA1999999056461MD1210061+0031REMSYN068    AAXX  16121 55279 32970 00000 11116 21254 35646 52006 333 00300;EQDQ01  00002PRCP99
0223552790999992000011618004+31370+090020FM-12+470199999V0202201N008012200019N0300001N1-00861-02861999999ADDAA199000091GA1001+999999999GF100991001001999999001001KA1240M-00661MA1999999056601MD1210031+0201OA130601701REMSYN086    AAXX  16181 55279 32980 02208 11086 21286 35660 52003 333 00201 11066 91117 91527;EQDQ01  00002PRCP99
0151552790999992000011621004+31370+090020FM-12+470199999V0202501N009012200019N0300001N1-00981-02611999999ADDGA1001+999999999GF100991001001999999001001MA1999999056641MD1210041+0031REMSYN068    AAXX  16211 55279 42980 02509 11098 21261 35664 52004 333 00301;
0181552790999992000011700004+31370+090020FM-12+470199999V0202501N007012200019N0300001N1-00991-02741999999ADDAA199000091GA1001+999999999GF100991001001999999001001MA1999999056681MD1210041+0041REMSYN068    AAXX  17001 55279 32980 02507 11099 21274 35668 52004 333 00403;EQDQ01  00002PRCP99
0141552790999992000011703004+31370+090020FM-12+470199999V0202901N002010900019N0300001N1-00941-02511999999ADDGF106991021041022501001021MA1999999056961MD1210281+0051REMSYN074    AAXX  17031 55279 42880 62902 11094 21251 35696 52028 82402 333 00501;
0213552790999992000011706004+31370+090020FM-12+470199999V0202901N013012200019N0300001N1-00661-02441999999ADDAA199000091GF101991011011017501001021KA1240N-01161MA1999999057051MD1210091+0501OA130601801REMSYN092    AAXX  17061 55279 32780 12913 11066 21244 35705 52009 81102 333 00504 21116 91118 91529;EQDQ01  00002PRCP99
0141552790999992000011709004+31370+090020FM-12+470199999V0202901N008012200019N0300001N1-00531-02241999999ADDGF101991011041022501001001MA1999999056981MD1710071+0061REMSYN074    AAXX  17091 55279 42880 12908 11053 21224 35698 57007 81400 333 00603;
0194552790999992000011712004+31370+090020FM-12+470199999V0202701N005010120019N0300001N1-00681-02591999999ADDAA199000091GF107991061091012501001021MA1999999056981MD1710011+0501OA130602101REMSYN086    AAXX  17121 55279 32680 72705 11068 21259 35698 57001 86902 333 00505 91121 91527;EQDQ01  00002PRCP99
0181552790999992000011721004+31370+090020FM-12+470199999V0202701N006012200019N0300001N1-01041-01841999999ADDAA199000091GA1001+999999999GF100991001001999999001001MA1999999057341MD1210131+0071REMSYN068    AAXX  17211 55279 32980 02706 11104 21184 35734 52013 333 00751;EQDQ01  00002PRCP99
0151552790999992000011803004+31370+090020FM-12+470199999V0202701N006012200019N0300001N1-00921-01971999999ADDGA1001+999999999GF100991001001999999001001MA1999999057451MD1210111+0051REMSYN068    AAXX  18031 55279 42980 02706 11092 21197 35745 52011 333 00500;
0190552790999992000011806004+31370+090020FM-12+470199999V0202701N013012200019N0300001N1-00481-02051999999ADDAA199000091GF103991011041022501001021KA1999N-01231MA1999999057421MD1710031+0401REMSYN080    AAXX  18061 55279 32880 32713 11048 21205 35742 57003 81402 333 00402 21123;EQDQ01  00002PRCP99
0141552790999992000011809004+31370+090020FM-12+470199999V0202901N008010900019N0300001N1-00341-02101999999ADDGF106991021041022501001021MA1999999057321MD1710101+0031REMSYN074    AAXX  18091 55279 42880 62908 11034 21210 35732 57010 82402 333 00302;
0171552790999992000011812004+31370+090020FM-12+470199999V0202701N004010900019N0300001N1-00631-02131999999ADDAA199000091GF106991031041022501001021MA1999999057321MD1410001+0041REMSYN074    AAXX  18121 55279 32880 62704 11063 21213 35732 54000 83402 333 00401;EQDQ01  00002PRCP99
0200552790999992000011818004+31370+090020FM-12+470199999V0202201N005012200019N0300001N1-00741-02181999999ADDAA199000091GA1001+999999999GF100991001001999999001001KA1999M-00301MA1999999057211MD1710101+0001REMSYN074    AAXX  18181 55279 32980 02205 11074 21218 35721 57010 333 00001 11030;EQDQ01  00002PRCP99
0171552790999992000011821004+31370+090020FM-12+470199999V0200701N002012200019N0300001N1-01501-02681999999ADDAA199000091GF101991011041022501001001MA1999999056951MD1710071+0041REMSYN074    AAXX  18211 55279 32880 10702 11150 21268 35695 57007 81400 333 05455;EQDQ01  00002PRCP99
0141552790999992000011822004+31370+090020FM-12+470199999V0202501N007010900019N0300001N1-00741-02251999999ADDGF107991021041022501001021MA1999999057021MD1710191+0021REMSYN074    AAXX  18221 55279 42880 72507 11074 21225 35702 57019 82402 333 05201;
0151552790999992000011903004+31370+090020FM-12+470199999V0202501N004012200019N0300001N1-00511-01971999999ADDGA1001+999999999GF100991001001999999001001MA1999999056951MD1410001+0051REMSYN068    AAXX  19031 55279 42980 02504 11051 21197 35695 54000 333 05504;
0200552790999992000011906004+31370+090020FM-12+470199999V0202201N009012200019N0300001N1-00211-01941999999ADDAA199000091GA1001+999999999GF100991001001999999001001KA1999N-01561MA1999999056701MD1710251-0701REMSYN074    AAXX  19061 55279 32980 02209 11021 21194 35670 57025 333 05703 21156;EQDQ01  00002PRCP99
0141552790999992000011909004+31370+090020FM-12+470199999V0202701N004010120019N0300001N1-00091-01691999999ADDGF106991061091012501001021MA1999999056351MD1710351+0101REMSYN074    AAXX  19091 55279 42680 62704 11009 21169 35635 57035 86902 333 06003;
0171552790999992000011912004+31370+090020FM-12+470199999V0202201N005010120019N0300001N1-00261-02061999999ADDAA199000091GF108991081091012501999999MA1999999056211MD1710141+0111REMSYN074    AAXX  19121 55279 32680 82205 11026 21206 35621 57014 889// 333 06104;EQDQ01  00002PRCP99
0182552790999992000011921004+31370+090020FM-12+470199999V0202701N005010120019N0200001N1-00961-01281999999ADDAA124001091AY181031AY281031GF108991081091012501999999MA1999999056061MD1710011-1001MW1851REMSYN082AAXX  19211 55279 41670 82705 11096 21128 35606 57001 78588 889// 333 06052 70009;
0186552790999992000012000004+31370+090020FM-12+470199999V0202701N007010120019N0300001N1-00981-01551999999ADDAA100000891AY181061GF108991081091012501999999MA1999999056091MD1210031-0901MW1001REMSYN094AAXX  20001 55279 11680 82707 11098 21155 35609 52003 6998/ 70080 889// 333 05905 70009 92501;
0137552790999992000012003004+31370+090020FM-12+470199999V0202701N009012200019N0300001N1-01061-01691999999ADDGF101991011041017501001001MA1999999056291MD1210201+0071REMSYN070AAXX  20031 55279 42780 12709 11106 21169 35629 52020 81400 333 05756;
0167552790999992000012006004+31370+090020FM-12+470199999V0202701N011010900019N0300001N1-00981-01731999999ADDAA199000021GF106991041091012501001021KA1999N-01101MA1999999056311MD1210021-0401REMSYN076AAXX  20061 55279 32680 62711 11098 21173 35631 52002 84902 333 05458 21110;
0137552790999992000012009004+31370+090020FM-12+470199999V0202901N010012200019N0300001N1-00901-01911999999ADDGF103991021091012501001021MA1999999056301MD1710011+0011REMSYN070AAXX  20091 55279 42680 32910 11090 21191 35630 57001 82902 333 05158;
0167552790999992000012012004+31370+090020FM-12+470199999V0202501N001010900019N0300001N1-01161-02071999999ADDAA199000091GF105991021041022501001021MA1999999056391MD1210091+0021REMSYN070AAXX  20121 55279 32880 52501 11116 21207 35639 52009 82402 333 00259;EQDQ01  00002PRCP99
0137552790999992000012100004+31370+090020FM-12+470199999V0200701N002012200019N0300001N1-01771-02421999999ADDGF101991011041022501001001MA1999999056931MD1210181+0061REMSYN070AAXX  21001 55279 42880 10702 11177 21242 35693 52018 81400 333 00657;
0186552790999992000012106004+31370+090020FM-12+470199999V0202901N002012200019N0300001N1-00911-01941999999ADDAA199000091GF102991001001999999001021KA1999N-02301MA1999999056831MD1710101+0501REMSYN076AAXX  21061 55279 32980 22902 11091 21194 35683 57010 80002 333 00501 21230;EQDQ01  00002PRCP99
0137552790999992000012109004+31370+090020FM-12+470199999V0203201N003010900019N0300001N1-00781-02191999999ADDGF106991021041017501001021MA1999999056661MD1710171+0041REMSYN070AAXX  21091 55279 42780 63203 11078 21219 35666 57017 82402 333 00401;
0167552790999992000012112004+31370+090020FM-12+470199999V0202701N004012200019N0300001N1-01081-02181999999ADDAA199000091GF101991011041022501001001MA1999999056651MD1710011+0031REMSYN070AAXX  21121 55279 32880 12704 11108 21218 35665 57001 81400 333 00301;EQDQ01  00002PRCP99
0137552790999992000012203004+31370+090020FM-12+470199999V0202201N007012200019N0300001N1-01011-01901999999ADDGF101991011041022501001001MA1999999056551MD1210101+0041REMSYN070AAXX  22031 55279 42880 12207 11101 21190 35655 52010 81400 333 05408;
0186552790999992000012206004+31370+090020FM-12+470199999V0202701N006010120019N0300001N1-00781-01921999999ADDAA199000091GF107991061091012501001021KA1999N-01791MA1999999056491MD1710061-0301REMSYN076AAXX  22061 55279 32680 72706 11078 21192 35649 57006 86902 333 05301 21179;EQDQ01  00002PRCP99
0137552790999992000012209004+31370+090020FM-12+470199999V0202701N005010120019N0300001N1-00871-01981999999ADDGF107991061091012501001021MA1999999056431MD1710061+0021REMSYN070AAXX  22091 55279 42680 72705 11087 21198 35643 57006 86902 333 05251;
0167552790999992000012212004+31370+090020FM-12+470199999V0202701N004010120019N0300001N1-01061-01971999999ADDAA199000091GF107991071091012501999999MA1999999056461MD1210031+0021REMSYN070AAXX  22121 55279 32680 72704 11106 21197 35646 52003 879// 333 05200;EQDQ01  00002PRCP99
0147552790999992000012221004+31370+090020FM-12+470199999V0202201N006012200019N0300001N1-01441-02251999999ADDGA1001+999999999GF100991001001999999001001MA1999999056571MD1710091+0011REMSYN064AAXX  22211 55279 42980 02206 11144 21225 35657 57009 333 00154;
0137552790999992000012300004+31370+090020FM-12+470199999V0200401N002012200019N0300001N1-01601-02301999999ADDGF101991001001999999001021MA1999999056691MD1210101+0011REMSYN070AAXX  23001 55279 42980 10402 11160 21230 35669 52010 80002 333 00156;
0174552790999992000012312004+31370+090020FM-12+470199999V0202701N004012200019N0300001N1-01361-01991999999ADDAA106001091AY181061GF103991021041022501001021MA1999999056591MD1210031+0011MW1001REMSYN082AAXX  23121 55279 11880 32704 11136 21199 35659 52003 60011 70080 82402 333 00153;
0186552790999992000012318004+31370+090020FM-12+470199999V0209999C000012200019N0300001N1-01921-02411999999ADDAA199000091GF102991001001999999001021KA1999M-00881MA1999999056631MD1210031+0001REMSYN076AAXX  23181 55279 32980 20000 11192 21241 35663 52003 80002 333 00055 11088;EQDQ01  00002PRCP99
0154552790999992000012321004+31370+090020FM-12+470199999V0209999C000019999999N0300001N1-02011-02381999999ADDAA124000791GF106991001001999999001021MA1999999056591MD1710041+0001REMSYN076AAXX  23211 55279 42980 60000 11201 21238 35659 57004 80002 333 00056 79999;
0160552790999992000012400004+31370+090020FM-12+470199999V0209999C000012200019N0300001N1-02111-02471999999ADDAA124000791GF102991001001999999001021MA1999999056601MD1210011+0001REMSYN082AAXX  24001 55279 32980 20000 11211 21247 35660 52001 80002 333 00057 79999 92500;
0137552790999992000012403004+31370+090020FM-12+470199999V0200701N002012200019N0300001N1-01641-02141999999ADDGF101991001001999999001021MA1999999056751MD1210151+0011REMSYN070AAXX  24031 55279 42980 10702 11164 21214 35675 52015 80002 333 00100;
0186552790999992000012406004+31370+090020FM-12+470199999V0202701N007012200019N0300001N1-00801-02481999999ADDAA199000091GF102991021011017501001021KA1999N-02211MA1999999056731MD1710021+0101REMSYN076AAXX  24061 55279 32780 22707 11080 21248 35673 57002 82102 333 00101 21221;EQDQ01  00002PRCP99
0137552790999992000012409004+31370+090020FM-12+470199999V0202701N004012200019N0300001N1-00651-02791999999ADDGF101991011011017501001021MA1999999056631MD1710101+0011REMSYN070AAXX  24091 55279 42780 12704 11065 21279 35663 57010 81102 333 00104;
0167552790999992000012412004+31370+090020FM-12+470199999V0203201N003012200019N0300001N1-01051-02511999999ADDAA199000091GF102991001001999999001021MA1999999056631MD1410001+0001REMSYN070AAXX  24121 55279 32980 23203 11105 21251 35663 54000 80002 333 00003;EQDQ01  00002PRCP99
0186552790999992000012418004+31370+090020FM-12+470199999V0201801N001019999999N0300001N1-01491-02551999999ADDAA199000091GF105991001001999999001021KA1999M-00621MA1999999056761MD1210111+0101REMSYN076AAXX  24181 55279 32980 51801 11149 21255 35676 52011 80002 333 00104 11062;EQDQ01  00002PRCP99
0137552790999992000012503004+31370+090020FM-12+470199999V0209999C000012200019N0300001N1-01321-02371999999ADDGF102991011041022501001021MA1999999057141MD1210231+0041REMSYN070AAXX  25031 55279 42880 20000 11132 21237 35714 52023 81402 333 00403;
0186552790999992000012506004+31370+090020FM-12+470199999V0202701N004012200019N0300001N1-00841-02511999999ADDAA199000091GF101991011011017501001021KA1999N-01851MA1999999057111MD1710031+0401REMSYN076AAXX  25061 55279 32780 12704 11084 21251 35711 57003 81102 333 00400 21185;EQDQ01  00002PRCP99
0137552790999992000012509004+31370+090020FM-12+470199999V0202501N007012200019N0300001N1-00661-02351999999ADDGF102991011011017501001021MA1999999057041MD1710071+0041REMSYN070AAXX  25091 55279 42780 22507 11066 21235 35704 57007 81102 333 00400;
0177552790999992000012512004+31370+090020FM-12+470199999V0202701N003012200019N0300001N1-01161-02541999999ADDAA199000091GA1001+999999999GF100991001001999999001001MA1999999057151MD1210111+0051REMSYN064AAXX  25121 55279 32980 02703 11116 21254 35715 52011 333 00551;EQDQ01  00002PRCP99
0186552790999992000012518004+31370+090020FM-12+470199999V0201801N003012200019N0300001N1-01601-02831999999ADDAA199000091GF101991011041022501001021KA1999M-00611MA1999999057191MD1710061+0401REMSYN076AAXX  25181 55279 32880 11803 11160 21283 35719 57006 81402 333 00451 11061;EQDQ01  00002PRCP99
0137552790999992000012521004+31370+090020FM-12+470199999V0201801N001012200019N0300001N1-02001-03131999999ADDGF102991001001999999001021MA1999999057041MD1710151+0021REMSYN070AAXX  25211 55279 42980 21801 11200 21313 35704 57015 80002 333 00255;
0167552790999992000012600004+31370+090020FM-12+470199999V0209999C000019999999N0300001N1-02001-03131999999ADDAA199000091GF105991001001999999001021MA1999999057061MD1210021+0021REMSYN070AAXX  26001 55279 32980 50000 11200 21313 35706 52002 80002 333 00253;EQDQ01  00002PRCP99
0147552790999992000012603004+31370+090020FM-12+470199999V0209999C000012200019N0300001N1-01421-02431999999ADDGA1001+999999999GF100991001001999999001001MA1999999057101MD1210041+0001REMSYN064AAXX  26031 55279 42980 00000 11142 21243 35710 52004 333 00051;
0196552790999992000012606004+31370+090020FM-12+470199999V0202201N007012200019N0300001N1-00421-02091999999ADDAA199000091GA1001+999999999GF100991001001999999001001KA1999N-02091MA1999999056941MD1710161-0201REMSYN070AAXX  26061 55279 32980 02207 11042 21209 35694 57016 333 05204 21209;EQDQ01  00002PRCP99
0137552790999992000012609004+31370+090020FM-12+470199999V0202701N005012200019N0300001N1-00331-02461999999ADDGF103991021041022501001021MA1999999056681MD1710261+0041REMSYN070AAXX  26091 55279 42880 32705 11033 21246 35668 57026 82402 333 05403;
0167552790999992000012612004+31370+090020FM-12+470199999V0202701N003010120019N0300001N1-00731-02371999999ADDAA199000091GF107991061091012501001021MA1999999056671MD1710011+0051REMSYN070AAXX  26121 55279 32680 72703 11073 21237 35667 57001 86902 333 05504;EQDQ01  00002PRCP99
0186552790999992000012618004+31370+090020FM-12+470199999V0201601N005012200019N0300001N1-01161-02371999999ADDAA199000091GF101991011041022501001021KA1999M-00241MA1999999056751MD1710011-0401REMSYN076AAXX  26181 55279 32880 11605 11116 21237 35675 57001 81402 333 05404 11024;EQDQ01  00002PRCP99
0177552790999992000012700004+31370+090020FM-12+470199999V0202201N004012200019N0300001N1-01441-02451999999ADDAA199000091GA1001+999999999GF100991001001999999001001MA1999999056781MD1210051+0031REMSYN064AAXX  27001 55279 32980 02204 11144 21245 35678 52005 333 05306;EQDQ01  00002PRCP99
0147552790999992000012703004+31370+090020FM-12+470199999V0209999C000012200019N0300001N1-01261-02211999999ADDGA1001+999999999GF100991001001999999001001MA1999999056851MD1210071+0031REMSYN064AAXX  27031 55279 42980 00000 11126 21221 35685 52007 333 05302;
0196552790999992000012706004+31370+090020FM-12+470199999V0202701N007012200019N0300001N1-00681-02491999999ADDAA199000091GA1001+999999999GF100991001001999999001001KA1999N-01551MA1999999056711MD1710141-0201REMSYN070AAXX  27061 55279 32980 02707 11068 21249 35671 57014 333 05253 21155;EQDQ01  00002PRCP99
0147552790999992000012709004+31370+090020FM-12+470199999V0203201N006012200019N0300001N1-00671-02361999999ADDGA1001+999999999GF100991001001999999001001MA1999999056541MD1710171+0011REMSYN064AAXX  27091 55279 42980 03206 11067 21236 35654 57017 333 05153;
0167552790999992000012712004+31370+090020FM-12+470199999V0202901N004010900019N0300001N1-01041-02331999999ADDAA199000091GF106991021041022501001021MA1999999056571MD1210031+0011REMSYN070AAXX  27121 55279 32880 62904 11104 21233 35657 52003 82402 333 05153;EQDQ01  00002PRCP99
0196552790999992000012718004+31370+090020FM-12+470199999V0209999C000012200019N0300001N1-01601-02681999999ADDAA199000091GA1001+999999999GF100991001001999999001001KA1999M-00571MA1999999056621MD1410001-0101REMSYN070AAXX  27181 55279 32980 00000 11160 21268 35662 54000 333 05154 11057;EQDQ01  00002PRCP99
0147552790999992000012721004+31370+090020FM-12+470199999V0201801N003012200019N0300001N1-01681-02751999999ADDGA1001+999999999GF100991001001999999001001MA1999999056641MD1210021+0011REMSYN064AAXX  27211 55279 42980 01803 11168 21275 35664 52002 333 05156;
0167552790999992000012800004+31370+090020FM-12+470199999V0201801N005012200019N0300001N1-01701-02691999999ADDAA199000091GF104991001001999999001021MA1999999056631MD1710011+0021REMSYN070AAXX  28001 55279 32980 41805 11170 21269 35663 57001 80002 333 05253;EQDQ01  00002PRCP99
0137552790999992000012803004+31370+090020FM-12+470199999V0200401N001010900019N0300001N1-01561-02561999999ADDGF106991021041022501001021MA1999999056711MD1210081+0011REMSYN070AAXX  28031 55279 42880 60401 11156 21256 35671 52008 82402 333 05153;
0186552790999992000012806004+31370+090020FM-12+470199999V0202901N003010120019N0300001N1-00881-02351999999ADDAA199000091GF106991061091012501001001KA1999N-01781MA1999999056601MD1710111-0101REMSYN076AAXX  28061 55279 32680 62903 11088 21235 35660 57011 86900 333 05152 21178;EQDQ01  00002PRCP99
0137552790999992000012809004+31370+090020FM-12+470199999V0203201N007010120019N0300001N1-01001-02471999999ADDGF106991061091012501001001MA1999999056511MD1710091+0001REMSYN070AAXX  28091 55279 42680 63207 11100 21247 35651 57009 86900 333 00053;
0186552790999992000012818004+31370+090020FM-12+470199999V0202701N002010900019N0300001N1-01411-02321999999ADDAA199000091GF106991021041022501001021KA1999M-00751MA1999999056681MD1210011+0101REMSYN076AAXX  28181 55279 32880 62702 11141 21232 35668 52001 82402 333 00102 11075;EQDQ01  00002PRCP99
0177552790999992000012821004+31370+090020FM-12+470199999V0202901N004012200019N0300001N1-01761-02621999999ADDAA199000091GA1001+999999999GF100991001001999999001001MA1999999056711MD1210031+0011REMSYN064AAXX  28211 55279 32980 02904 11176 21262 35671 52003 333 00151;EQDQ01  00002PRCP99
0137552790999992000012903004+31370+090020FM-12+470199999V0202701N007012200019N0300001N1-01461-02421999999ADDGF101991011041022501001001MA1999999056881MD1210171+0021REMSYN070AAXX  29031 55279 42880 12707 11146 21242 35688 52017 81400 333 00201;
0186552790999992000012906004+31370+090020FM-12+470199999V0203201N006010900019N0300001N1-01191-02171999999ADDAA199000091GF106991041021017501001021KA1999N-01801MA1999999056911MD1210031+0301REMSYN076AAXX  29061 55279 32780 63206 11119 21217 35691 52003 84202 333 00353 21180;EQDQ01  00002PRCP99
0149552790999992000012909004+31370+090020FM-12+470199999V0203201N006010120019N0300001N1-01361-02301999999ADDGF107991071091012501999999MA1999999056891MD1710021+0041MW1261REMSYN076AAXX  29091 55279 41680 73206 11136 21230 35689 57002 72600 879// 333 00454;
0174552790999992000012912004+31370+090020FM-12+470199999V0202901N003010900019N0300001N1-01461-02611999999ADDAA106000791AY181061GF106991041091012501001021MA1999999057021MD1210131+0041MW1001REMSYN082AAXX  29121 55279 11680 62903 11146 21261 35702 52013 69901 70080 84902 333 00452;
0154552790999992000012921004+31370+090020FM-12+470199999V0203201N004010900019N0300001N1-01691-02821999999ADDAA124000791GF105991041041022501001021MA1999999056931MD1710121+0301REMSYN076AAXX  29211 55279 42880 53204 11169 21282 35693 57012 84402 333 00352 79999;
0173552790999992000013000004+31370+090020FM-12+470199999V0201901N006012200019N0300001N1-01901-02901999999ADDAA124000791GF102991999041022501001001MA1999999057041MD1210111+0301REMSYN076AAXX  30001 55279 32880 21906 11190 21290 35704 52011 81400 333 00351 79999;EQDQ01+000012SCOTLC
0147552790999992000013003004+31370+090020FM-12+470199999V0203201N006012200019N0300001N1-01751-02691999999ADDGA1001+999999999GF100991001001999999001001MA1999999057211MD1210171+0031REMSYN064AAXX  30031 55279 42980 03206 11175 21269 35721 52017 333 00353;
0196552790999992000013006004+31370+090020FM-12+470199999V0203201N010012200019N0300001N1-01421-02631999999ADDAA199000091GA1001+999999999GF100991001001999999001001KA1999N-01901MA1999999057191MD1710021+0301REMSYN070AAXX  30061 55279 32980 03210 11142 21263 35719 57002 333 00352 21190;EQDQ01  00002PRCP99
0137552790999992000013009004+31370+090020FM-12+470199999V0203201N009012200019N0300001N1-01061-02481999999ADDGF101991001001999999001021MA1999999057081MD1710111+0021REMSYN070AAXX  30091 55279 42980 13209 11106 21248 35708 57011 80002 333 00203;
0167552790999992000013012004+31370+090020FM-12+470199999V0202701N001010900019N0300001N1-01201-02641999999ADDAA199000091GF106991041041022501001021MA1999999057071MD1210011+0001REMSYN070AAXX  30121 55279 32880 62701 11120 21264 35707 52001 84402 333 00003;EQDQ01  00002PRCP99
0177552790999992000013100004+31370+090020FM-12+470199999V0209999C000012200019N0300001N1-01791-02911999999ADDAA199000091GA1001+999999999GF100991001001999999001001MA1999999057021MD1710031+0001REMSYN064AAXX  31001 55279 32980 00000 11179 21291 35702 57003 333 00001;EQDQ01  00002PRCP99
0137552790999992000013103004+31370+090020FM-12+470199999V0200201N001010900019N0300001N1-01441-02591999999ADDGF106991021041022501001021MA1999999057071MD1210051+0011REMSYN070AAXX  31031 55279 42880 60201 11144 21259 35707 52005 82402 333 05103;
0186552790999992000013106004+31370+090020FM-12+470199999V0202201N004010900019N0300001N1-00641-02141999999ADDAA199000091GF106991021041022501001021KA1999N-01991MA1999999056891MD1710181-0301REMSYN076AAXX  31061 55279 32880 62204 11064 21214 35689 57018 82402 333 05308 21199;EQDQ01  00002PRCP99
0137552790999992000013109004+31370+090020FM-12+470199999V0202701N003010120019N0300001N1-00401-02031999999ADDGF106991051091012501001021MA1999999056621MD1710271+0051REMSYN070AAXX  31091 55279 42680 62703 11040 21203 35662 57027 85902 333 05507;
0167552790999992000013112004+31370+090020FM-12+470199999V0202701N007010120019N0300001N1-00871-02321999999ADDAA199000091GF107991061091012501001021MA1999999056601MD1710021+0051REMSYN070AAXX  31121 55279 32680 72707 11087 21232 35660 57002 86902 333 05503;EQDQ01  00002PRCP99
0167552790999992000020100004+31370+090020FM-12+470199999V0202501N005012200019N0300001N1-01041-01911999999ADDAA199000091GF101991011041022501001001MA1999999056331MD1710061+0071REMSYN070AAXX  01001 55279 32880 12505 11104 21191 35633 57006 81400 333 05708;EQDQ01  00002PRCP99
0137552790999992000020103004+31370+090020FM-12+470199999V0202501N009012200019N0300001N1-00901-02311999999ADDGF101991011041022501001001MA1999999056441MD1210111+0061REMSYN070AAXX  01031 55279 42880 12509 11090 21231 35644 52011 81400 333 05605;
0209552790999992000020106004+31370+090020FM-12+470199999V0202701N011010120019N0300001N1-00691-02181999999ADDAA199000091GF106991061091012501001021KA1240N-01471MA1999999056331MD1710111-0601OA130602101REMSYN088AAXX  01061 55279 32680 62711 11069 21218 35633 57011 86902 333 05651 21147 91121 91527;EQDQ01  00002PRCP99
0137552790999992000020109004+31370+090020FM-12+470199999V0203601N006010120019N0300001N1-00801-02371999999ADDGF108991081091012501999999MA1999999056181MD1710151+0041REMSYN070AAXX  01091 55279 42680 83606 11080 21237 35618 57015 889// 333 05454;
0190552790999992000020112004+31370+090020FM-12+470199999V0202701N002010120019N0300001N1-01021-02411999999ADDAA199000091GF108991081091012501999999MA1999999056211MD1210031-0401OA130602101REMSYN082AAXX  01121 55279 32680 82702 11102 21241 35621 52003 889// 333 05452 91121 91527;EQDQ01  00002PRCP99
0186552790999992000020118004+31370+090020FM-12+470199999V0202201N003010120019N0300001N1-01021-02381999999ADDAA199000091GF108991081091012501999999KA1999M-00551MA1999999056811MD1210021-0201REMSYN076AAXX  01181 55279 32680 82203 11102 21238 35681 52002 889// 333 05252 11055;EQDQ01  00002PRCP99
0137552790999992000020121004+31370+090020FM-12+470199999V0202201N006010120019N0300001N1-01161-02171999999ADDGF107991071091012501999999MA1999999056291MD1710021+0011REMSYN070AAXX  01211 55279 42680 72206 11116 21217 35629 57002 879// 333 05100;
0157552790999992000020200004+31370+090020FM-12+470199999V0202201N007010120019N0300001N1-01331-01621999999ADDAY181061GF107991071091012501999999MA1999999056521MD1210151+0011MW1261REMSYN076AAXX  02001 55279 41680 72207 11133 21162 35652 52015 72680 879// 333 00152;
0193552790999992000020206004+31370+090020FM-12+470199999V0202501N005010120019N0300001N1-00811-02041999999ADDAA106000391AY181061GF106991051091012501001021KA1999N-01351MA1999999056411MD1710111+0101MW1001REMSYN088AAXX  02061 55279 11680 62505 11081 21204 35641 57011 69931 70080 85902 333 00151 21135;
0157552790999992000020209004+31370+090020FM-12+470199999V0202201N006010120019N0300001N1-00681-01901999999ADDAY181031GF107991061091012501001021MA1999999056231MD1710181+0011MW1001REMSYN076AAXX  02091 55279 41680 72206 11068 21190 35623 57018 70080 86902 333 00101;
0186552790999992000020218004+31370+090020FM-12+470199999V0202201N006012200019N0300001N1-01111-02261999999ADDAA199000091GF104991021041022501001021KA1999M-00661MA1999999056441MD1210051+0101REMSYN076AAXX  02181 55279 32880 42206 11111 21226 35644 52005 82402 333 00151 11066;EQDQ01  00002PRCP99
0137552790999992000020303004+31370+090020FM-12+470199999V0202201N006012200019N0300001N1-01241-02351999999ADDGF103991001001999999001021MA1999999056901MD1210241+0041REMSYN070AAXX  03031 55279 42980 32206 11124 21235 35690 52024 80002 333 00451;
0193552790999992000020306004+31370+090020FM-12+470199999V0203201N006010120019N0300001N1-01101-02141999999ADDAA106000791AY181061GF108991081091012501999999KA1999N-01481MA1999999056891MD1710011+0501MW1851REMSYN088AAXX  03061 55279 11680 83206 11110 21214 35689 57001 69901 78580 889// 333 00553 21148;
0157552790999992000020309004+31370+090020FM-12+470199999V0202701N005010120019N0300001N1-01101-01921999999ADDAY181031GF107991071091012501999999MA1999999056791MD1710101+0061MW1851REMSYN076AAXX  03091 55279 41680 72705 11110 21192 35679 57010 78580 879// 333 00654;
0184552790999992000020312004+31370+090020FM-12+470199999V0202701N002012200019N0300001N1-01341-02121999999ADDAA106000191AY181061GA1001+999999999GF100991001001999999001001MA1999999056791MD1410001+0051MW1001REMSYN076AAXX  03121 55279 11980 02702 11134 21212 35679 54000 69911 70080 333 00554;
0154552790999992000020321004+31370+090020FM-12+470199999V0209999C000012200019N0300001N1-02181-02801999999ADDAA124000191GF101991011041022501001001MA1999999056691MD1710031+0001REMSYN076AAXX  03211 55279 32880 10000 11218 21280 35669 57003 81400 333 00058 70001;
0137552790999992000020403004+31370+090020FM-12+470199999V0200401N002010900019N0300001N1-01781-02451999999ADDGF106991021041022501001021MA1999999056791MD1210101+0011REMSYN070AAXX  04031 55279 42880 60402 11178 21245 35679 52010 82402 333 05155;
0186552790999992000020406004+31370+090020FM-12+470199999V0202501N007010120019N0300001N1-00721-02051999999ADDAA199000091GF106991051091012501001021KA1999N-02261MA1999999056671MD1710121-0201REMSYN076AAXX  04061 55279 32680 62507 11072 21205 35667 57012 85902 333 05204 21226;EQDQ01  00002PRCP99
0137552790999992000020409004+31370+090020FM-12+470199999V0202901N003010120019N0300001N1-00601-01971999999ADDGF107991071091012501999999MA1999999056471MD1710201+0031REMSYN070AAXX  04091 55279 42680 72903 11060 21197 35647 57020 879// 333 05305;
0167552790999992000020412004+31370+090020FM-12+470199999V0202701N001010120019N0300001N1-00801-02091999999ADDAA199000091GF107991071091012501999999MA1999999056471MD1410001+0031REMSYN070AAXX  04121 55279 32680 72701 11080 21209 35647 54000 879// 333 05305;EQDQ01  00002PRCP99
0174552790999992000020421004+31370+090020FM-12+470199999V0201601N003010120019N0300001N1-01511-01791999999ADDAA124001091AY181031GF107991061091012501001021MA1999999056681MD1710061+0001MW1851REMSYN082AAXX  04211 55279 41680 71603 11151 21179 35668 57006 78580 86902 333 00006 70011;
0196552790999992000020500004+31370+090020FM-12+470199999V0201601N004012200019N0300001N1-01651-02621999999ADDAA106000791AY181061GA1001+999999999GF100991001001999999001001MA1999999056701MD1210021+0001MW1001REMSYN088AAXX  05001 55279 11980 01604 11165 21262 35670 52002 69901 70080 333 00005 70008 92501;
0137552790999992000020503004+31370+090020FM-12+470199999V0209999C000012200019N0300001N1-01431-01931999999ADDGF102991001001999999001021MA1999999056801MD1210101+0001REMSYN070AAXX  05031 55279 42980 20000 11143 21193 35680 52010 80002 333 00004;
0167552790999992000020506004+31370+090020FM-12+470199999V0200401N003010120019N0300001N1-01111-01601999999ADDAA199000021GF107991071091012501999999KA1999N-01801MA1999999056701MD1710101+0001REMSYN076AAXX  05061 55279 32680 70403 11111 21160 35670 57010 879// 333 00054 21180;
0137552790999992000020509004+31370+090020FM-12+470199999V0202901N003010120019N0300001N1-00591-01781999999ADDGF107991061091012501001021MA1999999056521MD1710181+0011REMSYN070AAXX  05091 55279 42680 72903 11059 21178 35652 57018 86902 333 00100;
0167552790999992000020512004+31370+090020FM-12+470199999V0202701N003010120019N0300001N1-00821-01681999999ADDAA199000091GF107991071091012501999999MA1999999056521MD1410001+0011REMSYN070AAXX  05121 55279 32680 72703 11082 21168 35652 54000 879// 333 00100;EQDQ01  00002PRCP99
0154552790999992000020521004+31370+090020FM-12+470199999V0202501N009012200019N0300001N1-01001-02391999999ADDAA124000791GF102991021041022501001001MA1999999056481MD1710101-0201REMSYN076AAXX  05211 55279 42880 22509 11100 21239 35648 57010 82400 333 05205 79999;
0173552790999992000020600004+31370+090020FM-12+470199999V0202201N013012200019N0300001N1-01221-02361999999ADDAA199000091GF101991011041022501001001MA1999999056521MD1210041-0201REMSYN076AAXX  06001 55279 32880 12213 11122 21236 35652 52004 81400 333 05204 92500;EQDQ01  00002PRCP99
0147552790999992000020603004+31370+090020FM-12+470199999V0202201N007012200019N0300001N1-00831-02161999999ADDGA1001+999999999GF100991001001999999001001MA1999999056701MD1210181+0011REMSYN064AAXX  06031 55279 42980 02207 11083 21216 35670 52018 333 05106;
0186552790999992000020606004+31370+090020FM-12+470199999V0202701N005010120019N0300001N1-00621-02091999999ADDAA199000091GF106991061091012501001021KA1999N-01251MA1999999056631MD1710071-0101REMSYN076AAXX  06061 55279 32680 62705 11062 21209 35663 57007 86902 333 05105 21125;EQDQ01  00002PRCP99
0137552790999992000020609004+31370+090020FM-12+470199999V0203201N005010120019N0300001N1-00521-01981999999ADDGF107991061091012501001021MA1999999056471MD1710161+0011REMSYN070AAXX  06091 55279 42680 73205 11052 21198 35647 57016 86902 333 05101;
0186552790999992000020618004+31370+090020FM-12+470199999V0202201N005010120019N0300001N1-00861-01741999999ADDAA199000091GF105991051091012501001001KA1999M-00341MA1999999056501MD1710011-0101REMSYN076AAXX  06181 55279 32680 52205 11086 21174 35650 57001 85900 333 05100 11034;EQDQ01  00002PRCP99
0137552790999992000020621004+31370+090020FM-12+470199999V0202201N004012200019N0300001N1-01021-02091999999ADDGF102991021041022501001001MA1999999056501MD1410001+0001REMSYN070AAXX  06211 55279 42880 22204 11102 21209 35650 54000 82400 333 00000;
0167552790999992000020700004+31370+090020FM-12+470199999V0202201N004010120019N0300001N1-01141-01911999999ADDAA199000091GF106991061091012501001001MA1999999056511MD1210011+0001REMSYN070AAXX  07001 55279 32680 62204 11114 21191 35651 52001 86900 333 00001;EQDQ01  00002PRCP99
0137552790999992000020703004+31370+090020FM-12+470199999V0202701N005012200019N0300001N1-01001-01971999999ADDGF101991001001999999001021MA1999999056631MD1210121+0011REMSYN070AAXX  07031 55279 42980 12705 11100 21197 35663 52012 80002 333 05152;
0186552790999992000020706004+31370+090020FM-12+470199999V0203201N006010120019N0300001N1-00791-02141999999ADDAA199000091GF106991051091012501001021KA1999N-01461MA1999999056611MD1710021+0001REMSYN076AAXX  07061 55279 32680 63206 11079 21214 35661 57002 85902 333 00052 21146;EQDQ01  00002PRCP99
0137552790999992000020709004+31370+090020FM-12+470199999V0203201N005010120019N0300001N1-00801-02091999999ADDGF106991061091012501001021MA1999999056501MD1710111+0001REMSYN070AAXX  07091 55279 42680 63205 11080 21209 35650 57011 86902 333 00053;
0167552790999992000020712004+31370+090020FM-12+470199999V0202701N002012200019N0300001N1-01081-02211999999ADDAA199000091GF101991011041022501001001MA1999999056601MD1210101+0011REMSYN070AAXX  07121 55279 32880 12702 11108 21221 35660 52010 81400 333 00154;EQDQ01  00002PRCP99
0177552790999992000020800004+31370+090020FM-12+470199999V0201801N003012200019N0300001N1-01911-02651999999ADDAA199000091GA1001+999999999GF100991001001999999001001MA1999999056741MD1410001+0021REMSYN064AAXX  08001 55279 32980 01803 11191 21265 35674 54000 333 00258;EQDQ01  00002PRCP99
0147552790999992000020803004+31370+090020FM-12+470199999V0200401N002012200019N0300001N1-01521-02351999999ADDGA1001+999999999GF100991001001999999001001MA1999999056711MD1710031+0011REMSYN064AAXX  08031 55279 42980 00402 11152 21235 35671 57003 333 00155;
0186552790999992000020806004+31370+090020FM-12+470199999V0202701N004012200019N0300001N1-00831-02031999999ADDAA199000091GF101991011011017501001021KA1999N-01961MA1999999056611MD1710101+0001REMSYN076AAXX  08061 55279 32780 12704 11083 21203 35661 57010 81102 333 00000 21196;EQDQ01  00002PRCP99
0137552790999992000020809004+31370+090020FM-12+470199999V0202901N007012200019N0300001N1-00671-02281999999ADDGF101991011011017501001001MA1999999056411MD1710201+0011REMSYN070AAXX  08091 55279 42780 12907 11067 21228 35641 57020 81100 333 05101;
0177552790999992000020812004+31370+090020FM-12+470199999V0202901N003012200019N0300001N1-01031-02571999999ADDAA199000091GA1001+999999999GF100991001001999999001001MA1999999056531MD1710061+0031REMSYN064AAXX  08121 55279 32980 02903 11103 21257 35653 57006 333 05301;EQDQ01  00002PRCP99
0196552790999992000020818004+31370+090020FM-12+470199999V0209999C000012200019N0300001N1-01691-02911999999ADDAA199000091GA1001+999999999GF100991001001999999001001KA1999M-00611MA1999999056381MD1710061-0401REMSYN070AAXX  08181 55279 32980 00000 11169 21291 35638 57006 333 05451 11061;EQDQ01  00002PRCP99
0147552790999992000020821004+31370+090020FM-12+470199999V0209999C000012200019N0300001N1-02011-03081999999ADDGA1001+999999999GF100991001001999999001001MA1999999056331MD1710051+0041REMSYN064AAXX  08211 55279 42980 00000 11201 21308 35633 57005 333 05453;
0147552790999992000020903004+31370+090020FM-12+470199999V0202701N007012200019N0300001N1-01101-02381999999ADDGA1001+999999999GF100991001001999999001001MA1999999056611MD1210231+0011REMSYN064AAXX  09031 55279 42980 02707 11110 21238 35661 52023 333 05104;
0186552790999992000020906004+31370+090020FM-12+470199999V0202901N009012200019N0300001N1-00901-03161999999ADDAA199000091GF104991021091012501001021KA1999N-02051MA1999999056591MD1710021+0001REMSYN076AAXX  09061 55279 32680 42909 11090 21316 35659 57002 82902 333 00051 21205;EQDQ01  00002PRCP99
0137552790999992000020909004+31370+090020FM-12+470199999V0203201N006012200019N0300001N1-00861-02741999999ADDGF104991021091012501001021MA1999999056371MD1710221+0001REMSYN070AAXX  09091 55279 42680 43206 11086 21274 35637 57022 82902 333 00052;
0167552790999992000020912004+31370+090020FM-12+470199999V0203201N007012200019N0300001N1-01141-02481999999ADDAA199000091GF101991011041022501001001MA1999999056431MD1210061+0011REMSYN070AAXX  09121 55279 32880 13207 11114 21248 35643 52006 81400 333 00151;EQDQ01  00002PRCP99
0196552790999992000020918004+31370+090020FM-12+470199999V0201601N003012200019N0300001N1-01761-02911999999ADDAA199000091GA1001+999999999GF100991001001999999001001KA1999M-00801MA1999999056681MD1210111+0301REMSYN070AAXX  09181 55279 32980 01603 11176 21291 35668 52011 333 00351 11080;EQDQ01  00002PRCP99
0177552790999992000020921004+31370+090020FM-12+470199999V0201601N004012200019N0300001N1-01881-02961999999ADDAA199000091GA1001+999999999GF100991001001999999001001MA1999999056671MD1210051+0031REMSYN064AAXX  09211 55279 32980 01604 11188 21296 35667 52005 333 00301;EQDQ01  00002PRCP99
0147552790999992000021003004+31370+090020FM-12+470199999V0200401N001012200019N0300001N1-01591-02731999999ADDGA1001+999999999GF100991001001999999001001MA1999999056741MD1210071+0011REMSYN064AAXX  10031 55279 42980 00401 11159 21273 35674 52007 333 00155;
0196552790999992000021006004+31370+090020FM-12+470199999V0202701N006012200019N0300001N1-00721-02421999999ADDAA199000091GA1001+999999999GF100991001001999999001001KA1999N-02131MA1999999056641MD1710101+0101REMSYN070AAXX  10061 55279 32980 02706 11072 21242 35664 57010 333 00102 21213;EQDQ01  00002PRCP99
0137552790999992000021009004+31370+090020FM-12+470199999V0203201N005012200019N0300001N1-00581-02441999999ADDGF101991011041022501001001MA1999999056421MD1710221+0011REMSYN070AAXX  10091 55279 42880 13205 11058 21244 35642 57022 81400 333 00103;
0167552790999992000021012004+31370+090020FM-12+470199999V0202901N002012200019N0300001N1-00931-02551999999ADDAA199000091GF101991011041022501001001MA1999999056351MD1710071+0011REMSYN070AAXX  10121 55279 32880 12902 11093 21255 35635 57007 81400 333 05102;EQDQ01  00002PRCP99
0177552790999992000021100004+31370+090020FM-12+470199999V0202901N003012200019N0300001N1-01531-02731999999ADDAA199000091GA1001+999999999GF100991001001999999001001MA1999999056531MD1210011+0011REMSYN064AAXX  11001 55279 32980 02903 11153 21273 35653 52001 333 05104;EQDQ01  00002PRCP99
0147552790999992000021103004+31370+090020FM-12+470199999V0209999C000012200019N0300001N1-01301-02531999999ADDGA1001+999999999GF100991001001999999001001MA1999999056671MD1210141+0011REMSYN064AAXX  11031 55279 42980 00000 11130 21253 35667 52014 333 05103;
0186552790999992000021106004+31370+090020FM-12+470199999V0202201N004012200019N0300001N1-00371-02011999999ADDAA199000091GF101991011011017501001001KA1999N-01841MA1999999056521MD1710151-0101REMSYN076AAXX  11061 55279 32780 12204 11037 21201 35652 57015 81100 333 05104 21184;EQDQ01  00002PRCP99
0137552790999992000021109004+31370+090020FM-12+470199999V0202501N003010900019N0300001N1-00091-02001999999ADDGF105991031041017501001021MA1999999056141MD1710381+0031REMSYN070AAXX  11091 55279 42780 52503 11009 21200 35614 57038 83402 333 05305;
0167552790999992000021112004+31370+090020FM-12+470199999V0209999C000012200019N0300001N1-00521-02721999999ADDAA199000091GF101991011041022501001001MA1999999056141MD1410001+0021REMSYN070AAXX  11121 55279 32880 10000 11052 21272 35614 54000 81400 333 05204;EQDQ01  00002PRCP99
0167552790999992000021200004+31370+090020FM-12+470199999V0202501N006012200019N0300001N1-00941-02781999999ADDAA199000091GF101991011041022501001001MA1999999056241MD1210021+0031REMSYN070AAXX  12001 55279 32880 12506 11094 21278 35624 52002 81400 333 05306;EQDQ01  00002PRCP99
0156552790999992000021203004+31370+090020FM-12+470199999V0202701N005010900019N0300001N1-00941-01582999999ADDGF106991021041022501001021MA1999999056441MD1210201+0021REMSYN070AAXX  12031 55279 42880 62705 11094 21158 35644 52020 82402 333 05204;EQDQ01-001583ATOD  
0186552790999992000021206004+31370+090020FM-12+470199999V0202901N005012200019N0300001N1-00581-01511999999ADDAA199000091GF104991011041022501001021KA1999N-01191MA1999999056351MD1710091-0201REMSYN076AAXX  12061 55279 32880 42905 11058 21151 35635 57009 81402 333 05252 21119;EQDQ01  00002PRCP99
0137552790999992000021209004+31370+090020FM-12+470199999V0203201N004010900019N0300001N1-00441-01591999999ADDGF106991021041022501001021MA1999999056201MD1710151+0011REMSYN070AAXX  12091 55279 42880 63204 11044 21159 35620 57015 82402 333 00154;
0167552790999992000021212004+31370+090020FM-12+470199999V0202901N005010900019N0300001N1-00781-01701999999ADDAA199000091GF106991031091012501001021MA1999999056341MD1210141+0021REMSYN070AAXX  12121 55279 32680 62905 11078 21170 35634 52014 83902 333 00253;EQDQ01  00002PRCP99
0196552790999992000021218004+31370+090020FM-12+470199999V0201601N003012200019N0300001N1-01401-02221999999ADDAA199000091GA1001+999999999GF100991001001999999001001KA1999M-00341MA1999999056651MD1210091+0401REMSYN070AAXX  12181 55279 32980 01603 11140 21222 35665 52009 333 00457 11034;EQDQ01  00002PRCP99
0177552790999992000021300004+31370+090020FM-12+470199999V0202201N006012200019N0300001N1-01191-02641999999ADDAA199000091GA1001+999999999GF100991001001999999001001MA1999999056651MD1210011+0041REMSYN064AAXX  13001 55279 32980 02206 11119 21264 35665 52001 333 00453;EQDQ01  00002PRCP99
0147552790999992000021303004+31370+090020FM-12+470199999V0202201N004012200019N0300001N1-00641-02211999999ADDGA1001+999999999GF100991001001999999001001MA1999999056721MD1210071+0031REMSYN064AAXX  13031 55279 42980 02204 11064 21221 35672 52007 333 00303;
0196552790999992000021306004+31370+090020FM-12+470199999V0202901N005012200019N0300001N1-00221-02101999999ADDAA199000091GA1001+999999999GF100991001001999999001001KA1999N-01471MA1999999056601MD1710121+0301REMSYN070AAXX  13061 55279 32980 02905 11022 21210 35660 57012 333 00304 21147;EQDQ01  00002PRCP99
0137552790999992000021309004+31370+090020FM-12+470199999V0203401N004010120019N0300001N1-00261-02211999999ADDGF106991051091012501001021MA1999999056341MD1710261+0011REMSYN070AAXX  13091 55279 42680 63404 11026 21221 35634 57026 85902 333 00102;
0167552790999992000021312004+31370+090020FM-12+470199999V0202701N002010120019N0300001N1-00521-02261999999ADDAA199000091GF106991061091012501001021MA1999999056371MD1210031+0001REMSYN070AAXX  13121 55279 32680 62702 11052 21226 35637 52003 86902 333 00003;EQDQ01  00002PRCP99
0177552790999992000021400004+31370+090020FM-12+470199999V0202701N003012200019N0300001N1-01371-02691999999ADDAA199000091GA1001+999999999GF100991001001999999001001MA1999999056741MD1210041+0011REMSYN064AAXX  14001 55279 32980 02703 11137 21269 35674 52004 333 00152;EQDQ01  00002PRCP99
0186552790999992000021406004+31370+090020FM-12+470199999V0202701N006012200019N0300001N1-00651-02171999999ADDAA199000091GF102991021011017501001001KA1999N-01461MA1999999056771MD1710081+0201REMSYN076AAXX  14061 55279 32780 22706 11065 21217 35677 57008 82100 333 00254 21146;EQDQ01  00002PRCP99
0137552790999992000021409004+31370+090020FM-12+470199999V0202901N007010900019N0300001N1-00561-02151999999ADDGF106991021011017501001021MA1999999056541MD1710231+0021REMSYN070AAXX  14091 55279 42780 62907 11056 21215 35654 57023 82102 333 00253;
0167552790999992000021412004+31370+090020FM-12+470199999V0203401N003010120019N0300001N1-00931-02761999999ADDAA199000091GF107991061091012501001021MA1999999056581MD1210041+0021REMSYN070AAXX  14121 55279 32680 73403 11093 21276 35658 52004 86902 333 00254;EQDQ01  00002PRCP99
0186552790999992000021418004+31370+090020FM-12+470199999V0203201N003010900019N0300001N1-01261-02621999999ADDAA199000091GF106991021041022501001021KA1999M-00451MA1999999056821MD1210161+0201REMSYN076AAXX  14181 55279 32880 63203 11126 21262 35682 52016 82402 333 00255 11045;EQDQ01  00002PRCP99
0167552790999992000021500004+31370+090020FM-12+470199999V0209999C000012200019N0300001N1-01581-02871999999ADDAA199000091GF102991021041022501001021MA1999999057011MD1210091+0031REMSYN070AAXX  15001 55279 32880 20000 11158 21287 35701 52009 82402 333 00352;EQDQ01  00002PRCP99
0147552790999992000021503004+31370+090020FM-12+470199999V0202701N008012200019N0300001N1-01421-02671999999ADDGA1001+999999999GF100991001001999999001001MA1999999057281MD1210271+0041REMSYN064AAXX  15031 55279 42980 02708 11142 21267 35728 52027 333 00453;
0186552790999992000021506004+31370+090020FM-12+470199999V0202701N010012200019N0300001N1-01001-02591999999ADDAA199000091GF101991011011017501001001KA1999N-01741MA1999999057231MD1710051-0501REMSYN076AAXX  15061 55279 32780 12710 11100 21259 35723 57005 81100 333 05554 21174;EQDQ01  00002PRCP99
0147552790999992000021509004+31370+090020FM-12+470199999V0202701N007012200019N0300001N1-00781-03271999999ADDGA1001+999999999GF100991001001999999001001MA1999999057141MD1710091+0061REMSYN064AAXX  15091 55279 42980 02707 11078 21327 35714 57009 333 00652;
0177552790999992000021512004+31370+090020FM-12+470199999V0202501N004012200019N0300001N1-01001-03331999999ADDAA199000091GA1001+999999999GF100991001001999999001001MA1999999057101MD1710041+0051REMSYN064AAXX  15121 55279 32980 02504 11100 21333 35710 57004 333 00551;EQDQ01  00002PRCP99
0186552790999992000021518004+31370+090020FM-12+470199999V0209999C000012200019N0300001N1-01781-03121999999ADDAA199000091GF102991001001999999001021KA1999M-00721MA1999999057061MD1710091+0201REMSYN076AAXX  15181 55279 32980 20000 11178 21312 35706 57009 80002 333 00255 11072;EQDQ01  00002PRCP99
0137552790999992000021521004+31370+090020FM-12+470199999V0202201N007012200019N0300001N1-01021-02651999999ADDGF101991011041022501001021MA1999999056831MD1710201+0011REMSYN070AAXX  15211 55279 42880 12207 11102 21265 35683 57020 81402 333 05103;
0137552790999992000021603004+31370+090020FM-12+470199999V0202201N006010120019N0300001N1-00571-02111999999ADDGF107991061091012501001021MA1999999056781MD1210041+0051REMSYN070AAXX  16031 55279 42680 72206 11057 21211 35678 52004 86902 333 05509;
0186552790999992000021606004+31370+090020FM-12+470199999V0202701N009010120019N0300001N1-00311-01931999999ADDAA199000091GF107991071091012501999999KA1999N-01781MA1999999056701MD1710081-0501REMSYN076AAXX  16061 55279 32680 72709 11031 21193 35670 57008 879// 333 05507 21178;EQDQ01  00002PRCP99
0137552790999992000021609004+31370+090020FM-12+470199999V0202701N016010120019N0300001N1-00311-02291999999ADDGF107991071091012501999999MA1999999056501MD1710201+0061REMSYN070AAXX  16091 55279 42680 72716 11031 21229 35650 57020 879// 333 05605;
0190552790999992000021612004+31370+090020FM-12+470199999V0202701N005010120019N0300001N1-00481-02231999999ADDAA199000091GF107991071091012501999999MA1999999056441MD1710061-0701OA130602101REMSYN082AAXX  16121 55279 32680 72705 11048 21223 35644 57006 879// 333 05705 91121 91527;EQDQ01  00002PRCP99
0186552790999992000021618004+31370+090020FM-12+470199999V0203201N004010900019N0300001N1-00641-02061999999ADDAA199000091GF106991021041022501001021KA1999M-00141MA1999999056461MD1410001-0601REMSYN076AAXX  16181 55279 32880 63204 11064 21206 35646 54000 82402 333 05611 11014;EQDQ01  00002PRCP99
0167552790999992000021700004+31370+090020FM-12+470199999V0202201N006010120019N0300001N1-00971-02481999999ADDAA199000091GF106991061091012501001021MA1999999056201MD1710031+0051REMSYN070AAXX  17001 55279 32680 62206 11097 21248 35620 57003 86902 333 05551;EQDQ01  00002PRCP99
0137552790999992000021703004+31370+090020FM-12+470199999V0202201N009012200019N0300001N1-00811-02321999999ADDGF104991021041022501001021MA1999999056351MD1210151+0041REMSYN070AAXX  17031 55279 42880 42209 11081 21232 35635 52015 82402 333 05452;
0186552790999992000021706004+31370+090020FM-12+470199999V0202201N009010120019N0300001N1-00571-02321999999ADDAA199000091GF107991071091012501999999KA1999N-01631MA1999999056161MD1710191-0501REMSYN076AAXX  17061 55279 32680 72209 11057 21232 35616 57019 879// 333 05553 21163;EQDQ01  00002PRCP99
0137552790999992000021709004+31370+090020FM-12+470199999V0202201N008010120019N0300001N1-00481-02471999999ADDGF107991071091012501999999MA1999999055911MD1710251+0061REMSYN070AAXX  17091 55279 42680 72208 11048 21247 35591 57025 879// 333 05652;
0190552790999992000021712004+31370+090020FM-12+470199999V0203601N003010120019N0300001N1-00811-02391999999ADDAA199000091GF107991061091012501001021MA1999999055881MD1710031-0601OA130601801REMSYN082AAXX  17121 55279 32680 73603 11081 21239 35588 57003 86902 333 05653 91118 91522;EQDQ01  00002PRCP99
0186552790999992000021718004+31370+090020FM-12+470199999V0202701N005010900019N0300001N1-01021-02491999999ADDAA199000091GF107991021041022501001021KA1999M-00401MA1999999056081MD1210111-0401REMSYN076AAXX  17181 55279 32880 72705 11102 21249 35608 52011 82402 333 05454 11040;EQDQ01  00002PRCP99
0174552790999992000021721004+31370+090020FM-12+470199999V0201601N002010120019N0300001N1-01301-01561999999ADDAA124000391AY181031GF108991081091012501999999MA1999999056031MD1710051-0201MW1851REMSYN082AAXX  17211 55279 41680 81602 11130 21156 35603 57005 78580 889// 333 05254 70003;
0186552790999992000021800004+31370+090020FM-12+470199999V0200701N006010120019N0300001N1-01401-01781999999ADDAA106000891AY181061GF107991071091012501999999MA1999999056061MD1210031-0101MW1851REMSYN094AAXX  18001 55279 11680 70706 11140 21178 35606 52003 69981 78580 879// 333 05154 70008 92502;
0157552790999992000021803004+31370+090020FM-12+470199999V0209999C000010900019N0300001N1-01281-01841999999ADDAY181031GF106991021091012501001021MA1999999056251MD1210191+0011MW1001REMSYN076AAXX  18031 55279 41680 60000 11128 21184 35625 52019 70080 82902 333 05155;
0193552790999992000021806004+31370+090020FM-12+470199999V0203601N004010120019N0300001N1-01221-01781999999ADDAA106000791AY181061GF107991061091012501001021KA1999N-01451MA1999999056171MD1710081+0001MW1001REMSYN088AAXX  18061 55279 11680 73604 11122 21178 35617 57008 69901 70080 86902 333 00057 21145;
0137552790999992000021809004+31370+090020FM-12+470199999V0209999C000010900019N0300001N1-01121-01701999999ADDGF106991021091012501001021MA1999999056011MD1710161+0011REMSYN070AAXX  18091 55279 42680 60000 11112 21170 35601 57016 82902 333 00156;
0148552790999992000021812004+31370+090020FM-12+470199999V0209999C000012200019N0300001N1-01241-01901999999ADDAA199000021GF102991021041022501001021MA1999999056061MD1210051+0021REMSYN070AAXX  18121 55279 32880 20000 11124 21190 35606 52005 82402 333 00254;
0154552790999992000021821004+31370+090020FM-12+470199999V0201801N003010120019N0300001N1-01531-02151999999ADDAA124000791GF107991071091012501999999MA1999999056231MD1710021+0201REMSYN076AAXX  18211 55279 42680 71803 11153 21215 35623 57002 879// 333 00252 79999;
0160552790999992000021900004+31370+090020FM-12+470199999V0202901N003010120019N0300001N1-01541-02241999999ADDAA124000791GF107991071091012501999999MA1999999056221MD1710011+0201REMSYN082AAXX  19001 55279 32680 72903 11154 21224 35622 57001 879// 333 00251 79999 92502;
0137552790999992000021903004+31370+090020FM-12+470199999V0202701N002012200019N0300001N1-01581-02501999999ADDGF102991011041022501001021MA1999999056341MD1210121+0011REMSYN070AAXX  19031 55279 42880 22702 11158 21250 35634 52012 81402 333 00153;
0186552790999992000021906004+31370+090020FM-12+470199999V0202701N006010120019N0300001N1-01261-02261999999ADDAA199000091GF106991061091012501001021KA1999N-01691MA1999999056241MD1710101+0101REMSYN076AAXX  19061 55279 32680 62706 11126 21226 35624 57010 86902 333 00100 21169;EQDQ01  00002PRCP99
0137552790999992000021909004+31370+090020FM-12+470199999V0203201N005012200019N0300001N1-00981-02061999999ADDGF104991021041022501001021MA1999999056051MD1710191+0001REMSYN070AAXX  19091 55279 42880 43205 11098 21206 35605 57019 82402 333 00001;
0167552790999992000021912004+31370+090020FM-12+470199999V0202201N001010900019N0300001N1-01291-02371999999ADDAA199000091GF106991021041022501001021MA1999999056051MD1410001+0001REMSYN070AAXX  19121 55279 32880 62201 11129 21237 35605 54000 82402 333 00051;EQDQ01  00002PRCP99
0186552790999992000021918004+31370+090020FM-12+470199999V0200201N002012200019N0300001N1-01761-02671999999ADDAA199000091GF103991021091012501001021KA1999M-00961MA1999999056141MD1210021-0101REMSYN076AAXX  19181 55279 32680 30202 11176 21267 35614 52002 82902 333 05152 11096;EQDQ01  00002PRCP99
0147552790999992000021921004+31370+090020FM-12+470199999V0200201N001012200019N0300001N1-01871-02701999999ADDGA1001+999999999GF100991001001999999001001MA1999999056141MD1410001+0011REMSYN064AAXX  19211 55279 42980 00201 11187 21270 35614 54000 333 05153;
0183552790999992000022000004+31370+090020FM-12+470199999V0202701N003012200019N0300001N1-02061-02831999999ADDAA199000091GA1001+999999999GF100991001001999999001001MA1999999056171MD1210031-0101REMSYN070AAXX  20001 55279 32980 02703 11206 21283 35617 52003 333 05155 92502;EQDQ01  00002PRCP99
0147552790999992000022003004+31370+090020FM-12+470199999V0202701N006012200019N0300001N1-01521-02521999999ADDGA1001+999999999GF100991001001999999001001MA1999999056291MD1210121+0011REMSYN064AAXX  20031 55279 42980 02706 11152 21252 35629 52012 333 05101;
0186552790999992000022006004+31370+090020FM-12+470199999V0202901N007012200019N0300001N1-01161-02221999999ADDAA199000091GF103991021091012501001021KA1999N-02201MA1999999056211MD1710081+0001REMSYN076AAXX  20061 55279 32680 32907 11116 21222 35621 57008 82902 333 00001 21220;EQDQ01  00002PRCP99
0137552790999992000022009004+31370+090020FM-12+470199999V0202701N009010900019N0300001N1-01091-02161999999ADDGF106991021041022501001021MA1999999056131MD1710081+0011REMSYN070AAXX  20091 55279 42880 62709 11109 21216 35613 57008 82402 333 00151;
0167552790999992000022012004+31370+090020FM-12+470199999V0202701N007012200019N0300001N1-01381-02571999999ADDAA199000091GF102991011041022501001021MA1999999056151MD1210021+0011REMSYN070AAXX  20121 55279 32880 22707 11138 21257 35615 52002 81402 333 00151;EQDQ01  00002PRCP99
0196552790999992000022018004+31370+090020FM-12+470199999V0201801N004012200019N0300001N1-01971-02961999999ADDAA199000091GA1001+999999999GF100991001001999999001001KA1999M-01021MA1999999056361MD1210011+0201REMSYN070AAXX  20181 55279 32980 01804 11197 21296 35636 52001 333 00252 11102;EQDQ01  00002PRCP99
0137552790999992000022021004+31370+090020FM-12+470199999V0202001N004010900019N0300001N1-01771-02861999999ADDGF106991021041022501001021MA1999999056291MD1710071+0021REMSYN070AAXX  20211 55279 42880 62004 11177 21286 35629 57007 82402 333 00201;
0183552790999992000022100004+31370+090020FM-12+470199999V0202201N004012200019N0300001N1-01781-02931999999ADDAA199000091GA1001+999999999GF100991001001999999001001MA1999999056261MD1710031+0101REMSYN070AAXX  21001 55279 32980 02204 11178 21293 35626 57003 333 00103 92500;EQDQ01  00002PRCP99
0147552790999992000022103004+31370+090020FM-12+470199999V0202001N006012200019N0300001N1-00821-02001999999ADDGA1001+999999999GF100991001001999999001001MA1999999056311MD1210051+0001REMSYN064AAXX  21031 55279 42980 02006 11082 21200 35631 52005 333 00007;
0186552790999992000022106004+31370+090020FM-12+470199999V0202501N011012200019N0300001N1-00661-02341999999ADDAA199000091GF101991001001999999001021KA1999N-02031MA1999999056211MD1710101+0001REMSYN076AAXX  21061 55279 32980 12511 11066 21234 35621 57010 80002 333 00005 21203;EQDQ01  00002PRCP99
0147552790999992000022109004+31370+090020FM-12+470199999V0202701N009012200019N0300001N1-00301-01951999999ADDGA1001+999999999GF100991001001999999001001MA1999999055961MD1710251+0021REMSYN064AAXX  21091 55279 42980 02709 11030 21195 35596 57025 333 05208;
0196552790999992000022118004+31370+090020FM-12+470199999V0202201N010012200019N0300001N1-00891-03261999999ADDAA199000091GA1001+999999999GF100991001001999999001001KA1999M-00231MA1999999056401MD1210161+0001REMSYN070AAXX  21181 55279 32980 02210 11089 21326 35640 52016 333 00011 11023;EQDQ01  00002PRCP99
0147552790999992000022121004+31370+090020FM-12+470199999V0202501N009012200019N0300001N1-01081-03111999999ADDGA1001+999999999GF100991001001999999001001MA1999999056431MD1210031+0011REMSYN064AAXX  21211 55279 42980 02509 11108 21311 35643 52003 333 00107;
0177552790999992000022200004+31370+090020FM-12+470199999V0202201N006012200019N0300001N1-01201-03211999999ADDAA199000091GA1001+999999999GF100991001001999999001001MA1999999056481MD1210051+0021REMSYN064AAXX  22001 55279 32980 02206 11120 21321 35648 52005 333 00206;EQDQ01  00002PRCP99
0147552790999992000022203004+31370+090020FM-12+470199999V0202201N009012200019N0300001N1-00901-02481999999ADDGA1001+999999999GF100991001001999999001001MA1999999056621MD1210141+0031REMSYN064AAXX  22031 55279 42980 02209 11090 21248 35662 52014 333 00304;
0196552790999992000022206004+31370+090020FM-12+470199999V0202501N010012200019N0300001N1-00481-02401999999ADDAA199000091GA1001+999999999GF100991001001999999001001KA1999N-01251MA1999999056511MD1710111+0301REMSYN070AAXX  22061 55279 32980 02510 11048 21240 35651 57011 333 00302 21125;EQDQ01  00002PRCP99
0147552790999992000022209004+31370+090020FM-12+470199999V0202901N008012200019N0300001N1-00141-02231999999ADDGA1001+999999999GF100991001001999999001001MA1999999056231MD1710281+0031REMSYN064AAXX  22091 55279 42980 02908 11014 21223 35623 57028 333 00302;
0200552790999992000022212004+31370+090020FM-12+470199999V0202901N001012200019N0300001N1-00501-02451999999ADDAA199000091GA1001+999999999GF100991001001999999001001MA1999999056201MD1710031+0201OA130601901REMSYN076AAXX  22121 55279 32980 02901 11050 21245 35620 57003 333 00251 91119 91525;EQDQ01  00002PRCP99
0196552790999992000022218004+31370+090020FM-12+470199999V0202201N006012200019N0300001N1-00321-02561999999ADDAA199000091GA1001+999999999GF100991001001999999001001KA1999M+00371MA1999999057421MD1210031-0101REMSYN070AAXX  22181 55279 32980 02206 11032 21256 35742 52003 333 05104 10037;EQDQ01  00002PRCP99
0147552790999992000022221004+31370+090020FM-12+470199999V0202201N006012200019N0300001N1-00481-02121999999ADDGA1001+999999999GF100991001001999999001001MA1999999057501MD1210081+0001REMSYN064AAXX  22211 55279 42980 02206 11048 21212 35750 52008 333 00001;
0177552790999992000022300004+31370+090020FM-12+470199999V0202201N006012200019N0300001N1-00481-02121999999ADDAA199000091GA1001+999999999GF100991001001999999001001MA1999999057601MD1210101+0011REMSYN064AAXX  23001 55279 32980 02206 11048 21212 35760 52010 333 00102;EQDQ01  00002PRCP99
0147552790999992000022303004+31370+090020FM-12+470199999V0202201N007012200019N0300001N1-00121-02631999999ADDGA1001+999999999GF100991001001999999001001MA1999999057751MD1210151+0021REMSYN064AAXX  23031 55279 42980 02207 11012 21263 35775 52015 333 00201;
0235552790999992000022306004+31370+090020FM-12+470199999V0202501N007012200019N0300001N1-00341-02391999999ADDAA199000091GA1001+999999999GF100991001001999999001001KA1240N-01251MA1999999056472MD1710111+0001OA130602201REMSYN082AAXX  23061 55279 32980 02507 11034 21239 35647 57011 333 00001 21125 91122 91525;EQDQ01+056473APOSP Q02  00002PRCP99
0147552790999992000022309004+31370+090020FM-12+470199999V0202701N014012200019N0300001N1-00201-02541999999ADDGA1001+999999999GF100991001001999999001001MA1999999056251MD1710221+0001REMSYN064AAXX  23091 55279 42980 02714 11020 21254 35625 57022 333 00051;
0200552790999992000022312004+31370+090020FM-12+470199999V0202701N012012200019N0300001N1-00301-02741999999ADDAA199000091GA1001+999999999GF100991001001999999001001MA1999999056231MD1710021+0001OA130602501REMSYN076AAXX  23121 55279 32980 02712 11030 21274 35623 57002 333 00002 91125 91527;EQDQ01  00002PRCP99
0219552790999992000022318004+31370+090020FM-12+470199999V0202701N010012200019N0300001N1-00861-04331999999ADDAA199000091GA1001+999999999GF100991001001999999001001KA1240M-00021MA1999999056501MD1210091+0101OA130601901REMSYN082AAXX  23181 55279 32980 02710 11086 21433 35650 52009 333 00152 11002 91119 91525;EQDQ01  00002PRCP99
0200552790999992000022400004+31370+090020FM-12+470199999V0202701N008012200019N0300001N1-01031-03841999999ADDAA199000091GA1001+999999999GF100991001001999999001001MA1999999056611MD1210111+0201OA130601701REMSYN076AAXX  24001 55279 32980 02708 11103 21384 35661 52011 333 00200 91117 91525;EQDQ01  00002PRCP99
0147552790999992000022403004+31370+090020FM-12+470199999V0202701N006012200019N0300001N1-00821-03451999999ADDGA1001+999999999GF100991001001999999001001MA1999999056701MD1210091+0011REMSYN064AAXX  24031 55279 42980 02706 11082 21345 35670 52009 333 00151;
0196552790999992000022406004+31370+090020FM-12+470199999V0209999C000012200019N0300001N1-00571-02611999999ADDAA199000091GA1001+999999999GF100991001001999999001001KA1999N-01051MA1999999056631MD1710031+0201REMSYN070AAXX  24061 55279 32980 00000 11057 21261 35663 57003 333 00252 21105;EQDQ01  00002PRCP99
0147552790999992000022409004+31370+090020FM-12+470199999V0203401N007012200019N0300001N1-00421-02681999999ADDGA1001+999999999GF100991001001999999001001MA1999999056461MD1710171+0021REMSYN064AAXX  24091 55279 42980 03407 11042 21268 35646 57017 333 00252;
0177552790999992000022412004+31370+090020FM-12+470199999V0203201N005012200019N0300001N1-00661-02951999999ADDAA199000091GA1001+999999999GF100991001001999999001001MA1999999056421MD1710041+0021REMSYN064AAXX  24121 55279 32980 03205 11066 21295 35642 57004 333 00253;EQDQ01  00002PRCP99
0196552790999992000022418004+31370+090020FM-12+470199999V0201601N005012200019N0300001N1-01501-03301999999ADDAA199000091GA1001+999999999GF100991001001999999001001KA1999M-00341MA1999999056571MD1210021+0101REMSYN070AAXX  24181 55279 32980 01605 11150 21330 35657 52002 333 00156 11034;EQDQ01  00002PRCP99
0147552790999992000022421004+31370+090020FM-12+470199999V0209999C000012200019N0300001N1-01641-03321999999ADDGA1001+999999999GF100991001001999999001001MA1999999056481MD1710091+0001REMSYN064AAXX  24211 55279 42980 00000 11164 21332 35648 57009 333 00056;
0177552790999992000022500004+31370+090020FM-12+470199999V0202901N003012200019N0300001N1-01541-03141999999ADDAA199000091GA1001+999999999GF100991001001999999001001MA1999999056501MD1210021+0011REMSYN064AAXX  25001 55279 32980 02903 11154 21314 35650 52002 333 05155;EQDQ01  00002PRCP99
0147552790999992000022503004+31370+090020FM-12+470199999V0202501N009012200019N0300001N1-00921-02731999999ADDGA1001+999999999GF100991001001999999001001MA1999999056571MD1210071+0011REMSYN064AAXX  25031 55279 42980 02509 11092 21273 35657 52007 333 05151;
0186552790999992000022506004+31370+090020FM-12+470199999V0202701N011012200019N0300001N1-00641-02751999999ADDAA199000091GF101991011011017501001001KA1999N-02121MA1999999056491MD1710081-0101REMSYN076AAXX  25061 55279 32780 12711 11064 21275 35649 57008 81100 333 05151 21212;EQDQ01  00002PRCP99
0137552790999992000022509004+31370+090020FM-12+470199999V0202901N006012200019N0300001N1-00521-02631999999ADDGF101991011011017501001001MA1999999056351MD1710141+0011REMSYN070AAXX  25091 55279 42780 12906 11052 21263 35635 57014 81100 333 05151;
0167552790999992000022512004+31370+090020FM-12+470199999V0202701N005012200019N0300001N1-00811-02791999999ADDAA199000091GF101991011041022501001001MA1999999056301MD1710051+0011REMSYN070AAXX  25121 55279 32880 12705 11081 21279 35630 57005 81400 333 05152;EQDQ01  00002PRCP99
0196552790999992000022518004+31370+090020FM-12+470199999V0201801N002012200019N0300001N1-01561-03251999999ADDAA199000091GA1001+999999999GF100991001001999999001001KA1999M-00431MA1999999056391MD1210011-0201REMSYN070AAXX  25181 55279 32980 01802 11156 21325 35639 52001 333 05251 11043;EQDQ01  00002PRCP99
0137552790999992000022521004+31370+090020FM-12+470199999V0201801N001012200019N0300001N1-01941-03491999999ADDGF101991001001999999001021MA1999999056211MD1710181+0031REMSYN070AAXX  25211 55279 42980 11801 11194 21349 35621 57018 80002 333 05353;
0167552790999992000022600004+31370+090020FM-12+470199999V0201801N003012200019N0300001N1-01881-03901999999ADDAA199000091GF101991011041022501001001MA1999999056201MD1710011+0031REMSYN070AAXX  26001 55279 32880 11803 11188 21390 35620 57001 81400 333 05353;EQDQ01  00002PRCP99
0196552790999992000022603004+31370+090020FM-12+470199999V0201801N002012200019N0300001N1-01561-03251999999ADDAA199000091GA1001+999999999GF100991001001999999001001KA1999M-00431MA1999999056391MD1210011-0201REMSYN070AAXX  26031 55279 32980 01802 11156 21325 35639 52001 333 05291 11043;EQDQ01  00002PRCP99
0186552790999992000022606004+31370+090020FM-12+470199999V0203201N007012200019N0300001N1-00761-02721999999ADDAA199000091GF104991011041022501001021KA1999N-01941MA1999999056231MD1710081-0301REMSYN076AAXX  26061 55279 32880 43207 11076 21272 35623 57008 81402 333 05351 21194;EQDQ01  00002PRCP99
0137552790999992000022609004+31370+090020FM-12+470199999V0203201N004010210019N0300001N1-00631-02591999999ADDGF106991051041022501001021MA1999999056191MD1710081+0021REMSYN070AAXX  26091 55279 42880 63204 11063 21259 35619 57008 85402 333 05251;
0167552790999992000022612004+31370+090020FM-12+470199999V0203201N003012200019N0300001N1-00901-03291999999ADDAA199000091GF102991021041022501001001MA1999999056191MD1210041+0011REMSYN070AAXX  26121 55279 32880 23203 11090 21329 35619 52004 82400 333 05151;EQDQ01  00002PRCP99
0167552790999992000022700004+31370+090020FM-12+470199999V0209999C000012200019N0300001N1-01621-03271999999ADDAA199000091GF103991011041022501001021MA1999999056411MD1210061+0021REMSYN070AAXX  27001 55279 32880 30000 11162 21327 35641 52006 81402 333 00203;EQDQ01  00002PRCP99
0137552790999992000022703004+31370+090020FM-12+470199999V0202901N002012200019N0300001N1-01041-02711999999ADDGF101991011041022501001001MA1999999056541MD1210131+0021REMSYN070AAXX  27031 55279 42880 12902 11104 21271 35654 52013 81400 333 00203;
0186552790999992000022706004+31370+090020FM-12+470199999V0202901N008010120019N0300001N1-00861-02461999999ADDAA199000091GF106991061091012501001021KA1999N-01651MA1999999056511MD1710031+0301REMSYN076AAXX  27061 55279 32680 62908 11086 21246 35651 57003 86902 333 00351 21165;EQDQ01  00002PRCP99
0137552790999992000022709004+31370+090020FM-12+470199999V0202701N008010900019N0300001N1-00811-02691999999ADDGF106991041041022501001021MA1999999056431MD1710081+0031REMSYN070AAXX  27091 55279 42880 62708 11081 21269 35643 57008 84402 333 00352;
0167552790999992000022712004+31370+090020FM-12+470199999V0202701N007012200019N0300001N1-00941-02901999999ADDAA199000091GF104991021041022501001021MA1999999056481MD1210051+0031REMSYN070AAXX  27121 55279 32880 42707 11094 21290 35648 52005 82402 333 00300;EQDQ01  00002PRCP99
0186552790999992000022718004+31370+090020FM-12+470199999V0202701N003012200019N0300001N1-01251-02991999999ADDAA199000091GF101991011041022501001001KA1999M-00691MA1999999056601MD1210011+0201REMSYN076AAXX  27181 55279 32880 12703 11125 21299 35660 52001 81400 333 00252 11069;EQDQ01  00002PRCP99
0167552790999992000022800004+31370+090020FM-12+470199999V0209999C000012200019N0300001N1-01671-03301999999ADDAA199000091GF102991011041022501001021MA1999999056611MD1210031+0021REMSYN070AAXX  28001 55279 32880 20000 11167 21330 35661 52003 81402 333 00251;EQDQ01  00002PRCP99
0137552790999992000022803004+31370+090020FM-12+470199999V0200201N001012200019N0300001N1-01121-02831999999ADDGF102991001001999999001999MA1999999056711MD1210101+0021REMSYN070AAXX  28031 55279 42980 20201 11112 21283 35671 52010 8000/ 333 00251;
0186552790999992000022806004+31370+090020FM-12+470199999V0202501N002010120019N0300001N1-00661-02191999999ADDAA199000091GF107991061091012501001021KA1999N-01891MA1999999056621MD1710091+0101REMSYN076AAXX  28061 55279 32680 72502 11066 21219 35662 57009 86902 333 00102 21189;EQDQ01  00002PRCP99
0137552790999992000022809004+31370+090020FM-12+470199999V0202701N005010120019N0300001N1-00591-02151999999ADDGF107991071091012501001021MA1999999056561MD1710061+0011REMSYN070AAXX  28091 55279 42680 72705 11059 21215 35656 57006 87902 333 00102;
0167552790999992000022812004+31370+090020FM-12+470199999V0202701N006010120019N0300001N1-00741-02161999999ADDAA199000091GF107991071091012501001001MA1999999056691MD1210131+0021REMSYN070AAXX  28121 55279 32680 72706 11074 21216 35669 52013 87900 333 00202;EQDQ01  00002PRCP99
0186552790999992000022818004+31370+090020FM-12+470199999V0202701N004012200019N0300001N1-01041-02471999999ADDAA199000091GF101991011041022501001001KA1999M-00531MA1999999056901MD1210061+0301REMSYN076AAXX  28181 55279 32880 12704 11104 21247 35690 52006 81400 333 00302 11053;EQDQ01  00002PRCP99
0167552790999992000022900004+31370+090020FM-12+470199999V0202701N003012200019N0300001N1-01211-02731999999ADDAA199000091GF104991021041022501001021MA1999999056901MD1210081+0031REMSYN070AAXX  29001 55279 32880 42703 11121 21273 35690 52008 82402 333 00305;EQDQ01  00002PRCP99
0137552790999992000022903004+31370+090020FM-12+470199999V0200401N001012200019N0300001N1-00881-02441999999ADDGF104991021041999999001021MA1999999056981MD1210081+0031REMSYN070AAXX  29031 55279 42980 40401 11088 21244 35698 52008 82402 333 00302;
0186552790999992000022906004+31370+090020FM-12+470199999V0203601N006012200019N0300001N1-00541-03301999999ADDAA199000091GF104991021091012501001021KA1999N-01321MA1999999056901MD1710081+0301REMSYN076AAXX  29061 55279 32680 43606 11054 21330 35690 57008 82902 333 00301 21132;EQDQ01  00002PRCP99
0137552790999992000022909004+31370+090020FM-12+470199999V0202701N007012200019N0300001N1-00421-02491999999ADDGF103991011041022501001021MA1999999056701MD1710201+0011REMSYN070AAXX  29091 55279 42880 32707 11042 21249 35670 57020 81402 333 00102;
0167552790999992000030100004+31370+090020FM-12+470199999V0202501N005012200019N0300001N1-01041-01911999999ADDAA199000091GF101991011041022501001001MA1999999056331MD1710061+0071REMSYN070AAXX  01001 55279 32880 12505 11104 21191 35633 57006 81400 333 05708;EQDQ01  00002PRCP99
0137552790999992000030103004+31370+090020FM-12+470199999V0202501N009012200019N0300001N1-00901-02311999999ADDGF101991011041022501001001MA1999999056441MD1210111+0061REMSYN070AAXX  01031 55279 42880 12509 11090 21231 35644 52011 81400 333 05605;
0193552790999992000030106004+31370+090020FM-12+470199999V0202901N009010120019N0300001N1-00701-01321999999ADDAA106000891AY181061GF107991061091012501001021KA1999N-01261MA1999999056351MD1710031-0601MW1261REMSYN088AAXX  01061 55279 11680 72909 11070 21132 35635 57003 69971 72680 86902 333 05652 21126;
0137552790999992000030109004+31370+090020FM-12+470199999V0202701N009010900019N0300001N1-00631-01461999999ADDGF106991021091012501001021MA1999999056251MD1710101+0051REMSYN070AAXX  01091 55279 42680 62709 11063 21146 35625 57010 82902 333 05552;
0171552790999992000030112004+31370+090020FM-12+470199999V0203201N005012200019N0300001N1-00831-01841999999ADDAA199000021GF101991011041022501001021MA1999999056301MD1210051-0301OA130601701REMSYN082AAXX  01121 55279 32880 13205 11083 21184 35630 52005 81402 333 05353 91117 91527;
0177552790999992000030118004+31370+090020FM-12+470199999V0202701N003012200019N0300001N1-01381-02251999999ADDAA199000021GA1001+999999999GF100991001001999999001001KA1999M-00571MA1999999056461MD1210011+0101REMSYN070AAXX  01181 55279 32980 02703 11138 21225 35646 52001 333 00151 11057;
0164552790999992000030121004+31370+090020FM-12+470199999V0209999C000012200019N0300001N1-01831-02491999999ADDAA124000891GA1001+999999999GF100991001001999999001001MA1999999056421MD1710011+0101REMSYN070AAXX  01211 55279 42980 00000 11183 21249 35642 57001 333 00160 70007;
0160552790999992000030200004+31370+090020FM-12+470199999V0202701N001010900019N0300001N1-01881-02361999999ADDAA124000891GF106991041091012501001021MA1999999056431MD1210011+0101REMSYN082AAXX  02001 55279 32680 62701 11188 21236 35643 52001 84902 333 00161 70007 92501;
0137552790999992000030203004+31370+090020FM-12+470199999V0201801N002010120019N0300001N1-00961-01611999999ADDGF106991061091012501001021MA1999999056511MD1210081+0011REMSYN070AAXX  02031 55279 42680 61802 11096 21161 35651 52008 86902 333 00153;
0185552790999992000030206004+31370+090020FM-12+470199999V0203401N006010120019N0300001N1-00941-01581999999ADDAA106000791GF108991081091012501999999KA1999N-01881MA1999999056441MD1710071+0101MW1851REMSYN088AAXX  02061 55279 11680 83406 11094 21158 35644 57007 69901 78500 889// 333 00152 21188;
0176552790999992000030209004+31370+090020FM-12+470199999V0203201N007019999999N0100001N1-00711-01471999999ADDAY181031GF107991999091012501999999MA1999999056261MD1710111+0001MW1001REMSYN076AAXX  02091 55279 41660 73207 11071 21147 35626 57011 70080 889// 333 00052;EQDQ01+000082SCOTLC
0174552790999992000030212004+31370+090020FM-12+470199999V0202701N003010900019N0300001N1-00871-01561999999ADDAA106000791AY181061GF106991021091012501001021MA1999999056261MD1410001+0001MW1001REMSYN082AAXX  02121 55279 11680 62703 11087 21156 35626 54000 69901 70080 82902 333 00000;
0167552790999992000030218004+31370+090020FM-12+470199999V0201601N003012200019N0300001N1-01421-02011999999ADDAA199000021GF101991011041022501001001KA1999M-00671MA1999999056341MD1710021-0101REMSYN076AAXX  02181 55279 32880 11603 11142 21201 35634 57002 81400 333 05100 11067;
0164552790999992000030221004+31370+090020FM-12+470199999V0202201N006012200019N0300001N1-01161-01781999999ADDAA124000791GA1001+999999999GF100991001001999999001001MA1999999056221MD1710121-0201REMSYN070AAXX  02211 55279 42980 02206 11116 21178 35622 57012 333 05207 79999;
0160552790999992000030300004+31370+090020FM-12+470199999V0202201N008012200019N0300001N1-01101-02201999999ADDAA124000791GF101991011041022501001021MA1999999056331MD1210111-0101REMSYN082AAXX  03001 55279 32880 12208 11110 21220 35633 52011 81402 333 05108 79999 92500;
0137552790999992000030303004+31370+090020FM-12+470199999V0202201N010012200019N0300001N1-00831-02231999999ADDGF101991011041022501001001MA1999999056531MD1210201+0001REMSYN070AAXX  03031 55279 42880 12210 11083 21223 35653 52020 81400 333 00001;
0186552790999992000030306004+31370+090020FM-12+470199999V0203201N009010900019N0300001N1-00661-02181999999ADDAA199000091GF106991021041022501001021KA1999N-01521MA1999999056491MD1710041+0101REMSYN076AAXX  03061 55279 32880 63209 11066 21218 35649 57004 82402 333 00103 21152;EQDQ01  00002PRCP99
0137552790999992000030309004+31370+090020FM-12+470199999V0203201N007012200019N0300001N1-00491-02521999999ADDGF101991011041022501001001MA1999999056391MD1210101+0011REMSYN070AAXX  03091 55279 42880 13207 11049 21252 35639 52010 81400 333 00103;
0167552790999992000030312004+31370+090020FM-12+470199999V0203201N003012200019N0300001N1-00631-02501999999ADDAA199000091GF101991011041022501001001MA1999999056361MD1710031+0011REMSYN070AAXX  03121 55279 32880 13203 11063 21250 35636 57003 81400 333 00102;EQDQ01  00002PRCP99
0186552790999992000030318004+31370+090020FM-12+470199999V0201801N003012200019N0300001N1-01501-02561999999ADDAA199000091GF101991011041022501001001KA1999M-00391MA1999999056821MD1210211+0501REMSYN076AAXX  03181 55279 32880 11803 11150 21256 35682 52021 81400 333 00551 11039;EQDQ01  00002PRCP99
0147552790999992000030321004+31370+090020FM-12+470199999V0201801N005012200019N0200001N1-01701-02571999999ADDGA1001+999999999GF100991001001999999001001MA1999999056891MD1210071+0071REMSYN064AAXX  03211 55279 4/298 01805 11170 21257 35689 52007 333 00755;
0177552790999992000030400004+31370+090020FM-12+470199999V0201801N003012200019N0300001N1-01701-02541999999ADDAA199000091GA1001+999999999GF100991001001999999001001MA1999999056871MD1710021+0051REMSYN064AAXX  04001 55279 32980 01803 11170 21254 35687 57002 333 00556;EQDQ01  00002PRCP99
