0147556640999992000010103004+28630+087080FM-12+430299999V0209999C000012200019N0300001N1-00841-01651999999ADDGA1001+999999999GF100991001001999999001001MA1999999060471MD1210261+0021REMSYN064AAXX  01031 55664 42980 00000 11084 21165 36047 52026 333 00203;
0196556640999992000010106004+28630+087080FM-12+430299999V0209999C000012200019N0300001N1-00141-01321999999ADDAA106000091GA1001+999999999GF100991001001999999001001KA1999N-01761MA1999999060331MD1710141+0301REMSYN070AAXX  01061 55664 32980 00000 11014 21132 36033 57014 333 00300 21176;EQDQ01  00002PRCP06
0147556640999992000010109004+28630+087080FM-12+430299999V0209999C000012200019N0300001N1+00221-01341999999ADDGA1001+999999999GF100991001001999999001001MA1999999060131MD1710201+0031REMSYN064AAXX  01091 55664 42980 00000 10022 21134 36013 57020 333 00300;
0177556640999992000010112004+28630+087080FM-12+430299999V0202701N003012200019N0300001N1-00381-01821999999ADDAA106000091GA1001+999999999GF100991001001999999001001MA1999999060131MD1410001+0031REMSYN064AAXX  01121 55664 32980 02703 11038 21182 36013 54000 333 00352;EQDQ01  00002PRCP06
0137556640999992000010115004+28630+087080FM-12+430299999V0209999C000012200019N0300001N1-00861+99999999999ADDGA1001+999999999GF100991001001999999001001MA1999999060281MD1210151+9999REMSYN054AAXX  01151 55664 42980 00000 11086 21009 36028 52015;
0196556640999992000010118004+28630+087080FM-12+430299999V0209999C000012200019N0300001N1-01371-02471999999ADDAA106000091GA1001+999999999GF100991001001999999001001KA1999M+00271MA1999999060331MD1210051+0201REMSYN070AAXX  01181 55664 32980 00000 11137 21247 36033 52005 333 00252 10027;EQDQ01  00002PRCP06
0086556640999992000010121004+28630+087080FM-12+430299999V02099999999992200019N0003001N1+99999+99999101691ADDGF102991999999008001999999REMSYN048AAXX  01211 55664 //503 202// 10150 20130 40169;
0147556640999992000010203004+28630+087080FM-12+430299999V0209999C000012200019N0300001N1-00841-01761999999ADDGA1001+999999999GF100991001001999999001001MA1999999060541MD1210181+0011REMSYN064AAXX  02031 55664 42980 00000 11084 21176 36054 52018 333 00100;
0196556640999992000010206004+28630+087080FM-12+430299999V0209999C000012200019N0300001N1-00111-01361999999ADDAA106000091GA1001+999999999GF100991001001999999001001KA1999N-01951MA1999999060391MD1710151+0101REMSYN070AAXX  02061 55664 32980 00000 11011 21136 36039 57015 333 00100 21195;EQDQ01  00002PRCP06
0147556640999992000010209004+28630+087080FM-12+430299999V0209999C000012200019N0300001N1+00341-01221999999ADDGA1001+999999999GF100991001001999999001001MA1999999060151MD1710241+0001REMSYN064AAXX  02091 55664 42980 00000 10034 21122 36015 57024 333 00001;
0177556640999992000010212004+28630+087080FM-12+430299999V0209999C000012200019N0300001N1-00301-01751999999ADDAA106000091GA1001+999999999GF100991001001999999001001MA1999999060041MD1710111+0011REMSYN064AAXX  02121 55664 32980 00000 11030 21175 36004 57011 333 05101;EQDQ01  00002PRCP06
0137556640999992000010215004+28630+087080FM-12+430299999V0209999C000012200019N0300001N1-00881-02131999999ADDGA1001+999999999GF100991001001999999001001MA1999999060161MD1210121+9999REMSYN054AAXX  02151 55664 42980 00000 11088 21213 36016 52012;
0196556640999992000010218004+28630+087080FM-12+430299999V0209999C000012200019N0300001N1-01221-02281999999ADDAA106000091GA1001+999999999GF100991001001999999001001KA1999M+00431MA1999999060201MD1210041-0101REMSYN070AAXX  02181 55664 32980 00000 11122 21228 36020 52004 333 05102 10043;EQDQ01  00002PRCP06
0177556640999992000010300004+28630+087080FM-12+430299999V0209999C000012200019N0300001N1-01031-02521999999ADDAA106000091GA1001+999999999GF100991001001999999001001MA1999999060131MD1710021+0021REMSYN064AAXX  03001 55664 32980 00000 11103 21252 36013 57002 333 05201;EQDQ01  00002PRCP06
0147556640999992000010303004+28630+087080FM-12+430299999V0209999C000012200019N0300001N1-00961-01851999999ADDGA1001+999999999GF100991001001999999001001MA1999999060341MD1210211+0021REMSYN064AAXX  03031 55664 42980 00000 11096 21185 36034 52021 333 05251;
0196556640999992000010306004+28630+087080FM-12+430299999V0209999C000012200019N0300001N1-00101-01431999999ADDAA106000091GA1001+999999999GF100991001001999999001001KA1999N-01821MA1999999060191MD1710151-0201REMSYN070AAXX  03061 55664 32980 00000 11010 21143 36019 57015 333 05200 21182;EQDQ01  00002PRCP06
0147556640999992000010309004+28630+087080FM-12+430299999V0202201N003012200019N0300001N1+00261-01501999999ADDGA1001+999999999GF100991001001999999001001MA1999999059951MD1710241+0021REMSYN064AAXX  03091 55664 42980 02203 10026 21150 35995 57024 333 05251;
0177556640999992000010312004+28630+087080FM-12+430299999V0209999C000012200019N0300001N1-00201-01821999999ADDAA106000091GA1001+999999999GF100991001001999999001001MA1999999059941MD1710011+0011REMSYN064AAXX  03121 55664 32980 00000 11020 21182 35994 57001 333 05101;EQDQ01  00002PRCP06
0137556640999992000010315004+28630+087080FM-12+430299999V0209999C000012200019N0300001N1-00801-02171999999ADDGA1001+999999999GF100991001001999999001001MA1999999060121MD1210181+9999REMSYN054AAXX  03151 55664 42980 00000 11080 21217 36012 52018;
0196556640999992000010318004+28630+087080FM-12+430299999V0209999C000012200019N0300001N1-01331-02461999999ADDAA106000091GA1001+999999999GF100991001001999999001001KA1999M+00261MA1999999060171MD1210051+0001REMSYN070AAXX  03181 55664 32980 00000 11133 21246 36017 52005 333 00051 10026;EQDQ01  00002PRCP06
0132556640999992000010321004+28630+087080FM-12+430299999V0209999C000012200019N0300001N1-01551-02501999999ADDGA1001+999999999GF100991001001999999001001MD1719999+0001REMSYN064AAXX  03211 55664 42980 00000 11155 21250 3/016 57/01 333 00000;
0177556640999992000010400004+28630+087080FM-12+430299999V0209999C000012200019N0300001N1-01671-02491999999ADDAA106000091GA1001+999999999GF100991001001999999001001MA1999999060211MD1210051+0011REMSYN064AAXX  04001 55664 32980 00000 11167 21249 36021 52005 333 00101;EQDQ01  00002PRCP06
0147556640999992000010403004+28630+087080FM-12+430299999V0209999C000012200019N0300001N1-00921-01681999999ADDGA1001+999999999GF100991001001999999001001MA1999999060371MD1210161+0001REMSYN064AAXX  04031 55664 42980 00000 11092 21168 36037 52016 333 00000;
0196556640999992000010406004+28630+087080FM-12+430299999V0209999C000012200019N0300001N1-00071-01241999999ADDAA106000091GA1001+999999999GF100991001001999999001001KA1999N-01811MA1999999060261MD1710111+0101REMSYN070AAXX  04061 55664 32980 00000 11007 21124 36026 57011 333 00100 21181;EQDQ01  00002PRCP06
0147556640999992000010409004+28630+087080FM-12+430299999V0209999C000012200019N0300001N1+00221-01241999999ADDGA1001+999999999GF100991001001999999001001MA1999999060061MD1710201+0011REMSYN064AAXX  04091 55664 42980 00000 10022 21124 36006 57020 333 00100;
0177556640999992000010412004+28630+087080FM-12+430299999V0209999C000012200019N0300001N1-00031-01711999999ADDAA106000091GA1001+999999999GF100991001001999999001001MA1999999060011MD1710051+0011REMSYN064AAXX  04121 55664 32980 00000 11003 21171 36001 57005 333 00102;EQDQ01  00002PRCP06
0137556640999992000010415004+28630+087080FM-12+430299999V0200401N003012200019N0300001N1-00801-02101999999ADDGA1001+999999999GF100991001001999999001001MA1999999060151MD1210141+9999REMSYN054AAXX  04151 55664 42980 00403 11080 21210 36015 52014;
0196556640999992000010418004+28630+087080FM-12+430299999V0209999C000012200019N0300001N1-01201-02341999999ADDAA106000091GA1001+999999999GF100991001001999999001001KA1999M+00371MA1999999060201MD1210051+0001REMSYN070AAXX  04181 55664 32980 00000 11120 21234 36020 52005 333 00001 10037;EQDQ01  00002PRCP06
0177556640999992000010500004+28630+087080FM-12+430299999V0209999C000012200019N0300001N1-01731-02571999999ADDAA106000091GA1001+999999999GF100991001001999999001001MA1999999060511MD1210061+0001REMSYN064AAXX  05001 55664 32980 00000 11173 21257 36051 52006 333 00051;EQDQ01  00002PRCP06
0147556640999992000010503004+28630+087080FM-12+430299999V0209999C000012200019N0300001N1-00871-01701999999ADDGA1001+999999999GF100991001001999999001001MA1999999060361MD1210151+0001REMSYN064AAXX  05031 55664 42980 00000 11087 21170 36036 52015 333 00001;
0196556640999992000010506004+28630+087080FM-12+430299999V0209999C000012200019N0300001N1-00041-01271999999ADDAA106000091GA1001+999999999GF100991001001999999001001KA1999N-01771MA1999999060211MD1710151-0101REMSYN070AAXX  05061 55664 32980 00000 11004 21127 36021 57015 333 05100 21177;EQDQ01  00002PRCP06
0137556640999992000010509004+28630+087080FM-12+430299999V0202201N005012200019N0300001N1+00321-01351999999ADDGF101991011011022501001001MA1999999059931MD1710281+0011REMSYN070AAXX  05091 55664 42880 12205 10032 21135 35993 57028 81100 333 05101;
0167556640999992000010512004+28630+087080FM-12+430299999V0202201N006019999999N0300001N1-00141-01791999999ADDAA106000091GF106991001001999999001021MA1999999059871MD1710061+0011REMSYN070AAXX  05121 55664 32980 62206 11014 21179 35987 57006 80002 333 05151;EQDQ01  00002PRCP06
0137556640999992000010515004+28630+087080FM-12+430299999V0209999C000012200019N0300001N1-00381-01881999999ADDGA1001+999999999GF100991001001999999001001MA1999999060001MD1210131+9999REMSYN054AAXX  05151 55664 42980 00000 11038 21188 36000 52013;
0196556640999992000010518004+28630+087080FM-12+430299999V0209999C000012200019N0300001N1-01141-02321999999ADDAA106000091GA1001+999999999GF100991001001999999001001KA1999M+00421MA1999999060031MD1210031-0201REMSYN070AAXX  05181 55664 32980 00000 11114 21232 36003 52003 333 05201 10042;EQDQ01  00002PRCP06
0153556640999992000010521004+28630+087080FM-12+430299999V0209999C000012200019N0300001N1-01491-02471999999ADDGA1001+999999999GF100991001001999999001001MA1999999060031MD1410001-0101REMSYN070AAXX  05211 55664 42980 00000 11149 21247 36003 54000 333 05100 55773;
0147556640999992000010603004+28630+087080FM-12+430299999V0209999C000012200019N0300001N1-00861-01901999999ADDGA1001+999999999GF100991001001999999001001MA1999999060151MD1210131+0021REMSYN064AAXX  06031 55664 42980 00000 11086 21190 36015 52013 333 05200;
0186556640999992000010606004+28630+087080FM-12+430299999V0209999C000012200019N0300001N1-00231-01551999999ADDAA106000091GF101991011011022501001001KA1999N-01701MA1999999060011MD1710141-0201REMSYN076AAXX  06061 55664 32880 10000 11023 21155 36001 57014 81100 333 05252 21170;EQDQ01  00002PRCP06
0137556640999992000010609004+28630+087080FM-12+430299999V0202701N003012200019N0300001N1-00021-01461999999ADDGF102991021021022501001001MA1999999059801MD1710211+0011REMSYN070AAXX  06091 55664 42880 22703 11002 21146 35980 57021 82200 333 05153;
0167556640999992000010612004+28630+087080FM-12+430299999V0209999C000010210019N0300001N1-00341-01841999999ADDAA106000091GF107991061041022501001021MA1999999059891MD1210091+0001REMSYN070AAXX  06121 55664 32880 70000 11034 21184 35989 52009 86402 333 00052;EQDQ01  00002PRCP06
0127556640999992000010615004+28630+087080FM-12+430299999V0209999C000012200019N0300001N1-00781-01861999999ADDGF102991021041022501001001MA1999999059931MD1210041+9999REMSYN060AAXX  06151 55664 42880 20000 11078 21186 35993 52004 82400;
0147556640999992000010621004+28630+087080FM-12+430299999V0209999C000012200019N0300001N1-01551-02401999999ADDGA1001+999999999GF100991001001999999001001MA1999999060091MD1710051+0011REMSYN064AAXX  06211 55664 42980 00000 11155 21240 36009 57005 333 00151;
0177556640999992000010700004+28630+087080FM-12+430299999V0209999C000012200019N0300001N1-01771-02501999999ADDAA106000091GA1001+999999999GF100991001001999999001001MA1999999060111MD1210021+0011REMSYN064AAXX  07001 55664 32980 00000 11177 21250 36011 52002 333 00151;EQDQ01  00002PRCP06
0147556640999992000010703004+28630+087080FM-12+430299999V0209999C000012200019N0300001N1-01131-01971999999ADDGA1001+999999999GF100991001001999999001001MA1999999060251MD1210141+0011REMSYN064AAXX  07031 55664 42980 00000 11113 21197 36025 52014 333 00153;
0196556640999992000010706004+28630+087080FM-12+430299999V0209999C000012200019N0300001N1-00141-01421999999ADDAA106000091GA1001+999999999GF100991001001999999001001KA1999N-01851MA1999999060121MD1710131+0101REMSYN070AAXX  07061 55664 32980 00000 11014 21142 36012 57013 333 00101 21185;EQDQ01  00002PRCP06
0137556640999992000010709004+28630+087080FM-12+430299999V0202001N004010210019N0300001N1+00221-01431999999ADDGF106991061041022501001001MA1999999059851MD1710271+0011REMSYN070AAXX  07091 55664 42880 62004 10022 21143 35985 57027 86400 333 00102;
0167556640999992000010712004+28630+087080FM-12+430299999V0202701N004010210019N0300001N1+00021-01581999999ADDAA106000091GF106991061041022501001001MA1999999059831MD1710021+0011REMSYN070AAXX  07121 55664 32880 62704 10002 21158 35983 57002 86400 333 05104;EQDQ01  00002PRCP06
0127556640999992000010715004+28630+087080FM-12+430299999V0209999C000012200019N0300001N1-00491-01871999999ADDGF102991021041022501001001MA1999999059921MD1210091+9999REMSYN060AAXX  07151 55664 42880 20000 11049 21187 35992 52009 82400;
0196556640999992000010718004+28630+087080FM-12+430299999V0209999C000012200019N0300001N1-00991-02221999999ADDAA106000091GA1001+999999999GF100991001001999999001001KA1999M+00361MA1999999059961MD1210041-0201REMSYN070AAXX  07181 55664 32980 00000 11099 21222 35996 52004 333 05202 10036;EQDQ01  00002PRCP06
0156556640999992000010721004+28630+087080FM-12+430299999V0209999C000012200019N0300001N1-01361-02301999999ADDGF101991999041017501001021MA1999999059971MD1210011+0011REMSYN070AAXX  07211 55664 42780 10000 11136 21230 35997 52001 80402 333 05102;EQDQ01+000002SCOTLC
0137556640999992000010800004+28630+087080FM-12+430299999V0209999C000012200019N0300001N1-01361-02301999999ADDGF101991001001999999001021MA1999999059961MD1410001+0011REMSYN070AAXX  08001 55664 42980 10000 11136 21230 35996 54000 80002 333 05102;
0147556640999992000010803004+28630+087080FM-12+430299999V0209999C000012200019N0300001N1-00901-01691999999ADDGA1001+999999999GF100991001001999999001001MA1999999059981MD1210031+0031REMSYN064AAXX  08031 55664 42980 00000 11090 21169 35998 52003 333 05302;
0186556640999992000010806004+28630+087080FM-12+430299999V0201401N002010210019N0300001N1-00041-01261999999ADDAA106000091GF107991071041022501999999KA1999N-01611MA1999999059851MD1710131-0301REMSYN076AAXX  08061 55664 32880 71402 11004 21126 35985 57013 874// 333 05301 21161;EQDQ01  00002PRCP06
0137556640999992000010809004+28630+087080FM-12+430299999V0202201N006010210019N0300001N1+00441-01031999999ADDGF107991071041022501999999MA1999999059461MD1710391+0041REMSYN070AAXX  08091 55664 42880 72206 10044 21103 35946 57039 874// 333 05402;
0190556640999992000010812004+28630+087080FM-12+430299999V0202701N007010900019N0300001N1+00161-01221999999ADDAA106000091GF107991021041022501001021MA1999999059511MD1210051-0301OA130601801REMSYN082AAXX  08121 55664 32880 72707 10016 21122 35951 52005 82402 333 05301 91118 91522;EQDQ01  00002PRCP06
0137556640999992000010815004+28630+087080FM-12+430299999V0209999C000012200019N0300001N1-00261-01501999999ADDGA1001+999999999GF100991001001999999001001MA1999999059741MD1210231+9999REMSYN054AAXX  08151 55664 42980 00000 11026 21150 35974 52023;
0219556640999992000010818004+28630+087080FM-12+430299999V0209999C000012200019N0300001N1-00711-01901999999ADDAA106000091GA1001+999999999GF100991001001999999001001KA1240M+00481MA1999999059761MD1210021-0201OA130602001REMSYN082AAXX  08181 55664 32980 00000 11071 21190 35976 52002 333 05203 10048 91120 91527;EQDQ01  00002PRCP06
0147556640999992000010821004+28630+087080FM-12+430299999V0209999C000012200019N0300001N1-01031-02001999999ADDGA1001+999999999GF100991001001999999001001MA1999999059671MD1710091+0031REMSYN064AAXX  08211 55664 42980 00000 11103 21200 35967 57009 333 05303;
0177556640999992000010900004+28630+087080FM-12+430299999V0209999C000012200019N0300001N1-01311-02111999999ADDAA106000091GA1001+999999999GF100991001001999999001001MA1999999059601MD1710071+0041REMSYN064AAXX  09001 55664 32980 00000 11131 21211 35960 57007 333 05402;EQDQ01  00002PRCP06
0147556640999992000010903004+28630+087080FM-12+430299999V0203601N002012200019N0300001N1-00271-01201999999ADDGA1001+999999999GF100991001001999999001001MA1999999059761MD1210161+0021REMSYN064AAXX  09031 55664 42980 03602 11027 21120 35976 52016 333 05206;
0157556640999992000010909004+28630+087080FM-12+430299999V0202701N013010900019N0300001N1+00421-01031999999ADDAY131031GF107991021011022501001021MA1999999059471MD1710151+0001MW1001REMSYN076AAXX  09091 55664 41880 72713 10042 21103 35947 57015 70030 82102 333 00000;
0210556640999992000010912004+28630+087080FM-12+430299999V0202701N010010210019N0300001N1+00221-01231999999ADDAA106000091AY131061GF106991061021022501001001MA1999999059481MD1210011+0001MW1001OA130602301REMSYN088AAXX  09121 55664 31880 62710 10022 21123 35948 52001 70030 86200 333 00001 91123 91527;EQDQ01  00002PRCP06
0137556640999992000010915004+28630+087080FM-12+430299999V0202701N007012200019N0300001N1-00261-01311999999ADDGA1001+999999999GF100991001001999999001001MA1999999059661MD1210181+9999REMSYN054AAXX  09151 55664 42980 02707 11026 21131 35966 52018;
0196556640999992000010918004+28630+087080FM-12+430299999V0202701N003012200019N0300001N1-00701-01561999999ADDAA106000091GA1001+999999999GF100991001001999999001001KA1999M+00691MA1999999059651MD1710011-0101REMSYN070AAXX  09181 55664 32980 02703 11070 21156 35965 57001 333 05100 10069;EQDQ01  00002PRCP06
0166556640999992000010921004+28630+087080FM-12+430299999V0203201N999992200019N0300001N1-00371-01331999999ADDGA1001+999999999GF100991001001999999001001MA1999999059621MD1710031+0011REMSYN064AAXX  09211 55664 42980 08203 11037 21133 35962 57003 333 05107;EQDQ01+010301WOSPD 
0177556640999992000011000004+28630+087080FM-12+430299999V0209999C000012200019N0300001N1-00741-01581999999ADDAA106000091GA1001+999999999GF100991001001999999001001MA1999999059661MD1210041+0011REMSYN064AAXX  10001 55664 32980 00000 11074 21158 35966 52004 333 00106;EQDQ01  00002PRCP06
0137556640999992000011003004+28630+087080FM-12+430299999V0209999C000012200019N0300001N1-00441-01361999999ADDGF104991011011022501001021MA1999999059811MD1210151+0011REMSYN070AAXX  10031 55664 42880 40000 11044 21136 35981 52015 81102 333 00152;
0186556640999992000011006004+28630+087080FM-12+430299999V0202701N010010360019N0300001N1+00201-01101999999ADDAA106000091GF107991021011022501041001KA1999N-01011MA1999999059711MD1710101+0101REMSYN076AAXX  10061 55664 32880 72710 10020 21110 35971 57010 82140 333 00154 21101;EQDQ01  00002PRCP06
0137556640999992000011009004+28630+087080FM-12+430299999V0202701N011010210019N0300001N1+00221-01191999999ADDGF108991081091022501999999MA1999999059601MD1710111+0011REMSYN070AAXX  10091 55664 42880 82711 10022 21119 35960 57011 889// 333 00152;
0186556640999992000011010004+28630+087080FM-12+430299999V0209999C000012200019N0300001N1+99999+99999999999ADDAA106000091GF101991011041022501001001KA1999M+00261MA1999999059911MD1210071+0301REMSYN076AAXX  10101 55664 32880 10000 110/9 21147 35991 52007 81400 333 00303 10026;EQDQ01  00002PRCP06
0190556640999992000011012004+28630+087080FM-12+430299999V0202701N011010210019N0300001N1+00041-01241999999ADDAA106000091GF107991061091022501001021MA1999999059661MD1210061+0201OA130601901REMSYN082AAXX  10121 55664 32880 72711 10004 21124 35966 52006 86902 333 00252 91119 91527;EQDQ01  00002PRCP06
0127556640999992000011015004+28630+087080FM-12+430299999V0202701N005010210019N0300001N1-00081-01211999999ADDGF106991061041022501001001MA1999999059841MD1210181+9999REMSYN060AAXX  10151 55664 42880 62705 11008 21121 35984 52018 86400;
0186556640999992000011018004+28630+087080FM-12+430299999V0209999C000012200019N0300001N1-00451-01471999999ADDAA106000091GF101991011041022501001001KA1999M+00261MA1999999059911MD1210071+0301REMSYN076AAXX  10181 55664 32880 10000 11045 21147 35991 52007 81400 333 00303 10026;EQDQ01  00002PRCP06
0137556640999992000011021004+28630+087080FM-12+430299999V0209999C000012200019N0300001N1-00581-01411999999ADDGF102991001001999999001021MA1999999059861MD1710051+0021REMSYN070AAXX  10211 55664 42980 20000 11058 21141 35986 57005 80002 333 00252;
0167556640999992000011100004+28630+087080FM-12+430299999V0209999C000012200019N0300001N1-00921-01581999999ADDAA106000091GF102991021041022501001021MA1999999059911MD1210051+0031REMSYN070AAXX  11001 55664 32880 20000 11092 21158 35991 52005 82402 333 00352;EQDQ01  00002PRCP06
0137556640999992000011103004+28630+087080FM-12+430299999V0209999C000010900019N0300001N1-00401-01261999999ADDGF107991021011022501001021MA1999999060121MD1210211+0031REMSYN070AAXX  11031 55664 42880 70000 11040 21126 36012 52021 82102 333 00300;
0186556640999992000011106004+28630+087080FM-12+430299999V0202701N004010210019N0300001N1+00411-00751999999ADDAA106000091GF107991071041022501999999KA1999N-01131MA1999999060001MD1710121+0301REMSYN076AAXX  11061 55664 32880 72704 10041 21075 36000 57012 874// 333 00302 21113;EQDQ01  00002PRCP06
0137556640999992000011109004+28630+087080FM-12+430299999V0202701N008010210019N0300001N1+00311-00971999999ADDGF107991071021022501999999MA1999999059831MD1710171+0021REMSYN070AAXX  11091 55664 42880 72708 10031 21097 35983 57017 872// 333 00201;
0167556640999992000011112004+28630+087080FM-12+430299999V0202701N010010150019N0300001N1+00061-01251999999ADDAA106000091GF107991071091017501999999MA1999999059911MD1210081+0031REMSYN070AAXX  11121 55664 32780 72710 10006 21125 35991 52008 879// 333 00300;EQDQ01  00002PRCP06
0127556640999992000011115004+28630+087080FM-12+430299999V0209999C000012200019N0300001N1-00321-01291999999ADDGF101991011041022501001001MA1999999060071MD1210161+9999REMSYN060AAXX  11151 55664 42880 10000 11032 21129 36007 52016 81400;
0196556640999992000011118004+28630+087080FM-12+430299999V0209999C000012200019N0300001N1-00921-01721999999ADDAA106000091GA1001+999999999GF100991001001999999001001KA1999M+00511MA1999999060081MD1210011+0201REMSYN070AAXX  11181 55664 32980 00000 11092 21172 36008 52001 333 00255 10051;EQDQ01  00002PRCP06
0137556640999992000011121004+28630+087080FM-12+430299999V0209999C000012200019N0300001N1-01161-01861999999ADDGF101991001001999999001021MA1999999060081MD1410001+0021REMSYN070AAXX  11211 55664 42980 10000 11116 21186 36008 54000 80002 333 00256;
0177556640999992000011200004+28630+087080FM-12+430299999V0209999C000012200019N0300001N1-01371-01981999999ADDAA106000091GA1001+999999999GF100991001001999999001001MA1999999060081MD1410001+0021REMSYN064AAXX  12001 55664 32980 00000 11137 21198 36008 54000 333 00255;EQDQ01  00002PRCP06
0147556640999992000011203004+28630+087080FM-12+430299999V0209999C000012200019N0300001N1-00641-01261999999ADDGA1001+999999999GF100991001001999999001001MA1999999060301MD1210221+0021REMSYN064AAXX  12031 55664 42980 00000 11064 21126 36030 52022 333 00252;
0186556640999992000011206004+28630+087080FM-12+430299999V0202701N004012200019N0300001N1+00101-00901999999ADDAA106000091GF101991011011022501001001KA1999N-01431MA1999999060211MD1710091+0201REMSYN076AAXX  12061 55664 32880 12704 10010 21090 36021 57009 81100 333 00253 21143;EQDQ01  00002PRCP06
0137556640999992000011209004+28630+087080FM-12+430299999V0201801N008010210019N0300001N1+00301-01031999999ADDGF105991051021022501001001MA1999999059991MD1710221+0021REMSYN070AAXX  12091 55664 42880 51808 10030 21103 35999 57022 85200 333 00200;
0167556640999992000011212004+28630+087080FM-12+430299999V0202701N007012200019N0300001N1-00181-01451999999ADDAA106000091GF101991001001999999001021MA1999999060041MD1210051+0011REMSYN070AAXX  12121 55664 32980 12707 11018 21145 36004 52005 80002 333 00152;EQDQ01  00002PRCP06
0137556640999992000011215004+28630+087080FM-12+430299999V0209999C000012200019N0300001N1-00591-01681999999ADDGA1001+999999999GF100991001001999999001001MA1999999060161MD1210121+9999REMSYN054AAXX  12151 55664 42980 00000 11059 21168 36016 52012;
0196556640999992000011218004+28630+087080FM-12+430299999V0209999C000012200019N0300001N1-00791-01721999999ADDAA106000091GA1001+999999999GF100991001001999999001001KA1999M+00351MA1999999059981MD1710181-0101REMSYN070AAXX  12181 55664 32980 00000 11079 21172 35998 57018 333 05101 10035;EQDQ01  00002PRCP06
0137556640999992000011221004+28630+087080FM-12+430299999V0209999C000012200019N0300001N1-00911-01711999999ADDGF102991001001999999001021MA1999999059811MD1710171+0031REMSYN070AAXX  12211 55664 42980 20000 11091 21171 35981 57017 80002 333 05303;
0167556640999992000011300004+28630+087080FM-12+430299999V0209999C000012200019N0300001N1-00811-01501999999ADDAA106000091GF104991001001999999001021MA1999999059771MD1710041+0031REMSYN070AAXX  13001 55664 32980 40000 11081 21150 35977 57004 80002 333 05306;EQDQ01  00002PRCP06
0137556640999992000011303004+28630+087080FM-12+430299999V0209999C000012200019N0300001N1-00531-01251999999ADDGF101991011011022501001001MA1999999059821MD1210051+0051REMSYN070AAXX  13031 55664 42880 10000 11053 21125 35982 52005 81100 333 05501;
0186556640999992000011306004+28630+087080FM-12+430299999V0202201N010012200019N0300001N1+00281-01201999999ADDAA106000091GF101991011011022501001001KA1999N-01011MA1999999059691MD1710131-0501REMSYN076AAXX  13061 55664 32880 12210 10028 21120 35969 57013 81100 333 05502 21101;EQDQ01  00002PRCP06
0137556640999992000011309004+28630+087080FM-12+430299999V0202701N011012200019N0300001N1+00221-01231999999ADDGF102991021021022501001001MA1999999059531MD1710161+0051REMSYN070AAXX  13091 55664 42880 22711 10022 21123 35953 57016 82200 333 05551;
0190556640999992000011312004+28630+087080FM-12+430299999V0202701N006012200019N0300001N1-00231-01491999999ADDAA106000091GF101991011041022501001001MA1999999059531MD1410001-0501OA130601901REMSYN082AAXX  13121 55664 32880 12706 11023 21149 35953 54000 81400 333 05551 91119 91527;EQDQ01  00002PRCP06
0137556640999992000011315004+28630+087080FM-12+430299999V0202201N004012200019N0300001N1-00641-01561999999ADDGA1001+999999999GF100991001001999999001001MA1999999059571MD1210041+9999REMSYN054AAXX  13151 55664 42980 02204 11064 21156 35957 52004;
0196556640999992000011318004+28630+087080FM-12+430299999V0209999C000012200019N0300001N1-00891-01891999999ADDAA106000091GA1001+999999999GF100991001001999999001001KA1999M+00371MA1999999059601MD1210031-0401REMSYN070AAXX  13181 55664 32980 00000 11089 21189 35960 52003 333 05451 10037;EQDQ01  00002PRCP06
0151556640999992000011321004+28630+087080FM-12+430299999V0209999C000012200019N0300001N1-01191-02071999999ADDGA1001+999999999GF100991001001999999001001MA1999999059551MD1710051+0031REMSYN068    AAXX  13211 55664 42980 00000 11119 21207 35955 57005 333 05353;
0181556640999992000011400004+28630+087080FM-12+430299999V0209999C000012200019N0300001N1-01541-02261999999ADDAA199000091GA1001+999999999GF100991001001999999001001MA1999999059531MD1710021+0021REMSYN068    AAXX  14001 55664 32980 00000 11154 21226 35953 57002 333 05257;EQDQ01  00002PRCP99
0151556640999992000011403004+28630+087080FM-12+430299999V0209999C000012200019N0300001N1-00891-01721999999ADDGA1001+999999999GF100991001001999999001001MA1999999059611MD1210081+0021REMSYN068    AAXX  14031 55664 42980 00000 11089 21172 35961 52008 333 05254;
0200556640999992000011406004+28630+087080FM-12+430299999V0209999C000012200019N0300001N1+00031-01121999999ADDAA199000091GA1001+999999999GF100991001001999999001001KA1999N-01701MA1999999059501MD1710111-0201REMSYN074    AAXX  14061 55664 32980 00000 10003 21112 35950 57011 333 05253 21170;EQDQ01  00002PRCP99
0141556640999992000011409004+28630+087080FM-12+430299999V0202701N010012200019N0300001N1+00551-01391999999ADDGF101991011011022501001001MA1999999059291MD1710211+0021REMSYN074    AAXX  14091 55664 42880 12710 10055 21139 35929 57021 81100 333 05203;
0171556640999992000011412004+28630+087080FM-12+430299999V0202701N003012200019N0300001N1-00081-01531999999ADDAA199000091GF101991011011022501001001MA1999999059391MD1210101+0011REMSYN074    AAXX  14121 55664 32880 12703 11008 21153 35939 52010 81100 333 05102;EQDQ01  00002PRCP99
0141556640999992000011415004+28630+087080FM-12+430299999V0202701N002012200019N0300001N1-00721-01801999999ADDGA1001+999999999GF100991001001999999001001MA1999999059581MD1210191+9999REMSYN058    AAXX  14151 55664 42980 02702 11072 21180 35958 52019;
0200556640999992000011418004+28630+087080FM-12+430299999V0209999C000012200019N0300001N1-01021-01991999999ADDAA199000091GA1001+999999999GF100991001001999999001001KA1999M+00581MA1999999059591MD1210011+0001REMSYN074    AAXX  14181 55664 32980 00000 11102 21199 35959 52001 333 00051 10058;EQDQ01  00002PRCP99
0151556640999992000011421004+28630+087080FM-12+430299999V0209999C000012200019N0300001N1-01271-02221999999ADDGA1001+999999999GF100991001001999999001001MA1999999059451MD1710141+0011REMSYN068    AAXX  14211 55664 42980 00000 11127 21222 35945 57014 333 05151;
0181556640999992000011500004+28630+087080FM-12+430299999V0209999C000012200019N0300001N1-01451-02181999999ADDAA199000091GA1001+999999999GF100991001001999999001001MA1999999059881MD1410001+0041REMSYN068    AAXX  15001 55664 32980 00000 11145 21218 35988 54000 333 05400;EQDQ01  00002PRCP99
0151556640999992000011503004+28630+087080FM-12+430299999V0209999C000012200019N0300001N1-00281-01441999999ADDGA1001+999999999GF100991001001999999001001MA1999999059551MD1210111+0011REMSYN068    AAXX  15031 55664 42980 00000 11028 21144 35955 52011 333 05106;
0223556640999992000011506004+28630+087080FM-12+430299999V0202701N013012200019N0300001N1+00231-01621999999ADDAA199000091GA1001+999999999GF100991001001999999001001KA1240N-01561MA1999999059541MD1710011+0001OA130601901REMSYN086    AAXX  15061 55664 32980 02713 10023 21162 35954 57001 333 00002 21156 91119 91522;EQDQ01  00002PRCP99
0151556640999992000011509004+28630+087080FM-12+430299999V0202701N014012200019N0300001N1+00061-02041999999ADDGA1001+999999999GF100991001001999999001001MA1999999059431MD1710111+0011REMSYN068    AAXX  15091 55664 42980 02714 10006 21204 35943 57011 333 00155;
0204556640999992000011512004+28630+087080FM-12+430299999V0202701N007012200019N0300001N1-00411-02151999999ADDAA199000091GA1001+999999999GF100991001001999999001001MA1999999059501MD1210071+0101OA130602401REMSYN080    AAXX  15121 55664 32980 02707 11041 21215 35950 52007 333 00153 91124 91527;EQDQ01  00002PRCP99
0141556640999992000011515004+28630+087080FM-12+430299999V0202701N002012200019N0300001N1-00541-02121999999ADDGA1001+999999999GF100991001001999999001001MA1999999059691MD1210191+9999REMSYN058    AAXX  15151 55664 42980 02702 11054 21212 35969 52019;
0200556640999992000011518004+28630+087080FM-12+430299999V0203601N006012200019N0300001N1-00561-02331999999ADDAA199000091GA1001+999999999GF100991001001999999001001KA1999M+00301MA1999999059621MD1710071+0001REMSYN074    AAXX  15181 55664 32980 03606 11056 21233 35962 57007 333 00005 10030;EQDQ01  00002PRCP99
0136556640999992000011520004+28630+087080FM-12+430299999V0202701N009012200019N0300001N1-00441-02081999999ADDGA1001+999999999GF100991001001999999001001MD1710111+0011REMSYN068    AAXX  15201 55664 42980 02709 11044 21208 3/951 57011 333 00108;
0151556640999992000011521004+28630+087080FM-12+430299999V0202701N009012200019N0300001N1-00441-02081999999ADDGA1001+999999999GF100991001001999999001001MA1999999059511MD1710111+0011REMSYN068    AAXX  15211 55664 42980 02709 11044 21208 35951 57011 333 00108;
0181556640999992000011600004+28630+087080FM-12+430299999V0209999C000012200019N0300001N1-00701-02331999999ADDAA199000091GA1001+999999999GF100991001001999999001001MA1999999059571MD1210061+0011REMSYN068    AAXX  16001 55664 32980 00000 11070 21233 35957 52006 333 00107;EQDQ01  00002PRCP99
0151556640999992000011603004+28630+087080FM-12+430299999V0200201N002012200019N0300001N1-00461-02301999999ADDGA1001+999999999GF100991001001999999001001MA1999999059751MD1210181+0021REMSYN068    AAXX  16031 55664 42980 00202 11046 21230 35975 52018 333 00252;
0200556640999992000011606004+28630+087080FM-12+430299999V0202501N009012200019N0300001N1+00241-01721999999ADDAA199000091GA1001+999999999GF100991001001999999001001KA1999N-01011MA1999999059691MD1710061+0201REMSYN074    AAXX  16061 55664 32980 02509 10024 21172 35969 57006 333 00200 21101;EQDQ01  00002PRCP99
0151556640999992000011609004+28630+087080FM-12+430299999V0202901N012012200019N0300001N1+00241-01781999999ADDGA1001+999999999GF100991001001999999001001MA1999999059551MD1710141+0011REMSYN068    AAXX  16091 55664 42980 02912 10024 21178 35955 57014 333 00102;
0204556640999992000011612004+28630+087080FM-12+430299999V0202701N008012200019N0300001N1-00281-01951999999ADDAA199000091GA1001+999999999GF100991001001999999001001MA1999999059651MD1210101+0201OA130602501REMSYN080    AAXX  16121 55664 32980 02708 11028 21195 35965 52010 333 00201 91125 91525;EQDQ01  00002PRCP99
0141556640999992000011615004+28630+087080FM-12+430299999V0209999C000012200019N0300001N1-00501-02031999999ADDGA1001+999999999GF100991001001999999001001MA1999999059891MD1210241+9999REMSYN058    AAXX  16151 55664 42980 00000 11050 21203 35989 52024;
0200556640999992000011618004+28630+087080FM-12+430299999V0209999C000012200019N0300001N1-00991-02221999999ADDAA199000091GA1001+999999999GF100991001001999999001001KA1999M+00381MA1999999059971MD1210081+0401REMSYN074    AAXX  16181 55664 32980 00000 11099 21222 35997 52008 333 00454 10038;EQDQ01  00002PRCP99
0151556640999992000011621004+28630+087080FM-12+430299999V0209999C000012200019N0300001N1-01421-02511999999ADDGA1001+999999999GF100991001001999999001001MA1999999059971MD1410001+0051REMSYN068    AAXX  16211 55664 42980 00000 11142 21251 35997 54000 333 00560;
0181556640999992000011700004+28630+087080FM-12+430299999V0209999C000012200019N0300001N1-01611-02551999999ADDAA199000091GA1001+999999999GF100991001001999999001001MA1999999060021MD1210051+0051REMSYN068    AAXX  17001 55664 32980 00000 11161 21255 36002 52005 333 00559;EQDQ01  00002PRCP99
0151556640999992000011703004+28630+087080FM-12+430299999V0209999C000012200019N0300001N1-00881-01771999999ADDGA1001+999999999GF100991001001999999001001MA1999999060261MD1210241+0051REMSYN068    AAXX  17031 55664 42980 00000 11088 21177 36026 52024 333 00554;
0190556640999992000011706004+28630+087080FM-12+430299999V0202701N006012200019N0300001N1+00211-01171999999ADDAA199000091GF101991011011022501001001KA1999N-01731MA1999999060221MD1710041+0501REMSYN080    AAXX  17061 55664 32880 12706 10021 21117 36022 57004 81100 333 00500 21173;EQDQ01  00002PRCP99
0141556640999992000011709004+28630+087080FM-12+430299999V0202901N011012200019N0300001N1+00361-01921999999ADDGF101991011011022501001021MA1999999060021MD1710201+0051REMSYN074    AAXX  17091 55664 42880 12911 10036 21192 36002 57020 81102 333 00501;
0171556640999992000011712004+28630+087080FM-12+430299999V0202701N007012200019N0300001N1-00011-01781999999ADDAA199000091GF101991011011022501001001MA1999999059921MD1710101+0031REMSYN074    AAXX  17121 55664 32880 12707 11001 21178 35992 57010 81100 333 00303;EQDQ01  00002PRCP99
0141556640999992000011715004+28630+087080FM-12+430299999V0209999C000012200019N0300001N1-00751-02201999999ADDGA1001+999999999GF100991001001999999001001MA1999999060071MD1210151+9999REMSYN058    AAXX  17151 55664 42980 00000 11075 21220 36007 52015;
0200556640999992000011718004+28630+087080FM-12+430299999V0209999C000012200019N0300001N1-00561-02041999999ADDAA199000091GA1001+999999999GF100991001001999999001001KA1999M+00431MA1999999060301MD1210231+0301REMSYN074    AAXX  17181 55664 32980 00000 11056 21204 36030 52023 333 00304 10043;EQDQ01  00002PRCP99
0151556640999992000011721004+28630+087080FM-12+430299999V0209999C000012200019N0300001N1-01041-02231999999ADDGA1001+999999999GF100991001001999999001001MA1999999060481MD1210181+0051REMSYN068    AAXX  17211 55664 42980 00000 11104 21223 36048 52018 333 00504;
0181556640999992000011800004+28630+087080FM-12+430299999V0209999C000012200019N0300001N1-01301-02351999999ADDAA199000091GA1001+999999999GF100991001001999999001001MA1999999060581MD1210101+0061REMSYN068    AAXX  18001 55664 32980 00000 11130 21235 36058 52010 333 00603;EQDQ01  00002PRCP99
0151556640999992000011803004+28630+087080FM-12+430299999V0209999C000012200019N0300001N1-00841-01871999999ADDGA1001+999999999GF100991001001999999001001MA1999999060761MD1210181+0051REMSYN068    AAXX  18031 55664 42980 00000 11084 21187 36076 52018 333 00500;
0190556640999992000011806004+28630+087080FM-12+430299999V0209999C000019999999N0300001N1+00291-01151999999ADDAA199000091GF106991001001999999001021KA1999N-01421MA1999999060581MD1710181+0401REMSYN080    AAXX  18061 55664 32980 60000 10029 21115 36058 57018 80002 333 00401 21142;EQDQ01  00002PRCP99
0141556640999992000011809004+28630+087080FM-12+430299999V0209999C000012200019N0300001N1+00531-01361999999ADDGF101991011011022501001001MA1999999060271MD1710311+0031REMSYN074    AAXX  18091 55664 42880 10000 10053 21136 36027 57031 81100 333 00302;
0171556640999992000011812004+28630+087080FM-12+430299999V0209999C000012200019N0300001N1+00101-01511999999ADDAA199000091GF102991021041022501001001MA1999999060121MD1710151+0021REMSYN074    AAXX  18121 55664 32880 20000 10010 21151 36012 57015 82400 333 00201;EQDQ01  00002PRCP99
0141556640999992000011815004+28630+087080FM-12+430299999V0200201N003012200019N0300001N1-00491-01881999999ADDGA1001+999999999GF100991001001999999001001MA1999999060241MD1210121+9999REMSYN058    AAXX  18151 55664 42980 00203 11049 21188 36024 52012;
0200556640999992000011818004+28630+087080FM-12+430299999V0209999C000012200019N0300001N1-00841-02271999999ADDAA199000091GA1001+999999999GF100991001001999999001001KA1999M+00611MA1999999060251MD1210011-0101REMSYN074    AAXX  18181 55664 32980 00000 11084 21227 36025 52001 333 05153 10061;EQDQ01  00002PRCP99
0151556640999992000011821004+28630+087080FM-12+430299999V0209999C000012200019N0300001N1-01151-02241999999ADDGA1001+999999999GF100991001001999999001001MA1999999060151MD1710101+0031REMSYN068    AAXX  18211 55664 42980 00000 11115 21224 36015 57010 333 05351;
0181556640999992000011900004+28630+087080FM-12+430299999V0209999C000012200019N0300001N1-01421-02411999999ADDAA199000091GA1001+999999999GF100991001001999999001001MA1999999060021MD1710131+0061REMSYN068    AAXX  19001 55664 32980 00000 11142 21241 36002 57013 333 05651;EQDQ01  00002PRCP99
0151556640999992000011903004+28630+087080FM-12+430299999V0202701N002012200019N0300001N1-00711-01791999999ADDGA1001+999999999GF100991001001999999001001MA1999999060121MD1210101+0061REMSYN068    AAXX  19031 55664 42980 02702 11071 21179 36012 52010 333 05601;
0190556640999992000011906004+28630+087080FM-12+430299999V0202501N008012200019N0300001N1+00561-01001999999ADDAA199000091GF101991011001022501001001KA1999N-01441MA1999999059901MD1710221-0701REMSYN080    AAXX  19061 55664 32880 12508 10056 21100 35990 57022 81000 333 05703 21144;EQDQ01  00002PRCP99
0176556640999992000011909004+28630+087080FM-12+430299999V0202701N013010900019N0300001N1+00681-01071999999ADDGF106991021021022501001021MA1999999059391MD1410001+0091REMSYN074    AAXX  19091 55664 42880 62713 10068 21107 35939 57051 82202 333 05902;EQDQ01+000072APCTENQ02+000512APC3  
0194556640999992000011912004+28630+087080FM-12+430299999V0202701N010012200019N0300001N1+00361-01201999999ADDAA199000091GF101991011041022501001001MA1999999059291MD1710101-0801OA130601901REMSYN086    AAXX  19121 55664 32880 12710 10036 21120 35929 57010 81400 333 05803 91119 91527;EQDQ01  00002PRCP99
0137556640999992000011915004+28630+087080FM-12+430299999V0202701N004012200019N0300001N1+00001-01411999999ADDGA1001+999999999GF100991001001999999001001MA1999999059381MD1210091+9999REMSYN054AAXX  19151 55664 42980 02704 10000 21141 35938 52009;
0186556640999992000011918004+28630+087080FM-12+430299999V0202701N009012200019N0300001N1-00281-01411999999ADDAA199000091GF101991011041022501001001KA1999M+00861MA1999999059281MD1710101-1001REMSYN076AAXX  19181 55664 32880 12709 11028 21141 35928 57010 81400 333 06006 10086;EQDQ01  00002PRCP99
0177556640999992000011921004+28630+087080FM-12+430299999V0202201N003012200019N0300001N1-00681-01671999999ADDAA199000091GA1001+999999999GF100991001001999999001001MA1999999059281MD1210021+0071REMSYN064AAXX  19211 55664 32980 02203 11068 21167 35928 52002 333 05707;EQDQ01  00002PRCP99
0147556640999992000012003004+28630+087080FM-12+430299999V0202701N005012200019N0300001N1-00321-01321999999ADDGA1001+999999999GF100991001001999999001001MA1999999059351MD1210071+0081REMSYN064AAXX  20031 55664 42980 02705 11032 21132 35935 52007 333 05804;
0209556640999992000012006004+28630+087080FM-12+430299999V0202701N011010210019N0300001N1+00191-01201999999ADDAA199000091GF105991051021022501001001KA1240N-00941MA1999999059261MD1710091-0601OA130602201REMSYN088AAXX  20061 55664 32880 52711 10019 21120 35926 57009 85200 333 05654 21094 91122 91527;EQDQ01  00002PRCP99
0157556640999992000012009004+28630+087080FM-12+430299999V0202701N014010900019N0300001N1+00071-01611999999ADDAY131031GF106991021021022501001021MA1999999059201MD1710061+0021MW1001REMSYN076AAXX  20091 55664 41880 62714 10007 21161 35920 57006 70030 82202 333 05256;
0210556640999992000012012004+28630+087080FM-12+430299999V0202501N007010210019N0300001N1-00171-01611999999ADDAA199000091AY131061GF107991071041022501999999MA1999999059171MD1710031-0101MW1001OA130602801REMSYN088AAXX  20121 55664 31880 72507 11017 21161 35917 57003 70030 874// 333 05155 91128 91527;EQDQ01  00002PRCP99
0127556640999992000012015004+28630+087080FM-12+430299999V0202501N005010210019N0300001N1-00381-01631999999ADDGF105991051041022501001001MA1999999059341MD1210171+9999REMSYN060AAXX  20151 55664 42880 52505 11038 21163 35934 52017 85400;
0196556640999992000012018004+28630+087080FM-12+430299999V0203201N004012200019N0300001N1-00781-01861999999ADDAA199000091GA1001+999999999GF100991001001999999001001KA1999M+00261MA1999999059501MD1210161+0201REMSYN070AAXX  20181 55664 32980 03204 11078 21186 35950 52016 333 00255 10026;EQDQ01  00002PRCP99
0147556640999992000012021004+28630+087080FM-12+430299999V0209999C000012200019N0300001N1-01061-01971999999ADDGA1001+999999999GF100991001001999999001001MA1999999059551MD1210051+0031REMSYN064AAXX  20211 55664 42980 00000 11106 21197 35955 52005 333 00356;
0177556640999992000012100004+28630+087080FM-12+430299999V0209999C000012200019N0300001N1-01481-02231999999ADDAA199000091GA1001+999999999GF100991001001999999001001MA1999999059651MD1210101+0041REMSYN064AAXX  21001 55664 32980 00000 11148 21223 35965 52010 333 00458;EQDQ01  00002PRCP99
0147556640999992000012103004+28630+087080FM-12+430299999V0209999C000012200019N0300001N1-00761-01611999999ADDGA1001+999999999GF100991001001999999001001MA1999999059831MD1210181+0051REMSYN064AAXX  21031 55664 42980 00000 11076 21161 35983 52018 333 00554;
0186556640999992000012106004+28630+087080FM-12+430299999V0202701N003012200019N0300001N1-00141-01271999999ADDAA199000091GF101991011011022501001001KA1999N-01581MA1999999059741MD1710091+0501REMSYN076AAXX  21061 55664 32880 12703 11014 21127 35974 57009 81100 333 00553 21158;EQDQ01  00002PRCP99
0137556640999992000012109004+28630+087080FM-12+430299999V0202901N004010210019N0300001N1+00161-01261999999ADDGF106991061021022501001001MA1999999059481MD1710261+0031REMSYN070AAXX  21091 55664 42880 62904 10016 21126 35948 57026 86200 333 00301;
0167556640999992000012112004+28630+087080FM-12+430299999V0202501N008012200019N0300001N1-00311-01651999999ADDAA199000091GF102991021041022501001001MA1999999059501MD1210021+0031REMSYN070AAXX  21121 55664 32880 22508 11031 21165 35950 52002 82400 333 00351;EQDQ01  00002PRCP99
0127556640999992000012115004+28630+087080FM-12+430299999V0202501N003012200019N0300001N1-00671-01711999999ADDGF101991001001999999001021MA1999999059781MD1210281+9999REMSYN060AAXX  21151 55664 42980 12503 11067 21171 35978 52028 80002;
0186556640999992000012118004+28630+087080FM-12+430299999V0202501N004012200019N0300001N1-00881-01821999999ADDAA199000091GF101991001001999999001021KA1999M+00211MA1999999059851MD1210071+0401REMSYN076AAXX  21181 55664 32980 12504 11088 21182 35985 52007 80002 333 00451 10021;EQDQ01  00002PRCP99
0147556640999992000012121004+28630+087080FM-12+430299999V0209999C000012200019N0300001N1-01231-01991999999ADDGA1001+999999999GF100991001001999999001001MA1999999059761MD1710091+0021REMSYN064AAXX  21211 55664 42980 00000 11123 21199 35976 57009 333 00252;
0177556640999992000012200004+28630+087080FM-12+430299999V0209999C000012200019N0300001N1-01471-02131999999ADDAA199000091GA1001+999999999GF100991001001999999001001MA1999999059691MD1710071+0001REMSYN064AAXX  22001 55664 32980 00000 11147 21213 35969 57007 333 00000;EQDQ01  00002PRCP99
0147556640999992000012203004+28630+087080FM-12+430299999V0209999C000012200019N0300001N1-00841-01601999999ADDGA1001+999999999GF100991001001999999001001MA1999999059801MD1210111+0001REMSYN064AAXX  22031 55664 42980 00000 11084 21160 35980 52011 333 00051;
0186556640999992000012206004+28630+087080FM-12+430299999V0202701N002012200019N0300001N1-00121-01231999999ADDAA199000091GF101991011011022501001001KA1999N-01661MA1999999059571MD1710231-0201REMSYN076AAXX  22061 55664 32880 12702 11012 21123 35957 57023 81100 333 05200 21166;EQDQ01  00002PRCP99
0137556640999992000012209004+28630+087080FM-12+430299999V0202501N010010210019N0300001N1+00061-01371999999ADDGF105991051021022501001001MA1999999059321MD1710251+0021REMSYN070AAXX  22091 55664 42880 52510 10006 21137 35932 57025 85200 333 05251;
0173556640999992000012212004+28630+087080FM-12+430299999V0202701N007010900019N0300001N1-00261-01541999999ADDAA199000091GF106991021011022501001021MA1999999059421MD1210101-0101REMSYN076AAXX  22121 55664 32880 62707 11026 21154 35942 52010 82102 333 05101 51525;EQDQ01  00002PRCP99
0127556640999992000012215004+28630+087080FM-12+430299999V0202701N004012200019N0300001N1-00681-01731999999ADDGF101991011041022501001001MA1999999059591MD1210171+9999REMSYN060AAXX  22151 55664 42880 12704 11068 21173 35959 52017 81400;
0196556640999992000012218004+28630+087080FM-12+430299999V0209999C000012200019N0300001N1-00861-01841999999ADDAA199000091GA1001+999999999GF100991001001999999001001KA1999M+00221MA1999999059691MD1210101-0201REMSYN070AAXX  22181 55664 32980 00000 11086 21184 35969 52010 333 05200 10022;EQDQ01  00002PRCP99
0147556640999992000012221004+28630+087080FM-12+430299999V0200201N003012200019N0300001N1-01221-01941999999ADDGA1001+999999999GF100991001001999999001001MA1999999059641MD1710051+0011REMSYN064AAXX  22211 55664 42980 00203 11122 21194 35964 57005 333 05100;
0177556640999992000012300004+28630+087080FM-12+430299999V0209999C000012200019N0300001N1-01371-02021999999ADDAA199000091GA1001+999999999GF100991001001999999001001MA1999999059651MD1210011+0001REMSYN064AAXX  23001 55664 32980 00000 11137 21202 35965 52001 333 00001;EQDQ01  00002PRCP99
0147556640999992000012303004+28630+087080FM-12+430299999V0209999C000012200019N0300001N1-00841-01551999999ADDGA1001+999999999GF100991001001999999001001MA1999999059891MD1210241+0011REMSYN064AAXX  23031 55664 42980 00000 11084 21155 35989 52024 333 00100;
0177556640999992000012312004+28630+087080FM-12+430299999V0202701N007012200019N0300001N1-00201-01931999999ADDAA199000091GA1001+999999999GF100991001001999999001001MA1999999059381MD1710061+0001REMSYN064AAXX  23121 55664 32980 02707 11020 21193 35938 57006 333 00001;EQDQ01  00002PRCP99
0137556640999992000012315004+28630+087080FM-12+430299999V0202701N004012200019N0300001N1-00631-01801999999ADDGA1001+999999999GF100991001001999999001001MA1999999059551MD1210171+9999REMSYN054AAXX  23151 55664 42980 02704 11063 21180 35955 52017;
0196556640999992000012318004+28630+087080FM-12+430299999V0209999C000012200019N0300001N1-01021-01941999999ADDAA199000091GA1001+999999999GF100991001001999999001001KA1999M+00211MA1999999059691MD1210141+0001REMSYN070AAXX  23181 55664 32980 00000 11102 21194 35969 52014 333 00052 10021;EQDQ01  00002PRCP99
0147556640999992000012321004+28630+087080FM-12+430299999V0209999C000012200019N0300001N1-01411-02201999999ADDGA1001+999999999GF100991001001999999001001MA1999999059691MD1410001+0011REMSYN064AAXX  23211 55664 42980 00000 11141 21220 35969 54000 333 00152;
0177556640999992000012400004+28630+087080FM-12+430299999V0209999C000012200019N0300001N1-01651-02321999999ADDAA199000091GA1001+999999999GF100991001001999999001001MA1999999059731MD1210041+0011REMSYN064AAXX  24001 55664 32980 00000 11165 21232 35973 52004 333 00153;EQDQ01  00002PRCP99
0147556640999992000012403004+28630+087080FM-12+430299999V0209999C000012200019N0300001N1-00861-01681999999ADDGA1001+999999999GF100991001001999999001001MA1999999059941MD1210211+0011REMSYN064AAXX  24031 55664 42980 00000 11086 21168 35994 52021 333 00100;
0196556640999992000012406004+28630+087080FM-12+430299999V0201801N003012200019N0300001N1-00031-01431999999ADDAA199000091GA1001+999999999GF100991001001999999001001KA1999N-01741MA1999999059831MD1710111+0101REMSYN070AAXX  24061 55664 32980 01803 11003 21143 35983 57011 333 00103 21174;EQDQ01  00002PRCP99
0147556640999992000012409004+28630+087080FM-12+430299999V0202501N010012200019N0300001N1+00441-01211999999ADDGA1001+999999999GF100991001001999999001001MA1999999059481MD1710351+0001REMSYN064AAXX  24091 55664 42980 02510 10044 21121 35948 57035 333 00004;
0177556640999992000012412004+28630+087080FM-12+430299999V0202501N007012200019N0300001N1-00071-01791999999ADDAA199000091GA1001+999999999GF100991001001999999001001MA1999999059531MD1210051+0021REMSYN064AAXX  24121 55664 32980 02507 11007 21179 35953 52005 333 00201;EQDQ01  00002PRCP99
0137556640999992000012415004+28630+087080FM-12+430299999V0202501N008012200019N0300001N1-00481-02111999999ADDGA1001+999999999GF100991001001999999001001MA1999999059701MD1210171+9999REMSYN054AAXX  24151 55664 42980 02508 11048 21211 35970 52017;
0196556640999992000012418004+28630+087080FM-12+430299999V0209999C000012200019N0300001N1-00671-02081999999ADDAA199000091GA1001+999999999GF100991001001999999001001KA1999M+00511MA1999999059851MD1210151+0201REMSYN070AAXX  24181 55664 32980 00000 11067 21208 35985 52015 333 00204 10051;EQDQ01  00002PRCP99
0151556640999992000012421004+28630+087080FM-12+430299999V0200901N005012200019N0300001N1-00821-01741999999ADDGA1001+999999999GF100991001001999999001001MD1210101+0011REMSYN064AAXX  24211 55664 42980 00905 11082 21174 36205 52010 333 00151;EQDQ01+062053APOSP 
0177556640999992000012500004+28630+087080FM-12+430299999V0209999C000012200019N0300001N1-01601-02601999999ADDAA199000091GA1001+999999999GF100991001001999999001001MA1999999059951MD1210061+0021REMSYN064AAXX  25001 55664 32980 00000 11160 21260 35995 52006 333 00201;EQDQ01  00002PRCP99
0147556640999992000012503004+28630+087080FM-12+430299999V0209999C000012200019N0300001N1-00981-01941999999ADDGA1001+999999999GF100991001001999999001001MA1999999060201MD1210251+0031REMSYN064AAXX  25031 55664 42980 00000 11098 21194 36020 52025 333 00351;
0196556640999992000012506004+28630+087080FM-12+430299999V0202201N003012200019N0300001N1-00021-01521999999ADDAA199000091GA1001+999999999GF100991001001999999001001KA1999N-01701MA1999999060111MD1710091+0301REMSYN070AAXX  25061 55664 32980 02203 11002 21152 36011 57009 333 00300 21170;EQDQ01  00002PRCP99
0147556640999992000012509004+28630+087080FM-12+430299999V0202201N007012200019N0300001N1+00381-01411999999ADDGA1001+999999999GF100991001001999999001001MA1999999059881MD1710231+0041REMSYN064AAXX  25091 55664 42980 02207 10038 21141 35988 57023 333 00451;
0177556640999992000012512004+28630+087080FM-12+430299999V0202501N006012200019N0300001N1-00021-01561999999ADDAA199000091GA1001+999999999GF100991001001999999001001MA1999999059881MD1410001+0041REMSYN064AAXX  25121 55664 32980 02506 11002 21156 35988 54000 333 00401;EQDQ01  00002PRCP99
0137556640999992000012515004+28630+087080FM-12+430299999V0202701N003012200019N0300001N1-00371-01681999999ADDGA1001+999999999GF100991001001999999001001MA1999999060051MD1210171+9999REMSYN054AAXX  25151 55664 42980 02703 11037 21168 36005 52017;
0196556640999992000012518004+28630+087080FM-12+430299999V0209999C000012200019N0300001N1-01041-02201999999ADDAA199000091GA1001+999999999GF100991001001999999001001KA1999M+00431MA1999999060051MD1410001+0201REMSYN070AAXX  25181 55664 32980 00000 11104 21220 36005 54000 333 00254 10043;EQDQ01  00002PRCP99
0147556640999992000012521004+28630+087080FM-12+430299999V0209999C000012200019N0300001N1-01311-02311999999ADDGA1001+999999999GF100991001001999999001001MA1999999060041MD1710011+0021REMSYN064AAXX  25211 55664 42980 00000 11131 21231 36004 57001 333 00251;
0177556640999992000012600004+28630+087080FM-12+430299999V0209999C000012200019N0300001N1-01591-02461999999ADDAA199000091GA1001+999999999GF100991001001999999001001MA1999999060101MD1210061+0021REMSYN064AAXX  26001 55664 32980 00000 11159 21246 36010 52006 333 00200;EQDQ01  00002PRCP99
0147556640999992000012603004+28630+087080FM-12+430299999V0209999C000012200019N0300001N1-00801-01741999999ADDGA1001+999999999GF100991001001999999001001MA1999999060251MD1210151+0011REMSYN064AAXX  26031 55664 42980 00000 11080 21174 36025 52015 333 00102;
0196556640999992000012606004+28630+087080FM-12+430299999V0209999C000012200019N0300001N1-00141-01571999999ADDAA199000091GA1001+999999999GF100991001001999999001001KA1999N-01701MA1999999060091MD1710161+0001REMSYN070AAXX  26061 55664 32980 00000 11014 21157 36009 57016 333 00051 21170;EQDQ01  00002PRCP99
0147556640999992000012609004+28630+087080FM-12+430299999V0202701N003012200019N0300001N1+00381-01361999999ADDGA1001+999999999GF100991001001999999001001MA1999999059761MD1710331+0011REMSYN064AAXX  26091 55664 42980 02703 10038 21136 35976 57033 333 05100;
0177556640999992000012612004+28630+087080FM-12+430299999V0202701N010012200019N0300001N1+00071-01521999999ADDAA199000091GA1001+999999999GF100991001001999999001001MA1999999059751MD1710011+0011REMSYN064AAXX  26121 55664 32980 02710 10007 21152 35975 57001 333 05101;EQDQ01  00002PRCP99
0137556640999992000012615004+28630+087080FM-12+430299999V0202901N005012200019N0300001N1-00321-01571999999ADDGA1001+999999999GF100991001001999999001001MA1999999059911MD1210161+9999REMSYN054AAXX  26151 55664 42980 02905 11032 21157 35991 52016;
0196556640999992000012618004+28630+087080FM-12+430299999V0209999C000012200019N0300001N1-00841-01861999999ADDAA199000091GA1001+999999999GF100991001001999999001001KA1999M+00481MA1999999059911MD1410001-0101REMSYN070AAXX  26181 55664 32980 00000 11084 21186 35991 54000 333 05102 10048;EQDQ01  00002PRCP99
0147556640999992000012621004+28630+087080FM-12+430299999V0209999C000012200019N0300001N1-01071-02071999999ADDGA1001+999999999GF100991001001999999001001MA1999999059871MD1710201+0021REMSYN064AAXX  26211 55664 42980 00000 11107 21207 35987 57020 333 05200;
0177556640999992000012700004+28630+087080FM-12+430299999V0209999C000012200019N0300001N1-01511-02191999999ADDAA199000091GA1001+999999999GF100991001001999999001001MA1999999059911MD1210041+0021REMSYN064AAXX  27001 55664 32980 00000 11151 21219 35991 52004 333 05201;EQDQ01  00002PRCP99
0147556640999992000012703004+28630+087080FM-12+430299999V0209999C000012200019N0300001N1-00841-01651999999ADDGA1001+999999999GF100991001001999999001001MA1999999059991MD1210081+0031REMSYN064AAXX  27031 55664 42980 00000 11084 21165 35999 52008 333 05300;
0196556640999992000012706004+28630+087080FM-12+430299999V0209999C000012200019N0300001N1-00091-01271999999ADDAA199000091GA1001+999999999GF100991001001999999001001KA1999N-01591MA1999999059821MD1710121-0301REMSYN070AAXX  27061 55664 32980 00000 11009 21127 35982 57012 333 05301 21159;EQDQ01  00002PRCP99
0147556640999992000012709004+28630+087080FM-12+430299999V0202501N014012200019N0300001N1+00291-01421999999ADDGA1001+999999999GF100991001001999999001001MA1999999059601MD1710221+0021REMSYN064AAXX  27091 55664 42980 02514 10029 21142 35960 57022 333 05251;
0200556640999992000012712004+28630+087080FM-12+430299999V0202701N006012200019N0300001N1-00321-01791999999ADDAA199000091GA1001+999999999GF100991001001999999001001MA1999999059731MD1210131+0001OA130602201REMSYN076AAXX  27121 55664 32980 02706 11032 21179 35973 52013 333 00054 91122 91525;EQDQ01  00002PRCP99
0137556640999992000012715004+28630+087080FM-12+430299999V0202701N006012200019N0300001N1-00601-02061999999ADDGA1001+999999999GF100991001001999999001001MA1999999059841MD1210111+9999REMSYN054AAXX  27151 55664 42980 02706 11060 21206 35984 52011;
0196556640999992000012718004+28630+087080FM-12+430299999V0209999C000012200019N0300001N1-01021-02381999999ADDAA199000091GA1001+999999999GF100991001001999999001001KA1999M+00431MA1999999059811MD1710031-0101REMSYN070AAXX  27181 55664 32980 00000 11102 21238 35981 57003 333 05152 10043;EQDQ01  00002PRCP99
0147556640999992000012721004+28630+087080FM-12+430299999V0209999C000012200019N0300001N1-01461-02641999999ADDGA1001+999999999GF100991001001999999001001MA1999999059731MD1710081+0011REMSYN064AAXX  27211 55664 42980 00000 11146 21264 35973 57008 333 05152;
0177556640999992000012800004+28630+087080FM-12+430299999V0209999C000012200019N0300001N1-01791-02851999999ADDAA199000091GA1001+999999999GF100991001001999999001001MA1999999059721MD1710011+0021REMSYN064AAXX  28001 55664 32980 00000 11179 21285 35972 57001 333 05253;EQDQ01  00002PRCP99
0147556640999992000012803004+28630+087080FM-12+430299999V0209999C000012200019N0300001N1-00981-01991999999ADDGA1001+999999999GF100991001001999999001001MA1999999059801MD1210081+0021REMSYN064AAXX  28031 55664 42980 00000 11098 21199 35980 52008 333 05251;
0196556640999992000012806004+28630+087080FM-12+430299999V0202701N003012200019N0300001N1-00331-01591999999ADDAA199000091GA1001+999999999GF100991001001999999001001KA1999N-01941MA1999999059731MD1710071-0101REMSYN070AAXX  28061 55664 32980 02703 11033 21159 35973 57007 333 05152 21194;EQDQ01  00002PRCP99
0137556640999992000012809004+28630+087080FM-12+430299999V0202701N006012200019N0300001N1-00061-01651999999ADDGF101991011011022501001001MA1999999059421MD1710311+0021REMSYN070AAXX  28091 55664 42880 12706 11006 21165 35942 57031 81100 333 05254;
0137556640999992000012815004+28630+087080FM-12+430299999V0202501N005012200019N0300001N1-00841-02111999999ADDGA1001+999999999GF100991001001999999001001MA1999999059671MD1210201+9999REMSYN054AAXX  28151 55664 42980 02505 11084 21211 35967 52020;
0196556640999992000012818004+28630+087080FM-12+430299999V0209999C000012200019N0300001N1-01221-02281999999ADDAA199000091GA1001+999999999GF100991001001999999001001KA1999M+00061MA1999999059661MD1710011-0201REMSYN070AAXX  28181 55664 32980 00000 11122 21228 35966 57001 333 05252 10006;EQDQ01  00002PRCP99
0147556640999992000012821004+28630+087080FM-12+430299999V0209999C000012200019N0300001N1-01411-02351999999ADDGA1001+999999999GF100991001001999999001001MA1999999059601MD1710061+0011REMSYN064AAXX  28211 55664 42980 00000 11141 21235 35960 57006 333 05101;
0137556640999992000012900004+28630+087080FM-12+430299999V0209999C000010210019N0300001N1-01081-01921999999ADDGF106991061051022501001001MA1999999059921MD1210281+0011REMSYN070AAXX  29001 55664 42880 60000 11108 21192 35992 52028 86500 333 00151;
0186556640999992000012906004+28630+087080FM-12+430299999V0202701N005010210019N0300001N1-00681-01911999999ADDAA199000091GF107991071021022501999999KA1999N-01681MA1999999059871MD1710051+0101REMSYN076AAXX  29061 55664 32880 72705 11068 21191 35987 57005 872// 333 00154 21168;EQDQ01  00002PRCP99
0137556640999992000012909004+28630+087080FM-12+430299999V0202901N008010210019N0300001N1-00511-01981999999ADDGF107991071021022501001001MA1999999059811MD1710061+0041REMSYN070AAXX  29091 55664 42880 72908 11051 21198 35981 57006 87200 333 00455;
0167556640999992000012912004+28630+087080FM-12+430299999V0203601N006010210019N0300001N1-00631-02291999999ADDAA199000091GF107991071041022501999999MA1999999059911MD1210101+0041REMSYN070AAXX  29121 55664 32880 73606 11063 21229 35991 52010 874// 333 00452;EQDQ01  00002PRCP99
0137556640999992000012915004+28630+087080FM-12+430299999V0202901N003012200019N0300001N1-00871-02511999999ADDGA1001+999999999GF100991001001999999001001MA1999999060141MD1210231+9999REMSYN054AAXX  29151 55664 42980 02903 11087 21251 36014 52023;
0196556640999992000012918004+28630+087080FM-12+430299999V0202901N003012200019N0300001N1-01151-02561999999ADDAA199000091GA1001+999999999GF100991001001999999001001KA1999M-00461MA1999999060141MD1410001+0501REMSYN070AAXX  29181 55664 32980 02903 11115 21256 36014 54000 333 00501 11046;EQDQ01  00002PRCP99
0177556640999992000012921004+28630+087080FM-12+430299999V0209999C000012200019N0300001N1-01951-03051999999ADDAA199000091GA1001+999999999GF100991001001999999001001MA1999999060221MD1210071+0061REMSYN064AAXX  29211 55664 32980 00000 11195 21305 36022 52007 333 00654;EQDQ01  00002PRCP99
0147556640999992000013003004+28630+087080FM-12+430299999V0209999C000012200019N0300001N1-01211-02321999999ADDGA1001+999999999GF100991001001999999001001MA1999999060381MD1210161+0051REMSYN064AAXX  30031 55664 42980 00000 11121 21232 36038 52016 333 00551;
0186556640999992000013006004+28630+087080FM-12+430299999V0203601N006012200019N0300001N1-00321-01871999999ADDAA199000091GF102991021011022501001001KA1999N-02031MA1999999060291MD1710091+0401REMSYN076AAXX  30061 55664 32880 23606 11032 21187 36029 57009 82100 333 00404 21203;EQDQ01  00002PRCP99
0137556640999992000013009004+28630+087080FM-12+430299999V0203201N004010900019N0300001N1-00241-02231999999ADDGF106991021011022501001091MA1999999060091MD1710201+0031REMSYN070AAXX  30091 55664 42880 63204 11024 21223 36009 57020 82109 333 00303;
0167556640999992000013012004+28630+087080FM-12+430299999V0209999C000012200019N0300001N1-00281-01771999999ADDAA199000091GF103991031041022501001001MA1999999060071MD1710021+0021REMSYN070AAXX  30121 55664 32880 30000 11028 21177 36007 57002 83400 333 00204;EQDQ01  00002PRCP99
0137556640999992000013015004+28630+087080FM-12+430299999V0209999C000012200019N0300001N1-00991-02381999999ADDGA1001+999999999GF100991001001999999001001MA1999999060231MD1210161+9999REMSYN054AAXX  30151 55664 42980 00000 11099 21238 36023 52016;
0196556640999992000013018004+28630+087080FM-12+430299999V0209999C000012200019N0300001N1-01511-02881999999ADDAA199000091GA1001+999999999GF100991001001999999001001KA1999M-00081MA1999999060251MD1210021+0101REMSYN070AAXX  30181 55664 32980 00000 11151 21288 36025 52002 333 00154 11008;EQDQ01  00002PRCP99
0147556640999992000013021004+28630+087080FM-12+430299999V0209999C000012200019N0300001N1-01771-02951999999ADDGA1001+999999999GF100991001001999999001001MA1999999060211MD1710041+0011REMSYN064AAXX  30211 55664 42980 00000 11177 21295 36021 57004 333 00100;
0177556640999992000013100004+28630+087080FM-12+430299999V0209999C000012200019N0300001N1-01871-02951999999ADDAA199000091GA1001+999999999GF100991001001999999001001MA1999999060131MD1710081+0011REMSYN064AAXX  31001 55664 32980 00000 11187 21295 36013 57008 333 05101;EQDQ01  00002PRCP99
0147556640999992000013103004+28630+087080FM-12+430299999V0209999C000012200019N0300001N1-01071-02201999999ADDGA1001+999999999GF100991001001999999001001MA1999999060231MD1210101+0021REMSYN064AAXX  31031 55664 42980 00000 11107 21220 36023 52010 333 05201;
0196556640999992000013106004+28630+087080FM-12+430299999V0209999C000012200019N0300001N1-00121-01521999999ADDAA199000091GA1001+999999999GF100991001001999999001001KA1999N-02011MA1999999060021MD1710211-0301REMSYN070AAXX  31061 55664 32980 00000 11012 21152 36002 57021 333 05302 21201;EQDQ01  00002PRCP99
0172556640999992000013109004+28630+087080FM-12+430299999V0202701N007010210019N0300001N1+00531-01341999999ADDGF106991061041022501001001MA1999999059511MD1410001+0061REMSYN070AAXX  31091 55664 42880 62707 10053 21134 35951 57051 86400 333 05608;EQDQ01+000072APCTENQ02+000512APC3  
0167556640999992000013112004+28630+087080FM-12+430299999V0202501N014012200019N0300001N1+00041-01641999999ADDAA199000091GF102991021041022501001001MA1999999059511MD1410001+0061REMSYN070AAXX  31121 55664 32880 22514 10004 21164 35951 54000 82400 333 05603;EQDQ01  00002PRCP99
0127556640999992000013115004+28630+087080FM-12+430299999V0202501N008012200019N0300001N1-00401-01731999999ADDGF101991001001999999001021MA1999999059701MD1210191+9999REMSYN060AAXX  31151 55664 42980 12508 11040 21173 35970 52019 80002;
0186556640999992000013118004+28630+087080FM-12+430299999V0209999C000010210019N0300001N1-00311-01741999999ADDAA199000091GF106991061041022501001001KA1999M+00581MA1999999059681MD1710021-0601REMSYN076AAXX  31181 55664 32880 60000 11031 21174 35968 57002 86400 333 05612 10058;EQDQ01  00002PRCP99
0137556640999992000013121004+28630+087080FM-12+430299999V0202501N005019999999N0300001N1-00611-02011999999ADDGF107991001001999999001021MA1999999059611MD1710071+0061REMSYN070AAXX  31211 55664 42980 72505 11061 21201 35961 57007 80002 333 05612;
0167556640999992000020100004+28630+087080FM-12+430299999V0202901N004019999999N0300001N1-00561-02031999999ADDAA199000091GF107991001001999999001021MA1999999059621MD1210011+0051REMSYN070AAXX  01001 55664 32980 72904 11056 21203 35962 52001 80002 333 05513;EQDQ01  00002PRCP99
0137556640999992000020103004+28630+087080FM-12+430299999V0209999C000010210019N0300001N1-00481-01971999999ADDGF106991061011022501001001MA1999999059711MD1210091+0051REMSYN070AAXX  01031 55664 42880 60000 11048 21197 35971 52009 86100 333 05506;
0186556640999992000020106004+28630+087080FM-12+430299999V0202501N009010210019N0300001N1-00051-01471999999ADDAA199000091GF107991071021022501999999KA1999N-00761MA1999999059601MD1710111-0401REMSYN076AAXX  01061 55664 32880 72509 11005 21147 35960 57011 872// 333 05401 21076;EQDQ01  00002PRCP99
0137556640999992000020109004+28630+087080FM-12+430299999V0202701N007010210019N0300001N1-00301-01381999999ADDGF107991071021022501999999MA1999999059511MD1710091+0001REMSYN070AAXX  01091 55664 42880 72707 11030 21138 35951 57009 872// 333 00058;
0190556640999992000020112004+28630+087080FM-12+430299999V0202201N003010150019N0300001N1-00511-01521999999ADDAA199000091GF107991071091017501999999MA1999999059531MD1210021+0001OA130601901REMSYN082AAXX  01121 55664 32780 72203 11051 21152 35953 52002 879// 333 00056 91119 91527;EQDQ01  00002PRCP99
0127556640999992000020115004+28630+087080FM-12+430299999V0202701N006010210019N0300001N1-00621-01391999999ADDGF107991071091022501999999MA1999999059571MD1210041+9999REMSYN060AAXX  01151 55664 42880 72706 11062 21139 35957 52004 879//;
0186556640999992000020118004+28630+087080FM-12+430299999V0202701N007010210019N0300001N1-00681-01441999999ADDAA199000091GF107991061091022501001021KA1999M+00041MA1999999059601MD1210031-0101REMSYN076AAXX  01181 55664 32880 72707 11068 21144 35960 52003 86902 333 05153 10004;EQDQ01  00002PRCP99
0137556640999992000020121004+28630+087080FM-12+430299999V0209999C000012200019N0300001N1-00881-01471999999ADDGF102991021041022501001001MA1999999059621MD1210021+0001REMSYN070AAXX  01211 55664 42880 20000 11088 21147 35962 52002 82400 333 00053;
0167556640999992000020200004+28630+087080FM-12+430299999V0202701N004012200019N0300001N1-00881-01611999999ADDAA199000091GF102991021041022501001001MA1999999059631MD1210011+0001REMSYN070AAXX  02001 55664 32880 22704 11088 21161 35963 52001 82400 333 00053;EQDQ01  00002PRCP99
0137556640999992000020203004+28630+087080FM-12+430299999V0209999C000010210019N0300001N1-00921-01621999999ADDGF107991071051022501999999MA1999999059681MD1210051+0001REMSYN070AAXX  02031 55664 42880 70000 11092 21162 35968 52005 875// 333 00054;
0173556640999992000020206004+28630+087080FM-12+430299999V0202501N008010210019N0300001N1-00291-01231999999ADDAA199000091GF107991061021022501001021MA1999999059561MD1710121+0001REMSYN076AAXX  02061 55664 32880 72508 11029 21123 35956 57012 86202 333 00052 00052;EQDQ01  00002PRCP99
0137556640999992000020209004+28630+087080FM-12+430299999V0202701N013010210019N0300001N1-00191-01501999999ADDGF107991071021022501999999MA1999999059421MD1710141+0011REMSYN070AAXX  02091 55664 42880 72713 11019 21150 35942 57014 872// 333 05101;
0190556640999992000020212004+28630+087080FM-12+430299999V0202701N007010210019N0300001N1-00421-01611999999ADDAA199000091GF107991071091022501999999MA1999999059491MD1210071+0001OA130602601REMSYN082AAXX  02121 55664 32880 72707 11042 21161 35949 52007 879// 333 00001 91126 91529;EQDQ01  00002PRCP99
0127556640999992000020215004+28630+087080FM-12+430299999V0202701N003010210019N0300001N1-00581-01601999999ADDGF107991071091022501999999MA1999999059701MD1210211+9999REMSYN060AAXX  02151 55664 42880 72703 11058 21160 35970 52021 879//;
0186556640999992000020218004+28630+087080FM-12+430299999V0209999C000012200019N0300001N1-00681-01581999999ADDAA199000091GF103991001001999999001021KA1999M+00031MA1999999059731MD1210031+0101REMSYN076AAXX  02181 55664 32980 30000 11068 21158 35973 52003 80002 333 00100 10003;EQDQ01  00002PRCP99
0137556640999992000020221004+28630+087080FM-12+430299999V0202501N006012200019N0300001N1-00701-01561999999ADDGF103991031041022501001001MA1999999059771MD1210041+0021REMSYN070AAXX  02211 55664 42880 32506 11070 21156 35977 52004 83400 333 00202;
0167556640999992000020300004+28630+087080FM-12+430299999V0209999C000012200019N0300001N1-00821-01561999999ADDAA199000091GF101991011041022501001001MA1999999059821MD1210051+0021REMSYN070AAXX  03001 55664 32880 10000 11082 21156 35982 52005 81400 333 00201;EQDQ01  00002PRCP99
0137556640999992000020303004+28630+087080FM-12+430299999V0202701N002012200019N0300001N1-00501-01291999999ADDGF101991011011022501001001MA1999999059931MD1210111+0031REMSYN070AAXX  03031 55664 42880 12702 11050 21129 35993 52011 81100 333 00304;
0186556640999992000020306004+28630+087080FM-12+430299999V0202701N004012200019N0300001N1+00011-01131999999ADDAA199000091GF101991011011022501001001KA1999N-01011MA1999999059871MD1710061+0301REMSYN076AAXX  03061 55664 32880 12704 10001 21113 35987 57006 81100 333 00303 21101;EQDQ01  00002PRCP99
0137556640999992000020309004+28630+087080FM-12+430299999V0202701N010012200019N0300001N1+00211-01001999999ADDGF102991021021022501001001MA1999999059631MD1710241+0021REMSYN070AAXX  03091 55664 42880 22710 10021 21100 35963 57024 82200 333 00204;
0190556640999992000020312004+28630+087080FM-12+430299999V0202501N009012200019N0300001N1+00071-01141999999ADDAA199000091GF104991041041022501001001MA1999999059661MD1210031+0201OA130601901REMSYN082AAXX  03121 55664 32880 42509 10007 21114 35966 52003 84400 333 00205 91119 91527;EQDQ01  00002PRCP99
0137556640999992000020315004+28630+087080FM-12+430299999V0202501N004012200019N0300001N1-00441-01551999999ADDGA1001+999999999GF100991001001999999001001MA1999999059811MD1210151+9999REMSYN054AAXX  03151 55664 42980 02504 11044 21155 35981 52015;
0196556640999992000020318004+28630+087080FM-12+430299999V0209999C000012200019N0300001N1-00861-01781999999ADDAA199000091GA1001+999999999GF100991001001999999001001KA1999M+00331MA1999999059841MD1210031+0101REMSYN070AAXX  03181 55664 32980 00000 11086 21178 35984 52003 333 00152 10033;EQDQ01  00002PRCP99
0147556640999992000020321004+28630+087080FM-12+430299999V0209999C000012200019N0300001N1-01201-02051999999ADDGA1001+999999999GF100991001001999999001001MA1999999059831MD1710011+0011REMSYN064AAXX  03211 55664 42980 00000 11120 21205 35983 57001 333 00155;
0177556640999992000020400004+28630+087080FM-12+430299999V0209999C000012200019N0300001N1-01421-02131999999ADDAA199000091GA1001+999999999GF100991001001999999001001MA1999999059791MD1710041+0001REMSYN064AAXX  04001 55664 32980 00000 11142 21213 35979 57004 333 00056;EQDQ01  00002PRCP99
0137556640999992000020403004+28630+087080FM-12+430299999V0209999C000010360019N0300001N1-00571-01441999999ADDGF106991011011022501061001MA1999999059921MD1210131+0001REMSYN070AAXX  04031 55664 42880 60000 11057 21144 35992 52013 81160 333 00051;
0186556640999992000020406004+28630+087080FM-12+430299999V0202701N004010360019N0300001N1+00141-01131999999ADDAA199000091GF106991011011022501061001KA1999N-01461MA1999999059751MD1710171-0101REMSYN076AAXX  04061 55664 32880 62704 10014 21113 35975 57017 81160 333 05101 21146;EQDQ01  00002PRCP99
0157556640999992000020409004+28630+087080FM-12+430299999V0202701N013010210019N0300001N1+00221-01061999999ADDAY131031GF106991061041022501001001MA1999999059491MD1710261+0011MW1001REMSYN076AAXX  04091 55664 41880 62713 10022 21106 35949 57026 70030 86400 333 05100;
0210556640999992000020412004+28630+087080FM-12+430299999V0202701N010012200019N0300001N1-00161-01351999999ADDAA199000091AY131061GF102991021041022501001001MA1999999059561MD1210071-0101MW1001OA130602901REMSYN088AAXX  04121 55664 31880 22710 11016 21135 35956 52007 70030 82400 333 05152 91129 91525;EQDQ01  00002PRCP99
0137556640999992000020415004+28630+087080FM-12+430299999V0202501N007012200019N0300001N1-00541-01581999999ADDGA1001+999999999GF100991001001999999001001MA1999999059781MD1210221+9999REMSYN054AAXX  04151 55664 42980 02507 11054 21158 35978 52022;
0196556640999992000020418004+28630+087080FM-12+430299999V0209999C000012200019N0300001N1-00641-01561999999ADDAA199000091GA1001+999999999GF100991001001999999001001KA1999M+00491MA1999999059841MD1210061+0001REMSYN070AAXX  04181 55664 32980 00000 11064 21156 35984 52006 333 00002 10049;EQDQ01  00002PRCP99
0147556640999992000020421004+28630+087080FM-12+430299999V0209999C000012200019N0300001N1-00871-01691999999ADDGA1001+999999999GF100991001001999999001001MA1999999059801MD1710041+0001REMSYN064AAXX  04211 55664 42980 00000 11087 21169 35980 57004 333 00003;
0177556640999992000020500004+28630+087080FM-12+430299999V0209999C000012200019N0300001N1-01421-02111999999ADDAA199000091GA1001+999999999GF100991001001999999001001MA1999999059851MD1210051+0011REMSYN064AAXX  05001 55664 32980 00000 11142 21211 35985 52005 333 00100;EQDQ01  00002PRCP99
0147556640999992000020503004+28630+087080FM-12+430299999V0209999C000012200019N0300001N1-00841-01651999999ADDGA1001+999999999GF100991001001999999001001MA1999999059911MD1210061+0001REMSYN064AAXX  05031 55664 42980 00000 11084 21165 35991 52006 333 00053;
0186556640999992000020506004+28630+087080FM-12+430299999V0201401N003012200019N0300001N1-00161-01141999999ADDAA199000091GF102991021021022501001001KA1999N-01571MA1999999059771MD1710141+0001REMSYN076AAXX  05061 55664 32880 21403 11016 21114 35977 57014 82200 333 00053 21157;EQDQ01  00002PRCP99
0137556640999992000020509004+28630+087080FM-12+430299999V0202701N006010210019N0300001N1+00091-01021999999ADDGF106991061041022501001001MA1999999059531MD1710241+0001REMSYN070AAXX  05091 55664 42880 62706 10009 21102 35953 57024 86400 333 00051;
0167556640999992000020512004+28630+087080FM-12+430299999V0202701N006010210019N0300001N1-00301-01431999999ADDAA199000091GF105991051041022501001001MA1999999059611MD1210081+0011REMSYN070AAXX  05121 55664 32880 52706 11030 21143 35961 52008 85400 333 00151;EQDQ01  00002PRCP99
0196556640999992000020518004+28630+087080FM-12+430299999V0209999C000012200019N0300001N1-00971-01751999999ADDAA199000091GA1001+999999999GF100991001001999999001001KA1999M+00221MA1999999059741MD1710021-0101REMSYN070AAXX  05181 55664 32980 00000 11097 21175 35974 57002 333 05153 10022;EQDQ01  00002PRCP99
0137556640999992000020521004+28630+087080FM-12+430299999V0209999C000012200019N0300001N1-01191-01851999999ADDGF101991001001999999001021MA1999999059761MD1210021+0001REMSYN070AAXX  05211 55664 42980 10000 11119 21185 35976 52002 80002 333 00053;
0167556640999992000020600004+28630+087080FM-12+430299999V0209999C000012200019N0300001N1-01341-01891999999ADDAA199000091GF101991001001999999001021MA1999999059771MD1210011+0011REMSYN070AAXX  06001 55664 32980 10000 11134 21189 35977 52001 80002 333 05101;EQDQ01  00002PRCP99
0137556640999992000020603004+28630+087080FM-12+430299999V0209999C000012200019N0300001N1-00861-01491999999ADDGF101991011011022501001001MA1999999059961MD1210191+0011REMSYN070AAXX  06031 55664 42880 10000 11086 21149 35996 52019 81100 333 00100;
0186556640999992000020606004+28630+087080FM-12+430299999V0209999C000012200019N0300001N1-00141-01111999999ADDAA199000091GF102991021011022501001001KA1999N-01421MA1999999059821MD1710141+0101REMSYN076AAXX  06061 55664 32880 20000 11014 21111 35982 57014 82100 333 00100 21142;EQDQ01  00002PRCP99
0137556640999992000020609004+28630+087080FM-12+430299999V0202701N007010210019N0300001N1+00101-01081999999ADDGF106991061041022501001001MA1999999059521MD1710301+0001REMSYN070AAXX  06091 55664 42880 62707 10010 21108 35952 57030 86400 333 00000;
0167556640999992000020612004+28630+087080FM-12+430299999V0202001N004012200019N0300001N1-00321-01371999999ADDAA199000091GF103991031041022501001001MA1999999059521MD1410001+0011REMSYN070AAXX  06121 55664 32880 32004 11032 21137 35952 54000 83400 333 05100;EQDQ01  00002PRCP99
0137556640999992000020615004+28630+087080FM-12+430299999V0202701N003012200019N0300001N1-00781-01501999999ADDGA1001+999999999GF100991001001999999001001MA1999999059641MD1210121+9999REMSYN054AAXX  06151 55664 42980 02703 11078 21150 35964 52012;
0186556640999992000020618004+28630+087080FM-12+430299999V0209999C000012200019N0300001N1-01041-01691999999ADDAA199000091GF101991011041022501001001KA1999M+00231MA1999999059681MD1210041-0101REMSYN076AAXX  06181 55664 32880 10000 11104 21169 35968 52004 81400 333 05151 10023;EQDQ01  00002PRCP99
0177556640999992000020621004+28630+087080FM-12+430299999V0209999C000012200019N0300001N1-01511-02171999999ADDAA199000091GA1001+999999999GF100991001001999999001001MA1999999059651MD1710041+0011REMSYN064AAXX  06211 55664 32980 00000 11151 21217 35965 57004 333 05152;EQDQ01  00002PRCP99
0147556640999992000020703004+28630+087080FM-12+430299999V0209999C000012200019N0300001N1-00971-01601999999ADDGA1001+999999999GF100991001001999999001001MA1999999059821MD1210171+0011REMSYN064AAXX  07031 55664 42980 00000 11097 21160 35982 52017 333 05151;
0196556640999992000020706004+28630+087080FM-12+430299999V0209999C000012200019N0300001N1-00361-01361999999ADDAA199000091GA1001+999999999GF100991001001999999001001KA1999N-01631MA1999999059731MD1710091-0101REMSYN070AAXX  07061 55664 32980 00000 11036 21136 35973 57009 333 05152 21163;EQDQ01  00002PRCP99
0147556640999992000020709004+28630+087080FM-12+430299999V0202501N008012200019N0300001N1-00021-01451999999ADDGA1001+999999999GF100991001001999999001001MA1999999059501MD1710231+0001REMSYN064AAXX  07091 55664 42980 02508 11002 21145 35950 57023 333 00051;
0177556640999992000020712004+28630+087080FM-12+430299999V0202201N006012200019N0300001N1-00341-01771999999ADDAA199000091GA1001+999999999GF100991001001999999001001MA1999999059501MD1410001+0001REMSYN064AAXX  07121 55664 32980 02206 11034 21177 35950 54000 333 00000;EQDQ01  00002PRCP99
0137556640999992000020715004+28630+087080FM-12+430299999V0209999C000012200019N0300001N1-00821-02001999999ADDGA1001+999999999GF100991001001999999001001MA1999999059701MD1210201+9999REMSYN054AAXX  07151 55664 42980 00000 11082 21200 35970 52020;
0196556640999992000020718004+28630+087080FM-12+430299999V0209999C000012200019N0300001N1-01281-02361999999ADDAA199000091GA1001+999999999GF100991001001999999001001KA1999M+00061MA1999999059781MD1210081+0101REMSYN070AAXX  07181 55664 32980 00000 11128 21236 35978 52008 333 00152 10006;EQDQ01  00002PRCP99
0147556640999992000020721004+28630+087080FM-12+430299999V0209999C000012200019N0300001N1-01511-02441999999ADDGA1001+999999999GF100991001001999999001001MA1999999059671MD1999999+0001REMSYN064AAXX  07211 55664 42980 00000 11151 21244 35967 5/011 333 00053;
0177556640999992000020800004+28630+087080FM-12+430299999V0209999C000012200019N0300001N1-01791-02601999999ADDAA199000091GA1001+999999999GF100991001001999999001001MA1999999059671MD1410001+0001REMSYN064AAXX  08001 55664 32980 00000 11179 21260 35967 54000 333 00053;EQDQ01  00002PRCP99
0147556640999992000020803004+28630+087080FM-12+430299999V0209999C000012200019N0300001N1-01031-01901999999ADDGA1001+999999999GF100991001001999999001001MA1999999059831MD1210161+0001REMSYN064AAXX  08031 55664 42980 00000 11103 21190 35983 52016 333 00051;
0196556640999992000020806004+28630+087080FM-12+430299999V0209999C000012200019N0300001N1-00181-01301999999ADDAA199000091GA1001+999999999GF100991001001999999001001KA1999N-01791MA1999999059701MD1710131+0001REMSYN070AAXX  08061 55664 32980 00000 11018 21130 35970 57013 333 00002 21179;EQDQ01  00002PRCP99
0147556640999992000020809004+28630+087080FM-12+430299999V0202701N006012200019N0300001N1+00341-01441999999ADDGA1001+999999999GF100991001001999999001001MA1999999059341MD1710361+0021REMSYN064AAXX  08091 55664 42980 02706 10034 21144 35934 57036 333 05204;
0177556640999992000020812004+28630+087080FM-12+430299999V0202701N009012200019N0300001N1-00121-01511999999ADDAA199000091GA1001+999999999GF100991001001999999001001MA1999999059361MD1210021+0011REMSYN064AAXX  08121 55664 32980 02709 11012 21151 35936 52002 333 05102;EQDQ01  00002PRCP99
0137556640999992000020815004+28630+087080FM-12+430299999V0202701N003012200019N0300001N1-00751-01921999999ADDGA1001+999999999GF100991001001999999001001MA1999999059521MD1210161+9999REMSYN054AAXX  08151 55664 42980 02703 11075 21192 35952 52016;
0196556640999992000020818004+28630+087080FM-12+430299999V0209999C000012200019N0300001N1-01031-02161999999ADDAA199000091GA1001+999999999GF100991001001999999001001KA1999M+00431MA1999999059551MD1210031-0201REMSYN070AAXX  08181 55664 32980 00000 11103 21216 35955 52003 333 05203 10043;EQDQ01  00002PRCP99
0147556640999992000020821004+28630+087080FM-12+430299999V0209999C000012200019N0300001N1-01261-02111999999ADDGA1001+999999999GF100991001001999999001001MA1999999059531MD1710021+0011REMSYN064AAXX  08211 55664 42980 00000 11126 21211 35953 57002 333 05103;
0177556640999992000020900004+28630+087080FM-12+430299999V0209999C000012200019N0300001N1-01511-02301999999ADDAA199000091GA1001+999999999GF100991001001999999001001MA1999999059541MD1210011+0011REMSYN064AAXX  09001 55664 32980 00000 11151 21230 35954 52001 333 05103;EQDQ01  00002PRCP99
0147556640999992000020903004+28630+087080FM-12+430299999V0209999C000012200019N0300001N1-00881-01761999999ADDGA1001+999999999GF100991001001999999001001MA1999999059671MD1210131+0021REMSYN064AAXX  09031 55664 42980 00000 11088 21176 35967 52013 333 05202;
0196556640999992000020906004+28630+087080FM-12+430299999V0209999C000012200019N0300001N1-00271-01371999999ADDAA199000091GA1001+999999999GF100991001001999999001001KA1999N-01691MA1999999059591MD1710081-0101REMSYN070AAXX  09061 55664 32980 00000 11027 21137 35959 57008 333 05151 21169;EQDQ01  00002PRCP99
0147556640999992000020909004+28630+087080FM-12+430299999V0202501N009012200019N0300001N1+00191-01441999999ADDGA1001+999999999GF100991001001999999001001MA1999999059301MD1710291+0001REMSYN064AAXX  09091 55664 42980 02509 10019 21144 35930 57029 333 00052;
0177556640999992000020912004+28630+087080FM-12+430299999V0202501N006012200019N0300001N1-00141-01781999999ADDAA199000091GA1001+999999999GF100991001001999999001001MA1999999059321MD1210021+0001REMSYN064AAXX  09121 55664 32980 02506 11014 21178 35932 52002 333 00000;EQDQ01  00002PRCP99
0137556640999992000020915004+28630+087080FM-12+430299999V0209999C000012200019N0300001N1-00541-01851999999ADDGA1001+999999999GF100991001001999999001001MA1999999059591MD1210271+9999REMSYN054AAXX  09151 55664 42980 00000 11054 21185 35959 52027;
0196556640999992000020918004+28630+087080FM-12+430299999V0209999C000012200019N0300001N1-00951-02131999999ADDAA199000091GA1001+999999999GF100991001001999999001001KA1999M+00321MA1999999059611MD1210021+0101REMSYN070AAXX  09181 55664 32980 00000 11095 21213 35961 52002 333 00101 10032;EQDQ01  00002PRCP99
0147556640999992000020921004+28630+087080FM-12+430299999V0209999C000012200019N0300001N1-01461-02421999999ADDGA1001+999999999GF100991001001999999001001MA1999999059561MD1710051+0001REMSYN064AAXX  09211 55664 42980 00000 11146 21242 35956 57005 333 00052;
0177556640999992000021000004+28630+087080FM-12+430299999V0209999C000012200019N0300001N1-01631-02451999999ADDAA199000091GA1001+999999999GF100991001001999999001001MA1999999059601MD1210041+0011REMSYN064AAXX  10001 55664 32980 00000 11163 21245 35960 52004 333 00151;EQDQ01  00002PRCP99
0147556640999992000021003004+28630+087080FM-12+430299999V0209999C000012200019N0300001N1-00781-01601999999ADDGA1001+999999999GF100991001001999999001001MA1999999059751MD1210151+0011REMSYN064AAXX  10031 55664 42980 00000 11078 21160 35975 52015 333 00101;
0186556640999992000021006004+28630+087080FM-12+430299999V0209999C000012200019N0300001N1+00171-00921999999ADDAA199000091GF101991011011022501001001KA1999N-01661MA1999999059631MD1710121+0001REMSYN076AAXX  10061 55664 32880 10000 10017 21092 35963 57012 81100 333 00004 21166;EQDQ01  00002PRCP99
0137556640999992000021009004+28630+087080FM-12+430299999V0202701N013012200019N0300001N1+00691-00961999999ADDGF101991011011022501001001MA1999999059361MD1710271+0011REMSYN070AAXX  10091 55664 42880 12713 10069 21096 35936 57027 81100 333 00105;
0190556640999992000021012004+28630+087080FM-12+430299999V0202701N008012200019N0300001N1+00261-01381999999ADDAA199000091GF101991011011022501001001MA1999999059421MD1210061+0101OA130602001REMSYN082AAXX  10121 55664 32880 12708 10026 21138 35942 52006 81100 333 00104 91120 91527;EQDQ01  00002PRCP99
0137556640999992000021015004+28630+087080FM-12+430299999V0209999C000012200019N0300001N1-00381-01801999999ADDGA1001+999999999GF100991001001999999001001MA1999999059551MD1210131+9999REMSYN054AAXX  10151 55664 42980 00000 11038 21180 35955 52013;
0196556640999992000021018004+28630+087080FM-12+430299999V0209999C000012200019N0300001N1-00941-02251999999ADDAA199000091GA1001+999999999GF100991001001999999001001KA1999M+00801MA1999999059511MD1710041-0101REMSYN070AAXX  10181 55664 32980 00000 11094 21225 35951 57004 333 05100 10080;EQDQ01  00002PRCP99
0147556640999992000021021004+28630+087080FM-12+430299999V0209999C000012200019N0300001N1-01081-02271999999ADDGA1001+999999999GF100991001001999999001001MA1999999059441MD1710071+0011REMSYN064AAXX  10211 55664 42980 00000 11108 21227 35944 57007 333 05104;
0177556640999992000021100004+28630+087080FM-12+430299999V0209999C000012200019N0300001N1-01241-02351999999ADDAA199000091GA1001+999999999GF100991001001999999001001MA1999999059431MD1710011+0021REMSYN064AAXX  11001 55664 32980 00000 11124 21235 35943 57001 333 05204;EQDQ01  00002PRCP99
0137556640999992000021103004+28630+087080FM-12+430299999V0209999C000012200019N0300001N1-00441-01761999999ADDGF101991011011022501001001MA1999999059531MD1210101+0021REMSYN070AAXX  11031 55664 42880 10000 11044 21176 35953 52010 81100 333 05203;
0209556640999992000021106004+28630+087080FM-12+430299999V0202701N013012200019N0300001N1+00401-01211999999ADDAA199000091GF101991011011022501001001KA1240N-01521MA1999999059451MD1710081-0201OA130601801REMSYN088AAXX  11061 55664 32880 12713 10040 21121 35945 57008 81100 333 05202 21152 91118 91522;EQDQ01  00002PRCP99
0137556640999992000021109004+28630+087080FM-12+430299999V0202701N010012200019N0300001N1+00201-01321999999ADDGF101991011011022501001001MA1999999059401MD1710051+0001REMSYN070AAXX  11091 55664 42880 12710 10020 21132 35940 57005 81100 333 00055;
0190556640999992000021112004+28630+087080FM-12+430299999V0202501N012012200019N0300001N1-00181-01341999999ADDAA199000091GF102991021041022501001001MA1999999059451MD1210051+0001OA130602401REMSYN082AAXX  11121 55664 32880 22512 11018 21134 35945 52005 82400 333 00054 91124 91527;EQDQ01  00002PRCP99
0137556640999992000021115004+28630+087080FM-12+430299999V0202501N013012200019N0300001N1-00331-01391999999ADDGA1001+999999999GF100991001001999999001001MA1999999059451MD1210091+9999REMSYN054AAXX  11151 55664 42980 02513 11033 21139 35945 52009;
0219556640999992000021118004+28630+087080FM-12+430299999V0202501N008012200019N0300001N1-00281-01391999999ADDAA199000091GA1001+999999999GF100991001001999999001001KA1240M+00511MA1999999059501MD1710041+0001OA130601801REMSYN082AAXX  11181 55664 32980 02508 11028 21139 35950 57004 333 00007 10051 91118 91525;EQDQ01  00002PRCP99
0147556640999992000021121004+28630+087080FM-12+430299999V0202701N007012200019N0300001N1-00461-01481999999ADDGA1001+999999999GF100991001001999999001001MA1999999059471MD1710031+0001REMSYN064AAXX  11211 55664 42980 02707 11046 21148 35947 57003 333 00006;
0200556640999992000021200004+28630+087080FM-12+430299999V0202901N003012200019N0300001N1-00411-01531999999ADDAA199000091GA1001+999999999GF100991001001999999001001MA1999999059411MD1710061+0001OA130601901REMSYN076AAXX  12001 55664 32980 02903 11041 21153 35941 57006 333 00008 91119 91525;EQDQ01  00002PRCP99
0137556640999992000021203004+28630+087080FM-12+430299999V0202501N014012200019N0300001N1-00061-01441999999ADDGF101991011011022501001001MA1999999059491MD1210081+0001REMSYN070AAXX  12031 55664 42880 12514 11006 21144 35949 52008 81100 333 00004;
0219556640999992000021206004+28630+087080FM-12+430299999V0202501N013012200019N0300001N1+00251-01261999999ADDAA199000091GA1001+999999999GF100991001001999999001001KA1240N-00521MA1999999059601MD1210111+0201OA130602101REMSYN082AAXX  12061 55664 32980 02513 10025 21126 35960 52011 333 00252 21052 91121 91525;EQDQ01  00002PRCP99
0137556640999992000021209004+28630+087080FM-12+430299999V0202701N010012200019N0300001N1+00271-01221999999ADDGF101991011011022501001001MA1999999059551MD1710051+0021REMSYN070AAXX  12091 55664 42880 12710 10027 21122 35955 57005 81100 333 00201;
0190556640999992000021212004+28630+087080FM-12+430299999V0202501N010012200019N0300001N1-00161-01841999999ADDAA199000091GF101991011011022501001001MA1999999059691MD1210141+0201OA130601901REMSYN082AAXX  12121 55664 32880 12510 11016 21184 35969 52014 81100 333 00200 91119 91525;EQDQ01  00002PRCP99
0137556640999992000021215004+28630+087080FM-12+430299999V0202501N003012200019N0300001N1-00401-01851999999ADDGA1001+999999999GF100991001001999999001001MA1999999059831MD1210141+9999REMSYN054AAXX  12151 55664 42980 02503 11040 21185 35983 52014;
0196556640999992000021218004+28630+087080FM-12+430299999V0203201N003012200019N0300001N1-00441-02021999999ADDAA199000091GA1001+999999999GF100991001001999999001001KA1999M+00401MA1999999059821MD1710011+0301REMSYN070AAXX  12181 55664 32980 03203 11044 21202 35982 57001 333 00352 10040;EQDQ01  00002PRCP99
0147556640999992000021221004+28630+087080FM-12+430299999V0203601N002012200019N0300001N1-01081-02501999999ADDGA1001+999999999GF100991001001999999001001MA1999999059711MD1710111+0021REMSYN064AAXX  12211 55664 42980 03602 11108 21250 35971 57011 333 00256;
0177556640999992000021300004+28630+087080FM-12+430299999V0209999C000012200019N0300001N1-01271-02601999999ADDAA199000091GA1001+999999999GF100991001001999999001001MA1999999059731MD1210021+0031REMSYN064AAXX  13001 55664 32980 00000 11127 21260 35973 52002 333 00359;EQDQ01  00002PRCP99
0147556640999992000021303004+28630+087080FM-12+430299999V0203401N002012200019N0300001N1-00221-01631999999ADDGA1001+999999999GF100991001001999999001001MA1999999059841MD1210111+0041REMSYN064AAXX  13031 55664 42980 03402 11022 21163 35984 52011 333 00452;
0209556640999992000021306004+28630+087080FM-12+430299999V0202501N014012200019N0300001N1+00281-01441999999ADDAA199000091GF101991011011022501001001KA1240N-01301MA1999999059791MD1710051+0201OA130601901REMSYN088AAXX  13061 55664 32880 12514 10028 21144 35979 57005 81100 333 00200 21130 91119 91525;EQDQ01  00002PRCP99
0137556640999992000021309004+28630+087080FM-12+430299999V0202501N015012200019N0300001N1+00311-01531999999ADDGF101991011011022501001001MA1999999059681MD1710111+0011REMSYN070AAXX  13091 55664 42880 12515 10031 21153 35968 57011 81100 333 00100;
0200556640999992000021312004+28630+087080FM-12+430299999V0202501N010012200019N0300001N1-00181-01831999999ADDAA199000091GA1001+999999999GF100991001001999999001001MA1999999059711MD1210031+0001OA130602001REMSYN076AAXX  13121 55664 32980 02510 11018 21183 35971 52003 333 00000 91120 91525;EQDQ01  00002PRCP99
0137556640999992000021315004+28630+087080FM-12+430299999V0203201N007012200019N0300001N1-00381-02001999999ADDGA1001+999999999GF100991001001999999001001MA1999999059841MD1210131+9999REMSYN054AAXX  13151 55664 42980 03207 11038 21200 35984 52013;
0196556640999992000021318004+28630+087080FM-12+430299999V0202701N008012200019N0300001N1-00521-02231999999ADDAA199000091GA1001+999999999GF100991001001999999001001KA1999M+00391MA1999999059841MD1410001+0001REMSYN070AAXX  13181 55664 32980 02708 11052 21223 35984 54000 333 00051 10039;EQDQ01  00002PRCP99
0147556640999992000021321004+28630+087080FM-12+430299999V0209999C000012200019N0300001N1-00961-02151999999ADDGA1001+999999999GF100991001001999999001001MA1999999059781MD1710061+0011REMSYN064AAXX  13211 55664 42980 00000 11096 21215 35978 57006 333 00101;
0177556640999992000021400004+28630+087080FM-12+430299999V0209999C000012200019N0300001N1-01171-01961999999ADDAA199000091GA1001+999999999GF100991001001999999001001MA1999999059771MD1710011+0001REMSYN064AAXX  14001 55664 32980 00000 11117 21196 35977 57001 333 00001;EQDQ01  00002PRCP99
0147556640999992000021403004+28630+087080FM-12+430299999V0209999C000012200019N0300001N1-00791-01431999999ADDGA1001+999999999GF100991001001999999001001MA1999999059931MD1210161+0011REMSYN064AAXX  14031 55664 42980 00000 11079 21143 35993 52016 333 00156;
0196556640999992000021406004+28630+087080FM-12+430299999V0209999C000012200019N0300001N1-00221-01291999999ADDAA199000091GA1001+999999999GF100991001001999999001001KA1999N-01381MA1999999059811MD1710121+0001REMSYN070AAXX  14061 55664 32980 00000 11022 21129 35981 57012 333 00055 21138;EQDQ01  00002PRCP99
0137556640999992000021409004+28630+087080FM-12+430299999V0202501N016012200019N0300001N1+00031-01501999999ADDGF101991011011022501001001MA1999999059611MD1710201+0011REMSYN070AAXX  14091 55664 42880 12516 10003 21150 35961 57020 81100 333 05153;
0190556640999992000021412004+28630+087080FM-12+430299999V0202701N007012200019N0300001N1-00441-01881999999ADDAA199000091GF101991011011022501001001MA1999999059701MD1210091+0001OA130601901REMSYN082AAXX  14121 55664 32880 12707 11044 21188 35970 52009 81100 333 00053 91119 91525;EQDQ01  00002PRCP99
0196556640999992000021418004+28630+087080FM-12+430299999V0209999C000012200019N0300001N1-01201-02181999999ADDAA199000091GA1001+999999999GF100991001001999999001001KA1999M+00161MA1999999059951MD1210061+0101REMSYN070AAXX  14181 55664 32980 00000 11120 21218 35995 52006 333 00157 10016;EQDQ01  00002PRCP99
0147556640999992000021421004+28630+087080FM-12+430299999V0209999C000012200019N0300001N1-01421-02361999999ADDGA1001+999999999GF100991001001999999001001MA1999999059981MD1210031+0021REMSYN064AAXX  14211 55664 42980 00000 11142 21236 35998 52003 333 00255;
0177556640999992000021500004+28630+087080FM-12+430299999V0209999C000012200019N0300001N1-01511-02361999999ADDAA199000091GA1001+999999999GF100991001001999999001001MA1999999060071MD1210091+0031REMSYN064AAXX  15001 55664 32980 00000 11151 21236 36007 52009 333 00354;EQDQ01  00002PRCP99
0147556640999992000021503004+28630+087080FM-12+430299999V0209999C000012200019N0300001N1-00701-01621999999ADDGA1001+999999999GF100991001001999999001001MA1999999060391MD1210321+0051REMSYN064AAXX  15031 55664 42980 00000 11070 21162 36039 52032 333 00501;
0196556640999992000021506004+28630+087080FM-12+430299999V0202701N007012200019N0300001N1-00361-01611999999ADDAA199000091GA1001+999999999GF100991001001999999001001KA1999N-01661MA1999999060381MD1710011+0601REMSYN070AAXX  15061 55664 32980 02707 11036 21161 36038 57001 333 00651 21166;EQDQ01  00002PRCP99
0147556640999992000021509004+28630+087080FM-12+430299999V0202701N004012200019N0300001N1+00081-01501999999ADDGA1001+999999999GF100991001001999999001001MA1999999060171MD1710211+0061REMSYN064AAXX  15091 55664 42980 02704 10008 21150 36017 57021 333 00601;
0167556640999992000021512004+28630+087080FM-12+430299999V0202701N002012200019N0300001N1-00021-01811999999ADDAA199000091GF101991011011022501001001MA1999999060051MD1710121+0041REMSYN070AAXX  15121 55664 32880 12702 11002 21181 36005 57012 81100 333 00404;EQDQ01  00002PRCP99
0127556640999992000021515004+28630+087080FM-12+430299999V0209999C000010210019N0300001N1-00711-02181999999ADDGF105991051041022501001001MA1999999060161MD1210111+9999REMSYN060AAXX  15151 55664 42880 50000 11071 21218 36016 52011 85400;
0157556640999992000021518004+28630+087080FM-12+430299999V0209999C000010210019N0300001N1-00981-02361999999ADDAA199000091GF106991061041022501001001MA1999999060161MD1410001+9999REMSYN060AAXX  15181 55664 32880 60000 11098 21236 36016 54000 86400;EQDQ01  00002PRCP99
0137556640999992000021521004+28630+087080FM-12+430299999V0209999C000012200019N0300001N1-01111-02361999999ADDGF101991001001999999001021MA1999999060011MD1710151+0001REMSYN070AAXX  15211 55664 42980 10000 11111 21236 36001 57015 80002 333 00003;
0167556640999992000021600004+28630+087080FM-12+430299999V0209999C000012200019N0300001N1-01201-02341999999ADDAA199000091GF104991001001999999001021MA1999999059911MD1710101+0021REMSYN070AAXX  16001 55664 32980 40000 11120 21234 35991 57010 80002 333 05204;EQDQ01  00002PRCP99
0137556640999992000021603004+28630+087080FM-12+430299999V0209999C000012200019N0300001N1-00461-01591999999ADDGF102991021041022501001001MA1999999059981MD1210071+0041REMSYN070AAXX  16031 55664 42880 20000 11046 21159 35998 52007 82400 333 05402;
0186556640999992000021606004+28630+087080FM-12+430299999V0202901N009010210019N0300001N1+00261-01341999999ADDAA199000091GF105991051011022501001001KA1999N-01301MA1999999059901MD1710081-0501REMSYN076AAXX  16061 55664 32880 52909 10026 21134 35990 57008 85100 333 05506 21130;EQDQ01  00002PRCP99
0137556640999992000021609004+28630+087080FM-12+430299999V0202501N012010210019N0300001N1+00201-01481999999ADDGF106991061041022501001001MA1999999059711MD1710191+0051REMSYN070AAXX  16091 55664 42880 62512 10020 21148 35971 57019 86400 333 05501;
0190556640999992000021612004+28630+087080FM-12+430299999V0202501N009010150019N0300001N1-00161-01501999999ADDAA199000091GF106991061091017501001001MA1999999059681MD1710031-0401OA130602101REMSYN082AAXX  16121 55664 32780 62509 11016 21150 35968 57003 86900 333 05451 91121 91520;EQDQ01  00002PRCP99
0127556640999992000021615004+28630+087080FM-12+430299999V0202501N006010210019N0300001N1-00321-01621999999ADDGF106991061041022501001001MA1999999059671MD1710011+9999REMSYN060AAXX  16151 55664 42880 62506 11032 21162 35967 57001 86400;
0186556640999992000021618004+28630+087080FM-12+430299999V02099999999992200019N0300001N1-00601-01861999999ADDAA199000091GF103991031041022501001001KA1999M+00481MA1999999059641MD1710031-0501REMSYN076AAXX  16181 55664 32880 32/05 11060 21186 35964 57003 83400 333 05504 10048;EQDQ01  00002PRCP99
0147556640999992000021621004+28630+087080FM-12+430299999V0202201N006012200019N0300001N1-00781-02181999999ADDGA1001+999999999GF100991001001999999001001MA1999999059541MD1710101+0051REMSYN064AAXX  16211 55664 42980 02206 11078 21218 35954 57010 333 05503;
0177556640999992000021700004+28630+087080FM-12+430299999V0202701N007012200019N0300001N1-00781-02041999999ADDAA199000091GA1001+999999999GF100991001001999999001001MA1999999059481MD1710061+0041REMSYN064AAXX  17001 55664 32980 02707 11078 21204 35948 57006 333 05404;EQDQ01  00002PRCP99
0137556640999992000021703004+28630+087080FM-12+430299999V0202501N012012200019N0300001N1-00421-02101999999ADDGF101991011011022501001001MA1999999059471MD1710011+0051REMSYN070AAXX  17031 55664 42880 12512 11042 21210 35947 57001 81100 333 05500;
0209556640999992000021706004+28630+087080FM-12+430299999V0202701N013012200019N0300001N1-00021-01551999999ADDAA199000091GF101991011011022501001001KA1240N-00941MA1999999059331MD1710141-0601OA130601901REMSYN088AAXX  17061 55664 32880 12713 11002 21155 35933 57014 81100 333 05653 21094 91119 91527;EQDQ01  00002PRCP99
0137556640999992000021709004+28630+087080FM-12+430299999V0202701N014012200019N0300001N1-00011-01471999999ADDGF101991011011022501001001MA1999999059141MD1710191+0061REMSYN070AAXX  17091 55664 42880 12714 11001 21147 35914 57019 81100 333 05652;
0190556640999992000021712004+28630+087080FM-12+430299999V0202701N008012200019N0300001N1-00441-01871999999ADDAA199000091GF101991011011022501001001MA1999999059091MD1710051-0601OA130602001REMSYN082AAXX  17121 55664 32880 12708 11044 21187 35909 57005 81100 333 05653 91120 91527;EQDQ01  00002PRCP99
0127556640999992000021715004+28630+087080FM-12+430299999V0202901N004012200019N0300001N1-00751-01851999999ADDGF101991011041022501001001MA1999999059141MD1210051+9999REMSYN060AAXX  17151 55664 42880 12904 11075 21185 35914 52005 81400;
0196556640999992000021718004+28630+087080FM-12+430299999V0202701N003012200019N0300001N1-01081-02151999999ADDAA199000091GA1001+999999999GF100991001001999999001001KA1999M+00151MA1999999059191MD1210051-0501REMSYN070AAXX  17181 55664 32980 02703 11108 21215 35919 52005 333 05555 10015;EQDQ01  00002PRCP99
0147556640999992000021721004+28630+087080FM-12+430299999V0209999C000012200019N0300001N1-01261-01941999999ADDGA1001+999999999GF100991001001999999001001MA1999999059191MD1410001+0041REMSYN064AAXX  17211 55664 42980 00000 11126 21194 35919 54000 333 05455;
