0195567480999992000010100004+25130+099220FM-12+165599999V0209999C000012200019N0300001N1+00101-00021999999ADDAA106000091GA1001+999999999GF100991001001999999001001IA2999-00109MA1999999083801MD1210141+0201REMSYN070AAXX  01001 56748 32980 00000 10010 21002 38380 52014 333 00200 31017;EQDQ01  00002PRCP06
0137567480999992000010103004+25130+099220FM-12+165599999V0209999C000012200019N0200001N1+00771+00091999999ADDGA1001+999999999GF100991001001999999001001MA1999999083981MD1210181+9999REMSYN054AAXX  01031 56748 42970 00000 10077 20009 38398 52018;
0196567480999992000010106004+25130+099220FM-12+165599999V0209999C000012200019N0300001N1+01501+00171999999ADDAA106000091GA1001+999999999GF100991001001999999001001KA1999N+00061MA1999999083671MD1710311+0201REMSYN070AAXX  01061 56748 32980 00000 10150 20017 38367 57031 333 00200 20006;EQDQ01  00002PRCP06
0147567480999992000010109004+25130+099220FM-12+165599999V0201601N001012200019N0300001N1+01651-00071999999ADDGA1001+999999999GF100991001001999999001001MA1999999083491MD1710181+0011REMSYN064AAXX  01091 56748 42980 01601 10165 21007 38349 57018 333 00101;
0177567480999992000010112004+25130+099220FM-12+165599999V0209999C000012200019N0300001N1+01091+00171999999ADDAA106000091GA1001+999999999GF100991001001999999001001MA1999999083611MD1210121+0011REMSYN064AAXX  01121 56748 32980 00000 10109 20017 38361 52012 333 00101;EQDQ01  00002PRCP06
0196567480999992000010118004+25130+099220FM-12+165599999V0209999C000012200019N0300001N1+00441+00171999999ADDAA106000091GA1001+999999999GF100991001001999999001001KA1999M+01731MA1999999083771MD1210011+0101REMSYN070AAXX  01181 56748 32980 00000 10044 20017 38377 52001 333 00100 10173;EQDQ01  00002PRCP06
0147567480999992000010121004+25130+099220FM-12+165599999V0209999C000012200019N0300001N1+00251+00031999999ADDGA1001+999999999GF100991001001999999001001MA1999999083751MD1710021+0011REMSYN064AAXX  01211 56748 42980 00000 10025 20003 38375 57002 333 00151;
0195567480999992000010200004+25130+099220FM-12+165599999V0209999C000012200019N0300001N1+00081-00021999999ADDAA106000091GA1001+999999999GF100991001001999999001001IA2999-00209MA1999999083791MD1210041+0001REMSYN070AAXX  02001 56748 32980 00000 10008 21002 38379 52004 333 00000 31020;EQDQ01  00002PRCP06
0137567480999992000010203004+25130+099220FM-12+165599999V0209999C000012200019N0200001N1+00841+00101999999ADDGA1001+999999999GF100991001001999999001001MA1999999084011MD1210221+9999REMSYN054AAXX  02031 56748 42970 00000 10084 20010 38401 52022;
0196567480999992000010206004+25130+099220FM-12+165599999V0209999C000012200019N0300001N1+01551-00121999999ADDAA106000091GA1001+999999999GF100991001001999999001001KA1999N+00061MA1999999083701MD1710311+0001REMSYN070AAXX  02061 56748 32980 00000 10155 21012 38370 57031 333 00001 20006;EQDQ01  00002PRCP06
0147567480999992000010209004+25130+099220FM-12+165599999V0201601N001012200019N0300001N1+01661-00091999999ADDGA1001+999999999GF100991001001999999001001MA1999999083491MD1710211+0001REMSYN064AAXX  02091 56748 42980 01601 10166 21009 38349 57021 333 00000;
0177567480999992000010212004+25130+099220FM-12+165599999V0209999C000012200019N0300001N1+01091+00191999999ADDAA106000091GA1001+999999999GF100991001001999999001001MA1999999083551MD1210061+0011REMSYN064AAXX  02121 56748 32980 00000 10109 20019 38355 52006 333 05100;EQDQ01  00002PRCP06
0196567480999992000010218004+25130+099220FM-12+165599999V0209999C000012200019N0300001N1+00471+00101999999ADDAA106000091GA1001+999999999GF100991001001999999001001KA1999M+01781MA1999999083691MD1710031-0101REMSYN070AAXX  02181 56748 32980 00000 10047 20010 38369 57003 333 05100 10178;EQDQ01  00002PRCP06
0147567480999992000010221004+25130+099220FM-12+165599999V0209999C000012200019N0300001N1+00251+00061999999ADDGA1001+999999999GF100991001001999999001001MA1999999083601MD1710091+0021REMSYN064AAXX  02211 56748 42980 00000 10025 20006 38360 57009 333 05200;
0195567480999992000010300004+25130+099220FM-12+165599999V0209999C000012200019N0300001N1+00111-00041999999ADDAA106000091GA1001+999999999GF100991001001999999001001IA2999-00209MA1999999083641MD1210041-0201REMSYN070AAXX  03001 56748 32980 00000 10011 21004 38364 52004 333 05200 31021;EQDQ01  00002PRCP06
0137567480999992000010303004+25130+099220FM-12+165599999V0209999C000012200019N0200001N1+00861+00131999999ADDGA1001+999999999GF100991001001999999001001MA1999999083781MD1210141+9999REMSYN054AAXX  03031 56748 42970 00000 10086 20013 38378 52014;
0196567480999992000010306004+25130+099220FM-12+165599999V0209999C000012200019N0300001N1+01571+00251999999ADDAA106000091GA1001+999999999GF100991001001999999001001KA1999N+00061MA1999999083511MD1710271-0201REMSYN070AAXX  03061 56748 32980 00000 10157 20025 38351 57027 333 05200 20006;EQDQ01  00002PRCP06
0147567480999992000010309004+25130+099220FM-12+165599999V0201601N003012200019N0300001N1+01691-00441999999ADDGA1001+999999999GF100991001001999999001001MA1999999083251MD1710261+0021REMSYN064AAXX  03091 56748 42980 01603 10169 21044 38325 57026 333 05200;
0177567480999992000010312004+25130+099220FM-12+165599999V0209999C000012200019N0300001N1+01091+00031999999ADDAA106000091GA1001+999999999GF100991001001999999001001MA1999999083361MD1210111+0021REMSYN064AAXX  03121 56748 32980 00000 10109 20003 38336 52011 333 05200;EQDQ01  00002PRCP06
0196567480999992000010318004+25130+099220FM-12+165599999V0209999C000012200019N0300001N1+00451+00001999999ADDAA106000091GA1001+999999999GF100991001001999999001001KA1999M+01771MA1999999083491MD1710041-0201REMSYN070AAXX  03181 56748 32980 00000 10045 20000 38349 57004 333 05200 10177;EQDQ01  00002PRCP06
0147567480999992000010321004+25130+099220FM-12+165599999V0209999C000012200019N0300001N1+00281-00011999999ADDGA1001+999999999GF100991001001999999001001MA1999999083451MD1710041+0021REMSYN064AAXX  03211 56748 42980 00000 10028 21001 38345 57004 333 05200;
0195567480999992000010400004+25130+099220FM-12+165599999V0209999C000012200019N0300001N1+00071-00161999999ADDAA106000091GA1001+999999999GF100991001001999999001001IA2999-00209MA1999999083531MD1210081-0101REMSYN070AAXX  04001 56748 32980 00000 10007 21016 38353 52008 333 05100 31024;EQDQ01  00002PRCP06
0137567480999992000010403004+25130+099220FM-12+165599999V0209999C000012200019N0250001N1+00771+00041999999ADDGA1001+999999999GF100991001001999999001001MA1999999083691MD1210161+9999REMSYN054AAXX  04031 56748 42975 00000 10077 20004 38369 52016;
0196567480999992000010406004+25130+099220FM-12+165599999V0209999C000012200019N0300001N1+01631+00201999999ADDAA106000091GA1001+999999999GF100991001001999999001001KA1999N+00041MA1999999083411MD1710281-0101REMSYN070AAXX  04061 56748 32980 00000 10163 20020 38341 57028 333 05101 20004;EQDQ01  00002PRCP06
0147567480999992000010409004+25130+099220FM-12+165599999V0209999C000012200019N0300001N1+01681-00421999999ADDGA1001+999999999GF100991001001999999001001MA1999999083231MD1710181+0001REMSYN064AAXX  04091 56748 42980 00000 10168 21042 38323 57018 333 00000;
0177567480999992000010412004+25130+099220FM-12+165599999V0209999C000012200019N0300001N1+01161-00111999999ADDAA106000091GA1001+999999999GF100991001001999999001001MA1999999083411MD1210181+0011REMSYN064AAXX  04121 56748 32980 00000 10116 21011 38341 52018 333 00101;EQDQ01  00002PRCP06
0196567480999992000010418004+25130+099220FM-12+165599999V0209999C000012200019N0300001N1+00471+00101999999ADDAA106000091GA1001+999999999GF100991001001999999001001KA1999M+01851MA1999999083591MD1210021+0101REMSYN070AAXX  04181 56748 32980 00000 10047 20010 38359 52002 333 00100 10185;EQDQ01  00002PRCP06
0147567480999992000010421004+25130+099220FM-12+165599999V0209999C000012200019N0300001N1+00231-00041999999ADDGA1001+999999999GF100991001001999999001001MA1999999083531MD1710061+0011REMSYN064AAXX  04211 56748 42980 00000 10023 21004 38353 57006 333 00151;
0195567480999992000010500004+25130+099220FM-12+165599999V0209999C000012200019N0300001N1+00141-00091999999ADDAA106000091GA1001+999999999GF100991001001999999001001IA2999-00209MA1999999083601MD1210071+0101REMSYN070AAXX  05001 56748 32980 00000 10014 21009 38360 52007 333 00101 31026;EQDQ01  00002PRCP06
0137567480999992000010503004+25130+099220FM-12+165599999V0209999C000012200019N0200001N1+00811+00041999999ADDGA1001+999999999GF100991001001999999001001MA1999999083781MD1210181+9999REMSYN054AAXX  05031 56748 42970 00000 10081 20004 38378 52018;
0196567480999992000010506004+25130+099220FM-12+165599999V0209999C000012200019N0300001N1+01521+00091999999ADDAA106000091GA1001+999999999GF100991001001999999001001KA1999N+00071MA1999999083441MD1710341+0001REMSYN070AAXX  05061 56748 32980 00000 10152 20009 38344 57034 333 00051 20007;EQDQ01  00002PRCP06
0147567480999992000010509004+25130+099220FM-12+165599999V0209999C000012200019N0300001N1+01761-00251999999ADDGA1001+999999999GF100991001001999999001001MA1999999083271MD1710171+0001REMSYN064AAXX  05091 56748 42980 00000 10176 21025 38327 57017 333 00001;
0177567480999992000010512004+25130+099220FM-12+165599999V0209999C000012200019N0300001N1+01151-00061999999ADDAA106000091GA1001+999999999GF100991001001999999001001MA1999999083331MD1210061+0011REMSYN064AAXX  05121 56748 32980 00000 10115 21006 38333 52006 333 05100;EQDQ01  00002PRCP06
0196567480999992000010518004+25130+099220FM-12+165599999V0209999C000012200019N0300001N1+00451+00051999999ADDAA106000091GA1001+999999999GF100991001001999999001001KA1999M+01811MA1999999083451MD1710031-0101REMSYN070AAXX  05181 56748 32980 00000 10045 20005 38345 57003 333 05100 10181;EQDQ01  00002PRCP06
0147567480999992000010521004+25130+099220FM-12+165599999V0209999C000012200019N0300001N1+00271-00051999999ADDGA1001+999999999GF100991001001999999001001MA1999999083411MD1710041+0011REMSYN064AAXX  05211 56748 42980 00000 10027 21005 38341 57004 333 05100;
0137567480999992000010603004+25130+099220FM-12+165599999V0209999C000012200019N0200001N1+00771-00021999999ADDGA1001+999999999GF100991001001999999001001MA1999999083711MD1210211+9999REMSYN054AAXX  06031 56748 42970 00000 10077 21002 38371 52021;
0186567480999992000010606004+25130+099220FM-12+165599999V0209999C000012200019N0300001N1+01551-00021999999ADDAA106000091GF101991001001999999001021KA1999N+00031MA1999999083431MD1710281+0001REMSYN076AAXX  06061 56748 32980 10000 10155 21002 38343 57028 80002 333 00000 20003;EQDQ01  00002PRCP06
0137567480999992000010609004+25130+099220FM-12+165599999V0209999C000019999999N0300001N1+01711-00561999999ADDGF106991001001999999001021MA1999999083211MD1710221+0011REMSYN070AAXX  06091 56748 42980 60000 10171 21056 38321 57022 80002 333 05151;
0177567480999992000010612004+25130+099220FM-12+165599999V0209999C000012200019N0300001N1+01121-00081999999ADDAA106000091GA1001+999999999GF100991001001999999001001MA1999999083351MD1210141+0001REMSYN064AAXX  06121 56748 32980 00000 10112 21008 38335 52014 333 00000;EQDQ01  00002PRCP06
0137567480999992000010621004+25130+099220FM-12+165599999V0209999C000012200019N0300001N1+00611+00191999999ADDGF104991041001999999041001MA1999999083431MD1710051+0001REMSYN070AAXX  06211 56748 42980 40000 10061 20019 38343 57005 84040 333 00003;
0185567480999992000010700004+25130+099220FM-12+165599999V0209999C000010120019N0300001N1+00571+00191999999ADDAA106000091GF108991051041012501071999IA2999+00109MA1999999083411MD1710021-0101REMSYN076AAXX  07001 56748 32680 80000 10057 20019 38341 57002 8547/ 333 05104 30014;EQDQ01  00002PRCP06
0127567480999992000010703004+25130+099220FM-12+165599999V0209999C000010120019N0250001N1+00911+00221999999ADDGF107991061041012501041999MA1999999083661MD1210251+9999REMSYN060AAXX  07031 56748 42675 70000 10091 20022 38366 52025 8644/;
0186567480999992000010706004+25130+099220FM-12+165599999V0209999C000010075019N0300001N1+01271+00231999999ADDAA106000091GF107991071041008001999999KA1999N+00521MA1999999083431MD1710231+0001REMSYN076AAXX  07061 56748 32580 70000 10127 20023 38343 57023 874// 333 00053 20052;EQDQ01  00002PRCP06
0137567480999992000010709004+25130+099220FM-12+165599999V0202901N001010360019N0300001N1+01531-00111999999ADDGF107991031041008001041021MA1999999083191MD1710241+0001REMSYN070AAXX  07091 56748 42580 72901 10153 21011 38319 57024 83442 333 00052;
0167567480999992000010712004+25130+099220FM-12+165599999V0209999C000012200019N0300001N1+01171+00381999999ADDAA106000091GF102991021041008001001001MA1999999083211MD1210021+0011REMSYN070AAXX  07121 56748 32580 20000 10117 20038 38321 52002 82400 333 05101;EQDQ01  00002PRCP06
0196567480999992000010718004+25130+099220FM-12+165599999V0209999C000012200019N0300001N1+00671+00301999999ADDAA106000091GA1001+999999999GF100991001001999999001001KA1999M+01621MA1999999083451MD1710021+0001REMSYN070AAXX  07181 56748 32980 00000 10067 20030 38345 57002 333 00000 10162;EQDQ01  00002PRCP06
0147567480999992000010721004+25130+099220FM-12+165599999V0209999C000012200019N0300001N1+00471+00271999999ADDGA1001+999999999GF100991001001999999001001MA1999999083421MD1710031+0001REMSYN064AAXX  07211 56748 42980 00000 10047 20027 38342 57003 333 00051;
0185567480999992000010800004+25130+099220FM-12+165599999V0209999C000012200019N0300001N1+00251+00131999999ADDAA106000091GF101991011041012501001001IA2999-00109MA1999999083471MD1210051+0101REMSYN076AAXX  08001 56748 32680 10000 10025 20013 38347 52005 81400 333 00153 31010;EQDQ01  00002PRCP06
0127567480999992000010803004+25130+099220FM-12+165599999V0209999C000012200019N0250001N1+00811+00321999999ADDGF101991011011012501001001MA1999999083681MD1210211+9999REMSYN060AAXX  08031 56748 42675 10000 10081 20032 38368 52021 81100;
0186567480999992000010806004+25130+099220FM-12+165599999V0200901N001012200019N0300001N1+01471+00301999999ADDAA106000091GF101991011011012501001001KA1999N+00231MA1999999083351MD1710331-0101REMSYN076AAXX  08061 56748 32680 10901 10147 20030 38335 57033 81100 333 05102 20023;EQDQ01  00002PRCP06
0147567480999992000010809004+25130+099220FM-12+165599999V0209999C000012200019N0300001N1+01631+00151999999ADDGA1001+999999999GF100991001001999999001001MA1999999083171MD1710181+0001REMSYN064AAXX  08091 56748 42980 00000 10163 20015 38317 57018 333 00001;
0177567480999992000010812004+25130+099220FM-12+165599999V0209999C000012200019N0300001N1+01181+00261999999ADDAA106000091GA1001+999999999GF100991001001999999001001MA1999999083321MD1210151+0011REMSYN064AAXX  08121 56748 32980 00000 10118 20026 38332 52015 333 00100;EQDQ01  00002PRCP06
0196567480999992000010818004+25130+099220FM-12+165599999V0209999C000012200019N0300001N1+00511+00271999999ADDAA106000091GA1001+999999999GF100991001001999999001001KA1999M+01731MA1999999083471MD1710041+0001REMSYN070AAXX  08181 56748 32980 00000 10051 20027 38347 57004 333 00052 10173;EQDQ01  00002PRCP06
0147567480999992000010821004+25130+099220FM-12+165599999V0209999C000012200019N0300001N1+00351+00191999999ADDGA1001+999999999GF100991001001999999001001MA1999999083401MD1710071+0001REMSYN064AAXX  08211 56748 42980 00000 10035 20019 38340 57007 333 00051;
0185567480999992000010900004+25130+099220FM-12+165599999V0209999C000012200019N0300001N1+00131+00011999999ADDAA106000091GF101991011001999999041001IA2999-00109MA1999999083451MD1210051+0001REMSYN076AAXX  09001 56748 32980 10000 10013 20001 38345 52005 81040 333 00051 31013;EQDQ01  00002PRCP06
0127567480999992000010903004+25130+099220FM-12+165599999V0209999C000012200019N0250001N1+00781+00211999999ADDGF101991011011008001001001MA1999999083571MD1210121+9999REMSYN060AAXX  09031 56748 42575 10000 10078 20021 38357 52012 81100;
0137567480999992000010909004+25130+099220FM-12+165599999V0209999C000012200019N0300001N1+01621+00131999999ADDGF101991011011008001001001MA1999999083131MD1710131+0001REMSYN070AAXX  09091 56748 42580 10000 10162 20013 38313 57013 81100 333 00000;
0177567480999992000010912004+25130+099220FM-12+165599999V0209999C000012200019N0300001N1+01201+00321999999ADDAA106000091GA1001+999999999GF100991001001999999001001MA1999999083281MD1210151+0001REMSYN064AAXX  09121 56748 32980 00000 10120 20032 38328 52015 333 00000;EQDQ01  00002PRCP06
0196567480999992000010918004+25130+099220FM-12+165599999V0209999C000012200019N0300001N1+00591+00311999999ADDAA106000091GA1001+999999999GF100991001001999999001001KA1999M+01751MA1999999083421MD1710011-0101REMSYN070AAXX  09181 56748 32980 00000 10059 20031 38342 57001 333 05101 10175;EQDQ01  00002PRCP06
0147567480999992000010921004+25130+099220FM-12+165599999V0209999C000012200019N0300001N1+00431+00251999999ADDGA1001+999999999GF100991001001999999001001MA1999999083291MD1710131+0011REMSYN064AAXX  09211 56748 42980 00000 10043 20025 38329 57013 333 05101;
0185567480999992000011000004+25130+099220FM-12+165599999V0209999C000012200019N0300001N1+00371+00211999999ADDAA106000091GF101991011041012501001001IA2999+00009MA1999999083341MD1210051-0101REMSYN076AAXX  10001 56748 32680 10000 10037 20021 38334 52005 81400 333 05102 30000;EQDQ01  00002PRCP06
0127567480999992000011003004+25130+099220FM-12+165599999V0209999C000010075019N0200001N1+00821+00381999999ADDGF106991061011008001001001MA1999999083531MD1210191+9999REMSYN060AAXX  10031 56748 42570 60000 10082 20038 38353 52019 86100;
0186567480999992000011006004+25130+099220FM-12+165599999V0201401N001012200019N0300001N1+01641+00411999999ADDAA106000091GF102991021021008001001001KA1999N+00281MA1999999083321MD1710211+0101REMSYN076AAXX  10061 56748 32580 21401 10164 20041 38332 57021 82200 333 00100 20028;EQDQ01  00002PRCP06
0137567480999992000011009004+25130+099220FM-12+165599999V0202701N001010075019N0300001N1+01591+00361999999ADDGF105991051021008001001001MA1999999083191MD1710131+0011REMSYN070AAXX  10091 56748 42580 52701 10159 20036 38319 57013 85200 333 00100;
0167567480999992000011012004+25130+099220FM-12+165599999V0209999C000012200019N0300001N1+01361+00521999999ADDAA106000091GF102991021041012501001001MA1999999083241MD1210051+0001REMSYN070AAXX  10121 56748 32680 20000 10136 20052 38324 52005 82400 333 00002;EQDQ01  00002PRCP06
0186567480999992000011018004+25130+099220FM-12+165599999V0209999C000012200019N0300001N1+00981+00261999999ADDAA106000091GF102991021041012501001001KA1999M+01741MA1999999083361MD1710041-0101REMSYN076AAXX  10181 56748 32680 20000 10098 20026 38336 57004 82400 333 05104 10174;EQDQ01  00002PRCP06
0147567480999992000011021004+25130+099220FM-12+165599999V0209999C000012200019N0300001N1+00771+00201999999ADDGA1001+999999999GF100991001001999999001001MA1999999083351MD1710011+0011REMSYN064AAXX  10211 56748 42980 00000 10077 20020 38335 57001 333 00103;
0195567480999992000011100004+25130+099220FM-12+165599999V0209999C000012200019N0300001N1+00591+00191999999ADDAA106000091GA1001+999999999GF100991001001999999001001IA2999+00009MA1999999083481MD1210131+0101REMSYN070AAXX  11001 56748 32980 00000 10059 20019 38348 52013 333 00102 30009;EQDQ01  00002PRCP06
0137567480999992000011103004+25130+099220FM-12+165599999V0209999C000012200019N0200001N1+01281+00391999999ADDGA1001+999999999GF100991001001999999001001MA1999999083641MD1210161+9999REMSYN054AAXX  11031 56748 42970 00000 10128 20039 38364 52016;
0186567480999992000011106004+25130+099220FM-12+165599999V0209999C000012200019N0300001N1+01711+00181999999ADDAA106000091GF101991011011008001001001KA1999N+00551MA1999999083431MD1710211+0101REMSYN076AAXX  11061 56748 32580 10000 10171 20018 38343 57021 81100 333 00101 20055;EQDQ01  00002PRCP06
0137567480999992000011109004+25130+099220FM-12+165599999V0201801N001012200019N0300001N1+01731+00191999999ADDGF101991011011012501001001MA1999999083221MD1710211+0001REMSYN070AAXX  11091 56748 42680 11801 10173 20019 38322 57021 81100 333 00001;
0177567480999992000011112004+25130+099220FM-12+165599999V0209999C000012200019N0300001N1+01401+00381999999ADDAA106000091GA1001+999999999GF100991001001999999001001MA1999999083341MD1210121+0011REMSYN064AAXX  11121 56748 32980 00000 10140 20038 38334 52012 333 00100;EQDQ01  00002PRCP06
0196567480999992000011118004+25130+099220FM-12+165599999V0209999C000012200019N0300001N1+00771+00421999999ADDAA106000091GA1001+999999999GF100991001001999999001001KA1999M+01821MA1999999083471MD1710051+0101REMSYN070AAXX  11181 56748 32980 00000 10077 20042 38347 57005 333 00152 10182;EQDQ01  00002PRCP06
0147567480999992000011121004+25130+099220FM-12+165599999V0209999C000012200019N0300001N1+00521+00321999999ADDGA1001+999999999GF100991001001999999001001MA1999999083421MD1710051+0011REMSYN064AAXX  11211 56748 42980 00000 10052 20032 38342 57005 333 00153;
0195567480999992000011200004+25130+099220FM-12+165599999V0209999C000012200019N0300001N1+00411+00211999999ADDAA106000091GA1001+999999999GF100991001001999999001001IA2999+00009MA1999999083441MD1210021+0001REMSYN070AAXX  12001 56748 32980 00000 10041 20021 38344 52002 333 00052 30004;EQDQ01  00002PRCP06
0137567480999992000011203004+25130+099220FM-12+165599999V0209999C000012200019N0200001N1+01091+00371999999ADDGA1001+999999999GF100991001001999999001001MA1999999083601MD1210161+9999REMSYN054AAXX  12031 56748 42970 00000 10109 20037 38360 52016;
0186567480999992000011206004+25130+099220FM-12+165599999V0200201N001012200019N0300001N1+01701-00021999999ADDAA106000091GF102991021021008001001001KA1999N+00381MA1999999083361MD1710241-0101REMSYN076AAXX  12061 56748 32580 20201 10170 21002 38336 57024 82200 333 05100 20038;EQDQ01  00002PRCP06
0137567480999992000011209004+25130+099220FM-12+165599999V0209999C000012200019N0300001N1+01611+00201999999ADDGF103991031021008001001001MA1999999083201MD1710161+0001REMSYN070AAXX  12091 56748 42580 30000 10161 20020 38320 57016 83200 333 00051;
0167567480999992000011212004+25130+099220FM-12+165599999V0209999C000012200019N0300001N1+01371+00211999999ADDAA106000091GF102991021041012501001001MA1999999083251MD1210051+0011REMSYN070AAXX  12121 56748 32680 20000 10137 20021 38325 52005 82400 333 05100;EQDQ01  00002PRCP06
0196567480999992000011218004+25130+099220FM-12+165599999V0209999C000012200019N0300001N1+00641+00221999999ADDAA106000091GA1001+999999999GF100991001001999999001001KA1999M+01811MA1999999083421MD1410001-0101REMSYN070AAXX  12181 56748 32980 00000 10064 20022 38342 54000 333 05151 10181;EQDQ01  00002PRCP06
0147567480999992000011221004+25130+099220FM-12+165599999V0209999C000012200019N0300001N1+00511+00201999999ADDGA1001+999999999GF100991001001999999001001MA1999999083281MD1710141+0011REMSYN064AAXX  12211 56748 42980 00000 10051 20020 38328 57014 333 05100;
0195567480999992000011300004+25130+099220FM-12+165599999V0209999C000012200019N0300001N1+00331+00121999999ADDAA106000091GA1001+999999999GF100991001001999999001001IA2999+00009MA1999999083391MD1210111-0101REMSYN070AAXX  13001 56748 32980 00000 10033 20012 38339 52011 333 05151 31003;EQDQ01  00002PRCP06
0137567480999992000011303004+25130+099220FM-12+165599999V0209999C000012200019N0200001N1+00981+00261999999ADDGA1001+999999999GF100991001001999999001001MA1999999083551MD1210161+9999REMSYN054AAXX  13031 56748 42970 00000 10098 20026 38355 52016;
0196567480999992000011306004+25130+099220FM-12+165599999V0201401N001012200019N0300001N1+01661+00131999999ADDAA106000091GA1001+999999999GF100991001001999999001001KA1999N+00291MA1999999083291MD1710261-0101REMSYN070AAXX  13061 56748 32980 01401 10166 20013 38329 57026 333 05100 20029;EQDQ01  00002PRCP06
0147567480999992000011309004+25130+099220FM-12+165599999V0202901N001012200019N0300001N1+01691+00241999999ADDGA1001+999999999GF100991001001999999001001MA1999999083081MD1710211+0011REMSYN064AAXX  13091 56748 42980 02901 10169 20024 38308 57021 333 05101;
0177567480999992000011312004+25130+099220FM-12+165599999V0209999C000012200019N0300001N1+01361+00351999999ADDAA106000091GA1001+999999999GF100991001001999999001001MA1999999083151MD1210071+0011REMSYN064AAXX  13121 56748 32980 00000 10136 20035 38315 52007 333 05100;EQDQ01  00002PRCP06
0196567480999992000011318004+25130+099220FM-12+165599999V0209999C000012200019N0300001N1+00711+00251999999ADDAA106000091GA1001+999999999GF100991001001999999001001KA1999M+01771MA1999999083191MD1710041-0201REMSYN070AAXX  13181 56748 32980 00000 10071 20025 38319 57004 333 05201 10177;EQDQ01  00002PRCP06
0151567480999992000011321004+25130+099220FM-12+165599999V0209999C000012200019N0300001N1+00491+00201999999ADDGA1001+999999999GF100991001001999999001001MA1999999083111MD1710081+0021REMSYN068    AAXX  13211 56748 42980 00000 10049 20020 38311 57008 333 05200;
0189567480999992000011400004+25130+099220FM-12+165599999V0209999C000012200019N0300001N1+00411+00131999999ADDAA199000091GF102991021041012501001001IA2999+00009MA1999999083171MD1210061-0201REMSYN080    AAXX  14001 56748 32680 20000 10041 20013 38317 52006 82400 333 05201 30003;EQDQ01  00002PRCP99
0141567480999992000011403004+25130+099220FM-12+165599999V0209999C000012200019N0200001N1+01171+00301999999ADDGA1001+999999999GF100991001001999999001001MA1999999083291MD1210121+9999REMSYN058    AAXX  14031 56748 42970 00000 10117 20030 38329 52012;
0190567480999992000011406004+25130+099220FM-12+165599999V0209999C000010075019N0300001N1+01571+00231999999ADDAA199000091GF106991061021008001001001KA1999N+00361MA1999999083141MD1710151-0201REMSYN080    AAXX  14061 56748 32580 60000 10157 20023 38314 57015 86200 333 05251 20036;EQDQ01  00002PRCP99
0153567480999992000011409004+25130+099220FM-12+165599999V0209999C000010075019N0300001N1+01531+00331999999ADDGF107991071041008001999999MA1999999083041MD1710101+0001MW1801REMSYN080    AAXX  14091 56748 41580 70000 10153 20033 38304 57010 78000 874// 333 00052;
0178567480999992000011412004+25130+099220FM-12+165599999V0209999C000012200019N0300001N1+01331+00361999999ADDAA106000791AY181061GF101991011041008001001001MA1999999083091MD1210051+0011MW1001REMSYN086    AAXX  14121 56748 11580 10000 10133 20036 38309 52005 69901 70080 81400 333 05100;
0171567480999992000011418004+25130+099220FM-12+165599999V0209999C000012200019N0300001N1+00841+00451999999ADDAA199000021GF102991021041012501001001KA1999M+01701MA1999999083241MD1710051+0101REMSYN080    AAXX  14181 56748 32680 20000 10084 20045 38324 57005 82400 333 00101 10170;
0158567480999992000011421004+25130+099220FM-12+165599999V0209999C000010075019N0300001N1+00951+00461999999ADDAA124000791GF106991061041008001001001MA1999999083131MD1710111+0001REMSYN080    AAXX  14211 56748 42580 60000 10095 20046 38313 57011 86400 333 00005 79999;
0176567480999992000011500004+25130+099220FM-12+165599999V0209999C000012200019N0300001N1+01101+00481999999ADDAA124000791GF102991021041008001001001IA2999+00369MA1999999083171MD1210041+0001REMSYN086    AAXX  15001 56748 32580 20000 10110 20048 38317 52004 82400 333 00007 30036 79999;
0131567480999992000011503004+25130+099220FM-12+165599999V0209999C000012200019N0300001N1+01321+00451999999ADDGF102991021011008001001001MA1999999083401MD1210231+9999REMSYN064    AAXX  15031 56748 42580 20000 10132 20045 38340 52023 82100;
0190567480999992000011506004+25130+099220FM-12+165599999V0203201N001012200019N0300001N1+01621+00481999999ADDAA199000091GF102991021021008001001001KA1999N+00821MA1999999083281MD1710121+0101REMSYN080    AAXX  15061 56748 32580 23201 10162 20048 38328 57012 82200 333 00101 20082;EQDQ01  00002PRCP99
0141567480999992000011509004+25130+099220FM-12+165599999V0202701N001012200019N0300001N1+01621+00431999999ADDGF102991021021008001001001MA1999999083171MD1710111+0011REMSYN074    AAXX  15091 56748 42580 22701 10162 20043 38317 57011 82200 333 00101;
0171567480999992000011512004+25130+099220FM-12+165599999V0209999C000012200019N0300001N1+01331+00231999999ADDAA199000091GF101991011041012501001001MA1999999083251MD1210081+0021REMSYN074    AAXX  15121 56748 32680 10000 10133 20023 38325 52008 81400 333 00200;EQDQ01  00002PRCP99
0200567480999992000011518004+25130+099220FM-12+165599999V0209999C000012200019N0300001N1+00831+00221999999ADDAA199000091GA1001+999999999GF100991001001999999001001KA1999M+01751MA1999999083491MD1210031+0301REMSYN074    AAXX  15181 56748 32980 00000 10083 20022 38349 52003 333 00300 10175;EQDQ01  00002PRCP99
0151567480999992000011521004+25130+099220FM-12+165599999V0209999C000012200019N0300001N1+00421+00191999999ADDGA1001+999999999GF100991001001999999001001MA1999999083441MD1710051+0031REMSYN068    AAXX  15211 56748 42980 00000 10042 20019 38344 57005 333 00355;
0199567480999992000011600004+25130+099220FM-12+165599999V0209999C000012200019N0300001N1+00331+00121999999ADDAA199000091GA1001+999999999GF100991001001999999001001IA2999+00009MA1999999083501MD1210061+0301REMSYN074    AAXX  16001 56748 32980 00000 10033 20012 38350 52006 333 00358 31004;EQDQ01  00002PRCP99
0141567480999992000011603004+25130+099220FM-12+165599999V0209999C000012200019N0250001N1+01121+00231999999ADDGA1001+999999999GF100991001001999999001001MA1999999083651MD1210151+9999REMSYN058    AAXX  16031 56748 42975 00000 10112 20023 38365 52015;
0200567480999992000011606004+25130+099220FM-12+165599999V0201101N001012200019N0300001N1+01671-00011999999ADDAA199000091GA1001+999999999GF100991001001999999001001KA1999N+00291MA1999999083491MD1710161+0201REMSYN074    AAXX  16061 56748 32980 01101 10167 21001 38349 57016 333 00201 20029;EQDQ01  00002PRCP99
0141567480999992000011609004+25130+099220FM-12+165599999V0200201N001012200019N0300001N1+01721+00051999999ADDGF101991011011012501001001MA1999999083271MD1710221+0011REMSYN074    AAXX  16091 56748 42680 10201 10172 20005 38327 57022 81100 333 00101;
0171567480999992000011612004+25130+099220FM-12+165599999V0209999C000012200019N0300001N1+01331+00341999999ADDAA199000091GF101991011041012501001001MA1999999083361MD1210091+0011REMSYN074    AAXX  16121 56748 32680 10000 10133 20034 38336 52009 81400 333 00100;EQDQ01  00002PRCP99
0200567480999992000011618004+25130+099220FM-12+165599999V0209999C000012200019N0300001N1+00711+00391999999ADDAA199000091GA1001+999999999GF100991001001999999001001KA1999M+01791MA1999999083531MD1210031+0001REMSYN074    AAXX  16181 56748 32980 00000 10071 20039 38353 52003 333 00051 10179;EQDQ01  00002PRCP99
0151567480999992000011621004+25130+099220FM-12+165599999V0209999C000012200019N0300001N1+00471+00251999999ADDGA1001+999999999GF100991001001999999001001MA1999999083471MD1710061+0001REMSYN068    AAXX  16211 56748 42980 00000 10047 20025 38347 57006 333 00001;
0189567480999992000011700004+25130+099220FM-12+165599999V0209999C000012200019N0300001N1+00361+00221999999ADDAA199000091GF101991011011012501001001IA2999+00009MA1999999083531MD1210061+0001REMSYN080    AAXX  17001 56748 32680 10000 10036 20022 38353 52006 81100 333 00000 30004;EQDQ01  00002PRCP99
0131567480999992000011703004+25130+099220FM-12+165599999V0209999C000012200019N0250001N1+00911+00321999999ADDGF101991011011008001001001MA1999999083681MD1210151+9999REMSYN064    AAXX  17031 56748 42575 10000 10091 20032 38368 52015 81100;
0190567480999992000011706004+25130+099220FM-12+165599999V0202201N001012200019N0300001N1+01661+00361999999ADDAA199000091GF102991021021008001001001KA1999N+00351MA1999999083471MD1710211+0001REMSYN080    AAXX  17061 56748 32580 22201 10166 20036 38347 57021 82200 333 00000 20035;EQDQ01  00002PRCP99
0141567480999992000011709004+25130+099220FM-12+165599999V0202201N001012200019N0300001N1+01611+00111999999ADDGF102991021011008001001001MA1999999083271MD1710201+0001REMSYN074    AAXX  17091 56748 42580 22201 10161 20011 38327 57020 82100 333 00051;
0181567480999992000011712004+25130+099220FM-12+165599999V0202701N001012200019N0300001N1+01371+00181999999ADDAA199000091GA1001+999999999GF100991001001999999001001MA1999999083351MD1210081+0001REMSYN068    AAXX  17121 56748 32980 02701 10137 20018 38335 52008 333 00000;EQDQ01  00002PRCP99
0200567480999992000011718004+25130+099220FM-12+165599999V0209999C000012200019N0300001N1+00641+00321999999ADDAA199000091GA1001+999999999GF100991001001999999001001KA1999M+01741MA1999999083591MD1710011+0101REMSYN074    AAXX  17181 56748 32980 00000 10064 20032 38359 57001 333 00151 10174;EQDQ01  00002PRCP99
0151567480999992000011721004+25130+099220FM-12+165599999V0209999C000012200019N0300001N1+00411+00161999999ADDGA1001+999999999GF100991001001999999001001MA1999999083511MD1710081+0001REMSYN068    AAXX  17211 56748 42980 00000 10041 20016 38351 57008 333 00051;
0199567480999992000011800004+25130+099220FM-12+165599999V0209999C000012200019N0300001N1+00231+00091999999ADDAA199000091GA1001+999999999GF100991001001999999001001IA2999+00009MA1999999083591MD1210081+0101REMSYN074    AAXX  18001 56748 32980 00000 10023 20009 38359 52008 333 00151 31008;EQDQ01  00002PRCP99
0141567480999992000011803004+25130+099220FM-12+165599999V0209999C000012200019N0180001N1+00951+00171999999ADDGA1001+999999999GF100991001001999999001001MA1999999083741MD1210151+9999REMSYN058    AAXX  18031 56748 42968 00000 10095 20017 38374 52015;
0200567480999992000011806004+25130+099220FM-12+165599999V0202001N002012200019N0300001N1+01651-00251999999ADDAA199000091GA1001+999999999GF100991001001999999001001KA1999N+00201MA1999999083441MD1710301+0001REMSYN074    AAXX  18061 56748 32980 02002 10165 21025 38344 57030 333 00000 20020;EQDQ01  00002PRCP99
0151567480999992000011809004+25130+099220FM-12+165599999V0201801N001012200019N0300001N1+01671-00281999999ADDGA1001+999999999GF100991001001999999001001MA1999999083231MD1710211+0001REMSYN068    AAXX  18091 56748 42980 01801 10167 21028 38323 57021 333 00001;
0181567480999992000011812004+25130+099220FM-12+165599999V0209999C000012200019N0300001N1+01251+00001999999ADDAA199000091GA1001+999999999GF100991001001999999001001MA1999999083351MD1210121+0001REMSYN068    AAXX  18121 56748 32980 00000 10125 20000 38335 52012 333 00051;EQDQ01  00002PRCP99
0200567480999992000011818004+25130+099220FM-12+165599999V0209999C000012200019N0300001N1+00571+00191999999ADDAA199000091GA1001+999999999GF100991001001999999001001KA1999M+01741MA1999999083591MD1210011+0001REMSYN074    AAXX  18181 56748 32980 00000 10057 20019 38359 52001 333 00051 10174;EQDQ01  00002PRCP99
0151567480999992000011821004+25130+099220FM-12+165599999V0209999C000012200019N0300001N1+00411+00131999999ADDGA1001+999999999GF100991001001999999001001MA1999999083541MD1710051+0001REMSYN068    AAXX  18211 56748 42980 00000 10041 20013 38354 57005 333 00000;
0199567480999992000011900004+25130+099220FM-12+165599999V0209999C000012200019N0300001N1+00201+00001999999ADDAA199000091GA1001+999999999GF100991001001999999001001IA2999-00109MA1999999083601MD1210061+0001REMSYN074    AAXX  19001 56748 32980 00000 10020 20000 38360 52006 333 00000 31015;EQDQ01  00002PRCP99
0141567480999992000011903004+25130+099220FM-12+165599999V0209999C000012200019N0250001N1+00841+00101999999ADDGA1001+999999999GF100991001001999999001001MA1999999083751MD1210151+9999REMSYN058    AAXX  19031 56748 42975 00000 10084 20010 38375 52015;
0200567480999992000011906004+25130+099220FM-12+165599999V0209999C000012200019N0300001N1+01581+00321999999ADDAA199000091GA1001+999999999GF100991001001999999001001KA1999N+00181MA1999999083421MD1710331+0001REMSYN074    AAXX  19061 56748 32980 00000 10158 20032 38342 57033 333 00051 20018;EQDQ01  00002PRCP99
0141567480999992000011909004+25130+099220FM-12+165599999V0209999C000012200019N0300001N1+01711+00221999999ADDGF101991011011008001001001MA1999999083201MD1710221+0001REMSYN074    AAXX  19091 56748 42580 10000 10171 20022 38320 57022 81100 333 00000;
0171567480999992000011912004+25130+099220FM-12+165599999V0209999C000012200019N0300001N1+01291+00261999999ADDAA199000091GF102991021041012501001001MA1999999083161MD1710041+0021REMSYN074    AAXX  19121 56748 32680 20000 10129 20026 38316 57004 82400 333 05200;EQDQ01  00002PRCP99
0186567480999992000011918004+25130+099220FM-12+165599999V0209999C000010075019N0300001N1+00911+00511999999ADDAA199000091GF107991051041008001041999KA1999M+01781MA1999999083261MD1710091-0301REMSYN076AAXX  19181 56748 32580 70000 10091 20051 38326 57009 8544/ 333 05303 10178;EQDQ01  00002PRCP99
0166567480999992000011921004+25130+099220FM-12+165599999V0209999C000010075019N0300001N1+00861+00521999999ADDAA124000391GF107991071091008001999999MA1999999083081MD1710181-0501MW1251REMSYN082AAXX  19211 56748 41580 70000 10086 20052 38308 57018 72500 879// 333 05505 70002;
0180567480999992000012000004+25130+099220FM-12+165599999V0209999C000010075019N0300001N1+01191+00501999999ADDAA106000591AY181061GF107991071041008001999999MA1999999083031MD1710051-0601MW1001REMSYN088AAXX  20001 56748 11580 70000 10119 20050 38303 57005 69941 70080 874// 333 05610 70004;
0127567480999992000012003004+25130+099220FM-12+165599999V0201801N001010075019N0300001N1+01371+00421999999ADDGF107991071041008001999999MA1999999083131MD1210101+9999REMSYN060AAXX  20031 56748 42580 71801 10137 20042 38313 52010 874//;
0167567480999992000012006004+25130+099220FM-12+165599999V0201401N001010075019N0300001N1+01581+00381999999ADDAA199000021GF106991061021008001001001KA1999N+00831MA1999999082971MD1710161-0501REMSYN076AAXX  20061 56748 32580 61401 10158 20038 38297 57016 86200 333 05500 20083;
0137567480999992000012009004+25130+099220FM-12+165599999V0202001N001010075019N0300001N1+01491+00431999999ADDGF106991061021008001001001MA1999999082871MD1710101+0031REMSYN070AAXX  20091 56748 42580 62001 10149 20043 38287 57010 86200 333 05352;
0174567480999992000012012004+25130+099220FM-12+165599999V0202501N003012200019N0300001N1+01341+00351999999ADDAA106000791AY181061GF103991031021008001001001MA1999999083071MD1210201+0011MW1001REMSYN082AAXX  20121 56748 11580 32503 10134 20035 38307 52020 69901 70080 83200 333 05101;
0186567480999992000012018004+25130+099220FM-12+165599999V0209999C000012200019N0300001N1+01071+00001999999ADDAA199000091GF102991011041012501041001KA1999M+01681MA1999999083441MD1210121+0201REMSYN076AAXX  20181 56748 32680 20000 10107 20000 38344 52012 81440 333 00202 10168;EQDQ01  00002PRCP99
0164567480999992000012021004+25130+099220FM-12+165599999V0209999C000012200019N0300001N1+00671+00261999999ADDAA124000391GA1001+999999999GF100991001001999999001001MA1999999083401MD1710041+0301REMSYN070AAXX  20211 56748 42980 00000 10067 20026 38340 57004 333 00352 70002;
0172567480999992000012100004+25130+099220FM-12+165599999V0209999C000012200019N0300001N1+00391+00181999999ADDAA124000791GF101991011041012501001001IA2999+00039MA1999999083541MD1210141+0501REMSYN082AAXX  21001 56748 32680 10000 10039 20018 38354 52014 81400 333 00558 30003 79999;
0127567480999992000012103004+25130+099220FM-12+165599999V0209999C000010075019N0200001N1+00951+00341999999ADDGF106991061021008001001001MA1999999083721MD1210181+9999REMSYN060AAXX  21031 56748 42570 60000 10095 20034 38372 52018 86200;
0185567480999992000012106004+25130+099220FM-12+165599999V0202201N001012200019N0300001N1+01631+00311999999ADDAA106000791GF104991041021008001001001KA1999N+00351MA1999999083531MD1710191+0601MW1251REMSYN088AAXX  21061 56748 11580 42201 10163 20031 38353 57019 69901 72500 84200 333 00601 20035;
0137567480999992000012109004+25130+099220FM-12+165599999V0202701N002012200019N0300001N1+01591+00201999999ADDGF104991031021008001001021MA1999999083381MD1710151+0051REMSYN070AAXX  21091 56748 42580 42702 10159 20020 38338 57015 83202 333 00501;
0148567480999992000012112004+25130+099220FM-12+165599999V0209999C000012200019N0300001N1+01141+00461999999ADDAA199000021GF101991011041012501001001MA1999999083511MD1210131+0041REMSYN070AAXX  21121 56748 32680 10000 10114 20046 38351 52013 81400 333 00452;
0177567480999992000012118004+25130+099220FM-12+165599999V0209999C000012200019N0300001N1+00601+00361999999ADDAA199000021GA1001+999999999GF100991001001999999001001KA1999M+01691MA1999999083701MD1210021+0301REMSYN070AAXX  21181 56748 32980 00000 10060 20036 38370 52002 333 00355 10169;
0154567480999992000012121004+25130+099220FM-12+165599999V0209999C000012200019N0300001N1+00391+00231999999ADDAA124000791GF101991011011012501001001MA1999999083591MD1710111+0201REMSYN076AAXX  21211 56748 42680 10000 10039 20023 38359 57011 81100 333 00253 79999;
0172567480999992000012200004+25130+099220FM-12+165599999V0209999C000012200019N0300001N1+00281+00191999999ADDAA124000791GF101991011041012501001001IA2999-00099MA1999999083661MD1210071+0101REMSYN082AAXX  22001 56748 32680 10000 10028 20019 38366 52007 81400 333 00151 31009 79999;
0127567480999992000012203004+25130+099220FM-12+165599999V0209999C000012200019N0200001N1+00901+00331999999ADDGF102991011011012501041001MA1999999083791MD1210131+9999REMSYN060AAXX  22031 56748 42670 20000 10090 20033 38379 52013 81140;
0186567480999992000012206004+25130+099220FM-12+165599999V0201401N001012200019N0300001N1+01581+00031999999ADDAA199000091GF103991011021008001041021KA1999N+00241MA1999999083551MD1710241+0001REMSYN076AAXX  22061 56748 32580 31401 10158 20003 38355 57024 81242 333 00051 20024;EQDQ01  00002PRCP99
0137567480999992000012209004+25130+099220FM-12+165599999V0209999C000010075019N0300001N1+01401+00171999999ADDGF106991051021008001001021MA1999999083401MD1710151+0001REMSYN070AAXX  22091 56748 42580 60000 10140 20017 38340 57015 85202 333 00052;
0174567480999992000012212004+25130+099220FM-12+165599999V0209999C000012200019N0300001N1+01011+00421999999ADDAA106000791AY181061GF104991041021008001001001MA1999999083451MD1210051+0011MW1251REMSYN082AAXX  22121 56748 11580 40000 10101 20042 38345 52005 69901 72580 84200 333 05151;
0193567480999992000012218004+25130+099220FM-12+165599999V0209999C000012200019N0250001N1+00651+00351999999ADDAA106000791AY181061GF104991021041012501041001KA1999M+01701MA1999999083561MD1710011-0101MW1001REMSYN088AAXX  22181 56748 11675 40000 10065 20035 38356 57001 69901 70080 82440 333 05101 10170;
0154567480999992000012221004+25130+099220FM-12+165599999V0209999C000010120019N0300001N1+00611+00401999999ADDAA124000791GF107991061041012501041999MA1999999083411MD1710151-0201REMSYN076AAXX  22211 56748 42680 70000 10061 20040 38341 57015 8644/ 333 05202 79999;
0198567480999992000012300004+25130+099220FM-12+165599999V0209999C000010075019N0200001N1+00671+00531999999ADDAA106001091AY181061GF108991081091008001999999IA2999+00349MA1999999083481MD1210071-0201MW1801REMSYN094AAXX  23001 56748 11570 80000 10067 20053 38348 52007 60011 78080 889// 333 05204 30034 70010;
0147567480999992000012303004+25130+099220FM-12+165599999V0209999C000010075019N0200001N1+00791+00631999999ADDAY181031GF108991081091008001999999MA1999999083681MD1210201+9999MW1801REMSYN066AAXX  23031 56748 41570 80000 10079 20063 38368 52020 78080 889//;
0193567480999992000012306004+25130+099220FM-12+165599999V0201401N001010075019N0300001N1+01031+00621999999ADDAA106002091AY181061GF107991071021008001999999KA1999N+00591MA1999999083541MD1710141+0001MW1001REMSYN088AAXX  23061 56748 11580 71401 10103 20062 38354 57014 60021 70080 872// 333 00056 20059;
0137567480999992000012309004+25130+099220FM-12+165599999V0209999C000010075019N0300001N1+01271+00451999999ADDGF107991051091008001041021MA1999999083421MD1710121+0001REMSYN070AAXX  23091 56748 42580 70000 10127 20045 38342 57012 85942 333 00051;
0148567480999992000012312004+25130+099220FM-12+165599999V0209999C000012200019N0300001N1+00991+00511999999ADDAA199000021GF104991041041008001001001MA1999999083471MD1210051+0001REMSYN070AAXX  23121 56748 32580 40000 10099 20051 38347 52005 84400 333 00000;
0186567480999992000012318004+25130+099220FM-12+165599999V0209999C000012200019N0300001N1+00571+00421999999ADDAA199000091GF101991011041012501001001KA1999M+01421MA1999999083661MD1210051+0101REMSYN076AAXX  23181 56748 32680 10000 10057 20042 38366 52005 81400 333 00151 10142;EQDQ01  00002PRCP99
0164567480999992000012321004+25130+099220FM-12+165599999V0209999C000012200019N0300001N1+00441+00331999999ADDAA124002591GA1001+999999999GF100991001001999999001001MA1999999083601MD1710061+0201REMSYN070AAXX  23211 56748 42980 00000 10044 20033 38360 57006 333 00252 70026;
0172567480999992000012400004+25130+099220FM-12+165599999V0209999C000010075019N0250001N1+00491+00361999999ADDAA124001591GF107991071041008001999999IA2999+00069MA1999999083721MD1210121+0201REMSYN082AAXX  24001 56748 32575 70000 10049 20036 38372 52012 874// 333 00252 30006 70016;
0137567480999992000012403004+25130+099220FM-12+165599999V0209999C000012200019N0200001N1+00961+00351999999ADDGA1001+999999999GF100991001001999999001001MA1999999083911MD1210191+9999REMSYN054AAXX  24031 56748 42970 00000 10096 20035 38391 52019;
0186567480999992000012406004+25130+099220FM-12+165599999V0209999C000012200019N0300001N1+01411+00261999999ADDAA199000091GF103991031021008001001001KA1999N+00341MA1999999083701MD1710211+0201REMSYN076AAXX  24061 56748 32580 30000 10141 20026 38370 57021 83200 333 00204 20034;EQDQ01  00002PRCP99
0127567480999992000012409004+25130+099220FM-12+165599999V0209999C000010075019N0300001N1+01371+00361999999ADDGF107991071041008001001001MA1999999083621MD1710081+9999REMSYN060AAXX  24091 56748 42580 70000 10137 20036 38362 57008 87400;
0167567480999992000012412004+25130+099220FM-12+165599999V0209999C000010075019N0300001N1+01201+00411999999ADDAA199000091GF107991071041008001999999MA1999999083681MD1210061+0021REMSYN070AAXX  24121 56748 32580 70000 10120 20041 38368 52006 874// 333 00202;EQDQ01  00002PRCP99
0185567480999992000012418004+25130+099220FM-12+165599999V0209999C000010075019N0250001N1+00851+00571999999ADDAA106000791GF107991071041008001999999KA1999M+01501MA1999999083791MD1710011+0101MW1801REMSYN088AAXX  24181 56748 11575 70000 10085 20057 38379 57001 69901 78000 874// 333 00103 10150;
0154567480999992000012421004+25130+099220FM-12+165599999V0209999C000012200019N0300001N1+00731+00481999999ADDAA124000791GF102991021041008001001001MA1999999083711MD1710081+0101REMSYN076AAXX  24211 56748 42580 20000 10073 20048 38371 57008 82400 333 00103 79999;
0172567480999992000012500004+25130+099220FM-12+165599999V0209999C000010075019N0250001N1+00661+00471999999ADDAA124000791GF107991071041008001999999IA2999+00299MA1999999083811MD1210101+0101REMSYN082AAXX  25001 56748 32575 70000 10066 20047 38381 52010 874// 333 00102 30029 79999;
0127567480999992000012503004+25130+099220FM-12+165599999V0209999C000010075019N0200001N1+00891+00531999999ADDGF107991071041008001999999MA1999999084011MD1210201+9999REMSYN060AAXX  25031 56748 42570 70000 10089 20053 38401 52020 874//;
0167567480999992000012506004+25130+099220FM-12+165599999V0202201N001010075019N0300001N1+01671+00421999999ADDAA199000021GF106991061021008001001001KA1999N+00561MA1999999083751MD1710261+0101REMSYN076AAXX  25061 56748 32580 62201 10167 20042 38375 57026 86200 333 00103 20056;
0137567480999992000012509004+25130+099220FM-12+165599999V0201401N001010075019N0300001N1+01701+00221999999ADDGF106991061021008001001001MA1999999083611MD1710141+0001REMSYN070AAXX  25091 56748 42580 61401 10170 20022 38361 57014 86200 333 00003;
0167567480999992000012511004+25130+099220FM-12+165599999V0209999C000012200019N0300001N1+01321+00491999999ADDAA199000091GF101991011021008001001001MA1999999083741MD1210131+0011REMSYN070AAXX  25111 56748 32580 10000 10132 20049 38374 52013 81200 333 00101;EQDQ01  00002PRCP99
0167567480999992000012512004+25130+099220FM-12+165599999V0209999C000012200019N0300001N1+01321+00491999999ADDAA199000091GF101991011021008001001001MA1999999083741MD1210131+0011REMSYN070AAXX  25121 56748 32580 10000 10132 20049 38374 52013 81200 333 00101;EQDQ01  00002PRCP99
0186567480999992000012518004+25130+099220FM-12+165599999V0209999C000010075019N0300001N1+00771+00441999999ADDAA199000091GF106991061041008001001001KA1999M+01771MA1999999083911MD1210021+0101REMSYN076AAXX  25181 56748 32580 60000 10077 20044 38391 52002 86400 333 00151 10177;EQDQ01  00002PRCP99
0147567480999992000012521004+25130+099220FM-12+165599999V0209999C000012200019N0300001N1+00621+00411999999ADDGA1001+999999999GF100991001001999999001001MA1999999083851MD1710061+0011REMSYN064AAXX  25211 56748 42980 00000 10062 20041 38385 57006 333 00151;
0185567480999992000012600004+25130+099220FM-12+165599999V0209999C000010075019N0300001N1+00511+00341999999ADDAA199000091GF107991071041008001999999IA2999+00209MA1999999083881MD1210031+0101REMSYN076AAXX  26001 56748 32580 70000 10051 20034 38388 52003 874// 333 00152 30020;EQDQ01  00002PRCP99
0127567480999992000012603004+25130+099220FM-12+165599999V0209999C000010075019N0250001N1+00931+00441999999ADDGF107991071021008001999999MA1999999084081MD1210201+9999REMSYN060AAXX  26031 56748 42575 70000 10093 20044 38408 52020 872//;
0186567480999992000012606004+25130+099220FM-12+165599999V0201401N001010075019N0300001N1+01491+00591999999ADDAA199000091GF106991061021008001001001KA1999N+00471MA1999999083821MD1710261+0101REMSYN076AAXX  26061 56748 32580 61401 10149 20059 38382 57026 86200 333 00152 20047;EQDQ01  00002PRCP99
0137567480999992000012609004+25130+099220FM-12+165599999V0201801N001012200019N0300001N1+01791+00011999999ADDGF101991011011008001001001MA1999999083641MD1710181+0001REMSYN070AAXX  26091 56748 42580 11801 10179 20001 38364 57018 81100 333 00001;
0177567480999992000012612004+25130+099220FM-12+165599999V0209999C000012200019N0300001N1+01321+00421999999ADDAA199000091GA1001+999999999GF100991001001999999001001MA1999999083681MD1210041+0011REMSYN064AAXX  26121 56748 32980 00000 10132 20042 38368 52004 333 05100;EQDQ01  00002PRCP99
0186567480999992000012618004+25130+099220FM-12+165599999V0209999C000012200019N0300001N1+00731+00371999999ADDAA199000091GF102991021001999999041001KA1999M+01881MA1999999083771MD1710021-0101REMSYN076AAXX  26181 56748 32980 20000 10073 20037 38377 57002 82040 333 05100 10188;EQDQ01  00002PRCP99
0147567480999992000012621004+25130+099220FM-12+165599999V0209999C000012200019N0300001N1+00571+00331999999ADDGA1001+999999999GF100991001001999999001001MA1999999083711MD1710061+0011REMSYN064AAXX  26211 56748 42980 00000 10057 20033 38371 57006 333 05151;
0195567480999992000012700004+25130+099220FM-12+165599999V0209999C000012200019N0300001N1+00411+00251999999ADDAA199000091GA1001+999999999GF100991001001999999001001IA2999+00109MA1999999083751MD1210041-0101REMSYN070AAXX  27001 56748 32980 00000 10041 20025 38375 52004 333 05151 30015;EQDQ01  00002PRCP99
0127567480999992000012703004+25130+099220FM-12+165599999V0209999C000012200019N0250001N1+00991+00421999999ADDGF102991021011008001001001MA1999999083871MD1210121+9999REMSYN060AAXX  27031 56748 42575 20000 10099 20042 38387 52012 82100;
0186567480999992000012706004+25130+099220FM-12+165599999V0203401N001012200019N0300001N1+01671+00181999999ADDAA199000091GF102991021021008001001001KA1999N+00341MA1999999083581MD1710291-0201REMSYN076AAXX  27061 56748 32580 23401 10167 20018 38358 57029 82200 333 05202 20034;EQDQ01  00002PRCP99
0137567480999992000012709004+25130+099220FM-12+165599999V0202501N001012200019N0300001N1+01791+00041999999ADDGF102991021021008001001001MA1999999083361MD1710221+0031REMSYN070AAXX  27091 56748 42580 22501 10179 20004 38336 57022 82200 333 05300;
0167567480999992000012712004+25130+099220FM-12+165599999V0209999C000012200019N0300001N1+01491+00321999999ADDAA199000091GF102991021041008001001001MA1999999083421MD1210061+0031REMSYN070AAXX  27121 56748 32580 20000 10149 20032 38342 52006 82400 333 05302;EQDQ01  00002PRCP99
0186567480999992000012718004+25130+099220FM-12+165599999V0209999C000012200019N0300001N1+01151+00321999999ADDAA199000091GF102991021041008001001001KA1999M+01881MA1999999083551MD1410001-0201REMSYN076AAXX  27181 56748 32580 20000 10115 20032 38355 54000 82400 333 05204 10188;EQDQ01  00002PRCP99
0147567480999992000012721004+25130+099220FM-12+165599999V0209999C000012200019N0300001N1+00851+00341999999ADDGA1001+999999999GF100991001001999999001001MA1999999083511MD1710041+0021REMSYN064AAXX  27211 56748 42980 00000 10085 20034 38351 57004 333 05203;
0195567480999992000012800004+25130+099220FM-12+165599999V0209999C000012200019N0300001N1+00511+00191999999ADDAA199000091GA1001+999999999GF100991001001999999001001IA2999+00009MA1999999083581MD1210071-0201REMSYN070AAXX  28001 56748 32980 00000 10051 20019 38358 52007 333 05201 30009;EQDQ01  00002PRCP99
0127567480999992000012803004+25130+099220FM-12+165599999V0209999C000012200019N0200001N1+01151+00321999999ADDGF101991011011012501001001MA1999999083721MD1210141+9999REMSYN060AAXX  28031 56748 42670 10000 10115 20032 38372 52014 81100;
0186567480999992000012806004+25130+099220FM-12+165599999V0202701N001012200019N0300001N1+01641+00011999999ADDAA199000091GF101991011011008001001001KA1999N+00461MA1999999083471MD1710251-0101REMSYN076AAXX  28061 56748 32580 12701 10164 20001 38347 57025 81100 333 05100 20046;EQDQ01  00002PRCP99
0137567480999992000012809004+25130+099220FM-12+165599999V0201401N002012200019N0300001N1+01641-00021999999ADDGF102991021011008001001001MA1999999083321MD1710151+0001REMSYN070AAXX  28091 56748 42580 21402 10164 21002 38332 57015 82100 333 00052;
0167567480999992000012812004+25130+099220FM-12+165599999V0209999C000010075019N0300001N1+01361+00081999999ADDAA199000091GF106991061021008001041001MA1999999083411MD1210091+0001REMSYN070AAXX  28121 56748 32580 60000 10136 20008 38341 52009 86240 333 00051;EQDQ01  00002PRCP99
0196567480999992000012818004+25130+099220FM-12+165599999V0209999C000012200019N0300001N1+00871+00031999999ADDAA199000091GA1001+999999999GF100991001001999999001001KA1999M+01741MA1999999083651MD1210011+0101REMSYN070AAXX  28181 56748 32980 00000 10087 20003 38365 52001 333 00153 10174;EQDQ01  00002PRCP99
0147567480999992000012821004+25130+099220FM-12+165599999V0209999C000012200019N0300001N1+00601+00151999999ADDGA1001+999999999GF100991001001999999001001MA1999999083581MD1710071+0011REMSYN064AAXX  28211 56748 42980 00000 10060 20015 38358 57007 333 00153;
0195567480999992000012900004+25130+099220FM-12+165599999V0209999C000012200019N0300001N1+00461+00191999999ADDAA199000091GA1001+999999999GF100991001001999999001001IA2999+00009MA1999999083671MD1210091+0101REMSYN070AAXX  29001 56748 32980 00000 10046 20019 38367 52009 333 00151 30001;EQDQ01  00002PRCP99
0127567480999992000012903004+25130+099220FM-12+165599999V0209999C000012200019N0200001N1+01011+00291999999ADDGF103991031041012501001001MA1999999083821MD1210151+9999REMSYN060AAXX  29031 56748 42670 30000 10101 20029 38382 52015 83400;
0186567480999992000012906004+25130+099220FM-12+165599999V0201601N002010075019N0300001N1+01651+00051999999ADDAA199000091GF105991051021008001001001KA1999N+00391MA1999999083591MD1710231+0101REMSYN076AAXX  29061 56748 32580 51602 10165 20005 38359 57023 85200 333 00100 20039;EQDQ01  00002PRCP99
0137567480999992000012909004+25130+099220FM-12+165599999V0200901N001010075019N0300001N1+01611-00291999999ADDGF105991051021008001001001MA1999999083381MD1710211+0011REMSYN070AAXX  29091 56748 42580 50901 10161 21029 38338 57021 85200 333 00100;
0167567480999992000012912004+25130+099220FM-12+165599999V0209999C000010075019N0300001N1+01331+00091999999ADDAA199000091GF107991071041008001999999MA1999999083441MD1210061+0001REMSYN070AAXX  29121 56748 32580 70000 10133 20009 38344 52006 874// 333 00000;EQDQ01  00002PRCP99
0185567480999992000012918004+25130+099220FM-12+165599999V0201801N001010075019N0300001N1+00791+00251999999ADDAA106000791GF107991071091008001999999KA1999M+01751MA1999999083571MD1710021-0101MW1801REMSYN088AAXX  29181 56748 11580 71801 10079 20025 38357 57002 69901 78000 879// 333 05151 10175;
0182567480999992000012921004+25130+099220FM-12+165599999V0209999C000010075019N0300001N1+00721+00341999999ADDAA124001391AY191031AY281031GF108991081091008001999999MA1999999083451MD1710121-0101MW1801REMSYN082AAXX  29211 56748 41580 80000 10072 20034 38345 57012 78098 889// 333 05101 70012;
0219567480999992000013000004+25130+099220FM-12+165599999V0209999C000010075019N0300001N1+00631+00441999999ADDAA106002091AY191061AY281061GF108991081091008001999999HL10009IA2999+00329MA1999999083491MD1210041-0201MW1801REMSYN100AAXX  30001 56748 11580 80000 10063 20044 38349 52004 60021 78098 889// 333 05202 30032 70021 93903;
0147567480999992000013003004+25130+099220FM-12+165599999V0209999C000010075019N0300001N1+00891+00461999999ADDAY181031GF107991061091008001001021MA1999999083701MD1210211+9999MW1001REMSYN066AAXX  30031 56748 41580 70000 10089 20046 38370 52021 70080 86902;
0193567480999992000013006004+25130+099220FM-12+165599999V0203201N001012200019N0300001N1+01301+00071999999ADDAA106000191AY181061GF103991031021008001001001KA1999N+00551MA1999999083511MD1710191-0101MW1001REMSYN088AAXX  30061 56748 11580 33201 10130 20007 38351 57019 69911 70080 83200 333 05154 20055;
0157567480999992000013009004+25130+099220FM-12+165599999V0202901N001010075019N0300001N1+00921+00211999999ADDAY181031GF107991071091008001999999MA1999999083461MD1710051+0011MW1801REMSYN076AAXX  30091 56748 41580 72901 10092 20021 38346 57005 78080 879// 333 00157;
0184567480999992000013012004+25130+099220FM-12+165599999V0209999C000012200019N0300001N1+00811+00341999999ADDAA106000591AY181061GA1001+999999999GF100991001001999999001001MA1999999083621MD1210161+0021MW1001REMSYN076AAXX  30121 56748 11980 00000 10081 20034 38362 52016 69961 70080 333 00255;
0177567480999992000013018004+25130+099220FM-12+165599999V0209999C000012200019N0300001N1+00611+00161999999ADDAA199000021GA1001+999999999GF100991001001999999001001KA1999M+01461MA1999999083861MD1210041+0301REMSYN070AAXX  30181 56748 32980 00000 10061 20016 38386 52004 333 00352 10146;
0164567480999992000013021004+25130+099220FM-12+165599999V0209999C000012200019N0300001N1+00311+00101999999ADDAA124001591GA1001+999999999GF100991001001999999001001MA1999999083761MD1710101+0301REMSYN070AAXX  30211 56748 42980 00000 10031 20010 38376 57010 333 00354 70016;
0182567480999992000013100004+25130+099220FM-12+165599999V0209999C000012200019N0300001N1+00131-00041999999ADDAA124000891GA1001+999999999GF100991001001999999001001IA2999-00129MA1999999083881MD1210121+0401REMSYN076AAXX  31001 56748 32980 00000 10013 21004 38388 52012 333 00455 31012 70007;
0137567480999992000013103004+25130+099220FM-12+165599999V0209999C000012200019N0250001N1+00751+00151999999ADDGA1001+999999999GF100991001001999999001001MA1999999084101MD1210221+9999REMSYN054AAXX  31031 56748 42975 00000 10075 20015 38410 52022;
0186567480999992000013106004+25130+099220FM-12+165599999V0209999C000012200019N0300001N1+01331+00111999999ADDAA199000091GF101991011011008001001001KA1999N+00121MA1999999083811MD1710291+0301REMSYN076AAXX  31061 56748 32580 10000 10133 20011 38381 57029 81100 333 00300 20012;EQDQ01  00002PRCP99
0147567480999992000013109004+25130+099220FM-12+165599999V0202701N001012200019N0300001N1+01581-00471999999ADDGA1001+999999999GF100991001001999999001001MA1999999083601MD1710211+0011REMSYN064AAXX  31091 56748 42980 02701 10158 21047 38360 57021 333 00107;
0177567480999992000013112004+25130+099220FM-12+165599999V0209999C000012200019N0300001N1+01141-00081999999ADDAA199000091GA1001+999999999GF100991001001999999001001MA1999999083721MD1210121+0011REMSYN064AAXX  31121 56748 32980 00000 10114 21008 38372 52012 333 00103;EQDQ01  00002PRCP99
0196567480999992000013118004+25130+099220FM-12+165599999V0209999C000012200019N0300001N1+00411+00111999999ADDAA199000091GA1001+999999999GF100991001001999999001001KA1999M+01631MA1999999083881MD1710041+0001REMSYN070AAXX  31181 56748 32980 00000 10041 20011 38388 57004 333 00052 10163;EQDQ01  00002PRCP99
0147567480999992000013121004+25130+099220FM-12+165599999V0209999C000012200019N9999999N1+00281+00011999999ADDGA1001+999999999GF100991001001999999001001MA1999999083781MD1710101+0001REMSYN064AAXX  31211 56748 4380/ 00000 10028 20001 38378 57010 333 00000;
0185567480999992000020100004+25130+099220FM-12+165599999V0209999C000010075019N0300001N1+00251-00051999999ADDAA199000091GF106991061041008001001001IA2999-00109MA1999999083801MD1210021-0101REMSYN076AAXX  01001 56748 32580 60000 10025 21005 38380 52002 86400 333 05101 31010;EQDQ01  00002PRCP99
0127567480999992000020103004+25130+099220FM-12+165599999V0209999C000010075019N0250001N1+00691+00131999999ADDGF107991071021008001001001MA1999999083951MD1210151+9999REMSYN060AAXX  01031 56748 42575 70000 10069 20013 38395 52015 87200;
0185567480999992000020106004+25130+099220FM-12+165599999V0209999C000010075019N0300001N1+01201+00181999999ADDAA106000791GF107991071091008001999999KA1999N+00201MA1999999083641MD1710311-0201MW1801REMSYN088AAXX  01061 56748 11580 70000 10120 20018 38364 57031 69901 78000 879// 333 05251 20020;
0137567480999992000020109004+25130+099220FM-12+165599999V0202501N001012200019N0300001N1+01471+00241999999ADDGF103991031091008001001001MA1999999083451MD1710191+0021REMSYN070AAXX  01091 56748 42580 32501 10147 20024 38345 57019 83900 333 05251;
0148567480999992000020112004+25130+099220FM-12+165599999V0209999C000012200019N0300001N1+01191+00301999999ADDAA199000021GF102991021041008001001001MA1999999083531MD1210081+0021REMSYN070AAXX  01121 56748 32580 20000 10119 20030 38353 52008 82400 333 05201;
0167567480999992000020118004+25130+099220FM-12+165599999V0209999C000012200019N0300001N1+00721+00381999999ADDAA199000021GF102991021041012501001001KA1999M+01581MA1999999083601MD1710041-0301REMSYN076AAXX  01181 56748 32680 20000 10072 20038 38360 57004 82400 333 05303 10158;
0154567480999992000020121004+25130+099220FM-12+165599999V0209999C000012200019N0300001N1+00561+00371999999ADDAA124000791GF102991021041008001001001MA1999999083581MD1710021-0201REMSYN076AAXX  01211 56748 42580 20000 10056 20037 38358 57002 82400 333 05203 79999;
0172567480999992000020200004+25130+099220FM-12+165599999V0209999C000012200019N0300001N1+00431+00271999999ADDAA124000791GF101991011041012501001001IA2999-00049MA1999999083671MD1210091-0101REMSYN082AAXX  02001 56748 32680 10000 10043 20027 38367 52009 81400 333 05102 31004 79999;
0127567480999992000020203004+25130+099220FM-12+165599999V0209999C000012200019N0250001N1+00951+00461999999ADDGF104991041021008001001001MA1999999083841MD1210171+9999REMSYN060AAXX  02031 56748 42575 40000 10095 20046 38384 52017 84200;
0186567480999992000020206004+25130+099220FM-12+165599999V0201601N001010075019N0300001N1+01471+00241999999ADDAA199000091GF105991051021008001001021KA1999N+00361MA1999999083651MD1710191+0001REMSYN076AAXX  02061 56748 32580 51601 10147 20024 38365 57019 85202 333 00003 20036;EQDQ01  00002PRCP99
0157567480999992000020209004+25130+099220FM-12+165599999V0202701N001010075019N0300001N1+01151+00611999999ADDAY181031GF107991071091008001999999MA1999999083491MD1710161+0001MW1801REMSYN076AAXX  02091 56748 41580 72701 10115 20061 38349 57016 78080 879// 333 00053;
0174567480999992000020212004+25130+099220FM-12+165599999V02099999999992200019N0300001N1+01031+00601999999ADDAA106003091AY181061GF102991021041012501001001MA1999999083541MD1210051+0001MW1001REMSYN082AAXX  02121 56748 11680 2///0 10103 20060 38354 52005 60031 70080 82400 333 00052;
0193567480999992000020218004+25130+099220FM-12+165599999V0209999C000010075019N0300001N1+00911+00511999999ADDAA106000791AY181061GF107991071041008001999999KA1999M+01631MA1999999083601MD1710081+0001MW1001REMSYN088AAXX  02181 56748 11580 70000 10091 20051 38360 57008 69901 70080 874// 333 00002 10163;
0154567480999992000020221004+25130+099220FM-12+165599999V0209999C000012200019N0300001N1+01071+00511999999ADDAA124002591GF102991021041008001001001MA1999999083481MD1710121-0101REMSYN076AAXX  02211 56748 42580 20000 10107 20051 38348 57012 82400 333 05105 70025;
0198567480999992000020300004+25130+099220FM-12+165599999V0209999C000010075019N0300001N1+00991+00511999999ADDAA106001091AY181061GF108991081091008001999999IA2999+00379MA1999999083601MD1210121-0101MW1801REMSYN094AAXX  03001 56748 11580 80000 10099 20051 38360 52012 60011 78080 889// 333 05106 30037 70036;
0147567480999992000020303004+25130+099220FM-12+165599999V0209999C000012200019N0300001N1+01271+00741999999ADDAY181031GF102991021021008001001001MA1999999083771MD1210171+9999MW1001REMSYN066AAXX  03031 56748 41580 20000 10127 20074 38377 52017 70080 82200;
0193567480999992000020306004+25130+099220FM-12+165599999V0200201N001012200019N0300001N1+01561+00421999999ADDAA106003091AY181061GF102991011021008001041001KA1999N+00741MA1999999083541MD1710231-0101MW1001REMSYN088AAXX  03061 56748 11580 20201 10156 20042 38354 57023 60031 70080 81240 333 05101 20074;
0137567480999992000020309004+25130+099220FM-12+165599999V0209999C000010360019N0300001N1+01561+00291999999ADDGF106991041091008001041001MA1999999083351MD1710191+0011REMSYN070AAXX  03091 56748 42580 60000 10156 20029 38335 57019 84940 333 05104;
0174567480999992000020312004+25130+099220FM-12+165599999V0209999C000010075019N0250001N1+01291+00381999999ADDAA106000191AY181061GF108991081091008001999999MA1999999083491MD1210141+0011MW1801REMSYN082AAXX  03121 56748 11575 80000 10129 20038 38349 52014 69911 78080 889// 333 05103;
0193567480999992000020318004+25130+099220FM-12+165599999V0209999C000012200019N0300001N1+00791+00571999999ADDAA106001091AY181061GF102991021041008001001001KA1999M+01731MA1999999083681MD1210031+0101MW1001REMSYN088AAXX  03181 56748 11580 20000 10079 20057 38368 52003 60011 70080 82400 333 00151 10173;
0154567480999992000020321004+25130+099220FM-12+165599999V0209999C000012200019N0300001N1+00601+00451999999ADDAA124005391GF103991031041008001001001MA1999999083541MD1710141+0101REMSYN076AAXX  03211 56748 42580 30000 10060 20045 38354 57014 83400 333 00155 70054;
0172567480999992000020400004+25130+099220FM-12+165599999V0209999C000012200019N0300001N1+00411+00321999999ADDAA124004391GF101991011011008001001001IA2999+00159MA1999999083581MD1210041+0001REMSYN082AAXX  04001 56748 32580 10000 10041 20032 38358 52004 81100 333 00056 30015 70043;
0127567480999992000020403004+25130+099220FM-12+165599999V0209999C000012200019N0200001N1+01011+00531999999ADDGF101991011011008001001001MA1999999083691MD1210111+9999REMSYN060AAXX  04031 56748 42570 10000 10101 20053 38369 52011 81100;
0186567480999992000020406004+25130+099220FM-12+165599999V0202701N001012200019N0300001N1+01531+00331999999ADDAA199000091GF102991021021008001001001KA1999N+00371MA1999999083461MD1710231-0101REMSYN076AAXX  04061 56748 32580 22701 10153 20033 38346 57023 82200 333 05100 20037;EQDQ01  00002PRCP99
0137567480999992000020409004+25130+099220FM-12+165599999V0209999C000012200019N0300001N1+01501+00441999999ADDGF102991021021008001001001MA1999999083281MD1710181+0011REMSYN070AAXX  04091 56748 42580 20000 10150 20044 38328 57018 82200 333 05151;
0167567480999992000020412004+25130+099220FM-12+165599999V0209999C000012200019N0300001N1+01261+00491999999ADDAA199000091GF104991041091008001001001MA1999999083381MD1210101+0011REMSYN070AAXX  04121 56748 32580 40000 10126 20049 38338 52010 84900 333 05100;EQDQ01  00002PRCP99
0203567480999992000020418004+25130+099220FM-12+165599999V0209999C000012200019N0300001N1+00751+00611999999ADDAA106000891AY181061GA1001+999999999GF100991001001999999001001KA1999M+01651MA1999999083561MD1410001-0101MW1001REMSYN082AAXX  04181 56748 11980 00000 10075 20061 38356 54000 69971 70080 333 05100 10165;
0154567480999992000020421004+25130+099220FM-12+165599999V0209999C000012200019N0300001N1+00581+00451999999ADDAA124000891GF101991011041012501001001MA1999999083421MD1710141-0101REMSYN076AAXX  04211 56748 42680 10000 10058 20045 38342 57014 81400 333 05100 70007;
0198567480999992000020500004+25130+099220FM-12+165599999V0209999C000012200019N0250001N1+00671+00511999999ADDAA106000191AY181061GF103991031041008001001001IA2999+00259MA1999999083511MD1210091-0101MW1001REMSYN094AAXX  05001 56748 11575 30000 10067 20051 38351 52009 69911 70080 83400 333 05103 30025 70008;
0127567480999992000020503004+25130+099220FM-12+165599999V0209999C000012200019N0150001N1+01301+00671999999ADDGF101991011011008001001001MA1999999083661MD1210151+9999REMSYN060AAXX  05031 56748 42565 10000 10130 20067 38366 52015 81100;
0186567480999992000020506004+25130+099220FM-12+165599999V0202901N001012200019N0300001N1+01691+00181999999ADDAA199000091GF103991021021008001001021KA1999N+00551MA1999999083511MD1710151+0101REMSYN076AAXX  05061 56748 32580 32901 10169 20018 38351 57015 82202 333 00102 20055;EQDQ01  00002PRCP99
0137567480999992000020509004+25130+099220FM-12+165599999V0201801N001012200019N0300001N1+01731+00361999999ADDGF102991021021008001001001MA1999999083341MD1710171+0011REMSYN070AAXX  05091 56748 42580 21801 10173 20036 38334 57017 82200 333 00102;
0167567480999992000020512004+25130+099220FM-12+165599999V0209999C000012200019N0300001N1+01411+00261999999ADDAA199000091GF102991021041008001001001MA1999999083391MD1210051+0001REMSYN070AAXX  05121 56748 32580 20000 10141 20026 38339 52005 82400 333 00002;EQDQ01  00002PRCP99
0190567480999992000020518004+25130+099220FM-12+165599999V0209999C000012200019N0300001N1+00741+00431999999ADDAA199000091GA1001+999999999GF100991001001999999001001KA1999M+01831MA1999999083541MD1999999+0001REMSYN064AAXX  05181 56748 32980 00000 10074 20043 38354 333 00000 10183;EQDQ01  00002PRCP99
0174567480999992000020521004+25130+099220FM-12+165599999V0209999C000010075019N0300001N1+00601-00391999999ADDAA124000191GF107991071041008001999999MD1711062+0101REMSYN076AAXX  05211 56748 /2580 70000 10060 21039 37348 57106 874// 333 00100 70001;EQDQ01+073483APOSP Q02+001062APC3  
0185567480999992000020600004+25130+099220FM-12+165599999V0209999C000012200019N0300001N1+00641+00391999999ADDAA199000091GF103991031041008001001001IA2999+00209MA1999999083511MD1210031+0001REMSYN076AAXX  06001 56748 32580 30000 10064 20039 38351 52003 83400 333 00000 30026;EQDQ01  00002PRCP99
0127567480999992000020603004+25130+099220FM-12+165599999V0209999C000010075019N0200001N1+01051+00461999999ADDGF107991061041008001041999MA1999999083641MD1210131+9999REMSYN060AAXX  06031 56748 42570 70000 10105 20046 38364 52013 8644/;
0186567480999992000020606004+25130+099220FM-12+165599999V0209999C000010075019N0200001N1+01231+00611999999ADDAA199000091GF108991081021008001999999KA1999N+00561MA1999999083451MD1710191-0101REMSYN076AAXX  06061 56748 32570 80000 10123 20061 38345 57019 882// 333 05155 20056;EQDQ01  00002PRCP99
0157567480999992000020609004+25130+099220FM-12+165599999V0209999C000010075019N0250001N1+01251+00661999999ADDAY181031GF107991071041008001041999MA1999999083341MD1710111+0001MW1001REMSYN076AAXX  06091 56748 41575 70000 10125 20066 38334 57011 70080 8744/ 333 00055;
0174567480999992000020612004+25130+099220FM-12+165599999V0209999C000010075019N0300001N1+01131+00561999999ADDAA106000791AY181061GF107991071041008001999999MA1999999083341MD1410001+0011MW1001REMSYN082AAXX  06121 56748 11580 70000 10113 20056 38334 54000 69901 70080 874// 333 05153;
0185567480999992000020618004+25130+099220FM-12+165599999V0209999C000010075019N0250001N1+00991+00681999999ADDAA106000191GF108991081091008001999999KA1999M+01291MA1999999083451MD1210071-0101MW1801REMSYN088AAXX  06181 56748 11575 80000 10099 20068 38345 52007 69921 78000 889// 333 05103 10129;
0174567480999992000020621004+25130+099220FM-12+165599999V0209999C000010075019N0250001N1+00941+00671999999ADDAA124000391AY181031GF107991071021008001999999MA1999999083361MD1710091-0101MW1001REMSYN082AAXX  06211 56748 41575 70000 10094 20067 38336 57009 70080 872// 333 05103 70002;
0198567480999992000020700004+25130+099220FM-12+165599999V0209999C000012200019N0300001N1+00691+00531999999ADDAA106000791AY181061GF103991031041008001001001IA2999+00419MA1999999083461MD1210101-0101MW1001REMSYN094AAXX  07001 56748 11580 30000 10069 20053 38346 52010 69901 70080 83400 333 05101 30041 70002;
0127567480999992000020703004+25130+099220FM-12+165599999V0209999C000010360019N0200001N1+01111+00691999999ADDGF107991021021008001031999MA1999999083621MD1210161+9999REMSYN060AAXX  07031 56748 42570 70000 10111 20069 38362 52016 8223/;
0167567480999992000020706004+25130+099220FM-12+165599999V0209999C000010360019N0300001N1+01421+00601999999ADDAA199000021GF108991031091008001071999KA1999N+00681MA1999999083421MD1710201+0001REMSYN076AAXX  07061 56748 32580 80000 10142 20060 38342 57020 8397/ 333 00002 20068;
0157567480999992000020709004+25130+099220FM-12+165599999V0209999C000010075019N0250001N1+01291+00711999999ADDAY181031GF107991071091008001999999MA1999999083281MD1710141+0011MW1801REMSYN076AAXX  07091 56748 41575 70000 10129 20071 38328 57014 78080 879// 333 05100;
0174567480999992000020712004+25130+099220FM-12+165599999V0209999C000010075019N0250001N1+01181+00731999999ADDAA106000391AY181061GF108991081091008001999999MA1999999083271MD1710011+0011MW1251REMSYN082AAXX  07121 56748 11575 80000 10118 20073 38327 57001 69931 72580 889// 333 05101;
0193567480999992000020718004+25130+099220FM-12+165599999V0209999C000012200019N0300001N1+00911+00641999999ADDAA106000191AY181061GF103991031041008001001001KA1999M+01551MA1999999083341MD1710061-0101MW1251REMSYN088AAXX  07181 56748 11580 30000 10091 20064 38334 57006 69911 72580 83400 333 05151 10155;
0154567480999992000020721004+25130+099220FM-12+165599999V02099999999992200019N0300001N1+00711+00481999999ADDAA124000591GF101991011041008001001001MA1999999083211MD1710131-0201REMSYN076AAXX  07211 56748 42580 10/00 10071 20048 38321 57013 81400 333 05252 70004;
0172567480999992000020800004+25130+099220FM-12+165599999V0209999C000010360019N0300001N1+00641+00501999999ADDAA124000591GF106991041041008001041001IA2999+00259MA1999999083281MD1210071-0201REMSYN082AAXX  08001 56748 32580 60000 10064 20050 38328 52007 84440 333 05251 30025 70004;
0147567480999992000020803004+25130+099220FM-12+165599999V0209999C000012200019N0200001N1+01211+00611999999ADDAY181031GF101991011011008001001001MA1999999083421MD1210141+9999MW1001REMSYN066AAXX  08031 56748 41570 10000 10121 20061 38342 52014 70080 81100;
0193567480999992000020806004+25130+099220FM-12+165599999V0203201N001012200019N0300001N1+01641+00221999999ADDAA106000791AY181061GF104991041021008001001001KA1999N+00541MA1999999083261MD1710161-0201MW1001REMSYN088AAXX  08061 56748 11580 43201 10164 20022 38326 57016 69901 70080 84200 333 05202 20054;
0149567480999992000020809004+25130+099220FM-12+165599999V0209999C000010075019N0300001N1+01471+00301999999ADDGF107991051091008001041001MA1999999083161MD1710101+0011MW1251REMSYN076AAXX  08091 56748 41580 70000 10147 20030 38316 57010 72500 85940 333 05102;
0174567480999992000020812004+25130+099220FM-12+165599999V0201801N001012200019N0300001N1+01231+00381999999ADDAA106000791AY181061GF101991011041012501001001MA1999999083241MD1210081+0001MW1001REMSYN082AAXX  08121 56748 11680 11801 10123 20038 38324 52008 69901 70080 81400 333 00001;
0177567480999992000020818004+25130+099220FM-12+165599999V0209999C000012200019N0300001N1+00631+00371999999ADDAA199000021GA1001+999999999GF100991001001999999001001KA1999M+01771MA1999999083301MD1710041+0001REMSYN070AAXX  08181 56748 32980 00000 10063 20037 38330 57004 333 00053 10177;
0164567480999992000020821004+25130+099220FM-12+165599999V0209999C000012200019N0300001N1+00421+00241999999ADDAA124000791GA1001+999999999GF100991001001999999001001MA1999999083211MD1710091+0001REMSYN070AAXX  08211 56748 42980 00000 10042 20024 38321 57009 333 00053 79999;
0182567480999992000020900004+25130+099220FM-12+165599999V0209999C000012200019N0300001N1+00311+00201999999ADDAA124000791GA1001+999999999GF100991001001999999001001IA2999+00059MA1999999083301MD1210091+0001REMSYN076AAXX  09001 56748 32980 00000 10031 20020 38330 52009 333 00053 30005 79999;
0127567480999992000020903004+25130+099220FM-12+165599999V0209999C000012200019N0200001N1+01031+00421999999ADDGF101991011011008001001001MA1999999083441MD1210141+9999REMSYN060AAXX  09031 56748 42570 10000 10103 20042 38344 52014 81100;
0186567480999992000020906004+25130+099220FM-12+165599999V0202701N001010075019N0300001N1+01491+00041999999ADDAA199000091GF105991051021008001001001KA1999N+00271MA1999999083181MD1710261-0101REMSYN076AAXX  09061 56748 32580 52701 10149 20004 38318 57026 85200 333 05152 20027;EQDQ01  00002PRCP99
0137567480999992000020909004+25130+099220FM-12+165599999V0202701N001010075019N0300001N1+01511+00191999999ADDGF107991071021008001001001MA1999999083041MD1710141+0011REMSYN070AAXX  09091 56748 42580 72701 10151 20019 38304 57014 87200 333 05100;
0146567480999992000020912004+25130+099220FM-12+165599999V0202201N001012200019N0300001N1+01291+00121999999ADDAA199000091GF101991011041008001001001MD1210031+0021REMSYN064AAXX  09121 56748 32580 12201 10129 20012 52003 81400 333 05201;EQDQ01  00002PRCP99
0186567480999992000020918004+25130+099220FM-12+165599999V0209999C000012200019N0300001N1+00751+00371999999ADDAA199000091GF101991011041012501001001KA1999M+01661MA1999999083231MD1710011-0101REMSYN076AAXX  09181 56748 32680 10000 10075 20037 38323 57001 81400 333 05101 10166;EQDQ01  00002PRCP99
0137567480999992000020921004+25130+099220FM-12+165599999V0209999C000012200019N0300001N1+00501+00231999999ADDGF101991011041012501001001MA1999999083161MD1710071+0011REMSYN070AAXX  09211 56748 42680 10000 10050 20023 38316 57007 81400 333 05101;
0195567480999992000021000004+25130+099220FM-12+165599999V0209999C000012200019N0300001N1+00331+00191999999ADDAA199000091GA1001+999999999GF100991001001999999001001IA2999+00009MA1999999083301MD1210141+0001REMSYN070AAXX  10001 56748 32980 00000 10033 20019 38330 52014 333 00000 30007;EQDQ01  00002PRCP99
0127567480999992000021003004+25130+099220FM-12+165599999V0209999C000012200019N0300001N1+01081+00361999999ADDGF101991011011008001001001MA1999999083451MD1210151+9999REMSYN060AAXX  10031 56748 42580 10000 10108 20036 38345 52015 81100;
0186567480999992000021006004+25130+099220FM-12+165599999V0209999C000010075019N0300001N1+01521-00101999999ADDAA199000091GF105991051041008001001001KA1999N+00311MA1999999083331MD1710121+0201REMSYN076AAXX  10061 56748 32580 50000 10152 21010 38333 57012 85400 333 00200 20031;EQDQ01  00002PRCP99
0137567480999992000021009004+25130+099220FM-12+165599999V0202701N001012200019N0300001N1+01531-00111999999ADDGF102991021021008001001001MA1999999083181MD1710151+0011REMSYN070AAXX  10091 56748 42580 22701 10153 21011 38318 57015 82200 333 00100;
0167567480999992000021012004+25130+099220FM-12+165599999V0209999C000012200019N0300001N1+01281+00021999999ADDAA199000091GF101991011041008001001001MA1999999083261MD1210081+0021REMSYN070AAXX  10121 56748 32580 10000 10128 20002 38326 52008 81400 333 00200;EQDQ01  00002PRCP99
0196567480999992000021018004+25130+099220FM-12+165599999V0209999C000012200019N0300001N1+00571+00141999999ADDAA199000091GA1001+999999999GF100991001001999999001001KA1999M+01671MA1999999083401MD1710031+0201REMSYN070AAXX  10181 56748 32980 00000 10057 20014 38340 57003 333 00252 10167;EQDQ01  00002PRCP99
0147567480999992000021021004+25130+099220FM-12+165599999V0209999C000012200019N0300001N1+00341+00081999999ADDGA1001+999999999GF100991001001999999001001MA1999999083301MD1710101+0011REMSYN064AAXX  10211 56748 42980 00000 10034 20008 38330 57010 333 00152;
0195567480999992000021100004+25130+099220FM-12+165599999V0209999C000012200019N0300001N1+00201-00021999999ADDAA199000091GA1001+999999999GF100991001001999999001001IA2999+00009MA1999999083401MD1210101+0101REMSYN070AAXX  11001 56748 32980 00000 10020 21002 38340 52010 333 00151 31007;EQDQ01  00002PRCP99
0137567480999992000021103004+25130+099220FM-12+165599999V0209999C000012200019N0200001N1+00931+00061999999ADDGA1001+999999999GF100991001001999999001001MA1999999083561MD1210161+9999REMSYN054AAXX  11031 56748 42970 00000 10093 20006 38356 52016;
0196567480999992000021106004+25130+099220FM-12+165599999V0209999C000012200019N0300001N1+01641-00231999999ADDAA199000091GA1001+999999999GF100991001001999999001001KA1999N+00171MA1999999083361MD1710201+0001REMSYN070AAXX  11061 56748 32980 00000 10164 21023 38336 57020 333 00001 20017;EQDQ01  00002PRCP99
0137567480999992000021109004+25130+099220FM-12+165599999V0202701N001012200019N0300001N1+01701-00021999999ADDGF101991011011008001001001MA1999999083211MD1710151+0001REMSYN070AAXX  11091 56748 42580 12701 10170 21002 38321 57015 81100 333 00002;
0151567480999992000021112004+25130+099220FM-12+165599999V0209999C000012200019N0300001N1+01371+00151999999ADDAA199000091GF101991999999008001999999MA1999999083251MD1210041+9999REMSYN054AAXX  11121 56748 32580 10000 10137 20015 38325 52004;EQDQ01  00002PRCP99
0196567480999992000021118004+25130+099220FM-12+165599999V0209999C000012200019N0300001N1+00951+00321999999ADDAA199000091GA1001+999999999GF100991001001999999001001KA1999M+01771MA1999999083371MD1710021+0001REMSYN070AAXX  11181 56748 32980 00000 10095 20032 38337 57002 333 00004 10177;EQDQ01  00002PRCP99
0147567480999992000021121004+25130+099220FM-12+165599999V0209999C000012200019N0300001N1+00641+00341999999ADDGA1001+999999999GF100991001001999999001001MA1999999083321MD1710051+0001REMSYN064AAXX  11211 56748 42980 00000 10064 20034 38332 57005 333 00003;
0195567480999992000021200004+25130+099220FM-12+165599999V0209999C000012200019N0300001N1+00411+00211999999ADDAA199000091GA1001+999999999GF100991001001999999001001IA2999+00109MA1999999083421MD1210101+0001REMSYN070AAXX  12001 56748 32980 00000 10041 20021 38342 52010 333 00002 30012;EQDQ01  00002PRCP99
0137567480999992000021203004+25130+099220FM-12+165599999V0209999C000012200019N0200001N1+01201+00481999999ADDGA1001+999999999GF100991001001999999001001MA1999999083581MD1210161+9999REMSYN054AAXX  12031 56748 42970 00000 10120 20048 38358 52016;
0196567480999992000021206004+25130+099220FM-12+165599999V0209999C000012200019N0300001N1+01871-00041999999ADDAA199000091GA1001+999999999GF100991001001999999001001KA1999N+00391MA1999999083341MD1710241+0001REMSYN070AAXX  12061 56748 32980 00000 10187 21004 38334 57024 333 00002 20039;EQDQ01  00002PRCP99
0147567480999992000021209004+25130+099220FM-12+165599999V0202201N001012200019N0300001N1+01931+00101999999ADDGA1001+999999999GF100991001001999999001001MA1999999083171MD1710171+0001REMSYN064AAXX  12091 56748 42980 02201 10193 20010 38317 57017 333 00002;
0167567480999992000021212004+25130+099220FM-12+165599999V0209999C000012200019N0300001N1+01611+00231999999ADDAA199000091GF101991011041012501001001MA1999999083221MD1210051+0001REMSYN070AAXX  12121 56748 32680 10000 10161 20023 38322 52005 81400 333 00002;EQDQ01  00002PRCP99
0196567480999992000021218004+25130+099220FM-12+165599999V0209999C000012200019N0300001N1+00891+00391999999ADDAA199000091GA1001+999999999GF100991001001999999001001KA1999M+01991MA1999999083441MD1710021+0101REMSYN070AAXX  12181 56748 32980 00000 10089 20039 38344 57002 333 00151 10199;EQDQ01  00002PRCP99
0147567480999992000021221004+25130+099220FM-12+165599999V0209999C000012200019N0300001N1+99999+99999999999ADDGA1001+999999999GF100991001001999999001001MA1999999083361MD1710081+0001REMSYN064AAXX  12211 56748 42980 00000 10/65 20035 38336 57008 333 00000;
0195567480999992000021300004+25130+099220FM-12+165599999V0209999C000012200019N0300001N1+00561+00321999999ADDAA199000091GA1001+999999999GF100991001001999999001001IA2999+00209MA1999999083371MD1210011-0101REMSYN070AAXX  13001 56748 32980 00000 10056 20032 38337 52001 333 05102 30024;EQDQ01  00002PRCP99
0127567480999992000021303004+25130+099220FM-12+165599999V0209999C000012200019N0200001N1+01241+00511999999ADDGF101991011011008001001001MA1999999083491MD1210121+9999REMSYN060AAXX  13031 56748 42570 10000 10124 20051 38349 52012 81100;
0186567480999992000021306004+25130+099220FM-12+165599999V0201801N001012200019N0300001N1+02051+00501999999ADDAA199000091GF101991011011008001001001KA1999N+00501MA1999999083261MD1710231-0101REMSYN076AAXX  13061 56748 32580 11801 10205 20050 38326 57023 81100 333 05102 20050;EQDQ01  00002PRCP99
0137567480999992000021309004+25130+099220FM-12+165599999V0202001N001012200019N0300001N1+02061+00411999999ADDGF101991011021008001001001MA1999999083141MD1710121+0001REMSYN070AAXX  13091 56748 42580 12001 10206 20041 38314 57012 81200 333 00001;
0167567480999992000021312004+25130+099220FM-12+165599999V0209999C000012200019N0300001N1+01611+00591999999ADDAA199000091GF101991011041012501001001MA1999999083281MD1210141+0011REMSYN070AAXX  13121 56748 32680 10000 10161 20059 38328 52014 81400 333 00100;EQDQ01  00002PRCP99
0196567480999992000021318004+25130+099220FM-12+165599999V0209999C000012200019N0300001N1+00941+00401999999ADDAA199000091GA1001+999999999GF100991001001999999001001KA1999M+02151MA1999999083441MD1710021+0001REMSYN070AAXX  13181 56748 32980 00000 10094 20040 38344 57002 333 00001 10215;EQDQ01  00002PRCP99
0147567480999992000021321004+25130+099220FM-12+165599999V0209999C000012200019N0300001N1+00681+00271999999ADDGA1001+999999999GF100991001001999999001001MA1999999083381MD1710061+0001REMSYN064AAXX  13211 56748 42980 00000 10068 20027 38338 57006 333 00000;
0185567480999992000021400004+25130+099220FM-12+165599999V0209999C000012200019N0300001N1+00511+00271999999ADDAA199000091GF101991011041012501001001IA2999+00109MA1999999083471MD1210091+0101REMSYN076AAXX  14001 56748 32680 10000 10051 20027 38347 52009 81400 333 00151 30019;EQDQ01  00002PRCP99
0137567480999992000021403004+25130+099220FM-12+165599999V0209999C000012200019N0200001N1+01281+00321999999ADDGA1001+999999999GF100991001001999999001001MA1999999083621MD1210151+9999REMSYN054AAXX  14031 56748 42970 00000 10128 20032 38362 52015;
0186567480999992000021406004+25130+099220FM-12+165599999V0202201N001012200019N0300001N1+01961-00051999999ADDAA199000091GF101991011011008001001021KA1999N+00471MA1999999083411MD1710211+0201REMSYN076AAXX  14061 56748 32580 12201 10196 21005 38341 57021 81102 333 00251 20047;EQDQ01  00002PRCP99
0167567480999992000021412004+25130+099220FM-12+165599999V0209999C000010360019N0300001N1+01751+00391999999ADDAA199000091GF106991021041008001041001MA1999999083341MD1210051+0011REMSYN070AAXX  14121 56748 32580 60000 10175 20039 38334 52005 82440 333 00101;EQDQ01  00002PRCP99
0186567480999992000021418004+25130+099220FM-12+165599999V0209999C000012200019N0300001N1+01071+00531999999ADDAA199000091GF101991011011008001001001KA1999M+02201MA1999999083471MD1710021+0001REMSYN076AAXX  14181 56748 32580 10000 10107 20053 38347 57002 81100 333 00001 10220;EQDQ01  00002PRCP99
0137567480999992000021421004+25130+099220FM-12+165599999V0209999C000012200019N0300001N1+00861+00561999999ADDGF102991021041012501001001MA1999999083391MD1710081+0001REMSYN070AAXX  14211 56748 42680 20000 10086 20056 38339 57008 82400 333 00002;
0185567480999992000021500004+25130+099220FM-12+165599999V0209999C000010360019N0300001N1+00731+00531999999ADDAA199000091GF106991031021008001041001IA2999+00409MA1999999083411MD1210021-0101REMSYN076AAXX  15001 56748 32580 60000 10073 20053 38341 52002 83240 333 05102 30046;EQDQ01  00002PRCP99
0139567480999992000021503004+25130+099220FM-12+165599999V0209999C000010075019N0200001N1+01191+00721999999ADDGF107991071021008001001001MA1999999083571MD1210161+9999MW1251REMSYN066AAXX  15031 56748 41570 70000 10119 20072 38357 52016 72500 87200;
0193567480999992000021506004+25130+099220FM-12+165599999V0202201N001010075019N0300001N1+01791+00641999999ADDAA106000791AY181061GF107991071091008001999999KA1999N+00721MA1999999083401MD1710171+0001MW1001REMSYN088AAXX  15061 56748 11580 72201 10179 20064 38340 57017 69901 70080 879// 333 00052 20072;
0157567480999992000021509004+25130+099220FM-12+165599999V0209999C000010075019N0250001N1+01471+00941999999ADDAY181031GF107991061091008001041031MA1999999083241MD1710161+0011MW1801REMSYN076AAXX  15091 56748 41575 70000 10147 20094 38324 57016 78080 86943 333 05155;
0174567480999992000021512004+25130+099220FM-12+165599999V0201801N001012200019N0300001N1+01511+00861999999ADDAA106000891AY181061GF101991011041012501001001MA1999999083251MD1210011+0011MW1001REMSYN082AAXX  15121 56748 11680 11801 10151 20086 38325 52001 69981 70080 81400 333 05152;
0177567480999992000021518004+25130+099220FM-12+165599999V0209999C000012200019N0300001N1+01151+00421999999ADDAA199000021GA1001+999999999GF100991001001999999001001KA1999M+01921MA1999999083471MD1210051+0001REMSYN070AAXX  15181 56748 32980 00000 10115 20042 38347 52005 333 00001 10192;
0164567480999992000021521004+25130+099220FM-12+165599999V0209999C000012200019N0300001N1+00721+00311999999ADDAA124000891GA1001+999999999GF100991001001999999001001MA1999999083391MD1710081+0001REMSYN070AAXX  15211 56748 42980 00000 10072 20031 38339 57008 333 00051 70008;
0182567480999992000021600004+25130+099220FM-12+165599999V0209999C000012200019N0300001N1+00441+00141999999ADDAA124000891GA1001+999999999GF100991001001999999001001IA2999+00109MA1999999083551MD1210161+0101REMSYN076AAXX  16001 56748 32980 00000 10044 20014 38355 52016 333 00153 30010 70008;
0137567480999992000021603004+25130+099220FM-12+165599999V0209999C000012200019N0300001N1+01201+00131999999ADDGA1001+999999999GF100991001001999999001001MA1999999083701MD1210151+9999REMSYN054AAXX  16031 56748 42980 00000 10120 20013 38370 52015;
0196567480999992000021606004+25130+099220FM-12+165599999V0209999C000012200019N0300001N1+01771-00061999999ADDAA199000091GA1001+999999999GF100991001001999999001001KA1999N+00381MA1999999083471MD1710231+0101REMSYN070AAXX  16061 56748 32980 00000 10177 21006 38347 57023 333 00100 20038;EQDQ01  00002PRCP99
0147567480999992000021609004+25130+099220FM-12+165599999V0202901N001012200019N0300001N1+01931-00541999999ADDGA1001+999999999GF100991001001999999001001MA1999999083231MD1710241+0001REMSYN064AAXX  16091 56748 42980 02901 10193 21054 38323 57024 333 00005;
0177567480999992000021612004+25130+099220FM-12+165599999V0209999C000012200019N0300001N1+01461+00141999999ADDAA199000091GA1001+999999999GF100991001001999999001001MA1999999083241MD1210011+0001REMSYN064AAXX  16121 56748 32980 00000 10146 20014 38324 52001 333 00051;EQDQ01  00002PRCP99
0196567480999992000021618004+25130+099220FM-12+165599999V0209999C000012200019N0300001N1+00701+00241999999ADDAA199000091GA1001+999999999GF100991001001999999001001KA1999M+02111MA1999999083371MD1710021-0101REMSYN070AAXX  16181 56748 32980 00000 10070 20024 38337 57002 333 05155 10211;EQDQ01  00002PRCP99
0137567480999992000021621004+25130+099220FM-12+165599999V0209999C000012200019N0300001N1+00541+00201999999ADDGF101991011011012501001001MA1999999083301MD1710071+0011REMSYN070AAXX  16211 56748 42680 10000 10054 20020 38330 57007 81100 333 05152;
0185567480999992000021700004+25130+099220FM-12+165599999V0209999C000012200019N0300001N1+00411+00131999999ADDAA199000091GF102991021041012501001001IA2999+00109MA1999999083341MD1210041-0201REMSYN076AAXX  17001 56748 32680 20000 10041 20013 38334 52004 82400 333 05200 30015;EQDQ01  00002PRCP99
0127567480999992000021703004+25130+099220FM-12+165599999V0209999C000012200019N0200001N1+01161+00231999999ADDGF101991011011008001001001MA1999999083461MD1210121+9999REMSYN060AAXX  17031 56748 42570 10000 10116 20023 38346 52012 81100;
0172567480999992000021706004+25130+099220FM-12+165599999V0201101N001012200019N0300001N1+01871+00061999999ADDAA199000091GF101991011011008001001001MA1999999083221MD1710241-0301REMSYN075AAXX  17061 56748 32580 11101 10187 20006 38322 57024 81100 333 05301 2003;EQDQ01  00002PRCP99
0137567480999992000021709004+25130+099220FM-12+165599999V0203201N001012200019N0300001N1+01881+00141999999ADDGF102991021021008001001001MA1999999083021MD1710201+0021REMSYN070AAXX  17091 56748 42580 23201 10188 20014 38302 57020 82200 333 05251;
0167567480999992000021712004+25130+099220FM-12+165599999V0209999C000012200019N0300001N1+01631+00241999999ADDAA199000091GF102991011041012501041001MA1999999083011MD1710011+0021REMSYN070AAXX  17121 56748 32680 20000 10163 20024 38301 57001 81440 333 05202;EQDQ01  00002PRCP99
0196567480999992000021718004+25130+099220FM-12+165599999V0209999C000012200019N0300001N1+00971+00391999999ADDAA199000091GA1001+999999999GF100991001001999999001001KA1999M+01981MA1999999083181MD1710031-0201REMSYN070AAXX  17181 56748 32980 00000 10097 20039 38318 57003 333 05203 10198;EQDQ01  00002PRCP99
0137567480999992000021721004+25130+099220FM-12+165599999V0209999C000012200019N0300001N1+00891+00481999999ADDGF103991031041008001001001MA1999999083071MD1710111+0021REMSYN070AAXX  17211 56748 42580 30000 10089 20048 38307 57011 83400 333 05204;
0185567480999992000021800004+25130+099220FM-12+165599999V0209999C000010075019N0300001N1+01061+00571999999ADDAA199000091GF108991081091008001999999IA2999+00409MA1999999083141MD1210071-0201REMSYN076AAXX  18001 56748 32580 80000 10106 20057 38314 52007 889// 333 05207 30046;EQDQ01  00002PRCP99
0127567480999992000021803004+25130+099220FM-12+165599999V0209999C000010075019N0250001N1+01261+00711999999ADDGF108991081091008001999999MA1999999083351MD1210211+9999REMSYN060AAXX  18031 56748 42575 80000 10126 20071 38335 52021 889//;
0193567480999992000021806004+25130+099220FM-12+165599999V0209999C000010075019N0300001N1+01621+00251999999ADDAA106000791AY181061GF107991071041008001999999KA1999N+00851MA1999999083271MD1710081+0101MW1001REMSYN088AAXX  18061 56748 11580 70000 10162 20025 38327 57008 69901 70080 874// 333 00153 20085;
0137567480999992000021809004+25130+099220FM-12+165599999V0202701N001010075019N0300001N1+01591+00051999999ADDGF108991081091008001999999MA1999999083131MD1710141+0011REMSYN070AAXX  18091 56748 42580 82701 10159 20005 38313 57014 889// 333 00153;
0174567480999992000021812004+25130+099220FM-12+165599999V0209999C000010075019N0300001N1+01251+00361999999ADDAA106000791AY181061GF108991081091008001999999MA1999999083181MD1210051+0021MW1001REMSYN082AAXX  18121 56748 11580 80000 10125 20036 38318 52005 69901 70080 889// 333 00254;
0172567480999992000021818004+25130+099220FM-12+165599999V0209999C000010075019N0250001N1+01181+00461999999ADDAA106000791AY181061GF108991081091008001999999KA1999M+01671MD1210041+0101MW1251REMSYN082AAXX  18181 56748 11575 80000 10118 20046 52004 69901 72580 889// 333 00102 10167;
0154567480999992000021821004+25130+099220FM-12+165599999V0209999C000010075019N0300001N1+01031+00371999999ADDAA124000791GF106991061041008001001001MA1999999083111MD1710191+0001REMSYN076AAXX  18211 56748 42580 60000 10103 20037 38311 57019 86400 333 00001 79999;
0154567480999992000021900004+25130+099220FM-12+165599999V0209999C000010075019N0300001N1+00951+00371999999ADDAA124000791GF107991071091008001999999MA1999999083141MD1210031+0001REMSYN076AAXX  19001 56748 32580 70000 10095 20037 38314 52003 879// 333 00051 79999;
0167567480999992000021906004+25130+099220FM-12+165599999V0209999C000012200019N0300001N1+01791-00051999999ADDAA199000021GF102991021011008001001001KA1999N+00891MA1999999083131MD1710181-0101REMSYN076AAXX  19061 56748 32580 20000 10179 21005 38313 57018 82100 333 05102 20089;
0137567480999992000021909004+25130+099220FM-12+165599999V0202001N001012200019N0300001N1+01801-00211999999ADDGF102991011011008001041001MA1999999082961MD1710171+0021REMSYN070AAXX  19091 56748 42580 22001 10180 21021 38296 57017 81140 333 05202;
0167567480999992000021912004+25130+099220FM-12+165599999V0209999C000012200019N0300001N1+01491-00081999999ADDAA199000091GF101991011041012501001001MA1999999083091MD1210131+0011REMSYN070AAXX  19121 56748 32680 10000 10149 21008 38309 52013 81400 333 05102;EQDQ01  00002PRCP99
0186567480999992000021918004+25130+099220FM-12+165599999V0209999C000010360019N0300001N1+00751-00131999999ADDAA199000091GF105991021041012501041001KA1999M+01961MA1999999083231MD1210011-0101REMSYN076AAXX  19181 56748 32680 50000 10075 21013 38323 52001 82440 333 05154 10196;EQDQ01  00002PRCP99
0137567480999992000021921004+25130+099220FM-12+165599999V0209999C000010360019N0300001N1+00611-00141999999ADDGF107991021041008001041999MA1999999083121MD1710111+0001REMSYN070AAXX  19211 56748 42580 70000 10061 21014 38312 57011 8244/ 333 00054;
0185567480999992000022000004+25130+099220FM-12+165599999V0209999C000010360019N0300001N1+00551-00041999999ADDAA199000091GF107991021041012501041999IA2999+00209MA1999999083121MD1410001+0001REMSYN076AAXX  20001 56748 32680 70000 10055 21004 38312 54000 8244/ 333 00054 30026;EQDQ01  00002PRCP99
0127567480999992000022003004+25130+099220FM-12+165599999V0209999C000010360019N0300001N1+01121-00081999999ADDGF106991031021008001041021MA1999999083311MD1210191+9999REMSYN060AAXX  20031 56748 42580 60000 10112 21008 38331 52019 83242;
0186567480999992000022006004+25130+099220FM-12+165599999V0202701N001012200019N0300001N1+01771+00011999999ADDAA199000091GF103991021021008001041001KA1999N+00531MA1999999083111MD1710201+0001REMSYN076AAXX  20061 56748 32580 32701 10177 20001 38311 57020 82240 333 00000 20053;EQDQ01  00002PRCP99
0137567480999992000022009004+25130+099220FM-12+165599999V0201801N001012200019N0300001N1+01841+00141999999ADDGF101991011011008001001001MA1999999082911MD1710201+0011REMSYN070AAXX  20091 56748 42580 11801 10184 20014 38291 57020 81100 333 05100;
0167567480999992000022012004+25130+099220FM-12+165599999V0209999C000012200019N0300001N1+01531+00221999999ADDAA199000091GF101991011041008001001001MA1999999082591MD1210081+0011REMSYN070AAXX  20121 56748 32580 10000 10153 20022 38259 52008 81400 333 05100;EQDQ01  00002PRCP99
0196567480999992000022018004+25130+099220FM-12+165599999V0209999C000012200019N0300001N1+01211-00131999999ADDAA199000091GA1001+999999999GF100991001001999999001001KA1999M+01891MA1999999083251MD1210061+0001REMSYN070AAXX  20181 56748 32980 00000 10121 21013 38325 52006 333 00005 10189;EQDQ01  00002PRCP99
0147567480999992000022021004+25130+099220FM-12+165599999V0209999C000012200019N0300001N1+00831+00121999999ADDGA1001+999999999GF100991001001999999001001MA1999999083221MD1710031+0011REMSYN064AAXX  20211 56748 42980 00000 10083 20012 38322 57003 333 00102;
0185567480999992000022100004+25130+099220FM-12+165599999V0209999C000012200019N0300001N1+00471+00081999999ADDAA199000091GF101991011041012501001001IA2999+00109MA1999999083321MD1210101+0201REMSYN076AAXX  21001 56748 32680 10000 10047 20008 38332 52010 81400 333 00251 30017;EQDQ01  00002PRCP99
0137567480999992000022103004+25130+099220FM-12+165599999V0209999C000012200019N0300001N1+01231+00111999999ADDGA1001+999999999GF100991001001999999001001MA1999999083461MD1210141+9999REMSYN054AAXX  21031 56748 42980 00000 10123 20011 38346 52014;
0186567480999992000022106004+25130+099220FM-12+165599999V0209999C000012200019N0300001N1+01811-00601999999ADDAA199000091GF101991011041008001001001KA1999N+00431MA1999999083341MD1710121+0201REMSYN076AAXX  21061 56748 32580 10000 10181 21060 38334 57012 81400 333 00200 20043;EQDQ01  00002PRCP99
0137567480999992000022109004+25130+099220FM-12+165599999V0202701N001010360019N0300001N1+01911-00541999999ADDGF106991021041008001041001MA1999999083131MD1710211+0021REMSYN070AAXX  21091 56748 42580 62701 10191 21054 38313 57021 82440 333 00201;
0167567480999992000022112004+25130+099220FM-12+165599999V0209999C000012200019N0300001N1+01531-00291999999ADDAA199000091GF101991011041008001001001MA1999999083181MD1210051+0021REMSYN070AAXX  21121 56748 32580 10000 10153 21029 38318 52005 81400 333 00200;EQDQ01  00002PRCP99
0186567480999992000022118004+25130+099220FM-12+165599999V0209999C000012200019N0300001N1+00901-00211999999ADDAA199000091GF104991021999008001999001KA1999M+02001MA1999999083381MD1210101+0101REMSYN076AAXX  21181 56748 32580 40000 10090 21021 38338 52010 82//0 333 00153 10200;EQDQ01  00002PRCP99
0137567480999992000022121004+25130+099220FM-12+165599999V0209999C000010075019N0300001N1+00771+00041999999ADDGF107991071041008001001001MA1999999083271MD1710111+0011REMSYN070AAXX  21211 56748 42580 70000 10077 20004 38327 57011 87400 333 00151;
0185567480999992000022200004+25130+099220FM-12+165599999V0209999C000012200019N0300001N1+00521+00001999999ADDAA199000091GF101991011041012501001001IA2999+00109MA1999999083371MD1210101+0101REMSYN076AAXX  22001 56748 32680 10000 10052 20000 38337 52010 81400 333 00101 30018;EQDQ01  00002PRCP99
0137567480999992000022203004+25130+099220FM-12+165599999V0209999C000012200019N0300001N1+01341-00251999999ADDGA1001+999999999GF100991001001999999001001MA1999999083481MD1210111+9999REMSYN054AAXX  22031 56748 42980 00000 10134 21025 38348 52011;
0196567480999992000022206004+25130+099220FM-12+165599999V0201401N001012200019N0300001N1+01921-00311999999ADDAA199000091GA1001+999999999GF100991001001999999001001KA1999N+00491MA1999999083331MD1710151+0001REMSYN070AAXX  22061 56748 32980 01401 10192 21031 38333 57015 333 00001 20049;EQDQ01  00002PRCP99
0137567480999992000022209004+25130+099220FM-12+165599999V0209999C000012200019N0300001N1+01901-00191999999ADDGF101991011011008001001001MA1999999083131MD1710201+0001REMSYN070AAXX  22091 56748 42580 10000 10190 21019 38313 57020 81100 333 00000;
0177567480999992000022212004+25130+099220FM-12+165599999V0202501N002012200019N0300001N1+01571-00141999999ADDAA199000091GA1001+999999999GF100991001001999999001001MA1999999083151MD1210021+0001REMSYN064AAXX  22121 56748 32980 02502 10157 21014 38315 52002 333 00000;EQDQ01  00002PRCP99
0196567480999992000022218004+25130+099220FM-12+165599999V0209999C000012200019N0300001N1+01051-00031999999ADDAA199000091GA1001+999999999GF100991001001999999001001KA1999M+02021MA1999999083361MD1410001+0001REMSYN070AAXX  22181 56748 32980 00000 10105 21003 38336 54000 333 00001 10202;EQDQ01  00002PRCP99
0147567480999992000022221004+25130+099220FM-12+165599999V0209999C000012200019N0300001N1+00631+00111999999ADDGA1001+999999999GF100991001001999999001001MA1999999083271MD1710091+0001REMSYN064AAXX  22211 56748 42980 00000 10063 20011 38327 57009 333 00051;
