0182569690999992000010100004+21500+101580FM-12+063399999V0209999C000010003019N0004001N1+01031+01031101921ADDAA106000091AY141061GA1091+999999999GF109991091999999999999999MD1210111+0011MW1471REMSYN070AAXX  01001 56969 31/04 90000 10103 20103 40192 52011 74740 333 00103;EQDQ01  00002PRCP06
0132569690999992000010103004+21500+101580FM-12+063399999V0209999C000010042019N0080001N1+01231+01121102121ADDAY141031GF108991081061004501999999MD1210161+9999MW1101REMSYN066AAXX  01031 56969 41458 80000 10123 20112 40212 52016 71040 886//;
0191569690999992000010106004+21500+101580FM-12+063399999V0209999C000012200019N0300001N1+02161+01381101591ADDAA106000091AY141061GF101991011011008001001001KA1999N+00961MD1710391+0001MW1001REMSYN082AAXX  01061 56969 31580 10000 10216 20138 40159 57039 70040 81100 333 00001 20096;EQDQ01  00002PRCP06
0122569690999992000010109004+21500+101580FM-12+063399999V0203201N001012200019N0300001N1+02761+01291101291ADDGF101991011011008001001001MD1710211+0001REMSYN070AAXX  01091 56969 42580 13201 10276 20129 40129 57021 81100 333 00002;
0162569690999992000010112004+21500+101580FM-12+063399999V0209999C000012200019N0200001N1+01811+01311101621ADDAA106000091GA1001+999999999GF100991001001999999001001MD1210191+0011REMSYN064AAXX  01121 56969 32970 00000 10181 20131 40162 52019 333 00102;EQDQ01  00002PRCP06
0193569690999992000010118004+21500+101580FM-12+063399999V0209999C000010006019N0006001N1+01101+01101101741ADDAA106000091GA1091+999999999GF109991091999999999999999KA1999M+02761MD1710021+0001MW1471REMSYN076AAXX  01181 56969 31/06 90000 10110 20110 40174 57002 74700 333 00000 10276;EQDQ01  00002PRCP06
0160569690999992000010121004+21500+101580FM-12+063399999V0209999C000010006019N0008001N1+01081+01081101621ADDAY141031AY241031GA1091+999999999GF109991091999999999999999MD1710041+0001MW1431REMSYN070AAXX  01211 56969 41/08 90000 10108 20108 40162 57004 74344 333 00000;
0190569690999992000010200004+21500+101580FM-12+063399999V0200201N001010003019N0004001N1+01001+01001101911ADDAA106000091AY141061AY241061GA1091+999999999GF109991091999999999999999MD1210141+0001MW1451REMSYN070AAXX  02001 56969 31/04 90201 10100 20100 40191 52014 74544 333 00000;EQDQ01  00002PRCP06
0132569690999992000010203004+21500+101580FM-12+063399999V0209999C000010042019N0080001N1+01121+01041102141ADDAY141031GF108991081061004501999999MD1210161+9999MW1101REMSYN066AAXX  02031 56969 41458 80000 10112 20104 40214 52016 71040 886//;
0201569690999992000010206004+21500+101580FM-12+063399999V0209999C000012200019N0300001N1+02201+01351101641ADDAA106000091AY141061GA1001+999999999GF100991001001999999001001KA1999N+00921MD1710351+0101MW1001REMSYN076AAXX  02061 56969 31980 00000 10220 20135 40164 57035 70040 333 00100 20092;EQDQ01  00002PRCP06
0132569690999992000010209004+21500+101580FM-12+063399999V0209999C000012200019N0300001N1+02711+01221101311ADDGA1001+999999999GF100991001001999999001001MD1710251+0001REMSYN064AAXX  02091 56969 42980 00000 10271 20122 40131 57025 333 00051;
0162569690999992000010212004+21500+101580FM-12+063399999V0209999C000012200019N0100001N1+01701+01501101511ADDAA106000091GA1001+999999999GF100991001001999999001001MD1210061+0011REMSYN064AAXX  02121 56969 32960 00000 10170 20150 40151 52006 333 05151;EQDQ01  00002PRCP06
0181569690999992000010218004+21500+101580FM-12+063399999V0209999C000012200019N0100001N1+01121+01121101621ADDAA106000091GA1001+999999999GF100991001001999999001001KA1999M+02781MD1710041-0101REMSYN070AAXX  02181 56969 32960 00000 10112 20112 40162 57004 333 05100 10278;EQDQ01  00002PRCP06
0144569690999992000010221004+21500+101580FM-12+063399999V0209999C000010003019N0004001N1+01111+99999101511ADDGA1091+999999999GF109991091999999999999999MD1710041+0011MW1471REMSYN070AAXX  02211 56969 41/04 90000 10111 201/0 40151 57004 74700 333 05100;
0182569690999992000010300004+21500+101580FM-12+063399999V0200701N001010003019N0002001N1+01081+01081101741ADDAA106000091AY141061GA1091+999999999GF109991091999999999999999MD1210091+0021MW1471REMSYN070AAXX  03001 56969 31/02 90701 10108 20108 40174 52009 74740 333 05201;EQDQ01  00002PRCP06
0132569690999992000010303004+21500+101580FM-12+063399999V0201101N001012200019N0100001N1+01441+01211101911ADDAY141031GF102991021061004501001001MD1210161+9999MW1001REMSYN066AAXX  03031 56969 41460 21101 10144 20121 40191 52016 70040 82600;
0191569690999992000010306004+21500+101580FM-12+063399999V0209999C000012200019N0300001N1+02421+01361101411ADDAA106000091AY141061GF101991011011008001001001KA1999N+01001MD1710371-0201MW1001REMSYN082AAXX  03061 56969 31580 10000 10242 20136 40141 57037 70040 81100 333 05202 20100;EQDQ01  00002PRCP06
0122569690999992000010309004+21500+101580FM-12+063399999V0202701N002012200019N0300001N1+02761+01381101051ADDGF101991011011008001001001MD1710301+0021REMSYN070AAXX  03091 56969 42580 12702 10276 20138 40105 57030 81100 333 05201;
0162569690999992000010312004+21500+101580FM-12+063399999V0209999C000012200019N0200001N1+01931+01661101221ADDAA106000091GA1001+999999999GF100991001001999999001001MD1210061+0021REMSYN064AAXX  03121 56969 32970 00000 10193 20166 40122 52006 333 05202;EQDQ01  00002PRCP06
0193569690999992000010318004+21500+101580FM-12+063399999V0209999C000010001519N0001001N1+01341+01341101321ADDAA106000091GA1091+999999999GF109991091999999999999999KA1999M+02791MD1710011-0201MW1471REMSYN076AAXX  03181 56969 31/01 90000 10134 20134 40132 57001 74700 333 05202 10279;EQDQ01  00002PRCP06
0160569690999992000010321004+21500+101580FM-12+063399999V0209999C000010003019N0004001N1+01341+01341101261ADDAY141031AY241031GA1091+999999999GF109991091999999999999999MD1710021+0021MW1451REMSYN070AAXX  03211 56969 41/04 90000 10134 20134 40126 57002 74544 333 05202;
0190569690999992000010400004+21500+101580FM-12+063399999V0209999C000010003019N0005001N1+01291+01291101491ADDAA106000091AY141061AY241061GA1091+999999999GF109991091999999999999999MD1210111+0021MW1471REMSYN070AAXX  04001 56969 31/05 90000 10129 20129 40149 52011 74744 333 05202;EQDQ01  00002PRCP06
0132569690999992000010403004+21500+101580FM-12+063399999V0201401N001010042019N0080001N1+01671+01401101681ADDAY141031GF107991071061004501999999MD1210171+9999MW1101REMSYN066AAXX  04031 56969 41458 71401 10167 20140 40168 52017 71040 876//;
0191569690999992000010406004+21500+101580FM-12+063399999V0201101N001012200019N0300001N1+02521+01801101261ADDAA106000091AY141061GF101991011011008001001001KA1999N+01221MD1710311-0101MW1001REMSYN082AAXX  04061 56969 31580 11101 10252 20180 40126 57031 70040 81100 333 05101 20122;EQDQ01  00002PRCP06
0122569690999992000010409004+21500+101580FM-12+063399999V0202201N002012200019N0300001N1+02771+01201101001ADDGF101991011011008001001001MD1710211+0001REMSYN070AAXX  04091 56969 42580 12202 10277 20120 40100 57021 81100 333 00000;
0162569690999992000010412004+21500+101580FM-12+063399999V0209999C000012200019N0100001N1+01911+01531101221ADDAA106000091GA1001+999999999GF100991001001999999001001MD1210101+0001REMSYN064AAXX  04121 56969 32960 00000 10191 20153 40122 52010 333 00000;EQDQ01  00002PRCP06
0181569690999992000010418004+21500+101580FM-12+063399999V0209999C000012200019N0100001N1+01291+01251101431ADDAA106000091GA1001+999999999GF100991001001999999001001KA1999M+02831MD1210061+0101REMSYN070AAXX  04181 56969 32960 00000 10129 20125 40143 52006 333 00151 10283;EQDQ01  00002PRCP06
0152569690999992000010421004+21500+101580FM-12+063399999V0209999C000010003019N0003001N1+01211+01211101361ADDAY141031GA1091+999999999GF109991091999999999999999MD1710051+0011MW1451REMSYN070AAXX  04211 56969 41/03 90000 10121 20121 40136 57005 74540 333 00151;
0182569690999992000010500004+21500+101580FM-12+063399999V0200201N001010003019N0003001N1+01171+01171101571ADDAA106000091AY141061GA1091+999999999GF109991091999999999999999MD1210091+0011MW1471REMSYN070AAXX  05001 56969 31/03 90201 10117 20117 40157 52009 74740 333 00151;EQDQ01  00002PRCP06
0132569690999992000010503004+21500+101580FM-12+063399999V0209999C000010042019N0080001N1+01291+01201101811ADDAY141031GF107991071061004501999999MD1210181+9999MW1101REMSYN066AAXX  05031 56969 41458 70000 10129 20120 40181 52018 71040 876//;
0191569690999992000010506004+21500+101580FM-12+063399999V0209999C000012200019N0300001N1+02401+01551101301ADDAA106000091AY141061GF101991011011008001001001KA1999N+01101MD1710361+0001MW1001REMSYN082AAXX  05061 56969 31580 10000 10240 20155 40130 57036 70040 81100 333 00051 20110;EQDQ01  00002PRCP06
0122569690999992000010509004+21500+101580FM-12+063399999V0202901N001012200019N0300001N1+02761+01091101021ADDGF102991011011008001001011MD1710231+0001REMSYN070AAXX  05091 56969 42580 22901 10276 20109 40102 57023 81101 333 00000;
0162569690999992000010512004+21500+101580FM-12+063399999V0209999C000012200019N0150001N1+01801+01381101231ADDAA106000091GA1001+999999999GF100991001001999999001001MD1210081+0001REMSYN064AAXX  05121 56969 32965 00000 10180 20138 40123 52008 333 00051;EQDQ01  00002PRCP06
0181569690999992000010518004+21500+101580FM-12+063399999V0209999C000012200019N0100001N1+01171+01171101421ADDAA106000091GA1001+999999999GF100991001001999999001001KA1999M+02771MD1210091+0001REMSYN070AAXX  05181 56969 32960 00000 10117 20117 40142 52009 333 00051 10277;EQDQ01  00002PRCP06
0152569690999992000010521004+21500+101580FM-12+063399999V0209999C000010001519N0001001N1+01081+01081101321ADDAY141031GA1091+999999999GF109991091999999999999999MD1710061+0011MW1471REMSYN070AAXX  05211 56969 41/01 90000 10108 20108 40132 57006 74740 333 05151;
0132569690999992000010603004+21500+101580FM-12+063399999V0209999C000012200019N0100001N1+01321+01081101791ADDAY141031GF102991021061004501001021MD1210171+9999MW1001REMSYN066AAXX  06031 56969 41460 20000 10132 20108 40179 52017 70040 82602;
0191569690999992000010606004+21500+101580FM-12+063399999V0209999C000012200019N0300001N1+02301+01141101361ADDAA106000091AY141061GF101991011001999999031001KA1999N+00901MD1710301+0001MW1001REMSYN082AAXX  06061 56969 31980 10000 10230 20114 40136 57030 70040 81030 333 00051 20090;EQDQ01  00002PRCP06
0122569690999992000010609004+21500+101580FM-12+063399999V0202701N001012200019N0300001N1+02731+01071101071ADDGF101991001001999999001011MD1710231+0001REMSYN070AAXX  06091 56969 42980 12701 10273 20107 40107 57023 80001 333 00000;
0152569690999992000010612004+21500+101580FM-12+063399999V0209999C000012200019N0150001N1+01781+01481101281ADDAA106000091GF102991001001999999001011MD1210071+0001REMSYN070AAXX  06121 56969 32965 20000 10178 20148 40128 52007 80001 333 00000;EQDQ01  00002PRCP06
0152569690999992000010621004+21500+101580FM-12+063399999V0209999C000010006019N0006001N1+01111+01111101381ADDAY141031GA1091+999999999GF109991091999999999999999MD1710061+0011MW1431REMSYN070AAXX  06211 56969 41/06 90000 10111 20111 40138 57006 74340 333 00100;
0182569690999992000010700004+21500+101580FM-12+063399999V0209999C000010006019N0006001N1+01021+01021101591ADDAA106000091AY141061GA1091+999999999GF109991091999999999999999MD1210071+0001MW1471REMSYN070AAXX  07001 56969 31/06 90000 10102 20102 40159 52007 74740 333 00000;EQDQ01  00002PRCP06
0132569690999992000010703004+21500+101580FM-12+063399999V0209999C000010042019N0080001N1+01221+01131101751ADDAY141031GF107991071061004501999999MD1210121+9999MW1101REMSYN066AAXX  07031 56969 41458 70000 10122 20113 40175 52012 71040 876//;
0191569690999992000010706004+21500+101580FM-12+063399999V0201401N001012200019N0300001N1+02321+01341101251ADDAA106000091AY141061GF104991011011008001031001KA1999N+00971MD1710351-0101MW1001REMSYN082AAXX  07061 56969 31580 41401 10232 20134 40125 57035 70040 81130 333 05100 20097;EQDQ01  00002PRCP06
0122569690999992000010709004+21500+101580FM-12+063399999V0202501N002010120019N0300001N1+02561+01401101091ADDGF107991071081008001001001MD1710131+0001REMSYN070AAXX  07091 56969 42580 72502 10256 20140 40109 57013 87800 333 00052;
0151569690999992000010712004+21500+101580FM-12+063399999V0209999C000010150019N0100001N1+02021+01771101331ADDAA106000791GF108991081051017501999999MD1210151+0011MW1601REMSYN082AAXX  07121 56969 11760 80000 10202 20177 40133 52015 69901 76000 885// 333 00102;
0188569690999992000010718004+21500+101580FM-12+063399999V0209999C000012200019N0100001N1+01541+01491101331ADDAA106000791AY161061GA1001+999999999GF100991001001999999001001KA1999M+02731MD1710031-0101MW1001REMSYN082AAXX  07181 56969 11960 00000 10154 20149 40133 57003 69901 70060 333 05104 10273;
0151569690999992000010721004+21500+101580FM-12+063399999V0209999C000012200019N0090001N1+01421+01401101241ADDAA124000791GF101991011061004501001001MD1710071-0101MW1101REMSYN082AAXX  07211 56969 41459 10000 10142 20140 40124 57007 71000 81600 333 05103 79999;
0170569690999992000010800004+21500+101580FM-12+063399999V0209999C000010042019N0080001N1+01341+01321101551ADDAA106000091GF105991051061004501001001MD1210211+0001MW1101REMSYN082AAXX  08001 56969 31458 50000 10134 20132 40155 52021 71000 85600 333 00003 79999;EQDQ01  00002PRCP06
0124569690999992000010803004+21500+101580FM-12+063399999V0209999C000010042019N0060001N1+01481+01431101731ADDGF108991081061004501999999MD1210151+9999MW1101REMSYN066AAXX  08031 56969 41456 80000 10148 20143 40173 52015 71000 886//;
0171569690999992000010806004+21500+101580FM-12+063399999V0202701N002012200019N0300001N1+02501+01481101231ADDAA106000091GF101991011011008001001001KA1999N+01251MD1710361+0101REMSYN076AAXX  08061 56969 32580 12702 10250 20148 40123 57036 81100 333 00102 20125;EQDQ01  00002PRCP06
0122569690999992000010809004+21500+101580FM-12+063399999V0203201N002012200019N0300001N1+02681+01331100991ADDGF101991011011008001031001MD1710221+0001REMSYN070AAXX  08091 56969 42580 13202 10268 20133 40099 57022 81130 333 00001;
0162569690999992000010812004+21500+101580FM-12+063399999V0209999C000012200019N0150001N1+01861+01551101201ADDAA106000091GA1001+999999999GF100991001001999999001001MD1210091+0011REMSYN064AAXX  08121 56969 32965 00000 10186 20155 40120 52009 333 05152;EQDQ01  00002PRCP06
0181569690999992000010818004+21500+101580FM-12+063399999V0209999C000012200019N0100001N1+01181+01161101471ADDAA106000091GA1001+999999999GF100991001001999999001001KA1999M+02681MD1210041+0101REMSYN070AAXX  08181 56969 32960 00000 10118 20116 40147 52004 333 00154 10268;EQDQ01  00002PRCP06
0152569690999992000010821004+21500+101580FM-12+063399999V0209999C000010003019N0005001N1+01081+01081101391ADDAY141031GA1091+999999999GF109991091999999999999999MD1710071+0011MW1471REMSYN070AAXX  08211 56969 41/05 90000 10108 20108 40139 57007 74740 333 00153;
0172569690999992000010900004+21500+101580FM-12+063399999V0209999C000010042019N0020001N1+01081+01061101621ADDAA106000091AY141061GF108991081061004501999999MD1210121+0001MW1281REMSYN076AAXX  09001 56969 31420 80000 10108 20106 40162 52012 72840 886// 333 00053;EQDQ01  00002PRCP06
0132569690999992000010903004+21500+101580FM-12+063399999V0209999C000010042019N0080001N1+01201+01131101861ADDAY141031GF107991071061004501999999MD1210181+9999MW1101REMSYN066AAXX  09031 56969 41458 70000 10120 20113 40186 52018 71040 876//;
0141569690999992000010909004+21500+101580FM-12+063399999V0202201N002012200019N0300001N1+02721+01171100992ADDGF101991011011008001031001MD1710251+0001REMSYN070AAXX  09091 56969 42580 12202 10272 20117 40099 57025 81130 333 00000;EQDQ01+100993APOSLP
0152569690999992000010912004+21500+101580FM-12+063399999V0209999C000012200019N0200001N1+01811+01511101201ADDAA106000091GF101991011001999999031001MD1210081+0001REMSYN070AAXX  09121 56969 32970 10000 10181 20151 40120 52008 81030 333 00051;EQDQ01  00002PRCP06
0181569690999992000010918004+21500+101580FM-12+063399999V0209999C000012200019N0100001N1+01271+01231101391ADDAA106000091GA1001+999999999GF100991001001999999001001KA1999M+02791MD1210061-0101REMSYN070AAXX  09181 56969 32960 00000 10127 20123 40139 52006 333 05101 10279;EQDQ01  00002PRCP06
0144569690999992000010921004+21500+101580FM-12+063399999V0209999C000012200019N0080001N1+01191+01171101261ADDGA1001+999999999GF100991001001999999001001MD1710081+0011MW1101REMSYN070AAXX  09211 56969 41958 00000 10119 20117 40126 57008 71000 333 05101;
0172569690999992000011000004+21500+101580FM-12+063399999V0209999C000010042019N0020001N1+01151+01151101461ADDAA106000091AY141061GF108991081061004501999999MD1210071+0021MW1281REMSYN076AAXX  10001 56969 31420 80000 10115 20115 40146 52007 72840 886// 333 05201;EQDQ01  00002PRCP06
0112569690999992000011003004+21500+101580FM-12+063399999V0209999C000012200019N0100001N1+01531+01301101631ADDGF101991011011008001001001MD1210161+9999REMSYN060AAXX  10031 56969 42560 10000 10153 20130 40163 52016 81100;
0171569690999992000011006004+21500+101580FM-12+063399999V0209999C000012200019N0300001N1+02671+01501101161ADDAA106000091GF101991011011008001001001KA1999N+01071MD1710321-0101REMSYN076AAXX  10061 56969 32580 10000 10267 20150 40116 57032 81100 333 05104 20107;EQDQ01  00002PRCP06
0132569690999992000011009004+21500+101580FM-12+063399999V0202001N003012200019N0300001N1+02821+01311100971ADDGA1001+999999999GF100991001001999999001001MD1710171+0001REMSYN064AAXX  10091 56969 42980 02003 10282 20131 40097 57017 333 00001;
0162569690999992000011012004+21500+101580FM-12+063399999V0209999C000012200019N0200001N1+01991+01461101161ADDAA106000091GA1001+999999999GF100991001001999999001001MD1210081+0001REMSYN064AAXX  10121 56969 32970 00000 10199 20146 40116 52008 333 00002;EQDQ01  00002PRCP06
0181569690999992000011018004+21500+101580FM-12+063399999V0209999C000012200019N0100001N1+01221+01201101351ADDAA106000091GA1001+999999999GF100991001001999999001001KA1999M+02871MD1210031+0001REMSYN070AAXX  10181 56969 32960 00000 10122 20120 40135 52003 333 00051 10287;EQDQ01  00002PRCP06
0152569690999992000011021004+21500+101580FM-12+063399999V0209999C000010003019N0002001N1+01161+01161101321ADDAY141031GA1091+999999999GF109991091999999999999999MD1710021+0011MW1471REMSYN070AAXX  10211 56969 41/02 90000 10116 20116 40132 57002 74740 333 00100;
0182569690999992000011100004+21500+101580FM-12+063399999V0200701N001010003019N0004001N1+01101+01101101581ADDAA106000091AY141061GA1091+999999999GF109991091999999999999999MD1210141+0011MW1471REMSYN070AAXX  11001 56969 31/04 90701 10110 20110 40158 52014 74740 333 00151;EQDQ01  00002PRCP06
0118569690999992000011103004+21500+101580FM-12+063399999V0209999C000012200019N0060001N1+01261+01191101821ADDGF104991021081004501041041MD1210171+9999REMSYN066AAXX  11031 56969 41456 40000 10126 20119 40182 52017 82844 84600;
0191569690999992000011106004+21500+101580FM-12+063399999V0209999C000012200019N0300001N1+02541+01451101311ADDAA106000091AY141061GF101991011011008001001001KA1999N+01001MD1710341+0101MW1001REMSYN082AAXX  11061 56969 31580 10000 10254 20145 40131 57034 70040 81100 333 00151 20100;EQDQ01  00002PRCP06
0122569690999992000011109004+21500+101580FM-12+063399999V0202501N001012200019N0300001N1+02951+01391100981ADDGF101991011011008001001001MD1710271+0001REMSYN070AAXX  11091 56969 42580 12501 10295 20139 40098 57027 81100 333 00001;
0162569690999992000011112004+21500+101580FM-12+063399999V0209999C000012200019N0200001N1+02001+01601101201ADDAA106000091GA1001+999999999GF100991001001999999001001MD1210091+0001REMSYN064AAXX  11121 56969 32970 00000 10200 20160 40120 52009 333 00000;EQDQ01  00002PRCP06
0193569690999992000011118004+21500+101580FM-12+063399999V0209999C000012200019N0080001N1+01291+01271101331ADDAA106000091GA1001+999999999GF100991001001999999001001KA1999M+02951MD1210011+0001MW1101REMSYN076AAXX  11181 56969 31958 00000 10129 20127 40133 52001 71000 333 00001 10295;EQDQ01  00002PRCP06
0152569690999992000011121004+21500+101580FM-12+063399999V0209999C000010003019N0002001N1+01211+01211101271ADDAY141031GA1091+999999999GF109991091999999999999999MD1710021+0001MW1451REMSYN070AAXX  11211 56969 41/02 90000 10121 20121 40127 57002 74540 333 00001;
0182569690999992000011200004+21500+101580FM-12+063399999V0209999C000010003019N0004001N1+01141+01141101521ADDAA106000091AY141061GA1091+999999999GF109991091999999999999999MD1210111+0011MW1471REMSYN070AAXX  12001 56969 31/04 90000 10114 20114 40152 52011 74740 333 05100;EQDQ01  00002PRCP06
0140569690999992000011203004+21500+101580FM-12+063399999V0201101N001010042019N0060001N1+01281+01211101801ADDAY141031AY241031GF108991081061004501999999MD1210211+9999MW1281REMSYN066AAXX  12031 56969 41456 81101 10128 20121 40180 52021 72844 886//;
0201569690999992000011206004+21500+101580FM-12+063399999V0209999C000012200019N0300001N1+02321+01571101311ADDAA106000091AY141061GA1001+999999999GF100991001001999999001001KA1999N+01071MD1710351+0001MW1001REMSYN076AAXX  12061 56969 31980 00000 10232 20157 40131 57035 70040 333 00052 20107;EQDQ01  00002PRCP06
0132569690999992000011209004+21500+101580FM-12+063399999V0202901N002012200019N0300001N1+02861+00881100971ADDGA1001+999999999GF100991001001999999001001MD1710261+0001REMSYN064AAXX  12091 56969 42980 02902 10286 20088 40097 57026 333 00051;
0162569690999992000011212004+21500+101580FM-12+063399999V0209999C000012200019N0200001N1+01921+01511101161ADDAA106000091GA1001+999999999GF100991001001999999001001MD1210061+0001REMSYN064AAXX  12121 56969 32970 00000 10192 20151 40116 52006 333 00051;EQDQ01  00002PRCP06
0181569690999992000011218004+21500+101580FM-12+063399999V0209999C000012200019N0100001N1+01171+01151101321ADDAA106000091GA1001+999999999GF100991001001999999001001KA1999M+02891MD1710041-0101REMSYN070AAXX  12181 56969 32960 00000 10117 20115 40132 57004 333 05151 10289;EQDQ01  00002PRCP06
0152569690999992000011221004+21500+101580FM-12+063399999V0209999C000010006019N0008001N1+01081+01081101221ADDAY141031GA1091+999999999GF109991091999999999999999MD1710041+0011MW1431REMSYN070AAXX  12211 56969 41/08 90000 10108 20108 40122 57004 74340 333 05151;
0182569690999992000011300004+21500+101580FM-12+063399999V0200401N001010003019N0003001N1+01061+01061101391ADDAA106000091AY141061GA1091+999999999GF109991091999999999999999MD1210041+0011MW1471REMSYN070AAXX  13001 56969 31/03 90401 10106 20106 40139 52004 74740 333 05151;EQDQ01  00002PRCP06
0140569690999992000011303004+21500+101580FM-12+063399999V0209999C000010042019N0060001N1+01121+01081101631ADDAY141031AY241031GF108991081061004501999999MD1210161+9999MW1281REMSYN066AAXX  13031 56969 41456 80000 10112 20108 40163 52016 72844 886//;
0201569690999992000011306004+21500+101580FM-12+063399999V0209999C000012200019N0300001N1+02261+01501101151ADDAA106000091AY141061GA1001+999999999GF100991001001999999001001KA1999N+00961MD1710331-0201MW1001REMSYN076AAXX  13061 56969 31980 00000 10226 20150 40115 57033 70040 333 05251 20096;EQDQ01  00002PRCP06
0132569690999992000011309004+21500+101580FM-12+063399999V0202501N002012200019N0300001N1+02841+00901100831ADDGA1001+999999999GF100991001001999999001001MD1710241+0021REMSYN064AAXX  13091 56969 42980 02502 10284 20090 40083 57024 333 05200;
0162569690999992000011312004+21500+101580FM-12+063399999V0209999C000012200019N0200001N1+01861+01371101051ADDAA106000091GA1001+999999999GF100991001001999999001001MD1210091+0011REMSYN064AAXX  13121 56969 32970 00000 10186 20137 40105 52009 333 05151;EQDQ01  00002PRCP06
0181569690999992000011318004+21500+101580FM-12+063399999V0209999C000012200019N0100001N1+01061+01041101251ADDAA106000091GA1001+999999999GF100991001001999999001001KA1999M+02841MD1710011-0101REMSYN070AAXX  13181 56969 32960 00000 10106 20104 40125 57001 333 05151 10284;EQDQ01  00002PRCP06
0148569690999992000011321004+21500+101580FM-12+063399999V0209999C000010003019N0002001N1+00981+00981101141ADDGA1091+999999999GF109991091999999999999999MD1710041+0011MW1471REMSYN074    AAXX  13211 56969 41/02 90000 10098 20098 40114 57004 74700 333 05151;
0186569690999992000011400004+21500+101580FM-12+063399999V0209999C000010001519N0001001N1+00901+00901101451ADDAA199000091AY141061GA1091+999999999GF109991091999999999999999MD1210161+0001MW1471REMSYN074    AAXX  14001 56969 31/01 90000 10090 20090 40145 52016 74740 333 00052;EQDQ01  00002PRCP99
0144569690999992000011403004+21500+101580FM-12+063399999V0209999C000010042019N0020001N1+01041+01001101671ADDAY141031AY241031GF108991081061004501999999MD1210151+9999MW1281REMSYN070    AAXX  14031 56969 41420 80000 10104 20100 40167 52015 72844 886//;
0205569690999992000011406004+21500+101580FM-12+063399999V0209999C000012200019N0300001N1+02361+01221101121ADDAA199000091AY141061GA1001+999999999GF100991001001999999001001KA1999N+00841MD1710381+0001MW1001REMSYN080    AAXX  14061 56969 31980 00000 10236 20122 40112 57038 70040 333 00001 20084;EQDQ01  00002PRCP99
0136569690999992000011409004+21500+101580FM-12+063399999V0202501N002012200019N0300001N1+02831+00701100761ADDGA1001+999999999GF100991001001999999001001MD1710291+0011REMSYN068    AAXX  14091 56969 42980 02502 10283 20070 40076 57029 333 05100;
0166569690999992000011412004+21500+101580FM-12+063399999V0209999C000012200019N0200001N1+01801+01281101021ADDAA199000091GA1001+999999999GF100991001001999999001001MD1210111+0011REMSYN068    AAXX  14121 56969 32970 00000 10180 20128 40102 52011 333 05151;EQDQ01  00002PRCP99
0185569690999992000011418004+21500+101580FM-12+063399999V0209999C000012200019N0100001N1+01021+01001101311ADDAA199000091GA1001+999999999GF100991001001999999001001KA1999M+02881MD1210061+0101REMSYN074    AAXX  14181 56969 32960 00000 10102 20100 40131 52006 333 00100 10288;EQDQ01  00002PRCP99
0156569690999992000011421004+21500+101580FM-12+063399999V0209999C000010003019N0002001N1+00891+00891101251ADDAY141031GA1091+999999999GF109991091999999999999999MD1710011+0011MW1451REMSYN074    AAXX  14211 56969 41/02 90000 10089 20089 40125 57001 74540 333 00151;
0186569690999992000011500004+21500+101580FM-12+063399999V0209999C000010003019N0002001N1+00821+00821101561ADDAA199000091AY141061GA1091+999999999GF109991091999999999999999MD1210151+0011MW1471REMSYN074    AAXX  15001 56969 31/02 90000 10082 20082 40156 52015 74740 333 00151;EQDQ01  00002PRCP99
0136569690999992000011503004+21500+101580FM-12+063399999V0209999C000012200019N0100001N1+01131+01001101771ADDAY141031GF102991021061004501001001MD1210171+9999MW1281REMSYN070    AAXX  15031 56969 41460 20000 10113 20100 40177 52017 72840 82600;
0205569690999992000011506004+21500+101580FM-12+063399999V0209999C000012200019N0300001N1+02361+01241101271ADDAA199000091AY141061GA1001+999999999GF100991001001999999001001KA1999N+00751MD1710341+0101MW1001REMSYN080    AAXX  15061 56969 31980 00000 10236 20124 40127 57034 70040 333 00100 20075;EQDQ01  00002PRCP99
0136569690999992000011509004+21500+101580FM-12+063399999V0202201N003012200019N0300001N1+02771+00671101011ADDGA1001+999999999GF100991001001999999001001MD1710211+0021REMSYN068    AAXX  15091 56969 42980 02203 10277 20067 40101 57021 333 00251;
0166569690999992000011512004+21500+101580FM-12+063399999V0209999C000012200019N0300001N1+01811+01291101261ADDAA199000091GA1001+999999999GF100991001001999999001001MD1210111+0021REMSYN068    AAXX  15121 56969 32980 00000 10181 20129 40126 52011 333 00200;EQDQ01  00002PRCP99
0185569690999992000011518004+21500+101580FM-12+063399999V0209999C000012200019N0150001N1+01041+01021101501ADDAA199000091GA1001+999999999GF100991001001999999001001KA1999M+02781MD1210091+0201REMSYN074    AAXX  15181 56969 32965 00000 10104 20102 40150 52009 333 00200 10278;EQDQ01  00002PRCP99
0148569690999992000011521004+21500+101580FM-12+063399999V0209999C000010001519N0001001N1+00921+00921101441ADDGA1091+999999999GF109991091999999999999999MD1710021+0021MW1471REMSYN074    AAXX  15211 56969 41/01 90000 10092 20092 40144 57002 74700 333 00200;
0186569690999992000011600004+21500+101580FM-12+063399999V0209999C000010003019N0002001N1+00891+00891101771ADDAA199000091AY141061GA1091+999999999GF109991091999999999999999MD1210191+0021MW1451REMSYN074    AAXX  16001 56969 31/02 90000 10089 20089 40177 52019 74540 333 00201;EQDQ01  00002PRCP99
0144569690999992000011603004+21500+101580FM-12+063399999V0209999C000010042019N0040001N1+01111+01051101981ADDAY141031AY241031GF107991071061004501999999MD1210151+9999MW1281REMSYN070    AAXX  16031 56969 41440 70000 10111 20105 40198 52015 72844 876//;
0205569690999992000011606004+21500+101580FM-12+063399999V0202001N001012200019N0300001N1+02451+01281101451ADDAA199000091AY141061GA1001+999999999GF100991001001999999001001KA1999N+00771MD1710351+0201MW1001REMSYN080    AAXX  16061 56969 31980 02001 10245 20128 40145 57035 70040 333 00201 20077;EQDQ01  00002PRCP99
0136569690999992000011609004+21500+101580FM-12+063399999V0202001N001012200019N0300001N1+02721+00811101171ADDGA1001+999999999GF100991001001999999001001MD1710251+0011REMSYN068    AAXX  16091 56969 42980 02001 10272 20081 40117 57025 333 00151;
0166569690999992000011612004+21500+101580FM-12+063399999V0209999C000012200019N0250001N1+01761+01441101371ADDAA199000091GA1001+999999999GF100991001001999999001001MD1210071+0011REMSYN068    AAXX  16121 56969 32975 00000 10176 20144 40137 52007 333 00151;EQDQ01  00002PRCP99
0185569690999992000011618004+21500+101580FM-12+063399999V0209999C000012200019N0100001N1+01111+01071101511ADDAA199000091GA1001+999999999GF100991001001999999001001KA1999M+02761MD1210051+0001REMSYN074    AAXX  16181 56969 32960 00000 10111 20107 40151 52005 333 00001 10276;EQDQ01  00002PRCP99
0148569690999992000011621004+21500+101580FM-12+063399999V0209999C000010003019N0004001N1+00941+00941101471ADDGA1091+999999999GF109991091999999999999999MD1710021+0001MW1471REMSYN074    AAXX  16211 56969 41/04 90000 10094 20094 40147 57002 74700 333 00000;
0186569690999992000011700004+21500+101580FM-12+063399999V0209999C000010003019N0002001N1+00941+00941101761ADDAA199000091AY141061GA1091+999999999GF109991091999999999999999MD1210151+0001MW1431REMSYN074    AAXX  17001 56969 31/02 90000 10094 20094 40176 52015 74340 333 00001;EQDQ01  00002PRCP99
0144569690999992000011703004+21500+101580FM-12+063399999V0201601N001012200019N0100001N1+01261+01131101971ADDAY141031AY241031GF102991021061004501001001MD1210171+9999MW1281REMSYN070    AAXX  17031 56969 41460 21601 10126 20113 40197 52017 72844 82600;
0205569690999992000011706004+21500+101580FM-12+063399999V0209999C000012200019N0300001N1+02441+01201101461ADDAA199000091AY141061GA1001+999999999GF100991001001999999001001KA1999N+00871MD1710351+0001MW1001REMSYN080    AAXX  17061 56969 31980 00000 10244 20120 40146 57035 70040 333 00000 20087;EQDQ01  00002PRCP99
0126569690999992000011709004+21500+101580FM-12+063399999V0202501N002012200019N0300001N1+02721+01061101141ADDGF101991011011008001001001MD1710281+0001REMSYN074    AAXX  17091 56969 42580 12502 10272 20106 40114 57028 81100 333 00000;
0166569690999992000011712004+21500+101580FM-12+063399999V0209999C000012200019N0200001N1+01871+01511101361ADDAA199000091GA1001+999999999GF100991001001999999001001MD1210101+0001REMSYN068    AAXX  17121 56969 32970 00000 10187 20151 40136 52010 333 00001;EQDQ01  00002PRCP99
0185569690999992000011718004+21500+101580FM-12+063399999V0209999C000012200019N0150001N1+01191+01171101521ADDAA199000091GA1001+999999999GF100991001001999999001001KA1999M+02771MD1210031+0001REMSYN074    AAXX  17181 56969 32965 00000 10119 20117 40152 52003 333 00001 10277;EQDQ01  00002PRCP99
0148569690999992000011721004+21500+101580FM-12+063399999V0209999C000010003019N0005001N1+01101+01101101471ADDGA1091+999999999GF109991091999999999999999MD1710031+0001MW1471REMSYN074    AAXX  17211 56969 41/05 90000 10110 20110 40147 57003 74700 333 00002;
0186569690999992000011800004+21500+101580FM-12+063399999V0209999C000010006019N0006001N1+01111+01111101641ADDAA199000091AY141061GA1091+999999999GF109991091999999999999999MD1210061+0011MW1431REMSYN074    AAXX  18001 56969 31/06 90000 10111 20111 40164 52006 74340 333 05102;EQDQ01  00002PRCP99
0144569690999992000011803004+21500+101580FM-12+063399999V0209999C000012200019N0100001N1+01361+01201101841ADDAY141031AY241031GF103991031061004501001001MD1210161+9999MW1281REMSYN070    AAXX  18031 56969 41460 30000 10136 20120 40184 52016 72844 83600;
0167569690999992000011806004+21500+101580FM-12+063399999V0201601N001012200019N0300001N1+02411+01331999999ADDAA199000091GF101991999999008001999999MD1999999-0101REMSYN085    AAXX  18061 56969 31580 11601 10241 20133 4013 57033 70040 81100 333 05100 20101;EQDQ01  00002PRCP99
0126569690999992000011809004+21500+101580FM-12+063399999V0202001N003012200019N0300001N1+02711+01311101051ADDGF102991021011008001001001MD1710281+0011REMSYN074    AAXX  18091 56969 42580 22003 10271 20131 40105 57028 82100 333 05100;
0166569690999992000011812004+21500+101580FM-12+063399999V0209999C000012200019N0300001N1+01961+01431101181ADDAA199000091GA1001+999999999GF100991001001999999001001MD1210041+0011REMSYN068    AAXX  18121 56969 32980 00000 10196 20143 40118 52004 333 05101;EQDQ01  00002PRCP99
0185569690999992000011818004+21500+101580FM-12+063399999V0209999C000012200019N0150001N1+01231+01211101531ADDAA199000091GA1001+999999999GF100991001001999999001001KA1999M+02771MD1210101+0001REMSYN074    AAXX  18181 56969 32965 00000 10123 20121 40153 52010 333 00000 10277;EQDQ01  00002PRCP99
0126569690999992000011821004+21500+101580FM-12+063399999V0209999C000012200019N0100001N1+01121+01101101461ADDGF102991021051017501001001MD1710041+0001REMSYN074    AAXX  18211 56969 42760 20000 10112 20110 40146 57004 82500 333 00000;
0176569690999992000011900004+21500+101580FM-12+063399999V0209999C000010042019N0100001N1+01111+01091101761ADDAA199000091AY141061GF108991081051004501999999MD1210181+0011MW1001REMSYN080    AAXX  19001 56969 31460 80000 10111 20109 40176 52018 70040 885// 333 00100;EQDQ01  00002PRCP99
0116569690999992000011903004+21500+101580FM-12+063399999V0209999C000010150019N0150001N1+01471+01281101961ADDGF107991071051017501999999MD1210171+9999REMSYN064    AAXX  19031 56969 42765 70000 10147 20128 40196 52017 875//;
0175569690999992000011906004+21500+101580FM-12+063399999V0201101N003010120019N0300001N1+01961+01441101651ADDAA199000091GF107991071081008001999999KA1999N+01011MD1710251+0201REMSYN080    AAXX  19061 56969 32580 71103 10196 20144 40165 57025 878// 333 00255 20101;EQDQ01  00002PRCP99
0126569690999992000011909004+21500+101580FM-12+063399999V0200701N001010150019N0300001N1+01801+01301101551ADDGF108991081051017501999999MD1710131+0041REMSYN074    AAXX  19091 56969 42780 80701 10180 20130 40155 57013 885// 333 00459;
0156569690999992000011912004+21500+101580FM-12+063399999V0201101N002010150019N0100001N1+01611+01241101611ADDAA199000091GF108991081051017501999999MD1210031+0041REMSYN074    AAXX  19121 56969 32760 81102 10161 20124 40161 52003 885// 333 00454;EQDQ01  00002PRCP99
0171569690999992000011918004+21500+101580FM-12+063399999V0200701N002010150019N0100001N1+01461+01151101701ADDAA199000091GF108991081051017501999999KA1999M+01981MD1710011+0101REMSYN076AAXX  19181 56969 32760 80702 10146 20115 40170 57001 885// 333 00102 10198;EQDQ01  00002PRCP99
0122569690999992000011921004+21500+101580FM-12+063399999V0200701N001010150019N0100001N1+01421+01151101661ADDGF108991081051017501999999MD1710061+0011REMSYN070AAXX  19211 56969 42760 80701 10142 20115 40166 57006 885// 333 00103;
0157569690999992000012000004+21500+101580FM-12+063399999V0209999C000010150019N0100001N1+01381+01161101761ADDAA106000191GF108991081051017501999999MD1210061+0001MW1601REMSYN088AAXX  20001 56969 11760 80000 10138 20116 40176 52006 69911 76000 885// 333 00003 70001;
0132569690999992000012003004+21500+101580FM-12+063399999V0200201N001010150019N0100001N1+01421+01211101871ADDAY161031GF108991081051017501999999MD1210101+9999MW1001REMSYN066AAXX  20031 56969 41760 80201 10142 20121 40187 52010 70060 885//;
0178569690999992000012006004+21500+101580FM-12+063399999V0200201N001010150019N0200001N1+01581+01191101651ADDAA106000191AY161061GF108991081051017501999999KA1999N+01251MD1710191+0001MW1001REMSYN088AAXX  20061 56969 11770 80201 10158 20119 40165 57019 69911 70060 885// 333 00054 20125;
0122569690999992000012009004+21500+101580FM-12+063399999V0200201N003010150019N0200001N1+01591+01241101471ADDGF108991081051017501999999MD1710171+0011REMSYN070AAXX  20091 56969 42770 80203 10159 20124 40147 57017 885// 333 05152;
0133569690999992000012012004+21500+101580FM-12+063399999V0200201N001010150019N0120001N1+01521+01241101571ADDAA199000021GF108991081051017501999999MD1210081+0001REMSYN070AAXX  20121 56969 32762 80201 10152 20124 40157 52008 885// 333 00051;
0171569690999992000012018004+21500+101580FM-12+063399999V0200701N001010150019N0100001N1+01441+01231101791ADDAA199000091GF108991081051017501999999KA1999M+01641MD1210031+0001REMSYN076AAXX  20181 56969 32760 80701 10144 20123 40179 52003 885// 333 00000 10164;EQDQ01  00002PRCP99
0139569690999992000012021004+21500+101580FM-12+063399999V0200401N001010150019N0100001N1+01431+01231101831ADDAA124000391GF108991081051017501999999MD1210031+0101REMSYN076AAXX  20211 56969 42760 80401 10143 20123 40183 52003 885// 333 00100 70002;
0139569690999992000012100004+21500+101580FM-12+063399999V0209999C000010150019N0120001N1+01381+01261101961ADDAA124000191GF108991081051017501999999MD1210111+0201REMSYN076AAXX  21001 56969 32762 80000 10138 20126 40196 52011 885// 333 00200 70001;
0112569690999992000012103004+21500+101580FM-12+063399999V0203401N002010150019N0250001N1+01781+01301102121ADDGF105991051051017501001001MD1210191+9999REMSYN060AAXX  21031 56969 42775 53402 10178 20130 40212 52019 85500;
0122569690999992000012109004+21500+101580FM-12+063399999V0202001N003012200019N0300001N1+02481+01321101501ADDGF102991021011008001001001MD1710241+0011REMSYN070AAXX  21091 56969 42580 22003 10248 20132 40150 57024 82100 333 00109;
0162569690999992000012112004+21500+101580FM-12+063399999V0203201N001012200019N0150001N1+01891+01491101651ADDAA199000091GA1001+999999999GF100991001001999999001001MD1210071+0011REMSYN064AAXX  21121 56969 32965 03201 10189 20149 40165 52007 333 00104;EQDQ01  00002PRCP99
0171569690999992000012118004+21500+101580FM-12+063399999V0209999C000010042019N0100001N1+01381+01351101831ADDAA199000091GF107991071051004501999999KA1999M+02531MD1210021+0101REMSYN076AAXX  21181 56969 32460 70000 10138 20135 40183 52002 875// 333 00151 10253;EQDQ01  00002PRCP99
0122569690999992000012121004+21500+101580FM-12+063399999V0209999C000010042019N0100001N1+01401+01371101681ADDGF107991071051004501999999MD1710101+0001REMSYN070AAXX  21211 56969 42460 70000 10140 20137 40168 57010 875// 333 00000;
0182569690999992000012200004+21500+101580FM-12+063399999V0201801N001010003019N0005001N1+01351+01351101831ADDAA199000091AY141061GA1091+999999999GF109991091999999999999999MD1210061+0011MW1451REMSYN070AAXX  22001 56969 31/05 91801 10135 20135 40183 52006 74540 333 05100;EQDQ01  00002PRCP99
0140569690999992000012203004+21500+101580FM-12+063399999V0209999C000010042019N0040001N1+01511+01441102041ADDAY141031AY241031GF108991081061004501999999MD1210161+9999MW1281REMSYN066AAXX  22031 56969 41440 80000 10151 20144 40204 52016 72844 886//;
0178569690999992000012206004+21500+101580FM-12+063399999V0209999C000010150019N0200001N1+02061+01501101661ADDAA106000791AY141061GF107991071051017501999999KA1999N+01261MD1710291-0101MW1601REMSYN088AAXX  22061 56969 11770 70000 10206 20150 40166 57029 69901 76040 875// 333 05152 20126;
0142569690999992000012209004+21500+101580FM-12+063399999V0200401N001012200019N0300001N1+02241+01621101391ADDAY161031GF101991011011008001001001MD1710231+0011MW1001REMSYN076AAXX  22091 56969 41580 10401 10224 20162 40139 57023 70060 81100 333 05152;
0159569690999992000012212004+21500+101580FM-12+063399999V0209999C000012200019N0100001N1+01841+01731101471ADDAA106003091AY161061GF101991011051017501001001MD1210021+0021MW1001REMSYN082AAXX  22121 56969 11760 10000 10184 20173 40147 52002 60031 70060 81500 333 05251;
0182569690999992000012218004+21500+101580FM-12+063399999V0209999C000010003019N0004001N1+01441+01441101681ADDAA199000021AY141061GA1091+999999999GF109991091999999999999999KA1999M+02271MD1210051-0201MW1471REMSYN076AAXX  22181 56969 31/04 90000 10144 20144 40168 52005 74740 333 05201 10227;
0177569690999992000012221004+21500+101580FM-12+063399999V0209999C000010006019N0008001N1+01461+01461101521ADDAA124002891AY141031AY241031GA1091+999999999GF109991091999999999999999MD1710121-0201MW1451REMSYN076AAXX  22211 56969 41/08 90000 10146 20146 40152 57012 74544 333 05201 70029;
0159569690999992000012300004+21500+101580FM-12+063399999V0209999C000010042019N0080001N1+01481+01431101671ADDAA124002891AY141061GF108991081061004501999999MD1210091-0101MW1101REMSYN082AAXX  23001 56969 31458 80000 10148 20143 40167 52009 71040 886// 333 05101 70029;
0124569690999992000012303004+21500+101580FM-12+063399999V0209999C000010042019N0090001N1+01611+01511101871ADDGF108991081061004501999999MD1210161+9999MW1101REMSYN066AAXX  23031 56969 41459 80000 10161 20151 40187 52016 71000 886//;
0171569690999992000012306004+21500+101580FM-12+063399999V0209999C000012200019N0300001N1+02381+01631101421ADDAA199000091GF102991021011008001001001KA1999N+01351MD1710331-0201REMSYN076AAXX  23061 56969 32580 20000 10238 20163 40142 57033 82100 333 05203 20135;EQDQ01  00002PRCP99
0122569690999992000012309004+21500+101580FM-12+063399999V0202001N002010075019N0300001N1+02461+01371101161ADDGF105991051021008001001001MD1710231+0021REMSYN070AAXX  23091 56969 42580 52002 10246 20137 40116 57023 85200 333 05202;
0152569690999992000012312004+21500+101580FM-12+063399999V0209999C000012200019N0150001N1+01971+01601101361ADDAA199000091GF101991011041012501001001MD1210131+0011REMSYN070AAXX  23121 56969 32665 10000 10197 20160 40136 52013 81400 333 05101;EQDQ01  00002PRCP99
0193569690999992000012318004+21500+101580FM-12+063399999V0209999C000012200019N0080001N1+01361+01341101581ADDAA199000091GA1001+999999999GF100991001001999999001001KA1999M+02571MD1210031-0101MW1101REMSYN076AAXX  23181 56969 31958 00000 10136 20134 40158 52003 71000 333 05151 10257;EQDQ01  00002PRCP99
0152569690999992000012321004+21500+101580FM-12+063399999V0209999C000010003019N0002001N1+01311+01311101551ADDAY141031GA1091+999999999GF109991091999999999999999MD1710031+0001MW1451REMSYN070AAXX  23211 56969 41/02 90000 10131 20131 40155 57003 74540 333 00052;
0182569690999992000012400004+21500+101580FM-12+063399999V0203601N001010003019N0002001N1+01241+01241101821ADDAA199000091AY141061GA1091+999999999GF109991091999999999999999MD1210191+0011MW1471REMSYN070AAXX  24001 56969 31/02 93601 10124 20124 40182 52019 74740 333 00152;EQDQ01  00002PRCP99
0132569690999992000012403004+21500+101580FM-12+063399999V0209999C000010042019N0040001N1+01351+01301102091ADDAY141031GF108991081061004501999999MD1210211+9999MW1101REMSYN066AAXX  24031 56969 41440 80000 10135 20130 40209 52021 71040 886//;
0191569690999992000012406004+21500+101580FM-12+063399999V0209999C000012200019N0300001N1+02281+01611101671ADDAA199000091AY141061GF101991011011008001001001KA1999N+01161MD1710301+0201MW1001REMSYN082AAXX  24061 56969 31580 10000 10228 20161 40167 57030 70040 81100 333 00251 20116;EQDQ01  00002PRCP99
0122569690999992000012409004+21500+101580FM-12+063399999V0209999C000012200019N0300001N1+02661+01011101401ADDGF101991011011008001001001MD1710211+0021REMSYN070AAXX  24091 56969 42580 10000 10266 20101 40140 57021 81100 333 00202;
0162569690999992000012412004+21500+101580FM-12+063399999V0209999C000012200019N0200001N1+01941+01491101591ADDAA199000091GA1001+999999999GF100991001001999999001001MD1210081+0021REMSYN064AAXX  24121 56969 32970 00000 10194 20149 40159 52008 333 00200;EQDQ01  00002PRCP99
0171569690999992000012418004+21500+101580FM-12+063399999V0200901N001012200019N0100001N1+01331+01311101801ADDAA199000091GF102991021051017501001001KA1999M+02711MD1210011+0201REMSYN076AAXX  24181 56969 32760 20901 10133 20131 40180 52001 82500 333 00200 10271;EQDQ01  00002PRCP99
0150569690999992000012421004+21500+101580FM-12+063399999V0209999C000012200019N0080001N1+01271+01251101751ADDGA1001+999999999GF100991001001999999001001MD1710011+0021MW1101REMSYN076AAXX  24211 56969 41458 00000 10127 20125 40175 57001 71000 85600 333 00200;
0182569690999992000012500004+21500+101580FM-12+063399999V0209999C000010003019N0002001N1+01231+01231101971ADDAA199000091AY141061GA1091+999999999GF109991091999999999999999MD1210111+0011MW1471REMSYN070AAXX  25001 56969 31/02 90000 10123 20123 40197 52011 74740 333 00100;EQDQ01  00002PRCP99
0140569690999992000012503004+21500+101580FM-12+063399999V0201101N001010042019N0060001N1+01471+01381102201ADDAY141031AY241031GF107991071061004501999999MD1210181+9999MW1281REMSYN066AAXX  25031 56969 41456 71101 10147 20138 40220 52018 72844 876//;
0191569690999992000012506004+21500+101580FM-12+063399999V0209999C000012200019N0300001N1+02421+01531101741ADDAA199000091AY141061GF101991011011008001001001KA1999N+01171MD1710321+0101MW1001REMSYN082AAXX  25061 56969 31580 10000 10242 20153 40174 57032 70040 81100 333 00101 20117;EQDQ01  00002PRCP99
0122569690999992000012509004+21500+101580FM-12+063399999V0202901N002012200019N0300001N1+02671+01231101501ADDGF102991021011008001001001MD1710201+0011REMSYN070AAXX  25091 56969 42580 22902 10267 20123 40150 57020 82100 333 00100;
0168569690999992000012512004+21500+101580FM-12+063399999V0209999C000012200019N0150001N1+02031+01681101701ADDAA199000091GA1001+999999999GF100991001001999999001001MD1210101+0011REMSYN070AAXX  25121 56969 32765 00000 10203 20168 40170 52010 85500 333 00101;EQDQ01  00002PRCP99
0171569690999992000012518004+21500+101580FM-12+063399999V0209999C000010150019N0100001N1+01391+01371101881ADDAA199000091GF105991051051017501001001KA1999M+02741MD1210041+0101REMSYN076AAXX  25181 56969 32760 50000 10139 20137 40188 52004 85500 333 00101 10274;EQDQ01  00002PRCP99
0134569690999992000012521004+21500+101580FM-12+063399999V0209999C000012200019N0080001N1+01321+01301101841ADDGF103991031061004501001001MD1710011+0011MW1101REMSYN076AAXX  25211 56969 41458 30000 10132 20130 40184 57001 71000 83600 333 00101;
0174569690999992000012600004+21500+101580FM-12+063399999V0200401N001010006019N0008001N1+01341+01321102071ADDAA199000091GA1091+999999999GF109991091999999999999999MD1210141+0011MW1471REMSYN070AAXX  26001 56969 31/08 90401 10134 20132 40207 52014 74700 333 00101;EQDQ01  00002PRCP99
0132569690999992000012603004+21500+101580FM-12+063399999V0209999C000010042019N0100001N1+01601+01451102271ADDAY141031GF107991071051004501999999MD1210161+9999MW1001REMSYN066AAXX  26031 56969 41460 70000 10160 20145 40227 52016 70040 875//;
0191569690999992000012606004+21500+101580FM-12+063399999V0200701N002010150019N0300001N1+02181+01511101991ADDAA199000091AY141061GF107991071051017501999999KA1999N+01241MD1710211+0201MW1001REMSYN082AAXX  26061 56969 31780 70702 10218 20151 40199 57021 70040 875// 333 00252 20124;EQDQ01  00002PRCP99
0122569690999992000012609004+21500+101580FM-12+063399999V0201101N002012200019N0300001N1+02341+01511101741ADDGF102991021011008001001001MD1710221+0021REMSYN070AAXX  26091 56969 42580 21102 10234 20151 40174 57022 82100 333 00253;
0152569690999992000012612004+21500+101580FM-12+063399999V0201101N001012200019N0200001N1+02061+01451101841ADDAA199000091GF102991021041012501001001MD1210061+0021REMSYN070AAXX  26121 56969 32670 21101 10206 20145 40184 52006 82400 333 00200;EQDQ01  00002PRCP99
0171569690999992000012618004+21500+101580FM-12+063399999V0209999C000010120019N0100001N1+01561+01481101971ADDAA199000091GF107991071041012501999999KA1999M+02391MD1710021+0101REMSYN076AAXX  26181 56969 32660 70000 10156 20148 40197 57002 874// 333 00102 10239;EQDQ01  00002PRCP99
0122569690999992000012621004+21500+101580FM-12+063399999V0200401N001010120019N0100001N1+01671+01211101911ADDGF108991081041012501999999MD1710021+0011REMSYN070AAXX  26211 56969 42660 80401 10167 20121 40191 57002 884// 333 00104;
0152569690999992000012700004+21500+101580FM-12+063399999V0200401N001010120019N0100001N1+01601+01151102011ADDAA199000091GF108991081041012501999999MD1210051+0001REMSYN070AAXX  27001 56969 32660 80401 10160 20115 40201 52005 884// 333 00003;EQDQ01  00002PRCP99
0124569690999992000012703004+21500+101580FM-12+063399999V0201101N002010120019N0120001N1+01521+01061102351ADDGF108991081041012501999999MD1210261+9999MW1801REMSYN066AAXX  27031 56969 41662 81102 10152 20106 40235 52026 78000 884//;
0178569690999992000012706004+21500+101580FM-12+063399999V0209999C000010120019N0300001N1+01551+01101102211ADDAA106000791AY181061GF108991081041012501999999KA1999N+01441MD1710141+0201MW1001REMSYN088AAXX  27061 56969 11680 80000 10155 20110 40221 57014 69901 70080 884// 333 00256 20144;
0142569690999992000012709004+21500+101580FM-12+063399999V0209999C000010120019N0250001N1+01491+01171102021ADDAY181031GF108991081041012501999999MD1710171+0021MW1801REMSYN076AAXX  27091 56969 41675 80000 10149 20117 40202 57017 78080 884// 333 00259;
0159569690999992000012712004+21500+101580FM-12+063399999V0209999C000010120019N0100001N1+01461+01251102081ADDAA106000191AY181061GF108991081041012501999999MD1210041+0021MW1001REMSYN082AAXX  27121 56969 11660 80000 10146 20125 40208 52004 69921 70080 884// 333 00256;
0152569690999992000012718004+21500+101580FM-12+063399999V0200201N001010120019N0100001N1+01411+01181102081ADDAA199000021GF108991081041012501999999KA1999M+01691MD1710061+0001REMSYN076AAXX  27181 56969 32660 80201 10141 20118 40208 57006 884// 333 00052 10169;
0139569690999992000012721004+21500+101580FM-12+063399999V0209999C000010120019N0100001N1+01361+01181101971ADDAA124000391GF108991081041012501999999MD1710121-0101REMSYN076AAXX  27211 56969 42660 80000 10136 20118 40197 57012 884// 333 05153 70002;
0139569690999992000012800004+21500+101580FM-12+063399999V0209999C000010150019N0150001N1+01361+01181102071ADDAA124000391GF108991081051017501999999MD1210091-0101REMSYN076AAXX  28001 56969 32765 80000 10136 20118 40207 52009 885// 333 05152 70002;
0112569690999992000012803004+21500+101580FM-12+063399999V0200701N001010150019N0250001N1+01491+01191102261ADDGF108991081051017501999999MD1210191+9999REMSYN060AAXX  28031 56969 42775 80701 10149 20119 40226 52019 885//;
0171569690999992000012806004+21500+101580FM-12+063399999V0200201N002010150019N0300001N1+01741+01191101981ADDAA199000091GF107991071051017501999999KA1999N+01291MD1710231-0201REMSYN076AAXX  28061 56969 32780 70202 10174 20119 40198 57023 875// 333 05202 20129;EQDQ01  00002PRCP99
0122569690999992000012809004+21500+101580FM-12+063399999V0200201N002012200019N0300001N1+01941+01271101651ADDGF103991031081008001001001MD1710291+0031REMSYN070AAXX  28091 56969 42580 30202 10194 20127 40165 57029 83800 333 05305;
0152569690999992000012812004+21500+101580FM-12+063399999V0200201N002010150019N0200001N1+01621+01181101781ADDAA199000091GF107991071051017501999999MD1210081+0031REMSYN070AAXX  28121 56969 32770 70202 10162 20118 40178 52008 875// 333 05302;EQDQ01  00002PRCP99
0171569690999992000012818004+21500+101580FM-12+063399999V0200201N001012200019N0100001N1+01361+01161102001ADDAA199000091GF102991021051017501001001KA1999M+01981MD1210021-0101REMSYN076AAXX  28181 56969 32760 20201 10136 20116 40200 52002 82500 333 05151 10198;EQDQ01  00002PRCP99
0122569690999992000012821004+21500+101580FM-12+063399999V0209999C000010150019N0100001N1+01281+01111101931ADDGF106991061051017501001001MD1710051+0001REMSYN070AAXX  28211 56969 42760 60000 10128 20111 40193 57005 86500 333 00051;
0152569690999992000012900004+21500+101580FM-12+063399999V0209999C000010150019N0200001N1+01241+01201102141ADDAA199000091GF108991081051017501999999MD1210151+0011REMSYN070AAXX  29001 56969 32770 80000 10124 20120 40214 52015 885// 333 00151;EQDQ01  00002PRCP99
0124569690999992000012903004+21500+101580FM-12+063399999V0209999C000010150019N0300001N1+01381+01241102371ADDGF108991081051017501999999MD1210201+9999MW1601REMSYN066AAXX  29031 56969 41780 80000 10138 20124 40237 52020 76000 885//;
0178569690999992000012906004+21500+101580FM-12+063399999V0209999C000010150019N0200001N1+01561+01241102211ADDAA106000191AY161061GF108991081051017501999999KA1999N+01151MD1710131+0201MW1211REMSYN088AAXX  29061 56969 11770 80000 10156 20124 40221 57013 69911 72160 885// 333 00252 20115;
0122569690999992000012909004+21500+101580FM-12+063399999V0209999C000010150019N0300001N1+01621+01211102041ADDGF108991081051017501999999MD1710161+0031REMSYN070AAXX  29091 56969 42780 80000 10162 20121 40204 57016 885// 333 00353;
0133569690999992000012912004+21500+101580FM-12+063399999V0201101N001010150019N0150001N1+01561+01221102141ADDAA199000021GF108991081051017501999999MD1210081+0031REMSYN070AAXX  29121 56969 32765 81101 10156 20122 40214 52008 885// 333 00351;
0152569690999992000012918004+21500+101580FM-12+063399999V0209999C000010120019N0100001N1+01401+01221102201ADDAA199000021GF108991081041012501999999KA1999M+01691MD1710061+0201REMSYN076AAXX  29181 56969 32660 80000 10140 20122 40220 57006 884// 333 00200 10169;
0139569690999992000012921004+21500+101580FM-12+063399999V0200401N001010120019N0100001N1+01441+01031102091ADDAA124000191GF108991081041012501999999MD1710091+0101REMSYN076AAXX  29211 56969 42660 80401 10144 20103 40209 57009 884// 333 00102 70001;
0139569690999992000013000004+21500+101580FM-12+063399999V0200901N001010120019N0150001N1+01421+00971102181ADDAA124000191GF108991081081008001999999MD1210071+0101REMSYN076AAXX  30001 56969 32565 80901 10142 20097 40218 52007 888// 333 00102 70001;
0112569690999992000013003004+21500+101580FM-12+063399999V0200901N001010120019N0300001N1+01521+00891102361ADDGF107991071081008001999999MD1210171+9999REMSYN060AAXX  30031 56969 42580 70901 10152 20089 40236 52017 878//;
0171569690999992000013006004+21500+101580FM-12+063399999V0200201N002010150019N0300001N1+01701+00981102121ADDAA199000091GF108991081051017501999999KA1999N+01261MD1710211-0101REMSYN076AAXX  30061 56969 32780 80202 10170 20098 40212 57021 885// 333 05101 20126;EQDQ01  00002PRCP99
0122569690999992000013009004+21500+101580FM-12+063399999V0200201N002010150019N0300001N1+01561+01031101931ADDGF108991081051017501999999MD1710191+0011REMSYN070AAXX  30091 56969 42780 80202 10156 20103 40193 57019 885// 333 05151;
0152569690999992000013012004+21500+101580FM-12+063399999V0200201N003010120019N0100001N1+01431+01021102061ADDAA199000091GF108991081041012501999999MD1210111+0011REMSYN070AAXX  30121 56969 32660 80203 10143 20102 40206 52011 884// 333 05151;EQDQ01  00002PRCP99
0186569690999992000013018004+21500+101580FM-12+063399999V0200201N001010075019N0100001N1+01211+01081102281ADDAA106003091AY191061AY281061GF107991071091008001999999KA1999M+01731MD1210061+0101MW1001REMSYN088AAXX  30181 56969 11560 70201 10121 20108 40228 52006 60031 70098 879// 333 00152 10173;
0167569690999992000013021004+21500+101580FM-12+063399999V0200201N001010075019N0100001N1+01191+01101102301ADDAA124006991AY191031AY281031GF108991081091008001999999MD1410001+0201MW1951REMSYN082AAXX  30211 56969 41560 80201 10119 20110 40230 54000 79598 889// 333 00253 70068;
0173569690999992000013100004+21500+101580FM-12+063399999V0209999C000010120019N0150001N1+01151+01041102421ADDAA106005191AY191061AY281061GF108991081041012501999999MD1210091+0201MW1291REMSYN088AAXX  31001 56969 11665 80000 10115 20104 40242 52009 60051 72998 884// 333 00253 70084;
0112569690999992000013103004+21500+101580FM-12+063399999V0200401N002010120019N0200001N1+01361+01021102661ADDGF108991081041012501999999MD1210221+9999REMSYN060AAXX  31031 56969 42670 80402 10136 20102 40266 52022 884//;
0152569690999992000013106004+21500+101580FM-12+063399999V0200201N002010120019N0300001N1+01461+00991102541ADDAA199000021GF108991081041012501999999KA1999N+01071MD1710101+0301REMSYN076AAXX  31061 56969 32680 80202 10146 20099 40254 57010 884// 333 00352 20107;
0122569690999992000013109004+21500+101580FM-12+063399999V0200401N002010150019N0300001N1+01411+01001102351ADDGF108991081051017501999999MD1710191+0031REMSYN070AAXX  31091 56969 42780 80402 10141 20100 40235 57019 885// 333 00352;
0152569690999992000013112004+21500+101580FM-12+063399999V0200401N002010120019N0150001N1+01341+01021102431ADDAA199000091GF108991081041012501999999MD1210061+0031REMSYN070AAXX  31121 56969 32665 80402 10134 20102 40243 52006 884// 333 00351;EQDQ01  00002PRCP99
0171569690999992000013118004+21500+101580FM-12+063399999V0209999C000010150019N0100001N1+01231+01041102491ADDAA199000091GF107991071051017501999999KA1999M+01531MD1210021+0201REMSYN076AAXX  31181 56969 32760 70000 10123 20104 40249 52002 875// 333 00200 10153;EQDQ01  00002PRCP99
0149569690999992000013121004+21500+101580FM-12+063399999V0209999C000012200019N0100001N1+01101+01001102411ADDAA124001591GA1001+999999999GF100991001001999999001001MD1710091+0101REMSYN070AAXX  31211 56969 42960 00000 10110 20100 40241 57009 333 00151 70016;
0152569690999992000020100004+21500+101580FM-12+063399999V0209999C000012200019N0100001N1+00811+00791102531ADDAA199000091GF101991011041004501001001MD1210061+0001REMSYN070AAXX  01001 56969 32460 10000 10081 20079 40253 52006 81400 333 00053;EQDQ01  00002PRCP99
0112569690999992000020103004+21500+101580FM-12+063399999V0209999C000010120019N0300001N1+01311+00971102631ADDGF106991061081008001001001MD1210151+9999REMSYN060AAXX  01031 56969 42580 60000 10131 20097 40263 52015 86800;
0171569690999992000020106004+21500+101580FM-12+063399999V0209999C000012200019N0300001N1+01781+00951102281ADDAA199000091GF104991041081008001001001KA1999N+00741MD1710271-0201REMSYN076AAXX  01061 56969 32580 40000 10178 20095 40228 57027 84800 333 05203 20074;EQDQ01  00002PRCP99
0122569690999992000020109004+21500+101580FM-12+063399999V0200901N002012200019N0300001N1+01961+00961101961ADDGF102991021011008001001001MD1710291+0031REMSYN070AAXX  01091 56969 42580 20902 10196 20096 40196 57029 82100 333 05306;
0162569690999992000020112004+21500+101580FM-12+063399999V0202901N001012200019N0200001N1+01561+01091102101ADDAA199000091GA1001+999999999GF100991001001999999001001MD1210041+0031REMSYN064AAXX  01121 56969 32970 02901 10156 20109 40210 52004 333 05302;EQDQ01  00002PRCP99
0181569690999992000020118004+21500+101580FM-12+063399999V0209999C000012200019N0100001N1+00901+00881102181ADDAA199000091GA1001+999999999GF100991001001999999001001KA1999M+02031MD1210011-0301REMSYN070AAXX  01181 56969 32960 00000 10090 20088 40218 52001 333 05353 10203;EQDQ01  00002PRCP99
0152569690999992000020121004+21500+101580FM-12+063399999V0209999C000010003019N0004001N1+00811+00811102111ADDAY141031GA1091+999999999GF109991091999999999999999MD1710061+0031MW1431REMSYN070AAXX  01211 56969 41/04 90000 10081 20081 40211 57006 74340 333 05353;
0182569690999992000020200004+21500+101580FM-12+063399999V0209999C000010006019N0007001N1+00821+00821102301ADDAA199000091AY141061GA1091+999999999GF109991091999999999999999MD1210131+0021MW1471REMSYN070AAXX  02001 56969 31/07 90000 10082 20082 40230 52013 74740 333 05200;EQDQ01  00002PRCP99
0132569690999992000020203004+21500+101580FM-12+063399999V0209999C000010042019N0080001N1+01001+00901102521ADDAY141031GF107991071061004501999999MD1210171+9999MW1101REMSYN066AAXX  02031 56969 41458 70000 10100 20090 40252 52017 71040 876//;
0191569690999992000020206004+21500+101580FM-12+063399999V0209999C000012200019N0300001N1+02031+01091102091ADDAA199000091AY141061GF101991011011008001001001KA1999N+00741MD1710301-0201MW1001REMSYN082AAXX  02061 56969 31580 10000 10203 20109 40209 57030 70040 81100 333 05203 20074;EQDQ01  00002PRCP99
0122569690999992000020209004+21500+101580FM-12+063399999V0209999C000012200019N0300001N1+02301+01231101711ADDGF102991021011008001001001MD1710331+0021REMSYN070AAXX  02091 56969 42580 20000 10230 20123 40171 57033 82100 333 05203;
0162569690999992000020212004+21500+101580FM-12+063399999V0203601N001012200019N0200001N1+01721+01321101821ADDAA199000091GA1001+999999999GF100991001001999999001001MD1210031+0021REMSYN064AAXX  02121 56969 32970 03601 10172 20132 40182 52003 333 05202;EQDQ01  00002PRCP99
0193569690999992000020218004+21500+101580FM-12+063399999V0209999C000012200019N0080001N1+01101+01081101921ADDAA199000091GA1001+999999999GF100991001001999999001001KA1999M+02311MD1210021-0201MW1101REMSYN076AAXX  02181 56969 31958 00000 10110 20108 40192 52002 71000 333 05202 10231;EQDQ01  00002PRCP99
0152569690999992000020221004+21500+101580FM-12+063399999V0209999C000010006019N0008001N1+01031+01031101881ADDAY141031GA1091+999999999GF109991091999999999999999MD1710011+0011MW1451REMSYN070AAXX  02211 56969 41/08 90000 10103 20103 40188 57001 74540 333 05102;
0172569690999992000020300004+21500+101580FM-12+063399999V0200701N001010042019N0040001N1+01031+01011102091ADDAA199000091AY141061GF108991081061004501999999MD1210121+0021MW1101REMSYN076AAXX  03001 56969 31440 80701 10103 20101 40209 52012 71040 886// 333 05202;EQDQ01  00002PRCP99
0124569690999992000020303004+21500+101580FM-12+063399999V0200901N001010042019N0060001N1+01131+01041102331ADDGF108991081061004501999999MD1210181+9999MW1101REMSYN066AAXX  03031 56969 41456 80901 10113 20104 40233 52018 71000 886//;
0171569690999992000020306004+21500+101580FM-12+063399999V0201401N001012200019N0300001N1+02201+01341101791ADDAA199000091GF101991011011008001001001KA1999N+00951MD1710391-0201REMSYN076AAXX  03061 56969 32580 11401 10220 20134 40179 57039 81100 333 05202 20095;EQDQ01  00002PRCP99
0122569690999992000020309004+21500+101580FM-12+063399999V0209999C000012200019N0300001N1+02411+01351101471ADDGF102991021011008001001001MD1710281+0021REMSYN070AAXX  03091 56969 42580 20000 10241 20135 40147 57028 82100 333 05201;
0162569690999992000020312004+21500+101580FM-12+063399999V0209999C000012200019N0200001N1+01941+01481101551ADDAA199000091GA1001+999999999GF100991001001999999001001MD1210021+0021REMSYN064AAXX  03121 56969 32970 00000 10194 20148 40155 52002 333 05202;EQDQ01  00002PRCP99
0183569690999992000020318004+21500+101580FM-12+063399999V0209999C000012200019N0080001N1+01241+01221101701ADDAA199000091GF102991021061004501001001KA1999M+02511MD1210041-0201MW1101REMSYN082AAXX  03181 56969 31458 20000 10124 20122 40170 52004 71000 82600 333 05201 10251;EQDQ01  00002PRCP99
0152569690999992000020321004+21500+101580FM-12+063399999V0209999C000010003019N0005001N1+01201+01201101651ADDAY141031GA1091+999999999GF109991091999999999999999MD1710021+0021MW1451REMSYN070AAXX  03211 56969 41/05 90000 10120 20120 40165 57002 74540 333 05202;
0182569690999992000020400004+21500+101580FM-12+063399999V0200201N001010003019N0002001N1+01191+01191101721ADDAA199000091AY141061GA1091+999999999GF109991091999999999999999MD1410001+0031MW1471REMSYN070AAXX  04001 56969 31/02 90201 10119 20119 40172 54000 74740 333 05302;EQDQ01  00002PRCP99
0140569690999992000020403004+21500+101580FM-12+063399999V0209999C000010042019N0050001N1+01281+01231101941ADDAY151031AY241031GF108991081061004501999999MD1210161+9999MW1101REMSYN066AAXX  04031 56969 41450 80000 10128 20123 40194 52016 71054 886//;
0186569690999992000020406004+21500+101580FM-12+063399999V0209999C000012200019N0300001N1+02231+01571101501ADDAA106000791AY151061AY241061GF101991011011008001001001KA1999N+01121MD1710321-0301MW1001REMSYN088AAXX  04061 56969 11580 10000 10223 20157 40150 57032 69901 70054 81100 333 05300 20112;
0122569690999992000020409004+21500+101580FM-12+063399999V0202501N002012200019N0300001N1+02641+01011101131ADDGF102991021011008001001001MD1710301+0031REMSYN070AAXX  04091 56969 42580 22502 10264 20101 40113 57030 82100 333 05302;
0152569690999992000020412004+21500+101580FM-12+063399999V0209999C000012200019N0250001N1+01961+01431101281ADDAA199000091GF101991011011008001001001MD1210061+0021REMSYN070AAXX  04121 56969 32575 10000 10196 20143 40128 52006 81100 333 05200;EQDQ01  00002PRCP99
0183569690999992000020418004+21500+101580FM-12+063399999V0209999C000012200019N0080001N1+01251+01231101531ADDAA199000091GF101991011061004501001001KA1999M+02771MD1210061-0201MW1101REMSYN082AAXX  04181 56969 31458 10000 10125 20123 40153 52006 71000 81600 333 05200 10277;EQDQ01  00002PRCP99
0169569690999992000020421004+21500+101580FM-12+063399999V0209999C000010003019N0005001N1+01141+01141101451ADDAA124000791AY141031GA1091+999999999GF109991091999999999999999MD1710041-0201MW1451REMSYN076AAXX  04211 56969 41/05 90000 10114 20114 40145 57004 74540 333 05251 79999;
0169569690999992000020500004+21500+101580FM-12+063399999V0209999C000010003019N0004001N1+01131+01131101691ADDAA124000791AY141061GA1091+999999999GF109991091999999999999999MD1210141+0001MW1431REMSYN076AAXX  05001 56969 31/04 90000 10113 20113 40169 52014 74340 333 00051 79999;
0140569690999992000020503004+21500+101580FM-12+063399999V0209999C000010042019N0080001N1+01281+01191101951ADDAY141031AY241031GF108991081061004501999999MD1210201+9999MW1281REMSYN066AAXX  05031 56969 41458 80000 10128 20119 40195 52020 72844 886//;
0191569690999992000020506004+21500+101580FM-12+063399999V0209999C000012200019N0300001N1+02401+01471101491ADDAA199000091AY141061GF101991011011008001001001KA1999N+01051MD1710321+0001MW1001REMSYN082AAXX  05061 56969 31580 10000 10240 20147 40149 57032 70040 81100 333 00002 20105;EQDQ01  00002PRCP99
0122569690999992000020509004+21500+101580FM-12+063399999V0202201N002012200019N0300001N1+02761+01211101131ADDGF101991011011008001001001MD1710301+0001REMSYN070AAXX  05091 56969 42580 12202 10276 20121 40113 57030 81100 333 00001;
0152569690999992000020512004+21500+101580FM-12+063399999V0209999C000012200019N0200001N1+02011+01641101291ADDAA199000091GF101991001001999999001021MD1210061+0001REMSYN070AAXX  05121 56969 32970 10000 10201 20164 40129 52006 80002 333 00001;EQDQ01  00002PRCP99
0193569690999992000020518004+21500+101580FM-12+063399999V0209999C000012200019N0080001N1+01361+01341101411ADDAA199000091GA1001+999999999GF100991001001999999001001KA1999M+02821MD1210021-0101MW1101REMSYN076AAXX  05181 56969 31958 00000 10136 20134 40141 52002 71000 333 05101 10282;EQDQ01  00002PRCP99
0144569690999992000020521004+21500+101580FM-12+063399999V0209999C000012200019N0070001N1+01281+01261101371ADDGA1001+999999999GF100991001001999999001001MD1410001+0001MW1101REMSYN070AAXX  05211 56969 41957 00000 10128 20126 40137 54000 71000 333 00001;
0182569690999992000020600004+21500+101580FM-12+063399999V0200201N001010003019N0004001N1+01231+01231101601ADDAA199000091AY141061GA1091+999999999GF109991091999999999999999MD1210121+0011MW1471REMSYN070AAXX  06001 56969 31/04 90201 10123 20123 40160 52012 74740 333 05101;EQDQ01  00002PRCP99
0132569690999992000020603004+21500+101580FM-12+063399999V0201401N002010042019N0080001N1+01411+01301101791ADDAY141031GF107991071061004501999999MD1210141+9999MW1101REMSYN066AAXX  06031 56969 41458 71402 10141 20130 40179 52014 71040 876//;
0191569690999992000020606004+21500+101580FM-12+063399999V0209999C000012200019N0300001N1+02471+01481101281ADDAA199000091AY141061GF101991011011008001001001KA1999N+01161MD1710371-0201MW1001REMSYN082AAXX  06061 56969 31580 10000 10247 20148 40128 57037 70040 81100 333 05201 20116;EQDQ01  00002PRCP99
0122569690999992000020609004+21500+101580FM-12+063399999V0202001N001012200019N0300001N1+02751+01321100941ADDGF101991011011008001001001MD1710291+0021REMSYN070AAXX  06091 56969 42580 12001 10275 20132 40094 57029 81100 333 05200;
0162569690999992000020612004+21500+101580FM-12+063399999V0203401N001012200019N0200001N1+02101+01531101061ADDAA199000091GA1001+999999999GF100991001001999999001001MD1210031+0021REMSYN064AAXX  06121 56969 32970 03401 10210 20153 40106 52003 333 05201;EQDQ01  00002PRCP99
0193569690999992000020618004+21500+101580FM-12+063399999V0209999C000012200019N0080001N1+01371+01351101331ADDAA199000091GA1001+999999999GF100991001001999999001001KA1999M+02801MD1210071-0101MW1101REMSYN076AAXX  06181 56969 31958 00000 10137 20135 40133 52007 71000 333 05100 10280;EQDQ01  00002PRCP99
0144569690999992000020621004+21500+101580FM-12+063399999V0209999C000010003019N0003001N1+01251+01251101281ADDGA1091+999999999GF109991091999999999999999MD1710031+0011MW1471REMSYN070AAXX  06211 56969 41/03 90000 10125 20125 40128 57003 74700 333 05100;
0182569690999992000020700004+21500+101580FM-12+063399999V0209999C000010003019N0004001N1+01231+01231101471ADDAA199000091AY141061GA1091+999999999GF109991091999999999999999MD1210101+0011MW1471REMSYN070AAXX  07001 56969 31/04 90000 10123 20123 40147 52010 74740 333 05100;EQDQ01  00002PRCP99
0140569690999992000020703004+21500+101580FM-12+063399999V0201101N001010042019N0040001N1+01401+01311101691ADDAY141031AY241031GF107991071061004501999999MD1210151+9999MW1281REMSYN066AAXX  07031 56969 41440 71101 10140 20131 40169 52015 72844 876//;
0191569690999992000020706004+21500+101580FM-12+063399999V0209999C000012200019N0300001N1+02491+01491101211ADDAA199000091AY141061GF101991011011008001001001KA1999N+01151MD1710331-0101MW1001REMSYN082AAXX  07061 56969 31580 10000 10249 20149 40121 57033 70040 81100 333 05100 20115;EQDQ01  00002PRCP99
0122569690999992000020709004+21500+101580FM-12+063399999V0202901N002012200019N0300001N1+02801+01131100881ADDGF101991011011008001001001MD1710291+0011REMSYN070AAXX  07091 56969 42580 12902 10280 20113 40088 57029 81100 333 05101;
0152569690999992000020712004+21500+101580FM-12+063399999V0209999C000012200019N0200001N1+02031+01701101041ADDAA199000091GF101991011041012501001001MD1210061+0001REMSYN070AAXX  07121 56969 32670 10000 10203 20170 40104 52006 81400 333 00051;EQDQ01  00002PRCP99
0193569690999992000020718004+21500+101580FM-12+063399999V0209999C000012200019N0080001N1+01481+01451101131ADDAA199000091GA1001+999999999GF100991001001999999001001KA1999M+02861MD1410001-0201MW1101REMSYN076AAXX  07181 56969 31958 00000 10148 20145 40113 54000 71000 333 05201 10286;EQDQ01  00002PRCP99
0144569690999992000020721004+21500+101580FM-12+063399999V0209999C000012200019N0080001N1+01461+01431101051ADDGA1001+999999999GF100991001001999999001001MD1710041+0021MW1101REMSYN070AAXX  07211 56969 41958 00000 10146 20143 40105 57004 71000 333 05202;
0152569690999992000020800004+21500+101580FM-12+063399999V0209999C000010150019N0100001N1+01431+01381101221ADDAA199000091GF107991071051017501999999MD1210061+0021REMSYN070AAXX  08001 56969 32760 70000 10143 20138 40122 52006 875// 333 05202;EQDQ01  00002PRCP99
0122569690999992000020803004+21500+101580FM-12+063399999V0209999C000012200019N0300001N1+01961+01531101411ADDGA1001+999999999GF100991001001999999001001MD1210191+9999REMSYN054AAXX  08031 56969 42980 00000 10196 20153 40141 52019;
0171569690999992000020806004+21500+101580FM-12+063399999V0209999C000010075019N0300001N1+02361+01581101121ADDAA199000091GF106991061091008001001001KA1999N+01351MD1710241-0101REMSYN076AAXX  08061 56969 32580 60000 10236 20158 40112 57024 86900 333 05151 20135;EQDQ01  00002PRCP99
0134569690999992000020809004+21500+101580FM-12+063399999V0200401N002010075019N0250001N1+02361+01611100921ADDGF106991061091008001001001MD1710191+0001MW1251REMSYN076AAXX  08091 56969 41575 60402 10236 20161 40092 57019 72500 86900 333 00054;
0159569690999992000020812004+21500+101580FM-12+063399999V0200201N003012200019N0200001N1+02021+01651101051ADDAA106000791AY181061GF101991011041012501001001MD1210081+0001MW1001REMSYN082AAXX  08121 56969 11670 10203 10202 20165 40105 52008 69901 70080 81400 333 00000;
0162569690999992000020818004+21500+101580FM-12+063399999V0209999C000012200019N0100001N1+01601+01481101201ADDAA199000021GA1001+999999999GF100991001001999999001001KA1999M+02451MD1210011+0101REMSYN070AAXX  08181 56969 32960 00000 10160 20148 40120 52001 333 00101 10245;
0139569690999992000020821004+21500+101580FM-12+063399999V0209999C000010150019N0100001N1+01541+01491101131ADDAA124000791GF108991081051017501999999MD1710071+0001REMSYN076AAXX  08211 56969 42760 80000 10154 20149 40113 57007 885// 333 00001 79999;
0139569690999992000020900004+21500+101580FM-12+063399999V0209999C000010150019N0100001N1+01551+01501101281ADDAA124000791GF108991081051017501999999MD1210101+0101REMSYN076AAXX  09001 56969 32760 80000 10155 20150 40128 52010 885// 333 00101 79999;
0112569690999992000020903004+21500+101580FM-12+063399999V0209999C000010120019N0150001N1+01911+01531101421ADDGF107991071081008001999999MD1210131+9999REMSYN060AAXX  09031 56969 42565 70000 10191 20153 40142 52013 878//;
0171569690999992000020906004+21500+101580FM-12+063399999V0200901N001012200019N0300001N1+02421+01501101031ADDAA199000091GF103991031011008001001001KA1999N+01461MD1710311-0101REMSYN076AAXX  09061 56969 32580 30901 10242 20150 40103 57031 83100 333 05101 20146;EQDQ01  00002PRCP99
0122569690999992000020909004+21500+101580FM-12+063399999V0202001N002010075019N0300001N1+02501+01451100731ADDGF106991061091008001001001MD1710281+0021REMSYN070AAXX  09091 56969 42580 62002 10250 20145 40073 57028 86900 333 05201;
0152569690999992000020912004+21500+101580FM-12+063399999V0209999C000012200019N0200001N1+01951+01701100911ADDAA199000091GF101991011041012501001001MD1210111+0011REMSYN070AAXX  09121 56969 32670 10000 10195 20170 40091 52011 81400 333 05151;EQDQ01  00002PRCP99
0181569690999992000020918004+21500+101580FM-12+063399999V0209999C000012200019N0100001N1+01381+01351101071ADDAA199000091GA1001+999999999GF100991001001999999001001KA1999M+02581MD1410001-0101REMSYN070AAXX  09181 56969 32960 00000 10138 20135 40107 54000 333 05152 10258;EQDQ01  00002PRCP99
0122569690999992000020921004+21500+101580FM-12+063399999V0209999C000012200019N0100001N1+01301+01281101041ADDGF103991031061004501001001MD1710031+0011REMSYN070AAXX  09211 56969 42460 30000 10130 20128 40104 57003 83600 333 05152;
0164569690999992000021000004+21500+101580FM-12+063399999V0209999C000010042019N0090001N1+01401+01351101321ADDAA199000091GF108991081051004501999999MD1210211+0001MW1101REMSYN076AAXX  10001 56969 31459 80000 10140 20135 40132 52021 71000 885// 333 00052;EQDQ01  00002PRCP99
0124569690999992000021003004+21500+101580FM-12+063399999V0201401N001010042019N0090001N1+01531+01391101581ADDGF108991081061004501999999MD1210211+9999MW1101REMSYN066AAXX  10031 56969 41459 81401 10153 20139 40158 52021 71000 886//;
0171569690999992000021006004+21500+101580FM-12+063399999V0201801N002012200019N0300001N1+02501+00691101171ADDAA199000091GF102991021011008001001001KA1999N+01211MD1710291+0101REMSYN076AAXX  10061 56969 32580 21802 10250 20069 40117 57029 82100 333 00101 20121;EQDQ01  00002PRCP99
0122569690999992000021009004+21500+101580FM-12+063399999V0201801N001012200019N0300001N1+02541+00701100971ADDGF101991011011008001001001MD1710191+0021REMSYN070AAXX  10091 56969 42580 11801 10254 20070 40097 57019 81100 333 00200;
0152569690999992000021012004+21500+101580FM-12+063399999V0209999C000012200019N0200001N1+02001+01101101091ADDAA199000091GF101991011011008001001001MD1210061+0021REMSYN070AAXX  10121 56969 32570 10000 10200 20110 40109 52006 81100 333 00201;EQDQ01  00002PRCP99
0181569690999992000021018004+21500+101580FM-12+063399999V0209999C000012200019N0100001N1+01141+01121101351ADDAA199000091GA1001+999999999GF100991001001999999001001KA1999M+02681MD1210051+0201REMSYN070AAXX  10181 56969 32960 00000 10114 20112 40135 52005 333 00252 10268;EQDQ01  00002PRCP99
0132569690999992000021021004+21500+101580FM-12+063399999V0209999C000012200019N0100001N1+01001+00981101331ADDGA1001+999999999GF100991001001999999001001MD1710031+0021REMSYN064AAXX  10211 56969 42960 00000 10100 20098 40133 57003 333 00253;
0182569690999992000021100004+21500+101580FM-12+063399999V0200401N001010003019N0004001N1+00941+00941101551ADDAA199000091AY141061GA1091+999999999GF109991091999999999999999MD1210131+0021MW1471REMSYN070AAXX  11001 56969 31/04 90401 10094 20094 40155 52013 74740 333 00255;EQDQ01  00002PRCP99
0132569690999992000021103004+21500+101580FM-12+063399999V0209999C000012200019N0200001N1+01401+01091101721ADDAY141031GF101991011011008001001011MD1210141+9999MW1001REMSYN066AAXX  11031 56969 41570 10000 10140 20109 40172 52014 70040 81101;
0191569690999992000021106004+21500+101580FM-12+063399999V0200401N001012200019N0300001N1+02551+00921101281ADDAA199000091AY141061GF101991011011008001001001KA1999N+00841MD1710301+0101MW1001REMSYN082AAXX  11061 56969 31580 10401 10255 20092 40128 57030 70040 81100 333 00101 20084;EQDQ01  00002PRCP99
0122569690999992000021109004+21500+101580FM-12+063399999V0203401N002012200019N0300001N1+02701+00881101021ADDGF101991001001999999001011MD1710241+0001REMSYN070AAXX  11091 56969 42980 13402 10270 20088 40102 57024 80001 333 00002;
0162569690999992000021112004+21500+101580FM-12+063399999V0200201N001012200019N0200001N1+02061+01261101141ADDAA199000091GA1001+999999999GF100991001001999999001001MD1210031+0001REMSYN064AAXX  11121 56969 32970 00201 10206 20126 40114 52003 333 00001;EQDQ01  00002PRCP99
0181569690999992000021118004+21500+101580FM-12+063399999V0209999C000012200019N0100001N1+01261+01221101301ADDAA199000091GA1001+999999999GF100991001001999999001001KA1999M+02761MD1210011+0001REMSYN070AAXX  11181 56969 32960 00000 10126 20122 40130 52001 333 00001 10276;EQDQ01  00002PRCP99
0132569690999992000021121004+21500+101580FM-12+063399999V0209999C000012200019N0100001N1+01111+01111101251ADDGA1001+999999999GF100991001001999999001001MD1710051+0001REMSYN064AAXX  11211 56969 42960 00000 10111 20111 40125 57005 333 00001;
0164569690999992000021200004+21500+101580FM-12+063399999V0209999C000010042019N0030001N1+01081+01081101471ADDAA199000091GF108991081061004501999999MD1210121+0011MW1101REMSYN076AAXX  12001 56969 31430 80000 10108 20108 40147 52012 71000 886// 333 05101;EQDQ01  00002PRCP99
0112569690999992000021203004+21500+101580FM-12+063399999V0201601N001012200019N0100001N1+01441+01251101671ADDGF101991011061004501001001MD1210161+9999REMSYN060AAXX  12031 56969 42460 11601 10144 20125 40167 52016 81600;
0181569690999992000021206004+21500+101580FM-12+063399999V0201601N001012200019N0300001N1+02621+01291101191ADDAA199000091GA1001+999999999GF100991001001999999001001KA1999N+01011MD1710331-0101REMSYN070AAXX  12061 56969 32980 01601 10262 20129 40119 57033 333 05101 20101;EQDQ01  00002PRCP99
0132569690999992000021209004+21500+101580FM-12+063399999V0202501N002012200019N0300001N1+02881+01061100891ADDGA1001+999999999GF100991001001999999001001MD1710261+0011REMSYN064AAXX  12091 56969 42980 02502 10288 20106 40089 57026 333 05102;
0162569690999992000021212004+21500+101580FM-12+063399999V0209999C000012200019N0200001N1+02161+01631101051ADDAA199000091GA1001+999999999GF100991001001999999001001MD1210061+0011REMSYN064AAXX  12121 56969 32970 00000 10216 20163 40105 52006 333 05101;EQDQ01  00002PRCP99
0193569690999992000021218004+21500+101580FM-12+063399999V0209999C000012200019N0080001N1+01381+01361101211ADDAA199000091GA1001+999999999GF100991001001999999001001KA1999M+02911MD1210021-0101MW1101REMSYN076AAXX  12181 56969 31958 00000 10138 20136 40121 52002 71000 333 05101 10291;EQDQ01  00002PRCP99
0134569690999992000021221004+21500+101580FM-12+063399999V0209999C000012200019N0070001N1+01241+01241101151ADDGF103991031061004501001001MD1710041+0011MW1101REMSYN076AAXX  12211 56969 41457 30000 10124 20124 40115 57004 71000 83600 333 05101;
0182569690999992000021300004+21500+101580FM-12+063399999V0209999C000010001519N0001001N1+01251+01251101331ADDAA199000091AY141061GA1091+999999999GF109991091999999999999999MD1210091+0011MW1471REMSYN070AAXX  13001 56969 31/01 90000 10125 20125 40133 52009 74740 333 05102;EQDQ01  00002PRCP99
0140569690999992000021303004+21500+101580FM-12+063399999V0209999C000010042019N0090001N1+01381+01291101581ADDAY141031AY241031GF106991061061004501001001MD1210181+9999MW1281REMSYN066AAXX  13031 56969 41459 60000 10138 20129 40158 52018 72844 86600;
0201569690999992000021306004+21500+101580FM-12+063399999V0201401N002012200019N0300001N1+02771+01151101011ADDAA199000091AY141061GA1001+999999999GF100991001001999999001001KA1999N+01141MD1710391-0101MW1001REMSYN076AAXX  13061 56969 31980 01402 10277 20115 40101 57039 70040 333 05102 20114;EQDQ01  00002PRCP99
0132569690999992000021309004+21500+101580FM-12+063399999V0203401N003012200019N0300001N1+03051+01131100721ADDGA1001+999999999GF100991001001999999001001MD1710261+0011REMSYN064AAXX  13091 56969 42980 03403 10305 20113 40072 57026 333 05102;
0162569690999992000021312004+21500+101580FM-12+063399999V0203401N001012200019N0250001N1+02301+01581100931ADDAA199000091GA1001+999999999GF100991001001999999001001MD1210111+0011REMSYN064AAXX  13121 56969 32975 03401 10230 20158 40093 52011 333 05101;EQDQ01  00002PRCP99
0181569690999992000021318004+21500+101580FM-12+063399999V0209999C000012200019N0100001N1+01491+01471101141ADDAA199000091GA1001+999999999GF100991001001999999001001KA1999M+03091MD1210061+0001REMSYN070AAXX  13181 56969 32960 00000 10149 20147 40114 52006 333 00001 10309;EQDQ01  00002PRCP99
0144569690999992000021321004+21500+101580FM-12+063399999V0209999C000012200019N0080001N1+01331+01311101101ADDGA1001+999999999GF100991001001999999001001MD1710021+0001MW1101REMSYN070AAXX  13211 56969 41958 00000 10133 20131 40110 57002 71000 333 00001;
0182569690999992000021400004+21500+101580FM-12+063399999V0209999C000010003019N0002001N1+01301+01301101351ADDAA199000091AY141061GA1091+999999999GF109991091999999999999999MD1210141+0001MW1471REMSYN070AAXX  14001 56969 31/02 90000 10130 20130 40135 52014 74740 333 00001;EQDQ01  00002PRCP99
0140569690999992000021403004+21500+101580FM-12+063399999V0209999C000012200019N0100001N1+01681+01501101551ADDAY141031AY241031GF101991011061004501001001MD1210151+9999MW1281REMSYN066AAXX  14031 56969 41460 10000 10168 20150 40155 52015 72844 81600;
0191569690999992000021406004+21500+101580FM-12+063399999V0201401N002012200019N0300001N1+02882+01371101171ADDAA199000091AY141061GF101991011011012501001001KA1999N+01231MD1710231+0201MW1001REMSYN082AAXX  14061 56969 31680 11402 10288 20137 40117 57023 70040 81100 333 00201 20123;EQDQ01  00002PRCP99
0152569690999992000021412004+21500+101580FM-12+063399999V0209999C000012200019N0250001N1+02251+01821101071ADDAA199000091GF102991011051017501001011MD1210051+0011REMSYN070AAXX  14121 56969 32775 20000 10225 20182 40107 52005 81501 333 00151;EQDQ01  00002PRCP99
0181569690999992000021418004+21500+101580FM-12+063399999V0209999C000012200019N0100001N1+01551+01521101211ADDAA199000091GA1001+999999999GF100991001001999999001001KA1999M+03111MD1210061+0101REMSYN070AAXX  14181 56969 32960 00000 10155 20152 40121 52006 333 00101 10311;EQDQ01  00002PRCP99
0132569690999992000021421004+21500+101580FM-12+063399999V0209999C000012200019N0100001N1+01401+01381101161ADDGA1001+999999999GF100991001001999999001001MD1710031+0011REMSYN064AAXX  14211 56969 42960 00000 10140 20138 40116 57003 333 00101;
0182569690999992000021500004+21500+101580FM-12+063399999V0209999C000010006019N0008001N1+01341+01341101421ADDAA199000091AY141061GA1091+999999999GF109991091999999999999999MD1210131+0011MW1451REMSYN070AAXX  15001 56969 31/08 90000 10134 20134 40142 52013 74540 333 00100;EQDQ01  00002PRCP99
0150569690999992000021503004+21500+101580FM-12+063399999V0201401N001012200019N0200001N1+01761+01441101541ADDAY141031AY241031GA1001+999999999GF100991001001999999001001MD1210101+9999MW1281REMSYN060AAXX  15031 56969 41970 01401 10176 20144 40154 52010 72844;
0191569690999992000021506004+21500+101580FM-12+063399999V0209999C000012200019N0300001N1+02941+01541101091ADDAA199000091AY141061GF101991011011008001001001KA1999N+01261MD1710301-0101MW1001REMSYN082AAXX  15061 56969 31580 10000 10294 20154 40109 57030 70040 81100 333 05101 20126;EQDQ01  00002PRCP99
0122569690999992000021509004+21500+101580FM-12+063399999V0202501N002012200019N0300001N1+03081+01081100781ADDGF101991011011008001001001MD1710291+0011REMSYN070AAXX  15091 56969 42580 12502 10308 20108 40078 57029 81100 333 05100;
0162569690999992000021512004+21500+101580FM-12+063399999V0209999C000012200019N0200001N1+02431+01641100931ADDAA199000091GA1001+999999999GF100991001001999999001001MD1210061+0011REMSYN064AAXX  15121 56969 32970 00000 10243 20164 40093 52006 333 05102;EQDQ01  00002PRCP99
0171569690999992000021518004+21500+101580FM-12+063399999V0209999C000012200019N0120001N1+01661+01581101021ADDAA199000091GF102991021051017501001001KA1999M+03191MD1210011-0201REMSYN076AAXX  15181 56969 32762 20000 10166 20158 40102 52001 82500 333 05201 10319;EQDQ01  00002PRCP99
0134569690999992000021521004+21500+101580FM-12+063399999V0209999C000012200019N0080001N1+01511+01481100991ADDGF103991031061004501001001MD1710031+0021MW1101REMSYN076AAXX  15211 56969 41458 30000 10151 20148 40099 57003 71000 83600 333 05201;
0152569690999992000021600004+21500+101580FM-12+063399999V0209999C000010042019N0150001N1+01471+01441101241ADDAA199000091GF107991071051004501999999MD1210151+0011REMSYN070AAXX  16001 56969 32465 70000 10147 20144 40124 52015 875// 333 05101;EQDQ01  00002PRCP99
0112569690999992000021603004+21500+101580FM-12+063399999V0209999C000012200019N0250001N1+01971+01601101431ADDGF101991011011008001001001MD1210161+9999REMSYN060AAXX  16031 56969 42575 10000 10197 20160 40143 52016 81100;
0171569690999992000021606004+21500+101580FM-12+063399999V0201601N002012200019N0200001N1+02721+01751101051ADDAA199000091GF102991021011008001001001KA1999N+01411MD1710281-0101REMSYN076AAXX  16061 56969 32570 21602 10272 20175 40105 57028 82100 333 05152 20141;EQDQ01  00002PRCP99
0122569690999992000021609004+21500+101580FM-12+063399999V0202001N003012200019N0250001N1+03041+01341100731ADDGF104991031081008001001021MD1710281+0001REMSYN070AAXX  16091 56969 42575 42003 10304 20134 40073 57028 83802 333 00000;
0152569690999992000021612004+21500+101580FM-12+063399999V0203201N001010360019N0150001N1+02521+01761100871ADDAA199000091GF107991021051017501031999MD1210071+0001REMSYN070AAXX  16121 56969 32765 73201 10252 20176 40087 52007 8253/ 333 00001;EQDQ01  00002PRCP99
0171569690999992000021618004+21500+101580FM-12+063399999V0209999C000010150019N0100001N1+01881+01801101021ADDAA199000091GF107991071051017501999999KA1999M+03091MD1210021+0001REMSYN076AAXX  16181 56969 32760 70000 10188 20180 40102 52002 875// 333 00002 10309;EQDQ01  00002PRCP99
0122569690999992000021621004+21500+101580FM-12+063399999V0209999C000010150019N0100001N1+01811+01701100931ADDGF108991081051017501999999MD1710061+0001REMSYN070AAXX  16211 56969 42760 80000 10181 20170 40093 57006 885// 333 00003;
0172569690999992000021700004+21500+101580FM-12+063399999V0209999C000010120019N0100001N1+01771+01671101151ADDAA199000091AY191061GF108991081041012501999999MD1210141+0001MW1001REMSYN076AAXX  17001 56969 31660 80000 10177 20167 40115 52014 70090 884// 333 00003;EQDQ01  00002PRCP99
0112569690999992000021703004+21500+101580FM-12+063399999V0202001N001012200019N0100001N1+02371+01901101271ADDGF101991011011008001001001MD1210131+9999REMSYN060AAXX  17031 56969 42560 12001 10237 20190 40127 52013 81100;
0171569690999992000021706004+21500+101580FM-12+063399999V0202901N001010075019N0200001N1+02761+01731100931ADDAA199000091GF105991051021008001001001KA1999N+01681MD1710291-0101REMSYN076AAXX  17061 56969 32570 52901 10276 20173 40093 57029 85200 333 05100 20168;EQDQ01  00002PRCP99
0122569690999992000021709004+21500+101580FM-12+063399999V0202501N002012200019N0300001N1+03001+01481100551ADDGF101991011011008001001001MD1710341+0011REMSYN070AAXX  17091 56969 42580 12502 10300 20148 40055 57034 81100 333 05100;
0167569690999992000021712004+21500+101580FM-12+063399999V0200201N001012200019N0200001N1+02041+01741100791ADDAA106000391AY191061AY281061GF101991001001999999001021MD1210111+0011MW1001REMSYN082AAXX  17121 56969 11970 10201 10204 20174 40079 52011 69931 70098 80002 333 05155;
0186569690999992000021718004+21500+101580FM-12+063399999V0202701N001012200019N0100001N1+01791+01731101011ADDAA106005191AY191061AY281061GF103991031041012501001001KA1999M+03011MD1210131+0001MW1251REMSYN088AAXX  17181 56969 11660 32701 10179 20173 40101 52013 60051 72598 83400 333 00051 10301;
0151569690999992000021721004+21500+101580FM-12+063399999V0209999C000010042019N0080001N1+01741+01721100921ADDAA124004891GF108991081061004501999999MD1710061+0001MW1101REMSYN082AAXX  17211 56969 41458 80000 10174 20172 40092 57006 71000 886// 333 00051 70048;
0169569690999992000021800004+21500+101580FM-12+063399999V0209999C000010003019N0004001N1+01731+01731101111ADDAA124004891AY141061GA1091+999999999GF109991091999999999999999MD1210061-0101MW1471REMSYN076AAXX  18001 56969 31/04 90000 10173 20173 40111 52006 74740 333 05100 70048;
0140569690999992000021803004+21500+101580FM-12+063399999V0201801N001010042019N0070001N1+01861+01781101361ADDAY181031AY241031GF108991081091004501999999MD1210221+9999MW1171REMSYN066AAXX  18031 56969 41457 81801 10186 20178 40136 52022 71784 889//;
0186569690999992000021806004+21500+101580FM-12+063399999V0209999C000010075019N0200001N1+02401+02001101011ADDAA106000391AY191061AY281061GF108991081091008001999999KA1999N+01651MD1710261+0001MW1001REMSYN088AAXX  18061 56969 11570 80000 10240 20200 40101 57026 69931 70098 889// 333 00054 20165;
0134569690999992000021809004+21500+101580FM-12+063399999V0200401N002010075019N0250001N1+02411+01911100701ADDGF107991071091008001999999MD1710291+0011MW1801REMSYN076AAXX  18091 56969 41575 70402 10241 20191 40070 57029 78000 879// 333 00156;
0167569690999992000021812004+21500+101580FM-12+063399999V0201401N001012200019N0200001N1+02141+01811100791ADDAA106000391AY191061AY281061GF104991041041012501001001MD1210051+0001MW1001REMSYN082AAXX  18121 56969 11670 41401 10214 20181 40079 52005 69931 70098 84400 333 00001;
0123569690999992000021818004+21500+101580FM-12+063399999V0209999C000010150019N0120001N1+01781+01751101021ADDAA199000021GF106991061051017501001001MD1210051+9999REMSYN060AAXX  18181 56969 32762 60000 10178 20175 40102 52005 86500;
0139569690999992000021821004+21500+101580FM-12+063399999V0209999C000010120019N0100001N1+01771+01751100891ADDAA124000591GF108991081041012501999999MD1710121-0101REMSYN076AAXX  18211 56969 42660 80000 10177 20175 40089 57012 884// 333 05100 70006;
0165569690999992000021900004+21500+101580FM-12+063399999V0209999C000010120019N0100001N1+01781+01761101041ADDAA106000191AY181061GF107991071041012501999999MD1210111+0001MW1801REMSYN088AAXX  19001 56969 11660 70000 10178 20176 40104 52011 69911 78080 874// 333 00001 70007;
0178569690999992000021906004+21500+101580FM-12+063399999V0201801N003010120019N0300001N1+02441+01761100981ADDAA106000791AY181061GF107991071041012501999999KA1999N+01691MD1710181+0001MW1001REMSYN088AAXX  19061 56969 11680 71803 10244 20176 40098 57018 69901 70080 874// 333 00000 20169;
0122569690999992000021909004+21500+101580FM-12+063399999V0202201N002010150019N0300001N1+02441+01601100801ADDGF108991081051017501999999MD1710171+0011REMSYN070AAXX  19091 56969 42780 82202 10244 20160 40080 57017 885// 333 00100;
0133569690999992000021912004+21500+101580FM-12+063399999V0209999C000010150019N0200001N1+02151+01921100871ADDAA199000021GF107991071051017501999999MD1210031+0011REMSYN070AAXX  19121 56969 32770 70000 10215 20192 40087 52003 875// 333 00100;
0171569690999992000021918004+21500+101580FM-12+063399999V0209999C000010150019N0150001N1+01841+01791101021ADDAA199000091GF107991071051017501999999KA1999M+02521MD1210061+0001REMSYN076AAXX  19181 56969 32765 70000 10184 20179 40102 52006 875// 333 00001 10252;EQDQ01  00002PRCP99
0139569690999992000021921004+21500+101580FM-12+063399999V0209999C000010150019N0100001N1+01761+01731100901ADDAA124000191GF107991071051017501999999MD1710121+0001REMSYN076AAXX  19211 56969 42760 70000 10176 20173 40090 57012 875// 333 00000 70001;
0151569690999992000022000004+21500+101580FM-12+063399999V0209999C000010042019N0040001N1+01701+01681101001ADDAA124000791GF108991081051004501999999MD1210051-0101MW1101REMSYN082AAXX  20001 56969 31440 80000 10170 20168 40100 52005 71000 885// 333 05151 79999;
0132569690999992000022003004+21500+101580FM-12+063399999V0201401N001010150019N0200001N1+02121+01781101121ADDAY161031GF106991061051017501001001MD1210141+9999MW1001REMSYN066AAXX  20031 56969 41770 61401 10212 20178 40112 52014 70060 86500;
0178569690999992000022006004+21500+101580FM-12+063399999V0202001N002010120019N0300001N1+02871+01341100831ADDAA106000791AY161061GF107991071081008001999999KA1999N+01641MD1710201-0101MW1001REMSYN088AAXX  20061 56969 11580 72002 10287 20134 40083 57020 69901 70060 878// 333 05104 20164;
0122569690999992000022009004+21500+101580FM-12+063399999V0202501N003010360019N0300001N1+02761+01251100641ADDGF107991041041008001031021MD1710201+0011REMSYN070AAXX  20091 56969 42580 72503 10276 20125 40064 57020 84432 333 05103;
0152569690999992000022012004+21500+101580FM-12+063399999V0202201N001010150019N0200001N1+02331+01811100731ADDAA199000091GF108991081051017501999999MD1210031+0011REMSYN070AAXX  20121 56969 32770 82201 10233 20181 40073 52003 885// 333 05102;EQDQ01  00002PRCP99
0181569690999992000022018004+21500+101580FM-12+063399999V0209999C000012200019N0100001N1+01671+01621100971ADDAA199000091GA1001+999999999GF100991001001999999001001KA1999M+02911MD1210031+0001REMSYN070AAXX  20181 56969 32960 00000 10167 20162 40097 52003 333 00052 10291;EQDQ01  00002PRCP99
0139569690999992000022021004+21500+101580FM-12+063399999V0209999C000010150019N0100001N1+01561+01531100991ADDAA124000791GF107991071051017501999999MD1410001+0101REMSYN076AAXX  20211 56969 42760 70000 10156 20153 40099 54000 875// 333 00152 79999;
0151569690999992000022100004+21500+101580FM-12+063399999V0209999C000010075019N9999999N1+01601+01571101101ADDAA124000791GF107991071051008001999999MD1999999+0101MW1101REMSYN082AAXX  21001 56969 3158/ 70000 10160 20157 4011/ 5//// 71000 875// 333 00151 79999;
0112569690999992000022103004+21500+101580FM-12+063399999V0200901N001010150019N0150001N1+01931+01671101321ADDGF107991071051017501999999MD1210171+9999REMSYN060AAXX  21031 56969 42765 70901 10193 20167 40132 52017 875//;
0171569690999992000022106004+21500+101580FM-12+063399999V0202701N004010150019N0300001N1+02861+01351101011ADDAA199000091GF106991061051017501001001KA1999N+01471MD1710221+0201REMSYN076AAXX  21061 56969 32780 62704 10286 20135 40101 57022 86500 333 00200 20147;EQDQ01  00002PRCP99
0122569690999992000022109004+21500+101580FM-12+063399999V0202001N003010150019N0300001N1+02921+01221100721ADDGF106991061051017501001001MD1710281+0011REMSYN070AAXX  21091 56969 42780 62003 10292 20122 40072 57028 86500 333 00102;
0152569690999992000022112004+21500+101580FM-12+063399999V0209999C000010360019N0250001N1+02341+01551100831ADDAA199000091GF105991011041012501031001MD1210041+0011REMSYN070AAXX  21121 56969 32675 50000 10234 20155 40083 52004 81430 333 00100;EQDQ01  00002PRCP99
0152569690999992000022118004+21500+101580FM-12+063399999V0209999C000012200019N0150001N1+01581+01551101161ADDAA199000091GF101991011001999999031001MD1210111+0021REMSYN070AAXX  21181 56969 32965 10000 10158 20155 40116 52011 81030 333 00251;EQDQ01  00002PRCP99
0122569690999992000022121004+21500+101580FM-12+063399999V0209999C000010150019N0120001N1+01581+01531101021ADDGF107991071051017501999999MD1710121+0011REMSYN070AAXX  21211 56969 42762 70000 10158 20153 40102 57012 875// 333 00100;
0152569690999992000022200004+21500+101580FM-12+063399999V0209999C000012200019N0150001N1+01521+01471101211ADDAA199000091GF103991031041012501001001MD1210101+0011REMSYN070AAXX  22001 56969 32665 30000 10152 20147 40121 52010 83400 333 00151;EQDQ01  00002PRCP99
0112569690999992000022203004+21500+101580FM-12+063399999V0209999C000010150019N0200001N1+02041+01521101401ADDGF106991061051017501001001MD1210181+9999REMSYN060AAXX  22031 56969 42770 60000 10204 20152 40140 52018 86500;
0171569690999992000022206004+21500+101580FM-12+063399999V0202001N003010150019N0300001N1+02801+01221101071ADDAA199000091GF106991061051017501001001KA1999N+01441MD1710251+0001REMSYN076AAXX  22061 56969 32780 62003 10280 20122 40107 57025 86500 333 00051 20144;EQDQ01  00002PRCP99
0122569690999992000022209004+21500+101580FM-12+063399999V0202501N003012200019N0300001N1+03081+00771100701ADDGF101991011011012501031001MD1710311+0001REMSYN070AAXX  22091 56969 42680 12503 10308 20077 40070 57031 81130 333 00002;
0162569690999992000022212004+21500+101580FM-12+063399999V0209999C000012200019N0200001N1+02421+01241100851ADDAA199000091GA1001+999999999GF100991001001999999001001MD1210051+0001REMSYN064AAXX  22121 56969 32970 00000 10242 20124 40085 52005 333 00001;EQDQ01  00002PRCP99
0181569690999992000022218004+21500+101580FM-12+063399999V0209999C000012200019N0150001N1+01441+01351101081ADDAA199000091GA1001+999999999GF100991001001999999001001KA1999M+03091MD1210061-0101REMSYN070AAXX  22181 56969 32965 00000 10144 20135 40108 52006 333 05151 10309;EQDQ01  00002PRCP99
0132569690999992000022221004+21500+101580FM-12+063399999V0209999C000012200019N0100001N1+01291+01271101031ADDGA1001+999999999GF100991001001999999001001MD1710031+0001REMSYN064AAXX  22211 56969 42960 00000 10129 20127 40103 57003 333 00053;
0152569690999992000022300004+21500+101580FM-12+063399999V0209999C000012200019N0100001N1+01181+01161101251ADDAA199000091GF102991011061004501001021MD1210111+0001REMSYN070AAXX  23001 56969 32460 20000 10118 20116 40125 52011 81602 333 00053;EQDQ01  00002PRCP99
0132569690999992000022303004+21500+101580FM-12+063399999V0209999C000012200019N0300001N1+01961+01411101431ADDAY141031GF101991001001999999001021MD1210171+9999MW1001REMSYN066AAXX  23031 56969 41980 10000 10196 20141 40143 52017 70040 80002;
0191569690999992000022306004+21500+101580FM-12+063399999V0201401N002012200019N0300001N1+02901+01321101031ADDAA199000091AY141061GF101991011001999999031001KA1999N+01111MD1710281+0001MW1001REMSYN082AAXX  23061 56969 31980 11402 10290 20132 40103 57028 70040 81030 333 00001 20111;EQDQ01  00002PRCP99
0122569690999992000022309004+21500+101580FM-12+063399999V0202901N003012200019N0300001N1+03091+00921100771ADDGF101991011011012501031001MD1710241+0001REMSYN070AAXX  23091 56969 42680 12903 10309 20092 40077 57024 81130 333 00000;
0162569690999992000022312004+21500+101580FM-12+063399999V0200201N001012200019N0300001N1+02441+01371100871ADDAA199000091GA1001+999999999GF100991001001999999001001MD1410001+0001REMSYN064AAXX  23121 56969 32980 00201 10244 20137 40087 54000 333 00000;EQDQ01  00002PRCP99
0181569690999992000022318004+21500+101580FM-12+063399999V0209999C000012200019N0100001N1+01481+01391101141ADDAA199000091GA1001+999999999GF100991001001999999001001KA1999M+03151MD1210121+0101REMSYN070AAXX  23181 56969 32960 00000 10148 20139 40114 52012 333 00100 10315;EQDQ01  00002PRCP99
0132569690999992000022321004+21500+101580FM-12+063399999V0209999C000012200019N0100001N1+01351+01311101101ADDGA1001+999999999GF100991001001999999001001MD1710031+0011REMSYN064AAXX  23211 56969 42960 00000 10135 20131 40110 57003 333 00101;
0152569690999992000022400004+21500+101580FM-12+063399999V0209999C000012200019N0100001N1+01271+01231101301ADDAA199000091GF101991011051017501001001MD1210101+0011REMSYN070AAXX  24001 56969 32760 10000 10127 20123 40130 52010 81500 333 00101;EQDQ01  00002PRCP99
0132569690999992000022403004+21500+101580FM-12+063399999V0209999C000012200019N0300001N1+01931+01351101461ADDAY141031GF101991011051017501001001MD1210141+9999MW1001REMSYN066AAXX  24031 56969 41780 10000 10193 20135 40146 52014 70040 81500;
0191569690999992000022406004+21500+101580FM-12+063399999V0201101N001010150019N0300001N1+02931+01201101071ADDAA199000091AY141061GF105991051051017501001001KA1999N+01201MD1710271+0001MW1001REMSYN082AAXX  24061 56969 31780 51101 10293 20120 40107 57027 70040 85500 333 00000 20120;EQDQ01  00002PRCP99
0122569690999992000022409004+21500+101580FM-12+063399999V0202201N004012200019N0300001N1+03151+01071100721ADDGF103991031001999999031001MD1710311+0001REMSYN070AAXX  24091 56969 42980 32204 10315 20107 40072 57031 83030 333 00001;
0152569690999992000022412004+21500+101580FM-12+063399999V0209999C000012200019N0250001N1+02351+01621100861ADDAA199000091GF103991021041012501031001MD1210021+0001REMSYN070AAXX  24121 56969 32675 30000 10235 20162 40086 52002 82430 333 00051;EQDQ01  00002PRCP99
0171569690999992000022418004+21500+101580FM-12+063399999V0209999C000010150019N0100001N1+01621+01491101061ADDAA199000091GF106991061051017501001001KA1999M+03201MD1210071-0101REMSYN076AAXX  24181 56969 32760 60000 10162 20149 40106 52007 86500 333 05101 10320;EQDQ01  00002PRCP99
0122569690999992000022421004+21500+101580FM-12+063399999V0209999C000010150019N0100001N1+01561+01461101031ADDGF107991071051017501999999MD1710011+0001REMSYN070AAXX  24211 56969 42760 70000 10156 20146 40103 57001 875// 333 00002;
0152569690999992000022500004+21500+101580FM-12+063399999V0209999C000010150019N0180001N1+01531+01461101231ADDAA199000091GF107991071051017501999999MD1210091+0001REMSYN070AAXX  25001 56969 32768 70000 10153 20146 40123 52009 875// 333 00003;EQDQ01  00002PRCP99
0112569690999992000022503004+21500+101580FM-12+063399999V0201101N001012200019N0250001N1+02121+01401101361ADDGF101991011051017501001001MD1210121+9999REMSYN060AAXX  25031 56969 42775 11101 10212 20140 40136 52012 81500;
0171569690999992000022506004+21500+101580FM-12+063399999V0202201N002012200019N0300001N1+02941+01371101001ADDAA199000091GF103991031051017501001001KA1999N+01461MD1710261-0101REMSYN076AAXX  25061 56969 32780 32202 10294 20137 40100 57026 83500 333 05100 20146;EQDQ01  00002PRCP99
0122569690999992000022509004+21500+101580FM-12+063399999V0203201N001010075019N0250001N1+03011+01511100741ADDGF107991071091008001001001MD1710241+0001REMSYN070AAXX  25091 56969 42575 73201 10301 20151 40074 57024 87900 333 00051;
