0176572900999992000010100004+33000+114020FM-12+008399999V0203401N003019999999N0100001N1+00101-00131102331ADDAA106000091GF108991081001999999021999IA2999+00109MD1210041-0201REMSYN082AAXX  01001 57290 32960 83403 10010 21013 40233 52004 8802/ 333 05202 30010 70001;EQDQ01  00002PRCP06
0112572900999992000010103004+33000+114020FM-12+008399999V0203201N003019999999N0100001N1+00161-00011102361ADDGF108991081001999999021999MD1210041+9999REMSYN060AAXX  01031 57290 42960 83203 10016 21001 40236 52004 8802/;
0177572900999992000010106004+33000+114020FM-12+008399999V0203201N002019999999N0080001N1+00271+00061102191ADDAA106000091GF108991081001999999021999KA1999N+00071MD1710171+9999MW1101REMSYN076AAXX  01061 57290 31958 83202 10027 20006 40219 57017 71000 8802/ 333 20007;EQDQ01  00002PRCP06
0124572900999992000010109004+33000+114020FM-12+008399999V0203201N003019999999N0060001N1+00331+00091102251ADDGF108991081001999999021999MD1210061+9999MW1101REMSYN066AAXX  01091 57290 41956 83203 10033 20009 40225 52006 71000 8802/;
0154572900999992000010112004+33000+114020FM-12+008399999V0209999C000019999999N0060001N1+00051-00121102401ADDAA106000091GF106991001001999999001021MD1210141+9999MW1101REMSYN066AAXX  01121 57290 31956 60000 10005 21012 40240 52014 71000 80002;EQDQ01  00002PRCP06
0175572900999992000010118004+33000+114020FM-12+008399999V0202701N003012200019N0100001N1+00221-00091102351ADDAA106000091GA1001+999999999GF100991001001999999001001KA1999M+00331MD1710081+9999REMSYN064AAXX  01181 57290 32960 02703 10022 21009 40235 57008 333 10033;EQDQ01  00002PRCP06
0122572900999992000010121004+33000+114020FM-12+008399999V0202701N002012200019N0100001N1+00161-00061102351ADDGA1001+999999999GF100991001001999999001001MD1410001+9999REMSYN054AAXX  01211 57290 42960 02702 10016 21006 40235 54000;
0192572900999992000010200004+33000+114020FM-12+008399999V0209999C000012200019N0080001N1+00041-00171102501ADDAA106000091GA1001+999999999GF100991001001999999001001IA2999-00409MD1210141+0201MW1101REMSYN076AAXX  02001 57290 31958 00000 10004 21017 40250 52014 71000 333 00251 31042;EQDQ01  00002PRCP06
0134572900999992000010203004+33000+114020FM-12+008399999V0202501N002012200019N0080001N1+00531+00091102571ADDGA1001+999999999GF100991001001999999001001MD1210071+9999MW1101REMSYN060AAXX  02031 57290 41958 02502 10053 20009 40257 52007 71000;
0175572900999992000010206004+33000+114020FM-12+008399999V0209999C000012200019N0100001N1+01101-00111102181ADDAA106000091GA1001+999999999GF100991001001999999001001KA1999N-00181MD1710361+9999REMSYN064AAXX  02061 57290 32960 00000 10110 21011 40218 57036 333 21018;EQDQ01  00002PRCP06
0122572900999992000010209004+33000+114020FM-12+008399999V0201101N003012200019N0100001N1+00941+00051102011ADDGA1001+999999999GF100991001001999999001001MD1710181+9999REMSYN054AAXX  02091 57290 42960 01103 10094 20005 40201 57018;
0152572900999992000010212004+33000+114020FM-12+008399999V0201401N003012200019N0100001N1+00581+00181101961ADDAA106000091GA1001+999999999GF100991001001999999001001MD1710051+9999REMSYN054AAXX  02121 57290 32960 01403 10058 20018 40196 57005;EQDQ01  00002PRCP06
0165572900999992000010218004+33000+114020FM-12+008399999V0203401N001012200019N0100001N1+00261-00011101791ADDAA106000091GF104991001001999999001021KA1999M+01191MD1710061+9999REMSYN070AAXX  02181 57290 32960 43401 10026 21001 40179 57006 80002 333 10119;EQDQ01  00002PRCP06
0124572900999992000010221004+33000+114020FM-12+008399999V0209999C000019999999N0080001N1+00001-00151101771ADDGF107991071001999999041001MD1710041+9999MW1101REMSYN066AAXX  02211 57290 41958 70000 10000 21015 40177 57004 71000 87040;
0190572900999992000010300004+33000+114020FM-12+008399999V0200701N001019999999N0004001N1-00051-00141101901ADDAA106000091AY141061GF108991081001999999071999IA2999-00209MD1210131-0601MW1461REMSYN082AAXX  03001 57290 31904 80701 11005 21014 40190 52013 74640 8807/ 333 05651 31026;EQDQ01  00002PRCP06
0140572900999992000010303004+33000+114020FM-12+008399999V0203601N001019999999N0001001N1+00021-00041101961ADDAY141031AY241031GF108991081001999999071999MD1210061+9999MW1461REMSYN066AAXX  03031 57290 41901 83601 10002 21004 40196 52006 74644 8807/;
0193572900999992000010306004+33000+114020FM-12+008399999V0203401N002019999999N0004001N1+00121-00021101701ADDAA106000091AY141061AY241061GF108991081001999999071999KA1999N-00101MD1710271+9999MW1421REMSYN076AAXX  03061 57290 31904 83402 10012 21002 40170 57027 74244 8807/ 333 21010;EQDQ01  00002PRCP06
0140572900999992000010309004+33000+114020FM-12+008399999V0200201N001019999999N0004001N1+00161+00081101721ADDAY141031AY241031GF108991081001999999071999MD1210021+9999MW1441REMSYN066AAXX  03091 57290 41904 80201 10016 20008 40172 52002 74444 8807/;
0170572900999992000010312004+33000+114020FM-12+008399999V0203401N002019999999N0008001N1+00161-00011101861ADDAA106000091AY141061AY241061GF108991081001999999071999MD1210141+9999MW1441REMSYN066AAXX  03121 57290 31908 83402 10016 21001 40186 52014 74444 8807/;EQDQ01  00002PRCP06
0193572900999992000010318004+33000+114020FM-12+008399999V0203201N003019999999N0009001N1+00171+00011101931ADDAA106000091AY141061AY241061GF108991081001999999071999KA1999M+00281MD1410001+9999MW1441REMSYN076AAXX  03181 57290 31909 83203 10017 20001 40193 54000 74444 8807/ 333 10028;EQDQ01  00002PRCP06
0140572900999992000010321004+33000+114020FM-12+008399999V0203201N001019999999N0030001N1+00121+00011101871ADDAY141031AY241031GF108991081001999999071999MD1710061+9999MW1281REMSYN066AAXX  03211 57290 41930 83201 10012 20001 40187 57006 72844 8807/;
0190572900999992000010400004+33000+114020FM-12+008399999V0203201N003019999999N0070001N1+00121-00171101901ADDAA106000091AY141061GF108991081001999999071999IA2999+00109MD1210021+0001MW1101REMSYN082AAXX  04001 57290 31957 83203 10012 21017 40190 52002 71040 8807/ 333 00002 30014;EQDQ01  00002PRCP06
0112572900999992000010403004+33000+114020FM-12+008399999V0203201N004019999999N0100001N1+00191-00351101921ADDGF108991081001999999071999MD1210021+9999REMSYN060AAXX  04031 57290 42960 83204 10019 21035 40192 52002 8807/;
0172572900999992000010406004+33000+114020FM-12+008399999V0203201N003019999999N0100001N1+00261-00201101631ADDAA106000791AY161061GF108991081001999999071999KA1999N+00091MD1710281+9999MW1601REMSYN082AAXX  04061 57290 11960 83203 10026 21020 40163 57028 69901 76060 8807/ 333 20009;
0132572900999992000010409004+33000+114020FM-12+008399999V0203201N003019999999N0100001N1+00191-00281101721ADDAY161031GF108991081001999999071999MD1210091+9999MW1001REMSYN066AAXX  04091 57290 41960 83203 10019 21028 40172 52009 70060 8807/;
0149572900999992000010412004+33000+114020FM-12+008399999V0203201N003019999999N0100001N1+00041-00131101871ADDAA106000891AY161061GF108991081001999999021999MD1210141+9999MW1601REMSYN072AAXX  04121 57290 11960 83203 10004 21013 40187 52014 69981 76060 8802/;
0172572900999992000010418004+33000+114020FM-12+008399999V0203401N002019999999N0100001N1-00011-00161101811ADDAA106000791AY161061GF108991081001999999071999KA1999M+00301MD1710151+9999MW1001REMSYN082AAXX  04181 57290 11960 83402 11001 21016 40181 57015 69901 70060 8807/ 333 10030;
0133572900999992000010421004+33000+114020FM-12+008399999V0203601N003019999999N0100001N1-00021-00171101851ADDAA124000891GF108991081001999999071999MD1210041+9999REMSYN070AAXX  04211 57290 42960 83603 11002 21017 40185 52004 8807/ 333 70008;
0188572900999992000010500004+33000+114020FM-12+008399999V0203201N003019999999N0080001N1-00021-00141101911ADDAA106000091GF108991081001999999021999IA2999+00029MD1210061+0001MW1101REMSYN088AAXX  05001 57290 31958 83203 11002 21014 40191 52006 71000 8802/ 333 00051 30002 70008;EQDQ01  00002PRCP06
0112572900999992000010503004+33000+114020FM-12+008399999V0203401N003019999999N0100001N1+00041-00161101991ADDGF108991081001999999021999MD1210081+9999REMSYN060AAXX  05031 57290 42960 83403 10004 21016 40199 52008 8802/;
0165572900999992000010506004+33000+114020FM-12+008399999V0203201N003019999999N0100001N1+00111-00121101861ADDAA106000091GF108991081001999999021999KA1999N-00061MD1710131+9999REMSYN070AAXX  05061 57290 32960 83203 10011 21012 40186 57013 8802/ 333 21006;EQDQ01  00002PRCP06
0112572900999992000010509004+33000+114020FM-12+008399999V0203401N003019999999N0100001N1+00121-00171102061ADDGF108991081001999999021999MD1210201+9999REMSYN060AAXX  05091 57290 42960 83403 10012 21017 40206 52020 8802/;
0142572900999992000010512004+33000+114020FM-12+008399999V0203401N003019999999N0100001N1+00161-00161102361ADDAA106000091GF108991081001999999021999MD1210291+9999REMSYN060AAXX  05121 57290 32960 83403 10016 21016 40236 52029 8802/;EQDQ01  00002PRCP06
0165572900999992000010518004+33000+114020FM-12+008399999V0203201N002019999999N0100001N1+00111-00121102461ADDAA106000091GF108991081001999999021999KA1999M+00171MD1210011+9999REMSYN070AAXX  05181 57290 32960 83202 10011 21012 40246 52001 8802/ 333 10017;EQDQ01  00002PRCP06
0140572900999992000010521004+33000+114020FM-12+008399999V0203201N001019999999N0030001N1+00121+00011101871ADDAY141031AY241031GF108991081001999999071999MD1710061+9999MW1281REMSYN066AAXX  05211 57290 41930 83201 10012 20001 40187 57006 72844 8807/;
0131572900999992000010603004+33000+114020FM-12+008399999V0200401N001019999999N0100001N1+00501-00031102832ADDGF107991071001999999031999MD1210141+9999REMSYN060AAXX  06031 57290 42960 70401 10050 21003 40283 52014 8703/;EQDQ01+102833APOSLP
0175572900999992000010606004+33000+114020FM-12+008399999V0200401N002012200019N0120001N1+00761-00181102531ADDAA106000091GA1001+999999999GF100991001001999999001001KA1999N+00071MD1710291+9999REMSYN064AAXX  06061 57290 32962 00402 10076 21018 40253 57029 333 20007;EQDQ01  00002PRCP06
0112572900999992000010609004+33000+114020FM-12+008399999V0200201N002012200019N0120001N1+00711-00401102491ADDGF101991001001999999001011MD1710041+9999REMSYN060AAXX  06091 57290 42962 10202 10071 21040 40249 57004 80001;
0152572900999992000010612004+33000+114020FM-12+008399999V0201401N003012200019N0100001N1+00401-00221102591ADDAA106000091GA1001+999999999GF100991001001999999001001MD1210091+9999REMSYN054AAXX  06121 57290 32960 01403 10040 21022 40259 52009;EQDQ01  00002PRCP06
0122572900999992000010621004+33000+114020FM-12+008399999V0203401N002012200019N0100001N1-00391-00631102841ADDGA1001+999999999GF100991001001999999001001MD1210191+9999REMSYN054AAXX  06211 57290 42960 03402 11039 21063 40284 52019;
0162572900999992000010700004+33000+114020FM-12+008399999V0209999C000012200019N0100001N1-00551-00741102871ADDAA106000091GA1001+999999999GF100991001001999999001001MD1210021+0021REMSYN064AAXX  07001 57290 32960 00000 11055 21074 40287 52002 333 00257;EQDQ01  00002PRCP06
0112572900999992000010703004+33000+114020FM-12+008399999V0203201N002019999999N0100001N1-00261-00581102921ADDGF108991081001999999021999MD1210061+9999REMSYN060AAXX  07031 57290 42960 83202 11026 21058 40292 52006 8802/;
0164572900999992000010706004+33000+114020FM-12+008399999V0203401N001019999999N0100001N1-00221-00531102561ADDAA106000791GF108991081001999999021999KA1999N-00561MD1710371+9999MW1701REMSYN082AAXX  07061 57290 11960 83401 11022 21053 40256 57037 69901 77000 8802/ 333 21056;
0132572900999992000010709004+33000+114020FM-12+008399999V0200201N001019999999N0100001N1-00201-00431102491ADDAY171031GF108991081001999999021999MD1710071+9999MW1221REMSYN066AAXX  07091 57290 41960 80201 11020 21043 40249 57007 72270 8802/;
0149572900999992000010712004+33000+114020FM-12+008399999V0203201N002019999999N0100001N1-00181-00371102491ADDAA106000791AY171061GF108991081001999999021999MD1410001+9999MW1001REMSYN072AAXX  07121 57290 11960 83202 11018 21037 40249 54000 69901 70070 8802/;
0165572900999992000010718004+33000+114020FM-12+008399999V0203201N002019999999N0100001N1-00221-00351102321ADDAA106000091GF108991081001999999021999KA1999M-00131MD1710131+9999REMSYN070AAXX  07181 57290 32960 83202 11022 21035 40232 57013 8802/ 333 11013;EQDQ01  00002PRCP06
0112572900999992000010721004+33000+114020FM-12+008399999V0203601N001019999999N0100001N1-00201+99999102101ADDGF108991081001999999071999MD1710101+9999REMSYN060AAXX  07211 57290 4/960 83601 11020 21/36 4021/ 57010 8807/;
0183572900999992000010800004+33000+114020FM-12+008399999V0209999C000019999999N0090001N1-00181-00371102241ADDAA106000791AY161061GF108991081001999999071999IA2999-00149MD1210031-0601MW1601REMSYN094AAXX  08001 57290 11959 80000 11018 21037 40224 52003 69901 76060 8807/ 333 05604 31014 79999;
0132572900999992000010803004+33000+114020FM-12+008399999V0209999C000019999999N0090001N1-00061-00231102331ADDAY161031GF108991081001999999071999MD1210091+9999MW1101REMSYN066AAXX  08031 57290 41959 80000 11006 21023 40233 52009 71060 8807/;
0172572900999992000010806004+33000+114020FM-12+008399999V0209999C000019999999N0090001N1+00061-00141102041ADDAA106000791AY161061GF108991081001999999021999KA1999N-00251MD1710281+9999MW1101REMSYN082AAXX  08061 57290 11959 80000 10006 21014 40204 57028 69901 71060 8802/ 333 21025;
0140572900999992000010809004+33000+114020FM-12+008399999V0200401N002019999999N0090001N1+00081-00091102051ADDAY171031AY261031GF108991081001999999021999MD1210011+9999MW1701REMSYN066AAXX  08091 57290 41959 80402 10008 21009 40205 52001 77076 8802/;
0157572900999992000010812004+33000+114020FM-12+008399999V0209999C000019999999N0090001N1+00041-00071102121ADDAA106000791AY171061AY261061GF108991081001999999021999MD1210061+9999MW1701REMSYN072AAXX  08121 57290 11959 80000 10004 21007 40212 52006 69901 77076 8802/;
0172572900999992000010818004+33000+114020FM-12+008399999V0203401N002019999999N0070001N1+00011-00081102161ADDAA106000191AY171061GF108991081001999999021999KA1999M+00101MD1710011+9999MW1101REMSYN082AAXX  08181 57290 11957 83402 10001 21008 40216 57001 69921 71070 8802/ 333 10010;
0145572900999992000010821004+33000+114020FM-12+008399999V0203201N002019999999N0080001N1+00001-00151102141ADDAA124000391GF108991081001999999021999MD1710011+9999MW1101REMSYN076AAXX  08211 57290 41958 83202 10000 21015 40214 57001 71000 8802/ 333 70002;
0188572900999992000010900004+33000+114020FM-12+008399999V0202701N001019999999N0080001N1+00011-00111102171ADDAA106000091GF108991081001999999021999IA2999+00039MD1210031-0101MW1101REMSYN088AAXX  09001 57290 31958 82701 10001 21011 40217 52003 71000 8802/ 333 05102 30003 70002;EQDQ01  00002PRCP06
0124572900999992000010903004+33000+114020FM-12+008399999V0202501N001019999999N0090001N1+00301+00031102321ADDGF108991081001999999071999MD1210151+9999MW1101REMSYN066AAXX  09031 57290 41959 82501 10030 20003 40232 52015 71000 8807/;
0112572900999992000010909004+33000+114020FM-12+008399999V0201401N004019999999N0100001N1+00481+00001102081ADDGF106991061001999999041001MD1710011+9999REMSYN060AAXX  09091 57290 42960 61404 10048 20000 40208 57001 86040;
0142572900999992000010912004+33000+114020FM-12+008399999V0201601N003012200019N0100001N1+00241-00011102091ADDAA106000091GF104991041001999999041001MD1410001+9999REMSYN060AAXX  09121 57290 32960 41603 10024 21001 40209 54000 84040;EQDQ01  00002PRCP06
0165572900999992000010918004+33000+114020FM-12+008399999V0200701N003019999999N0100001N1+00181+00021102331ADDAA106000091GF108991081001999999071999KA1999M+00601MD1210101+9999REMSYN070AAXX  09181 57290 32960 80703 10018 20002 40233 52010 8807/ 333 10060;EQDQ01  00002PRCP06
0112572900999992000010921004+33000+114020FM-12+008399999V0200401N001019999999N0100001N1+00221+00031102381ADDGF108991081001999999071999MD1210051+9999REMSYN060AAXX  09211 57290 42960 80401 10022 20003 40238 52005 8807/;
0183572900999992000011000004+33000+114020FM-12+008399999V0200701N003019999999N0030001N1+00251+00201102471ADDAA106000791AY161061GF108991081001999999021999IA2999+00019MD1210081+0301MW1601REMSYN094AAXX  10001 57290 11930 80703 10025 20020 40247 52008 69901 76060 8802/ 333 00302 30001 77999;
0132572900999992000011003004+33000+114020FM-12+008399999V0200401N003019999999N0070001N1+00261+00181102531ADDAY161031GF108991081001999999021999MD1210061+9999MW1101REMSYN066AAXX  10031 57290 41957 80403 10026 20018 40253 52006 71060 8802/;
0172572900999992000011006004+33000+114020FM-12+008399999V0203601N004019999999N0030001N1+00161+00111102381ADDAA106000891AY161061GF108991081001999999021999KA1999N+00141MD1710151+9999MW1681REMSYN082AAXX  10061 57290 11930 83604 10016 20011 40238 57015 69971 76860 8802/ 333 20014;
0140572900999992000011009004+33000+114020FM-12+008399999V0200201N003019999999N0030001N1+00101+00051102311ADDAY171031AY261031GF108991081001999999021999MD1710071+9999MW1601REMSYN066AAXX  10091 57290 41930 80203 10010 20005 40231 57007 76076 8802/;
0157572900999992000011012004+33000+114020FM-12+008399999V0203401N003019999999N0050001N1+00161+00111102331ADDAA106006191AY171061AY261061GF108991081001999999021999MD1210021+9999MW1601REMSYN072AAXX  10121 57290 11950 83403 10016 20011 40233 52002 60061 76076 8802/;
0180572900999992000011018004+33000+114020FM-12+008399999V0203401N003019999999N0060001N1+00181+00101102191ADDAA106006191AY161061AY261061GF108991081001999999021999KA1999M+00271MD1710091+9999MW1611REMSYN082AAXX  10181 57290 11956 83403 10018 20010 40219 57009 60061 76166 8802/ 333 10027;
0161572900999992000011021004+33000+114020FM-12+008399999V0203401N002019999999N0070001N1+00121+00011102131ADDAA124019391AY161031AY261031GF108991081001999999021999MD1710061+9999MW1611REMSYN076AAXX  10211 57290 41957 83402 10012 20001 40213 57006 76166 8802/ 333 70192;
0197572900999992000011100004+33000+114020FM-12+008399999V0203201N002019999999N0090001N1+00041-00071102261ADDAA106009991AY171061AY261061GF108991081001999999021999IA2999+00009MD1210121-0201MW1701REMSYN100AAXX  11001 57290 11959 83202 10004 21007 40226 52012 60101 77076 8802/ 333 05252 30000 70234 92501;
0140572900999992000011103004+33000+114020FM-12+008399999V0203401N004010360019N0070001N1+00011-00111102461ADDAY171031AY271031GF108991021071008001021999MD1210211+9999MW1701REMSYN066AAXX  11031 57290 41557 83404 10001 21011 40246 52021 77077 8272/;
0180572900999992000011106004+33000+114020FM-12+008399999V0203401N003010360019N0040001N1-00041-00161102331ADDAA106002091AY171061AY261061GF108991041071008001021999KA1999N-00051MD1710131+9999MW1701REMSYN082AAXX  11061 57290 11540 83403 11004 21016 40233 57013 60021 77076 8472/ 333 21005;
0132572900999992000011109004+33000+114020FM-12+008399999V0203401N003010360019N0070001N1-00061-00231102421ADDAY171031GF108991021071008001021999MD1210081+9999MW1701REMSYN066AAXX  11091 57290 41557 83403 11006 21023 40242 52008 77070 8272/;
0149572900999992000011112004+33000+114020FM-12+008399999V0203401N001019999999N0090001N1-00131-00241102601ADDAA106000891AY171061GF108991081001999999021999MD1210181+9999MW1701REMSYN072AAXX  11121 57290 11959 83401 11013 21024 40260 52018 69971 77070 8802/;
0180572900999992000011118004+33000+114020FM-12+008399999V0203401N003019999999N0100001N1-00261-00431102671ADDAA106000591AY171061AY271061GF108991081001999999021999KA1999M+00191MD1710061+9999MW1221REMSYN082AAXX  11181 57290 11960 83403 11026 21043 40267 57006 69951 72277 8802/ 333 10019;
0133572900999992000011121004+33000+114020FM-12+008399999V0203401N002019999999N0100001N1-00361-00521102561ADDAA124007491GF107991001001999999001021MD1710111+9999REMSYN070AAXX  11211 57290 42960 73402 11036 21052 40256 57011 80002 333 70073;
0163572900999992000011200004+33000+114020FM-12+008399999V0203401N001019999999N0100001N1-00361-00521102681ADDAA106000021GF108991081001999999021999IA2999-00379MD1210121+0401REMSYN088AAXX  12001 57290 32960 83401 11036 21052 40268 52012 8802/ 333 00454 31037 70031 92501;
0112572900999992000011203004+33000+114020FM-12+008399999V0203401N001019999999N0100001N1-00261-00431102751ADDGF108991081001999999021999MD1210071+9999REMSYN060AAXX  12031 57290 42960 83401 11026 21043 40275 52007 8802/;
0165572900999992000011206004+33000+114020FM-12+008399999V0203201N001019999999N0100001N1+00021-00261102461ADDAA106000091GF107991001001999999001021KA1999N-00421MD1710281+9999REMSYN070AAXX  12061 57290 32960 73201 10002 21026 40246 57028 80002 333 21042;EQDQ01  00002PRCP06
0112572900999992000011209004+33000+114020FM-12+008399999V0209999C000019999999N0100001N1+00061-00241102441ADDGF107991001001999999001021MD1710021+9999REMSYN060AAXX  12091 57290 42960 70000 10006 21024 40244 57002 80002;
0165572900999992000011218004+33000+114020FM-12+008399999V0200901N002019999999N0100001N1-00101-00311102481ADDAA106000091GF108991081001999999071999KA1999M+00141MD1710091+9999REMSYN070AAXX  12181 57290 32960 80902 11010 21031 40248 57009 8807/ 333 10014;EQDQ01  00002PRCP06
0112572900999992000011221004+33000+114020FM-12+008399999V0200401N002019999999N0100001N1-00121-00331102451ADDGF108991081001999999071999MD1710031+9999REMSYN060AAXX  12211 57290 42960 80402 11012 21033 40245 57003 8807/;
0170572900999992000011300004+33000+114020FM-12+008399999V0203601N002019999999N0100001N1-00171-00361102521ADDAA106000091GF108991081001999999021999IA2999+00009MD1210071-0201REMSYN076AAXX  13001 57290 32960 83602 11017 21036 40252 52007 8802/ 333 05202 31006;EQDQ01  00002PRCP06
0132572900999992000011303004+33000+114020FM-12+008399999V0200701N004019999999N0080001N1-00221-00381102631ADDAY171031GF108991081001999999021999MD1210111+9999MW1701REMSYN066AAXX  13031 57290 41958 80704 11022 21038 40263 52011 77070 8802/;
0172572900999992000011306004+33000+114020FM-12+008399999V0200401N004019999999N0060001N1-00251-00421102541ADDAA106000791AY171061GF108991081001999999021999KA1999N-00251MD1710091+9999MW1701REMSYN082AAXX  13061 57290 11956 80404 11025 21042 40254 57009 69901 77070 8802/ 333 21025;
0132572900999992000011309004+33000+114020FM-12+008399999V0200701N003019999999N0080001N1-00291-00511102501ADDAY171031GF108991081001999999021999MD1710041+9999MW1101REMSYN066AAXX  13091 57290 41958 80703 11029 21051 40250 57004 71070 8802/;
0149572900999992000011312004+33000+114020FM-12+008399999V0209999C000019999999N0100001N1-00271-00521102691ADDAA106000791AY171061GF108991081001999999021999MD1210191+9999MW1001REMSYN072AAXX  13121 57290 11960 80000 11027 21052 40269 52019 69901 70070 8802/;
0165572900999992000011318004+33000+114020FM-12+008399999V0200201N002019999999N0100001N1-00281-00531102661ADDAA106000091GF108991081001999999021999KA1999M-00091MD1710041+9999REMSYN070AAXX  13181 57290 32960 80202 11028 21053 40266 57004 8802/ 333 11009;EQDQ01  00002PRCP06
0137572900999992000011321004+33000+114020FM-12+008399999V0203601N001019999999N0100001N1-00251-00461102631ADDAA124000791GF108991081001999999021999MD1710031+9999REMSYN074    AAXX  13211 57290 42960 83601 11025 21046 40263 57003 8802/ 333 79999;
0161572900999992000011400004+33000+114020FM-12+008399999V0200201N002019999999N0100001N1-00251-00491102671ADDAA124000791GF108991081001999999021999IA2999-00159MD1210041+0101REMSYN086    AAXX  14001 57290 32960 80202 11025 21049 40267 52004 8802/ 333 00151 31015 79999;
0116572900999992000011403004+33000+114020FM-12+008399999V0200401N003019999999N0100001N1-00181-00411102731ADDGF108991081001999999021999MD1210061+9999REMSYN064    AAXX  14031 57290 42960 80403 11018 21041 40273 52006 8802/;
0168572900999992000011406004+33000+114020FM-12+008399999V0200401N004019999999N0100001N1-00101-00311102441ADDAA106000791GF108991081001999999021999KA1999N-00341MD1710291+9999MW1701REMSYN086    AAXX  14061 57290 11960 80404 11010 21031 40244 57029 69901 77000 8802/ 333 21034;
0136572900999992000011409004+33000+114020FM-12+008399999V0200401N003019999999N0100001N1-00051-00321102451ADDAY171031GF108991081001999999021999MD1210021+9999MW1001REMSYN070    AAXX  14091 57290 41960 80403 11005 21032 40245 52002 70070 8802/;
0153572900999992000011412004+33000+114020FM-12+008399999V0200401N004019999999N0100001N1-00071-00271102531ADDAA106000791AY171061GF108991081001999999021999MD1210071+9999MW1701REMSYN076    AAXX  14121 57290 11960 80404 11007 21027 40253 52007 69901 77070 8802/;
0184572900999992000011418004+33000+114020FM-12+008399999V0200201N002019999999N0060001N1-00211-00341102591ADDAA106007191AY171061AY271061GF108991081001999999021999KA1999M-00051MD1410001+9999MW1711REMSYN086    AAXX  14181 57290 11956 80202 11021 21034 40259 54000 60071 77177 8802/ 333 11005;
0165572900999992000011421004+33000+114020FM-12+008399999V0200201N002019999999N0060001N1-00281-00461102571ADDAA124008491AY171031AY271031GF108991081001999999021999MD1710021+9999MW1701REMSYN080    AAXX  14211 57290 41956 80202 11028 21046 40257 57002 77077 8802/ 333 70085;
0201572900999992000011500004+33000+114020FM-12+008399999V0203201N002019999999N0060001N1-00281-00421102601ADDAA106002091AY171061AY271061GF108991081001999999021999IA2999-00249MD1210031-0101MW1701REMSYN104    AAXX  15001 57290 11956 83202 11028 21042 40260 52003 60021 77077 8802/ 333 05100 31024 70093 92512;
0184572900999992000011506004+33000+114020FM-12+008399999V0203401N003019999999N0070001N1-00131-00351102601ADDAA106001091AY171061AY271061GF108991081001999999021999KA1999N-00311MD1710191+9999MW1701REMSYN086    AAXX  15061 57290 11957 83403 11013 21035 40260 57019 69991 77077 8802/ 333 21031;
0144572900999992000011509004+33000+114020FM-12+008399999V0203401N001019999999N0080001N1-00141-00291102631ADDAY171031AY271031GF108991081001999999021999MD1210031+9999MW1701REMSYN070    AAXX  15091 57290 41958 83401 11014 21029 40263 52003 77077 8802/;
0161572900999992000011512004+33000+114020FM-12+008399999V0203401N002019999999N0080001N1-00201-00361102771ADDAA106000791AY171061AY271061GF108991081001999999021999MD1210131+9999MW1701REMSYN076    AAXX  15121 57290 11958 83402 11020 21036 40277 52013 69901 77077 8802/;
0184572900999992000011518004+33000+114020FM-12+008399999V0203401N001019999999N0060001N1-00291-00431103001ADDAA106000191AY171061AY271061GF108991081001999999021999KA1999M-00101MD1210061+9999MW1701REMSYN086    AAXX  15181 57290 11956 83401 11029 21043 40300 52006 69921 77077 8802/ 333 11010;
0165572900999992000011521004+33000+114020FM-12+008399999V0203401N002019999999N0050001N1-00241-00371103031ADDAA124001891AY171031AY271031GF108991081001999999021999MD1210021+9999MW1701REMSYN080    AAXX  15211 57290 41950 83402 11024 21037 40303 52002 77077 8802/ 333 70019;
0201572900999992000011600004+33000+114020FM-12+008399999V0203201N002019999999N0060001N1-00271-00451103171ADDAA106000191AY171061AY271061GF108991081001999999021999IA2999-00309MD1210141+0601MW1711REMSYN104    AAXX  16001 57290 11956 83202 11027 21045 40317 52014 69911 77177 8802/ 333 00600 31030 70012 92509;
0144572900999992000011603004+33000+114020FM-12+008399999V0203201N003019999999N0070001N1-00181-00371103271ADDAY171031AY271031GF108991081001999999021999MD1210111+9999MW1701REMSYN070    AAXX  16031 57290 41957 83203 11018 21037 40327 52011 77077 8802/;
0184572900999992000011606004+33000+114020FM-12+008399999V0203401N002019999999N0070001N1-00121-00331103061ADDAA106000191AY171061AY271061GF108991081001999999021999KA1999N-00321MD1710211+9999MW1701REMSYN086    AAXX  16061 57290 11957 83402 11012 21033 40306 57021 69911 77077 8802/ 333 21032;
0136572900999992000011609004+33000+114020FM-12+008399999V0203401N002019999999N0070001N1-00061-00331103041ADDAY171031GF108991081001999999021999MD1710021+9999MW1101REMSYN070    AAXX  16091 57290 41957 83402 11006 21033 40304 57002 71070 8802/;
0153572900999992000011612004+33000+114020FM-12+008399999V0203401N001019999999N0080001N1-00151-00411103161ADDAA106000791AY171061GF108991081001999999021999MD1210121+9999MW1101REMSYN076    AAXX  16121 57290 11958 83401 11015 21041 40316 52012 69901 71070 8802/;
0162572900999992000011618004+33000+114020FM-12+008399999V0202701N002019999999N0090001N1-00521-00661103171ADDAA199000021GF107991001001999999001021KA1999M-00041MD1710071+9999MW1101REMSYN080    AAXX  16181 57290 31959 72702 11052 21066 40317 57007 71000 80002 333 11004;
0132572900999992000011621004+33000+114020FM-12+008399999V0202701N002019999999N0090001N1+99999+99999103131ADDGF108991081001999999021999MD1710031+9999MW1101REMSYN074    AAXX  16211 57290 41959 82702 12040 21060 40313 57003 71000 8802/ 333;
0161572900999992000011700004+33000+114020FM-12+008399999V0209999C000019999999N0070001N1-00341-00491103131ADDAA124000191GF108991081001999999021999MD1710011+0001MW1101REMSYN092    AAXX  17001 57290 31957 80000 11034 21049 40313 57001 71000 8802/ 333 00051 70001 92506;
0128572900999992000011703004+33000+114020FM-12+008399999V0200401N001019999999N0090001N1-00121-00411103121ADDGF107991071001999999031999MD1410001+9999MW1101REMSYN070    AAXX  17031 57290 41959 70401 11012 21041 40312 54000 71000 8703/;
0181572900999992000011706004+33000+114020FM-12+008399999V0209999C000019999999N0070001N1+00101-00291102931ADDAA199000091GF108991081001999999071999KA1999N-00601MD1710191+9999MW1101REMSYN080    AAXX  17061 57290 31957 80000 10010 21029 40293 57019 71000 8807/ 333 21060;EQDQ01  00002PRCP99
0128572900999992000011709004+33000+114020FM-12+008399999V0201401N002012200019N0070001N1+00041-00331102831ADDGF104991001001999999001021MD1710101+9999MW1101REMSYN070    AAXX  17091 57290 41957 41402 10004 21033 40283 57010 71000 80002;
0158572900999992000011712004+33000+114020FM-12+008399999V0209999C000019999999N0060001N1-00091-00281102931ADDAA199000091GF107991001001999999001021MD1210101+9999MW1101REMSYN070    AAXX  17121 57290 31956 70000 11009 21028 40293 52010 71000 80002;EQDQ01  00002PRCP99
0191572900999992000011718004+33000+114020FM-12+008399999V0202201N003012200019N0050001N1-00171-00331102901ADDAA199000091GA1001+999999999GF100991001001999999001001KA1999M+00121MD1710051+9999MW1101REMSYN074    AAXX  17181 57290 31950 02203 11017 21033 40290 57005 71000 333 10012;EQDQ01  00002PRCP99
0138572900999992000011721004+33000+114020FM-12+008399999V0202501N003012200019N0070001N1-00071-00271102791ADDGA1001+999999999GF100991001001999999001001MD1710111+9999MW1101REMSYN064    AAXX  17211 57290 41957 02503 11007 21027 40279 57011 71000;
0178572900999992000011800004+33000+114020FM-12+008399999V0202701N003012200019N0050001N1-00101-00241102841ADDAA199000091GA1001+999999999GF100991001001999999001001MD1210051+0031MW1101REMSYN074    AAXX  18001 57290 31950 02703 11010 21024 40284 52005 71000 333 05302;EQDQ01  00002PRCP99
0138572900999992000011803004+33000+114020FM-12+008399999V0202701N004012200019N0080001N1+00051-00131102941ADDGA1001+999999999GF100991001001999999001001MD1210101+9999MW1101REMSYN064    AAXX  18031 57290 41958 02704 10005 21013 40294 52010 71000;
0179572900999992000011806004+33000+114020FM-12+008399999V0202901N004012200019N0100001N1+00411-00081102781ADDAA199000091GA1001+999999999GF100991001001999999001001KA1999N-00271MD1710161+9999REMSYN068    AAXX  18061 57290 32960 02904 10041 21008 40278 57016 333 21027;EQDQ01  00002PRCP99
0116572900999992000011809004+33000+114020FM-12+008399999V0203201N004012200019N0100001N1+00611-00661102831ADDGF101991001001999999001011MD1210061+9999REMSYN064    AAXX  18091 57290 42960 13204 10061 21066 40283 52006 80001;
0156572900999992000011812004+33000+114020FM-12+008399999V0203401N004012200019N0100001N1+00311-00661102991ADDAA199000091GA1001+999999999GF100991001001999999001001MD1210151+9999REMSYN058    AAXX  18121 57290 32960 03404 10031 21066 40299 52015;EQDQ01  00002PRCP99
0179572900999992000011818004+33000+114020FM-12+008399999V0203201N002012200019N0100001N1-00121-00681103241ADDAA199000091GA1001+999999999GF100991001001999999001001KA1999M+00661MD1210061+9999REMSYN068    AAXX  18181 57290 32960 03202 11012 21068 40324 52006 333 10066;EQDQ01  00002PRCP99
0126572900999992000011821004+33000+114020FM-12+008399999V0203401N002012200019N0100001N1-00331-00851103361ADDGA1001+999999999GF100991001001999999001001MD1210131+9999REMSYN058    AAXX  18211 57290 42960 03402 11033 21085 40336 52013;
0166572900999992000011900004+33000+114020FM-12+008399999V0203201N002012200019N0100001N1-00501-00851103591ADDAA199000091GA1001+999999999GF100991001001999999001001MD1210211+0071REMSYN068    AAXX  19001 57290 32960 03202 11050 21085 40359 52021 333 00754;EQDQ01  00002PRCP99
0126572900999992000011903004+33000+114020FM-12+008399999V0200901N002012200019N0100001N1-00051-01061103631ADDGA1001+999999999GF100991001001999999001001MD1210051+9999REMSYN058    AAXX  19031 57290 42960 00902 11005 21106 40363 52005;
0179572900999992000011906004+33000+114020FM-12+008399999V0201801N003012200019N0100001N1+00281-01031103301ADDAA199000091GA1001+999999999GF100991001001999999001001KA1999N-00511MD1710321+9999REMSYN068    AAXX  19061 57290 32960 01803 10028 21103 40330 57032 333 21051;EQDQ01  00002PRCP99
0126572900999992000011909004+33000+114020FM-12+008399999V0201401N002012200019N0100001N1+00201-00861103151ADDGA1001+999999999GF100991001001999999001001MD1710161+9999REMSYN058    AAXX  19091 57290 42960 01402 10020 21086 40315 57016;
0146572900999992000011912004+33000+114020FM-12+008399999V0201401N003012200019N0100001N1+00021-00881103151ADDAA199000091GF101991001001999999001011MD1410001+9999REMSYN064    AAXX  19121 57290 32960 11403 10002 21088 40315 54000 80001;EQDQ01  00002PRCP99
0175572900999992000011918004+33000+114020FM-12+008399999V0201401N003012200019N0100001N1-00081-00761103201ADDAA199000091GA1001+999999999GF100991001001999999001001KA1999M+00301MD1710011+9999REMSYN064AAXX  19181 57290 32960 01403 11008 21076 40320 57001 333 10030;EQDQ01  00002PRCP99
0122572900999992000011921004+33000+114020FM-12+008399999V0201401N003012200019N0100001N1-00171-00761103231ADDGA1001+999999999GF100991001001999999001001MD1210021+9999REMSYN054AAXX  19211 57290 42960 01403 11017 21076 40323 52002;
0170572900999992000012000004+33000+114020FM-12+008399999V0201401N003012200019N0100001N1-00221-00831103411ADDAA199000091GF102991021001999999041001IA2999-00409MD1210171-0201REMSYN076AAXX  20001 57290 32960 21403 11022 21083 40341 52017 82040 333 05203 31040;EQDQ01  00002PRCP99
0122572900999992000012003004+33000+114020FM-12+008399999V0201101N002012200019N0120001N1+00131-00481103531ADDGA1001+999999999GF100991001001999999001001MD1210131+9999REMSYN054AAXX  20031 57290 42962 01102 10013 21048 40353 52013;
0165572900999992000012006004+33000+114020FM-12+008399999V0200701N004019999999N0100001N1+00351-00331103421ADDAA199000091GF105991001001999999001011KA1999N-00341MD1710111+9999REMSYN070AAXX  20061 57290 32960 50704 10035 21033 40342 57011 80001 333 21034;EQDQ01  00002PRCP99
0112572900999992000012009004+33000+114020FM-12+008399999V0200701N003019999999N0100001N1+00351-00261103421ADDGF107991001001999999001011MD1210011+9999REMSYN060AAXX  20091 57290 42960 70703 10035 21026 40342 52001 80001;
0142572900999992000012012004+33000+114020FM-12+008399999V0200701N002019999999N0100001N1+00061-00311103531ADDAA199000091GF106991001001999999001011MD1210101+9999REMSYN060AAXX  20121 57290 32960 60702 10006 21031 40353 52010 80001;EQDQ01  00002PRCP99
0165572900999992000012018004+33000+114020FM-12+008399999V0203601N001019999999N0100001N1-00161-00461103641ADDAA199000091GF107991071001999999031999KA1999M+00371MD1210021+9999REMSYN070AAXX  20181 57290 32960 73601 11016 21046 40364 52002 8703/ 333 10037;EQDQ01  00002PRCP99
0112572900999992000012021004+33000+114020FM-12+008399999V0200201N002019999999N0100001N1-00171-00551103541ADDGF107991071001999999031999MD1710091+9999REMSYN060AAXX  20211 57290 42960 70202 11017 21055 40354 57009 8703/;
0170572900999992000012100004+33000+114020FM-12+008399999V0203201N001019999999N0100001N1-00251-00461103611ADDAA199000091GF108991081001999999071999IA2999-00209MD1210061+0201REMSYN076AAXX  21001 57290 32960 83201 11025 21046 40361 52006 8807/ 333 00200 31022;EQDQ01  00002PRCP99
0112572900999992000012103004+33000+114020FM-12+008399999V0200401N002019999999N0100001N1-00061-00561103611ADDGF108991081001999999071999MD1410001+9999REMSYN060AAXX  21031 57290 42960 80402 11006 21056 40361 54000 8807/;
0164572900999992000012106004+33000+114020FM-12+008399999V0200701N004019999999N0100001N1-00051-00501103241ADDAA106000791GF108991081001999999021999KA1999N-00281MD1710371+9999MW1701REMSYN082AAXX  21061 57290 11960 80704 11005 21050 40324 57037 69901 77000 8802/ 333 21028;
0140572900999992000012109004+33000+114020FM-12+008399999V0203601N001019999999N0090001N1-00101-00311103171ADDAY171031AY271031GF108991081001999999021999MD1710071+9999MW1701REMSYN066AAXX  21091 57290 41959 83601 11010 21031 40317 57007 77077 8802/;
0157572900999992000012112004+33000+114020FM-12+008399999V0203201N002019999999N0080001N1-00121-00301103191ADDAA106002091AY171061AY271061GF108991081001999999021999MD1210021+9999MW1701REMSYN072AAXX  21121 57290 11958 83202 11012 21030 40319 52002 60021 77077 8802/;
0172572900999992000012118004+33000+114020FM-12+008399999V0203201N004019999999N0090001N1-00251-00421103101ADDAA106000191AY171061GF108991081001999999021999KA1999M+00031MD1710051+9999MW1101REMSYN082AAXX  21181 57290 11959 83204 11025 21042 40310 57005 69921 71070 8802/ 333 10003;
0145572900999992000012121004+33000+114020FM-12+008399999V0203201N003019999999N0060001N1-00261-00401102971ADDAA124001891GF108991081001999999021999MD1710131+9999MW1101REMSYN076AAXX  21211 57290 41956 83203 11026 21040 40297 57013 71000 8802/ 333 70017;
0175572900999992000012200004+33000+114020FM-12+008399999V0203201N003019999999N0070001N1-00261-00431102931ADDAA124001891GF108991081001999999021999IA2999-00109MD1710041-0701MW1101REMSYN094AAXX  22001 57290 31957 83203 11026 21043 40293 57004 71000 8802/ 333 05700 31010 70017 92501;
0112572900999992000012203004+33000+114020FM-12+008399999V0203201N003012200019N0100001N1-00101-00491102941ADDGF104991001001999999001011MD1210011+9999REMSYN060AAXX  22031 57290 42960 43203 11010 21049 40294 52001 80001;
0165572900999992000012206004+33000+114020FM-12+008399999V0202901N002012200019N0100001N1+00161-00321102631ADDAA199000091GF104991001001999999001021KA1999N-00281MD1710301+9999REMSYN070AAXX  22061 57290 32960 42902 10016 21032 40263 57030 80002 333 21028;EQDQ01  00002PRCP99
0112572900999992000012209004+33000+114020FM-12+008399999V0209999C000019999999N0100001N1+00211-00371102621ADDGF108991081001999999071999MD1710011+9999REMSYN060AAXX  22091 57290 42960 80000 10021 21037 40262 57001 8807/;
0142572900999992000012212004+33000+114020FM-12+008399999V0200901N001019999999N0100001N1+00011-00261102701ADDAA199000091GF105991051001999999041001MD1210081+9999REMSYN060AAXX  22121 57290 32960 50901 10001 21026 40270 52008 85040;EQDQ01  00002PRCP99
0187572900999992000012218004+33000+114020FM-12+008399999V0200901N001012200019N0080001N1-00021-00201102711ADDAA199000091GA1001+999999999GF100991001001999999001001KA1999M+00251MD1710071+9999MW1101REMSYN070AAXX  22181 57290 31958 00901 11002 21020 40271 57007 71000 333 10025;EQDQ01  00002PRCP99
0134572900999992000012221004+33000+114020FM-12+008399999V0209999C000012200019N0090001N1-00131-00291102721ADDGA1001+999999999GF100991001001999999001001MD1210011+9999MW1101REMSYN060AAXX  22211 57290 41959 00000 11013 21029 40272 52001 71000;
0182572900999992000012300004+33000+114020FM-12+008399999V0209999C000019999999N0040001N1-00081-00201102871ADDAA199000091GF108991081001999999021999IA2999-00109MD1210141-0101MW1101REMSYN082AAXX  23001 57290 31940 80000 11008 21020 40287 52014 71000 8802/ 333 05102 31010;EQDQ01  00002PRCP99
0132572900999992000012303004+33000+114020FM-12+008399999V0200701N002019999999N0040001N1-00021-00141103051ADDAY141031GF108991081001999999021999MD1210191+9999MW1281REMSYN066AAXX  23031 57290 41940 80702 11002 21014 40305 52019 72840 8802/;
0185572900999992000012306004+33000+114020FM-12+008399999V0200201N002010360019N0070001N1+00001-00241102921ADDAA199000091AY141061GF108991031071008001021999KA1999N-00221MD1710131+9999MW1101REMSYN076AAXX  23061 57290 31557 80202 10000 21024 40292 57013 71040 8372/ 333 21022;EQDQ01  00002PRCP99
0132572900999992000012309004+33000+114020FM-12+008399999V0200401N003019999999N0070001N1-00061-00291102991ADDAY171031GF108991081001999999021999MD1210071+9999MW1701REMSYN066AAXX  23091 57290 41957 80403 11006 21029 40299 52007 77070 8802/;
0149572900999992000012312004+33000+114020FM-12+008399999V0200201N004019999999N0070001N1-00131-00351103231ADDAA106000791AY171061GF108991081001999999021999MD1210231+9999MW1701REMSYN072AAXX  23121 57290 11957 80204 11013 21035 40323 52023 69901 77070 8802/;
0172572900999992000012318004+33000+114020FM-12+008399999V0203601N004019999999N0080001N1-00261-00431103481ADDAA106000191AY171061GF108991081001999999021999KA1999M+00051MD1210051+9999MW1701REMSYN082AAXX  23181 57290 11958 83604 11026 21043 40348 52005 69921 77070 8802/ 333 10005;
0161572900999992000012321004+33000+114020FM-12+008399999V0203601N004019999999N0070001N1-00341-00531103541ADDAA124001091AY171031AY271031GF108991081001999999021999MD1210061+9999MW1701REMSYN076AAXX  23211 57290 41957 83604 11034 21053 40354 52006 77077 8802/ 333 70010;
0197572900999992000012400004+33000+114020FM-12+008399999V0200201N002019999999N0060001N1-00361-00481103831ADDAA106004191AY171061AY271061GF108991081001999999021999IA2999-00079MD1210281+1001MW1711REMSYN100AAXX  24001 57290 11956 80202 11036 21048 40383 52028 60041 77177 8802/ 333 01053 31007 70038 92504;
0140572900999992000012403004+33000+114020FM-12+008399999V0200401N004019999999N0060001N1-00341-00531104061ADDAY171031AY271031GF108991081001999999021999MD1210231+9999MW1711REMSYN066AAXX  24031 57290 41956 80404 11034 21053 40406 52023 77177 8802/;
0180572900999992000012406004+33000+114020FM-12+008399999V0200201N004010360019N0080001N1-00281-00651104001ADDAA106002091AY171061AY271061GF108991021071008001021999KA1999N-00381MD1710071+9999MW1701REMSYN082AAXX  24061 57290 11558 80204 11028 21065 40400 57007 60021 77077 8272/ 333 21038;
0140572900999992000012409004+33000+114020FM-12+008399999V0203601N002019999999N0080001N1-00351-00581104121ADDAY171031AY271031GF108991081001999999021999MD1210121+9999MW1711REMSYN066AAXX  24091 57290 41958 83602 11035 21058 40412 52012 77177 8802/;
0157572900999992000012412004+33000+114020FM-12+008399999V0200401N003019999999N0080001N1-00361-00851104341ADDAA106000591AY171061AY271061GF108991081001999999021999MD1210211+9999MW1221REMSYN072AAXX  24121 57290 11958 80403 11036 21085 40434 52021 69961 72277 8802/;
0182572900999992000012418004+33000+114020FM-12+008399999V0203401N001012200019N0100001N1-00941-01211104481ADDAA106000191AY171061GA1001+999999999GF100991001001999999001001KA1999M-00241MD1210021+9999MW1001REMSYN076AAXX  24181 57290 11960 03401 11094 21121 40448 52002 69911 70070 333 11024;
0143572900999992000012421004+33000+114020FM-12+008399999V0203201N001012200019N0100001N1-01081-01271999999ADDAA124005191GA1001+999999999GF100991001001999999001001MD1710071+9999REMSYN064AAXX  24211 57290 42960 03201 11108 21127 40//3 57007 333 70052;
0155572900999992000012500004+33000+114020FM-12+008399999V0202501N001012200019N0100001N1-01091-01281104501ADDAA124002391GA1001+999999999GF100991001001999999001001MD1210081+0601REMSYN076AAXX  25001 57290 32960 02501 11109 21128 40450 52008 333 00657 70024 92506;
0122572900999992000012503004+33000+114020FM-12+008399999V0203201N002012200019N0100001N1-00621-00961104561ADDGA1001+999999999GF100991001001999999001001MD1210061+9999REMSYN054AAXX  25031 57290 42960 03202 11062 21096 40456 52006;
0165572900999992000012506004+33000+114020FM-12+008399999V0200401N002012200019N0100001N1-00381-01031104281ADDAA199000091GF104991001001999999001021KA1999N-01171MD1710281+9999REMSYN070AAXX  25061 57290 32960 40402 11038 21103 40428 57028 80002 333 21117;EQDQ01  00002PRCP99
0112572900999992000012509004+33000+114020FM-12+008399999V0203201N001019999999N0100001N1-00351-00981104221ADDGF107991001001999999001021MD1710061+9999REMSYN060AAXX  25091 57290 42960 73201 11035 21098 40422 57006 80002;
0142572900999992000012512004+33000+114020FM-12+008399999V0202201N001019999999N0100001N1-00431-00901104301ADDAA199000091GF106991001001999999001021MD1210091+9999REMSYN060AAXX  25121 57290 32960 62201 11043 21090 40430 52009 80002;EQDQ01  00002PRCP99
0175572900999992000012518004+33000+114020FM-12+008399999V0209999C000012200019N9999999N1-00761-00951104331ADDAA199000091GA1001+999999999GF100991001001999999001001KA1999M-00321MD1710061+9999REMSYN064AAXX  25181 57290 3296/ 00000 11076 21095 40433 57006 333 11032;EQDQ01  00002PRCP99
0122572900999992000012521004+33000+114020FM-12+008399999V0209999C000012200019N0100001N1-00901-01061104311ADDGA1001+999999999GF100991001001999999001001MD1710021+9999REMSYN054AAXX  25211 57290 42960 00000 11090 21106 40431 57002;
0168572900999992000012600004+33000+114020FM-12+008399999V0209999C000012200019N0100001N1-00931-01091104371ADDAA199000091GA1001+999999999GF100991001001999999001001MD1210051-0101REMSYN070AAXX  26001 57290 32960 00000 11093 21109 40437 52005 333 05102 92501;EQDQ01  00002PRCP99
0122572900999992000012603004+33000+114020FM-12+008399999V0200401N002012200019N0100001N1-00351-00791104461ADDGA1001+999999999GF100991001001999999001001MD1210101+9999REMSYN054AAXX  26031 57290 42960 00402 11035 21079 40446 52010;
0175572900999992000012606004+33000+114020FM-12+008399999V0200701N002012200019N0100001N1-00131-00891104261ADDAA199000091GA1001+999999999GF100991001001999999001001KA1999N-00971MD1710201+9999REMSYN064AAXX  26061 57290 32960 00702 11013 21089 40426 57020 333 21097;EQDQ01  00002PRCP99
0122572900999992000012609004+33000+114020FM-12+008399999V0200901N002012200019N0100001N1-00211-00921104231ADDGA1001+999999999GF100991001001999999001001MD1710031+9999REMSYN054AAXX  26091 57290 42960 00902 11021 21092 40423 57003;
0152572900999992000012612004+33000+114020FM-12+008399999V0209999C000012200019N0100001N1-00521-00841104281ADDAA199000091GA1001+999999999GF100991001001999999001001MD1210041+9999REMSYN054AAXX  26121 57290 32960 00000 11052 21084 40428 52004;EQDQ01  00002PRCP99
0175572900999992000012618004+33000+114020FM-12+008399999V0209999C000012200019N0100001N1-00811-00961104241ADDAA199000091GA1001+999999999GF100991001001999999001001KA1999M-00071MD1710021+9999REMSYN064AAXX  26181 57290 32960 00000 11081 21096 40424 57002 333 11007;EQDQ01  00002PRCP99
0122572900999992000012621004+33000+114020FM-12+008399999V0202701N001012200019N0100001N1-00881-01091104221ADDGA1001+999999999GF100991001001999999001001MD1710031+9999REMSYN054AAXX  26211 57290 42960 02701 11088 21109 40422 57003;
0168572900999992000012700004+33000+114020FM-12+008399999V0209999C000012200019N0100001N1-01001-01171104241ADDAA199000091GA1001+999999999GF100991001001999999001001MD1210021-0101REMSYN070AAXX  27001 57290 32960 00000 11100 21117 40424 52002 333 05151 92501;EQDQ01  00002PRCP99
0122572900999992000012703004+33000+114020FM-12+008399999V0200901N002012200019N0100001N1-00221-00931104281ADDGA1001+999999999GF100991001001999999001001MD1210041+9999REMSYN054AAXX  27031 57290 42960 00902 11022 21093 40428 52004;
0175572900999992000012706004+33000+114020FM-12+008399999V0200901N002012200019N0100001N1-00071-01231103991ADDAA199000091GA1001+999999999GF100991001001999999001001KA1999N-01021MD1710291+9999REMSYN064AAXX  27061 57290 32960 00902 11007 21123 40399 57029 333 21102;EQDQ01  00002PRCP99
0122572900999992000012709004+33000+114020FM-12+008399999V0200701N003012200019N0100001N1-00091-01141103861ADDGA1001+999999999GF100991001001999999001001MD1710121+9999REMSYN054AAXX  27091 57290 42960 00703 11009 21114 40386 57012;
0152572900999992000012712004+33000+114020FM-12+008399999V0201601N003012200019N0120001N1-00271-01121103851ADDAA199000091GA1001+999999999GF100991001001999999001001MD1710011+9999REMSYN054AAXX  27121 57290 32962 01603 11027 21112 40385 57001;EQDQ01  00002PRCP99
0175572900999992000012718004+33000+114020FM-12+008399999V0209999C000012200019N0100001N1-00471-01111103741ADDAA199000091GA1001+999999999GF100991001001999999001001KA1999M+00031MD1710071+9999REMSYN064AAXX  27181 57290 32960 00000 11047 21111 40374 57007 333 10003;EQDQ01  00002PRCP99
0112572900999992000012721004+33000+114020FM-12+008399999V0201401N002019999999N0100001N1-00431-01051103511ADDGF107991071001999999041999MD1710231+9999REMSYN060AAXX  27211 57290 42960 71402 11043 21105 40351 57023 8704/;
0158572900999992000012800004+33000+114020FM-12+008399999V0201601N002019999999N0100001N1-00381-01131103531ADDAA199000091GF107991071001999999031999MD1210021-0701REMSYN076AAXX  28001 57290 32960 71602 11038 21113 40353 52002 8703/ 333 05706 92500;EQDQ01  00002PRCP99
0112572900999992000012803004+33000+114020FM-12+008399999V0201801N003019999999N0100001N1-00111-01011103561ADDGF107991001001999999001021MD1210031+9999REMSYN060AAXX  28031 57290 42960 71803 11011 21101 40356 52003 80002;
0165572900999992000012806004+33000+114020FM-12+008399999V0201101N002019999999N0100001N1+00201-01031103241ADDAA199000091GF107991001001999999001021KA1999N-00571MD1710311+9999REMSYN070AAXX  28061 57290 32960 71102 10020 21103 40324 57031 80002 333 21057;EQDQ01  00002PRCP99
0112572900999992000012809004+33000+114020FM-12+008399999V0200901N002019999999N0100001N1+00071-00751103231ADDGF107991071001999999031999MD1710021+9999REMSYN060AAXX  28091 57290 42960 70902 10007 21075 40323 57002 8703/;
0142572900999992000012812004+33000+114020FM-12+008399999V0201101N002019999999N0100001N1-00031-00601103281ADDAA199000091GF107991001001999999001021MD1210051+9999REMSYN060AAXX  28121 57290 32960 71102 11003 21060 40328 52005 80002;EQDQ01  00002PRCP99
0165572900999992000012818004+33000+114020FM-12+008399999V0209999C000019999999N0100001N1-00121-00411103281ADDAA199000091GF108991081001999999071999KA1999M+00221MD1710031+9999REMSYN070AAXX  28181 57290 32960 80000 11012 21041 40328 57003 8807/ 333 10022;EQDQ01  00002PRCP99
0112572900999992000012821004+33000+114020FM-12+008399999V0202701N003019999999N0100001N1-00011-00531103321ADDGF108991081001999999071999MD1210031+9999REMSYN060AAXX  28211 57290 42960 82703 11001 21053 40332 52003 8807/;
0170572900999992000012900004+33000+114020FM-12+008399999V0203201N002019999999N0100001N1-00061-00481103491ADDAA199000091GF107991071001999999031999IA2999-00109MD1210171+0001REMSYN076AAXX  29001 57290 32960 73202 11006 21048 40349 52017 8703/ 333 00003 31011;EQDQ01  00002PRCP99
0122572900999992000012903004+33000+114020FM-12+008399999V0203201N006012200019N0100001N1+00251-00911103711ADDGA1001+999999999GF100991001001999999001001MD1210231+9999REMSYN054AAXX  29031 57290 42960 03206 10025 21091 40371 52023;
0175572900999992000012906004+33000+114020FM-12+008399999V0203201N004012200019N0120001N1+00581-00631103621ADDAA199000091GA1001+999999999GF100991001001999999001001KA1999N-00201MD1710091+9999REMSYN064AAXX  29061 57290 32962 03204 10058 21063 40362 57009 333 21020;EQDQ01  00002PRCP99
0112572900999992000012909004+33000+114020FM-12+008399999V0200201N003012200019N0100001N1+00401-00751103741ADDGF104991041001999999041001MD1210121+9999REMSYN060AAXX  29091 57290 42960 40203 10040 21075 40374 52012 84040;
0152572900999992000012912004+33000+114020FM-12+008399999V0203401N002012200019N0100001N1+00081-00581104071ADDAA199000091GA1001+999999999GF100991001001999999001001MD1210311+9999REMSYN054AAXX  29121 57290 32960 03402 10008 21058 40407 52031;EQDQ01  00002PRCP99
0175572900999992000012918004+33000+114020FM-12+008399999V0202901N001012200019N0100001N1-00191-00891104341ADDAA199000091GA1001+999999999GF100991001001999999001001KA1999M+00631MD1210071+9999REMSYN064AAXX  29181 57290 32960 02901 11019 21089 40434 52007 333 10063;EQDQ01  00002PRCP99
0116572900999992000012921004+33000+114020FM-12+008399999V0203201N003012200019N0100001N1-00351-01091999999ADDGA1001+999999999GF100991001001999999001001MD1210091+9999REMSYN048AAXX  29211 57290 42960 03203 11035 21109 52009;
0170572900999992000013000004+33000+114020FM-12+008399999V0203401N002012200019N0100001N1-00481-01131104711ADDAA199000091GF102991001001999999001021IA2999-00309MD1210261+1201REMSYN076AAXX  30001 57290 32960 23402 11048 21113 40471 52026 80002 333 01254 31030;EQDQ01  00002PRCP99
0112572900999992000013003004+33000+114020FM-12+008399999V0200401N003019999999N0100001N1-00101-00901104771ADDGF107991001001999999001021MD1210061+9999REMSYN060AAXX  30031 57290 42960 70403 11010 21090 40477 52006 80002;
0175572900999992000013006004+33000+114020FM-12+008399999V0200201N002012200019N0120001N1+00061-00931104531ADDAA199000091GA1001+999999999GF100991001001999999001001KA1999N-00521MD1710231+9999REMSYN064AAXX  30061 57290 32962 00202 10006 21093 40453 57023 333 21052;EQDQ01  00002PRCP99
0097572900999992000013009004+33000+114020FM-12+008399999V0200401N003012200019N0100001N1+00081-01001104491ADDGF102991999999999999999999REMSYN059AAXX  30091 57290 42960 20403 10008 21100 40449 5005 82040;
0142572900999992000013012004+33000+114020FM-12+008399999V0200401N002012200019N0100001N1-00081-00961104621ADDAA199000091GF104991041001999999041001MD1210131+9999REMSYN060AAXX  30121 57290 32960 40402 11008 21096 40462 52013 84040;EQDQ01  00002PRCP99
0165572900999992000013018004+33000+114020FM-12+008399999V0200901N004019999999N9999999N1-00201-00861104661ADDAA199000091GF108991081001012501071999KA1999M+00131MD1710041+9999REMSYN070AAXX  30181 57290 3/60/ 80904 11020 21086 40466 57004 8807/ 333 10013;EQDQ01  00002PRCP99
0112572900999992000013021004+33000+114020FM-12+008399999V0200201N001019999999N0100001N1-00241+99999104651ADDGF108991081001999999071999MD1710021+9999REMSYN060AAXX  30211 57290 42960 80201 11024 20//5 40465 57002 8807/;
0170572900999992000013100004+33000+114020FM-12+008399999V0200401N002019999999N0100001N1-00331-01011104681ADDAA199000091GF107991071001999999031999IA2999-00109MD1210031+0001REMSYN076AAXX  31001 57290 32960 70402 11033 21101 40468 52003 8703/ 333 00002 31013;EQDQ01  00002PRCP99
0112572900999992000013103004+33000+114020FM-12+008399999V0200701N005019999999N0100001N1-00241-01081104711ADDGF107991071001999999031999MD1210031+9999REMSYN060AAXX  31031 57290 42960 70705 11024 21108 40471 52003 8703/;
0165572900999992000013106004+33000+114020FM-12+008399999V0200901N003019999999N0100001N1-00161-00991104391ADDAA199000091GF107991001001999999001021KA1999N-00331MD1710321+9999REMSYN070AAXX  31061 57290 32960 70903 11016 21099 40439 57032 80002 333 21033;EQDQ01  00002PRCP99
0112572900999992000013109004+33000+114020FM-12+008399999V0200701N004019999999N0100001N1-00161-01051104301ADDGF107991071001999999031999MD1710081+9999REMSYN060AAXX  31091 57290 42960 70704 11016 21105 40430 57008 8703/;
0142572900999992000013112004+33000+114020FM-12+008399999V0200901N002012200019N0100001N1-00241-01071104331ADDAA199000091GF104991001001999999001021MD1210021+9999REMSYN060AAXX  31121 57290 32960 40902 11024 21107 40433 52002 80002;EQDQ01  00002PRCP99
0175572900999992000013118004+33000+114020FM-12+008399999V0200401N002012200019N0100001N1-00501-01081104161ADDAA199000091GA1001+999999999GF100991001001999999001001KA1999M-00121MD1710141+9999REMSYN064AAXX  31181 57290 32960 00402 1105/ 21108 40416 57014 333 11012;EQDQ01  00002PRCP99
0122572900999992000013121004+33000+114020FM-12+008399999V0209999C000012200019N0100001N1-00701-01021104101ADDGA1001+999999999GF100991001001999999001001MD1710061+9999REMSYN054AAXX  31211 57290 42960 00000 11070 21102 40410 57006;
0180572900999992000020100004+33000+114020FM-12+008399999V0201101N002012200019N0100001N1-00631-01241104031ADDAA199000091GA1001+999999999GF100991001001999999001001IA2999-00509MD1710081-0701REMSYN070AAXX  01001 57290 32960 01102 11063 21124 40403 57008 333 05753 31050;EQDQ01  00002PRCP99
0122572900999992000020103004+33000+114020FM-12+008399999V0201601N002012200019N0120001N1-00241-00911104011ADDGA1001+999999999GF100991001001999999001001MD1410001+9999REMSYN054AAXX  01031 57290 42962 01602 11024 21091 40401 54000;
0175572900999992000020106004+33000+114020FM-12+008399999V0201101N004012200019N0120001N1+00031-01031103571ADDAA199000091GA1001+999999999GF100991001001999999001001KA1999N-00721MD1710441+9999REMSYN064AAXX  01061 57290 32962 01104 10003 21103 40357 57044 333 21072;EQDQ01  00002PRCP99
0122572900999992000020109004+33000+114020FM-12+008399999V0201401N004012200019N0120001N1+00001-00971103401ADDGA1001+999999999GF100991001001999999001001MD1710171+9999REMSYN054AAXX  01091 57290 42962 01404 10000 21097 40340 57017;
0152572900999992000020112004+33000+114020FM-12+008399999V0201401N003012200019N0120001N1-00141-00901103461ADDAA199000091GA1001+999999999GF100991001001999999001001MD1210061+9999REMSYN054AAXX  01121 57290 32962 01403 11014 21090 40346 52006;EQDQ01  00002PRCP99
0165572900999992000020118004+33000+114020FM-12+008399999V0201601N002012200019N0120001N1-00341-00821103341ADDAA199000091GF102991001001999999001021KA1999M+00111MD1710061+9999REMSYN070AAXX  01181 57290 32962 21602 11034 21082 40334 57006 80002 333 10011;EQDQ01  00002PRCP99
0122572900999992000020121004+33000+114020FM-12+008399999V0209999C000012200019N0120001N1-00371-00821103261ADDGA1001+999999999GF100991001001999999001001MD1710071+9999REMSYN054AAXX  01211 57290 42962 00000 11037 21082 40326 57007;
0170572900999992000020200004+33000+114020FM-12+008399999V0209999C000012200019N0120001N1-00341-00731103301ADDAA199000091GF104991041001999999041001IA2999-00209MD1210031-0701REMSYN076AAXX  02001 57290 32962 40000 11034 21073 40330 52003 84040 333 05703 31026;EQDQ01  00002PRCP99
0122572900999992000020203004+33000+114020FM-12+008399999V0209999C000012200019N0120001N1+00061-00551103351ADDGA1001+999999999GF100991001001999999001001MD1210061+9999REMSYN054AAXX  02031 57290 42962 00000 10006 21055 40335 52006;
0165572900999992000020206004+33000+114020FM-12+008399999V0203601N001012200019N0120001N1+00281-00541103091ADDAA199000091GF104991001001999999001021KA1999N-00501MD1710251+9999REMSYN070AAXX  02061 57290 32962 43601 10028 21054 40309 57025 80002 333 21050;EQDQ01  00002PRCP99
0112572900999992000020209004+33000+114020FM-12+008399999V0200901N002012200019N0120001N1+00271-00471102981ADDGF102991001001999999001021MD1710121+9999REMSYN060AAXX  02091 57290 42962 20902 10027 21047 40298 57012 80002;
0152572900999992000020212004+33000+114020FM-12+008399999V0201601N003012200019N0120001N1+00071-00491103051ADDAA199000091GA1001+999999999GF100991001001999999001001MD1210071+9999REMSYN054AAXX  02121 57290 32962 01603 10007 21049 40305 52007;EQDQ01  00002PRCP99
0165572900999992000020218004+33000+114020FM-12+008399999V0209999C000019999999N0100001N1-00151-00521103071ADDAA199000091GF106991061001999999041001KA1999M+00321MD1710051+9999REMSYN070AAXX  02181 57290 32960 60000 11015 21052 40307 57005 86040 333 10032;EQDQ01  00002PRCP99
0112572900999992000020221004+33000+114020FM-12+008399999V0201801N001019999999N0100001N1-00331-00501999999ADDGF107991071001999999031999MD1710021+9999REMSYN060AAXX  02211 57290 42960 71801 11033 21050 4/306 57002 8703/;
0180572900999992000020300004+33000+114020FM-12+008399999V0209999C000012200019N0100001N1-00381-00581103231ADDAA199000091GA1001+999999999GF100991001001999999001001IA2999-00209MD1210161-0101REMSYN070AAXX  03001 57290 32960 00000 11038 21058 40323 52016 333 05100 31023;EQDQ01  00002PRCP99
0122572900999992000020303004+33000+114020FM-12+008399999V0203201N002012200019N0120001N1+00201-00351103271ADDGA1001+999999999GF100991001001999999001001MD1210051+9999REMSYN054AAXX  03031 57290 42962 03202 10020 21035 40327 52005;
0165572900999992000020306004+33000+114020FM-12+008399999V0200901N003019999999N0100001N1+00391-00381103081ADDAA199000091GF105991001001999999001021KA1999N-00411MD1710181+9999REMSYN070AAXX  03061 57290 32960 50903 10039 21038 40308 57018 80002 333 21041;EQDQ01  00002PRCP99
0122572900999992000020309004+33000+114020FM-12+008399999V0200901N002012200019N0100001N1+00401-00301102981ADDGA1001+999999999GF100991001001999999001001MD1710101+9999REMSYN054AAXX  03091 57290 42960 00902 10040 21030 40298 57010;
0142572900999992000020312004+33000+114020FM-12+008399999V0209999C000012200019N0100001N1+00061-00341103121ADDAA199000091GF102991001001999999001021MD1210131+9999REMSYN060AAXX  03121 57290 32960 20000 10006 21034 40312 52013 80002;EQDQ01  00002PRCP99
0112572900999992000020321004+33000+114020FM-12+008399999V0209999C000019999999N0100001N1+00011-00261103051ADDGF108991081001999999071999MD1710061+9999REMSYN060AAXX  03211 57290 42960 80000 10001 21026 40305 57006 8807/;
0182572900999992000020400004+33000+114020FM-12+008399999V0209999C000019999999N0070001N1+00001-00281103091ADDAA199000091GF108991081001999999071999IA2999+00009MD1210031-0101MW1101REMSYN082AAXX  04001 57290 31957 80000 10000 21028 40309 52003 71000 8807/ 333 05104 31002;EQDQ01  00002PRCP99
0124572900999992000020403004+33000+114020FM-12+008399999V0200201N001019999999N0080001N1+00081-00281103151ADDGF108991081001999999071999MD1210051+9999MW1101REMSYN066AAXX  04031 57290 41958 80201 10008 21028 40315 52005 71000 8807/;
0191572900999992000020406004+33000+114020FM-12+008399999V0200901N002019999999N0090001N1+00211-00371102831ADDAA106999999AY171061GF108991081001999999021999KA1999N-00021MD1710301+9999MW1701REMSYN082AAXX  04061 57290 11959 80902 10021 21037 40283 57030 69001 77070 8802/ 333 21002;EQDQ01  89992PRCP06
0140572900999992000020409004+33000+114020FM-12+008399999V0203201N002019999999N0080001N1+00121-00171102811ADDAY171031AY271031GF108991081001999999021999MD1710031+9999MW1701REMSYN066AAXX  04091 57290 41958 83202 10012 21017 40281 57003 77077 8802/;
0149572900999992000020412004+33000+114020FM-12+008399999V0203401N001019999999N0090001N1+00011-00171102921ADDAA106000191AY171061GF108991081001999999021999MD1210111+9999MW1701REMSYN072AAXX  04121 57290 11959 83401 10001 21017 40292 52011 69911 77070 8802/;
0172572900999992000020418004+33000+114020FM-12+008399999V0209999C000019999999N0080001N1-00131-00251102871ADDAA106000191AY171061GF108991081001999999021999KA1999M+00211MD1710061+9999MW1101REMSYN082AAXX  04181 57290 11958 80000 11013 21025 40287 57006 69921 71070 8802/ 333 10021;
0145572900999992000020421004+33000+114020FM-12+008399999V0201801N002019999999N0080001N1-00151-00241102721ADDAA124000391GF108991081001999999021999MD1710151+9999MW1101REMSYN076AAXX  04211 57290 41958 81802 11015 21024 40272 57015 71000 8802/ 333 70003;
0169572900999992000020500004+33000+114020FM-12+008399999V0202001N002019999999N0050001N1-00221-00381102811ADDAA124000391GF107991071001999999031999IA2999-00109MD1210091-0301MW1101REMSYN088AAXX  05001 57290 31950 72002 11022 21038 40281 52009 71000 8703/ 333 05352 31010 70003;
0124572900999992000020503004+33000+114020FM-12+008399999V0202201N002012200019N0080001N1+00141-00281102811ADDGF102991001001999999001021MD1410001+9999MW1101REMSYN066AAXX  05031 57290 41958 22202 10014 21028 40281 54000 71000 80002;
0175572900999992000020506004+33000+114020FM-12+008399999V0202501N003012200019N0100001N1+00631-00121102541ADDAA199000091GA1001+999999999GF100991001001999999001001KA1999N-00241MD1710261+9999REMSYN064AAXX  05061 57290 32960 02503 10063 21012 40254 57026 333 21024;EQDQ01  00002PRCP99
0112572900999992000020509004+33000+114020FM-12+008399999V0202701N002019999999N0100001N1+00681-00051102461ADDGF105991001001999999001021MD1710081+9999REMSYN060AAXX  05091 57290 42960 52702 10068 21005 40246 57008 80002;
0152572900999992000020512004+33000+114020FM-12+008399999V0202501N003012200019N0100001N1+00301+99999102511ADDAA199000091GA1001+999999999GF100991001001999999001001MD1210041+9999REMSYN054AAXX  05121 57290 32960 02503 1003/ 2/714 40251 52004;EQDQ01  00002PRCP99
0175572900999992000020518004+33000+114020FM-12+008399999V0202501N003012200019N0100001N1+00291-00161102511ADDAA199000091GA1001+999999999GF100991001001999999001001KA1999M+00821MD1710071+9999REMSYN064AAXX  05181 57290 32960 02503 10029 21016 40251 57007 333 10082;EQDQ01  00002PRCP99
0112572900999992000020521004+33000+114020FM-12+008399999V0202701N003019999999N0100001N1+00261-00141102441ADDGF106991001001999999001021MD1710071+9999REMSYN060AAXX  05211 57290 42960 62703 10026 21014 40244 57007 80002;
0170572900999992000020600004+33000+114020FM-12+008399999V0202201N002019999999N0100001N1+00221-00181102461ADDAA199000091GF105991001001999999001011IA2999-00109MD1210011-0301REMSYN076AAXX  06001 57290 32960 52202 10022 21018 40246 52001 80001 333 05304 31010;EQDQ01  00002PRCP99
0112572900999992000020603004+33000+114020FM-12+008399999V0201401N002019999999N0100001N1+00891-00091102471ADDGF107991001001999999001011MD1210031+9999REMSYN060AAXX  06031 57290 42960 71402 10089 21009 40247 52003 80001;
0165572900999992000020606004+33000+114020FM-12+008399999V0202201N001012200019N0100001N1+01241+00071102151ADDAA199000091GF102991001001999999001011KA1999N+00131MD1710321+9999REMSYN070AAXX  06061 57290 32960 22201 10124 20007 40215 57032 80001 333 20013;EQDQ01  00002PRCP99
0112572900999992000020609004+33000+114020FM-12+008399999V0201401N003019999999N0100001N1+01181-00021102061ADDGF107991071001999999031999MD1710091+9999REMSYN060AAXX  06091 57290 42960 71403 10118 21002 40206 57009 8703/;
0152572900999992000020612004+33000+114020FM-12+008399999V0201801N004012200019N0100001N1+00881+00001102091ADDAA199000091GA1001+999999999GF100991001001999999001001MD1210031+9999REMSYN054AAXX  06121 57290 32960 01804 10088 20000 40209 52003;EQDQ01  00002PRCP99
0175572900999992000020618004+33000+114020FM-12+008399999V0202901N005012200019N0100001N1+00441-00081102401ADDAA199000091GA1001+999999999GF100991001001999999001001KA1999M+01361MD1210201+9999REMSYN064AAXX  06181 57290 32960 02905 10044 21008 40240 52020 333 10136;EQDQ01  00002PRCP99
0112572900999992000020621004+33000+114020FM-12+008399999V0203201N009019999999N0100001N1+00521-00581102551ADDGF107991071999999999031999MD1210151+9999REMSYN060AAXX  06211 57290 42960 73209 10052 21058 40255 52015 87/3/;
0203572900999992000020700004+33000+114020FM-12+008399999V0203201N006012200019N0100001N1+00371-01111102891ADDAA199000091GA1001+999999999GF100991001001999999001001IA2999+00009MD1210331+0401OA130601801REMSYN082AAXX  07001 57290 32960 03206 10037 21111 40289 52033 333 00402 30000 91118 91532;EQDQ01  00002PRCP99
0122572900999992000020703004+33000+114020FM-12+008399999V0203201N006012200019N0100001N1+00571-00941103071ADDGA1001+999999999GF100991001001999999001001MD1210171+9999REMSYN054AAXX  07031 57290 42960 03206 10057 21094 40307 52017;
0175572900999992000020706004+33000+114020FM-12+008399999V0203201N005012200019N0100001N1+00731-01041102861ADDAA199000091GA1001+999999999GF100991001001999999001001KA1999N+00301MD1710201+9999REMSYN064AAXX  07061 57290 32960 03205 10073 21104 40286 57020 333 20030;EQDQ01  00002PRCP99
0122572900999992000020709004+33000+114020FM-12+008399999V0203201N003012200019N0150001N1+00721-01191102741ADDGA1001+999999999GF100991001001999999001001MD1710121+9999REMSYN054AAXX  07091 57290 42965 03203 10072 21119 40274 57012;
0152572900999992000020712004+33000+114020FM-12+008399999V0202501N002012200019N0200001N1+00191-00761102721ADDAA199000091GA1001+999999999GF100991001001999999001001MD1710031+9999REMSYN054AAXX  07121 57290 32970 02502 10019 21076 40272 57003;EQDQ01  00002PRCP99
0175572900999992000020718004+33000+114020FM-12+008399999V0209999C000012200019N0180001N1-00051-00941102491ADDAA199000091GA1001+999999999GF100991001001999999001001KA1999M+00781MD1710121+9999REMSYN064AAXX  07181 57290 32968 00000 11005 21094 40249 57012 333 10078;EQDQ01  00002PRCP99
0122572900999992000020721004+33000+114020FM-12+008399999V0202501N002012200019N0180001N1-00141-00981102501ADDGA1001+999999999GF100991001001999999001001MD1210021+9999REMSYN054AAXX  07211 57290 42968 02502 11014 21098 40250 52002;
0180572900999992000020800004+33000+114020FM-12+008399999V0202901N001012200019N0180001N1-00291-00891102791ADDAA199000091GA1001+999999999GF100991001001999999001001IA2999-00409MD1210261-0101REMSYN070AAXX  08001 57290 32968 02901 11029 21089 40279 52026 333 05157 31048;EQDQ01  00002PRCP99
0122572900999992000020803004+33000+114020FM-12+008399999V0200401N004012200019N0200001N1+00361-00671102931ADDGA1001+999999999GF100991001001999999001001MD1210161+9999REMSYN054AAXX  08031 57290 42970 00404 10036 21067 40293 52016;
0165572900999992000020806004+33000+114020FM-12+008399999V0200401N005012200019N0120001N1+00641-00651102811ADDAA199000091GF103991001001999999001021KA1999N-00361MD1710121+9999REMSYN070AAXX  08061 57290 32962 30405 10064 21065 40281 57012 80002 333 21036;EQDQ01  00002PRCP99
0112572900999992000020809004+33000+114020FM-12+008399999V0200401N003012200019N0120001N1+00561-00611102761ADDGF104991001001999999001021MD1710051+9999REMSYN060AAXX  08091 57290 42962 40403 10056 21061 40276 57005 80002;
0152572900999992000020812004+33000+114020FM-12+008399999V0200401N003012200019N0100001N1+00071-00811102851ADDAA199000091GA1001+999999999GF100991001001999999001001MD1210081+9999REMSYN054AAXX  08121 57290 32960 00403 10007 21081 40285 52008;EQDQ01  00002PRCP99
0165572900999992000020818004+33000+114020FM-12+008399999V0202701N001012200019N0100001N1-00251-00761102821ADDAA199000091GF102991021001999999041001KA1999M+00721MD1710051+9999REMSYN070AAXX  08181 57290 32960 22701 11025 21076 40282 57005 82040 333 10072;EQDQ01  00002PRCP99
0122572900999992000020821004+33000+114020FM-12+008399999V0209999C000012200019N0100001N1-00301-00741102611ADDGA1001+999999999GF100991001001999999001001MD1710211+9999REMSYN054AAXX  08211 57290 42960 00000 11030 21074 40261 57021;
0170572900999992000020900004+33000+114020FM-12+008399999V0203601N001019999999N0120001N1-00291-00791102631ADDAA199000091GF107991071001999999031999IA2999-00209MD1210021-0201REMSYN076AAXX  09001 57290 32962 73601 11029 21079 40263 52002 8703/ 333 05200 31025;EQDQ01  00002PRCP99
0122572900999992000020903004+33000+114020FM-12+008399999V0200701N001012200019N0120001N1+00171-00541102551ADDGA1001+999999999GF100991001001999999001001MD1710081+9999REMSYN054AAXX  09031 57290 42962 00701 10017 21054 40255 57008;
0165572900999992000020906004+33000+114020FM-12+008399999V0201401N003012200019N0160001N1+00561-00211102191ADDAA199000091GF104991001001999999001021KA1999N-00351MD1710351+9999REMSYN070AAXX  09061 57290 32966 41403 10056 21021 40219 57035 80002 333 21035;EQDQ01  00002PRCP99
0112572900999992000020909004+33000+114020FM-12+008399999V0201401N003019999999N0150001N1+00671-00161102071ADDGF106991001001999999001021MD1710121+9999REMSYN060AAXX  09091 57290 42965 61403 10067 21016 40207 57012 80002;
0142572900999992000020912004+33000+114020FM-12+008399999V0201101N002012200019N0100001N1+00471-00131102111ADDAA199000091GF102991001001999999001021MD1210041+9999REMSYN060AAXX  09121 57290 32960 21102 10047 21013 40211 52004 80002;EQDQ01  00002PRCP99
0175572900999992000020918004+33000+114020FM-12+008399999V0201601N003012200019N0100001N1+00211-00131102061ADDAA199000091GA1001+999999999GF100991001001999999001001KA1999M+00731MD1710071+9999REMSYN064AAXX  09181 57290 32960 01603 10021 21013 40206 57007 333 10073;EQDQ01  00002PRCP99
0112572900999992000020921004+33000+114020FM-12+008399999V0201401N003012200019N0100001N1+00101-00161101931ADDGF102991001001999999001021MD1710131+9999REMSYN060AAXX  09211 57290 42960 21403 10010 21016 40193 57013 80002;
0192572900999992000021000004+33000+114020FM-12+008399999V0209999C000012200019N0090001N1-00141-00331101971ADDAA199000091GA1001+999999999GF100991001001999999001001IA2999-00109MD1210041-0601MW1101REMSYN076AAXX  10001 57290 31959 00000 11014 21033 40197 52004 71000 333 05602 31012;EQDQ01  00002PRCP99
0122572900999992000021003004+33000+114020FM-12+008399999V0202001N001012200019N0120001N1+00761-00071101971ADDGA1001+999999999GF100991001001999999001001MD1210011+9999REMSYN054AAXX  10031 57290 42962 02001 10076 21007 40197 52001;
0165572900999992000021006004+33000+114020FM-12+008399999V0201401N002012200019N0120001N1+01161-00091101711ADDAA199000091GF101991001001999999001021KA1999N-00181MD1710251+9999REMSYN070AAXX  10061 57290 32962 11402 10116 21009 40171 57025 80002 333 21018;EQDQ01  00002PRCP99
0112572900999992000021009004+33000+114020FM-12+008399999V0202201N002012200019N0120001N1+01201-00021101631ADDGF104991001001999999001021MD1710091+9999REMSYN060AAXX  10091 57290 42962 42202 10120 21002 40163 57009 80002;
0142572900999992000021012004+33000+114020FM-12+008399999V0209999C000019999999N0120001N1+00741+00061101731ADDAA199000091GF107991001001999999001021MD1210091+9999REMSYN060AAXX  10121 57290 32962 70000 10074 20006 40173 52009 80002;EQDQ01  00002PRCP99
0175572900999992000021018004+33000+114020FM-12+008399999V0209999C000012200019N0100001N1+00501-00161101911ADDAA199000091GA1001+999999999GF100991001001999999001001KA1999M+01271MD1210031+9999REMSYN064AAXX  10181 57290 32960 00000 10050 21016 40191 52003 333 10127;EQDQ01  00002PRCP99
0112572900999992000021021004+33000+114020FM-12+008399999V0209999C000019999999N0100001N1+00251-00111101901ADDGF106991001999999999001021MD1710011+9999REMSYN060AAXX  10211 57290 42960 60000 10025 21011 40190 57001 80/02;
0170572900999992000021100004+33000+114020FM-12+008399999V0202901N002012200019N0100001N1+00081-00181102101ADDAA199000091GF102991001001999999001011IA2999-00109MD1210181+0101REMSYN076AAXX  11001 57290 32960 22902 10008 21018 40210 52018 80001 333 00102 31010;EQDQ01  00002PRCP99
0112572900999992000021103004+33000+114020FM-12+008399999V0203401N002012200019N0100001N1+00611+00071102251ADDGF101991001001999999001011MD1210151+9999REMSYN060AAXX  11031 57290 42960 13402 10061 20007 40225 52015 80001;
0175572900999992000021106004+33000+114020FM-12+008399999V0200201N003012200019N0120001N1+01211+00241102001ADDAA199000091GA1001+999999999GF100991001001999999001001KA1999N+00041MD1710231+9999REMSYN064AAXX  11061 57290 32962 00203 10121 20024 40200 57023 333 20004;EQDQ01  00002PRCP99
0122572900999992000021109004+33000+114020FM-12+008399999V0200401N002012200019N0120001N1+01301+00131101861ADDGA1001+999999999GF100991001001999999001001MD1710141+9999REMSYN054AAXX  11091 57290 42962 00402 10130 20013 40186 57014;
0152572900999992000021112004+33000+114020FM-12+008399999V0209999C000012200019N0120001N1+00721+00241101911ADDAA199000091GA1001+999999999GF100991001001999999001001MD1210041+9999REMSYN054AAXX  11121 57290 32962 00000 10072 20024 40191 52004;EQDQ01  00002PRCP99
0175572900999992000021118004+33000+114020FM-12+008399999V0209999C000012200019N0100001N1+00201-00051101931ADDAA199000091GA1001+999999999GF100991001001999999001001KA1999M+01351MD1710091+9999REMSYN064AAXX  11181 57290 32960 00000 10020 21005 40193 57009 333 10135;EQDQ01  00002PRCP99
0122572900999992000021121004+33000+114020FM-12+008399999V0209999C000012200019N0120001N1+00031-00061101831ADDGA1001+999999999GF100991001001999999001001MD1710101+9999REMSYN054AAXX  11211 57290 42962 00000 10003 21006 40183 57010;
0182572900999992000021200004+33000+114020FM-12+008399999V0209999C000012200019N0090001N1+00071-00041101871ADDAA199000091GF102991001001999999001011IA2999+00009MD1210031-0201MW1101REMSYN082AAXX  12001 57290 31959 20000 10007 21004 40187 52003 71000 80001 333 05200 31006;EQDQ01  00002PRCP99
0122572900999992000021203004+33000+114020FM-12+008399999V0203401N002012200019N0100001N1+00861+00351101861ADDGA1001+999999999GF100991001001999999001001MD1410001+9999REMSYN054AAXX  12031 57290 42960 03402 10086 20035 40186 54000;
0165572900999992000021206004+33000+114020FM-12+008399999V0201801N001012200019N0100001N1+01511+00471101571ADDAA199000091GF102991001001999999001011KA1999N-00021MD1710281+9999REMSYN070AAXX  12061 57290 32960 21801 10151 20047 40157 57028 80001 333 21002;EQDQ01  00002PRCP99
0112572900999992000021209004+33000+114020FM-12+008399999V0201101N004019999999N0100001N1+01471+00351101521ADDGF107991001001999999001021MD1710051+9999REMSYN060AAXX  12091 57290 42960 71104 10147 20035 40152 57005 80002;
0152572900999992000021212004+33000+114020FM-12+008399999V0201101N002012200019N0100001N1+01121+00351101581ADDAA199000091GA1001+999999999GF100991001001999999001001MD1210051+9999REMSYN054AAXX  12121 57290 32960 01102 10112 20035 40158 52005;EQDQ01  00002PRCP99
0165572900999992000021218004+33000+114020FM-12+008399999V0209999C000019999999N0100001N1+00681+00381101631ADDAA199000091GF106991001001999999001021KA1999M+01571MD1710051+9999REMSYN070AAXX  12181 57290 32960 60000 10068 20038 40163 57005 80002 333 10157;EQDQ01  00002PRCP99
0112572900999992000021221004+33000+114020FM-12+008399999V0200701N002019999999N0100001N1+00691+00441101591ADDGF108991081001999999071999MD1710031+9999REMSYN060AAXX  12211 57290 42960 80702 10069 20044 40159 57003 8807/;
0175572900999992000021300004+33000+114020FM-12+008399999V0203401N002019999999N0100001N1+00591+00431101721ADDAA106000791GF108991081001999999071999IA2999-00069MD1210111-0101MW1601REMSYN094AAXX  13001 57290 11960 83402 10059 20043 40172 52011 69901 76000 8807/ 333 05105 31006 79999;
0140572900999992000021303004+33000+114020FM-12+008399999V0203201N003019999999N0100001N1+00641+00411101941ADDAY161031AY261031GF108991081001999999071999MD1210221+9999MW1211REMSYN066AAXX  13031 57290 41960 83203 10064 20041 40194 52022 72166 8807/;
0172572900999992000021306004+33000+114020FM-12+008399999V0203401N005019999999N0100001N1+00761+00341101871ADDAA106000191AY161061GF108991081001999999021999KA1999N+00541MD1710071+9999MW1211REMSYN082AAXX  13061 57290 11960 83405 10076 20034 40187 57007 69921 72160 8802/ 333 20054;
0124572900999992000021309004+33000+114020FM-12+008399999V0203601N001019999999N0090001N1+00651+00291101871ADDGF107991071001999999041999MD1410001+9999MW1101REMSYN066AAXX  13091 57290 41959 73601 10065 20029 40187 54000 71000 8704/;
0145572900999992000021312004+33000+114020FM-12+008399999V0209999C000012200019N0070001N1+00381+00231102041ADDAA199000021GA1001+999999999GF100991001001999999001001MD1210161+9999MW1101REMSYN060AAXX  13121 57290 31957 00000 10038 20023 40204 52016 71000;
0141572900999992000021318004+33000+114020FM-12+008399999V0203401N002019999999N0500001N1+00251+00151102431ADDGF107991071001002501031999KA1999M+00831MD1210191+9999REMSYN076AAXX  13181 57290 //399 73402 10025 20015 40243 52019 71000 8703/ 333 10083;
0145572900999992000021321004+33000+114020FM-12+008399999V0203401N003019999999N0080001N1+00031-00081102481ADDAA124000391GF107991071001999999031999MD1210041+9999MW1101REMSYN076AAXX  13211 57290 41958 73403 10003 21008 40248 52004 71000 8703/ 333 70002;
0169572900999992000021400004+33000+114020FM-12+008399999V0203201N002019999999N0080001N1+00041-00171102681ADDAA124000391GF106991001001999999001021IA2999-00129MD1210201+0901MW1101REMSYN088AAXX  14001 57290 31958 63202 10004 21017 40268 52020 71000 80002 333 00956 31012 70002;
0122572900999992000021403004+33000+114020FM-12+008399999V0203201N002012200019N0100001N1+00521+00021102751ADDGA1001+999999999GF100991001001999999001001MD1210071+9999REMSYN054AAXX  14031 57290 42960 03202 10052 20002 40275 52007;
0165572900999992000021406004+33000+114020FM-12+008399999V0203601N003012200019N0100001N1+01101-00661102481ADDAA199000091GF102991001001999999001021KA1999N-00021MD1710261+9999REMSYN070AAXX  14061 57290 32960 23603 10110 21066 40248 57026 80002 333 21002;EQDQ01  00002PRCP99
0122572900999992000021409004+33000+114020FM-12+008399999V0203201N002012200019N0100001N1+01141-00441102381ADDGA1001+999999999GF100991001001999999001001MD1710101+9999REMSYN054AAXX  14091 57290 42960 03202 10114 21044 40238 57010;
0152572900999992000021412004+33000+114020FM-12+008399999V0209999C000012200019N0120001N1+00781-00491102571ADDAA199000091GA1001+999999999GF100991001001999999001001MD1210181+9999REMSYN054AAXX  14121 57290 32962 00000 10078 21049 40257 52018;EQDQ01  00002PRCP99
0175572900999992000021418004+33000+114020FM-12+008399999V0203201N002012200019N0100001N1+00221-00851102661ADDAA199000091GA1001+999999999GF100991001001999999001001KA1999M+01271MD1210021+9999REMSYN064AAXX  14181 57290 32960 03202 10022 21085 40266 52002 333 10127;EQDQ01  00002PRCP99
0122572900999992000021421004+33000+114020FM-12+008399999V0203201N002012200019N0100001N1-00071-00351102701ADDGA1001+999999999GF100991001001999999001001MD1210031+9999REMSYN054AAXX  14211 57290 42960 03202 11007 21035 40270 52003;
0170572900999992000021500004+33000+114020FM-12+008399999V0202901N002012200019N0100001N1-00161-00391102891ADDAA199000091GF101991001001999999001021IA2999-00109MD1210181+0201REMSYN076AAXX  15001 57290 32960 12902 11016 21039 40289 52018 80002 333 00252 31018;EQDQ01  00002PRCP99
0112572900999992000021503004+33000+114020FM-12+008399999V0200401N002012200019N0120001N1+00461-00601102961ADDGF101991001001999999001011MD1210071+9999REMSYN060AAXX  15031 57290 42962 10402 10046 21060 40296 52007 80001;
0175572900999992000021506004+33000+114020FM-12+008399999V0200701N003012200019N0120001N1+00901-00501102651ADDAA199000091GA1001+999999999GF100991001001999999001001KA1999N-00201MD1710291+9999REMSYN064AAXX  15061 57290 32962 00703 10090 21050 40265 57029 333 21020;EQDQ01  00002PRCP99
0122572900999992000021509004+33000+114020FM-12+008399999V0200901N003012200019N0120001N1+00891-00601102491ADDGA1001+999999999GF100991001001999999001001MD1710171+9999REMSYN054AAXX  15091 57290 42962 00903 10089 21060 40249 57017;
0136572900999992000021512004+33000+114020FM-12+008399999V0200901N002019999999N0100001N1+00701-00461999999ADDAA199000091GF107991001001999999001021MD1210051+9999REMSYN054AAXX  15121 57290 32960 70902 1007/ 21046 52005 80002;EQDQ01  00002PRCP99
0175572900999992000021518004+33000+114020FM-12+008399999V0201401N002012200019N0100001N1+00411-00391102451ADDAA199000091GA1001+999999999GF100991001001999999001001KA1999M+01011MD1710101+9999REMSYN064AAXX  15181 57290 32960 01402 10041 21039 40245 57010 333 10101;EQDQ01  00002PRCP99
0122572900999992000021521004+33000+114020FM-12+008399999V0201101N003012200019N0100001N1+00221-00251102261ADDGA1001+999999999GF100991001001999999001001MD1710181+9999REMSYN054AAXX  15211 57290 42960 01103 10022 21025 40226 57018;
0182572900999992000021600004+33000+114020FM-12+008399999V0200901N002019999999N0090001N1+00121-00231102321ADDAA199000091GF107991001001999999001021IA2999-00109MD1210051-0601MW1101REMSYN082AAXX  16001 57290 31959 70902 10012 21023 40232 52005 71000 80002 333 05603 31010;EQDQ01  00002PRCP99
0112572900999992000021603004+33000+114020FM-12+008399999V0201601N003019999999N0100001N1+00671+00091102341ADDGF106991001001999999001021MD1210021+9999REMSYN060AAXX  16031 57290 42960 61603 10067 20009 40234 52002 80002;
0165572900999992000021606004+33000+114020FM-12+008399999V0201601N004019999999N0100001N1+01091+00041102101ADDAA199000091GF107991001001999999001021KA1999N+00111MD1710221+9999REMSYN070AAXX  16061 57290 32960 71604 10109 20004 40210 57022 80002 333 20011;EQDQ01  00002PRCP99
0112572900999992000021609004+33000+114020FM-12+008399999V0201401N004019999999N0100001N1+01141+00051102031ADDGF106991001001999999001011MD1710081+9999REMSYN060AAXX  16091 57290 42960 61404 10114 20005 40203 57008 80001;
0142572900999992000021612004+33000+114020FM-12+008399999V0201601N004012200019N0100001N1+00891+00071102071ADDAA199000091GF101991001001999999001021MD1210031+9999REMSYN060AAXX  16121 57290 32960 11604 10089 20007 40207 52003 80002;EQDQ01  00002PRCP99
0165572900999992000021618004+33000+114020FM-12+008399999V0209999C000019999999N0100001N1+00251+00061102261ADDAA199000091GF107991001001999999001021KA1999M+01201MD1210091+9999REMSYN070AAXX  16181 57290 32960 70000 10025 20006 40226 52009 80002 333 10120;EQDQ01  00002PRCP99
0122572900999992000021620004+33000+114020FM-12+008399999V0209999C000012200019N0100001N1+00111-00031102231ADDGA1001+999999999GF100991001001999999001001MD1710031+9999REMSYN054AAXX  16201 57290 42960 00000 10011 21003 40223 57003;
0122572900999992000021621004+33000+114020FM-12+008399999V0209999C000012200019N0100001N1+00111-00031102231ADDGA1001+999999999GF100991001001999999001001MD1710031+9999REMSYN054AAXX  16211 57290 42960 00000 10011 21003 40223 57003;
0182572900999992000021700004+33000+114020FM-12+008399999V0201401N002012200019N0080001N1+00241+00081102321ADDAA199000091GF101991001001999999001011IA2999-00209MD1210091+0001MW1101REMSYN082AAXX  17001 57290 31958 11402 10024 20008 40232 52009 71000 80001 333 00001 31020;EQDQ01  00002PRCP99
0112572900999992000021703004+33000+114020FM-12+008399999V0201401N004019999999N0100001N1+00851+00251102401ADDGF107991001001999999001021MD1210081+9999REMSYN060AAXX  17031 57290 42960 71404 10085 20025 40240 52008 80002;
0165572900999992000021706004+33000+114020FM-12+008399999V0201801N004010150019N0120001N1+00981+00251102181ADDAA199000091GF108991071051017501071999KA1999N-00021MD1710221+9999REMSYN070AAXX  17061 57290 32762 81804 10098 20025 40218 57022 8757/ 333 21002;EQDQ01  00002PRCP99
0112572900999992000021709004+33000+114020FM-12+008399999V0200701N004019999999N0120001N1+00981+00221102031ADDGF108991081001999999071999MD1710151+9999REMSYN060AAXX  17091 57290 42962 80704 10098 20022 40203 57015 8807/;
0142572900999992000021712004+33000+114020FM-12+008399999V0209999C000019999999N0100001N1+00681+00301102061ADDAA199000091GF107991071001999999041999MD1210031+9999REMSYN060AAXX  17121 57290 32960 70000 10068 20030 40206 52003 8704/;EQDQ01  00002PRCP99
0165572900999992000021718004+33000+114020FM-12+008399999V0200401N002019999999N0100001N1+00601+00151101971ADDAA199000091GF107991071001999999041999KA1999M+01041MD1710101+9999REMSYN070AAXX  17181 57290 32960 70402 10060 20015 40197 57010 8704/ 333 10104;EQDQ01  00002PRCP99
0112572900999992000021721004+33000+114020FM-12+008399999V0200701N003019999999N0100001N1+00541+00081101711ADDGF108991081001999999071999MD1710261+9999REMSYN060AAXX  17211 57290 42960 80703 10054 20008 40171 57026 8807/;
0183572900999992000021800004+33000+114020FM-12+008399999V0200401N003019999999N0100001N1+00381+00231101811ADDAA106004191AY161061GF108991081001999999021999IA2999+00379MD1210091-0501MW1601REMSYN094AAXX  18001 57290 11960 80403 10038 20023 40181 52009 60041 76060 8802/ 333 05501 30037 70039;
0140572900999992000021803004+33000+114020FM-12+008399999V0200401N004019999999N0080001N1+00351+00251101831ADDAY161031AY261031GF108991081001999999021999MD1210021+9999MW1601REMSYN066AAXX  18031 57290 41958 80404 10035 20025 40183 52002 76066 8802/;
0180572900999992000021806004+33000+114020FM-12+008399999V0200401N002019999999N0080001N1+00341+00241101601ADDAA106005191AY161061AY261061GF108991081001999999021999KA1999N+00311MD1710231+9999MW1601REMSYN082AAXX  18061 57290 11958 80402 10034 20024 40160 57023 60051 76066 8802/ 333 20031;
0157572900999992000021812004+33000+114020FM-12+008399999V0200201N003019999999N0050001N1+00331+00251101741ADDAA106003091AY161061AY261061GF108991081001999999021999MD1210171+9999MW1611REMSYN072AAXX  18121 57290 11950 80203 10033 20025 40174 52017 60031 76166 8802/;
0153572900999992000021821004+33000+114020FM-12+008399999V0203401N003019999999N0100001N1+00151-00041101831ADDAA124012291AY161031GF108991081001999999021999MD1710081+9999MW1001REMSYN076AAXX  18211 57290 41960 83403 10015 21004 40183 57008 70060 8802/ 333 70121;
0183572900999992000021900004+33000+114020FM-12+008399999V0203401N002019999999N0080001N1+00151+00041101991ADDAA106000791AY161061GF108991081001999999021999IA2999+00199MD1210171+0201MW1601REMSYN094AAXX  19001 57290 11958 83402 10015 20004 40199 52017 69901 76060 8802/ 333 00252 30019 70082;
0172572900999992000021906004+33000+114020FM-12+008399999V0203201N003019999999N0100001N1+00351+00171101971ADDAA106000791AY161061GF108991081001999999021999KA1999N+00131MD1710141+9999MW1601REMSYN082AAXX  19061 57290 11960 83203 10035 20017 40197 57014 69901 76060 8802/ 333 20013;
0140572900999992000021909004+33000+114020FM-12+008399999V0200201N003019999999N0100001N1+00401+00251101991ADDAY161031AY261031GF108991081001999999021999MD1210021+9999MW1601REMSYN066AAXX  19091 57290 41960 80203 10040 20025 40199 52002 76066 8802/;
0157572900999992000021912004+33000+114020FM-12+008399999V0209999C000019999999N0090001N1+00371+00271102171ADDAA106000791AY161061AY261061GF108991081001999999021999MD1210181+9999MW1211REMSYN072AAXX  19121 57290 11959 80000 10037 20027 40217 52018 69901 72166 8802/;
0172572900999992000021918004+33000+114020FM-12+008399999V0200401N003019999999N0080001N1+00141+00061102331ADDAA106000191AY161061GF108991081001999999071999KA1999M+00401MD1710011+9999MW1101REMSYN082AAXX  19181 57290 11958 80403 10014 20006 40233 57001 69921 71060 8807/ 333 10040;
0145572900999992000021921004+33000+114020FM-12+008399999V0209999C000019999999N0080001N1+00011-00111102241ADDAA124000391GF107991071001999999031999MD1710081+9999MW1101REMSYN076AAXX  19211 57290 41958 70000 10001 21011 40224 57008 71000 8703/ 333 70002;
0169572900999992000022000004+33000+114020FM-12+008399999V0202701N002019999999N0060001N1+00081-00031102461ADDAA124000391GF108991081001999999021999IA2999-00049MD1210211+0501MW1101REMSYN088AAXX  20001 57290 31956 82702 10008 21003 40246 52021 71000 8802/ 333 00551 31004 70002;
0112572900999992000022003004+33000+114020FM-12+008399999V0203401N002019999999N0100001N1+00361-00111102551ADDGF107991071001999999031999MD1210091+9999REMSYN060AAXX  20031 57290 42960 73402 10036 21011 40255 52009 8703/;
0165572900999992000022006004+33000+114020FM-12+008399999V0203201N002012200019N0100001N1+00601-00271102301ADDAA199000091GF102991001001999999001021KA1999N-00031MD1710241+9999REMSYN070AAXX  20061 57290 32960 23202 10060 21027 40230 57024 80002 333 21003;EQDQ01  00002PRCP99
0112572900999992000022009004+33000+114020FM-12+008399999V0203601N002012200019N0100001N1+00631-00191102241ADDGF102991001001999999001021MD1710071+9999REMSYN060AAXX  20091 57290 42960 23602 10063 21019 40224 57007 80002;
0128572900999992000022012004+33000+114020FM-12+008399999V0209999C000019999999N0100001N1+00281-00181102371ADDAA199000091GF106991999999999999999999REMSYN060AAXX  20121 57290 32960 60000 10028 21018 40237 92013 80002;EQDQ01  00002PRCP99
0175572900999992000022018004+33000+114020FM-12+008399999V0209999C000012200019N0100001N1-00021-00201102451ADDAA199000091GA1001+999999999GF100991001001999999001001KA1999M+00691MD1710011+9999REMSYN064AAXX  20181 57290 32960 00000 11002 21020 40245 57001 333 10069;EQDQ01  00002PRCP99
0122572900999992000022021004+33000+114020FM-12+008399999V0209999C000012200019N0100001N1-00091-00211102421ADDGA1001+999999999GF100991001001999999001001MD1710031+9999REMSYN054AAXX  20211 57290 42960 00000 11009 21021 40242 57003;
0122572900999992000022022004+33000+114020FM-12+008399999V0209999C000012200019N0100001N1-00091-00211102421ADDGA1001+999999999GF100991001001999999001001MD1710031+9999REMSYN054AAXX  20221 57290 42960 00000 11009 21021 40242 57003;
0182572900999992000022100004+33000+114020FM-12+008399999V0209999C000019999999N0070001N1-00051-00141102481ADDAA199000091GF108991081001999999021999IA2999-00109MD1210051+0001MW1101REMSYN082AAXX  21001 57290 31957 80000 11005 21014 40248 52005 71000 8802/ 333 00051 31014;EQDQ01  00002PRCP99
0124572900999992000022103004+33000+114020FM-12+008399999V0200901N001019999999N0080001N1+00361+00181102481ADDGF108991081001999999071999MD1210011+9999MW1101REMSYN066AAXX  21031 57290 41958 80901 10036 20018 40248 52001 71000 8807/;
0171572900999992000022106004+33000+114020FM-12+008399999V0200701N003019999999N0090001N1+00611+00191102151ADDAA199000091GF108991081001999999071999KA1999N-00131MD1710321+9999REMSYN076AAXX  21061 57290 31959 80703 10061 20019 40215 57032 71/00 8807/ 333 21013;EQDQ01  00002PRCP99
0112572900999992000022109004+33000+114020FM-12+008399999V0200901N003019999999N0100001N1+00661+00161102031ADDGF108991081001999999071999MD1710121+9999REMSYN060AAXX  21091 57290 42960 80903 10066 20016 40203 57012 8807/;
0142572900999992000022112004+33000+114020FM-12+008399999V0200901N003019999999N0100001N1+00581+00181102121ADDAA199000091GF108991081001999999071999MD1210091+9999REMSYN060AAXX  21121 57290 32960 80903 10058 20018 40212 52009 8807/;EQDQ01  00002PRCP99
0165572900999992000022118004+33000+114020FM-12+008399999V0209999C000019999999N0100001N1+00211-00041102321ADDAA199000091GF107991071001999999031999KA1999M+00671MD1210031+9999REMSYN070AAXX  21181 57290 32960 70000 10021 21004 40232 52003 8703/ 333 10067;EQDQ01  00002PRCP99
0112572900999992000022121004+33000+114020FM-12+008399999V0200901N001012200019N0100001N1+00081-00091102251ADDGF102991021001999999041001MD1710061+9999REMSYN060AAXX  21211 57290 42960 20901 10008 21009 40225 57006 82040;
0182572900999992000022200004+33000+114020FM-12+008399999V0209999C000019999999N0080001N1-00061-00241102331ADDAA199000091GF107991071001999999041999IA2999+00009MD1210071-0101MW1101REMSYN082AAXX  22001 57290 31958 70000 11006 21024 40233 52007 71000 8704/ 333 05100 31005;EQDQ01  00002PRCP99
0112572900999992000022203004+33000+114020FM-12+008399999V0201101N003019999999N0100001N1+00521-00011102441ADDGF105991051001999999041001MD1210121+9999REMSYN060AAXX  22031 57290 42960 51103 10052 21001 40244 52012 85040;
0165572900999992000022206004+33000+114020FM-12+008399999V0200901N004019999999N0100001N1+00791-00201102271ADDAA199000091GF106991001001999999001021KA1999N-00131MD1710161+9999REMSYN070AAXX  22061 57290 32960 60904 10079 21020 40227 57016 80002 333 21013;EQDQ01  00002PRCP99
0112572900999992000022209004+33000+114020FM-12+008399999V0200701N004019999999N0100001N1+00801-00051102151ADDGF107991001001999999001021MD1710131+9999REMSYN060AAXX  22091 57290 42960 70704 10080 21005 40215 57013 80002;
0142572900999992000022212004+33000+114020FM-12+008399999V0201401N004019999999N0100001N1+00611+00191102261ADDAA199000091GF108991081001999999071999MD1210101+9999REMSYN060AAXX  22121 57290 32960 81404 10061 20019 40226 52010 8807/;EQDQ01  00002PRCP99
0175572900999992000022218004+33000+114020FM-12+008399999V0201401N001012200019N0100001N1+00111-00061102461ADDAA199000091GA1001+999999999GF100991001001999999001001KA1999M+00871MD1210021+9999REMSYN064AAXX  22181 57290 32960 01401 10011 21006 40246 52002 333 10087;EQDQ01  00002PRCP99
0112572900999992000022221004+33000+114020FM-12+008399999V0209999C000019999999N0100001N1+00081-00061102381ADDGF105991001001999999001021MD1710081+9999REMSYN060AAXX  22211 57290 42960 50000 10008 21006 40238 57008 80002;
0182572900999992000022300004+33000+114020FM-12+008399999V0209999C000019999999N0050001N1+00061-00051102531ADDAA199000091GF106991001001999999001021IA2999+00009MD1210141+0201MW1101REMSYN082AAXX  23001 57290 31950 60000 10006 21005 40253 52014 71000 80002 333 00201 31004;EQDQ01  00002PRCP99
0112572900999992000022303004+33000+114020FM-12+008399999V0200701N002019999999N0100001N1+00761+00251102651ADDGF106991001001999999001021MD1210131+9999REMSYN060AAXX  23031 57290 42960 60702 10076 20025 40265 52013 80002;
0165572900999992000022306004+33000+114020FM-12+008399999V0200401N002010150019N0120001N1+00871+00041102521ADDAA199000091GF107991071051017501999999KA1999N+00021MD1710131+9999REMSYN070AAXX  23061 57290 32762 70402 10087 20004 40252 57013 875// 333 20002;EQDQ01  00002PRCP99
0112572900999992000022309004+33000+114020FM-12+008399999V0200901N002019999999N0120001N1+00881+00121102481ADDGF108991081001999999071999MD1710041+9999REMSYN060AAXX  23091 57290 42962 80902 10088 20012 40248 57004 8807/;
0142572900999992000022312004+33000+114020FM-12+008399999V0209999C000012200019N0100001N1+00541+00101102641ADDAA199000091GF102991001001999999001021MD1210151+9999REMSYN060AAXX  23121 57290 32960 20000 10054 20010 40264 52015 80002;EQDQ01  00002PRCP99
0175572900999992000022318004+33000+114020FM-12+008399999V0203201N002012200019N0100001N1+00201+00011102891ADDAA199000091GA1001+999999999GF100991001001999999001001KA1999M+00911MD1210071+9999REMSYN064AAXX  23181 57290 32960 03202 10020 20001 40289 52007 333 10091;EQDQ01  00002PRCP99
0112572900999992000022321004+33000+114020FM-12+008399999V0203201N002019999999N0100001N1+00091+00011102861ADDGF106991001001999999001021MD1710031+9999REMSYN060AAXX  23211 57290 42960 63202 10009 20001 40286 57003 80002;
0182572900999992000022400004+33000+114020FM-12+008399999V0203401N001019999999N0070001N1+00071-00041103071ADDAA199000091GF105991001001999999001021IA2999+00009MD1210191+0501MW1101REMSYN082AAXX  24001 57290 31957 53401 10007 21004 40307 52019 71000 80002 333 00500 31005;EQDQ01  00002PRCP99
0112572900999992000022403004+33000+114020FM-12+008399999V0201401N003019999999N0100001N1+00581+00211103201ADDGF107991071001999999041999MD1210141+9999REMSYN060AAXX  24031 57290 42960 71403 10058 20021 40320 52014 8704/;
0165572900999992000022406004+33000+114020FM-12+008399999V0200701N003019999999N0100001N1+00841+00181102881ADDAA199000091GF107991071001999999031999KA1999N+00051MD1710321+9999REMSYN070AAXX  24061 57290 32960 70703 10084 20018 40288 57032 8703/ 333 20005;EQDQ01  00002PRCP99
0112572900999992000022409004+33000+114020FM-12+008399999V0200701N004019999999N0100001N1+00801+00131102791ADDGF108991081001999999021999MD1710091+9999REMSYN060AAXX  24091 57290 42960 80704 10080 20013 40279 57009 8802/;
0142572900999992000022412004+33000+114020FM-12+008399999V0200901N002019999999N0100001N1+00601+00231102941ADDAA199000091GF108991081001999999021999MD1210151+9999REMSYN060AAXX  24121 57290 32960 80902 10060 20023 40294 52015 8802/;EQDQ01  00002PRCP99
0165572900999992000022418004+33000+114020FM-12+008399999V0202201N001019999999N0100001N1+00111-00151103081ADDAA199000091GF106991001001999999001021KA1999M+00861MD1710021+9999REMSYN070AAXX  24181 57290 32960 62201 10011 21015 40308 57002 80002 333 10086;EQDQ01  00002PRCP99
0112572900999992000022421004+33000+114020FM-12+008399999V0209999C000019999999N0100001N1+00121-00111103001ADDGF107991001001999999001021MD1710081+9999REMSYN060AAXX  24211 57290 42960 70000 10012 21011 40300 57008 80002;
0170572900999992000022500004+33000+114020FM-12+008399999V0202701N001019999999N0100001N1+00161-00011103001ADDAA199000091GF108991081001999999021999IA2999+00009MD1710011-0101REMSYN076AAXX  25001 57290 32960 82701 10016 21001 40300 57001 8802/ 333 05101 31009;EQDQ01  00002PRCP99
0132572900999992000022503004+33000+114020FM-12+008399999V0202901N003019999999N0100001N1+00601+00171102991ADDAY161031GF107991071001999999041999MD1410001+9999MW1001REMSYN066AAXX  25031 57290 41960 72903 10060 20017 40299 54000 70060 8704/;
0172572900999992000022506004+33000+114020FM-12+008399999V0203201N006012200019N0100001N1+01021-00731102651ADDAA106000791AY161061GF102991001001999999001011KA1999N-00021MD1710341+9999MW1001REMSYN082AAXX  25061 57290 11960 23206 10102 21073 40265 57034 69901 70060 80001 333 21002;
0152572900999992000022512004+33000+114020FM-12+008399999V0203401N001012200019N0100001N1+00461-00431102741ADDAA199000091GA1001+999999999GF100991001001999999001001MD1210221+9999REMSYN054AAXX  25121 57290 32960 03401 10046 21043 40274 52022;EQDQ01  00002PRCP99
0175572900999992000022518004+33000+114020FM-12+008399999V0202701N004012200019N0100001N1+00391-00811102751ADDAA199000091GA1001+999999999GF100991001001999999001001KA1999M+01121MD1710021+9999REMSYN064AAXX  25181 57290 32960 02704 10039 21081 40275 57002 333 10112;EQDQ01  00002PRCP99
0143572900999992000022521004+33000+114020FM-12+008399999V0202701N002012200019N0100001N1+00161-00811102721ADDAA124000791GA1001+999999999GF100991001001999999001001MD1710041+9999REMSYN064AAXX  25211 57290 42960 02702 10016 21081 40272 57004 333 79999;
0167572900999992000022600004+33000+114020FM-12+008399999V0202701N003012200019N0100001N1+00311-00711102781ADDAA124000791GA1001+999999999GF100991001001999999001001IA2999-00189MD1210061-0201REMSYN076AAXX  26001 57290 32960 02703 10031 21071 40278 52006 333 05202 31018 79999;
0122572900999992000022603004+33000+114020FM-12+008399999V0202901N005012200019N0120001N1+01041-00461102841ADDGA1001+999999999GF100991001001999999001001MD1210071+9999REMSYN054AAXX  26031 57290 42962 02905 10104 21046 40284 52007;
0175572900999992000022606004+33000+114020FM-12+008399999V0203201N003012200019N0120001N1+01391-00721102521ADDAA199000091GA1001+999999999GF100991001001999999001001KA1999N+00091MD1710311+9999REMSYN064AAXX  26061 57290 32962 03203 10139 21072 40252 57031 333 20009;EQDQ01  00002PRCP99
0122572900999992000022609004+33000+114020FM-12+008399999V0202501N002012200019N0120001N1+01381-00641102381ADDGA1001+999999999GF100991001001999999001001MD1710151+9999REMSYN054AAXX  26091 57290 42962 02502 10138 21064 40238 57015;
0152572900999992000022612004+33000+114020FM-12+008399999V0202201N003012200019N0120001N1+00801-00411102441ADDAA199000091GA1001+999999999GF100991001001999999001001MD1210061+9999REMSYN054AAXX  26121 57290 32962 02203 10080 21041 40244 52006;EQDQ01  00002PRCP99
0169572900999992000022618004+33000+114020FM-12+008399999V0201601N002012200019N0120001N1+99999+99999102421ADDAA199000091GA1001+999999999GF100991001001999999001001KA1999M+01471MD1710011+9999REMSYN058AAXX  26181 57290 32962 01602 21031 40242 57001 333 10147;EQDQ01  00002PRCP99
0122572900999992000022621004+33000+114020FM-12+008399999V0202201N002012200019N0120001N1+00121-00411102391ADDGA1001+999999999GF100991001001999999001001MD1710031+9999REMSYN054AAXX  26211 57290 42962 02202 10012 21041 40239 57003;
0170572900999992000022700004+33000+114020FM-12+008399999V0202701N003012200019N0120001N1+00461-00511102461ADDAA199000091GF102991001001999999001011IA2999-00109MD1210071-0301REMSYN076AAXX  27001 57290 32962 22703 10046 21051 40246 52007 80001 333 05302 31015;EQDQ01  00002PRCP99
