0191584770999992000010100004+30030+122120FM-12+003799999V0209999C000010042019N0130001N1+00981+00901101981ADDAA106000091GF106991061011004501001001IA2999+00409MA1999999101531MD1710031-0301REMSYN082AAXX  01001 58477 32463 60000 10098 20090 30153 40198 57003 86100 333 05302 30041;EQDQ01  00002PRCP06
0112584770999992000010103004+30030+122120FM-12+003799999V0202501N002010075019N0140001N1+01671+01241101891ADDGF107991071011008001999999MD1710091+9999REMSYN060AAXX  01031 58477 42564 72502 10167 20124 40189 57009 871//;
0186584770999992000010106004+30030+122120FM-12+003799999V0202701N003012200019N0180001N1+01931+01001101671ADDAA106000091GF102991021011008001001001KA1999N+00841MA1999999101231MD1710211+9999REMSYN076AAXX  01061 58477 32568 22703 10193 20100 30123 40167 57021 82100 333 20084;EQDQ01  00002PRCP06
0122584770999992000010109004+30030+122120FM-12+003799999V0203601N004012200019N0160001N1+01451+01111101701ADDGA1001+999999999GF100991001001999999001001MD1210021+9999REMSYN054AAXX  01091 58477 42966 03604 10145 20111 40170 52002;
0147584770999992000010111004+30030+122120FM-12+003799999V02099999999992200019N0120001N1+99999+99999101891ADDAA106000091GA1001+999999999GF100991001001999999001001MA1999999101441REMSYN048AAXX  01111 58477 32962 0//// 20056 30144 40189;EQDQ01  00002PRCP06
0173584770999992000010112004+30030+122120FM-12+003799999V0209999C000012200019N0120001N1+01081+00561101891ADDAA106000091GA1001+999999999GF100991001001999999001001MA1999999101441MD1210191+9999REMSYN060AAXX  01121 58477 32962 00000 10108 20056 30144 40189 52019;EQDQ01  00002PRCP06
0122584770999992000010115004+30030+122120FM-12+003799999V0203201N002012200019N0100001N1+00841+00571101941ADDGA1001+999999999GF100991001001999999001001MD1210051+9999REMSYN054AAXX  01151 58477 42960 03202 10084 20057 40194 52005;
0208584770999992000010118004+30030+122120FM-12+003799999V0209999C000012200019N0030001N1+00801+00671101951ADDAA106000091GA1001+999999999GF100991001001999999001001KA1999M+01981MA1999999101511MD1210021+9999MW1101REMSYN076AAXX  01181 58477 31930 00000 10080 20067 30151 40195 52002 71000 333 10198;EQDQ01  00002PRCP06
0124584770999992000010121004+30030+122120FM-12+003799999V0201101N001012200019N0030001N1+00821+00711101971ADDGF102991021061002501001001MD1210011+9999MW1101REMSYN066AAXX  01211 58477 41330 21101 10082 20071 40197 52001 71000 82600;
0203584770999992000010200004+30030+122120FM-12+003799999V0203201N006010012019N0015001N1+00731+00551102201ADDAA106000091GF108991081061001501999999IA2999+00409MA1999999101751MD1210231+0201MW1101REMSYN088AAXX  02001 58477 31215 83206 10073 20055 30175 40220 52023 71000 886// 333 00253 30048;EQDQ01  00002PRCP06
0124584770999992000010203004+30030+122120FM-12+003799999V0202901N006010012019N0020001N1+00731+00531102271ADDGF108991081061001501999999MD1210061+9999MW1101REMSYN066AAXX  02031 58477 41220 82906 10073 20053 40227 52006 71000 886//;
0185584770999992000010206004+30030+122120FM-12+003799999V0203401N005010042019N0040001N1+00771+00501102141ADDAA106000791GF108991081071004501999999KA1999N+00691MA1999999101691MD1710121+9999MW1601REMSYN088AAXX  02061 58477 11440 83405 10077 20050 30169 40214 57012 69901 76000 887// 333 20069;
0132584770999992000010209004+30030+122120FM-12+003799999V0203401N004010042019N0040001N1+00781+00481102171ADDAY161031GF108991081041004501999999MD1210031+9999MW1101REMSYN066AAXX  02091 58477 41440 83404 10078 20048 40217 52003 71060 884//;
0170584770999992000010212004+30030+122120FM-12+003799999V0209999C000010042019N0040001N1+00721+00391102371ADDAA106000791AY161061GF107991061011004501041001MA1999999101911MD1210191+9999MW1101REMSYN078AAXX  02121 58477 11440 70000 10072 20039 30191 40237 52019 69901 71060 86140;
0134584770999992000010215004+30030+122120FM-12+003799999V0209999C000012200019N0040001N1+00501+00331102341ADDGA1001+999999999GF100991001001999999001001MD1710031+9999MW1101REMSYN060AAXX  02151 58477 41940 00000 10050 20033 40234 57003 71000;
0208584770999992000010218004+30030+122120FM-12+003799999V0203401N001012200019N0020001N1+00311+00261102271ADDAA106000091GA1001+999999999GF100991001001999999001001KA1999M+00851MA1999999101811MD1710071+9999MW1101REMSYN076AAXX  02181 58477 31920 03401 10031 20026 30181 40227 57007 71000 333 10085;EQDQ01  00002PRCP06
0155584770999992000010221004+30030+122120FM-12+003799999V0209999C000012200019N0020001N1+00281+00231102231ADDAA124000791GA1001+999999999GF100991001001999999001001MD1710041+9999MW1101REMSYN070AAXX  02211 58477 41920 00000 10028 20023 40223 57004 71000 333 79999;
0219584770999992000010300004+30030+122120FM-12+003799999V0209999C000012200019N0040001N1+00281+00231102301ADDAA106000091GA1001+999999999GF100991001001999999001001IA2999-00129MA1999999101841MD1210071+0101MW1101REMSYN088AAXX  03001 58477 31940 00000 10028 20023 30184 40230 52007 71000 333 00155 31012 79999;EQDQ01  00002PRCP06
0124584770999992000010303004+30030+122120FM-12+003799999V0201801N002010120019N0050001N1+01071+00441102321ADDGF107991071051012501999999MD1210021+9999MW1101REMSYN066AAXX  03031 58477 41650 71802 10107 20044 40232 52002 71000 875//;
0208584770999992000010306004+30030+122120FM-12+003799999V0201601N006012200019N0080001N1+01371+00491102001ADDAA106000091GA1001+999999999GF100991001001999999001001KA1999N+00221MA1999999101551MD1710311+9999MW1051REMSYN076AAXX  03061 58477 31958 01606 10137 20049 30155 40200 57031 70500 333 20022;EQDQ01  00002PRCP06
0122584770999992000010309004+30030+122120FM-12+003799999V0201401N004012200019N0100001N1+01141+00561101971ADDGA1001+999999999GF100991001001999999001001MD1710041+9999REMSYN054AAXX  03091 58477 42960 01404 10114 20056 40197 57004;
0173584770999992000010312004+30030+122120FM-12+003799999V0200901N002012200019N0110001N1+00951+00691102071ADDAA106000091GA1001+999999999GF100991001001999999001001MA1999999101611MD1210101+9999REMSYN060AAXX  03121 58477 32961 00902 10095 20069 30161 40207 52010;EQDQ01  00002PRCP06
0134584770999992000010315004+30030+122120FM-12+003799999V0201101N002012200019N0080001N1+00991+00801102071ADDGA1001+999999999GF100991001001999999001001MD1210011+9999MW1101REMSYN060AAXX  03151 58477 41958 01102 10099 20080 40207 52001 71000;
0208584770999992000010318004+30030+122120FM-12+003799999V0201601N001012200019N0080001N1+01021+00841101951ADDAA106000091GA1001+999999999GF100991001001999999001001KA1999M+01411MA1999999101501MD1710121+9999MW1101REMSYN076AAXX  03181 58477 31958 01601 10102 20084 30150 40195 57012 71000 333 10141;EQDQ01  00002PRCP06
0134584770999992000010321004+30030+122120FM-12+003799999V0209999C000012200019N0080001N1+01051+00911101911ADDGA1001+999999999GF100991001001999999001001MD1710041+9999MW1101REMSYN060AAXX  03211 58477 41958 00000 10105 20091 40191 57004 71000;
0213584770999992000010400004+30030+122120FM-12+003799999V0200901N001012200019N0070001N1+01071+00991101981ADDAA106000091GA1001+999999999GF100991001001999999001001IA2999+00309MA1999999101531MD1210071-0301MW1101REMSYN082AAXX  04001 58477 31957 00901 10107 20099 30153 40198 52007 71000 333 05308 30035;EQDQ01  00002PRCP06
0122584770999992000010403004+30030+122120FM-12+003799999V0201401N003012200019N0110001N1+01661+01021101981ADDGA1001+999999999GF100991001001999999001001MD1410001+9999REMSYN054AAXX  04031 58477 42961 01403 10166 20102 40198 54000;
0196584770999992000010406004+30030+122120FM-12+003799999V0201601N005012200019N0140001N1+01731+00901101721ADDAA106000091GA1001+999999999GF100991001001999999001001KA1999N+00931MA1999999101281MD1710251+9999REMSYN070AAXX  04061 58477 32964 01605 10173 20090 30128 40172 57025 333 20093;EQDQ01  00002PRCP06
0112584770999992000010409004+30030+122120FM-12+003799999V0201401N003012200019N0140001N1+01461+01061101731ADDGF101991011011004501001001MD1410001+9999REMSYN060AAXX  04091 58477 42464 11403 10146 20106 40173 54000 81100;
0163584770999992000010412004+30030+122120FM-12+003799999V0200401N001010042019N0100001N1+01371+01181101761ADDAA106000091GF107991071011004501001001MA1999999101311MD1210031+9999REMSYN066AAXX  04121 58477 32460 70401 10137 20118 30131 40176 52003 87100;EQDQ01  00002PRCP06
0124584770999992000010415004+30030+122120FM-12+003799999V0201401N002010042019N0090001N1+01431+01281101661ADDGF107991071011004501999999MD1710091+9999MW1101REMSYN066AAXX  04151 58477 41459 71402 10143 20128 40166 57009 71000 871//;
0198584770999992000010418004+30030+122120FM-12+003799999V0209999C000010042019N0070001N1+01351+01281101551ADDAA106000091GF105991051011004501001001KA1999M+01781MA1999999101111MD1710111+9999MW1101REMSYN082AAXX  04181 58477 31457 50000 10135 20128 30111 40155 57011 71000 85100 333 10178;EQDQ01  00002PRCP06
0124584770999992000010421004+30030+122120FM-12+003799999V0203401N001012200019N0050001N1+01261+01221101371ADDGF102991021011004501001001MD1710181+9999MW1101REMSYN066AAXX  04211 58477 41450 23401 10126 20122 40137 57018 71000 82100;
0185584770999992000010500004+30030+122120FM-12+003799999V0203401N002019999999N0050001N1+01231+01171101401ADDAA106000091GF107991071001999999041999MA1999999100961MD1210031+0061MW1101REMSYN082AAXX  05001 58477 31950 73402 10123 20117 30096 40140 52003 71000 8704/ 333 05602;EQDQ01  00002PRCP06
0124584770999992000010503004+30030+122120FM-12+003799999V0209999C000010360019N0070001N1+01571+01381101431ADDGF108991021051022501041999MD1210031+9999MW1101REMSYN066AAXX  05031 58477 41857 80000 10157 20138 40143 52003 71000 8254/;
0203584770999992000010506004+30030+122120FM-12+003799999V0202701N004012200019N0080001N1+02101+01091101201ADDAA106000791AY161061GA1001+999999999GF100991001001999999001001KA1999N+01191MA1999999100761MD1710231+9999MW1051REMSYN082AAXX  05061 58477 11958 02704 10210 20109 30076 40120 57023 69901 70560 333 20119;
0134584770999992000010509004+30030+122120FM-12+003799999V0203601N002012200019N0030001N1+01521+01031101301ADDGA1001+999999999GF100991001001999999001001MD1210101+9999MW1051REMSYN060AAXX  05091 58477 41930 03602 10152 20103 40130 52010 70500;
0185584770999992000010512004+30030+122120FM-12+003799999V0203201N003012200019N0020001N1+01341+01031101521ADDAA106000091GA1001+999999999GF100991001001999999001001MA1999999101081MD1210221+9999MW1101REMSYN066AAXX  05121 58477 31920 03203 10134 20103 30108 40152 52022 71000;EQDQ01  00002PRCP06
0124584770999992000010515004+30030+122120FM-12+003799999V0209999C000010012019N0015001N1+01071+00951101651ADDGF107991071061001501999999MD1210131+9999MW1101REMSYN066AAXX  05151 58477 41215 70000 10107 20095 40165 52013 71000 876//;
0164584770999992000010518004+30030+122120FM-12+003799999V0203201N003019999999N0015001N1+01061+00961101691ADDAA106000091GF108991999999000751999999MA1999999101251REMSYN081AAXX  05181 58477 31115 83203 10106 20096 30125 40169 5004 71000 886// 333 10211;EQDQ01  00002PRCP06
0145584770999992000010521004+30030+122120FM-12+003799999V0203401N003010006019N0020001N1+01011+00931101751ADDAA124000791GF108991081061000751999999MD1210051+9999MW1101REMSYN076AAXX  05211 58477 41120 83403 10101 20093 40175 52005 71000 886// 333 79999;
0140584770999992000010603004+30030+122120FM-12+003799999V0203401N003010021019N0025001N1+00891+00791102051ADDAY161031AY251031GF108991081071002501999999MD1210121+9999MW1601REMSYN066AAXX  06031 58477 41325 83403 10089 20079 40205 52012 76065 887//;
0201584770999992000010606004+30030+122120FM-12+003799999V0203601N004010042019N0090001N1+00871+00651101991ADDAA106000791AY161061AY251061GF108991081071004501999999KA1999N+00841MA1999999101541MD1710061+9999MW1601REMSYN088AAXX  06061 58477 11459 83604 10087 20065 30154 40199 57006 69901 76065 887// 333 20084;
0140584770999992000010609004+30030+122120FM-12+003799999V0203601N005010042019N0120001N1+00701+00541102281ADDAY161031AY261031GF108991081071004501999999MD1210291+9999MW1621REMSYN066AAXX  06091 58477 41462 83605 10070 20054 40228 52029 76266 887//;
0178584770999992000010612004+30030+122120FM-12+003799999V0200201N002010042019N0120001N1+00671+00561102391ADDAA106008991AY161061AY261061GF108991081071004501999999MA1999999101931MD1210101+9999MW1601REMSYN078AAXX  06121 58477 11462 80202 10067 20056 30193 40239 52010 60091 76066 887//;
0132584770999992000010615004+30030+122120FM-12+003799999V0203601N004010042019N0100001N1+00661+00481102471ADDAY161031GF108991081071004501999999MD1210081+9999MW1601REMSYN066AAXX  06151 58477 41460 83604 10066 20048 40247 52008 76060 887//;
0145584770999992000010621004+30030+122120FM-12+003799999V0203601N004010042019N0080001N1+00621+00311102501ADDAA124008991GF108991081041004501999999MD1710021+9999MW1101REMSYN076AAXX  06211 58477 41458 83604 10062 20031 40250 57002 71000 884// 333 70090;
0197584770999992000010700004+30030+122120FM-12+003799999V0203601N004010042019N0170001N1+00631+00181102631ADDAA106000091GF106991061011004501001001IA2999+00309MA1999999102171MD1210131+0701REMSYN088AAXX  07001 58477 32467 63604 10063 20018 30217 40263 52013 86100 333 00753 30030 70090;EQDQ01  00002PRCP06
0112584770999992000010703004+30030+122120FM-12+003799999V0200401N004010042019N0160001N1+00841+00181102731ADDGF107991071011004501999999MD1210101+9999REMSYN060AAXX  07031 58477 42466 70404 10084 20018 40273 52010 871//;
0186584770999992000010706004+30030+122120FM-12+003799999V0200901N005010075019N0200001N1+00951+00211102541ADDAA106000091GF107991071011008001001001KA1999N+00581MA1999999102081MD1710191+9999REMSYN076AAXX  07061 58477 32570 70905 10095 20021 30208 40254 57019 87100 333 20058;EQDQ01  00002PRCP06
0112584770999992000010709004+30030+122120FM-12+003799999V0200701N003010120019N0200001N1+00771+00211102401ADDGF107991071081008001999999MD1710141+9999REMSYN060AAXX  07091 58477 42570 70703 10077 20021 40240 57014 878//;
0163584770999992000010712004+30030+122120FM-12+003799999V0200701N002010042019N0210001N1+00761+00231102421ADDAA106000091GF107991071051004501999999MA1999999101961MD1210021+9999REMSYN066AAXX  07121 58477 32471 70702 10076 20023 30196 40242 52002 875//;EQDQ01  00002PRCP06
0112584770999992000010715004+30030+122120FM-12+003799999V0200901N003010150019N0180001N1+00811+00371102351ADDGF107991071051017501999999MD1710071+9999REMSYN060AAXX  07151 58477 42768 70903 10081 20037 40235 57007 875//;
0193584770999992000010718004+30030+122120FM-12+003799999V0200401N002010042019N0160001N1+00731+00621102211ADDAA106001091AY161061GF108991081051004501999999KA1999M+01051MA1999999101761MD1710131+9999MW1001REMSYN088AAXX  07181 58477 11466 80402 10073 20062 30176 40221 57013 69991 70060 885// 333 10105;
0153584770999992000010721004+30030+122120FM-12+003799999V0200701N003010042019N0120001N1+00781+00721102151ADDAA124001891AY161031GF108991081071004501999999MD1710071+9999MW1601REMSYN076AAXX  07211 58477 41462 80703 10078 20072 40215 57007 76060 887// 333 70018;
0186584770999992000010800004+30030+122120FM-12+003799999V0200901N002010021019N0060001N1+00851+00811102181ADDAA106004191AY161061GF108991081071002501999999MA1999999101731MD1210041-0401MW1601REMSYN094AAXX  08001 58477 11356 80902 10085 20081 30173 40218 52004 60041 76060 887// 333 05402 70045;
0140584770999992000010803004+30030+122120FM-12+003799999V0201401N004010042019N0080001N1+00961+00881102131ADDAY161031AY261031GF108991081071004501999999MD1710051+9999MW1601REMSYN066AAXX  08031 58477 41458 81404 10096 20088 40213 57005 76066 887//;
0201584770999992000010806004+30030+122120FM-12+003799999V0201101N005010042019N0090001N1+01051+00991101831ADDAA106002091AY161061AY261061GF108991081071004501999999KA1999N+00711MA1999999101381MD1710301+9999MW1601REMSYN088AAXX  08061 58477 11459 81105 10105 20099 30138 40183 57030 60021 76066 887// 333 20071;
0140584770999992000010809004+30030+122120FM-12+003799999V0200701N003010021019N0070001N1+01141+01081101751ADDAY161031AY261031GF108991081071002501999999MD1710081+9999MW1601REMSYN066AAXX  08091 58477 41357 80703 10114 20108 40175 57008 76066 887//;
0178584770999992000010812004+30030+122120FM-12+003799999V0200901N002010042019N0080001N1+01291+01231101681ADDAA106003091AY161061AY261061GF108991081071004501999999MA1999999101231MD1710071+9999MW1601REMSYN078AAXX  08121 58477 11458 80902 10129 20123 30123 40168 57007 60031 76066 887//;
0140584770999992000010815004+30030+122120FM-12+003799999V0200901N004010042019N0070001N1+01401+01381101621ADDAY161031AY261031GF108991081071004501999999MD1710061+9999MW1601REMSYN066AAXX  08151 58477 41457 80904 10140 20138 40162 57006 76066 887//;
0201584770999992000010818004+30030+122120FM-12+003799999V0209999C000010021019N0030001N1+01301+01281101481ADDAA106019191AY161061AY261061GF108991081071002501999999KA1999M+01421MA1999999101031MD1710141+9999MW1621REMSYN088AAXX  08181 58477 11330 80000 10130 20128 30103 40148 57014 60191 76266 887// 333 10142;
0161584770999992000010821004+30030+122120FM-12+003799999V0202901N006010012019N0020001N1+01181+01161101391ADDAA124029291AY161031AY261031GF108991081071001501999999MD1710091+9999MW1601REMSYN076AAXX  08211 58477 41220 82906 10118 20116 40139 57009 76066 887// 333 70292;
0186584770999992000010900004+30030+122120FM-12+003799999V0203201N004010090019N0110001N1+01071+00911101641ADDAA106003091AY161061GF107991071081004501001001MA1999999101191MD1210251-0501MW1001REMSYN094AAXX  09001 58477 11461 73204 10107 20091 30119 40164 52025 60031 70060 87800 333 05502 70266;
0124584770999992000010903004+30030+122120FM-12+003799999V0202901N004010090019N0060001N1+01211+00951101721ADDGF107991071081004501999999MD1210091+9999MW1101REMSYN066AAXX  09031 58477 41456 72904 10121 20095 40172 52009 71000 878//;
0124584770999992000010909004+30030+122120FM-12+003799999V0203401N004012200019N0090001N1+00981+00611101791ADDGF103991011011004501001021MD1210181+9999MW1101REMSYN066AAXX  09091 58477 41459 33404 10098 20061 40179 52018 71000 81102;
0163584770999992000010912004+30030+122120FM-12+003799999V0202901N006010042019N0100001N1+00881+00501102051ADDAA106000091GF106991061011004501001001MA1999999101601MD1210261+9999REMSYN066AAXX  09121 58477 32460 62906 10088 20050 30160 40205 52026 86100;EQDQ01  00002PRCP06
0124584770999992000010915004+30030+122120FM-12+003799999V0202901N006010042019N0070001N1+00751+00521102091ADDGF105991051041004501001001MD1210041+9999MW1101REMSYN066AAXX  09151 58477 41457 52906 10075 20052 40209 52004 71000 85400;
0198584770999992000010918004+30030+122120FM-12+003799999V0202901N002010042019N0070001N1+00751+00591102061ADDAA106000091GF107991071041004501001999KA1999M+01301MA1999999101611MD1710031+9999MW1101REMSYN082AAXX  09181 58477 31457 72902 10075 20059 30161 40206 57003 71000 8740/ 333 10130;EQDQ01  00002PRCP06
0145584770999992000010921004+30030+122120FM-12+003799999V0202701N004010021019N0030001N1+00781+00671102161ADDAA124000191GF108991081061002501999999MD1210101+9999MW1101REMSYN076AAXX  09211 58477 41330 82704 10078 20067 40216 52010 71000 886// 333 70001;
0194584770999992000011000004+30030+122120FM-12+003799999V0203201N004010021019N0030001N1+00771+00661102391ADDAA106000791AY161061AY251061GF108991081061002501999999MA1999999101931MD1210221+0701MW1211REMSYN094AAXX  10001 58477 11330 83204 10077 20066 30193 40239 52022 69901 72165 886// 333 00753 79999;
0132584770999992000011003004+30030+122120FM-12+003799999V0203201N003010042019N0050001N1+00961+00771102451ADDAY161031GF108991081041004501999999MD1210061+9999MW1101REMSYN066AAXX  10031 58477 41450 83203 10096 20077 40245 52006 71060 884//;
0193584770999992000011006004+30030+122120FM-12+003799999V0203601N001010042019N0100001N1+01191+00911102231ADDAA106000791AY161061GF108991081041004501999999KA1999N+00701MA1999999101781MD1710211+9999MW1001REMSYN088AAXX  10061 58477 11460 83601 10119 20091 30178 40223 57021 69901 70060 884// 333 20070;
0112584770999992000011009004+30030+122120FM-12+003799999V0200401N003010042019N0160001N1+01181+00791102331ADDGF108991081041004501999999MD1210101+9999REMSYN060AAXX  10091 58477 42466 80403 10118 20079 40233 52010 884//;
0163584770999992000011012004+30030+122120FM-12+003799999V0200701N004010042019N0160001N1+01131+00761102431ADDAA106000091GF108991081041004501999999MA1999999101981MD1210101+9999REMSYN066AAXX  10121 58477 32466 80704 10113 20076 30198 40243 52010 884//;EQDQ01  00002PRCP06
0124584770999992000011015004+30030+122120FM-12+003799999V0200701N004010042019N0150001N1+01111+00761102441ADDGF108991081041004501999999MD1210011+9999MW1601REMSYN066AAXX  10151 58477 41465 80704 10111 20076 40244 52001 76000 884//;
0193584770999992000011018004+30030+122120FM-12+003799999V0200701N004010042019N0130001N1+01091+00711102291ADDAA106000791AY161061GF108991081041004501999999KA1999M+01241MA1999999101841MD1710151+9999MW1001REMSYN088AAXX  10181 58477 11463 80704 10109 20071 30184 40229 57015 69901 70060 884// 333 10124;
0153584770999992000011021004+30030+122120FM-12+003799999V0200701N005012200019N0150001N1+01001+00701102051ADDAA124000791AY161031GF103991011041004501001021MD1710241+9999MW1001REMSYN076AAXX  10211 58477 41465 30705 10100 20070 40205 57024 70060 81402 333 79999;
0160584770999992000011100004+30030+122120FM-12+003799999V0200701N004019999999N0120001N1+01121+00771102041ADDGF107991999999004501999999MA1999999101591MD1710011-0301REMSYN093AAXX  11001 58477 11462 70704 10112 20077 30159 40204 57001 6990 70060 875// 333 05304 79999;
0132584770999992000011103004+30030+122120FM-12+003799999V0201101N003010042019N0100001N1+01231+00891101981ADDAY161031GF108991081051004501999999MD1710061+9999MW1601REMSYN066AAXX  11031 58477 41460 81103 10123 20089 40198 57006 76060 885//;
0193584770999992000011106004+30030+122120FM-12+003799999V0201401N003010042019N0160001N1+01271+01081101521ADDAA106000891AY161061GF108991081051004501999999KA1999N+00961MA1999999101071MD1710461+9999MW1211REMSYN088AAXX  11061 58477 11466 81403 10127 20108 30107 40152 57046 69981 72160 885// 333 20096;
0112584770999992000011109004+30030+122120FM-12+003799999V0201801N003010042019N0180001N1+01401+01181101471ADDGF108991081041004501999999MD1710051+9999REMSYN060AAXX  11091 58477 42468 81803 10140 20118 40147 57005 884//;
0170584770999992000011112004+30030+122120FM-12+003799999V0209999C000010042019N0040001N1+01331+01281101461ADDAA106000791AY161061GF108991081071004501999999MA1999999101021MD1410001+9999MW1601REMSYN078AAXX  11121 58477 11440 80000 10133 20128 30102 40146 54000 69901 76060 887//;
0140584770999992000011115004+30030+122120FM-12+003799999V0209999C000010021019N0025001N1+01351+01311101431ADDAY161031AY261031GF108991081071002501999999MD1710031+9999MW1601REMSYN066AAXX  11151 58477 41325 80000 10135 20131 40143 57003 76066 887//;
0193584770999992000011118004+30030+122120FM-12+003799999V0203401N005010021019N0040001N1+01151+01071101471ADDAA106007191AY161061GF108991081071002501999999KA1999M+01411MA1999999101021MD1210031+9999MW1601REMSYN088AAXX  11181 58477 11340 83405 10115 20107 30102 40147 52003 60071 76060 887// 333 10141;
0153584770999992000011121004+30030+122120FM-12+003799999V0202901N008010042019N0040001N1+00961+00841101421ADDAA124007491AY161031GF108991081041004501999999MD1710051+9999MW1101REMSYN076AAXX  11211 58477 41440 82908 10096 20084 40142 57005 71060 884// 333 70073;
0186584770999992000011200004+30030+122120FM-12+003799999V0202901N007010042019N0120001N1+00921+00691101561ADDAA106000791AY161061GF108991081041004501999999MA1999999101111MD1210141-0501MW1001REMSYN094AAXX  12001 58477 11462 82907 10092 20069 30111 40156 52014 69901 70060 884// 333 05552 70073;
0132584770999992000011203004+30030+122120FM-12+003799999V0203201N010010042019N0170001N1+00781+00561101751ADDAY161031GF108991081071004501999999MD1210191+9999MW1601REMSYN066AAXX  12031 58477 41467 83210 10078 20056 40175 52019 76060 887//;
0216584770999992000011206004+30030+122120FM-12+003799999V0202901N010010042019N0120001N1+00761+00511101531ADDAA106000191AY161061GF108991081041004501999999KA1240N+00741MA1999999101081MD1710221+9999MW1001OA130601801REMSYN100AAXX  12061 58477 11462 82910 10076 20051 30108 40153 57022 69911 70060 884// 333 20074 91118 91529;
0124584770999992000011209004+30030+122120FM-12+003799999V0203201N008010042019N0060001N1+00701+00491101741ADDGF108991081041004501999999MD1210211+9999MW1101REMSYN066AAXX  12091 58477 41456 83208 10070 20049 40174 52021 71000 884//;
0197584770999992000011212004+30030+122120FM-12+003799999V0202901N007010021019N0035001N1+00591+00471101991ADDAA106000191AY161061GF108991081071002501999999MA1999999101541MD1210251+9999MW1601OA130601701REMSYN094AAXX  12121 58477 11335 82907 10059 20047 30154 40199 52025 69911 76060 887// 333 91117 91529;
0140584770999992000011215004+30030+122120FM-12+003799999V0203201N008010021019N0050001N1+00591+00451101911ADDAY161031AY261031GF108991081071002501999999MD1710091+9999MW1601REMSYN066AAXX  12151 58477 41350 83208 10059 20045 40191 57009 76066 887//;
0201584770999992000011218004+30030+122120FM-12+003799999V0202901N004010021019N0040001N1+00571+00481101911ADDAA106000591AY161061AY261061GF108991081071002501999999KA1999M+01161MA1999999101451MD1410001+9999MW1601REMSYN088AAXX  12181 58477 11340 82904 10057 20048 30145 40191 54000 69941 76066 887// 333 10116;
0161584770999992000011221004+30030+122120FM-12+003799999V0203401N004010042019N0050001N1+00551+00411101911ADDAA124002391AY161031AY261031GF108991081071004501999999MD1410001+9999MW1601REMSYN076AAXX  12211 58477 41450 83404 10055 20041 40191 54000 76066 887// 333 70022;
0186584770999992000011300004+30030+122120FM-12+003799999V0203401N005010042019N0070001N1+00581+00341102031ADDAA106002091AY161061GF108991081041004501999999MA1999999101571MD1210121+0501MW1101REMSYN094AAXX  13001 58477 11457 83405 10058 20034 30157 40203 52012 60021 71060 884// 333 00553 70022;
0112584770999992000011303004+30030+122120FM-12+003799999V0203401N005019999999N0160001N1+00571+00221102201ADDGF108991041041004501999999MD1210171+9999REMSYN060AAXX  13031 58477 42466 83405 10057 20022 40220 52017 844//;
0186584770999992000011306004+30030+122120FM-12+003799999V0203201N003010042019N0140001N1+00581+00181102101ADDAA106000091GF108991081041004501999999KA1999N+00511MA1999999101641MD1710101+9999REMSYN076AAXX  13061 58477 32464 83203 10058 20018 30164 40210 57010 884// 333 20051;EQDQ01  00002PRCP06
0112584770999992000011309004+30030+122120FM-12+003799999V0203601N003010042019N0120001N1+00531+00121102131ADDGF108991081041004501999999MD1210031+9999REMSYN060AAXX  13091 58477 42462 83603 10053 20012 40213 52003 884//;
0162584770999992000011312004+30030+122120FM-12+003799999V0203601N004010042019N0110001N1+00571+00201102211ADDAA106000791GF108991081041004501999999MA1999999101751MD1210081+9999MW1601REMSYN078AAXX  13121 58477 11461 83604 10057 20020 30175 40221 52008 69901 76000 884//;
0132584770999992000011315004+30030+122120FM-12+003799999V0202901N004010042019N0110001N1+00521+00191102241ADDAY161031GF108991081041004501999999MD1210031+9999MW1001REMSYN066AAXX  13151 58477 41461 82904 10052 20019 40224 52003 70060 884//;
0193584770999992000011318004+30030+122120FM-12+003799999V0203601N004010042019N0090001N1+00531+00151102231ADDAA106000791AY161061GF108991081041004501999999KA1999M+00641MA1999999101771MD1710011+9999MW1101REMSYN088AAXX  13181 58477 11459 83604 10053 20015 30177 40223 57001 69901 71060 884// 333 10064;
0157584770999992000011321004+30030+122120FM-12+003799999V0203601N004010042019N0100001N1+00491+00211102231ADDAA124000191AY161031GF108991081071004501999999MD1410001+9999MW1211REMSYN080    AAXX  13211 58477 41460 83604 10049 20021 40223 54000 72160 887// 333 70001;
0208584770999992000011400004+30030+122120FM-12+003799999V0203601N004010042019N0090001N1+00551+00171102401ADDAA106000191AY161061GF108991081041004501999999IA2999+00419MA1999999101941MD1210171+0401MW1101REMSYN104    AAXX  14001 58477 11459 83604 10055 20017 30194 40240 52017 69911 71060 884// 333 00400 30041 70001;
0136584770999992000011403004+30030+122120FM-12+003799999V0203401N004010042019N0060001N1+00471+00271102511ADDAY161031GF108991081071004501999999MD1210111+9999MW1601REMSYN070    AAXX  14031 58477 41456 83404 10047 20027 40251 52011 76060 887//;
0197584770999992000011406004+30030+122120FM-12+003799999V0203401N006010090019N0100001N1+00611+00131102331ADDAA106000791AY161061GF108991081081004501999999KA1999N+00441MA1999999101871MD1710181+9999MW1001REMSYN092    AAXX  14061 58477 11460 83406 10061 20013 30187 40233 57018 69901 70060 888// 333 20044;
0116584770999992000011409004+30030+122120FM-12+003799999V0203601N004010090019N0110001N1+00581+00151102301ADDGF108991081081004501999999MD1710031+9999REMSYN064    AAXX  14091 58477 42461 83604 10058 20015 40230 57003 888//;
0148584770999992000011412004+30030+122120FM-12+003799999V0203601N004010090019N0120001N1+00621+00231102391ADDAA199000021GF108991081081004501999999MA1999999101931MD1210091+9999REMSYN070    AAXX  14121 58477 32462 83604 10062 20023 30193 40239 52009 888//;
0116584770999992000011415004+30030+122120FM-12+003799999V0200401N002010090019N0140001N1+00671+00281102311ADDGF108991081081004501999999MD1710081+9999REMSYN064    AAXX  14151 58477 42464 80402 10067 20028 40231 57008 888//;
0189584770999992000011418004+30030+122120FM-12+003799999V0200701N002010042019N0160001N1+00671+00411102281ADDAA106001091GF108991081051004501999999KA1999M+00781MA1999999101821MD1710031+9999MW1601REMSYN092    AAXX  14181 58477 11466 80702 10067 20041 30182 40228 57003 60011 76000 885// 333 10078;
0165584770999992000011421004+30030+122120FM-12+003799999V0203601N003010042019N0130001N1+00661+00481102221ADDAA124004391AY161031AY261031GF108991081071004501999999MD1710061+9999MW1601REMSYN080    AAXX  14211 58477 41463 83603 10066 20048 40222 57006 76066 887// 333 70043;
0216584770999992000011500004+30030+122120FM-12+003799999V0200401N002010042019N0090001N1+00731+00621102271ADDAA106008991AY161061AY261061GF108991081071004501999999IA2999+00409MA1999999101811MD1210051-0101MW1601REMSYN104    AAXX  15001 58477 11459 80402 10073 20062 30181 40227 52005 60091 76066 887// 333 05102 30040 70103;
0144584770999992000011503004+30030+122120FM-12+003799999V0200701N004010042019N0090001N1+00851+00771102241ADDAY161031AY261031GF108991081071004501999999MD1710031+9999MW1601REMSYN070    AAXX  15031 58477 41459 80704 10085 20077 40224 57003 76066 887//;
0205584770999992000011506004+30030+122120FM-12+003799999V0200401N003010042019N0250001N1+00991+00781101901ADDAA106005191AY161061AY261061GF108991081071004501999999KA1999N+00561MA1999999101451MD1710331+9999MW1211REMSYN092    AAXX  15061 58477 11475 80403 10099 20078 30145 40190 57033 60051 72166 887// 333 20056;
0136584770999992000011509004+30030+122120FM-12+003799999V0200701N002010042019N0180001N1+00891+00761101881ADDAY161031GF108991081071004501999999MD1710021+9999MW1601REMSYN070    AAXX  15091 58477 41468 80702 10089 20076 40188 57002 76060 887//;
0174584770999992000011512004+30030+122120FM-12+003799999V0200401N003010042019N0180001N1+00921+00841102021ADDAA106002091AY161061GF108991081071004501999999MA1999999101571MD1210141+9999MW1601REMSYN082    AAXX  15121 58477 11468 80403 10092 20084 30157 40202 52014 60021 76060 887//;
0144584770999992000011515004+30030+122120FM-12+003799999V0200201N003010042019N0160001N1+00951+00871102041ADDAY161031AY261031GF108991081071004501999999MD1210021+9999MW1601REMSYN070    AAXX  15151 58477 41466 80203 10095 20087 40204 52002 76066 887//;
0205584770999992000011518004+30030+122120FM-12+003799999V0200401N003010042019N0130001N1+00951+00891102001ADDAA106001091AY161061AY261061GF108991081071004501999999KA1999M+01001MA1999999101551MD1710041+9999MW1601REMSYN092    AAXX  15181 58477 11463 80403 10095 20089 30155 40200 57004 60011 76066 887// 333 10100;
0165584770999992000011521004+30030+122120FM-12+003799999V0200201N007010042019N0120001N1+00891+00811101961ADDAA124014291AY161031AY261031GF108991081071004501999999MD1710041+9999MW1601REMSYN080    AAXX  15211 58477 41462 80207 10089 20081 40196 57004 76066 887// 333 70143;
0198584770999992000011600004+30030+122120FM-12+003799999V0203601N005010042019N0170001N1+00811+00661102261ADDAA106001091AY161061AY261061GF108991081071004501999999MA1999999101811MD1210301+0001MW1601REMSYN098    AAXX  16001 58477 11467 83605 10081 20066 30181 40226 52030 60011 76066 887// 333 00001 70088;
0144584770999992000011603004+30030+122120FM-12+003799999V0203601N005010042019N0100001N1+00791+00661102371ADDAY161031AY261031GF108991081071004501999999MD1210111+9999MW1601REMSYN070    AAXX  16031 58477 41460 83605 10079 20066 40237 52011 76066 887//;
0205584770999992000011606004+30030+122120FM-12+003799999V0203601N004010042019N0160001N1+00671+00531102261ADDAA106002091AY161061AY261061GF108991081071004501999999KA1999N+00661MA1999999101811MD1710111+9999MW1601REMSYN092    AAXX  16061 58477 11466 83604 10067 20053 30181 40226 57011 60021 76066 887// 333 20066;
0144584770999992000011609004+30030+122120FM-12+003799999V0203401N004010042019N0200001N1+00681+00421102281ADDAY161031AY261031GF108991081071004501999999MD1210011+9999MW1211REMSYN070    AAXX  16091 58477 41470 83404 10068 20042 40228 52001 72166 887//;
0174584770999992000011612004+30030+122120FM-12+003799999V0200201N003010042019N0200001N1+00651+00311102431ADDAA106000791AY161061GF108991081041004501999999MA1999999101971MD1210151+9999MW1001REMSYN082    AAXX  16121 58477 11470 80203 10065 20031 30197 40243 52015 69901 70060 884//;
0116584770999992000011615004+30030+122120FM-12+003799999V0203601N006010042019N0250001N1+00631+00321102431ADDGF108991081051004501999999MD1410001+9999REMSYN064    AAXX  16151 58477 42475 83606 10063 20032 40243 54000 885//;
0189584770999992000011618004+30030+122120FM-12+003799999V0203401N002010042019N0130001N1+00511+00291102451ADDAA106000391GF108991081071004501999999KA1999M+00961MA1999999101991MD1210021+9999MW1601REMSYN092    AAXX  16181 58477 11463 83402 10051 20029 30199 40245 52002 69931 76000 887// 333 10096;
0165584770999992000011621004+30030+122120FM-12+003799999V0203401N004010021019N0100001N1+00401+00251102461ADDAA124003891AY161031AY261031GF108991081071002501999999MD1210011+9999MW1601REMSYN080    AAXX  16211 58477 41360 83404 10040 20025 40246 52001 76066 887// 333 70038;
0216584770999992000011700004+30030+122120FM-12+003799999V0203401N003010042019N0110001N1+00411+00151102541ADDAA106002091AY161061AY261061GF108991081071004501999999IA2999+00379MA1999999102081MD1210081+0301MW1211REMSYN104    AAXX  17001 58477 11461 83403 10041 20015 30208 40254 52008 60021 72166 887// 333 00354 30037 70036;
0116584770999992000011703004+30030+122120FM-12+003799999V0203401N005010042019N0110001N1+00461+00101102681ADDGF107991071041004501999999MD1210141+9999REMSYN064    AAXX  17031 58477 42461 73405 10046 20010 40268 52014 874//;
0171584770999992000011706004+30030+122120FM-12+003799999V0203201N004010090019N0110001N1+00601-00031102431ADDAA199000021GF107991071081004501999999KA1999N+00361MA1999999101971MD1710251+9999REMSYN080    AAXX  17061 58477 32461 73204 10060 21003 30197 40243 57025 878// 333 20036;
0128584770999992000011709004+30030+122120FM-12+003799999V0203201N003010042019N0090001N1+00461-00151102471ADDGF107991071041004501999999MD1210041+9999MW1101REMSYN070    AAXX  17091 58477 41459 73203 10046 21015 40247 52004 71000 874//;
0160584770999992000011712004+30030+122120FM-12+003799999V0200201N005010360019N0080001N1+00431-00261102611ADDAA199000021GF107991041041004501041999MA1999999102151MD1210141+9999MW1051REMSYN076    AAXX  17121 58477 31458 70205 10043 21026 30215 40261 52014 70500 8444/;
0116584770999992000011715004+30030+122120FM-12+003799999V0203201N003010042019N0120001N1+00351-00191102621ADDGF107991051011004501041999MD1210011+9999REMSYN064    AAXX  17151 58477 42462 73203 10035 21019 40262 52001 8514/;
0190584770999992000011718004+30030+122120FM-12+003799999V0203401N003010042019N0120001N1+00301-00291102651ADDAA199000091GF108991051011004501071999KA1999M+00661MA1999999102191MD1210031+9999REMSYN080    AAXX  17181 58477 32462 83403 10030 21029 30219 40265 52003 8517/ 333 10066;EQDQ01  00002PRCP99
0137584770999992000011721004+30030+122120FM-12+003799999V0203401N004010042019N0170001N1+00281-00211102541ADDAA124000391GF108991061011004501071999MD1710111+9999REMSYN074    AAXX  17211 58477 42467 83404 10028 21021 40254 57011 8617/ 333 70003;
0195584770999992000011800004+30030+122120FM-12+003799999V0203401N003010042019N0160001N1+00301-00151102641ADDAA199000091GF107991061011004501041001IA2999+00109MA1999999102181MD1210101+0101REMSYN086    AAXX  18001 58477 32466 73403 10030 21015 30218 40264 52010 86140 333 00151 30011;EQDQ01  00002PRCP99
0116584770999992000011803004+30030+122120FM-12+003799999V0203401N006010075019N0160001N1+00501-00301102701ADDGF106991061011008001001001MD1210061+9999REMSYN064    AAXX  18031 58477 42566 63406 10050 21030 40270 52006 86100;
0202584770999992000011806004+30030+122120FM-12+003799999V0203401N007012200019N0080001N1+00521-00391102481ADDAA199000091GF103991031011004501001001KA1999N+00261MA1999999102021MD1710221+9999MW1051REMSYN086    AAXX  18061 58477 31458 33407 10052 21039 30202 40248 57022 70500 83100 333 20026;EQDQ01  00002PRCP99
0128584770999992000011809004+30030+122120FM-12+003799999V0202901N005012200019N0050001N1+00361-00211102511ADDGF103991031011004501001001MD1210031+9999MW1051REMSYN070    AAXX  18091 58477 41450 32905 10036 21021 40251 52003 70500 83100;
0179584770999992000011812004+30030+122120FM-12+003799999V0203201N004010042019N0050001N1+00301-00121102651ADDAA199000091GF107991071041004501001001MA1999999102181MD1210131+9999MW1101REMSYN076    AAXX  18121 58477 31450 73204 10030 21012 30218 40265 52013 71000 87400;EQDQ01  00002PRCP99
0128584770999992000011815004+30030+122120FM-12+003799999V0203201N006010042019N0050001N1+00361-00211102681ADDGF107991071041004501999999MD1210041+9999MW1101REMSYN070    AAXX  18151 58477 41450 73206 10036 21021 40268 52004 71000 874//;
0202584770999992000011818004+30030+122120FM-12+003799999V0203201N005010042019N0040001N1+00321-00261102701ADDAA199000091GF107991071041004501999999KA1999M+00601MA1999999102241MD1210021+9999MW1101REMSYN086    AAXX  18181 58477 31440 73205 10032 21026 30224 40270 52002 71000 874// 333 10060;EQDQ01  00002PRCP99
0128584770999992000011821004+30030+122120FM-12+003799999V0202901N004010042019N0040001N1+00171-00281102721ADDGF107991071041004501999999MD1210011+9999MW1101REMSYN070    AAXX  18211 58477 41440 72904 10017 21028 40272 52001 71000 874//;
0207584770999992000011900004+30030+122120FM-12+003799999V0203201N004010042019N0040001N1+00221-00251102891ADDAA199000091GF107991071041004501999999IA2999+00009MA1999999102421MD1210171+0201MW1051REMSYN092    AAXX  19001 58477 31440 73204 10022 21025 30242 40289 52017 70500 874// 333 00251 31008;EQDQ01  00002PRCP99
0128584770999992000011903004+30030+122120FM-12+003799999V0203201N004010042019N0050001N1+00471-00241103021ADDGF107991071041004501001001MD1210141+9999MW1051REMSYN070    AAXX  19031 58477 41450 73204 10047 21024 40302 52014 70500 87400;
0202584770999992000011906004+30030+122120FM-12+003799999V0203401N006010042019N0060001N1+00491-00471102891ADDAA199000091GF106991061011004501001001KA1999N+00151MA1999999102431MD1710131+9999MW1051REMSYN086    AAXX  19061 58477 31456 63406 10049 21047 30243 40289 57013 70500 86100 333 20015;EQDQ01  00002PRCP99
0116584770999992000011909004+30030+122120FM-12+003799999V0203201N006010900019N0130001N1+00371-00851103001ADDGF106991011011004501001021MD1210101+9999REMSYN064    AAXX  19091 58477 42463 63206 10037 21085 40300 52010 81102;
0167584770999992000011912004+30030+122120FM-12+003799999V0203601N002010360019N0140001N1+00231-00861103191ADDAA199000091GF106991011011004501041021MA1999999102721MD1210191+9999REMSYN070    AAXX  19121 58477 32464 63602 10023 21086 30272 40319 52019 81142;EQDQ01  00002PRCP99
0112584770999992000011915004+30030+122120FM-12+003799999V0203401N002010360019N0160001N1+00081-01001103251ADDGF106991011011004501041021MD1210061+9999REMSYN060AAXX  19151 58477 42466 63402 10008 21100 40325 52006 81142;
0186584770999992000011918004+30030+122120FM-12+003799999V0203401N002019999999N0220001N1-00041-00841103291ADDAA199000091GF106991001001999999001021KA1999M+00601MA1999999102821MD1210041+9999REMSYN076AAXX  19181 58477 32972 63402 11004 21084 30282 40329 52004 80002 333 10060;EQDQ01  00002PRCP99
0122584770999992000011921004+30030+122120FM-12+003799999V0203601N002012200019N0300001N1-00071-00991103331ADDGA1001+999999999GF100991001001999999001001MD1210041+9999REMSYN054AAXX  19211 58477 42980 03602 11007 21099 40333 52004;
0201584770999992000012000004+30030+122120FM-12+003799999V0203401N001012200019N0300001N1+00061-00641103521ADDAA199000091GA1001+999999999GF100991001001999999001001IA2999-00309MA1999999103051MD1210191+0601REMSYN076AAXX  20001 58477 32980 03401 10006 21064 30305 40352 52019 333 00652 31031;EQDQ01  00002PRCP99
0112584770999992000012003004+30030+122120FM-12+003799999V0200201N003012200019N0300001N1+00411-00481103591ADDGF102991021011004501001001MD1210071+9999REMSYN060AAXX  20031 58477 42480 20203 10041 21048 40359 52007 82100;
0186584770999992000012006004+30030+122120FM-12+003799999V0203401N004012200019N0250001N1+00451-00501103511ADDAA199000091GF103991031011004501001001KA1999N-00121MA1999999103041MD1710081+9999REMSYN076AAXX  20061 58477 32475 33404 10045 21050 30304 40351 57008 83100 333 21012;EQDQ01  00002PRCP99
0112584770999992000012009004+30030+122120FM-12+003799999V0203601N003012200019N0300001N1+00341-00381103601ADDGF102991021011004501001021MD1210091+9999REMSYN060AAXX  20091 58477 42480 23603 10034 21038 40360 52009 82102;
0163584770999992000012012004+30030+122120FM-12+003799999V0203601N003012200019N0300001N1+00271-00331103681ADDAA199000091GF101991011011004501001021MA1999999103211MD1210081+9999REMSYN066AAXX  20121 58477 32480 13603 10027 21033 30321 40368 52008 81102;EQDQ01  00002PRCP99
0112584770999992000012015004+30030+122120FM-12+003799999V0203601N002012200019N0300001N1+00241-00261103711ADDGF101991011001999999041001MD1210031+9999REMSYN060AAXX  20151 58477 42980 13602 10024 21026 40371 52003 81040;
0186584770999992000012018004+30030+122120FM-12+003799999V0209999C000012200019N0300001N1+00041-00171103741ADDAA199000091GF102991021001999999041001KA1999M+00611MA1999999103271MD1210031+9999REMSYN076AAXX  20181 58477 32980 20000 10004 21017 30327 40374 52003 82040 333 10061;EQDQ01  00002PRCP99
0112584770999992000012021004+30030+122120FM-12+003799999V0203401N003010150019N0250001N1+00341-00141103751ADDGF107991071051017501999999MD1210011+9999REMSYN060AAXX  20211 58477 42775 73403 10034 21014 40375 52001 875//;
0191584770999992000012100004+30030+122120FM-12+003799999V0200201N001010120019N0180001N1+00401+00051103781ADDAA199000091GF107991071051012501999999IA2999-00109MA1999999103311MD1210031+0301REMSYN082AAXX  21001 58477 32668 70201 10040 20005 30331 40378 52003 875// 333 00303 31015;EQDQ01  00002PRCP99
0112584770999992000012103004+30030+122120FM-12+003799999V0200401N004010120019N0160001N1+00861-00051103771ADDGF107991071081008001999999MD1710011+9999REMSYN060AAXX  21031 58477 42566 70404 10086 21005 40377 57001 878//;
0186584770999992000012106004+30030+122120FM-12+003799999V0200701N003010120019N0220001N1+00871+00011103531ADDAA199000091GF107991071081008001999999KA1999N+00011MA1999999103061MD1710241+9999REMSYN076AAXX  21061 58477 32572 70703 10087 20001 30306 40353 57024 878// 333 20001;EQDQ01  00002PRCP99
0112584770999992000012109004+30030+122120FM-12+003799999V0200701N003010150019N0250001N1+00721+00111103471ADDGF107991061051017501041999MD1710051+9999REMSYN060AAXX  21091 58477 42775 70703 10072 20011 40347 57005 8654/;
0163584770999992000012112004+30030+122120FM-12+003799999V0201101N001010150019N0250001N1+00691+00111103491ADDAA199000091GF108991071051017501071999MA1999999103031MD1210021+9999REMSYN066AAXX  21121 58477 32775 81101 10069 20011 30303 40349 52002 8757/;EQDQ01  00002PRCP99
0112584770999992000012115004+30030+122120FM-12+003799999V0201401N002010042019N0250001N1+00781+00191103341ADDGF108991081051004501999999MD1710151+9999REMSYN060AAXX  21151 58477 42475 81402 10078 20019 40334 57015 885//;
0186584770999992000012118004+30030+122120FM-12+003799999V0200901N003010042019N0300001N1+00831+00331103141ADDAA199000091GF107991071051004501999999KA1999M+00901MA1999999102681MD1710201+9999REMSYN076AAXX  21181 58477 32480 70903 10083 20033 30268 40314 57020 875// 333 10090;EQDQ01  00002PRCP99
0112584770999992000012121004+30030+122120FM-12+003799999V0201101N003010042019N0250001N1+00881+00471102881ADDGF108991081051004501999999MD1710261+9999REMSYN060AAXX  21211 58477 42475 81103 10088 20047 40288 57026 885//;
0191584770999992000012200004+30030+122120FM-12+003799999V0209999C000010042019N0300001N1+00981+00661102831ADDAA199000091GF108991081051004501999999IA2999+00409MA1999999102371MD1710051-0901REMSYN082AAXX  22001 58477 32480 80000 10098 20066 30237 40283 57005 885// 333 05906 30048;EQDQ01  00002PRCP99
0132584770999992000012203004+30030+122120FM-12+003799999V0209999C000010120019N0300001N1+01111+00821102711ADDAY161031GF108991081051012501999999MD1710111+9999MW1211REMSYN066AAXX  22031 58477 41680 80000 10111 20082 40271 57011 72160 885//;
0193584770999992000012206004+30030+122120FM-12+003799999V0202701N002010120019N0140001N1+01221+01031102321ADDAA106000891AY161061GF108991081051012501999999KA1999N+00651MA1999999101871MD1710391+9999MW1601REMSYN088AAXX  22061 58477 11664 82702 10122 20103 30187 40232 57039 69971 76060 885// 333 20065;
0132584770999992000012209004+30030+122120FM-12+003799999V0209999C000010120019N0090001N1+01121+01021102281ADDAY161031GF108991081051012501999999MD1710041+9999MW1101REMSYN066AAXX  22091 58477 41659 80000 10112 20102 40228 57004 71060 885//;
0170584770999992000012212004+30030+122120FM-12+003799999V0209999C000010042019N0060001N1+00981+00921102381ADDAA106000591AY161061GF108991081071004501999999MA1999999101931MD1210101+9999MW1601REMSYN078AAXX  22121 58477 11456 80000 10098 20092 30193 40238 52010 69961 76060 887//;
0140584770999992000012215004+30030+122120FM-12+003799999V0203401N003010042019N0090001N1+00821+00761102431ADDAY161031AY261031GF108991081051004501999999MD1210051+9999MW1211REMSYN066AAXX  22151 58477 41459 83403 10082 20076 40243 52005 72166 885//;
0193584770999992000012218004+30030+122120FM-12+003799999V0203601N002010042019N0040001N1+00771+00711102431ADDAA106003091AY161061GF108991081061004501999999KA1999M+01231MA1999999101981MD1410001+9999MW1101REMSYN088AAXX  22181 58477 11440 83602 10077 20071 30198 40243 54000 60031 71060 886// 333 10123;
0145584770999992000012221004+30030+122120FM-12+003799999V0203401N002010021019N0040001N1+00741+00671102441ADDAA124004191GF108991081051002501999999MD1210011+9999MW1101REMSYN076AAXX  22211 58477 41340 83402 10074 20067 40244 52001 71000 885// 333 70040;
0186584770999992000012300004+30030+122120FM-12+003799999V0203401N004010012019N0030001N1+00651+00581102631ADDAA106000191AY151061GF108991081071001501999999MA1999999102171MD1210181-0201MW1601REMSYN094AAXX  23001 58477 11230 83404 10065 20058 30217 40263 52018 69921 76050 887// 333 05253 70042;
0140584770999992000012303004+30030+122120FM-12+003799999V0203601N003010021019N0050001N1+00631+00491102611ADDAY161031AY261031GF108991081071002501999999MD1710021+9999MW1601REMSYN066AAXX  23031 58477 41350 83603 10063 20049 40261 57002 76066 887//;
0201584770999992000012306004+30030+122120FM-12+003799999V0203401N004010012019N0040001N1+00641+00601102431ADDAA106004191AY161061AY261061GF108991081071001501999999KA1999N+00601MA1999999101971MD1710181+9999MW1601REMSYN088AAXX  23061 58477 11240 83404 10064 20060 30197 40243 57018 60041 76066 887// 333 20060;
0132584770999992000012309004+30030+122120FM-12+003799999V0203601N004010042019N0070001N1+00581+00391102471ADDAY161031GF108991081041004501999999MD1210041+9999MW1101REMSYN066AAXX  23091 58477 41457 83604 10058 20039 40247 52004 71060 884//;
0170584770999992000012312004+30030+122120FM-12+003799999V0200201N002010042019N0070001N1+00631+00491102621ADDAA106000191AY161061GF108991081071004501999999MA1999999102161MD1210151+9999MW1601REMSYN078AAXX  23121 58477 11457 80202 10063 20049 30216 40262 52015 69911 76060 887//;
0140584770999992000012315004+30030+122120FM-12+003799999V0203401N002010042019N0060001N1+00611+00541102671ADDAY161031AY261031GF108991081071004501999999MD1210051+9999MW1601REMSYN066AAXX  23151 58477 41456 83402 10061 20054 40267 52005 76066 887//;
0201584770999992000012318004+30030+122120FM-12+003799999V0203201N004010042019N0060001N1+00581+00531102691ADDAA106000591AY161061AY261061GF108991081071004501999999KA1999M+00791MA1999999102231MD1210021+9999MW1601REMSYN088AAXX  23181 58477 11456 83204 10058 20053 30223 40269 52002 69951 76066 887// 333 10079;
0161584770999992000012321004+30030+122120FM-12+003799999V0203401N004010042019N0110001N1+00611+00521102631ADDAA124005191AY161031AY261031GF108991081071004501999999MD1710061+9999MW1601REMSYN076AAXX  23211 58477 41461 83404 10061 20052 40263 57006 76066 887// 333 70052;
0194584770999992000012400004+30030+122120FM-12+003799999V0203201N003010021019N0050001N1+00631+00561102741ADDAA106000891AY161061AY261061GF108991081071002501999999MA1999999102281MD1210111+0101MW1601REMSYN094AAXX  24001 58477 11350 83203 10063 20056 30228 40274 52011 69981 76066 887// 333 00100 70055;
0140584770999992000012403004+30030+122120FM-12+003799999V0203601N003010021019N0060001N1+00801+00741102831ADDAY161031AY261031GF108991081071002501999999MD1210091+9999MW1601REMSYN066AAXX  24031 58477 41356 83603 10080 20074 40283 52009 76066 887//;
0201584770999992000012406004+30030+122120FM-12+003799999V0200201N006010021019N0050001N1+00781+00691102651ADDAA106002091AY161061AY261061GF108991081071002501999999KA1999N+00551MA1999999102191MD1710181+9999MW1601REMSYN088AAXX  24061 58477 11350 80206 10078 20069 30219 40265 57018 60021 76066 887// 333 20055;
0140584770999992000012409004+30030+122120FM-12+003799999V0203601N009010021019N0050001N1+00561+00421102921ADDAY161031AY261031GF108991081071002501999999MD1210271+9999MW1601REMSYN066AAXX  24091 58477 41350 83609 10056 20042 40292 52027 76066 887//;
0178584770999992000012412004+30030+122120FM-12+003799999V0200201N007010021019N0040001N1+00411+00291103241ADDAA106004191AY161061AY261061GF108991081071002501999999MA1999999102781MD1210321+9999MW1601REMSYN078AAXX  24121 58477 11340 80207 10041 20029 30278 40324 52032 60041 76066 887//;
0132584770999992000012415004+30030+122120FM-12+003799999V0203601N008010042019N0110001N1+00321+00111103341ADDAY161031GF108991081071004501999999MD1210101+9999MW1601REMSYN066AAXX  24151 58477 41461 83608 10032 20011 40334 52010 76060 887//;
0193584770999992000012418004+30030+122120FM-12+003799999V0203601N007010042019N0120001N1+00231-00051103371ADDAA106001091AY161061GF108991081071004501999999KA1999M+00831MA1999999102911MD1210031+9999MW1001REMSYN088AAXX  24181 58477 11462 83607 10023 21005 30291 40337 52003 60011 70060 887// 333 10083;
0153584770999992000012421004+30030+122120FM-12+003799999V0203601N006010042019N0160001N1+00121-00171103451ADDAA124007991AY171031GF108991081071004501999999MD1210071+9999MW1701REMSYN076AAXX  24211 58477 41466 83606 10012 21017 40345 52007 77070 887// 333 70078;
0204584770999992000012500004+30030+122120FM-12+003799999V0203401N008010042019N0230001N1+00071-00421103601ADDAA106000791AY171061GF107991071041004501999999IA2999+00049MA1999999103131MD1210151+0901MW1001REMSYN100AAXX  25001 58477 11473 73408 10007 21042 30313 40360 52015 69901 70070 874// 333 00956 30004 70073;
0112584770999992000012503004+30030+122120FM-12+003799999V0203601N007010042019N0250001N1+00111-00481103671ADDGF107991071011004501999999MD1210071+9999REMSYN060AAXX  25031 58477 42475 73607 10011 21048 40367 52007 871//;
0193584770999992000012506004+30030+122120FM-12+003799999V0202901N005010075019N0170001N1+00201-00421103521ADDAA106000791AY171061GF107991071011008001999999KA1999N+00061MA1999999103051MD1710151+9999MW1001REMSYN088AAXX  25061 58477 11567 72905 10020 21042 30305 40352 57015 69901 70070 871// 333 20006;
0132584770999992000012509004+30030+122120FM-12+003799999V0203201N004010120019N0170001N1+00051-00571103601ADDAY181031GF107991071081008001999999MD1210081+9999MW1851REMSYN066AAXX  25091 58477 41567 73204 10005 21057 40360 52008 78580 878//;
0170584770999992000012511004+30030+122120FM-12+003799999V0203601N006010075019N0160001N1-00011-00891103721ADDAA106000791AY181999GF106991061011008001001001MA1999999103251MD1210121+9999MW1001REMSYN078AAXX  25111 58477 11566 63606 11001 21089 30325 40372 52012 69901 70080 86100;
0170584770999992000012512004+30030+122120FM-12+003799999V0203601N006010075019N0160001N1-00011-00891103721ADDAA106000791AY181061GF106991061011008001001001MA1999999103251MD1210121+9999MW1001REMSYN078AAXX  25121 58477 11566 63606 11001 21089 30325 40372 52012 69901 70080 86100;
0132584770999992000012515004+30030+122120FM-12+003799999V0203401N004010042019N0160001N1-00071-00801103741ADDAY171031GF108991081071004501999999MD1210021+9999MW1221REMSYN066AAXX  25151 58477 41466 83404 11007 21080 40374 52002 72270 887//;
0193584770999992000012518004+30030+122120FM-12+003799999V0203401N005010042019N0120001N1-00131-00791103661ADDAA106000791AY171061GF108991081071004501999999KA1999M+00321MA1999999103191MD1710081+9999MW1221REMSYN088AAXX  25181 58477 11462 83405 11013 21079 30319 40366 57008 69901 72270 887// 333 10032;
0133584770999992000012521004+30030+122120FM-12+003799999V0203201N008010042019N0110001N1-00211-00871103661ADDAA124000791GF107991061011004501041999MD1710011+9999REMSYN070AAXX  25211 58477 42461 73208 11021 21087 40366 57001 8614/ 333 79999;
0178584770999992000012600004+30030+122120FM-12+003799999V0203201N005010075019N0150001N1-00231-00851103801ADDAA124000791GF107991071011008001001001IA2999-00199MA1999999103321MD1210141+0201REMSYN088AAXX  26001 58477 32565 73205 11023 21085 30332 40380 52014 87100 333 00253 31019 79999;
0112584770999992000012603004+30030+122120FM-12+003799999V0203401N008010075019N0160001N1+00041-00811103771ADDGF107991071011008001001001MD1710031+9999REMSYN060AAXX  26031 58477 42566 73408 10004 21081 40377 57003 87100;
0167584770999992000012606004+30030+122120FM-12+003799999V0203201N007012200019N0110001N1+00041-01071103591ADDAA199000021GF101991011011008001041001KA1999N-00261MA1999999103111MD1710181+9999REMSYN076AAXX  26061 58477 32561 13207 10004 21107 30311 40359 57018 81140 333 21026;
0112584770999992000012609004+30030+122120FM-12+003799999V0203201N006010360019N0110001N1-00041-01111103611ADDGF105991041011004501041001MD1210021+9999REMSYN060AAXX  26091 58477 42461 53206 11004 21111 40361 52002 84140;
0163584770999992000012612004+30030+122120FM-12+003799999V0203201N003010042019N0120001N1-00091-00931103731ADDAA199000091GF107991071041004501999999MA1999999103251MD1210121+9999REMSYN066AAXX  26121 58477 32462 73203 11009 21093 30325 40373 52012 874//;EQDQ01  00002PRCP99
0112584770999992000012615004+30030+122120FM-12+003799999V0203401N003010042019N0110001N1-00081-00721103741ADDGF107991071041004501999999MD1210011+9999REMSYN060AAXX  26151 58477 42461 73403 11008 21072 40374 52001 874//;
0198584770999992000012618004+30030+122120FM-12+003799999V0202901N005010042019N0080001N1-00101-00661103711ADDAA199000091GF108991071041004501071999KA1999M+00121MA1999999103231MD1710031+9999MW1101REMSYN082AAXX  26181 58477 31458 82905 11010 21066 30323 40371 57003 710/0 8747/ 333 10012;EQDQ01  00002PRCP99
0153584770999992000012621004+30030+122120FM-12+003799999V0202901N006010042019N0130001N1-00121-00731103691ADDAA124000791AY171031GF108991081051004501999999MD1710021+9999MW1701REMSYN076AAXX  26211 58477 41463 82906 11012 21073 40369 57002 77070 885// 333 79999;
0204584770999992000012700004+30030+122120FM-12+003799999V0203201N005010042019N0120001N1-00071-00751103761ADDAA106000791AY171061GF107991071041004501999999IA2999-00199MA1999999103281MD1210071+0001MW1001REMSYN100AAXX  27001 58477 11462 73205 11007 21075 30328 40376 52007 69901 70070 874// 333 00002 31019 79999;
0132584770999992000012703004+30030+122120FM-12+003799999V0203401N004010075019N0120001N1+00081-00791103761ADDAY171031GF106991061011008001001001MD1410001+9999MW1001REMSYN066AAXX  27031 58477 41562 63404 10008 21079 40376 54000 70070 86100;
0193584770999992000012706004+30030+122120FM-12+003799999V0202901N006010075019N0150001N1+00091-00741103571ADDAA106000791AY171061GF107991071011008001999999KA1999N-00131MA1999999103101MD1710181+9999MW1001REMSYN088AAXX  27061 58477 11565 72906 10009 21074 30310 40357 57018 69901 70070 871// 333 21013;
0112584770999992000012709004+30030+122120FM-12+003799999V0203201N005010042019N0140001N1+00071-00601103611ADDGF107991071011004501999999MD1210031+9999REMSYN060AAXX  27091 58477 42464 73205 10007 21060 40361 52003 871//;
0170584770999992000012712004+30030+122120FM-12+003799999V0203401N004010042019N0120001N1+00071-00711103691ADDAA106000791AY171061GF107991071041004501999999MA1999999103221MD1210091+9999MW1001REMSYN078AAXX  27121 58477 11462 73404 10007 21071 30322 40369 52009 69901 70070 874//;
0112584770999992000012715004+30030+122120FM-12+003799999V0203401N003010042019N0120001N1+00041-00671103691ADDGF107991071041004501999999MD1410001+9999REMSYN060AAXX  27151 58477 42462 73403 10004 21067 40369 54000 874//;
0193584770999992000012718004+30030+122120FM-12+003799999V0203601N003010042019N0160001N1+00041-00621103621ADDAA106000791AY171061GF107991071041004501999999KA1999M+00181MA1999999103151MD1710071+9999MW1221REMSYN088AAXX  27181 58477 11466 73603 10004 21062 30315 40362 57007 69901 72270 874// 333 10018;
0163584770999992000012721004+30030+122120FM-12+003799999V0203201N003012200019N0200001N1+00031-00601103521ADDAA124000791AY171031GA1001+999999999GF100991001001999999001001MD1710101+9999MW1001REMSYN070AAXX  27211 58477 41970 03203 10003 21060 40352 57010 70070 333 79999;
0204584770999992000012800004+30030+122120FM-12+003799999V0203201N002010075019N0200001N1+00081-00431103581ADDAA106000791AY171061GF105991051011008001001001IA2999-00209MA1999999103111MD1210061-0201MW1001REMSYN100AAXX  28001 58477 11570 53202 10008 21043 30311 40358 52006 69901 70070 85100 333 05202 31020 79999;
0112584770999992000012803004+30030+122120FM-12+003799999V0203601N004012200019N0160001N1+00381-00331103561ADDGF102991021081008001001001MD1710021+9999REMSYN060AAXX  28031 58477 42566 23604 10038 21033 40356 57002 82800;
0167584770999992000012806004+30030+122120FM-12+003799999V0202901N005012200019N0150001N1+00601-00241103411ADDAA199000021GF101991011011008001001001KA1999N-00021MA1999999102941MD1710151+9999REMSYN076AAXX  28061 58477 32565 12905 10060 21024 30294 40341 57015 81100 333 21002;
0122584770999992000012809004+30030+122120FM-12+003799999V0200201N003012200019N0140001N1+00361-00181103341ADDGA1001+999999999GF100991001001999999001001MD1710071+9999REMSYN054AAXX  28091 58477 42964 00203 10036 21018 40334 57007;
0173584770999992000012812004+30030+122120FM-12+003799999V0209999C000012200019N0120001N1+00241-00071103381ADDAA199000091GA1001+999999999GF100991001001999999001001MA1999999102911MD1210041+9999REMSYN060AAXX  28121 58477 32962 00000 10024 21007 30291 40338 52004;EQDQ01  00002PRCP99
0112584770999992000012815004+30030+122120FM-12+003799999V0209999C000010042019N0110001N1+00251+00031103311ADDGF106991061041004501001001MD1710071+9999REMSYN060AAXX  28151 58477 42461 60000 10025 20003 40331 57007 86400;
0198584770999992000012818004+30030+122120FM-12+003799999V0203601N001010042019N0090001N1+00261+00071103221ADDAA199000091GF107991071051004501999999KA1999M+00631MA1999999102751MD1710091+9999MW1101REMSYN082AAXX  28181 58477 31459 73601 10026 20007 30275 40322 57009 71000 875// 333 10063;EQDQ01  00002PRCP99
0145584770999992000012821004+30030+122120FM-12+003799999V0200401N001010042019N0090001N1+00311+00151103171ADDAA124000791GF108991081051004501999999MD1710051+9999MW1101REMSYN076AAXX  28211 58477 41459 80401 10031 20015 40317 57005 71000 885// 333 79999;
0203584770999992000012900004+30030+122120FM-12+003799999V0202201N002019999999N0090001N1+00411+00211103291ADDAA199000091GF107991071001999999041999IA2999-00109MA1999999102821MD1210121-0301MW1101REMSYN088AAXX  29001 58477 31959 72202 10041 20021 30282 40329 52012 71000 8704/ 333 05303 31012;EQDQ01  00002PRCP99
0124584770999992000012903004+30030+122120FM-12+003799999V0201801N002019999999N0080001N1+00681+00291103331ADDGF107991071001999999041999MD1210041+9999MW1101REMSYN066AAXX  29031 58477 41958 71802 10068 20029 40333 52004 71000 8704/;
0186584770999992000012906004+30030+122120FM-12+003799999V0202901N001010360019N0100001N1+00951+00261103171ADDAA199000091GF107991031011008001041999KA1999N+00171MA1999999102711MD1710151+9999REMSYN076AAXX  29061 58477 32560 72901 10095 20026 30271 40317 57015 8314/ 333 20017;EQDQ01  00002PRCP99
0124584770999992000012909004+30030+122120FM-12+003799999V0203401N004010360019N0070001N1+00591+00271103321ADDGF108991011011004501071999MD1210141+9999MW1101REMSYN066AAXX  29091 58477 41457 83404 10059 20027 40332 52014 71000 8117/;
0175584770999992000012912004+30030+122120FM-12+003799999V0203201N003010360019N0080001N1+00581+00291103491ADDAA199000091GF108991011011004501071999MA1999999103021MD1210171+9999MW1101REMSYN072AAXX  29121 58477 31458 83203 10058 20029 30302 40349 52017 71000 8117/;EQDQ01  00002PRCP99
0132584770999992000012915004+30030+122120FM-12+003799999V0203401N004010042019N0110001N1+00491+00241103571ADDAY161031GF108991081051004501999999MD1210091+9999MW1601REMSYN066AAXX  29151 58477 41461 83404 10049 20024 40357 52009 76060 885//;
0193584770999992000012918004+30030+122120FM-12+003799999V0203201N003010042019N0090001N1+00451+00191103601ADDAA106000791AY161061GF108991081051004501999999KA1999M+00971MA1999999103141MD1210031+9999MW1601REMSYN088AAXX  29181 58477 11459 83203 10045 20019 30314 40360 52003 69901 76060 885// 333 10097;
0153584770999992000012921004+30030+122120FM-12+003799999V0203201N006010042019N0070001N1+00411+00061103661ADDAA124000791AY161031GF108991081051004501999999MD1210051+9999MW1101REMSYN076AAXX  29211 58477 41457 83206 10041 20006 40366 52005 71060 885// 333 79999;
0204584770999992000013000004+30030+122120FM-12+003799999V0203201N004010042019N0040001N1+00361-00151103901ADDAA106000791AY161061GF107991071051004501999999IA2999+00269MA1999999103431MD1210241+0601MW1101REMSYN100AAXX  30001 58477 11440 73204 10036 21015 30343 40390 52024 69901 71060 875// 333 00651 30026 79999;
0124584770999992000013003004+30030+122120FM-12+003799999V0203601N007010075019N0060001N1+00411-00151103981ADDGF107991071011008001001001MD1210081+9999MW1051REMSYN066AAXX  30031 58477 41556 73607 10041 21015 40398 52008 70500 87100;
0179584770999992000013006004+30030+122120FM-12+003799999V0203601N007012200019N0090001N1+00421-00511103901ADDAA199000021GF104991041011008001001001KA1999N+00331MA1999999103431MD1710081+9999MW1051REMSYN082AAXX  30061 58477 31559 43607 10042 21051 30343 40390 57008 70500 84100 333 20033;
0112584770999992000013009004+30030+122120FM-12+003799999V0203401N005012200019N0160001N1+00281-00511103971ADDGF102991021011008001001001MD1210071+9999REMSYN060AAXX  30091 58477 42566 23405 10028 21051 40397 52007 82100;
0163584770999992000013012004+30030+122120FM-12+003799999V0200201N005010075019N0140001N1+00071-00521104161ADDAA199000091GF106991061011008001001001MA1999999103691MD1210191+9999REMSYN066AAXX  30121 58477 32564 60205 10007 21052 30369 40416 52019 86100;EQDQ01  00002PRCP99
0122584770999992000013015004+30030+122120FM-12+003799999V0203401N005012200019N0180001N1-00041-00941104231ADDGA1001+999999999GF100991001001999999001001MD1210071+9999REMSYN054AAXX  30151 58477 42968 03405 11004 21094 40423 52007;
0186584770999992000013018004+30030+122120FM-12+003799999V0203601N007010120019N0170001N1+00001-00691104131ADDAA199000091GF107991071081008001999999KA1999M+00491MA1999999103661MD1710101+9999REMSYN076AAXX  30181 58477 32567 73607 10000 21069 30366 40413 57010 878// 333 10049;EQDQ01  00002PRCP99
0112584770999992000013021004+30030+122120FM-12+003799999V0203401N006010120019N0150001N1+00001-00651104121ADDGF108991081081008001999999MD1710011+9999REMSYN060AAXX  30211 58477 42565 83406 10000 21065 40412 57001 888//;
0191584770999992000013100004+30030+122120FM-12+003799999V0203401N005010120019N0200001N1+00031-00571104171ADDAA199000091GF107991071081008001999999IA2999-00209MA1999999103691MD1210041+0301REMSYN082AAXX  31001 58477 32570 73405 10003 21057 30369 40417 52004 878// 333 00353 31025;EQDQ01  00002PRCP99
0112584770999992000013103004+30030+122120FM-12+003799999V0203401N006010090019N0180001N1+00071-00501104161ADDGF107991071081004501999999MD1710011+9999REMSYN060AAXX  31031 58477 42468 73406 10007 21050 40416 57001 878//;
0186584770999992000013106004+30030+122120FM-12+003799999V0203601N006010042019N0250001N1+00121-00651103921ADDAA199000091GF107991071011004501001001KA1999N-00051MA1999999103451MD1710231+9999REMSYN076AAXX  31061 58477 32475 73606 10012 21065 30345 40392 57023 87100 333 21005;EQDQ01  00002PRCP99
0112584770999992000013109004+30030+122120FM-12+003799999V0203401N005010042019N0280001N1+00101-00681103911ADDGF107991061011004501041001MD1710021+9999REMSYN060AAXX  31091 58477 42478 73405 10010 21068 40391 57002 86140;
0163584770999992000013112004+30030+122120FM-12+003799999V0203601N003010042019N0250001N1+00061-00511103921ADDAA199000091GF107991071011004501999999MA1999999103441MD1210011+9999REMSYN066AAXX  31121 58477 32475 73603 10006 21051 30344 40392 52001 871//;EQDQ01  00002PRCP99
0112584770999992000013115004+30030+122120FM-12+003799999V0203401N003010042019N0250001N1+00021-00541103881ADDGF108991061011004501071999MD1710041+9999REMSYN060AAXX  31151 58477 42475 83403 10002 21054 40388 57004 8617/;
0186584770999992000013118004+30030+122120FM-12+003799999V0203401N004010360019N0220001N1-00011-00491103781ADDAA199000091GF108991021011004501071999KA1999M+00221MA1999999103311MD1710091+9999REMSYN076AAXX  31181 58477 32472 83404 11001 21049 30331 40378 57009 8217/ 333 10022;EQDQ01  00002PRCP99
0145584770999992000013121004+30030+122120FM-12+003799999V0203201N004010042019N0160001N1-00021-00521103731ADDAA124000791GF108991081041004501999999MD1710051+9999MW1701REMSYN076AAXX  31211 58477 41466 83204 11002 21052 40373 57005 77000 884// 333 79999;
0204584770999992000020100004+30030+122120FM-12+003799999V0203401N005010042019N0120001N1+00001-00481103761ADDAA106000791AY171061GF108991081051004501999999IA2999-00069MA1999999103291MD1210031-0401MW1221REMSYN100AAXX  01001 58477 11462 83405 10000 21048 30329 40376 52003 69901 72270 885// 333 05400 31006 79999;
0132584770999992000020103004+30030+122120FM-12+003799999V0203201N003010042019N0140001N1+00051-00371103801ADDAY171031GF108991081071004501999999MD1210041+9999MW1701REMSYN066AAXX  01031 58477 41464 83203 10005 21037 40380 52004 77070 887//;
0193584770999992000020106004+30030+122120FM-12+003799999V0203401N003012200019N0170001N1+00201-00591103461ADDAA106000791AY171061GF104991021011004501041001KA1999N-00051MA1999999102991MD1710341+9999MW1001REMSYN088AAXX  01061 58477 11467 43403 10020 21059 30299 40346 57034 69901 70070 82140 333 21005;
0112584770999992000020109004+30030+122120FM-12+003799999V0203201N003012200019N0130001N1+00071-00661103431ADDGF101991011011004501041001MD1710031+9999REMSYN060AAXX  01091 58477 42463 13203 10007 21066 40343 57003 81140;
0154584770999992000020112004+30030+122120FM-12+003799999V0202901N001012200019N0100001N1-00101-00531103431ADDAA199000021GA1001+999999999GF100991001001999999001001MA1999999102961MD1410001+9999REMSYN060AAXX  01121 58477 32960 02901 11010 21053 30296 40343 54000;
0124584770999992000020115004+30030+122120FM-12+003799999V0209999C000010150019N0090001N1+00011-00391103421ADDGF108991081051017501999999MD1710011+9999MW1101REMSYN066AAXX  01151 58477 41759 80000 10001 21039 40342 57001 71000 885//;
0180584770999992000020118004+30030+122120FM-12+003799999V0203401N001010150019N0120001N1+00041+99999103381ADDAA199000091GF108991081051017501999999KA1999M+00251MA1999999102911MD1710041+9999REMSYN070AAXX  01181 58477 32762 83401 10004 30291 40338 57004 885// 333 10025;EQDQ01  00002PRCP99
0133584770999992000020121004+30030+122120FM-12+003799999V0203401N002010150019N0100001N1-00081-00591103261ADDAA124000791GF106991061051017501001001MD1710121+9999REMSYN070AAXX  01211 58477 42760 63402 11008 21059 40326 57012 86500 333 79999;
0178584770999992000020200004+30030+122120FM-12+003799999V0203601N003010150019N0110001N1+00071-00331103321ADDAA124000791GF108991081051017501999999IA2999-00379MA1999999102851MD1210061-0401REMSYN088AAXX  02001 58477 32761 83603 10007 21033 30285 40332 52006 885// 333 05401 31037 79999;
0112584770999992000020203004+30030+122120FM-12+003799999V0203201N003010150019N0140001N1+00281-00181103281ADDGF108991081051017501999999MD1710041+9999REMSYN060AAXX  02031 58477 42764 83203 10028 21018 40328 57004 885//;
0186584770999992000020206004+30030+122120FM-12+003799999V0203401N004010090019N0160001N1+00391-00111103051ADDAA199000091GF108991081081004501999999KA1999N-00141MA1999999102581MD1710231+9999REMSYN076AAXX  02061 58477 32466 83404 10039 21011 30258 40305 57023 888// 333 21014;EQDQ01  00002PRCP99
0112584770999992000020209004+30030+122120FM-12+003799999V0203401N003010150019N0150001N1+00331-00031102981ADDGF108991081051017501999999MD1710071+9999REMSYN060AAXX  02091 58477 42765 83403 10033 21003 40298 57007 885//;
0163584770999992000020212004+30030+122120FM-12+003799999V0203401N001010150019N0140001N1+00361+00101103031ADDAA199000091GF108991081051017501999999MA1999999102561MD1210051+9999REMSYN066AAXX  02121 58477 32764 83401 10036 20010 30256 40303 52005 885//;EQDQ01  00002PRCP99
0124584770999992000020215004+30030+122120FM-12+003799999V0202901N002010042019N0140001N1+00361+00121103001ADDGF108991081071004501999999MD1710031+9999MW1601REMSYN066AAXX  02151 58477 41464 82902 10036 20012 40300 57003 76000 887//;
0193584770999992000020218004+30030+122120FM-12+003799999V0203201N002010042019N0110001N1+00381+00231102861ADDAA106000791AY161061GF108991081041004501999999KA1999M+00491MA1999999102401MD1710131+9999MW1001REMSYN088AAXX  02181 58477 11461 83202 10038 20023 30240 40286 57013 69901 70060 884// 333 10049;
0145584770999992000020221004+30030+122120FM-12+003799999V0203201N003010021019N0030001N1+00301+00251102831ADDAA124000791GF108991081071002501999999MD1710041+9999MW1601REMSYN076AAXX  02211 58477 41330 83203 10030 20025 40283 57004 76000 887// 333 79999;
0204584770999992000020300004+30030+122120FM-12+003799999V0203601N005010021019N0060001N1+00321+00271103001ADDAA106000791AY161061GF108991081071002501999999IA2999+00309MA1999999102531MD1210171-0301MW1601REMSYN100AAXX  03001 58477 11356 83605 10032 20027 30253 40300 52017 69901 76060 887// 333 05303 30030 79999;
0140584770999992000020303004+30030+122120FM-12+003799999V0203401N004010021019N0070001N1+00301+00221103081ADDAY161031AY261031GF108991081071002501999999MD1210081+9999MW1601REMSYN066AAXX  03031 58477 41357 83404 10030 20022 40308 52008 76066 887//;
0193584770999992000020306004+30030+122120FM-12+003799999V0203401N005010021019N0090001N1+00301+00141102901ADDAA106000791AY161061GF108991081061002501999999KA1999N+00291MA1999999102431MD1710181+9999MW1101REMSYN088AAXX  03061 58477 11359 83405 10030 20014 30243 40290 57018 69901 71060 886// 333 20029;
0124584770999992000020309004+30030+122120FM-12+003799999V0203401N005010042019N0080001N1+00241-00101102961ADDGF107991071051004501999999MD1210061+9999MW1101REMSYN066AAXX  03091 58477 41458 73405 10024 21010 40296 52006 71000 875//;
0156584770999992000020312004+30030+122120FM-12+003799999V0203401N003010090019N0070001N1+00251-00061103091ADDAA199000021GF108991081081004501999999MA1999999102621MD1210131+9999MW1101REMSYN072AAXX  03121 58477 31457 83403 10025 21006 30262 40309 52013 71000 888//;
0124584770999992000020315004+30030+122120FM-12+003799999V0203601N002010090019N0070001N1+00311-00081103101ADDGF108991081081004501999999MD1210011+9999MW1101REMSYN066AAXX  03151 58477 41457 83602 10031 21008 40310 52001 71000 888//;
0198584770999992000020318004+30030+122120FM-12+003799999V0203401N002012200019N0080001N1+00271+00001103001ADDAA199000091GF104991041081004501001001KA1999M+00411MA1999999102531MD1710101+9999MW1101REMSYN082AAXX  03181 58477 31458 43402 10027 20000 30253 40300 57010 71000 84800 333 10041;EQDQ01  00002PRCP99
0145584770999992000020321004+30030+122120FM-12+003799999V0202701N001010090019N0060001N1+00241+00021102971ADDAA124000791GF107991071081004501999999MD1710031+9999MW1101REMSYN076AAXX  03211 58477 41456 72701 10024 20002 40297 57003 71000 878// 333 79999;
0196584770999992000020400004+30030+122120FM-12+003799999V0203201N003019999999N0060001N1+00431+00121103011ADDAA106000791GF107991071001999999041999IA2999-00079MA1999999102541MD1210041+0001MW1601REMSYN100AAXX  04001 58477 11956 73203 10043 20012 30254 40301 52004 69901 76000 8704/ 333 00001 31007 79999;
0132584770999992000020403004+30030+122120FM-12+003799999V0203601N002019999999N0110001N1+00771+00151102971ADDAY161031GF107991071001999999071999MD1710031+9999MW1001REMSYN066AAXX  04031 58477 41961 73602 10077 20015 40297 57003 70060 8707/;
0193584770999992000020406004+30030+122120FM-12+003799999V0200701N003010150019N0100001N1+00841+00181102681ADDAA106000791AY161061GF108991081051017501999999KA1999N+00211MA1999999102221MD1710291+9999MW1001REMSYN088AAXX  04061 58477 11760 80703 10084 20018 30222 40268 57029 69901 70060 885// 333 20021;
0124584770999992000020409004+30030+122120FM-12+003799999V0200401N003010210019N0090001N1+00771+00211102611ADDGF107991071051022501041999MD1710071+9999MW1101REMSYN066AAXX  04091 58477 41859 70403 10077 20021 40261 57007 71000 8754/;
0170584770999992000020412004+30030+122120FM-12+003799999V0200401N003010150019N0070001N1+00691+00311102651ADDAA106000791AY161061GF108991081051017501999999MA1999999102191MD1210041+9999MW1101REMSYN078AAXX  04121 58477 11757 80403 10069 20031 30219 40265 52004 69901 71060 885//;
0132584770999992000020415004+30030+122120FM-12+003799999V0209999C000010150019N0060001N1+00611+00451102641ADDAY161031GF108991081051017501999999MD1710011+9999MW1211REMSYN066AAXX  04151 58477 41756 80000 10061 20045 40264 57001 72160 885//;
0193584770999992000020418004+30030+122120FM-12+003799999V0209999C000010042019N0040001N1+00611+00471102521ADDAA106000391AY161061GF108991081051004501999999KA1999M+00991MA1999999102061MD1710121+9999MW1211REMSYN088AAXX  04181 58477 11440 80000 10061 20047 30206 40252 57012 69931 72160 885// 333 10099;
0145584770999992000020421004+30030+122120FM-12+003799999V0209999C000010021019N0035001N1+00601+00481102351ADDAA124000391GF108991081061002501999999MD1710171+9999MW1101REMSYN076AAXX  04211 58477 41335 80000 10060 20048 40235 57017 71000 886// 333 70003;
0190584770999992000020500004+30030+122120FM-12+003799999V0209999C000010090019N0060001N1+00701+00561102351ADDAA124000391GF108991081081004501999999IA2999+00499MA1999999101891MD1410001-0701MW1101REMSYN094AAXX  05001 58477 31456 80000 10070 20056 30189 40235 54000 71000 888// 333 05703 30049 70003;
0132584770999992000020503004+30030+122120FM-12+003799999V0209999C000010021019N0050001N1+00831+00701102371ADDAY161031GF108991081071002501999999MD1210021+9999MW1601REMSYN066AAXX  05031 58477 41350 80000 10083 20070 40237 52002 76060 887//;
0193584770999992000020506004+30030+122120FM-12+003799999V0202901N005010012019N0030001N1+00571+00451102301ADDAA106002091AY161061GF108991081071001501999999KA1999N+00551MA1999999101841MD1710071+9999MW1601REMSYN088AAXX  05061 58477 11230 82905 10057 20045 30184 40230 57007 60021 76060 887// 333 20055;
0140584770999992000020509004+30030+122120FM-12+003799999V0202901N005010021019N0040001N1+00511+00411102331ADDAY161031AY261031GF108991081071002501999999MD1210031+9999MW1211REMSYN066AAXX  05091 58477 41340 82905 10051 20041 40233 52003 72166 887//;
0170584770999992000020512004+30030+122120FM-12+003799999V0202901N005010021019N0040001N1+00401+00301102401ADDAA106003091AY161061GF108991081071002501999999MA1999999101941MD1210071+9999MW1601REMSYN078AAXX  05121 58477 11340 82905 10040 20030 30194 40240 52007 60031 76060 887//;
0140584770999992000020515004+30030+122120FM-12+003799999V0203201N006010021019N0040001N1+00341+00211102401ADDAY161031AY261031GF108991081071002501999999MD1410001+9999MW1601REMSYN066AAXX  05151 58477 41340 83206 10034 20021 40240 54000 76066 887//;
0193584770999992000020518004+30030+122120FM-12+003799999V0203201N003010021019N0040001N1+00301+00141102401ADDAA106003091AY161061GF108991081071002501999999KA1999M+00851MA1999999101941MD1410001+9999MW1101REMSYN088AAXX  05181 58477 11340 83203 10030 20014 30194 40240 54000 60031 71060 887// 333 10085;
0153584770999992000020521004+30030+122120FM-12+003799999V0203201N005010042019N0060001N1+00281+00011102421ADDAA124007991AY161031GF108991081071004501999999MD1210021+9999MW1211REMSYN076AAXX  05211 58477 41456 83205 10028 20001 40242 52002 72160 887// 333 70079;
0204584770999992000020600004+30030+122120FM-12+003799999V0202901N004010042019N0060001N1+00241-00071102461ADDAA106000191AY161061GF108991081041004501999999IA2999+00239MA1999999102001MD1210041+0101MW1101REMSYN100AAXX  06001 58477 11456 82904 10024 21007 30200 40246 52004 69911 71060 884// 333 00155 30023 70079;
0132584770999992000020603004+30030+122120FM-12+003799999V0203201N004010042019N0050001N1+00301-00061102491ADDAY161031GF108991081071004501999999MD1210031+9999MW1601REMSYN066AAXX  06031 58477 41450 83204 10030 21006 40249 52003 76060 887//;
0193584770999992000020606004+30030+122120FM-12+003799999V0203201N003010042019N0060001N1+00371-00011102291ADDAA106000791AY161061GF108991081041004501999999KA1999N+00221MA1999999101831MD1710201+9999MW1101REMSYN088AAXX  06061 58477 11456 83203 10037 21001 30183 40229 57020 69901 71060 884// 333 20022;
0124584770999992000020609004+30030+122120FM-12+003799999V0203601N004010042019N0070001N1+00311-00081102311ADDGF108991081041004501999999MD1210021+9999MW1101REMSYN066AAXX  06091 58477 41457 83604 10031 21008 40231 52002 71000 884//;
0156584770999992000020612004+30030+122120FM-12+003799999V0209999C000010042019N0080001N1+00171-00081102371ADDAA199000021GF106991061041004501001001MA1999999101901MD1210051+9999MW1101REMSYN072AAXX  06121 58477 31458 60000 10017 21008 30190 40237 52005 71000 86400;
0124584770999992000020615004+30030+122120FM-12+003799999V0209999C000010042019N0060001N1+00191+00001102341ADDGF108991081041004501999999MD1710021+9999MW1101REMSYN066AAXX  06151 58477 41456 80000 10019 20000 40234 57002 71000 884//;
0198584770999992000020618004+30030+122120FM-12+003799999V0209999C000012200019N0050001N1+00181+00021102241ADDAA199000091GF104991041051004501001001KA1999M+00411MA1999999101781MD1710101+9999MW1101REMSYN082AAXX  06181 58477 31450 40000 10018 20002 30178 40224 57010 71000 84500 333 10041;EQDQ01  00002PRCP99
0145584770999992000020621004+30030+122120FM-12+003799999V0202901N003010042019N0060001N1+00261+00101102191ADDAA124000791GF108991081051004501999999MD1710051+9999MW1101REMSYN076AAXX  06211 58477 41456 82903 10026 20010 40219 57005 71000 885// 333 79999;
0190584770999992000020700004+30030+122120FM-12+003799999V0203201N002010150019N0060001N1+00351+00111102221ADDAA124000791GF108991081051017501999999IA2999-00129MA1999999101761MD1210031-0201MW1101REMSYN094AAXX  07001 58477 31756 83202 10035 20011 30176 40222 52003 71000 885// 333 05201 31012 79999;
0124584770999992000020703004+30030+122120FM-12+003799999V0202701N003010090019N0060001N1+00801+00191102161ADDGF107991071081004501001001MD1710061+9999MW1051REMSYN066AAXX  07031 58477 41456 72703 10080 20019 40216 57006 70500 87800;
0198584770999992000020706004+30030+122120FM-12+003799999V0202501N003010210019N0070001N1+00881+00061102001ADDAA199000091GF107991071051022501001021KA1999N+00071MA1999999101541MD1710161+9999MW1051REMSYN082AAXX  07061 58477 31857 72503 10088 20006 30154 40200 57016 70500 87502 333 20007;EQDQ01  00002PRCP99
0112584770999992000020709004+30030+122120FM-12+003799999V0202901N006012200019N0110001N1+00721-00551102041ADDGF101991011001999999041001MD1210041+9999REMSYN060AAXX  07091 58477 42961 12906 10072 21055 40204 52004 81040;
0190584770999992000020712004+30030+122120FM-12+003799999V0203201N007012200019N0110001N1+00451-00101102231ADDAA199000091GF102991021011004501001001MA1999999101771MD1210191+9999OA130602001REMSYN082AAXX  07121 58477 32461 23207 10045 21010 30177 40223 52019 82100 333 91120 91532;EQDQ01  00002PRCP99
0112584770999992000020715004+30030+122120FM-12+003799999V0203201N006010042019N0120001N1+00251-00321102391ADDGF107991071011004501001001MD1210161+9999REMSYN060AAXX  07151 58477 42462 73206 10025 21032 40239 52016 87100;
0186584770999992000020718004+30030+122120FM-12+003799999V0202901N003010090019N0120001N1+00121-00481102411ADDAA199000091GF108991081081004501999999KA1999M+00941MA1999999101951MD1210021+9999REMSYN076AAXX  07181 58477 32462 82903 10012 21048 30195 40241 52002 888// 333 10094;EQDQ01  00002PRCP99
0124584770999992000020721004+30030+122120FM-12+003799999V0203401N005010360019N0070001N1+00021-00581102381ADDGF105991021011004501041001MD1710031+9999MW1101REMSYN066AAXX  07211 58477 41457 53405 10002 21058 40238 57003 71000 82140;
0191584770999992000020800004+30030+122120FM-12+003799999V0203201N004010042019N0100001N1+00121-00561102551ADDAA199000091GF107991071011004501041001IA2999-00109MA1999999102091MD1210171+0301REMSYN082AAXX  08001 58477 32460 73204 10012 21056 30209 40255 52017 87140 333 00352 31017;EQDQ01  00002PRCP99
0124584770999992000020803004+30030+122120FM-12+003799999V0203401N004012200019N0060001N1+00431-00521102651ADDGF101991011011004501001001MD1210101+9999MW1051REMSYN066AAXX  08031 58477 41456 13404 10043 21052 40265 52010 70500 81100;
0198584770999992000020806004+30030+122120FM-12+003799999V0203201N007012200019N0070001N1+00551-00541102511ADDAA199000091GF103991031011004501001001KA1999N+00011MA1999999102051MD1710141+9999MW1051REMSYN082AAXX  08061 58477 31457 33207 10055 21054 30205 40251 57014 70500 83100 333 20001;EQDQ01  00002PRCP99
0112584770999992000020809004+30030+122120FM-12+003799999V0203601N004010042019N0100001N1+00411-00431102611ADDGF106991061011004501001001MD1210091+9999REMSYN060AAXX  08091 58477 42460 63604 10041 21043 40261 52009 86100;
0163584770999992000020812004+30030+122120FM-12+003799999V0200201N006012200019N0170001N1+00151-00411102761ADDAA199000091GF103991031041004501001001MA1999999102291MD1210151+9999REMSYN066AAXX  08121 58477 32467 30206 10015 21041 30229 40276 52015 83400;EQDQ01  00002PRCP99
0112584770999992000020815004+30030+122120FM-12+003799999V0200201N005012200019N0180001N1+00051-00581102801ADDGF102991021041004501001001MD1210041+9999REMSYN060AAXX  08151 58477 42468 20205 10005 21058 40280 52004 82400;
0196584770999992000020818004+30030+122120FM-12+003799999V0203601N003012200019N0280001N1-00041-00541102741ADDAA199000091GA1001+999999999GF100991001001999999001001KA1999M+00611MA1999999102271MD1710061+9999REMSYN070AAXX  08181 58477 32978 03603 11004 21054 30227 40274 57006 333 10061;EQDQ01  00002PRCP99
0122584770999992000020821004+30030+122120FM-12+003799999V0200201N003012200019N0300001N1-00121-00481102711ADDGA1001+999999999GF100991001001999999001001MD1710031+9999REMSYN054AAXX  08211 58477 42980 00203 11012 21048 40271 57003;
0191584770999992000020900004+30030+122120FM-12+003799999V0209999C000012200019N0300001N1-00071-00351102801ADDAA199000091GF102991011011004501001021IA2999-00409MA1999999102331MD1210091+0201REMSYN082AAXX  09001 58477 32480 20000 11007 21035 30233 40280 52009 81102 333 00252 31046;EQDQ01  00002PRCP99
0112584770999992000020903004+30030+122120FM-12+003799999V0203601N002019999999N0300001N1+00471-00541102741ADDGF106991061001999999041021MD1710061+9999REMSYN060AAXX  09031 58477 42980 63602 10047 21054 40274 57006 86042;
0186584770999992000020906004+30030+122120FM-12+003799999V0201801N001019999999N0300001N1+00471-00351102511ADDAA199000091GF107991071001999999041999KA1999N-00261MA1999999102041MD1710231+9999REMSYN076AAXX  09061 58477 32980 71801 10047 21035 30204 40251 57023 8704/ 333 21026;EQDQ01  00002PRCP99
0112584770999992000020909004+30030+122120FM-12+003799999V0200701N003019999999N0300001N1+00381-00291102441ADDGF107991071001999999041999MD1710071+9999REMSYN060AAXX  09091 58477 42980 70703 10038 21029 40244 57007 8704/;
0163584770999992000020912004+30030+122120FM-12+003799999V0209999C000019999999N0250001N1+00231-00311102451ADDAA199000091GF107991071001999999041999MA1999999101981MD1210011+9999REMSYN066AAXX  09121 58477 32975 70000 10023 21031 30198 40245 52001 8704/;EQDQ01  00002PRCP99
0112584770999992000020915004+30030+122120FM-12+003799999V0209999C000019999999N0250001N1+00221-00151102391ADDGF108991081001999999071999MD1710051+9999REMSYN060AAXX  09151 58477 42975 80000 10022 21015 40239 57005 8807/;
0186584770999992000020918004+30030+122120FM-12+003799999V0209999C000019999999N0200001N1+00311+00041102321ADDAA199000091GF108991081001999999071999KA1999M+00631MA1999999101861MD1710071+9999REMSYN076AAXX  09181 58477 32970 80000 10031 20004 30186 40232 57007 8807/ 333 10063;EQDQ01  00002PRCP99
0112584770999992000020921004+30030+122120FM-12+003799999V0209999C000010210019N0180001N1+00401+00171102201ADDGF108991081051022501999999MD1710121+9999REMSYN060AAXX  09211 58477 42868 80000 10040 20017 40220 57012 885//;
0191584770999992000021000004+30030+122120FM-12+003799999V0201101N003019999999N0270001N1+00521+00221102181ADDAA199000091GF107991071001999999041021IA2999+00009MA1999999101721MD1710021-0601REMSYN082AAXX  10001 58477 32977 71103 10052 20022 30172 40218 57002 87042 333 05606 30007;EQDQ01  00002PRCP99
0112584770999992000021003004+30030+122120FM-12+003799999V0201401N003019999999N0300001N1+00931+00321102131ADDGF107991071001999999041999MD1710051+9999REMSYN060AAXX  10031 58477 42980 71403 10093 20032 40213 57005 8704/;
0186584770999992000021006004+30030+122120FM-12+003799999V0201801N003019999999N0300001N1+00911+00251101881ADDAA199000091GF108991081001999999071999KA1999N+00181MA1999999101421MD1710251+9999REMSYN076AAXX  10061 58477 32980 81803 10091 20025 30142 40188 57025 8807/ 333 20018;EQDQ01  00002PRCP99
0112584770999992000021009004+30030+122120FM-12+003799999V0201601N002010150019N0300001N1+00881+00371101861ADDGF107991061051017501041999MD1710021+9999REMSYN060AAXX  10091 58477 42780 71602 10088 20037 40186 57002 8654/;
0163584770999992000021012004+30030+122120FM-12+003799999V0209999C000010090019N0250001N1+00731+00431101931ADDAA199000091GF108991081081004501999999MA1999999101471MD1210071+9999REMSYN066AAXX  10121 58477 32475 80000 10073 20043 30147 40193 52007 888//;EQDQ01  00002PRCP99
0112584770999992000021015004+30030+122120FM-12+003799999V0209999C000010150019N0200001N1+00691+00431101951ADDGF108991081051017501999999MD1210031+9999REMSYN060AAXX  10151 58477 42770 80000 10069 20043 40195 52003 885//;
0193584770999992000021018004+30030+122120FM-12+003799999V0209999C000010042019N0140001N1+00661+00481101981ADDAA106000191AY161061GF108991081051004501999999KA1999M+01071MA1999999101531MD1210031+9999MW1601REMSYN088AAXX  10181 58477 11464 80000 10066 20048 30153 40198 52003 69911 76060 885// 333 10107;
0153584770999992000021021004+30030+122120FM-12+003799999V0209999C000010042019N0120001N1+00611+00451101931ADDAA124000391AY161031GF108991081051004501999999MD1710051+9999MW1001REMSYN076AAXX  10211 58477 41462 80000 10061 20045 40193 57005 70060 885// 333 70002;
0186584770999992000021100004+30030+122120FM-12+003799999V0203201N004010042019N0080001N1+00671-00041102111ADDAA106000191AY161061GF108991081051004501999999MA1999999101651MD1210171-0101MW1051REMSYN094AAXX  11001 58477 11458 83204 10067 21004 30165 40211 52017 69911 70560 885// 333 05102 70002;
0124584770999992000021103004+30030+122120FM-12+003799999V0203601N004019999999N0070001N1+00971-00371102201ADDGF106991061001999999041001MD1210101+9999MW1051REMSYN066AAXX  11031 58477 41957 63604 10097 21037 40220 52010 70500 86040;
0177584770999992000021106004+30030+122120FM-12+003799999V0203601N002012200019N0110001N1+01121-00351102031ADDAA199000021GA1001+999999999GF100991001001999999001001KA1999N+00591MA1999999101581MD1710171+9999REMSYN070AAXX  11061 58477 32961 03602 10112 21035 30158 40203 57017 333 20059;
0112584770999992000021109004+30030+122120FM-12+003799999V0200201N002012200019N0140001N1+00931-00321102091ADDGF101991011001999999041001MD1210061+9999REMSYN060AAXX  11091 58477 42964 10202 10093 21032 40209 52006 81040;
0173584770999992000021112004+30030+122120FM-12+003799999V0209999C000012200019N0110001N1+00541-00181102161ADDAA199000091GA1001+999999999GF100991001001999999001001MA1999999101701MD1210061+9999REMSYN060AAXX  11121 58477 32961 00000 10054 21018 30170 40216 52006;EQDQ01  00002PRCP99
0122584770999992000021115004+30030+122120FM-12+003799999V0203601N004012200019N0140001N1+00531-00221102171ADDGA1001+999999999GF100991001001999999001001MD1210011+9999REMSYN054AAXX  11151 58477 42964 03604 10053 21022 40217 52001;
0196584770999992000021118004+30030+122120FM-12+003799999V0200401N002012200019N0140001N1+00291+00191102151ADDAA199000091GA1001+999999999GF100991001001999999001001KA1999M+01171MA1999999101691MD1710021+9999REMSYN070AAXX  11181 58477 32964 00402 10029 20019 30169 40215 57002 333 10117;EQDQ01  00002PRCP99
0112584770999992000021121004+30030+122120FM-12+003799999V0200401N001012200019N0150001N1+00201+00151102061ADDGF102991021001999999041001MD1710091+9999REMSYN060AAXX  11211 58477 42965 20401 10020 20015 40206 57009 82040;
0203584770999992000021200004+30030+122120FM-12+003799999V0209999C000019999999N0080001N1+00371+00301102081ADDAA199000091GF107991071001999999041001IA2999-00109MA1999999101621MD1210021+0001MW1101REMSYN088AAXX  12001 58477 31958 70000 10037 20030 30162 40208 52002 71000 87040 333 00053 31013;EQDQ01  00002PRCP99
0112584770999992000021203004+30030+122120FM-12+003799999V0209999C000010360019N0110001N1+01161+00501102051ADDGF105991011011004501041001MD1710021+9999REMSYN060AAXX  12031 58477 42461 50000 10116 20050 40205 57002 81140;
0186584770999992000021206004+30030+122120FM-12+003799999V0202001N003010360019N0180001N1+01191+00521101881ADDAA199000091GF107991021011004501041999KA1999N+00171MA1999999101431MD1710171+9999REMSYN076AAXX  12061 58477 32468 72003 10119 20052 30143 40188 57017 8214/ 333 20017;EQDQ01  00002PRCP99
0112584770999992000021209004+30030+122120FM-12+003799999V0209999C000012200019N0140001N1+01111+00551101831ADDGF102991011011004501041001MD1710061+9999REMSYN060AAXX  12091 58477 42464 20000 10111 20055 40183 57006 81140;
0173584770999992000021212004+30030+122120FM-12+003799999V0209999C000012200019N0180001N1+00681+00421101941ADDAA199000091GA1001+999999999GF100991001001999999001001MA1999999101481MD1210111+9999REMSYN060AAXX  12121 58477 32968 00000 10068 20042 30148 40194 52011;EQDQ01  00002PRCP99
0122584770999992000021215004+30030+122120FM-12+003799999V0200201N001012200019N0230001N1+00661+00451101941ADDGA1001+999999999GF100991001001999999001001MD1210011+9999REMSYN054AAXX  12151 58477 42973 00201 10066 20045 40194 52001;
0196584770999992000021218004+30030+122120FM-12+003799999V0209999C000012200019N0250001N1+00551+00431101921ADDAA199000091GA1001+999999999GF100991001001999999001001KA1999M+01381MA1999999101471MD1710021+9999REMSYN070AAXX  12181 58477 32975 00000 10055 20043 30147 40192 57002 333 10138;EQDQ01  00002PRCP99
0112584770999992000021221004+30030+122120FM-12+003799999V0200401N002012200019N0250001N1+00631+00521101881ADDGF104991041051017501001001MD1710041+9999REMSYN060AAXX  12211 58477 42775 40402 10063 20052 40188 57004 84500;
0191584770999992000021300004+30030+122120FM-12+003799999V0209999C000012200019N0150001N1+00811+00571101851ADDAA199000091GF101991011001999999041001IA2999+00109MA1999999101401MD1710031-0201REMSYN082AAXX  13001 58477 32965 10000 10081 20057 30140 40185 57003 81040 333 05204 30010;EQDQ01  00002PRCP99
0112584770999992000021303004+30030+122120FM-12+003799999V0201601N004010360019N0180001N1+01211+00541101861ADDGF107991011011004501041999MD1210011+9999REMSYN060AAXX  13031 58477 42468 71604 10121 20054 40186 52001 8114/;
0112584770999992000021305004+30030+122120FM-12+003799999V0201101N004010150019N0200001N1+01061+00611101341ADDGF107991061051017501041999MD1710171+9999REMSYN060AAXX  13051 58477 42770 71104 10106 20061 40134 57017 8654/;
0186584770999992000021306004+30030+122120FM-12+003799999V0201101N004010360019N0200001N1+01091+00521101511ADDAA199000091GF108991011011008001071999KA1999N+00521MA1999999101061MD1710351+9999REMSYN076AAXX  13061 58477 32570 81104 10109 20052 30106 40151 57035 8117/ 333 20052;EQDQ01  00002PRCP99
0112584770999992000021309004+30030+122120FM-12+003799999V0201101N004010150019N0200001N1+01061+00611101341ADDGF107991061051017501041999MD1710171+9999REMSYN060AAXX  13091 58477 42770 71104 10106 20061 40134 57017 8654/;
0170584770999992000021312004+30030+122120FM-12+003799999V0209999C000010042019N0100001N1+00961+00791101491ADDAA106001091AY161061GF108991081051004501999999MA1999999101041MD1210151+9999MW1601REMSYN078AAXX  13121 58477 11460 80000 10096 20079 30104 40149 52015 60011 76060 885//;
0140584770999992000021315004+30030+122120FM-12+003799999V0200201N003010042019N0070001N1+00851+00791101641ADDAY161031AY261031GF108991081071004501999999MD1210151+9999MW1601REMSYN066AAXX  13151 58477 41457 80203 10085 20079 40164 52015 76066 887//;
0201584770999992000021318004+30030+122120FM-12+003799999V0200401N006010042019N0100001N1+00701+00631101641ADDAA106006191AY161061AY261061GF108991081071004501999999KA1999M+01311MA1999999101191MD1410001+9999MW1601REMSYN088AAXX  13181 58477 11460 80406 10070 20063 30119 40164 54000 60061 76066 887// 333 10131;
0153584770999992000021321004+30030+122120FM-12+003799999V0203401N003010042019N0220001N1+00681+00571101711ADDAA124006691AY161031GF108991081041004501999999MD1210071+9999MW1001REMSYN076AAXX  13211 58477 41472 83403 10068 20057 40171 52007 70060 884// 333 70067;
0186584770999992000021400004+30030+122120FM-12+003799999V0209999C000010042019N0230001N1+00691+00431101971ADDAA106000791AY161061GF108991081051004501999999MA1999999101521MD1210261+0101MW1211REMSYN094AAXX  14001 58477 11473 80000 10069 20043 30152 40197 52026 69901 72160 885// 333 00151 70067;
0112584770999992000021403004+30030+122120FM-12+003799999V0203401N003010090019N0130001N1+00751+00301102071ADDGF108991081081004501999999MD1210101+9999REMSYN060AAXX  14031 58477 42463 83403 10075 20030 40207 52010 888//;
0156584770999992000021412004+30030+122120FM-12+003799999V0203601N004010090019N0070001N1+00531+00121102351ADDAA199000021GF107991071081004501999999MA1999999101891MD1210241+9999MW1101REMSYN072AAXX  14121 58477 31457 73604 10053 20012 30189 40235 52024 71000 878//;
0124584770999992000021415004+30030+122120FM-12+003799999V0203601N004012200019N0080001N1+00401-00031102571ADDGF102991021011004501001001MD1210221+9999MW1101REMSYN066AAXX  14151 58477 41458 23604 10040 21003 40257 52022 71000 82100;
0186584770999992000021418004+30030+122120FM-12+003799999V0203601N003012200019N0130001N1+00341-00141102571ADDAA199000091GF104991021011004501041001KA1999M+00991MA1999999102111MD1410001+9999REMSYN076AAXX  14181 58477 32463 43603 10034 21014 30211 40257 54000 82140 333 10099;EQDQ01  00002PRCP99
0133584770999992000021421004+30030+122120FM-12+003799999V0209999C000012200019N0200001N1+00161-00131102581ADDAA124000791GF104991031011004501041001MD1210011+9999REMSYN070AAXX  14211 58477 42470 40000 10016 21013 40258 52001 83140 333 79999;
0191584770999992000021500004+30030+122120FM-12+003799999V0203401N002012200019N0130001N1+00211+00021102671ADDAA199000091GF101991011011004501001001IA2999-00109MA1999999102211MD1210091+0701REMSYN082AAXX  15001 58477 32463 13402 10021 20002 30221 40267 52009 81100 333 00755 31014;EQDQ01  00002PRCP99
0112584770999992000021503004+30030+122120FM-12+003799999V0203601N006012200019N0120001N1+00581-00381102731ADDGF102991021011004501001001MD1210061+9999REMSYN060AAXX  15031 58477 42462 23606 10058 21038 40273 52006 82100;
0186584770999992000021506004+30030+122120FM-12+003799999V0203401N006012200019N0100001N1+00661-00331102591ADDAA199000091GF102991021011004501001001KA1999N+00041MA1999999102131MD1710141+9999REMSYN076AAXX  15061 58477 32460 23406 10066 21033 30213 40259 57014 82100 333 20004;EQDQ01  00002PRCP99
0134584770999992000021509004+30030+122120FM-12+003799999V0203601N002012200019N0070001N1+00561-00191102551ADDGA1001+999999999GF100991001001999999001001MD1710041+9999MW1051REMSYN060AAXX  15091 58477 41957 03602 10056 21019 40255 57004 70500;
0185584770999992000021512004+30030+122120FM-12+003799999V0200201N003012200019N0080001N1+00331-00091102651ADDAA199000091GA1001+999999999GF100991001001999999001001MA1999999102181MD1210091+9999MW1101REMSYN066AAXX  15121 58477 31958 00203 10033 21009 30218 40265 52009 71000;EQDQ01  00002PRCP99
0122584770999992000021515004+30030+122120FM-12+003799999V0200201N003012200019N0150001N1+00281-00241102681ADDGA1001+999999999GF100991001001999999001001MD1210041+9999REMSYN054AAXX  15151 58477 42965 00203 10028 21024 40268 52004;
0186584770999992000021518004+30030+122120FM-12+003799999V0203601N002010120019N0230001N1+00261-00141102671ADDAA199000091GF108991081051012501999999KA1999M+00721MA1999999102211MD1710011+9999REMSYN076AAXX  15181 58477 32673 83602 10026 21014 30221 40267 57001 885// 333 10072;EQDQ01  00002PRCP99
0112584770999992000021521004+30030+122120FM-12+003799999V0203201N002010150019N0180001N1+00191-00031102621ADDGF108991081051017501999999MD1710051+9999REMSYN060AAXX  15211 58477 42768 83202 10019 21003 40262 57005 885//;
0201584770999992000021600004+30030+122120FM-12+003799999V0209999C000012200019N0120001N1+00131-00101102681ADDAA199000091GA1001+999999999GF100991001001999999001001IA2999+00009MA1999999102211MD1210051+0001REMSYN076AAXX  16001 58477 32962 00000 10013 21010 30221 40268 52005 333 00051 31009;EQDQ01  00002PRCP99
0112584770999992000021603004+30030+122120FM-12+003799999V0200701N002019999999N0120001N1+00701-00351102701ADDGF107991071001999999041999MD1210031+9999REMSYN060AAXX  16031 58477 42962 70702 10070 21035 40270 52003 8704/;
0186584770999992000021606004+30030+122120FM-12+003799999V0200201N003010360019N0100001N1+00731-00121102541ADDAA199000091GF107991021011004501041999KA1999N+00001MA1999999102081MD1710161+9999REMSYN076AAXX  16061 58477 32460 70203 10073 21012 30208 40254 57016 8214/ 333 20000;EQDQ01  00002PRCP99
0112584770999992000021609004+30030+122120FM-12+003799999V0200701N002010360019N0110001N1+00481-00161102531ADDGF108991021011004501071999MD1710011+9999REMSYN060AAXX  16091 58477 42461 80702 10048 21016 40253 57001 8217/;
0163584770999992000021612004+30030+122120FM-12+003799999V0200701N002010150019N0110001N1+00401-00131102691ADDAA199000091GF108991081051017501999999MA1999999102221MD1210151+9999REMSYN066AAXX  16121 58477 32761 80702 10040 21013 30222 40269 52015 885//;EQDQ01  00002PRCP99
0112584770999992000021615004+30030+122120FM-12+003799999V0209999C000010150019N0120001N1+00381-00191102651ADDGF108991081051017501999999MD1710031+9999REMSYN060AAXX  16151 58477 42762 80000 10038 21019 40265 57003 885//;
0186584770999992000021618004+30030+122120FM-12+003799999V0203601N002010150019N0120001N1+00341-00341102641ADDAA199000091GF107991071051017501999999KA1999M+00831MA1999999102181MD1710011+9999REMSYN076AAXX  16181 58477 32762 73602 10034 21034 30218 40264 57001 875// 333 10083;EQDQ01  00002PRCP99
0122584770999992000021621004+30030+122120FM-12+003799999V0203401N002012200019N0130001N1+00201-00181102641ADDGA1001+999999999GF100991001001999999001001MD1410001+9999REMSYN054AAXX  16211 58477 42963 03402 10020 21018 40264 54000;
0201584770999992000021700004+30030+122120FM-12+003799999V0200401N002012200019N0170001N1+00401-00161102831ADDAA199000091GA1001+999999999GF100991001001999999001001IA2999+00009MA1999999102371MD1210191+0201REMSYN076AAXX  17001 58477 32967 00402 10040 21016 30237 40283 52019 333 00203 31006;EQDQ01  00002PRCP99
0122584770999992000021703004+30030+122120FM-12+003799999V0201601N003012200019N0170001N1+01011-00161102781ADDGA1001+999999999GF100991001001999999001001MD1710051+9999REMSYN054AAXX  17031 58477 42967 01603 10101 21016 40278 57005;
0186584770999992000021706004+30030+122120FM-12+003799999V0200901N005012200019N0300001N1+01121-00021102531ADDAA199000091GF101991001001999999001021KA1999N+00141MA1999999102071MD1710251+9999REMSYN076AAXX  17061 58477 32980 10905 10112 21002 30207 40253 57025 80002 333 20014;EQDQ01  00002PRCP99
0112584770999992000021709004+30030+122120FM-12+003799999V0201601N004019999999N0250001N1+00821+00071102521ADDGF107991071001999999041999MD1710011+9999REMSYN060AAXX  17091 58477 42975 71604 10082 20007 40252 57001 8704/;
0163584770999992000021712004+30030+122120FM-12+003799999V0201101N004010150019N0300001N1+00751+00161102581ADDAA199000091GF108991081051017501999999MA1999999102121MD1210061+9999REMSYN066AAXX  17121 58477 32780 81104 10075 20016 30212 40258 52006 885//;EQDQ01  00002PRCP99
0112584770999992000021715004+30030+122120FM-12+003799999V0201101N002010150019N0300001N1+00771+00121102601ADDGF108991081051017501999999MD1210021+9999REMSYN060AAXX  17151 58477 42780 81102 10077 20012 40260 52002 885//;
