0180585490999992000010100004+29150+119630FM-12+003599999V0209999C000012200019N0120001N1+00641+00251102041ADDAA106000091GA1001+999999999GF100991001001999999001001IA2999+00009MD1210111-0301REMSYN070AAXX  01001 58549 32962 00000 10064 20025 40204 52011 333 05302 30005;EQDQ01  00002PRCP06
0175585490999992000010106004+29150+119630FM-12+003599999V0202901N003012200019N0130001N1+01781+00351101691ADDAA106000091GA1001+999999999GF100991001001999999001001KA1999N+00551MD1710291+9999REMSYN064AAXX  01061 58549 32963 02903 10178 20035 40169 57029 333 20055;EQDQ01  00002PRCP06
0152585490999992000010112004+29150+119630FM-12+003599999V0201401N001012200019N0130001N1+01211+00571101841ADDAA106000091GA1001+999999999GF100991001001999999001001MD1210171+9999REMSYN054AAXX  01121 58549 32963 01401 10121 20057 40184 52017;EQDQ01  00002PRCP06
0175585490999992000010118004+29150+119630FM-12+003599999V0209999C000012200019N0120001N1+00841+00501102041ADDAA106000091GA1001+999999999GF100991001001999999001001KA1999M+01861MD1210071+9999REMSYN064AAXX  01181 58549 32962 00000 10084 20050 40204 52007 333 10186;EQDQ01  00002PRCP06
0122585490999992000010121004+29150+119630FM-12+003599999V0209999C000012200019N0120001N1+00731+00501102061ADDGA1001+999999999GF100991001001999999001001MD1210011+9999REMSYN054AAXX  01211 58549 42962 00000 10073 20050 40206 52001;
0192585490999992000010200004+29150+119630FM-12+003599999V0209999C000012200019N0070001N1+00601+00441102241ADDAA106000091GA1001+999999999GF100991001001999999001001IA2999+00009MD1210171+0201MW1101REMSYN076AAXX  02001 58549 31957 00000 10060 20044 40224 52017 71000 333 00200 30005;EQDQ01  00002PRCP06
0187585490999992000010206004+29150+119630FM-12+003599999V0201101N003012200019N0080001N1+01371+00621101991ADDAA106000091GA1001+999999999GF100991001001999999001001KA1999N+00551MD1710321+9999MW1051REMSYN070AAXX  02061 58549 31958 01103 10137 20062 40199 57032 70500 333 20055;EQDQ01  00002PRCP06
0164585490999992000010212004+29150+119630FM-12+003599999V0201101N005012200019N0070001N1+00721+00371102241ADDAA106000091GA1001+999999999GF100991001001999999001001MD1210211+9999MW1101REMSYN060AAXX  02121 58549 31957 01105 10072 20037 40224 52021 71000;EQDQ01  00002PRCP06
0187585490999992000010218004+29150+119630FM-12+003599999V0200901N003012200019N0070001N1+00471+00191102191ADDAA106000091GA1001+999999999GF100991001001999999001001KA1999M+01411MD1710131+9999MW1101REMSYN070AAXX  02181 58549 31957 00903 10047 20019 40219 57013 71000 333 10141;EQDQ01  00002PRCP06
0182585490999992000010300004+29150+119630FM-12+003599999V0200901N002019999999N0050001N1+00351+00171102231ADDAA106000091GF108991081001999999071999IA2999+00009MD1210111+0001MW1101REMSYN082AAXX  03001 58549 31950 80902 10035 20017 40223 52011 710/0 8807/ 333 00053 30000;EQDQ01  00002PRCP06
0167585490999992000010306004+29150+119630FM-12+003599999V0202701N001012200019N0090001N1+01411+00461999999ADDAA106000091GA1001+999999999GF100991001001999999001001KA1999N+00311MW1051REMSYN064AAXX  03061 58549 31959 02701 10141 20046 4/189 70500 333 20031;EQDQ01  00002PRCP06
0164585490999992000010312004+29150+119630FM-12+003599999V0201401N001012200019N0070001N1+00981+00571101851ADDAA106000091GA1001+999999999GF100991001001999999001001MD1210111+9999MW1101REMSYN060AAXX  03121 58549 31957 01401 10098 20057 40185 52011 71000;EQDQ01  00002PRCP06
0187585490999992000010318004+29150+119630FM-12+003599999V0201101N001012200019N0040001N1+00651+00471101871ADDAA106000091GA1001+999999999GF100991001001999999001001KA1999M+01421MD1710041+9999MW1101REMSYN070AAXX  03181 58549 31940 01101 10065 20047 40187 57004 71000 333 10142;EQDQ01  00002PRCP06
0124585490999992000010321004+29150+119630FM-12+003599999V0209999C000012200019N0040001N1+00581+00421101871ADDGF102991021001999999041001MD1410001+9999MW1101REMSYN066AAXX  03211 58549 41940 20000 10058 20042 40187 54000 71000 82040;
0192585490999992000010400004+29150+119630FM-12+003599999V0209999C000012200019N0025001N1+00501+00331101951ADDAA106000091GA1001+999999999GF100991001001999999001001IA2999+00009MD1210071-0301MW1101REMSYN076AAXX  04001 58549 31925 00000 10050 20033 40195 52007 71000 333 05302 30001;EQDQ01  00002PRCP06
0187585490999992000010406004+29150+119630FM-12+003599999V0200701N001012200019N0090001N1+01931+00761101511ADDAA106000091GA1001+999999999GF100991001001999999001001KA1999N+00451MD1710371+9999MW1051REMSYN070AAXX  04061 58549 31959 00701 10193 20076 40151 57037 70500 333 20045;EQDQ01  00002PRCP06
0164585490999992000010412004+29150+119630FM-12+003599999V0209999C000012200019N0070001N1+01301+00881101521ADDAA106000091GA1001+999999999GF100991001001999999001001MD1210091+9999MW1101REMSYN060AAXX  04121 58549 31957 00000 10130 20088 40152 52009 71000;EQDQ01  00002PRCP06
0187585490999992000010418004+29150+119630FM-12+003599999V0201101N002012200019N0070001N1+01101+00751101431ADDAA106000091GA1001+999999999GF100991001001999999001001KA1999M+02011MD1710101+9999MW1101REMSYN070AAXX  04181 58549 31957 01102 10110 20075 40143 57010 71000 333 10201;EQDQ01  00002PRCP06
0153585490999992000010421004+29150+119630FM-12+003599999V0202901N004010120019N0060001N1+01021+00901101471ADDAA124002091AY161031GF108991081051012501999999MD1210031+9999MW1601REMSYN076AAXX  04211 58549 41656 82904 10102 20090 40147 52003 76060 885// 333 70020;
0165585490999992000010500004+29150+119630FM-12+003599999V0203601N001010120019N0020001N1+01051+00971101531ADDAA106005191AY161061GF107991071051012501041999MD1210061-0401MW1101REMSYN088AAXX  05001 58549 11620 73601 10105 20097 40153 52006 60051 71060 8754/ 333 05406 70053;
0165585490999992000010506004+29150+119630FM-12+003599999V0202901N003012200019N0100001N1+01911+01211101271ADDAA106000091GF101991011011012501001001KA1999N+01001MD1710271+9999REMSYN070AAXX  05061 58549 32660 12903 10191 20121 40127 57027 81100 333 20100;EQDQ01  00002PRCP06
0142585490999992000010512004+29150+119630FM-12+003599999V0200901N001010150019N0100001N1+01501+01301101471ADDAA106000091GF107991071051017501001001MD1210211+9999REMSYN060AAXX  05121 58549 32760 70901 10150 20130 40147 52021 87500;EQDQ01  00002PRCP06
0187585490999992000010518004+29150+119630FM-12+003599999V0200901N002012200019N0080001N1+01201+01011101581ADDAA106000091GA1001+999999999GF100991001001999999001001KA1999M+01981MD1710021+9999MW1101REMSYN070AAXX  05181 58549 31958 00902 10120 20101 40158 57002 71000 333 10198;EQDQ01  00002PRCP06
0149585490999992000010521004+29150+119630FM-12+003599999V0200901N006012200019N0070001N1+01091+00891999999ADDAA124003391GA1001+999999999GF100991001001999999001001MD1710051+9999MW1101REMSYN064AAXX  05211 58549 41957 00906 10109 20089 57005 71000 333 70033;
0172585490999992000010606004+29150+119630FM-12+003599999V0201101N005010075019N0080001N1+00791+00681101921ADDAA106007191AY161061GF108991081071008001999999KA1999N+00781MD1710101+9999MW1601REMSYN082AAXX  06061 58549 11558 81105 10079 20068 40192 57010 60071 76060 887// 333 20078;
0157585490999992000010612004+29150+119630FM-12+003599999V0200901N003010075019N0130001N1+00611+00471102551ADDAA106005191AY161061AY261061GF108991081051008001999999MD1210281+9999MW1601REMSYN072AAXX  06121 58549 11563 80903 10061 20047 40255 52028 60051 76066 885//;
0133585490999992000010621004+29150+119630FM-12+003599999V0201101N004010150019N0120001N1+00581+00341102531ADDAA124013791GF108991081051017501999999MD1710031+9999REMSYN070AAXX  06211 58549 42762 81104 10058 20034 40253 57003 885// 333 70136;
0176585490999992000010700004+29150+119630FM-12+003599999V0201101N004010150019N0100001N1+00601+00261102661ADDAA106000091GF108991071051017501071999IA2999+00509MD1210131+0801REMSYN082AAXX  07001 58549 32760 81104 10060 20026 40266 52013 8757/ 333 00854 30050 70136;EQDQ01  00002PRCP06
0165585490999992000010706004+29150+119630FM-12+003599999V0201101N005010150019N0110001N1+00591+00221102371ADDAA106000091GF108991081051017501999999KA1999N+00551MD1710331+9999REMSYN070AAXX  07061 58549 32761 81105 10059 20022 40237 57033 885// 333 20055;EQDQ01  00002PRCP06
0141585490999992000010712004+29150+119630FM-12+003599999V0200901N005010150019N0110001N1+00661+00271102311ADDAA100000791GF108991081051017501999999MD1210041+9999MW1601REMSYN072AAXX  07121 58549 11761 80905 10066 20027 40231 52004 69900 76000 885//;
0166585490999992000010718004+29150+119630FM-12+003599999V0200901N004010150019N0100001N1+00601+99999102051ADDAA106000191AY161061GF108991081051017501999999KA1999M+00721MD1710231+9999MW1801REMSYN076AAXX  07181 58549 11760 80904 10060 40205 57023 69921 78060 885// 333 10072;
0145585490999992000010721004+29150+119630FM-12+003599999V0202901N002010150019N0080001N1+00641+00501102071ADDAA124000391GF108991081051017501999999MD1210021+9999MW1601REMSYN076AAXX  07211 58549 41758 82902 10064 20050 40207 52002 76000 885// 333 70002;
0171585490999992000010800004+29150+119630FM-12+003599999V0200901N001019999999N0040001N1+00621+00551102121ADDAA124001391AY161061GF108991999999012501999999IA2999+00499MD1210051+9999MW1601REMSYN082AAXX  08001 58549 11640 80901 10062 20055 40212 52005 76060 333 05//0 30049 70013;
0152585490999992000010806004+29150+119630FM-12+003599999V0200901N002010150019N0100001N1+00801+00691101761ADDAA106000191GF108991081051017501999999KA1999N+00571MD1710301+9999REMSYN076AAXX  08061 58549 11760 80902 10080 20069 40176 57030 69921 885// 333 20057;
0149585490999992000010812004+29150+119630FM-12+003599999V0202701N002010120019N0070001N1+00801+00711101691ADDAA106001091AY161061GF108991081051012501999999MD1210051+9999MW1101REMSYN072AAXX  08121 58549 11657 82702 10080 20071 40169 52005 60011 71060 885//;
0172585490999992000010818004+29150+119630FM-12+003599999V0202901N002010120019N0060001N1+00781+00721101641ADDAA106004191AY161061GF108991081051012501999999KA1999M+00821MD1710081+9999MW1601REMSYN082AAXX  08181 58549 11656 82902 10078 20072 40164 57008 60041 76060 885// 333 10082;
0161585490999992000010821004+29150+119630FM-12+003599999V0202901N004010120019N0060001N1+00801+00741101611ADDAA124006691AY161031AY261031GF108991081051012501999999MD1710031+9999MW1601REMSYN076AAXX  08211 58549 41656 82904 10080 20074 40161 57003 76066 885// 333 70066;
0165585490999992000010900004+29150+119630FM-12+003599999V0202501N002010120019N0080001N1+00941+00791101831ADDAA106000591AY161061GF108991081051012501999999MD1210221-0301MW1101REMSYN088AAXX  09001 58549 11658 82502 10094 20079 40183 52022 69941 71060 885// 333 05303 70055;
0142585490999992000010912004+29150+119630FM-12+003599999V0202901N003010150019N0110001N1+01191+00911102031ADDAA106000091GF107991071051017501999999MD1210191+9999REMSYN060AAXX  09121 58549 32761 72903 10119 20091 40203 52019 875//;EQDQ01  00002PRCP06
0165585490999992000010918004+29150+119630FM-12+003599999V0201101N002010150019N0100001N1+01001+00731102011ADDAA106000091GF108991081051017501999999KA1999M+01291MD1710051+9999REMSYN070AAXX  09181 58549 32760 81102 10100 20073 40201 57005 885// 333 10129;EQDQ01  00002PRCP06
0152585490999992000011000004+29150+119630FM-12+003599999V0201101N005010150019N0100001N1+00831+00541102271ADDAA106000091GF108991081051017501999999MD1210131+0051REMSYN070AAXX  10001 58549 32760 81105 10083 20054 40227 52013 885// 333 00551;EQDQ01  00002PRCP06
0165585490999992000011006004+29150+119630FM-12+003599999V0200901N003010150019N0110001N1+01111+00571102081ADDAA106000091GF107991071051017501041999KA1999N+00821MD1710311+9999REMSYN070AAXX  10061 58549 32761 70903 10111 20057 40208 57031 8754/ 333 20082;EQDQ01  00002PRCP06
0142585490999992000011012004+29150+119630FM-12+003599999V0200901N005010150019N0100001N1+01011+00711102171ADDAA106000091GF108991081051017501999999MD1210011+9999REMSYN060AAXX  10121 58549 32760 80905 10101 20071 40217 52001 885//;EQDQ01  00002PRCP06
0112585490999992000011021004+29150+119630FM-12+003599999V0200901N004010150019N0120001N1+01161+00811101751ADDGF106991061051017501001001MD1710231+9999REMSYN060AAXX  10211 58549 42762 60904 10116 20081 40175 57023 86500;
0165585490999992000011100004+29150+119630FM-12+003599999V0201101N004010120019N0110001N1+01141+00921101801ADDAA106000191AY161061GF108991081051012501999999MD1210051-0501MW1601REMSYN088AAXX  11001 58549 11661 81104 10114 20092 40180 52005 69921 76060 885// 333 05503 70002;
0172585490999992000011106004+29150+119630FM-12+003599999V0201101N004012200019N0300001N1+02111+01171101121ADDAA106000191AY161061GF101991011011012501001001KA1999N+01001MD1710491+9999MW1001REMSYN082AAXX  11061 58549 11680 11104 10211 20117 40112 57049 69911 70060 81100 333 20100;
0149585490999992000011112004+29150+119630FM-12+003599999V0202901N004010150019N0200001N1+01551+01341101501ADDAA106000891AY161061GF108991081051017501999999MD1210341+9999MW1601REMSYN072AAXX  11121 58549 11770 82904 10155 20134 40150 52034 69971 76060 885//;
0199585490999992000011118004+29150+119630FM-12+003599999V0200701N002019999999N0150001N1+01321+01251101471ADDAA106005191AY161061AY261061GF107991999051008001999999KA1999M+02211MD1710031+9999MW1601REMSYN082AAXX  11181 58549 11565 70702 10132 20125 40147 57003 60051 76066 885// 333 10221;EQDQ01+000082SCOTLC
0161585490999992000011121004+29150+119630FM-12+003599999V0200901N002010075019N0150001N1+01181+01081101451ADDAA124007991AY161031AY261031GF108991081051008001999999MD1710031+9999MW1601REMSYN076AAXX  11211 58549 41565 80902 10118 20108 40145 57003 76066 885// 333 70079;
0173585490999992000011200004+29150+119630FM-12+003599999V0200701N001010075019N0090001N1+01101+01041101711ADDAA106004191AY161061AY261061GF108991081051008001999999MD1210261-0101MW1601REMSYN088AAXX  12001 58549 11559 80701 10110 20104 40171 52026 60041 76066 885// 333 05100 70095;
0180585490999992000011206004+29150+119630FM-12+003599999V0200901N003010075019N0050001N1+00941+00881101711ADDAA106003091AY161061AY261061GF108991081051008001999999KA1999N+00931MD1710151+9999MW1601REMSYN082AAXX  12061 58549 11550 80903 10094 20088 40171 57015 60031 76066 885// 333 20093;
0157585490999992000011212004+29150+119630FM-12+003599999V0200901N002010075019N0080001N1+00781+00671102061ADDAA106002091AY161061AY261061GF108991081051008001999999MD1210101+9999MW1601REMSYN072AAXX  12121 58549 11558 80902 10078 20067 40206 52010 60021 76066 885//;
0172585490999992000011218004+29150+119630FM-12+003599999V0201101N004010075019N0060001N1+00601+00511101991ADDAA106004191AY161061GF108991081051008001999999KA1999M+01321MD1210061+9999MW1601REMSYN082AAXX  12181 58549 11556 81104 10060 20051 40199 52006 60041 76060 885// 333 10132;
0183585490999992000011300004+29150+119630FM-12+003599999V0201101N004010150019N0120001N1+00521+00271102131ADDAA106001091AY161061GF108991081051017501999999IA2999+00509MD1210061+0401MW1001REMSYN094AAXX  13001 58549 11762 81104 10052 20027 40213 52006 60011 70060 885// 333 00456 30050 70101;
0165585490999992000011306004+29150+119630FM-12+003599999V0200901N005010150019N0120001N1+00561+00211102081ADDAA106000091GF108991081051017501999999KA1999N+00481MD1710181+9999REMSYN070AAXX  13061 58549 32762 80905 10056 20021 40208 57018 885// 333 20048;EQDQ01  00002PRCP06
0149585490999992000011312004+29150+119630FM-12+003599999V0200901N005010150019N0120001N1+00471+00251102231ADDAA106000791AY161061GF108991081051017501999999MD1210081+9999MW1601REMSYN072AAXX  13121 58549 11762 80905 10047 20025 40223 52008 69901 76060 885//;
0172585490999992000011318004+29150+119630FM-12+003599999V0200901N004010150019N0100001N1+00401+00091102301ADDAA106000591AY161061GF108991081051017501999999KA1999M+00611MD1210031+9999MW1001REMSYN082AAXX  13181 58549 11760 80904 10040 20009 40230 52003 69941 70060 885// 333 10061;
0196585490999992000011400004+29150+119630FM-12+003599999V0200901N004010150019N0080001N1+00361+00151999999ADDAA106000891AY161061GF108991081051017501999999IA2999+00359MD1210171+9999ME1312449MW1101REMSYN098    AAXX  14001 58549 11758 80904 10036 20015 48244 52017 69971 71060 885// 333 00/52 30035 70011;
0169585490999992000011406004+29150+119630FM-12+003599999V0200901N004010150019N0100001N1+00481+00121102261ADDAA199000091GF108991081051017501999999KA1999N+00311MD1710271+9999REMSYN074    AAXX  14061 58549 32760 80904 10048 20012 40226 57027 885// 333 20031;EQDQ01  00002PRCP99
0184585490999992000011418004+29150+119630FM-12+003599999V0200901N006010075019N0080001N1+00391+00271102151ADDAA106006191AY161061AY261061GF108991081051008001999999KA1999M+00491MD1710081+9999MW1601REMSYN086    AAXX  14181 58549 11558 80906 10039 20027 40215 57008 60061 76066 885// 333 10049;
0195585490999992000011500004+29150+119630FM-12+003599999V0200901N005010075019N0100001N1+00431+00331102211ADDAA106007991AY161061AY261061GF108991081051008001999999IA2999+00399MD1210101-0201MW1601REMSYN098    AAXX  15001 58549 11560 80905 10043 20033 40221 52010 60081 76066 885// 333 05201 30039 70139;
0176585490999992000011506004+29150+119630FM-12+003599999V0200701N005010075019N0150001N1+00641+00551101831ADDAA106002091AY161061GF108991081051008001999999KA1999N+00371MD1710301+9999MW1601REMSYN086    AAXX  15061 58549 11565 80705 10064 20055 40183 57030 60021 76060 885// 333 20037;
0161585490999992000011512004+29150+119630FM-12+003599999V0200201N001010075019N0100001N1+00651+00611102091ADDAA106003091AY161061AY261061GF108991081051008001999999MD1210221+9999MW1601REMSYN076    AAXX  15121 58549 11560 80201 10065 20061 40209 52022 60031 76066 885//;
0184585490999992000011518004+29150+119630FM-12+003599999V0202201N001010075019N0040001N1+00641+00601102131ADDAA106002091AY161061AY261061GF108991081051008001999999KA1999M+00681MD1710031+9999MW1601REMSYN086    AAXX  15181 58549 11540 82201 10064 20060 40213 57003 60021 76066 885// 333 10068;
0165585490999992000011521004+29150+119630FM-12+003599999V0202701N002010075019N0040001N1+00641+00601102191ADDAA124012491AY161031AY261031GF108991081051008001999999MD1210061+9999MW1601REMSYN080    AAXX  15211 58549 41540 82702 10064 20060 40219 52006 76066 885// 333 70124;
0177585490999992000011600004+29150+119630FM-12+003599999V0202901N002010075019N0060001N1+00661+00591102391ADDAA106004191AY161061AY261061GF108991081051008001999999MD1210191+0201MW1601REMSYN092    AAXX  16001 58549 11556 82902 10066 20059 40239 52019 60041 76066 885// 333 00202 70106;
0176585490999992000011606004+29150+119630FM-12+003599999V0201101N004010075019N0140001N1+00661+00481102301ADDAA106001091AY161061GF108991081051008001999999KA1999N+00621MD1710221+9999MW1601REMSYN086    AAXX  16061 58549 11564 81104 10066 20048 40230 57022 60011 76060 885// 333 20062;
0153585490999992000011612004+29150+119630FM-12+003599999V0200901N004010120019N0120001N1+00511+00291102521ADDAA106000391AY161061GF108991081051012501999999MD1210111+9999MW1601REMSYN076    AAXX  16121 58549 11662 80904 10051 20029 40252 52011 69931 76060 885//;
0184585490999992000011618004+29150+119630FM-12+003599999V0200901N002010150019N0100001N1+00381+00201102611ADDAA106006191AY171061AY261061GF108991081051017501999999KA1999M+00691MD1210031+9999MW1601REMSYN086    AAXX  16181 58549 11760 80902 10038 20020 40261 52003 60061 76076 885// 333 10069;
0165585490999992000011621004+29150+119630FM-12+003599999V0201401N002010120019N0100001N1+00331+00201102641ADDAA124008991AY161031AY261031GF108991081051012501999999MD1210031+9999MW1601REMSYN080    AAXX  16211 58549 41660 81402 10033 20020 40264 52003 76066 885// 333 70088;
0187585490999992000011700004+29150+119630FM-12+003599999V0200901N003010150019N0100001N1+00351+00201102741ADDAA106000591AY161061GF108991081051017501999999IA2999+00409MD1210091+0301MW1601REMSYN098    AAXX  17001 58549 11760 80903 10035 20020 40274 52009 69951 76060 885// 333 00353 30040 70076;
0176585490999992000011706004+29150+119630FM-12+003599999V0201601N002010150019N0100001N1+00391+00071102601ADDAA106000791AY161061GF108991081051017501999999KA1999N+00291MD1710301+9999MW1001REMSYN086    AAXX  17061 58549 11760 81602 10039 20007 40260 57030 69901 70060 885// 333 20029;
0127585490999992000011712004+29150+119630FM-12+003599999V0202201N002010150019N0110001N1+00431+00201102721ADDAA199000021GF107991071051017501999999MD1210111+9999REMSYN064    AAXX  17121 58549 32761 72202 10043 20020 40272 52011 875//;
0169585490999992000011718004+29150+119630FM-12+003599999V0200901N002010150019N0100001N1+00361-00081102761ADDAA199000091GF108991081051017501999999KA1999M+00431MD1410001+9999REMSYN074    AAXX  17181 58549 32760 80902 10036 21008 40276 54000 885// 333 10043;EQDQ01  00002PRCP99
0137585490999992000011721004+29150+119630FM-12+003599999V0200901N002010150019N0100001N1+00281-00021102711ADDAA124000191GF108991081051017501999999MD1710051+9999REMSYN074    AAXX  17211 58549 42760 80902 10028 21002 40271 57005 885// 333 70001;
0161585490999992000011800004+29150+119630FM-12+003599999V0200701N002010150019N0100001N1+00271-00031102841ADDAA124000791GF108991081051017501999999IA2999+00189MD1210131+0101REMSYN086    AAXX  18001 58549 32760 80702 10027 21003 40284 52013 885// 333 00151 30018 79999;
0169585490999992000011806004+29150+119630FM-12+003599999V0203601N001010150019N0110001N1+00621-00011102561ADDAA199000091GF107991071051017501999999KA1999N+00231MD1710251+9999REMSYN074    AAXX  18061 58549 32761 73601 10062 21001 40256 57025 875// 333 20023;EQDQ01  00002PRCP99
0146585490999992000011812004+29150+119630FM-12+003599999V0203201N002012200019N0110001N1+00521+00171102761ADDAA199000091GF102991021001999999041001MD1210151+9999REMSYN064    AAXX  18121 58549 32961 23202 10052 20017 40276 52015 82040;EQDQ01  00002PRCP99
0191585490999992000011818004+29150+119630FM-12+003599999V0202901N003012200019N0080001N1+00371+00221102851ADDAA199000091GA1001+999999999GF100991001001999999001001KA1999M+00691MD1710021+9999MW1101REMSYN074    AAXX  18181 58549 31958 02903 10037 20022 40285 57002 71000 333 10069;EQDQ01  00002PRCP99
0138585490999992000011821004+29150+119630FM-12+003599999V0200901N001012200019N0060001N1+00181+00071102801ADDGA1001+999999999GF100991001001999999001001MD1710061+9999MW1101REMSYN064    AAXX  18211 58549 41956 00901 10018 20007 40280 57006 71000;
0194585490999992000011900004+29150+119630FM-12+003599999V0201101N001010150019N0012001N1+00161+00051103061ADDAA199000091AY141061GF108991081051017501999999IA2999+00009MD1210261+0201MW1281REMSYN086    AAXX  19001 58549 31712 81101 10016 20005 40306 52026 72840 885// 333 00251 31002;EQDQ01  00002PRCP99
0181585490999992000011906004+29150+119630FM-12+003599999V0201401N002010150019N0060001N1+00611+00101102941ADDAA199000091GF107991071051017501999999KA1999N+00111MD1710291+9999MW1101REMSYN080    AAXX  19061 58549 31756 71402 10061 20010 40294 57029 71000 875// 333 20011;EQDQ01  00002PRCP99
0146585490999992000011912004+29150+119630FM-12+003599999V0200901N004012200019N0100001N1+00331-00121103161ADDAA199000091GF102991021001999999041001MD1210121+9999REMSYN064    AAXX  19121 58549 32960 20904 10033 21012 40316 52012 82040;EQDQ01  00002PRCP99
0165585490999992000011918004+29150+119630FM-12+003599999V0200901N003019999999N0100001N1+00131-00551103211ADDAA199000091GF107991071001999999041999KA1999M+00681MD1410001+9999REMSYN070AAXX  19181 58549 32960 70903 10013 21055 40321 54000 8704/ 333 10068;EQDQ01  00002PRCP99
0112585490999992000011921004+29150+119630FM-12+003599999V0200901N004019999999N0100001N1+00011-00551103321ADDGF107991071001999999041999MD1210111+9999REMSYN060AAXX  19211 58549 42960 70904 10001 21055 40332 52011 8704/;
0180585490999992000012000004+29150+119630FM-12+003599999V0201101N004012200019N0100001N1-00061-00651103521ADDAA199000091GA1001+999999999GF100991001001999999001001IA2999-00109MD1210191+0501REMSYN070AAXX  20001 58549 32960 01104 11006 21065 40352 52019 333 00552 31015;EQDQ01  00002PRCP99
0175585490999992000012006004+29150+119630FM-12+003599999V0200701N003012200019N0130001N1+00611-00621103421ADDAA199000091GA1001+999999999GF100991001001999999001001KA1999N-00071MD1710181+9999REMSYN064AAXX  20061 58549 32963 00703 10061 21062 40342 57018 333 21007;EQDQ01  00002PRCP99
0112585490999992000012021004+29150+119630FM-12+003599999V0200901N004012200019N0160001N1-00011-00711103671ADDGF101991011001999999041001MD1710041+9999REMSYN060AAXX  20211 58549 42966 10904 11001 21071 40367 57004 81040;
0170585490999992000012100004+29150+119630FM-12+003599999V0200901N004012200019N0250001N1-00011-00581103771ADDAA199000091GF102991021001999999041001IA2999-00209MD1210101+0301REMSYN076AAXX  21001 58549 32975 20904 11001 21058 40377 52010 82040 333 00301 31028;EQDQ01  00002PRCP99
0133585490999992000012121004+29150+119630FM-12+003599999V0200701N003010150019N0160001N1+00771+00241102721ADDAA124000791GF107991071051017501999999MD1710181+9999REMSYN070AAXX  21211 58549 42766 70703 10077 20024 40272 57018 875// 333 79999;
0157585490999992000012200004+29150+119630FM-12+003599999V0201101N002010150019N0230001N1+00771+00301102601ADDAA124999999GF108991081051017501999999IA2999+00359MD1710041-1101REMSYN082AAXX  22001 58549 32773 81102 10077 2003/ 4026/ 57004 885// 333 06108 30035 7939/;
0172585490999992000012206004+29150+119630FM-12+003599999V0202701N002010150019N0150001N1+01001+00611102301ADDAA106000391AY161061GF108991071051017501071999KA1999N+00681MD1710291+9999MW1001REMSYN082AAXX  22061 58549 11765 82702 10100 20061 40230 57029 69931 70060 8757/ 333 20068;
0145585490999992000012221004+29150+119630FM-12+003599999V0200701N004010150019N0100001N1+00741+00611102301ADDAA124000391GF108991081051017501999999MD1710061+9999MW1601REMSYN076AAXX  22211 58549 41760 80704 10074 20061 40230 57006 76000 885// 333 70003;
0165585490999992000012300004+29150+119630FM-12+003599999V0200901N003010075019N0080001N1+00711+00621102491ADDAA106001091AY161061GF108991081051008001999999MD1210191-0201MW1601REMSYN088AAXX  23001 58549 11558 80903 10071 20062 40249 52019 60011 76060 885// 333 05251 70013;
0172585490999992000012306004+29150+119630FM-12+003599999V0201101N005010075019N0110001N1+00861+00601102111ADDAA106002091AY161061GF108991081051008001999999KA1999N+00691MD1710411+9999MW1001REMSYN082AAXX  23061 58549 11561 81105 10086 20060 40211 57041 60021 70060 885// 333 20069;
0141585490999992000012312004+29150+119630FM-12+003599999V0200901N005010150019N0100001N1+00621+00461102571ADDAA106000791GF108991081051017501999999MD1210131+9999MW1601REMSYN072AAXX  23121 58549 11760 80905 10062 20046 40257 52013 69901 76000 885//;
0156585490999992000012318004+29150+119630FM-12+003599999V0201101N005010120019N0100001N1+00511+00371102691ADDGF108991081051012501999999KA1999M+00871REMSYN070AAXX  23181 58549 11660 81105 10051 20037 40269 57777 885// 333 10087;EQDQ01+000077APCTENQ02+007777APC3  
0153585490999992000012321004+29150+119630FM-12+003599999V0201101N004010120019N0110001N1+00471+00271102751ADDAA124004691AY161031GF108991081051012501999999MD1210061+9999MW1601REMSYN076AAXX  23211 58549 41661 81104 10047 20027 40275 52006 76060 885// 333 70045;
0183585490999992000012400004+29150+119630FM-12+003599999V0201101N005010075019N0120001N1+00481+00261102901ADDAA106000891AY161061GF108991081051008001999999IA2999+00459MD1210151+0401MW1601REMSYN094AAXX  24001 58549 11562 81105 10048 20026 40290 52015 69981 76060 885// 333 00452 30045 70038;
0172585490999992000012406004+29150+119630FM-12+003599999V0201101N004010075019N0130001N1+00511+00301102881ADDAA106001091AY161061GF108991081051008001999999KA1999N+00441MD1710161+9999MW1601REMSYN082AAXX  24061 58549 11563 81104 10051 20030 40288 57016 60011 76060 885// 333 20044;
0157585490999992000012412004+29150+119630FM-12+003599999V0200901N005010075019N0130001N1+00381+99999103421ADDAA106000191AY161061AY261061GF108991071051008001999999MD1210301+9999MW1601REMSYN072AAXX  24121 58549 11563 80905 10038 21/03 40342 52030 69911 76066 875//;
0161585490999992000012421004+29150+119630FM-12+003599999V0200901N004010150019N0130001N1+00001-00091103681ADDAA124001591AY171031AY261031GF108991081051017501999999MD1210061+9999MW1701REMSYN076AAXX  24211 58549 41763 80904 10000 21009 40368 52006 77076 885// 333 70015;
0191585490999992000012500004+29150+119630FM-12+003599999V0200901N005010150019N0130001N1-00041-00381103821ADDAA106000791AY171061AY261061GF108991081051017501999999IA2999+00039MD1210141+0901MW1001REMSYN094AAXX  25001 58549 11763 80905 11004 21038 40382 52014 69901 70076 885// 333 00955 30003 70012;
0172585490999992000012506004+29150+119630FM-12+003599999V0203601N002010075019N0130001N1+00111-00321103711ADDAA106000791AY171061GF108991081051008001999999KA1999N-00101MD1710201+9999MW1701REMSYN082AAXX  25061 58549 11563 83602 10011 21032 40371 57020 69901 77070 885// 333 21010;
0143585490999992000012512004+29150+119630FM-12+003599999V0200901N003010150019N0130001N1-00031-00701999999ADDAA106000791AY171061GF107991071051017501999999MD1210161+9999MW1001REMSYN066AAXX  25121 58549 11763 70903 11003 21070 52016 69901 70070 875//;
0146585490999992000012518004+29150+119630FM-12+003599999V0200901N002010150019N0120001N1-00201-00841103861ADDAA199000021GF107991071051017501999999KA1999M+00211MD1710061+9999REMSYN070AAXX  25181 58549 32762 70902 11020 21084 40386 57006 875// 333 10021;
0131585490999992000012600004+29150+119630FM-12+003599999V02099999999999999999N0100001N1-00291+99999104071ADDAA124000791IA2999-00369MD1210181+0201REMSYN082AAXX  26001 58549 32960 ////3 11029 27085 40407 52018 82040 333 00253 31036 79999;
0165585490999992000012606004+29150+119630FM-12+003599999V0200901N002012200019N0130001N1+00201-00851103681ADDAA199000091GF101991001001999999001021KA1999N-00321MD1710351+9999REMSYN070AAXX  26061 58549 32963 10902 10020 21085 40368 57035 80002 333 21032;EQDQ01  00002PRCP99
0152585490999992000012612004+29150+119630FM-12+003599999V0200901N004012200019N0130001N1+00011-00771103831ADDAA199000091GA1001+999999999GF100991001001999999001001MD1210121+9999REMSYN054AAXX  26121 58549 32963 00904 10001 21077 40383 52012;EQDQ01  00002PRCP99
0175585490999992000012618004+29150+119630FM-12+003599999V0200901N003012200019N0130001N1-00301-00961103961ADDAA199000091GA1001+999999999GF100991001001999999001001KA1999M+00341MD1210061+9999REMSYN064AAXX  26181 58549 32963 00903 11030 21096 40396 52006 333 10034;EQDQ01  00002PRCP99
0090585490999992000012621004+29150+119630FM-12+003599999V0200901N002012200019N0140001N1-00411+99999999999ADDGA1001+999999999GF100991001001999999001001REMSYN036AAXX  26211 58549 /2964 00902 11041;
0175585490999992000012706004+29150+119630FM-12+003599999V0202001N001012200019N0100001N1+00251-01021103701ADDAA199000091GA1001+999999999GF100991001001999999001001KA1999N-00451MD1710301+9999REMSYN064AAXX  27061 58549 32960 02001 10025 21102 40370 57030 333 21045;EQDQ01  00002PRCP99
0175585490999992000012718004+29150+119630FM-12+003599999V0200901N004012200019N0100001N1-00261-00821103751ADDAA199000091GA1001+999999999GF100991001001999999001001KA1999M+00251MD1710021+9999REMSYN064AAXX  27181 58549 32960 00904 11026 21082 40375 57002 333 10025;EQDQ01  00002PRCP99
0122585490999992000012721004+29150+119630FM-12+003599999V0201101N002012200019N9999999N1-00371-00771103671ADDGA1001+999999999GF100991001001999999001001MD1710081+9999REMSYN054AAXX  27211 58549 4296/ 01102 11037 21077 40367 57008;
0168585490999992000012800004+29150+119630FM-12+003599999V0200901N003012200019N0100001N1-00361-00761103711ADDAA199000091GA1001+999999999GF100991001001999999001001MD1210041+9999REMSYN054AAXX  28001 58549 32960 00903 11036 21076 40371 5200/;EQDQ01+000002APC3  Q02  00002PRCP99
0165585490999992000012806004+29150+119630FM-12+003599999V0201101N004019999999N0140001N1+00471-00921103251ADDAA199000091GF106991061001999999041001KA1999N-00421MD1710471+9999REMSYN070AAXX  28061 58549 32964 61104 10047 21092 40325 57047 86040 333 21042;EQDQ01  00002PRCP99
0136585490999992000012812004+29150+119630FM-12+003599999V0201101N003010150019N0150001N1+00431-00541999999ADDAA199000091GF107991071051017501999999MD1210061+9999REMSYN054AAXX  28121 58549 32765 71103 10043 21054 52006 875//;EQDQ01  00002PRCP99
0165585490999992000012818004+29150+119630FM-12+003599999V0201101N002010150019N0140001N1+00291-00201103141ADDAA199000091GF108991081051017501999999KA1999M+00601MD1710031+9999REMSYN070AAXX  28181 58549 32764 81102 10029 21020 40314 57003 885// 333 10060;EQDQ01  00002PRCP99
0112585490999992000012821004+29150+119630FM-12+003599999V0209999C000010150019N0130001N1+00271-00161103131ADDGF108991081051017501999999MD1710011+9999REMSYN060AAXX  28211 58549 42763 80000 10027 21016 40313 57001 885//;
0170585490999992000012900004+29150+119630FM-12+003599999V0209999C000010150019N0110001N1+00311-00051103321ADDAA199000091GF108991081051017501999999IA2999+00209MD1210191-0401REMSYN076AAXX  29001 58549 32761 80000 10031 21005 40332 52019 885// 333 05407 30022;EQDQ01  00002PRCP99
0165585490999992000012906004+29150+119630FM-12+003599999V0202701N003019999999N0100001N1+00581-00131103271ADDAA199000091GF108991081001999999071999KA1999N+00261MD1710171+9999REMSYN070AAXX  29061 58549 32960 82703 10058 21013 40327 57017 8807/ 333 20026;EQDQ01  00002PRCP99
0142585490999992000012912004+29150+119630FM-12+003599999V0202901N002010150019N0110001N1+00541-00051103651ADDAA199000091GF108991081051017501999999MD1210251+9999REMSYN060AAXX  29121 58549 32761 82902 10054 21005 40365 52025 885//;EQDQ01  00002PRCP99
0165585490999992000012918004+29150+119630FM-12+003599999V0201101N001010150019N0100001N1+00431+00061103781ADDAA199000091GF108991081051017501999999KA1999M+00601MD1210041+9999REMSYN070AAXX  29181 58549 32760 81101 10043 20006 40378 52004 885// 333 10060;EQDQ01  00002PRCP99
0142585490999992000013000004+29150+119630FM-12+003599999V0201101N002010150019N0100001N1+00351-00071104071ADDAA199000091GF106991051051017501041001MD1210221+9999REMSYN060AAXX  30001 58549 32760 61102 10035 21007 40407 52022 85540;EQDQ01  00002PRCP99
0165585490999992000013006004+29150+119630FM-12+003599999V0200901N005010150019N0110001N1+00701-00431103851ADDAA199000091GF107991061051017501041999KA1999N+00321MD1710241+9999REMSYN070AAXX  30061 58549 32761 70905 10070 21043 40385 57024 8654/ 333 20032;EQDQ01  00002PRCP99
0152585490999992000013012004+29150+119630FM-12+003599999V0201101N005012200019N0110001N1+00201-01011104161ADDAA199000091GA1001+999999999GF100991001001999999001001MD1210201+9999REMSYN054AAXX  30121 58549 32961 01105 10020 21101 40416 52020;EQDQ01  00002PRCP99
0175585490999992000013018004+29150+119630FM-12+003599999V0200901N004012200019N0100001N1-00111-00851104251ADDAA199000091GA1001+999999999GF100991001001999999001001KA1999M+00741MD1710061+9999REMSYN064AAXX  30181 58549 32960 00904 11011 21085 40425 57006 333 10074;EQDQ01  00002PRCP99
0122585490999992000013021004+29150+119630FM-12+003599999V0200901N004012200019N0100001N1-00211-00851104251ADDGA1001+999999999GF100991001001999999001001MD1710011+9999REMSYN054AAXX  30211 58549 42960 00904 11021 21085 40425 57001;
0180585490999992000013100004+29150+119630FM-12+003599999V0201101N005012200019N0120001N1-00201-00891104361ADDAA199000091GA1001+999999999GF100991001001999999001001IA2999-00409MD1210111+0301REMSYN070AAXX  31001 58549 32962 01105 11020 21089 40436 52011 333 00356 31041;EQDQ01  00002PRCP99
0165585490999992000013106004+29150+119630FM-12+003599999V0201101N006019999999N0150001N1+00301-01161103891ADDAA199000091GF105991051001999999041001KA1999N-00251MD1710421+9999REMSYN070AAXX  31061 58549 32965 51106 10030 21116 40389 57042 85040 333 21025;EQDQ01  00002PRCP99
0142585490999992000013112004+29150+119630FM-12+003599999V0200901N005019999999N0130001N1+00071-00971103911ADDAA199000091GF108991081001999999071999MD1210041+9999REMSYN060AAXX  31121 58549 32963 80905 10007 21097 40391 52004 8807/;EQDQ01  00002PRCP99
0165585490999992000013118004+29150+119630FM-12+003599999V0200901N003010150019N0130001N1-00031-00871103821ADDAA199000091GF108991081051017501999999KA1999M+00341MD1710041+9999REMSYN070AAXX  31181 58549 32763 80903 11003 21087 40382 57004 885// 333 10034;EQDQ01  00002PRCP99
0145585490999992000013121004+29150+119630FM-12+003599999V0201101N004010150019N0130001N1-00071-00661103771ADDAA124000791GF108991081051017501999999MD1710051+9999MW1701REMSYN076AAXX  31211 58549 41763 81104 11007 21066 40377 57005 77000 885// 333 79999;
0183585490999992000020100004+29150+119630FM-12+003599999V0201101N002010150019N0080001N1-00101-00621103871ADDAA106000791AY171061GF108991081051017501999999IA2999-00069MD1210091-0501MW1701REMSYN094AAXX  01001 58549 11758 81102 11010 21062 40387 52009 69901 77070 885// 333 05501 31006 79999;
0180585490999992000020106004+29150+119630FM-12+003599999V0200901N004010150019N0110001N1+00201-00541103441ADDAA106000191AY171061AY261061GF107991071051017501001001KA1999N-00191MD1710401+9999MW1001REMSYN082AAXX  01061 58549 11761 70904 10020 21054 40344 57040 69921 70076 87500 333 21019;
0165585490999992000020118004+29150+119630FM-12+003599999V0200901N003010150019N0100001N1-00051-00551103411ADDAA199000091GF108991081051017501999999KA1999M+00201MD1710041+9999REMSYN070AAXX  01181 58549 32760 80903 11005 21055 40341 57004 885// 333 10020;EQDQ01  00002PRCP99
0133585490999992000020121004+29150+119630FM-12+003599999V0200901N003010150019N0110001N1-00061-00601103221ADDAA124000391GF108991081051017501999999MD1710191+9999REMSYN070AAXX  01211 58549 42761 80903 11006 21060 40322 57019 885// 333 70002;
0157585490999992000020200004+29150+119630FM-12+003599999V0200901N004010150019N0110001N1-00021-00721103341ADDAA124000391GF108991081051017501999999IA2999-00109MD1210121-0501REMSYN082AAXX  02001 58549 32761 80904 11002 21072 40334 52012 885// 333 05501 31010 70002;
0165585490999992000020206004+29150+119630FM-12+003599999V0201401N003010150019N0120001N1+00331-00631102981ADDAA199000091GF108991081051017501999999KA1999N-00061MD1710281+9999REMSYN070AAXX  02061 58549 32762 81403 10033 21063 40298 57028 885// 333 21006;EQDQ01  00002PRCP99
0112585490999992000020221004+29150+119630FM-12+003599999V0209999C000019999999N0100001N1+00051-00251102941ADDGF107991071001999999041001MD1210011+9999REMSYN060AAXX  02211 58549 42960 70000 10005 21025 40294 52001 87040;
0182585490999992000020300004+29150+119630FM-12+003599999V0200701N002019999999N0070001N1+00121-00301103121ADDAA199000091GF108991081001999999071999IA2999-00109MD1210171-0201MW1101REMSYN082AAXX  03001 58549 31957 80702 10012 21030 40312 52017 71000 8807/ 333 05201 31010;EQDQ01  00002PRCP99
0165585490999992000020306004+29150+119630FM-12+003599999V0200901N002019999999N0100001N1+00651-00201102811ADDAA199000091GF107991071001999999041999KA1999N+00051MD1710391+9999REMSYN070AAXX  03061 58549 32960 70902 10065 21020 40281 57039 8704/ 333 20005;EQDQ01  00002PRCP99
0112585490999992000020321004+29150+119630FM-12+003599999V0201101N004010150019N0100001N1+00231-00211102901ADDGF108991081051017501999999MD1710111+9999REMSYN060AAXX  03211 58549 42760 81104 10023 21021 40290 57011 885//;
0170585490999992000020400004+29150+119630FM-12+003599999V0201101N004010150019N0100001N1+00251-00181102971ADDAA199000091GF108991081051017501999999IA2999+00109MD1210071-0101REMSYN076AAXX  04001 58549 32760 81104 10025 21018 40297 52007 885// 333 05101 30019;EQDQ01  00002PRCP99
0164585490999992000020406004+29150+119630FM-12+003599999V0200901N004010150019N0100001N1+00611-00051102531ADDAA106000791GF108991081051017501999999KA1999N+00211MD1710381+9999MW1601REMSYN082AAXX  04061 58549 11760 80904 10061 21005 40253 57038 69901 76000 885// 333 20021;
0133585490999992000020421004+29150+119630FM-12+003599999V0202701N003010150019N0100001N1+00451+00281102421ADDAA124000791GF108991081051017501999999MD1710071+9999REMSYN070AAXX  04211 58549 42760 82703 10045 20028 40242 57007 885// 333 79999;
0183585490999992000020500004+29150+119630FM-12+003599999V0202901N004010150019N0080001N1+00511+00261102531ADDAA106000791AY161061GF108991081051017501999999IA2999+00409MD1210111-0401MW1211REMSYN094AAXX  05001 58549 11758 82904 10051 20026 40253 52011 69901 72160 885// 333 05403 30040 79999;
0172585490999992000020506004+29150+119630FM-12+003599999V0202901N004010120019N0070001N1+00581+00441102451ADDAA106002091AY161061GF108991081051012501999999KA1999N+00431MD1710131+9999MW1601REMSYN082AAXX  05061 58549 11657 82904 10058 20044 40245 57013 60021 76060 885// 333 20043;
0157585490999992000020512004+29150+119630FM-12+003599999V0202901N003010075019N0060001N1+00521+00401102511ADDAA106003091AY161061AY261061GF108991081051008001999999MD1210071+9999MW1601REMSYN072AAXX  05121 58549 11556 82903 10052 20040 40251 52007 60031 76066 885//;
0172585490999992000020518004+29150+119630FM-12+003599999V0202901N004010150019N0080001N1+00481+00311102491ADDAA106000391AY161061GF108991081051017501999999KA1999M+00581MD1210011+9999MW1101REMSYN082AAXX  05181 58549 11758 82904 10048 20031 40249 52001 69931 71060 885// 333 10058;
0183585490999992000020600004+29150+119630FM-12+003599999V0200901N003010075019N0030001N1+00361+00261102631ADDAA106000591AY161061GF108991081051008001999999IA2999+00409MD1210131+0101MW1601REMSYN094AAXX  06001 58549 11530 80903 10036 20026 40263 52013 69951 76060 885// 333 00152 30040 70054;
0172585490999992000020606004+29150+119630FM-12+003599999V0200401N002010150019N0110001N1+00851+00231102221ADDAA106000791AY161061GF106991061051017501001001KA1999N+00341MD1710371+9999MW1001REMSYN082AAXX  06061 58549 11761 60402 10085 20023 40222 57037 69901 70060 86500 333 20034;
0117585490999992000020612004+29150+119630FM-12+003599999V0201101N004019999999N0110001N1+99999+99999102261ADDAA199000021GF106991061001999999041001MD1210051+9999REMSYN054AAXX  06121 58549 32961 61104 20015 40226 52005 86040;
0165585490999992000020618004+29150+119630FM-12+003599999V0200901N002019999999N0110001N1+00231+00041102281ADDAA199000091GF107991071001999999041999KA1999M+00991MD1410001+9999REMSYN070AAXX  06181 58549 32961 70902 10023 20004 40228 54000 8704/ 333 10099;EQDQ01  00002PRCP99
0112585490999992000020621004+29150+119630FM-12+003599999V0201101N002019999999N0110001N1+00211+00021102211ADDGF108991081001999999071999MD1710071+9999REMSYN060AAXX  06211 58549 42961 81102 10021 20002 40221 57007 8807/;
0157585490999992000020700004+29150+119630FM-12+003599999V0209999C000012200019N0100001N1+00231+00101102301ADDAA124000791GF102991021001999999041001IA2999+00079MD1210091-0301REMSYN082AAXX  07001 58549 32960 20000 10023 20010 40230 52009 82040 333 0535/ 30007 79999;
0175585490999992000020706004+29150+119630FM-12+003599999V0202701N006012200019N0130001N1+01121+00291102121ADDAA199000091GA1001+999999999GF100991001001999999001001KA1999N+00191MD1710201+9999REMSYN064AAXX  07061 58549 32963 02706 10112 20029 40212 57020 333 20019;EQDQ01  00002PRCP99
0175585490999992000020718004+29150+119630FM-12+003599999V0201101N002012200019N0110001N1+00291-00441102461ADDAA199000091GA1001+999999999GF100991001001999999001001KA1999M+01261MD1210041+9999REMSYN064AAXX  07181 58549 32961 01102 10029 21044 40246 52004 333 10126;EQDQ01  00002PRCP99
0122585490999992000020721004+29150+119630FM-12+003599999V0200901N001012200019N0110001N1+00001-00241102511ADDGA1001+999999999GF100991001001999999001001MD1210051+9999REMSYN054AAXX  07211 58549 42961 00901 10000 21024 40251 52005;
0192585490999992000020800004+29150+119630FM-12+003599999V0200701N002012200019N0080001N1-00011-00291102721ADDAA199000091GA1001+999999999GF100991001001999999001001IA2999-00209MD1210201+0401MW1101REMSYN076AAXX  08001 58549 31958 00702 11001 21029 40272 52020 71000 333 00452 31028;EQDQ01  00002PRCP99
0133585490999992000020806004+29150+119630FM-12+003599999V02099999999999999999N0120001N1+00881-00581102531ADDAA199000091KA1999N-00051MD1710251+9999REMSYN064AAXX  08061 58549 32962 ///04 10088 21058 40253 57025 333 21005;EQDQ01  00002PRCP99
0165585490999992000020818004+29150+119630FM-12+003599999V0200901N004019999999N0130001N1+00271-00511102621ADDAA199000091GF107991001001999999001021KA1999M+00951MD1710041+9999REMSYN070AAXX  08181 58549 32963 70904 10027 21051 40262 57004 80002 333 10095;EQDQ01  00002PRCP99
0112585490999992000020821004+29150+119630FM-12+003599999V0201101N004019999999N0120001N1+00131-00361102631ADDGF106991061001999999041001MD1210011+9999REMSYN060AAXX  08211 58549 42962 61104 10013 21036 40263 52001 86040;
0170585490999992000020900004+29150+119630FM-12+003599999V0200901N006019999999N0110001N1+00091-00381102771ADDAA199000091GF107991071001999999041999IA2999+00009MD1210131+0101REMSYN076AAXX  09001 58549 32961 70906 10009 21038 40277 52013 8704/ 333 00101 31001;EQDQ01  00002PRCP99
0142585490999992000020912004+29150+119630FM-12+003599999V02099999999990150019N0150001N1+00581-00121102201ADDAA199000091GF108991081051017501999999MD1210041+9999REMSYN060AAXX  09121 58549 32765 8903/ 10058 21012 40220 52004 885//;EQDQ01  00002PRCP99
0165585490999992000020918004+29150+119630FM-12+003599999V0203201N001019999999N0150001N1+00491-00081102191ADDAA199000091GF108991081001999999071999KA1999M+00761MD1710021+9999REMSYN070AAXX  09181 58549 32965 83201 10049 21008 40219 57002 8807/ 333 10076;EQDQ01  00002PRCP99
0153585490999992000020921004+29150+119630FM-12+003599999V0201101N002010150019N0120001N1+00401+00141102041ADDAA124000591AY161031GF108991081051017501999999MD1710151+9999MW1601REMSYN076AAXX  09211 58549 41762 81102 10040 20014 40204 57015 76060 885// 333 70004;
0183585490999992000021000004+29150+119630FM-12+003599999V0201101N001010150019N0120001N1+00421+00111102131ADDAA106000591AY161061GF108991081051017501999999IA2999+00369MD1210091-0601MW1001REMSYN094AAXX  10001 58549 11762 81101 10042 20011 40213 52009 69951 70060 885// 333 05603 30036 70005;
0146585490999992000021006004+29150+119630FM-12+003599999V0203201N002010150019N0110001N1+00791+00091101861ADDAA199000021GF108991081051017501999999KA1999N+00361MD1710201+9999REMSYN070AAXX  10061 58549 32761 83202 10079 20009 40186 57020 885// 333 20036;
0172585490999992000021018004+29150+119630FM-12+003599999V0209999C000010120019N9999999N1+00651+00541102071ADDAA106000891AY161061GF108991081051012501999999KA1999M+00831MD1210041+9999MW1601REMSYN082AAXX  10181 58549 1165/ 80000 10065 20054 40207 52004 69971 76060 885// 333 10083;
0161585490999992000021021004+29150+119630FM-12+003599999V0209999C000010150019N0040001N1+00611+00541101981ADDAA124001591AY161031AY261031GF108991081051017501999999MD1710091+9999MW1601REMSYN076AAXX  10211 58549 41740 80000 10061 20054 40198 57009 76066 885// 333 70015;
0165585490999992000021100004+29150+119630FM-12+003599999V0209999C000010150019N0040001N1+00641+00531102191ADDAA106000191AY161061GF108991081051017501999999MD1210211+0101MW1101REMSYN088AAXX  11001 58549 11740 80000 10064 20053 40219 52021 69911 71060 885// 333 00102 70014;
0146585490999992000021106004+29150+119630FM-12+003599999V0200701N003010150019N0100001N1+01141+00401102021ADDAA199000021GF108991081051017501999999KA1999N+00591MD1710121+9999REMSYN070AAXX  11061 58549 32760 80703 10114 20040 40202 57012 885// 333 20059;
0142585490999992000021112004+29150+119630FM-12+003599999V0201101N002010150019N0130001N1+01021+00191102071ADDAA199000091GF108991081051017501999999MD1210061+9999REMSYN060AAXX  11121 58549 32763 81102 10102 20019 40207 52006 885//;EQDQ01  00002PRCP99
0165585490999992000021118004+29150+119630FM-12+003599999V0201101N003010150019N0110001N1+00881+00261101981ADDAA199000091GF108991081051017501999999KA1999M+01191MD1710071+9999REMSYN070AAXX  11181 58549 32761 81103 10088 20026 40198 57007 885// 333 10119;EQDQ01  00002PRCP99
0133585490999992000021121004+29150+119630FM-12+003599999V0200901N003010150019N0110001N1+00831+00201101911ADDAA124000791GF108991081051017501999999MD1710071+9999REMSYN070AAXX  11211 58549 42761 80903 10083 20020 40191 57007 885// 333 79999;
0152585490999992000021200004+29150+119630FM-12+003599999V0200901N002010150019N0120001N1+00841+00131101941ADDAA199000091GF107991071051017501999999MD1210031+0021REMSYN070AAXX  12001 58549 32762 70902 10084 20013 40194 52003 875// 333 05202;EQDQ01  00002PRCP99
0165585490999992000021206004+29150+119630FM-12+003599999V0200901N002010150019N0120001N1+01311+00301101661ADDAA199000091GF108991081051017501999999KA1999N+99999MD1710321+9999REMSYN070AAXX  12061 58549 32762 80902 10131 20030 40166 57032 885// 333 2079/;EQDQ01  00002PRCP99
0142585490999992000021212004+29150+119630FM-12+003599999V0200901N002010150019N0110001N1+01181+00701101741ADDAA199000091GF108991081051017501999999MD1210061+9999REMSYN060AAXX  12121 58549 32761 80902 10118 20070 40174 52006 885//;EQDQ01  00002PRCP99
0165585490999992000021218004+29150+119630FM-12+003599999V0200901N003010150019N0110001N1+00961+00491101731ADDAA199000091GF108991081051017501999999KA1999M+01391MD1710051+9999REMSYN070AAXX  12181 58549 32761 80903 10096 20049 40173 57005 885// 333 10139;EQDQ01  00002PRCP99
0112585490999992000021221004+29150+119630FM-12+003599999V0200901N002010150019N0110001N1+00881+00521101621ADDGF108991081051017501999999MD1710111+9999REMSYN060AAXX  12211 58549 42761 80902 10088 20052 40162 57011 885//;
0165585490999992000021300004+29150+119630FM-12+003599999V0200901N003010360019N0110001N1+00921+00471101601ADDAA103000791AY161061GF107991021051017501041999MD1710021-0301MW1001REMSYN088AAXX  13001 58549 11761 70903 10092 20047 40160 57002 69907 70060 8254/ 333 05301 79999;
0172585490999992000021306004+29150+119630FM-12+003599999V0201101N003010150019N0110001N1+01201+00561101281ADDAA106000791AY161061GF108991071051017501071999KA1999N+00851MD1710281+9999MW1601REMSYN082AAXX  13061 58549 11761 81103 10120 20056 40128 57028 69901 76060 8757/ 333 20085;
0149585490999992000021312004+29150+119630FM-12+003599999V0200201N001010150019N0080001N1+01071+00891101331ADDAA106000191AY161061GF108991081051017501999999MD1210131+9999MW1601REMSYN072AAXX  13121 58549 11758 80201 10107 20089 40133 52013 69911 76060 885//;
0174585490999992000021318004+29150+119630FM-12+003599999V0200901N002010150019N0200001N1+00851+00791999999ADDAA106008991AY161061AY261061GF108991081051017501999999KA1999M+01311MD1210121+9999MW1601REMSYN076AAXX  13181 58549 11798 80902 10085 20079 52012 60091 76066 885// 333 10131;
0161585490999992000021321004+29150+119630FM-12+003599999V0200901N002010120019N0050001N1+00811+00751101821ADDAA124009191AY161031AY261031GF108991081051012501999999MD1210031+9999MW1601REMSYN076AAXX  13211 58549 41650 80902 10081 20075 40182 52003 76066 885// 333 70092;
0173585490999992000021400004+29150+119630FM-12+003599999V0200901N002010075019N0040001N1+00791+00731102101ADDAA106001091AY161061AY261061GF108991081051008001999999MD1210271+0501MW1601REMSYN088AAXX  14001 58549 11540 80902 10079 20073 40210 52027 69991 76066 885// 333 00551 70098;
0172585490999992000021406004+29150+119630FM-12+003599999V0200901N001010150019N0090001N1+00851+00681102081ADDAA106000591AY161061GF108991081051017501999999KA1999N+00791MD1710041+9999MW1601REMSYN082AAXX  14061 58549 11759 80901 10085 20068 40208 57004 69951 76060 885// 333 20079;
0135585490999992000021412004+29150+119630FM-12+003599999V0209999C000010150019N0080001N1+00841+00641102401ADDAA199000021GF107991071051017501999999MD1210221+9999MW1101REMSYN066AAXX  14121 58549 31758 70000 10084 20064 40240 52022 71000 875//;
0145585490999992000021421004+29150+119630FM-12+003599999V0201101N002010150019N0050001N1+00521+00271102631ADDAA124001091GF106991061051017501001001MD1210011+9999MW1101REMSYN076AAXX  14211 58549 41750 61102 10052 20027 40263 52001 71000 86500 333 70011;
0179585490999992000021500004+29150+119630FM-12+003599999V0200901N002012200019N0030001N1+00421+00191102791ADDAA124000591GA1001+999999999GF100991001001999999001001IA2999+00289MD1210161+0701MW1101REMSYN082AAXX  15001 58549 31930 00902 10042 20019 40279 52016 71000 333 00754 30028 70005;
0175585490999992000021506004+29150+119630FM-12+003599999V0202001N003012200019N0110001N1+01221-00251102461ADDAA199000091GA1001+999999999GF100991001001999999001001KA1999N+00371MD1710341+9999REMSYN064AAXX  15061 58549 32961 02003 10122 21025 40246 57034 333 20037;EQDQ01  00002PRCP99
0112585490999992000021521004+29150+119630FM-12+003599999V0200901N003010150019N0100001N1+00621+00201999999ADDGF108991081051017501999999MD1710071+9999REMSYN060AAXX  15211 58549 42760 80903 10062 20020 4/243 57007 885//;
0170585490999992000021600004+29150+119630FM-12+003599999V0201101N003010150019N0100001N1+00531+00151102551ADDAA199000091GF107991071051017501999999IA2999+00209MD1210121-0201REMSYN076AAXX  16001 58549 32760 71103 10053 20015 40255 52012 875// 333 05201 30027;EQDQ01  00002PRCP99
0177585490999992000021606004+29150+119630FM-12+003599999V0201401N003010150019N0090001N1+00791+00091102431ADDAA199000091GF108991081051017501999999KA1999N+00471MD1710161+9999MW1051REMSYN076AAXX  16061 58549 31759 81403 10079 20009 40243 57016 70500 885// 333 20047;EQDQ01  00002PRCP99
0129585490999992000021612004+29150+119630FM-12+003599999V0200901N004010075019N0060001N1+00381+00201102701ADDAA106003091AY161061GF108991081051008001999999MW1601REMSYN066AAXX  16121 58549 11556 80904 10038 20020 40270 60031 76060 885//;
0172585490999992000021618004+29150+119630FM-12+003599999V0200901N002010120019N0100001N1+00401+00221102591ADDAA106002091AY161061GF108991081051012501999999KA1999M+00791MD1710111+9999MW1001REMSYN082AAXX  16181 58549 11660 80902 10040 20022 40259 57011 60021 70060 885// 333 10079;
0133585490999992000021621004+29150+119630FM-12+003599999V0201101N003010120019N0100001N1+00401+00251102621ADDAA124004391GF108991081051012501999999MD1210031+9999REMSYN070AAXX  16211 58549 42660 81103 10040 20025 40262 52003 885// 333 70044;
0157585490999992000021700004+29150+119630FM-12+003599999V0200901N003010150019N0130001N1+00451+00281102711ADDAA124004391GF108991081051017501999999IA2999+00409MD1210081+0101REMSYN082AAXX  17001 58549 32763 80903 10045 20028 40271 52008 885// 333 00151 30040 70044;
0165585490999992000021706004+29150+119630FM-12+003599999V0200901N004010150019N0130001N1+00981+00411102381ADDAA199000091GF108991071051017501071999KA1999N+00361MD1710221+9999REMSYN070AAXX  17061 58549 32763 80904 10098 20041 40238 57022 8757/ 333 20036;EQDQ01  00002PRCP99
0165585490999992000021718004+29150+119630FM-12+003599999V0200901N005010150019N0130001N1+00871+00441102201ADDAA199000091GF108991081051017501999999KA1999M+01041MD1710141+9999REMSYN070AAXX  17181 58549 32763 80905 10087 20044 40220 57014 885// 333 10104;EQDQ01  00002PRCP99
0145585490999992000021721004+29150+119630FM-12+003599999V0200901N005010150019N0130001N1+00811+00541102041ADDAA124000391GF108991081051017501999999MD1710161+9999MW1601REMSYN076AAXX  17211 58549 41763 80905 10081 20054 40204 57016 76000 885// 333 70002;
0165585490999992000021800004+29150+119630FM-12+003599999V0200901N004010075019N0180001N1+00821+00551101931ADDAA106000191AY161061GF108991081051008001999999MD1710111-0801MW1211REMSYN088AAXX  18001 58549 11568 80904 10082 20055 40193 57011 69921 72160 885// 333 05804 70002;
0172585490999992000021806004+29150+119630FM-12+003599999V0201101N005010075019N0140001N1+00861+00751101451ADDAA106005191AY161061GF108991081051008001999999KA1999N+00751MD1710361+9999MW1621REMSYN082AAXX  18061 58549 11564 81105 10086 20075 40145 57036 60051 76260 885// 333 20075;
0149585490999992000021812004+29150+119630FM-12+003599999V0201101N003010150019N0130001N1+01011+00911101191ADDAA106000891AY161061GF108991081051017501999999MD1210041+9999MW1001REMSYN072AAXX  18121 58549 11763 81103 10101 20091 40119 52004 69971 70060 885//;
0172585490999992000021818004+29150+119630FM-12+003599999V0209999C000010120019N0080001N1+00881+00841101121ADDAA106007991AY161061GF108991081051012501999999KA1999M+01061MD1710051+9999MW1601REMSYN082AAXX  18181 58549 11658 80000 10088 20084 40112 57005 60081 7606/ 885// 333 10106;
0173585490999992000021900004+29150+119630FM-12+003599999V0200901N001010075019N0060001N1+00931+00891101091ADDAA106014091AY161061AY261061GF108991081051008001999999MD1210051-0801MW1601REMSYN088AAXX  19001 58549 11556 80901 10093 20089 40109 52005 60141 76066 885// 333 05801 70275;
0180585490999992000021906004+29150+119630FM-12+003599999V0200901N002010075019N0080001N1+00991+00911101121ADDAA106014091AY161061AY261061GF108991081051008001999999KA1999N+00861MD1710041+9999MW1601REMSYN082AAXX  19061 58549 11558 80902 10099 20091 40112 57004 60141 76066 885// 333 20086;
0149585490999992000021912004+29150+119630FM-12+003599999V0200901N004010075019N0100001N1+00811+00721101501ADDAA106004191AY161061GF108991081051008001999999MD1210261+9999MW1601REMSYN072AAXX  19121 58549 11560 80904 10081 20072 40150 52026 60041 7606/ 885//;
0161585490999992000021921004+29150+119630FM-12+003599999V0200901N004010120019N0110001N1+00651+00471101751ADDAA124027291AY161031AY261031GF108991081051012501999999MD1710061+9999MW1211REMSYN076AAXX  19211 58549 41661 80904 10065 20047 40175 57006 72166 885// 333 70271;
0165585490999992000022000004+29150+119630FM-12+003599999V0201701N004010075019N0100001N1+00571+00481101941ADDAA106005191AY161061GF108991081051008001999999MD1210191+0801MW1601REMSYN088AAXX  20001 58549 11560 81704 10057 20048 40194 52019 60051 7606/ 885// 333 00854 70247;
0180585490999992000022006004+29150+119630FM-12+003599999V0200901N004010360019N0100001N1+00491+00321102021ADDAA106005191AY171061AY261061GF108991041051008001021999KA1999N+00461MD1710111+9999MW1601REMSYN082AAXX  20061 58549 11560 80904 10049 20032 40202 57011 60051 76076 8452/ 333 20046;
0172585490999992000022018004+29150+119630FM-12+003599999V0201401N002010150019N0080001N1+00501+00251102421ADDAA106000791AY161061GF108991081051017501999999KA1999M+00701MD1210031+9999MW1101REMSYN082AAXX  20181 58549 11758 81402 10050 20025 40242 52003 69901 71060 885// 333 10070;
0145585490999992000022021004+29150+119630FM-12+003599999V0201101N003019999999N0070001N1+00471+00141102411ADDAA124010491GF107991071001999999041999MD1710011+9999MW1101REMSYN076AAXX  20211 58549 41957 71103 10047 20014 40241 57001 71000 8704/ 333 70105;
0169585490999992000022100004+29150+119630FM-12+003599999V0201101N004010150019N0070001N1+00441+00041102491ADDAA124007191GF108991081051017501999999IA2999+00329MD1210081+0501MW1101REMSYN088AAXX  21001 58549 31757 81104 10044 20004 40249 52008 71000 885// 333 00551 30032 70071;
0180585490999992000022106004+29150+119630FM-12+003599999V0200901N005010075019N0110001N1+00471-00231102221ADDAA106000191AY171061AY261061GF108991081051008001999999KA1999N+00401MD1710341+9999MW1701REMSYN082AAXX  21061 58549 11561 80905 10047 21023 40222 57034 69911 77076 885// 333 20040;
0161585490999992000022121004+29150+119630FM-12+003599999V0200901N003010150019N0090001N1+00151+00101102201ADDAA124010991AY171031AY261031GF108991081051017501999999MD1710021+9999MW1601REMSYN076AAXX  21211 58549 41759 80903 10015 20010 40220 57002 76076 885// 333 70108;
0191585490999992000022200004+29150+119630FM-12+003599999V0201101N003010075019N0100001N1+00211+00131102331ADDAA106004191AY171061AY261061GF108991081051008001999999IA2999+00059MD1210121-0201MW1601REMSYN094AAXX  22001 58549 11560 81103 10021 20013 40233 52012 60041 76076 885// 333 05252 30005 70108;
0172585490999992000022206004+29150+119630FM-12+003599999V0200901N004010075019N0110001N1+00481+00231102171ADDAA106000791AY161061GF108991081051008001999999KA1999N+00141MD1710191+9999MW1211REMSYN082AAXX  22061 58549 11561 80904 10048 20023 40217 57019 69901 72160 885// 333 20014;
0141585490999992000022212004+29150+119630FM-12+003599999V0201101N004010150019N0100001N1+00531+00311102101ADDAA106000791GF108991081051017501999999MD1210051+9999MW1601REMSYN072AAXX  22121 58549 11760 81104 10053 20031 40210 52005 69901 76000 885//;
0161585490999992000022221004+29150+119630FM-12+003599999V0200901N004010075019N0100001N1+00491+00391102161ADDAA124004891AY161031AY261031GF108991081051008001999999MD1710031+9999MW1601REMSYN076AAXX  22211 58549 41560 80904 10049 20039 40216 57003 76066 885// 333 70047;
0191585490999992000022300004+29150+119630FM-12+003599999V0201101N003010075019N0120001N1+00501+00331102211ADDAA106000191AY161061AY261061GF108991081051008001999999IA2999+00439MD1210051-0101MW1211REMSYN094AAXX  23001 58549 11562 81103 10050 20033 40221 52005 69921 72166 885// 333 05103 30043 70047;
0172585490999992000022306004+29150+119630FM-12+003599999V0201101N004010075019N0110001N1+00521+00431102191ADDAA106001091AY161061GF108991081051008001999999KA1999N+00461MD1710121+9999MW1601REMSYN082AAXX  23061 58549 11561 81104 10052 20043 40219 57012 69991 76060 885// 333 20046;
0157585490999992000022312004+29150+119630FM-12+003599999V0201401N003010075019N0120001N1+00531+00391102421ADDAA106001091AY161061AY261061GF108991081051008001999999MD1210201+9999MW1601REMSYN072AAXX  23121 58549 11562 81403 10053 20039 40242 52020 69991 76066 885//;
0180585490999992000022318004+29150+119630FM-12+003599999V0201101N003010120019N0110001N1+00421+00241102711ADDAA106002091AY171061AY261061GF108991081051012501999999KA1999M+00561MD1210081+9999MW1601REMSYN082AAXX  23181 58549 11661 81103 10042 20024 40271 52008 60021 76076 885// 333 10056;
0161585490999992000022321004+29150+119630FM-12+003599999V0201101N003010120019N0110001N1+00451+00201102691ADDAA124004391AY161031AY261031GF108991081051012501999999MD1710021+9999MW1211REMSYN076AAXX  23211 58549 41661 81103 10045 20020 40269 57002 72166 885// 333 70042;
0183585490999992000022400004+29150+119630FM-12+003599999V0201101N002010150019N0120001N1+00471+00271102881ADDAA106000191AY161061GF107991071051017501999999IA2999+00409MD1210191+0701MW1001REMSYN094AAXX  24001 58549 11762 71102 10047 20027 40288 52019 69911 70060 875// 333 00700 30040 70042;
0146585490999992000022406004+29150+119630FM-12+003599999V02099999999990150019N0110001N1+00831+00141102661ADDAA199000021GF108991081051017501999999KA1999N+00391MD1710201+9999REMSYN070AAXX  24061 58549 32761 8090/ 10083 20014 40266 57020 885// 333 20039;
0172585490999992000022418004+29150+119630FM-12+003599999V0201101N003010150019N0100001N1+00461+00041102861ADDAA106000791AY161061GF108991081051017501999999KA1999M+00851MD1210021+9999MW1001REMSYN082AAXX  24181 58549 11760 81103 10046 20004 40286 52002 69901 70060 885// 333 10085;
0133585490999992000022421004+29150+119630FM-12+003599999V0201101N003010150019N0100001N1+00411+00011102741ADDAA124000791GF108991081051017501999999MD1710121+9999REMSYN070AAXX  24211 58549 42760 81103 10041 20001 40274 57012 885// 333 79999;
0151585490999992000022500004+29150+119630FM-12+003599999V0201101N002019999999N0130001N1+00431+00031102801ADDAA124000791GF108991999999017501999999IA2999+00309MD1210061-0101REMSYN076AAXX  25001 58549 32763 81102 10043 20003 40280 52006 333 0518/ 30030 79999;
0165585490999992000022506004+29150+119630FM-12+003599999V0200901N003010150019N0130001N1+00591-00051102521ADDAA199000091GF108991071051017501071999KA1999N+00381MD1710211+9999REMSYN070AAXX  25061 58549 32763 80903 10059 21005 40252 57021 8757/ 333 20038;EQDQ01  00002PRCP99
0142585490999992000022512004+29150+119630FM-12+003599999V0202901N003010150019N0110001N1+00501+00111102671ADDAA199000091GF105991051051017501001001MD1210141+9999REMSYN060AAXX  25121 58549 32761 52903 10050 20011 40267 52014 85500;EQDQ01  00002PRCP99
0152585490999992000022518004+29150+119630FM-12+003599999V0202901N002019999999N0100001N1+00381+00151102761ADDAA199000091GF106991061001999999041001MD1210041+9999REMSYN070AAXX  25181 58549 32960 62902 10038 20015 40276 52004 86040 333 7/62/;EQDQ01  00002PRCP99
0112585490999992000022521004+29150+119630FM-12+003599999V0202901N003010150019N0100001N1+00331+00151102811ADDGF107991071051017501999999MD1210041+9999REMSYN060AAXX  25211 58549 42760 72903 10033 20015 40281 52004 875//;
0165585490999992000022606004+29150+119630FM-12+003599999V0202501N005012200019N0130001N1+01131-00341102551ADDAA199000091GF101991011001999999041001KA1999N+00251MD1710341+9999REMSYN070AAXX  26061 58549 32963 12505 10113 21034 40255 57034 81040 333 20025;EQDQ01  00002PRCP99
0142585490999992000022612004+29150+119630FM-12+003599999V02099999999999999999N0130001N1+00921-00021102551ADDAA199000091GF107991001001999999001021MD1210061+9999REMSYN060AAXX  26121 58549 3/963 70/// 10092 21002 40255 52006 80002;EQDQ01  00002PRCP99
0112585490999992000022621004+29150+119630FM-12+003599999V0201401N002019999999N0110001N1+00511+00071102641ADDGF106991061001999999041001MD1710031+9999REMSYN060AAXX  26211 58549 42961 61402 10051 20007 40264 57003 86040;
0170585490999992000022700004+29150+119630FM-12+003599999V0201101N002019999999N0110001N1+00541+00011102761ADDAA199000091GF107991071001999999041999IA2999+00209MD1210111-0201REMSYN076AAXX  27001 58549 32961 71102 10054 20001 40276 52011 8704/ 333 05202 30021;EQDQ01  00002PRCP99
0165585490999992000022706004+29150+119630FM-12+003599999V0200901N002010150019N0130001N1+00931-00361102511ADDAA199000091GF108991081051017501999999KA1999N+00421MD1710231+9999REMSYN070AAXX  27061 58549 32763 80902 10093 21036 40251 57023 885// 333 20042;EQDQ01  00002PRCP99
0076585490999992000022718004+29150+119630FM-12+003599999V0201401N001019999999N0120001N1+00601+99999999999ADDGF108991999999008001999999REMSYN038AAXX  27181 58549 11562 81401 10060 2;
0161585490999992000022721004+29150+119630FM-12+003599999V0202001N002010075019N0120001N1+00541+00401102711ADDAA124004891AY161031AY261031GF108991081051008001999999MD1410001+9999MW1601REMSYN076AAXX  27211 58549 41562 82002 10054 20040 40271 54000 76066 885// 333 70047;
0191585490999992000022800004+29150+119630FM-12+003599999V0201801N002010075019N0120001N1+00511+00341102911ADDAA106006191AY161061AY261061GF108991081051008001999999IA2999+00509MD1210201+0201MW1601REMSYN094AAXX  28001 58549 11562 81802 10051 20034 40291 52020 60061 76066 885// 333 00200 30050 70076;
0180585490999992000022806004+29150+119630FM-12+003599999V0202001N002010075019N0120001N1+00541+00351102891ADDAA106006191AY161061AY261061GF108991081051008001999999KA1999N+00471MD1710121+9999MW1601REMSYN082AAXX  28061 58549 11562 82002 10054 20035 40289 57012 60061 76066 885// 333 20047;
0149585490999992000022812004+29150+119630FM-12+003599999V0201601N002010150019N0130001N1+00521+00251103091ADDAA106000191AY161061GF108991081051017501999999MD1210171+9999MW1001REMSYN072AAXX  28121 58549 11763 81602 10052 20025 40309 52017 69911 70060 885//;
0172585490999992000022818004+29150+119630FM-12+003599999V0201101N002010150019N0120001N1+00511+00341103191ADDAA106000791AY161061GF108991081051017501999999KA1999M+00601MD1410001+9999MW1601REMSYN082AAXX  28181 58549 11762 81102 10051 20034 40319 54000 69901 76060 885// 333 10060;
0133585490999992000022821004+29150+119630FM-12+003599999V0200901N004010150019N0120001N1+00501+00111103151ADDAA124009191GF108991081051017501999999MD1710041+9999REMSYN070AAXX  28211 58549 42762 80904 10050 20011 40315 57004 885// 333 70091;
0151585490999992000022900004+29150+119630FM-12+003599999V0201101N001010150019N0130001N1+99999+99999103351ADDAA124006191GF108991061051017501071999IA2999+00379MD1210201+0401REMSYN076AAXX  29001 58549 32763 81101 20008 40335 52020 8657/ 333 00400 30037 70062;
0146585490999992000022906004+29150+119630FM-12+003599999V0200901N004019999999N0130001N1+00931-00041102931ADDAA199000021GF106991061001999999041001KA1999N+00441MD1710291+9999REMSYN070AAXX  29061 58549 32963 60904 10093 21004 40293 57029 86040 333 20044;
0136585490999992000022912004+29150+119630FM-12+003599999V02099999999999999999N0140001N1+99999+99999102951ADDAA199000091GF107991071001999999041999MD1210101+9999REMSYN054AAXX  29121 58549 32964 711/9 21015 40295 52010 8704/;EQDQ01  00002PRCP99
0112585490999992000022921004+29150+119630FM-12+003599999V0200901N002019999999N0130001N1+00521-00021102811ADDGF108991081001999999071999MD1710041+9999REMSYN060AAXX  29211 58549 42963 80902 10052 21002 40281 57004 8807/;
0170585490999992000030100004+29150+119630FM-12+003599999V0200901N004010150019N0130001N1+00531-00031102911ADDAA199000091GF108991071051017501071999IA2999+00409MD1210101-0401REMSYN076AAXX  01001 58549 32763 80904 10053 21003 40291 52010 8757/ 333 05401 30040;EQDQ01  00002PRCP99
0165585490999992000030106004+29150+119630FM-12+003599999V0201101N003019999999N0130001N1+00981+00071102591ADDAA199000091GF108991081001999999071999KA1999N+00511MD1710281+9999REMSYN070AAXX  01061 58549 32963 81103 10098 20007 40259 57028 8807/ 333 20051;EQDQ01  00002PRCP99
0181585490999992000030118004+29150+119630FM-12+003599999V0201101N002019999999N0120001N1+00631+00341102511ADDAA199000091GF108991081001999999071999KA1999M+01001MD1110662+9999REMSYN070AAXX  01181 58549 32962 81102 10063 20034 40251 51066 8807/ 333 10100;EQDQ01+000662APC3  Q02  00002PRCP99
0170585490999992000030200004+29150+119630FM-12+003599999V0200901N002012200019N0130001N1+00561+00271102561ADDAA199000091GF101991011001999999041001IA2999+00209MD1210091-0401REMSYN076AAXX  02001 58549 32963 10902 10056 20027 40256 52009 81040 333 05400 30027;EQDQ01  00002PRCP99
0180585490999992000031406004+29150+119630FM-12+003599999V0201101N004010150019N0100001N1+01061+00901101921ADDAA106000791AY161061AY261061GF108991071051017501071999KA1999N+00921MD1710191+9999MW1601REMSYN082AAXX  14061 58549 11760 81104 10106 20090 40192 57019 69901 76066 8757/ 333 20092;
0173585490999992000031500004+29150+119630FM-12+003599999V0200901N003010150019N0060001N1+01061+01001101371ADDAA106007991AY161061AY261061GF108991081051017501999999MD1710061-0701MW1211REMSYN088AAXX  15001 58549 11756 80903 10106 20100 40137 57006 60081 72166 885// 333 05701 70088;
0175585490999992000032406004+29150+119630FM-12+003599999V0201401N003012200019N0130001N1+01621-00351102391ADDAA199000091GA1001+999999999GF100991001001999999001001KA1999N+00671MD1710251+9999REMSYN064AAXX  24061 58549 32963 01403 10162 21035 40239 57025 333 20067;EQDQ01  00002PRCP99
0152585490999992000032412004+29150+119630FM-12+003599999V0201101N002012200019N0110001N1+01311+00591102241ADDAA199000091GA1001+999999999GF100991001001999999001001MD1210031+9999REMSYN054AAXX  24121 58549 32961 01102 10131 20059 40224 52003;EQDQ01  00002PRCP99
0112585490999992000032421004+29150+119630FM-12+003599999V0200901N003019999999N0110001N1+00991+00321102361ADDGF107991071001999999041999MD1710071+9999REMSYN060AAXX  24211 58549 42961 70903 10099 20032 40236 57007 8704/;
0152585490999992000032500004+29150+119630FM-12+003599999V0200901N005019999999N0120001N1+01041+00211102381ADDAA199000091GF107991071001999999041999MD1210021+0031REMSYN070AAXX  25001 58549 32962 70905 10104 20021 40238 52002 8704/ 333 05303;EQDQ01  00002PRCP99
0164585490999992000032506004+29150+119630FM-12+003599999V0202901N002019999999N0120001N1+01551+00321102271ADDAA106000791GF107991071001999999041999KA1999N+00931MD1710221+9999MW1211REMSYN082AAXX  25061 58549 11962 72902 10155 20032 40227 57022 69901 72100 8704/ 333 20093;
0123585490999992000032512004+29150+119630FM-12+003599999V0202701N003019999999N0100001N1+01321+00721102311ADDAA199000021GF108991081999999999071999MD1210131+9999REMSYN060AAXX  25121 58549 32960 82703 10132 20072 40231 52013 88/7/;
0156585490999992000032518004+29150+119630FM-12+003599999V0202901N004012200019N0100001N1+01181+00551102351ADDAA199000021GA1001+999999999GF100991001001999999001001KA1999M+01591MD1710071+9999REMSYN064AAXX  25181 58549 32960 02904 10118 20055 40235 57007 333 10159;
0149585490999992000032600004+29150+119630FM-12+003599999V0202901N004012200019N0100001N1+01141+00651102481ADDAA124000791GA1001+999999999GF100991001001999999001001MD1210121+0101REMSYN070AAXX  26001 58549 32960 02904 10114 20065 40248 52012 333 00101 79999;
0175585490999992000032606004+29150+119630FM-12+003599999V0202701N005012200019N0130001N1+02071+00011101961ADDAA199000091GA1001+999999999GF100991001001999999001001KA1999N+00971MD1710411+9999REMSYN064AAXX  26061 58549 32963 02705 10207 20001 40196 57041 333 20097;EQDQ01  00002PRCP99
0122585490999992000032621004+29150+119630FM-12+003599999V0202501N001012200019N0150001N1+01051+00261101671ADDGA1001+999999999GF100991001001999999001001MD1710131+9999REMSYN054AAXX  26211 58549 42965 02501 10105 20026 40167 57013;
0162585490999992000032700004+29150+119630FM-12+003599999V0201801N001012200019N0130001N1+01221+00341101731ADDAA199000091GA1001+999999999GF100991001001999999001001MD1210051+0071REMSYN064AAXX  27001 58549 32963 01801 10122 20034 40173 52005 333 05701;EQDQ01  00002PRCP99
0165585490999992000032706004+29150+119630FM-12+003599999V0202701N003012200019N0120001N1+02441-00021101131ADDAA199000091GF101991001001999999001011KA1999N+00961MD1710421+9999REMSYN070AAXX  27061 58549 32962 12703 10244 21002 40113 57042 80001 333 20096;EQDQ01  00002PRCP99
0175585490999992000032718004+29150+119630FM-12+003599999V0209999C000012200019N0130001N1+01501+00541100971ADDAA199000091GA1001+999999999GF100991001001999999001001KA1999M+02541MD1710091+9999REMSYN064AAXX  27181 58549 32963 00000 10150 20054 40097 57009 333 10254;EQDQ01  00002PRCP99
0122585490999992000032721004+29150+119630FM-12+003599999V0202501N002012200019N0130001N1+01541+00541101041ADDGA1001+999999999GF100991001001999999001001MD1210071+9999REMSYN054AAXX  27211 58549 42963 02502 10154 20054 40104 52007;
0162585490999992000032800004+29150+119630FM-12+003599999V0202701N004012200019N0130001N1+01761+00491101421ADDAA199000091GA1001+999999999GF100991001001999999001001MD1210381+0031REMSYN064AAXX  28001 58549 32963 02704 10176 20049 40142 52038 333 05305;EQDQ01  00002PRCP99
0175585490999992000032806004+29150+119630FM-12+003599999V0203201N005012200019N0110001N1+02331-00581101391ADDAA199000091GA1001+999999999GF100991001001999999001001KA1999N+01441MD1710191+9999REMSYN064AAXX  28061 58549 32961 03205 10233 21058 40139 57019 333 20144;EQDQ01  00002PRCP99
0152585490999992000032812004+29150+119630FM-12+003599999V0202201N002012200019N0130001N1+01861+00161101791ADDAA199000091GA1001+999999999GF100991001001999999001001MD1210371+9999REMSYN054AAXX  28121 58549 32963 02202 10186 20016 40179 52037;EQDQ01  00002PRCP99
0180585490999992000032900004+29150+119630FM-12+003599999V0209999C000012200019N0140001N1+01141+00171102481ADDAA199000091GA1001+999999999GF100991001001999999001001IA2999+00409MD1210161+1001REMSYN070AAXX  29001 58549 32964 00000 10114 20017 40248 52016 333 01056 30045;EQDQ01  00002PRCP99
0175585490999992000032906004+29150+119630FM-12+003599999V0201801N003012200019N0140001N1+02081-00451102131ADDAA199000091GA1001+999999999GF100991001001999999001001KA1999N+00821MD1710311+9999REMSYN064AAXX  29061 58549 32964 01803 10208 21045 40213 57031 333 20082;EQDQ01  00002PRCP99
0122585490999992000032921004+29150+119630FM-12+003599999V0200901N002012200019N0120001N1+01891+00421101551ADDGA1001+999999999GF100991001001999999001001MD1710101+9999REMSYN054AAXX  29211 58549 42962 00902 10189 20042 40155 57010;
0152585490999992000033000004+29150+119630FM-12+003599999V0200901N001019999999N0130001N1+01291+00521101671ADDAA199000091GF107991001001999999001021MD1210111+0081REMSYN070AAXX  30001 58549 32963 70901 10129 20052 40167 52011 80002 333 05802;EQDQ01  00002PRCP99
0181585490999992000033006004+29150+119630FM-12+003599999V0202701N002019999999N0120001N1+99999+99999101171ADDAA199000091GF108991081001999999071999KA1999N+01031MD1710291+9999REMSYN070AAXX  30061 58549 32962 82702 11220 20043 40117 57029 8807/ 333 20103;EQDQ01  00002PRCP99Q02 -02203ATOT  
0158585490999992000033012004+29150+119630FM-12+003599999V0202001N002010150019N0120001N1+01902+00991101041ADDAA199000091GF108991051051017501071999MD1210021+9999REMSYN060AAXX  30121 58549 32762 82002 10190 20099 40104 52002 8557/;EQDQ01+001903ATOT  Q02  00002PRCP99
0165585490999992000033018004+29150+119630FM-12+003599999V0203201N003010150019N0110001N1+01631+01171100981ADDAA199000091GF108991081051017501999999KA1999M+02201MD1710081+9999REMSYN070AAXX  30181 58549 32761 83203 10163 20117 40098 57008 885// 333 10220;EQDQ01  00002PRCP99
0124585490999992000033021004+29150+119630FM-12+003599999V0209999C000010150019N0080001N1+01601+01181100871ADDGF108991081051017501999999MD1710111+9999MW1101REMSYN066AAXX  30211 58549 41758 80000 10160 20118 40087 57011 71000 885//;
0164585490999992000033100004+29150+119630FM-12+003599999V0202501N002010150019N0050001N1+01601+01221101131ADDAA199000091GF108991061051017501071999MD1210251+0051MW1101REMSYN076AAXX  31001 58549 31750 82502 10160 20122 40113 52025 71000 8657/ 333 05503;EQDQ01  00002PRCP99
0165585490999992000033106004+29150+119630FM-12+003599999V0202901N003019999999N0110001N1+02251+01171101031ADDAA199000091GF108991081001999999071999KA1999N+01521MD1710171+9999REMSYN070AAXX  31061 58549 32961 82903 10225 20117 40103 57017 8807/ 333 20152;EQDQ01  00002PRCP99
0142585490999992000033112004+29150+119630FM-12+003599999V0202901N002010150019N0120001N1+02001+01111101271ADDAA199000091GF108991081051017501999999MD1210201+9999REMSYN060AAXX  31121 58549 32762 82902 10200 20111 40127 52020 885//;EQDQ01  00002PRCP99
0172585490999992000033118004+29150+119630FM-12+003599999V0200901N002010150019N0120001N1+01701+01401101281ADDAA106000791AY161061GF108991081051017501999999KA1999M+02261MD1710061+9999MW1001REMSYN082AAXX  31181 58549 11762 80902 10170 20140 40128 57006 69901 70060 885// 333 10226;
0145585490999992000033121004+29150+119630FM-12+003599999V0200901N004010150019N0120001N1+01601+01161101361ADDAA124000791GF108991081051017501999999MD1210071+9999MW1601REMSYN076AAXX  31211 58549 41762 80904 10160 20116 40136 52007 76000 885// 333 79999;
0165585490999992000040100004+29150+119630FM-12+003599999V0201101N004010120019N0100001N1+01451+01111101481ADDAA106000791AY161061GF108991081051012501999999MD1210121+0401MW1601REMSYN088AAXX  01001 58549 11660 81104 10145 20111 40148 52012 69901 76060 885// 333 00452 79999;
0172585490999992000040106004+29150+119630FM-12+003599999V0200901N005010150019N0100001N1+01501+01191101281ADDAA106000891AY161061GF108991081051017501999999KA1999N+01441MD1710151+9999MW1601REMSYN082AAXX  01061 58549 11760 80905 10150 20119 40128 57015 69971 76060 885// 333 20144;
0180585490999992000040118004+29150+119630FM-12+003599999V0200901N003010075019N0080001N1+01301+01191999999ADDAA106006191AY161061AY261061GF108991081051008001999999KA1999M+01761MD1710071+9999MW1601REMSYN082AAXX  01181 58549 11558 80903 10130 20119 4/137 57007 60061 76066 885// 333 10176;
0153585490999992000040121004+29150+119630FM-12+003599999V0200901N003010150019N0070001N1+01301+01171101281ADDAA124008691AY161031GF108991081051017501999999MD1710091+9999MW1101REMSYN076AAXX  01211 58549 41757 80903 10130 20117 40128 57009 71060 885// 333 70087;
0165585490999992000040200004+29150+119630FM-12+003599999V0200901N001010075019N0070001N1+01381+01231101471ADDAA106000191AY161061GF108991081051008001999999MD1210191+0001MW1601REMSYN088AAXX  02001 58549 11557 80901 10138 20123 40147 52019 69911 76060 885// 333 00051 70087;
0146585490999992000040206004+29150+119630FM-12+003599999V0202701N003010150019N0110001N1+01981+01431101281ADDAA199000021GF107991061051017501041999KA1999N+01261MD1710191+9999REMSYN070AAXX  02061 58549 32761 72703 10198 20143 40128 57019 8654/ 333 20126;
0172585490999992000040218004+29150+119630FM-12+003599999V0201101N004010150019N0080001N1+01441+01281101541ADDAA106000591AY161061GF108991081051017501999999KA1999M+02181MD1710091+9999MW1601REMSYN082AAXX  02181 58549 11758 81104 10144 20128 40154 57009 69961 76060 885// 333 10218;
0161585490999992000040221004+29150+119630FM-12+003599999V0201101N005010150019N0080001N1+01361+01271101481ADDAA124003391AY161031AY261031GF108991081051017501999999MD1719999+9999MW1601REMSYN076AAXX  02211 58549 41758 81105 10136 20127 40148 57/06 76066 885// 333 70034;
0173585490999992000040300004+29150+119630FM-12+003599999V0200701N004010360019N0090001N1+01391+01261101661ADDAA106007191AY161061AY261061GF108991021071008001021999MD1210171+0201MW1611REMSYN088AAXX  03001 58549 11559 80704 10139 20126 40166 52017 60071 76166 8272/ 333 00200 70071;
0180585490999992000040306004+29150+119630FM-12+003599999V0200901N003010075019N0080001N1+01431+01291101431ADDAA106001091AY161061AY261061GF108991081051008001999999KA1999N+01331MD1710261+9999MW1601REMSYN082AAXX  03061 58549 11558 80903 10143 20129 40143 57026 60011 76066 885// 333 20133;
0172585490999992000040318004+29150+119630FM-12+003599999V0201101N002010150019N0080001N1+01361+01271101301ADDAA106002091AY161061GF108991081051017501999999KA1999M+01501MD1710111+9999MW1101REMSYN082AAXX  03181 58549 11758 81102 10136 20127 40130 57011 60021 71060 885// 333 10150;
0145585490999992000040321004+29150+119630FM-12+003599999V0200201N002010150019N0080001N1+01351+01261101211ADDAA124007691GF108991081051017501999999MD1710091+9999MW1101REMSYN076AAXX  03211 58549 41758 80202 10135 20126 40121 57009 71000 885// 333 70077;
0159585490999992000040400004+29150+119630FM-12+003599999V02099999999990150019N0090001N1+01401+99999101801ADDAA100000191AY161061GF108991081051017501999999MD1010701-0401MW1101REMSYN082AAXX  04001 58549 11759 8090/ 1014/ 4018/ 5007/ 6991/ 71060 885// 333 05400 7004/;
0158585490999992000040406004+29150+119630FM-12+003599999V0202901N005010120019N0110001N1+01771+01391101191ADDAA106000791AY161061GF107991061051012501041999MD1710161+9999MW1001REMSYN081AAXX  04061 58549 11661 72905 10177 20139 40119 57016 69901 70060 8654/ 333 1134;
0149585490999992000040412004+29150+119630FM-12+003599999V0200901N002010120019N0110001N1+01561+01401101361ADDAA103000791AY161061GF108991081051012501999999MD1210211+9999MW1211REMSYN072AAXX  04121 58549 11661 80902 10156 20140 40136 52021 69907 72160 885//;
