0192588200999992000010100004+26180+117620FM-12+019899999V0209999C000012200019N0090001N1+00421+00351102171ADDAA106000091GA1001+999999999GF100991001001999999001001IA2999+00109MD1210091-0101MW1101REMSYN076AAXX  01001 58820 31959 00000 10042 20035 40217 52009 71000 333 05102 30013;EQDQ01  00002PRCP06
0165588200999992000010106004+26180+117620FM-12+019899999V0209999C000012200019N0150001N1+02101+00921101711ADDAA106000091GF101991011011012501001001KA1999N+00361MD1710391+9999REMSYN070AAXX  01061 58820 32665 10000 10210 20092 40171 57039 81100 333 20036;EQDQ01  00002PRCP06
0192588200999992000010200004+26180+117620FM-12+019899999V0209999C000012200019N0050001N1+00391+00341102371ADDAA106000091GA1001+999999999GF100991001001999999001001IA2999+00109MD1210171+0201MW1101REMSYN076AAXX  02001 58820 31950 00000 10039 20034 40237 52017 71000 333 00200 30015;EQDQ01  00002PRCP06
0175588200999992000010206004+26180+117620FM-12+019899999V0209999C000012200019N0120001N1+02142+00861101871ADDAA106000091GA1001+999999999GF100991001001999999001001KA1999N+00341MD1710361+9999REMSYN064AAXX  02061 58820 32962 00000 10214 20086 40187 57036 333 20034;EQDQ01  00002PRCP06
0122588200999992000010221004+26180+117620FM-12+019899999V0209999C000012200019N0100001N1+00341+00291101921ADDGA1001+999999999GF100991001001999999001001MD1710021+9999REMSYN054AAXX  02211 58820 42960 00000 10034 20029 40192 57002;
0182588200999992000010300004+26180+117620FM-12+019899999V0209999C000019999999N0008001N1+00401+00401102191ADDAA106000091GF107991071001008001041999IA2999+00109MD1110201-0201MW1461REMSYN082AAXX  03001 58820 31508 70000 10040 20040 40219 51020 74600 8704/ 333 05200 30011;EQDQ01  00002PRCP06
0195588200999992000010306004+26180+117620FM-12+019899999V0209999C000012200019N0120001N1+01981+00831101691ADDAA106000091AY141061GA1001+999999999GF100991001001999999001001KA1999N+00271MD1710341+9999MW1001REMSYN070AAXX  03061 58820 31962 00000 10198 20083 40169 57034 70040 333 20027;EQDQ01  00002PRCP06
0124588200999992000010321004+26180+117620FM-12+019899999V0209999C000010075019N0020001N1+00531+00511101851ADDGF108991081061008001999999MD1710011+9999MW1101REMSYN066AAXX  03211 58820 41520 80000 10053 20051 40185 57001 71000 886//;
0200588200999992000010400004+26180+117620FM-12+019899999V0209999C000010001519N0000001N1+00491+00471102021ADDAA106000091AY141061GA1091+999999999GF109991091999999999999999IA2999+00309MD1210111-0201MW1471REMSYN076AAXX  04001 58820 31/00 90000 10049 20047 40202 52011 74740 333 05201 30030;EQDQ01  00002PRCP06
0185588200999992000010406004+26180+117620FM-12+019899999V0209999C000019999999N0100001N1+01771+01081101571ADDAA106000091AY141061GF107991071001999999041999KA1999N+00481MD1710431+9999MW1001REMSYN076AAXX  04061 58820 31960 70000 10177 20108 40157 57043 70040 8704/ 333 20048;EQDQ01  00002PRCP06
0145588200999992000010421004+26180+117620FM-12+019899999V0201101N002019999999N0040001N1+00831+00811101521ADDAA124001591GF108991081001999999071999MD1410001+9999MW1601REMSYN076AAXX  04211 58820 41940 81102 10083 20081 40152 54000 76000 8807/ 333 70015;
0180588200999992000010506004+26180+117620FM-12+019899999V0209999C000012200019N0100001N1+01681+01441101411ADDAA106002091AY161061AY241061GF101991011051012501001001KA1999N+00711MD1710331+9999MW1001REMSYN082AAXX  05061 58820 11660 10000 10168 20144 40141 57033 60021 70064 81500 333 20071;
0153588200999992000010521004+26180+117620FM-12+019899999V0209999C000010120019N0070001N1+01101+01101101551ADDAA124009791AY141031GF108991081051012501999999MD1710141+9999MW1101REMSYN076AAXX  05211 58820 41657 80000 10110 20110 40155 57014 71040 885// 333 70096;
0178588200999992000010600004+26180+117620FM-12+019899999V0209999C000010120019N0007001N1+01161+01161101711ADDAA106000091AY141061GF108991081051012501999999MD1210121+0001MW1461REMSYN082AAXX  06001 58820 31607 80000 10116 20116 40171 52012 74640 885// 333 00002 70015;EQDQ01  00002PRCP06
0180588200999992000010606004+26180+117620FM-12+019899999V0209999C000010120019N0060001N1+01571+01321101571ADDAA106000591AY161061AY241061GF108991081051012501999999KA1999N+01061MD1710151+9999MW1101REMSYN082AAXX  06061 58820 11656 80000 10157 20132 40157 57015 69941 71064 885// 333 20106;
0133588200999992000010621004+26180+117620FM-12+019899999V0209999C000010120019N0100001N1+00651+00521102091ADDAA124000591GF107991071051012501999999MD1710071+9999REMSYN070AAXX  06211 58820 42660 70000 10065 20052 40209 57007 875// 333 70004;
0165588200999992000010700004+26180+117620FM-12+019899999V0201801N001010120019N0050001N1+00641+00601102291ADDAA106000191AY161061GF108991081051012501999999MD1210171+0501MW1601REMSYN088AAXX  07001 58820 11650 81801 10064 20060 40229 52017 69921 76060 885// 333 00555 70006;
0172588200999992000010706004+26180+117620FM-12+019899999V0209999C000010120019N0080001N1+00981+00801101961ADDAA106000191AY161061GF108991081051012501999999KA1999N+00601MD1710321+9999MW1101REMSYN082AAXX  07061 58820 11658 80000 10098 20080 40196 57032 69911 71060 885// 333 20060;
0145588200999992000010721004+26180+117620FM-12+019899999V0209999C000010120019N0040001N1+00981+00981101881ADDAA124000591GF108991081051012501999999MD1710051+9999MW1101REMSYN076AAXX  07211 58820 41640 80000 10098 20098 40188 57005 71000 885// 333 70006;
0170588200999992000010800004+26180+117620FM-12+019899999V0209999C000010120019N0050001N1+01001+01001101971ADDAA106000091GF108991081051012501999999MD1210081-0301MW1101REMSYN082AAXX  08001 58820 31650 80000 10100 20100 40197 52008 71000 885// 333 0530/ 70004;EQDQ01  00002PRCP06
0165588200999992000010806004+26180+117620FM-12+019899999V0209999C000019999999N0110001N1+01451+01221101521ADDAA106000091GF108991081001999999071999KA1999N+99999MD1710371+9999REMSYN070AAXX  08061 58820 32961 80000 10145 20122 40152 57037 8807/ 333 2086/;EQDQ01  00002PRCP06
0153588200999992000010821004+26180+117620FM-12+019899999V0209999C000019999999N0040001N1+01151+01131101611ADDAA124008191AY161031GF108991081001999999071999MD1710081+9999MW1601REMSYN076AAXX  08211 58820 41940 80000 10115 20113 40161 57008 76060 8807/ 333 70081;
0165588200999992000010900004+26180+117620FM-12+019899999V0209999C000019999999N0020001N1+01161+01161101831ADDAA106000591AY161061GF108991081001999999071999MD1210201-0101MW1211REMSYN088AAXX  09001 58820 11920 80000 10116 20116 40183 52020 69941 72160 8807/ 333 05102 70082;
0153588200999992000011000004+26180+117620FM-12+019899999V0209999C000010120019N0015001N1+01031+01031101951ADDAA106000021AY141061GF108991081051012501999999MD1210151+0011MW1211REMSYN076AAXX  10001 58820 31615 80000 10103 20103 40195 52015 72140 885// 333 00157;
0146588200999992000011006004+26180+117620FM-12+019899999V0209999C000012200019N0180001N1+01901+01351101601ADDAA106000021GF101991011011012501001021KA1999N+00951MD1710291+9999REMSYN070AAXX  10061 58820 32668 10000 10190 20135 40160 57029 81102 333 20095;
0112588200999992000011021004+26180+117620FM-12+019899999V0209999C000019999999N0100001N1+01061+01041101651ADDGF107991071001999999041999MD1710041+9999REMSYN060AAXX  10211 58820 42960 70000 10106 20104 40165 57004 8704/;
0164588200999992000011100004+26180+117620FM-12+019899999V0209999C000019999999N0060001N1+01101+01081101841ADDAA106000091GF107991071001999999041999MD1210151+0011MW1101REMSYN076AAXX  11001 58820 31956 70000 10110 20108 40184 52015 71000 8704/ 333 05101;EQDQ01  00002PRCP06
0165588200999992000011106004+26180+117620FM-12+019899999V0201601N003012200019N0140001N1+02271+01421101261ADDAA106000091GF102991021011012501001001KA1999N+01021MD1710471+9999REMSYN070AAXX  11061 58820 32664 21603 10227 20142 40126 57047 82100 333 20102;EQDQ01  00002PRCP06
0153588200999992000011121004+26180+117620FM-12+019899999V0202201N001010120019N0080001N1+00911+00871101581ADDAA124008191AY161031GF108991081051012501999999MD1210191+9999MW1601REMSYN076AAXX  11211 58820 41658 82201 10091 20087 40158 52019 76060 885// 333 70082;
0172588200999992000011206004+26180+117620FM-12+019899999V0202001N002010120019N0160001N1+00931+00741101721ADDAA106000191AY161061GF108991081051012501999999KA1999N+00781MD1710221+9999MW1001REMSYN082AAXX  12061 58820 11666 82002 10093 20074 40172 57022 69911 70060 885// 333 20078;
0153588200999992000011221004+26180+117620FM-12+019899999V0209999C000010120019N0080001N1+00501+00501101911ADDAA124002591AY161031GF108991081051012501999999MD1710031+9999MW1101REMSYN076AAXX  12211 58820 41658 80000 10050 20050 40191 57003 71060 885// 333 70025;
0165588200999992000011300004+26180+117620FM-12+019899999V0202501N001010120019N0090001N1+00541+00471101941ADDAA106002091AY161061GF108991081051012501999999MD1210021+0001MW1101REMSYN088AAXX  13001 58820 11659 82501 10054 20047 40194 52002 60021 71060 885// 333 00053 70023;
0172588200999992000011306004+26180+117620FM-12+019899999V0202201N002010120019N0080001N1+00601+00561101741ADDAA106003091AY161061GF108991081051012501999999KA1999N+00491MD1710261+9999MW1601REMSYN082AAXX  13061 58820 11658 82202 10060 20056 40174 57026 60031 76060 885// 333 20049;
0169588200999992000011400004+26180+117620FM-12+019899999V0209999C000010120019N0080001N1+00531+00531102081ADDAA106000591AY161061GF108991081051012501999999MD1210161+0101MW1601REMSYN092    AAXX  14001 58820 11658 80000 10053 20053 40208 52016 69941 76060 885// 333 00100 70132;
0184588200999992000011406004+26180+117620FM-12+019899999V0209999C000019999999N0009001N1+00811+00771101771ADDAA106002091AY161061AY241061GF108991081051999999999999KA1999N+00501MD1710311+9999MW1601REMSYN086    AAXX  14061 58820 11/09 80000 10081 20077 40177 57031 60021 76064 885// 333 20050;
0169588200999992000011500004+26180+117620FM-12+019899999V0209999C000010120019N0090001N1+00921+00901101821ADDAA106005191AY161061GF108991081051012501999999MD1210151-0201MW1101REMSYN092    AAXX  15001 58820 11659 80000 10092 20090 40182 52015 60051 71060 885// 333 05204 70191;
0176588200999992000011506004+26180+117620FM-12+019899999V0209999C000010120019N0090001N1+01151+01131101561ADDAA106001091AY161061GF108991081051012501999999KA1999N+00801MD1710261+9999MW1601REMSYN086    AAXX  15061 58820 11659 80000 10115 20113 40156 57026 60011 76060 885// 333 20080;
0157588200999992000011521004+26180+117620FM-12+019899999V0209999C000010120019N0050001N1+00411+00391102131ADDAA124006491AY161031GF108991081051012501999999MD1210021+9999MW1601REMSYN080    AAXX  15211 58820 41650 80000 10041 20039 40213 52002 76060 885// 333 70064;
0169588200999992000011600004+26180+117620FM-12+019899999V0202201N001010120019N0060001N1+00361+00311102321ADDAA106001091AY161061GF108991081051012501999999MD1210171+0401MW1101REMSYN092    AAXX  16001 58820 11656 82201 10036 20031 40232 52017 60011 71060 885// 333 00456 70070;
0168588200999992000011606004+26180+117620FM-12+019899999V0202201N003019999999N0070001N1+00441+00341102181ADDAA106000791GF108991081001999999071999KA1999N+00351MD1710231+9999MW1601REMSYN086    AAXX  16061 58820 11957 82203 10044 20034 40218 57023 69901 76000 8807/ 333 20035;
0157588200999992000011621004+26180+117620FM-12+019899999V0209999C000019999999N0120001N1+00321+00301102511ADDAA124006491AY161031GF108991081001999999071999MD1210031+9999MW1001REMSYN080    AAXX  16211 58820 41962 80000 10032 20030 40251 52003 70060 8807/ 333 70063;
0187588200999992000011700004+26180+117620FM-12+019899999V0209999C000010120019N0120001N1+00341+00291102591ADDAA106000591AY161061GF108991081051012501999999IA2999+00459MD1210081+0201MW1001REMSYN098    AAXX  17001 58820 11662 80000 10034 20029 40259 52008 69951 70060 885// 333 00200 30045 70052;
0187588200999992000011800004+26180+117620FM-12+019899999V0209999C000010120019N0100001N1+00311+00241102761ADDAA106000791AY161061GF108991081051012501999999IA2999+00339MD1210131+0201MW1001REMSYN098    AAXX  18001 58820 11660 80000 10031 20024 40276 52013 69901 70060 885// 333 00200 30033 70005;
0169588200999992000011806004+26180+117620FM-12+019899999V0201801N004010120019N0110001N1+00471+00201102511ADDAA199000091GF108991081051012501999999KA1999N+00301MD1710251+9999REMSYN074    AAXX  18061 58820 32661 81804 10047 20020 40251 57025 885// 333 20030;EQDQ01  00002PRCP99
0136588200999992000011821004+26180+117620FM-12+019899999V0209999C000010042019N0015001N1-00041-00071102841ADDAY141031GF108991081061004501999999MD1710121+9999MW1101REMSYN070    AAXX  18211 58820 41415 80000 11004 21007 40284 57012 71040 886//;
0204588200999992000011900004+26180+117620FM-12+019899999V0209999C000010001519N0000001N1-00101-00101103071ADDAA199000091AY141061GA1091+999999999GF109991091999999999999999IA2999+00009MD1210211+0301MW1451REMSYN080    AAXX  19001 58820 31/00 90000 11010 21010 40307 52021 74540 333 00354 31005;EQDQ01  00002PRCP99
0155588200999992000011906004+26180+117620FM-12+019899999V0203401N003012200019N9999999N1+00941-00241102741ADDGA1001+999999999GF100991001001999999001001KA1999N-00141MD1710371+9999REMSYN074    AAXX  19061 58820 ////0 03403 10094 21024 40274 57037 70040 333 21014;
0150588200999992000011921004+26180+117620FM-12+019899999V0209999C000010001519N0000001N1-00151-00201103101ADDAY141031AY241031GA1091+999999999GF109991091999999999999999MD1710021+9999MW1471REMSYN060AAXX  19211 58820 41/00 90000 11015 21020 40310 57002 74744;
0208588200999992000012000004+26180+117620FM-12+019899999V0209999C000010006019N0009001N1-00181-00201103211ADDAA199000091AY141061AY241061GA1091+999999999GF109991091999999999999999IA2999+00009MD1210071+0101MW1431REMSYN076AAXX  20001 58820 31/09 90000 11018 21020 40321 52007 74344 333 00151 31008;EQDQ01  00002PRCP99
0195588200999992000012006004+26180+117620FM-12+019899999V0200701N002012200019N0150001N1+01081+00041102901ADDAA199000091AY141061GA1001+999999999GF100991001001999999001001KA1999N-00271MD1710351+9999MW1001REMSYN070AAXX  20061 58820 31965 00702 10108 20004 40290 57035 70040 333 21027;EQDQ01  00002PRCP99
0134588200999992000012021004+26180+117620FM-12+019899999V0209999C000012200019N0090001N1-00041-00101103201ADDGA1001+999999999GF100991001001999999001001MD1710061+9999MW1101REMSYN060AAXX  20211 58820 41959 00000 11004 21010 40320 57006 71000;
0170588200999992000012100004+26180+117620FM-12+019899999V0209999C000012200019N0160001N1+00011-00071103391ADDAA199000091GF101991011001999999041001IA2999-00209MD1210151+0201REMSYN076AAXX  21001 58820 32966 10000 10001 21007 40339 52015 81040 333 00202 31020;EQDQ01  00002PRCP99
0133588200999992000012121004+26180+117620FM-12+019899999V0209999C000019999999N0110001N1+00741+00561102671ADDAA124000791GF107991071001999999041999MD1710131+9999REMSYN070AAXX  21211 58820 42961 70000 10074 20056 40267 57013 8704/ 333 79999;
0157588200999992000012200004+26180+117620FM-12+019899999V0209999C000010120019N0140001N1+00721+00631102571ADDAA106000791GF107991071051012501999999MD1710111-0701MW1601REMSYN088AAXX  22001 58820 11664 70000 10072 20063 40257 57011 69901 76000 875// 333 05707 79999;
0172588200999992000012206004+26180+117620FM-12+019899999V0209999C000012200019N0220001N1+01701+00951102171ADDAA106000191AY161061GF102991011011012501041001KA1999N+00681MD1710421+9999MW1001REMSYN082AAXX  22061 58820 11672 20000 10170 20095 40217 57042 69921 70060 81140 333 20068;
0173588200999992000012300004+26180+117620FM-12+019899999V0202701N001010120019N0006001N1+01041+01041102351ADDAA106018091AY161061AY241061GF108991081051012501999999MD1210151-0301MW1601REMSYN088AAXX  23001 58820 11606 82701 10104 20104 40235 52015 60181 76064 885// 333 05303 70195;
0180588200999992000012306004+26180+117620FM-12+019899999V0209999C000010120019N0070001N1+01411+01391102061ADDAA106005191AY161061AY241061GF108991081051012501999999KA1999N+00961MD1710251+9999MW1601REMSYN082AAXX  23061 58820 11657 80000 10141 20139 40206 57025 60051 76064 885// 333 20096;
0153588200999992000012320004+26180+117620FM-12+019899999V0209999C000010120019N0050001N1+01261+01261102061ADDAA124018591AY161999GF108991081051012501999999MD1710031+9999MW1601REMSYN076AAXX  23201 58820 41650 80000 10126 20126 40206 57003 76060 885// 333 70185;
0153588200999992000012321004+26180+117620FM-12+019899999V0209999C000010120019N0050001N1+01261+01261102061ADDAA124018591AY161031GF108991081051012501999999MD1710031+9999MW1601REMSYN076AAXX  23211 58820 41650 80000 10126 20126 40206 57003 76060 885// 333 70185;
0165588200999992000012400004+26180+117620FM-12+019899999V0202201N002019999999N0050001N1+00891+00891102311ADDAA106000391AY161061GF108991051999012501999999MD1210211+0001MW1601REMSYN088AAXX  24001 58820 11650 82202 10089 20089 40231 52021 69931 76060 85/// 333 00052 70072;
0172588200999992000012406004+26180+117620FM-12+019899999V0202001N002010120019N0050001N1+00601+00561102411ADDAA106001091AY161061GF108991081051012501999999KA1999N+00591MD1710081+9999MW1601REMSYN082AAXX  24061 58820 11650 82002 10060 20056 40241 57008 69991 76060 885// 333 20059;
0157588200999992000012500004+26180+117620FM-12+019899999V0201601N001010120019N0120001N1+00151+00041103451ADDAA124003391GF108991081051012501999999IA2999+00309MD1210181+1001REMSYN082AAXX  25001 58820 32662 81601 10015 20004 40345 52018 885// 333 01057 30030 70034;
0177588200999992000012506004+26180+117620FM-12+019899999V0202001N003010120019N0080001N1+00231+00041103331ADDAA199000091GF108991081051012501999999KA1999N+00111MD1710141+9999MW1101REMSYN076AAXX  25061 58820 31658 82003 10023 20004 40333 57014 71000 885// 333 20011;EQDQ01  00002PRCP99
0186588200999992000012600004+26180+117620FM-12+019899999V0209999C000019999999N0100001N1-00021-00171103701ADDAA199000091GF108991001001999999999999IA2999+00009MD1210261+0201REMSYN076AAXX  26001 58820 32960 80000 11002 21017 40370 52026 807// 333 00252 31005;EQDQ01+000072SCOLCGQ02  00002PRCP99
0165588200999992000012606004+26180+117620FM-12+019899999V0202001N003010120019N0110001N1+00221-00141103471ADDAA199000091GF108991061051012501071999KA1999N-00081MD1710291+9999REMSYN070AAXX  26061 58820 32661 82003 10022 21014 40347 57029 8657/ 333 21008;EQDQ01  00002PRCP99
0175588200999992000012706004+26180+117620FM-12+019899999V0201801N003012200019N0140001N1+00721-00251103311ADDAA199000091GA1001+999999999GF100991001001999999001001KA1999N-00421MD1710381+9999REMSYN064AAXX  27061 58820 32964 01803 10072 21025 40331 57038 333 21042;EQDQ01  00002PRCP99
0122588200999992000012721004+26180+117620FM-12+019899999V0209999C000012200019N0110001N1-00081-00171102711ADDGA1001+999999999GF100991001001999999001001MD1210021+9999REMSYN054AAXX  27211 58820 42961 00000 11008 21017 40271 52002;
0186588200999992000012800004+26180+117620FM-12+019899999V0209999C000019999999N0160001N1-00301-00341103482ADDAA199000091GF107991071001999999041999IA2999-00309MD1210121-0301REMSYN076AAXX  28001 58820 32966 70000 11030 21034 40348 52012 8704/ 333 05300 31030;EQDQ01+103483APOSLPQ02  00002PRCP99
0165588200999992000012806004+26180+117620FM-12+019899999V0209999C000019999999N0170001N1+00551-00281103071ADDAA199000091GF108991081001999999071999KA1999N-00451MD1710291+9999REMSYN070AAXX  28061 58820 32967 80000 10055 21028 40307 57029 8807/ 333 21045;EQDQ01  00002PRCP99
0112588200999992000012821004+26180+117620FM-12+019899999V0209999C000019999999N0100001N1+99999+99999103061ADDGF108991081001999999071999MD1410001+9999REMSYN060AAXX  28211 58820 42960 80000 100// 20000 40306 54000 8807/;
0183588200999992000012900004+26180+117620FM-12+019899999V0209999C000019999999N0100001N1+00321+00031103271ADDAA106000791AY161061GF108991081001999999071999IA2999+00259MD1210191-0101MW1001REMSYN094AAXX  29001 58820 11960 80000 10032 20003 40327 52019 69901 70060 8807/ 333 05106 30025 79999;
0165588200999992000012906004+26180+117620FM-12+019899999V0202001N002019999999N0120001N1+00621+00001103161ADDAA199000091GF108991081001999999071999KA1999N+00311MD1710181+9999REMSYN070AAXX  29061 58820 32962 82002 10062 20000 40316 57018 8807/ 333 20031;EQDQ01  00002PRCP99
0069588200999992000012921004+26180+117620FM-12+019899999V0209999C000019999999N0100001N1+00141-00211103711REMSYN060AAXX  29211 58820 42960 /0000 10014 21021 40371 92002 8807/;
0182588200999992000013000004+26180+117620FM-12+019899999V0209999C000019999999N0080001N1+00141-00211103921ADDAA199000091GF107991071001999999041999IA2999+00009MD1210191+0601MW1101REMSYN082AAXX  30001 58820 31958 70000 10014 21021 40392 52019 71000 8704/ 333 00652 30002;EQDQ01  00002PRCP99
0175588200999992000013006004+26180+117620FM-12+019899999V0202701N002012200019N0110001N1+01021-00081103411ADDAA199000091GA1001+999999999GF100991001001999999001001KA1999N+00081MD1710371+9999REMSYN064AAXX  30061 58820 32961 02702 10102 21008 40341 57037 333 20008;EQDQ01  00002PRCP99
0112588200999992000013021004+26180+117620FM-12+019899999V0201801N001019999999N0010001N1+00241-00121103561ADDGF107991071001999999041999MD1710071+9999REMSYN060AAXX  30211 58820 42910 71801 10024 21012 40356 57007 8704/;
0182588200999992000013100004+26180+117620FM-12+019899999V0209999C000012200019N0080001N1+00141-00111103591ADDAA199000091GF101991011001999999041001IA2999+00009MD1710011-0301MW1101REMSYN082AAXX  31001 58820 31958 10000 10014 21011 40359 57001 71000 81040 333 05300 30003;EQDQ01  00002PRCP99
0165588200999992000013106004+26180+117620FM-12+019899999V0202001N004019999999N0100001N1+00601-00251103301ADDAA199000091GF107991071001999999041999KA1999N+00081MD1710191+9999REMSYN070AAXX  31061 58820 32960 72004 10060 21025 40330 57019 8704/ 333 20008;EQDQ01  00002PRCP99
0161588200999992000013121004+26180+117620FM-12+019899999V0209999C000019999999N0030001N1-00201-00231103561ADDAA124002591AY171031AY271031GF108991081001999999071999MD1210031+9999MW1701REMSYN076AAXX  31211 58820 41930 80000 11020 21023 40356 52003 77077 8807/ 333 70026;
0197588200999992000020100004+26180+117620FM-12+019899999V0209999C000019999999N0080001N1-00141-00291103681ADDAA106001091AY171061AY271061GF108991081001999999071999IA2999+00029MD1210111+0101MW1221REMSYN100AAXX  01001 58820 11958 80000 11014 21029 40368 52011 60011 72277 8807/ 333 00153 30002 70028 92501;
0158588200999992000020106004+26180+117620FM-12+019899999V0209999C000019999999N0080001N1+00351+00031103241ADDAA199000021GF108991081001999999071999KA1999N-00211MD1710351+9999MW1051REMSYN076AAXX  01061 58820 31958 80000 10035 20003 40324 57035 70500 8807/ 333 21021;
0145588200999992000020121004+26180+117620FM-12+019899999V0209999C000019999999N0090001N1+00021-00151103021ADDAA124000391GF108991081001999999071999MD1710121+9999MW1101REMSYN076AAXX  01211 58820 42959 80000 10002 21015 40302 57012 71000 8807/ 333 70002;
0182588200999992000020200004+26180+117620FM-12+019899999V0209999C000019999999N0080001N1+00091-00081103141ADDAA199000091GF107991071001999999041999IA2999+00109MD1210111-0501MW1101REMSYN082AAXX  02001 58820 31958 70000 10009 21008 40314 52011 71000 8704/ 333 05502 30016;EQDQ01  00002PRCP99
0165588200999992000020206004+26180+117620FM-12+019899999V0209999C000019999999N0160001N1+01001+00451102671ADDAA199000091GF108991081001999999071999KA1999N-00011MD1710301+9999REMSYN070AAXX  02061 58820 32966 80000 10100 20045 40267 57030 8807/ 333 21001;EQDQ01  00002PRCP99
0133588200999992000020221004+26180+117620FM-12+019899999V0209999C000019999999N0110001N1+00341+00241102701ADDAA124000591GF108991081001999999071999MD1710111+9999REMSYN070AAXX  02211 58820 42961 80000 10034 20024 40270 57011 8807/ 333 70005;
0157588200999992000020300004+26180+117620FM-12+019899999V0209999C000019999999N0120001N1+00381+00181102841ADDAA124000591GF108991081001999999071999IA2999+00399MD1210121-0201REMSYN082AAXX  03001 58820 32962 80000 10038 20018 40284 52012 8807/ 333 05203 30039 70005;
0165588200999992000020306004+26180+117620FM-12+019899999V0202201N003019999999N0120001N1+01011+00561102501ADDAA199000091GF107991071001999999071999KA1999N+00321MD1710291+9999REMSYN070AAXX  03061 58820 32962 72203 10101 20056 40250 57029 8707/ 333 20032;EQDQ01  00002PRCP99
0153588200999992000020321004+26180+117620FM-12+019899999V0209999C000019999999N0070001N1+00491+00441102461ADDAA124001091AY161031GF108991081001999999071999MD1710121+9999MW1601REMSYN076AAXX  03211 58820 41957 80000 10049 20044 40246 57012 76060 8807/ 333 70011;
0183588200999992000020400004+26180+117620FM-12+019899999V0209999C000019999999N0060001N1+00561+00511102461ADDAA106001091AY161061GF108991081001999999071999IA2999+00509MD1710011-0301MW1101REMSYN094AAXX  04001 58820 11956 80000 10056 20051 40246 57001 60011 71060 8807/ 333 05302 30050 70014;
0158588200999992000020406004+26180+117620FM-12+019899999V0202001N001019999999N0090001N1+01131+00931102141ADDAA199000021GF108991081001999999071999KA1999N+00461MD1710301+9999MW1101REMSYN076AAXX  04061 58820 31959 82001 10113 20093 40214 57030 71000 8807/ 333 20046;
0140588200999992000020421004+26180+117620FM-12+019899999V0202201N003019999999N0070001N1+00401+00351102311ADDAY161031AY261031GF108991081001999999071999MD1710071+9999MW1211REMSYN066AAXX  04211 58820 41957 82203 10040 20035 40231 57007 72166 8807/;
0183588200999992000020500004+26180+117620FM-12+019899999V0201801N001019999999N0050001N1+00351+00301102511ADDAA106000591AY161061GF108991081001999999071999IA2999+00489MD1210171+0101MW1101REMSYN094AAXX  05001 58820 11950 81801 10035 20030 40251 52017 69961 71060 8807/ 333 00152 30048 70042;
0172588200999992000020506004+26180+117620FM-12+019899999V0202001N003019999999N0080001N1+00491+00301102401ADDAA106000791AY161061GF108991081001999999071999KA1999N+00331MD1710241+9999MW1101REMSYN082AAXX  05061 58820 11958 82003 10049 20030 40240 57024 69901 71060 8807/ 333 20033;
0169588200999992000020600004+26180+117620FM-12+019899999V0201801N002019999999N0060001N1+00261+00161102551ADDAA124000791GF108991081001999999071999IA2999+00369MD1210111+0001MW1101REMSYN088AAXX  06001 58820 31956 81802 10026 20016 40255 52011 71000 8807/ 333 00051 30036 79999;
0177588200999992000020606004+26180+117620FM-12+019899999V0209999C000019999999N0090001N1+00791+00431102111ADDAA199000091GF108991081001999999071999KA1999N+00221MD1710311+9999MW1101REMSYN076AAXX  06061 58820 31959 80000 10079 20043 40211 57031 71000 8807/ 333 20022;EQDQ01  00002PRCP99
0112588200999992000020621004+26180+117620FM-12+019899999V0209999C000019999999N0110001N1+00481+00341102151ADDGF108991081001999999071999MD1410001+9999REMSYN060AAXX  06211 58820 42961 80000 10048 20034 40215 54000 8807/;
0182588200999992000020700004+26180+117620FM-12+019899999V0209999C000019999999N0060001N1+00461+00291102291ADDAA199000091GF108991081001999999071999IA2999+00409MD1210121-0201MW1101REMSYN082AAXX  07001 58820 31956 80000 10046 20029 40229 52012 71000 8807/ 333 05202 30043;EQDQ01  00002PRCP99
0165588200999992000020706004+26180+117620FM-12+019899999V0203601N001012200019N0150001N1+01261+00251102101ADDAA199000091GF102991011011012501041001KA1999N+00431MD1710211+9999REMSYN070AAXX  07061 58820 32665 23601 10126 20025 40210 57021 81140 333 20043;EQDQ01  00002PRCP99
0134588200999992000020721004+26180+117620FM-12+019899999V0209999C000012200019N0060001N1-00021-00051102351ADDGA1001+999999999GF100991001001999999001001MD1710061+9999MW1101REMSYN060AAXX  07211 58820 41956 00000 11002 21005 40235 57006 71000;
0164588200999992000020800004+26180+117620FM-12+019899999V0209999C000019999999N0020001N1+00021-00011102491ADDAA199000091GF107991071001999999041999MD1210111+0021MW1101REMSYN076AAXX  08001 58820 31920 70000 10002 21001 40249 52011 71000 8704/ 333 00254;EQDQ01  00002PRCP99
0165588200999992000020806004+26180+117620FM-12+019899999V0209999C000012200019N0150001N1+01381-00121102151ADDAA199000091GF101991011001999999041001KA1999N-00051MD1710311+9999REMSYN070AAXX  08061 58820 32965 10000 10138 21012 40215 57031 81040 333 21005;EQDQ01  00002PRCP99
0112588200999992000020821004+26180+117620FM-12+019899999V0209999C000019999999N0110001N1+00581+00341102181ADDGF108991081001999999071999MD1710031+9999REMSYN060AAXX  08211 58820 42961 80000 10058 20034 40218 57003 8807/;
0146588200999992000020900004+26180+117620FM-12+019899999V0209999C000019999999N0140001N1+00581+00371102321ADDAA199000091GF108991999999999999999999MD1210111+0011REMSYN064AAXX  09001 58820 32964 80000 10058 20037 40232 52011 333 05106;EQDQ01  00002PRCP99
0145588200999992000020921004+26180+117620FM-12+019899999V0209999C000019999999N0110001N1+00751+00601101971ADDAA124000791GF108991081001999999071999MD1710101+9999MW1601REMSYN076AAXX  09211 58820 41961 80000 10075 20060 40197 57010 76000 8807/ 333 79999;
0165588200999992000021000004+26180+117620FM-12+019899999V0209999C000019999999N0120001N1+00721+00591102041ADDAA106000191AY161061GF108991081001999999071999MD1210051-0301MW1601REMSYN088AAXX  10001 58820 11962 80000 10072 20059 40204 52005 69911 76060 8807/ 333 05301 70001;
0172588200999992000021006004+26180+117620FM-12+019899999V0209999C000019999999N0090001N1+00941+00821101841ADDAA106000891AY161061GF108991081001999999071999KA1999N+00711MD1710251+9999MW1601REMSYN082AAXX  10061 58820 11959 80000 10094 20082 40184 57025 69981 76060 8807/ 333 20071;
0161588200999992000021021004+26180+117620FM-12+019899999V0209999C000019999999N0050001N1+00791+00791101891ADDAA124010491AY161031AY261031GF108991081001999999071999MD1710081+9999MW1601REMSYN076AAXX  10211 58820 41950 80000 10079 20079 40189 57008 76066 8807/ 333 70103;
0167588200999992000021100004+26180+117620FM-12+019899999V0209999C000019999999N0006001N1+00801+00801102041ADDAA106007191AY161061AY281061GF108991999001008001071999MD1210141+0001MW1601REMSYN082AAXX  11001 58820 11506 80000 10080 20080 40204 52014 60071 76068 8/07/ 333 00001;
0180588200999992000021106004+26180+117620FM-12+019899999V0209999C000019999999N0080001N1+00991+00931101831ADDAA106001091AY161061AY241061GF108991081001999999071999KA1999N+00771MD1710181+9999MW1601REMSYN082AAXX  11061 58820 11958 80000 10099 20093 40183 57018 60011 76064 8807/ 333 20077;
0145588200999992000021121004+26180+117620FM-12+019899999V0209999C000019999999N0030001N1+00961+00961101811ADDAA124005891GF108991081001999999071999MD1710071+9999MW1601REMSYN076AAXX  11211 58820 41930 80000 10096 20096 40181 57007 76000 8807/ 333 70059;
0165588200999992000021200004+26180+117620FM-12+019899999V0209999C000019999999N0015001N1+00991+00991101891ADDAA106001091AY161061GF108991081001999999071999MD1210071-0101MW1101REMSYN088AAXX  12001 58820 11915 80000 10099 20099 40189 52007 60011 71060 8807/ 333 05102 70030;
0146588200999992000021206004+26180+117620FM-12+019899999V0209999C000010120019N0120001N1+01521+01191101571ADDAA199000021GF107991071051012501999999KA1999N+00941MD1710241+9999REMSYN070AAXX  12061 58820 32662 70000 10152 20119 40157 57024 875// 333 20094;
0132588200999992000021221004+26180+117620FM-12+019899999V0209999C000010120019N0040001N1+01181+01181101521ADDGF108991081051012501999999MD1710071+9999MW1101REMSYN074AAXX  12211 58820 41640 80000 10118 20118 40152 57007 71000 885// 333 999;
0133588200999992000021300004+26180+117620FM-12+019899999V0209999C000019999999N0050001N1+01191+01191101591ADDAA124002091GF108991081001999999071999MD1999999-0201REMSYN070AAXX  13001 58820 31950 80000 10119 20119 40159 8807/ 333 05202 70021;
0165588200999992000021306004+26180+117620FM-12+019899999V0209999C000010360019N0120001N1+02041+01471101141ADDAA199000091GF105991021011012501041001KA1999N+01151MD1710331+9999REMSYN070AAXX  13061 58820 32662 50000 10204 20147 40114 57033 82140 333 20115;EQDQ01  00002PRCP99
0147588200999992000021321004+26180+117620FM-12+019899999V02099999999990120019N0080001N1+01061+99999101541ADDAA124002091AY161031GF108991081051012501999999MD1210031+9999MW1101REMSYN070AAXX  13211 58820 41658 8000/ 10106 40154 52003 71060 885// 333 70021;
0165588200999992000021400004+26180+117620FM-12+019899999V0201801N002010120019N0090001N1+00941+00841101821ADDAA106000191AY161061GF108991081051012501999999MD1210231+0201MW1101REMSYN088AAXX  14001 58820 11659 81802 10094 20084 40182 52023 69911 71060 885// 333 00253 70021;
0177588200999992000021406004+26180+117620FM-12+019899999V0202001N003010120019N0080001N1+01021+00781101941ADDAA199000091GF108991081051012501999999KA1999N+00901MD1710111+9999MW1101REMSYN076AAXX  14061 58820 31658 82003 10102 20078 40194 57011 71000 885// 333 20090;EQDQ01  00002PRCP99
0124588200999992000021421004+26180+117620FM-12+019899999V0209999C000010120019N0060001N1+00781+00671102371ADDGF108991081051012501999999MD1710031+9999MW1101REMSYN066AAXX  14211 58820 41656 80000 10078 20067 40237 57003 71000 885//;
0122588200999992000021500004+26180+117620FM-12+019899999V0209999C000019999999N0040001N1+00811+00701102521ADDGF108991999999012501999999MD1210131+9999MW1101REMSYN064AAXX  15001 58820 /1640 80000 10081 20070 40252 52013 7100/ 333;
0165588200999992000021506004+26180+117620FM-12+019899999V0200401N002019999999N0180001N1+01501+00241102141ADDAA199000091GF107991071001999999041999KA1999N+00741MD1710311+9999REMSYN070AAXX  15061 58820 32968 70402 10150 20024 40214 57031 8704/ 333 20074;EQDQ01  00002PRCP99
0153588200999992000021521004+26180+117620FM-12+019899999V0209999C000019999999N0070001N1+00791+00731102141ADDAA124000391AY161031GF108991081001999999071999MD1710171+9999MW1601REMSYN076AAXX  15211 58820 41957 80000 10079 20073 40214 57017 76060 8807/ 333 70002;
0165588200999992000021600004+26180+117620FM-12+019899999V0209999C000019999999N0060001N1+00741+00701102321ADDAA106000591AY161061GF108991081001999999071999MD1210161-0201MW1601REMSYN088AAXX  16001 58820 11956 80000 10074 20070 40232 52016 69941 76060 8807/ 333 05251 70006;
0172588200999992000021606004+26180+117620FM-12+019899999V0209999C000019999999N0040001N1+00741+00701102121ADDAA106001091AY161061GF108991081001999999071999KA1999N+00681MD1710221+9999MW1601REMSYN082AAXX  16061 58820 11940 80000 10074 20070 40212 57022 69991 76060 8807/ 333 20068;
0133588200999992000021621004+26180+117620FM-12+019899999V0203401N001019999999N0120001N1+00651+00631102391ADDAA124009191GF108991081001999999071999MD1410001+9999REMSYN070AAXX  16211 58820 42962 83401 10065 20063 40239 54000 8807/ 333 70092;
0139588200999992000021700004+26180+117620FM-12+019899999V0209999C000019999999N0120001N1+00661+00621102461ADDAA124008991GF108991081001999999071999MD1210071+0101REMSYN076AAXX  17001 58820 32962 80000 10066 20062 40246 52007 8807/ 333 00151 70088;
0165588200999992000021706004+26180+117620FM-12+019899999V0209999C000010120019N0160001N1+01051+00831102171ADDAA199000091GF108991081051012501999999KA1999N+00621MD1710291+9999REMSYN070AAXX  17061 58820 32666 80000 10105 20083 40217 57029 885// 333 20062;EQDQ01  00002PRCP99
0112588200999992000021721004+26180+117620FM-12+019899999V0209999C000010120019N0100001N1+00851+00791101911ADDGF108991081051012501999999MD1710131+9999REMSYN060AAXX  17211 58820 42660 80000 10085 20079 40191 57013 885//;
0152588200999992000021800004+26180+117620FM-12+019899999V0209999C000019999999N0110001N1+00901+00821101901ADDAA199000091GF107991071001999999041999MD1710021+0051REMSYN070AAXX  18001 58820 32961 70000 10090 20082 40190 57002 8704/ 333 05502;EQDQ01  00002PRCP99
0165588200999992000021806004+26180+117620FM-12+019899999V0209999C000010120019N0160001N1+01701+01201101391ADDAA199000091GF107991071051012501001001KA1999N+00761MD1710431+9999REMSYN070AAXX  18061 58820 32666 70000 10170 20120 40139 57043 87500 333 20076;EQDQ01  00002PRCP99
0145588200999992000021821004+26180+117620FM-12+019899999V0209999C000010120019N0080001N1+01511+01491100871ADDAA124000391GF108991081051012501999999MD1710171+9999MW1101REMSYN076AAXX  18211 58820 41658 80000 10151 20149 40087 57017 71000 885// 333 70002;
0165588200999992000021900004+26180+117620FM-12+019899999V0209999C000010120019N0050001N1+01501+01501100991ADDAA106000591AY161061GF108991081051012501999999MD1210091-0801MW1211REMSYN088AAXX  19001 58820 11650 80000 10150 20150 40099 52009 69941 72160 885// 333 05806 70006;
0180588200999992000021906004+26180+117620FM-12+019899999V0202201N004010120019N0110001N1+01371+01231100861ADDAA106000191AY161061AY241061GF108991081051012501999999KA1999N+01371MD1710171+9999MW1001REMSYN082AAXX  19061 58820 11661 82204 10137 20123 40086 57017 69921 70064 885// 333 20137;
0153588200999992000021921004+26180+117620FM-12+019899999V0209999C000010120019N0040001N1+00621+00621101571ADDAA124004891AY161031GF108991081051012501999999MD1710131+9999MW1601REMSYN076AAXX  19211 58820 41640 80000 10062 20062 40157 57013 76060 885// 333 70049;
0165588200999992000022000004+26180+117620FM-12+019899999V0201601N001010120019N0080001N1+00581+00561101731ADDAA106007191AY161061GF108991081051012501999999MD1210131+0601MW1601REMSYN088AAXX  20001 58820 11658 81601 10058 20056 40173 52013 60071 76060 885// 333 00659 70085;
0143588200999992000022006004+26180+117620FM-12+019899999V0202001N003010120019N0080001N1+00621+00171999999ADDAA106002091AY161061GF108991081051012501999999MD1710131+9999MW1101REMSYN066AAXX  20061 58820 11658 82003 10062 20017 57013 60021 71060 885//;
0125588200999992000022021004+26180+117620FM-12+019899999V0209999C000010120019N0060001N1+00501+00451102011ADDAA124007191GF108991081051012501999999MW1101REMSYN070AAXX  20211 58820 41656 80000 10050 20045 40201 71000 885// 333 70071;
0151588200999992000022100004+26180+117620FM-12+019899999V0209999C000010120019N0060001N1+00541+00521102091ADDAA124003091GF108991081051012501999999MD1210081+0301MW1101REMSYN082AAXX  21001 58820 31656 80000 10054 20052 40209 52008 71000 885// 333 00300 70031;
0172588200999992000022106004+26180+117620FM-12+019899999V0200201N002010120019N0080001N1+00771+00711101841ADDAA106001091AY161061GF108991081051012501999999KA1999N+00481MD1710261+9999MW1101REMSYN082AAXX  21061 58820 11658 80202 10077 20071 40184 57026 60011 71060 885// 333 20048;
0161588200999992000022121004+26180+117620FM-12+019899999V0209999C000010120019N0100001N1+00631+00631101961ADDAA124012291AY161031AY261031GF108991081051012501999999MD1210051+9999MW1601REMSYN076AAXX  21211 58820 41660 80000 10063 20063 40196 52005 76066 885// 333 70121;
0173588200999992000022200004+26180+117620FM-12+019899999V0209999C000010120019N0050001N1+00641+00641101931ADDAA106007991AY161061AY261061GF108991081051012501999999MD1710031-0101MW1601REMSYN088AAXX  22001 58820 11650 80000 10064 20064 40193 57003 60081 76066 885// 333 05101 70157;
0180588200999992000022206004+26180+117620FM-12+019899999V0202001N002010120019N0040001N1+00801+00781101781ADDAA106007991AY161061AY261061GF108991081051012501999999KA1999N+00571MD1710191+9999MW1601REMSYN082AAXX  22061 58820 11640 82002 10080 20078 40178 57019 60081 76066 885// 333 20057;
0153588200999992000022221004+26180+117620FM-12+019899999V0209999C000010120019N0080001N1+00491+00491101861ADDAA124017591AY161031GF108991081051012501999999MD1710051+9999MW1101REMSYN076AAXX  22211 58820 41658 80000 10049 20049 40186 57005 71060 885// 333 70174;
0172588200999992000022306004+26180+117620FM-12+019899999V0202201N003010120019N0070001N1+00621+00581101951ADDAA106003091AY161061GF108991081051012501999999KA1999N+00471MD1710111+9999MW1601REMSYN082AAXX  23061 58820 11657 82203 10062 20058 40195 57011 60031 76060 885// 333 20047;
0161588200999992000022321004+26180+117620FM-12+019899999V0209999C000010120019N0060001N1+00501+00501102231ADDAA124004891AY161031AY261031GF108991081051012501999999MD1810091+9999MW1601REMSYN076AAXX  23211 58820 41656 80000 10050 20050 40223 58009 76066 885// 333 70047;
0165588200999992000022400004+26180+117620FM-12+019899999V0209999C000010120019N0040001N1+00521+00521102441ADDAA106000591AY161061GF108991081051012501999999MD1210191+0501MW1601REMSYN088AAXX  24001 58820 11640 80000 10052 20052 40244 52019 69951 76060 885// 333 00500 70048;
0172588200999992000022406004+26180+117620FM-12+019899999V0200201N001010120019N0090001N1+00711+00691102171ADDAA106000891AY161061GF108991081051012501999999KA1999N+00481MD1710271+9999MW1601REMSYN082AAXX  24061 58820 11659 80201 10071 20069 40217 57027 69981 76060 885// 333 20048;
0178588200999992000022500004+26180+117620FM-12+019899999V0201701N076020120019N0017001N1+99999+99999102561ADDAA106000391AY161061GF108991081051012501999999MD1210101+0101MW1211REMSYN082AAXX  25001 58820 11617 81776 20052 40256 5201/ 69931 72160 885// 333 00100 70062;EQDQ01+007603WOSPD 
0172588200999992000022506004+26180+117620FM-12+019899999V0201801N002010120019N0050001N1+00471+00421102511ADDAA106004191AY161061GF108991081051012501999999KA1999N+00471MD1710141+9999MW1601REMSYN082AAXX  25061 58820 11650 81802 10047 20042 40251 57014 60041 76060 885// 333 20047;
0134588200999992000022521004+26180+117620FM-12+019899999V0209999C000019999999N0080001N1+00221+00191102751ADDGF107991071001999999041999MD1410001+9999MW1101REMSYN076AAXX  25211 58820 41958 70000 10022 20019 40275 54000 71000 8704/ 333 8776/;
0165588200999992000022606004+26180+117620FM-12+019899999V0203401N002019999999N0160001N1+01141+00101102521ADDAA199000091GF107991071001999999041999KA1999N+00191MD1710431+9999REMSYN070AAXX  26061 58820 32966 73402 10114 20010 40252 57043 8704/ 333 20019;EQDQ01  00002PRCP99
0124588200999992000022621004+26180+117620FM-12+019899999V0209999C000019999999N0080001N1+00431+00361102561ADDGF108991081001999999071999MD1710051+9999MW1101REMSYN066AAXX  26211 58820 41958 80000 10043 20036 40256 57005 71000 8807/;
0170588200999992000022700004+26180+117620FM-12+019899999V0209999C000019999999N0130001N1+00481+00431102631ADDAA199000091GF108991081001999999071999IA2999+00409MD1210041-0301REMSYN076AAXX  27001 58820 32963 80000 10048 20043 40263 52004 8807/ 333 05302 30045;EQDQ01  00002PRCP99
0172588200999992000022706004+26180+117620FM-12+019899999V0201401N001019999999N0100001N1+00801+00511102451ADDAA106001091AY161061GF108991081001999999071999KA1999N+00431MD1710201+9999MW1601REMSYN082AAXX  27061 58820 11960 81401 10080 20051 40245 57020 60011 76060 8807/ 333 20043;
0139588200999992000022721004+26180+117620FM-12+019899999V0200401N001019999999N0050001N1+00341+00341102451ADDAA124999999GF108991081001999999071999MD1210011+9999REMSYN076AAXX  27211 58820 4/950 80401 10034 20034 40245 52001 76066 8807/ 333 7019/;
0191588200999992000022800004+26180+117620FM-12+019899999V0209999C000019999999N0060001N1+00361+00361102611ADDAA106013091AY161061AY261061GF108991081001999999071999IA2999+00409MD1210151+0001MW1601REMSYN094AAXX  28001 58820 11956 80000 10036 20036 40261 52015 60131 76066 8807/ 333 00051 30040 70258;
0180588200999992000022806004+26180+117620FM-12+019899999V0209999C000010360019N0080001N1+00541+00491102551ADDAA106005191AY161061AY261061GF108991031071008001071999KA1999N+00341MD1710121+9999MW1601REMSYN082AAXX  28061 58820 11558 80000 10054 20049 40255 57012 60051 76066 8377/ 333 20034;
0153588200999992000022821004+26180+117620FM-12+019899999V0200201N002019999999N0080001N1+00411+00391102901ADDAA124015291AY161031GF108991081001999999071999MD1710031+9999MW1101REMSYN076AAXX  28211 58820 41958 80202 10041 20039 40290 57003 71060 8807/ 333 70153;
0183588200999992000022900004+26180+117620FM-12+019899999V0209999C000019999999N0110001N1+00441+00341103031ADDAA106000191AY161061GF108991081001999999071999IA2999+00449MD1210131+0401MW1001REMSYN094AAXX  29001 58820 11961 80000 10044 20034 40303 52013 69921 70060 8807/ 333 00401 30044 70085;
0165588200999992000022906004+26180+117620FM-12+019899999V0200201N002019999999N0140001N1+00721+00501102671ADDAA199000091GF108991081001999999071999KA1999N+00401MD1710291+9999REMSYN070AAXX  29061 58820 32964 80202 10072 20050 40267 57029 8807/ 333 20040;EQDQ01  00002PRCP99
0161588200999992000022921004+26180+117620FM-12+019899999V0209999C000019999999N0080001N1+00531+00511102661ADDAA124003391AY161031AY261031GF108991081001999999071999MD1710071+9999MW1601REMSYN076AAXX  29211 58820 41958 80000 10053 20051 40266 57007 76066 8807/ 333 70033;
0172588200999992000030106004+26180+117620FM-12+019899999V0209999C000019999999N0110001N1+00801+00631102561ADDAA106000591AY161061GF108991081001999999071999KA1999N+00481MD1710241+9999MW1601REMSYN082AAXX  01061 58820 11961 80000 10080 20063 40256 57024 69951 76060 8807/ 333 20048;
0139588200999992000030121004+26180+117620FM-12+019899999V0209999C000019999999N0080001N1+00541+99999999999ADDAA124002591GF108991081001999999071999MD1710151+9999MW1101REMSYN070AAXX  01211 58820 41958 80000 10054 200/9 57015 71000 8807/ 333 70026;
0172588200999992000031406004+26180+117620FM-12+019899999V0209999C000010120019N0070001N1+01431+01311101701ADDAA106001091AY161061GF108991081051012501999999KA1999N+01101MD1710231+9999MW1101REMSYN082AAXX  14061 58820 11657 80000 10143 20131 40170 57023 60011 71060 885// 333 20110;
0173588200999992000031500004+26180+117620FM-12+019899999V0209999C000010120019N0060001N1+01321+01321101371ADDAA106000591AY161061AY241061GF108991081051012501999999MD1210081-0501MW1601REMSYN088AAXX  15001 58820 11656 80000 10132 20132 40137 52008 69961 76064 885// 333 05502 70029;
0165588200999992000032406004+26180+117620FM-12+019899999V0200701N003012200019N0200001N1+02001+00371102101ADDAA199000091GF101991011011012501001001KA1999N+00921MD1710301+9999REMSYN070AAXX  24061 58820 32670 10703 10200 20037 40210 57030 81100 333 20092;EQDQ01  00002PRCP99
0112588200999992000032421004+26180+117620FM-12+019899999V0209999C000019999999N0100001N1+00991+00851102441ADDGF108991081001999999071999MD1210011+9999REMSYN060AAXX  24211 58820 42960 80000 10099 20085 40244 52001 8807/;
0149588200999992000032500004+26180+117620FM-12+019899999V0209999C000019999999N0110001N1+01091+00931102391ADDAA106000791AY161061GF107991071001999999041999MD1210111+9999MW1001REMSYN072AAXX  25001 58820 11961 70000 10109 20093 40239 52011 69901 70060 8704/;
0172588200999992000032506004+26180+117620FM-12+019899999V0209999C000019999999N0090001N1+01171+00871102411ADDAA106000191AY161061GF108991081001999999071999KA1999N+00961MD1710091+9999MW1601REMSYN082AAXX  25061 58820 11959 80000 10117 20087 40241 57009 69911 76060 8807/ 333 20096;
0145588200999992000032521004+26180+117620FM-12+019899999V0209999C000019999999N0080001N1+00921+00801102471ADDAA124999999GF108991081001999999071999MD1710051+9999MW1101REMSYN076AAXX  25211 58820 41958 80000 10092 20080 40247 57005 71000 8807/ 333 70/04;
0151588200999992000032600004+26180+117620FM-12+019899999V0201101N001019999999N0080001N1+00981+00841102621ADDAA124000591GF108991081001999999071999MD1210151+0201MW1101REMSYN082AAXX  26001 58820 31958 81101 10098 20084 40262 52015 71000 8807/ 333 00251 70004;
0165588200999992000032606004+26180+117620FM-12+019899999V0201401N001012200019N0170001N1+02011+99999102051ADDAA199000091GF101991011011012501001001KA1999N+00831MD1710391+9999REMSYN070AAXX  26061 58820 32667 11401 10201 2/016 40205 57039 81100 333 20083;EQDQ01  00002PRCP99
0134588200999992000032621004+26180+117620FM-12+019899999V0209999C000012200019N0040001N1+00421+00401101901ADDGA1001+999999999GF100991001001999999001001MD1710081+9999MW1101REMSYN060AAXX  26211 58820 41940 00000 10042 20040 40190 57008 71000;
0200588200999992000032700004+26180+117620FM-12+019899999V0209999C000010006019N0008001N1+00431+00411102081ADDAA199000091AY141061GA1091+999999999GF109991091999999999999999IA2999+00209MD1210121-0501MW1431REMSYN076AAXX  27001 58820 31/08 90000 10043 20041 40208 52012 74340 333 05556 30023;EQDQ01  00002PRCP99
0195588200999992000032706004+26180+117620FM-12+019899999V0202201N004012200019N0250001N1+02432-00011101481ADDAA199000091AY141061GA1001+999999999GF100991001001999999001001KA1999N+00361MD1710371+9999MW1001REMSYN070AAXX  27061 58820 31975 02204 10243 21001 40148 57037 70040 333 20036;EQDQ01  00002PRCP99
0134588200999992000032721004+26180+117620FM-12+019899999V0209999C000012200019N0060001N1+00621+00531101561ADDGA1001+999999999GF100991001001999999001001MD1210011+9999MW1101REMSYN060AAXX  27211 58820 41956 00000 10062 20053 40156 52001 71000;
0180588200999992000032800004+26180+117620FM-12+019899999V0209999C000012200019N0140001N1+00801+00581101781ADDAA199000091GA1001+999999999GF100991001001999999001001IA2999+00409MD1210161-0301REMSYN070AAXX  28001 58820 32964 00000 10080 20058 40178 52016 333 05304 30040;EQDQ01  00002PRCP99
0175588200999992000032806004+26180+117620FM-12+019899999V0203401N008012200019N0140001N1+02642+00351101521ADDAA199000091GA1001+999999999GF100991001001999999001001KA1999N+00571MD1710141+9999REMSYN064AAXX  28061 58820 32964 03408 10264 20035 40152 57014 333 20057;EQDQ01  00002PRCP99
0152588200999992000032900004+26180+117620FM-12+019899999V0209999C000019999999N0100001N1+00851+00661102431ADDAA199000091GF107991001001999999001021MD1210211+0071REMSYN070AAXX  29001 58820 32960 70000 10085 20066 40243 52021 80002 333 00701;EQDQ01  00002PRCP99
0165588200999992000032906004+26180+117620FM-12+019899999V0209999C000019999999N0120001N1+02211+00591102061ADDAA199000091GF107991001001999999001021KA1999N+00671MD1710281+9999REMSYN070AAXX  29061 58820 32962 70000 10221 20059 40206 57028 80002 333 20067;EQDQ01  00002PRCP99
0133588200999992000032921004+26180+117620FM-12+019899999V0209999C000019999999N0090001N1+00931+00811999999ADDGF107991071001999999041999MD1710071+9999ME1311699MW1101REMSYN066AAXX  29211 58820 41959 70000 10093 20081 48169 57007 71000 8704/;
0164588200999992000033000004+26180+117620FM-12+019899999V0209999C000019999999N0060001N1+01051+00891101821ADDAA199000091GF107991071001999999041999MD1210091+0061MW1101REMSYN076AAXX  30001 58820 31956 70000 10105 20089 40182 52009 71000 8704/ 333 05602;EQDQ01  00002PRCP99
0165588200999992000033006004+26180+117620FM-12+019899999V0203201N001019999999N0140001N1+01961+00921101401ADDAA199000091GF108991081001999999071999KA1999N+00881MD1710261+9999REMSYN070AAXX  30061 58820 32964 83201 10196 20092 40140 57026 8807/ 333 20088;EQDQ01  00002PRCP99
0153588200999992000033021004+26180+117620FM-12+019899999V0201601N001019999999N0070001N1+01331+01291101131ADDAA124000591AY161031GF108991081001999999071999MD1410001+9999MW1101REMSYN076AAXX  30211 58820 41957 81601 10133 20129 40113 54000 71060 8807/ 333 70004;
0165588200999992000033100004+26180+117620FM-12+019899999V0209999C000010120019N0009001N1+01311+01311101381ADDAA106002091AY161061GF108991081051012501999999MD1210211-0401MW1601REMSYN088AAXX  31001 58820 11609 80000 10131 20131 40138 52021 60021 76060 885// 333 05403 70018;
0180588200999992000033106004+26180+117620FM-12+019899999V0209999C000010120019N0040001N1+01541+01491101281ADDAA106007991AY161061AY241061GF108991081051012501999999KA1999N+01291MD1710151+9999MW1601REMSYN082AAXX  31061 58820 11640 80000 10154 20149 40128 57015 60081 76064 885// 333 20129;
0161588200999992000033121004+26180+117620FM-12+019899999V0209999C000010120019N0030001N1+01401+01401101101ADDAA124029791AY161031AY261031GF108991081051012501999999MD1710091+9999MW1601REMSYN076AAXX  31211 58820 41630 80000 10140 20140 40110 57009 76066 885// 333 70297;
0180588200999992000040106004+26180+117620FM-12+019899999V0203401N002010120019N0080001N1+01651+01651100991ADDAA106007991AY161061AY261061GF108991081051012501999999KA1999N+01391MD1710231+9999MW1601REMSYN082AAXX  01061 58820 11658 83402 10165 20165 40099 57023 60081 76066 885// 333 20139;
0145588200999992000040121004+26180+117620FM-12+019899999V0209999C000010120019N0080001N1+01501+01501101241ADDAA124017891GF108991081051012501999999MD1210011+9999MW1101REMSYN076AAXX  01211 58820 41658 80000 10150 20150 40124 52001 71000 885// 333 70177;
0145588200999992000040200004+26180+117620FM-12+019899999V0209999C000010120019N0012001N1+01531+01511101391ADDAA124008491GF108991081051012501999999MD1999999+0201MW1101REMSYN076AAXX  02001 58820 31612 80000 10153 20151 40139 71000 885// 333 00201 70085;
0165588200999992000040206004+26180+117620FM-12+019899999V0201401N002012200019N0160001N1+02501+01551101051ADDAA199000091GF103991031011012501001001KA1999N+01461MD1710201+9999REMSYN070AAXX  02061 58820 32666 31402 10250 20155 40105 57020 83100 333 20146;EQDQ01  00002PRCP99
0161588200999992000040221004+26180+117620FM-12+019899999V0209999C000010120019N0040001N1+01711+01711999999ADDAA124019191AY161031AY261031GF108991081051012501999999MD1710051+9999MW1101REMSYN076AAXX  02211 58820 41640 80000 10171 20171 4/104 57005 71066 885// 333 70191;
0173588200999992000040300004+26180+117620FM-12+019899999V0200401N001010120019N0050001N1+01701+01701101201ADDAA106022191AY161061AY261061GF108991081051012501999999MD1210131-0201MW1601REMSYN088AAXX  03001 58820 11650 80401 10170 20170 40120 52013 60221 76066 885// 333 05202 70381;
0172588200999992000040306004+26180+117620FM-12+019899999V0209999C000010120019N0040001N1+01841+01811101041ADDAA106006191AY161061GF108991081051012501999999KA1999N+01651MD1710201+9999MW1601REMSYN082AAXX  03061 58820 11640 80000 10184 20181 40104 57020 60061 76060 885// 333 20165;
0137588200999992000040321004+26180+117620FM-12+019899999V0202201N002019999999N0050001N1+01391+99999101201ADDGF108991999091012501999051MD1710011+9999REMSYN066AAXX  03211 58820 41650 82202 10139 2019/ 40120 57001 76//6 809/5;EQDQ01+000002SCOTLC
0165588200999992000040406004+26180+117620FM-12+019899999V0202201N003010120019N0130001N1+01831+01491101211ADDAA199000091GF107991071051012501999999KA1999N+01361MD1710201+9999REMSYN070AAXX  04061 58820 32663 72203 10183 20149 40121 57020 875// 333 20136;EQDQ01  00002PRCP99
