0206602300999992000010100004+31620-008030SY-MT+0466GMMX V0209999C000012200019N0100001N1+01101+00691102071ADDAA106000091GF100991001001999999001001MA1102001999999MD1110071+9999MW1001REMSYN054AAXX  01004 60230 32960 00000 10110 20069 40207 51007;MET043GMMX 010000Z 00000KT CAVOK 11/07 Q1020 NSG;EQDQ01  00002PRCP06
0076602300999992000010101004+31620-008030FM-15+0466GMMX V0209999C00001220001CN0099001N1+01101+00701999999ADDMA1102001999999MW1001REMMET043GMMX 010100Z 00000KT CAVOK 11/07 Q1020 NSG;
0076602300999992000010102004+31620-008030FM-15+0466GMMX V0209999C00001220001CN0099001N1+01001+00701999999ADDMA1101901999999MW1001REMMET043GMMX 010200Z 00000KT CAVOK 10/07 Q1019 NSG;
0206602300999992000010103004+31620-008030SY-MT+0466GMMX V0209999C000012200019N0100001N1+00881+00601102061ADDAA106000091GF100991001001999999001001MA1101901999999MD1810051+9999MW1001REMSYN054AAXX  01034 60230 32960 00000 10088 20060 40206 58005;MET043GMMX 010300Z 00000KT CAVOK 09/06 Q1019 NSG;EQDQ01  00002PRCP06
0076602300999992000010104004+31620-008030FM-15+0466GMMX V0209999C00001220001CN0099001N1+00801+00601999999ADDMA1101901999999MW1001REMMET043GMMX 010400Z 00000KT CAVOK 08/06 Q1019 NSG;
0076602300999992000010105004+31620-008030FM-15+0466GMMX V0209999C00001220001CN0099001N1+00701+00501999999ADDMA1101901999999MW1001REMMET043GMMX 010500Z 00000KT CAVOK 07/05 Q1019 NSG;
0175602300999992000010106004+31620-008030FM-12+0466GMMX V0209999C000012200019N0100001N1+00681+00501102111ADDAA106000091GA1001+999999999GF100991001001999999001001KA1999N+00641MD1110011+9999REMSYN064AAXX  01064 60230 32960 00000 10068 20050 40211 51001 333 20064;EQDQ01  00002PRCP06
0078602300999992000010107004+31620-008030FM-15+0466GMMX V0209999C00001220001CN0099001N1+00601+00501999999ADDMA1102001999999MW1001REMMET045GMMX 010700Z 00000KT CAVOK 06/05 Q1020 NOSIG;
0078602300999992000010108004+31620-008030FM-15+0466GMMX V0209999C00001220001CN0099001N1+00601+00401999999ADDMA1102101999999MW1001REMMET045GMMX 010800Z 00000KT CAVOK 06/04 Q1021 NOSIG;
0208602300999992000010109004+31620-008030SY-MT+0466GMMX V0209999C000012200019N0150001N1+00701+00471102391ADDAA106000091GF100991001001999999001001MA1102201999999MD1210251+9999MW1001REMSYN054AAXX  01094 60230 32965 00000 10070 20047 40239 52025;MET045GMMX 010900Z 00000KT CAVOK 07/05 Q1022 NOSIG;EQDQ01  00002PRCP06
0078602300999992000010110004+31620-008030FM-15+0466GMMX V0209999C00001220001CN0099001N1+01401+00501999999ADDMA1102301999999MW1001REMMET045GMMX 011000Z 00000KT CAVOK 14/05 Q1023 NOSIG;
0078602300999992000010111004+31620-008030FM-15+0466GMMX V0209999C00001220001CN0099001N1+01501+00701999999ADDMA1102301999999MW1001REMMET045GMMX 011100Z 00000KT CAVOK 15/07 Q1023 NOSIG;
0208602300999992000010112004+31620-008030SY-MT+0466GMMX V0209999C000012200019N0150001N1+01801+00761102241ADDAA106000091GF100991001001999999001001MA1102201999999MD1010061+9999MW1001REMSYN054AAXX  01124 60230 32965 00000 10180 20076 40224 50006;MET045GMMX 011200Z 00000KT CAVOK 18/08 Q1022 NOSIG;EQDQ01  00002PRCP06
0078602300999992000010113004+31620-008030FM-15+0466GMMX V0209999C00001220001CN0099001N1+01901+00801999999ADDMA1102201999999MW1001REMMET045GMMX 011300Z 00000KT CAVOK 19/08 Q1022 NOSIG;
0078602300999992000010114004+31620-008030FM-15+0466GMMX V0202801N00101220001CN0099001N1+02001+00701999999ADDMA1102101999999MW1001REMMET045GMMX 011400Z 28002KT CAVOK 20/07 Q1021 NOSIG;
0208602300999992000010115004+31620-008030SY-MT+0466GMMX V0203201N001012200019N0150001N1+01971+00601101991ADDAA106000091GF100991001001999999001001MA1102001999999MD1610191+9999MW1001REMSYN054AAXX  01154 60230 32965 03202 10197 20060 40199 56019;MET045GMMX 011500Z 32002KT CAVOK 20/06 Q1020 NOSIG;EQDQ01  00002PRCP06
0078602300999992000010116004+31620-008030FM-15+0466GMMX V0203201N00101220001CN0099001N1+02001+00601999999ADDMA1102101999999MW1001REMMET045GMMX 011600Z 32002KT CAVOK 20/06 Q1021 NOSIG;
0078602300999992000010117004+31620-008030FM-15+0466GMMX V0203201N00101220001CN0099001N1+01901+00501999999ADDMA1102101999999MW1001REMMET045GMMX 011700Z 32002KT CAVOK 19/05 Q1021 NOSIG;
0231602300999992000010118004+31620-008030SY-MT+0466GMMX V0203201N001012200019N0120001N1+01801+00721102101ADDAA106000091GF100991001001999999001001KA1999M+02041MA1102101999999MD1210071+9999MW1001REMSYN064AAXX  01184 60230 32962 03202 10180 20072 40210 52007 333 10204;MET045GMMX 011800Z 32002KT CAVOK 18/07 Q1021 NOSIG;EQDQ01  00002PRCP06
0078602300999992000010119004+31620-008030FM-15+0466GMMX V0203001N00101220001CN0099001N1+01701+00801999999ADDMA1102201999999MW1001REMMET045GMMX 011900Z 30002KT CAVOK 17/08 Q1022 NOSIG;
0078602300999992000010120004+31620-008030FM-15+0466GMMX V0202801N00101220001CN0099001N1+01501+00901999999ADDMA1102201999999MW1001REMMET045GMMX 012000Z 28002KT CAVOK 15/09 Q1022 NOSIG;
0208602300999992000010121004+31620-008030SY-MT+0466GMMX V0202201N001012200019N0120001N1+01381+00841102271ADDAA106000091GF100991001001999999001001MA1102201999999MD1210091+9999MW1001REMSYN054AAXX  01214 60230 32962 02202 10138 20084 40227 52009;MET045GMMX 012100Z 22002KT CAVOK 14/08 Q1022 NOSIG;EQDQ01  00002PRCP06
0078602300999992000010122004+31620-008030FM-15+0466GMMX V0202001N00101220001CN0099001N1+01201+00801999999ADDMA1102201999999MW1001REMMET045GMMX 012200Z 20002KT CAVOK 12/08 Q1022 NOSIG;
0078602300999992000010123004+31620-008030FM-15+0466GMMX V0202001N00101220001CN0099001N1+01201+00701999999ADDMA1102201999999MW1001REMMET045GMMX 012300Z 20002KT CAVOK 12/07 Q1022 NOSIG;
0224602300999992000010200004+31620-008030SY-MT+0466GMMX V0201801N001012200019N0100001N1+01091+00711102311ADDAA106000091GF100991001001999999001001MA1102201999999MD1610031+9999MW1001REMSYN054AAXX  02004 60230 32960 01802 10109 20071 40231 56003;MET045GMMX 020000Z 18002KT CAVOK 11/07 Q1022 NOSIG;EQDQ01+000000PRSWM2Q02  00002PRCP06
0097602300999992000010200304+31620-008030FM-15+0466GMMX V0209999C00001220001CN0099001N1+01101+00701999999ADDMA1102201999999MW1001REMMET045GMMX 020130Z 00000KT CAVOK 11/07 Q1022 NOSIG;EQDQ01+000000PRSWM2
0097602300999992000010202004+31620-008030FM-15+0466GMMX V0209999C00001220001CN0099001N1+00901+00601999999ADDMA1102201999999MW1001REMMET045GMMX 020200Z 00000KT CAVOK 09/06 Q1022 NOSIG;EQDQ01+000000PRSWM2
0224602300999992000010203004+31620-008030SY-MT+0466GMMX V0209999C000012200019N0100001N1+00821+00601102401ADDAA106000091GF100991001001999999001001MA1102201999999MD1310021+9999MW1001REMSYN054AAXX  02034 60230 32960 00000 10082 20060 40240 53002;MET045GMMX 020300Z 00000KT CAVOK 08/06 Q1022 NOSIG;EQDQ01+000000PRSWM2Q02  00002PRCP06
0097602300999992000010204004+31620-008030FM-15+0466GMMX V0209999C00001220001CN0099001N1+00801+00601999999ADDMA1102301999999MW1001REMMET045GMMX 020400Z 00000KT CAVOK 08/06 Q1023 NOSIG;EQDQ01+000000PRSWM2
0097602300999992000010205004+31620-008030FM-15+0466GMMX V0209999C00001220001CN0099001N1+00801+00501999999ADDMA1102201999999MW1001REMMET045GMMX 020500Z 00000KT CAVOK 08/05 Q1022 NOSIG;EQDQ01+000000PRSWM2
0247602300999992000010206004+31620-008030SY-MT+0466GMMX V0202001N001012200019N0100001N1+00801+00581102421ADDAA106000091GF100991001001999999001001KA1999N+00661MA1102201999999MD1010021+9999MW1001REMSYN064AAXX  02064 60230 32960 02002 10080 20058 40242 50002 333 20066;MET045GMMX 020600Z 20002KT CAVOK 08/06 Q1022 NOSIG;EQDQ01+000000PRSWM2Q02  00002PRCP06
0097602300999992000010207004+31620-008030FM-15+0466GMMX V0209999C00001220001CN0099001N1+00801+00601999999ADDMA1102301999999MW1001REMMET045GMMX 020700Z 00000KT CAVOK 08/06 Q1023 NOSIG;EQDQ01+000000PRSWM2
0097602300999992000010208004+31620-008030FM-15+0466GMMX V0209999C00001220001CN0099001N1+00701+00401999999ADDMA1102301999999MW1001REMMET045GMMX 020800Z 00000KT CAVOK 07/04 Q1023 NOSIG;EQDQ01+000000PRSWM2
0222602300999992000010209004+31620-008030SY-MT+0466GMMX V0209999C000012200019N0100001N1+00901+00471102591ADDAA106000091GF100991001001999999001001MA1102401999999MD1210201+9999MW1001REMSYN054AAXX  02094 60230 32960 00000 10090 20047 40259 52020;MET043GMMX 020900Z 00000KT CAVOK 09/05 Q1024 NSG;EQDQ01+000000PRSWM2Q02  00002PRCP06
0095602300999992000010210004+31620-008030FM-15+0466GMMX V0209999C00001220001CN0099001N1+01201+00701999999ADDMA1102511999999MW1001REMMET043GMMX 021000Z 00000KT CAVOK 12/07 Q1025 NSG;EQDQ01+000000PRSWM2
0097602300999992000010211004+31620-008030FM-15+0466GMMX V0203001N00101220001CN0099001N1+01501+00901999999ADDMA1102611999999MW1001REMMET045GMMX 021100Z 30002KT CAVOK 15/09 Q1026 NOSIG;EQDQ01+000000PRSWM2
0222602300999992000010212004+31620-008030SY-MT+0466GMMX V0203401N002112200019N0100001N1+01551+00771102551ADDAA106000091GF100991001001999999001001MA1102511999999MD1010081+9999MW1001REMSYN054AAXX  02124 60230 32960 03404 10155 20077 40255 50008;MET043GMMX 021200Z 34004KT CAVOK 16/08 Q1025 NSG;EQDQ01+000000PRSWM2Q02  00002PRCP06
0097602300999992000010212304+31620-008030FM-15+0466GMMX V0202801N00411220001CN0099001N1+01701+00801999999ADDMA1102511999999MW1001REMMET045GMMX 021330Z 28008KT CAVOK 17/08 Q1025 NOSIG;EQDQ01+000000PRSWM2
0145602300999992000010214004+31620-008030FM-15+0466GMMX V0203001N003112200019N0112651N1+01701+00601999999ADDGA1021+006909999GF102991999999999999999999MA1102401999999MW1001REMMET051GMMX 021400Z 30006KT 9999 FEW023 17/06 Q1024 NOSIG;EQDQ01+000000PRSWM2
0278602300999992000010215004+31620-008030SY-MT+0466GMMX V0203001N004112200019N0100001N1+01781+00711102361ADDAA106000091GA1021+006909999GF199999011011008001001001MA1102401999999MD1610141+9999MW1001REMSYN070AAXX  02154 60230 32560 13008 10178 20071 40236 56014 81100 333 81823;MET051GMMX 021500Z 30008KT 9999 FEW023 18/07 Q1024 NOSIG;EQDQ01+000012SCOTCVQ02+000000PRSWM2Q03  00002PRCP06
0145602300999992000010216004+31620-008030FM-15+0466GMMX V0203001N003112200019N0112651N1+01701+00701999999ADDGA1021+006909999GF102991999999999999999999MA1102401999999MW1001REMMET051GMMX 021600Z 30006KT 9999 FEW023 17/07 Q1024 NOSIG;EQDQ01+000000PRSWM2
0145602300999992000010217004+31620-008030FM-15+0466GMMX V0202801N002112200019N0112651N1+01701+00801999999ADDGA1021+007809999GF102991999999999999999999MA1102401999999MW1001REMMET051GMMX 021700Z 28004KT 9999 FEW026 17/08 Q1024 NOSIG;EQDQ01+000000PRSWM2
0266602300999992000010218004+31620-008030SY-MT+0466GMMX V0203001N001012200019N0100001N1+01601+00841102441ADDAA106000091GA1021+007809999GF102991021051008001001001KA1120M+02001MD1310041+9999MW1001REMSYN076AAXX  02184 60230 32560 23002 10160 20084 40244 53004 82500 333 10200 82626;MET051GMMX 021800Z 30002KT 9999 FEW026 16/08 Q0124 NOSIG;EQDQ01+000000PRSWM2Q02  00002PRCP06
0097602300999992000010219004+31620-008030FM-15+0466GMMX V0203401N00101220001CN0099001N1+01401+01001999999ADDMA1102401999999MW1001REMMET045GMMX 021900Z 34002KT CAVOK 14/10 Q1024 NOSIG;EQDQ01+000000PRSWM2
0097602300999992000010220004+31620-008030FM-15+0466GMMX V0203401N00101220001CN0099001N1+01301+00901999999ADDMA1102511999999MW1001REMMET045GMMX 022000Z 34002KT CAVOK 13/09 Q1025 NOSIG;EQDQ01+000000PRSWM2
0224602300999992000010221004+31620-008030SY-MT+0466GMMX V0209999C000012200019N0100001N1+01151+00911102601ADDAA106000091GF100991001001999999001001MA1102511999999MD1210091+9999MW1001REMSYN054AAXX  02214 60230 32960 00000 10115 20091 40260 52009;MET045GMMX 022100Z 00000KT CAVOK 12/09 Q1025 NOSIG;EQDQ01+000000PRSWM2Q02  00002PRCP06
0097602300999992000010222004+31620-008030FM-15+0466GMMX V0209999C00001220001CN0099001N1+01101+00901999999ADDMA1102511999999MW1001REMMET045GMMX 022200Z 00000KT CAVOK 11/09 Q1025 NOSIG;EQDQ01+000000PRSWM2
0145602300999992000010223004+31620-008030FM-15+0466GMMX V0202801N001012200019N0080001N1+01001+00901999999ADDGA1021+003009999GF104991999999999999999999MA1102511999999MW1001REMMET051GMMX 022300Z 28002KT 8000 SCT010 10/09 Q1025 NOSIG;EQDQ01+000000PRSWM2
0307602300999992000010300004+31620-008030SY-MT+0466GMMX V0209999C000010060019N0080001N1+01141+00971102621ADDAA106000091GA1021+003009999GA2071+006009999GF199999061051004501001001MA1102511999999MD1110021+9999MW1001REMSYN076AAXX  03004 60230 32458 60000 10114 20097 40262 51002 86500 333 83710 85620;MET058GMMX 030000Z 00000KT 8000 SCT010 BKN020 11/10 Q1025 NOSIG;EQDQ01+000062SCOTCVQ02+000000PRSWM2Q03  00002PRCP06
0168602300999992000010301004+31620-008030FM-15+0466GMMX V0209999C000010060019N0080001N1+01101+00901999999ADDGA1021+003009999GA2071+006009999GF107991999999999999999999MA1102511999999MW1001REMMET058GMMX 030100Z 00000KT 8000 FEW010 BKN020 11/09 Q1025 NOSIG;EQDQ01+000000PRSWM2
0096602300999992000010302004+31620-008030FM-15+0466GMMX V0209999C000012200019N0080001N1+99999+99999999999ADDMW1001REMMET059GMMX 030200Z 00000KT 80000 FEW010 BKN020 10/09 Q1025 NOSIG;EQDQ01+000000PRSWM2
0262602300999992000010303004+31620-008030SY-MT+0466GMMX V0209999C000010060019N0080001N1+01101+00921102581ADDAA106000091GA1071+006009999GF107991071051008001999999MA1102401999999MD1610061+9999MW1001REMSYN070AAXX  03034 60230 32558 70000 10110 20092 40258 56006 875// 333 87620;MET051GMMX 030300Z 00000KT 8000 BKN020 11/09 Q1024 NOSIG;EQDQ01+000000PRSWM2Q02  00002PRCP06
0145602300999992000010303304+31620-008030FM-15+0466GMMX V0209999C000010060019N0080001N1+01101+00901999999ADDGA1071+006009999GF107991999999999999999999MA1102401999999MW1001REMMET051GMMX 030430Z 00000KT 8000 BKN020 11/09 Q1024 NOSIG;EQDQ01+000000PRSWM2
0145602300999992000010305004+31620-008030FM-15+0466GMMX V0209999C000010060019N0080001N1+01001+00901999999ADDGA1071+006009999GF107991999999999999999999MA1102401999999MW1001REMMET051GMMX 030500Z 00000KT 8000 BKN020 10/09 Q1024 NOSIG;EQDQ01+000000PRSWM2
0281602300999992000010306004+31620-008030SY-MT+0466GMMX V0209999C000012200019N0080001N1+00901+00801102531ADDAA106000091GA1021+006009999GF103991031051008001001001KA1120N+00861MA1102401999999MD1610081+9999MW1001REMSYN076AAXX  03064 60230 32558 30000 10090 20080 40253 56008 83500 333 20086 83620;MET051GMMX 030600Z 00000KT 8000 SCT020 09/08 Q1024 NOSIG;EQDQ01+000000PRSWM2Q02  00002PRCP06
0145602300999992000010307004+31620-008030FM-15+0466GMMX V0209999C000012200019N0080001N1+00901+00801999999ADDGA1021+006009999GF104991999999999999999999MA1102511999999MW1001REMMET051GMMX 030700Z 00000KT 8000 SCT020 09/08 Q1025 NOSIC;EQDQ01+000000PRSWM2
0145602300999992000010308004+31620-008030FM-15+0466GMMX V0209999C000012200019N0050001N1+00901+00701999999ADDGA1021+006009999GF104991999999999999999999MA1102511999999MW1001REMMET051GMMX 030800Z 00000KT 5000 SCT020 09/07 Q1025 NOSIG;EQDQ01+000000PRSWM2
0307602300999992000010309004+31620-008030SY-MT+0466GMMX V0209999C000010060019N0050001N1+00851+00641999999ADDAA106000091GA1021+003909999GA2071+006009999GF199999061051004501041001MA1102611999999MD1110201+9999MW1001REMSYN076AAXX  03094 60230 32450 60000 10085 20064 40927 51020 86540 333 83713 85620;MET058GMMX 030900Z 00000KT 5000 SCT013 BKN020 09/06 Q1026 NOSIG;EQDQ01+000062SCOTCVQ02+000000PRSWM2Q03  00002PRCP06
0158602300999992000010310004+31620-008030FM-15+0466GMMX V0209999C00001220001CN0050001N1+01001+00901999999ADDGA1071+003909999GA2021+006009999MA1102611999999MW1001REMMET058GMMX 031000Z 00000KT 5000 BKN013 SCT020 10/09 Q1026 NOSIG;EQDQ01+000042SCOTCVQ02+000000PRSWM2
0158602300999992000010311004+31620-008030FM-15+0466GMMX V0201001N00101220001CN0050001N1+01201+01001999999ADDGA1071+003909999GA2021+006009999MA1102711999999MW1001REMMET058GMMX 031100Z 10002KT 5000 BKN013 SCT020 12/10 Q1027 NOSIG;EQDQ01+000042SCOTCVQ02+000000PRSWM2
0308602300999992000010312004+31620-008030SY-MT+0466GMMX V0203001N00211004201CN0030001N1+01301+00921102691ADDAA106000091AY121061GA1021+003909999GA2021+006009999GF106991061061004501001001MA1102611999999MD1010041+9999MW1101REMSYN082AAXX  03124 60230 31430 63004 10130 20092 40269 50004 7102/ 86600 333 84713 83620;MET061GMMX 031200Z 30004KT 3000 BR SCT013 SCT020 13/09 Q1026 NOSIG;EQDQ01  00002PRCP06Q02    003PRSWM1
0086602300999992000010312354+31620-008030FM-16+0466GMMX V02099999999992200019N0025001N1+99999+99999999999ADDMW1001REMMET049GMMX 031235 Z 00000KT 5000 SCT013 13/10 Q1025 B2;EQDQ01+000000PRSWM2
0145602300999992000010313004+31620-008030FM-15+0466GMMX V0209999C000012200019N0050001N1+01301+01001999999ADDGA1021+003909999GF104991999999999999999999MA1102511999999MW1001REMMET051GMMX 031300Z 00000KT 5000 SCT013 13/10 Q1025 NOSIG;EQDQ01+000000PRSWM2
0145602300999992000010314004+31620-008030FM-15+0466GMMX V0203001N002112200019N0060001N1+01401+01001999999ADDGA1021+004809999GF102991999999999999999999MA1102401999999MW1001REMMET051GMMX 031400Z 30004KT 6000 FEW016 14/10 Q1024 NOSIG;EQDQ01+000000PRSWM2
0278602300999992000010315004+31620-008030SY-MT+0466GMMX V0203001N002112200019N9999999N1+01501+00861102421ADDAA106000091GA1021+004809999GF103991031011004501001001MA1102401999999MD1610231+9999MW1001REMSYN070AAXX  03154 60230 32456 33004 10150 20086 40242 56023 83100 333 83816;MET051GMMX 031500Z 30004KT 6000 SCT016 15/09 Q1024 NOSIG;EQDQ01+060002VODIS Q02+000000PRSWM2Q03  00002PRCP06
0161602300999992000010316004+31620-008030FM-15+0466GMMX V0203201N002112200019N9999999N1+01501+00901999999ADDGA1021+004809999GF104991999999999999999999MA1102401999999MW1001REMMET051GMMX 031600Z 32004KT 6000 SCT016 15/09 Q1024 NOSIG;EQDQ01+060002VODIS Q02+000000PRSWM2
0161602300999992000010317004+31620-008030FM-15+0466GMMX V0203001N002112200019N9999999N1+01501+00801999999ADDGA1021+004809999GF104991999999999999999999MA1102401999999MW1001REMMET051GMMX 031700Z 30004KT 6000 SCT016 15/08 Q1024 NOSIG;EQDQ01+060002VODIS Q02+000000PRSWM2
0277602300999992000010318004+31620-008030SY-MT+0466GMMX V0203201N001012200019N0070001N1+01401+00811102411ADDAA106000091GA1021+004809999GF103991031021004501001001KA1120M+01551MA1102401999999MD1810011+9999MW1001REMSYN076AAXX  03184 60230 32457 33202 10140 20081 40241 58001 83200 333 10155 83816;MET047GMMX 1800Z 32002KT 7000 SCT016 14/08 Q1024 NSG;EQDQ01+000000PRSWM2Q02  00002PRCP06
0143602300999992000010319004+31620-008030FM-15+0466GMMX V0209999C000012200019N0080001N1+01301+00801999999ADDGA1021+004809999GF104991999999999999999999MA1102401999999MW1001REMMET049GMMX 031900Z 00000KT 8000 SCT016 13/08 Q1024 NSG;EQDQ01+000000PRSWM2
0143602300999992000010320004+31620-008030FM-15+0466GMMX V0203401N001010048019N0080001N1+01301+00801999999ADDGA1071+004809999GF107991999999999999999999MA1102401999999MW1001REMMET049GMMX 032000Z 34002KT 8000 BKN016 13/08 Q1024 NSG;EQDQ01+000000PRSWM2
0278602300999992000010321004+31620-008030SY-MT+0466GMMX V0200801N002110048019N0080001N1+01301+00811102501ADDAA106000091GA1071+004809999GF199999061021008001001001MA1102401999999MD1310061+9999MW1001REMSYN070AAXX  03214 60230 32558 60804 10130 20081 40250 53006 86200 333 86816;MET051GMMX 032100Z 08004KT 8000 BKN016 13/08 Q1024 NOSIG;EQDQ01+000062SCOTCVQ02+000000PRSWM2Q03  00002PRCP06
0145602300999992000010322004+31620-008030FM-15+0466GMMX V0200801N002110048019N0080001N1+01201+00901999999ADDGA1071+004809999GF107991999999999999999999MA1102401999999MW1001REMMET051GMMX 032200Z 08004KT 8000 BKN016 12/09 Q1024 NOSIG;EQDQ01+000000PRSWM2
0145602300999992000010323004+31620-008030FM-15+0466GMMX V0209999C000010060019N0080001N1+01201+00901999999ADDGA1071+006009999GF107991999999999999999999MA1102401999999MW1001REMMET051GMMX 032300Z 00000KT 8000 BKN020 12/09 Q1024 NOSIG;EQDQ01+000000PRSWM2
0262602300999992000010400004+31620-008030SY-MT+0466GMMX V0209999C000010060019N0080001N1+01221+00831102521ADDAA106000091GA1071+006009999GF107991071051008001999999MA1102401999999MD1410001+9999MW1001REMSYN070AAXX  04004 60230 32558 70000 10122 20083 40252 54000 875// 333 87620;MET051GMMX 040000Z 00000KT 8000 BKN020 12/08 Q1024 NOSIG;EQDQ01+000000PRSWM2Q02  00002PRCP06
0145602300999992000010401004+31620-008030FM-15+0466GMMX V0209999C000010060019N0080001N1+01201+00801999999ADDGA1071+006009999GF107991999999999999999999MA1102401999999MW1001REMMET051GMMX 040100Z 00000KT 8000 BKN020 12/08 Q1024 NOSIG;EQDQ01+000000PRSWM2
0145602300999992000010402004+31620-008030FM-15+0466GMMX V0209999C000010060019N0080001N1+01201+00801999999ADDGA1071+006009999GF107991999999999999999999MA1102401999999MW1001REMMET051GMMX 040200Z 00000KT 8000 BKN020 12/08 Q1024 NOSIG;EQDQ01+000000PRSWM2
0262602300999992000010403004+31620-008030SY-MT+0466GMMX V0209999C000010060019N0080001N1+01141+00861102441ADDAA106000091GA1071+006009999GF107991071051008001999999MA1102401999999MD1810081+9999MW1001REMSYN070AAXX  04034 60230 32558 70000 10114 20086 40244 58008 875// 333 87620;MET051GMMX 040300Z 00000KT 8000 BKN020 11/09 Q1024 NOSIG;EQDQ01+000000PRSWM2Q02  00002PRCP06
0145602300999992000010404004+31620-008030FM-15+0466GMMX V0200601N001010060019N0080001N1+01101+00901999999ADDGA1071+006009999GF107991999999999999999999MA1102401999999MW1001REMMET051GMMX 040400Z 06002KT 8000 BKN020 11/09 Q1024 NOSIG;EQDQ01+000000PRSWM2
0145602300999992000010405004+31620-008030FM-15+0466GMMX V0202601N001010060019N0080001N1+01101+00901999999ADDGA1071+006009999GF107991999999999999999999MA1102301999999MW1001REMMET051GMMX 040500Z 26002KT 8000 BKN020 11/09 Q1023 NOSIG;EQDQ01+000000PRSWM2
0281602300999992000010406004+31620-008030SY-MT+0466GMMX V0209999C000010060019N0080001N1+01021+00891102491ADDAA106000091GA1071+006009999GF107991071051008001999999KA1120N+01021MA1102301999999MD1710011+9999MW1001REMSYN076AAXX  04064 60230 32558 70000 10102 20089 40249 57001 875// 333 20102 87620;MET051GMMX 040600Z 00000KT 8000 BKN020 10/09 Q1023 NOSIG;EQDQ01+000000PRSWM2Q02  00002PRCP06
0145602300999992000010407004+31620-008030FM-15+0466GMMX V0209999C000010060019N0080001N1+01001+00801999999ADDGA1071+006009999GF107991999999999999999999MA1102401999999MW1001REMMET051GMMX 040700Z 00000KT 8000 BKN020 10/08 Q1024 NOSIG;EQDQ01+000000PRSWM2
0145602300999992000010408004+31620-008030FM-15+0466GMMX V0209999C000010060019N0080001N1+01001+00701999999ADDGA1071+006009999GF107991999999999999999999MA1102401999999MW1001REMMET051GMMX 040800Z 00000KT 8000 BKN020 10/07 Q1024 NOSIG;EQDQ01+000000PRSWM2
0262602300999992000010409004+31620-008030SY-MT+0466GMMX V0209999C000010060019N0080001N1+01001+00931102651ADDAA106000091GA1071+006009999GF107991071051008001999999MA1102511999999MD1110151+9999MW1001REMSYN070AAXX  04094 60230 32558 70000 1010/ 20093 40265 51015 875// 333 87620;MET051GMMX 040900Z 00000KT 8000 BKN020 10/09 Q1025 NOSIG;EQDQ01+000000PRSWM2Q02  00002PRCP06
0145602300999992000010410004+31620-008030FM-15+0466GMMX V0202801N001010060019N0080001N1+01101+00901999999ADDGA1071+006009999GF107991999999999999999999MA1102611999999MW1001REMMET051GMMX 041000Z 28002KT 8000 BKN020 11/09 Q1026 NOSIG;EQDQ01+000000PRSWM2
0145602300999992000010411004+31620-008030FM-15+0466GMMX V0209999C000010060019N0060001N1+01301+00901999999ADDGA1071+006009999GF107991999999999999999999MA1102611999999MW1001REMMET051GMMX 041100Z 00000KT 6000 BKN020 13/09 Q1026 NOSIG;EQDQ01+000000PRSWM2
0246602300999992000010412004+31620-008030SY-MT+0466GMMX V0209999C00001007501CN0050001N1+01401+00861102611ADDAA106000091GF105991051051008001001001MA1102611999999MD1010051+9999MW1001REMSYN070AAXX  04124 60230 32550 50000 10140 20086 40261 50005 85500 333 85620;MET051GMMX 041200Z 00000KT 5000 BKN020 14/09 Q1026 NOSIG;EQDQ01+000000PRSWM2Q02  00002PRCP06
0145602300999992000010413004+31620-008030FM-15+0466GMMX V0203001N002110060019N0060001N1+01401+00901999999ADDGA1071+006009999GF107991999999999999999999MA1102511999999MW1001REMMET051GMMX 041300Z 30004KT 6000 BKN020 14/09 Q1025 NOSIG;EQDQ01+000000PRSWM2
0161602300999992000010414004+31620-008030FM-15+0466GMMX V0209999C000010060019N9999999N1+01501+00901999999ADDGA1071+006009999GF107991999999999999999999MA1102401999999MW1001REMMET051GMMX 041400Z 00000KT 6000 BKN020 15/09 Q1024 NOSIG;EQDQ01+060002VODIS Q02+000000PRSWM2
0256602300999992000010415004+31620-008030SY-MT+0466GMMX V0209999C000010060019N0080001N1+01501+00751102371ADDAA106000091GA1071+006009029GF107991071021008001999999MA1102301999999MD1710211+9999MW1001REMSYN070AAXX  04154 60230 32558 70000 10150 20075 40237 57021 872// 333 87820;MET045GMMX 041500Z 00000KT CAVOK 15/08 Q1023 NOSIG;EQDQ01+000000PRSWM2Q02  00002PRCP06
0112602300999992000010416004+31620-008030FM-15+0466GMMX V0209999C000012200019N9999999N1+01501+00701999999ADDMA1102301999999MW1001REMMET044GMMX 041600Z 00000KT 6000 15/07 Q1023 NOSIG;EQDQ01+060002VODIS Q02+000000PRSWM2
0163602300999992000010417004+31620-008030FM-15+0466GMMX V0209999C000010078019N9999999N1+01501+00001999999ADDGA1071+007809999GF107991999999999999999999MA1102301999999MW1001REMMET053GMMX 041700Z 00000KT C 6000 BKN026 15/00 Q1023 NOSIG;EQDQ01+018002VODIS Q02+000000PRSWM2
0297602300999992000010418004+31620-008030SY-MT+0466GMMX V0202801N001010078019N9999999N1+01431+00641102381ADDAA106000091GA1071+007809999GF107991071021008001999999KA1120M+01521MA1102301999999MD1410001+9999MW1001REMSYN076AAXX  04184 60230 32556 72802 10143 20064 40238 54000 872// 333 10152 87826;MET051GMMX 041800Z 28002KT 6000 BKN026 14/06 Q1023 NOSIG;EQDQ01+060002VODIS Q02+000000PRSWM2Q03  00002PRCP06
0161602300999992000010419004+31620-008030FM-15+0466GMMX V0209999C000010069019N9999999N1+01401+00701999999ADDGA1071+006909999GF107991999999999999999999MA1102301999999MW1001REMMET051GMMX 041900Z 00000KT 6000 BKN023 14/07 Q1023 NOSIG;EQDQ01+060002VODIS Q02+000000PRSWM2
0161602300999992000010419304+31620-008030FM-15+0466GMMX V0209999C000010069019N9999999N1+01401+00801999999ADDGA1071+006909999GF107991999999999999999999MA1102301999999MW1001REMMET051GMMX 042030Z 00000KT 6000 BKN023 14/08 Q1023 NOSIG;EQDQ01+060002VODIS Q02+000000PRSWM2
0278602300999992000010421004+31620-008030SY-MT+0466GMMX V0209999C000010069019N0080001N1+01251+00681102461ADDAA106000091GA1071+006909999GF199999051021008001001001MA1102401999999MD1310061+9999MW1001REMSYN070AAXX  04214 60230 32558 50000 10125 20068 40246 53006 85200 333 85823;MET051GMMX 042100Z 00000KT 8000 BKN023 13/07 Q1024 NOSIG;EQDQ01+000052SCOTCVQ02+000000PRSWM2Q03  00002PRCP06
0145602300999992000010422004+31620-008030FM-15+0466GMMX V0209999C000012200019N0080001N1+01101+00701999999ADDGA1021+006909999GF104991999999999999999999MA1102401999999MW1001REMMET051GMMX 042200Z 00000KT 8000 SCT023 11/07 Q1024 NOSIG;EQDQ01+000000PRSWM2
0144602300999992000010423004+31620-008030FM-15+0466GMMX V0209999C000012200019N0080001N1+01001+00701999999ADDGA1021+006909999GF104991999999999999999999MA1102401999999MW1001REMMET050GMMX 042300Z 00000KT 8000 SCT23 10/07 Q1024 NOSIG;EQDQ01+000000PRSWM2
0278602300999992000010500004+31620-008030SY-MT+0466GMMX V0209999C000012200019N0080001N1+00971+00671102541ADDAA106000091GA1021+006909999GF103991999051008001001001MA1102401999999MD1410001+9999MW1001REMSYN070AAXX  05004 60230 32558 30000 10097 20067 40254 54000 82500 333 83623;MET051GMMX 050000Z 00000KT 8000 SCT023 10/07 Q1024 NOSIG;EQDQ01+000022SCOTLCQ02+000000PRSWM2Q03  00002PRCP06
0145602300999992000010501004+31620-008030FM-15+0466GMMX V0209999C000012200019N0080001N1+00901+00701999999ADDGA1021+006909999GF104991999999999999999999MA1102301999999MW1001REMMET051GMMX 050100Z 00000KT 8000 SCT023 09/07 Q1023 NOSIG;EQDQ01+000000PRSWM2
0095602300999992000010502004+31620-008030FM-15+0466GMMX V0209999C000012200019N0080001N1+99999+99999999999ADDMW1001MW2311REMMET052GMMX 050200Z 00000KT 8000 SSCT023 08/06 Q1023 NOSIG;EQDQ01+000003PRSWM1
0262602300999992000010503004+31620-008030SY-MT+0466GMMX V0209999C000012200019N0080001N1+00931+00651102461ADDAA106000091GA1021+006909999GF104991041051008001001001MA1102301999999MD1610091+9999MW1001REMSYN070AAXX  05034 60230 32558 40000 10093 20065 40246 56009 84500 333 84623;MET051GMMX 050300Z 00000KT 8000 SCT023 09/07 Q1023 NOSIG;EQDQ01+000000PRSWM2Q02  00002PRCP06
0145602300999992000010504004+31620-008030FM-15+0466GMMX V0209999C000012200019N0080001N1+00801+00601999999ADDGA1021+006909999GF104991999999999999999999MA1102301999999MW1001REMMET051GMMX 050400Z 00000KT 8000 SCT023 08/06 Q1023 NOSIG;EQDQ01+000000PRSWM2
0145602300999992000010505004+31620-008030FM-15+0466GMMX V0209999C000012200019N0080001N1+00701+00501999999ADDGA1021+006909999GF104991999999999999999999MA1102301999999MW1001REMMET051GMMX 050500Z 00000KT 8000 SCT023 07/05 Q1023 NOSIG;EQDQ01+000000PRSWM2
0281602300999992000010506004+31620-008030SY-MT+0466GMMX V0209999C000012200019N0080001N1+00741+00541102471ADDAA106000091GA1021+006909999GF103991031051008001001001KA1120N+00741MA1102301999999MD1810031+9999MW1001REMSYN076AAXX  05064 60230 32558 30000 10074 20054 40247 58003 83500 333 20074 83623;MET051GMMX 050600Z 00000KT 8000 SCT023 07/05 Q1023 NOSIG;EQDQ01+000000PRSWM2Q02  00002PRCP06
0145602300999992000010507004+31620-008030FM-15+0466GMMX V0209999C000012200019N0080001N1+00701+00501999999ADDGA1021+006909999GF104991999999999999999999MA1102301999999MW1001REMMET051GMMX 050700Z 00000KT 8000 SCT023 07/05 Q1023 NOSIG;EQDQ01+000000PRSWM2
0145602300999992000010508004+31620-008030FM-15+0466GMMX V0201101N002112200019N0060001N1+00701+00501999999ADDGA1021+006909999GF104991999999999999999999MA1102301999999MW1001REMMET051GMMX 050800Z 11004KT 6000 SCT023 07/05 Q1023 NOSIG;EQDQ01+000000PRSWM2
0262602300999992000010509004+31620-008030SY-MT+0466GMMX V0200801N001012200019N0060001N1+00801+00471102551ADDAA106000091GA1021+006909999GF103991031051008001001001MA1102511999999MD1310121+9999MW1001REMSYN070AAXX  05094 60230 32556 30802 10080 20047 40255 53012 83500 333 83623;MET051GMMX 050900Z 08002KT 6000 SCT023 08/05 Q1025 NOSIG;EQDQ01+000000PRSWM2Q02  00002PRCP06
0139602300999992000010510004+31620-008030FM-15+0466GMMX V0209999C000012200019N0060001N1+01101+00601999999ADDGA1021+006909999GF102991999999999999999999MA1102511999999MW1001REMMET045GMMX 051000Z 00000KT 6000 FEW023 11/06 Q1025;EQDQ01+000000PRSWM2
0145602300999992000010511004+31620-008030FM-15+0466GMMX V0209999C000012200019N0080001N1+01301+00701999999ADDGA1021+006909999GF102991999999999999999999MA1102511999999MW1001REMMET051GMMX 051100Z 00000KT 8000 FEW023 13/07 Q1025 NOSIG;EQDQ01+000000PRSWM2
0184602300999992000010512004+31620-008030FM-12+0466GMMX V0209999C000012200019N0080001N1+01421+00681999999ADDAA106000091GA1021+006909029GF102991021021008001001001MD1010031+9999REMSYN070AAXX  05124 60230 32558 20000 10142 20068 40099 50003 82200 333 82823;EQDQ01+100993APOSLPQ02  00002PRCP06
0145602300999992000010513004+31620-008030FM-15+0466GMMX V0203201N003112200019N0080001N1+01401+00701999999ADDGA1021+006909999GF104991999999999999999999MA1102301999999MW1001REMMET051GMMX 051300Z 32006KT 8000 SCT023 14/07 Q1023 NOSIG;EQDQ01+000000PRSWM2
0143602300999992000010514004+31620-008030FM-15+0466GMMX V0203201N002112200019N0112651N1+01601+00401999999ADDGA1021+006909999GF104991999999999999999999MA1102201999999MW1001REMMET049GMMX 051400Z 32004KT 9999 SCT023 16/04 Q1022 NSG;EQDQ01+000000PRSWM2
0260602300999992000010515004+31620-008030SY-MT+0466GMMX V0203001N001012200019N0100001N1+01551+00331102201ADDAA106000091GA1021+006909999GF104991041021008001001001MA1102201999999MD1710221+9999MW1001REMSYN070AAXX  05154 60230 32560 43002 10155 20033 40220 57022 84200 333 84823;MET049GMMX 051500Z 30002KT 9999 SCT023 16/03 Q1022 NSG;EQDQ01+000000PRSWM2Q02  00002PRCP06
0143602300999992000010516004+31620-008030FM-15+0466GMMX V0203401N002110069019N0112651N1+01601+00401999999ADDGA1071+006909999GF107991999999999999999999MA1102101999999MW1001REMMET049GMMX 051600Z 34004KT 9999 BKN023 16/04 Q1021 NSG;EQDQ01+000000PRSWM2
0143602300999992000010517004+31620-008030FM-15+0466GMMX V0203401N002110069019N0112651N1+01501+00301999999ADDGA1071+006909999GF107991999999999999999999MA1102201999999MW1001REMMET049GMMX 051700Z 34004KT 9999 BKN023 15/03 Q1022 NSG;EQDQ01+000000PRSWM2
0295602300999992000010518004+31620-008030SY-MT+0466GMMX V0203401N002110069019N0100001N1+01451+00371102211ADDAA106000091GA1071+006909999GF199999061021004501001001KA1120M+01601MA1102201999999MD1510001+9999MW1001REMSYN076AAXX  05184 60230 32460 63404 10145 20037 40221 55000 86200 333 10160 86823;MET049GMMX 051800Z 34004KT 9999 BKN023 15/04 Q1022 NSG;EQDQ01+000062SCOTCVQ02+000000PRSWM2Q03  00002PRCP06
0143602300999992000010519004+31620-008030FM-15+0466GMMX V0203201N001010069019N0112651N1+01401+00401999999ADDGA1071+006909999GF107991999999999999999999MA1102201999999MW1001REMMET049GMMX 051900Z 32002KT 9999 BKN023 14/04 Q1022 NSG;EQDQ01+000000PRSWM2
0258602300999992000010521004+31620-008030SY-MT+0466GMMX V0202801N001010069019N0100001N1+01281+00521102201ADDAA106000091GA1071+006909999GF199999061021008001001001MA1102201999999MW1001REMSYN064AAXX  05214 60230 32560 62802 10128 20052 40220 86200 333 86823;MET051GMMX 052100Z 28002KT 9999 BKN023 13/05 Q1022 NOSIG;EQDQ01+000062SCOTCVQ02+000000PRSWM2Q03  00002PRCP06
0145602300999992000010522004+31620-008030FM-15+0466GMMX V0202401N002110069019N0112651N1+01201+00501999999ADDGA1071+006909999GF107991999999999999999999MA1102201999999MW1001REMMET051GMMX 052200Z 24004KT 9999 BKN023 12/05 Q1022 NOSIG;EQDQ01+000000PRSWM2
0145602300999992000010601004+31620-008030FM-15+0466GMMX V0209999C000012200019N0080001N1+00901+00501999999ADDGA1021+006909999GF104991999999999999999999MA1102101999999MW1001REMMET051GMMX 060100Z 00000KT 8000 SCT023 09/05 Q1021 NOSIG;EQDQ01+000000PRSWM2
0145602300999992000010601304+31620-008030FM-15+0466GMMX V0209999C000012200019N0080001N1+00901+00601999999ADDGA1021+006909999GF104991999999999999999999MA1102001999999MW1001REMMET051GMMX 060230Z 00000KT 8000 SCT023 09/06 Q1020 NOSIG;EQDQ01+000000PRSWM2
0258602300999992000010603004+31620-008030SY-MT+0466GMMX V0209999C000012200019N0080001N1+00841+00541102101ADDAA106000091GA1021+006909999GF102991999051008001001001MA1101901999999MW1001REMSYN064AAXX  06034 60230 32558 20000 10084 20054 40210 84500 333 82623;MET051GMMX 060300Z 00000KT 8000 FEW023 08/05 Q1019 NOSIG;EQDQ01+000042SCOTLCQ02+000000PRSWM2Q03  00002PRCP06
0145602300999992000010604004+31620-008030FM-15+0466GMMX V0209999C000012200019N0080001N1+00801+00501999999ADDGA1021+006909999GF102991999999999999999999MA1101901999999MW1001REMMET051GMMX 060400Z 00000KT 8000 FEW023 08/05 Q1019 NOSIG;EQDQ01+000000PRSWM2
0126602300999992000010605004+31620-008030FM-15+0466GMMX V0209999C000012200019N0080001N1+00701+00501999999ADDGF100991999999999999999999MA1101901999999MW1001REMMET048GMMX 060500Z 00000KT 8000 SKC 07/05 Q1019 NOSIG;EQDQ01+000000PRSWM2
0250602300999992000010606004+31620-008030SY-MT+0466GMMX V0209999C000012200019N0080001N1+00581+00391102111ADDAA106000091GF100991001001999999001001KA1999N+00561MA1101901999999MD1610031+9999MW1001REMSYN064AAXX  06064 60230 32958 00000 10058 20039 40211 56003 333 20056;MET048GMMX 060600Z 00000KT 8000 SKC 06/04 Q1019 NOSIG;EQDQ01+000000PRSWM2Q02  00002PRCP06
0126602300999992000010607004+31620-008030FM-15+0466GMMX V0209999C000012200019N0080001N1+00601+00401999999ADDGF100991999999999999999999MA1101901999999MW1001REMMET048GMMX 060700Z 00000KT 8000 SKC 06/04 Q1019 NOSIG;EQDQ01+000000PRSWM2
0126602300999992000010608004+31620-008030FM-15+0466GMMX V0201801N002612200019N0080001N1+00601+00501999999ADDGF100991999999999999999999MA1102001999999MW1001REMMET048GMMX 060800Z 18005KT 8000 SKC 06/05 Q1020 NOSIG;EQDQ01+000000PRSWM2
0278602300999992000010609004+31620-008030SY-MT+0466GMMX V0201601N001012200019N0080001N1+00801+00461102171ADDAA106000091GA1021+006909999GF199999011051008001001001MA1102001999999MD1310101+9999MW1001REMSYN070AAXX  06094 60230 32558 11602 10080 20046 40217 53010 81500 333 81623;MET051GMMX 060900Z 16002KT 8000 FEW023 08/05 Q1020 NOSIG;EQDQ01+000012SCOTCVQ02+000000PRSWM2Q03  00002PRCP06
0126602300999992000010610004+31620-008030FM-15+0466GMMX V0209999C000012200019N0080001N1+01101+00701999999ADDGF100991999999999999999999MA1102101999999MW1001REMMET048GMMX 061000Z 00000KT 8000 SKC 11/07 Q1021 NOSIG;EQDQ01+000000PRSWM2
0124602300999992000010611004+31620-008030FM-15+0466GMMX V02099999999992200019N0080001N1+01201+00601999999ADDGF100991999999999999999999MA1102101999999MW1001REMMET046GMMX 061100Z 00000 8000 SKC 12/06 Q1021 NOSIG;EQDQ01+000000PRSWM2
0278602300999992000010612004+31620-008030SY-MT+0466GMMX V0209999C000012200019N0080001N1+01311+00561102011ADDAA106000091GA1021+006909999GF199999011021008001001001MA1102001999999MD1010041+9999MW1001REMSYN070AAXX  06124 60230 32558 10000 10131 20056 40201 50004 81200 333 81823;MET051GMMX 061200Z 00000KT 8000 FEW023 13/06 Q1020 NOSIG;EQDQ01+000012SCOTCVQ02+000000PRSWM2Q03  00002PRCP06
0145602300999992000010613004+31620-008030FM-15+0466GMMX V0203401N001512200019N0080001N1+01401+00501999999ADDGA1021+006909999GF102991999999999999999999MA1101801999999MW1001REMMET051GMMX 061300Z 34003KT 8000 FEW023 14/05 Q1018 NOSIG;EQDQ01+000000PRSWM2
0145602300999992000010614004+31620-008030FM-15+0466GMMX V0200401N002112200019N0080001N1+01501+00501999999ADDGA1021+006909999GF102991999999999999999999MA1101801999999MW1001REMMET051GMMX 061400Z 04004KT 8000 FEW023 15/05 Q1018 NOSIG;EQDQ01+000000PRSWM2
0291602300999992000010615004+31620-008030SY-MT+0466GMMX V0200201N003112200019N0080001N1+01581+00471101721ADDAA106000091GA1021+007809999GA2021+060009999GF104991031021008001001021MA1101691999999MD1610241+9999MW1001REMSYN076AAXX  06154 60230 32558 40206 10158 20047 40172 56024 83202 333 83826 83070;MET058GMMX 061500Z 02006KT 8000 SCT026 SCT200 16/05 Q1017 NOSIG;EQDQ01+000000PRSWM2Q02  00002PRCP06
0168602300999992000010616004+31620-008030FM-15+0466GMMX V0200401N001012200019N0112651N1+01601+00501999999ADDGA1021+007809999GA2021+060009999GF104991999999999999999999MA1101691999999MW1001REMMET058GMMX 061600Z 04002KT 9999 SCT026 SCT200 16/05 Q1017 NOSIG;EQDQ01+000000PRSWM2
0168602300999992000010617004+31620-008030FM-15+0466GMMX V0200601N002112200019N0080001N1+01601+00501999999ADDGA1021+007809999GA2021+060009999GF104991999999999999999999MA1101691999999MW1001REMMET058GMMX 061700Z 06004KT 8000 SCT026 SCT200 16/05 Q1017 NOSIG;EQDQ01+000000PRSWM2
0310602300999992000010618004+31620-008030SY-MT+0466GMMX V0209999C00001090001CN0100001N1+01481+00541101731ADDAA106000091GA1021+007809999GA2021+060009999GF105991031021008001001021KA1120M+01631MA1101691999999MD1410001+9999MW1001REMSYN082AAXX  06184 60230 32560 50000 10148 20054 40173 54000 83202 333 10163 83826 83070;MET058GMMX 061800Z 00000KT 9999 SCT026 SCT200 15/05 Q1017 NOSIG;EQDQ01+000000PRSWM2Q02  00002PRCP06
0145602300999992000010619004+31620-008030FM-15+0466GMMX V0209999C000012200019N0080001N1+01301+00501999999ADDGA1021+006909999GF104991999999999999999999MA1101801999999MW1001REMMET051GMMX 061900Z 00000KT 8000 SCT023 13/05 Q1018 NOSIG;EQDQ01+000000PRSWM2
0145602300999992000010620004+31620-008030FM-15+0466GMMX V0209999C000012200019N0080001N1+01201+00401999999ADDGA1021+006909999GF102991999999999999999999MA1101801999999MW1001REMMET051GMMX 062000Z 00000KT 8000 FEW023 12/04 Q1018 NOSIG;EQDQ01+000000PRSWM2
0260602300999992000010621004+31620-008030SY-MT+0466GMMX V0209999C000012200019N0080001N1+01121+00421101961ADDAA106000091GA1021+006909999GF102991021051008001001001MA1101801999999MD1210141+9999MW1001REMSYN070AAXX  06214 60230 32558 20000 10112 20042 40196 52014 82500 333 82623;MET049GMMX 062100Z 00000KT 8000 FEW023 11/04 Q1018 NSG;EQDQ01+000000PRSWM2Q02  00002PRCP06
0095602300999992000010622004+31620-008030FM-15+0466GMMX V0209999C00001220001CN0099001N1+01101+00401999999ADDMA1101801999999MW1001REMMET043GMMX 062200Z 00000KT CAVOK 11/04 Q1018 NSG;EQDQ01+000000PRSWM2
0095602300999992000010623004+31620-008030FM-15+0466GMMX V0209999C00001220001CN0099001N1+01001+00501999999ADDMA1101901999999MW1001REMMET043GMMX 062300Z 00000KT CAVOK 10/05 Q1019 NSG;EQDQ01+000000PRSWM2
0222602300999992000010700004+31620-008030SY-MT+0466GMMX V0209999C000012200019N0100001N1+00801+00351102051ADDAA106000091GF100991001001999999001001MA1101901999999MD1010021+9999MW1001REMSYN054AAXX  07004 60230 32960 00000 10080 20035 40205 50002;MET043GMMX 070000Z 00000KT CAVOK 08/04 Q1019 NSG;EQDQ01+000000PRSWM2Q02  00002PRCP06
0095602300999992000010701004+31620-008030FM-15+0466GMMX V0209999C00001220001CN0099001N1+00801+00401999999ADDMA1101901999999MW1001REMMET043GMMX 070100Z 00000KT CAVOK 08/04 Q1019 NSG;EQDQ01+000000PRSWM2
0095602300999992000010702004+31620-008030FM-15+0466GMMX V0209999C00001220001CN0099001N1+00701+00401999999ADDMA1101801999999MW1001REMMET043GMMX 070200Z 00000KT CAVOK 07/04 Q1018 NSG;EQDQ01+000000PRSWM2
0222602300999992000010703004+31620-008030SY-MT+0466GMMX V0209999C000012200019N0100001N1+00641+00401102061ADDAA106000091GF100991001001999999001001MA1101801999999MD1610031+9999MW1001REMSYN054AAXX  07034 60230 32960 00000 10064 20040 40206 56003;MET043GMMX 070300Z 00000KT CAVOK 06/04 Q1018 NSG;EQDQ01+000000PRSWM2Q02  00002PRCP06
0095602300999992000010704004+31620-008030FM-15+0466GMMX V0209999C00001220001CN0099001N1+00601+00401999999ADDMA1101801999999MW1001REMMET043GMMX 070400Z 00000KT CAVOK 06/04 Q1018 NSG;EQDQ01+000000PRSWM2
0097602300999992000010705004+31620-008030FM-15+0466GMMX V0209999C00001220001CN0099001N1+00601+00401999999ADDMA1101801999999MW1001REMMET045GMMX 070500Z 00000KT CAVOK 06/04 Q1018 NOSIG;EQDQ01+000000PRSWM2
0247602300999992000010706004+31620-008030SY-MT+0466GMMX V0209999C000012200019N0100001N1+00601+00361102211ADDAA106000091GF100991001001999999001001KA1999N+00501MA1101901999999MD1310151+9999MW1001REMSYN064AAXX  07064 60230 32960 00000 10060 20036 40221 53015 333 20050;MET045GMMX 070600Z 00000KT CAVOK 06/04 Q1019 NOSIG;EQDQ01+000000PRSWM2Q02  00002PRCP06
0097602300999992000010707004+31620-008030FM-15+0466GMMX V0209999C00001220001CN0099001N1+00601+00401999999ADDMA1102001999999MW1001REMMET045GMMX 070700Z 00000KT CAVOK 06/04 Q1020 NOSIG;EQDQ01+000000PRSWM2
0145602300999992000010708004+31620-008030FM-15+0466GMMX V0209999C000012200019N0080001N1+00601+00301999999ADDGA1021+060009999GF104991999999999999999999MA1102001999999MW1001REMMET051GMMX 070800Z 00000KT 8000 SCT200 06/03 Q1020 NOSIG;EQDQ01+000000PRSWM2
0262602300999992000010709004+31620-008030SY-MT+0466GMMX V0202001N001012200019N0080001N1+00651+00311102321ADDAA106000091GA1021+060009999GF103991001001999999001021MA1102101999999MD1210101+9999MW1001REMSYN070AAXX  07094 60230 32958 32002 10065 20031 40232 52010 80002 333 83070;MET051GMMX 070900Z 20002KT 8000 SCT200 07/03 Q1021 NOSIG;EQDQ01+000000PRSWM2Q02  00002PRCP06
0145602300999992000010710004+31620-008030FM-15+0466GMMX V0202201N002112200019N0080001N1+01001+00501999999ADDGA1021+060009999GF104991999999999999999999MA1102201999999MW1001REMMET051GMMX 071000Z 22004KT 8000 SCT200 10/05 Q1022 NOSIG;EQDQ01+000000PRSWM2
0145602300999992000010711004+31620-008030FM-15+0466GMMX V0209999C000012200019N0080001N1+01201+00701999999ADDGA1021+060009999GF104991999999999999999999MA1102201999999MW1001REMMET051GMMX 071100Z 00000KT 8000 SCT200 12/07 Q1022 NOSIG;EQDQ01+000000PRSWM2
0262602300999992000010712004+31620-008030SY-MT+0466GMMX V0202401N002112200019N0080001N1+01251+00641102221ADDAA106000091GA1021+060009999GF103991001001999999001021MA1102201999999MD1010061+9999MW1001REMSYN070AAXX  07124 60230 32958 32404 10125 20064 40222 50006 80002 333 83070;MET051GMMX 071200Z 24004KT 8000 SCT200 13/06 Q1022 NOSIG;EQDQ01+000000PRSWM2Q02  00002PRCP06
0087602300999992000010713004+31620-008030FM-15+0466GMMX V02099999999992200019N0112651N1+99999+99999999999ADDMW1001REMMET050GMMX 71300Z 28006KT 8000 BKN200 14/07 Q1021 NOSIG;EQDQ01+000000PRSWM2
0145602300999992000010714004+31620-008030FM-15+0466GMMX V0202801N002110600019N0080001N1+01401+00501999999ADDGA1071+060009999GF107991999999999999999999MA1102001999999MW1001REMMET051GMMX 071400Z 28004KT 8000 BKN200 14/05 Q1020 NOSIG;EQDQ01+000000PRSWM2
0262602300999992000010715004+31620-008030SY-MT+0466GMMX V0202601N002110600019N0080001N1+01441+00541101961ADDAA106000091GA1071+060009999GF107991001001999999001021MA1101901999999MD1710241+9999MW1001REMSYN070AAXX  07154 60230 32958 72604 10144 20054 40196 57024 80002 333 87070;MET051GMMX 071500Z 26004KT 8000 BKN200 14/05 Q1019 NOSIG;EQDQ01+000000PRSWM2Q02  00002PRCP06
0145602300999992000010716004+31620-008030FM-15+0466GMMX V0202801N002110600019N0080001N1+01401+00601999999ADDGA1071+060009999GF107991999999999999999999MA1101901999999MW1001REMMET051GMMX 071600Z 28004KT 8000 BKN200 14/06 Q1019 NOSIG;EQDQ01+000000PRSWM2
0145602300999992000010717004+31620-008030FM-15+0466GMMX V0203001N002110600019N0080001N1+01401+00601999999ADDGA1071+060009999GF107991999999999999999999MA1101901999999MW1001REMMET051GMMX 071700Z 30004KT 8000 BKN200 14/06 Q1019 NOSIG;EQDQ01+000000PRSWM2
0279602300999992000010718004+31620-008030SY-MT+0466GMMX V0209999C000010600019N0080001N1+01331+00551102011ADDAA106000091GA1071+060009999GF107991001001999999001021KA1120M+01531MA1102001999999MD1310041+9999MW1001REMSYN076AAXX  07184 60230 32958 70000 10133 20055 40201 53004 80002 333 10153 87070;MET049GMMX 071800Z 00000KT 8000 BKN200 13/06 Q1020 NSG;EQDQ01+000000PRSWM2Q02  00002PRCP06
0143602300999992000010719004+31620-008030FM-15+0466GMMX V0209999C000012200019N0080001N1+01201+00601999999ADDGA1021+060009999GF104991999999999999999999MA1101901999999MW1001REMMET049GMMX 071900Z 00000KT 8000 SCT200 12/06 Q1019 NSG;EQDQ01+000000PRSWM2
0143602300999992000010720004+31620-008030FM-15+0466GMMX V0209999C000012200019N0080001N1+01101+00601999999ADDGA1021+060009999GF104991999999999999999999MA1101901999999MW1001REMMET049GMMX 072000Z 00000KT 8000 SCT200 11/06 Q1019 NSG;EQDQ01+000000PRSWM2
0146602300999992000010720304+31620-008030FM-16+0466GMMX V0209999C000012200019N0080001N1+99999+99999999999ADDGA1021+060009999GF104991999999999999999999MA1101901999999MW1001REMMET052GMMX 072030Z 00000KT 8000 SCT200 111/06 Q1019 NOSIG;EQDQ01+000000PRSWM2
0262602300999992000010721004+31620-008030SY-MT+0466GMMX V0201801N001012200019N0080001N1+00951+00531102101ADDAA106000091GA1021+060009999GF103991001001999999001021MA1102101999999MD1310011+9999MW1001REMSYN070AAXX  07214 60230 32958 31802 10095 20053 40210 53001 80002 333 83070;MET051GMMX 072100Z 18002KT 8000 SCT200 10/05 Q1021 NOSIG;EQDQ01+000000PRSWM2Q02  00002PRCP06
0145602300999992000010722004+31620-008030FM-15+0466GMMX V0201801N001012200019N0080001N1+00901+00501999999ADDGA1021+060009999GF104991999999999999999999MA1102001999999MW1001REMMET051GMMX 072200Z 18002KT 8000 SCT200 09/05 Q1020 NOSIG;EQDQ01+000000PRSWM2
0145602300999992000010723004+31620-008030FM-15+0466GMMX V0201801N002612200019N0080001N1+00901+00501999999ADDGA1021+060009999GF104991999999999999999999MA1102001999999MW1001REMMET051GMMX 072300Z 18005KT 8000 SCT200 09/05 Q1020 NOSIG;EQDQ01+000000PRSWM2
0279602300999992000010800004+31620-008030SY-MT+0466GMMX V0202201N002110600019N0080001N1+00831+00491102241ADDAA106000091GA1071+060009999GF199999001001999999001021MA1102101999999MD1210081+9999MW1001REMSYN070AAXX  08004 60230 32958 52204 10083 20049 40224 52008 80002 333 85070;MET052GMMX 080000Z 22004KT 8000 BKN200 08/05 Q10211 NOSIG;EQDQ01+000052SCOTCVQ02+000000PRSWM2Q03  00002PRCP06
0145602300999992000010801004+31620-008030FM-15+0466GMMX V0202001N002110600019N0080001N1+00801+00501999999ADDGA1071+060009999GF107991999999999999999999MA1102101999999MW1001REMMET051GMMX 080100Z 20004KT 8000 BKN200 08/05 Q1021 NOSIG;EQDQ01+000000PRSWM2
0145602300999992000010802004+31620-008030FM-15+0466GMMX V0202001N001510600019N0080001N1+00701+00501999999ADDGA1071+060009999GF107991999999999999999999MA1102101999999MW1001REMMET051GMMX 080200Z 20003KT 8000 BKN200 07/05 Q1021 NOSIG;EQDQ01+000000PRSWM2
0278602300999992000010803004+31620-008030SY-MT+0466GMMX V0202201N002110600019N0080001N1+00671+00441102291ADDAA106000091GA1071+060009999GF199999001001999999001021MA1102101999999MD1310031+9999MW1001REMSYN070AAXX  08034 60230 32958 52204 10067 20044 40229 53003 80002 333 85070;MET051GMMX 080300Z 22004KT 8000 BKN200 07/04 Q1021 NOSIG;EQDQ01+000052SCOTCVQ02+000000PRSWM2Q03  00002PRCP06
0145602300999992000010804004+31620-008030FM-15+0466GMMX V0209999C000012200019N0080001N1+00601+00401999999ADDGA1021+060009999GF104991999999999999999999MA1102101999999MW1001REMMET051GMMX 080400Z 00000KT 8000 SCT200 06/04 Q1021 NOSIG;EQDQ01+000000PRSWM2
0145602300999992000010805004+31620-008030FM-15+0466GMMX V0209999C000012200019N0080001N1+00601+00401999999ADDGA1021+060009999GF104991999999999999999999MA1102101999999MW1001REMMET051GMMX 080500Z 00000KT 8000 SCT200 06/04 Q1021 NOSIG;EQDQ01+000000PRSWM2
0298602300999992000010806004+31620-008030SY-MT+0466GMMX V0209999C000010600019N0080001N1+00581+00391102341ADDAA106000091GA1071+060009999GF199999001001999999001021KA1120N+00531MA1102101999999MD1310031+9999MW1001REMSYN076AAXX  08064 60230 32958 50000 10058 20039 40234 53003 80002 333 20053 85070;MET052GMMX 080600Z 00000KT 8000 BKN200 06/04 Q1021 NPOSIG;EQDQ01+000052SCOTCVQ02+000000PRSWM2Q03  00002PRCP06
0145602300999992000010807004+31620-008030FM-15+0466GMMX V0209999C000010600019N0080001N1+00601+00401999999ADDGA1071+060009999GF107991999999999999999999MA1102201999999MW1001REMMET051GMMX 080700Z 00000KT 8000 BKN200 06/04 Q1022 NOSIG;EQDQ01+000000PRSWM2
0168602300999992000010808004+31620-008030FM-15+0466GMMX V0209999C000010600019N0080001N1+00601+00301999999ADDGA1021+030009999GA2071+060009999GF107991999999999999999999MA1102301999999MW1001REMMET058GMMX 080800Z 00000KT 8000 FEW100 BKN200 06/03 Q1023 NOSIG;EQDQ01+000000PRSWM2
0278602300999992000010809004+31620-008030SY-MT+0466GMMX V0209999C000010600019N0080001N1+00521+00361102571ADDAA106000091GA1071+060009999GF199999001001999999001021MA1102301999999MD1310201+9999MW1001REMSYN070AAXX  08094 60230 32958 50000 10052 20036 40257 53020 80002 333 82070;MET051GMMX 080900Z 00000KT 8000 BKN200 05/04 Q1023 NOSIG;EQDQ01+000052SCOTCVQ02+000000PRSWM2Q03  00002PRCP06
0145602300999992000010810004+31620-008030FM-15+0466GMMX V0209999C000012200019N0080001N1+00701+00501999999ADDGA1021+060009999GF104991999999999999999999MA1102401999999MW1001REMMET051GMMX 081000Z 00000KT 8000 SCT200 07/05 Q1024 NOSIG;EQDQ01+000000PRSWM2
0143602300999992000010811004+31620-008030FM-15+0466GMMX V0209999C000012200019N0080001N1+00901+00501999999ADDGA1021+060009999GF104991999999999999999999MA1102401999999MW1001REMMET049GMMX 081100Z 00000KT 8000 SCT200 09/05 Q1024 NSG;EQDQ01+000000PRSWM2
0260602300999992000010812004+31620-008030SY-MT+0466GMMX V0209999C000012200019N0080001N1+01301+00451102451ADDAA106000091GA1021+060009999GF103991001001999999001021MA1102401999999MD1010051+9999MW1001REMSYN070AAXX  08124 60230 32958 30000 10130 20045 40245 50005 80002 333 83070;MET049GMMX 081200Z 00000KT 8000 SCT200 13/05 Q1024 NSG;EQDQ01+000000PRSWM2Q02  00002PRCP06
0166602300999992000010813004+31620-008030FM-15+0466GMMX V0209999C000012200019N0080001N1+01401+00301999999ADDGA1021+006909999GA2021+060009999GF104991999999999999999999MA1102301999999MW1001REMMET056GMMX 081300Z 00000KT 8000 FEW023 SCT200 14/03 Q1023 NSG;EQDQ01+000000PRSWM2
0168602300999992000010814004+31620-008030FM-15+0466GMMX V0203201N002112200019N0080001N1+01501+00201999999ADDGA1021+006909999GA2021+060009999GF104991999999999999999999MA1102301999999MW1001REMMET058GMMX 081400Z 32004KT 8000 FEW023 SCT200 15/02 Q1023 NOSIG;EQDQ01+000000PRSWM2
0291602300999992000010815004+31620-008030SY-MT+0466GMMX V0203001N001012200019N0100001N1+01521+00201102291ADDAA106000091GA1021+006909999GA2021+060009999GF104991021021008001001021MA1102201999999MD1610131+9999MW1001REMSYN076AAXX  08154 60230 32560 43002 10152 20020 40229 56013 82202 333 82823 83070;MET058GMMX 081500Z 30002KT 9999 FEW023 SCT200 15/02 Q1022 NOSIG;EQDQ01+000000PRSWM2Q02  00002PRCP06
0168602300999992000010816004+31620-008030FM-15+0466GMMX V0203001N002112200019N0112651N1+01601+00201999999ADDGA1021+006909999GA2021+060009999GF104991999999999999999999MA1102201999999MW1001REMMET058GMMX 081600Z 30004KT 9999 FEW023 SCT200 16/02 Q1022 NOSIG;EQDQ01+000000PRSWM2
0168602300999992000010817004+31620-008030FM-15+0466GMMX V0209999C000012200019N0112651N1+01501+00201999999ADDGA1021+006909999GA2021+060009999GF104991999999999999999999MA1102201999999MW1001REMMET058GMMX 081700Z 00000KT 9999 FEW023 SCT200 15/02 Q1022 NOSIG;EQDQ01+000000PRSWM2
0281602300999992000010818004+31620-008030SY-MT+0466GMMX V0209999C000012200019N0100001N1+01451+00171102301ADDAA106000091GA1021+006909999GF102991021021008001001021KA1120M+01601MA1102201999999MD1410001+9999MW1001REMSYN076AAXX  08184 60230 32560 20000 10145 20017 40230 54000 82202 333 10160 82823;MET051GMMX 081800Z 00000KT 9999 FEW023 15/02 Q1022 NOSIG;EQDQ01+000000PRSWM2Q02  00002PRCP06
0095602300999992000010819004+31620-008030FM-15+0466GMMX V0209999C000012200019N0112651N1+99999+99999999999ADDMW1001MW2191REMMET052GMMX 081900Z 00000KT 9999 FCEW023 12/03 Q1023 NOSIG;EQDQ01+000003PRSWM1
0145602300999992000010820004+31620-008030FM-15+0466GMMX V0209999C000012200019N0112651N1+01001+00301999999ADDGA1021+006909999GF102991999999999999999999MA1102301999999MW1001REMMET051GMMX 082000Z 00000KT 9999 FEW023 10/03 Q1023 NOSIG;EQDQ01+000000PRSWM2
0276602300999992000010821004+31620-008030SY-MT+0466GMMX V0209999C000012200019N0100001N1+00951+00271102471ADDAA106000091GA1021+006909999GF199999011021008001001001MA1102301999999MD1110061+9999MW1001REMSYN070AAXX  08214 60230 32560 10000 10095 20027 40247 51006 81200 333 81823;MET049GMMX 082100Z 00000KT 9999 FEW023 10/03 Q1023 NSG;EQDQ01+000012SCOTCVQ02+000000PRSWM2Q03  00002PRCP06
0095602300999992000010823004+31620-008030FM-15+0466GMMX V0209999C00001220001CN0099001N1+00701+00201999999ADDMA1102301999999MW1001REMMET043GMMX 082300Z 00000KT CAVOK 07/02 Q1023 NSG;EQDQ01+000000PRSWM2
0222602300999992000010900004+31620-008030SY-MT+0466GMMX V0209999C000012200019N0100001N1+00651+00231102611ADDAA106000091GF100991001001999999001001MA1102401999999MD1310071+9999MW1001REMSYN054AAXX  09004 60230 32960 00000 10065 20023 40261 53007;MET043GMMX 090000Z 00000KT CAVOK 07/02 Q1024 NSG;EQDQ01+000000PRSWM2Q02  00002PRCP06
0095602300999992000010901004+31620-008030FM-15+0466GMMX V0209999C00001220001CN0099001N1+00601+00201999999ADDMA1102401999999MW1001REMMET043GMMX 090100Z 00000KT CAVOK 06/02 Q1024 NSG;EQDQ01+000000PRSWM2
0095602300999992000010902004+31620-008030FM-15+0466GMMX V0209999C00001220001CN0099001N1+00601+00201999999ADDMA1102401999999MW1001REMMET043GMMX 090200Z 00000KT CAVOK 06/02 Q1024 NSG;EQDQ01+000000PRSWM2
0222602300999992000010903004+31620-008030SY-MT+0466GMMX V0209999C000012200019N0100001N1+00531+00211102591ADDAA106000091GF100991001001999999001001MA1102401999999MD1810031+9999MW1001REMSYN054AAXX  09034 60230 32960 00000 10053 20021 40259 58003;MET043GMMX 090300Z 00000KT CAVOK 05/02 Q1024 NSG;EQDQ01+000000PRSWM2Q02  00002PRCP06
0095602300999992000010904004+31620-008030FM-15+0466GMMX V0209999C00001220001CN0099001N1+00501+00101999999ADDMA1102401999999MW1001REMMET043GMMX 090400Z 00000KT CAVOK 05/01 Q1024 NSG;EQDQ01+000000PRSWM2
0097602300999992000010904304+31620-008030FM-15+0466GMMX V0209999C00001220001CN0099001N1+00501+00101999999ADDMA1102401999999MW1001REMMET045GMMX 090530Z 00000KT CAVOK 05/01 Q1024 NOSIG;EQDQ01+000000PRSWM2
0074602300999992000010905004+31620-008030FM-16+0466GMMX V0209999C00001220001CN0099001N1+99999+99999999999ADDMW1001REMMET037GMMX 090500Z 00000KT CAVOKQPWR NOSIG;EQDQ01+000000PRSWM2
0097602300999992000010906304+31620-008030FM-15+0466GMMX V0209999C00001220001CN0099001N1+00301+00001999999ADDMA1102511999999MW1001REMMET045GMMX 090730Z 00000KT CAVOK 03/00 Q1025 NOSIG;EQDQ01+000000PRSWM2
0097602300999992000010908004+31620-008030FM-15+0466GMMX V0209999C00001220001CN0099001N1+00301+00101999999ADDMA1102511999999MW1001REMMET045GMMX 090800Z 00000KT CAVOK 03/01 Q1025 NOSIG;EQDQ01+000000PRSWM2
0224602300999992000010909004+31620-008030SY-MT+0466GMMX V0209999C000012200019N0100001N1+00301+00031102881ADDAA106000091GF100991001001999999001001MA1102611999999MD1210121+9999MW1001REMSYN054AAXX  09094 60230 32960 00000 10030 20003 40288 52012;MET045GMMX 090900Z 00000KT CAVOK 03/00 Q1026 NOSIG;EQDQ01+000000PRSWM2Q02  00002PRCP06
0097602300999992000010910004+31620-008030FM-15+0466GMMX V0209999C00001220001CN0099001N1+00901+00301999999ADDMA1102611999999MW1001REMMET045GMMX 091000Z 00000KT CAVOK 09/03 Q1026 NOSIG;EQDQ01+000000PRSWM2
0097602300999992000010911004+31620-008030FM-15+0466GMMX V0209999C00001220001CN0099001N1+01201+00401999999ADDMA1102611999999MW1001REMMET045GMMX 091100Z 00000KT CAVOK 12/04 Q1026 NOSIG;EQDQ01+000000PRSWM2
0224602300999992000010912004+31620-008030SY-MT+0466GMMX V0209999C000012200019N0100001N1+01301+00311102651ADDAA106000091GF100991001001999999001001MA1102611999999MD1010001+9999MW1001REMSYN054AAXX  09124 60230 32960 00000 10130 20031 40265 50000;MET045GMMX 091200Z 00000KT CAVOK 13/03 Q1026 NOSIG;EQDQ01+000000PRSWM2Q02  00002PRCP06
0097602300999992000010913004+31620-008030FM-15+0466GMMX V0200401N00211220001CN0099001N1+01401+00401999999ADDMA1102511999999MW1001REMMET045GMMX 091300Z 04004KT CAVOK 14/04 Q1025 NOSIG;EQDQ01+000000PRSWM2
0097602300999992000010914004+31620-008030FM-15+0466GMMX V0209999C00001220001CN0099001N1+01501+00501999999ADDMA1102401999999MW1001REMMET045GMMX 091400Z 00000KT CAVOK 15/05 Q1024 NOSIG;EQDQ01+000000PRSWM2
0278602300999992000010915004+31620-008030SY-MT+0466GMMX V0200601N001512200019N0100001N1+01581+00141102351ADDAA106000091GA1021+006909999GF199999011021008001001001MA1102301999999MD1710261+9999MW1001REMSYN070AAXX  09154 60230 32560 10603 10158 20014 40235 57026 81200 333 81823;MET051GMMX 091500Z 06003KT 9999 FEW023 16/01 Q1023 NOSIG;EQDQ01+000012SCOTCVQ02+000000PRSWM2Q03  00002PRCP06
0145602300999992000010916004+31620-008030FM-15+0466GMMX V0209999C000012200019N0112651N1+01601+00101999999ADDGA1021+006909999GF102991999999999999999999MA1102301999999MW1001REMMET051GMMX 091600Z 00000KT 9999 FEW023 16/01 Q1023 NOSIG;EQDQ01+000000PRSWM2
0145602300999992000010917004+31620-008030FM-15+0466GMMX V0203601N001512200019N0112651N1+01601+00001999999ADDGA1021+006909999GF102991999999999999999999MA1102301999999MW1001REMMET051GMMX 091700Z 36003KT 9999 FEW023 16/00 Q1023 NOSIG;EQDQ01+000000PRSWM2
0298602300999992000010918004+31620-008030SY-MT+0466GMMX V0203601N001512200019N0100001N1+01501-00071102331ADDAA106000091GA1021+006909999GF199999011021008001001001KA1120M+01691MA1102301999999MD1110021+9999MW1001REMSYN076AAXX  09184 60230 32560 13603 10150 21007 40233 51002 81200 333 10169 81823;MET052GMMX 091800Z 36003KT 9999 FEW023 15/M01 Q1023 NOSIG;EQDQ01+000012SCOTCVQ02+000000PRSWM2Q03  00002PRCP06
0081602300999992000010919004+31620-008030FM-15+0466GMMX V0200401N00101220001CN0099001N1+01301+00101999999ADDMW1001REMMET044GMMX 091900Z 04002KT CAVOK 13/01 Q024 NOSIG;EQDQ01+000000PRSWM2
0097602300999992000010919304+31620-008030FM-15+0466GMMX V0200201N00101220001CN0099001N1+99999+00101999999ADDMW1001REMMET044GMMX 091930Z 02002KT CAVOK 2/01 Q0224 NOSIG;EQDQ01+000203ATOT  Q02+000000PRSWM2
0097602300999992000010920004+31620-008030FM-15+0466GMMX V0200201N00101220001CN0099001N1+01101+00101999999ADDMA1102401999999MW1001REMMET045GMMX 092000Z 02002KT CAVOK 11/01 Q1024 NOSIG;EQDQ01+000000PRSWM2
0224602300999992000010921004+31620-008030SY-MT+0466GMMX V0209999C000012200019N0100001N1+01081+00121102601ADDAA106000091GF100991001001999999001001MA1102511999999MD1210181+9999MW1001REMSYN054AAXX  09214 60230 32960 00000 10108 20012 40260 52018;MET045GMMX 092100Z 00000KT CAVOK 11/01 Q1025 NOSIG;EQDQ01+000000PRSWM2Q02  00002PRCP06
0097602300999992000010922004+31620-008030FM-15+0466GMMX V0209999C00001220001CN0099001N1+01001+00301999999ADDMA1102511999999MW1001REMMET045GMMX 092200Z 00000KT CAVOK 10/03 Q1025 NOSIG;EQDQ01+000000PRSWM2
0097602300999992000010923004+31620-008030FM-15+0466GMMX V0209999C00001220001CN0099001N1+00801+00201999999ADDMA1102511999999MW1001REMMET045GMMX 092300Z 00000KT CAVOK 08/02 Q1025 NOSIG;EQDQ01+000000PRSWM2
0098602300999992000010923304+31620-008030FM-15+0466GMMX V0209999C00001220001CN0099001N1+00701+00201999999ADDMA1102401999999MW1001REMMET046GMMX 100030Z 00000KT CAVOK 07/02 Q1024 NOSIG/;EQDQ01+000000PRSWM2
0152602300999992000011000004+31620-008030FM-12+0466GMMX V0209999C000012200019N0100001N1+00701+00231102661ADDAA106000091GA1001+999999999GF100991001001999999001001MD1810021+9999REMSYN054AAXX  10004 60230 32960 00000 10070 20023 40266 58002;EQDQ01  00002PRCP06
0097602300999992000011001004+31620-008030FM-15+0466GMMX V0209999C00001220001CN0099001N1+00601+00201999999ADDMA1102401999999MW1001REMMET045GMMX 100100Z 00000KT CAVOK 06/02 Q1024 NOSIG;EQDQ01+000000PRSWM2
0097602300999992000011002004+31620-008030FM-15+0466GMMX V0209999C00001220001CN0099001N1+00601+00201999999ADDMA1102301999999MW1001REMMET045GMMX 100200Z 00000KT CAVOK 06/02 Q1023 NOSIG;EQDQ01+000000PRSWM2
0224602300999992000011003004+31620-008030SY-MT+0466GMMX V0209999C000012200019N0100001N1+00471+00081102621ADDAA106000091GF100991001001999999001001MA1102301999999MD1610111+9999MW1001REMSYN054AAXX  10034 60230 32960 00000 10047 20008 40262 56011;MET045GMMX 100300Z 00000KT CAVOK 05/01 Q1023 NOSIG;EQDQ01+000000PRSWM2Q02  00002PRCP06
0097602300999992000011004004+31620-008030FM-15+0466GMMX V0209999C00001220001CN0099001N1+00401+00101999999ADDMA1102301999999MW1001REMMET045GMMX 100400Z 00000KT CAVOK 04/01 Q1023 NOSIG;EQDQ01+000000PRSWM2
0097602300999992000011005004+31620-008030FM-15+0466GMMX V0209999C00001220001CN0099001N1+00401+00101999999ADDMA1102301999999MW1001REMMET045GMMX 100500Z 00000KT CAVOK 04/01 Q1023 NOSIG;EQDQ01+000000PRSWM2
0247602300999992000011006004+31620-008030SY-MT+0466GMMX V0209999C000012200019N0100001N1+00351+00121102541ADDAA106000091GF100991001001999999001001KA1999N+00261MA1102201999999MD1810091+9999MW1001REMSYN064AAXX  10064 60230 32960 00000 10035 20012 40254 58009 333 20026;MET045GMMX 100600Z 00000KT CAVOK 04/01 Q1022 NOSIG;EQDQ01+000000PRSWM2Q02  00002PRCP06
0098602300999992000011007004+31620-008030FM-15+0466GMMX V0209999C00001220001CN0099001N1+00301-00101999999ADDMA1102301999999MW1001REMMET046GMMX 100700Z 00000KT CAVOK 03/M01 Q1023 NOSIG;EQDQ01+000000PRSWM2
0097602300999992000011008004+31620-008030FM-15+0466GMMX V0209999C00001220001CN0099001N1+00401+00101999999ADDMA1102301999999MW1001REMMET045GMMX 100800Z 00000KT CAVOK 04/01 Q1023 NOSIG;EQDQ01+000000PRSWM2
0291602300999992000011009004+31620-008030SY-MT+0466GMMX V0203201N001012200019N0100001N1+00521+00011102541ADDAA106000091GA1021+006009999GA2021+007809999GF103991031081008001001001MA1102301999999MD1110051+9999MW1001REMSYN076AAXX  10094 60230 32560 33202 10052 20001 40254 51005 83800 333 81820 83626;MET058GMMX 100900Z 32002KT 9999 FEW020 SCT026 05/00 Q1023 NOSIG;EQDQ01+000000PRSWM2Q02  00002PRCP06
0168602300999992000011010004+31620-008030FM-15+0466GMMX V0203201N001510078019N0080001N1+00801+00101999999ADDGA1021+006009999GA2071+007809999GF107991999999999999999999MA1102301999999MW1001REMMET058GMMX 101000Z 32003KT 8000 FEW020 BKN026 08/01 Q1023 NOSIG;EQDQ01+000000PRSWM2
0145602300999992000011011004+31620-008030FM-15+0466GMMX V0203201N003610078019N0080001N1+00801+00101999999ADDGA1071+007809999GF107991999999999999999999MA1102401999999MW1001REMMET051GMMX 101100Z 32007KT 8000 BKN026 08/01 Q1024 NOSIG;EQDQ01+000000PRSWM2
0307602300999992000011012004+31620-008030SY-MT+0466GMMX V0203201N001010078019N0080001N1+00821+00601102461ADDAA106000591AY161061AY221061GA1021+003909999GA2071+007809999GF107991071081004501999999MA1102301999999MD1810031+9999MW1611REMSYN088AAXX  10124 60230 11458 73202 10082 20060 40246 58003 69961 76162 878// 333 82813 87826;MET062GMMX 101200Z 32002KT 8000 -RA FEW013 BKN026 08/06 Q1023 NOSIG;EQDQ01    003PRSWM1
0188602300999992000011013004+31620-008030FM-15+0466GMMX V0202001N003110078019N0080001N1+00901+00701999999ADDGA1021+003909999GA2071+007809999GF107991999999999999999999MA1102101999999MW1611REMMET062GMMX 101300Z 20006KT 8000 -RA FEW013 BKN026 09/07 Q1021 NOSIG;EQDQ01+000003PRSWM1Q02    003PRSWM1
0145602300999992000011013304+31620-008030FM-15+0466GMMX V0202401N004110078019N0080001N1+01201+00801999999ADDGA1071+007809999GF107991999999999999999999MA1102001999999MW1001REMMET051GMMX 101430Z 24008KT 8000 BKN026 12/08 Q1020 NOSIG;EQDQ01+000000PRSWM2
0221602300999992000011014454+31620-008030FM-15+0466GMMX V0202401N00311220001CN0080001N1+01101+00701999999ADDGA1071+006009999GA2021+009009099MA1102001999999MW1811MW2951REMMET099GMMX 101445Z 24006KT 8000 TSRA BKN020 FEW030CB 11/07 Q1020 TEMPO6000 +TSRA SCT016 OVC020 SCT030CB ;EQDQ01+000022SCOTCVQ02+000003PRSWM1Q03    003PRSWM1
0323602300999992000011015004+31620-008030SY-MT+0466GMMX V0202401N003110060019N0080001N1+01101+00691102021ADDAY191031AY281031GA1071+006009999GA2021+009009099GF108991071091008001999999MA1101901999999MD1710341+9999MW1951REMSYN082AAXX  10154 60230 41558 82406 10110 20069 40202 57034 79598 879// 333 86820 82930;MET095GMMX 101500Z 24006KT 8000 TSRA BKN020 FEW030CB 11/07 Q1019 TEMPO +TSRA SCT016 BKN020 SCT030CB ;EQDQ01    003PRSWM1
0179602300999992000011016004+31620-008030FM-15+0466GMMX V0209999C00001220001CN0080001N1+00801+00401999999ADDGA1071+006009999GA2021+009009099MA1102001999999MW1171REMMET063GMMX 101600Z 00000KT 8000 TS BKN020 FEW030CB 08/04 Q1020 NOSIG;EQDQ01+000022SCOTCVQ02+000003PRSWM1Q03    003PRSWM1
0160602300999992000011017004+31620-008030FM-15+0466GMMX V0201801N00261220001CN0080001N1+00901+00801999999ADDGA1071+006009999GA2021+009009099MA1102001999999MW1001REMMET060GMMX 101700Z 18005KT 8000 BKN020 FEW030CB 09/08 Q1020 NOSIG;EQDQ01+000022SCOTCVQ02+000000PRSWM2
0340602300999992000011018004+31620-008030SY-MT+0466GMMX V0200201N002610060019N0080001N1+00921+00781102161ADDAA112008991AY191061AY281061GA1071+006009999GA2021+007809099GF107991071091008001999999KA1120M+01161MA1102001999999MD1210101+9999MW1801REMSYN094AAXX  10184 60230 11558 70205 10092 20078 40216 52010 60092 78098 879// 333 10116 87820 82926;MET060GMMX 101800Z 02005KT 8000 BKN020 FEW026CB 09/08 Q1020 NOSIG;EQDQ01+000000PRSWM2Q02    003PRSWM1
0160602300999992000011018304+31620-008030FM-15+0466GMMX V0200801N00101220001CN0080001N1+00801+00701999999ADDGA1071+006009999GA2021+007809099MA1102001999999MW1001REMMET060GMMX 101930Z 08002KT 8000 BKN020 FEW026CB 08/07 Q1020 NOSIG;EQDQ01+000022SCOTCVQ02+000000PRSWM2
0160602300999992000011020004+31620-008030FM-15+0466GMMX V0200401N00101220001CN0080001N1+00801+00701999999ADDGA1071+006009999GA2021+007809099MA1102101999999MW1001REMMET060GMMX 102000Z 04002KT 8000 BKN020 FEW026CB 08/07 Q1021 NOSIG;EQDQ01+000022SCOTCVQ02+000000PRSWM2
0262602300999992000011021004+31620-008030SY-MT+0466GMMX V0201601N001510060019N0080001N1+00711+00531102301ADDAA106000021GA1071+006009999GF199999061021008001001001MA1102101999999MD1110081+9999MW1001REMSYN070AAXX  10214 60230 32558 61603 10071 20053 40230 51008 86200 333 86820;MET051GMMX 102100Z 16003KT 8000 BKN020 07/05 Q1021 NOSIG;EQDQ01+000062SCOTCVQ02+000000PRSWM2
0145602300999992000011022004+31620-008030FM-15+0466GMMX V0202001N002112200019N0080001N1+00701+00401999999ADDGA1021+006009999GF104991999999999999999999MA1102101999999MW1001REMMET051GMMX 102200Z 20004KT 8000 SCT020 07/04 Q1021 NOSIG;EQDQ01+000000PRSWM2
0145602300999992000011023004+31620-008030FM-15+0466GMMX V0203201N001012200019N0080001N1+00601+00401999999ADDGA1021+006009999GF102991999999999999999999MA1102101999999MW1001REMMET051GMMX 102300Z 32002KT 8000 FEW020 06/04 Q1021 NOSIG;EQDQ01+000000PRSWM2
0246602300999992000011100004+31620-008030SY-MT+0466GMMX V0209999C000012200019N0080001N1+00541+00451102341ADDAA106000021GA1021+006009999GF102991021051008001001001MA1102101999999MD1410001+9999MW1001REMSYN070AAXX  11004 60230 32558 20000 10054 20045 40234 54000 82500 333 82620;MET051GMMX 110000Z 00000KT 8000 FEW020 05/05 Q1021 NOSIG;EQDQ01+000000PRSWM2
0145602300999992000011101004+31620-008030FM-15+0466GMMX V0209999C000012200019N0080001N1+00501+00401999999ADDGA1021+006009999GF102991999999999999999999MA1102101999999MW1001REMMET051GMMX 110100Z 00000KT 8000 FEW020 05/04 Q1021 NOSIG;EQDQ01+000000PRSWM2
0145602300999992000011102004+31620-008030FM-15+0466GMMX V0209999C000012200019N0080001N1+00501+00401999999ADDGA1021+006009999GF102991999999999999999999MA1102101999999MW1001REMMET051GMMX 110200Z 00000KT 8000 FEW020 05/04 Q1021 NOSIG;EQDQ01+000000PRSWM2
0262602300999992000011103004+31620-008030SY-MT+0466GMMX V0209999C000012200019N0080001N1+00371+00271102361ADDAA106000091GA1021+006009999GF102991021051008001001001MA1102101999999MD1510001+9999MW1001REMSYN070AAXX  11034 60230 32558 20000 10037 20027 40236 55000 82500 333 82620;MET051GMMX 110300Z 00000KT 8000 FEW020 04/03 Q1021 NOSIG;EQDQ01+000000PRSWM2Q02  00002PRCP06
0145602300999992000011104004+31620-008030FM-15+0466GMMX V0209999C000012200019N0080001N1+00401+00301999999ADDGA1021+006009999GF102991999999999999999999MA1102101999999MW1001REMMET051GMMX 110400Z 00000KT 8000 FEW020 04/03 Q1021 NOSIG;EQDQ01+000000PRSWM2
0126602300999992000011105004+31620-008030FM-15+0466GMMX V0209999C000012200019N0080001N1+00301+00201999999ADDGF100991999999999999999999MA1102101999999MW1001REMMET048GMMX 110500Z 00000KT 8000 SKC 03/02 Q1021 NOSIG;EQDQ01+000000PRSWM2
0247602300999992000011106004+31620-008030SY-MT+0466GMMX V0209999C000012200019N0100001N1+00251+00121102451ADDAA106000091GF100991001001999999001001KA1999N+00231MA1102101999999MD1110031+9999MW1001REMSYN064AAXX  11064 60230 32960 00000 10025 20012 40245 51003 333 20023;MET045GMMX 110600Z 00000KT CAVOK 03/01 Q1021 NOSIG;EQDQ01+000000PRSWM2Q02  00002PRCP06
0097602300999992000011107004+31620-008030FM-15+0466GMMX V0209999C00001220001CN0099001N1+00201+00101999999ADDMA1102201999999MW1001REMMET045GMMX 110700Z 00000KT CAVOK 02/01 Q1022 NOSIG;EQDQ01+000000PRSWM2
0097602300999992000011108004+31620-008030FM-15+0466GMMX V0209999C00001220001CN0099001N1+00201+00101999999ADDMA1102201999999MW1001REMMET045GMMX 110800Z 00000KT CAVOK 02/01 Q1022 NOSIG;EQDQ01+000000PRSWM2
0224602300999992000011109004+31620-008030SY-MT+0466GMMX V0209999C000012200019N0100001N1+00251+00121102651ADDAA106000091GF100991001001999999001001MA1102301999999MD1310191+9999MW1001REMSYN054AAXX  11094 60230 32960 00000 10025 20012 40265 53019;MET045GMMX 110900Z 00000KT CAVOK 03/01 Q1023 NOSIG;EQDQ01+000000PRSWM2Q02  00002PRCP06
0097602300999992000011110004+31620-008030FM-15+0466GMMX V0209999C00001220001CN0099001N1+00601+00301999999ADDMA1102401999999MW1001REMMET045GMMX 111000Z 00000KT CAVOK 06/03 Q1024 NOSIG;EQDQ01+000000PRSWM2
0097602300999992000011111004+31620-008030FM-15+0466GMMX V0209999C00001220001CN0099001N1+00801+00301999999ADDMA1102401999999MW1001REMMET045GMMX 111100Z 00000KT CAVOK 08/03 Q1024 NOSIG;EQDQ01+000000PRSWM2
0224602300999992000011112004+31620-008030SY-MT+0466GMMX V0209999C000012200019N0100001N1+00861+00371102541ADDAA106000091GF100991001001999999001001MA1102301999999MD1010011+9999MW1001REMSYN054AAXX  11124 60230 32960 00000 10086 20037 40254 50001;MET045GMMX 111200Z 00000KT CAVOK 09/04 Q1023 NOSIG;EQDQ01+000000PRSWM2Q02  00002PRCP06
0097602300999992000011113004+31620-008030FM-15+0466GMMX V0209999C00001220001CN0099001N1+01001+00401999999ADDMA1102301999999MW1001REMMET045GMMX 111300Z 00000KT CAVOK 10/04 Q1023 NOSIG;EQDQ01+000000PRSWM2
0146602300999992000011114004+31620-008030FM-15+0466GMMX V0200801N001512200019N0112651N1+01201+00501999999ADDGA1021+007809999GF102991999999999999999999MA1102201999999MW1001REMMET052GMMX 111400Z 08003KT 9999 FEW026 12/05 Q1022 NEOSIG;EQDQ01+000000PRSWM2
0262602300999992000011115004+31620-008030SY-MT+0466GMMX V0200201N001012200019N0100001N1+01301+00461102261ADDAA106000091GA1021+007809999GF102991021081008001001001MA1102201999999MD1710151+9999MW1001REMSYN070AAXX  11154 60230 32560 20202 10130 20046 40226 57015 82800 333 82826;MET051GMMX 111500Z 02002KT 9999 FEW026 13/05 Q1022 NISIG;EQDQ01+000000PRSWM2Q02  00002PRCP06
0145602300999992000011116004+31620-008030FM-15+0466GMMX V0200401N002112200019N0112651N1+01401+00501999999ADDGA1021+007809999GF102991999999999999999999MA1102201999999MW1001REMMET051GMMX 111600Z 04004KT 9999 FEW026 14/05 Q1022 NOSIG;EQDQ01+000000PRSWM2
0145602300999992000011117004+31620-008030FM-15+0466GMMX V0200601N002112200019N0112651N1+01501+00501999999ADDGA1021+007809999GF102991999999999999999999MA1102201999999MW1001REMMET051GMMX 111700Z 06004KT 9999 FEW026 15/05 Q1022 NOSIG;EQDQ01+000000PRSWM2
0297602300999992000011118004+31620-008030SY-MT+0466GMMX V0200601N002112200019N0100001N1+01301+00321102301ADDAA106000091GA1021+007809999GF199999011021008001001001KA1120M+01451MA1102201999999MD1310041+9999MW1001REMSYN076AAXX  11184 60230 32560 10604 10130 20032 40230 53004 81200 333 10145 81826;MET051GMMX 111800Z 06004KT 9999 FEW026 13/03 Q1022 NOSIG;EQDQ01+000012SCOTCVQ02+000000PRSWM2Q03  00002PRCP06
0145602300999992000011119004+31620-008030FM-15+0466GMMX V0200401N002112200019N0112651N1+01101+00301999999ADDGA1021+007809999GF102991999999999999999999MA1102201999999MW1001REMMET051GMMX 111900Z 04004KT 9999 FEW026 11/03 Q1022 NOSIG;EQDQ01+000000PRSWM2
0097602300999992000011120004+31620-008030FM-15+0466GMMX V0200601N00211220001CN0099001N1+01101+00201999999ADDMA1102301999999MW1001REMMET045GMMX 112000Z 06004KT CAVOK 11/02 Q1023 NOSIG;EQDQ01+000000PRSWM2
0224602300999992000011121004+31620-008030SY-MT+0466GMMX V0209999C000012200019N0100001N1+00871+00501102491ADDAA106000091GF100991001001999999001001MA1102301999999MD1310101+9999MW1001REMSYN054AAXX  11214 60230 32960 00000 10087 20050 40249 53010;MET045GMMX 112100Z 00000KT CAVOK 09/05 Q1023 NOSIG;EQDQ01+000000PRSWM2Q02  00002PRCP06
0097602300999992000011122004+31620-008030FM-15+0466GMMX V0209999C00001220001CN0099001N1+00801+00501999999ADDMA1102401999999MW1001REMMET045GMMX 112200Z 00000KT CAVOK 08/05 Q1024 NOSIG;EQDQ01+000000PRSWM2
0097602300999992000011123004+31620-008030FM-15+0466GMMX V0201201N00211220001CN0099001N1+00801+00401999999ADDMA1102401999999MW1001REMMET045GMMX 112300Z 12004KT CAVOK 08/04 Q1024 NOSIG;EQDQ01+000000PRSWM2
0224602300999992000011200004+31620-008030SY-MT+0466GMMX V0209999C000012200019N0100001N1+00571+00331102541ADDAA106000091GF100991001001999999001001MA1102301999999MD1810011+9999MW1001REMSYN054AAXX  12004 60230 32960 00000 10057 20033 40254 58001;MET045GMMX 120000Z 00000KT CAVOK 06/03 Q1023 NOSIG;EQDQ01+000000PRSWM2Q02  00002PRCP06
0097602300999992000011201004+31620-008030FM-15+0466GMMX V0209999C00001220001CN0099001N1+00501+00301999999ADDMA1102301999999MW1001REMMET045GMMX 120100Z 00000KT CAVOK 05/03 Q1023 NOSIG;EQDQ01+000000PRSWM2
0097602300999992000011202004+31620-008030FM-15+0466GMMX V0209999C00001220001CN0099001N1+00501+00301999999ADDMA1102301999999MW1001REMMET045GMMX 120200Z 00000KT CAVOK 05/03 Q1023 NOSIG;EQDQ01+000000PRSWM2
0224602300999992000011203004+31620-008030SY-MT+0466GMMX V0209999C000012200019N0100001N1+00401+00251102541ADDAA106000091GF100991001001999999001001MA1102301999999MD1610041+9999MW1001REMSYN054AAXX  12034 60230 32960 00000 10040 20025 40254 56004;MET045GMMX 120300Z 00000KT CAVOK 04/03 Q1023 NOSIG;EQDQ01+000000PRSWM2Q02  00002PRCP06
0097602300999992000011204004+31620-008030FM-15+0466GMMX V0201401N00101220001CN0099001N1+00301+00101999999ADDMA1102301999999MW1001REMMET045GMMX 120400Z 14002KT CAVOK 03/01 Q1023 NOSIG;EQDQ01+000000PRSWM2
0097602300999992000011205004+31620-008030FM-15+0466GMMX V0209999C00001220001CN0099001N1+00201+00101999999ADDMA1102301999999MW1001REMMET045GMMX 120500Z 00000KT CAVOK 02/01 Q1023 NOSIG;EQDQ01+000000PRSWM2
0247602300999992000011206004+31620-008030SY-MT+0466GMMX V0209999C000012200019N0100001N1+00201+00101102651ADDAA106000091GF100991001001999999001001KA1999N+00141MA1102301999999MD1210061+9999MW1001REMSYN064AAXX  12064 60230 32960 00000 10020 20070 40265 52006 333 20014;MET045GMMX 120600Z 00000KT CAVOK 02/01 Q1023 NOSIG;EQDQ01+000000PRSWM2Q02  00002PRCP06
0097602300999992000011207004+31620-008030FM-15+0466GMMX V0209999C00001220001CN0099001N1+00201+00101999999ADDMA1102401999999MW1001REMMET045GMMX 120700Z 00000KT CAVOK 02/01 Q1024 NOSIG;EQDQ01+000000PRSWM2
0095602300999992000011208004+31620-008030FM-15+0466GMMX V0209999C00001220001CN0099001N1+00301+00101999999ADDMA1102401999999MW1001REMMET043GMMX 120800Z 00000KT CAVOK 03/01 Q1024 NSG;EQDQ01+000000PRSWM2
0222602300999992000011209004+31620-008030SY-MT+0466GMMX V0209999C000012200019N0100001N1+00321+00141102811ADDAA106000091GF100991001001999999001001MA1102511999999MD1110171+9999MW1001REMSYN054AAXX  12094 60230 32960 00000 10032 20014 40281 51017;MET043GMMX 120900Z 00000KT CAVOK 03/01 Q1025 NSG;EQDQ01+000000PRSWM2Q02  00002PRCP06
0095602300999992000011210004+31620-008030FM-15+0466GMMX V0209999C00001220001CN0099001N1+00701+00401999999ADDMA1102611999999MW1001REMMET043GMMX 121000Z 00000KT CAVOK 07/04 Q1026 NSG;EQDQ01+000000PRSWM2
0097602300999992000011211004+31620-008030FM-15+0466GMMX V0209999C00001220001CN0099001N1+01001+00501999999ADDMA1102611999999MW1001REMMET045GMMX 121100Z 00000KT CAVOK 10/05 Q1026 NOSIG;EQDQ01+000000PRSWM2
0224602300999992000011212004+31620-008030SY-MT+0466GMMX V0209999C000012200019N0100001N1+01101+00451102631ADDAA106000091GF100991001001999999001001MA1102511999999MD1010001+9999MW1001REMSYN054AAXX  12124 60230 32960 00000 10110 20045 40263 50000;MET045GMMX 121200Z 00000KT CAVOK 11/05 Q1025 NOSIG;EQDQ01+000000PRSWM2Q02  00002PRCP06
0097602300999992000011213004+31620-008030FM-15+0466GMMX V0209999C00001220001CN0099001N1+01301+00401999999ADDMA1102401999999MW1001REMMET045GMMX 121300Z 00000KT CAVOK 13/04 Q1024 NOSIG;EQDQ01+000000PRSWM2
0145602300999992000011214004+31620-008030FM-15+0466GMMX V0203201N001012200019N0112651N1+01401+00101999999ADDGA1021+007809999GF102991999999999999999999MA1102401999999MW1001REMMET051GMMX 121400Z 32002KT 9999 FEW026 14/01 Q1024 NOSIG;EQDQ01+000000PRSWM2
0262602300999992000011215004+31620-008030SY-MT+0466GMMX V0203401N002112200019N0100001N1+01451+00311102431ADDAA106000091GA1021+007809999GF102991021021008001001001MA1102401999999MD1610121+9999MW1001REMSYN070AAXX  12154 60230 32560 23404 10145 20031 40243 56012 82200 333 82826;MET051GMMX 121500Z 34004KT 9999 FEW026 15/03 Q1024 NOSIG;EQDQ01+000000PRSWM2Q02  00002PRCP06
0145602300999992000011216004+31620-008030FM-15+0466GMMX V0203401N002112200019N0112651N1+01501+00201999999ADDGA1021+007809999GF102991999999999999999999MA1102401999999MW1001REMMET051GMMX 121600Z 34004KT 9999 FEW026 15/02 Q1024 NOSIG;EQDQ01+000000PRSWM2
0145602300999992000011217004+31620-008030FM-15+0466GMMX V0203001N001512200019N0112651N1+01501+00201999999ADDGA1021+007809999GF102991999999999999999999MA1102401999999MW1001REMMET051GMMX 121700Z 30003KT 9999 FEW026 15/02 Q1024 NOSIG;EQDQ01+000000PRSWM2
0281602300999992000011218004+31620-008030SY-MT+0466GMMX V0202601N001512200019N0100001N1+01401+00321102581ADDAA106000091GA1021+007809999GF101991011011008001001001KA1120M+01501MA1102401999999MD1310051+9999MW1001REMSYN076AAXX  12184 60230 32560 12603 10140 20032 40258 53005 81100 333 10150 81826;MET051GMMX 121800Z 26003KT 9999 FEW026 14/03 Q1024 NOSIG;EQDQ01+000000PRSWM2Q02  00002PRCP06
0097602300999992000011219004+31620-008030FM-15+0466GMMX V0200401N00151220001CN0099001N1+01101+00401999999ADDMA1102511999999MW1001REMMET045GMMX 121900Z 04003KT CAVOK 11/04 Q1025 NOSIG;EQDQ01+000000PRSWM2
0097602300999992000011220004+31620-008030FM-15+0466GMMX V0201401N00211220001CN0099001N1+01001+00301999999ADDMA1102511999999MW1001REMMET045GMMX 122000Z 14004KT CAVOK 10/03 Q1025 NOSIG;EQDQ01+000000PRSWM2
0224602300999992000011221004+31620-008030SY-MT+0466GMMX V0201601N002112200019N0100001N1+00901+00261102681ADDAA106000091GF100991001001999999001001MA1102511999999MD1210081+9999MW1001REMSYN054AAXX  12214 60230 32960 01604 10090 20026 40268 52008;MET045GMMX 122100Z 16004KT CAVOK 09/03 Q1025 NOSIG;EQDQ01+000000PRSWM2Q02  00002PRCP06
0097602300999992000011222004+31620-008030FM-15+0466GMMX V0209999C00001220001CN0099001N1+00801+00201999999ADDMA1102511999999MW1001REMMET045GMMX 122200Z 00000KT CAVOK 08/02 Q1025 NOSIG;EQDQ01+000000PRSWM2
0097602300999992000011223004+31620-008030FM-15+0466GMMX V0209999C00001220001CN0099001N1+00701+00201999999ADDMA1102511999999MW1001REMMET045GMMX 122300Z 00000KT CAVOK 07/02 Q1025 NOSIG;EQDQ01+000000PRSWM2
0224602300999992000011300004+31620-008030SY-MT+0466GMMX V0209999C000012200019N0100001N1+00521+00281102761ADDAA106000091GF100991001001999999001001MA1102511999999MD1410001+9999MW1001REMSYN054AAXX  13004 60230 32960 00000 10052 20028 40276 54000;MET045GMMX 130000Z 00000KT CAVOK 05/03 Q1025 NOSIG;EQDQ01+000000PRSWM2Q02  00002PRCP06
0097602300999992000011301004+31620-008030FM-15+0466GMMX V0209999C00001220001CN0099001N1+00401+00201999999ADDMA1102401999999MW1001REMMET045GMMX 130100Z 00000KT CAVOK 04/02 Q1024 NOSIG;EQDQ01+000000PRSWM2
0097602300999992000011302004+31620-008030FM-15+0466GMMX V0209999C00001220001CN0099001N1+00401+00201999999ADDMA1102401999999MW1001REMMET045GMMX 130200Z 00000KT CAVOK 04/02 Q1024 NOSIG;EQDQ01+000000PRSWM2
0224602300999992000011303004+31620-008030SY-MT+0466GMMX V0209999C000012200019N0100001N1+00301+00141102681ADDAA106000091GF100991001001999999001001MA1102401999999MD1710121+9999MW1001REMSYN054AAXX  13034 60230 32960 00000 10030 20014 40268 57012;MET045GMMX 130300Z 00000KT CAVOK 03/01 Q1024 NOSIG;EQDQ01+000000PRSWM2Q02  00002PRCP06
0097602300999992000011304004+31620-008030FM-15+0466GMMX V0209999C00001220001CN0099001N1+00301+00101999999ADDMA1102401999999MW1001REMMET045GMMX 130400Z 00000KT CAVOK 03/01 Q1024 NOSIG;EQDQ01+000000PRSWM2
0097602300999992000011305004+31620-008030FM-15+0466GMMX V0209999C00001220001CN0099001N1+00301+00101999999ADDMA1102401999999MW1001REMMET045GMMX 130500Z 00000KT CAVOK 03/01 Q1024 NOSIG;EQDQ01+000000PRSWM2
0247602300999992000011306004+31620-008030SY-MT+0466GMMX V0209999C000012200019N0100001N1+00201+00071102711ADDAA106000091GF100991001001999999001001KA1999N+00151MA1102401999999MD1410001+9999MW1001REMSYN064AAXX  13064 60230 32960 00000 10020 20007 40271 54000 333 20015;MET045GMMX 130600Z 00000KT CAVOK 02/01 Q1024 NOSIG;EQDQ01+000000PRSWM2Q02  00002PRCP06
0097602300999992000011307004+31620-008030FM-15+0466GMMX V0209999C00001220001CN0099001N1+00201+00001999999ADDMA1102401999999MW1001REMMET045GMMX 130700Z 00000KT CAVOK 02/00 Q1024 NOSIG;EQDQ01+000000PRSWM2
0097602300999992000011308004+31620-008030FM-15+0466GMMX V0209999C00001220001CN0099001N1+00201+00001999999ADDMA1102511999999MW1001REMMET045GMMX 130800Z 00000KT CAVOK 02/00 Q1025 NOSIG;EQDQ01+000000PRSWM2
0224602300999992000011309004+31620-008030SY-MT+0466GMMX V0209999C000012200019N0100001N1+00301+00031102921ADDAA106000091GF100991001001999999001001MA1102511999999MD1210121+9999MW1001REMSYN054AAXX  13094 60230 32960 00000 10030 20003 40292 52012;MET045GMMX 130900Z 00000KT CAVOK 03/00 Q1025 NOSIG;EQDQ01+000000PRSWM2Q02  00002PRCP06
0126602300999992000011310004+31620-008030FM-15+0466GMMX V0209999C000012200019N0080001N1+00701+00301999999ADDGF100991999999999999999999MA1102511999999MW1001REMMET048GMMX 131000Z 00000KT 8000 SKC 07/03 Q1025 NOSIG;EQDQ01+000000PRSWM2
0122602300999992000011311004+31620-008030FM-15+0466GMMX V02099999999992200019N0006001N1+99999+99999999999ADDMW1001REMMET085GMMX 131100Z 131322 06006KT 8000 FEW200 TEMPO 1519 36010KT 9999 SCT026 SCT100 BKN200;EQDQ01+000000PRSWM2
0278602300999992000011312004+31620-008030SY-MT+0466GMMX V0209999C000012200019N0080001N1+01201+00181102581ADDAA106000091GA1021+060009999GF199999001001999999001021MA1102511999999MD1110041+9999MW1001REMSYN070AAXX  13124 60230 32958 10000 10120 20018 40258 51004 80002 333 81070;MET051GMMX 131200Z 00000KT 8000 FEW200 12/02 Q1025 NOSIG;EQDQ01+000012SCOTCVQ02+000000PRSWM2Q03  00002PRCP06
0097602300999992000011313004+31620-008030FM-15+0466GMMX V0209999C00001220001CN0099001N1+01301+00201999999ADDMA1102401999999MW1001REMMET045GMMX 131300Z 00000KT CAVOK 13/02 Q1024 NOSIG;EQDQ01+000000PRSWM2
0097602300999992000011314004+31620-008030FM-15+0466GMMX V0203601N00211220001CN0099001N1+01401+00201999999ADDMA1102301999999MW1001REMMET045GMMX 131400Z 36004KT CAVOK 14/02 Q1023 NOSIG;EQDQ01+000000PRSWM2
0256602300999992000011315004+31620-008030SY-MT+0466GMMX V0203201N003112200019N0100001N1+01451+00121102271ADDAA106000091GA1011+060009019GF101991001001999999001021MA1102201999999MD1710251+9999MW1001REMSYN070AAXX  13154 60230 32960 13206 10145 20012 40227 57025 80002 333 81070;MET045GMMX 131500Z 32006KT CAVOK 15/01 Q1022 NOSIG;EQDQ01+000000PRSWM2Q02  00002PRCP06
0097602300999992000011316004+31620-008030FM-15+0466GMMX V0203001N00311220001CN0099001N1+01501+00101999999ADDMA1102201999999MW1001REMMET045GMMX 131600Z 30006KT CAVOK 15/01 Q1022 NOSIG;EQDQ01+000000PRSWM2
0098602300999992000011317004+31620-008030FM-15+0466GMMX V0202601N00311220001CN0099001N1+01501-00201999999ADDMA1102201999999MW1001REMMET046GMMX 131700Z 26006KT CAVOK 15/M02 Q1022 NOSIG;EQDQ01+000000PRSWM2
0259602300999992000011318004+31620-008030SY-MT+0466GMMX V0202801N002112200019N0100001N1+01301+00021102201ADDAA106000091GF101991001001999999001021KA1120M+01561MA1102201999999MD1710091+9999MW1001REMSYN076AAXX  13184 60230 32960 12804 10130 20002 40220 57009 80002 333 10156 81070;MET045GMMX 131800Z 28004KT CAVOK 13/00 Q1022 NOSIG;EQDQ01+000000PRSWM2Q02  00002PRCP06
0097602300999992000011319004+31620-008030FM-15+0466GMMX V0202401N00211220001CN0099001N1+01101+00101999999ADDMA1102101999999MW1001REMMET045GMMX 131900Z 24004KT CAVOK 11/01 Q1021 NOSIG;EQDQ01+000000PRSWM2
0097602300999992000011320004+31620-008030FM-15+0466GMMX V0202001N00261220001CN0099001N1+01001+00201999999ADDMA1102101999999MW1001REMMET045GMMX 132000Z 20005KT CAVOK 10/02 Q1021 NOSIG;EQDQ01+000000PRSWM2
0228602300999992000011321004+31620-008030SY-MT+046699999V0202401N00101220001MN0100001N1+00841+00291102281ADDAA199000091GF100991001001999999001001MA1102101999999MD1610041+9999MW1001REMSYN058    AAXX  13214 60230 32960 02402 10084 20029 40228 56004;MET045GMMX 132100Z 24002KT CAVOK 08/03 Q1021 NOSIG;EQDQ01+000000PRSWM2Q02  00002PRCP99
0097602300999992000011322004+31620-008030FM-15+0466GMMX V0202401N00101220001CN0099001N1+00701+00201999999ADDMA1102101999999MW1001REMMET045GMMX 132200Z 24002KT CAVOK 07/02 Q1021 NOSIG;EQDQ01+000000PRSWM2
0097602300999992000011323004+31620-008030FM-15+0466GMMX V0202401N00101220001CN0099001N1+00601+00201999999ADDMA1102101999999MW1001REMMET045GMMX 132300Z 24002KT CAVOK 06/02 Q1021 NOSIG;EQDQ01+000000PRSWM2
0228602300999992000011400004+31620-008030SY-MT+046699999V0202201N00101220001MN0100001N1+00601+00321102321ADDAA199000091GF100991001001999999001001MA1102101999999MD1410001+9999MW1001REMSYN058    AAXX  14004 60230 32960 02202 10060 20032 40232 54000;MET045GMMX 140000Z 22002KT CAVOK 06/03 Q1021 NOSIG;EQDQ01+000000PRSWM2Q02  00002PRCP99
0145602300999992000011401004+31620-008030FM-15+0466GMMX V0202201N001012200019N0112651N1+00601+00301999999ADDGA1021+012009999GF102991999999999999999999MA1102001999999MW1001REMMET051GMMX 140100Z 22002KT 9999 FEW040 06/03 Q1020 NOSIG;EQDQ01+000000PRSWM2
0145602300999992000011402004+31620-008030FM-15+0466GMMX V0202201N001012200019N0112651N1+00701+00301999999ADDGA1021+006009999GF104991999999999999999999MA1102001999999MW1001REMMET051GMMX 140200Z 22002KT 9999 SCT020 07/03 Q1020 NOSIG;EQDQ01+000000PRSWM2
0266602300999992000011403004+31620-008030SY-MT+046699999V0202001N00101220001MN0100001N1+00651+00341102261ADDAA199000091GA1021+006009999GF104991041051004501001001MA1102001999999MD1710101+9999MW1001REMSYN074    AAXX  14034 60230 32460 42002 10065 20034 40226 57010 84500 333 84620;MET051GMMX 140300Z 20002KT 9999 SCT020 07/03 Q1020 NOSIG;EQDQ01+000000PRSWM2Q02  00002PRCP99
0145602300999992000011404004+31620-008030FM-15+0466GMMX V0202201N001012200019N0112651N1+00801+00201999999ADDGA1021+006009999GF104991999999999999999999MA1101901999999MW1001REMMET051GMMX 140400Z 22002KT 9999 SCT020 08/02 Q1019 NOSIG;EQDQ01+000000PRSWM2
0145602300999992000011405004+31620-008030FM-15+0466GMMX V0202201N002112200019N0112651N1+00701+00201999999ADDGA1021+006009999GF104991999999999999999999MA1101801999999MW1001REMMET051GMMX 140500Z 22004KT 9999 SCT020 07/02 Q1018 NOSIG;EQDQ01+000000PRSWM2
0285602300999992000011406004+31620-008030SY-MT+046699999V0201801N00311220001MN0100001N1+00631+00321101901ADDAA199000091GA1021+006009999GF103991031021008001001001KA1120N+00631MA1101691999999MD1610301+9999MW1001REMSYN080    AAXX  14064 60230 32560 31806 10063 20032 40190 56030 83200 333 20063 83820;MET051GMMX 140600Z 18006KT 9999 SCT020 06/03 Q1017 NOSIG;EQDQ01+000000PRSWM2Q02  00002PRCP99
0154602300999992000011407004+31620-008030FM-15+0466GMMX V0201901N004110060019N0080001N1+00701+00301999999ADDGA1071+006009999GF107991999999999999999999MA1101691999999MW1001REMMET060GMMX 140700Z 19008KT 8000 BKN020 07/03 Q1017 TEMPO 6000 RA ;EQDQ01+000000PRSWM2
0156602300999992000011408004+31620-008030FM-15+0466GMMX V0202201N00211220001CN0080001N1+00701+00201999999ADDGA1071+006009999GA2021+024009999MA1101691999999MW1001REMMET056GMMX 140800Z 22004KT 8000 BKN020 SCT080 07/02 Q1017 NSG;EQDQ01+000042SCOTCVQ02+000000PRSWM2
0296602300999992000011409004+31620-008030SY-MT+046699999V0202201N00211004801MN0070001N1+00701+00371101891ADDAY181031AY221031GA1021+003909999GA2071+004809999GF107991051081004501999999MA1101691999999MD1310021+9999MW1801REMSYN086    AAXX  14094 60230 41457 72204 10070 20037 40189 53002 78082 858// 333 82813 85816;MET064GMMX 140900Z 22004KT 7000 -SHRA FEW013 BKN016 07/04 Q1017 NOSIG;EQDQ01    003PRSWM1
0173602300999992000011410004+31620-008030FM-15+0466GMMX V0203001N001010048019N0080001N1+00801+00601999999ADDGA1021+003909999GA2071+004809999GF107991999999999999999999MA1101801999999MW1001REMMET063GMMX 141000Z 30002KT 8000 FEW013 BKN016 08/06 Q1018 RERA NOSIG;EQDQ01+000000PRSWM2
0188602300999992000011411004+31620-008030FM-15+0466GMMX V0202801N001510048019N0050001N1+00801+00701999999ADDGA1021+001809999GA2071+004809999GF107991999999999999999999MA1101801999999MW1611REMMET062GMMX 141100Z 28003KT 5000 -RA FEW006 BKN016 08/07 Q1018 NOSIG;EQDQ01+000003PRSWM1Q02    003PRSWM1
0311602300999992000011412004+31620-008030SY-MT+046699999V0202601N00151004801MN0060001N1+00831+00771101921ADDAA106003091AY161061AY261061GA1021+001809999GA2071+004809999GF108991081081002501999999MA1101801999999MD1010041+9999MW1611REMSYN092    AAXX  14124 60230 11356 82603 10083 20077 40192 50004 60031 76166 888// 333 83806 87816;MET062GMMX 141200Z 26003KT 6000 -RA SCT006 BKN016 08/08 Q1018 NOSIG;EQDQ01    003PRSWM1
0168602300999992000011414004+31620-008030FM-15+0466GMMX V0202401N002110060019N0060001N1+00901+00801999999ADDGA1021+003909999GA2071+006009999GF107991999999999999999999MA1101491999999MW1001REMMET058GMMX 141400Z 24004KT 6000 SCT013 BKN020 09/08 Q1015 NOSIG;EQDQ01+000000PRSWM2
0168602300999992000011414304+31620-008030FM-15+0466GMMX V0202101N004110060019N0060001N1+01001+00701999999ADDGA1021+003909999GA2071+006009999GF107991999999999999999999MA1101391999999MW1001REMMET058GMMX 141530Z 21008KT 6000 SCT013 BKN020 10/07 Q1014 NOSIG;EQDQ01+000000PRSWM2
0176602300999992000011415004+31620-008030FM-12+046699999V0202401N00211009001CN0060001N1+00981+00721101571ADDAY121031AY261031GA1031+003909089GF108991081081004501999999MD1710311+9999MW1001REMSYN086    AAXX  14154 60230 41456 82404 10098 20072 40157 57031 70026 888// 333 83813 87820;
0162602300999992000011416004+31620-008030FM-15+0466GMMX V0202201N003110060019N0060001N1+01001+00801999999ADDGA1021+003909999GA2071+006009999GF107991999999999999999999MA1101391999999MW1001REMMET052GMMX 141600Z 22006KT 6000 SCT013 BKN020 10/08 Q1014;EQDQ01+000000PRSWM2
0205602300999992000011417004+31620-008030FM-15+0466GMMX V0202801N00311220001CN0060001N1+00801+00701999999ADDGA1021+003909999GA2071+006009999GA3021+007809099MA1101391999999MW1801REMMET073GMMX 141700Z 28006KT 6000 -SHRA FEW013 BKN020 FEW026CB 08/07 Q1014 NOSIG;EQDQ01+000022SCOTCVQ02+000003PRSWM1Q03    003PRSWM1
0334602300999992000011418004+31620-008030SY-MT+046699999V0202201N00411006001MN0060001N1+00811+00681101551ADDAA112007191AY181061AY221061GA1071+006009999GA2021+007809099GF108991081091008001999999KA1120M+01021MA1101391999999MD1710041+9999MW1801REMSYN098    AAXX  14184 60230 11556 82208 10081 20068 40155 57004 60072 78082 889// 333 10102 87820 82926;MET066GMMX 141800Z 22008KT 6000 -SHRA BKN020 FEW026CB 08/07 Q1014 NOSIG;EQDQ01    003PRSWM1
0160602300999992000011419004+31620-008030FM-15+0466GMMX V0202101N00361220001CN0080001N1+00801+00701999999ADDGA1071+006009999GA2021+007809099MA1101391999999MW1001REMMET060GMMX 141900Z 21007KT 8000 BKN020 FEW026CB 08/07 Q1014 NOSIG;EQDQ01+000022SCOTCVQ02+000000PRSWM2
0158602300999992000011420004+31620-008030FM-15+0466GMMX V0202001N00311220001CN0080001N1+00801+00601999999ADDGA1071+006009999GA2021+007809999MA1101391999999MW1001REMMET058GMMX 142000Z 20006KT 8000 BKN020 FEW026 08/06 Q1014 NOSIG;EQDQ01+000022SCOTCVQ02+000000PRSWM2
0325602300999992000011421004+31620-008030SY-MT+046699999V0202201N00101006001MN0080001N1+00801+00651101631ADDAY181031AY221031GA1021+003009999GA2071+006009999GA3021+007809099GF108991081091004501999999MA1101491999999MD1210081+9999MW1801REMSYN092    AAXX  14214 60230 41458 82202 10080 20065 40163 52008 78082 889// 333 81810 86820 82926;MET071GMMX 142100Z 22002KT 8000 -SHRA FEW010 BKN020 FEW026CB 08/07 Q1015 NSG;EQDQ01    003PRSWM1
0158602300999992000011422004+31620-008030FM-15+0466GMMX V0202401N00211220001CN0080001N1+00801+00601999999ADDGA1071+006009999GA2021+007809099MA1101491999999MW1001REMMET058GMMX 142200Z 24004KT 8000 BKN020 FEW026CB 08/06 Q1015 NSG;EQDQ01+000022SCOTCVQ02+000000PRSWM2
0143602300999992000011423004+31620-008030FM-15+0466GMMX V0202401N002110060019N0080001N1+00701+00601999999ADDGA1071+006009999GF107991999999999999999999MA1101491999999MW1001REMMET049GMMX 142300Z 24004KT 8000 BKN020 07/06 Q1015 NSG;EQDQ01+000000PRSWM2
0294602300999992000011500004+31620-008030SY-MT+046699999V0202001N00101220001MN0080001N1+00671+00511101671ADDAA106000191AY181061AY221061GA1021+006009999GF103991021021008001081001MA1101491999999MD1110011+9999MW1011REMSYN086    AAXX  15004 60230 11558 32002 10067 20051 40167 51001 69921 70182 82280 333 82820;MET051GMMX 150000Z 20002KT 8000 FEW020 07/05 Q1015 NOSIG;EQDQ01+000000PRSWM2Q02    003PRSWM1
0143602300999992000011501004+31620-008030FM-15+0466GMMX V0202401N001012200019N0112651N1+00601+00501999999ADDGA1021+006009999GF102991999999999999999999MA1101491999999MW1001REMMET049GMMX 150100Z 24002KT 9999 FEW020 06/05 Q1015 NSG;EQDQ01+000000PRSWM2
0143602300999992000011502004+31620-008030FM-15+0466GMMX V0202001N002112200019N0112651N1+00601+00501999999ADDGA1021+006009999GF102991999999999999999999MA1101491999999MW1001REMMET049GMMX 150200Z 20004KT 9999 FEW020 06/05 Q1015 NSG;EQDQ01+000000PRSWM2
0248602300999992000011503004+31620-008030SY-MT+046699999V0202401N00211220001MN0100001N1+00511+00371101511ADDAA199000021GA1021+006009999GF102991021021008001001001MA1101291999999MD1710171+9999MW1001REMSYN074    AAXX  15034 60230 32560 22404 10051 20037 40151 57017 82200 333 82820;MET049GMMX 150300Z 20002KT 9999 FEW020 05/04 Q1013 NSG;EQDQ01+000000PRSWM2
0143602300999992000011504004+31620-008030FM-15+0466GMMX V0202201N001012200019N0112651N1+00501+00301999999ADDGA1021+006009999GF102991999999999999999999MA1101291999999MW1001REMMET049GMMX 150400Z 22002KT 9999 FEW020 05/03 Q1013 NSG;EQDQ01+000000PRSWM2
0145602300999992000011505004+31620-008030FM-15+0466GMMX V0209999C000012200019N0080001N1+00501+00301999999ADDGA1021+006009999GF104991999999999999999999MA1101291999999MW1001REMMET051GMMX 150500Z 00000KT 8000 SCT020 05/03 Q1013 NOSIG;EQDQ01+000000PRSWM2
0273602300999992000011506004+31620-008030SY-MT+046699999V0209999C00001220001MN0080001N1+00461+00311101501ADDAA124007191GA1021+006009999GF103991031021008001001001KA1120N+00461MA1101291999999MD1610041+9999MW1001REMSYN086    AAXX  15064 60230 12558 30000 10046 20031 40150 56004 60074 83200 333 20046 83820;MET049GMMX 150600Z 00000 8000 SCT020 05/03 Q1013 NOSIG;EQDQ01+000000PRSWM2
0145602300999992000011507004+31620-008030FM-15+0466GMMX V0209999C000012200019N0080001N1+00501+00301999999ADDGA1021+006009999GF104991999999999999999999MA1101291999999MW1001REMMET051GMMX 150700Z 00000KT 8000 SCT020 05/03 Q1013 NOSIG;EQDQ01+000000PRSWM2
0145602300999992000011508004+31620-008030FM-15+0466GMMX V0209999C000012200019N0060001N1+00401+00301999999ADDGA1021+006009999GF104991999999999999999999MA1101291999999MW1001REMMET051GMMX 150800Z 00000KT 6000 SCT020 04/03 Q1013 NOSIG;EQDQ01+000000PRSWM2
0297602300999992000011509004+31620-008030SY-MT+046699999V0209999C00001006001MN0080001N1+00501+00351101611ADDAA199000021GA1071+006009999GA2021+009009099GF199999061091008001001001MA1101391999999MD1210121+9999MW1001REMSYN080    AAXX  15094 60230 32558 60000 10050 20035 40161 52012 86900 333 85820 81930;MET060GMMX 150900Z 00000KT 8000 BKN020 FEW030CB 05/04 Q1014 NOSIG;EQDQ01+000062SCOTCVQ02+000000PRSWM2
0170602300999992000011510004+31620-008030FM-15+0466GMMX V0209999C000012200019N0112651N1+00701+00501999999ADDGA1021+006009999GA2021+009009099GF102991999999999999999999MA1101391999999MW1001REMMET060GMMX 151000Z 00000KT 9999 SCT020 FEW030CB 07/05 Q1014 NOSIG;EQDQ01+000000PRSWM2
0170602300999992000011511004+31620-008030FM-15+0466GMMX V0209999C000012200019N0112651N1+00901+00501999999ADDGA1021+006009999GA2021+009009099GF102991999999999999999999MA1101391999999MW1001REMMET060GMMX 151100Z 00000KT 9999 SCT020 FEW030CB 09/05 Q1014 NOSIG;EQDQ01+000000PRSWM2
0297602300999992000011512004+31620-008030SY-MT+046699999V0202601N00311007501CN0100001N1+01061+00501101481ADDAA199000091GA1021+006009999GA2021+009009099GF106991051091008001031001MA1101391999999MD1810011+9999MW1001REMSYN080    AAXX  15124 60230 32560 62606 10106 20050 40148 58001 85930 333 84820 81930;MET060GMMX 151200Z 26006KT 9999 SCT020 FEW030CB 11/05 Q1014 NOSIG;EQDQ01+000000PRSWM2Q02  00002PRCP99
0170602300999992000011513004+31620-008030FM-15+0466GMMX V0202401N002112200019N0112651N1+01101+00401999999ADDGA1021+006009999GA2021+009009099GF102991999999999999999999MA1101291999999MW1001REMMET060GMMX 151300Z 24004KT 9999 SCT020 FEW030CB 11/04 Q1013 NOSIG;EQDQ01+000000PRSWM2
0168602300999992000011514004+31620-008030FM-15+0466GMMX V0202601N002110078019N0112651N1+01201+00501999999ADDGA1021+006009999GA2071+007809999GF107991999999999999999999MA1101191999999MW1001REMMET058GMMX 151400Z 26004KT 9999 SCT020 BKN026 12/05 Q1012 NOSIG;EQDQ01+000000PRSWM2
0295602300999992000011515004+31620-008030SY-MT+046699999V0203001N00211007801MN0100001N1+01171+00611101261ADDAA199000091GA1021+006009999GA2071+007809999GF107991071081008001999999MA1101191999999MD1610181+9999MW1001REMSYN080    AAXX  15154 60230 32560 73004 10117 20061 40126 56018 878// 333 83820 86626;MET058GMMX 151500Z 32004KT 9999 SCT020 BKN026 12/06 Q1012 NOSIG;EQDQ01+000000PRSWM2Q02  00002PRCP99
0168602300999992000011516004+31620-008030FM-15+0466GMMX V0203001N003110078019N0112651N1+01101+00501999999ADDGA1021+006009999GA2071+007809999GF107991999999999999999999MA1101081999999MW1001REMMET058GMMX 151600Z 30006KT 9999 SCT020 BKN026 11/05 Q1011 NOSIG;EQDQ01+000000PRSWM2
0145602300999992000011517004+31620-008030FM-15+0466GMMX V0203201N004112200019N0112651N1+01001+00501999999ADDGA1021+007809999GF104991999999999999999999MA1101081999999MW1001REMMET051GMMX 151700Z 32008KT 9999 SCT026 10/05 Q1011 NOSIG;EQDQ01+000000PRSWM2
0314602300999992000011518004+31620-008030SY-MT+046699999V0203201N00211007801MN0100001N1+00901+00561101361ADDAA199000091GA1021+006009999GA2071+007809999GF107991071081008001999999KA1120M+01281MA1101191999999MD1210031+9999MW1001REMSYN086    AAXX  15184 60230 32560 73204 10090 20056 40136 52003 878// 333 10128 83820 86626;MET058GMMX 151800Z 32004KT 9999 SCT020 BKN026 09/06 Q1012 NOSIG;EQDQ01+000000PRSWM2Q02  00002PRCP99
0168602300999992000011519004+31620-008030FM-15+0466GMMX V0202801N001010078019N0112651N1+00901+00701999999ADDGA1021+006009999GA2071+007809999GF107991999999999999999999MA1101291999999MW1001REMMET058GMMX 151900Z 28002KT 9999 SCT020 BKN026 09/07 Q1013 NOSIG;EQDQ01+000000PRSWM2
0266602300999992000011521004+31620-008030SY-MT+046699999V0202201N00211220001MN0100001N1+00781+00611101601ADDAA199000091GA1021+006909999GF104991041021008001001001MA1101391999999MD1110211+9999MW1001REMSYN074    AAXX  15214 60230 32560 42204 10078 20061 40160 51021 84200 333 84823;MET051GMMX 152100Z 22004KT 9999 SCT023 08/06 Q1014 NOSIG;EQDQ01+000000PRSWM2Q02  00002PRCP99
0145602300999992000011522004+31620-008030FM-15+0466GMMX V0201201N002112200019N0112651N1+00701+00601999999ADDGA1021+006909999GF104991999999999999999999MA1101391999999MW1001REMMET051GMMX 152200Z 12004KT 9999 SCT023 07/06 Q1014 NOSIG;EQDQ01+000000PRSWM2
0145602300999992000011523004+31620-008030FM-15+0466GMMX V0200801N002112200019N0112651N1+00601+00501999999ADDGA1021+006909999GF104991999999999999999999MA1101391999999MW1001REMMET051GMMX 152300Z 08004KT 9999 SCT023 06/05 Q1014 NOSIG;EQDQ01+000000PRSWM2
0266602300999992000011600004+31620-008030SY-MT+046699999V0200801N00211220001MN0100001N1+00601+00491101601ADDAA199000091GA1021+006009999GF103991021021008001031001MA1101391999999MD1810041+9999MW1001REMSYN074    AAXX  16004 60230 32560 30804 10060 20049 40160 58004 82230 333 82820;MET051GMMX 160000Z 08004KT 9999 FEW020 06/05 Q1014 NOSIG;EQDQ01+000000PRSWM2Q02  00002PRCP99
0168602300999992000011601004+31620-008030FM-15+0466GMMX V0201001N002112200019N0112651N1+00601+00501999999ADDGA1021+006009999GA2021+030009999GF104991999999999999999999MA1101391999999MW1001REMMET058GMMX 160100Z 10004KT 9999 FEW020 SCT100 06/05 Q1014 NOSIG;EQDQ01+000000PRSWM2
