0144605150999992000010109004+35330+004200FM-12+0461DAAD V0209999C000012200019N0100001N1+00301-00281103061ADDGA1021+060009009GF102991001001999999001021MD1310091+9999REMSYN076AAXX  01094 60515 42960 20000 10030 21028 40306 53009 80002 333 82070 95990;
0180605150999992000010112004+35330+004200FM-12+0461DAAD V0209999C000012200019N0100001N1+00981-00091102971ADDAA106000091GA1021+009009089GF103991021021008001001021MD1810071+9999REMSYN082AAXX  01124 60515 32560 30000 10098 21009 40297 58007 82202 333 0//00 82830 95900;EQDQ01  00002PRCP06
0181605150999992000010118004+35330+004200FM-12+0461DAAD V0203601N003112200019N0100001N1+00841-00201102731ADDAA106000091GA1001+999999999GF100991001001999999001001KA1120M+01141MD1610031+9999REMSYN070AAXX  01184 60515 32560 03606 10084 21020 40273 56003 333 10114 95990;EQDQ01  00002PRCP06
0211605150999992000010206004+35330+004200FM-12+0461DAAD V0203201N001012200019N0100001N1+00241-00151103141ADDAA106000091GA1021+009909089GF102991021021012501001001IA2240-00309KA1120N+00131MD1610031+9999REMSYN088AAXX  02064 60515 33660 23202 10024 21015 40314 56003 82200 333 05300 20013 82833 95990;EQDQ01  00002PRCP06
0144605150999992000010209004+35330+004200FM-12+0461DAAD V0201801N002112200019N0100001N1+00741+00291103191ADDGA1031+009909089GF103991031021012501001001MD1210141+9999REMSYN076AAXX  02094 60515 42660 31804 10074 20029 40319 52014 83200 333 83833 95900;
0180605150999992000010212004+35330+004200FM-12+0461DAAD V0203001N003110090019N0100001N1+01111+00191103101ADDAA106000091GA1071+009009089GF107991071021008001999999MD1810051+9999REMSYN082AAXX  02124 60515 32560 73006 10111 20019 40310 58005 872// 333 0//00 87830 95900;EQDQ01  00002PRCP06
0144605150999992000010215004+35330+004200FM-12+0461DAAD V0200401N003110090019N0100001N1+01151+00221102981ADDGA1071+009009089GF107991071021008001999999MD1710121+9999REMSYN076AAXX  02154 60515 42560 70406 10115 20022 40298 57012 872// 333 87830 95900;
0211605150999992000010306004+35330+004200FM-12+0461DAAD V0209999C000010090019N0080001N1+00231-00501103191ADDAA106000091GA1061+009009089GF106991061021008001001001IA2240-00309KA1120N+00221MD1110021+9999REMSYN088AAXX  03064 60515 33558 60000 10023 21050 40319 51002 86200 333 05300 20022 86830 95990;EQDQ01  00002PRCP06
0138605150999992000010309004+35330+004200FM-12+0461DAAD V0200401N002110090019N0080001N1+00601+00411999999ADDGA1071+009009089GF107991071021008001999999MD1310101+9999REMSYN070AAXX  03094 60515 42558 70404 10060 20041 53010 872// 333 87830 95900;
0180605150999992000010312004+35330+004200FM-12+0461DAAD V0209999C000012200019N0150001N1+01071+00391103191ADDAA106000091GA1031+007809089GF103991031021008001001001MD1810061+9999REMSYN082AAXX  03124 60515 32565 30000 10107 20039 40319 58006 83200 333 0//00 83826 95900;EQDQ01  00002PRCP06
0144605150999992000010315004+35330+004200FM-12+0461DAAD V0209999C000012200019N0150001N1+01181+00141103051ADDGA1031+007809089GF103991031021008001001001MD1710131+9999REMSYN076AAXX  03154 60515 42565 30000 10118 20014 40305 57013 83200 333 83826 95900;
0193605150999992000010318004+35330+004200FM-12+0461DAAD V0209999C000012200019N0100001N1+01021+00201103001ADDAA106000091GA1021+007809089GF102991021021008001001001KA1120M+01211MD1610051+9999REMSYN082AAXX  03184 60515 32560 20000 10102 20020 40300 56005 82200 333 10121 82826 95990;EQDQ01  00002PRCP06
0199605150999992000010406004+35330+004200FM-12+0461DAAD V0203001N001012200019N0100001N1+00141-00391103251ADDAA106000091GA1001+999999999GF100991001001999999001001IA2240-00309KA1120N+00091MD1610011+9999REMSYN076AAXX  04064 60515 33960 03002 10014 21039 40325 56001 333 05300 20009 95990;EQDQ01  00002PRCP06
0132605150999992000010409004+35330+004200FM-12+0461DAAD V0201801N001012200019N0100001N1+00451+00211103421ADDGA1001+999999999GF100991001001999999001001MD1310141+9999REMSYN064AAXX  04094 60515 42960 01802 10045 20021 40342 53014 333 95900;
0180605150999992000010412004+35330+004200FM-12+0461DAAD V0203601N001012200019N0100001N1+00901+00311103341ADDAA106000091GA1021+009909089GF102991021021012501001001MD1810051+9999REMSYN082AAXX  04124 60515 32660 23602 10090 20031 40334 58005 82200 333 0//00 82833 95900;EQDQ01  00002PRCP06
0193605150999992000010418004+35330+004200FM-12+0461DAAD V0200401N001012200019N0100001N1+00771+00411103151ADDAA106000091GA1031+009009089GF103991031021008001001001KA1120M+01071MD1610071+9999REMSYN082AAXX  04184 60515 32560 30402 10077 20041 40315 56007 83200 333 10107 83830 95990;EQDQ01  00002PRCP06
0199605150999992000010506004+35330+004200FM-12+0461DAAD V0209999C000012200019N0100001N1-00321-00341103281ADDAA106000091GA1001+999999999GF100991001001999999001001IA2240-00509KA1120N-00401MD1610011+9999REMSYN076AAXX  05064 60515 33960 00000 11032 21034 40328 56001 333 05500 21040 95990;EQDQ01  00002PRCP06
0132605150999992000010509004+35330+004200FM-12+0461DAAD V0209999C000012200019N0100001N1+00361+00261103201ADDGA1001+999999999GF100991001001999999001001MD1010031+9999REMSYN064AAXX  05094 60515 42960 00000 10036 20026 40320 50003 333 95900;
0168605150999992000010512004+35330+004200FM-12+0461DAAD V0209999C000012200019N0100001N1+00761+00251103081ADDAA106000091GA1001+999999999GF100991001001999999001001MD1810091+9999REMSYN070AAXX  05124 60515 32960 00000 10076 20025 40308 58009 333 0//00 95900;EQDQ01  00002PRCP06
0132605150999992000010515004+35330+004200FM-12+0461DAAD V0209999C000012200019N0100001N1+00981+00301102871ADDGA1001+999999999GF100991001001999999001001MD1710181+9999REMSYN064AAXX  05154 60515 42560 00000 10098 20030 40287 57018 333 95900;
0181605150999992000010518004+35330+004200FM-12+0461DAAD V0209999C000012200019N0100001N1+00731+00281102801ADDAA106000091GA1001+999999999GF100991001001999999001001KA1120M+01001MD1610091+9999REMSYN070AAXX  05184 60515 32560 00000 10073 20028 40280 56009 333 10100 95990;EQDQ01  00002PRCP06
0199605150999992000010606004+35330+004200FM-12+0461DAAD V0203401N002112200019N0100001N1+00221-00071102851ADDAA106000091GA1001+999999999GF100991001001999999001001IA2240-00309KA1120N+00141MD1410001+9999REMSYN076AAXX  06064 60515 33960 03404 10022 21007 40285 54000 333 05300 20014 95990;EQDQ01  00002PRCP06
0132605150999992000010609004+35330+004200FM-12+0461DAAD V0209999C000012200019N0100001N1+00501+00231102951ADDGA1001+999999999GF100991001001999999001001MD1310071+9999REMSYN064AAXX  06094 60515 42960 00000 10050 20023 40295 53007 333 95900;
0199605150999992000010706004+35330+004200FM-12+0461DAAD V0209999C000012200019N0100001N1+00021+00001103031ADDAA106000091GA1001+999999999GF100991001001999999001001IA2240-00409KA1120N+00001MD1310211+9999REMSYN076AAXX  07064 60515 33960 00000 10002 20000 40303 53021 333 05400 20000 95900;EQDQ01  00002PRCP06
0132605150999992000010709004+35330+004200FM-12+0461DAAD V0209999C000012200019N0100001N1+00481+00341103071ADDGA1001+999999999GF100991001001999999001001MD1110041+9999REMSYN064AAXX  07094 60515 42960 00000 10048 20034 40307 51004 333 95900;
0168605150999992000010712004+35330+004200FM-12+0461DAAD V0209999C000012200019N0100001N1+00801+00591102911ADDAA106000091GA1001+999999999GF100991001001999999001001MD1810111+9999REMSYN070AAXX  07124 60515 32960 00000 10080 20059 40291 58011 333 0//00 95900;EQDQ01  00002PRCP06
0132605150999992000010715004+35330+004200FM-12+0461DAAD V0209999C000012200019N0100001N1+01231+00271102691ADDGA1001+999999999GF100991001001999999001001MD1610161+9999REMSYN064AAXX  07154 60515 42960 00000 10123 20027 40269 56016 333 95900;
0181605150999992000010718004+35330+004200FM-12+0461DAAD V0209999C000012200019N0100001N1+00801+00351102601ADDAA106000091GA1001+999999999GF100991001001999999001001KA1120M+01241MD1610091+9999REMSYN070AAXX  07184 60515 32960 00000 10080 20035 40260 56009 333 10124 95990;EQDQ01  00002PRCP06
0223605150999992000010806004+35330+004200FM-12+0461DAAD V0209999C000010001519N0000001N1+00011+00011102841ADDAA106000091GA1091+999999999GF109991091999999999999999IA2240-00409KA1120N-00041MD1510021+9999MW1491REMSYN094AAXX  08064 60515 31/00 90000 10001 20001 40284 55002 749// 89/// 333 05400 21004 89/// 95990;EQDQ01  00002PRCP06
0185605150999992000010809004+35330+004200FM-12+0461DAAD V0202601N001010001519N0000001N1+00251+00251102971ADDAY141031AY241031GA1091+999999999GF109991091999999999999999MD1210141+9999REMSYN082AAXX  08094 60515 41/00 92602 10025 20025 40297 52014 74944 89/// 333 89/// 95990;EQDQ01+000492PRSWM1
0208605150999992000010812004+35330+004200FM-12+0461DAAD V0202601N002110003019N0018001N1+00401+00281102991ADDAA106000091AY141061AY221061GA1071+000309079GF107991071061000251999999MD1010001+9999MW1401REMSYN088AAXX  08124 60515 31018 72604 10040 20028 40299 50000 74042 876// 333 0//00 87701 95990;EQDQ01  00002PRCP06
0144605150999992000010815004+35330+004200FM-12+0461DAAD V0209999C000012200019N0080001N1+00931+00401102701ADDGA1021+001209079GF102991021071001501061001MD1710211+9999REMSYN076AAXX  08154 60515 42258 20000 10093 20040 40270 57021 82760 333 82704 95900;
0223605150999992000010906004+35330+004200FM-12+0461DAAD V0209999C000010003019N0040001N1+00221+00171102781ADDAA106000091GA1071+000309079GF107991071061999999999999IA2240-00109KA1120N+00141MD1610031+9999MW1461REMSYN094AAXX  09064 60515 31/40 70000 10022 20017 40278 56003 746// 876// 333 05100 20014 87701 95990;EQDQ01  00002PRCP06
0185605150999992000010909004+35330+004200FM-12+0461DAAD V0209999C000010001519N0000001N1+00201+00151102831ADDAY141031AY241031GA1091+999999999GF109991091999999999999999MD1310031+9999REMSYN082AAXX  09094 60515 41/00 90000 10020 20015 40283 53003 74944 89/// 333 89/// 95990;EQDQ01+000492PRSWM1
0208605150999992000010912004+35330+004200FM-12+0461DAAD V0209999C000010003019N0030001N1+00401+00281102781ADDAA106000091AY141061AY221061GA1071+000309079GF107991071061000251999999MD1010051+9999MW1401REMSYN088AAXX  09124 60515 31030 70000 10040 20028 40278 50005 74042 876// 333 0//00 87701 95990;EQDQ01  00002PRCP06
0166605150999992000010915004+35330+004200FM-12+0461DAAD V0209999C000010240019N0080001N1+00881+00421999999ADDGA1021+009909089GA2041+024009039GF106991021021012501071001MD1710271+9999REMSYN082AAXX  09154 60515 42658 60000 10088 20042 4//// 57027 82270 333 82833 84358 95900;
0233605150999992000011006004+35330+004200FM-12+0461DAAD V0209999C000010001519N0000001N1+00221+00221102721ADDAA106000091GA1091+999999999GF109991091999999999999999IA2240-00109KA1120N+00141MD1110061+9999REMSYN094AAXX  10064 60515 31/00 90000 10022 20022 40272 51006 749// 89/// 333 05100 20014 89/// 95990;EQDQ01+000492PRSWM1Q02  00002PRCP06
0172605150999992000011009004+35330+004200FM-12+0461DAAD V0200401N002119999999N9999999N1+00061+00061102951ADDAY141031AY241031GA1091+999999999GF109991091999999999999999MD1210181+9999MW1491REMSYN082AAXX  10094 60515 41//0 90404 10006 20006 40295 52018 74944 89/// 333 89/// 95990;
0144605150999992000011015004+35330+004200FM-12+0461DAAD V0209999C000012200019N0070001N1+01001+00351102711ADDGA1021+007809089GF102991021021008001001001MD1710151+9999REMSYN076AAXX  10154 60515 42557 20000 10100 20035 40271 57015 82200 333 82826 95900;
0181605150999992000011018004+35330+004200FM-12+0461DAAD V0209999C000012200019N0100001N1+00671+00371102661ADDAA106000091GA1001+999999999GF100991001001999999001001KA1120M+01091MD1610061+9999REMSYN070AAXX  10184 60515 32960 00000 10067 20037 40266 56006 333 10109 95990;EQDQ01  00002PRCP06
0223605150999992000011106004+35330+004200FM-12+0461DAAD V0209999C000010001519N0000001N1+00001+00001103151ADDAA106000091GA1091+999999999GF109991091999999999999999IA2240-00709KA1120N-00661MD1310121+9999MW1491REMSYN094AAXX  11064 60515 31/00 90000 10000 20000 40315 53012 749// 89/// 333 05700 21066 89/// 95990;EQDQ01  00002PRCP06
0156605150999992000011109004+35330+004200FM-12+0461DAAD V0209999C000010001519N0000001N1+00181+00001103331ADDGA1091+999999999GF109991091999999999999999MD1210171+9999MW1491REMSYN082AAXX  11094 60515 41/00 90000 10018 20000 40333 52017 749// 89/// 333 89/// 95990;
0196605150999992000011112004+35330+004200FM-12+0461DAAD V0209999C000010006019N0010001N1+00341+00021103251ADDAA106000091GA1091+999999999GF109991091999999999999999MD1810051+9999REMSYN082AAXX  11124 60515 31/10 90000 10034 20002 40325 58005 749// 333 0//00 89/// 95990;EQDQ01+000492PRSWM1Q02  00002PRCP06
0144605150999992000011115004+35330+004200FM-12+0461DAAD V0209999C000012200019N0100001N1+00991+00311103161ADDGA1011+009909089GF103991011021012501001021MD1710141+9999REMSYN076AAXX  11154 60515 42660 30000 10099 20031 40316 57014 81202 333 81833 95900;
0215605150999992000011118004+35330+004200FM-12+0461DAAD V0209999C000012200019N0100001N1+00671+00281103001ADDAA106000091GA1011+009909089GA2031+060009009GF104991011021012501001021KA1120M+01021MD1610161+9999REMSYN088AAXX  11184 60515 32660 40000 10067 20028 40300 56016 81202 333 10102 81833 83070 95990;EQDQ01  00002PRCP06
0205605150999992000011206004+35330+004200FM-12+0461DAAD V0200201N002112200019N0100001N1-00091-00171103071ADDAA106000091GA1001+999999999GF100991001001999999001001IA2240-00409KA1120N-00121MD1710061+9999REMSYN082AAXX  12064 60515 33960 00204 11009 21017 40307 57006 80002 333 05400 21012 95990;EQDQ01  00002PRCP06
0144605150999992000011209004+35330+004200FM-12+0461DAAD V0203401N002112200019N0100001N1+00351+00091103171ADDGA1021+069009009GF102991001001999999001021MD1310091+9999REMSYN076AAXX  12094 60515 42960 23404 10035 20009 40317 53009 80002 333 82073 95900;
0180605150999992000011212004+35330+004200FM-12+0461DAAD V0201401N001012200019N0100001N1+00901+00051103021ADDAA106000091GA1021+009909089GF102991021021012501001021MD1810101+9999REMSYN082AAXX  12124 60515 32660 21402 10090 20005 40302 58010 82202 333 0//00 82833 95900;EQDQ01  00002PRCP06
0144605150999992000011215004+35330+004200FM-12+0461DAAD V0209999C000012200019N0100001N1+01151+00091102781ADDGA1021+009909089GF102991021021012501001001MD1710201+9999REMSYN076AAXX  12154 60515 42660 20000 10115 20009 40278 57020 82200 333 82833 95900;
0211605150999992000011306004+35330+004200FM-12+0461DAAD V0202901N006210090019N0100001N1+00501+00121102551ADDAA106000091GA1051+009009089GF105991051021008001001001IA2240+00209KA1120N+00361MD1710071+9999REMSYN088AAXX  13064 60515 33560 52912 10050 20012 40255 57007 85200 333 00200 20036 85830 95990;EQDQ01  00002PRCP06
0144605150999992000011309004+35330+004200FM-12+0461DAAD V0202901N005112200019N0100001N1+00751+00151102511ADDGA1031+009009089GF103991031021008001001001MD1510021+9999REMSYN076AAXX  13094 60515 42560 32910 10075 20015 40251 55002 83200 333 83830 95900;
0180605150999992000011312004+35330+004200FM-12+0461DAAD V0203301N005110078019N0100001N1+01001+00001102301ADDAA106000091GA1051+007809089GF105991051021008001001001MD1810151+9999REMSYN082AAXX  13124 60515 32560 53310 10100 20000 40230 58015 85200 333 0//00 85826 95900;EQDQ01  00002PRCP06
0144605150999992000011315004+35330+004200FM-12+0461DAAD V0203101N004110078019N0100001N1+01171+00081102131ADDGA1061+007809089GF106991061021008001001001MD1710201+9999REMSYN076AAXX  13154 60515 42560 63108 10117 20008 40213 57020 86200 333 86826 95900;
0237605150999992000011406004+35330+004200FM-12+046199999V0202801N00621220001AN0100001N1+00641+00171101961ADDAA124001091GA1031+024009089GF199999021999022501041001IA2240+00209KA1120N+00441MD1710071+9999REMSYN098    AAXX  14064 60515 13860 22812 10064 20017 40196 57007 60014 82040 333 00200 20044 83858 95990;EQDQ01+000022SCOTCVQ02    003SCOLCG
0148605150999992000011409004+35330+004200FM-12+046199999V0202801N00311220001AN0100001N1+00701-00031101981ADDGA1021+069009009GF102991001001999999001021MD1310031+9999REMSYN080    AAXX  14094 60515 42960 22806 10070 21003 40198 53003 80002 333 82073 95900;
0184605150999992000011412004+35330+004200FM-12+046199999V0201601N00211220001AN0100001N1+01101-00091101801ADDAA199000091GA1021+009909089GF103991021021012501001021MD1810121+9999REMSYN086    AAXX  14124 60515 32660 31604 10110 21009 40180 58012 82202 333 0//00 82833 95900;EQDQ01  00002PRCP99
0148605150999992000011415004+35330+004200FM-12+046199999V0200801N00511220001AN0100001N1+01111+00151101661ADDGA1031+009009089GF103991031021008001001021MD1710141+9999REMSYN080    AAXX  14154 60515 42560 30810 10111 20015 40166 57014 83202 333 83830 95900;
0197605150999992000011418004+35330+004200FM-12+046199999V0201001N00411220001AN0100001N1+00801+00171101631ADDAA199000091GA1041+007809089GF104991041021008001001001KA1120M+01231MD1610031+9999REMSYN086    AAXX  14184 60515 32560 41008 10080 20017 40163 56003 84200 333 10123 84826 95990;EQDQ01  00002PRCP99
0215605150999992000011506004+35330+004200FM-12+046199999V0202201N00211220001AN0100001N1+00641+00101102021ADDAA199000091GA1021+069009009GF102991001001999999001021IA2240+00109KA1120N+00551MD1110051+9999REMSYN092    AAXX  15064 60515 33960 22204 10064 20010 40202 51005 80002 333 00100 20055 82073 95990;EQDQ01  00002PRCP99
0148605150999992000011509004+35330+004200FM-12+046199999V0200401N00101220001AN0100001N1+00351+00091102301ADDGA1011+069009009GF101991001001999999001021MD1310201+9999REMSYN080    AAXX  15094 60515 42960 10402 10035 20009 40230 53020 80002 333 81073 95900;
0184605150999992000011512004+35330+004200FM-12+046199999V0201101N00211220001AN0100001N1+00981+00191102291ADDAA199000091GA1011+009909089GF103991011021012501001021MD1810031+9999REMSYN086    AAXX  15124 60515 32660 31104 10098 20019 40229 58003 81202 333 0//00 81833 95900;EQDQ01  00002PRCP99
0148605150999992000011515004+35330+004200FM-12+046199999V0203601N00311220001AN0100001N1+01101+00261102141ADDGA1021+007809089GF102991021021008001001001MD1710121+9999REMSYN080    AAXX  15154 60515 42560 23606 10110 20026 40214 57012 82200 333 82826 95900;
0203605150999992000011606004+35330+004200FM-12+046199999V0202201N00101220001AN0100001N1+00061-00091102641ADDAA199000091GA1001+999999999GF100991001001999999001001IA2240-00309KA1120N+00061MD1010031+9999REMSYN080    AAXX  16064 60515 33960 02202 10006 21009 40264 50003 333 05300 20006 95990;EQDQ01  00002PRCP99
0136605150999992000011609004+35330+004200FM-12+046199999V0201601N00051220001AN0100001N1+00501+00021102781ADDGA1001+999999999GF100991001001999999001001MD1310131+9999REMSYN068    AAXX  16094 60515 42960 01601 10050 20002 40278 53013 333 95900;
0172605150999992000011612004+35330+004200FM-12+046199999V0203401N00101220001AN0100001N1+00891-00091102711ADDAA199000091GA1001+999999999GF100991001001999999001001MD1810041+9999REMSYN074    AAXX  16124 60515 32960 03402 10089 21009 40271 58004 333 0//00 95900;EQDQ01  00002PRCP99
0148605150999992000011615004+35330+004200FM-12+046199999V0200201N00211220001AN0100001N1+01141-00091102571ADDGA1011+009909089GF101991011021012501001001MD1710131+9999REMSYN080    AAXX  16154 60515 42660 10204 10114 21009 40257 57013 81200 333 81833 95900;
0197605150999992000011618004+35330+004200FM-12+046199999V0209999C00001220001AN0100001N1+00891+00131102541ADDAA199000091GA1021+009009089GF102991021021008001001001KA1120M+01201MD1610061+9999REMSYN086    AAXX  16184 60515 32560 20000 10089 20013 40254 56006 82200 333 10120 82830 95990;EQDQ01  00002PRCP99
0203605150999992000011706004+35330+004200FM-12+046199999V0202601N00311220001AN0100001N1-00021-00171102791ADDAA199000091GA1001+999999999GF100991001001999999001001IA2240-00409KA1120N-00041MD1610021+9999REMSYN080    AAXX  17064 60515 33960 02606 11002 21017 40279 56002 333 05400 21004 95990;EQDQ01  00002PRCP99
0136605150999992000011709004+35330+004200FM-12+046199999V0209999C00001220001AN0100001N1+00321+00001102901ADDGA1001+999999999GF100991001001999999001001MD1310111+9999REMSYN068    AAXX  17094 60515 42960 00000 10032 20000 40290 53011 333 95900;
0184605150999992000011712004+35330+004200FM-12+046199999V0203101N00821220001AN0100001N1+01221-00031102801ADDAA199000091GA1021+009009089GF102991021021008001001001MD1810031+9999REMSYN086    AAXX  17124 60515 32560 23116 10122 21003 40280 58003 82200 333 0//00 82830 95900;EQDQ01  00002PRCP99
0148605150999992000011715004+35330+004200FM-12+046199999V0203401N01031007801AN0100001N1+01241+00171102671ADDGA1071+007809089GF107991071021008001999999MD1510131+9999REMSYN080    AAXX  17154 60515 42560 73420 10124 20017 40267 55013 872// 333 87826 95900;
0203605150999992000011806004+35330+004200FM-12+046199999V0202801N00511220001AN0100001N1+00421-00061102641ADDAA199000091GA1001+999999999GF100991001001999999001001IA2240-00209KA1120N+00171MD1710071+9999REMSYN080    AAXX  18064 60515 33960 02810 10042 21006 40264 57007 333 05200 20017 95990;EQDQ01  00002PRCP99
0148605150999992000011809004+35330+004200FM-12+046199999V0202801N00411220001AN0100001N1+00861+00241102601ADDGA1011+007809089GF102991011021008001001021MD1310021+9999REMSYN080    AAXX  18094 60515 42560 22808 10086 20024 40260 53002 81202 333 81826 95900;
0184605150999992000011812004+35330+004200FM-12+046199999V0203001N00621220001AN0100001N1+01111+00131102431ADDAA199000091GA1031+009009089GF103991031021008001001001MD1810141+9999REMSYN086    AAXX  18124 60515 32560 33012 10111 20013 40243 58014 83200 333 0//00 83830 95900;EQDQ01  00002PRCP99
0148605150999992000011815004+35330+004200FM-12+046199999V0203201N00511220001AN0100001N1+01301-00021102101ADDGA1021+009009089GF102991021021008001001001MD1710291+9999REMSYN080    AAXX  18154 60515 42560 23210 10130 21002 40210 57029 82200 333 82830 95900;
0197605150999992000011818004+35330+004200FM-12+046199999V0203201N00411220001AN0100001N1+00881+00121102061ADDAA199000091GA1021+009009089GF102991021021008001001001KA1120M+01351MD1610041+9999REMSYN086    AAXX  18184 60515 32560 23208 10088 20012 40206 56004 82200 333 10135 82830 95990;EQDQ01  00002PRCP99
0203605150999992000011906004+35330+004200FM-12+046199999V0202601N00721220001AN0100001N1+00561+00081101831ADDAA199000091GA1001+999999999GF100991001001999999001001IA2240+00009KA1120N+00521MD1310021+9999REMSYN080    AAXX  19064 60515 33960 02614 10056 20008 40183 53002 333 00000 20052 95990;EQDQ01  00002PRCP99
0148605150999992000011909004+35330+004200FM-12+046199999V0202701N00621220001AN0100001N1+00801-00261101901ADDGA1011+009909089GF101991011021012501001001MD1310111+9999REMSYN080    AAXX  19094 60515 42660 12712 10080 21026 40190 53011 81200 333 81833 95900;
0184605150999992000011912004+35330+004200FM-12+046199999V0203401N00621220001AN0100001N1+01301-00021101861ADDAA199000091GA1031+009009089GF103991031021008001001001MD1810031+9999REMSYN086    AAXX  19124 60515 32560 33412 10130 21002 40186 58003 83200 333 0//00 83830 95900;EQDQ01  00002PRCP99
0148605150999992000011915004+35330+004200FM-12+046199999V0203601N00721007801AN0100001N1+01391-00041101811ADDGA1071+007809089GF107991071021008001999999MD1610051+9999REMSYN080    AAXX  19154 60515 42560 73614 10139 21004 40181 56005 872// 333 87826 95900;
0193605150999992000011918004+35330+004200FM-12+0461DAAD V0203301N006210078019N0100001N1+01001+00141101761ADDAA199000091GA1071+007809089GF107991071021012501999999KA1120M+01501MD1610071+9999REMSYN082AAXX  19184 60515 32660 73312 10100 20014 40176 56007 872// 333 10150 87826 95990;EQDQ01  00002PRCP99
0199605150999992000012006004+35330+004200FM-12+0461DAAD V0202801N001012200019N0100001N1+00691-00021102511ADDAA199000091GA1001+999999999GF100991001001999999001001IA2240+00109KA1120N+00561MD1210091+9999REMSYN076AAXX  20064 60515 33960 02802 10069 21002 40251 52009 333 00100 20056 95990;EQDQ01  00002PRCP99
0144605150999992000012009004+35330+004200FM-12+0461DAAD V0201801N001012200019N0100001N1+00901+00231102711ADDGA1021+024009039GF102991021001022501041001MD1210231+9999REMSYN076AAXX  20094 60515 42860 21802 10090 20023 40271 52023 82040 333 82358 95900;
0180605150999992000012012004+35330+004200FM-12+0461DAAD V0203401N001012200019N0100001N1+01231+00121102721ADDAA199000091GA1021+009909089GF102991021021012501001001MD1010031+9999REMSYN082AAXX  20124 60515 32660 23402 10123 20012 40272 50003 82200 333 0//00 82833 95900;EQDQ01  00002PRCP99
0144605150999992000012015004+35330+004200FM-12+0461DAAD V0201201N003112200019N0100001N1+01301+00081102651ADDGA1021+009909089GF102991021021012501001001MD1610011+9999REMSYN076AAXX  20154 60515 42660 21206 10130 20008 40265 56001 82200 333 82833 95900;
0193605150999992000012018004+35330+004200FM-12+0461DAAD V0203601N003112200019N0100001N1+01041+00271102751ADDAA199000091GA1011+009909089GF102991021021012501001001KA1120M+01321MD1310041+9999REMSYN082AAXX  20184 60515 32660 23606 10104 20027 40275 53004 82200 333 10132 81833 95990;EQDQ01  00002PRCP99
0199605150999992000012106004+35330+004200FM-12+0461DAAD V0202201N002112200019N0100001N1+00191-00071102901ADDAA199000091GA1001+999999999GF100991001001999999001001IA2240-00309KA1120N+00191MD1110031+9999REMSYN076AAXX  21064 60515 33960 02204 10019 21007 40290 51003 333 05300 20019 95990;EQDQ01  00002PRCP99
0132605150999992000012109004+35330+004200FM-12+0461DAAD V0203201N002112200019N0100001N1+00461+00151103011ADDGA1001+999999999GF100991001001999999001001MD1310061+9999REMSYN064AAXX  21094 60515 42960 03204 10046 20015 40301 53006 333 95900;
0180605150999992000012112004+35330+004200FM-12+0461DAAD V0203401N001012200019N0100001N1+00991+00051102841ADDAA199000091GA1011+009009089GF101991011021008001001001MD1810121+9999REMSYN082AAXX  21124 60515 32560 13402 10099 20005 40284 58012 81200 333 0//00 81830 95900;EQDQ01  00002PRCP99
0144605150999992000012115004+35330+004200FM-12+0461DAAD V0201801N001012200019N0100001N1+01301+00161102611ADDGA1031+009009089GF103991031021008001001001MD1710201+9999REMSYN076AAXX  21154 60515 42560 31802 10130 20016 40261 57020 83200 333 83830 95900;
0193605150999992000012118004+35330+004200FM-12+0461DAAD V0203101N002112200019N0100001N1+00751+00171102631ADDAA199000091GA1021+007809089GF102991021021008001001001KA1120M+01241MD1710091+9999REMSYN082AAXX  21184 60515 32560 23104 10075 20017 40263 57009 82200 333 10124 82826 95990;EQDQ01  00002PRCP99
0199605150999992000012206004+35330+004200FM-12+0461DAAD V0209999C000012200019N0080001N1+00001-00241102611ADDAA199000091GA1001+999999999GF100991001001999999001001IA2240-00409KA1120N+00001MD1110011+9999REMSYN076AAXX  22064 60515 33958 00000 10000 21024 40261 51001 333 05400 20000 95990;EQDQ01  00002PRCP99
0132605150999992000012209004+35330+004200FM-12+0461DAAD V0209999C000012200019N0080001N1+00441+00081102631ADDGA1001+999999999GF100991001001999999001001MD1110041+9999REMSYN064AAXX  22094 60515 42958 00000 10044 20008 40263 51004 333 95900;
0180605150999992000012212004+35330+004200FM-12+0461DAAD V0201201N001012200019N0100001N1+00951+00121102511ADDAA199000091GA1021+009909089GF102991021021012501001001MD1810091+9999REMSYN082AAXX  22124 60515 32660 21202 10095 20012 40251 58009 82200 333 0//00 82833 95900;EQDQ01  00002PRCP99
0144605150999992000012215004+35330+004200FM-12+0461DAAD V0201001N002112200019N0100001N1+01261+00091102231ADDGA1021+009909089GF102991021021012501001001MD1710271+9999REMSYN076AAXX  22154 60515 42660 21004 10126 20009 40223 57027 82200 333 82833 95900;
0199605150999992000012306004+35330+004200FM-12+0461DAAD V0203201N005112200019N0100001N1+00091-00171101911ADDAA199000091GA1001+999999999GF100991001001999999001001IA2240-00409KA1120N+00091MD1810061+9999REMSYN076AAXX  23064 60515 33960 03210 10009 21017 40191 58006 333 05400 20009 95990;EQDQ01  00002PRCP99
0132605150999992000012309004+35330+004200FM-12+0461DAAD V0202801N010312200019N0100001N1+00741-00281101911ADDGA1001+999999999GF100991001001999999001001MD1310041+9999REMSYN064AAXX  23094 60515 42960 02820 10074 21028 40191 53004 333 95900;
0180605150999992000012312004+35330+004200FM-12+0461DAAD V0202701N008212200019N0100001N1+01201-00321101811ADDAA199000091GA1021+007809089GF102991021021008001001001MD1810051+9999REMSYN082AAXX  23124 60515 32560 22716 10120 21032 40181 58005 82200 333 0//00 82826 95900;EQDQ01  00002PRCP99
0144605150999992000012315004+35330+004200FM-12+0461DAAD V0203001N010310078019N0100001N1+01251-00061101651ADDGA1061+007809089GF106991061021008001001001MD1710181+9999REMSYN076AAXX  23154 60515 42560 63020 10125 21006 40165 57018 86200 333 86826 95900;
0193605150999992000012318004+35330+004200FM-12+0461DAAD V0203001N008210078019N0100001N1+00841+00171101661ADDAA199000091GA1061+007809089GF106991061021008001001001KA1120M+01361MD1310081+9999REMSYN082AAXX  23184 60515 32560 63016 10084 20017 40166 53008 86200 333 10136 86826 95990;EQDQ01  00002PRCP99
0211605150999992000012406004+35330+004200FM-12+0461DAAD V0200601N004110099019N0100001N1+00551-00071101911ADDAA199000091GA1071+009909089GF107991071021012501999999IA2240-00309KA1120N+00111MD1610011+9999REMSYN088AAXX  24064 60515 33660 70608 10055 21007 40191 56001 872// 333 05300 20011 87833 95990;EQDQ01  00002PRCP99
0144605150999992000012409004+35330+004200FM-12+0461DAAD V0203201N004110099019N0100001N1+00811+00051102031ADDGA1071+009909089GF107991071021012501999999MD1310141+9999REMSYN076AAXX  24094 60515 42660 73208 10081 20005 40203 53014 872// 333 87833 95900;
0180605150999992000012412004+35330+004200FM-12+0461DAAD V0203201N008210078019N0100001N1+01051-00211101951ADDAA199000091GA1071+007809089GF107991071021008001999999MD1810061+9999REMSYN082AAXX  24124 60515 32560 73216 10105 21021 40195 58006 872// 333 0//00 87826 95900;EQDQ01  00002PRCP99
0144605150999992000012415004+35330+004200FM-12+0461DAAD V0203201N007210090019N0100001N1+01081-00301101811ADDGA1071+009009089GF107991071021008001999999MD1710131+9999REMSYN076AAXX  24154 60515 42560 73214 10108 21030 40181 57013 872// 333 87830 95900;
0193605150999992000012418004+35330+004200FM-12+0461DAAD V0203201N005110090019N0100001N1+00701+00141101701ADDAA199000091GA1071+009009089GF107991071021008001999999KA1120M+01191MD1610041+9999REMSYN082AAXX  24184 60515 32560 73210 10070 20014 40170 56004 872// 333 10119 87830 95990;EQDQ01  00002PRCP99
0211605150999992000012506004+35330+004200FM-12+0461DAAD V0203401N001012200019N0100001N1+00541+00041102041ADDAA199000091GA1041+024009039GF104991041001022501081001IA2240-00109KA1120N+00431MD1410001+9999REMSYN088AAXX  25064 60515 33860 43402 10054 20004 40204 54000 84080 333 05100 20043 84358 95990;EQDQ01  00002PRCP99
0144605150999992000012509004+35330+004200FM-12+0461DAAD V0209999C000010099019N0080001N1+00571+00011102211ADDGA1051+009909089GF105991051021022501081001MD1210221+9999REMSYN076AAXX  25094 60515 42858 50000 10057 20001 40221 52022 85280 333 85833 95900;
0180605150999992000012512004+35330+004200FM-12+0461DAAD V0209999C000012200019N0100001N1+00951+00031102081ADDAA199000091GA1031+024009039GF103991031001999999081001MD1810081+9999REMSYN082AAXX  25124 60515 32960 30000 10095 20003 40208 58008 83080 333 0//00 83358 95900;EQDQ01  00002PRCP99
0144605150999992000012515004+35330+004200FM-12+0461DAAD V0209999C000012200019N0100001N1+01261+00061101911ADDGA1031+024009039GF103991031021008001081001MD1510141+9999REMSYN076AAXX  25154 60515 42560 30000 10126 20006 40191 55014 83280 333 83358 95900;
0193605150999992000012518004+35330+004200FM-12+0461DAAD V0201001N003112200019N0100001N1+00881+00121102091ADDAA199000091GA1031+024009039GF103991031001999999081001KA1120M+01351MD1310111+9999REMSYN082AAXX  25184 60515 32960 31006 10088 20012 40209 53011 83080 333 10135 83358 95990;EQDQ01  00002PRCP99
0233605150999992000012606004+35330+004200FM-12+0461DAAD V0203201N002110690019N0100001N1+00621+00191102411ADDAA199000091GA1031+024009039GA2031+069009009GF106991031001022501031021IA2240+00109KA1120N+00491MD1110021+9999REMSYN094AAXX  26064 60515 33860 63204 10062 20019 40241 51002 83032 333 00100 20049 83358 83073 95990;EQDQ01  00002PRCP99
0166605150999992000012609004+35330+004200FM-12+0461DAAD V0203401N004110240019N0100001N1+00611+00101102561ADDGA1051+024009049GA2031+069009029GF107991051001022501011071MD1210131+9999REMSYN082AAXX  26094 60515 42860 73408 10061 20010 40256 52013 85017 333 85458 83273 95900;
0202605150999992000012612004+35330+004200FM-12+0461DAAD V0203601N001010240019N0100001N1+00901+00201102641ADDAA199000091GA1031+009909089GA2061+024009049GF108991031021012501071999MD1010071+9999REMSYN088AAXX  26124 60515 32660 83602 10090 20020 40264 50007 8327/ 333 0//00 83833 86458 95900;EQDQ01  00002PRCP99
0193605150999992000012618004+35330+004200FM-12+0461DAAD V0200401N001012200019N0100001N1+00871+00251102621ADDAA199000091GA1021+069009009GF102991001001999999001021KA1120M+01261MD1310231+9999REMSYN082AAXX  26184 60515 32960 20402 10087 20025 40262 53023 80002 333 10126 82073 95990;EQDQ01  00002PRCP99
0199605150999992000012706004+35330+004200FM-12+0461DAAD V0209999C000012200019N0100001N1+00021-00051103321ADDAA199000091GA1001+999999999GF100991001001999999001001IA2240-00509KA1120N-00121MD1110031+9999REMSYN076AAXX  27064 60515 33960 00000 10002 21005 40332 51003 333 05500 21012 95990;EQDQ01  00002PRCP99
0144605150999992000012709004+35330+004200FM-12+0461DAAD V0209999C000012200019N0100001N1+00571+00091103441ADDGA1021+060009009GF102991001001999999001021MD1210131+9999REMSYN076AAXX  27094 60515 42960 20000 10057 20009 40344 52013 80002 333 82070 95900;
0180605150999992000012712004+35330+004200FM-12+0461DAAD V0200401N002110600019N0100001N1+00961+00101103441ADDAA199000091GA1051+060009009GF105991001001999999001021MD1010001+9999REMSYN082AAXX  27124 60515 32960 50404 10096 20010 40344 50000 80002 333 0//00 85070 95900;EQDQ01  00002PRCP99
0193605150999992000012718004+35330+004200FM-12+0461DAAD V0203201N002112200019N0100001N1+01051+00361103301ADDAA199000091GA1031+060009009GF103991001001999999001021KA1120M+01391MD1510021+9999REMSYN082AAXX  27184 60515 32960 33204 10105 20036 40330 55002 80002 333 10139 83070 95990;EQDQ01  00002PRCP99
0217605150999992000012806004+35330+004200FM-12+0461DAAD V0200601N00101005101CN0100001N1+00071-00171103331ADDAA199000091GA1051+005109009GF106991051001999999011071IA2240-00209KA1120N+00071MD1610061+9999REMSYN094AAXX  28064 60515 33960 60602 10007 21017 40333 56006 85017 333 05200 20007 85460 83268 95990;EQDQ01  00002PRCP99
0166605150999992000012809004+35330+004200FM-12+0461DAAD V0201401N002110300019N0080001N1+00461+00311103421ADDGA1051+030009049GA2031+054009029GF107991051001999999011071MD1310061+9999REMSYN082AAXX  28094 60515 42958 71404 10046 20031 40342 53006 85017 333 85460 83268 95900;
0166605150999992000012909004+35330+004200FM-12+0461DAAD V0203601N003110540019N0100001N1+00571+00151102941ADDGA1011+030009049GA2051+054009029GF105991011001999999011071MD1110081+9999REMSYN082AAXX  29094 60515 42960 53606 10057 20015 40294 51008 81017 333 81460 85268 95900;
0202605150999992000012912004+35330+004200FM-12+0461DAAD V0202401N002110540019N0100001N1+01301+00001102891ADDAA199000091GA1021+030009049GA2051+054009029GF105991021001999999011071MD1010011+9999REMSYN088AAXX  29124 60515 32960 52404 10130 20000 40289 50001 82017 333 0//00 82460 85268 95900;EQDQ01  00002PRCP99
0166605150999992000012915004+35330+004200FM-12+0461DAAD V0203001N005110540019N0100001N1+01541+00171102791ADDGA1021+030009049GA2051+054009029GF105991021001999999011071MD1710101+9999REMSYN082AAXX  29154 60515 42960 53010 10154 20017 40279 57010 82017 333 82460 85268 95900;
0215605150999992000012918004+35330+004200FM-12+0461DAAD V0202801N004110540019N0100001N1+01061+00381102951ADDAA199000091GA1021+030009049GA2051+054009029GF105991021001999999011071KA1120M+01591MD1310121+9999REMSYN088AAXX  29184 60515 32960 52808 10106 20038 40295 53012 82017 333 10159 82460 85268 95990;EQDQ01  00002PRCP99
0211605150999992000013006004+35330+004200FM-12+0461DAAD V0202801N005112200019N0100001N1+00551+00191103411ADDAA199000091GA1021+069009009GF102991001001999999001021IA2240+00109KA1120N+00491MD1310101+9999REMSYN088AAXX  30064 60515 33960 22810 10055 20019 40341 53010 80002 333 00100 20049 82073 95990;EQDQ01  00002PRCP99
0144605150999992000013009004+35330+004200FM-12+0461DAAD V0202801N008212200019N0100001N1+00811+00211103581ADDGA1021+069009009GF102991001001999999001021MD1210151+9999REMSYN076AAXX  30094 60515 42960 22816 10081 20021 40358 52015 80002 333 82073 95900;
0168605150999992000013012004+35330+004200FM-12+0461DAAD V0202601N006212200019N0100001N1+01351+00081103551ADDAA199000091GA1001+999999999GF100991001001999999001001MD1810011+9999REMSYN070AAXX  30124 60515 32960 02612 10135 20008 40355 58001 333 0//00 95900;EQDQ01  00002PRCP99
0144605150999992000013015004+35330+004200FM-12+0461DAAD V0200401N002112200019N0100001N1+01551-00091103321ADDGA1021+069009009GF102991001001999999001021MD1710201+9999REMSYN076AAXX  30154 60515 42960 20404 10155 21009 40332 57020 80002 333 82073 95900;
0193605150999992000013018004+35330+004200FM-12+0461DAAD V0202601N003112200019N0100001N1+01241+00041103451ADDAA199000091GA1021+060009009GF102991001001999999001021KA1120M+01741MD1310091+9999REMSYN082AAXX  30184 60515 32960 22606 10124 20004 40345 53009 80002 333 10174 82070 95990;EQDQ01  00002PRCP99
0199605150999992000013106004+35330+004200FM-12+0461DAAD V0209999C000012200019N0150001N1+00211-00351103641ADDAA199000091GA1001+999999999GF100991001001999999001001IA2240-00309KA1120N+00131MD1610021+9999REMSYN076AAXX  31064 60515 33965 00000 10021 21035 40364 56002 333 05300 20013 95990;EQDQ01  00002PRCP99
0144605150999992000020109004+35330+004200FM-12+0461DAAD V0203601N002112200019N0100001N1+00601+00101103631ADDGA1021+069009009GF102991001001999999001021MD1310041+9999REMSYN076AAXX  01094 60515 42960 23604 10060 20010 40363 53004 80002 333 82073 95900;
0180605150999992000020112004+35330+004200FM-12+0461DAAD V0200801N001012200019N0100001N1+01461+00021103541ADDAA199000091GA1021+069009009GF102991001001999999001021MD1810031+9999REMSYN082AAXX  01124 60515 32960 20802 10146 20002 40354 58003 80002 333 0//00 82073 95900;EQDQ01  00002PRCP99
0144605150999992000020115004+35330+004200FM-12+0461DAAD V0201401N002110690019N0100001N1+01941-00111103231ADDGA1051+069009009GF105991001001999999001021MD1710251+9999REMSYN076AAXX  01154 60515 42960 51404 10194 21011 40323 57025 80002 333 85073 95900;
0193605150999992000020118004+35330+004200FM-12+0461DAAD V0202001N002112200019N0100001N1+01051+00001103351ADDAA199000091GA1031+060009009GF103991001001999999001021KA1120M+01951MD1010001+9999REMSYN082AAXX  01184 60515 32960 32004 10105 20000 40335 50000 80002 333 10195 83070 95990;EQDQ01  00002PRCP99
0227605150999992000020206004+35330+004200FM-12+0461DAAD V0201001N999992200019N0150001N1+02001-00081103291ADDAA199000091GA1021+060009009GF103991001001999999001021IA2240-00209KA1120N+00151MD1710051+9999REMSYN088AAXX  02064 60515 33965 36006 10200 21008 40329 57005 80002 333 05200 20015 82070 95990;EQDQ01+005453WOSPD Q02  00002PRCP99
0144605150999992000020209004+35330+004200FM-12+0461DAAD V0202601N003112200019N0150001N1+01241-00291103311ADDGA1021+060009009GF103991001001999999001021MD1110091+9999REMSYN076AAXX  02094 60515 42965 32606 10124 21029 40331 51009 80002 333 82070 95900;
0180605150999992000020212004+35330+004200FM-12+0461DAAD V0209999C000012200019N0100001N1+01661+00231103191ADDAA199000091GA1011+012009089GF102991011021008001001021MD1810091+9999REMSYN082AAXX  02124 60515 32560 20000 10166 20023 40319 58009 81202 333 0//00 81840 95900;EQDQ01  00002PRCP99
0181605150999992000020218004+35330+004200FM-12+0461DAAD V0203201N005112200019N0100001N1+01401+00311102901ADDAA199000091GA1001+999999999GF100991001001999999001001KA1120M+02251MD1310011+9999REMSYN070AAXX  02184 60515 32960 03210 10140 20031 40290 53001 333 10225 95990;EQDQ01  00002PRCP99
0211605150999992000020306004+35330+004200FM-12+0461DAAD V0203001N010312200019N0100001N1+01261+00551102811ADDAA199000091GA1031+024009039GF103991031001022501081001IA2240+00609KA1120N+01021MD1610021+9999REMSYN088AAXX  03064 60515 33860 33020 10126 20055 40281 56002 83080 333 00600 20102 83358 95990;EQDQ01  00002PRCP99
0144605150999992000020309004+35330+004200FM-12+0461DAAD V0203201N009310090019N0100001N1+01461+00521102951ADDGA1061+009009089GF106991061021008001001001MD1310131+9999REMSYN076AAXX  03094 60515 42560 63218 10146 20052 40295 53013 86200 333 86830 95900;
0180605150999992000020312004+35330+004200FM-12+0461DAAD V0203201N011312200019N0100001N1+01751+00591103001ADDAA199000091GA1031+009009089GF103991031021008001001001MD1110061+9999REMSYN082AAXX  03124 60515 32560 33222 10175 20059 40300 51006 83200 333 0//00 83830 95900;EQDQ01  00002PRCP99
0144605150999992000020315004+35330+004200FM-12+0461DAAD V0203201N011310090019N0100001N1+01811+00411102831ADDGA1051+009009089GF105991051021008001001001MD1710171+9999REMSYN076AAXX  03154 60515 42560 53222 10181 20041 40283 57017 85200 333 85830 95900;
0193605150999992000020318004+35330+004200FM-12+0461DAAD V0203201N009310090019N0100001N1+01561+00091102941ADDAA199000091GA1061+009009089GF106991061021008001001001KA1120M+01851MD1310101+9999REMSYN082AAXX  03184 60515 32560 63218 10156 20009 40294 53010 86200 333 10185 86830 95990;EQDQ01  00002PRCP99
0199605150999992000020406004+35330+004200FM-12+0461DAAD V0202801N003112200019N0150001N1+00711+00131103381ADDAA199000091GA1001+999999999GF100991001001999999001001IA2240-00109KA1120N+00351MD1310041+9999REMSYN076AAXX  04064 60515 33965 02806 10071 20013 40338 53004 333 05100 20035 95990;EQDQ01  00002PRCP99
0132605150999992000020409004+35330+004200FM-12+0461DAAD V0203401N002112200019N0100001N1+01111-00241103621ADDGA1001+999999999GF100991001001999999001001MD1210241+9999REMSYN064AAXX  04094 60515 42960 03404 10111 21024 40362 52024 333 95900;
0168605150999992000020412004+35330+004200FM-12+0461DAAD V0203201N003112200019N0100001N1+01311-00091103621ADDAA199000091GA1001+999999999GF100991001001999999001001MD1810021+9999REMSYN070AAXX  04124 60515 32960 03206 10131 21009 40362 58002 333 0//00 95900;EQDQ01  00002PRCP99
0132605150999992000020415004+35330+004200FM-12+0461DAAD V0201001N002112200019N0100001N1+01551+00031103451ADDGA1001+999999999GF100991001001999999001001MD1710151+9999REMSYN064AAXX  04154 60515 42960 01004 10155 20003 40345 57015 333 95900;
0181605150999992000020418004+35330+004200FM-12+0461DAAD V0202601N003112200019N0100001N1+01201+00071103581ADDAA199000091GA1001+999999999GF100991001001999999001001KA1120M+01561MD1310101+9999REMSYN070AAXX  04184 60515 32960 02606 10120 20007 40358 53010 333 10156 95990;EQDQ01  00002PRCP99
0199605150999992000020506004+35330+004200FM-12+0461DAAD V0209999C000012200019N0100001N1+00661+00091103821ADDAA199000091GA1001+999999999GF100991001001999999001001IA2240-00109KA1120N+00291MD1010031+9999REMSYN076AAXX  05064 60515 33960 00000 10066 20009 40382 50003 333 05100 20029 95990;EQDQ01  00002PRCP99
0180605150999992000020512004+35330+004200FM-12+0461DAAD V0200801N002112200019N0100001N1+01201+00171103921ADDAA199000091GA1011+009909089GF101991011021012501001001MD1810071+9999REMSYN082AAXX  05124 60515 32660 10804 10120 20017 40392 58007 81200 333 0//00 81833 95900;EQDQ01  00002PRCP99
0132605150999992000020515004+35330+004200FM-12+0461DAAD V0200201N002112200019N0100001N1+01421+00281103641ADDGA1001+999999999GF100991001001999999001001MD1710271+9999REMSYN064AAXX  05154 60515 42960 00204 10142 20028 40364 57027 333 95900;
0181605150999992000020518004+35330+004200FM-12+0461DAAD V0202601N003112200019N0100001N1+00971+00181103731ADDAA199000091GA1001+999999999GF100991001001999999001001KA1120M+01511MD1110011+9999REMSYN070AAXX  05184 60515 32960 02606 10097 20018 40373 51001 333 10151 95990;EQDQ01  00002PRCP99
0211605150999992000020606004+35330+004200FM-12+0461DAAD V0209999C000012200019N0100001N1+00041+00011103741ADDAA199000091GA1021+060009009GF102991001001999999001021IA2240-00409KA1120N-00071MD1610021+9999REMSYN088AAXX  06064 60515 33960 20000 10004 20001 40374 56002 80002 333 05400 21007 82070 95990;EQDQ01  00002PRCP99
0144605150999992000020609004+35330+004200FM-12+0461DAAD V0209999C000012200019N0100001N1+00441-00111103811ADDGA1021+060009009GF102991001001999999001021MD1110071+9999REMSYN076AAXX  06094 60515 42960 20000 10044 21011 40381 51007 80002 333 82070 95900;
0180605150999992000020612004+35330+004200FM-12+0461DAAD V0200401N002112200019N0100001N1+01131-00031103761ADDAA199000091GA1011+060009009GF101991001001999999001021MD1810011+9999REMSYN082AAXX  06124 60515 32960 10404 10113 21003 40376 58001 80002 333 0//00 81070 95900;EQDQ01  00002PRCP99
0122605150999992000020615004+35330+004200FM-12+0461DAAD V0203401N002112200019N0100001N1+01481-00041103321ADDGF102991021021999999001001MD1710381+9999REMSYN070AAXX  06154 60515 42960 23404 10148 21004 40332 57038 82200 333 95900;
0193605150999992000020618004+35330+004200FM-12+0461DAAD V0209999C000012200019N0100001N1+01031-00081103561ADDAA199000091GA1021+060009009GF102991001001999999001021KA1120M+01491MD1310121+9999REMSYN082AAXX  06184 60515 32960 20000 10103 21008 40356 53012 80002 333 10149 82070 95990;EQDQ01  00002PRCP99
0199605150999992000020706004+35330+004200FM-12+0461DAAD V0201601N003112200019N0100001N1+00041-00041103291ADDAA199000091GA1001+999999999GF100991001001999999001001IA2240-00409KA1120N-00091MD1610041+9999REMSYN076AAXX  07064 60515 33960 01606 10004 21004 40329 56004 333 05400 21009 95990;EQDQ01  00002PRCP99
0144605150999992000020709004+35330+004200FM-12+0461DAAD V0200801N002112200019N0100001N1+00451-00121103341ADDGA1021+069009009GF102991001001999999001021MD1110081+9999REMSYN076AAXX  07094 60515 42960 20804 10045 21012 40334 51008 80002 333 82073 95900;
0168605150999992000020712004+35330+004200FM-12+0461DAAD V0200401N001012200019N0100001N1+01511-00051103111ADDAA199000091GA1001+999999999GF100991001001999999001001MD1810131+9999REMSYN070AAXX  07124 60515 32960 00402 10151 21005 40311 58013 333 0//00 95900;EQDQ01  00002PRCP99
0144605150999992000020715004+35330+004200FM-12+0461DAAD V0203201N012312200019N0100001N1+01901-00191102921ADDGA1031+009009089GF103991031021008001001001MD1710171+9999REMSYN076AAXX  07154 60515 42560 33224 10190 21019 40292 57017 83200 333 83830 95900;
0193605150999992000020718004+35330+004200FM-12+0461DAAD V0203201N008212200019N0100001N1+01581-00091103151ADDAA199000091GA1041+009009089GF104991041021008001001001KA1120M+01971MD1310171+9999REMSYN082AAXX  07184 60515 32560 43216 10158 21009 40315 53017 84200 333 10197 84830 95990;EQDQ01  00002PRCP99
0211605150999992000020806004+35330+004200FM-12+0461DAAD V0202401N004112200019N0100001N1+00331-00061103321ADDAA199000091GA1021+069009009GF102991001001999999001021IA2240-00209KA1120N+00241MD1110021+9999REMSYN088AAXX  08064 60515 33960 22408 10033 21006 40332 51002 80002 333 05200 20024 82073 95990;EQDQ01  00002PRCP99
0144605150999992000020809004+35330+004200FM-12+0461DAAD V0203001N002112200019N0100001N1+01171+00241103361ADDGA1041+060009009GF104991001001999999001021MD1210101+9999REMSYN076AAXX  08094 60515 42960 43004 10117 20024 40336 52010 80002 333 84070 95900;
0180605150999992000020812004+35330+004200FM-12+0461DAAD V0203001N003112200019N0100001N1+01591-00131103251ADDAA199000091GA1031+060009009GF103991001001999999001021MD1810091+9999REMSYN082AAXX  08124 60515 32960 33006 10159 21013 40325 58009 80002 333 0//00 83070 95900;EQDQ01  00002PRCP99
0193605150999992000020818004+35330+004200FM-12+0461DAAD V0202601N006212200019N0100001N1+01501-00181103021ADDAA199000091GA1021+069009009GF102991001001999999001021KA1120M+01851MD1310021+9999REMSYN082AAXX  08184 60515 32960 22612 10150 21018 40302 53002 80002 333 10185 82073 95900;EQDQ01  00002PRCP99
0211605150999992000020906004+35330+004200FM-12+0461DAAD V0202801N008210090019N0100001N1+00841+00291102931ADDAA199000091GA1071+009009089GF107991071021008001999999IA2240+00309KA1120N+00661MD1610021+9999REMSYN088AAXX  09064 60515 33560 72816 10084 20029 40293 56002 872// 333 00300 20066 87830 95990;EQDQ01  00002PRCP99
0144605150999992000020909004+35330+004200FM-12+0461DAAD V0202601N009312200019N0100001N1+01311+00291102981ADDGA1031+009909089GF103991031021012501001001MD1310071+9999REMSYN076AAXX  09094 60515 42660 32618 10131 20029 40298 53007 83200 333 83833 95900;
0180605150999992000020912004+35330+004200FM-12+0461DAAD V0200601N001012200019N0100001N1+01801+00171102891ADDAA199000091GA1011+030009039GF102991011001999999071021MD1810051+9999REMSYN082AAXX  09124 60515 32960 20602 10180 20017 40289 58005 81072 333 0//00 81360 95900;EQDQ01  00002PRCP99
0144605150999992000020915004+35330+004200FM-12+0461DAAD V0203201N008212200019N0100001N1+02051+00281102601ADDGA1021+009009089GF102991021021008001001021MD1710251+9999REMSYN076AAXX  09154 60515 42560 23216 10205 20028 40260 57025 82202 333 82830 95900;
0193605150999992000020918004+35330+004200FM-12+0461DAAD V0203401N011312200019N0100001N1+01501+00331102861ADDAA199000091GA1021+009009089GF102991021021008001001021KA1120M+02061MD1310211+9999REMSYN082AAXX  09184 60515 32560 23422 10150 20033 40286 53021 82202 333 10206 82830 95990;EQDQ01  00002PRCP99
0165605150999992000021009004+35330+004200FM-12+0461DAAD V0202701N010312200019N0100001N1+01061+00151102991ADDGA1011+009909089GF101991011021012501001001REMSYN076AAXX  10094 60515 42660 12720 10106 20015 40299 51000 81200 333 81833 95900;EQDQ01+000012APCTENQ02+000002APC3  
0180605150999992000021012004+35330+004200FM-12+0461DAAD V0203201N009312200019N0100001N1+01521-00581102981ADDAA199000091GA1021+007809089GF102991021021008001001001MD1810011+9999REMSYN082AAXX  10124 60515 32560 23218 10152 21058 40298 58001 82200 333 0//00 82826 95900;EQDQ01  00002PRCP99
0153605150999992000021015004+35330+004200FM-12+0461DAAD V0203201N009312200019N0100001N1+01671-00671999999ADDGA1011+007809089GF101991011021008001001001MD1710191+9999ME1312789REMSYN076AAXX  10154 60515 42560 13218 10167 21067 48278 57019 81200 333 81826 95900;
0181605150999992000021018004+35330+004200FM-12+0461DAAD V0203201N007212200019N0100001N1+01301-00441102841ADDAA199000091GA1001+999999999GF100991001001999999001001KA1120M+01671MD1310021+9999REMSYN070AAXX  10184 60515 32960 03214 10130 21044 40284 53002 333 10167 95900;EQDQ01  00002PRCP99
0211605150999992000021106004+35330+004200FM-12+0461DAAD V0202801N008212200019N0100001N1+00711+00101102661ADDAA199000091GA1021+069009009GF102991001001999999001021IA2240-00109KA1120N+00221MD1710091+9999REMSYN088AAXX  11064 60515 33960 22816 10071 20010 40266 57009 80002 333 05100 20022 82073 95990;EQDQ01  00002PRCP99
0144605150999992000021109004+35330+004200FM-12+0461DAAD V0202601N006212200019N0100001N1+01161-00641102771ADDGA1011+069009009GF101991001001999999001021MD1310111+9999REMSYN076AAXX  11094 60515 42960 12612 10116 21064 40277 53011 80002 333 81073 95900;
0180605150999992000021112004+35330+004200FM-12+0461DAAD V0201001N001012200019N0100001N1+01501-00891102781ADDAA199000091GA1021+069009009GF102991001001999999001021MD1010031+9999REMSYN082AAXX  11124 60515 32960 21002 10150 21089 40278 50003 80002 333 0//00 82073 95900;EQDQ01  00002PRCP99
0144605150999992000021115004+35330+004200FM-12+0461DAAD V0202801N002112200019N0100001N1+01841-01521102541ADDGA1021+069009009GF102991001001999999001021MD1710251+9999REMSYN076AAXX  11154 60515 42960 22804 10184 21152 40254 57025 80002 333 82073 95900;
0193605150999992000021118004+35330+004200FM-12+0461DAAD V0202001N004112200019N0100001N1+01201-00551102571ADDAA199000091GA1021+069009009GF102991001001999999001021KA1120M+01961MD1310031+9999REMSYN082AAXX  11184 60515 32960 22008 10120 21055 40257 53003 80002 333 10196 82073 95990;EQDQ01  00002PRCP99
0211605150999992000021206004+35330+004200FM-12+0461DAAD V0209999C000012200019N0100001N1+00751+00151102771ADDAA199000091GA1021+060009009GF102991001001999999001021IA2240-00209KA1120N+00161MD1410001+9999REMSYN088AAXX  12064 60515 33960 20000 10075 20015 40277 54000 80002 333 05200 20016 82070 95990;EQDQ01  00002PRCP99
0144605150999992000021209004+35330+004200FM-12+0461DAAD V0209999C000012200019N0200001N1+00571-00421102951ADDGA1031+060009009GF103991001001999999001021MD1210131+9999REMSYN076AAXX  12094 60515 42970 30000 10057 21042 40295 52013 80002 333 83070 95900;
0215605150999992000021218004+35330+004200FM-12+0461DAAD V0209999C000010240019N0100001N1+01001-00231102761ADDAA199000091GA1031+009009089GA2031+024009039GF105991031021008001071021KA1120M+01501MD1610041+9999REMSYN088AAXX  12184 60515 32560 50000 10100 21023 40276 56004 83272 333 10150 83830 83358 95900;EQDQ01  00002PRCP99
0211605150999992000021306004+35330+004200FM-12+0461DAAD V0203001N005110090019N0100001N1+00901+00391103011ADDAA199000091GA1071+009009089GF107991071021008001999999IA2240+00209KA1120N+00561MD1210091+9999REMSYN088AAXX  13064 60515 33560 73010 10090 20039 40301 52009 872// 333 00200 20056 87830 95990;EQDQ01  00002PRCP99
0144605150999992000021309004+35330+004200FM-12+0461DAAD V0203401N008212200019N0100001N1+01061+00151103211ADDGA1031+009009089GF103991031021008001001001MD1210191+9999REMSYN076AAXX  13094 60515 42560 33416 10106 20015 40321 52019 83200 333 83830 95900;
0180605150999992000021312004+35330+004200FM-12+0461DAAD V0203601N006212200019N0100001N1+01311-00161103191ADDAA199000091GA1021+009909089GF102991021021012501001001MD1010001+9999REMSYN082AAXX  13124 60515 32660 23612 10131 21016 40319 50000 82200 333 0//00 82833 95900;EQDQ01  00002PRCP99
0144605150999992000021315004+35330+004200FM-12+0461DAAD V0203001N006212200019N0100001N1+01591-00371102891ADDGA1021+069009009GF102991001001999999001021MD1710261+9999REMSYN076AAXX  13154 60515 42960 23012 10159 21037 40289 57026 80002 333 82073 95900;
0193605150999992000021318004+35330+004200FM-12+0461DAAD V0203201N003112200019N0100001N1+01341-00271103061ADDAA199000091GA1021+069009009GF102991001001999999001021KA1120M+01741MD1310081+9999REMSYN082AAXX  13184 60515 32960 23206 10134 21027 40306 53008 80002 333 10174 82073 95990;EQDQ01  00002PRCP99
0211605150999992000021406004+35330+004200FM-12+0461DAAD V0202801N008212200019N0100001N1+00991+00401102731ADDAA199000091GA1031+009009089GF103991031021008001001001IA2240+00209KA1120N+00691MD1710081+9999REMSYN088AAXX  14064 60515 33560 32816 10099 20040 40273 57008 83200 333 00200 20069 83830 95990;EQDQ01  00002PRCP99
0174605150999992000021412004+35330+004200FM-12+0461DAAD V0203001N002110090019N0100001N1+01471-00201102761ADDAA199000091GA1081+009009089GF108991999999008001999999MD1810051+9999REMSYN076AAXX  14124 60515 32560 83004 10147 21020 40276 58005 333 0//00 88830 95900;EQDQ01  00002PRCP99
0144605150999992000021415004+35330+004200FM-12+0461DAAD V0203201N003110090019N0100001N1+01581-00351102641ADDGA1071+009009089GF107991071021008001999999MD1710131+9999REMSYN076AAXX  14154 60515 42560 73206 10158 21035 40264 57013 872// 333 87830 95900;
0193605150999992000021418004+35330+004200FM-12+0461DAAD V0203001N005110090019N0100001N1+01501-00031102661ADDAA199000091GA1061+009009089GF108991061021008001071001KA1120M+01621MD1310021+9999REMSYN082AAXX  14184 60515 32560 83010 10150 21003 40266 53002 86270 333 10162 86830 95990;EQDQ01  00002PRCP99
0211605150999992000021506004+35330+004200FM-12+0461DAAD V0202301N001012200019N0100001N1+00971-00471102991ADDAA199000091GA1021+009909089GF102991021021012501001001IA2240+00209KA1120N+00651MD1110071+9999REMSYN088AAXX  15064 60515 33660 22302 10097 21047 40299 51007 82200 333 00200 20065 82833 95990;EQDQ01  00002PRCP99
0144605150999992000021509004+35330+004200FM-12+0461DAAD V0201401N001012200019N0100001N1+01221+00431103151ADDGA1011+030009039GF101991011001999999081001MD1210151+9999REMSYN076AAXX  15094 60515 42960 11402 10122 20043 40315 52015 81080 333 81360 95900;
0180605150999992000021512004+35330+004200FM-12+0461DAAD V0201801N001012200019N0100001N1+01561+00031103111ADDAA199000091GA1031+009009089GF103991031021008001001001MD1810021+9999REMSYN082AAXX  15124 60515 32560 31802 10156 20003 40311 58002 83200 333 0//00 83830 95900;EQDQ01  00002PRCP99
0144605150999992000021515004+35330+004200FM-12+0461DAAD V0203401N006212200019N0100001N1+01711-00141102881ADDGA1031+009009089GF103991031021008001001001MD1710211+9999REMSYN076AAXX  15154 60515 42560 33412 10171 21014 40288 57021 83200 333 83830 95900;
0193605150999992000021518004+35330+004200FM-12+0461DAAD V0202201N003112200019N0100001N1+01371+00061102891ADDAA199000091GA1031+009009089GF103991031021008001001001KA1120M+01751MD1610071+9999REMSYN082AAXX  15184 60515 32560 32206 10137 20006 40289 56007 83200 333 10175 83830 95900;EQDQ01  00002PRCP99
0199605150999992000021606004+35330+004200FM-12+0461DAAD V0201801N002112200019N0150001N1+00231+00071102891ADDAA199000091GA1001+999999999GF100991001001999999001001IA2240-00609KA1120N-00161MD1810081+9999REMSYN076AAXX  16064 60515 33965 01804 10023 20007 40289 58008 333 05600 21016 95990;EQDQ01  00002PRCP99
0132605150999992000021609004+35330+004200FM-12+0461DAAD V0200801N002112200019N0150001N1+00801+00071102911ADDGA1001+999999999GF100991001001999999001001MD1110061+9999REMSYN064AAXX  16094 60515 42965 00804 10080 20007 40291 51006 333 95900;
0168605150999992000021612004+35330+004200FM-12+0461DAAD V0200601N002112200019N0150001N1+01481+00201102661ADDAA199000091GA1001+999999999GF100991001001999999001001MD1810191+9999REMSYN070AAXX  16124 60515 32965 00604 10148 20020 40266 58019 333 0//00 95900;EQDQ01  00002PRCP99
0144605150999992000021615004+35330+004200FM-12+0461DAAD V0202401N004112200019N0100001N1+01981+00301102221ADDGA1041+009009089GF104991041021008001001021MD1710401+9999REMSYN076AAXX  16154 60515 42560 42408 10198 20030 40222 57040 84202 333 84830 95900;
0193605150999992000021618004+35330+004200FM-12+0461DAAD V0200401N003119999999N0100001N1+01581+00541102201ADDAA199000091GA1041+009009089GF105991041021999999001021KA1120M+02101MD1510101+9999REMSYN082AAXX  16184 60515 32960 50406 10158 20054 40220 55010 84202 333 10210 84830 95990;EQDQ01  00002PRCP99
0211605150999992000021706004+35330+004200FM-12+0461DAAD V0202801N007212200019N0100001N1+00331+00021102151ADDAA199000091GA1031+060009009GF103991001001999999001021IA2240-00209KA1120N+00071MD1410001+9999REMSYN088AAXX  17064 60515 33960 32814 10033 20002 40215 54000 80002 333 05200 20007 83070 95900;EQDQ01  00002PRCP99
0144605150999992000021709004+35330+004200FM-12+0461DAAD V0203201N006212200019N0100001N1+01351+00091102301ADDGA1021+009009089GF103991021021008001001021MD1310201+9999REMSYN076AAXX  17094 60515 42560 33212 10135 20009 40230 53020 82202 333 82830 95900;
0180605150999992000021712004+35330+004200FM-12+0461DAAD V0203001N008210090019N0100001N1+01601-00081102211ADDAA199000091GA1051+009009089GF105991051021008001001001MD1810041+9999REMSYN082AAXX  17124 60515 32560 53016 10160 21008 40221 58004 85200 333 0//00 85830 95900;EQDQ01  00002PRCP99
0144605150999992000021715004+35330+004200FM-12+0461DAAD V0203001N014412200019N0100001N1+01761-00021102001ADDGA1041+009009089GF104991041021008001001001MD1710201+9999REMSYN076AAXX  17154 60515 42560 43028 10176 21002 40200 57020 84200 333 84830 95900;
0193605150999992000021718004+35330+004200FM-12+0461DAAD V0203001N010312200019N0100001N1+01301-00041102021ADDAA199000091GA1021+009009089GF102991021021008001001001KA1120M+01771MD1510001+9999REMSYN082AAXX  17184 60515 32560 23020 10130 21004 40202 55000 82200 333 10177 82830 95990;EQDQ01  00002PRCP99
0211605150999992000021806004+35330+004200FM-12+0461DAAD V0203201N010312200019N0100001N1+01301+00451102331ADDAA199000091GA1031+009009089GF103991031021008001001001IA2240+00109KA1120N+00571MD1110021+9999REMSYN088AAXX  18064 60515 33560 33220 10130 20045 40233 51002 83200 333 00100 20057 83830 95990;EQDQ01  00002PRCP99
0144605150999992000021809004+35330+004200FM-12+0461DAAD V0203601N004112200019N0100001N1+01431+00481102731ADDGA1031+009009089GF103991031021008001001001MD1210361+9999REMSYN076AAXX  18094 60515 42560 33608 10143 20048 40273 52036 83200 333 83830 95900;
0180605150999992000021812004+35330+004200FM-12+0461DAAD V0200601N002112200019N0100001N1+01561+00501102791ADDAA199000091GA1031+009009089GF103991031021008001001001MD1010081+9999REMSYN082AAXX  18124 60515 32560 30604 10156 20050 40279 50008 83200 333 0//00 83830 95900;EQDQ01  00002PRCP99
0144605150999992000021815004+35330+004200FM-12+0461DAAD V0203601N002112200019N0100001N1+01791+00191102581ADDGA1021+009009089GF102991021021008001001001MD1710181+9999REMSYN076AAXX  18154 60515 42560 23604 10179 20019 40258 57018 82200 333 82830 95900;
0176605150999992000021818004+35330+004200FM-12+0461DAAD V0201601N003112200019N0100001N1+01521+00231102661ADDAA199000091GF101991011021008001001001KA1120M+01901MD1310041+9999REMSYN081AAXX  18184 60515 32560 11606 10152 20023 40266 53004 81200 333 10190 8830 95990;EQDQ01  00002PRCP99
0199605150999992000021906004+35330+004200FM-12+0461DAAD V0201401N003112200019N0100001N1+00451+00061102781ADDAA199000091GA1001+999999999GF100991001001999999001001IA2240+00009KA1120N+00301MD1610011+9999REMSYN076AAXX  19064 60515 33960 01406 10045 20006 40278 56001 333 00000 20030 95990;EQDQ01  00002PRCP99
0144605150999992000021915004+35330+004200FM-12+0461DAAD V0200801N002112200019N0150001N1+01901+00311102351ADDGA1021+009009089GF102991021021008001001001MD1710321+9999REMSYN076AAXX  19154 60515 42565 20804 10190 20031 40235 57032 82200 333 82830 95900;
0193605150999992000021918004+35330+004200FM-12+0461DAAD V0201001N003112200019N0150001N1+01551+00451102341ADDAA199000091GA1011+009009089GF101991011021008001001001KA1120M+01911MD1610071+9999REMSYN082AAXX  19184 60515 32565 11006 10155 20045 40234 56007 81200 333 10191 81830 95990;EQDQ01  00002PRCP99
0199605150999992000022006004+35330+004200FM-12+0461DAAD V0209999C000012200019N0150001N1+00521+00081102341ADDAA199000091GA1001+999999999GF100991001001999999001001IA2240-00109KA1120N+00291MD1710071+9999REMSYN076AAXX  20064 60515 33965 00000 10052 20008 40234 57007 333 05100 20029 95990;EQDQ01  00002PRCP99
0132605150999992000022009004+35330+004200FM-12+0461DAAD V0203601N002112200019N0150001N1+01101+00401102441ADDGA1001+999999999GF100991001001999999001001MD1310121+9999REMSYN064AAXX  20094 60515 42965 03604 10110 20040 40244 53012 333 95900;
0168605150999992000022012004+35330+004200FM-12+0461DAAD V0202801N006212200019N0150001N1+02051-00261102241ADDAA199000091GA1001+999999999GF100991001001999999001001MD1810131+9999REMSYN070AAXX  20124 60515 32965 02812 10205 21026 40224 58013 333 0//00 95900;EQDQ01  00002PRCP99
0132605150999992000022015004+35330+004200FM-12+0461DAAD V0203001N007212200019N0150001N1+02201-00341102091ADDGA1001+999999999GF100991001001999999001001MD1710151+9999REMSYN064AAXX  20154 60515 42965 03014 10220 21034 40209 57015 333 95900;
0181605150999992000022018004+35330+004200FM-12+0461DAAD V0203401N006212200019N0150001N1+01701+00231102231ADDAA199000091GA1001+999999999GF100991001001999999001001KA1120M+02211MD1310081+9999REMSYN070AAXX  20184 60515 32965 03412 10170 20023 40223 53008 333 10221 95990;EQDQ01  00002PRCP99
0211605150999992000022106004+35330+004200FM-12+0461DAAD V0203201N003112200019N0100001N1+00331+00021102611ADDAA199000091GA1021+069009009GF102991001001999999001021IA2240-00109KA1120N+00141MD1510021+9999REMSYN088AAXX  21064 60515 33960 23206 10033 20002 40261 55002 80002 333 05100 20014 82073 95990;EQDQ01  00002PRCP99
0132605150999992000022109004+35330+004200FM-12+0461DAAD V0203601N007212200019N0100001N1+01141+00111102741ADDGA1001+999999999GF100991001001999999001001MD1310181+9999REMSYN064AAXX  21094 60515 42960 03614 10114 20011 40274 53018 333 95900;
0132605150999992000022115004+35330+004200FM-12+0461DAAD V0203601N004112200019N0100001N1+01661-00271102521ADDGA1001+999999999GF100991001001999999001001MD1710171+9999REMSYN064AAXX  21154 60515 42960 03608 10166 21027 40252 57017 333 95900;
0181605150999992000022118004+35330+004200FM-12+0461DAAD V0202001N002112200019N0100001N1+01401+00011102611ADDAA199000091GA1001+999999999GF100991001001999999001001KA1120M+01711MD1310031+9999REMSYN070AAXX  21184 60515 32960 02004 10140 20001 40261 53003 333 10171 95990;EQDQ01  00002PRCP99
0215605150999992000022206004+35330+004200FM-12+0461DAAD V0202001N002112200019N0150001N1+00271-00211102741ADDAA199000091GA1001+999999999GF100991001001999999001001IA2240+00109KA1120N+99999MD1810031+9999REMSYN076AAXX  22064 60515 33965 02004 10027 21021 40274 58003 333 00100 20046 95990;EQDQ01  00002PRCP99Q02 +00462ATMN  
0144605150999992000022209004+35330+004200FM-12+0461DAAD V0209999C000010600019N0100001N1+00951-00031102871ADDGA1051+060009009GF105991001001999999001021MD1310101+9999REMSYN076AAXX  22094 60515 42960 50000 10095 21003 40287 53010 80002 333 85070 95900;
0180605150999992000022212004+35330+004200FM-12+0461DAAD V0203601N002112200019N0100001N1+01301+00021102631ADDAA199000091GA1031+069009009GF103991001001999999001021MD1810151+9999REMSYN082AAXX  22124 60515 32960 33604 10130 20002 40263 58015 80002 333 0//00 83073 95900;EQDQ01  00002PRCP99
0144605150999992000022215004+35330+004200FM-12+0461DAAD V0201201N002112200019N0100001N1+01641+00051102431ADDGA1021+060009009GF102991001001999999001021MD1710211+9999REMSYN076AAXX  22154 60515 42960 21204 10164 20005 40243 57021 80002 333 82070 95900;
0193605150999992000022218004+35330+004200FM-12+0461DAAD V0201401N002112200019N0100001N1+01481+00201102291ADDAA199000091GA1041+060009009GF104991001001999999001011KA1120M+01751MD1710151+9999REMSYN082AAXX  22184 60515 32960 41404 10148 20020 40229 57015 80001 333 10175 84070 95990;EQDQ01  00002PRCP99
0211605150999992000022306004+35330+004200FM-12+0461DAAD V0203001N004112200019N0100001N1+00421-00291102311ADDAA199000091GA1031+024009039GF103991031001022501071001IA2240-00209KA1120N+00291MD1610021+9999REMSYN088AAXX  23064 60515 33860 33008 10042 21029 40231 56002 83070 333 05200 20029 83358 95990;EQDQ01  00002PRCP99
0144605150999992000022309004+35330+004200FM-12+0461DAAD V0203201N004112200019N0100001N1+01221+00451102481ADDGA1031+009009089GF104991031021008001001021MD1310201+9999REMSYN076AAXX  23094 60515 42560 43208 10122 20045 40248 53020 83202 333 83830 95900;
0180605150999992000022312004+35330+004200FM-12+0461DAAD V0203401N008212200019N0100001N1+01561-00031102491ADDAA199000091GA1031+009009089GF104991031021008001071001MD1810011+9999REMSYN082AAXX  23124 60515 32560 43416 10156 21003 40249 58001 83270 333 0//00 83830 95900;EQDQ01  00002PRCP99
0144605150999992000022315004+35330+004200FM-12+0461DAAD V0203201N009310090019N0100001N1+01581+00001102381ADDGA1071+009009089GF107991071021008001999999MD1610151+9999REMSYN076AAXX  23154 60515 42560 73218 10158 21000 40238 56015 872// 333 87830 95900;
0193605150999992000022318004+35330+004200FM-12+0461DAAD V0203401N011310090019N0100001N1+01201+00151102561ADDAA199000091GA1061+009009089GF106991061021008001001001KA1120M+01701MD1310191+9999REMSYN082AAXX  23184 60515 32560 63422 10120 20015 40256 53019 86200 333 10170 86830 95990;EQDQ01  00002PRCP99
0211605150999992000022406004+35330+004200FM-12+0461DAAD V0203001N006212200019N0100001N1+00641+00051103041ADDAA199000091GA1021+009009089GF102991021021999999001001IA2240-00109KA1120N+00151MD1110011+9999REMSYN088AAXX  24064 60515 33960 23012 10064 20005 40304 51001 82200 333 05100 20015 82830 95990;EQDQ01  00002PRCP99
0144605150999992000022409004+35330+004200FM-12+0461DAAD V0203401N005112200019N0100001N1+00931-00171103321ADDGA1021+009009089GF102991021021008001001001MD1310231+9999REMSYN076AAXX  24094 60515 42560 23410 10093 21017 40332 53023 82200 333 82830 95900;
0180605150999992000022412004+35330+004200FM-12+0461DAAD V0203601N004112200019N0100001N1+01211-00381103321ADDAA199000091GA1031+007809089GF103991031021008001001001MD1010001+9999REMSYN082AAXX  24124 60515 32560 33608 10121 21038 40332 50000 83200 333 0//00 83826 95900;EQDQ01  00002PRCP99
0144605150999992000022415004+35330+004200FM-12+0461DAAD V0203601N004112200019N0100001N1+01471-00411103161ADDGA1041+009009089GF104991041021008001001001MD1710031+9999REMSYN076AAXX  24154 60515 42560 43608 10147 21041 40316 57003 84200 333 84830 95900;
0181605150999992000022418004+35330+004200FM-12+0461DAAD V0200401N004112200019N0100001N1+01181-00201103311ADDAA199000091GA1001+999999999GF100991001001999999001001KA1120M+01501MD1310101+9999REMSYN070AAXX  24184 60515 32960 00408 10118 21020 40331 53010 333 10150 95990;EQDQ01  00002PRCP99
0199605150999992000022506004+35330+004200FM-12+0461DAAD V0202201N002112200019N0100001N1+00141-00261103741ADDAA199000091GA1001+999999999GF100991001001999999001001IA2240-00209KA1120N+00011MD1010011+9999REMSYN076AAXX  25064 60515 33960 02204 10014 21026 40374 50001 333 05200 20001 95990;EQDQ01  00002PRCP99
0132605150999992000022509004+35330+004200FM-12+0461DAAD V0209999C000012200019N0100001N1+00761-00041103801ADDGA1001+999999999GF100991001001999999001001MD1310131+9999REMSYN064AAXX  25094 60515 42960 00000 10076 21004 40380 53013 333 95900;
0168605150999992000022512004+35330+004200FM-12+0461DAAD V0209999C000012200019N0100001N1+01311-00021103681ADDAA199000091GA1001+999999999GF100991001001999999001001MD1810061+9999REMSYN070AAXX  25124 60515 32960 00000 10131 21002 40368 58006 333 0//00 95900;EQDQ01  00002PRCP99
0132605150999992000022515004+35330+004200FM-12+0461DAAD V0200801N003112200019N0100001N1+01551-00171103471ADDGA1001+999999999GF100991001001999999001001MD1710231+9999REMSYN064AAXX  25154 60515 42960 00806 10155 21017 40347 57023 333 95900;
0181605150999992000022518004+35330+004200FM-12+0461DAAD V0201001N003112200019N0100001N1+01301+00161103471ADDAA199000091GA1001+999999999GF100991001001999999001001KA1120M+01631MD1610041+9999REMSYN070AAXX  25184 60515 32960 01006 10130 20016 40347 56004 333 10163 95990;EQDQ01  00002PRCP99
0217605150999992000022606004+35330+004200FM-12+0461DAAD V0209999C000012200019N0100001N1+00151-00381103601ADDAA199000091GA1001+999999999GF100991001001999999001001IA2240-00309KA1120N-00031REMSYN076AAXX  26064 60515 33960 00000 10015 21038 40360 56000 333 05300 21003 95990;EQDQ01+000062APCTENQ02+000002APC3  Q03  00002PRCP99
0144605150999992000022609004+35330+004200FM-12+0461DAAD V0209999C000012200019N0100001N1+00921-00081103661ADDGA1031+060009009GF103991001001999999001021MD1110101+9999REMSYN076AAXX  26094 60515 42960 30000 10092 21008 40366 51010 80002 333 83070 95900;
0180605150999992000022612004+35330+004200FM-12+0461DAAD V0201001N002112200019N0100001N1+01501-00201103501ADDAA199000091GA1021+060009009GF102991001001999999001021MD1810131+9999REMSYN082AAXX  26124 60515 32960 21004 10150 21020 40350 58013 80002 333 0//00 82070 95900;EQDQ01  00002PRCP99
0144605150999992000022615004+35330+004200FM-12+0461DAAD V0200601N004112200019N0100001N1+01731-00171103211ADDGA1031+060009009GF103991001001999999001021MD1710271+9999REMSYN076AAXX  26154 60515 42960 30608 10173 21017 40321 57027 80002 333 83070 95900;
0193605150999992000022618004+35330+004200FM-12+0461DAAD V0203201N004112200019N0100001N1+01431-00071103231ADDAA199000091GA1041+060009009GF104991001001999999001021KA1120M+01751MD1610021+9999REMSYN082AAXX  26184 60515 32960 43208 10143 21007 40323 56002 80002 333 10175 84070 95990;EQDQ01  00002PRCP99
0199605150999992000022706004+35330+004200FM-12+0461DAAD V0209999C000012200019N0100001N1+00141-00291103171ADDAA199000091GA1001+999999999GF100991001001999999001001IA2240-00309KA1120N-00031MD1710041+9999REMSYN076AAXX  27064 60515 33960 00000 10014 21029 40317 57004 333 05300 21003 95990;EQDQ01  00002PRCP99
0166605150999992000022709004+35330+004200FM-12+0461DAAD V0201201N001012200019N0100001N1+01011+00021103271ADDGA1021+009909089GA2031+060009009GF104991021021012501001021MD1310141+9999REMSYN082AAXX  27094 60515 42660 41202 10101 20002 40327 53014 82202 333 82833 83070 95900;
0180605150999992000022712004+35330+004200FM-12+0461DAAD V0200601N001012200019N0100001N1+01461-00021103151ADDAA199000091GA1041+069009009GF104991001001999999001021MD1810121+9999REMSYN082AAXX  27124 60515 32960 40602 10146 21002 40315 58012 80002 333 0//00 84073 95900;EQDQ01  00002PRCP99
0144605150999992000022715004+35330+004200FM-12+0461DAAD V0200601N001012200019N0100001N1+01941-00271102881ADDGA1031+069009009GF104991001001999999001021MD1710231+9999REMSYN076AAXX  27154 60515 42960 40602 10194 21027 40288 57023 80002 333 83073 95900;
0193605150999992000022718004+35330+004200FM-12+0461DAAD V0200801N002112200019N0100001N1+01601+00001102931ADDAA199000091GA1041+060009009GF104991001001999999001021KA1120M+01941MD1310011+9999REMSYN082AAXX  27184 60515 32960 40804 10160 20000 40293 53001 80002 333 10194 84070 95990;EQDQ01  00002PRCP99
0227605150999992000022806004+35330+004200FM-12+0461DAAD V0201601N003112200019N0100001N1+00261-00291102991ADDAA199000091GA1031+024009039GF103991031001999999081001IA2240-00209KA1120N+99999MD1710051+9999REMSYN088AAXX  28064 60515 33960 31606 10026 21029 40299 57005 83080 333 05200 20064 83358 95990;EQDQ01  00002PRCP99Q02 +00642ATMN  
0144605150999992000022809004+35330+004200FM-12+0461DAAD V0209999C000012200019N0100001N1+01031+00051103071ADDGA1031+024009039GF103991031001999999081021MD1210131+9999REMSYN076AAXX  28094 60515 42960 30000 10103 20005 40307 52013 83082 333 83358 95900;
0202605150999992000022812004+35330+004200FM-12+0461DAAD V0201001N002112200019N0100001N1+01631-00021102991ADDAA199000091GA1011+009909089GA2031+024009039GF104991031021012501081021MD1810071+9999REMSYN088AAXX  28124 60515 32660 41004 10163 21002 40299 58007 83282 333 0//00 81833 83358 95900;EQDQ01  00002PRCP99
0166605150999992000022815004+35330+004200FM-12+0461DAAD V0200401N002112200019N0100001N1+01901-00381102761ADDGA1011+009909089GA2031+024009039GF104991011021012501071021MD1710241+9999REMSYN082AAXX  28154 60515 42660 40404 10190 21038 40276 57024 81272 333 81833 83358 95900;
0215605150999992000022818004+35330+004200FM-12+0461DAAD V0203601N002119999999N0100001N1+01671-00131102741ADDAA199000091GA1021+024009039GA2031+060009009GF105991021001999999071021KA1120M+02021MD1510031+9999REMSYN088AAXX  28184 60515 32960 53604 10167 21013 40274 55003 82072 333 10202 82358 83070 95990;EQDQ01  00002PRCP99
0211605150999992000022906004+35330+004200FM-12+0461DAAD V0201001N002112200019N0100001N1+00341-00221102891ADDAA199000091GA1021+069009009GF102991001001999999001021IA2240-00209KA1120N+00191MD1410001+9999REMSYN088AAXX  29064 60515 33960 21004 10034 21022 40289 54000 80002 333 05200 20019 82073 95990;EQDQ01  00002PRCP99
0144605150999992000022909004+35330+004200FM-12+0461DAAD V0200201N003112200019N0100001N1+01061-00111103071ADDGA1021+069009009GF102991001001999999001021MD1310181+9999REMSYN076AAXX  29094 60515 42960 20206 10106 21011 40307 53018 80002 333 82073 95900;
0180605150999992000022912004+35330+004200FM-12+0461DAAD V0200201N002112200019N0100001N1+01691-00051102911ADDAA199000091GA1021+024009039GF103991021001022501031021MD1810091+9999REMSYN082AAXX  29124 60515 32860 30204 10169 21005 40291 58009 82032 333 0//00 82358 95900;EQDQ01  00002PRCP99
0144605150999992000022915004+35330+004200FM-12+0461DAAD V0200601N002112200019N0100001N1+02061-00201102631ADDGA1021+069009009GF102991001001999999001021MD1710261+9999REMSYN076AAXX  29154 60515 42960 20604 10206 21020 40263 57026 80002 333 82073 95900;
0193605150999992000022918004+35330+004200FM-12+0461DAAD V0203601N002112200019N0100001N1+01801-00111102721ADDAA199000091GA1021+060009009GF102991001001999999001021KA1120M+02151MD1310041+9999REMSYN082AAXX  29184 60515 32960 23604 10180 21011 40272 53004 80002 333 10215 82070 95990;EQDQ01  00002PRCP99
0199605150999992000030106004+35330+004200FM-12+0461DAAD V0202001N002112200019N0150001N1+00301-00401102761ADDAA199000091GA1001+999999999GF100991001001999999001001IA2240-00209KA1120N+00161MD1710121+9999REMSYN076AAXX  01064 60515 33965 02004 10030 21040 40276 57012 333 05200 20016 95990;EQDQ01  00002PRCP99
0168605150999992000030112004+35330+004200FM-12+0461DAAD V0209999C000012200019N0150001N1+01661-00311102591ADDAA199000091GA1001+999999999GF100991001001999999001001MD1810211+9999REMSYN070AAXX  01124 60515 32965 00000 10166 21031 40259 58021 333 0//00 95900;EQDQ01  00002PRCP99
0132605150999992000030115004+35330+004200FM-12+0461DAAD V0200601N002112200019N0150001N1+02101-00151102231ADDGA1001+999999999GF100991001001999999001001MD1710331+9999REMSYN064AAXX  01154 60515 42965 00604 10210 21015 40223 57033 333 95900;
0181605150999992000030118004+35330+004200FM-12+0461DAAD V0209999C000012200019N0150001N1+01701-00171102241ADDAA199000091GA1001+999999999GF100991001001999999001001KA1120M+02151MD1510131+9999REMSYN070AAXX  01184 60515 32965 00000 10170 21017 40224 55013 333 10215 95990;EQDQ01  00002PRCP99
0199605150999992000030206004+35330+004200FM-12+0461DAAD V0202801N006212200019N0100001N1+00651+00271102421ADDAA199000091GA1001+999999999GF100991001001999999001001IA2240+00209KA1120N+00541MD1010011+9999REMSYN076AAXX  02064 60515 33960 02812 10065 20027 40242 50001 333 00200 20054 95900;EQDQ01  00002PRCP99
0144605150999992000030209004+35330+004200FM-12+0461DAAD V0203201N008212200019N0100001N1+01451+00381102661ADDGA1021+009909089GF102991021021999999001001MD1310321+9999REMSYN076AAXX  02094 60515 42960 23216 10145 20038 40266 53032 82200 333 82833 95900;
0180605150999992000030212004+35330+004200FM-12+0461DAAD V0203201N009310090019N0100001N1+01761+00071102681ADDAA199000091GA1061+009009089GF106991061021008001001001MD1110021+9999REMSYN082AAXX  02124 60515 32560 63218 10176 20007 40268 51002 86200 333 0//00 86830 95900;EQDQ01  00002PRCP99
0144605150999992000030215004+35330+004200FM-12+0461DAAD V0203401N009312200019N0100001N1+01861-00301102551ADDGA1021+009909089GF102991021021012501001001MD1810121+9999REMSYN076AAXX  02154 60515 42660 23418 10186 21030 40255 58012 82200 333 82833 95900;
0193605150999992000030218004+35330+004200FM-12+0461DAAD V0203401N005112200019N0100001N1+01591-00161102661ADDAA199000091GA1021+009909089GF102991021021012501001001KA1120M+01911MD1310091+9999REMSYN082AAXX  02184 60515 32660 23410 10159 21016 40266 53009 82200 333 10191 82833 95900;EQDQ01  00002PRCP99
0199605150999992000030306004+35330+004200FM-12+0461DAAD V0201201N002112200019N0100001N1+00021-00531103121ADDAA199000091GA1001+999999999GF100991001001999999001001IA2240-00309KA1120N-00101MD1710051+9999REMSYN076AAXX  03064 60515 33960 01204 10002 21053 40312 57005 333 05300 21010 95900;EQDQ01  00002PRCP99
0132605150999992000030309004+35330+004200FM-12+0461DAAD V0200801N002112200019N0100001N1+00881-00291103251ADDGA1001+999999999GF100991001001999999001001MD1310201+9999REMSYN064AAXX  03094 60515 42960 00804 10088 21029 40325 53020 333 95900;
0168605150999992000030312004+35330+004200FM-12+0461DAAD V0200601N002112200019N0100001N1+01381-00501103131ADDAA199000091GA1001+999999999GF100991001001999999001001MD1810081+9999REMSYN070AAXX  03124 60515 32960 00604 10138 21050 40313 58008 333 0//00 95900;EQDQ01  00002PRCP99
0132605150999992000030315004+35330+004200FM-12+0461DAAD V0200801N002112200019N0100001N1+01731-00251102841ADDGA1001+999999999GF100991001001999999001001MD1710291+9999REMSYN064AAXX  03154 60515 42960 00804 10173 21025 40284 57029 333 95900;
0181605150999992000030318004+35330+004200FM-12+0461DAAD V0203601N002112200019N0100001N1+01821-00221102801ADDAA199000091GA1001+999999999GF100991001001999999001001KA1120M+01811MD1510081+9999REMSYN070AAXX  03184 60515 32960 03604 10182 21022 40280 55008 333 10181 95900;EQDQ01  00002PRCP99
0211605150999992000030406004+35330+004200FM-12+0461DAAD V0202001N002112200019N0100001N1+00111-00041102711ADDAA199000091GA1021+069009009GF102991001001999999001021IA2240-00209KA1120N+00091MD1710111+9999REMSYN088AAXX  04064 60515 33960 22004 10011 21004 40271 57011 80002 333 05200 20009 82073 95900;EQDQ01  00002PRCP99
0144605150999992000030409004+35330+004200FM-12+0461DAAD V0200601N002112200019N0100001N1+01001-00241102741ADDGA1021+069009009GF102991001001999999001021MD1310071+9999REMSYN076AAXX  04094 60515 42960 20604 10100 21024 40274 53007 80002 333 82073 95900;
0168605150999992000030412004+35330+004200FM-12+0461DAAD V0203401N001012200019N0100001N1+01601-00181102591ADDAA199000091GA1001+999999999GF100991001001999999001001MD1810111+9999REMSYN070AAXX  04124 60515 32960 03402 10160 21018 40259 58011 333 0//00 95900;EQDQ01  00002PRCP99
0144605150999992000030415004+35330+004200FM-12+0461DAAD V0203601N002112200019N0100001N1+02001-00211102311ADDGA1011+009909089GF101991011021012501001001MD1710231+9999REMSYN076AAXX  04154 60515 42660 13604 10200 21021 40231 57023 81200 333 81833 95900;
0193605150999992000030418004+35330+004200FM-12+0461DAAD V0201401N003112200019N0100001N1+01701+00031102371ADDAA199000091GA1021+009909089GF102991021021012501001001KA1120M+02111MD1610021+9999REMSYN082AAXX  04184 60515 32660 21406 10170 20003 40237 56002 82200 333 10211 82833 95900;EQDQ01  00002PRCP99
0199605150999992000030506004+35330+004200FM-12+0461DAAD V0202401N002112200019N0100001N1+00731-00221102631ADDAA199000091GA1001+999999999GF100991001001999999001001IA2240+00609KA1120N+00001MD1510041+9999REMSYN076AAXX  05064 60515 33960 02404 10073 21022 40263 55004 333 00600 20000 95900;EQDQ01  00002PRCP99
0132605150999992000030509004+35330+004200FM-12+0461DAAD V0209999C000012200019N0100001N1+01501-00041102881ADDGA1001+999999999GF100991001001999999001001MD1310181+9999REMSYN064AAXX  05094 60515 42960 00000 10150 21004 40288 53018 333 95900;
0168605150999992000030512004+35330+004200FM-12+0461DAAD V0203401N003112200019N0100001N1+02041-00531102771ADDAA199000091GA1001+999999999GF100991001001999999001001MD1810011+9999REMSYN070AAXX  05124 60515 32960 03406 10204 21053 40277 58001 333 0//00 95900;EQDQ01  00002PRCP99
0132605150999992000030515004+35330+004200FM-12+0461DAAD V02099999999992200019N0100001N1+02171-00901102601ADDGA1001+999999999GF100991001001999999001001MD1710141+9999REMSYN064AAXX  05154 60515 42960 04004 10217 21090 40260 57014 333 95900;
0181605150999992000030518004+35330+004200FM-12+0461DAAD V0203601N005112200019N0100001N1+01941-00381102741ADDAA199000091GA1001+999999999GF100991001001999999001001KA1120M+02221MD1310091+9999REMSYN070AAXX  05184 60515 32960 03610 10194 21038 40274 53009 333 10222 95900;EQDQ01  00002PRCP99
0199605150999992000030606004+35330+004200FM-12+0461DAAD V0209999C000012200019N0100001N1+00501-00031103161ADDAA199000091GA1001+999999999GF100991001001999999001001IA2240-00109KA1120N+00411MD1110051+9999REMSYN076AAXX  06064 60515 33960 00000 10050 21003 40316 51005 333 05100 20041 95900;EQDQ01  00002PRCP99
0144605150999992000030609004+35330+004200FM-12+0461DAAD V0200401N004112200019N0100001N1+01051+00251103341ADDGA1021+069009009GF102991001001999999001021MD1310191+9999REMSYN076AAXX  06094 60515 42960 20408 10105 20025 40334 53019 80002 333 82073 95900;
0180605150999992000030612004+35330+004200FM-12+0461DAAD V0200201N003112200019N0100001N1+01701+00031103261ADDAA199000091GA1021+069009009GF102991001001999999001021MD1810081+9999REMSYN082AAXX  06124 60515 32960 20206 10170 20003 40326 58008 80002 333 0//00 82073 95900;EQDQ01  00002PRCP99
0144605150999992000030615004+35330+004200FM-12+0461DAAD V0200401N003112200019N0100001N1+02141-00331103001ADDGA1031+024009039GF104991031001022501031021MD1710231+9999REMSYN076AAXX  06154 60515 42860 40406 10214 21033 40300 57023 83032 333 83358 95900;
0215605150999992000030618004+35330+004200FM-12+0461DAAD V0202401N002119999999N0100001N1+01801+00001102981ADDAA199000091GA1021+030009039GA2031+060009009GF105991021001999999031021KA1120M+02151MD1610051+9999REMSYN088AAXX  06184 60515 32960 52404 10180 20000 40298 56005 82032 333 10215 82360 83070 95900;EQDQ01  00002PRCP99
0211605150999992000030706004+35330+004200FM-12+0461DAAD V0201601N002112200019N0100001N1+00531+00141103181ADDAA199000091GA1021+060009009GF102991001001999999001021IA2240+00009KA1120N+00451MD1710121+9999REMSYN088AAXX  07064 60515 33960 21604 10053 20014 40318 57012 80002 333 00010 20045 82070 95900;EQDQ01  00002PRCP99
0144605150999992000030709004+35330+004200FM-12+0461DAAD V0203601N002112200019N0100001N1+01111+00331103291ADDGA1011+024009039GF101991011001999999081001MD1110121+9999REMSYN076AAXX  07094 60515 42960 13604 10111 20033 40329 51012 81080 333 81358 95900;
0180605150999992000030712004+35330+004200FM-12+0461DAAD V0202601N002112200019N0100001N1+01761+00131103131ADDAA199000091GA1021+060009009GF102991001001999999001021MD1810131+9999REMSYN082AAXX  07124 60515 32960 22604 10176 20013 40313 58013 80002 333 0//00 82070 95900;EQDQ01  00002PRCP99
0144605150999992000030715004+35330+004200FM-12+0461DAAD V0200601N005112200019N0100001N1+02031+00141102851ADDGA1021+060009009GF102991001001999999001021MD1710261+9999REMSYN076AAXX  07154 60515 42960 20610 10203 20014 40285 57026 80002 333 82070 95900;
0193605150999992000030718004+35330+004200FM-12+0461DAAD V0203601N002112200019N0100001N1+01701+00471102911ADDAA199000091GA1021+060009009GF102991001001999999001021KA1120M+02051MD1510001+9999REMSYN082AAXX  07184 60515 32960 23604 10170 20047 40291 55000 80002 333 10205 82070 95900;EQDQ01  00002PRCP99
0211605150999992000030806004+35330+004200FM-12+0461DAAD V0201801N002112200019N0100001N1+00551+00061103061ADDAA199000091GA1021+069009009GF102991001001999999001021IA2240+00009KA1120N+00441MD1310021+9999REMSYN088AAXX  08064 60515 33960 21804 10055 20006 40306 53002 80002 333 00000 20044 82073 95900;EQDQ01  00002PRCP99
0144605150999992000030809004+35330+004200FM-12+0461DAAD V0209999C000012200019N0100001N1+01421+00281103141ADDGA1021+069009009GF102991001001999999001021MD1310141+9999REMSYN076AAXX  08094 60515 42960 20000 10142 20028 40314 53014 80002 333 82073 95900;
0144605150999992000030815004+35330+004200FM-12+0461DAAD V0200201N004112200019N0100001N1+02161-00321102821ADDGA1041+009909089GF104991041021012501001001MD1710201+9999REMSYN076AAXX  08154 60515 42660 40208 10216 21032 40282 57020 84200 333 84833 95900;
0193605150999992000030818004+35330+004200FM-12+0461DAAD V0203601N006212200019N0100001N1+01901-00191102941ADDAA199000091GA1041+009909089GF104991041021012501001001KA1120M+02201MD1310051+9999REMSYN082AAXX  08184 60515 32660 43612 10190 21019 40294 53005 84200 333 10220 84833 95900;EQDQ01  00002PRCP99
0199605150999992000030906004+35330+004200FM-12+0461DAAD V0202401N003112200019N0100001N1+00731-00491103251ADDAA199000091GA1001+999999999GF100991001001999999001001IA2240+00009KA1120N+00421MD1710031+9999REMSYN076AAXX  09064 60515 33960 02406 10073 21049 40325 57003 333 00020 20042 95900;EQDQ01  00002PRCP99
0168605150999992000030912004+35330+004200FM-12+0461DAAD V0203601N002112200019N0100001N1+01751-00431103231ADDAA199000091GA1001+999999999GF100991001001999999001001MD1810121+9999REMSYN070AAXX  09124 60515 32960 03604 10175 21043 40323 58012 333 0//00 95900;EQDQ01  00002PRCP99
0132605150999992000030915004+35330+004200FM-12+0461DAAD V0200601N003112200019N0100001N1+01991-01271103011ADDGA1001+999999999GF100991001001999999001001MD1710231+9999REMSYN064AAXX  09154 60515 42960 00606 10199 21127 40301 57023 333 95900;
0181605150999992000030918004+35330+004200FM-12+0461DAAD V0202401N002112200019N0100001N1+01731-00731102971ADDAA199000091GA1001+999999999GF100991001001999999001001KA1120M+02011MD1610071+9999REMSYN070AAXX  09184 60515 32960 02404 10173 21073 40297 56007 333 10201 95900;EQDQ01  00002PRCP99
0199605150999992000031006004+35330+004200FM-12+0461DAAD V0202801N001012200019N0100001N1+00461-00431103021ADDAA199000091GA1001+999999999GF100991001001999999001001IA2240-00309KA1120N+00301MD1710071+9999REMSYN076AAXX  10064 60515 33960 02802 10046 21043 40302 57007 333 05300 20030 95900;EQDQ01  00002PRCP99
0132605150999992000031009004+35330+004200FM-12+0461DAAD V0201001N001012200019N0100001N1+01311-00131103061ADDGA1001+999999999GF100991001001999999001001MD1110071+9999REMSYN064AAXX  10094 60515 42960 01002 10131 21013 40306 51007 333 95900;
0168605150999992000031012004+35330+004200FM-12+0461DAAD V0200201N002112200019N0100001N1+01841-00071102991ADDAA199000091GA1001+999999999GF100991001001999999001001MD1810061+9999REMSYN070AAXX  10124 60515 32960 00204 10184 21007 40299 58006 333 0//00 95900;EQDQ01  00002PRCP99
0132605150999992000031015004+35330+004200FM-12+0461DAAD V0200401N001012200019N0100001N1+02101-00461102731ADDGA1001+999999999GF100991001001999999001001MD1710251+9999REMSYN064AAXX  10154 60515 42960 00402 10210 21046 40273 57025 333 95900;
0181605150999992000031018004+35330+004200FM-12+0461DAAD V0209999C000012200019N0100001N1+02031-00141102671ADDAA199000091GA1001+999999999GF100991001001999999001001KA1120M+02251MD1510051+9999REMSYN070AAXX  10184 60515 32960 00000 10203 21014 40267 55005 333 10225 95900;EQDQ01  00002PRCP99
0199605150999992000031106004+35330+004200FM-12+0461DAAD V0200401N002112200019N0100001N1+01061+00131102711ADDAA199000091GA1001+999999999GF100991001001999999001001IA2240+00009KA1120N+00541MD1710041+9999REMSYN076AAXX  11064 60515 33960 00404 10106 20013 40271 57004 333 00020 20054 95900;EQDQ01  00002PRCP99
0132605150999992000031109004+35330+004200FM-12+0461DAAD V0201601N002112200019N0100001N1+01451+00091102821ADDGA1001+999999999GF100991001001999999001001MD1110071+9999REMSYN064AAXX  11094 60515 42960 01604 10145 20009 40282 51007 333 95900;
0168605150999992000031112004+35330+004200FM-12+0461DAAD V0200601N002112200019N0100001N1+02111+00061102651ADDAA199000091GA1001+999999999GF100991001001999999001001MD1810111+9999REMSYN070AAXX  11124 60515 32960 00604 10211 20006 40265 58011 333 0//00 95900;EQDQ01  00002PRCP99
0132605150999992000031115004+35330+004200FM-12+0461DAAD V0200401N003112200019N0100001N1+02401-00161102331ADDGA1001+999999999GF100991001001999999001001MD1710261+9999REMSYN064AAXX  11154 60515 42960 00406 10240 21016 40233 57026 333 95900;
0181605150999992000031118004+35330+004200FM-12+0461DAAD V0203601N002112200019N0100001N1+02121+00111102341ADDAA199000091GA1001+999999999GF100991001001999999001001KA1120M+02451MD1510051+9999REMSYN070AAXX  11184 60515 32960 03604 10212 20011 40234 55005 333 10245 95900;EQDQ01  00002PRCP99
0211605150999992000031206004+35330+004200FM-12+0461DAAD V0201801N002112200019N0100001N1+00711+00101102301ADDAA199000091GA1021+060009009GF102991001001999999001021IA2240+00109KA1120N+00461MD1710061+9999REMSYN088AAXX  12064 60515 33960 21804 10071 20010 40230 57006 80002 333 00100 20046 82070 95900;EQDQ01  00002PRCP99
0144605150999992000031209004+35330+004200FM-12+0461DAAD V0200601N001012200019N0100001N1+01501+00131102371ADDGA1031+069009009GF103991001001999999001021MD1310091+9999REMSYN076AAXX  12094 60515 42960 30602 10150 20013 40237 53009 80002 333 83073 95900;
0180605150999992000031212004+35330+004200FM-12+0461DAAD V0200601N002112200019N0100001N1+02151-00051102291ADDAA199000091GA1041+069009009GF104991001001999999001021MD1810061+9999REMSYN082AAXX  12124 60515 32960 40604 10215 21005 40229 58006 80002 333 0//00 84073 95900;EQDQ01  00002PRCP99
0144605150999992000031215004+35330+004200FM-12+0461DAAD V0201201N002112200019N0100001N1+02521-00111102031ADDGA1031+069009009GF103991001001999999001021MD1710211+9999REMSYN076AAXX  12154 60515 42960 31204 10252 21011 40203 57021 80002 333 83073 95900;
0193605150999992000031218004+35330+004200FM-12+0461DAAD V0201201N003112200019N0100001N1+02121+00041102081ADDAA199000091GA1031+060009009GF103991001001999999001021KA1120M+02551MD1610031+9999REMSYN082AAXX  12184 60515 32960 31206 10212 20004 40208 56003 80002 333 10255 83070 95900;EQDQ01  00002PRCP99
0211605150999992000031306004+35330+004200FM-12+0461DAAD V0209999C000010600019N0080001N1+01351+00091102131ADDAA199000091GA1081+060009009GF108991001001999999001021IA2240+00009KA1120N+00921MD1710381+9999REMSYN088AAXX  13064 60515 33958 80000 10135 20009 40213 57038 80002 333 00060 20092 88070 95900;EQDQ01  00002PRCP99
0202605150999992000031312004+35330+004200FM-12+0461DAAD V0203401N002110600019N0080001N1+02421+00201102061ADDAA199000091GA1031+009909089GA2031+060009009GF106991031021012501001051MD1810091+9999REMSYN088AAXX  13124 60515 32658 63404 10242 20020 40206 58009 83205 333 0//00 83833 83070 95900;EQDQ01  00002PRCP99
0165605150999992000031315004+35330+004200FM-12+0461DAAD V0202401N005110600019N0080001N1+02451+00271101961ADDGA1031+009909029GA2051+060009019GF108991041021012501001051MD1710091+9999REMSYN081AAXX  13154 60515 42658 82410 10245 20027 40196 57009 84205 33383833 85070 95900;
0215605150999992000031318004+35330+004200FM-12+0461DAAD V0203201N002110660019N0080001N1+02221+00001102061ADDAA199000091GA1041+009909089GA2051+066009009GF108991031021012501001051KA1120M+02621MD1310041+9999REMSYN088AAXX  13184 60515 32658 83204 10222 20000 40206 53004 83205 333 10262 84833 85072 95990;EQDQ01  00002PRCP99
0210605150999992000031406004+35330+004200FM-12+0461DAAD V0200601N003110078019N0080001N1+01201+00831102281ADDAA124002091GA1081+007809089GF108991081021008001999999IA2240+00609KA1120N+01111MD1810011+9999MW1601REMSYN100AAXX  14064 60515 11558 80606 10120 20083 40228 58001 60024 760// 882// 333 006// 20111 88826 95900;
0166605150999992000031409004+35330+004200FM-12+0461DAAD V0200801N002110078019N0080001N1+01211+01041102321ADDGA1031+000909079GA2061+007809089GF108991081071000751999999MD1010001+9999REMSYN082AAXX  14094 60515 42158 80804 10121 20104 40232 50000 887// 333 83703 86826 95900;
0173605150999992000031412004+35330+004200FM-12+0461DAAD V0202601N001012200019N0080001N1+01651+01031102221ADDAA112003091AC10I9GA1041+009009089GF104991041021008001001001MD1810081+9999REMSYN088AAXX  14124 60515 12558 42602 10165 20103 40222 58008 60032 84200 333 0//14 84830 95900;
0172605150999992000031415004+35330+004200FM-12+0461DAAD V0200801N003110078019N0080001N1+01751+00991101971ADDAY121031AY221031GA1071+007809089GF107991071021008001999999MD1710231+9999MW1211REMSYN082AAXX  14154 60515 41558 70806 10175 20099 40197 57023 72122 872// 333 87826 95900;
0180605150999992000031418004+35330+004200FM-12+0461DAAD V0200601N002110078019N0080001N1+01481+00041102021ADDAA112004191GA1071+007809089GF107991071021008001999999KA1120M+01811MD1310051+9999REMSYN088AAXX  14184 60515 12558 70604 10148 20004 40202 53005 60042 872// 333 10181 87826 95990;
0211605150999992000031506004+35330+004200FM-12+0461DAAD V0203201N005112200019N0100001N1+00911+00591102221ADDAA199000091GA1011+003009079GF102991011071004501001021IA2240+00109KA1120N+00711MD1610031+9999REMSYN088AAXX  15064 60515 33460 23210 10091 20059 40222 56003 81702 333 00100 20071 81710 95900;EQDQ01  00002PRCP99
0144605150999992000031509004+35330+004200FM-12+0461DAAD V0203201N005112200019N0100001N1+01381+00551102261ADDGA1021+009909089GF104991021021012501001021MD1110041+9999REMSYN076AAXX  15094 60515 42660 43210 10138 20055 40226 51004 82202 333 82833 95900;
0180605150999992000031512004+35330+004200FM-12+0461DAAD V0203201N005110078019N0100001N1+01721+00441102161ADDAA199000091GA1051+007809089GF105991051021008001001021MD1810081+9999REMSYN082AAXX  15124 60515 32560 53210 10172 20044 40216 58008 85202 333 0//00 85826 95900;EQDQ01  00002PRCP99
0144605150999992000031515004+35330+004200FM-12+0461DAAD V0203601N005112200019N0100001N1+01901+00351101841ADDGA1041+007809089GF104991041021008001001001MD1710281+9999REMSYN076AAXX  15154 60515 42560 43610 10190 20035 40184 57028 84200 333 84826 95900;
0193605150999992000031518004+35330+004200FM-12+0461DAAD V0203601N006210078019N0100001N1+01791+00441101721ADDAA199000091GA1071+007809089GF107991071021008001999999KA1120M+01941MD1610101+9999REMSYN082AAXX  15184 60515 32560 73612 10179 20044 40172 56010 872// 333 10194 87826 95900;EQDQ01  00002PRCP99
0211605150999992000031606004+35330+004200FM-12+0461DAAD V0203201N004112200019N0100001N1+00951+00401102131ADDAA199000091GA1021+003009079GF103991021071004501001021IA2240+00209KA1120N+00861MD1110061+9999REMSYN088AAXX  16064 60515 33460 33208 10095 20040 40213 51006 82702 333 00200 20086 82710 95900;EQDQ01  00002PRCP99
0144605150999992000031609004+35330+004200FM-12+0461DAAD V0203201N007210090019N0100001N1+01281+00341102211ADDGA1051+009009089GF105991051021004501001001MD1110081+9999REMSYN076AAXX  16094 60515 42460 53214 10128 20034 40221 51008 85200 333 85830 95900;
0144605150999992000031615004+35330+004200FM-12+0461DAAD V0203601N011312200019N0100001N1+01751+00041102121ADDGA1041+009009089GF104991041021008001001001MD1810091+9999REMSYN076AAXX  16154 60515 42560 43622 10175 20004 40212 58009 84200 333 84830 95900;
0211605150999992000031706004+35330+004200FM-12+0461DAAD V0202201N003112200019N0100001N1+00601-00031102551ADDAA199000091GA1021+069009009GF102991001001999999001021IA2240-00309KA1120N+00461MD1110041+9999REMSYN088AAXX  17064 60515 33960 22206 10060 21003 40255 51004 80002 333 05300 20046 82073 95900;EQDQ01  00002PRCP99
0132605150999992000031709004+35330+004200FM-12+0461DAAD V0203101N005112200019N0100001N1+01101-00021102691ADDGA1001+999999999GF100991001001999999001001MD1310161+9999REMSYN064AAXX  17094 60515 42960 03110 10110 21002 40269 53016 333 95900;
0168605150999992000031712004+35330+004200FM-12+0461DAAD V0203401N003112200019N0100001N1+01481-00071102571ADDAA199000091GA1001+999999999GF100991001001999999001001MD1810101+9999REMSYN070AAXX  17124 60515 32960 03406 10148 21007 40257 58010 333 0//00 95900;EQDQ01  00002PRCP99
0132605150999992000031715004+35330+004200FM-12+0461DAAD V0203401N003112200019N0100001N1+01781-00041102311ADDGA1001+999999999GF100991001001999999001001MD1710231+9999REMSYN064AAXX  17154 60515 42960 03406 10178 21004 40231 57023 333 95900;
0211605150999992000031806004+35330+004200FM-12+0461DAAD V0202601N002112200019N0100001N1+00441-00181102191ADDAA199000091GA1021+069009009GF102991001001999999001021IA2240-00409KA1120N+00341MD1610071+9999REMSYN088AAXX  18064 60515 32960 22604 10044 21018 40219 56007 80002 333 05400 20034 82073 95900;EQDQ01  00002PRCP99
0132605150999992000031809004+35330+004200FM-12+0461DAAD V0200801N001012200019N0100001N1+01101+00151102251ADDGA1001+999999999GF100991001001999999001001MD1110061+9999REMSYN064AAXX  18094 60515 42960 00802 10110 20015 40225 51006 333 95900;
0168605150999992000031812004+35330+004200FM-12+0461DAAD V0200601N001012200019N0100001N1+01801-00131102061ADDAA199000091GA1001+999999999GF100991001001999999001001MD1810121+9999REMSYN070AAXX  18124 60515 32960 00602 10180 21013 40206 58012 333 0//00 95900;EQDQ01  00002PRCP99
0122605150999992000031815004+35330+004200FM-12+0461DAAD V0200601N003112200019N0100001N1+02051-00381101811ADDGA1001+999999999GF100991001001999999001001MD1710241+9999REMSYN054AAXX  18154 60515 42960 00606 10205 21038 40181 57024;
0196605150999992000031906004+35330+004200FM-12+0461DAAD V0202401N001012200019N0100001N1+99999+99999999999ADDAA199000091GA1021+069009009GF102991999999999999999999IA2240-00209KA1120N+00551REMSYN087AAXX  19064 60515 33960 22402 1007 21011 40189 56001 80002 333 05200 20055 82073 95900;EQDQ01  00002PRCP99
0144605150999992000031909004+35330+004200FM-12+0461DAAD V0203401N002112200019N0100001N1+01351-00111102031ADDGA1031+024009039GF103991031001999999081001MD1310131+9999REMSYN076AAXX  19094 60515 42960 33404 10135 21011 40203 53013 83080 333 83358 95900;
0180605150999992000031912004+35330+004200FM-12+0461DAAD V0200801N003112200019N0100001N1+01801-00301101891ADDAA199000091GA1021+009909089GF103991021021012501081001MD1810111+9999REMSYN082AAXX  19124 60515 32660 30806 10180 21030 40189 58011 82280 333 0//00 82833 95900;EQDQ01  00002PRCP99
0144605150999992000031915004+35330+004200FM-12+0461DAAD V0201001N003110900019N0100001N1+01981-00501101741ADDGA1041+009009089GF105991041021008001001021MD1710151+9999REMSYN076AAXX  19154 60515 42560 51006 10198 21050 40174 57015 84202 333 84830 95900;
0193605150999992000031918004+35330+004200FM-12+0461DAAD V0200801N002110090019N0100001N1+01721-00661101621ADDAA199000091GA1071+009009089GF107991071021008001001021KA1120M+02041MD1610081+9999REMSYN082AAXX  19184 60515 32560 70804 10172 21066 40162 56008 87202 333 10204 87830 95990;EQDQ01  00002PRCP99
0211605150999992000032006004+35330+004200FM-12+0461DAAD V0203401N002110090019N0100001N1+01001+00701101851ADDAA199000091GA1071+009009089GF107991071021008001999999IA2240+00209KA1120N+00901MD1610021+9999REMSYN088AAXX  20064 60515 32560 73404 10100 20070 40185 56002 872// 333 00200 20090 87830 95900;EQDQ01  00002PRCP99
0144605150999992000032009004+35330+004200FM-12+0461DAAD V0203601N003110090019N0100001N1+01361+00501101891ADDGA1051+009009089GF105991051021008001001001MD1310061+9999REMSYN076AAXX  20094 60515 42560 53606 10136 20050 40189 53006 85200 333 85830 95900;
0174605150999992000032012004+35330+004200FM-12+0461DAAD V0200801N003110090019N0100001N1+01861+00261101751ADDAA199000091GA1061+009009089GF106991061021008001001001MD1810181+9999REMSYN076AAXX  20124 60515 32560 60806 10186 20026 40175 58018 86200 333 86830 95900;EQDQ01  00002PRCP99
0144605150999992000032015004+35330+004200FM-12+0461DAAD V0201801N009310090019N0100001N1+01811+00201101651ADDGA1051+009009089GF105991051021008001001001MD1710151+9999REMSYN076AAXX  20154 60515 42560 51818 10181 20020 40165 57015 85200 333 85830 95900;
0193605150999992000032018004+35330+004200FM-12+0461DAAD V0202001N007210090019N0100001N1+01721+00431101531ADDAA199000091GA1071+009009089GF107991071021008001999999KA1120M+01921MD1610091+9999REMSYN082AAXX  20184 60515 32560 72014 10172 20043 40153 56009 872// 333 10192 87830 95990;EQDQ01  00002PRCP99
0211605150999992000032106004+35330+004200FM-12+0461DAAD V0203401N004112200019N0100001N1+00801+00481101931ADDAA199000091GA1031+009909089GF103991031021012501001001IA2240-00109KA1120N+00601MD1110031+9999REMSYN088AAXX  21064 60515 33660 33408 10080 20048 40193 51003 83200 333 05100 20060 83833 95900;EQDQ01  00002PRCP99
