0220638320999992000011706004-05080+032830FM-12+119099999V0209999C000012200019N0300001N1+02341+01701999999ADDAA199000091GF101991011011008001001001KA1120N+01671MA1999999088061ME1314799OA150600571REMSYN104    AAXX  17064 63832 32580 10000 10234 20170 38806 48479 81100 90550 333 20167 5///1 55115 55317 81820;EQDQ01  00002PRCP99
0283638320999992000012706004-05080+032830FM-12+1190HTTB V0209999C00001045001CN0300001N1+02001+01771999999ADDAA124014091AY121061AY221061GA1021+006009069GA2011+006609099GF107991021091008001071999KA1120N+01781MA1999999088401MD1999999+0041ME1315139MW1011OA150601541REMSYN118AAXX  27064 63832 11580 70000 10200 20177 38840 48513 60144 70122 8297/ 333 0//20 20178 55300 58004 82620 81922 86358;
0227638320999992000012712004-05080+032830FM-12+1190HTTB V0202401N002612200019N0300001N1+02901+01651999999ADDAA199000091GA1041+009009089GF104991021091012501031001MA1999999088061MD1999999-0031ME1314859OA150601701REMSYN094AAXX  27124 63832 32680 42405 10290 20165 38806 48485 82930 91152 333 55330 59003 84830 81932;EQDQ01  00002PRCP99
0221638320999992000012812004-05080+032830FM-12+1190HTTB V0202401N002612200019N0400001N1+03221+01221999999ADDAA199000091GA1041+008409029GF104991041021008001001001MA1999999087881MD1999999-0181ME1314689OA150601651REMSYN088AAXX  28124 63832 32582 42405 10322 20122 38788 48468 84200 91150 333 55320 59018 84828;EQDQ01  00002PRCP99
0302638320999992000013006004-05080+032830FM-12+1190HTTB V0201201N00311005701CN0300001N1+02201+01821999999ADDAA199000091AY101061AY221061GA1051+005709069GA2011+006609099GF107991051091004501071999KA1120N+02101MA1999999088271MD1999999+0141ME1314979MW1171OA150600411REMSYN118AAXX  30064 63832 31480 71206 10220 20182 38827 48497 71702 8597/ 90545 333 20210 55087 55300 58014 85619 81922 87358;EQDQ01  00002PRCP99
0262638320999992000013106004-05080+032830FM-12+1190HTTB V0200901N00311004201CN0300001N1+02201+01871999999ADDAA199000091GA1031+005409069GA2011+006009099GF108991051091004501071999KA1120N+01801MA1999999088381MD1999999+0111ME1315079OA150601541REMSYN100AAXX  31064 63832 32480 80906 10220 20187 38838 48507 8597/ 333 20180 55300 58011 83618 81920 88458;EQDQ01  00002PRCP99
0290638320999992000020106004-05080+032830FM-12+1190HTTB V0202701N003610450019N0200001N1+01961+01861999999ADDAA124004191AC11C9AY161061AY221061GA1011+004509069GF108991011091004501071999KA1120N+01901MA1999999088311ME1315049MW1971OA150699999REMSYN130AAXX  01064 63832 /1470 82707 10196 20186 38831 48504 60044 79762 8197/ 90553 333 0//11 20190 5///1 55048 55300 69950 81615 81918;EQDQ01  00212WGOSPD
0202638320999992000020112004-05080+032830FM-12+1190HTTB V0202101N004612200019N0300001N1+02721+01761999999ADDAA199000021GA1011+007509029GF103991011021008001031081MA1999999088081MD1999999+0101ME1314849OA150601601REMSYN088AAXX  01124 63832 32580 32109 10272 20176 38808 48484 81238 91150 333 55315 58010 81825;
0225638320999992000020206004-05080+032830FM-12+1190HTTB V0201501N002110450019N0300001N1+01941+01811999999ADDAA124002091GA1031+005109069GF107991031051004501071999KA1120N+01861MA1999999088421ME1315139OA150600361REMSYN112AAXX  02064 63832 12480 71504 10194 20181 38842 48513 60024 8357/ 90550 333 20186 5///1 55076 55300 83617 87358;
0227638320999992000020212004-05080+032830FM-12+1190HTTB V0202201N004610072019N0300001N1+02721+01701999999ADDAA199000091GA1051+007209089GF105991051091008001001011MA1999999088141MD1999999+0061ME1314949OA150601541REMSYN094AAXX  02124 63832 32580 52209 10272 20170 38814 48494 85901 91145 333 55308 58006 85824 81924;EQDQ01  00002PRCP99
0249638320999992000020512004-05080+032830FM-12+1190HTTB V0202901N004110072019N0300001N1+02741+01621999999ADDAA199000091GA1061+007209089GA2021+007509099GF107991061091008001061081MA1999999087901MD1999999-0311ME1314749OA150601541REMSYN100AAXX  05124 63832 32580 72908 10274 20162 38790 48474 86968 91150 333 55302 59031 86824 82925 83273;EQDQ01  00002PRCP99
0268638320999992000020706004-05080+032830FM-12+1190HTTB V0201201N002610450019N0300001N1+02121+01641999999ADDAA199000091GA1021+005409069GF106991021051004501071001KA1120N+01701MA1999999088371MD1999999-0051ME1315069OA150699999REMSYN106AAXX  07064 63832 32480 61205 10212 20164 38837 48506 82570 90550 333 20170 55043 55302 59005 82618 86358;EQDQ01  00002PRCP99Q02  00212WGOSPD
0249638320999992000020912004-05080+032830FM-12+1190HTTB V0209999C000012200019N0300001N1+02601+01601999999ADDAA199000091GA1031+006009089GA2011+006909099GF104991031091008001031081MA1999999088121MD1999999+0221ME1314929OA150601541REMSYN100AAXX  09124 63832 32580 40000 10260 20160 38812 48492 83938 91150 333 55300 58022 83820 81923 83359;EQDQ01  00002PRCP99
0240638320999992000021006004-05080+032830FM-12+1190HTTB V0209999C00001045001CN0300001N1+02151+01761999999ADDAA199000091GA1011+005409069GF105991011051004501031001KA1120N+01801MA1999999088301MD1999999-0071ME1315069OA150601601REMSYN094AAXX  10064 63832 32480 50000 10215 20176 38830 48506 81530 333 20180 55314 59007 81618 84359;EQDQ01  00002PRCP99
0250638320999992000021106004-05080+032830FM-12+1190HTTB V0209999C000012200019N0300001N1+02221+01861999999ADDGA1021+005709089GA2011+006609099GF106991021091004501001011KA1120N+01821MA1999999088311MD1999999+0011ME1315089OA150600361REMSYN118AAXX  11064 63832 12480 60000 10222 20186 38831 48508 82901 90545 333 0//19 20182 55077 55308 58001 82819 81922 85077;
0221638320999992000021212004-05080+032830FM-12+1190HTTB V0202801N003612200019N0400001N1+03021+01661999999ADDAA199000091GA1011+009009029GF101991011021012501001001MA1999999087891MD1999999-0051ME1314879OA150601701REMSYN088AAXX  12124 63832 32682 12807 10302 20166 38789 48487 81200 91150 333 55330 59005 81830;EQDQ01  00002PRCP99
0267638320999992000021506004-05080+032830FM-12+1190HTTB V0203001N00461004801CN0300001N1+01941+01801999999ADDAA124009991GA1061+004809069GA2011+005409099GF107991061091004501071999KA1120N+01811MA1999999088291MD1999999+0131ME1314949OA150600511REMSYN124AAXX  15064 63832 12480 73009 10194 20180 38829 48494 60104 8697/ 90550 333 0//79 20181 55102 55300 58013 86616 81918 87458;
0258638320999992000021712004-05080+032830FM-12+1190HTTB V0202101N00261007501CN0300001N1+02731+01721999999ADDAA199000021AY191061AY221061GA1031+006909089GA2021+007509099GF106991031091008001001021MA1999999087651MD1999999-0201ME1314449MW1951OA150601541REMSYN106AAXX  17124 63832 31580 62105 10273 20172 38765 48444 79592 83902 91450 333 55303 59020 83823 82925 84073;
0253638320999992000021806004-05080+032830FM-12+1190HTTB V0209999C000010450019N0300001N1+01921+01721999999ADDAA124003091GA1021+004809089GA2011+005109099GF107991021091004501071999KA1120N+01741MA1999999088191ME1314849OA150600261REMSYN124AAXX  18064 63832 12480 70000 10192 20172 38819 48484 60034 8297/ 90550 333 0//99 20174 5///1 55050 55300 82816 81917 87359;
0268638320999992000021906004-05080+032830FM-12+1190HTTB V0209999C00001006601CN0300001N1+02101+01801999999ADDAA199000091GA1041+005709069GA2011+006609099GF106991041091008001031999KA1120N+01551MA1999999088311MD1999999+0121ME1315069OA150601541REMSYN106AAXX  19064 63832 32580 60000 10210 20180 38831 48506 8493/ 90545 333 20155 55301 58012 84619 81922 86358;EQDQ01  00002PRCP99
0268638320999992000022106004-05080+032830FM-12+1190HTTB V0200901N004112200019N0300001N1+02001+01851999999ADDAA199000091AY141061AY201061GA1031+006909029GF103991031021008001031001KA1120N+01601MA1999999088231MD1999999-0161ME1314959MW1021OA150601541REMSYN100AAXX  21064 63832 31580 30908 10200 20185 38823 48495 70240 83230 90545 333 20160 55303 59016 83823;EQDQ01  00002PRCP99
0249638320999992000022212004-05080+032830FM-12+1190HTTB V0202801N004110075019N0300001N1+03151+01901999999ADDAA199000091GA1051+007509089GA2011+008109099GF106991051091008001071001MA1999999087831MD1999999-0111ME1314689OA150601651REMSYN100AAXX  22124 63832 32580 62808 10315 20190 38783 48468 85970 91150 333 55328 59011 85825 81927 85359;EQDQ01  00002PRCP99
0249638320999992000022215004-05080+032830FM-12+1190HTTB V0202801N004110075019N0300001N1+03151+01981999999ADDAA199000091GA1051+007509089GA2011+008109099GF106991051091008001071001MA1999999087831MD1999999-0111ME1314689OA150301651REMSYN100AAXX  22154 63832 32580 62808 10315 20198 38783 48468 85970 91150 333 55328 59011 85825 81927 85359;EQDQ01  00002PRCP99
0252638320999992000022306004-05080+032830FM-12+1190HTTB V0200901N002610450019N0300001N1+02181+01731999999ADDAA199000091GA1021+005409089GF107991021021004501071001KA1120N+01901MA1999999088181MD1999999-0031ME1314869OA150600411REMSYN106AAXX  23064 63832 32480 70905 10218 20173 38818 48486 82270 90545 333 20190 55087 55300 59003 82818 86358;EQDQ01  00002PRCP99
0240638320999992000022406004-05080+032830FM-12+1190HTTB V0201201N00311045001CN0300001N1+02351+01871999999ADDAA199000091GA1031+006009069GF106991031051008001031001KA1120N+01851MA1999999088151MD1999999-0031ME1311889OA150601541REMSYN094AAXX  24064 63832 32580 61206 10235 20187 38815 48188 83530 333 20185 55305 59003 83620 85358;EQDQ01  00002PRCP99
0245638320999992000022506004-05080+032830FM-12+1190HTTB V0209999C000010450019N0300001N1+02101+01791999999ADDAA124002091AC10I9GA1041+006009069GF107991041091008001071999KA1120N+01751MA1999999088341MD1999999+0191ME1315069OA150601601REMSYN112AAXX  25064 63832 22580 70000 10210 20179 38834 48506 60024 8497/ 90545 333 0//24 20175 55310 58019 84620 81922;
0221638320999992000022512004-05080+032830FM-12+1190HTTB V0200601N003110081019N0300001N1+02901+01651999999ADDAA199000091GA1051+008109029GF105991051021008001001001MA1999999088031MD1999999+0211ME1314859OA150601601REMSYN088AAXX  25124 63832 32580 50606 10290 20165 38803 48485 85200 91150 333 55315 58021 85827;EQDQ01  00002PRCP99
0259638320999992000022606004-05080+032830FM-12+1190HTTB V0209999C000012200019N0300001N1+02071+01701999999ADDAA124024991AC12C9GA1021+005409089GA2011+006009099GF104991021091004501031001KA1120N+01651MA1999999088281ME1314959OA150600411REMSYN124AAXX  26064 63832 12480 40000 10207 20170 38828 48495 60254 82930 90550 333 0//62 20165 5///1 55082 55311 82818 81920 83358;
0289638320999992000022806004-05080+032830FM-12+1190HTTB V0200601N00261045001CN0300001N1+02051+01881999999ADDAA124089991AC13C9AY121061AY221061GA1031+006009069GA2011+006609099GF106991031091008001071999KA1120N+01851MA1999999088251MD1999999-0041ME1314749MW1031OA150601541REMSYN118AAXX  28064 63832 11580 60605 10205 20188 38825 48474 60904 70322 8397/ 333 0//33 20185 55300 59004 83620 81922 86358;
0268638320999992000022906004-05080+032830FM-12+1190HTTB V0209999C00001045001CN0300001N1+02021+01841999999ADDAA199000091GA1031+006009069GA2011+006609099GF107991041091008001071999KA1120N+01751MA1999999088311MD1999999-0061ME1315059OA150601541REMSYN106AAXX  29064 63832 32580 70000 10202 20184 38831 48505 8497/ 90545 333 20175 55300 59006 83620 81922 87359;EQDQ01  00002PRCP99
0247638320999992000030106004-05080+032830FM-12+1190HTTB V0209999C00001045001CN0300001N1+01951+01791999999ADDAA124011991GA1031+005409069GA2011+006009099GF107991031091004501071999KA1120N+01861MA1999999088371ME1315049OA150600311REMSYN118AAXX  01064 63832 12480 70000 10195 20179 38837 48504 60124 8397/ 90550 333 0//99 20186 55068 55300 83618 81920 87358;
0238638320999992000030506004-05080+032830FM-12+1190HTTB V0209999C000012200019N0300001N1+02121+01731999999ADDAA199000091GA1011+006009009GF104991011021008001031021KA1120N+01701MA1999999088361ME1315069OA150600051REMSYN106AAXX  05064 63832 32580 40000 10212 20173 38836 48506 81232 90550 333 20170 5///1 55010 55308 81020 83358;EQDQ01  00002PRCP99
0260638320999992000030806004-05080+032830FM-12+1190HTTB V0209999C000010450019N0300001N1+01831+01701999999ADDAA199000091AY141061AY201061GA1011+006609099GF108991031091008001071999KA1120N+01651MA1999999088381ME1315039MW1031OA150600001REMSYN106AAXX  08064 63832 31580 80000 10183 20170 38838 48503 70340 8397/ 90545 333 20165 55002 55300 81922 80359;EQDQ01  00002PRCP99
0131638320999992000030809004-05080+032830FM-12+1190HTTB V0209999C000019999999N0300001N1+01831+01701999999ADDAA199000091GF108991999999008001999999MA1999999088381REMSYN048AAXX  08094 63832 31580 80000 10183 20170 38838;EQDQ01  00002PRCP99
0227638320999992000030812004-05080+032830FM-12+1190HTTB V0200801N012910075019N0300001N1+02671+01611999999ADDAA199000091GA1061+007509089GF106991061091008001001001MA1999999088041MD1999999-0011ME1314839OA150601601REMSYN094AAXX  08124 63832 32580 60825 10267 20161 38804 48483 86900 91150 333 55310 59001 86825 81926;EQDQ01  00002PRCP99
0238638320999992000030906004-05080+032830FM-12+1190HTTB V0209999C000012200019N0300001N1+02161+01811999999ADDAA199000091GA1021+006009089GF104991021021008001071001KA1120N+01841MA1999999088321ME1315069OA150600261REMSYN106AAXX  09064 63832 32580 40000 10216 20181 38832 48506 82270 90550 333 20184 5///1 55052 55302 82820 83358;EQDQ01  00002PRCP99
0267638320999992000031006004-05080+032830FM-12+1190HTTB V0209999C00001006601CN0300001N1+01991+01801999999ADDAA124003091GA1041+005709089GA2011+006609099GF105991041091004501071001KA1120N+01761MA1999999088331MD1999999+0011ME1315049OA150600211REMSYN124AAXX  10064 63832 12480 50000 10199 20180 38833 48504 60034 84970 90545 333 0//59 20176 55045 55300 58001 84819 81922 85358;
0240638320999992000031106004-05080+032830FM-12+1190HTTB V0209999C000010450019N0300001N1+02101+01921999999ADDAA199000091GA1041+006009089GF105991041091008001031001KA1120N+01761MA1999999088231MD1999999-0101ME1314959OA150601541REMSYN094AAXX  11064 63832 32580 50000 10210 20192 38823 48495 84930 333 20176 55300 59010 84820 81922;EQDQ01  00002PRCP99
0230638320999992000031406004-05080+032830FM-12+1190HTTB V0201301N003612200019N0300001N1+02251+01951999999ADDAA199000091GF101991011001999999031001KA1120N+01751MA1999999088201MD1999999+0001ME1314989OA150601601REMSYN100AAXX  14064 63832 32980 11307 10225 20195 38820 48498 81030 90555 333 20175 55310 55086 58000 81361;EQDQ01  00002PRCP99
0226638320999992000031806004-05080+032830FM-12+1190HTTB V0200901N003612200019N0300001N1+02241+01831999999ADDAA124002091GA1011+006009089GF103991011011008001031011MA1999999088081MD1999999-0171ME1314789OA150600461REMSYN112AAXX  18064 63832 12580 30907 10224 20183 38808 48478 60024 81131 90550 333 0//69 55095 55310 59017 81820 82358;
0229638320999992000032206004-05080+032830FM-12+1190HTTB V0201201N002612200019N0300001N1+02141+01781999999ADDAA124001091AC13I9GF101991011011004501001001KA1120N+01671MA1999999088151MD1999999-0021ME1314869OA150600411REMSYN112AAXX  22064 63832 12480 11205 10214 20178 38815 48486 60014 81100 90545 333 0//37 20167 55087 55310 59002 81819;
0221638320999992000032212004-05080+032830FM-12+1190HTTB V0200901N005112200019N0400001N1+02961+01561999999ADDAA199000091GA1031+009009029GF103991031021012501001081MA1999999087851MD1999999-0021ME1314669OA150601651REMSYN088AAXX  22124 63832 32682 30910 10296 20156 38785 48466 83208 91155 333 55329 59002 83830;EQDQ01  00002PRCP99
0295638320999992000032606004-05080+032830FM-12+1190HTTB V0200201N00411048001CN0300001N1+01901+01741999999ADDAA124011991AY161061AY221061GA1011+005409099GA2051+048009019GF108991051091004501071999MA1999999088431MD1999999+0251ME1315139MW1031OA150699999REMSYN124AAXX  26064 63832 11480 80208 10190 20174 38843 48513 60124 70362 8597/ 90545 333 0//99 58025 55060 55300 85166 81918 88458;EQDQ01  00312WGOSPD
0228638320999992000032706004-05080+032830FM-12+1190HTTB V0201001N005112200019N0400001N1+02201+01841999999ADDAA124008991GF101991011011004501081001KA1120N+01741MA1999999088261ME1314979OA150699999REMSYN112AAXX  27064 63832 12482 11010 10220 20184 38826 48497 60094 81180 90553 333 0//19 20174 5///1 55056 55315 81816;EQDQ01  00262WGOSPD
0256638320999992000032806004-05080+032830FM-12+1190HTTB V0200901N005112200019N0300001N1+02251+01881999999ADDAA199000091GA1011+006009029GF102991999011008001001011KA1120N+01801MA1999999088211MD1999999-0051ME1314989OA150601601REMSYN094AAXX  28064 63832 32580 20910 10225 20188 38821 48498 84101 90545 333 20180 55315 59005 81820;EQDQ01+000042SCOTLCQ02  00002PRCP99
0248638320999992000032906004-05080+032830FM-12+1190HTTB V0201201N00511045001CN0300001N1+02101+01771999999ADDAA199000091GA1031+005709089GF105991031021004501031001KA1120N+01871MA1999999088221ME1314959OA150699999REMSYN100AAXX  29064 63832 32480 51210 10210 20177 38822 48495 83230 90550 333 20187 55011 55300 83819 85358;EQDQ01  00002PRCP99Q02  00052WGOSPD
0215638320999992000033106004-05080+032830FM-12+1190HTTB V0209999C000010042019N0300001N1+02091+01881999999ADDAA124001091AC13I9GF106991061051004501031011KA1120N+01791MA1999999088281ME1314959OA150600571REMSYN112AAXX  31064 63832 12480 60000 10209 20188 38828 48495 60014 86531 90550 333 0//18 20179 5///1 55110 55305 86615;
0213638320999992000040206004-05080+032830FM-12+1190HTTB V0200901N005112200019N0300001N1+02181+01691999999ADDAA112005191GA1001+999999999GF100991001001999999001001KA1120N+01671MA1999999088091ME1314769OA150600571REMSYN100AAXX  02064 63832 12980 00910 10218 20169 38809 48476 60052 90550 333 0//29 20167 5///1 55112 55315;
0285638320999992000040506004-05080+032830FM-12+1190HTTB V0201401N001519999999N0300001N1+02121+01861999999ADDGA1031+005409069GA2011+006009099GF106991999999004501021041KA1120N+01831MA1999999088361MD1999999+0091ME1315069OA150601541REMSYN118AAXX  05064 63832 12480 61403 10212 20186 38836 48506 80024 83930 90545 333 0//19 20183 55300 58009 83618 81920 83/59;EQDQ01+000002SCOTLCQ02+000002SCOLCG
0227638320999992000040612004-05080+032830FM-12+1190HTTB V0209999C000010450019N0300001N1+02721+01761999999ADDAA199000091GA1041+006609089GF105991041091008001071001MA1999999087961MD1999999-0011ME1314749OA150601601REMSYN094AAXX  06124 63832 32580 50000 10272 20176 38796 48474 84970 91150 333 55310 59001 84822 81925;EQDQ01  00002PRCP99
0259638320999992000040806004-05080+032830FM-12+1190HTTB V0209999C000010450019N0300001N1+02211+01981999999ADDAA124002091AY141061AY201061GA1011+004509069GF107991011051004501031011KA1120N+01791MA1999999088331ME1315089MW1031OA150600361REMSYN124AAXX  08064 63832 11480 70000 10221 20198 38833 48508 60024 70340 81531 90549 333 0//19 20179 5///1 55073 55306 81615 87360;
0293638320999992000040906004-05080+032830FM-12+1190HTTB V0209999C00001006001CN0100001N1+01981+01801999999ADDAA124013091AC11C9AY191061AY261061GA1041+005409069GA2011+006009099GF106991041091004501071999KA1120N+01851MA1999999088401ME1315139MW1031OA150600261REMSYN136AAXX  09064 63832 /1460 60000 10198 20180 38840 48513 60134 70396 8497/ 90545 333 0//91 20185 5///1 55053 55300 60060 84618 81920 86358;
0231638320999992000041006004-05080+032830FM-12+1190HTTB V0201401N002612200019N0300001N1+02211+01801999999ADDAA124007191GA1011+006009089GF103991011091008001001081KA1120N+01771MA1999999088251ME1314989OA150600261REMSYN118AAXX  10064 63832 12580 31405 10221 20180 38825 48498 60074 81908 90550 333 0//99 20177 5///1 55054 55313 81820 81922;
0214638320999992000041406004-05080+032830FM-12+1190HTTB V0209999C000010450019N0300001N1+02081+01731999999ADDAA124000391GA1021+005409089GF107991021091004501071999KA1120N+01871MA1999999088201ME1314559REMSYN112AAXX  14064 63832 12480 70000 10208 20173 38820 48455 69934 8297/ 90550 333 20187 55/// 55099 55300 82818 87358;
0238638320999992000041706004-05080+032830FM-12+1190HTTB V0201201N005112200019N0300001N1+02131+01621999999ADDAA199000091GA1011+006009089GF104991011011008001001081KA1120N+01651MA1999999088361ME1315069OA150600571REMSYN106AAXX  17064 63832 32580 41210 10213 20162 38836 48506 81108 90545 333 20165 5///1 55113 55318 81820 84275;EQDQ01  00002PRCP99
0221638320999992000041712004-05080+032830FM-12+1190HTTB V0201501N004612200019N0300001N1+02951+01421999999ADDAA199000091GA1041+007809029GF104991041021008001001001MA1999999088031MD1999999-0071ME1314869OA150601541REMSYN088AAXX  17124 63832 32580 41509 10295 20142 38803 48486 84200 91155 333 55300 59007 84826;EQDQ01  00002PRCP99
0216638320999992000041806004-05080+032830FM-12+1190HTTB V0200901N003612200019N0300001N1+02101+01641999999ADDAA199000091GF101991011021008001001001KA1120N+01421MA1999999088261ME1314959OA150600571REMSYN100AAXX  18064 63832 32580 10907 10210 20164 38826 48495 81200 90550 333 20142 5///1 55118 55312 81820;EQDQ01  00002PRCP99
0236638320999992000041906004-05080+032830FM-12+1190HTTB V0201101N006712200019N0290001N1+02141+01601999999ADDAA199000091GA1001+999999999GF100991001001999999001001KA1120N+01501MA1999999088311ME1315069OA150699999REMSYN088AAXX  19064 63832 32979 01113 10214 20160 38831 48506 90545 333 20150 55104 55310 58005;EQDQ01  00002PRCP99Q02  00512WGOSPD
0212638320999992000042006004-05080+032830FM-12+1190HTTB V0201901N007712200019N0300001N1+02241+01541999999ADDAA199000091GF101991999999999999999999KA1120N+01581MA1999999088281MD1999999-0031ME1314969OA150601601REMSYN082AAXX  20064 63832 32980 11915 10224 20154 38828 48496 90550 333 20158 55317 59003;EQDQ01  00002PRCP99
0238638320999992000042206004-05080+032830FM-12+1190HTTB V0209999C000010450019N0300001N1+02071+01641999999ADDAA199000091GA1031+006009089GF105991031021008001031001KA1120N+01731MA1999999088401ME1315149OA150600511REMSYN106AAXX  22064 63832 32580 50000 10207 20164 38840 48514 83230 90550 333 20173 5///1 55100 55300 83820 84358;EQDQ01  00002PRCP99
0245638320999992000042306004-05080+032830FM-12+1190HTTB V0209999C000012200019N0300001N1+02261+01791999999ADDAA124003091GA1041+006009089GF104991041091008001031001KA1120N+01701MA1999999088461MD1999999+0061ME1315179OA150600361REMSYN118AAXX  23064 63832 12580 40000 10226 20179 38846 48517 60034 84930 90548 333 0//39 20170 55078 55313 58006 84820 81923;
0221638320999992000042612004-05080+032830FM-12+1190HTTB V0200801N003110078019N0300001N1+03051+01321999999ADDAA199000091GA1051+007809029GF105991051021008001001001MA1999999088001MD1999999+0031ME1314879OA150601651REMSYN088AAXX  26124 63832 32580 50806 10305 20132 38800 48487 85200 91150 333 55320 58003 85826;EQDQ01  00002PRCP99
0246638320999992000042706004-05080+032830FM-12+1190HTTB V0200901N005719999999N0300001N1+02251+01251999999ADDAA199000091GF105991001001999999001011KA1120N+01741MA1999999088331MD1999999+0061ME1315089OA150699999REMSYN100AAXX  27064 63832 32980 50911 10225 20125 38833 48508 80001 90545 333 20174 55099 55315 58006 85078;EQDQ01  00002PRCP99Q02  00462WGOSPD
0227638320999992000042712004-05080+032830FM-12+1190HTTB V0201801N002110072019N0300001N1+02941+01541999999ADDAA199000091GA1051+007209089GF107991051091008001001001MA1999999088041MD1999999+0041ME1314859OA150601651REMSYN094AAXX  27124 63832 32580 71804 10294 20154 38804 48485 85900 91150 333 55328 58004 85824 81926;EQDQ01  00002PRCP99
0239638320999992000042806004-05080+032830FM-12+1190HTTB V0200901N002612200019N0300001N1+02121+01521999999ADDAA124000791GA1011+006009069GF101991011051008001031001KA1120N+01651MA1999999088401MD1999999+0071ME1315159OA150601601REMSYN112AAXX  28064 63832 12580 10905 10212 20152 38840 48515 69904 81530 90550 333 0//19 20165 55314 58007 81620 83358;
0249638320999992000042812004-05080+032830FM-12+1190HTTB V0200601N00511045001CN0300001N1+03001+01491999999ADDAA199000091GA1031+007509089GA2011+008109099GF106991031091008001031001MA1999999088141MD1999999+0101ME1314979OA150601651REMSYN100AAXX  28124 63832 32580 60610 10300 20149 38814 48497 83930 91145 333 55320 58010 83825 81927 85359;EQDQ01  00002PRCP99
0216638320999992000043006004-05080+032830FM-12+1190HTTB V0201201N004112200019N0300001N1+02211+01551999999ADDAA199000091GF103991031021008001001001KA1120N+01701MA1999999088471ME1315179OA150600411REMSYN100AAXX  30064 63832 32580 31208 10221 20155 38847 48517 83200 90550 333 20170 5///1 55089 55318 83820;EQDQ01  00002PRCP99
0284638320999992000050106004-05080+032830FM-12+1190HTTB V0201301N005712200019N0400001N1+01271+99999999999ADDAA199000091GA1011+004809089GF104991011011004501001011KA1120N+99999MA1999999085391MD1999999-0081ME1315069OA150699999REMSYN106AAXX  01064 63832 32482 41311 10127 20143 38539 48506 81101 90545 333 20151 55099 55310 59008 81816 84078;EQDQ01  00002PRCP99Q02  00462WGOSPDQ03 +01512ATMN  
0246638320999992000050206004-05080+032830FM-12+1190HTTB V0201001N006212200019N0300001N1+02121+01521999999ADDAA199000091GA1021+005409069GF104991021051004501031001KA1120N+01651MA1999999088361MD1999999-0031ME1315059OA150601601REMSYN100AAXX  02064 63832 32480 41012 10212 20152 38836 48505 82530 90550 333 20165 55314 59003 82618 84358;EQDQ01  00002PRCP99
0227638320999992000050212004-05080+032830FM-12+1190HTTB V0200901N005110078019N0300001N1+02931+01371999999ADDAA199000091GA1051+007809089GF106991051021008001031001MA1999999088191MD1999999+0061ME1314969OA150601651REMSYN094AAXX  02124 63832 32580 60910 10293 20137 38819 48496 85230 91150 333 55320 58006 85826 83359;EQDQ01  00002PRCP99
0232638320999992000050306004-05080+032830FM-12+1190HTTB V0201001N003612200019N0300001N1+02151+01581999999ADDAA199000091GF102991021021008001001001KA1120N+01601MA1999999088901ME1315159OA150699999REMSYN100AAXX  03064 63832 32580 21007 10215 20158 38890 48515 82200 90550 333 20160 5///1 55067 55314 82820;EQDQ01  00002PRCP99Q02  00312WGOSPD
0220638320999992000050312004-05080+032830FM-12+1190HTTB V0200701N003110075019N0300001N1+03051+01301999999ADDAA199000091GA1061+007509029GF106991061021008001001001MA1999999088221MD1999999+0031ME1315079OA150601601REMSYN087AAXX  03124 63832 32580 60706 10305 20130 38822 4850786200 91155 333 55316 58003 86825;EQDQ01  00002PRCP99
0230638320999992000050406004-05080+032830FM-12+1190HTTB V0200901N004612200019N0300001N1+02241+01631999999ADDAA199000091GF101991011011004501001001KA1120N+01631MA1999999088501MD1999999+0011ME1315279OA150600511REMSYN100AAXX  04064 63832 32480 10909 10224 20163 38850 48527 81100 90550 333 20163 55105 55315 58001 8189/;EQDQ01  00002PRCP99
0221638320999992000050412004-05080+032830FM-12+1190HTTB V0201801N005110078019N0300001N1+03041+01481999999ADDAA199000091GA1061+007809029GF106991061021008001001001MA1999999088111MD1999999-0111ME1314969OA150601701REMSYN088AAXX  04124 63832 32580 61810 10304 20148 38811 48496 86200 91148 333 55330 59011 86826;EQDQ01  00002PRCP99
0228638320999992000050506004-05080+032830FM-12+1190HTTB V0201201N005112200019N0300001N1+02151+01581999999ADDAA199000091GA1001+999999999GF100991001001999999001001KA1120N+01601MA1999999088371MD1999999-0131ME1315059OA150601601REMSYN082AAXX  05064 63832 32980 01210 10215 20158 38837 48505 90550 333 20160 55316 59013;EQDQ01  00002PRCP99
0216638320999992000050706004-05080+032830FM-12+1190HTTB V0200901N006712200019N0300001N1+02151+01511999999ADDAA124000791GF102991021011004501001001KA1999N+01601MA1999999088321MD1999999+0021ME1315069OA150601601REMSYN105AAXX  07064 63832 12480 20913 10215 20151 38832 48506 69904 82100 90548 333 2016055091 55310 58002 82818;
0240638320999992000050806004-05080+032830FM-12+1190HTTB V0201201N008212200019N0300001N1+02051+01481999999ADDAA199000091GA1021+006009029GF102991021011008001001001KA1120N+01601MA1999999088401MD1999999+0071ME1315139OA150601601REMSYN094AAXX  08064 63832 32580 21216 10205 20148 38840 48513 82100 90550 333 20160 55314 58007 82820;EQDQ01  00002PRCP99
0221638320999992000050812004-05080+032830FM-12+1190HTTB V0201201N004110081019N0300001N1+02971+01401999999ADDAA199000091GA1051+008109029GF105991051021008001001001MA1999999088051MD1999999-0051ME1314869OA150601651REMSYN088AAXX  08124 63832 32580 51208 10297 20140 38805 48486 85200 91150 333 55325 59005 85827;EQDQ01  00002PRCP99
0221638320999992000050912004-05080+032830FM-12+1190HTTB V0201301N003610081019N0300001N1+02991+01371999999ADDAA199000091GA1051+008109029GF105991051021008001001001MA1999999088021MD1999999-0031ME1314869OA150601701REMSYN088AAXX  09124 63832 32580 51307 10299 20137 38802 48486 85200 91145 333 55330 59003 85827;EQDQ01  00002PRCP99
0246638320999992000051006004-05080+032830FM-12+1190HTTB V0201001N006212200019N0300001N1+02141+01431999999ADDAA199000091GF103991001001999999001011KA1120N+01601MA1999999088321MD1999999-0061ME1315069OA150699999REMSYN100AAXX  10064 63832 32980 31012 10214 20143 38832 48506 80001 90548 333 20160 55103 55315 59006 83078;EQDQ01  00002PRCP99Q02  00512WGOSPD
0246638320999992000051106004-05080+032830FM-12+1190HTTB V0201201N00511045001CN0300001N1+02101+01461999999ADDAA199000091GA1031+006009069GF107991031051008001031001KA1120N+01681MA1999999088431MD1999999+0111ME1315149OA150601541REMSYN100AAXX  11064 63832 32580 71210 10210 20146 38843 48514 83530 90550 333 20168 55300 58011 83620 87358;EQDQ01  00002PRCP99
0246638320999992000051206004-05080+032830FM-12+1190HTTB V0201001N00511045001CN0300001N1+02201+01381999999ADDAA199000091GA1021+006009089GF108991021011008001031999KA1120N+01901MA1999999088401MD1999999-0031ME1315179OA150601541REMSYN100AAXX  12064 63832 32580 81010 10220 20138 38840 48517 8213/ 90545 333 20190 55300 59003 82820 86358;EQDQ01  00002PRCP99
0268638320999992000051406004-05080+032830FM-12+1190HTTB V0201101N005112200019N0300001N1+02251+01571999999ADDAA199000091GA1011+005409089GF101991011011004501031001KA1120N+01661MA1999999088531MD1999999+0111ME1315279OA150699999REMSYN106AAXX  14064 63832 32480 11110 10225 20157 38853 48527 81130 90548 333 20166 55099 55315 58011 81818 81358;EQDQ01  00002PRCP99Q02  00462WGOSPD
0240638320999992000051506004-05080+032830FM-12+1190HTTB V0200901N007212200019N0300001N1+02201+01301999999ADDAA199000091GA1011+005409029GF101991011011004501001001KA1120N+01701MA1999999088541MD1999999+0011ME1315249OA150601601REMSYN094AAXX  15064 63832 32480 10914 10220 20130 38854 48524 81100 90548 333 20170 55318 58001 81818;EQDQ01  00002PRCP99
0221638320999992000051512004-05080+032830FM-12+1190HTTB V0201201N005110075019N0300001N1+03051+01301999999ADDAA199000091GA1051+007509029GF105991051021008001001001MA1999999088241MD1999999+0111ME1315079OA150601701REMSYN088AAXX  15124 63832 32580 51210 10305 20130 38824 48507 85200 91145 333 55330 58011 85825;EQDQ01  00002PRCP99
0221638320999992000051612004-05080+032830FM-12+1190HTTB V0200901N004110081019N0300001N1+03001+01161999999ADDAA199000091GA1051+008109029GF105991051021008001001001MA1999999088151MD1999999-0091ME1314969OA150601701REMSYN088AAXX  16124 63832 32580 50908 10300 20116 38815 48496 85200 91150 333 55330 59009 85827;EQDQ01  00002PRCP99
0232638320999992000051706004-05080+032830FM-12+1190HTTB V0200901N005112200019N0300001N1+02261+01451999999ADDAA199000091GF101991011021008001001001KA1120N+01731MA1999999088421ME1315179OA150699999REMSYN100AAXX  17064 63832 32580 10910 10226 20145 38842 48517 81200 90550 333 20173 5///1 55099 55318 81820;EQDQ01  00002PRCP99Q02  00462WGOSPD
0221638320999992000051712004-05080+032830FM-12+1190HTTB V0200901N002610081019N0300001N1+03101+01401999999ADDAA199000091GA1061+008109029GF106991061021008001001001MA1999999088171MD1999999+0021ME1314989OA150601651REMSYN088AAXX  17124 63832 32580 60905 10310 20140 38817 48498 86200 91155 333 55328 58002 86827;EQDQ01  00002PRCP99
0246638320999992000051806004-05080+032830FM-12+1190HTTB V0200901N006712200019N0300001N1+02221+01431999999ADDAA199000091GF101991011011004501001001KA1120N+01701MA1999999088531MD1999999+0111ME1315279OA150699999REMSYN100AAXX  18064 63832 32480 10913 10222 20143 38853 48527 81100 90459 333 20170 55109 55310 58011 81819;EQDQ01  00002PRCP99Q02  00512WGOSPD
0256638320999992000051906004-05080+032830FM-12+1190HTTB V0200901N005112200019N0300001N1+02201+01381999999ADDAA199000091GA1011+024009079GF101991011999999999031001KA1120N+01751MA1999999088471MD1999999-0061ME1315169OA150601601REMSYN094AAXX  19064 63832 32980 10910 10220 20138 38847 48516 81030 90550 333 20175 55316 59006 81358;EQDQ01  00002PRCP99Q02    003SCOLCG
0228638320999992000052006004-05080+032830FM-12+1190HTTB V0201201N005112200019N0300001N1+02101+01271999999ADDAA199000091GA1001+999999999GF100991001001999999001001KA1120N+01651MA1999999088451MD1999999-0021ME1315159OA150601601REMSYN082AAXX  20064 63832 32980 01210 10210 20127 38845 48515 90545 333 20165 55315 59002;EQDQ01  00002PRCP99
0221638320999992000052112004-05080+032830FM-12+1190HTTB V0200701N005112200019N0300001N1+03051+01191999999ADDAA199000091GA1041+008109029GF104991041021008001001001MA1999999088181MD1999999+0181ME1314979OA150601651REMSYN088AAXX  21124 63832 32580 40710 10305 20119 38818 48497 84200 91145 333 55325 58018 84827;EQDQ01  00002PRCP99
0220638320999992000052206004-05080+032830FM-12+1190HTTB V0201201N005712200019N0300001N1+02201+01401999999ADDAA199000091GA1001+999999999GF100991001001999999001001KA1120N+01671MA1999999088501ME1315249OA150600571REMSYN088AAXX  22064 63832 32980 01211 10220 20140 38850 48524 90548 333 20167 55112 55315 58002;EQDQ01  00002PRCP99
0237638320999992000052212004-05080+032830FM-12+1190HTTB V0200901N005112200019N0300001N1+03081+01191999999ADDAA199000091GA1021+007509029GF103991999011008001001001MA1999999088201MD1999999+0021ME1314979OA150601701REMSYN088AAXX  22124 63832 32580 30910 10308 20119 38820 48497 82100 91150 333 55330 58002 82825;EQDQ01+000022SCOTLCQ02  00002PRCP99
0217638320999992000052306004-05080+032830FM-12+1190HTTB V0200901N006712200019N0300001N1+02201+01351999999ADDAA199000091GA1001+999999999GF100991001001999999001001KA1120N+01751MA1999999088421MD1999999-0081ME1315179REMSYN082AAXX  23064 63832 32980 00913 10220 20135 38842 48517 90548 333 20175 55/// 59008;EQDQ01  00002PRCP99
0228638320999992000052406004-05080+032830FM-12+1190HTTB V0201501N001512200019N0300001N1+02031+01321999999ADDAA199000091GA1001+999999999GF100991001001999999001001KA1120N+01501MA1999999088411MD1999999-0011ME1315149OA150601651REMSYN082AAXX  24064 63832 32980 01503 10203 20132 38841 48514 90550 333 20150 55320 59001;EQDQ01  00002PRCP99
0221638320999992000052412004-05080+032830FM-12+1190HTTB V0202101N002612200019N0300001N1+03271+01021999999ADDAA199000091GA1031+009009029GF103991031021012501001001MA1999999088001MD1999999-0171ME1314899OA150601701REMSYN088AAXX  24124 63832 32680 32105 10327 20102 38800 48489 83200 91150 333 55330 59017 83830;EQDQ01  00002PRCP99
0216638320999992000052506004-05080+032830FM-12+1190HTTB V0201401N002612200019N0300001N1+02051+01371999999ADDAA199000091GF102991021001999999031011KA1120N+01601MA1999999088401ME1315149OA150600511REMSYN100AAXX  25064 63832 32980 21405 10205 20137 38840 48514 82031 90550 333 20160 5///1 55105 55306 82359;EQDQ01  00002PRCP99
0246638320999992000052706004-05080+032830FM-12+1190HTTB V0200901N003112200019N0300001N1+02151+01531999999ADDAA199000091GA1021+006009089GF104991021011008001031001KA1120N+01621MA1999999088341MD1999999-0141ME1315059OA150601541REMSYN100AAXX  27064 63832 32580 40906 10215 20153 38834 48505 82130 90548 333 20162 55308 59014 82820 84359;EQDQ01  00002PRCP99
0221638320999992000052712004-05080+032830FM-12+1190HTTB V0201801N005110081019N0300001N1+02981+01351999999ADDAA199000091GA1051+008109029GF105991051031008001001001MA1999999088041MD1999999-0131ME1314869OA150601701REMSYN088AAXX  27124 63832 32580 51810 10298 20135 38804 48486 85300 91145 333 55330 59013 85827;EQDQ01  00002PRCP99
0221638320999992000052912004-05080+032830FM-12+1190HTTB V0201801N004110081019N0300001N1+03081+01171999999ADDAA199000091GA1051+008109029GF105991051021008001001001MA1999999088111MD1999999+0101ME1314979OA150601651REMSYN088AAXX  29124 63832 32580 51808 10308 20117 38811 48497 85200 91150 333 55320 58010 85827;EQDQ01  00002PRCP99
0230638320999992000053006004-05080+032830FM-12+1190HTTB V0200901N004112200019N0300001N1+02111+01061999999ADDAA199000091GF101991001001999999001011KA1120N+01701MA1999999088471MD1999999+0121ME1315159OA150600411REMSYN100AAXX  30064 63832 32980 10908 10211 20106 38847 48515 80001 90545 333 20170 55088 55310 58012 81075;EQDQ01  00002PRCP99
0221638320999992000053012004-05080+032830FM-12+1190HTTB V0201501N005112200019N0300001N1+02961+01031999999ADDAA199000091GA1011+007209029GF101991011011008001001001MA1999999088171MD1999999+0061ME1314969OA150601701REMSYN088AAXX  30124 63832 32580 11510 10296 20103 38817 48496 81100 91149 333 55330 58006 81824;EQDQ01  00002PRCP99
0228638320999992000053106004-05080+032830FM-12+1190HTTB V0200901N005112200019N0300001N1+02101+01051999999ADDAA199000091GA1001+999999999GF100991001001999999001001KA1120N+01651MA1999999088381MD1999999-0091ME1315059OA150601601REMSYN082AAXX  31064 63832 32980 00910 10210 20105 38838 48505 90555 333 20165 55318 59009;EQDQ01  00002PRCP99
0204638320999992000060206004-05080+032830FM-12+1190HTTB V0201001N005119999999N0300001N1+01921+01281999999ADDAA199000091GF105991999999999999999999KA1120N+01601MA1999999088311ME1315149OA150601601REMSYN088AAXX  02064 63832 32980 51010 10192 20128 38831 48514 90550 333 20160 5//11 55310 59015;EQDQ01  00002PRCP99
0221638320999992000060212004-05080+032830FM-12+1190HTTB V0200801N002612200019N0300001N1+02991+01011999999ADDAA199000091GA1011+006909029GF101991011011008001001001MA1999999088091MD1999999+0011ME1554869OA150601701REMSYN088AAXX  02124 63832 32580 10805 10299 20101 38809 45486 81100 91145 333 55330 58001 81823;EQDQ01  00002PRCP99
0246638320999992000060306004-05080+032830FM-12+1190HTTB V0201101N006219999999N0300001N1+01951+01081999999ADDAA199000091GF105991001001999999001011KA1120N+01541MA1999999088461MD1999999+0151ME1315139OA150699999REMSYN100AAXX  03064 63832 32980 51112 10195 20108 38846 48513 80001 90545 333 20154 55011 55305 58015 85078;EQDQ01  00002PRCP99Q02  00052WGOSPD
0228638320999992000060406004-05080+032830FM-12+1190HTTB V0201201N005112200019N0300001N1+02031+01131999999ADDAA199000091GA1001+999999999GF100991001001999999001001KA1120N+01651MA1999999088481MD1999999+0021ME1315139OA150601651REMSYN082AAXX  04064 63832 32980 01210 10203 20113 38848 48513 90550 333 20165 55326 58002;EQDQ01  00002PRCP99
0228638320999992000060506004-05080+032830FM-12+1190HTTB V0201201N005112200019N0300001N1+02101+01451999999ADDAA199000091GA1001+999999999GF100991001001999999001001KA1120N+01751MA1999999088561MD1999999+0081ME1315259OA150601601REMSYN082AAXX  05064 63832 32980 01210 10210 20145 38856 48525 90545 333 20175 55318 58008;EQDQ01  00002PRCP99
0220638320999992000060706004-05080+032830FM-12+1190HTTB V0201201N007712200019N0300001N1+02011+01241999999ADDAA199000091GA1001+999999999GF100991001001999999001001KA1120N+01601MA1999999088621ME1315349OA150601601REMSYN088AAXX  07064 63832 32980 01215 10201 20124 38862 48534 90545 333 20160 55315 55092 58016;EQDQ01  00002PRCP99
0221638320999992000060712004-05080+032830FM-12+1190HTTB V0200901N004112200019N0300001N1+02021+01231999999ADDAA199000091GA1011+007509029GF101991011011008001001001MA1999999088321MD1999999+0121ME1315169OA150601701REMSYN088AAXX  07124 63832 32580 10908 10202 20123 38832 48516 81100 91150 333 55330 58012 81825;EQDQ01  00002PRCP99
0228638320999992000060906004-05080+032830FM-12+1190HTTB V0201201N005112200019N0300001N1+02001+01341999999ADDAA199000091GA1001+999999999GF100991001001999999001001KA1120N+01531MA1999999088731MD1999999+0171ME1315439OA150601651REMSYN082AAXX  09064 63832 32980 01210 10200 20134 38873 48543 90545 333 20153 55320 58017;EQDQ01  00002PRCP99
0221638320999992000060912004-05080+032830FM-12+1190HTTB V0209999C000012200019N0300001N1+02001+01241999999ADDAA199000091GA1031+008409029GF103991031021008001001001MA1999999088421MD1999999+0021ME1315269OA150601701REMSYN088AAXX  09124 63832 32580 30000 10200 20124 38842 48526 83200 91145 333 55330 58002 83828;EQDQ01  00002PRCP99
0226638320999992000061006004-05080+032830FM-12+1190HTTB V0201001N005712200019N0300001N1+01981+01421999999ADDAA199000091GA1001+999999999GF100991001001999999001001KA1120N+01441MA1999999088631ME1315339OA150600571REMSYN094AAXX  10064 63832 32980 01011 10198 20142 38863 48533 90550 333 20144 3///1 55110 55317 59010;EQDQ01  00002PRCP99
0209638320999992000061106004-05080+032830FM-12+1190HTTB V0201101N006712200019N0300001N1+02051+01221999999ADDAA199000091GA1001+999999999GF100991001001999999001001KA1120N+01561MA1999999088631ME1315349REMSYN088AAXX  11064 63832 32980 01113 10205 20122 38863 48534 90545 333 20156 55/// 55315 58000;EQDQ01  00002PRCP99
0228638320999992000061206004-05080+032830FM-12+1190HTTB V0200901N006212200019N0300001N1+02041+01391999999ADDAA199000091GA1001+999999999GF100991001001999999001001KA1120N+01501MA1999999088531MD1999999-0101ME1315239OA150601601REMSYN082AAXX  12064 63832 32980 00912 10204 20139 38853 48523 90548 333 20150 55318 59010;EQDQ01  00002PRCP99
0228638320999992000061306004-05080+032830FM-12+1190HTTB V0201401N006212200019N0300001N1+02001+01201999999ADDAA199000091GA1001+999999999GF100991001001999999001001KA1120N+01501MA1999999088581MD1999999-0051ME1315249OA150601651REMSYN082AAXX  13064 63832 32980 01412 10200 20120 38858 48524 90545 333 20150 55320 59005;EQDQ01  00002PRCP99
0221638320999992000061312004-05080+032830FM-12+1190HTTB V0201801N003612200019N0300001N1+02881+01071999999ADDAA199000091GA1021+007809029GF102991021011008001001001MA1999999088261MD1999999+0021ME1315059OA150601701REMSYN088AAXX  13124 63832 32580 21807 10288 20107 38826 48505 82100 91150 333 55330 58002 82826;EQDQ01  00002PRCP99
0221638320999992000061412004-05800+032820FM-12+1190HTTB V0200601N002612200019N0300001N1+02901+01071999999ADDAA199000091GA1021+006609029GF102991021021008001001001MA1999999088251MD1999999-0011ME1315069OA150601701REMSYN088AAXX  14124 63832 32580 20605 10290 20107 38825 48506 82200 91150 333 55330 59001 82822;EQDQ01  00002PRCP99
0236638320999992000061506004-05800+032820FM-12+1190HTTB V0201001N007712200019N0300001N1+01951+01081999999ADDAA199000091GA1001+999999999GF100991001001999999001001KA1120N+01611MA1999999088511ME1315239OA150699999REMSYN088AAXX  15064 63832 32980 01015 10195 20108 38851 48523 90545 333 20161 55105 55315 59012;EQDQ01  00002PRCP99Q02  00512WGOSPD
0236638320999992000061606004-05800+032820FM-12+1190HTTB V0201001N007712200019N0300001N1+02001+01151999999ADDAA199000091GA1001+999999999GF100991001001999999001001KA1120N+01551MA1999999088521ME1315249OA150699999REMSYN088AAXX  16064 63832 32980 01015 10200 20115 38852 48524 90545 333 20155 55108 55310 58001;EQDQ01  00002PRCP99Q02  00512WGOSPD
0240638320999992000061706004-05800+032820FM-12+1190HTTB V0200601N005112200019N0300001N1+01951+01281999999ADDAA199000091GA1021+030009079GF102991021001999999031001KA1120N+01601MA1999999088531MD1999999+0011ME1315259OA150601651REMSYN094AAXX  17064 63832 32980 20610 10195 20128 38853 48525 82030 90545 333 20160 55320 58001 82360;EQDQ01  00002PRCP99
0221638320999992000061712004-05800+032820FM-12+1190HTTB V0201201N002612200019N0300001N1+02971+01001999999ADDAA199000091GA1021+008109029GF102991021011008001001001MA1999999088271MD1999999+0041ME1315069OA150601701REMSYN088AAXX  17124 63832 32580 21205 10297 20100 38827 48506 82100 91150 333 55330 58004 82827;EQDQ01  00002PRCP99
0232638320999992000061806004-05800+032820FM-12+1190HTTB V0201101N005112200019N0300001N1+02051+01031999999ADDAA199000091GF102991021001999999031001KA1120N+01651MA1999999088601ME1315349OA150699999REMSYN100AAXX  18064 63832 32980 21110 10205 20103 38860 48534 82030 90550 333 20165 5///1 55099 55317 82359;EQDQ01  00002PRCP99Q02  00462WGOSPD
0246638320999992000061906004-05800+032820FM-12+1190HTTB V0200901N007712200019N0300001N1+02101+01451999999ADDAA199000091GF102991021021004501001001KA1120N+01751MA1999999088461MD1999999-0141ME1315159OA150699999REMSYN100AAXX  19064 63832 32480 20915 10210 20145 38846 48515 82200 90550 333 20175 55101 55310 59014 82817;EQDQ01  00002PRCP99Q02  00512WGOSPD
0228638320999992000062006004-05800+032820FM-12+1190HTTB V0201201N005112200019N0300001N1+02101+01351999999ADDAA199000091GA1001+999999999GF100991001001999999001001KA1120N+01601MA1999999088471MD1999999+0011ME1315149OA150601601REMSYN082AAXX  20064 63832 32980 01210 10210 20135 38847 48514 90545 333 20160 55318 58001;EQDQ01  00002PRCP99
0234638320999992000062106004-05800+032820FM-12+1190HTTB V0201001N005112200019N0300001N1+01951+99999999999ADDAA199000091GA1031+075009019GF103991001001999999001011KA1120N+01531MA1999999088431MD1999999-0041ME1315169OA150601651REMSYN088AAXX  21064 63832 32980 31010 10195 38843 48516 80001 90554 333 20153 55320 59004 83075;EQDQ01  00002PRCP99
0209638320999992000062112004-05800+032820FM-12+1190HTTB V0201401N004112200019N0300001N1+02901+01051999999ADDAA199000091GA1001+999999999GF100991001001999999001001MA1999999088171MD1999999-0061ME1314959OA150601701REMSYN076AAXX  21124 63832 32980 01408 10290 20105 38817 48495 91150 333 55330 59006;EQDQ01  00002PRCP99
0236638320999992000062206004-05800+032820FM-12+1190HTTB V0200901N006212200019N0300001N1+02001+01211999999ADDAA199000091GA1001+999999999GF100991001001999999001001KA1120N+01541MA1999999088481ME1315139OA150699999REMSYN088AAXX  22064 63832 32980 00912 10200 20121 38848 48513 90550 333 20154 5///1 55103 55316;EQDQ01  00002PRCP99Q02  00512WGOSPD
0236638320999992000062306004-05800+032820FM-12+1190HTTB V0201101N006712200019N0300001N1+02051+01001999999ADDAA199000091GA1001+999999999GF100991001001999999001001KA1120N+01621MA1999999088481ME1315149OA150699999REMSYN088AAXX  23064 63832 32980 01113 10205 20100 38848 48514 90549 333 20162 55109 55315 58000;EQDQ01  00002PRCP99Q02  00512WGOSPD
0228638320999992000062612004-05800+032820FM-12+1190HTTB V0201201N00261045001CN0300001N1+02791+01151999999ADDAA199000091GA1031+007809089GF105991031021008001031001MD1999999+0151ME1315149OA150601601REMSYN094AAXX  26124 63832 32580 51205 10279 20115 31833 48514 83230 91148 333 55315 58015 83826 85359;EQDQ01+018331APOSP Q02  00002PRCP99
0236638320999992000062706004-05800+032820FM-12+1190HTTB V0200901N006212200019N0400001N1+02061+01131999999ADDAA199000091GA1001+999999999GF100991001001999999001001KA1120N+01641MA1999999088581ME1315249OA150699999REMSYN088AAXX  27064 63832 32982 00912 10206 20113 38858 48524 90550 333 20164 55055 55315 59001;EQDQ01  00002PRCP99Q02  00262WGOSPD
0237638320999992000062712004-05800+032820FM-12+1190HTTB V0201201N003112200019N0300001N1+02001+00961999999ADDAA199000091GA1061+007509029GF199999061021008001001001MA1999999088291MD1999999-0041ME1315059OA150601651REMSYN088AAXX  27124 63832 32580 11206 10200 20096 38829 48505 86200 91145 333 55326 59004 86825;EQDQ01+000012SCOTCVQ02  00002PRCP99
0236638320999992000062806004-05800+032820FM-12+1190HTTB V0200901N006212200019N0300001N1+01951+01091999999ADDAA199000091GA1001+999999999GF100991001001999999001001KA1120N+01591MA1999999088561ME1315239OA150699999REMSYN088AAXX  28064 63832 32580 00912 10195 20109 38856 48523 90550 333 20159 55077 55310 59002;EQDQ01  00002PRCP99Q02  00362WGOSPD
0236638320999992000070506004-05800+032820FM-12+1190HTTB V0201201N006712200019N0300001N1+01991+00951999999ADDAA199000091GA1001+999999999GF100991001001999999001001KA1120N+01651MA1999999088541ME1315239OA150699999REMSYN088AAXX  05064 63832 32980 01213 10199 20095 38854 48523 90545 333 20165 55106 55315 58017;EQDQ01  00002PRCP99Q02  00512WGOSPD
0228638320999992000070606004-05800+032820FM-12+1190HTTB V0201201N006212200019N0300001N1+01981+01001999999ADDAA199000091GA1001+999999999GF100991001001999999001001KA1120N+01501MA1999999088511MD1999999-0031ME1315239OA150601651REMSYN082AAXX  06064 63832 32980 01212 10198 20100 38851 48523 90545 333 20150 55320 59003;EQDQ01  00002PRCP99
0209638320999992000070612004-05800+032820FM-12+1190HTTB V0200901N001512200019N0300001N1+02921+00081999999ADDAA199000091GA1001+999999999GF100991001001999999001001MA1999999088251MD1999999-0071ME1315069OA150601701REMSYN076AAXX  06124 63832 32980 00903 10292 20008 38825 48506 91145 333 55330 59007;EQDQ01  00002PRCP99
0209638320999992000070700004-05800+032820FM-12+1190HTTB V0209999C000012200019N0300001N1+01701+00981999999ADDAA199000091GA1001+999999999GF100991001001999999001001MA1999999088391MD1999999+0001ME1315119OA150601541REMSYN076AAXX  07004 63832 32980 00000 10170 20098 38839 48511 92350 333 55300 58000;EQDQ01  00002PRCP99
0228638320999992000070706004-05800+032820FM-12+1190HTTB V0201201N007712200019N0300001N1+01881+00701999999ADDAA199000091GA1001+999999999GF100991001001999999001001KA1120N+01401MA1999999088551MD1999999+0041ME1315229OA150601651REMSYN082AAXX  07064 63832 32980 01215 10188 20070 38855 48522 90545 333 20140 55320 58004;EQDQ01  00002PRCP99
0225638320999992000070712004-05800+032820FM-12+1190HTTB V0201901N003112200019N0300001N1+02901+00871999999ADDAA199000091GA1001+999999999GF100991001001999999001001MA1999999100192MD1999999-0061ME1314959OA150601701REMSYN076AAXX  07124 63832 32980 01906 10290 20087 30019 48495 91151 333 55330 59006;EQDQ01+100193APOSP Q02  00002PRCP99
0220638320999992000070806004-05800+032820FM-12+1190HTTB V0201101N004112200019N0300001N1+01931+00961999999ADDAA199000091GA1001+999999999GF100991001001999999001001KA1120N+01401MA1999999088531ME1315239OA150600571REMSYN088AAXX  08064 63832 32980 01108 10193 20096 38853 48523 90550 333 20140 5///1 55112 55315;EQDQ01  00002PRCP99
0227638320999992000070812004-05800+032820FM-12+1190HTTB V0201401N004112200019N0300001N1+02901+00921999999ADDAA199000091GA1011+006609089GF102991011011008001031001MA1999999088291MD1999999+0101ME1315069OA150601701REMSYN094AAXX  08124 63832 32580 21408 10290 20092 38829 48506 81130 91145 333 55330 58010 81822 82358;EQDQ01  00002PRCP99
0234638320999992000071106004-05800+032820FM-12+1190HTTB V0200801N006212200019N0300001N1+01901+01231999999ADDAA199000091GA1021+078009089GF102991999999999999999999KA1120N+01501MA1999999088531MD1999999+0021ME1315239OA150601651REMSYN088AAXX  11064 63832 32980 20812 10190 20123 38853 48523 90545 333 20150 55320 58002 82276;EQDQ01  00002PRCP99
0209638320999992000071206004-05800+032820FM-12+1190HTTB V0200901N005112200019N0300001N1+01941+01261999999ADDAA199000091GA1001+999999999GF100991001001999999001001KA1120N+01601MA1999999088531ME1315239REMSYN088AAXX  12064 63832 32980 00910 10194 20126 38853 48523 90550 333 20160 5///1 55/// 55313;EQDQ01  00002PRCP99
0221638320999992000071212004-05800+032820FM-12+1190HTTB V0201201N003612200019N0300001N1+02941+01041999999ADDAA199000091GA1031+007509029GF103991031021008001001001MA1999999088201MD1999999+0051ME1315069OA150601701REMSYN088AAXX  12124 63832 32580 31207 10294 20104 38820 48506 83200 91146 333 55330 58005 83825;EQDQ01  00002PRCP99
0227638320999992000071612004-05800+032820FM-12+1190HTTB V0201801N003612200019N0300001N1+03101+00901999999ADDAA199000091GA1011+007509089GF104991011011008001001011MA1999999088201MD1999999+0161ME1315089OA150601701REMSYN094AAXX  16124 63832 32580 41807 10310 20090 38820 48508 81101 91155 333 55330 58016 81825 84075;EQDQ01  00002PRCP99
0209638320999992000072100004-05070+032820FM-12+1190HTTB V0209999C000012200019N0300001N1+01651+01211999999ADDAA199000091GA1001+999999999GF100991001001999999001001MA1999999088151MD1999999+0031ME1314839OA150601541REMSYN076AAXX  21004 63832 32980 00000 10165 20121 38815 48483 92350 333 55300 58003;EQDQ01  00002PRCP99
0220638320999992000072106004-05070+032820FM-12+1190HTTB V0201001N005112200019N0300001N1+02001+01151999999ADDAA199000091GA1001+999999999GF100991001001999999001001KA1120N+01521MA1999999088261ME1314959OA150600571REMSYN088AAXX  21064 63832 32980 01010 10200 20115 38826 48495 90545 333 20152 55110 55315 59003;EQDQ01  00002PRCP99
0269638320999992000072312004-05070+032820FM-12+1190HTTB V0201101N004112200019N0300001N1+02851+00721999999ADDAA199000091GA1041+008109089GF199999999999999999001001MA1999999088171MD1999999+0101ME1314959OA150601541REMSYN088AAXX  23124 63832 32980 01108 10285 20072 38817 48495 91155 333 55302 58010 84827 85358;EQDQ01+000002SCOTCVQ02+000002SCOTLCQ03+000002SCOLCGQ04  00002PRCP99
0212638320999992000072606004-05070+032820FM-12+1190HTTB V0201901N006212200019N0300001N1+01961+01151999999ADDAA199000091GF101991999999999999999999KA1120N+01601MA1999999088551MD1999999+0081ME1315239OA150601601REMSYN082AAXX  26064 63832 32980 11912 10196 20115 38855 48523 90546 333 20160 55314 58008;EQDQ01  00002PRCP99
0221638320999992000072612004-05070+032820FM-12+1190HTTB V0201501N006212200019N0300001N1+02851+00751999999ADDAA199000091GA1011+007509029GF101991011011008001001001MA1999999088321MD1999999+0171ME1315059OA150601701REMSYN088AAXX  26124 63832 32580 11512 10285 20075 38832 48505 81100 91145 333 55330 58017 81825;EQDQ01  00002PRCP99
0228638320999992000072706004-05070+032820FM-12+1190HTTB V0200901N005112200019N0300001N1+01901+01031999999ADDAA199000091GA1001+999999999GF100991001001999999001001KA1120N+01601MA1999999088381MD1999999+0031ME1315239OA150601601REMSYN082AAXX  27064 63832 32980 00910 10190 20103 38838 48523 90545 333 20160 55315 58003;EQDQ01  00002PRCP99
0209638320999992000072712004-05070+032820FM-12+1190HTTB V0200801N005112200019N0300001N1+02801+00871999999ADDAA199000091GA1001+999999999GF100991001001999999001001MA1999999088161MD1999999-0161ME1314949OA150601701REMSYN076AAXX  27124 63832 32980 00810 10280 20087 38816 48494 91155 333 55330 59016;EQDQ01  00002PRCP99
0220638320999992000072806004-05070+032820FM-12+1190HTTB V0200901N005112200019N0300001N1+01881+01141999999ADDAA199000091GA1001+999999999GF100991001001999999001001KA1120N+01521MA1999999088471ME1315129OA150600571REMSYN088AAXX  28064 63832 32980 00910 10188 20114 38847 48512 90550 333 20152 5///1 55110 55313;EQDQ01  00002PRCP99
0221638320999992000072812004-05070+032820FM-12+1190HTTB V0200601N003612200019N0300001N1+02851+00881999999ADDAA199000091GA1011+006609029GF101991011011008001001001MA1999999088141MD1999999-0021ME1314959OA150601701REMSYN088AAXX  28124 63832 32580 10607 10285 20088 38814 48495 81100 91155 333 55330 59002 81822;EQDQ01  00002PRCP99
0228638320999992000073006004-05070+032820FM-12+1190HTTB V0200901N006712200019N0300001N1+02031+01131999999ADDAA199000091GA1001+999999999GF100991001001999999001001KA1120N+01651MA1999999088351MD1999999+0001ME1315049OA150601601REMSYN082AAXX  30064 63832 32980 00913 10203 20113 38835 48504 90546 333 20165 55314 58000;EQDQ01  00002PRCP99
0216638320999992000073106004-05070+032820FM-12+1190HTTB V0200901N005112200019N0300001N1+02101+01361999999ADDAA199000091GF101991011011004501001001KA1120N+01831MA1999999088421ME1315149OA150600511REMSYN100AAXX  31064 63832 32480 10910 10210 20136 38842 48514 81100 90555 333 20183 5///1 55100 55393 81816;EQDQ01  00002PRCP99
0221638320999992000073112004-05070+032820FM-12+1190HTTB V0201201N005112200019N0300001N1+03051+01111999999ADDAA199000091GA1031+008409029GF103991031021008001001001MA1999999088101MD1999999-0041ME1314979OA150601701REMSYN088AAXX  31124 63832 32580 31210 10305 20111 38810 48497 83200 91150 333 55330 59004 83828;EQDQ01  00002PRCP99
0236638320999992000080106004-05070+032820FM-12+1190HTTB V0200901N007712200019N0300001N1+02021+01431999999ADDAA199000091GA1001+999999999GF100991001001999999001001KA1120N+01751MA1999999088391ME1315059OA150699999REMSYN088AAXX  01064 63832 32980 00915 10202 20143 38839 48505 90550 333 20175 5///1 55107 55311;EQDQ01  00002PRCP99Q02  00512WGOSPD
0236638320999992000080206004-05070+032820FM-12+1190HTTB V0200901N006212200019N0300001N1+02081+01281999999ADDAA199000091GA1001+999999999GF100991001001999999001001KA1120N+01721MA1999999088381ME1315059OA150699999REMSYN088AAXX  02064 63832 32980 00912 10208 20128 38838 48505 90550 333 20172 55092 55315 59001;EQDQ01  00002PRCP99Q02  00462WGOSPD
0254638320999992000080306004-05070+032820FM-12+1190HTTB V0200901N006212200019N0300001N1+02061+01221999999ADDAA199000091GA1011+006009089GF103991011011008001031001KA1120N+01681MA1999999088461ME1315149OA150699999REMSYN106AAXX  03064 63832 32580 30912 10206 20122 38846 48514 81130 90548 333 20168 5///1 55091 55317 81820 83358;EQDQ01  00002PRCP99Q02  00462WGOSPD
0221638320999992000080412004-05070+032820FM-12+1190HTTB V0201201N005110084019N0300001N1+02901+01051999999ADDAA199000091GA1051+008409029GF105991051021008001001001MA1999999088171MD1999999-0051ME1314959OA150601601REMSYN088AAXX  04124 63832 32580 51210 10290 20105 38817 48495 85200 91150 333 55317 59005 85828;EQDQ01  00002PRCP99
0236638320999992000080506004-05070+032820FM-12+1190HTTB V0200901N006212200019N0300001N1+02061+01331999999ADDAA199000091GA1001+999999999GF100991001001999999001001KA1120N+01731MA1999999088511ME1315249OA150699999REMSYN088AAXX  05064 63832 32980 00912 10206 20133 38851 48524 90550 333 20173 5///1 55108 55313;EQDQ01  00002PRCP99Q02  00512WGOSPD
0221638320999992000080512004-05070+032820FM-12+1190HTTB V0200601N006710081019N0300001N1+03051+00941999999ADDAA199000091GA1051+008109029GF105991051021008001001001MA1999999088151MD1999999-0021ME1314979OA150601651REMSYN088AAXX  05124 63832 32580 50613 10305 20094 38815 48497 85200 91150 333 55329 59002 85827;EQDQ01  00002PRCP99
0228638320999992000080706004-05070+032820FM-12+1190HTTB V0200901N005112200019N0300001N1+02041+01231999999ADDAA199000091GA1001+999999999GF100991001001999999001001KA1120N+01541MA1999999085581MD1999999-0041ME1315249OA150601601REMSYN082AAXX  07064 63832 32980 00910 10204 20123 38558 48524 90550 333 20154 55316 59004;EQDQ01  00002PRCP99
0212638320999992000080806004-05070+032820FM-12+1190HTTB V0200901N007719999999N0300001N1+02031+01321999999ADDAA199000091GF105991999999999999999999KA1120N+01701MA1999999088491MD1999999-0011ME1315149OA150601601REMSYN082AAXX  08064 63832 32980 50915 10203 20132 38849 48514 90545 333 20170 55318 59001;EQDQ01  00002PRCP99
0236638320999992000080906004-05070+032820FM-12+1190HTTB V0201101N005712200019N0300001N1+02001+01181999999ADDAA199000091GA1001+999999999GF100991001001999999001001KA1120N+01781MA1999999088491ME1315139OA150699999REMSYN088AAXX  09064 63832 32980 01111 10200 20118 38849 48513 90550 333 20178 5///1 55105 55310;EQDQ01  00002PRCP99Q02  00512WGOSPD
0248638320999992000081206004-05070+032820FM-12+1190HTTB V0200101N050422200019N0300001N1+02111+01231999999ADDAA199000091GF102991001001999999001031KA1120N+01701MA1999999088441ME1315159OA150699999REMSYN100AAXX  12064 63832 32980 20198 10211 20123 38844 48515 80003 90545 333 20170 5///1 55089 55313 80272;EQDQ01+005043WOSPD Q02  00002PRCP99Q03  00412WGOSPD
0227638320999992000081312004-05070+032820FM-12+1190HTTB V0201001N00261045001CN0300001N1+02871+01101999999ADDAA199000091GA1041+008109089GF106991041021008001031001MA1999999088171MD1999999+0061ME1314959OA150601601REMSYN094AAXX  13124 63832 32580 61005 10287 20110 38817 48495 84230 91155 333 55315 58006 84827 86359;EQDQ01  00002PRCP99
0246638320999992000081406004-05070+032820FM-12+1190HTTB V0200901N005112200019N0300001N1+02051+01211999999ADDAA199000091GF102991001001999999001011KA1120N+01721MA1999999088521MD1999999+0061ME1315249OA150699999REMSYN100AAXX  14064 63832 32980 20910 10205 20121 38852 48524 80001 90548 333 20172 55086 55310 58006 82078;EQDQ01  00002PRCP99Q02  00412WGOSPD
0230638320999992000081506004-05070+032820FM-12+1190HTTB V0201201N005112200019N0300001N1+02031+01231999999ADDAA199000091GA1001+999999999GF100991001001999999001001KA1120N+01701MA1999999088421ME1315169OA150699999REMSYN082AAXX  15064 63832 32980 01210 10203 20123 38842 48516 90545 333 20170 55097 55318;EQDQ01  00002PRCP99Q02  00462WGOSPD
0221638320999992000081512004-05070+032820FM-12+1190HTTB V0201601N005112200019N0300001N1+02881+01031999999ADDAA199000091GA1011+011409029GF101991011011008001001001MA1999999088191MD1999999+0041ME1314959OA150601701REMSYN088AAXX  15124 63832 32580 11610 10288 20103 38819 48495 81100 91155 333 55330 58004 81838;EQDQ01  00002PRCP99
0220638320999992000081606004-05070+032820FM-12+1190HTTB V0200901N005112200019N0300001N1+01971+00811999999ADDAA199000091GA1001+999999999GF100991001001999999001001KA1120N+01601MA1999999088591ME1315239OA150600511REMSYN088AAXX  16064 63832 32980 00910 10197 20081 38859 48523 90549 333 20160 5///1 55106 55313;EQDQ01  00002PRCP99
0221638320999992000081612004-05070+032820FM-12+1190HTTB V0201201N003112200019N0300001N1+02821+00951999999ADDAA199000091GA1031+007509029GF103991031071008001021001MA1999999088211MD1999999+0021ME1315059OA150601701REMSYN088AAXX  16124 63832 32580 31206 10282 20095 38821 48505 83720 91150 333 55330 58002 83825;EQDQ01  00002PRCP99
0236638320999992000081706004-05070+032820FM-12+1190HTTB V0201001N006212200019N0300001N1+01951+01161999999ADDAA199000091GA1001+999999999GF100991001001999999001001KA1120N+01621MA1999999088501ME1315329OA150699999REMSYN088AAXX  17064 63832 32980 01012 10195 20116 38850 48532 90530 333 20162 5///1 55109 55315;EQDQ01  00002PRCP99Q02  00512WGOSPD
0211638320999992000081806004-05070+032820FM-12+1190HTTB V0200701N005712200019N0300001N1+01981+01091999999ADDAA199000091GA1001+999999999GF100991001001999999001001KA1120N+01701MA1999999088611OA150600571REMSYN088AAXX  18064 63832 32980 00711 10198 20109 38861 48/// 90550 333 20170 55110 55315 58011;EQDQ01  00002PRCP99
0220638320999992000081906004-05070+032820FM-12+1190HTTB V0200901N005112200019N0300001N1+02101+01311999999ADDAA199000091GA1001+999999999GF100991001001999999001001KA1120N+01701MA1999999088671ME1315349OA150600511REMSYN088AAXX  19064 63832 32980 00910 10210 20131 38867 48534 90551 333 20170 5///1 55105 55313;EQDQ01  00002PRCP99
0221638320999992000081912004-05070+032820FM-12+1190HTTB V0201201N004112200019N0300001N1+03031+01101999999ADDAA199000091GA1041+010809029GF104991041021012501001001MA1999999088301MD1999999-0011ME1315179OA150601701REMSYN088AAXX  19124 63832 32680 41208 10303 20110 38830 48517 84200 91155 333 55330 59001 84836;EQDQ01  00002PRCP99
0228638320999992000082006004-05070+032820FM-12+1190HTTB V0201201N005112200019N0300001N1+02101+01201999999ADDAA199000091GA1001+999999999GF100991001001999999001001KA1120N+01741MA1999999088541MD1999999-0071ME1315249OA150601601REMSYN082AAXX  20064 63832 32980 01210 10210 20120 38854 48524 90545 333 20174 55318 59007;EQDQ01  00002PRCP99
0240638320999992000082018004-05070+032820FM-12+1190HTTB V0201201N004612200019N0300001N1+02651+00931999999ADDAA199000091GA1011+030009079GF101991011001999999031001KA1120M+03151MA1999999088211MD1999999-0061ME1315039OA150601541REMSYN094AAXX  20184 63832 32980 11209 10265 20093 38821 48503 81030 91750 333 10315 55300 59006 81360;EQDQ01  00002PRCP99
0236638320999992000082106004-05070+032820FM-12+1190HTTB V0201001N006212200019N0300001N1+02101+01001999999ADDAA199000091GA1001+999999999GF100991001001999999001001KA1120N+01721MA1999999088571ME1315249OA150699999REMSYN088AAXX  21064 63832 32980 01012 10210 20100 38857 48524 90550 333 20172 5///1 55103 55318;EQDQ01  00002PRCP99Q02  00512WGOSPD
0209638320999992000082112004-05070+032820FM-12+1190HTTB V0201201N005712200019N0300001N1+02951+00901999999ADDAA199000091GA1001+999999999GF100991001001999999001001MA1999999088311MD1999999+0081ME1315169OA150601701REMSYN076AAXX  21124 63832 32980 01211 10295 20090 38831 48516 91150 333 55330 58008;EQDQ01  00002PRCP99
0209638320999992000082212004-05070+032820FM-12+1190HTTB V0201201N005712200019N0300001N1+03051+00181999999ADDAA199000091GA1001+999999999GF100991001001999999001001MA1999999088281MD1999999-0031ME1315069OA150601701REMSYN076AAXX  22124 63832 32980 01211 10305 20018 38828 48506 91150 333 55330 59003;EQDQ01  00002PRCP99
0236638320999992000082406004-05070+032820FM-12+1190HTTB V0200901N007712200019N0300001N1+02131+01141999999ADDAA199000091GA1001+999999999GF100991001001999999001001KA1120N+01751MA1999999088611ME1315359OA150699999REMSYN088AAXX  24064 63832 32980 00915 10213 20114 38861 48535 90555 333 20175 5///1 55110 55314;EQDQ01  00002PRCP99Q02  00572WGOSPD
0236638320999992000082506004-05070+032820FM-12+1190HTTB V0201001N006212200019N0300001N1+02121+01321999999ADDAA199000091GA1001+999999999GF100991001001999999001001KA1120N+01781MA1999999088481ME1315159OA150699999REMSYN088AAXX  25064 63832 32980 01012 10212 20132 38848 48515 90550 333 20178 5///1 55110 55314;EQDQ01  00002PRCP99Q02  00572WGOSPD
0221638320999992000082512004-05070+032820FM-12+1190HTTB V0201001N005712200019N0300001N1+03061+01191999999ADDAA199000091GA1021+007509029GF102991021021008001001001MA1999999088111MD1999999-0071ME1315179OA150601701REMSYN088AAXX  25124 63832 32580 21011 10306 20119 38811 48517 82200 91145 333 55330 59007 82825;EQDQ01  00002PRCP99
0222638320999992000082606004-05070+032820FM-12+1190HTTB V0200901N006712200019N0300001N1+02101+01171999999ADDAA199000091GA1001+999999999GF100991001001999999001001MA1999999088431ME1315159OA150699999REMSYN087AAXX  26064 63832 32980 00913 10210 20117 38843 48515 90555 333 2176 55108 55315 59005;EQDQ01  00002PRCP99Q02  00512WGOSPD
0228638320999992000082706004-05070+032820FM-12+1190HTTB V0201101N006712200019N0300001N1+02051+01281999999ADDAA199000091GA1001+999999999GF100991001001999999001001KA1120N+01751MA1999999088441MD1999999+0011ME1315139OA150601601REMSYN082AAXX  27064 63832 32980 01113 10205 20128 38844 48513 90550 333 20175 55318 58001;EQDQ01  00002PRCP99
0221638320999992000082712004-05070+032820FM-12+1190HTTB V0201801N002610090019N0100001N1+02801+01201999999ADDAA199000091GA1051+009009029GF105991051021022501001001MA1999999088121MD1999999+0081ME1315059OA150601651REMSYN088AAXX  27124 63832 32860 51805 10280 20120 38812 48505 85200 91150 333 55325 58008 85830;EQDQ01  00002PRCP99
0221638320999992000082812004-05070+032820FM-12+1190HTTB V0201101N004112200019N0300001N1+03001+00981999999ADDAA199000091GA1021+008409029GF102991021011008001001001MA1999999088081MD1999999-0041ME1314869OA150601701REMSYN088AAXX  28124 63832 32580 21108 10300 20098 38808 48486 82100 91150 333 55330 59004 82828;EQDQ01  00002PRCP99
0221638320999992000082912004-05070+032820FM-12+1190HTTB V0201201N007212200019N0300001N1+03001+01001999999ADDAA199000091GA1031+007509029GF103991031021008001001001MA1999999088171MD1999999+0091ME1314979OA150601701REMSYN088AAXX  29124 63832 32580 31214 10300 20100 38817 48497 83200 91150 333 55330 58009 83825;EQDQ01  00002PRCP99
0236638320999992000083006004-05070+032820FM-12+1190HTTB V0200901N006212200019N0300001N1+02141+01041999999ADDAA199000091GA1001+999999999GF100991001001999999001001KA1120N+01741MA1999999088401ME1315159OA150699999REMSYN088AAXX  30064 63832 32980 00912 10214 20104 38840 48515 90550 333 20174 55108 55315 59002;EQDQ01  00002PRCP99Q02  00512WGOSPD
0212638320999992000083106004-05070+032820FM-12+1190HTTB V0200901N007212200019N0300001N1+02201+01231999999ADDAA199000091GF101991999999999999999999KA1120N+01801MA1999999088361MD1999999-0041ME1315069OA150601601REMSYN082AAXX  31064 63832 32980 10914 10220 20123 38836 48506 90545 333 20180 55317 59004;EQDQ01  00002PRCP99
0237638320999992000083112004-05070+032820FM-12+1190HTTB V0201201N002612200019N0300001N1+03161+01161999999ADDAA199000091GA1031+008709029GF199999021021012501001001MA1999999088001MD1999999-0021ME1314889OA150601701REMSYN088AAXX  31124 63832 32680 21205 10316 20116 38800 48488 82200 91150 333 55330 59002 83829;EQDQ01+000022SCOTCVQ02  00002PRCP99
0220638320999992000090106004-05070+032820FM-12+1190HTTB V0200901N002612200019N0300001N1+02251+01361999999ADDAA199000091GA1001+999999999GF100991001001999999001001KA1120N+01951MA1999999088321ME1315089OA150600571REMSYN088AAXX  01064 63832 32980 00905 10225 20136 38832 48508 90550 333 20195 5///1 55112 55314;EQDQ01  00002PRCP99
0220638320999992000090206004-05070+032820FM-12+1190HTTB V0200901N005112200019N0300001N1+02161+01331999999ADDAA199000091GA1001+999999999GF100991001001999999001001KA1120N+01821MA1999999088311ME1315069OA150600511REMSYN088AAXX  02064 63832 32980 00910 10216 20133 38831 48506 90550 333 20182 5///1 55109 55315;EQDQ01  00002PRCP99
0221638320999992000090212004-05070+032820FM-12+1190HTTB V0201201N007212200019N0300001N1+03191+01201999999ADDAA199000091GA1011+009009029GF101991011011012501001001MA1999999087981MD1999999-0071ME1314789OA150601701REMSYN088AAXX  02124 63832 32680 11214 10319 20120 38798 48478 81100 91155 333 55330 59007 81830;EQDQ01  00002PRCP99
0236638320999992000090306004-05070+032820FM-12+1190HTTB V0200901N007712200019N0300001N1+02251+01161999999ADDAA199000091GA1001+999999999GF100991001001999999001001KA1120N+01821MA1999999088271ME1314989OA150699999REMSYN088AAXX  03064 63832 32980 00915 10225 20116 38827 48498 90555 333 20182 55111 55315 59004;EQDQ01  00002PRCP99Q02  00572WGOSPD
0228638320999992000090406004-05070+032820FM-12+1190HTTB V0200901N005112200019N0300001N1+02451+01321999999ADDAA199000091GA1001+999999999GF100991001001999999001001KA1120N+01941MA1999999088261MD1999999-0011ME1315009OA150601651REMSYN082AAXX  04064 63832 32980 00910 10245 20132 38826 48500 90555 333 20194 55320 59001;EQDQ01  00002PRCP99
0221638320999992000090412004-05070+032820FM-12+1190HTTB V0201601N005112200019N0300001N1+03301+00871999999ADDAA199000091GA1011+010509029GF101991011011012501001001MA1999999087901MD1999999-0081ME1314809OA150601701REMSYN088AAXX  04124 63832 32680 11610 10330 20087 38790 48480 81100 91150 333 55330 59008 81835;EQDQ01  00002PRCP99
0216638320999992000090506004-05070+032820FM-12+1190HTTB V0200701N004112200019N0300001N1+02301+01251999999ADDAA199000091GF104991001001999999001011KA1120N+01921MA1999999088241ME1314989OA150600571REMSYN100AAXX  05064 63832 32980 40708 10230 20125 38824 48498 80001 90550 333 20192 5///1 55110 55314 84070;EQDQ01  00002PRCP99
0220638320999992000090606004-05070+032820FM-12+1190HTTB V0200601N002612200019N0300001N1+02271+01251999999ADDAA199000091GA1001+999999999GF100991001001999999001001KA1120N+01841MA1999999088301ME1315089OA150600571REMSYN088AAXX  06064 63832 32980 00605 10227 20125 38830 48508 90550 333 20184 5///1 55110 55312;EQDQ01  00002PRCP99
0221638320999992000090612004-05070+032820FM-12+1190HTTB V0200801N002612200019N0300001N1+03201+01021999999ADDAA199000091GA1011+009009029GF101991011011012501001001MA1999999087891MD1999999-0031ME1314689OA150601701REMSYN088AAXX  06124 63832 32680 10805 10320 20102 38789 48468 81100 91150 333 55330 59003 81830;EQDQ01  00002PRCP99
0236638320999992000090706004-05070+032820FM-12+1190HTTB V0200801N005712200019N0300001N1+02301+01101999999ADDAA199000091GA1001+999999999GF100991001001999999001001KA1120N+01841MA1999999088191ME1314899OA150699999REMSYN088AAXX  07064 63832 32980 00811 10230 20110 38819 48489 90545 333 20184 55097 55315 59011;EQDQ01  00002PRCP99Q02  00462WGOSPD
0228638320999992000090806004-05070+032820FM-12+1190HTTB V0200801N005112200019N0300001N1+02201+01221999999ADDAA199000091GA1001+999999999GF100991001001999999001001KA1120N+01751MA1999999088111MD1999999-0081ME1314869OA150601651REMSYN082AAXX  08064 63832 32580 00810 10220 20122 38811 48486 80546 333 20175 55320 59008;EQDQ01  00002PRCP99
0221638320999992000090812004-05070+032820FM-12+1190HTTB V0209999C000012200019N0300001N1+03401+00681999999ADDAA199000091GA1031+010809029GF103991031021012501001001MA1999999087781MD1999999-0121ME1314609OA150601701REMSYN088AAXX  08124 63832 32680 30000 10340 20068 38778 48460 83200 91155 333 55330 59012 83836;EQDQ01  00002PRCP99
0221638320999992000091012004-05070+032820FM-12+1190HTTB V0201201N006212200019N0300001N1+02901+00931999999ADDAA199000091GA1011+084009019GF101991001001999999001011MA1999999088131MD1999999+0091ME1314969OA150601701REMSYN088AAXX  10124 63832 32980 11212 10290 20093 38813 48496 80001 91145 333 55330 58009 81078;EQDQ01  00002PRCP99
0236638320999992000091106004-05070+032820FM-12+1190HTTB V0201101N008712200019N0300001N1+02131+01241999999ADDAA199000091GA1001+999999999GF100991001001999999001001KA1120N+01811MA1999999088391ME1315069OA150699999REMSYN088AAXX  11064 63832 32980 01117 10213 20124 38839 48506 90550 333 20181 55106 55314 59008;EQDQ01  00002PRCP99Q02  00512WGOSPD
0221638320999992000091212004-05070+032820FM-12+1190HTTB V0201001N005112200019N0300001N1+02981+01081999999ADDAA199000091GA1031+009909029GF103991031021012501001001MA1999999087981MD1999999+0031ME1314769OA150601701REMSYN088AAXX  12124 63832 32680 31010 10298 20108 38798 48476 83200 91150 333 55330 58003 83833;EQDQ01  00002PRCP99
0221638320999992000091312004-05070+032820FM-12+1190HTTB V0201201N004112200019N0300001N1+03101+00881999999ADDAA199000091GA1031+009909029GF103991031021012501001001MA1999999088001MD1999999+0021ME1314879OA150601701REMSYN088AAXX  13124 63832 32680 31208 10310 20088 38800 48487 83200 91150 333 55330 58002 83833;EQDQ01  00002PRCP99
0252638320999992000091406004-05070+032820FM-12+1190HTTB V0201001N004112200019N0300001N1+02251+01371999999ADDAA199000091GA1011+006909089GF104991011021008001031001KA1120N+01951MA1999999088451MD1999999+0021ME1315179OA150600511REMSYN106AAXX  14064 63832 32580 41008 10225 20137 38845 48517 81230 90550 333 20195 55106 55308 58002 81823 85359;EQDQ01  00002PRCP99
0268638320999992000091506004-05070+032820FM-12+1190HTTB V0201001N008710450019N0300001N1+02351+01181999999ADDAA199000091GA1031+006009089GF106991031021008001031001KA1120N+01991MA1999999088551MD1999999+0101ME1315289OA150699999REMSYN106AAXX  15064 63832 32580 61017 10235 20118 38855 48528 83230 90555 333 20199 55084 55303 58010 83820 86359;EQDQ01  00002PRCP99Q02  00412WGOSPD
0249638320999992000091512004-05070+032820FM-12+1190HTTB V0201301N00511045001CN0300001N1+03201+00801999999ADDAA199000091GA1011+008109089GA2011+009009099GF105991011091008001031001MA1999999088171MD1999999+0031ME1314989OA150601701REMSYN100AAXX  15124 63832 32580 51310 10320 20080 38817 48498 81930 91154 333 55330 58003 81827 81930 85362;EQDQ01  00002PRCP99
0248638320999992000091606004-05070+032820FM-12+1190HTTB V0200901N005712200019N0300001N1+02231+00981999999ADDAA199000091GF102991999001999999031001KA1120N+01991MA1999999088731ME1315179OA150699999REMSYN100AAXX  16064 63832 32980 20911 10223 20098 38873 48517 81030 90555 333 20199 5///1 55102 55301 81361;EQDQ01+000012SCOTLCQ02  00002PRCP99Q03  00512WGOSPD
0220638320999992000091806004-05070+032820FM-12+1190HTTB V0200901N002612200019N0300001N1+02341+01461999999ADDAA199000091GA1001+999999999GF100991001001999999001001KA1120N+01901MA1999999088351ME1315099OA150600411REMSYN088AAXX  18064 63832 32980 00905 10234 20146 38835 48509 90550 333 20190 5///1 55088 55315;EQDQ01  00002PRCP99
0246638320999992000091906004-05070+032820FM-12+1190HTTB V0201201N006212200019N0300001N1+02261+01251999999ADDAA199000091GF101991011001999999031001KA1120N+02001MA1999999088481MD1999999+0131ME1315179OA150699999REMSYN100AAXX  19064 63832 32980 11212 10226 20125 38848 48517 81030 90550 333 20200 55105 55312 58013 81359;EQDQ01  00002PRCP99Q02  00512WGOSPD
0248638320999992000092106004-05070+032820FM-12+1190HTTB V0200901N006719999999N0300001N1+02171+00981999999ADDAA199000091GF107991001001999999001011KA1120N+01821MA1999999088401ME1315159OA150699999REMSYN100AAXX  21064 63832 32580 70913 10217 20098 38840 48515 80001 90850 333 20182 5///1 55084 55316 87075;EQDQ01+008002SCOLCBQ02  00002PRCP99Q03  00412WGOSPD
0209638320999992000092112004-05070+032820FM-12+1190HTTB V0201101N002612200019N0300001N1+03021+00921999999ADDAA199000091GA1001+999999999GF100991001001999999001001MA1999999088001MD1999999+0051ME1314879OA150601701REMSYN076AAXX  21124 63832 32980 01105 10302 20092 38800 48487 91150 333 55330 58005;EQDQ01  00002PRCP99
0236638320999992000092206004-05070+032820FM-12+1190HTTB V0200901N007712200019N0300001N1+02201+01261999999ADDAA199000091GA1001+999999999GF100991001001999999001001KA1120N+01761MA1999999088471ME1315159OA150699999REMSYN088AAXX  22064 63832 32980 00915 10220 20126 38847 48515 90550 333 20176 5///1 55105 55312;EQDQ01  00002PRCP99Q02  00512WGOSPD
0227638320999992000092212004-05070+032820FM-12+1190HTTB V0200701N00511220001CN0300001N1+03011+00941999999ADDAA199000091GA1041+008109089GF106991041021008001001011MA1999999088211MD1999999+0211ME1315079OA150601701REMSYN094AAXX  22124 63832 32580 60710 10301 20094 38821 48507 84201 91145 333 55330 58021 84827 85070;EQDQ01  00002PRCP99
0228638320999992000092406004-05070+032820FM-12+1190HTTB V0200901N006212200019N0300001N1+02251+01231999999ADDAA199000091GA1001+999999999GF100991001001999999001001KA1120N+01901MA1999999088331MD1999999-0041ME1315069OA150601601REMSYN082AAXX  24064 63832 32980 00912 10225 20123 38833 48506 90545 333 20190 55318 59004;EQDQ01  00002PRCP99
0221638320999992000092412004-05070+032820FM-12+1190HTTB V0201201N003612200019N0350001N1+03051+01081999999ADDAA199000091GA1041+009609029GF104991041021012501001011MA1999999087951MD1999999-0121ME1314779OA150601651REMSYN088AAXX  24124 63832 32681 41207 10305 20108 38795 48477 84201 91200 333 55325 59012 84832;EQDQ01  00002PRCP99
0236638320999992000092506004-05070+032820FM-12+1190HTTB V0201001N007212200019N0350001N1+02301+01101999999ADDAA199000091GA1001+999999999GF100991001001999999001001KA1120N+01921MA1999999088371ME1315089OA150699999REMSYN088AAXX  25064 63832 32981 01014 10230 20110 38837 48508 90549 333 20192 5///1 55090 55313;EQDQ01  00002PRCP99Q02  00462WGOSPD
0236638320999992000092906004-05070+032820FM-12+1190HTTB V0200901N006212200019N0300001N1+02261+01061999999ADDAA199000091GA1001+999999999GF100991001001999999001001KA1120N+01851MA1999999088411ME1315179OA150699999REMSYN088AAXX  29064 63832 32980 00912 10226 20106 38841 48517 90548 333 20185 5///1 55091 55315;EQDQ01  00002PRCP99Q02  00462WGOSPD
0236638320999992000100106004-05070+032820FM-12+1190HTTB V0201001N007212200019N0300001N1+02401+01141999999ADDAA199000091GA1001+999999999GF100991001001999999001001KA1120N+02001MA1999999088371ME1315109OA150699999REMSYN088AAXX  01064 63832 32980 01014 10240 20114 38837 48510 90450 333 20200 55111 55315 58002;EQDQ01  00002PRCP99Q02  00572WGOSPD
0220638320999992000100506004-05070+032820FM-12+1190HTTB V0201001N005112200019N0300001N1+02381+01251999999ADDAA199000091GA1001+999999999GF100991001001999999001001KA1120N+01941MA1999999088381ME1315099OA150600511REMSYN088AAXX  05064 63832 32980 01010 10238 20125 38838 48509 90545 333 20194 55101 55315 58013;EQDQ01  00002PRCP99
0232638320999992000100706004-05070+032820FM-12+1190HTTB V0200801N005712200019N0300001N1+02431+01441999999ADDAA199000091GF101991011011008001001011KA1120N+02031MA1999999088401ME1315199OA150699999REMSYN100AAXX  07064 63832 32580 10811 10243 20144 38840 48519 81101 90550 333 20203 5///1 55107 55318 81822;EQDQ01  00002PRCP99Q02  00512WGOSPD
0232638320999992000100806004-05070+032820FM-12+1190HTTB V0201001N006212200019N0300001N1+02351+01321999999ADDAA199000091GF101991011001999999041001KA1120N+02021MA1999999088361ME1315099OA150699999REMSYN100AAXX  08064 63832 32980 11012 10235 20132 38836 48509 81040 90550 333 20202 5///1 55098 55316 81362;EQDQ01  00002PRCP99Q02  00462WGOSPD
0240638320999992000101006004-05070+032820FM-12+1190HTTB V0200901N005112200019N0300001N1+02451+01291999999ADDAA199000091GA1021+075009019GF102991001001999999001011KA1120N+01981MA1999999088411MD1999999-0021ME1315189OA150601601REMSYN094AAXX  10064 63832 32980 20910 10245 20129 38841 48518 80001 90555 333 20198 55318 59002 82075;EQDQ01  00002PRCP99
0221638320999992000101412004-05070+032820FM-12+1190HTTB V0201401N002612200019N0300001N1+03301+00941999999ADDAA199000091GA1041+009009029GF104991041021012501001001MA1999999087881MD1999999-0121ME1314699OA150601701REMSYN088AAXX  14124 63832 32680 41405 10330 20094 38788 48469 84200 91150 333 55330 59012 84830;EQDQ01  00002PRCP99
0221638320999992000101512004-05070+032820FM-12+1190HTTB V0201201N005110099019N0300001N1+03301+01181999999ADDAA199000091GA1051+009909029GF106991051021999999001011MA1999999087961MD1999999+0081ME1314809OA150601701REMSYN088AAXX  15124 63832 32980 61210 10330 20118 38796 48480 85201 91145 333 55330 58008 85833;EQDQ01  00002PRCP99
0238638320999992000101806004-05070+032820FM-12+1190HTTB V0209999C000010450019N0300001N1+02471+01451999999ADDAA199000091GA1021+006909089GF106991021021008001031021KA1120N+02151MA1999999088361ME1315109OA150600511REMSYN106AAXX  18064 63832 32580 60000 10247 20145 38836 48510 82232 90550 333 20215 5///1 55103 55300 82823 83359;EQDQ01  00002PRCP99
0289638320999992000102006004-05070+032820FM-12+1190HTTB V0209999C00001045001CN0300001N1+01981+01751999999ADDAA124007991AY161061AY291061GA1031+005409069GA2011+006009099GF108991031091004501071999KA1120N+01941MA1999999088411MD1999999+0071ME1315149MW1031OA150601541REMSYN124AAXX  20064 63832 11480 80000 10198 20175 38841 48514 60084 70369 8397/ 90545 333 0//19 20194 55300 58007 83618 81920 88458;
0249638320999992000102012004-05070+032820FM-12+1190HTTB V0202501N005110054019N0300001N1+02001+01751999999ADDAA199000091GA1051+005409089GA2011+006009099GF108991051091004501021999MA1999999088191MD1999999-0031ME1314849OA150601601REMSYN100AAXX  20124 63832 32480 82510 10200 20175 38819 48484 8592/ 91150 333 55310 59003 85818 81920 88458;EQDQ01  00002PRCP99
0238638320999992000102106004-05070+032820FM-12+1190HTTB V0209999C000019999999N0300001N1+02001+01771999999ADDAA199000091GA1021+005409069GF108991021051004501999011KA1120N+01801MA1999999088601ME1315339OA150600001REMSYN106AAXX  21064 63832 32480 80000 10200 20177 38860 48533 825/1 90550 333 20180 5///1 55000 55300 82618 88458;EQDQ01  00002PRCP99
0227638320999992000102112004-05070+032820FM-12+1190HTTB V0200501N00361045001CN0300001N1+02761+01491999999ADDAA199000091GA1011+007509089GF107991041021008001031011MA1999999088201MD1999999+0011ME1315049OA150601541REMSYN094AAXX  21124 63832 32580 70507 10276 20149 38820 48504 84231 91145 333 55305 58001 81825 87359;EQDQ01  00002PRCP99
0268638320999992000102206004-05070+032820FM-12+1190HTTB V0200901N002610450019N0300001N1+02231+01311999999ADDAA199000091GA1041+006009009GF107991041051008001041001KA1120N+01901MA1999999088521MD1999999-0081ME1315249OA150699999REMSYN106AAXX  22064 63832 32580 70905 10223 20131 38852 48524 84540 90548 333 20190 55020 55300 59008 84020 86458;EQDQ01  00002PRCP99Q02  00102WGOSPD
0221638320999992000102312004-05070+032820FM-12+1190HTTB V0201501N002610084019N0300001N1+03221+01141999999ADDAA199000091GA1051+008409029GF105991051021008001001001MA1999999087871MD1999999-0291ME1314699OA150601651REMSYN088AAXX  23124 63832 32580 51505 10322 20114 38787 48469 85200 91150 333 55322 59029 85828;EQDQ01  00002PRCP99
0227638320999992000102412004-05070+032820FM-12+1190HTTB V0201201N00511220001CN0300001N1+03201+01131999999ADDAA199000091GA1041+008409089GF107991041021008001001011MA1999999087891MD1999999+0021ME1314689OA150601651REMSYN094AAXX  24124 63832 32580 71210 10320 20113 38789 48468 84201 91145 333 55320 58002 84828 86078;EQDQ01  00002PRCP99
0252638320999992000102506004-05070+032820FM-12+1190HTTB V0201001N006212200019N0300001N1+02601+01101999999ADDAA199000091GA1011+027009039GF104991011001999999031011KA1120N+02001MA1999999088301MD1999999+0021ME1315139OA150601541REMSYN106AAXX  25064 63832 32980 41012 10260 20110 38830 48513 81031 90550 333 20200 55300 55315 58002 81359 83075;EQDQ01  00002PRCP99
0216638320999992000102706004-05070+032820FM-12+1190HTTB V0200801N003112200019N0300001N1+02501+01301999999ADDAA199000091GF103991001001999999001011KA1120N+02061MA1999999088341ME1315109OA150600511REMSYN100AAXX  27064 63832 32980 30806 10250 20130 38834 48510 80001 90550 333 20206 5///1 55102 55315 83075;EQDQ01  00002PRCP99
0227638320999992000102712004-05070+032820FM-12+1190HTTB V0200801N00671220001CN0300001N1+03351+00701999999ADDAA199000091GA1021+008409089GF106991021021008001001011MA1999999088011MD1999999+0131ME1314909OA150601701REMSYN094AAXX  27124 63832 32580 60813 10335 20070 38801 48490 82201 91145 333 55330 58013 82828 84078;EQDQ01  00002PRCP99
0246638320999992000102806004-05070+032820FM-12+1190HTTB V0200801N007712200019N0300001N1+02501+01181999999ADDAA199000091GF101991001001999999001021KA1120N+02081MA1999999088361MD1999999+0021ME1315129OA150699999REMSYN100AAXX  28064 63832 32980 10815 10250 20118 38836 48512 80002 90525 333 20208 55094 55318 58002 81072;EQDQ01  00002PRCP99Q02  00462WGOSPD
0240638320999992000102906004-05070+032820FM-12+1190HTTB V0200801N006212200019N0300001N1+03551+01141999999ADDAA199000091GA1021+078009019GF102991001001999999001011KA1120N+02141MA1999999088371MD1999999+0011ME1315109OA150601651REMSYN094AAXX  29064 63832 32980 20812 10355 20114 38837 48510 80001 90550 333 20214 55326 58001 82076;EQDQ01  00002PRCP99
0221638320999992000102912004-05070+032820FM-12+1190HTTB V0203601N003112200019N0400001N1+03301+01961999999ADDAA199000091GA1041+009009029GF104991041021012501001041MA1999999087741MD1999999-0241ME1314589OA150601651REMSYN088AAXX  29124 63832 35682 43606 10330 20196 38774 48458 84204 91150 333 55325 59024 84830;EQDQ01  00002PRCP99
0254638320999992000103100004-05070+032820FM-12+1190HTTB V0203001N00411045001CN0300001N1+02161+01841999999ADDAA112000591AC10I9AY181061AY221061GA1041+006909089GF107991041021008001071999MA1999999088221MD1999999+0221ME1314979MW1031OA150601541REMSYN112AAXX  31004 63832 11580 73008 10216 20184 38822 48497 69952 70382 8427/ 92350 333 0//14 55300 58022 84823 86358;
0265638320999992000103106004-05070+032820FM-12+1190HTTB V0209999C000010450019N0300001N1+02001+01771999999ADDAA124093091AC11C9AY161061AY221061GA1021+005409069GF108991021051004501021999KA1120N+01941MA1999999088391ME1315049MW1031OA150600511REMSYN124AAXX  31064 63832 11480 80000 10200 20177 38839 48504 60934 70362 8252/ 90555 333 0//91 20194 5///1 55103 55300 82618 88458;
0276638320999992000103112004-05070+032820FM-12+1190HTTB V0200701N002610057019N0300001N1+02201+01881999999ADDAA106001091AC11C9AY161061AY221061GA1051+005709069GA2011+006309099GF108991051051004501021999MA1999999088111MD1999999+0251ME1314879MW1611OA150601541REMSYN118AAXX  31124 63832 11480 80705 10220 20188 38811 48487 60011 76162 8552/ 91148 333 0//11 55300 58025 85619 81921 88458;
0227638320999992000110212004-05070+032820FM-12+1190HTTB V0203601N003112200019N0300001N1+03011+01521999999ADDAA199000091GA1021+007809089GF103991021091008001061021MA1999999087711MD1999999-0351ME1314569OA150601651REMSYN094AAXX  02124 63832 32580 33606 10301 20152 38771 48456 82962 91150 333 55326 59035 82826 81926;EQDQ01  00002PRCP99
0242638320999992000110300004-05070+032820FM-12+1190HTTB V0202401N00311045001CN0300001N1+02001+01581999999ADDAA106018091GA1031+005109069GA2011+006009099GF108991031091004501071999MA1999999087751MD1999999-0151ME1314449OA150601601REMSYN112AAXX  03004 63832 11480 82406 10200 20158 38775 48444 60181 8397/ 92648 333 0//99 55310 59015 83617 81920 88357;
0265638320999992000110306004-05070+032820FM-12+1190HTTB V0209999C000010450019N0300001N1+01961+01791999999ADDAA124022191AC13I9AY161061AY221061GA1011+005109069GF108991011051004501071999KA1120N+01881MA1999999088161ME1314849MW1031OA150600311REMSYN124AAXX  03064 63832 11480 80000 10196 20179 38816 48484 60224 70362 8157/ 90555 333 0//98 20188 5///1 55062 55300 81617 88359;
0240638320999992000110318004-05070+032820FM-12+1190HTTB V0209999C000012200019N0300001N1+02261+01881999999ADDAA199000091GA1011+010809059GF101991011001999999031021KA1120M+02721MA1999999087891MD1999999+0221ME1314589OA150601541REMSYN094AAXX  03184 63832 32980 10000 10226 20188 38789 48458 81032 91755 333 10272 55300 58022 81636;EQDQ01  00002PRCP99
0282638320999992000110400004-05070+032820FM-12+1190HTTB V0209999C00001045001CN0250001N1+01901+01821999999ADDAA115004191AC11C9AY161061AY221061GA1021+004809069GA2011+005109099GF107991021091004501071999MA1999999088001MD1999999+0251ME1314739MW1031OA150601541REMSYN124AAXX  04004 63832 /1475 70000 10190 20182 38800 48473 60040 70362 8297/ 92350 333 0//11 55300 58025 60040 82616 81917 87358;
0270638320999992000110506004-05070+032820FM-12+1190HTTB V0201801N002610450019N0300001N1+02201+01901999999ADDAA124014091AC12I9GA1021+005409069GF105991021051004501071001KA1120N+01721MA1999999088281MD1999999-0031ME1314979OA150699999REMSYN118AAXX  05064 63832 12480 51805 10220 20190 38828 48497 60144 82570 90545 333 0//96 20172 55049 55301 59003 82618 84458;EQDQ01  00212WGOSPD
0240638320999992000110606004-05070+032820FM-12+1190HTTB V0200901N005112200019N0300001N1+02401+01441999999ADDAA199000091GA1031+078009019GF103991001001999999001011KA1120N+01961MA1999999088101MD1999999-0181ME1314899OA150601651REMSYN094AAXX  06064 63832 32980 30910 10240 20144 38810 48489 80001 90555 333 20196 55320 59018 83076;EQDQ01  00002PRCP99
0227638320999992000110612004-05070+032820FM-12+1190HTTB V0200901N00361105001CN0400001N1+03201+00941999999ADDAA199000091GA1011+007209089GF106991011011008001001021MA1999999087651MD1999999-0211ME1314469OA150601701REMSYN094AAXX  06124 63832 32582 60907 10320 20094 38765 48446 81102 91153 333 55330 59021 81824 86073;EQDQ01  00002PRCP99
0228638320999992000110618004-05070+032820FM-12+1190HTTB V0209999C000012200019N0300001N1+02621+01201999999ADDAA199000091GA1001+999999999GF100991001001999999001001KA1120M+03341MA1999999087711MD1999999-0131ME1314339OA150601541REMSYN082AAXX  06184 63832 32980 00000 10262 20120 38771 48433 91750 333 10334 55300 59013;EQDQ01  00002PRCP99
0221638320999992000110700004-05070+032820FM-12+1190HTTB V0201001N006212200019N0300001N1+02201+01401999999ADDAA199000091GA1031+075009019GF103991001001999999001011MA1999999087841MD1999999-0111ME1314579OA150601541REMSYN088AAXX  07004 63832 32980 31012 10220 20140 38784 48457 80001 92350 333 55300 59011 83075;EQDQ01  00002PRCP99
0240638320999992000110718004-05070+032820FM-12+1190HTTB V0209999C000012200019N0400001N1+02581+01421999999ADDAA199000091GA1011+036009079GF102991011001999999031021KA1120M+03301MA1999999087661MD1999999-0051ME1314429OA150601541REMSYN094AAXX  07184 63832 32982 20000 10258 20142 38766 48442 81032 91746 333 10330 55300 59005 81362;EQDQ01  00002PRCP99
0221638320999992000110800004-05070+032820FM-12+1190HTTB V0209999C000012200019N0400001N1+02101+01221999999ADDAA199000091GA1011+075009019GF101991001001999999001021MA1999999087891MD1999999+0051ME1314559OA150601541REMSYN088AAXX  08004 63832 32982 10000 10210 20122 38789 48455 80002 92358 333 55300 58005 81075;EQDQ01  00002PRCP99
0246638320999992000110818004-05070+032820FM-12+1190HTTB V0209999C000012200019N0300001N1+02601+01291999999ADDAA199000091GA1021+006009089GF104991021021008001041001KA1120M+03171MA1999999087771MD1999999+0111ME1314529OA150601541REMSYN100AAXX  08184 63832 32580 40000 10260 20129 38777 48452 82240 91750 333 10317 55300 58011 82820 83358;EQDQ01  00002PRCP99
0221638320999992000110900004-05070+032820FM-12+1190HTTB V0200901N002612200019N0300001N1+02181+01441999999ADDAA199000091GA1011+005409029GF101991011021004501001001MA1999999087961MD1999999+0071ME1314669OA150601541REMSYN088AAXX  09004 63832 32480 10905 10218 20144 38796 48466 81200 92350 333 55300 58007 81818;EQDQ01  00002PRCP99
0221638320999992000110912004-05070+032820FM-12+1190HTTB V0200501N004112200019N0300001N1+03281+01131999999ADDAA199000091GA1041+009009029GF104991041031012501001001MA1999999087761MD1999999-0051ME1314539OA150601701REMSYN088AAXX  09124 63832 32680 40508 10328 20113 38776 48453 84300 91150 333 55330 59005 84830;EQDQ01  00002PRCP99
0240638320999992000110918004-05070+032820FM-12+1190HTTB V0200901N002112200019N0300001N1+02601+01311999999ADDAA199000091GA1021+008109029GF102991021011008001001001KA1120M+03301MA1999999087661MD1999999-0111ME1314439OA150601541REMSYN094AAXX  09184 63832 32580 20904 10260 20131 38766 48443 82100 91750 333 10330 55300 59011 82827;EQDQ01  00002PRCP99
0162638320999992000111001004-05070+032820FM-15+1190HTTB V0209999C000012200019N0112651N1+02201+01501999999ADDGA1021+006009999GA2021+066009999GF104991999999999999999999MA1101291999999MW1001REMMET052HTTB 100100Z 00800KT 9999 FEW020 SCT220 22/15 Q1013;EQDQ01+000000PRSWM2
0198638320999992000111002004-05070+032820FM-15+1190HTTB V02099999999992200019N0112651N1+02101+00402999999ADDGA1021+006009999GA2021+066009999GF104991999999999999999999MA1102302999999MW1001REMMET056HTTB 100200Z 100-00Z00KT 9999 FEW020 SCT220 21/04 Q1023;EQDQ01+000403ATOD  Q02+102303APOA  Q03+000000PRSWM2
0240638320999992000111006004-05070+032820FM-12+1190HTTB V0200601N003612200019N0300001N1+02541+01411999999ADDAA199000091GA1031+075009019GF103991001001999999001011KA1120N+02001MA1999999088041MD1999999-0081ME1314829OA150601651REMSYN094AAXX  10064 63832 32980 30607 10254 20141 38804 48482 80001 90555 333 20200 55324 59008 83075;EQDQ01  00002PRCP99
0240638320999992000111018004-05070+032820FM-12+1190HTTB V0209999C00001045001CN0300001N1+02901+01301999999ADDAA199000091GA1031+007509069GF106991031051008001031001KA1120M+03241MA1999999087561MD1999999-0101ME1314359OA150601541REMSYN094AAXX  10184 63832 32580 60000 10290 20130 38756 48435 83530 333 10324 55300 59010 83625 85359;EQDQ01  00002PRCP99
0221638320999992000111112004-05070+032820FM-12+1190HTTB V0201001N003612200019N0300001N1+03341+01021999999ADDAA199000091GA1041+009009029GF104991041021012501001021MA1999999087661MD1999999+0011ME1314499OA150601701REMSYN088AAXX  11124 63832 32680 41007 10334 20102 38766 48449 84202 91150 333 55330 58001 84830;EQDQ01  00002PRCP99
0246638320999992000111118004-05070+032820FM-12+1190HTTB V0200501N00671045001CN0300001N1+02901+01101999999ADDAA199000091GA1011+007509089GF107991011021008001071999KA1120M+03401MA1999999087761MD1999999+0201ME1314549OA150601541REMSYN100AAXX  11184 63832 32580 70513 10290 20110 38776 48454 8127/ 91750 333 10340 55300 58020 81825 87360;EQDQ01  00002PRCP99
0268638320999992000111218004-05070+032820FM-12+1190HTTB V0209999C00001045001CN0300001N1+02601+01321999999ADDAA199000091GA1021+006609089GA2011+007509099GF107991021091008001031999KA1120M+03101MA1999999087711MD1999999-0051ME1314529OA150601541REMSYN106AAXX  12184 63832 32580 70000 10260 20132 38771 48452 8293/ 91750 333 10310 55300 59005 82822 81925 87358;EQDQ01  00002PRCP99
0140638320999992000111222004-05070+032820FM-15+1190HTTB V0201601N002612200019N0112651N1+99999+99999999999ADDGA1021+006009999GF104991999999999999999999MW1001REMMET061HTTB 122200Z 16005KT 9999 SCT020 NEW022CB BKN080 26<13 Q1014;EQDQ01+000000PRSWM2
0227638320999992000111300004-05070+032820FM-12+1190HTTB V0202101N002610450019N0300001N1+02401+01431999999ADDAA199000091GA1041+006009089GF106991041091008001031001MA1999999087941MD1999999-0021ME1314699OA150601541REMSYN094AAXX  13004 63832 32580 62105 10240 20143 38794 48469 84930 92350 333 55300 59002 84820 81921;EQDQ01  00002PRCP99
0091638320999992000111301004-05070+032820FM-15+1190HTTB V0201501N002112200019N0112651N1+99999+99999999999ADDMW1001REMMET054HTTB 130100Z 15004KT 9999 ZKN019 FEW#21CB 24/15 Q1014;EQDQ01+000000PRSWM2
0139638320999992000111303004-05070+032820FM-15+1190HTTB V0201801N00211220001CN0112651N1+02201+01701999999ADDGA1071+005709999GA2021+006009099MW1001REMMET054HTTB 130300Z 18004KT 9999 BKN019 FEW020CB 22/17 Q1,14;EQDQ01+000022SCOTCVQ02+000000PRSWM2
0153638320999992000111304004-05070+032820FM-15+1190HTTB V0202701N002612200019N0112651N1+02101+01701999999ADDGA1021+005709999GF104991999999999999999999KA1999M+99999MW1001REMMET045HTTB 130400Z 27005KT 9999 SCT019 21/17 11014;EQDQ01+000000PRSWM2Q02 -00142ATMX  
0139638320999992000111305004-05070+032820FM-15+1190HTTB V0203201N002612200019N0112651N1+02301+01701999999ADDGA1021+006009999GF102991999999999999999999MA1101391999999MW1001REMMET045HTTB 130500Z 32005KT 9999 FEW020 23/17 Q1014;EQDQ01+000000PRSWM2
0139638320999992000111306004-05070+032820FM-15+1190HTTB V0202701N003112200019N0112651N1+02501+01701999999ADDGA1021+006609999GF104991999999999999999999MA1101591999999MW1001REMMET045HTTB 130600Z 27006KT 9999 SCT022 25/17 Q1016;EQDQ01+000000PRSWM2
0124638320999992000111307004-05070+032820FM-15+1190HTTB V0202901N002612200019N0112651N1+99999+99999999999ADDGA1021+006609999GF104991999999999999999999MW1001REMMET045HTTB 130700Z 29005KT 9999 SCT022 26616 Q1016;EQDQ01+000000PRSWM2
0096638320999992000111308004-05070+032820FM-15+1190HTTB V0203301N003112200019N0990001N1+02801+01501999999ADDMA1101591999999MW1001REMMET044HTTB 130800Z 33006KT 99VLSCT025 28/15 Q1016;EQDQ01+000000PRSWM2
0312638320999992000111318004-05070+032820FM-12+1190HTTB V0200501N003610066019N0300001N1+02411+01711999999ADDAA199000091AY111061AY201061GA1051+006609089GA2011+007509099GF107991051091008001071999KA1120M+03301MA1999999087791MD1999999+0081ME1314509MW1031OA150601541REMSYN112AAXX  13184 63832 31580 70507 10241 20171 38779 48450 70317 8597/ 91750 333 10330 55300 58008 85822 81925 87359;EQDQ01+000072PSTWM2Q02  00002PRCP99
0162638320999992000111407004-05070+032820FM-15+1190HTTB V0201201N005110270019N0112651N1+02401+01801999999ADDGA1021+006609999GA2071+027009999GF107991999999999999999999MA1101591999999MW1001REMMET052HTTB 140700Z 12010KT 9999 SCT022 BKN090 24/18 Q1016;EQDQ01+000000PRSWM2
0162638320999992000111408004-05070+032820FM-15+1190HTTB V0201201N003110270019N0112651N1+02601+01701999999ADDGA1021+006909999GA2071+027009999GF107991999999999999999999MA1101491999999MW1001REMMET052HTTB 140800Z 12006KT 9999 SCT023 BKN090 26/17 Q1015;EQDQ01+000000PRSWM2
0139638320999992000111409004-05070+032820FM-15+1190HTTB V0200501N005112200019N0112651N1+02801+01701999999ADDGA1021+007509999GF104991999999999999999999MA1101491999999MW1001REMMET045HTTB 140900Z 05010KT 9999 SCT025 28/17 Q1015;EQDQ01+000000PRSWM2
0296638320999992000111418004-05070+032820FM-12+1190HTTB V0209999C00001045001CN0300001N1+02431+01781999999ADDAA199000091AY191061AY221061GA1021+006609069GA2011+007509099GF106991021091008001031001KA1120M+03281MA1999999087711MD1999999-0081ME1314499MW1171OA150601541REMSYN112AAXX  14184 63832 31580 60000 10243 20178 38771 48449 71792 82930 91750 333 10328 55300 59008 82622 81925 85359;EQDQ01  00002PRCP99
0254638320999992000111500004-05070+032820FM-12+1190HTTB V0201201N00211045001CN0300001N1+02201+01901999999ADDAA106000591AC13C9AY161061AY221061GA1021+006609069GF107991021051008001031001MA1999999087901MD1999999-0021ME1314679MW1021OA150601541REMSYN112AAXX  15004 63832 11580 71204 10220 20190 38790 48467 69961 70262 82530 92350 333 0//13 55300 59002 82622 87358;
0227638320999992000111503004-05070+032820FM-12+1190HTTB V0209999C00001105001CN0300001N1+02101+01781999999ADDAA199000091GA1011+006009069GF105991011051008001031011MA1999999087981MD1999999-0031ME1314669OA150301541REMSYN094AAXX  15034 63832 32580 50000 10210 20178 38798 48466 81531 90245 333 55300 59003 81620 84358;EQDQ01  00002PRCP99
0231638320999992000111506004-05070+032820FM-12+1190HTTB V0200801N00361045001CN0400001N1+02551+01731999999ADDAA124000591AC13I9GA1011+005409089GF106991011011004501041021KA1120N+02131MA1999999088041ME1314829OA150600361REMSYN112AAXX  15064 63832 12482 60807 10255 20173 38804 48482 69964 81142 90552 333 0//18 20213 55075 55318 81818 86072;
0221638320999992000111509004-05070+032820FM-12+1190HTTB V0200901N003610078019N0400001N1+02961+01621999999ADDAA199000091GA1051+007809029GF105991051021008001001001MA1999999088001MD1999999+0001ME1314769OA150301651REMSYN088AAXX  15094 63832 32582 50907 10296 20162 38800 48476 85200 90855 333 55329 58000 85826;EQDQ01  00002PRCP99
0247638320999992000111521004-05070+032820FM-12+1190HTTB V0209999C00001045001CN0200001N1+02071+01891999999ADDAY191031AY261031GA1011+004809069GA2011+005109099GF107991011091004501071999MA1999999087981MD1999999+0171ME1314659MW1211OA150301541REMSYN106AAXX  15214 63832 21470 70000 10207 20189 38798 48465 72196 8197/ 92047 333 55300 58017 81616 81917 87457;
0276638320999992000111600004-05070+032820FM-12+1190HTTB V0209999C00001045001CN0200001N1+02051+01921999999ADDAA106002091AC11I9AY191061AY261061GA1011+004809069GA2011+005109099GF107991021091004501071999MA1999999087921MD1999999+0021ME1314659MW1021OA150601541REMSYN118AAXX  16004 63832 11470 70000 10205 20192 38792 48465 60021 70296 8297/ 92347 333 0//15 55300 58002 81616 81917 87357;
0289638320999992000111618004-05070+032820FM-12+1190HTTB V0200401N00261045001CN0300001N1+02001+01811999999ADDAA115004191AY191061AY261061GA1031+004809069GA2011+005409099GF108991031091004501021999KA1120M+02511MA1999999088181MD1999999+0391ME1314849MW1211OA150601541REMSYN124AAXX  16184 63832 /1480 80405 10200 20181 38818 48484 60092 72196 8392/ 91751 333 10251 55300 58039 60040 83616 81918 88458;
0230638320999992000111700004-05070+032820FM-12+1190HTTB V0201401N00151005101CN0250001N1+01871+01771999999ADDAA199000021GA1041+004509069GA2011+005109099GF108991041091004501021999MA1999999088121MD1999999+0201ME1314839OA150601541REMSYN100AAXX  17004 63832 32475 81403 10187 20177 38812 48483 8492/ 92350 333 55300 58020 84615 81917 88458;
0230638320999992000111703004-05070+032820FM-12+1190HTTB V0201701N00261004801CN0250001N1+01831+01791999999ADDAA199000021GA1041+004209069GA2011+004809099GF108991041091004501021999MA1999999088121MD1999999+0201ME1314839OA150301541REMSYN100AAXX  17034 63832 32475 81705 10183 20179 38812 48483 8492/ 90250 333 55300 58020 84614 81916 88457;
0295638320999992000111718004-05070+032820FM-12+1190HTTB V0209999C00001045001CN0250001N1+02001+01841999999ADDAA112005191AC11C9AY161061AY261061GA1031+004809069GA2011+005409099GF106991031091004501071001KA1120M+02701MA1999999088161MD1999999-0021ME1314859MW1211OA150601541REMSYN124AAXX  17184 63832 11475 60000 10200 20184 38816 48485 60052 72166 83970 91745 333 0//11 10270 55300 59002 83616 81918 85358;
0230638320999992000111721004-05070+032820FM-12+1190HTTB V0209999C000012200019N0300001N1+01901+01871999999ADDAA199000021GA1021+004809069GA2011+005409099GF104991021091004501031001MA1999999088181MD1999999-0061ME1314849OA150301541REMSYN100AAXX  17214 63832 32480 40000 10190 20187 38818 48484 82930 92050 333 55300 59006 82616 81918 84358;
