0241638660999992000010100004-06830+037650SY-MT+0526HTMG V0200901N002119999999N0300001N1+02391+02151999999ADDAA106000091GF106991999999008001999999MA1999999094871MD1999999-0211MW1001REMSYN082AAXX  01004 63866 32580 60904 10239 20215 39487 48/// 92355 333 553// 59021 86620;MET050HTMG 0000Z QPPPPZ 09004KT 9999 BKN020 24/22 Q1010;EQDQ01  00002PRCP06
0120638660999992000010101004-06830+037650FM-15+0526HTMG V0200501N001510057019N0112651N1+02401+02201999999ADDGA1071+005709999GF107991999999999999999999MA1101021999999MW1001REMMET045HTMG 010100Z 05003KT 9999 BKN019 24/22 Q1010;
0067638660999992000010102004-06830+037650FM-15+0526HTMG V02099999999992200019N0112651N1+99999+99999999999ADDMW1001REMMET049HTMG 0200Z 01020Z 06004KT 9999 SCT018 23/2+QPQPV;
0207638660999992000010103004-06830+037650FM-12+0526HTMG V0200501N002612200019N0300001N1+02301+02051999999ADDAA106000091GA1031+004809069GF104991031091004501031031MA1999999094991MD1999999-0141REMSYN094AAXX  01034 63866 32480 40505 10230 20205 39499 48/// 83933 90250 333 553// 59014 83616 8198/;EQDQ01  00002PRCP06
0196638660999992000010106004-06830+037650FM-12+0526HTMG V0203601N001510042019N0300001N1+02621+02151999999ADDAA106000091GF105991051051004501001001KA1120N+02271MA1999999095131REMSYN100AAXX  01064 63866 32480 53603 10262 20215 39513 48/// 85500 90550 333 20227 50801 55/// 553// 85617;EQDQ01  00002PRCP06
0235638660999992000010112004-06830+037650FM-12+0526HTMG V0201201N002112200019N0300001N1+03261+02191999999ADDAA106000091AY121061AY221061GA1021+007509089GF102991999091008001001001MA1999999094711MD1999999-0321MW1171REMSYN100AAXX  01124 63866 31580 21204 10326 20219 39471 48/// 71722 83900 91150 333 553// 59032 82825 81926;EQDQ01  00002PRCP06
0201638660999992000010200004-06830+037650FM-12+0526HTMG V0200201N005110036019N0300001N1+02351+02201999999ADDAA106000091GA1081+003609059GF108991081051004501999999MA1999999094971MD1999999+0101REMSYN088AAXX  02004 63866 32480 80210 10235 20220 39497 48/// 885// 92350 333 553// 58010 88612;EQDQ01  00002PRCP06
0204638660999992000010203004-06830+037650FM-12+0526HTMG V0200501N002610036019N0300001N1+02301+99999999999ADDAA115000591AY121031AY221031GA1071+003609059GF107991071051004501999999MA1999999094991MD1999999+0001MW1251REMSYN088AAXX  02034 63866 21480 70505 10230 202// 39499 48/// 72522 875// 333 58000 69960 87612;
0201638660999992000010212004-06830+037650FM-12+0526HTMG V0200601N002112200019N0300001N1+03251+01921999999ADDAA106000091GA1031+007509029GF103991031021008001001001MA1999999094741MD1999999+0031REMSYN088AAXX  02124 63866 32580 30604 10325 20192 39474 48/// 83200 91150 333 553// 58003 83825;EQDQ01  00002PRCP06
0220638660999992000010218004-06830+037650FM-12+0526HTMG V0200601N004612200019N0300001N1+02541+02171999999ADDAA106000091GA1021+006609059GF102991021051008001001001KA1120M+03321MA1999999094881MD1999999+0061REMSYN094AAXX  02184 63866 32580 20609 10254 20217 39488 48/// 82500 91750 333 10332 553// 58006 82622;EQDQ01  00002PRCP06
0172638660999992000010300004-06830+037650FM-12+0526HTMG V0200501N002110042019N0300001N1+02251+02191999999ADDAA115000191GF107991071051004501999001MA1999999094901MD1999999-0051REMSYN094AAXX  03004 63866 22480 70504 10225 20219 3949/ 48/// 875/0 90250 333 553// 59005 69920 8760/;
0217638660999992000010306004-06830+037650FM-12+0526HTMG V0202401N003112200019N0300001N1+02551+02081999999ADDAA124000191AC11I9GA1041+005109069GF104991041091004501001001KA1120N+02241MA1999999095101REMSYN118AAXX  03064 63866 12480 42406 10255 20208 39510 48/// 69924 84900 90550 333 0//15 20224 50721 55/// 553// 84617 81918;
0201638660999992000010312004-06830+037650FM-12+0526HTMG V0200501N001512200019N0300001N1+03251+02001999999ADDAA106000091GA1031+007809029GF103991031021008001001001MA1999999094661MD1999999-0081REMSYN088AAXX  03124 63866 32580 30503 10325 20200 39466 48/// 83200 91150 333 553// 59008 83826;EQDQ01  00002PRCP06
0237638660999992000010318004-06830+037650FM-12+0526HTMG V0200601N005110450019N0300001N1+02521+02121999999ADDAA106000091GA1031+007209089GF105991041091008001031999KA1120M+03301MA1999999094861MD1999999-0021OA150601541REMSYN100AAXX  03184 63866 32580 50610 10252 20212 39486 48/// 8493/ 91755 333 10330 55300 59002 83824 81927;EQDQ01  00002PRCP06
0217638660999992000010400004-06830+037650FM-12+0526HTMG V0200501N00211009001CN0300001N1+02231+02101999999ADDAA106000891AC10I9GA1041+004509069GF106991051081004501021999MA1999999094881MD1999999+0061OA150601541REMSYN106AAXX  04004 63866 12480 60504 10223 20210 39488 48/// 69971 8582/ 92353 333 0//14 55300 58006 84615 82818;
0054638660999992000010404004-06830+037650FM-15+0526HTMG V02099999999992200019N0112651N1+99999+99999999999ADDMW1001REMMET017HTMG 0400Z 04040;EQDQ01+000000PRSWM2
0201638660999992000010412004-06830+037650FM-12+0526HTMG V0200501N004112200019N0300001N1+03251+01911999999ADDAA106000091GA1041+007209029GF104991041021008001001011MA1999999094751MD1999999+0091REMSYN088AAXX  04124 63866 32580 40508 10325 20191 39475 48/// 84201 91150 333 553// 58009 84824;EQDQ01  00002PRCP06
0228638660999992000010500004-06830+037650FM-12+0526HTMG V0200601N004112200019N0300001N1+02341+02041999999ADDAA106000091GA1051+005109059GF199999031051004501001001MA1999999094951MD1999999+0071OA150601541REMSYN088AAXX  05004 63866 32480 30608 10234 20204 39495 48/// 83500 92355 333 55300 58007 85617;EQDQ01+000032SCOTCVQ02  00002PRCP06
0196638660999992000010503004-06830+037650FM-12+0526HTMG V0200501N003110042019N0300001N1+02241+02091999999ADDAA106000091GF105991051051004501001001MA1999999094581MD1999999+0071OA150301541REMSYN088AAXX  05034 63866 32480 50506 10224 20209 39458 48/// 85500 85250 333 55300 58007 85617;EQDQ01  00002PRCP06
0218638660999992000010506004-06830+037650FM-12+0526HTMG V0200201N005112200019N0300001N1+02601+02021999999ADDAA106000091GA1031+005109069GF106991031051004501001011KA1120N+02281MA1999999095141REMSYN106AAXX  05064 63866 32480 60210 10260 20202 39514 48/// 83501 90550 333 20228 50951 55/// 553// 83617 85072;EQDQ01  00002PRCP06
0201638660999992000010512004-06830+037650FM-12+0526HTMG V0200401N004612200019N0300001N1+03021+01891999999ADDAA106000091GA1041+007509029GF104991041021008001001011MA1999999094891MD1999999+0261REMSYN088AAXX  05124 63866 32580 40409 10302 20189 39489 48/// 84201 91150 333 553// 58026 84825;EQDQ01  00002PRCP06
0207638660999992000010600004-06830+037650FM-12+0526HTMG V0200201N003610045019N0300001N1+02221+02071999999ADDAA106000091GA1051+004509069GF107991051051004501051999MA1999999095041MD1999999+0091REMSYN094AAXX  06004 63866 32480 70207 10222 20207 39504 48/// 8555/ 92350 333 553// 58009 85615 86358;EQDQ01  00002PRCP06
0193638660999992000010603004-06830+037650FM-12+0526HTMG V0200501N00511045001CN0300001N1+02251+02101999999ADDAA106000091GA1031+004509069GF106991031051004501031001MA1999999095051REMSYN094AAXX  06034 63866 32480 60510 10225 20210 39505 48/// 83530 90250 333 553// 588/8 83615 85358;EQDQ01  00002PRCP06
0210638660999992000010606004-06830+037650FM-12+0526HTMG V0200401N004112200019N0300001N1+02571+02031999999ADDAA106000091GF104991041051008001001001KA1120N+02251MA1999999095171MD1999999+0041REMSYN100AAXX  06064 63866 32580 40408 10257 20203 39517 48/// 84500 90550 333 20225 50701 55/// 58004 84620;EQDQ01  00002PRCP06
0212638660999992000010612004-06830+037650FM-12+0526HTMG V0200501N003112200019N0300001N1+03241+01721999999ADDAA106000091GA1031+007209029GF103991031021008001001001MA1999999094821MD1999999-0071OA150601601REMSYN088AAXX  06124 63866 32580 30506 10324 20172 39482 48/// 83200 91150 333 55310 59007 83824;EQDQ01  00002PRCP06
0231638660999992000010618004-06830+037650FM-12+0526HTMG V0200501N006212200019N0300001N1+02621+02061999999ADDAA106000091GA1011+006909059GF101991011051008001001001KA1120M+03311MA1999999094981MD1999999-0031OA150601541REMSYN094AAXX  06184 63866 32580 10512 10262 20206 39498 48/// 81500 91750 333 10331 55300 59003 81623;EQDQ01  00002PRCP06
0228638660999992000010621004-06830+037650FM-12+0526HTMG V0200801N007212200019N0300001N1+02411+02131999999ADDAA106000091GA1001+999999999GF100991001001999999001001MA1999999999999MD1999999-0091OA150301541REMSYN088AAXX  06214 63866 32980 00814 10241 20213 35498 48/// 92050 333 55300 55300 59009 83820;EQDQ01  00002PRCP06Q02 054983APOSP 
0200638660999992000010700004-06830+037650FM-12+0526HTMG V0200701N004612200019N0300001N1+02321+02161999999ADDAA106000091GA1001+999999999GF100991001001999999001001MA1999999094751MD1999999-0311OA150601541REMSYN076AAXX  07004 63866 32980 00709 10232 20216 39475 48/// 92350 333 55300 59031;EQDQ01  00002PRCP06
0223638660999992000010706004-06830+037650FM-12+0526HTMG V0200401N004610042019N0300001N1+02581+02061999999ADDAA106000091GF105991051051004501001001KA1120N+02231MA1999999095041OA150699999REMSYN100AAXX  07064 63866 32480 50409 10258 20206 39504 48/// 85500 90550 333 20223 50801 55076 55310 85617;EQDQ01  00002PRCP06Q02  00362WGOSPD
0212638660999992000010712004-06830+037650FM-12+0526HTMG V0200501N003112200019N0300001N1+03281+01951999999ADDAA106000091GA1021+007509029GF102991021021008001001001MA1999999094601MD1999999-0201OA150601601REMSYN088AAXX  07124 63866 32580 20506 10328 20195 39460 48/// 82200 91150 333 55310 59020 82825;EQDQ01  00002PRCP06
0212638660999992000010718004-06830+037650FM-12+0526HTMG V0200501N004612200019N0300001N1+02571+02071999999ADDAA106000091GA1011+006909059GF101991011051008001001001MA1999999094751MD1999999-0231OA150601541REMSYN088AAXX  07184 63866 32580 10509 10257 20207 39475 48/// 81500 91755 333 55300 59023 81623;EQDQ01  00002PRCP06
0212638660999992000010800004-06830+037650FM-12+0526HTMG V0200601N002612200019N0300001N1+02351+02131999999ADDAA106000091GA1031+004509059GF103991031051004501001001MA1999999094791MD1999999+0041OA150601541REMSYN088AAXX  08004 63866 32480 30605 10235 20213 39479 48/// 83500 92355 333 55300 58004 83615;EQDQ01  00002PRCP06
0139638660999992000010804004-06830+037650FM-15+0526HTMG V0200601N002612200019N0112651N1+02301+02101999999ADDGA1021+004509999GF104991999999999999999999MA1101081999999MW1001REMMET045HTMG 080400Z 06005KT 9999 SCT015 23/21 Q1011;EQDQ01+000000PRSWM2
0201638660999992000010806004-06830+037650FM-12+0526HTMG V0200501N004112200019N0300001N1+02551+02091999999ADDAA106000091GF102991999999008001999999KA1120N+02221MA1999999094971OA150600511REMSYN094AAXX  08064 63866 32580 20508 10255 20209 39497 48/// 90550 333 20222 50851 55103 55310 82820;EQDQ01  00002PRCP06
0228638660999992000010812004-06830+037650FM-12+0526HTMG V0200701N004112200019N0300001N1+03211+01791999999ADDAA106000091GA1051+007509029GF199999051021008001001001MA1999999094971MD1999999-0031OA150601601REMSYN088AAXX  08124 63866 32580 30708 10321 20179 39497 48/// 85200 91150 333 55310 59003 85825;EQDQ01+000032SCOTCVQ02  00002PRCP06
0217638660999992000011200004-06830+037650FM-12+0526HTMG V0200601N001010045019N0300001N1+02201+02151999999ADDAA106030091AC13C9GA1051+004509069GF108991051051004501021999MA1999999094951MD1999999+0041OA150601541REMSYN106AAXX  12004 63866 12480 80602 10220 20215 39495 48/// 60301 8552/ 92355 333 0//63 55300 58004 85615 87458;
0220638660999992000011203004-06830+037650FM-12+0526HTMG V0200501N004110033019N0300001N1+02241+02061999999ADDAA106000091GA1091+003309009GA2061+003609069GF108991999999004501999001MA1999999094911OA150301541REMSYN094AAXX  12034 63866 32480 80508 10224 20206 39491 48/// 8///0 90255 333 55300 89011 86612 88458;EQDQ01  00002PRCP06
0222638660999992000011206004-06830+037650FM-12+0526HTMG V0200501N001510450019N0300001N1+02451+02051999999ADDAA124039991GA1031+004809069GF107991031051004501021999KA1120N+02101MA1999999095051OA150600311REMSYN118AAXX  12064 63866 12480 70503 10245 20205 39505 48/// 60404 8352/ 90550 333 0//69 20210 50541 55062 55308 83616 86458;
0218638660999992000011212004-06830+037650FM-12+0526HTMG V0200701N00211220001CN0300001N1+03001+02091999999ADDAA106000091GA1011+008409089GF107991011021008001001011MA1999999094701MD1999999+0021OA150601601REMSYN094AAXX  12124 63866 32580 70704 10300 20209 39470 48/// 81201 91150 333 55310 58002 81828 87074;EQDQ01  00002PRCP06
0147638660999992000011220004-06830+037650FM-16+0526HTMG V0200601N001012200019N0112651N1+99999+99999999999ADDGA1021+007509999GA2021+072009999GF104991999999999999999999MW1001REMMET052HTMG 122000Z 06002KT 9999 SCT025 SCT240 ) /2# Q1010;EQDQ01+000000PRSWM2
0139638660999992000011221004-06830+037650FM-15+0526HTMG V0209999C000010075019N0112651N1+02401+02001999999ADDGA1071+007509999GF107991999999999999999999MA1101021999999MW1001REMMET045HTMG 122100Z 00000KT 9999 BKN025 24/20 Q1010;EQDQ01+000000PRSWM2
0155638660999992000011222004-06830+037650FM-15+0526HTMG V0203601N999990075019N0112651N1+02401+02001999999ADDGA1071+007509999GF107991999999999999999999MA1101021999999MW1001REMMET045HTMG 122200Z 00080KT 9999 BKN025 24/20 Q1010;EQDQ01+004123WOSPD Q02+000000PRSWM2
0125638660999992000011223004-06830+037650FM-15+0526HTMG V0209999C000010072019N0112651N1+02401+02101999999ADDGA1071+007209999GF107991999999999999999999MW1001REMMET046HTMG 122300Z 00000KZVMMMO BKN024 24/21 611010;EQDQ01+000000PRSWM2
0212638660999992000011300004-06830+037650FM-12+0526HTMG V0200501N002110069019N0300001N1+02371+02071999999ADDAA106000091GA1051+006909059GF105991051051008001001001MA1999999094901MD1999999-0051OA150601541REMSYN088AAXX  13004 63866 32580 50504 10237 20207 39490 48/// 85500 92355 333 55300 59005 85623;EQDQ01  00002PRCP06
0162638660999992000011302004-06830+037650FM-15+0526HTMG V0200601N002610240019N0112651N1+02301+02101999999ADDGA1021+006609999GA2071+024009999GF107991999999999999999999MA1101021999999MW1001REMMET052HTMG 130200Z 06005KT 9999 SCT022 BKN080 23/21 Q1010;EQDQ01+000000PRSWM2
0198638660999992000011303004-06830+037650FM-12+0526HTMG V0200501N003119999999N0300001N1+02301+02081999999ADDAA106000091GA1031+006609069GF107991031051008001999999MA1999999094931OA150301541REMSYN088AAXX  13034 63866 32580 70506 10230 20208 39493 835// 90250 333 55300 5801/ 83622 86458;EQDQ01  00002PRCP06
0223638660999992000011306004-06830+037650FM-12+0526HTMG V0203601N00311045001CN0300001N1+02431+02091999999ADDAA106000091GA1031+005109069GF108991031051004501011071KA1120N+02271MA1999999095151OA150600411REMSYN100AAXX  13064 63866 32480 83606 10243 20209 39515 48/// 83517 90550 333 20227 55087 55302 83617 88272;EQDQ01  00002PRCP06
0218638660999992000011312004-06830+037650FM-12+0526HTMG V0200401N00211105001CN0300001N1+02821+01981999999ADDAA106000091GA1031+007209069GF106991031051008001001071MA1999999094781MD1999999+0091OA150601541REMSYN094AAXX  13124 63866 32580 60404 10282 20198 39478 48/// 83507 91150 333 55300 58009 83624 86275;EQDQ01  00002PRCP06
0162638660999992000011323004-06830+037650FM-15+0526HTMG V0200601N002612200019N0112651N1+02301+02101999999ADDGA1021+006609999GA2021+024009999GF104991999999999999999999MA1101021999999MW1001REMMET052HTMG 132300Z 06005KT 9999 SCT022 SCT080 23/21 Q1010;EQDQ01+000000PRSWM2
0216638660999992000011400004-06830+037650FM-12+052699999V0209999C00001220001MN0300001N1+02281+01931999999ADDAA199000091GA1041+004209059GF104991041051004501001001MA1999999094941MD1999999+0041OA150601541REMSYN092    AAXX  14004 63866 32480 40000 10228 20193 39494 48/// 84500 92350 333 55300 58004 84614;EQDQ01  00002PRCP99
0249638660999992000011406004-06830+037650FM-12+052699999V0200601N00361220001MN0300001N1+02401+02111999999ADDAA199000091GA1021+004209069GF102991021051004501021999KA1120N+02041MA1999999095101OA150699999REMSYN110    AAXX  14064 63866 32480 20607 10240 20211 39510 48/// 8252/ 90555 333 20204 5///1 55050 55307 82614 86458;EQDQ01  00002PRCP99Q02  00262WGOSPD
0222638660999992000011412004-06830+037650FM-12+052699999V0200501N00101105001CN0300001N1+02951+01951999999ADDAA199000091GA1011+007509089GF105991011011008001001021MA1999999094781MD1999999+0001OA150601601REMSYN098    AAXX  14124 63866 32580 50502 10295 20195 39478 48/// 81102 91150 333 55310 58000 81825 84074;EQDQ01  00002PRCP99
0217638660999992000011418004-06830+037650FM-12+052699999V0200501N00511220001MN0300001N1+02461+02021999999ADDAA199000091GA1001+999999999GF100991001001999999001001KA1120M+03051MA1999999094901MD1999999+0091OA150601541REMSYN080    AAXX  14184 63866 32980 00510 10246 20202 39490 91750 333 10305 55300 58009;EQDQ01  00002PRCP99
0216638660999992000011503004-06830+037650FM-12+052699999V0209999C00001220001MN0300001N1+02041+01961999999ADDAA199000091GA1011+005409059GF101991011051004501001001MA1999999095121MD1999999+0131OA150301541REMSYN092    AAXX  15034 63866 32480 10000 10204 20196 39512 48/// 81500 90250 333 55300 58013 81618;EQDQ01  00002PRCP99
0139638660999992000011504004-06830+037650FM-15+0526HTMG V0203601N000512200019N0112651N1+02001+02001999999ADDGA1021+005409999GF102991999999999999999999MA1101291999999MW1001REMMET045HTMG 150400Z 00001KT 9999 FEW018 20/20 Q1013;EQDQ01+000000PRSWM2
0233638660999992000011506004-06830+037650FM-12+052699999V0209999C00001220001MN0300001N1+02371+02091999999ADDAA199000091GA1021+005409069GF102991021091004501001001KA1120N+02001MA1999999095321OA150600411REMSYN110    AAXX  15064 63866 32480 20000 10237 20209 39532 48/// 82900 90550 333 20200 50551 55086 55306 82618 81920;EQDQ01  00002PRCP99
0216638660999992000011512004-06830+037650FM-12+052699999V0200501N00411220001MN0300001N1+03101+01771999999ADDAA199000091GA1021+007509029GF102991021011008001001001MA1999999094941MD1999999+0161OA150601601REMSYN092    AAXX  15124 63866 32580 20508 10310 20177 39494 48/// 82100 91150 333 55310 58016 82825;EQDQ01  00002PRCP99
0207638660999992000011518004-06830+037650FM-12+052699999V0200501N00361220001MN0300001N1+02451+01921999999ADDAA199000091GF101991999999999999999999KA1120M+03151MA1999999095001MD1999999+0101OA150601541REMSYN086    AAXX  15184 63866 32980 10507 10245 20192 39500 48/// 91755 333 10315 55300 58010;EQDQ01  00002PRCP99
0216638660999992000011600004-06830+037650FM-12+052699999V0200601N00101220001MN0300001N1+02241+02061999999ADDAA199000091GA1031+006009059GF103991031061008001001001MA1999999095031MD1999999+0091OA150601541REMSYN092    AAXX  16004 63866 32580 30602 10224 20206 39503 48/// 83600 92353 333 55300 58009 83620;EQDQ01  00002PRCP99
0216638660999992000011612004-06830+037650FM-12+052699999V0200501N00411220001MN0300001N1+03051+01701999999ADDAA199000091GA1011+007809029GF101991011021008001001001MA1999999094851MD1999999-0091OA150601601REMSYN092    AAXX  16124 63866 32580 10508 10305 20170 39485 48/// 81200 91150 333 55310 59009 81826;EQDQ01  00002PRCP99
0223638660999992000011618004-06830+037650FM-12+052699999V0200501N00511220001MN0300001N1+02551+01991999999ADDAA199000091GA1001+999999999GF100991001001999999001001KA1120M+03301MA1999999094941MD1999999-0061OA150601541REMSYN086    AAXX  16184 63866 32980 00510 10255 20199 39494 48/// 91750 333 10330 55300 59006;EQDQ01  00002PRCP99
0135638660999992000011703004-06830+037650FM-12+052699999V0200501N00511999999MN0300001N1+02251+02171999999ADDAA199000091GF105991999999004501999999MA1999999095071REMSYN052    AAXX  17034 63866 32480 50510 10225 20217 39507;EQDQ01  00002PRCP99
0211638660999992000011706004-06830+037650FM-12+052699999V0200201N00261004201MN0300001N1+02471+02021999999ADDAA199000091GF105991051051004501001001KA1120N+02021MA1999999095151OA150600511REMSYN104    AAXX  17064 63866 32480 50205 10247 20202 39515 48/// 85500 90550 333 20202 50751 55106 55032 85617;EQDQ01  00002PRCP99
0216638660999992000011712004-06830+037650FM-12+052699999V0200601N00461220001MN0300001N1+03231+01591999999ADDAA199000091GA1011+008109029GF101991011021008001001011MA1999999094751MD1999999-0111OA150601601REMSYN092    AAXX  17124 63866 32580 10609 10323 20159 39475 48/// 81201 91150 333 55310 59011 81827;EQDQ01  00002PRCP99
0235638660999992000011718004-06830+037650FM-12+052699999V0200601N00461220001MN0300001N1+02621+01871999999ADDAA199000091GA1021+007209029GF102991021021008001001001KA1120M+03301MA1999999094791MD1999999-0151OA150601541REMSYN098    AAXX  17184 63866 32580 20609 10262 20187 39479 48/// 82200 91750 333 10330 55300 59015 82824;EQDQ01  00002PRCP99
0076638660999992000011721004-06830+037650FM-15+0526HTMG V0200801N00101220001CN0099001N1+02301+02001999999ADDMW1001REMMET039HTMG 172100Z 08002KT CAVOK 23/20 Q1#17;EQDQ01+000000PRSWM2
0090638660999992000011722004-06830+037650FM-16+0526HTMG V0209999C00001220001CN0099001N1+99999+99999999999ADDMA1101081999999MW1001REMMET038HTMG 172200Z 00000KT CAVOK 2/20 Q1011;EQDQ01+000000PRSWM2
0139638660999992000011723004-06830+037650FM-15+0526HTMG V0209999C000012200019N0112651N1+02201+01901999999ADDGA1021+006309999GF102991999999999999999999MA1101081999999MW1001REMMET045HTMG 172300Z 00000KT 9999 FEW021 22/19 Q1011;EQDQ01+000000PRSWM2
0232638660999992000011800004-06830+037650FM-12+052699999V0209999C00001220001MN0300001N1+02141+01911999999ADDAA199000091GA1031+006009059GF199999031051008001001001MA1999999094961MD1999999-0011OA150601541REMSYN092    AAXX  18004 63866 32580 20000 10214 20191 39496 48/// 83500 92350 333 55300 59001 83620;EQDQ01+000022SCOTCVQ02  00002PRCP99
0122638660999992000011801004-06830+037650FM-15+0526HTMG V0209999C000012200019N0112651N1+02101+01901999999ADDGA1021+006009999GF104991999999999999999999MW1001REMMET043HTMG 180100Z 00000KT 9999 SCT020 21/19 Q10;EQDQ01+000000PRSWM2
0123638660999992000011802004-06830+037650FM-15+0526HTMG V0209999C000010060019N0112651N1+02101+01901999999ADDGA1071+006009999GF107991999999999999999999MW1001REMMET044HTMG 180200Z 00000KT 9999 BKN020 21/19 Q10V;EQDQ01+000000PRSWM2
0211638660999992000011806004-06830+037650FM-12+052699999V0200501N00411220001MN0300001N1+02531+01821999999ADDAA199000091GF103991031021008001001001KA1120N+01981MA1999999095231OA150601601REMSYN104    AAXX  18064 63866 32580 30508 10253 20182 39523 48/// 83200 90550 333 20198 55310 50751 55102 83822;EQDQ01  00002PRCP99
0233638660999992000011906004-06830+037650FM-12+052699999V0202401N00311045001MN0300001N1+02501+01801999999ADDAA199000091GA1031+005409069GF106991031051004501031999KA1120N+01821MA1999999095501OA150600511REMSYN110    AAXX  19064 63866 32480 62406 10250 20180 39550 48/// 8353/ 90550 333 20182 50751 55107 55308 83618 85358;EQDQ01  00002PRCP99
0216638660999992000011912004-06830+037650FM-12+052699999V0200601N00411220001MN0300001N1+03111+01721999999ADDAA199000091GA1021+007809059GF102991021011008001001001MA1999999095111MD1999999+0121OA150601601REMSYN092    AAXX  19124 63866 32580 20608 10311 20172 39511 48/// 82100 91150 333 55310 58012 82626;EQDQ01  00002PRCP99
0219638660999992000011918004-06830+037650FM-12+0526HTMG V0200501N006212200019N0300001N1+02621+01751999999ADDAA199000091GA1001+999999999GF100991001001999999001001KA1120M+03181MA1999999095211MD1999999+0171OA150601541REMSYN082AAXX  19184 63866 32980 00512 10262 20175 39521 48/// 91750 333 10318 55300 58017;EQDQ01  00002PRCP99
0251638660999992000012000004-06830+037650SY-MT+0526HTMG V0209999C00001220001CN0300001N1+02121+01861999999ADDAA199000091GF100991001001999999001001MA1101391095221MD1999999-0011MW1001OA150601541REMSYN076AAXX  20004 63866 32980 00000 10212 20186 39522 48/// 92350 333 55300 59001;MET039HTMG 200000Z 00000KT CAVOK 21/19 Q1014;EQDQ01+000000PRSWM2Q02  00002PRCP99
0089638660999992000012001004-06830+037650FM-15+0526HTMG V0209999999999220001CN0099001N1+02101+01901999999ADDMA1101391999999MW1001REMMET037HTMG 200100Z 0QQKT CAVOK 21/19 Q1014;EQDQ01+000000PRSWM2
0097638660999992000012002004-06830+037650FM-15+0526HTMG V0209999C000012200019N0112651N1+02001+01901999999ADDMA1101491999999MW1001REMMET045HTMG 200200Z 00000KT 9999 DEW018 20/19 Q1015;EQDQ01+000000PRSWM2
0190638660999992000012003004-06830+037650FM-12+0526HTMG V0209999C000012200019N0300001N1+01971+01841999999ADDAA199000091GF102991021051004501001001MA1999999095381MD1999999+0151OA150301541REMSYN082AAXX  20034 63866 32480 20000 10197 20184 39538 48/// 82500 90250 333 55300 58015;EQDQ01  00002PRCP99
0212638660999992000012012004-06830+037650FM-12+0526HTMG V0200501N003112200019N0300001N1+03101+01721999999ADDAA199000091GA1021+007209029GF102991021011008001001001MA1999999095211MD1999999+0101OA150601601REMSYN088AAXX  20124 63866 32580 20506 10310 20172 39521 48/// 82100 91150 333 55310 58010 82824;EQDQ01  00002PRCP99
0219638660999992000012018004-06830+037650FM-12+0526HTMG V0200601N003112200019N0300001N1+02701+01941999999ADDAA199000091GA1001+999999999GF100991001001999999001001KA1120M+03301MA1999999095201MD1999999-0011OA150601541REMSYN082AAXX  20184 63866 32980 00606 10270 20194 39520 48/// 91755 333 10330 55300 59001;EQDQ01  00002PRCP99
0212638660999992000012100004-06830+037650FM-12+0526HTMG V0209999C000010045019N0300001N1+02251+02141999999ADDAA199000091GA1061+004509059GF108991081051004501999999MA1999999095281MD1999999+0001OA150601541REMSYN088AAXX  21004 63866 32480 80000 10225 20214 39528 48/// 885// 92350 333 55300 58000 86615;EQDQ01  00002PRCP99
0087638660999992000012101004-06830+037650FM-15+0526HTMG V02099999999992200019N0500001N1+99999+99999999999ADDMW1001REMMET050HTMG 0100Z PWWWW+ 00000KT 9999 OVC015 23/21 Q1014;EQDQ01+000000PRSWM2
0146638660999992000012102004-06830+037650FM-16+0526HTMG V0209999C000010036019N0112651N1+99999+99999999999ADDGA1071+003609999GA2071+004509999GF107991999999999999999999MW1001REMMET051HTMG 210200Z 00000KT 9999 BKN012 BKN015 ,9PAVQ1015;EQDQ01+000000PRSWM2
0162638660999992000012103004-06830+037650FM-15+0526HTMG V0209999C000010036019N0112651N1+02301+02101999999ADDGA1071+003609999GA2071+004509999GF107991999999999999999999MA1101491999999MW1001REMMET052HTMG 210300Z 00000KT 9999 BKN012 BKN015 23/21 Q1015;EQDQ01+000000PRSWM2
0223638660999992000012106004-06830+037650FM-12+0526HTMG V0200501N001512200019N0300001N1+02451+02201999999ADDAA199000091GF104991041051004501001001KA1120N+02201MA1999999095501OA150699999REMSYN100AAXX  21064 63866 32480 40503 10245 20220 39550 48/// 84500 90555 333 20220 50651 55018 55305 84616;EQDQ01  00002PRCP99Q02  00052WGOSPD
0212638660999992000012112004-06830+037650FM-12+0526HTMG V0201201N001012200019N0300001N1+03241+01631999999ADDAA199000091GA1041+008409029GF104991041021008001001001MA1999999095011MD1999999-0201OA150601601REMSYN088AAXX  21124 63866 32580 41202 10324 20163 39501 48/// 84200 91150 333 55310 59020 84828;EQDQ01  00002PRCP99
0194638660999992000012200004-06830+037650FM-12+0526HTMG V0209999C000012200019N0300001N1+02101+01941999999ADDAA199000091GA1001+999999999GF100991001001999999001001MA1999999095151MD1999999-0131OA150601541REMSYN070AAXX  22004 63866 32980 00000 10210 20194 39515 48/// 333 55300 59013;EQDQ01  00002PRCP99
0185638660999992000012203004-06830+037650FM-12+0526HTMG V0209999C000012200019N0300001N1+02001+01951999999ADDAA199000091GF101991999999004501999999MA1999999095251MD1510001+9999REMSYN072AAXX  22034 63866 32480 10000 10200 20195 39525 48//3 55300 9/007 82818;EQDQ01+003002APC3  Q02  00002PRCP99
0207638660999992000012206004-06830+037650FM-12+0526HTMG V0201201N001010042019N0300001N1+02431+02101999999ADDAA199000091GF105991051021004501001001KA1120N+01991MA1999999095331OA150600461REMSYN100AAXX  22064 63866 32480 51202 10243 20210 39533 48/// 85200 90550 333 20199 50701 55098 55310 85818;EQDQ01  00002PRCP99
0212638660999992000012212004-06830+037650FM-12+0526HTMG V0200401N003112200019N0300001N1+03321+01641999999ADDAA199000091GA1031+007509029GF103991031021008001001001MA1999999095051MD1999999+0041OA150601601REMSYN088AAXX  22124 63866 32580 30406 10332 20164 39505 48/// 83200 91150 333 55310 58004 83825;EQDQ01  00002PRCP99
0231638660999992000012218004-06830+037650FM-12+0526HTMG V0200501N003612200019N0300001N1+02641+01951999999ADDAA199000091GA1011+006609059GF101991011051008001001001KA1120M+03371MA1999999095091MD1999999+0041OA150601541REMSYN094AAXX  22184 63866 32580 10507 10264 20195 39509 48/// 81500 91750 333 10337 55300 58004 81622;EQDQ01  00002PRCP99
0139638660999992000012220004-06830+037650FM-15+0526HTMG V0200601N002612200019N0112651N1+02501+02001999999ADDGA1021+006309999GF102991999999999999999999MA1101291999999MW1001REMMET045HTMG 222000Z 06005KT 9999 FEW021 25/20 Q1013;EQDQ01+000000PRSWM2
0139638660999992000012221004-06830+037650FM-15+0526HTMG V0200401N002112200019N0112651N1+02401+02001999999ADDGA1021+006009999GF102991999999999999999999MA1101291999999MW1001REMMET045HTMG 222100Z 04004KT 9999 FEW020 24/20 Q1013;EQDQ01+000000PRSWM2
0139638660999992000012222004-06830+037650FM-15+0526HTMG V0200501N001512200019N0112651N1+02401+02001999999ADDGA1021+006009999GF102991999999999999999999MA1101291999999MW1001REMMET045HTMG 222200Z 05003KT 9999 FEW020 24/20 Q1013;EQDQ01+000000PRSWM2
0124638660999992000012223004-06830+037650FM-15+0526HTMG V0200101N001512200019N0112651N1+02301+99999999999ADDGA1021+005709999GF102991999999999999999999MW1001REMMET045HTMG 222300Z 01003KT 9999 FEW019 23/:-<11012;EQDQ01+000000PRSWM2
0301638660999992000012300004-06830+037650SY-MT+0526HTMG V0209999C000012200019N0300001N1+02251+01961999999ADDAA199000091GA1021+005409999GF199999011051004501001001MA1101191095071MD1999999-0081MW1001OA150601541REMSYN088AAXX  23004 63866 32480 10000 10225 20196 39507 48/// 81500 92350 333 55300 59008 81618;MET045HTMG 230000Z 00000KT 9999 FEW018 23/20 Q1012;EQDQ01+000012SCOTCVQ02+000000PRSWM2Q03  00002PRCP99
0110638660999992000012303004-06830+037650FM-16+0526HTMG V0209999C000012200019N0112651N1+99999+99999999999ADDGA1021+000159999GF102991999999999999999999MW1001REMMET031HTMG 230300Z 00000KT 9999 FEW0;EQDQ01+000000PRSWM2
0191638660999992000012306004-06830+037650FM-12+0526HTMG V0200501N004112200019N0300001N1+02581+01981999999ADDAA199000091GF103991999999004501999999KA1120N+02061OA150600511REMSYN099AAXX  23064 63866 32480 30508 10258 20198 3930 48/// 83500 90555 333 20206 50751 55101 55310 83618;EQDQ01  00002PRCP99
0212638660999992000012312004-06830+037650FM-12+0526HTMG V0200801N005112200019N0300001N1+03251+01621999999ADDAA199000091GA1031+006909029GF103991031021008001001001MA1999999094951MD1999999-0101OA150601601REMSYN088AAXX  23124 63866 32580 30810 10325 20162 39495 48/// 83200 91150 333 55310 59010 83823;EQDQ01  00002PRCP99
0206638660999992000012315004-06830+037650FM-12+0526HTMG V0201401N004112200019N0300001N1+03151+01781999999ADDAA199000091GA1011+007809029GF101991011021008001001021MA1999999094871MD1999999-1021OA150301601REMSYN082AAXX  23154 63866 32580 11408 10315 20178 39487 48/// 81202 333 5531/ 59102 81826;EQDQ01  00002PRCP99
0231638660999992000012318004-06830+037650FM-12+0526HTMG V0200501N006212200019N0300001N1+02681+01961999999ADDAA199000091GA1011+006009059GF101991011051008001001001KA1120M+03321MA1999999095041MD1999999-0051OA150601541REMSYN094AAXX  23184 63866 32580 10512 10268 20196 39504 48/// 81500 91700 333 10332 55300 59005 81620;EQDQ01  00002PRCP99
0213638660999992000012400004-06830+037650FM-12+0526HTMG V0202101N001510048019N0300001N1+02381+02251101181ADDAA199000091GA1051+004809069GF105991051041004501001001MD1999999+0131OA150601541REMSYN088AAXX  24004 63866 32480 52103 10238 20225 30058 40118 85400 92358 333 55300 58013 85716;EQDQ01+100583APOSP Q02  00002PRCP99
0139638660999992000012401004-06830+037650FM-15+0526HTMG V0209999C000012200019N0112651N1+02201+01901999999ADDGA1021+005109999GF102991999999999999999999MA1101391999999MW1001REMMET045HTMG 240100Z 00000KT 9999 FEW017 22/19 Q1014;EQDQ01+000000PRSWM2
0139638660999992000012402004-06830+037650FM-15+0526HTMG V0201501N001012200019N0112651N1+02101+01901999999ADDGA1021+005109999GF102991999999999999999999MA1101391999999MW1001REMMET045HTMG 210200Z 15002KT 9999 FEW017 21/19 Q1014;EQDQ01+000000PRSWM2
0267638660999992000012403004-06830+037650SY-MT+0526HTMG V0201601N001012200019N0300001N1+01981+01921999999ADDAA199000091GF102991021051004501001001MA1999999095251MD1999999+0091MW1001OA150301541REMSYN088AAXX  24034 63866 32480 21602 10198 20192 39525 48/// 82500 90250 333 55300 58009 82617;MET043HTMG 240300Z ///// 9999 FEW017 21/19 Q1014;EQDQ01+000000PRSWM2Q02  00002PRCP99
0210638660999992000012406004-06830+037650FM-12+0526HTMG V0200601N004110075019N0300001N1+02551+02031999999ADDAA199000091GF107991071051008001999999KA1120N+02051MA1999999095391MD1999999+0091REMSYN100AAXX  24064 63866 32580 70608 10255 20203 39539 48/// 875// 90555 333 20205 55/// 55310 58009 87622;EQDQ01  00002PRCP99
0212638660999992000012412004-06830+037650FM-12+0526HTMG V0200601N002610078019N0300001N1+03301+01791999999ADDAA199000091GA1051+007809029GF105991051021008001001001MA1999999094931MD1999999-0021OA150601601REMSYN088AAXX  24124 63866 32580 50605 10330 20179 39493 48/// 85200 91155 333 55310 59002 85826;EQDQ01  00002PRCP99
0137638660999992000012501004-06830+037650FM-15+0526HTMG V02099999999992200019N0112651N1+02401+02001999999ADDGA1021+005709999GF102991999999999999999999MA1101291999999MW1001REMMET043HTMG 250100Z 06006 9999 FEW019 24/20 Q1013;EQDQ01+000000PRSWM2
0139638660999992000012502004-06830+037650FM-15+0526HTMG V0200401N002612200019N0112651N1+02401+02001999999ADDGA1021+004809999GF102991999999999999999999MA1101291999999MW1001REMMET045HTMG 250200Z 04005KT 9999 FEW016 24/20 Q1013;EQDQ01+000000PRSWM2
0285638660999992000012503004-06830+037650SY-MT+0526HTMG V0200601N003112200019N0300001N1+02341+02051999999ADDAA199000091GA1021+004809999GF103991031051004501001001MA1101391095281MD1999999+0031MW1001OA150301541REMSYN088AAXX  25034 63866 32480 30606 10234 20205 39528 48/// 83500 90250 333 55300 58003 83616;MET045HTMG 250300Z 06006KT 9999 SCT016 23/21 Q1014;EQDQ01+000000PRSWM2Q02  00002PRCP99
0201638660999992000012506004-06830+037650FM-12+0526HTMG V0200401N003112200019N0300001N1+02601+02041999999ADDAA199000091GF102991021011008001001001KA1120N+01821MA1999999095421OA150600571REMSYN094AAXX  25064 63866 32580 20406 10260 20204 39542 48/// 82100 333 20182 50751 55110 55310 82818;EQDQ01  00002PRCP99
0212638660999992000012512004-06830+037650FM-12+0526HTMG V0200601N003112200019N0300001N1+03251+01821999999ADDAA199000091GA1041+007509029GF104991041021008001001001MA1999999095001MD1999999+0071OA150601601REMSYN088AAXX  25124 63866 32580 40606 10325 20182 39500 48/// 84200 91155 333 55310 58007 84825;EQDQ01  00002PRCP99
0201638660999992000012606004-06830+037650FM-12+0526HTMG V0200401N002112200019N0300001N1+02601+02081999999ADDAA199000091GF102991021011008001001001KA1120N+02161MA1999999095381OA150600511REMSYN094AAXX  26064 63866 32580 20404 10260 20208 39538 48/// 82100 90550 333 20216 50901 55109 55310;EQDQ01  00002PRCP99
0142638660999992000012610004-06830+037650FM-15+0526HTMG V0209999C000012200019N0112651N1+03201+01901999999ADDGA1021+007509029GF104991999999999999999999MA1101291999999MW1001REMMET048HTMG 261000Z 00000KT 9999 SCT025TCU 32/19 Q1013;EQDQ01+000000PRSWM2
0142638660999992000012611004-06830+037650FM-15+0526HTMG V0200501N002112200019N0112651N1+03301+01901999999ADDGA1021+007509029GF104991999999999999999999MA1101191999999MW1001REMMET048HTMG 261100Z 05004KT 9999 SCT025TCU 33/19 Q1012;EQDQ01+000000PRSWM2
0218638660999992000012612004-06830+037650FM-12+0526HTMG V0200901N002110450019N0300001N1+03401+01671999999ADDAA199000091GA1041+007809089GF105991041091008001071031MA1999999094871MD1999999-0131OA150601601REMSYN094AAXX  26124 63866 32580 50904 10340 20167 39487 48/// 84973 91150 333 55310 59013 84826 81930;EQDQ01  00002PRCP99
0237638660999992000012618004-06830+037650FM-12+0526HTMG V0200501N004112200019N0300001N1+02681+02061999999ADDAA199000091GA1011+007509069GF102991021031008001001001KA1120M+03481MA1999999095051MD1999999-0181OA150601541REMSYN100AAXX  26184 63866 32580 20508 10268 20206 39505 48/// 82300 91700 333 10348 55300 59018 81625 82926;EQDQ01  00002PRCP99
0212638660999992000012700004-06830+037650FM-12+0526HTMG V0209999C000012200019N0300001N1+02301+02091999999ADDAA199000091GA1021+006009059GF102991021051008001001001MA1999999095141MD1999999-0041OA150601541REMSYN088AAXX  27004 63866 32580 20000 10230 20209 39514 48/// 82500 92353 333 55300 59004 82620;EQDQ01  00002PRCP99
0212638660999992000012703004-06830+037650FM-12+0526HTMG V0209999C000012200019N0300001N1+02201+02051999999ADDAA199000091GA1011+005409069GF104991011051004501001011MA1999999095231MD1999999+0001OA150301541REMSYN088AAXX  27034 63866 32480 40000 10220 20205 39523 48/// 81501 333 55300 58000 81618 84072;EQDQ01  00002PRCP99
0207638660999992000012706004-06830+037650FM-12+0526HTMG V0209999C000010075019N0300001N1+02651+02091999999ADDAA199000091GF105991051051008001001001KA1120N+02201MA1999999095381OA150600511REMSYN100AAXX  27064 63866 32580 50000 10265 20209 39538 48/// 85500 90550 333 20220 50901 55105 55310 85626;EQDQ01  00002PRCP99
0212638660999992000012712004-06830+037650FM-12+0526HTMG V0200501N002612200019N0300001N1+03521+01601999999ADDAA199000091GA1031+008409029GF103991031021008001001001MA1999999094861MD1999999-0011OA150601601REMSYN088AAXX  27124 63866 32580 30505 10352 20160 39486 48/// 83200 91150 333 55310 59001 83828;EQDQ01  00002PRCP99
0259638660999992000012718004-06830+037650FM-12+0526HTMG V0200601N005112200019N0300001N1+02741+01861999999ADDAA199000091AY121061AY221061GA1011+007209099GF101991011091008001001001KA1120M+03651MA1999999094991MD1999999-0061MW1131OA150601541REMSYN100AAXX  27184 63866 31580 10610 10274 20186 39499 48/// 71322 81900 91750 333 10365 55300 59006 81924;EQDQ01  00002PRCP99
0207638660999992000012806004-06830+037650FM-12+0526HTMG V0200601N001510042019N0300001N1+02481+01981999999ADDAA199000091GF107991051051004501031999KA1120N+02201MA1999999095241OA150600511REMSYN100AAXX  28064 63866 32480 70603 10248 20198 39524 48/// 8553/ 90555 333 20220 50851 55104 55303 85817;EQDQ01  00002PRCP99
0212638660999992000012812004-06830+037650FM-12+0526HTMG V0200401N002612200019N0300001N1+03421+01761999999ADDAA199000091GA1021+007509029GF102991021011008001001001MA1999999094861MD1999999+0001OA150601601REMSYN088AAXX  28124 63866 32580 20405 10342 20176 39486 48/// 82100 91150 333 55310 58000 82825;EQDQ01  00002PRCP99
0219638660999992000012818004-06830+037650FM-12+0526HTMG V0200501N004112200019N0300001N1+02841+01911999999ADDAA199000091GA1001+999999999GF100991001001999999001001KA1120M+03551MA1999999094901MD1999999-0091OA150601541REMSYN082AAXX  28184 63866 32980 00508 10284 20191 39490 48/// 91750 333 10355 55300 59009;EQDQ01  00002PRCP99
0218638660999992000012900004-06830+037650FM-12+0526HTMG V0209999C000012200019N0300001N1+02241+02031999999ADDAA199000091GA1021+005409069GF104991021051004501051001MA1999999095041MD1999999+0101OA150601541REMSYN094AAXX  29004 63866 32480 40000 10224 20203 39504 48/// 82550 92350 333 55300 58010 82618 83358;EQDQ01  00002PRCP99
0207638660999992000012906004-06830+037650FM-12+0526HTMG V0209999C00001045001CN0300001N1+02561+02031999999ADDAA199000091GF106991021051004501031999KA1120N+02151MA1999999095241OA150600461REMSYN100AAXX  29064 63866 32480 60000 10256 20203 39524 48/// 8253/ 90550 333 20215 50901 55094 55306 85358;EQDQ01  00002PRCP99
0218638660999992000012912004-06830+037650FM-12+0526HTMG V0200801N00361045001CN0300001N1+03401+01831999999ADDAA199000091GA1011+008409089GF105991011021008001031001MA1999999094731MD1999999-0131OA150601541REMSYN094AAXX  29124 63866 32580 50807 10340 20183 39473 48/// 81230 91155 333 55308 59013 81828 84359;EQDQ01  00002PRCP99
0219638660999992000012918004-06830+037650FM-12+0526HTMG V0200501N004112200019N0300001N1+02621+01961999999ADDAA199000091GA1001+999999999GF100991001001999999001001KA1120M+03541MA1999999094901MD1999999+0001OA150601541REMSYN082AAXX  29184 63866 32980 00508 10262 20196 39490 48/// 91750 333 10354 55300 58000;EQDQ01  00002PRCP99
0212638660999992000013000004-06830+037650FM-12+0526HTMG V0200601N004612200019N0300001N1+02401+02021999999ADDAA199000091GA1021+005409059GF102991021051004501001001MA1999999094911MD1999999-0141OA150601541REMSYN088AAXX  30004 63866 32480 20609 10240 20202 39491 48/// 82500 92350 333 55300 59014 82618;EQDQ01  00002PRCP99
0229638660999992000013006004-06830+037650FM-12+0526HTMG V0200501N00311005101CN0300001N1+02451+02041999999ADDAA199000091GA1051+005109069GF108991051051004501071999KA1120N+02281MA1999999095251OA150600411REMSYN106AAXX  30064 63866 32480 80506 10245 20204 39525 48/// 8557/ 90555 333 20228 50751 55085 55300 85617 85459;EQDQ01  00002PRCP99
0231638660999992000013018004-06830+037650FM-12+0526HTMG V0200501N002612200019N0300001N1+02621+01981999999ADDAA199000091GA1011+007509029GF101991011011008001001011KA1120M+03401MA1999999095001MD1999999+0101OA150601541REMSYN094AAXX  30184 63866 32580 10505 10262 20198 39500 48/// 81101 91755 333 10340 55300 58010 81825;EQDQ01  00002PRCP99
0251638660999992000013106004-06830+037650FM-12+0526HTMG V0200701N00261004801CN0300001N1+02421+02091999999ADDAA199000091GA1031+004509069GA2031+004809089GF107991051081004501071999KA1120N+02341MA1999999095491OA150600311REMSYN112AAXX  31064 63866 32480 70705 10242 20209 39549 48/// 8587/ 90554 333 20234 50601 55060 55300 83615 83816 85358;EQDQ01  00002PRCP99
0212638660999992000013112004-06830+037650FM-12+0526HTMG V0200501N003612200019N0300001N1+03201+01761999999ADDAA199000091GA1041+007209029GF104991041021008001001001MA1999999095031MD1999999+0191OA150601601REMSYN088AAXX  31124 63866 32580 40507 10320 20176 39503 48/// 84200 91150 333 55310 58019 84824;EQDQ01  00002PRCP99
0219638660999992000013118004-06830+037650FM-12+0526HTMG V0200501N007212200019N0300001N1+02551+01861999999ADDAA199000091GA1001+999999999GF100991001001999999001001KA1120M+03501MA1999999095211MD1999999+0201OA150601541REMSYN082AAXX  31184 63866 32980 00514 10255 20186 39521 48/// 91755 333 10350 55300 58020;EQDQ01  00002PRCP99
0212638660999992000020100004-06830+037650FM-12+0526HTMG V0200501N005110060019N0300001N1+02321+01961999999ADDAA199000091GA1061+006009059GF106991061051008001999999MA1999999095311MD1999999+0151OA150601541REMSYN088AAXX  01004 63866 32580 60510 10232 20196 39531 48/// 865// 92350 333 55300 58015 86620;EQDQ01  00002PRCP99
0328638660999992000020106004-06830+037650SY-MT+0526HTMG V0200501N006212200019N0300001N1+02531+01751999999ADDAA199000091GA1021+006009999GF199999011051008001001001KA1120N+02261MA1101491095371MW1001OA150699999REMSYN100AAXX  01064 63866 32580 10512 10253 20175 39537 48/// 81500 90550 333 20226 51001 55069 55310 81620;MET045HTMG 010600Z 05012KT 9999 FEW020 25/18 Q1015;EQDQ01+000012SCOTCVQ02+000000PRSWM2Q03  00002PRCP99Q04  00312WGOSPD
0228638660999992000020112004-06830+037650FM-12+0526HTMG V0202501N002112200019N0300001N1+03331+01591999999ADDAA199000091GA1011+008109029GF101991011021008001001001MA1999999104982MD1999999-0051OA150601601REMSYN088AAXX  01124 63866 32580 12504 10333 20159 30498 48/// 81200 91150 333 55310 59005 81827;EQDQ01+104983APOSP Q02  00002PRCP99
0231638660999992000020206004-06830+037650FM-12+0526HTMG V0209999C000012200019N0300001N1+02521+01981999999ADDAA199000091GA1041+006909059GF104991041051008001001001KA1120N+02301MA1999999095381MD1999999+0011OA150601541REMSYN094AAXX  02064 63866 32580 40000 10252 20198 39538 48/// 84500 90555 333 20230 55308 58001 84623;EQDQ01  00002PRCP99
0212638660999992000020209004-06830+037650FM-12+0526HTMG V0202501N001512200019N0300001N1+03101+01821999999ADDAA199000091GA1011+007809029GF101991011021008001001001MA1999999095231MD1999999-0141OA150301601REMSYN088AAXX  02094 63866 32580 12503 10310 20182 39523 48/// 81200 90950 333 55310 59014 81826;EQDQ01  00002PRCP99
0231638660999992000020218004-06830+037650FM-12+0526HTMG V0200501N007212200019N0300001N1+02651+01941999999ADDAA199000091GA1011+007509059GF101991011051008001001001KA1120M+03571MA1999999094991MD1999999-0061OA150601541REMSYN094AAXX  02184 63866 32580 10514 10265 20194 39499 48/// 81500 91755 333 10357 55300 59006 81625;EQDQ01  00002PRCP99
0200638660999992000020300004-06830+037650FM-12+0526HTMG V0209999C000012200019N0300001N1+02301+02031999999ADDAA199000091GA1001+999999999GF100991001001999999001001MA1999999095131MD1999999-0091OA150601541REMSYN076AAXX  03004 63866 32980 00000 10230 20203 39513 48/// 92350 333 55300 59009;EQDQ01  00002PRCP99
0212638660999992000020312004-06830+037650FM-12+0526HTMG V0200201N002612200019N0300001N1+03401+01921999999ADDAA199000091GA1041+007809029GF104991041021008001001001MA1999999094831MD1999999-0071OA150601601REMSYN088AAXX  03124 63866 32580 40205 10340 20192 39483 48/// 84200 91150 333 55310 59007 84826;EQDQ01  00002PRCP99
0200638660999992000020400004-06830+037650FM-12+0526HTMG V0209999C000012200019N0300001N1+02101+02061999999ADDAA199000091GA1001+999999999GF100991001001999999001001MA1999999095221MD1999999+0091OA150601541REMSYN076AAXX  04004 63866 32980 00000 10210 20206 39522 48/// 92355 333 55300 58009;EQDQ01  00002PRCP99
0210638660999992000020412004-06830+037650FM-12+0526HTMG V0202001N003612200019N0300001N1+03251+02011999999ADDAY191061AY221061GA1021+008409099GF104991021091008001001031MA1999999094961MD1999999+0131MW1171OA150601601REMSYN094AAXX  04124 63866 21580 42007 10325 20201 39496 48/// 71792 82903 91155 333 55310 58013 82928;
0223638660999992000020506004-06830+037650FM-12+0526HTMG V0200801N003610042019N0300001N1+02541+02071999999ADDAA199000091GF107991071051004501011999KA1120N+02201MA1999999095351OA150699999REMSYN100AAXX  05064 63866 32480 70807 10254 20207 39535 48/// 8751/ 90555 333 20220 50651 55003 55305 87615;EQDQ01  00002PRCP99Q02  00002WGOSPD
0212638660999992000020512004-06830+037650FM-12+0526HTMG V0200601N005112200019N0300001N1+03151+01961999999ADDAA199000091GA1031+007509029GF103991031021008001001001MA1999999094951MD1999999-0011OA150601601REMSYN088AAXX  05124 63866 32580 30610 10315 20196 39495 48/// 83200 91150 333 55310 59001 83825;EQDQ01  00002PRCP99
0237638660999992000020518004-06830+037650FM-12+0526HTMG V0200501N007212200019N0300001N1+02541+01951999999ADDAA199000091GA1011+005409069GF103991011091004501051031KA1120M+03271MA1999999095101MD1999999-0141OA150601541REMSYN100AAXX  05184 63866 32480 30514 10254 20195 39510 48/// 81953 91750 333 10327 55300 59014 81618 81926;EQDQ01  00002PRCP99
0219638660999992000020618004-06830+037650FM-12+0526HTMG V0200501N004112200019N0300001N1+02651+02021999999ADDAA199000091GA1001+999999999GF100991001001999999001001KA1120M+03131MA1999999095211MD1999999+0111OA150601541REMSYN082AAXX  06184 63866 32980 00508 10265 20202 39521 48/// 91750 333 10313 55300 58011;EQDQ01  00002PRCP99
0200638660999992000020700004-06830+037650FM-12+0526HTMG V0209999C000012200019N0300001N1+02301+02041999999ADDAA199000091GA1001+999999999GF100991001001999999001001MA1999999095271MD1999999-0011OA150601541REMSYN076AAXX  07004 63866 32980 00000 10230 20204 39527 48/// 92350 333 55300 59001;EQDQ01  00002PRCP99
0158638660999992000020712004-06830+037650FM-12+0526HTMG V0202501N004110075019N0300001N1+02361+02141999999ADDAA106000791AY121061AY221061GF107991061061008001021051MA1999999095161MW1281REMSYN072AAXX  07124 63866 11580 72508 10236 20214 39516 48/// 69901 72822 86625;
0231638660999992000020718004-06830+037650FM-12+0526HTMG V0202501N001512200019N0300001N1+02681+01891999999ADDAA199000091GA1011+007509059GF101991011051008001001001KA1120M+03211MA1999999095101MD1999999-0111OA150601541REMSYN094AAXX  07184 63866 32580 12503 10268 20189 39510 48/// 81500 91750 333 10321 55300 59011 81625;EQDQ01  00002PRCP99
0206638660999992000020812004-06830+037650FM-12+0526HTMG V0200501N002610075019N0300001N1+03201+02021999999ADDAA199000091GA1061+007509029GF107991061021008001001021MA1999999094941MD1999999-0221OA150601601REMSYN082AAXX  08124 63866 32580 70505 10320 20202 39494 48/// 86202 333 55310 59022 86825;EQDQ01  00002PRCP99
0212638660999992000020818004-06830+037650FM-12+0526HTMG V0209999C000012200019N0300001N1+02381+02151999999ADDAA199000091GA1011+006909069GF104991011051008001031051MA1999999095141MD1999999+0041OA150601541REMSYN088AAXX  08184 63866 32580 40000 10238 20215 39514 48/// 81535 333 55300 58004 81623 83270;EQDQ01  00002PRCP99
0223638660999992000020906004-06830+037650FM-12+0526HTMG V0209999C000010042019N0300001N1+02541+02171999999ADDAA199000091GF107991999021004501001001KA1120N+02211MA1999999095331OA150600311REMSYN100AAXX  09064 63866 32480 70000 10254 20217 39533 48/// 85200 90550 333 20221 50401 55066 55310 85818;EQDQ01+000052SCOTLCQ02  00002PRCP99
0218638660999992000020912004-06830+037650FM-12+0526HTMG V0200501N003610084019N0300001N1+03351+01991999999ADDAA199000091GA1051+008409089GF105991051091008001051031MA1999999094861MD1999999-0081OA150601601REMSYN094AAXX  09124 63866 32580 50507 10335 20199 39486 48/// 85953 91150 333 55310 59008 85828 81930;EQDQ01  00002PRCP99
0199638660999992000021000004-06830+037650FM-12+0526HTMG V0209999C013412200019N0300001N1+99999+99999999999ADDAA106004191GA1031+006609059GF103991031051008001001001MA1999999095241MD1999999+0111OA150601541REMSYN094AAXX  10004 63866 12580 30026 10/// 20200 39524 48/// 60041 83500 92352 333 55300 58011 83622;
0210638660999992000021006004-06830+037650FM-12+0526HTMG V0209999C000011050019N0300001N1+02551+01981999999ADDAA106001091GA1011+007809069GF105991011051008001051011KA1120N+02001MA1999999095351OA150600411REMSYN106AAXX  10064 63866 12580 50000 10255 20198 39535 48/// 60011 81551 333 20200 50691 55080 55310 81626 85072;
0212638660999992000021012004-06830+037650FM-12+0526HTMG V0200901N002612200019N0300001N1+03301+01981999999ADDAA199000091GA1031+007509029GF103991031021008001001021MA1999999094941MD1999999+0081OA150601601REMSYN088AAXX  10124 63866 32580 30905 10330 20198 39494 48/// 83202 91150 333 55310 58008 83825;EQDQ01  00002PRCP99
0231638660999992000021018004-06830+037650FM-12+0526HTMG V0200601N002112200019N0300001N1+02581+01831999999ADDAA199000091GA1011+006909059GF101991011051008001001001KA1120M+03351MA1999999095181MD1999999-0011OA150601541REMSYN094AAXX  10184 63866 32580 10604 10258 20183 39518 48/// 81500 91755 333 10335 55300 59001 81623;EQDQ01  00002PRCP99
0212638660999992000021100004-06830+037650FM-12+0526HTMG V0200501N005112200019N0300001N1+02321+01971999999ADDAA199000091GA1041+005409059GF104991041051004501001001MA1999999095101MD1999999-0171OA150601541REMSYN088AAXX  11004 63866 32480 40510 10232 20197 39510 48/// 84500 90350 333 55300 59017 84618;EQDQ01  00002PRCP99
0200638660999992000021106004-06830+037650FM-12+0526HTMG V0200601N005112200019N0300001N1+02521+01901999999ADDAA124000591GF102991021051004501001001KA1120N+02211MA1999999095411OA150600571REMSYN112AAXX  11064 63866 12480 20610 10252 20190 39541 48/// 69964 82500 90555 333 0//19 20221 50701 55110 55310 82618;
0228638660999992000021112004-06830+037650FM-12+0526HTMG V0200601N003612200019N0300001N1+03201+01551999999ADDAA199000091GA1031+007809029GF199999031011008001001001MA1999999095041MD1999999+0101OA150601601REMSYN088AAXX  11124 63866 32580 20607 10320 20155 30504 48/// 83100 91150 333 55310 58010 83826;EQDQ01+000022SCOTCVQ02  00002PRCP99
0212638660999992000021212004-06830+037650FM-12+0526HTMG V0200501N003112200019N0300001N1+03221+01391999999ADDAA199000091GA1011+008409029GF101991011021008001001001MA1999999094951MD1999999-0091OA150601601REMSYN088AAXX  12124 63866 32580 10506 10322 20139 39495 48/// 81200 91155 333 55310 59009 81828;EQDQ01  00002PRCP99
0212638660999992000021300004-06830+037650FM-12+0526HTMG V0209999C000012200019N0300001N1+02301+01931999999ADDAA199000091GA1041+006009059GF104991041051008001001001MA1999999095051MD1999999-0151OA150601541REMSYN088AAXX  13004 63866 32580 40000 10230 20193 39505 48/// 84500 92350 333 55300 59015 84620;EQDQ01  00002PRCP99
0206638660999992000021306004-06830+037650FM-12+0526HTMG V0209999C000019999999N0300001N1+02301+02051999999ADDAA199000091GF107991999999004501999999KA1120N+02151MA1999999095351OA150600051REMSYN099AAXX  13064 63866 32480 70000 10230 20205 39535 8/// 875// 90556 333 20215 50701 55011 55300 87618;EQDQ01  00002PRCP99
0200638660999992000021406004-06830+037650FM-12+0526HTMG V0209999C000012200019N0300001N1+02271+02051999999ADDAA199000091GA1001+999999999GF100991001001999999001001MA1999999095071MD1999999+0021OA150601541REMSYN076AAXX  14064 63866 32980 00000 10227 20205 39507 48/// 92350 333 55300 58002;EQDQ01  00002PRCP99
0207638660999992000021506004-06830+037650FM-12+0526HTMG V0200601N000512200019N0300001N1+02571+02021999999ADDAA199000091GF103991021021008001031001KA1120N+02141MA1999999095181OA150600261REMSYN100AAXX  15064 63866 32580 30601 10257 20202 39518 48/// 82230 90550 333 20214 50651 55056 55310 82820;EQDQ01  00002PRCP99
0212638660999992000021512004-06830+037650FM-12+0526HTMG V0200501N004112200019N0300001N1+03381+01641999999ADDAA199000091GA1031+008409029GF103991031021008001001001MA1999999094761MD1999999+0021OA150601601REMSYN088AAXX  15124 63866 32580 30508 10338 20164 39476 48/// 83200 91150 333 55310 58002 83828;EQDQ01  00002PRCP99
0219638660999992000021518004-06830+037650FM-12+0526HTMG V0200501N005112200019N0300001N1+02651+01921999999ADDAA199000091GA1001+999999999GF100991001001999999001001KA1120M+03481MA1999999094871MD1999999+0011OA150601541REMSYN082AAXX  15184 63866 32980 00510 10265 20192 39487 48/// 91750 333 10348 55300 58001;EQDQ01  00002PRCP99
0212638660999992000021600004-06830+037650FM-12+0526HTMG V0209999C000012200019N0300001N1+02251+02021999999ADDAA199000091GA1031+006009059GF103991031051008001001001MA1999999095071MD1999999+0111OA150601541REMSYN088AAXX  16004 63866 32580 30000 10225 20202 39507 48/// 83500 92350 333 55300 58011 83620;EQDQ01  00002PRCP99
0218638660999992000021609004-06830+037650FM-12+0526HTMG V0200501N00461220001CN0300001N1+03051+01901999999ADDAA199000091GA1021+007809089GF106991021021008001001011MA1999999095181MD1999999+0081OA150301601REMSYN094AAXX  16094 63866 32580 60509 10305 20190 39518 48/// 82201 90850 333 55310 58008 82826 85074;EQDQ01  00002PRCP99
0218638660999992000021612004-06830+037650FM-12+0526HTMG V0200501N00311220001CN0300001N1+03351+01821999999ADDAA199000091GA1021+008409089GF106991021021008001001011MA1999999094911MD1999999+0151OA150601601REMSYN094AAXX  16124 63866 32580 60506 10335 20182 39491 48/// 82201 91150 333 55310 58015 82828 86075;EQDQ01  00002PRCP99
0231638660999992000021618004-06830+037650FM-12+0526HTMG V0200601N001512200019N0300001N1+02701+02001999999ADDAA199000091GA1011+007509059GF101991011051008001001001KA1120M+03471MA1999999094981MD1999999+0121OA150601541REMSYN094AAXX  16184 63866 32580 10603 10270 20200 39498 48/// 81500 91750 333 10347 55300 58012 81625;EQDQ01  00002PRCP99
0212638660999992000021700004-06830+037650FM-12+0526HTMG V0209999C000010057019N0300001N1+02421+02141999999ADDAA199000091GA1051+005709059GF105991051051004501001001MA1999999094941MD1999999-0141OA150601541REMSYN088AAXX  17004 63866 32480 50000 10242 20214 39494 48/// 85500 92355 333 55300 59014 85619;EQDQ01  00002PRCP99
0229638660999992000021706004-06830+037650FM-12+0526HTMG V0200601N002111050019N0300001N1+02451+02161999999ADDAA199000091GA1031+005409069GF107991031051004501001051KA1120N+02301MA1999999095281OA150600511REMSYN106AAXX  17064 63866 32480 70604 10245 20216 39528 48/// 83505 90555 333 20230 50901 55105 55300 83618 86274;EQDQ01  00002PRCP99
0218638660999992000021712004-06830+037650FM-12+0526HTMG V0200901N00311105001CN0300001N1+03271+01751999999ADDAA199000091GA1031+007809069GF106991031051008001001051MA1999999094811MD1999999-0101OA150601541REMSYN094AAXX  17124 63866 32580 60906 10327 20175 39481 48/// 83505 91150 333 55309 59010 83626 86274;EQDQ01  00002PRCP99
0231638660999992000021718004-06830+037650FM-12+0526HTMG V0200501N002612200019N0300001N1+02661+01971999999ADDAA199000091GA1011+007509059GF101991011051008001001001KA1120M+03351MA1999999094861MD1999999-0121OA150601541REMSYN094AAXX  17184 63866 32580 10505 10266 20197 39486 48/// 81500 91250 333 10335 55300 59012 81625;EQDQ01  00002PRCP99
0229638660999992000021806004-06830+037650FM-12+0526HTMG V0202701N002611050019N0300001N1+02501+02161999999ADDAA199000091GA1031+004509069GF107991031051004501001071KA1120N+02301MA1999999095221OA150600311REMSYN106AAXX  18064 63866 32480 72705 10250 20216 39522 48/// 83507 90550 333 20230 50601 55068 55300 83615 87274;EQDQ01  00002PRCP99
0218638660999992000021812004-06830+037650FM-12+0526HTMG V0209999C00001105001CN0300001N1+03311+01971999999ADDAA199000091GA1041+007809089GF106991041021008001001071MA1999999094781MD1999999-0031OA150601541REMSYN094AAXX  18124 63866 32580 60000 10331 20197 39478 48/// 84207 91154 333 55306 59003 84826 84275;EQDQ01  00002PRCP99
0246638660999992000021900004-06830+037650FM-12+0526HTMG V0209999C000012200019N0300001N1+02231+02061999999ADDAA199000091AY191061AY221061GA1011+006009099GF104991011091008001071001MA1999999094961MD1999999-0061MW1171OA150601541REMSYN100AAXX  19004 63866 31580 40000 10223 20206 39496 48/// 71792 81970 92350 333 55300 59006 81920 84458;EQDQ01  00002PRCP99
0228638660999992000021906004-06830+037650FM-12+0526HTMG V0200801N001510450019N0300001N1+02421+02151999999ADDAA124014091AC12I9GA1041+005109069GF107991041081004501071011KA1120N+02041MA1999999095291OA150600361REMSYN118AAXX  19064 63866 12480 70803 10242 20215 39529 48/// 60144 84871 90556 333 0//26 20204 50831 55073 55300 84617 85358;
0218638660999992000021912004-06830+037650FM-12+0526HTMG V0200501N00211105001CN0300001N1+03101+01921999999ADDAA199000091GA1011+007209089GF107991011021008001001071MA1999999094881MD1999999+0101OA150601541REMSYN094AAXX  19124 63866 32580 70504 10310 20192 39488 48/// 81207 91150 333 55305 58010 81824 86273;EQDQ01  00002PRCP99
0200638660999992000022006004-06830+037650FM-12+0526HTMG V0209999C000010042019N0300001N1+02461+02171999999ADDAA124000791GF107991071051004501999999KA1120N+02211MA1999999095401OA150600311REMSYN112AAXX  20064 63866 12480 70000 10246 20217 39540 48/// 69904 875// 90600 333 0//19 20221 50601 55060 55305 87618;
0212638660999992000022012004-06830+037650FM-12+0526HTMG V0209999C000019999999N0300001N1+02981+02091999999ADDAA199000091GA1021+007209089GF105991021021008001001001MA1999999094971MD1999999+0101OA150601541REMSYN088AAXX  20124 63866 32580 50000 10298 20209 39497 48/// 82200 333 55305 58010 82824 84075;EQDQ01  00002PRCP99
0212638660999992000022018004-06830+037650FM-12+0526HTMG V0200501N005112200019N0300001N1+02441+01961999999ADDAA199000091GA1011+006609059GF101991011051008001001001MA1999999095141MD1999999+0071OA150601541REMSYN088AAXX  20184 63866 32580 10510 10244 20196 39514 48/// 81500 92050 333 55300 58007 81622;EQDQ01  00002PRCP99
0211638660999992000022106004-06830+037650FM-12+0526HTMG V0209999C000012200019N0300001N1+02621+02021999999ADDAA199000091GA1001+999999999GF100991001001999999001001KA1120N+02131MA1999999095221OA150600261REMSYN088AAXX  21064 63866 32980 00000 10262 20202 39522 48/// 90550 333 20213 50401 55051 55310;EQDQ01  00002PRCP99
0212638660999992000022112004-06830+037650FM-12+0526HTMG V0200201N001512200019N0300001N1+03501+01151999999ADDAA199000091GA1011+008409029GF101991011021008001001001MA1999999094761MD1999999-0211OA150601601REMSYN088AAXX  21124 63866 32580 10203 10350 20115 39476 48/// 81200 91150 333 55310 59021 81828;EQDQ01  00002PRCP99
0219638660999992000022118004-06830+037650FM-12+0526HTMG V0200501N003612200019N0300001N1+02721+01221999999ADDAA199000091GA1001+999999999GF100991001001999999001001KA1120M+03601MA1999999094891MD1999999-0111OA150601541REMSYN082AAXX  21184 63866 32980 00507 10272 20122 39489 48/// 91753 333 10360 55300 59011;EQDQ01  00002PRCP99
0200638660999992000022200004-06830+037650FM-12+0526HTMG V0200501N004112200019N0300001N1+02381+01141999999ADDAA199000091GA1001+999999999GF100991001001999999001001MA1999999094971MD1999999-0101OA150601541REMSYN076AAXX  22004 63866 32980 00508 10238 20114 39497 48/// 92358 333 55300 59010;EQDQ01  00002PRCP99
0211638660999992000022206004-06830+037650FM-12+0526HTMG V0209999C000012200019N0300001N1+02541+01661999999ADDAA199000091GA1001+999999999GF100991001001999999001001KA1120N+02101MA1999999095141OA150600051REMSYN088AAXX  22064 63866 32980 00000 10254 20166 39514 48/// 90550 333 20210 50101 55011 55310;EQDQ01  00002PRCP99
0219638660999992000022218004-06830+037650FM-12+0526HTMG V0200801N008212200019N0300001N1+02671+01461999999ADDAA199000091GA1001+999999999GF100991001001999999001001KA1120M+03651MA1999999094751MD1999999-0151OA150601541REMSYN082AAXX  22184 63866 32980 00816 10267 20146 39475 48/// 91750 333 10365 55300 59015;EQDQ01  00002PRCP99
0200638660999992000022300004-06830+037650FM-12+0526HTMG V0209999C000012200019N0300001N1+02301+01581999999ADDAA199000091GA1001+999999999GF100991001001999999001001MA1999999094881MD1999999-0101OA150601541REMSYN076AAXX  23004 63866 32980 00000 10230 20158 39488 48/// 90250 333 55300 59010;EQDQ01  00002PRCP99
0245638660999992000022306004-06830+037650FM-12+0526HTMG V0200601N002112200019N0300001N1+02501+01531999999ADDAA199000091GA1011+030009039GF104991999001999999031011KA1120N+02181MA1999999095121OA150600571REMSYN106AAXX  23064 63866 32980 40604 10250 20153 39512 48/// 80031 90550 333 20218 51001 55110 55310 81360 84078;EQDQ01+000002SCOTLCQ02  00002PRCP99
0200638660999992000022400004-06830+037650FM-12+0526HTMG V0200501N006212200019N0300001N1+02381+01611999999ADDAA199000091GA1001+999999999GF100991001001999999001001MA1999999095041MD1999999+0161OA150601541REMSYN076AAXX  24004 63866 32980 00512 10238 20161 39504 48/// 92350 333 55300 58016;EQDQ01  00002PRCP99
0201638660999992000022406004-06830+037650FM-12+0526HTMG V0200501N003112200019N0300001N1+02501+01801999999ADDAA199000091GF101991011011004501001001KA1120N+02201MA1999999095251OA150600511REMSYN094AAXX  24064 63866 32480 10506 10250 20180 39525 48/// 81100 333 20220 51001 55106 55310 81818;EQDQ01  00002PRCP99
0212638660999992000022412004-06830+037650FM-12+0526HTMG V0200301N004112200019N0300001N1+03441+01391999999ADDAA199000091GA1011+008109029GF101991011011012501001001MA1999999095791MD1999999+0191OA150601601REMSYN088AAXX  24124 63866 32680 10308 10344 20139 39579 48/// 81100 91154 333 55310 58019 81827;EQDQ01  00002PRCP99
0207638660999992000022506004-06830+037650FM-12+0526HTMG V0200501N003612200019N0300001N1+02471+01991999999ADDAA199000091GF103991021011008001051001KA1120N+02121MA1999999095421OA150600511REMSYN100AAXX  25064 63866 32580 30507 10247 20199 39542 48/// 82150 90558 333 20212 50851 55101 55307 82821;EQDQ01  00002PRCP99
0229638660999992000022606004-06830+037650FM-12+0526HTMG V0200501N002612200019N0300001N1+02441+02001999999ADDAA199000091GA1011+007509089GF105991011081008001001011KA1120N+01941MA1999999095371OA150600461REMSYN106AAXX  26064 63866 32580 50505 10244 20200 39537 48/// 81801 90550 333 20194 50801 55099 55310 81825 84076;EQDQ01  00002PRCP99
0212638660999992000022612004-06830+037650FM-12+0526HTMG V0200601N003612200019N0300001N1+03411+01581999999ADDAA199000091GA1021+008409029GF102991021011008001001001MA1999999094931MD1999999-0111OA150601601REMSYN088AAXX  26124 63866 32580 20607 10341 20158 39493 48/// 82100 91150 333 55310 59011 82828;EQDQ01  00002PRCP99
0191638660999992000022615004-06830+037650FM-12+0526HTMG V0200601N003612200019N0300001N1+03411+01581999999ADDAA199000091GA1021+008409089GF102991021011008001001001MD1999999-0111OA150301601REMSYN082AAXX  26154 63866 32580 20607 10341 20158 48/// 82100 91150 333 55310 59011 82228;EQDQ01  00002PRCP99
0212638660999992000022712004-06830+037650FM-12+0526HTMG V0200201N001512200019N0300001N1+03541+02051999999ADDAA199000091GA1031+008409029GF103991031021008001001001MA1999999094691MD1999999-0241OA150601601REMSYN088AAXX  27124 63866 32580 30203 10354 20205 39469 48/// 83200 91150 333 55310 59024 83828;EQDQ01  00002PRCP99
0206638660999992000022718004-06830+037650FM-12+0526HTMG V0200901N005112200019N0300001N1+02881+01571999999ADDAA199000091GA1001+999999999GF100991001001999999001001MA1999999094811MD1999999-0171OA150601541REMSYN082AAXX  27184 63866 32980 00910 10288 20157 39481 48/// 91750 333 10/// 55300 59017;EQDQ01  00002PRCP99
0200638660999992000022800004-06830+037650FM-12+0526HTMG V0209999C000012200019N0300001N1+02081+01801999999ADDAA199000091GA1001+999999999GF100991001001999999001001MA1999999095051MD1999999+0071OA150601541REMSYN076AAXX  28004 63866 32980 00000 10208 20180 39505 48/// 92350 333 55300 58007;EQDQ01  00002PRCP99
0207638660999992000022806004-06830+037650FM-12+0526HTMG V0209999C000012200019N0300001N1+02481+02311999999ADDAA199000091GF101991011051008001001001KA1120N+01801MA1999999095241OA150600461REMSYN100AAXX  28064 63866 32580 10000 10248 20231 39524 48/// 81500 90550 333 20180 50810 55096 55310 81628;EQDQ01  00002PRCP99
0206638660999992000022818004-06830+037650FM-12+0526HTMG V0200701N002612200019N0300001N1+02831+01621999999ADDAA199000091GA1001+999999999GF100991001001999999001001MA1999999094991MD1999999+0181OA150601541REMSYN082AAXX  28184 63866 32980 00705 10283 20162 39499 48/// 91750 333 10/// 55300 58018;EQDQ01  00002PRCP99
0200638660999992000022900004-06830+037650FM-12+0526HTMG V0209999C000012200019N0300001N1+02201+01661999999ADDAA199000091GA1001+999999999GF100991001001999999001001MA1999999095031MD1999999-0021OA150601541REMSYN076AAXX  29004 63866 32980 00000 10220 20166 39503 48/// 92355 333 55300 59002;EQDQ01  00002PRCP99
0223638660999992000022906004-06830+037650FM-12+0526HTMG V0209999C000012200019N0300001N1+02671+01401999999ADDAA199000091GF102991999001999999031001KA1120N+02021MA1999999095251OA150601601REMSYN100AAXX  29064 63866 32980 20000 10267 20140 39525 48/// 80030 90850 333 20202 50951 55311 55308 82361;EQDQ01+000002SCOTLCQ02  00002PRCP99
0218638660999992000022912004-06830+037650FM-12+0526HTMG V0200501N003112200019N0300001N1+03511+01581999999ADDAA199000091GA1011+009609089GF103991011011012501001011MA1999999094761MD1999999-0101OA150601601REMSYN094AAXX  29124 63866 32680 30506 10351 20158 39476 48/// 81101 91155 333 55310 59010 81832 83076;EQDQ01  00002PRCP99
0218638660999992000030100004-06830+037650FM-12+0526HTMG V0209999C00001045001CN0300001N1+02421+02031999999ADDAA199000091GA1011+006609069GF105991011051008001051001MA1999999095071MD1999999+0041OA150601541REMSYN094AAXX  01004 63866 32580 50000 10242 20203 39507 48/// 81550 92350 333 55300 58004 81622 85358;EQDQ01  00002PRCP99
0284638660999992000030406004-06830+037650FM-12+0526HTMG V0202301N00261003601CN0150001N1+02081+02021999999ADDAA124024991AC11C9AY161061AY261061GA1031+001809079GA2041+003609069GF108991071051002501021999KA1120N+02041MA1999999095491MW1611OA150600511REMSYN136AAXX  04064 63866 /1365 82305 10208 20202 39549 48/// 60254 76166 8752/ 90250 333 0//11 20204 50801 55106 55300 60090 83706 84612 88458;
0284638660999992000030906004-06830+037650FM-12+0526HTMG V0209999C000010054019N0090001N1+01581+01481999999ADDAA124016091AC11C9AY161061AY261061GA1021+002109079GA2061+005409069GF108991061051002501021999KA1120N+01471MA1999999083211MD1999999+0001ME1315199MW1601REMSYN124AAXX  09064 63866 /1359 80000 10158 20148 38321 48519 60164 76066 8652/ 90550 333 0//11 20147 58000 70160 82707 86618 88458;
0244638660999992000031006004-06830+037650FM-12+0526HTMG V0209999C00001006001CN0300001N1+02301+02121999999ADDAA124016091GA1041+005409069GA2011+006009099GF107991041091004501071999KA1120N+02101MA1999999095281OA150600261REMSYN124AAXX  10064 63866 12480 70000 10230 20212 39528 48/// 60164 8497/ 90550 333 0//99 20210 50561 55059 55302 84618 81920 86458;
0218638660999992000031012004-06830+037650FM-12+0526HTMG V0202301N00101045001CN0300001N1+03271+01771999999ADDAA199000091GA1021+007809089GF106991021021008001051011MA1999999094781MD1999999-0101OA150601081REMSYN094AAXX  10124 63866 32580 62302 10327 20177 39478 48/// 82251 91150 333 55210 59010 82826 85359;EQDQ01  00002PRCP99
0227638660999992000031018004-06830+037650FM-12+0526HTMG V0200501N004110072019N0300001N1+02641+02251999999ADDAA199000021AY191061AY221061GA1051+007209069GF106991051091008001001001MA1999999095001MD1999999-0221MW1921OA150601541REMSYN100AAXX  10184 63866 31580 60508 10264 20225 39500 48/// 79292 85900 91750 333 55300 59022 85624 81927;
0241638660999992000031106004-06830+037650FM-12+0526HTMG V0200701N005112200019N0300001N1+02471+02111999999ADDAA124000791GA1031+004509069GF106991031051004501001011KA1120N+02251MA1999999095291OA150699999REMSYN118AAXX  11064 63866 12480 60710 10247 20211 39529 48/// 69904 83501 90550 333 0//19 20225 50551 55078 55310 83615 85072;EQDQ01  00362WGOSPD
0212638660999992000031112004-06830+037650FM-12+0526HTMG V0200501N002112200019N0300001N1+03101+01901999999ADDAA199000091GA1041+007509029GF104991041021008001001001MA1999999094901MD1999999+0121OA150601601REMSYN088AAXX  11124 63866 32580 40504 10310 20190 39490 48/// 84200 91150 333 55310 58012 84825;EQDQ01  00002PRCP99
0265638660999992000031118004-06830+037650FM-12+0526HTMG V0200501N007212200019N0300001N1+02561+02021999999ADDAA199000091AY121061AY221061GA1021+006309069GF102991021091008001001001KA1120M+03171MA1999999095011MD1999999+0011MW1131OA150601541REMSYN106AAXX  11184 63866 32580 20514 10256 20202 39501 48/// 71322 82900 91750 333 10317 55300 58001 82621 81922;EQDQ01  00002PRCP99
0218638660999992000031200004-06830+037650FM-12+0526HTMG V0200601N005112200019N0300001N1+02391+01981999999ADDAA199000091GA1031+005709069GF103991031091004501001001MA1999999095071MD1999999-0071OA150601541REMSYN094AAXX  12004 63866 32480 30610 10239 20198 39507 48/// 83900 92350 333 55300 59007 83619 81921;EQDQ01  00002PRCP99
0250638660999992000031206004-06830+037650FM-12+0526HTMG V0209999C000010450019N0300001N1+02301+02151999999ADDAA124000791AC11C9GA1031+005409069GA2011+006009099GF107991031091004501071999KA1120N+02241MA1999999095481OA150600051REMSYN124AAXX  12064 63866 12480 70000 10230 20215 39548 48/// 69904 8397/ 90550 333 0//11 20224 50601 55012 55300 83618 81920 85358;
0205638660999992000031212004-06830+037650FM-12+0526HTMG V0200501N00101045001CN0300001N1+02971+01971999999ADDAA106000791GA1041+006909089GF107991041021008001021011MA1999999095021MD1999999+0121OA150601601REMSYN100AAXX  12124 63866 12580 70502 10297 20197 39502 48/// 69901 84221 91150 333 55310 58012 84823 85458;
0237638660999992000031218004-06830+037650FM-12+0526HTMG V0202301N00101220001CN0300001N1+02521+02171999999ADDAA199000091GA1011+006909089GF107991011021008001001011KA1120M+03051MA1999999095071MD1999999+0061OA150601541REMSYN100AAXX  12184 63866 32580 72302 10252 20217 39507 48/// 81201 91750 333 10305 55300 58006 81823 87072;EQDQ01  00002PRCP99
0212638660999992000031300004-06830+037650FM-12+0526HTMG V0209999C000012200019N0300001N1+02101+02021999999ADDAA199000091GA1041+004509059GF104991041051004501001001MA1999999095141MD1999999+0071OA150601541REMSYN088AAXX  13004 63866 32480 40000 10210 20202 39514 48/// 84500 92350 333 55300 58007 84615;EQDQ01  00002PRCP99
0216638660999992000031306004-06830+037650FM-12+0526HTMG V0200901N001012200019N0300001N1+02551+02101999999ADDAA124000791GA1031+006909089GF105991031051004501001011KA1120N+02051MA1999999095231OA150600261REMSYN112AAXX  13064 63866 12480 50902 10255 20210 39523 48/// 69904 83501 90550 333 20205 50551 55054 55310 83823 85073;
0212638660999992000031312004-06830+037650FM-12+0526HTMG V0200401N003112200019N0300001N1+03201+02161999999ADDAA199000091GA1041+007509029GF104991041021008001001001MA1999999094901MD1999999-0121OA150601601REMSYN088AAXX  13124 63866 32580 40406 10320 20216 39490 48/// 84200 91150 333 55310 59012 84825;EQDQ01  00002PRCP99
0207638660999992000031406004-06830+037650FM-12+0526HTMG V0203301N002112200019N0300001N1+02601+02241999999ADDAA199000091GF103991031021008001051001KA1120N+02181MA1999999095321OA150600461REMSYN100AAXX  14064 63866 32580 33304 10260 20224 39532 48/// 83250 90556 333 20218 50551 55093 55307 83820;EQDQ01  00002PRCP99
0218638660999992000031412004-06830+037650FM-12+0526HTMG V0200501N00311012001CN0300001N1+03181+01951999999ADDAA199000091GA1021+007209069GF106991061081008001001001MA1999999095251MD1999999+0051OA150601601REMSYN094AAXX  14124 63866 32580 60506 10318 20195 39525 48/// 86800 91150 333 55310 58005 82624 85825;EQDQ01  00002PRCP99
0230638660999992000031417004-06830+037650FM-12+0526HTMG V0201201N001012200019N0300001N1+02301+02151999999ADDAA112003091AC12C9GA1031+006909029GF103991031021008001001021KA1120M+03221MA1999999095041MD1999999+0031OA159901541REMSYN106AAXX  14174 63866 12580 31202 10230 20215 39504 48/// 60032 83202 91750 333 0//12 10322 55300 58003 83823;
0230638660999992000031418004-06830+037650FM-12+0526HTMG V0201201N001012200019N0300001N1+02301+02151999999ADDAA112003091AC12C9GA1031+006909029GF103991031021008001001021KA1120M+03221MA1999999095041MD1999999+0031OA150601541REMSYN106AAXX  14184 63866 12580 31202 10230 20215 39504 48/// 60032 83202 91750 333 0//12 10322 55300 58003 83823;
0230638660999992000031506004-06830+037650FM-12+0526HTMG V0209999C000012200019N0300001N1+02521+02171999999ADDAA124003091GA1011+006009069GF104991041081008001001001KA1120N+02151MA1999999095321MD1999999+0001OA150601601REMSYN112AAXX  15064 63866 12580 40000 10252 20217 39532 48/// 60034 84800 90550 333 0//19 20215 55310 58000 81620 83822;
0212638660999992000031512004-06830+037650FM-12+0526HTMG V0209999C000010075019N0300001N1+03101+02071999999ADDAA199000091GA1051+007509029GF105991051021008001001001MA1999999094851MD1999999-0101OA150601541REMSYN088AAXX  15124 63866 32580 50000 10310 20207 39485 48/// 85200 91150 333 55303 59010 85825;EQDQ01  00002PRCP99
0252638660999992000031518004-06830+037650FM-12+0526HTMG V0201801N002112200019N0300001N1+02381+02111999999ADDAA112000791AY191061AY221061GA1021+006609089GF103991021091008001031031KA1120M+03211MA1999999095001MD1999999-0041MW1021OA150601541REMSYN112AAXX  15184 63866 12580 31804 10238 20211 39500 48/// 69902 70292 82933 91751 333 10321 55300 59004 82822 81923;
0200638660999992000031606004-06830+037650FM-12+0526HTMG V0202301N001512200019N0300001N1+02511+02171999999ADDAA124000791GF103991031021004501001001KA1120N+02221MA1999999095331OA150600411REMSYN112AAXX  16064 63866 12480 32303 10251 20217 39533 48/// 69904 83200 90550 333 0//19 20222 50551 55088 55310 83819;
0190638660999992000032016004-06830+037650FM-15+0526HTMG V0209999C000010240019N0112651N1+02401+02001999999ADDGA1021+007209029GA2021+007509099GA3071+024009999GF107991999999999999999999MA1101081999999MW1001REMMET064HTMG 201600Z 00000KT 9999 FEW024TCU FEW025CB BKN080 24/20 Q1011;EQDQ01+000000PRSWM2
0218638660999992000032100004-06830+037650FM-12+0526HTMG V0209999C00001045001CN0300001N1+02751+02091999999ADDAA199000091GA1021+006009069GF107991021051008001071999MA1999999095191MD1999999+0121OA150601541REMSYN094AAXX  21004 63866 32580 70000 10275 20209 39519 48/// 8257/ 92353 333 55300 58012 82620 87458;EQDQ01  00002PRCP99
0224638660999992000032106004-06830+037650FM-12+0526HTMG V0209999C000010054019N0300001N1+02421+02191999999ADDAA124013091GA1071+005409059GF107991071051004501071999KA1120N+02101MA1999999095351MD1999999+0001OA150601541REMSYN106AAXX  21064 63866 12480 70000 10242 20219 39535 48/// 60134 8757/ 90555 333 0//19 20210 55300 58000 87618;
0250638660999992000032112004-06830+037650FM-12+0526HTMG V0201701N002110054019N0150001N1+02291+01801999999ADDAA106011991AY191061AY261061GA1021+002409079GA2051+005409069GA3011+006009099GF108991999999002501999999MD1999999+0021MW1601OA150601541REMSYN106AAXX  21124 63866 11365 81704 10229 20180 48/// 60121 76096 91150 333 55300 58002 82708 85618 81920 88458;
0270638660999992000032118004-06830+037650FM-12+0526HTMG V0209999C00001045001CN0300001N1+02221+02191999999ADDAA115000591AC11I9AY161061AY221061GA1041+005109069GF108991041041004501021999KA1120M+03021MA1999999095201MD1999999+0041MW1021OA150601541REMSYN124AAXX  21184 63866 /1480 80000 10222 20219 39520 48/// 60162 70262 8442/ 91750 333 0//55 10302 55300 58004 69960 84617 86458;
0222638660999992000032206004-06830+037650FM-12+0526HTMG V0209999C00001005401CN0300001N1+02411+02221999999ADDAA124016091GA1051+005409089GF107991051021004501071999KA1120N+02181MA1999999095331OA150600151REMSYN118AAXX  22064 63866 12480 70000 10241 20222 39533 48/// 60164 8527/ 90550 333 0//59 20218 50281 55030 55307 85818 84358;
0218638660999992000032212004-06830+037650FM-12+0526HTMG V0200501N003610069019N0300001N1+03001+02121999999ADDAA199000091GA1051+006909089GF105991051091008001001001MA1999999094971MD1999999-0031OA150601601REMSYN094AAXX  22124 63866 32580 50507 10300 20212 39497 48/// 85900 91150 333 55310 59003 85823 81925;EQDQ01  00002PRCP99
0224638660999992000032318004-06830+037650FM-12+0526HTMG V0209999C00001045001CN0300001N1+02311+02191999999ADDAA112004191GA1011+005409069GF105991011051004501071001KA1120M+02871MA1999999095111MD1999999+0001OA150601541REMSYN106AAXX  23184 63866 12480 50000 10231 20219 39511 48/// 60042 81570 91755 333 10287 55300 58000 81618 84358;
0199638660999992000032412004-06830+037650FM-12+0526HTMG V0209999C000010072019N0300001N1+02801+02221999999ADDAA106000791GA1061+007209029GF106991061021008001999999MA1999999094901MD1999999-0111OA150601541REMSYN094AAXX  24124 63866 12580 60000 10280 20222 39490 48/// 69901 862// 91150 333 55305 59011 86824;
0218638660999992000032500004-06830+037650FM-12+0526HTMG V0209999C00001045001CN0300001N1+02201+02151999999ADDAA199000091GA1041+004509089GF107991041051004501031999MA1999999095101MD1999999+0071OA150601541REMSYN094AAXX  25004 63866 32480 70000 10220 20215 39510 48/// 8453/ 92350 333 55300 58007 84815 87358;EQDQ01  00002PRCP99
0256638660999992000032506004-06830+037650FM-12+0526HTMG V0209999C000010450019N0200001N1+02341+02131999999ADDAA124009991AC11C9AY161061AY221061GA1021+002409079GF107991021071002501041999KA1120N+02141MA1999999095361MW1611OA150600261REMSYN124AAXX  25064 63866 11370 70000 10234 20213 39536 48/// 60104 76162 8274/ 90550 333 0//61 20214 50431 55056 55300 82708 87458;
0230638660999992000032518004-06830+037650FM-12+0526HTMG V0209999C000012200019N0300001N1+02301+02121999999ADDAA112001091AC12I9GA1041+004809059GF104991041051004501001061KA1120M+02901MA1999999095231MD1999999+0211OA150601541REMSYN106AAXX  25184 63866 12480 40000 10230 20212 30523 49/// 60012 84506 91750 333 0//16 10290 55300 58021 84616;
0212638660999992000032612004-06830+037650FM-12+0526HTMG V0209999C000012200019N0300001N1+02901+02081999999ADDAA199000091GA1031+006909029GF103991031021008001001001MA1999999095091MD1999999-0051OA150601541REMSYN088AAXX  26124 63866 32580 30000 10290 20208 39509 48/// 83200 91150 333 55306 59005 83823;EQDQ01  00002PRCP99
0245638660999992000032712004-06830+037650FM-12+0526HTMG V0209999C00001045001CN0300001N1+02841+02251999999ADDAA106000191AC11C9AY121061AY221061GA1031+006609089GF106991031021008001071999MA1999999095131MD1999999+0041MW1801OA150601541REMSYN112AAXX  27124 63866 11580 60000 10284 20225 39513 48/// 69911 78022 8327/ 91150 333 0//11 55300 58004 83822 85458;
0193638660999992000032800004-06830+037650FM-12+0526HTMG V0209999C000012200019N0300001N1+02101+02071999999ADDAA199000021GA1011+005109059GF101991011051004501001001MA1999999095131MD1999999-0041OA150601541REMSYN088AAXX  28004 63866 32480 10000 10210 20207 39513 48/// 81500 92350 333 55300 59004 81617;
0261638660999992000032812004-06830+037650FM-12+0526HTMG V0209999C00001045001CN0300001N1+02281+02121999999ADDAA115013091AY161061AY221061GA1031+006009069GA2011+007509099GF107991031091008001021999MA1999999095071MD1999999-0061MW1211OA150601541REMSYN118AAXX  28124 63866 /1580 70000 10228 20212 39507 48/// 60131 72162 8392/ 91150 333 55300 59006 60130 83620 81925 87458;
0252638660999992000032818004-06830+037650FM-12+0526HTMG V0209999C000012200019N0300001N1+02181+02131999999ADDAA112001091AY161061AY221061GA1021+005409059GF102991021051004501001001KA1120M+02681MA1999999095251MD1999999+0061MW1211OA150601541REMSYN112AAXX  28184 63866 /1480 20000 10218 20213 39525 48/// 60142 72162 82500 91750 333 10268 55300 58006 60012 82618;
0193638660999992000032900004-06830+037650FM-12+0526HTMG V0209999C000010051019N0300001N1+02141+02111999999ADDAA199000021GA1071+005109059GF107991071051004501999999MA1999999095271MD1999999+0141OA150601541REMSYN088AAXX  29004 63866 32480 70000 10214 20211 39527 48/// 875// 92355 333 55300 58014 87617;
0222638660999992000032906004-06830+037650FM-12+0526HTMG V0209999C00001004501CN0300001N1+02321+02151999999ADDAA124014091GA1061+004509069GF106991061051004501071001KA1120N+02141MA1999999095461OA150600051REMSYN118AAXX  29064 63866 12480 60000 10232 20215 39546 48/// 60144 86570 90550 333 0//49 20214 50191 55018 55302 86615 84359;
0218638660999992000032912004-06830+037650FM-12+0526HTMG V0202301N001010072019N0300001N1+02951+02151999999ADDAA199000091GA1051+007209089GF106991051091008001071001MA1999999095091MD1999999+0021OA150601541REMSYN094AAXX  29124 63866 32580 62302 10295 20215 39509 48/// 85970 91150 333 55305 58002 85824 81928;EQDQ01  00002PRCP99
0230638660999992000032918004-06830+037650FM-12+0526HTMG V0209999C000012200019N0300001N1+02211+02101999999ADDAA112000891AC10I9GA1021+005409059GF102991021051004501001001KA1120M+03101MA1999999095301MD1999999+0051OA150601541REMSYN106AAXX  29184 63866 12480 20000 10221 20210 39530 48/// 69972 82500 91750 333 0//14 10310 55300 58005 82618;
0251638660999992000033006004-06830+037650FM-12+0526HTMG V0209999C000010450019N0300001N1+02321+02151999999ADDAA199000091GA1011+002109079GA2031+005109069GF106991031051002501031999KA1120N+02071MA1999999095451OA150600361REMSYN112AAXX  30064 63866 32380 60000 10232 20215 39545 48/// 8353/ 90550 333 20207 50301 55071 55306 81707 83617 85357;EQDQ01  00002PRCP99
0264638660999992000033018004-06830+037650FM-12+0526HTMG V0209999C00001007801CN0300001N1+02271+02131999999ADDAA115000791AC13C9GA1041+005409069GA2011+007809099GF108991041091004501021999KA1120M+03081MA1999999095181MD1999999-0121OA150601541REMSYN124AAXX  30184 63866 /2480 80000 10227 20213 39518 48/// 60092 8492/ 91750 333 0//13 10308 55300 59012 69900 84618 81926 88458;
0212638660999992000033100004-06830+037650FM-12+0526HTMG V0209999C000012200019N0300001N1+02071+02031999999ADDAA199000091GA1041+004509059GF104991041051004501001001MA1999999095231MD1999999+0021OA150601541REMSYN088AAXX  31004 63866 32480 40000 10207 20203 39523 48/// 84500 92350 333 55300 58002 84615;EQDQ01  00002PRCP99
0149638660999992000033106004-06830+037650FM-12+0526HTMG V0209999C000019999999N0300001N1+99999+99999999999ADDGF105991999999008001999999REMSYN111AAXX  31064 63866 12580 50000 0237 20212 39535 48/// 60094 85500 90550 333 0//19 20204 50281 55054 55310 85620;
0250638660999992000033112004-06830+037650FM-12+0526HTMG V0209999C00001045001CN0015001N1+02561+02181999999ADDAA106003091AC11C9AY121061GA1031+006609089GF106991031021000751021999MA1999999095181MD1999999+0011OA150601541REMSYN112AAXX  31124 63866 11115 60000 10256 20218 39518 48/// 60031 7682/ 8322/ 91150 333 0//21 55300 58001 83822 85458;EQDQ01+000682PRSWM1
0212638660999992000040112004-06830+037650FM-12+0526HTMG V0202001N001010072019N0300001N1+02851+02121999999ADDAA199000091GA1051+007209029GF105991051021008001001001MA1999999095051MD1999999-0131OA150601601REMSYN088AAXX  01124 63866 32580 52002 10285 20212 39505 48/// 85200 91155 333 55310 59013 85824;EQDQ01  00002PRCP99
0212638660999992000040200004-06830+037650FM-12+0526HTMG V0209999C000012200019N0300001N1+02051+01961999999ADDAA199000091GA1011+006309059GF101991011051008001001001MA1999999095231MD1999999+0071OA150601541REMSYN088AAXX  02004 63866 32580 10000 10205 20196 39523 48/// 81500 92351 333 55300 58007 81621;EQDQ01  00002PRCP99
0207638660999992000040206004-06830+037650FM-12+0526HTMG V0202301N001510075019N0300001N1+02301+02111999999ADDAA199000091GF105991051021008001001001KA1120N+01971MA1999999095321OA150600511REMSYN100AAXX  02064 63866 32580 52303 10230 20211 39532 48/// 85200 90550 333 20197 50401 55107 55306 85820;EQDQ01  00002PRCP99
0231638660999992000040218004-06830+037650FM-12+0526HTMG V0209999C000012200019N0300001N1+02441+02081999999ADDAA199000091GA1011+006609029GF101991011011008001001001KA1120M+03221MA1999999095151MD1999999+0041OA150601541REMSYN094AAXX  02184 63866 32580 10000 10244 20208 39515 48/// 81100 91750 333 10322 55300 58004 81822;EQDQ01  00002PRCP99
0251638660999992000040300004-06830+037650FM-12+0526HTMG V0202301N00211045001CN0300001N1+02221+02111999999ADDAA115010991AC11I9AY181061AY221061GA1031+005409069GF106991031081004501071999MA1999999095081MD1999999-0151MW1021OA150601541REMSYN118AAXX  03004 63866 /1480 62304 10222 20211 39508 48/// 60181 70282 8387/ 90235 333 0//35 55300 59015 60110 83618 85358;
0256638660999992000040306004-06830+037650FM-12+0526HTMG V0209999C00001005101CN0300001N1+02321+02201999999ADDAA124018091AC13C9AY181061AY261061GA1051+005109089GF107991051081004501011999KA1120N+02091MA1999999095341MW1021OA150600511REMSYN124AAXX  03064 63866 11480 70000 10232 20220 39534 48/// 60184 70286 8581/ 90550 333 0//33 20209 50301 55100 55300 85817 85458;
0212638660999992000040312004-06830+037650FM-12+0526HTMG V0200801N001510072019N0300001N1+02951+02161999999ADDAA199000091GA1061+007209029GF106991061021008001001001MA1999999094951MD1999999-0061OA150601541REMSYN088AAXX  03124 63866 32580 60803 10295 20216 39495 48/// 86200 91150 333 55306 59006 86824;EQDQ01  00002PRCP99
0227638660999992000040406004-06830+037650FM-12+0526HTMG V0209999C000010042019N0300001N1+02551+02241999999ADDAA199000091GF105991051021004501001001KA1120N+02131MA1999999095331MD1999999+0011OA150600361REMSYN106AAXX  04064 63866 32480 50000 10255 20224 39533 48/// 85200 90550 333 20213 40451 55070 55310 58001 85818;EQDQ01  00002PRCP99
0212638660999992000040412004-06830+037650FM-12+0526HTMG V0202401N001512200019N0300001N1+03121+02181999999ADDAA199000091GA1041+007209029GF104991041021008001001001MA1999999094901MD1999999-0051OA150601601REMSYN088AAXX  04124 63866 32580 42403 10312 20218 39490 48/// 84200 91150 333 55310 59005 84824;EQDQ01  00002PRCP99
0231638660999992000040418004-06830+037650FM-12+0526HTMG V0209999C000012200019N0300001N1+02421+02061999999ADDAA199000091GA1011+006909099GF101991011091008001031001KA1120M+03281MA1999999095041MD1999999-0011OA150601541REMSYN094AAXX  04184 63866 32580 10000 10242 20206 39504 48/// 81930 91750 333 10328 55300 59001 81923;EQDQ01  00002PRCP99
0218638660999992000040500004-06830+037650FM-12+0526HTMG V0209999C000012200019N0300001N1+02251+02131999999ADDAA199000091GA1041+005409069GF104991041091004501001001MA1999999095021MD1999999-0111OA150601541REMSYN094AAXX  05004 63866 32480 40000 10225 20213 39502 48/// 84900 92350 333 55300 59011 84618 81920;EQDQ01  00002PRCP99
0220638660999992000040506004-06830+037650FM-12+0526HTMG V0209999C000010048019N0300001N1+02481+02221999999ADDAA199000091GA1061+004809059GF106991061051004501999999KA1120N+02141MA1999999095311MD1999999-0021REMSYN094AAXX  05064 63866 32480 60000 10248 20222 39531 48/// 865// 90558 333 20214 50701 59002 86616;EQDQ01  00002PRCP99
0164638660999992000040512004-06830+037650FM-12+0526HTMG V0209999C000010450019N0300001N1+02501+02151999999ADDAA106013091AY191061AY261061GF107991031091008001071999MA1999999094971MW1021REMSYN078AAXX  05124 63866 11580 70000 10250 20215 39497 48/// 60131 70296 8397/ 91150;
0267638660999992000040612004-06830+037650FM-12+0526HTMG V0202001N002610072019N0300001N1+02461+02291999999ADDAA106001091AC11C9AY191061AY221061GA1061+007209089GA2011+007809099GF107991061091008001021999MA1999999094941MD1999999-0031MW1801OA150601541REMSYN118AAXX  06124 63866 11580 72005 10246 20229 39494 48/// 60011 78092 8692/ 91155 333 0//11 55300 59003 86824 81926 87458;
0193638660999992000040700004-06830+037650FM-12+0526HTMG V0209999C000012200019N0300001N1+02201+02171999999ADDAA199000021GA1021+005409029GF102991021021004501001001MA1999999095191MD1999999+0001OA150601541REMSYN088AAXX  07004 63866 32480 20000 10220 20217 39519 48/// 82200 92350 333 55300 58000 82818;
0228638660999992000040706004-06830+037650FM-12+0526HTMG V0202301N000519999999N0300001N1+02451+02231999999ADDAA124006191AC10I9GA1041+004809069GF107991011021004501999999KA1120N+02161MA1999999095351OA150600211REMSYN118AAXX  07064 63866 12480 72301 10245 20223 39535 48/// 60064 812// 90555 333 0//64 20216 50351 55045 55300 84616 83818;
0234638660999992000040712004-06830+037650FM-12+0526HTMG V0200501N003110072019N0300001N1+02741+02191999999ADDAA199000091GA1021+005409069GA2061+007209089GF107991071091004501999999MA1999999094991MD1999999+0051OA150601541REMSYN094AAXX  07124 63866 32480 70506 10274 20219 39499 48/// 879// 333 55309 58005 82618 86824 81926;EQDQ01  00002PRCP99
0200638660999992000040806004-06830+037650FM-12+0526HTMG V0209999C000010042019N0300001N1+02411+02231999999ADDAA124001091GF107991051021004501011999KA1120N+02171MA1999999095371OA150600311REMSYN112AAXX  08064 63866 12480 70000 10241 20223 39537 48/// 60014 8521/ 90555 333 0//19 20217 50341 55065 55302 85818;
0212638660999992000040812004-06830+037650FM-12+0526HTMG V0200701N001512200019N0300001N1+03051+02101999999ADDAA199000091GA1031+007209029GF103991031021008001001001MA1999999095041MD1999999+0051OA150601601REMSYN088AAXX  08124 63866 32580 30703 10305 20210 39504 48/// 83200 91150 333 55310 58005 83824;EQDQ01  00002PRCP99
0207638660999992000040906004-06830+037650FM-12+0526HTMG V0209999C000012200019N0300001N1+02471+02221999999ADDAA199000091GF102991021021004501001001KA1120N+02081MA1999999095421OA150600411REMSYN100AAXX  09064 63866 32480 20000 10247 20222 39542 48/// 82200 90550 333 20208 50401 55083 55310 82817;EQDQ01  00002PRCP99
0212638660999992000040912004-06830+037650FM-12+0526HTMG V0209999C000012200019N0300001N1+03071+02091999999ADDAA199000091GA1041+007509029GF104991041021008001001001MA1999999095021MD1999999-0021OA150601541REMSYN088AAXX  09124 63866 32580 40000 10307 20209 39502 48/// 84200 91150 333 55306 59002 84825;EQDQ01  00002PRCP99
0231638660999992000040918004-06830+037650FM-12+0526HTMG V0209999C000012200019N0300001N1+02401+02151999999ADDAA199000091GA1011+006609069GF101991011091008001031001KA1120M+03261MA1999999095091MD1999999-0041OA150601541REMSYN094AAXX  09184 63866 32580 10000 10240 20215 39509 81930 91751 333 10326 55300 59004 81622 81924;EQDQ01  00002PRCP99
0234638660999992000041000004-06830+037650FM-12+0526HTMG V0209999C000012200019N0300001N1+02211+02131999999ADDAA199000091GA1011+005709069GF101991011091004501011001MA1999999094192MD1999999+0061OA150601541REMSYN094AAXX  10004 63866 32480 10000 10221 20213 39419 48/// 81910 92351 333 55300 58006 81619 81921;EQDQ01+094193APOSP Q02  00002PRCP99
0241638660999992000041206004-06830+037650FM-12+0526HTMG V0202401N002610090019N0300001N1+02301+02101999999ADDAA124003091GA1041+003909069GF105991051081004501001001KA1120N+02181MA1999999095491OA150699999REMSYN118AAXX  12064 63866 32480 52405 10230 20210 39549 48/// 60034 85800 90550 333 0//19 20218 50271 55037 55300 84613 83817;EQDQ01  00152WGOSPD
0286638660999992000041212004-06830+037650FM-12+0526HTMG V0201401N00151045001CN0300001N1+02651+02431101281ADDAA106002091AC11C9AY161061AY221061GA1031+006009089GA2011+006609099GF107991031091008001071999MA1999999100992MD1999999+0141MW1211OA150601541REMSYN118AAXX  12124 63866 11580 71403 10265 20243 30099 40128 60021 72162 8397/ 91150 333 0//11 55300 58014 83820 81922 87459;EQDQ01+100993APOSP 
0206638660999992000041306004-06830+037650FM-12+0526HTMG V0209999C000012200019N0300001N1+02331+02141999999ADDAA124000791AC13C9GF104991041081004501001001KA1120N+01061MA1999999095421OA150600411REMSYN112AAXX  13064 63866 12480 40000 10233 20214 39542 48/// 69904 84800 90850 333 0//13 20106 50351 55086 55310 84618;
0216638660999992000041312004-06830+037650FM-12+0526HTMG V0201401N003110069019N0250001N1+02761+01991999999ADDAY121061AY221061GA1051+006909089GF107991051081008001071999MA1999999094991MD1999999-0141MW1151OA150601541REMSYN100AAXX  13124 63866 21575 71406 10276 20199 39499 48/// 71522 8587/ 91150 333 55302 59014 85823 86358;
0236638660999992000041406004-06830+037650FM-12+0526HTMG V0202301N002110450019N0300001N1+02201+02051999999ADDAA124022191GA1031+005409069GF106991031051004501031999KA1120N+01871MA1999999095441MD1999999+0011OA150600261REMSYN118AAXX  14064 63866 12480 62304 10220 20205 39544 48/// 60224 8353/ 90550 333 0//19 20187 50331 55052 58001 83618 86360;
0229638660999992000041606004-06830+037650FM-12+0526HTMG V0209999C000010450019N0300001N1+02151+02121999999ADDAA199000091GA1041+004809069GF107991041051004501071999KA1120N+02001MA1999999095511OA150600511REMSYN106AAXX  16064 63866 32480 70000 10215 20212 39551 48/// 8457/ 90550 333 20200 50351 55101 55300 84616 87458;EQDQ01  00002PRCP99
0229638660999992000041706004-06830+037650FM-12+0526HTMG V0202701N002610090019N0300001N1+02321+02101999999ADDAA199000091GA1031+003609069GF106991061081004501001001KA1120N+02041MA1999999095551OA150600461REMSYN106AAXX  17064 63866 32480 62705 10232 20210 39555 48/// 86800 90555 333 20204 50501 55090 55308 83612 84823;EQDQ01  00002PRCP99
0229638660999992000041806004-06830+037650FM-12+0526HTMG V0201801N001010120019N0300001N1+02281+02121999999ADDAA199000091GA1031+006009069GF106991051081008001051999KA1120N+02121MA1999999095351OA150600411REMSYN106AAXX  18064 63866 32580 61802 10228 20212 39535 48/// 8585/ 90555 333 20212 50401 55086 55300 83620 88821;EQDQ01  00002PRCP99
0262638660999992000042006004-06830+037650FM-12+0526HTMG V0209999C000012200019N0200001N1+02261+02101999999ADDAA124002091AC11C9AY121061AY221061GA1011+003009079GF104991041051002501001001KA1120N+02101MA1999999095551MW1501OA150600461REMSYN130AAXX  20064 63866 /1370 40000 10226 20210 39555 48/// 60024 75022 84500 90550 333 0//11 20210 50171 55095 55302 69900 81710 84618;
0262638660999992000042106004-06830+037650FM-12+0526HTMG V0209999C00001004501CN0300001N1+02101+02051999999ADDAA124007191AC11C9AY161061AY221061GA1051+004509069GF107991051051004501021999KA1120N+02041MA1999999095531MW1021OA150600311REMSYN130AAXX  21064 63866 /1480 70000 10210 20205 39553 48/// 60074 70262 8552/ 90550 333 0//11 20204 50031 55061 55300 60030 85615 87458;
0258638660999992000042206004-06830+037650FM-12+0526HTMG V0209999C00001006001CN0300001N1+02271+02171999999ADDAA124007991AC11C9GA1011+003009079GA2031+003609069GF106991061081002501001001KA1120N+02121MA1999999095571MD1999999+0241OA150601541REMSYN118AAXX  22064 63866 12380 60000 10227 20217 39557 48/// 60084 86800 90550 333 0//91 20212 55300 58024 81710 83612 84824;
0284638660999992000042906004-06830+037650FM-12+0526HTMG V0209999C000010450019N0300001N1+02161+02101999999ADDAA124008991AC11C9AY161061AY221061GA1011+002409079GA2041+004509069GF107991041051001501021999KA1120N+02061MA1999999095691MW1211OA150600211REMSYN136AAXX  29064 63866 /1280 70000 10216 20210 39569 48/// 60094 72162 8452/ 90555 333 0//11 20206 50271 55045 55300 69980 81708 84615 86658;
0262638660999992000043006004-06830+037650FM-12+0526HTMG V0209999C000010042019N0300001N1+02251+02171999999ADDAA124007991AC11C9AY161061AY221061GA1011+003009079GF106991061051004501999999KA1120N+02101MA1999999095681MW1211OA150600101REMSYN130AAXX  30064 63866 /1480 60000 10225 20217 39568 48/// 60084 72162 865// 90550 333 0//61 20210 50011 55022 55300 69940 81710 86616;
0216638660999992000050106004-06830+037650FM-12+0526HTMG V0209999C000010450019N0300001N1+02301+02001999999ADDAA124000591GA1041+006009069GF107991041051008001071999KA1120N+02191MA1999999095491OA150600261REMSYN112AAXX  01064 63866 12580 70000 10230 20200 39549 48/// 69964 8457/ 90550 333 20219 50211 55054 55300 84620 86458;
0230638660999992000050206004-06830+037650FM-12+0526HTMG V0209999C000010039019N0300001N1+02231+02111999999ADDAA124002091AC13C9GA1071+003909059GF108991071051008001999999KA1120N+02121MA1999999095601MD1999999+0111OA150601541REMSYN106AAXX  02064 63866 12580 80000 10223 20211 39560 48/// 60024 875// 90550 333 0//13 20212 55300 58011 87613;
0250638660999992000050306004-06830+037650FM-12+0526HTMG V0209999C00001004201CN0300001N1+02201+02131999999ADDAA124002091AY161061AY221061GA1061+004209069GF107991061081004501051999KA1120N+02101MA1999999095661MW1021OA150600051REMSYN124AAXX  03064 63866 /1480 70000 10220 20213 39566 48/// 60024 70262 8685/ 90556 333 0//19 20210 50121 55012 553// 86614 84358;
0200638660999992000050406004-06830+037650FM-12+0526HTMG V0209999C000012200019N0300001N1+02121+02011999999ADDAA124002091GF102991021081004501001001KA1120N+01831MA1999999095721OA150600001REMSYN112AAXX  04064 63866 12480 20000 10212 20201 39572 48/// 60024 82800 90550 333 0//19 20183 50271 55000 55310 82818;
0275638660999992000050806004-06830+037650FM-12+0526HTMG V0203301N00101004201CN0300001N1+02121+02041999999ADDAA124004191AY161061AY221061GA1051+004209069GF106991051081004501011999KA1120N+02031MA1999999095591MW1601OA150699999REMSYN130AAXX  08064 63866 /1480 63302 10212 20204 39559 48/// 60044 76062 8581/ 90556 333 0//19 20203 50151 55017 55300 69920 85614 83358;EQDQ01  00052WGOSPD
0194638660999992000050906004-06830+037650FM-12+0526HTMG V0209999C000012200019N0300001N1+02251+01981999999ADDAA124000791GF103991021021004501001011KA1120N+01951MA1999999095651OA150600001REMSYN106AAXX  09064 63866 12480 30000 10225 20198 39565 48/// 69904 82201 90550 333 20195 50201 55005 55310 82818;
0194638660999992000051006004-06830+037650FM-12+0526HTMG V0202301N001012200019N0300001N1+02251+01991999999ADDAA124000191GF104991041021001501001001KA1120N+01851MA1999999095601OA150600461REMSYN106AAXX  10064 63866 1/280 42302 10225 20199 39560 48/// 69914 84200 90550 333 20185 50401 55091 55310 84818;
0207638660999992000051106004-06830+037650FM-12+0526HTMG V0209999C000012200019N0300001N1+02231+01991999999ADDAA199000091GF101991011011008001001001KA1120N+01801MA1999999095601OA150600411REMSYN100AAXX  11064 63866 32580 10000 10223 20199 39560 48/// 81100 90550 333 20180 50401 55085 553// 81820;EQDQ01  00002PRCP99
0211638660999992000051306004-06830+037650FM-12+0526HTMG V0209999C000010090019N0300001N1+02241+02111999999ADDAA124000191GA1031+004209069GF106991051081004501051999KA1120N+02091MA1999999095651REMSYN118AAXX  13064 63866 12480 60000 10224 20211 39565 48/// 69924 8585/ 90556 333 0//19 20209 50271 55/// 553// 83614 84816;
0211638660999992000051506004-06830+037650FM-12+0526HTMG V0209999C000010450019N0300001N1+02201+02081999999ADDAA124000891GA1041+004809089GF107991041081004501031999KA1120N+02051MA1999999095801REMSYN118AAXX  15064 63866 12480 70000 10220 20208 39580 48/// 69984 8483/ 90550 333 0//19 20205 50331 55/// 553// 84816 82357;
0161638660999992000051606004-06830+037650FM-12+0526HTMG V0202101N001519999999N0300001N1+02201+02061999999ADDGF107991999999008001999999REMSYN123AAXX  16064 63866 12580 72103 10220 20206 3957 48/// 60024 8357/ 90550 333 0//12 20207 50141 55/// 553// 69930 83620 86359;
0259638660999992000052206004-06830+037650FM-12+0526HTMG V0209999C00001045001CN0300001N1+02181+01931999999ADDAA199000091GA1011+006009069GA2031+006909089GF106991031081008001031001KA1120N+01901MA1999999095761MD1999999+0161OA150601541REMSYN106AAXX  22064 63866 32580 60000 10218 20193 39576 48/// 83830 90550 333 20190 55301 58016 81620 83823 85358;EQDQ01  00002PRCP99
0207638660999992000052306004-06830+037650FM-12+0526HTMG V0209999C000012200019N0300001N1+02141+01961999999ADDAA199000091GF101991011011004501001001KA1120N+01731MA1999999095731OA150600361REMSYN100AAXX  23064 63866 32480 10000 10214 20196 39573 48/// 81100 90550 333 20173 50401 55077 55310 81817;EQDQ01  00002PRCP99
0207638660999992000052406004-06830+037650FM-12+0526HTMG V0202401N001512200019N0300001N1+02111+01851999999ADDAA199000091GF103991031021008001001001KA1120N+01641MA1999999095681OA150600311REMSYN100AAXX  24064 63866 32580 32403 10211 20185 39568 48/// 83200 90550 333 20164 50301 55063 55310 83823;EQDQ01  00002PRCP99
0207638660999992000052506004-06830+037650FM-12+0526HTMG V0202401N002110042019N0300001N1+02211+01871999999ADDAA199000091GF105991051051004501001001KA1120N+01771MA1999999095751OA150600361REMSYN100AAXX  25064 63866 32480 52404 10221 20187 39575 48/// 85500 90550 333 20177 50351 55073 55302 85615;EQDQ01  00002PRCP99
0207638660999992000052606004-06830+037650FM-12+0526HTMG V0209999C000012200019N0300001N1+02151+02001999999ADDAA199000091GF102991021021008001001001KA1120N+01771MA1999999095641OA150600261REMSYN100AAXX  26064 63866 32580 20000 10215 20200 39564 48/// 82200 90555 333 20177 50251 55054 55308 82823;EQDQ01  00002PRCP99
0207638660999992000053006004-06830+037650FM-12+0526HTMG V0200201N001012200019N0300001N1+02201+01991999999ADDAA199000091GF106991041051004501001011KA1120N+01611MA1999999095781OA150600261REMSYN100AAXX  30064 63866 32480 60202 10220 20199 39578 48/// 84501 90550 333 20161 50301 55055 55310 84617;EQDQ01  00002PRCP99
0207638660999992000053106004-06830+037650FM-12+0526HTMG V0201801N001512200019N0300001N1+02001+01681999999ADDAA199000091GF102991011051008001031001KA1120N+01471MA1999999095791OA150600461REMSYN100AAXX  31064 63866 32580 21803 10200 20168 39579 48/// 81530 90555 333 20147 50401 55090 55310 81624;EQDQ01  00002PRCP99
0207638660999992000060106004-06830+037650FM-12+0526HTMG V0202701N001512200019N0300001N1+02021+01581999999ADDAA199000091GF101991011061008001001001KA1120N+01531MA1999999095821OA150600411REMSYN100AAXX  01064 63866 32580 12703 10202 20158 39582 48/// 81600 90550 333 20153 50301 55081 55310 81620;EQDQ01  00002PRCP99
0201638660999992000060206004-06830+037650FM-12+0526HTMG V0202301N001512200019N0300001N1+02061+01711999999ADDAA199000091GF101991011021008001001001KA1120N+01531MA1999999095331OA150600461REMSYN094AAXX  02064 63866 32580 12303 10206 20171 39533 48/// 81200 333 20153 50401 55097 55310 81825;EQDQ01  00002PRCP99
