0124654590999992000010121004+06080-000250FM-12+0167DGKK V0209999C000010033019N0100001N1+02531+02271999999ADDGA1061+003309059GF106991061061004501001001REMSYN070AAXX  01214 65459 4/460 60000 10253 20227 4//// 71000 86600 333 86611;
0148654590999992000010200004+06080-000250FM-12+0167DGKK V02099999999992200019N0140001N1+02411+02241999999ADDAA106000091GA1031+033009079GF103991031001999999051001REMSYN064AAXX  02004 65459 32964 3/000 10241 20224 4//// 83050 333 83361;EQDQ01  00002PRCP06
0182654590999992000010206004+06080-000250FM-12+0167DGKK V0209999C000010033019N0140001N1+02301+02221999999ADDAA124000791AY161061AY221061GA1071+003309059GF107991071051004501999999KA1120N+02221MW1031REMSYN082AAXX  02064 65459 11464 70000 10230 20222 4//// 69904 70362 875// 333 20222 87611;
0124654590999992000010215004+06080-000250FM-12+0167DGKK V0201801N00051009001CN0180001N1+03001+02431999999ADDGA1031+003909069GF107991061081004501031999REMSYN070AAXX  02154 65459 42468 71801 10300 20243 4//// 8683/ 333 83613 87362;
0134654590999992000010309004+06080-000250FM-12+0167DGKK V0202701N000512200019N0100001N1+02651+02441999999ADDAY101031AY201031GA1001+999999999GF100991001001999999001001MW1101REMSYN058AAXX  03094 65459 41960 02701 10265 20244 4//// 71000 333;
0137654590999992000010315004+06080-000250FM-12+0167DGKK V0209999V025722200019N0150001N1+03451+01761999999ADDAY101031AY201031GF101991999999999999999999MW1051REMSYN058AAXX  03154 65459 41965 19950 10345 20176 4//// 70500 333;EQDQ01+002573WOSPD 
0134654590999992000010409004+06080-000250FM-12+0167DGKK V0209999C000012200019N0100001N1+02481+02211999999ADDAY101031AY201031GA1001+999999999GF100991001001999999001001MW1101REMSYN058AAXX  04094 65459 41960 00000 10248 20221 4//// 71000 333;
0164654590999992000010412004+06080-000250FM-12+0167DGKK V0200901N002112200019N0100001N1+03161+01761999999ADDAA106000091AY101061AY201061GA1001+999999999GF100991001001999999001001MW1051REMSYN058AAXX  04124 65459 31960 00904 10316 20176 4//// 70500 333;EQDQ01  00002PRCP06
0134654590999992000010421004+06080-000250FM-12+0167DGKK V0209999C000012200019N0120001N1+02461+02191999999ADDAY111031AY211031GA1001+999999999GF100991001001999999001001MW1101REMSYN058AAXX  04214 65459 41962 00000 10246 20219 4//// 71011 333;
0173654590999992000010506004+06080-000250FM-12+0167DGKK V02099999999999999999N0170001N1+02001+99999999999ADDAA106000091AY101061AY201061GF105991051001004501001001KA1999N+02051MW1101REMSYN070AAXX  05064 65459 31467 5//// 1020/ 20202 4//// 71000 85000 333 20205;EQDQ01  00002PRCP06
0146654590999992000010509004+06080-000250FM-12+0167DGKK V0201801N000512200019N0100001N1+02561+02221999999ADDAY101031AY201031GA1041+075009019GF104991001001999999001021MW1101REMSYN070AAXX  05094 65459 41960 41801 10256 20222 4//// 71000 80002 333 84075;
0148654590999992000010512004+06080-000250FM-12+0167DGKK V0201401N001512200019N0150001N1+03051+02101999999ADDAA106000091GA1031+075009019GF103991001001999999001021REMSYN064AAXX  05124 65459 32965 31403 10305 20210 4//// 80002 333 83075;EQDQ01  00002PRCP06
0179654590999992000010518004+06080-000250FM-12+0167DGKK V0200901N000512200019N0120001N1+02901+01821999999ADDAA100999999AY101061AY201061GF103991001001999999001021KA1120M+03381MW1051REMSYN076AAXX  05184 65459 31962 30901 10290 20182 4//// 70500 80002 333 10338 6541/;EQDQ01  54102PRCP00
0148654590999992000010606004+06080-000250FM-12+0167DGKK V0209999C000012200019N0140001N1+02171+01981999999ADDAA106000091GA1021+033009079GF102991021001999999031001REMSYN064AAXX  06064 65459 32964 20000 10217 20198 4//// 82030 333 82361;EQDQ01  00002PRCP06
0183654590999992000010706004+06080-000250FM-12+0167DGKK V0209999C000012200019N0100001N1+01901+01831999999ADDAA106000091AY101061AY201061GA1001+999999999GF100991001001999999001001KA1999N+01551MW1101REMSYN064AAXX  07064 65459 31960 00000 10190 20183 4//// 71000 333 20155;EQDQ01  00002PRCP06
0152654590999992000010809004+06080-000250FM-12+0167DGKK V0209999C00001220001CN0100001N1+02371+02111999999ADDAY111031AY211031GA1031+003609069GF106991031051004501001061MW1101REMSYN076AAXX  08094 65459 41460 60000 10237 20211 4//// 71011 83506 333 83612 86275;
0182654590999992000010812004+06080-000250FM-12+0167DGKK V0203201N00101220001CN0100001N1+02841+02191999999ADDAA106000091AY111061AY211061GA1021+003609069GF106991021051004501001061MW1051REMSYN076AAXX  08124 65459 31460 63202 10284 20219 4//// 70511 82506 333 82612 86275;EQDQ01  00002PRCP06
0140654590999992000010909004+06080-000250FM-12+0167DGKK V0209999C000010750019N0120001N1+02421+99999999999ADDAY111031AY211031GA1051+075009019GF105991001001999999001021MW1101REMSYN064AAXX  09094 65459 41962 53200 10242 2221/ 71011 80002 333 85075;
0177654590999992000010911004+06080-000250FM-12+0167DGKK V0201401N000511050019N0150001N1+02901+02161999999ADDAA106000091AY111999AY211999GF106991041051004501001021KA1120M+03711MW1051REMSYN074AAXX  09114 65459 31465 61401 10290 20216 4//// 70511 84502 333 10371 555;EQDQ01  00002PRCP06
0176654590999992000010912004+06080-000250FM-12+0167DGKK V0203201N000512200019N0140001N1+03151+02271999999ADDAA106000091AY111061AY211061GA1041+066009019GF104991001001999999001021MW1051REMSYN070AAXX  09124 65459 31964 43201 10315 20227 4//// 70511 80002 333 84072;EQDQ01  00002PRCP06
0168654590999992000010915004+06080-000250FM-12+0167DGKK V0201401N00051220001CN0150001N1+99999+99999999999ADDAY111031AY211031GA1011+003909069GA2031+005409089GF106991031081004501001061MW1051REMSYN076AAXX  09154 65459 41465 61401 20234 4//// 70511 83806 333 81613 83818 85275;
0201654590999992000010918004+06080-000250FM-12+0167DGKK V0201401N00051105001CN0150001N1+02901+02161999999ADDAA106000091AY111061AY211061GA1041+003909069GF106991041051004501001021KA1120M+03351MW1051REMSYN082AAXX  09184 65459 31465 61401 10290 20216 4//// 70511 84502 333 10335 84613 83075;EQDQ01  00002PRCP06
0164654590999992000011000004+06080-000250FM-12+0167DGKK V0209999C000012200019N0150001N1+02351+02201999999ADDAA106000091AY111061AY211061GA1001+999999999GF100991001001999999001001MW1101REMSYN058AAXX  10004 65459 31965 00000 10235 20220 4//// 71011 333;EQDQ01  00002PRCP06
0164654590999992000011004004+06080-000250FM-12+0167DGKK V0209999C000012200019N0150001N1+02351+02201999999ADDAA106000091AY111999AY211999GA1001+999999999GF100991001001999999001001MW1101REMSYN058AAXX  10044 65459 31965 00000 10235 20220 4//// 71011 333;EQDQ01  00002PRCP06
0195654590999992000011006004+06080-000250FM-12+0167DGKK V0209999C000010033019N0100001N1+02101+02021999999ADDAA106000091AY111061AY211061GA1061+003309059GF106991061051004501001001KA1120N+02011MW1101REMSYN076AAXX  10064 65459 31460 60000 10210 20202 4//// 71011 86500 333 20201 86611;EQDQ01  00002PRCP06
0124654590999992000011009004+06080-000250FM-12+0167DGKK V0203601N000512200019N0170001N1+02651+02361999999ADDGA1011+003609069GF104991041081004501001001REMSYN070AAXX  10094 65459 41467 43601 10265 20236 4//// 84800 333 81612 84817;
0198654590999992000011012004+06080-000250FM-12+0167DGKK V0200501N000512200019N0100001N1+03201+02181999999ADDAA106000091AY111061AY211061GA1041+004209069GF199999071081004501011011MW1051REMSYN076AAXX  10124 65459 31460 30501 10320 20218 4//// 70511 87811 333 84614 86817;EQDQ01+000032SCOTCVQ02  00002PRCP06
0146654590999992000011015004+06080-000250FM-12+0167DGKK V0209999999999009001CN0100001N1+03211+99999999999ADDAY111031AY211031GA1021+003909069GF105991051081004501001001MW1051REMSYN070AAXX  10154 65459 41460 52/02 10321 4//// 70511 85800 333 82613 84807;
0216654590999992000011018004+06080-000250FM-12+0167DGKK V0202301N00101105001CN0100001N1+02801+02371999999ADDAA112004191AY191061AY261061GA1011+009009099GA2031+075009009GF106991041051004501001031KA1120M+03401MW1171REMSYN100AAXX  10184 65459 11460 62302 10280 20237 4//// 60042 71796 84503 333 10340 83075 81930 94571 95708;
0176654590999992000011106004+06080-000250FM-12+0167DGKK V0209999C000010033019N0080001N1+02151+02081999999ADDAA124004191AY111061AY211061GA1061+003309059GF106991999999004501999999KA1120N+02131MW1101REMSYN076AAXX  11064 65459 11458 60000 10215 20208 4//// 60044 71011 333 20213 86611;
0118654590999992000011121004+06080-000250FM-12+0167DGKK V0209999C000012200019N0150001N1+02601+02311999999ADDGA1041+003609059GF104991041051004501001001REMSYN064AAXX  11214 65459 42465 40000 10260 20231 4//// 84500 333 84612;
0195654590999992000011218004+06080-000250FM-12+0167DGKK V0203201N000510330019N0150001N1+02901+02421999999ADDAA106000091GA1021+003909069GA2041+033009039GF106991031081004501051021KA1120M+03211REMSYN082AAXX  12184 65459 32465 63201 10290 20242 4//// 83852 333 10321 82613 84361 85075;EQDQ01  00002PRCP06
0152654590999992000011309004+06080-000250FM-12+0167DGKK V0202301N00051009001CN0060001N1+02651+02441999999ADDAY141031AY221031GA1021+003309069GF106991061081004501001001MW1101REMSYN076AAXX  13094 65459 41456 62301 10265 20244 4//// 71042 86800 333 82611 84815;
0182654590999992000011312004+06080-000250FM-12+0167DGKK V0202701N00211009001CN0150001N1+02931+02451999999ADDAA106000091AY141061AY221061GA1011+003609069GF105991051081004501001001MW1021REMSYN076AAXX  13124 65459 31465 52704 10293 20245 4//// 70242 85800 333 81612 84816;EQDQ01  00002PRCP06
0124654590999992000011315004+06080-000250FM-12+0167DGKK V0202301N001012200019N0150001N1+03401+02421999999ADDGA1011+003909069GF104991041081004501001001REMSYN070AAXX  13154 65459 42465 42302 10340 20242 4//// 84800 333 81613 83818;
0156654590999992000011409004+06080-000250FM-12+016799999V0209999C00001220001CN0120001N1+02651+02441999999ADDAY101031AY201031GA1011+003609069GF105991021081004501001061MW1101REMSYN080    AAXX  14094 65459 41462 50000 10265 20244 4//// 71000 82806 333 81612 85275;
0220654590999992000011418004+06080-000250FM-12+016799999V0202301N001010036019N0100001N1+02451+02231999999ADDAA112039191AY191061AY261061GA1071+003609069GA2021+009609099GF107991071091004501999999KA1120M+03201MW1171REMSYN104    AAXX  14184 65459 11460 72302 10245 20223 4//// 60392 71796 879// 333 10320 87612 82932 94599 95709;
0177654590999992000011800004+06080-000250FM-12+016799999V0202301N00101220001CN0160001N1+03001+02461999999ADDAA199000091GA1021+003909069GF105991021051004501001061KA1120M+03391REMSYN080    AAXX  18004 65459 32466 52302 10300 20246 4//// 82506 333 10339 82613 83075;EQDQ01  00002PRCP99
0128654590999992000011809004+06080-000250FM-12+016799999V0203201N000512200019N0150001N1+02681+02441999999ADDGA1011+003609069GF105991041081004501001011REMSYN074    AAXX  18094 65459 42465 53201 10268 20244 4//// 84801 333 81612 84817;
0158654590999992000011812004+06080-000250FM-12+016799999V0202701N00051009001CN0160001N1+03151+02441999999ADDAA199000091GA1031+003909069GF106991061081004501001001REMSYN074    AAXX  18124 65459 32466 62701 10315 20244 4//// 86800 333 83613 84817;EQDQ01  00002PRCP99
0158654590999992000011813004+06080-000250FM-12+016799999V0202701N00051009001CN0160001N1+03151+02441999999ADDAA199000091GA1031+003909069GF106991061081004501001001REMSYN074    AAXX  18134 65459 32466 62701 10315 20244 4//// 86800 333 83613 84817;EQDQ01  00002PRCP99
0177654590999992000011906004+06080-000250FM-12+016799999V0209999C00001045001CN0140001N1+02451+02381999999ADDAA199000091GA1031+003609069GF105991031051004501031021KA1120N+02401REMSYN080    AAXX  19064 65459 32464 50000 10245 20238 4//// 83532 333 20240 83612 83361;EQDQ01  00002PRCP99
0156654590999992000011909004+06080-000250FM-12+016799999V0209999C00001045001CN0160001N1+02701+02441999999ADDAY121031AY221031GA1041+003609069GF106991041051004501031021MW1101REMSYN080    AAXX  19094 65459 41466 60000 10270 20244 4//// 71022 84532 333 84612 85/75;
0180654590999992000011912004+06080-000250FM-12+016799999V0202301N00051005401CN0200001N1+03101+02421999999ADDAA199000091GA1021+003909069GA2031+005409089GF106991041081004501001061REMSYN080    AAXX  19124 65459 32470 62301 10310 20242 4//// 84806 333 82613 83818 86275;EQDQ01  00002PRCP99
0194654590999992000011918004+06080-000250FM-12+0167DGKK V0203601N000519999999N0160001N1+02281+02211999999ADDAA124999999AY191061AY261061GA1021+008409099GF107991071091999999999999KA1120M+03161MW1171REMSYN094AAXX  19184 65459 11/66 73601 10228 20221 4//// 71796 879// 333 10316 7612/ 82928 94699 95709;
0176654590999992000012000004+06080-000250FM-12+0167DGKK V0209999C000011050019N0160001N1+02351+02281999999ADDAA199000091AY191061AY221061GA1041+003609059GF107991041051004501001061MW1011REMSYN070AAXX  20004 65459 31466 70000 10235 20228 4//// 70192 84506 333 84612;EQDQ01  00002PRCP99
0179654590999992000012006004+06080-000250FM-12+0167DGKK V0209999C00001004201CN0100001N1+02251+02181999999ADDAA112042991GA1031+003609069GF107991051999004501021061KA1120N+02201REMSYN082AAXX  20064 65459 1/460 70000 10225 20218 4//// 60432 85026 333 20220 83612 87275;EQDQ01+000002SCOLCG
0154654590999992000012012004+06080-000250FM-12+0167DGKK V0201801N001019999999N0180001N1+02981+02441999999ADDAA199000091GA1031+003909069GF105991041081004501001001REMSYN070AAXX  20124 65459 32468 51802 10298 20244 4//// 84800 333 83613 84817;EQDQ01  00002PRCP99
0154654590999992000012015004+06080-000250FM-12+0167DGKK V0201801N001019999999N0180001N1+02981+02441999999ADDAA199000091GA1031+003909069GF105991041081004501001001REMSYN070AAXX  20154 65459 32468 51802 10298 20244 4//// 84800 333 83613 84817;EQDQ01  00002PRCP99
0118654590999992000012203004+06080-000250FM-12+0167DGKK V0209999C000012200019N0160001N1+02301+02221999999ADDGA1011+003309059GF101991011051004501001001REMSYN064AAXX  22034 65459 42466 10000 10230 20222 4//// 81500 333 81611;
0167654590999992000012206004+06080-000250FM-12+0167DGKK V0209999C000012200019N0160001N1+02251+02181999999ADDAA199000091GA1021+003009059GF102991021051004501001001KA1120N+02201REMSYN070AAXX  22064 65459 32466 20000 10225 20218 4//// 82500 333 20220 82610;EQDQ01  00002PRCP99
0176654590999992000012412004+06080-000250FM-12+0167DGKK V0202301N002610051019N0200001N1+03101+02391999999ADDAA199000091GA1031+003909069GA2041+005109089GF106991051081004501001061REMSYN076AAXX  24124 65459 32470 62305 10310 20239 4//// 85806 333 83613 84817 86275;EQDQ01  00002PRCP99
0124654590999992000012415004+06080-000250FM-12+0167DGKK V0202701N001012200019N0200001N1+03211+02421999999ADDGA1011+003909069GF104991031081004501001021REMSYN070AAXX  24154 65459 42470 42702 10321 20242 4//// 83802 333 81613 83817;
0167654590999992000012418004+06080-000250FM-12+0167DGKK V0202301N001012200019N0200001N1+02971+02441999999ADDAA199000091GA1011+003909059GF103991021081004501001011KA1120M+03231REMSYN070AAXX  24184 65459 32470 32302 10297 20244 4//// 82801 333 10323 81613;EQDQ01  00002PRCP99
0096654590999992000012515004+06080-000250FM-12+0167DGKK V02099999999992200019N0180001N1+03371+02401999999ADDGF103991031081004501001001REMSYN058AAXX  25154 65459 42468 31/// 10337 20240 4//// 83800 333;
0173654590999992000012606004+06080-000250FM-12+0167DGKK V0209999C00001105001CN0150001N1+02401+02331999999ADDAA199000091GA1021+003309069GF106991021051004501001021KA1120N+02351REMSYN076AAXX  26064 65459 32465 60000 10240 20233 4//// 82502 333 20235 82611 85075;EQDQ01  00002PRCP99
0138654590999992000012609004+06080-000250FM-12+0167DGKK V0203201N002112200019N0240001N1+02751+02541101351ADDGA1021+003609059GF103991031081004501001001MD1999999+0071REMSYN070AAXX  26094 65459 42474 33204 10275 20254 40135 83800 333 58007 82612;
0176654590999992000012612004+06080-000250FM-12+0167DGKK V0201801N00051004801CN0180001N1+03041+02351999999ADDAA199000091GA1021+003909069GA2031+004809089GF106991041081004501031021REMSYN076AAXX  26124 65459 32468 61801 10304 20235 4//// 84832 333 82613 83816 85672;EQDQ01  00002PRCP99
0146654590999992000012709004+06080-000250FM-12+0167DGKK V0202701N000510750019N0100001N1+02411+02261999999ADDAY111031AY211031GA1051+075009019GF105991001001999999001021MW1101REMSYN070AAXX  27094 65459 41960 52701 10241 20226 4//// 71011 80002 333 85075;
0148654590999992000012712004+06080-000250FM-12+0167DGKK V0202301N000512200019N0140001N1+03101+02311999999ADDAA199000091GA1021+004509029GF102991021021004501001001REMSYN064AAXX  27124 65459 32464 22301 10310 20231 4//// 82200 333 82815;EQDQ01  00002PRCP99
0118654590999992000012715004+06080-000250FM-12+0167DGKK V0202301N001512200019N0200001N1+03351+02361999999ADDGA1021+005109029GF102991021011004501001001REMSYN064AAXX  27154 65459 42470 22303 10335 20236 4//// 82100 333 82817;
0106654590999992000012721004+06080-000250FM-12+0167DGKK V0209999C000012200019N0180001N1+02581+99999999999ADDGA1001+999999999GF100991001001999999001001REMSYN052AAXX  27214 65459 42968 00000 10258 20/32 4//// 333;
0118654590999992000022909004+06080-000250FM-12+0167DGKK V0203601N000512200019N0150001N1+02721+02481999999ADDGA1031+003609059GF103991031051004501001001REMSYN064AAXX  29094 65459 42465 33601 10272 20248 4//// 83500 333 83612;
0183654590999992000030306004+06080-000250FM-12+0167DGKK V0209999C000012200019N0018001N1+02321+02251999999ADDAA199000091AY111061AY211061GA1001+999999999GF100991001001999999001001KA1999N+02281MW1101REMSYN064AAXX  03064 65459 31918 00000 10232 20225 4//// 71011 333 20228;EQDQ01  00002PRCP99
0134654590999992000030309004+06080-000250FM-12+0167DGKK V0202701N000512200019N0080001N1+02811+02391999999ADDAY101031AY201031GA1001+999999999GF100991001001999999001001MW1051REMSYN058AAXX  03094 65459 41958 02701 10281 20239 4//// 70500 333;
0146654590999992000030315004+06080-000250FM-12+0167DGKK V0200901N001012200019N0080001N1+03501+02201999999ADDAY101031AY201031GA1021+004809029GF102991021021004501001001MW1051REMSYN070AAXX  03154 65459 41458 20902 10350 20220 4//// 70500 82200 333 82816;
0152654590999992000030509004+06080-000250FM-12+0167DGKK V0203201N000512200019N0100001N1+02841+99999999999ADDAY101031AY201031GA1011+003909069GF104991041081004501001001MW1051REMSYN076AAXX  05094 65459 41460 43201 10284 2/243 4//// 70500 84800 333 81613 83818;
0078654590999992000030615004+06080-000250FM-12+0167DGKK V0201401N001012200019N0160001N1+99999+99999999999ADDGF103991031081004501001001REMSYN040AAXX  06154 65459 /2466 31402 83800 333;
0124654590999992000030809004+06080-000250FM-12+0167DGKK V0202301N001512200019N0120001N1+02901+02491999999ADDGA1011+003309069GF104991041081004501001001REMSYN070AAXX  08094 65459 42462 42303 10290 20249 4//// 84800 333 81611 83815;
0106654590999992000030909004+06080-000250FM-12+0167DGKK V0203601N001012200019N0160001N1+02951+99999999999ADDGA1001+999999999GF100991001001999999001001REMSYN052AAXX  09094 65459 42966 03602 10295 28243 4//// 333;
0195654590999992000031101004+06080-000250FM-12+0167DGKK V0202301N000510036019N0180001N1+99999+99999999999ADDAA199000091AY111999AY211999GA1051+003609999GF105991051051004501001001KA1120N+02301MW1101REMSYN076AAXX  11014 65459 31468 52301 102/5 20228 4//// 71011 85500 333 20230 85/12;EQDQ01  00002PRCP99
0195654590999992000031106004+06080-000250FM-12+0167DGKK V0202301N000510036019N0100001N1+02351+02281999999ADDAA199000091AY111061AY211061GA1051+003609059GF105991051051004501001001KA1120N+02301MW1101REMSYN076AAXX  11064 65459 31460 52301 10235 20228 4//// 71011 85500 333 20230 85612;EQDQ01  00002PRCP99
0124654590999992000031109004+06080-000250FM-12+0167DGKK V0202301N001012200019N0100001N1+02881+02481999999ADDGA1021+003909069GF104991041081004501001001REMSYN070AAXX  11094 65459 41460 42302 10288 20248 4//// 84800 333 82613 83818;
0195654590999992000031206004+06080-000250FM-12+0167DGKK V0209999C000012200019N0100001N1+02301+99999999999ADDAA199000091AY111061AY211061GA1031+004509059GF103991031051004501001001KA1120N+02251MW1101REMSYN076AAXX  12064 65459 31460 30000 10230 20233 4//// 71011 83500 333 20225 83615;EQDQ01  00002PRCP99
0195654590999992000031218004+06080-000250FM-12+0167DGKK V0201801N002112200019N0120001N1+03151+02401999999ADDAA199000091AY101061AY201061GA1021+036009079GF103991021001999999031011KA1120M+03701MW1051REMSYN076AAXX  12184 65459 31962 31804 10315 2024/ 4//// 70500 82031 333 10370 82362;EQDQ01  00002PRCP99
0106654590999992000031221004+06080-000250FM-12+0167DGKK V0202701N000512200019N0120001N1+02791+99999999999ADDGA1001+999999999GF100991001001999999001001REMSYN052AAXX  12214 65459 42962 02701 10279 2824/ 4//// 333;
0195654590999992000031306004+06080-000250FM-12+0167DGKK V0202301N000512200019N0100001N1+02351+02281999999ADDAA199000091AY111061AY211061GA1011+003609059GF101991011051004501001001KA1120N+02341MW1101REMSYN076AAXX  13064 65459 31460 12301 10235 20228 4//// 71011 81500 333 20234 81612;EQDQ01  00002PRCP99
0176654590999992000031312004+06080-000250FM-12+0167DGKK V0202701N000512200019N0100001N1+03571+02251999999ADDAA199000091AY101061AY201061GA1011+004809029GF101991011011004501001001MW1051REMSYN070AAXX  13124 65459 31460 12701 10357 20225 4//// 70500 81100 333 81816;EQDQ01  00002PRCP99
0146654590999992000031409004+06080-000250FM-12+0167DGKK V0203601N000512200019N0120001N1+02851+02371999999ADDAY101031AY201031GA1011+004809029GF101991011011004501001001MW1051REMSYN070AAXX  14094 65459 41462 13601 10285 20237 4//// 70500 81100 333 81816;
0195654590999992000031418004+06080-000250FM-12+0167DGKK V0202301N002612200019N0120001N1+03051+02411999999ADDAA199000091AY101061AY201061GA1041+003909059GF104991041051004501001001KA1120M+03771MW1051REMSYN076AAXX  14184 65459 31462 42305 10305 20241 4//// 70500 84500 333 10377 84613;EQDQ01  00002PRCP99
0215654590999992000031506004+06080-000250FM-12+0167DGKK V0209999C000012200019N0180001N1+02451+02381999999ADDAA199000091AY101061AY201061GA1021+075009019GF103991021051004501001011KA1120N+02401MD1999999-0031MW1101REMSYN082AAXX  15064 65459 31468 30000 10245 20238 4//// 71000 82501 333 20240 59003 82075;EQDQ01  00002PRCP99
0182654590999992000031512004+06080-000250FM-12+0167DGKK V0202301N00211009001CN0120001N1+03401+02181999999ADDAA199000091AY111061AY211061GA1031+003609069GF105991051081004501001001MW1051REMSYN076AAXX  15124 65459 31462 52304 10340 20218 4//// 70511 85800 333 83612 84818;EQDQ01  00002PRCP99
0201654590999992000031518004+06080-000250FM-12+0167DGKK V0201801N002612200019N0120001N1+03101+02311999999ADDAA199000091AY121061AY221061GA1021+003909069GF104991021051004501001021KA1120M+03301MW1051REMSYN082AAXX  15184 65459 31462 41805 10310 20231 4//// 70522 82502 333 10330 82613 83075;EQDQ01  00002PRCP99
0183654590999992000031606004+06080-000250FM-12+0167DGKK V0209999C000012200019N0100001N1+02501+02361999999ADDAA199000091AY101061AY201061GA1001+999999999GF100991001001999999001001KA1999N+02361MW1101REMSYN064AAXX  16064 65459 31960 00000 10250 20236 4//// 71000 333 20236;EQDQ01  00002PRCP99
0137654590999992000031615004+06080-000250FM-12+0167DGKK V0200701N999990036019N0180001N1+02951+01881999999ADDGA1071+003609059GF107991071051004501999999REMSYN064AAXX  16154 65459 42468 75706 10295 20188 4//// 875// 333 87612;EQDQ01+005453WOSPD 
0188654590999992000031618004+06080-000250FM-12+0167DGKK V0209999C000010036019N0180001N1+02401+02221999999ADDAA112004191AY191061AY261061GA1061+003609069GF107991061051004501071999KA1120M+03571MW1291REMSYN088AAXX  16184 65459 11468 70000 10240 20222 4//// 60042 72996 8657/ 333 10357 86612 87462;
0154654590999992000031700004+06080-000250FM-12+0167DGKK V0209999C00001045001CN0140001N1+02351+02261999999ADDAA199000091GA1021+003609069GF106991021051004501031001REMSYN070AAXX  17004 65459 32464 60000 10235 20226 4//// 82530 333 82612 83362;EQDQ01  00002PRCP99
0106654590999992000031709004+06080-000250FM-12+0167DGKK V0202701N001012200019N0040001N1+02801+02371999999ADDGA1001+999999999GF100991001001999999001001REMSYN052AAXX  17094 65459 42496 02702 10280 20237 4//// 333;
0124654590999992000031715004+06080-000250FM-12+0167DGKK V0202701N00151009001CN0180001N1+03571+02181999999ADDGA1011+003909069GF105991051081004501001001REMSYN070AAXX  17154 65459 42468 52703 10357 20218 4//// 85800 333 81613 84817;
0124654590999992000031809004+06080-000250FM-12+0167DGKK V0202701N00051009001CN0160001N1+02941+02461999999ADDGA1021+003609069GF105991051081004501001001REMSYN070AAXX  18094 65459 42466 52701 10294 20246 4//// 85800 333 82612 84816;
0154654590999992000031812004+06080-000250FM-12+0167DGKK V0202701N002112200019N0180001N1+03401+02381999999ADDAA199000091GA1011+003609069GF104991041081004501001001REMSYN070AAXX  18124 65459 32468 42704 10340 20238 4//// 84800 333 81612 84817;EQDQ01  00002PRCP99
0153654590999992000031815004+06080-000250FM-12+0167DGKK V0201801N002119999999N0180001N1+99999+99999999999ADDGA1999+003909069GF105991999999004501999999REMSYN064AAXX  18154 65459 42468 51804 10/1/ 4/9// 5800/ 333 8/613 84817;EQDQ01+000082APCTENQ02+000002APC3  
0106654590999992000031909004+06080-000250FM-12+0167DGKK V0202701N000512200019N0160001N1+02851+02391999999ADDGA1001+999999999GF100991001001999999001001REMSYN052AAXX  19094 65459 42966 02701 10285 20239 4//// 333;
0201654590999992000032006004+06080-000250FM-12+0167DGKK V0200901N002610033019N0080001N1+02301+02221999999ADDAA199000091AY121061AY221061GA1061+003309069GF107991061051004501071999KA1120N+02301MW1101REMSYN082AAXX  20064 65459 31458 70905 10230 20222 4//// 71022 8657/ 333 20230 86611 86462;EQDQ01  00002PRCP99
0180654590999992000032009004+06080-000250FM-12+0167DGKK V0203201N001010036019N0140001N1+02431+02161999999ADDAY191031AY261031GA1061+003609069GA2011+009009099GF106991061091004501001001MW1171REMSYN088AAXX  20094 65459 41464 63202 10243 20216 4//// 71796 86900 333 86612 81930 94646 95705;
0219654590999992000032012004+06080-000250FM-12+0167DGKK V0202301N002110033019N0140001N1+02401+02181999999ADDAA112005191AY191061AY261061GA1061+003309069GA2011+009009099GA3071+036009049GF107991061091004501071999MW1171REMSYN100AAXX  20124 65459 11464 72304 10240 20218 4//// 60052 71796 8697/ 333 86611 87462 81930 94646 95705;
0160654590999992000032106004+06080-000250FM-12+0167DGKK V0200501N002110036019N0120001N1+02351+01961999999ADDAA124007991GA1061+003609069GF107991061051004501031999KA1120N+02131REMSYN082AAXX  21064 65459 12462 70504 10235 20196 4//// 60084 8653/ 333 20213 86612 87362;
0124654590999992000032109004+06080-000250FM-12+0167DGKK V0200501N00101045001CN0200001N1+02801+02371999999ADDGA1031+003609069GF106991031051004501031001REMSYN070AAXX  21094 65459 42470 60502 10280 20237 4//// 83530 333 83612 86363;
0106654590999992000032209004+06080-000250FM-12+0167DGKK V0203201N003112200019N0180001N1+02851+02271999999ADDGA1001+999999999GF100991001001999999001001REMSYN052AAXX  22094 65459 42968 03206 10285 20227 4//// 333;
0148654590999992000032212004+06080-000250FM-12+0167DGKK V0203601N001012200019N0200001N1+03451+02221999999ADDAA199000091GA1011+005109029GF103991011011004501041001REMSYN064AAXX  22124 65459 32470 33602 10345 20222 4//// 81140 333 81817;EQDQ01  00002PRCP99
0146654590999992000032315004+06080-000250FM-12+0167DGKK V0202701N00101045001CN0200001N1+03401+02331999999ADDGA1011+003909069GA2041+005109089GF106991041081004501031001REMSYN076AAXX  23154 65459 42470 62702 10340 20233 4//9/ 84830 333 81613 84817 86362;
0238654590999992000032318004+06080-000250FM-12+0167DGKK V0201801N00101009001CN0150001N1+02421+02171999999ADDAA112008991AY191061AY261061GA1041+003609069GA2011+009009099GA3061+072009029GF106991041091004501001061KA1120M+03461MW1171REMSYN106AAXX  23184 65459 11465 61802 10242 20217 4//// 60092 71796 84906 333 10346 84612 86274 81930 94668 95707;
0118654590999992000032409004+06080-000250FM-12+0167DGKK V0202701N000512200019N0180001N1+02801+02441999999ADDGA1031+004509029GF103991031021004501001011REMSYN064AAXX  24094 65459 42468 32701 10280 20244 4//// 83201 333 83815;
0124654590999992000032609004+06080-000250FM-12+0167DGKK V0202301N001011050019N0200001N1+02901+02351999999ADDGA1021+003909069GF105991041081004501001021REMSYN070AAXX  26094 65459 42470 52302 10290 20235 4//// 84802 333 82613 83818;
0124654590999992000032815004+06080-000250FM-12+0167DGKK V0201801N001012200019N0200001N1+03501+02231999999ADDGA1011+003909069GF104991041081004501001001REMSYN070AAXX  28154 65459 42470 41802 10350 20223 4//// 84800 333 81613 84817;
0201654590999992000032818004+06080-000250FM-12+0167DGKK V0201801N00051220001CN0180001N1+02851+02261999999ADDAA199000091AY191061AY221061GA1031+003909069GF106991031051004501001061KA1120M+03351MW1291REMSYN082AAXX  28184 65459 31468 61801 10285 20226 4//// 72992 83506 333 10335 83613 85275;EQDQ01  00002PRCP99
0195654590999992000032906004+06080-000250FM-12+0167DGKK V0209999C000012200019N0100001N1+02301+02221999999ADDAA199000091AY111061AY211061GA1011+003609059GF101991011051004501001001KA1120N+02281MW1101REMSYN076AAXX  29064 65459 31460 10000 10230 20222 4//// 71011 81500 333 20228 81612;EQDQ01  00002PRCP99
0124654590999992000032909004+06080-000250FM-12+0167DGKK V0202301N00051009001CN0160001N1+02901+02481999999ADDGA1021+003909069GF105991051081004501001011REMSYN070AAXX  29094 65459 42466 52301 10290 20248 4//// 85801 333 82613 84816;
0168654590999992000032915004+06080-000250FM-12+0167DGKK V0202301N00151005401CN0180001N1+03501+02281999999ADDGA1021+003909069GA2031+005409089GA3011+009009099GF105991041091004501001021REMSYN082AAXX  29154 65459 42468 52303 10350 20228 4//// 84902 333 82613 83818 81930 94557;
0217654590999992000032918004+06080-000250FM-12+0167DGKK V0202301N00101009001CN0180001N1+03151+02281999999ADDAA199000091GA1041+003909069GA2011+009009099GA3041+036009039GF106991051091004501031001KA1120M+03501REMSYN088AAXX  29184 65459 32468 62302 10315 20228 4//// 85930 333 10350 84613 84362 81930 94546;EQDQ01  00002PRCP99
0167654590999992000033006004+06080-000250FM-12+0167DGKK V0202301N000510036019N0140001N1+02401+02331999999ADDAA199000091GA1061+003609059GF106991061051004501001001KA1120N+02351REMSYN070AAXX  30064 65459 32464 62301 10240 20233 4//// 86500 333 20235 86612;EQDQ01  00002PRCP99
0124654590999992000033009004+06080-000250FM-12+0167DGKK V0202301N00101009001CN0200001N1+02851+02481999999ADDGA1041+003909069GF106991061081004501001001REMSYN070AAXX  30094 65459 42470 62302 10285 20248 4//// 86800 333 84613 84818;
0148654590999992000033100004+06080-000250FM-12+0167DGKK V0203201N000510036019N0140001N1+02601+02461999999ADDAA199000091GA1061+003609059GF106991061051004501001001REMSYN064AAXX  31004 65459 32464 63201 10260 20246 4//// 86500 333 86612;EQDQ01  00002PRCP99
0195654590999992000033106004+06080-000250FM-12+0167DGKK V0209999C000012200019N0100001N1+02401+02311999999ADDAA199000091AY111061AY211061GA1031+003609059GF103991031051004501001001KA1120N+02341MW1101REMSYN076AAXX  31064 65459 32460 30000 10240 20231 4//// 71011 83500 333 20234 83612;EQDQ01  00002PRCP99
0124654590999992000033109004+06080-000250FM-12+0167DGKK V0202301N00151009001CN0200001N1+02951+02301999999ADDGA1031+003909069GF105991051081004501001001REMSYN070AAXX  31094 65459 42470 52303 10295 20230 4//// 85800 333 83613 83816;
0173654590999992000040106004+06080-000250FM-12+0167DGKK V0209999C000012200019N0160001N1+02101+99999999999ADDAA124022191GA1031+003609059GF103991999051004501001001KA1120N+02111REMSYN076AAXX  01064 65459 12466 30000 10210 20211 4//// 60224 84500 333 20211 83612;EQDQ01+000042SCOTLC
0124654590999992000040109004+06080-000250FM-12+0167DGKK V0202701N001012200019N0180001N1+02751+02461999999ADDGA1011+003609069GF103991021081004501001021REMSYN070AAXX  01094 65459 42468 32702 10275 20246 4//// 82802 333 81612 83075;
0124654590999992000040115004+06080-000250FM-12+0167DGKK V0202701N001511050019N0200001N1+03471+02461999999ADDGA1021+003909069GF105991041081004501001021REMSYN070AAXX  01154 65459 42470 52703 10347 20246 4//// 84802 333 82613 83817;
0124654590999992000040212004+06080-000250FM-12+0167DGKK V0202701N00051105001CN9999999N1+02571+02401999999ADDGA1021+003309069GF106991021081004501031061REMSYN070AAXX  02124 65459 424/6 62701 10257 20240 4//// 82836 333 82611 86272;
0173654590999992000040218004+06080-000250FM-12+0167DGKK V0201801N00101220001CN0180001N1+03001+02251999999ADDAA199000091GA1031+003909069GF106991031051004501001061KA1120M+03381REMSYN076AAXX  02184 65459 32468 61802 10300 20225 4//// 83506 333 10338 83613 85072;EQDQ01  00002PRCP99
0173654590999992000040306004+06080-000250FM-12+0167DGKK V0209999C000012200019N0150001N1+02741+02281999999ADDAA199000091GA1011+003309069GF104991011051004501001021KA1120N+02301REMSYN076AAXX  03064 65459 32465 40000 10274 20228 4//// 81502 333 20230 81611 84072;EQDQ01  00002PRCP99
0154654590999992000040312004+06080-000250FM-12+0167DGKK V0202301N00051009001CN0180001N1+03221+02341999999ADDAA199000091GA1021+003909069GF105991051081004501001001REMSYN070AAXX  03124 65459 32468 52301 10322 20234 4//// 85800 333 82613 84816;EQDQ01  00002PRCP99
0229654590999992000040318004+06080-000250FM-12+0167DGKK V0201801N001510090019N0200001N1+03001+99999999999ADDAA199000091AY191061AY291061GA1041+003909069GA2021+009009099GF106991051091004501001021KA1120M+03461MW1171REMSYN094AAXX  03184 65459 31470 61803 10300 20343 4//// 71799 85902 333 10346 84613 82930 94699 95708;EQDQ01  00002PRCP99
0201654590999992000040406004+06080-000250FM-12+0167DGKK V0209999C000012200019N0120001N1+02301+02221999999ADDAA199000091AY101061AY201061GA1021+003609069GF104991021051004501001021KA1120N+02251MW1101REMSYN082AAXX  04064 65459 31462 40000 10230 20222 4//// 71000 82502 333 20225 82612 84072;EQDQ01  00002PRCP99
0163654590999992000040500004+06080-000250FM-12+0167DGKK V0200501N000512200019N0140001N1+02301+02221999999ADDAA106000891AY191061AY261061GA1011+003909059GF101991011051004501001001MW1011REMSYN076AAXX  05004 65459 11464 10501 10230 20222 4//// 69981 70196 81500 333 81613;
0180654590999992000040506004+06080-000250FM-12+0167DGKK V0202301N001010030019N0160001N1+02351+02201999999ADDAY191061AY261061GA1071+003009069GA2011+009009099GF107991071091004501999999MW1171REMSYN088AAXX  05064 65459 41466 72302 10235 20220 4//// 71796 879// 333 87610 81930 94613 95702;
0118654590999992000040509004+06080-000250FM-12+0167DGKK V0202301N001010036019N0200001N1+02601+02381999999ADDGA1071+003609059GF107991071051004501999999REMSYN064AAXX  05094 65459 /2470 72302 10260 20238 4//// 875// 333 87612;
0148654590999992000040612004+06080-000250FM-12+0167DGKK V0202701N001010054019N0200001N1+03271+02441999999ADDAA199000091GA1051+005409029GF106991061081004501001001REMSYN064AAXX  06124 65459 32470 62702 10327 20244 4//// 86800 333 85818;EQDQ01  00002PRCP99
0245654590999992000040618004+06080-000250FM-12+0167DGKK V0202301N00261009001CN0200001N1+02921+02321999999ADDAA199000091AY191061AY221061GA1031+003909069GA2021+009009099GA3041+066009009GF105991041091004501061031KA1120M+03501MW1291REMSYN094AAXX  06184 65459 31470 52305 10292 20232 4//// 72992 84963 333 10350 83613 84072 82930 94599;EQDQ01  00002PRCP99
0176654590999992000040712004+06080-000250FM-12+0167DGKK V0201801N002110048019N0200001N1+03361+02321999999ADDAA199000091GA1021+003609069GA2041+004809089GF106991051081004501001061REMSYN076AAXX  07124 65459 32470 61804 10336 20232 4//// 85806 333 82612 84816 86275;EQDQ01  00002PRCP99
0245654590999992000040718004+06080-000250FM-12+0167DGKK V0203601N001010720019N0180001N1+02451+02361999999ADDAA199000091AY191061AY221061GA1031+003909069GA2011+009009099GA3051+072009009GF105991031091004501001031KA1120M+03531MW1291REMSYN094AAXX  07184 65459 31468 53602 10245 20236 4//// 72992 83903 333 10353 83613 85074 81930 94671;EQDQ01  00002PRCP99
0167654590999992000040806004+06080-000250FM-12+0167DGKK V0209999C000012200019N0160001N1+02221+02141999999ADDAA199000091GA1011+003309059GF101991011051004501001001KA1120N+02191REMSYN070AAXX  08064 65459 32466 10000 10222 20214 4//// 81500 333 20219 81611;EQDQ01  00002PRCP99
0195654590999992000040918004+06080-000250FM-12+0167DGKK V0202301N002611050019N0200001N1+03081+02401999999ADDAA199000091GA1031+003609069GA2011+009009099GF105991041091004501001031KA1120M+03501REMSYN082AAXX  09184 65459 32470 52305 10308 20240 4//// 84903 333 10350 83612 81930 94571;EQDQ01  00002PRCP99
0182654590999992000041006004+06080-000250FM-12+0167DGKK V0209999C000010036019N0120001N1+02501+02361999999ADDAA124000791AY191061AY261061GA1061+003609059GF106991061051004501001001KA1120N+02371MW1291REMSYN082AAXX  10064 65459 31462 60000 10250 20236 4//// 69904 72996 86500 333 20237 86612;
0154654590999992000041012004+06080-000250FM-12+0167DGKK V0202701N00151009001CN0180001N1+03351+02361999999ADDAA199000091GA1021+003909069GF106991051081004501001021REMSYN070AAXX  10124 65459 32468 62703 10335 20236 4//// 85802 333 82613 84816;EQDQ01  00002PRCP99
0173654590999992000041106004+06080-000250FM-12+0167DGKK V0202301N00051045001CN0160001N1+02431+02341999999ADDAA199000091GA1031+003609069GF106991031051004501031001KA1120N+02391REMSYN076AAXX  11064 65459 32466 62301 10243 20234 4//// 83530 333 20239 83612 86362;EQDQ01  00002PRCP99
0154654590999992000041112004+06080-000250FM-12+0167DGKK V0202301N00051009001CN0200001N1+03121+02301999999ADDAA199000091GA1041+003909069GF107991051081004501031999REMSYN070AAXX  11124 65459 32470 72301 10312 20230 4//// 8583/ 333 84613 87362;EQDQ01  00002PRCP99
0239654590999992000041118004+06080-000250FM-12+0167DGKK V0202301N000510330019N0220001N1+03071+02261999999ADDAA199000091GA1021+003909069GA2011+009009099GA3041+033009039GA4061+066009029GF106991031091004501031061KA1120M+03231REMSYN094AAXX  11184 65459 32472 62301 10307 20226 4//// 83936 333 10323 82613 84361 86272 81930 94582;EQDQ01  00002PRCP99
0167654590999992000041206004+06080-000250FM-12+0167DGKK V0202301N000510036019N0160001N1+02201+02121999999ADDAA199000091GA1061+003609059GF106991061051004501001001KA1120N+02151REMSYN070AAXX  12064 65459 32466 62301 10220 20212 4//// 86500 333 20215 86612;EQDQ01  00002PRCP99
0154654590999992000041212004+06080-000250FM-12+0167DGKK V0202701N00261105001CN0200001N1+03361+02431999999ADDAA199000091GA1031+004809089GF105991021021004501001021REMSYN070AAXX  12124 65459 32470 52705 10336 20243 4//// 82202 333 83816 85075;EQDQ01  00002PRCP99
0183654590999992000051206004+06080-000250FM-12+0167DGKK V0209999C000010036019N0180001N1+02451+02381999999ADDAA199000091GA1061+003609059GF106991061051004501001001KA1120N+99999REMSYN070AAXX  12064 65459 32468 60000 10245 20238 4//// 86500 333 20254 86612;EQDQ01  00002PRCP99Q02 +02542ATMN  
0176654590999992000051212004+06080-000250FM-12+0167DGKK V0202301N00211005101CN0200001N1+03161+02421999999ADDAA199000091GA1021+003909069GA2031+005109089GF107991041081004501001061REMSYN076AAXX  12124 65459 32470 72304 10316 20242 4//// 84806 333 82613 83817 87275;EQDQ01  00002PRCP99
0173654590999992000051306004+06080-000250FM-12+0167DGKK V0209999C000012200019N0180001N1+02151+02081999999ADDAA199000091GA1021+003609069GF103991021051004501001041KA1120N+02121REMSYN076AAXX  13064 65459 32468 30000 10215 20208 4//// 82504 333 20212 82612 83075;EQDQ01  00002PRCP99
0173654590999992000052418004+06080-000250FM-12+0167DGKK V0202701N00051045001CN0200001N1+02751+02311999999ADDAA199000091GA1031+003909069GF107991031051004501031999KA1120M+03021REMSYN076AAXX  24184 65459 32470 72701 10275 20231 40/// 8353/ 333 10302 83613 87362;EQDQ01  00002PRCP99
0160654590999992000053006004+06080-000250FM-12+0167DGKK V0209999C00001220001CN0150001N1+02381+02381999999ADDAA124005191GA1031+003309069GF106991031051004501001061KA1120N+02231REMSYN082AAXX  30064 65459 12465 60000 10238 20238 40/// 60054 83506 333 20223 83611 86275;
0148654590999992000053100004+06080-000250FM-12+0167DGKK V0202601N000512200019N0180001N1+02501+02351999999ADDAA199000091GA1011+003009059GF101991011051004501001001REMSYN064AAXX  31004 65459 32468 12601 10250 20235 4//// 81500 333 81610;EQDQ01  00002PRCP99
0160654590999992000060206004+06080-000250FM-12+0167DGKK V0209999C00001045001CN0150001N1+02081+02051999999ADDAA124069191GA1021+003609069GF106991021051004501031001KA1120N+01981REMSYN082AAXX  02064 65459 12465 60000 10208 20205 4//// 60694 82530 333 20198 82612 86360;
0201654590999992000060318004+06080-000250FM-12+0167DGKK V0201401N00101009001CN0200001N1+02751+02461999999ADDAA199000091AY191061AY221061GA1041+003909069GF107991051081004501031061KA1120M+03171MW1291REMSYN082AAXX  03184 65459 31470 71402 10275 20246 4//// 72992 85836 333 10317 84613 87275;EQDQ01  00002PRCP99
0191654590999992000060712004+06080-000250FM-12+0167DGKK V0203601N000510045019N0200001N1+02901+02221999999ADDAA106000791AY181061AY221061GA1021+003609069GA2041+004509089GF107991051081004501031999MW1211REMSYN088AAXX  07124 65459 11470 73601 10290 20222 4//// 69901 72182 8583/ 333 82612 84815 87362;
0167654590999992000060818004+06080-000250FM-12+0167DGKK V0201801N001012200019N0200001N1+02801+02341999999ADDAA199000091GA1021+003909059GF103991031081004501001001KA1120M+03211REMSYN070AAXX  08184 65459 32470 31802 10280 20234 4//// 83800 333 10321 82613;EQDQ01  00002PRCP99
0217654590999992000061018004+06080-000250FM-12+0167DGKK V0201801N000512200019N0220001N1+02871+02341999999ADDAA199000091GA1011+003609069GA2021+009009099GA3041+075009009GF104991021091004501031061KA1120M+03201REMSYN088AAXX  10184 65459 3/472 41801 10287 20234 4//// 82936 333 10320 81612 84075 82930 94599;EQDQ01  00002PRCP99
0148654590999992000061100004+06080-000250FM-12+0167DGKK V0209999C000012200019N0140001N1+02451+02361999999ADDAA199000091GA1041+003609059GF104991041051004501031001REMSYN064AAXX  11004 65459 32464 40000 10245 20236 4//// 84530 333 84612;EQDQ01  00002PRCP99
0220654590999992000061112004+06080-000250FM-12+0167DGKK V0201401N000510048019N0300001N1+03161+02501999999ADDAA199000091GA1021+003909069GA2031+004809089GA3011+009009099GA4051+066009009GF107991051091004501061031REMSYN088AAXX  11124 65459 32480 71401 10316 20250 4//// 85963 333 82613 83816 85072 81930 94535;EQDQ01  00002PRCP99
0251654590999992000061218004+06080-000250FM-12+0167DGKK V0203601N001010036019N0150001N1+02301+02231999999ADDAA112030091AY191061AY261061GA1061+003609069GA2011+008409099GA3071+030009049GF107991061091004501021999KA1120M+03231REMSYN106AAXX  12184 65459 11465 73602 10230 20223 4//// 60302 76796 8692/ 333 10323 86612 87460 81928 94657 95706;EQDQ01+000672PRSWM1
0176654590999992000061300004+06080-000250FM-12+0167DGKK V0209999C000010036019N0140001N1+02251+02251999999ADDAA199000091AY191061AY221061GA1071+003609059GF107991071051004501999999MW1021REMSYN070AAXX  13004 65459 31464 70000 10225 20225 4//// 70292 875// 333 87612;EQDQ01  00002PRCP99
0193654590999992000061406004+06800-000250FM-12+0167DGKK V0209999C000019999999N0200001N1+02351+02251101301ADDAA199000091GA1021+039009039GF105991021001999999031021KA1120N+02281MD1999999-0021REMSYN082AAXX  14064 65459 32970 50000 10235 20225 40130 82032 333 20228 59002 82363 84076;EQDQ01  00002PRCP99
0182654590999992000061500004+06800-000250FM-12+0167DGKK V0203201N000510030019N0140001N1+02501+02421999999ADDAA199000091AY191061AY221061GA1051+003009069GF107991051051004501031999MW1031REMSYN076AAXX  15004 65459 31464 73201 10250 20242 4//// 70392 8553/ 333 85610 87361;EQDQ01  00002PRCP99
0173654590999992000061518004+06800-000250FM-12+0167DGKK V0202301N00101105001CN0200001N1+02711+02411999999ADDAA199000091GA1031+003609069GF105991031081004501001021KA1120M+03181REMSYN076AAXX  15184 65459 32470 52302 10271 20241 4//// 83802 333 10318 83612 84075;EQDQ01  00002PRCP99
0163654590999992000061700004+06800-000250FM-12+0167DGKK V0202301N000510033019N0120001N1+02381+02301999999ADDAA112007191AY161061AY261061GA1071+003309059GF107991071051004501999999MW1651REMSYN076AAXX  17004 65459 11462 72301 10238 20230 4//// 60072 76566 875// 333 87611;
0182654590999992000061706004+06800-000250FM-12+0167DGKK V0209999C000010033019N0120001N1+02401+02331999999ADDAA124010991AY161061AY261061GA1071+003309059GF107991071051004501999999KA1120N+02331MW1611REMSYN082AAXX  17064 65459 11462 70000 10240 20233 4//// 60114 76166 875// 333 20233 87611;
0152654590999992000061709004+06800-000250FM-12+0167DGKK V0201301N001010033019N0120001N1+02501+02361999999ADDAY161031AY221031GA1061+003309059GF107991071051004501999999MW1601REMSYN076AAXX  17094 65459 41462 71302 10250 20236 4//// 76062 875// 333 86511 87613;
0191654590999992000061712004+06800-000250FM-12+0167DGKK V0202701N001510036019N0160001N1+02701+02421999999ADDAA106001091AY161061AY221061GA1051+003609069GA2031+004809089GF107991061081004501031999MW1011REMSYN088AAXX  17124 65459 11466 72703 10270 20242 4//// 60011 70162 8683/ 333 85612 83816 87360;
0188654590999992000061718004+06800-000250FM-12+0167DGKK V0201801N001010036019N0160001N1+02551+02401999999ADDAA112006191AY161061AY221061GA1061+003609069GF107991061051004501031999KA1120M+02801MW1031REMSYN088AAXX  17184 65459 11466 71802 10255 20240 4//// 60062 70362 8653/ 333 10280 86612 87362;
0154654590999992000061806004+06800-000250FM-12+0167DGKK V0209999C000010036019N0140001N1+02401+02331999999ADDAA124007191GA1071+003609059GF107991071051004501999999KA1120N+02341REMSYN076AAXX  18064 65459 12464 70000 10240 20233 4//// 60074 875// 333 20234 87612;
0176654590999992000061812004+06800-000250FM-12+0167DGKK V0203201N000510054019N0180001N1+02801+02441999999ADDAA199000091GA1041+003609069GA2031+005409089GF107991051081004501031999REMSYN076AAXX  18124 65459 32468 73201 10280 20244 4//// 8583/ 333 84612 83818 87362;EQDQ01  00002PRCP99
0176654590999992000062012004+06800-000250FM-12+0167DGKK V0201801N00101045001CN0150001N1+02941+02381999999ADDAA199000091GA1021+003609069GA2041+004809089GF106991041081004501031001REMSYN076AAXX  20124 65459 32465 61802 10294 20238 4//// 84830 333 82612 84816 85362;EQDQ01  00002PRCP99
0258654590999992000062018004+06800-000250FM-12+0167DGKK V0202301N001510036019N0160001N1+02451+02311999999ADDAA112010991AY191061AY261061GA1051+003609069GA2011+009009099GA3071+036009039GF107991071051004501999999KA1120M+02951MD1999999-0031MW1291REMSYN112AAXX  20184 65459 11466 72303 10245 20231 4//// 60112 72996 875// 333 10295 59003 85612 87362 81930 94546 95705;
0154654590999992000062112004+06800-000250FM-12+0167DGKK V0203201N00101009001CN0180001N1+02951+02391999999ADDAA199000091GA1041+003909069GF106991061081004501001001REMSYN070AAXX  21124 65459 32468 63202 10295 20239 4//// 86800 333 84613 85817;EQDQ01  00002PRCP99
0238654590999992000062118004+06800-000250FM-12+0167DGKK V0200501N00051009001CN0120001N1+02301+02301999999ADDAA112027991AY191061AY261061GA1031+003309069GA2021+009009099GA3071+030009049GF107991031091004501071999KA1120M+03141MW1951REMSYN106AAXX  21184 65459 11462 70501 10230 20230 4//// 60282 79596 8397/ 333 10314 83611 87460 82930 94599 95709;
0160654590999992000062206004+06800-000250FM-12+0167DGKK V0209999C00001045001CN0140001N1+02281+02231999999ADDAA124029091GA1031+003309069GF107991031051004501031999KA1120N+02231REMSYN082AAXX  22064 65459 12464 70000 10228 20223 4//// 60294 8353/ 333 20223 83611 87360;
0176654590999992000062212004+06800-000250FM-12+0167DGKK V0202701N000510048019N0180001N1+02801+02371999999ADDAA199000091GA1041+003309069GA2051+004809089GF107991061081004501031999REMSYN076AAXX  22124 65459 32468 72701 10280 20237 4//// 8683/ 333 84611 85816 87360;EQDQ01  00002PRCP99
0169654590999992000062300004+06800-000250FM-12+0167DGKK V0201801N000519999999N0120001N1+02301+02241999999ADDAA106000591AY161061AY221061GA1021+002709069GF106991021051002501001001MW1021REMSYN082AAXX  23004 65459 11362 61801 10230 20224 4//// 69961 70262 82500 333 82609 86611;
0182654590999992000062306004+06800-000250FM-12+0167DGKK V0209999C000010033019N0120001N1+02261+02211999999ADDAA124021191AY151061AY281061GA1071+003309059GF107991071051008001999999KA1120N+02221MW1501REMSYN082AAXX  23064 65459 11562 70000 10226 20221 4//// 60214 75058 875// 333 20222 87611;
0191654590999992000062312004+06800-000250FM-12+0167DGKK V0202701N002110045019N0150001N1+02801+02291999999ADDAA106000791AY151061AY221061GA1031+003609069GA2041+004509089GF107991051081004501031999MW1011REMSYN088AAXX  23124 65459 11465 72704 10280 20229 4//// 69901 70152 8583/ 333 83612 84815 86361;
0188654590999992000062318004+06800-000250FM-12+0167DGKK V0209999C000010036019N0140001N1+02451+02351999999ADDAA112000591AY191061AY261061GA1051+003609069GF107991051051004501031999KA1120M+02801MW1011REMSYN088AAXX  23184 65459 11464 70000 10245 20235 4//// 69952 70196 8553/ 333 10280 85612 87362;
0148654590999992000062400004+06800-000250FM-12+0167DGKK V0202701N001010033019N0120001N1+02321+02291999999ADDAA199000091GA1071+003309059GF107991071051004501999999REMSYN064AAXX  24004 65459 32462 72702 10232 20229 4//// 875// 333 87611;EQDQ01  00002PRCP99
0182654590999992000062406004+06800-000250FM-12+0167DGKK V0202201N000510033019N0120001N1+02301+02221999999ADDAA124000591GA1021+002709069GA2061+003309069GF107991061051002501031999KA1120N+02251REMSYN088AAXX  24064 65459 12362 72201 10230 20222 4//// 69954 8653/ 333 20225 82609 86611 87361;
0154654590999992000062512004+06800-000250FM-12+0167DGKK V0202701N00211009001CN0200001N1+02951+02381999999ADDAA199000091GA1031+003909069GF106991061081004501001001REMSYN070AAXX  25124 65459 32470 62704 10295 20238 4//// 86800 333 83613 85817;EQDQ01  00002PRCP99
0216654590999992000062518004+06800-000250FM-12+0167DGKK V0202301N001010036019N0180001N1+02521+02421999999ADDAA112001091AY191061AY261061GA1061+003609069GA2021+009009099GF107991071091004501999999KA1120M+03101MW1171REMSYN100AAXX  25184 65459 11468 72302 10252 20242 4//// 60012 71796 879// 333 10310 86612 82930 94699 95709;
0238654590999992000062618004+06800-000250FM-12+0167DGKK V0202701N00051009001CN0150001N1+02461+02221999999ADDAA112000591AY191061AY261061GA1041+003309069GA2011+009009099GA3061+066009029GF107991051091004501031061KA1120M+03131MW1171REMSYN106AAXX  26184 65459 11465 72701 10246 20222 4//// 69942 71796 85936 333 10313 84611 86272 81930 94557 95706;
0176654590999992000062700004+06800-000250FM-12+0167DGKK V0203201N000510030019N0150001N1+02321+02221999999ADDAA199000091AY191061AY221061GA1061+003009059GF106991061051004501001001MW1021REMSYN070AAXX  27004 65459 31465 63201 10232 20222 4//// 70292 86500 333 86610;EQDQ01  00002PRCP99
0154654590999992000062712004+06800-000250FM-12+0167DGKK V0201801N00051004201CN0200001N1+02951+02301999999ADDAA199000091GA1011+003609069GF105991051051004501001001REMSYN070AAXX  27124 65459 32470 51801 10295 20230 4//// 85500 333 81612 84816;EQDQ01  00002PRCP99
0251654590999992000062718004+06800-000250FM-12+0167DGKK V0202301N000510036019N0180001N1+02651+02441999999ADDAA112004191AY191061AY261061GA1061+003609069GA2011+009009099GA3041+063009069GF106991061091004501001001KA1120M+99999MW1271REMSYN100AAXX  27184 65459 11468 62301 10265 20244 4//// 60042 72796 86900 333 10217 86612 81930 84671 95708;EQDQ01 +02172ATMX  
0157654590999992000062800004+06800-000250FM-12+0167DGKK V0209999C000010033019N0120001N1+02311+02261999999ADDAA199000021AY191061AY221061GA1071+003309059GF107991071051004501999999MW1031REMSYN070AAXX  28004 65459 31462 70000 10231 20226 4//// 70392 875// 333 87611;
0188654590999992000062806004+06800-000250FM-12+0167DGKK V0209999C000010030019N0120001N1+02251+02181999999ADDAA124004191AY111061AY211061GA1061+003009069GF107991061051004501031999KA1120N+02181MW1101REMSYN088AAXX  28064 65459 11462 70000 10225 20218 4//// 60044 71011 8653/ 333 20218 86610 86360;
0154654590999992000062812004+06800-000250FM-12+0167DGKK V0203201N00051009001CN0200001N1+02951+02361999999ADDAA199000091GA1031+003909069GF106991061081004501001001REMSYN070AAXX  28124 65459 32470 63201 10295 20236 4//// 86800 333 83613 84818;EQDQ01  00002PRCP99
0148654590999992000062900004+06800-000250FM-12+0167DGKK V0209999C000010036019N0140001N1+02451+02381999999ADDAA199000091GA1071+003609059GF107991071051004501999999REMSYN064AAXX  29004 65459 32464 70000 10245 20238 4//// 875// 333 87612;EQDQ01  00002PRCP99
0167654590999992000062906004+06800-000250FM-12+0167DGKK V0209999C000010036019N0140001N1+02351+02281999999ADDAA199000091GA1071+003609059GF107991071051004501999999KA1120N+02281REMSYN070AAXX  29064 65459 32464 70000 10235 20228 4//// 875// 333 20228 87612;EQDQ01  00002PRCP99
0154654590999992000062912004+06800-000250FM-12+0167DGKK V0203201N001012200019N0180001N1+03031+02311999999ADDAA199000091GA1021+003609069GF104991041081004501001011REMSYN070AAXX  29124 65459 32468 43202 10303 20231 4//// 84801 333 82612 83816;EQDQ01  00002PRCP99
0188654590999992000063006004+06800-000250FM-12+0167DGKK V0209999C000010030019N0120001N1+02401+02361999999ADDAA124001091AY161061AY251061GA1051+003009069GF107991071051004501999999KA1120N+02361MW1021REMSYN088AAXX  30064 65459 11462 70000 10240 20236 4//// 69994 70265 875// 333 20236 85610 87612;
0210654590999992000063018004+06800-000250FM-12+0167DGKK V0201801N000510300019N0180001N1+02401+02241999999ADDAA112011991AY161061AY221061GA1021+003309069GA2041+030009039GF105991021051004501031021KA1120M+02541MW1011REMSYN094AAXX  30184 65459 11468 51801 10240 20224 4//// 60122 70162 82532 333 10254 82611 84360 85072;
0173654590999992000070206004+06800-000250FM-12+0167DGKK V0203201N00051045001CN0160001N1+02211+02201999999ADDAA199000091GA1021+003309069GF107991021051004501031999KA1120N+02161REMSYN076AAXX  02064 65459 32466 73201 10221 20220 4//// 8253/ 333 20216 82611 87361;EQDQ01  00002PRCP99
0176654590999992000070212004+06800-000250FM-12+0167DGKK V0202301N000510048019N0200001N1+02841+02271999999ADDAA199000091GA1031+003909069GA2041+004809089GF106991051081004501031001REMSYN076AAXX  02124 65459 32470 62301 10284 20227 4//// 85830 333 83613 84816 85362;EQDQ01  00002PRCP99
0238654590999992000070218004+06800-000250FM-12+0167DGKK V0209999C000010030019N0160001N1+02461+02301999999ADDAA112001091AY191061AY261061GA1051+003009069GA2071+003609069GA3021+008409099GF107991071091004501999999KA1120M+03101MW1951REMSYN106AAXX  02184 65459 11466 70000 10246 20230 4//// 60012 79596 879// 333 10310 85610 87612 82928 94599 95709;
0157654590999992000070300004+06800-000250FM-12+0167DGKK V0209999C000012200019N0140001N1+02301+02231999999ADDAA199000021AY191061AY211061GA1031+003609059GF103991031051004501001001MW1021REMSYN070AAXX  03004 65459 31464 30000 10230 20223 4//// 70291 83500 333 83612;
0236654590999992000070306004+06800-000250FM-12+0167DGKK V0201401N000510033019N0180001N1+02151+02121101301ADDAA124009991AY191061AY261061GA1071+003309069GA2011+009009099GF107991071091004501999999KA1120N+02111MD1999999+0071MW1951REMSYN106AAXX  03064 65459 11468 71401 10215 20212 40130 60104 79596 879// 333 20211 58007 87611 81930 94582 95701;
0169654590999992000070312004+06800-000250FM-12+0167DGKK V0202701N00101045001CN0180001N1+02681+02221999999ADDAA106010991AY161061AY221061GA1021+003909069GF106991041081004501031001MW1011REMSYN082AAXX  03124 65459 11468 62702 10268 20222 4//// 60111 70162 84830 333 82613 85360;
0154654590999992000070406004+06800-000250FM-12+0167DGKK V0209999C000010036019N0160001N1+02211+02201999999ADDAA124010991GA1071+003609059GF107991071051004501999999KA1120N+02111REMSYN076AAXX  04064 65459 12466 70000 10221 20220 4//// 60114 875// 333 20211 87612;
0176654590999992000070412004+06800-000250FM-12+0167DGKK V0202701N001010048019N0200001N1+02771+02351999999ADDAA199000091GA1041+003609069GA2051+004809089GF107991061081004501031999REMSYN076AAXX  04124 65459 32470 72702 10277 20235 4//// 8683/ 333 84612 85816 86360;EQDQ01  00002PRCP99
0176654590999992000070612004+06800-000250FM-12+0167DGKK V0201401N001010054019N0180001N1+02781+02381999999ADDAA199000091GA1031+003609069GA2041+005409089GF106991051081004501031001REMSYN076AAXX  06124 65459 32468 61402 10278 20238 4//// 85830 333 83612 84818 85362;EQDQ01  00002PRCP99
0137654590999992000070618004+06800-000250FM-12+0167DGKK V0209999C000010042019N0180001N1+02701+02411999999ADDAA112000191AY161061AY221061GF106991061051004501031001MW1031REMSYN066AAXX  06184 65459 11468 60000 10270 20241 4//// 69912 70362 86530;
0148654590999992000070700004+06800-000250FM-12+0167DGKK V0201401N000512200019N0140001N1+02401+02241999999ADDAA199000091GA1031+003609059GF103991031051004501001001REMSYN064AAXX  07004 65459 32464 31401 10240 20224 4//// 83500 333 83612;EQDQ01  00002PRCP99
0182654590999992000070706004+06800-000250FM-12+0167DGKK V0202301N000510033019N0100001N1+02351+02281999999ADDAA124000191AY111061AY211061GA1071+003309059GF107991071051004501999999KA1120N+02301MW1101REMSYN082AAXX  07064 65459 11460 72301 10235 20228 4//// 69914 71011 875// 333 20230 87611;
0176654590999992000070712004+06800-000250FM-12+0167DGKK V0202301N001510039019N0180001N1+02801+02301999999ADDAA199000091GA1051+003909069GA2041+005109089GF107991061081004501031999REMSYN076AAXX  07124 65459 32468 72303 10280 20230 4//// 8683/ 333 85613 84817 87360;EQDQ01  00002PRCP99
0195654590999992000070718004+06800-000250FM-12+0167DGKK V0201801N00051105001CN0180001N1+02821+02451999999ADDAA199000091GA1031+003909069GA2031+005109089GF106991031081004501001021KA1120M+03091REMSYN082AAXX  07184 65459 32468 61801 10282 20245 4//// 83802 333 10309 83613 83817 85075;EQDQ01  00002PRCP99
0167654590999992000070806004+06800-000250FM-12+0167DGKK V0209999C000010036019N0140001N1+02351+02281999999ADDAA199000091GA1071+003609059GF107991071051004501999999KA1120N+02281REMSYN070AAXX  08064 65459 32464 70000 10235 20228 4//// 875// 333 20228 87612;EQDQ01  00002PRCP99
0154654590999992000070812004+06800-000250FM-12+0167DGKK V0202301N00101009001CN0180001N1+02981+02411999999ADDAA199000091GA1031+003609069GF105991051081004501001001REMSYN070AAXX  08124 65459 32468 52302 10298 20241 4//// 85800 333 83612 85816;EQDQ01  00002PRCP99
0239654590999992000070818004+06800-000250FM-12+0167DGKK V0201801N002610048019N0200001N1+02711+02411999999ADDAA199000091GA1031+003609069GA2031+004809089GA3011+008709099GA4051+033009039GF106991051091004501031001KA1120M+03111REMSYN094AAXX  08184 65459 32470 61805 10271 20241 4//// 85930 333 10311 83612 83816 85361 81929 94546;EQDQ01  00002PRCP99
0188654590999992000070906004+06800-000250FM-12+0167DGKK V0203601N00051045001CN0140001N1+02051+02001999999ADDAA124007191AY191061AY221061GA1041+003609069GF107991041051004501031999KA1120N+02021MW1031REMSYN088AAXX  09064 65459 11464 73601 10205 20200 4//// 60074 70392 8453/ 333 20202 84612 87360;
0173654590999992000071006004+06800-000250FM-12+0167DGKK V0202701N00051004201CN0140001N1+02381+02291999999ADDAA199000091GA1031+002709069GF107991071051004501999999KA1120N+02301REMSYN076AAXX  10064 65459 32464 72701 10238 20229 4//// 875// 333 20230 83609 87610;EQDQ01  00002PRCP99
0169654590999992000071012004+06800-000250FM-12+0167DGKK V0202301N00051009001CN0180001N1+02601+02141999999ADDAA106000791AY151061AY221061GA1041+003309069GF106991061081004501001001MW1501REMSYN082AAXX  10124 65459 11468 62301 10260 20214 4//// 69901 75052 86800 333 84611 83818;
0165654590999992000071018004+06800-000250FM-12+0167DGKK V0201801N001010036019N0180001N1+02601+02311999999ADDAY161061AY251061GA1071+003609059GF107991071051004501999999KA1120M+02901MW1031REMSYN076AAXX  10184 65459 11468 71802 10260 20231 4//// 70365 875// 333 10290 87612;
0154654590999992000071106004+06800-000250FM-12+0167DGKK V0209999C000010033019N0140001N1+02321+02281999999ADDAA124000591GA1071+003309059GF107991071051004501999999KA1120N+02301REMSYN076AAXX  11064 65459 12464 70000 10232 20228 4//// 69954 875// 333 20230 87611;
0169654590999992000071112004+06800-000250FM-12+0167DGKK V0202301N00151009001CN0180001N1+02841+02411999999ADDAA106000191AY151061AY221061GA1041+003609069GF106991061081004501001001MW1021REMSYN082AAXX  11124 65459 11468 62303 10284 20241 4//// 69911 70252 86800 333 84612 85817;
0154654590999992000071118004+06800-000250FM-12+0167DGKK V0201801N001010033019N0180001N1+02551+02271999999ADDAA112000191GA1061+003309059GF106991061051004501001001KA1120M+02951REMSYN076AAXX  11184 65459 12468 61802 10255 20227 4//// 69912 86500 333 10295 86611;
0148654590999992000071400004+06800-000250FM-12+0167DGKK V0201801N000510036019N0140001N1+02451+02301999999ADDAA199000091GA1071+003609059GF107991071051004501999999REMSYN064AAXX  14004 65459 32464 71801 10245 20230 4//// 875// 333 87612;EQDQ01  00002PRCP99
0154654590999992000071912004+06070-000250FM-12+0167DGKK V0202301N00151009001CN0180001N1+02801+02241999999ADDAA199000091GA1041+003609069GF107991071081004501999999REMSYN070AAXX  19124 65459 32468 72303 10280 20224 4//// 878// 333 84612 86817;EQDQ01  00002PRCP99
0148654590999992000072000004+06070-000250FM-12+0167DGKK V0202301N001010030019N0140001N1+03301+02151999999ADDAA199000091GA1071+003009059GF107991061051004501999999REMSYN064AAXX  20004 65459 32464 72302 10330 20215 4//// 865// 333 87610;EQDQ01  00002PRCP99
0167654590999992000072106004+06070-000250FM-12+0167DGKK V0202301N000510450019N0160001N1+02151+02071999999ADDAA199000091GA1041+003309059GF105991041051004501031001KA1120N+02111REMSYN070AAXX  21064 65459 32466 52301 10215 20207 4//// 84530 333 20211 84611;EQDQ01  00002PRCP99
0154654590999992000072112004+06070-000250FM-12+0167DGKK V0202701N002112200019N0200001N1+02811+02211999999ADDAA199000091GA1021+003609069GF104991041081004501001001REMSYN070AAXX  21124 65459 32470 42704 10281 20221 4//// 84800 333 82612 84816;EQDQ01  00002PRCP99
0167654590999992000072218004+06070-000250FM-12+0167DGKK V0209999C000012200019N0200001N1+02581+02201999999ADDAA199000091GA1011+003909059GF102991011051004501031011KA1120M+02911REMSYN070AAXX  22184 65459 32470 20000 10258 20220 4//// 81531 333 10291 81613;EQDQ01  00002PRCP99
0148654590999992000072300004+06070-000250FM-12+0167DGKK V0202701N000510033019N0140001N1+02201+02121999999ADDAA199000091GA1071+003309059GF107991071051004501999999REMSYN064AAXX  23004 65459 32464 72701 10220 20212 4//// 875// 333 87611;EQDQ01  00002PRCP99
0167654590999992000072306004+06070-000250FM-12+0167DGKK V0202301N000510033019N0140001N1+02201+02121999999ADDAA199000091GA1071+003309059GF107991071051004501999999KA1120N+02051REMSYN070AAXX  23064 65459 32464 72301 10220 20212 4//// 875// 333 20205 87611;EQDQ01  00002PRCP99
0170654590999992000072406004+06070-000250FM-12+0167DGKK V0202301N001019999999N0160001N1+02201+02081999999ADDAA199000091GA1041+033009029GF105991999999004501999999KA1120N+02151ME1315419REMSYN064AAXX  24064 65459 32466 52302 10220 20208 48541 333 20215 84561;EQDQ01  00002PRCP99
0154654590999992000072500004+06070-000250FM-12+0167DGKK V0202301N00051002101CN0160001N1+02251+02101999999ADDAA199000091GA1031+002709069GF107991071051002501999999REMSYN070AAXX  25004 65459 32366 72301 10225 20210 4//// 875// 333 83609 87611;EQDQ01  00002PRCP99
0167654590999992000072506004+06070-000250FM-12+0167DGKK V0209999C000012200019N0160001N1+02101+02021999999ADDAA199000091GA1031+003309059GF103991031051004501041999KA1120N+02051REMSYN070AAXX  25064 65459 32466 30000 10210 20202 4//// 8354/ 333 20205 83611;EQDQ01  00002PRCP99
0122654590999992000072512004+06070-000250FM-12+0167DGKK V0202301N002110090019N0200001N1+02901+02161999999ADDAA199000091GF106991061081004501001001REMSYN054AAXX  25124 65459 32470 62304 10290 20216 4//// 86800;EQDQ01  00002PRCP99
0195654590999992000072518004+06070-000250FM-12+0167DGKK V0202301N001010036019N0200001N1+02671+02301999999ADDAA199000091GA1051+003609069GA2011+009009099GF106991061091004501001001KA1120M+02951REMSYN082AAXX  25184 65459 32470 62302 10267 20230 4//// 86900 333 10295 85612 81930 94557;EQDQ01  00002PRCP99
0195654590999992000072606004+06070-000250FM-12+0167DGKK V0203201N000510033019N0100001N1+02051+01991999999ADDAA199000091AY121061AY221061GA1071+003309059GF107991071051004501999999KA1120N+01931MW1101REMSYN076AAXX  26064 65459 31460 73201 10205 20199 4//// 71022 875// 333 20193 87611;EQDQ01  00002PRCP99
0217654590999992000072618004+06070-000250FM-12+0167DGKK V0202301N000510054019N0180001N1+02651+02241999999ADDAA199000091GA1031+003609069GA2051+005409089GA3011+008709099GF107991071091004501999999KA1120M+02961REMSYN088AAXX  26184 65459 32468 72301 10265 20224 4//// 879// 333 10296 83612 85818 81929 94568;EQDQ01  00002PRCP99
0195654590999992000072706004+06070-000250FM-12+0167DGKK V0202301N000510033019N0140001N1+02201+02121999999ADDAA199000091AY121061AY221061GA1071+003309059GF107991071051004501999999KA1120N+02131MW1101REMSYN076AAXX  27064 65459 31464 72301 10220 20212 4//// 71022 875// 333 20213 87611;EQDQ01  00002PRCP99
0176654590999992000072800004+06070-000250FM-12+0167DGKK V0201801N000510033019N0180001N1+02441+02221999999ADDAA199000091AY191061AY211061GA1071+003309059GF107991071051004501999999MW1031REMSYN070AAXX  28004 65459 31468 71801 10244 20222 4//// 70391 875// 333 87611;EQDQ01  00002PRCP99
0154654590999992000072806004+06070-000250FM-12+0167DGKK V0201801N000510033019N0160001N1+02281+02201999999ADDAA124017091GA1071+003309059GF107991071051004501999999KA1120N+02231REMSYN076AAXX  28064 65459 12466 71801 10228 20220 4//// 60174 875// 333 20223 87611;
0174654590999992000072812004+06070-000250FM-12+0167DGKK V0202301N001510039019N0250001N1+02601+02261101401ADDAA199000091GA1051+003909069GF107991071081004501999999MD1999999-0081REMSYN076AAXX  28124 65459 32475 72303 10260 20226 40140 878// 333 59008 85613 85815;EQDQ01  00002PRCP99
0217654590999992000072818004+06070-000250FM-12+0167DGKK V0202301N001510054019N0200001N1+02751+02241999999ADDAA199000091GA1041+003909069GA2031+005409089GA3021+009009099GF106991061091004501001001KA1120M+02931REMSYN088AAXX  28184 65459 32470 62303 10275 20224 4//// 86900 333 10293 84613 83818 82930 94699;EQDQ01  00002PRCP99
0163654590999992000072900004+06070-000250FM-12+0167DGKK V0202301N000510030019N0140001N1+02401+02251999999ADDAA106000191AY161061AY221061GA1071+003009059GF107991071051004501999999MW1601REMSYN076AAXX  29004 65459 11464 72301 10240 20225 4//// 69911 76062 875// 333 87610;
0163654590999992000073000004+06070-000250FM-12+0167DGKK V0209999C000010030019N0120001N1+02271+02181999999ADDAA112006191AY191061AY261061GA1071+003009059GF107991071051004501999999MW1021REMSYN076AAXX  30004 65459 11462 70000 10227 20218 4//// 60062 70296 875// 333 87610;
0182654590999992000073006004+06070-000250FM-12+0167DGKK V0209999C000010036019N0100001N1+02221+02181999999ADDAA112074991AY121061AY221061GA1071+003609059GF107991071051004501999999KA1120N+02161MW1101REMSYN082AAXX  30064 65459 11460 70000 10222 20218 4//// 60752 71022 875// 333 20216 87612;
0173654590999992000073018004+06070-000250FM-12+0167DGKK V0202301N00101045001CN0200001N1+02611+02141999999ADDAA199000091GA1041+003309069GF107991041051004501031999KA1120M+02941REMSYN076AAXX  30184 65459 32470 72302 10261 20214 4//// 8453/ 333 10294 84611 87362;EQDQ01  00002PRCP99
0201654590999992000073106004+06070-000250FM-12+0167DGKK V0209999C00001045001CN0100001N1+02001+01821999999ADDAA199000091AY111061AY211061GA1041+003309069GF106991041051004501031001KA1120N+01911MW1101REMSYN082AAXX  31064 65459 31460 60000 10200 20182 4//// 71011 84530 333 20191 84611 85362;EQDQ01  00002PRCP99
0195654590999992000073118004+06070-000250FM-12+0167DGKK V0202301N000510036019N0180001N1+02801+02281999999ADDAA199000091GA1051+003609069GA2011+009009099GF105991051091004501001001KA1120M+03181REMSYN082AAXX  31184 65459 32468 52301 10280 20228 4//// 85900 333 10318 85612 81930 94524;EQDQ01  00002PRCP99
0210654590999992000080106004+06070-000250FM-12+0167DGKK V0203201N000510033019N0160001N1+02101+02021999999ADDAA124011991AY191061AY261061GA1071+003309069GA2011+009009099GF107991071091004501999999KA1120N+02051MW1951REMSYN094AAXX  01064 65459 11466 73201 10210 20202 4//// 60124 79596 879// 333 20205 87611 81930 94571;
0191654590999992000080112004+06070-000250FM-12+0167DGKK V0202301N000510051019N0180001N1+02451+02231999999ADDAA106001091AY191061AY261061GA1021+003609069GA2041+005109089GF107991051081004501031999MW1031REMSYN088AAXX  01124 65459 11468 72301 10245 20223 4//// 60011 70396 8583/ 333 82612 84817 87362;
0160654590999992000080118004+06070-000250FM-12+0167DGKK V0209999C00001045001CN0180001N1+02571+02281999999ADDAA112001091GA1041+003609069GF107991041051004501031999KA1120M+02711REMSYN082AAXX  01184 65459 12468 70000 10257 20228 4//// 60012 8453/ 333 10271 84612 87362;
0182654590999992000080206004+06070-000250FM-12+0167DGKK V0209999C000010036019N0100001N1+02251+02181999999ADDAA124001091AY121061AY221061GA1071+003609059GF107991071051004501999999KA1120N+02301MW1101REMSYN082AAXX  02064 65459 11460 70000 10225 20218 4//// 60014 71022 875// 333 20230 87612;
0232654590999992000080218004+06070-000250FM-12+0167DGKK V0201801N001010360019N0180001N1+02551+02221999999ADDAA112000591AY161061AY221061GA1031+003609069GA2011+009009099GA3071+036009039GF107991041091004501031999KA1120M+02821MW1031REMSYN100AAXX  02184 65459 12468 71802 10255 20222 4//// 69952 70362 8493/ 333 10282 83612 87362 81930 94546;
0148654590999992000080300004+06070-000250FM-12+0167DGKK V0202301N000510039019N0160001N1+02251+02181999999ADDAA199000091GA1071+003909059GF107991071051004501999999REMSYN064AAXX  03004 65459 32466 72301 10225 20218 4//// 875// 333 87613;EQDQ01  00002PRCP99
0188654590999992000080306004+06070-000250FM-12+0167DGKK V0202301N000510036019N0100001N1+02051+02021999999ADDAA124000591AY111061AY211061GA1051+003609069GF107991051081004501031999KA1120N+02021MW1101REMSYN088AAXX  03064 65459 11460 72301 10205 20202 4//// 69954 71011 8583/ 333 20202 85612 87360;
0176654590999992000080312004+06070-000250FM-12+0167DGKK V0202701N000510054019N0160001N1+02601+02231999999ADDAA199000091GA1041+003609069GA2031+005409089GF107991051081004501031999REMSYN076AAXX  03124 65459 32466 72701 10260 20223 4//// 8583/ 333 84612 83818 87362;EQDQ01  00002PRCP99
0163654590999992000080400004+06070-000250FM-12+0167DGKK V0209999C000010036019N0140001N1+02301+02221999999ADDAA112000791AY161061AY221061GA1071+003609059GF107991071051004501999999MW1021REMSYN076AAXX  04004 65459 11464 70000 10230 20222 4//// 69902 70262 875// 333 87612;
0154654590999992000080412004+06070-000250FM-12+0167DGKK V0202701N00051002101CN0140001N1+02471+02281999999ADDAA199000091GA1031+002709069GF107991071051002501999999REMSYN070AAXX  04124 65459 32364 72701 10247 20228 4//// 875// 333 83609 87611;EQDQ01  00002PRCP99
0188654590999992000080418004+06070-000250FM-12+0167DGKK V0209999C00001004201CN0160001N1+02381+02261999999ADDAA112002091AY161061AY221061GA1041+003009069GF107991071051004501999999KA1120M+02541MW1021REMSYN088AAXX  04184 65459 11466 70000 10238 20226 4//// 60022 70262 875// 333 10254 84610 87612;
0163654590999992000080500004+06070-000250FM-12+0167DGKK V0209999C000010033019N0140001N1+02251+02221999999ADDAA106000591AY161061AY221061GA1061+003309059GF106991061051004501001001MW1011REMSYN076AAXX  05004 65459 11464 60000 10225 20222 4//// 69961 70162 86500 333 86611;
0182654590999992000080506004+06070-000250FM-12+0167DGKK V0209999C000010033019N0100001N1+02241+02211999999ADDAA124003091AY161061AY221061GA1071+003309059GF107991071051004501999999KA1120N+02201MW1101REMSYN082AAXX  05064 65459 11460 70000 10224 20221 4//// 60034 71062 875// 333 20220 87611;
0169654590999992000080512004+06070-000250FM-12+0167DGKK V0202301N00151009001CN0180001N1+02651+02281999999ADDAA106000791AY151061AY221061GA1041+003609069GF107991071081004501999999MW1011REMSYN082AAXX  05124 65459 11468 72303 10265 20228 4//// 69901 70152 878// 333 84612 86816;
0160654590999992000080518004+06070-000250FM-12+0167DGKK V0201801N00051045001CN0180001N1+02601+02301999999ADDAA112000791GA1041+003609069GF106991041051004501031001KA1120M+02751REMSYN082AAXX  05184 65459 12468 61801 10260 20230 4//// 69902 84530 333 10275 84612 85360;
0154654590999992000080606004+06070-000250FM-12+0167DGKK V0209999C000010036019N0016001N1+02251+02181999999ADDAA124000791GA1071+003609059GF107991071051004501999999KA1120N+02201REMSYN076AAXX  06064 65459 12416 70000 10225 20218 4//// 69904 875// 333 20220 87612;
0154654590999992000080612004+06070-000250FM-12+0167DGKK V0202301N00101009001CN0180001N1+02751+02321999999ADDAA199000091GA1041+003609069GF106991061081004501001001REMSYN070AAXX  06124 65459 32468 62302 10275 20232 4//// 86800 333 84612 84817;EQDQ01  00002PRCP99
0137654590999992000080618004+06070-000250FM-12+0167DGKK V0202301N000510042019N0180001N1+02481+02291999999ADDAA112000791AY161061AY221061GF107991071051004501999999MW1011REMSYN066AAXX  06184 65459 11468 72301 10248 20229 4//// 69902 70162 875//;
0154654590999992000080918004+06070-000250FM-12+0167DGKK V0202301N001510036019N0180001N1+02451+02231999999ADDAA112000791GA1071+003609059GF107991071051004501999999KA1120M+02861REMSYN076AAXX  09184 65459 12468 72303 10245 20223 4//// 69902 875// 333 10286 87612;
0216654590999992000081118004+06070-000250FM-12+0167DGKK V0202301N001010036019N0100001N1+02521+02381999999ADDAA112004191AY191061AY261061GA1071+003609069GA2011+008409099GF107991071091004501999999KA1120M+03041MW1951REMSYN100AAXX  11184 65459 11460 72302 10252 20238 4//// 60042 79596 879// 333 10304 87612 81928 94613 95702;
0154654590999992000081212004+06070-000250FM-12+0167DGKK V0200501N001010039019N0180001N1+02851+02271999999ADDAA199000091GA1051+003909069GF106991061081004501001001REMSYN070AAXX  12124 65459 32468 60502 10285 20227 4//// 86800 333 85613 84817;EQDQ01  00002PRCP99
0238654590999992000081318004+06070-000250FM-12+0167DGKK V0200501N00051009001CN0180001N1+02001+99999999999ADDAA112000591AY191061AY261061GA1041+003609069GA2011+009009099GA3061+030009049GF107991051091004501041999KA1120M+03051MW1951REMSYN106AAXX  13184 65459 11468 70501 10200 20288 4//// 69962 79596 8594/ 333 10305 84612 86460 81930 94571 95708;
0154654590999992000081412004+06070-000250FM-12+0167DGKK V0202301N00051009001CN0180001N1+02781+02321999999ADDAA199000091GA1041+003009069GF107991071081004501999999REMSYN070AAXX  14124 65459 32468 72301 10278 20232 4//// 878// 333 84610 86817;EQDQ01  00002PRCP99
0188654590999992000081506004+06070-000250FM-12+0167DGKK V0202301N00051045001CN0100001N1+02301+02191999999ADDAA124000791AY121061AY221061GA1041+003309069GF107991041051004501031999KA1120N+02221MW1101REMSYN088AAXX  15064 65459 11460 72301 10230 20219 4//// 69904 71022 8453/ 333 20222 84611 87361;
0154654590999992000081512004+06070-000250FM-12+0167DGKK V0202301N00211009001CN0200001N1+02921+02321999999ADDAA199000091GA1021+003909069GF105991051081004501001001REMSYN070AAXX  15124 65459 32470 52304 10292 20232 4//// 85800 333 82613 84817;EQDQ01  00002PRCP99
0217654590999992000081518004+06070-000250FM-12+0167DGKK V0202301N00051009001CN0200001N1+02651+02181101391ADDAA199000091GA1031+003909069GA2021+009009099GA3051+036009039GF106991021091004501031001KA1120M+03151REMSYN088AAXX  15184 65459 32470 62301 10265 20218 40139 82930 333 10315 83613 85362 82930 94599;EQDQ01  00002PRCP99
0167654590999992000081606004+06070-000250FM-12+0167DGKK V0202301N000510036019N0160001N1+02261+02181999999ADDAA199000091GA1071+003609059GF107991071051004501999999KA1120N+02161REMSYN070AAXX  16064 65459 32466 72301 10226 20218 4//// 875// 333 20216 87612;EQDQ01  00002PRCP99
0154654590999992000081612004+06070-000250FM-12+0167DGKK V0202301N001010036019N0160001N1+02741+02241999999ADDAA199000091GA1051+003609069GF107991071081004501999999REMSYN070AAXX  16124 65459 32466 72302 10274 20224 4//// 878// 333 85612 85817;EQDQ01  00002PRCP99
0154654590999992000081712004+06070-000250FM-12+0167DGKK V0202301N001010036019N0160001N1+02661+02281999999ADDAA199000091GA1051+003609069GF107991071081004501999999REMSYN070AAXX  17124 65459 32466 72302 10266 20228 4//// 878// 333 85612 86818;EQDQ01  00002PRCP99
0173654590999992000081718004+06070-000250FM-12+0167DGKK V0202301N001510036019N0180001N1+02461+02221999999ADDAA199000091GA1051+003609069GF107991061081004501031999KA1120M+02731REMSYN076AAXX  17184 65459 32468 72303 10246 20222 4//// 8683/ 333 10273 85612 86362;EQDQ01  00002PRCP99
0169654590999992000081800004+06070-000250FM-12+0167DGKK V0202701N000510036019N0180001N1+02801+02241999999ADDAA106000391AY161061AY251061GA1051+003609069GF107991051051004501031999MW1011REMSYN082AAXX  18004 65459 11468 72701 10280 20224 4//// 69931 70165 8553/ 333 85612 87360;
0188654590999992000081806004+06070-000250FM-12+0167DGKK V0201801N002610021019N0140001N1+02181+02141999999ADDAA124006191AY161061AY221061GA1051+002109069GF107991071051002501999999KA1120N+02131MW1501REMSYN088AAXX  18064 65459 11364 71805 10218 20214 4//// 60064 75062 875// 333 20213 85607 87612;
0210654590999992000081812004+06070-000250FM-12+0167DGKK V0202701N002610048019N0160001N1+02571+02181999999ADDAA112999999AY161061AY251061GA1031+003309069GA2041+004809089GF107991061081004501031999MW1031REMSYN088AAXX  18124 65459 11466 72705 10257 20218 4//// 69002 70365 8683/ 333 83611 84816 87361;EQDQ01  89992PRCP12
0148654590999992000081900004+06070-000250FM-12+0167DGKK V0201801N001510033019N0150001N1+02251+02181999999ADDAA199000091GA1051+003309059GF105991051051004501001001REMSYN064AAXX  19004 65459 32465 51803 10225 20218 4//// 85500 333 85611;EQDQ01  00002PRCP99
0182654590999992000081906004+06070-000250FM-12+0167DGKK V0209999C000010033019N0150001N1+02111+02091999999ADDAA124002091GA1021+002709069GA2061+003309069GF107991061051004501081999KA1120N+02001REMSYN088AAXX  19064 65459 12465 70000 10211 20209 4//// 60024 8658/ 333 20200 82609 86611 87362;
0182654590999992000082406004+06070-000250FM-12+0167DGKK V0209999C000010033019N0120001N1+02301+02211999999ADDAA124000591AY151061AY221061GA1071+003309059GF107991071051004501999999KA1120N+02241MW1021REMSYN082AAXX  24064 65459 11462 70000 10230 20221 4//// 69944 70252 875// 333 20224 87611;
0154654590999992000082506004+06070-000250FM-12+0167DGKK V0209999C000010030019N0120001N1+02281+02221999999ADDAA124002091GA1071+003009059GF107991071051004501999999KA1120N+02231REMSYN076AAXX  25064 65459 12462 70000 10228 20222 4//// 60024 875// 333 20223 87610;
0188654590999992000082518004+06070-000250FM-12+0167DGKK V0202301N000510036019N0160001N1+02401+02331999999ADDAA112007191AY161061AY221061GA1051+003609069GF107991051051004501071999KA1120M+02851MW1211REMSYN088AAXX  25184 65459 11466 72301 10240 20233 4//// 60072 72162 8557/ 333 10285 85612 87461;
0148654590999992000082700004+06070-000250FM-12+0167DGKK V0202301N000510033019N0160001N1+02351+02201999999ADDAA199000091GA1071+003309059GF107991071051004501999999REMSYN064AAXX  27004 65459 32466 72301 10235 20220 4//// 875// 333 87611;EQDQ01  00002PRCP99
0176654590999992000082712004+06070-000250FM-12+0167DGKK V0201801N000510051019N0180001N1+02721+02341999999ADDAA199000091GA1041+003309069GA2031+005109089GF107991061081004501071999REMSYN076AAXX  27124 65459 32468 71801 10272 20234 4//// 8687/ 333 84611 83817 87362;EQDQ01  00002PRCP99
0173654590999992000082718004+06070-000250FM-12+0167DGKK V0202301N00051045001CN0160001N1+02601+02301999999ADDAA199000091GA1041+003609069GF106991041051004501031011KA1120M+02811REMSYN076AAXX  27184 65459 32466 62301 10260 20230 4//// 84531 333 10281 84612 85362;EQDQ01  00002PRCP99
0173654590999992000082806004+06070-000250FM-12+0167DGKK V0201801N000510027019N0160001N1+02281+02221999999ADDAA199000091GA1051+002709069GF107991071051004501999999KA1120N+02231REMSYN076AAXX  28064 65459 32466 71801 10228 20222 4//// 875// 333 20223 85609 87611;EQDQ01  00002PRCP99
0128654590999992000082900004+06070-000250FM-12+0167DGKK V0202301N000510042019N0140001N1+02381+02261999999ADDAA199000091GF107991071061004501011011REMSYN060AAXX  29004 65459 32464 72301 10238 20226 4//// 5//// 87611;EQDQ01  00002PRCP99
0154654590999992000082906004+06070-000250FM-12+0167DGKK V0209999C000010033019N0140001N1+02331+02261999999ADDAA124000791GA1071+003309059GF107991071051004501999999KA1120N+02261REMSYN076AAXX  29064 65459 12464 70000 10233 20226 4//// 69904 875// 333 20226 87611;
0169654590999992000082912004+06070-000250FM-12+0167DGKK V0201801N001010036019N0180001N1+02651+02281999999ADDAA106000791AY151061AY221061GA1051+003609069GF107991071081004501999999MW1501REMSYN082AAXX  29124 65459 11468 71802 10265 20228 4//// 69901 75052 878// 333 85612 86818;
0188654590999992000082918004+06070-000250FM-12+0167DGKK V0202301N000512200019N0200001N1+02701+02351999999ADDAA112000791AY151061AY221061GA1031+003609069GF104991041081004501001001KA1120M+02901MW1011REMSYN088AAXX  29184 65459 11470 42301 10270 20235 4//// 69902 70152 84800 333 10290 83612 84818;
0129654590999992000083000004+06070-000250FM-12+0167DGKK V0202301N000510036019N0160001N1+02361+02271999999ADDAA199000021GA1071+003609059GF107991071051004501999999REMSYN064AAXX  30004 65459 32466 72301 10236 20227 4//// 875// 333 87612;
0154654590999992000083006004+06070-000250FM-12+0167DGKK V0209999C000010033019N0140001N1+02341+02251999999ADDAA124000791GA1071+003309059GF107991071051004501999999KA1120N+02281REMSYN076AAXX  30064 65459 12464 70000 10234 20225 4//// 69904 875// 333 20228 87611;
0176654590999992000083100004+06070-000250FM-12+0167DGKK V0209999C000010036019N0160001N1+02401+02251999999ADDAA199000091AY191061AY221061GA1071+003609059GF107991071051004501999999MW1031REMSYN070AAXX  31004 65459 31466 70000 10240 20225 4//// 70392 875// 333 87612;EQDQ01  00002PRCP99
0167654590999992000083106004+06070-000250FM-12+0167DGKK V0201801N000510036019N0160001N1+02351+02281999999ADDAA199000091GA1071+003609059GF107991071051004501999999KA1120N+02291REMSYN070AAXX  31064 65459 32466 71801 10235 20228 4//// 875// 333 20229 87612;EQDQ01  00002PRCP99
0148654590999992000090100004+06070-000250FM-12+0167DGKK V0202301N000512200019N0160001N1+02381+02261999999ADDAA199000091GA1041+003009059GF105991041051004501001011REMSYN064AAXX  01004 65459 32466 52301 10238 20226 4//// 84501 333 84610;EQDQ01  00002PRCP99
0174654590999992000090106004+06070-000250FM-12+0167DGKK V0209999C00001003001CN0160001N1+02301+02241999999ADDAA124000191AY151061AY221061GA1051+003009069GF107991051051004501031999MW1011REMSYN087AAXX  01064 65459 11466 70000 10230 20224 4//// 69914 70152 8553/ 333 2025 85610 87262;
0154654590999992000090112004+06070-000250FM-12+0167DGKK V0202301N00051009001CN0160001N1+02941+02301999999ADDAA199000091GA1021+003609069GF106991061081004501001001REMSYN070AAXX  01124 65459 32466 62301 10294 20230 4//// 86800 333 82612 85816;EQDQ01  00002PRCP99
0167654590999992000090118004+06070-000250FM-12+0167DGKK V0202301N001510036019N0180001N1+02731+02231999999ADDAA199000091GA1061+003609029GF106991061051004501001001KA1120M+03211REMSYN070AAXX  01184 65459 32468 62303 10273 20223 4//// 86500 333 10321 86812;EQDQ01  00002PRCP99
0148654590999992000090200004+06070-000250FM-12+0167DGKK V0202701N000510036019N0160001N1+02401+02251999999ADDAA199000091GA1071+003609059GF107991071051004501999999REMSYN064AAXX  02004 65459 32466 72701 10240 20225 4//// 875// 333 87612;EQDQ01  00002PRCP99
0182654590999992000090206004+06070-000250FM-12+0167DGKK V0209999C000010030019N0160001N1+02351+02281999999ADDAA124000891AY161061AY221061GA1071+003009059GF107991071051004501999999KA1120N+02201MW1021REMSYN082AAXX  02064 65459 11466 70000 10235 20228 4//// 69984 70262 875// 333 20220 87610;
0148654590999992000090300004+06070-000250FM-12+0167DGKK V0202301N000510036019N0140001N1+02451+02301999999ADDAA199000091GA1071+003609059GF107991071051004501999999REMSYN064AAXX  03004 65459 32464 72301 10245 20230 4//// 875// 333 87612;EQDQ01  00002PRCP99
0195654590999992000090318004+06070-000250FM-12+0167DGKK V0202701N001012200019N0180001N1+02781+02381999999ADDAA199000091GA1021+003909069GA2011+009009099GF103991031091004501001011KA1120M+02971REMSYN082AAXX  03184 65459 32468 32702 10278 20238 4//// 83901 333 10297 82613 81930 94568;EQDQ01  00002PRCP99
0154654590999992000090412004+06070-000250FM-12+0167DGKK V0202301N00101009001CN0180001N1+02911+02341999999ADDAA199000091GA1031+003909069GF106991061081004501001001REMSYN070AAXX  04124 65459 32468 62302 10291 20234 4//// 86800 333 83613 85817;EQDQ01  00002PRCP99
0173654590999992000090418004+06070-000250FM-12+0167DGKK V0201801N00211220001CN0200001N1+02701+02261999999ADDAA199000091GA1041+003909069GF106991041051004501001061KA1120M+03221REMSYN076AAXX  04184 65459 32470 61804 10270 20226 4//// 84506 333 10322 84613 85275;EQDQ01  00002PRCP99
0167654590999992000090506004+06070-000250FM-12+0167DGKK V0202701N000510033019N0160001N1+02401+02221999999ADDAA199000091GA1071+003309059GF107991071051004501999999KA1120N+02341REMSYN070AAXX  05064 65459 32466 72701 10240 20222 4//// 875// 333 20234 87611;EQDQ01  00002PRCP99
0169654590999992000090512004+06070-000250FM-12+0167DGKK V0201801N00101009001CN0180001N1+02801+02441999999ADDAA112000391AY161061AY221061GA1031+003609069GF106991061081004501001001MW1211REMSYN082AAXX  05124 65459 11468 61802 10280 20244 4//// 69932 72162 86800 333 83612 85817;
0191654590999992000090612004+06070-000250FM-12+0167DGKK V0202301N000510045019N0180001N1+02771+02351999999ADDAA106000791AY161061AY221061GA1041+003309069GA2031+004509089GF107991051081004501031999MW1211REMSYN088AAXX  06124 65459 11468 72301 10277 20235 4//// 69901 72162 8583/ 333 84611 83815 87360;
0188654590999992000090618004+06070-000250FM-12+0167DGKK V0202301N000510033019N0180001N1+02621+02381999999ADDAA112000791AY161061AY221061GA1061+003309069GF107991061051004501031999KA1120M+03051MW1031REMSYN088AAXX  06184 65459 11468 72301 10262 20238 4//// 69902 70362 8653/ 333 10305 86611 86362;
0163654590999992000090700004+06070-000250FM-12+0167DGKK V0202301N000510033019N0160001N1+02381+02261999999ADDAA106000591AY161061AY221061GA1071+003309059GF107991071051004501999999MW1021REMSYN076AAXX  07004 65459 11466 72301 10238 20226 4//// 69941 70262 875// 333 87611;
0182654590999992000090706004+06070-000250FM-12+0167DGKK V0209999C000010033019N0160001N1+02341+02251999999ADDAA124000591AY151061AY221061GA1071+003309059GF107991071051004501999999KA1120N+02281MW1021REMSYN082AAXX  07064 65459 11466 70000 10234 20225 4//// 69944 70252 875// 333 20228 87611;
0173654590999992000090718004+06070-000250FM-12+0167DGKK V0202301N00051045001CN0180001N1+02681+02391999999ADDAA199000091GA1031+003609069GF106991031051004501031021KA1120M+02871REMSYN076AAXX  07184 65459 32468 62301 10268 20239 4//// 83532 333 10287 83612 86362;EQDQ01  00002PRCP99
0148654590999992000090800004+06070-000250FM-12+0167DGKK V0209999C000010036019N0160001N1+02401+02301999999ADDAA199000091GA1071+003609059GF107991071051004501999999REMSYN064AAXX  08004 65459 32466 70000 10240 20230 4//// 875// 333 87612;EQDQ01  00002PRCP99
0167654590999992000090806004+06070-000250FM-12+0167DGKK V0209999C000010033019N0160001N1+02261+02221999999ADDAA199000091GA1071+003309059GF107991071051004501999999KA1120N+02211REMSYN070AAXX  08064 65459 32466 70000 10226 20222 4//// 875// 333 20221 87611;EQDQ01  00002PRCP99
0167654590999992000090818004+06070-000250FM-12+0167DGKK V0202301N001010039019N9999999N1+02841+02271999999ADDAA199000091GA1051+003909059GF106991051051999999041011KA1120M+03141REMSYN070AAXX  08184 65459 3//// 62302 10284 20227 4//// 85541 333 10314 85613;EQDQ01  00002PRCP99
0195654590999992000090918004+06070-000250FM-12+0167DGKK V0202701N00051045001CN0120001N1+02851+02261999999ADDAA199000091GA1011+003909069GA2031+005109089GF105991031081004501031011KA1120M+03181REMSYN082AAXX  09184 65459 32462 52701 10285 20226 4//// 83831 333 10318 81613 83817 85361;EQDQ01  00002PRCP99
0169654590999992000091112004+06070-000250FM-12+0167DGKK V0203201N001010039019N0180001N1+02801+02291999999ADDAA106000191AY161061AY221061GA1051+003909069GF107991071081004501999999MW1031REMSYN082AAXX  11124 65459 11468 73202 10280 20229 4//// 69921 70362 878// 333 85613 86815;
0154654590999992000091306004+06070-000250FM-12+0167DGKK V0209999C000010033019N0140001N1+02091+00031999999ADDAA124006191GA1051+003309059GF106991051051004501031001KA1120N+02041REMSYN076AAXX  13064 65459 12464 60000 10209 20003 4//// 60064 85530 333 20204 85611;
0154654590999992000091400004+06070-000250FM-12+0167DGKK V0209999C00001045001CN0180001N1+02301+02211999999ADDAA199000091GA1031+003609069GF107991031051004501031999REMSYN070AAXX  14004 65459 32468 70000 10230 20221 4//// 8353/ 333 83612 87360;EQDQ01  00002PRCP99
0122654590999992000091406004+06070-000250FM-12+0167DGKK V0209999C000019999999N0140001N1+02201+02141999999ADDAA199000091GF107991051999004501041091REMSYN054AAXX  14064 65459 32464 70000 10220 20214 5//// 85/49;EQDQ01  00002PRCP99
0210654590999992000091418004+06070-000250FM-12+0167DGKK V0201801N000510039019N0180001N1+02551+02271999999ADDAA112000591AY191061AY221061GA1051+003909069GA2011+009009099GF105991051091004501001031KA1120M+03151MW1011REMSYN094AAXX  14184 65459 11468 51801 10255 20227 4//// 69942 70192 85903 333 10315 85613 81930 94535;
0163654590999992000091800004+06070-000250FM-12+0167DGKK V0202301N000510033019N0140001N1+02451+02201999999ADDAA106000191AY161061AY221061GA1071+003309059GF107991071051004501999999MW1021REMSYN076AAXX  18004 65459 11464 72301 10245 20220 4//// 69911 70262 875// 333 87611;
0148654590999992000091900004+06070-000250FM-12+0167DGKK V0202001N000510036019N0160001N1+02341+02201999999ADDAA199000091GA1071+003609059GF107991071051004501999999REMSYN064AAXX  19004 65459 32466 72001 10234 20220 4//// 875// 333 87612;EQDQ01  00002PRCP99
0198654590999992000091912004+06070-000250FM-12+0167DGKK V0203201N001010051019N0180001N1+02841+02321999999ADDAA199000091GA1031+003909069GA2051+005109089GA3011+009009099GF106991051091004501031001REMSYN082AAXX  19124 65459 32468 63202 10284 20232 4//// 85930 333 83613 85817 81930 94568;EQDQ01  00002PRCP99
0176654590999992000092300004+06070-000250FM-12+0167DGKK V0202301N000510036019N0140001N1+02361+02271999999ADDAA199000091AY191061AY221061GA1071+003609059GF107991071051004501999999MW1021REMSYN070AAXX  23004 65459 31464 72301 10236 20227 4//// 70292 875// 333 87612;EQDQ01  00002PRCP99
0132654590999992000092306004+06070-000250FM-12+0167DGKK V0202301N000510042019N0100001N1+02351+02281999999ADDAA124004191GF107991071051004501999999KA1999N+02281REMSYN070AAXX  23064 65459 12460 72301 10235 20228 4//// 60044 875// 333 20228;
0154654590999992000093012004+06070-000250FM-12+0167DGKK V0202301N00051009001CN0160001N1+02921+02231999999ADDAA199000091GA1021+003309069GF106991061081004501001001REMSYN070AAXX  30124 65459 32466 62301 10292 20223 4//// 86800 333 82611 85816;EQDQ01  00002PRCP99
0154654590999992000100506004+06070-000250FM-12+0167DGKK V0209999C000010033019N0140001N1+02251+02191999999ADDAA124066091GA1071+003309059GF107991071051004501999999KA1120N+02161REMSYN076AAXX  05064 65459 12464 70000 10225 20219 4//// 60664 875// 333 20216 87611;
0251654590999992000100518004+06070-000250FM-12+0167DGKK V0202801N00051009001CN0180001N1+01021+99999999999ADDAA199000091AY191061AY221061GA1041+003609069GA2011+009009099GA3051+030009039GF106991041091004501031021KA1120M+03271MW1171REMSYN100AAXX  05184 65459 31468 62801 10102 20224 4//// 71792 84932 333 10327 84612 85360 81930 94613 95702;EQDQ01  00002PRCP99
0239654590999992000101618004+06070-000250FM-12+0167DGKK V0202301N000512200019N0180001N1+02801+02371999999ADDAA199000091GA1011+003309069GA2011+009009099GA3071+066009029GF199999011021004501001021KA1120M+03301REMSYN094AAXX  16184 65459 32468 42301 10280 20237 4//// 81202 333 10330 81611 87272 81930 94599 95709;EQDQ01+000042SCOTCVQ02  00002PRCP99
0154654590999992000102612004+06070-000250FM-12+0167DGKK V0201801N00051009001CN0160001N1+03081+02441999999ADDAA199000091GA1021+003609069GF105991051081004501001001REMSYN070AAXX  26124 65459 32466 51801 10308 20244 4//// 85800 333 82612 84817;EQDQ01  00002PRCP99
0160654590999992000102706004+06070-000250FM-12+0167DGKK V0209999C00001045001CN0150001N1+02451+02351999999ADDAA124001091GA1021+003609069GF107991021051004501031999KA1120N+02391REMSYN082AAXX  27064 65459 12465 70000 10245 20235 4//// 60014 8253/ 333 20239 82612 87360;
0182654590999992000102806004+06070-000250FM-12+0167DGKK V0202701N000510036019N0100001N1+02301+02221999999ADDAA124000591AY121061AY221061GA1071+003609059GF107991071051004501999999KA1120N+02261MW1101REMSYN082AAXX  28064 65459 11460 72701 10230 20222 4//// 69964 71022 875// 333 20226 87612;
0188654590999992000102818004+06070-000250FM-12+0167DGKK V0202701N000510036019N0150001N1+02401+02321999999ADDAA124022191AY191061AY261061GA1051+003609069GF107991051051004501001061KA1120M+03181MW1291REMSYN088AAXX  28184 65459 11465 72701 10240 20232 4//// 60224 72996 85506 333 10318 85612 86272;
0238654590999992000110418004+06070-000250FM-12+0167DGKK V0202301N000510036019N0160001N1+02181+02061999999ADDAA112007191AY191061AY261061GA1051+003609069GA2021+009009099GA3071+036009049GF107991051091004501071999KA1120M+03341MW1951REMSYN106AAXX  04184 65459 11466 72301 10218 20206 4//// 60072 79596 8597/ 333 10334 85612 87462 82930 94699 95709;
0160654590999992000110506004+06070-000250FM-12+0167DGKK V0209999C00001045001CN0140001N1+02251+02181999999ADDAA124007191GA1031+003609069GF105991031051004501031021KA1120N+02071REMSYN082AAXX  05064 65459 12464 50000 10225 20218 4//// 60074 83532 333 20207 83612 85075;
0188654590999992000110806004+06070-000250FM-12+0167DGKK V0209999C000012200019N0060001N1+02221+02191999999ADDAA124008991AY111061AY211061GA1021+003309069GF103991021051004501001021KA1120N+02181MW1101REMSYN088AAXX  08064 65459 11456 30000 10222 20219 4//// 60094 71011 82502 333 20218 82611 83075;
0223654590999992000110818004+06070-000250FM-12+0167DGKK V0202301N001010036019N0180001N1+02701+02241999999ADDAA199000091AY191061AY221061GA1051+003609069GA2011+009009099GF106991051091004501001031KA1120M+03301MW1031REMSYN088AAXX  08184 65459 31468 62302 10270 20224 4//// 70392 85903 333 10330 85612 81930 94582;EQDQ01  00002PRCP99
0195654590999992000110906004+06070-000250FM-12+0167DGKK V0209999C000012200019N0100001N1+02261+02221999999ADDAA199000091AY111061AY211061GA1031+003009059GF103991031051004501001001KA1120N+02241MW1101REMSYN076AAXX  09064 65459 31460 30000 10226 20222 4//// 71011 83500 333 20224 83610;EQDQ01  00002PRCP99
0154654590999992000110912004+06070-000250FM-12+0167DGKK V0202301N00051009001CN0180001N1+03051+02331999999ADDAA199000091GA1031+003609069GF106991061081004501001001REMSYN070AAXX  09124 65459 32468 62301 10305 20233 4//// 86800 333 83612 84817;EQDQ01  00002PRCP99
0207654590999992000111006004+06070-000250FM-12+0167DGKK V0209999C000012200019N0180001N1+02151+02081999999ADDAA124003091AY101061AY201061GA1011+003609069GF103991999051004501031001KA1120N+02101MW1101REMSYN088AAXX  10064 65459 11468 30000 10215 20208 4//// 60034 71000 84530 333 20210 81612 83361;EQDQ01+000042SCOTLC
0223654590999992000111018004+06070-000250FM-12+0167DGKK V0201401N000512200019N0180001N1+02691+02341999999ADDAA199000091AY191061AY221061GA1041+003609069GA2011+009009099GF104991041091004501001001KA1120M+03391MW1291REMSYN088AAXX  10184 65459 31468 41401 10269 20234 4//// 72992 84900 333 10339 84612 81930 94646;EQDQ01  00002PRCP99
0154654590999992000111112004+06070-000250FM-12+0167DGKK V0202301N00051009001CN0200001N1+03051+02471999999ADDAA199000091GA1031+003609069GF106991061081004501001001REMSYN070AAXX  11124 65459 32470 62301 10305 20247 4//// 86800 333 83612 84818;EQDQ01  00002PRCP99
0131654590999992000111200004+06070-000250FM-12+0167DGKK V0203601N000519999999N0140001N1+02451+02381999999ADDAA199000091GF107991999999004501999999REMSYN063AAXX  12004 65459 32464 73601 10245 20238 4//// 75// 333 87612;EQDQ01  00002PRCP99
0154654590999992000111212004+06070-000250FM-12+0167DGKK V0201801N00051009001CN0180001N1+03001+02361999999ADDAA199000091GA1041+003609069GF106991061081004501001001REMSYN070AAXX  12124 65459 32468 61801 10300 20236 4//// 86800 333 84612 86817;EQDQ01  00002PRCP99
0273654590999992000111218004+06070-000250FM-12+0167DGKK V0201801N015910660019N0200001N1+02781+02391999999ADDAA199000091AY111061AY221061GA1021+003609069GA2011+009009099GA3051+066009009GA4051+066009009GF105991031091004501061031KA1120M+03281MW1171REMSYN106AAXX  12184 65459 31470 51831 10278 20239 4//// 71712 83963 333 10328 82612 85072 85072 81930 94557 95706;EQDQ01  00002PRCP99
0173654590999992000111306004+06070-000250FM-12+0167DGKK V0201301N00051105001CN0140001N1+02281+02241999999ADDAA199000091GA1041+003609069GF107991041051004501001061KA1120N+02201REMSYN076AAXX  13064 65459 32464 71301 10228 20224 4//// 84506 333 20220 84612 87275;EQDQ01  00002PRCP99
0217654590999992000111318004+06070-000250FM-12+0167DGKK V0201801N000510720019N0180001N1+02701+02411999999ADDAA199000091GA1031+003909069GA2011+009009099GA3051+072009009GF106991041091004501001031KA1120M+03401REMSYN088AAXX  13184 65459 32468 61801 10270 20241 4//// 84903 333 10340 83613 85074 81930 94557;EQDQ01  00002PRCP99
0148654590999992000111400004+06070-000250FM-12+0167DGKK V0202701N000510036019N0160001N1+02601+02421999999ADDAA199000091GA1071+003609059GF107991071051004501999999REMSYN064AAXX  14004 65459 32466 72701 10260 20242 4//// 875// 333 87612;EQDQ01  00002PRCP99
0154654590999992000111412004+06070-000250FM-12+0167DGKK V0202301N00051009001CN0180001N1+03221+02481999999ADDAA199000091GA1031+003609069GF106991061081004501001001REMSYN070AAXX  14124 65459 32468 62301 10322 20248 4//// 86800 333 83612 84817;EQDQ01  00002PRCP99
0251654590999992000111418004+06070-000250FM-12+0167DGKK V0201801N00051009001CN0160001N1+02481+02121999999ADDAA199000091AY191061AY291061GA1041+003609069GA2021+009009099GA3051+066009029GF107991051091004501001031KA1120M+03371MW1171REMSYN100AAXX  14184 65459 31466 71801 10248 20212 4//// 71799 85903 333 10337 84612 85272 82930 94699 95709;EQDQ01  00002PRCP99
0173654590999992000111506004+06070-000250FM-12+0167DGKK V0203201N00051105001CN0140001N1+02271+02201999999ADDAA199000091GA1031+003609069GF105991031051004501001021KA1120N+02211REMSYN076AAXX  15064 65459 32464 53201 10227 20220 4//// 83502 333 20221 83612 85074;EQDQ01  00002PRCP99
0238654590999992000111518004+06070-000250FM-12+0167DGKK V0200901N001010036019N0120001N1+02161+02001999999ADDAA112036191AY191061AY261061GA1051+003609069GA2021+009009099GA3071+039009049GF107991061091004501071999KA1120M+03241MW1171REMSYN106AAXX  15184 65459 11462 70902 10216 20200 4//// 60362 71796 8697/ 333 10324 85612 87463 82930 94613 95702;
0176654590999992000111600004+06070-000250FM-12+0167DGKK V0209999C000012200019N0140001N1+02201+02141999999ADDAA199000091AY191061AY221061GA1031+003609059GF103991031051004501001001MW1011REMSYN070AAXX  16004 65459 31464 30000 10220 20214 4//// 70192 83500 333 83612;EQDQ01  00002PRCP99
0154654590999992000111706004+06070-000250FM-12+0167DGKK V0209999C000010036019N0160001N1+02281+02221999999ADDAA199000091GA1051+003609069GF107991051051004501081999REMSYN070AAXX  17064 65459 32466 70000 10228 20222 4//// 8558/ 333 85612 87362;EQDQ01  00002PRCP99
0154654590999992000111712004+06070-000250FM-12+0167DGKK V0201401N00051009001CN0180001N1+03101+02391999999ADDAA199000091GA1021+003609069GF105991051081004501001001REMSYN070AAXX  17124 65459 32468 51401 10310 20239 4//// 85800 333 82612 85817;EQDQ01  00002PRCP99
0173654590999992000111718004+06070-000250FM-12+0167DGKK V0209999C00001220001CN0180001N1+02601+02251999999ADDAA199000091GA1021+003609069GF105991021051004501001061KA1120M+03351REMSYN076AAXX  17184 65459 32468 50000 10260 20225 4//// 82506 333 10335 82612 85274;EQDQ01  00002PRCP99
0195654590999992000111806004+06070-000250FM-12+0167DGKK V0202701N00051105001CN0100001N1+02211+02161999999ADDAA199000091AY121061AY221061GA1041+003609069GF107991041051004501001061KA1120N+02171MW1101REMSYN076AAXX  18064 65459 31460 72701 10221 20216 71022 84506 333 20217 84612 87275;EQDQ01  00002PRCP99
0154654590999992000111812004+06070-000250FM-12+0167DGKK V0202701N00051009001CN0200001N1+03101+02381999999ADDAA199000091GA1021+003309069GF106991061081004501001001REMSYN070AAXX  18124 65459 32470 62701 10310 20238 4//// 86800 333 82611 85816;EQDQ01  00002PRCP99
0173654590999992000111906004+06070-000250FM-12+0167DGKK V0209999C00001105001CN0150001N1+02251+02181999999ADDAA199000091GA1021+003309069GF105991021051004501031021KA1120N+02211REMSYN076AAXX  19064 65459 32465 50000 10225 20218 4//// 82532 333 20221 82611 85072;EQDQ01  00002PRCP99
0154654590999992000111912004+06070-000250FM-12+0167DGKK V0201801N00101009001CN0180001N1+03101+02461999999ADDAA199000091GA1021+003609069GF105991051081004501001001REMSYN070AAXX  19124 65459 32468 51802 10310 20246 4//// 85800 333 82612 84817;EQDQ01  00002PRCP99
0238654590999992000111918004+06070-000250FM-12+0167DGKK V0202701N00101009001CN0160001N1+02401+02251999999ADDAA112009991AY191061AY261061GA1041+003609009GA2011+009009099GA3051+072009029GF106991041091004501001031KA1120M+03301MW1171REMSYN106AAXX  19184 65459 11466 62702 10240 20225 4//// 60102 71796 84903 333 10330 84012 85274 81930 94657 95705;
0188654590999992000112006004+06070-000250FM-12+0167DGKK V0202701N00051045001CN0100001N1+02261+02211999999ADDAA124009991AY121061AY221061GA1021+003609069GF107991031051004501031999KA1120N+02201MW1101REMSYN088AAXX  20064 65459 11460 72701 10226 20221 4//// 60104 71022 8353/ 333 20220 82612 87361;
0176654590999992000112012004+06070-000250FM-12+0167DGKK V0202701N00051005101CN0180001N1+03001+02461999999ADDAA199000091GA1021+003609069GA2031+005109089GF107991041081004501031999REMSYN076AAXX  20124 65459 32468 72701 10300 20246 4//// 8483/ 333 82612 83817 87361;EQDQ01  00002PRCP99
0229654590999992000112018004+06070-000250FM-12+0167DGKK V0202301N002110036019N0200001N1+02801+02371999999ADDAA199000091AY191061AY221061GA1051+003609069GA2021+009009099GF106991051091004501031031KA1120M+03341MW1171REMSYN094AAXX  20184 65459 31470 62304 10280 20237 4//// 71792 85933 333 10334 85612 82930 94599 95704;EQDQ01  00002PRCP99
