0096655620999992000010100004+06650-004700FM-12+0092DIDK V02099999999992200019N0200001N1+99999+99999999999ADDGA1001+999999999GF100991001001999999001001REMSYN042AAXX  01004 65562 /3298 0//// 20245 4////;
0173655620999992000010106004+06650-004700FM-12+0092DIDK V02099999999990039019N0080001N1+02401+02371999999ADDAA106000091GA1081+003909059GF108991081051004501999999KA1120N+02341REMSYN076AAXX  01064 65562 32458 8//// 10240 20237 3//// 4//// 885// 333 20234 88613;EQDQ01  00002PRCP06
0142655620999992000010112004+06650-004700FM-12+0092DIDK V02099999999990039019N0080001N1+03201+02411999999ADDAA106000091GA1051+003909029GF105991051021004501001001REMSYN058AAXX  01124 65562 32458 5//// 10320 20241 85200 333 85813;EQDQ01  00002PRCP06
0142655620999992000010212004+06650-004700FM-12+0092DIDK V02099999999990039019N0080001N1+03351+02411999999ADDAA106000091GA1061+003909029GF106991061021004501001001REMSYN058AAXX  02124 65562 32458 6//// 10335 20241 86200 333 86813;EQDQ01  00002PRCP06
0161655620999992000010218004+06650-004700FM-12+0092DIDK V02099999999990045019N0080001N1+02821+02361999999ADDAA106000091GA1081+004509059GF108991081051004501999999KA1120M+03421REMSYN064AAXX  02184 65562 32458 8//// 10282 20236 885// 333 10342 88615;EQDQ01  00002PRCP06
0182655620999992000010300004+06650-004700FM-12+0092DIDK V02099999999990039019N0080001N1+02451+02411999999ADDAA106000091AY111061AY211061GA1081+003909099GF108991081091004501999999MW1131REMSYN076AAXX  03004 65562 31458 8//// 10245 20241 71311 889// 333 88913 95378 95332;EQDQ01  00002PRCP06
0161655620999992000010306004+06650-004700FM-12+0092DIDK V02099999999990039019N0080001N1+02301+02151999999ADDAA106000091GA1081+003909059GF108991081051004501999999KA1120N+02231REMSYN064AAXX  03064 65562 32458 8//// 10230 20215 885// 333 20223 88613;EQDQ01  00002PRCP06
0148655620999992000010312004+06650-004700FM-12+0092DIDK V0209999999999105001CN0180001N1+03041+01851999999ADDAA106000091GA1021+003909089GF106991021021004501001021REMSYN064AAXX  03124 65562 32468 6//// 10304 20185 82202 333 82813 86080;EQDQ01  00002PRCP06
0167655620999992000010318004+06650-004700FM-12+0092DIDK V02099999999990300019N0080001N1+99999+99999999999ADDAA106000091GA1071+030009079GF107991071001999999031001KA1120M+03401REMSYN070AAXX  03184 65562 32958 7//// 20237 3//// 4//// 87030 333 10340 87360;EQDQ01  00002PRCP06
0139655620999992000010400004+06650-004700FM-12+0092DIDK V02099999999992200019N0080001N1+02441+02231999999ADDAA106000091GF102991001001999999001021KA1999N+00801REMSYN058AAXX  04004 65562 32958 2//// 10244 20223 80002 333 22080;EQDQ01  00002PRCP06
0161655620999992000010406004+06650-004700FM-12+0092DIDK V02099999999992200019N0080001N1+01961+01931999999ADDAA106000091GA1031+090009019GF103991001001999999001021KA1120N+01901REMSYN064AAXX  04064 65562 32958 3//// 10196 20193 80002 333 20190 83080;EQDQ01  00002PRCP06
0170655620999992000010412004+06650-004700FM-12+0092DIDK V02099999999992200019N0040001N1+03201+01421999999ADDAA106000091AY101061AY201061GA1001+999999999GF100991001001999999001001MW1051REMSYN064AAXX  04124 65562 31940 0//// 10320 20142 3//// 4//// 70500 333;EQDQ01  00002PRCP06
0189655620999992000010418004+06650-004700FM-12+0092DIDK V02099999999992200019N0050001N1+03001+01461999999ADDAA106000091AY101061AY201061GA1021+090009019GF102991001001999999001021KA1120M+03441MW1051REMSYN070AAXX  04184 65562 31950 2//// 10300 20146 70500 80002 333 10344 82080;EQDQ01  00002PRCP06
0142655620999992000010500004+06650-004700FM-12+0092DIDK V02099999999992200019N0060001N1+01901+01741999999ADDAA106000091GA1001+999999999GF100991001001999999001001REMSYN058AAXX  05004 65562 32956 0//// 10190 20174 3//// 4//// 333;EQDQ01  00002PRCP06
0145655620999992000010506004+06650-004700FM-12+0092DIDK V02099999999992200019N9999999N1+99999+99999999999ADDAA106000091GF104991041051004501001001KA1999N+01551REMSYN064AAXX  05064 65562 32452 4//// 20160 3//// 4//// 84500 333 20155;EQDQ01  00002PRCP06
0142655620999992000010512004+06650-004700FM-12+0092DIDK V02099999999990900019N0080001N1+03001+01761999999ADDAA106000091GA1071+090009019GF107991001001999999001021REMSYN058AAXX  05124 65562 32958 7//// 10300 20176 80002 333 87080;EQDQ01  00002PRCP06
0177655620999992000010606004+06650-004700FM-12+0092DIDK V02099999999992200019N0050001N1+01801+01741999999ADDAA106000091AY101061AY201061GA1001+999999999GF100991001001999999001001KA1999N+01771MW1051REMSYN058AAXX  06064 65562 31950 0//// 10180 20174 70500 333 20177;EQDQ01  00002PRCP06
0170655620999992000010612004+06650-004700FM-12+0092DIDK V02099999999990900019N0040001N1+03111+01591999999ADDAA106000091AY111061AY211061GA1051+090009019GF105991001001999999001021MW1051REMSYN064AAXX  06124 65562 31940 5//// 10311 20159 70511 80002 333 85080;EQDQ01  00002PRCP06
0126655620999992000010700004+06650-004700FM-12+0092DIDK V02099999999992200019N0050001N1+02081+01911999999ADDAA106000091GA1001+999999999GF100991001001999999001001REMSYN042AAXX  07004 65562 31950 0//// 10208 20191;EQDQ01  00002PRCP06
0177655620999992000010706004+06650-004700FM-12+0092DIDK V02099999999992200019N0050001N1+01701+01701999999ADDAA106000091AY101061AY201061GA1001+999999999GF100991001001999999001001KA1999N+01651MW1051REMSYN058AAXX  07064 65562 31950 0//// 10170 20170 70500 333 20165;EQDQ01  00002PRCP06
0154655620999992000010712004+06650-004700FM-12+0092DIDK V02099999999992200019N0050001N1+03151+01951999999ADDAA106000091AY101061AY201061GA1001+999999999GF100991001001999999001001MW1051REMSYN048AAXX  07124 65562 31450 0//// 10315 20195 70500;EQDQ01  00002PRCP06
0201655620999992000010718004+06650-004700FM-12+0092DIDK V02099999999990300019N0050001N1+03141+01781999999ADDAA106000091AY111061AY211061GA1061+030009079GF106991061001999999031001KA1120M+03551MW1051REMSYN082AAXX  07184 65562 31950 6//// 10314 20178 3//// 4//// 70511 86030 333 10355 86360;EQDQ01  00002PRCP06
0170655620999992000010800004+06650-004700FM-12+0092DIDK V02099999999990900019N0050001N1+02501+02101999999ADDAA106000091AY101061AY201061GA1061+090009019GF106991001001999999001021MW1051REMSYN064AAXX  08004 65562 31950 6//// 10250 20210 70500 80002 333 86080;EQDQ01  00002PRCP06
0154655620999992000010812004+06650-004700FM-12+0092DIDK V02099999999990039019N0080001N1+03021+02301999999ADDAA106000091GA1071+003909029GF107991071021004501001001REMSYN070AAXX  08124 65562 32458 7//// 10302 20230 3//// 4//// 87200 333 87813;EQDQ01  00002PRCP06
0167655620999992000010818004+06650-004700FM-12+0092DIDK V0209999999999105001CN0080001N1+03001+02231999999ADDAA106000091GA1011+004509089GF107991011021004501001021KA1120M+03401REMSYN070AAXX  08184 65562 32458 7//// 10300 20223 81202 333 10340 81815 87080;EQDQ01  00002PRCP06
0126655620999992000010900004+06650-004700FM-12+0092DIDK V02099999999992200019N0080001N1+02381+02231999999ADDAA106000091GA1001+999999999GF100991001001999999001001REMSYN042AAXX  09004 65562 32958 0//// 10238 20223;EQDQ01  00002PRCP06
0176655620999992000010912004+06650-004700FM-12+0092DIDK V02099999999991050019N0080001N1+03041+02451999999ADDAA106000091AY141061AY211061GA1999+003909089GF107991031021004501001021MW1021REMSYN070AAXX  09124 65562 31458 7//// 10304 20245 70241 83202 333 8/813 87080;EQDQ01  00002PRCP06
0126655620999992000011000004+06650-004700FM-12+0092DIDK V02099999999992200019N0080001N1+02541+02411999999ADDAA106000091GA1001+999999999GF100991001001999999001001REMSYN042AAXX  10004 65562 32958 0//// 10254 20241;EQDQ01  00002PRCP06
0149655620999992000011006004+06650-004700FM-12+0092DIDK V02099999999992200019N0060001N1+02181+02151999999ADDAA106000091GA1001+999999999GF100991001001999999001001KA1999N+02141REMSYN052AAXX  10064 65562 32956 0//// 10218 20215 333 20214;EQDQ01  00002PRCP06
0112655620999992000011009004+06650-004700FM-12+0092DIDK V02099999999992200019N0080001N1+02551+02381999999ADDGA1021+003909029GF102991021021004501001001REMSYN058AAXX  10094 65562 42458 2//// 10255 20238 82200 333 82813;
0142655620999992000011012004+06650-004700FM-12+0092DIDK V02099999999990039019N0080001N1+03071+02481999999ADDAA106000091GA1051+003909029GF105991051021004501001001REMSYN058AAXX  10124 65562 32458 5//// 10307 20248 85200 333 85813;EQDQ01  00002PRCP06
0112655620999992000011015004+06650-004700FM-12+0092DIDK V02099999999992200019N0080001N1+03501+02341999999ADDGA1041+004509029GF104991041021004501001001REMSYN058AAXX  10154 65562 42458 4//// 10350 20234 84200 333 84815;
0141655620999992000011100004+06650-004700FM-12+0092DIDK V02099999999992200019N0080001N1+02551+02481999999ADDAA106004191AY191061AY261061GA1001+999999999GF100991001001999999001001MW1021REMSYN054AAXX  11004 65562 11958 0//// 10255 20248 60041 70296;
0102655620999992000011103004+06650-004700FM-12+0092DIDK V02099999999990042019N0080001N1+02481+02431999999ADDGF105991051051004501001001IA1309REMSYN058AAXX  11034 65562 42458 5//// 10248 20243 85500 333 42958;
0154655620999992000011106004+06650-004700FM-12+0092DIDK V0209999999999002101CN0060001N1+02351+02331999999ADDAA124003091GA1031+001809079GF105991051021002501001001KA1120N+02311REMSYN076AAXX  11064 65562 12356 5//// 10235 20233 60034 85200 333 20231 83706 85613;
0140655620999992000011109004+06650-004700FM-12+0092DIDK V02099999999990039019N0060001N1+02521+02491999999ADDAY141031AY241031GA1081+003909059GF108991081051004501999999MW1281REMSYN064AAXX  11094 65562 42456 8//// 10252 20249 72844 885// 333 88613;
0170655620999992000011112004+06650-004700FM-12+0092DIDK V02099999999990039019N0100001N1+03041+02451999999ADDAA106000091AY141061AY221061GA1061+003909029GF106991061021004501001001MW1011REMSYN064AAXX  11124 65562 31460 6//// 10304 20245 70142 86200 333 86813;EQDQ01  00002PRCP06
0112655620999992000011115004+06650-004700FM-12+0092DIDK V02099999999990039019N0120001N1+03341+02441999999ADDGA1061+003909029GF106991061021004501001001REMSYN058AAXX  11154 65562 42462 6//// 10334 20244 86200 333 86813;
0161655620999992000011118004+06650-004700FM-12+0092DIDK V02099999999992200019N0100001N1+03191+02511999999ADDAA106000091GA1041+003909029GF104991041021004501001001KA1120M+03401REMSYN064AAXX  11184 65562 32460 4//// 10319 20251 84200 333 10340 84813;EQDQ01  00002PRCP06
0146655620999992000011121004+06650-004700FM-12+0092DIDK V02099999999992200019N0080001N1+02801+02521999999ADDAY101031AY201031GA1021+003909099GF102991021091004501001001MW1131REMSYN070AAXX  11214 65562 41458 2//// 10280 20252 71300 82900 333 82913 95334;
0176655620999992000011200004+06650-004700FM-12+0092DIDK V02099999999990039019N0080001N1+02601+02461999999ADDAA106000091AY191061AY291061GA1061+003909099GF106991061091004501001001MW1171REMSYN070AAXX  12004 65562 31458 6//// 10260 20246 71799 86900 333 86913 95334;EQDQ01  00002PRCP06
0124655620999992000011203004+06650-004700FM-12+0092DIDK V02099999999992200019N0080001N1+02221+02191999999ADDAY191031AY211031GA1001+999999999GF100991001001999999001001MW1011REMSYN048AAXX  12034 65562 41958 0//// 10222 20219 70191;
0189655620999992000011206004+06650-004700FM-12+0092DIDK V02099999999990039019N0080001N1+02181+02131999999ADDAA106000091AY191061AY211061GA1071+003909059GF107991071051004501001001KA1120N+02101MW1031REMSYN070AAXX  12064 65562 31458 7//// 10218 20213 70391 87500 333 20210 87613;EQDQ01  00002PRCP06
0130655620999992000011209004+06650-004700FM-12+0092DIDK V02099999999990039019N0100001N1+02401+02251999999ADDGA1061+003909069GF107991061051004501031001REMSYN076AAXX  12094 65562 42460 7//// 10240 20225 3//// 4//// 86530 333 86613 83360;
0154655620999992000011212004+06650-004700FM-12+0092DIDK V02099999999990039019N0100001N1+03071+02411999999ADDAA106000091GA1071+003909029GF107991071021004501001001REMSYN070AAXX  12124 65562 32460 7//// 10307 20241 3//// 4//// 87200 333 87813;EQDQ01  00002PRCP06
0204655620999992000011218004+06650-004700FM-12+0092DIDK V02099999999990300019N0100001N1+02771+02531999999ADDAA112000591AY191061AY261061GA1011+006009099GA2081+030009049GF108991011091008001071999KA1120M+03341MW1291REMSYN088AAXX  12184 65562 11560 8//// 10277 20253 69952 72996 8197/ 333 10334 81920 88460 95332;
0142655620999992000011300004+06650-004700FM-12+0092DIDK V02099999999992200019N0080001N1+02351+02281999999ADDAA106000091GA1001+999999999GF100991001001999999001001REMSYN058AAXX  13004 65562 32958 0//// 10235 20228 3//// 4//// 333;EQDQ01  00002PRCP06
0160655620999992000011306004+06650-004700FM-12+0092DIDK V02099999999992200019N0060001N1+02201+02201999999ADDAA124000591GA1021+030009079GF102991021001999999031001KA1120N+02101REMSYN082AAXX  13064 65562 12956 2//// 10220 20220 3//// 4//// 69954 82030 333 20210 82360;
0112655620999992000011309004+06650-004700FM-12+0092DIDK V02099999999992200019N0060001N1+02541+02311999999ADDGA1021+003909059GF102991021051004501001001REMSYN058AAXX  13094 65562 42456 2//// 10254 20231 82500 333 82613;
0142655620999992000011312004+06650-004700FM-12+0092DIDK V02099999999992200019N0100001N1+03201+02351999999ADDAA106000091GA1041+004509029GF104991041021004501001001REMSYN058AAXX  13124 65562 32460 4//// 10320 20235 84200 333 84815;EQDQ01  00002PRCP06
0112655620999992000011315004+06650-004700FM-12+0092DIDK V02099999999990045019N0100001N1+03351+02361999999ADDGA1051+004509029GF105991051021004501001001REMSYN058AAXX  13154 65562 42460 5//// 10335 20236 85200 333 85815;
0217655620999992000011318004+06650-004700FM-12+0092DIDK V02099999999990045019N0100001N1+03051+02411999999ADDAA106000091AY111061AY211061GA1071+004509069GA2021+006909099GF107991071091004501001001KA1120M+03491MW1171REMSYN082AAXX  13184 65562 31460 7//// 10305 20241 71711 87900 333 10349 87615 82923 95332;EQDQ01  00002PRCP06
0144655620999992000011321004+06650-004700FM-12+009299999V02099999999990039019N0100001N1+99999+99999999999ADDAY191031AY221031GA1051+003909059GF105991051051004501001001MW1291REMSYN068    AAXX  13214 65562 41460 5//// 102/0 20231 72992 85500 333 85613;
0158655620999992000011400004+06650-004700FM-12+009299999V02099999999992200019N0100001N1+02421+02321999999ADDAA199000091AY191061AY211061GA1001+999999999GF100991001001999999001001MW1011REMSYN052    AAXX  14004 65562 31960 0//// 10242 20232 70191;EQDQ01  00002PRCP99
0165655620999992000011406004+06650-004700FM-12+009299999V02099999999990900019N0080001N1+02251+02251999999ADDAA199000091GA1051+090009019GF105991001001999999001021KA1120N+02221REMSYN068    AAXX  14064 65562 32958 5//// 10225 20225 80002 333 20222 85080;EQDQ01  00002PRCP99
0128655620999992000011409004+06650-004700FM-12+009299999V02099999999990039019N0060001N1+02551+02381999999ADDGA1061+003909029GF106991061021004501001001REMSYN074    AAXX  14094 65562 42456 6//// 10255 20238 3//// 4//// 86200 333 86813;
0158655620999992000011412004+06650-004700FM-12+009299999V02099999999990045019N0100001N1+03171+02441999999ADDAA199000091GA1051+004509029GF105991051021004501001001REMSYN074    AAXX  14124 65562 32460 5//// 10317 20244 3//// 4//// 85200 333 85815;EQDQ01  00002PRCP99
0186655620999992000011418004+06650-004700FM-12+009299999V02099999999990039019N0100001N1+02951+02451999999ADDAA112000591AY161061AY221061GA1051+003909089GF106991051021004501001021KA1120M+03501MW1211REMSYN086    AAXX  14184 65562 11460 6//// 10295 20245 69962 72162 85202 333 10350 85813 83080;
0145655620999992000011500004+06650-004700FM-12+009299999V02099999999992200019N0100001N1+02541+02381999999ADDAA106000591GA1031+003909059GF103991031051004501001001REMSYN080    AAXX  15004 65562 12460 3//// 10254 20238 3//// 4//// 69961 83500 333 83613;
0164655620999992000011506004+06650-004700FM-12+009299999V02099999999992200019N0060001N1+02271+02251999999ADDAA124000591GA1031+003909059GF103991031051004501001001KA1120N+02201REMSYN086    AAXX  15064 65562 12456 3//// 10227 20225 3//// 4//// 69964 83500 333 20220 83613;
0055655620999992000011509004+06650-004700FM-12+009299999V02099999999999999999N0100001N1+02601+02371999999REMSYN046    AAXX  15094 65562 42960 /0/// 10260 20237;
0146655620999992000011512004+06650-004700FM-12+009299999V02099999999990045019N0100001N1+03351+02271999999ADDAA199000091GA1051+004509029GF105991051021004501001001REMSYN062    AAXX  15124 65562 32460 5//// 10335 20227 85200 333 85815;EQDQ01  00002PRCP99
0183655620999992000011518004+06650-004700FM-12+009299999V0209999999999105001CN0100001N1+03321+02321999999ADDAA199000091GA1021+004509089GF105991021021004501001021KA1120M+03621REMSYN086    AAXX  15184 65562 32460 5//// 10332 20232 3//// 4//// 82202 333 10362 82815 85080;EQDQ01  00002PRCP99
0130655620999992000011600004+06650-004700FM-12+009299999V02099999999992200019N0100001N1+02601+02451999999ADDAA199000091GA1001+999999999GF100991001001999999001001REMSYN046    AAXX  16004 65562 32960 0//// 10260 20245;EQDQ01  00002PRCP99
0171655620999992000011606004+06650-004700FM-12+009299999V0209999999999045001CN0080001N1+02351+02351999999ADDAA199000091GA1021+003909069GF105991021051004501071001KA1120N+02301REMSYN074    AAXX  16064 65562 32458 5//// 10235 20235 82570 333 20230 82613 85360;EQDQ01  00002PRCP99
0128655620999992000011609004+06650-004700FM-12+009299999V02099999999990039019N0100001N1+02631+02451999999ADDGA1071+003909029GF107991071021004501001001REMSYN074    AAXX  16094 65562 42460 7//// 10263 20245 3//// 4//// 87200 333 87813;
0158655620999992000011612004+06650-004700FM-12+009299999V02099999999990039019N0100001N1+03101+02451999999ADDAA199000091GA1071+003909029GF107991071021004501001001REMSYN074    AAXX  16124 65562 32460 7//// 10310 20245 3//// 4//// 87200 333 87813;EQDQ01  00002PRCP99
0135655620999992000011615004+06650-004700FM-12+009299999V02099999999990045019N0100001N1+03361+02431999999ADDGA1051+004509029GF106991999021004501001001REMSYN062    AAXX  16154 65562 42460 6//// 10336 20243 85200 333 85815;EQDQ01+000052SCOTLC
0165655620999992000011618004+06650-004700FM-12+009299999V02099999999990900019N0100001N1+03051+02551999999ADDAA199000091GA1071+090009019GF107991001001999999001021KA1120M+03491REMSYN068    AAXX  16184 65562 32960 7//// 10305 20255 80002 333 10349 87080;EQDQ01  00002PRCP99
0158655620999992000011700004+06650-004700FM-12+009299999V02099999999992200019N0100001N1+02501+02381999999ADDAA199000091GA1031+090009019GF103991001001999999001021REMSYN074    AAXX  17004 65562 32960 3//// 10250 20238 3//// 4//// 80002 333 83080;EQDQ01  00002PRCP99
0177655620999992000011706004+06650-004700FM-12+009299999V02099999999992200019N0080001N1+02221+02221999999ADDAA199000091GA1031+003909059GF103991031051004501001001KA1120N+02181REMSYN080    AAXX  17064 65562 32458 3//// 10222 20222 3//// 4//// 83500 333 20218 83613;EQDQ01  00002PRCP99
0110655620999992000011709004+06650-004700FM-12+009299999V02099999999990039019N0100001N1+02401+99999999999ADDGA1071+003909059GF107991071051004501001001REMSYN056    AAXX  17094 65562 42460 7//// 1024/ 87500 333 87613;
0146655620999992000011712004+06650-004700FM-12+009299999V02099999999992200019N0100001N1+03101+02451999999ADDAA199000091GA1041+004509029GF104991041021004501001001REMSYN062    AAXX  17124 65562 32460 4//// 10310 20245 84200 333 84815;EQDQ01  00002PRCP99
0116655620999992000011715004+06650-004700FM-12+009299999V02099999999992200019N0100001N1+03451+02311999999ADDGA1031+004509029GF103991031021004501001001REMSYN062    AAXX  17154 65562 42460 3//// 10345 20231 83200 333 83815;
0171655620999992000011718004+06650-004700FM-12+009299999V0209999999999105001CN0100001N1+03201+02301999999ADDAA199000091GA1021+004809089GF106991021021004501001021KA1120M+03551REMSYN074    AAXX  17184 65562 32460 6//// 10320 20230 82202 333 10355 82816 86080;EQDQ01  00002PRCP99
0116655620999992000011721004+06650-004700FM-12+009299999V02099999999992200019N0100001N1+02771+02441999999ADDGA1021+090009019GF102991001001999999001021REMSYN062    AAXX  17214 65562 42960 2//// 10277 20244 80002 333 82080;
0130655620999992000011800004+06650-004700FM-12+009299999V02099999999992200019N0100001N1+02551+02391999999ADDAA199000091GA1001+999999999GF100991001001999999001001REMSYN046    AAXX  18004 65562 32960 0//// 10255 20239;EQDQ01  00002PRCP99
0153655620999992000011806004+06650-004700FM-12+009299999V02099999999992200019N0080001N1+02251+02251999999ADDAA199000091GA1001+999999999GF100991001001999999001001KA1999N+02221REMSYN056    AAXX  18064 65562 32958 0//// 10225 20225 333 20222;EQDQ01  00002PRCP99
0122655620999992000011809004+06650-004700FM-12+009299999V0209999999999105001CN0080001N1+02451+02331999999ADDGA1031+003909069GF106991031051004501001021REMSYN068    AAXX  18094 65562 42458 6//// 10245 20233 83502 333 83613 86080;
0146655620999992000011812004+06650-004700FM-12+009299999V02099999999990039019N0100001N1+02851+02431999999ADDAA199000091GA1071+003909059GF107991071021004501001001REMSYN062    AAXX  18124 65562 32460 7//// 10285 20243 87200 333 87613;EQDQ01  00002PRCP99
0116655620999992000011815004+06650-004700FM-12+009299999V02099999999992200019N0100001N1+03301+02361999999ADDGA1041+003909029GF104991041021999999001021REMSYN062    AAXX  18154 65562 42960 4//// 10330 20236 84202 333 84813;
0165655620999992000011818004+06650-004700FM-12+009299999V02099999999990900019N0100001N1+03101+02391999999ADDAA199000091GA1061+090009019GF106991001001999999001021KA1120M+03401REMSYN068    AAXX  18184 65562 32960 6//// 10310 20239 80002 333 10340 86080;EQDQ01  00002PRCP99
0146655620999992000011900004+06650-004700FM-12+009299999V02099999999992200019N0100001N1+02371+02301999999ADDAA199000091GA1031+090009019GF103991001001999999001021REMSYN062    AAXX  19004 65562 32960 3//// 10237 20230 80002 333 83080;EQDQ01  00002PRCP99
0116655620999992000011903004+06650-004700FM-12+009299999V02099999999990039019N0100001N1+02351+02281999999ADDGA1061+003909059GF106991061051004501001001REMSYN062    AAXX  19034 65562 42460 6//// 10235 20228 86500 333 86613;
0165655620999992000011906004+06650-004700FM-12+009299999V02099999999990039019N0100001N1+02501+02351999999ADDAA199000091GA1061+003909059GF106991061051004501001001KA1120N+02301REMSYN068    AAXX  19064 65562 32460 6//// 10250 20235 86500 333 20230 86613;EQDQ01  00002PRCP99
0122655620999992000011909004+06650-004700FM-12+009299999V02099999999990039019N0100001N1+02771+02461999999ADDGA1061+003909069GF107991061051004501001021REMSYN068    AAXX  19094 65562 42460 7//// 10277 20246 86502 333 86613 83360;
0146655620999992000011912004+06650-004700FM-12+009299999V02099999999990039019N0100001N1+03201+02491999999ADDAA199000091GA1071+003909029GF107991071021004501001001REMSYN062    AAXX  19124 65562 32460 7//// 10320 20249 87200 333 87813;EQDQ01  00002PRCP99
0112655620999992000011915004+06650-004700FM-12+0092DIDK V02099999999990045019N0100001N1+03521+02441999999ADDGA1071+004509029GF107991071021004501001001REMSYN058AAXX  19154 65562 42460 7//// 10352 20244 87200 333 87815;
0173655620999992000011918004+06650-004700FM-12+0092DIDK V02099999999990045019N0100001N1+03061+02411999999ADDAA199000091GA1071+004509029GF107991071021004501001001KA1120M+03561REMSYN076AAXX  19184 65562 32460 7//// 10306 20241 3//// 4//// 87200 333 10356 87815;EQDQ01  00002PRCP99
0142655620999992000012000004+06650-004700FM-12+0092DIDK V02099999999990300019N0100001N1+02521+02351999999ADDAA199000091GA1071+030009079GF107991071001999999999999REMSYN058AAXX  20004 65562 32960 7//// 10252 20235 870// 333 87360;EQDQ01  00002PRCP99
0130655620999992000012009004+06650-004700FM-12+0092DIDK V0209999999999045001CN0100001N1+02601+02371999999ADDGA1021+003909089GF107991021021004501031001REMSYN076AAXX  20094 65562 42460 7//// 10260 20237 3//// 4//// 82230 333 82813 87360;
0148655620999992000012012004+06650-004700FM-12+0092DIDK V0209999999999045001CN0100001N1+03181+02451999999ADDAA199000091GA1031+003909089GF105991031021004501031001REMSYN064AAXX  20124 65562 32460 5//// 10318 20245 83230 333 83813 83360;EQDQ01  00002PRCP99
0112655620999992000012015004+06650-004700FM-12+0092DIDK V02099999999990045019N0100001N1+03401+02421999999ADDGA1051+004509029GF105991051021004501001001REMSYN058AAXX  20154 65562 42460 5//// 10340 20242 85200 333 85815;
0189655620999992000012018004+06650-004700FM-12+0092DIDK V02099999999990900019N0100001N1+03031+02421999999ADDAA199000091GA1011+006009099GA2051+090009009GF105991011031008001001021KA1120M+03471REMSYN076AAXX  20184 65562 32560 5//// 10303 20242 81302 333 10347 81920 85080 95477;EQDQ01  00002PRCP99
0180655620999992000012021004+06650-004700FM-12+0092DIDK V02099999999990039019N0100001N1+02721+02431999999ADDAY121031AY221031GA1061+003909089GA2021+006009099GF106991061091004501001001MW1131REMSYN088AAXX  20214 65562 41460 6//// 10272 20243 3//// 4//// 71322 86900 333 86813 82920 95334;
0169655620999992000012100004+06650-004700FM-12+0092DIDK V02099999999990039019N0080001N1+02261+02171999999ADDAA106007191AY191061AY261061GA1081+003909059GF108991081051004501999999MW1021REMSYN082AAXX  21004 65562 11458 8//// 10226 20217 3//// 4//// 60071 70296 885// 333 88613;
0160655620999992000012106004+06650-004700FM-12+0092DIDK V02099999999990039019N0080001N1+02261+02231999999ADDAA124007191GA1071+003909059GF107991071051004501001001KA1120N+02201REMSYN082AAXX  21064 65562 12458 7//// 10226 20223 3//// 4//// 60074 87500 333 20220 87613;
0112655620999992000012109004+06650-004700FM-12+0092DIDK V02099999999990450019N0100001N1+02451+02291999999ADDGA1011+003909029GF107991011011004501071001REMSYN058AAXX  21094 65562 42460 7//// 10245 20229 81170 333 81813;
0142655620999992000012112004+06650-004700FM-12+0092DIDK V02099999999999999999N0100001N1+99999+99999999999ADDAA199000091GA1031+003909089GF105991031021999999001021REMSYN058AAXX  21124 65562 3//60 5//// 20243 83202 333 83813 84080;EQDQ01  00002PRCP99
0112655620999992000012115004+06650-004700FM-12+0092DIDK V02099999999990039019N0100001N1+03301+02461999999ADDGA1051+003909029GF105991051021004501001001REMSYN058AAXX  21154 65562 42460 5//// 10330 20246 85200 333 85813;
0176655620999992000012118004+06650-004700FM-12+0092DIDK V02099999999990300019N0100001N1+03171+02391999999ADDAA199000091GA1031+003909089GA2031+030009039GF106991031021004501031021REMSYN076AAXX  21184 65562 32460 6//// 10317 20239 83232 333 1343/ 83813 83360 86080;EQDQ01  00002PRCP99
0161655620999992000012206004+06650-004700FM-12+0092DIDK V02099999999992200019N0080001N1+02301+02301999999ADDAA199000091GA1021+048009079GF102991021001999999031001KA1120N+02281REMSYN064AAXX  22064 65562 32958 2//// 10230 20230 82030 333 20228 82366;EQDQ01  00002PRCP99
0112655620999992000012209004+06650-004700FM-12+0092DIDK V02099999999992200019N0080001N1+02651+02411999999ADDGA1021+003909029GF102991021021004501001001REMSYN058AAXX  22094 65562 42458 2//// 10265 20241 82200 333 82813;
0142655620999992000012212004+06650-004700FM-12+0092DIDK V02099999999992200019N0100001N1+03281+02471999999ADDAA199000091GA1041+003909029GF104991041021004501001001REMSYN058AAXX  22124 65562 32460 4//// 10328 20247 84200 333 84813;EQDQ01  00002PRCP99
0112655620999992000012215004+06650-004700FM-12+0092DIDK V02099999999990045019N0100001N1+03461+02391999999ADDGA1071+004509029GF107991071021004501001001REMSYN058AAXX  22154 65562 42460 7//// 10346 20239 87200 333 87815;
0167655620999992000012218004+06650-004700FM-12+0092DIDK V0209999999999105001CN0100001N1+03201+02431999999ADDAA199000091GA1021+004509089GF107991021021004501001021KA1120M+03561REMSYN070AAXX  22184 65562 32460 7//// 10320 20243 82202 333 10356 82815 87080;EQDQ01  00002PRCP99
0142655620999992000012300004+06650-004700FM-12+0092DIDK V02099999999992200019N0100001N1+02551+02361999999ADDAA199000091GA1041+090009019GF104991001001999999001021REMSYN058AAXX  23004 65562 32960 4//// 10255 20236 80002 333 84080;EQDQ01  00002PRCP99
0106655620999992000012303004+06650-004700FM-12+0092DIDK V02099999999990900019N0100001N1+02351+02271999999ADDGA1051+090009019GF105991999999999999999999REMSYN052AAXX  23034 65562 42960 5//// 10235 20227 333 85080;
0161655620999992000012306004+06650-004700FM-12+0092DIDK V02099999999990300019N0080001N1+02331+02291999999ADDAA199000091GA1061+030009079GF106991061001999999031001KA1120N+02231REMSYN064AAXX  23064 65562 32958 6//// 10233 20229 86030 333 20223 86360;EQDQ01  00002PRCP99
0112655620999992000012309004+06650-004700FM-12+0092DIDK V02099999999992200019N0100001N1+02641+02351999999ADDGA1021+003909029GF102991021021004501001001REMSYN058AAXX  23094 65562 42460 2//// 10264 20235 82200 333 82813;
0142655620999992000012312004+06650-004700FM-12+0092DIDK V02099999999990039019N0100001N1+03201+02461999999ADDAA199000091GA1061+003909029GF106991061021004501001001REMSYN058AAXX  23124 65562 32460 6//// 10320 20246 86200 333 86813;EQDQ01  00002PRCP99
0112655620999992000012315004+06650-004700FM-12+0092DIDK V02099999999990045019N0100001N1+03451+02441999999ADDGA1051+004509029GF105991051021004501001001REMSYN058AAXX  23154 65562 42460 5//// 10345 20244 85200 333 85815;
0173655620999992000012318004+06650-004700FM-12+0092DIDK V02099999999990045019N0100001N1+03151+02451999999ADDAA199000091GA1061+004509029GF106991061021004501001001KA1120M+03501REMSYN076AAXX  23184 65562 32460 6//// 10315 20245 3//// 4//// 86200 333 10350 86815;EQDQ01  00002PRCP99
0134655620999992000012321004+06650-004700FM-12+0092DIDK V02099999999992200019N0100001N1+02751+99999999999ADDAY101031AY201031GA1021+003909099GF102991999999004501999999MW1131REMSYN058AAXX  23214 65562 41460 2//// 10275 71300 333 82913 95336;
0130655620999992000012409004+06650-004700FM-12+0092DIDK V02099999999990039019N0080001N1+02551+02411999999ADDGA1051+003909069GF106991051051004501031001REMSYN076AAXX  24094 65562 42458 6//// 10255 20241 3//// 4//// 85530 333 85613 84360;
0154655620999992000012412004+06650-004700FM-12+0092DIDK V02099999999990039019N0100001N1+03091+02421999999ADDAA199000091GA1071+003909029GF107991071021004501001001REMSYN070AAXX  24124 65562 32460 7//// 10309 20242 3//// 4//// 87200 333 87813;EQDQ01  00002PRCP99
0112655620999992000012415004+06650-004700FM-12+0092DIDK V02099999999990045019N0120001N1+03341+02411999999ADDGA1061+004509029GF106991061021004501001021REMSYN058AAXX  24154 65562 42462 6//// 10334 20241 86202 333 86815;
0154655620999992000012500004+06650-004700FM-12+0092DIDK V02099999999992200019N0100001N1+02501+02411999999ADDAA199000091GA1041+090009019GF104991001001999999001021REMSYN070AAXX  25004 65562 32960 4//// 10250 20241 3//// 4//// 80002 333 84080;EQDQ01  00002PRCP99
0112655620999992000012503004+06650-004700FM-12+0092DIDK V02099999999992200019N0100001N1+02361+02331999999ADDGA1021+090009019GF102991001001999999001021REMSYN058AAXX  25034 65562 42960 2//// 10236 20233 80002 333 82080;
0118655620999992000012509004+06650-004700FM-12+0092DIDK V02099999999992200019N0060001N1+02571+02321999999ADDGA1021+003909089GF104991021021004501001021REMSYN064AAXX  25094 65562 42456 4//// 10257 20232 82202 333 82813 83080;
0142655620999992000012512004+06650-004700FM-12+0092DIDK V02099999999990039019N0100001N1+03281+02511999999ADDAA199000091GA1051+003909029GF105991051021004501001001REMSYN058AAXX  25124 65562 32460 5//// 10328 20251 85200 333 85813;EQDQ01  00002PRCP99
0112655620999992000012515004+06650-004700FM-12+0092DIDK V02099999999990045019N0100001N1+03451+02431999999ADDGA1061+004509029GF106991061021004501001001REMSYN058AAXX  25154 65562 42460 6//// 10345 20243 86200 333 86815;
0161655620999992000012518004+06650-004700FM-12+0092DIDK V02099999999990045019N0100001N1+03261+02431999999ADDAA199000091GA1051+004509029GF106991051021004501001021KA1120M+03601REMSYN064AAXX  25184 65562 32460 6//// 10326 20243 85202 333 10360 85815;EQDQ01  00002PRCP99
0096655620999992000012521004+06650-004700FM-12+0092DIDK V02099999999992200019N0100001N1+02841+02471999999ADDGA1001+999999999GF100991001001999999001001REMSYN042AAXX  25214 65562 42960 0//// 10284 20247;
0142655620999992000012600004+06650-004700FM-12+0092DIDK V02099999999992200019N0100001N1+02621+02461999999ADDAA199000091GA1031+003909059GF103991031051004501001001REMSYN058AAXX  26004 65562 32460 3//// 10262 20246 83500 333 83613;EQDQ01  00002PRCP99
0112655620999992000012603004+06650-004700FM-12+0092DIDK V02099999999990039019N9999999N1+02501+02381999999ADDGA1061+003909059GF106991061051012501001001REMSYN058AAXX  26034 65562 4260/ 6//// 10250 20238 86500 333 86613;
0161655620999992000012606004+06650-004700FM-12+0092DIDK V02099999999990039019N0100001N1+02451+02361999999ADDAA199000091GA1081+003909059GF108991081051004501999999KA1120N+02401REMSYN064AAXX  26064 65562 32460 8//// 10245 20236 885// 333 20240 88613;EQDQ01  00002PRCP99
0086655620999992000012609004+06650-004700FM-12+0092DIDK V02099999999999999999N0080001N1+02671+02431999999ADDGA1031+003909029REMSYN058AAXX  26094 65562 42458 ///// 10267 20243 83230 333 83813;
0142655620999992000012612004+06650-004700FM-12+0092DIDK V02099999999990045019N0100001N1+03241+02471999999ADDAA199000091GA1061+004509029GF106991061021004501001001REMSYN058AAXX  26124 65562 32460 6//// 10324 20247 86200 333 86815;EQDQ01  00002PRCP99
0112655620999992000012615004+06650-004700FM-12+0092DIDK V02099999999990045019N0100001N1+03451+02471999999ADDGA1051+004509029GF105991051021004501001001REMSYN058AAXX  26154 65562 42460 5//// 10345 20247 85200 333 85815;
0217655620999992000012618004+06650-004700FM-12+0092DIDK V02099999999990300019N0100001N1+02701+02411999999ADDAA199000091AY191061AY221061GA1041+004509099GA2071+030009039GF107991041091004501071001KA1120M+03521MW1171REMSYN082AAXX  26184 65562 32460 7//// 10270 20241 71792 84970 333 10352 84915 87360 95338;EQDQ01  00002PRCP99
0186655620999992000012700004+06650-004700FM-12+0092DIDK V02099999999990039019N0100001N1+02301+02231999999ADDAY191061AY261061GA1051+003909099GF105991999091004501001001MA1999999099611MW1171REMSYN076AAXX  27004 65562 11460 5//// 10230 20223 39961 71796 87900 333 85913 95334;EQDQ01+000072SCOTLC
0148655620999992000012706004+06650-004700FM-12+0092DIDK V02099999999990300019N0100001N1+02151+02131999999ADDAA124000591GA1061+030009079GF106991061001999999031001KA1120N+02081REMSYN070AAXX  27064 65562 12960 6//// 10215 20213 69964 86030 333 20208 86360;
0112655620999992000012709004+06650-004700FM-12+0092DIDK V02099999999992200019N9999999N1+02441+02231999999ADDGA1031+003909029GF103991031021012501001001REMSYN058AAXX  27094 65562 4460/ 3//// 10244 20223 83200 333 83813;
0142655620999992000012712004+06650-004700FM-12+0092DIDK V02099999999992200019N0100001N1+03141+02671999999ADDAA199000091GA1031+003909029GF103991031021004501001001REMSYN058AAXX  27124 65562 32460 3//// 10314 20267 83200 333 83813;EQDQ01  00002PRCP99
0124655620999992000012715004+06650-004700FM-12+0092DIDK V02099999999990045019N0100001N1+03361+02591999999ADDGA1051+004509029GF105991051021004501001001REMSYN070AAXX  27154 65562 42460 5//// 10336 20259 3//// 4//// 85200 333 85815;
0173655620999992000012718004+06650-004700FM-12+0092DIDK V02099999999992200019N0100001N1+03171+02661999999ADDAA199000091GA1031+004509029GF103991031021004501001001KA1120M+03451REMSYN076AAXX  27184 65562 32460 3//// 10317 20266 3//// 4//// 83200 333 10345 83815;EQDQ01  00002PRCP99
0096655620999992000012721004+06650-004700FM-12+0092DIDK V02099999999992200019N0100001N1+02801+02581999999ADDGA1001+999999999GF100991001001999999001001REMSYN042AAXX  27214 65562 42960 0//// 10280 20258;
0126655620999992000012800004+06650-004700FM-12+0092DIDK V02099999999992200019N0100001N1+02591+02491999999ADDAA199000091GA1001+999999999GF100991001001999999001001REMSYN042AAXX  28004 65562 32960 0//// 10259 20249;EQDQ01  00002PRCP99
0167655620999992000012806004+06650-004700FM-12+0092DIDK V0209999999999105001CN0060001N1+02381+02351999999ADDAA199000091GA1041+003909069GF106991041051004501001021KA1120N+02321REMSYN070AAXX  28064 65562 32456 6//// 10238 20235 84502 333 20232 84613 83080;EQDQ01  00002PRCP99
0112655620999992000012809004+06650-004700FM-12+0092DIDK V02099999999990039019N0100001N1+02581+02471999999ADDGA1071+003909059GF107991071051004501001001REMSYN058AAXX  28094 65562 42460 7//// 10258 20247 87500 333 87613;
0142655620999992000012812004+06650-004700FM-12+0092DIDK V02099999999990039019N0100001N1+03051+02621999999ADDAA199000091GA1071+003909029GF107991071021004501001001REMSYN058AAXX  28124 65562 32460 7//// 10305 20262 87200 333 87813;EQDQ01  00002PRCP99
0161655620999992000012818004+06650-004700FM-12+0092DIDK V02099999999992200019N0100001N1+03081+02401999999ADDAA199000091GA1021+004509029GF102991021021004501001001KA1120M+03391REMSYN064AAXX  28184 65562 32460 2//// 10308 20240 82200 333 10339 82815;EQDQ01  00002PRCP99
0096655620999992000012821004+06650-004700FM-12+0092DIDK V02099999999992200019N0100001N1+02751+02471999999ADDGF101991011051004501001001REMSYN058AAXX  28214 65562 42460 1//// 10275 20247 81500 333 81/8/;
0142655620999992000012900004+06650-004700FM-12+0092DIDK V02099999999992200019N0100001N1+02551+02431999999ADDAA199000091GA1001+999999999GF100991001001999999001001REMSYN058AAXX  29004 65562 32960 0//// 10255 20243 3//// 4//// 333;EQDQ01  00002PRCP99
0161655620999992000012906004+06650-004700FM-12+0092DIDK V02099999999992200019N0080001N1+02281+02251999999ADDAA199000091GA1021+003909059GF102991021051004501001001KA1120N+02241REMSYN064AAXX  29064 65562 32458 2//// 10228 20225 82500 333 20224 82613;EQDQ01  00002PRCP99
0112655620999992000012909004+06650-004700FM-12+0092DIDK V02099999999992200019N0100001N1+02641+02471999999ADDGA1011+003909029GF101991011011004501001001REMSYN058AAXX  29094 65562 42460 1//// 10264 20247 81100 333 81813;
0142655620999992000012912004+06650-004700FM-12+0092DIDK V02099999999990045019N0100001N1+03351+02591999999ADDAA199000091GA1051+004509029GF105991051021004501001001REMSYN058AAXX  29124 65562 32460 5//// 10335 20259 85200 333 85815;EQDQ01  00002PRCP99
0112655620999992000012915004+06650-004700FM-12+0092DIDK V02099999999992200019N0100001N1+03611+02591999999ADDGA1041+004809029GF104991041021004501001001REMSYN058AAXX  29154 65562 42460 4//// 10361 20259 84200 333 84816;
0161655620999992000012918004+06650-004700FM-12+0092DIDK V02099999999990048019N0100001N1+03451+02521999999ADDAA199000091GA1051+004809029GF105991051021004501001001KA1120M+03741REMSYN064AAXX  29184 65562 32460 5//// 10345 20252 85200 333 10374 85816;EQDQ01  00002PRCP99
0096655620999992000012921004+06650-004700FM-12+0092DIDK V02099999999992200019N0100001N1+02951+02611999999ADDGA1001+999999999GF100991001001999999001001REMSYN042AAXX  29214 65562 42960 0//// 10295 20261;
0126655620999992000013000004+06650-004700FM-12+0092DIDK V02099999999992200019N0100001N1+02651+02511999999ADDAA199000091GA1001+999999999GF100991001001999999001001REMSYN042AAXX  30004 65562 32960 0//// 10265 20251;EQDQ01  00002PRCP99
0177655620999992000013006004+06650-004700FM-12+0092DIDK V02099999999992200019N0001001N1+02271+02271999999ADDAA199000091AY141061AY201061GA1001+999999999GF100991001001999999001001KA1999N+02251MW1461REMSYN058AAXX  30064 65562 31901 0//// 10227 20227 74640 333 20225;EQDQ01  00002PRCP99
0146655620999992000013009004+06650-004700FM-12+0092DIDK V0209999999999009001CN0080001N1+02601+02461999999ADDAY141031AY211031GA1041+003009089GF106991061081004501001001MW1031REMSYN070AAXX  30094 65562 41458 6//// 10260 20246 70341 86800 333 84810 86613;
0170655620999992000013012004+06650-004700FM-12+0092DIDK V02099999999990045019N0100001N1+03131+02581999999ADDAA199000091AY141061AY211061GA1051+004509029GF105991051021004501001001MW1011REMSYN064AAXX  30124 65562 31460 5//// 10313 20258 70141 85200 333 85815;EQDQ01  00002PRCP99
0096655620999992000013015004+06650-004700FM-12+0092DIDK V02099999999992200019N0100001N1+03651+02291999999ADDGA1001+999999999GF100991001001999999001001REMSYN042AAXX  30154 65562 42960 0//// 10365 20229;
0149655620999992000013018004+06650-004700FM-12+0092DIDK V02099999999992200019N0080001N1+03451+02191999999ADDAA199000091GA1001+999999999GF100991001001999999001001KA1999M+03781REMSYN052AAXX  30184 65562 32958 0//// 10345 20219 333 10378;EQDQ01  00002PRCP99
0142655620999992000013100004+06650-004700FM-12+0092DIDK V02099999999992200019N0100001N1+02311+02071999999ADDAA199000091GA1031+003909059GF103991031051004501001001REMSYN058AAXX  31004 65562 32460 3//// 10231 20207 83500 333 83613;EQDQ01  00002PRCP99
0096655620999992000013103004+06650-004700FM-12+0092DIDK V02099999999992200019N0080001N1+02151+02001999999ADDGA1001+999999999GF100991001001999999001001REMSYN042AAXX  31034 65562 42958 0//// 10215 20200;
0155655620999992000013106004+06650-004700FM-12+0092DIDK V02099999999992200019N0080001N1+02001+99999999999ADDAA199000091GA1021+090009019GF102991001001999999001021KA1120N+01981REMSYN058AAXX  31064 65562 32958 2//// 10200 80002 333 20198 82080;EQDQ01  00002PRCP99
0096655620999992000013109004+06650-004700FM-12+0092DIDK V02099999999992200019N0060001N1+02321+02141999999ADDGA1001+999999999GF100991001001999999001001REMSYN042AAXX  31094 65562 42956 0//// 10232 20214;
0154655620999992000013112004+06650-004700FM-12+0092DIDK V02099999999992200019N0020001N1+03251+01971999999ADDAA199000091AY101061AY201061GA1001+999999999GF100991001001999999001001MW1051REMSYN048AAXX  31124 65562 31920 0//// 10325 20197 70500;EQDQ01  00002PRCP99
0140655620999992000013115004+06650-004700FM-12+0092DIDK V02099999999992200019N0020001N1+03581+01061999999ADDAY101031AY201031GA1001+999999999GF100991001001999999001001MW1051REMSYN064AAXX  31154 65562 41920 0//// 10358 20106 3//9/ 4//// 70500 333;
0189655620999992000013118004+06650-004700FM-12+0092DIDK V02099999999992200019N0020001N1+03231+01441999999ADDAA199000091AY101061AY201061GA1001+999999999GF100991001001999999001001KA1999M+03701MW1051REMSYN070AAXX  31184 65562 31920 0//// 10323 20144 3//// 4//// 70500 333 10370;EQDQ01  00002PRCP99
0126655620999992000020100004+06650-004700FM-12+0092DIDK V02099999999992200019N0080001N1+02251+01861999999ADDAA199000091GA1001+999999999GF100991001001999999001001REMSYN042AAXX  01004 65562 32958 0//// 10225 20186;EQDQ01  00002PRCP99
0149655620999992000020106004+06650-004700FM-12+0092DIDK V02099999999992200019N0060001N1+01901+01761999999ADDAA199000091GA1001+999999999GF100991001001999999001001KA1999N+01821REMSYN052AAXX  01064 65562 32956 0//// 10190 20176 333 20182;EQDQ01  00002PRCP99
0112655620999992000020109004+06650-004700FM-12+0092DIDK V02099999999992200019N0060001N1+02401+01941999999ADDGA1001+999999999GF100991001001999999001001REMSYN058AAXX  01094 65562 42956 0//// 10240 20194 3//// 4//// 333;
0170655620999992000020112004+06650-004700FM-12+0092DIDK V02099999999992200019N0006001N1+03201+01241999999ADDAA199000091AY101061AY201061GA1001+999999999GF100991001001999999001001MW1051REMSYN064AAXX  01124 65562 31906 0//// 10320 20124 3//// 4//// 70500 333;EQDQ01  00002PRCP99
0124655620999992000020115004+06650-004700FM-12+0092DIDK V02099999999992200019N0020001N1+03451+01221999999ADDAY101031AY201031GA1001+999999999GF100991001001999999001001MW1051REMSYN048AAXX  01154 65562 41920 0//// 10345 20122 70500;
0177655620999992000020118004+06650-004700FM-12+0092DIDK V02099999999992200019N0020001N1+03151+01561999999ADDAA199000091AY101061AY201061GA1001+999999999GF100991001001999999001001KA1999M+03521MW1051REMSYN058AAXX  01184 65562 31920 0//// 10315 20156 70500 333 10352;EQDQ01  00002PRCP99
0170655620999992000020200004+06650-004700FM-12+0092DIDK V02099999999992200019N0030001N1+02201+01841999999ADDAA199000091AY101061AY201061GA1001+999999999GF100991001001999999001001MW1051REMSYN064AAXX  02004 65562 31930 0//// 10220 20184 3//// 4//// 70500 333;EQDQ01  00002PRCP99
0112655620999992000020203004+06650-004700FM-12+0092DIDK V02099999999992200019N0060001N1+01971+01861999999ADDGA1001+999999999GF100991001001999999001001REMSYN058AAXX  02034 65562 42956 0//// 10197 20186 3//// 4//// 333;
0177655620999992000020206004+06650-004700FM-12+0092DIDK V02099999999992200019N0060001N1+01801+01631999999ADDAA199000091GA1001+999999999GF100991001001999999001001KA1999M+99999REMSYN064AAXX  02064 65562 32956 0//// 10180 20163 3//// 4//// 333 10173;EQDQ01  00002PRCP99Q02 +01732ATMX  
0144655620999992000020207004+06650-004700FM-12+0092DIDK V02099999999992200019N0060001N1+01801+01631999999ADDAA199000091GA1001+999999999GF100991001001999999001001REMSYN060AAXX  02074 65562 3/956 0//// 10180 20163 3//// 4///6 5////;EQDQ01  00002PRCP99
0124655620999992000020209004+06650-004700FM-12+0092DIDK V02099999999992200019N0030001N1+02251+01091999999ADDAY101031AY201031GA1001+999999999GF100991001001999999001001MW1051REMSYN048AAXX  02094 65562 41930 0//// 10225 20109 70500;
0154655620999992000020212004+06650-004700FM-12+0092DIDK V02099999999992200019N0030001N1+03051+00901999999ADDAA199000091AY101061AY201061GA1001+999999999GF100991001001999999001001MW1051REMSYN048AAXX  02124 65562 31930 0//// 10305 20090 70500;EQDQ01  00002PRCP99
0124655620999992000020215004+06650-004700FM-12+0092DIDK V02099999999992200019N0020001N1+03401+00841999999ADDAY101031AY201031GA1001+999999999GF100991001001999999001001MW1051REMSYN048AAXX  02154 65562 41920 0//// 10340 20084 70500;
0189655620999992000020218004+06650-004700FM-12+0092DIDK V02099999999992200019N0020001N1+03181+01081999999ADDAA199000091AY101061AY201061GA1021+090009019GF102991001001999999001021KA1120M+03451MW1051REMSYN070AAXX  02184 65562 31920 2//// 10318 20108 70500 80002 333 10345 82080;EQDQ01  00002PRCP99
0129655620999992000020221004+06650-004700FM-12+0092DIDK V02099999999992200019N0020001N1+02481+01181999999ADDAY101031GA1001+999999999GF100991001001999999001001REMSYN048AAXX  02214 65562 41920 0//// 10248 20118 7500/;EQDQ01+000502PRSWM1
0154655620999992000020300004+06650-004700FM-12+0092DIDK V02099999999992200019N0020001N1+02151+01571999999ADDAA199000091AY101061AY201061GA1001+999999999GF100991001001999999001001MW1051REMSYN048AAXX  03004 65562 31920 0//// 10215 20157 70500;EQDQ01  00002PRCP99
0177655620999992000020306004+06650-004700FM-12+0092DIDK V02099999999992200019N0040001N1+01641+01471999999ADDAA199000091AY101061AY201061GA1001+999999999GF100991001001999999001001KA1999N+01621MW1101REMSYN058AAXX  03064 65562 31940 0//// 10164 20147 71000 333 20162;EQDQ01  00002PRCP99
0096655620999992000020309004+06650-004700FM-12+0092DIDK V02099999999992200019N0060001N1+02261+01301999999ADDGA1001+999999999GF100991001001999999001001REMSYN042AAXX  03094 65562 42956 0//// 10226 20130;
0154655620999992000020312004+06650-004700FM-12+0092DIDK V02099999999992200019N0030001N1+03251+00401999999ADDAA199000091AY101061AY201061GA1001+999999999GF100991001001999999001001MW1051REMSYN048AAXX  03124 65562 31930 0//// 10325 20040 70500;EQDQ01  00002PRCP99
0124655620999992000020315004+06650-004700FM-12+0092DIDK V02099999999992200019N0020001N1+03471+00671999999ADDAY101031AY201031GA1001+999999999GF100991001001999999001001MW1051REMSYN048AAXX  03154 65562 41920 0//// 10347 20067 70500;
0189655620999992000020318004+06650-004700FM-12+0092DIDK V02099999999992200019N0030001N1+03271+00701999999ADDAA199000091AY101061AY201061GA1021+090009019GF102991001001999999001021KA1120M+03551MW1051REMSYN070AAXX  03184 65562 31930 2//// 10327 20070 70500 80002 333 10355 82080;EQDQ01  00002PRCP99
0154655620999992000020400004+06650-004700FM-12+0092DIDK V02099999999992200019N0030001N1+02171+01411999999ADDAA199000091AY101061AY201061GA1001+999999999GF100991001001999999001001MW1051REMSYN048AAXX  04004 65562 31930 0//// 10217 20141 70500;EQDQ01  00002PRCP99
0177655620999992000020406004+06650-004700FM-12+0092DIDK V02099999999992200019N0030001N1+01701+01441999999ADDAA199000091AY101061AY201061GA1001+999999999GF100991001001999999001001KA1999N+01631MW1051REMSYN058AAXX  04064 65562 31930 0//// 10170 20144 70500 333 20163;EQDQ01  00002PRCP99
0169655620999992000020409004+06650-004700FM-12+0092DIDK V02099999999992200019N0020001N1+02201+01611999999ADDAY101031AY201031GA1061+078009019GF199999001001999999001999MW1051REMSYN058AAXX  04094 65562 41920 0//// 10220 20161 70500 333 86076;EQDQ01+000002SCOTCVQ02+000002SCOHCG
0154655620999992000020412004+06650-004700FM-12+0092DIDK V02099999999992200019N0020001N1+03251+00581999999ADDAA199000091AY101061AY201061GA1001+999999999GF100991001001999999001001MW1051REMSYN048AAXX  04124 65562 31920 0//// 10325 20058 70500;EQDQ01  00002PRCP99
0124655620999992000020415004+06650-004700FM-12+0092DIDK V02099999999992200019N0030001N1+03521+00581999999ADDAY101031AY201031GA1001+999999999GF100991001001999999001001MW1051REMSYN048AAXX  04154 65562 41930 0//// 10352 20058 70500;
0177655620999992000020418004+06650-004700FM-12+0092DIDK V02099999999992200019N0030001N1+03281+00901999999ADDAA199000091AY101061AY201061GA1001+999999999GF100991001001999999001001KA1999M+03651MW1051REMSYN058AAXX  04184 65562 31930 0//// 10328 20090 70500 333 10365;EQDQ01  00002PRCP99
0154655620999992000020500004+06650-004700FM-12+0092DIDK V02099999999992200019N0030001N1+02151+01461999999ADDAA199000091AY101061AY201061GA1001+999999999GF100991001001999999001001MW1051REMSYN048AAXX  05004 65562 31930 0//// 10215 20146 70500;EQDQ01  00002PRCP99
0177655620999992000020506004+06650-004700FM-12+0092DIDK V02099999999992200019N0020001N1+01651+01481999999ADDAA199000091AY101061AY201061GA1001+999999999GF100991001001999999001001KA1999N+01601MW1051REMSYN058AAXX  05064 65562 31920 0//// 10165 20148 70500 333 20160;EQDQ01  00002PRCP99
0124655620999992000020509004+06650-004700FM-12+0092DIDK V02099999999992200019N0020001N1+02251+01501999999ADDAY101031AY201031GA1001+999999999GF100991001001999999001001MW1051REMSYN048AAXX  05094 65562 41920 0//// 10225 20150 70500;
0154655620999992000020512004+06650-004700FM-12+0092DIDK V02099999999992200019N0030001N1+03151+01561999999ADDAA199000091AY101061AY201061GA1001+999999999GF100991001001999999001001MW1051REMSYN048AAXX  05124 65562 31930 0//// 10315 20156 70500;EQDQ01  00002PRCP99
0140655620999992000020515004+06650-004700FM-12+0092DIDK V02099999999992200019N0030001N1+03551+01501999999ADDAY101031AY201031GA1001+999999999GF100991001001999999001001MW1051REMSYN064AAXX  05154 65562 41930 0//// 10355 20150 3//// 4//// 70500 333;
0189655620999992000020518004+06650-004700FM-12+0092DIDK V02099999999992200019N0030001N1+03351+01631999999ADDAA199000091AY101061AY201061GA1001+999999999GF100991001001999999001001KA1999M+03651MW1051REMSYN070AAXX  05184 65562 31930 0//// 10335 20163 3//// 4//// 70500 333 10365;EQDQ01  00002PRCP99
0126655620999992000020600004+06650-004700FM-12+0092DIDK V02099999999992200019N0060001N1+02201+01651999999ADDAA199000091GA1001+999999999GF100991001001999999001001REMSYN042AAXX  06004 65562 32956 0//// 10220 20165;EQDQ01  00002PRCP99
0149655620999992000020606004+06650-004700FM-12+0092DIDK V02099999999992200019N0060001N1+01821+01691999999ADDAA199000091GA1001+999999999GF100991001001999999001001KA1999N+01751REMSYN052AAXX  06064 65562 32956 0//// 10182 20169 333 20175;EQDQ01  00002PRCP99
0124655620999992000020609004+06650-004700FM-12+0092DIDK V02099999999992200019N0060001N1+02331+01781999999ADDGA1031+090009019GF103991001001999999001021REMSYN070AAXX  06094 65562 42956 3//// 10233 20178 3//// 4//// 80002 333 83080;
0182655620999992000020612004+06650-004700FM-12+0092DIDK V02099999999992200019N0050001N1+03241+01731999999ADDAA199000091AY111061AY211061GA1021+090009019GF102991001001999999001021MW1051REMSYN076AAXX  06124 65562 31950 2//// 10324 20173 3//// 4//// 70511 80002 333 82080;EQDQ01  00002PRCP99
0124655620999992000020615004+06650-004700FM-12+0092DIDK V02099999999999999999N0050001N1+03461+01291999999ADDAY111031AY211031GF106991001001999999001021MW1051REMSYN064AAXX  06154 65562 41950 6//// 10346 20129 70511 80002 333 8608/;
0189655620999992000020618004+06650-004700FM-12+0092DIDK V02099999999990900019N0050001N1+03341+01161999999ADDAA199000091AY111061AY211061GA1051+090009019GF105991001001999999001021KA1120M+03561MW1051REMSYN070AAXX  06184 65562 31950 5//// 10334 20116 70511 80002 333 10356 85080;EQDQ01  00002PRCP99
0134655620999992000020621004+06650-004700FM-12+0092DIDK V02099999999992200019N0050001N1+02441+01281999999ADDAY111031AY211031GA1001+999999999GF100991001001999999001001MW1051REMSYN058AAXX  06214 65562 41950 0//// 10244 20128 4//// 70511 333;
0170655620999992000020700004+06650-004700FM-12+0092DIDK V02099999999992200019N0050001N1+02141+01491999999ADDAA199000091AY111061AY211061GA1001+999999999GF100991001001999999001001MW1051REMSYN064AAXX  07004 65562 31950 0//// 10214 20149 3//// 4//// 70511 333;EQDQ01  00002PRCP99
0189655620999992000020706004+06650-004700FM-12+0092DIDK V02099999999992200019N0040001N1+01641+01401999999ADDAA199000091AY101061AY201061GA1001+999999999GF100991001001999999001001KA1999N+01561MW1051REMSYN070AAXX  07064 65562 31940 0//// 10164 20140 3//// 4//// 70500 333 20156;EQDQ01  00002PRCP99
0124655620999992000020709004+06650-004700FM-12+0092DIDK V02099999999992200019N0040001N1+02201+01461999999ADDAY101031AY201031GA1001+999999999GF100991001001999999001001MW1051REMSYN048AAXX  07094 65562 41940 0//// 10220 20146 70500;
0158655620999992000020712004+06650-004700FM-12+0092DIDK V02099999999992200019N0050001N1+03281+01231999999ADDAA199000091AY101061AY201061GA1001+999999999GF100991001001999999001001MW1051REMSYN052AAXX  07124 65562 31950 0//// 10328 20123 70500 333;EQDQ01  00002PRCP99
0177655620999992000020718004+06650-004700FM-12+0092DIDK V02099999999992200019N0050001N1+03341+01061999999ADDAA199000091AY101061AY201061GA1001+999999999GF100991001001999999001001KA1999M+03751MW1051REMSYN058AAXX  07184 65562 31950 0//// 10334 20106 70500 333 10375;EQDQ01  00002PRCP99
0124655620999992000020721004+06650-004700FM-12+0092DIDK V02099999999992200019N0040001N1+02521+01401999999ADDAY101031AY201031GA1001+999999999GF100991001001999999001001MW1051REMSYN048AAXX  07214 65562 41940 0//// 10252 20140 70500;
0154655620999992000020800004+06650-004700FM-12+0092DIDK V02099999999992200019N0040001N1+02061+01381999999ADDAA199000091AY101061AY201061GA1001+999999999GF100991001001999999001001MW1051REMSYN048AAXX  08004 65562 31940 0//// 10206 20138 70500;EQDQ01  00002PRCP99
0177655620999992000020806004+06650-004700FM-12+0092DIDK V02099999999992200019N0040001N1+01661+01421999999ADDAA199000091AY101061AY201061GA1001+999999999GF100991001001999999001001KA1999N+01601MW1051REMSYN058AAXX  08064 65562 31940 0//// 10166 20142 70500 333 20160;EQDQ01  00002PRCP99
0124655620999992000020809004+06650-004700FM-12+0092DIDK V02099999999992200019N0030001N1+02171+01471999999ADDAY101031AY201031GA1001+999999999GF100991001001999999001001MW1101REMSYN048AAXX  08094 65562 41930 0//// 10217 20147 71000;
0124655620999992000020815004+06650-004700FM-12+0092DIDK V02099999999992200019N0040001N1+03561+00101999999ADDAY101031AY201031GA1001+999999999GF100991001001999999001001MW1051REMSYN048AAXX  08154 65562 41940 0//// 10356 20010 70500;
0177655620999992000020818004+06650-004700FM-12+0092DIDK V02099999999992200019N0040001N1+03261+00531999999ADDAA199000091AY101061AY201061GA1001+999999999GF100991001001999999001001KA1999M+03661MW1051REMSYN058AAXX  08184 65562 31940 0//// 10326 20053 70500 333 10366;EQDQ01  00002PRCP99
0146655620999992000020900004+06650-004700FM-12+0092DIDK V02099999999992200019N0040001N1+02001+01401999999ADDAA199000091AY101061GA1001+999999999GF100991001001999999001001MW1051REMSYN048AAXX  09004 65562 31940 0//// 10200 20140 7050/;EQDQ01  00002PRCP99
0177655620999992000020906004+06650-004700FM-12+0092DIDK V02099999999992200019N0040001N1+01551+01461999999ADDAA199000091AY151061AY201061GA1001+999999999GF100991001001999999001001KA1999N+01501MW1051REMSYN058AAXX  09064 65562 31940 0//// 10155 20146 70550 333 20150;EQDQ01  00002PRCP99
0124655620999992000020909004+06650-004700FM-12+0092DIDK V02099999999992200019N0040001N1+99999+99999999999ADDAY101031AY201031GA1001+999999999GF100991001001999999001001MW1051REMSYN048AAXX  09094 65562 41940 0//// 102/2 20125 70500;
0182655620999992000020912004+06650-004700FM-12+0092DIDK V02099999999990900019N0040001N1+03161+00301999999ADDAA199000091AY111061AY211061GA1051+090009019GF105991001001999999001021MW1051REMSYN076AAXX  09124 65562 31940 5//// 10316 20030 3//// 4//// 70511 80002 333 85080;EQDQ01  00002PRCP99
0124655620999992000020915004+06650-004700FM-12+0092DIDK V02099999999992200019N0040001N1+03531+00761999999ADDAY111031AY211031GA1001+999999999GF100991001001999999001001MW1051REMSYN048AAXX  09154 65562 41940 0//// 10353 20076 70511;
0158655620999992000020918004+06650-004700FM-12+0092DIDK V02099999999992200019N0040001N1+03161+00841999999ADDAA199000091AY111061AY211061GA1001+999999999GF100991001001999999001001MW1051REMSYN052AAXX  09184 65562 31940 0//// 10316 20084 70511 333;EQDQ01  00002PRCP99
0158655620999992000021006004+06650-004700FM-12+0092DIDK V02099999999992200019N0040001N1+01521+01311999999ADDAA199000091AY101061AY281061GA1001+999999999GF100991001001999999001001MW1051REMSYN052AAXX  10064 65562 31940 0//// 10152 20131 70508 333;EQDQ01  00002PRCP99
0124655620999992000021009004+06650-004700FM-12+0092DIDK V02099999999992200019N0030001N1+01941+01391999999ADDAY101031AY201031GA1001+999999999GF100991001001999999001001MW1101REMSYN048AAXX  10094 65562 41930 0//// 10194 20139 71000;
0154655620999992000021012004+06650-004700FM-12+0092DIDK V02099999999992200019N0030001N1+03161+00401999999ADDAA199000091AY101061AY201061GA1001+999999999GF100991001001999999001001MW1051REMSYN048AAXX  10124 65562 31930 0//// 10316 20040 70500;EQDQ01  00002PRCP99
0124655620999992000021015004+06650-004700FM-12+0092DIDK V02099999999992200019N0050001N1+03451+00681999999ADDAY101031AY201031GA1001+999999999GF100991001001999999001001MW1051REMSYN048AAXX  10154 65562 41450 0//// 10345 20068 70500;
0177655620999992000021018004+06650-004700FM-12+0092DIDK V02099999999992200019N0030001N1+03101+01031999999ADDAA199000091AY101061AY201061GA1001+999999999GF100991001001999999001001KA1999M+03551MW1051REMSYN058AAXX  10184 65562 31930 0//// 10310 20103 70500 333 10355;EQDQ01  00002PRCP99
0177655620999992000021106004+06650-004700FM-12+0092DIDK V02099999999992200019N0030001N1+01551+01321999999ADDAA199000091AY101061AY201061GA1001+999999999GF100991001001999999001001KA1999N+01501MW1051REMSYN058AAXX  11064 65562 31930 0//// 10155 20132 70500 333 20150;EQDQ01  00002PRCP99
0124655620999992000021109004+06650-004700FM-12+0092DIDK V02099999999992200019N0030001N1+02001+01341999999ADDAY101031AY201031GA1001+999999999GF100991001001999999001001MW1051REMSYN048AAXX  11094 65562 41930 0//// 10200 20134 70500;
0154655620999992000021112004+06650-004700FM-12+0092DIDK V02099999999992200019N0030001N1+03111+01141999999ADDAA199000091AY101061AY201061GA1001+999999999GF100991001001999999001001MW1051REMSYN048AAXX  11124 65562 31930 0//// 10311 20114 70500;EQDQ01  00002PRCP99
0124655620999992000021115004+06650-004700FM-12+0092DIDK V02099999999992200019N0030001N1+03451+00821999999ADDAY101031AY201031GA1001+999999999GF100991001001999999001001MW1051REMSYN048AAXX  11154 65562 41930 0//// 10345 20082 70500;
0177655620999992000021118004+06650-004700FM-12+0092DIDK V02099999999992200019N0030001N1+03271+01141999999ADDAA199000091AY101061AY201061GA1001+999999999GF100991001001999999001001KA1999M+03551MW1051REMSYN058AAXX  11184 65562 31930 0//// 10327 20114 70500 333 10355;EQDQ01  00002PRCP99
0108655620999992000021121004+06650-004700FM-12+0092DIDK V02099999999992200019N0030001N1+02501+01431999999ADDGA1001+999999999GF100991001001999999001001MW1051REMSYN048AAXX  11214 65562 41930 0//// 10250 20143 705//;
0154655620999992000021200004+06650-004700FM-12+0092DIDK V02099999999992200019N0040001N1+02101+01241999999ADDAA199000091AY101061AY201061GA1001+999999999GF100991001001999999001001MW1051REMSYN048AAXX  12004 65562 31940 0//// 10210 20124 70500;EQDQ01  00002PRCP99
0177655620999992000021206004+06650-004700FM-12+0092DIDK V02099999999992200019N0040001N1+01571+01301999999ADDAA199000091AY101061AY201061GA1001+999999999GF100991001001999999001001KA1999N+01521MW1051REMSYN058AAXX  12064 65562 31940 0//// 10157 20130 70500 333 20152;EQDQ01  00002PRCP99
0154655620999992000021212004+06650-004700FM-12+0092DIDK V02099999999992200019N0040001N1+03251+00741999999ADDAA199000091AY101061AY201061GA1001+999999999GF100991001001999999001001MW1051REMSYN048AAXX  12124 65562 31940 0//// 10325 20074 70500;EQDQ01  00002PRCP99
0177655620999992000021218004+06650-004700FM-12+0092DIDK V02099999999992200019N0040001N1+03271+01181999999ADDAA199000091AY101061AY201061GA1001+999999999GF100991001001999999001001KA1999M+03601MW1051REMSYN058AAXX  12184 65562 31940 0//// 10327 20118 70500 333 10360;EQDQ01  00002PRCP99
0124655620999992000021221004+06650-004700FM-12+0092DIDK V02099999999992200019N0040001N1+02501+01321999999ADDAY101031AY201031GA1001+999999999GF100991001001999999001001MW1051REMSYN048AAXX  12214 65562 41940 0//// 10250 20132 70500;
0170655620999992000021300004+06650-004700FM-12+0092DIDK V02099999999992200019N0040001N1+02251+01501999999ADDAA199000091AY101061AY201061GA1011+003909059GF101991011051004501001001MW1051REMSYN064AAXX  13004 65562 31440 1//// 10225 20150 70500 81500 333 81613;EQDQ01  00002PRCP99
0177655620999992000021306004+06650-004700FM-12+0092DIDK V02099999999992200019N0030001N1+01801+01271999999ADDAA199000091AY101061AY201061GA1001+999999999GF100991001001999999001001KA1999N+01701MW1101REMSYN058AAXX  13064 65562 31930 0//// 10180 20127 71000 333 20170;EQDQ01  00002PRCP99
0154655620999992000021312004+06650-004700FM-12+0092DIDK V02099999999992200019N0040001N1+03221+01321999999ADDAA199000091AY101061AY201061GA1001+999999999GF100991001001999999001001MW1051REMSYN048AAXX  13124 65562 31940 0//// 10322 20132 70500;EQDQ01  00002PRCP99
0124655620999992000021315004+06650-004700FM-12+0092DIDK V02099999999992200019N0040001N1+03541+00921999999ADDAY101031AY201031GA1001+999999999GF100991001001999999001001MW1051REMSYN048AAXX  13154 65562 41940 0//// 10354 20092 70500;
0189655620999992000021318004+06650-004700FM-12+0092DIDK V02099999999992200019N0040001N1+03281+01261999999ADDAA199000091AY101061AY201061GA1041+090009019GF104991001001999999001021KA1120M+03641MW1051REMSYN070AAXX  13184 65562 31940 4//// 10328 20126 70500 80002 333 10364 84080;EQDQ01  00002PRCP99
0154655620999992000021400004+06650-004700FM-12+0092DIDK V02099999999992200019N0040001N1+02121+01521999999ADDAA199000091AY101061AY201061GA1001+999999999GF100991001001999999001001MW1051REMSYN048AAXX  14004 65562 31940 0//// 10212 20152 70500;EQDQ01  00002PRCP99
0177655620999992000021406004+06650-004700FM-12+0092DIDK V02099999999992200019N0040001N1+01721+01441999999ADDAA199000091AY101061AY201061GA1001+999999999GF100991001001999999001001KA1999N+01651MW1051REMSYN058AAXX  14064 65562 31940 0//// 10172 20144 70500 333 20165;EQDQ01  00002PRCP99
0102655620999992000021409004+06650-004700FM-12+0092DIDK V02099999999992200019N0040001N1+02311+01611999999ADDGA1001+999999999GF100991001001999999001001REMSYN048AAXX  14094 65562 4/940 0//// 10231 20161 70500;
0138655620999992000021412004+06650-004700FM-12+0092DIDK V02099999999999999999N0040001N1+03301+01631999999ADDAA199000091AY171061AY211061GF108991999999999999999999MW1051REMSYN048AAXX  14124 65562 31940 8//// 10330 20163 70571;EQDQ01  00002PRCP99
0124655620999992000021415004+06650-004700FM-12+0092DIDK V02099999999992200019N0040001N1+03551+00801999999ADDAY101031AY201031GA1001+999999999GF100991001001999999001001MW1051REMSYN048AAXX  14154 65562 41940 0//// 10355 20080 70500;
0189655620999992000021418004+06650-004700FM-12+0092DIDK V02099999999992200019N0040001N1+03351+01611999999ADDAA199000091AY111061AY211061GA1041+090009019GF104991001001999999001021KA1120M+03651MW1051REMSYN070AAXX  14184 65562 31940 4//// 10335 20161 70511 80002 333 10365 84080;EQDQ01  00002PRCP99
0124655620999992000021421004+06650-004700FM-12+0092DIDK V02099999999992200019N0040001N1+02631+01461999999ADDAY101031AY201031GA1001+999999999GF100991001001999999001001MW1051REMSYN048AAXX  14214 65562 41940 0//// 10263 20146 70500;
0154655620999992000021500004+06650-004700FM-12+0092DIDK V02099999999992200019N0040001N1+02281+01431999999ADDAA199000091AY101061AY201061GA1001+999999999GF100991001001999999001001MW1051REMSYN048AAXX  15004 65562 31940 0//// 10228 20143 70500;EQDQ01  00002PRCP99
0177655620999992000021506004+06650-004700FM-12+0092DIDK V02099999999992200019N0040001N1+01841+01501999999ADDAA199000091AY101061AY201061GA1001+999999999GF100991001001999999001001KA1999N+01771MW1051REMSYN058AAXX  15064 65562 31940 0//// 10184 20150 70500 333 20177;EQDQ01  00002PRCP99
0124655620999992000021509004+06650-004700FM-12+0092DIDK V02099999999992200019N0030001N1+02281+01821999999ADDAY101031AY201031GA1001+999999999GF100991001001999999001001MW1051REMSYN048AAXX  15094 65562 41930 0//// 10228 20182 70500;
0142655620999992000021512004+06650-004700FM-12+0092DIDK V02099999999992200019N0080001N1+03251+01901999999ADDAA199000091GA1021+003909059GF102991021051004501001001REMSYN058AAXX  15124 65562 32458 2//// 10325 20190 82500 333 82613;EQDQ01  00002PRCP99
0124655620999992000021515004+06650-004700FM-12+0092DIDK V02099999999992200019N0050001N1+03641+01691999999ADDAY101031AY201031GA1001+999999999GF100991001001999999001001MW1051REMSYN048AAXX  15154 65562 41950 0//// 10364 20169 70500;
0177655620999992000021518004+06650-004700FM-12+0092DIDK V02099999999992200019N0050001N1+03441+01531999999ADDAA199000091AY101061AY201061GA1001+999999999GF100991001001999999001001KA1999M+03751MW1051REMSYN058AAXX  15184 65562 31950 0//// 10344 20153 70500 333 10375;EQDQ01  00002PRCP99
0124655620999992000021521004+06650-004700FM-12+0092DIDK V02099999999992200019N0050001N1+02851+01661999999ADDAY101031AY201031GA1001+999999999GF100991001001999999001001MW1051REMSYN048AAXX  15214 65562 41950 0//// 10285 20166 70500;
0170655620999992000021600004+06650-004700FM-12+0092DIDK V02099999999992200019N0050001N1+02501+01971999999ADDAA199000091AY101061AY201061GA1021+090009019GF102991001001999999001021MW1051REMSYN064AAXX  16004 65562 31950 2//// 10250 20197 70500 80002 333 82080;EQDQ01  00002PRCP99
0177655620999992000021606004+06650-004700FM-12+0092DIDK V02099999999992200019N0050001N1+02161+01971999999ADDAA199000091AY101061AY201061GA1001+999999999GF100991001001999999001001KA1999N+02021MW1051REMSYN058AAXX  16064 65562 31950 0//// 10216 20197 70500 333 20202;EQDQ01  00002PRCP99
0118655620999992000021609004+06650-004700FM-12+0092DIDK V02099999999992200019N0050001N1+99999+99999999999ADDAY101031AY201031GA1001+999999999GF100991001001999999001001MW1051REMSYN042AAXX  16094 65562 41950 0//// 20218 70500;
0142655620999992000021612004+06650-004700FM-12+0092DIDK V02099999999990045019N0060001N1+03251+02161999999ADDAA199000091GA1051+004509029GF105991051021999999001001REMSYN058AAXX  16124 65562 32956 5//// 10325 20216 85200 333 85815;EQDQ01  00002PRCP99
0124655620999992000021615004+06650-004700FM-12+0092DIDK V02099999999992200019N0080001N1+03601+01781999999ADDGA1021+004509029GF102991021021004501001001REMSYN070AAXX  16154 65562 42458 2//// 1036/ 20178 3//// 4//// 82200 333 82815;
0173655620999992000021618004+06650-004700FM-12+0092DIDK V02099999999992200019N0080001N1+03471+01821999999ADDAA199000091GA1011+004509029GF101991011021004501001001KA1120M+03751REMSYN076AAXX  16184 65562 32458 1//// 10347 20182 3//// 4//// 81200 333 10375 81815;EQDQ01  00002PRCP99
0126655620999992000021700004+06650-004700FM-12+0092DIDK V02099999999992200019N0080001N1+02621+02301999999ADDAA199000091GA1001+999999999GF100991001001999999001001REMSYN042AAXX  17004 65562 32958 0//// 10262 20230;EQDQ01  00002PRCP99
0124655620999992000021705004+06650-004700FM-12+0092DIDK V02099999999990039019N0080001N1+02661+02431999999ADDGA1071+003909029GF107991071021004501001001REMSYN070AAXX  17054 65562 42458 7//// 10266 20243 3//// 4//// 87200 333 87813;
0161655620999992000021706004+06650-004700FM-12+0092DIDK V02099999999990039019N0080001N1+02401+02391999999ADDAA199000091GA1071+003909059GF107991071051004501001001KA1120N+02351REMSYN064AAXX  17064 65562 32458 7//// 10240 20239 87500 333 20235 87613;EQDQ01  00002PRCP99
0124655620999992000021709004+06650-004700FM-12+0092DIDK V02099999999990039019N0080001N1+02661+02431999999ADDGA1071+003909029GF107991071021004501001001REMSYN070AAXX  17094 65562 42458 7//// 10266 20243 3//// 4//// 87200 333 87813;
0124655620999992000021721004+06650-004700FM-12+0092DIDK V02099999999992200019N0060001N1+02921+01851999999ADDGA1041+030009079GF104991041001999999031001REMSYN070AAXX  17214 65562 42956 4//// 10292 20185 3//// 4//// 84030 333 84360;
0142655620999992000021800004+06650-004700FM-12+0092DIDK V02099999999992200019N0080001N1+02621+02301999999ADDAA199000091GA1001+999999999GF100991001001999999001001REMSYN058AAXX  18004 65562 32958 0//// 10262 20230 3//// 4//// 333;EQDQ01  00002PRCP99
0173655620999992000021806004+06650-004700FM-12+0092DIDK V02099999999990039019N0060001N1+02361+02331999999ADDAA199000091GA1071+003909059GF107991071051004501001001KA1120N+02251REMSYN076AAXX  18064 65562 32456 7//// 10236 20233 3//// 4//// 87500 333 20225 87613;EQDQ01  00002PRCP99
0112655620999992000021809004+06650-004700FM-12+0092DIDK V02099999999990039019N0060001N1+02701+02441999999ADDGA1061+003909029GF106991061021004501001001REMSYN058AAXX  18094 65562 42456 6//// 10270 20244 86200 333 86813;
0142655620999992000021812004+06650-004700FM-12+0092DIDK V02099999999990048019N0080001N1+03341+02111999999ADDAA199000091GA1051+004809029GF105991051021004501001001REMSYN058AAXX  18124 65562 32458 5//// 10334 20211 85200 333 85816;EQDQ01  00002PRCP99
0112655620999992000021815004+06650-004700FM-12+0092DIDK V02099999999992200019N0080001N1+99999+99999999999ADDGA1041+004809029GF104991041021004501001001REMSYN058AAXX  18154 65562 42458 4//// 10/73 20166 84200 333 84816;
0161655620999992000021818004+06650-004700FM-12+0092DIDK V02099999999992200019N0080001N1+03471+01761999999ADDAA199000091GA1021+004809029GF102991021021004501001001KA1120M+03811REMSYN064AAXX  18184 65562 32458 2//// 10347 20176 82200 333 10381 82816;EQDQ01  00002PRCP99
0126655620999992000021900004+06650-004700FM-12+0092DIDK V02099999999992200019N0080001N1+02701+02321999999ADDAA199000091GA1001+999999999GF100991001001999999001001REMSYN042AAXX  19004 65562 32958 0//// 10270 20232;EQDQ01  00002PRCP99
0149655620999992000021906004+06650-004700FM-12+0092DIDK V02099999999992200019N0080001N1+02221+02151999999ADDAA199000091GA1001+999999999GF100991001001999999001001KA1999N+02201REMSYN052AAXX  19064 65562 32958 0//// 10222 20215 333 20220;EQDQ01  00002PRCP99
0096655620999992000021909004+06650-004700FM-12+0092DIDK V02099999999992200019N0060001N1+02721+02331999999ADDGA1001+999999999GF100991001001999999001001REMSYN042AAXX  19094 65562 42956 0//// 10272 20233;
0142655620999992000021912004+06650-004700FM-12+0092DIDK V02099999999992200019N0080001N1+03401+02081999999ADDAA199000091GA1031+004509029GF103991031021004501001001REMSYN058AAXX  19124 65562 32458 3//// 10340 20208 83200 333 83815;EQDQ01  00002PRCP99
0149655620999992000021918004+06650-004700FM-12+0092DIDK V02099999999992200019N0080001N1+03601+01781999999ADDAA199000091GA1001+999999999GF100991001001999999001001KA1999M+03851REMSYN052AAXX  19184 65562 32958 0//// 10360 20178 333 10385;EQDQ01  00002PRCP99
0126655620999992000022000004+06650-004700FM-12+0092DIDK V02099999999992200019N0080001N1+02751+02321999999ADDAA199000091GA1001+999999999GF100991001001999999001001REMSYN042AAXX  20004 65562 32958 0//// 10275 20232;EQDQ01  00002PRCP99
0149655620999992000022006004+06650-004700FM-12+0092DIDK V02099999999992200019N0080001N1+02261+02171999999ADDAA199000091GA1001+999999999GF100991001001999999001001KA1999N+02181REMSYN052AAXX  20064 65562 32958 0//// 10226 20217 333 20218;EQDQ01  00002PRCP99
0096655620999992000022009004+06650-004700FM-12+0092DIDK V02099999999992200019N0060001N1+02551+02411999999ADDGA1001+999999999GF100991001001999999001001REMSYN042AAXX  20094 65562 42956 0//// 10255 20241;
0142655620999992000022012004+06650-004700FM-12+0092DIDK V02099999999992200019N0080001N1+03361+02251999999ADDAA199000091GA1031+003909029GF103991031021004501001001REMSYN058AAXX  20124 65562 32458 3//// 10336 20225 83200 333 83813;EQDQ01  00002PRCP99
0112655620999992000022015004+06650-004700FM-12+0092DIDK V02099999999990045019N0080001N1+03561+01921999999ADDGA1051+004509029GF105991051021004501001001REMSYN058AAXX  20154 65562 42458 5//// 10356 20192 85200 333 85815;
0161655620999992000022018004+06650-004700FM-12+0092DIDK V02099999999992200019N0080001N1+03501+01901999999ADDAA199000091GA1031+004509029GF103991031021004501001001KA1120M+03761REMSYN064AAXX  20184 65562 32458 3//// 10350 20190 83200 333 10376 83815;EQDQ01  00002PRCP99
0142655620999992000022100004+06650-004700FM-12+0092DIDK V02099999999992200019N0080001N1+02751+02391999999ADDAA199000091GA1021+030009079GF102991021001999999031001REMSYN058AAXX  21004 65562 32958 2//// 10275 20239 82030 333 82360;EQDQ01  00002PRCP99
0112655620999992000022109004+06650-004700FM-12+0092DIDK V02099999999990039019N0080001N1+02701+02441999999ADDGA1071+003909029GF107991071021004501001001REMSYN058AAXX  21094 65562 42458 7//// 10270 20244 87200 333 87813;
0142655620999992000022112004+06650-004700FM-12+0092DIDK V02099999999992200019N0100001N1+03261+02321999999ADDAA199000091GA1041+004509029GF104991041021004501001001REMSYN058AAXX  21124 65562 32460 4//// 10326 20232 84200 333 84815;EQDQ01  00002PRCP99
0112655620999992000022115004+06650-004700FM-12+0092DIDK V02099999999990045019N0100001N1+03551+02091999999ADDGA1051+004509029GF105991051021004501001001REMSYN058AAXX  21154 65562 42460 5//// 10355 20209 85200 333 85815;
0226655620999992000022118004+06650-004700FM-12+0092DIDK V02099999999990900019N0080001N1+03051+02091999999ADDAA112000591AY191061AY261061GA1041+004509089GA2021+006009099GA3071+090009009GF107991041091004501001021KA1120M+03701MW1171REMSYN094AAXX  21184 65562 11458 7//// 10305 20209 69962 71796 84902 333 10370 84815 87080 82920 95339;
0154655620999992000022200004+06650-004700FM-12+0092DIDK V02099999999992200019N0080001N1+02561+02101999999ADDAA199000091AY191061AY211061GA1001+999999999GF100991001001999999001001MW1021REMSYN048AAXX  22004 65562 31958 0//// 10256 20210 70291;EQDQ01  00002PRCP99
0096655620999992000022209004+06650-004700FM-12+0092DIDK V02099999999992200019N0080001N1+02701+02261999999ADDGA1001+999999999GF100991001001999999001001REMSYN042AAXX  22094 65562 42958 0//// 10270 20226;
0142655620999992000022212004+06650-004700FM-12+0092DIDK V02099999999990045019N0100001N1+03301+02371999999ADDAA199000091GA1061+004509029GF106991061021004501001001REMSYN058AAXX  22124 65562 32460 6//// 10330 20237 86200 333 86815;EQDQ01  00002PRCP99
0245655620999992000022218004+06650-004700FM-12+0092DIDK V02099999999990078019N0100001N1+03001+01941999999ADDAA199000091AY191061AY291061GA1041+004509089GA2031+007809099GA3081+030009039GF108991051091004501071999KA1120M+03801MW1171REMSYN094AAXX  22184 65562 31460 8//// 10300 20194 71799 8597/ 333 10380 84815 83926 88360 95374 95372;EQDQ01  00002PRCP99
0245655620999992000022221004+06650-004700FM-12+0092DIDK V02099999999990078019N0100001N1+03001+01941999999ADDAA199000091AY191031AY291031GA1041+004509089GA2031+007809099GA3081+030009039GF108991051091004501071999KA1120M+03801MW1171REMSYN094AAXX  22214 65562 31460 8//// 10300 20194 71799 8597/ 333 10380 84815 83926 88360 95374 95372;EQDQ01  00002PRCP99
0176655620999992000022300004+06650-004700FM-12+0092DIDK V0209999999999045001CN0100001N1+02601+02311999999ADDAA199000091AY191061AY221061GA1041+003909069GF107991041051004501071001MW1021REMSYN070AAXX  23004 65562 31460 7//// 10260 20231 70292 84570 333 84613 83360;EQDQ01  00002PRCP99
0142655620999992000022312004+06650-004700FM-12+0092DIDK V02099999999992200019N0100001N1+03401+02321999999ADDAA199000091GA1041+004509029GF104991041021004501001001REMSYN058AAXX  23124 65562 32460 4//// 10340 20232 84200 333 84815;EQDQ01  00002PRCP99
0112655620999992000022315004+06650-004700FM-12+0092DIDK V02099999999992200019N0100001N1+03631+02261999999ADDGA1041+004809029GF104991041021004501001001REMSYN058AAXX  23154 65562 42460 4//// 10363 20226 84200 333 84816;
0161655620999992000022318004+06650-004700FM-12+0092DIDK V02099999999990048019N0100001N1+03501+02201999999ADDAA199000091GA1051+004809029GF105991051021004501001001KA1120M+03781REMSYN064AAXX  23184 65562 32460 5//// 10350 20220 85200 333 10378 85816;EQDQ01  00002PRCP99
0112655620999992000022321004+06650-004700FM-12+0092DIDK V02099999999992200019N0100001N1+02971+02371999999ADDGA1021+003909059GF102991021051004501001001REMSYN058AAXX  23214 65562 42460 2//// 10297 20237 82500 333 82613;
0142655620999992000022400004+06650-004700FM-12+0092DIDK V02099999999992200019N0100001N1+02761+02391999999ADDAA199000091GA1031+003909059GF103991031051004501001001REMSYN058AAXX  24004 65562 32460 3//// 10276 20239 83500 333 83613;EQDQ01  00002PRCP99
0149655620999992000022406004+06650-004700FM-12+0092DIDK V02099999999992200019N0100001N1+02471+02401999999ADDAA199000091GA1001+999999999GF100991001001999999001001KA1999N+02401REMSYN052AAXX  24064 65562 32960 0//// 10247 20240 333 20240;EQDQ01  00002PRCP99
0112655620999992000022409004+06650-004700FM-12+0092DIDK V02099999999990039019N0100001N1+02741+02401999999ADDGA1071+003909029GF107991071021004501001001REMSYN058AAXX  24094 65562 42460 7//// 10274 20240 87200 333 87813;
0112655620999992000022415004+06650-004700FM-12+0092DIDK V02099999999992200019N0100001N1+03621+02221999999ADDGA1041+004809029GF104991041021004501001001REMSYN058AAXX  24154 65562 42460 4//// 10362 20222 84200 333 84816;
0161655620999992000022418004+06650-004700FM-12+0092DIDK V02099999999992200019N0100001N1+03501+02171999999ADDAA199000091GA1021+004809029GF102991021021004501001001KA1120M+03741REMSYN064AAXX  24184 65562 32460 2//// 10350 20217 82200 333 10374 82816;EQDQ01  00002PRCP99
0096655620999992000022421004+06650-004700FM-12+0092DIDK V02099999999992200019N0100001N1+02751+02241999999ADDGA1001+999999999GF100991001001999999001001REMSYN042AAXX  24214 65562 42960 0//// 10275 20224;
0142655620999992000022500004+06650-004700FM-12+0092DIDK V02099999999990039019N0100001N1+02651+02371999999ADDAA199000091GA1071+003909059GF107991071051004501001001REMSYN058AAXX  25004 65562 32460 7//// 10265 20237 87500 333 87613;EQDQ01  00002PRCP99
0112655620999992000022509004+06650-004700FM-12+0092DIDK V02099999999990039019N0080001N1+02801+02521999999ADDGA1051+003909029GF105991051021004501001001REMSYN058AAXX  25094 65562 42458 5//// 10280 20252 85200 333 85813;
0170655620999992000022512004+06650-004700FM-12+0092DIDK V02099999999990045019N0100001N1+03261+02471999999ADDAA199000091GA1061+004509029GF106991999021004501001001REMSYN070AAXX  25124 65562 32460 6//// 10326 20247 3//// 4//// 85200 333 86815;EQDQ01+000052SCOTLCQ02  00002PRCP99
0112655620999992000022515004+06650-004700FM-12+0092DIDK V02099999999990045019N0100001N1+03721+02201999999ADDGA1051+004509029GF105991051021004501001001REMSYN058AAXX  25154 65562 42460 5//// 10372 2022/ 85200 333 85815;
0176655620999992000022518004+06650-004700FM-12+0092DIDK V02099999999990045019N0080001N1+02981+02341999999ADDAA112006191AY161061AY221061GA1071+004509029GF107991071021004501001001KA1120M+03801MW1031REMSYN076AAXX  25184 65562 11458 7//// 10298 20234 60062 70362 87200 333 10380 87815;
0051655620999992000022521004+06650-004700FM-12+0092DIDK V02099999999999999999N0100001N1+02661+02401999999REMSYN042AAXX  25214 65562 42960 ///// 10266 20240;
0126655620999992000022600004+06650-004700FM-12+0092DIDK V02099999999992200019N0100001N1+02521+02381999999ADDAA199000091GA1001+999999999GF100991001001999999001001REMSYN042AAXX  26004 65562 32960 0//// 10252 20238;EQDQ01  00002PRCP99
0118655620999992000022609004+06650-004700FM-12+0092DIDK V0209999999999105001CN0080001N1+02661+02371999999ADDGA1021+003909089GF106991021021004501001021REMSYN064AAXX  26094 65562 42458 6//// 10266 20237 82202 333 82813 85080;
0142655620999992000022612004+06650-004700FM-12+0092DIDK V02099999999990039019N0100001N1+03241+02481999999ADDAA199000091GA1071+003909029GF107991071021004501001001REMSYN058AAXX  26124 65562 32460 7//// 10324 20248 87200 333 87813;EQDQ01  00002PRCP99
0112655620999992000022615004+06650-004700FM-12+0092DIDK V02099999999990048019N0100001N1+03601+02271999999ADDGA1051+004809029GF105991051021004501001001REMSYN058AAXX  26154 65562 42460 5//// 10360 20227 85200 333 85816;
0189655620999992000022618004+06650-004700FM-12+0092DIDK V02099999999990045019N0100001N1+02781+02151999999ADDAA199000091GA1061+004509089GA2021+006909099GF106991061091004501001001KA1120M+03711REMSYN076AAXX  26184 65562 32460 6//// 10278 20215 86900 333 10371 86815 82923 95338;EQDQ01  00002PRCP99
0141655620999992000022700004+06650-004700FM-12+0092DIDK V02099999999992200019N0080001N1+02441+02231999999ADDAA106007191AY191061AY261061GA1001+999999999GF100991001001999999001001MW1021REMSYN054AAXX  27004 65562 11958 0//// 10244 20223 60071 70296;
0148655620999992000022706004+06650-004700FM-12+0092DIDK V02099999999992200019N0080001N1+02261+02191999999ADDAA124007191GA1031+030009079GF103991031001999999031001KA1120N+02221REMSYN070AAXX  27064 65562 12958 3//// 10226 20219 60074 83030 333 20222 83360;
0112655620999992000022709004+06650-004700FM-12+0092DIDK V02099999999992200019N0100001N1+02501+02281999999ADDGA1041+030009079GF104991041001999999031001REMSYN058AAXX  27094 65562 42960 4//// 10250 20228 84030 333 84360;
0158655620999992000022712004+06650-004700FM-12+0092DIDK V02099999999990039019N0100001N1+03221+02421999999ADDAA199000091GA1051+003909029GF107991999021004501001001REMSYN058AAXX  27124 65562 32460 7//// 10322 20242 85200 333 85813;EQDQ01+000052SCOTLCQ02  00002PRCP99
0118655620999992000022715004+06650-004700FM-12+0092DIDK V0209999999999045001CN0100001N1+03641+02131999999ADDGA1031+004509089GF105991031021004501031001REMSYN064AAXX  27154 65562 42460 5//// 10364 20213 83230 333 83815 85360;
0167655620999992000022718004+06650-004700FM-12+0092DIDK V0209999999999105001CN0100001N1+03401+02081999999ADDAA199000091GA1031+004509089GF107991031021004501001021KA1120M+03701REMSYN070AAXX  27184 65562 32460 7//// 10340 20208 83202 333 10370 83815 87080;EQDQ01  00002PRCP99
0126655620999992000022800004+06650-004700FM-12+0092DIDK V02099999999992200019N0100001N1+02651+02431999999ADDAA199000091GA1001+999999999GF100991001001999999001001REMSYN042AAXX  28004 65562 32960 0//// 10265 20243;EQDQ01  00002PRCP99
0140655620999992000022809004+06650-004700FM-12+0092DIDK V02099999999990039019N0060001N1+02501+02361999999ADDAY141031AY211031GA1081+003909059GF108991081051004501999999MW1031REMSYN064AAXX  28094 65562 41456 8//// 10250 20236 70341 885// 333 88613;
0170655620999992000022812004+06650-004700FM-12+0092DIDK V02099999999990039019N0100001N1+03151+02291999999ADDAA199000091AY141061AY211061GA1061+003909029GF106991061021004501001001MW1011REMSYN064AAXX  28124 65562 31460 6//// 10315 20229 70141 86200 333 86813;EQDQ01  00002PRCP99
0112655620999992000022815004+06650-004700FM-12+0092DIDK V02099999999992200019N0100001N1+03601+01971999999ADDGA1031+004809029GF103991031021004501001001REMSYN058AAXX  28154 65562 42460 3//// 10360 20197 83200 333 83816;
0167655620999992000022818004+06650-004700FM-12+0092DIDK V02099999999992200019N0100001N1+03481+01851999999ADDAA199000091GA1011+004809089GF104991011021004501001021KA1120M+03691REMSYN070AAXX  28184 65562 32460 4//// 10348 20185 81202 333 10369 81816 84080;EQDQ01  00002PRCP99
0090655620999992000022821004+06650-004700FM-12+0092DIDK V02099999999992200019N0100001N1+02861+99999999999ADDGA1001+999999999GF100991001001999999001001REMSYN036AAXX  28214 65562 42960 0//// 10286;
0126655620999992000022900004+06650-004700FM-12+0092DIDK V02099999999992200019N0100001N1+02601+02311999999ADDAA199000091GA1001+999999999GF100991001001999999001001REMSYN042AAXX  29004 65562 32960 0//// 10260 20231;EQDQ01  00002PRCP99
0161655620999992000022906004+06650-004700FM-12+0092DIDK V02099999999990039019N0100001N1+02411+02321999999ADDAA199000091GA1081+003909059GF108991081051004501999999KA1120N+02331REMSYN064AAXX  29064 65562 32460 8//// 10241 20232 885// 333 20233 88613;EQDQ01  00002PRCP99
0112655620999992000022909004+06650-004700FM-12+0092DIDK V02099999999990039019N0100001N1+02641+02441999999ADDGA1071+003909059GF107991071051004501001001REMSYN058AAXX  29094 65562 42460 7//// 10264 20244 87500 333 87613;
0142655620999992000022912004+06650-004700FM-12+0092DIDK V02099999999990045019N0100001N1+03331+02251999999ADDAA199000091GA1051+004509029GF105991051021004501001001REMSYN058AAXX  29124 65562 32460 5//// 10333 20225 85200 333 85815;EQDQ01  00002PRCP99
0126655620999992000030100004+06650-004700FM-12+0092DIDK V02099999999992200019N0100001N1+02751+02391999999ADDAA199000091GA1001+999999999GF100991001001999999001001REMSYN042AAXX  01004 65562 32960 0//// 10275 20239;EQDQ01  00002PRCP99
0161655620999992000030106004+06650-004700FM-12+0092DIDK V02099999999990039019N0100001N1+02561+02241999999ADDAA199000091GA1071+003909029GF107991071051004501001001KA1120N+02541REMSYN064AAXX  01064 65562 32460 7//// 10256 20224 87500 333 20254 87813;EQDQ01  00002PRCP99
0124655620999992000030109004+06650-004700FM-12+0092DIDK V02099999999990039019N0100001N1+02761+02481999999ADDGA1071+003909029GF107991071021004501001001REMSYN070AAXX  01094 65562 42460 7//// 10276 20248 3//// 4//// 87200 333 87813;
0173655620999992000030206004+06650-004700FM-12+0092DIDK V02099999999992200019N0080001N1+02501+02431999999ADDAA199000091GA1031+003909059GF103991031051004501001001KA1120N+02481REMSYN076AAXX  02064 65562 32458 3//// 10250 20243 3//// 4//// 83500 333 20248 83613;EQDQ01  00002PRCP99
0170655620999992000030212004+06650-004700FM-12+0092DIDK V02099999999992200019N0030001N1+03381+02001999999ADDAA199000091AY111061AY211061GA1021+003909029GF102991021021004501001001MW1051REMSYN064AAXX  02124 65562 31430 2//// 10338 20200 70511 82200 333 82813;EQDQ01  00002PRCP99
0177655620999992000030218004+06650-004700FM-12+0092DIDK V02099999999992200019N0020001N1+03551+01711999999ADDAA199000091AY101061AY201061GA1001+999999999GF100991001001999999001001KA1999M+03851MW1051REMSYN058AAXX  02184 65562 31920 0//// 10355 20171 70500 333 10385;EQDQ01  00002PRCP99
0126655620999992000030300004+06650-004700FM-12+0092DIDK V02099999999992200019N0060001N1+02761+02541999999ADDAA199000091GA1001+999999999GF100991001001999999001001REMSYN042AAXX  03004 65562 32956 0//// 10276 20254;EQDQ01  00002PRCP99
0149655620999992000030306004+06650-004700FM-12+0092DIDK V02099999999992200019N0060001N1+02601+02461999999ADDAA199000091GA1001+999999999GF100991001001999999001001KA1999N+02541REMSYN052AAXX  03064 65562 32956 0//// 10260 20246 333 20254;EQDQ01  00002PRCP99
0112655620999992000030309004+06650-004700FM-12+0092DIDK V02099999999990039019N0080001N1+02801+02491999999ADDGA1071+003909029GF107991071021004501001001REMSYN058AAXX  03094 65562 42458 7//// 10280 20249 87200 333 87813;
0189655620999992000030318004+06650-004700FM-12+0092DIDK V02099999999992200019N0040001N1+03521+02021999999ADDAA199000091AY111061AY211061GA1031+004809029GF103991031021004501001001KA1120M+03781MW1051REMSYN070AAXX  03184 65562 31440 3//// 10352 20202 70511 83200 333 10378 83816;EQDQ01  00002PRCP99
0126655620999992000030400004+06650-004700FM-12+0092DIDK V0209999C000012200019N0080001N1+02701+02431999999ADDAA199000091GA1001+999999999GF100991001001999999001001REMSYN042AAXX  04004 65562 32958 00000 10270 20243;EQDQ01  00002PRCP99
0149655620999992000030406004+06650-004700FM-12+0092DIDK V02099999999992200019N0060001N1+02501+02431999999ADDAA199000091GA1001+999999999GF100991001001999999001001KA1999N+02451REMSYN052AAXX  04064 65562 32956 0//// 10250 20243 333 20245;EQDQ01  00002PRCP99
0112655620999992000030409004+06650-004700FM-12+0092DIDK V02099999999990039019N0060001N1+02821+02511999999ADDGA1061+003909029GF106991061021004501001001REMSYN058AAXX  04094 65562 42456 6//// 10282 20251 86200 333 86813;
0152655620999992000030415004+06650-004700FM-12+0092DIDK V02099999999992200019N0030001N1+03701+01821999999ADDAY111031AY211031GA1031+003909029GF103991031021004501001001MW1051REMSYN076AAXX  04154 65562 41430 3//// 10370 20182 3//// 4//// 70511 83200 333 83813;
0201655620999992000030418004+06650-004700FM-12+0092DIDK V02099999999992200019N0030001N1+03551+01911999999ADDAA199000091AY111061AY211061GA1021+004509029GF102991021021004501001001KA1120M+03771MW1051REMSYN082AAXX  04184 65562 31430 2//// 10355 20191 3//// 4//// 70511 82200 333 10377 82815;EQDQ01  00002PRCP99
0090655620999992000030503004+06650-004700FM-12+0092DIDK V02099999999992200019N0060001N1+02561+99999999999ADDGA1001+999999999GF100991001001999999001001REMSYN036AAXX  05034 65562 42956 0//// 10256;
0124655620999992000030509004+06650-004700FM-12+0092DIDK V02099999999990039019N0060001N1+02871+02521999999ADDGA1051+003909029GF105991051021004501001001REMSYN070AAXX  05094 65562 42456 5//// 10287 20252 3//// 4//// 85200 333 85813;
0154655620999992000030512004+06650-004700FM-12+0092DIDK V02099999999992200019N0060001N1+03461+02421999999ADDAA199000091GA1041+003909029GF104991041021004501001001REMSYN070AAXX  05124 65562 32456 4//// 10346 20242 3//// 4//// 84200 333 84813;EQDQ01  00002PRCP99
0140655620999992000030515004+06650-004700FM-12+0092DIDK V02099999999992200019N0040001N1+03801+02091999999ADDAY101031AY201031GA1031+004509029GF103991031021999999001001MW1051REMSYN064AAXX  05154 65562 41940 3//// 10380 20209 70500 83200 333 83815;
0217655620999992000030518004+06650-004700FM-12+0092DIDK V02099999999990045019N0060001N1+03601+02191999999ADDAA199000091AY191061AY211061GA1061+004509089GA2011+006009099GF106991061091004501001001KA1120M+03901MW1171REMSYN082AAXX  05184 65562 31456 6//// 10360 20219 71791 86900 333 10390 86815 81920 95334;EQDQ01  00002PRCP99
0112655620999992000030600004+06650-004700FM-12+0092DIDK V02099999999992200019N0060001N1+02731+02401999999ADDGA1001+999999999GF100991001001999999001001REMSYN058AAXX  06004 65562 42956 0//// 10273 20240 3//// 4//// 333;
0173655620999992000030606004+06650-004700FM-12+0092DIDK V02099999999990039019N0060001N1+02651+02491999999ADDAA199000091GA1051+003909059GF105991051051004501001001KA1120N+02601REMSYN076AAXX  06064 65562 32456 5//// 10265 20249 3//// 4//// 85500 333 20260 85613;EQDQ01  00002PRCP99
0167655620999992000030609004+06650-004700FM-12+0092DIDK V02099999999990039019N0060001N1+99999+99999999999ADDAA199000091GA1051+003909059GF105991051051004501001001KA1120N+02601REMSYN070AAXX  06094 65562 32456 5//// 1/265 3//// 4//// 85500 333 20260 85613;EQDQ01  00002PRCP99
0142655620999992000030612004+06650-004700FM-12+0092DIDK V02099999999990039019N0060001N1+03451+02311999999ADDAA199000091GA1061+003909029GF106991061021004501001001REMSYN058AAXX  06124 65562 32456 6//// 10345 20231 86200 333 86813;EQDQ01  00002PRCP99
0142655620999992000030615004+06650-004700FM-12+0092DIDK V02099999999990039019N0060001N1+03451+02311999999ADDAA199000091GA1061+003909029GF106991061021004501001001REMSYN058AAXX  06154 65562 32456 6//// 10345 20231 86200 333 86813;EQDQ01  00002PRCP99
0142655620999992000030618004+06650-004700FM-12+0092DIDK V02099999999990039019N0060001N1+03451+02311999999ADDAA199000091GA1061+003909029GF106991061021004501001001REMSYN058AAXX  06184 65562 32456 6//// 10345 20231 86200 333 86813;EQDQ01  00002PRCP99
0126655620999992000030700004+06650-004700FM-12+0092DIDK V02099999999992200019N0060001N1+02651+02101999999ADDAA199000091GA1001+999999999GF100991001001999999001001REMSYN042AAXX  07004 65562 32956 0//// 10265 2021/;EQDQ01  00002PRCP99
0086655620999992000030703004+06650-004700FM-12+0092DIDK V02099999999990042019N0060001N1+02551+02331999999ADDGF106991061051004501001999REMSYN048AAXX  07034 65562 42456 6//// 10255 20233 8650/;
0161655620999992000030706004+06650-004700FM-12+0092DIDK V02099999999990039019N0060001N1+02501+02281999999ADDAA199000091GA1071+003909059GF107991071051004501001001KA1120N+02451REMSYN064AAXX  07064 65562 32456 7//// 10250 20228 87500 333 20245 87613;EQDQ01  00002PRCP99
0142655620999992000030712004+06650-004700FM-12+0092DIDK V02099999999990045019N0060001N1+03341+02231999999ADDAA199000091GA1061+004509029GF106991061021004501001001REMSYN058AAXX  07124 65562 32456 6//// 10334 20223 86200 333 86815;EQDQ01  00002PRCP99
0112655620999992000030715004+06650-004700FM-12+0092DIDK V02099999999992200019N0080001N1+03751+01891999999ADDGA1041+004809029GF104991041021004501001001REMSYN058AAXX  07154 65562 42458 4//// 10375 20189 84200 333 84816;
0177655620999992000030718004+06650-004700FM-12+0092DIDK V02099999999992200019N0080001N1+02602+01881999999ADDAA199000091GA1011+004809029GF102991011021004501031001KA1120M+03851REMSYN064AAXX  07184 65562 32458 2//// 10260 20188 81230 333 10385 81816;EQDQ01+002603ATOT  Q02  00002PRCP99
0126655620999992000030800004+06650-004700FM-12+0092DIDK V02099999999992200019N0080001N1+02801+02401999999ADDAA199000091GA1001+999999999GF100991001001999999001001REMSYN042AAXX  08004 65562 32958 0//// 10280 20240;EQDQ01  00002PRCP99
0129655620999992000030806004+06650-004700FM-12+0092DIDK V02099999999999999999N0080001N1+02521+99999999999ADDAA199000091GA1021+003909059KA1120N+02501REMSYN058AAXX  08064 65562 32458 ///// 10252 82500 333 20250 82613;EQDQ01  00002PRCP99
0112655620999992000030809004+06650-004700FM-12+0092DIDK V02099999999990039019N0080001N1+02851+02501999999ADDGA1071+003909029GF107991071021004501001001REMSYN058AAXX  08094 65562 42458 7//// 10285 20250 87200 333 87813;
0142655620999992000030812004+06650-004700FM-12+0092DIDK V02099999999990045019N0080001N1+03421+02241999999ADDAA199000091GA1051+004509029GF105991051021004501001001REMSYN058AAXX  08124 65562 32458 5//// 10342 20224 85200 333 85815;EQDQ01  00002PRCP99
0124655620999992000030815004+06650-004700FM-12+0092DIDK V02099999999990045019N0060001N1+03801+01961999999ADDGA1051+004509029GF105991051021004501001001REMSYN070AAXX  08154 65562 42456 5//// 10380 20196 3//// 4//// 85200 333 85815;
0207655620999992000030818004+06650-004700FM-12+0092DIDK V02099999999992200019N0040001N1+03601+01941999999ADDAA199000091AY111061AY211061GA1031+004509089GF104991031021004501001021KA1120M+03851MW1051REMSYN088AAXX  08184 65562 31440 4//// 10360 20194 3//// 4//// 70511 83202 333 10385 83815 83080;EQDQ01  00002PRCP99
0045655620999992000030821004+06650-004700FM-12+0092DIDK V02099999999999999999N0060001N1+99999+99999999999REMSYN036AAXX  08214 65562 42956 /0/// 20243;
0142655620999992000030900004+06650-004700FM-12+0092DIDK V02099999999990039019N0080001N1+02741+02511999999ADDAA199000091GA1061+003909059GF106991061051004501001001REMSYN058AAXX  09004 65562 32458 6//// 10274 20251 86500 333 86613;EQDQ01  00002PRCP99
0161655620999992000030906004+06650-004700FM-12+0092DIDK V02099999999992200019N0080001N1+02481+02431999999ADDAA199000091GA1031+003909059GF103991031051004501001001KA1120N+02441REMSYN064AAXX  09064 65562 32458 3//// 10248 20243 83500 333 20244 83613;EQDQ01  00002PRCP99
0124655620999992000030909004+06650-004700FM-12+0092DIDK V02099999999990039019N0080001N1+02771+02531999999ADDGA1061+003909059GF106991061051004501001001REMSYN070AAXX  09094 65562 42458 6//// 10277 20253 3//// 4//// 86500 333 86613;
0154655620999992000030912004+06650-004700FM-12+0092DIDK V02099999999990039019N0080001N1+03401+02191999999ADDAA199000091GA1051+003909029GF105991051021004501001001REMSYN070AAXX  09124 65562 32458 5//// 10340 20219 3//// 4//// 85200 333 85813;EQDQ01  00002PRCP99
0112655620999992000030915004+06650-004700FM-12+0092DIDK V02099999999992200019N0060001N1+03751+01731999999ADDGA1041+004509029GF104991041021004501001001REMSYN058AAXX  09154 65562 42456 4//// 10375 20173 84200 333 84815;
0161655620999992000030918004+06650-004700FM-12+0092DIDK V02099999999992200019N0060001N1+03561+01961999999ADDAA199000091GA1011+004509059GF101991011051004501001001KA1120M+03851REMSYN064AAXX  09184 65562 32456 1//// 10356 20196 81500 333 10385 81615;EQDQ01  00002PRCP99
0142655620999992000031000004+06650-004700FM-12+0092DIDK V02099999999992200019N0080001N1+02781+02471999999ADDAA199000091GA1001+999999999GF100991001001999999001001REMSYN058AAXX  10004 65562 32958 0//// 10278 20247 3//// 4//// 333;EQDQ01  00002PRCP99
0096655620999992000031003004+06650-004700FM-12+0092DIDK V02099999999992200019N0080001N1+01652+99999999999ADDGA1001+999999999GF100991001001999999001001REMSYN042AAXX  10034 65562 42958 0//// 10165 20246;
0173655620999992000031006004+06650-004700FM-12+0092DIDK V02099999999992200019N0060001N1+02461+02371999999ADDAA199000091GA1031+003909059GF103991031051004501001001KA1120N+02401REMSYN076AAXX  10064 65562 32456 3//// 10246 20237 3//// 4//// 83500 333 20240 83613;EQDQ01  00002PRCP99
0112655620999992000031009004+06650-004700FM-12+0092DIDK V02099999999990039019N0060001N1+02781+02501999999ADDGA1061+003909059GF106991061051004501001001REMSYN058AAXX  10094 65562 42456 6//// 10278 20250 86500 333 86613;
0160655620999992000031012004+06650-004700FM-12+0092DIDK V02099999999992200019N0060001N1+03471+01941999999ADDAA199000091GA1021+004809089GF103991021051004501001021REMSYN076AAXX  10124 65562 32456 3//// 10347 20194 3//// 4//// 82502 333 82816 83080;EQDQ01  00002PRCP99
0124655620999992000031015004+06650-004700FM-12+0092DIDK V02099999999992200019N0040001N1+03771+01671999999ADDAY101031AY201031GA1001+999999999GF100991001001999999001001MW1051REMSYN048AAXX  10154 65562 41940 0//// 10377 20167 70500;
0179655620999992000031018004+06650-004700FM-12+0092DIDK V02099999999992200019N0040001N1+03571+01701999999ADDAA199000091AY101061GA1001+999999999GF100991001001999999001001KA1999M+03861REMSYN058AAXX  10184 65562 31940 0//// 10357 20170 7500/ 333 10386;EQDQ01+000502PRSWM1Q02  00002PRCP99
0126655620999992000031100004+06650-004700FM-12+0092DIDK V02099999999992200019N0080001N1+02801+02461999999ADDAA199000091GA1001+999999999GF100991001001999999001001REMSYN042AAXX  11004 65562 32958 0//// 10280 20246;EQDQ01  00002PRCP99
0161655620999992000031106004+06650-004700FM-12+0092DIDK V02099999999992200019N0080001N1+02441+02381999999ADDAA199000091GA1041+003909059GF104991041051004501001001KA1120N+02401REMSYN064AAXX  11064 65562 32458 4//// 10244 20238 84500 333 20240 84613;EQDQ01  00002PRCP99
0124655620999992000031309004+06650-004700FM-12+0092DIDK V02099999999992200019N0060001N1+02901+02511999999ADDGA1041+004509029GF104991041021004501001001REMSYN070AAXX  13094 65562 42456 4//// 10290 20251 3//// 4//// 84200 333 84815;
0142655620999992000031312004+06650-004700FM-12+0092DIDK V02099999999992200019N0060001N1+03421+02241999999ADDAA199000091GA1041+004509029GF104991041021004501001001REMSYN058AAXX  13124 65562 32456 4//// 10342 20224 84200 333 84815;EQDQ01  00002PRCP99
0177655620999992000031318004+06650-004700FM-12+0092DIDK V02099999999992200019N0060001N1+03641+01991999999ADDAA199000091GA1021+090009019GF102991001001999999001021KA1120M+99999REMSYN064AAXX  13184 65562 32956 2//// 10364 20199 80002 333 10319 82080;EQDQ01  00002PRCP99Q02 +03192ATMX  
0142655620999992000031400004+06650-004700FM-12+0092DIDK V02099999999992200019N0060001N1+02851+02471999999ADDAA199000091GA1001+999999999GF100991001001999999001001REMSYN058AAXX  14004 65562 32956 0//// 10285 20247 3//// 4//// 333;EQDQ01  00002PRCP99
0096655620999992000031403004+06650-004700FM-12+0092DIDK V02099999999992200019N0060001N1+02701+02471999999ADDGA1001+999999999GF100991001001999999001001REMSYN042AAXX  14034 65562 42956 0//// 10270 20247;
0173655620999992000031406004+06650-004700FM-12+0092DIDK V02099999999992200019N0060001N1+02601+02491999999ADDAA199000091GA1031+003909029GF103991031021004501001001KA1120N+02541REMSYN076AAXX  14064 65562 32456 3//// 10260 20249 3//// 4//// 83200 333 20254 83813;EQDQ01  00002PRCP99
0112655620999992000031409004+06650-004700FM-12+0092DIDK V02099999999990039019N0060001N1+02931+02541999999ADDGA1071+003909059GF107991071051004501001001REMSYN058AAXX  14094 65562 42456 7//// 10293 20254 87500 333 87613;
0142655620999992000031412004+06650-004700FM-12+0092DIDK V02099999999990039019N0060001N1+03461+02161999999ADDAA199000091GA1051+003909029GF105991051021004501001001REMSYN058AAXX  14124 65562 32456 5//// 10346 20216 85200 333 85813;EQDQ01  00002PRCP99
0112655620999992000031415004+06650-004700FM-12+0092DIDK V02099999999992200019N0080001N1+03801+01881999999ADDGA1041+004809029GF104991041021004501001001REMSYN058AAXX  14154 65562 42458 4//// 10380 20188 84200 333 84816;
0167655620999992000031418004+06650-004700FM-12+0092DIDK V0209999999999105001CN0080001N1+03581+02091999999ADDAA199000091GA1011+004809089GF105991011021004501001021KA1120M+03931REMSYN070AAXX  14184 65562 32458 5//// 10358 20209 81202 333 10393 81816 85080;EQDQ01  00002PRCP99
0126655620999992000031500004+06650-004700FM-12+0092DIDK V02099999999992200019N0080001N1+02751+02391999999ADDAA199000091GA1001+999999999GF100991001001999999001001REMSYN042AAXX  15004 65562 32958 0//// 10275 20239;EQDQ01  00002PRCP99
0112655620999992000031503004+06650-004700FM-12+0092DIDK V02099999999992200019N0080001N1+02621+02381999999ADDGA1021+003909059GF102991021051004501001001REMSYN058AAXX  15034 65562 42458 2//// 10262 20238 82500 333 82613;
0167655620999992000031506004+06650-004700FM-12+0092DIDK V0209999999999004201CN0080001N1+02501+02431999999ADDAA199000091GA1031+001509079GF108991081051004501999999KA1120N+02451REMSYN070AAXX  15064 65562 32458 8//// 10250 20243 885// 333 20245 83705 88613;EQDQ01  00002PRCP99
0112655620999992000031509004+06650-004700FM-12+0092DIDK V02099999999990039019N0080001N1+02941+02451999999ADDGA1061+003909029GF106991061021004501001001REMSYN058AAXX  15094 65562 42458 6//// 10294 20245 86200 333 86813;
