0224680100999992000010106004-19180+015920FM-12+110099999V0202301N002112200019N0750001N1+02081+01201999999ADDAA106000091GF104991041051017501081001KA1240M+03001KA2120N+01751MA1999999088811MD1310081+9999ME1314829REMSYN092AAXX  01064 68010 32789 42304 10208 20120 38881 48482 53008 84580 333 20175 555 10300 91013;EQDQ01  00002PRCP06
0205680100999992000010112004-19180+015920FM-12+110099999V0200101N002110450019N0750001N1+02891+01161999999ADDAA106000091GF106991031041017501081001KA1120N+02071MA1999999088721MD1810121+9999ME1314799REMSYN086AAXX  01124 68010 32789 60104 10289 20116 38872 48479 58012 83480 333 20207 555 91012;EQDQ01  00002PRCP06
0205680100999992000010118004-19180+015920FM-12+110099999V0200501N003112200019N0550001N1+02691+01071999999ADDAA106000091GF102991011041017501001011KA1120M+03681MA1999999088651MD1310101+9999ME1314729REMSYN086AAXX  01184 68010 32785 20506 10269 20107 38865 48472 53010 81401 333 10368 555 91012;EQDQ01  00002PRCP06
0224680100999992000010206004-19180+015920FM-12+110099999V0202301N003112200019N0750001N1+01841+00981999999ADDAA106000091GF103991011001999999081021KA1240M+03081KA2120N+01501MA1999999088721MD1310181+9999ME1314719REMSYN092AAXX  02064 68010 32989 32306 10184 20098 38872 48471 53018 81082 333 20150 555 10308 91012;EQDQ01  00002PRCP06
0205680100999992000010212004-19180+015920FM-12+110099999V0203101N002112200019N0750001N1+03051+01011999999ADDAA106000091GF101991001001999999001031KA1120N+01831MA1999999088671MD1810081+9999ME1314759REMSYN086AAXX  02124 68010 32989 13104 10305 20101 38867 48475 58008 80003 333 20183 555 91012;EQDQ01  00002PRCP06
0205680100999992000010218004-19180+015920FM-12+110099999V0209999C000012200019N0750001N1+02701+01281999999ADDAA106000091GF103991001001999999001081KA1120M+03201MA1999999088571MD1310051+9999ME1314629REMSYN086AAXX  02184 68010 32989 30000 10270 20128 38857 48462 53005 80008 333 10320 555 91011;EQDQ01  00002PRCP06
0205680100999992000010312004-19180+015920FM-12+110099999V0201301N002112200019N0750001N1+03261+00871999999ADDAA106000091GF104991001001999999041061KA1120N+02181MA1999999088781MD1810061+9999ME1314899REMSYN086AAXX  03124 68010 32989 41304 10326 20087 38878 48489 58006 80046 333 20218 555 91013;EQDQ01  00002PRCP06
0205680100999992000010318004-19180+015920FM-12+110099999V0209999C000012200019N0750001N1+02971+01321999999ADDAA106000091GF103991001001999999001061KA1120M+03401MA1999999088651MD1310051+9999ME1314739REMSYN086AAXX  03184 68010 32989 30000 10297 20132 38865 48473 53005 80006 333 10340 555 91012;EQDQ01  00002PRCP06
0224680100999992000010406004-19180+015920FM-12+110099999V0202301N003112200019N0750001N1+02121+01081999999ADDAA106000091GF101991001001999999001021KA1240M+03041KA2120N+01751MA1999999088821MD1310101+9999ME1314839REMSYN092AAXX  04064 68010 32989 12306 10212 20108 38882 48483 53010 80002 333 20175 555 10304 91013;EQDQ01  00002PRCP06
0205680100999992000010412004-19180+015920FM-12+110099999V0200901N002112200019N0750001N1+03071+01601999999ADDAA106000091GF103991031021017501001001KA1120N+01751MA1999999088721MD1810191+9999ME1314819REMSYN086AAXX  04124 68010 32789 30904 10307 20160 38872 48481 58019 83200 333 20175 555 91012;EQDQ01  00002PRCP06
0245680100999992000010506004-19180+015920FM-12+110099999V0209999C000012200019N0750001N1+01961+01811999999ADDAA124025891AY191061AY261061GF103991031051022501001001KA1240M+03381KA2120N+01841MA1999999088791MD1310061+9999ME1314819MW1031REMSYN110AAXX  05064 68010 11889 30000 10196 20181 38879 48481 53006 60264 70396 83500 333 20184 555 10338 20258 91013;
0205680100999992000010512004-19180+015920FM-12+110099999V0200501N001512200019N0750001N1+02731+01981999999ADDAA106000091GF104991031021017501031001KA1120N+01841MA1999999088701MD1810171+9999ME1314779REMSYN086AAXX  05124 68010 32789 40503 10273 20198 38870 48477 58017 83230 333 20184 555 91012;EQDQ01  00002PRCP06
0217680100999992000010606004-19180+015920FM-12+110099999V0209999C000012200019N0750001N1+01941+01751999999ADDAA124008091GF102991021001999999071001KA1240M+02901KA2120N+01851MA1999999088761MD1210031+9999ME1314769REMSYN104AAXX  06064 68010 12989 20000 10194 20175 38876 48476 52003 60084 82070 333 20185 555 10290 20080 91013;
0205680100999992000010612004-19180+015920FM-12+110099999V0200901N006212200019N0750001N1+02781+01861999999ADDAA106000091GF104991031021017501061001KA1120N+01851MA1999999088681MD1810121+9999ME1314759REMSYN086AAXX  06124 68010 32789 40912 10278 20186 38868 48475 58012 83260 333 20185 555 91012;EQDQ01  00002PRCP06
0264680100999992000010706004-19180+015920FM-12+110099999V0209999C000012200019N0750001N1+02061+01921999999ADDAA124078391AY191061AY261061GF104991999041022501001001KA1240M+02881KA2120N+01841MA1999999088771MD1310041+9999ME1314789MW1021REMSYN110AAXX  07064 68010 11889 40000 10206 20192 38877 48478 53004 60784 70296 82400 333 20184 555 10288 20783 91013;EQDQ01+000022SCOTLC
0205680100999992000010712004-19180+015920FM-12+110099999V0203001N001510450019N0750001N1+02721+02071999999ADDAA106000091GF105991041091017501081001KA1120N+01841MA1999999088611MD1810181+9999ME1314679REMSYN086AAXX  07124 68010 32789 53003 10272 20207 38861 48467 58018 84980 333 20184 555 91011;EQDQ01  00002PRCP06
0205680100999992000010718004-19180+015920FM-12+110099999V0209999C000019999999N0750001N1+02241+01991999999ADDAA106000091GF106991041091999999081041KA1120M+02821MA1999999088531MD1310161+9999ME1314559REMSYN086AAXX  07184 68010 32989 60000 10224 20199 38853 48455 53016 84984 333 10282 555 91010;EQDQ01  00002PRCP06
0224680100999992000010806004-19180+015920FM-12+110099999V0202701N002119999999N0750001N1+01931+01291999999ADDAA106000091GF105991051001999999081001KA1240M+02821KA2120N+01801MA1999999088681MD1310051+9999ME1314689REMSYN092AAXX  08064 68010 32989 52704 10193 20129 38868 48468 53005 85080 333 20180 555 10282 91012;EQDQ01  00002PRCP06
0205680100999992000010812004-19180+015920FM-12+110099999V0201301N002112200019N0750001N1+02761+01711999999ADDAA106000091GF104991031021017501081001KA1120N+01801MA1999999088591MD1810161+9999ME1314659REMSYN086AAXX  08124 68010 32789 41304 10276 20171 38859 48465 58016 83280 333 20180 555 91011;EQDQ01  00002PRCP06
0184680100999992000010818004-19180+015920FM-12+110099999V0202301N002112200019N0750001N1+02561+01301999999ADDAA106000091GF102991001001999999001041KA1120M+03151MD1310191+9999ME1314579REMSYN080AAXX  08184 68010 32989 22304 10256 2013/ 48457 53019 80004 333 10315 555 91010;EQDQ01  00002PRCP06
0224680100999992000010906004-19180+015920FM-12+110099999V0202701N002112200019N0750001N1+01761+00421999999ADDAA106000091GF104991041001999999071001KA1240M+03151KA2120N+01671MA1999999088671MD1310041+9999ME1314669REMSYN092AAXX  09064 68010 32989 42704 10176 20042 38867 48466 53004 84070 333 20167 555 10315 91012;EQDQ01  00002PRCP06
0205680100999992000010912004-19180+015920FM-12+110099999V0202301N002112200019N0750001N1+02851+00761999999ADDAA106000091GF104991031021022501081001KA1120N+01671MA1999999088551MD1810121+9999ME1314629REMSYN086AAXX  09124 68010 32889 42304 10285 20076 38855 48462 58012 83280 333 20167 555 91010;EQDQ01  00002PRCP06
0224680100999992000011006004-19180+015920FM-12+110099999V0209999C000012200019N0750001N1+01831+00771999999ADDAA106000091GF102991021001999999081001KA1240M+03001KA2120N+01501MA1999999088571MD1310041+9999ME1314569REMSYN092AAXX  10064 68010 32989 20000 10183 20077 38857 48456 53004 82080 333 20150 555 10300 91011;EQDQ01  00002PRCP06
0205680100999992000011012004-19180+015920FM-12+110099999V0202301N005112200019N0750001N1+02841+00681999999ADDAA106000091GF103991011011022501061021KA1120N+01761MA1999999088461MD1810151+9999ME1314539REMSYN086AAXX  10124 68010 32889 32310 10284 20068 38846 48453 58015 81162 333 20176 555 91009;EQDQ01  00002PRCP06
0205680100999992000011018004-19180+015920FM-12+110099999V0202301N002112200019N0750001N1+02621+00471999999ADDAA106000091GF103991011021022501001061KA1120M+03121MA1999999088461MD1510121+9999ME1314509REMSYN086AAXX  10184 68010 32889 32304 10262 20047 38846 48450 55012 81206 333 10312 555 91009;EQDQ01  00002PRCP06
0224680100999992000011106004-19180+015920FM-12+110099999V0202301N005112200019N0750001N1+01751+00381999999ADDAA106000091GF103991011001999999051061KA1240M+03121KA2120N+01261MA1999999088691MD1310091+9999ME1314679REMSYN092AAXX  11064 68010 32989 32310 10175 20038 38869 48467 53009 81056 333 20126 555 10312 91012;EQDQ01  00002PRCP06
0205680100999992000011112004-19180+015920FM-12+110099999V0202301N005112200019N0750001N1+02921+00571999999ADDAA106000091GF103991021021022501001051KA1120N+01721MA1999999088611MD1010101+9999ME1314689REMSYN086AAXX  11124 68010 32889 32310 10292 20057 38861 48468 50010 82205 333 20172 555 91011;EQDQ01  00002PRCP06
0205680100999992000011118004-19180+015920FM-12+110099999V0202301N003112200019N0750001N1+02631+00541999999ADDAA106000091GF104991031001999999091061KA1120M+03031MA1999999088571MD1510121+9999ME1314629REMSYN086AAXX  11184 68010 32989 42306 10263 20054 38857 48462 55012 83096 333 10303 555 91011;EQDQ01  00002PRCP06
0224680100999992000011206004-19180+015920FM-12+110099999V0202301N002119999999N0750001N1+01721+00831999999ADDAA106000091GF105991041001999999081021KA1240M+03021KA2120N+01511MA1999999088671MD1310071+9999ME1314659REMSYN092AAXX  12064 68010 32989 52304 10172 20083 38867 48465 53007 84082 333 20151 555 10302 91012;EQDQ01  00002PRCP06
0205680100999992000011212004-19180+015920FM-12+110099999V0202701N005112200019N0750001N1+03031+01381999999ADDAA106000091GF103991011011017501001031KA1120N+01691MA1999999088531MD1810161+9999ME1314629REMSYN086AAXX  12124 68010 32789 32710 10303 20138 38853 48462 58016 81103 333 20169 555 91010;EQDQ01  00002PRCP06
0220680100999992000011218004-19180+015920FM-12+110099999V0200501N001512200019N0700001N1+02441+01821999999ADDAA112000791AY191061AY251061GF105991031071022501001061KA1120M+03281MA1999999088531MD1510151+9999ME1314579MW1201REMSYN098AAXX  12184 68010 11888 50503 10244 20182 38853 48457 55015 69902 72095 83706 333 10328 555 91010;
0245680100999992000011306004-19180+015920FM-12+110099999V0202301N002110120019N0750001N1+01951+01261999999ADDAA124000091AY151061AY201061GF106991061051012501071001KA1240M+03281KA2120N+01811MA1999999088651MD1310081+9999ME1314679MW1031REMSYN110AAXX  13064 68010 11689 62304 10195 20126 38865 48467 53008 69904 70350 86570 333 20181 555 10328 20000 91012;
0205680100999992000011312004-19180+015920FM-12+110099999V0201501N002112200019N0750001N1+02841+01661999999ADDAA106000091GF103991031021022501081001KA1120N+01921MA1999999088511MD1810141+9999ME1314599REMSYN086AAXX  13124 68010 32889 31504 10284 20166 38851 48459 58014 83280 333 20192 555 91010;EQDQ01  00002PRCP06
0220680100999992000011318004-19180+015920FM-12+110099999V0209999C000010450019N0750001N1+01991+01911999999ADDAA112007191AY191061AY261061GF105991031091022501091001KA1120M+03051MA1999999088471MD1410001+9999ME1314489MW1131REMSYN098AAXX  13184 68010 11889 50000 10199 20191 38847 48448 54008 60072 71396 83990 333 10305 555 91010;
0240680100999992000011406004-19180+015920FM-12+110099999V0209999C000010210019N0750001N1+01941+01751999999ADDAA124007291GF105991051041022501001001KA1240M+03051KA2120N+01791MA1999999999999MD1310121+9999ME1311629REMSYN108    AAXX  14064 68010 12889 50000 10194 20175 38559 48162 53012 60074 85400 333 20179 555 10305 20072 90977;EQDQ01 085593APOSP 
0224680100999992000011418004-19180+015920FM-12+110099999V0202301N002112200019N0750001N1+02821+01481999999ADDAA112001091AY161061AY201061GF103991011091017501071061KA1120M+03181MA1999999088371MD1510081+9999ME1314449MW1031REMSYN102    AAXX  14184 68010 11789 32304 10282 20148 38837 48444 55008 60012 70360 81976 333 10318 555 91008;
0221680100999992000011506004-19180+015920FM-12+110099999V0202301N002112200019N0750001N1+01801+00871999999ADDAA124000891GF103991001001999999001031KA1240M+03181KA2120N+01261MA1999999088681MD1310071+9999ME1314679REMSYN108    AAXX  15064 68010 12989 32304 10180 20087 38868 48467 53007 69984 80003 333 20126 555 10318 20008 91012;
0209680100999992000011512004-19180+015920FM-12+110099999V0201301N002112200019N0750001N1+03121+01091999999ADDAA199000091GF102991011001999999031061KA1120N+01481MA1999999088591MD1010101+9999ME1314689REMSYN090    AAXX  15124 68010 32989 21304 10312 20109 38859 48468 50010 81036 333 20148 555 91011;EQDQ01  00002PRCP99
0209680100999992000011518004-19180+015920FM-12+110099999V0209999C000012200019N0750001N1+02801+01051999999ADDAA199000091GF102991011031022501071001KA1120M+03261MA1999999088561MD1510051+9999ME1314629REMSYN090    AAXX  15184 68010 32889 20000 10280 20105 38856 48462 55005 81370 333 10326 555 91011;EQDQ01  00002PRCP99
0219680100999992000011618004-19180+015920FM-12+110099999V0209999C000012200019N0750001N1+02731+00871999999ADDAA199000091GA1001+999999999GF100991001001999999001001KA1120M+03301MA1999999088691MD1510081+9999ME1314759REMSYN084    AAXX  16184 68010 32989 00000 10273 20087 38869 48475 55008 333 10330 555 91012;EQDQ01  00002PRCP99
0209680100999992000011712004-19180+015920FM-12+110099999V0203601N002112200019N0750001N1+03141+01191999999ADDAA199000091GF101991011021999999001001KA1120N+01421MA1999999088721MD1810131+9999ME1314829REMSYN090    AAXX  17124 68010 32989 13604 10314 20119 38872 48482 58013 81200 333 20142 555 91012;EQDQ01  00002PRCP99
0228680100999992000011806004-19180+015920FM-12+110099999V0209999C000012200019N0750001N1+01821+01241999999ADDAA199000091GF101991011001999999081001KA1240M+03421KA2120N+01401MA1999999088821MD1310101+9999ME1314839REMSYN096    AAXX  18064 68010 32989 10000 10182 20124 38882 48483 53010 81080 333 20140 555 10342 91013;EQDQ01  00002PRCP99
0218680100999992000011818004-19180+015920FM-12+110099999V0202301N002112200019N0750001N1+02641+01311999999ADDAA199000021AY101061AY201061GF104991011071022501061051KA1120M+03331MA1999999088481MD1510151+9999ME1314539MW1201REMSYN096    AAXX  18184 68010 31889 42304 10264 20131 38848 48453 55015 72000 81765 333 10333 555 91010;
0249680100999992000011906004-19180+015920FM-12+110099999V0200501N002112200019N0750001N1+02171-00311999999ADDAA124000491AY161061AY221061GF103991031001999999031001KA1240M+03331KA2120N+01651MA1999999089151MD1310261+9999ME1315199MW1021REMSYN114    AAXX  19064 68010 11989 30504 10217 21031 38915 48519 53026 69944 70262 83030 333 20165 555 10333 20004 91017;
0209680100999992000011912004-19180+015920FM-12+110099999V0200901N003112200019N0750001N1+03041+01381999999ADDAA199000091GF103991021021022501001081KA1120N+01851MA1999999088991MD1010171+9999ME1315109REMSYN090    AAXX  19124 68010 32889 30906 10304 20138 38899 48510 50017 82208 333 20185 555 91015;EQDQ01  00002PRCP99
0205680100999992000011918004-19180+015920FM-12+110099999V0201301N002111050019N0750001N1+02561+01441999999ADDAA199000091GF105991031091022501001051KA1120M+03321MA1999999089041MD1510221+9999ME1315119REMSYN086AAXX  19184 68010 32889 51304 10256 20144 38904 48511 55022 83905 333 10332 555 91016;EQDQ01  00002PRCP99
0224680100999992000012006004-19180+015920FM-12+110099999V0200901N007212200019N0750001N1+02201+01631999999ADDAA199000091GF103991031001999999091001KA1240M+03321KA2120N+01781MA1999999089351MD1310211+9999ME1315429REMSYN092AAXX  20064 68010 32989 30914 10220 20163 38935 48542 53021 83090 333 20178 555 10332 91019;EQDQ01  00002PRCP99
0233680100999992000012012004-19180+015920FM-12+110099999V0203601N003110150019N0750001N1+02901+01661999999ADDAA199000091AY101061AY211061GF105991051021017501001001KA1120N+01891MA1999999089221MD1810161+9999ME1315339MW1151REMSYN092AAXX  20124 68010 31789 53606 10290 20166 38922 48533 58016 71501 85200 333 20189 555 91018;EQDQ01  00002PRCP99
0205680100999992000012018004-19180+015920FM-12+110099999V0200501N003112200019N0750001N1+02461+01641999999ADDAA199000091GF104991021041022501071081KA1120M+02981MA1999999089081MD1610071+9999ME1315159REMSYN086AAXX  20184 68010 32889 40506 10246 20164 38908 48515 56007 82478 333 10298 555 91016;EQDQ01  00002PRCP99
0224680100999992000012106004-19180+015920FM-12+110099999V0201301N005112200019N0750001N1+02211+01651999999ADDAA199000091GF101991011001999999081001KA1240M+02981KA2120N+01621MA1999999089251MD1310121+9999ME1315299REMSYN092AAXX  21064 68010 32989 11310 10221 20165 38925 48529 53012 81080 333 20162 555 10298 91018;EQDQ01  00002PRCP99
0205680100999992000012112004-19180+015920FM-12+110099999V0200501N006210450019N0750001N1+02921+01671999999ADDAA199000091GF106991041071017501061001KA1120N+01621MA1999999089061MD1810131+9999ME1315169REMSYN086AAXX  21124 68010 32789 60512 10292 20167 38906 48516 58013 84760 333 20162 555 91016;EQDQ01  00002PRCP99
0143680100999992000012118004-19180+015920FM-12+110099999V0209999C000012200019N0750001N1+02761+01561999999ADDAA199000091GF104991999999999999999999KA1120M+02851REMSYN062AAXX  21184 68010 32989 40000 10276 20156 333 10285 555 91016;EQDQ01  00002PRCP99
0245680100999992000012206004-19180+015920FM-12+110099999V0201301N002110450019N0750001N1+02081+01711999999ADDAA124000191AY151061AY201061GF106991041051022501071001KA1240M+03161KA2120N+01621MA1999999089031MD1310101+9999ME1315069MW1031REMSYN110AAXX  22064 68010 11889 61304 10208 20171 38903 48506 53010 69914 70350 84570 333 20162 555 10316 20001 91016;
0205680100999992000012212004-19180+015920FM-12+110099999V0200501N002110150019N0750001N1+02831+01651999999ADDAA199000091GF105991051021017501081001KA1120N+01621MA1999999088841MD1810111+9999ME1314929REMSYN086AAXX  22124 68010 32789 50504 10283 20165 38884 48492 58011 85280 333 20162 555 91014;EQDQ01  00002PRCP99
0233680100999992000012218004-19180+015920FM-12+110099999V0200501N002112200019N0750001N1+02681+01571999999ADDAA199000091AY121061AY221061GF103991021091017501081021KA1120M+03091MA1999999088631MD1510071+9999ME1314699MW1131REMSYN092AAXX  22184 68010 31789 30504 10268 20157 38863 48469 55007 71322 82982 333 10309 555 91011;EQDQ01  00002PRCP99
0221680100999992000012312004-19180+015920FM-12+110099999V0202101N007212200019N0750001N1+02781+99999999999ADDAA199000091GF104991021021022501031001KA1120N+02361MA1999999088761MD1810131+9999ME1314839REMSYN086AAXX  23124 68010 32889 42114 10278 21268 38876 48483 58013 82230 333 20236 555 91013;EQDQ01  00002PRCP99Q02 -02683ATOD  
0221680100999992000012318004-19180+015920FM-12+110099999V0209999C000010450019N0750001N1+02641+01862999999ADDAA199000091GF106991041091017501061001KA1120M+02931MA1999999088601MD1310051+9999ME1314669REMSYN086AAXX  23184 68010 32789 60000 10264 20186 38860 48466 53005 84960 333 10293 555 91011;EQDQ01+001863ATOD  Q02  00002PRCP99
0224680100999992000012406004-19180+015920FM-12+110099999V0209999C000019999999N0750001N1+01981+01181999999ADDAA199000091GF105991051001999999081001KA1240M+02931KA2120N+01441MA1999999088871MD1310121+9999ME1314879REMSYN092AAXX  24064 68010 32989 50000 10198 20118 38887 48487 53012 85080 333 20144 555 10293 91014;EQDQ01  00002PRCP99
0239680100999992000012412004-19180+015920FM-12+110099999V0203601N007211050019N0750001N1+02371+02061999999ADDAA106000191AY111061AY211061GF106991021051008001001051KA1120N+01851MA1999999088821MD1810151+9999ME1314859MW1221REMSYN098AAXX  24124 68010 11589 63614 10237 20206 38882 48485 58015 69911 72211 82505 333 20185 555 91013;EQDQ01+000002PRSWM1
0220680100999992000012418004-19180+015920FM-12+110099999V0209999C000012200019N0750001N1+02731+01741999999ADDAA112000791AY151061AY201061GF104991011091022501071041KA1120M+02921MA1999999088691MD1510081+9999ME1314759MW1131REMSYN098AAXX  24184 68010 11889 40000 10273 20174 38869 48475 55008 69902 71350 81974 333 10292 555 91012;
0205680100999992000012512004-19180+015920FM-12+110099999V0209999C000012200019N0750001N1+03001+01421999999ADDAA199000091GF103991021021022501001051KA1120N+01761MA1999999088911MD1810211+9999ME1315009REMSYN086AAXX  25124 68010 32889 30000 10300 20142 38891 48500 58021 82205 333 20176 555 91014;EQDQ01  00002PRCP99
0233680100999992000012518004-19180+015920FM-12+110099999V0209999C000012200019N0750001N1+02851+01481999999ADDAA199000091AY101061AY201061GF104991011091022501001051KA1120M+03231MA1999999088731MD1510081+9999ME1314809MW1131REMSYN092AAXX  25184 68010 31889 40000 10285 20148 38873 48480 55008 71300 81905 333 10323 555 91012;EQDQ01  00002PRCP99
0224680100999992000012606004-19180+015920FM-12+110099999V0202301N002112200019N0750001N1+01891+01251999999ADDAA199000091GF103991011001999999041051KA1240M+03231KA2120N+01541MA1999999089091MD1310081+9999ME1315119REMSYN092AAXX  26064 68010 32989 32304 10189 20125 38909 48511 53008 81045 333 20154 555 10323 91016;EQDQ01  00002PRCP99
0205680100999992000012612004-19180+015920FM-12+110099999V0200501N002112200019N0750001N1+03171+01171999999ADDAA199000091GF104991021021017501001051KA1120N+01741MA1999999088931MD1810171+9999ME1315049REMSYN086AAXX  26124 68010 32789 40504 10317 20117 38893 48504 58017 82205 333 20174 555 91015;EQDQ01  00002PRCP99
0224680100999992000012706004-19180+015920FM-12+110099999V0209999C000012200019N0750001N1+01921+01121999999ADDAA199000091GF103991001001999999001051KA1240M+03371KA2120N+01521MA1999999089041MD1310121+9999ME1315069REMSYN092AAXX  27064 68010 32989 30000 10192 20112 38904 48506 53012 80005 333 20152 555 10337 91016;EQDQ01  00002PRCP99
0205680100999992000012712004-19180+015920FM-12+110099999V0202301N002112200019N0750001N1+03291+00811999999ADDAA199000091GF103991011021017501001051KA1120N+01741MA1999999088911MD1010161+9999ME1315039REMSYN086AAXX  27124 68010 32789 32304 10329 20081 38891 48503 50016 81205 333 20174 555 91014;EQDQ01  00002PRCP99
0205680100999992000012718004-19180+015920FM-12+110099999V0209999C000012200019N0750001N1+02921+00871999999ADDAA199000091GF103991001001999999001051KA1120M+03391MA1999999088731MD1510061+9999ME1314819REMSYN086AAXX  27184 68010 32989 30000 10292 20087 38873 48481 55006 80005 333 10339 555 91012;EQDQ01  00002PRCP99
0224680100999992000012806004-19180+015920FM-12+110099999V0202301N001512200019N0750001N1+01841+00981999999ADDAA199000091GF104991001001999999001051KA1240M+03391KA2120N+01321MA1999999088961MD1310071+9999ME1314979REMSYN092AAXX  28064 68010 32989 42303 10184 20098 38896 48497 53007 80005 333 20132 555 10339 91015;EQDQ01  00002PRCP99
0205680100999992000012812004-19180+015920FM-12+110099999V0202301N002112200019N0750001N1+03071+00551999999ADDAA199000091GF101991001001999999001061KA1120N+01681MA1999999088821MD1810161+9999ME1314919REMSYN086AAXX  28124 68010 32989 12304 10307 20055 38882 48491 58016 80006 333 20168 555 91013;EQDQ01  00002PRCP99
0205680100999992000012818004-19180+015920FM-12+110099999V0209999C000012200019N0750001N1+02841+00661999999ADDAA199000091GF101991001001999999001061KA1120M+03381MA1999999088671MD1510061+9999ME1314749REMSYN086AAXX  28184 68010 32989 10000 10284 20066 38867 48474 55006 80006 333 10338 555 91012;EQDQ01  00002PRCP99
0234680100999992000012906004-19180+015920FM-12+110099999V0202701N001512200019N0750001N1+01871+00961999999ADDAA199000091GA1001+999999999GF100991001001999999001001KA1240M+03381KA2120N+01361MA1999999089001MD1310191+9999ME1315019REMSYN086AAXX  29064 68010 32989 02703 10187 20096 38900 48501 53019 333 20136 555 10338 91015;EQDQ01  00002PRCP99
0205680100999992000012912004-19180+015920FM-12+110099999V0202301N002112200019N0750001N1+03241+00631999999ADDAA199000091GF101991001001999999001051KA1120N+01721MA1999999088861MD1010141+9999ME1314979REMSYN086AAXX  29124 68010 32989 12304 10324 20063 38886 48497 50014 80005 333 20172 555 91014;EQDQ01  00002PRCP99
0205680100999992000012918004-19180+015920FM-12+110099999V0209999C000012200019N0750001N1+03051+00961999999ADDAA199000091GF103991011001999999031051KA1120M+03391MA1999999088741MD1510051+9999ME1314839REMSYN086AAXX  29184 68010 32989 30000 10305 20096 38874 48483 55005 81035 333 10339 555 91013;EQDQ01  00002PRCP99
0205680100999992000013012004-19180+015920FM-12+110099999V0203101N002112200019N0750001N1+03401+00381999999ADDAA199000091GF101991001001999999001021KA1120N+01891MA1999999088941MD1010181+9999ME1315079REMSYN086AAXX  30124 68010 32989 13104 10340 20038 38894 48507 50018 80002 333 20189 555 91015;EQDQ01  00002PRCP99
0215680100999992000013018004-19180+015920FM-12+110099999V0209999C000012200019N0750001N1+03081+00601999999ADDAA199000091GA1001+999999999GF100991001001999999001001KA1120M+03571MA1999999088801MD1510041+9999ME1314909REMSYN080AAXX  30184 68010 32989 00000 10308 20060 38880 48490 55004 333 10357 555 91013;EQDQ01  00002PRCP99
0224680100999992000013106004-19180+015920FM-12+110099999V0201301N001512200019N0750001N1+01951+00201999999ADDAA199000091GF101991001001999999001021KA1240M+03571KA2120N+01591MA1999999089081MD1310111+9999ME1315119REMSYN092AAXX  31064 68010 32989 11303 10195 20020 38908 48511 53011 80002 333 20159 555 10357 91016;EQDQ01  00002PRCP99
0215680100999992000013112004-19180+015920FM-12+110099999V0201301N002112200019N0750001N1+03591+00351999999ADDAA199000091GA1001+999999999GF100991001001999999001001KA1120N+01791MA1999999088931MD1610191+9999ME1315089REMSYN080AAXX  31124 68010 32989 01304 10359 20035 38893 48508 56019 333 20179 555 91015;EQDQ01  00002PRCP99
0205680100999992000013118004-19180+015920FM-12+110099999V0209999C000012200019N0750001N1+03151+00521999999ADDAA199000091GF102991011001999999031061KA1120M+03721MA1999999088771MD1510061+9999ME1314889REMSYN086AAXX  31184 68010 32989 20000 10315 20052 38877 48488 55006 81036 333 10372 555 91013;EQDQ01  00002PRCP99
0224680100999992000020106004-19180+015920FM-12+110099999V0209999C000012200019N0750001N1+01991+00631999999ADDAA199000091GF103991021001999999031051KA1240M+03721KA2120N+01621MA1999999089011MD1310121+9999ME1315059REMSYN092AAXX  01064 68010 32989 30000 10199 20063 38901 48505 53012 82035 333 20162 555 10372 91016;EQDQ01  00002PRCP99
0205680100999992000020118004-19180+015920FM-12+110099999V0209999C000012200019N0750001N1+03201+00841999999ADDAA199000091GF103991021001999999061061KA1120M+03781MA1999999088741MD1510051+9999ME1314869REMSYN086AAXX  01184 68010 32989 30000 10320 20084 38874 48486 55005 82066 333 10378 555 91013;EQDQ01  00002PRCP99
0224680100999992000020206004-19180+015920FM-12+110099999V0202301N002112200019N0750001N1+02041+00171999999ADDAA199000091GF102991011001999999081061KA1240M+03781KA2120N+01591MA1999999088981MD1310121+9999ME1315029REMSYN092AAXX  02064 68010 32989 22304 10204 20017 38898 48502 53012 81086 333 20159 555 10378 91015;EQDQ01  00002PRCP99
0205680100999992000020212004-19180+015920FM-12+110099999V0201301N002112200019N0750001N1+03521+00151999999ADDAA199000091GF101991011011022501001001KA1120N+01861MA1999999088871MD1810181+9999ME1315029REMSYN086AAXX  02124 68010 32889 11304 10352 20015 38887 48502 58018 81100 333 20186 555 91014;EQDQ01  00002PRCP99
0205680100999992000020218004-19180+015920FM-12+110099999V0209999C000012200019N0750001N1+03221+00591999999ADDAA199000091GF103991021001999999061051KA1120M+03741MA1999999088641MD1510041+9999ME1314759REMSYN086AAXX  02184 68010 32989 30000 10322 20059 38864 48475 55004 82065 333 10374 555 91011;EQDQ01  00002PRCP99
0224680100999992000020306004-19180+015920FM-12+110099999V0201301N005112200019N0750001N1+01941+00851999999ADDAA199000091GF101991001001999999001081KA1240M+03741KA2120N+01551MA1999999089001MD1310081+9999ME1315049REMSYN092AAXX  03064 68010 32989 11310 10194 20085 38900 48504 53008 80008 333 20155 555 10374 91015;EQDQ01  00002PRCP99
0205680100999992000020312004-19180+015920FM-12+110099999V0200501N002112200019N0750001N1+03441+00811999999ADDAA199000091GF101991011021017501001001KA1120N+01741MA1999999088921MD1810141+9999ME1315069REMSYN086AAXX  03124 68010 32789 10504 10344 20081 38892 48506 58014 81200 333 20174 555 91015;EQDQ01  00002PRCP99
0205680100999992000020318004-19180+015920FM-12+110099999V0200501N002112200019N0750001N1+03201+00901999999ADDAA199000091GF103991021001999999061061KA1120M+03661MA1999999088701MD1510061+9999ME1314819REMSYN086AAXX  03184 68010 32989 30504 10320 20090 38870 48481 55006 82066 333 10366 555 91012;EQDQ01  00002PRCP99
0217680100999992000020406004-19180+015920FM-12+110099999V0202301N001512200019N0750001N1+02371+00911999999ADDAA124000091GF104991041001999999081001KA1240M+03661KA2120N+02101MA1999999089111MD1310121+9999ME1315209REMSYN104AAXX  04064 68010 12989 42303 10237 20091 38911 48520 53012 69904 84080 333 20210 555 10366 20000 91017;
0205680100999992000020412004-19180+015920FM-12+110099999V0200501N004110450019N0750001N1+03381+01291999999ADDAA199000091GF105991041021017501031001KA1120N+02331MA1999999088991MD1810141+9999ME1315159REMSYN086AAXX  04124 68010 32789 50508 10338 20129 38899 48515 58014 84230 333 20233 555 91015;EQDQ01  00002PRCP99
0233680100999992000020418004-19180+015920FM-12+110099999V0201301N003110450019N0750001N1+02701+01411999999ADDAA199000091AY191061AY221061GF106991041091017501061001KA1120M+03441MA1999999088891MD1310081+9999ME1314999MW1131REMSYN092AAXX  04184 68010 31789 61306 10270 20141 38889 48499 53008 71392 84960 333 10344 555 91014;EQDQ01  00002PRCP99
0217680100999992000020506004-19180+015920FM-12+110099999V0200501N002119999999N0750001N1+02221+01521999999ADDAA124000391GF105991041001999999071051KA1240M+03441KA2120N+02151MA1999999088951MD1310041+9999ME1315029REMSYN104AAXX  05064 68010 12989 50504 10222 20152 38895 48502 53004 69934 84075 333 20215 555 10344 20003 91015;
0205680100999992000020512004-19180+015920FM-12+110099999V0200501N005112200019N0750001N1+03411+01331999999ADDAA199000091GF104991031021017501001051KA1120N+02221MA1999999088851MD1810141+9999ME1315009REMSYN086AAXX  05124 68010 32789 40510 10341 20133 38885 48500 58014 83205 333 20222 555 91014;EQDQ01  00002PRCP99
0233680100999992000020518004-19180+015920FM-12+110099999V0209999C000010450019N0750001N1+02621+01561999999ADDAA199000091AY191061AY221061GF107991011091017501061001KA1120M+03531MA1999999088691MD1210081+9999ME1314779MW1151REMSYN092AAXX  05184 68010 31789 70000 10262 20156 38869 48477 52008 71592 81960 333 10353 555 91012;EQDQ01  00002PRCP99
0224680100999992000020606004-19180+015920FM-12+110099999V0203101N001510450019N0750001N1+02261+01601999999ADDAA199000091GF105991011051017501071001KA1240M+03531KA2120N+02211MA1999999088911MD1310101+9999ME1314989REMSYN092AAXX  06064 68010 32789 53103 10226 20160 38891 48498 53010 81570 333 20221 555 10353 91014;EQDQ01  00002PRCP99
0205680100999992000020612004-19180+015920FM-12+110099999V0209999C000012200019N0750001N1+03381+01331999999ADDAA199000091GF104991031021017501001051KA1120N+02241MA1999999088791MD1810201+9999ME1314939REMSYN086AAXX  06124 68010 32789 40000 10338 20133 38879 48493 58020 83205 333 20224 555 91013;EQDQ01  00002PRCP99
0205680100999992000020712004-19180+015920FM-12+110099999V0202301N002112200019N0750001N1+03491+01111999999ADDAA199000091GF104991031021017501001081KA1120N+02071MA1999999088801MD1010151+9999ME1314959REMSYN086AAXX  07124 68010 32789 42304 10349 20111 38880 48495 50015 83208 333 20207 555 91013;EQDQ01  00002PRCP99
0192680100999992000020718004-19180+015920FM-12+110099999V0209999C000010450019N0750001N1+02551+01541999999ADDAA112000791GF105991011091022501061051KA1120M+03561MA1999999088731MD1510101+9999ME1314819REMSYN092AAXX  07184 68010 12889 50000 10255 20154 38873 48481 55010 69902 81965 333 10356 555 91012;
0217680100999992000020806004-19180+015920FM-12+110099999V0202301N002112200019N0750001N1+02051+00971999999ADDAA124000191GF103991011001999999041051KA1240M+03561KA2120N+01881MA1999999088911MD1310081+9999ME1314969REMSYN104AAXX  08064 68010 12989 32304 10205 20097 38891 48496 53008 69914 81045 333 20188 555 10356 20001 91014;
0205680100999992000020812004-19180+015920FM-12+110099999V0203601N005112200019N0750001N1+03351+01101999999ADDAA199000091GF103991011021022501001051KA1120N+02041MA1999999088721MD1810231+9999ME1314869REMSYN086AAXX  08124 68010 32889 33610 10335 20110 38872 48486 58023 81205 333 20204 555 91012;EQDQ01  00002PRCP99
0205680100999992000020818004-19180+015920FM-12+110099999V0202301N002110450019N0750001N1+02671+01521999999ADDAA199000091GF105991031071017501091001KA1120M+03521MA1999999088641MD1510081+9999ME1314729REMSYN086AAXX  08184 68010 32789 52304 10267 20152 38864 48472 55008 83790 333 10352 555 91011;EQDQ01  00002PRCP99
0217680100999992000020906004-19180+015920FM-12+110099999V0209999C000012200019N0750001N1+02011+01371999999ADDAA124002491GF104991041001999999031001KA1240M+03521KA2120N+01861MA1999999088781MD1310061+9999ME1314829REMSYN104AAXX  09064 68010 12989 40000 10201 20137 38878 48482 53006 60024 84030 333 20186 555 10352 20024 91013;
0205680100999992000020912004-19180+015920FM-12+110099999V0202301N005112200019N0750001N1+03551+00931999999ADDAA199000091GF105991031021022501001061KA1120N+01981MA1999999088611MD1810181+9999ME1314769REMSYN086AAXX  09124 68010 32889 52310 10355 20093 38861 48476 58018 83206 333 20198 555 91011;EQDQ01  00002PRCP99
0205680100999992000020918004-19180+015920FM-12+110099999V0202301N005112200019N0750001N1+03101+00861999999ADDAA199000091GF103991011021017501061061KA1120M+03721MA1999999088441MD1510101+9999ME1314559REMSYN086AAXX  09184 68010 32789 32310 10310 20086 38844 48455 55010 81266 333 10372 555 91009;EQDQ01  00002PRCP99
0221680100999992000021012004-19180+015920FM-12+110099999V0201301N004119999999N0750001N1+03291+01151999999ADDAA199000091GF105991999001999999081001KA1120N+02041MA1999999088611MD1810201+9999ME1314749REMSYN086AAXX  10124 68010 32989 51308 10329 20115 38861 48474 58020 83080 333 20204 555 91011;EQDQ01+000032SCOTLCQ02  00002PRCP99
0233680100999992000021018004-19180+015920FM-12+110099999V0202701N003110450019N0750001N1+03191+00931999999ADDAA199000091AY121061AY221061GF107991031091017501061031KA1120M+03651MA1999999088511MD1310111+9999ME1314639MW1131REMSYN092AAXX  10184 68010 31789 72706 10319 20093 38851 48463 53011 71322 83963 333 10365 555 91010;EQDQ01  00002PRCP99
0224680100999992000021106004-19180+015920FM-12+110099999V0209999C000019999999N0750001N1+02021+00931999999ADDAA199000091GF106991031001999999081061KA1240M+03651KA2120N+01971MA1999999088811MD1310081+9999ME1314869REMSYN092AAXX  11064 68010 32989 60000 10202 20093 38881 48486 53008 83086 333 20197 555 10365 91013;EQDQ01  00002PRCP99
0191680100999992000021112004-19180+015920FM-12+110099999V0200501N001512200019N0750001N1+03311+01151999999ADDAA199000091GF104991021021017501001061MA1999999088561MD1810231+9999ME1314699REMSYN085AAXX  11124 68010 32789 40503 10331 20115 38856 48469 58023 82206 333 0201 555 91011;EQDQ01  00002PRCP99
0217680100999992000021206004-19180+015920FM-12+110099999V0202301N002112200019N0750001N1+02141+01231999999ADDAA124000091GF104991041001999999031001KA1240M+03661KA2120N+02041MA1999999088671MD1310061+9999ME1314739REMSYN104AAXX  12064 68010 12989 42304 10214 20123 38867 48473 53006 69904 84030 333 20204 555 10366 20000 91012;
0205680100999992000021212004-19180+015920FM-12+110099999V0202701N002112200019N0750001N1+03441+00921999999ADDAA199000091GF104991031021017501001051KA1120N+02131MA1999999088431MD1810251+9999ME1314569REMSYN086AAXX  12124 68010 32789 42704 10344 20092 38843 48456 58025 83205 333 20213 555 91009;EQDQ01  00002PRCP99
0205680100999992000021218004-19180+015920FM-12+110099999V0202701N001510450019N0750001N1+02581+01791999999ADDAA199000091GF106991031071022501081001KA1120M+03511MA1999999088411MD1510181+9999ME1314489REMSYN086AAXX  12184 68010 32889 62703 10258 20179 38841 48448 55018 83780 333 10351 555 91009;EQDQ01  00002PRCP99
0217680100999992000021306004-19180+015920FM-12+110099999V0209999C000010450019N0750001N1+02091+01151999999ADDAA124000091GF105991011091022501071001KA1240M+03511KA2120N+02081MA1999999088801MD1310181+9999ME1314859REMSYN104AAXX  13064 68010 12889 50000 10209 20115 38880 48485 53018 69904 81970 333 20208 555 10351 20000 91013;
0217680100999992000021406004-19180+015920FM-12+110099999V0209999C000019999999N0750001N1+02151+00951999999ADDAA124000091GF106991051001999999071081KA1240M+03231KA2120N+02141MA1999999088871MD1310121+9999ME1314929REMSYN104AAXX  14064 68010 12989 60000 10215 20095 38887 48492 53012 69904 85078 333 20214 555 10323 20000 91014;
0205680100999992000021412004-19180+015920FM-12+110099999V0202701N006212200019N0750001N1+03241+00511999999ADDAA199000091GF103991021021022501001031KA1120N+02141MA1999999088631MD1810261+9999ME1314759REMSYN086AAXX  14124 68010 32889 32712 10324 20051 38863 48475 58026 82203 333 20214 555 91011;EQDQ01  00002PRCP99
0205680100999992000021512004-19180+015920FM-12+110099999V0201301N002110150019N0750001N1+02731+01281999999ADDAA199000091GF107991061051017501081001KA1120N+02151MA1999999088651MD1810171+9999ME1314739REMSYN086AAXX  15124 68010 32789 71304 10273 20128 38865 48473 58017 86580 333 20215 555 91012;EQDQ01  00002PRCP99
0192680100999992000021612004-19180+015920FM-12+110099999V0202301N002110150019N0750001N1+02921+01561999999ADDAA199000091GF106991061021017501001001MA1999999088591MD1810211+9999ME1314659REMSYN086AAXX  16124 68010 32789 62304 10292 20156 38859 48465 58021 86200 333 20/// 555 91011;EQDQ01  00002PRCP99
0220680100999992000021618004-19180+015920FM-12+110099999V0202701N002110450019N0650001N1+02071+02011999999ADDAA112009991AY161061AY261061GF108991011091004501021999KA1120M+02971MA1999999088621MD1510101+9999ME1314659MW1201REMSYN098AAXX  16184 68010 11487 82704 10207 20201 38862 48465 55010 60102 72066 8192/ 333 10297 555 91011;
0203680100999992000021712004-19180+015920FM-12+110099999V0202701N002110450019N0700001N1+02641+01621999999ADDAY151061AY201061GF106991041071017501091061KA1120N+01611MA1999999088481MD1810181+9999ME1314549MW1031REMSYN092AAXX  17124 68010 41788 62704 10264 20162 38848 48454 58018 70350 84796 333 20161 555 91010;
0214680100999992000021718004-19180+015920FM-12+110099999V0209999C000010450019N0650001N1+02141+01941999999ADDAA199000021AY121061AY221061GF107991011041012501071999KA1120M+02701MA1999999088501MD1510171+9999ME1314539MW1211REMSYN092AAXX  17184 68010 31687 70000 10214 20194 38850 48453 55017 72122 8147/ 333 10270 555 91010;
0233680100999992000021812004-19180+015920FM-12+110099999V0202301N002110450019N0700001N1+02341+01261999999ADDAA199000091AY151061AY201061GF107991041071017501071001KA1120N+01641MA1999999088661MD1010141+9999ME1314699MW1031REMSYN092AAXX  18124 68010 31788 72304 10234 20126 38866 48469 50014 70350 84770 333 20164 555 91012;EQDQ01  00002PRCP99
0205680100999992000021818004-19180+015920FM-12+110099999V0209999C000010450019N0650001N1+02281+01621999999ADDAA199000091GF108991021041012501081021KA1120M+02441MA1999999088621MD1310081+9999ME1314669REMSYN086AAXX  18184 68010 32687 80000 10228 20162 38862 48466 53008 82482 333 10244 555 91011;EQDQ01  00002PRCP99
0224680100999992000021906004-19180+015920FM-12+110099999V0209999C000010075019N0750001N1+01941+01551999999ADDAA199000091GF107991071051008001999999KA1240M+02441KA2120N+01911MA1999999088851MD1310051+9999ME1314859REMSYN092AAXX  19064 68010 32589 70000 10194 20155 38885 48485 53005 875// 333 20191 555 10244 91014;EQDQ01  00002PRCP99
0205680100999992000021912004-19180+015920FM-12+110099999V0200501N002110150019N0750001N1+02601+01661999999ADDAA199000091GF107991071041017501001001KA1120N+01951MA1999999088831MD1810141+9999ME1314889REMSYN086AAXX  19124 68010 32789 70504 10260 20166 38883 48488 58014 87400 333 20195 555 91014;EQDQ01  00002PRCP99
0205680100999992000021918004-19180+015920FM-12+110099999V0209999C000010150019N0550001N1+02601+01851999999ADDAA199000091GF106991061011017501001001KA1120M+02801MA1999999088741MD1310021+9999ME1314809REMSYN086AAXX  19184 68010 32785 60000 10260 20185 38874 48480 53002 86100 333 10280 555 91013;EQDQ01  00002PRCP99
0224680100999992000022006004-19180+015920FM-12+110099999V0202301N002110150019N0650001N1+01691+01441999999ADDAA199000091GF107991071041017501001001KA1240M+02861KA2120N+01561MA1999999089061MD1310041+9999ME1315059REMSYN092AAXX  20064 68010 32787 72304 10169 20144 38906 48505 53004 87400 333 20156 555 10286 91016;EQDQ01  00002PRCP99
0205680100999992000022012004-19180+015920FM-12+110099999V0203601N003110150019N0700001N1+02791+01731999999ADDAA199000091GF106991061021017501001011KA1120N+01751MA1999999088951MD1610161+9999ME1315039REMSYN086AAXX  20124 68010 32788 63606 10279 20173 38895 48503 56016 86201 333 20175 555 91015;EQDQ01  00002PRCP99
0205680100999992000022018004-19180+015920FM-12+110099999V0209999C000012200019N0750001N1+02471+01801999999ADDAA199000091GF103991021011022501001041KA1120M+02861MA1999999088731MD1510061+9999ME1314779REMSYN086AAXX  20184 68010 32889 30000 10247 20180 38873 48477 55006 82104 333 10286 555 91012;EQDQ01  00002PRCP99
0224680100999992000022106004-19180+015920FM-12+110099999V0202301N002112200019N0750001N1+01871+01561999999ADDAA199000091GF103991021051017501001051KA1240M+02861KA2120N+01781MA1999999088951MD1310101+9999ME1314959REMSYN092AAXX  21064 68010 32789 32304 10187 20156 38895 48495 53010 82505 333 20178 555 10286 91015;EQDQ01  00002PRCP99
0205680100999992000022118004-19180+015920FM-12+110099999V0201301N002112200019N0750001N1+02531+01851999999ADDAA199000091GF104991021041012501081001KA1120M+03181MA1999999088811MD1510171+9999ME1314879REMSYN086AAXX  21184 68010 32689 41304 10253 20185 38881 48487 55017 82480 333 10318 555 91013;EQDQ01  00002PRCP99
0224680100999992000022206004-19180+015920FM-12+110099999V0209999C000012200019N0750001N1+01841+01341999999ADDAA199000091GF104991031001999999071051KA1240M+03181KA2120N+01711MA1999999089031MD1310101+9999ME1315039REMSYN092AAXX  22064 68010 32989 40000 10184 20134 38903 48503 53010 83075 333 20171 555 10318 91016;EQDQ01  00002PRCP99
0205680100999992000022212004-19180+015920FM-12+110099999V0201301N001512200019N0750001N1+02901+01151999999ADDAA199000091GF104991011021022501031061KA1120N+01821MA1999999088551MD1810161+9999ME1314639REMSYN086AAXX  22124 68010 32889 41303 10290 20115 38855 48463 58016 81236 333 20182 555 91010;EQDQ01  00002PRCP99
0205680100999992000022218004-19180+015920FM-12+110099999V0201301N005112200019N0750001N1+02821+01621999999ADDAA199000091GF104991021001999999081021KA1120M+03371MA1999999088661MD1510101+9999ME1314749REMSYN086AAXX  22184 68010 32989 41310 10282 20162 38866 48474 55010 82082 333 10337 555 91012;EQDQ01  00002PRCP99
0224680100999992000022306004-19180+015920FM-12+110099999V0209999C000012200019N0750001N1+02081+01481999999ADDAA199000091GF103991021001999999031061KA1240M+03371KA2120N+02021MA1999999088881MD1310081+9999ME1314929REMSYN092AAXX  23064 68010 32989 30000 10208 20148 38888 48492 53008 82036 333 20202 555 10337 91014;EQDQ01  00002PRCP99
0205680100999992000022312004-19180+015920FM-12+110099999V0209999C000012200019N0750001N1+03241+00971999999ADDAA199000091GF104991021021017501031001KA1120N+02041MA1999999088631MD1810221+9999ME1314759REMSYN086AAXX  23124 68010 32789 40000 10324 20097 38863 48475 58022 82230 333 20204 555 91011;EQDQ01  00002PRCP99
0205680100999992000022318004-19180+015920FM-12+110099999V0202301N002119999999N0750001N1+03141+00371999999ADDAA199000091GF105991041001999999081031KA1120M+03471MA1999999088421MD1510081+9999ME1314529REMSYN086AAXX  23184 68010 32989 52304 10314 20037 38842 48452 55008 84083 333 10347 555 91009;EQDQ01  00002PRCP99
0224680100999992000022406004-19180+015920FM-12+110099999V0209999C000019999999N0750001N1+02141+01461999999ADDAA199000091GF106991061001999999081001KA1240M+03471KA2120N+02121MA1999999088791MD1310141+9999ME1314849REMSYN092AAXX  24064 68010 32989 60000 10214 20146 38879 48484 53014 86080 333 20212 555 10347 91013;EQDQ01  00002PRCP99
0205680100999992000022412004-19180+015920FM-12+110099999V0200501N002110450019N0750001N1+02951+01331999999ADDAA199000091GF105991031021022501031061KA1120N+02121MA1999999088671MD1010141+9999ME1314779REMSYN086AAXX  24124 68010 32889 50504 10295 20133 38867 48477 50014 83236 333 20212 555 91012;EQDQ01  00002PRCP99
0233680100999992000022418004-19180+015920FM-12+110099999V0209999C000010450019N0750001N1+02921+01361999999ADDAA199000091AY121061AY201061GF105991011091012501081001KA1120M+03191MA1999999088651MD1510121+9999ME1314759MW1131REMSYN092AAXX  24184 68010 31689 50000 10292 20136 38865 48475 55012 71320 81980 333 10319 555 91012;EQDQ01  00002PRCP99
0217680100999992000022506004-19180+015920FM-12+110099999V0202301N002110450019N0750001N1+01961+01611999999ADDAA124002491GF105991031041022501071081KA1240M+03191KA2120N+01891MA1999999088831MD1310041+9999ME1314859REMSYN104AAXX  25064 68010 12889 52304 10196 20161 38883 48485 53004 60024 83478 333 20189 555 10319 20024 91014;
0221680100999992000022512004-19180+015920FM-12+110099999V0201301N001512200019N0750001N1+02981+01821999999ADDAA199000091GF103991021021022501001021KA1120N+01951MA1999999100082MD1810121+9999ME1315709REMSYN086AAXX  25124 68010 32889 31303 10298 20182 30008 48570 58012 82202 333 20195 555 91139;EQDQ01+100083APOSP Q02  00002PRCP99
0217680100999992000022606004-19180+015920FM-12+110099999V0202301N003112200019N0750001N1+01951+01481999999ADDAA124005891GF102991021001999999081001KA1240M+03171KA2120N+01811MA1999999088821MD1410001+9999ME1314839REMSYN104AAXX  26064 68010 12989 22306 10195 20148 38882 48483 54000 60064 82080 333 20181 555 10317 20058 91013;
0205680100999992000022612004-19180+015920FM-12+110099999V0201801N005112200019N0750001N1+03131+01461999999ADDAA199000091GF103991021021022501001091KA1120N+01601MA1999999088581MD1810181+9999ME1314689REMSYN086AAXX  26124 68010 32889 31810 10313 20146 38858 48468 58018 82209 333 20160 555 91011;EQDQ01  00002PRCP99
0217680100999992000022706004-19180+015920FM-12+110099999V0202301N002111050019N0750001N1+02161+01591999999ADDAA124000091GF106991021061022501081031KA1240M+03261KA2120N+01781MA1999999088581MD1310121+9999ME1314619REMSYN104AAXX  27064 68010 12889 62304 10216 20159 38858 48461 53012 69904 82683 333 20178 555 10326 20000 91011;
0220680100999992000022718004-19180+015920FM-12+110099999V0201301N005110450019N0750001N1+02691+01821999999ADDAA112000791AY161061AY221061GF106991021091012501081001KA1120M+03221MA1999999088351MD1510141+9999ME1314429MW1131REMSYN098AAXX  27184 68010 11689 61310 10269 20182 38835 48442 55014 69902 71362 82980 333 10322 555 91008;
0217680100999992000022806004-19180+015920FM-12+110099999V0209999C000019999999N0750001N1+01941+01301999999ADDAA124000291GF105991041001999999081051KA1240M+03221KA2120N+01601MA1999999088721MD1310151+9999ME1314739REMSYN104AAXX  28064 68010 12989 50000 10194 20130 38872 48473 53015 69924 84085 333 20160 555 10322 20002 91012;
0205680100999992000022812004-19180+015920FM-12+110099999V0202301N002112200019N0750001N1+03101+01461999999ADDAA199000091GF104991041021017501001001KA1120N+01611MA1999999088631MD1310151+9999ME1314729REMSYN086AAXX  28124 68010 32789 42304 10310 20146 38863 48472 53015 84200 333 20161 555 91011;EQDQ01  00002PRCP99
0205680100999992000022818004-19180+015920FM-12+110099999V0202301N002112200019N0750001N1+02841+01241999999ADDAA199000091GF104991021041012501081001KA1120M+03261MA1999999088621MD1510121+9999ME1314699REMSYN086AAXX  28184 68010 32689 42304 10284 20124 38862 48469 55012 82480 333 10326 555 91011;EQDQ01  00002PRCP99
0224680100999992000022906004-19180+015920FM-12+110099999V0202301N001519999999N0750001N1+01781+01291999999ADDAA199000091GF105991021001999999071051KA1240M+03261KA2120N+01741MA1999999089031MD1310101+9999ME1315049REMSYN092AAXX  29064 68010 32989 52303 10178 20129 38903 48504 53010 82075 333 20174 555 10326 91016;EQDQ01  00002PRCP99
0205680100999992000022912004-19180+015920FM-12+110099999V0200501N005110450019N0750001N1+02901+01471999999ADDAA199000091GF105991021021017501081001KA1120N+01911MA1999999088961MD1810141+9999ME1315059REMSYN086AAXX  29124 68010 32789 50510 10290 20147 38896 48505 58014 82280 333 20191 555 91015;EQDQ01  00002PRCP99
0205680100999992000022918004-19180+015920FM-12+110099999V0209999C000012200019N0750001N1+02831+01341999999ADDAA199000091GF104991021041012501081001KA1120M+03101MA1999999088791MD1510041+9999ME1314879REMSYN086AAXX  29184 68010 32689 40000 10283 20134 38879 48487 55004 82480 333 10310 555 91013;EQDQ01  00002PRCP99
0224680100999992000030106004-19180+015920FM-12+110099999V0209999C000012200019N0750001N1+01871+01371999999ADDAA199000091GF104991011001999999081081KA1240M+03101KA2120N+01621MA1999999089101MD1310051+9999ME1315119REMSYN092AAXX  01064 68010 32989 40000 10187 20137 38910 48511 53005 81088 333 20162 555 10310 91017;EQDQ01  00002PRCP99
0205680100999992000030112004-19180+015920FM-12+110099999V0201301N005110450019N0750001N1+03151+01141999999ADDAA199000091GF105991011021017501011051KA1120N+01691MA1999999088911MD1810211+9999ME1315029REMSYN086AAXX  01124 68010 32789 51310 10315 20114 38891 48502 58021 81215 333 20169 555 91014;EQDQ01  00002PRCP99
0205680100999992000030118004-19180+015920FM-12+110099999V0209999C000012200019N0750001N1+02791+00681999999ADDAA199000091GF104991011041017501081001KA1120M+03341MA1999999088691MD1510061+9999ME1314769REMSYN086AAXX  01184 68010 32789 40000 10279 20068 38869 48476 55006 81480 333 10334 555 91012;EQDQ01  00002PRCP99
0224680100999992000030206004-19180+015920FM-12+110099999V0202301N002119999999N0750001N1+01591+00951999999ADDAA199000091GF105991031001999999011061KA1240M+03341KA2120N+01301MA1999999088921MD1310081+9999ME1314909REMSYN092AAXX  02064 68010 32989 52304 10159 20095 38892 48490 53008 83016 333 20130 555 10334 91015;EQDQ01  00002PRCP99
0205680100999992000030212004-19180+015920FM-12+110099999V0201301N002112200019N0750001N1+03281+00291999999ADDAA199000091GF103991001001999999001051KA1120N+01401MA1999999088841MD1710111+9999ME1314949REMSYN086AAXX  02124 68010 32989 31304 10328 20029 38884 48494 57011 80005 333 20140 555 91014;EQDQ01  00002PRCP99
0205680100999992000030218004-19180+015920FM-12+110099999V0209999C000012200019N0750001N1+02741+01501999999ADDAA199000091GF101991001001999999001021KA1120M+03371MA1999999088621MD1510071+9999ME1314689REMSYN086AAXX  02184 68010 32989 10000 10274 20150 38862 48468 55007 80002 333 10337 555 91011;EQDQ01  00002PRCP99
0224680100999992000030306004-19180+015920FM-12+110099999V0202301N001512200019N0750001N1+01651+00551999999ADDAA199000091GF102991001001999999001041KA1240M+03371KA2120N+01411MA1999999088981MD1310101+9999ME1314979REMSYN092AAXX  03064 68010 32989 22303 10165 20055 38898 48497 53010 80004 333 20141 555 10337 91015;EQDQ01  00002PRCP99
0205680100999992000030312004-19180+015920FM-12+110099999V0200501N002112200019N0750001N1+03161+00631999999ADDAA199000091GF102991011011017501001021KA1120N+01471MA1999999088871MD1810141+9999ME1314979REMSYN086AAXX  03124 68010 32789 20504 10316 20063 38887 48497 58014 81102 333 20147 555 91014;EQDQ01  00002PRCP99
0234680100999992000030406004-19180+015920FM-12+110099999V0209999C000012200019N0750001N1+01951+00791999999ADDAA199000091GA1001+999999999GF100991001001999999001001KA1240M+03321KA2120N+01601MA1999999089001MD1310091+9999ME1315019REMSYN086AAXX  04064 68010 32989 00000 10195 20079 38900 48501 53009 333 20160 555 10332 91015;EQDQ01  00002PRCP99
0205680100999992000030412004-19180+015920FM-12+110099999V0200501N004112200019N0750001N1+03301+00861999999ADDAA199000091GF103991031021017501001001KA1120N+01821MA1999999088841MD1810181+9999ME1314969REMSYN086AAXX  04124 68010 32789 30508 10330 20086 38884 48496 58018 83200 333 20182 555 91014;EQDQ01  00002PRCP99
0205680100999992000030418004-19180+015920FM-12+110099999V0201301N003110210019N0750001N1+02651+01421999999ADDAA199000091GF106991061021022501001001KA1120M+03411MA1999999088831MD1310081+9999ME1314909REMSYN086AAXX  04184 68010 32889 61306 10265 20142 38883 48490 53008 86200 333 10341 555 91014;EQDQ01  00002PRCP99
0224680100999992000030506004-19180+015920FM-12+110099999V0209999C000010150019N0750001N1+02331+01571999999ADDAA199000091GF107991071051017501001001KA1240M+03411KA2120N+02071MA1999999088901MD1310051+9999ME1314969REMSYN092AAXX  05064 68010 32789 70000 10233 20157 38890 48496 53005 87500 333 20207 555 10341 91014;EQDQ01  00002PRCP99
0221680100999992000030512004-19180+015920FM-12+110099999V0200101N006212200019N0750001N1+03191+01581999999ADDAA199000091GF103991999021022501001001KA1120N+02321MA1999999088891MD1810201+9999ME1315019REMSYN086AAXX  05124 68010 32889 30112 10319 20158 38889 48501 58020 85200 333 20232 555 91014;EQDQ01+000052SCOTLCQ02  00002PRCP99
0214680100999992000030518004-19180+015920FM-12+110099999V0202301N003110150019N0700001N1+03071+01201999999ADDAA199000021AY121061AY221061GF106991051091017501001041KA1120M+03271MA1999999088891MD1510071+9999ME1315019MW1961REMSYN092AAXX  05184 68010 31788 62306 10307 20120 38889 48501 55007 79622 85904 333 10327 555 91014;
0217680100999992000030606004-19180+015920FM-12+110099999V0209999C000012200019N0750001N1+02151+01811999999ADDAA124019291GF101991011011022501001001KA1240M+03271KA2120N+01761MA1999999089051MD1310011+9999ME1315099REMSYN104AAXX  06064 68010 12889 10000 10215 20181 38905 48509 53001 60194 81100 333 20176 555 10327 20192 91016;
0205680100999992000030612004-19180+015920FM-12+110099999V0200901N006212200019N0750001N1+03111+01241999999ADDAA199000091GF103991031021022501001001KA1120N+01761MA1999999088931MD1810121+9999ME1315049REMSYN086AAXX  06124 68010 32889 30912 10311 20124 38893 48504 58012 83200 333 20176 555 91015;EQDQ01  00002PRCP99
0205680100999992000030618004-19180+015920FM-12+110099999V0209999C000012200019N0750001N1+02931+01771999999ADDAA199000091GF101991001001999999001021KA1120M+03301MA1999999088681MD1510151+9999ME1314779REMSYN086AAXX  06184 68010 32989 10000 10293 20177 38868 48477 55015 80002 333 10330 555 91012;EQDQ01  00002PRCP99
0205680100999992000030712004-19180+015920FM-12+110099999V0200501N006212200019N0750001N1+03161+01421999999ADDAA199000091GF104991041021017501001001KA1120N+01911MA1999999088861MD1810131+9999ME1314979REMSYN086AAXX  07124 68010 32789 40512 10316 20142 38886 48497 58013 84200 333 20191 555 91014;EQDQ01  00002PRCP99
0234680100999992000030806004-19180+015920FM-12+110099999V0209999C000012200019N0750001N1+02161+01661999999ADDAA199000091GA1001+999999999GF100991001001999999001001KA1240M+03331KA2120N+01821MA1999999088971MD1410001+9999ME1315019REMSYN086AAXX  08064 68010 32989 00000 10216 20166 38897 48501 54004 333 20182 555 10333 91015;EQDQ01  00002PRCP99
0205680100999992000030812004-19180+015920FM-12+110099999V0200201N007212200019N0750001N1+03281+01251999999ADDAA199000091GF103991031021017501001001KA1120N+01821MA1999999088841MD1810111+9999ME1314969REMSYN086AAXX  08124 68010 32789 30214 10328 20125 38884 48496 58011 83200 333 20182 555 91014;EQDQ01  00002PRCP99
0234680100999992000030906004-19180+015920FM-12+110099999V0209999C000012200019N0750001N1+02161+01591999999ADDAA199000091GA1001+999999999GF100991001001999999001001KA1240M+03361KA2120N+01751MA1999999089091MD1310061+9999ME1315139REMSYN086AAXX  09064 68010 32989 00000 10216 20159 38909 48513 53006 333 20175 555 10336 91016;EQDQ01  00002PRCP99
0205680100999992000030912004-19180+015920FM-12+110099999V0200501N007212200019N0750001N1+03061+01431999999ADDAA199000091GF104991041021017501001001KA1120N+01751MA1999999088941MD1810111+9999ME1315049REMSYN086AAXX  09124 68010 32789 40514 10306 20143 38894 48504 58011 84200 333 20175 555 91015;EQDQ01  00002PRCP99
0205680100999992000031012004-19180+015920FM-12+110099999V0200501N003112200019N0750001N1+03051+01351999999ADDAA199000091GF104991041021999999001001KA1120N+01861MA1999999088891MD1810191+9999ME1314999REMSYN086AAXX  10124 68010 32989 40506 10305 20135 38889 48499 58019 84200 333 20186 555 91014;EQDQ01  00002PRCP99
0205680100999992000031018004-19180+015920FM-12+110099999V0209999C000012200019N0750001N1+03001+01511999999ADDAA199000091GF104991041001999999081001KA1120M+03321MA1999999088681MD1310151+9999ME1314789REMSYN086AAXX  10184 68010 32989 40000 10300 20151 38868 48478 53015 84080 333 10332 555 91012;EQDQ01  00002PRCP99
0234680100999992000031106004-19180+015920FM-12+110099999V0209999C000012200019N0750001N1+01881+01361999999ADDAA199000091GA1001+999999999GF100991001001999999001001KA1240M+03321KA2120N+01561MA1999999089051MD1310021+9999ME1315069REMSYN086AAXX  11064 68010 32989 00000 10188 20136 38905 48506 53002 333 20156 555 10332 91016;EQDQ01  00002PRCP99
0205680100999992000031112004-19180+015920FM-12+110099999V0201301N002112200019N0750001N1+03151+01041999999ADDAA199000091GF104991041021017501001001KA1120N+01711MA1999999088861MD1810221+9999ME1314969REMSYN086AAXX  11124 68010 32789 41304 10315 20104 38886 48496 58022 84200 333 20171 555 91014;EQDQ01  00002PRCP99
0205680100999992000031118004-19180+015920FM-12+110099999V0209999C000012200019N0750001N1+02921+01021999999ADDAA199000091GF102991021001999999081001KA1120M+03361MA1999999088631MD1610161+9999ME1314719REMSYN086AAXX  11184 68010 32989 20000 10292 20102 38863 48471 56016 82080 333 10336 555 91011;EQDQ01  00002PRCP99
0234680100999992000031206004-19180+015920FM-12+110099999V0209999C000012200019N0750001N1+01961+01171999999ADDAA199000091GA1001+999999999GF100991001001999999001001KA1240M+03361KA2120N+01661MA1999999089051MD1310021+9999ME1315079REMSYN086AAXX  12064 68010 32989 00000 10196 20117 38905 48507 53002 333 20166 555 10336 91016;EQDQ01  00002PRCP99
0205680100999992000031212004-19180+015920FM-12+110099999V0200501N007212200019N0750001N1+03241+01161999999ADDAA199000091GF104991041021022501001001KA1120N+01661MA1999999088901MD1810171+9999ME1315029REMSYN086AAXX  12124 68010 32889 40514 10324 20116 38890 48502 58017 84200 333 20166 555 91014;EQDQ01  00002PRCP99
0205680100999992000031218004-19180+015920FM-12+110099999V0209999C000012200019N0750001N1+02941+01211999999ADDAA199000091GF104991021021022501061001KA1120M+03421MA1999999088711MD1510091+9999ME1314809REMSYN086AAXX  12184 68010 32889 40000 10294 20121 38871 48480 55009 82260 333 10342 555 91012;EQDQ01  00002PRCP99
0217680100999992000031306004-19180+015920FM-12+110099999V0209999C000012200019N0750001N1+02201+01551999999ADDAA124000091GF104991031001999999031021KA1240M+03421KA2120N+01991MA1999999088951MD1310101+9999ME1315009REMSYN104AAXX  13064 68010 12989 40000 10220 20155 38895 48500 53010 69904 83032 333 20199 555 10342 20000 91015;
0214680100999992000031318004-19180+015920FM-12+110099999V0209999C000012200019N0750001N1+02721+01471999999ADDAA199000021AY121061AY211061GF104991011041999999081001KA1120M+03321MA1999999088691MD1510091+9999ME1314779MW1211REMSYN092AAXX  13184 68010 31989 40000 10272 20147 38869 48477 55009 72121 81480 333 10332 555 91012;
0217680100999992000031406004-19180+015920FM-12+110099999V0202301N002112200019N0750001N1+02041+00851999999ADDAA124000091GF104991011001999999071051KA1240M+03321KA2120N+01761MA1999999088771MD1310081+9999ME1314799REMSYN104AAXX  14064 68010 12989 42304 10204 20085 38877 48479 53008 69904 81075 333 20176 555 10332 20000 91013;
0205680100999992000031412004-19180+015920FM-12+110099999V0209999C000012200019N0750001N1+03061+01431999999ADDAA199000091GF103991031021022501001001KA1120N+01761MA1999999088571MD1810141+9999ME1314669REMSYN086AAXX  14124 68010 32889 30000 10306 20143 38857 48466 58014 83200 333 20176 555 91011;EQDQ01  00002PRCP99
0205680100999992000031418004-19180+015920FM-12+110099999V0209999C000012200019N0750001N1+02871+01431999999ADDAA199000091GF103991031001022501081001KA1120M+03461MA1999999088661MD1610111+9999ME1314759REMSYN086AAXX  14184 68010 32889 30000 10287 20143 38866 48475 56011 83080 333 10346 555 91012;EQDQ01  00002PRCP99
0224680100999992000031506004-19180+015920FM-12+110099999V0209999C000012200019N0750001N1+01961+00711999999ADDAA199000091GF104991011031022501061051KA1240M+03461KA2120N+01691MA1999999088681MD1310101+9999ME1314709REMSYN092AAXX  15064 68010 32889 40000 10196 20071 38868 48470 53010 81365 333 20169 555 10346 91012;EQDQ01  00002PRCP99
0205680100999992000031512004-19180+015920FM-12+110099999V0202301N002112200019N0750001N1+03291+01121999999ADDAA199000091GF103991031011017501001001KA1120N+01691MA1999999088501MD1810171+9999ME1314619REMSYN086AAXX  15124 68010 32789 32304 10329 20112 38850 48461 58017 83100 333 20169 555 91010;EQDQ01  00002PRCP99
0205680100999992000031518004-19180+015920FM-12+110099999V0202301N004112200019N0750001N1+03101+00171999999ADDAA199000091GF103991031051022501001001KA1120M+03511MA1999999088841MD1510181+9999ME1314969REMSYN086AAXX  15184 68010 32889 32308 10310 20017 38884 48496 55018 83500 333 10351 555 91014;EQDQ01  00002PRCP99
0224680100999992000031606004-19180+015920FM-12+110099999V0209999C000012200019N0750001N1+01841+00761999999ADDAA199000091GF102991001001999999001081KA1240M+03511KA2120N+01431MA1999999088871MD1310041+9999ME1314889REMSYN092AAXX  16064 68010 32989 20000 10184 20076 38887 48488 53004 80008 333 20143 555 10351 91014;EQDQ01  00002PRCP99
0205680100999992000031612004-19180+015920FM-12+110099999V0201801N002112200019N0750001N1+03051+00171999999ADDAA199000091GF102991001001999999001081KA1120N+01651MA1999999088721MD1810191+9999ME1314809REMSYN086AAXX  16124 68010 32989 21804 10305 20017 38872 48480 58019 80008 333 20165 555 91012;EQDQ01  00002PRCP99
0215680100999992000031618004-19180+015920FM-12+110099999V0209999C000012200019N0750001N1+02841+00681999999ADDAA199000091GA1001+999999999GF100991001001999999001001KA1120M+03321MA1999999088611MD1610181+9999ME1314689REMSYN080AAXX  16184 68010 32989 00000 10284 20068 38861 48468 56018 333 10332 555 91011;EQDQ01  00002PRCP99
0205680100999992000031712004-19180+015920FM-12+110099999V0202301N002112200019N0750001N1+03251+00471999999ADDAA199000091GF101991001001999999001021KA1120N+01361MA1999999088791MD1810191+9999ME1314909REMSYN086AAXX  17124 68010 32989 12304 10325 20047 38879 48490 58019 80002 333 20136 555 91013;EQDQ01  00002PRCP99
0205680100999992000031818004-19180+015920FM-12+110099999V0209999C000012200019N0750001N1+02821+00941999999ADDAA199000091GF102991011051022501001051KA1120M+03471MA1999999088601MD1510081+9999ME1314679REMSYN086AAXX  18184 68010 32889 20000 10282 20094 38860 48467 55008 81505 333 10347 555 91011;EQDQ01  00002PRCP99
0205680100999992000031912004-19180+015920FM-12+110099999V0200501N007212200019N0750001N1+03331+00961999999ADDAA199000091GF103991021001022501021061KA1120N+01791MA1999999088711MD1010181+9999ME1314839REMSYN086AAXX  19124 68010 32889 30514 10333 20096 38871 48483 50018 82026 333 20179 555 91012;EQDQ01  00002PRCP99
0205680100999992000031918004-19180+015920FM-12+110099999V0209999C000012200019N0750001N1+02941+00981999999ADDAA199000091GF102991011001999999081021KA1120M+03471MA1999999088521MD1510061+9999ME1314609REMSYN086AAXX  19184 68010 32989 20000 10294 20098 38852 48460 55006 81082 333 10347 555 91010;EQDQ01  00002PRCP99
0205680100999992000032012004-19180+015920FM-12+110099999V0200501N002112200019N0750001N1+03301+01251999999ADDAA199000091GF104991041021012501001001KA1120N+02041MA1999999088641MD1810181+9999ME1314759REMSYN086AAXX  20124 68010 32689 40504 10330 20125 38864 48475 58018 84200 333 20204 555 91011;EQDQ01  00002PRCP99
0205680100999992000032018004-19180+015920FM-12+110099999V0209999C000012200019N0750001N1+02891+01381999999ADDAA199000091GF104991011041017501081001KA1120M+03321MA1999999088551MD1510101+9999ME1314639REMSYN086AAXX  20184 68010 32789 40000 10289 20138 38855 48463 55010 81480 333 10332 555 91010;EQDQ01  00002PRCP99
0192680100999992000032118004-19180+015920FM-12+110099999V0209999C000012200019N0750001N1+02491+01721999999ADDAA112000791GF103991031001999999081001KA1120M+03321MA1999999088681MD1710151+9999ME1314739REMSYN092AAXX  21184 68010 12989 30000 10249 20172 38868 48473 57015 69902 83080 333 10332 555 91012;
0199680100999992000032212004-19180+015920FM-12+110099999V0200501N008212200019N0550001N1+02871+01881999999ADDAA199000091AY101061AY201061GF105991041091017501001061KA1999N+01861MD1010141+9999MW1171REMSYN082AAXX  22124 68010 31785 50516 10287 20188 3//// 4//// 50014 71700 84906 333 20186;EQDQ01  00002PRCP99
0233680100999992000032218004-19180+015920FM-12+110099999V0201301N002112200019N0750001N1+02441+01841999999ADDAA199000091AY121061AY211061GF104991021091017501081001KA1120M+02921MA1999999088771MD1510081+9999ME1314829MW1131REMSYN092AAXX  22184 68010 31789 41304 10244 20184 38877 48482 55008 71321 82980 333 10292 555 91013;EQDQ01  00002PRCP99
0205680100999992000032312004-19180+015920FM-12+110099999V0200501N003110450019N0750001N1+02521+02001999999ADDAA199000091GF106991031021017501061001KA1120N+01661MA1999999088921MD1810201+9999ME1314969REMSYN086AAXX  23124 68010 32789 60506 10252 20200 38892 48496 58020 83260 333 20166 555 91015;EQDQ01  00002PRCP99
0205680100999992000032318004-19180+015920FM-12+110099999V0201301N002112200019N0750001N1+02301+01971999999ADDAA199000091GF103991011091017501081001KA1120M+02621MA1999999088781MD1510071+9999ME1314829REMSYN086AAXX  23184 68010 32789 31304 10230 20197 38878 48482 55007 81980 333 10262 555 91013;EQDQ01  00002PRCP99
0245680100999992000032406004-19180+015920FM-12+110099999V0200901N003110450019N0750001N1+02121+01731999999ADDAA124003391AY121061AY221061GF105991031021017501091051KA1240M+02621KA2120N+01821MA1999999089001MD1310141+9999ME1315019MW1031REMSYN110AAXX  24064 68010 11789 50906 10212 20173 38900 48501 53014 60034 70322 83295 333 20182 555 10262 20033 91015;
0205680100999992000032412004-19180+015920FM-12+110099999V0200501N006212200019N0750001N1+02691+01991999999ADDAA199000091GF104991031021022501001051KA1120N+01941MA1999999088881MD1810201+9999ME1314949REMSYN086AAXX  24124 68010 32889 40512 10269 20199 38888 48494 58020 83205 333 20194 555 91014;EQDQ01  00002PRCP99
0220680100999992000032418004-19180+015920FM-12+110099999V0203101N002110450019N0650001N1+01991+01771999999ADDAA112001091AY191061AY261061GF108991021091017501081001KA1120M+02841MA1999999088931MD1510221+9999ME1314959MW1951REMSYN098AAXX  24184 68010 11787 83104 10199 20177 38893 48495 55022 60012 79596 82980 333 10284 555 91015;
0205680100999992000032512004-19180+015920FM-12+110099999V0200301N006212200019N0750001N1+02691+01941999999ADDAA199000091GF105991031021017501001061KA1120N+01721MA1999999088911MD1810121+9999ME1314969REMSYN086AAXX  25124 68010 32789 50312 10269 20194 38891 48496 58012 83206 333 20172 555 91014;EQDQ01  00002PRCP99
0233680100999992000032518004-19180+015920FM-12+110099999V0209999C000012200019N0750001N1+02591+02031999999ADDAA199000091AY111061AY201061GF104991021091022501091001KA1120M+02841MA1999999088781MD1510061+9999ME1314849MW1131REMSYN092AAXX  25184 68010 31889 40000 10259 20203 38878 48484 55006 71310 82990 333 10284 555 91013;EQDQ01  00002PRCP99
0245680100999992000032606004-19180+015920FM-12+110099999V0200901N001510042019N0300001N1+01931+01841999999ADDAA124022091AY191061AY261061GF107991071051004501001001KA1240M+02821KA2120N+01711MA1999999088941MD1310101+9999ME1314949MW1021REMSYN110AAXX  26064 68010 11480 70903 10193 20184 38894 48494 53010 60224 70296 87500 333 20171 555 10282 20220 91015;
0233680100999992000032612004-19180+015920FM-12+110099999V0200501N007210150019N0750001N1+02631+01981999999ADDAA199000091AY111061AY201061GF106991051091017501081001KA1120N+01741MA1999999088811MD1810181+9999ME1314869MW1151REMSYN092AAXX  26124 68010 31789 60514 10263 20198 38881 48486 58018 71510 85980 333 20174 555 91013;EQDQ01  00002PRCP99
0245680100999992000032706004-19180+015920FM-12+110099999V0209999C000012200019N0750001N1+02071+01951999999ADDAA124000391AY161061AY221061GF104991021051017501061061KA1240M+02681KA2120N+01801MA1999999088911MD1310121+9999ME1314929MW1021REMSYN110AAXX  27064 68010 11789 40000 10207 20195 38891 48492 53012 69934 70262 82566 333 20180 555 10268 20003 91014;
0205680100999992000032712004-19180+015920FM-12+110099999V0200501N005111050019N0750001N1+02791+02071999999ADDAA199000091GF105991031021012501001051KA1120N+01871MA1999999088751MD1810201+9999ME1314819REMSYN086AAXX  27124 68010 32689 50510 10279 20207 38875 48481 58020 83205 333 20187 555 91013;EQDQ01  00002PRCP99
0245680100999992000032806004-19180+015920FM-12+110099999V0200501N007210150019N0750001N1+01941+01821999999ADDAA124001891AY101061AY231061GF107991061071017501071001KA1240M+02881KA2120N+01761MA1999999089121MD1310221+9999ME1315139MW1151REMSYN110AAXX  28064 68010 11789 70514 10194 20182 38912 48513 53022 60024 71503 86770 333 20176 555 10288 20018 91017;
0205680100999992000032812004-19180+015920FM-12+110099999V0203601N001512200019N0750001N1+02671+01851999999ADDAA199000091GF104991021021012501001061KA1120N+01761MA1999999088881MD1010221+9999ME1314939REMSYN086AAXX  28124 68010 32689 43603 10267 20185 38888 48493 50022 82206 333 20176 555 91014;EQDQ01  00002PRCP99
0205680100999992000032818004-19180+015920FM-12+110099999V0209999C000012200019N0750001N1+02491+01941999999ADDAA199000091GF101991011041012501081001KA1120M+02771MA1999999088851MD1410001+9999ME1314909REMSYN086AAXX  28184 68010 32689 10000 10249 20194 38885 48490 54000 81480 333 10277 555 91014;EQDQ01  00002PRCP99
0240680100999992000032906004-19180+015920FM-12+110099999V0209999C000012200019N0750001N1+02091+01801999999ADDAA199000091GF103991999061022501001001KA1240M+02771KA2120N+01801MA1999999089071MD1310141+9999ME1315099REMSYN092AAXX  29064 68010 32889 30000 10209 20180 38907 48509 53014 82600 333 20180 555 10277 91016;EQDQ01+000022SCOTLCQ02  00002PRCP99
0166680100999992000032912004-19180+015920FM-12+110099999V0200501N006212200019N0750001N1+02871+01981999999ADDAA199000091GF103991999999017501999999KA1120N+01801REMSYN085AAXX  29124 68010 32789 30512 10287 20198 8902 48510 58019 83200 333 20180 555 91016;EQDQ01  00002PRCP99
0205680100999992000032918004-19180+015920FM-12+110099999V0201301N002112200019N0750001N1+02471+01891999999ADDAA199000091GF104991041031012501001001KA1120M+02981MA1999999089001MD1310101+9999ME1315069REMSYN086AAXX  29184 68010 32689 41304 10247 20189 38900 48506 53010 84300 333 10298 555 91015;EQDQ01  00002PRCP99
0217680100999992000033006004-19180+015920FM-12+110099999V0201301N002112200019N0750001N1+02081+01901999999ADDAA124000491GF104991011051017501061051KA1240M+02981KA2120N+01841MA1999999089201MD1310081+9999ME1315239REMSYN104AAXX  30064 68010 12789 41304 10208 20190 38920 48523 53008 69944 81565 333 20184 555 10298 20004 91018;
0205680100999992000033012004-19180+015920FM-12+110099999V0200501N003112200019N0750001N1+02901+01881999999ADDAA199000091GF103991011021022501061001KA1120N+01941MA1999999089021MD1810111+9999ME1315109REMSYN086AAXX  30124 68010 32889 30506 10290 20188 38902 48510 58011 81260 333 20194 555 91016;EQDQ01  00002PRCP99
0205680100999992000033112004-19180+015920FM-12+110099999V0200501N005112200019N0750001N1+02871+01961999999ADDAA199000091GF101991011021022501001001KA1120N+01851MA1999999088881MD1810191+9999ME1314969REMSYN086AAXX  31124 68010 32889 10510 10287 20196 38888 48496 58019 81200 333 20185 555 91014;EQDQ01  00002PRCP99
0233680100999992000033118004-19180+015920FM-12+110099999V0201301N004110450019N0750001N1+02581+01711999999ADDAA199000091AY121061AY221061GF108991021091012501081999KA1120M+03081MA1999999088881MD1310151+9999ME1314959MW1171REMSYN092AAXX  31184 68010 31689 81308 10258 20171 38888 48495 53015 71722 8298/ 333 10308 555 91014;EQDQ01  00002PRCP99
0217680100999992000040106004-19180+015920FM-12+110099999V0209999C000012200019N0750001N1+02001+01851999999ADDAA124001791GF103991011011022501041041KA1240M+02001KA2120N+01711MA1999999089011MD1410001+9999ME1314999REMSYN104AAXX  01064 68010 12889 30000 10200 20185 38901 48499 54000 60024 81144 333 20171 555 10200 20017 91016;
0205680100999992000040112004-19180+015920FM-12+110099999V0200501N004112200019N0750001N1+02661+01821999999ADDAA199000091GF103991011021017501081021KA1120N+01811MA1999999088991MD1810111+9999ME1315049REMSYN086AAXX  01124 68010 32789 30508 10266 20182 38899 48504 58011 81282 333 20181 555 91015;EQDQ01  00002PRCP99
0205680100999992000040118004-19180+015920FM-12+110099999V0209999C000012200019N0750001N1+02551+01961999999ADDAA199000091GF104991021041017501081001KA1120M+02771MA1999999088921MD1310041+9999ME1314989REMSYN086AAXX  01184 68010 32789 40000 10255 20196 38892 48498 53004 82480 333 10277 555 91015;EQDQ01  00002PRCP99
0224680100999992000040206004-19180+015920FM-12+110099999V0200901N002110450019N0750001N1+02121+01911999999ADDAA199000091GF107991011051012501081001KA1240M+02771KA2120N+01801MA1999999089141MD1310081+9999ME1315169REMSYN092AAXX  02064 68010 32689 70904 10212 20191 38914 48516 53008 81580 333 20180 555 10277 91017;EQDQ01  00002PRCP99
0205680100999992000040212004-19180+015920FM-12+110099999V0200501N006212200019N0750001N1+02811+01891999999ADDAA199000091GF103991031021017501001001KA1120N+02001MA1999999089091MD1810141+9999ME1315169REMSYN086AAXX  02124 68010 32789 30512 10281 20189 38909 48516 58014 83200 333 20200 555 91016;EQDQ01  00002PRCP99
0233680100999992000040218004-19180+015920FM-12+110099999V0209999C000012200019N0750001N1+02541+01951999999ADDAA199000091AY121061AY201061GF104991011091017501071031KA1120M+02931MA1999999089111MD1510171+9999ME1315189MW1131REMSYN092AAXX  02184 68010 31789 40000 10254 20195 38911 48518 55017 71320 81973 333 10293 555 91017;EQDQ01  00002PRCP99
0224680100999992000040306004-19180+015920FM-12+110099999V0201301N001512200019N0090001N1+02001+01801999999ADDAA199000091GF104991031001008001081061KA1240M+02931KA2120N+01771MA1999999089261MD1310081+9999ME1315289REMSYN092AAXX  03064 68010 32559 41303 10200 20180 38926 48528 53008 83086 333 20177 555 10293 91018;EQDQ01  00002PRCP99
0233680100999992000040312004-19180+015920FM-12+110099999V0200501N005112200019N0750001N1+02841+01941999999ADDAA199000091AY111061AY201061GF104991031091017501081051KA1120N+01821MA1999999089131MD1810201+9999ME1315229MW1171REMSYN092AAXX  03124 68010 31789 40510 10284 20194 38913 48522 58020 71710 83985 333 20182 555 91017;EQDQ01  00002PRCP99
0233680100999992000040418004-19180+015920FM-12+110099999V0209999C000010450019N0650001N1+01941+01661999999ADDAA199000091AY191061AY221061GF106991031091012501081001KA1120M+02841MA1999999089191MD1510121+9999ME1315219MW1131REMSYN092AAXX  04184 68010 31687 60000 10194 20166 38919 48521 55012 71392 83980 333 10284 555 91018;EQDQ01  00002PRCP99
0217680100999992000040506004-19180+015920FM-12+110099999V0201801N002112200019N0750001N1+01821+01391999999ADDAA124001091GF104991011041017501031001KA1240M+02841KA2120N+01641MA1999999089281MD1310151+9999ME1315289REMSYN104AAXX  05064 68010 12789 41804 10182 20139 38928 48528 53015 60014 81430 333 20164 555 10284 20010 91019;
0205680100999992000040512004-19180+015920FM-12+110099999V0200501N002112200019N0750001N1+02621+01591999999ADDAA199000091GF101991001001999999001021KA1120N+01621MA1999999089181MD1010141+9999ME1315249REMSYN086AAXX  05124 68010 32989 10504 10262 20159 38918 48524 50014 80002 333 20162 555 91017;EQDQ01  00002PRCP99
0205680100999992000040518004-19180+015920FM-12+110099999V0209999C000012200019N0750001N1+02391+01681999999ADDAA199000091GF102991021001999999081001KA1120M+02761MA1999999088961MD1610181+9999ME1315009REMSYN086AAXX  05184 68010 32989 20000 10239 20168 38896 48500 56018 82080 333 10276 555 91015;EQDQ01  00002PRCP99
0224680100999992000040606004-19180+015920FM-12+110099999V0202301N001512200019N0750001N1+01761+01521999999ADDAA199000091GF104991021001999999081061KA1240M+02761KA2120N+01521MA1999999089121MD1310081+9999ME1315109REMSYN092AAXX  06064 68010 32989 42303 10176 20152 38912 48510 53008 82086 333 20152 555 10276 91017;EQDQ01  00002PRCP99
0205680100999992000040612004-19180+015920FM-12+110099999V0200501N005119999999N0750001N1+02561+01281999999ADDAA199000091GF105991021001999999011081KA1120N+01561MA1999999089161MD1010101+9999ME1315219REMSYN086AAXX  06124 68010 32989 50510 10256 20128 38916 48521 50010 82018 333 20156 555 91017;EQDQ01  00002PRCP99
0205680100999992000040618004-19180+015920FM-12+110099999V0209999C000019999999N0750001N1+02271+01761999999ADDAA199000091GF105991041001999999081021KA1120M+02641MA1999999089051MD1610201+9999ME1315089REMSYN086AAXX  06184 68010 32989 50000 10227 20176 38905 48508 56020 84082 333 10264 555 91016;EQDQ01  00002PRCP99
0205680100999992000040712004-19180+015920FM-12+110099999V0202301N006212200019N0750001N1+02351+01041999999ADDAA199000091GF104991011041022501031001KA1120N+01431MA1999999089281MD1810151+9999ME1315319REMSYN086AAXX  07124 68010 32889 42312 10235 20104 38928 48531 58015 81430 333 20143 555 91019;EQDQ01  00002PRCP99
0205680100999992000040718004-19180+015920FM-12+110099999V0209999C000012200019N0750001N1+02231+01401999999ADDAA199000091GF103991021001999999081021KA1120M+02511MA1999999089131MD1510051+9999ME1315159REMSYN086AAXX  07184 68010 32989 30000 10223 20140 38913 48515 55005 82082 333 10251 555 91017;EQDQ01  00002PRCP99
0224680100999992000040806004-19180+015920FM-12+110099999V0201301N002112200019N0750001N1+01761+01271999999ADDAA199000091GF103991021001999999081021KA1240M+02511KA2120N+01521MA1999999089861MD1310141+9999ME1315859REMSYN092AAXX  08064 68010 32989 31304 10176 20127 38986 48585 53014 82082 333 20152 555 10251 91025;EQDQ01  00002PRCP99
0205680100999992000040812004-19180+015920FM-12+110099999V0202901N005112200019N0750001N1+02741+01361999999ADDAA199000091GF103991011011022501031051KA1120N+01571MA1999999089121MD1010201+9999ME1315199REMSYN086AAXX  08124 68010 32889 32910 10274 20136 38912 48519 50020 81135 333 20157 555 91017;EQDQ01  00002PRCP99
0224680100999992000040906004-19180+015920FM-12+110099999V0209999C000012200019N0750001N1+01771+01241999999ADDAA199000091GF101991001001999999001021KA1240M+02801KA2120N+01351MA1999999089291MD1310061+9999ME1315269REMSYN092AAXX  09064 68010 32989 10000 10177 20124 38929 48526 53006 80002 333 20135 555 10280 91019;EQDQ01  00002PRCP99
0205680100999992000040912004-19180+015920FM-12+110099999V0200501N006212200019N0750001N1+02561+01341999999ADDAA199000091GF101991001001999999001061KA1120N+01351MA1999999089151MD1810121+9999ME1315209REMSYN086AAXX  09124 68010 32989 10512 10256 20134 38915 48520 58012 80006 333 20135 555 91017;EQDQ01  00002PRCP99
0224680100999992000041006004-19180+015920FM-12+110099999V0201301N002112200019N0750001N1+01821+01221999999ADDAA199000091GF104991041001999999081001KA1240M+02861KA2120N+01481MA1999999089241MD1310121+9999ME1315229REMSYN092AAXX  10064 68010 32989 41304 10182 20122 38924 48522 53012 84080 333 20148 555 10286 91018;EQDQ01  00002PRCP99
0205680100999992000041012004-19180+015920FM-12+110099999V0200501N006212200019N0750001N1+02761+01371999999ADDAA199000091GF103991031001999999081001KA1120N+01481MA1999999089111MD1810121+9999ME1315189REMSYN086AAXX  10124 68010 32989 30512 10276 20137 38911 48518 58012 83080 333 20148 555 91017;EQDQ01  00002PRCP99
0205680100999992000041018004-19180+015920FM-12+110099999V0209999C000012200019N0750001N1+02391+01331999999ADDAA199000091GF101991011001999999081001KA1120M+02881MA1999999089091MD1510081+9999ME1315139REMSYN086AAXX  10184 68010 32989 10000 10239 20133 38909 48513 55008 81080 333 10288 555 91016;EQDQ01  00002PRCP99
0224680100999992000041106004-19180+015920FM-12+110099999V0201301N001512200019N0750001N1+01681+01181999999ADDAA199000091GF101991011001999999081001KA1240M+02881KA2120N+01361MA1999999089221MD1310101+9999ME1315199REMSYN092AAXX  11064 68010 32989 11303 10168 20118 38922 48519 53010 81080 333 20136 555 10288 91018;EQDQ01  00002PRCP99
0215680100999992000041118004-19180+015920FM-12+110099999V0209999C000012200019N0750001N1+02371+01301999999ADDAA199000091GA1001+999999999GF100991001001999999001001KA1120M+02921MA1999999089031MD1510081+9999ME1315069REMSYN080AAXX  11184 68010 32989 00000 10237 20130 38903 48506 55008 333 10292 555 91016;EQDQ01  00002PRCP99
0224680100999992000041206004-19180+015920FM-12+110099999V0201301N001512200019N0750001N1+01741+01191999999ADDAA199000091GF101991011001999999031001KA1240M+02921KA2120N+01361MA1999999089181MD1310111+9999ME1315179REMSYN092AAXX  12064 68010 32989 11303 10174 20119 38918 48517 53011 81030 333 20136 555 10292 91017;EQDQ01  00002PRCP99
0205680100999992000041212004-19180+015920FM-12+110099999V0200501N006212200019N0750001N1+02821+01151999999ADDAA199000091GF101991011001999999081001KA1120N+01361MA1999999089011MD1810181+9999ME1315109REMSYN086AAXX  12124 68010 32989 10512 10282 20115 38901 48510 58018 81080 333 20136 555 91016;EQDQ01  00002PRCP99
0234680100999992000041306004-19180+015920FM-12+110099999V0201301N002112200019N0750001N1+01861+01291999999ADDAA199000091GA1001+999999999GF100991001001999999001001KA1240M+02981KA2120N+01461MA1999999089151MD1310141+9999ME1315159REMSYN086AAXX  13064 68010 32989 01304 10186 20129 38915 48515 53014 333 20146 555 10298 91017;EQDQ01  00002PRCP99
0233680100999992000041318004-19180+015920FM-12+110099999V0209999C000012200019N0750001N1+02481+01501999999ADDAA199000091AY101061AY201061GF101991011091022501001001KA1120M+03061MA1999999088961MD1510061+9999ME1315019MW1131REMSYN092AAXX  13184 68010 31889 10000 10248 20150 38896 48501 55006 71300 81900 333 10306 555 91015;EQDQ01  00002PRCP99
0224680100999992000041406004-19180+015920FM-12+110099999V0202801N002112200019N0750001N1+01651+01361999999ADDAA199000091GF101991011051022501001001KA1240M+03061KA2120N+01381MA1999999089171MD1310141+9999ME1315169REMSYN092AAXX  14064 68010 32889 12804 10165 20136 38917 48516 53014 81500 333 20138 555 10306 91017;EQDQ01  00002PRCP99
0237680100999992000041418004-19180+015920FM-12+110099999V0209999C000010450019N0650001N1+01951+01751999999ADDAA112030091AA224030291AY191061AY221061GF105991021091008001081001KA1120M+02971MA1999999089091MD1610151+9999ME1315069MW1131REMSYN104AAXX  14184 68010 11587 50000 10195 20175 38909 48506 56015 60302 71392 82980 333 10297 555 20302 91016;
0217680100999992000041506004-19180+015920FM-12+110099999V0209999C000012200019N0750001N1+01701+01571999999ADDAA124034491GF101991011001999999031001KA1240M+02971KA2120N+01371MA1999999089151MD1310071+9999ME1315149REMSYN104AAXX  15064 68010 12989 10000 10170 20157 38915 48514 53007 60344 81030 333 20137 555 10297 20344 91017;
0205680100999992000041512004-19180+015920FM-12+110099999V0200501N002112200019N0750001N1+02681+01741999999ADDAA199000091GF103991031021017501001001KA1120N+01511MA1999999089031MD1810201+9999ME1315109REMSYN086AAXX  15124 68010 32789 30504 10268 20174 38903 48510 58020 83200 333 20151 555 91016;EQDQ01  00002PRCP99
0192680100999992000041612004-19180+015920FM-12+110099999V0200501N003112200019N0750001N1+02951+01581999999ADDAA199000091GF104991041021017501001001MA1999999089101MD1810181+9999ME1315129REMSYN086AAXX  16124 68010 32789 40506 10295 20158 38910 48512 58018 84200 333 20/// 555 91017;EQDQ01  00002PRCP99
0205680100999992000041618004-19180+015920FM-12+110099999V0200201N026712200019N0000001N1+03021+01281999999ADDAA199000091GF101991011041000251081001KA1120M+03021MA1999999088971MD1510061+9999ME1315049REMSYN086AAXX  16184 68010 3/000 10252 10302 20128 38897 48504 55006 81480 333 10302 555 91015;EQDQ01  00002PRCP99
0224680100999992000041706004-19180+015920FM-12+110099999V0201301N001512200019N0750001N1+02021+01611999999ADDAA199000091GF104991031041022501031001KA1240M+03021KA2120N+01841MA1999999089251MD1310141+9999ME1315269REMSYN092AAXX  17064 68010 32889 41303 10202 20161 38925 48526 53014 83430 333 20184 555 10302 91018;EQDQ01  00002PRCP99
0205680100999992000041712004-19180+015920FM-12+110099999V0200501N005112200019N0750001N1+02921+01601999999ADDAA199000091GF101991011011017501001001KA1120N+01841MA1999999089091MD1810201+9999ME1315199REMSYN086AAXX  17124 68010 32789 10510 10292 20160 38909 48519 58020 81100 333 20184 555 91016;EQDQ01  00002PRCP99
0233680100999992000041718004-19180+015920FM-12+110099999V0209999C000012200019N0750001N1+02581+01791999999ADDAA199000091AY101061AY201061GF103991011091017501081001KA1120M+03081MA1999999088971MD1510041+9999ME1315039MW1131REMSYN092AAXX  17184 68010 31789 30000 10258 20179 38897 48503 55004 71300 81980 333 10308 555 91015;EQDQ01  00002PRCP99
0224680100999992000041806004-19180+015920FM-12+110099999V0209999C000012200019N0650001N1+01881+01491999999ADDAA199000091GF103991011051008001081001KA1240M+03081KA2120N+01711MA1999999089241MD1310141+9999ME1315259REMSYN092AAXX  18064 68010 32587 30000 10188 20149 38924 48525 53014 81580 333 20171 555 10308 91018;EQDQ01  00002PRCP99
0205680100999992000041812004-19180+015920FM-12+110099999V0200501N006210450019N0750001N1+02741+01501999999ADDAA199000091GF106991031021022501061001KA1120N+01791MA1999999089141MD1010181+9999ME1315229REMSYN086AAXX  18124 68010 32889 60512 10274 20150 38914 48522 50018 83260 333 20179 555 91017;EQDQ01  00002PRCP99
0217680100999992000041906004-19180+015920FM-12+110099999V0200901N006212200019N0750001N1+01801+01521999999ADDAA124001491GF102991021001999999061001KA1240M+02991KA2120N+01551MA1999999089221MD1210091+9999ME1315229REMSYN104AAXX  19064 68010 12989 20912 10180 20152 38922 48522 52009 60014 82060 333 20155 555 10299 20014 91018;
0233680100999992000041912004-19180+015920FM-12+110099999V0200501N003112200019N0750001N1+02211+01411999999ADDAA199000091AY101061AY261061GF104991041091017501001001KA1120N+01551MA1999999089201MD1810081+9999ME1315209MW1151REMSYN092AAXX  19124 68010 31789 40506 10221 20141 38920 48520 58008 71506 84900 333 20155 555 91018;EQDQ01  00002PRCP99
0237680100999992000041918004-19180+015920FM-12+110099999V0202701N008210450019N0750001N1+01991+01251999999ADDAA112001091AA224001091AY121061AY221061GF106991021091017501081001KA1120M+02661MA1999999089111MD1510181+9999ME1315089MW1201REMSYN104AAXX  19184 68010 11789 62716 10199 20125 38911 48508 55018 60012 72022 82980 333 10266 555 20010 91017;
0217680100999992000042006004-19180+015920FM-12+110099999V0209999C000012200019N0750001N1+01461+01361999999ADDAA124008591GF101991011001999999081001KA1240M+02661KA2120N+01201MA1999999089281MD1410001+9999ME1315259REMSYN104AAXX  20064 68010 12989 10000 10146 20136 38928 48525 54005 60084 81080 333 20120 555 10266 20085 91019;
0234680100999992000042018004-19180+015920FM-12+110099999V0209999C000012200019N0750001N1+02191+01731999999ADDAA199000091GA1001+999999999GF100991001001999999001001KA1120M+02621KA2120N+00001MA1999999089041MD1510041+9999ME1315009REMSYN086AAXX  20184 68010 32989 00000 10219 20173 38904 48500 55004 333 10262 20000 555 91016;EQDQ01  00002PRCP99
0205680100999992000042112004-19180+015920FM-12+110099999V0200501N001512200019N0750001N1+02741+00861999999ADDAA199000091GF101991011021017501001001KA1120N+01441MA1999999089251MD1810201+9999ME1315339REMSYN086AAXX  21124 68010 32789 10503 10274 20086 38925 48533 58020 81200 333 20144 555 91018;EQDQ01  00002PRCP99
0224680100999992000042206004-19180+015920FM-12+110099999V0209999C000012200019N0750001N1+01421+00941999999ADDAA199000091GF101991011001999999081001KA1240M+02821KA2120N+01081MA1999999089391MD1310081+9999ME1315399REMSYN092AAXX  22064 68010 32989 10000 10142 20094 38939 48539 53008 81080 333 20108 555 10282 91020;EQDQ01  00002PRCP99
0224680100999992000042306004-19180+015920FM-12+110099999V0209999C000012200019N0750001N1+01531+00861999999ADDAA199000091GF101991011001999999031001KA1240M+02951KA2120N+00991MA1999999089391MD1310101+9999ME1315409REMSYN092AAXX  23064 68010 32989 10000 10153 20086 38939 48540 53010 81030 333 20099 555 10295 91020;EQDQ01  00002PRCP99
0205680100999992000042312004-19180+015920FM-12+110099999V0200501N002112200019N0750001N1+02921+01181999999ADDAA199000091GF102991021021017501001001KA1120N+01341MA1999999089201MD1810151+9999ME1315309REMSYN086AAXX  23124 68010 32789 20504 10292 20118 38920 48530 58015 82200 333 20134 555 91018;EQDQ01  00002PRCP99
0205680100999992000042318004-19180+015920FM-12+110099999V0209999C000012200019N0750001N1+02921+01181999999ADDAA199000091GF101991011001999999081001KA1120M+03421MA1999999089141MD1510051+9999ME1315249REMSYN086AAXX  23184 68010 32989 10000 10292 20118 38914 48524 55005 81080 333 10342 555 91017;EQDQ01  00002PRCP99
0224680100999992000042406004-19180+015920FM-12+110099999V0202301N001512200019N0750001N1+01391+00911999999ADDAA199000091GF101991011001999999031001KA1240M+03421KA2120N+01051MA1999999089301MD1310101+9999ME1315329REMSYN092AAXX  24064 68010 32989 12303 10139 20091 38930 48532 53010 81030 333 20105 555 10342 91019;EQDQ01  00002PRCP99
0215680100999992000042418004-19180+015920FM-12+110099999V0201301N002112200019N0750001N1+02431+00931999999ADDAA199000091GA1001+999999999GF100991001001999999001001KA1120M+03021MA1999999089161MD1510061+9999ME1315199REMSYN080AAXX  24184 68010 32989 01304 10243 20093 38916 48519 55006 333 10302 555 91017;EQDQ01  00002PRCP99
0215680100999992000042506004-19180+015920FM-12+110099999V0202301N002112200019N0750001N1+01591+00911999999ADDAA199000091GA1001+999999999GF100991001001999999001001KA1240M+03021MA1999999089361MD1310171+9999ME1315279REMSYN080AAXX  25064 68010 32989 02304 10159 20091 38936 48527 53017 333 555 10302 91019;EQDQ01  00002PRCP99
0196680100999992000042512004-19180+015920FM-12+110099999V0209999C000012200019N0750001N1+02941+00721999999ADDAA199000091GA1001+999999999GF100991001001999999001001MA1999999089171MD1810151+9999ME1315289REMSYN074AAXX  25124 68010 32989 00000 10294 20072 38917 48528 58015 333 555 91017;EQDQ01  00002PRCP99
0234680100999992000042606004-19180+015920FM-12+110099999V0209999C000012200019N0750001N1+01441+00921999999ADDAA199000091GA1001+999999999GF100991001001999999001001KA1240M+02991KA2120N+01221MA1999999089261MD1310201+9999ME1315259REMSYN086AAXX  26064 68010 32989 00000 10144 20092 38926 48525 53020 333 20122 555 10299 91018;EQDQ01  00002PRCP99
0215680100999992000042612004-19180+015920FM-12+110099999V0200501N006212200019N0750001N1+02881+00911999999ADDAA199000091GA1001+999999999GF100991001001999999001001KA1120N+01221MA1999999089201MD1810171+9999ME1315309REMSYN080AAXX  26124 68010 32989 00512 10288 20091 38920 48530 58017 333 20122 555 91018;EQDQ01  00002PRCP99
0215680100999992000042618004-19180+015920FM-12+110099999V0209999C000012200019N0750001N1+02241+01241999999ADDAA199000091GA1001+999999999GF100991001001999999001001KA1120M+03001MA1999999089121MD1510071+9999ME1315139REMSYN080AAXX  26184 68010 32989 00000 10224 20124 38912 48513 55007 333 10300 555 91017;EQDQ01  00002PRCP99
0234680100999992000042706004-19180+015920FM-12+110099999V0209999C000012200019N0750001N1+01671+00921999999ADDAA199000091GA1001+999999999GF100991001001999999001001KA1240M+03001KA2120N+01421MA1999999089281MD1310121+9999ME1315289REMSYN086AAXX  27064 68010 32989 00000 10167 20092 38928 48528 53012 333 20142 555 10300 91019;EQDQ01  00002PRCP99
0205680100999992000042718004-19180+015920FM-12+110099999V0209999C000012200019N0750001N1+02441+01031999999ADDAA199000091GF101991011001999999081001KA1120M+03111MA1999999089111MD1510061+9999ME1315159REMSYN086AAXX  27184 68010 32989 10000 10244 20103 38911 48515 55006 81080 333 10311 555 91017;EQDQ01  00002PRCP99
0224680100999992000042806004-19180+015920FM-12+110099999V0209999C000012200019N0750001N1+01561+01271999999ADDAA199000091GF102991021011022501001001KA1240M+03131KA2120N+01601MA1999999089291MD1310151+9999ME1315279REMSYN092AAXX  28064 68010 32889 20000 10156 20127 38929 48527 53015 82100 333 20160 555 10313 91019;EQDQ01  00002PRCP99
0214680100999992000042812004-19180+015920FM-12+110099999V0200501N005112200019N0750001N1+03001+01001999999ADDAA199000091AY101061AY201061GF101991011021017501001001MA1999999089221MD1810161+9999ME1315339MW1051REMSYN086AAXX  28124 68010 31789 10510 10300 20100 38922 48533 58016 70500 81200 333 555 91018;EQDQ01  00002PRCP99
0205680100999992000042818004-19180+015920FM-12+110099999V0209999C000012200019N0750001N1+02391+01161999999ADDAA199000091GF101991011001999999081001KA1120M+03091MA1999999089171MD1510061+9999ME1315209REMSYN086AAXX  28184 68010 32989 10000 10239 20116 38917 48520 55006 81080 333 10309 555 91017;EQDQ01  00002PRCP99
0224680100999992000042906004-19180+015920FM-12+110099999V0209999C000012200019N0750001N1+01501+00951999999ADDAA199000091GF102991021001999999081001KA1240M+03091KA2120N+01401MA1999999089401MD1310171+9999ME1315409REMSYN092AAXX  29064 68010 32989 20000 10150 20095 38940 48540 53017 82080 333 20140 555 10309 91020;EQDQ01  00002PRCP99
0202680100999992000042912004-19180+015920FM-12+110099999V0200501N005112200019N0750001N1+03001+99999999999ADDAA199000091GF101991011021017501001001MA1999999089291MD1810181+9999ME1315409REMSYN080AAXX  29124 68010 32789 10510 10300 21124 38929 48540 58018 81200 333 555 91019;EQDQ01-001243ATOD  Q02  00002PRCP99
0215680100999992000042918004-19180+015920FM-12+110099999V0209999C000012200019N0750001N1+02241+00821999999ADDAA199000091GA1001+999999999GF100991001001999999001001KA1120M+03081MA1999999089241MD1510081+9999ME1315259REMSYN080AAXX  29184 68010 32989 00000 10224 20082 38924 48525 55008 333 10308 555 91018;EQDQ01  00002PRCP99
0224680100999992000043006004-19180+015920FM-12+110099999V0209999C000012200019N0750001N1+01521+01071999999ADDAA199000091GF101991011001999999031001KA1240M+03081KA2120N+01461MA1999999089481MD1310181+9999ME1315479REMSYN092AAXX  30064 68010 32989 10000 10152 20107 38948 48547 53018 81030 333 20146 555 10308 91021;EQDQ01  00002PRCP99
0205680100999992000043012004-19180+015920FM-12+110099999V0200501N005112200019N0750001N1+02931+01351999999ADDAA199000091GF102991021021022501001001KA1120N+01531MA1999999089371MD1810171+9999ME1315479REMSYN086AAXX  30124 68010 32889 20510 10293 20135 38937 48547 58017 82200 333 20153 555 91020;EQDQ01  00002PRCP99
0233680100999992000043018004-19180+015920FM-12+110099999V0209999C000012200019N0750001N1+02441+01371999999ADDAA199000091AY121061AY221061GF101991011091022501001001KA1120M+03021MA1999999089301MD1510091+9999ME1315339MW1131REMSYN092AAXX  30184 68010 31889 10000 10244 20137 38930 48533 55009 71322 81900 333 10302 555 91019;EQDQ01  00002PRCP99
0217680100999992000050106004-19180+015920FM-12+110099999V0209999C000012200019N0750001N1+01641+01191999999ADDAA124000091GF102991021001999999081001KA1240M+03021KA2120N+01571MA1999999089441MD1310151+9999ME1315439REMSYN104AAXX  01064 68010 12989 20000 10164 20119 38944 48543 53015 69904 82080 333 20157 555 10302 20000 91020;
0205680100999992000050112004-19180+015920FM-12+110099999V0200501N006212200019N0750001N1+02851+01081999999ADDAA199000091GF102991021021017501001081KA1120N+01631MA1999999089211MD1810241+9999ME1315309REMSYN086AAXX  01124 68010 32789 20512 10285 20108 38921 48530 58024 82208 333 20163 555 91018;EQDQ01  00002PRCP99
0252680100999992000050118004-19180+015920FM-12+110099999V0209999C000012200019N0750001N1+02341+01221999999ADDAA199000091AY121061AY221061GF103991011091022501031001KA1120M+02941KA2120N+00001MA1999999089101MD1510071+9999ME1315109MW1131REMSYN098AAXX  01184 68010 31889 30000 10234 20122 38910 48510 55007 71322 81930 333 10294 20000 555 91017;EQDQ01  00002PRCP99
0205680100999992000050212004-19180+015920FM-12+110099999V0200501N007212200019N0750001N1+02641+01071999999ADDAA199000091GF104991021031017501031001KA1120N+01841MA1999999089141MD1810201+9999ME1315209REMSYN086AAXX  02124 68010 32789 40514 10264 20107 38914 48520 58020 82330 333 20184 555 91017;EQDQ01  00002PRCP99
0205680100999992000050218004-19180+015920FM-12+110099999V0209999C000012200019N0750001N1+02251+01371999999ADDAA199000091GF101991011001999999081001KA1120M+02771MA1999999089071MD1510091+9999ME1315089REMSYN086AAXX  02184 68010 32989 10000 10225 20137 38907 48508 55009 81080 333 10277 555 91016;EQDQ01  00002PRCP99
0224680100999992000050306004-19180+015920FM-12+110099999V0209999C000012200019N0750001N1+01341+00971999999ADDAA199000091GF102991021001999999061001KA1240M+02771KA2120N+01271MA1999999089271MD1310101+9999ME1315239REMSYN092AAXX  03064 68010 32989 20000 10134 20097 38927 48523 53010 82060 333 20127 555 10277 91018;EQDQ01  00002PRCP99
0205680100999992000050312004-19180+015920FM-12+110099999V0203601N004112200019N0750001N1+02931+00781999999ADDAA199000091GF101991011011999999001001KA1120N+01351MA1999999089141MD1810171+9999ME1315249REMSYN086AAXX  03124 68010 32989 13608 10293 20078 38914 48524 58017 81100 333 20135 555 91017;EQDQ01  00002PRCP99
0233680100999992000050318004-19180+015920FM-12+110099999V0209999C000012200019N0750001N1+02291+01201999999ADDAA199000091AY101061AY201061GF102991011091022501081001KA1120M+02951MA1999999089051MD1510071+9999ME1315079MW1131REMSYN092AAXX  03184 68010 31889 20000 10229 20120 38905 48507 55007 71300 81980 333 10295 555 91016;EQDQ01  00002PRCP99
0224680100999992000050406004-19180+015920FM-12+110099999V0209999C000012200019N0750001N1+01251+00521999999ADDAA199000091GF101991011001999999081001KA1240M+02951KA2120N+01141MA1999999089311MD1310121+9999ME1315319REMSYN092AAXX  04064 68010 32989 10000 10125 20052 38931 48531 53012 81080 333 20114 555 10295 91019;EQDQ01  00002PRCP99
0205680100999992000050412004-19180+015920FM-12+110099999V0200501N002112200019N0750001N1+02861+00741999999ADDAA199000091GF101991011001999999031001KA1120N+01251MA1999999089161MD1810131+9999ME1315259REMSYN086AAXX  04124 68010 32989 10504 10286 20074 38916 48525 58013 81030 333 20125 555 91017;EQDQ01  00002PRCP99
0234680100999992000050506004-19180+015920FM-12+110099999V0209999C000012200019N0750001N1+01181+00461999999ADDAA199000091GA1001+999999999GF100991001001999999001001KA1240M+02881KA2120N+01011MA1999999089151MD1310021+9999ME1315139REMSYN086AAXX  05064 68010 32989 00000 10118 20046 38915 48513 53002 333 20101 555 10288 91017;EQDQ01  00002PRCP99
0201680100999992000050512004-19180+015920FM-12+110099999V0209999C000012200019N0750001N1+02801+00501999999ADDAA199000091GA1001+999999999GF100991001001999999001001KA1120N+01011MA1999999089021ME1315119REMSYN080AAXX  05124 68010 32989 00000 10280 20050 38902 48511 59019 333 20101 555 91016;EQDQ01  00002PRCP99
0215680100999992000050518004-19180+015920FM-12+110099999V0209999C000012200019N0750001N1+02181+00601999999ADDAA199000091GA1001+999999999GF100991001001999999001001KA1120M+03021MA1999999088951MD1510071+9999ME1314969REMSYN080AAXX  05184 68010 32989 00000 10218 20060 38895 48496 55007 333 10302 555 91015;EQDQ01  00002PRCP99
0234680100999992000050606004-19180+015920FM-12+110099999V0201301N002112200019N0750001N1+01341+00611999999ADDAA199000091GA1001+999999999GF100991001001999999001001KA1240M+03021KA2120N+01221MA1999999089101MD1310071+9999ME1315099REMSYN086AAXX  06064 68010 32989 01304 10134 20061 38910 48509 53007 333 20122 555 10302 91017;EQDQ01  00002PRCP99
0205680100999992000050612004-19180+015920FM-12+110099999V0200501N005112200019N0750001N1+03011+00731999999ADDAA199000091GF102991021021017501001001KA1120N+01361MA1999999088991MD1810181+9999ME1315119REMSYN086AAXX  06124 68010 32789 20510 10301 20073 38899 48511 58018 82200 333 20136 555 91015;EQDQ01  00002PRCP99
0205680100999992000050618004-19180+015920FM-12+110099999V0200501N001512200019N0750001N1+02381+00731999999ADDAA199000091GF101991011001999999081001KA1120M+03081MA1999999088941MD1510101+9999ME1314979REMSYN086AAXX  06184 68010 32989 10503 10238 20073 38894 48497 55010 81080 333 10308 555 91015;EQDQ01  00002PRCP99
0224680100999992000050706004-19180+015920FM-12+110099999V0201301N002112200019N0750001N1+99999+99999999999ADDAA199000091GF102991021001999999081001KA1240M+03081KA2120N+01391MA1999999089251MD1310151+9999ME1315249REMSYN092AAXX  07064 68010 32989 21304 19154 20092 38925 48524 53015 82080 333 20139 555 10308 91018;EQDQ01  00002PRCP99
0205680100999992000050712004-19180+015920FM-12+110099999V0200201N007212200019N0750001N1+02901+01151999999ADDAA199000091GF104991041021022501081001KA1120N+01391MA1999999089161MD1810131+9999ME1315269REMSYN086AAXX  07124 68010 32889 40214 10290 20115 38916 48526 58013 84280 333 20139 555 91017;EQDQ01  00002PRCP99
0237680100999992000050718004-19180+015920FM-12+110099999V0209999C000012200019N0750001N1+02181+01301999999ADDAA112000792AA224000092AY191061AY221061GF102991011091017501081001KA1120M+02941MA1999999089111MD1510101+9999ME1315119MW1131REMSYN104AAXX  07184 68010 11789 20000 10218 20130 38911 48511 55010 69902 71392 81980 333 10294 555 20000 91017;
0217680100999992000050806004-19180+015920FM-12+110099999V0200301N005112200019N0750001N1+01651+01431999999ADDAA124002491GF104991041051022501001001KA1240M+02941KA2120N+01551MA1999999089301MD1310071+9999ME1315259REMSYN104AAXX  08064 68010 12889 40310 10165 20143 38930 48525 53007 60024 84500 333 20155 555 10294 20024 91019;
0205680100999992000050812004-19180+015920FM-12+110099999V0200501N005112200019N0750001N1+02661+01121999999ADDAA199000091GF101991011011017501001001KA1120N+01651MA1999999089321MD1010141+9999ME1315389REMSYN086AAXX  08124 68010 32789 10510 10266 20112 38932 48538 50014 81100 333 20165 555 91019;EQDQ01  00002PRCP99
0233680100999992000050818004-19180+015920FM-12+110099999V0200901N001512200019N0750001N1+02041+01091999999ADDAA199000091AY101061AY201061GF101991011091012501081001KA1120M+02711MA1999999089261MD1510141+9999ME1315269MW1131REMSYN092AAXX  08184 68010 31689 10903 10204 20109 38926 48526 55014 71300 81980 333 10271 555 91018;EQDQ01  00002PRCP99
0215680100999992000050912004-19180+015920FM-12+110099999V0200501N006212200019N0750001N1+02691+00681999999ADDAA199000091GA1001+999999999GF100991001001999999001001KA1120N+01291MA1999999089471MD1810091+9999ME1315549REMSYN080AAXX  09124 68010 32989 00512 10269 20068 38947 48554 58009 333 20129 555 91021;EQDQ01  00002PRCP99
