0114011540999992000010103004+68580+014300FM-12+005099999V0201201N004612200019N0650001N1+00221-00361999999ADDAY111031AY211031GF101991011001012501041011MW1011REMSYN054AAXX  01034 01154 41687 11209 10022 21036 70111 81041;
0137011540999992000010106004+68580+014300FM-12+005099999V0201201N006210300019N0550001N1+00141-00501999999ADDAY121061AY221061GF107991031051004501081081KA1999N+00141MW1031REMSYN064AAXX  01064 01154 11485 71212 10014 21050 70322 83588 333 20014;
0114011540999992000010112004+68580+014300FM-12+005099999V0201001N007710090019N0750001N1+00201-00581999999ADDAY121061AY221061GF108991081081004501999999MW1031REMSYN054AAXX  01124 01154 41489 81015 10020 21058 70322 888//;
0154011540999992000010118004+68580+014300FM-12+005099999V0201201N007710090019N0250001N1+00201+00011999999ADDAA112000191AY181061AY211061GF108991081081004501999999KA1999M+00261MW1031REMSYN070AAXX  01184 01154 11475 81215 10020 20001 69912 70381 888// 333 10026;
0114011540999992000010203004+68580+014300FM-12+005099999V0201501N007710090019N0250001N1+00311+00111999999ADDAY181031AY211031GF108991081081004501999999MW1031REMSYN054AAXX  02034 01154 41475 81515 10031 20011 70381 888//;
0154011540999992000010206004+68580+014300FM-12+005099999V0201601N007710042019N0100001N1+00301+00181999999ADDAA112000191AY181061AY221061GF108991081071004501999999KA1999N+00181MW1811REMSYN070AAXX  02064 01154 11460 81615 10030 20018 69922 78182 887// 333 20018;
0114011540999992000010212004+68580+014300FM-12+005099999V0201601N007710042019N0150001N1+00361+00201999999ADDAY161061AY221061GF108991081071004501999999MW1611REMSYN054AAXX  02124 01154 41465 81615 10036 20020 76162 887//;
0154011540999992000010218004+68580+014300FM-12+005099999V0201601N006210090019N0250001N1+00391+00061999999ADDAA112000391AY161061AY221061GF108991081081004501999999KA1999M+00541MW1031REMSYN070AAXX  02184 01154 11475 81612 10039 20006 69932 70362 888// 333 10054;
0154011540999992000010306004+68580+014300FM-12+005099999V0202601N009310021019N0250001N1+00341+00101999999ADDAA112001091AY181061AY221061GF106991061071002501081021KA1999N+00121MW1151REMSYN070AAXX  03064 01154 11375 62618 10034 20010 69992 71582 86782 333 20012;
0114011540999992000010312004+68580+014300FM-12+005099999V0201801N006212200019N0250001N1+00401+00101999999ADDAY181061AY221061GF104991031031002501061021MW1151REMSYN054AAXX  03124 01154 41375 41812 10040 20010 71582 83362;
0154011540999992000010318004+68580+014300FM-12+005099999V0201001N006210300019N0300001N1+00281-00271999999ADDAA112000391AY181061AY221061GF105991041041004501061021KA1999M+00441MW1151REMSYN070AAXX  03184 01154 11480 51012 10028 21027 69932 71582 84462 333 10044;
0114011540999992000010403004+68580+014300FM-12+005099999V0200801N001010300019N0250001N1+00001-00131999999ADDAY181031AY221031GF106991041031004501061021MW1151REMSYN054AAXX  04034 01154 41475 60802 10000 21013 71582 84362;
0154011540999992000010406004+68580+014300FM-12+005099999V0200801N001010300019N0550001N1+00141-00261999999ADDAA112000191AY181061AY221061GF105991031041004501061011KA1999N+00001MW1031REMSYN070AAXX  04064 01154 11485 50802 10014 21026 69912 70382 83461 333 20000;
0114011540999992000010412004+68580+014300FM-12+005099999V0201001N002110060019N0250001N1+00161-00051999999ADDAY121061AY221061GF108991081081002501999999MW1151REMSYN054AAXX  04124 01154 41375 81004 10016 21005 71522 888//;
0114011540999992000010503004+68580+014300FM-12+005099999V0203401N006212200019N0550001N1+00311-00451999999ADDAY111031AY211031GF103991031031004501041021MW1021REMSYN054AAXX  05034 01154 41485 33412 10031 21045 70211 83342;
0167011540999992000010506004+68580+014300FM-12+005099999V0203201N004612200019N0650001N1+00341-00481999999ADDAA106000091AY111061AY211061GF103991031041004501041021KA1999N+00181MW1021REMSYN064AAXX  05064 01154 31487 33209 10034 21048 70211 83442 333 20018;EQDQ01  00002PRCP06
0114011540999992000010512004+68580+014300FM-12+005099999V0201601N004612200019N0750001N1+00291-00451999999ADDAY111061AY211061GF103991021041004501041021MW1021REMSYN054AAXX  05124 01154 41489 31609 10029 21045 70211 82442;
0114011540999992000010603004+68580+014300FM-12+005099999V0201201N006210090019N0550001N1+00301-00251999999ADDAY121031AY221031GF108991081081004501999999MW1011REMSYN054AAXX  06034 01154 41485 81212 10030 21025 70122 888//;
0167011540999992000010606004+68580+014300FM-12+005099999V0201201N009310090019N0250001N1+00431-00101999999ADDAA106000091AY121061AY221061GF108991081081004501999999KA1999N+00301MW1031REMSYN064AAXX  06064 01154 31475 81218 10043 21010 70322 888// 333 20030;EQDQ01  00002PRCP06
0124011540999992000010612004+68580+014300FM-12+005099999V0201301N007710021019N0045001N1+00441+00301999999ADDAY161061AY221061GF108991081071002501999999MW1621REMSYN064AAXX  06124 01154 41345 81315 10044 20030 76262 887// 444 04///;
0114011540999992000010703004+68580+014300FM-12+005099999V0201601N007712200019N0250001N1+00461+00061999999ADDAY161031AY221031GF103991021041004501041001MW1021REMSYN054AAXX  07034 01154 41475 31615 10046 20006 70262 82440;
0148011540999992000010706004+68580+014300FM-12+005099999V0201701N009810021019N0045001N1+99999+99999999999ADDAA112000591AY161061AY221061GF108991081071002501999999KA1999N+00381MW1611REMSYN064AAXX  07064 01154 11345 81719 20022 69942 76162 887// 333 20038;
0114011540999992000010712004+68580+014300FM-12+005099999V0202201N009310021019N0040001N1+00261+00101999999ADDAY161061AY221061GF108991081071002501999999MW1621REMSYN054AAXX  07124 01154 41340 82218 10026 20010 76262 887//;
0154011540999992000010718004+68580+014300FM-12+005099999V0201501N009310021019N0045001N1+00421-00261999999ADDAA112000391AY161061AY221061GF108991081071002501999999KA1999M+00481MW1611REMSYN070AAXX  07184 01154 11345 81518 10042 21026 69932 76162 887// 333 10048;
0114011540999992000010803004+68580+014300FM-12+005099999V0201701N007710021019N0040001N1+00611+00401999999ADDAY161031AY221031GF108991081071002501999999MW1621REMSYN054AAXX  08034 01154 41340 81715 10061 20040 76262 887//;
0154011540999992000010806004+68580+014300FM-12+005099999V0201601N009310021019N0045001N1+00431+00271999999ADDAA112000191AY161061AY221061GF108991081071002501999999KA1999N+00261MW1621REMSYN070AAXX  08064 01154 11345 81618 10043 20027 69922 76262 887// 333 20026;
0114011540999992000010812004+68580+014300FM-12+005099999V0201601N007710060019N0150001N1+00491+00271999999ADDAY181061AY221061GF108991081081002501999999MW1151REMSYN054AAXX  08124 01154 41365 81615 10049 20027 71582 888//;
0154011540999992000010818004+68580+014300FM-12+005099999V0201401N009310021019N0040001N1+00461+00321999999ADDAA112001091AY161061AY221061GF108991081071002501999999KA1999M+00621MW1641REMSYN070AAXX  08184 01154 11340 81418 10046 20032 60012 76462 887// 333 10062;
0114011540999992000010903004+68580+014300FM-12+005099999V0202801N007710090019N0150001N1+00541+00371999999ADDAY181031AY221031GF108991081081004501999999MW1151REMSYN054AAXX  09034 01154 41465 82815 10054 20037 71582 888//;
0114011540999992000010912004+68580+014300FM-12+005099999V0202601N007710300019N0150001N1+00401+00091999999ADDAY181061AY221061GF105991031021002501061021MW1151REMSYN054AAXX  09124 01154 41365 52615 10040 20009 71582 83262;
0154011540999992000010918004+68580+014300FM-12+005099999V0202801N009310021019N0100001N1+00341+00181999999ADDAA112002091AY181061AY221061GF108991081071002501999999KA1999M+00551MW1641REMSYN070AAXX  09184 01154 11360 82818 10034 20018 60022 76482 887// 333 10055;
0091011540999992000011003004+68580+014300FM-12+005099999V0202801N007719999999N0250001N1+00321+00031999999ADDGF105991999999004501999999REMSYN053AAXX  10034 01154 41475 52815 10032 20003 0262 83448;
0154011540999992000011006004+68580+014300FM-12+005099999V0202601N006210090019N0250001N1+00261+00071999999ADDAA112002091AY181061AY221061GF108991081081004501999999KA1999N+00211MW1031REMSYN070AAXX  10064 01154 11475 82612 10026 20007 60022 70382 888// 333 20021;
0114011540999992000011012004+68580+014300FM-12+005099999V0201701N004610090019N0550001N1+00261-00011999999ADDAY181061AY221061GF107991061081004501061999MW1151REMSYN054AAXX  10124 01154 41485 71709 10026 21001 71582 8686/;
0154011540999992000011018004+68580+014300FM-12+005099999V0201401N007710021019N0150001N1+00321+00161999999ADDAA112000591AY161061AY221061GF108991081071002501999999KA1999M+00411MW1601REMSYN070AAXX  10184 01154 11365 81415 10032 20016 69942 76062 887// 333 10041;
0114011540999992000011103004+68580+014300FM-12+005099999V0202401N007710060019N0045001N1+00431+00291999999ADDAY181031AY221031GF108991081081002501999999MW1831REMSYN054AAXX  11034 01154 41345 82415 10043 20029 78382 888//;
0154011540999992000011106004+68580+014300FM-12+005099999V0202501N006210300019N0150001N1+00541+00221999999ADDAA112002091AY181061AY221061GF106991041031004501061081KA1999N+00321MW1151REMSYN070AAXX  11064 01154 11465 62512 10054 20022 60022 71582 84368 333 20032;
0114011540999992000011112004+68580+014300FM-12+005099999V0202501N007710021019N0150001N1+00381+00101999999ADDAY181061AY221061GF108991081071002501999999MW1161REMSYN054AAXX  11124 01154 41365 82515 10038 20010 71682 887//;
0154011540999992000011118004+68580+014300FM-12+005099999V0202601N007710060019N0250001N1+00341-00021999999ADDAA112003091AY181061AY221061GF106991051081002501061021KA1999M+00641MW1151REMSYN070AAXX  11184 01154 11375 62615 10034 21002 60032 71582 85862 333 10064;
0114011540999992000011203004+68580+014300FM-12+005099999V0201501N006212200019N0250001N1+00261+00161999999ADDAY121031AY221031GF103991021031004501041021MW1021REMSYN054AAXX  12034 01154 41475 31512 10026 20016 70222 82342;
0154011540999992000011206004+68580+014300FM-12+005099999V0201401N004610300019N0250001N1+00381+00181999999ADDAA112000191AY161061AY221061GF106991041051004501061021KA1999N+00241MW1601REMSYN070AAXX  12064 01154 11475 61409 10038 20018 69912 76062 84562 333 20024;
0114011540999992000011212004+68580+014300FM-12+005099999V0201601N004610021019N0150001N1+00341+00141999999ADDAY161061AY221061GF108991081071002501999999MW1621REMSYN054AAXX  12124 01154 41365 81609 10034 20014 76262 887//;
0154011540999992000011218004+68580+014300FM-12+005099999V0203201N006210090019N0250001N1+00401-00171999999ADDAA112002091AY161061AY221061GF108991081081004501999999KA1999M+00481MW1021REMSYN070AAXX  12184 01154 11475 83212 10040 21017 60022 70262 888// 333 10048;
0114011540999992000011303004+68580+014300FM-12+005099999V0203301N004610090019N0300001N1+00241+00081999999ADDAY181031AY221031GF108991081081004501999999MW1031REMSYN054AAXX  13034 01154 41480 83309 10024 20008 70382 888//;
0114011540999992000011312004+68580+014300FM-12+005099999V0203401N004610090019N0400001N1+00101-00451999999ADDAY181061AY221061GF107991071081004501999999MW1851REMSYN054AAXX  13124 01154 41482 73409 10010 21045 78582 878//;
0154011540999992000011318004+68580+014300FM-12+005099999V0203401N004610090019N0400001N1+00001-00251999999ADDAA112001091AY181061AY221061GF106991061081004501999999KA1999M+00101MW1021REMSYN070AAXX  13184 01154 11482 63409 10000 21025 60012 70282 868// 333 10010;
0118011540999992000011403004+68580+014300FM-12+005099999V0203001N004610090019N0400001N1+00041-00291999999ADDAY181031AY221031GF107991071081004501999999MW1021REMSYN058    AAXX  14034 01154 41482 73009 10004 21029 70282 878//;
0168011540999992000011406004+68580+014300FM-12+005099999V0201801N006210003019N0003001N1+00021-00121999999ADDAA112002091AY181061AY221061GA1091+999999999GF109991091999999999999999KA1999N-00051MW1861REMSYN068    AAXX  14064 01154 11/03 91812 10002 21012 60022 78682 333 21005;
0118011540999992000011412004+68580+014300FM-12+005099999V0202801N006210090019N0400001N1+00281+00151999999ADDAY181061AY221061GF106991061081004501001001MW1271REMSYN058    AAXX  14124 01154 41482 62812 10028 20015 72782 86800;
0158011540999992000011418004+68580+014300FM-12+005099999V0203401N006210090019N0200001N1+00161+00011999999ADDAA112003091AY181061AY221061GF107991071081004501999999KA1999M+00401MW1851REMSYN074    AAXX  14184 01154 11470 73412 10016 20001 60032 78582 878// 333 10040;
0118011540999992000011503004+68580+014300FM-12+005099999V0203201N004610090019N0400001N1+00251+00031999999ADDAY181031AY221031GF108991081081004501999999MW1801REMSYN058    AAXX  15034 01154 41482 83209 10025 20003 78082 888//;
0168011540999992000011506004+68580+014300FM-12+005099999V0203601N004610003019N0003001N1+00201+00071999999ADDAA112006191AY181061AY221061GA1091+999999999GF109991091999999999999999KA1999N+00151MW1841REMSYN068    AAXX  15064 01154 11/03 93609 10020 20007 60062 78482 333 20015;
0118011540999992000011512004+68580+014300FM-12+005099999V0203601N004610090019N0400001N1+00151-00011999999ADDAY181061AY221061GF105991051081004501051001MW1261REMSYN058    AAXX  15124 01154 41482 53609 10015 21001 72682 85850;
0158011540999992000011518004+68580+014300FM-12+005099999V0203201N004610090019N0550001N1+00181-00401999999ADDAA112000391AY181061AY221061GF106991061081004501999999KA1999M+00301MW1021REMSYN074    AAXX  15184 01154 11485 63209 10018 21040 69932 70282 868// 333 10030;
0118011540999992000011603004+68580+014300FM-12+005099999V0202601N009810090019N0100001N1+00501+00411999999ADDAY181031AY221031GF108991081081004501999999MW1811REMSYN058    AAXX  16034 01154 41460 82619 10050 20041 78182 888//;
0158011540999992000011606004+68580+014300FM-12+005099999V0203001N009810090019N0400001N1+00551+00461999999ADDAA112004191AY181061AY221061GF108991081081004501999999KA1999N+00101MW1251REMSYN074    AAXX  16064 01154 11482 83019 10055 20046 60042 72582 888// 333 20010;
0118011540999992000011612004+68580+014300FM-12+005099999V0202801N011310060019N0150001N1+00501+00161999999ADDAY181061AY221061GF107991071081002501999999MW1251REMSYN058    AAXX  16124 01154 41365 72822 10050 20016 72582 878//;
0158011540999992000011618004+68580+014300FM-12+005099999V0203401N011310060019N0200001N1+00161-00071999999ADDAA112004191AY181061AY221061GF107991071081002501999999KA1999M+00651MW1271REMSYN074    AAXX  16184 01154 11370 73422 10016 21007 60042 72782 878// 333 10065;
0118011540999992000011703004+68580+014300FM-12+005099999V0203401N009810060019N0100001N1+00161+00011999999ADDAY181031AY221031GF108991081081002501999999MW1271REMSYN058    AAXX  17034 01154 41360 83419 10016 20001 72782 888//;
0158011540999992000011706004+68580+014300FM-12+005099999V0203401N006210060019N0200001N1+00351+00201999999ADDAA112002091AY181061AY221061GF108991081081002501999999KA1999N+00051MW1801REMSYN074    AAXX  17064 01154 11370 83412 10035 20020 60022 78082 888// 333 20005;
0118011540999992000011712004+68580+014300FM-12+005099999V0203401N007710060019N0200001N1+00451+00281999999ADDAY181061AY221061GF107991071081002501999999MW1801REMSYN058    AAXX  17124 01154 41370 73415 10045 20028 78082 878//;
0158011540999992000011718004+68580+014300FM-12+005099999V0203601N006210060019N0400001N1+00381+00081999999ADDAA112003091AY181061AY221061GF106991061081002501001001KA1999M+00501MW1801REMSYN074    AAXX  17184 01154 11382 63612 10038 20008 60032 78082 86800 333 10050;
0118011540999992000011803004+68580+014300FM-12+005099999V0200401N003112200019N0400001N1+00201-00371999999ADDAY121031AY221031GF104991041081008001001001MW1011REMSYN058    AAXX  18034 01154 41582 40406 10020 21037 70122 84800;
0158011540999992000011806004+68580+014300FM-12+005099999V0200401N003112200019N0750001N1+00101-00561999999ADDAA112000191AY181061AY221061GF104991041081008001081001KA1999N+00101MW1021REMSYN074    AAXX  18064 01154 11589 40406 10010 21056 69912 70282 84880 333 20010;
0118011540999992000011812004+68580+014300FM-12+005099999V0203601N007710060019N0150001N1+00081-00041999999ADDAY181061AY221061GF108991081081002501999999MW1861REMSYN058    AAXX  18124 01154 41365 83615 10008 21004 78682 888//;
0158011540999992000011818004+68580+014300FM-12+005099999V0203601N004110060019N0200001N1-00201-00321999999ADDAA112005191AY181061AY221061GF108991081081002501999999KA1999M+00251MW1261REMSYN074    AAXX  18184 01154 11370 83608 11020 21032 60052 72682 888// 333 10025;
0118011540999992000011903004+68580+014300FM-12+005099999V0203601N004610090019N0250001N1-00341-00471999999ADDAY181031AY221031GF107991071081004501999999MW1261REMSYN058    AAXX  19034 01154 41475 73609 11034 21047 72682 878//;
0118011540999992000011912004+68580+014300FM-12+005099999V0203201N007710120019N0200001N1-00221-00771999999ADDAY181061AY221061GF108991081081008001999999MW1861REMSYN058    AAXX  19124 01154 41570 83215 11022 21077 78682 888//;
0154011540999992000011918004+68580+014300FM-12+005099999V0203201N004610075019N0400001N1-00201-00971999999ADDAA112001091AY181061AY221061GF105991051091008001061001KA1999M-00101MW1271REMSYN070AAXX  19184 01154 11582 53209 11020 21097 60012 72782 85960 333 11010;
0124011540999992000012003004+68580+014300FM-12+005099999V0203601N006210001519N0001001N1-00321-00441999999ADDAY181031AY221031GA1091+999999999GF109991091999999999999999MW1861REMSYN048AAXX  20034 01154 41/01 93612 11032 21044 78682;
0164011540999992000012006004+68580+014300FM-12+005099999V0203601N006210001519N0001001N1-00351-00691999999ADDAA112003091AY181061AY221061GA1091+999999999GF109991091999999999999999KA1999N-00351MW1861REMSYN064AAXX  20064 01154 11/01 93612 11035 21069 60032 78682 333 21035;
0124011540999992000012012004+68580+014300FM-12+005099999V0203601N007710003019N0005001N1-00381-00791999999ADDAY181061AY221061GA1091+999999999GF109991091999999999999999MW1861REMSYN048AAXX  20124 01154 41/05 93615 11038 21079 78682;
0164011540999992000012018004+68580+014300FM-12+005099999V0203601N007710003019N0003001N1-00501-00981999999ADDAA112000891AY181061AY221061GA1091+999999999GF109991091999999999999999KA1999M-00101MW1861REMSYN064AAXX  20184 01154 11/03 93615 11050 21098 69982 78682 333 11010;
0114011540999992000012103004+68580+014300FM-12+005099999V0200401N003110060019N0030001N1-00551-00691999999ADDAY181031AY221031GF107991071081002501999999MW1261REMSYN054AAXX  21034 01154 41330 70406 11055 21069 72682 878//;
0164011540999992000012106004+68580+014300FM-12+005099999V0200401N003110003019N0002001N1-00521-00661999999ADDAA112008991AY181061AY221061GA1091+999999999GF109991091999999999999999KA1999N-00601MW1861REMSYN064AAXX  21064 01154 11/02 90406 11052 21066 60092 78682 333 21060;
0124011540999992000012112004+68580+014300FM-12+005099999V0200401N003110006019N0010001N1-00481-00621999999ADDAY181061AY221061GA1091+999999999GF109991091999999999999999MW1861REMSYN048AAXX  21124 01154 41/10 90406 11048 21062 78682;
0154011540999992000012118004+68580+014300FM-12+005099999V0201301N003110042019N0400001N1-00381-00601999999ADDAA112005191AY181061AY221061GF107991071091004501999999KA1999M-00351MW1271REMSYN070AAXX  21184 01154 11482 71306 11038 21060 60052 72782 879// 333 11035;
0124011540999992000012203004+68580+014300FM-12+005099999V0200501N003110003019N0003001N1-00481-00621999999ADDAY181031AY221031GA1091+999999999GF109991091999999999999999MW1861REMSYN048AAXX  22034 01154 41/03 90506 11048 21062 78682;
0148011540999992000012206004+68580+014300FM-12+005099999V0200501N003119999999N0400001N1-00501-00641999999ADDAA112003091AY181061AY221061GF107991999999002501999999KA1999N-00501MW1261REMSYN064AAXX  22064 01154 11382 70506 11050 21064 60032 72682 333 21050;
0133011540999992000012212004+68580+014300FM-12+005099999V0203601N002119999999N0400001N1-00401-00541999999ADDAY181061AY221061GF106991999081004501061001MW1261REMSYN054AAXX  22124 01154 41482 63604 11040 21054 72682 87860;EQDQ01+000072SCOTLC
0164011540999992000012218004+68580+014300FM-12+005099999V0203401N002110003019N0003001N1-00251-00471999999ADDAA112003091AY181061AY221061GA1091+999999999GF109991091999999999999999KA1999M-00201MW1861REMSYN064AAXX  22184 01154 11/03 93404 11025 21047 60032 78682 333 11020;
0114011540999992000012303004+68580+014300FM-12+005099999V0203001N003110090019N0400001N1-00201-00321999999ADDAY181031AY221031GF106991061081004501001001MW1261REMSYN054AAXX  23034 01154 41482 63006 11020 21032 72682 86800;
0154011540999992000012306004+68580+014300FM-12+005099999V0202401N003110090019N0400001N1-00101-00441999999ADDAA112003091AY181061AY221061GF106991061081004501021999KA1999N-00401MW1261REMSYN070AAXX  23064 01154 11482 62406 11010 21044 60032 72682 8682/ 333 21040;
0164011540999992000012318004+68580+014300FM-12+005099999V0201801N004610003019N0005001N1+00001-00191999999ADDAA112000391AY181061AY221061GA1091+999999999GF109991091999999999999999KA1999M+00101MW1861REMSYN064AAXX  23184 01154 11/05 91809 10000 21019 69932 78682 333 10010;
0114011540999992000012403004+68580+014300FM-12+005099999V0201801N004610060019N0300001N1+00141-00071999999ADDAY181031AY221031GF108991081081002501999999MW1161REMSYN054AAXX  24034 01154 41380 81809 10014 21007 71682 888//;
0154011540999992000012406004+68580+014300FM-12+005099999V0201201N004610060019N0300001N1+00101-00061999999ADDAA112000191AY181061AY221061GF108991081081002501999999KA1999N+00001MW1161REMSYN070AAXX  24064 01154 11380 81209 10010 21006 69922 71682 888// 333 20000;
0114011540999992000012412004+68580+014300FM-12+005099999V0201801N004610042019N0400001N1+00201+00041999999ADDAY161061AY221061GF108991081051004501999999MW1601REMSYN054AAXX  24124 01154 41482 81809 10020 20004 76062 885//;
0154011540999992000012418004+68580+014300FM-12+005099999V0202001N004610042019N0400001N1+00351+00091999999ADDAA112001091AY161061AY221061GF107991071051004501999999KA1999M+00351MW1021REMSYN070AAXX  24184 01154 11482 72009 10035 20009 60012 70262 875// 333 10035;
0114011540999992000012503004+68580+014300FM-12+005099999V0203001N007712200019N0200001N1+00501+00281999999ADDAY181031AY221031GF102991021031002501001001MW1011REMSYN054AAXX  25034 01154 41370 23015 10050 20028 70182 82300;
0154011540999992000012506004+68580+014300FM-12+005099999V0203201N009810060019N0200001N1+00451+00151999999ADDAA112000891AY181061AY221061GF107991071081002501999999KA1999N+00301MW1031REMSYN070AAXX  25064 01154 11370 73219 10045 20015 69982 70382 878// 333 20030;
0133011540999992000012512004+68580+014300FM-12+005099999V0203201N004610090019N0300001N1+00501+00241999999ADDAY121061AY221061GF108991999081004501021999MW1021REMSYN054AAXX  25124 01154 41480 83209 10050 20024 70222 8882/;EQDQ01+000082SCOTLC
0154011540999992000012518004+68580+014300FM-12+005099999V0202801N006210060019N0100001N1+00581+00451999999ADDAA112001091AY181061AY221061GF108991081081001501999999KA1999M+00601MW1811REMSYN070AAXX  25184 01154 11260 82812 10058 20045 60012 78182 888// 333 10060;
0114011540999992000012603004+68580+014300FM-12+005099999V0203001N011310060019N0200001N1+00481+00111999999ADDAY121031AY221031GF108991081081002501999999MW1021REMSYN054AAXX  26034 01154 41370 83022 10048 20011 70222 888//;
0154011540999992000012606004+68580+014300FM-12+005099999V0203201N011310060019N0200001N1+00301+00081999999ADDAA112005191AY181061AY221061GF105991051081002501001001KA1999N+00251MW1251REMSYN070AAXX  26064 01154 11370 53222 10030 20008 60052 72582 85800 333 20025;
0114011540999992000012612004+68580+014300FM-12+005099999V0203201N009810060019N0200001N1+00161+00041999999ADDAY181061AY221061GF105991051081002501001001MW1271REMSYN054AAXX  26124 01154 41370 53219 10016 20004 72782 85800;
0154011540999992000012618004+68580+014300FM-12+005099999V0203401N006212200019N0400001N1+00041+00001999999ADDAA112002091AY181061AY221061GF103991031031004501001001KA1999M+00501MW1011REMSYN070AAXX  26184 01154 11482 33412 10004 20000 60022 70182 83300 333 10050;
0124011540999992000012703004+68580+014300FM-12+005099999V0203601N006210003019N0005001N1-00251-00581999999ADDAY181031AY221031GA1091+999999999GF109991091999999999999999MW1861REMSYN048AAXX  27034 01154 41/05 93612 11025 21058 78682;
0173011540999992000012706004+68580+014300FM-12+005099999V0203201N006219999999N0200001N1-00151-00731999999ADDAA112002091AY181061AY221061GF106991999091002501999999KA1999N-00251MW1271REMSYN070AAXX  27064 01154 11370 63212 11015 21073 60022 72782 879// 333 21025;EQDQ01+000072SCOTLC
0114011540999992000012712004+68580+014300FM-12+005099999V0203501N006212200019N0300001N1-00361-00951999999ADDAY181061AY211061GF103991031091002501001001MW1151REMSYN054AAXX  27124 01154 41380 33512 11036 21095 71581 83900;
0154011540999992000012718004+68580+014300FM-12+005099999V0203201N004610021019N0200001N1-00391-00781999999ADDAA112001091AY181061AY211061GF105991051091002501001001KA1999M-00101MW1261REMSYN070AAXX  27184 01154 11370 53209 11039 21078 60012 72681 85900 333 11010;
0114011540999992000012803004+68580+014300FM-12+005099999V0203201N006210060019N0200001N1-00311-00841999999ADDAY181031AY221031GF107991071081002501999999MW1151REMSYN054AAXX  28034 01154 41370 73212 11031 21084 71582 878//;
0154011540999992000012806004+68580+014300FM-12+005099999V0203201N004610060019N0100001N1-00361-00601999999ADDAA112004191AY181061AY231061GF108991081081002501999999KA1999N-00431MW1851REMSYN070AAXX  28064 01154 11360 83209 11036 21060 60042 78583 888// 333 21043;
0114011540999992000012812004+68580+014300FM-12+005099999V0203201N004610060019N0100001N1-00421-00601999999ADDAY181061AY221061GF108991081081002501999999MW1851REMSYN054AAXX  28124 01154 41360 83209 11042 21060 78582 888//;
0154011540999992000012818004+68580+014300FM-12+005099999V0200901N001010060019N0100001N1-00481-00591999999ADDAA112001091AY181061AY221061GF108991081081002501999999KA1999M-00341MW1851REMSYN070AAXX  28184 01154 11360 80902 11048 21059 60012 78582 888// 333 11034;
0124011540999992000012903004+68580+014300FM-12+005099999V0201301N003110003019N0005001N1-00521-00641999999ADDAY181031AY221031GA1091+999999999GF109991091999999999999999MW1871REMSYN048AAXX  29034 01154 41/05 91306 11052 21064 78782;
0154011540999992000012906004+68580+014300FM-12+005099999V0201301N003110060019N0200001N1-00461-00891999999ADDAA112005191AY181061AY221061GF107991061081002501061999KA1999N-00561MW1151REMSYN070AAXX  29064 01154 11370 71306 11046 21089 60052 71582 8686/ 333 21056;
0114011540999992000012912004+68580+014300FM-12+005099999V0200501N004612200019N0750001N1-00601-00891999999ADDAY121061AY211061GF105991011041004501001061MW1031REMSYN054AAXX  29124 01154 41489 50509 11060 21089 70321 81406;
0167011540999992000012918004+68580+014300FM-12+005099999V0200501N004610750019N0750001N1-00601-01321999999ADDAA199000091AY121061AY221061GF107991011041004501001081KA1999M-00441MW1021REMSYN064AAXX  29184 01154 31489 70509 11060 21132 70222 81408 333 11044;EQDQ01  00002PRCP99
0124011540999992000013003004+68580+014300FM-12+005099999V0203601N004610003019N0005001N1-00421-00511999999ADDAY171031AY221031GA1091+999999999GF109991091999999999999999MW1731REMSYN048AAXX  30034 01154 41/05 93609 11042 21051 77372;
0164011540999992000013006004+68580+014300FM-12+005099999V0203601N002110024019N0050001N1-00441-00531999999ADDAA112006191AY171061AY221061GA1091+999999999GF109991091999999999999999KA1999N-00621MW1731REMSYN064AAXX  30064 01154 11/50 93604 11044 21053 60062 77372 333 21062;
0124011540999992000013012004+68580+014300FM-12+005099999V0203201N015410003019N0005001N1-00261-00341999999ADDAY171061AY221061GA1091+999999999GF109991091999999999999999MW1731REMSYN048AAXX  30124 01154 41/05 93230 11026 21034 77372;
0164011540999992000013018004+68580+014300FM-12+005099999V0203201N007710003019N0005001N1-00601-00871999999ADDAA112022191AY171061AY221061GA1091+999999999GF109991091999999999999999KA1999M-00221MW1731REMSYN064AAXX  30184 01154 11/05 93215 11060 21087 60222 77372 333 11022;
0114011540999992000013103004+68580+014300FM-12+005099999V0203201N006210021019N0100001N1-00561-00791999999ADDAY181031AY221031GF108991081091002501999999MW1851REMSYN054AAXX  31034 01154 41360 83212 11056 21079 78582 889//;
0154011540999992000013106004+68580+014300FM-12+005099999V0202701N007710060019N0100001N1-00381-00701999999ADDAA112005191AY181061AY221061GF108991081081002501999999KA1999N-00621MW1851REMSYN070AAXX  31064 01154 11360 82715 11038 21070 60052 78582 888// 333 21062;
0114011540999992000013112004+68580+014300FM-12+005099999V0202501N007710060019N0200001N1-00201-00731999999ADDAY181061AY221061GF107991071081002501999999MW1261REMSYN054AAXX  31124 01154 41370 72515 11020 21073 72682 878//;
0164011540999992000013118004+68580+014300FM-12+005099999V0203201N013410003019N0005001N1+00091-00011999999ADDAA112008991AY181061AY221061GA1091+999999999GF109991091999999999999999KA1999M+00181MW1801REMSYN064AAXX  31184 01154 11/05 93226 10009 21001 60092 78082 333 10018;
0114011540999992000020103004+68580+014300FM-12+005099999V0203201N006210300019N0300001N1-00011-00671999999ADDAY181031AY221031GF105991041091002501061001MW1151REMSYN054AAXX  01034 01154 41380 53212 11001 21067 71582 84960;
0154011540999992000020106004+68580+014300FM-12+005099999V0203201N006212200019N0300001N1-00081-00371999999ADDAA112001091AY181061AY211061GF103991031091002501001001KA1999N-00121MW1151REMSYN070AAXX  01064 01154 11380 33212 11008 21037 60012 71581 83900 333 21012;
0114011540999992000020112004+68580+014300FM-12+005099999V0203201N006210021019N0300001N1+00011-00211999999ADDAY181061AY211061GF107991071091002501999999MW1261REMSYN054AAXX  01124 01154 41380 73212 10001 21021 72681 879//;
0179011540999992000020115004+68580+014300FM-12+005099999V0202601N002112200019N0500001N1+99999+99999101521ADDGA1011+012009069GF103991011051000751001011MD1999999-0561REMSYN076AAXX  01154 01154 41184 32604 10215 20122 40152 81501 333 59056 81640 83075;EQDQ01+002153ATOT  Q02+001223ATOD  
0154011540999992000020118004+68580+014300FM-12+005099999V0203401N004612200019N0750001N1-00121-00641999999ADDAA112001091AY181061AY211061GF102991021081002501001001KA1999M+00061MW1011REMSYN070AAXX  01184 01154 11389 23409 11012 21064 60012 70181 82800 333 10006;
0114011540999992000020203004+68580+014300FM-12+005099999V0203601N004612200019N0750001N1-00301-00501999999ADDAY181031AY221031GF102991021091002501001001MW1151REMSYN054AAXX  02034 01154 41389 23609 11030 21050 71582 82900;
0154011540999992000020206004+68580+014300FM-12+005099999V0203601N004610300019N0300001N1-00241-00511999999ADDAA112001091AY181061AY211061GF105991041081002501061001KA1999N-00361MW1261REMSYN070AAXX  02064 01154 11380 53609 11024 21051 60012 72681 84860 333 21036;
0114011540999992000020212004+68580+014300FM-12+005099999V0203201N004610060019N0300001N1-00221-00401999999ADDAY181061AY221061GF106991061081002501999999MW1261REMSYN054AAXX  02124 01154 41380 63209 11022 21040 72682 868//;
0164011540999992000020218004+68580+014300FM-12+005099999V0202401N004610003019N0005001N1-00261-00341999999ADDAA112003091AY181061AY221061GA1091+999999999GF109991091999999999999999KA1999M-00181MW1861REMSYN064AAXX  02184 01154 11/05 92409 11026 21034 60032 78682 333 11018;
0114011540999992000020303004+68580+014300FM-12+005099999V0203601N004610060019N0300001N1+00061-00221999999ADDAY181031AY221031GF108991081081002501999999MW1151REMSYN054AAXX  03034 01154 41380 83609 10006 21022 71582 888//;
0154011540999992000020306004+68580+014300FM-12+005099999V0203601N006210060019N0300001N1+00041-00331999999ADDAA112003091AY181061AY221061GF108991081081002501999999KA1999N-00291MW1261REMSYN070AAXX  03064 01154 11380 83612 10004 21033 60032 72682 888// 333 21029;
0114011540999992000020312004+68580+014300FM-12+005099999V0203201N007710300019N0200001N1-00121-00431999999ADDAY181061AY221061GF108991031091002501061071MW1151REMSYN054AAXX  03124 01154 41370 83215 11012 21043 71582 83967;
0154011540999992000020318004+68580+014300FM-12+005099999V0202501N005710060019N0200001N1+00041-00151999999ADDAA112003091AY181061AY221061GF108991081081002501999999KA1999M+00091MW1261REMSYN070AAXX  03184 01154 11370 82511 10004 21015 60032 72682 888// 333 10009;
0124011540999992000020403004+68580+014300FM-12+005099999V0201401N007710003019N0005001N1-00041-00121999999ADDAY181031AY221031GA1091+999999999GF109991091999999999999999MW1861REMSYN048AAXX  04034 01154 41/05 91415 11004 21012 78682;
0154011540999992000020406004+68580+014300FM-12+005099999V0201401N006210060019N0040001N1+00081+00001999999ADDAA112000391AY181061AY221061GF108991081081002501999999KA1999N-00081MW1831REMSYN070AAXX  04064 01154 11340 81412 10008 20000 69932 78382 888// 333 21008;
0114011540999992000020412004+68580+014300FM-12+005099999V0203201N006210021019N0010001N1+00141+00041999999ADDAY181061AY221061GF108991081091002501999999MW1841REMSYN054AAXX  04124 01154 41310 83212 10014 20004 78482 889//;
0154011540999992000020418004+68580+014300FM-12+005099999V0203201N006210060019N0300001N1+00021-00421999999ADDAA112004191AY181061AY221061GF107991051081002501061999KA1999M+00351MW1021REMSYN070AAXX  04184 01154 11380 73212 10002 21042 60042 70282 8586/ 333 10035;
0114011540999992000020503004+68580+014300FM-12+005099999V0203201N004612200019N0300001N1-00041-00171999999ADDAY181031AY221031GF103991021081002501061001MW1021REMSYN054AAXX  05034 01154 41380 33209 11004 21017 70282 82860;
0154011540999992000020506004+68580+014300FM-12+005099999V0203201N004610060019N0300001N1+00061-00401999999ADDAA112000891AY121061AY211061GF108991081081002501999999KA1999N-00081MW1151REMSYN070AAXX  05064 01154 11380 83209 10006 21040 69982 71521 888// 333 21008;
0114011540999992000020512004+68580+014300FM-12+005099999V0201801N004610060019N0750001N1+00041-00371999999ADDAY121061AY221061GF108991061081002501061999MW1021REMSYN054AAXX  05124 01154 41389 81809 10004 21037 70222 8686/;
0167011540999992000020518004+68580+014300FM-12+005099999V0201401N005710021019N0300001N1+00021-00141999999ADDAA199000091AY121061AY221061GF108991081051002501999999KA1999M+00111MW1021REMSYN064AAXX  05184 01154 31380 81411 10002 21014 70222 885// 333 10011;EQDQ01  00002PRCP99
0114011540999992000020603004+68580+014300FM-12+005099999V0201401N005710060019N0200001N1+00461+00341999999ADDAY181031AY221031GF108991081081002501999999MW1151REMSYN054AAXX  06034 01154 41370 81411 10046 20034 71582 888//;
0154011540999992000020606004+68580+014300FM-12+005099999V0201401N007710060019N0100001N1+00321+00191999999ADDAA112000391AY181061AY221061GF108991081081002501999999KA1999N+00021MW1801REMSYN070AAXX  06064 01154 11360 81415 10032 20019 69932 78082 888// 333 20002;
0114011540999992000020612004+68580+014300FM-12+005099999V0202301N006210300019N0100001N1+00521+00361999999ADDAY181061AY221061GF106991031081002501021999MW1151REMSYN054AAXX  06124 01154 41360 62312 10052 20036 71582 8382/;
0154011540999992000020618004+68580+014300FM-12+005099999V0202301N006210300019N0300001N1+00421+00221999999ADDAA112000191AY181061AY221061GF106991031081002501021999KA1999M+00601MW1251REMSYN070AAXX  06184 01154 11380 62312 10042 20022 69922 72582 8382/ 333 10060;
0114011540999992000020703004+68580+014300FM-12+005099999V0202701N006210060019N0200001N1+00341+00211999999ADDAY181031AY221031GF106991051081002501021999MW1021REMSYN054AAXX  07034 01154 41370 62712 10034 20021 70282 8582/;
0154011540999992000020706004+68580+014300FM-12+005099999V0202701N004610060019N0300001N1+00381+00161999999ADDAA112001091AY121061AY221061GF107991051081002501021999KA1999N+00291MW1021REMSYN070AAXX  07064 01154 11380 72709 10038 20016 60012 70222 8582/ 333 20029;
0114011540999992000020712004+68580+014300FM-12+005099999V0201801N002110300019N0300001N1+00341+00191999999ADDAY181061AY221061GF108991041081004501021999MW1021REMSYN054AAXX  07124 01154 41480 81804 10034 20019 70282 8482/;
0154011540999992000020718004+68580+014300FM-12+005099999V0203601N002110300019N0300001N1+00241+00031999999ADDAA112000191AY121061AY221061GF108991021081004501071021KA1999M+00411MW1021REMSYN070AAXX  07184 01154 11480 83604 10024 20003 69912 70222 82872 333 10041;
0114011540999992000020803004+68580+014300FM-12+005099999V0203201N004610060019N0300001N1+00181-00031999999ADDAY121031AY221031GF108991081081002501999999MW1021REMSYN054AAXX  08034 01154 41380 83209 10018 21003 70222 888//;
0167011540999992000020806004+68580+014300FM-12+005099999V0203201N003110060019N0200001N1+00041-00091999999ADDAA199000091AY121061AY221061GF108991081081002501999999KA1999N+00021MW1151REMSYN064AAXX  08064 01154 31370 83206 10004 21009 71522 888// 333 20002;EQDQ01  00002PRCP99
0114011540999992000020812004+68580+014300FM-12+005099999V0203001N007710060019N0040001N1+00061-00131999999ADDAY181061AY221061GF108991081081002501999999MW1851REMSYN054AAXX  08124 01154 41340 83015 10006 21013 78582 888//;
0164011540999992000020818004+68580+014300FM-12+005099999V0203201N004610003019N0005001N1+00071-00011999999ADDAA112001091AY181061AY221061GA1091+999999999GF109991091999999999999999KA1999M+00101MW1861REMSYN064AAXX  08184 01154 11/05 93209 10007 21001 69992 78682 333 10010;
0114011540999992000020903004+68580+014300FM-12+005099999V0203201N004610060019N0300001N1+00201-00051999999ADDAY181031AY221031GF108991081081002501999999MW1021REMSYN054AAXX  09034 01154 41380 83209 10020 21005 70282 888//;
0154011540999992000020906004+68580+014300FM-12+005099999V0203201N004610060019N0200001N1+00141+00061999999ADDAA112006191AY181061AY221061GF108991081081002501999999KA1999N+00061MW1151REMSYN070AAXX  09064 01154 11370 83209 10014 20006 60062 71582 888// 333 20006;
0114011540999992000020912004+68580+014300FM-12+005099999V0202501N007710060019N0100001N1+00161+00081999999ADDAY181061AY221061GF108991081081002501999999MW1841REMSYN054AAXX  09124 01154 41360 82515 10016 20008 78482 888//;
0154011540999992000020918004+68580+014300FM-12+005099999V0203001N007710060019N0300001N1+00281+00121999999ADDAA112002091AY181061AY221061GF107991071081002501999999KA1999M+00381MW1021REMSYN070AAXX  09184 01154 11380 73015 10028 20012 60022 70282 878// 333 10038;
0114011540999992000021003004+68580+014300FM-12+005099999V0201501N003110300019N0750001N1+00121-00011999999ADDAY121031AY211031GF107991031081004501061071MW1021REMSYN054AAXX  10034 01154 41489 71506 10012 21001 70221 83867;
0167011540999992000021006004+68580+014300FM-12+005099999V0201501N004610042019N0750001N1+00141-00051999999ADDAA199000091AY121061AY221061GF108991081051004501999999KA1999N+00041MW1021REMSYN064AAXX  10064 01154 31489 81509 10014 21005 70222 885// 333 20004;EQDQ01  00002PRCP99
0114011540999992000021012004+68580+014300FM-12+005099999V0201301N006210021019N0010001N1+00061-00041999999ADDAY171061AY221061GF108991081051002501999999MW1731REMSYN054AAXX  10124 01154 41310 81312 10006 21004 77372 885//;
0154011540999992000021018004+68580+014300FM-12+005099999V0201201N006210060019N0150001N1+00381+00261999999ADDAA112001091AY171061AY221061GF108991081081002501999999KA1999M+00421MW1151REMSYN070AAXX  10184 01154 11365 81212 10038 20026 69992 71572 888// 333 10042;
0114011540999992000021103004+68580+014300FM-12+005099999V0201601N006210090019N0550001N1+00371+00201999999ADDAY181031AY221031GF108991081081004501999999MW1031REMSYN054AAXX  11034 01154 41485 81612 10037 20020 70382 888//;
0154011540999992000021106004+68580+014300FM-12+005099999V0202801N007710090019N0150001N1+00381+00181999999ADDAA112000191AY181061AY221061GF108991081081004501999999KA1999N+00341MW1031REMSYN070AAXX  11064 01154 11465 82815 10038 20018 69922 70382 888// 333 20034;
0114011540999992000021112004+68580+014300FM-12+005099999V0201701N007710300019N0250001N1+00361+00001999999ADDAY181061AY221061GF105991031061004501061081MW1021REMSYN054AAXX  11124 01154 41475 51715 10036 20000 70282 83668;
0154011540999992000021118004+68580+014300FM-12+005099999V0203401N002110021019N0045001N1+00261+00121999999ADDAA112000591AY161061AY221061GF108991081071002501999999KA1999M+00411MW1631REMSYN070AAXX  11184 01154 11345 83404 10026 20012 69942 76362 887// 333 10041;
0114011540999992000021203004+68580+014300FM-12+005099999V0203001N004612200019N0550001N1+00301+00081999999ADDAY181031AY221031GF104991031031004501061021MW1021REMSYN054AAXX  12034 01154 41485 43009 10030 20008 70282 83362;
0154011540999992000021206004+68580+014300FM-12+005099999V0201401N004610120019N0250001N1+00321+00011999999ADDAA112001091AY121061AY221061GF108991081081008001999999KA1999N+00231MW1031REMSYN070AAXX  12064 01154 11575 81409 10032 20001 60012 70322 888// 333 20023;
0114011540999992000021212004+68580+014300FM-12+005099999V0201601N007710042019N0200001N1+00431+00271999999ADDAY161061AY221061GF108991081071004501999999MW1601REMSYN054AAXX  12124 01154 41470 81615 10043 20027 76062 887//;
0154011540999992000021218004+68580+014300FM-12+005099999V0201401N006210042019N0250001N1+00421+00251999999ADDAA112000191AY161061AY221061GF108991081071004501999999KA1999M+00471MW1601REMSYN070AAXX  12184 01154 11475 81412 10042 20025 69922 76062 887// 333 10047;
0114011540999992000021303004+68580+014300FM-12+005099999V0201601N006210090019N0550001N1+00281+00151999999ADDAY161031AY221031GF107991061081004501071999MW1031REMSYN054AAXX  13034 01154 41485 71612 10028 20015 70362 8687/;
0154011540999992000021306004+68580+014300FM-12+005099999V0201001N004610300019N0550001N1+00221+00091999999ADDAA112004191AY171061AY221061GF106991041031004501061081KA1999N+00201MW1031REMSYN070AAXX  13064 01154 11485 61009 10022 20009 60042 70372 84368 333 20020;
0114011540999992000021312004+68580+014300FM-12+005099999V0200401N002110300019N0750001N1+00231+00071999999ADDAY121061AY221061GF106991031011008001031061MW1021REMSYN054AAXX  13124 01154 41589 60404 10023 20007 70222 83136;
0167011540999992000021318004+68580+014300FM-12+005099999V0203401N003110090019N0750001N1+00221+00071999999ADDAA199000091AY121061AY221061GF108991081081004501999999KA1999M+00251MW1031REMSYN064AAXX  13184 01154 31489 83406 10022 20007 70322 888// 333 10025;EQDQ01  00002PRCP99
0114011540999992000021403004+68580+014300FM-12+005099999V0203401N007710090019N0550001N1+00381+00241999999ADDAY181031AY221031GF108991081081004501999999MW1031REMSYN054AAXX  14034 01154 41485 83415 10038 20024 70382 888//;
0154011540999992000021406004+68580+014300FM-12+005099999V0203201N008710021019N0250001N1+00341+00211999999ADDAA112000191AY181061AY221061GF108991081071002501999999KA1999N+00161MW1681REMSYN070AAXX  14064 01154 11375 83217 10034 20021 69922 76882 887// 333 20016;
0114011540999992000021412004+68580+014300FM-12+005099999V0203001N007710042019N0250001N1+00331+00041999999ADDAY181061AY221061GF107991071051004501999999MW1151REMSYN054AAXX  14124 01154 41475 73015 10033 20004 71582 875//;
0154011540999992000021418004+68580+014300FM-12+005099999V0202801N007710060019N0200001N1+00241+00051999999ADDAA112003091AY181061AY221061GF108991081081002501999999KA1999M+00361MW1151REMSYN070AAXX  14184 01154 11370 82815 10024 20005 60032 71582 888// 333 10036;
0114011540999992000021503004+68580+014300FM-12+005099999V0201801N004612200019N0750001N1+00241+00091999999ADDAY181031AY221031GF104991031011004501041021MW1021REMSYN054AAXX  15034 01154 41489 41809 10024 20009 70282 83142;
0154011540999992000021506004+68580+014300FM-12+005099999V0201601N004612200019N0750001N1+00221+00061999999ADDAA112000591AY181061AY221061GF102991011041004501041011KA1999N+00201MW1021REMSYN070AAXX  15064 01154 11489 21609 10022 20006 69962 70282 81441 333 20020;
0114011540999992000021512004+68580+014300FM-12+005099999V0201201N004610300019N0550001N1+00231+00071999999ADDAY121061AY221061GF107991031041002501041081MW1031REMSYN054AAXX  15124 01154 41385 71209 10023 20007 70322 83448;
0167011540999992000021518004+68580+014300FM-12+005099999V0200201N002112200019N0750001N1+00041-00101999999ADDAA199000091AY121061AY221061GF103991011011002501041021KA1999M+00251MW1021REMSYN064AAXX  15184 01154 31389 30204 10004 21010 70222 81142 333 10025;EQDQ01  00002PRCP99
0114011540999992000021603004+68580+014300FM-12+005099999V0200901N003110300019N0550001N1-00031-00611999999ADDAY121031AY221031GF108991021041004501041091MW1031REMSYN054AAXX  16034 01154 41485 80906 11003 21061 70322 82449;
0167011540999992000021606004+68580+014300FM-12+005099999V0201101N004610750019N0750001N1-00081-00641999999ADDAA199000091AY121061AY221061GF106991011041004501001091KA1999N-00101MW1021REMSYN064AAXX  16064 01154 31489 61109 11008 21064 70222 81409 333 21010;EQDQ01  00002PRCP99
0114011540999992000021612004+68580+014300FM-12+005099999V0201201N003110300019N0750001N1-00041-00611999999ADDAY121061AY221061GF108991021041004501041081MW1031REMSYN054AAXX  16124 01154 41489 81206 11004 21061 70322 82448;
0167011540999992000021618004+68580+014300FM-12+005099999V0201001N003110300019N0750001N1-00111-00551999999ADDAA199000091AY121061AY221061GF108991011011004501041091KA1999M-00021MW1031REMSYN064AAXX  16184 01154 31489 81006 11011 21055 70322 81149 333 11002;EQDQ01  00002PRCP99
0114011540999992000021703004+68580+014300FM-12+005099999V0201001N003110300019N0750001N1-00181-00531999999ADDAY121031AY221031GF108991011011004501011091MW1031REMSYN054AAXX  17034 01154 41489 81006 11018 21053 70322 81119;
0167011540999992000021706004+68580+014300FM-12+005099999V0201001N002110300019N0750001N1-00211-00561999999ADDAA199000091AY121061AY221061GF108991021041004501011091KA1999N-00221MW1031REMSYN064AAXX  17064 01154 31489 81004 11021 21056 70322 82419 333 21022;EQDQ01  00002PRCP99
0114011540999992000021712004+68580+014300FM-12+005099999V0201001N002110300019N0750001N1-00101-00361999999ADDAY121061AY221061GF108991011011004501011081MW1031REMSYN054AAXX  17124 01154 41489 81004 11010 21036 70322 81118;
0167011540999992000021718004+68580+014300FM-12+005099999V0201401N003110300019N0750001N1-00061-00401999999ADDAA199000091AY121061AY221061GF108991011011004501011081KA1999M-00041MW1031REMSYN064AAXX  17184 01154 31489 81406 11006 21040 70322 81118 333 11004;EQDQ01  00002PRCP99
0114011540999992000021803004+68580+014300FM-12+005099999V0201601N004610300019N0750001N1-00101-00241999999ADDAY121031AY221031GF107991011041004501011081MW1031REMSYN054AAXX  18034 01154 41489 71609 11010 21024 70322 81418;
0167011540999992000021806004+68580+014300FM-12+005099999V0201601N004610300019N0750001N1-00081-00271999999ADDAA199000091AY121061AY221061GF108991011041004501021091KA1999N-00121MW1031REMSYN064AAXX  18064 01154 31489 81609 11008 21027 70322 81429 333 21012;EQDQ01  00002PRCP99
0167011540999992000021818004+68580+014300FM-12+005099999V0201601N003110300019N0550001N1-00041-00201999999ADDAA199000091AY121061AY221061GF108991031051004501081999KA1999M-00051MW1031REMSYN064AAXX  18184 01154 31485 81606 11004 21020 70322 8358/ 333 11005;EQDQ01  00002PRCP99
0124011540999992000021903004+68580+014300FM-12+005099999V0203001N006210001519N0001001N1-00051-00151999999ADDAY171031AY221031GA1091+999999999GF109991091999999999999999MW1721REMSYN048AAXX  19034 01154 41/01 93012 11005 21015 77272;
0164011540999992000021906004+68580+014300FM-12+005099999V0201401N007710001519N0001001N1-00071-00151999999ADDAA112010991AY171061AY221061GA1091+999999999GF109991091999999999999999KA1999N-00081MW1721REMSYN064AAXX  19064 01154 11401 91415 11007 21015 60112 77272 333 21008;
0114011540999992000021912004+68580+014300FM-12+005099999V0200401N003112200019N0650001N1-00171-00411999999ADDAY171061AY221061GF103991011041004501081011MW1021REMSYN054AAXX  19124 01154 41487 30406 11017 21041 70272 81481;
0154011540999992000021918004+68580+014300FM-12+005099999V0203301N004610750019N0750001N1-00041-00171999999ADDAA112001091AY181061AY221061GF105991021041004501041011KA1999M-00041MW1031REMSYN070AAXX  19184 01154 11489 53309 11004 21017 60012 70382 82441 333 11004;
0124011540999992000022003004+68580+014300FM-12+005099999V0203401N006210003019N0005001N1+00001-00131999999ADDAY181031AY221031GA1091+999999999GF109991091999999999999999MW1361REMSYN048AAXX  20034 01154 41/05 93412 10000 21013 73682;
0154011540999992000022006004+68580+014300FM-12+005099999V0203401N006210042019N0250001N1+00041-00671999999ADDAA112003091AY181061AY221061GF107991051051004501081999KA1999N-00051MW1851REMSYN070AAXX  20064 01154 11475 73412 10004 21067 60032 78582 8558/ 333 21005;
0114011540999992000022012004+68580+014300FM-12+005099999V0203601N004610300019N0150001N1-00071-00301999999ADDAY181061AY221061GF105991031031002501041021MW1151REMSYN054AAXX  20124 01154 41365 53609 11007 21030 71582 83342;
0154011540999992000022018004+68580+014300FM-12+005099999V0203401N004610021019N0200001N1-00131-00371999999ADDAA112002091AY181061AY221061GF107991051021002501061021KA1999M+00041MW1151REMSYN070AAXX  20184 01154 11370 73409 11013 21037 60022 71582 85262 333 10004;
0114011540999992000022103004+68580+014300FM-12+005099999V0203401N004610042019N0300001N1-00161-00461999999ADDAY181031AY221031GF107991051031004501061021MW1151REMSYN054AAXX  21034 01154 41480 73409 11016 21046 71582 85362;
0154011540999992000022106004+68580+014300FM-12+005099999V0203201N001012200019N0650001N1-00261-00491999999ADDAA112003091AY181061AY221061GF104991021031004501041011KA1999N-00271MW1021REMSYN070AAXX  21064 01154 11487 43202 11026 21049 60032 70282 82341 333 21027;
0167011540999992000022118004+68580+014300FM-12+005099999V0201001N003112200019N0750001N1-00231-00651999999ADDAA199000091AY121061AY221061GF101991011011008001001011KA1999M-00091MW1021REMSYN064AAXX  21184 01154 31589 11006 11023 21065 70222 81101 333 11009;EQDQ01  00002PRCP99
0124011540999992000022203004+68580+014300FM-12+005099999V0201001N003112200019N0750001N1-00311-00761999999ADDAY101031AY201031GA1001+999999999GF100991001001999999001001MW1021REMSYN048AAXX  22034 01154 41989 01006 11031 21076 70200;
0177011540999992000022206004+68580+014300FM-12+005099999V0201201N004612200019N0750001N1-00171-01251999999ADDAA199000091AY101061AY201061GA1001+999999999GF100991001001999999001001KA1999N-00341MW1021REMSYN058AAXX  22064 01154 31989 01209 11017 21125 70200 333 21034;EQDQ01  00002PRCP99
0114011540999992000022212004+68580+014300FM-12+005099999V0201601N004612200019N0750001N1-00151-01491999999ADDAY121061AY211061GF104991021001017501021081MW1031REMSYN054AAXX  22124 01154 41789 41609 11015 21149 70321 82028;
0167011540999992000022218004+68580+014300FM-12+005099999V0201301N004610300019N0750001N1-00141-01351999999ADDAA199000091AY121061AY221061GF107991041051004501081999KA1999M-00121MW1031REMSYN064AAXX  22184 01154 31489 71309 11014 21135 70322 8458/ 333 11012;EQDQ01  00002PRCP99
0133011540999992000022303004+68580+014300FM-12+005099999V0201201N004610075019N0650001N1-00021-00381999999ADDAY121031AY221031GF108991999051008001011999MW1031REMSYN054AAXX  23034 01154 41587 81209 11002 21038 70322 8851/;EQDQ01+000082SCOTLC
0167011540999992000022306004+68580+014300FM-12+005099999V0201201N006210300019N0650001N1+00001-00331999999ADDAA199000091AY121061AY221061GF107991041041008001051081KA1999N-00151MW1021REMSYN064AAXX  23064 01154 31587 71212 10000 21033 70222 84458 333 21015;EQDQ01  00002PRCP99
0124011540999992000022312004+68580+014300FM-12+005099999V0201301N006210003019N0005001N1+00041-00061999999ADDAY171061AY221061GA1091+999999999GF109991091999999999999999MW1731REMSYN048AAXX  23124 01154 41/05 91312 10004 21006 77372;
0154011540999992000022318004+68580+014300FM-12+005099999V0201601N004612200019N0750001N1+00221-00261999999ADDAA112000191AY171061AY221061GF103991031041008001041001KA1999M+00601MW1021REMSYN070AAXX  23184 01154 11589 31609 10022 21026 69912 70272 83440 333 10060;
0114011540999992000022403004+68580+014300FM-12+005099999V0201401N007710120019N0750001N1+00201-00891999999ADDAY121031AY221031GF107991071081008001999999MW1021REMSYN054AAXX  24034 01154 41589 71415 10020 21089 70222 878//;
0167011540999992000022406004+68580+014300FM-12+005099999V0201401N006210120019N0750001N1+00251-00801999999ADDAA199000091AY121061AY221061GF107991071081008001999999KA1999N+00201MW1021REMSYN064AAXX  24064 01154 31589 71412 10025 21080 70222 878// 333 20020;EQDQ01  00002PRCP99
0114011540999992000022412004+68580+014300FM-12+005099999V0201401N006210042019N0150001N1+00001-00341999999ADDAY171061AY221061GF108991081051004501999999MW1711REMSYN054AAXX  24124 01154 41465 81412 10000 21034 77172 885//;
0154011540999992000022418004+68580+014300FM-12+005099999V0201301N004610120019N0400001N1+00151-00511999999ADDAA112000191AY171061AY211061GF105991051081008001041001KA1999M+00401MW1011REMSYN070AAXX  24184 01154 11582 51309 10015 21051 69912 70171 85840 333 10040;
0133011540999992000022503004+68580+014300FM-12+005099999V0201301N004610120019N0750001N1+00151-00291999999ADDAY121031AY221031GF108991999081008001021999MW1021REMSYN054AAXX  25034 01154 41589 81309 10015 21029 70222 8882/;EQDQ01+000082SCOTLC
0167011540999992000022506004+68580+014300FM-12+005099999V0201301N004610120019N0750001N1+00151-00561999999ADDAA199000091AY121061AY221061GF108991071081008001021999KA1999N+00101MW1021REMSYN064AAXX  25064 01154 31589 81309 10015 21056 70222 8782/ 333 20010;EQDQ01  00002PRCP99
0114011540999992000022512004+68580+014300FM-12+005099999V0201301N004610075019N0750001N1+00151-00561999999ADDAY121061AY221061GF106991051011008001041081MW1021REMSYN054AAXX  25124 01154 41589 61309 10015 21056 70222 85148;
0167011540999992000022518004+68580+014300FM-12+005099999V0201301N004610120019N0750001N1+00151-00631999999ADDAA199000091AY121061AY221061GF106991061081008001999999KA1999M+00301MW1021REMSYN064AAXX  25184 01154 31589 61309 10015 21063 70222 868// 333 10030;EQDQ01  00002PRCP99
0114011540999992000022603004+68580+014300FM-12+005099999V0201301N007710120019N0750001N1+00151-00381999999ADDAY121031AY221031GF108991081081008001999999MW1021REMSYN054AAXX  26034 01154 41589 81315 10015 21038 70222 888//;
0167011540999992000022606004+68580+014300FM-12+005099999V0201501N007710120019N0750001N1+00201-00121999999ADDAA199000091AY121061AY221061GF107991071081008001999999KA1999N+00151MW1021REMSYN064AAXX  26064 01154 31589 71515 10020 21012 70222 878// 333 20015;EQDQ01  00002PRCP99
0114011540999992000022612004+68580+014300FM-12+005099999V0201801N004610090019N0400001N1+00121-00071999999ADDAY121061AY221061GF106991061081004501051999MW1021REMSYN054AAXX  26124 01154 41482 61809 10012 21007 70222 8685/;
0154011540999992000022618004+68580+014300FM-12+005099999V0201401N004610042019N0400001N1+00251-00231999999ADDAA112000191AY181061AY221061GF108991081051004501999999KA1999M+00301MW1021REMSYN070AAXX  26184 01154 11482 81409 10025 21023 69912 70282 885// 333 10030;
0114011540999992000022703004+68580+014300FM-12+005099999V0201301N006210120019N0400001N1+00301-00011999999ADDAY181031AY221031GF108991081081008001999999MW1021REMSYN054AAXX  27034 01154 41582 81312 10030 21001 70282 888//;
0154011540999992000022706004+68580+014300FM-12+005099999V0201601N004610090019N0400001N1+00351+00091999999ADDAA112002091AY181061AY221061GF107991071081004501999999KA1999N+00101MW1811REMSYN070AAXX  27064 01154 11482 71609 10035 20009 60022 78182 878// 333 20010;
0114011540999992000022712004+68580+014300FM-12+005099999V0201301N003110042019N0400001N1+00301+00041999999ADDAY121061AY221061GF108991081051004501999999MW1021REMSYN054AAXX  27124 01154 41482 81306 10030 20004 70222 885//;
0148011540999992000022718004+68580+014300FM-12+005099999V0201001N003110075019N0400001N1+00361+00051999999ADDAA199000021AY121061AY221061GF108991081051008001999999KA1999M+00451MW1021REMSYN064AAXX  27184 01154 31582 81006 10036 20005 70222 885// 333 10045;
0114011540999992000022803004+68580+014300FM-12+005099999V0201301N003110075019N0400001N1+00121-00011999999ADDAY161031AY221031GF108991081051008001999999MW1601REMSYN054AAXX  28034 01154 41582 81306 10012 21001 76062 885//;
0154011540999992000022806004+68580+014300FM-12+005099999V0201301N003110021019N0200001N1+00121-00101999999ADDAA112002091AY161061AY221061GF108991081051002501999999KA1999N+00121MW1681REMSYN070AAXX  28064 01154 11370 81306 10012 21010 60022 76862 885// 333 20012;
0114011540999992000022812004+68580+014300FM-12+005099999V0202401N004610021019N0200001N1+00201+00101999999ADDAY171061AY221061GF108991081051002501999999MW1231REMSYN054AAXX  28124 01154 41370 82409 10020 20010 72372 885//;
0154011540999992000022818004+68580+014300FM-12+005099999V0202601N003110060019N0300001N1+00391+00021999999ADDAA112004191AY181061AY221061GF107991071081002501999999KA1999M+00401MW1811REMSYN070AAXX  28184 01154 11380 72606 10039 20002 60042 78182 878// 333 10040;
0114011540999992000022903004+68580+014300FM-12+005099999V0201801N004610090019N0400001N1+00281+00081999999ADDAY121031AY221031GF108991081081004501999999MW1021REMSYN054AAXX  29034 01154 41482 81809 10028 20008 70222 888//;
0154011540999992000022906004+68580+014300FM-12+005099999V0203201N002110090019N0400001N1+00151+00021999999ADDAA112002091AY181061AY221061GF108991081081004501999999KA1999N+00151MW1801REMSYN070AAXX  29064 01154 11482 83204 10015 20002 60022 78082 888// 333 20015;
0114011540999992000022912004+68580+014300FM-12+005099999V0201801N003110042019N0750001N1+00281-00061999999ADDAY181061AY221061GF106991061051004501041999MW1011REMSYN054AAXX  29124 01154 41489 61806 10028 21006 70182 8654/;
0154011540999992000022918004+68580+014300FM-12+005099999V0201001N003110120019N0750001N1+00041-00231999999ADDAA112000191AY181061AY221061GF108991081081008001999999KA1999M+00451MW1021REMSYN070AAXX  29184 01154 11589 81006 10004 21023 69912 70282 888// 333 10045;
0124011540999992000030103004+68580+014300FM-12+005099999V0200401N004610003019N0005001N1-00361-00611999999ADDAY121031AY221031GA1091+999999999GF109991091999999999999999MW1861REMSYN048AAXX  01034 01154 41/05 90409 11036 21061 78622;
0154011540999992000030106004+68580+014300FM-12+005099999V0200401N004610060019N0150001N1-00361-00691999999ADDAA112000591AY181061AY221061GF108991081081002501999999KA1999N-00351MW1151REMSYN070AAXX  01064 01154 11365 80409 11036 21069 69952 71582 888// 333 21035;
0133011540999992000030112004+68580+014300FM-12+005099999V0200401N004619999999N0150001N1-00451-00861999999ADDAY181061AY221061GF107991999081001501999999MW1151REMSYN054AAXX  01124 01154 41265 70409 11045 21086 71582 888//;EQDQ01+000082SCOTLC
0158011540999992000030118004+68580+014300FM-12+005099999V0200401N004612200019N0750001N1-00521-01361999999ADDAY181061AY221061GF103991031041002501021061KA1999M-00251MA1999999099421MW1011REMSYN070AAXX  01184 01154 11389 30409 11052 21136 39942 70182 83426 333 11025;
0124011540999992000030203004+68580+014300FM-12+005099999V0200401N004612200019N0750001N1-00521-01311999999ADDAY101031AY201031GA1001+999999999GF100991001001999999001001MW1021REMSYN048AAXX  02034 01154 41989 00409 11052 21131 70200;
0224011540999992000030206004+68580+014300FM-12+005099999V0209999C000012200019N0750001N1-00781-01091099021ADDAA199000091AY101061AY201061GA1001+999999999GF100991001001999999001001KA1999N-00801MA1999999098861MD1210201+9999MW1021REMSYN076AAXX  02064 01154 31989 00000 11078 21109 39886 49902 52020 70200 333 21080;EQDQ01  00002PRCP99
0114011540999992000030212004+68580+014300FM-12+005099999V0201001N002112200019N0750001N1-00301-01621999999ADDAY101061AY201061GF101991011011008001021001MW1021REMSYN054AAXX  02124 01154 41589 11004 11030 21162 70200 81120;
0167011540999992000030218004+68580+014300FM-12+005099999V0201801N002112200019N0750001N1-00381-01321999999ADDAA199000091AY101061AY201061GF102991021041008001001001KA1999M-00201MW1021REMSYN064AAXX  02184 01154 31589 21804 11038 21132 70200 82400 333 11020;EQDQ01  00002PRCP99
0167011540999992000030306004+68580+014300FM-12+005099999V0201001N002112200019N0750001N1-00501-00621999999ADDAA199000091AY101061AY201061GF101991011011008001001001KA1999N-00501MW1021REMSYN064AAXX  03064 01154 31589 11004 11050 21062 70200 81100 333 21050;EQDQ01  00002PRCP99
0114011540999992000030312004+68580+014300FM-12+005099999V0200401N002110075019N0100001N1-00251-00661999999ADDAY181061AY201061GF106991061021008001031001MW1851REMSYN054AAXX  03124 01154 41560 60404 11025 21066 78580 86230;
0154011540999992000030318004+68580+014300FM-12+005099999V0200401N004612200019N0750001N1-00401-01021999999ADDAA112000191AY181061AY221061GF104991041081008001001001KA1999M-00051MW1021REMSYN070AAXX  03184 01154 11589 40409 11040 21102 69912 70282 84800 333 11005;
0114011540999992000030403004+68580+014300FM-12+005099999V0200401N004612200019N0750001N1-00481-01371999999ADDAY101031AY201031GF102991021021008001001001MW1021REMSYN054AAXX  04034 01154 41589 20409 11048 21137 70200 82200;
0167011540999992000030406004+68580+014300FM-12+005099999V0200401N003112200019N0750001N1-00481-01371999999ADDAA199000091AY101061AY201061GF103991031081008001021001KA1999N-00481MW1031REMSYN064AAXX  04064 01154 31589 30406 11048 21137 70300 83820 333 21048;EQDQ01  00002PRCP99
0114011540999992000030412004+68580+014300FM-12+005099999V0200401N003110120019N0750001N1-00301-01371999999ADDAY121061AY201061GF106991061081008001041081MW1031REMSYN054AAXX  04124 01154 41589 60406 11030 21137 70320 86848;
0167011540999992000030418004+68580+014300FM-12+005099999V0200401N003112200019N0550001N1-00321-01641999999ADDAA199000091AY121061AY211061GF103991031021008001021001KA1999M-00301MW1011REMSYN064AAXX  04184 01154 31585 30406 11032 21164 70121 83220 333 11030;EQDQ01  00002PRCP99
0114011540999992000030503004+68580+014300FM-12+005099999V0200401N003112200019N0750001N1-00401-01551999999ADDAY101031AY201031GF101991011011008001001001MW1011REMSYN054AAXX  05034 01154 41589 10406 11040 21155 70100 81100;
0177011540999992000030506004+68580+014300FM-12+005099999V0201201N002112200019N0750001N1-00321-01491999999ADDAA199000091AY101061AY201061GA1001+999999999GF100991001001999999001001KA1999N-00451MW1011REMSYN058AAXX  05064 01154 31989 01204 11032 21149 70100 333 21045;EQDQ01  00002PRCP99
0114011540999992000030512004+68580+014300FM-12+005099999V0201801N006212200019N0750001N1-00151-00801999999ADDAY101061AY201061GF102991011011008001001061MW1031REMSYN054AAXX  05124 01154 41589 21812 11015 21080 70300 81106;
0167011540999992000030518004+68580+014300FM-12+005099999V0201401N004612200019N0750001N1-00151-01641999999ADDAA199000091AY101061AY201061GF102991021001999999011001KA1999M-00051MW1021REMSYN064AAXX  05184 01154 31989 21409 11015 21164 70200 82010 333 11005;EQDQ01  00002PRCP99
0114011540999992000030603004+68580+014300FM-12+005099999V0201201N009810120019N0750001N1+00101-01531999999ADDAY121031AY201031GF108991081081008001999999MW1021REMSYN054AAXX  06034 01154 41589 81219 10010 21153 70220 888//;
0164011540999992000030606004+68580+014300FM-12+005099999V0201201N007710003019N0005001N1-00251-00541999999ADDAA112000191AY121061AY221061GA1091+999999999GF109991091999999999999999KA1999N-00251MW1711REMSYN064AAXX  06064 01154 11/05 91215 11025 21054 69912 77122 333 21025;
0114011540999992000030612004+68580+014300FM-12+005099999V0201201N007710120019N0150001N1-00281+99999999999ADDAY181061AY221061GF108991081081008001999999MW1261REMSYN054AAXX  06124 01154 41565 81215 11028 21027 72682 888//;
0154011540999992000030618004+68580+014300FM-12+005099999V0201201N006212200019N0400001N1-00241-00721999999ADDAA112000191AY121061AY201061GF103991031041008001041001KA1999M-00051MW1011REMSYN070AAXX  06184 01154 11582 31212 11024 21072 69912 70120 83440 333 11005;
0114011540999992000030703004+68580+014300FM-12+005099999V0201201N003110120019N0400001N1-00321-00731999999ADDAY121031AY201031GF108991081081008001999999MW1021REMSYN054AAXX  07034 01154 41582 81206 11032 21073 70220 888//;
0167011540999992000030706004+68580+014300FM-12+005099999V0201201N002110090019N0300001N1-00201-00601999999ADDAA199000091AY121061AY221061GF108991081081004501999999KA1999N-00351MW1021REMSYN064AAXX  07064 01154 31480 81204 11020 21060 70222 888// 333 21035;EQDQ01  00002PRCP99
0114011540999992000030712004+68580+014300FM-12+005099999V0203601N007710090019N0200001N1+00001-00661999999ADDAY181061AY221061GF106991061081004501001061MW1261REMSYN054AAXX  07124 01154 41470 63615 10000 21066 72682 86806;
0154011540999992000030718004+68580+014300FM-12+005099999V0203601N007710090019N0200001N1-00241-00681999999ADDAA112004191AY181061AY221061GF106991061081004501001001KA1999M+00051MW1261REMSYN070AAXX  07184 01154 11470 63615 11024 21068 60042 72682 86800 333 10005;
0124011540999992000030803004+68580+014300FM-12+005099999V0203601N006210003019N0003001N1-00301-00441999999ADDAY181031AY221031GA1091+999999999GF109991091999999999999999MW1861REMSYN048AAXX  08034 01154 41/03 93612 11030 21044 78682;
0154011540999992000030806004+68580+014300FM-12+005099999V0203601N004610090019N0300001N1-00281-00941999999ADDAA112001091AY181061AY221061GF106991061081004501001001KA1999N-00351MW1261REMSYN070AAXX  08064 01154 11480 63609 11028 21094 69992 72682 86800 333 21035;
0114011540999992000030812004+68580+014300FM-12+005099999V0200801N003110090019N0300001N1-00051-00761999999ADDAY181061AY221061GF106991061081004501001001MW1261REMSYN054AAXX  08124 01154 41480 60806 11005 21076 72682 86800;
0154011540999992000030818004+68580+014300FM-12+005099999V0202801N003110090019N0300001N1+00051-00461999999ADDAA112000891AY181061AY221061GF107991071081004501001001KA1999M+00051MW1261REMSYN070AAXX  08184 01154 11480 72806 10005 21046 69972 72682 87800 333 10005;
0114011540999992000030903004+68580+014300FM-12+005099999V0200401N002112200019N0750001N1-00341-00591999999ADDAY121031AY201031GF103991031021008001001001MW1011REMSYN054AAXX  09034 01154 41589 30404 11034 21059 70120 83200;
0154011540999992000030906004+68580+014300FM-12+005099999V0200401N001012200019N0750001N1-00281-00481999999ADDAA112003091AY181061AY211061GF103991021031008001061001KA1999N-00391MW1151REMSYN070AAXX  09064 01154 11589 30402 11028 21048 60032 71581 82360 333 21039;
0114011540999992000030912004+68580+014300FM-12+005099999V0203601N002110042019N0300001N1-00011-00201999999ADDAY181061AY211061GF107991071091004501999999MW1151REMSYN054AAXX  09124 01154 41480 73604 11001 21020 71581 879//;
0154011540999992000030918004+68580+014300FM-12+005099999V0203601N003110090019N0100001N1+00011-00291999999ADDAA112005191AY181061AY211061GF108991081081004501999999KA1999M+00111MW1851REMSYN070AAXX  09184 01154 11460 83606 10001 21029 60052 78581 888// 333 10011;
0114011540999992000031003004+68580+014300FM-12+005099999V0200501N004610090019N0200001N1-00061-00471999999ADDAY181031AY221031GF106991061081004501999999MW1151REMSYN054AAXX  10034 01154 41470 60509 11006 21047 71582 868//;
0154011540999992000031006004+68580+014300FM-12+005099999V0203601N003110042019N0050001N1-00061-00561999999ADDAA112001091AY181061AY221061GF108991081091004501999999KA1999N-00091MW1851REMSYN070AAXX  10064 01154 11450 83606 11006 21056 60012 78582 889// 333 21009;
0161011540999992000031012004+68580+014300FM-12+005099999V0200201N003110060019N0100001N1-00091-00571101311ADDAY181061AY221061GF108991051081002501071999MA1999999101291MD1210181+9999MW1851REMSYN072AAXX  10124 01154 41360 80206 11009 21057 30129 40131 52018 78582 8587/;
0164011540999992000031018004+68580+014300FM-12+005099999V0200901N002110001519N0001001N1-00241-00381999999ADDAA112003091AY181061AY221061GA1091+999999999GF109991091999999999999999KA1999M-00151MW1861REMSYN064AAXX  10184 01154 11/01 90904 11024 21038 60032 78682 333 11015;
0114011540999992000031103004+68580+014300FM-12+005099999V0201801N001010042019N0020001N1-00161-00381999999ADDAY181031AY221031GF108991081091004501999999MW1851REMSYN054AAXX  11034 01154 41420 81802 11016 21038 78582 889//;
0154011540999992000031106004+68580+014300FM-12+005099999V0201501N003110090019N0200001N1-00161-00301999999ADDAA112002091AY181061AY221061GF108991081081004501999999KA1999N-00241MW1161REMSYN070AAXX  11064 01154 11470 81506 11016 21030 60022 71682 888// 333 21024;
0114011540999992000031112004+68580+014300FM-12+005099999V0203201N004610300019N0200001N1-00021-00271999999ADDAY181061AY221061GF105991041081004501061001MW1151REMSYN054AAXX  11124 01154 41470 53209 11002 21027 71582 84860;
0154011540999992000031118004+68580+014300FM-12+005099999V0203201N003110300019N0300001N1-00081-00121999999ADDAA112002091AY181061AY221061GF108991031081004501061071KA1999M+00021MW1161REMSYN070AAXX  11184 01154 11480 83206 11008 21012 60022 71682 83867 333 10002;
0114011540999992000031203004+68580+014300FM-12+005099999V0203201N004610090019N0300001N1-00021-00701999999ADDAY181031AY221031GF108991081081004501999999MW1151REMSYN054AAXX  12034 01154 41480 83209 11002 21070 71582 888//;
0154011540999992000031206004+68580+014300FM-12+005099999V0202901N003110300019N0750001N1-00011-00881999999ADDAA112001091AY121061AY221061GF108991021081004501061071KA1999N-00101MW1011REMSYN070AAXX  12064 01154 11489 82906 11001 21088 60012 70122 82867 333 21010;
0114011540999992000031212004+68580+014300FM-12+005099999V0201801N004610090019N0300001N1+00121-00451999999ADDAY121061AY221061GF108991051081004501021999MW1021REMSYN054AAXX  12124 01154 41480 81809 10012 21045 70222 8582/;
0154011540999992000031218004+68580+014300FM-12+005099999V0201501N007710021019N0030001N1+00121+00011999999ADDAA112000191AY171061AY221061GF108991081061002501999999KA1999M+00161MW1681REMSYN070AAXX  12184 01154 11330 81515 10012 20001 69912 76872 886// 333 10016;
0114011540999992000031303004+68580+014300FM-12+005099999V0201801N005710042019N0040001N1+00141+00011999999ADDAY171031AY251031GF108991081051004501999999MW1681REMSYN054AAXX  13034 01154 41440 81811 10014 20001 76875 885//;
0154011540999992000031306004+68580+014300FM-12+005099999V0201501N004610021019N0030001N1+00331+00211999999ADDAA112000891AY171061AY261061GF108991081051002501999999KA1999N+00101MW1611REMSYN070AAXX  13064 01154 11330 81509 10033 20021 69982 76176 885// 333 20010;
0114011540999992000031312004+68580+014300FM-12+005099999V0202301N007710021019N0050001N1+00221-00101999999ADDAY181061AY221061GF107991071091002501999999MW1271REMSYN054AAXX  13124 01154 41350 72315 10022 21010 72782 879//;
0154011540999992000031318004+68580+014300FM-12+005099999V0202701N007710021019N0040001N1+00181+00071999999ADDAA112004191AY171061AY221061GF108991081071002501999999KA1999M+00381MW1581REMSYN070AAXX  13184 01154 11340 82715 10018 20007 60042 75872 887// 333 10038;
0114011540999992000031403004+68580+014300FM-12+005099999V0202701N003110060019N0040001N1+00001-00161999999ADDAY181031AY221031GF108991081081002501999999MW1851REMSYN054AAXX  14034 01154 41340 82706 10000 21016 78582 888//;
0154011540999992000031406004+68580+014300FM-12+005099999V0202301N004610060019N0300001N1+00041-00211999999ADDAA112007191AY181061AY221061GF108991051081002501021999KA1999N-00041MW1021REMSYN070AAXX  14064 01154 11380 82309 10004 21021 60072 70282 8582/ 333 21004;
0114011540999992000031412004+68580+014300FM-12+005099999V0202501N002110060019N0040001N1-00091-00251999999ADDAY181061AY221061GF108991051081002501021999MW1861REMSYN054AAXX  14124 01154 41340 82504 11009 21025 78682 8582/;
0154011540999992000031418004+68580+014300FM-12+005099999V0202301N003110060019N0100001N1+00011-00201999999ADDAA112005191AY181061AY221061GF108991081081002501999999KA1999M+00061MW1271REMSYN070AAXX  14184 01154 11360 82306 10001 21020 60052 72782 888// 333 10006;
0114011540999992000031503004+68580+014300FM-12+005099999V0202701N003112200019N0300001N1-00021-00551999999ADDAY181031AY221031GF104991031081002501061001MW1151REMSYN054AAXX  15034 01154 41380 42706 11002 21055 71582 83860;
0154011540999992000031506004+68580+014300FM-12+005099999V0202701N004610060019N0100001N1-00011-00301999999ADDAA112002091AY181061AY221061GF108991081081002501999999KA1999N-00061MW1151REMSYN070AAXX  15064 01154 11360 82709 11001 21030 60022 71582 888// 333 21006;
0114011540999992000031512004+68580+014300FM-12+005099999V0202701N004610060019N0200001N1+00041-00321999999ADDAY181061AY221061GF107991071081002501999999MW1261REMSYN054AAXX  15124 01154 41370 72709 10004 21032 72682 878//;
0154011540999992000031518004+68580+014300FM-12+005099999V0202701N005710060019N0100001N1+00021-00341999999ADDAA112001091AY181061AY221061GF108991081081002501999999KA1999M-00021MW1261REMSYN070AAXX  15184 01154 11360 82711 10002 21034 60012 72682 888// 333 11002;
0114011540999992000031603004+68580+014300FM-12+005099999V0203201N005710060019N0100001N1-00011-00281999999ADDAY181031AY221031GF108991081081002501999999MW1151REMSYN054AAXX  16034 01154 41360 83211 11001 21028 71582 888//;
0154011540999992000031606004+68580+014300FM-12+005099999V0203201N004610300019N0300001N1+00011-00541999999ADDAA112007191AY121061AY221061GF108991031081002501061071KA1999N-00061MW1151REMSYN070AAXX  16064 01154 11380 83209 10001 21054 60072 71522 83867 333 21006;
0114011540999992000031612004+68580+014300FM-12+005099999V0201801N003112200019N0300001N1+00161-00701999999ADDAY121061AY211061GF102991011031002501041001MW1021REMSYN054AAXX  16124 01154 41380 21806 10016 21070 70221 81340;
0137011540999992000031618004+68580+014300FM-12+005099999V0202301N002112200019N0750001N1+00041-00641999999ADDAY111061AY201061GF103991021081002501061001KA1999M+00281MW1021REMSYN064AAXX  16184 01154 11389 32304 10004 21064 70210 82860 333 10028;
0114011540999992000031703004+68580+014300FM-12+005099999V0201501N004610300019N0300001N1+00081-00561999999ADDAY121031AY211031GF108991031071004501011999MW1021REMSYN054AAXX  17034 01154 41480 81509 10008 21056 70221 8371/;
0167011540999992000031706004+68580+014300FM-12+005099999V0201501N004610750019N0750001N1+00101-00841999999ADDAA199000091AY121061AY221061GF108991031001017501021071KA1999N+00011MW1021REMSYN064AAXX  17064 01154 31789 81509 10010 21084 70222 83027 333 20001;EQDQ01  00002PRCP99
0114011540999992000031712004+68580+014300FM-12+005099999V0201501N007710042019N0010001N1+00041-00081999999ADDAY171061AY221061GF108991081051004501999999MW1711REMSYN054AAXX  17124 01154 41410 81515 10004 21008 77172 885//;
0154011540999992000031718004+68580+014300FM-12+005099999V0201801N004610021019N0030001N1+00281+00161999999ADDAA112000191AY171061AY261061GF108991061071002501021999KA1999M+00341MW1611REMSYN070AAXX  17184 01154 11330 81809 10028 20016 69922 76176 8672/ 333 10034;
0114011540999992000031803004+68580+014300FM-12+005099999V0202301N002110042019N0300001N1+00361-00451999999ADDAY121031AY211031GF108991081051004501999999MW1021REMSYN054AAXX  18034 01154 41480 82304 10036 21045 70221 885//;
0148011540999992000031806004+68580+014300FM-12+005099999V0201501N003110075019N0300001N1+00361-00131999999ADDAA199000021AY121061AY221061GF108991081051008001999999KA1999N+00281MW1021REMSYN064AAXX  18064 01154 31580 81506 10036 21013 70222 885// 333 20028;
0114011540999992000031812004+68580+014300FM-12+005099999V0201801N003110090019N0300001N1+00361+00041999999ADDAY121061AY221061GF107991071081004501999999MW1021REMSYN054AAXX  18124 01154 41480 71806 10036 20004 70222 878//;
0154011540999992000031818004+68580+014300FM-12+005099999V0201801N007710090019N0200001N1+00401+00071999999ADDAA112000591AY181061AY221061GF108991081081004501999999KA1999M+00541MW1151REMSYN070AAXX  18184 01154 11470 81815 10040 20007 69962 71582 888// 333 10054;
0114011540999992000031903004+68580+014300FM-12+005099999V0202301N007710060019N0040001N1+00381+00181999999ADDAY181031AY221031GF108991081081002501999999MW1801REMSYN054AAXX  19034 01154 41340 82315 10038 20018 78082 888//;
0154011540999992000031906004+68580+014300FM-12+005099999V0202701N005710021019N0040001N1+00261+00111999999ADDAA112002091AY181061AY261061GF108991081051002501999999KA1999N+00221MW1601REMSYN070AAXX  19064 01154 11340 82711 10026 20011 60022 76086 885// 333 20022;
0114011540999992000031912004+68580+014300FM-12+005099999V0202701N005710060019N0100001N1+00281+00131999999ADDAY181061AY221061GF108991081081002501999999MW1021REMSYN054AAXX  19124 01154 41360 82711 10028 20013 70282 888//;
0154011540999992000031918004+68580+014300FM-12+005099999V0202301N007710021019N0050001N1+00491+00371999999ADDAA112003091AY161061AY221061GF108991061071002501021999KA1999M+00561MW1601REMSYN070AAXX  19184 01154 11350 82315 10049 20037 60032 76062 8672/ 333 10056;
0114011540999992000032003004+68580+014300FM-12+005099999V0201801N002110021019N0030001N1+00121-00021999999ADDAY171031AY221031GF108991081051002501999999MW1691REMSYN054AAXX  20034 01154 41330 81804 10012 21002 76972 885//;
0154011540999992000032006004+68580+014300FM-12+005099999V0203201N005710300019N0300001N1+00101-00381999999ADDAA112007191AY181061AY271061GF107991041081002501061999KA1999N-00041MW1151REMSYN070AAXX  20064 01154 11380 73211 10010 21038 60072 71587 8486/ 333 21004;
0114011540999992000032012004+68580+014300FM-12+005099999V0202701N011310021019N0040001N1+00061-00521999999ADDAY181061AY221061GF107991071091002501999999MW1871REMSYN054AAXX  20124 01154 41340 72722 10006 21052 78782 879//;
0154011540999992000032018004+68580+014300FM-12+005099999V0203201N007710021019N0050001N1-00041-00371999999ADDAA112003091AY181061AY221061GF107991051091002501061999KA1999M+00141MW1151REMSYN070AAXX  20184 01154 11350 73215 11004 21037 60032 71582 8596/ 333 10014;
0114011540999992000032103004+68580+014300FM-12+005099999V0203201N007710042019N0300001N1-00021-00261999999ADDAY181031AY221031GF107991071091004501999999MW1161REMSYN054AAXX  21034 01154 41480 73215 11002 21026 71682 879//;
0154011540999992000032106004+68580+014300FM-12+005099999V0203201N007712200019N0300001N1-00101-00541999999ADDAA112002091AY181061AY221061GF104991031091004501061001KA1999N-00151MW1151REMSYN070AAXX  21064 01154 11480 43215 11010 21054 60022 71582 83960 333 21015;
0114011540999992000032112004+68580+014300FM-12+005099999V0202701N007710300019N0200001N1-00031-00211999999ADDAY181061AY221061GF108991041091004501021999MW1261REMSYN054AAXX  21124 01154 41470 82715 11003 21021 72682 8492/;
0154011540999992000032118004+68580+014300FM-12+005099999V0203201N005710021019N0200001N1-00061-00301999999ADDAA112005191AY181061AY221061GF107991051091002501061091KA1999M+00001MW1261REMSYN070AAXX  21184 01154 11370 73211 11006 21030 60052 72682 85969 333 10000;
0114011540999992000032203004+68580+014300FM-12+005099999V0203201N005710021019N0300001N1-00061-00221999999ADDAY181031AY221031GF108991051091002501061999MW1151REMSYN054AAXX  22034 01154 41380 83211 11006 21022 71582 8596/;
0154011540999992000032206004+68580+014300FM-12+005099999V0202701N005710021019N0040001N1-00061-00221999999ADDAA112003091AY181061AY221061GF108991081091002501999999KA1999N-00091MW1851REMSYN070AAXX  22064 01154 11340 82711 11006 21022 60032 78582 889// 333 21009;
0114011540999992000032212004+68580+014300FM-12+005099999V0202301N005710060019N0300001N1+00161-00411999999ADDAY181061AY221061GF106991051081002501061999MW1151REMSYN054AAXX  22124 01154 41380 62311 10016 21041 71582 8586/;
0154011540999992000032218004+68580+014300FM-12+005099999V0203201N004610060019N0300001N1+00141+00001999999ADDAA112001091AY181061AY221061GF108991061081002501021999KA1999M+00221MW1261REMSYN070AAXX  22184 01154 11380 83209 10014 20000 60012 72682 8682/ 333 10022;
0114011540999992000032303004+68580+014300FM-12+005099999V0203201N003110060019N0040001N1+00061-00071999999ADDAY181031AY221031GF108991081081002501999999MW1851REMSYN054AAXX  23034 01154 41340 83206 10006 21007 78582 888//;
0154011540999992000032306004+68580+014300FM-12+005099999V0203401N002110021019N0300001N1+00121-00121999999ADDAA112004191AY181061AY221061GF108991081091002501999999KA1999N+00011MW1151REMSYN070AAXX  23064 01154 11380 83404 10012 21012 60042 71582 889// 333 20001;
0114011540999992000032312004+68580+014300FM-12+005099999V0200201N002110300019N0550001N1+00321-00351999999ADDAY121061AY221061GF106991041041004501061021MW1151REMSYN054AAXX  23124 01154 41485 60204 10032 21035 71522 84462;
0154011540999992000032318004+68580+014300FM-12+005099999V0203401N003110300019N0550001N1-00021-00161999999ADDAA112000191AY181061AY221061GF106991041081002501061021KA1999M+00351MW1151REMSYN070AAXX  23184 01154 11385 63406 11002 21016 69922 71582 84862 333 10035;
0114011540999992000032403004+68580+014300FM-12+005099999V0203401N004610090019N0650001N1+00091-00481999999ADDAY181031AY221031GF106991051081004501061081MW1151REMSYN054AAXX  24034 01154 41487 63409 10009 21048 71582 85868;
0154011540999992000032406004+68580+014300FM-12+005099999V0203401N006210060019N0550001N1+00041-00491999999ADDAA112004191AY181061AY221061GF107991071081002501091999KA1999N-00041MW1151REMSYN070AAXX  24064 01154 11385 73412 10004 21049 60042 71582 8789/ 333 21004;
0114011540999992000032412004+68580+014300FM-12+005099999V0203401N007710021019N0150001N1-00071-00481999999ADDAY181061AY221061GF108991081071002501999999MW1161REMSYN054AAXX  24124 01154 41365 83415 11007 21048 71682 887//;
0154011540999992000032418004+68580+014300FM-12+005099999V0203401N006210021019N0045001N1-00141-00521999999ADDAA112000891AY181061AY221061GF108991081071002501999999KA1999M+00041MW1851REMSYN070AAXX  24184 01154 11345 83412 11014 21052 69982 78582 887// 333 10004;
0154011540999992000032506004+68580+014300FM-12+005099999V0202601N003110021019N0250001N1-00111-00341999999ADDAA112001091AY181061AY221061GF108991081071002501999999KA1999N-00211MW1151REMSYN070AAXX  25064 01154 11375 82606 11011 21034 60012 71582 887// 333 21021;
0114011540999992000032512004+68580+014300FM-12+005099999V0203401N002112200019N0550001N1+00111-00351999999ADDAY181061AY221061GF104991041041002501061021MW1151REMSYN054AAXX  25124 01154 41385 43404 10011 21035 71582 84462;
0164011540999992000032518004+68580+014300FM-12+005099999V0202801N001010003019N0004001N1-00111-00291999999ADDAA112004191AY181061AY221061GA1091+999999999GF109991091999999999999999KA1999M+00141MW1861REMSYN064AAXX  25184 01154 11/04 92802 11011 21029 60042 78682 333 10014;
0114011540999992000032603004+68580+014300FM-12+005099999V0201201N002110300019N0550001N1-00101-00301999999ADDAY181031AY221031GF105991041081004501061011MW1021REMSYN054AAXX  26034 01154 41485 51204 11010 21030 70282 84861;
0154011540999992000032606004+68580+014300FM-12+005099999V0201201N002110300019N0150001N1-00201-00321999999ADDAA112005191AY181061AY221061GF106991041081002501061021KA1999N-00231MW1151REMSYN070AAXX  26064 01154 11365 61204 11020 21032 60052 71582 84862 333 21023;
0114011540999992000032612004+68580+014300FM-12+005099999V0201601N002112200019N0250001N1+00031-00221999999ADDAY181061AY221061GF104991041041002501061011MW1151REMSYN054AAXX  26124 01154 41375 41604 10003 21022 71582 84461;
0154011540999992000032618004+68580+014300FM-12+005099999V0201201N002110060019N0150001N1-00121-00311999999ADDAA112002091AY181061AY221061GF107991071081002501999999KA1999M+00051MW1151REMSYN070AAXX  26184 01154 11365 71204 11012 21031 60022 71582 878// 333 10005;
0114011540999992000032703004+68580+014300FM-12+005099999V0202601N003110090019N0200001N1+00071-00941999999ADDAY181031AY221031GF108991081081004501999999MW1151REMSYN054AAXX  27034 01154 41470 82606 10007 21094 71582 888//;
0154011540999992000032706004+68580+014300FM-12+005099999V0202401N004610090019N0550001N1+00081-00601999999ADDAA112000391AY181061AY221061GF108991081081004501999999KA1999N-00121MW1151REMSYN070AAXX  27064 01154 11485 82409 10008 21060 69932 71582 888// 333 21012;
0114011540999992000032712004+68580+014300FM-12+005099999V0201801N006210021019N0150001N1+00081-00241999999ADDAY181061AY221061GF108991081071002501999999MW1831REMSYN054AAXX  27124 01154 41365 81812 10008 21024 78382 887//;
0154011540999992000032718004+68580+014300FM-12+005099999V0202801N006210021019N0250001N1+00221-00101999999ADDAA112000591AY181061AY221061GF108991081071002501999999KA1999M+00241MW1151REMSYN070AAXX  27184 01154 11375 82812 10022 21010 69962 71582 887// 333 10024;
0114011540999992000032803004+68580+014300FM-12+005099999V0202601N006210021019N0250001N1+00311+00151999999ADDAY181031AY221031GF108991081071002501999999MW1801REMSYN054AAXX  28034 01154 41375 82612 10031 20015 78082 887//;
0154011540999992000032806004+68580+014300FM-12+005099999V0202601N007710021019N0150001N1+00341+00121999999ADDAA112003091AY161061AY221061GF108991081071002501999999KA1999N+00201MW1611REMSYN070AAXX  28064 01154 11365 82615 10034 20012 60032 76162 887// 333 20020;
0114011540999992000032812004+68580+014300FM-12+005099999V0202801N006210021019N0250001N1+00411+00081999999ADDAY161061AY221061GF108991081071002501999999MW1151REMSYN054AAXX  28124 01154 41375 82812 10041 20008 71562 887//;
0154011540999992000032818004+68580+014300FM-12+005099999V0201601N007710021019N0300001N1+00241-00101999999ADDAA112006191AY181061AY221061GF108991081071002501999999KA1999M+00431MW1151REMSYN070AAXX  28184 01154 11380 81615 10024 21010 60062 71582 887// 333 10043;
0114011540999992000032903004+68580+014300FM-12+005099999V0202601N006210021019N0045001N1+00431+00311999999ADDAY161031AY221031GF108991081071002501999999MW1501REMSYN054AAXX  29034 01154 41345 82612 10043 20031 75062 887//;
0164011540999992000032906004+68580+014300FM-12+005099999V0202601N006210006019N0010001N1+00461+00361999999ADDAA112002091AY161061AY221061GA1091+999999999GF109991091999999999999999KA1999N+00241MW1581REMSYN064AAXX  29064 01154 11/10 92612 10046 20036 60022 75862 333 20024;
0124011540999992000032912004+68580+014300FM-12+005099999V0202601N004610006019N0006001N1+00491+00381999999ADDAY161061AY221061GA1091+999999999GF109991091999999999999999MW1581REMSYN048AAXX  29124 01154 41/06 92609 10049 20038 75862;
0164011540999992000032918004+68580+014300FM-12+005099999V0202601N006210012019N0015001N1+00481+00371999999ADDAA112003091AY161061AY221061GA1091+999999999GF109991091999999999999999KA1999M+00561MW1581REMSYN064AAXX  29184 01154 11/15 92612 10048 20037 60032 75862 333 10056;
0124011540999992000033003004+68580+014300FM-12+005099999V0203201N007710012019N0015001N1+00461+00341999999ADDAY161031AY221031GA1091+999999999GF109991091999999999999999MW1581REMSYN048AAXX  30034 01154 41/15 93215 10046 20034 75862;
0154011540999992000033006004+68580+014300FM-12+005099999V0203001N007710021019N0045001N1+00371+00201999999ADDAA112002091AY161061AY221061GF108991081071002501999999KA1999N+00361MW1151REMSYN070AAXX  30064 01154 11345 83015 10037 20020 60022 71562 887// 333 20036;
0114011540999992000033012004+68580+014300FM-12+005099999V0202801N008710021019N0045001N1+00381+00181999999ADDAY181061AY221061GF107991071071002501999999MW1801REMSYN054AAXX  30124 01154 41345 72817 10038 20018 78082 877//;
0154011540999992000033018004+68580+014300FM-12+005099999V0203401N002110021019N0150001N1+00051-00171999999ADDAA112000891AY181061AY221061GF108991081071002501999999KA1999M+00391MW1151REMSYN070AAXX  30184 01154 11365 83404 10005 21017 69982 71582 887// 333 10039;
0114011540999992000033103004+68580+014300FM-12+005099999V0203601N006210021019N0045001N1-00081-00641999999ADDAY181031AY221031GF108991081071002501999999MW1851REMSYN054AAXX  31034 01154 41345 83612 11008 21064 78582 887//;
0154011540999992000033106004+68580+014300FM-12+005099999V0203401N006210042019N0250001N1-00171-00931999999ADDAA112003091AY181061AY221061GF107991061051004501061091KA1999N-00181MW1151REMSYN070AAXX  31064 01154 11475 73412 11017 21093 60032 71582 86569 333 21018;
0124011540999992000033112004+68580+014300FM-12+005099999V0203001N002110003019N0003001N1-00161-00431999999ADDAY181061AY221061GA1091+999999999GF109991091999999999999999MW1861REMSYN048AAXX  31124 01154 41/03 93004 11016 21043 78682;
0154011540999992000033118004+68580+014300FM-12+005099999V0200601N003112200019N0550001N1-00271-00791999999ADDAA112002091AY181061AY221061GF103991021031004501041011KA1999M-00141MW1021REMSYN070AAXX  31184 01154 11485 30606 11027 21079 60022 70282 82341 333 11014;
0124011540999992000040103004+68580+014300FM-12+005099999V0203601N002110006019N0006001N1-00481-00771999999ADDAY181031AY221031GA1091+999999999GF109991091999999999999999MW1851REMSYN048AAXX  01034 01154 41/06 93604 11048 21077 78582;
0164011540999992000040106004+68580+014300FM-12+005099999V0200601N002110012019N0012001N1-00531-00691999999ADDAA112002091AY181061AY221061GA1091+999999999GF109991091999999999999999KA1999N-00551MW1851REMSYN064AAXX  01064 01154 11/12 90604 11053 21069 60022 78582 333 21055;
0124011540999992000040112004+68580+014300FM-12+005099999V0200801N001010012019N0020001N1-00461-00831999999ADDAY181061AY221061GA1091+999999999GF109991091999999999999999MW1851REMSYN048AAXX  01124 01154 41/20 90802 11046 21083 78582;
0154011540999992000040118004+68580+014300FM-12+005099999V0201001N001010042019N0150001N1-00401-00721999999ADDAA112002091AY181061AY221061GF107991061031004501061011KA1999M-00381MW1851REMSYN070AAXX  01184 01154 11465 71002 11040 21072 60022 78582 86361 333 11038;
0114011540999992000040203004+68580+014300FM-12+005099999V0203401N004610300019N0550001N1-00391-00911999999ADDAY181031AY221031GF107991041081004501061011MW1151REMSYN054AAXX  02034 01154 41485 73409 11039 21091 71582 84861;
0154011540999992000040206004+68580+014300FM-12+005099999V0201601N003110042019N0250001N1-00341-00561999999ADDAA112002091AY181061AY221061GF108991081071004501999999KA1999N-00421MW1851REMSYN070AAXX  02064 01154 11475 81606 11034 21056 60022 78582 887// 333 21042;
0114011540999992000040212004+68580+014300FM-12+005099999V0201801N004612200019N0550001N1-00061-00851999999ADDAY181061AY221061GF104991021021004501041021MW1021REMSYN054AAXX  02124 01154 41485 41809 11006 21085 70282 82242;
0154011540999992000040218004+68580+014300FM-12+005099999V0201601N004612200019N0750001N1-00221-00441999999ADDAA112000791AY121061AY221061GF103991011021004501041021KA1999M-00021MW1021REMSYN070AAXX  02184 01154 11489 31609 11022 21044 69902 70222 81242 333 11002;
0124011540999992000040303004+68580+014300FM-12+005099999V0201201N004612200019N0750001N1-00251-00931999999ADDAY101031AY201031GA1001+999999999GF100991001001999999001001MW1011REMSYN048AAXX  03034 01154 41989 01209 11025 21093 70100;
0183011540999992000040306004+68580+014300FM-12+005099999V0201001N004612200019N0750001N1-00201-00981999999ADDAA199000091AY111061AY211061GF103991001001999999001021KA1999N-00261MW1021REMSYN064AAXX  03064 01154 31789 31009 11020 21098 70211 80002 333 21026;EQDQ01+017502SCOLCBQ02  00002PRCP99
0133011540999992000040312004+68580+014300FM-12+005099999V0201201N004619999999N0750001N1-00071-01311999999ADDAY121061AY221061GF107991001001999999001081MW1031REMSYN054AAXX  03124 01154 41789 71209 11007 21131 70322 80008;EQDQ01+017502SCOLCB
0167011540999992000040318004+68580+014300FM-12+005099999V0201001N006210300019N0250001N1-00241-01021999999ADDAA199000091AY121061AY221061GF108991041051002501061081KA1999M-00041MW1151REMSYN064AAXX  03184 01154 31375 81012 11024 21102 71522 84568 333 11004;EQDQ01  00002PRCP99
0114011540999992000040403004+68580+014300FM-12+005099999V0201001N006210075019N0650001N1-00281-00751999999ADDAY121031AY221031GF107991061061008001999999MW1021REMSYN054AAXX  04034 01154 41587 71012 11028 21075 70222 866//;
0137011540999992000040406004+68580+014300FM-12+005099999V0201001N004610300019N0750001N1-00261-00901999999ADDAY121061AY221061GF106991021041008001041081KA1999N-00291MW1021REMSYN064AAXX  04064 01154 41589 61009 11026 21090 70222 82448 333 21029;
0114011540999992000040412004+68580+014300FM-12+005099999V0201001N002112200019N0750001N1-00041-00931999999ADDAY111061AY211061GF102991011011008001001011MW1011REMSYN054AAXX  04124 01154 41589 21004 11004 21093 70111 81101;
0167011540999992000040418004+68580+014300FM-12+005099999V0209999C000012200019N0750001N1-00161-01061999999ADDAA199000091AY111061AY211061GF101991001001999999001011KA1999M-00021MW1011REMSYN064AAXX  04184 01154 31989 10000 11016 21106 70111 80001 333 11002;EQDQ01  00002PRCP99
0124011540999992000040503004+68580+014300FM-12+005099999V0200801N001012200019N0750001N1-00411-00841999999ADDAY101031AY201031GA1001+999999999GF100991001001999999001001MW1011REMSYN048AAXX  05034 01154 41989 00802 11041 21084 70100;
0167011540999992000040506004+68580+014300FM-12+005099999V0200801N001012200019N0750001N1-00361-00701999999ADDAA199000091AY111061AY201061GF102991001001999999001021KA1999N-00431MW1021REMSYN064AAXX  05064 01154 31989 20802 11036 21070 70210 80002 333 21043;EQDQ01  00002PRCP99
0114011540999992000040512004+68580+014300FM-12+005099999V0203401N002110300019N0750001N1+00121-00321999999ADDAY121061AY221061GF106991031041012501041021MW1031REMSYN054AAXX  05124 01154 41689 63404 10012 21032 70322 83442;
0154011540999992000040518004+68580+014300FM-12+005099999V0200201N006210042019N0150001N1+00141-00131999999ADDAA112001091AY181061AY221061GF108991081091004501999999KA1999M+00151MW1871REMSYN070AAXX  05184 01154 11465 80212 10014 21013 60012 78782 889// 333 10015;
0114011540999992000040603004+68580+014300FM-12+005099999V0203401N007710021019N0150001N1+00171-00311999999ADDAY181031AY221031GF108991081071002501999999MW1151REMSYN054AAXX  06034 01154 41365 83415 10017 21031 71582 887//;
0154011540999992000040606004+68580+014300FM-12+005099999V0203401N007710300019N0200001N1+00141-00301999999ADDAA112002091AY181061AY221061GF106991041031002501061021KA1999N+00081MW1151REMSYN070AAXX  06064 01154 11370 63415 10014 21030 60022 71582 84362 333 20008;
0114011540999992000040612004+68580+014300FM-12+005099999V0203601N009810060019N0150001N1+00181-00011999999ADDAY181061AY221061GF108991081081002501999999MW1151REMSYN054AAXX  06124 01154 41365 83619 10018 21001 71582 888//;
0154011540999992000040618004+68580+014300FM-12+005099999V0203601N007710060019N0150001N1+00221-00251999999ADDAA112000591AY181061AY221061GF107991071081002501999999KA1999M+00601MW1151REMSYN070AAXX  06184 01154 11365 73615 10022 21025 69962 71582 878// 333 10060;
0114011540999992000040703004+68580+014300FM-12+005099999V0203601N004610090019N0400001N1+00141-00681999999ADDAY181031AY221031GF105991051081004501001001MW1011REMSYN054AAXX  07034 01154 41482 53609 10014 21068 70182 85800;
0154011540999992000040706004+68580+014300FM-12+005099999V0203201N003110120019N0750001N1+00201-00581999999ADDAA112000191AY181061AY221061GF106991061081008001001001KA1999N+00051MW1151REMSYN070AAXX  07064 01154 11589 63206 10020 21058 69912 71582 86800 333 20005;
0114011540999992000040712004+68580+014300FM-12+005099999V0201801N004610075019N0750001N1+00321-00171999999ADDAY121061AY221061GF106991061041008001031001MW1021REMSYN054AAXX  07124 01154 41589 61809 10032 21017 70222 86430;
0167011540999992000040718004+68580+014300FM-12+005099999V0201801N006210075019N0750001N1+00361+00071999999ADDAA199000091AY121061AY221061GF108991081051008001999999KA1999M+00401MW1031REMSYN064AAXX  07184 01154 31589 81812 10036 20007 70322 885// 333 10040;EQDQ01  00002PRCP99
0114011540999992000040803004+68580+014300FM-12+005099999V0201801N006210042019N0300001N1+00351+00151999999ADDAY161031AY221031GF108991081051004501999999MW1601REMSYN054AAXX  08034 01154 41480 81812 10035 20015 76062 885//;
0154011540999992000040806004+68580+014300FM-12+005099999V0201801N006210042019N0300001N1+00401+00281999999ADDAA112000191AY161061AY221061GF108991081051004501999999KA1999N+00301MW1601REMSYN070AAXX  08064 01154 11480 81812 10040 20028 69922 76062 885// 333 20030;
0114011540999992000040812004+68580+014300FM-12+005099999V0202201N006210042019N0300001N1+00421+00261999999ADDAY161061AY221061GF108991081051004501999999MW1601REMSYN054AAXX  08124 01154 41480 82212 10042 20026 76062 885//;
0154011540999992000040818004+68580+014300FM-12+005099999V0202001N004610090019N0750001N1+00481+00321999999ADDAA112000191AY161061AY221061GF108991061081004501051999KA1999M+00501MW1021REMSYN070AAXX  08184 01154 11489 82009 10048 20032 69912 70262 8685/ 333 10050;
0114011540999992000040903004+68580+014300FM-12+005099999V0202001N006210042019N0100001N1+00481+00351999999ADDAY161031AY221031GF108991081051004501999999MW1601REMSYN054AAXX  09034 01154 41460 82012 10048 20035 76062 885//;
0154011540999992000040906004+68580+014300FM-12+005099999V0202001N004610012019N0060001N1+00501+00371999999ADDAA112002091AY161061AY221061GF108991081071001501999999KA1999N+00451MW1601REMSYN070AAXX  09064 01154 11256 82009 10050 20037 60022 76062 887// 333 20045;
0114011540999992000040912004+68580+014300FM-12+005099999V0202401N006210012019N0060001N1+00501+00371999999ADDAY161061AY221061GF108991081071001501999999MW1601REMSYN054AAXX  09124 01154 41256 82412 10050 20037 76062 887//;
0154011540999992000040918004+68580+014300FM-12+005099999V0202601N006210042019N0100001N1+00551+00391999999ADDAA112003091AY161061AY221061GF108991081071004501999999KA1999M+00651MW1601REMSYN070AAXX  09184 01154 11460 82612 10055 20039 60032 76062 887// 333 10065;
0114011540999992000041003004+68580+014300FM-12+005099999V0203001N006210120019N0400001N1+00241+00111999999ADDAY161031AY221031GF106991061081008001001001MW1021REMSYN054AAXX  10034 01154 41582 63012 10024 20011 70262 86800;
0154011540999992000041006004+68580+014300FM-12+005099999V0203601N003110120019N0200001N1+00151+00041999999ADDAA112005191AY161061AY221061GF108991081081008001999999KA1999N+00051MW1851REMSYN070AAXX  10064 01154 11570 83606 10015 20004 60052 78562 888// 333 20005;
0114011540999992000041012004+68580+014300FM-12+005099999V0203201N004610120019N0400001N1+00201-00281999999ADDAY181061AY221061GF107991071081008001999999MW1021REMSYN054AAXX  10124 01154 41582 73209 10020 21028 70282 878//;
0154011540999992000041018004+68580+014300FM-12+005099999V0203201N003110120019N0400001N1+00121-00461999999ADDAA112000191AY121061AY221061GF107991071081008001999999KA1999M+00251MW1021REMSYN070AAXX  10184 01154 11582 73206 10012 21046 69912 70222 878// 333 10025;
0114011540999992000041103004+68580+014300FM-12+005099999V0200601N003110120019N0300001N1+00021-00381999999ADDAY121031AY221031GF108991081081008001999999MW1021REMSYN054AAXX  11034 01154 41580 80606 10002 21038 70222 888//;
0154011540999992000041106004+68580+014300FM-12+005099999V0200601N003110120019N0300001N1+00001-00211999999ADDAA112000191AY121061AY221061GF108991081081008001999999KA1999N+00001MW1851REMSYN070AAXX  11064 01154 41580 80606 10000 21021 69912 78522 888// 333 20000;
0114011540999992000041112004+68580+014300FM-12+005099999V0203601N003110120019N0200001N1+00121-00091999999ADDAY181061AY221061GF108991081081008001999999MW1151REMSYN054AAXX  11124 01154 41570 83606 10012 21009 71582 888//;
0154011540999992000041118004+68580+014300FM-12+005099999V0200501N003110075019N0400001N1+00001-00441999999ADDAA112000391AY181061AY221061GF107991071071008001999999KA1999M+00201MW1021REMSYN070AAXX  11184 01154 11582 70506 10000 21044 69932 70282 877// 333 10020;
0114011540999992000041203004+68580+014300FM-12+005099999V0203601N002110120019N0750001N1-00201-00861999999ADDAY111031AY211031GF105991051081008001001001MW1011REMSYN054AAXX  12034 01154 41589 53604 11020 21086 70111 85800;
0167011540999992000041206004+68580+014300FM-12+005099999V0201001N002110120019N0750001N1+00001-00661999999ADDAA199000091AY101061AY201061GF105991051081008001001001KA1999N-00201MW1021REMSYN064AAXX  12064 01154 31589 51004 10000 21066 70200 85800 333 21020;EQDQ01  00002PRCP99
0114011540999992000041212004+68580+014300FM-12+005099999V0200501N004612200019N0750001N1+00301-00611999999ADDAY101061AY201061GF103991031011008001001001MW1011REMSYN054AAXX  12124 01154 41589 30509 10030 21061 70100 83100;
0167011540999992000041218004+68580+014300FM-12+005099999V0200501N004612200019N0750001N1+00151-00741999999ADDAA199000091AY101061AY201061GF102991021011008001001001KA1999M+00401MW1011REMSYN064AAXX  12184 01154 31589 20509 10015 21074 70100 82100 333 10040;EQDQ01  00002PRCP99
0167011540999992000041306004+68580+014300FM-12+005099999V0200501N003112200019N0750001N1-00101-00871999999ADDAA199000091AY101061AY201061GF101991011011008001001001KA1999N-00101MW1021REMSYN064AAXX  13064 01154 31589 10506 11010 21087 70200 81100 333 21010;EQDQ01  00002PRCP99
0114011540999992000041312004+68580+014300FM-12+005099999V0200501N004612200019N0750001N1+00301-00801999999ADDAY101061AY201061GF101991011011012501001081MW1021REMSYN054AAXX  13124 01154 41689 10509 10030 21080 70200 81108;
0167011540999992000041318004+68580+014300FM-12+005099999V0200501N003112200019N0750001N1+00121-00681999999ADDAA199000091AY101061AY201061GF101991011011008001001081KA1999M+00401MW1021REMSYN064AAXX  13184 01154 31589 10506 10012 21068 70200 81108 333 10040;EQDQ01  00002PRCP99
0114011540999992000041403004+68580+014300FM-12+005099999V0200801N002112200019N0750001N1-00201-00861999999ADDAY101031AY201031GF102991021011008001001001MW1021REMSYN054AAXX  14034 01154 41589 20804 11020 21086 70200 82100;
0167011540999992000041406004+68580+014300FM-12+005099999V0200501N003112200019N0750001N1-00101-00761999999ADDAA199000091AY101061AY201061GF101991011011008001001001KA1999N-00201MW1021REMSYN064AAXX  14064 01154 31589 10506 11010 21076 70200 81100 333 21020;EQDQ01  00002PRCP99
0167011540999992000041418004+68580+014300FM-12+005099999V0200501N003112200019N0750001N1+00181-00481999999ADDAA199000091AY101061AY201061GF101991011011008001001081KA1999M+00451MW1021REMSYN064AAXX  14184 01154 31589 10506 10018 21048 70200 81108 333 10045;EQDQ01  00002PRCP99
0114011540999992000041503004+68580+014300FM-12+005099999V0200501N003112200019N0750001N1+00001-00361999999ADDAY101031AY201031GF102991021011008001001001MW1021REMSYN054AAXX  15034 01154 41589 20506 10000 21036 70200 82100;
0167011540999992000041506004+68580+014300FM-12+005099999V0200501N003112200019N0750001N1+00061-00281999999ADDAA199000091AY101061AY201061GF102991021011008001001001KA1999N-00051MW1021REMSYN064AAXX  15064 01154 31589 20506 10006 21028 70200 82100 333 21005;EQDQ01  00002PRCP99
0114011540999992000041512004+68580+014300FM-12+005099999V0200601N004612200019N0750001N1+00461-00311999999ADDAY101061AY201061GF102991021021008001031001MW1021REMSYN054AAXX  15124 01154 41589 20609 10046 21031 70200 82230;
0167011540999992000041518004+68580+014300FM-12+005099999V0200601N003112200019N0750001N1+00281-00441999999ADDAA199000091AY101061AY201061GF102991021021008001031001KA1999M+00551MW1021REMSYN064AAXX  15184 01154 31589 20606 10028 21044 70200 82230 333 10055;EQDQ01  00002PRCP99
