0243012780999992000010106004+63800+011570FM-12+005299999V0201501N004610150019N0300001N1-00271-00671100581ADDAA106000091AJ100009199999999AY121061AY221061GF108991081001017501021999IA1259KA1120N-00721MA1999999099531MD1710201+9999MW1021REMSYN088AAXX  01064 01278 31780 81509 11027 21067 39953 40058 57020 70222 8802/ 333 21072 41998;EQDQ01  00002PRCP06
0171012780999992000010109004+63800+011570FM-12+005299999V0201001N002110024019N0050001N1-00461-00531100621ADDAY171031AY221031GA1091+999999999GF109991091999999999999999MA1999999099561MD1210031+9999MW1711REMSYN066AAXX  01094 01278 41/50 91004 11046 21053 39956 40062 52003 77172;
0161012780999992000010112004+63800+011570FM-12+005299999V0201501N002110042019N0150001N1-00651-00651100811ADDAY171061AY221061GF108991071071004501021999MA1999999099741MD1210181+9999MW1701REMSYN072AAXX  01124 01278 41465 81504 11065 21065 39974 40081 52018 77072 8772/;
0201012780999992000010118004+63800+011570FM-12+005299999V0201401N002112200019N0300001N1-00671-00671100981ADDAA112003091AY171061AY261061GF102991011081017501001021KA1999M-00241MA1999999099911MD1410001+9999MW1011REMSYN088AAXX  01184 01278 11780 21404 11067 21067 39991 40098 54000 60032 70176 81802 333 11024;
0243012780999992000010206004+63800+011570FM-12+005299999V0201201N002110300019N0300001N1-00281-00451100231ADDAA106000091AJ100039199999999AY111061AY211061GF108991011011012501071999IA1249KA1120N-00701MA1999999099191MD1710221+9999MW1021REMSYN088AAXX  02064 01278 31680 81204 11028 21045 39919 40023 57022 70211 8117/ 333 21070 48003;EQDQ01  00002PRCP06
0161012780999992000010209004+63800+011570FM-12+005299999V0201501N002110300019N0300001N1-00191-00361099771ADDAY121031AY221031GF108991031081017501071999MA1999999098731MD1710461+9999MW1021REMSYN072AAXX  02094 01278 41780 81504 11019 21036 39873 49977 57046 70222 8387/;
0161012780999992000010212004+63800+011570FM-12+005299999V0201401N002110120019N0300001N1-00191-00331099461ADDAY121061AY221061GF107991051091012501071999MA1999999098431MD1710301+9999MW1151REMSYN072AAXX  02124 01278 41680 71404 11019 21033 39843 49946 57030 71522 8597/;
0201012780999992000010218004+63800+011570FM-12+005299999V0203001N007710300019N0100001N1+00231+00221099661ADDAA112006191AY181061AY221061GF108991021091004501021999KA1999M+00431MA1999999098641MD1310301+9999MW1811REMSYN088AAXX  02184 01278 11460 83015 10023 20022 39864 49966 53030 60062 78182 8292/ 333 10043;
0230012780999992000010306004+63800+011570FM-12+005299999V0201401N000512200019N0300001N1+00051-00111100311ADDAA112002091AJ100019199999999AY181061AY211061GF103991001001999999001021IA1289KA1120N+00051MA1999999099281MD1710201+9999MW1021REMSYN094AAXX  03064 01278 11980 31401 10005 21011 39928 40031 57020 60022 70281 80002 333 20005 44001;
0161012780999992000010309004+63800+011570FM-12+005299999V0201501N003110210019N0750001N1+00211-00471099851ADDAY111031AY211031GF108991081001022501021999MA1999999098831MD1710451+9999MW1031REMSYN072AAXX  03094 01278 41889 81506 10021 21047 39883 49985 57045 70311 8802/;
0161012780999992000010312004+63800+011570FM-12+005299999V0201501N007710150019N0300001N1+00291-00361099111ADDAY111061AY211061GF108991081001017501021999MA1999999098101MD1710731+9999MW1701REMSYN072AAXX  03124 01278 41780 81515 10029 21036 39810 49911 57073 77011 8802/;
0252012780999992000010318004+63800+011570FM-12+005299999V0201501N004610210019N0300001N1+00481-00181098202ADDAA112000791AY171061AY211061GF108991081001022501021999KA1999M+00501MA1999999097202MD1710502+9999MW1031REMSYN088AAXX  03184 01278 11880 81509 10048 21018 39720 49820 57050 69902 70371 8802/ 333 10050;EQDQ01+097203APOSP Q02+098203APOSLPQ03+000502APC3  
0230012780999992000010406004+63800+011570FM-12+005299999V0202701N002110042019N0100001N1+00361+00331097331ADDAA112002091AJ100009199999999AY161061AY221061GF108991081001004501021999IA1259KA1120N+00241MA1999999096341MD1710211+9999MW1611REMSYN094AAXX  04064 01278 11460 82704 10036 20033 39634 49733 57021 60022 76162 8802/ 333 20024 41998;
0161012780999992000010409004+63800+011570FM-12+005299999V0202801N007710042019N0050001N1+00371+00371097831ADDAY161031AY221031GF108991061091004501021999MA1999999096831MD1210491+9999MW1811REMSYN072AAXX  04094 01278 41450 82815 10037 20037 39683 49783 52049 78162 8692/;
0161012780999992000010412004+63800+011570FM-12+005299999V0202801N007710300019N0100001N1+00291+00291098481ADDAY181061AY261061GF108991021091004501021999MA1999999097481MD1210651+9999MW1811REMSYN072AAXX  04124 01278 41460 82815 10029 20029 39748 49848 52065 78186 8292/;
0262012780999992000010418004+63800+011570FM-12+005299999V0203101N002110024019N0030001N1+00051+00051099452ADDAA112008991AY181061AY221061GA1091+999999999GF109991091999999999999999KA1999M+00441MA1999999098432MD1210552+9999MW1841REMSYN082AAXX  04184 01278 11/30 93104 10005 20005 39843 49945 52055 60092 78482 333 10044;EQDQ01+098433APOSP Q02+099453APOSLPQ03+000552APC3  
0230012780999992000010506004+63800+011570FM-12+005299999V0201101N001012200019N0300001N1-00151-00371099611ADDAA112000191AJ100009199999999AY181061AY211061GF102991011011012501001021IA1279KA1120N-00271MA1999999098571MD1710281+9999MW1021REMSYN094AAXX  05064 01278 11680 21102 11015 21037 39857 49961 57028 69912 70281 81102 333 21027 43997;
0161012780999992000010509004+63800+011570FM-12+005299999V0201401N001010120019N0750001N1+00211-00331099831ADDAY111031AY211031GF108991081001012501021999MA1999999098791MD1710221+9999MW1031REMSYN072AAXX  05094 01278 41689 81402 10021 21033 39879 49983 57022 70311 8802/;
0161012780999992000010512004+63800+011570FM-12+005299999V0201001N001010210019N0750001N1-00101-00181099911ADDAY111061AY211061GF107991071001022501021999MA1999999098881MD1210091+9999MW1011REMSYN072AAXX  05124 01278 41889 71002 11010 21018 39888 49991 52009 70111 8702/;
0243012780999992000010606004+63800+011570FM-12+005299999V0201401N003110300019N0300001N1+00731+00131098561ADDAA106000091AJ100009199999999AY111061AY211061GF107991021081017501071999IA1259KA1120N-00161MA1999999097571MD1710421+9999MW1021REMSYN088AAXX  06064 01278 31780 71406 10073 20013 39757 49856 57042 70211 8287/ 333 21016 41998;EQDQ01  00002PRCP06
0161012780999992000010609004+63800+011570FM-12+005299999V0201501N007710300019N0750001N1+00821+00201098311ADDAY121031AY221031GF107991031081012501071021MA1999999097331MD1710241+9999MW1021REMSYN072AAXX  06094 01278 41689 71515 10082 20020 39733 49831 57024 70222 83872;
0161012780999992000010612004+63800+011570FM-12+005299999V0201501N006212200019N0750001N1+00821+00171098191ADDAY111061AY211061GF103991021081012501071001MA1999999097211MD1710121+9999MW1021REMSYN072AAXX  06124 01278 41689 31512 10082 20017 39721 49819 57012 70211 82870;
0230012780999992000010706004+63800+011570FM-12+005299999V0202701N001019999999N0300001N1+00311+00001099481ADDAA112004191AJ100009199999999AY181061AY221061GF107991071001008001071999IA1259KA1120N+00111MA1999999098471MD1210321+9999MW1021REMSYN094AAXX  07064 01278 11580 72702 10031 20000 39847 49948 52032 60042 70282 8707/ 333 20011 41998;
0161012780999992000010709004+63800+011570FM-12+005299999V0201501N001019999999N0550001N1+00221-00181099401ADDAY111031AY211031GF107991071001999999021999MA1999999098391MD1810081+9999MW1031REMSYN072AAXX  07094 01278 41985 71502 10022 21018 39839 49940 58008 70311 8702/;
0171012780999992000010712004+63800+011570FM-12+005299999V0201501N006210024019N0030001N1+00321-00401099021ADDAY171061AY211061GA1091+999999999GF109991091999999999999999MA1999999098011MD1710381+9999MW1731REMSYN066AAXX  07124 01278 41/30 91512 10032 21040 39801 49902 57038 77371;
0201012780999992000010718004+63800+011570FM-12+005299999V0201201N002110150019N0300001N1+00601+00091098401ADDAA112002091AY171061AY261061GF108991081001017501021999KA1999M+00661MA1999999097411MD1710181+9999MW1021REMSYN088AAXX  07184 01278 11780 81204 10060 20009 39741 49840 57018 60022 70276 8802/ 333 10066;
0249012780999992000010806004+63800+011570FM-12+005299999V0200901N000519999999N0300001N1+00441+00401097901ADDAA112002091AJ100009199999999AY181061AY211061GF107991999021012501081011IA1259KA1120N+00401MA1999999096911MD1010281+9999MW1021REMSYN094AAXX  08064 01278 11680 70901 10044 20040 39691 49790 50028 60022 70281 80281 333 20040 41998;EQDQ01+000002SCOTLC
0161012780999992000010809004+63800+011570FM-12+005299999V0201201N001012200019N0550001N1+00271+00191098001ADDAY181031AY211031GF102991021081012501001021MA1999999097001MD1210091+9999MW1011REMSYN072AAXX  08094 01278 41685 21202 10027 20019 39700 49800 52009 70181 82802;
0161012780999992000010812004+63800+011570FM-12+005299999V0201501N004612200019N0750001N1+00461-00181097801ADDAY181061AY211061GF102991011041017501031011MA1999999096811MD1710191+9999MW1021REMSYN072AAXX  08124 01278 41789 21509 10046 21018 39681 49780 57019 70281 81431;
0201012780999992000010818004+63800+011570FM-12+005299999V0202701N002110042019N0200001N1+00421+00361098121ADDAA112002091AY181061AY211061GF108991081091004501999999KA1999M+00711MA1999999097121MD1210351+9999MW1801REMSYN088AAXX  08184 01278 11470 82704 10042 20036 39712 49812 52035 60022 78081 889// 333 10071;
0161012780999992000010909004+63800+011570FM-12+005299999V0202801N001010300019N0100001N1+00161+00161099731ADDAY181031AY261031GF108991041091004501021999MA1999999098711MD1210341+9999MW1801REMSYN072AAXX  09094 01278 41460 82802 10016 20016 39871 49973 52034 78086 8492/;
0161012780999992000010912004+63800+011570FM-12+005299999V0203301N001010042019N0300001N1+00161+00161100091ADDAY181061AY261061GF105991051091004501999999MA1999999099061MD1210351+9999MW1021REMSYN072AAXX  09124 01278 41480 53302 10016 20016 39906 40009 52035 70286 859//;
0201012780999992000010918004+63800+011570FM-12+005299999V0203201N001010042019N0150001N1+00171+00171100751ADDAA112004191AY181061AY221061GF108991081091004501999999KA1999M+00301MA1999999099721MD1210321+9999MW1801REMSYN088AAXX  09184 01278 11465 83202 10017 20017 39972 40075 52032 60042 78082 889// 333 10030;
0240012780999992000011006004+63800+011570FM-12+005299999V0203301N000510024019N0030001N1+00091+00091101441ADDAA112005191AJ100039199999999AY181061AY221061GA1091+999999999GF109991091999999999999999IA1279KA1120N-00011MA1999999100401MD1210061+9999MW1851REMSYN088AAXX  10064 01278 11/30 93301 10009 20009 30040 40144 52006 60052 78582 333 21001 43003;
0161012780999992000011009004+63800+011570FM-12+005299999V0209999C000010180019N0750001N1+00191+00131101441ADDAY181031AY221031GF108991061081017501071999MA1999999100401MD1410001+9999MW1021REMSYN072AAXX  10094 01278 41789 80000 10019 20013 30040 40144 54000 70282 8687/;
0161012780999992000011012004+63800+011570FM-12+005299999V0200901N000510150019N0750001N1+00131-00031101311ADDAY181061AY221061GF108991081001017501021999MA1999999100271MD1710131+9999MW1021REMSYN072AAXX  10124 01278 41789 80901 10013 21003 30027 40131 57013 70282 8802/;
0201012780999992000011018004+63800+011570FM-12+005299999V0201501N003110150019N0300001N1+00291+00111100851ADDAA112000791AY161061AY221061GF108991081001017501021999KA1999M+00471MA1999999099821MD1710111+9999MW1601REMSYN088AAXX  10184 01278 11780 81506 10029 20011 39982 40085 57011 69902 76062 8802/ 333 10047;
0230012780999992000011106004+63800+011570FM-12+005299999V0203001N001010300019N0100001N1+00291+00291100981ADDAA112000591AJ100009199999999AY181061AY261061GF108991041091004501021999IA1309KA1120N+00231MA1999999099951MD1210121+9999MW1811REMSYN094AAXX  11064 01278 11460 83002 10029 20029 39995 40098 52012 69942 78186 8492/ 333 20023 42998;
0161012780999992000011109004+63800+011570FM-12+005299999V0209999C000010042019N0100001N1+00271+00271101171ADDAY181031AY221031GF107991061091004501061999MA1999999100131MD1210181+9999MW1151REMSYN072AAXX  11094 01278 41460 70000 10027 20027 30013 40117 52018 71582 8696/;
0161012780999992000011112004+63800+011570FM-12+005299999V0203001N001010300019N0750001N1+00271+00261101211ADDAY181061AY221061GF107991041081004501061021MA1999999100171MD1110041+9999MW1021REMSYN072AAXX  11124 01278 41489 73002 10027 20026 30017 40121 51004 70282 84862;
0201012780999992000011118004+63800+011570FM-12+005299999V0201001N001010300019N0300001N1+00251+00171100951ADDAA112003091AY181061AY221061GF107991011081017501021999KA1999M+00351MA1999999099921MD1710201+9999MW1021REMSYN088AAXX  11184 01278 11780 71002 10025 20017 39992 40095 57020 60032 70282 8182/ 333 10035;
0243012780999992000011206004+63800+011570FM-12+005299999V0202701N002110300019N0300001N1+00361+00181100261ADDAA106000091AJ100009199999999AY121061AY221061GF108991011081017501071999IA1259KA1120N+00221MA1999999099241MD1210111+9999MW1021REMSYN088AAXX  12064 01278 31780 82704 10036 20018 39924 40026 52011 70222 8187/ 333 20022 41998;EQDQ01  00002PRCP06
0161012780999992000011209004+63800+011570FM-12+005299999V0202701N001010075019N0300001N1+00271+00151100391ADDAY181031AY221031GF108991071091008001021999MA1999999099361MD1210121+9999MW1021REMSYN072AAXX  12094 01278 41580 82702 10027 20015 39936 40039 52012 70282 8792/;
0171012780999992000011212004+63800+011570FM-12+005299999V0209999C000010024019N0030001N1+00051+00051100611ADDAY181061AY221061GA1091+999999999GF109991091999999999999999MA1999999099571MD1210211+9999MW1861REMSYN066AAXX  12124 01278 41/30 90000 10005 20005 39957 40061 52021 78682;
0201012780999992000011218004+63800+011570FM-12+005299999V0209999C000010300019N0300001N1+00121+00121100851ADDAA112002091AY181061AY221061GF107991011081017501071999KA1999M+00401MA1999999099821MD1210101+9999MW1021REMSYN088AAXX  12184 01278 11780 70000 10012 20012 39982 40085 52010 60022 70282 8187/ 333 10040;
0171012780999992000011309004+63800+011570FM-12+005299999V0201501N000510024019N0035001N1-00121-00121101011ADDAY171031AY271031GA1091+999999999GF109991091999999999999999MA1999999099961MD1210131+9999MW1711REMSYN066AAXX  13094 01278 41/35 91501 11012 21012 39996 40101 52013 77177;
0161012780999992000011312004+63800+011570FM-12+005299999V0201501N000510006019N0100001N1-00051-00051101321ADDAY171061AY221061GF108991081061000751999999MA1999999100271MD1210311+9999MW1021REMSYN072AAXX  13124 01278 41160 81501 11005 21005 30027 40132 52031 70272 886//;
0201012780999992000011318004+63800+011570FM-12+005299999V0203001N000510300019N0250001N1+00071+00071101851ADDAA112002091AY171061AY221061GF108991021081008001021999KA1999M+00151MA1999999100801MD1210321+9999MW1021REMSYN088AAXX  13184 01278 11575 83001 10007 20007 30080 40185 52032 60022 70272 8282/ 333 10015;
0234012780999992000011406004+63800+011570FM-12+005299999V0209999C000010300019N0300001N1-00231-00231102511ADDAA112000191AJ100059199999999AY171061AY221061GF106991011081017501071021IA1279KA1120N-00331MA1999999101441MD1210061+9999MW1021REMSYN098    AAXX  14064 01278 11780 60000 11023 21023 30144 40251 52006 69912 70272 81872 333 21033 43005;
0165012780999992000011409004+63800+011570FM-12+005299999V0203001N001010042019N0300001N1-00051-00051102531ADDAY181031AY221031GF107991051091004501061021MA1999999101471MD1210031+9999MW1021REMSYN076    AAXX  14094 01278 41480 73002 11005 21005 30147 40253 52003 70282 85962;
0165012780999992000011412004+63800+011570FM-12+005299999V0203301N001010300019N0300001N1-00031-00041102561ADDAY181061AY221061GF106991041091004501061999MA1999999101501MD1210031+9999MW1021REMSYN076    AAXX  14124 01278 41480 63302 11003 21004 30150 40256 52003 70282 8496/;
0205012780999992000011418004+63800+011570FM-12+005299999V0202701N001010300019N0300001N1+00041-00121102471ADDAA112000791AY121061AY221061GF107991021081017501071999KA1999M+00071MA1999999101421MD1710061+9999MW1021REMSYN092    AAXX  14184 01278 11780 72702 10004 21012 30142 40247 57006 69902 70222 8287/ 333 10007;
0234012780999992000011506004+63800+011570FM-12+005299999V0203301N001010300019N0250001N1+00231+00231102141ADDAA112003091AJ100029199999999AY181061AY221061GF108991021091004501021999IA1279KA1120N+00001MA1999999101091MD1710091+9999MW1801REMSYN098    AAXX  15064 01278 11475 83302 10023 20023 30109 40214 57009 60032 78082 8292/ 333 20000 43002;
0165012780999992000011509004+63800+011570FM-12+005299999V0203301N002110012019N0080001N1+00311+00311102011ADDAY181031AY221031GF108991081091001501999999MA1999999100971MD1710121+9999MW1801REMSYN076    AAXX  15094 01278 41258 83304 10031 20031 30097 40201 57012 78082 889//;
0165012780999992000011512004+63800+011570FM-12+005299999V0203001N004610042019N0200001N1+00411+00411102001ADDAY181061AY221061GF108991081091004501999999MA1999999100971MD1410001+9999MW1801REMSYN076    AAXX  15124 01278 41470 83009 10041 20041 30097 40200 54000 78082 889//;
0205012780999992000011518004+63800+011570FM-12+005299999V0203301N002110042019N0200001N1+00371+00371102031ADDAA112002091AY181061AY221061GF108991081091004501999999KA1999M+00451MA1999999100991MD1210011+9999MW1801REMSYN092    AAXX  15184 01278 11470 83304 10037 20037 30099 40203 52001 60022 78082 889// 333 10045;
0234012780999992000011606004+63800+011570FM-12+005299999V0202801N004610042019N0100001N1+00521+00451101141ADDAA112000891AJ100009199999999AY181061AY221061GF108991081091004501999999IA1259KA1120N+00331MA1999999100121MD1710391+9999MW1801REMSYN098    AAXX  16064 01278 11460 82809 10052 20045 30012 40114 57039 69972 78082 889// 333 20033 41998;
0165012780999992000011609004+63800+011570FM-12+005299999V0203301N004610042019N0200001N1+00631+00631100661ADDAY181031AY221031GF108991081091004501999999MA1999999099651MD1710491+9999MW1801REMSYN076    AAXX  16094 01278 41470 83309 10063 20063 39965 40066 57049 78082 889//;
0165012780999992000011612004+63800+011570FM-12+005299999V0203301N007710042019N0100001N1+00611+00471100261ADDAY181061AY221061GF107991071091004501999999MA1999999099251MD1710401+9999MW1811REMSYN076    AAXX  16124 01278 41460 73315 10061 20047 39925 40026 57040 78182 879//;
0205012780999992000011618004+63800+011570FM-12+005299999V0203301N006210042019N0100001N1+00261+00231100191ADDAA112002091AY181061AY221061GF108991081091004501999999KA1999M+00661MA1999999099161MD1210101+9999MW1801REMSYN092    AAXX  16184 01278 11460 83312 10026 20023 39916 40019 52010 60022 78082 889// 333 10066;
0244012780999992000011706004+63800+011570FM-12+005299999V0203201N004610024019N0030001N1+00091+00081100191ADDAA112003091AJ100009199999999AY181061AY221061GA1091+999999999GF109991091999999999999999IA1279KA1120N+00071MA1999999099161MD1210131+9999MW1881REMSYN092    AAXX  17064 01278 11/30 93209 10009 20008 39916 40019 52013 60032 78882 333 20007 43997;
0165012780999992000011709004+63800+011570FM-12+005299999V0203101N007710042019N0100001N1+00031+00001100251ADDAY181031AY221031GF108991081091004501999999MA1999999099221MD1210041+9999MW1851REMSYN076    AAXX  17094 01278 41460 83115 10003 20000 39922 40025 52004 78582 889//;
0165012780999992000011712004+63800+011570FM-12+005299999V0203101N006210042019N0040001N1+00071+00071100331ADDAY181061AY221061GF107991071091004501061999MA1999999099301MD1210081+9999MW1851REMSYN076    AAXX  17124 01278 41440 73112 10007 20007 39930 40033 52008 78582 8796/;
0215012780999992000011718004+63800+011570FM-12+005299999V0203201N002110024019N0040001N1+00091+00051100561ADDAA112001091AY181061AY221061GA1091+999999999GF109991091999999999999999KA1999M+00181MA1999999099521MD1210071+9999MW1851REMSYN086    AAXX  17184 01278 11/40 93204 10009 20005 39952 40056 52007 69992 78582 333 10018;
0244012780999992000011806004+63800+011570FM-12+005299999V0203001N002110024019N0030001N1+00041+00041100811ADDAA112007191AJ100089199999999AY181061AY221061GA1091+999999999GF109991091999999999999999IA1279KA1120N-00051MA1999999099771MD1210251+9999MW1841REMSYN092    AAXX  18064 01278 11/30 93004 10004 20004 39977 40081 52025 60072 78482 333 21005 43008;
0165012780999992000011809004+63800+011570FM-12+005299999V0202801N003110006019N0070001N1+00131+00131101001ADDAY181031AY221031GF108991071091000751021999MA1999999099971MD1210201+9999MW1151REMSYN076    AAXX  18094 01278 41157 82806 10013 20013 39997 40100 52020 71582 8792/;
0165012780999992000011812004+63800+011570FM-12+005299999V0203301N001010042019N0300001N1+00081+00081101271ADDAY181061AY221061GF107991071091004501999999MA1999999100231MD1210261+9999MW1831REMSYN076    AAXX  18124 01278 41480 73302 10008 20008 30023 40127 52026 78382 879//;
0205012780999992000011818004+63800+011570FM-12+005299999V0203301N002110300019N0300001N1+00071-00041101881ADDAA112005191AY181061AY221061GF105991041091004501061999KA1999M+00181MA1999999100831MD1210241+9999MW1021REMSYN092    AAXX  18184 01278 11480 53304 10007 21004 30083 40188 52024 60052 70282 8496/ 333 10018;
0165012780999992000011909004+63800+011570FM-12+005299999V0203001N001010042019N0150001N1-00041-00041101801ADDAY181031AY221031GF108991081091004501999999MA1999999100751MD1710071+9999MW1851REMSYN076    AAXX  19094 01278 41465 83002 11004 21004 30075 40180 57007 78582 889//;
0165012780999992000011912004+63800+011570FM-12+005299999V0203001N001010042019N0250001N1-00011-00011101801ADDAY181061AY221061GF108991071091004501021999MA1999999100751MD1410001+9999MW1851REMSYN076    AAXX  19124 01278 41475 83002 11001 21001 30075 40180 54000 78582 8792/;
0201012780999992000011918004+63800+011570FM-12+005299999V0202801N002110042019N0100001N1+00101+00101101221ADDAA112001091AY181061AY221061GF108991081091004501999999KA1999M+00171MA1999999100181MD1710371+9999MW1851REMSYN088AAXX  19184 01278 11460 82804 10010 20010 30018 40122 57037 69992 78582 889// 333 10017;
0230012780999992000012006004+63800+011570FM-12+005299999V0203001N002110042019N0100001N1-00081-00081100781ADDAA112006191AJ100089199999999AY181061AY221061GF107991071091004501999999IA1279KA1120N-00091MA1999999099741MD1210101+9999MW1851REMSYN094AAXX  20064 01278 11460 73004 11008 21008 39974 40078 52010 60062 78582 879// 333 21009 43008;
0161012780999992000012009004+63800+011570FM-12+005299999V0203201N001010300019N0300001N1-00231-00241100941ADDAY181031AY221031GF106991041091004501071021MA1999999099891MD1210151+9999MW1851REMSYN072AAXX  20094 01278 41480 63202 11023 21024 39989 40094 52015 78582 84972;
0161012780999992000012012004+63800+011570FM-12+005299999V0202901N002110300019N0100001N1-00251-00251100921ADDAY181061AY221061GF107991041091004501071021MA1999999099871MD1710021+9999MW1851REMSYN072AAXX  20124 01278 41460 72904 11025 21025 39987 40092 57002 78582 84972;
0201012780999992000012018004+63800+011570FM-12+005299999V0203001N001010042019N0300001N1-00461-00461100881ADDAA112003091AY181061AY221061GF107991071091004501999999KA1999M-00061MA1999999099821MD1210011+9999MW1851REMSYN088AAXX  20184 01278 11480 73002 11046 21046 39982 40088 52001 60032 78582 879// 333 11006;
0230012780999992000012106004+63800+011570FM-12+005299999V0201301N000510042019N0150001N1-00831-00831101831ADDAA112003091AJ100199199999999AY181061AY221061GF107991071001004501021999IA1239KA1120N-00961MA1999999100741MD1210201+9999MW1021REMSYN094AAXX  21064 01278 11465 71301 11083 21083 30074 40183 52020 60032 70282 8702/ 333 21096 47019;
0161012780999992000012109004+63800+011570FM-12+005299999V0201301N001012200019N0300001N1-00911-00911101951ADDAY171031AY221031GF104991021081004501001011MA1999999100861MD1210121+9999MW1011REMSYN072AAXX  21094 01278 41480 41302 11091 21091 30086 40195 52012 70172 82801;
0161012780999992000012112004+63800+011570FM-12+005299999V0201501N001010090019N0750001N1-00911-00911101961ADDAY171061AY221061GF107991051081004501061021MA1999999100871MD1210011+9999MW1021REMSYN072AAXX  21124 01278 41489 71502 11091 21091 30087 40196 52001 70272 85862;
0201012780999992000012118004+63800+011570FM-12+005299999V0201501N001010150019N0300001N1-00791-00791101471ADDAA112000791AY121061AY221061GF108991081001017501021999KA1999M-00711MA1999999100391MD1710311+9999MW1021REMSYN088AAXX  21184 01278 11780 81502 11079 21079 30039 40147 57031 69902 70222 8802/ 333 11071;
0230012780999992000012206004+63800+011570FM-12+005299999V0201301N000519999999N0550001N1-00971-01011100991ADDAA112000791AJ100129199999999AY171061AY221061GF107991071001999999011999IA1239KA1120N-00991MA1999999099911MD1410001+9999MW1021REMSYN094AAXX  22064 01278 11985 71301 11097 21101 39991 40099 54000 69902 70272 8701/ 333 21099 47012;
0161012780999992000012209004+63800+011570FM-12+005299999V0201201N001019999999N0550001N1-01021-01031101131ADDAY121031AY221031GF107991041001999999011011MA1999999100041MD1210131+9999MW1021REMSYN072AAXX  22094 01278 41985 71202 11102 21103 30004 40113 52013 70222 84011;
0161012780999992000012212004+63800+011570FM-12+005299999V0201501N001010150019N0300001N1-00981-01031101231ADDAY121061AY221061GF108991081001017501021999MA1999999100151MD1210111+9999MW1151REMSYN072AAXX  22124 01278 41780 81502 11098 21103 30015 40123 52011 71522 8802/;
0201012780999992000012218004+63800+011570FM-12+005299999V0201101N000512200019N0300001N1-01081-01091101451ADDAA112000591AY171061AY211061GF101991001001999999001021KA1999M-00901MA1999999100361MD1210161+9999MW1011REMSYN088AAXX  22184 01278 11980 11101 11108 21109 30036 40145 52016 69962 70171 80002 333 11090;
0230012780999992000012306004+63800+011570FM-12+005299999V0200901N000510042019N0300001N1-01121-01121101881ADDAA112000591AJ100139199999999AY171061AY211061GF108991081001004501021999IA1239KA1120N-01581MA1999999100781MD1710101+9999MW1021REMSYN094AAXX  23064 01278 11480 80901 11112 21112 30078 40188 57010 69942 70271 8802/ 333 21158 47013;
0161012780999992000012309004+63800+011570FM-12+005299999V0201501N001010042019N0300001N1-00891-00891101921ADDAY171031AY221031GF108991081001004501021999MA1999999100831MD1210051+9999MW1701REMSYN072AAXX  23094 01278 41480 81502 11089 21089 30083 40192 52005 77072 8802/;
0201012780999992000012318004+63800+011570FM-12+005299999V0201201N000510042019N0300001N1-00471-00471101631ADDAA112000191AY171061AY221061GF108991081001004501021999KA1999M-00451MA1999999100561MD1710101+9999MW1701REMSYN088AAXX  23184 01278 11480 81201 11047 21047 30056 40163 57010 69912 77072 8802/ 333 11045;
0230012780999992000012406004+63800+011570FM-12+005299999V0203201N002110300019N0100001N1+00051+00051101201ADDAA112002091AJ100149199999999AY181061AY271061GF108991011091004501021999IA1239KA1120N-00481MA1999999100161MD1710101+9999MW1851REMSYN094AAXX  24064 01278 11460 83204 10005 20005 30016 40120 57010 60022 78587 8192/ 333 21048 47014;
0161012780999992000012409004+63800+011570FM-12+005299999V0203201N001010042019N0300001N1+00161+00161101301ADDAY181031AY221031GF108991071091004501021999MA1999999100261MD1210101+9999MW1021REMSYN072AAXX  24094 01278 41480 83202 10016 20016 30026 40130 52010 70282 8792/;
0161012780999992000012412004+63800+011570FM-12+005299999V0202901N002110042019N0300001N1+00171+00171101461ADDAY181061AY221061GF107991071091004501999999MA1999999100421MD1210161+9999MW1501REMSYN072AAXX  24124 01278 41480 72904 10017 20017 30042 40146 52016 75082 879//;
0201012780999992000012418004+63800+011570FM-12+005299999V0203001N000510300019N0300001N1+00161+00161101671ADDAA112000791AY151061AY221061GF108991041081004501071021KA1999M+00211MA1999999100631MD1210101+9999MW1021REMSYN088AAXX  24184 01278 11480 83001 10016 20016 30063 40167 52010 69902 70252 84872 333 10021;
0230012780999992000012506004+63800+011570FM-12+005299999V0203201N002110300019N0200001N1+00341+00341101341ADDAA112000191AJ100109199999999AY181061AY221061GF108991021091001501021999IA1279KA1120N+00131MA1999999100311MD1410001+9999MW1801REMSYN094AAXX  25064 01278 11270 83204 10034 20034 30031 40134 54000 69922 78082 8292/ 333 20013 43010;
0161012780999992000012509004+63800+011570FM-12+005299999V0203301N002110090019N0250001N1+00331+00331101571ADDAY181031AY221031GF107991071081004501999999MA1999999100531MD1210221+9999MW1021REMSYN072AAXX  25094 01278 41475 73304 10033 20033 30053 40157 52022 70282 878//;
0161012780999992000012512004+63800+011570FM-12+005299999V0203101N002110090019N0300001N1+00331+00321101571ADDAY181061AY221061GF107991071081004501999999MA1999999100531MD1410001+9999MW1021REMSYN072AAXX  25124 01278 41480 73104 10033 20032 30053 40157 54000 70282 878//;
0201012780999992000012518004+63800+011570FM-12+005299999V0209999C000019999999N0300001N1+00301+00301101411ADDAA112000791AY121061AY221061GF108991081001004501071999KA1999M+00441MA1999999100381MD1710021+9999MW1021REMSYN088AAXX  25184 01278 11480 80000 10030 20030 30038 40141 57002 69902 70222 8807/ 333 10044;
0230012780999992000012606004+63800+011570FM-12+005299999V0202701N001010300019N0100001N1+00431+00431100901ADDAA112000591AJ100059199999999AY181061AY221061GF108991011091004501021999IA1309KA1120N+00291MA1999999099881MD1710121+9999MW1801REMSYN094AAXX  26064 01278 11460 82702 10043 20043 39988 40090 57012 69962 78082 8192/ 333 20029 42005;
0161012780999992000012609004+63800+011570FM-12+005299999V0202801N006210042019N0100001N1+00461+00451100801ADDAY181031AY221031GF108991081091004501999999MA1999999099781MD1710101+9999MW1801REMSYN072AAXX  26094 01278 41460 82812 10046 20045 39978 40080 57010 78082 889//;
0161012780999992000012612004+63800+011570FM-12+005299999V0203001N004610012019N0060001N1+00421+00421100611ADDAY181061AY221061GF108991081091001501999999MA1999999099591MD1710191+9999MW1801REMSYN072AAXX  26124 01278 41256 83009 10042 20042 39959 40061 57019 78082 889//;
0201012780999992000012618004+63800+011570FM-12+005299999V0203001N001010042019N0200001N1+00161+00161100621ADDAA112004191AY181061AY221061GF108991081091004501999999KA1999M+00481MA1999999099591MD1710031+9999MW1801REMSYN088AAXX  26184 01278 11470 83002 10016 20016 39959 40062 57003 60042 78082 889// 333 10048;
0240012780999992000012706004+63800+011570FM-12+005299999V0202701N000510024019N0030001N1+00001-00011100401ADDAA112000591AJ100019199999999AY181061AY221061GA1091+999999999GF109991091999999999999999IA1239KA1120N-00011MA1999999099371MD1710091+9999MW1851REMSYN088AAXX  27064 01278 11/30 92701 10000 21001 39937 40040 57009 69952 78582 333 21001 47001;
0171012780999992000012709004+63800+011570FM-12+005299999V0203001N001010024019N0030001N1+00021+00021099991ADDAY181031AY221031GA1091+999999999GF109991091999999999999999MA1999999098961MD1710411+9999MW1851REMSYN066AAXX  27094 01278 41/30 93002 10002 20002 39896 49999 57041 78582;
0161012780999992000012712004+63800+011570FM-12+005299999V0209999C000010042019N0300001N1+00021+00021099631ADDAY181061AY221061GF108991081091004501999999MA1999999098601MD1710361+9999MW1851REMSYN072AAXX  27124 01278 41480 80000 10002 20002 39860 49963 57036 78582 889//;
0211012780999992000012718004+63800+011570FM-12+005299999V0202801N000510003019N0002001N1-00041-00041099141ADDAA112009991AY181061AY271061GA1091+999999999GF109991091999999999999999KA1999M+00061MA1999999098111MD1710161+9999MW1731REMSYN082AAXX  27184 01278 11/02 92801 11004 21004 39811 49914 57016 60102 77387 333 10006;
0224012780999992000012806004+63800+011570FM-12+005299999V0203201N000519999999N0030001N1-00341-00341099411ADDAA112005191AJ100219199999999AY181061AY221061GF108991999999999999999999IA1239KA1120N-00371MA1999999098371MD1410001+9999MW1851REMSYN088AAXX  28064 01278 11/30 83201 11034 21034 39837 49941 54000 60052 78582 333 21037 47021;
0171012780999992000012809004+63800+011570FM-12+005299999V0209999C000010024019N0050001N1-00421-00421099411ADDAY181031AY221031GA1091+999999999GF109991091999999999999999MA1999999098371MD1410001+9999MW1851REMSYN066AAXX  28094 01278 41/50 90000 11042 21042 39837 49941 54000 78582;
0161012780999992000012812004+63800+011570FM-12+005299999V0201401N000510042019N0150001N1-00401-00401099201ADDAY181061AY221061GF108991051091004501021999MA1999999098161MD1710211+9999MW1851REMSYN072AAXX  28124 01278 41465 81401 11040 21040 39816 49920 57021 78582 8592/;
0201012780999992000012818004+63800+011570FM-12+005299999V0201301N001010300019N0300001N1-00451-00451098921ADDAA112001091AY181061AY221061GF108991011081004501071999KA1999M-00301MA1999999097881MD1710201+9999MW1021REMSYN088AAXX  28184 01278 11480 81302 11045 21045 39788 49892 57020 69992 70282 8187/ 333 11030;
0259012780999992000012906004+63800+011570FM-12+005299999V0201001N004610150019N0250001N1-00431-00611096881ADDAA199000091AJ100189199999999AY121061AY221061GF108991081001017501021999IA1239KA1120N-00761MA1999999095861MD1710902+9999MW1021REMSYN088AAXX  29064 01278 31775 81009 11043 21061 39586 49688 57090 70222 8802/ 333 21076 47018;EQDQ01+000902APC3  Q02  00002PRCP99
0222012780999992000012912004+63800+011570FM-12+005299999V0201401N003110003019N0003001N1-00191-00191095342ADDAY171061AY221061GA1091+999999999GF109991091999999999999999MA1999999094352MD1710592+9999MW1731REMSYN066AAXX  29124 01278 41/03 91406 11019 21019 39435 49534 57059 77372;EQDQ01+094353APOSP Q02+095343APOSLPQ03+000592APC3  
0201012780999992000012918004+63800+011570FM-12+005299999V0201301N001010042019N0250001N1+00021+00021094791ADDAA112006191AY171061AY221061GF107991071001004501021999KA1999M+00211MA1999999093811MD1710041+9999MW1021REMSYN088AAXX  29184 01278 11475 71302 10002 20002 39381 49479 57004 60062 70272 8702/ 333 10021;
0161012780999992000012921004+63800+011570FM-12+005299999V0201401N001010300019N0300001N1-00011-00011094781ADDAY121031AY221031GF108991041081008001071999MA1999999093801MD1710011+9999MW1021REMSYN072AAXX  29214 01278 41580 81402 11001 21001 39380 49478 57001 70222 8487/;
0259012780999992000013006004+63800+011570FM-12+005299999V0203001N007710024019N0040001N1-00121-00131096651ADDAA112000191AJ100259199999999AY181061AY221061GA1091+999999999GF109991091999999999999999IA1289KA1120N-00181MA1999999095651MD1210902+9999MW1851REMSYN088AAXX  30064 01278 11/40 93015 11012 21013 39565 49665 52090 69922 78582 333 21018 44025;EQDQ01+000902APC3  
0161012780999992000013009004+63800+011570FM-12+005299999V0203001N009810042019N0050001N1-00351-00351097401ADDAY181031AY221031GF107991071091004501999999MA1999999096381MD1210731+9999MW1861REMSYN072AAXX  30094 01278 41450 73019 11035 21035 39638 49740 52073 78682 879//;
0161012780999992000013012004+63800+011570FM-12+005299999V0203001N006210042019N0100001N1-00341-00791098091ADDAY181061AY221061GF107991071091004501999999MA1999999097061MD1210681+9999MW1861REMSYN072AAXX  30124 01278 41460 73012 11034 21079 39706 49809 52068 78682 879//;
0246012780999992000013018004+63800+011570FM-12+005299999V0203001N006210003019N0002001N1-00541-00541098902ADDAA112000391AY181061AY221061GA1091+999999999GF109991091999999999999999KA1999M-00051MA1999999097862MD1210301+9999MW1861REMSYN082AAXX  30184 01278 11/02 93012 11054 21054 39786 49890 52030 69932 78682 333 11005;EQDQ01+097863APOSP Q02+098903APOSLP
0230012780999992000013106004+63800+011570FM-12+005299999V0201401N001012200019N0550001N1-00771-00921098751ADDAA112000391AJ100289199999999AY181061AY211061GF101991001001999999001021IA1249KA1120N-00801MA1999999097701MD1710201+9999MW1021REMSYN094AAXX  31064 01278 11985 11402 11077 21092 39770 49875 57020 69932 70281 80002 333 21080 48028;
0180012780999992000013109004+63800+011570FM-12+005299999V0200901N001019999999N0750001N1-00451-01121098531ADDAY111031AY211031GF107991999001999999011999MA1999999097501MD1710201+9999MW1031REMSYN072AAXX  31094 01278 41989 70902 11045 21112 39750 49853 57020 70311 8801/;EQDQ01+000082SCOTLC
0171012780999992000013112004+63800+011570FM-12+005299999V0202801N006210006019N0010001N1-00181-00181098211ADDAY181061AY231061GA1091+999999999GF109991091999999999999999MA1999999097191MD1510311+9999MW1851REMSYN066AAXX  31124 01278 41/10 92812 11018 21018 39719 49821 55031 78583;
0246012780999992000013118004+63800+011570FM-12+005299999V0202901N006210006019N0008001N1-00171-00471099112ADDAA112001091AY181061AY231061GA1091+999999999GF109991091999999999999999KA1999M-00141MA1999999098082MD1210201+9999MW1861REMSYN082AAXX  31184 01278 11/08 92912 11017 21047 39808 49911 52020 60012 78683 333 11014;EQDQ01+098083APOSP Q02+099113APOSLP
0230012780999992000020106004+63800+011570FM-12+005299999V0202801N003112200019N0300001N1-00161-00341100111ADDAA112004191AJ100529199999999AY181061AY231061GF103991021081008001001021IA1249KA1120N-00271MA1999999099071MD1210101+9999MW1021REMSYN094AAXX  01064 01278 11580 32806 11016 21034 39907 40011 52010 60042 70283 82802 333 21027 48052;
0161012780999992000020109004+63800+011570FM-12+005299999V0203301N001010300019N0550001N1-00241-00361100111ADDAY111031AY211031GF106991041091004501061021MA1999999099071MD1410001+9999MW1021REMSYN072AAXX  01094 01278 41485 63302 11024 21036 39907 40011 54000 70211 84962;
0161012780999992000020112004+63800+011570FM-12+005299999V0209999C000010075019N0550001N1-00221-00331100041ADDAY181061AY211061GF108991071091008001071999MA1999999099001MD1710071+9999MW1851REMSYN072AAXX  01124 01278 41585 80000 11022 21033 39900 40004 57007 78581 8797/;
0201012780999992000020118004+63800+011570FM-12+005299999V0201501N001010210019N0550001N1-00451-00461099531ADDAA112000791AY181061AY221061GF106991061001022501071999KA1999M-00121MA1999999098491MD1710401+9999MW1021REMSYN088AAXX  01184 01278 11885 61502 11045 21046 39849 49953 57040 69902 70282 8607/ 333 11012;
0243012780999992000020206004+63800+011570FM-12+005299999V0201501N001019999999N0550001N1-00691-00911098761ADDAA199000091AJ100469199999999AY121061AY221061GF106991041001999999071021IA1249KA1120N-00721MA1999999097711MD1610041+9999MW1021REMSYN088AAXX  02064 01278 31985 61502 11069 21091 39771 49876 56004 70222 84072 333 21072 48046;EQDQ01  00002PRCP99
0161012780999992000020209004+63800+011570FM-12+005299999V0201001N002110300019N0750001N1-00631-00891098771ADDAY121031AY221031GF108991011081017501071021MA1999999097721MD1210011+9999MW1021REMSYN072AAXX  02094 01278 41789 81004 11063 21089 39772 49877 52001 70222 81872;
0161012780999992000020212004+63800+011570FM-12+005299999V0201501N002110300019N0550001N1-00561-00821098831ADDAY121061AY221061GF108991011011017501071021MA1999999097791MD1210071+9999MW1021REMSYN072AAXX  02124 01278 41785 81504 11056 21082 39779 49883 52007 70222 81172;
0214012780999992000020218004+63800+011570FM-12+005299999V0201501N000510300019N0250001N1-00791-00851099351ADDAA199000091AY121061AY221061GF107991011081012501071999KA1999M-00531MA1999999098301MD1210271+9999MW1021REMSYN082AAXX  02184 01278 31675 71501 11079 21085 39830 49935 52027 70222 8187/ 333 11053;EQDQ01  00002PRCP99
0230012780999992000020306004+63800+011570FM-12+005299999V0202801N001010042019N0250001N1-00301-00301100521ADDAA112002091AJ100499199999999AY181061AY221061GF107991061091004501071999IA1249KA1120N-00991MA1999999099471MD1210251+9999MW1021REMSYN094AAXX  03064 01278 11475 72802 11030 21030 39947 40052 52025 60022 70282 8697/ 333 21099 48049;
0161012780999992000020309004+63800+011570FM-12+005299999V0203001N001010012019N0100001N1-00101-00101100921ADDAY181031AY221031GF108991081091001501999999MA1999999099881MD1210411+9999MW1851REMSYN072AAXX  03094 01278 41260 83002 11010 21010 39988 40092 52041 78582 889//;
0161012780999992000020312004+63800+011570FM-12+005299999V0203001N002110042019N0300001N1-00051-00051101231ADDAY181061AY221061GF107991061091004501061999MA1999999100181MD1210301+9999MW1021REMSYN072AAXX  03124 01278 41480 73004 11005 21005 30018 40123 52030 70282 8696/;
0201012780999992000020318004+63800+011570FM-12+005299999V0200901N000519999999N0550001N1-00021-00311101031ADDAA112002091AY181061AY221061GF108991081001008001071999KA1999M+00021MA1999999099991MD1710301+9999MW1021REMSYN088AAXX  03184 01278 11585 80901 11002 21031 39999 40103 57030 60022 70282 8807/ 333 10002;
0230012780999992000020406004+63800+011570FM-12+005299999V0203001N002110300019N0200001N1+00341+00191099191ADDAA112007191AJ100509199999999AY181061AY221061GF108991011091004501021999IA1289KA1120N-00081MA1999999098171MD1710081+9999MW1021REMSYN094AAXX  04064 01278 11470 83004 10034 20019 39817 49919 57008 60072 70282 8192/ 333 21008 44050;
0161012780999992000020409004+63800+011570FM-12+005299999V0203001N004610042019N0300001N1+00221+00211099401ADDAY181031AY221031GF108991071091004501021999MA1999999098391MD1210221+9999MW1801REMSYN072AAXX  04094 01278 41480 83009 10022 20021 39839 49940 52022 78082 8792/;
0171012780999992000020412004+63800+011570FM-12+005299999V0203001N003110006019N0010001N1+00111+00111099571ADDAY181061AY221061GA1091+999999999GF109991091999999999999999MA1999999098551MD1210111+9999MW1841REMSYN066AAXX  04124 01278 41/10 93006 10011 20011 39855 49957 52011 78482;
0201012780999992000020418004+63800+011570FM-12+005299999V0203001N003110042019N0250001N1+00191-00051099891ADDAA112002091AY181061AY221061GF107991071091004501999999KA1999M+00401MA1999999098871MD1210201+9999MW1021REMSYN088AAXX  04184 01278 11475 73006 10019 21005 39887 49989 52020 60022 70282 879// 333 10040;
0230012780999992000020506004+63800+011570FM-12+005299999V0201101N001019999999N0300001N1-00141-00151100541ADDAA112000191AJ100469199999999AY181061AY221061GF107991071001999999011999IA1289KA1120N-00181MA1999999099501MD1410001+9999MW1021REMSYN094AAXX  05064 01278 11980 71102 11014 21015 39950 40054 54000 69912 70282 8701/ 333 21018 44046;
0161012780999992000020509004+63800+011570FM-12+005299999V0201501N001010075019N0100001N1+00001-00191100451ADDAY121031AY221031GF108991081001008001021999MA1999999099421MD1710081+9999MW1161REMSYN072AAXX  05094 01278 41560 81502 10000 21019 39942 40045 57008 71622 8802/;
0161012780999992000020512004+63800+011570FM-12+005299999V0201501N002110300019N0070001N1+00131+00131100191ADDAY171061AY221061GF108991011081008001021999MA1999999099161MD1710261+9999MW1581REMSYN072AAXX  05124 01278 41557 81504 10013 20013 39916 40019 57026 75872 8182/;
0184012780999992000020518004+63800+011570FM-12+005299999V0201501N000510003019N0200001N1+00071+00071100161ADDAY161061AY251061GF108991081061000251999999KA1999M+00201MA1999999099131MD1710021+9999MW1411REMSYN082AAXX  05184 01278 11070 81501 10007 20007 39913 40016 57002 74165 886// 333 10020;
0230012780999992000020606004+63800+011570FM-12+005299999V0209999C000010042019N0100001N1+00291+00291098971ADDAA112003091AJ100419199999999AY161061AY221061GF108991081001004501021999IA1289KA1120N+00041MA1999999097961MD1710161+9999MW1631REMSYN094AAXX  06064 01278 11460 80000 10029 20029 39796 49897 57016 60032 76362 8802/ 333 20004 44041;
0161012780999992000020609004+63800+011570FM-12+005299999V0203301N000510075019N0300001N1+00341+00341099091ADDAY161031AY221031GF108991081091008001999999MA1999999098081MD1210121+9999MW1151REMSYN072AAXX  06094 01278 41580 83301 10034 20034 39808 49909 52012 71562 889//;
0161012780999992000020612004+63800+011570FM-12+005299999V0202801N003110042019N0200001N1+00361+00241099231ADDAY181061AY261061GF107991071091004501999999MA1999999098221MD1210141+9999MW1811REMSYN072AAXX  06124 01278 41470 72806 10036 20024 39822 49923 52014 78186 879//;
0201012780999992000020618004+63800+011570FM-12+005299999V0203301N001010042019N0250001N1+00221+00221099721ADDAA112005191AY181061AY221061GF105991051091004501999999KA1999M+00421MA1999999098701MD1210201+9999MW1011REMSYN088AAXX  06184 01278 11475 53302 10022 20022 39870 49972 52020 60052 70182 859// 333 10042;
0249012780999992000020706004+63800+011570FM-12+005299999V0201101N004610210019N0550001N1+00501-00211098281ADDAA112000391AJ100349199999999AY181061AY221061GF108991081001022501021999IA1289KA1120N+00171MA1999999097291MD1710702+9999MW1031REMSYN094AAXX  07064 01278 11885 81109 10050 21021 39729 49828 57070 69932 70382 8802/ 333 20017 44034;EQDQ01+000702APC3  
0161012780999992000020709004+63800+011570FM-12+005299999V0201401N003110120019N0550001N1+00451+00221097891ADDAY161031AY221031GF108991081001012501021999MA1999999096901MD1710391+9999MW1611REMSYN072AAXX  07094 01278 41685 81406 10045 20022 39690 49789 57039 76162 8802/;
0161012780999992000020712004+63800+011570FM-12+005299999V0201501N001010180019N0750001N1+00701+00161097501ADDAY161061AY221061GF107991051081017501071999MA1999999096521MD1710381+9999MW1021REMSYN072AAXX  07124 01278 41789 71502 10070 20016 39652 49750 57038 70262 8587/;
0201012780999992000020718004+63800+011570FM-12+005299999V0202701N001010300019N0300001N1+00341+00341097571ADDAA112001091AY181061AY261061GF108991011081012501021999KA1999M+00741MA1999999096571MD1210301+9999MW1601REMSYN088AAXX  07184 01278 11680 82702 10034 20034 39657 49757 52030 60012 76086 8182/ 333 10074;
0230012780999992000020806004+63800+011570FM-12+005299999V0202901N000510300019N0300001N1+00221+00221098091ADDAA112005191AJ100269199999999AY181061AY261061GF108991031091004501021999IA1289KA1120N+00221MA1999999097091MD1210421+9999MW1801REMSYN094AAXX  08064 01278 11480 82901 10022 20022 39709 49809 52042 60052 78086 8392/ 333 20022 44026;
0161012780999992000020809004+63800+011570FM-12+005299999V0203301N001010042019N0550001N1+00191+00191098441ADDAY181031AY251031GF107991071091004501999999MA1999999097431MD1210441+9999MW1021REMSYN072AAXX  08094 01278 41485 73302 10019 20019 39743 49844 52044 70285 879//;
0161012780999992000020812004+63800+011570FM-12+005299999V0203201N002110300019N0300001N1+00191+00191098581ADDAY181061AY251061GF106991041081002501041011MA1999999097571MD1210141+9999MW1011REMSYN072AAXX  08124 01278 41380 63204 10019 20019 39757 49858 52014 70185 84841;
0201012780999992000020818004+63800+011570FM-12+005299999V0209999C000010150019N0300001N1+00001+00001098651ADDAA112000791AY121061AY221061GF107991051001017501071021KA1999M+00251MA1999999097631MD1410001+9999MW1021REMSYN088AAXX  08184 01278 11780 70000 10000 20000 39763 49865 54000 69902 70222 85072 333 10025;
0243012780999992000020906004+63800+011570FM-12+005299999V0209999C000012200019N0550001N1-00471-00471098921ADDAA199000091AJ100269199999999AY111061AY211061GF101991001001999999001021IA1289KA1120N-00481MA1999999097881MD1210261+9999MW1021REMSYN088AAXX  09064 01278 31985 10000 11047 21047 39788 49892 52026 70211 80002 333 21048 44026;EQDQ01  00002PRCP99
0161012780999992000020909004+63800+011570FM-12+005299999V0201401N000510150019N0550001N1-00521-00521099271ADDAY111031AY211031GF107991071051017501999999MA1999999098221MD1210341+9999MW1031REMSYN072AAXX  09094 01278 41785 71401 11052 21052 39822 49927 52034 70311 875//;
0161012780999992000020912004+63800+011570FM-12+005299999V0201401N000510180019N0300001N1-00211-00211099611ADDAY111061AY211061GF107991071081017501999999MA1999999098571MD1210351+9999MW1021REMSYN072AAXX  09124 01278 41780 71401 11021 21021 39857 49961 52035 70211 878//;
0201012780999992000020918004+63800+011570FM-12+005299999V0201601N001010180019N0550001N1-00171-00201099961ADDAA112000791AY181061AY221061GF107991071081017501999999KA1999M+00031MA1999999098921MD1210151+9999MW1021REMSYN088AAXX  09184 01278 11785 71602 11017 21020 39892 49996 52015 69902 70282 878// 333 10003;
0249012780999992000021006004+63800+011570FM-12+005299999V0200901N001010750019N0550001N1+00251-00251098761ADDAA112001091AJ100309199999999AY181061AY211061GF107991041001022501071021IA1289KA1120N-00331MA1999999097751MD1710502+9999MW1021REMSYN094AAXX  10064 01278 11885 70902 10025 21025 39775 49876 57050 60012 70281 84072 333 21033 44030;EQDQ01+000502APC3  
0161012780999992000021009004+63800+011570FM-12+005299999V0201501N001010300019N0750001N1+00541-00081098361ADDAY121031AY221031GF108991011081012501071999MA1999999097371MD1710381+9999MW1021REMSYN072AAXX  10094 01278 41689 81502 10054 21008 39737 49836 57038 70222 8187/;
0161012780999992000021012004+63800+011570FM-12+005299999V0200401N000510300019N0750001N1+00591-00131097981ADDAY121061AY221061GF108991031081012501071999MA1999999096991MD1710381+9999MW1021REMSYN072AAXX  10124 01278 41689 80401 10059 21013 39699 49798 57038 70222 8387/;
0246012780999992000021018004+63800+011570FM-12+005299999V0201501N009810210019N0550001N1+00751+00011097082ADDAA199000091AY121061AY221061GF107991071001022501071999KA1999M+00781MA1999999096102MD1710201+9999MW1021REMSYN082AAXX  10184 01278 31885 71519 10075 20001 39610 49708 57020 70222 8707/ 333 10078;EQDQ01+096103APOSP Q02+097083APOSLPQ03  00002PRCP99
0230012780999992000021106004+63800+011570FM-12+005299999V0201701N002110300019N0100001N1+00091+00031098381ADDAA112000591AJ100239199999999AY181061AY221061GF108991011091004501021999IA1289KA1120N+00071MA1999999097381MD1210051+9999MW1851REMSYN094AAXX  11064 01278 11460 81704 10009 20003 39738 49838 52005 69952 78582 8192/ 333 20007 44023;
0161012780999992000021109004+63800+011570FM-12+005299999V0202301N003110042019N0100001N1+00111+00031098501ADDAY181031AY221031GF107991071091004501061999MA1999999097491MD1210111+9999MW1851REMSYN072AAXX  11094 01278 41460 72306 10011 20003 39749 49850 52011 78582 8796/;
0161012780999992000021112004+63800+011570FM-12+005299999V0202701N004610042019N0100001N1+00231+00071098801ADDAY181061AY221061GF107991071091004501999999MA1999999097791MD1210301+9999MW1851REMSYN072AAXX  11124 01278 41460 72709 10023 20007 39779 49880 52030 78582 879//;
0252012780999992000021118004+63800+011570FM-12+005299999V0203001N006210042019N0100001N1+00121+00121099752ADDAA112003091AY181061AY221061GF108991081091004501999999KA1999M+00331MA1999999098732MD1210502+9999MW1841REMSYN088AAXX  11184 01278 11460 83012 10012 20012 39873 49975 52050 60032 78482 889// 333 10033;EQDQ01+098733APOSP Q02+099753APOSLPQ03+000502APC3  
0230012780999992000021206004+63800+011570FM-12+005299999V0201001N002110750019N0550001N1+00311-00241099441ADDAA112000191AJ100239199999999AY111061AY211061GF106991011051017501001021IA1309KA1120N+00031MA1999999098431MD1710261+9999MW1021REMSYN094AAXX  12064 01278 11785 61004 10031 21024 39843 49944 57026 69922 70211 81502 333 20003 42023;
0161012780999992000021209004+63800+011570FM-12+005299999V0201501N006210300019N0550001N1+00451-00161099141ADDAY121031AY221031GF108991011011017501071999MA1999999098131MD1710301+9999MW1021REMSYN072AAXX  12094 01278 41785 81512 10045 21016 39813 49914 57030 70222 8117/;
0180012780999992000021212004+63800+011570FM-12+005299999V0201501N006210300019N0550001N1+00631-00041098751ADDAY121061AY221061GF108991041081017501071999MA1999999097761MD1710391+9999MW1021REMSYN072AAXX  12124 01278 41785 81512 10063 21004 39776 49875 57937 70222 8487/;EQDQ01+009377APC3  
0201012780999992000021218004+63800+011570FM-12+005299999V0203201N000510042019N0250001N1+00151+00151098941ADDAA112000591AY161061AY221061GF108991081001004501021999KA1999M+00751MA1999999097931MD1210301+9999MW1611REMSYN088AAXX  12184 01278 11475 83201 10015 20015 39793 49894 52030 69942 76162 8802/ 333 10075;
0230012780999992000021306004+63800+011570FM-12+005299999V0209999C000012200019N0550001N1-00221-00221098421ADDAA112000791AJ100219199999999AY161061AY211061GF101991011081017501001021IA1309KA1120N-00241MA1999999097421MD1710151+9999MW1021REMSYN094AAXX  13064 01278 11785 10000 11022 21022 39742 49842 57015 69902 70261 81802 333 21024 42021;
0161012780999992000021309004+63800+011570FM-12+005299999V0201501N001010750019N0550001N1-00351-00351098481ADDAY111031AY211031GF105991011051017501071011MA1999999097451MD1210031+9999MW1401REMSYN072AAXX  13094 01278 41785 51502 11035 21035 39745 49848 52003 74011 81571;
0161012780999992000021312004+63800+011570FM-12+005299999V0202301N002110120019N0100001N1+00041+00001098591ADDAY181061AY221061GF107991061091012501061999MA1999999097571MD1210121+9999MW1851REMSYN072AAXX  13124 01278 41660 72304 10004 20000 39757 49859 52012 78582 8696/;
0211012780999992000021318004+63800+011570FM-12+005299999V0202701N004610006019N0010001N1+00041+00041098701ADDAA112002091AY181061AY221061GA1091+999999999GF109991091999999999999999KA1999M+00161MA1999999097681MD1210081+9999MW1861REMSYN082AAXX  13184 01278 11/10 92709 10004 20004 39768 49870 52008 60022 78682 333 10016;
0234012780999992000021406004+63800+011570FM-12+005299999V0202901N004610024019N0040001N1-00051-00051999999ADDAA112007991AJ100329199999999AY181061AY221061GA1091+999999999GF109991091999999999999999IA1289KA1120N-00051MA1999999099161MD1210301+9999MW1851REMSYN082AAXX  14064 01278 11/40 92909 11005 21005 39916 52030 60082 78582 333 21005 44032;
0161012780999992000021409004+63800+011570FM-12+005299999V0203101N003110042019N0300001N1-00061-00061100361ADDAY181031AY221031GF107991071091004501061999MA1999999099321MD1210161+9999MW1151REMSYN072AAXX  14094 01278 41480 73106 11006 21006 39932 40036 52016 71582 8796/;
0161012780999992000021412004+63800+011570FM-12+005299999V0203101N003110042019N0050001N1-00081-00091100531ADDAY181061AY221061GF107991071091004501999999MA1999999099491MD1210171+9999MW1851REMSYN072AAXX  14124 01278 41450 73106 11008 21009 39949 40053 52017 78582 879//;
0201012780999992000021418004+63800+011570FM-12+005299999V0203001N001010042019N0300001N1-00131-00141100501ADDAA112002091AY181061AY221061GF107991071091004501999999KA1999M+00001MA1999999099461MD1410001+9999MW1151REMSYN088AAXX  14184 01278 11480 73002 11013 21014 39946 40050 54000 60022 71582 879// 333 10000;
0180012780999992000021500004+63800+011570FM-12+005299999V0201801N004610150019N9999999N1+00211-00651099491ADDAY121061AY221061GF108991081021017501999999MA1999999099281MD1710652+9999MW1031REMSYN072AAXX  15004 01278 4174/ 81809 10021 21065 39928 49949 57065 70322 882//;EQDQ01+000652APC3  
0259012780999992000021506004+63800+011570FM-12+005299999V0201501N001019999999N0550001N1-00301-00691099301ADDAA199000091AJ100399199999999AY111061AY211061GF108991081001999999071999IA1289KA1120N-00551MA1999999098261MD1710502+9999MW1021REMSYN088AAXX  15064 01278 31985 81502 11030 21069 39826 49930 57050 70211 8807/ 333 21055 44039;EQDQ01+000502APC3  Q02  00002PRCP99
0171012780999992000021509004+63800+011570FM-12+005299999V0201101N001010012019N0015001N1-00291-00551099151ADDAY171031AY221031GA1091+999999999GF109991091999999999999999MA1999999098121MD1610141+9999MW1711REMSYN066AAXX  15094 01278 41/15 91102 11029 21055 39812 49915 56014 77172;
0161012780999992000021512004+63800+011570FM-12+005299999V0201501N001010300019N0300001N1-00251-00281099051ADDAY171061AY221061GF108991041071008001021999MA1999999098021MD1710101+9999MW1151REMSYN072AAXX  15124 01278 41580 81502 11025 21028 39802 49905 57010 71572 8472/;
0201012780999992000021518004+63800+011570FM-12+005299999V0209999C000010300019N0300001N1+00121+00111099051ADDAA112001091AY121061AY221061GF107991011081012501071999KA1999M+00201MA1999999098031MD1210101+9999MW1021REMSYN088AAXX  15184 01278 11680 70000 10012 20011 39803 49905 52010 60012 70222 8187/ 333 10020;
0230012780999992000021606004+63800+011570FM-12+005299999V0209999C000010300019N0100001N1-00041-00041099301ADDAA112002091AJ100349199999999AY181061AY221061GF108991011091004501021999IA1249KA1120N-00061MA1999999098271MD1710021+9999MW1851REMSYN094AAXX  16064 01278 11460 80000 11004 21004 39827 49930 57002 60022 78582 8192/ 333 21006 48034;
0161012780999992000021609004+63800+011570FM-12+005299999V0209999C000010042019N0300001N1-00031-00031099361ADDAY181031AY221031GF107991071091004501999999MA1999999098331MD1210061+9999MW1021REMSYN072AAXX  16094 01278 41480 70000 11003 21003 39833 49936 52006 70282 879//;
0161012780999992000021612004+63800+011570FM-12+005299999V0209999C000010042019N0300001N1+00031+00031099451ADDAY181061AY221061GF107991061091004501071999MA1999999098431MD1210101+9999MW1021REMSYN072AAXX  16124 01278 41480 70000 10003 20003 39843 49945 52010 70282 8697/;
0201012780999992000021618004+63800+011570FM-12+005299999V0201001N000510300019N0300001N1-00201-00201099551ADDAA112000791AY121061AY221061GF106991011081017501071021KA1999M+00201MA1999999098511MD1210091+9999MW1021REMSYN088AAXX  16184 01278 11780 61001 11020 21020 39851 49955 52009 69902 70222 81872 333 10020;
0230012780999992000021706004+63800+011570FM-12+005299999V0201501N000510075019N0300001N1-00401-00401099811ADDAA112000191AJ100359199999999AY171061AY211061GF108991081001008001021999IA1249KA1120N-00531MA1999999098771MD1210061+9999MW1021REMSYN094AAXX  17064 01278 11580 81501 11040 21040 39877 49981 52006 69922 70271 8802/ 333 21053 48035;
0161012780999992000021709004+63800+011570FM-12+005299999V0209999C000010120019N0300001N1-00451-00451099901ADDAY121031AY221031GF106991051081008001061021MA1999999098851MD1210081+9999MW1021REMSYN072AAXX  17094 01278 41580 60000 11045 21045 39885 49990 52008 70222 85862;
0161012780999992000021712004+63800+011570FM-12+005299999V0209999C000010042019N0300001N1-00151-00161099911ADDAY181061AY221061GF107991071091004501999999MA1999999098871MD1210021+9999MW1021REMSYN072AAXX  17124 01278 41480 70000 11015 21016 39887 49991 52002 70282 879//;
0211012780999992000021718004+63800+011570FM-12+005299999V0209999C000010024019N0030001N1-00121-00121100071ADDAA112000391AY181061AY221061GA1091+999999999GF109991091999999999999999KA1999M+00001MA1999999099031MD1210141+9999MW1851REMSYN082AAXX  17184 01278 11/30 90000 11012 21012 39903 40007 52014 69932 78582 333 10000;
0240012780999992000021806004+63800+011570FM-12+005299999V0201501N000510006019N0008001N1-00341-00341100181ADDAA112000591AJ100389199999999AY181061AY271061GA1091+999999999GF109991091999999999999999IA1249KA1120N-00351MA1999999099131MD1710071+9999MW1731REMSYN088AAXX  18064 01278 11/08 91501 11034 21034 39913 40018 57007 69962 77387 333 21035 48038;
0171012780999992000021809004+63800+011570FM-12+005299999V0209999C000010012019N0012001N1-00321-00321100231ADDAY171031AY271031GA1091+999999999GF109991091999999999999999MA1999999099181MD1210051+9999MW1731REMSYN066AAXX  18094 01278 41/12 90000 11032 21032 39918 40023 52005 77377;
0161012780999992000021812004+63800+011570FM-12+005299999V0201501N000510021019N0100001N1-00151-00151100311ADDAY171061AY221061GF107991071071002501999999MA1999999099271MD1210081+9999MW1021REMSYN072AAXX  18124 01278 41360 71501 11015 21015 39927 40031 52008 70272 877//;
0201012780999992000021818004+63800+011570FM-12+005299999V0201001N000510750019N0100001N1-00261-00261100351ADDAA112003091AY121061AY221061GF105991021081012501061021KA1999M-00031MA1999999099311MD1210021+9999MW1411REMSYN088AAXX  18184 01278 11660 51001 11026 21026 39931 40035 52002 60032 74122 82862 333 11003;
0161012780999992000021909004+63800+011570FM-12+005299999V0203001N001010075019N0300001N1-00211-00281100701ADDAY181031AY221031GF107991071091008001999999MA1999999099651MD1210121+9999MW1021REMSYN072AAXX  19094 01278 41580 73002 11021 21028 39965 40070 52012 70282 879//;
0161012780999992000021912004+63800+011570FM-12+005299999V0203001N001010042019N0048001N1-00091-00091100851ADDAY181061AY221061GF108991081091004501999999MA1999999099811MD1210161+9999MW1851REMSYN072AAXX  19124 01278 41448 83002 11009 21009 39981 40085 52016 78582 889//;
0211012780999992000021918004+63800+011570FM-12+005299999V0203001N002110012019N0020001N1+00011+00001101131ADDAA112002091AY181061AY221061GA1091+999999999GF109991091999999999999999KA1999M+00121MA1999999100091MD1210201+9999MW1851REMSYN082AAXX  19184 01278 11/20 93004 10001 20000 30009 40113 52020 60022 78582 333 10012;
0183012780999992000022006004+63800+011570FM-12+005299999V0202701N002110042019N0650001N1-00201-00281999999ADDAA112003091AJ100529199999999AY171061AY221061GF107991061071004501051999IA1289KA1120N-00351MW1011REMSYN076AAXX  20064 01278 11487 72704 11020 21028 60032 70172 8675/ 333 21035 44052;
0161012780999992000022009004+63800+011570FM-12+005299999V0202301N002110150019N0300001N1-00071-00131101911ADDAY181031AY221031GF105991051091017501999999MA1999999100861MD1210241+9999MW1851REMSYN072AAXX  20094 01278 41780 52304 11007 21013 30086 40191 52024 78582 859//;
0171012780999992000022012004+63800+011570FM-12+005299999V0203201N000510006019N0010001N1-00011-00011102181ADDAY181061AY221061GA1091+999999999GF109991091999999999999999MA1999999101121MD1210261+9999MW1851REMSYN066AAXX  20124 01278 41/10 93201 11001 21001 30112 40218 52026 78582;
0201012780999992000022018004+63800+011570FM-12+005299999V0203001N001010042019N0300001N1-00111-00111102471ADDAA112001091AY181061AY221061GF107991071091004501999999KA1999M+00111MA1999999101411MD1210121+9999MW1851REMSYN088AAXX  20184 01278 11480 73002 11011 21011 30141 40247 52012 60012 78582 879// 333 10011;
0230012780999992000022106004+63800+011570FM-12+005299999V0209999C000010180019N0300001N1-00341-00341102441ADDAA112000191AJ100479199999999AY181061AY221061GF107991071081017501999999IA1249KA1120N-00531MA1999999101371MD1710111+9999MW1021REMSYN094AAXX  21064 01278 11780 70000 11034 21034 30137 40244 57011 69912 70282 878// 333 21053 48047;
0161012780999992000022109004+63800+011570FM-12+005299999V0201001N001010150019N0750001N1-00431-00431102411ADDAY121031AY221031GF106991061051017501999999MA1999999101341MD1710031+9999MW1021REMSYN072AAXX  21094 01278 41789 61002 11043 21043 30134 40241 57003 70222 865//;
0214012780999992000022118004+63800+011570FM-12+005299999V0201101N000512200019N0550001N1-00591-00591102101ADDAA199000091AY101061AY201061GF101991001001999999001021KA1999M+00011MA1999999101021MD1710101+9999MW1021REMSYN082AAXX  21184 01278 31985 11101 11059 21059 30102 40210 57010 70200 80002 333 10001;EQDQ01  00002PRCP99
0243012780999992000022206004+63800+011570FM-12+005299999V0201501N002110042019N0200001N1-00341-00831101741ADDAA199000091AJ100469199999999AY111061AY211061GF108991081001004501021999IA1249KA1120N-00721MA1999999100681MD1710051+9999MW1151REMSYN088AAXX  22064 01278 31470 81504 11034 21083 30068 40174 57005 71511 8802/ 333 21072 48046;EQDQ01  00002PRCP99
0171012780999992000022209004+63800+011570FM-12+005299999V0201401N001010024019N0050001N1-00401-00411101801ADDAY171031AY221031GA1091+999999999GF109991091999999999999999MA1999999100741MD1210061+9999MW1711REMSYN066AAXX  22094 01278 41/50 91402 11040 21041 30074 40180 52006 77172;
0171012780999992000022212004+63800+011570FM-12+005299999V0201501N001010024019N0040001N1-00371-00401101881ADDAY171061AY221061GA1091+999999999GF109991091999999999999999MA1999999100821MD1210081+9999MW1701REMSYN066AAXX  22124 01278 41/40 91502 11037 21040 30082 40188 52008 77072;
0201012780999992000022218004+63800+011570FM-12+005299999V0201501N002110120019N0250001N1-00371-00381102061ADDAA112000591AY171061AY221061GF107991071081008001999999KA1999M-00281MA1999999101001MD1210091+9999MW1021REMSYN088AAXX  22184 01278 11575 71504 11037 21038 30100 40206 52009 69962 70272 878// 333 11028;
0240012780999992000022306004+63800+011570FM-12+005299999V0201501N001012200019N0550001N1-00601-00601102091ADDAA112000591AJ100459199999999AY181061AY211061GA1001+999999999GF100991001001999999001001IA1249KA1120N-00631MA1999999101011MD1710081+9999MW1021REMSYN088AAXX  23064 01278 11985 01502 11060 21060 30101 40209 57008 69952 70281 333 21063 48045;
0161012780999992000022309004+63800+011570FM-12+005299999V0201201N002112200019N0550001N1-00561-00571102031ADDAY101031AY201031GF101991001001999999001021MA1999999100961MD1710051+9999MW1021REMSYN072AAXX  23094 01278 41985 11204 11056 21057 30096 40203 57005 70200 80002;
0161012780999992000022312004+63800+011570FM-12+005299999V0201501N001012200019N0550001N1+00031-00521101841ADDAY101061AY201061GF103991001001999999001021MA1999999100791MD1710171+9999MW1021REMSYN072AAXX  23124 01278 41985 31502 10003 21052 30079 40184 57017 70200 80002;
0214012780999992000022318004+63800+011570FM-12+005299999V0201501N002119999999N0750001N1+00111-00481101271ADDAA199000091AY111061AY211061GF107991001001999999001021KA1999M+00251MA1999999100231MD1710251+9999MW1031REMSYN082AAXX  23184 01278 31989 71504 10011 21048 30023 40127 57025 70311 80002 333 10025;EQDQ01  00002PRCP99
0230012780999992000022406004+63800+011570FM-12+005299999V0201501N002110150019N0550001N1+00171-00311100041ADDAA112001091AJ100389199999999AY171061AY221061GF107991071001017501071999IA1289KA1120N-00151MA1999999099011MD1710271+9999MW1021REMSYN094AAXX  24064 01278 11785 71504 10017 21031 39901 40004 57027 60012 70272 8707/ 333 21015 44038;
0161012780999992000022409004+63800+011570FM-12+005299999V0201501N003110300019N0550001N1+00161-00341099951ADDAY121031AY221031GF107991011081012501071999MA1999999098931MD1710081+9999MW1021REMSYN072AAXX  24094 01278 41685 71506 10016 21034 39893 49995 57008 70222 8187/;
0161012780999992000022412004+63800+011570FM-12+005299999V0201501N002110300019N0550001N1+00211-00341099861ADDAY121061AY221061GF108991011081017501071999MA1999999098841MD1710091+9999MW1021REMSYN072AAXX  24124 01278 41785 81504 10021 21034 39884 49986 57009 70222 8187/;
0214012780999992000022418004+63800+011570FM-12+005299999V0201401N002112200019N0300001N1-00041-00311099751ADDAA199000091AY111061AY211061GF102991011081017501001021KA1999M+00311MA1999999098721MD1710051+9999MW1011REMSYN082AAXX  24184 01278 31780 21404 11004 21031 39872 49975 57005 70111 81802 333 10031;EQDQ01  00002PRCP99
0230012780999992000022506004+63800+011570FM-12+005299999V0201401N002112200019N0300001N1-00421-00431099881ADDAA112000191AJ100389199999999AY171061AY211061GF102991011051017501001021IA1249KA1120N-00441MA1999999098831MD1710221+9999MW1021REMSYN094AAXX  25064 01278 11780 21404 11042 21043 39883 49988 57022 69912 70271 81502 333 21044 48038;
0161012780999992000022509004+63800+011570FM-12+005299999V0201501N002110750019N0300001N1-00351-00461099961ADDAY111031AY211031GF106991011081017501001021MA1999999098921MD1710091+9999MW1031REMSYN072AAXX  25094 01278 41780 61504 11035 21046 39892 49996 57009 70311 81802;
0161012780999992000022512004+63800+011570FM-12+005299999V0201001N001010300019N0550001N1-00101-00471100041ADDAY111061AY211061GF107991041051017501071999MA1999999099001MD1210081+9999MW1021REMSYN072AAXX  25124 01278 41785 71002 11010 21047 39900 40004 52008 70211 8457/;
0211012780999992000022518004+63800+011570FM-12+005299999V0201501N001010024019N0030001N1-00201-00201100321ADDAA112002091AY171061AY221061GA1091+999999999GF109991091999999999999999KA1999M-00051MA1999999099281MD1210151+9999MW1711REMSYN082AAXX  25184 01278 11/30 91502 11020 21020 39928 40032 52015 60022 77172 333 11005;
0230012780999992000022606004+63800+011570FM-12+005299999V0209999C000010150019N0300001N1+00101+00101100851ADDAA112002091AJ100389199999999AY181061AY221061GF107991071091017501999999IA1289KA1120N-00211MA1999999099821MD1210021+9999MW1021REMSYN094AAXX  26064 01278 11780 70000 10010 20010 39982 40085 52002 60022 70282 879// 333 21021 44038;
0161012780999992000022609004+63800+011570FM-12+005299999V0200901N001010150019N0300001N1+00201+00191100871ADDAY121031AY221031GF108991081001017501021999MA1999999099841MD1210021+9999MW1151REMSYN072AAXX  26094 01278 41780 80902 10020 20019 39984 40087 52002 71522 8802/;
0161012780999992000022612004+63800+011570FM-12+005299999V0209999C000010150019N0100001N1+00271+00141100901ADDAY161061AY221061GF108991081001017501021999MA1999999099871MD1010031+9999MW1611REMSYN072AAXX  26124 01278 41760 80000 10027 20014 39987 40090 50003 76162 8802/;
0201012780999992000022618004+63800+011570FM-12+005299999V0203301N001010150019N0300001N1+00381+00371100921ADDAA112003091AY171061AY261061GF107991071091017501999999KA1999M+00411MA1999999099891MD1410001+9999MW1021REMSYN088AAXX  26184 01278 11780 73302 10038 20037 39989 40092 54000 60032 70276 879// 333 10041;
0243012780999992000022706004+63800+011570FM-12+005299999V0201201N002112200019N0550001N1+00501-00161100131ADDAA199000091AJ100349199999999AY111061AY211061GF104991001001999999001051IA1289KA1120N+00141MA1999999099121MD1710401+9999MW1021REMSYN088AAXX  27064 01278 31985 41204 10050 21016 39912 40013 57040 70211 80005 333 20014 44034;EQDQ01  00002PRCP99
0161012780999992000022709004+63800+011570FM-12+005299999V0201501N002110300019N0750001N1+00441-00241099791ADDAY121031AY221031GF108991011011017501071999MA1999999098781MD1710341+9999MW1031REMSYN072AAXX  27094 01278 41789 81504 10044 21024 39878 49979 57034 70322 8117/;
0161012780999992000022712004+63800+011570FM-12+005299999V0201501N003110300019N0750001N1+00431+00041099391ADDAY161061AY221061GF108991021081012501071999MA1999999098381MD1710401+9999MW1021REMSYN072AAXX  27124 01278 41689 81506 10043 20004 39838 49939 57040 70262 8287/;
0201012780999992000022718004+63800+011570FM-12+005299999V0201501N002110150019N0550001N1+00561+00041098611ADDAA112000191AY161061AY221061GF108991081001017501021999KA1999M+00691MA1999999097611MD1710351+9999MW1021REMSYN088AAXX  27184 01278 11785 81504 10056 20004 39761 49861 57035 69912 70262 8802/ 333 10069;
0230012780999992000022806004+63800+011570FM-12+005299999V0201301N000510300019N0550001N1-00091-00091098701ADDAA112000591AJ100299199999999AY181061AY221061GF108991021051017501071999IA1309KA1120N-00131MA1999999097681MD1610081+9999MW1021REMSYN094AAXX  28064 01278 11785 81301 11009 21009 39768 49870 56008 69962 70282 8257/ 333 21013 42029;
0161012780999992000022809004+63800+011570FM-12+005299999V0201501N002110300019N0550001N1-00081-00081098541ADDAY121031AY221031GF107991011011012501021999MA1999999097521MD1710161+9999MW1021REMSYN072AAXX  28094 01278 41685 71504 11008 21008 39752 49854 57016 70222 8112/;
0161012780999992000022812004+63800+011570FM-12+005299999V0201001N001010750019N0550001N1+00241-00031098431ADDAY121061AY221061GF105991011011012501071021MA1999999097431MD1710091+9999MW1021REMSYN072AAXX  28124 01278 41685 51002 10024 21003 39743 49843 57009 70222 81172;
0214012780999992000022818004+63800+011570FM-12+005299999V0201001N002110300019N0550001N1+00231-00301098141ADDAA199000091AY121061AY221061GF108991011011012501071999KA1999M+00501MA1999999097141MD1710091+9999MW1021REMSYN082AAXX  28184 01278 31685 81004 10023 21030 39714 49814 57009 70222 8117/ 333 10050;EQDQ01  00002PRCP99
0243012780999992000022906004+63800+011570FM-12+005299999V0201501N002110300019N0550001N1+00381-00341098011ADDAA199000091AJ100309199999999AY121061AY221061GF107991011011012501071999IA1309KA1120N-00111MA1999999097011MD1610021+9999MW1021REMSYN088AAXX  29064 01278 31685 71504 10038 21034 39701 49801 56002 70222 8117/ 333 21011 42030;EQDQ01  00002PRCP99
0161012780999992000022909004+63800+011570FM-12+005299999V0201501N003110180019N0750001N1+00481-00301098041ADDAY121031AY221031GF107991071081017501999999MA1999999097041MD1210031+9999MW1021REMSYN072AAXX  29094 01278 41789 71506 10048 21030 39704 49804 52003 70222 878//;
0161012780999992000022912004+63800+011570FM-12+005299999V0202701N003110300019N0750001N1+00641-00301098131ADDAY121061AY221061GF108991041071017501071999MA1999999097141MD1210101+9999MW1021REMSYN072AAXX  29124 01278 41789 82706 10064 21030 39714 49813 52010 70222 8477/;
0214012780999992000022918004+63800+011570FM-12+005299999V0201501N006210300019N0550001N1+00591-00411098041ADDAA199000091AY121061AY221061GF107991021081017501071999KA1999M+00651MA1999999097051MD1610061+9999MW1021REMSYN082AAXX  29184 01278 31785 71512 10059 21041 39705 49804 56006 70222 8287/ 333 10065;EQDQ01  00002PRCP99
0243012780999992000030106004+63800+011570FM-12+005299999V0201301N002110300019N0550001N1-00021-00191097811ADDAA199000091AJ100289199999999AY121061AY221061GF107991011051017501071021IA1309KA1120N-00021MA1999999096801MD1710061+9999MW1021REMSYN088AAXX  01064 01278 31785 71304 11002 21019 39680 49781 57006 70222 81572 333 21002 42028;EQDQ01  00002PRCP99
0161012780999992000030109004+63800+011570FM-12+005299999V0201501N001010300019N0550001N1-00011-00201097861ADDAY121031AY221031GF107991031051017501071021MA1999999096851MD1210051+9999MW1021REMSYN072AAXX  01094 01278 41785 71502 11001 21020 39685 49786 52005 70222 83572;
0161012780999992000030112004+63800+011570FM-12+005299999V0201201N000510150019N0550001N1+00221-00091097891ADDAY121061AY221061GF107991051051017501071999MA1999999096891MD1210041+9999MW1021REMSYN072AAXX  01124 01278 41785 71201 10022 21009 39689 49789 52004 70222 8557/;
0211012780999992000030118004+63800+011570FM-12+005299999V0202801N003110006019N0010001N1-00011-00011098291ADDAA112002091AY171061AY221061GA1091+999999999GF109991091999999999999999KA1999M+00311MA1999999097271MD1210301+9999MW1731REMSYN082AAXX  01184 01278 11/10 92806 11001 21001 39727 49829 52030 60022 77372 333 10031;
0230012780999992000030206004+63800+011570FM-12+005299999V0209999C000010075019N0300001N1-00451-00521099291ADDAA112000191AJ100309199999999AY181061AY271061GF106991061091008001999999IA1289KA1120N-00531MA1999999098251MD1210151+9999MW1021REMSYN094AAXX  02064 01278 11580 60000 11045 21052 39825 49929 52015 69912 70287 869// 333 21053 44030;
0171012780999992000030209004+63800+011570FM-12+005299999V0209999C000010024019N0030001N1-00301-00301099371ADDAY181031AY221031GA1091+999999999GF109991091999999999999999MA1999999098331MD1210081+9999MW1851REMSYN066AAXX  02094 01278 41/30 90000 11030 21030 39833 49937 52008 78582;
0161012780999992000030212004+63800+011570FM-12+005299999V0202801N002110075019N0200001N1-00051-00081099441ADDAY181061AY221061GF107991071091008001999999MA1999999098411MD1210081+9999MW1851REMSYN072AAXX  02124 01278 41570 72804 11005 21008 39841 49944 52008 78582 879//;
0201012780999992000030218004+63800+011570FM-12+005299999V0203201N001010042019N0300001N1-00241-00251099421ADDAA112003091AY181061AY221061GF106991061091004501999999KA1999M-00021MA1999999098391MD1710021+9999MW1851REMSYN088AAXX  02184 01278 11480 63202 11024 21025 39839 49942 57002 60032 78582 869// 333 11002;
0230012780999992000030306004+63800+011570FM-12+005299999V0201401N003110120019N0300001N1-00421-00761098201ADDAA112000791AJ100339199999999AY171061AY221061GF108991081001012501021999IA1289KA1120N-00791MA1999999097171MD1710201+9999MW1701REMSYN094AAXX  03064 01278 11680 81406 11042 21076 39717 49820 57020 69902 77072 8802/ 333 21079 44033;
0161012780999992000030309004+63800+011570FM-12+005299999V0201101N004610150019N0300001N1-00421-00781098131ADDAY171031AY221031GF108991081001017501021999MA1999999097101MD1710071+9999MW1021REMSYN072AAXX  03094 01278 41780 81109 11042 21078 39710 49813 57007 70272 8802/;
0161012780999992000030312004+63800+011570FM-12+005299999V0200701N001010150019N0300001N1-00261-01021098211ADDAY171061AY221061GF108991081001017501021999MA1999999097191MD1210091+9999MW1151REMSYN072AAXX  03124 01278 41780 80702 11026 21102 39719 49821 52009 71572 8802/;
0201012780999992000030318004+63800+011570FM-12+005299999V0203501N000510150019N0550001N1-00481-01421098711ADDAA112000791AY121061AY221061GF107991071001017501021999KA1999M-00221MA1999999097671MD1210211+9999MW1021REMSYN088AAXX  03184 01278 11785 73501 11048 21142 39767 49871 52021 69902 70222 8702/ 333 11022;
0240012780999992000030406004+63800+011570FM-12+005299999V0201501N000510024019N0040001N1-00981-00991099051ADDAA112000191AJ100339199999999AY181061AY221061GA1091+999999999GF109991091999999999999999IA1289KA1120N-01261MA1999999097991MD1210041+9999MW1851REMSYN088AAXX  04064 01278 11/40 91501 11098 21099 39799 49905 52004 69922 78582 333 21126 44033;
0171012780999992000030409004+63800+011570FM-12+005299999V0202901N003110012019N0015001N1-00341-00341099111ADDAY181031AY221031GA1091+999999999GF109991091999999999999999MA1999999098071MD1210081+9999MW1851REMSYN066AAXX  04094 01278 41/15 92906 11034 21034 39807 49911 52008 78582;
0171012780999992000030412004+63800+011570FM-12+005299999V0202901N003110012019N0015001N1-00271-00271099181ADDAY181061AY221061GA1091+999999999GF109991091999999999999999MA1999999098151MD1210081+9999MW1851REMSYN066AAXX  04124 01278 41/15 92906 11027 21027 39815 49918 52008 78582;
0201012780999992000030418004+63800+011570FM-12+005299999V0202801N002110003019N0100001N1-00271-00271099681ADDAA112003091AY181061AY221061GF107991071091000251999999KA1999M-00121MA1999999098641MD1210381+9999MW1021REMSYN088AAXX  04184 01278 11060 72804 11027 21027 39864 49968 52038 60032 70282 879// 333 11012;
0230012780999992000030506004+63800+011570FM-12+005299999V0201401N001012200019N0300001N1-01281-01291101141ADDAA112000391AJ100409199999999AY181061AY211061GF101991001001999999001021IA1249KA1120N-01281MA1999999100041MD1210421+9999MW1021REMSYN094AAXX  05064 01278 11980 11402 11128 21129 30004 40114 52042 69932 70281 80002 333 21128 48040;
0161012780999992000030509004+63800+011570FM-12+005299999V0201501N002112200019N0550001N1-01401-01431101371ADDAY101031AY201031GF103991001001999999001011MA1999999100271MD1210231+9999MW1021REMSYN072AAXX  05094 01278 41985 31504 11140 21143 30027 40137 52023 70200 80001;
0161012780999992000030512004+63800+011570FM-12+005299999V0201501N002112200019N0250001N1-00761-01031101471ADDAY101061AY201061GF103991011081012501031021MA1999999100391MD1210121+9999MW1031REMSYN072AAXX  05124 01278 41675 31504 11076 21103 30039 40147 52012 70300 81832;
0214012780999992000030518004+63800+011570FM-12+005299999V0201001N002110300019N0300001N1-00431-01081101071ADDAA199000091AY111061AY211061GF108991011011017501021999KA1999M-00341MA1999999100011MD1710281+9999MW1021REMSYN082AAXX  05184 01278 31780 81004 11043 21108 30001 40107 57028 70211 8112/ 333 11034;EQDQ01  00002PRCP99
0240012780999992000030606004+63800+011570FM-12+005299999V0201001N002110024019N0040001N1-00291-00291098431ADDAA112003091AJ100389199999999AY171061AY221061GA1091+999999999GF109991091999999999999999IA1249KA1120N-00481MA1999999097411MD1710451+9999MW1711REMSYN088AAXX  06064 01278 11/40 91004 11029 21029 39741 49843 57045 60032 77172 333 21048 48038;
0171012780999992000030609004+63800+011570FM-12+005299999V0202701N003110024019N0035001N1+00291+00281098171ADDAY181031AY221031GA1091+999999999GF109991091999999999999999MA1999999097171MD1610241+9999MW1831REMSYN066AAXX  06094 01278 41/35 92706 10029 20028 39717 49817 56024 78382;
0161012780999992000030612004+63800+011570FM-12+005299999V0202901N003110042019N0080001N1+00041+00041098151ADDAY181061AY221061GF108991081091004501999999MA1999999097141MD1710031+9999MW1851REMSYN072AAXX  06124 01278 41458 82906 10004 20004 39714 49815 57003 78582 889//;
0211012780999992000030618004+63800+011570FM-12+005299999V0202701N003110024019N0030001N1+00041-00021097751ADDAA112003091AY181061AY221061GA1091+999999999GF109991091999999999999999KA1999M+00301MA1999999096741MD1710301+9999MW1851REMSYN082AAXX  06184 01278 11/30 92706 10004 21002 39674 49775 57030 60032 78582 333 10030;
0259012780999992000030706004+63800+011570FM-12+005299999V0203001N003110006019N0008001N1+00021+00021098431ADDAA112007191AJ100389199999999AY181061AY221061GA1091+999999999GF109991091999999999999999IA1289KA1120N-00121MA1999999097421MD1210802+9999MW1861REMSYN088AAXX  07064 01278 11/08 93006 10002 20002 39742 49843 52080 60072 78682 333 21012 44038;EQDQ01+000802APC3  
0161012780999992000030709004+63800+011570FM-12+005299999V0202901N003110042019N0200001N1+00051+00051099011ADDAY181031AY221031GF107991071091004501999999MA1999999097991MD1210571+9999MW1021REMSYN072AAXX  07094 01278 41470 72906 10005 20005 39799 49901 52057 70282 879//;
0161012780999992000030712004+63800+011570FM-12+005299999V0202701N002110012019N0200001N1+00051+00051099291ADDAY181061AY221061GF108991081091001501999999MA1999999098271MD1210281+9999MW1831REMSYN072AAXX  07124 01278 41270 82704 10005 20005 39827 49929 52028 78382 889//;
0201012780999992000030718004+63800+011570FM-12+005299999V0202901N002110012019N0035001N1-00081-00081099901ADDAA112001091AY181061AY221061GF107991071091001501999999KA1999M+00141MA1999999098871MD1210281+9999MW1851REMSYN088AAXX  07184 01278 11235 72904 11008 21008 39887 49990 52028 60012 78582 879// 333 10014;
0230012780999992000030806004+63800+011570FM-12+005299999V0202901N000510042019N0300001N1-00281-00281099961ADDAA112001091AJ100399199999999AY181061AY221061GF107991071091004501999999IA1289KA1120N-00281MA1999999098921MD1710111+9999MW1021REMSYN094AAXX  08064 01278 11480 72901 11028 21028 39892 49996 57011 60012 70282 879// 333 21028 44039;
0161012780999992000030809004+63800+011570FM-12+005299999V0201501N001010300019N0300001N1-00291-00291099861ADDAY121031AY221031GF107991041081004501071011MA1999999098821MD1710101+9999MW1021REMSYN072AAXX  08094 01278 41480 71502 11029 21029 39882 49986 57010 70222 84871;
0161012780999992000030812004+63800+011570FM-12+005299999V0201501N002110300019N0300001N1-00121-00341099721ADDAY121061AY221061GF107991011081008001011021MA1999999098681MD1710141+9999MW1021REMSYN072AAXX  08124 01278 41580 71504 11012 21034 39868 49972 57014 70222 81812;
0214012780999992000030818004+63800+011570FM-12+005299999V0200201N000512200019N0300001N1-00371-00441099501ADDAA199000091AY111061AY211061GF103991011081008001001021KA1999M+00001MA1999999098461MD1410001+9999MW1011REMSYN082AAXX  08184 01278 31580 30201 11037 21044 39846 49950 54000 70111 81802 333 10000;EQDQ01  00002PRCP99
0230012780999992000030906004+63800+011570FM-12+005299999V0201501N000510090019N0300001N1-00831-00831100201ADDAA112001091AJ100409199999999AY181061AY211061GF106991061081004501999999IA1249KA1120N-01161MA1999999099131MD1210301+9999MW1021REMSYN094AAXX  09064 01278 11480 61501 11083 21083 39913 40020 52030 60012 70281 868// 333 21116 48040;
0171012780999992000030909004+63800+011570FM-12+005299999V0203001N002110006019N0010001N1-00461-00461100391ADDAY181031AY221031GA1091+999999999GF109991091999999999999999MA1999999099341MD1210211+9999MW1861REMSYN066AAXX  09094 01278 41/10 93004 11046 21046 39934 40039 52021 78682;
0161012780999992000030912004+63800+011570FM-12+005299999V0203001N003110075019N0200001N1-00011-00281100581ADDAY181061AY221061GF107991071091008001999999MA1999999099541MD1210201+9999MW1851REMSYN072AAXX  09124 01278 41570 73006 11001 21028 39954 40058 52020 78582 879//;
0201012780999992000030918004+63800+011570FM-12+005299999V0203001N003110300019N0270001N1-00151-00421100991ADDAA112000891AY181061AY221061GF105991041091008001061021KA1999M+00051MA1999999099941MD1210201+9999MW1721REMSYN088AAXX  09184 01278 11577 53006 11015 21042 39994 40099 52020 69972 77282 84962 333 10005;
0240012780999992000031006004+63800+011570FM-12+005299999V0202901N003110003019N0002001N1-00111-00111101631ADDAA112005191AJ100509199999999AY181061AY221061GA1091+999999999GF109991091999999999999999IA1249KA1120N-00221MA1999999100571MD1210151+9999MW1861REMSYN088AAXX  10064 01278 11/02 92906 11011 21011 30057 40163 52015 60052 78682 333 21022 48050;
0171012780999992000031009004+63800+011570FM-12+005299999V0203001N002110006019N0010001N1-00081-00081101771ADDAY181031AY221031GA1091+999999999GF109991091999999999999999MA1999999100721MD1210151+9999MW1851REMSYN066AAXX  10094 01278 41/10 93004 11008 21008 30072 40177 52015 78582;
0161012780999992000031012004+63800+011570FM-12+005299999V0202901N002110042019N0250001N1-00061-00061101751ADDAY181061AY221061GF107991061091004501061999MA1999999100701MD1710021+9999MW1021REMSYN072AAXX  10124 01278 41475 72904 11006 21006 30070 40175 57002 70282 8696/;
0201012780999992000031018004+63800+011570FM-12+005299999V0201001N001010300019N0250001N1-00171-00171101411ADDAA112001091AY121061AY221061GF106991011081012501021021KA1999M+00041MA1999999100361MD1710201+9999MW1021REMSYN088AAXX  10184 01278 11675 61002 11017 21017 30036 40141 57020 60012 70222 81822 333 10004;
0243012780999992000031106004+63800+011570FM-12+005299999V0201201N002112200019N0300001N1-00661-00661101011ADDAA199000091AJ100549199999999AY111061AY211061GF102991011081008001031001IA1249KA1120N-00761MA1999999099941MD1310021+9999MW1021REMSYN088AAXX  11064 01278 31580 21204 11066 21066 39994 40101 53002 70211 81830 333 21076 48054;EQDQ01  00002PRCP99
0161012780999992000031109004+63800+011570FM-12+005299999V0201501N002112200019N0300001N1-00391-00651101191ADDAY101031AY201031GF101991011061008001001001MA1999999100131MD1210191+9999MW1021REMSYN072AAXX  11094 01278 41580 11504 11039 21065 30013 40119 52019 70200 81600;
0161012780999992000031112004+63800+011570FM-12+005299999V0201501N001012200019N0300001N1-00151-00611101321ADDAY101061AY201061GF103991001001999999001011MA1999999100271MD1210141+9999MW1021REMSYN072AAXX  11124 01278 41980 31502 11015 21061 30027 40132 52014 70200 80001;
0214012780999992000031118004+63800+011570FM-12+005299999V0209999C000012200019N0300001N1-00511-00631101661ADDAA199000091AY111061AY211061GF102991001001999999001081KA1999M-00101MA1999999100591MD1210131+9999MW1021REMSYN082AAXX  11184 01278 31980 20000 11051 21063 30059 40166 52013 70211 80008 333 11010;EQDQ01  00002PRCP99
0243012780999992000031206004+63800+011570FM-12+005299999V0201401N002110300019N0300001N1-00851-00871101721ADDAA199000091AJ100539199999999AY121061AY221061GF107991011051012501071081IA1249KA1120N-01101MA1999999100631MD1710011+9999MW1021REMSYN088AAXX  12064 01278 31680 71404 11085 21087 30063 40172 57001 70222 81578 333 21110 48053;EQDQ01  00002PRCP99
0161012780999992000031209004+63800+011570FM-12+005299999V0201401N002110300019N0550001N1-00691-00931101611ADDAY121031AY221031GF108991011011012501071999MA1999999100531MD1710101+9999MW1021REMSYN072AAXX  12094 01278 41685 81404 11069 21093 30053 40161 57010 70222 8117/;
0161012780999992000031212004+63800+011570FM-12+005299999V0201501N001010210019N0300001N1-00231-00631101471ADDAY121061AY221061GF108991081001022501071999MA1999999100411MD1710121+9999MW1021REMSYN072AAXX  12124 01278 41880 81502 11023 21063 30041 40147 57012 70222 8807/;
0201012780999992000031218004+63800+011570FM-12+005299999V0201501N002110300019N0200001N1-00151-00151101021ADDAA112000591AY171061AY221061GF108991011081012501071999KA1999M-00101MA1999999099971MD1710211+9999MW1151REMSYN088AAXX  12184 01278 11670 81504 11015 21015 39997 40102 57021 69962 71572 8187/ 333 11010;
0230012780999992000031306004+63800+011570FM-12+005299999V0202901N002110300019N0130001N1+00241+00241100101ADDAA112002091AJ100499199999999AY171061AY261061GF108991021071008001021999IA1249KA1120N-00241MA1999999099071MD1710201+9999MW1611REMSYN094AAXX  13064 01278 11563 82904 10024 20024 39907 40010 57020 60022 76176 8272/ 333 21024 48049;
0161012780999992000031309004+63800+011570FM-12+005299999V0202801N002110300019N0100001N1+00401+00391099861ADDAY161031AY221031GF108991031071008001021999MA1999999098841MD1710231+9999MW1611REMSYN072AAXX  13094 01278 41560 82804 10040 20039 39884 49986 57023 76162 8372/;
0161012780999992000031312004+63800+011570FM-12+005299999V0202901N004610042019N0100001N1+00291+00281100121ADDAY161061AY221061GF108991061091004501071999MA1999999099091MD1110251+9999MW1801REMSYN072AAXX  13124 01278 41460 82909 10029 20028 39909 40012 51025 78062 8697/;
0211012780999992000031318004+63800+011570FM-12+005299999V0203301N002110006019N0010001N1+00061+00061099911ADDAA112003091AY181061AY221061GA1091+999999999GF109991091999999999999999KA1999M+00441MA1999999098881MD1710131+9999MW1861REMSYN082AAXX  13184 01278 11/10 93304 10006 20006 39888 49991 57013 60032 78682 333 10044;
0240012780999992000031406004+63800+011570FM-12+005299999V0202701N002110024019N0035001N1-00101-00111099261ADDAA112004191AJ100459199999999AY181061AY221061GA1091+999999999GF109991091999999999999999IA1289KA1120N-00121MA1999999098231MD1010001+9999MW1861REMSYN088AAXX  14064 01278 11/35 92704 11010 21011 39823 49926 50000 60042 78682 333 21012 44045;
0161012780999992000031409004+63800+011570FM-12+005299999V0202701N002110300019N0100001N1-00041-00111099121ADDAY181031AY221031GF108991011091008001021999MA1999999098091MD1610141+9999MW1851REMSYN072AAXX  14094 01278 41560 82704 11004 21011 39809 49912 56014 78582 8192/;
0161012780999992000031412004+63800+011570FM-12+005299999V0202901N002110300019N0300001N1+00021-00271099141ADDAY181061AY221061GF107991021091008001021021MA1999999098111MD1210021+9999MW1021REMSYN072AAXX  14124 01278 41580 72904 10002 21027 39811 49914 52002 70282 82922;
0201012780999992000031418004+63800+011570FM-12+005299999V0203301N001010042019N0300001N1-00241-00251099601ADDAA112001091AY181061AY221061GF106991051091004501061021KA1999M+00131MA1999999098561MD1210301+9999MW1021REMSYN088AAXX  14184 01278 11480 63302 11024 21025 39856 49960 52030 60012 70282 85962 333 10013;
0230012780999992000031506004+63800+011570FM-12+005299999V0202701N002110300019N0100001N1-00211-00211100561ADDAA112006191AJ100519199999999AY181061AY221061GF108991021091000751021999IA1249KA1120N-00281MA1999999099511MD1210251+9999MW1851REMSYN094AAXX  15064 01278 11160 82704 11021 21021 39951 40056 52025 60062 78582 8292/ 333 21028 48051;
0161012780999992000031509004+63800+011570FM-12+005299999V0203001N001012200019N0300001N1-00151-00181100721ADDAY181031AY221031GF104991031091004501061021MA1999999099671MD1210161+9999MW1151REMSYN072AAXX  15094 01278 41480 43002 11015 21018 39967 40072 52016 71582 83962;
0161012780999992000031512004+63800+011570FM-12+005299999V0203001N003110042019N0300001N1-00101-00101100841ADDAY181061AY221061GF107991061091004501061021MA1999999099791MD1210121+9999MW1851REMSYN072AAXX  15124 01278 41480 73006 11010 21010 39979 40084 52012 78582 86962;
0201012780999992000031518004+63800+011570FM-12+005299999V0203001N001010042019N0300001N1-00191-00191101141ADDAA112002091AY181061AY221061GF105991051091004501061999KA1999M+00071MA1999999100091MD1210161+9999MW1851REMSYN088AAXX  15184 01278 11480 53002 11019 21019 30009 40114 52016 60022 78582 8596/ 333 10007;
0230012780999992000031606004+63800+011570FM-12+005299999V0209999C000010012019N0300001N1-00181-00181101711ADDAA112001091AJ100599199999999AY181061AY221061GF107991071091001501999999IA1249KA1120N-00331MA1999999100651MD1210101+9999MW1851REMSYN094AAXX  16064 01278 11280 70000 11018 21018 30065 40171 52010 60012 78582 879// 333 21033 48059;
0161012780999992000031609004+63800+011570FM-12+005299999V0201501N001010003019N0030001N1-00081-00081101771ADDAY181031AY221031GF108991081091000251999999MA1999999100721MD1210081+9999MW1851REMSYN072AAXX  16094 01278 41030 81502 11008 21008 30072 40177 52008 78582 889//;
0140012780999992000031612004+63800+011570FM-12+005299999V0209999C000010042019N0040001N1+00091+00081101781ADDAY181061AY221061GF108991081091004501999999MD1210011+9999MW1851REMSYN066AAXX  16124 01278 41440 80000 10009 20008 40178 52001 78582 889//;
0201012780999992000031618004+63800+011570FM-12+005299999V0201501N001012200019N0300001N1-00071-00201101731ADDAA112000891AY181061AY211061GF104991011001999999071021KA1999M+00231MA1999999100681MD1410001+9999MW1021REMSYN088AAXX  16184 01278 11980 41502 11007 21020 30068 40173 54000 69972 70281 81072 333 10023;
0240012780999992000031706004+63800+011570FM-12+005299999V0201201N003110012019N0020001N1-00191-00201101961ADDAA112000591AJ100589199999999AY171061AY211061GA1091+999999999GF109991091999999999999999IA1249KA1120N-00531MA1999999100901MD1210021+9999MW1731REMSYN088AAXX  17064 01278 11/20 91206 11019 21020 30090 40196 52002 69962 77371 333 21053 48058;
0171012780999992000031709004+63800+011570FM-12+005299999V0201401N002110024019N0030001N1-00091-00091101971ADDAY171031AY271031GA1091+999999999GF109991091999999999999999MA1999999100921MD1210021+9999MW1731REMSYN066AAXX  17094 01278 41/30 91404 11009 21009 30092 40197 52002 77377;
0161012780999992000031712004+63800+011570FM-12+005299999V0201501N001010042019N0030001N1-00051-00051102021ADDAY171061AY261061GF108991081001004501021999MA1999999100971MD1210051+9999MW1581REMSYN072AAXX  17124 01278 41430 81502 11005 21005 30097 40202 52005 75876 8802/;
0201012780999992000031718004+63800+011570FM-12+005299999V0201501N000510300019N0200001N1+00051+00051101831ADDAA112004191AY161061AY251061GF108991011081004501021999KA1999M+00071MA1999999100781MD1710101+9999MW1411REMSYN088AAXX  17184 01278 11470 81501 10005 20005 30078 40183 57010 60042 74165 8182/ 333 10007;
0230012780999992000031806004+63800+011570FM-12+005299999V0202801N001010075019N0200001N1+00221+00071102581ADDAA112005191AJ100589199999999AY181061AY221061GF108991061091008001021999IA1289KA1120N+00041MA1999999101531MD1210261+9999MW1151REMSYN094AAXX  18064 01278 11570 82802 10022 20007 30153 40258 52026 60052 71582 8692/ 333 20004 44058;
0161012780999992000031809004+63800+011570FM-12+005299999V0202801N002112200019N0300001N1+00271+00201102791ADDAY181031AY211031GF102991021081004501001001MA1999999101741MD1210211+9999MW1011REMSYN072AAXX  18094 01278 41480 22804 10027 20020 30174 40279 52021 70181 82800;
0161012780999992000031812004+63800+011570FM-12+005299999V0202801N003110120019N0200001N1+00451+00031102911ADDAY181061AY211061GF106991051081008001061021MA1999999101871MD1210131+9999MW1021REMSYN072AAXX  18124 01278 41570 62806 10045 20003 30187 40291 52013 70281 85862;
0201012780999992000031818004+63800+011570FM-12+005299999V0200901N000512200019N0300001N1+00371-00051102831ADDAA112000791AY121061AY221061GF105991021091017501001011KA1999M+00551MA1999999101781MD1710051+9999MW1021REMSYN088AAXX  18184 01278 11780 50901 10037 21005 30178 40283 57005 69902 70222 82901 333 10055;
0230012780999992000031906004+63800+011570FM-12+005299999V0203301N002110300019N0100001N1+00211+00201101731ADDAA112000191AJ100489199999999AY161061AY221061GF108991011071017501021999IA1289KA1120N+00061MA1999999100691MD1710211+9999MW1601REMSYN094AAXX  19064 01278 11760 83304 10021 20020 30069 40173 57021 69912 76062 8172/ 333 20006 44048;
0161012780999992000031909004+63800+011570FM-12+005299999V0202801N002110120019N0100001N1+00421+00411101531ADDAY161031AY261031GF108991081001012501021999MA1999999100501MD1710191+9999MW1611REMSYN072AAXX  19094 01278 41660 82804 10042 20041 30050 40153 57019 76166 8802/;
0161012780999992000031912004+63800+011570FM-12+005299999V0203301N002110042019N0100001N1+00491+00491101451ADDAY161061AY261061GF108991061071004501021999MA1999999100421MD1510081+9999MW1611REMSYN072AAXX  19124 01278 41460 83304 10049 20049 30042 40145 55008 76166 8672/;
0201012780999992000031918004+63800+011570FM-12+005299999V0209999C000010300019N0550001N1+00391+00381100981ADDAA112004191AY161061AY221061GF107991011081012501071021KA1999M+00641MA1999999099951MD1710111+9999MW1031REMSYN088AAXX  19184 01278 11685 70000 10039 20038 39995 40098 57011 60042 70362 81872 333 10064;
0230012780999992000032006004+63800+011570FM-12+005299999V0202901N003110300019N0040001N1+00191+00191100561ADDAA112007191AJ100409199999999AY161061AY221061GF108991011061001501021999IA1289KA1120N+00191MA1999999099531MD1210301+9999MW1631REMSYN094AAXX  20064 01278 11240 82906 10019 20019 39953 40056 52030 60072 76362 8162/ 333 20019 44040;
0161012780999992000032009004+63800+011570FM-12+005299999V0202801N003110300019N0100001N1+00241+00171100671ADDAY161031AY221031GF108991011091004501021999MA1999999099641MD1210111+9999MW1831REMSYN072AAXX  20094 01278 41460 82806 10024 20017 39964 40067 52011 78362 8192/;
0161012780999992000032012004+63800+011570FM-12+005299999V0202801N006210075019N0200001N1+00411-00071100761ADDAY181061AY261061GF108991081091008001999999MA1999999099741MD1210101+9999MW1151REMSYN072AAXX  20124 01278 41570 82812 10041 21007 39974 40076 52010 71586 889//;
0201012780999992000032018004+63800+011570FM-12+005299999V0202801N002110075019N0250001N1+00271+00021100831ADDAA112000591AY181061AY221061GF105991051091008001999999KA1999M+00451MA1999999099801MD1410001+9999MW1151REMSYN088AAXX  20184 01278 11575 52804 10027 20002 39980 40083 54000 69942 71582 859// 333 10045;
0230012780999992000032106004+63800+011570FM-12+005299999V0202801N003110075019N0300001N1+00061+00061100881ADDAA112004191AJ100399199999999AY181061AY221061GF108991061091008001021999IA1289KA1120N-00011MA1999999099841MD1210011+9999MW1151REMSYN094AAXX  21064 01278 11580 82806 10006 20006 39984 40088 52001 60042 71582 8692/ 333 21001 44039;
0161012780999992000032109004+63800+011570FM-12+005299999V0203001N001010075019N0300001N1+00071+00061100911ADDAY181031AY221031GF107991071091008001999999MA1999999099871MD1210031+9999MW1151REMSYN072AAXX  21094 01278 41580 73002 10007 20006 39987 40091 52003 71582 879//;
0161012780999992000032112004+63800+011570FM-12+005299999V0203301N001010300019N0300001N1+00241-00141100861ADDAY181061AY221061GF107991031091012501071999MA1999999099831MD1710041+9999MW1021REMSYN072AAXX  21124 01278 41680 73302 10024 21014 39983 40086 57004 70282 8397/;
0211012780999992000032118004+63800+011570FM-12+005299999V0200401N000510024019N0030001N1-00071-00071100771ADDAA112003091AY181061AY221061GA1091+999999999GF109991091999999999999999KA1999M+00271MA1999999099731MD1410001+9999MW1861REMSYN082AAXX  21184 01278 11/30 90401 11007 21007 39973 40077 54000 60032 78682 333 10027;
0230012780999992000032206004+63800+011570FM-12+005299999V0202801N003110075019N0300001N1+00001-00011100331ADDAA112002091AJ100459199999999AY181061AY221061GF107991071091008001999999IA1249KA1120N-00161MA1999999099301MD1710201+9999MW1021REMSYN094AAXX  22064 01278 11580 72806 10000 21001 39930 40033 57020 60022 70282 879// 333 21016 48045;
0171012780999992000032209004+63800+011570FM-12+005299999V0203001N002110024019N0035001N1+00011+00011100351ADDAY181031AY221031GA1091+999999999GF109991091999999999999999MA1999999099321MD1210021+9999MW1861REMSYN066AAXX  22094 01278 41/35 93004 10001 20001 39932 40035 52002 78682;
0161012780999992000032212004+63800+011570FM-12+005299999V0202201N000510006019N0150001N1-00041-00041100441ADDAY181061AY221061GF107991071091000751999999MA1999999099401MD1210081+9999MW1851REMSYN072AAXX  22124 01278 41165 72201 11004 21004 39940 40044 52008 78582 879//;
0201012780999992000032218004+63800+011570FM-12+005299999V0202801N002110075019N0300001N1-00181-00191100551ADDAA112004191AY181061AY221061GF107991071091008001999999KA1999M+00101MA1999999099501MD1410001+9999MW1851REMSYN088AAXX  22184 01278 11580 72804 11018 21019 39950 40055 54000 60042 78582 879// 333 10010;
0230012780999992000032306004+63800+011570FM-12+005299999V0202801N003110042019N0200001N1-00201-00201100571ADDAA112001091AJ100519199999999AY181061AY221061GF107991071091004501061999IA1249KA1120N-00271MA1999999099521MD1210061+9999MW1021REMSYN094AAXX  23064 01278 11470 72806 11020 21020 39952 40057 52006 60012 70282 8796/ 333 21027 48051;
0171012780999992000032309004+63800+011570FM-12+005299999V0203201N003110024019N0030001N1-00181-00181100711ADDAY181031AY221031GA1091+999999999GF109991091999999999999999MA1999999099661MD1210141+9999MW1861REMSYN066AAXX  23094 01278 41/30 93206 11018 21018 39966 40071 52014 78682;
0171012780999992000032312004+63800+011570FM-12+005299999V0203001N002110001519N0001001N1+00071+00011100801ADDAY181061AY221061GA1091+999999999GF109991091999999999999999MA1999999099761MD1210101+9999MW1861REMSYN066AAXX  23124 01278 41/01 93004 10007 20001 39976 40080 52010 78682;
0211012780999992000032318004+63800+011570FM-12+005299999V0203001N002110024019N0030001N1+00001+00001100841ADDAA112003091AY181061AY221061GA1091+999999999GF109991091999999999999999KA1999M+00161MA1999999099801MD1710061+9999MW1861REMSYN082AAXX  23184 01278 11/30 93004 10000 20000 39980 40084 57006 60032 78682 333 10016;
0230012780999992000032406004+63800+011570FM-12+005299999V0203001N002110012019N0300001N1+00011+00011101551ADDAA112003091AJ100559199999999AY181061AY221061GF107991051091001501071999IA1289KA1120N-00031MA1999999100501MD1210111+9999MW1021REMSYN094AAXX  24064 01278 11280 73004 10001 20001 30050 40155 52011 60032 70282 8597/ 333 21003 44055;
0161012780999992000032409004+63800+011570FM-12+005299999V0203001N001010003019N0300001N1+00001+00001101681ADDAY181031AY221031GF108991081091000251999999MA1999999100631MD1210131+9999MW1851REMSYN072AAXX  24094 01278 41080 83002 10000 20000 30063 40168 52013 78582 889//;
0161012780999992000032412004+63800+011570FM-12+005299999V0203001N001010075019N0550001N1+00171+00111101741ADDAY181061AY221061GF107991071091008001999999MA1999999100701MD1210071+9999MW1881REMSYN072AAXX  24124 01278 41585 73002 10017 20011 30070 40174 52007 78882 879//;
0201012780999992000032418004+63800+011570FM-12+005299999V0209999C000010300019N0300001N1+00041+00001101831ADDAA112001091AY181061AY221061GF106991031081017501071021KA1999M+00221MA1999999100781MD1410001+9999MW1011REMSYN088AAXX  24184 01278 11780 60000 10004 20000 30078 40183 54000 69992 70182 83872 333 10022;
0243012780999992000032506004+63800+011570FM-12+005299999V0201301N001012200019N0300001N1-00641-00641101721ADDAA199000091AJ100529199999999AY111061AY211061GF102991021001999999031021IA1289KA1120N-00701MA1999999100641MD1710071+9999MW1021REMSYN088AAXX  25064 01278 31980 21302 11064 21064 30064 40172 57007 70211 82032 333 21070 44052;EQDQ01  00002PRCP99
0161012780999992000032509004+63800+011570FM-12+005299999V0201501N001012200019N0550001N1-00451-00481101671ADDAY101031AY201031GF101991001001999999001021MA1999999100601MD1710041+9999MW1021REMSYN072AAXX  25094 01278 41985 11502 11045 21048 30060 40167 57004 70200 80002;
0161012780999992000032512004+63800+011570FM-12+005299999V0209999C000010150019N0550001N1+00261-00291101601ADDAY111061AY211061GF106991051081012501031021MA1999999100561MD1710041+9999MW1031REMSYN072AAXX  25124 01278 41685 60000 10026 21029 30056 40160 57004 70311 85832;
0214012780999992000032518004+63800+011570FM-12+005299999V0201501N001012200019N0300001N1-00081-00481101521ADDAA199000091AY111061AY211061GF104991011011012501031041KA1999M+00301MA1999999100471MD1710021+9999MW1021REMSYN082AAXX  25184 01278 31680 41502 11008 21048 30047 40152 57002 70211 81134 333 10030;EQDQ01  00002PRCP99
0243012780999992000032606004+63800+011570FM-12+005299999V0201501N003112200019N0550001N1-00321-00881101501ADDAA199000091AJ100509199999999AY101061AY201061GF102991021051017501001001IA1289KA1120N-00501MA1999999100441MD1710051+9999MW1021REMSYN088AAXX  26064 01278 31785 21506 11032 21088 30044 40150 57005 70200 82500 333 21050 44050;EQDQ01  00002PRCP99
0161012780999992000032609004+63800+011570FM-12+005299999V0201201N004612200019N0550001N1-00201-00811101561ADDAY101031AY201031GF101991011051017501001001MA1999999100501MD1210061+9999MW1021REMSYN072AAXX  26094 01278 41785 11209 11020 21081 30050 40156 52006 70200 81500;
