0223012710999992000010100004+63470+010930FM-12+0017ENVA V0201101N000510240019N0550001N1-00031-00451100811ADDAA106000091AY121061AY221061GA1051+024009039GF107991061001022501071021MA1999999100561MD1710271+9999MW1031REMSYN088AAXX  01004 01271 31885 71101 11003 21045 30056 40081 57027 70322 86072 333 85358 91104;EQDQ01  00002PRCP06
0152012710999992000010100504+63470+010930FM-15+0017ENVA V0201001N002110240019N0112651N1+00101-00401999999ADDGA1021+015009999GA2071+024009999GF107991999999999999999999MA1100711999999MW1001REMMET061ENVA 010050Z 10004KT 070V140 9999 FEW050 BKN080 01/M04 Q1007;
0167012710999992000010101504+63470+010930FM-15+0017ENVA V0201101N004110330019N0112651N1+00201-00401999999ADDGA1021+015009999GA2021+021009999GA3071+033009999GF107991999999999999999999MA1100711999999MW1001REMMET060ENVA 010150Z 11008KT 9999 FEW050 SCT070 BKN110 02/M04 Q1007;
0167012710999992000010102504+63470+010930FM-15+0017ENVA V0201401N005710330019N0112651N1+00401-00501999999ADDGA1021+015009999GA2021+027009999GA3071+033009999GF107991999999999999999999MA1100611999999MW1001REMMET060ENVA 010250Z 14011KT 9999 FEW050 SCT090 BKN110 04/M05 Q1006;
0144012710999992000010103504+63470+010930FM-15+0017ENVA V0201401N005710270019N0112651N1+00401-00501999999ADDGA1021+015009999GA2071+027009999GF107991999999999999999999MA1100511999999MW1001REMMET053ENVA 010350Z 14011KT 9999 FEW050 BKN090 04/M05 Q1005;
0198012710999992000010104504+63470+010930FM-15+0017ENVA V0201101N002610150019N0112651N1+00401-00301999999ADDGA1021+007509999GA2071+015009999GA3071+021009999GF107991999999999999999999MA1100511999999MW1711REMMET072ENVA 010450Z 11005KT 020V180 9999 -SN SCT025 BKN050 BKN070 04/M03 Q1005;EQDQ01    003PRSWM1
0175012710999992000010105504+63470+010930FM-15+0017ENVA V0201301N003110069019N0050001N1+00301-00201999999ADDGA1021+004509999GA2071+006909999GF107991999999999999999999MA1100511999999MW1711REMMET065ENVA 010550Z 13006KT 080V210 5000 -SN SCT015 BKN023 03/M02 Q1005;EQDQ01    003PRSWM1
0280012710999992000010106004+63470+010930FM-12+0017ENVA V0201301N001510069019N0050001N1+00301-00221100511ADDAA112000791AJ100019199999999AY171061AY221061GA1041+004509069GA2051+006909069GF108991081051004501999999IA1279KA1120N-00511MA1999999100271MD1710121+9999MW1711REMSYN112AAXX  01064 01271 11450 81303 10030 21022 30027 40051 57012 69902 77172 885// 333 21051 43001 84615 85623 91109;
0143012710999992000010106504+63470+010930FM-15+0017ENVA V0201101N00311000151CN0030001N1+00201+00001999999ADDGA1091+000159999GF109991999999000251999999MA1100511999999MW1711REMMET049ENVA 010650Z 11006KT 3000 -SN VV010 02/M00 Q1005;EQDQ01    003PRSWM1
0167012710999992000010107504+63470+010930FM-15+0017ENVA V0200701N002610060019N0112651N1+00201+00001999999ADDGA1021+004509999GA2071+006009999GF107991999999999999999999MA1100511999999MW1711REMMET057ENVA 010750Z 07005KT 9999 -SN SCT015 BKN020 02/M00 Q1005;EQDQ01    003PRSWM1
0142012710999992000010108504+63470+010930FM-15+0017ENVA V0200301N00151000151CN0040001N1+00201+00001999999ADDGA1091+000159999GF109991999999000251999999MA1100511999999MW1711REMMET048ENVA 010850Z 03003KT 4000 -SN VV012 02/00 Q1005;EQDQ01    003PRSWM1
0171012710999992000010109004+63470+010930FM-12+0017ENVA V0200301N000510024019N0040001N1+00151+00031100581ADDAY171031AY271031GA1091+999999999GF109991091999999999999999MA1999999100341MD1310071+9999MW1711REMSYN066AAXX  01094 01271 41/40 90301 10015 20003 30034 40058 53007 77177;
0149012710999992000010109504+63470+010930FM-15+0017ENVA V0201801N003110060019N0112651N1+00301+00101999999ADDGA1021+004509999GA2071+006009999GF107991999999999999999999MA1100611999999MW1001REMMET058ENVA 010950Z 18006KT 9999 FEW015 BKN020 03/01 Q1006 NOSIG;
0149012710999992000010110504+63470+010930FM-15+0017ENVA V0200701N002610054019N0112651N1+00301+00101999999ADDGA1021+004509999GA2071+005409999GF107991999999999999999999MA1100711999999MW1001REMMET058ENVA 011050Z 07005KT 9999 FEW015 BKN018 03/01 Q1007 NOSIG;
0149012710999992000010111504+63470+010930FM-15+0017ENVA V02099999999990060019N0112651N1+00401+00101999999ADDGA1021+004509999GA2071+006009999GF107991999999999999999999MA1100711999999MW1001REMMET058ENVA 011150Z VRB05KT 9999 FEW015 BKN020 04/01 Q1007 NOSIG;
0232012710999992000010112004+63470+010930FM-12+0017ENVA V0201201N001010060019N0500001N1+00391+00131100761ADDAA106002091AY171061AY221061GA1011+004509069GA2051+006009069GF106991051051004501071021MA1999999100521MD1210181+9999MW1011REMSYN100AAXX  01124 01271 11484 61202 10039 20013 30052 40076 52018 60021 70172 85572 333 81615 85620 91105;
0149012710999992000010112504+63470+010930FM-15+0017ENVA V0202301N005710066019N0112651N1+00401+00101999999ADDGA1021+004809999GA2071+006609999GF107991999999999999999999MA1100811999999MW1001REMMET058ENVA 011250Z 23011KT 9999 FEW016 BKN022 04/01 Q1008 NOSIG;
0126012710999992000010113504+63470+010930FM-15+0017ENVA V02099999999990075019N0112651N1+00401+00101999999ADDGA1071+007509999GF107991999999999999999999MA1100811999999MW1001REMMET051ENVA 011350Z VRB03KT 9999 BKN025 04/01 Q1008 NOSIG;
0126012710999992000010114504+63470+010930FM-15+0017ENVA V0200801N002610075019N0112651N1+00201+00101999999ADDGA1071+007509999GF107991999999999999999999MA1100911999999MW1001REMMET051ENVA 011450Z 08005KT 9999 BKN025 02/01 Q1009 NOSIG;
0161012710999992000010115004+63470+010930FM-12+0017ENVA V0200801N000510075019N0500001N1+00211+00101100921ADDAY121031AY221031GF105991051051008001041011MA1999999100681MD1210161+9999MW1011REMSYN072AAXX  01154 01271 41584 50801 10021 20010 30068 40092 52016 70122 85541;
0134012710999992000010115504+63470+010930FM-15+0017ENVA V0201101N002112200019N0112651N1+00201+00101999999ADDGA1021+009009999GF104991999999999999999999MA1100911999999MW1001REMMET059ENVA 011550Z 11004KT 040V150 9999 SCT030 02/01 Q1009 NOSIG;
0126012710999992000010116504+63470+010930FM-15+0017ENVA V0201201N002612200019N0112651N1+00101+00001999999ADDGA1021+009009999GF102991999999999999999999MA1100911999999MW1001REMMET051ENVA 011650Z 12005KT 9999 FEW030 01/00 Q1009 NOSIG;
0128012710999992000010117504+63470+010930FM-15+0017ENVA V0201001N002612200019N0112651N1-00101-00101999999ADDGA1021+009009999GF102991999999999999999999MA1100811999999MW1001REMMET053ENVA 011750Z 10005KT 9999 FEW030 M01/M01 Q1008 NOSIG;
0212012710999992000010118004+63470+010930FM-12+0017ENVA V0201001N001012200019N0500001N1-00051-00101100901ADDAY121061AY201061GA1021+009009069GF102991021051004501001011KA1120M+00441MA1999999100651MD1710031+9999MW1021REMSYN094AAXX  01184 01271 11484 21002 11005 21010 30065 40090 57003 70220 82501 333 10044 82630 91107;
0152012710999992000010118504+63470+010930FM-15+0017ENVA V0201001N003110240019N0112651N1+00301+00001999999ADDGA1021+009009999GA2071+024009999GF107991999999999999999999MA1100711999999MW1001REMMET061ENVA 011850Z 10006KT 330V230 9999 FEW030 BKN080 03/M00 Q1007;
0152012710999992000010119504+63470+010930FM-15+0017ENVA V0201001N002110210019N0112651N1+00401-00101999999ADDGA1021+009009999GA2071+021009999GF107991999999999999999999MA1100711999999MW1001REMMET061ENVA 011950Z 10004KT 040V160 9999 SCT030 BKN070 04/M01 Q1007;
0152012710999992000010120504+63470+010930FM-15+0017ENVA V0200901N003110210019N0112651N1+00401-00201999999ADDGA1021+009009999GA2071+021009999GF107991999999999999999999MA1100711999999MW1001REMMET061ENVA 012050Z 09006KT 340V170 9999 SCT030 BKN070 04/M02 Q1007;
0193012710999992000010121004+63470+010930FM-12+0017ENVA V0200901N00151030001CN0500001N1+00401-00231100791ADDAY121031AY221031GA1031+009009069GF106991031051008001071999MA1999999100521MD1710131+9999MW1021REMSYN088AAXX  01214 01271 41584 60903 10040 21023 30052 40079 57013 70222 8357/ 333 83630 85357;
0152012710999992000010121504+63470+010930FM-15+0017ENVA V0201401N005710180019N0112651N1+00501-00201999999ADDGA1021+009009999GA2071+018009999GF107991999999999999999999MA1100611999999MW1001REMMET061ENVA 012150Z 14011KT 120V190 9999 SCT030 BKN060 05/M02 Q1006;
0144012710999992000010122504+63470+010930FM-15+0017ENVA V0200901N003110180019N0112651N1+00501-00201999999ADDGA1021+007509999GA2071+018009999GF107991999999999999999999MA1100611999999MW1001REMMET053ENVA 012250Z 09006KT 9999 FEW025 BKN060 05/M02 Q1006;
0144012710999992000010123504+63470+010930FM-15+0017ENVA V0200601N003610210019N0112651N1+00501-00201999999ADDGA1021+007509999GA2071+021009999GF107991999999999999999999MA1100511999999MW1001REMMET053ENVA 012350Z 06007KT 9999 FEW025 BKN070 05/M02 Q1005;
0245012710999992000010200004+63470+010930FM-12+0017ENVA V0200601N001510210019N0400001N1+00521-00151100511ADDAA106000091AY121061AY221061GA1021+007509069GA2051+021009039GF107991021051008001071999MA1999999100271MD1710251+9999MW1021REMSYN094AAXX  02004 01271 31582 70603 10052 21015 30027 40051 57025 70222 8257/ 333 82625 85357 91110;EQDQ01  00002PRCP06
0163012710999992000010200504+63470+010930FM-15+0017ENVA V0200501N002110210019N0112651N1+00601-00201999999ADDGA1021+007509999GA2071+021009999GF107991999999999999999999MA1100411999999MW1001REMMET053ENVA 020050Z 05004KT 9999 FEW025 BKN070 06/M02 Q1004;EQDQ01+000000PRSWM2
0163012710999992000010201504+63470+010930FM-15+0017ENVA V0203001N002610210019N0112651N1+00601-00201999999ADDGA1021+007509999GA2071+021009999GF107991999999999999999999MA1100411999999MW1001REMMET053ENVA 020150Z 30005KT 9999 FEW025 BKN070 06/M02 Q1004;EQDQ01+000000PRSWM2
0163012710999992000010202504+63470+010930FM-15+0017ENVA V0202801N001510210019N0112651N1+00501-00101999999ADDGA1021+009009999GA2071+021009999GF107991999999999999999999MA1100411999999MW1001REMMET053ENVA 020250Z 28003KT 9999 FEW030 BKN070 05/M01 Q1004;EQDQ01+000000PRSWM2
0193012710999992000010203004+63470+010930FM-12+0017ENVA V0202801N00051030001CN0400001N1+00511-00061100401ADDAY121031AY221031GA1021+009009069GF107991021051008001071999MA1999999100161MD1710111+9999MW1021REMSYN088AAXX  02034 01271 41582 72801 10051 21006 30016 40040 57011 70222 8257/ 333 82630 85357;
0162012710999992000010203504+63470+010930FM-15+0017ENVA V02099999999990180019N0112651N1+00301+00101999999ADDGA1021+009009999GA2071+018009999GF107991999999999999999999MA1100311999999MW1001REMMET052ENVA 020350Z VRB02KT 9999 FEW030 BKN060 03/01 Q1003;EQDQ01+000000PRSWM2
0162012710999992000010204504+63470+010930FM-15+0017ENVA V0209999C000010180019N0112651N1+00201+00001999999ADDGA1021+009009999GA2071+018009999GF107991999999999999999999MA1100201999999MW1001REMMET052ENVA 020450Z 00000KT 9999 FEW030 BKN060 02/00 Q1002;EQDQ01+000000PRSWM2
0169012710999992000010205504+63470+010930FM-15+0017ENVA V0200701N001510180019N0112651N1+00201+00001999999ADDGA1021+009009999GA2071+018009999GF107991999999999999999999MA1100001999999MW1001REMMET059ENVA 020550Z 07003KT 9999 FEW030 BKN060 02/M00 Q1000 NOSIG;EQDQ01+000000PRSWM2
0293012710999992000010206004+63470+010930FM-12+0017ENVA V0200701N000510180019N0400001N1+00241-00021100091ADDAA106000091AJ100019199999999AY121061AY221061GA1021+009009069GA2051+018009039GF107991021051008001071999IA1279KA1120N-00121MA1999999099831MD1710331+9999MW1021REMSYN106AAXX  02064 01271 31582 70701 10024 21002 39983 40009 57033 70222 8257/ 333 21012 43001 82630 85356 91107;EQDQ01  00002PRCP06
0169012710999992000010206504+63470+010930FM-15+0017ENVA V02099999999990210019N0112651N1+00301-00101999999ADDGA1021+007509999GA2071+021009999GF107991999999999999999999MA1099901999999MW1001REMMET059ENVA 020650Z VRB01KT 9999 SCT025 BKN070 03/M01 Q0999 NOSIG;EQDQ01+000000PRSWM2
0169012710999992000010207504+63470+010930FM-15+0017ENVA V0201201N003610150019N0112651N1+00501+00001999999ADDGA1021+007509999GA2071+015009999GF107991999999999999999999MA1099801999999MW1001REMMET059ENVA 020750Z 12007KT 9999 SCT025 BKN050 05/M00 Q0998 NOSIG;EQDQ01+000000PRSWM2
0176012710999992000010208504+63470+010930FM-15+0017ENVA V0201401N006210210019N0112651N1+00501+00001999999ADDGA1021+009009999GA2071+021009999GF107991999999999999999999MA1099591999999MW1001REMMET066ENVA 020850Z 14012KT 120V200 9999 SCT030 BKN070 05/00 Q0996 NOSIG;EQDQ01+000000PRSWM2
0193012710999992000010209004+63470+010930FM-12+0017ENVA V0201401N00311030001CN0400001N1+00461+00011099641ADDAY161031AY221031GA1031+009009069GF108991031051008001071999MA1999999099401MD1710431+9999MW1211REMSYN088AAXX  02094 01271 41582 81406 10046 20001 39940 49964 57043 72162 8357/ 333 83630 85357;
0169012710999992000010209504+63470+010930FM-15+0017ENVA V02099999999990240019N0112651N1+00501-00101999999ADDGA1021+009009999GA2071+024009999GF107991999999999999999999MA1099391999999MW1001REMMET059ENVA 020950Z VRB03KT 9999 SCT030 BKN080 05/M01 Q0994 NOSIG;EQDQ01+000000PRSWM2
0177012710999992000010210504+63470+010930FM-15+0017ENVA V0201401N003110210019N0112651N1+00501-00201999999ADDGA1021+009009999GA2071+021009999GF107991999999999999999999MA1099391999999MW1001REMMET067ENVA 021050Z 14006KT 030V270 9999 SCT030 BKN070 05/M02 Q0994 NOSIG;EQDQ01+000000PRSWM2
0199012710999992000010211504+63470+010930FM-15+0017ENVA V0202001N004110150019N0112651N1+00501-00201999999ADDGA1021+007509999GA2071+015009999GF107991999999999999999999MA1099391999999MW1001OC101081REMMET081ENVA 021150Z 20008G21KT 140V240 9999 SCT025 BKN050 05/M02 Q0994 BECMG 25015G25KT;EQDQ01+000000PRSWM2
0232012710999992000010212004+63470+010930FM-12+0017ENVA V0202001N002110150019N0300001N1+00541-00201099471ADDAA106000791AY161061AY221061GA1031+007509069GA2051+015009069GF107991061051008001071999MA1999999099231MD1710171+9999MW1151REMSYN100AAXX  02124 01271 11580 72004 10054 21020 39923 49947 57017 69901 71562 8657/ 333 83625 85650 91110;
0210012710999992000010212504+63470+010930FM-15+0017ENVA V0201401N003610210019N0112651N1+00401+00101999999ADDGA1021+006009999GA2021+009009999GA3071+021009999GF107991999999999999999999MA1099491999999MW1001REMMET084ENVA 021250Z 14007KT 110V210 9999 FEW020 SCT030 BKN070 04/01 Q0995 BECMG 26020G30KT;EQDQ01+000000PRSWM2
0203012710999992000010213504+63470+010930FM-15+0017ENVA V0201401N003612200019N0112651N1+00401+00001999999ADDGA1021+006009999GA2021+009009999GA3021+013509999GF104991999999999999999999MA1099391999999MW1001REMMET077ENVA 021350Z 14007KT 9999 FEW020 SCT030 SCT045 04/M00 Q0994 BECMG 26020G30KT;EQDQ01+000000PRSWM2
0215012710999992000010214504+63470+010930FM-15+0017ENVA V0201901N004610090019N0112651N1+00501+00001999999ADDGA1021+006009999GA2071+009009999GA3071+013509999GF107991999999999999999999MA1099491999999MW1801REMMET073ENVA 021450Z 19009KT 140V230 9999 -SHRA FEW020 BKN030 BKN045 05/00 Q0995;EQDQ01+000003PRSWM1Q02    003PRSWM1
0193012710999992000010215004+63470+010930FM-12+0017ENVA V0201901N00211012001CN0250001N1+00451+00001099531ADDAY181031AY261031GA1021+006009089GF107991071081008001061999MA1999999099291MD1310061+9999MW1801REMSYN088AAXX  02154 01271 41575 71904 10045 20000 39929 49953 53006 78086 8786/ 333 82820 85830;
0228012710999992000010215204+63470+010930FM-15+0017ENVA V0202101N009810075019N0112651N1+00401+00101999999ADDGA1021+004509999GA2021+006009099GA3071+007509999GF107991999999999999999999MA1099491999999MW1801OC101751REMMET078ENVA 021520Z 21019G34KT 160V250 9999 -SHRA FEW015 SCT020CB BKN025 04/01 Q0995;EQDQ01+000003PRSWM1Q02    003PRSWM1
0220012710999992000010216204+63470+010930FM-15+0017ENVA V0202501N015410084019N0112651N1+00401+00201999999ADDGA1021+003609999GA2021+004509099GA3071+008409999GF107991999999999999999999MA1099701999999MW1801OC102061REMMET070ENVA 021620Z 25030G40KT 9999 -SHRA FEW012 SCT015CB BKN028 04/02 Q0997;EQDQ01+000003PRSWM1Q02    003PRSWM1
0228012710999992000010216504+63470+010930FM-15+0017ENVA V0202301N012910075019N0112651N1+00501+00201999999ADDGA1021+004509999GA2021+006009099GA3071+007509999GF107991999999999999999999MA1099591999999MW1801OC102111REMMET078ENVA 021550Z 23025G41KT 190V260 9999 -SHRA FEW015 SCT020CB BKN025 05/02 Q0996;EQDQ01+000003PRSWM1Q02    003PRSWM1
0198012710999992000010217504+63470+010930FM-15+0017ENVA V0202501N010310105019N0112651N1+00401+00201999999ADDGA1021+004509099GA2021+007509999GA3071+010509999GF107991999999999999999999MA1099901999999MW1001OC101541REMMET064ENVA 021750Z 25020G30KT 9999 FEW015CB SCT025 BKN035 04/02 Q0999;EQDQ01+000000PRSWM2
0273012710999992000010218004+63470+010930FM-12+0017ENVA V0202501N00511010501CN0300001N1+00431+00171099981ADDAA112001091AY181061AY261061GA1011+004509099GA2041+007509089GA3051+010509069GF106991061091004501061999KA1120M+00581MA1999999099741MD1210451+9999MW1021REMSYN112AAXX  02184 01271 11480 62510 10043 20017 39974 49998 52045 60012 70286 8696/ 333 10058 81915 84825 85635 91121;
0188012710999992000010218504+63470+010930FM-15+0017ENVA V0202301N007710105019N0112651N1+00501+00001999999ADDGA1021+006009029GA2021+007509999GA3071+010509999GF107991999999999999999999MA1100101999999MW1001REMMET062ENVA 021850Z 23015KT 9999 FEW020TCU FEW025 BKN035 05/00 Q1001;EQDQ01+000000PRSWM2
0209012710999992000010219504+63470+010930FM-15+0017ENVA V0202501N007210105019N0112651N1+00301+00201999999ADDGA1021+004509099GA2021+006909999GA3071+010509999GF107991999999999999999999MA1100311999999MW1801REMMET067ENVA 021950Z 25014KT 9999 -SHRA FEW015CB SCT023 BKN035 03/02 Q1003;EQDQ01+000003PRSWM1Q02    003PRSWM1
0236012710999992000010220204+63470+010930FM-15+0017ENVA V0202401N008710060019N0060001N1+00401+00201999999ADDGA1021+003609999GA2021+004509099GA3071+006009999GF107991999999999999999999MA1100311999999MW1801MW2851OC101391REMMET080ENVA 022020Z 24017G27KT 220V290 6000 -SHSNRA FEW012 SCT015CB BKN020 04/02 Q1003;EQDQ01+000003PRSWM1Q02    003PRSWM1
0188012710999992000010220504+63470+010930FM-15+0017ENVA V0202401N005110045019N0112651N1+00201+00101999999ADDGA1021+003009999GA2021+003609999GA3071+004509029GF107991999999999999999999MA1100411999999MW1001REMMET062ENVA 022050Z 24010KT 9999 FEW010 SCT012 BKN015TCU 02/01 Q1004;EQDQ01+000000PRSWM2
0215012710999992000010221004+63470+010930FM-12+0017ENVA V0202401N002610036019N0350001N1+00241+00141100431ADDAY181031AY221031GA1021+003009079GA2041+003609089GF106991061081004501061999MA1999999100191MD1210451+9999MW1261REMSYN094AAXX  02214 01271 41481 62405 10024 20014 30019 40043 52045 72682 8686/ 333 82710 84812 85815;
0139012710999992000010221504+63470+010930FM-15+0017ENVA V0202301N008712200019N0112651N1+00401+00101999999ADDGA1021+003609999GF102991999999999999999999MA1100511999999MW1001REMMET045ENVA 022150Z 23017KT 9999 FEW012 04/01 Q1005;EQDQ01+000000PRSWM2
0139012710999992000010222504+63470+010930FM-15+0017ENVA V0202301N006712200019N0112651N1+00401+00101999999ADDGA1021+003609999GF102991999999999999999999MA1100611999999MW1001REMMET045ENVA 022250Z 23013KT 9999 FEW012 04/01 Q1006;EQDQ01+000000PRSWM2
0162012710999992000010223504+63470+010930FM-15+0017ENVA V0202101N004612200019N0112651N1+00301+00101999999ADDGA1021+004509999GA2021+010509999GF104991999999999999999999MA1100611999999MW1001REMMET052ENVA 022350Z 21009KT 9999 FEW015 SCT035 03/01 Q1006;EQDQ01+000000PRSWM2
0232012710999992000010300004+63470+010930FM-12+0017ENVA V0202101N002112200019N0600001N1+00341+00061100641ADDAA106002091AY181061AY211061GA1011+004509089GA2031+010509069GF103991031081004501061001MA1999999100401MD1210211+9999MW1021REMSYN100AAXX  03004 01271 11486 32104 10034 20006 30040 40064 52021 60021 70281 83860 333 81815 83635 91114;
0162012710999992000010300504+63470+010930FM-15+0017ENVA V0202301N006212200019N0112651N1+00401+00001999999ADDGA1021+005409999GA2021+010509999GF104991999999999999999999MA1100611999999MW1001REMMET052ENVA 030050Z 23012KT 9999 FEW018 SCT035 04/00 Q1006;EQDQ01+000000PRSWM2
0148012710999992000010301504+63470+010930FM-15+0017ENVA V0201901N004112200019N0112651N1+00301+00001999999ADDGA1021+006009999GF102991999999999999999999MA1100611999999MW1001REMMET054ENVA 030150Z 19008KT 120V230 9999 FEW020 03/M00 Q1006;EQDQ01+000000PRSWM2
0140012710999992000010302504+63470+010930FM-15+0017ENVA V02099999999992200019N0112651N1+00201-00101999999ADDGA1021+010509999GF102991999999999999999999MA1100511999999MW1001REMMET046ENVA 030250Z VRB04KT 9999 FEW035 02/M01 Q1005;EQDQ01+000000PRSWM2
0187012710999992000010303004+63470+010930FM-12+0017ENVA V0209999V001012200019N0600001N1+00231-00061100601ADDAY101031AY201031GA1021+010509059GF102991021051012501001011MA1999999100361MD1810041+9999MW1031REMSYN082AAXX  03034 01271 41686 29902 10023 21006 30036 40060 58004 70300 82501 333 82635;
0140012710999992000010303504+63470+010930FM-15+0017ENVA V02099999999992200019N0112651N1+00201-00201999999ADDGA1021+010509999GF102991999999999999999999MA1100411999999MW1001REMMET046ENVA 030350Z VRB03KT 9999 FEW035 02/M02 Q1004;EQDQ01+000000PRSWM2
0171012710999992000010304504+63470+010930FM-15+0017ENVA V0201501N004612200019N0112651N1+00301-00201999999ADDGA1021+010509999GA2021+015009999GF104991999999999999999999MA1100311999999MW1001REMMET061ENVA 030450Z 15009KT 110V220 9999 FEW035 SCT050 03/M02 Q1003;EQDQ01+000000PRSWM2
0169012710999992000010305504+63470+010930FM-15+0017ENVA V0201401N006212200019N0112651N1+00201-00301999999ADDGA1021+010509999GA2021+015009999GF104991999999999999999999MA1100201999999MW1001REMMET059ENVA 030550Z 14012KT 9999 FEW035 SCT050 02/M03 Q1002 NOSIG;EQDQ01+000000PRSWM2
0280012710999992000010306004+63470+010930FM-12+0017ENVA V0201401N003110150019N0600001N1+00221-00321100291ADDAA112002091AJ100019199999999AY111061AY201061GA1011+010509069GA2041+015009069GF105991051051012501001001IA1279KA1120N+00161MA1999999100051MD1710311+9999MW1031REMSYN112AAXX  03064 01271 11686 51406 10022 21032 30005 40029 57031 60022 70310 85500 333 20016 43001 81635 84650 91110;
0098012710999992000010306504+63470+010930FM-15+0017ENVA V0201401N00571220001CN0099001N1+00201-00401999999ADDMA1100001999999MW1001REMMET046ENVA 030650Z 14011KT CAVOK 02/M04 Q1000 NOSIG;EQDQ01+000000PRSWM2
0109012710999992000010307504+63470+010930FM-15+0017ENVA V0201401N00411220001CN0099001N1+00301-00501999999ADDMA1099901999999MW1001REMMET057ENVA 030750Z 14008KT CAVOK 03/M05 Q0999 TEMPO 15015G25KT;EQDQ01+000000PRSWM2
0117012710999992000010308504+63470+010930FM-15+0017ENVA V0201201N00461220001CN0099001N1+00401-00501999999ADDMA1099591999999MW1001REMMET065ENVA 030850Z 12009KT 090V170 CAVOK 04/M05 Q0996 TEMPO 15015G25KT;EQDQ01+000000PRSWM2
0193012710999992000010309004+63470+010930FM-12+0017ENVA V0201201N00211075001CN0600001N1+00351-00511099671ADDAY121031AY221031GA1031+024009039GF107991031001022501041081MA1999999099451MD1810611+9999MW1021REMSYN088AAXX  03094 01271 41886 71204 10035 21051 39945 49967 58061 70222 83048 333 83358 87270;
0128012710999992000010309504+63470+010930FM-15+0017ENVA V0201601N00821220001CN0099001N1+00501-00501999999ADDMA1099291999999MW1001OC101391REMMET068ENVA 030950Z 16016G27KT 120V200 CAVOK 05/M05 Q0993 TEMPO 18022G35KT;EQDQ01+000000PRSWM2
0211012710999992000010310504+63470+010930FM-15+0017ENVA V0201501N009310240019N0112651N1+00401-00301999999ADDGA1021+010509999GA2071+024009999GF107991999999999999999999MA1098981999999MW1711OC101591REMMET077ENVA 031050Z 15018G31KT 9999 -SN FEW035 BKN080 04/M03 Q0990 TEMPO 18025G40KT;EQDQ01+000003PRSWM1Q02    003PRSWM1
0211012710999992000010311504+63470+010930FM-15+0017ENVA V02099999999990240019N0112651N1+00401-00301999999ADDGA1021+009009999GA2071+024009999GF107991999999999999999999MA1098921999999MW1711REMMET085ENVA 031150Z VRB12G28KT 080V330 9999 -SN FEW030 BKN080 04/M03 Q0989 TEMPO 18025G40KT;EQDQ01+000003PRSWM1Q02    003PRSWM1
0232012710999992000010312004+63470+010930FM-12+0017ENVA V0201501N002610240019N0500001N1+00451-00281098951ADDAA106000191AY171061AY221061GA1031+009009069GA2061+024009049GF107991031051008001071999MA1999999098711MD1610721+9999MW1701REMSYN100AAXX  03124 01271 11584 71505 10045 21028 39871 49895 56072 69911 77072 8357/ 333 83630 86458 91120;
0176012710999992000010312504+63470+010930FM-15+0017ENVA V0201701N008212200019N0112651N1+00501-00301999999ADDGA1021+009009999GF102991999999999999999999MA1098711999999MW1001OC101591REMMET074ENVA 031250Z 17016G31KT 090V210 9999 FEW030 05/M03 Q0987 TEMPO 18025G40KT;EQDQ01+000000PRSWM2
0176012710999992000010313504+63470+010930FM-15+0017ENVA V0201601N007712200019N0112651N1+00401-00301999999ADDGA1021+009009999GF102991999999999999999999MA1098511999999MW1001OC101441REMMET074ENVA 031350Z 16015G28KT 110V210 9999 FEW030 04/M03 Q0985 TEMPO 18025G40KT;EQDQ01+000000PRSWM2
0188012710999992000010314504+63470+010930FM-15+0017ENVA V0201401N005712200019N0112651N1+00501-00301999999ADDGA1021+009009999GA2021+036009999GF104991999999999999999999MA1098411999999MW1001REMMET078ENVA 031450Z 14011KT 090V170 9999 FEW030 SCT120 05/M03 Q0984 TEMPO 18020G35KT;EQDQ01+000000PRSWM2
0193012710999992000010315004+63470+010930FM-12+0017ENVA V0201401N002612200019N0600001N1+00481-00261098511ADDAY171031AY211031GA1011+009009069GF103991011081008001041001MA1999999098271MD1710441+9999MW1031REMSYN088AAXX  03154 01271 41586 31405 10048 21026 39827 49851 57044 70371 81840 333 81630 83362;
0188012710999992000010315504+63470+010930FM-15+0017ENVA V0201501N005712200019N0112651N1+00601-00201999999ADDGA1021+009009999GA2021+036009999GF104991999999999999999999MA1098211999999MW1001REMMET078ENVA 031550Z 15011KT 110V200 9999 FEW030 SCT120 06/M02 Q0982 TEMPO 15018G30KT;EQDQ01+000000PRSWM2
0191012710999992000010316504+63470+010930FM-15+0017ENVA V0201601N006710360019N0112651N1+00601-00201999999ADDGA1021+009009999GA2071+036009999GF107991999999999999999999MA1098101999999MW1001OC101231REMMET073ENVA 031650Z 16013G24KT 9999 FEW030 BKN120 06/M02 Q0981 TEMPO 16020G35KT;EQDQ01+000000PRSWM2
0188012710999992000010317504+63470+010930FM-15+0017ENVA V0201701N009310270019N0112651N1+00601-00201999999ADDGA1021+009009999GA2071+027009999GF107991999999999999999999MA1098001999999MW1001OC101541REMMET070ENVA 031750Z 17018G30KT 120V210 9999 FEW030 BKN090 06/M02 Q0980 NOSIG;EQDQ01+000000PRSWM2
0251012710999992000010318004+63470+010930FM-12+0017ENVA V0201701N004610270019N0600001N1+00611-00201098081ADDAA112000191AY171061AY221061GA1011+009009069GA2051+027009039GF106991011081008001071999KA1120M+00621MA1999999097841MD1710431+9999MW1021REMSYN106AAXX  03184 01271 11586 61709 10061 21020 39784 49808 57043 69912 70272 8187/ 333 10062 81630 85359 91117;
0199012710999992000010318504+63470+010930FM-15+0017ENVA V0201701N007712200019N0112651N1+00601-00201999999ADDGA1021+009009999GA2021+036009999GF104991999999999999999999MA1097901999999MW1001OC101341REMMET081ENVA 031850Z 17015G26KT 130V220 9999 FEW030 SCT120 06/M02 Q0979 TEMPO 16020G35KT;EQDQ01+000000PRSWM2
0188012710999992000010319504+63470+010930FM-15+0017ENVA V0201601N005712200019N0112651N1+00701-00201999999ADDGA1021+009009999GA2021+036009999GF104991999999999999999999MA1097801999999MW1001REMMET078ENVA 031950Z 16011KT 120V200 9999 FEW030 SCT120 07/M02 Q0978 TEMPO 16015G25KT;EQDQ01+000000PRSWM2
0160012710999992000010320504+63470+010930FM-15+0017ENVA V0201701N007212200019N0112651N1+00701-00201999999ADDGA1021+009009999GF102991999999999999999999MA1097701999999MW1001OC101231REMMET058ENVA 032050Z 17014G24KT 130V210 9999 FEW030 07/M02 Q0977 ;EQDQ01+000000PRSWM2
0187012710999992000010321004+63470+010930FM-12+0017ENVA V0201701N003612200019N0600001N1+00721-00211097791ADDAY121031AY211031GA1011+009009059GF103991011081008001071021MA1999999097551MD1710281+9999MW1011REMSYN082AAXX  03214 01271 41586 31707 10072 21021 39755 49779 57028 70121 81872 333 81630;
0183012710999992000010321504+63470+010930FM-15+0017ENVA V0201801N006712200019N0112651N1+00801-00201999999ADDGA1021+009009999GA2021+024009999GF104991999999999999999999MA1097701999999MW1001OC101181REMMET065ENVA 032150Z 18013G23KT 140V220 9999 FEW030 SCT080 08/M02 Q0977 ;EQDQ01+000000PRSWM2
0183012710999992000010322504+63470+010930FM-15+0017ENVA V0201801N008212200019N0112651N1+00701-00201999999ADDGA1021+010509999GA2021+024009999GF104991999999999999999999MA1097601999999MW1001OC101441REMMET065ENVA 032250Z 18016G28KT 140V240 9999 FEW035 SCT080 07/M02 Q0976 ;EQDQ01+000000PRSWM2
0183012710999992000010323504+63470+010930FM-15+0017ENVA V0201701N005710240019N0112651N1+00701-00201999999ADDGA1021+010509999GA2071+024009999GF107991999999999999999999MA1097601999999MW1001OC101181REMMET065ENVA 032350Z 17011G23KT 140V210 9999 FEW035 BKN080 07/M02 Q0976 ;EQDQ01+000000PRSWM2
0245012710999992000010400004+63470+010930FM-12+0017ENVA V0201701N002610240019N0600001N1+00701-00231097691ADDAA106000091AY121061AY211061GA1021+010509069GA2051+024009039GF107991021051012501071999MA1999999097461MD1710111+9999MW1031REMSYN094AAXX  04004 01271 31686 71705 10070 21023 39746 49769 57011 70321 8257/ 333 82635 85358 91116;EQDQ01  00002PRCP06
0172012710999992000010400504+63470+010930FM-15+0017ENVA V0201701N006210240019N0112651N1+00701-00201999999ADDGA1021+010509999GA2071+024009999GF107991999999999999999999MA1097601999999MW1001REMMET062ENVA 040050Z 17012KT 120V210 9999 FEW035 BKN080 07/M02 Q0976 ;EQDQ01+000000PRSWM2
0172012710999992000010401504+63470+010930FM-15+0017ENVA V0201601N005710210019N0112651N1+00701-00201999999ADDGA1021+010509999GA2071+021009999GF107991999999999999999999MA1097491999999MW1001REMMET062ENVA 040150Z 16011KT 100V210 9999 FEW035 BKN070 07/M02 Q0975 ;EQDQ01+000000PRSWM2
0204012710999992000010402504+63470+010930FM-15+0017ENVA V0202301N004610150019N0112651N1+00701-00201999999ADDGA1021+007509999GA2071+015009999GF107991999999999999999999MA1097391999999MW1801OC101031REMMET070ENVA 040250Z 23009G20KT 160V260 9999 -SHRA FEW025 BKN050 07/M02 Q0974;EQDQ01+000003PRSWM1Q02    003PRSWM1
0193012710999992000010403004+63470+010930FM-12+0017ENVA V0202301N00211012001CN0400001N1+00731-00201097471ADDAY181031AY221031GA1021+007509089GF108991061081008001071999MA1999999097241MD1710221+9999MW1801REMSYN088AAXX  04034 01271 41582 82304 10073 21020 39724 49747 57022 78082 8687/ 333 82825 85650;
0203012710999992000010403504+63470+010930FM-15+0017ENVA V0202101N009810120019N0112651N1+00601+00101999999ADDGA1021+007509999GA2071+012009999GF107991999999999999999999MA1097391999999MW1801OC101701REMMET069ENVA 040350Z 21019G33KT 150V250 9999 -SHRA FEW025 BKN040 06/01 Q0974;EQDQ01+000003PRSWM1Q02    003PRSWM1
0203012710999992000010404504+63470+010930FM-15+0017ENVA V0202201N009810075019N0112651N1+00601+00201999999ADDGA1021+006009999GA2071+007509999GF107991999999999999999999MA1097391999999MW1801OC101651REMMET069ENVA 040450Z 22019G32KT 180V250 9999 -SHRA FEW020 BKN025 06/02 Q0974;EQDQ01+000003PRSWM1Q02    003PRSWM1
0221012710999992000010405504+63470+010930FM-15+0017ENVA V0202501N014410075019N0112651N1+00601+00301999999ADDGA1021+006009999GA2071+007509999GF107991999999999999999999MA1097491999999MW1801OC102061REMMET087ENVA 040550Z 25028G40KT 220V280 9999 -SHRA FEW020 BKN025 06/03 Q0975 TEMPO 26035G50KT ;EQDQ01+000003PRSWM1Q02    003PRSWM1
0299012710999992000010406004+63470+010930FM-12+0017ENVA V0202501N007210075019N0300001N1+00621+00271097531ADDAA112000191AJ199992999999999AY181061AY221061GA1021+006009089GA2051+007509069GF108991071081008001999999IA1259KA1120N+00551MA1999999097301MD1310061+9999MW1801REMSYN112AAXX  04064 01271 11580 82514 10062 20027 39730 49753 53006 69912 78082 878// 333 20055 41998 82820 85625 91120;EQDQ01  09972SNDP  
0203012710999992000010406504+63470+010930FM-15+0017ENVA V0202601N017010060019N0112651N1+00601+00301999999ADDGA1021+004509999GA2071+006009099GF107991999999999999999999MA1097701999999MW1801OC102371REMMET069ENVA 040650Z 26033G46KT 9999 -SHRA FEW015 BKN020CB 06/03 Q0977 NOSIG;EQDQ01+000003PRSWM1Q02    003PRSWM1
0203012710999992000010407504+63470+010930FM-15+0017ENVA V0202601N017510054019N0112651N1+00501+00301999999ADDGA1021+003909999GA2071+005409099GF107991999999999999999999MA1097901999999MW1801OC102371REMMET069ENVA 040750Z 26034G46KT 9999 -SHRA FEW013 BKN018CB 05/03 Q0979 NOSIG;EQDQ01+000003PRSWM1Q02    003PRSWM1
0203012710999992000010408504+63470+010930FM-15+0017ENVA V0202601N017510051019N0112651N1+00501+00301999999ADDGA1021+003609999GA2071+005109099GF107991999999999999999999MA1098211999999MW1801OC102521REMMET069ENVA 040850Z 26034G49KT 9999 -SHRA FEW012 BKN017CB 05/03 Q0982 NOSIG;EQDQ01+000003PRSWM1Q02    003PRSWM1
0193012710999992000010409004+63470+010930FM-12+0017ENVA V0202601N00871009001CN0150001N1+00471+00301098221ADDAY181031AY281031GA1021+003909089GF108991071081004501999999MA1999999097991MD1210691+9999MW1801REMSYN088AAXX  04094 01271 41465 82617 10047 20030 39799 49822 52069 78088 878// 333 82813 85617;
0203012710999992000010409504+63470+010930FM-15+0017ENVA V0202601N019510045019N0112651N1+00501+00301999999ADDGA1021+003009999GA2071+004509099GF107991999999999999999999MA1098411999999MW1801OC102571REMMET069ENVA 040950Z 26038G50KT 9999 -SHRA FEW010 BKN015CB 05/03 Q0984 NOSIG;EQDQ01+000003PRSWM1Q02    003PRSWM1
0245012710999992000010410504+63470+010930FM-15+0017ENVA V0202701N018510060019N0112651N1+00601+00201999999ADDGA1021+003009999GA2021+004509099GA3071+006009999GF107991999999999999999999MA1098711999999MW1801OC102371REMMET095ENVA 041050Z 27036G46KT 9999 -SHRA FEW010 SCT015CB BKN020 06/02 Q0987 TEMPO 5000 SHRA BKN012CB;EQDQ01+000003PRSWM1Q02    003PRSWM1
0244012710999992000010411504+63470+010930FM-15+0017ENVA V0202801N016510045019N0112651N1+00501+00201999999ADDGA1021+002409999GA2021+003009999GA3071+004509099GF107991999999999999999999MA1098821999999MW1801OC102161REMMET094ENVA 041150Z 28032G42KT 9999 -SHRA FEW008 SCT010 BKN015CB 05/02 Q0988 TEMPO 4000 SHRASN VV012;EQDQ01+000003PRSWM1Q02    003PRSWM1
0254012710999992000010412004+63470+010930FM-12+0017ENVA V0202801N008210045019N0100001N1+00501+00211098871ADDAA106003091AY181061AY281061GA1011+002409089GA2031+003009089GA3051+004509069GF108991071081002501999999MA1999999098641MD1210651+9999MW1801REMSYN106AAXX  04124 01271 11360 82816 10050 20021 39864 49887 52065 60031 78088 878// 333 81808 83810 85615 91125;
0244012710999992000010412504+63470+010930FM-15+0017ENVA V0202601N014910060019N0112651N1+00401+00201999999ADDGA1021+002409999GA2021+004509999GA3071+006009099GF107991999999999999999999MA1098981999999MW1801OC102061REMMET094ENVA 041250Z 26029G40KT 9999 -SHRA FEW008 SCT015 BKN020CB 04/02 Q0990 TEMPO 4000 SHRASN VV012;EQDQ01+000003PRSWM1Q02    003PRSWM1
0218012710999992000010413504+63470+010930FM-15+0017ENVA V0202901N012910045019N0112651N1+00301+00201999999ADDGA1021+001509999GA2071+004509099GF107991999999999999999999MA1099191999999MW1801MW2851REMMET086ENVA 041350Z 29025KT 9999 -SHRASN FEW005 BKN015CB 03/02 Q0992 TEMPO 3000 SHRASN VV010;EQDQ01+000003PRSWM1Q02    003PRSWM1
0217012710999992000010414504+63470+010930FM-15+0017ENVA V0203001N012310045019N0080001N1+00301+00201999999ADDGA1021+003609099GA2071+004509999GF107991999999999999999999MA1099391999999MW1811MW2851REMMET085ENVA 041450Z 30024KT 8000 SHRASN SCT012CB BKN015 03/02 Q0994 TEMPO 3000 SHRASN VV010;EQDQ01+000003PRSWM1Q02    003PRSWM1
0193012710999992000010415004+63470+010930FM-12+0017ENVA V0203001N00621001201CN0080001N1+00291+00151099411ADDAY181031AY221031GA1031+003609039GF108991071031001501999999MA1999999099171MD1210531+9999MW1831REMSYN088AAXX  04154 01271 41258 83012 10029 20015 39917 49941 52053 78382 873// 333 83312 85815;
0171012710999992000010416204+63470+010930FM-15+0017ENVA V0202701N011312200019N0112651N1+00401+00101999999ADDGA1021+004509029GA2021+007509999GF104991999999999999999999MA1099491999999MW1001REMMET061ENVA 041620Z 27022KT 9999 FEW015TCU SCT025 04/01 Q0995 NOSIG;EQDQ01+000000PRSWM2
0213012710999992000010416504+63470+010930FM-15+0017ENVA V0202801N012310075019N0112651N1+00301+00101999999ADDGA1021+002109999GA2021+005409999GA3071+007509999GF107991999999999999999999MA1099591999999MW1801REMMET071ENVA 041650Z 28024KT 9999 -SHRA FEW007 SCT018 BKN025 03/01 Q0996 NOSIG;EQDQ01+000003PRSWM1Q02    003PRSWM1
0220012710999992000010417504+63470+010930FM-15+0017ENVA V0202701N007710075019N0112651N1+00301+00201999999ADDGA1021+002409999GA2021+004509999GA3071+007509999GF107991999999999999999999MA1099701999999MW1161REMMET078ENVA 041750Z 27015KT 230V290 9999 VCSH FEW008 SCT015 BKN025 03/02 Q0997 NOSIG;EQDQ01+000003PRSWM1Q02    003PRSWM1
0273012710999992000010418004+63470+010930FM-12+0017ENVA V0202701N003610075019N0250001N1+00341+00181099721ADDAA112007191AY181061AY221061GA1011+002409079GA2031+004509089GA3061+007509089GF107991061081002501061999KA1120M+00651MA1999999099481MD1110311+9999MW1251REMSYN112AAXX  04184 01271 11375 72707 10034 20018 39948 49972 51031 60072 72582 8686/ 333 10065 81708 83815 86825 91125;
0146012710999992000010419204+63470+010930FM-15+0017ENVA V0202601N008212200019N0112651N1+00401-00101999999ADDGA1021+009009999GF104991999999999999999999MA1099801999999MW1001REMMET052ENVA 041920Z 26016KT 9999 SCT030 04/M01 Q0998 NOSIG;EQDQ01+000000PRSWM2
0154012710999992000010419504+63470+010930FM-15+0017ENVA V0202301N006712200019N0112651N1+00401-00101999999ADDGA1021+010509999GF102991999999999999999999MA1099801999999MW1001REMMET060ENVA 041950Z 23013KT 180V260 9999 FEW035 04/M01 Q0998 NOSIG;EQDQ01+000000PRSWM2
0148012710999992000010420504+63470+010930FM-15+0017ENVA V0202001N003112200019N0112651N1+00301-00101999999ADDGA1021+012009999GF102991999999999999999999MA1099801999999MW1001REMMET054ENVA 042050Z 20006KT 140V260 9999 FEW040 03/M01 Q0998;EQDQ01+000000PRSWM2
0187012710999992000010421004+63470+010930FM-12+0017ENVA V0202001N001512200019N0400001N1+00271-00111099861ADDAY101031AY201031GA1011+012009059GF102991011051012501001011MA1999999099621MD1010141+9999MW1011REMSYN082AAXX  04214 01271 41682 22003 10027 21011 39962 49986 50014 70100 81501 333 81640;
0171012710999992000010421504+63470+010930FM-15+0017ENVA V0201701N002612200019N0112651N1+00101-00201999999ADDGA1021+015009999GA2021+030009999GF104991999999999999999999MA1099801999999MW1001REMMET061ENVA 042150Z 17005KT 120V210 9999 FEW050 SCT100 01/M02 Q0998;EQDQ01+000000PRSWM2
0148012710999992000010422504+63470+010930FM-15+0017ENVA V0201601N002612200019N0112651N1+00101-00201999999ADDGA1021+015009999GF102991999999999999999999MA1099801999999MW1001REMMET054ENVA 042250Z 16005KT 080V240 9999 FEW050 01/M02 Q0998;EQDQ01+000000PRSWM2
0093012710999992000010423504+63470+010930FM-15+0017ENVA V0209999999999220001CN0099001N1+00001-00201999999ADDMA1099901999999MW1001REMMET041ENVA 042350Z VRB03KT CAVOK M00/M02 Q0999;EQDQ01+000000PRSWM2
0204012710999992000010500004+63470+010930FM-12+0017ENVA V0209999V000510360019N0450001N1-00021-00251099921ADDAA106000021AY111061AY201061GA1061+036009049GF106991061001999999011999MA1999999099671MD1210051+9999MW1031REMSYN088AAXX  05004 01271 31983 69901 11002 21025 39967 49992 52005 70310 8601/ 333 86462 91114;
0093012710999992000010500504+63470+010930FM-15+0017ENVA V0200501N00151220001CN0099001N1+00001-00301999999ADDMA1099901999999MW1001REMMET041ENVA 050050Z 05003KT CAVOK M00/M03 Q0999;EQDQ01+000000PRSWM2
0187012710999992000010503004+63470+010930FM-12+0017ENVA V0201201N003112200019N0500001N1+00141-00491099731ADDAY111031AY201031GA1021+036009079GF104991021001999999031081MA1999999099491MD1810181+9999MW1031REMSYN082AAXX  05034 01271 41984 41206 10014 21049 39949 49973 58018 70310 82038 333 82362;
0100012710999992000010503504+63470+010930FM-15+0017ENVA V0201001N00621220001CN0099001N1+00101-00501999999ADDMA1099591999999MW1001REMMET048ENVA 050350Z 10012KT 070V130 CAVOK 01/M05 Q0996;EQDQ01+000000PRSWM2
0092012710999992000010504504+63470+010930FM-15+0017ENVA V0200801N00411220001CN0099001N1+00201-00701999999ADDMA1099491999999MW1001REMMET040ENVA 050450Z 08008KT CAVOK 02/M07 Q0995;EQDQ01+000000PRSWM2
0098012710999992000010505504+63470+010930FM-15+0017ENVA V0201001N00261220001CN0099001N1+00201-00701999999ADDMA1099491999999MW1001REMMET046ENVA 050550Z 10005KT CAVOK 02/M07 Q0995 NOSIG;EQDQ01+000000PRSWM2
0287012710999992000010506004+63470+010930FM-12+0017ENVA V0201001N001012200019N0550001N1+00191-00691099591ADDAA106000091AJ199992999999999AY111061AY201061GA1021+030009039GF103991021001999999031081IA1259KA1120N-00051MA1999999099351MD1610141+9999MW1021REMSYN100AAXX  05064 01271 31985 31002 10019 21069 39935 49959 56014 70210 82038 333 21005 41998 82360 91108;EQDQ01  00002PRCP06Q02  09972SNDP  
0098012710999992000010506504+63470+010930FM-15+0017ENVA V0209999999999220001CN0099001N1+00301-00701999999ADDMA1099591999999MW1001REMMET046ENVA 050650Z VRB03KT CAVOK 03/M07 Q0996 NOSIG;EQDQ01+000000PRSWM2
0098012710999992000010507504+63470+010930FM-15+0017ENVA V0209999999999220001CN0099001N1+00301-00601999999ADDMA1099701999999MW1001REMMET046ENVA 050750Z VRB02KT CAVOK 03/M06 Q0997 NOSIG;EQDQ01+000000PRSWM2
0177012710999992000010508504+63470+010930FM-15+0017ENVA V0201401N004110240019N0112651N1+00301-00401999999ADDGA1021+007509999GA2071+024009999GF107991999999999999999999MA1099801999999MW1001REMMET067ENVA 050850Z 14008KT 120V200 9999 SCT025 BKN080 03/M04 Q0998 NOSIG;EQDQ01+000000PRSWM2
0193012710999992000010509004+63470+010930FM-12+0017ENVA V0201401N00211030001CN0600001N1+00301-00411099731ADDAY121031AY211031GA1031+007509069GF107991031051008001071999MA1999999099591MD1210241+9999MW1031REMSYN088AAXX  05094 01271 41586 71404 10030 21041 39959 49973 52024 70321 8357/ 333 83625 87458;
0169012710999992000010509504+63470+010930FM-15+0017ENVA V02099999999990240019N0112651N1+00301-00401999999ADDGA1021+010509999GA2071+024009999GF107991999999999999999999MA1099801999999MW1001REMMET059ENVA 050950Z VRB05KT 9999 FEW035 BKN080 03/M04 Q0998 NOSIG;EQDQ01+000000PRSWM2
0098012710999992000010510504+63470+010930FM-15+0017ENVA V0200801N00211220001CN0099001N1+00301-00301999999ADDMA1099901999999MW1001REMMET046ENVA 051050Z 08004KT CAVOK 03/M03 Q0999 NOSIG;EQDQ01+000000PRSWM2
0106012710999992000010511504+63470+010930FM-15+0017ENVA V0201001N00211220001CN0099001N1+00301-00401999999ADDMA1099901999999MW1001REMMET054ENVA 051150Z 10004KT 070V150 CAVOK 03/M04 Q0999 NOSIG;EQDQ01+000000PRSWM2
0245012710999992000010512004+63470+010930FM-12+0017ENVA V0201001N001010600019N0600001N1+00331-00361099941ADDAA106000091AY121061AY211061GA1031+024009039GA2051+060009009GF106991031001022501041021MA1999999099701MD1010111+9999MW1011REMSYN094AAXX  05124 01271 31886 61002 10033 21036 39970 49994 50011 70121 83042 333 83358 85070 91107;EQDQ01  00002PRCP06
0106012710999992000010512504+63470+010930FM-15+0017ENVA V0200801N00211220001CN0099001N1+00301-00501999999ADDMA1099901999999MW1001REMMET054ENVA 051250Z 08004KT 050V140 CAVOK 03/M05 Q0999 NOSIG;EQDQ01+000000PRSWM2
0106012710999992000010513504+63470+010930FM-15+0017ENVA V0201201N00211220001CN0099001N1+00301-00501999999ADDMA1100001999999MW1001REMMET054ENVA 051350Z 12004KT 080V160 CAVOK 03/M05 Q1000 NOSIG;EQDQ01+000000PRSWM2
0106012710999992000010514504+63470+010930FM-15+0017ENVA V0200801N00211220001CN0099001N1+00201-00601999999ADDMA1099901999999MW1001REMMET054ENVA 051450Z 08004KT 360V140 CAVOK 02/M06 Q0999 NOSIG;EQDQ01+000000PRSWM2
0193012710999992000010515004+63470+010930FM-12+0017ENVA V0200801N00101075001CN0600001N1+00241-00571099981ADDAY121031AY221031GA1021+024009039GF105991021001022501041021MA1999999099741MD1210041+9999MW1031REMSYN088AAXX  05154 01271 41886 50802 10024 21057 39974 49998 52004 70322 82042 333 82358 85070;
0106012710999992000010515504+63470+010930FM-15+0017ENVA V0200701N00361220001CN0099001N1+00301-00601999999ADDMA1099901999999MW1001REMMET054ENVA 051550Z 07007KT 050V120 CAVOK 03/M06 Q0999 NOSIG;EQDQ01+000000PRSWM2
0117012710999992000010516504+63470+010930FM-15+0017ENVA V0201301N00411220001CN0099001N1+00301-00501999999ADDMA1099801999999MW1001REMMET065ENVA 051650Z 13008KT 090V170 CAVOK 03/M05 Q0998 TEMPO 15015G25KT;EQDQ01+000000PRSWM2
0117012710999992000010517504+63470+010930FM-15+0017ENVA V0201301N00571220001CN0099001N1+00301-00601999999ADDMA1099801999999MW1001REMMET065ENVA 051750Z 13011KT 090V160 CAVOK 03/M06 Q0998 TEMPO 16015G25KT;EQDQ01+000000PRSWM2
0117012710999992000010518504+63470+010930FM-15+0017ENVA V0201401N00571220001CN0099001N1+00401-00601999999ADDMA1099701999999MW1001REMMET065ENVA 051850Z 14011KT 110V180 CAVOK 04/M06 Q0997 TEMPO 16015G25KT;EQDQ01+000000PRSWM2
0098012710999992000010520504+63470+010930FM-15+0017ENVA V0201401N007212200019N0070001N1+99999+99999999999ADDMW1001REMMET061ENVA 052050Z 14014KT 070V18 9999 SCT050 BKN080 04/M03 Q0994 ;EQDQ01+000000PRSWM2
0193012710999992000010521004+63470+010930FM-12+0017ENVA V0201401N00361030001CN0500001N1+00351-00311099451ADDAY171031AY221031GA1031+015009069GF107991031051017501071999MA1999999099211MD1710371+9999MW1231REMSYN088AAXX  05214 01271 41784 71407 10035 21031 39921 49945 57037 72372 8357/ 333 83650 85358;
0171012710999992000010521504+63470+010930FM-15+0017ENVA V0201401N005110210019N0112651N1+00501-00301999999ADDGA1021+015009999GA2071+021009999GF107991999999999999999999MA1099291999999MW1001REMMET061ENVA 052150Z 14010KT 120V190 9999 SCT050 BKN070 05/M03 Q0993;EQDQ01+000000PRSWM2
0111012710999992000010601504+63470+010930FM-15+0017ENVA V0201701N01031220001CN0099001N1+00601-00201999999ADDMA1098921999999MW1001OC101851REMMET051ENVA 060150Z 17020G36KT 120V210 CAVOK 06/M02 Q0989;EQDQ01+000000PRSWM2
0111012710999992000010602504+63470+010930FM-15+0017ENVA V0201701N00981220001CN0099001N1+00701-00101999999ADDMA1098711999999MW1001OC101651REMMET051ENVA 060250Z 17019G32KT 090V220 CAVOK 07/M01 Q0987;EQDQ01+000000PRSWM2
0193012710999992000010603004+63470+010930FM-12+0017ENVA V0201701N00461075001CN0600001N1+00701-00081098781ADDAY121031AY221031GA1031+021009039GF107991021001022501071071MA1999999098541MD1710291+9999MW1021REMSYN088AAXX  06034 01271 41886 71709 10070 21008 39854 49878 57029 70222 82077 333 83357 86265;
0111012710999992000010603504+63470+010930FM-15+0017ENVA V0201701N00981220001CN0099001N1+00801+00001999999ADDMA1098611999999MW1001OC101541REMMET051ENVA 060350Z 17019G30KT 120V220 CAVOK 08/M00 Q0986;EQDQ01+000000PRSWM2
0110012710999992000010604504+63470+010930FM-15+0017ENVA V0201601N01131220001CN0099001N1+00901+00001999999ADDMA1098511999999MW1001OC101701REMMET050ENVA 060450Z 16022G33KT 130V210 CAVOK 09/00 Q0985;EQDQ01+000000PRSWM2
0116012710999992000010605504+63470+010930FM-15+0017ENVA V0201701N01081220001CN0099001N1+00901+00101999999ADDMA1098411999999MW1001OC101851REMMET056ENVA 060550Z 17021G36KT 120V210 CAVOK 09/01 Q0984 NOSIG;EQDQ01+000000PRSWM2
0251012710999992000010606004+63470+010930FM-12+0017ENVA V0201701N005710600019N0600001N1+00871+00071098441ADDAA112000791AY121061AY221061GA1021+024009039GA2051+060009029GF106991021001022501071071KA1120N+00321MA1999999098211MD1710331+9999MW1011REMSYN106AAXX  06064 01271 11886 61711 10087 20007 39821 49844 57033 69902 70122 82077 333 20032 82358 85270 91121;
0116012710999992000010606504+63470+010930FM-15+0017ENVA V0201701N00931220001CN0099001N1+00901+00101999999ADDMA1098311999999MW1001OC101701REMMET056ENVA 060650Z 17018G33KT 120V220 CAVOK 09/01 Q0983 NOSIG;EQDQ01+000000PRSWM2
0116012710999992000010607504+63470+010930FM-15+0017ENVA V0201701N00981220001CN0099001N1+00901+00101999999ADDMA1098311999999MW1001OC101491REMMET056ENVA 060750Z 17019G29KT 140V220 CAVOK 09/01 Q0983 NOSIG;EQDQ01+000000PRSWM2
0210012710999992000010608504+63470+010930FM-15+0017ENVA V0201701N008710600019N0112651N1+00901+00101999999ADDGA1021+015009999GA2021+024009999GA3071+060009999GF107991999999999999999999MA1098311999999MW1001OC101701REMMET076ENVA 060850Z 17017G33KT 130V220 9999 FEW050 SCT080 BKN200 09/01 Q0983 NOSIG;EQDQ01+000000PRSWM2
0215012710999992000010609004+63470+010930FM-12+0017ENVA V0201701N00411075001CN0500001N1+00901+00091098381ADDAY121031AY221031GA1021+015009069GA2031+024009039GF105991021051017501041021MA1999999098151MD1710061+9999MW1021REMSYN094AAXX  06094 01271 41784 51708 10090 20009 39815 49838 57006 70222 82542 333 82650 83358 85070;
0187012710999992000010609504+63470+010930FM-15+0017ENVA V0201801N007212200019N0112651N1+01001+00101999999ADDGA1021+015009999GA2021+027009999GF104991999999999999999999MA1098211999999MW1001OC101291REMMET069ENVA 060950Z 18014G25KT 140V230 9999 FEW050 SCT090 10/01 Q0982 NOSIG;EQDQ01+000000PRSWM2
0187012710999992000010610504+63470+010930FM-15+0017ENVA V0201701N007212200019N0112651N1+00901+00101999999ADDGA1021+015009999GA2021+027009999GF104991999999999999999999MA1098211999999MW1001OC101541REMMET069ENVA 061050Z 17014G30KT 130V230 9999 FEW050 SCT090 09/01 Q0982 NOSIG;EQDQ01+000000PRSWM2
0187012710999992000010611504+63470+010930FM-15+0017ENVA V0201801N009312200019N0112651N1+00901+00101999999ADDGA1021+015009999GA2021+027009999GF104991999999999999999999MA1098101999999MW1001OC101591REMMET069ENVA 061150Z 18018G31KT 140V230 9999 FEW050 SCT090 09/01 Q0981 NOSIG;EQDQ01+000000PRSWM2
0261012710999992000010612004+63470+010930FM-12+0017ENVA V0201801N004612200019N0600001N1+00931+00081098131ADDAA106000091AY121061AY211061GA1011+015009069GA2031+027009039GF199999011051017501041021MA1999999097901MD1710251+9999MW1011REMSYN094AAXX  06124 01271 31786 21809 10093 20008 39790 49813 57025 70121 81542 333 81650 83359 91120;EQDQ01+000022SCOTCVQ02  00002PRCP06
0195012710999992000010612504+63470+010930FM-15+0017ENVA V0201601N005712200019N0112651N1+00901+00101999999ADDGA1021+015009999GA2021+027009999GF104991999999999999999999MA1098001999999MW1001OC101081REMMET077ENVA 061250Z 16011G21KT 120V220 9999 FEW050 SCT090 09/01 Q0980 BECMG VRB10KT;EQDQ01+000000PRSWM2
0195012710999992000010613504+63470+010930FM-15+0017ENVA V0201501N005712200019N0112651N1+00901+00101999999ADDGA1021+015009999GA2021+027009999GF104991999999999999999999MA1098001999999MW1001OC101081REMMET077ENVA 061350Z 15011G21KT 110V210 9999 FEW050 SCT090 09/01 Q0980 BECMG VRB10KT;EQDQ01+000000PRSWM2
0176012710999992000010614504+63470+010930FM-15+0017ENVA V0201501N004612200019N0112651N1+00901+00101999999ADDGA1021+015009999GA2021+027009999GF104991999999999999999999MA1098001999999MW1001REMMET066ENVA 061450Z 15009KT 9999 FEW050 SCT090 09/01 Q0980 BECMG VRB10KT;EQDQ01+000000PRSWM2
0193012710999992000010615004+63470+010930FM-12+0017ENVA V0201501N00211075001CN0600001N1+00901+00071098031ADDAY121031AY201031GA1011+015009069GF105991011051017501041021MA1999999097801MD1710101+9999MW1031REMSYN088AAXX  06154 01271 41786 51504 10090 20007 39780 49803 57010 70320 81542 333 81650 84359;
0201012710999992000010615504+63470+010930FM-15+0017ENVA V0201701N004610270019N0112651N1+00901+00001999999ADDGA1021+015009999GA2071+027009999GF107991999999999999999999MA1097901999999MW1001REMMET091ENVA 061550Z 17009KT 9999 FEW050 BKN090 09/00 Q0979 TEMPO 25015G25KT -SHRA FEW015CB BKN030;EQDQ01+000000PRSWM2
0248012710999992000010616504+63470+010930FM-15+0017ENVA V0202001N004610270019N0112651N1+01001+00001999999ADDGA1021+009009999GA2021+015009999GA3071+027009999GF107991999999999999999999MA1098001999999MW1801REMMET106ENVA 061650Z 20009KT 160V240 9999 -SHRA FEW030 SCT050 BKN090 10/00 Q0980 BECMG 25018G30KT SCT015CB BKN030;EQDQ01+000003PRSWM1Q02    003PRSWM1
0251012710999992000010617504+63470+010930FM-15+0017ENVA V0202601N010310060019N0112651N1+00501+00301999999ADDGA1021+003009999GA2021+004509099GA3071+006009999GF107991999999999999999999MA1098411999999MW1801OC101541REMMET101ENVA 061750Z 26020G30KT 9999 -SHRA FEW010 FEW015CB BKN020 05/03 Q0984 TEMPO 25025G35KT SHRA BKN015CB;EQDQ01+000003PRSWM1Q02    003PRSWM1
0170012710999992000010619504+63470+010930FM-15+0017ENVA V0202401N006212200019N0112651N1+00401+00001999999ADDGA1021+010509999GF104991999999999999999999MA1098711999999MW1001REMMET076ENVA 061950Z 24012KT 9999 SCT035 04/00 Q0987 TEMPO 25020G30KT SHRA BKN015CB;EQDQ01+000000PRSWM2
0148012710999992000010620504+63470+010930FM-15+0017ENVA V0202101N004612200019N0112651N1+00401-00101999999ADDGA1021+010509999GF102991999999999999999999MA1098711999999MW1001REMMET054ENVA 062050Z 21009KT 160V260 9999 FEW035 04/M01 Q0987;EQDQ01+000000PRSWM2
0187012710999992000010621004+63470+010930FM-12+0017ENVA V0202101N002112200019N0600001N1+00361-00081098761ADDAY181031AY221031GA1011+010509029GF103991021081012501041999MA1999999098521MD1110341+9999MW1011REMSYN082AAXX  06214 01271 41686 32104 10036 21008 39852 49876 51034 70182 8284/ 333 81835;
0148012710999992000010621504+63470+010930FM-15+0017ENVA V0202301N003112200019N0112651N1+00301-00201999999ADDGA1021+009009999GF102991999999999999999999MA1098711999999MW1001REMMET054ENVA 062150Z 23006KT 170V260 9999 FEW030 03/M02 Q0987;EQDQ01+000000PRSWM2
0235012710999992000010623504+63470+010930FM-15+0017ENVA V0202101N006210075019N0070001N1+00301-00101999999ADDGA1021+003009999GA2021+004509999GA3071+007509999GF107991999999999999999999MA1098711999999MW1801MW2851OC101231REMMET079ENVA 062250Z 21012G24KT 150V240 7000 -SHSNRA FEW010 SCT015 BKN025 03/M01 Q0987;EQDQ01+000003PRSWM1Q02    003PRSWM1
0254012710999992000010700004+63470+010930FM-12+0017ENVA V0202201N003610075019N0120001N1+00271+00101098831ADDAA106002091AY181061AY211061GA1011+002409079GA2031+004509089GA3051+007509069GF108991071081002501999999MA1999999098591MD1310071+9999MW1831REMSYN106AAXX  07004 01271 11362 82207 10027 20010 39859 49883 53007 60021 78381 878// 333 81708 83815 85625 91113;
0234012710999992000010700504+63470+010930FM-15+0017ENVA V0202201N007710075019N0112651N1+00301+00101999999ADDGA1021+002409999GA2021+004509999GA3071+007509999GF107991999999999999999999MA1098821999999MW1801MW2851OC101291REMMET078ENVA 062350Z 22015G25KT 190V250 9999 -SHRASN FEW008 SCT015 BKN025 03/01 Q0988;EQDQ01+000003PRSWM1Q02    003PRSWM1
0194012710999992000010701504+63470+010930FM-15+0017ENVA V0202501N012310081019N0112651N1+00501+00101999999ADDGA1021+003609999GA2071+008109999GF107991999999999999999999MA1099191999999MW1161OC101851REMMET060ENVA 070150Z 25024G36KT 9999 VCSH FEW012 BKN027 05/01 Q0992;EQDQ01+000003PRSWM1Q02    003PRSWM1
0180012710999992000010702504+63470+010930FM-15+0017ENVA V0202401N010312200019N0112651N1+00401+00101999999ADDGA1021+004509999GA2021+007509999GF104991999999999999999999MA1099391999999MW1001OC101651REMMET062ENVA 070250Z 24020G32KT 9999 FEW015 SCT025 04/01 Q0994 RERASN;EQDQ01+000000PRSWM2
0228012710999992000010703004+63470+010930FM-12+0017ENVA V0202401N00511009001CN0300001N1+00381+00121099472ADDAY181031AY221031GA1021+004509089GF106991051081004501061999MA1999999099232MD1210641+9999MW1261REMSYN088AAXX  07034 01271 41480 62410 10038 20012 39923 49947 52064 72682 8586/ 333 82815 84625;EQDQ01+099233APOSP Q02+099473APOSLP
0139012710999992000010703504+63470+010930FM-15+0017ENVA V0202501N007712200019N0112651N1+00401+00001999999ADDGA1021+010509999GF102991999999999999999999MA1099491999999MW1001REMMET045ENVA 070350Z 25015KT 9999 FEW035 04/00 Q0995;EQDQ01+000000PRSWM2
0140012710999992000010704504+63470+010930FM-15+0017ENVA V0202401N006212200019N0112651N1+00401-00101999999ADDGA1021+009009999GF102991999999999999999999MA1099491999999MW1001REMMET046ENVA 070450Z 24012KT 9999 FEW030 04/M01 Q0995;EQDQ01+000000PRSWM2
0154012710999992000010705504+63470+010930FM-15+0017ENVA V0201901N002112200019N0112651N1+00301-00101999999ADDGA1021+012009999GF102991999999999999999999MA1099491999999MW1001REMMET060ENVA 070550Z 19004KT 140V250 9999 FEW040 03/M01 Q0995 NOSIG;EQDQ01+000000PRSWM2
0229012710999992000010706004+63470+010930FM-12+0017ENVA V0201901N001012200019N0550001N1+00331-00101099591ADDAA112004191AY181061AY211061GA1011+012009089GF103991011081012501061081KA1120N+00231MA1999999099361MD1010131+9999MW1021REMSYN100AAXX  07064 01271 11685 31902 10033 21010 39936 49959 50013 60042 70281 81868 333 20023 81840 91120;
0098012710999992000010706504+63470+010930FM-15+0017ENVA V0209999999999220001CN0099001N1+00301-00201999999ADDMA1099491999999MW1001REMMET046ENVA 070650Z VRB03KT CAVOK 03/M02 Q0995 NOSIG;EQDQ01+000000PRSWM2
0106012710999992000010707504+63470+010930FM-15+0017ENVA V0200901N00261220001CN0099001N1+00301-00301999999ADDMA1099391999999MW1001REMMET054ENVA 070750Z 09005KT 300V150 CAVOK 03/M03 Q0994 NOSIG;EQDQ01+000000PRSWM2
0106012710999992000010708504+63470+010930FM-15+0017ENVA V0201401N00511220001CN0099001N1+00401-00501999999ADDMA1099191999999MW1001REMMET054ENVA 070850Z 14010KT 110V190 CAVOK 04/M05 Q0992 NOSIG;EQDQ01+000000PRSWM2
0187012710999992000010709004+63470+010930FM-12+0017ENVA V0201201N002110210019N0550001N1+00381-00511099311ADDAY121031AY211031GA1051+021009019GF107991061001022501071061MA1999999099071MD1810291+9999MW1021REMSYN082AAXX  07094 01271 41885 71204 10038 21051 39907 49931 58029 70221 86076 333 85457;
0199012710999992000010709504+63470+010930FM-15+0017ENVA V0201601N006710240019N0112651N1+00501-00601999999ADDGA1021+010509999GA2071+024009999GF107991999999999999999999MA1099091999999MW1001OC101291REMMET081ENVA 070950Z 16013G25KT 110V200 9999 FEW035 BKN080 05/M06 Q0991 TEMPO 17020G35KT;EQDQ01+000000PRSWM2
0194012710999992000010710504+63470+010930FM-15+0017ENVA V0201701N00721000151CN0012001N1+00301-00101999999ADDGA1091+000159999GF109991999999000251999999MA1098981999999MW1731OC101341REMMET076ENVA 071050Z 17014G26KT 120V220 1200 SN VV009 03/M01 Q0990 TEMPO 5000 VV015;EQDQ01+000003PRSWM1Q02    003PRSWM1
0176012710999992000010711504+63470+010930FM-15+0017ENVA V0201501N00571000151CN0020001N1+00201+00001999999ADDGA1091+000159999GF109991999999000251999999MA1098821999999MW1711REMMET066ENVA 071150Z 15011KT 2000E -SN VV010 02/00 Q0988 TEMPO 1500 VV007;EQDQ01+000003PRSWM1Q02    003PRSWM1
0198012710999992000010712004+63470+010930FM-12+0017ENVA V0201501N003110012019N0020001N1+00241+00021098941ADDAA106001091AY171061AY221061GA1091+999999999GF109991091999999999999999MA1999999098701MD1710371+9999MW1711REMSYN082AAXX  07124 01271 11/20 91506 10024 20002 39870 49894 57037 60011 77172 333 91117;
0188012710999992000010712504+63470+010930FM-15+0017ENVA V0201401N004110090019N0112651N1+00401-00201999999ADDGA1021+006009999GA2071+009009999GF107991999999999999999999MA1098611999999MW1001REMMET078ENVA 071250Z 14008KT 110V210 9999 FEW020 BKN030 04/M02 Q0986 TEMPO 5000 VV015;EQDQ01+000000PRSWM2
0199012710999992000010713504+63470+010930FM-15+0017ENVA V0201601N006210210019N0112651N1+00601-00201999999ADDGA1021+013509999GA2071+021009999GF107991999999999999999999MA1098511999999MW1001OC101231REMMET081ENVA 071350Z 16012G24KT 110V220 9999 SCT045 BKN070 06/M02 Q0985 TEMPO 17020G35KT;EQDQ01+000000PRSWM2
0210012710999992000010714504+63470+010930FM-15+0017ENVA V0201701N008210210019N0112651N1+00701-00101999999ADDGA1021+013509999GA2071+021009999GF107991999999999999999999MA1098411999999MW1801OC101341REMMET076ENVA 071450Z 17016G26KT 130V210 9999 -SHRA SCT045 BKN070 07/M01 Q0984 NOSIG;EQDQ01+000003PRSWM1Q02    003PRSWM1
0193012710999992000010715004+63470+010930FM-12+0017ENVA V0201701N00411030001CN0400001N1+00681-00151098481ADDAY181031AY271031GA1041+013509069GF108991041051012501071021MA1999999098261MD1610041+9999MW1801REMSYN088AAXX  07154 01271 41682 81708 10068 21015 39826 49848 56004 78087 84572 333 84645 85357;
0188012710999992000010715504+63470+010930FM-15+0017ENVA V0201701N008210210019N0112651N1+00701-00101999999ADDGA1021+013509999GA2071+021009999GF107991999999999999999999MA1098311999999MW1001OC101651REMMET070ENVA 071550Z 17016G32KT 110V220 9999 SCT045 BKN070 07/M01 Q0983 NOSIG;EQDQ01+000000PRSWM2
0199012710999992000010716504+63470+010930FM-15+0017ENVA V0201201N003610210019N0112651N1+00701-00101999999ADDGA1021+013509999GA2071+021009999GF107991999999999999999999MA1098311999999MW1001OC100871REMMET081ENVA 071650Z 12007G17KT 020V200 9999 FEW045 BKN070 07/M01 Q0983 TEMPO 16015G25KT;EQDQ01+000000PRSWM2
0188012710999992000010717504+63470+010930FM-15+0017ENVA V0201601N006710210019N0112651N1+00701-00101999999ADDGA1021+013509999GA2071+021009999GF107991999999999999999999MA1098211999999MW1001OC101441REMMET070ENVA 071750Z 16013G28KT 120V230 9999 FEW045 BKN070 07/M01 Q0982 NOSIG;EQDQ01+000000PRSWM2
0251012710999992000010718004+63470+010930FM-12+0017ENVA V0201601N003110210019N0400001N1+00711-00091098281ADDAA112001091AY181061AY271061GA1021+013509069GA2051+021009039GF107991021051012501071021KA1120M+00771MA1999999098061MD1710201+9999MW1021REMSYN106AAXX  07184 01271 11682 71606 10071 21009 39806 49828 57020 60012 70287 82572 333 10077 82645 85357 91115;
0188012710999992000010718504+63470+010930FM-15+0017ENVA V0201601N007712200019N0112651N1+00701+00001999999ADDGA1021+013509999GA2021+021009999GF104991999999999999999999MA1098211999999MW1001OC101291REMMET070ENVA 071850Z 16015G25KT 110V210 9999 FEW045 SCT070 07/M00 Q0982 NOSIG;EQDQ01+000000PRSWM2
0116012710999992000010719504+63470+010930FM-15+0017ENVA V0201701N00461220001CN0099001N1+00701+00001999999ADDMA1098211999999MW1001REMMET064ENVA 071950Z 17009KT 110V230 CAVOK 07/00 Q0982 TEMPO 16015G25KT;EQDQ01+000000PRSWM2
0092012710999992000010720504+63470+010930FM-15+0017ENVA V0201401N00721220001CN0099001N1+00801+00001999999ADDMA1098101999999MW1001REMMET040ENVA 072050Z 14014KT CAVOK 08/00 Q0981 ;EQDQ01+000000PRSWM2
0161012710999992000010721004+63470+010930FM-12+0017ENVA V0201401N003612200019N0500001N1+00841+00041098181ADDAY101031AY201031GF103991031001022501071011MA1999999097951MD1710111+9999MW1031REMSYN072AAXX  07214 01271 41884 31407 10084 20004 39795 49818 57011 70300 83071;
0100012710999992000010721504+63470+010930FM-15+0017ENVA V0201401N00511220001CN0099001N1+00901+00101999999ADDMA1098101999999MW1001REMMET048ENVA 072150Z 14010KT 110V200 CAVOK 09/01 Q0981 ;EQDQ01+000000PRSWM2
0111012710999992000010722504+63470+010930FM-15+0017ENVA V0201601N00931220001CN0099001N1+00901+00101999999ADDMA1097901999999MW1001OC101541REMMET051ENVA 072250Z 16018G30KT 100V200 CAVOK 09/01 Q0979 ;EQDQ01+000000PRSWM2
0111012710999992000010723504+63470+010930FM-15+0017ENVA V0201601N00621220001CN0099001N1+00901+00201999999ADDMA1097801999999MW1001OC101181REMMET051ENVA 072350Z 16012G23KT 110V230 CAVOK 09/02 Q0978 ;EQDQ01+000000PRSWM2
0245012710999992000010800004+63470+010930FM-12+0017ENVA V0201601N003112200019N0600001N1+00901+00151097911ADDAA106000091AY111061AY201061GA1011+027009039GA2031+060009009GF104991011001999999071011MA1999999097681MD1710271+9999MW1031REMSYN094AAXX  08004 01271 31986 41606 10090 20015 39768 49791 57027 70310 81071 333 81359 83070 91115;EQDQ01  00002PRCP06
0111012710999992000010800504+63470+010930FM-15+0017ENVA V0201701N00671220001CN0099001N1+00901+00201999999ADDMA1097701999999MW1001OC101181REMMET051ENVA 080050Z 17013G23KT 120V230 CAVOK 09/02 Q0977 ;EQDQ01+000000PRSWM2
0100012710999992000010801504+63470+010930FM-15+0017ENVA V0201601N00821220001CN0099001N1+00901+00201999999ADDMA1097601999999MW1001REMMET048ENVA 080150Z 16016KT 120V210 CAVOK 09/02 Q0976 ;EQDQ01+000000PRSWM2
0111012710999992000010802504+63470+010930FM-15+0017ENVA V0201901N00981220001CN0099001N1+01001+00201999999ADDMA1097601999999MW1001OC101591REMMET051ENVA 080250Z 19019G31KT 140V230 CAVOK 10/02 Q0976 ;EQDQ01+000000PRSWM2
0187012710999992000010803004+63470+010930FM-12+0017ENVA V0201901N004612200019N0600001N1+01001+00191097631ADDAY101031AY201031GA1011+027009079GF102991011001999999041011MA1999999097401MD1710281+9999MW1021REMSYN082AAXX  08034 01271 41986 21909 10100 20019 39740 49763 57028 70200 81041 333 81359;
0185012710999992000010803504+63470+010930FM-15+0017ENVA V0202501N006710090019N0112651N1+00601+00401999999ADDGA1021+006009999GA2071+009009999GF107991999999999999999999MA1097901999999MW1801REMMET059ENVA 080350Z 25013KT 9999 -SHRA FEW020 BKN030 06/04 Q0979 ;EQDQ01+000003PRSWM1Q02    003PRSWM1
0163012710999992000010804504+63470+010930FM-15+0017ENVA V0201201N002610150019N0112651N1+00601+00301999999ADDGA1021+007509999GA2071+015009999GF107991999999999999999999MA1097801999999MW1001REMMET053ENVA 080450Z 12005KT 9999 FEW025 BKN050 06/03 Q0978 ;EQDQ01+000000PRSWM2
0210012710999992000010805504+63470+010930FM-15+0017ENVA V0203301N004110075019N0112651N1+00501+00301999999ADDGA1021+004509099GA2071+007509999GF107991999999999999999999MA1097901999999MW1801OC101231REMMET076ENVA 080550Z 33008G24KT 9999 -SHRA FEW015CB BKN025 05/03 Q0979 TEMPO BKN015;EQDQ01+000003PRSWM1Q02    003PRSWM1
0251012710999992000010806004+63470+010930FM-12+0017ENVA V0203301N002110075019N0400001N1+00461+00261097941ADDAA112002091AY181061AY211061GA1021+004509099GA2051+007509089GF108991071091008001999999KA1120N+00461MA1999999097701MD1310301+9999MW1801REMSYN106AAXX  08064 01271 11582 83304 10046 20026 39770 49794 53030 60022 78081 879// 333 20046 82915 85825 91119;
0169012710999992000010806504+63470+010930FM-15+0017ENVA V0202301N002610180019N0112651N1+00401+00201999999ADDGA1021+004509999GA2071+018009999GF107991999999999999999999MA1097901999999MW1001REMMET059ENVA 080650Z 23005KT 9999 FEW015 BKN060 04/02 Q0979 NOSIG ;EQDQ01+000000PRSWM2
0146012710999992000010807504+63470+010930FM-15+0017ENVA V0201701N002112200019N0112651N1+00301+00101999999ADDGA1021+006009999GF102991999999999999999999MA1097901999999MW1001REMMET052ENVA 080750Z 17004KT 9999 FEW020 03/01 Q0979 NOSIG ;EQDQ01+000000PRSWM2
0146012710999992000010808504+63470+010930FM-15+0017ENVA V0201001N002612200019N0112651N1+00301+00101999999ADDGA1021+006009999GF102991999999999999999999MA1097901999999MW1001REMMET052ENVA 080850Z 10005KT 9999 FEW020 03/01 Q0979 NOSIG ;EQDQ01+000000PRSWM2
0187012710999992000010809004+63470+010930FM-12+0017ENVA V0201001N001012200019N0600001N1+00271+00091097951ADDAY181031AY201031GA1011+006009029GF102991011011008001061001MA1999999097731MD1010031+9999MW1021REMSYN082AAXX  08094 01271 41586 21002 10027 20009 39773 49795 50003 70280 81160 333 81820;
0099012710999992000010809504+63470+010930FM-15+0017ENVA V0201201N00261220001CN0099001N1+00401+00001999999ADDMA1097801999999MW1001REMMET047ENVA 080950Z 12005KT CAVOK 04/M00 Q0978 NOSIG ;EQDQ01+000000PRSWM2
0099012710999992000010810504+63470+010930FM-15+0017ENVA V0200901N00361220001CN0099001N1+00601-00301999999ADDMA1097701999999MW1001REMMET047ENVA 081050Z 09007KT CAVOK 06/M03 Q0977 NOSIG ;EQDQ01+000000PRSWM2
0109012710999992000010811504+63470+010930FM-15+0017ENVA V0201501N00261220001CN0099001N1+00601-00301999999ADDMA1097701999999MW1001REMMET057ENVA 081150Z 15005KT CAVOK 06/M03 Q0977 TEMPO 17015G25KT;EQDQ01+000000PRSWM2
0188012710999992000010812004+63470+010930FM-12+0017ENVA V0201501N001012200019N0600001N1+00611-00331097741ADDAA106000591AY181061AY201061GF102991021001022501061011MA1999999097521MD1710211+9999MW1031REMSYN088AAXX  08124 01271 11886 21502 10061 21033 39752 49774 57021 69941 70380 82061 333 91112;
0176012710999992000010812504+63470+010930FM-15+0017ENVA V0202001N007212200019N0112651N1+00801-00401999999ADDGA1021+013509999GF102991999999999999999999MA1097701999999MW1001OC101291REMMET074ENVA 081250Z 20014G25KT 150V250 9999 FEW045 08/M04 Q0977 TEMPO 23020G35KT;EQDQ01+000000PRSWM2
0216012710999992000010813504+63470+010930FM-15+0017ENVA V0202001N006712200019N0112651N1+00801-00201999999ADDGA1021+007509999GA2021+010509999GF104991999999999999999999MA1097701999999MW1001REMMET106ENVA 081350Z 20013KT 150V260 9999 FEW025 SCT035 08/M02 Q0977 TEMPO 24020G35KT 5000 SHRAGS SCT015CB BKN025;EQDQ01+000000PRSWM2
0182012710999992000010814504+63470+010930FM-15+0017ENVA V0202001N007712200019N0112651N1+00801-00201999999ADDGA1021+007509999GA2021+010509999GF104991999999999999999999MA1097801999999MW1001OC101701REMMET064ENVA 081450Z 20015G33KT 160V260 9999 FEW025 SCT035 08/M02 Q0978;EQDQ01+000000PRSWM2
0193012710999992000010815004+63470+010930FM-12+0017ENVA V0202001N003612200019N0400001N1+00821-00171097811ADDAY111031AY201031GA1021+007509089GF104991041081008001061011MA1999999097581MD1210051+9999MW1021REMSYN088AAXX  08154 01271 41582 42007 10082 21017 39758 49781 52005 70210 84861 333 82825 84635;
0203012710999992000010815504+63470+010930FM-15+0017ENVA V0202101N008710240019N0112651N1+00701+00101999999ADDGA1021+009009999GA2071+024009999GF107991999999999999999999MA1097901999999MW1801OC101391REMMET069ENVA 081550Z 21017G27KT 160V250 9999 -SHRA SCT030 BKN080 07/01 Q0979;EQDQ01+000003PRSWM1Q02    003PRSWM1
0192012710999992000010816504+63470+010930FM-15+0017ENVA V0202301N004610075019N0112651N1+00601+00201999999ADDGA1021+005109999GA2071+007509999GF107991999999999999999999MA1098101999999MW1801REMMET066ENVA 081650Z 23009KT 200V260 9999 -SHRA FEW017 BKN025 06/02 Q0981;EQDQ01+000003PRSWM1Q02    003PRSWM1
0215012710999992000010817504+63470+010930FM-15+0017ENVA V0202201N004610120019N0112651N1+00601+00201999999ADDGA1021+005109999GA2021+007509999GA3071+012009999GF107991999999999999999999MA1098211999999MW1801REMMET073ENVA 081750Z 22009KT 160V270 9999 -SHRA FEW017 SCT025 BKN040 06/02 Q0982;EQDQ01+000003PRSWM1Q02    003PRSWM1
0273012710999992000010818004+63470+010930FM-12+0017ENVA V0202201N002110120019N0400001N1+00571+00221098221ADDAA112001091AY181061AY211061GA1011+005109089GA2031+007509089GA3051+012009069GF107991061081004501061999KA1120M+00831MA1999999097991MD1210381+9999MW1801REMSYN112AAXX  08184 01271 11482 72204 10057 20022 39799 49822 52038 69992 78081 8686/ 333 10083 81817 83825 85640 91118;
0215012710999992000010818504+63470+010930FM-15+0017ENVA V0201901N002110120019N0112651N1+00501+00201999999ADDGA1021+004509999GA2021+007509999GA3071+012009999GF107991999999999999999999MA1098311999999MW1801REMMET073ENVA 081850Z 19004KT 110V260 9999 -SHRA FEW015 SCT025 BKN040 05/02 Q0983;EQDQ01+000003PRSWM1Q02    003PRSWM1
0192012710999992000010819504+63470+010930FM-15+0017ENVA V0202401N008210075019N0112651N1+00601+00201999999ADDGA1021+005109999GA2071+007509999GF107991999999999999999999MA1098511999999MW1801REMMET066ENVA 081950Z 24016KT 210V270 9999 -SHRA SCT017 BKN025 06/02 Q0985;EQDQ01+000003PRSWM1Q02    003PRSWM1
0162012710999992000010820504+63470+010930FM-15+0017ENVA V0202301N007710090019N0112651N1+00601+00201999999ADDGA1021+005409999GA2071+009009999GF107991999999999999999999MA1098711999999MW1001REMMET052ENVA 082050Z 23015KT 9999 SCT018 BKN030 06/02 Q0987;EQDQ01+000000PRSWM2
0193012710999992000010821004+63470+010930FM-12+0017ENVA V0202301N003610090019N0400001N1+00551+00181098731ADDAY181031AY281031GA1031+005409089GF107991061081004501061999MA1999999098491MD1210501+9999MW1251REMSYN088AAXX  08214 01271 41482 72307 10055 20018 39849 49873 52050 72588 8686/ 333 83818 85830;
0162012710999992000010821504+63470+010930FM-15+0017ENVA V0202401N004112200019N0112651N1+00501+00101999999ADDGA1021+005409999GA2021+009009999GF104991999999999999999999MA1098921999999MW1001REMMET052ENVA 082150Z 24008KT 9999 FEW018 SCT030 05/01 Q0989;EQDQ01+000000PRSWM2
0162012710999992000010822504+63470+010930FM-15+0017ENVA V0202301N004612200019N0112651N1+00501+00001999999ADDGA1021+005409999GA2021+012009999GF104991999999999999999999MA1098981999999MW1001REMMET052ENVA 082250Z 23009KT 9999 FEW018 SCT040 05/00 Q0990;EQDQ01+000000PRSWM2
0173012710999992000010823504+63470+010930FM-15+0017ENVA V0202201N005110120019N0112651N1+00501+00001999999ADDGA1021+005409999GA2071+012009999GF107991999999999999999999MA1098981999999MW1001OC101031REMMET055ENVA 082350Z 22010G20KT 9999 FEW018 BKN040 05/00 Q0990;EQDQ01+000000PRSWM2
0232012710999992000010900004+63470+010930FM-12+0017ENVA V0202201N002610120019N0400001N1+00531+00001099051ADDAA106000591AY181061AY221061GA1021+005409089GA2051+012009069GF106991051081004501061999MA1999999098821MD1210331+9999MW1031REMSYN100AAXX  09004 01271 11482 62205 10053 20000 39882 49905 52033 69941 70382 8586/ 333 82818 85640 91111;
0184012710999992000010900504+63470+010930FM-15+0017ENVA V02099999999990090019N0112651N1+00501+00101999999ADDGA1021+005409999GA2071+009009999GF107991999999999999999999MA1099091999999MW1801REMMET058ENVA 090050Z VRB02KT 9999 -SHRA SCT018 BKN030 05/01 Q0991;EQDQ01+000003PRSWM1Q02    003PRSWM1
0162012710999992000010901504+63470+010930FM-15+0017ENVA V0202401N003610120019N0112651N1+00501+00101999999ADDGA1021+003609999GA2071+012009999GF107991999999999999999999MA1099091999999MW1001REMMET052ENVA 090150Z 24007KT 9999 FEW012 BKN040 05/01 Q0991;EQDQ01+000000PRSWM2
0162012710999992000010902504+63470+010930FM-15+0017ENVA V0202401N007210180019N0112651N1+00501+00001999999ADDGA1021+004509999GA2071+018009999GF107991999999999999999999MA1099191999999MW1001REMMET052ENVA 090250Z 24014KT 9999 FEW015 BKN060 05/00 Q0992;EQDQ01+000000PRSWM2
0193012710999992000010903004+63470+010930FM-12+0017ENVA V0202401N00361030001CN0300001N1+00541+00051099251ADDAY181031AY221031GA1021+004509069GF106991031081004501061999MA1999999099021MD1210201+9999MW1011REMSYN088AAXX  09034 01271 41480 62407 10054 20005 39902 49925 52020 70182 8386/ 333 82615 85356;
0174012710999992000010903504+63470+010930FM-15+0017ENVA V0202401N006710150019N0112651N1+00601+00001999999ADDGA1021+004509999GA2071+015009999GF107991999999999999999999MA1099291999999MW1001OC101181REMMET056ENVA 090350Z 24013G23KT 9999 FEW015 BKN050 06/M00 Q0993;EQDQ01+000000PRSWM2
0185012710999992000010904504+63470+010930FM-15+0017ENVA V0202501N008210090019N0112651N1+00401+00101999999ADDGA1021+003609099GA2071+009009999GF107991999999999999999999MA1099391999999MW1161REMMET059ENVA 090450Z 25016KT 9999 VCSH SCT012CB BKN030 04/01 Q0994;EQDQ01+000003PRSWM1Q02    003PRSWM1
0223012710999992000010907204+63470+010930FM-15+0017ENVA V0202301N003110240019N0112651N1+00501+00101999999ADDGA1021+005109999GA2021+009009999GA3071+024009999GF107991999999999999999999MA1099591999999MW1001REMMET097ENVA 090720Z 23006KT 9999 FEW017 SCT030 BKN080 05/01 Q0996 TEMPO 26015G25KT 5000 SHRASN BKN015CB;EQDQ01+000000PRSWM2
0229012710999992000010907504+63470+010930FM-15+0017ENVA V0202101N002610240019N0112651N1+00501-00101999999ADDGA1021+004509999GA2021+007509999GA3071+024009999GF107991999999999999999999MA1099701999999MW1001REMMET103ENVA 090750Z 21005KT 160V260 9999 FEW015 SCT025 BKN080 05/M01 Q0997 TEMPO 26015G25KT 3000 SHRASN VV010;EQDQ01+000000PRSWM2
0236012710999992000010908504+63470+010930FM-15+0017ENVA V0202401N003610075019N0112651N1+00501-00101999999ADDGA1021+004509999GA2071+007509999GF107991999999999999999999MA1099801999999MW1801MW2851REMMET104ENVA 090850Z 24007KT 180V260 9999 -SHRASN SCT015 BKN025 05/M01 Q0998 TEMPO 26015G25KT 3000 SHRASN VV010;EQDQ01+000003PRSWM1Q02    003PRSWM1
0193012710999992000010909004+63470+010930FM-12+0017ENVA V0202401N00151009001CN0200001N1+00511-00071099811ADDAY181031AY221031GA1031+004509089GF108991071081004501999999MA1999999099581MD1210311+9999MW1831REMSYN088AAXX  09094 01271 41470 82403 10051 21007 39958 49981 52031 78382 878// 333 83815 86825;
0232012710999992000010909504+63470+010930FM-15+0017ENVA V0202401N006210060019N0112651N1+00401+00201999999ADDGA1021+003609999GA2021+004509999GA3071+006009999GF107991999999999999999999MA1100001999999MW1801REMMET090ENVA 090950Z 24012KT 9999 -SHRA FEW012 SCT015 BKN020 04/02 Q1000 TEMPO 5000 SHRASN BKN015;EQDQ01+000003PRSWM1Q02    003PRSWM1
0248012710999992000010910504+63470+010930FM-15+0017ENVA V0202401N007210060019N0112651N1+00401+00201999999ADDGA1021+002109999GA2021+004509999GA3071+006009999GF107991999999999999999999MA1100101999999MW1801MW2851REMMET100ENVA 091050Z 24014KT 210V270 9999 -SHRASN FEW007 SCT015 BKN020 04/02 Q1001 TEMPO 5000 SHRASN BKN015;EQDQ01+000003PRSWM1Q02    003PRSWM1
0187012710999992000010911504+63470+010930FM-15+0017ENVA V0202301N006712200019N0112651N1+00401+00101999999ADDGA1021+003609999GA2021+006009999GF104991999999999999999999MA1100201999999MW1001REMMET077ENVA 091150Z 23013KT 9999 FEW012 SCT020 04/01 Q1002 TEMPO 5000 SHRASN BKN015;EQDQ01+000000PRSWM2
0232012710999992000010912004+63470+010930FM-12+0017ENVA V0202301N003112200019N0400001N1+00411+00111100251ADDAA106000891AY181061AY221061GA1021+003609089GA2031+006009089GF104991031081004501061021MA1999999100011MD1210431+9999MW1231REMSYN100AAXX  09124 01271 11482 42306 10041 20011 30001 40025 52043 69971 72382 83862 333 82812 83820 91110;
0178012710999992000010912504+63470+010930FM-15+0017ENVA V0202301N006712200019N0112651N1+00401+00101999999ADDGA1021+004509099GA2021+006909999GF104991999999999999999999MA1100311999999MW1001REMMET068ENVA 091250Z 23013KT 180V270 9999 FEW015CB SCT023 04/01 Q1003 NOSIG;EQDQ01+000000PRSWM2
0179012710999992000010913504+63470+010930FM-15+0017ENVA V0202301N007712200019N0112651N1+00401+00001999999ADDGA1021+004509999GA2021+007509999GF104991999999999999999999MA1100511999999MW1001OC101341REMMET061ENVA 091350Z 23015G26KT 9999 FEW015 SCT025 04/00 Q1005 NOSIG;EQDQ01+000000PRSWM2
0193012710999992000010914504+63470+010930FM-15+0017ENVA V0202201N006210075019N0112651N1+00501+00101999999ADDGA1021+005409999GA2071+007509999GF107991999999999999999999MA1100611999999MW1801REMMET067ENVA 091450Z 22012KT 170V240 9999 -SHRA FEW018 BKN025 05/01 Q1006 ;EQDQ01+000003PRSWM1Q02    003PRSWM1
0193012710999992000010915004+63470+010930FM-12+0017ENVA V0202201N00311009001CN0400001N1+00461+00051100641ADDAY181031AY221031GA1021+005409089GF107991061081004501061999MA1999999100401MD1210391+9999MW1801REMSYN088AAXX  09154 01271 41482 72206 10046 20005 30040 40064 52039 78082 8686/ 333 82818 85825;
0103012710999992000010915504+63470+010930FM-15+0017ENVA V0202301N00461220001CN0099001N1+99999+99999999999ADDMW1001REMMET066ENVA 091550Z 23009KT 190V260 VCSH 9999 FEW015 BKN025 04/01 Q1007 ;EQDQ01+000000PRSWM2
0184012710999992000010916504+63470+010930FM-15+0017ENVA V0202401N004610054019N0112651N1+00401+00101999999ADDGA1021+003009999GA2071+005409999GF107991999999999999999999MA1100811999999MW1161REMMET058ENVA 091650Z 24009KT 9999 VCSH FEW010 BKN018 04/01 Q1008 ;EQDQ01+000003PRSWM1Q02    003PRSWM1
0185012710999992000010917504+63470+010930FM-15+0017ENVA V0202401N005110060019N0112651N1+00401+00101999999ADDGA1021+004509999GA2071+006009999GF107991999999999999999999MA1100911999999MW1801REMMET059ENVA 091750Z 24010KT 9999 -SHRA FEW015 BKN020 04/01 Q1009 ;EQDQ01+000003PRSWM1Q02    003PRSWM1
0251012710999992000010918004+63470+010930FM-12+0017ENVA V0202401N002610060019N0400001N1+00351+00081100931ADDAA112001091AY181061AY221061GA1021+004509089GA2051+006009089GF107991071081004501999999KA1120M+00551MA1999999100691MD1210291+9999MW1801REMSYN106AAXX  09184 01271 11482 72405 10035 20008 30069 40093 52029 60012 78082 878// 333 10055 82815 85820 91110;
0194012710999992000010918504+63470+010930FM-15+0017ENVA V0202301N005110105019N0112651N1+00401+00101999999ADDGA1021+003609999GA2021+006009999GA3071+010509999GF107991999999999999999999MA1100911999999MW1001REMMET068ENVA 091850Z 23010KT 190V260 9999 FEW012 SCT020 BKN035 04/01 Q1009 ;EQDQ01+000000PRSWM2
0180012710999992000010919504+63470+010930FM-15+0017ENVA V0202601N00931000151CN0050001N1+00201+00001999999ADDGA1091+000159999GF109991999999000251999999MA1101081999999MW1801OC101441REMMET062ENVA 091950Z 26018G28KT 230V300 5000 -SHRA VV012 02/00 Q1011 ;EQDQ01+000003PRSWM1Q02    003PRSWM1
0167012710999992000010920004+63470+010930FM-12+0017ENVA V0202301N003619999999N0200001N1+00231+00131101161ADDAY181999AY221999GA1021+002409079MA1999999100911MD1210201+9999MW1831REMSYN088AAXX  09204 01271 41370 /2307 10023 20013 30091 40116 5202/ 78382 878// 333 82708 86815;
0216012710999992000010920504+63470+010930FM-15+0017ENVA V0202301N007210045019N0112651N1+00201+00101999999ADDGA1021+002409999GA2021+003609999GA3071+004509999GF107991999999999999999999MA1101081999999MW1801MW2851REMMET068ENVA 092050Z 23014KT 9999 -SHRASN FEW008 SCT012 BKN015 02/01 Q1011 ;EQDQ01+000003PRSWM1Q02    003PRSWM1
0215012710999992000010921004+63470+010930FM-12+0017ENVA V0202301N003610036019N0200001N1+00231+00131101161ADDAY181031AY221031GA1021+002409079GA2041+003609079GF108991071081002501999999MA1999999100911MD1210221+9999MW1831REMSYN094AAXX  09214 01271 41370 82307 10023 20013 30091 40116 52022 78382 878// 333 82708 84712 86815;
0194012710999992000010921504+63470+010930FM-15+0017ENVA V0202301N006210075019N0112651N1+00301+00001999999ADDGA1021+003609999GA2021+005109999GA3071+007509999GF107991999999999999999999MA1101191999999MW1001REMMET068ENVA 092150Z 23012KT 190V260 9999 FEW012 SCT017 BKN025 03/00 Q1012 ;EQDQ01+000000PRSWM2
0225012710999992000010922204+63470+010930FM-15+0017ENVA V0202501N007210045019N0080001N1+00301+00001999999ADDGA1021+002409999GA2021+003609099GA3071+004509999GF107991999999999999999999MA1101191999999MW1801MW2851REMMET077ENVA 092220Z 25014KT 210V280 8000 -SHSNRA FEW008 SCT012CB BKN015 03/00 Q1012;EQDQ01+000003PRSWM1Q02    003PRSWM1
0164012710999992000010922504+63470+010930FM-15+0017ENVA V0202301N005712200019N0112651N1+00301+00001999999ADDGA1021+003609999GA2021+004509099GF104991999999999999999999MA1101191999999MW1001REMMET054ENVA 092250Z 23011KT 9999 FEW012 SCT015CB 03/00 Q1012;EQDQ01+000000PRSWM2
0195012710999992000010923504+63470+010930FM-15+0017ENVA V0202201N006710090019N0112651N1+00301+00001999999ADDGA1021+003609999GA2021+005109099GA3071+009009999GF107991999999999999999999MA1101291999999MW1001REMMET069ENVA 092350Z 22013KT 200V260 9999 FEW012 SCT017CB BKN030 03/00 Q1013;EQDQ01+000000PRSWM2
0232012710999992000011000004+63470+010930FM-12+0017ENVA V0202201N00311009001CN0400001N1+00271+00041101391ADDAA106001091AY181061AY281061GA1011+003609089GA2031+005109099GF105991051081004501061021MA1999999101151MD1210231+9999MW1031REMSYN100AAXX  10004 01271 11482 52206 10027 20004 30115 40139 52023 60011 70388 85862 333 81812 83917 91113;
0202012710999992000011001504+63470+010930FM-15+0017ENVA V0202501N008710045019N0112651N1+00301+00101999999ADDGA1021+003009999GA2071+004509099GF107991999999999999999999MA1101491999999MW1801MW2851REMMET070ENVA 100150Z 25017KT 220V280 9999 -SHRASN FEW010 BKN015CB 03/01 Q1015;EQDQ01+000003PRSWM1Q02    003PRSWM1
0215012710999992000011003004+63470+010930FM-12+0017ENVA V0202201N002610030019N0070001N1+00231+00081101571ADDAY181031AY281031GA1021+001509079GA2031+003009079GF108991071091001501999999MA1999999101331MD1210181+9999MW1831REMSYN094AAXX  10034 01271 41257 82205 10023 20008 30133 40157 52018 78388 879// 333 82705 83710 86912;
0225012710999992000011003504+63470+010930FM-15+0017ENVA V0202201N005110036019N0070001N1+00201+00101999999ADDGA1021+001509999GA2021+003009999GA3071+003609099GF107991999999999999999999MA1101491999999MW1801MW2851REMMET077ENVA 100250Z 22010KT 180V250 7000 -SHSNRA FEW005 SCT010 BKN012CB 02/01 Q1015;EQDQ01+000003PRSWM1Q02    003PRSWM1
0225012710999992000011004204+63470+010930FM-15+0017ENVA V0202601N003110060019N0112651N1+00301+00101999999ADDGA1021+003609999GA2021+004509099GA3071+006009999GF107991999999999999999999MA1101491999999MW1801MW2851REMMET077ENVA 100420Z 26006KT 140V300 9999 -SHRASN FEW012 SCT015CB BKN020 03/01 Q1015;EQDQ01+000003PRSWM1Q02    003PRSWM1
0193012710999992000011005204+63470+010930FM-15+0017ENVA V0202101N003110090019N0112651N1+00301+00001999999ADDGA1021+004509999GA2021+005409999GA3071+009009999GF107991999999999999999999MA1101391999999MW1001REMMET067ENVA 100520Z 21006KT 170V260 9999 FEW015 SCT018 BKN030 03/00 Q1014;EQDQ01+000000PRSWM2
0225012710999992000011005504+63470+010930FM-15+0017ENVA V0202401N002610075019N0112651N1+00301+00101999999ADDGA1021+003609999GA2021+004509099GA3071+007509999GF107991999999999999999999MA1101391999999MW1801MW2851REMMET077ENVA 100450Z 24005KT 210V280 9999 -SHRASN FEW012 SCT015CB BKN025 03/01 Q1014;EQDQ01+000000PRSWM2Q02    003PRSWM1
0273012710999992000011006004+63470+010930FM-12+0017ENVA V0202501N001510090019N0400001N1+00361+00001101501ADDAA112003091AY181061AY281061GA1011+004509089GA2031+006009089GA3051+009009069GF107991051081004501061999KA1120N+00141MA1999999101261MD1710061+9999MW1261REMSYN112AAXX  10064 01271 11482 72503 10036 20000 30126 40150 57006 60032 72688 8586/ 333 20014 81815 83820 85630 91112;
0177012710999992000011006504+63470+010930FM-15+0017ENVA V0200701N002110120019N0112651N1+00401-00101999999ADDGA1021+006009999GA2071+012009999GF107991999999999999999999MA1101491999999MW1001REMMET067ENVA 100650Z 07004KT 010V120 9999 FEW020 BKN040 04/M01 Q1015 NOSIG;EQDQ01+000000PRSWM2
0169012710999992000011007504+63470+010930FM-15+0017ENVA V0200901N003610135019N0112651N1+00401-00201999999ADDGA1021+007509999GA2071+013509999GF107991999999999999999999MA1101491999999MW1001REMMET059ENVA 100750Z 09007KT 9999 FEW025 BKN045 04/M02 Q1015 NOSIG;EQDQ01+000000PRSWM2
0200012710999992000011008504+63470+010930FM-15+0017ENVA V0201401N004610300019N0112651N1+00301-00301999999ADDGA1021+009009999GA2021+015009999GA3071+030009999GF107991999999999999999999MA1101391999999MW1001REMMET074ENVA 100850Z 14009KT 080V170 9999 FEW030 SCT050 BKN100 03/M03 Q1014 NOSIG;EQDQ01+000000PRSWM2
0215012710999992000011009004+63470+010930FM-12+0017ENVA V0201401N002110150019N0700001N1+00341-00281101441ADDAY121031AY221031GA1011+009009089GA2041+015009069GF107991051051008001071011MA1999999101201MD1710061+9999MW1021REMSYN094AAXX  10094 01271 41588 71404 10034 21028 30120 40144 57006 70222 85571 333 81830 84650 85360;
0200012710999992000011009504+63470+010930FM-15+0017ENVA V0201101N002610270019N0112651N1+00401-00401999999ADDGA1021+010509999GA2021+015009999GA3071+027009999GF107991999999999999999999MA1101291999999MW1001REMMET074ENVA 100950Z 11005KT 010V240 9999 FEW035 SCT050 BKN090 04/M04 Q1013 NOSIG;EQDQ01+000000PRSWM2
0200012710999992000011010504+63470+010930FM-15+0017ENVA V0200601N002110270019N0112651N1+00401-00301999999ADDGA1021+010509999GA2021+018009999GA3071+027009999GF107991999999999999999999MA1101291999999MW1001REMMET074ENVA 101050Z 06004KT 010V150 9999 FEW035 SCT060 BKN090 04/M03 Q1013 NOSIG;EQDQ01+000000PRSWM2
0200012710999992000011011504+63470+010930FM-15+0017ENVA V0201501N006210270019N0112651N1+00501-00401999999ADDGA1021+010509999GA2021+018009999GA3071+027009999GF107991999999999999999999MA1101191999999MW1001REMMET074ENVA 101150Z 15012KT 110V200 9999 FEW035 SCT060 BKN090 05/M04 Q1012 NOSIG;EQDQ01+000000PRSWM2
0248012710999992000011012004+63470+010930FM-12+0017ENVA V0201501N003110270019N0750001N1+00521-00401101221ADDAA106000021AY121061AY221061GA1011+010509069GA2031+018009069GA3061+027009039GF108991031051012501071999MA1999999100981MD1710221+9999MW1021REMSYN100AAXX  10124 01271 31689 81506 10052 21040 30098 40122 57022 70222 8357/ 333 81635 83656 86359 81122;
0188012710999992000011012504+63470+010930FM-15+0017ENVA V0201401N002610270019N0112651N1+00601-00401999999ADDGA1021+015009999GA2071+027009999GF107991999999999999999999MA1101021999999MW1001OC100981REMMET070ENVA 101250Z 14005G19KT 060V230 9999 FEW050 BKN090 06/M04 Q1010 NOSIG;EQDQ01+000000PRSWM2
0188012710999992000011014204+63470+010930FM-15+0017ENVA V0201601N003610240019N0112651N1+00601-00501999999ADDGA1021+010509999GA2071+024009999GF107991999999999999999999MA1101021999999MW1001REMMET078ENVA 101420Z 16007KT 110V270 9999 SCT035 BKN080 06/M05 Q1010 TEMPO 16015G25KT;EQDQ01+000000PRSWM2
0177012710999992000011014504+63470+010930FM-15+0017ENVA V0201701N007210240019N0112651N1+00601-00401999999ADDGA1021+010509999GA2071+024009999GF107991999999999999999999MA1100911999999MW1001REMMET067ENVA 101450Z 17014KT 130V220 9999 SCT035 BKN080 06/M04 Q1009 NOSIG;EQDQ01+000000PRSWM2
0187012710999992000011015004+63470+010930FM-12+0017ENVA V0201701N003610240019N0750001N1+00591-00441100961ADDAY121031AY221031GA1061+024009079GF107991031051012501071999MA1999999100721MD1710221+9999MW1011REMSYN082AAXX  10154 01271 41689 71707 10059 21044 30072 40096 57022 70122 8357/ 333 86358;
0188012710999992000011015504+63470+010930FM-15+0017ENVA V0201601N008210240019N0112651N1+00601-00301999999ADDGA1021+010509999GA2071+024009999GF107991999999999999999999MA1100811999999MW1001OC101441REMMET070ENVA 101550Z 16016G28KT 110V200 9999 FEW035 BKN080 06/M03 Q1008 NOSIG;EQDQ01+000000PRSWM2
0180012710999992000011016504+63470+010930FM-15+0017ENVA V0201501N007710210019N0112651N1+00501-00201999999ADDGA1021+010509999GA2071+021009999GF107991999999999999999999MA1100711999999MW1001OC101291REMMET062ENVA 101650Z 15015G25KT 9999 FEW035 BKN070 05/M02 Q1007 NOSIG;EQDQ01+000000PRSWM2
0188012710999992000011017504+63470+010930FM-15+0017ENVA V0201601N009310210019N0112651N1+00601-00401999999ADDGA1021+010509999GA2071+021009999GF107991999999999999999999MA1100711999999MW1001OC101441REMMET070ENVA 101750Z 16018G28KT 120V200 9999 FEW035 BKN070 06/M04 Q1007 NOSIG;EQDQ01+000000PRSWM2
0259012710999992000011018004+63470+010930FM-12+0017ENVA V0201601N004610300019N0750001N1+00571-00371100721ADDAA106000091AY121061AY221061GA1021+010509069GF107991021051012501071999KA1120M+00621MA1999999100481MD1710261+9999MW1021OA149900721REMSYN100AAXX  10184 01271 31689 71609 10057 21037 30048 40072 57026 70222 8257/ 333 10062 82635 91114 91114;EQDQ01  00002PRCP06
0169012710999992000011019204+63470+010930FM-15+0017ENVA V0201701N005710180019N0112651N1+00601-00401999999ADDGA1021+009009999GA2071+018009999GF107991999999999999999999MA1100711999999MW1001REMMET059ENVA 101920Z 17011KT 9999 SCT030 BKN060 06/M04 Q1007 NOSIG;EQDQ01+000000PRSWM2
0177012710999992000011019504+63470+010930FM-15+0017ENVA V0201901N003110150019N0112651N1+00701-00301999999ADDGA1021+009009999GA2071+015009999GF107991999999999999999999MA1100711999999MW1001REMMET067ENVA 101950Z 19006KT 140V250 9999 SCT030 BKN050 07/M03 Q1007 NOSIG;EQDQ01+000000PRSWM2
0201012710999992000011020504+63470+010930FM-15+0017ENVA V0202201N005110105019N0112651N1+00701-00201999999ADDGA1021+006009999GA2071+010509999GF107991999999999999999999MA1100811999999MW1801MW2851REMMET069ENVA 102050Z 22010KT 170V270 9999 -SHRASN SCT020 BKN035 07/M02 Q1008;EQDQ01+000003PRSWM1Q02    003PRSWM1
0193012710999992000011021004+63470+010930FM-12+0017ENVA V0202201N00261012001CN0300001N1+00671-00181100841ADDAY121031AY221031GA1031+006009089GF108991071081008001999999MA1999999100601MD1310131+9999MW1831REMSYN088AAXX  10214 01271 41580 82205 10067 21018 30060 40084 53013 78322 878// 333 83820 86635;
0162012710999992000011021504+63470+010930FM-15+0017ENVA V0200701N001510120019N0112651N1+00501+00001999999ADDGA1021+007509999GA2071+012009999GF107991999999999999999999MA1100811999999MW1001REMMET052ENVA 102150Z 07003KT 9999 FEW025 BKN040 05/00 Q1008;EQDQ01+000000PRSWM2
0185012710999992000011022504+63470+010930FM-15+0017ENVA V02099999999990150019N0112651N1+00401+00101999999ADDGA1021+006009999GA2021+009009999GA3071+015009999GF107991999999999999999999MA1100811999999MW1001REMMET059ENVA 102250Z VRB01KT 9999 FEW020 SCT030 BKN050 04/01 Q1008;EQDQ01+000000PRSWM2
0170012710999992000011023504+63470+010930FM-15+0017ENVA V0201901N006210120019N0112651N1+00501+00001999999ADDGA1021+007509999GA2071+012009999GF107991999999999999999999MA1100811999999MW1001REMMET060ENVA 102350Z 19012KT 150V240 9999 FEW025 BKN040 05/00 Q1008;EQDQ01+000000PRSWM2
0232012710999992000011100004+63470+010930FM-12+0017ENVA V0201901N003110120019N0550001N1+00521+00041100861ADDAA106000191AY181061AY221061GA1021+007509089GA2051+012009069GF107991061081008001061999MA1999999100621MD1310021+9999MW1011REMSYN100AAXX  11004 01271 11585 71906 10052 20004 30062 40086 53002 69911 70182 8686/ 333 82825 85640 91113;
0192012710999992000011100504+63470+010930FM-15+0017ENVA V0201901N005710090019N0112651N1+00501+00201999999ADDGA1021+006009999GA2071+009009999GF107991999999999999999999MA1100911999999MW1801REMMET066ENVA 110050Z 19011KT 150V240 9999 -SHRA SCT020 BKN030 05/02 Q1009;EQDQ01+000003PRSWM1Q02    003PRSWM1
0184012710999992000011101504+63470+010930FM-15+0017ENVA V02099999999990090019N0112651N1+00401+00201999999ADDGA1021+006009999GA2071+009009999GF107991999999999999999999MA1100911999999MW1801REMMET058ENVA 110150Z VRB01KT 9999 -SHRA SCT020 BKN030 04/02 Q1009;EQDQ01+000003PRSWM1Q02    003PRSWM1
0170012710999992000011102504+63470+010930FM-15+0017ENVA V0200901N002110090019N0112651N1+00401+00101999999ADDGA1021+006009999GA2071+009009999GF107991999999999999999999MA1100911999999MW1001REMMET060ENVA 110250Z 09004KT 060V120 9999 FEW020 BKN030 04/01 Q1009;EQDQ01+000000PRSWM2
0193012710999992000011103004+63470+010930FM-12+0017ENVA V0200901N00101012001CN0550001N1+00391+00121100971ADDAY181031AY221031GA1021+006009089GF108991061081008001071999MA1999999100731MD1210111+9999MW1251REMSYN088AAXX  11034 01271 41585 80902 10039 20012 30073 40097 52011 72582 8687/ 333 82820 85630;
0170012710999992000011103504+63470+010930FM-15+0017ENVA V0201301N002112200019N0112651N1+00401+00101999999ADDGA1021+007509999GA2021+010509999GF104991999999999999999999MA1100911999999MW1001REMMET060ENVA 110350Z 13004KT 080V200 9999 SCT025 SCT035 04/01 Q1009;EQDQ01+000000PRSWM2
0170012710999992000011104504+63470+010930FM-15+0017ENVA V0202201N003110099019N0112651N1+00401+00101999999ADDGA1021+006009999GA2071+009909999GF107991999999999999999999MA1101021999999MW1001REMMET060ENVA 110450Z 22006KT 160V280 9999 FEW020 BKN033 04/01 Q1010;EQDQ01+000000PRSWM2
0191012710999992000011105504+63470+010930FM-15+0017ENVA V0202501N004610240019N0112651N1+00501+00101999999ADDGA1021+006009999GA2021+009009999GA3071+024009999GF107991999999999999999999MA1101021999999MW1001REMMET065ENVA 110550Z 25009KT 9999 FEW020 SCT030 BKN080 05/01 Q1010 NOSIG;EQDQ01+000000PRSWM2
0273012710999992000011106004+63470+010930FM-12+0017ENVA V0202501N002110240019N0500001N1+00501+00121101061ADDAA112000191AY181061AY221061GA1011+006009089GA2031+009009069GA3051+024009039GF107991041081008001071999KA1120N+00381MA1999999100821MD1210091+9999MW1021REMSYN112AAXX  11064 01271 11584 72504 10050 20012 30082 40106 52009 69922 70282 8487/ 333 20038 81820 83630 85358 91110;
0215012710999992000011106504+63470+010930FM-15+0017ENVA V0202401N005110105019N0112651N1+00501+00201999999ADDGA1021+004509029GA2021+006609999GA3071+010509999GF107991999999999999999999MA1101081999999MW1001REMMET089ENVA 110650Z 24010KT 9999 FEW015TCU SCT022 BKN035 05/02 Q1011 TEMPO 5000 SHRASN BKN015CB;EQDQ01+000000PRSWM2
0213012710999992000011107504+63470+010930FM-15+0017ENVA V0202401N005110120019N0112651N1+00501+00101999999ADDGA1021+005109029GA2071+012009999GF107991999999999999999999MA1101081999999MW1161REMMET087ENVA 110750Z 24010KT 9999 VCSH FEW017TCU BKN040 05/01 Q1011 TEMPO 5000 SHRASN BKN015CB;EQDQ01+000003PRSWM1Q02    003PRSWM1
0223012710999992000011108504+63470+010930FM-15+0017ENVA V0201001N002610120019N0112651N1+00401+00101999999ADDGA1021+005409029GA2021+006909999GA3071+012009999GF107991999999999999999999MA1101191999999MW1161REMMET081ENVA 110850Z 10005KT 010V150 9999 VCSH FEW018TCU SCT023 BKN040 04/01 Q1012 NOSIG;EQDQ01+000003PRSWM1Q02    003PRSWM1
0215012710999992000011109004+63470+010930FM-12+0017ENVA V0201001N001010069019N0400001N1+00431+00131101241ADDAY181031AY221031GA1021+005409089GA2031+006909089GF107991071081004501061021MA1999999101001MD1210181+9999MW1151REMSYN094AAXX  11094 01271 41482 71002 10043 20013 30100 40124 52018 71582 87862 333 82818 83823 85640;
0223012710999992000011109504+63470+010930FM-15+0017ENVA V0202401N003610099019N0112651N1+00501+00101999999ADDGA1021+004509029GA2021+005409999GA3071+009909999GF107991999999999999999999MA1101291999999MW1161REMMET081ENVA 110950Z 24007KT 210V280 9999 VCSH FEW015TCU SCT018 BKN033 05/01 Q1013 NOSIG;EQDQ01+000003PRSWM1Q02    003PRSWM1
0191012710999992000011110504+63470+010930FM-15+0017ENVA V02099999999992200019N0112651N1+00401+00101999999ADDGA1021+005409999GA2021+007509999GA3021+018009999GF104991999999999999999999MA1101291999999MW1001REMMET065ENVA 111050Z VRB02KT 9999 FEW018 SCT025 SCT060 04/01 Q1013 NOSIG;EQDQ01+000000PRSWM2
0168012710999992000011111504+63470+010930FM-15+0017ENVA V0209999C000010135019N0112651N1+00401+00101999999ADDGA1021+005409999GA2071+013509999GF107991999999999999999999MA1101191999999MW1001REMMET058ENVA 111150Z 00000KT 9999 FEW018 BKN045 04/01 Q1012 NOSIG;EQDQ01+000000PRSWM2
0232012710999992000011112004+63470+010930FM-12+0017ENVA V0209999C000010135019N0650001N1+00391+00121101291ADDAA106000591AY181061AY221061GA1011+005409089GA2051+013509069GF107991061081008001061021MA1999999101051MD1210051+9999MW1021REMSYN100AAXX  11124 01271 11587 70000 10039 20012 30105 40129 52005 69941 70282 86862 333 81818 85645 91114;
0168012710999992000011112504+63470+010930FM-15+0017ENVA V02099999999990120019N0112651N1+00401+00101999999ADDGA1021+007509999GA2071+012009999GF107991999999999999999999MA1101191999999MW1001REMMET058ENVA 111250Z VRB02KT 9999 SCT025 BKN040 04/01 Q1012 NOSIG;EQDQ01+000000PRSWM2
0191012710999992000011113504+63470+010930FM-15+0017ENVA V02099999999992200019N0112651N1+00301+00101999999ADDGA1021+007509999GA2021+012009999GA3021+018009999GF104991999999999999999999MA1101081999999MW1001REMMET065ENVA 111350Z VRB02KT 9999 FEW025 SCT040 SCT060 03/01 Q1011 NOSIG;EQDQ01+000000PRSWM2
0168012710999992000011114504+63470+010930FM-15+0017ENVA V0201201N003110120019N0112651N1+00201+00101999999ADDGA1021+007509999GA2071+012009999GF107991999999999999999999MA1101081999999MW1001REMMET058ENVA 111450Z 12006KT 9999 FEW025 BKN040 02/01 Q1011 NOSIG;EQDQ01+000000PRSWM2
0193012710999992000011115004+63470+010930FM-12+0017ENVA V0201201N001510120019N0600001N1+00241+00071101141ADDAY181031AY221031GA1021+007509089GF107991061081008001061999MA1999999100901MD1710151+9999MW1011REMSYN088AAXX  11154 01271 41586 71203 10024 20007 30090 40114 57015 70182 8686/ 333 82825 85640;
0168012710999992000011115504+63470+010930FM-15+0017ENVA V02099999999992200019N0112651N1+00301+00101999999ADDGA1021+007509999GA2021+015009999GF104991999999999999999999MA1101021999999MW1001REMMET058ENVA 111550Z VRB02KT 9999 FEW025 SCT050 03/01 Q1010 NOSIG;EQDQ01+000000PRSWM2
0168012710999992000011116504+63470+010930FM-15+0017ENVA V02099999999992200019N0112651N1+00201+00001999999ADDGA1021+009009999GA2021+015009999GF104991999999999999999999MA1101021999999MW1001REMMET058ENVA 111650Z VRB02KT 9999 FEW030 SCT050 02/00 Q1010 NOSIG;EQDQ01+000000PRSWM2
0169012710999992000011117504+63470+010930FM-15+0017ENVA V02099999999990210019N0112651N1+00301-00201999999ADDGA1021+009009999GA2071+021009999GF107991999999999999999999MA1100911999999MW1001REMMET059ENVA 111750Z VRB02KT 9999 FEW030 BKN070 03/M02 Q1009 NOSIG;EQDQ01+000000PRSWM2
0251012710999992000011118004+63470+010930FM-12+0017ENVA V0201001N000510210019N0600001N1+00331-00161100991ADDAA112000591AY181061AY221061GA1021+009009069GA2061+021009039GF107991021051008001071999KA1120M+00621MA1999999100751MD1710171+9999MW1031REMSYN106AAXX  11184 01271 11586 71001 10033 21016 30075 40099 57017 69942 70382 8257/ 333 10062 82630 86357 91104;
0146012710999992000011118504+63470+010930FM-15+0017ENVA V02099999999992200019N0112651N1+00501-00301999999ADDGA1021+009009999GF102991999999999999999999MA1100811999999MW1001REMMET052ENVA 111850Z VRB03KT 9999 FEW030 05/M03 Q1008 NOSIG;EQDQ01+000000PRSWM2
0154012710999992000011119504+63470+010930FM-15+0017ENVA V0201501N004110090019N0112651N1+00501-00401999999ADDGA1071+009009999GF107991999999999999999999MA1100811999999MW1001REMMET060ENVA 111950Z 15008KT 110V190 9999 BKN030 05/M04 Q1008 NOSIG;EQDQ01+000000PRSWM2
0148012710999992000011120504+63470+010930FM-15+0017ENVA V0201501N007712200019N0112651N1+00501-00401999999ADDGA1021+009009999GF104991999999999999999999MA1100611999999MW1001REMMET054ENVA 112050Z 15015KT 120V200 9999 SCT030 05/M04 Q1006;EQDQ01+000000PRSWM2
0193012710999992000011121004+63470+010930FM-12+0017ENVA V0201601N00361030001CN0600001N1+00501-00391100691ADDAY121031AY221031GA1031+009009069GF106991031081008001041021MA1999999100451MD1710281+9999MW1011REMSYN088AAXX  11214 01271 41586 61607 10050 21039 30045 40069 57028 70122 83842 333 83630 84358;
0171012710999992000011121504+63470+010930FM-15+0017ENVA V0201601N005712200019N0112651N1+00501-00401999999ADDGA1021+009009999GA2021+027009999GF104991999999999999999999MA1100511999999MW1001REMMET061ENVA 112150Z 16011KT 110V200 9999 FEW030 SCT090 05/M04 Q1005;EQDQ01+000000PRSWM2
0182012710999992000011122504+63470+010930FM-15+0017ENVA V0201601N006712200019N0112651N1+00601-00301999999ADDGA1021+009009999GA2021+027009999GF104991999999999999999999MA1100411999999MW1001OC101181REMMET064ENVA 112250Z 16013G23KT 110V210 9999 FEW030 SCT090 06/M03 Q1004;EQDQ01+000000PRSWM2
0182012710999992000011123504+63470+010930FM-15+0017ENVA V0201501N006212200019N0112651N1+00601-00401999999ADDGA1021+009009999GA2021+036009999GF104991999999999999999999MA1100311999999MW1001OC101131REMMET064ENVA 112350Z 15012G22KT 110V210 9999 FEW030 SCT120 06/M04 Q1003;EQDQ01+000000PRSWM2
0261012710999992000011200004+63470+010930FM-12+0017ENVA V0201501N003110360019N0600001N1+00581-00361100371ADDAA106000091AY121061AY221061GA1021+009009069GA2031+036009039GF106991021081008001041021MA1999999100141MD1710321+9999MW1021REMSYN094AAXX  12004 01271 31586 61506 10058 21036 30014 40037 57055 70222 82842 333 82630 83362 91111;EQDQ01+000552APC3  Q02  00002PRCP06
0205012710999992000011200504+63470+010930FM-15+0017ENVA V0201501N005710600019N0112651N1+00601-00301999999ADDGA1021+009009999GA2021+036009999GA3071+060009999GF107991999999999999999999MA1100101999999MW1001OC101131REMMET071ENVA 120050Z 15011G22KT 110V210 9999 FEW030 SCT120 BKN200 06/M03 Q1001;EQDQ01+000000PRSWM2
0194012710999992000011201504+63470+010930FM-15+0017ENVA V0201701N006710600019N0112651N1+00601-00301999999ADDGA1021+009009999GA2021+036009999GA3071+060009999GF107991999999999999999999MA1100001999999MW1001REMMET068ENVA 120150Z 17013KT 140V210 9999 FEW030 SCT120 BKN200 06/M03 Q1000;EQDQ01+000000PRSWM2
0187012710999992000011202504+63470+010930FM-15+0017ENVA V0202601N011810120019N0112651N1+00601+00001999999ADDGA1021+004509099GA2071+012009999GF107991999999999999999999MA1100311999999MW1801REMMET061ENVA 120250Z 26023KT 9999 -SHRA FEW015CB BKN040 06/M00 Q1003;EQDQ01+000003PRSWM1Q02    003PRSWM1
0193012710999992000011203004+63470+010930FM-12+0017ENVA V0202601N00571030001CN0300001N1+00611-00031100301ADDAY121031AY221031GA1021+004509099GF107991021091004501061999MA1999999100081MD1510061+9999MW1801REMSYN088AAXX  12034 01271 41480 72611 10061 21003 30008 40030 55006 78022 8296/ 333 82915 85640;
