0143013100999992000010111204+61580+005030FM-15+0009ENFL V0200801N004612200019N0112651N1+00401+00301999999ADDGA1021+003009999GA2021+009009999GF104991999999999999999999MA1101021999999MW1001REMMET052ENFL 011120Z 08009KT 9999 FEW010 SCT030 04/03 Q1010;
0167013100999992000010112204+61580+005030FM-15+0009ENFL V0201501N007210090019N0112651N1+00601+00401999999ADDGA1021+003009999GA2071+009009999GF107991999999999999999999MA1101021999999MW1161REMMET057ENFL 011220Z 15014KT 9999 VCSH FEW010 BKN030 06/04 Q1010;EQDQ01    003PRSWM1
0143013100999992000010112504+61580+005030FM-15+0009ENFL V0201601N007710090019N0112651N1+00601+00401999999ADDGA1021+003009999GA2071+009009999GF107991999999999999999999MA1101021999999MW1001REMMET052ENFL 011250Z 16015KT 9999 FEW010 BKN030 06/04 Q1010;
0143013100999992000010113504+61580+005030FM-15+0009ENFL V0201701N009310075019N0112651N1+00701+00501999999ADDGA1021+003009999GA2071+007509999GF107991999999999999999999MA1101021999999MW1001REMMET052ENFL 011350Z 17018KT 9999 FEW010 BKN025 07/05 Q1010;
0166013100999992000010114504+61580+005030FM-15+0009ENFL V0201701N010310105019N0112651N1+00701+00401999999ADDGA1021+003009999GA2021+007509999GA3071+010509999GF107991999999999999999999MA1101021999999MW1001REMMET059ENFL 011450Z 17020KT 9999 FEW010 SCT025 BKN035 07/04 Q1010;
0188013100999992000010115504+61580+005030FM-15+0009ENFL V0201801N014410105019N0112651N1+00701+00401999999ADDGA1021+003009999GA2021+007509999GA3071+010509999GF107991999999999999999999MA1100911999999MW1631REMMET062ENFL 011550Z 18028KT 9999 RA FEW010 SCT025 BKN035 07/04 Q1009;EQDQ01    003PRSWM1
0176013100999992000010116504+61580+005030FM-15+0009ENFL V0201801N013910075019N0112651N1+00601+00401999999ADDGA1021+003009999GA2071+007509999GF107991999999999999999999MA1100911999999MW1631OC101901REMMET058ENFL 011650Z 18027G37KT 9999 RA FEW010 BKN025 06/04 Q1009;EQDQ01    003PRSWM1
0173013100999992000010117504+61580+005030FM-15+0009ENFL V0201701N011810039019N0060001N1+00601+00501999999ADDGA1021+002409999GA2071+003909999GF107991999999999999999999MA1100911999999MW1531MW2611REMMET057ENFL 011750Z 17023KT 6000 DZRA SCT008 BKN013 06/05 Q1009;EQDQ01    003PRSWM1
0173013100999992000010119204+61580+005030FM-15+0009ENFL V0201701N013410045019N0070001N1+00601+00501999999ADDGA1021+002409999GA2071+004509999GF107991999999999999999999MA1100811999999MW1531MW2611REMMET057ENFL 011920Z 17026KT 7000 DZRA SCT008 BKN015 06/05 Q1008;EQDQ01    003PRSWM1
0173013100999992000010209504+61580+005030FM-15+0009ENFL V0202401N013910105019N0112651N1+00701+00001999999ADDGA1021+006009999GA2071+010509999GF107991999999999999999999MA1099901999999MW1001OC102061REMMET055ENFL 020950Z 24027G40KT 9999 FEW020 BKN035 07/00 Q0999;EQDQ01+000000PRSWM2
0197013100999992000010210504+61580+005030FM-15+0009ENFL V0202501N013910090019N0112651N1+00601+00201999999ADDGA1021+006009099GA2071+009009999GF107991999999999999999999MA1100001999999MW1801OC102061REMMET063ENFL 021050Z 25027G40KT 9999 -SHRA FEW020CB BKN030 06/02 Q1000;EQDQ01+000003PRSWM1Q02    003PRSWM1
0173013100999992000010211504+61580+005030FM-15+0009ENFL V0202601N014410075019N0112651N1+00401+00201999999ADDGA1021+004509999GA2071+007509999GF107991999999999999999999MA1100201999999MW1001OC102111REMMET055ENFL 021150Z 26028G41KT 9999 FEW015 BKN025 04/02 Q1002;EQDQ01+000000PRSWM2
0162013100999992000010212504+61580+005030FM-15+0009ENFL V0202701N007710075019N0112651N1+00401+00201999999ADDGA1021+006009999GA2071+007509999GF107991999999999999999999MA1100201999999MW1001REMMET052ENFL 021250Z 27015KT 9999 FEW020 BKN025 04/02 Q1002;EQDQ01+000000PRSWM2
0203013100999992000010213504+61580+005030FM-15+0009ENFL V0202601N010310090019N0112651N1+00601+00101999999ADDGA1021+006009999GA2071+009009999GF107991999999999999999999MA1100311999999MW1801MW2871OC101651REMMET063ENFL 021350Z 26020G32KT 9999 -SHRAGS FEW020 BKN030 06/01 Q1003;EQDQ01+000003PRSWM1Q02    003PRSWM1
0139013100999992000010214504+61580+005030FM-15+0009ENFL V0202601N009812200019N0112651N1+00601+00101999999ADDGA1021+009009999GF104991999999999999999999MA1100411999999MW1001REMMET045ENFL 021450Z 26019KT 9999 SCT030 06/01 Q1004;EQDQ01+000000PRSWM2
0164013100999992000010215504+61580+005030FM-15+0009ENFL V0202701N009812200019N0112651N1+00501+00001999999ADDGA1021+006009099GA2021+010509999GF104991999999999999999999MA1100611999999MW1001REMMET054ENFL 021550Z 27019KT 9999 FEW020CB SCT035 05/00 Q1006;EQDQ01+000000PRSWM2
0185013100999992000010216504+61580+005030FM-15+0009ENFL V0202601N008212200019N0112651N1+00501+00101999999ADDGA1021+006009099GA2021+009009999GF104991999999999999999999MA1100711999999MW1161REMMET059ENFL 021650Z 26016KT 9999 VCSH FEW020CB SCT030 05/01 Q1007;EQDQ01+000003PRSWM1Q02    003PRSWM1
0142013100999992000010217504+61580+005030FM-15+0009ENFL V0202801N008712200019N0112651N1+00501-00101999999ADDGA1021+006009099GF102991999999999999999999MA1100811999999MW1001REMMET048ENFL 021750Z 28017KT 9999 FEW020CB 05/M01 Q1008;EQDQ01+000000PRSWM2
0165013100999992000010218504+61580+005030FM-15+0009ENFL V0202401N005112200019N0112651N1+00501+00001999999ADDGA1021+006009099GA2021+009009999GF104991999999999999999999MA1100811999999MW1001REMMET055ENFL 021850Z 24010KT 9999 FEW020CB SCT030 05/M00 Q1008;EQDQ01+000000PRSWM2
0162013100999992000010219504+61580+005030FM-15+0009ENFL V0202701N004112200019N0112651N1+00601+00101999999ADDGA1021+006009999GA2021+010509999GF104991999999999999999999MA1100911999999MW1001REMMET052ENFL 021950Z 27008KT 9999 FEW020 SCT035 06/01 Q1009;EQDQ01+000000PRSWM2
0139013100999992000010220504+61580+005030FM-15+0009ENFL V0202101N004612200019N0112651N1+00601+00101999999ADDGA1021+006009999GF102991999999999999999999MA1100911999999MW1001REMMET045ENFL 022050Z 21009KT 9999 FEW020 06/01 Q1009;EQDQ01+000000PRSWM2
0219013100999992000010221504+61580+005030FM-15+0009ENFL V0202301N011310150019N0112651N1+00601+00101999999ADDGA1021+006009099GA2021+010509999GA3071+015009999GF107991999999999999999999MA1100911999999MW1161OC101651REMMET069ENFL 022150Z 23022G32KT 9999 VCSH FEW020CB SCT035 BKN050 06/01 Q1009;EQDQ01+000003PRSWM1Q02    003PRSWM1
0224013100999992000010222504+61580+005030FM-15+0009ENFL V0202101N006710105019N0112651N1+00401+00101999999ADDGA1021+004509999GA2021+006009099GA3071+010509999GF107991999999999999999999MA1100911999999MW1801REMMET082ENFL 022250Z 21013KT 160V250 9999 -SHRA FEW015 SCT020CB BKN035 04/01 Q1009 REGSRA;EQDQ01+000003PRSWM1Q02    003PRSWM1
0162013100999992000010304204+61580+005030FM-15+0009ENFL V0201301N011810210019N0112651N1+00601+00001999999ADDGA1021+015009999GA2071+021009999GF107991999999999999999999MA1099801999999MW1001REMMET052ENFL 030420Z 13023KT 9999 FEW050 BKN070 06/00 Q0998;EQDQ01+000000PRSWM2
0163013100999992000010304504+61580+005030FM-15+0009ENFL V0201401N013910210019N0112651N1+00601-00101999999ADDGA1021+015009999GA2071+021009999GF107991999999999999999999MA1099701999999MW1001REMMET053ENFL 030450Z 14027KT 9999 SCT050 BKN070 06/M01 Q0997;EQDQ01+000000PRSWM2
0173013100999992000010305504+61580+005030FM-15+0009ENFL V0201401N015910120019N0112651N1+00601+00001999999ADDGA1021+010509999GA2071+012009999GF107991999999999999999999MA1099391999999MW1001OC102111REMMET055ENFL 030550Z 14031G41KT 9999 FEW035 BKN040 06/00 Q0994;EQDQ01+000000PRSWM2
0182013100999992000010306504+61580+005030FM-15+0009ENFL V0201401N015410075019N0112651N1+00501+00201999999ADDGA1021+006009999GA2071+007509999GF107991999999999999999999MA1099091999999MW1611REMMET056ENFL 030650Z 14030KT 9999 -RA SCT020 BKN025 05/02 Q0991;EQDQ01+000003PRSWM1Q02    003PRSWM1
0098013100999992000010307504+61580+005030FM-15+0009ENFL V0201401N014912200019N0112651N1+99999+99999999999ADDMW1001MW2611REMMET055ENFL 030750Z 14029KT 9999 -RA CT020 BKN025 05/03 Q0988;EQDQ01+000003PRSWM1
0195013100999992000010308504+61580+005030FM-15+0009ENFL V0201801N016510054019N0112651N1+00801+00501999999ADDGA1021+004509999GA2071+005409999GF107991999999999999999999MA1098821999999MW1801OC102261REMMET061ENFL 030850Z 18032G44KT 9999 -SHRA FEW015 BKN018 08/05 Q0988;EQDQ01+000003PRSWM1Q02    003PRSWM1
0219013100999992000010310504+61580+005030FM-15+0009ENFL V0201901N022610075019N0080001N1+00801+00401999999ADDGA1021+004509999GA2021+006009099GA3071+007509999GF107991999999999999999999MA1098511999999MW1161OC102981REMMET069ENFL 031050Z 19044G58KT 8000 VCSH FEW015 FEW020CB BKN025 08/04 Q0985;EQDQ01+000003PRSWM1Q02    003PRSWM1
0220013100999992000010311504+61580+005030FM-15+0009ENFL V0202101N022610075019N0112651N1+00801+00301999999ADDGA1021+004509999GA2021+006009099GA3071+007509999GF107991999999999999999999MA1098411999999MW1801OC103241REMMET070ENFL 031150Z 21044G63KT 9999 -SHRA FEW015 FEW020CB BKN025 08/03 Q0984;EQDQ01+000003PRSWM1Q02    003PRSWM1
0197013100999992000010312504+61580+005030FM-15+0009ENFL V0202001N021610060019N0080001N1+00701+00301999999ADDGA1021+004509999GA2071+006009099GF107991999999999999999999MA1098411999999MW1801OC103191REMMET063ENFL 031250Z 20042G62KT 8000 -SHRA FEW015 BKN020CB 07/03 Q0984;EQDQ01+000003PRSWM1Q02    003PRSWM1
0196013100999992000010313504+61580+005030FM-15+0009ENFL V0202101N021610060019N0050001N1+00701+00301999999ADDGA1021+004509999GA2071+006009099GF107991999999999999999999MA1098311999999MW1811OC103701REMMET062ENFL 031350Z 21042G72KT 5000 SHRA FEW015 BKN020CB 07/03 Q0983;EQDQ01+000003PRSWM1Q02    003PRSWM1
0233013100999992000010315504+61580+005030FM-15+0009ENFL V0202101N021610150019N0090001N1+00701+00301999999ADDGA1021+004509999GA2021+006009099GA3071+015009999GF107991999999999999999999MA1098311999999MW1801OC103191REMMET083ENFL 031450Z 21042G62KT 160V250 9000 -SHRA FEW015 SCT020CB BKN050 07/03 Q0983 RERA;EQDQ01+000003PRSWM1Q02    003PRSWM1
0171013100999992000010316204+61580+005030FM-16+0009ENFL V0202201N019512200019N0080001N1+99999+99999999999ADDGA1021+004509999GF102991999999999999999999MW1001MW2801OC102981REMMET078ENFL 031620Z 22038G58KT 170V240 8000 -SHRA FEW015 SCR020CB BKN025 07/03 Q0983;EQDQ01+000003PRSWM1
0205013100999992000010316504+61580+005030FM-15+0009ENFL V0202201N021110060019N0080001N1+00701+00301999999ADDGA1021+004509999GA2071+006009099GF107991999999999999999999MA1098311999999MW1801OC103501REMMET071ENFL 031650Z 22041G68KT 170V240 8000 -SHRA SCT015 BKN020CB 07/03 Q0983;EQDQ01+000003PRSWM1Q02    003PRSWM1
0218013100999992000010317504+61580+005030FM-15+0009ENFL V0202101N018510090019N0112651N1+00701+00401999999ADDGA1021+004509999GA2021+006009099GA3071+009009999GF107991999999999999999999MA1098411999999MW1611OC102681REMMET068ENFL 031750Z 21036G52KT 9999 -RA FEW015 SCT020CB BKN030 07/04 Q0984;EQDQ01+000003PRSWM1Q02    003PRSWM1
0196013100999992000010318504+61580+005030FM-15+0009ENFL V0202301N021110150019N0080001N1+00601+00301999999ADDGA1021+006009999GA2021+009009999GA3071+015009999GF107991999999999999999999MA1098411999999MW1001OC103091REMMET062ENFL 031850Z 23041G60KT 8000 FEW020 SCT030 BKN055 06/03 Q0984;EQDQ01+000000PRSWM2
0218013100999992000010319504+61580+005030FM-15+0009ENFL V0202301N020610150019N0070001N1+00601+00301999999ADDGA1021+006009099GA2021+009009999GA3071+015009999GF107991999999999999999999MA1098411999999MW1611OC102981REMMET068ENFL 031950Z 23040G58KT 7000 -RA FEW020CB SCT030 BKN055 06/03 Q0984;EQDQ01+000003PRSWM1Q02    003PRSWM1
0185013100999992000010320504+61580+005030FM-15+0009ENFL V0202401N017010150019N0099001N1+00601+00201999999ADDGA1021+010509999GA2071+015009999GF107991999999999999999999MA1098511999999MW1001OC102621REMMET067ENFL 032050Z 24033G51KT 200V280 FEW020CB SCT035 BKN055 06/02 Q0985;EQDQ01+000000PRSWM2
0206013100999992000010321504+61580+005030FM-15+0009ENFL V0202501N015910150019N0070001N1+00601+00201999999ADDGA1021+006009099GA2021+010509999GA3071+015009999GF107991999999999999999999MA1098611999999MW1001OC102471REMMET072ENFL 032150Z 25031G48KT 200V290 7000 FEW020CB SCT035 BKN055 06/02 Q0986;EQDQ01+000000PRSWM2
0227013100999992000010322204+61580+005030FM-15+0009ENFL V0202501N014910105019N0070001N1+00501+00201999999ADDGA1021+006009099GA2021+006009999GA3071+010509999GF107991999999999999999999MA1098711999999MW1811OC102521REMMET077ENFL 032220Z 25029G49KT 200V290 7000 SHRA FEW020CB FEW020 BKN035 05/02 Q0987;EQDQ01+000003PRSWM1Q02    003PRSWM1
0219013100999992000010322504+61580+005030FM-15+0009ENFL V0202501N017010105019N0070001N1+00501+00301999999ADDGA1021+006009099GA2021+006009999GA3071+010509999GF107991999999999999999999MA1098711999999MW1811OC102681REMMET069ENFL 032250Z 25033G52KT 7000 SHRA FEW020CB FEW020 BKN035 05/03 Q0987;EQDQ01+000003PRSWM1Q02    003PRSWM1
0173013100999992000010323504+61580+005030FM-15+0009ENFL V0202501N014912200019N0112651N1+00601+00301999999ADDGA1021+006009999GA2021+010509999GF104991999999999999999999MA1098711999999MW1001OC102211REMMET055ENFL 032350Z 25029G43KT 9999 FEW020 SCT035 06/03 Q0987;EQDQ01+000000PRSWM2
0162013100999992000010404204+61580+005030FM-15+0009ENFL V0202901N013412200019N0112651N1+00501+00101999999ADDGA1021+004509999GA2021+009009999GF104991999999999999999999MA1099291999999MW1001REMMET052ENFL 040420Z 29026KT 9999 FEW015 SCT030 05/01 Q0993;EQDQ01+000000PRSWM2
0173013100999992000010404504+61580+005030FM-15+0009ENFL V0202801N012912200019N0112651N1+00501+00101999999ADDGA1021+004509999GA2021+007509999GF104991999999999999999999MA1099291999999MW1001OC101901REMMET055ENFL 040450Z 28025G37KT 9999 FEW015 SCT025 05/01 Q0993;EQDQ01+000000PRSWM2
0162013100999992000010405504+61580+005030FM-15+0009ENFL V0202901N011810075019N0112651N1+00401+00101999999ADDGA1021+004509999GA2071+007509999GF107991999999999999999999MA1099391999999MW1001REMMET052ENFL 040550Z 29023KT 9999 FEW015 BKN025 04/01 Q0994;EQDQ01+000000PRSWM2
0170013100999992000010406504+61580+005030FM-15+0009ENFL V0203001N009312200019N0112651N1+00401+00001999999ADDGA1021+004509999GA2021+007509999GF104991999999999999999999MA1099701999999MW1001REMMET060ENFL 040650Z 30018KT 280V350 9999 FEW015 SCT025 04/00 Q0997;EQDQ01+000000PRSWM2
0139013100999992000010407504+61580+005030FM-15+0009ENFL V0203001N010312200019N0112651N1+00501+00001999999ADDGA1021+007509999GF102991999999999999999999MA1099701999999MW1001REMMET045ENFL 040750Z 30020KT 9999 FEW025 05/00 Q0997;EQDQ01+000000PRSWM2
0140013100999992000010408504+61580+005030FM-15+0009ENFL V0202901N009312200019N0112651N1+00501-00101999999ADDGA1021+007509999GF104991999999999999999999MA1099801999999MW1001REMMET046ENFL 040850Z 29018KT 9999 SCT025 05/M01 Q0998;EQDQ01+000000PRSWM2
0139013100999992000010409504+61580+005030FM-15+0009ENFL V0203001N005712200019N0112651N1+00501+00001999999ADDGA1021+007509999GF102991999999999999999999MA1099901999999MW1001REMMET045ENFL 040950Z 30011KT 9999 FEW025 05/00 Q0999;EQDQ01+000000PRSWM2
0140013100999992000010410504+61580+005030FM-15+0009ENFL V0202901N004612200019N0112651N1+00501-00201999999ADDGA1021+009009999GF102991999999999999999999MA1100001999999MW1001REMMET046ENFL 041050Z 29009KT 9999 FEW030 05/M02 Q1000;EQDQ01+000000PRSWM2
0140013100999992000010411504+61580+005030FM-15+0009ENFL V0202901N003112200019N0112651N1+00401-00201999999ADDGA1021+009009999GF102991999999999999999999MA1100001999999MW1001REMMET046ENFL 041150Z 29006KT 9999 FEW030 04/M02 Q1000;EQDQ01+000000PRSWM2
0140013100999992000010412504+61580+005030FM-15+0009ENFL V02099999999992200019N0112651N1+00401-00401999999ADDGA1021+009009999GF102991999999999999999999MA1100001999999MW1001REMMET046ENFL 041250Z VRB02KT 9999 FEW030 04/M04 Q1000;EQDQ01+000000PRSWM2
0139013100999992000010413204+61580+005030FM-16+0009ENFL V0201901N003112200019N0112651N1+99999+99999999999ADDGA1021+009009999GF104991999999999999999999MA1100001999999MW1001REMMET045ENFL 041320Z 19006KT 9999 SCT030 XX/XX Q1000;EQDQ01+000000PRSWM2
0139013100999992000010414204+61580+005030FM-16+0009ENFL V0201001N004612200019N0112651N1+99999+99999999999ADDGA1021+009009999GF104991999999999999999999MA1100001999999MW1001REMMET045ENFL 041420Z 10009KT 9999 SCT030 XX/XX Q1000;EQDQ01+000000PRSWM2
0139013100999992000010414504+61580+005030FM-16+0009ENFL V0202001N003612200019N0112651N1+99999+99999999999ADDGA1021+009009999GF104991999999999999999999MA1100001999999MW1001REMMET045ENFL 041350Z 20007KT 9999 SCT030 XX/XX Q1000;EQDQ01+000000PRSWM2
0139013100999992000010415204+61580+005030FM-16+0009ENFL V0201101N006212200019N0112651N1+99999+99999999999ADDGA1021+009009999GF104991999999999999999999MA1100001999999MW1001REMMET045ENFL 041520Z 11012KT 9999 SCT030 XX/XX Q1000;EQDQ01+000000PRSWM2
0139013100999992000010415504+61580+005030FM-16+0009ENFL V0201001N005712200019N0112651N1+99999+99999999999ADDGA1021+009009999GF104991999999999999999999MA1100001999999MW1001REMMET045ENFL 041450Z 10011KT 9999 SCT030 XX/XX Q1000;EQDQ01+000000PRSWM2
0139013100999992000010416204+61580+005030FM-16+0009ENFL V0201201N007712200019N0112651N1+99999+99999999999ADDGA1021+009009999GF104991999999999999999999MA1099901999999MW1001REMMET045ENFL 041620Z 12015KT 9999 SCT030 XX/XX Q0999;EQDQ01+000000PRSWM2
0139013100999992000010416504+61580+005030FM-16+0009ENFL V0201201N007212200019N0112651N1+99999+99999999999ADDGA1021+009009999GF104991999999999999999999MA1099901999999MW1001REMMET045ENFL 041550Z 12014KT 9999 SCT030 XX/XX Q0999;EQDQ01+000000PRSWM2
0163013100999992000010417204+61580+005030FM-15+0009ENFL V0201201N008212200019N0112651N1+00401-00101999999ADDGA1021+009009999GA2021+018009999GF104991999999999999999999MA1099801999999MW1001REMMET053ENFL 041720Z 12016KT 9999 FEW030 SCT060 04/M01 Q0998;EQDQ01+000000PRSWM2
0163013100999992000010417504+61580+005030FM-15+0009ENFL V0201201N008712200019N0112651N1+00401-00101999999ADDGA1021+009009999GA2021+018009999GF104991999999999999999999MA1099801999999MW1001REMMET053ENFL 041750Z 12017KT 9999 FEW030 SCT060 04/M01 Q0998;EQDQ01+000000PRSWM2
0140013100999992000010418504+61580+005030FM-15+0009ENFL V0201101N008712200019N0112651N1+00401-00101999999ADDGA1021+009009999GF104991999999999999999999MA1099591999999MW1001REMMET046ENFL 041850Z 11017KT 9999 SCT030 04/M01 Q0996;EQDQ01+000000PRSWM2
0163013100999992000010419504+61580+005030FM-15+0009ENFL V0201101N010310300019N0112651N1+00401-00201999999ADDGA1021+009009999GA2071+030009999GF107991999999999999999999MA1099491999999MW1001REMMET053ENFL 041950Z 11020KT 9999 FEW030 BKN100 04/M02 Q0995;EQDQ01+000000PRSWM2
0163013100999992000010421204+61580+005030FM-15+0009ENFL V0201201N010312200019N0112651N1+00501-00201999999ADDGA1021+009009999GA2021+015009999GF104991999999999999999999MA1099391999999MW1001REMMET053ENFL 042120Z 12020KT 9999 SCT030 SCT050 05/M02 Q0994;EQDQ01+000000PRSWM2
0163013100999992000010421504+61580+005030FM-15+0009ENFL V0201201N011310120019N0112651N1+00501-00201999999ADDGA1021+009009999GA2071+012009999GF107991999999999999999999MA1099291999999MW1001REMMET053ENFL 042150Z 12022KT 9999 SCT030 BKN040 05/M02 Q0993;EQDQ01+000000PRSWM2
0174013100999992000010422504+61580+005030FM-15+0009ENFL V0201301N012310120019N0112651N1+00601-00101999999ADDGA1021+009009999GA2071+012009999GF107991999999999999999999MA1099191999999MW1001OC101751REMMET056ENFL 042250Z 13024G34KT 9999 SCT030 BKN040 06/M01 Q0992;EQDQ01+000000PRSWM2
0170013100999992000010504504+61580+005030FM-15+0009ENFL V0202101N009812200019N0112651N1+00501+00201999999ADDGA1021+003009999GA2021+005409999GF104991999999999999999999MA1099591999999MW1001REMMET060ENFL 050450Z 21019KT 170V260 9999 FEW010 SCT018 05/02 Q0996;EQDQ01+000000PRSWM2
0139013100999992000010505504+61580+005030FM-15+0009ENFL V0201901N011812200019N0112651N1+00401+00201999999ADDGA1021+005409999GF102991999999999999999999MA1099591999999MW1001REMMET045ENFL 050550Z 19023KT 9999 FEW018 04/02 Q0996;EQDQ01+000000PRSWM2
0139013100999992000010506504+61580+005030FM-15+0009ENFL V0201901N008212200019N0112651N1+00401+00201999999ADDGA1021+005409999GF102991999999999999999999MA1099701999999MW1001REMMET045ENFL 050650Z 19016KT 9999 FEW018 04/02 Q0997;EQDQ01+000000PRSWM2
0184013100999992000010507504+61580+005030FM-15+0009ENFL V0201901N009310075019N0112651N1+00501+00301999999ADDGA1021+005409999GA2071+007509999GF107991999999999999999999MA1099701999999MW1801REMMET058ENFL 050750Z 19018KT 9999 -SHRA SCT018 BKN025 05/03 Q0997;EQDQ01+000003PRSWM1Q02    003PRSWM1
0208013100999992000010508504+61580+005030FM-15+0009ENFL V0201701N008212200019N0112651N1+00501+00301999999ADDGA1021+005409999GA2021+006009099GA3021+007509999GF104991999999999999999999MA1099801999999MW1161REMMET066ENFL 050850Z 17016KT 9999 VCSH FEW018 FEW020CB SCT025 05/03 Q0998;EQDQ01+000003PRSWM1Q02    003PRSWM1
0195013100999992000010509504+61580+005030FM-15+0009ENFL V0201901N011812200019N0112651N1+00501+00101999999ADDGA1021+007509999GA2021+012009999GF104991999999999999999999MA1099801999999MW1801OC101751REMMET061ENFL 050950Z 19023G34KT 9999 -SHRA SCT025 SCT040 05/01 Q0998;EQDQ01+000003PRSWM1Q02    003PRSWM1
0185013100999992000010510504+61580+005030FM-15+0009ENFL V0201701N012310150019N0112651N1+00601+00301999999ADDGA1021+005409999GA2021+007509999GA3071+015009999GF107991999999999999999999MA1099801999999MW1001REMMET059ENFL 051050Z 17024KT 9999 FEW018 SCT025 BKN050 06/03 Q0998;EQDQ01+000000PRSWM2
0162013100999992000010511504+61580+005030FM-15+0009ENFL V0201701N012910120019N0112651N1+00601+00201999999ADDGA1021+006009999GA2071+012009999GF107991999999999999999999MA1099801999999MW1001REMMET052ENFL 051150Z 17025KT 9999 SCT020 BKN040 06/02 Q0998;EQDQ01+000000PRSWM2
0162013100999992000010512504+61580+005030FM-15+0009ENFL V0201701N014410090019N0112651N1+00601+00201999999ADDGA1021+007509999GA2071+009009999GF107991999999999999999999MA1099701999999MW1001REMMET052ENFL 051250Z 17028KT 9999 FEW025 BKN030 06/02 Q0997;EQDQ01+000000PRSWM2
0185013100999992000010513504+61580+005030FM-15+0009ENFL V0201601N014410120019N0112651N1+00601+00201999999ADDGA1021+006009999GA2021+007509999GA3071+012009999GF107991999999999999999999MA1099491999999MW1001REMMET059ENFL 051350Z 16028KT 9999 FEW020 SCT025 BKN040 06/02 Q0995;EQDQ01+000000PRSWM2
0159013100999992000010514504+61580+005030FM-15+0009ENFL V0201501N014410060019N0112651N1+00501+00201999999ADDGA1071+006009999GF107991999999999999999999MA1099491999999MW1611REMMET049ENFL 051450Z 15028KT 9999 -RA BKN020 05/02 Q0995;EQDQ01+000003PRSWM1Q02    003PRSWM1
0182013100999992000010515504+61580+005030FM-15+0009ENFL V0201601N013910060019N0112651N1+00601+00301999999ADDGA1021+004509999GA2071+006009999GF107991999999999999999999MA1099391999999MW1611REMMET056ENFL 051550Z 16027KT 9999 -RA SCT015 BKN020 06/03 Q0994;EQDQ01+000003PRSWM1Q02    003PRSWM1
0193013100999992000010516504+61580+005030FM-15+0009ENFL V0201601N013910060019N0112651N1+00501+00301999999ADDGA1021+004509999GA2071+006009999GF107991999999999999999999MA1099291999999MW1611OC102011REMMET059ENFL 051650Z 16027G39KT 9999 -RA SCT015 BKN020 05/03 Q0993;EQDQ01+000003PRSWM1Q02    003PRSWM1
0224013100999992000010517504+61580+005030FM-15+0009ENFL V0201601N014910075019N0112651N1+00601+00401999999ADDGA1021+004509999GA2021+006009999GA3071+007509999GF107991999999999999999999MA1099191999999MW1611OC102011REMMET074ENFL 051750Z 16029G39KT 140V200 9999 -RA FEW015 SCT020 BKN025 06/04 Q0992;EQDQ01+000003PRSWM1Q02    003PRSWM1
0182013100999992000010518504+61580+005030FM-15+0009ENFL V0201601N015410069019N0112651N1+00601+00401999999ADDGA1021+005409999GA2071+006909999GF107991999999999999999999MA1099091999999MW1611REMMET056ENFL 051850Z 16030KT 9999 -RA SCT018 BKN023 06/04 Q0991;EQDQ01+000003PRSWM1Q02    003PRSWM1
0182013100999992000010520504+61580+005030FM-15+0009ENFL V0201701N015910060019N0112651N1+00701+00501999999ADDGA1021+004509999GA2071+006009999GF107991999999999999999999MA1098981999999MW1611REMMET056ENFL 052050Z 17031KT 9999 -RA SCT015 BKN020 07/05 Q0990;EQDQ01+000003PRSWM1Q02    003PRSWM1
0193013100999992000010521504+61580+005030FM-15+0009ENFL V0201801N019510060019N0112651N1+00801+00601999999ADDGA1021+004509999GA2071+006009999GF107991999999999999999999MA1098981999999MW1611OC102571REMMET059ENFL 052150Z 18038G50KT 9999 -RA SCT015 BKN020 08/06 Q0990;EQDQ01+000003PRSWM1Q02    003PRSWM1
0200013100999992000010604204+61580+005030FM-15+0009ENFL V0201801N020610060019N0080001N1+00801+00701999999ADDGA1021+004509999GA2071+006009999GF107991999999999999999999MA1098211999999MW1631OC102621REMMET066ENFL 060420Z 18040G51KT 150V210 8000 RA SCT015 BKN020 08/07 Q0982;EQDQ01+000003PRSWM1Q02    003PRSWM1
0192013100999992000010604504+61580+005030FM-15+0009ENFL V0201901N020110060019N0080001N1+00801+00701999999ADDGA1021+004509999GA2071+006009999GF107991999999999999999999MA1098211999999MW1631OC102621REMMET058ENFL 060450Z 19039G51KT 8000 RA SCT015 BKN020 08/07 Q0982;EQDQ01+000003PRSWM1Q02    003PRSWM1
0193013100999992000010605504+61580+005030FM-15+0009ENFL V0201901N020110060019N0112651N1+00901+00701999999ADDGA1021+004509999GA2071+006009999GF107991999999999999999999MA1098211999999MW1611OC102681REMMET059ENFL 060550Z 19039G52KT 9999 -RA SCT015 BKN020 09/07 Q0982;EQDQ01+000003PRSWM1Q02    003PRSWM1
0224013100999992000010606504+61580+005030FM-15+0009ENFL V0201901N016510075019N0112651N1+00801+00701999999ADDGA1021+004509999GA2021+006009999GA3071+007509999GF107991999999999999999999MA1098211999999MW1611OC102161REMMET074ENFL 060650Z 19032G42KT 170V250 9999 -RA FEW015 SCT020 BKN025 08/07 Q0982;EQDQ01+000003PRSWM1Q02    003PRSWM1
0189013100999992000010607504+61580+005030FM-15+0009ENFL V0202001N015910060019N0090001N1+00801+00701999999ADDGA1021+004509999GA2071+006009999GF107991999999999999999999MA1098211999999MW1631REMMET063ENFL 060750Z 20031KT 180V240 9000 RA SCT015 BKN020 08/07 Q0982;EQDQ01+000003PRSWM1Q02    003PRSWM1
0216013100999992000010609204+61580+005030FM-15+0009ENFL V0202001N015910075019N0112651N1+00801+00601999999ADDGA1021+004509999GA2021+006009999GA3071+007509999GF107991999999999999999999MA1098101999999MW1611OC102311REMMET066ENFL 060920Z 20031G45KT 9999 -RA FEW015 SCT020 BKN025 08/06 Q0981;EQDQ01+000003PRSWM1Q02    003PRSWM1
0219013100999992000010609504+61580+005030FM-15+0009ENFL V0202001N016510075019N0112651N1+00801+00601999999ADDGA1021+004509999GA2021+006009099GA3071+007509999GF107991999999999999999999MA1098101999999MW1161OC102211REMMET069ENFL 060950Z 20032G43KT 9999 VCSH FEW015 SCT020CB BKN025 08/06 Q0981;EQDQ01+000003PRSWM1Q02    003PRSWM1
0185013100999992000010610504+61580+005030FM-15+0009ENFL V0201901N016510075019N0112651N1+00701+00601999999ADDGA1021+006009099GA2071+007509999GF107991999999999999999999MA1098101999999MW1161REMMET059ENFL 061050Z 19032KT 9999 VCSH SCT020CB BKN025 07/06 Q0981;EQDQ01+000003PRSWM1Q02    003PRSWM1
0205013100999992000010611504+61580+005030FM-15+0009ENFL V0202101N015910054019N0070001N1+00601+00401999999ADDGA1021+003609099GA2071+005409999GF107991999999999999999999MA1098101999999MW1801OC102211REMMET071ENFL 061150Z 21031G43KT 170V250 7000 -SHRA SCT012CB BKN018 06/04 Q0981;EQDQ01+000003PRSWM1Q02    003PRSWM1
0228013100999992000010612204+61580+005030FM-15+0009ENFL V0202301N012310060019N0080001N1+00501+00401999999ADDGA1021+003009999GA2021+004509099GA3071+006009999GF107991999999999999999999MA1098101999999MW1801OC101801REMMET078ENFL 061220Z 23024G35KT 170V290 8000 -SHRA FEW010 SCT015CB BKN020 05/04 Q0981;EQDQ01+000003PRSWM1Q02    003PRSWM1
0196013100999992000010612504+61580+005030FM-15+0009ENFL V0202901N012310060019N0112651N1+00401+00301999999ADDGA1021+003009999GA2021+004509999GA3071+006009999GF107991999999999999999999MA1098311999999MW1001OC101751REMMET062ENFL 061250Z 29024G34KT 9999 FEW010 SCT015 BKN020 04/03 Q0983;EQDQ01+000000PRSWM2
0183013100999992000010613504+61580+005030FM-15+0009ENFL V0202701N007710060019N0112651N1+00501+00301999999ADDGA1021+004509999GA2071+006009999GF107991999999999999999999MA1098611999999MW1161REMMET057ENFL 061350Z 27015KT 9999 VCSH FEW015 BKN020 05/03 Q0986;EQDQ01+000003PRSWM1Q02    003PRSWM1
0183013100999992000010614504+61580+005030FM-15+0009ENFL V0202901N010810045019N0112651N1+00301+00201999999ADDGA1021+003009999GA2071+004509999GF107991999999999999999999MA1098821999999MW1161REMMET057ENFL 061450Z 29021KT 9999 VCSH SCT010 BKN015 03/02 Q0988;EQDQ01+000003PRSWM1Q02    003PRSWM1
0172013100999992000010615504+61580+005030FM-15+0009ENFL V0202701N009312200019N0112651N1+00301+00001999999ADDGA1021+003009099GA2021+004509999GF104991999999999999999999MA1098981999999MW1001REMMET062ENFL 061550Z 27018KT 210V290 9999 SCT010CB SCT015 03/00 Q0990;EQDQ01+000000PRSWM2
0185013100999992000010616504+61580+005030FM-15+0009ENFL V0202801N011312200019N0112651N1+00301+00001999999ADDGA1021+003609099GA2021+005409999GF104991999999999999999999MA1099091999999MW1161REMMET059ENFL 061650Z 28022KT 9999 VCSH FEW012CB SCT018 03/00 Q0991;EQDQ01+000003PRSWM1Q02    003PRSWM1
0196013100999992000010617504+61580+005030FM-15+0009ENFL V0202601N012310060019N0112651N1+00301+00101999999ADDGA1021+003609099GA2071+006009999GF107991999999999999999999MA1099291999999MW1161OC101951REMMET062ENFL 061750Z 26024G38KT 9999 VCSH FEW012CB BKN020 03/01 Q0993;EQDQ01+000003PRSWM1Q02    003PRSWM1
0201013100999992000010619504+61580+005030FM-15+0009ENFL V0202601N011812200019N0112651N1+00301+00001999999ADDGA1021+003609099GA2021+006009999GF104991999999999999999999MA1099491999999MW1161OC102211REMMET067ENFL 061950Z 26023G43KT 9999 VCSH SCT012CB SCT020 03/00 Q0995 REGS;EQDQ01+000003PRSWM1Q02    003PRSWM1
0167013100999992000010620504+61580+005030FM-15+0009ENFL V0202701N010312200019N0112651N1+00501+00001999999ADDGA1021+003609999GA2021+007509999GF104991999999999999999999MA1099591999999MW1001REMMET057ENFL 062050Z 27020KT 9999 FEW012 SCT025 05/00 Q0996 REGS;EQDQ01+000000PRSWM2
0150013100999992000010621504+61580+005030FM-15+0009ENFL V0202501N009812200019N0112651N1+00501+00001999999ADDGA1021+007509999GF104991999999999999999999MA1099701999999MW1001OC101491REMMET048ENFL 062150Z 25019G29KT 9999 SCT025 05/00 Q0997;EQDQ01+000000PRSWM2
0162013100999992000010704204+61580+005030FM-15+0009ENFL V0201701N013910240019N0112651N1+00601+00101999999ADDGA1021+012009999GA2071+024009999GF107991999999999999999999MA1099701999999MW1001REMMET052ENFL 070420Z 17027KT 9999 FEW040 BKN080 06/01 Q0997;EQDQ01+000000PRSWM2
0150013100999992000010704504+61580+005030FM-15+0009ENFL V0201601N016512200019N0112651N1+00601+00101999999ADDGA1021+012009999GF102991999999999999999999MA1099591999999MW1001OC102261REMMET048ENFL 070450Z 16032G44KT 9999 FEW040 06/01 Q0996;EQDQ01+000000PRSWM2
0173013100999992000010705504+61580+005030FM-15+0009ENFL V0201701N019512200019N0112651N1+00601+00001999999ADDGA1021+007509999GA2021+010509999GF104991999999999999999999MA1099391999999MW1001OC102881REMMET055ENFL 070550Z 17038G56KT 9999 FEW025 SCT035 06/00 Q0994;EQDQ01+000000PRSWM2
0193013100999992000010706504+61580+005030FM-15+0009ENFL V0201701N017010060019N0112651N1+00501+00301999999ADDGA1021+004509999GA2071+006009999GF107991999999999999999999MA1099291999999MW1611OC102371REMMET059ENFL 070650Z 17033G46KT 9999 -RA SCT015 BKN020 05/03 Q0993;EQDQ01+000003PRSWM1Q02    003PRSWM1
0193013100999992000010707504+61580+005030FM-15+0009ENFL V0201601N019010060019N0112651N1+00501+00301999999ADDGA1021+004509999GA2071+006009999GF107991999999999999999999MA1099191999999MW1611OC102421REMMET059ENFL 070750Z 16037G47KT 9999 -RA SCT015 BKN020 05/03 Q0992;EQDQ01+000003PRSWM1Q02    003PRSWM1
0193013100999992000010708504+61580+005030FM-15+0009ENFL V0201701N018010060019N0070001N1+00501+00401999999ADDGA1021+004509999GA2071+006009999GF107991999999999999999999MA1099091999999MW1611OC102371REMMET059ENFL 070850Z 17035G46KT 7000 -RA SCT015 BKN020 05/04 Q0991;EQDQ01+000003PRSWM1Q02    003PRSWM1
0193013100999992000010709504+61580+005030FM-15+0009ENFL V0201701N018010054019N0060001N1+00601+00501999999ADDGA1021+003609999GA2071+005409999GF107991999999999999999999MA1098981999999MW1611OC102471REMMET059ENFL 070950Z 17035G48KT 6000 -RA SCT012 BKN018 06/05 Q0990;EQDQ01+000003PRSWM1Q02    003PRSWM1
0193013100999992000010710504+61580+005030FM-15+0009ENFL V0201701N019510054019N0060001N1+00701+00601999999ADDGA1021+003609999GA2071+005409999GF107991999999999999999999MA1098921999999MW1611OC102571REMMET059ENFL 071050Z 17038G50KT 6000 -RA SCT012 BKN018 07/06 Q0989;EQDQ01+000003PRSWM1Q02    003PRSWM1
0193013100999992000010711504+61580+005030FM-15+0009ENFL V0201701N019010054019N0050001N1+00701+00601999999ADDGA1021+003609999GA2071+005409999GF107991999999999999999999MA1098821999999MW1611OC102571REMMET059ENFL 071150Z 17037G50KT 5000 -RA SCT012 BKN018 07/06 Q0988;EQDQ01+000003PRSWM1Q02    003PRSWM1
0193013100999992000010712504+61580+005030FM-15+0009ENFL V0201801N020610045019N0050001N1+00701+00601999999ADDGA1021+003009999GA2071+004509999GF107991999999999999999999MA1098711999999MW1611OC102781REMMET059ENFL 071250Z 18040G54KT 5000 -RA SCT010 BKN015 07/06 Q0987;EQDQ01+000003PRSWM1Q02    003PRSWM1
0193013100999992000010713504+61580+005030FM-15+0009ENFL V0201901N020110045019N0060001N1+00801+00701999999ADDGA1021+003009999GA2071+004509999GF107991999999999999999999MA1098611999999MW1611OC102571REMMET059ENFL 071350Z 19039G50KT 6000 -RA SCT010 BKN015 08/07 Q0986;EQDQ01+000003PRSWM1Q02    003PRSWM1
0193013100999992000010714504+61580+005030FM-15+0009ENFL V0201901N019010045019N0050001N1+00801+00701999999ADDGA1021+003009999GA2071+004509999GF107991999999999999999999MA1098611999999MW1611OC102421REMMET059ENFL 071450Z 19037G47KT 5000 -RA SCT010 BKN015 08/07 Q0986;EQDQ01+000003PRSWM1Q02    003PRSWM1
0192013100999992000010715504+61580+005030FM-15+0009ENFL V0201901N018010045019N0040001N1+00801+00701999999ADDGA1021+003009999GA2071+004509999GF107991999999999999999999MA1098511999999MW1631OC102311REMMET058ENFL 071550Z 19035G45KT 4000 RA SCT010 BKN015 08/07 Q0985;EQDQ01+000003PRSWM1Q02    003PRSWM1
0181013100999992000010716504+61580+005030FM-15+0009ENFL V0201901N019010045019N0040001N1+00801+00701999999ADDGA1021+003009999GA2071+004509999GF107991999999999999999999MA1098411999999MW1631REMMET055ENFL 071650Z 19037KT 4000 RA SCT010 BKN015 08/07 Q0984;EQDQ01+000003PRSWM1Q02    003PRSWM1
0192013100999992000010717504+61580+005030FM-15+0009ENFL V0201901N018010060019N0040001N1+00801+00701999999ADDGA1021+004509999GA2071+006009999GF107991999999999999999999MA1098411999999MW1631OC102261REMMET058ENFL 071750Z 19035G44KT 4000 RA SCT015 BKN020 08/07 Q0984;EQDQ01+000003PRSWM1Q02    003PRSWM1
0193013100999992000010718504+61580+005030FM-15+0009ENFL V0201901N015410060019N0050001N1+00801+00701999999ADDGA1021+004509999GA2071+006009999GF107991999999999999999999MA1098311999999MW1611OC102061REMMET059ENFL 071850Z 19030G40KT 5000 -RA SCT015 BKN020 08/07 Q0983;EQDQ01+000003PRSWM1Q02    003PRSWM1
0193013100999992000010719504+61580+005030FM-15+0009ENFL V0201901N017510060019N0050001N1+00801+00701999999ADDGA1021+004509999GA2071+006009999GF107991999999999999999999MA1098211999999MW1611OC102261REMMET059ENFL 071950Z 19034G44KT 5000 -RA SCT015 BKN020 08/07 Q0982;EQDQ01+000003PRSWM1Q02    003PRSWM1
0216013100999992000010720504+61580+005030FM-15+0009ENFL V0202001N015910060019N0050001N1+00801+00701999999ADDGA1021+003609999GA2021+004509999GA3071+006009999GF107991999999999999999999MA1098101999999MW1611OC102111REMMET066ENFL 072050Z 20031G41KT 5000 -RA FEW012 SCT015 BKN020 08/07 Q0981;EQDQ01+000003PRSWM1Q02    003PRSWM1
0193013100999992000010721504+61580+005030FM-15+0009ENFL V0201901N018510036019N0060001N1+00801+00701999999ADDGA1021+002709999GA2071+003609999GF107991999999999999999999MA1098101999999MW1611OC102371REMMET059ENFL 072150Z 19036G46KT 6000 -RA SCT009 BKN012 08/07 Q0981;EQDQ01+000003PRSWM1Q02    003PRSWM1
0209013100999992000010722504+61580+005030FM-15+0009ENFL V0202001N019510036019N0050001N1+00801+00701999999ADDGA1021+002709999GA2071+003609999GF107991999999999999999999MA1098001999999MW1511MW2611OC102621REMMET069ENFL 072250Z 20038G51KT 150V240 5000 -RADZ SCT009 BKN012 08/07 Q0980;EQDQ01+000003PRSWM1Q02    003PRSWM1
0217013100999992000010723204+61580+005030FM-15+0009ENFL V0202001N017010045019N0050001N1+00801+00601999999ADDGA1021+003009999GA2071+004509999GF107991999999999999999999MA1098001999999MW1511MW2611OC102731REMMET077ENFL 072320Z 20033G53KT 160V250 5000 -RADZ FDEW008 SCT010 BKN015 08/06 Q0980;EQDQ01+000003PRSWM1Q02    003PRSWM1
0224013100999992000010723504+61580+005030FM-15+0009ENFL V0202001N015910075019N0112651N1+00801+00601999999ADDGA1021+003009999GA2021+004509999GA3071+007509999GF107991999999999999999999MA1098001999999MW1511OC102371REMMET074ENFL 072350Z 20031G46KT 150V260 9999 -DZ FEW010 SCT015 BKN025 08/06 Q0980;EQDQ01+000003PRSWM1Q02    003PRSWM1
0181013100999992000010800504+61580+005030FM-15+0009ENFL V0202101N011312200019N0112651N1+00701+00501999999ADDGA1021+006009999GA2021+009009999GF104991999999999999999999MA1098211999999MW1001OC101851REMMET063ENFL 080050Z 21022G36KT 160V250 9999 SCT020 SCT030 07/05 Q0982;EQDQ01+000000PRSWM2
0150013100999992000010805204+61580+005030FM-15+0009ENFL V0202101N016512200019N0112651N1+00701+00001999999ADDGA1021+004509999GF102991999999999999999999MA1098101999999MW1001OC102471REMMET048ENFL 080520Z 21032G48KT 9999 FEW015 07/00 Q0981;EQDQ01+000000PRSWM2
0173013100999992000010805504+61580+005030FM-15+0009ENFL V0202001N017012200019N0112651N1+00701+00001999999ADDGA1021+004509999GA2021+009009999GF104991999999999999999999MA1098101999999MW1001OC102471REMMET055ENFL 080550Z 20033G48KT 9999 FEW015 SCT030 07/00 Q0981;EQDQ01+000000PRSWM2
0150013100999992000010806504+61580+005030FM-15+0009ENFL V0202001N019010105019N0112651N1+00701+00101999999ADDGA1071+010509999GF107991999999999999999999MA1098101999999MW1001OC102731REMMET048ENFL 080650Z 20037G53KT 9999 BKN035 07/01 Q0981;EQDQ01+000000PRSWM2
0195013100999992000010807504+61580+005030FM-15+0009ENFL V0202001N020610090019N0090001N1+00701+00201999999ADDGA1021+006009999GA2071+009009999GF107991999999999999999999MA1098101999999MW1801OC103041REMMET061ENFL 080750Z 20040G59KT 9000 -SHRA SCT020 BKN030 07/02 Q0981;EQDQ01+000003PRSWM1Q02    003PRSWM1
0195013100999992000010808504+61580+005030FM-15+0009ENFL V0202001N022110075019N0112651N1+00701+00201999999ADDGA1021+005409999GA2071+007509999GF107991999999999999999999MA1098001999999MW1801OC102931REMMET061ENFL 080850Z 20043G57KT 9999 -SHRA SCT018 BKN025 07/02 Q0980;EQDQ01+000003PRSWM1Q02    003PRSWM1
0173013100999992000010809504+61580+005030FM-15+0009ENFL V0202001N020110060019N0112651N1+00701+00301999999ADDGA1021+004509999GA2071+006009999GF107991999999999999999999MA1098001999999MW1001OC102931REMMET055ENFL 080950Z 20039G57KT 9999 SCT015 BKN020 07/03 Q0980;EQDQ01+000000PRSWM2
0181013100999992000010810504+61580+005030FM-15+0009ENFL V0202001N018510075019N0112651N1+00801+00401999999ADDGA1021+005409999GA2071+007509999GF107991999999999999999999MA1098101999999MW1001OC102831REMMET063ENFL 081050Z 20036G55KT 160V250 9999 FEW018 BKN025 08/04 Q0981;EQDQ01+000000PRSWM2
0183013100999992000010811504+61580+005030FM-15+0009ENFL V0202101N019512200019N0112651N1+00601+00201999999ADDGA1021+005409999GA2021+007509099GF104991999999999999999999MA1098211999999MW1001OC102831REMMET065ENFL 081150Z 21038G55KT 160V260 9999 FEW018 SCT025CB 06/02 Q0982;EQDQ01+000000PRSWM2
0227013100999992000010812204+61580+005030FM-15+0009ENFL V0202201N017012200019N0112651N1+00701+00401999999ADDGA1021+005409999GA2021+007509099GA3021+010509999GF104991999999999999999999MA1098211999999MW1161OC102311REMMET077ENFL 081220Z 22033G45KT 180V260 9999 VCSH FEW018 FEW025CB SCT035 07/04 Q0982;EQDQ01+000003PRSWM1Q02    003PRSWM1
0219013100999992000010812504+61580+005030FM-15+0009ENFL V0202301N019512200019N0112651N1+00701+00401999999ADDGA1021+005409999GA2021+007509099GA3021+021009999GF104991999999999999999999MA1098311999999MW1161OC102571REMMET069ENFL 081250Z 23038G50KT 9999 VCSH FEW018 FEW025CB SCT070 07/04 Q0983;EQDQ01+000003PRSWM1Q02    003PRSWM1
0228013100999992000010813204+61580+005030FM-15+0009ENFL V0202301N018512200019N0112651N1+00701+00501999999ADDGA1021+005409999GA2021+007509099GA3021+010509999GF104991999999999999999999MA1098311999999MW1801OC102571REMMET078ENFL 081320Z 23036G50KT 190V280 9999 -SHRA FEW018 FEW025CB SCT035 07/05 Q0983;EQDQ01+000003PRSWM1Q02    003PRSWM1
0219013100999992000010813504+61580+005030FM-15+0009ENFL V0202301N017012200019N0112651N1+00701+00501999999ADDGA1021+005409999GA2021+007509099GA3021+007509999GF104991999999999999999999MA1098411999999MW1161OC102261REMMET069ENFL 081350Z 23033G44KT 9999 VCSH FEW018 FEW025CB SCT025 07/05 Q0984;EQDQ01+000003PRSWM1Q02    003PRSWM1
0227013100999992000010814204+61580+005030FM-15+0009ENFL V0202201N015910090019N0112651N1+00701+00501999999ADDGA1021+005409999GA2021+007509099GA3071+009009999GF107991999999999999999999MA1098411999999MW1161OC102261REMMET077ENFL 081420Z 22031G44KT 170V260 9999 VCSH FEW018 SCT025CB BKN030 07/05 Q0984;EQDQ01+000003PRSWM1Q02    003PRSWM1
0219013100999992000010814504+61580+005030FM-15+0009ENFL V0202201N014910090019N0112651N1+00701+00401999999ADDGA1021+005409999GA2021+007509099GA3071+009009999GF107991999999999999999999MA1098411999999MW1161OC102011REMMET069ENFL 081450Z 22029G39KT 9999 VCSH FEW018 SCT025CB BKN030 07/04 Q0984;EQDQ01+000003PRSWM1Q02    003PRSWM1
0227013100999992000010815204+61580+005030FM-15+0009ENFL V0202301N014410090019N0112651N1+00701+00401999999ADDGA1021+005409999GA2021+007509099GA3071+009009999GF107991999999999999999999MA1098511999999MW1161OC101951REMMET077ENFL 081520Z 23028G38KT 180V260 9999 VCSH FEW018 SCT025CB BKN030 07/04 Q0985;EQDQ01+000003PRSWM1Q02    003PRSWM1
0198013100999992000010815504+61580+005030FM-15+0009ENFL V0202301N017012200019N0112651N1+00701+00401999999ADDGA1021+005409999GA2021+007509099GA3021+009009999GF104991999999999999999999MA1098511999999MW1001OC102311REMMET064ENFL 081550Z 23033G45KT 9999 FEW018 SCT025CB SCT030 07/04 Q0985;EQDQ01+000000PRSWM2
0206013100999992000010816504+61580+005030FM-15+0009ENFL V0202401N019012200019N0112651N1+00601+00401999999ADDGA1021+005409999GA2021+007509099GA3021+009009999GF104991999999999999999999MA1098611999999MW1001OC103091REMMET072ENFL 081650Z 24037G60KT 200V300 9999 FEW018 SCT025CB SCT030 06/04 Q0986;EQDQ01+000000PRSWM2
0217013100999992000010906504+61580+005030FM-15+0009ENFL V0202501N008710075019N0112651N1+00401+00301999999ADDGA1021+003609999GA2021+006009099GA3071+007509999GF107991999999999999999999MA1100101999999MW1801REMMET075ENFL 090650Z 25017KT 220V300 9999 -SHRA FEW012 SCT020CB BKN025 04/03 Q1001;EQDQ01+000003PRSWM1Q02    003PRSWM1
0239013100999992000010907204+61580+005030FM-15+0009ENFL V0202401N00721007501CN0112651N1+00501+00401999999ADDGA1021+003609999GA2021+006009099GA3021+007509999GA4071+010509999GF107991999999999999999999MA1100101999999MW1161REMMET081ENFL 090720Z 24014KT 200V290 9999 VCSH FEW012 FEW020CB SCT025 BKN035 05/04 Q1001;EQDQ01+000003PRSWM1Q02    003PRSWM1
0216013100999992000010907504+61580+005030FM-15+0009ENFL V0202401N007210075019N0112651N1+00501+00401999999ADDGA1021+003609999GA2021+006009099GA3071+007509999GF107991999999999999999999MA1100201999999MW1161REMMET074ENFL 090750Z 24014KT 200V290 9999 VCSH FEW012 SCT020CB BKN025 05/04 Q1002;EQDQ01+000003PRSWM1Q02    003PRSWM1
0170013100999992000010908504+61580+005030FM-15+0009ENFL V0202401N006712200019N0112651N1+00501+00301999999ADDGA1021+006009999GA2021+009009999GF104991999999999999999999MA1100311999999MW1001REMMET060ENFL 090850Z 24013KT 200V310 9999 SCT020 SCT030 05/03 Q1003;EQDQ01+000000PRSWM2
0193013100999992000010909504+61580+005030FM-15+0009ENFL V0202401N003110075019N0112651N1+00401+00201999999ADDGA1021+006009099GA2071+007509999GF107991999999999999999999MA1100411999999MW1161REMMET067ENFL 090950Z 24006KT 200V290 9999 VCSH SCT020CB BKN025 04/02 Q1004;EQDQ01+000003PRSWM1Q02    003PRSWM1
0206013100999992000010910504+61580+005030FM-15+0009ENFL V0202601N006710075019N0112651N1+00501+00301999999ADDGA1021+004809999GA2021+006009999GA3071+007509999GF107991999999999999999999MA1100511999999MW1161REMMET064ENFL 091050Z 26013KT 9999 VCSH FEW016 SCT020 BKN025 05/03 Q1005;EQDQ01+000003PRSWM1Q02    003PRSWM1
0185013100999992000010911504+61580+005030FM-15+0009ENFL V0202501N003110075019N0112651N1+00401+00301999999ADDGA1021+004809999GA2021+006009999GA3071+007509999GF107991999999999999999999MA1100711999999MW1001REMMET059ENFL 091150Z 25006KT 9999 FEW016 SCT020 BKN025 04/03 Q1007;EQDQ01+000000PRSWM2
0183013100999992000010912504+61580+005030FM-15+0009ENFL V02099999999992200019N0112651N1+00401+00201999999ADDGA1021+004809999GA2021+007509999GF104991999999999999999999MA1100811999999MW1161REMMET057ENFL 091250Z VRB02KT 9999 VCSH FEW016 SCT025 04/02 Q1008;EQDQ01+000003PRSWM1Q02    003PRSWM1
0162013100999992000010913504+61580+005030FM-15+0009ENFL V0202901N006212200019N0112651N1+00501+00101999999ADDGA1021+006009999GA2021+009009999GF104991999999999999999999MA1101021999999MW1001REMMET052ENFL 091350Z 29012KT 9999 FEW020 SCT030 05/01 Q1010;EQDQ01+000000PRSWM2
0185013100999992000010914504+61580+005030FM-15+0009ENFL V0202901N006210090019N0112651N1+00501+00101999999ADDGA1021+006009999GA2021+007509999GA3071+009009999GF107991999999999999999999MA1101081999999MW1001REMMET059ENFL 091450Z 29012KT 9999 FEW020 SCT025 BKN030 05/01 Q1011;EQDQ01+000000PRSWM2
0162013100999992000010915504+61580+005030FM-15+0009ENFL V0202801N003112200019N0112651N1+00501+00201999999ADDGA1021+006009999GA2021+009009999GF104991999999999999999999MA1101191999999MW1001REMMET052ENFL 091550Z 28006KT 9999 FEW020 SCT030 05/02 Q1012;EQDQ01+000000PRSWM2
0142013100999992000010916504+61580+005030FM-15+0009ENFL V0202601N005112200019N0112651N1+00401+00201999999ADDGA1021+006009029GF102991999999999999999999MA1101291999999MW1001REMMET048ENFL 091650Z 26010KT 9999 FEW020TCU 04/02 Q1013;EQDQ01+000000PRSWM2
0139013100999992000010918204+61580+005030FM-15+0009ENFL V0202901N003612200019N0112651N1+00401+00201999999ADDGA1021+009009999GF102991999999999999999999MA1101491999999MW1001REMMET045ENFL 091820Z 29007KT 9999 FEW030 04/02 Q1015;EQDQ01+000000PRSWM2
0139013100999992000010918504+61580+005030FM-15+0009ENFL V0202701N003112200019N0112651N1+00401+00201999999ADDGA1021+006009999GF102991999999999999999999MA1101491999999MW1001REMMET045ENFL 091850Z 27006KT 9999 FEW020 04/02 Q1015;EQDQ01+000000PRSWM2
0139013100999992000010919504+61580+005030FM-15+0009ENFL V0202601N005712200019N0112651N1+00401+00101999999ADDGA1021+009009999GF102991999999999999999999MA1101591999999MW1001REMMET045ENFL 091950Z 26011KT 9999 FEW030 04/01 Q1016;EQDQ01+000000PRSWM2
0139013100999992000010920504+61580+005030FM-15+0009ENFL V0202501N004112200019N0112651N1+00401+00001999999ADDGA1021+009009999GF104991999999999999999999MA1101591999999MW1001REMMET045ENFL 092050Z 25008KT 9999 SCT030 04/00 Q1016;EQDQ01+000000PRSWM2
0139013100999992000010921504+61580+005030FM-15+0009ENFL V0202301N005112200019N0112651N1+00501+00101999999ADDGA1021+009009999GF102991999999999999999999MA1101691999999MW1001REMMET045ENFL 092150Z 23010KT 9999 FEW030 05/01 Q1017;EQDQ01+000000PRSWM2
0139013100999992000010922504+61580+005030FM-15+0009ENFL V0202301N008712200019N0112651N1+00401+00101999999ADDGA1021+006009999GF104991999999999999999999MA1101801999999MW1001REMMET045ENFL 092250Z 23017KT 9999 SCT020 04/01 Q1018;EQDQ01+000000PRSWM2
0209013100999992000011004204+61580+005030FM-15+0009ENFL V0201701N009810075019N0112651N1+00501+00301999999ADDGA1021+004509999GA2021+006009099GA3071+007509999GF107991999999999999999999MA1101691999999MW1801REMMET067ENFL 100420Z 17019KT 9999 -SHRA FEW015 SCT020CB BKN025 05/03 Q1017;EQDQ01+000003PRSWM1Q02    003PRSWM1
0186013100999992000011004504+61580+005030FM-15+0009ENFL V0201701N010312200019N0112651N1+00601+00401999999ADDGA1021+006009029GA2021+010509999GF104991999999999999999999MA1101691999999MW1161REMMET060ENFL 100450Z 17020KT 9999 VCSH SCT020TCU SCT035 06/04 Q1017;EQDQ01+000003PRSWM1Q02    003PRSWM1
0162013100999992000011005504+61580+005030FM-15+0009ENFL V0201701N010812200019N0112651N1+00601+00301999999ADDGA1021+007509999GA2021+010509999GF104991999999999999999999MA1101691999999MW1001REMMET052ENFL 100550Z 17021KT 9999 SCT025 SCT035 06/03 Q1017;EQDQ01+000000PRSWM2
0173013100999992000011006504+61580+005030FM-15+0009ENFL V0201701N013412200019N0112651N1+00601+00101999999ADDGA1021+007509999GA2021+010509999GF104991999999999999999999MA1101591999999MW1001OC101851REMMET055ENFL 100650Z 17026G36KT 9999 SCT025 SCT035 06/01 Q1016;EQDQ01+000000PRSWM2
0173013100999992000011007504+61580+005030FM-15+0009ENFL V0201701N014412200019N0112651N1+00601+00101999999ADDGA1021+007509999GA2021+010509999GF104991999999999999999999MA1101591999999MW1001OC102061REMMET055ENFL 100750Z 17028G40KT 9999 SCT025 SCT035 06/01 Q1016;EQDQ01+000000PRSWM2
0186013100999992000011008504+61580+005030FM-15+0009ENFL V02099999999990105019N0112651N1+00601+00101999999ADDGA1021+006009999GA2021+007509999GA3071+010509999GF107991999999999999999999MA1101491999999MW1001REMMET060ENFL 100850Z 17030G40 9999 FEW020 SCT025 BKN035 06/01 Q1015;EQDQ01+000000PRSWM2
0162013100999992000011009504+61580+005030FM-15+0009ENFL V0201601N016510105019N0112651N1+00601+00101999999ADDGA1021+007509999GA2071+010509999GF107991999999999999999999MA1101391999999MW1001REMMET052ENFL 100950Z 16032KT 9999 SCT025 BKN035 06/01 Q1014;EQDQ01+000000PRSWM2
0173013100999992000011010504+61580+005030FM-15+0009ENFL V0201701N015910090019N0112651N1+00601+00101999999ADDGA1021+007509999GA2071+009009999GF107991999999999999999999MA1101291999999MW1001OC102261REMMET055ENFL 101050Z 17031G44KT 9999 SCT025 BKN030 06/01 Q1013;EQDQ01+000000PRSWM2
0195013100999992000011011504+61580+005030FM-15+0009ENFL V0201701N015410075019N0112651N1+00601+00401999999ADDGA1021+006009999GA2071+007509999GF107991999999999999999999MA1101191999999MW1801OC102061REMMET061ENFL 101150Z 17030G40KT 9999 -SHRA FEW020 BKN025 06/04 Q1012;EQDQ01+000003PRSWM1Q02    003PRSWM1
0195013100999992000011013204+61580+005030FM-15+0009ENFL V0201701N015910060019N0090001N1+00501+00301999999ADDGA1021+004509999GA2071+006009999GF107991999999999999999999MA1101081999999MW1801OC102161REMMET061ENFL 101320Z 17031G42KT 9000 -SHRA SCT015 BKN020 05/03 Q1011;EQDQ01+000003PRSWM1Q02    003PRSWM1
0195013100999992000011013504+61580+005030FM-15+0009ENFL V0201801N017010060019N0090001N1+00501+00301999999ADDGA1021+004509999GA2071+006009999GF107991999999999999999999MA1101081999999MW1801OC102211REMMET061ENFL 101350Z 18033G43KT 9000 -SHRA SCT015 BKN020 05/03 Q1011;EQDQ01+000003PRSWM1Q02    003PRSWM1
0193013100999992000011014504+61580+005030FM-15+0009ENFL V0201901N015910060019N0070001N1+00601+00501999999ADDGA1021+004509999GA2071+006009999GF107991999999999999999999MA1101021999999MW1611OC102311REMMET059ENFL 101450Z 19031G45KT 7000 -RA SCT015 BKN020 06/05 Q1010;EQDQ01+000003PRSWM1Q02    003PRSWM1
0181013100999992000011015504+61580+005030FM-15+0009ENFL V0201801N016510054019N0070001N1+00601+00501999999ADDGA1021+003609999GA2071+005409999GF107991999999999999999999MA1100911999999MW1631REMMET055ENFL 101550Z 18032KT 7000 RA SCT012 BKN018 06/05 Q1009;EQDQ01+000003PRSWM1Q02    003PRSWM1
0181013100999992000011016504+61580+005030FM-15+0009ENFL V0201901N014410054019N0070001N1+00701+00601999999ADDGA1021+003609999GA2071+005409999GF107991999999999999999999MA1100911999999MW1631REMMET055ENFL 101650Z 19028KT 7000 RA SCT012 BKN018 07/06 Q1009;EQDQ01+000003PRSWM1Q02    003PRSWM1
0185013100999992000011017504+61580+005030FM-15+0009ENFL V0202001N011810075019N0112651N1+00701+00701999999ADDGA1021+004509999GA2021+005409999GA3071+007509999GF107991999999999999999999MA1100911999999MW1001REMMET059ENFL 101750Z 20023KT 9999 FEW015 SCT018 BKN025 07/07 Q1009;EQDQ01+000000PRSWM2
0193013100999992000011019204+61580+005030FM-15+0009ENFL V0202101N008210060019N0112651N1+00801+00601999999ADDGA1021+003009999GA2021+004509999GA3071+006009999GF107991999999999999999999MA1100911999999MW1001REMMET067ENFL 101920Z 21016KT 170V250 9999 FEW010 SCT015 BKN020 08/06 Q1009;EQDQ01+000000PRSWM2
0162013100999992000011019504+61580+005030FM-15+0009ENFL V0202301N007710075019N0112651N1+00601+00601999999ADDGA1021+004509999GA2071+007509999GF107991999999999999999999MA1101021999999MW1001REMMET052ENFL 101950Z 23015KT 9999 SCT015 BKN025 06/06 Q1010;EQDQ01+000000PRSWM2
0185013100999992000011020504+61580+005030FM-15+0009ENFL V0202301N008710150019N0112651N1+00701+00501999999ADDGA1021+004509999GA2021+007509999GA3071+015009999GF107991999999999999999999MA1101021999999MW1001REMMET059ENFL 102050Z 23017KT 9999 FEW015 SCT025 BKN050 07/05 Q1010;EQDQ01+000000PRSWM2
0215013100999992000011021504+61580+005030FM-15+0009ENFL V0202301N007710150019N0112651N1+00601+00401999999ADDGA1021+004509999GA2021+006009099GA3071+015009999GF107991999999999999999999MA1101081999999MW1161REMMET073ENFL 102150Z 23015KT 9999 VCSH FEW015 SCT020CB BKN050 06/04 Q1011 RERAGS;EQDQ01+000003PRSWM1Q02    003PRSWM1
0164013100999992000011022504+61580+005030FM-15+0009ENFL V0202301N009310150019N0112651N1+00701+00401999999ADDGA1021+006009099GA2071+015009999GF107991999999999999999999MA1101081999999MW1001REMMET054ENFL 102250Z 23018KT 9999 SCT020CB BKN050 07/04 Q1011;EQDQ01+000000PRSWM2
0162013100999992000011104204+61580+005030FM-15+0009ENFL V0202401N009812200019N0112651N1+00701+00401999999ADDGA1021+006009999GA2021+007509999GF104991999999999999999999MA1101291999999MW1001REMMET052ENFL 110420Z 24019KT 9999 FEW020 SCT025 07/04 Q1013;EQDQ01+000000PRSWM2
0162013100999992000011104504+61580+005030FM-15+0009ENFL V0202301N009812200019N0112651N1+00701+00401999999ADDGA1021+006009999GA2021+007509999GF104991999999999999999999MA1101291999999MW1001REMMET052ENFL 110450Z 23019KT 9999 FEW020 SCT025 07/04 Q1013;EQDQ01+000000PRSWM2
0164013100999992000011105504+61580+005030FM-15+0009ENFL V0202301N009810150019N0112651N1+00601+00301999999ADDGA1021+006009099GA2071+015009999GF107991999999999999999999MA1101391999999MW1001REMMET054ENFL 110550Z 23019KT 9999 FEW020CB BKN050 06/03 Q1014;EQDQ01+000000PRSWM2
0164013100999992000011107204+61580+005030FM-15+0009ENFL V0202301N009312200019N0112651N1+00601+00201999999ADDGA1021+004509099GA2021+007509999GF104991999999999999999999MA1101391999999MW1001REMMET054ENFL 110720Z 23018KT 9999 FEW015CB SCT025 06/02 Q1014;EQDQ01+000000PRSWM2
0186013100999992000011108204+61580+005030FM-15+0009ENFL V0202101N010810075019N0112651N1+00601+00401999999ADDGA1021+005409099GA2071+007509999GF107991999999999999999999MA1101391999999MW1801REMMET060ENFL 110820Z 21021KT 9999 -SHRA FEW018CB BKN025 06/04 Q1014;EQDQ01+000003PRSWM1Q02    003PRSWM1
0181013100999992000011108504+61580+005030FM-15+0009ENFL V0202101N010812200019N0112651N1+00701+00401999999ADDGA1021+006009999GA2021+009009999GF104991999999999999999999MA1101391999999MW1001OC101751REMMET063ENFL 110850Z 21021G34KT 170V260 9999 SCT020 SCT030 07/04 Q1014;EQDQ01+000000PRSWM2
0162013100999992000011110204+61580+005030FM-15+0009ENFL V0202101N008712200019N0112651N1+00701+00401999999ADDGA1021+006009999GA2021+007509999GF104991999999999999999999MA1101491999999MW1001REMMET052ENFL 111020Z 21017KT 9999 FEW020 SCT025 07/04 Q1015;EQDQ01+000000PRSWM2
0206013100999992000011110504+61580+005030FM-15+0009ENFL V0202101N008210075019N0112651N1+00701+00401999999ADDGA1021+004509999GA2021+006009999GA3071+007509999GF107991999999999999999999MA1101391999999MW1161REMMET064ENFL 111050Z 21016KT 9999 VCSH FEW015 SCT020 BKN025 07/04 Q1014;EQDQ01+000003PRSWM1Q02    003PRSWM1
0206013100999992000011111504+61580+005030FM-15+0009ENFL V0201901N009810120019N0112651N1+00601+00301999999ADDGA1021+004509999GA2021+006009999GA3071+012009999GF107991999999999999999999MA1101391999999MW1161REMMET064ENFL 111150Z 19019KT 9999 VCSH FEW015 SCT020 BKN040 06/03 Q1014;EQDQ01+000003PRSWM1Q02    003PRSWM1
0171013100999992000011113504+61580+005030FM-16+0009ENFL V0202001N013412200019N0112651N1+99999+99999999999ADDGA1021+006009099GA2021+036009999GF104991999999999999999999MW1001MW2161OC101951REMMET062ENFL 111250Z 20026G38KT 9999 VCSH SCT020CB SCT120 07703 Q1013;EQDQ01+000003PRSWM1
0185013100999992000011114204+61580+005030FM-15+0009ENFL V0202001N011312200019N0112651N1+00701+00301999999ADDGA1021+006009099GA2021+012009999GF104991999999999999999999MA1101291999999MW1161REMMET059ENFL 111420Z 20022KT 9999 VCSH SCT020CB SCT040 07/03 Q1013;EQDQ01+000003PRSWM1Q02    003PRSWM1
0209013100999992000011114504+61580+005030FM-15+0009ENFL V0202001N010810240019N0112651N1+00701+00301999999ADDGA1021+006009999GA2021+007509029GA3071+024009999GF107991999999999999999999MA1101191999999MW1161REMMET067ENFL 111450Z 20021KT 9999 VCSH FEW020 SCT025TCU BKN080 07/03 Q1012;EQDQ01+000003PRSWM1Q02    003PRSWM1
0165013100999992000011115504+61580+005030FM-15+0009ENFL V0201901N012910075019N0112651N1+00701+00301999999ADDGA1021+006009029GA2071+007509999GF107991999999999999999999MA1101191999999MW1001REMMET055ENFL 111550Z 19025KT 9999 FEW020TCU BKN025 07/03 Q1012;EQDQ01+000000PRSWM2
0185013100999992000011116504+61580+005030FM-15+0009ENFL V0201901N013910075019N0112651N1+00701+00401999999ADDGA1021+006009099GA2071+007509999GF107991999999999999999999MA1101021999999MW1161REMMET059ENFL 111650Z 19027KT 9999 VCSH SCT020CB BKN025 07/04 Q1010;EQDQ01+000003PRSWM1Q02    003PRSWM1
0187013100999992000011117504+61580+005030FM-15+0009ENFL V0201901N014910075019N0112651N1+00701+00501999999ADDGA1021+006009029GA2071+007509999GF107991999999999999999999MA1101021999999MW1801REMMET061ENFL 111750Z 19029KT 9999 -SHRA SCT020TCU BKN025 07/05 Q1010;EQDQ01+000003PRSWM1Q02    003PRSWM1
0184013100999992000011118504+61580+005030FM-15+0009ENFL V0201801N015910075019N0112651N1+00701+00501999999ADDGA1021+006009999GA2071+007509999GF107991999999999999999999MA1100811999999MW1801REMMET058ENFL 111850Z 18031KT 9999 -SHRA SCT020 BKN025 07/05 Q1008;EQDQ01+000003PRSWM1Q02    003PRSWM1
0158013100999992000011119504+61580+005030FM-15+0009ENFL V0201901N015910060019N0112651N1+00601+00501999999ADDGA1071+006009999GF107991999999999999999999MA1100811999999MW1631REMMET048ENFL 111950Z 19031KT 9999 RA BKN020 06/05 Q1008;EQDQ01+000003PRSWM1Q02    003PRSWM1
0192013100999992000011120504+61580+005030FM-15+0009ENFL V0201901N018510075019N0080001N1+00701+00501999999ADDGA1021+006009999GA2071+007509999GF107991999999999999999999MA1100611999999MW1631OC102421REMMET058ENFL 112050Z 19036G47KT 8000 RA SCT020 BKN025 07/05 Q1006;EQDQ01+000003PRSWM1Q02    003PRSWM1
0195013100999992000011121504+61580+005030FM-15+0009ENFL V0202001N015410060019N0112651N1+00701+00601999999ADDGA1021+004509099GA2071+006009999GF107991999999999999999999MA1100611999999MW1611OC102111REMMET061ENFL 112150Z 20030G41KT 9999 -RA FEW015CB BKN020 07/06 Q1006;EQDQ01+000003PRSWM1Q02    003PRSWM1
0202013100999992000011122504+61580+005030FM-15+0009ENFL V0202401N009810054019N0080001N1+00501+00401999999ADDGA1021+004509099GA2071+005409999GF107991999999999999999999MA1100611999999MW1811MW2951OC101591REMMET062ENFL 112250Z 24019G31KT 8000 TSRA SCT015CB BKN018 05/04 Q1006;EQDQ01+000003PRSWM1Q02    003PRSWM1
0162013100999992000011204204+61580+005030FM-15+0009ENFL V0202801N004110090019N0112651N1+00501+00201999999ADDGA1021+006009999GA2071+009009999GF107991999999999999999999MA1100611999999MW1001REMMET052ENFL 120420Z 28008KT 9999 SCT020 BKN030 05/02 Q1006;EQDQ01+000000PRSWM2
0188013100999992000011204504+61580+005030FM-15+0009ENFL V0202601N003110150019N0112651N1+00501+00201999999ADDGA1021+006009029GA2021+009009999GA3071+015009999GF107991999999999999999999MA1100611999999MW1001REMMET062ENFL 120450Z 26006KT 9999 FEW020TCU SCT030 BKN050 05/02 Q1006;EQDQ01+000000PRSWM2
0192013100999992000011205504+61580+005030FM-15+0009ENFL V0202401N003110090019N0112651N1+00401+00201999999ADDGA1021+006009099GA2071+009009999GF107991999999999999999999MA1100611999999MW1171REMMET066ENFL 120550Z 24006KT 9999 VCTS SCT020CB BKN030 04/02 Q1006 RERAGS;EQDQ01+000003PRSWM1Q02    003PRSWM1
0164013100999992000011206504+61580+005030FM-15+0009ENFL V0202201N003112200019N0112651N1+00401+00201999999ADDGA1021+004509099GA2021+006009999GF104991999999999999999999MA1100811999999MW1001REMMET054ENFL 120650Z 22006KT 9999 FEW015CB SCT020 04/02 Q1008;EQDQ01+000000PRSWM2
0139013100999992000011207504+61580+005030FM-15+0009ENFL V0202101N005112200019N0112651N1+00501+00201999999ADDGA1021+006609999GF104991999999999999999999MA1100811999999MW1001REMMET045ENFL 120750Z 21010KT 9999 SCT022 05/02 Q1008;EQDQ01+000000PRSWM2
0141013100999992000011208504+61580+005030FM-15+0009ENFL V0201901N006712200019N0112651N1+00501+00301999999ADDGA1021+006009099GF104991999999999999999999MA1100811999999MW1001REMMET047ENFL 120850Z 19013KT 9999 SCT020CB 05/03 Q1008;EQDQ01+000000PRSWM2
0165013100999992000011209504+61580+005030FM-15+0009ENFL V0201901N008212200019N0112651N1+00501+00301999999ADDGA1021+006009029GA2021+009009999GF104991999999999999999999MA1100911999999MW1001REMMET055ENFL 120950Z 19016KT 9999 SCT020TCU SCT030 05/03 Q1009;EQDQ01+000000PRSWM2
0142013100999992000011210504+61580+005030FM-15+0009ENFL V0201901N008212200019N0112651N1+00601+00401999999ADDGA1021+006009029GF104991999999999999999999MA1100911999999MW1001REMMET048ENFL 121050Z 19016KT 9999 SCT020TCU 06/04 Q1009;EQDQ01+000000PRSWM2
0165013100999992000011211504+61580+005030FM-15+0009ENFL V0201901N007710240019N0112651N1+00601+00301999999ADDGA1021+006009029GA2071+024009999GF107991999999999999999999MA1100911999999MW1001REMMET055ENFL 121150Z 19015KT 9999 SCT020TCU BKN080 06/03 Q1009;EQDQ01+000000PRSWM2
0209013100999992000011212504+61580+005030FM-15+0009ENFL V0201701N008210075019N0112651N1+00601+00401999999ADDGA1021+003609999GA2021+006009099GA3071+007509999GF107991999999999999999999MA1100811999999MW1801REMMET067ENFL 121250Z 17016KT 9999 -SHRA FEW012 FEW020CB BKN025 06/04 Q1008;EQDQ01+000003PRSWM1Q02    003PRSWM1
0207013100999992000011213504+61580+005030FM-15+0009ENFL V0201401N008210090019N0112651N1+00501+00301999999ADDGA1021+003909999GA2021+006609999GA3071+009009999GF107991999999999999999999MA1100811999999MW1801REMMET065ENFL 121350Z 14016KT 9999 -SHRA FEW013 SCT022 BKN030 05/03 Q1008;EQDQ01+000003PRSWM1Q02    003PRSWM1
0215013100999992000011214504+61580+005030FM-15+0009ENFL V0201801N008210054019N0112651N1+00301+00201999999ADDGA1021+002409999GA2021+003609999GA3071+005409999GF107991999999999999999999MA1100811999999MW1801REMMET073ENFL 121450Z 18016KT 150V220 9999 -SHRA FEW008 SCT012 BKN018 03/02 Q1008;EQDQ01+000003PRSWM1Q02    003PRSWM1
0207013100999992000011215504+61580+005030FM-15+0009ENFL V0201101N005710045019N0112651N1+00301+00201999999ADDGA1021+002409999GA2021+003609999GA3071+004509999GF107991999999999999999999MA1100711999999MW1801REMMET065ENFL 121550Z 11011KT 9999 -SHRA FEW008 SCT012 BKN015 03/02 Q1007;EQDQ01+000003PRSWM1Q02    003PRSWM1
0190013100999992000011216504+61580+005030FM-15+0009ENFL V0200901N006210030019N0112651N1+00201+00101999999ADDGA1021+002409999GA2071+003009999GF107991999999999999999999MA1100711999999MW1611MW2711REMMET058ENFL 121650Z 09012KT 9999 -RASN FEW008 BKN010 02/01 Q1007;EQDQ01+000003PRSWM1Q02    003PRSWM1
0190013100999992000011217504+61580+005030FM-15+0009ENFL V0200901N002110036019N0090001N1+00101+00001999999ADDGA1021+002409999GA2071+003609999GF107991999999999999999999MA1100711999999MW1611MW2711REMMET058ENFL 121750Z 09004KT 9000 -SNRA FEW008 BKN012 01/00 Q1007;EQDQ01+000003PRSWM1Q02    003PRSWM1
0157013100999992000011218504+61580+005030FM-15+0009ENFL V0209999999999000151CN0020001N1+00001+00001999999ADDGA1091+000159999GF109991999999000251999999MA1100611999999MW1731REMMET047ENFL 121850Z VRB02KT 2000 SN VV006 00/00 Q1006;EQDQ01+000003PRSWM1Q02    003PRSWM1
0157013100999992000011219504+61580+005030FM-15+0009ENFL V0209999C00001000151CN0015001N1+00001+00001999999ADDGA1091+000159999GF109991999999000251999999MA1100711999999MW1731REMMET047ENFL 121950Z 00000KT 1500 SN VV005 00/00 Q1007;EQDQ01+000003PRSWM1Q02    003PRSWM1
0182013100999992000011220504+61580+005030FM-15+0009ENFL V0201901N003110024019N0112651N1+00101+00101999999ADDGA1021+001809999GA2071+002409999GF107991999999999999999999MA1100711999999MW1611REMMET056ENFL 122050Z 19006KT 9999 -RA SCT006 BKN008 01/01 Q1007;EQDQ01+000003PRSWM1Q02    003PRSWM1
0185013100999992000011221504+61580+005030FM-15+0009ENFL V0202401N006210045019N0112651N1+00301+00301999999ADDGA1021+002109999GA2021+003009999GA3071+004509999GF107991999999999999999999MA1100811999999MW1001REMMET059ENFL 122150Z 24012KT 9999 FEW007 SCT010 BKN015 03/03 Q1008;EQDQ01+000000PRSWM2
0162013100999992000011222504+61580+005030FM-15+0009ENFL V0202101N004612200019N0112651N1+00301+00201999999ADDGA1021+004509999GA2021+007509999GF104991999999999999999999MA1100911999999MW1001REMMET052ENFL 122250Z 21009KT 9999 FEW015 SCT025 03/02 Q1009;EQDQ01+000000PRSWM2
0162013100999992000011223504+61580+005030FM-15+0009ENFL V0202001N006212200019N0112651N1+00301+00201999999ADDGA1021+003609999GA2021+006009999GF104991999999999999999999MA1100911999999MW1001REMMET052ENFL 122350Z 20012KT 9999 FEW012 SCT020 03/02 Q1009;EQDQ01+000000PRSWM2
0192013100999992000011304204+61580+005030FM-15+0009ENFL V0200701N004110090019N0112651N1+00101+00001999999ADDGA1021+003609999GA2071+009009999GF107991999999999999999999MA1101191999999MW1801MW2851REMMET060ENFL 130420Z 07008KT 9999 -SHSNRA SCT012 BKN030 01/00 Q1012;EQDQ01+000003PRSWM1Q02    003PRSWM1
0170013100999992000011304504+61580+005030FM-15+0009ENFL V0200801N004112200019N0112651N1+00101+00001999999ADDGA1021+003609999GA2021+009009999GF104991999999999999999999MA1101191999999MW1001REMMET060ENFL 130450Z 08008KT 040V110 9999 FEW012 SCT030 01/00 Q1012;EQDQ01+000000PRSWM2
0139013100999992000011305504+61580+005030FM-15+0009ENFL V0200701N003112200019N0112651N1+00101+00001999999ADDGA1021+007509999GF102991999999999999999999MA1101291999999MW1001REMMET045ENFL 130550Z 07006KT 9999 FEW025 01/00 Q1013;EQDQ01+000000PRSWM2
0139013100999992000011306504+61580+005030FM-15+0009ENFL V0200601N003612200019N0112651N1+00101+00001999999ADDGA1021+007509999GF104991999999999999999999MA1101291999999MW1001REMMET045ENFL 130650Z 06007KT 9999 SCT025 01/00 Q1013;EQDQ01+000000PRSWM2
0184013100999992000011307504+61580+005030FM-15+0009ENFL V0200701N002612200019N0112651N1+00101+00001999999ADDGA1021+001509999GA2021+007509999GF104991999999999999999999MA1101391999999MW1801REMMET058ENFL 130750Z 07005KT 9999 -SHRA FEW005 SCT025 01/00 Q1014;EQDQ01+000003PRSWM1Q02    003PRSWM1
0165013100999992000011308504+61580+005030FM-15+0009ENFL V0200901N003612200019N0112651N1+00101+00001999999ADDGA1021+001509999GA2021+006009029GF102991999999999999999999MA1101491999999MW1001REMMET055ENFL 130850Z 09007KT 9999 FEW005 FEW020TCU 01/00 Q1015;EQDQ01+000000PRSWM2
0139013100999992000011309504+61580+005030FM-15+0009ENFL V0200801N003112200019N0112651N1+00101+00001999999ADDGA1021+009009999GF102991999999999999999999MA1101591999999MW1001REMMET045ENFL 130950Z 08006KT 9999 FEW030 01/00 Q1016;EQDQ01+000000PRSWM2
0139013100999992000011310504+61580+005030FM-15+0009ENFL V0200701N003112200019N0112651N1+00101+00001999999ADDGA1021+009009999GF104991999999999999999999MA1101591999999MW1001REMMET045ENFL 131050Z 07006KT 9999 SCT030 01/00 Q1016;EQDQ01+000000PRSWM2
0139013100999992000011311504+61580+005030FM-15+0009ENFL V0200701N002112200019N0112651N1+00101+00001999999ADDGA1021+009009999GF102991999999999999999999MA1101691999999MW1001REMMET045ENFL 131150Z 07004KT 9999 FEW030 01/00 Q1017;EQDQ01+000000PRSWM2
0139013100999992000011313204+61580+005030FM-15+0009ENFL V0209999C000012200019N0112651N1+00201+00101999999ADDGA1021+006009999GF102991999999999999999999MA1101691999999MW1001REMMET045ENFL 131320Z 00000KT 9999 FEW020 02/01 Q1017;EQDQ01+000000PRSWM2
0138013100999992000011313504+61580+005030FM-15+0009ENFL V0200701N002612200019N0112651N1+00101+00001999999ADDGA1021+006009999GF102991999999999999999999MA1101691999999MW1001REMMET044ENFL 131350Z 07005KT 9999 FEW020 1/00 Q1017;EQDQ01+000000PRSWM2
0139013100999992000011314504+61580+005030FM-15+0009ENFL V02099999999992200019N0112651N1+00101+00001999999ADDGA1021+006009999GF102991999999999999999999MA1101801999999MW1001REMMET045ENFL 131450Z VRB03KT 9999 FEW020 01/00 Q1018;EQDQ01+000000PRSWM2
0139013100999992000011315504+61580+005030FM-15+0009ENFL V02099999999992200019N0112651N1+00301+00201999999ADDGA1021+006009999GF102991999999999999999999MA1101901999999MW1001REMMET045ENFL 131550Z VRB03KT 9999 FEW020 03/02 Q1019;EQDQ01+000000PRSWM2
0139013100999992000011316504+61580+005030FM-15+0009ENFL V0200201N004612200019N0112651N1+00301+00001999999ADDGA1021+006009999GF102991999999999999999999MA1101901999999MW1001REMMET045ENFL 131650Z 02009KT 9999 FEW020 03/00 Q1019;EQDQ01+000000PRSWM2
0139013100999992000011317504+61580+005030FM-15+0009ENFL V0200701N002112200019N0112651N1+00101+00001999999ADDGA1021+006009999GF102991999999999999999999MA1102001999999MW1001REMMET045ENFL 131750Z 07004KT 9999 FEW020 01/00 Q1020;EQDQ01+000000PRSWM2
0139013100999992000011318504+61580+005030FM-15+0009ENFL V0200701N002112200019N0112651N1+00301+00001999999ADDGA1021+006009999GF102991999999999999999999MA1102201999999MW1001REMMET045ENFL 131850Z 07004KT 9999 FEW020 03/00 Q1022;EQDQ01+000000PRSWM2
0147013100999992000011319504+61580+005030FM-15+0009ENFL V0200201N004112200019N0112651N1+00301+00001999999ADDGA1021+010509999GF102991999999999999999999MA1102201999999MW1001REMMET053ENFL 131950Z 02008KT 340V060 9999 FEW035 03/00 Q1022;EQDQ01+000000PRSWM2
0140013100999992000011321204+61580+005030FM-15+0009ENFL V0200801N002612200019N0112651N1+00101-00201999999ADDGA1021+009009999GF102991999999999999999999MA1102201999999MW1001REMMET046ENFL 132120Z 08005KT 9999 FEW030 01/M02 Q1022;EQDQ01+000000PRSWM2
0140013100999992000011321504+61580+005030FM-15+0009ENFL V0200301N003612200019N0112651N1+00201-00201999999ADDGA1021+009009999GF102991999999999999999999MA1102301999999MW1001REMMET046ENFL 132150Z 03007KT 9999 FEW030 02/M02 Q1023;EQDQ01+000000PRSWM2
0140013100999992000011322504+61580+005030FM-15+0009ENFL V0209999C000012200019N0112651N1+00101-00101999999ADDGA1021+007509999GF102991999999999999999999MA1102301999999MW1001REMMET046ENFL 132250Z 00000KT 9999 FEW025 01/M01 Q1023;EQDQ01+000000PRSWM2
0093013100999992000011404204+61580+005030FM-15+0009ENFL V0209999C00001220001CN0099001N1-00101-00201999999ADDMA1102611999999MW1001REMMET041ENFL 140420Z 00000KT CAVOK M01/M02 Q1026;EQDQ01+000000PRSWM2
0093013100999992000011404504+61580+005030FM-15+0009ENFL V0209999C00001220001CN0099001N1-00101-00201999999ADDMA1102711999999MW1001REMMET041ENFL 140450Z 00000KT CAVOK M01/M02 Q1027;EQDQ01+000000PRSWM2
0093013100999992000011405504+61580+005030FM-15+0009ENFL V0209999999999220001CN0099001N1-00101-00201999999ADDMA1102711999999MW1001REMMET041ENFL 140550Z VRB02KT CAVOK M01/M02 Q1027;EQDQ01+000000PRSWM2
0140013100999992000011407504+61580+005030FM-15+0009ENFL V0209999C000012200019N0112651N1+00001-00101999999ADDGA1021+007509999GF102991999999999999999999MA1102811999999MW1001REMMET046ENFL 140750Z 00000KT 9999 FEW025 00/M01 Q1028;EQDQ01+000000PRSWM2
0141013100999992000011408504+61580+005030FM-15+0009ENFL V0200801N002612200019N0112651N1-00101-00301999999ADDGA1021+009009999GF102991999999999999999999MA1102811999999MW1001REMMET047ENFL 140850Z 08005KT 9999 FEW030 M01/M03 Q1028;EQDQ01+000000PRSWM2
0141013100999992000011409504+61580+005030FM-15+0009ENFL V0209999C000012200019N0112651N1-00101-00201999999ADDGA1021+009009999GF102991999999999999999999MA1102911999999MW1001REMMET047ENFL 140950Z 00000KT 9999 FEW030 M01/M02 Q1029;EQDQ01+000000PRSWM2
0141013100999992000011410504+61580+005030FM-15+0009ENFL V02099999999992200019N0112651N1-00101-00201999999ADDGA1021+009009999GF102991999999999999999999MA1102911999999MW1001REMMET047ENFL 141050Z VRB01KT 9999 FEW030 M01/M02 Q1029;EQDQ01+000000PRSWM2
0141013100999992000011411504+61580+005030FM-15+0009ENFL V0209999C000012200019N0112651N1+00001-00201999999ADDGA1021+009009999GF104991999999999999999999MA1102911999999MW1001REMMET047ENFL 141150Z 00000KT 9999 SCT030 M00/M02 Q1029;EQDQ01+000000PRSWM2
0141013100999992000011412504+61580+005030FM-15+0009ENFL V02099999999992200019N0112651N1-00101-00301999999ADDGA1021+009009999GF104991999999999999999999MA1102911999999MW1001REMMET047ENFL 141250Z VRB02KT 9999 SCT030 M01/M03 Q1029;EQDQ01+000000PRSWM2
0164013100999992000011413504+61580+005030FM-15+0009ENFL V0201001N000510120019N0112651N1+00001-00201999999ADDGA1021+007509999GA2071+012009999GF107991999999999999999999MA1103011999999MW1001REMMET054ENFL 141350Z 10001KT 9999 SCT025 BKN040 M00/M02 Q1030;EQDQ01+000000PRSWM2
0164013100999992000011414504+61580+005030FM-15+0009ENFL V0200801N001510105019N0112651N1+00001-00101999999ADDGA1021+007509999GA2071+010509999GF107991999999999999999999MA1103011999999MW1001REMMET054ENFL 141450Z 08003KT 9999 SCT025 BKN035 M00/M01 Q1030;EQDQ01+000000PRSWM2
0164013100999992000011415504+61580+005030FM-15+0009ENFL V0201001N001010120019N0112651N1+00001-00101999999ADDGA1021+007509999GA2071+012009999GF107991999999999999999999MA1103011999999MW1001REMMET054ENFL 141550Z 10002KT 9999 SCT025 BKN040 M00/M01 Q1030;EQDQ01+000000PRSWM2
0163013100999992000011416504+61580+005030FM-15+0009ENFL V0200801N002612200019N0112651N1+00001-00101999999ADDGA1021+009009999GA2021+015009999GF104991999999999999999999MA1103121999999MW1001REMMET053ENFL 141650Z 08005KT 9999 SCT030 SCT050 00/M01 Q1031;EQDQ01+000000PRSWM2
0163013100999992000011417504+61580+005030FM-15+0009ENFL V0201001N003110150019N0112651N1+00001-00101999999ADDGA1021+010509999GA2071+015009999GF107991999999999999999999MA1103121999999MW1001REMMET053ENFL 141750Z 10006KT 9999 FEW035 BKN050 00/M01 Q1031;EQDQ01+000000PRSWM2
0186013100999992000011418504+61580+005030FM-15+0009ENFL V0200901N003610180019N0112651N1+00001-00101999999ADDGA1021+010509999GA2021+015009999GA3071+018009999GF107991999999999999999999MA1103121999999MW1001REMMET060ENFL 141850Z 09007KT 9999 FEW035 SCT050 BKN060 00/M01 Q1031;EQDQ01+000000PRSWM2
0163013100999992000011419504+61580+005030FM-15+0009ENFL V0201001N002610150019N0112651N1+00001-00101999999ADDGA1021+010509999GA2071+015009999GF107991999999999999999999MA1103121999999MW1001REMMET053ENFL 141950Z 10005KT 9999 SCT035 BKN050 00/M01 Q1031;EQDQ01+000000PRSWM2
0163013100999992000011420504+61580+005030FM-15+0009ENFL V0201101N002610105019N0112651N1+00001-00101999999ADDGA1021+009009999GA2071+010509999GF107991999999999999999999MA1103181999999MW1001REMMET053ENFL 142050Z 11005KT 9999 FEW030 BKN035 00/M01 Q1032;EQDQ01+000000PRSWM2
0140013100999992000011421504+61580+005030FM-15+0009ENFL V0200901N003610105019N0112651N1+00001-00101999999ADDGA1071+010509999GF107991999999999999999999MA1103181999999MW1001REMMET046ENFL 142150Z 09007KT 9999 BKN035 00/M01 Q1032;EQDQ01+000000PRSWM2
0163013100999992000011422504+61580+005030FM-15+0009ENFL V0201101N004110105019N0112651N1+00001-00101999999ADDGA1021+009009999GA2071+010509999GF107991999999999999999999MA1103181999999MW1001REMMET053ENFL 142250Z 11008KT 9999 SCT030 BKN035 00/M01 Q1032;EQDQ01+000000PRSWM2
0182013100999992000011505204+61580+005030FM-15+0009ENFL V0201001N005110060019N0112651N1+00101+00001999999ADDGA1021+001509999GA2071+006009999GF107991999999999999999999MA1103121999999MW1611REMMET056ENFL 150520Z 10010KT 9999 -RA SCT005 BKN020 01/00 Q1031;EQDQ01+000003PRSWM1Q02    003PRSWM1
0190013100999992000011505504+61580+005030FM-15+0009ENFL V0200801N003110030019N0112651N1+00101+00001999999ADDGA1021+001509999GA2071+003009999GF107991999999999999999999MA1103121999999MW1611MW2711REMMET058ENFL 150550Z 08006KT 9999 -RASN SCT005 BKN010 01/00 Q1031;EQDQ01+000003PRSWM1Q02    003PRSWM1
0215013100999992000011507204+61580+005030FM-15+0009ENFL V0201001N005110036019N0080001N1+00101+00001999999ADDGA1021+000609999GA2021+001209999GA3071+003609999GF107991999999999999999999MA1103121999999MW1801MW2851REMMET067ENFL 150720Z 10010KT 8000 -SHRASN FEW002 SCT004 BKN012 01/00 Q1031;EQDQ01+000003PRSWM1Q02    003PRSWM1
0213013100999992000011507504+61580+005030FM-15+0009ENFL V0200901N004110030019N0080001N1+00101+00001999999ADDGA1021+000609999GA2021+001209999GA3071+003009999GF107991999999999999999999MA1103121999999MW1611MW2711REMMET065ENFL 150750Z 09008KT 8000 -RASN FEW002 SCT004 BKN010 01/00 Q1031;EQDQ01+000003PRSWM1Q02    003PRSWM1
0185013100999992000011508504+61580+005030FM-15+0009ENFL V0201001N004110024019N0112651N1+00101+00001999999ADDGA1021+000609999GA2021+001509999GA3071+002409999GF107991999999999999999999MA1103011999999MW1001REMMET059ENFL 150850Z 10008KT 9999 FEW002 SCT005 BKN008 01/00 Q1030;EQDQ01+000000PRSWM2
0205013100999992000011509504+61580+005030FM-15+0009ENFL V0201001N003610027019N0080001N1+00101+00001999999ADDGA1021+000609999GA2021+001509999GA3071+002709999GF107991999999999999999999MA1103011999999MW1611REMMET063ENFL 150950Z 10007KT 8000 -RA FEW002 SCT005 BKN009 01/00 Q1030;EQDQ01+000003PRSWM1Q02    003PRSWM1
0205013100999992000011510504+61580+005030FM-15+0009ENFL V0201001N003610024019N0080001N1+00101+00101999999ADDGA1021+000909999GA2021+001509999GA3071+002409999GF107991999999999999999999MA1103011999999MW1611REMMET063ENFL 151050Z 10007KT 8000 -RA FEW003 SCT005 BKN008 01/01 Q1030;EQDQ01+000003PRSWM1Q02    003PRSWM1
0205013100999992000011511504+61580+005030FM-15+0009ENFL V0201001N003610015019N0050001N1+00101+00101999999ADDGA1021+000609999GA2021+000909999GA3071+001509999GF107991999999999999999999MA1103011999999MW1511REMMET063ENFL 151150Z 10007KT 5000 -DZ FEW002 SCT003 BKN005 01/01 Q1030;EQDQ01+000003PRSWM1Q02    003PRSWM1
0205013100999992000011512504+61580+005030FM-15+0009ENFL V0201001N002610021019N0070001N1+00201+00201999999ADDGA1021+000609999GA2021+001209999GA3071+002109999GF107991999999999999999999MA1102911999999MW1511REMMET063ENFL 151250Z 10005KT 7000 -DZ FEW002 SCT004 BKN007 02/02 Q1029;EQDQ01+000003PRSWM1Q02    003PRSWM1
0213013100999992000011513504+61580+005030FM-15+0009ENFL V0200901N003610021019N0070001N1+00201+00201999999ADDGA1021+000309999GA2021+001209999GA3071+002109999GF107991999999999999999999MA1102911999999MW1511MW2611REMMET065ENFL 151350Z 09007KT 7000 -DZRA FEW001 SCT004 BKN007 02/02 Q1029;EQDQ01+000003PRSWM1Q02    003PRSWM1
0205013100999992000011514504+61580+005030FM-15+0009ENFL V0200701N003110015019N0050001N1+00201+00201999999ADDGA1021+000609999GA2021+000909999GA3071+001509999GF107991999999999999999999MA1102911999999MW1511REMMET063ENFL 151450Z 07006KT 5000 -DZ FEW002 SCT003 BKN005 02/02 Q1029;EQDQ01+000003PRSWM1Q02    003PRSWM1
0185013100999992000011609504+61580+005030FM-15+0009ENFL V0202601N005710036019N0060001N1+00701+00701999999ADDGA1021+001509999GA2021+002409999GA3071+003609999GF107991999999999999999999MA1102301999999MW1001REMMET059ENFL 160950Z 26011KT 6000 FEW005 SCT008 BKN012 07/07 Q1023;EQDQ01+000000PRSWM2
0205013100999992000011610504+61580+005030FM-15+0009ENFL V0202801N004110030019N0060001N1+00701+00701999999ADDGA1021+001209999GA2021+001809999GA3071+003009999GF107991999999999999999999MA1102201999999MW1511REMMET063ENFL 161050Z 28008KT 6000 -DZ FEW004 SCT006 BKN010 07/07 Q1022;EQDQ01+000003PRSWM1Q02    003PRSWM1
0182013100999992000011611504+61580+005030FM-15+0009ENFL V0202601N005710030019N0050001N1+00701+00701999999ADDGA1021+001809999GA2071+003009999GF107991999999999999999999MA1102201999999MW1511REMMET056ENFL 161150Z 26011KT 5000 -DZ SCT006 BKN010 07/07 Q1022;EQDQ01+000003PRSWM1Q02    003PRSWM1
0205013100999992000011612504+61580+005030FM-15+0009ENFL V0202601N007210045019N0060001N1+00701+00701999999ADDGA1021+001809999GA2021+002409999GA3071+004509999GF107991999999999999999999MA1102101999999MW1511REMMET063ENFL 161250Z 26014KT 6000 -DZ FEW006 SCT008 BKN015 07/07 Q1021;EQDQ01+000003PRSWM1Q02    003PRSWM1
0182013100999992000011613504+61580+005030FM-15+0009ENFL V0202801N008210036019N0070001N1+00701+00701999999ADDGA1021+002109999GA2071+003609999GF107991999999999999999999MA1102101999999MW1511REMMET056ENFL 161350Z 28016KT 7000 -DZ SCT007 BKN012 07/07 Q1021;EQDQ01+000003PRSWM1Q02    003PRSWM1
0185013100999992000011614504+61580+005030FM-15+0009ENFL V0202901N007210045019N0112651N1+00701+00701999999ADDGA1021+002109999GA2021+003009999GA3071+004509999GF107991999999999999999999MA1102001999999MW1001REMMET059ENFL 161450Z 29014KT 9999 FEW007 SCT010 BKN015 07/07 Q1020;EQDQ01+000000PRSWM2
0185013100999992000011615504+61580+005030FM-15+0009ENFL V0203001N008210180019N0112651N1+00701+00701999999ADDGA1021+004509999GA2021+006009999GA3071+018009999GF107991999999999999999999MA1102001999999MW1001REMMET059ENFL 161550Z 30016KT 9999 FEW015 SCT020 BKN060 07/07 Q1020;EQDQ01+000000PRSWM2
0162013100999992000011616504+61580+005030FM-15+0009ENFL V0203001N005110060019N0112651N1+00701+00601999999ADDGA1021+004509999GA2071+006009999GF107991999999999999999999MA1102001999999MW1001REMMET052ENFL 161650Z 30010KT 9999 SCT015 BKN020 07/06 Q1020;EQDQ01+000000PRSWM2
0205013100999992000011617504+61580+005030FM-15+0009ENFL V0202901N005710075019N0090001N1+00701+00601999999ADDGA1021+004509999GA2021+006009999GA3071+007509999GF107991999999999999999999MA1102001999999MW1511REMMET063ENFL 161750Z 29011KT 9000 -DZ FEW015 SCT020 BKN025 07/06 Q1020;EQDQ01+000003PRSWM1Q02    003PRSWM1
0182013100999992000011618504+61580+005030FM-15+0009ENFL V0202801N005110054019N0112651N1+00701+00601999999ADDGA1021+002409999GA2071+005409999GF107991999999999999999999MA1101901999999MW1511REMMET056ENFL 161850Z 28010KT 9999 -DZ FEW008 BKN018 07/06 Q1019;EQDQ01+000003PRSWM1Q02    003PRSWM1
0205013100999992000011619504+61580+005030FM-15+0009ENFL V0203001N005710075019N0112651N1+00701+00601999999ADDGA1021+003609999GA2021+006009999GA3071+007509999GF107991999999999999999999MA1101901999999MW1611REMMET063ENFL 161950Z 30011KT 9999 -RA FEW012 SCT020 BKN025 07/06 Q1019;EQDQ01+000003PRSWM1Q02    003PRSWM1
0190013100999992000011621504+61580+005030FM-15+0009ENFL V0202901N004610054019N0112651N1+00601+00501999999ADDGA1021+003609999GA2071+005409999GF107991999999999999999999MA1101901999999MW1511MW2611REMMET058ENFL 162150Z 29009KT 9999 -RADZ SCT012 BKN018 06/05 Q1019;EQDQ01+000003PRSWM1Q02    003PRSWM1
0204013100999992000011623504+61580+005030FM-15+0009ENFL V0203301N004110036019N0112651N1+00601+00501999999ADDGA1021+001209999GA2021+002409999GA3071+003609999GF107991999999999999999999MA1101801999999MW1631REMMET062ENFL 162350Z 33008KT 9999 RA FEW004 SCT008 BKN012 06/05 Q1018;EQDQ01+000003PRSWM1Q02    003PRSWM1
0162013100999992000011704204+61580+005030FM-15+0009ENFL V0202901N008710060019N0112651N1+00701+00601999999ADDGA1021+003609999GA2071+006009999GF107991999999999999999999MA1101801999999MW1001REMMET052ENFL 170420Z 29017KT 9999 SCT012 BKN020 07/06 Q1018;EQDQ01+000000PRSWM2
0173013100999992000011704504+61580+005030FM-15+0009ENFL V0203001N010310060019N0112651N1+00701+00501999999ADDGA1021+003609999GA2071+006009999GF107991999999999999999999MA1101801999999MW1001OC101541REMMET055ENFL 170450Z 30020G30KT 9999 SCT012 BKN020 07/05 Q1018;EQDQ01+000000PRSWM2
0215013100999992000011705504+61580+005030FM-15+0009ENFL V0203201N006710054019N0080001N1+00601+00401999999ADDGA1021+002709999GA2021+003609999GA3071+005409999GF107991999999999999999999MA1101801999999MW1531MW2801REMMET067ENFL 170550Z 32013KT 8000 -SHRADZ FEW009 SCT012 BKN018 06/04 Q1018;EQDQ01+000003PRSWM1Q02    003PRSWM1
0183013100999992000011706504+61580+005030FM-15+0009ENFL V0203001N008210060019N0112651N1+00601+00401999999ADDGA1021+003609999GA2071+006009999GF107991999999999999999999MA1101901999999MW1161REMMET057ENFL 170650Z 30016KT 9999 VCSH SCT012 BKN020 06/04 Q1019;EQDQ01+000003PRSWM1Q02    003PRSWM1
0207013100999992000011707504+61580+005030FM-15+0009ENFL V0203101N007710060019N0090001N1+00601+00401999999ADDGA1021+003009999GA2021+003609999GA3071+006009999GF107991999999999999999999MA1101901999999MW1801REMMET065ENFL 170750Z 31015KT 9000 -SHRA FEW010 SCT012 BKN020 06/04 Q1019;EQDQ01+000003PRSWM1Q02    003PRSWM1
0103013100999992000011708504+61580+005030FM-15+0009ENFL V0203101N009812200019N0112651N1+99999+99999999999ADDMW1001REMMET066ENFL 170850Z 31019KT 99999 -SHRA FEW010 SCT015 BKN020 07/05 Q1019;EQDQ01+000000PRSWM2
0103013100999992000011709504+61580+005030FM-15+0009ENFL V0203001N010812200019N0112651N1+99999+99999999999ADDMW1001REMMET066ENFL 170950Z 30021KT 99999 -SHRA FEW010 SCT015 BKN020 07/03 Q1019;EQDQ01+000000PRSWM2
0183013100999992000011710504+61580+005030FM-15+0009ENFL V0203001N011810060019N0112651N1+00701+00301999999ADDGA1021+004509999GA2071+006009999GF107991999999999999999999MA1101901999999MW1161REMMET057ENFL 171050Z 30023KT 9999 VCSH SCT015 BKN020 07/03 Q1019;EQDQ01+000003PRSWM1Q02    003PRSWM1
0195013100999992000011711504+61580+005030FM-15+0009ENFL V0203101N008210075019N0112651N1+00601+00501999999ADDGA1021+004509999GA2071+007509999GF107991999999999999999999MA1101901999999MW1801OC101341REMMET061ENFL 171150Z 31016G26KT 9999 -SHRA SCT015 BKN025 06/05 Q1019;EQDQ01+000003PRSWM1Q02    003PRSWM1
0206013100999992000011712504+61580+005030FM-15+0009ENFL V0203301N009810075019N0112651N1+00701+00501999999ADDGA1021+004509999GA2021+006009999GA3071+007509999GF107991999999999999999999MA1101901999999MW1161REMMET064ENFL 171250Z 33019KT 9999 VCSH FEW015 SCT020 BKN025 07/05 Q1019;EQDQ01+000003PRSWM1Q02    003PRSWM1
0206013100999992000011713504+61580+005030FM-15+0009ENFL V0203201N011810075019N0112651N1+00601+00501999999ADDGA1021+003609999GA2021+006009999GA3071+007509999GF107991999999999999999999MA1101901999999MW1161REMMET064ENFL 171350Z 32023KT 9999 VCSH FEW012 SCT020 BKN025 06/05 Q1019;EQDQ01+000003PRSWM1Q02    003PRSWM1
0162013100999992000011715204+61580+005030FM-15+0009ENFL V0203301N011310075019N0112651N1+00601+00301999999ADDGA1021+005409999GA2071+007509999GF107991999999999999999999MA1101901999999MW1001REMMET052ENFL 171520Z 33022KT 9999 SCT018 BKN025 06/03 Q1019;EQDQ01+000000PRSWM2
0162013100999992000011715504+61580+005030FM-15+0009ENFL V0203301N009810084019N0112651N1+00601+00201999999ADDGA1021+006009999GA2071+008409999GF107991999999999999999999MA1101901999999MW1001REMMET052ENFL 171550Z 33019KT 9999 SCT020 BKN028 06/02 Q1019;EQDQ01+000000PRSWM2
0173013100999992000011717204+61580+005030FM-15+0009ENFL V0203201N009312200019N0112651N1+00601+00201999999ADDGA1021+006009999GA2021+010509999GF104991999999999999999999MA1101901999999MW1001OC101441REMMET055ENFL 171720Z 32018G28KT 9999 SCT020 SCT035 06/02 Q1019;EQDQ01+000000PRSWM2
0195013100999992000011718204+61580+005030FM-15+0009ENFL V0203201N009310105019N0112651N1+00501+00201999999ADDGA1021+006609999GA2071+010509999GF107991999999999999999999MA1101801999999MW1801OC101441REMMET061ENFL 171820Z 32018G28KT 9999 -SHRA SCT022 BKN035 05/02 Q1018;EQDQ01+000003PRSWM1Q02    003PRSWM1
0184013100999992000011718504+61580+005030FM-15+0009ENFL V0203301N008710075019N0090001N1+00401+00201999999ADDGA1021+006009999GA2071+007509999GF107991999999999999999999MA1101801999999MW1801REMMET058ENFL 171850Z 33017KT 9000 -SHRA SCT020 BKN025 04/02 Q1018;EQDQ01+000003PRSWM1Q02    003PRSWM1
0195013100999992000011719504+61580+005030FM-15+0009ENFL V0203201N008710075019N0112651N1+00501+00301999999ADDGA1021+006009999GA2071+007509999GF107991999999999999999999MA1101801999999MW1801OC101391REMMET061ENFL 171950Z 32017G27KT 9999 -SHRA SCT020 BKN025 05/03 Q1018;EQDQ01+000003PRSWM1Q02    003PRSWM1
0150013100999992000011721204+61580+005030FM-15+0009ENFL V0203301N012310075019N0112651N1+00501+00301999999ADDGA1071+007509999GF107991999999999999999999MA1101691999999MW1001OC101751REMMET048ENFL 172120Z 33024G34KT 9999 BKN025 05/03 Q1017;EQDQ01+000000PRSWM2
0185013100999992000011721504+61580+005030FM-15+0009ENFL V0203301N010310090019N0112651N1+00501+00301999999ADDGA1021+004509999GA2021+006609999GA3071+009009999GF107991999999999999999999MA1101801999999MW1001REMMET059ENFL 172150Z 33020KT 9999 FEW015 SCT022 BKN030 05/03 Q1018;EQDQ01+000000PRSWM2
0207013100999992000011722504+61580+005030FM-15+0009ENFL V0203301N012310090019N0112651N1+00401+00101999999ADDGA1021+004509999GA2021+006609999GA3071+009009999GF107991999999999999999999MA1101801999999MW1801REMMET065ENFL 172250Z 33024KT 9999 -SHRA FEW015 SCT022 BKN030 04/01 Q1018;EQDQ01+000003PRSWM1Q02    003PRSWM1
0210013100999992000011804204+61580+005030FM-15+0009ENFL V0203301N012310150019N0112651N1+00301-00101999999ADDGA1021+006009999GA2071+015009999GF107991999999999999999999MA1102101999999MW1611MW2711OC101801REMMET070ENFL 180420Z 33024G35KT 290V020 9999 -SNRA SCT020 BKN050 03/M01 Q1021;EQDQ01+000003PRSWM1Q02    003PRSWM1
0181013100999992000011804504+61580+005030FM-15+0009ENFL V0203401N012312200019N0112651N1+00201-00201999999ADDGA1021+006009999GF102991999999999999999999MA1102201999999MW1851OC101751REMMET063ENFL 180450Z 34024G34KT 310V040 9999 -SHSN FEW020 02/M02 Q1022;EQDQ01+000003PRSWM1Q02    003PRSWM1
0158013100999992000011805504+61580+005030FM-15+0009ENFL V0203501N011312200019N0112651N1+00301+00001999999ADDGA1021+006009999GF104991999999999999999999MA1102301999999MW1001OC101751REMMET056ENFL 180550Z 35022G34KT 310V030 9999 SCT020 03/00 Q1023;EQDQ01+000000PRSWM2
0150013100999992000011806504+61580+005030FM-15+0009ENFL V0203601N008212200019N0112651N1+00301+00001999999ADDGA1021+006009999GF104991999999999999999999MA1102201999999MW1001OC101341REMMET048ENFL 180650Z 36016G26KT 9999 SCT020 03/00 Q1022;EQDQ01+000000PRSWM2
0158013100999992000011807504+61580+005030FM-15+0009ENFL V0203501N010312200019N0112651N1+00301+00001999999ADDGA1021+006009999GF104991999999999999999999MA1102301999999MW1001OC101701REMMET056ENFL 180750Z 35020G33KT 310V030 9999 SCT020 03/00 Q1023;EQDQ01+000000PRSWM2
0204013100999992000011808504+61580+005030FM-15+0009ENFL V0203401N009812200019N0112651N1+00301-00401999999ADDGA1021+006009999GA2021+010509999GF104991999999999999999999MA1102401999999MW1851OC101651REMMET070ENFL 180850Z 34019G32KT 290V020 9999 -SHSN SCT020 SCT035 03/M04 Q1024;EQDQ01+000003PRSWM1Q02    003PRSWM1
0177013100999992000011809504+61580+005030FM-15+0009ENFL V0203401N010312200019N0112651N1+00401-00401999999ADDGA1021+006009029GA2021+010509999GF104991999999999999999999MA1102511999999MW1001OC101701REMMET059ENFL 180950Z 34020G33KT 9999 SCT020TCU SCT035 04/M04 Q1025;EQDQ01+000000PRSWM2
0186013100999992000011810504+61580+005030FM-15+0009ENFL V0203401N009310105019N0112651N1+00301-00401999999ADDGA1021+006009099GA2071+010509999GF107991999999999999999999MA1102511999999MW1161REMMET060ENFL 181050Z 34018KT 9999 VCSH SCT020CB BKN035 03/M04 Q1025;EQDQ01+000003PRSWM1Q02    003PRSWM1
0199013100999992000011811504+61580+005030FM-15+0009ENFL V0203501N008712200019N0112651N1+00401-00301999999ADDGA1021+004509999GA2021+006009099GA3021+009009999GF104991999999999999999999MA1102611999999MW1001OC101491REMMET065ENFL 181150Z 35017G29KT 9999 FEW015 SCT020CB SCT030 04/M03 Q1026;EQDQ01+000000PRSWM2
0198013100999992000011812504+61580+005030FM-15+0009ENFL V0203401N007712200019N0030001N1+00301-00101999999ADDGA1021+004509999GA2021+006009099GF104991999999999999999999MA1102711999999MW1861OC101651REMMET064ENFL 181250Z 34015G32KT 3000W SHSN FEW015 SCT020CB 03/M01 Q1027;EQDQ01+000003PRSWM1Q02    003PRSWM1
0189013100999992000011813504+61580+005030FM-15+0009ENFL V0203401N008710105019N0112651N1+00301-00201999999ADDGA1021+004509999GA2021+006009029GA3071+010509999GF107991999999999999999999MA1102711999999MW1001REMMET063ENFL 181350Z 34017KT 9999 FEW015 SCT020TCU BKN035 03/M02 Q1027;EQDQ01+000000PRSWM2
0207013100999992000011815204+61580+005030FM-15+0009ENFL V0203501N006210120019N0080001N1+00301-00201999999ADDGA1021+004509999GA2021+007509999GA3071+012009999GF107991999999999999999999MA1102811999999MW1161REMMET065ENFL 181520Z 35012KT 8000 VCSH FEW015 SCT025 BKN040 03/M02 Q1028;EQDQ01+000003PRSWM1Q02    003PRSWM1
0186013100999992000011815504+61580+005030FM-15+0009ENFL V0200101N007210120019N0112651N1+00201-00401999999ADDGA1021+004509999GA2021+007509999GA3071+012009999GF107991999999999999999999MA1102811999999MW1001REMMET060ENFL 181550Z 01014KT 9999 FEW015 SCT025 BKN040 02/M04 Q1028;EQDQ01+000000PRSWM2
0195013100999992000011816504+61580+005030FM-15+0009ENFL V0203401N009812200019N0112651N1+00301-00301999999ADDGA1021+004509999GA2021+012009999GF104991999999999999999999MA1102811999999MW1161OC101491REMMET061ENFL 181650Z 34019G29KT 9999 VCSH FEW015 SCT040 03/M03 Q1028;EQDQ01+000003PRSWM1Q02    003PRSWM1
0195013100999992000011817504+61580+005030FM-15+0009ENFL V0203501N009312200019N0112651N1+00201-00101999999ADDGA1021+004509999GA2021+006009999GF104991999999999999999999MA1102811999999MW1161OC101441REMMET061ENFL 181750Z 35018G28KT 9999 VCSH FEW015 SCT020 02/M01 Q1028;EQDQ01+000003PRSWM1Q02    003PRSWM1
0163013100999992000011818504+61580+005030FM-15+0009ENFL V0203401N007210090019N0112651N1+00301-00401999999ADDGA1021+006009999GA2071+009009999GF107991999999999999999999MA1102811999999MW1001REMMET053ENFL 181850Z 34014KT 9999 FEW020 BKN030 03/M04 Q1028;EQDQ01+000000PRSWM2
0163013100999992000011819504+61580+005030FM-15+0009ENFL V0203501N006212200019N0112651N1+00301-00501999999ADDGA1021+007509999GA2021+015009999GF104991999999999999999999MA1102811999999MW1001REMMET053ENFL 181950Z 35012KT 9999 FEW025 SCT050 03/M05 Q1028;EQDQ01+000000PRSWM2
0195013100999992000011820504+61580+005030FM-15+0009ENFL V0203501N009312200019N0080001N1+00101+00001999999ADDGA1021+006009999GA2021+010509999GF104991999999999999999999MA1102811999999MW1851OC101441REMMET061ENFL 182050Z 35018G28KT 8000 -SHSN SCT020 SCT035 01/00 Q1028;EQDQ01+000003PRSWM1Q02    003PRSWM1
0174013100999992000011821504+61580+005030FM-15+0009ENFL V0203401N008210120019N0112651N1+00201-00201999999ADDGA1021+006009999GA2071+012009999GF107991999999999999999999MA1102911999999MW1001OC101341REMMET056ENFL 182150Z 34016G26KT 9999 FEW020 BKN040 02/M02 Q1029;EQDQ01+000000PRSWM2
0163013100999992000011822504+61580+005030FM-15+0009ENFL V0203401N010810135019N0112651N1+00201-00401999999ADDGA1021+007509999GA2071+013509999GF107991999999999999999999MA1102811999999MW1001REMMET053ENFL 182250Z 34021KT 9999 SCT025 BKN045 02/M04 Q1028;EQDQ01+000000PRSWM2
0169013100999992000011904204+61580+005030FM-15+0009ENFL V0203201N005710060019N0112651N1+00201+00001999999ADDGA1071+006009999GF107991999999999999999999MA1102811999999MW1851REMMET059ENFL 190420Z 32011KT 280V010 9999 -SHSN BKN020 02/00 Q1028;EQDQ01+000003PRSWM1Q02    003PRSWM1
0169013100999992000011904504+61580+005030FM-15+0009ENFL V0200101N002610060019N0112651N1+00201+00001999999ADDGA1071+006009999GF107991999999999999999999MA1102811999999MW1851REMMET059ENFL 190450Z 01005KT 340V050 9999 -SHSN BKN020 02/00 Q1028;EQDQ01+000003PRSWM1Q02    003PRSWM1
0182013100999992000011905504+61580+005030FM-15+0009ENFL V02099999999990045019N0112651N1+00201+00001999999ADDGA1021+003009999GA2071+004509999GF107991999999999999999999MA1102711999999MW1511REMMET056ENFL 190550Z VRB02KT 9999 -DZ FEW010 BKN015 02/00 Q1027;EQDQ01+000003PRSWM1Q02    003PRSWM1
0160013100999992000011906504+61580+005030FM-15+0009ENFL V02099999999990030019N0050001N1+00101+00001999999ADDGA1071+003009999GF107991999999999999999999MA1102711999999MW1861REMMET050ENFL 190650Z VRB03KT 5000 SHSN BKN010 01/00 Q1027;EQDQ01+000003PRSWM1Q02    003PRSWM1
0162013100999992000011907504+61580+005030FM-15+0009ENFL V02099999999990018019N0112651N1+00101+00001999999ADDGA1021+001209999GA2071+001809999GF107991999999999999999999MA1102611999999MW1001REMMET052ENFL 190750Z VRB03KT 9999 SCT004 BKN006 01/00 Q1026;EQDQ01+000000PRSWM2
0193013100999992000011908504+61580+005030FM-15+0009ENFL V0201001N002610030019N0112651N1+00101+00001999999ADDGA1021+000909999GA2021+001809999GA3071+003009999GF107991999999999999999999MA1102611999999MW1001REMMET067ENFL 190850Z 10005KT 040V150 9999 FEW003 SCT006 BKN010 01/00 Q1026;EQDQ01+000000PRSWM2
0192013100999992000011910204+61580+005030FM-15+0009ENFL V0203601N006710075019N0112651N1+00401+00401999999ADDGA1021+004509999GA2071+007509999GF107991999999999999999999MA1102611999999MW1801REMMET066ENFL 191020Z 36013KT 330V030 9999 -SHRA SCT015 BKN025 04/04 Q1026;EQDQ01+000003PRSWM1Q02    003PRSWM1
0195013100999992000011910504+61580+005030FM-15+0009ENFL V0203201N007210060019N0112651N1+00401+00401999999ADDGA1021+003609999GA2071+006009999GF107991999999999999999999MA1102611999999MW1801OC101231REMMET061ENFL 191050Z 32014G24KT 9999 -SHRA SCT012 BKN020 04/04 Q1026;EQDQ01+000003PRSWM1Q02    003PRSWM1
0188013100999992000011911504+61580+005030FM-15+0009ENFL V0203301N007210120019N0112651N1+00501+00401999999ADDGA1021+004509999GA2021+006009029GA3071+012009999GF107991999999999999999999MA1102611999999MW1001REMMET062ENFL 191150Z 33014KT 9999 FEW015 SCT020TCU BKN040 05/04 Q1026;EQDQ01+000000PRSWM2
0206013100999992000011912504+61580+005030FM-15+0009ENFL V0203201N005110090019N0112651N1+00501+00301999999ADDGA1021+004509999GA2021+007509999GA3071+009009999GF107991999999999999999999MA1102611999999MW1161REMMET064ENFL 191250Z 32010KT 9999 VCSH FEW015 SCT025 BKN030 05/03 Q1026;EQDQ01+000003PRSWM1Q02    003PRSWM1
0207013100999992000011914204+61580+005030FM-15+0009ENFL V0203201N008210075019N0112651N1+00501+00301999999ADDGA1021+004509999GA2021+006009999GA3071+007509999GF107991999999999999999999MA1102611999999MW1801REMMET065ENFL 191420Z 32016KT 9999 -SHRA FEW015 SCT020 BKN025 05/03 Q1026;EQDQ01+000003PRSWM1Q02    003PRSWM1
0206013100999992000011914504+61580+005030FM-15+0009ENFL V0203101N008210075019N0112651N1+00601+00301999999ADDGA1021+004509999GA2021+006009999GA3071+007509999GF107991999999999999999999MA1102511999999MW1161REMMET064ENFL 191450Z 31016KT 9999 VCSH FEW015 SCT020 BKN025 06/03 Q1025;EQDQ01+000003PRSWM1Q02    003PRSWM1
0162013100999992000011916204+61580+005030FM-15+0009ENFL V0203101N007710090019N0112651N1+00601+00301999999ADDGA1021+006009999GA2071+009009999GF107991999999999999999999MA1102511999999MW1001REMMET052ENFL 191620Z 31015KT 9999 SCT020 BKN030 06/03 Q1025;EQDQ01+000000PRSWM2
0162013100999992000011916504+61580+005030FM-15+0009ENFL V0203101N009810105019N0112651N1+00601+00301999999ADDGA1021+006009999GA2071+010509999GF107991999999999999999999MA1102511999999MW1001REMMET052ENFL 191650Z 31019KT 9999 FEW020 BKN035 06/03 Q1025;EQDQ01+000000PRSWM2
0162013100999992000011917504+61580+005030FM-15+0009ENFL V0203001N006710105019N0112651N1+00601+00301999999ADDGA1021+006009999GA2071+010509999GF107991999999999999999999MA1102401999999MW1001REMMET052ENFL 191750Z 30013KT 9999 SCT020 BKN035 06/03 Q1024;EQDQ01+000000PRSWM2
0234013100999992000011918004+61580+005030FM-12+0009ENFL V0203301N002110150019N0300001N1+00581+00381102591ADDAY181061AY251061GA1011+004509079GA2061+015009069GF107991071081004501999999KA1120M+00591MA1999999101961MD1710111+9999MW1021REMSYN100AAXX  19184 01310 41480 73304 10058 20038 30196 40259 57011 70285 878// 333 10059 81715 86650 91108;
0184013100999992000011918504+61580+005030FM-15+0009ENFL V0202901N007210105019N0112651N1+00601+00301999999ADDGA1021+006009999GA2071+010509999GF107991999999999999999999MA1102401999999MW1801REMMET058ENFL 191850Z 29014KT 9999 -SHRA FEW020 BKN035 06/03 Q1024;EQDQ01+000003PRSWM1Q02    003PRSWM1
0162013100999992000011919504+61580+005030FM-15+0009ENFL V0202901N007710105019N0112651N1+00601+00301999999ADDGA1021+006009999GA2071+010509999GF107991999999999999999999MA1102301999999MW1001REMMET052ENFL 191950Z 29015KT 9999 FEW020 BKN035 06/03 Q1023;EQDQ01+000000PRSWM2
0185013100999992000011920504+61580+005030FM-15+0009ENFL V0202901N006710105019N0112651N1+00701+00401999999ADDGA1021+003909999GA2021+006009999GA3071+010509999GF107991999999999999999999MA1102201999999MW1001REMMET059ENFL 192050Z 29013KT 9999 FEW013 SCT020 BKN035 07/04 Q1022;EQDQ01+000000PRSWM2
0183013100999992000011921504+61580+005030FM-15+0009ENFL V0202901N007210060019N0112651N1+00501+00301999999ADDGA1021+003909999GA2071+006009999GF107991999999999999999999MA1102101999999MW1161REMMET057ENFL 192150Z 29014KT 9999 VCSH FEW013 BKN020 05/03 Q1021;EQDQ01+000003PRSWM1Q02    003PRSWM1
0184013100999992000011922504+61580+005030FM-15+0009ENFL V0202801N005110060019N0112651N1+00501+00301999999ADDGA1021+003909999GA2071+006009999GF107991999999999999999999MA1102001999999MW1801REMMET058ENFL 192250Z 28010KT 9999 -SHRA FEW013 BKN020 05/03 Q1020;EQDQ01+000003PRSWM1Q02    003PRSWM1
0183013100999992000012004504+61580+005030FM-15+0009ENFL V0203201N009312200019N0112651N1+00601+00301999999ADDGA1021+006009999GA2021+009009999GF104991999999999999999999MA1101691999999MW1161REMMET057ENFL 200450Z 32018KT 9999 VCSH FEW020 SCT030 06/03 Q1017;EQDQ01+000003PRSWM1Q02    003PRSWM1
0173013100999992000012005504+61580+005030FM-15+0009ENFL V0203201N011310090019N0112651N1+00501+00201999999ADDGA1021+006009999GA2071+009009999GF107991999999999999999999MA1101591999999MW1001OC101751REMMET055ENFL 200550Z 32022G34KT 9999 FEW020 BKN030 05/02 Q1016;EQDQ01+000000PRSWM2
0173013100999992000012006504+61580+005030FM-15+0009ENFL V0203101N010810060019N0112651N1+00501+00301999999ADDGA1021+004509999GA2071+006009999GF107991999999999999999999MA1101591999999MW1001OC101751REMMET055ENFL 200650Z 31021G34KT 9999 FEW015 BKN020 05/03 Q1016;EQDQ01+000000PRSWM2
0183013100999992000012007504+61580+005030FM-15+0009ENFL V02099999999990075019N0112651N1+00401+00301999999ADDGA1021+004509999GA2071+007509999GF107991999999999999999999MA1101591999999MW1801REMMET057ENFL 200750Z 32017T 9999 -SHRA FEW015 BKN025 04/03 Q1016;EQDQ01+000003PRSWM1Q02    003PRSWM1
0183013100999992000012008504+61580+005030FM-15+0009ENFL V0203301N009812200019N0112651N1+00401+00201999999ADDGA1021+004509999GA2021+009009999GF104991999999999999999999MA1101491999999MW1161REMMET057ENFL 200850Z 33019KT 9999 VCSH FEW015 SCT030 04/02 Q1015;EQDQ01+000003PRSWM1Q02    003PRSWM1
