0161014670999992000010100004+58630+009150FM-12+000799999V0202501N000510042019N0100001N1+00211+00201101451ADDAY161061AY221061GF108991081071004501999999MA1999999101391MD1710121+9999MW1611REMSYN072AAXX  01004 01467 41460 82501 10021 20020 30139 40145 57012 76162 887//;
0161014670999992000010103004+58630+009150FM-12+000799999V0202601N001010042019N0100001N1+00401+00391101301ADDAY161031AY221031GF108991081061004501999999MA1999999101241MD1710151+9999MW1021REMSYN072AAXX  01034 01467 41460 82602 10040 20039 30124 40130 57015 70262 886//;
0201014670999992000010106004+58630+009150FM-12+000799999V0202001N002110042019N0100001N1+00461+00451101111ADDAA112001091AY161061AY221061GF108991081071004501999999KA1999N+00141MA1999999101051MD1710191+9999MW1611REMSYN088AAXX  01064 01467 11460 82004 10046 20045 30105 40111 57019 60012 76162 887// 333 20014;
0161014670999992000010109004+58630+009150FM-12+000799999V0201901N002110042019N0050001N1+00531+00521101021ADDAY161031AY221031GF108991081071004501999999MA1999999100961MD1610091+9999MW1611REMSYN072AAXX  01094 01467 41450 81904 10053 20052 30096 40102 56009 76162 887//;
0173014670999992000010112004+58630+009150FM-12+000799999V0203601N001012200019N0250001N1+00471+00441101121ADDAY161061AY211061GF102991011071008001041001MA1999999101061MD1110101+9999MW1011REMSYN084AAXX  01124 01467 41575 23602 10047 20044 30106 40112 51010 70161 81740 222// 00048;
0161014670999992000010115004+58630+009150FM-12+000799999V0202601N001012200019N0300001N1+00461+00401101381ADDAY101031AY201031GF101991011071008001081001MA1999999101321MD1210261+9999MW1021REMSYN072AAXX  01154 01467 41580 12602 10046 20040 30132 40138 52026 70200 81780;
0201014670999992000010118004+58630+009150FM-12+000799999V0202701N001012200019N0200001N1+00291+00261101581ADDAA112000591AY111061AY211061GF104991031071008001081001KA1999M+00531MA1999999101521MD1210201+9999MW1031REMSYN088AAXX  01184 01467 11570 42702 10029 20026 30152 40158 52020 69952 70311 83780 333 10053;
0161014670999992000010200004+58630+009150FM-12+000799999V0202701N001010042019N0200001N1+00391+00321101541ADDAY121061AY221061GF108991071071004501081999MA1999999101481MD1710031+9999MW1021REMSYN072AAXX  02004 01467 41470 82702 10039 20032 30148 40154 57003 70222 8778/;
0161014670999992000010203004+58630+009150FM-12+000799999V0202201N001010042019N0200001N1+00421+00381101391ADDAY121031AY221031GF108991071071004501999999MA1999999101331MD1710151+9999MW1021REMSYN072AAXX  02034 01467 41470 82202 10042 20038 30133 40139 57015 70222 877//;
0214014670999992000010206004+58630+009150FM-12+000799999V0201901N003110042019N0250001N1+00451+00421101081ADDAA106000091AY121061AY221061GF108991081071004501999999KA1999N+00291MA1999999101021MD1710311+9999MW1021REMSYN082AAXX  02064 01467 31475 81906 10045 20042 30102 40108 57031 70222 887// 333 20029;EQDQ01  00002PRCP06
0161014670999992000010209004+58630+009150FM-12+000799999V0202001N003110042019N0100001N1+00581+00551100931ADDAY121031AY221031GF108991081071004501999999MA1999999100871MD1610151+9999MW1611REMSYN072AAXX  02094 01467 41460 82006 10058 20055 30087 40093 56015 76122 887//;
0173014670999992000010212004+58630+009150FM-12+000799999V0202401N003112200019N0300001N1+00711+00571100801ADDAY161061AY211061GF102991011071012501041001MA1999999100741MD1710131+9999MW1011REMSYN084AAXX  02124 01467 41680 22406 10071 20057 30074 40080 57013 70161 81740 222// 00047;
0161014670999992000010215004+58630+009150FM-12+000799999V0202601N003112200019N0300001N1+00571+00291101001ADDAY101031AY201031GF102991011071012501041001MA1999999100941MD1210201+9999MW1021REMSYN072AAXX  02154 01467 41680 22606 10057 20029 30094 40100 52020 70200 81740;
0201014670999992000010218004+58630+009150FM-12+000799999V0202701N003112200019N0300001N1+00511+00251101141ADDAA112000391AY101061AY201061GF101991011071012501001001KA1999M+00731MA1999999101081MD1210141+9999MW1021REMSYN088AAXX  02184 01467 11680 12706 10051 20025 30108 40114 52014 69932 70200 81700 333 10073;
0161014670999992000010300004+58630+009150FM-12+000799999V0202101N001012200019N0250001N1+00371+00331101491ADDAY101061AY201061GF102991021071008001001001MA1999999101431MD1210111+9999MW1021REMSYN072AAXX  03004 01467 41575 22102 10037 20033 30143 40149 52011 70200 82700;
0214014670999992000010306004+58630+009150FM-12+000799999V0202001N001010042019N0100001N1+00281+00181101031ADDAA106000091AY121061AY221061GF108991081071004501999999KA1999N+00281MA1999999100971MD1710291+9999MW1021REMSYN082AAXX  03064 01467 31460 82002 10028 20018 30097 40103 57029 70222 887// 333 20028;EQDQ01  00002PRCP06
0161014670999992000010309004+58630+009150FM-12+000799999V0201801N004610042019N0050001N1+00531+00521100431ADDAY121031AY221031GF108991081071004501999999MA1999999100371MD1710601+9999MW1631REMSYN072AAXX  03094 01467 41450 81809 10053 20052 30037 40043 57060 76322 887//;
0173014670999992000010312004+58630+009150FM-12+000799999V0202201N003112200019N0250001N1+00701+00661100081ADDAY161061AY211061GF101991011071008001041001MA1999999100021MD1610351+9999MW1011REMSYN084AAXX  03124 01467 41575 12206 10070 20066 30002 40008 56035 70161 81740 222// 00056;
0161014670999992000010315004+58630+009150FM-12+000799999V0202101N003112200019N0250001N1+00711+00671100141ADDAY101031AY201031GF101991011041008001061001MA1999999100081MD1210061+9999MW1021REMSYN072AAXX  03154 01467 41575 12106 10071 20067 30008 40014 52006 70200 81460;
0201014670999992000010318004+58630+009150FM-12+000799999V0202201N003112200019N0250001N1+00651+00581100081ADDAA112001091AY101061AY201061GF102991011041008001061001KA1999M+00741MA1999999100021MD1710061+9999MW1021REMSYN088AAXX  03184 01467 11575 22206 10065 20058 30002 40008 57006 60012 70200 81460 333 10074;
0161014670999992000010400004+58630+009150FM-12+000799999V0202401N006212200019N0300001N1+00401+00341099951ADDAY181061AY211061GF103991021071004501041011MA1999999099891MD1610021+9999MW1021REMSYN072AAXX  04004 01467 41480 32412 10040 20034 39989 49995 56002 70281 82741;
0161014670999992000010403004+58630+009150FM-12+000799999V0202301N006212200019N0300001N1+00381+00231099931ADDAY101031AY201031GF102991011071004501041001MA1999999099871MD1710021+9999MW1021REMSYN072AAXX  04034 01467 41480 22312 10038 20023 39987 49993 57002 70200 81740;
0201014670999992000010406004+58630+009150FM-12+000799999V0202601N004612200019N0300001N1+00391+00231099961ADDAA112000791AY101061AY201061GF101991011071008001001001KA1999N+00381MA1999999099901MD1210031+9999MW1021REMSYN088AAXX  04064 01467 11580 12609 10039 20023 39990 49996 52003 69902 70200 81700 333 20038;
0173014670999992000010412004+58630+009150FM-12+000799999V0202601N006212200019N0750001N1+00561+00121100301ADDAY101061AY201061GF101991011041008001001001MA1999999100241MD1210171+9999MW1021REMSYN084AAXX  04124 01467 41589 12612 10056 20012 30024 40030 52017 70200 81400 222// 00058;
0161014670999992000010415004+58630+009150FM-12+000799999V0202301N001012200019N0750001N1+00481+00201100451ADDAY101031AY201031GF102991011041008001031011MA1999999100391MD1110151+9999MW1021REMSYN072AAXX  04154 01467 41589 22302 10048 20020 30039 40045 51015 70200 81431;
0214014670999992000010418004+58630+009150FM-12+000799999V0202301N000512200019N0750001N1+00321+00251100451ADDAA106000091AY101061AY201061GF102991011041008001031021KA1999M+00561MA1999999100391MD1410001+9999MW1021REMSYN082AAXX  04184 01467 31589 22301 10032 20025 30039 40045 54000 70200 81432 333 10056;EQDQ01  00002PRCP06
0161014670999992000010500004+58630+009150FM-12+000799999V0201901N001010042019N0150001N1+00491+00431100221ADDAY181061AY211061GF108991081071004501999999MA1999999100161MD1610121+9999MW1031REMSYN072AAXX  05004 01467 41465 81902 10049 20043 30016 40022 56012 70381 887//;
0161014670999992000010503004+58630+009150FM-12+000799999V0202101N003110042019N0100001N1+00501+00431100181ADDAY121031AY221031GF108991081071004501999999MA1999999100121MD1610041+9999MW1021REMSYN072AAXX  05034 01467 41460 82106 10050 20043 30012 40018 56004 70222 887//;
0201014670999992000010506004+58630+009150FM-12+000799999V0202101N001012200019N0200001N1+00361+00301100331ADDAA112000591AY121061AY211061GF104991021071004501041011KA1999N+00251MA1999999100271MD1310151+9999MW1011REMSYN088AAXX  05064 01467 11470 42102 10036 20030 30027 40033 53015 69952 70121 82741 333 20025;
0161014670999992000010509004+58630+009150FM-12+000799999V0201901N000512200019N0250001N1+00301+00171100601ADDAY111031AY201031GF101991011071004501041001MA1999999100541MD1210271+9999MW1021REMSYN072AAXX  05094 01467 41475 11901 10030 20017 30054 40060 52027 70210 81740;
0173014670999992000010512004+58630+009150FM-12+000799999V0202001N001012200019N0250001N1+00361+00231100831ADDAY101061AY201061GF101991011071008001041001MA1999999100771MD1210231+9999MW1021REMSYN084AAXX  05124 01467 41575 12002 10036 20023 30077 40083 52023 70200 81740 222// 00057;
0161014670999992000010515004+58630+009150FM-12+000799999V0202101N002110042019N0150001N1+00481+00381100891ADDAY121031AY221031GF108991081071004501999999MA1999999100831MD1110061+9999MW1031REMSYN072AAXX  05154 01467 41465 82104 10048 20038 30083 40089 51006 70322 887//;
0161014670999992000010603004+58630+009150FM-12+000799999V0201801N009810021019N0100001N1+00641+00601100351ADDAY151031AY221031GF108991081061002501999999MA1999999100291MD1710201+9999MW1021REMSYN072AAXX  06034 01467 41360 81819 10064 20060 30029 40035 57020 70252 886//;
0201014670999992000010606004+58630+009150FM-12+000799999V0201801N009810021019N0050001N1+00631+00601099971ADDAA112000391AY161061AY221061GF108991081071002501999999KA1999N+00601MA1999999099911MD1710381+9999MW1631REMSYN088AAXX  06064 01467 11350 81819 10063 20060 39991 49997 57038 69932 76362 887// 333 20060;
0161014670999992000010609004+58630+009150FM-12+000799999V0201801N007710021019N0050001N1+00721+00691099821ADDAY161031AY261031GF108991081071002501999999MA1999999099761MD1710151+9999MW1631REMSYN072AAXX  06094 01467 41350 81815 10072 20069 39976 49982 57015 76366 887//;
0173014670999992000010612004+58630+009150FM-12+000799999V0201901N007710021019N0050001N1+00741+00701099661ADDAY161061AY221061GF108991051061002501021999MA1999999099601MD1710161+9999MW1101REMSYN084AAXX  06124 01467 41350 81915 10074 20070 39960 49966 57016 71062 8562/ 222// 00066;
0161014670999992000010615004+58630+009150FM-12+000799999V0202101N007710300019N0050001N1+00741+00701099531ADDAY161031AY221031GF106991031061002501071021MA1999999099471MD1710131+9999MW1601REMSYN072AAXX  06154 01467 41350 62115 10074 20070 39947 49953 57013 76062 83672;
0161014670999992000010700004+58630+009150FM-12+000799999V0202201N003112200019N0200001N1+00311+00241100511ADDAY101061AY201061GF101991011071008001001001MA1999999100451MD1210411+9999MW1021REMSYN072AAXX  07004 01467 41570 12206 10031 20024 30045 40051 52041 70200 81700;
0161014670999992000010703004+58630+009150FM-12+000799999V0202501N003112200019N0300001N1+00321+00091100771ADDAY101031AY201031GF101991011001022501031011MA1999999100711MD1110261+9999MW1021REMSYN072AAXX  07034 01467 41880 12506 10032 20009 30071 40077 51026 70200 81031;
0214014670999992000010706004+58630+009150FM-12+000799999V0202401N002110750019N0300001N1+00421+00331100901ADDAA106000091AY121061AY211061GF105991021071004501031021KA1999N+00251MA1999999100841MD1110131+9999MW1031REMSYN082AAXX  07064 01467 31480 52404 10042 20033 30084 40090 51013 70321 82732 333 20025;EQDQ01  00002PRCP06
0161014670999992000010709004+58630+009150FM-12+000799999V0202401N003110042019N0250001N1+00521+00391100821ADDAY121031AY221031GF107991051071004501041999MA1999999100761MD1710081+9999MW1031REMSYN072AAXX  07094 01467 41475 72406 10052 20039 30076 40082 57008 70322 8574/;
0173014670999992000010712004+58630+009150FM-12+000799999V0202401N007710300019N0200001N1+00641+00551100571ADDAY121061AY211061GF108991041071004501021999MA1999999100511MD1710251+9999MW1021REMSYN084AAXX  07124 01467 41470 82415 10064 20055 30051 40057 57025 70221 8472/ 222// 00062;
0161014670999992000010715004+58630+009150FM-12+000799999V0202301N007710021019N0060001N1+00621+00581100271ADDAY161031AY251031GF108991061071002501021999MA1999999100211MD1710301+9999MW1591REMSYN072AAXX  07154 01467 41356 82315 10062 20058 30021 40027 57030 75965 8672/;
0201014670999992000010718004+58630+009150FM-12+000799999V0202301N006210021019N0100001N1+00701+00671100041ADDAA112000591AY161061AY251061GF108991061071002501021999KA1999M+00701MA1999999099981MD1710231+9999MW1021REMSYN088AAXX  07184 01467 11360 82312 10070 20067 39998 40004 57023 69942 70265 8672/ 333 10070;
0161014670999992000010800004+58630+009150FM-12+000799999V0202301N006210021019N0100001N1+00721+00651099711ADDAY161061AY251061GF108991081071002501999999MA1999999099651MD1710201+9999MW1581REMSYN072AAXX  08004 01467 41360 82312 10072 20065 39965 49971 57020 75865 887//;
0161014670999992000010803004+58630+009150FM-12+000799999V0202301N007710021019N0100001N1+00721+00681099521ADDAY161031AY251031GF108991051061002501021999MA1999999099461MD1610191+9999MW1021REMSYN072AAXX  08034 01467 41360 82315 10072 20068 39946 49952 56019 70265 8562/;
0201014670999992000010806004+58630+009150FM-12+000799999V0202301N007710300019N0100001N1+00781+00711099431ADDAA112000591AY161061AY251061GF106991021071002501021021KA1999N+00701MA1999999099371MD1610091+9999MW1501REMSYN088AAXX  08064 01467 11360 62315 10078 20071 39937 49943 56009 69942 75065 82722 333 20070;
0161014670999992000010809004+58630+009150FM-12+000799999V0202301N006212200019N0200001N1+00761+00651099771ADDAY151031AY221031GF103991011071004501031011MA1999999099711MD1210341+9999MW1011REMSYN072AAXX  08094 01467 41470 32312 10076 20065 39971 49977 52034 70152 81731;
0173014670999992000010812004+58630+009150FM-12+000799999V0202301N007712200019N0150001N1+00681+00371099891ADDAY151061AY211061GF103991011061002501031021MA1999999099831MD1110121+9999MW1021REMSYN084AAXX  08124 01467 41365 32315 10068 20037 39983 49989 51012 70251 81632 222// 00066;
0161014670999992000010815004+58630+009150FM-12+000799999V0202301N006212200019N0150001N1+00641+00551099961ADDAY101031AY201031GF102991021061002501001001MA1999999099901MD1310071+9999MW1021REMSYN072AAXX  08154 01467 41365 22312 10064 20055 39990 49996 53007 70200 82600;
0201014670999992000010818004+58630+009150FM-12+000799999V0202301N006212200019N0200001N1+00661+00511100201ADDAA112000191AY101061AY201061GF101991011061002501001001KA1999M+00781MA1999999100141MD1210241+9999MW1021REMSYN088AAXX  08184 01467 11370 12312 10066 20051 30014 40020 52024 69922 70200 81600 333 10078;
0171014670999992000010900004+58630+009150FM-12+000799999V0202301N003112200019N0300001N1+00601+00271100541ADDAY101061AY201061GA1001+999999999GF100991001001999999001001MA1999999100481MD1210201+9999MW1021REMSYN066AAXX  09004 01467 41980 02306 10060 20027 30048 40054 52020 70200;
0171014670999992000010903004+58630+009150FM-12+000799999V0202301N003112200019N0300001N1+00601+99999100641ADDAY101031AY201031GA1001+999999999GF100991001001999999001001MA1999999100581MD1110101+9999MW1021REMSYN066AAXX  09034 01467 42980 02306 10060 2050/ 30058 40064 51010 70200;
0161014670999992000010909004+58630+009150FM-12+000799999V0202301N001012200019N0550001N1+00341+00281101041ADDAY111031AY201031GF103991021091008001041021MA1999999100981MD1210271+9999MW1031REMSYN072AAXX  09094 01467 41585 32302 10034 20028 30098 40104 52027 70310 82942;
0173014670999992000010912004+58630+009150FM-12+000799999V0202301N001012200019N0550001N1+00481+00351101191ADDAY101061AY201061GF101991011041008001001011MA1999999101131MD1210151+9999MW1011REMSYN084AAXX  09124 01467 41585 12302 10048 20035 30113 40119 52015 70100 81401 222// 00062;
0161014670999992000010915004+58630+009150FM-12+000799999V0202301N001012200019N0550001N1+00521+00291101361ADDAY101031AY201031GF101991011091008001001021MA1999999101301MD1210171+9999MW1021REMSYN072AAXX  09154 01467 41585 12302 10052 20029 30130 40136 52017 70200 81902;
0224014670999992000010918004+58630+009150FM-12+000799999V0202301N001012200019N0550001N1+00381+00251101621ADDAA106000091AY101061AY201061GA1001+999999999GF100991001001999999001001KA1999M+00521MA1999999101561MD1210261+9999MW1021REMSYN076AAXX  09184 01467 31985 02302 10038 20025 30156 40162 52026 70200 333 10052;EQDQ01  00002PRCP06
0171014670999992000011000004+58630+009150FM-12+000799999V0202301N000512200019N0550001N1+00181+00091102141ADDAY101061AY201061GA1001+999999999GF100991001001999999001001MA1999999102081MD1210301+9999MW1021REMSYN066AAXX  10004 01467 41985 02301 10018 20009 30208 40214 52030 70200;
0171014670999992000011003004+58630+009150FM-12+000799999V0202301N000512200019N0550001N1+00201+00101102341ADDAY101031AY201031GA1001+999999999GF100991001001999999001001MA1999999102281MD1210201+9999MW1021REMSYN066AAXX  10034 01467 41985 02301 10020 20010 30228 40234 52020 70200;
0224014670999992000011006004+58630+009150FM-12+000799999V0202301N002112200019N0550001N1+00201+00111102471ADDAA106000091AY101061AY201061GA1001+999999999GF100991001001999999001001KA1999N+00101MA1999999102411MD1110131+9999MW1021REMSYN076AAXX  10064 01467 31985 02304 10020 20011 30241 40247 51013 70200 333 20010;EQDQ01  00002PRCP06
0161014670999992000011009004+58630+009150FM-12+000799999V0202401N002112200019N0550001N1+00221+00161102581ADDAY101031AY201031GF102991021001022501031011MA1999999102521MD1110111+9999MW1021REMSYN072AAXX  10094 01467 41885 22404 10022 20016 30252 40258 51011 70200 82031;
0173014670999992000011012004+58630+009150FM-12+000799999V0202301N002110750019N0300001N1+00421+00331102571ADDAY121061AY211061GF105991011071004501021081MA1999999102511MD1810011+9999MW1031REMSYN084AAXX  10124 01467 41480 52304 10042 20033 30251 40257 58001 70321 81728 222// 00054;
0161014670999992000011015004+58630+009150FM-12+000799999V0202101N002110300019N0300001N1+00521+00371102381ADDAY121031AY221031GF107991031071004501021999MA1999999102321MD1710191+9999MW1021REMSYN072AAXX  10154 01467 41480 72104 10052 20037 30232 40238 57019 70222 8372/;
0214014670999992000011018004+58630+009150FM-12+000799999V0202201N006210750019N0300001N1+00581+00511102201ADDAA106000091AY121061AY221061GF105991021071004501061021KA1999M+00581MA1999999102141MD1710181+9999MW1021REMSYN082AAXX  10184 01467 31480 52212 10058 20051 30214 40220 57018 70222 82762 333 10058;EQDQ01  00002PRCP06
0161014670999992000011100004+58630+009150FM-12+000799999V0202101N004612200019N0300001N1+00601+00571101911ADDAY121061AY211061GF104991031051004501061011MA1999999101851MD1710161+9999MW1021REMSYN072AAXX  11004 01467 41480 42109 10060 20057 30185 40191 57016 70221 83561;
0161014670999992000011103004+58630+009150FM-12+000799999V0202101N003112200019N0300001N1+00621+00591101931ADDAY121031AY211031GF103991021061004501041011MA1999999101871MD1310021+9999MW1011REMSYN072AAXX  11034 01467 41480 32106 10062 20059 30187 40193 53002 70121 82641;
0214014670999992000011106004+58630+009150FM-12+000799999V0202301N002112200019N0300001N1+00601+00561102031ADDAA106000091AY101061AY201061GF101991011041008001001011KA1999N+00581MA1999999101971MD1210101+9999MW1021REMSYN082AAXX  11064 01467 31580 12304 10060 20056 30197 40203 52010 70200 81401 333 20058;EQDQ01  00002PRCP06
0161014670999992000011109004+58630+009150FM-12+000799999V0202301N001012200019N0300001N1+00451+00421102211ADDAY111031AY201031GF103991021001999999031011MA1999999102151MD1210181+9999MW1021REMSYN072AAXX  11094 01467 41980 32302 10045 20042 30215 40221 52018 70210 82031;
0173014670999992000011112004+58630+009150FM-12+000799999V0202201N001012200019N0300001N1+00561+00521102241ADDAY111061AY201061GF102991001001999999001011MA1999999102181MD1210031+9999MW1021REMSYN084AAXX  11124 01467 41980 22202 10056 20052 30218 40224 52003 70210 80001 222// 00055;
0161014670999992000011115004+58630+009150FM-12+000799999V0209999C000012200019N0300001N1+00561+00531102221ADDAY101031AY201031GF103991011001999999031041MA1999999102161MD1710031+9999MW1021REMSYN072AAXX  11154 01467 41980 30000 10056 20053 30216 40222 57003 70200 81034;
0214014670999992000011118004+58630+009150FM-12+000799999V0202201N001012200019N0300001N1+00581+00571102121ADDAA106000091AY101061AY201061GF102991011001999999031011KA1999M+00561MA1999999102061MD1710101+9999MW1021REMSYN082AAXX  11184 01467 31980 22202 10058 20057 30206 40212 57010 70200 81031 333 10056;EQDQ01  00002PRCP06
0161014670999992000011200004+58630+009150FM-12+000799999V0202201N003110042019N0100001N1+00581+00551101581ADDAY161061AY221061GF108991051071004501021999MA1999999101521MD1710301+9999MW1601REMSYN072AAXX  12004 01467 41460 82206 10058 20055 30152 40158 57030 76062 8572/;
0161014670999992000011203004+58630+009150FM-12+000799999V0201901N001010021019N0100001N1+00561+00551101131ADDAY161031AY251031GF108991081061002501999999MA1999999101071MD1710451+9999MW1511REMSYN072AAXX  12034 01467 41360 81902 10056 20055 30107 40113 57045 75165 886//;
0201014670999992000011206004+58630+009150FM-12+000799999V0202301N000510042019N0200001N1+00641+00631101121ADDAA112000891AY161061AY251061GF108991081061004501999999KA1999N+00531MA1999999101061MD1510011+9999MW1021REMSYN088AAXX  12064 01467 11470 82301 10064 20063 30106 40112 55001 69982 70265 886// 333 20053;
0161014670999992000011209004+58630+009150FM-12+000799999V0202301N000510300019N0300001N1+00541+00501101271ADDAY121031AY221031GF107991031051008001021999MA1999999101211MD1110151+9999MW1021REMSYN072AAXX  12094 01467 41580 72301 10054 20050 30121 40127 51015 70222 8352/;
0173014670999992000011212004+58630+009150FM-12+000799999V0202401N002110300019N0200001N1+00581+00541101311ADDAY161061AY221061GF108991011071002501021999MA1999999101251MD1110041+9999MW1601REMSYN084AAXX  12124 01467 41370 82404 10058 20054 30125 40131 51004 76062 8172/ 222// 00058;
0161014670999992000011215004+58630+009150FM-12+000799999V0202101N000510300019N0150001N1+00541+00511101241ADDAY161031AY221031GF108991021071002501021999MA1999999101181MD1610071+9999MW1601REMSYN072AAXX  12154 01467 41365 82101 10054 20051 30118 40124 56007 76062 8272/;
0201014670999992000011218004+58630+009150FM-12+000799999V0209999C000010300019N0100001N1+00521+00511101221ADDAA112002091AY161061AY251061GF108991041071002501021999KA1999M+00641MA1999999101161MD1610021+9999MW1501REMSYN088AAXX  12184 01467 11360 80000 10052 20051 30116 40122 56002 60022 75065 8472/ 333 10064;
0161014670999992000011300004+58630+009150FM-12+000799999V0202101N001010021019N0100001N1+00541+00531101141ADDAY151061AY221061GF108991081061002501999999MA1999999101081MD1710031+9999MW1601REMSYN072AAXX  13004 01467 41360 82102 10054 20053 30108 40114 57003 76052 886//;
0161014670999992000011303004+58630+009150FM-12+000799999V0209999C000010021019N0150001N1+00501+00491101111ADDAY121031AY221031GF108991081061002501999999MA1999999101051MD1710031+9999MW1021REMSYN072AAXX  13034 01467 41365 80000 10050 20049 30105 40111 57003 70222 886//;
0161014670999992000011309004+58630+009150FM-12+000799999V0209999C000010300019N0200001N1+00481+00421101291ADDAY161031AY221031GF108991041071002501021999MA1999999101231MD1210181+9999MW1601REMSYN072AAXX  13094 01467 41370 80000 10048 20042 30123 40129 52018 76062 8472/;
0173014670999992000011312004+58630+009150FM-12+000799999V0200401N001010021019N0200001N1+00391+00361101421ADDAY161061AY221061GF108991061071002501021999MA1999999101361MD1210131+9999MW1611REMSYN084AAXX  13124 01467 41370 80402 10039 20036 30136 40142 52013 76162 8672/ 222// 00051;
0161014670999992000011315004+58630+009150FM-12+000799999V0200301N001010021019N0200001N1+00271+00261101491ADDAY161031AY221031GF108991071071002501021999MA1999999101431MD1210071+9999MW1611REMSYN072AAXX  13154 01467 41370 80302 10027 20026 30143 40149 52007 76162 8772/;
0201014670999992000011318004+58630+009150FM-12+000799999V0200401N001010021019N0250001N1+00261+00231101651ADDAA100004191AY161061AY221061GF108991071071002501021999KA1999M+00501MA1999999101591MD1210161+9999MW1021REMSYN088AAXX  13184 01467 11375 80402 10026 20023 30159 40165 52016 60040 70262 8772/ 333 10050;
0165014670999992000011400004+58630+009150FM-12+000799999V0203601N002110021019N0100001N1+00261+00131101981ADDAY171061AY221061GF108991051071002501021999MA1999999101921MD1210151+9999MW1681REMSYN076    AAXX  14004 01467 41360 83604 10026 20013 30192 40198 52015 76872 8572/;
0165014670999992000011403004+58630+009150FM-12+000799999V0200501N004610300019N0280001N1+00271+00041102121ADDAY171031AY221031GF108991041071004501021999MA1999999102061MD1210141+9999MW1021REMSYN076    AAXX  14034 01467 41478 80509 10027 20004 30206 40212 52014 70272 8472/;
0205014670999992000011406004+58630+009150FM-12+000799999V0200401N004610021019N0100001N1+00111+00081102331ADDAA112002091AY171061AY221061GF108991061071002501021999KA1999N+00111MA1999999102271MD1210211+9999MW1681REMSYN092    AAXX  14064 01467 11360 80409 10011 20008 30227 40233 52021 60022 76872 8672/ 333 20011;
0165014670999992000011409004+58630+009150FM-12+000799999V0200201N003110021019N0060001N1+00081+00051102581ADDAY171031AY221031GF108991081071002501999999MA1999999102521MD1210251+9999MW1681REMSYN076    AAXX  14094 01467 41356 80206 10008 20005 30252 40258 52025 76872 887//;
0177014670999992000011412004+58630+009150FM-12+000799999V0200301N003112200019N0550001N1+00131+00101102661ADDAY171061AY221061GF104991021081004501071011MA1999999102601MD1210081+9999MW1011REMSYN088    AAXX  14124 01467 41485 40306 10013 20010 30260 40266 52008 70172 82871 222// 00051;
0165014670999992000011415004+58630+009150FM-12+000799999V0200301N002112200019N0750001N1+00141-00181102751ADDAY111031AY201031GF101991011081004501031011MA1999999102691MD1210091+9999MW1011REMSYN076    AAXX  14154 01467 41489 10304 10014 21018 30269 40275 52009 70110 81831;
0215014670999992000011418004+58630+009150FM-12+000799999V0200301N002112200019N0750001N1+00061-00301102911ADDAA112000591AY111061AY201061GA1001+999999999GF100991001001999999001001KA1999M+00161MA1999999102851MD1210161+9999MW1021REMSYN086    AAXX  14184 01467 11989 00304 10006 21030 30285 40291 52016 69962 70210 333 10016;
0175014670999992000011500004+58630+009150FM-12+000799999V0203301N001012200019N0750001N1-00081-00331103121ADDAY101061AY201061GA1001+999999999GF100991001001999999001001MA1999999103061MD1110101+9999MW1021REMSYN070    AAXX  15004 01467 41989 03302 11008 21033 30306 40312 51010 70200;
0175014670999992000011503004+58630+009150FM-12+000799999V0203101N001012200019N0750001N1-00171-00361103121ADDAY101031AY201031GA1001+999999999GF100991001001999999001001MA1999999103061MD1410001+9999MW1021REMSYN070    AAXX  15034 01467 41989 03102 11017 21036 30306 40312 54000 70200;
0218014670999992000011506004+58630+009150FM-12+000799999V0202701N000512200019N0550001N1-00191-00361103051ADDAA199000091AY101061AY201061GF102991001001999999001041KA1999N-00231MA1999999102991MD1810071+9999MW1031REMSYN086    AAXX  15064 01467 31985 22701 11019 21036 30299 40305 58007 70300 80004 333 21023;EQDQ01  00002PRCP99
0165014670999992000011509004+58630+009150FM-12+000799999V0202901N000512200019N0750001N1-00201-00421103061ADDAY101031AY201031GF103991021001999999031011MA1999999103001MD1210011+9999MW1021REMSYN076    AAXX  15094 01467 41989 32901 11020 21042 30300 40306 52001 70200 82031;
0177014670999992000011512004+58630+009150FM-12+000799999V0202201N000510300019N0750001N1+00071-00271102961ADDAY121061AY201061GF107991011041008001031011MA1999999102901MD1810101+9999MW1021REMSYN088    AAXX  15124 01467 41589 72201 10007 21027 30290 40296 58010 70220 81431 222// 00045;
0165014670999992000011515004+58630+009150FM-12+000799999V0202201N001010210019N0750001N1+00221+00031102751ADDAY121031AY221031GF107991071001022501071011MA1999999102691MD1710211+9999MW1021REMSYN076    AAXX  15154 01467 41889 72202 10022 20003 30269 40275 57021 70222 87071;
0218014670999992000011518004+58630+009150FM-12+000799999V0203001N002112200019N0750001N1+00431+00171102681ADDAA199000091AY121061AY211061GF103991031001999999041011KA1999M+00431MA1999999102621MD1510071+9999MW1021REMSYN086    AAXX  15184 01467 31989 33004 10043 20017 30262 40268 55007 70221 83041 333 10043;EQDQ01  00002PRCP99
0165014670999992000011600004+58630+009150FM-12+000799999V0202901N002112200019N0750001N1+00391+00231102601ADDAY161061AY211061GF101991011001999999061011MA1999999102541MD1810091+9999MW1021REMSYN076    AAXX  16004 01467 41989 12904 10039 20023 30254 40260 58009 70261 81061;
0165014670999992000011603004+58630+009150FM-12+000799999V0202301N000512200019N0750001N1+00361+00211102491ADDAY101031AY201031GF101991011001999999031011MA1999999102431MD1710111+9999MW1021REMSYN076    AAXX  16034 01467 41989 12301 10036 20021 30243 40249 57011 70200 81031;
0205014670999992000011606004+58630+009150FM-12+000799999V0202001N001012200019N0750001N1+00391+00191102381ADDAA112000391AY101061AY201061GF102991011001999999031011KA1999N+00251MA1999999102301MD1710111+9999MW1021REMSYN092    AAXX  16064 01467 11989 22002 10039 20019 30230 40238 57011 69932 70200 81031 333 20025;
0165014670999992000011609004+58630+009150FM-12+000799999V0202701N002110210019N0750001N1+00611+00121102171ADDAY121031AY211031GF107991071001022501071011MA1999999102111MD1710211+9999MW1021REMSYN076    AAXX  16094 01467 41889 72704 10061 20012 30211 40217 57021 70221 87071;
0177014670999992000011612004+58630+009150FM-12+000799999V0202501N003110300019N0750001N1+00611+00221101871ADDAY121061AY211061GF107991011011008001071011MA1999999101811MD1710301+9999MW1021REMSYN088    AAXX  16124 01467 41589 72506 10061 20022 30181 40187 57030 70221 81171 222// 00043;
0165014670999992000011615004+58630+009150FM-12+000799999V0202201N003110750019N0750001N1+00681+00481101531ADDAY121031AY221031GF105991011011008001071011MA1999999101471MD1710341+9999MW1011REMSYN076    AAXX  16154 01467 41589 52206 10068 20048 30147 40153 57034 70122 81171;
0218014670999992000011618004+58630+009150FM-12+000799999V0202201N002112200019N0600001N1+00551+00481101381ADDAA199000091AY121061AY211061GF102991011041008001031011KA1999M+00821MA1999999101321MD1610151+9999MW1021REMSYN086    AAXX  16184 01467 31586 22204 10055 20048 30132 40138 56015 70221 81431 333 10082;EQDQ01  00002PRCP99
0165014670999992000011700004+58630+009150FM-12+000799999V0202501N002112200019N0750001N1+00921+00421100951ADDAY111061AY201061GF101991011001999999031001MA1999999100891MD1710351+9999MW1021REMSYN076    AAXX  17004 01467 41989 12504 10092 20042 30089 40095 57035 70210 81030;
0165014670999992000011703004+58630+009150FM-12+000799999V0209999C000012200019N0750001N1+00691+00461100901ADDAY101031AY201031GF101991011001999999041001MA1999999100841MD1710051+9999MW1021REMSYN076    AAXX  17034 01467 41989 10000 10069 20046 30084 40090 57005 70200 81040;
0228014670999992000011706004+58630+009150FM-12+000799999V0202201N001012200019N0750001N1+00921+00251100851ADDAA199000091AY101061AY201061GA1001+999999999GF100991001001999999001001KA1999N+00461MA1999999100791MD1710051+9999MW1021REMSYN080    AAXX  17064 01467 31989 02202 10092 20025 30079 40085 57005 70200 333 20046;EQDQ01  00002PRCP99
0165014670999992000011709004+58630+009150FM-12+000799999V0202701N001012200019N0750001N1+01021+00081100831ADDAY101031AY201031GF101991011011008001031011MA1999999100771MD1710021+9999MW1021REMSYN076    AAXX  17094 01467 41589 12702 10102 20008 30077 40083 57002 70200 81131;
0177014670999992000011712004+58630+009150FM-12+000799999V0203201N006212200019N0750001N1+01331-00181100751ADDAY101061AY201061GF101991011011008001031011MA1999999100691MD1710081+9999MW1021REMSYN088    AAXX  17124 01467 41589 13212 10133 21018 30069 40075 57008 70200 81131 222// 00047;
0165014670999992000011715004+58630+009150FM-12+000799999V0203501N007712200019N0750001N1+01241-00261100801ADDAY101031AY201031GF101991011011008001031011MA1999999100741MD1310051+9999MW1021REMSYN076    AAXX  17154 01467 41589 13515 10124 21026 30074 40080 53005 70200 81131;
0218014670999992000011718004+58630+009150FM-12+000799999V0203601N004612200019N0750001N1+01101-00241100921ADDAA199000091AY101061AY201061GF101991011011008001001011KA1999M+01331MA1999999100861MD1210121+9999MW1021REMSYN086    AAXX  17184 01467 31589 13609 10110 21024 30086 40092 52012 70200 81101 333 10133;EQDQ01  00002PRCP99
0165014670999992000011800004+58630+009150FM-12+000799999V0203301N002112200019N0600001N1+00701+00021100751ADDAY101061AY201061GF101991011011008001001001MA1999999100691MD1610041+9999MW1021REMSYN076    AAXX  18004 01467 41586 13304 10070 20002 30069 40075 56004 70200 81100;
0165014670999992000011803004+58630+009150FM-12+000799999V0203601N007712200019N0750001N1+00861-00391100911ADDAY101031AY201031GF102991021011008001001011MA1999999100851MD1310161+9999MW1021REMSYN076    AAXX  18034 01467 41589 23615 10086 21039 30085 40091 53016 70200 82101;
0228014670999992000011806004+58630+009150FM-12+000799999V0203401N006212200019N0750001N1+00571-00751101141ADDAA199000091AY101061AY201061GA1001+999999999GF100991001001999999001001KA1999N+00571MA1999999101081MD1210231+9999MW1021REMSYN080    AAXX  18064 01467 31989 03412 10057 21075 30108 40114 52023 70200 333 20057;EQDQ01  00002PRCP99
0175014670999992000011809004+58630+009150FM-12+000799999V0203401N006212200019N0600001N1+00491-00891101351ADDAY101031AY201031GA1001+999999999GF100991001001999999001001MA1999999101291MD1210121+9999MW1021REMSYN070    AAXX  18094 01467 41986 03412 10049 21089 30129 40135 52012 70200;
0177014670999992000011812004+58630+009150FM-12+000799999V0203501N004612200019N0600001N1+00561-00941101611ADDAY101061AY201061GF101991001001999999001011MA1999999101551MD1210261+9999MW1031REMSYN088    AAXX  18124 01467 41986 13509 10056 21094 30155 40161 52026 70300 80001 222// 00047;
0165014670999992000011815004+58630+009150FM-12+000799999V0203501N004612200019N0600001N1+00521-00901101821ADDAY101031AY201031GF101991001001999999001011MA1999999101761MD1210211+9999MW1021REMSYN076    AAXX  18154 01467 41986 13509 10052 21090 30176 40182 52021 70200 80001;
0218014670999992000011818004+58630+009150FM-12+000799999V0203501N003112200019N0600001N1+00371-00891102021ADDAA199000091AY101061AY201061GF101991001001999999001011KA1999M+00571MA1999999101961MD1210201+9999MW1021REMSYN086    AAXX  18184 01467 31986 13506 10037 21089 30196 40202 52020 70200 80001 333 10057;EQDQ01  00002PRCP99
0165014670999992000011900004+58630+009150FM-12+000799999V0203201N002112200019N0750001N1+00221-00771102281ADDAY101061AY201061GF101991011041008001061011MA1999999102221MD1110101+9999MW1021REMSYN076    AAXX  19004 01467 41589 13204 10022 21077 30222 40228 51010 70200 81461;
0175014670999992000011903004+58630+009150FM-12+000799999V0203601N003112200019N0750001N1+00201-00841102351ADDAY101031AY201031GA1001+999999999GF100991001001999999001001MA1999999102291MD1210071+9999MW1011REMSYN070    AAXX  19034 01467 41989 03606 10020 21084 30229 40235 52007 70100;
0218014670999992000011906004+58630+009150FM-12+000799999V0203201N002112200019N0600001N1+00161-00791102411ADDAA199000091AY101061AY201061GF101991011041008001041001KA1999N+00161MA1999999102351MD1110061+9999MW1031REMSYN086    AAXX  19064 01467 31586 13204 10016 21079 30235 40241 51006 70300 81440 333 20016;EQDQ01  00002PRCP99
0165014670999992000011909004+58630+009150FM-12+000799999V0203101N002112200019N0750001N1+00181-00701102491ADDAY101031AY201031GF102991011041008001061011MA1999999102431MD1110081+9999MW1021REMSYN076    AAXX  19094 01467 41589 23104 10018 21070 30243 40249 51008 70200 81461;
0185014670999992000011912004+58630+009150FM-12+000799999V0203201N001012200019N0750001N1+00411-00511102381ADDAY111061AY201061GF104991011041008001031011MA1999999102321MD1810091+9999MW1021SA1+4009REMSYN088    AAXX  19124 01467 41589 43202 10041 21051 30232 40238 58009 70210 81431 222// 00040;
0165014670999992000011915004+58630+009150FM-12+000799999V0202801N001012200019N0750001N1+00501-00401102221ADDAY111031AY201031GF102991011001999999031011MA1999999102161MD1710161+9999MW1021REMSYN076    AAXX  19154 01467 41989 22802 10050 21040 30216 40222 57016 70210 81031;
0214014670999992000011918004+58630+009150FM-12+000799999V0202401N002112200019N0750001N1+00251-00111102131ADDAA199000091AY111061AY201061GF102991011001999999031011KA1999M+00501MA1999999102071MD1710091+9999MW1021REMSYN082AAXX  19184 01467 31989 22404 10025 21011 30207 40213 57009 70210 81031 333 10050;EQDQ01  00002PRCP99
0161014670999992000012000004+58630+009150FM-12+000799999V0202901N004610300019N0600001N1+00691-00051101851ADDAY121061AY211061GF107991011041008001071999MA1999999101791MD1710141+9999MW1031REMSYN072AAXX  20004 01467 41586 72909 10069 21005 30179 40185 57014 70321 8147/;
0161014670999992000012003004+58630+009150FM-12+000799999V0202201N002112200019N0750001N1+00531+00141101601ADDAY121031AY211031GF104991041001999999041011MA1999999101541MD1710251+9999MW1021REMSYN072AAXX  20034 01467 41989 42204 10053 20014 30154 40160 57025 70221 84041;
0214014670999992000012006004+58630+009150FM-12+000799999V0202201N002119999999N0750001N1+00431+00301101171ADDAA199000091AY121061AY211061GF107991071001999999031011KA1999N+00211MA1999999101111MD1710431+9999MW1021REMSYN082AAXX  20064 01467 31989 72204 10043 20030 30111 40117 57043 70221 87031 333 20021;EQDQ01  00002PRCP99
0161014670999992000012009004+58630+009150FM-12+000799999V0202701N002110300019N0550001N1+00401+00251101091ADDAY121031AY221031GF107991011051008001071999MA1999999101031MD1710081+9999MW1021REMSYN072AAXX  20094 01467 41585 72704 10040 20025 30103 40109 57008 70222 8157/;
0173014670999992000012012004+58630+009150FM-12+000799999V0202701N002112200019N0550001N1+00601+00101101001ADDAY121061AY211061GF103991021051008001041001MA1999999100941MD1710091+9999MW1011REMSYN084AAXX  20124 01467 41585 32704 10060 20010 30094 40100 57009 70121 82540 222// 00043;
0161014670999992000012015004+58630+009150FM-12+000799999V0203301N003112200019N0550001N1+00841-00311100861ADDAY101031AY201031GF104991021051012501041011MA1999999100801MD1710141+9999MW1031REMSYN072AAXX  20154 01467 41685 43306 10084 21031 30080 40086 57014 70300 82541;
0214014670999992000012018004+58630+009150FM-12+000799999V0203301N002112200019N0600001N1+00621-00451100901ADDAA199000091AY101061AY201061GF101991011041008001041011KA1999M+00851MA1999999100841MD1310041+9999MW1011REMSYN082AAXX  20184 01467 31586 13304 10062 21045 30084 40090 53004 70100 81441 333 10085;EQDQ01  00002PRCP99
0161014670999992000012100004+58630+009150FM-12+000799999V0200201N003112200019N0750001N1+00431-00721101111ADDAY101061AY201061GF102991011021008001061001MA1999999101051MD1310171+9999MW1031REMSYN072AAXX  21004 01467 41589 20206 10043 21072 30105 40111 53017 70300 81260;
0161014670999992000012103004+58630+009150FM-12+000799999V0200401N002112200019N0500001N1+00031-00011101431ADDAY181031AY201031GF103991011091008001041001MA1999999101391MD1210321+9999MW1031REMSYN072AAXX  21034 01467 41584 30404 10003 21001 30139 40143 52032 70380 81940;
0220014670999992000012106004+58630+009150FM-12+000799999V0203301N001012200019N0550001N1-00041-00261101701ADDAA112000791AY181061AY201061GF101991011041008001041001KA1999N+99999MA1999999101641MD1210201+9999MW1011REMSYN088AAXX  21064 01467 11585 13302 11004 21026 30164 40170 52020 69902 70180 81440 333 20004;EQDQ01 +00042ATMN  
0161014670999992000012109004+58630+009150FM-12+000799999V0200301N002112200019N0650001N1-00021-00931102071ADDAY111031AY201031GF103991021041004501061011MA1999999102011MD1210371+9999MW1021REMSYN072AAXX  21094 01467 41487 30304 11002 21093 30201 40207 52037 70210 82461;
0181014670999992000012112004+58630+009150FM-12+000799999V0203601N002112200019N0750001N1+00071-01101102291ADDAY111061AY201061GF103991011011004501031011MA1999999102231MD1210221+9999MW1031SA1+3609REMSYN084AAXX  21124 01467 41489 33604 10007 21110 30223 40229 52022 70310 81131 222// 00036;
0161014670999992000012115004+58630+009150FM-12+000799999V0200301N002110300019N0600001N1-00011-01201102201ADDAY121031AY211031GF107991021051008001071999MA1999999102141MD1810091+9999MW1031REMSYN072AAXX  21154 01467 41586 70304 11001 21120 30214 40220 58009 70321 8257/;
0214014670999992000012118004+58630+009150FM-12+000799999V0201801N002110300019N0550001N1+00001-00971101951ADDAA199000091AY121061AY211061GF107991031051008001071999KA1999M+00081MA1999999101891MD1710251+9999MW1021REMSYN082AAXX  21184 01467 31585 71804 10000 21097 30189 40195 57025 70221 8357/ 333 10008;EQDQ01  00002PRCP99
0161014670999992000012200004+58630+009150FM-12+000799999V0201801N006210042019N0040001N1-00071-00111101161ADDAY171061AY221061GF108991081071004501999999MA1999999101101MD1710401+9999MW1711REMSYN072AAXX  22004 01467 41440 81812 11007 21011 30110 40116 57040 77172 887//;
0161014670999992000012203004+58630+009150FM-12+000799999V0201601N004610042019N0040001N1-00021-00101100791ADDAY171031AY271031GF108991081071004501999999MA1999999100731MD1710371+9999MW1711REMSYN072AAXX  22034 01467 41440 81609 11002 21010 30073 40079 57037 77177 887//;
0201014670999992000012206004+58630+009150FM-12+000799999V0201201N004610042019N0080001N1-00021-00061100711ADDAA112001091AY171061AY271061GF108991081071004501999999KA1999N-00101MA1999999100651MD1510081+9999MW1711REMSYN088AAXX  22064 01467 11458 81209 11002 21006 30065 40071 55008 60012 77177 887// 333 21010;
0161014670999992000012209004+58630+009150FM-12+000799999V0201501N003110042019N0040001N1+00001-00031100931ADDAY171031AY271031GF108991081071004501999999MA1999999100871MD1210221+9999MW1711REMSYN072AAXX  22094 01467 41440 81506 10000 21003 30087 40093 52022 77177 887//;
0181014670999992000012212004+58630+009150FM-12+000799999V0201901N002110300019N0100001N1+00041-00091101171ADDAY171061AY221061GF108991041071008001021999MA1999999101111MD1210241+9999MW1021SA1+3609REMSYN084AAXX  22124 01467 41560 81904 10004 21009 30111 40117 52024 70272 8472/ 222// 00036;
0161014670999992000012215004+58630+009150FM-12+000799999V0202701N001010075019N0180001N1+00031-00141101211ADDAY121031AY221031GF108991061051008001071999MA1999999101151MD1110061+9999MW1021REMSYN072AAXX  22154 01467 41568 82702 10003 21014 30115 40121 51006 70222 8657/;
0201014670999992000012218004+58630+009150FM-12+000799999V0202701N001010042019N0050001N1-00041-00101101291ADDAA112000891AY171061AY221061GF108991081071004501999999KA1999M+00091MA1999999101231MD1210081+9999MW1711REMSYN088AAXX  22184 01467 11450 82702 11004 21010 30123 40129 52008 69982 77172 887// 333 10009;
0161014670999992000012300004+58630+009150FM-12+000799999V0203601N002110075019N0200001N1-00061-00101101491ADDAY171061AY221061GF108991081051008001999999MA1999999101431MD1210101+9999MW1021REMSYN072AAXX  23004 01467 41570 83604 11006 21010 30143 40149 52010 70272 885//;
0161014670999992000012303004+58630+009150FM-12+000799999V0200301N002112200019N0300001N1-00201-00261101721ADDAY121031AY211031GF104991011041008001041001MA1999999101661MD1210231+9999MW1011REMSYN072AAXX  23034 01467 41580 40304 11020 21026 30166 40172 52023 70121 81440;
0201014670999992000012306004+58630+009150FM-12+000799999V0200301N003112200019N0400001N1-00341-00441101991ADDAA112000391AY121061AY211061GF101991011041008001001001KA1999N-00341MA1999999101931MD1210271+9999MW1011REMSYN088AAXX  23064 01467 11582 10306 11034 21044 30193 40199 52027 69932 70121 81400 333 21034;
0161014670999992000012309004+58630+009150FM-12+000799999V0203601N002112200019N0500001N1-00461-00601102091ADDAY101031AY201031GF102991011011008001001011MA1999999102031MD1110101+9999MW1031REMSYN072AAXX  23094 01467 41584 23604 11046 21060 30203 40209 51010 70300 81101;
0161014670999992000012315004+58630+009150FM-12+000799999V0202701N001010750019N0550001N1-00201-00511102221ADDAY111031AY201031GF105991011021008001041081MA1999999102161MD1810051+9999MW1031REMSYN072AAXX  23154 01467 41585 52702 11020 21051 30216 40222 58005 70310 81248;
0214014670999992000012318004+58630+009150FM-12+000799999V0202401N000512200019N0550001N1-00371-00551102191ADDAA199000091AY111061AY201061GF101991011041008001001001KA1999M-00201MA1999999102131MD1610031+9999MW1011REMSYN082AAXX  23184 01467 31585 12401 11037 21055 30213 40219 56003 70110 81400 333 11020;EQDQ01  00002PRCP99
0171014670999992000012400004+58630+009150FM-12+000799999V0203001N000512200019N0750001N1-00621-00751102201ADDAY101061AY201061GA1001+999999999GF100991001001999999001001MA1999999102141MD1310011+9999MW1011REMSYN066AAXX  24004 01467 41989 03001 11062 21075 30214 40220 53001 70100;
0171014670999992000012403004+58630+009150FM-12+000799999V0203001N001012200019N0600001N1-00681-00761102151ADDAY101031AY201031GA1001+999999999GF100991001001999999001001MA1999999102091MD1810051+9999MW1021REMSYN066AAXX  24034 01467 41986 03002 11068 21076 30209 40215 58005 70200;
0230014670999992000012406004+58630+009150FM-12+000799999V0203001N001012200019N0600001N1-00561-00651999999ADDAA199000091AY101061AY201061GF103991011001022501041011KA1999N-00681MA1999999101951MD1710141+9999MW1031REMSYN082AAXX  24064 01467 31886 33002 11056 21065 30195 40121 57014 70300 81041 333 21068;EQDQ01+101213APOSLPQ02  00002PRCP99
0161014670999992000012409004+58630+009150FM-12+000799999V0203501N001012200019N0600001N1-00461-00581101951ADDAY101031AY201031GF102991011051008001031001MA1999999101891MD1610061+9999MW1011REMSYN072AAXX  24094 01467 41586 23502 11046 21058 30189 40195 56006 70100 81530;
0181014670999992000012412004+58630+009150FM-12+000799999V0202401N000512200019N0600001N1-00051-00241101901ADDAY101061AY201061GF102991011021008001041011MA1999999101841MD1810051+9999MW1021SA1+2709REMSYN084AAXX  24124 01467 41586 22401 11005 21024 30184 40190 58005 70200 81241 222// 00027;
0161014670999992000012415004+58630+009150FM-12+000799999V0202701N000512200019N0600001N1+00101-00121101821ADDAY101031AY201031GF104991011021008001041011MA1999999101761MD1710081+9999MW1031REMSYN072AAXX  24154 01467 41586 42701 10010 21012 30176 40182 57008 70300 81241;
0214014670999992000012418004+58630+009150FM-12+000799999V0203301N000512200019N0600001N1-00131-00191101931ADDAA199000091AY101061AY201061GF102991011041008001041001KA1999M+00201MA1999999101871MD1310111+9999MW1011REMSYN082AAXX  24184 01467 31586 23301 11013 21019 30187 40193 53011 70100 81440 333 10020;EQDQ01  00002PRCP99
0180014670999992000012500004+58630+009150FM-12+000799999V0203301N000512200019N0600001N1-00071-00261102111ADDAY101061AY201061GF102991999041008001001001MA1999999102051MD1210041+9999MW1021REMSYN072AAXX  25004 01467 41586 23301 11007 21026 30205 40211 52004 70200 81400;EQDQ01+000012SCOTLC
0161014670999992000012503004+58630+009150FM-12+000799999V0202701N000512200019N0600001N1+00001-00321102111ADDAY101031AY201031GF102991001001999999001011MA1999999102051MD1410001+9999MW1021REMSYN072AAXX  25034 01467 41986 22701 10000 21032 30205 40211 54000 70200 80001;
0224014670999992000012506004+58630+009150FM-12+000799999V0202701N000512200019N0600001N1-00201-00301101961ADDAA199000091AY101061AY201061GA1001+999999999GF100991001001999999001001KA1999N-00201MA1999999101901MD1810101+9999MW1011REMSYN076AAXX  25064 01467 31986 02701 11020 21030 30190 40196 58010 70100 333 21020;EQDQ01  00002PRCP99
0161014670999992000012515004+58630+009150FM-12+000799999V0202401N000512200019N0600001N1+00191+00131101791ADDAY101031AY201031GF102991011041008001001081MA1999999101731MD1710041+9999MW1031REMSYN072AAXX  25154 01467 41586 22401 10019 20013 30173 40179 57004 70300 81408;
0214014670999992000012518004+58630+009150FM-12+000799999V0203201N000512200019N0400001N1-00061-00101101831ADDAA199000091AY101061AY201061GF101991011041008001001001KA1999M+00191MA1999999101771MD1310041+9999MW1011REMSYN082AAXX  25184 01467 31582 13201 11006 21010 30177 40183 53004 70100 81400 333 10019;EQDQ01  00002PRCP99
0161014670999992000012600004+58630+009150FM-12+000799999V0202701N000512200019N0550001N1-00181-00221101791ADDAY101061AY201061GF101991011001022501041001MA1999999101731MD1710061+9999MW1021REMSYN072AAXX  26004 01467 41885 12701 11018 21022 30173 40179 57006 70200 81040;
0161014670999992000012603004+58630+009150FM-12+000799999V0202701N000512200019N0550001N1-00061-00121101601ADDAY101031AY201031GF101991011001022501031001MA1999999101541MD1710191+9999MW1021REMSYN072AAXX  26034 01467 41885 12701 11006 21012 30154 40160 57019 70200 81030;
0214014670999992000012606004+58630+009150FM-12+000799999V0202701N000512200019N0550001N1+00131+00091101431ADDAA199000091AY101061AY201061GF101991011001022501041001KA1999N-00241MA1999999101371MD1710171+9999MW1021REMSYN082AAXX  26064 01467 31885 12701 10013 20009 30137 40143 57017 70200 81040 333 21024;EQDQ01  00002PRCP99
0161014670999992000012609004+58630+009150FM-12+000799999V0202501N001012200019N0550001N1+00271+00211101371ADDAY101031AY201031GF104991041001022501041001MA1999999101311MD1610061+9999MW1031REMSYN072AAXX  26094 01467 41885 42502 10027 20021 30131 40137 56006 70300 84040;
0181014670999992000012612004+58630+009150FM-12+000799999V0202901N002112200019N0550001N1+00741+00361101261ADDAY111061AY201061GF105991031001022501041011MA1999999101201MD1710111+9999MW1031SA1+2809REMSYN084AAXX  26124 01467 41885 52904 10074 20036 30120 40126 57011 70310 83041 222// 00028;
0161014670999992000012615004+58630+009150FM-12+000799999V0202001N001010210019N0550001N1+00551+00051101231ADDAY121031AY221031GF106991061001022501041001MA1999999101171MD1610031+9999MW1031REMSYN072AAXX  26154 01467 41885 62002 10055 20005 30117 40123 56003 70322 86040;
0214014670999992000012618004+58630+009150FM-12+000799999V0203001N000510300019N0550001N1+00631-00091101381ADDAA199000091AY121061AY221061GF107991031051008001071999KA1999M+00861MA1999999101321MD1310151+9999MW1031REMSYN082AAXX  26184 01467 31585 73001 10063 21009 30132 40138 53015 70322 8357/ 333 10086;EQDQ01  00002PRCP99
0161014670999992000012700004+58630+009150FM-12+000799999V0202701N002110300019N0550001N1+00471-00041101451ADDAY121061AY221061GF107991031051008001071999MA1999999101391MD1810061+9999MW1021REMSYN072AAXX  27004 01467 41585 72704 10047 21004 30139 40145 58006 70222 8357/;
0161014670999992000012703004+58630+009150FM-12+000799999V0202701N003110300019N0550001N1+00431-00011101371ADDAY121031AY221031GF107991031051008001071999MA1999999101311MD1710081+9999MW1021REMSYN072AAXX  27034 01467 41585 72706 10043 21001 30131 40137 57008 70222 8357/;
0214014670999992000012706004+58630+009150FM-12+000799999V0202701N002110300019N0550001N1+00421+00071101161ADDAA199000091AY121061AY221061GF108991031051008001071999KA1999N+00421MA1999999101101MD1710211+9999MW1031REMSYN082AAXX  27064 01467 31585 82704 10042 20007 30110 40116 57021 70322 8357/ 333 20042;EQDQ01  00002PRCP99
0161014670999992000012709004+58630+009150FM-12+000799999V0202701N002110300019N0550001N1+00401+00241100961ADDAY121031AY221031GF107991031051008001071999MA1999999100901MD1710201+9999MW1021REMSYN072AAXX  27094 01467 41585 72704 10040 20024 30090 40096 57020 70222 8357/;
0173014670999992000012712004+58630+009150FM-12+000799999V0202601N004610300019N0550001N1+00551+00271100371ADDAY121061AY221061GF107991031051008001071999MA1999999100311MD1810591+9999MW1021REMSYN084AAXX  27124 01467 41585 72609 10055 20027 30031 40037 58059 70222 8357/ 222// 00033;
0161014670999992000012715004+58630+009150FM-12+000799999V0202701N003112200019N0550001N1+00731+00231100181ADDAY121031AY201031GF104991021021008001041051MA1999999100121MD1710191+9999MW1011REMSYN072AAXX  27154 01467 41585 42706 10073 20023 30012 40018 57019 70120 82245;
0214014670999992000012718004+58630+009150FM-12+000799999V0202501N003112200019N0550001N1+00521+00001100151ADDAA199000091AY101061AY201061GF102991011021008001041001KA1999M+00731MA1999999100091MD1710131+9999MW1011REMSYN082AAXX  27184 01467 31585 22506 10052 20000 30009 40015 57013 70100 81240 333 10073;EQDQ01  00002PRCP99
0161014670999992000012800004+58630+009150FM-12+000799999V0202501N003110300019N0550001N1+00301+00011100061ADDAY121061AY211061GF108991031051008001071999MA1999999100001MD1710031+9999MW1031REMSYN072AAXX  28004 01467 41585 82506 10030 20001 30000 40006 57003 70321 8357/;
0161014670999992000012803004+58630+009150FM-12+000799999V0202501N004610300019N0550001N1+00321-00191100001ADDAY121031AY221031GF107991031051008001071999MA1999999099941MD1710061+9999MW1021REMSYN072AAXX  28034 01467 41585 72509 10032 21019 39994 40000 57006 70222 8357/;
0214014670999992000012806004+58630+009150FM-12+000799999V0202701N002110300019N0550001N1+00271-00231099961ADDAA199000091AY121061AY221061GF106991021041008001071001KA1999N+00241MA1999999099901MD1710041+9999MW1011REMSYN082AAXX  28064 01467 31585 62704 10027 21023 39990 49996 57004 70122 82470 333 20024;EQDQ01  00002PRCP99
0161014670999992000012809004+58630+009150FM-12+000799999V0202401N002110300019N0550001N1+00181-00081099901ADDAY121031AY221031GF107991031051008001071999MA1999999099841MD1710061+9999MW1031REMSYN072AAXX  28094 01467 41585 72404 10018 21008 39984 49990 57006 70322 8357/;
0173014670999992000012812004+58630+009150FM-12+000799999V0202501N002110300019N0500001N1+00271+00011099671ADDAY121061AY221061GF107991021051008001071999MA1999999099611MD1710231+9999MW1021REMSYN084AAXX  28124 01467 41584 72504 10027 20001 39961 49967 57023 70222 8257/ 222// 00046;
0161014670999992000012815004+58630+009150FM-12+000799999V0202501N002110300019N0400001N1+00331+00171099471ADDAY121031AY221031GF108991021051008001071999MA1999999099411MD1710201+9999MW1031REMSYN072AAXX  28154 01467 41582 82504 10033 20017 39941 49947 57020 70322 8257/;
0201014670999992000012818004+58630+009150FM-12+000799999V0202601N003110300019N0200001N1+00321+00281099241ADDAA112000891AY161061AY221061GF108991041071008001021999KA1999M+00331MA1999999099181MD1710231+9999MW1521REMSYN088AAXX  28184 01467 11570 82606 10032 20028 39918 49924 57023 69972 75262 8472/ 333 10033;
0161014670999992000012900004+58630+009150FM-12+000799999V0202501N004610300019N0200001N1+00491+00461098421ADDAY161061AY221061GF108991041071004501021999MA1999999098361MD1710171+9999MW1531REMSYN072AAXX  29004 01467 41470 82509 10049 20046 39836 49842 57017 75362 8472/;
0161014670999992000012903004+58630+009150FM-12+000799999V0202501N006210300019N0150001N1+00581+00551097971ADDAY151031AY221031GF108991041071004501021999MA1999999097911MD1710451+9999MW1501REMSYN072AAXX  29034 01467 41465 82512 10058 20055 39791 49797 57045 75052 8472/;
0201014670999992000012906004+58630+009150FM-12+000799999V0202401N006210300019N0150001N1+00571+00541097191ADDAA112000391AY161061AY221061GF108991041071004501021999KA1999N+00311MA1999999097131MD1710781+9999MW1581REMSYN088AAXX  29064 01467 11465 82412 10057 20054 39713 49719 57078 69932 75862 8472/ 333 20031;
0161014670999992000012909004+58630+009150FM-12+000799999V0202401N006210042019N0200001N1+00581+00571096401ADDAY161031AY221031GF108991051071004501021999MA1999999096391MD1710791+9999MW1621REMSYN072AAXX  29094 01467 41470 82412 10058 20057 39639 49640 57079 76262 8572/;
0173014670999992000012912004+58630+009150FM-12+000799999V0203101N004612200019N0400001N1+00741+00701095941ADDAY161061AY201061GF104991031051004501071001MA1999999095881MD1710461+9999MW1011REMSYN084AAXX  29124 01467 41482 43109 10074 20070 39588 49594 57046 70160 83570 222// 00063;
0161014670999992000012915004+58630+009150FM-12+000799999V0202701N006210300019N0250001N1+00551+00091096081ADDAY181031AY221031GF107991041071004501021999MA1999999096021MD1310141+9999MW1811REMSYN072AAXX  29154 01467 41475 72712 10055 20009 39602 49608 53014 78182 8472/;
0201014670999992000012918004+58630+009150FM-12+000799999V0202601N007710042019N0250001N1+00391+00291095681ADDAA112004191AY181061AY221061GF107991051071004501021999KA1999M+00761MA1999999095621MD1810441+9999MW1811REMSYN088AAXX  29184 01467 11475 72615 10039 20029 39562 49568 58044 60042 78182 8572/ 333 10076;
0161014670999992000013000004+58630+009150FM-12+000799999V0202501N004612200019N0300001N1+00341+00181095431ADDAY181061AY211061GF102991011041008001041001MA1999999095371MD1310071+9999MW1011REMSYN072AAXX  30004 01467 41580 22509 10034 20018 39537 49543 53007 70181 81440;
0196014670999992000013003004+58630+009150FM-12+000799999V0203201N006212200019N0400001N1+00551+00271096332ADDAY101031AY201031GF102991011041008001041001MA1999999096272MD1310901+9999MW1021REMSYN072AAXX  30034 01467 41582 23212 10055 20027 39627 49633 53090 70200 81440;EQDQ01+096273APOSP Q02+096333APOSLP
0201014670999992000013006004+58630+009150FM-12+000799999V0203201N009812200019N0400001N1+00551-00411097341ADDAA112000191AY101061AY201061GF102991011041008001041001KA1999N+00091MA1999999097281MD1211011+9999MW1021REMSYN088AAXX  30064 01467 11582 23219 10055 21041 39728 49734 52101 69912 70200 81440 333 20009;
0196014670999992000013009004+58630+009150FM-12+000799999V0203201N006212200019N0600001N1+00351-00681098712ADDAY101031AY201031GF102991011041008001041001MA1999999098652MD1211371+9999MW1021REMSYN072AAXX  30094 01467 41586 23212 10035 21068 39865 49871 52137 70200 81440;EQDQ01+098653APOSP Q02+098713APOSLP
0208014670999992000013012004+58630+009150FM-12+000799999V0203401N004612200019N0600001N1+00231-01141099451ADDAY101061AY201061GF101991011011008001041001MA1999999099391MD1410001+9999MW1011REMSYN084AAXX  30124 01467 41586 13409 10023 21114 39939 49945 52074 70100 81140 222// 00057;EQDQ01+000022APCTENQ02+000742APC3  
0161014670999992000013015004+58630+009150FM-12+000799999V0203201N004612200019N0600001N1+00191-01041099811ADDAY101031AY201031GF101991011011008001041001MA1999999099751MD1210361+9999MW1021REMSYN072AAXX  30154 01467 41586 13209 10019 21104 39975 49981 52036 70200 81140;
0214014670999992000013018004+58630+009150FM-12+000799999V0202701N002112200019N0400001N1+00031-00911100041ADDAA199000091AY101061AY201061GF103991011041008001071001KA1999M+00541MA1999999099981MD1210231+9999MW1031REMSYN082AAXX  30184 01467 31582 32704 10003 21091 39998 40004 52023 70300 81470 333 10054;EQDQ01  00002PRCP99
0180014670999992000013100004+58630+009150FM-12+000799999V0202501N002110300019N0300001N1+00161-00641099541ADDAY121061AY201061GF106991021041008001071001MA1999999099481MD1810502+9999MW1031REMSYN072AAXX  31004 01467 41580 62504 10016 21064 39948 49954 58050 70320 82470;EQDQ01+000502APC3  
0196014670999992000013103004+58630+009150FM-12+000799999V0200301N004610042019N0050001N1-00031-00041098682ADDAY181031AY221031GF108991081071004501999999MA1999999098622MD1710861+9999MW1861REMSYN072AAXX  31034 01467 41450 80309 11003 21004 39862 49868 57086 78682 887//;EQDQ01+098623APOSP Q02+098683APOSLP
0201014670999992000013106004+58630+009150FM-12+000799999V0200601N006210042019N0050001N1-00061-00071098841ADDAA112002091AY171061AY221061GF108991081071004501999999KA1999N-00061MA1999999098781MD1310161+9999MW1711REMSYN088AAXX  31064 01467 11450 80612 11006 21007 39878 49884 53016 60022 77172 887// 333 21006;
0161014670999992000013109004+58630+009150FM-12+000799999V0203301N002112200019N0600001N1-00341-00381099751ADDAY171031AY221031GF102991021091004501061001MA1999999099691MD1210911+9999MW1011REMSYN072AAXX  31094 01467 41486 23304 11034 21038 39969 49975 52091 70172 82960;
0173014670999992000013112004+58630+009150FM-12+000799999V0202901N002112200019N0600001N1-00171-00331100201ADDAY171061AY201061GF101991011041004501001001MA1999999100141MD1210451+9999MW1011REMSYN084AAXX  31124 01467 41486 12904 11017 21033 30014 40020 52045 70170 81400 222// 00051;
0161014670999992000013115004+58630+009150FM-12+000799999V0202801N002112200019N0600001N1+00071-00011100321ADDAY101031AY201031GF102991011091004501041001MA1999999100261MD1210121+9999MW1031REMSYN072AAXX  31154 01467 41486 22804 10007 21001 30026 40032 52012 70300 81940;
0201014670999992000013118004+58630+009150FM-12+000799999V0202501N002110750019N0400001N1+00191+00131100481ADDAA112000891AY121061AY201061GF105991021091004501061061KA1999M+00191MA1999999100421MD1210161+9999MW1031REMSYN088AAXX  31184 01467 11482 52504 10019 20013 30042 40048 52016 69972 70320 82966 333 10019;
0161014670999992000020100004+58630+009150FM-12+000799999V0209999C000010750019N0400001N1+00121-00061100841ADDAY121061AY211061GF105991021071004501061011MA1999999100781MD1210151+9999MW1021REMSYN072AAXX  01004 01467 41482 50000 10012 21006 30078 40084 52015 70221 82761;
0161014670999992000020103004+58630+009150FM-12+000799999V0203201N001010750019N0400001N1+00051-00121100861ADDAY121031AY221031GF105991021071004501061011MA1999999100801MD1210021+9999MW1021REMSYN072AAXX  01034 01467 41482 53202 10005 21012 30080 40086 52002 70222 82761;
0214014670999992000020106004+58630+009150FM-12+000799999V0200201N000510300019N0400001N1-00031-00171100781ADDAA199000091AY121061AY221061GF108991031051004501071999KA1999N-00131MA1999999100721MD1810081+9999MW1031REMSYN082AAXX  01064 01467 31482 80201 11003 21017 30072 40078 58008 70322 8357/ 333 21013;EQDQ01  00002PRCP99
0161014670999992000020109004+58630+009150FM-12+000799999V0203601N000510042019N0300001N1-00081-00161100681ADDAY121031AY221031GF108991081051004501999999MA1999999100621MD1810101+9999MW1021REMSYN072AAXX  01094 01467 41480 83601 11008 21016 30062 40068 58010 70222 885//;
0173014670999992000020112004+58630+009150FM-12+000799999V0200501N001010021019N0010001N1+00001-00071100351ADDAY171061AY221061GF108991051071002501021999MA1999999100291MD1710331+9999MW1721REMSYN084AAXX  01124 01467 41310 80502 10000 21007 30029 40035 57033 77272 8572/ 222// 00042;
0161014670999992000020115004+58630+009150FM-12+000799999V0200901N002110021019N0015001N1+00101+00091099851ADDAY171031AY221031GF108991061071002501021999MA1999999099791MD1710501+9999MW1681REMSYN072AAXX  01154 01467 41315 80904 10010 20009 39979 49985 57050 76872 8672/;
0201014670999992000020118004+58630+009150FM-12+000799999V0203601N001010300019N0030001N1+00001-00011099461ADDAA112004191AY171061AY251061GF108991031071002501021999KA1999M+00101MA1999999099401MD1610391+9999MW1681REMSYN088AAXX  01184 01467 11330 83602 10000 21001 39940 49946 56039 60042 76875 8372/ 333 10010;
0182014670999992000020200004+58630+009150FM-12+000799999V0202501N001012200019N0300001N1-00111-00131099441ADDAY171061AY211061GF102991011041004501041001MA1999999099381MW1011REMSYN072AAXX  02004 01467 41480 22502 11011 21013 39938 49944 56000 70171 81440;EQDQ01+000062APCTENQ02+000002APC3  
0171014670999992000020203004+58630+009150FM-12+000799999V0202301N002112200019N0400001N1+00141+00101099581ADDAY101031AY201031GA1001+999999999GF100991001001999999001001MA1999999099521MD1110141+9999MW1021REMSYN066AAXX  02034 01467 41982 02304 10014 20010 39952 49958 51014 70200;
0211014670999992000020206004+58630+009150FM-12+000799999V0202301N002112200019N0400001N1+00181+00141099541ADDAA112000191AY101061AY201061GA1001+999999999GF100991001001999999001001KA1999N-00201MA1999999099481MD1810041+9999MW1021REMSYN082AAXX  02064 01467 11982 02304 10018 20014 39948 49954 58004 69912 70200 333 21020;
0161014670999992000020209004+58630+009150FM-12+000799999V0202501N002112200019N0500001N1+00231+00191099481ADDAY101031AY201031GF101991011091008001041001MA1999999099421MD1810061+9999MW1031REMSYN072AAXX  02094 01467 41584 12504 10023 20019 39942 49948 58006 70300 81940;
0181014670999992000020212004+58630+009150FM-12+000799999V0202501N003110300019N0300001N1+00461+00291099261ADDAY121061AY201061GF107991031071008001021999MA1999999099201MD1710221+9999MW1031SA1+4109REMSYN084AAXX  02124 01467 41580 72506 10046 20029 39920 49926 57022 70320 8372/ 222// 00041;
0161014670999992000020215004+58630+009150FM-12+000799999V0202701N004612200019N0500001N1+00401+00071099041ADDAY121031AY221031GF104991021091004501061061MA1999999098981MD1710221+9999MW1011REMSYN072AAXX  02154 01467 41484 42709 10040 20007 39898 49904 57022 70122 82966;
0184014670999992000020218004+58630+009150FM-12+000799999V0202701N004612200019N0500001N1+00321+00001099191ADDAY121061AY201061GF102991011091004501041001KA1999M+00461MA1999999099131MD1310151+9999MW1011REMSYN082AAXX  02184 01467 41484 22709 10032 20000 39913 49919 53015 70120 81940 333 10046;
0161014670999992000020300004+58630+009150FM-12+000799999V0202701N002112200019N0550001N1+00301-00171099891ADDAY101061AY201061GF101991001001999999001021MA1999999099831MD1210351+9999MW1021REMSYN072AAXX  03004 01467 41985 12704 10030 21017 39983 49989 52035 70200 80002;
0180014670999992000020303004+58630+009150FM-12+000799999V0202701N002112200019N0550001N1+00311-00301100411ADDAY101031AY201031GF101991001001999999001021MA1999999100351MD1210522+9999MW1021REMSYN072AAXX  03034 01467 41985 12704 10031 21030 30035 40041 52052 70200 80002;EQDQ01+000522APC3  
0224014670999992000020306004+58630+009150FM-12+000799999V0203201N000512200019N0550001N1+00061-00211101171ADDAA199000091AY101061AY201061GA1001+999999999GF100991001001999999001001KA1999N+00031MA1999999101111MD1210761+9999MW1021REMSYN076AAXX  03064 01467 31985 03201 10006 21021 30111 40117 52076 70200 333 20003;EQDQ01  00002PRCP99
0161014670999992000020309004+58630+009150FM-12+000799999V0202801N000512200019N0550001N1+00001-00221101671ADDAY101031AY201031GF101991001001999999001011MA1999999101611MD1210501+9999MW1021REMSYN072AAXX  03094 01467 41985 12801 10000 21022 30161 40167 52050 70200 80001;
0181014670999992000020312004+58630+009150FM-12+000799999V0202701N001012200019N0550001N1+00401-00521102031ADDAY101061AY201061GF102991001001999999001091MA1999999101971MD1110361+9999MW1021SA1+3809REMSYN084AAXX  03124 01467 41985 22702 10040 21052 30197 40203 51036 70200 80009 222// 00038;
0161014670999992000020315004+58630+009150FM-12+000799999V0202701N000510300019N0550001N1+00421-00531102161ADDAY121031AY211031GF107991021041008001031081MA1999999102101MD1310131+9999MW1031REMSYN072AAXX  03154 01467 41585 72701 10042 21053 30210 40216 53013 70321 82438;
0214014670999992000020318004+58630+009150FM-12+000799999V0202401N001010300019N0550001N1+00261-00291102211ADDAA199000091AY121061AY221061GF106991011041008001031091KA1999M+00451MA1999999102151MD1010051+9999MW1021REMSYN082AAXX  03184 01467 31585 62402 10026 21029 30215 40221 50005 70222 81439 333 10045;EQDQ01  00002PRCP99
0161014670999992000020400004+58630+009150FM-12+000799999V0202501N003110300019N0300001N1+00331+00271101811ADDAY121061AY221061GF108991011041008001071999MA1999999101751MD1810401+9999MW1031REMSYN072AAXX  04004 01467 41580 82506 10033 20027 30175 40181 58040 70322 8147/;
0180014670999992000020403004+58630+009150FM-12+000799999V0202301N006210300019N0100001N1+00501+00461101271ADDAY161031AY221031GF108991041071002501021999MA1999999101211MD1710542+9999MW1601REMSYN072AAXX  04034 01467 41360 82312 10050 20046 30121 40127 57054 76062 8472/;EQDQ01+000542APC3  
0201014670999992000020406004+58630+009150FM-12+000799999V0202301N006212200019N0200001N1+00521+00481100881ADDAA112000191AY161061AY221061GF104991021071002501041021KA1999N+00181MA1999999100821MD1710391+9999MW1011REMSYN088AAXX  04064 01467 11370 42312 10052 20048 30082 40088 57039 69912 70162 82742 333 20018;
0161014670999992000020409004+58630+009150FM-12+000799999V0202401N006210300019N0200001N1+00571+00561100841ADDAY121031AY221031GF107991041071002501021999MA1999999100781MD1710041+9999MW1031REMSYN072AAXX  04094 01467 41370 72412 10057 20056 30078 40084 57004 70322 8472/;
0173014670999992000020412004+58630+009150FM-12+000799999V0202101N003112200019N0300001N1+00621+00581100511ADDAY121061AY211061GF104991011061002501071021MA1999999100451MD1710331+9999MW1011REMSYN084AAXX  04124 01467 41380 42106 10062 20058 30045 40051 57033 70121 81672 222// 00047;
0161014670999992000020415004+58630+009150FM-12+000799999V0201901N003112200019N0300001N1+00701+00661100271ADDAY121031AY211031GF104991011061002501071091MA1999999100211MD1710241+9999MW1021REMSYN072AAXX  04154 01467 41380 41906 10070 20066 30021 40027 57024 70221 81679;
0214014670999992000020418004+58630+009150FM-12+000799999V0202101N004612200019N0300001N1+00661+00621100171ADDAA199000091AY111061AY211061GF102991011061002501041011KA1999M+00701MA1999999100111MD1610101+9999MW1011REMSYN082AAXX  04184 01467 31380 22109 10066 20062 30011 40017 56010 70111 81641 333 10070;EQDQ01  00002PRCP99
0161014670999992000020500004+58630+009150FM-12+000799999V0202301N001012200019N0550001N1+00701+00631100651ADDAY101061AY201061GF102991021001017501041021MA1999999100591MD1210251+9999MW1021REMSYN072AAXX  05004 01467 41785 22302 10070 20063 30059 40065 52025 70200 82042;
0161014670999992000020503004+58630+009150FM-12+000799999V0202701N002112200019N0550001N1+00781+00641100851ADDAY121031AY211031GF105991021071004501041091MA1999999100791MD1210201+9999MW1031REMSYN072AAXX  05034 01467 41485 52704 10078 20064 30079 40085 52020 70321 82749;
0214014670999992000020506004+58630+009150FM-12+000799999V0202901N000510300019N0700001N1+00901+00761101011ADDAA199000091AY121061AY211061GF106991011071004501071091KA1999N+00601MA1999999100951MD1110161+9999MW1021REMSYN082AAXX  05064 01467 31488 62901 10090 20076 30095 40101 51016 70221 81779 333 20060;EQDQ01  00002PRCP99
0161014670999992000020509004+58630+009150FM-12+000799999V0202101N001010300019N0550001N1+00681+00641101131ADDAY121031AY221031GF107991031071004501071021MA1999999101071MD1210121+9999MW1021REMSYN072AAXX  05094 01467 41485 72102 10068 20064 30107 40113 52012 70222 83772;
0173014670999992000020512004+58630+009150FM-12+000799999V0202401N002110750019N0550001N1+00721+00681101101ADDAY121061AY211061GF105991011041008001031021MA1999999101041MD1610031+9999MW1011REMSYN084AAXX  05124 01467 41585 52404 10072 20068 30104 40110 56003 70121 81432 222// 00058;
0161014670999992000020515004+58630+009150FM-12+000799999V0202401N001012200019N0550001N1+00781+00691101101ADDAY111031AY201031GF102991011061004501041021MA1999999101041MD1410001+9999MW1011REMSYN072AAXX  05154 01467 41485 22402 10078 20069 30104 40110 54000 70110 81642;
0214014670999992000020518004+58630+009150FM-12+000799999V0202401N000512200019N0550001N1+00661+00621101071ADDAA199000091AY101061AY201061GF102991021001017501041091KA1999M+00881MA1999999101011MD1810031+9999MW1021REMSYN082AAXX  05184 01467 31785 22401 10066 20062 30101 40107 58003 70200 82049 333 10088;EQDQ01  00002PRCP99
0161014670999992000020600004+58630+009150FM-12+000799999V0202401N002110300019N0200001N1+00701+00661100771ADDAY121061AY211061GF107991031061002501021999MA1999999100711MD1710251+9999MW1031REMSYN072AAXX  06004 01467 41370 72404 10070 20066 30071 40077 57025 70321 8362/;
0161014670999992000020603004+58630+009150FM-12+000799999V0202401N004610300019N0200001N1+00601+00561100491ADDAY121031AY221031GF108991041061002501021999MA1999999100431MD1710281+9999MW1021REMSYN072AAXX  06034 01467 41370 82409 10060 20056 30043 40049 57028 70222 8462/;
0214014670999992000020606004+58630+009150FM-12+000799999V0202401N003110300019N0200001N1+00641+00601100341ADDAA199000091AY121061AY221061GF106991031061002501071021KA1999N+00551MA1999999100281MD1610151+9999MW1021REMSYN082AAXX  06064 01467 31370 62406 10064 20060 30028 40034 56015 70222 83672 333 20055;EQDQ01  00002PRCP99
0161014670999992000020609004+58630+009150FM-12+000799999V0202401N002112200019N0300001N1+00741+00601100431ADDAY121031AY201031GF102991011061004501031011MA1999999100371MD1310091+9999MW1011REMSYN072AAXX  06094 01467 41480 22404 10074 20060 30037 40043 53009 70120 81631;
0173014670999992000020612004+58630+009150FM-12+000799999V0202401N002112200019N0300001N1+00901+00401100601ADDAY101061AY201061GF102991021001022501031091MA1999999100541MD1110171+9999MW1021REMSYN084AAXX  06124 01467 41880 22404 10090 20040 30054 40060 51017 70200 82039 222// 00054;
0161014670999992000020615004+58630+009150FM-12+000799999V0202401N004612200019N0300001N1+00801+00461100611ADDAY101031AY201031GF102991001001999999001081MA1999999100551MD1110011+9999MW1021REMSYN072AAXX  06154 01467 41980 22409 10080 20046 30055 40061 51001 70200 80008;
0214014670999992000020618004+58630+009150FM-12+000799999V0202101N000510300019N0300001N1+00601+00561100641ADDAA199000091AY121061AY211061GF106991021071004501071011KA1999M+00901MA1999999100581MD1010031+9999MW1031REMSYN082AAXX  06184 01467 31480 62101 10060 20056 30058 40064 50003 70321 82771 333 10090;EQDQ01  00002PRCP99
0161014670999992000020700004+58630+009150FM-12+000799999V0201801N001010021019N0020001N1+00521+00511100161ADDAY161061AY251061GF108991061071002501021999MA1999999100101MD1710401+9999MW1591REMSYN072AAXX  07004 01467 41320 81802 10052 20051 30010 40016 57040 75965 8672/;
0196014670999992000020703004+58630+009150FM-12+000799999V0202101N006210300019N0050001N1+00601+00591099502ADDAY161031AY251031GF108991041071002501021999MA1999999099442MD1710661+9999MW1591REMSYN072AAXX  07034 01467 41350 82112 10060 20059 39944 49950 57066 75965 8472/;EQDQ01+099443APOSP Q02+099503APOSLP
0201014670999992000020706004+58630+009150FM-12+000799999V0202101N007710300019N0100001N1+00621+00611099021ADDAA112005191AY161061AY251061GF105991031061002501071021KA1999N+00501MA1999999098961MD1710481+9999MW1011REMSYN088AAXX  07064 01467 11360 52115 10062 20061 39896 49902 57048 60052 70165 83672 333 20050;
0161014670999992000020709004+58630+009150FM-12+000799999V0202401N007712200019N0200001N1+00621+00331098821ADDAY121031AY201031GF103991011061002501031021MA1999999098761MD1610201+9999MW1011REMSYN072AAXX  07094 01467 41370 32415 10062 20033 39876 49882 56020 70120 81632;
0173014670999992000020712004+58630+009150FM-12+000799999V0202401N007712200019N0200001N1+00701+00361098951ADDAY101061AY201061GF103991011061002501031021MA1999999098891MD1110131+9999MW1021REMSYN084AAXX  07124 01467 41370 32415 10070 20036 39889 49895 51013 70200 81632 222// 00054;
0161014670999992000020715004+58630+009150FM-12+000799999V0202401N007712200019N0200001N1+00701+00191099071ADDAY101031AY201031GF103991011061002501071011MA1999999099011MD1310121+9999MW1021REMSYN072AAXX  07154 01467 41370 32415 10070 20019 39901 49907 53012 70200 81671;
0214014670999992000020718004+58630+009150FM-12+000799999V0202401N006212200019N0200001N1+00501+00371099241ADDAA199000091AY101061AY201061GF103991011071004501041091KA1999M+00751MA1999999099181MD1310171+9999MW1021REMSYN082AAXX  07184 01467 31470 32412 10050 20037 39918 49924 53017 70200 81749 333 10075;EQDQ01  00002PRCP99
0161014670999992000020800004+58630+009150FM-12+000799999V0201201N000510021019N0045001N1+00451+00411098821ADDAY161061AY211061GF108991081061002501999999MA1999999098761MD1810341+9999MW1601REMSYN072AAXX  08004 01467 41345 81201 10045 20041 39876 49882 58034 76061 886//;
0161014670999992000020803004+58630+009150FM-12+000799999V0200901N000510300019N0050001N1+00481+00441098611ADDAY161031AY221031GF108991041071002501021999MA1999999098551MD1710211+9999MW1601REMSYN072AAXX  08034 01467 41350 80901 10048 20044 39855 49861 57021 76062 8472/;
0201014670999992000020806004+58630+009150FM-12+000799999V0203601N000510021019N0100001N1+00361+00321098631ADDAA112002091AY161061AY221061GF108991061061002501021999KA1999N+00361MA1999999098571MD1310021+9999MW1021REMSYN088AAXX  08064 01467 11360 83601 10036 20032 39857 49863 53002 60022 70262 8662/ 333 20036;
0161014670999992000020809004+58630+009150FM-12+000799999V0203601N000512200019N0200001N1+00281+00241098721ADDAY121031AY211031GF103991021071004501041011MA1999999098661MD1110091+9999MW1011REMSYN072AAXX  08094 01467 41470 33601 10028 20024 39866 49872 51009 70121 82741;
0173014670999992000020812004+58630+009150FM-12+000799999V0200801N000510300019N0200001N1+00501+00371098781ADDAY121061AY211061GF106991021091004501071091MA1999999098721MD1310061+9999MW1031REMSYN084AAXX  08124 01467 41470 60801 10050 20037 39872 49878 53006 70321 82979 222// 00055;
0161014670999992000020815004+58630+009150FM-12+000799999V0200701N000510300019N0200001N1+00381+00341098661ADDAY121031AY221031GF108991041071004501071999MA1999999098601MD1810121+9999MW1021REMSYN072AAXX  08154 01467 41470 80701 10038 20034 39860 49866 58012 70222 8477/;
0214014670999992000020818004+58630+009150FM-12+000799999V0200701N000510300019N0200001N1+00381+00321098561ADDAA199000091AY121061AY221061GF108991031071004501071021KA1999M+00501MA1999999098501MD1810101+9999MW1021REMSYN082AAXX  08184 01467 31470 80701 10038 20032 39850 49856 58010 70222 83772 333 10050;EQDQ01  00002PRCP99
0161014670999992000020900004+58630+009150FM-12+000799999V0209999C000010021019N0100001N1+00301+00261098291ADDAY161061AY221061GF108991081071002501999999MA1999999098231MD1710181+9999MW1601REMSYN072AAXX  09004 01467 41360 80000 10030 20026 39823 49829 57018 76062 887//;
0155014670999992000020903004+58630+009150FM-12+000799999V0200101N001010021019N0060001N1+00121+00111999999ADDAY171031AY261031GF108991081071002501999999MA1999999098461MD1610021+9999MW1681REMSYN066AAXX  09034 01467 41356 80102 10012 20011 39846 56002 76876 887//;
0201014670999992000020906004+58630+009150FM-12+000799999V0200301N002110021019N0100001N1+00121+00111098491ADDAA112007991AY171061AY261061GF108991081071002501999999KA1999N+00061MA1999999098431MD1310221+9999MW1681REMSYN088AAXX  09064 01467 11360 80304 10012 20011 39843 49849 53022 60082 76876 887// 333 20006;
0161014670999992000020909004+58630+009150FM-12+000799999V0203301N001010300019N0200001N1+00201+00111099091ADDAY171031AY261031GF105991031071004501071021MA1999999099031MD1210601+9999MW1011REMSYN072AAXX  09094 01467 41470 53302 10020 20011 39903 49909 52060 70176 83772;
0173014670999992000020912004+58630+009150FM-12+000799999V0203001N001012200019N0300001N1+00401+00271099591ADDAY171061AY261061GF101991011001022501031011MA1999999099531MD1210501+9999MW1011REMSYN084AAXX  09124 01467 41880 13002 10040 20027 39953 49959 52050 70176 81031 222// 00051;
0161014670999992000020915004+58630+009150FM-12+000799999V0203001N000512200019N0300001N1+00601+00261100161ADDAY101031AY201031GF101991011001017501041021MA1999999100101MD1210571+9999MW1021REMSYN072AAXX  09154 01467 41780 13001 10060 20026 30010 40016 52057 70200 81042;
0201014670999992000020918004+58630+009150FM-12+000799999V0209999C000012200019N0300001N1+00321+00191100621ADDAA112000191AY101061AY201061GF101991001001999999001081KA1999M+00601MA1999999100561MD1210461+9999MW1021REMSYN088AAXX  09184 01467 11980 10000 10032 20019 30056 40062 52046 69922 70200 80008 333 10060;
0171014670999992000021000004+58630+009150FM-12+000799999V0209999C000012200019N0600001N1+00201+00051100771ADDAY101061AY201061GA1001+999999999GF100991001001999999001001MA1999999100711MD1810031+9999MW1021REMSYN066AAXX  10004 01467 41986 00000 10020 20005 30071 40077 58003 70200;
0161014670999992000021003004+58630+009150FM-12+000799999V0202101N006210300019N0200001N1+00541+00501100491ADDAY121031AY211031GF108991041061002501021999MA1999999100431MD1710281+9999MW1031REMSYN072AAXX  10034 01467 41370 82112 10054 20050 30043 40049 57028 70321 8462/;
0214014670999992000021006004+58630+009150FM-12+000799999V0202101N006210021019N0200001N1+00581+00541100171ADDAA199000091AY121061AY221061GF107991051061002501021999KA1999N+00151MA1999999100111MD1710321+9999MW1021REMSYN082AAXX  10064 01467 31370 72112 10058 20054 30011 40017 57032 70222 8562/ 333 20015;EQDQ01  00002PRCP99
0161014670999992000021009004+58630+009150FM-12+000799999V0202101N006210021019N0100001N1+00591+00551099831ADDAY121031AY221031GF108991071071002501021999MA1999999099771MD1710341+9999MW1101REMSYN072AAXX  10094 01467 41360 82112 10059 20055 39977 49983 57034 71022 8772/;
0173014670999992000021012004+58630+009150FM-12+000799999V0202101N007710021019N0080001N1+00601+00561099321ADDAY161061AY211061GF108991081071002501999999MA1999999099261MD1710511+9999MW1581REMSYN084AAXX  10124 01467 41358 82115 10060 20056 39926 49932 57051 75861 887// 222// 00051;
0161014670999992000021015004+58630+009150FM-12+000799999V0202101N006210021019N0100001N1+00591+00561098891ADDAY161031AY211031GF108991081071002501999999MA1999999098831MD1710431+9999MW1601REMSYN072AAXX  10154 01467 41360 82112 10059 20056 39883 49889 57043 76061 887//;
0201014670999992000021018004+58630+009150FM-12+000799999V0202201N006212200019N0550001N1+00511+00421098991ADDAA112003091AY161061AY211061GF101991011011004501001011KA1999M+00611MA1999999098931MD1310101+9999MW1021REMSYN088AAXX  10184 01467 11485 12212 10051 20042 39893 49899 53010 60032 70261 81101 333 10061;
0190014670999992000021100004+58630+009150FM-12+000799999V0202401N004612200019N0550001N1+00481+00301099891ADDAY101061AY201061GA1001+999999999GF100991001001999999001001MA1999999099831MD1210502+9999MW1021REMSYN066AAXX  11004 01467 41985 02409 10048 20030 39983 49989 52050 70200;EQDQ01+000502APC3  
0171014670999992000021103004+58630+009150FM-12+000799999V0202301N003112200019N0300001N1+00321+00221100241ADDAY101031AY201031GA1001+999999999GF100991001001999999001001MA1999999100181MD1210351+9999MW1021REMSYN066AAXX  11034 01467 41980 02306 10032 20022 30018 40024 52035 70200;
0214014670999992000021106004+58630+009150FM-12+000799999V0202201N006212200019N0300001N1+00471+00341100241ADDAA199000091AY101061AY201061GF101991011011002501001001KA1999N+00301MA1999999100181MD1010001+9999MW1031REMSYN082AAXX  11064 01467 31380 12212 10047 20034 30018 40024 50000 70300 81100 333 20030;EQDQ01  00002PRCP99
0161014670999992000021109004+58630+009150FM-12+000799999V0202401N006212200019N0550001N1+00521+00391100391ADDAY101031AY201031GF101991011001017501061011MA1999999100331MD1310151+9999MW1021REMSYN072AAXX  11094 01467 41785 12412 10052 20039 30033 40039 53015 70200 81061;
0173014670999992000021112004+58630+009150FM-12+000799999V0202401N006212200019N0550001N1+00721+00331100621ADDAY101061AY201061GF102991011021008001061011MA1999999100561MD1210231+9999MW1021REMSYN084AAXX  11124 01467 41585 22412 10072 20033 30056 40062 52023 70200 81261 222// 00052;
0161014670999992000021115004+58630+009150FM-12+000799999V0202601N003112200019N0750001N1+00851+00211100871ADDAY101031AY201031GF101991011011008001001001MA1999999100811MD1210251+9999MW1021REMSYN072AAXX  11154 01467 41589 12606 10085 20021 30081 40087 52025 70200 81100;
0214014670999992000021118004+58630+009150FM-12+000799999V0202201N000512200019N0550001N1+00601+00461101051ADDAA199000091AY101061AY201061GF101991011041008001001001KA1999M+00851MA1999999100991MD1110181+9999MW1021REMSYN082AAXX  11184 01467 31585 12201 10060 20046 30099 40105 51018 70200 81400 333 10085;EQDQ01  00002PRCP99
0161014670999992000021200004+58630+009150FM-12+000799999V0202201N004612200019N0300001N1+00561+00531101111ADDAY101061AY201061GF101991011041004501001011MA1999999101051MD1810051+9999MW1021REMSYN072AAXX  12004 01467 41480 12209 10056 20053 30105 40111 58005 70200 81401;
0161014670999992000021203004+58630+009150FM-12+000799999V0202101N006210042019N0250001N1+00571+00361100961ADDAY121031AY211031GF108991061061004501021999MA1999999100901MD1710151+9999MW1021REMSYN072AAXX  12034 01467 41475 82112 10057 20036 30090 40096 57015 70221 8662/;
0214014670999992000021206004+58630+009150FM-12+000799999V0202001N006210042019N0200001N1+00581+00551100651ADDAA199000091AY121061AY201061GF108991061071004501021999KA1999N+00511MA1999999100591MD1710311+9999MW1021REMSYN082AAXX  12064 01467 31470 82012 10058 20055 30059 40065 57031 70220 8672/ 333 20051;EQDQ01  00002PRCP99
0161014670999992000021209004+58630+009150FM-12+000799999V0202001N006210021019N0150001N1+00581+00551100291ADDAY151031AY221031GF108991081071002501999999MA1999999100231MD1710361+9999MW1501REMSYN072AAXX  12094 01467 41365 82012 10058 20055 30023 40029 57036 75052 887//;
0173014670999992000021212004+58630+009150FM-12+000799999V0202001N006210021019N0100001N1+00571+00541099871ADDAY161061AY251061GF108991081071002501999999MA1999999099811MD1710421+9999MW1611REMSYN084AAXX  12124 01467 41360 82012 10057 20054 39981 49987 57042 76165 887// 222// 00052;
0161014670999992000021215004+58630+009150FM-12+000799999V0202001N004610021019N0150001N1+00431+00391099541ADDAY161031AY221031GF108991081071002501999999MA1999999099481MD1710331+9999MW1611REMSYN072AAXX  12154 01467 41365 82009 10043 20039 39948 49954 57033 76162 887//;
0201014670999992000021218004+58630+009150FM-12+000799999V0202201N003110021019N0200001N1+00361+00291099291ADDAA112004191AY161061AY221061GF108991081071002501999999KA1999M+00581MA1999999099231MD1710251+9999MW1021REMSYN088AAXX  12184 01467 11370 82206 10036 20029 39923 49929 57025 60042 70262 887// 333 10058;
0161014670999992000021300004+58630+009150FM-12+000799999V0202201N003110042019N0300001N1+00211+00141099591ADDAY121061AY221061GF107991051041004501061011MA1999999099531MD1210201+9999MW1011REMSYN072AAXX  13004 01467 41480 72206 10021 20014 39953 49959 52020 70122 85461;
0161014670999992000021303004+58630+009150FM-12+000799999V0202201N002112200019N0300001N1+00201+00131099571ADDAY121031AY211031GF103991021041004501061011MA1999999099511MD1810021+9999MW1021REMSYN072AAXX  13034 01467 41480 32204 10020 20013 39951 49957 58002 70221 82461;
0201014670999992000021306004+58630+009150FM-12+000799999V0202301N003112200019N0450001N1+00231+00191099501ADDAA112000591AY181061AY211061GF101991011041004501061011KA1999N+00161MA1999999099441MD1710071+9999MW1021REMSYN088AAXX  13064 01467 11483 12306 10023 20019 39944 49950 57007 69952 70281 81461 333 20016;
0161014670999992000021309004+58630+009150FM-12+000799999V0202201N002110300019N0450001N1+00291+00221999999ADDAY121031AY211031GF107991021071004501071011MA1999999099381MD1710061+9999MW1031REMSYN072AAXX  13094 01467 41483 72204 10029 20022 39938 40944 57006 70321 82771;
0173014670999992000021312004+58630+009150FM-12+000799999V0202601N002112200019N0750001N1+00531+00251099491ADDAY121061AY211061GF101991011041008001061011MA1999999099431MD1310051+9999MW1021REMSYN084AAXX  13124 01467 41589 12604 10053 20025 39943 49949 53005 70221 81461 222// 00051;
0161014670999992000021315004+58630+009150FM-12+000799999V0202801N003112200019N0750001N1+00561-00371099831ADDAY101031AY201031GF101991011041008001061011MA1999999099771MD1210341+9999MW1021REMSYN072AAXX  13154 01467 41589 12806 10056 21037 39977 49983 52034 70200 81461;
0224014670999992000021318004+58630+009150FM-12+000799999V0202701N002112200019N0750001N1+00321-00361100151ADDAA199000091AY101061AY201061GA1001+999999999GF100991001001999999001001KA1999M+00601MA1999999100091MD1210321+9999MW1021REMSYN076AAXX  13184 01467 31989 02704 10032 21036 30009 40015 52032 70200 333 10060;EQDQ01  00002PRCP99
0171014670999992000021400004+58630+009150FM-12+000799999V0203201N004612200019N0750001N1+00171-00591100581ADDAY101061AY201061GA1001+999999999GF100991001001999999001001MA1999999100521MD1210221+9999MW1021REMSYN066AAXX  14004 01467 41989 03209 10017 21059 30052 40058 52022 70200;
0171014670999992000021403004+58630+009150FM-12+000799999V0202301N001012200019N0750001N1+00041-00711100831ADDAY101031AY201031GA1001+999999999GF100991001001999999001001MA1999999100771MD1210251+9999MW1021REMSYN066AAXX  14034 01467 41989 02302 10004 21071 30077 40083 52025 70200;
0214014670999992000021406004+58630+009150FM-12+000799999V0203201N000512200019N0750001N1+00001-00841100971ADDAA199000091AY101061AY201061GF101991011041008001061011KA1999N+00001MA1999999100911MD1210141+9999MW1021REMSYN082AAXX  14064 01467 31589 13201 10000 21084 30091 40097 52014 70200 81461 333 20000;EQDQ01  00002PRCP99
0177014670999992000021409004+58630+009150FM-12+000799999V0202301N000512200019N0750001N1+00021-00851101211ADDAY101031AY201031GA1001+999999999GF100991001001999999001001MA1999999101151MD1210241+9999MW1021REMSYN072AAXX  14094 01467 41589 02301 10002 21085 30115 40121 52024 70200 81400;
0173014670999992000021412004+58630+009150FM-12+000799999V0201801N001012200019N0750001N1+00201-00631101201ADDAY101061AY201061GF101991001001999999001011MA1999999101141MD1810011+9999MW1021REMSYN084AAXX  14124 01467 41989 11802 10020 21063 30114 40120 58001 70200 80001 222// 00046;
0161014670999992000021415004+58630+009150FM-12+000799999V0202001N002112200019N0750001N1+00221-00541101021ADDAY101031AY201031GF101991001001999999001051MA1999999100961MD1710181+9999MW1031REMSYN072AAXX  14154 01467 41989 12004 10022 21054 30096 40102 57018 70300 80005;
0214014670999992000021418004+58630+009150FM-12+000799999V0202201N001019999999N0750001N1+00141-00571100881ADDAA199000091AY121061AY201061GF107991051001999999071071KA1999M+00231MA1999999100821MD1710141+9999MW1021REMSYN082AAXX  14184 01467 31989 72202 10014 21057 30082 40088 57014 70220 85077 333 10023;EQDQ01  00002PRCP99
0161014670999992000021500004+58630+009150FM-12+000799999V0203601N001010042019N0060001N1+00021-00021100331ADDAY171061AY221061GF108991061071004501021999MA1999999100271MD1710231+9999MW1711REMSYN072AAXX  15004 01467 41456 83602 10002 21002 30027 40033 57023 77172 8672/;
0161014670999992000021503004+58630+009150FM-12+000799999V0209999C000010021019N0250001N1+00141+00111099991ADDAY171031AY261031GF108991081061002501999999MA1999999099931MD1710341+9999MW1601REMSYN072AAXX  15034 01467 41375 80000 10014 20011 39993 49999 57034 76076 886//;
0201014670999992000021506004+58630+009150FM-12+000799999V0209999C000010300019N0550001N1+00041+00011099881ADDAA112003091AY171061AY261061GF106991011061004501071011KA1999N-00051MA1999999099821MD1610111+9999MW1011REMSYN088AAXX  15064 01467 11485 60000 10004 20001 39982 49988 56011 60032 70176 81671 333 21005;
0161014670999992000021509004+58630+009150FM-12+000799999V0202501N001012200019N0550001N1+00101+00061099921ADDAY121031AY211031GF101991011001022501041011MA1999999099861MD1310041+9999MW1011REMSYN072AAXX  15094 01467 41885 12502 10010 20006 39986 49992 53004 70121 81041;
0173014670999992000021512004+58630+009150FM-12+000799999V0202501N003112200019N0500001N1+00541+00281099911ADDAY121061AY211061GF101991011011008001001011MA1999999099851MD1810011+9999MW1021REMSYN084AAXX  15124 01467 41584 12506 10054 20028 39985 49991 58001 70221 81101 222// 00044;
0161014670999992000021515004+58630+009150FM-12+000799999V0202701N002110750019N0500001N1+00681+00151099831ADDAY111031AY201031GF105991011021008001041011MA1999999099771MD1710081+9999MW1031REMSYN072AAXX  15154 01467 41584 52704 10068 20015 39977 49983 57008 70310 81241;
0214014670999992000021518004+58630+009150FM-12+000799999V0202501N002112200019N0600001N1+00431+00151099811ADDAA199000091AY111061AY201061GF101991011041008001041001KA1999M+00691MA1999999099751MD1510021+9999MW1011REMSYN082AAXX  15184 01467 31586 12504 10043 20015 39975 49981 55002 70110 81440 333 10069;EQDQ01  00002PRCP99
0171014670999992000021600004+58630+009150FM-12+000799999V0202201N001012200019N0750001N1+00081+00041099631ADDAY101061AY201061GA1001+999999999GF100991001001999999001001MA1999999099571MD1710111+9999MW1021REMSYN066AAXX  16004 01467 41989 02202 10008 20004 39957 49963 57011 70200;
0161014670999992000021603004+58630+009150FM-12+000799999V0203301N001012200019N0600001N1+00031-00071099491ADDAY101031AY201031GF101991001001999999001011MA1999999099431MD1710141+9999MW1031REMSYN072AAXX  16034 01467 41986 13302 10003 21007 39943 49949 57014 70300 80001;
0214014670999992000021606004+58630+009150FM-12+000799999V0203301N001012200019N0600001N1-00071-00151099421ADDAA199000091AY101061AY201061GF102991011001022501041011KA1999N-00071MA1999999099361MD1610071+9999MW1031REMSYN082AAXX  16064 01467 31886 23302 11007 21015 39936 49942 56007 70300 81041 333 21007;EQDQ01  00002PRCP99
0161014670999992000021609004+58630+009150FM-12+000799999V0203601N001010300019N0500001N1-00061-00191099381ADDAY111031AY201031GF107991021091008001041001MA1999999099321MD1810041+9999MW1031REMSYN072AAXX  16094 01467 41584 73602 11006 21019 39932 49938 58004 70310 82940;
0181014670999992000021612004+58630+009150FM-12+000799999V0200301N002110300019N0400001N1+00121-00011099411ADDAY111061AY201061GF107991021091008001071999MA1999999099351MD1310031+9999MW1021SA1+4109REMSYN084AAXX  16124 01467 41582 70304 10012 21001 39935 49941 53003 70210 8297/ 222// 00041;
0161014670999992000021615004+58630+009150FM-12+000799999V0200801N003110042019N0400001N1+00201+00141099381ADDAY121031AY221031GF107991051051004501071011MA1999999099321MD1810031+9999MW1021REMSYN072AAXX  16154 01467 41482 70806 10020 20014 39932 49938 58003 70222 85571;
0214014670999992000021618004+58630+009150FM-12+000799999V0200801N003110075019N0550001N1+00161+00101099501ADDAA199000091AY121061AY221061GF106991061051008001031011KA1999M+00201MA1999999099441MD1310121+9999MW1021REMSYN082AAXX  16184 01467 31585 60806 10016 20010 39944 49950 53012 70222 86531 333 10020;EQDQ01  00002PRCP99
0161014670999992000021700004+58630+009150FM-12+000799999V0203601N003112200019N0550001N1-00081-00181099761ADDAY121061AY211061GF101991011041008001041001MA1999999099701MD1210131+9999MW1011REMSYN072AAXX  17004 01467 41585 13606 11008 21018 39970 49976 52013 70121 81440;
0161014670999992000021703004+58630+009150FM-12+000799999V0203601N001012200019N0750001N1-00261-00311099861ADDAY101031AY201031GF101991011001999999031011MA1999999099801MD1210101+9999MW1021REMSYN072AAXX  17034 01467 41989 13602 11026 21031 39980 49986 52010 70200 81031;
0214014670999992000021706004+58630+009150FM-12+000799999V0203601N001012200019N0750001N1-00321-00371100031ADDAA199000091AY101061AY201061GF101991011051008001001011KA1999N-00341MA1999999099971MD1210171+9999MW1021REMSYN082AAXX  17064 01467 31589 13602 11032 21037 39997 40003 52017 70200 81501 333 21034;EQDQ01  00002PRCP99
0161014670999992000021709004+58630+009150FM-12+000799999V0203301N001012200019N0600001N1-00201-00341100231ADDAY101031AY201031GF101991011051008001001011MA1999999100171MD1210201+9999MW1021REMSYN072AAXX  17094 01467 41586 13302 11020 21034 30017 40023 52020 70200 81501;
0181014670999992000021712004+58630+009150FM-12+000799999V0202001N001012200019N0600001N1+00131-00261100361ADDAY101061AY201061GF101991011051008001001041MA1999999100301MD1210131+9999MW1021SA1+3709REMSYN084AAXX  17124 01467 41586 12002 10013 21026 30030 40036 52013 70200 81504 222// 00037;
0161014670999992000021715004+58630+009150FM-12+000799999V0202101N002112200019N0600001N1+00231+00041100421ADDAY101031AY201031GF101991001001999999001011MA1999999100361MD1210061+9999MW1021REMSYN072AAXX  17154 01467 41986 12104 10023 20004 30036 40042 52006 70200 80001;
0224014670999992000021718004+58630+009150FM-12+000799999V0202201N001012200019N0600001N1+00131+00071100471ADDAA199000091AY101061AY201061GA1001+999999999GF100991001001999999001001KA1999M+00241MA1999999100411MD1210051+9999MW1011REMSYN076AAXX  17184 01467 31986 02202 10013 20007 30041 40047 52005 70100 333 10024;EQDQ01  00002PRCP99
0161014670999992000021800004+58630+009150FM-12+000799999V0203001N000512200019N0750001N1-00251-00381100511ADDAY101061AY201061GF101991001001999999001011MA1999999100451MD1210021+9999MW1021REMSYN072AAXX  18004 01467 41989 13001 11025 21038 30045 40051 52002 70200 80001;
0161014670999992000021803004+58630+009150FM-12+000799999V0203501N001010075019N0600001N1-00301-00531100441ADDAY111031AY201031GF107991071051008001999999MA1999999100381MD1810071+9999MW1031REMSYN072AAXX  18034 01467 41586 73502 11030 21053 30038 40044 58007 70310 875//;
0214014670999992000021806004+58630+009150FM-12+000799999V0203601N001010075019N0600001N1-00341-00491100371ADDAA199000091AY121061AY211061GF107991071051008001999999KA1999N-00341MA1999999100311MD1610071+9999MW1021REMSYN082AAXX  18064 01467 31586 73602 11034 21049 30031 40037 56007 70221 875// 333 21034;EQDQ01  00002PRCP99
0161014670999992000021809004+58630+009150FM-12+000799999V0200401N001010042019N0550001N1-00221-00261100351ADDAY121031AY221031GF108991061071004501021999MA1999999100291MD1710021+9999MW1021REMSYN072AAXX  18094 01467 41485 80402 11022 21026 30029 40035 57002 70222 8672/;
0181014670999992000021812004+58630+009150FM-12+000799999V0200401N003110021019N0040001N1-00141-00171100341ADDAY171061AY221061GF108991081071002501999999MA1999999100281MD1710011+9999MW1771SA1+3409REMSYN084AAXX  18124 01467 41340 80406 11014 21017 30028 40034 57001 77772 887// 222// 00034;
0161014670999992000021815004+58630+009150FM-12+000799999V0200401N003110021019N0040001N1-00131-00161100271ADDAY171031AY271031GF108991081071002501999999MA1999999100211MD1710071+9999MW1771REMSYN072AAXX  18154 01467 41340 80406 11013 21016 30021 40027 57007 77777 887//;
0201014670999992000021818004+58630+009150FM-12+000799999V0200401N003110042019N0050001N1-00051-00081100331ADDAA112003091AY171061AY271061GF108991081071004501999999KA1999M-00051MA1999999100271MD1310061+9999MW1771REMSYN088AAXX  18184 01467 11450 80406 11005 21008 30027 40033 53006 60032 77777 887// 333 11005;
0161014670999992000021900004+58630+009150FM-12+000799999V0200301N003110075019N0250001N1-00051-00091100591ADDAY171061AY221061GF108991081051008001999999MA1999999100531MD1210131+9999MW1021REMSYN072AAXX  19004 01467 41575 80306 11005 21009 30053 40059 52013 70272 885//;
0161014670999992000021903004+58630+009150FM-12+000799999V0200301N002110075019N0300001N1-00081-00151100721ADDAY121031AY221031GF108991081051008001999999MA1999999100661MD1210131+9999MW1021REMSYN072AAXX  19034 01467 41580 80304 11008 21015 30066 40072 52013 70222 885//;
0201014670999992000021906004+58630+009150FM-12+000799999V0200201N001012200019N0400001N1-00231-00281100891ADDAA112004191AY121061AY211061GF103991031051008001001001KA1999N-00231MA1999999100831MD1210171+9999MW1011REMSYN088AAXX  19064 01467 11582 30202 11023 21028 30083 40089 52017 60042 70121 83500 333 21023;
0161014670999992000021909004+58630+009150FM-12+000799999V0200401N002112200019N0400001N1-00131-00201101081ADDAY101031AY201031GF104991031021008001041001MA1999999101021MD1210191+9999MW1031REMSYN072AAXX  19094 01467 41582 40404 11013 21020 30102 40108 52019 70300 83240;
0181014670999992000021912004+58630+009150FM-12+000799999V0200301N001010075019N0400001N1-00171-00231101271ADDAY111061AY201061GF107991071051008001999999MA1999999101211MD1210191+9999MW1031SA1+3509REMSYN084AAXX  19124 01467 41582 70302 11017 21023 30121 40127 52019 70310 875// 222// 00035;
0161014670999992000021915004+58630+009150FM-12+000799999V0200901N001012200019N0300001N1-00111-00181101371ADDAY121031AY211031GF103991021021008001001011MA1999999101311MD1210101+9999MW1011REMSYN072AAXX  19154 01467 41580 30902 11011 21018 30131 40137 52010 70121 82201;
0214014670999992000021918004+58630+009150FM-12+000799999V0202801N000512200019N0300001N1-00171-00211101511ADDAA199000091AY121061AY211061GF104991041051008001001001KA1999M-00051MA1999999101451MD1210141+9999MW1031REMSYN082AAXX  19184 01467 31580 42801 11017 21021 30145 40151 52014 70321 84500 333 11005;EQDQ01  00002PRCP99
0161014670999992000022000004+58630+009150FM-12+000799999V0203601N000512200019N0400001N1-00321-00351101901ADDAY101061AY201061GF102991021041008001001001MA1999999101841MD1210191+9999MW1011REMSYN072AAXX  20004 01467 41582 23601 11032 21035 30184 40190 52019 70100 82400;
0171014670999992000022003004+58630+009150FM-12+000799999V0203601N000512200019N0400001N1-00501-00531102061ADDAY101031AY201031GA1001+999999999GF100991001001999999001001MA1999999102001MD1110161+9999MW1011REMSYN066AAXX  20034 01467 41982 03601 11050 21053 30200 40206 51016 70100;
0224014670999992000022006004+58630+009150FM-12+000799999V0203601N000512200019N0500001N1-00401-00661102251ADDAA199000091AY101061AY201061GA1001+999999999GF100991001001999999001001KA1999N-00531MA1999999102191MD1210191+9999MW1021REMSYN076AAXX  20064 01467 31984 03601 11040 21066 30219 40225 52019 70200 333 21053;EQDQ01  00002PRCP99
0171014670999992000022009004+58630+009150FM-12+000799999V0203501N001012200019N0600001N1-00181-00711102431ADDAY101031AY201031GA1001+999999999GF100991001001999999001001MA1999999102371MD1210181+9999MW1021REMSYN066AAXX  20094 01467 41986 03502 11018 21071 30237 40243 52018 70200;
0191014670999992000022012004+58630+009150FM-12+000799999V0200201N001012200019N0600001N1+00221-00691102571ADDAY101061AY201061GA1001+999999999GF100991001001999999001001MA1999999102511MD1210141+9999MW1021SA1+3409REMSYN078AAXX  20124 01467 41986 00202 10022 21069 30251 40257 52014 70200 222// 00034;
0171014670999992000022015004+58630+009150FM-12+000799999V0202001N001012200019N0600001N1+00291-00431102581ADDAY101031AY201031GA1001+999999999GF100991001001999999001001MA1999999102521MD1110011+9999MW1021REMSYN066AAXX  20154 01467 41986 02002 10029 21043 30252 40258 51001 70200;
0224014670999992000022018004+58630+009150FM-12+000799999V0202701N000512200019N0600001N1+00001-00221102661ADDAA199000091AY101061AY201061GA1001+999999999GF100991001001999999001001KA1999M+00391MA1999999102601MD1310081+9999MW1021REMSYN076AAXX  20184 01467 31986 02701 10000 21022 30260 40266 53008 70200 333 10039;EQDQ01  00002PRCP99
0171014670999992000022100004+58630+009150FM-12+000799999V0203301N001012200019N0600001N1-00221-00651102791ADDAY101061AY201061GA1001+999999999GF100991001001999999001001MA1999999102731MD1210061+9999MW1021REMSYN066AAXX  21004 01467 41986 03302 11022 21065 30273 40279 52006 70200;
0171014670999992000022103004+58630+009150FM-12+000799999V0203201N001012200019N0600001N1-00361-00771102781ADDAY101031AY201031GA1001+999999999GF100991001001999999001001MA1999999102721MD1810011+9999MW1021REMSYN066AAXX  21034 01467 41986 03202 11036 21077 30272 40278 58001 70200;
0224014670999992000022106004+58630+009150FM-12+000799999V0203201N000512200019N0600001N1-00521-00881102731ADDAA199000091AY101061AY201061GA1001+999999999GF100991001001999999001001KA1999N-00521MA1999999102671MD1710051+9999MW1021REMSYN076AAXX  21064 01467 31986 03201 11052 21088 30267 40273 57005 70200 333 21052;EQDQ01  00002PRCP99
0161014670999992000022109004+58630+009150FM-12+000799999V0203401N001012200019N0600001N1-00431-00791102761ADDAY101031AY201031GF101991011051008001001011MA1999999102701MD1310031+9999MW1031REMSYN072AAXX  21094 01467 41586 13402 11043 21079 30270 40276 53003 70300 81501;
