0138025840999992000010100004+58400+019200FM-12+001299999V0202301N00211075001CN0200001N1-00201-00471102011ADDGA1081+999999019GF108991081001999999011999MD1010001+9999REMSYN070AAXX  01004 02584 42998 82304 11020 21047 40201 50000 8801/ 333 88499;
0172025840999992000010103004+58400+019200FM-12+001299999V0202301N00211004501CN0040001N1-00181-00251101961ADDAY121031AY221031GA1061+004509079GF108991061071004501021999MD1810051+9999MW1711REMSYN082AAXX  01034 02584 41496 82304 11018 21025 40196 58005 77122 8672/ 333 86794 88599;
0237025840999992000010106004+58400+019200FM-12+001299999V0201601N00151002501CN0040001N1-00121-00151101841ADDAA112000891AJ100059199999999AY121061AY221061GA1061+002509079GF108991061071002501021999IA1239KA1120N-00401MD1810121+9999MW1711REMSYN100AAXX  01064 02584 11396 81603 11012 21015 40184 58012 69982 77122 8672/ 333 21040 47005 86793 88599;
0172025840999992000010109004+58400+019200FM-12+001299999V0201801N00101002501CN0040001N1+00061+00021101791ADDAY171031AY271031GA1061+002509079GF108991061071002501021999MD1610051+9999MW1701REMSYN082AAXX  01094 02584 41396 81802 10006 20002 40179 56005 77077 8672/ 333 86793 88599;
0172025840999992000010112004+58400+019200FM-12+001299999V0202701N00261002501CN0040001N1+00221+00181101761ADDAY171061AY271061GA1061+002509079GF108991061071002501021999MD1710031+9999MW1601REMSYN082AAXX  01124 02584 41396 82705 10022 20018 40176 57003 76077 8672/ 333 86793 88599;
0172025840999992000010115004+58400+019200FM-12+001299999V0202501N00261002501CN0040001N1+00221+00151101771ADDAY161031AY261031GA1061+002509079GF108991061071002501021999MD1310011+9999MW1101REMSYN082AAXX  01154 02584 41396 82505 10022 20015 40177 53001 71066 8672/ 333 86793 88599;
0202025840999992000010118004+58400+019200FM-12+001299999V0202501N003110045019N0040001N1+00271+00171101811ADDAA112001091AY161061AY261061GA1081+004509059GF108991081051002501999999KA1120M+00271MD1210041+9999MW1101REMSYN088AAXX  01184 02584 11396 82506 10027 20017 40181 52004 60012 71066 885// 333 10027 88694;
0166025840999992000010121004+58400+019200FM-12+001299999V0202501N003110045019N0040001N1+00291+00191101851ADDAY121031AY221031GA1081+004509059GF108991081051004501999999MD1210041+9999MW1101REMSYN076AAXX  01214 02584 41496 82506 10029 20019 40185 52004 71022 885// 333 88694;
0138025840999992000010200004+58400+019200FM-12+001299999V0202301N002619999999N0040001N1+00281+00221101901ADDGA1041+002509079GF108991999999002501999999MD1210051+9999REMSYN070AAXX  02004 02584 41396 82305 10028 20022 40190 52005 333 84793 88599;
0166025840999992000010203004+58400+019200FM-12+001299999V0202001N003610015019N0010001N1+00291+00251101871ADDAY161031AY261031GA1081+001509069GF108991081071001501999999MD1710031+9999MW1531REMSYN076AAXX  02034 02584 41294 82007 10029 20025 40187 57003 75366 887// 333 88792;
0250025840999992000010206004+58400+019200FM-12+001299999V0202001N003110015019N0040001N1+00291+00251101801ADDAA112000591AJ199992999999999AY161061AY251061GA1081+001509069GF108991081071001501999999IA1259KA1120N+00221MD1710071+9999MW1101REMSYN094AAXX  02064 02584 11296 82006 10029 20025 40180 57007 69942 71065 887// 333 20022 41998 88792;EQDQ01  09972SNDP  
0166025840999992000010209004+58400+019200FM-12+001299999V0202001N003110015019N0010001N1+00301+00271101731ADDAY121031AY221031GA1081+001509069GF108991081061001501999999MD1710071+9999MW1101REMSYN076AAXX  02094 02584 41294 82006 10030 20027 40173 57007 71022 886// 333 88792;
0166025840999992000010212004+58400+019200FM-12+001299999V0202001N004110015019N0040001N1+00351+00311101451ADDAY121061AY221061GA1081+001509069GF108991081061001501999999MD1710281+9999MW1101REMSYN076AAXX  02124 02584 41296 82008 10035 20031 40145 57028 71022 886// 333 88792;
0166025840999992000010215004+58400+019200FM-12+001299999V0202001N005110080019N0040001N1+00261+00191101221ADDAY121031AY221031GA1081+008009069GF108991081061002501999999MD1710231+9999MW1101REMSYN076AAXX  02154 02584 41396 82010 10026 20019 40122 57023 71022 886// 333 88795;
0208025840999992000010218004+58400+019200FM-12+001299999V0202001N00511002501CN0040001N1+00321+00261100861ADDAA112001091AY171061AY221061GA1061+002509079GF108991061071002501021999KA1120M+00351MD1710361+9999MW1211REMSYN094AAXX  02184 02584 11396 82010 10032 20026 40086 57036 60012 72172 8672/ 333 10035 86793 88599;
0166025840999992000010221004+58400+019200FM-12+001299999V0202701N003610045019N0040001N1+00421+00311100791ADDAY121031AY221031GA1081+004509069GF108991081061004501999999MD1510071+9999MW1101REMSYN076AAXX  02214 02584 41496 82707 10042 20031 40079 55007 71022 886// 333 88794;
0122025840999992000010300004+58400+019200FM-12+001299999V0203201N005112200019N0100001N1+00361+00131100881ADDGA1001+999999999GF100991001001999999001001MD1310091+9999REMSYN054AAXX  03004 02584 42997 03210 10036 20013 40088 53009;
0122025840999992000010303004+58400+019200FM-12+001299999V0202901N003112200019N0200001N1+00281+00051101091ADDGA1001+999999999GF100991001001999999001001MD1310211+9999REMSYN054AAXX  03034 02584 42998 02906 10028 20005 40109 53021;
0187025840999992000010306004+58400+019200FM-12+001299999V0203201N002612200019N0200001N1+00201+00061101211ADDAA106000091GA1001+999999999GF100991001001999999001001IA1149KA1120N+00201MD1210121+9999REMSYN070AAXX  03064 02584 32998 03205 10020 20006 40121 52012 333 20020 34///;EQDQ01  00002PRCP06
0138025840999992000010309004+58400+019200FM-12+001299999V0202701N002112200019N0200001N1+00161+00091101241ADDGA1021+999999019GF102991001001999999001011MD1110031+9999REMSYN070AAXX  03094 02584 42998 22704 10016 20009 40124 51003 80001 333 82099;
0138025840999992000010312004+58400+019200FM-12+001299999V0202301N00261075001CN0200001N1+00281+00161101051ADDGA1081+999999019GF108991081001999999071999MD1310191+9999REMSYN070AAXX  03124 02584 42998 82305 10028 20016 40105 53019 8807/ 333 88499;
0144025840999992000010315004+58400+019200FM-12+001299999V0201801N00261030001CN0100001N1+00321+00231100741ADDGA1021+002509079GF106991021061002501071001MD1710291+9999REMSYN076AAXX  03154 02584 42397 61805 10032 20023 40074 57029 82670 333 82793 85399;
0208025840999992000010318004+58400+019200FM-12+001299999V0202001N00361000751CN0040001N1+00351+00311100461ADDAA112000391AY121061AY221061GA1061+000759079GF108991031071000751021999KA1120M+00351MD1710281+9999MW1611REMSYN094AAXX  03184 02584 11196 82007 10035 20031 40046 57028 69932 76122 8372/ 333 10035 86791 88599;
0150025840999992000010321004+58400+019200FM-12+001299999V0202301N004112200019N0040001N1+00431+00371100341ADDAY161031AY261031GA1001+999999999GF100991001001999999001001MD1510121+9999MW1101REMSYN060AAXX  03214 02584 41996 02308 10043 20037 40034 55012 71066;
0150025840999992000010400004+58400+019200FM-12+001299999V0202501N005712200019N0040001N1+00461+00311100221ADDAY161061AY261061GA1001+999999999GF100991001001999999001001MD1710121+9999MW1101REMSYN060AAXX  04004 02584 41996 02511 10046 20031 40022 57012 71066;
0214025840999992000010406004+58400+019200FM-12+001299999V0202301N006219999999N0040001N1+00461+00311099811ADDAA112000191AY121061AY221061GA1081+999999079GF108991081071999999999999IA1099KA1120N+00351MD1810231+9999MW1101REMSYN094AAXX  04064 02584 11996 82312 10046 20031 49981 58023 69912 71022 887// 333 20035 31/// 88399;
0122025840999992000010409004+58400+019200FM-12+001299999V0202301N007212200019N0200001N1+00461+00131099681ADDGA1001+999999999GF100991001001999999001001MD1610131+9999REMSYN054AAXX  04094 02584 42998 02314 10046 20013 49968 56013;
0122025840999992000010412004+58400+019200FM-12+001299999V0202501N006212200019N0200001N1+00481+00041099691ADDGA1001+999999999GF100991001001999999001001MD1410001+9999REMSYN054AAXX  04124 02584 42998 02512 10048 20004 49969 54001;
0122025840999992000010415004+58400+019200FM-12+001299999V0202901N006712200019N0200001N1+00481-00061099871ADDGA1001+999999999GF100991001001999999001001MD1310181+9999REMSYN054AAXX  04154 02584 42998 02913 10048 21006 49987 53018;
0175025840999992000010418004+58400+019200FM-12+001299999V0202701N006212200019N0200001N1+00441+00021100001ADDAA106000091GA1001+999999999GF100991001001999999001001KA1999M+00501MD1210131+9999REMSYN064AAXX  04184 02584 32998 02712 10044 20002 40000 52013 333 10050;EQDQ01  00002PRCP06
0122025840999992000010421004+58400+019200FM-12+001299999V0202701N005112200019N0200001N1+00401-00081100171ADDGA1001+999999999GF100991001001999999001001MD1210171+9999REMSYN054AAXX  04214 02584 42998 02710 10040 21008 40017 52017;
0122025840999992000010503004+58400+019200FM-12+001299999V0202701N003112200019N0200001N1+00281-00011100351ADDGA1001+999999999GF100991001001999999001001MD1110041+9999REMSYN054AAXX  05034 02584 42998 02706 10028 21001 40035 51004;
0215025840999992000010506004+58400+019200FM-12+001299999V0202901N002112200019N0200001N1+00241+00001100421ADDAA106000091GA1041+022509079GF104991041999022501031001IA1099KA1120N+00241MD1210071+9999REMSYN082AAXX  05064 02584 32898 42904 10024 20000 40042 52007 84030 333 20024 31/// 84398;EQDQ01+000002SCOLCGQ02  00002PRCP06
0138025840999992000010509004+58400+019200FM-12+001299999V0202701N00211075001CN0200001N1+00241+00051100601ADDGA1051+999999019GF105991001001999999001021MD1310181+9999REMSYN070AAXX  05094 02584 42998 52704 10024 20005 40060 53018 80002 333 85099;
0138025840999992000010512004+58400+019200FM-12+001299999V0202701N002112200019N0200001N1+00221+00091100801ADDGA1011+002509069GF103991011061002501001021MD1210201+9999REMSYN070AAXX  05124 02584 42398 32704 10022 20009 40080 52020 81602 333 81793;
0138025840999992000010515004+58400+019200FM-12+001299999V0203201N002112200019N0200001N1+00101+00031101111ADDGA1011+999999019GF101991001001999999001011MD1310311+9999REMSYN070AAXX  05154 02584 42998 13204 10010 20003 40111 53031 80001 333 81099;
0138025840999992000010521004+58400+019200FM-12+001299999V0202301N003612200019N0100001N1+00331+00181101461ADDGA1021+008009059GF102991021051008001001001MD1110161+9999REMSYN070AAXX  05214 02584 42597 22307 10033 20018 40146 51016 82500 333 82695;
0138025840999992000010603004+58400+019200FM-12+001299999V0202301N00411075001CN0100001N1+00351+00261101471ADDGA1081+999999019GF108991081001999999011999MD1810061+9999REMSYN070AAXX  06034 02584 42997 82308 10035 20026 40147 58006 8801/ 333 88499;
0199025840999992000010606004+58400+019200FM-12+001299999V0202301N005112200019N0100001N1+00351+00231101371ADDAA106000091GA1021+999999019GF102991001001999999001011IA1099KA1120N+00231MD1610101+9999REMSYN082AAXX  06064 02584 32997 22310 10035 20023 40137 56010 80001 333 20023 31/// 82099;EQDQ01  00002PRCP06
0138025840999992000010609004+58400+019200FM-12+001299999V0202001N004112200019N0200001N1+00381+00131101281ADDGA1011+999999079GF103991011001999999031011MD1710091+9999REMSYN070AAXX  06094 02584 42998 32008 10038 20013 40128 57009 81031 333 81399;
0138025840999992000010612004+58400+019200FM-12+001299999V0201801N004612200019N0200001N1+00441+00271101061ADDGA1041+012509059GF104991041051012501001001MD1810221+9999REMSYN070AAXX  06124 02584 42698 41809 10044 20027 40106 58022 84500 333 84696;
0138025840999992000010615004+58400+019200FM-12+001299999V0202001N005712200019N0200001N1+00431+00201100871ADDGA1011+999999019GF101991001001999999001011MD1710191+9999REMSYN070AAXX  06154 02584 42998 12011 10043 20020 40087 57019 80001 333 81099;
0172025840999992000010700004+58400+019200FM-12+001299999V0202301N00621002501CN0040001N1+00461+00421100451ADDAY161061AY261061GA1071+002509079GF108991071071002501021999MD1610081+9999MW1631REMSYN082AAXX  07004 02584 41396 82312 10046 20042 40045 56008 76366 8772/ 333 87793 88597;
0166025840999992000010703004+58400+019200FM-12+001299999V0202501N005712200019N0040001N1+00461+00431100451ADDAY161031AY261031GA1031+002509069GF103991031071002501021999MD1410001+9999MW1101REMSYN076AAXX  07034 02584 41396 32511 10046 20043 40045 54000 71066 8372/ 333 83793;
0202025840999992000010706004+58400+019200FM-12+001299999V0202701N005112200019N0200001N1+00381+00081100701ADDAA112002091AY161061AY221061GA1001+999999999GF100991001001999999001001IA1099KA1120N+00381MD1310251+9999MW1011REMSYN082AAXX  07064 02584 11998 02710 10038 20008 40070 53025 60022 70162 333 20038 31///;
0122025840999992000010709004+58400+019200FM-12+001299999V0202701N004612200019N0200001N1+00361-00011101021ADDGA1001+999999999GF100991001001999999001001MD1210321+9999REMSYN054AAXX  07094 02584 42998 02709 10036 21001 40102 52032;
0138025840999992000010712004+58400+019200FM-12+001299999V0202701N004112200019N0200001N1+00381-00011101151ADDGA1011+999999019GF101991001001999999001011MD1110131+9999REMSYN070AAXX  07124 02584 42998 12708 10038 21001 40115 51013 80001 333 81099;
0138025840999992000010715004+58400+019200FM-12+001299999V0202301N004612200019N0200001N1+00341+00171101221ADDGA1011+999999079GF101991011001999999071001MD1210071+9999REMSYN070AAXX  07154 02584 42998 12309 10034 20017 40122 52007 81070 333 81399;
0187025840999992000010718004+58400+019200FM-12+001299999V0202501N005119999999N0200001N1+00411+00131101041ADDAA106000091GA1071+999999079GF107991071001999999071999KA1120M+00411MD1710181+9999REMSYN076AAXX  07184 02584 32998 72510 10041 20013 40104 57018 8707/ 333 10041 87399;EQDQ01  00002PRCP06
0157025840999992000010721004+58400+019200FM-12+001299999V0202001N006210225019N0200001N1+00461+00181100931ADDGA1071+022509079GF107991071999022501071999MD1610111+9999REMSYN070AAXX  07214 02584 42898 72012 10046 20018 40093 56011 8707/ 333 87398;EQDQ01+000002SCOLCG
0144025840999992000010800004+58400+019200FM-12+001299999V0202301N00621030001CN0100001N1+00471+00341100781ADDGA1011+002509069GF107991011061002501071999MD1710151+9999REMSYN076AAXX  08004 02584 42397 72312 10047 20034 40078 57015 8167/ 333 81693 87398;
0138025840999992000010803004+58400+019200FM-12+001299999V0202301N006210025019N0100001N1+00471+00341100671ADDGA1081+002509069GF108991081061002501999999MD1610111+9999REMSYN070AAXX  08034 02584 42397 82312 10047 20034 40067 56011 886// 333 88793;
0199025840999992000010806004+58400+019200FM-12+001299999V0202001N005110080019N0200001N1+00491+00341100511ADDAA106000091GA1081+008009059GF108991081051008001999999IA1019KA1120N+00411MD1610161+9999REMSYN082AAXX  08064 02584 32598 82010 10049 20034 40051 56016 885// 333 20041 30/// 88695;EQDQ01  00002PRCP06
0138025840999992000010809004+58400+019200FM-12+001299999V0202301N006210080019N0200001N1+00521+00341100541ADDGA1071+008009059GF107991071051008001999999MD1310031+9999REMSYN070AAXX  08094 02584 42598 72312 10052 20034 40054 53003 875// 333 87695;
0138025840999992000010812004+58400+019200FM-12+001299999V0202301N006710080019N0200001N1+00501+00371100461ADDGA1071+008009059GF107991071051008001999999MD1810081+9999REMSYN070AAXX  08124 02584 42598 72313 10050 20037 40046 58008 875// 333 87695;
0138025840999992000010815004+58400+019200FM-12+001299999V0202301N005712200019N0100001N1+00481+00391100541ADDGA1011+002509069GF101991011061002501001001MD1310081+9999REMSYN070AAXX  08154 02584 42397 12311 10048 20039 40054 53008 81600 333 81793;
0187025840999992000010818004+58400+019200FM-12+001299999V0202301N005112200019N0040001N1+00501+00441100641ADDAA106000091GA1031+012509059GF103991031051012501001001KA1120M+00521MD1210101+9999REMSYN076AAXX  08184 02584 32696 32310 10050 20044 40064 52010 83500 333 10052 83696;EQDQ01  00002PRCP06
0150025840999992000010821004+58400+019200FM-12+001299999V0202301N005112200019N0040001N1+00481+00331100751ADDAY121031AY221031GA1001+999999999GF100991001001999999001001MD1210111+9999MW1101REMSYN060AAXX  08214 02584 41996 02310 10048 20033 40075 52011 71022;
0122025840999992000010900004+58400+019200FM-12+001299999V0202301N005712200019N0100001N1+00471+00261100881ADDGA1001+999999999GF100991001001999999001001MD1210131+9999REMSYN054AAXX  09004 02584 42997 02311 10047 20026 40088 52013;
0122025840999992000010903004+58400+019200FM-12+001299999V0202301N005112200019N0100001N1+00411+00261101061ADDGA1001+999999999GF100991001001999999001001MD1210181+9999REMSYN054AAXX  09034 02584 42997 02310 10041 20026 40106 52018;
0122025840999992000010909004+58400+019200FM-12+001299999V0202301N004612200019N0200001N1+00401+00301101321ADDGA1001+999999999GF100991001001999999001001MD1310161+9999REMSYN054AAXX  09094 02584 42998 02309 10040 20030 40132 53016;
0138025840999992000010912004+58400+019200FM-12+001299999V0202301N004612200019N0200001N1+00401+00241101421ADDGA1011+999999019GF101991001001999999001011MD1110101+9999REMSYN070AAXX  09124 02584 42998 12309 10040 20024 40142 51010 80001 333 81099;
0122025840999992000010915004+58400+019200FM-12+001299999V0202501N004612200019N0200001N1+00381+00281101511ADDGA1001+999999999GF100991001001999999001001MD1210091+9999REMSYN054AAXX  09154 02584 42998 02509 10038 20028 40151 52009;
0175025840999992000010918004+58400+019200FM-12+001299999V0202501N004112200019N0200001N1+00401+00281101631ADDAA106000091GA1001+999999999GF100991001001999999001001KA1999M+00431MD1210121+9999REMSYN064AAXX  09184 02584 32998 02508 10040 20028 40163 52012 333 10043;EQDQ01  00002PRCP06
0122025840999992000010921004+58400+019200FM-12+001299999V0202501N004112200019N0200001N1+00381+00261101761ADDGA1001+999999999GF100991001001999999001001MD1210131+9999REMSYN054AAXX  09214 02584 42998 02508 10038 20026 40176 52013;
0122025840999992000011000004+58400+019200FM-12+001299999V0202501N003112200019N0200001N1+00351+00231101891ADDGA1001+999999999GF100991001001999999001001MD1210131+9999REMSYN054AAXX  10004 02584 42998 02506 10035 20023 40189 52013;
0138025840999992000011003004+58400+019200FM-12+001299999V0202501N003110045019N0200001N1+00361+00241102031ADDGA1081+004509059GF108991081051004501999999MD1210141+9999REMSYN070AAXX  10034 02584 42498 82506 10036 20024 40203 52014 885// 333 88694;
0199025840999992000011006004+58400+019200FM-12+001299999V0202701N003112200019N0200001N1+00331+00201102141ADDAA106000091GA1031+004509059GF103991031051004501001001IA1099KA1120N+00331MD1210111+9999REMSYN082AAXX  10064 02584 32498 32706 10033 20020 40214 52011 83500 333 20033 31/// 83694;EQDQ01  00002PRCP06
0138025840999992000011009004+58400+019200FM-12+001299999V0202901N004610045019N0200001N1+00281+00081102361ADDGA1061+004509059GF106991061051004501001001MD1310221+9999REMSYN070AAXX  10094 02584 42498 62909 10028 20008 40236 53022 86500 333 86694;
0138025840999992000011012004+58400+019200FM-12+001299999V0202901N002112200019N0200001N1+00261+00091102461ADDGA1031+002509069GF103991031061002501001001MD1110101+9999REMSYN070AAXX  10124 02584 42398 32904 10026 20009 40246 51010 83600 333 83793;
0138025840999992000011015004+58400+019200FM-12+001299999V0202701N002612200019N0200001N1+00231+00091102581ADDGA1011+999999019GF101991001001999999001011MD1210121+9999REMSYN070AAXX  10154 02584 42998 12705 10023 20009 40258 52012 80001 333 81099;
0175025840999992000011018004+58400+019200FM-12+001299999V0202501N003612200019N0200001N1+00311+00081102621ADDAA106000091GA1001+999999999GF100991001001999999001001KA1999M+00331MD1110041+9999REMSYN064AAXX  10184 02584 32998 02507 10031 20008 40262 51004 333 10033;EQDQ01  00002PRCP06
0122025840999992000011021004+58400+019200FM-12+001299999V0202701N003612200019N0100001N1+00321+00201102661ADDGA1001+999999999GF100991001001999999001001MD1210041+9999REMSYN054AAXX  10214 02584 42997 02707 10032 20020 40266 52004;
0138025840999992000011100004+58400+019200FM-12+001299999V0202501N004612200019N0100001N1+00331+00151102581ADDGA1031+004509069GF103991031061004501001001MD1810081+9999REMSYN070AAXX  11004 02584 42497 32509 10033 20015 40258 58008 83600 333 83794;
0138025840999992000011103004+58400+019200FM-12+001299999V0202301N005712200019N0100001N1+00321+00171102471ADDGA1031+004509069GF103991031061004501001001MD1710111+9999REMSYN070AAXX  11034 02584 42497 32311 10032 20017 40247 57011 83600 333 83794;
0220025840999992000011106004+58400+019200FM-12+001299999V0202701N00621004501CN0040001N1+00351+00201102391ADDAA112000791AY121061AY221061GA1051+004509079GF108991051071004501021999IA1099KA1120N+00301MD1610081+9999MW1601REMSYN100AAXX  11064 02584 11496 82712 10035 20020 40239 56008 69902 76022 8572/ 333 20030 31/// 85794 88599;
0194025840999992000011109004+58400+019200FM-12+001299999V0202301N00621008001CN0040001N1+00371+00251102371ADDAY161031AY261031GA1031+002509079GA2051+008009069GF108991061071002501071999MD1710021+9999MW1211REMSYN088AAXX  11094 02584 41396 82312 10037 20025 40237 57002 72166 8677/ 333 83793 85695 86399;
0172025840999992000011112004+58400+019200FM-12+001299999V0202501N00511002501CN0040001N1+00481+00361102401ADDAY161061AY261061GA1061+002509079GF108991081061002501999999MD1810031+9999MW1101REMSYN082AAXX  11124 02584 41396 82510 10048 20036 40240 58003 71066 886// 333 86793 88694;
0144025840999992000011115004+58400+019200FM-12+001299999V0202301N00461030001CN0100001N1+00421+00301102451ADDGA1021+002509079GF108991021061002501071011MD1310051+9999REMSYN076AAXX  11154 02584 42397 82309 10042 20030 40245 53005 82671 333 82793 85396;
0202025840999992000011118004+58400+019200FM-12+001299999V0202501N004610045019N0040001N1+00421+00331102491ADDAA112000791AY121061AY221061GA1071+004509059GF107991071051004501999999KA1120M+00481MD1110041+9999MW1101REMSYN088AAXX  11184 02584 11496 72509 10042 20033 40249 51004 69902 71022 875// 333 10048 87694;
0150025840999992000011121004+58400+019200FM-12+001299999V0202301N005112200019N0040001N1+00401+00341102451ADDAY121031AY221031GA1001+999999999GF100991001001999999001001MD1710041+9999MW1101REMSYN060AAXX  11214 02584 41996 02310 10040 20034 40245 57004 71022;
0166025840999992000011200004+58400+019200FM-12+001299999V0202501N004610125019N0040001N1+00411+00341102411ADDAY121061AY221061GA1081+012509059GF108991081051012501999999MD1610041+9999MW1101REMSYN076AAXX  12004 02584 41696 82509 10041 20034 40241 56004 71022 885// 333 88696;
0166025840999992000011203004+58400+019200FM-12+001299999V0202001N004610015019N0040001N1+00391+00331102141ADDAY121031AY221031GA1081+001509069GF108991081061001501999999MD1810271+9999MW1101REMSYN076AAXX  12034 02584 41296 82009 10039 20033 40214 58027 71022 886// 333 88792;
0239025840999992000011206004+58400+019200FM-12+001299999V0202001N00511001501CN0040001N1+00411+00371101881ADDAA112002091AY121061AY221061GA1081+001509079GF108991999071001501021999IA1119KA1120N+00391MD1710261+9999MW1631REMSYN100AAXX  12064 02584 11296 82010 10041 20037 40188 57026 60022 76322 8872/ 333 20039 32/// 88792 88599;EQDQ01+000082SCOTLC
0172025840999992000011209004+58400+019200FM-12+001299999V0202001N00621001501CN0040001N1+00441+00401101761ADDAY161031AY261031GA1061+001509079GF108991061071001501021999MD1610121+9999MW1621REMSYN082AAXX  12094 02584 41296 82012 10044 20040 40176 56012 76266 8672/ 333 86792 88599;
0172025840999992000011212004+58400+019200FM-12+001299999V0202501N00621030001CN0040001N1+00441+00371101681ADDAY161061AY261061GA1041+002509079GF108991041071002501021999MD1610081+9999MW1211REMSYN082AAXX  12124 02584 41396 82512 10044 20037 40168 56008 72166 8472/ 333 84793 88596;
0172025840999992000011215004+58400+019200FM-12+001299999V0202301N00511030001CN0040001N1+00451+00391101661ADDAY121031AY221031GA1021+002509079GF108991021071002501021999MD1710021+9999MW1101REMSYN082AAXX  12154 02584 41396 82310 10045 20039 40166 57002 71022 8272/ 333 82793 88595;
0208025840999992000011218004+58400+019200FM-12+001299999V0202301N00461030001CN0040001N1+00421+00361101641ADDAA112007191AY121061AY221061GA1031+002509079GF108991031071002501021999KA1120M+00451MD1710021+9999MW1631REMSYN094AAXX  12184 02584 11396 82309 10042 20036 40164 57002 60072 76322 8372/ 333 10045 83793 88596;
0172025840999992000011221004+58400+019200FM-12+001299999V0202301N00511001501CN0020001N1+00401+00371101621ADDAY161031AY261031GA1061+001509079GF108991061071001501021999MD1710021+9999MW1631REMSYN082AAXX  12214 02584 41295 82310 10040 20037 40162 57002 76366 8672/ 333 86792 88596;
0166025840999992000011300004+58400+019200FM-12+001299999V0202301N005710025019N0040001N1+00381+00321101611ADDAY161061AY261061GA1081+002509069GF108991081071002501999999MD1710011+9999MW1101REMSYN076AAXX  13004 02584 41396 82311 10038 20032 40161 57001 71066 887// 333 88793;
0172025840999992000011303004+58400+019200FM-12+001299999V0202301N00511002101CN0040001N1+00381+00291101541ADDAY121031AY221031GA1041+002509079GF108991081061002501999999MD1810071+9999MW1101REMSYN082AAXX  13034 02584 41396 82310 10038 20029 40154 58007 71022 886// 333 84793 86695;
0220025840999992000011306004+58400+019200FM-12+001299999V0202301N00411002501CN0040001N1+00361+00321101511ADDAA112001091AY121061AY221061GA1071+002509079GF108991071061002501021999IA1099KA1120N+00361MD1710041+9999MW1601REMSYN100AAXX  13064 02584 11396 82308 10036 20032 40151 57004 60012 76022 8762/ 333 20036 31/// 87793 88597;
0166025840999992000011309004+58400+019200FM-12+001299999V0202001N004610025019N0040001N1+00381+00311101561ADDAY161031AY221031GA1081+002509069GF108991081061002501999999MD1210051+9999MW1021REMSYN076AAXX  13094 02584 41396 82009 10038 20031 40156 52005 70262 886// 333 88793;
0172025840999992000011312004+58400+019200FM-12+001299999V0202301N00461002101CN0040001N1+00401+00311101581ADDAY161061AY261061GA1021+002509079GF108991051061002501071999MD1110021+9999MW1101REMSYN082AAXX  13124 02584 41396 82309 10040 20031 40158 51002 71066 8567/ 333 82793 84696;
0172025840999992000011315004+58400+019200FM-12+001299999V0202301N00461002101CN0040001N1+00391+00331101631ADDAY121031AY221031GA1041+002509079GF108991081061002501999999MD1210051+9999MW1101REMSYN082AAXX  13154 02584 41396 82309 10039 20033 40163 52005 71022 886// 333 84793 88696;
0215025840999992000011318004+58400+019200FM-12+001299999V0202001N003610045019N0040001N1+00381+00311101761ADDAA106000091AY121061AY221061GA1081+004509069GF108991081061004501999999KA1120M+00411MD1210131+9999MW1101REMSYN082AAXX  13184 02584 31496 82007 10038 20031 40176 52013 71022 886// 333 10041 88794;EQDQ01  00002PRCP06
0170025840999992000011321004+58400+019200FM-12+001299999V0202501N002610045019N0040001N1+00401+00341101901ADDAY121031AY221031GA1081+004509059GF108991081051004501999999MD1210141+9999MW1101REMSYN080    AAXX  13214 02584 41496 82505 10040 20034 40190 52014 71022 885// 333 88694;
0170025840999992000011400004+58400+019200FM-12+001299999V0203201N001010045019N0040001N1+00381+00321102041ADDAY121061AY221061GA1081+004509059GF108991081051004501999999MD1210141+9999MW1101REMSYN080    AAXX  14004 02584 41496 83202 10038 20032 40204 52014 71022 885// 333 88694;
0170025840999992000011403004+58400+019200FM-12+001299999V0203601N001010045019N0040001N1+00321+00221102161ADDAY121031AY221031GA1081+004509059GF108991081051004501999999MD1210121+9999MW1101REMSYN080    AAXX  14034 02584 41496 83602 10032 20022 40216 52012 71022 885// 333 88694;
0191025840999992000011406004+58400+019200FM-12+001299999V0200501N001512200019N0100001N1+00171+00061102291ADDAA199000091GA1001+999999999GF100991001001999999001001IA1099KA1120N+00171MD1210131+9999REMSYN074    AAXX  14064 02584 32997 00503 10017 20006 40229 52013 333 20017 31///;EQDQ01  00002PRCP99
0148025840999992000011409004+58400+019200FM-12+001299999V0200501N00151999999CN0200001N1+00171+00011102441ADDGA1051+025009049GF106991051001999999031011MD1210151+9999REMSYN080    AAXX  14094 02584 42998 60503 10017 20001 40244 52015 85031 333 85499 83099;
0148025840999992000011412004+58400+019200FM-12+001299999V0200701N00151030001CN0200001N1+00251+00001102481ADDGA1021+004509079GF106991021061004501071011MD1110041+9999REMSYN080    AAXX  14124 02584 42498 60703 10025 20000 40248 51004 82671 333 82794 85399;
0142025840999992000011415004+58400+019200FM-12+001299999V0200201N001010045019N0100001N1+00231+00011102521ADDGA1081+004509069GF108991081061004501999999MD1310041+9999REMSYN074    AAXX  14154 02584 42497 80202 10023 20001 40252 53004 886// 333 88794;
0191025840999992000011418004+58400+019200FM-12+001299999V0200501N001010080019N0200001N1+00241-00081102591ADDAA199000091GA1081+008009059GF108991081051008001999999KA1120M+00261MD1210071+9999REMSYN080    AAXX  14184 02584 32598 80502 10024 21008 40259 52007 885// 333 10026 88695;EQDQ01  00002PRCP99
0142025840999992000011421004+58400+019200FM-12+001299999V0200701N001510080019N0100001N1+00241+00061102631ADDGA1081+008009059GF108991081051008001999999MD1210041+9999REMSYN074    AAXX  14214 02584 42597 80703 10024 20006 40263 52004 885// 333 88695;
0170025840999992000011500004+58400+019200FM-12+001299999V0200201N001010080019N0100001N1+00191+00051102621ADDAY161061AY221061GA1081+008009059GF108991081051022501999999MD1810011+9999MW1021REMSYN080    AAXX  15004 02584 41897 80202 10019 20005 40262 58001 70262 885// 333 88695;
0154025840999992000011503004+58400+019200FM-12+001299999V0203601N001510080019N0100001N1+00171+00071102611ADDGA1081+008009059GF108991081051022501999999MD1210011+9999MW1851REMSYN080    AAXX  15034 02584 42897 83603 10017 20007 40261 52001 785// 885// 333 88695;
0190025840999992000011506004+58400+019200FM-12+001299999V0202901N002110025019N0100001N1-00041-00181102591ADDAA112000791GA1081+002509069GF108991081061002501999999IA1099KA1120N-00041MD1810021+9999REMSYN092    AAXX  15064 02584 12397 82904 11004 21018 40259 58002 69902 886// 333 21004 31/// 88793;
0148025840999992000011509004+58400+019200FM-12+001299999V0202501N00211075001CN0200001N1+00041-00261102521ADDGA1021+008009069GF105991021051008001001021MD1810071+9999REMSYN080    AAXX  15094 02584 42598 52504 10004 21026 40252 58007 82502 333 82695 84099;
0142025840999992000011512004+58400+019200FM-12+001299999V0202701N003112200019N0200001N1+00141-00251102341ADDGA1021+004509029GF103991021011004501001011MD1710181+9999REMSYN074    AAXX  15124 02584 42498 32706 10014 21025 40234 57018 82101 333 82894;
0142025840999992000011515004+58400+019200FM-12+001299999V0202901N002112200019N0200001N1+00061-00161102261ADDGA1011+999999079GF101991011001999999031001MD1610081+9999REMSYN074    AAXX  15154 02584 42998 12904 10006 21016 40226 56008 81030 333 81399;
0191025840999992000011518004+58400+019200FM-12+001299999V0202901N002119999999N0200001N1+00161-00061102181ADDAA199000091GA1071+999999079GF107991071001999999071001KA1120M+00161MD1710081+9999REMSYN080    AAXX  15184 02584 32998 72904 10016 21006 40218 57008 87070 333 10016 87399;EQDQ01  00002PRCP99
0176025840999992000011521004+58400+019200FM-12+001299999V0202701N00261030001CN0040001N1+00211+00071102121ADDAY121031AY221031GA1031+004509079GF107991031071004501031001MD1710061+9999MW1601REMSYN086    AAXX  15214 02584 41496 72705 10021 20007 40212 57006 76022 83730 333 83794 86399;
0170025840999992000011600004+58400+019200FM-12+001299999V0202901N003119999999N0100001N1+00211+00041102071ADDAY161061AY261061GA1051+999999079GF105991051001999999031001MD1710051+9999MW1011REMSYN080    AAXX  16004 02584 41997 52906 10021 20004 40207 57005 70166 85030 333 85399;
0126025840999992000011603004+58400+019200FM-12+001299999V0203201N002612200019N0100001N1+00201-00021101991ADDGA1001+999999999GF100991001001999999001001MD1810081+9999REMSYN058    AAXX  16034 02584 42997 03205 10020 21002 40199 58008;
0178025840999992000011606004+58400+019200FM-12+001299999V0202701N002112200019N0100001N1+00191+00081102001ADDAA112000791GA1001+999999999GF100991001001999999001001IA1149KA1120N+00161MD1310011+9999REMSYN080    AAXX  16064 02584 12997 02704 10019 20008 40200 53001 69902 333 20016 34///;
0142025840999992000011609004+58400+019200FM-12+001299999V0202501N003619999999N0200001N1+00271+00171101761ADDGA1071+999999079GF107991071001999999031001MD1810241+9999REMSYN074    AAXX  16094 02584 42998 72507 10027 20017 40176 58024 87030 333 87399;
0142025840999992000011612004+58400+019200FM-12+001299999V0202501N004119999999N0200001N1+00331+00231101301ADDGA1081+999999079GF108991081001999999071999MD1710461+9999REMSYN074    AAXX  16124 02584 42998 82508 10033 20023 40130 57046 8807/ 333 88399;
0142025840999992000011615004+58400+019200FM-12+001299999V0202501N005719999999N0200001N1+00421+00171100881ADDGA1081+999999079GF108991081001999999071999MD1710421+9999REMSYN074    AAXX  16154 02584 42998 82511 10042 20017 40088 57042 8807/ 333 88399;
0191025840999992000011618004+58400+019200FM-12+001299999V0202301N005119999999N0200001N1+00411+00231100331ADDAA199000091GA1081+999999079GF108991081001999999031999KA1120M+00441MD1710551+9999REMSYN080    AAXX  16184 02584 32998 82310 10041 20023 40033 57055 8803/ 333 10044 88399;EQDQ01  00002PRCP99
0161025840999992000011621004+58400+019200FM-12+001299999V0202901N004612200019N0200001N1+00501+00181099801ADDGA1041+022509059GF104991041051022501999001MD1710531+9999REMSYN074    AAXX  16214 02584 42898 42909 10050 20018 49980 57053 84500 333 84698;EQDQ01+000002SCOMCG
0126025840999992000011700004+58400+019200FM-12+001299999V0202901N004612200019N0200001N1+00471+00151099901ADDGA1001+999999999GF100991001001999999001001MD1110201+9999REMSYN058    AAXX  17004 02584 42998 02909 10047 20015 49990 51020;
0161025840999992000011703004+58400+019200FM-12+001299999V0202701N005110225019N0200001N1+00481+00061099661ADDGA1081+022509079GF108991081999022501071999MD1710241+9999REMSYN074    AAXX  17034 02584 42898 82710 10048 20006 49966 57024 8807/ 333 88398;EQDQ01+000002SCOLCG
0219025840999992000011706004+58400+019200FM-12+001299999V0203201N005110175019N0200001N1+00421-00081099511ADDAA199000091GA1071+017509059GF107991071051017501999001IA1099KA1120N+00411MD1610151+9999REMSYN086    AAXX  17064 02584 32798 73210 10042 21008 49951 56015 87500 333 20041 31/// 87697;EQDQ01+000002SCOMCGQ02  00002PRCP99
0142025840999992000011709004+58400+019200FM-12+001299999V0203201N005112200019N0200001N1+00421-00181099401ADDGA1011+012509029GF101991011011012501001001MD1710111+9999REMSYN074    AAXX  17094 02584 42698 13210 10042 21018 49940 57011 81100 333 81896;
0176025840999992000011712004+58400+019200FM-12+001299999V0202901N006212200019N0200001N1+00381-00281099311ADDAY181061AY221061GA1021+001509089GF103991031091001501001001MD1610091+9999MW1011REMSYN086    AAXX  17124 02584 41298 32912 10038 21028 49931 56009 70182 83900 333 82892 82994;
0148025840999992000011715004+58400+019200FM-12+001299999V0203401N00571002101CN0200001N1+00421-00431099311ADDGA1021+002509089GF107991071061002501031001MD1410001+9999REMSYN080    AAXX  17154 02584 42398 73411 10042 21043 49931 54000 87630 333 82893 85697;
0142025840999992000011721004+58400+019200FM-12+001299999V0203601N006210175019N0200001N1+00341-00431099341ADDGA1081+017509059GF108991081051017501999999MD1810031+9999REMSYN074    AAXX  17214 02584 42798 83612 10034 21043 49934 58003 885// 333 88697;
0142025840999992000011800004+58400+019200FM-12+001299999V0203401N006210125019N0200001N1+00281-00411099241ADDGA1081+012509059GF108991081051012501999999MD1710101+9999REMSYN074    AAXX  18004 02584 42698 83412 10028 21041 49924 57010 885// 333 88696;
0170025840999992000011803004+58400+019200FM-12+001299999V0203601N006210125019N0040001N1+00281-00431099201ADDAY121031AY221031GA1081+012509099GF108991081031012501999999MD1510041+9999MW1851REMSYN080    AAXX  18034 02584 41696 83612 10028 21043 49920 55004 78522 883// 333 88996;
0218025840999992000011806004+58400+019200FM-12+001299999V0203401N006212200019N0100001N1+00241-00191099201ADDAA112000191AY181061AY281061GA1041+008009099GF104991041031008001999999IA1099KA1120N+00131MD1410001+9999MW1011REMSYN098    AAXX  18064 02584 11597 43412 10024 21019 49920 54000 69922 70188 843// 333 20013 31/// 84995;
0176025840999992000011809004+58400+019200FM-12+001299999V0203601N00621008001CN0040001N1+00121+00021099371ADDAY181031AY221031GA1081+008009099GF108991081031001501999999MD1310171+9999MW1861REMSYN086    AAXX  18094 02584 41296 83612 10012 20002 49937 53017 78682 883// 333 88995 88792;
0176025840999992000011812004+58400+019200FM-12+001299999V0203601N00571001201CN0040001N1+00021-00241099671ADDAY181061AY221061GA1031+001509079GF106991061031001501001001MD1210301+9999MW1851REMSYN086    AAXX  18124 02584 41296 63611 10002 21024 49967 52030 78582 86300 333 83792 86995;
0176025840999992000011815004+58400+019200FM-12+001299999V0200201N00621001501CN0040001N1+00001-00171100071ADDAY181031AY281031GA1061+001509079GF108991081031001501999999MD1210401+9999MW1861REMSYN086    AAXX  18154 02584 41296 80212 10000 21017 40007 52040 78688 883// 333 86792 88995;
0212025840999992000011818004+58400+019200FM-12+001299999V0203601N00671002101CN0200001N1-00081-00661100411ADDAA112003091AY181061AY281061GA1041+002509079GF105991051031002501001001KA1120M+00241MD1110341+9999MW1011REMSYN098    AAXX  18184 02584 11398 53613 11008 21066 40041 51034 60032 70188 85300 333 10024 84793 82995;
0170025840999992000011821004+58400+019200FM-12+001299999V0203601N005710125019N0200001N1-00181-00821100621ADDAY181031AY221031GA1051+012509099GF105991051031012501001001MD1210211+9999MW1861REMSYN080    AAXX  18214 02584 41698 53611 11018 21082 40062 52021 78682 85300 333 85996;
0176025840999992000011900004+58400+019200FM-12+001299999V0203601N00621001501CN0020001N1-00191-00271100851ADDAY181061AY281061GA1061+001509079GF108991081031001501999999MD1110131+9999MW1861REMSYN086    AAXX  19004 02584 41295 83612 11019 21027 40085 51013 78688 883// 333 86792 85995;
0176025840999992000011903004+58400+019200FM-12+001299999V0203401N00621001201CN0005001N1-00191-00261100981ADDAY181031AY281031GA1031+001509079GF108991081031001501999999MD1210131+9999MW1861REMSYN086    AAXX  19034 02584 41293 83412 11019 21026 40098 52013 78688 883// 333 83792 88995;
0176025840999992000011909004+58400+019200FM-12+001299999V0203401N00571002501CN0040001N1-00021-00321101121ADDAY181031AY281031GA1061+002509079GF108991081031002501999999MD1210051+9999MW1851REMSYN086    AAXX  19094 02584 41396 83411 11002 21032 40112 52005 78588 883// 333 86793 86994;
0170025840999992000011912004+58400+019200FM-12+001299999V0203601N005712200019N0200001N1+00041-00521101231ADDAY181061AY281061GA1021+008009099GF103991031031008001001001MD1210131+9999MW1011REMSYN080    AAXX  19124 02584 41598 33611 10004 21052 40123 52013 70188 83300 333 82995;
0142025840999992000011915004+58400+019200FM-12+001299999V0203401N005112200019N0200001N1-00021-00561101361ADDGA1021+008009029GF102991021021008001001001MD1210131+9999REMSYN074    AAXX  19154 02584 42598 23410 11002 21056 40136 52013 82200 333 82895;
0174025840999992000011918004+58400+019200FM-12+001299999V0203401N004612200019N0200001N1+00021-00601101401ADDAA112000791GA1041+008009029GF104991041021008001001001KA1120M+00061MD1710041+9999REMSYN082AAXX  19184 02584 12598 43409 10002 21060 40140 57004 69902 84200 333 10006 84895;
0138025840999992000011921004+58400+019200FM-12+001299999V0203401N004112200019N0200001N1+00021-00541101331ADDGA1031+008009059GF103991031051008001001001MD1710071+9999REMSYN070AAXX  19214 02584 42598 33408 10002 21054 40133 57007 83500 333 83695;
0172025840999992000012003004+58400+019200FM-12+001299999V0202901N00461002101CN0040001N1+00091-00211100511ADDAY101031AY201031GA1021+002509099GF107991071031002501999999MD1710411+9999MW1931REMSYN082AAXX  20034 02584 41396 72909 10009 21021 40051 57041 79300 873// 333 82993 84893;
0231025840999992000012006004+58400+019200FM-12+001299999V0202701N004610175019N0100001N1+00331-00111100031ADDAA112000791AJ100039199999999AY181061AY201061GA1081+017509059GF108991081051017501999999IA1309KA1120N+00021MD1610481+9999MW1021REMSYN094AAXX  20064 02584 11797 82709 10033 21011 40003 56048 69902 70280 885// 333 20002 42003 88697;
0138025840999992000012009004+58400+019200FM-12+001299999V0203401N005110125019N0200001N1+00311+00051099921ADDGA1061+012509059GF106991061051012501001001MD1710111+9999REMSYN070AAXX  20094 02584 42698 63410 10031 20005 49992 57011 86500 333 86696;
0138025840999992000012012004+58400+019200FM-12+001299999V0203601N006712200019N0200001N1+00231-00511099891ADDGA1031+012509059GF103991031051012501001001MD1710031+9999REMSYN070AAXX  20124 02584 42698 33613 10023 21051 49989 57003 83500 333 83696;
0138025840999992000012015004+58400+019200FM-12+001299999V0203601N006212200019N0200001N1-00041-00621099991ADDGA1041+008009029GF104991041021008001001001MD1310101+9999REMSYN070AAXX  20154 02584 42598 43612 11004 21062 49999 53010 84200 333 84895;
0187025840999992000012018004+58400+019200FM-12+001299999V0203601N005710125019N0200001N1-00061-00801099961ADDAA199000091GA1051+012509029GF105991051021012501001001KA1120M+00341MD1810031+9999REMSYN076AAXX  20184 02584 32698 53611 11006 21080 49996 58003 85200 333 10034 85896;EQDQ01  00002PRCP99
0138025840999992000012021004+58400+019200FM-12+001299999V0203601N006212200019N0200001N1-00121-00761099831ADDGA1041+008009029GF104991041021008001001001MD1810131+9999REMSYN070AAXX  20214 02584 42598 43612 11012 21076 49983 58013 84200 333 84895;
0138025840999992000012100004+58400+019200FM-12+001299999V0203401N006212200019N0200001N1-00181-00761099821ADDGA1041+008009029GF104991041021008001001001MD1610011+9999REMSYN070AAXX  21004 02584 42598 43412 11018 21076 49982 56001 84200 333 84895;
0237025840999992000012106004+58400+019200FM-12+001299999V0203401N00721001501CN0020001N1-00341-00381100071ADDAA112005191AJ100079199999999AY111061AY211061GA1061+001509079GF108991061071001501021999IA1239KA1120N-00381MD1310231+9999MW1731REMSYN100AAXX  21064 02584 11295 83414 11034 21038 40007 53023 60052 77311 8672/ 333 21038 47007 86792 88599;
0172025840999992000012109004+58400+019200FM-12+001299999V0200201N006210012019N0001001N1-00341-00421100451ADDAY181031AY271031GA1041+002509099GF108991081031001501999999MD1210381+9999MW1861REMSYN082AAXX  21094 02584 41291 80212 11034 21042 40045 52038 78687 883// 333 84993 84792;
0166025840999992000012112004+58400+019200FM-12+001299999V0200201N005110015019N0005001N1-00341-00601100781ADDAY181061AY271061GA1061+001509099GF106991061031001501001001MD1210331+9999MW1851REMSYN076AAXX  21124 02584 41293 60210 11034 21060 40078 52033 78587 86300 333 86992;
0166025840999992000012115004+58400+019200FM-12+001299999V0200201N006212200019N0200001N1-00221-01121101031ADDAY181031AY281031GA1041+008009029GF104991041021008001001001MD1210251+9999MW1021REMSYN076AAXX  21154 02584 41598 40212 11022 21112 40103 52025 70288 84200 333 84895;
0208025840999992000012118004+58400+019200FM-12+001299999V0203601N00511004201CN0200001N1-00261-00781101171ADDAA112007191AY181061AY281061GA1021+004509099GF105991051031004501001001KA1120M-00191MD1110141+9999MW1271REMSYN094AAXX  21184 02584 11498 53610 11026 21078 40117 51014 60072 72788 85300 333 11019 82994 83894;
0144025840999992000012121004+58400+019200FM-12+001299999V0203601N005112200019N0200001N1-00411-00911101221ADDGA1011+004509099GF104991041031004501001001MD1710051+9999REMSYN076AAXX  21214 02584 42498 43610 11041 21091 40122 57005 84300 333 81994 83894;
0122025840999992000012200004+58400+019200FM-12+001299999V0203401N004112200019N0200001N1-00471-01321101181ADDGA1001+999999999GF100991001001999999001001MD1710041+9999REMSYN054AAXX  22004 02584 42998 03408 11047 21132 40118 57004;
0138025840999992000012203004+58400+019200FM-12+001299999V0203401N003112200019N0500001N1-00501-01121101091ADDGA1021+008009029GF102991021021008001001001MD1710091+9999REMSYN070AAXX  22034 02584 42599 23406 11050 21112 40109 57009 82200 333 82895;
0197025840999992000012206004+58400+019200FM-12+001299999V0203401N003112200019N0500001N1-00471-01051101061ADDAA199000021AJ100119199999999GA1021+008009029GF102991021021008001001001IA1239KA1120N-00511MD1710031+9999REMSYN082AAXX  22064 02584 32599 23406 11047 21105 40106 57003 82200 333 21051 47011 82895;
0138025840999992000012209004+58400+019200FM-12+001299999V0203601N002612200019N0500001N1-00401-01151101071ADDGA1021+012509029GF102991021021012501001001MD1210011+9999REMSYN070AAXX  22094 02584 42699 23605 11040 21115 40107 52001 82200 333 82896;
0138025840999992000012212004+58400+019200FM-12+001299999V0203601N003112200019N0500001N1-00281-01191101111ADDGA1031+012509029GF103991031021012501001001MD1210041+9999REMSYN070AAXX  22124 02584 42699 33606 11028 21119 40111 52004 83200 333 83896;
0138025840999992000012215004+58400+019200FM-12+001299999V0203601N003612200019N0500001N1-00371-01261101121ADDGA1031+012509029GF103991031021012501001001MD1210011+9999REMSYN070AAXX  22154 02584 42699 33607 11037 21126 40112 52001 83200 333 83896;
0187025840999992000012218004+58400+019200FM-12+001299999V0203601N003112200019N0200001N1-00341-01071101121ADDAA199000091GA1041+012509029GF104991041021012501001001KA1120M-00281MD1310071+9999REMSYN076AAXX  22184 02584 32698 43606 11034 21107 40112 53007 84200 333 11028 84896;EQDQ01  00002PRCP99
0138025840999992000012221004+58400+019200FM-12+001299999V0203601N003112200019N0200001N1-00341-01121101291ADDGA1041+012509029GF104991041021012501001001MD1210101+9999REMSYN070AAXX  22214 02584 42698 43606 11034 21112 40129 52010 84200 333 84896;
0138025840999992000012300004+58400+019200FM-12+001299999V0203601N002110125019N0200001N1-00321-01141101381ADDGA1081+012509059GF108991081051012501999999MD1210091+9999REMSYN070AAXX  23004 02584 42698 83604 11032 21114 40138 52009 885// 333 88696;
0138025840999992000012303004+58400+019200FM-12+001299999V0203401N002119999999N0200001N1-00361-01221101411ADDGA1081+999999079GF108991081001999999031999MD1110031+9999REMSYN070AAXX  23034 02584 42998 83404 11036 21122 40141 51003 8803/ 333 88399;
0216025840999992000012306004+58400+019200FM-12+001299999V0203401N001519999999N0200001N1-00381-01241101341ADDAA199000091AJ100109199999999GA1081+999999079GF108991081001999999031999IA1239KA1120N-00501MD1210021+9999REMSYN082AAXX  23064 02584 32998 83403 11038 21124 40134 52002 8803/ 333 21050 47010 88399;EQDQ01  00002PRCP99
0144025840999992000012309004+58400+019200FM-12+001299999V0203401N00211007501CN0200001N1-00341-01211101541ADDGA1031+008009089GF106991061021008001001001MD1310111+9999REMSYN076AAXX  23094 02584 42598 63404 11034 21121 40154 53011 86200 333 83895 84696;
0138025840999992000012312004+58400+019200FM-12+001299999V0203401N002112200019N0200001N1-00361-01021101611ADDGA1041+008009029GF104991041021008001001001MD1210071+9999REMSYN070AAXX  23124 02584 42598 43404 11036 21102 40161 52007 84200 333 84895;
0144025840999992000012315004+58400+019200FM-12+001299999V0203401N00261008001CN0200001N1-00301-00911101691ADDGA1061+008009089GF108991061021008001011999MD1210081+9999REMSYN076AAXX  23154 02584 42598 83405 11030 21091 40169 52008 8621/ 333 86895 88499;
0187025840999992000012318004+58400+019200FM-12+001299999V0203601N003112200019N0200001N1-00341-00731101781ADDAA199000091GA1041+004509029GF104991041021004501999999KA1120M-00271MD1210091+9999REMSYN076AAXX  23184 02584 32498 43606 11034 21073 40178 52009 842// 333 11027 84894;EQDQ01  00002PRCP99
0138025840999992000012321004+58400+019200FM-12+001299999V0203601N003112200019N0200001N1-00311-00831101851ADDGA1031+008009029GF103991031021008001999999MD1210071+9999REMSYN070AAXX  23214 02584 42598 33606 11031 21083 40185 52007 832// 333 83895;
0138025840999992000012400004+58400+019200FM-12+001299999V0203601N003112200019N0200001N1-00291-00661101901ADDGA1041+008009029GF104991041021008001001001MD1210051+9999REMSYN070AAXX  24004 02584 42598 43606 11029 21066 40190 52005 84200 333 84895;
0138025840999992000012403004+58400+019200FM-12+001299999V0203401N003612200019N0200001N1-00291-00711101861ADDGA1011+008009029GF101991011021008001001001MD1710041+9999REMSYN070AAXX  24034 02584 42598 13407 11029 21071 40186 57004 81200 333 81895;
0216025840999992000012406004+58400+019200FM-12+001299999V0203401N00211075001CN0200001N1-00311-00961101851ADDAA199000091AJ100109199999999GA1081+999999019GF108991081001999999011999IA1239KA1120N-00341MD1210011+9999REMSYN082AAXX  24064 02584 32998 83404 11031 21096 40185 52001 8801/ 333 21034 47010 88499;EQDQ01  00002PRCP99
0138025840999992000012409004+58400+019200FM-12+001299999V0203201N001019999999N0200001N1-00401-00951101881ADDGA1051+999999089GF107991001001999999001061MD1710031+9999REMSYN070AAXX  24094 02584 42998 73202 11040 21095 40188 57003 80006 333 85299;
0138025840999992000012412004+58400+019200FM-12+001299999V0202701N001019999999N0200001N1-00181-00941101801ADDGA1061+999999079GF106991061001999999031001MD1710081+9999REMSYN070AAXX  24124 02584 42998 62702 11018 21094 40180 57008 86030 333 86399;
0138025840999992000012415004+58400+019200FM-12+001299999V0202701N001019999999N0200001N1-00141-00701101721ADDGA1081+999999079GF108991081001999999031001MD1710081+9999REMSYN070AAXX  24154 02584 42998 82702 11014 21070 40172 57008 88030 333 88399;
0208025840999992000012418004+58400+019200FM-12+001299999V0202701N002110042019N0100001N1-00061-00381101701ADDAA112000191AY121061AY211061GA1041+004509099GF108991081031004501999999KA1120M-00061MD1610021+9999MW1261REMSYN094AAXX  24184 02584 11497 82704 11006 21038 40170 56002 69912 72621 883// 333 11006 84994 84793;
0138025840999992000012421004+58400+019200FM-12+001299999V0202901N001510045019N0100001N1-00061-00301101701ADDGA1081+004509059GF108991081051004501999999MD1510001+9999REMSYN070AAXX  24214 02584 42497 82903 11006 21030 40170 55000 885// 333 88694;
0166025840999992000012500004+58400+019200FM-12+001299999V0200201N000510045019N0040001N1-00061-00201101671ADDAY121061AY221061GA1081+004509069GF108991081061004501999999MD1810031+9999MW1101REMSYN076AAXX  25004 02584 41496 80201 11006 21020 40167 58003 71022 886// 333 88794;
0166025840999992000012503004+58400+019200FM-12+001299999V0200201N001010045019N0040001N1-00041-00201101651ADDAY121031AY221031GA1081+004509069GF108991081061004501999999MD1710021+9999MW1101REMSYN076AAXX  25034 02584 41496 80202 11004 21020 40165 57002 71022 886// 333 88794;
0225025840999992000012506004+58400+019200FM-12+001299999V0203601N001510080019N0040001N1-00081-00221101581ADDAA199000021AJ100089199999999AY121061AY221061GA1081+008009059GF108991081051008001999999IA1239KA1120N-00121MD1810071+9999MW1101REMSYN088AAXX  25064 02584 31596 83603 11008 21022 40158 58007 71022 885// 333 21012 47008 88695;
0138025840999992000012509004+58400+019200FM-12+001299999V0203201N002110045019N0100001N1-00181-00371101581ADDGA1081+004509069GF108991081071004501999999MD1510001+9999REMSYN070AAXX  25094 02584 42497 83204 11018 21037 40158 55000 887// 333 88794;
0138025840999992000012512004+58400+019200FM-12+001299999V0202901N003110025019N0100001N1-00181-00291101351ADDGA1081+002509069GF108991081071002501999999MD1810231+9999REMSYN070AAXX  25124 02584 42397 82906 11018 21029 40135 58023 887// 333 88793;
0172025840999992000012515004+58400+019200FM-12+001299999V0202701N00411004501CN0040001N1+99999+99999101161ADDAY121031AY221031GA1061+004509079GF108991061071004501021999MD1710191+9999MW1681REMSYN082AAXX  25154 02584 41496 82708 12002 21005 40116 57019 76822 8672/ 333 86794 88599;
0202025840999992000012518004+58400+019200FM-12+001299999V0203401N00311075001CN0100001N1+00191+00001101141ADDAA112000191AY171061AY221061GA1081+999999029GF108991081051999999999999KA1120M+00191MD1510021+9999MW1021REMSYN088AAXX  25184 02584 11997 83406 10019 20000 40114 55002 69912 70272 885// 333 10019 88599;
0122025840999992000012521004+58400+019200FM-12+001299999V0203401N004112200019N0100001N1+00161+00041101211ADDGA1001+999999999GF100991001001999999001001MD1210071+9999REMSYN054AAXX  25214 02584 42997 03408 10016 20004 40121 52007;
0122025840999992000012609004+58400+019200FM-12+001299999V0202701N003112200019N0200001N1+00271+00021100801ADDGA1001+999999999GF100991001001999999001001MD1710201+9999REMSYN054AAXX  26094 02584 42998 02706 10027 20002 40080 57020;
0138025840999992000012612004+58400+019200FM-12+001299999V0203201N004112200019N0200001N1+00421+00001100711ADDGA1021+012509029GF102991021021012501001001MD1610091+9999REMSYN070AAXX  26124 02584 42698 23208 10042 20000 40071 56009 82200 333 82896;
0138025840999992000012615004+58400+019200FM-12+001299999V0202701N00211075001CN0200001N1+00261+00091100691ADDGA1051+999999019GF105991001001999999001011MD1710021+9999REMSYN070AAXX  26154 02584 42998 52704 10026 20009 40069 57002 80001 333 85099;
0203025840999992000012618004+58400+019200FM-12+001299999V0202901N003112200019N0040001N1+00281+00131100641ADDAA199000091AY111061AY201061GA1001+999999999GF100991001001999999001001KA1999M+00441MD1710051+9999MW1101REMSYN070AAXX  26184 02584 31996 02906 10028 20013 40064 57005 71010 333 10044;EQDQ01  00002PRCP99
0150025840999992000012621004+58400+019200FM-12+001299999V0202901N003612200019N0040001N1+00281+00131100631ADDAY101031AY201031GA1001+999999999GF100991001001999999001001MD1610011+9999MW1101REMSYN060AAXX  26214 02584 41996 02907 10028 20013 40063 56001 71000;
0122025840999992000012700004+58400+019200FM-12+001299999V0202901N004112200019N0100001N1+00301+00071100621ADDGA1001+999999999GF100991001001999999001001MD1710011+9999REMSYN054AAXX  27004 02584 42997 02908 10030 20007 40062 57001;
0138025840999992000012703004+58400+019200FM-12+001299999V0202901N004112200019N0200001N1+00261-00071100721ADDGA1031+999999019GF103991001001999999001011MD1310101+9999REMSYN070AAXX  27034 02584 42998 32908 10026 21007 40072 53010 80001 333 83099;
0216025840999992000012706004+58400+019200FM-12+001299999V0203201N004112200019N0200001N1+00261-00151100771ADDAA199000091AJ100079199999999GA1031+999999019GF103991001001999999001011IA1279KA1120N+00221MD1210051+9999REMSYN082AAXX  27064 02584 32998 33208 10026 21015 40077 52005 80001 333 20022 43007 83099;EQDQ01  00002PRCP99
0138025840999992000012709004+58400+019200FM-12+001299999V0203201N002119999999N0200001N1+00281-00141100751ADDGA1081+999999089GF108991001001999999001071MD1810021+9999REMSYN070AAXX  27094 02584 42998 83204 10028 21014 40075 58002 80007 333 88299;
0138025840999992000012712004+58400+019200FM-12+001299999V0202901N001519999999N0200001N1+00221-00151100561ADDGA1081+999999089GF108991001001999999001071MD1810191+9999REMSYN070AAXX  27124 02584 42998 82903 10022 21015 40056 58019 80007 333 88299;
0138025840999992000012715004+58400+019200FM-12+001299999V0202301N002119999999N0200001N1+00241+00031100101ADDGA1081+999999089GF108991001001999999001071MD1810461+9999REMSYN070AAXX  27154 02584 42998 82304 10024 20003 40010 58046 80007 333 88299;
0208025840999992000012718004+58400+019200FM-12+001299999V0202301N00411030001CN0040001N1+00261+00201099691ADDAA112000791AY121061AY221061GA1041+002509079GF108991041071002501021999KA1120M+00281MD1710591+9999MW1681REMSYN094AAXX  27184 02584 11396 82308 10026 20020 49969 57059 69902 76822 8472/ 333 10028 84793 88599;
0150025840999992000012721004+58400+019200FM-12+001299999V0202301N005112200019N0100001N1+00351+00261099311ADDAY171031AY271031GA1001+999999999GF100991001001999999001001MD1710381+9999MW1011REMSYN060AAXX  27214 02584 41997 02310 10035 20026 49931 57038 70177;
0150025840999992000012800004+58400+019200FM-12+001299999V0202701N005112200019N0200001N1+00351+00141099241ADDAY171061AY271061GA1001+999999999GF100991001001999999001001MD1610071+9999MW1021REMSYN060AAXX  28004 02584 41998 02710 10035 20014 49924 56007 70277;
0122025840999992000012803004+58400+019200FM-12+001299999V0202701N005112200019N0200001N1+00291-00031099211ADDGA1001+999999999GF100991001001999999001001MD1710031+9999REMSYN054AAXX  28034 02584 42998 02710 10029 21003 49921 57003;
0191025840999992000012806004+58400+019200FM-12+001299999V0202701N004612200019N0200001N1+00201-00231099341ADDAA112000391AJ100079199999999GA1001+999999999GF100991001001999999001001IA1309KA1120N+00201MD1210131+9999REMSYN076AAXX  28064 02584 12998 02709 10020 21023 49934 52013 69932 333 20020 42007;
0144025840999992000012809004+58400+019200FM-12+001299999V0202901N00411220001CN0200001N1+00101-00341099531ADDGA1021+008009069GF105991021051008001001011MD1210191+9999REMSYN076AAXX  28094 02584 42598 52908 10010 21034 49953 52019 82501 333 82695 84099;
0138025840999992000012812004+58400+019200FM-12+001299999V0203201N001510045019N0200001N1+00101-00251099691ADDGA1061+004509059GF106991061051004501001001MD1210161+9999REMSYN070AAXX  28124 02584 42498 63203 10010 21025 49969 52016 86500 333 86694;
0138025840999992000012815004+58400+019200FM-12+001299999V0202701N001010045019N0200001N1-00041-00291099791ADDGA1071+004509059GF107991071051004501999999MD1210101+9999REMSYN070AAXX  28154 02584 42498 72702 11004 21029 49979 52010 875// 333 87694;
0187025840999992000012818004+58400+019200FM-12+001299999V0201601N000512200019N0100001N1-00221-00361099791ADDAA199000091GA1041+004509069GF104991041071004501001001KA1120M+00201MD1010001+9999REMSYN076AAXX  28184 02584 32497 41601 11022 21036 49979 50000 84700 333 10020 84794;EQDQ01  00002PRCP99
0122025840999992000012821004+58400+019200FM-12+001299999V0201801N002112200019N0100001N1-00021-00131099621ADDGA1001+999999999GF100991001001999999001001MD1810171+9999REMSYN054AAXX  28214 02584 42997 01804 11002 21013 49962 58017;
0150025840999992000012900004+58400+019200FM-12+001299999V0201801N002112200019N0040001N1+00121-00041099461ADDAY101061AY201061GA1001+999999999GF100991001001999999001001MD1710161+9999MW1101REMSYN060AAXX  29004 02584 41996 01804 10012 21004 49946 57016 71000;
0150025840999992000012903004+58400+019200FM-12+001299999V0201801N003112200019N0040001N1+00121+00081099111ADDAY101031AY201031GA1001+999999999GF100991001001999999001001MD1710351+9999MW1101REMSYN060AAXX  29034 02584 41996 01806 10012 20008 49911 57035 71000;
0244025840999992000012906004+58400+019200FM-12+001299999V0202001N003110045019N0040001N1+00261+00221098821ADDAA199000091AJ100059199999999AY101061AY201061GA1081+004509069GF108991081071004501999999IA1309KA1120N-00281MD1710291+9999MW1101REMSYN088AAXX  29064 02584 31496 82006 10026 20022 49882 57029 71000 887// 333 21028 42005 88794;EQDQ01  00002PRCP99
0166025840999992000012909004+58400+019200FM-12+001299999V0202001N004610025019N0040001N1+00281+00161098351ADDAY121031AY221031GA1081+002509069GF108991081071002501999999MD1710471+9999MW1101REMSYN076AAXX  29094 02584 41396 82009 10028 20016 49835 57047 71022 887// 333 88793;
0166025840999992000012912004+58400+019200FM-12+001299999V0202001N005110025019N0040001N1+00261+00201097751ADDAY121061AY221061GA1081+002509069GF108991081071002501999999MD1710601+9999MW1101REMSYN076AAXX  29124 02584 41396 82010 10026 20020 49775 57060 71022 887// 333 88793;
0172025840999992000012915004+58400+019200FM-12+001299999V0202001N00621002501CN0040001N1+00221+00181097061ADDAY121031AY221031GA1061+002509079GF108991061071002501021999MD1710691+9999MW1631REMSYN082AAXX  29154 02584 41396 82012 10022 20018 49706 57069 76322 8672/ 333 86793 88599;
0208025840999992000012918004+58400+019200FM-12+001299999V0201801N00571001501CN0040001N1+00221+00191096561ADDAA112003091AY121061AY221061GA1061+001509079GF108991051061001501071999KA1120M+00281MD1710501+9999MW1231REMSYN094AAXX  29184 02584 11296 81811 10022 20019 49656 57050 60032 72322 8567/ 333 10028 86792 88599;
0122025840999992000012921004+58400+019200FM-12+001299999V0202301N005712200019N0100001N1+00371+00341096501ADDGA1001+999999999GF100991001001999999001001MD1610061+9999REMSYN054AAXX  29214 02584 42997 02311 10037 20034 49650 56006;
0122025840999992000013000004+58400+019200FM-12+001299999V0202301N006712200019N0200001N1+00461+00261096281ADDGA1001+999999999GF100991001001999999001001MD1810221+9999REMSYN054AAXX  30004 02584 42998 02313 10046 20026 49628 58022;
0163025840999992000013003004+58400+019200FM-12+001299999V0202301N00721030001CN0200001N1+00411+00091095991ADDGA1031+008009069GF108991031051008001011999MD1710291+9999REMSYN076AAXX  30034 02584 42598 82314 10041 20009 49599 57071 8351/ 333 83695 88499;EQDQ01+000712APC3  
0256025840999992000013006004+58400+019200FM-12+001299999V0202501N00571007501CN0100001N1+00341+00221096001ADDAA112000391AJ199992999999999AY121061AY201061GA1011+008009099GF106991061031008001001001IA1259KA1120N+00221MD1510011+9999MW1251REMSYN100AAXX  30064 02584 11597 62511 10034 20022 49600 55001 69932 72520 86300 333 20022 41998 81995 85895;EQDQ01  09972SNDP  
0172025840999992000013009004+58400+019200FM-12+001299999V0202701N00461030001CN0040001N1+00321+00221096451ADDAY121031AY221031GA1041+004509079GF108991041071004501021999MD1210151+9999MW1601REMSYN082AAXX  30094 02584 41496 82709 10032 20022 49645 52015 76022 8472/ 333 84794 88599;
0166025840999992000013012004+58400+019200FM-12+001299999V0203201N007210175019N0100001N1+00321-00281097431ADDAY161061AY221061GA1081+017509059GF108991081051012501999999MD1210981+9999MW1021REMSYN076AAXX  30124 02584 41697 83214 10032 21028 49743 52098 70262 885// 333 88697;
0138025840999992000013015004+58400+019200FM-12+001299999V0203401N008212200019N0200001N1+00221-00711098241ADDGA1041+012509029GF104991041021012501001001MD1210811+9999REMSYN070AAXX  30154 02584 42698 43416 10022 21071 49824 52081 84200 333 84896;
0174025840999992000013018004+58400+019200FM-12+001299999V0203401N008212200019N0200001N1+00081-00851098951ADDAA112000191GA1021+012509029GF102991021021012501001001KA1120M+00351MD1210711+9999REMSYN082AAXX  30184 02584 12698 23416 10008 21085 49895 52071 69912 82200 333 10035 82896;
0122025840999992000013021004+58400+019200FM-12+001299999V0203401N006212200019N0200001N1-00061-00981099491ADDGA1001+999999999GF100991001001999999001001MD1210541+9999REMSYN054AAXX  30214 02584 42998 03412 11006 21098 49949 52054;
0122025840999992000013100004+58400+019200FM-12+001299999V0203201N005112200019N0200001N1-00121-00921099681ADDGA1001+999999999GF100991001001999999001001MD1110191+9999REMSYN054AAXX  31004 02584 42998 03210 11012 21092 49968 51019;
0138025840999992000013103004+58400+019200FM-12+001299999V0203201N00211075001CN0200001N1-00121-00921099551ADDGA1081+999999019GF108991081001999999071999MD1810131+9999REMSYN070AAXX  31034 02584 42998 83204 11012 21092 49955 58013 8807/ 333 88499;
0232025840999992000013106004+58400+019200FM-12+001299999V0209999C00001075001CN0200001N1-00221-00591099361ADDAA199000091AJ199992999999999GA1081+999999019GF108991081001999999071999IA1259KA1120N-00251MD1710191+9999REMSYN082AAXX  31064 02584 32998 80000 11022 21059 49936 57019 8807/ 333 21025 41998 88499;EQDQ01  00002PRCP99Q02  09972SNDP  
0118025840999992000013109004+58400+019200FM-12+001299999V0201401N00051075001CN0200001N1-00201-00481099361ADDGA1081+999999019GF108991081001999999071999REMSYN064AAXX  31094 02584 42998 81401 11020 21048 49936 8807/ 333 88499;
0144025840999992000013112004+58400+019200FM-12+001299999V0200501N00101075001CN0200001N1+00001-00891099611ADDGA1031+008009089GF107991031021008001001021MD1310251+9999REMSYN076AAXX  31124 02584 42598 70502 10000 21089 49961 53025 83202 333 83895 87099;
0144025840999992000013115004+58400+019200FM-12+001299999V0203201N00101075001CN0200001N1-00161-00561100081ADDGA1021+008009089GF106991021021008001001021MD1310471+9999REMSYN076AAXX  31154 02584 42598 63202 11016 21056 40008 53047 82202 333 82895 86099;
0187025840999992000013118004+58400+019200FM-12+001299999V0202501N005712200019N0200001N1+00031-00591100331ADDAA199000091GA1041+012509059GF104991041051012501001001KA1120M+00051MD1210251+9999REMSYN076AAXX  31184 02584 32698 42511 10003 21059 40033 52025 84500 333 10005 84696;EQDQ01  00002PRCP99
0138025840999992000013121004+58400+019200FM-12+001299999V0202701N004610045019N0200001N1-00031-00401100431ADDGA1081+004509059GF108991081051004501999999MD1210101+9999REMSYN070AAXX  31214 02584 42498 82709 11003 21040 40043 52010 885// 333 88694;
0138025840999992000020100004+58400+019200FM-12+001299999V0202701N004112200019N0200001N1+00061-00261100441ADDGA1031+004509059GF103991031051004501001001MD1210011+9999REMSYN070AAXX  01004 02584 42498 32708 10006 21026 40044 52001 83500 333 83694;
0122025840999992000020103004+58400+019200FM-12+001299999V0202701N003612200019N0200001N1+00071-00471100521ADDGA1001+999999999GF100991001001999999001001MD1210081+9999REMSYN054AAXX  01034 02584 42998 02707 10007 21047 40052 52008;
0204025840999992000020106004+58400+019200FM-12+001299999V0202901N002612200019N0200001N1-00011-00631100641ADDAA199000091AJ100009199999999GA1001+999999999GF100991001001999999001001IA1259KA1120N-00031MD1210121+9999REMSYN070AAXX  01064 02584 32998 02905 11001 21063 40064 52012 333 21003 41998;EQDQ01  00002PRCP99
0138025840999992000020109004+58400+019200FM-12+001299999V0202901N002112200019N0200001N1+00001-00621100721ADDGA1021+999999019GF102991001001999999001011MD1210081+9999REMSYN070AAXX  01094 02584 42998 22904 10000 21062 40072 52008 80001 333 82099;
0138025840999992000020112004+58400+019200FM-12+001299999V0202701N001512200019N0500001N1+00161-00561100651ADDGA1041+999999019GF104991001001999999001011MD1710071+9999REMSYN070AAXX  01124 02584 42999 42703 10016 21056 40065 57007 80001 333 84099;
0138025840999992000020115004+58400+019200FM-12+001299999V0202301N00211075001CN0200001N1+00051-00571100431ADDGA1051+999999019GF105991001001999999001021MD1710321+9999REMSYN070AAXX  01154 02584 42998 52304 10005 21057 40043 57032 80002 333 85099;
0187025840999992000020118004+58400+019200FM-12+001299999V0202001N00311075001CN0200001N1+00101-00381100171ADDAA199000091GA1081+999999019GF108991081001999999011999KA1120M+00181MD1710261+9999REMSYN076AAXX  01184 02584 32998 82006 10010 21038 40017 57026 8801/ 333 10018 88499;EQDQ01  00002PRCP99
0172025840999992000020121004+58400+019200FM-12+001299999V0201801N00211001501CN0020001N1+00021-00011099651ADDAY121031AY221031GA1051+001509079GF108991051071001501021999MD1710521+9999MW1711REMSYN082AAXX  01214 02584 41295 81804 10002 21001 49965 57052 77122 8572/ 333 85792 88599;
0172025840999992000020200004+58400+019200FM-12+001299999V0202001N00411001501CN0020001N1+00301+00271099131ADDAY171061AY221061GA1051+001509079GF108991051071001501021999MD1710521+9999MW1611REMSYN082AAXX  02004 02584 41295 82008 10030 20027 49913 57052 76172 8572/ 333 85792 88599;
0166025840999992000020203004+58400+019200FM-12+001299999V0202501N006210025019N0040001N1+00401+00361098931ADDAY161031AY261031GA1081+002509069GF108991081071002501999999MD1610201+9999MW1101REMSYN076AAXX  02034 02584 41396 82512 10040 20036 49893 56020 71066 887// 333 88793;
0250025840999992000020206004+58400+019200FM-12+001299999V0202901N004110045019N0040001N1+00201+00131099081ADDAA112002091AJ199992999999999AY161061AY261061GA1081+004509069GF108991081071004501999999IA1259KA1120N+00021MD1310151+9999MW1101REMSYN094AAXX  02064 02584 11496 82908 10020 20013 49908 53015 60022 71066 887// 333 20002 41998 88794;EQDQ01  09972SNDP  
0138025840999992000020209004+58400+019200FM-12+001299999V0202901N004110045019N0100001N1+00301+00081099181ADDGA1081+004509069GF108991081071004501999999MD1210101+9999REMSYN070AAXX  02094 02584 42497 82908 10030 20008 49918 52010 887// 333 88794;
0138025840999992000020212004+58400+019200FM-12+001299999V0202701N005712200019N0200001N1+00401+00081099121ADDGA1031+008009029GF103991031021008001001001MD1810061+9999REMSYN070AAXX  02124 02584 42598 32711 10040 20008 49912 58006 83200 333 83895;
0122025840999992000020215004+58400+019200FM-12+001299999V0202501N004112200019N0200001N1+00341+00141099051ADDGA1001+999999999GF100991001001999999001001MD1710071+9999REMSYN054AAXX  02154 02584 42998 02508 10034 20014 49905 57007;
0187025840999992000020218004+58400+019200FM-12+001299999V0202501N003110080019N0200001N1+00341+00141098981ADDAA199000091GA1081+008009059GF108991081051008001999999KA1120M+00411MD1710071+9999REMSYN076AAXX  02184 02584 32598 82506 10034 20014 49898 57007 885// 333 10041 88695;EQDQ01  00002PRCP99
0172025840999992000020221004+58400+019200FM-12+001299999V0202701N00211004501CN0040001N1+00121+00081098871ADDAY121031AY221031GA1061+004509079GF108991061071004501021999MD1710111+9999MW1681REMSYN082AAXX  02214 02584 41496 82704 10012 20008 49887 57011 76822 8672/ 333 86794 88597;
0172025840999992000020300004+58400+019200FM-12+001299999V0200501N00411004501CN0040001N1+00011-00021099081ADDAY171061AY221061GA1061+004509079GF108991061071004501021999MD1310211+9999MW1711REMSYN082AAXX  03004 02584 41496 80508 10001 21002 49908 53021 77172 8672/ 333 86794 88599;
0172025840999992000020303004+58400+019200FM-12+001299999V0203601N00311004501CN0040001N1-00051-00161099571ADDAY171031AY271031GA1061+004509079GF108991061071004501021999MD1210491+9999MW1711REMSYN082AAXX  03034 02584 41496 83606 11005 21016 49957 52049 77177 8672/ 333 86794 88599;
0214025840999992000020306004+58400+019200FM-12+001299999V0203601N003612200019N0100001N1-00141-00391100121ADDAA112007191AY171061AY271061GA1031+004509029GF103991031021004501001001IA1279KA1120N-00161MD1210551+9999MW1011REMSYN094AAXX  03064 02584 11497 33607 11014 21039 40012 52055 60072 70177 83200 333 21016 43/// 83894;
0138025840999992000020309004+58400+019200FM-12+001299999V0203401N004112200019N0200001N1-00231-00451100631ADDGA1031+004509059GF103991031051004501001001MD1210511+9999REMSYN070AAXX  03094 02584 42498 33408 11023 21045 40063 52051 83500 333 83694;
0122025840999992000020312004+58400+019200FM-12+001299999V0202901N004112200019N0200001N1-00081-00581100911ADDGA1001+999999999GF100991001001999999001001MD1210281+9999REMSYN054AAXX  03124 02584 42998 02908 11008 21058 40091 52028;
0138025840999992000020315004+58400+019200FM-12+001299999V0202901N005112200019N0200001N1-00091-00631101251ADDGA1011+999999079GF101991011001999999071001MD1210341+9999REMSYN070AAXX  03154 02584 42998 12910 11009 21063 40125 52034 81070 333 81399;
0175025840999992000020318004+58400+019200FM-12+001299999V0202301N005712200019N0200001N1+00041-00501101621ADDAA199000091GA1001+999999999GF100991001001999999001001KA1999M+00051MD1210371+9999REMSYN064AAXX  03184 02584 32998 02311 10004 21050 40162 52037 333 10005;EQDQ01  00002PRCP99
0122025840999992000020321004+58400+019200FM-12+001299999V0202301N004112200019N0200001N1+00021-00461101871ADDGA1001+999999999GF100991001001999999001001MD1110251+9999REMSYN054AAXX  03214 02584 42998 02308 10002 21046 40187 51025;
0122025840999992000020400004+58400+019200FM-12+001299999V0202701N002612200019N0200001N1+00051-00341101931ADDGA1001+999999999GF100991001001999999001001MD1110051+9999REMSYN054AAXX  04004 02584 42998 02705 10005 21034 40193 51005;
0138025840999992000020403004+58400+019200FM-12+001299999V0202501N004619999999N0200001N1+00151-00411101661ADDGA1081+999999089GF108991001001999999001071MD1810271+9999REMSYN070AAXX  04034 02584 42998 82509 10015 21041 40166 58027 80007 333 88299;
0237025840999992000020406004+58400+019200FM-12+001299999V0202501N00671002501CN0040001N1+00231-00021101131ADDAA112000791AJ100019199999999AY121061AY221061GA1051+002509079GF108991051071002501021999IA1279KA1120N+00001MD1710531+9999MW1621REMSYN100AAXX  04064 02584 11396 82513 10023 21002 40113 57053 69902 76222 8572/ 333 20000 43001 85793 88597;
0172025840999992000020409004+58400+019200FM-12+001299999V0202301N00671004501CN0100001N1+00301-00121100701ADDAY161031AY261031GA1061+004509079GF108991061071004501021999MD1710431+9999MW1021REMSYN082AAXX  04094 02584 41497 82313 10030 21012 40070 57043 70266 8672/ 333 86794 88597;
0166025840999992000020412004+58400+019200FM-12+001299999V0202501N007710015019N0040001N1+00331-00251100351ADDAY161061AY221061GA1081+001509069GF108991081061001501999999MD1610351+9999MW1101REMSYN076AAXX  04124 02584 41296 82515 10033 21025 40035 56035 71062 886// 333 88792;
0172025840999992000020415004+58400+019200FM-12+001299999V0202501N00511004501CN0040001N1+00421+00291100131ADDAY121031AY221031GA1061+004509079GF108991061061004501071999MD1710221+9999MW1101REMSYN082AAXX  04154 02584 41496 82510 10042 20029 40013 57022 71022 8667/ 333 86794 88399;
0202025840999992000020418004+58400+019200FM-12+001299999V0202701N003610045019N0040001N1+00401+00331100111ADDAA112000791AY121061AY221061GA1081+004509069GF108991081061004501999999KA1120M+00421MD1610021+9999MW1101REMSYN088AAXX  04184 02584 11496 82707 10040 20033 40011 56002 69902 71022 886// 333 10042 88794;
0185025840999992000020421004+58400+019200FM-12+001299999V0202901N003112200019N0040001N1+00381+00341100151ADDAY121031AY221031GA1031+022509079GF103991031999022501071001MD1310041+9999MW1101REMSYN076AAXX  04214 02584 41896 32906 10038 20034 40015 53004 71022 83070 333 83398;EQDQ01+000002SCOLCG
0185025840999992000020500004+58400+019200FM-12+001299999V0202701N003110175019N0040001N1+00371+00311100251ADDAY121061AY221061GA1061+017509059GF106991061051017501999001MD1310101+9999MW1101REMSYN076AAXX  05004 02584 41796 62706 10037 20031 40025 53010 71022 86500 333 86697;EQDQ01+000002SCOMCG
0122025840999992000020503004+58400+019200FM-12+001299999V0203401N004112200019N0100001N1+00351+00141100541ADDGA1001+999999999GF100991001001999999001001MD1210291+9999REMSYN054AAXX  05034 02584 42997 03408 10035 20014 40054 52029;
0199025840999992000020506004+58400+019200FM-12+001299999V0203401N003119999999N0200001N1+00231-00201100891ADDAA199000091GA1051+999999079GF105991051001999999031001IA1149KA1120N+00231MD1210351+9999REMSYN082AAXX  05064 02584 32998 53406 10023 21020 40089 52035 85030 333 20023 34/// 85399;EQDQ01  00002PRCP99
0138025840999992000020509004+58400+019200FM-12+001299999V0200201N00211075001CN0200001N1+00231-00351101161ADDGA1051+999999019GF105991001001999999001021MD1210271+9999REMSYN070AAXX  05094 02584 42998 50204 10023 21035 40116 52027 80002 333 85099;
0138025840999992000020512004+58400+019200FM-12+001299999V0203401N00101075001CN0200001N1+00411-00511101381ADDGA1051+999999019GF105991001001999999001011MD1210221+9999REMSYN070AAXX  05124 02584 42998 53402 10041 21051 40138 52022 80001 333 85099;
0138025840999992000020515004+58400+019200FM-12+001299999V0201801N000510125019N0200001N1+00241-00441101321ADDGA1081+012509019GF108991081001012501011999MD1810061+9999REMSYN070AAXX  05154 02584 42698 81801 10024 21044 40132 58006 8801/ 333 88496;
0202025840999992000020518004+58400+019200FM-12+001299999V0201801N002610045019N0040001N1+00231-00021101201ADDAA112000191AY121061AY221061GA1081+004509069GF108991081071004501999999KA1120M+00421MD1810121+9999MW1611REMSYN088AAXX  05184 02584 11496 81805 10023 21002 40120 58012 69912 76122 887// 333 10042 88794;
0172025840999992000020521004+58400+019200FM-12+001299999V0201801N00311004201CN0040001N1+00321+00191101031ADDAY161031AY261031GA1021+004509079GF108991081071004501999999MD1710171+9999MW1101REMSYN082AAXX  05214 02584 41496 81806 10032 20019 40103 57017 71066 887// 333 82794 88695;
0166025840999992000020600004+58400+019200FM-12+001299999V0202301N002610045019N0040001N1+00461+00401100911ADDAY161061AY261061GA1081+004509069GF108991081061004501999999MD1710121+9999MW1101REMSYN076AAXX  06004 02584 41496 82305 10046 20040 40091 57012 71066 886// 333 88794;
0166025840999992000020603004+58400+019200FM-12+001299999V0202701N004110045019N0040001N1+00491+00451100731ADDAY121031AY221031GA1081+004509069GF108991081061004501999999MD1810181+9999MW1101REMSYN076AAXX  06034 02584 41496 82708 10049 20045 40073 58018 71022 886// 333 88794;
0214025840999992000020606004+58400+019200FM-12+001299999V0202301N004119999999N0040001N1+00441+00401100471ADDAA112000791AY121061AY221061GA1081+999999079GF108991081001999999071999IA1099KA1120N+00221MD1710261+9999MW1101REMSYN094AAXX  06064 02584 11996 82308 10044 20040 40047 57026 69902 71022 8807/ 333 20022 31/// 88399;
0172025840999992000020609004+58400+019200FM-12+001299999V0202501N00461002501CN0040001N1+00421+00361100381ADDAY121031AY221031GA1051+002509079GF108991081061002501999999MD1610091+9999MW1101REMSYN082AAXX  06094 02584 41396 82509 10042 20036 40038 56009 71022 886// 333 85793 88594;
0138025840999992000020612004+58400+019200FM-12+001299999V0202301N005110080019N0100001N1+00501+00351100321ADDGA1081+008009029GF108991081051008001999999MD1710061+9999REMSYN070AAXX  06124 02584 42597 82310 10050 20035 40032 57006 885// 333 88595;
0138025840999992000020615004+58400+019200FM-12+001299999V0202701N00571075001CN0100001N1+00521+00401100431ADDGA1051+999999019GF105991001001999999001011MD1310111+9999REMSYN070AAXX  06154 02584 42997 52711 10052 20040 40043 53011 80001 333 85099;
0175025840999992000020618004+58400+019200FM-12+001299999V0202501N004112200019N0100001N1+00461+00361100711ADDAA199000091GA1001+999999999GF100991001001999999001001KA1999M+00541MD1210281+9999REMSYN064AAXX  06184 02584 32997 02508 10046 20036 40071 52028 333 10054;EQDQ01  00002PRCP99
0122025840999992000020621004+58400+019200FM-12+001299999V0202501N004112200019N0100001N1+00451+00351100811ADDGA1001+999999999GF100991001001999999001001MD1110121+9999REMSYN054AAXX  06214 02584 42997 02508 10045 20035 40081 51012;
0150025840999992000020700004+58400+019200FM-12+001299999V0202301N003112200019N0040001N1+00341+00311100801ADDAY101061AY201061GA1001+999999999GF100991001001999999001001MD1810031+9999MW1101REMSYN060AAXX  07004 02584 41996 02306 10034 20031 40080 58003 71000;
0150025840999992000020703004+58400+019200FM-12+001299999V0202001N002112200019N0040001N1+00311+00281100581ADDAY101031AY201031GA1001+999999999GF100991001001999999001001MD1810221+9999MW1101REMSYN060AAXX  07034 02584 41996 02004 10031 20028 40058 58022 71000;
0172025840999992000020709004+58400+019200FM-12+001299999V0201801N00411000751CN0040001N1+00411+00381100011ADDAY121031AY221031GA1071+000759079GF108991071071000751021999MD1710201+9999MW1611REMSYN082AAXX  07094 02584 41196 81808 10041 20038 40001 57020 76122 8772/ 333 87791 88598;
0166025840999992000020712004+58400+019200FM-12+001299999V0202301N006210007519N0010001N1+00441+00401099681ADDAY161061AY221061GA1081+000759069GF108991081071000751999999MD1710331+9999MW1101REMSYN076AAXX  07124 02584 41194 82312 10044 20040 49968 57033 71062 887// 333 88791;
0172025840999992000020715004+58400+019200FM-12+001299999V0202301N00511030001CN0040001N1+00491+00431099341ADDAY161031AY221031GA1031+001509079GF108991031071001501011999MD1710341+9999MW1101REMSYN082AAXX  07154 02584 41296 82310 10049 20043 49934 57034 71062 8371/ 333 83792 88499;
0202025840999992000020718004+58400+019200FM-12+001299999V0202301N006712200019N0100001N1+00441+00211099281ADDAA112000591AY161061AY221061GA1031+012509059GF103991031051012501001001KA1120M+00521MD1610061+9999MW1021REMSYN088AAXX  07184 02584 11697 32313 10044 20021 49928 56006 69952 70262 83500 333 10052 83696;
0166025840999992000020721004+58400+019200FM-12+001299999V0202301N006210125019N0040001N1+00421+00091099251ADDAY121031AY221031GA1081+012509059GF108991081051012501999999MD1710031+9999MW1101REMSYN076AAXX  07214 02584 41696 82312 10042 20009 49925 57003 71022 885// 333 88696;
0138025840999992000020800004+58400+019200FM-12+001299999V0202301N005112200019N0100001N1+00381+00061099281ADDGA1021+012509059GF102991021051012501001001MD1310031+9999REMSYN070AAXX  08004 02584 42697 22310 10038 20006 49928 53003 82500 333 82696;
0138025840999992000020803004+58400+019200FM-12+001299999V0202301N005712200019N0100001N1+00261+00091099151ADDGA1011+999999079GF101991011001999999071001MD1810131+9999REMSYN070AAXX  08034 02584 42997 12311 10026 20009 49915 58013 81070 333 81399;
0227025840999992000020806004+58400+019200FM-12+001299999V0202301N004110080019N0040001N1+00381+00291098991ADDAA199000091AY121061AY221061GA1081+008009059GF108991081051008001999999IA1099KA1120N+00251MD1710161+9999MW1101REMSYN088AAXX  08064 02584 31596 82308 10038 20029 49899 57016 71022 885// 333 20025 31/// 88695;EQDQ01  00002PRCP99
0172025840999992000020809004+58400+019200FM-12+001299999V0202001N00211002501CN0040001N1+00301+00261098771ADDAY121031AY221031GA1061+002509079GF108991061071002501021999MD1710221+9999MW1611REMSYN082AAXX  08094 02584 41396 82004 10030 20026 49877 57022 76122 8672/ 333 86793 88599;
0113025840999992000020812004+58400+019200FM-12+001299999V0202301N001519999999N0010001N1+00341+00311098591ADDGF108991999999000751999999REMSYN075AAXX  08124 02584 41194 82303 10034 20031 49859 5718 71022 886// 333 88791;
0166025840999992000020815004+58400+019200FM-12+001299999V0202701N001010007519N0020001N1+00321+00291098551ADDAY121031AY221031GA1081+000759069GF108991081061000751999999MD1610041+9999MW1101REMSYN076AAXX  08154 02584 41195 82702 10032 20029 49855 56004 71022 886// 333 88791;
0190025840999992000020818004+58400+019200FM-12+001299999V0202701N001512200019N0040001N1+00221+00181098621ADDAA112000591AY121061AY221061GA1001+999999999GF100991001001999999001001KA1999M+00381MD1310071+9999MW1101REMSYN076AAXX  08184 02584 11996 02703 10022 20018 49862 53007 69942 71022 333 10038;
0166025840999992000020821004+58400+019200FM-12+001299999V0202501N001512200019N0040001N1+00191+00151098611ADDAY101031AY201031GA1011+002509069GF101991011061002501001001MD1810071+9999MW1101REMSYN076AAXX  08214 02584 41396 12503 10019 20015 49861 58007 71000 81600 333 81793;
0185025840999992000020900004+58400+019200FM-12+001299999V0202301N002110025019N0040001N1+00171+00131999999ADDAY121061AY201061GA1081+002509069GF108991081061002501999999MD1610031+9999MW1101REMSYN076AAXX  09004 02584 41396 82304 10017 20013 49958 56003 71020 886// 333 88793;EQDQ01+099583APOSLP
0166025840999992000020903004+58400+019200FM-12+001299999V0201801N001510015019N0040001N1+00181+00141098491ADDAY121031AY221031GA1081+001509069GF108991081061001501999999MD1710091+9999MW1101REMSYN076AAXX  09034 02584 41296 81803 10018 20014 49849 57009 71022 886// 333 88792;
0215025840999992000020906004+58400+019200FM-12+001299999V0201801N001010003019N0002001N1+00321+00291098531ADDAA199000091AY121061AY221061GA1091+999999999GF109991091999999999999999IA1099KA1120N+00051MD1310041+9999MW1451REMSYN076AAXX  09064 02584 31/92 91802 10032 20029 49853 53004 74522 333 20005 31///;EQDQ01  00002PRCP99
0172025840999992000020909004+58400+019200FM-12+001299999V0200501N00211001501CN0002001N1+00281+00241098721ADDAY141031AY241031GA1071+001509079GF108991071071001501021999MD1210191+9999MW1511REMSYN082AAXX  09094 02584 41292 80504 10028 20024 49872 52019 75144 8772/ 333 87792 88599;
0172025840999992000020912004+58400+019200FM-12+001299999V0200501N00101001501CN0040001N1+00301+00231099101ADDAY161061AY241061GA1061+001509079GF108991061071001501021999MD1310381+9999MW1601REMSYN082AAXX  09124 02584 41296 80502 10030 20023 49910 53038 76064 8672/ 333 86792 88599;
0172025840999992000020915004+58400+019200FM-12+001299999V0200201N00151001501CN0040001N1+00161+00081099531ADDAY161031AY261031GA1071+001509079GF108991071071001501021999MD1310431+9999MW1101REMSYN082AAXX  09154 02584 41296 80203 10016 20008 49953 53043 71066 8772/ 333 87792 88599;
0208025840999992000020918004+58400+019200FM-12+001299999V0203601N00211030001CN0040001N1+00181+00041100061ADDAA112002091AY161061AY261061GA1041+002509079GF108991041061002501071999KA1120M+00341MD1210531+9999MW1101REMSYN094AAXX  09184 02584 11396 83604 10018 20004 40006 52053 60022 71066 8467/ 333 10034 84793 88399;
0122025840999992000020921004+58400+019200FM-12+001299999V0203401N003112200019N0200001N1+00121-00151100491ADDGA1001+999999999GF100991001001999999001001MD1210431+9999REMSYN054AAXX  09214 02584 42998 03406 10012 21015 40049 52043;
0122025840999992000021000004+58400+019200FM-12+001299999V0203201N002112200019N0200001N1-00021-00241100781ADDGA1001+999999999GF100991001001999999001001MD1110291+9999REMSYN054AAXX  10004 02584 42998 03204 11002 21024 40078 51029;
0122025840999992000021003004+58400+019200FM-12+001299999V0202501N002112200019N0200001N1+00121-00021100961ADDGA1001+999999999GF100991001001999999001001MD1210191+9999REMSYN054AAXX  10034 02584 42998 02504 10012 21002 40096 52019;
0187025840999992000021006004+58400+019200FM-12+001299999V0202301N003112200019N0100001N1+00161+00091101041ADDAA199000091GA1001+999999999GF100991001001999999001001IA1149KA1120N-00021MD1110081+9999REMSYN070AAXX  10064 02584 32997 02306 10016 20009 40104 51008 333 21002 34///;EQDQ01  00002PRCP99
0138025840999992000021009004+58400+019200FM-12+001299999V0202501N004112200019N0200001N1+00251+00131100981ADDGA1041+999999019GF104991001001999999001021MD1810061+9999REMSYN070AAXX  10094 02584 42998 42508 10025 20013 40098 58006 80002 333 84099;
0138025840999992000021012004+58400+019200FM-12+001299999V0202301N00511075001CN0200001N1+00381-00011100811ADDGA1051+999999019GF105991001001999999001011MD1810171+9999REMSYN070AAXX  10124 02584 42998 52310 10038 21001 40081 58017 80001 333 85099;
0144025840999992000021015004+58400+019200FM-12+001299999V0202001N00361999999CN0100001N1+00291+00221100501ADDGA1061+025009039GF107991061001999999031011MD1710311+9999REMSYN076AAXX  10154 02584 42997 72007 10029 20022 40050 57031 86031 333 86399 84099;
0187025840999992000021018004+58400+019200FM-12+001299999V0202001N004610080019N0100001N1+00371+00241100271ADDAA199000091GA1071+008009059GF107991071051008001999999KA1120M+00381MD1810231+9999REMSYN076AAXX  10184 02584 32597 72009 10037 20024 40027 58023 875// 333 10038 87695;EQDQ01  00002PRCP99
0172025840999992000021021004+58400+019200FM-12+001299999V0202001N00771008001CN0100001N1+00461+00111099991ADDAY121031AY221031GA1071+008009069GF108991071051008001021999MD1810281+9999MW1611REMSYN082AAXX  10214 02584 41597 82015 10046 20011 49999 58028 76122 8752/ 333 87695 88596;
0172025840999992000021100004+58400+019200FM-12+001299999V0202301N00621002501CN0040001N1+00371+00281099891ADDAY161061AY221061GA1061+002509079GF108991061071002501021999MD1610101+9999MW1621REMSYN082AAXX  11004 02584 41396 82312 10037 20028 49989 56010 76262 8672/ 333 86793 88596;
0150025840999992000021103004+58400+019200FM-12+001299999V0202301N005712200019N0100001N1+00361+00241099951ADDAY161031AY261031GA1001+999999999GF100991001001999999001001MD1310061+9999MW1011REMSYN060AAXX  11034 02584 41997 02311 10036 20024 49995 53006 70166;
0202025840999992000021106004+58400+019200FM-12+001299999V0202501N004112200019N0200001N1+00361+00101100201ADDAA112000591AY161061AY261061GA1001+999999999GF100991001001999999001001IA1099KA1120N+00351MD1210251+9999MW1011REMSYN082AAXX  11064 02584 11998 02508 10036 20010 40020 52025 69942 70166 333 20035 31///;
0122025840999992000021109004+58400+019200FM-12+001299999V0202301N004612200019N0200001N1+00401-00021100511ADDGA1001+999999999GF100991001001999999001001MD1210311+9999REMSYN054AAXX  11094 02584 42998 02309 10040 21002 40051 52031;
0122025840999992000021112004+58400+019200FM-12+001299999V0202501N004612200019N0200001N1+00491+00031100711ADDGA1001+999999999GF100991001001999999001001MD1110201+9999REMSYN054AAXX  11124 02584 42998 02509 10049 20003 40071 51020;
0138025840999992000021115004+58400+019200FM-12+001299999V0202501N005112200019N0200001N1+00441+00121100801ADDGA1011+002509069GF101991011061002501001001MD1310091+9999REMSYN070AAXX  11154 02584 42398 12510 10044 20012 40080 53009 81600 333 81793;
0175025840999992000021118004+58400+019200FM-12+001299999V0202701N005712200019N0100001N1+00441+00191100921ADDAA199000091GA1001+999999999GF100991001001999999001001KA1999M+00501MD1210121+9999REMSYN064AAXX  11184 02584 32997 02711 10044 20019 40092 52012 333 10050;EQDQ01  00002PRCP99
0122025840999992000021121004+58400+019200FM-12+001299999V0202501N005712200019N0200001N1+00421+00221101161ADDGA1001+999999999GF100991001001999999001001MD1310241+9999REMSYN054AAXX  11214 02584 42998 02511 10042 20022 40116 53024;
0122025840999992000021200004+58400+019200FM-12+001299999V0202701N004112200019N0200001N1+00401+00221101371ADDGA1001+999999999GF100991001001999999001001MD1210211+9999REMSYN054AAXX  12004 02584 42998 02708 10040 20022 40137 52021;
0122025840999992000021203004+58400+019200FM-12+001299999V0202501N003112200019N0200001N1+00371+00221101431ADDGA1001+999999999GF100991001001999999001001MD1110061+9999REMSYN054AAXX  12034 02584 42998 02506 10037 20022 40143 51006;
0187025840999992000021206004+58400+019200FM-12+001299999V0202501N004612200019N0100001N1+00371+00251101431ADDAA199000091GA1001+999999999GF100991001001999999001001IA1099KA1120N+00351MD1410001+9999REMSYN070AAXX  12064 02584 32997 02509 10037 20025 40143 54000 333 20035 31///;EQDQ01  00002PRCP99
0138025840999992000021209004+58400+019200FM-12+001299999V0202301N004112200019N0200001N1+00441+00181101431ADDGA1011+999999019GF101991001001999999001011MD1410001+9999REMSYN070AAXX  12094 02584 42998 12308 10044 20018 40143 54000 80001 333 81099;
0138025840999992000021212004+58400+019200FM-12+001299999V0202301N004110080019N0200001N1+00421+00241101291ADDGA1051+008009059GF107991051051008001001001MD1810141+9999REMSYN070AAXX  12124 02584 42598 72308 10042 20024 40129 58014 85500 333 85695;
0138025840999992000021215004+58400+019200FM-12+001299999V0202301N004612200019N0200001N1+00361+00241101141ADDGA1011+999999019GF101991001001999999001011MD1710151+9999REMSYN070AAXX  12154 02584 42998 12309 10036 20024 40114 57015 80001 333 81099;
0203025840999992000021218004+58400+019200FM-12+001299999V0201801N003610175019N0200001N1+00301+00201100911ADDAA199000091GA1051+017509059GF105991051051017501999001KA1120M+00461MD1810231+9999REMSYN076AAXX  12184 02584 32798 51807 10030 20020 40091 58023 85500 333 10046 85697;EQDQ01+000002SCOMCGQ02  00002PRCP99
0138025840999992000021221004+58400+019200FM-12+001299999V0201801N004612200019N0200001N1+00321+00111100621ADDGA1041+999999019GF104991001001999999001011MD1810291+9999REMSYN070AAXX  12214 02584 42998 41809 10032 20011 40062 58029 80001 333 84099;
0138025840999992000021300004+58400+019200FM-12+001299999V0202301N003610080019N0200001N1+00341+00021100251ADDGA1081+008009059GF108991081051008001999999MD1710371+9999REMSYN070AAXX  13004 02584 42598 82307 10034 20002 40025 57037 885// 333 88695;
0172025840999992000021303004+58400+019200FM-12+001299999V0202001N00461002501CN0100001N1+00261+00191099971ADDAY121031AY221031GA1061+002509079GF108991061071002501021999MD1610281+9999MW1611REMSYN082AAXX  13034 02584 41397 82009 10026 20019 49997 56028 76122 8672/ 333 86793 88599;
0220025840999992000021306004+58400+019200FM-12+001299999V0202501N00411030001CN0100001N1+00261+00191099861ADDAA112000191AY161061AY221061GA1031+002509079GF108991031071002501021999IA1099KA1120N+00261MD1610111+9999MW1211REMSYN100AAXX  13064 02584 11397 82508 10026 20019 49986 56011 69922 72162 8372/ 333 20026 31/// 83793 88599;
0138025840999992000021309004+58400+019200FM-12+001299999V0202501N004112200019N0200001N1+00281+00001099901ADDGA1031+004509059GF103991031051004501001001MD1310041+9999REMSYN070AAXX  13094 02584 42498 32508 10028 20000 49990 53004 83500 333 83694;
0138025840999992000021312004+58400+019200FM-12+001299999V0202301N005112200019N0200001N1+00351-00061099891ADDGA1021+999999019GF102991001001999999001011MD1810011+9999REMSYN070AAXX  13124 02584 42998 22310 10035 21006 49989 58001 80001 333 82099;
0157025840999992000021315004+58400+019200FM-12+001299999V0202301N005112200019N0200001N1+00271+00011099901ADDGA1011+999999019GF101991001001999999001011MD1410001+9999REMSYN070AAXX  13154 02584 42498 12310 10027 20001 49990 54001 80001 333 81099;EQDQ01+004502SCOLCB
0168025840999992000021318004+58400+019200FM-12+001299999V0202301N004612200019N0200001N1+00271+00121099851ADDAA199000021GA1011+999999019GF101991001001999999001011KA1120M+00381MD1810051+9999REMSYN076AAXX  13184 02584 32998 12309 10027 20012 49985 58005 80001 333 10038 81099;
0138025840999992000021321004+58400+019200FM-12+001299999V0202301N004610080019N0200001N1+00301+00131099771ADDGA1081+008009059GF108991081051008001999999MD1710091+9999REMSYN070AAXX  13214 02584 42598 82309 10030 20013 49977 57009 885// 333 88695;
0166025840999992000021400004+58400+019200FM-12+001299999V0202501N003110120019N0040001N1+00181+00111099761ADDAY121061AY221061GA1031+012509099GF105991051031012501001011MD1510011+9999MW1251REMSYN076AAXX  14004 02584 41696 52506 10018 20011 49976 55001 72522 85301 333 83996;
0144025840999992000021403004+58400+019200FM-12+001299999V0202901N00261004201CN0100001N1+00141-00031099871ADDGA1021+004509099GF108991081031004501999999MD1210111+9999REMSYN076AAXX  14034 02584 42497 82905 10014 21003 49987 52011 883// 333 82994 86694;
0174025840999992000021406004+58400+019200FM-12+001299999V0203201N003112200019N0100001N1+00081-00031100021ADDAA112001091GA1001+999999999GF100991001001999999001001IA1099KA1120N+00081MD1210151+9999REMSYN076AAXX  14064 02584 12997 03206 10008 21003 40002 52015 69992 333 20008 31///;
0174025840999992000021409004+58400+019200FM-12+001299999V0203201N003112200019N0100001N1+00081-00031100021ADDAA112001091GA1001+999999999GF100991001001999999001001IA1099KA1120N+00081MD1210151+9999REMSYN076AAXX  14094 02584 12997 03206 10008 21003 40002 52015 69992 333 20008 31///;
0138025840999992000021412004+58400+019200FM-12+001299999V0203201N003112200019N0200001N1+00251-00251100441ADDGA1011+004509029GF101991011011004501001001MD1210211+9999REMSYN070AAXX  14124 02584 42498 13206 10025 21025 40044 52021 81100 333 81894;
0138025840999992000021415004+58400+019200FM-12+001299999V0203401N004112200019N0200001N1+00251-00101100691ADDGA1011+999999019GF101991001001999999001011MD1210251+9999REMSYN070AAXX  14154 02584 42998 13408 10025 21010 40069 52025 80001 333 81099;
0175025840999992000021418004+58400+019200FM-12+001299999V0203201N002612200019N0200001N1+00201-00151100871ADDAA199000091GA1001+999999999GF100991001001999999001001KA1999M+00281MD1110181+9999REMSYN064AAXX  14184 02584 32998 03205 10020 21015 40087 51018 333 10028;EQDQ01  00002PRCP99
0122025840999992000021421004+58400+019200FM-12+001299999V0202901N002112200019N0200001N1+00121-00181100921ADDGA1001+999999999GF100991001001999999001001MD1110051+9999REMSYN054AAXX  14214 02584 42998 02904 10012 21018 40092 51005;
0138025840999992000021500004+58400+019200FM-12+001299999V0202701N002112200019N0200001N1+00101-00271100871ADDGA1011+999999019GF101991001001999999001011MD1810051+9999REMSYN070AAXX  15004 02584 42998 12704 10010 21027 40087 58005 80001 333 81099;
0144025840999992000021503004+58400+019200FM-12+001299999V0202301N00361004501CN0200001N1+00181-00141100641ADDGA1061+004509079GF108991061061004501001071MD1810231+9999REMSYN076AAXX  15034 02584 42498 82307 10018 21014 40064 58023 86607 333 86794 88299;
0205025840999992000021506004+58400+019200FM-12+001299999V0202301N00311030001CN0200001N1+00121-00201100491ADDAA199000091GA1011+004509079GF108991011061004501071999IA1149KA1120N-00021MD1610151+9999REMSYN088AAXX  15064 02584 32498 82306 10012 21020 40049 56015 8167/ 333 21002 34/// 81794 88499;EQDQ01  00002PRCP99
0172025840999992000021509004+58400+019200FM-12+001299999V0202501N00361030001CN0100001N1+00181-00031100391ADDAY121031AY221031GA1031+004509079GF108991031071004501021999MD1610101+9999MW1701REMSYN082AAXX  15094 02584 41497 82507 10018 21003 40039 56010 77022 8372/ 333 83794 88597;
0172025840999992000021512004+58400+019200FM-12+001299999V0202001N00261001501CN0100001N1+00171+00131100161ADDAY171061AY221061GA1061+001509079GF108991061071001501021999MD1810231+9999MW1701REMSYN082AAXX  15124 02584 41297 82005 10017 20013 40016 58023 77072 8672/ 333 86792 88597;
0172025840999992000021515004+58400+019200FM-12+001299999V0202301N00311001501CN0100001N1+00201+00131099971ADDAY171031AY271031GA1061+001509079GF108991061071001501021999MD1810191+9999MW1221REMSYN082AAXX  15154 02584 41297 82306 10020 20013 49997 58019 72277 8672/ 333 86792 88597;
0202025840999992000021518004+58400+019200FM-12+001299999V0202301N002610015019N0100001N1+00221+00161099771ADDAA112000891AY171061AY271061GA1081+001509069GF108991081071001501999999KA1120M+00241MD1710201+9999MW1021REMSYN088AAXX  15184 02584 11297 82305 10022 20016 49977 57020 69972 70277 887// 333 10024 88792;
0166025840999992000021600004+58400+019200FM-12+001299999V0202701N003110080019N0040001N1+00261+00171099621ADDAY121061AY221061GA1061+008009059GF106991061051008001001001MD1710041+9999MW1101REMSYN076AAXX  16004 02584 41596 62706 10026 20017 49962 57004 71022 86500 333 86695;
0138025840999992000021603004+58400+019200FM-12+001299999V0202901N002610025019N0100001N1+00211+00081099611ADDGA1081+002509069GF108991081061002501999999MD1710011+9999REMSYN070AAXX  16034 02584 42397 82905 10021 20008 49961 57001 886// 333 88793;
0199025840999992000021606004+58400+019200FM-12+001299999V0202701N002110045019N0200001N1+00211+00071099551ADDAA199000091GA1081+004509069GF108991081061004501999999IA1099KA1120N+00181MD1810071+9999REMSYN082AAXX  16064 02584 32498 82704 10021 20007 49955 58007 886// 333 20018 31/// 88794;EQDQ01  00002PRCP99
0138025840999992000021609004+58400+019200FM-12+001299999V0202701N002110045019N0200001N1+00231+00021099611ADDGA1081+004509069GF108991081061004501999999MD1310061+9999REMSYN070AAXX  16094 02584 42498 82704 10023 20002 49961 53006 886// 333 88794;
0138025840999992000021612004+58400+019200FM-12+001299999V0202701N001510045019N0200001N1+00321-00051099591ADDGA1071+004509059GF107991071051004501001001MD1810021+9999REMSYN070AAXX  16124 02584 42498 72703 10032 21005 49959 58002 87500 333 87694;
0144025840999992000021615004+58400+019200FM-12+001299999V0202501N00051220001CN0200001N1+00221-00081099581ADDGA1031+008009069GF106991031051008001001011MD1710011+9999REMSYN076AAXX  16154 02584 42598 62501 10022 21008 49958 57001 83501 333 83695 84099;
0187025840999992000021618004+58400+019200FM-12+001299999V0200501N000510125019N0100001N1+00101+00001099601ADDAA199000091GA1071+012509059GF107991071051012501999999KA1120M+00321MD1210021+9999REMSYN076AAXX  16184 02584 32697 70501 10010 20000 49960 52002 875// 333 10032 87696;EQDQ01  00002PRCP99
0179025840999992000021621004+58400+019200FM-12+001299999V0200501N001010045019N0100001N1+00181+00051099571ADDAY121031AY221031GA1071+004509069GF107991071071004501999999MD1710031+9999REMSYN076AAXX  16214 02584 41497 70502 10018 20005 49957 57003 77822 877// 333 87794;EQDQ01+000782PRSWM1
0166025840999992000021700004+58400+019200FM-12+001299999V0200701N002110025019N0100001N1+00161+00081099501ADDAY171061AY261061GA1071+002509069GF107991071061002501999999MD1710071+9999MW1021REMSYN076AAXX  17004 02584 41397 70704 10016 20008 49950 57007 70276 876// 333 87793;
0166025840999992000021703004+58400+019200FM-12+001299999V0200701N002610015019N0010001N1+00131+00091099431ADDAY191031AY221031GA1081+001509069GF108991081071001501999999MD1710071+9999MW1691REMSYN076AAXX  17034 02584 41294 80705 10013 20009 49943 57007 76992 887// 333 88792;
0220025840999992000021706004+58400+019200FM-12+001299999V0200201N00361001501CN0040001N1+00131+00091099431ADDAA112002091AY121061AY221061GA1061+001509079GF108991061071001501021999IA1099KA1120N+00101MD1410001+9999MW1681REMSYN100AAXX  17064 02584 11296 80207 10013 20009 49943 54000 60022 76822 8672/ 333 20010 31/// 86792 88599;
0172025840999992000021709004+58400+019200FM-12+001299999V0200201N00311001501CN0040001N1+00121+00061099551ADDAY171031AY221031GA1061+001509079GF108991061071002501021999MD1210121+9999MW1681REMSYN082AAXX  17094 02584 41396 80206 10012 20006 49955 52012 76872 8672/ 333 86792 88599;
0172025840999992000021712004+58400+019200FM-12+001299999V0203601N00311004501CN0100001N1+00151+00021099741ADDAY171061AY221061GA1061+004509079GF108991061071004501021999MD1210191+9999MW1231REMSYN082AAXX  17124 02584 41497 83606 10015 20002 49974 52019 72372 8672/ 333 86794 88599;
0138025840999992000021715004+58400+019200FM-12+001299999V0203601N002612200019N0200001N1+00101-00251100061ADDGA1021+012509059GF102991021051012501001001MD1210321+9999REMSYN070AAXX  17154 02584 42698 23605 10010 21025 40006 52032 82500 333 82696;
0174025840999992000021718004+58400+019200FM-12+001299999V0203601N001512200019N0200001N1+00041-00201100311ADDAA112000891GA1031+008009029GF103991031021008001001001KA1120M+00151MD1210251+9999REMSYN082AAXX  17184 02584 12598 33603 10004 21020 40031 52025 69982 83200 333 10015 83895;
0138025840999992000021721004+58400+019200FM-12+001299999V0203401N001010080019N0200001N1+00021-00221100471ADDGA1061+008009029GF106991061021008001001001MD1110161+9999REMSYN070AAXX  17214 02584 42598 63402 10002 21022 40047 51016 86200 333 86895;
0138025840999992000021800004+58400+019200FM-12+001299999V0202701N001012200019N0200001N1-00081-00151100531ADDGA1041+004509029GF104991041021004501001001MD1110061+9999REMSYN070AAXX  18004 02584 42498 42702 11008 21015 40053 51006 84200 333 84894;
0166025840999992000021803004+58400+019200FM-12+001299999V0202701N002110025019N0040001N1-00101-00241100551ADDAY111031AY211031GA1081+002509069GF108991081061002501999999MD1110021+9999MW1101REMSYN076AAXX  18034 02584 41396 82704 11010 21024 40055 51002 71011 886// 333 88793;
0227025840999992000021806004+58400+019200FM-12+001299999V0202501N002610025019N0040001N1-00201-00281100591ADDAA199000091AY121061AY211061GA1081+002509069GF108991081061002501999999IA1149KA1120N-00251MD1310041+9999MW1101REMSYN088AAXX  18064 02584 31396 82505 11020 21028 40059 53004 71021 886// 333 21025 34/// 88793;EQDQ01  00002PRCP99
0138025840999992000021809004+58400+019200FM-12+001299999V0202701N002110045019N0100001N1-00081-00351100641ADDGA1051+004509069GF105991051061004501001001MD1210051+9999REMSYN070AAXX  18094 02584 42497 52704 11008 21035 40064 52005 85600 333 85794;
0138025840999992000021812004+58400+019200FM-12+001299999V0202701N002610045019N0100001N1-00081-00331100711ADDGA1051+004509069GF105991051061004501001001MD1210071+9999REMSYN070AAXX  18124 02584 42497 52705 11008 21033 40071 52007 85600 333 85794;
0138025840999992000021815004+58400+019200FM-12+001299999V0202501N002110045019N0200001N1-00101-00321100731ADDGA1081+004509069GF108991081061004501999999MD1110021+9999REMSYN070AAXX  18154 02584 42498 82504 11010 21032 40073 51002 886// 333 88794;
