0186030090999992000010115004+59370-002420FM-12+001199999V0202301N01441005401CN0048001N1+00691+00591100631ADDAY161031AY221031GA1061+005409069GA2031+999999079GF108991081051001501999999MW1601REMSYN094AAXX  01154 03009 41248 82328 10069 20059 40063 59003 76062 885// 333 8370/ 86618 90710 91139;
0260030090999992000010606004+59370-002420FM-12+001199999V0202301N01231009601CN0200001N1+00661+00461097821ADDAA112004191AY181061AY261061GA1071+009609069GA2031+999999019GF107991071081004501999999IA1119IA2999+00409KA1120N+00591MD1510091+9999MW1251REMSYN112AAXX  06064 03009 /1470 72324 10066 20046 49782 55009 60042 72586 878// 333 20059 32004 8313/ 87632 90710 91136;
0144030090999992000020615004+59370-002420FM-12+001199999V0201901N00771030001CN0180001N1+00651+00421099501ADDGA1011+003309079GF107991021081004501071999MD1810451+9999REMSYN076AAXX  06154 03009 42468 71915 10065 20042 49950 58045 8287/ 333 81711 86357;
0168030090999992000021700004+59370-002420FM-12+001199999V0203201N003612200019N0350001N1+00201-00441099581ADDAA199000091GA1011+004509029GF101991011999004501001001MD1210211+9999REMSYN070AAXX  17004 03009 32481 13207 10020 21044 49958 52021 81/00 333 81815;EQDQ01  00002PRCP99
0236030090999992000031318004+59370-002420FM-12+001199999V0202801N01131004201CN0090001N1+00441+00021100911ADDAA112001091AY181061AY221061GA1011+004209099GA2031+007509069GF106991061091004501999999KA1120M+00721MD1810111+9999MW1251REMSYN106AAXX  13184 03009 11459 62822 10044 20002 40091 58011 60012 72582 869// 333 10072 81914 83625 90710 91140;
0068030090999992000043009004+99999+999999FM-15+999999999V02099999999992200019N9999999N1+99999+99999999999ADDMW1001REMMET050300900Z SAVT 300900TUC 27003KT CAVOK 00/M00 Q1013;
0077030090999992000053009004+99999+999999FM-15+999999999V02099999999992200019N0112651N1+99999+99999999999ADDMW1001REMMET059300900Z SAVT 30900Z 05018KT 9999 SCT010 BKN045 08/08 Q1023;
0073030090999992000063009004+99999+999999FM-15+999999999V02099999999992200019N0500001N1+99999+99999999999ADDMW1001REMMET055300900Z SARL 303900Z 00000KT 0300 FG CAVOK 06/06 Q1013;
0077030090999992000103009004+99999+999999FM-15+999999999V02099999999992200019N0112651N1+99999+99999999999ADDMW1001REMMET059300900Z TBPB 309000Z 08012KT 9999 SCT018 SCT280 27/25 Q101;
