0134030210999992000010412004+57150-007320FM-12+000699999V0202601N007212200019N0400001N1+00411+00081999999ADDAY191061AY281061GA1031+004509099GF103991999999004501999999MW1151REMSYN058AAXX  04124 03021 41482 32614 10041 20008 71598 333 83915;
0140030210999992000010415004+57150-007320FM-12+000699999V0202501N017512200019N0350001N1+00411-00111999999ADDAY181031AY211031GA1011+003609079GF104991999999004501999999MW1271REMSYN064AAXX  04154 03021 41481 42534 10041 21011 72781 333 81712 84915;
0134030210999992000010418004+57150-007320FM-12+000699999V0202501N014912200019N0500001N1+00511-00021999999ADDAY181061AY211061GA1011+004809099GF101991999999004501999999MW1021REMSYN058AAXX  04184 03021 41484 12529 10051 21002 70281 333 81916;
0134030210999992000010421004+57150-007320FM-12+000699999V0202501N014412200019N0300001N1+00501+00061999999ADDAY181031AY211031GA1021+004509099GF102991999999004501999999MW1151REMSYN058AAXX  04214 03021 41480 22528 10050 20006 71581 333 82915;
0162030210999992000010509004+57150-007320FM-12+000699999V0202001N014910048019N0120001N1+00911+00791999999ADDAY161031AY261031GA1011+003609079GA2061+004809069GF108991999999004501999999MW1611REMSYN070AAXX  05094 03021 41462 82029 10091 20079 76166 333 81712 86616 88635;
0134030210999992000010609004+57150-007320FM-12+000699999V0202901N006212200019N0450001N1+00511+00161999999ADDAY181031AY211031GA1021+004209029GF102991999999004501999999MW1021REMSYN058AAXX  06094 03021 41483 22912 10051 20016 70281 333 82814;
0140030210999992000010612004+57150-007320FM-12+000699999V0202601N004119999999N0400001N1+00591+00051999999ADDAY181061AY211061GA1021+007809069GF107991999999008001999999MW1031REMSYN064AAXX  06124 03021 41582 72608 10059 20005 70381 333 82626 87275;
0112030210999992000010615004+57150-007320FM-12+000699999V0202101N008719999999N0400001N1+00621+00121999999ADDGA1031+008109069GF107991999999008001999999REMSYN058AAXX  06154 03021 42582 72117 10062 20012 333 83627 87273;
0162030210999992000010621004+57150-007320FM-12+000699999V0201901N018010060019N0060001N1+00561+00401999999ADDAY161031AY221031GA1021+003309079GA2051+006009069GF108991999999004501999999MW1631REMSYN070AAXX  06214 03021 41456 81935 10056 20040 76362 333 82711 85620 88635;
0162030210999992000010709004+57150-007320FM-12+000699999V0202101N020010048019N0060001N1+01071+00911999999ADDAY161031AY251031GA1021+003609079GA2051+004809069GF108991999999004501999999MW1511REMSYN070AAXX  07094 03021 41456 82139 10107 20091 75165 333 82712 85616 88630;
0162030210999992000010712004+57150-007320FM-12+000699999V0202401N010310042019N0080001N1+00831+00771999999ADDAY161061AY251061GA1021+003009079GA2061+004209069GF108991999999004501999999MW1601REMSYN070AAXX  07124 03021 41458 82420 10083 20077 76065 333 82710 86614 88645;
0162030210999992000010715004+57150-007320FM-12+000699999V0202501N013910048019N0300001N1+00711+00581999999ADDAY181031AY261031GA1021+003309079GA2031+004809089GF107991999999004501999999MW1251REMSYN070AAXX  07154 03021 41480 72527 10071 20058 72586 333 82711 83816 87645;
0162030210999992000010718004+57150-007320FM-12+000699999V0202401N019019999999N0250001N1+00551+00091999999ADDAY181061AY261061GA1011+003609079GA2021+004509099GF107991999999004501999999MW1251REMSYN070AAXX  07184 03021 41475 72437 10055 20009 72586 333 81712 82915 86650;
0134030210999992000010721004+57150-007320FM-12+000699999V0202401N021112200019N0350001N1+00571+00111999999ADDAY181031AY211031GA1011+004809099GF101991999999004501999999MW1131REMSYN058AAXX  07214 03021 41481 12441 10057 20011 71381 333 81916;
0140030210999992000010809004+57150-007320FM-12+000699999V0202601N015419999999N0080001N1+00581+00181999999ADDAY181031AY211031GA1011+003609079GF107991999999004501999999MW1811REMSYN064AAXX  08094 03021 41458 72630 10058 20018 78181 333 81712 86915;
0134030210999992000010812004+57150-007320FM-12+000699999V0202501N014912200019N0250001N1+00581+00241999999ADDAY181061AY211061GA1011+004809099GF102991999999004501999999MW1021REMSYN058AAXX  08124 03021 41475 22529 10058 20024 70281 333 81916;
0162030210999992000010815004+57150-007320FM-12+000699999V0202501N008719999999N0300001N1+00421+00311999999ADDAY181031AY211031GA1021+003309079GA2021+004209099GF106991999999004501999999MW1271REMSYN070AAXX  08154 03021 41480 62517 10042 20031 72781 333 82711 82914 85817;
0134030210999992000010818004+57150-007320FM-12+000699999V0202601N009312200019N0400001N1+00431+00101999999ADDAY181061AY211061GA1021+004509099GF102991999999004501999999MW1271REMSYN058AAXX  08184 03021 41482 22618 10043 20010 72781 333 82915;
0134030210999992000010821004+57150-007320FM-12+000699999V0202901N013912200019N0400001N1+00501+00001999999ADDAY181031AY211031GA1011+005109029GF101991999999004501999999MW1021REMSYN058AAXX  08214 03021 41482 12927 10050 20000 70281 333 81817;
0106030210999992000010909004+57150-007320FM-12+000699999V0202901N004612200019N0550001N1+00501+00121999999ADDGA1011+005709029GF101991999999004501999999REMSYN052AAXX  09094 03021 42485 12909 10050 20012 333 81819;
0106030210999992000010912004+57150-007320FM-12+000699999V0202601N005712200019N0600001N1+00601+00151999999ADDGA1011+005409099GF101991999999004501999999REMSYN052AAXX  09124 03021 42486 12611 10060 20015 333 81918;
0140030210999992000010915004+57150-007320FM-12+000699999V0202301N001019999999N0350001N1+00511+00241999999ADDAY181031AY211031GA1031+005709089GF107991999999004501999999MW1251REMSYN064AAXX  09154 03021 41481 72302 10051 20024 72581 333 83819 85075;
0140030210999992000010918004+57150-007320FM-12+000699999V0202001N008719999999N0450001N1+00571+00201999999ADDAY181061AY211061GA1011+006009089GF107991999999008001999999MW1021REMSYN064AAXX  09184 03021 41583 72017 10057 20020 70281 333 81820 87075;
0140030210999992000011009004+57150-007320FM-12+000699999V0202501N008719999999N0200001N1+00771+00661999999ADDAY161031AY221031GA1021+005409069GF107991999999004501999999MW1011REMSYN064AAXX  10094 03021 41470 72517 10077 20066 70162 333 82618 86635;
0140030210999992000011015004+57150-007320FM-12+000699999V0202401N011819999999N0300001N1+00791+00501999999ADDAY181031AY221031GA1031+005409089GF107991999999004501999999MW1251REMSYN064AAXX  10154 03021 41480 72423 10079 20050 72582 333 83818 87640;
0140030210999992000011018004+57150-007320FM-12+000699999V0202401N011819999999N0300001N1+00791+00501999999ADDAY181061AY221061GA1031+005409089GF107991999999004501999999MW1251REMSYN064AAXX  10184 03021 41480 72423 10079 20050 72582 333 83818 87640;
0134030210999992000011021004+57150-007320FM-12+000699999V0202501N009812200019N0400001N1+00711+00381999999ADDAY181031AY211031GA1011+005409029GF101991999999004501999999MW1021REMSYN058AAXX  10214 03021 41482 12519 10071 20038 70281 333 81818;
0140030210999992000011109004+57150-007320FM-12+000699999V0202401N008219999999N0250001N1+00661+00521999999ADDAY181031AY221031GA1021+004809099GF108991999999004501999999MW1251REMSYN064AAXX  11094 03021 41475 82416 10066 20052 72582 333 82916 88365;
0162030210999992000011112004+57150-007320FM-12+000699999V0202301N007719999999N0180001N1+00751+00621999999ADDAY181061AY261061GA1011+003609079GA2031+005109069GF108991999999004501999999MW1601REMSYN070AAXX  11124 03021 41468 82315 10075 20062 76086 333 81712 83617 88640;
0140030210999992000011115004+57150-007320FM-12+000699999V0202601N002119999999N0300001N1+00581+00441999999ADDAY161031AY221031GA1021+005409069GF108991999999004501999999MW1211REMSYN064AAXX  11154 03021 41480 82604 10058 20044 72162 333 82618 88650;
0140030210999992000011118004+57150-007320FM-12+000699999V0202501N004119999999N0250001N1+00661+00501999999ADDAY161061AY221061GA1031+005109069GF108991999999004501999999MW1211REMSYN064AAXX  11184 03021 41475 82508 10066 20050 72162 333 83617 88656;
0140030210999992000011121004+57150-007320FM-12+000699999V0202701N006219999999N0300001N1+00661+00411999999ADDAY181031AY221031GA1021+004809089GF108991999999004501999999MW1251REMSYN064AAXX  11214 03021 41480 82712 10066 20041 72582 333 82816 88656;
0134030210999992000011209004+57150-007320FM-12+000699999V0202401N006212200019N0450001N1+00301+00121999999ADDAY181031AY211031GA1011+004509099GF102991999999004501999999MW1251REMSYN058AAXX  12094 03021 41483 22412 10030 20012 72581 333 81915;
0134030210999992000011215004+57150-007320FM-12+000699999V0202301N006212200019N0500001N1+00421+00111999999ADDAY111031AY211031GA1011+004809099GF101991999999004501999999MW1151REMSYN058AAXX  12154 03021 41484 12312 10042 20011 71511 333 81916;
0134030210999992000011218004+57150-007320FM-12+000699999V0202101N004112200019N0550001N1+00311+00131999999ADDAY181061AY211061GA1011+004809099GF101991999999004501999999MW1021REMSYN058AAXX  12184 03021 41485 12108 10031 20013 70281 333 81916;
0140030210999992000011221004+57150-007320FM-12+000699999V0203401N001019999999N0050001N1+00251+00181999999ADDAY181031AY211031GA1021+003309079GF107991999999004501999999MW1841REMSYN064AAXX  12214 03021 41450 73402 10025 20018 78481 333 82711 87915;
0140030210999992000011309004+57150-007320FM-12+000699999V0203501N010819999999N0200001N1+00471+00251999999ADDAY181031AY211031GA1031+004809099GF106991999999004501999999MW1261REMSYN064AAXX  13094 03021 41470 63521 10047 20025 72681 333 83916 85635;
0134030210999992000011312004+57150-007320FM-12+000699999V0203501N013912200019N0250001N1+00531+00151999999ADDAY181061AY211061GA1021+005409029GF102991999999004501999999MW1251REMSYN058AAXX  13124 03021 41475 23527 10053 20015 72581 333 82818;
0134030210999992000011315004+57150-007320FM-12+000699999V0200101N013412200019N0300001N1+00571+00031999999ADDAY181031AY211031GA1031+005409029GF103991999999004501999999MW1251REMSYN058AAXX  13154 03021 41480 30126 10057 20003 72581 333 83818;
0134030210999992000011318004+57150-007320FM-12+000699999V0203601N011812200019N0500001N1+00401-00091999999ADDAY181061AY211061GA1011+005409029GF101991999999004501999999MW1011REMSYN058AAXX  13184 03021 41484 13623 10040 21009 70181 333 81818;
0110030210999992000011321004+57150-007320FM-12+000699999V0203601N009312200019N0550001N1+00311-00171999999ADDGA1011+005709029GF101991999999004501999999REMSYN056    AAXX  13214 03021 42485 13618 10031 21017 333 81819;
0110030210999992000011409004+57150-007320FM-12+000699999V0200201N007212200019N0600001N1+00321-00361999999ADDGA1011+006609029GF101991999999008001999999REMSYN056    AAXX  14094 03021 42586 10214 10032 21036 333 81822;
0116030210999992000011412004+57150-007320FM-12+000699999V0200101N002119999999N0600001N1+00491-00071999999ADDGA1011+006909089GF107991999999008001999999REMSYN062    AAXX  14124 03021 42586 70104 10049 21007 333 81823 87635;
0116030210999992000011415004+57150-007320FM-12+000699999V0209999C000019999999N0650001N1+00491+00081999999ADDGA1011+006909089GF106991999999008001999999REMSYN062    AAXX  14154 03021 42587 60000 10049 20008 333 81823 86635;
0144030210999992000011418004+57150-007320FM-12+000699999V0209999C000019999999N0450001N1+00231+00071999999ADDAY181061AY221061GA1011+005709089GF107991999999004501999999MW1011REMSYN068    AAXX  14184 03021 41483 70000 10023 20007 70182 333 81819 87359;
0116030210999992000011421004+57150-007320FM-12+000699999V0203601N001519999999N0400001N1+00241+00011999999ADDGA1011+005709089GF107991999999004501999999REMSYN062    AAXX  14214 03021 42482 73603 10024 20001 333 81819 87628;
0144030210999992000011509004+57150-007320FM-12+000699999V0203601N000519999999N0500001N1+00421+00321999999ADDAY151031AY221031GA1021+007809069GF107991999999008001999999MW1021REMSYN068    AAXX  15094 03021 41584 73601 10042 20032 70252 333 82626 87645;
0144030210999992000011512004+57150-007320FM-12+000699999V0202701N001019999999N0400001N1+00631+00441999999ADDAY151061AY221061GA1021+005709069GF107991999999004501999999MW1021REMSYN068    AAXX  15124 03021 41482 72702 10063 20044 70252 333 82619 87630;
0144030210999992000011518004+57150-007320FM-12+000699999V0203001N005719999999N0400001N1+00661+00381999999ADDAY161061AY221061GA1011+006909069GF107991999999008001999999MW1021REMSYN068    AAXX  15184 03021 41582 73011 10066 20038 70262 333 81623 87645;
0116030210999992000011521004+57150-007320FM-12+000699999V0202901N006219999999N0350001N1+00711+00461999999ADDGA1021+006009069GF108991999999008001999999REMSYN062    AAXX  15214 03021 42581 82912 10071 20046 333 82620 88640;
0166030210999992000011609004+57150-007320FM-12+000699999V0202901N003119999999N0060001N1+00791+00731999999ADDAY151031AY221031GA1021+000909079GA2031+000909079GF107991999999001501999999MW1501REMSYN074    AAXX  16094 03021 41256 72906 10079 20073 75052 333 82703 83703 87711;
0166030210999992000011615004+57150-007320FM-12+000699999V0202901N004110027019N0060001N1+00821+00781999999ADDAY151031AY221031GA1021+001209079GA2051+002709079GF107991999999001501999999MW1501REMSYN074    AAXX  16154 03021 41256 72908 10082 20078 75052 333 82704 85709 87618;
0144030210999992000011618004+57150-007320FM-12+000699999V0203101N004610021019N0090001N1+00801+00741999999ADDAY151061AY221061GA1051+002109079GF107991999999002501999999MW1501REMSYN068    AAXX  16184 03021 41359 73109 10080 20074 75052 333 85707 87617;
0144030210999992000011709004+57150-007320FM-12+000699999V0203101N006210006019N0035001N1+00761+00741999999ADDAY151031AY221031GA1051+000609079GF108991999999000751999999MW1501REMSYN068    AAXX  17094 03021 41135 83112 10076 20074 75052 333 85702 88703;
0166030210999992000011712004+57150-007320FM-12+000699999V0203201N005110027019N0045001N1+00791+00771999999ADDAY151061AY221061GA1021+001209079GA2051+002709079GF108991999999001501999999MW1501REMSYN074    AAXX  17124 03021 41245 83210 10079 20077 75052 333 82704 85709 88618;
0166030210999992000011718004+57150-007320FM-12+000699999V0203201N007210015019N0040001N1+00741+00721999999ADDAY151061AY221061GA1021+000909079GA2041+001509079GF107991999999001501999999MW1501REMSYN074    AAXX  17184 03021 41240 73214 10074 20072 75052 333 82703 84705 87710;
0144030210999992000011721004+57150-007320FM-12+000699999V0203101N005119999999N0050001N1+00731+00711999999ADDAY151031AY221031GA1031+000909079GF108991999999001501999999MW1511REMSYN068    AAXX  17214 03021 41250 83110 10073 20071 75152 333 83703 88706;
0144030210999992000011809004+57150-007320FM-12+000699999V0203501N003119999999N0200001N1+00631+00521999999ADDAY151031AY221031GA1021+005709069GF107991999999004501999999MW1021REMSYN068    AAXX  18094 03021 41470 73506 10063 20052 70252 333 82619 87626;
0116030210999992000011815004+57150-007320FM-12+000699999V0203501N004119999999N0250001N1+00811+00571999999ADDGA1011+005409069GF107991999999004501999999REMSYN062    AAXX  18154 03021 42475 73508 10081 20057 333 81618 87628;
0116030210999992000011818004+57150-007320FM-12+000699999V0203501N005119999999N0300001N1+00741+00491999999ADDGA1011+005409069GF107991999999004501999999REMSYN062    AAXX  18184 03021 42480 73510 10074 20049 333 81618 87635;
0116030210999992000011821004+57150-007320FM-12+000699999V0203401N004119999999N0300001N1+00721+00491999999ADDGA1011+005709069GF107991999999004501999999REMSYN062    AAXX  18214 03021 42480 73408 10072 20049 333 81619 87630;
0116030210999992000011909004+57150-007320FM-12+000699999V0209999C000019999999N0450001N1+00631+00521999999ADDGA1021+006309069GF107991999999008001999999REMSYN062    AAXX  19094 03021 42583 70000 10063 20052 333 82621 87635;
0144030210999992000011915004+57150-007320FM-12+000699999V0202401N001519999999N0250001N1+00661+00521999999ADDAY151031AY221031GA1031+003309079GF108991999999004501999999MW1201REMSYN068    AAXX  19154 03021 41475 82403 10066 20052 72052 333 83711 88640;
0162030210999992000011918004+57150-007320FM-12+000699999V0202401N004110120019N0350001N1+00591+00521999999ADDAY151061AY221061GA1021+002709079GA2031+012009069GF107991999999002501999999MW1021REMSYN070AAXX  19184 03021 41381 72408 10059 20052 70252 333 82709 83640 86362;
0162030210999992000011921004+57150-007320FM-12+000699999V0202501N003110105019N0300001N1+00581+00511999999ADDAY151031AY221031GA1021+003009079GA2051+010509069GF107991999999004501999999MW1201REMSYN070AAXX  19214 03021 41480 72506 10058 20051 72052 333 82710 85635 87075;
0134030210999992000012009004+57150-007320FM-12+000699999V0209999C000012200019N0250001N1+00491+00411999999ADDAY161031AY211031GA1021+004809059GF103991999999004501999999MW1011REMSYN058AAXX  20094 03021 41475 30000 10049 20041 70161 333 82616;
0134030210999992000012012004+57150-007320FM-12+000699999V0209999C000012200019N0450001N1+00691+00631999999ADDAY161061AY211061GA1011+003009069GF101991999999004501999999MW1011REMSYN058AAXX  20124 03021 41483 10000 10069 20063 70161 333 81710;
0140030210999992000012018004+57150-007320FM-12+000699999V0203301N005119999999N0060001N1+00681+00641999999ADDAY161061AY211061GA1021+002409079GF107991999999002501999999MW1601REMSYN064AAXX  20184 03021 41356 73310 10068 20064 76061 333 82708 86712;
0134030210999992000012021004+57150-007320FM-12+000699999V0203401N004112200019N0450001N1+00531+00441999999ADDAY161031AY211031GA1011+003609069GF102991999999004501999999MW1021REMSYN058AAXX  20214 03021 41483 23408 10053 20044 70261 333 81712;
0162030210999992000012109004+57150-007320FM-12+000699999V0203301N002619999999N0200001N1+00571+00481999999ADDAY181031AY221031GA1011+003309079GA2041+004809089GF107991999999004501999999MW1251REMSYN070AAXX  21094 03021 41470 73305 10057 20048 72582 333 81711 84816 87361;
0112030210999992000012115004+57150-007320FM-12+000699999V0202901N007219999999N0450001N1+00791+00551999999ADDGA1021+004809069GF107991999999004501999999REMSYN058AAXX  21154 03021 42483 72914 10079 20055 333 82616 87359;
0140030210999992000012118004+57150-007320FM-12+000699999V0202901N011319999999N0450001N1+00811+00641999999ADDAY161061AY221061GA1031+004509069GF107991999999004501999999MW1021REMSYN064AAXX  21184 03021 41483 72922 10081 20064 70262 333 83615 87359;
0140030210999992000012121004+57150-007320FM-12+000699999V0202901N015919999999N0400001N1+00861+00671999999ADDAY161031AY221031GA1021+004509069GF107991999999004501999999MW1021REMSYN064AAXX  21214 03021 41482 72931 10086 20067 70262 333 82615 86635;
0134030210999992000012212004+57150-007320FM-12+000699999V0203601N008219999999N0300001N1+00671+00231999999ADDAY181061AY211061GA1041+004809029GF105991999999004501999999MW1151REMSYN058AAXX  22124 03021 41480 53616 10067 20023 71581 333 84816;
0140030210999992000012215004+57150-007320FM-12+000699999V0203501N009819999999N0350001N1+00581+00241999999ADDAY181031AY221031GA1021+004809089GF107991999999004501999999MW1021REMSYN064AAXX  22154 03021 41481 73519 10058 20024 70282 333 82816 86635;
0140030210999992000012218004+57150-007320FM-12+000699999V0203601N008719999999N0120001N1+00501+00231999999ADDAY181061AY221061GA1041+004509089GF107991999999004501999999MW1801REMSYN064AAXX  22184 03021 41462 73617 10050 20023 78082 333 84815 87635;
0140030210999992000012221004+57150-007320FM-12+000699999V0203301N008219999999N0450001N1+00501+00151999999ADDAY181031AY221031GA1011+004809089GF107991999999004501999999MW1021REMSYN064AAXX  22214 03021 41483 73316 10050 20015 70282 333 81816 87640;
0140030210999992000012309004+57150-007320FM-12+000699999V0200101N000519999999N0400001N1+00221+00111999999ADDAY181031AY221031GA1021+005109089GF107991999999004501999999MW1251REMSYN064AAXX  23094 03021 41482 70101 10022 20011 72582 333 82817 86635;
0106030210999992000012315004+57150-007320FM-12+000699999V0203201N002610135019N0550001N1+00631+00241999999ADDGA1071+013509059GF107991999999012501999999REMSYN052AAXX  23154 03021 42685 73205 10063 20024 333 87645;
0112030210999992000012318004+57150-007320FM-12+000699999V0209999C000019999999N0300001N1+00381+00151999999ADDGA1011+010509069GF107991999999012501999999REMSYN058AAXX  23184 03021 42680 70000 10038 20015 333 81635 86359;
0106030210999992000012409004+57150-007320FM-12+000699999V0203501N000512200019N0500001N1+00341+00291999999ADDGA1011+006609059GF101991999999008001999999REMSYN052AAXX  24094 03021 42584 13501 10034 20029 333 81622;
0112030210999992000012415004+57150-007320FM-12+000699999V0203301N001519999999N0450001N1+00781+00581999999ADDGA1011+005709089GF107991999999004501999999REMSYN058AAXX  24154 03021 42483 73303 10078 20058 333 81819 86626;
0106030210999992000012418004+57150-007320FM-12+000699999V0200801N000512200019N0500001N1+00321+00201999999ADDGA1021+007809059GF102991999999008001999999REMSYN052AAXX  24184 03021 42584 20801 10032 20020 333 82626;
0106030210999992000012421004+57150-007320FM-12+000699999V0209999C000010078019N0450001N1+00341+00191999999ADDGA1071+007809059GF107991999999008001999999REMSYN052AAXX  24214 03021 42583 70000 10034 20019 333 87626;
0140030210999992000012509004+57150-007320FM-12+000699999V0209999C000019999999N0060001N1+00551+00481999999ADDAY151031AY221031GA1021+000609079GF107991999999000751999999MW1101REMSYN064AAXX  25094 03021 41156 70000 10055 20048 71052 333 82702 86706;
0140030210999992000012515004+57150-007320FM-12+000699999V0202701N001519999999N0120001N1+00631+00591999999ADDAY151031AY221031GA1031+002409079GF107991999999002501999999MW1201REMSYN064AAXX  25154 03021 41362 72703 10063 20059 72052 333 83708 86712;
0140030210999992000012518004+57150-007320FM-12+000699999V0202601N001019999999N0070001N1+00561+00491999999ADDAY151061AY221061GA1021+000909079GF107991999999001501999999MW1101REMSYN064AAXX  25184 03021 41257 72602 10056 20049 71052 333 82703 86710;
0162030210999992000012521004+57150-007320FM-12+000699999V0202501N001010015019N0060001N1+00621+00581999999ADDAY151031AY221031GA1021+000909079GA2051+001509079GF107991999999001501999999MW1501REMSYN070AAXX  25214 03021 41256 72502 10062 20058 75052 333 82703 85705 87709;
0162030210999992000012609004+57150-007320FM-12+000699999V0202501N002610015019N0050001N1+00661+00621999999ADDAY161031AY251031GA1021+000609079GA2051+001509079GF107991999999000751999999MW1501REMSYN070AAXX  26094 03021 41150 72505 10066 20062 75065 333 82702 85705 86711;
0112030210999992000012615004+57150-007320FM-12+000699999V0202801N004119999999N0350001N1+00621+00381999999ADDGA1011+005709069GF107991999999004501999999REMSYN058AAXX  26154 03021 42481 72808 10062 20038 333 81619 87640;
0112030210999992000012618004+57150-007320FM-12+000699999V0202601N003619999999N0450001N1+00611+00421999999ADDGA1021+005409069GF107991999999004501999999REMSYN058AAXX  26184 03021 42483 72607 10061 20042 333 82618 86645;
0112030210999992000012621004+57150-007320FM-12+000699999V0202501N003619999999N0300001N1+00621+00511999999ADDGA1031+005109069GF108991999999004501999999REMSYN058AAXX  26214 03021 42480 82507 10062 20051 333 83617 88645;
0140030210999992000012709004+57150-007320FM-12+000699999V0202701N007719999999N0200001N1+00711+00671999999ADDAY161031AY221031GA1031+002709079GF108991999999002501999999MW1211REMSYN064AAXX  27094 03021 41370 82715 10071 20067 72162 333 83709 88361;
0162030210999992000012712004+57150-007320FM-12+000699999V0202801N008210057019N0250001N1+00781+00541999999ADDAY161061AY221061GA1051+005709069GA2041+015009069GF108991999999004501999999MW1021REMSYN070AAXX  27124 03021 41475 82816 10078 20054 70262 333 85619 84650 88270;
0134030210999992000012715004+57150-007320FM-12+000699999V0202801N009310150019N0400001N1+00721+00391999999ADDGA1011+006609069GA2051+015009069GF108991999999008001999999REMSYN064AAXX  27154 03021 42582 82818 10072 20039 333 81622 85650 88362;
0112030210999992000012718004+57150-007320FM-12+000699999V0202901N007719999999N0350001N1+00691+00361999999ADDGA1011+005709089GF107991999999004501999999REMSYN058AAXX  27184 03021 42481 72915 10069 20036 333 81819 87464;
0112030210999992000012721004+57150-007320FM-12+000699999V0202501N002119999999N0300001N1+00621+00411999999ADDGA1021+005409069GF108991999999004501999999REMSYN058AAXX  27214 03021 42480 82504 10062 20041 333 82618 88645;
0162030210999992000012809004+57150-007320FM-12+000699999V0202601N012310012019N0070001N1+00871+00811999999ADDAY161031AY251031GA1021+000609079GA2051+001209079GF108991999999000751999999MW1511REMSYN070AAXX  28094 03021 41157 82624 10087 20081 75165 333 82702 85704 88615;
0140030210999992000012815004+57150-007320FM-12+000699999V0202501N009319999999N0150001N1+00851+00751999999ADDAY151031AY221031GA1031+002409079GF108991999999002501999999MW1021REMSYN064AAXX  28154 03021 41365 82518 10085 20075 70252 333 83708 88635;
0162030210999992000012818004+57150-007320FM-12+000699999V0202401N010310018019N0060001N1+00851+00791999999ADDAY151061AY221061GA1021+001209079GA2051+001809079GF108991999999001501999999MW1501REMSYN070AAXX  28184 03021 41256 82420 10085 20079 75052 333 82704 85706 88712;
0162030210999992000012821004+57150-007320FM-12+000699999V0202401N011810024019N0060001N1+00871+00811999999ADDAY161031AY251031GA1031+001209079GA2061+002409079GF108991999999001501999999MW1631REMSYN070AAXX  28214 03021 41256 82423 10087 20081 76365 333 83704 86708 88714;
0140030210999992000012909004+57150-007320FM-12+000699999V0202801N020019999999N0090001N1+00671+00081999999ADDAY181031AY221031GA1031+004809099GF106991999999004501999999MW1251REMSYN064AAXX  29094 03021 41459 62839 10067 20008 72582 333 83916 83628;
0140030210999992000012912004+57150-007320FM-12+000699999V0202801N019519999999N0150001N1+00721+00061999999ADDAY181061AY221061GA1041+005409089GF107991999999004501999999MW1021REMSYN064AAXX  29124 03021 41465 72838 10072 20006 70282 333 84818 84626;
0134030210999992000012915004+57150-007320FM-12+000699999V0202901N019012200019N0180001N1+00631+00101999999ADDAY181031AY211031GA1021+004509099GF103991999999004501999999MW1251REMSYN058AAXX  29154 03021 41468 32937 10063 20010 72581 333 82915;
0134030210999992000012918004+57150-007320FM-12+000699999V0202901N013912200019N0200001N1+00401-00061999999ADDAY181061AY211061GA1021+004509099GF103991999999004501999999MW1261REMSYN058AAXX  29184 03021 41470 32927 10040 21006 72681 333 82915;
0134030210999992000012921004+57150-007320FM-12+000699999V0202901N012312200019N0600001N1+00811+00041999999ADDAY181031AY211031GA1011+004209099GF101991999999004501999999MW1021REMSYN058AAXX  29214 03021 41486 12924 10081 20004 70281 333 81914;
0162030210999992000013009004+57150-007320FM-12+000699999V0201701N005110021019N0200001N1+00521+00471999999ADDAY161031AY221031GA1021+001509079GA2031+002109079GF108991999999001501999999MW1211REMSYN070AAXX  30094 03021 41270 81710 10052 20047 72162 333 82705 83707 88640;
0162030210999992000013012004+57150-007320FM-12+000699999V0202401N011810021019N0060001N1+00931+00911999999ADDAY161061AY221061GA1031+001209079GA2061+002109079GF108991999999001501999999MW1621REMSYN070AAXX  30124 03021 41256 82423 10093 20091 76262 333 83704 86707 88711;
0162030210999992000013018004+57150-007320FM-12+000699999V0202501N014410150019N0250001N1+00951+00871999999ADDAY161061AY261061GA1041+004809069GA2061+015009069GF108991999999004501999999MW1211REMSYN070AAXX  30184 03021 41475 82528 10095 20087 72166 333 84616 86650 88632;
0112030210999992000013109004+57150-007320FM-12+000699999V0202501N002119999999N0500001N1+00501+00231999999ADDGA1011+009009069GF107991999999012501999999REMSYN058AAXX  31094 03021 42684 72504 10050 20023 333 81630 87275;
0140030210999992000013115004+57150-007320FM-12+000699999V0201701N001519999999N0090001N1+00631+00571999999ADDAY161031AY221031GA1021+005709069GF108991999999004501999999MW1601REMSYN064AAXX  31154 03021 41459 81703 10063 20057 76062 333 82619 88656;
0162030210999992000013118004+57150-007320FM-12+000699999V0201301N004610024019N0070001N1+00671+00581999999ADDAY161061AY221061GA1031+001809079GA2051+002409079GF108991999999002501999999MW1611REMSYN070AAXX  31184 03021 41357 81309 10067 20058 76162 333 83706 85708 88618;
0162030210999992000013121004+57150-007320FM-12+000699999V0201401N000510027019N0150001N1+00731+00671999999ADDAY161031AY221031GA1021+002109079GA2061+002709079GF108991999999002501999999MW1021REMSYN070AAXX  31214 03021 41365 81401 10073 20067 70262 333 82707 86709 88713;
0112030210999992000020109004+57150-007320FM-12+000699999V0202701N010319999999N0450001N1+00681+00401999999ADDGA1011+005409089GF105991999999004501999999REMSYN058AAXX  01094 03021 42483 52720 10068 20040 333 81818 85075;
0134030210999992000020112004+57150-007320FM-12+000699999V0202701N011312200019N0500001N1+00731+00301999999ADDAY181061AY211061GA1011+006009029GF101991999999008001999999MW1021REMSYN058AAXX  01124 03021 41584 12722 10073 20030 70281 333 81820;
0134030210999992000020115004+57150-007320FM-12+000699999V0202701N011312200019N0400001N1+00721+00181999999ADDAY181031AY211031GA1011+005409029GF101991999999004501999999MW1021REMSYN058AAXX  01154 03021 41482 12722 10072 20018 70281 333 81818;
0134030210999992000020118004+57150-007320FM-12+000699999V0202801N007712200019N0450001N1+00521+00361999999ADDAY181061AY211061GA1011+004809099GF101991999999004501999999MW1251REMSYN058AAXX  01184 03021 41483 12815 10052 20036 72581 333 81916;
0134030210999992000020121004+57150-007320FM-12+000699999V0202601N011812200019N0400001N1+00541+00281999999ADDAY181031AY211031GA1021+004809099GF102991999999004501999999MW1251REMSYN058AAXX  01214 03021 41482 22623 10054 20028 72581 333 82916;
0140030210999992000020209004+57150-007320FM-12+000699999V0202901N015919999999N0250001N1+00671+00121999999ADDAY181031AY211031GA1021+004509099GF107991999999004501999999MW1251REMSYN064AAXX  02094 03021 41475 72931 10067 20012 72581 333 82915 86635;
0140030210999992000020215004+57150-007320FM-12+000699999V0203101N011319999999N0400001N1+00621+00361999999ADDAY181031AY221031GA1031+005109089GF107991999999004501999999MW1251REMSYN064AAXX  02154 03021 41482 73122 10062 20036 72582 333 83817 86640;
0140030210999992000020218004+57150-007320FM-12+000699999V0202801N012319999999N0350001N1+00671+00441999999ADDAY181061AY221061GA1021+005109089GF107991999999004501999999MW1251REMSYN064AAXX  02184 03021 41481 72824 10067 20044 72582 333 82817 87645;
0140030210999992000020221004+57150-007320FM-12+000699999V0202701N008219999999N0450001N1+00681+00451999999ADDAY181031AY221031GA1021+005409089GF106991999999004501999999MW1021REMSYN064AAXX  02214 03021 41483 62716 10068 20045 70282 333 82818 85075;
0140030210999992000020309004+57150-007320FM-12+000699999V0202201N002119999999N0250001N1+00711+00651999999ADDAY161031AY221031GA1021+003309079GF108991999999004501999999MW1021REMSYN064AAXX  03094 03021 41475 82204 10071 20065 70262 333 82711 88650;
0134030210999992000020312004+57150-007320FM-12+000699999V0202201N008210036019N0400001N1+00821+00721999999ADDAY161061AY221061GA1051+003609069GF105991999999004501999999MW1011REMSYN058AAXX  03124 03021 41482 52216 10082 20072 70162 333 85712;
0134030210999992000020321004+57150-007320FM-12+000699999V0202301N013410006019N0030001N1+00941+00921999999ADDAY151031AY251031GA1081+000609069GF108991999999000751999999MW1511REMSYN058AAXX  03214 03021 41130 82326 10094 20092 75155 333 88702;
0134030210999992000020409004+57150-007320FM-12+000699999V0202401N011310012019N0060001N1+00991+00971999999ADDAY151031AY221031GA1081+001209069GF108991999999001501999999MW1201REMSYN058AAXX  04094 03021 41256 82422 10099 20097 72052 333 88704;
0134030210999992000020415004+57150-007320FM-12+000699999V0202401N010810006019N0045001N1+01011+00991999999ADDAY151031AY251031GA1081+000609069GF108991999999000751999999MW1511REMSYN058AAXX  04154 03021 41145 82421 10101 20099 75155 333 88702;
0162030210999992000020418004+57150-007320FM-12+000699999V0202301N013410030019N0070001N1+01011+00991999999ADDAY151061AY221061GA1021+002409079GA2051+003009079GF108991999999002501999999MW1201REMSYN070AAXX  04184 03021 41357 82326 10101 20099 72052 333 82708 85710 88615;
0140030210999992000020421004+57150-007320FM-12+000699999V0202301N012910012019N0050001N1+01001+00981999999ADDAY151031AY221031GA1051+001209079GF108991999999001501999999MW1511REMSYN064AAXX  04214 03021 41250 82325 10100 20098 75152 333 85704 88707;
0162030210999992000020509004+57150-007320FM-12+000699999V0202101N012310024019N0070001N1+01001+00961999999ADDAY161031AY251031GA1021+001809079GA2061+002409079GF108991999999002501999999MW1601REMSYN070AAXX  05094 03021 41357 82124 10100 20096 76065 333 82706 86708 88618;
0162030210999992000020515004+57150-007320FM-12+000699999V0202001N011310033019N0080001N1+00921+00881999999ADDAY161031AY261031GA1021+002109079GA2051+003309079GF108991999999002501999999MW1611REMSYN070AAXX  05154 03021 41358 82022 10092 20088 76166 333 82707 85711 88628;
0162030210999992000020518004+57150-007320FM-12+000699999V0202401N008219999999N0200001N1+00901+00821999999ADDAY161061AY211061GA1011+002709079GA2031+027009039GF107991999999002501999999MW1011REMSYN070AAXX  05184 03021 41370 72416 10090 20082 70161 333 81709 83359 87272;
0134030210999992000020521004+57150-007320FM-12+000699999V0202501N008712200019N0450001N1+00791+00591999999ADDAY181031AY211031GA1011+005409029GF101991999999004501999999MW1021REMSYN058AAXX  05214 03021 41483 12517 10079 20059 70281 333 81818;
0134030210999992000020609004+57150-007320FM-12+000699999V0201701N009819999999N0180001N1+99999+99999999999ADDAY121031AY221031GA1021+004809069GF108991999999004501999999MW1601REMSYN058AAXX  06094 03021 41468 81719 20064 76022 333 82616 88460;
0162030210999992000020612004+57150-007320FM-12+000699999V0201601N015910054019N0160001N1+00761+00651999999ADDAY161061AY221061GA1021+003609079GA2061+005409069GF108991999999004501999999MW1211REMSYN070AAXX  06124 03021 41466 81631 10076 20065 72162 333 82712 86618 88459;
0162030210999992000020615004+57150-007320FM-12+000699999V0201601N017010033019N0100001N1+00821+00781999999ADDAY161031AY221031GA1031+002409079GA2051+003309079GF108991999999002501999999MW1601REMSYN070AAXX  06154 03021 41360 81633 10082 20078 76062 333 83708 85711 88656;
0140030210999992000020618004+57150-007320FM-12+000699999V0202401N012310027019N0090001N1+00841+00751999999ADDAY161061AY221061GA1051+002709079GF107991999999002501999999MW1211REMSYN064AAXX  06184 03021 41359 72424 10084 20075 72162 333 85709 86625;
0162030210999992000020709004+57150-007320FM-12+000699999V0201601N013910066019N0180001N1+00521+00451999999ADDAY161031AY221031GA1021+003609079GA2061+006609069GF108991999999004501999999MW1611REMSYN070AAXX  07094 03021 41468 81627 10052 20045 76162 333 82712 86622 88635;
0140030210999992000020715004+57150-007320FM-12+000699999V0202401N013419999999N0200001N1+00871+00831999999ADDAY161031AY261031GA1011+003309079GF107991999999004501999999MW1211REMSYN064AAXX  07154 03021 41470 72426 10087 20083 72166 333 81711 87640;
0162030210999992000020718004+57150-007320FM-12+000699999V0202601N021619999999N0180001N1+00801+00531999999ADDAY181061AY261061GA1011+003009079GA2021+004809099GF107991999999004501999999MW1251REMSYN070AAXX  07184 03021 41468 72642 10080 20053 72586 333 81710 82916 86630;
0162030210999992000020721004+57150-007320FM-12+000699999V0202701N019510054019N0060001N1+00781+00721999999ADDAY181031AY261031GA1021+003309079GA2051+005409069GF108991999999004501999999MW1611REMSYN070AAXX  07214 03021 41456 82738 10078 20072 76186 333 82711 85618 88630;
0162030210999992000020809004+57150-007320FM-12+000699999V0201901N011810066019N0080001N1+00621+00481999999ADDAY161031AY221031GA1011+003609079GA2051+006609069GF108991999999004501999999MW1621REMSYN070AAXX  08094 03021 41458 81923 10062 20048 76262 333 81712 85622 88640;
0140030210999992000020812004+57150-007320FM-12+000699999V0202501N014419999999N0350001N1+00631+00271999999ADDAY181061AY261061GA1021+004509099GF106991999999004501999999MW1151REMSYN064AAXX  08124 03021 41481 62528 10063 20027 71586 333 82915 84635;
0134030210999992000020815004+57150-007320FM-12+000699999V0202601N012912200019N0300001N1+00481+00281999999ADDAY181031AY211031GA1021+004509099GF102991999999004501999999MW1271REMSYN058AAXX  08154 03021 41480 22625 10048 20028 72781 333 82915;
0140030210999992000020818004+57150-007320FM-12+000699999V0202701N014919999999N0400001N1+00421+00081999999ADDAY181061AY211061GA1031+004809099GF107991999999004501999999MW1271REMSYN064AAXX  08184 03021 41482 72729 10042 20008 72781 333 83916 86075;
0140030210999992000020821004+57150-007320FM-12+000699999V0202701N017519999999N0250001N1+00481+00071999999ADDAY181031AY211031GA1041+004509099GF107991999999004501999999MW1271REMSYN064AAXX  08214 03021 41475 72734 10048 20007 72781 333 84915 84630;
0162030210999992000020909004+57150-007320FM-12+000699999V0202301N016410330019N0200001N1+00831+00611999999ADDAY161031AY221031GA1011+005709069GA2051+033009039GF108991999999004501999999MW1021REMSYN070AAXX  09094 03021 41470 82332 10083 20061 70262 333 81619 85361 88272;
0140030210999992000020915004+57150-007320FM-12+000699999V0202201N018510069019N0110001N1+01001+00731999999ADDAY121031AY221031GA1061+006909069GF108991999999008001999999MW1051REMSYN064AAXX  09154 03021 41561 82236 10100 20073 70522 333 86623 88645;
0140030210999992000020918004+57150-007320FM-12+000699999V0202301N020010051019N0110001N1+01001+00751999999ADDAY121061AY221061GA1071+005109069GF108991999999004501999999MW1601REMSYN064AAXX  09184 03021 41461 82339 10100 20075 76022 333 87617 88635;
0140030210999992000020921004+57150-007320FM-12+000699999V0202301N019019999999N0070001N1+00911+00741999999ADDAY161031AY221031GA1031+002709079GF108991999999002501999999MW1601REMSYN064AAXX  09214 03021 41357 82337 10091 20074 76062 333 83709 88616;
0140030210999992000021009004+57150-007320FM-12+000699999V0202901N017019999999N0250001N1+00501+00341999999ADDAY181031AY261031GA1011+003309079GF105991999999004501999999MW1261REMSYN064AAXX  10094 03021 41475 52933 10050 20034 72686 333 81711 85914;
0134030210999992000021012004+57150-007320FM-12+000699999V0202801N015912200019N0450001N1+00571+00061999999ADDAY181061AY261061GA1011+004509099GF102991999999004501999999MW1021REMSYN058AAXX  10124 03021 41483 22831 10057 20006 70286 333 81915;
0134030210999992000021015004+57150-007320FM-12+000699999V0202701N015412200019N0400001N1+00561-00081999999ADDAY181031AY211031GA1021+004509099GF102991999999004501999999MW1271REMSYN058AAXX  10154 03021 41482 22730 10056 21008 72781 333 82915;
0140030210999992000021018004+57150-007320FM-12+000699999V0202401N011319999999N0450001N1+00521+00251999999ADDAY181061AY211061GA1011+004809099GF105991999999004501999999MW1251REMSYN064AAXX  10184 03021 41483 52422 10052 20025 72581 333 81916 84818;
0140030210999992000021021004+57150-007320FM-12+000699999V0202501N012319999999N0300001N1+00661+00461999999ADDAY181031AY211031GA1021+004809099GF107991999999004501999999MW1251REMSYN064AAXX  10214 03021 41480 72524 10066 20046 72581 333 82916 86635;
0112030210999992000021109004+57150-007320FM-12+000699999V0202401N011319999999N0350001N1+00791+00591999999ADDGA1011+005709089GF107991999999004501999999REMSYN058AAXX  11094 03021 42481 72422 10079 20059 333 81819 87075;
0162030210999992000021112004+57150-007320FM-12+000699999V0202101N015410330019N0180001N1+00831+00681999999ADDAY181061AY221061GA1021+004809089GA2061+033009039GF108991999999004501999999MW1251REMSYN070AAXX  11124 03021 41468 82130 10083 20068 72582 333 82816 86361 88273;
0140030210999992000021118004+57150-007320FM-12+000699999V0202101N021610045019N0060001N1+00801+00711999999ADDAY181061AY261061GA1051+004509069GF108991999999004501999999MW1631REMSYN064AAXX  11184 03021 41456 82142 10080 20071 76386 333 85615 88628;
0140030210999992000021121004+57150-007320FM-12+000699999V0202701N015419999999N0150001N1+00501+00361999999ADDAY161031AY261031GA1041+005409069GF108991999999004501999999MW1611REMSYN064AAXX  11214 03021 41465 82730 10050 20036 76166 333 84618 88645;
0140030210999992000021209004+57150-007320FM-12+000699999V0202701N011819999999N0400001N1+00371-00031999999ADDAY181031AY211031GA1021+004509089GF107991999999004501999999MW1151REMSYN064AAXX  12094 03021 41482 72723 10037 21003 71581 333 82815 85072;
0140030210999992000021212004+57150-007320FM-12+000699999V0202601N009319999999N0200001N1+00181+00021999999ADDAY181061AY211061GA1011+003309079GF107991999999004501999999MW1261REMSYN064AAXX  12124 03021 41470 72618 10018 20002 72681 333 81711 87915;
0140030210999992000021215004+57150-007320FM-12+000699999V0202701N015919999999N0300001N1+00431+00101999999ADDAY181031AY221031GA1031+004209099GF107991999999004501999999MW1261REMSYN064AAXX  12154 03021 41480 72731 10043 20010 72682 333 83914 85817;
0134030210999992000021218004+57150-007320FM-12+000699999V0202701N014412200019N0350001N1+00361+00011999999ADDAY181061AY211061GA1031+004509099GF104991999999004501999999MW1261REMSYN058AAXX  12184 03021 41481 42728 10036 20001 72681 333 83915;
0134030210999992000021221004+57150-007320FM-12+000699999V0202801N013912200019N0400001N1+00391+00131999999ADDAY181031AY211031GA1021+004509099GF102991999999001501999999MW1271REMSYN058AAXX  12214 03021 41282 22827 10039 20013 72781 333 82915;
0134030210999992000021309004+57150-007320FM-12+000699999V0203101N006212200019N0450001N1+00521+00141999999ADDAY111031AY211031GA1011+005109099GF101991999999004501999999MW1151REMSYN058AAXX  13094 03021 41483 13112 10052 20014 71511 333 81917;
0106030210999992000021312004+57150-007320FM-12+000699999V0202901N005712200019N0500001N1+00661+00271999999ADDGA1011+005709029GF101991999999004501999999REMSYN052AAXX  13124 03021 42484 12911 10066 20027 333 81819;
0134030210999992000021315004+57150-007320FM-12+000699999V0203301N004612200019N0450001N1+00731+00351999999ADDAY111031AY211031GA1011+005409099GF102991999999004501999999MW1151REMSYN058AAXX  13154 03021 41483 23309 10073 20035 71511 333 81918;
0134030210999992000021318004+57150-007320FM-12+000699999V0201701N000512200019N0550001N1+00391+00191999999ADDAY181061AY211061GA1011+006009029GF101991999999008001999999MW1011REMSYN058AAXX  13184 03021 41585 11701 10039 20019 70181 333 81820;
0140030210999992000021418004+57150-007320FM-12+000699999V0202801N007719999999N0400001N1+00501+00391999999ADDAY181061AY221061GA1011+004809099GF107991999999004501999999MW1271REMSYN064AAXX  14184 03021 41482 72815 10050 20039 72782 333 81916 87650;
0134030210999992000021421004+57150-007320FM-12+000699999V0202601N008712200019N0450001N1+00491+00271999999ADDAY181031AY211031GA1021+004509099GF103991999999004501999999MW1251REMSYN058AAXX  14214 03021 41483 32617 10049 20027 72581 333 82915;
0112030210999992000021509004+57150-007320FM-12+000699999V0202201N008219999999N0450001N1+00431+00151999999ADDGA1021+006009069GF108991999999008001999999REMSYN058AAXX  15094 03021 42583 82216 10043 20015 333 82620 88272;
0162030210999992000021512004+57150-007320FM-12+000699999V0202301N007710039019N0400001N1+00411+00361999999ADDAY181061AY221061GA1011+003309079GA2061+003909079GF108991999999004501999999MW1021REMSYN070AAXX  15124 03021 41482 82315 10041 20036 70282 333 81711 86713 88640;
0140030210999992000021515004+57150-007320FM-12+000699999V0202901N008719999999N0060001N1+00281+00231999999ADDAY171031AY261031GA1031+002109079GF108991999999002501999999MW1231REMSYN064AAXX  15154 03021 41356 82917 10028 20023 72376 333 83707 88714;
0140030210999992000021518004+57150-007320FM-12+000699999V0203001N004119999999N0300001N1+00171+00041999999ADDAY181061AY271061GA1011+003609079GF107991999999004501999999MW1231REMSYN064AAXX  15184 03021 41480 73008 10017 20004 72387 333 81712 87645;
0140030210999992000021521004+57150-007320FM-12+000699999V0203301N005119999999N0060001N1-00011-00041999999ADDAY181031AY221031GA1031+004209099GF107991999999004501999999MW1851REMSYN064AAXX  15214 03021 41456 73310 11001 21004 78582 333 83914 86635;
0106030210999992000021609004+57150-007320FM-12+000699999V0209999C000012200019N0550001N1-00091-00221999999ADDGA1011+004809099GF102991999999004501999999REMSYN052AAXX  16094 03021 42485 20000 11009 21022 333 81916;
0140030210999992000021618004+57150-007320FM-12+000699999V0203501N007719999999N0035001N1+00131+00081999999ADDAY181061AY211061GA1021+003309079GF107991999999004501999999MW1841REMSYN064AAXX  16184 03021 41435 73515 10013 20008 78481 333 82711 87914;
0134030210999992000021621004+57150-007320FM-12+000699999V0202801N008712200019N0300001N1+00461-00021999999ADDAY181031AY211031GA1021+004509099GF103991999999004501999999MW1271REMSYN058AAXX  16214 03021 41480 32817 10046 21002 72781 333 82915;
0140030210999992000021709004+57150-007320FM-12+000699999V0203401N007219999999N0450001N1+00501+00281999999ADDAY181031AY211031GA1011+004809099GF106991999999004501999999MW1151REMSYN064AAXX  17094 03021 41483 63414 10050 20028 71581 333 81916 86075;
0162030210999992000021712004+57150-007320FM-12+000699999V0202701N001019999999N0450001N1+00611+00401999999ADDAY181061AY211061GA1011+006009069GA2041+018009069GF108991999999008001999999MW1031REMSYN070AAXX  17124 03021 41583 82702 10061 20040 70381 333 81620 84656 88362;
0140030210999992000021715004+57150-007320FM-12+000699999V0202101N006219999999N0300001N1+00501+00311999999ADDAY161031AY221031GA1031+006609069GF108991999999008001999999MW1601REMSYN064AAXX  17154 03021 41580 82112 10050 20031 76062 333 83622 88361;
0162030210999992000021718004+57150-007320FM-12+000699999V0201601N009810036019N0060001N1+00421+00371999999ADDAY161061AY221061GA1021+003009079GA2051+003609079GF108991999999004501999999MW1631REMSYN070AAXX  17184 03021 41456 81619 10042 20037 76362 333 82710 85712 88628;
0140030210999992000021721004+57150-007320FM-12+000699999V0201801N003619999999N0200001N1+00601+00531999999ADDAY181031AY261031GA1031+004809089GF107991999999004501999999MW1251REMSYN064AAXX  17214 03021 41470 71807 10060 20053 72586 333 83816 87640;
0140030210999992000021809004+57150-007320FM-12+000699999V0209999C000019999999N0160001N1+00521+00471999999ADDAY181031AY261031GA1021+003309079GF107991999999004501999999MW1611REMSYN064AAXX  18094 03021 41466 70000 10052 20047 76186 333 82711 87645;
0140030210999992000021815004+57150-007320FM-12+000699999V0203601N001019999999N0300001N1+00771+00531999999ADDAY181031AY221031GA1041+005109089GF107991999999004501999999MW1251REMSYN064AAXX  18154 03021 41480 73602 10077 20053 72582 333 84817 84635;
0140030210999992000021818004+57150-007320FM-12+000699999V0200101N004110051019N0400001N1+00511+00321999999ADDAY181061AY221061GA1051+005109089GF107991999999004501999999MW1251REMSYN064AAXX  18184 03021 41482 70108 10051 20032 72582 333 85817 83630;
0134030210999992000021821004+57150-007320FM-12+000699999V0200301N008710048019N0350001N1+00561+00371999999ADDAY181031AY221031GA1061+004809029GF107991999999004501999999MW1251REMSYN058AAXX  18214 03021 41481 70317 10056 20037 72582 333 86816;
0106030210999992000021909004+57150-007320FM-12+000699999V0209999C000012200019N0700001N1+00191+00111999999ADDGA1011+005709029GF101991999999004501999999REMSYN052AAXX  19094 03021 42488 10000 10019 20011 333 81819;
0106030210999992000021912004+57150-007320FM-12+000699999V0203601N004112200019N0700001N1+00671+00321999999ADDGA1021+006009029GF103991999999008001999999REMSYN052AAXX  19124 03021 42588 33608 10067 20032 333 82820;
0106030210999992000021915004+57150-007320FM-12+000699999V0201101N001012200019N0750001N1+00631+00321999999ADDGA1021+006609029GF102991999999008001999999REMSYN052AAXX  19154 03021 42589 21102 10063 20032 333 82822;
0106030210999992000021918004+57150-007320FM-12+000699999V0202001N000512200019N0700001N1+00451+00231999999ADDGA1011+006009029GF102991999999008001999999REMSYN052AAXX  19184 03021 42588 22001 10045 20023 333 81820;
0106030210999992000021921004+57150-007320FM-12+000699999V0201301N000512200019N0600001N1+00231+00151999999ADDGA1011+006309029GF101991999999008001999999REMSYN052AAXX  19214 03021 42586 11301 10023 20015 333 81821;
0147030210999992000022009004+57150-007320FM-12+000699999V0209999C032412200019N0120001N1+99999+99999999999ADDGA1011+003609079GA2061+042009039GF199999999999004501999999REMSYN058AAXX  20094 03021 42462 10063 20038 333 81712 86364 88275;EQDQ01+000012SCOTCV
0140030210999992000022012004+57150-007320FM-12+000699999V0201601N016410054019N0180001N1+00661+00481999999ADDAY161061AY221061GA1061+005409069GF108991999999004501999999MW1601REMSYN064AAXX  20124 03021 41468 81632 10066 20048 76062 333 86618 88650;
0140030210999992000022015004+57150-007320FM-12+000699999V0201601N018010051019N0140001N1+00701+00521999999ADDAY161031AY221031GA1051+005109069GF108991999999004501999999MW1611REMSYN064AAXX  20154 03021 41464 81635 10070 20052 76162 333 85617 88640;
0134030210999992000022109004+57150-007320FM-12+000699999V0202901N006212200019N0450001N1+00391+00161999999ADDAY181031AY211031GA1011+004809099GF101991999999004501999999MW1271REMSYN058AAXX  21094 03021 41483 12912 10039 20016 72781 333 81916;
0106030210999992000022115004+57150-007320FM-12+000699999V0202401N003112200019N0600001N1+00711+00171999999ADDGA1011+006309029GF102991999999008001999999REMSYN052AAXX  21154 03021 42586 22406 10071 20017 333 81821;
0134030210999992000022118004+57150-007320FM-12+000699999V0202101N006219999999N0500001N1+00521+00281999999ADDGA1021+006009089GA2031+033009039GF107991999999008001999999REMSYN064AAXX  21184 03021 42584 72112 10052 20028 333 82820 83361 87075;
0134030210999992000022121004+57150-007320FM-12+000699999V0201601N002110360019N0450001N1+00521+00381999999ADDGA1011+006009089GA2051+036009039GF107991999999008001999999REMSYN064AAXX  21214 03021 42583 71604 10052 20038 333 81820 85362 87075;
0162030210999992000022209004+57150-007320FM-12+000699999V0201701N011810090019N0300001N1+00521+00331999999ADDAY161031AY221031GA1021+005709069GA2051+009009069GF107991999999004501999999MW1211REMSYN070AAXX  22094 03021 41480 71723 10052 20033 72162 333 82619 85630 87360;
0162030210999992000022212004+57150-007320FM-12+000699999V0201601N015410039019N0070001N1+00591+00501999999ADDAY161061AY221061GA1031+003009079GA2061+003909079GF108991999999004501999999MW1611REMSYN070AAXX  22124 03021 41457 81630 10059 20050 76162 333 83710 86713 88628;
0140030210999992000022218004+57150-007320FM-12+000699999V0201901N010819999999N0070001N1+00751+00711999999ADDAY161061AY251061GA1031+001809079GF108991999999002501999999MW1511REMSYN064AAXX  22184 03021 41357 81921 10075 20071 75165 333 83706 88710;
0162030210999992000022221004+57150-007320FM-12+000699999V0202001N009310021019N0035001N1+00821+00781999999ADDAY161031AY251031GA1021+001509079GA2061+002109079GF108991999999001501999999MW1631REMSYN070AAXX  22214 03021 41235 82018 10082 20078 76365 333 82705 86707 88711;
0162030210999992000022309004+57150-007320FM-12+000699999V0201901N012310021019N0060001N1+00861+00771999999ADDAY151031AY221031GA1021+001509079GA2051+002109079GF107991999999001501999999MW1201REMSYN070AAXX  23094 03021 41256 71924 10086 20077 72052 333 82705 85707 87711;
0134030210999992000022315004+57150-007320FM-12+000699999V0202401N018512200019N0300001N1+00881+00431999999ADDAY181031AY211031GA1011+005409029GF101991999999004501999999MW1021REMSYN058AAXX  23154 03021 41480 12436 10088 20043 70281 333 81818;
0134030210999992000022318004+57150-007320FM-12+000699999V0202501N016412200019N0400001N1+00561+00301999999ADDAY181061AY211061GA1011+004809099GF102991999999004501999999MW1021REMSYN058AAXX  23184 03021 41482 22532 10056 20030 70281 333 81916;
0134030210999992000022321004+57150-007320FM-12+000699999V0202501N017010045019N0300001N1+00441+00321999999ADDAY181031AY211031GA1051+004509099GF106991999999004501999999MW1271REMSYN058AAXX  23214 03021 41480 62533 10044 20032 72781 333 85915;
0134030210999992000022409004+57150-007320FM-12+000699999V0202501N009812200019N0450001N1+00391+00221999999ADDAY181031AY211031GA1011+004509099GF101991999999004501999999MW1151REMSYN058AAXX  24094 03021 41483 12519 10039 20022 71581 333 81915;
0134030210999992000022412004+57150-007320FM-12+000699999V0202501N014412200019N0400001N1+00571+00171999999ADDAY181061AY211061GA1021+004509099GF103991999999004501999999MW1271REMSYN058AAXX  24124 03021 41482 32528 10057 20017 72781 333 82915;
0134030210999992000022415004+57150-007320FM-12+000699999V0202501N016412200019N0400001N1+00521+00251999999ADDAY181031AY211031GA1021+004509099GF102991999999004501999999MW1271REMSYN058AAXX  24154 03021 41482 22532 10052 20025 72781 333 82915;
0134030210999992000022418004+57150-007320FM-12+000699999V0202501N010312200019N0450001N1+00251+00151999999ADDAY181061AY211061GA1021+004209099GF103991999999004501999999MW1271REMSYN058AAXX  24184 03021 41483 32520 10025 20015 72781 333 82914;
0140030210999992000022421004+57150-007320FM-12+000699999V0202701N010819999999N0450001N1+00361+00181999999ADDAY181031AY211031GA1011+004509099GF105991999999004501999999MW1261REMSYN064AAXX  24214 03021 41483 52721 10036 20018 72681 333 81915 84075;
0134030210999992000022509004+57150-007320FM-12+000699999V0202601N009312200019N0350001N1+00601+00391999999ADDAY181031AY211031GA1021+004809099GF103991999999004501999999MW1251REMSYN058AAXX  25094 03021 41481 32618 10060 20039 72581 333 82916;
0112030210999992000022515004+57150-007320FM-12+000699999V0202401N010319999999N0300001N1+00821+00551999999ADDGA1011+010509069GF108991999999012501999999REMSYN058AAXX  25154 03021 42680 82420 10082 20055 333 81635 88273;
0112030210999992000022518004+57150-007320FM-12+000699999V0202401N011319999999N0250001N1+00741+00611999999ADDGA1011+004809089GF108991999999004501999999REMSYN058AAXX  25184 03021 42475 82422 10074 20061 333 81816 88275;
0140030210999992000022521004+57150-007320FM-12+000699999V0202101N009819999999N0200001N1+00721+00611999999ADDAY181031AY221031GA1021+005409089GF108991999999004501999999MW1251REMSYN064AAXX  25214 03021 41470 82119 10072 20061 72582 333 82818 88274;
0112030210999992000022609004+57150-007320FM-12+000699999V0202101N013919999999N0350001N1+00731+00581999999ADDGA1011+005709069GF108991999999004501999999REMSYN058AAXX  26094 03021 42481 82127 10073 20058 333 81619 88275;
0162030210999992000022612004+57150-007320FM-12+000699999V0202001N014410150019N0200001N1+00801+00631999999ADDAY121061AY221061GA1021+005409069GA2051+015009069GF108991999999004501999999MW1601REMSYN070AAXX  26124 03021 41470 82028 10080 20063 76022 333 82618 85650 88272;
0140030210999992000022615004+57150-007320FM-12+000699999V0201801N013919999999N0400001N1+00811+00521999999ADDAY161031AY221031GA1011+005709089GF107991999999004501999999MW1011REMSYN064AAXX  26154 03021 41482 71827 10081 20052 70162 333 81819 87275;
0162030210999992000022618004+57150-007320FM-12+000699999V0201701N014910105019N0250001N1+00811+00641999999ADDAY161061AY221061GA1031+005709069GA2031+010509069GF108991999999004501999999MW1021REMSYN070AAXX  26184 03021 41475 81729 10081 20064 70262 333 83619 83635 88273;
0140030210999992000022709004+57150-007320FM-12+000699999V0202301N007219999999N0400001N1+00551+00411999999ADDAY161031AY221031GA1011+005709089GF108991999999004501999999MW1021REMSYN064AAXX  27094 03021 41482 82314 10055 20041 70262 333 81819 88358;
0134030210999992000022712004+57150-007320FM-12+000699999V0202201N003112200019N0350001N1+00501+00391999999ADDAY161061AY211061GA1021+004509099GF103991999999004501999999MW1151REMSYN058AAXX  27124 03021 41481 32206 10050 20039 71561 333 82915;
0140030210999992000022715004+57150-007320FM-12+000699999V0202501N015419999999N0040001N1+00631+00321999999ADDAY181031AY221031GA1011+003309079GF107991999999004501999999MW1891REMSYN064AAXX  27154 03021 41440 72530 10063 20032 78982 333 81711 87914;
0140030210999992000022718004+57150-007320FM-12+000699999V0202401N014919999999N0450001N1+00481+00211999999ADDAY181061AY211061GA1021+004509099GF105991999999004501999999MW1151REMSYN064AAXX  27184 03021 41483 52429 10048 20021 71581 333 82915 84656;
0140030210999992000022809004+57150-007320FM-12+000699999V0202501N014419999999N0400001N1+00461+00191999999ADDAY191031AY281031GA1021+004509099GF107991999999004501999999MW1271REMSYN064AAXX  28094 03021 41482 72528 10046 20019 72798 333 82915 86075;
0134030210999992000022815004+57150-007320FM-12+000699999V0202501N017012200019N0300001N1+00671+00211999999ADDAY181031AY211031GA1031+004509099GF104991999999004501999999MW1151REMSYN058AAXX  28154 03021 41480 42533 10067 20021 71581 333 83915;
0134030210999992000022818004+57150-007320FM-12+000699999V0202701N014412200019N0450001N1+00511+00191999999ADDAY181061AY211061GA1021+004509099GF103991999999004501999999MW1271REMSYN058AAXX  28184 03021 41483 32728 10051 20019 72781 333 82915;
0134030210999992000022821004+57150-007320FM-12+000699999V0202501N013912200019N0500001N1+00531+00181999999ADDAY181031AY211031GA1011+004809099GF101991999999004501999999MW1021REMSYN058AAXX  28214 03021 41484 12527 10053 20018 70281 333 81916;
0140030210999992000022909004+57150-007320FM-12+000699999V0202801N009819999999N0400001N1+00461+00261999999ADDAY181031AY221031GA1021+004809099GF107991999999004501999999MW1251REMSYN064AAXX  29094 03021 41482 72819 10046 20026 72582 333 82916 87274;
0134030210999992000022912004+57150-007320FM-12+000699999V0202801N008212200019N0450001N1+00571+00431999999ADDAY181061AY211061GA1011+004809099GF102991999999004501999999MW1151REMSYN058AAXX  29124 03021 41483 22816 10057 20043 71581 333 81916;
0134030210999992000022915004+57150-007320FM-12+000699999V0203001N007212200019N0500001N1+00571+00411999999ADDAY181031AY211031GA1011+004809099GF102991999999004501999999MW1251REMSYN058AAXX  29154 03021 41484 23014 10057 20041 72581 333 81916;
0140030210999992000022918004+57150-007320FM-12+000699999V0203101N007212200019N0450001N1+00531+00261999999ADDAY181061AY211061GA1021+004809099GF104991999999004501999999MW1251REMSYN064AAXX  29184 03021 41483 43114 10053 20026 72581 333 82916 83075;
0134030210999992000022921004+57150-007320FM-12+000699999V0203301N007712200019N0500001N1+00401+00231999999ADDAY181031AY211031GA1011+004809099GF101991999999004501999999MW1251REMSYN058AAXX  29214 03021 41484 13315 10040 20023 72581 333 81916;
0134030210999992000030109004+57150-007320FM-12+000699999V0203501N007212200019N0450001N1+00311+00041999999ADDAY181031AY211031GA1011+005109099GF101991999999004501999999MW1151REMSYN058AAXX  01094 03021 41483 13514 10031 20004 71581 333 81917;
0140030210999992000030115004+57150-007320FM-12+000699999V0203201N003119999999N0150001N1+00471+00111999999ADDAY181031AY211031GA1021+005109099GF107991999999004501999999MW1801REMSYN064AAXX  01154 03021 41465 73206 10047 20011 78081 333 82917 86640;
0162030210999992000030118004+57150-007320FM-12+000699999V0203201N001010300019N0200001N1+00291+00061999999ADDAY181061AY211061GA1021+005409099GA2041+030009039GF107991999999004501999999MW1261REMSYN070AAXX  01184 03021 41470 73202 10029 20006 72681 333 82918 84360 87272;
0140030210999992000030121004+57150-007320FM-12+000699999V0201601N001519999999N0400001N1+00291+00161999999ADDAY181031AY221031GA1011+006009089GF108991999999008001999999MW1031REMSYN064AAXX  01214 03021 41582 81603 10029 20016 70382 333 81820 88468;
0162030210999992000030209004+57150-007320FM-12+000699999V0202501N011310039019N0110001N1+00781+00741999999ADDAY161031AY261031GA1021+002709079GA2051+003909079GF108991999999002501999999MW1611REMSYN070AAXX  02094 03021 41361 82522 10078 20074 76166 333 82709 85713 88628;
0162030210999992000030212004+57150-007320FM-12+000699999V0202801N009310072019N0200001N1+00721+00611999999ADDAY161061AY221061GA1011+003309079GA2051+007209069GF107991999999004501999999MW1211REMSYN070AAXX  02124 03021 41470 72818 10072 20061 72162 333 81711 85624 87635;
0140030210999992000030215004+57150-007320FM-12+000699999V0202801N012919999999N0180001N1+00621+00281999999ADDAY181031AY221031GA1021+005109089GF107991999999004501999999MW1801REMSYN064AAXX  02154 03021 41468 72825 10062 20028 78082 333 82817 87645;
0134030210999992000030218004+57150-007320FM-12+000699999V0202701N013412200019N0200001N1+00521+00251999999ADDAY181061AY211061GA1011+004509099GF102991999999004501999999MW1271REMSYN058AAXX  02184 03021 41470 22726 10052 20025 72781 333 81915;
0134030210999992000030221004+57150-007320FM-12+000699999V0203101N014412200019N0300001N1+00361+00211999999ADDAY181031AY211031GA1011+004809099GF101991999999004501999999MW1261REMSYN058AAXX  02214 03021 41480 13128 10036 20021 72681 333 81916;
0134030210999992000030312004+57150-007320FM-12+000699999V0203101N010810042019N0150001N1+00521-00101999999ADDAY181061AY211061GA1061+004209099GF107991999999004501999999MW1271REMSYN058AAXX  03124 03021 41465 73121 10052 21010 72781 333 86914;
0134030210999992000030315004+57150-007320FM-12+000699999V0203501N008712200019N0450001N1+00291+00021999999ADDAY181031AY211031GA1011+004509099GF101991999999004501999999MW1151REMSYN058AAXX  03154 03021 41483 13517 10029 20002 71581 333 81915;
0134030210999992000030318004+57150-007320FM-12+000699999V0203501N003112200019N0500001N1+00001-00031999999ADDAY181061AY211061GA1011+004509099GF101991999999004501999999MW1271REMSYN058AAXX  03184 03021 41484 13506 10000 21003 72781 333 81915;
0140030210999992000030321004+57150-007320FM-12+000699999V0203101N001519999999N0050001N1+00031-00031999999ADDAY181031AY211031GA1011+003609079GF107991999999004501999999MW1851REMSYN064AAXX  03214 03021 41450 73103 10003 21003 78581 333 81712 87914;
0140030210999992000030409004+57150-007320FM-12+000699999V0209999C000019999999N0025001N1-00021-00051999999ADDAY181031AY211031GA1011+002709079GF106991999999002501999999MW1851REMSYN064AAXX  04094 03021 41325 60000 11002 21005 78581 333 81709 86912;
0134030210999992000030412004+57150-007320FM-12+000699999V0203001N001012200019N0250001N1+00241+00171999999ADDAY181061AY211061GA1011+002709069GF102991999999002501999999MW1021REMSYN058AAXX  04124 03021 41375 23002 10024 20017 70281 333 81709;
0140030210999992000030415004+57150-007320FM-12+000699999V0203101N002619999999N0200001N1+00431+00041999999ADDAY111031AY211031GA1021+005409089GF107991999999004501999999MW1151REMSYN064AAXX  04154 03021 41470 73105 10043 20004 71511 333 82818 86078;
0140030210999992000030418004+57150-007320FM-12+000699999V0202601N001519999999N0400001N1+00311+00101999999ADDAY181061AY211061GA1011+005409089GF107991999999004501999999MW1151REMSYN064AAXX  04184 03021 41482 72603 10031 20010 71581 333 81818 87076;
0074030210999992000030420004+57150-007320FM-12+000699999V0209999C000019999999N9999999N1+99999+99999102541ADDMD1710021+9999REMSYN048AAXX  04204 03021 46/// /1400 21030 40254 57002;
0112030210999992000030421004+57150-007320FM-12+000699999V0201901N003619999999N0350001N1+00311+00161999999ADDGA1011+006009089GF108991999999008001999999REMSYN058AAXX  04214 03021 42581 81907 10031 20016 333 81820 88275;
0140030210999992000030509004+57150-007320FM-12+000699999V0202201N016410033019N0060001N1+00721+00661999999ADDAY161031AY251031GA1051+003309079GF108991999999004501999999MW1511REMSYN064AAXX  05094 03021 41456 82232 10072 20066 75165 333 85711 88630;
0162030210999992000030512004+57150-007320FM-12+000699999V0202301N014410030019N0050001N1+00831+00791999999ADDAY161061AY251061GA1031+002109079GA2051+003009079GF108991999999002501999999MW1511REMSYN070AAXX  05124 03021 41350 82328 10083 20079 75165 333 83707 85710 88624;
0162030210999992000030515004+57150-007320FM-12+000699999V0202401N014410018019N0050001N1+00881+00841999999ADDAY161031AY251031GA1021+001209079GA2051+001809079GF108991999999001501999999MW1511REMSYN070AAXX  05154 03021 41250 82428 10088 20084 75165 333 82704 85706 88709;
0140030210999992000030518004+57150-007320FM-12+000699999V0202401N013910006019N0034001N1+00891+00871999999ADDAY161061AY251061GA1051+000609079GF108991999999000751999999MW1511REMSYN064AAXX  05184 03021 41134 82427 10089 20087 75165 333 85702 88703;
0162030210999992000030521004+57150-007320FM-12+000699999V0202501N011810018019N0060001N1+00871+00791999999ADDAY161031AY251031GA1021+001209079GA2051+001809079GF108991999999001501999999MW1501REMSYN070AAXX  05214 03021 41256 82523 10087 20079 75065 333 82704 85706 88711;
0140030210999992000030609004+57150-007320FM-12+000699999V0202401N012919999999N0060001N1+00881+00861999999ADDAY161031AY251031GA1031+000909079GF108991999999001501999999MW1501REMSYN064AAXX  06094 03021 41256 82425 10088 20086 75065 333 83703 88704;
0134030210999992000030612004+57150-007320FM-12+000699999V0202501N014410006019N0045001N1+00991+00971999999ADDAY161061AY251061GA1081+000609069GF108991999999000751999999MW1201REMSYN058AAXX  06124 03021 41145 82528 10099 20097 72065 333 88702;
0134030210999992000030615004+57150-007320FM-12+000699999V0202501N011810006019N0050001N1+00991+00951999999ADDAY151031AY221031GA1081+000609069GF108991999999000751999999MW1501REMSYN058AAXX  06154 03021 41150 82523 10099 20095 75052 333 88702;
0134030210999992000030618004+57150-007320FM-12+000699999V0202501N011810006019N0040001N1+00931+00911999999ADDAY161061AY251061GA1081+000609069GF108991999999000751999999MW1511REMSYN058AAXX  06184 03021 41140 82523 10093 20091 75165 333 88702;
0140030210999992000030621004+57150-007320FM-12+000699999V0202501N012319999999N0050001N1+00911+00891999999ADDAY161031AY251031GA1021+000609079GF108991999999000751999999MW1201REMSYN064AAXX  06214 03021 41150 82524 10091 20089 72065 333 82702 88703;
0140030210999992000030709004+57150-007320FM-12+000699999V0202601N006219999999N0180001N1+00861+00841999999ADDAY151031AY221031GA1021+002109079GF108991999999002501999999MW1021REMSYN064AAXX  07094 03021 41368 82612 10086 20084 70252 333 82707 88645;
0140030210999992000030712004+57150-007320FM-12+000699999V0202501N008219999999N0200001N1+00991+00891999999ADDAY151061AY221061GA1031+002109079GF108991999999002501999999MW1021REMSYN064AAXX  07124 03021 41370 82516 10099 20089 70252 333 83707 88640;
0134030210999992000030715004+57150-007320FM-12+000699999V0202401N007210001519N0015001N1+00931+00911999999ADDAY151031AY241031GA1081+000159069GF108991999999000251999999MW1101REMSYN058AAXX  07154 03021 41015 82414 10093 20091 71054 333 88700;
0162030210999992000030718004+57150-007320FM-12+000699999V0202201N008710018019N0070001N1+00961+00941999999ADDAY161061AY251061GA1021+000909079GA2051+001809079GF108991999999001501999999MW1631REMSYN070AAXX  07184 03021 41257 82217 10096 20094 76365 333 82703 85706 88711;
0140030210999992000030721004+57150-007320FM-12+000699999V0202401N013919999999N0050001N1+00981+00961999999ADDAY161031AY251031GA1031+000909079GF108991999999001501999999MW1511REMSYN064AAXX  07214 03021 41250 82427 10098 20096 75165 333 83703 88705;
0140030210999992000030815004+57150-007320FM-12+000699999V0202601N009819999999N0080001N1+01001+00961999999ADDAY151031AY221031GA1031+002109079GF108991999999002501999999MW1101REMSYN064AAXX  08154 03021 41358 82619 10100 20096 71052 333 83707 88618;
0134030210999992000030818004+57150-007320FM-12+000699999V0202501N011810003019N0015001N1+00971+00951999999ADDAY151061AY221061GA1081+000309069GF108991999999000251999999MW1511REMSYN058AAXX  08184 03021 41015 82523 10097 20095 75152 333 88701;
0140030210999992000030821004+57150-007320FM-12+000699999V0202501N012319999999N0050001N1+00971+00931999999ADDAY151031AY221031GA1031+001509079GF108991999999001501999999MW1201REMSYN064AAXX  08214 03021 41250 82524 10097 20093 72052 333 83705 88707;
0134030210999992000030909004+57150-007320FM-12+000699999V0202901N003110006019N0025001N1+00821+00801999999ADDAY151031AY221031GA1081+000609069GF108991999999000751999999MW1501REMSYN058AAXX  09094 03021 41125 82906 10082 20080 75052 333 88702;
0162030210999992000030912004+57150-007320FM-12+000699999V0209999C000010015019N0030001N1+00871+00851999999ADDAY161061AY251061GA1021+000909079GA2051+001509079GF108991999999001501999999MW1611REMSYN070AAXX  09124 03021 41230 80000 10087 20085 76165 333 82703 85705 88708;
0140030210999992000030915004+57150-007320FM-12+000699999V0201301N001019999999N0045001N1+00781+00741999999ADDAY161031AY251031GA1031+001809079GF108991999999002501999999MW1501REMSYN064AAXX  09154 03021 41345 81302 10078 20074 75065 333 83706 88708;
0162030210999992000030918004+57150-007320FM-12+000699999V0202601N002610015019N0060001N1+00861+00821999999ADDAY161061AY251061GA1021+000609079GA2051+001509079GF108991999999000751999999MW1201REMSYN070AAXX  09184 03021 41156 82605 10086 20082 72065 333 82702 85705 88645;
0140030210999992000030921004+57150-007320FM-12+000699999V0202401N005119999999N0120001N1+00811+00791999999ADDAY161031AY251031GA1031+002709079GF108991999999002501999999MW1611REMSYN064AAXX  09214 03021 41362 82410 10081 20079 76165 333 83709 88628;
0162030210999992000031009004+57150-007320FM-12+000699999V0202301N011810072019N0070001N1+00931+00871999999ADDAY161031AY221031GA1021+002709079GA2051+007209069GF108991999999002501999999MW1601REMSYN070AAXX  10094 03021 41357 82323 10093 20087 76062 333 82709 85624 88656;
0162030210999992000031015004+57150-007320FM-12+000699999V0202701N009810078019N0300001N1+00981+00841999999ADDAY161031AY221031GA1011+003309079GA2061+007809069GF108991999999004501999999MW1021REMSYN070AAXX  10154 03021 41480 82719 10098 20084 70262 333 81711 86626 88645;
0118030210999992000031021004+57150-007320FM-12+000699999V0202901N01231030001CN0300001N1+00861+00601999999ADDGA1021+004809089GF107991021051004501081021REMSYN064AAXX  10214 03021 41480 72924 10086 20060 82582 333 82816 86628;
0112030210999992000031109004+57150-007320FM-12+000699999V0203001N008219999999N0400001N1+00761+00441999999ADDGA1011+006609089GF107991999999008001999999REMSYN058AAXX  11094 03021 42582 73016 10076 20044 333 81822 87640;
0112030210999992000031112004+57150-007320FM-12+000699999V0203101N008219999999N0400001N1+00851+00541999999ADDGA1011+006909089GF107991999999008001999999REMSYN058AAXX  11124 03021 42582 73116 10085 20054 333 81823 87640;
0106030210999992000031115004+57150-007320FM-12+000699999V0202801N008210105019N0400001N1+00881+00551999999ADDGA1071+010509059GF107991999999012501999999REMSYN052AAXX  11154 03021 42682 72816 10088 20055 333 87635;
0140030210999992000031121004+57150-007320FM-12+000699999V0202501N007219999999N0180001N1+00731+00641999999ADDAY151031AY221031GA1021+004509069GF108991999999004501999999MW1201REMSYN064AAXX  11214 03021 41468 82514 10073 20064 72052 333 82615 88624;
0162030210999992000031209004+57150-007320FM-12+000699999V0202201N009310015019N0060001N1+00901+00861999999ADDAY151031AY221031GA1021+000609079GA2061+001509079GF108991999999000751999999MW1101REMSYN070AAXX  12094 03021 41156 82218 10090 20086 71052 333 82702 86705 88711;
0134030210999992000031212004+57150-007320FM-12+000699999V0202401N007210001519N0008001N1+00931+00911999999ADDAY151061AY241061GA1081+000159069GF108991999999000251999999MW1501REMSYN058AAXX  12124 03021 41008 82414 10093 20091 75054 333 88700;
0162030210999992000031215004+57150-007320FM-12+000699999V0202201N008710015019N0070001N1+00981+00921999999ADDAY161031AY251031GA1021+000909079GA2051+001509079GF108991999999001501999999MW1211REMSYN070AAXX  12154 03021 41257 82217 10098 20092 72165 333 82703 85705 88706;
0134030210999992000031218004+57150-007320FM-12+000699999V0202401N008210006019N0045001N1+00901+00881999999ADDAY161061AY251061GA1081+000609069GF108991999999000751999999MW1611REMSYN058AAXX  12184 03021 41145 82416 10090 20088 76165 333 88702;
0162030210999992000031309004+57150-007320FM-12+000699999V0202401N003110015019N0120001N1+00821+00781999999ADDAY161031AY221031GA1021+000909079GA2051+001509079GF108991999999001501999999MW1211REMSYN070AAXX  13094 03021 41262 82406 10082 20078 72162 333 82703 85705 88616;
0140030210999992000031315004+57150-007320FM-12+000699999V0203001N008719999999N0350001N1+00731+00621999999ADDAY161031AY221031GA1021+005409069GF108991999999004501999999MW1021REMSYN064AAXX  13154 03021 41481 83017 10073 20062 70262 333 82618 88640;
0140030210999992000031318004+57150-007320FM-12+000699999V0203101N009319999999N0400001N1+00641+00361999999ADDAY161061AY221061GA1021+005109089GF107991999999004501999999MW1151REMSYN064AAXX  13184 03021 41482 73118 10064 20036 71562 333 82817 87273;
0140030210999992000031321004+57150-007320FM-12+000699999V0202801N006219999999N0400001N1+00531+00231999999ADDAY181031AY221031GA1021+005409089GF108991999999004501999999MW1251REMSYN064AAXX  13214 03021 41482 82812 10053 20023 72582 333 82818 88273;
0112030210999992000031409004+57150-007320FM-12+000699999V0203101N015419999999N0450001N1+00621-00031999999ADDGA1011+005409089GF107991999999004501999999REMSYN058AAXX  14094 03021 42483 73130 10062 21003 333 81818 87075;
0140030210999992000031412004+57150-007320FM-12+000699999V0203201N010819999999N0400001N1+00571+00061999999ADDAY181061AY221061GA1011+004809099GF107991999999004501999999MW1251REMSYN064AAXX  14124 03021 41482 73221 10057 20006 72582 333 81916 87645;
0140030210999992000031415004+57150-007320FM-12+000699999V0203201N010319999999N0450001N1+00581+00101999999ADDAY181031AY221031GA1021+005109089GF107991999999004501999999MW1251REMSYN064AAXX  14154 03021 41483 73220 10058 20010 72582 333 82817 87640;
0140030210999992000031418004+57150-007320FM-12+000699999V0203201N010819999999N0400001N1+00531+00121999999ADDAY181061AY221061GA1021+004509099GF107991999999004501999999MW1271REMSYN064AAXX  14184 03021 41482 73221 10053 20012 72782 333 82915 86640;
0162030210999992000031421004+57150-007320FM-12+000699999V0203001N008219999999N0400001N1+00611+00161999999ADDAY181031AY221031GA1011+005109089GA2031+013509069GF107991999999004501999999MW1021REMSYN070AAXX  14214 03021 41482 73016 10061 20016 70282 333 81817 83645 87364;
0162030210999992000031509004+57150-007320FM-12+000699999V0202701N007710048019N0110001N1+00751+00661999999ADDAY181031AY261031GA1021+001809079GA2031+004809089GF107991999999002501999999MW1251REMSYN070AAXX  15094 03021 41361 72715 10075 20066 72586 333 82706 83816 86635;
0140030210999992000031515004+57150-007320FM-12+000699999V0202601N009319999999N0070001N1+00891+00831999999ADDAY151031AY221031GA1031+000909079GF108991999999001501999999MW1101REMSYN064AAXX  15154 03021 41257 82618 10089 20083 71052 333 83703 88706;
0140030210999992000031518004+57150-007320FM-12+000699999V0202701N008219999999N0070001N1+00901+00841999999ADDAY151061AY221061GA1041+001209079GF108991999999001501999999MW1101REMSYN064AAXX  15184 03021 41257 82716 10090 20084 71052 333 84704 88706;
0140030210999992000031521004+57150-007320FM-12+000699999V0202501N006219999999N0120001N1+00871+00791999999ADDAY151031AY221031GA1031+002109079GF107991999999002501999999MW1101REMSYN064AAXX  15214 03021 41362 72512 10087 20079 71052 333 83707 87650;
0112030210999992000031609004+57150-007320FM-12+000699999V0202401N004119999999N0450001N1+00861+00731999999ADDGA1011+003309079GF108991999999004501999999REMSYN058AAXX  16094 03021 42483 82408 10086 20073 333 81711 88650;
0112030210999992000031612004+57150-007320FM-12+000699999V0202401N007219999999N0400001N1+01001+00861999999ADDGA1021+002709079GF107991999999002501999999REMSYN058AAXX  16124 03021 42382 72414 10100 20086 333 82709 87650;
0112030210999992000031615004+57150-007320FM-12+000699999V0202501N006219999999N0400001N1+00981+00731999999ADDGA1011+004509069GF107991999999004501999999REMSYN058AAXX  16154 03021 42482 72512 10098 20073 333 81615 87645;
0140030210999992000031618004+57150-007320FM-12+000699999V0202401N006219999999N0300001N1+00881+00751999999ADDAY181061AY221061GA1011+002709079GF107991999999002501999999MW1251REMSYN064AAXX  16184 03021 41380 72412 10088 20075 72582 333 81709 87635;
0112030210999992000031621004+57150-007320FM-12+000699999V0202301N008219999999N0250001N1+00841+00761999999ADDGA1031+002109079GF107991999999002501999999REMSYN058AAXX  16214 03021 42375 72316 10084 20076 333 83707 86645;
0140030210999992000031709004+57150-007320FM-12+000699999V0202401N006219999999N0200001N1+00841+00781999999ADDAY151031AY221031GA1031+001509079GF108991999999001501999999MW1201REMSYN064AAXX  17094 03021 41270 82412 10084 20078 72052 333 83705 88640;
0106030210999992000031715004+57150-007320FM-12+000699999V0203301N008710039019N0300001N1+00911+00721999999ADDGA1051+003909069GF105991999999004501999999REMSYN052AAXX  17154 03021 42480 53317 10091 20072 333 85713;
0106030210999992000031721004+57150-007320FM-12+000699999V0200201N000512200019N0400001N1+00431+00151999999ADDGA1011+010509059GF101991999999012501999999REMSYN052AAXX  17214 03021 42682 10201 10043 20015 333 81635;
0106030210999992000031809004+57150-007320FM-12+000699999V0201701N003112200019N0600001N1+00701+00371999999ADDGA1011+006609029GF101991999999008001999999REMSYN052AAXX  18094 03021 42586 11706 10070 20037 333 81822;
0112030210999992000031815004+57150-007320FM-12+000699999V0201901N006219999999N0550001N1+00911+00411999999ADDGA1011+006309069GF106991999999008001999999REMSYN058AAXX  18154 03021 42585 61912 10091 20041 333 81621 86075;
0112030210999992000031818004+57150-007320FM-12+000699999V0202001N007219999999N0200001N1+00741+00541999999ADDGA1011+003009079GF108991999999004501999999REMSYN058AAXX  18184 03021 42470 82014 10074 20054 333 81710 88619;
0140030210999992000031821004+57150-007320FM-12+000699999V0202601N006219999999N0300001N1+00851+00811999999ADDAY151031AY221031GA1021+002109079GF107991999999002501999999MW1201REMSYN064AAXX  18214 03021 41380 72612 10085 20081 72052 333 82707 87628;
0112030210999992000031909004+57150-007320FM-12+000699999V0202301N007219999999N0250001N1+00891+00831999999ADDGA1021+002709079GF107991999999002501999999REMSYN058AAXX  19094 03021 42375 72314 10089 20083 333 82709 87078;
0112030210999992000031912004+57150-007320FM-12+000699999V0202201N010819999999N0250001N1+01071+00911999999ADDGA1011+002709079GF106991999999002501999999REMSYN058AAXX  19124 03021 42375 62221 10107 20091 333 81709 86078;
0112030210999992000031915004+57150-007320FM-12+000699999V0202301N010319999999N0250001N1+01061+00841999999ADDGA1011+003609079GF107991999999004501999999REMSYN058AAXX  19154 03021 42475 72320 10106 20084 333 81712 87656;
0112030210999992000031918004+57150-007320FM-12+000699999V0202401N009819999999N0250001N1+00931+00791999999ADDGA1011+003009079GF107991999999004501999999REMSYN058AAXX  19184 03021 42475 72419 10093 20079 333 81710 87640;
0140030210999992000032009004+57150-007320FM-12+000699999V0202401N008210006019N0050001N1+00921+00911999999ADDAY151031AY221031GA1051+000609079GF108991999999000751999999MW1201REMSYN064AAXX  20094 03021 41150 82416 10092 20091 72052 333 85702 88704;
0134030210999992000032015004+57150-007320FM-12+000699999V0202401N007210006019N0040001N1+00941+00921999999ADDAY151031AY221031GA1081+000609069GF108991999999000751999999MW1201REMSYN058AAXX  20154 03021 41140 82414 10094 20092 72052 333 88702;
0140030210999992000032018004+57150-007320FM-12+000699999V0202401N009319999999N0180001N1+00921+00861999999ADDAY151061AY221061GA1031+001809079GF107991999999002501999999MW1021REMSYN064AAXX  20184 03021 41368 72418 10092 20086 70252 333 83706 87645;
0112030210999992000032021004+57150-007320FM-12+000699999V0202401N006219999999N0250001N1+00881+00801999999ADDGA1011+003609079GF108991999999004501999999REMSYN058AAXX  20214 03021 42475 82412 10088 20080 333 81712 88640;
0140030210999992000032109004+57150-007320FM-12+000699999V0203501N007219999999N0450001N1+00571+00331999999ADDAY181031AY221031GA1021+005409089GF106991999999004501999999MW1011REMSYN064AAXX  21094 03021 41483 63514 10057 20033 70182 333 82818 85075;
0140030210999992000032112004+57150-007320FM-12+000699999V0203301N008219999999N0500001N1+00811-00071999999ADDAY181061AY221061GA1011+006609089GF105991999999008001999999MW1011REMSYN064AAXX  21124 03021 41584 53316 10081 21007 70182 333 81822 85359;
0106030210999992000032115004+57150-007320FM-12+000699999V0202801N003112200019N0400001N1+00781+00081999999ADDGA1021+006909029GF102991999999008001999999REMSYN052AAXX  21154 03021 42582 22806 10078 20008 333 82823;
0106030210999992000032118004+57150-007320FM-12+000699999V0202901N004112200019N0600001N1+00641+00081999999ADDGA1021+006609029GF102991999999008001999999REMSYN052AAXX  21184 03021 42586 22908 10064 20008 333 82822;
0106030210999992000032121004+57150-007320FM-12+000699999V0200301N000512200019N0600001N1+00231+00041999999ADDGA1011+006309029GF101991999999008001999999REMSYN052AAXX  21214 03021 42586 10301 10023 20004 333 81821;
0112030210999992000032209004+57150-007320FM-12+000699999V0209999C000019999999N0550001N1+00471+00251999999ADDGA1011+006009089GF107991999999008001999999REMSYN058AAXX  22094 03021 42585 70000 10047 20025 333 81820 87075;
0106030210999992000032215004+57150-007320FM-12+000699999V0201301N006210057019N0600001N1+00701+00211999999ADDGA1051+005709029GF105991999999004501999999REMSYN052AAXX  22154 03021 42486 51312 10070 20021 333 85819;
0134030210999992000032218004+57150-007320FM-12+000699999V0209999C000012200019N0400001N1+00631+00221999999ADDAY111061AY211061GA1021+005709029GF103991999999004501999999MW1151REMSYN058AAXX  22184 03021 41482 30000 10063 20022 71511 333 82819;
0106030210999992000032221004+57150-007320FM-12+000699999V0209999C000012200019N0500001N1+00241+00081999999ADDGA1011+006009029GF102991999999008001999999REMSYN052AAXX  22214 03021 42584 20000 10024 20008 333 81820;
0112030210999992000032309004+57150-007320FM-12+000699999V0201201N011319999999N0450001N1+00601+00061999999ADDGA1011+006309069GF108991999999008001999999REMSYN058AAXX  23094 03021 42583 81222 10060 20006 333 81621 88275;
0112030210999992000032312004+57150-007320FM-12+000699999V0201101N012919999999N0450001N1+00781+00141999999ADDGA1011+006609089GF108991999999008001999999REMSYN058AAXX  23124 03021 42583 81125 10078 20014 333 81822 88275;
0112030210999992000032315004+57150-007320FM-12+000699999V0201101N012319999999N0250001N1+00811+00371999999ADDGA1021+006909069GF108991999999008001999999REMSYN058AAXX  23154 03021 42575 81124 10081 20037 333 82623 88656;
0140030210999992000032318004+57150-007320FM-12+000699999V0201101N012319999999N0250001N1+00721+00441999999ADDAY161061AY221061GA1031+005409069GF108991999999004501999999MW1211REMSYN064AAXX  23184 03021 41475 81124 10072 20044 72162 333 83618 88650;
0140030210999992000032321004+57150-007320FM-12+000699999V0201201N011819999999N0080001N1+00681+00481999999ADDAY161031AY221031GA1021+004809069GF108991999999004501999999MW1621REMSYN064AAXX  23214 03021 41458 81223 10068 20048 76262 333 82616 88635;
0162030210999992000032409004+57150-007320FM-12+000699999V0201501N008210150019N0200001N1+00701+00521999999ADDAY161031AY221031GA1011+003909079GA2051+015009069GF108991999999004501999999MW1211REMSYN070AAXX  24094 03021 41470 81516 10070 20052 72162 333 81713 85650 88361;
0134030210999992000032418004+57150-007320FM-12+000699999V0201701N003112200019N0150001N1+00681+00431999999ADDAY181061AY211061GA1031+004809099GF104991999999004501999999MW1271REMSYN058AAXX  24184 03021 41465 41706 10068 20043 72781 333 83916;
0140030210999992000032421004+57150-007320FM-12+000699999V0202001N006219999999N0050001N1+00611+00401999999ADDAY181031AY211031GA1011+003309079GF106991999999004501999999MW1811REMSYN064AAXX  24214 03021 41450 62012 10061 20040 78181 333 81711 86916;
0162030210999992000032509004+57150-007320FM-12+000699999V0201601N011819999999N0250001N1+00601+00291999999ADDAY181031AY221031GA1011+004809099GA2031+005409089GF107991999999004501999999MW1151REMSYN070AAXX  25094 03021 41475 71623 10060 20029 71582 333 81916 83818 87650;
0162030210999992000032512004+57150-007320FM-12+000699999V0201601N011319999999N0200001N1+00621+00481999999ADDAY181061AY221061GA1011+002709079GA2021+004509099GF107991999999002501999999MW1251REMSYN070AAXX  25124 03021 41370 71622 10062 20048 72582 333 81709 82915 87075;
0140030210999992000032515004+57150-007320FM-12+000699999V0201901N009312200019N0250001N1+00811+00521999999ADDAY181031AY211031GA1011+003309079GF104991999999004501999999MW1271REMSYN064AAXX  25154 03021 41475 41918 10081 20052 72781 333 81711 83915;
0140030210999992000032518004+57150-007320FM-12+000699999V0201801N008212200019N0450001N1+00731+00441999999ADDAY181061AY211061GA1011+003609079GF101991999999004501999999MW1151REMSYN064AAXX  25184 03021 41483 11816 10073 20044 71581 333 81712 81915;
0140030210999992000032521004+57150-007320FM-12+000699999V0201701N007719999999N0040001N1+00521+00411999999ADDAY181031AY211031GA1021+003009079GF107991999999004501999999MW1811REMSYN064AAXX  25214 03021 41440 71715 10052 20041 78181 333 82710 87913;
0112030210999992000032609004+57150-007320FM-12+000699999V0200301N006212200019N0550001N1+00811+00571999999ADDGA1011+003909079GF103991999999004501999999REMSYN058AAXX  26094 03021 42485 30312 10081 20057 333 81713 83360;
0140030210999992000032612004+57150-007320FM-12+000699999V0200301N007719999999N0450001N1+00871+00461999999ADDAY111061AY211061GA1021+004509099GF105991999999004501999999MW1151REMSYN064AAXX  26124 03021 41483 50315 10087 20046 71511 333 82915 83817;
0134030210999992000032615004+57150-007320FM-12+000699999V0209999C000012200019N0250001N1+00821+00601999999ADDAY181031AY211031GA1031+004809099GF104991999999004501999999MW1251REMSYN058AAXX  26154 03021 41475 40000 10082 20060 72581 333 83916;
0134030210999992000032618004+57150-007320FM-12+000699999V0209999C000012200019N0550001N1+00851+00571999999ADDAY181061AY211061GA1011+005109099GF101991999999004501999999MW1011REMSYN058AAXX  26184 03021 41485 10000 10085 20057 70181 333 81917;
0106030210999992000032709004+57150-007320FM-12+000699999V0200401N008212200019N0450001N1+00591+00331999999ADDGA1011+005709029GF102991999999004501999999REMSYN052AAXX  27094 03021 42483 20416 10059 20033 333 81819;
0112030210999992000032715004+57150-007320FM-12+000699999V0200501N004112200019N0600001N1+00801+00111999999ADDGA1011+048009039GF103991999999999999999999REMSYN058AAXX  27154 03021 42986 30508 10080 20011 333 81366 83080;
0106030210999992000032718004+57150-007320FM-12+000699999V0200401N006210840019N0550001N1+00761+00121999999ADDGA1061+084009019GF106991999999999999999999REMSYN052AAXX  27184 03021 42985 60412 10076 20012 333 86078;
0112030210999992000032721004+57150-007320FM-12+000699999V0200601N001019999999N0450001N1+00501+00231999999ADDGA1031+042009039GF107991999999999999999999REMSYN058AAXX  27214 03021 42983 70602 10050 20023 333 83364 87076;
0112030210999992000032809004+57150-007320FM-12+000699999V0201001N001519999999N0450001N1+00731+00481999999ADDGA1011+005709069GF107991999999004501999999REMSYN058AAXX  28094 03021 42483 71003 10073 20048 333 81619 87364;
0112030210999992000032812004+57150-007320FM-12+000699999V0201001N003119999999N0450001N1+00861+00531999999ADDGA1011+005409069GF107991999999004501999999REMSYN058AAXX  28124 03021 42483 71006 10086 20053 333 81618 87362;
0106030210999992000032815004+57150-007320FM-12+000699999V0202401N003110420019N0500001N1+01121+00331999999ADDGA1071+042009079GF107991999999999999999999REMSYN052AAXX  28154 03021 42984 72406 10112 20033 333 87364;
0106030210999992000032821004+57150-007320FM-12+000699999V0209999C000010330019N0500001N1+00661+00461999999ADDGA1071+033009079GF107991999999999999999999REMSYN052AAXX  28214 03021 42984 70000 10066 20046 333 87361;
0140030210999992000032909004+57150-007320FM-12+000699999V0200101N001019999999N0300001N1+00511+00441999999ADDAY161031AY221031GA1041+030009039GF107991999999999999999999MW1021REMSYN064AAXX  29094 03021 41980 70102 10051 20044 70262 333 84360 86364;
0112030210999992000032915004+57150-007320FM-12+000699999V0201201N001510057019N0400001N1+00901+00671999999ADDGA1051+005709069GF107991999999004501999999REMSYN058AAXX  29154 03021 42482 71203 10090 20067 333 85619 87362;
0134030210999992000032918004+57150-007320FM-12+000699999V0200201N002610240019N0450001N1+00911+00831999999ADDGA1011+005109069GA2051+024009039GF107991999999004501999999REMSYN064AAXX  29184 03021 42483 70205 10091 20083 333 81617 85358 87362;
0134030210999992000032921004+57150-007320FM-12+000699999V0200301N003110210019N0400001N1+00751+00551999999ADDGA1021+004809069GA2041+021009039GF107991999999004501999999REMSYN064AAXX  29214 03021 42482 70306 10075 20055 333 82616 84357 87362;
0112030210999992000033009004+57150-007320FM-12+000699999V0200201N000519999999N0450001N1+00931+00631999999ADDGA1011+005709089GF107991999999004501999999REMSYN058AAXX  30094 03021 42483 70201 10093 20063 333 81819 87073;
0112030210999992000033012004+57150-007320FM-12+000699999V0203501N004119999999N0450001N1+00941+00571999999ADDGA1011+006009069GF107991999999008001999999REMSYN058AAXX  30124 03021 42583 73508 10094 20057 333 81620 87628;
0134030210999992000033015004+57150-007320FM-12+000699999V0203001N003619999999N0450001N1+00961+00591999999ADDGA1011+005109069GA2031+008409069GF107991999999004501999999REMSYN064AAXX  30154 03021 42483 73007 10096 20059 333 81617 83628 87361;
0112030210999992000033018004+57150-007320FM-12+000699999V0203301N003119999999N0400001N1+00831+00571999999ADDGA1011+003909079GF107991999999004501999999REMSYN058AAXX  30184 03021 42482 73306 10083 20057 333 81713 87361;
0112030210999992000033021004+57150-007320FM-12+000699999V0203401N000519999999N0350001N1+00671+00531999999ADDGA1011+003609079GF107991999999004501999999REMSYN058AAXX  30214 03021 42481 73401 10067 20053 333 81712 87361;
0162030210999992000033109004+57150-007320FM-12+000699999V0202501N002610024019N0060001N1+00691+00631999999ADDAY161031AY251031GA1031+001809079GA2051+002409079GF108991999999002501999999MW1611REMSYN070AAXX  31094 03021 41356 82505 10069 20063 76165 333 83706 85708 88711;
0162030210999992000033112004+57150-007320FM-12+000699999V0202501N001010033019N0080001N1+00801+00671999999ADDAY161061AY251061GA1021+002709079GA2031+003309079GF108991999999002501999999MW1611REMSYN070AAXX  31124 03021 41358 82502 10080 20067 76165 333 82709 83711 88630;
0162030210999992000033115004+57150-007320FM-12+000699999V0202401N002610036019N0120001N1+00791+00681999999ADDAY161031AY261031GA1021+002709079GA2041+003609079GF108991999999002501999999MW1611REMSYN070AAXX  31154 03021 41362 82405 10079 20068 76166 333 82709 84712 88650;
0162030210999992000033118004+57150-007320FM-12+000699999V0209999C000010036019N0140001N1+00681+00551999999ADDAY161061AY261061GA1031+003009079GA2041+003609079GF108991999999004501999999MW1611REMSYN070AAXX  31184 03021 41464 80000 10068 20055 76166 333 83710 84712 88645;
0162030210999992000033121004+57150-007320FM-12+000699999V0200401N001019999999N0200001N1+00571+00481999999ADDAY161031AY261031GA1021+005409069GA2031+030009039GF108991999999004501999999MW1211REMSYN070AAXX  31214 03021 41470 80402 10057 20048 72166 333 82618 83360 88272;
0140030210999992000040109004+57150-007320FM-12+000699999V0200301N008719999999N0080001N1+00611+00501999999ADDAY161031AY261031GA1021+003309079GF108991999999004501999999MW1631REMSYN064AAXX  01094 03021 41458 80317 10061 20050 76366 333 82711 88650;
0140030210999992000040112004+57150-007320FM-12+000699999V0200401N011819999999N0070001N1+00531+00421999999ADDAY161061AY261061GA1031+003009079GF108991999999004501999999MW1631REMSYN064AAXX  01124 03021 41457 80423 10053 20042 76366 333 83710 88635;
0162030210999992000040115004+57150-007320FM-12+000699999V0200401N014410048019N0090001N1+00451+00311999999ADDAY161031AY261031GA1011+003309079GA2061+004809069GF108991999999004501999999MW1611REMSYN070AAXX  01154 03021 41459 80428 10045 20031 76166 333 81711 86616 88630;
0162030210999992000040118004+57150-007320FM-12+000699999V0200401N013410048019N0120001N1+00401+00201999999ADDAY161061AY261061GA1011+003909079GA2061+004809069GF108991999999004501999999MW1611REMSYN070AAXX  01184 03021 41462 80426 10040 20020 76166 333 81713 86616 88635;
0162030210999992000040121004+57150-007320FM-12+000699999V0200401N013410120019N0200001N1+00371+00111999999ADDAY161031AY221031GA1021+004809069GA2031+012009069GF108991999999004501999999MW1211REMSYN070AAXX  01214 03021 41470 80426 10037 20011 72162 333 82616 83640 88272;
0140030210999992000040209004+57150-007320FM-12+000699999V0200301N014419999999N0012001N1+00111+00031999999ADDAY171031AY261031GA1021+002709079GF108991999999002501999999MW1711REMSYN064AAXX  02094 03021 41312 80328 10011 20003 77176 333 82709 88618;
0162030210999992000040212004+57150-007320FM-12+000699999V0200401N015910048019N0070001N1+00231+00121999999ADDAY171061AY261061GA1031+002709079GA2051+004809069GF108991999999002501999999MW1681REMSYN070AAXX  02124 03021 41357 80431 10023 20012 76876 333 83709 85616 88635;
0140030210999992000040215004+57150-007320FM-12+000699999V0200401N015419999999N0140001N1+00361-00111999999ADDAY181031AY271031GA1021+004509089GF108991999999004501999999MW1261REMSYN064AAXX  02154 03021 41464 80430 10036 21011 72687 333 82815 88640;
0140030210999992000040218004+57150-007320FM-12+000699999V0200301N014419999999N0300001N1+00301-00241999999ADDAY181061AY271061GA1021+004209099GF107991999999004501999999MW1261REMSYN064AAXX  02184 03021 41480 70328 10030 21024 72687 333 82914 85075;
0140030210999992000040221004+57150-007320FM-12+000699999V0200401N014919999999N0250001N1+00171-00111999999ADDAY181031AY221031GA1031+004209099GF105991999999004501999999MW1261REMSYN064AAXX  02214 03021 41475 50429 10017 21011 72682 333 83914 83816;
0134030210999992000040309004+57150-007320FM-12+000699999V0200201N011312200019N0450001N1+00211-00541999999ADDAY111031AY211031GA1011+004809099GF102991999999004501999999MW1151REMSYN058AAXX  03094 03021 41483 20222 10021 21054 71511 333 81916;
0134030210999992000040312004+57150-007320FM-12+000699999V0200201N010310054019N0400001N1+00331-00271999999ADDAY181061AY211061GA1061+005409029GF106991999999004501999999MW1261REMSYN058AAXX  03124 03021 41482 60220 10033 21027 72681 333 86818;
0134030210999992000040315004+57150-007320FM-12+000699999V0203601N009812200019N0550001N1+00381-00541999999ADDAY181031AY211031GA1011+004809099GF102991999999004501999999MW1021REMSYN058AAXX  03154 03021 41485 23619 10038 21054 70281 333 81916;
0134030210999992000040321004+57150-007320FM-12+000699999V0200101N008212200019N0500001N1+00131-00221999999ADDAY181031AY211031GA1011+004809099GF101991999999004501999999MW1021REMSYN058AAXX  03214 03021 41484 10116 10013 21022 70281 333 81916;
0106030210999992000040409004+57150-007320FM-12+000699999V0200301N008712200019N0650001N1+00371-00361999999ADDGA1011+006609029GF101991999999008001999999REMSYN052AAXX  04094 03021 42587 10317 10037 21036 333 81822;
0112030210999992000040415004+57150-007320FM-12+000699999V0203401N005112200019N0750001N1+00701-00151999999ADDGA1011+006909089GF103991999999008001999999REMSYN058AAXX  04154 03021 42589 33410 10070 21015 333 81823 83635;
0106030210999992000040418004+57150-007320FM-12+000699999V0203401N004112200019N0700001N1+00521-00121999999ADDGA1011+005409099GF101991999999004501999999REMSYN052AAXX  04184 03021 42488 13408 10052 21012 333 81918;
0106030210999992000040421004+57150-007320FM-12+000699999V0200201N000512200019N0550001N1+00121-00021999999ADDGA1011+006009029GF101991999999008001999999REMSYN052AAXX  04214 03021 42585 10201 10012 21002 333 81820;
0112030210999992000040509004+57150-007320FM-12+000699999V0201001N000512200019N0550001N1+00121-00021999999ADDGA1011+006609089GF103991999999008001999999REMSYN058AAXX  05094 03021 42585 31001 10012 21002 333 81822 83078;
0112030210999992000040515004+57150-007320FM-12+000699999V0202401N009312200019N0600001N1+00901+00351999999ADDGA1011+006909089GF103991999999008001999999REMSYN058AAXX  05154 03021 42586 32418 10090 20035 333 81823 83080;
0112030210999992000040518004+57150-007320FM-12+000699999V0202201N007219999999N0500001N1+00701+00241999999ADDGA1011+006609089GF107991999999008001999999REMSYN058AAXX  05184 03021 42584 72214 10070 20024 333 81822 87076;
0112030210999992000040521004+57150-007320FM-12+000699999V0202101N006219999999N0450001N1+00561+00161999999ADDGA1011+006009069GF106991999999008001999999REMSYN058AAXX  05214 03021 42583 62112 10056 20016 333 81620 86075;
0112030210999992000040609004+57150-007320FM-12+000699999V0202101N008219999999N0500001N1+00881+00351999999ADDGA1011+006609089GF107991999999008001999999REMSYN058AAXX  06094 03021 42584 72116 10088 20035 333 81822 87076;
0112030210999992000040612004+57150-007320FM-12+000699999V0202201N009319999999N0500001N1+00961+00231999999ADDGA1011+006909089GF107991999999008001999999REMSYN058AAXX  06124 03021 42584 72218 10096 20023 333 81823 87076;
0112030210999992000040615004+57150-007320FM-12+000699999V0202101N011319999999N0500001N1+00991+00241999999ADDGA1031+007509089GF107991999999008001999999REMSYN058AAXX  06154 03021 42584 72122 10099 20024 333 83825 87076;
0134030210999992000040618004+57150-007320FM-12+000699999V0201901N008710240019N0450001N1+00811+00401999999ADDGA1011+006909089GA2071+024009039GF107991999999008001999999REMSYN064AAXX  06184 03021 42583 71917 10081 20040 333 81823 87358 87076;
0140030210999992000041509004+57150-007320FM-12+000699999V0201901N009819999999N0100001N1+00511+00461999999ADDAY161031AY261031GA1021+003909079GF108991999999004501999999MW1631REMSYN064AAXX  15094 03021 41460 81919 10051 20046 76366 333 82713 88624;
0140030210999992000041512004+57150-007320FM-12+000699999V0201601N011310054019N0120001N1+00501+00341999999ADDAY161061AY221061GA1061+005409069GF108991999999004501999999MW1601REMSYN064AAXX  15124 03021 41462 81622 10050 20034 76062 333 86618 88635;
0140030210999992000041515004+57150-007320FM-12+000699999V0201301N009319999999N0140001N1+00621+00481999999ADDAY181031AY261031GA1031+004809099GF108991999999004501999999MW1801REMSYN064AAXX  15154 03021 41464 81318 10062 20048 78086 333 83916 88645;
0140030210999992000041521004+57150-007320FM-12+000699999V0201301N008219999999N0400001N1+00621+00061999999ADDAY181031AY221031GA1011+006609089GF107991999999008001999999MW1021REMSYN064AAXX  15214 03021 41582 71316 10062 20006 70282 333 81822 87072;
0106030210999992000041609004+57150-007320FM-12+000699999V0200901N007712200019N0500001N1+00671-00031999999ADDGA1011+006309029GF101991999999008001999999REMSYN052AAXX  16094 03021 42584 10915 10067 21003 333 81821;
0106030210999992000041612004+57150-007320FM-12+000699999V0200901N008712200019N0550001N1+00731-00021999999ADDGA1031+006609029GF103991999999008001999999REMSYN052AAXX  16124 03021 42585 30917 10073 21002 333 83822;
0106030210999992000041615004+57150-007320FM-12+000699999V0200601N007212200019N0650001N1+00911+00191999999ADDGA1011+006909029GF101991999999008001999999REMSYN052AAXX  16154 03021 42587 10614 10091 20019 333 81823;
0112030210999992000041709004+57150-007320FM-12+000699999V0200601N003119999999N0600001N1+00621+00091999999ADDGA1011+006009089GF107991999999008001999999REMSYN058AAXX  17094 03021 42586 70606 10062 20009 333 81820 87075;
0112030210999992000041715004+57150-007320FM-12+000699999V0200501N009819999999N0500001N1+00731+00251999999ADDGA1011+005709089GF108991999999004501999999REMSYN058AAXX  17154 03021 42484 80519 10073 20025 333 81819 88270;
0112030210999992000041718004+57150-007320FM-12+000699999V0200301N010319999999N0500001N1+00631+00131999999ADDGA1011+006309089GF107991999999008001999999REMSYN058AAXX  17184 03021 42584 70320 10063 20013 333 81821 87272;
0112030210999992000041809004+57150-007320FM-12+000699999V0203301N006219999999N0450001N1+00711+00381999999ADDGA1021+005109089GF107991999999004501999999REMSYN058AAXX  18094 03021 42483 73312 10071 20038 333 82817 87635;
0112030210999992000041812004+57150-007320FM-12+000699999V0203101N005119999999N0450001N1+00761+00311999999ADDGA1011+005409089GF107991999999004501999999REMSYN058AAXX  18124 03021 42483 73110 10076 20031 333 81818 87635;
0112030210999992000041815004+57150-007320FM-12+000699999V0202601N004112200019N0500001N1+00831+00231999999ADDGA1011+006609089GF104991999999008001999999REMSYN058AAXX  18154 03021 42584 42608 10083 20023 333 81822 84075;
0106030210999992000041818004+57150-007320FM-12+000699999V0202801N003112200019N0500001N1+00721+00441999999ADDGA1011+006309059GF101991999999008001999999REMSYN052AAXX  18184 03021 42584 12806 10072 20044 333 81621;
0112030210999992000041821004+57150-007320FM-12+000699999V0202801N000519999999N0550001N1+00571+00141999999ADDGA1011+006609069GF105991999999008001999999REMSYN058AAXX  18214 03021 42585 52801 10057 20014 333 81622 85075;
0106030210999992000041909004+57150-007320FM-12+000699999V0200801N003112200019N0450001N1+00711+00461999999ADDGA1011+003309069GF101991999999004501999999REMSYN052AAXX  19094 03021 42483 10806 10071 20046 333 81711;
0106030210999992000041912004+57150-007320FM-12+000699999V0201001N007212200019N0250001N1+01001+00521999999ADDGA1011+006609029GF101991999999008001999999REMSYN052AAXX  19124 03021 42575 11014 10100 20052 333 81822;
0112030210999992000041915004+57150-007320FM-12+000699999V0201101N007719999999N0350001N1+01091+00471999999ADDGA1011+036009039GF106991999999999999999999REMSYN058AAXX  19154 03021 42981 61115 10109 20047 333 81362 86072;
0162030210999992000041918004+57150-007320FM-12+000699999V0201301N011310084019N0110001N1+00771+00401999999ADDAY161061AY211061GA1021+005109069GA2051+008409069GF108991999999004501999999MW1601REMSYN070AAXX  19184 03021 41461 81322 10077 20040 76061 333 82617 85628 88650;
0140030210999992000041921004+57150-007320FM-12+000699999V0201201N012319999999N0250001N1+00771+00501999999ADDAY161031AY221031GA1031+005409069GF108991999999004501999999MW1211REMSYN064AAXX  19214 03021 41475 81224 10077 20050 72162 333 83618 88640;
0134030210999992000042009004+57150-007320FM-12+000699999V0201501N009812200019N0140001N1+01011+00801999999ADDAY161031AY211031GA1021+003309069GF102991999999004501999999MW1051REMSYN058AAXX  20094 03021 41464 21519 10101 20080 70561 333 82711;
