0199063560999992000010100004+51870+005150FM-12+000199999V0202001N003019999999N9999999N1+00481+00431999999ADDAA106000091OA140199999OA249900311OA359999999REMSYN092AAXX  01001 06356 36/// /2003 10048 20043 4//// 5//// 333 91005 91106 91203 555 51105 51203;EQDQ01  00002PRCP06Q02  00262WGOSPDQ03  00152WGOSPD
0129063560999992000010101004+51870+005150FM-12+000199999V0202101N003019999999N9999999N1+00491+00461999999ADDOA140199999OA249900311REMSYN076AAXX  01011 06356 46/// /2103 10049 20046 4//// 5//// 333 91005 91106 91204;EQDQ01  00262WGOSPD
0085063560999992000010102004+51870+005150FM-12+000199999V02099999999999999999N9999999N1+99999+99999999999REMSYN076AAXX  01021 06356 46/// /19// 1//// 2//// 4//// 5//// 333 910// 911// 912//;
0128063560999992000010104004+51870+005150FM-12+000199999V0202101N004019999999N9999999N1+00541+00511999999ADDOA159999999REMSYN086AAXX  01041 06356 46/// /2104 10054 20051 4//// 5//// 333 910// 911// 91204 555 53000;EQDQ01  00212WGOSPD
0182063560999992000010105004+51870+005150FM-12+000199999V0202101N004019999999N9999999N1+00541+00521999999ADDOA140199999OA249999999OA359999999REMSYN086AAXX  01051 06356 46/// /2104 10054 20052 4//// 5//// 333 91005 91106 91204 555 53000;EQDQ01  00262WGOSPDQ02  00312WGOSPDQ03  00212WGOSPD
0248063560999992000010106004+51870+005150FM-12+000199999V0202101N004019999999N9999999N1+00551+00541999999ADDAA112001091IA2999+00409KA1120N+00431OA140199999OA249999999OA359999999REMSYN116AAXX  01061 06356 16/// /2104 10055 20054 4//// 5//// 69992 333 20043 3/004 91005 91106 91204 555 51106 51204 53000;EQDQ01  00262WGOSPDQ02  00312WGOSPDQ03  00212WGOSPD
0182063560999992000010107004+51870+005150FM-12+000199999V0202301N004019999999N9999999N1+00581+00561999999ADDOA140199999OA249999999OA359999999REMSYN086AAXX  01071 06356 46/// /2304 10058 20056 4//// 5//// 333 91006 91106 91204 555 53000;EQDQ01  00312WGOSPDQ02  00312WGOSPDQ03  00212WGOSPD
0194063560999992000010108004+51870+005150FM-12+000199999V0202501N004019999999N9999999N1+00601+00591999999ADDOA140199999OA249999999OA359999999REMSYN098AAXX  01081 06356 46/// /2504 10060 20059 4//// 5//// 333 91006 91106 91204 555 20043 40039 53000;EQDQ01  00312WGOSPDQ02  00312WGOSPDQ03  00212WGOSPD
0155063560999992000010110004+51870+005150FM-12+000199999V02099999999999999999N9999999N1+00711+00701999999ADDOA140199999OA249999999REMSYN086AAXX  01101 06356 46/// /26// 10071 20070 4//// 5//// 333 91005 91106 912// 555 53012;EQDQ01  00262WGOSPDQ02  00312WGOSPD
0182063560999992000010111004+51870+005150FM-12+000199999V0202801N004019999999N9999999N1+00781+00771999999ADDOA140199999OA249999999OA359999999REMSYN086AAXX  01111 06356 46/// /2804 10078 20077 4//// 5//// 333 91005 91105 91204 555 53020;EQDQ01  00262WGOSPDQ02  00262WGOSPDQ03  00212WGOSPD
0157063560999992000010112004+51870+005150FM-12+000199999V0203001N005019999999N9999999N1+99999+99999999999ADDAA106000191OA159999999REMSYN104AAXX  01121 06356 16/// /3005 1//// 2//// 4//// 5//// 69921 333 910// 911// 91205 555 511// 51205 53022;EQDQ01  00262WGOSPD
0182063560999992000010113004+51870+005150FM-12+000199999V0203301N004019999999N9999999N1+00811+00761999999ADDOA140199999OA249999999OA359999999REMSYN086AAXX  01131 06356 46/// /3304 10081 20076 4//// 5//// 333 91006 91106 91205 555 53015;EQDQ01  00312WGOSPDQ02  00312WGOSPDQ03  00262WGOSPD
0166063560999992000010114004+51870+005150FM-12+000199999V0203101N002019999999N9999999N1+00801+00731999999ADDOA140199999OA249900261OA359999999REMSYN086AAXX  01141 06356 46/// /3102 10080 20073 4//// 5//// 333 91003 91105 91203 555 53013;EQDQ01  00152WGOSPDQ02  00152WGOSPD
0182063560999992000010116004+51870+005150FM-12+000199999V0203101N002019999999N9999999N1+99999+99999999999ADDOA140199999OA249999999OA359999999REMSYN086AAXX  01161 06356 46/// /3102 1//// 2//// 4//// 5//// 333 91003 91103 91202 555 53001;EQDQ01  00152WGOSPDQ02  00152WGOSPDQ03  00102WGOSPD
0150063560999992000010117004+51870+005150FM-12+000199999V0202601N001019999999N9999999N1+99999+99999999999ADDOA140100101OA249900151OA359999999REMSYN086AAXX  01171 06356 46/// /2601 1//// 2//// 4//// 5//// 333 91002 91103 91201 555 53000;EQDQ01  00052WGOSPD
0129063560999992000010118004+51870+005150FM-12+000199999V02099999999999999999N9999999N1+99999+99999999999ADDKA1120M+00831REMSYN104AAXX  01181 06356 46/// ///// 1//// 2//// 4//// 5//// 333 10083 910// 911// 912// 555 511// 512// 53///;
0182063560999992000010119004+51870+005150FM-12+000199999V0202101N004019999999N9999999N1+00581+00501999999ADDOA140199999OA249999999OA359999999REMSYN086AAXX  01191 06356 46/// /2104 10058 20050 4//// 5//// 333 91006 91106 91204 555 53000;EQDQ01  00312WGOSPDQ02  00312WGOSPDQ03  00212WGOSPD
0182063560999992000010120004+51870+005150FM-12+000199999V0202501N004019999999N9999999N1+00641+00571999999ADDOA140199999OA249999999OA359999999REMSYN086AAXX  01201 06356 46/// /2504 10064 20057 4//// 5//// 333 91005 91105 91204 555 53000;EQDQ01  00262WGOSPDQ02  00262WGOSPDQ03  00212WGOSPD
0145063560999992000010122004+51870+005150FM-12+000199999V02099999999999999999N9999999N1+00621+00581999999ADDOA140199999OA249999999REMSYN076AAXX  01221 06356 46/// ///// 10062 20058 4//// 5//// 333 91005 91106 912//;EQDQ01  00262WGOSPDQ02  00312WGOSPD
0129063560999992000010123004+51870+005150FM-12+000199999V0202401N002019999999N9999999N1+00601+00571999999ADDOA140199999OA249900311REMSYN076AAXX  01231 06356 46/// /2402 10060 20057 4//// 5//// 333 91003 91106 91204;EQDQ01  00152WGOSPD
0183063560999992000010200004+51870+005150FM-12+000199999V0202601N002019999999N9999999N1+00611+00591999999ADDAA106000091OA140199999OA249900311OA359900211REMSYN092AAXX  02001 06356 36/// /2602 10061 20059 4//// 5//// 333 91003 91106 91204 555 51104 51203;EQDQ01  00002PRCP06Q02  00152WGOSPD
0129063560999992000010201004+51870+005150FM-12+000199999V0202201N002019999999N9999999N1+00601+00581999999ADDOA140199999OA249900211REMSYN076AAXX  02011 06356 46/// /2202 10060 20058 4//// 5//// 333 91003 91104 91202;EQDQ01  00152WGOSPD
0110063560999992000010202004+51870+005150FM-12+000199999V0202101N001019999999N9999999N1+00581+00571999999ADDOA140100101OA249900261REMSYN076AAXX  02021 06356 46/// /2101 10058 20057 4//// 5//// 333 91002 91105 91203;
0166063560999992000010204004+51870+005150FM-12+000199999V0201901N002019999999N9999999N1+00491+00481999999ADDOA140199999OA249900211OA359999999REMSYN086AAXX  02041 06356 46/// /1902 10049 20048 4//// 5//// 333 91003 91104 91203 555 53000;EQDQ01  00152WGOSPDQ02  00152WGOSPD
0155063560999992000010205004+51870+005150FM-12+000199999V02099999999999999999N9999999N1+00521+00521999999ADDOA140199999OA249999999REMSYN086AAXX  02051 06356 46/// /19// 10052 20052 4//// 5//// 333 91005 91105 912// 555 53000;EQDQ01  00262WGOSPDQ02  00262WGOSPD
0231063560999992000010206004+51870+005150FM-12+000199999V02099999999999999999N9999999N1+00561+00561999999ADDAA106000091IA2999+00309KA1120N+00351OA140199999OA249999999REMSYN110AAXX  02061 06356 36/// ///// 10056 20056 4//// 5//// 333 20035 3/003 91004 91105 912// 555 51105 512// 53000;EQDQ01  00002PRCP06Q02  00212WGOSPDQ03  00262WGOSPD
0166063560999992000010207004+51870+005150FM-12+000199999V0201801N003019999999N9999999N1+00611+00601999999ADDOA140199999OA249900311OA359999999REMSYN086AAXX  02071 06356 46/// /1803 10061 20060 4//// 5//// 333 91005 91106 91203 555 53000;EQDQ01  00262WGOSPDQ02  00152WGOSPD
0140063560999992000010208004+51870+005150FM-12+000199999V0201901N003019999999N9999999N1+00631+00611999999ADDOA159999999REMSYN098AAXX  02081 06356 46/// /1903 10063 20061 4//// 5//// 333 910// 911// 91204 555 20035 40031 53000;EQDQ01  00212WGOSPD
0182063560999992000010210004+51870+005150FM-12+000199999V0201901N005019999999N9999999N1+00681+00651999999ADDOA140199999OA249999999OA359999999REMSYN086AAXX  02101 06356 46/// /1905 10068 20065 4//// 5//// 333 91007 91107 91205 555 53024;EQDQ01  00362WGOSPDQ02  00362WGOSPDQ03  00262WGOSPD
0155063560999992000010211004+51870+005150FM-12+000199999V02099999999999999999N9999999N1+00721+00691999999ADDOA140199999OA249999999REMSYN086AAXX  02111 06356 46/// ///// 10072 20069 4//// 5//// 333 91006 91108 912// 555 53021;EQDQ01  00312WGOSPDQ02  00412WGOSPD
0211063560999992000010212004+51870+005150FM-12+000199999V0202101N005019999999N9999999N1+00781+00741999999ADDAA106000791OA140199999OA249999999OA359999999REMSYN104AAXX  02121 06356 16/// /2105 10078 20074 4//// 5//// 69901 333 91006 91108 91205 555 51107 51205 53016;EQDQ01  00312WGOSPDQ02  00412WGOSPDQ03  00262WGOSPD
0166063560999992000010213004+51870+005150FM-12+000199999V0202301N003019999999N9999999N1+00801+00771999999ADDOA140199999OA249900361OA359999999REMSYN086AAXX  02131 06356 46/// /2303 10080 20077 4//// 5//// 333 91005 91107 91205 555 53011;EQDQ01  00262WGOSPDQ02  00262WGOSPD
0182063560999992000010214004+51870+005150FM-12+000199999V0202201N004019999999N9999999N1+00821+00801999999ADDOA140199999OA249999999OA359999999REMSYN086AAXX  02141 06356 46/// /2204 10082 20080 4//// 5//// 333 91005 91105 91204 555 53007;EQDQ01  00262WGOSPDQ02  00262WGOSPDQ03  00212WGOSPD
0166063560999992000010216004+51870+005150FM-12+000199999V0202201N003019999999N9999999N1+00851+00831999999ADDOA140199999OA249900311OA359999999REMSYN086AAXX  02161 06356 46/// /2203 10085 20083 4//// 5//// 333 91005 91106 91204 555 53001;EQDQ01  00262WGOSPDQ02  00212WGOSPD
0182063560999992000010217004+51870+005150FM-12+000199999V0202101N004019999999N9999999N1+00841+00821999999ADDOA140199999OA249999999OA359999999REMSYN086AAXX  02171 06356 46/// /2104 10084 20082 4//// 5//// 333 91005 91106 91204 555 53000;EQDQ01  00262WGOSPDQ02  00312WGOSPDQ03  00212WGOSPD
0214063560999992000010218004+51870+005150FM-12+000199999V0202001N003019999999N9999999N1+00751+00731999999ADDAA112000591KA1120M+00871OA140199999OA249900361OA359999999REMSYN110AAXX  02181 06356 16/// /2003 10075 20073 4//// 5//// 69962 333 10087 91005 91107 91205 555 51106 51204 53000;EQDQ01  00262WGOSPDQ02  00262WGOSPD
0166063560999992000010219004+51870+005150FM-12+000199999V0202001N003019999999N9999999N1+00791+00771999999ADDOA140199999OA249900311OA359999999REMSYN086AAXX  02191 06356 46/// /2003 10079 20077 4//// 5//// 333 91005 91106 91204 555 53000;EQDQ01  00262WGOSPDQ02  00212WGOSPD
0182063560999992000010220004+51870+005150FM-12+000199999V0202001N004019999999N9999999N1+00841+00811999999ADDOA140199999OA249999999OA359999999REMSYN086AAXX  02201 06356 46/// /2004 10084 20081 4//// 5//// 333 91006 91107 91204 555 53000;EQDQ01  00312WGOSPDQ02  00362WGOSPDQ03  00212WGOSPD
0145063560999992000010222004+51870+005150FM-12+000199999V0202101N004019999999N9999999N1+00811+00771999999ADDOA140199999OA249999999REMSYN076AAXX  02221 06356 46/// /2104 10081 20077 4//// 5//// 333 91006 91107 91205;EQDQ01  00312WGOSPDQ02  00362WGOSPD
0145063560999992000010223004+51870+005150FM-12+000199999V0202101N005019999999N9999999N1+00801+00751999999ADDOA140199999OA249999999REMSYN076AAXX  02231 06356 46/// /2105 10080 20075 4//// 5//// 333 91007 91107 91205;EQDQ01  00362WGOSPDQ02  00362WGOSPD
0215063560999992000010300004+51870+005150FM-12+000199999V0202001N005019999999N9999999N1+00811+00751999999ADDAA106000091OA140199999OA249999999OA359999999REMSYN092AAXX  03001 06356 36/// /2005 10081 20075 4//// 5//// 333 91006 91108 91205 555 51108 51205;EQDQ01  00002PRCP06Q02  00312WGOSPDQ03  00412WGOSPDQ04  00262WGOSPD
0145063560999992000010301004+51870+005150FM-12+000199999V0202101N005019999999N9999999N1+00791+00721999999ADDOA140199999OA249999999REMSYN076AAXX  03011 06356 46/// /2105 10079 20072 4//// 5//// 333 91008 91108 91205;EQDQ01  00412WGOSPDQ02  00412WGOSPD
0145063560999992000010302004+51870+005150FM-12+000199999V0202001N005019999999N9999999N1+00791+00701999999ADDOA140199999OA249999999REMSYN076AAXX  03021 06356 46/// /2005 10079 20070 4//// 5//// 333 91008 91108 91205;EQDQ01  00412WGOSPDQ02  00412WGOSPD
0182063560999992000010304004+51870+005150FM-12+000199999V0202101N006019999999N9999999N1+00751+00641999999ADDOA140199999OA249999999OA359999999REMSYN086AAXX  03041 06356 46/// /2106 10075 20064 4//// 5//// 333 91009 91111 91207 555 53000;EQDQ01  00462WGOSPDQ02  00572WGOSPDQ03  00362WGOSPD
0182063560999992000010305004+51870+005150FM-12+000199999V0202001N006019999999N9999999N1+00751+00671999999ADDOA140199999OA249999999OA359999999REMSYN086AAXX  03051 06356 46/// /2006 10075 20067 4//// 5//// 333 91009 91109 91206 555 53000;EQDQ01  00462WGOSPDQ02  00462WGOSPDQ03  00312WGOSPD
0147063560999992000010306004+51870+005150FM-12+000199999V02099999999999999999N9999999N1+99999+99999999999ADDIA2999+00709KA1120N+00731REMSYN110AAXX  03061 06356 46/// ///// 1//// 2//// 4//// 5//// 333 20073 3/007 910// 911// 912// 555 511// 512// 53///;
0182063560999992000010307004+51870+005150FM-12+000199999V0202101N006019999999N9999999N1+00791+00721999999ADDOA140199999OA249999999OA359999999REMSYN086AAXX  03071 06356 46/// /2106 10079 20072 4//// 5//// 333 91009 91111 91207 555 53000;EQDQ01  00462WGOSPDQ02  00572WGOSPDQ03  00362WGOSPD
0194063560999992000010308004+51870+005150FM-12+000199999V0202001N008019999999N9999999N1+00811+00731999999ADDOA140199999OA249999999OA359999999REMSYN098AAXX  03081 06356 46/// /2008 10081 20073 4//// 5//// 333 91011 91111 91208 555 20073 40067 53000;EQDQ01  00572WGOSPDQ02  00572WGOSPDQ03  00412WGOSPD
0128063560999992000010310004+51870+005150FM-12+000199999V0202001N007019999999N9999999N1+00851+00781999999ADDOA159999999REMSYN086AAXX  03101 06356 46/// /2007 10085 20078 4//// 5//// 333 910// 911// 91207 555 53015;EQDQ01  00362WGOSPD
0182063560999992000010311004+51870+005150FM-12+000199999V0202101N007019999999N9999999N1+00891+00791999999ADDOA140199999OA249999999OA359999999REMSYN086AAXX  03111 06356 46/// /2107 10089 20079 4//// 5//// 333 91009 91111 91207 555 53010;EQDQ01  00462WGOSPDQ02  00572WGOSPDQ03  00362WGOSPD
0211063560999992000010312004+51870+005150FM-12+000199999V0202201N008019999999N9999999N1+00931+00821999999ADDAA106000791OA140199999OA249999999OA359999999REMSYN104AAXX  03121 06356 16/// /2208 10093 20082 4//// 5//// 69901 333 91012 91112 91209 555 51112 51209 53011;EQDQ01  00622WGOSPDQ02  00622WGOSPDQ03  00462WGOSPD
0182063560999992000010313004+51870+005150FM-12+000199999V0202201N008019999999N9999999N1+00921+00811999999ADDOA140199999OA249999999OA359999999REMSYN086AAXX  03131 06356 46/// /2208 10092 20081 4//// 5//// 333 91012 91112 91208 555 53019;EQDQ01  00622WGOSPDQ02  00622WGOSPDQ03  00412WGOSPD
0182063560999992000010314004+51870+005150FM-12+000199999V0202101N007019999999N9999999N1+00871+00801999999ADDOA140199999OA249999999OA359999999REMSYN086AAXX  03141 06356 46/// /2107 10087 20080 4//// 5//// 333 91010 91111 91208 555 53011;EQDQ01  00512WGOSPDQ02  00572WGOSPDQ03  00412WGOSPD
0182063560999992000010316004+51870+005150FM-12+000199999V0202101N007019999999N9999999N1+00841+00781999999ADDOA140199999OA249999999OA359999999REMSYN086AAXX  03161 06356 46/// /2107 10084 20078 4//// 5//// 333 91009 91110 91207 555 53000;EQDQ01  00462WGOSPDQ02  00512WGOSPDQ03  00362WGOSPD
0182063560999992000010317004+51870+005150FM-12+000199999V0202001N006019999999N9999999N1+00811+00761999999ADDOA140199999OA249999999OA359999999REMSYN086AAXX  03171 06356 46/// /2006 10081 20076 4//// 5//// 333 91009 91110 91207 555 53000;EQDQ01  00462WGOSPDQ02  00512WGOSPDQ03  00362WGOSPD
0230063560999992000010318004+51870+005150FM-12+000199999V0202101N007019999999N9999999N1+00821+00741999999ADDAA112000591KA1120M+00941OA140199999OA249999999OA359999999REMSYN110AAXX  03181 06356 16/// /2107 10082 20074 4//// 5//// 69962 333 10094 91011 91112 91208 555 51111 51207 53000;EQDQ01  00572WGOSPDQ02  00622WGOSPDQ03  00412WGOSPD
0182063560999992000010319004+51870+005150FM-12+000199999V0202101N007019999999N9999999N1+00821+00731999999ADDOA140199999OA249999999OA359999999REMSYN086AAXX  03191 06356 46/// /2107 10082 20073 4//// 5//// 333 91010 91111 91208 555 53000;EQDQ01  00512WGOSPDQ02  00572WGOSPDQ03  00412WGOSPD
0182063560999992000010320004+51870+005150FM-12+000199999V0202101N007019999999N9999999N1+00831+00701999999ADDOA140199999OA249999999OA359999999REMSYN086AAXX  03201 06356 46/// /2107 10083 20070 4//// 5//// 333 91010 91112 91208 555 53000;EQDQ01  00512WGOSPDQ02  00622WGOSPDQ03  00412WGOSPD
0145063560999992000010322004+51870+005150FM-12+000199999V0202101N007019999999N9999999N1+00761+00701999999ADDOA140199999OA249999999REMSYN076AAXX  03221 06356 46/// /2107 10076 20070 4//// 5//// 333 91010 91111 91208;EQDQ01  00512WGOSPDQ02  00572WGOSPD
0085063560999992000010323004+51870+005150FM-12+000199999V02099999999999999999N9999999N1+00761+00721999999REMSYN076AAXX  03231 06356 46/// /21// 10076 20072 4//// 5//// 333 910// 911// 912//;
0205063560999992000010400004+51870+005150FM-12+000199999V02099999999999999999N9999999N1+00761+00731999999ADDAA106002091OA140199999OA249999999OA359999999REMSYN098AAXX  04001 06356 16/// ///06 10076 20073 4//// 5//// 60021 333 91010 91112 91208 555 51110 51207;EQDQ01  00512WGOSPDQ02  00622WGOSPDQ03  00412WGOSPD
0129063560999992000010401004+51870+005150FM-12+000199999V0203201N003019999999N9999999N1+00651+00621999999ADDOA140199999OA249900461REMSYN076AAXX  04011 06356 46/// /3203 10065 20062 4//// 5//// 333 91004 91109 91207;EQDQ01  00212WGOSPD
0129063560999992000010402004+51870+005150FM-12+000199999V0200101N003019999999N9999999N1+00541+00501999999ADDOA140199999OA249900311REMSYN076AAXX  04021 06356 46/// /0103 10054 20050 4//// 5//// 333 91004 91106 91205;EQDQ01  00212WGOSPD
0150063560999992000010404004+51870+005150FM-12+000199999V0200801N001019999999N9999999N1+00521+99999999999ADDOA140100101OA249900151OA359999999REMSYN086AAXX  04041 06356 46/// /0801 10052 2//// 4//// 5//// 333 91002 91103 91201 555 53000;EQDQ01  00052WGOSPD
0216063560999992000010406004+51870+005150FM-12+000199999V0200901N002019999999N9999999N1+00551+00521999999ADDAA112008991IA2999+00509KA1120N+00521OA140199999OA249900461OA359900361REMSYN116AAXX  04061 06356 16/// /0902 10055 20052 4//// 5//// 60092 333 20052 3/005 91003 91109 91207 555 51104 51203 53000;EQDQ01  00152WGOSPD
0182063560999992000010407004+51870+005150FM-12+000199999V0200901N002019999999N9999999N1+00551+00521999999ADDOA140199999OA249999999OA359999999REMSYN086AAXX  04071 06356 46/// /0902 10055 20052 4//// 5//// 333 91003 91103 91202 555 53000;EQDQ01  00152WGOSPDQ02  00152WGOSPDQ03  00102WGOSPD
0194063560999992000010408004+51870+005150FM-12+000199999V0200901N002019999999N9999999N1+00581+99999999999ADDOA140199999OA249999999OA359999999REMSYN098AAXX  04081 06356 46/// /0902 10058 2//// 4//// 5//// 333 91003 91103 91202 555 20052 40050 53000;EQDQ01  00152WGOSPDQ02  00152WGOSPDQ03  00102WGOSPD
0182063560999992000010410004+51870+005150FM-12+000199999V0201601N003019999999N9999999N1+00711+00701999999ADDOA140199999OA249999999OA359999999REMSYN086AAXX  04101 06356 46/// /1603 10071 20070 4//// 5//// 333 91004 91104 91203 555 53005;EQDQ01  00212WGOSPDQ02  00212WGOSPDQ03  00152WGOSPD
0182063560999992000010411004+51870+005150FM-12+000199999V0201801N004019999999N9999999N1+00791+00781999999ADDOA140199999OA249999999OA359999999REMSYN086AAXX  04111 06356 46/// /1804 10079 20078 4//// 5//// 333 91006 91106 91204 555 53005;EQDQ01  00312WGOSPDQ02  00312WGOSPDQ03  00212WGOSPD
0211063560999992000010412004+51870+005150FM-12+000199999V0201901N005019999999N9999999N1+00821+00801999999ADDAA106002091OA140199999OA249999999OA359999999REMSYN104AAXX  04121 06356 16/// /1905 10082 20080 4//// 5//// 60021 333 91008 91108 91205 555 51108 51205 53006;EQDQ01  00412WGOSPDQ02  00412WGOSPDQ03  00262WGOSPD
0128063560999992000010413004+51870+005150FM-12+000199999V0201901N005019999999N9999999N1+00821+00771999999ADDOA159999999REMSYN086AAXX  04131 06356 46/// /1905 10082 20077 4//// 5//// 333 910// 911// 91206 555 53008;EQDQ01  00312WGOSPD
0182063560999992000010414004+51870+005150FM-12+000199999V0202001N007019999999N9999999N1+00841+00801999999ADDOA140199999OA249999999OA359999999REMSYN086AAXX  04141 06356 46/// /2007 10084 20080 4//// 5//// 333 91011 91111 91207 555 53005;EQDQ01  00572WGOSPDQ02  00572WGOSPDQ03  00362WGOSPD
0182063560999992000010416004+51870+005150FM-12+000199999V0202501N011019999999N9999999N1+00941+00801999999ADDOA140199999OA249999999OA359999999REMSYN086AAXX  04161 06356 46/// /2511 10094 20080 4//// 5//// 333 91015 91116 91211 555 53000;EQDQ01  00772WGOSPDQ02  00822WGOSPDQ03  00572WGOSPD
0182063560999992000010417004+51870+005150FM-12+000199999V0202501N009019999999N9999999N1+00761+00561999999ADDOA140199999OA249999999OA359999999REMSYN086AAXX  04171 06356 46/// /2509 10076 20056 4//// 5//// 333 91012 91115 91210 555 53000;EQDQ01  00622WGOSPDQ02  00772WGOSPDQ03  00512WGOSPD
0203063560999992000010418004+51870+005150FM-12+000199999V02099999999999999999N9999999N1+00741+00531999999ADDAA112004191KA1120M+00971OA140199999OA249999999REMSYN110AAXX  04181 06356 16/// /24// 10074 20053 4//// 5//// 60042 333 10097 91009 91116 912// 555 51113 512// 53000;EQDQ01  00462WGOSPDQ02  00822WGOSPD
0182063560999992000010419004+51870+005150FM-12+000199999V0202301N007019999999N9999999N1+00781+00541999999ADDOA140199999OA249999999OA359999999REMSYN086AAXX  04191 06356 46/// /2307 10078 20054 4//// 5//// 333 91011 91112 91208 555 53000;EQDQ01  00572WGOSPDQ02  00622WGOSPDQ03  00412WGOSPD
0182063560999992000010420004+51870+005150FM-12+000199999V0202301N008019999999N9999999N1+00811+00621999999ADDOA140199999OA249999999OA359999999REMSYN086AAXX  04201 06356 46/// /2308 10081 20062 4//// 5//// 333 91011 91113 91209 555 53000;EQDQ01  00572WGOSPDQ02  00672WGOSPDQ03  00462WGOSPD
0145063560999992000010422004+51870+005150FM-12+000199999V0202801N008019999999N9999999N1+00651+00421999999ADDOA140199999OA249999999REMSYN076AAXX  04221 06356 46/// /2808 10065 20042 4//// 5//// 333 91011 91112 91208;EQDQ01  00572WGOSPDQ02  00622WGOSPD
0145063560999992000010423004+51870+005150FM-12+000199999V02099999999999999999N9999999N1+00461+00251999999ADDOA140199999OA249999999REMSYN076AAXX  04231 06356 46/// ///05 10046 20025 4//// 5//// 333 91007 91111 91208;EQDQ01  00362WGOSPDQ02  00572WGOSPD
0173063560999992000010500004+51870+005150FM-12+000199999V0202601N005019999999N9999999N1+00411+00231999999ADDAA106000191OA140199999OA249900821OA359900571REMSYN098AAXX  05001 06356 16/// /2605 10041 20023 4//// 5//// 69921 333 91006 91116 91211 555 51107 51205;EQDQ01  00312WGOSPD
0129063560999992000010501004+51870+005150FM-12+000199999V0202401N004019999999N9999999N1+00251+00121999999ADDOA140199999OA249900411REMSYN076AAXX  05011 06356 46/// /2404 10025 20012 4//// 5//// 333 91005 91108 91206;EQDQ01  00262WGOSPD
0145063560999992000010502004+51870+005150FM-12+000199999V0202301N004019999999N9999999N1+00291+00191999999ADDOA140199999OA249999999REMSYN076AAXX  05021 06356 46/// /2304 10029 20019 4//// 5//// 333 91005 91105 91204;EQDQ01  00262WGOSPDQ02  00262WGOSPD
0182063560999992000010504004+51870+005150FM-12+000199999V0202101N004019999999N9999999N1+00221+00141999999ADDOA140199999OA249999999OA359999999REMSYN086AAXX  05041 06356 46/// /2104 10022 20014 4//// 5//// 333 91005 91105 91204 555 53000;EQDQ01  00262WGOSPDQ02  00262WGOSPDQ03  00212WGOSPD
0182063560999992000010505004+51870+005150FM-12+000199999V0202201N005019999999N9999999N1+00211+00151999999ADDOA140199999OA249999999OA359999999REMSYN086AAXX  05051 06356 46/// /2205 10021 20015 4//// 5//// 333 91006 91106 91205 555 53000;EQDQ01  00312WGOSPDQ02  00312WGOSPDQ03  00262WGOSPD
0232063560999992000010506004+51870+005150FM-12+000199999V0202101N004019999999N9999999N1+00161+00101999999ADDAA112000191IA2999+00109KA1120N+00151OA140199999OA249900411OA359999999REMSYN116AAXX  05061 06356 16/// /2104 10016 20010 4//// 5//// 69922 333 20015 3/001 91005 91108 91206 555 51106 51204 53000;EQDQ01  00262WGOSPDQ02  00312WGOSPD
0182063560999992000010507004+51870+005150FM-12+000199999V0202001N003019999999N9999999N1+00151+00091999999ADDOA140199999OA249999999OA359999999REMSYN086AAXX  05071 06356 46/// /2003 10015 20009 4//// 5//// 333 91005 91105 91204 555 53000;EQDQ01  00262WGOSPDQ02  00262WGOSPDQ03  00212WGOSPD
0194063560999992000010508004+51870+005150FM-12+000199999V0202001N003019999999N9999999N1+00141+00091999999ADDOA140199999OA249999999OA359999999REMSYN098AAXX  05081 06356 46/// /2003 10014 20009 4//// 5//// 333 91004 91105 91203 555 20011 40004 53000;EQDQ01  00212WGOSPDQ02  00262WGOSPDQ03  00152WGOSPD
0155063560999992000010510004+51870+005150FM-12+000199999V02099999999999999999N9999999N1+00351+00231999999ADDOA140199999OA249999999REMSYN086AAXX  05101 06356 46/// /18// 10035 20023 4//// 5//// 333 91006 91106 912// 555 53033;EQDQ01  00312WGOSPDQ02  00312WGOSPD
0182063560999992000010511004+51870+005150FM-12+000199999V0201901N004019999999N9999999N1+00521+00351999999ADDOA140199999OA249999999OA359999999REMSYN086AAXX  05111 06356 46/// /1904 10052 20035 4//// 5//// 333 91005 91107 91205 555 53063;EQDQ01  00262WGOSPDQ02  00362WGOSPDQ03  00262WGOSPD
0211063560999992000010512004+51870+005150FM-12+000199999V0201901N004019999999N9999999N1+00611+00421999999ADDAA106000791OA140199999OA249999999OA359999999REMSYN104AAXX  05121 06356 16/// /1904 10061 20042 4//// 5//// 69901 333 91006 91107 91205 555 51106 51204 53070;EQDQ01  00312WGOSPDQ02  00362WGOSPDQ03  00262WGOSPD
0155063560999992000010513004+51870+005150FM-12+000199999V02099999999999999999N9999999N1+00721+00481999999ADDOA140199999OA249999999REMSYN086AAXX  05131 06356 46/// /19// 10072 20048 4//// 5//// 333 91007 91107 912// 555 53069;EQDQ01  00362WGOSPDQ02  00362WGOSPD
0182063560999992000010514004+51870+005150FM-12+000199999V0201901N005019999999N9999999N1+00751+00481999999ADDOA140199999OA249999999OA359999999REMSYN086AAXX  05141 06356 46/// /1905 10075 20048 4//// 5//// 333 91008 91108 91205 555 53058;EQDQ01  00412WGOSPDQ02  00412WGOSPDQ03  00262WGOSPD
0182063560999992000010516004+51870+005150FM-12+000199999V0201801N004019999999N9999999N1+00581+00431999999ADDOA140199999OA249999999OA359999999REMSYN086AAXX  05161 06356 46/// /1804 10058 20043 4//// 5//// 333 91005 91107 91205 555 53006;EQDQ01  00262WGOSPDQ02  00362WGOSPDQ03  00262WGOSPD
0182063560999992000010517004+51870+005150FM-12+000199999V0201801N004019999999N9999999N1+00501+00381999999ADDOA140199999OA249999999OA359999999REMSYN086AAXX  05171 06356 46/// /1804 10050 20038 4//// 5//// 333 91005 91106 91204 555 53000;EQDQ01  00262WGOSPDQ02  00312WGOSPDQ03  00212WGOSPD
0182063560999992000010519004+51870+005150FM-12+000199999V0201601N004019999999N9999999N1+00501+00361999999ADDOA140199999OA249999999OA359999999REMSYN086AAXX  05191 06356 46/// /1604 10050 20036 4//// 5//// 333 91005 91107 91205 555 53000;EQDQ01  00262WGOSPDQ02  00362WGOSPDQ03  00262WGOSPD
0129063560999992000010522004+51870+005150FM-12+000199999V0201801N004019999999N9999999N1+00531+00411999999ADDOA140199999OA249900411REMSYN076AAXX  05221 06356 46/// /1804 10053 20041 4//// 5//// 333 91006 91108 91205;EQDQ01  00312WGOSPD
0145063560999992000010601004+51870+005150FM-12+000199999V0201901N005019999999N9999999N1+00571+00471999999ADDOA140199999OA249999999REMSYN076AAXX  06011 06356 46/// /1905 10057 20047 4//// 5//// 333 91008 91108 91205;EQDQ01  00412WGOSPDQ02  00412WGOSPD
0145063560999992000010602004+51870+005150FM-12+000199999V0201901N006019999999N9999999N1+00591+00461999999ADDOA140199999OA249999999REMSYN076AAXX  06021 06356 46/// /1906 10059 20046 4//// 5//// 333 91009 91109 91206;EQDQ01  00462WGOSPDQ02  00462WGOSPD
0182063560999992000010604004+51870+005150FM-12+000199999V0201901N006019999999N9999999N1+00601+00491999999ADDOA140199999OA249999999OA359999999REMSYN086AAXX  06041 06356 46/// /1906 10060 20049 4//// 5//// 333 91010 91110 91206 555 53000;EQDQ01  00512WGOSPDQ02  00512WGOSPDQ03  00312WGOSPD
0155063560999992000010605004+51870+005150FM-12+000199999V02099999999999999999N9999999N1+00621+00471999999ADDOA140199999OA249999999REMSYN086AAXX  06051 06356 46/// /19// 10062 20047 4//// 5//// 333 91009 91110 912// 555 53000;EQDQ01  00462WGOSPDQ02  00512WGOSPD
0221063560999992000010606004+51870+005150FM-12+000199999V02099999999999999999N9999999N1+00631+00481999999ADDAA112000791IA2999+00409KA1120N+00441OA140199999OA249999999REMSYN116AAXX  06061 06356 16/// /20// 10063 20048 4//// 5//// 69902 333 20044 3/004 91009 91110 912// 555 51110 512// 53000;EQDQ01  00462WGOSPDQ02  00512WGOSPD
0182063560999992000010607004+51870+005150FM-12+000199999V0202001N007019999999N9999999N1+00641+00491999999ADDOA140199999OA249999999OA359999999REMSYN086AAXX  06071 06356 46/// /2007 10064 20049 4//// 5//// 333 91011 91111 91207 555 53000;EQDQ01  00572WGOSPDQ02  00572WGOSPDQ03  00362WGOSPD
0194063560999992000010608004+51870+005150FM-12+000199999V0201901N006019999999N9999999N1+00631+00481999999ADDOA140199999OA249999999OA359999999REMSYN098AAXX  06081 06356 46/// /1906 10063 20048 4//// 5//// 333 91009 91111 91207 555 20044 40036 53000;EQDQ01  00462WGOSPDQ02  00572WGOSPDQ03  00362WGOSPD
0128063560999992000010610004+51870+005150FM-12+000199999V0202001N007019999999N9999999N1+00791+00571999999ADDOA159999999REMSYN086AAXX  06101 06356 46/// /2007 10079 20057 4//// 5//// 333 910// 911// 91208 555 53035;EQDQ01  00412WGOSPD
0182063560999992000010611004+51870+005150FM-12+000199999V0202101N007019999999N9999999N1+00801+00601999999ADDOA140199999OA249999999OA359999999REMSYN086AAXX  06111 06356 46/// /2107 10080 20060 4//// 5//// 333 91009 91111 91207 555 53025;EQDQ01  00462WGOSPDQ02  00572WGOSPDQ03  00362WGOSPD
0211063560999992000010612004+51870+005150FM-12+000199999V0202101N007019999999N9999999N1+00861+00641999999ADDAA106000791OA140199999OA249999999OA359999999REMSYN104AAXX  06121 06356 16/// /2107 10086 20064 4//// 5//// 69901 333 91010 91111 91208 555 51110 51207 53030;EQDQ01  00512WGOSPDQ02  00572WGOSPDQ03  00412WGOSPD
0155063560999992000010613004+51870+005150FM-12+000199999V02099999999999999999N9999999N1+00881+00651999999ADDOA140199999OA249999999REMSYN086AAXX  06131 06356 46/// /21// 10088 20065 4//// 5//// 333 91009 91109 912// 555 53024;EQDQ01  00462WGOSPDQ02  00462WGOSPD
0182063560999992000010614004+51870+005150FM-12+000199999V0202101N007019999999N9999999N1+99999+99999999999ADDOA140199999OA249999999OA359999999REMSYN086AAXX  06141 06356 46/// /2107 1//// 2//// 4//// 5//// 333 91009 91109 91207 555 53013;EQDQ01  00462WGOSPDQ02  00462WGOSPDQ03  00362WGOSPD
0182063560999992000010616004+51870+005150FM-12+000199999V0202101N006019999999N9999999N1+00811+00751999999ADDOA140199999OA249999999OA359999999REMSYN086AAXX  06161 06356 46/// /2106 10081 20075 4//// 5//// 333 91009 91109 91207 555 53000;EQDQ01  00462WGOSPDQ02  00462WGOSPDQ03  00362WGOSPD
0182063560999992000010617004+51870+005150FM-12+000199999V0202301N005019999999N9999999N1+00811+00741999999ADDOA140199999OA249999999OA359999999REMSYN086AAXX  06171 06356 46/// /2305 10081 20074 4//// 5//// 333 91008 91109 91207 555 53000;EQDQ01  00412WGOSPDQ02  00462WGOSPDQ03  00362WGOSPD
0182063560999992000010620004+51870+005150FM-12+000199999V0202301N005019999999N9999999N1+00841+00731999999ADDOA140199999OA249999999OA359999999REMSYN086AAXX  06201 06356 46/// /2305 10084 20073 4//// 5//// 333 91008 91109 91207 555 53000;EQDQ01  00412WGOSPDQ02  00462WGOSPDQ03  00362WGOSPD
0145063560999992000010622004+51870+005150FM-12+000199999V0202501N006019999999N9999999N1+00841+00741999999ADDOA140199999OA249999999REMSYN076AAXX  06221 06356 46/// /2506 10084 20074 4//// 5//// 333 91008 91109 91206;EQDQ01  00412WGOSPDQ02  00462WGOSPD
0145063560999992000010623004+51870+005150FM-12+000199999V0202401N006019999999N9999999N1+00791+00681999999ADDOA140199999OA249999999REMSYN076AAXX  06231 06356 46/// /2406 10079 20068 4//// 5//// 333 91008 91108 91206;EQDQ01  00412WGOSPDQ02  00412WGOSPD
0172063560999992000010700004+51870+005150FM-12+000199999V0202301N004019999999N9999999N1+00641+00571999999ADDOA140199999OA249900461OA359999999REMSYN092AAXX  07001 06356 46/// /2304 10064 20057 4//// 5//// 333 91005 91109 91207 555 51107 51205;EQDQ01  00262WGOSPDQ02  00362WGOSPD
0145063560999992000010701004+51870+005150FM-12+000199999V0202401N004019999999N9999999N1+00561+00521999999ADDOA140199999OA249999999REMSYN076AAXX  07011 06356 46/// /2404 10056 20052 4//// 5//// 333 91005 91105 91204;EQDQ01  00262WGOSPDQ02  00262WGOSPD
0145063560999992000010702004+51870+005150FM-12+000199999V0202301N003019999999N9999999N1+00541+00511999999ADDOA140199999OA249999999REMSYN076AAXX  07021 06356 46/// /2303 10054 20051 4//// 5//// 333 91005 91105 91204;EQDQ01  00262WGOSPDQ02  00262WGOSPD
0128063560999992000010704004+51870+005150FM-12+000199999V0202401N005019999999N9999999N1+00601+00581999999ADDOA159999999REMSYN086AAXX  07041 06356 46/// /2405 10060 20058 4//// 5//// 333 910// 911// 91205 555 53000;EQDQ01  00262WGOSPD
0182063560999992000010705004+51870+005150FM-12+000199999V0202301N005019999999N9999999N1+00631+00621999999ADDOA140199999OA249999999OA359999999REMSYN086AAXX  07051 06356 46/// /2305 10063 20062 4//// 5//// 333 91008 91108 91205 555 53000;EQDQ01  00412WGOSPDQ02  00412WGOSPDQ03  00262WGOSPD
0248063560999992000010706004+51870+005150FM-12+000199999V02099999999999999999N9999999N1+00651+00631999999ADDAA112000791IA2999+00409KA1120N+00501OA140199999OA249999999OA359999999REMSYN116AAXX  07061 06356 16/// ///03 10065 20063 4//// 5//// 69902 333 20050 3/004 91005 91108 91205 555 51108 51205 53000;EQDQ01  00262WGOSPDQ02  00412WGOSPDQ03  00262WGOSPD
0182063560999992000010707004+51870+005150FM-12+000199999V0202201N004019999999N9999999N1+00681+00651999999ADDOA140199999OA249999999OA359999999REMSYN086AAXX  07071 06356 46/// /2204 10068 20065 4//// 5//// 333 91006 91107 91205 555 53000;EQDQ01  00312WGOSPDQ02  00362WGOSPDQ03  00262WGOSPD
0140063560999992000010708004+51870+005150FM-12+000199999V0202201N004019999999N9999999N1+00661+00611999999ADDOA159999999REMSYN098AAXX  07081 06356 46/// /2204 10066 20061 4//// 5//// 333 910// 911// 91205 555 20050 40042 53000;EQDQ01  00262WGOSPD
0182063560999992000010710004+51870+005150FM-12+000199999V0202101N005019999999N9999999N1+00621+00551999999ADDOA140199999OA249999999OA359999999REMSYN086AAXX  07101 06356 46/// /2105 10062 20055 4//// 5//// 333 91007 91107 91205 555 53030;EQDQ01  00362WGOSPDQ02  00362WGOSPDQ03  00262WGOSPD
0182063560999992000010711004+51870+005150FM-12+000199999V0202301N006019999999N9999999N1+00681+00591999999ADDOA140199999OA249999999OA359999999REMSYN086AAXX  07111 06356 46/// /2306 10068 20059 4//// 5//// 333 91008 91109 91206 555 53045;EQDQ01  00412WGOSPDQ02  00462WGOSPDQ03  00312WGOSPD
0221063560999992000010712004+51870+005150FM-12+000199999V0202101N007019999999N9999999N1+00681+00581999999ADDAA106000091OA140199999OA249999999OA359999999REMSYN098AAXX  07121 06356 36/// /2107 10068 20058 4//// 5//// 333 91010 91110 91207 555 51110 51207 53027;EQDQ01  00002PRCP06Q02  00512WGOSPDQ03  00512WGOSPDQ04  00362WGOSPD
0182063560999992000010713004+51870+005150FM-12+000199999V0202101N006019999999N9999999N1+00711+00591999999ADDOA140199999OA249999999OA359999999REMSYN086AAXX  07131 06356 46/// /2106 10071 20059 4//// 5//// 333 91009 91109 91207 555 53038;EQDQ01  00462WGOSPDQ02  00462WGOSPDQ03  00362WGOSPD
0182063560999992000010714004+51870+005150FM-12+000199999V0202001N006019999999N9999999N1+00671+00531999999ADDOA140199999OA249999999OA359999999REMSYN086AAXX  07141 06356 46/// /2006 10067 20053 4//// 5//// 333 91009 91111 91207 555 53044;EQDQ01  00462WGOSPDQ02  00572WGOSPDQ03  00362WGOSPD
0182063560999992000010716004+51870+005150FM-12+000199999V0202101N007019999999N9999999N1+00671+00521999999ADDOA140199999OA249999999OA359999999REMSYN086AAXX  07161 06356 46/// /2107 10067 20052 4//// 5//// 333 91009 91110 91207 555 53002;EQDQ01  00462WGOSPDQ02  00512WGOSPDQ03  00362WGOSPD
0182063560999992000010717004+51870+005150FM-12+000199999V0202001N006019999999N9999999N1+00641+00431999999ADDOA140199999OA249999999OA359999999REMSYN086AAXX  07171 06356 46/// /2006 10064 20043 4//// 5//// 333 91010 91111 91208 555 53000;EQDQ01  00512WGOSPDQ02  00572WGOSPDQ03  00412WGOSPD
0240063560999992000010718004+51870+005150FM-12+000199999V0202101N006019999999N9999999N1+99999+99999999999ADDAA106000091KA1120M+00731OA140199999OA249999999OA359999999REMSYN104AAXX  07181 06356 36/// /2106 1//// 2//// 4//// 5//// 333 10073 91009 91111 91208 555 51109 51207 53000;EQDQ01  00002PRCP06Q02  00462WGOSPDQ03  00572WGOSPDQ04  00412WGOSPD
0182063560999992000010719004+51870+005150FM-12+000199999V0202001N007019999999N9999999N1+00631+00411999999ADDOA140199999OA249999999OA359999999REMSYN086AAXX  07191 06356 46/// /2007 10063 20041 4//// 5//// 333 91009 91111 91207 555 53000;EQDQ01  00462WGOSPDQ02  00572WGOSPDQ03  00362WGOSPD
0166063560999992000010720004+51870+005150FM-12+000199999V0202001N006019999999N9999999N1+00601+00391999999ADDOA140199999OA249900621OA359999999REMSYN086AAXX  07201 06356 46/// /2006 10060 20039 4//// 5//// 333 91009 91112 91208 555 53000;EQDQ01  00462WGOSPDQ02  00412WGOSPD
0145063560999992000010722004+51870+005150FM-12+000199999V02099999999999999999N9999999N1+00561+00371999999ADDOA140199999OA249999999REMSYN076AAXX  07221 06356 46/// ///07 10056 20037 4//// 5//// 333 91010 91111 91207;EQDQ01  00512WGOSPDQ02  00572WGOSPD
0145063560999992000010723004+51870+005150FM-12+000199999V0202001N006019999999N9999999N1+00551+00371999999ADDOA140199999OA249999999REMSYN076AAXX  07231 06356 46/// /2006 10055 20037 4//// 5//// 333 91011 91111 91207;EQDQ01  00572WGOSPDQ02  00572WGOSPD
0215063560999992000010800004+51870+005150FM-12+000199999V0201901N008019999999N9999999N1+00591+00391999999ADDAA106000091OA140199999OA249999999OA359999999REMSYN092AAXX  08001 06356 36/// /1908 10059 20039 4//// 5//// 333 91012 91113 91208 555 51113 51208;EQDQ01  00002PRCP06Q02  00622WGOSPDQ03  00672WGOSPDQ04  00412WGOSPD
0085063560999992000010801004+51870+005150FM-12+000199999V0202001N006019999999N9999999N1+00601+00391999999REMSYN076AAXX  08011 06356 46/// /2006 10060 20039 4//// 5//// 333 910// 911// 91209;
0145063560999992000010802004+51870+005150FM-12+000199999V0201901N007019999999N9999999N1+00601+00391999999ADDOA140199999OA249999999REMSYN076AAXX  08021 06356 46/// /1907 10060 20039 4//// 5//// 333 91010 91112 91207;EQDQ01  00512WGOSPDQ02  00622WGOSPD
0182063560999992000010804004+51870+005150FM-12+000199999V0202101N006019999999N9999999N1+00601+00431999999ADDOA140199999OA249999999OA359999999REMSYN086AAXX  08041 06356 46/// /2106 10060 20043 4//// 5//// 333 91010 91110 91206 555 53000;EQDQ01  00512WGOSPDQ02  00512WGOSPDQ03  00312WGOSPD
0182063560999992000010805004+51870+005150FM-12+000199999V0202101N007019999999N9999999N1+00611+00431999999ADDOA140199999OA249999999OA359999999REMSYN086AAXX  08051 06356 46/// /2107 10061 20043 4//// 5//// 333 91010 91111 91207 555 53000;EQDQ01  00512WGOSPDQ02  00572WGOSPDQ03  00362WGOSPD
0242063560999992000010806004+51870+005150FM-12+000199999V0202001N006019999999N9999999N1+00601+00441999999ADDAA106000091IA2999+00509KA1120N+00521OA140199999OA249900621OA359999999REMSYN110AAXX  08061 06356 36/// /2006 10060 20044 4//// 5//// 333 20052 3/005 91009 91112 91209 555 51110 51207 53000;EQDQ01  00002PRCP06Q02  00462WGOSPDQ03  00462WGOSPD
0182063560999992000010807004+51870+005150FM-12+000199999V0202001N006019999999N9999999N1+00591+00461999999ADDOA140199999OA249999999OA359999999REMSYN086AAXX  08071 06356 46/// /2006 10059 20046 4//// 5//// 333 91009 91111 91207 555 53000;EQDQ01  00462WGOSPDQ02  00572WGOSPDQ03  00362WGOSPD
0194063560999992000010808004+51870+005150FM-12+000199999V0202001N006019999999N9999999N1+00601+00471999999ADDOA140199999OA249999999OA359999999REMSYN098AAXX  08081 06356 46/// /2006 10060 20047 4//// 5//// 333 91009 91110 91206 555 20052 40046 53000;EQDQ01  00462WGOSPDQ02  00512WGOSPDQ03  00312WGOSPD
0182063560999992000010810004+51870+005150FM-12+000199999V0202101N006019999999N9999999N1+99999+99999999999ADDOA140199999OA249999999OA359999999REMSYN086AAXX  08101 06356 46/// /2106 1//// 2//// 4//// 5//// 333 91009 91109 91206 555 53017;EQDQ01  00462WGOSPDQ02  00462WGOSPDQ03  00312WGOSPD
0182063560999992000010811004+51870+005150FM-12+000199999V0202101N007019999999N9999999N1+00651+00621999999ADDOA140199999OA249999999OA359999999REMSYN086AAXX  08111 06356 46/// /2107 10065 20062 4//// 5//// 333 91010 91110 91207 555 53010;EQDQ01  00512WGOSPDQ02  00512WGOSPDQ03  00362WGOSPD
0195063560999992000010812004+51870+005150FM-12+000199999V0202201N005019999999N9999999N1+00691+00651999999ADDAA106000891OA140199999OA249900571OA359999999REMSYN104AAXX  08121 06356 16/// /2205 10069 20065 4//// 5//// 69971 333 91008 91111 91207 555 51109 51207 53010;EQDQ01  00412WGOSPDQ02  00362WGOSPD
0182063560999992000010813004+51870+005150FM-12+000199999V0202301N006019999999N9999999N1+00761+99999999999ADDOA140199999OA249999999OA359999999REMSYN086AAXX  08131 06356 46/// /2306 10076 2//// 4//// 5//// 333 91008 91108 91206 555 53008;EQDQ01  00412WGOSPDQ02  00412WGOSPDQ03  00312WGOSPD
0128063560999992000010814004+51870+005150FM-12+000199999V0202401N005019999999N9999999N1+00781+00711999999ADDOA159999999REMSYN086AAXX  08141 06356 46/// /2405 10078 20071 4//// 5//// 333 910// 911// 91207 555 53013;EQDQ01  00362WGOSPD
0128063560999992000010816004+51870+005150FM-12+000199999V0202301N003019999999N9999999N1+00611+00541999999ADDOA159999999REMSYN086AAXX  08161 06356 46/// /2303 10061 20054 4//// 5//// 333 910// 911// 91203 555 53003;EQDQ01  00152WGOSPD
0128063560999992000010817004+51870+005150FM-12+000199999V0202201N003019999999N9999999N1+00461+00421999999ADDOA159999999REMSYN086AAXX  08171 06356 46/// /2203 10046 20042 4//// 5//// 333 910// 911// 91203 555 53000;EQDQ01  00152WGOSPD
0198063560999992000010818004+51870+005150FM-12+000199999V0202301N003019999999N9999999N1+00381+00351999999ADDAA112000891KA1120M+00791OA140199999OA249900511OA359900361REMSYN110AAXX  08181 06356 16/// /2303 10038 20035 4//// 5//// 69972 333 10079 91004 91110 91207 555 51104 51203 53000;EQDQ01  00212WGOSPD
0150063560999992000010819004+51870+005150FM-12+000199999V0202001N002019999999N9999999N1+00321+00301999999ADDOA140100211OA249900211OA359999999REMSYN086AAXX  08191 06356 46/// /2002 10032 20030 4//// 5//// 333 91004 91104 91203 555 53000;EQDQ01  00152WGOSPD
0182063560999992000010820004+51870+005150FM-12+000199999V0202101N003019999999N9999999N1+99999+99999999999ADDOA140199999OA249999999OA359999999REMSYN086AAXX  08201 06356 46/// /2103 1//// 2//// 4//// 5//// 333 91004 91104 91203 555 53000;EQDQ01  00212WGOSPDQ02  00212WGOSPDQ03  00152WGOSPD
0145063560999992000010822004+51870+005150FM-12+000199999V0202101N003019999999N9999999N1+00191+00171999999ADDOA140199999OA249999999REMSYN076AAXX  08221 06356 46/// /2103 10019 20017 4//// 5//// 333 91004 91104 91203;EQDQ01  00212WGOSPDQ02  00212WGOSPD
0145063560999992000010823004+51870+005150FM-12+000199999V0202001N003019999999N9999999N1+00211+00191999999ADDOA140199999OA249999999REMSYN076AAXX  08231 06356 46/// /2003 10021 20019 4//// 5//// 333 91005 91105 91204;EQDQ01  00262WGOSPDQ02  00262WGOSPD
0215063560999992000010900004+51870+005150FM-12+000199999V0202101N003019999999N9999999N1+00191+00151999999ADDAA106000091OA140199999OA249999999OA359999999REMSYN092AAXX  09001 06356 36/// /2103 10019 20015 4//// 5//// 333 91004 91105 91204 555 51105 51203;EQDQ01  00002PRCP06Q02  00212WGOSPDQ03  00262WGOSPDQ04  00212WGOSPD
0085063560999992000010901004+51870+005150FM-12+000199999V0202101N003019999999N9999999N1+00151+00111999999REMSYN076AAXX  09011 06356 46/// /2103 10015 20011 4//// 5//// 333 910// 911// 91204;
0145063560999992000010902004+51870+005150FM-12+000199999V0202101N003019999999N9999999N1+00081+00041999999ADDOA140199999OA249999999REMSYN076AAXX  09021 06356 46/// /2103 10008 20004 4//// 5//// 333 91004 91104 91203;EQDQ01  00212WGOSPDQ02  00212WGOSPD
0128063560999992000010904004+51870+005150FM-12+000199999V0202301N002019999999N9999999N1+00041+00011999999ADDOA159999999REMSYN086AAXX  09041 06356 46/// /2302 10004 20001 4//// 5//// 333 910// 911// 91203 555 53000;EQDQ01  00152WGOSPD
0182063560999992000010905004+51870+005150FM-12+000199999V0202301N002019999999N9999999N1+00011+00001999999ADDOA140199999OA249999999OA359999999REMSYN086AAXX  09051 06356 46/// /2302 10001 20000 4//// 5//// 333 91003 91103 91202 555 53000;EQDQ01  00152WGOSPDQ02  00152WGOSPDQ03  00102WGOSPD
0131063560999992000010907004+51870+005150FM-12+000199999V0202401N001019999999N9999999N1-00121-00131999999ADDOA140100101OA249900151OA359900101REMSYN086AAXX  09071 06356 46/// /2401 11012 21013 4//// 5//// 333 91002 91103 91202 555 53///;
0194063560999992000010908004+51870+005150FM-12+000199999V0202401N002019999999N9999999N1-00071-00081999999ADDOA140199999OA249999999OA359999999REMSYN098AAXX  09081 06356 46/// /2402 11007 21008 4//// 5//// 333 91002 91102 91202 555 21016 41038 53000;EQDQ01  00102WGOSPDQ02  00102WGOSPDQ03  00102WGOSPD
0131063560999992000010910004+51870+005150FM-12+000199999V0202301N001019999999N9999999N1+00241+00231999999ADDOA140100101OA249900101OA359900101REMSYN086AAXX  09101 06356 46/// /2301 10024 20023 4//// 5//// 333 91002 91102 91202 555 53057;
0182063560999992000010911004+51870+005150FM-12+000199999V0202201N002019999999N9999999N1+00471+00461999999ADDOA140199999OA249999999OA359999999REMSYN086AAXX  09111 06356 46/// /2202 10047 20046 4//// 5//// 333 91002 91102 91202 555 53073;EQDQ01  00102WGOSPDQ02  00102WGOSPDQ03  00102WGOSPD
0221063560999992000010912004+51870+005150FM-12+000199999V0202801N003019999999N9999999N1+00611+00481999999ADDAA106000091OA140199999OA249999999OA359999999REMSYN098AAXX  09121 06356 36/// /2803 10061 20048 4//// 5//// 333 91004 91104 91203 555 51104 51203 53086;EQDQ01  00002PRCP06Q02  00212WGOSPDQ03  00212WGOSPDQ04  00152WGOSPD
0182063560999992000010913004+51870+005150FM-12+000199999V0203001N003019999999N9999999N1+00661+00381999999ADDOA140199999OA249999999OA359999999REMSYN086AAXX  09131 06356 46/// /3003 10066 20038 4//// 5//// 333 91005 91105 91204 555 53083;EQDQ01  00262WGOSPDQ02  00262WGOSPDQ03  00212WGOSPD
0166063560999992000010914004+51870+005150FM-12+000199999V0203001N003019999999N9999999N1+00531+00321999999ADDOA140199999OA249900311OA359999999REMSYN086AAXX  09141 06356 46/// /3003 10053 20032 4//// 5//// 333 91004 91106 91204 555 53045;EQDQ01  00212WGOSPDQ02  00212WGOSPD
0182063560999992000010916004+51870+005150FM-12+000199999V0203101N002019999999N9999999N1+99999+99999999999ADDOA140199999OA249999999OA359999999REMSYN086AAXX  09161 06356 46/// /3102 1//// 2//// 4//// 5//// 333 91003 91103 91202 555 53006;EQDQ01  00152WGOSPDQ02  00152WGOSPDQ03  00102WGOSPD
0182063560999992000010917004+51870+005150FM-12+000199999V02099999999999999999N9999999N1+00051-00031999999ADDOA140199999OA249999999OA359999999REMSYN086AAXX  09171 06356 46/// ///03 10005 21003 4//// 5//// 333 91003 91103 91203 555 53000;EQDQ01  00152WGOSPDQ02  00152WGOSPDQ03  00152WGOSPD
0224063560999992000010918004+51870+005150FM-12+000199999V0202801N003019999999N9999999N1+00021-00031999999ADDAA106000091KA1120M+00661OA140199999OA249900311OA359999999REMSYN104AAXX  09181 06356 36/// /2803 10002 21003 4//// 5//// 333 10066 91003 91106 91204 555 51103 51203 53000;EQDQ01  00002PRCP06Q02  00152WGOSPDQ03  00212WGOSPD
0131063560999992000010919004+51870+005150FM-12+000199999V0202701N001019999999N9999999N1-00091-00131999999ADDOA140100101OA249900151OA359900101REMSYN086AAXX  09191 06356 46/// /2701 11009 21013 4//// 5//// 333 91002 91103 91202 555 53000;
0131063560999992000010920004+51870+005150FM-12+000199999V0202601N001019999999N9999999N1-00131-00161999999ADDOA140100101OA249900101OA359900101REMSYN086AAXX  09201 06356 46/// /2601 11013 21016 4//// 5//// 333 91002 91102 91202 555 53000;
0085063560999992000010922004+51870+005150FM-12+000199999V0202401N001019999999N9999999N1-00161-00171999999REMSYN076AAXX  09221 06356 46/// /2401 11016 21017 4//// 5//// 333 910// 911// 91202;
0110063560999992000010923004+51870+005150FM-12+000199999V0202501N001019999999N9999999N1-00241-00261999999ADDOA140100101OA249900101REMSYN076AAXX  09231 06356 46/// /2501 11024 21026 4//// 5//// 333 91002 91102 91201;
0173063560999992000011000004+51870+005150FM-12+000199999V0202501N001019999999N9999999N1-00281-00291999999ADDAA106000791OA140199999OA249900151OA359900101REMSYN098AAXX  10001 06356 16/// /2501 11028 21029 4//// 5//// 69901 333 91001 91103 91202 555 51102 51201;EQDQ01  00052WGOSPD
0129063560999992000011001004+51870+005150FM-12+000199999V0202401N001019999999N9999999N1-00131-00141999999ADDOA140199999OA249900101REMSYN076AAXX  10011 06356 46/// /2401 11013 21014 4//// 5//// 333 91001 91102 91201;EQDQ01  00052WGOSPD
0129063560999992000011002004+51870+005150FM-12+000199999V0202501N001019999999N9999999N1-00111-00121999999ADDOA140199999OA249900101REMSYN076AAXX  10021 06356 46/// /2501 11011 21012 4//// 5//// 333 91001 91102 91201;EQDQ01  00052WGOSPD
0182063560999992000011004004+51870+005150FM-12+000199999V0202401N001019999999N9999999N1-00181-00181999999ADDOA140199999OA249999999OA359999999REMSYN086AAXX  10041 06356 46/// /2401 11018 21018 4//// 5//// 333 91001 91101 91201 555 53000;EQDQ01  00052WGOSPDQ02  00052WGOSPDQ03  00052WGOSPD
0182063560999992000011005004+51870+005150FM-12+000199999V0201701N001019999999N9999999N1-00101-00101999999ADDOA140199999OA249999999OA359999999REMSYN086AAXX  10051 06356 46/// /1701 11010 21010 4//// 5//// 333 91001 91101 91201 555 53000;EQDQ01  00052WGOSPDQ02  00052WGOSPDQ03  00052WGOSPD
0232063560999992000011006004+51870+005150FM-12+000199999V0202201N001019999999N9999999N1-00221-00221999999ADDAA112000791IA2999-00509KA1120N-00321OA140199999OA249900101OA359999999REMSYN116AAXX  10061 06356 16/// /2201 11022 21022 4//// 5//// 69902 333 21032 3/105 91001 91102 91201 555 51101 51201 53000;EQDQ01  00052WGOSPDQ02  00052WGOSPD
0182063560999992000011007004+51870+005150FM-12+000199999V0201701N001019999999N9999999N1-00311-00311999999ADDOA140199999OA249999999OA359999999REMSYN086AAXX  10071 06356 46/// /1701 11031 21031 4//// 5//// 333 91001 91101 91201 555 53000;EQDQ01  00052WGOSPDQ02  00052WGOSPDQ03  00052WGOSPD
0143063560999992000011008004+51870+005150FM-12+000199999V0201701N001019999999N9999999N1-00361-00361999999ADDOA140100101OA249900101OA359900101REMSYN098AAXX  10081 06356 46/// /1701 11036 21036 4//// 5//// 333 91002 91102 91202 555 21039 41053 53000;
0166063560999992000011010004+51870+005150FM-12+000199999V0202001N001019999999N9999999N1-00021-00021999999ADDOA140199999OA249900101OA359999999REMSYN086AAXX  10101 06356 46/// /2001 11002 21002 4//// 5//// 333 91001 91102 91201 555 53046;EQDQ01  00052WGOSPDQ02  00052WGOSPD
0182063560999992000011011004+51870+005150FM-12+000199999V0202201N002019999999N9999999N1+00241+00231999999ADDOA140199999OA249999999OA359999999REMSYN086AAXX  10111 06356 46/// /2202 10024 20023 4//// 5//// 333 91003 91103 91202 555 53081;EQDQ01  00152WGOSPDQ02  00152WGOSPDQ03  00102WGOSPD
0211063560999992000011012004+51870+005150FM-12+000199999V0202001N002019999999N9999999N1+00411+00401999999ADDAA106000791OA140199999OA249999999OA359999999REMSYN104AAXX  10121 06356 16/// /2002 10041 20040 4//// 5//// 69901 333 91003 91103 91203 555 51103 51203 53076;EQDQ01  00152WGOSPDQ02  00152WGOSPDQ03  00152WGOSPD
0182063560999992000011013004+51870+005150FM-12+000199999V0202101N003019999999N9999999N1+00451+00351999999ADDOA140199999OA249999999OA359999999REMSYN086AAXX  10131 06356 46/// /2103 10045 20035 4//// 5//// 333 91004 91104 91203 555 53083;EQDQ01  00212WGOSPDQ02  00212WGOSPDQ03  00152WGOSPD
0166063560999992000011014004+51870+005150FM-12+000199999V0202301N002019999999N9999999N1+00381+00261999999ADDOA140199999OA249900211OA359999999REMSYN086AAXX  10141 06356 46/// /2302 10038 20026 4//// 5//// 333 91003 91104 91203 555 53050;EQDQ01  00152WGOSPDQ02  00152WGOSPD
0182063560999992000011016004+51870+005150FM-12+000199999V0201801N003019999999N9999999N1+00121+00041999999ADDOA140199999OA249999999OA359999999REMSYN086AAXX  10161 06356 46/// /1803 10012 20004 4//// 5//// 333 91003 91103 91203 555 53007;EQDQ01  00152WGOSPDQ02  00152WGOSPDQ03  00152WGOSPD
0182063560999992000011017004+51870+005150FM-12+000199999V0202001N003019999999N9999999N1+00091+00041999999ADDOA140199999OA249999999OA359999999REMSYN086AAXX  10171 06356 46/// /2003 10009 20004 4//// 5//// 333 91003 91104 91203 555 53000;EQDQ01  00152WGOSPDQ02  00212WGOSPDQ03  00152WGOSPD
0214063560999992000011018004+51870+005150FM-12+000199999V0201901N002019999999N9999999N1+00061+00021999999ADDAA112000791KA1120M+00461OA140199999OA249900211OA359999999REMSYN110AAXX  10181 06356 16/// /1902 10006 20002 4//// 5//// 69902 333 10046 91003 91104 91203 555 51104 51203 53000;EQDQ01  00152WGOSPDQ02  00152WGOSPD
0166063560999992000011019004+51870+005150FM-12+000199999V0201901N002019999999N9999999N1-00021-00051999999ADDOA140199999OA249900211OA359999999REMSYN086AAXX  10191 06356 46/// /1902 11002 21005 4//// 5//// 333 91003 91104 91203 555 53000;EQDQ01  00152WGOSPDQ02  00152WGOSPD
0182063560999992000011020004+51870+005150FM-12+000199999V0201701N003019999999N9999999N1-00081-00111999999ADDOA140199999OA249999999OA359999999REMSYN086AAXX  10201 06356 46/// /1703 11008 21011 4//// 5//// 333 91004 91104 91203 555 53000;EQDQ01  00212WGOSPDQ02  00212WGOSPDQ03  00152WGOSPD
0145063560999992000011022004+51870+005150FM-12+000199999V0201701N003019999999N9999999N1-00121-00141999999ADDOA140199999OA249999999REMSYN076AAXX  10221 06356 46/// /1703 11012 21014 4//// 5//// 333 91004 91104 91203;EQDQ01  00212WGOSPDQ02  00212WGOSPD
0085063560999992000011023004+51870+005150FM-12+000199999V0201801N002019999999N9999999N1-00131-00141999999REMSYN076AAXX  10231 06356 46/// /1802 11013 21014 4//// 5//// 333 910// 911// 91203;
0205063560999992000011100004+51870+005150FM-12+000199999V0201801N003019999999N9999999N1-00141-00151999999ADDAA106000791OA140199999OA249999999OA359999999REMSYN098AAXX  11001 06356 16/// /1803 11014 21015 4//// 5//// 69901 333 91004 91104 91203 555 51104 51203;EQDQ01  00212WGOSPDQ02  00212WGOSPDQ03  00152WGOSPD
0145063560999992000011101004+51870+005150FM-12+000199999V0201701N004019999999N9999999N1-00141-00141999999ADDOA140199999OA249999999REMSYN076AAXX  11011 06356 46/// /1704 11014 21014 4//// 5//// 333 91005 91105 91204;EQDQ01  00262WGOSPDQ02  00262WGOSPD
0145063560999992000011102004+51870+005150FM-12+000199999V0201701N003019999999N9999999N1-00181-00191999999ADDOA140199999OA249999999REMSYN076AAXX  11021 06356 46/// /1703 11018 21019 4//// 5//// 333 91003 91105 91204;EQDQ01  00152WGOSPDQ02  00262WGOSPD
0182063560999992000011104004+51870+005150FM-12+000199999V0201901N004019999999N9999999N1+00031-00011999999ADDOA140199999OA249999999OA359999999REMSYN086AAXX  11041 06356 46/// /1904 10003 21001 4//// 5//// 333 91006 91106 91204 555 53000;EQDQ01  00312WGOSPDQ02  00312WGOSPDQ03  00212WGOSPD
0182063560999992000011105004+51870+005150FM-12+000199999V0202001N004019999999N9999999N1+00041-00041999999ADDOA140199999OA249999999OA359999999REMSYN086AAXX  11051 06356 46/// /2004 10004 21004 4//// 5//// 333 91006 91106 91204 555 53000;EQDQ01  00312WGOSPDQ02  00312WGOSPDQ03  00212WGOSPD
0221063560999992000011106004+51870+005150FM-12+000199999V02099999999999999999N9999999N1+00041-00041999999ADDAA112000791IA2999-00309KA1120N-00221OA140199999OA249999999REMSYN116AAXX  11061 06356 16/// /19// 10004 21004 4//// 5//// 69902 333 21022 3/103 91006 91106 912// 555 51106 512// 53000;EQDQ01  00312WGOSPDQ02  00312WGOSPD
0182063560999992000011107004+51870+005150FM-12+000199999V0202001N004019999999N9999999N1+00071-00021999999ADDOA140199999OA249999999OA359999999REMSYN086AAXX  11071 06356 46/// /2004 10007 21002 4//// 5//// 333 91007 91107 91204 555 53000;EQDQ01  00362WGOSPDQ02  00362WGOSPDQ03  00212WGOSPD
0194063560999992000011108004+51870+005150FM-12+000199999V0201801N004019999999N9999999N1+00071-00031999999ADDOA140199999OA249999999OA359999999REMSYN098AAXX  11081 06356 46/// /1804 10007 21003 4//// 5//// 333 91006 91107 91204 555 21022 41027 53000;EQDQ01  00312WGOSPDQ02  00362WGOSPDQ03  00212WGOSPD
0182063560999992000011110004+51870+005150FM-12+000199999V0202001N004019999999N9999999N1+00141+00001999999ADDOA140199999OA249999999OA359999999REMSYN086AAXX  11101 06356 46/// /2004 10014 20000 4//// 5//// 333 91006 91107 91205 555 53039;EQDQ01  00312WGOSPDQ02  00362WGOSPDQ03  00262WGOSPD
0182063560999992000011111004+51870+005150FM-12+000199999V0202001N005019999999N9999999N1+00251+00051999999ADDOA140199999OA249999999OA359999999REMSYN086AAXX  11111 06356 46/// /2005 10025 20005 4//// 5//// 333 91007 91107 91205 555 53071;EQDQ01  00362WGOSPDQ02  00362WGOSPDQ03  00262WGOSPD
0221063560999992000011112004+51870+005150FM-12+000199999V0201901N006019999999N9999999N1+00361+00081999999ADDAA106000091OA140199999OA249999999OA359999999REMSYN098AAXX  11121 06356 36/// /1906 10036 20008 4//// 5//// 333 91008 91108 91206 555 51108 51206 53083;EQDQ01  00002PRCP06Q02  00412WGOSPDQ03  00412WGOSPDQ04  00312WGOSPD
0182063560999992000011113004+51870+005150FM-12+000199999V0202101N005019999999N9999999N1+00371+00111999999ADDOA140199999OA249999999OA359999999REMSYN086AAXX  11131 06356 46/// /2105 10037 20011 4//// 5//// 333 91008 91108 91206 555 53082;EQDQ01  00412WGOSPDQ02  00412WGOSPDQ03  00312WGOSPD
0182063560999992000011114004+51870+005150FM-12+000199999V0201901N005019999999N9999999N1+00401+00151999999ADDOA140199999OA249999999OA359999999REMSYN086AAXX  11141 06356 46/// /1905 10040 20015 4//// 5//// 333 91007 91107 91205 555 53028;EQDQ01  00362WGOSPDQ02  00362WGOSPDQ03  00262WGOSPD
0182063560999992000011116004+51870+005150FM-12+000199999V0201901N005019999999N9999999N1+00421+00171999999ADDOA140199999OA249999999OA359999999REMSYN086AAXX  11161 06356 46/// /1905 10042 20017 4//// 5//// 333 91007 91107 91205 555 53003;EQDQ01  00362WGOSPDQ02  00362WGOSPDQ03  00262WGOSPD
0182063560999992000011117004+51870+005150FM-12+000199999V0201901N005019999999N9999999N1+00401+00141999999ADDOA140199999OA249999999OA359999999REMSYN086AAXX  11171 06356 46/// /1905 10040 20014 4//// 5//// 333 91008 91108 91205 555 53000;EQDQ01  00412WGOSPDQ02  00412WGOSPDQ03  00262WGOSPD
0224063560999992000011118004+51870+005150FM-12+000199999V0201901N004019999999N9999999N1+00371+00101999999ADDAA106000091KA1120M+00421OA140199999OA249900411OA359999999REMSYN104AAXX  11181 06356 36/// /1904 10037 20010 4//// 5//// 333 10042 91006 91108 91206 555 51107 51205 53000;EQDQ01  00002PRCP06Q02  00312WGOSPDQ03  00312WGOSPD
0182063560999992000011119004+51870+005150FM-12+000199999V0202001N005019999999N9999999N1+99999+99999999999ADDOA140199999OA249999999OA359999999REMSYN086AAXX  11191 06356 46/// /2005 1//// 2//// 4//// 5//// 333 91008 91109 91206 555 53000;EQDQ01  00412WGOSPDQ02  00462WGOSPDQ03  00312WGOSPD
0182063560999992000011120004+51870+005150FM-12+000199999V0202001N005019999999N9999999N1+00321+00021999999ADDOA140199999OA249999999OA359999999REMSYN086AAXX  11201 06356 46/// /2005 10032 20002 4//// 5//// 333 91008 91108 91205 555 53000;EQDQ01  00412WGOSPDQ02  00412WGOSPDQ03  00262WGOSPD
0145063560999992000011122004+51870+005150FM-12+000199999V0202001N005019999999N9999999N1+00171-00061999999ADDOA140199999OA249999999REMSYN076AAXX  11221 06356 46/// /2005 10017 21006 4//// 5//// 333 91007 91108 91206;EQDQ01  00362WGOSPDQ02  00412WGOSPD
0145063560999992000011123004+51870+005150FM-12+000199999V0202001N006019999999N9999999N1+00101-00071999999ADDOA140199999OA249999999REMSYN076AAXX  11231 06356 46/// /2006 10010 21007 4//// 5//// 333 91009 91109 91206;EQDQ01  00462WGOSPDQ02  00462WGOSPD
0188063560999992000011200004+51870+005150FM-12+000199999V0202001N005019999999N9999999N1+00091-00081999999ADDOA140199999OA249999999OA359999999REMSYN092AAXX  12001 06356 46/// /2005 10009 21008 4//// 5//// 333 91009 91109 91206 555 51109 51206;EQDQ01  00462WGOSPDQ02  00462WGOSPDQ03  00312WGOSPD
0085063560999992000011201004+51870+005150FM-12+000199999V0202001N006019999999N9999999N1+00061-00121999999REMSYN076AAXX  12011 06356 46/// /2006 10006 21012 4//// 5//// 333 910// 911// 91206;
0145063560999992000011202004+51870+005150FM-12+000199999V0202001N006019999999N9999999N1+00051-00121999999ADDOA140199999OA249999999REMSYN076AAXX  12021 06356 46/// /2006 10005 21012 4//// 5//// 333 91009 91109 91206;EQDQ01  00462WGOSPDQ02  00462WGOSPD
0182063560999992000011204004+51870+005150FM-12+000199999V0202001N004019999999N9999999N1+00001-00161999999ADDOA140199999OA249999999OA359999999REMSYN086AAXX  12041 06356 46/// /2004 10000 21016 4//// 5//// 333 91006 91107 91205 555 53000;EQDQ01  00312WGOSPDQ02  00362WGOSPDQ03  00262WGOSPD
0128063560999992000011205004+51870+005150FM-12+000199999V0201901N004019999999N9999999N1-00021-00161999999ADDOA159999999REMSYN086AAXX  12051 06356 46/// /1904 11002 21016 4//// 5//// 333 910// 911// 91205 555 53000;EQDQ01  00262WGOSPD
0248063560999992000011206004+51870+005150FM-12+000199999V0202001N005019999999N9999999N1-00031-00161999999ADDAA112000791IA2999-00109KA1120N-00051OA140199999OA249999999OA359999999REMSYN116AAXX  12061 06356 16/// /2005 11003 21016 4//// 5//// 69902 333 21005 3/101 91007 91109 91206 555 51107 51205 53000;EQDQ01  00362WGOSPDQ02  00462WGOSPDQ03  00312WGOSPD
0182063560999992000011207004+51870+005150FM-12+000199999V0201901N005019999999N9999999N1-00051-00191999999ADDOA140199999OA249999999OA359999999REMSYN086AAXX  12071 06356 46/// /1905 11005 21019 4//// 5//// 333 91007 91108 91205 555 53000;EQDQ01  00362WGOSPDQ02  00412WGOSPDQ03  00262WGOSPD
0194063560999992000011208004+51870+005150FM-12+000199999V0202001N005019999999N9999999N1-00031-00191999999ADDOA140199999OA249999999OA359999999REMSYN098AAXX  12081 06356 46/// /2005 11003 21019 4//// 5//// 333 91007 91108 91206 555 21006 41012 53002;EQDQ01  00362WGOSPDQ02  00412WGOSPDQ03  00312WGOSPD
0182063560999992000011210004+51870+005150FM-12+000199999V0202001N007019999999N9999999N1+99999+99999999999ADDOA140199999OA249999999OA359999999REMSYN086AAXX  12101 06356 46/// /2007 1//// 2//// 4//// 5//// 333 91010 91110 91207 555 53041;EQDQ01  00512WGOSPDQ02  00512WGOSPDQ03  00362WGOSPD
0182063560999992000011211004+51870+005150FM-12+000199999V0202001N006019999999N9999999N1+00161-00091999999ADDOA140199999OA249999999OA359999999REMSYN086AAXX  12111 06356 46/// /2006 10016 21009 4//// 5//// 333 91009 91110 91206 555 53074;EQDQ01  00462WGOSPDQ02  00512WGOSPDQ03  00312WGOSPD
0194063560999992000011212004+51870+005150FM-12+000199999V0202101N006019999999N9999999N1+00201-00061999999ADDOA140199999OA249999999OA359999999REMSYN098AAXX  12121 06356 46/// /2106 10020 21006 4//// 5//// 333 91009 91110 91207 555 51109 51207 53080;EQDQ01  00462WGOSPDQ02  00512WGOSPDQ03  00362WGOSPD
0182063560999992000011213004+51870+005150FM-12+000199999V0202001N006019999999N9999999N1+00251-00031999999ADDOA140199999OA249999999OA359999999REMSYN086AAXX  12131 06356 46/// /2006 10025 21003 4//// 5//// 333 91009 91110 91206 555 53054;EQDQ01  00462WGOSPDQ02  00512WGOSPDQ03  00312WGOSPD
0182063560999992000011214004+51870+005150FM-12+000199999V0202101N006019999999N9999999N1+00271-00081999999ADDOA140199999OA249999999OA359999999REMSYN086AAXX  12141 06356 46/// /2106 10027 21008 4//// 5//// 333 91008 91109 91206 555 53052;EQDQ01  00412WGOSPDQ02  00462WGOSPDQ03  00312WGOSPD
0182063560999992000011216004+51870+005150FM-12+000199999V0201901N005019999999N9999999N1+00171-00171999999ADDOA140199999OA249999999OA359999999REMSYN086AAXX  12161 06356 46/// /1905 10017 21017 4//// 5//// 333 91008 91109 91205 555 53007;EQDQ01  00412WGOSPDQ02  00462WGOSPDQ03  00262WGOSPD
0166063560999992000011217004+51870+005150FM-12+000199999V0201901N004019999999N9999999N1+00121-00171999999ADDOA140199999OA249900461OA359999999REMSYN086AAXX  12171 06356 46/// /1904 10012 21017 4//// 5//// 333 91006 91109 91206 555 53000;EQDQ01  00312WGOSPDQ02  00312WGOSPD
0240063560999992000011218004+51870+005150FM-12+000199999V0201901N006019999999N9999999N1+00081-00161999999ADDAA106000091KA1120M+00281OA140199999OA249999999OA359999999REMSYN104AAXX  12181 06356 36/// /1906 10008 21016 4//// 5//// 333 10028 91008 91110 91206 555 51108 51206 53000;EQDQ01  00002PRCP06Q02  00412WGOSPDQ03  00512WGOSPDQ04  00312WGOSPD
0128063560999992000011219004+51870+005150FM-12+000199999V0202001N005019999999N9999999N1+00041-00161999999ADDOA159999999REMSYN086AAXX  12191 06356 46/// /2005 10004 21016 4//// 5//// 333 910// 911// 91205 555 53000;EQDQ01  00262WGOSPD
0128063560999992000011220004+51870+005150FM-12+000199999V0201901N005019999999N9999999N1+00031-00151999999ADDOA159999999REMSYN086AAXX  12201 06356 46/// /1905 10003 21015 4//// 5//// 333 910// 911// 91206 555 53000;EQDQ01  00312WGOSPD
0145063560999992000011222004+51870+005150FM-12+000199999V0202001N005019999999N9999999N1+99999+99999999999ADDOA140199999OA249999999REMSYN076AAXX  12221 06356 46/// /2005 1//// 2//// 4//// 5//// 333 91009 91109 91206;EQDQ01  00462WGOSPDQ02  00462WGOSPD
0129063560999992000011223004+51870+005150FM-12+000199999V0201901N004019999999N9999999N1-00011-00161999999ADDOA140199999OA249900411REMSYN076AAXX  12231 06356 46/// /1904 11001 21016 4//// 5//// 333 91006 91108 91205;EQDQ01  00312WGOSPD
0199063560999992000011300004+51870+005150FM-12+000199999V0201901N004019999999N9999999N1-00011-00151999999ADDAA106000091OA140199999OA249900511OA359999999REMSYN092AAXX  13001 06356 36/// /1904 11001 21015 4//// 5//// 333 91006 91110 91206 555 51107 51204;EQDQ01  00002PRCP06Q02  00312WGOSPDQ03  00312WGOSPD
0145063560999992000011302004+51870+005150FM-12+000199999V0201801N004019999999N9999999N1+00041-00151999999ADDOA140199999OA249999999REMSYN076AAXX  13021 06356 46/// /1804 10004 21015 4//// 5//// 333 91006 91106 91204;EQDQ01  00312WGOSPDQ02  00312WGOSPD
0182063560999992000011304004+51870+005150FM-12+000199999V0201501N004019999999N9999999N1+00141-00091999999ADDOA140199999OA249999999OA359999999REMSYN086AAXX  13041 06356 46/// /1504 10014 21009 4//// 5//// 333 91006 91107 91205 555 53000;EQDQ01  00312WGOSPDQ02  00362WGOSPDQ03  00262WGOSPD
0182063560999992000011305004+51870+005150FM-12+000199999V0201601N005019999999N9999999N1+00111-00091999999ADDOA140199999OA249999999OA359999999REMSYN086AAXX  13051 06356 46/// /1605 10011 21009 4//// 5//// 333 91007 91107 91205 555 53000;EQDQ01  00362WGOSPDQ02  00362WGOSPDQ03  00262WGOSPD
0258063560999992000011306004+51870+005150FM-12+000199999V0201701N004019999999N9999999N1+00121+99999999999ADDAA106000091IA2999-00109KA1120N-00021OA140199999OA249999999OA359999999REMSYN110AAXX  13061 06356 36/// /1704 10012 2//// 4//// 5//// 333 21002 3/101 91005 91107 91205 555 51107 51205 53000;EQDQ01  00002PRCP06Q02  00262WGOSPDQ03  00362WGOSPDQ04  00262WGOSPD
0182063560999992000011307004+51870+005150FM-12+000199999V02099999999999999999N9999999N1+00161-00091999999ADDOA140199999OA249999999OA359999999REMSYN086AAXX  13071 06356 46/// ///04 10016 21009 4//// 5//// 333 91006 91106 91204 555 53000;EQDQ01  00312WGOSPDQ02  00312WGOSPDQ03  00212WGOSPD
0194063560999992000011308004+51870+005150FM-12+000199999V0201701N005019999999N9999999N1+00181-00121999999ADDOA140199999OA249999999OA359999999REMSYN098AAXX  13081 06356 46/// /1705 10018 21012 4//// 5//// 333 91007 91107 91205 555 21002 41010 53000;EQDQ01  00362WGOSPDQ02  00362WGOSPDQ03  00262WGOSPD
0182063560999992000011310004+51870+005150FM-12+000199999V0201801N005019999999N9999999N1+00241-00071999999ADDOA140199999OA249999999OA359999999REMSYN086AAXX  13101 06356 46/// /1805 10024 21007 4//// 5//// 333 91008 91108 91205 555 53021;EQDQ01  00412WGOSPDQ02  00412WGOSPDQ03  00262WGOSPD
0182063560999992000011311004+51870+005150FM-12+000199999V0201901N006019999999N9999999N1+00351-00091999999ADDOA140199999OA249999999OA359999999REMSYN086AAXX  13111 06356 46/// /1906 10035 21009 4//// 5//// 333 91010 91110 91206 555 53080;EQDQ01  00512WGOSPDQ02  00512WGOSPDQ03  00312WGOSPD
0221063560999992000011312004+51870+005150FM-12+000199999V0202001N007019999999N9999999N1+00351-00081999999ADDAA106000091OA140199999OA249999999OA359999999REMSYN098AAXX  13121 06356 36/// /2007 10035 21008 4//// 5//// 333 91011 91111 91207 555 51111 51207 53075;EQDQ01  00002PRCP06Q02  00572WGOSPDQ03  00572WGOSPDQ04  00362WGOSPD
0166063560999992000011313004+51870+005150FM-12+000199999V0202001N005019999999N9999999N1+00361-00041999999ADDOA140199999OA249900511OA359999999REMSYN086AAXX  13131 06356 46/// /2005 10036 21004 4//// 5//// 333 91009 91110 91207 555 53057;EQDQ01  00462WGOSPDQ02  00362WGOSPD
0182063560999992000011314004+51870+005150FM-12+000199999V0201901N005019999999N9999999N1+00331-00041999999ADDOA140199999OA249999999OA359999999REMSYN086AAXX  13141 06356 46/// /1905 10033 21004 4//// 5//// 333 91007 91108 91205 555 53021;EQDQ01  00362WGOSPDQ02  00412WGOSPDQ03  00262WGOSPD
0150063560999992000011316004+51870+005150FM-12+000199999V0201801N003019999999N9999999N1+00301-00041999999ADDOA140100311OA249900361OA359999999REMSYN086AAXX  13161 06356 46/// /1803 10030 21004 4//// 5//// 333 91006 91107 91204 555 53001;EQDQ01  00212WGOSPD
0166063560999992000011317004+51870+005150FM-12+000199999V0201901N003019999999N9999999N1+00291-00031999999ADDOA140199999OA249900311OA359999999REMSYN086AAXX  13171 06356 46/// /1903 10029 21003 4//// 5//// 333 91005 91106 91204 555 53000;EQDQ01  00262WGOSPDQ02  00212WGOSPD
0224063560999992000011318004+51870+005150FM-12+000199999V0202001N005019999999N9999999N1+00301-00021999999ADDAA106000091KA1120M+00371OA140199999OA249900511OA359999999REMSYN104AAXX  13181 06356 36/// /2005 10030 21002 4//// 5//// 333 10037 91007 91110 91207 555 51107 51205 53000;EQDQ01  00002PRCP06Q02  00362WGOSPDQ03  00362WGOSPD
0182063560999992000011319004+51870+005150FM-12+000199999V0202001N005019999999N9999999N1+00251+00021999999ADDOA140199999OA249999999OA359999999REMSYN086AAXX  13191 06356 46/// /2005 10025 20002 4//// 5//// 333 91008 91108 91205 555 53000;EQDQ01  00412WGOSPDQ02  00412WGOSPDQ03  00262WGOSPD
0170063560999992000011320004+51870+005150FM-12+000199999V0202001N003019999999N9999999N1+00181+00091999999ADDOA140199999OA249900361OA359999999REMSYN090    AAXX  13201 06356 46/// /2003 10018 20009 4//// 5//// 333 91005 91107 91205 555 53000;EQDQ01  00262WGOSPDQ02  00262WGOSPD
0149063560999992000011322004+51870+005150FM-12+000199999V0202001N004019999999N9999999N1+00161+00101999999ADDOA140199999OA249999999REMSYN080    AAXX  13221 06356 46/// /2004 10016 20010 4//// 5//// 333 91006 91107 91204;EQDQ01  00312WGOSPDQ02  00362WGOSPD
0149063560999992000011323004+51870+005150FM-12+000199999V0202001N003019999999N9999999N1+00161+00101999999ADDOA140199999OA249999999REMSYN080    AAXX  13231 06356 46/// /2003 10016 20010 4//// 5//// 333 91005 91105 91203;EQDQ01  00262WGOSPDQ02  00262WGOSPD
0110063560999992000011400004+51870+005150FM-12+000199999V0202001N003019999999N9999999N1+00161+99999999999REMSYN101    AAXX  14001 06356 16/// /2003 10016 2011 4//// 5//// 69911 333 91005 91108 91205 555 51105 51203;
0149063560999992000011401004+51870+005150FM-12+000199999V0202001N003019999999N9999999N1+00151+00101999999ADDOA140199999OA249999999REMSYN080    AAXX  14011 06356 46/// /2003 10015 20010 4//// 5//// 333 91004 91105 91203;EQDQ01  00212WGOSPDQ02  00262WGOSPD
0149063560999992000011402004+51870+005150FM-12+000199999V0201801N003019999999N9999999N1+00151+00101999999ADDOA140199999OA249999999REMSYN080    AAXX  14021 06356 46/// /1803 10015 20010 4//// 5//// 333 91004 91105 91203;EQDQ01  00212WGOSPDQ02  00262WGOSPD
0186063560999992000011404004+51870+005150FM-12+000199999V0201901N003019999999N9999999N1+00161+00131999999ADDOA140199999OA249999999OA359999999REMSYN090    AAXX  14041 06356 46/// /1903 10016 20013 4//// 5//// 333 91004 91105 91203 555 53000;EQDQ01  00212WGOSPDQ02  00262WGOSPDQ03  00152WGOSPD
0186063560999992000011405004+51870+005150FM-12+000199999V0202001N003019999999N9999999N1+99999+99999999999ADDOA140199999OA249999999OA359999999REMSYN090    AAXX  14051 06356 46/// /2003 1//// 2//// 4//// 5//// 333 91004 91105 91203 555 53000;EQDQ01  00212WGOSPDQ02  00262WGOSPDQ03  00152WGOSPD
0252063560999992000011406004+51870+005150FM-12+000199999V0202001N003019999999N9999999N1+00181+00161999999ADDAA112000191IA2999+00109KA1120N+00141OA140199999OA249999999OA359999999REMSYN120    AAXX  14061 06356 16/// /2003 10018 20016 4//// 5//// 69922 333 20014 3/001 91004 91105 91203 555 51104 51203 53000;EQDQ01  00212WGOSPDQ02  00262WGOSPDQ03  00152WGOSPD
0186063560999992000011407004+51870+005150FM-12+000199999V0202101N003019999999N9999999N1+00191+00171999999ADDOA140199999OA249999999OA359999999REMSYN090    AAXX  14071 06356 46/// /2103 10019 20017 4//// 5//// 333 91003 91104 91203 555 53000;EQDQ01  00152WGOSPDQ02  00212WGOSPDQ03  00152WGOSPD
0198063560999992000011408004+51870+005150FM-12+000199999V0202101N003019999999N9999999N1+00201+00191999999ADDOA140199999OA249999999OA359999999REMSYN102    AAXX  14081 06356 46/// /2103 10020 20019 4//// 5//// 333 91004 91104 91203 555 20014 40013 53000;EQDQ01  00212WGOSPDQ02  00212WGOSPDQ03  00152WGOSPD
0159063560999992000011410004+51870+005150FM-12+000199999V02099999999999999999N9999999N1+00261+00261999999ADDOA140199999OA249999999REMSYN090    AAXX  14101 06356 46/// /22// 10026 20026 4//// 5//// 333 91003 91104 912// 555 53014;EQDQ01  00152WGOSPDQ02  00212WGOSPD
0154063560999992000011411004+51870+005150FM-12+000199999V0202001N002019999999N9999999N1+00311+00301999999ADDOA140100211OA249900211OA359999999REMSYN090    AAXX  14111 06356 46/// /2002 10031 20030 4//// 5//// 333 91004 91104 91203 555 53023;EQDQ01  00152WGOSPD
0209063560999992000011412004+51870+005150FM-12+000199999V0202001N002019999999N9999999N1+00331+00321999999ADDAA199000091OA140199999OA249900211OA359999999REMSYN102    AAXX  14121 06356 36/// /2002 10033 20032 4//// 5//// 333 91003 91104 91203 555 51104 51203 53028;EQDQ01  00002PRCP99Q02  00152WGOSPDQ03  00152WGOSPD
0170063560999992000011414004+51870+005150FM-12+000199999V0201901N002019999999N9999999N1+00391+00381999999ADDOA140199999OA249900211OA359999999REMSYN090    AAXX  14141 06356 46/// /1902 10039 20038 4//// 5//// 333 91003 91104 91202 555 53017;EQDQ01  00152WGOSPDQ02  00102WGOSPD
0186063560999992000011416004+51870+005150FM-12+000199999V0202101N002019999999N9999999N1+00391+00361999999ADDOA140199999OA249999999OA359999999REMSYN090    AAXX  14161 06356 46/// /2102 10039 20036 4//// 5//// 333 91003 91103 91202 555 53002;EQDQ01  00152WGOSPDQ02  00152WGOSPDQ03  00102WGOSPD
0170063560999992000011417004+51870+005150FM-12+000199999V0201701N001019999999N9999999N1+00381+00351999999ADDOA140199999OA249900101OA359999999REMSYN090    AAXX  14171 06356 46/// /1701 10038 20035 4//// 5//// 333 91001 91102 91201 555 53000;EQDQ01  00052WGOSPDQ02  00052WGOSPD
0196063560999992000011418004+51870+005150FM-12+000199999V0201701N001019999999N9999999N1+00361+00341999999ADDAA199000091KA1120M+00411OA140100101OA249900211OA359900101REMSYN108    AAXX  14181 06356 36/// /1701 10036 20034 4//// 5//// 333 10041 91002 91104 91202 555 51102 51201 53000;EQDQ01  00002PRCP99
0154063560999992000011419004+51870+005150FM-12+000199999V0201001N001019999999N9999999N1+00331+00311999999ADDOA140199999OA249900151OA359900101REMSYN090    AAXX  14191 06356 46/// /1001 10033 20031 4//// 5//// 333 91001 91103 91202 555 53000;EQDQ01  00052WGOSPD
0186063560999992000011420004+51870+005150FM-12+000199999V0201001N002019999999N9999999N1+00321+00301999999ADDOA140199999OA249999999OA359999999REMSYN090    AAXX  14201 06356 46/// /1002 10032 20030 4//// 5//// 333 91002 91102 91202 555 53000;EQDQ01  00102WGOSPDQ02  00102WGOSPDQ03  00102WGOSPD
0114063560999992000011422004+51870+005150FM-12+000199999V0200801N002019999999N9999999N1+00301+00281999999ADDOA140100211OA249900211REMSYN080    AAXX  14221 06356 46/// /0802 10030 20028 4//// 5//// 333 91004 91104 91202;
0149063560999992000011423004+51870+005150FM-12+000199999V0200601N002019999999N9999999N1+00281+00271999999ADDOA140199999OA249999999REMSYN080    AAXX  14231 06356 46/// /0602 10028 20027 4//// 5//// 333 91003 91103 91202;EQDQ01  00152WGOSPDQ02  00152WGOSPD
0171063560999992000011500004+51870+005150FM-12+000199999V0200801N001019999999N9999999N1+00271+00261999999ADDAA199000091OA140100101OA249900211OA359900101REMSYN096    AAXX  15001 06356 36/// /0801 10027 20026 4//// 5//// 333 91002 91104 91202 555 51103 51202;EQDQ01  00002PRCP99
0114063560999992000011501004+51870+005150FM-12+000199999V0200101N001019999999N9999999N1+99999+99999999999ADDOA140100101OA249900101REMSYN080    AAXX  15011 06356 46/// /0101 1//// 2//// 4//// 5//// 333 91002 91102 91202;
0149063560999992000011502004+51870+005150FM-12+000199999V0200101N002019999999N9999999N1+00251+00241999999ADDOA140199999OA249999999REMSYN080    AAXX  15021 06356 46/// /0102 10025 20024 4//// 5//// 333 91002 91103 91202;EQDQ01  00102WGOSPDQ02  00152WGOSPD
0186063560999992000011504004+51870+005150FM-12+000199999V0200101N004019999999N9999999N1+00281+00281999999ADDOA140199999OA249999999OA359999999REMSYN090    AAXX  15041 06356 46/// /0104 10028 20028 4//// 5//// 333 91006 91106 91204 555 53000;EQDQ01  00312WGOSPDQ02  00312WGOSPDQ03  00212WGOSPD
0186063560999992000011505004+51870+005150FM-12+000199999V0200201N005019999999N9999999N1+00241+00231999999ADDOA140199999OA249999999OA359999999REMSYN090    AAXX  15051 06356 46/// /0205 10024 20023 4//// 5//// 333 91007 91108 91206 555 53000;EQDQ01  00362WGOSPDQ02  00412WGOSPDQ03  00312WGOSPD
0246063560999992000011506004+51870+005150FM-12+000199999V0200201N004019999999N9999999N1+00251+00241999999ADDAA199000091IA2999+00109KA1120N+00191OA140199999OA249900411OA359999999REMSYN114    AAXX  15061 06356 36/// /0204 10025 20024 4//// 5//// 333 20019 3/001 91006 91108 91206 555 51107 51205 53000;EQDQ01  00002PRCP99Q02  00312WGOSPDQ03  00312WGOSPD
0159063560999992000011507004+51870+005150FM-12+000199999V02099999999999999999N9999999N1+00271+00261999999ADDOA140199999OA249999999REMSYN090    AAXX  15071 06356 46/// /01// 10027 20026 4//// 5//// 333 91005 91106 912// 555 53000;EQDQ01  00262WGOSPDQ02  00312WGOSPD
0198063560999992000011508004+51870+005150FM-12+000199999V0200201N004019999999N9999999N1+00301+00281999999ADDOA140199999OA249999999OA359999999REMSYN102    AAXX  15081 06356 46/// /0204 10030 20028 4//// 5//// 333 91007 91107 91204 555 20019 40015 53000;EQDQ01  00362WGOSPDQ02  00362WGOSPDQ03  00212WGOSPD
0132063560999992000011510004+51870+005150FM-12+000199999V0200501N004019999999N9999999N1+00351+00231999999ADDOA159999999REMSYN090    AAXX  15101 06356 46/// /0504 10035 20023 4//// 5//// 333 910// 911// 91205 555 53018;EQDQ01  00262WGOSPD
0186063560999992000011511004+51870+005150FM-12+000199999V0200301N004019999999N9999999N1+00381+00211999999ADDOA140199999OA249999999OA359999999REMSYN090    AAXX  15111 06356 46/// /0304 10038 20021 4//// 5//// 333 91005 91106 91204 555 53053;EQDQ01  00262WGOSPDQ02  00312WGOSPDQ03  00212WGOSPD
0225063560999992000011512004+51870+005150FM-12+000199999V0200201N006019999999N9999999N1+00461+00231999999ADDAA199000091OA140199999OA249999999OA359999999REMSYN102    AAXX  15121 06356 36/// /0206 10046 20023 4//// 5//// 333 91007 91109 91206 555 51107 51206 53087;EQDQ01  00002PRCP99Q02  00362WGOSPDQ03  00462WGOSPDQ04  00312WGOSPD
0170063560999992000011513004+51870+005150FM-12+000199999V0200301N003019999999N9999999N1+00401+00111999999ADDOA140199999OA249900361OA359999999REMSYN090    AAXX  15131 06356 46/// /0303 10040 20011 4//// 5//// 333 91005 91107 91205 555 53024;EQDQ01  00262WGOSPDQ02  00262WGOSPD
0170063560999992000011514004+51870+005150FM-12+000199999V0200101N002019999999N9999999N1+00401+00131999999ADDOA140199999OA249900211OA359999999REMSYN090    AAXX  15141 06356 46/// /0102 10040 20013 4//// 5//// 333 91003 91104 91203 555 53041;EQDQ01  00152WGOSPDQ02  00152WGOSPD
0170063560999992000011516004+51870+005150FM-12+000199999V0200201N002019999999N9999999N1+00241+00111999999ADDOA140199999OA249900211OA359999999REMSYN090    AAXX  15161 06356 46/// /0202 10024 20011 4//// 5//// 333 91003 91104 91203 555 53011;EQDQ01  00152WGOSPDQ02  00152WGOSPD
0186063560999992000011517004+51870+005150FM-12+000199999V0200201N002019999999N9999999N1+00141-00021999999ADDOA140199999OA249999999OA359999999REMSYN090    AAXX  15171 06356 46/// /0202 10014 21002 4//// 5//// 333 91003 91103 91202 555 53000;EQDQ01  00152WGOSPDQ02  00152WGOSPDQ03  00102WGOSPD
0212063560999992000011518004+51870+005150FM-12+000199999V0200101N002019999999N9999999N1+99999+99999999999ADDAA199000091KA1120M+00481OA140199999OA249900361OA359900261REMSYN108    AAXX  15181 06356 36/// /0102 1//// 2//// 4//// 5//// 333 10048 91002 91107 91205 555 51103 51202 53000;EQDQ01  00002PRCP99Q02  00102WGOSPD
0186063560999992000011519004+51870+005150FM-12+000199999V0203401N002019999999N9999999N1+00171+00061999999ADDOA140199999OA249999999OA359999999REMSYN090    AAXX  15191 06356 46/// /3402 10017 20006 4//// 5//// 333 91003 91103 91202 555 53000;EQDQ01  00152WGOSPDQ02  00152WGOSPDQ03  00102WGOSPD
0132063560999992000011520004+51870+005150FM-12+000199999V0203301N002019999999N9999999N1+00181+00081999999ADDOA159999999REMSYN090    AAXX  15201 06356 46/// /3302 10018 20008 4//// 5//// 333 910// 911// 91202 555 53000;EQDQ01  00102WGOSPD
0149063560999992000011522004+51870+005150FM-12+000199999V0203101N003019999999N9999999N1+00131+00081999999ADDOA140199999OA249999999REMSYN080    AAXX  15221 06356 46/// /3103 10013 20008 4//// 5//// 333 91003 91103 91203;EQDQ01  00152WGOSPDQ02  00152WGOSPD
0149063560999992000011523004+51870+005150FM-12+000199999V02099999999999999999N9999999N1+00141+00081999999ADDOA140199999OA249999999REMSYN080    AAXX  15231 06356 46/// ///// 10014 20008 4//// 5//// 333 91003 91103 912//;EQDQ01  00152WGOSPDQ02  00152WGOSPD
0219063560999992000011600004+51870+005150FM-12+000199999V0203001N002019999999N9999999N1+00191+00131999999ADDAA199000091OA140199999OA249999999OA359999999REMSYN096    AAXX  16001 06356 36/// /3002 10019 20013 4//// 5//// 333 91003 91103 91203 555 51103 51203;EQDQ01  00002PRCP99Q02  00152WGOSPDQ03  00152WGOSPDQ04  00152WGOSPD
0149063560999992000011601004+51870+005150FM-12+000199999V0203201N003019999999N9999999N1+00291+99999999999ADDOA140199999OA249999999REMSYN080    AAXX  16011 06356 46/// /3203 10029 2//// 4//// 5//// 333 91004 91104 91203;EQDQ01  00212WGOSPDQ02  00212WGOSPD
0149063560999992000011602004+51870+005150FM-12+000199999V0203101N003019999999N9999999N1+00261+00151999999ADDOA140199999OA249999999REMSYN080    AAXX  16021 06356 46/// /3103 10026 20015 4//// 5//// 333 91003 91104 91203;EQDQ01  00152WGOSPDQ02  00212WGOSPD
0170063560999992000011604004+51870+005150FM-12+000199999V0202701N002019999999N9999999N1+00201+00161999999ADDOA140199999OA249900211OA359999999REMSYN090    AAXX  16041 06356 46/// /2702 10020 20016 4//// 5//// 333 91003 91104 91203 555 53000;EQDQ01  00152WGOSPDQ02  00152WGOSPD
0186063560999992000011605004+51870+005150FM-12+000199999V0202701N003019999999N9999999N1+00301+00271999999ADDOA140199999OA249999999OA359999999REMSYN090    AAXX  16051 06356 46/// /2703 10030 20027 4//// 5//// 333 91003 91104 91203 555 53000;EQDQ01  00152WGOSPDQ02  00212WGOSPDQ03  00152WGOSPD
0246063560999992000011606004+51870+005150FM-12+000199999V0202801N002019999999N9999999N1+00331+00311999999ADDAA199000091IA2999-00109KA1120N+00031OA140199999OA249900211OA359999999REMSYN114    AAXX  16061 06356 36/// /2802 10033 20031 4//// 5//// 333 20003 3/101 91003 91104 91203 555 51104 51203 53000;EQDQ01  00002PRCP99Q02  00152WGOSPDQ03  00152WGOSPD
0159063560999992000011607004+51870+005150FM-12+000199999V02099999999999999999N9999999N1+00361+00341999999ADDOA140199999OA249999999REMSYN090    AAXX  16071 06356 46/// /28// 10036 20034 4//// 5//// 333 91003 91103 912// 555 53000;EQDQ01  00152WGOSPDQ02  00152WGOSPD
0198063560999992000011608004+51870+005150FM-12+000199999V0202801N002019999999N9999999N1+00411+00391999999ADDOA140199999OA249999999OA359999999REMSYN102    AAXX  16081 06356 46/// /2802 10041 20039 4//// 5//// 333 91003 91103 91203 555 20003 41005 53000;EQDQ01  00152WGOSPDQ02  00152WGOSPDQ03  00152WGOSPD
0186063560999992000011610004+51870+005150FM-12+000199999V0203201N002019999999N9999999N1+00551+00541999999ADDOA140199999OA249999999OA359999999REMSYN090    AAXX  16101 06356 46/// /3202 10055 20054 4//// 5//// 333 91003 91103 91203 555 53014;EQDQ01  00152WGOSPDQ02  00152WGOSPDQ03  00152WGOSPD
0186063560999992000011611004+51870+005150FM-12+000199999V0203401N003019999999N9999999N1+00641+99999999999ADDOA140199999OA249999999OA359999999REMSYN090    AAXX  16111 06356 46/// /3403 10064 2//// 4//// 5//// 333 91004 91105 91204 555 53///;EQDQ01  00212WGOSPDQ02  00262WGOSPDQ03  00212WGOSPD
0215063560999992000011612004+51870+005150FM-12+000199999V0203201N003019999999N9999999N1+00711+00571999999ADDAA106000791OA140199999OA249999999OA359999999REMSYN108    AAXX  16121 06356 16/// /3203 10071 20057 4//// 5//// 69901 333 91005 91105 91204 555 51105 51203 53057;EQDQ01  00262WGOSPDQ02  00262WGOSPDQ03  00212WGOSPD
0186063560999992000011613004+51870+005150FM-12+000199999V0203101N004019999999N9999999N1+00641+00591999999ADDOA140199999OA249999999OA359999999REMSYN090    AAXX  16131 06356 46/// /3104 10064 20059 4//// 5//// 333 91006 91106 91205 555 53034;EQDQ01  00312WGOSPDQ02  00312WGOSPDQ03  00262WGOSPD
0186063560999992000011614004+51870+005150FM-12+000199999V0203101N004019999999N9999999N1+00661+00621999999ADDOA140199999OA249999999OA359999999REMSYN090    AAXX  16141 06356 46/// /3104 10066 20062 4//// 5//// 333 91006 91106 91205 555 53019;EQDQ01  00312WGOSPDQ02  00312WGOSPDQ03  00262WGOSPD
0186063560999992000011616004+51870+005150FM-12+000199999V0203301N005019999999N9999999N1+00641+00621999999ADDOA140199999OA249999999OA359999999REMSYN090    AAXX  16161 06356 46/// /3305 10064 20062 4//// 5//// 333 91006 91108 91205 555 53002;EQDQ01  00312WGOSPDQ02  00412WGOSPDQ03  00262WGOSPD
0132063560999992000011617004+51870+005150FM-12+000199999V0203101N003019999999N9999999N1+00611+00591999999ADDOA159999999REMSYN090    AAXX  16171 06356 46/// /3103 10061 20059 4//// 5//// 333 910// 911// 91205 555 53000;EQDQ01  00262WGOSPD
0218063560999992000011618004+51870+005150FM-12+000199999V0203001N004019999999N9999999N1+00601+00561999999ADDAA112000891KA1120M+00721OA140199999OA249900411OA359999999REMSYN114    AAXX  16181 06356 16/// /3004 10060 20056 4//// 5//// 69972 333 10072 91005 91108 91205 555 51106 51204 53000;EQDQ01  00262WGOSPDQ02  00262WGOSPD
0186063560999992000011619004+51870+005150FM-12+000199999V0203201N004019999999N9999999N1+00591+00551999999ADDOA140199999OA249999999OA359999999REMSYN090    AAXX  16191 06356 46/// /3204 10059 20055 4//// 5//// 333 91005 91107 91205 555 53000;EQDQ01  00262WGOSPDQ02  00362WGOSPDQ03  00262WGOSPD
0186063560999992000011620004+51870+005150FM-12+000199999V0203001N005019999999N9999999N1+99999+99999999999ADDOA140199999OA249999999OA359999999REMSYN090    AAXX  16201 06356 46/// /3005 1//// 2//// 4//// 5//// 333 91006 91107 91205 555 53000;EQDQ01  00312WGOSPDQ02  00362WGOSPDQ03  00262WGOSPD
0149063560999992000011622004+51870+005150FM-12+000199999V0202901N005019999999N9999999N1+00571+00471999999ADDOA140199999OA249999999REMSYN080    AAXX  16221 06356 46/// /2905 10057 20047 4//// 5//// 333 91006 91109 91206;EQDQ01  00312WGOSPDQ02  00462WGOSPD
0149063560999992000011623004+51870+005150FM-12+000199999V02099999999999999999N9999999N1+00531+00461999999ADDOA140199999OA249999999REMSYN080    AAXX  16231 06356 46/// ///05 10053 20046 4//// 5//// 333 91007 91108 91206;EQDQ01  00362WGOSPDQ02  00412WGOSPD
0149063560999992000011701004+51870+005150FM-12+000199999V0202901N004019999999N9999999N1+00491+00431999999ADDOA140199999OA249999999REMSYN080    AAXX  17011 06356 46/// /2904 10049 20043 4//// 5//// 333 91006 91107 91205;EQDQ01  00312WGOSPDQ02  00362WGOSPD
0149063560999992000011702004+51870+005150FM-12+000199999V0202901N004019999999N9999999N1+00421+00361999999ADDOA140199999OA249999999REMSYN080    AAXX  17021 06356 46/// /2904 10042 20036 4//// 5//// 333 91006 91106 91204;EQDQ01  00312WGOSPDQ02  00312WGOSPD
0099063560999992000011704004+51870+005150FM-12+000199999V02099999999999999999N9999999N1+00441+00381999999REMSYN090    AAXX  17041 06356 46/// /28// 10044 20038 4//// 5//// 333 910// 911// 912// 555 53000;
0186063560999992000011705004+51870+005150FM-12+000199999V0202901N005019999999N9999999N1+00451+00401999999ADDOA140199999OA249999999OA359999999REMSYN090    AAXX  17051 06356 46/// /2905 10045 20040 4//// 5//// 333 91007 91107 91205 555 53000;EQDQ01  00362WGOSPDQ02  00362WGOSPDQ03  00262WGOSPD
0252063560999992000011706004+51870+005150FM-12+000199999V0202901N006019999999N9999999N1+00491+00431999999ADDAA112000791IA2999+00309KA1120N+00401OA140199999OA249999999OA359999999REMSYN120    AAXX  17061 06356 16/// /2906 10049 20043 4//// 5//// 69902 333 20040 3/003 91008 91108 91206 555 51108 51206 53000;EQDQ01  00412WGOSPDQ02  00412WGOSPDQ03  00312WGOSPD
0186063560999992000011707004+51870+005150FM-12+000199999V0202901N005019999999N9999999N1+00451+00411999999ADDOA140199999OA249999999OA359999999REMSYN090    AAXX  17071 06356 46/// /2905 10045 20041 4//// 5//// 333 91006 91107 91205 555 53000;EQDQ01  00312WGOSPDQ02  00362WGOSPDQ03  00262WGOSPD
0198063560999992000011708004+51870+005150FM-12+000199999V0203001N006019999999N9999999N1+00531+00481999999ADDOA140199999OA249999999OA359999999REMSYN102    AAXX  17081 06356 46/// /3006 10053 20048 4//// 5//// 333 91008 91108 91206 555 20040 40034 53000;EQDQ01  00412WGOSPDQ02  00412WGOSPDQ03  00312WGOSPD
0186063560999992000011710004+51870+005150FM-12+000199999V0203001N006019999999N9999999N1+99999+99999999999ADDOA140199999OA249999999OA359999999REMSYN090    AAXX  17101 06356 46/// /3006 1//// 2//// 4//// 5//// 333 91009 91109 91206 555 53035;EQDQ01  00462WGOSPDQ02  00462WGOSPDQ03  00312WGOSPD
0186063560999992000011711004+51870+005150FM-12+000199999V0203101N005019999999N9999999N1+00721+00581999999ADDOA140199999OA249999999OA359999999REMSYN090    AAXX  17111 06356 46/// /3105 10072 20058 4//// 5//// 333 91007 91108 91206 555 53014;EQDQ01  00362WGOSPDQ02  00412WGOSPDQ03  00312WGOSPD
0225063560999992000011712004+51870+005150FM-12+000199999V0203201N005019999999N9999999N1+00731+00601999999ADDAA199000091OA140199999OA249999999OA359999999REMSYN102    AAXX  17121 06356 36/// /3205 10073 20060 4//// 5//// 333 91009 91109 91206 555 51109 51205 53010;EQDQ01  00002PRCP99Q02  00462WGOSPDQ03  00462WGOSPDQ04  00312WGOSPD
0186063560999992000011714004+51870+005150FM-12+000199999V02099999999999999999N9999999N1+00701+00611999999ADDOA140199999OA249999999OA359999999REMSYN090    AAXX  17141 06356 46/// ///06 10070 20061 4//// 5//// 333 91009 91109 91206 555 53010;EQDQ01  00462WGOSPDQ02  00462WGOSPDQ03  00312WGOSPD
0186063560999992000011716004+51870+005150FM-12+000199999V0203101N006019999999N9999999N1+00681+00621999999ADDOA140199999OA249999999OA359999999REMSYN090    AAXX  17161 06356 46/// /3106 10068 20062 4//// 5//// 333 91008 91109 91206 555 53002;EQDQ01  00412WGOSPDQ02  00462WGOSPDQ03  00312WGOSPD
0186063560999992000011717004+51870+005150FM-12+000199999V0203201N006019999999N9999999N1+00681+00621999999ADDOA140199999OA249999999OA359999999REMSYN090    AAXX  17171 06356 46/// /3206 10068 20062 4//// 5//// 333 91009 91110 91207 555 53000;EQDQ01  00462WGOSPDQ02  00512WGOSPDQ03  00362WGOSPD
0186063560999992000011719004+51870+005150FM-12+000199999V0203201N007019999999N9999999N1+00711+00601999999ADDOA140199999OA249999999OA359999999REMSYN090    AAXX  17191 06356 46/// /3207 10071 20060 4//// 5//// 333 91011 91112 91208 555 53000;EQDQ01  00572WGOSPDQ02  00622WGOSPDQ03  00412WGOSPD
0186063560999992000011720004+51870+005150FM-12+000199999V0203301N007019999999N9999999N1+00711+00581999999ADDOA140199999OA249999999OA359999999REMSYN090    AAXX  17201 06356 46/// /3307 10071 20058 4//// 5//// 333 91011 91113 91208 555 53000;EQDQ01  00572WGOSPDQ02  00672WGOSPDQ03  00412WGOSPD
0149063560999992000011722004+51870+005150FM-12+000199999V0203301N007019999999N9999999N1+00681+00591999999ADDOA140199999OA249999999REMSYN080    AAXX  17221 06356 46/// /3307 10068 20059 4//// 5//// 333 91010 91112 91208;EQDQ01  00512WGOSPDQ02  00622WGOSPD
0149063560999992000011723004+51870+005150FM-12+000199999V0203201N008019999999N9999999N1+00691+00591999999ADDOA140199999OA249999999REMSYN080    AAXX  17231 06356 46/// /3208 10069 20059 4//// 5//// 333 91011 91112 91208;EQDQ01  00572WGOSPDQ02  00622WGOSPD
0193063560999992000011800004+51870+005150FM-12+000199999V0203201N006019999999N9999999N1+00681+00601999999ADDAA106000791OA140199999OA249900721OA359999999REMSYN102    AAXX  18001 06356 16/// /3206 10068 20060 4//// 5//// 69901 333 91011 91114 91209 555 51111 51207;EQDQ01  00572WGOSPDQ02  00462WGOSPD
0133063560999992000011801004+51870+005150FM-12+000199999V0203201N006019999999N9999999N1+00681+00611999999ADDOA140199999OA249900621REMSYN080    AAXX  18011 06356 46/// /3206 10068 20061 4//// 5//// 333 91009 91112 91207;EQDQ01  00462WGOSPD
0133063560999992000011802004+51870+005150FM-12+000199999V0203201N005019999999N9999999N1+00681+00601999999ADDOA140199999OA249900571REMSYN080    AAXX  18021 06356 46/// /3205 10068 20060 4//// 5//// 333 91009 91111 91207;EQDQ01  00462WGOSPD
0186063560999992000011804004+51870+005150FM-12+000199999V0203101N008019999999N9999999N1+00681+00621999999ADDOA140199999OA249999999OA359999999REMSYN090    AAXX  18041 06356 46/// /3108 10068 20062 4//// 5//// 333 91011 91112 91208 555 53000;EQDQ01  00572WGOSPDQ02  00622WGOSPDQ03  00412WGOSPD
0186063560999992000011805004+51870+005150FM-12+000199999V0203201N008019999999N9999999N1+00701+00641999999ADDOA140199999OA249999999OA359999999REMSYN090    AAXX  18051 06356 46/// /3208 10070 20064 4//// 5//// 333 91012 91112 91208 555 53000;EQDQ01  00622WGOSPDQ02  00622WGOSPDQ03  00412WGOSPD
0151063560999992000011806004+51870+005150FM-12+000199999V02099999999999999999N9999999N1+99999+99999999999ADDIA2999+00609KA1120N+00661REMSYN114    AAXX  18061 06356 46/// ///// 1//// 2//// 4//// 5//// 333 20066 3/006 910// 911// 912// 555 511// 512// 53///;
0186063560999992000011807004+51870+005150FM-12+000199999V0203301N008019999999N9999999N1+00711+00651999999ADDOA140199999OA249999999OA359999999REMSYN090    AAXX  18071 06356 46/// /3308 10071 20065 4//// 5//// 333 91012 91113 91209 555 53000;EQDQ01  00622WGOSPDQ02  00672WGOSPDQ03  00462WGOSPD
0198063560999992000011808004+51870+005150FM-12+000199999V0203301N008019999999N9999999N1+00721+00611999999ADDOA140199999OA249999999OA359999999REMSYN102    AAXX  18081 06356 46/// /3308 10072 20061 4//// 5//// 333 91012 91112 91209 555 20066 40064 53000;EQDQ01  00622WGOSPDQ02  00622WGOSPDQ03  00462WGOSPD
0170063560999992000011810004+51870+005150FM-12+000199999V0203301N007019999999N9999999N1+00791+00581999999ADDOA140199999OA249900771OA359999999REMSYN090    AAXX  18101 06356 46/// /3307 10079 20058 4//// 5//// 333 91011 91115 91209 555 53012;EQDQ01  00572WGOSPDQ02  00462WGOSPD
0099063560999992000011811004+51870+005150FM-12+000199999V0203201N009019999999N9999999N1+99999+99999999999REMSYN090    AAXX  18111 06356 46/// /3209 1//// 2//// 4//// 5//// 333 91012 911// 912// 555 53///;
0144063560999992000011812004+51870+005150FM-12+000199999V0203301N009019999999N9999999N1+00791+00531999999ADDOA159999999REMSYN102    AAXX  18121 06356 46/// /3309 10079 20053 4//// 5//// 333 910// 911// 91210 555 511// 51210 53019;EQDQ01  00512WGOSPD
0186063560999992000011813004+51870+005150FM-12+000199999V0203301N011019999999N9999999N1+00801+00561999999ADDOA140199999OA249999999OA359999999REMSYN090    AAXX  18131 06356 46/// /3311 10080 20056 4//// 5//// 333 91016 91116 91211 555 53025;EQDQ01  00822WGOSPDQ02  00822WGOSPDQ03  00572WGOSPD
0132063560999992000011814004+51870+005150FM-12+000199999V0203501N010019999999N9999999N1+00811+00421999999ADDOA159999999REMSYN090    AAXX  18141 06356 46/// /3510 10081 20042 4//// 5//// 333 910// 911// 91211 555 53036;EQDQ01  00572WGOSPD
0170063560999992000011816004+51870+005150FM-12+000199999V0203401N008019999999N9999999N1+99999+99999999999ADDOA140199999OA249900931OA359999999REMSYN090    AAXX  18161 06356 46/// /3408 1//// 2//// 4//// 5//// 333 91012 91118 91212 555 53006;EQDQ01  00622WGOSPDQ02  00622WGOSPD
0170063560999992000011817004+51870+005150FM-12+000199999V0203601N007019999999N9999999N1+00591+00161999999ADDOA140199999OA249900721OA359999999REMSYN090    AAXX  18171 06356 46/// /3607 10059 20016 4//// 5//// 333 91009 91114 91209 555 53000;EQDQ01  00462WGOSPDQ02  00462WGOSPD
0185063560999992000011818004+51870+005150FM-12+000199999V0203601N006019999999N9999999N1+00581+00141999999ADDKA1120M+00841OA140199999OA249900931OA359900621REMSYN108    AAXX  18181 06356 46/// /3606 10058 20014 4//// 5//// 333 10084 91008 91118 91212 555 51111 51208 53000;EQDQ01  00412WGOSPD
0132063560999992000011819004+51870+005150FM-12+000199999V0203501N005019999999N9999999N1+00571+00051999999ADDOA159999999REMSYN090    AAXX  18191 06356 46/// /3505 10057 20005 4//// 5//// 333 910// 911// 91208 555 53000;EQDQ01  00412WGOSPD
0154063560999992000011820004+51870+005150FM-12+000199999V0203501N005019999999N9999999N1+99999+99999999999ADDOA140100511OA249900571OA359999999REMSYN090    AAXX  18201 06356 46/// /3505 1//// 2//// 4//// 5//// 333 91010 91111 91207 555 53000;EQDQ01  00362WGOSPD
0149063560999992000011822004+51870+005150FM-12+000199999V02099999999999999999N9999999N1+00451+00191999999ADDOA140199999OA249999999REMSYN080    AAXX  18221 06356 46/// ///06 10045 20019 4//// 5//// 333 91009 91110 91207;EQDQ01  00462WGOSPDQ02  00512WGOSPD
0114063560999992000011823004+51870+005150FM-12+000199999V0203301N004019999999N9999999N1+00421+00201999999ADDOA140100461OA249900461REMSYN080    AAXX  18231 06356 46/// /3304 10042 20020 4//// 5//// 333 91009 91109 91205;
0177063560999992000011900004+51870+005150FM-12+000199999V0203401N003019999999N9999999N1+00401+00231999999ADDAA106000191OA140199999OA249900671OA359900411REMSYN102    AAXX  19001 06356 16/// /3403 10040 20023 4//// 5//// 69921 333 91004 91113 91208 555 51110 51207;EQDQ01  00212WGOSPD
0133063560999992000011901004+51870+005150FM-12+000199999V0203301N003019999999N9999999N1+00391+00131999999ADDOA140199999OA249900411REMSYN080    AAXX  19011 06356 46/// /3303 10039 20013 4//// 5//// 333 91005 91108 91205;EQDQ01  00262WGOSPD
0133063560999992000011902004+51870+005150FM-12+000199999V0203301N004019999999N9999999N1+00391+00151999999ADDOA140199999OA249900571REMSYN080    AAXX  19021 06356 46/// /3304 10039 20015 4//// 5//// 333 91006 91111 91206;EQDQ01  00312WGOSPD
0186063560999992000011904004+51870+005150FM-12+000199999V0203001N004019999999N9999999N1+00361+00191999999ADDOA140199999OA249999999OA359999999REMSYN090    AAXX  19041 06356 46/// /3004 10036 20019 4//// 5//// 333 91005 91106 91204 555 53000;EQDQ01  00262WGOSPDQ02  00312WGOSPDQ03  00212WGOSPD
0132063560999992000011905004+51870+005150FM-12+000199999V0203101N004019999999N9999999N1+00401+00161999999ADDOA159999999REMSYN090    AAXX  19051 06356 46/// /3104 10040 20016 4//// 5//// 333 910// 911// 91205 555 53000;EQDQ01  00262WGOSPD
0236063560999992000011906004+51870+005150FM-12+000199999V0203101N004019999999N9999999N1+00411+00171999999ADDAA112000191IA2999+00309KA1120N+00341OA140199999OA249900571OA359999999REMSYN120    AAXX  19061 06356 16/// /3104 10041 20017 4//// 5//// 69922 333 20034 3/003 91006 91111 91206 555 51106 51205 53000;EQDQ01  00312WGOSPDQ02  00312WGOSPD
0170063560999992000011907004+51870+005150FM-12+000199999V0203001N003019999999N9999999N1+00371+00171999999ADDOA140199999OA249900311OA359999999REMSYN090    AAXX  19071 06356 46/// /3003 10037 20017 4//// 5//// 333 91005 91106 91204 555 53000;EQDQ01  00262WGOSPDQ02  00212WGOSPD
0144063560999992000011908004+51870+005150FM-12+000199999V0203301N005019999999N9999999N1+00391+00171999999ADDOA159999999REMSYN102    AAXX  19081 06356 46/// /3305 10039 20017 4//// 5//// 333 910// 911// 91205 555 20034 40030 53000;EQDQ01  00262WGOSPD
0170063560999992000011910004+51870+005150FM-12+000199999V0203201N003019999999N9999999N1+00461+00231999999ADDOA140199999OA249900311OA359999999REMSYN090    AAXX  19101 06356 46/// /3203 10046 20023 4//// 5//// 333 91005 91106 91204 555 53015;EQDQ01  00262WGOSPDQ02  00212WGOSPD
0186063560999992000011911004+51870+005150FM-12+000199999V0203301N004019999999N9999999N1+00511+00261999999ADDOA140199999OA249999999OA359999999REMSYN090    AAXX  19111 06356 46/// /3304 10051 20026 4//// 5//// 333 91006 91107 91205 555 53029;EQDQ01  00312WGOSPDQ02  00362WGOSPDQ03  00262WGOSPD
0209063560999992000011912004+51870+005150FM-12+000199999V0203301N004019999999N9999999N1+00531+00241999999ADDAA199000091OA140199999OA249900411OA359999999REMSYN102    AAXX  19121 06356 36/// /3304 10053 20024 4//// 5//// 333 91005 91108 91205 555 51107 51205 53033;EQDQ01  00002PRCP99Q02  00262WGOSPDQ03  00262WGOSPD
0186063560999992000011913004+51870+005150FM-12+000199999V0203301N004019999999N9999999N1+00551+00251999999ADDOA140199999OA249999999OA359999999REMSYN090    AAXX  19131 06356 46/// /3304 10055 20025 4//// 5//// 333 91006 91107 91205 555 53034;EQDQ01  00312WGOSPDQ02  00362WGOSPDQ03  00262WGOSPD
