0268064280999992000010100004+50930+003730FM-12+0060EBMT V0202101N003010060019N0020001N1+00541+00511102251ADDAA106000091AY141061AY221061GA1041+000909079GA2061+006009069GF107991061051000751999999MD1710011+9999MW1101OA149900361OA259900311REMSYN110AAXX  01001 06428 31120 72103 10054 20051 40225 57001 71042 865// 333 84703 86620 91107 91206 555 10055 20034;EQDQ01  00002PRCP06
0211064280999992000010101004+50930+003730FM-12+0060EBMT V0202201N002010009019N0020001N1+00551+00541102271ADDAY121999AY221999GA1051+000909079GA2061+006009069GF107991071051000751999999MD1810011+9999MW1101OA149900211REMSYN094AAXX  01011 06428 41120 72202 10055 20054 40227 58001 71022 875// 333 85703 86620 91104 91203;
0208064280999992000010102004+50930+003730FM-12+0060EBMT V0202201N003010045019N0030001N1+00551+00541102271ADDAY121999AY221999GA1071+004509069GF107991071051004501999999MD1210021+9999MW1101OA149999999REMSYN088AAXX  01021 06428 41430 72203 10055 20054 40227 52002 71022 875// 333 87615 91105 91204;EQDQ01  00262WGOSPD
0230064280999992000010103004+50930+003730FM-12+0060EBMT V0202201N004010045019N0030001N1+00551+00541102251ADDAY121031AY221031GA1041+001509079GA2071+004509069GF107991071051001501999999MD1010001+9999MW1101OA149999999REMSYN094AAXX  01031 06428 41230 72204 10055 20054 40225 50000 71022 875// 333 84705 87615 91106 91204;EQDQ01  00312WGOSPD
0230064280999992000010104004+50930+003730FM-12+0060EBMT V0202201N004010045019N0025001N1+00571+00541102251ADDAY121999AY221999GA1041+001809079GA2071+004509069GF107991071051001501999999MD1510001+9999MW1101OA149999999REMSYN094AAXX  01041 06428 41225 72204 10057 20054 40225 55000 71022 875// 333 84706 87615 91106 91204;EQDQ01  00312WGOSPD
0230064280999992000010105004+50930+003730FM-12+0060EBMT V0202201N004010054019N0025001N1+00601+00571102211ADDAY161999AY251999GA1041+001509079GA2061+005409069GF108991071051001501999999MD1710051+9999MW1581OA149999999REMSYN094AAXX  01051 06428 41225 82204 10060 20057 40221 57005 75865 875// 333 84705 86618 91106 91204;EQDQ01  00312WGOSPD
0290064280999992000010106004+50930+003730FM-12+0060EBMT V0202201N004010018019N0018001N1+00601+00571102241ADDAA112000191AY161061AY251061GA1051+001809079GA2071+004509069GF108991071051001501999999IA1119IA2999+00509KA1120N+00481MD1510001+9999MW1211OA149999999REMSYN112AAXX  01061 06428 11218 82204 10060 20057 40224 55000 69912 72165 875// 333 20048 32005 85706 87615 91106 91204;EQDQ01  00312WGOSPD
0208064280999992000010107004+50930+003730FM-12+0060EBMT V0202201N004010009019N0020001N1+00611+00581102261ADDAY121999AY221999GA1071+000909079GF108991071061000751999999MD1310021+9999MW1101OA149999999REMSYN088AAXX  01071 06428 41120 82204 10061 20058 40226 53002 71022 876// 333 87703 91106 91204;EQDQ01  00312WGOSPD
0189064280999992000010108004+50930+003730FM-12+0060EBMT V0202301N002010009019N0020001N1+00631+00601102381ADDAY121999AY221999GA1071+000909079GF108991071061000751999999MD1310161+9999MW1101OA149900211REMSYN088AAXX  01081 06428 41120 82302 10063 20060 40238 53016 71022 876// 333 87703 91104 91203;
0189064280999992000010109004+50930+003730FM-12+0060EBMT V0202301N002010009019N0020001N1+00651+00621102431ADDAY121031AY221031GA1071+000909079GF108991071071000751999999MD1210181+9999MW1501OA149900311REMSYN088AAXX  01091 06428 41120 82302 10065 20062 40243 52018 75022 877// 333 87703 91106 91204;
0189064280999992000010110004+50930+003730FM-12+0060EBMT V0209999V002010009019N0011001N1+00721+00691102481ADDAY151999AY251999GA1071+000909079GF108991071071000751999999MD1210221+9999MW1511OA149900261REMSYN088AAXX  01101 06428 41111 89902 10072 20069 40248 52022 75155 877// 333 87703 91105 91203;
0211064280999992000010111004+50930+003730FM-12+0060EBMT V0209999V002010003019N0011001N1+00771+00741102491ADDAY151999AY221999GA1031+000159079GA2071+000309079GF108991071061000251999999MD1110121+9999MW1201OA149900211REMSYN094AAXX  01111 06428 41011 89902 10077 20074 40249 51012 72052 876// 333 83700 87701 91104 91202;
0228064280999992000010112004+50930+003730FM-12+0060EBMT V0209999V001010001519N0006001N1+00791+00791102511ADDAA106000191AY151061AY241061GA1051+000159079GA2071+000309079GF108991071071000251999999MD1110091+9999MW1501OA149900311REMSYN100AAXX  01121 06428 11006 89901 10079 20079 40251 51009 69921 75054 877// 333 85700 87701 91106 91204;
0211064280999992000010113004+50930+003730FM-12+0060EBMT V0209999V001010003019N0011001N1+00821+00791102541ADDAY151999AY241999GA1021+000159079GA2061+000309079GF108991071071000251999999MD1310061+9999MW1511OA149900101REMSYN094AAXX  01131 06428 41011 89901 10082 20079 40254 53006 75154 877// 333 82700 86701 91102 91202;
0211064280999992000010114004+50930+003730FM-12+0060EBMT V0209999V001010009019N0016001N1+00831+00781102571ADDAY151999AY221999GA1021+000609079GA2071+000909079GF108991071061000751999999MD1210081+9999MW1201OA149900101REMSYN094AAXX  01141 06428 41116 89901 10083 20078 40257 52008 72052 876// 333 82702 87703 91102 91201;
0211064280999992000010115004+50930+003730FM-12+0060EBMT V0209999V001010012019N0016001N1+00831+00781102631ADDAY151031AY241031GA1031+000909079GA2071+001209079GF108991071061000751999999MD1310121+9999MW1101OA149900101REMSYN094AAXX  01151 06428 41116 89901 10083 20078 40263 53012 71054 876// 333 83703 87704 91102 91202;
0211064280999992000010116004+50930+003730FM-12+0060EBMT V0209999V001010015019N0016001N1+00821+00711102641ADDAY121999AY221999GA1031+001209079GA2071+001509079GF108991071061001501999999MD1210101+9999MW1101OA149900151REMSYN094AAXX  01161 06428 41216 89901 10082 20071 40264 52010 71022 876// 333 83704 87705 91103 91202;
0208064280999992000010117004+50930+003730FM-12+0060EBMT V0209999V002010012019N0014001N1+00791+00701102671ADDAY121999AY221999GA1071+001209079GF108991071061001501999999MD1210101+9999MW1101OA149999999REMSYN088AAXX  01171 06428 41214 89902 10079 20070 40267 52010 71022 876// 333 87704 91103 91202;EQDQ01  00152WGOSPD
0244064280999992000010118004+50930+003730FM-12+0060EBMT V0209999V002010009019N0015001N1+00751+00681102721ADDAA112000191AY151061AY241061GA1071+000909079GF108991071061000751999999KA1120M+00851MD1310091+9999MW1101OA149999999REMSYN100AAXX  01181 06428 11115 89902 10075 20068 40272 53009 69922 71054 876// 333 10085 87703 91103 91202;EQDQ01  00152WGOSPD
0189064280999992000010119004+50930+003730FM-12+0060EBMT V0202401N002010009019N0012001N1+00731+00681102781ADDAY121999AY221999GA1071+000909079GF108991071061000751999999MD1310131+9999MW1101OA149900211REMSYN088AAXX  01191 06428 41112 82402 10073 20068 40278 53013 71022 876// 333 87703 91104 91203;
0208064280999992000010120004+50930+003730FM-12+0060EBMT V0209999V002010006019N0012001N1+00721+00691102811ADDAY121999AY221999GA1071+000609079GF108991071061000751999999MD1110131+9999MW1101OA149999999REMSYN088AAXX  01201 06428 41112 89902 10072 20069 40281 51013 71022 876// 333 87702 91103 91202;EQDQ01  00152WGOSPD
0211064280999992000010121004+50930+003730FM-12+0060EBMT V0209999V002010009019N0011001N1+00701+00671102811ADDAY141031AY221031GA1021+000159079GA2071+000909079GF108991071061000251999999MD1110081+9999MW1101OA149900211REMSYN094AAXX  01211 06428 41011 89902 10070 20067 40281 51008 71042 876// 333 82700 87703 91104 91203;
0189064280999992000010122004+50930+003730FM-12+0060EBMT V0209999V001010009019N0011001N1+00711+00661102841ADDAY121999AY221999GA1071+000909079GF108991071061000751999999MD1210061+9999MW1101OA149900211REMSYN088AAXX  01221 06428 41111 89901 10071 20066 40284 52006 71022 876// 333 87703 91104 91203;
0230064280999992000010123004+50930+003730FM-12+0060EBMT V0209999V002010003019N0006001N1+00661+00661102871ADDAY141999AY221999GA1031+000159079GA2071+000309079GF108991081061000251999999MD1310061+9999MW1461OA149999999REMSYN094AAXX  01231 06428 41006 89902 10066 20066 40287 53006 74642 886// 333 83700 87701 91103 91202;EQDQ01  00152WGOSPD
0268064280999992000010200004+50930+003730FM-12+0060EBMT V0209999C000010001519N0001001N1+00641+00641102881ADDAA106000091AY141061AY221061GA1051+000159079GA2071+000309079GF108991081061000251999999MD1110071+9999MW1461OA149900211OA259900151REMSYN110AAXX  02001 06428 31001 80000 10064 20064 40288 51007 74642 886// 333 85700 87701 91104 91203 555 10085 20053;EQDQ01  00002PRCP06
0208064280999992000010201004+50930+003730FM-12+0060EBMT V0209999V002010001519N0001001N1+00631+00631102841ADDAY141999AY241999GA1071+000159079GF108991081061000251999999MD1010001+9999MW1421OA149999999REMSYN088AAXX  02011 06428 41001 89902 10063 20063 40284 50000 74244 886// 333 87700 91103 91202;EQDQ01  00152WGOSPD
0189064280999992000010202004+50930+003730FM-12+0060EBMT V0201601N002010001519N0002001N1+00591+00591102811ADDAY141999AY241999GA1071+000159079GF108991081061000251999999MD1810061+9999MW1421OA149900211REMSYN088AAXX  02021 06428 41002 81602 10059 20059 40281 58006 74244 886// 333 87700 91104 91203;
0211064280999992000010203004+50930+003730FM-12+0060EBMT V0201801N002010003019N0002001N1+00631+00631102821ADDAY141031AY241031GA1031+000159079GA2071+000309079GF108991081061000251999999MD1810161+9999MW1441OA149900211REMSYN094AAXX  02031 06428 41002 81802 10063 20063 40282 58016 74444 886// 333 83700 87701 91104 91203;
0211064280999992000010204004+50930+003730FM-12+0060EBMT V0209999V002010003019N0011001N1+00671+00671102821ADDAY141999AY221999GA1031+000159079GA2071+000309079GF108991081061000251999999MD1610121+9999MW1281OA149900261REMSYN094AAXX  02041 06428 41011 89902 10067 20067 40282 56012 72842 886// 333 83700 87701 91105 91203;
0211064280999992000010205004+50930+003730FM-12+0060EBMT V0209999V002010054019N0015001N1+00671+00671102831ADDAY121999AY221999GA1031+001509079GA2051+005409069GF107991061051000751031999MD1210021+9999MW1101OA149900211REMSYN094AAXX  02051 06428 41115 79902 10067 20067 40283 52002 71022 8653/ 333 83705 85618 91104 91202;
0262064280999992000010206004+50930+003730FM-12+0060EBMT V0201801N002010009019N0015001N1+00671+00671102821ADDAA106000091AY121061AY221061GA1061+000909079GF107991061061001501031999IA1099IA2999+00609KA1120N+00581MD1010001+9999MW1101OA149900261REMSYN100AAXX  02061 06428 31215 71802 10067 20067 40282 50000 71022 8663/ 333 20058 31006 86703 91105 91203;EQDQ01  00002PRCP06
0230064280999992000010207004+50930+003730FM-12+0060EBMT V0201901N003010069019N0015001N1+00681+00651102801ADDAY121999AY221999GA1041+000909079GA2071+006909069GF108991071051000751999999MD1810021+9999MW1101OA149999999REMSYN094AAXX  02071 06428 41115 81903 10068 20065 40280 58002 71022 875// 333 84703 87623 91105 91203;EQDQ01  00262WGOSPD
0208064280999992000010208004+50930+003730FM-12+0060EBMT V0202001N003010009019N0015001N1+00721+00681102831ADDAY121999AY221999GA1071+000909079GF108991071061000751999999MD1510031+9999MW1101OA149999999REMSYN088AAXX  02081 06428 41115 82003 10072 20068 40283 55003 71022 876// 333 87703 91105 91203;EQDQ01  00262WGOSPD
0208064280999992000010209004+50930+003730FM-12+0060EBMT V0202001N004010009019N0015001N1+00781+00751102881ADDAY121031AY221031GA1071+000909079GF108991071061000751999999MD1310071+9999MW1501OA149999999REMSYN088AAXX  02091 06428 41115 82004 10078 20075 40288 53007 75022 876// 333 87703 91106 91204;EQDQ01  00312WGOSPD
0208064280999992000010210004+50930+003730FM-12+0060EBMT V0201901N004010009019N0015001N1+00801+00771102831ADDAY151999AY221999GA1071+000909079GF108991071061000751999999MD1010041+9999MW1201OA149999999REMSYN088AAXX  02101 06428 41115 81904 10080 20077 40283 50004 72052 876// 333 87703 91106 91204;EQDQ01  00312WGOSPD
0208064280999992000010211004+50930+003730FM-12+0060EBMT V0202101N004010012019N0020001N1+00831+00801102861ADDAY121999AY221999GA1071+001209079GF108991071061001501999999MD1210041+9999MW1101OA149999999REMSYN088AAXX  02111 06428 41220 82104 10083 20080 40286 52004 71022 876// 333 87704 91106 91204;EQDQ01  00312WGOSPD
0225064280999992000010212004+50930+003730FM-12+0060EBMT V0202101N004010012019N0030001N1+00861+00801102851ADDAA106000791AY151061AY221061GA1071+001209079GF108991071061001501999999MD1710031+9999MW1101OA149999999REMSYN094AAXX  02121 06428 11230 82104 10086 20080 40285 57003 69901 71052 876// 333 87704 91107 91205;EQDQ01  00362WGOSPD
0208064280999992000010213004+50930+003730FM-12+0060EBMT V0202201N004010012019N0030001N1+00871+00811102821ADDAY121999AY221999GA1071+001209079GF108991071061001501999999MD1810011+9999MW1101OA149999999REMSYN088AAXX  02131 06428 41230 82204 10087 20081 40282 58001 71022 876// 333 87704 91106 91204;EQDQ01  00312WGOSPD
0211064280999992000010214004+50930+003730FM-12+0060EBMT V0202201N003010024019N0030001N1+00881+00821102821ADDAY121999AY221999GA1041+001209079GA2061+002409079GF108991071061001501999999MD1610041+9999MW1101OA149900311REMSYN094AAXX  02141 06428 41230 82203 10088 20082 40282 56004 71022 876// 333 84704 86708 91106 91204;
0211064280999992000010215004+50930+003730FM-12+0060EBMT V0202001N003010120019N0030001N1+00881+00821102801ADDAY121031AY221031GA1031+001509079GA2071+012009069GF108991071051001501999999MD1710051+9999MW1101OA149900311REMSYN094AAXX  02151 06428 41230 82003 10088 20082 40280 57005 71022 875// 333 83705 87640 91106 91204;
0230064280999992000010216004+50930+003730FM-12+0060EBMT V0202001N004010114019N0030001N1+00881+00801102761ADDAY121999AY221999GA1031+001809079GA2071+011409069GF108991071051001501999999MD1810061+9999MW1101OA149999999REMSYN094AAXX  02161 06428 41230 82004 10088 20080 40276 58006 71022 875// 333 83706 87638 91105 91204;EQDQ01  00262WGOSPD
0230064280999992000010217004+50930+003730FM-12+0060EBMT V0202101N004010090019N0030001N1+00881+00781102741ADDAY121999AY221999GA1041+002409079GA2061+009009069GF108991071051002501999999MD1710081+9999MW1101OA149999999REMSYN094AAXX  02171 06428 41330 82104 10088 20078 40274 57008 71022 875// 333 84708 86630 91106 91204;EQDQ01  00312WGOSPD
0266064280999992000010218004+50930+003730FM-12+0060EBMT V0202101N004010096019N0035001N1+00871+00771102791ADDAA112000791AY121061AY221061GA1041+002409079GA2061+009609069GF108991071051002501999999KA1120M+00891MD1510011+9999MW1101OA149999999REMSYN106AAXX  02181 06428 11335 82104 10087 20077 40279 55001 69902 71022 875// 333 10089 84708 86632 91106 91204;EQDQ01  00312WGOSPD
0230064280999992000010219004+50930+003730FM-12+0060EBMT V0202101N004010099019N0035001N1+00861+00781102761ADDAY121999AY221999GA1011+003009079GA2071+009909069GF108991071051004501999999MD1510001+9999MW1101OA149999999REMSYN094AAXX  02191 06428 41435 82104 10086 20078 40276 55000 71022 875// 333 81710 87633 91107 91205;EQDQ01  00362WGOSPD
0189064280999992000010220004+50930+003730FM-12+0060EBMT V0202001N003010105019N0040001N1+00851+00771102741ADDAY121999AY221999GA1071+010509069GF108991071051012501999999MD1010001+9999MW1101OA149900361REMSYN088AAXX  02201 06428 41640 82003 10085 20077 40274 50000 71022 875// 333 87635 91107 91204;
0208064280999992000010221004+50930+003730FM-12+0060EBMT V0202101N004010021019N0040001N1+00841+00761102741ADDAY121031AY221031GA1071+002109079GF108991071061002501999999MD1610051+9999MW1101OA149999999REMSYN088AAXX  02211 06428 41340 82104 10084 20076 40274 56005 71022 876// 333 87707 91107 91205;EQDQ01  00362WGOSPD
0230064280999992000010222004+50930+003730FM-12+0060EBMT V0202001N006010120019N0040001N1+00841+00761102651ADDAY121999AY221999GA1041+002109079GA2061+012009069GF108991071051002501999999MD1710111+9999MW1101OA149999999REMSYN094AAXX  02221 06428 41340 82006 10084 20076 40265 57011 71022 875// 333 84707 86640 91109 91206;EQDQ01  00462WGOSPD
0189064280999992000010223004+50930+003730FM-12+0060EBMT V0202301N004012200019N0045001N1+00791+00681102601ADDAY111999AY211999GA1031+013509069GF103991031051012501001011MD1810141+9999MW1101OA149900511REMSYN088AAXX  02231 06428 41645 32304 10079 20068 40260 58014 71011 83501 333 83645 91110 91207;
0284064280999992000010300004+50930+003730FM-12+0060EBMT V0202101N005012200019N0045001N1+00751+00641102611ADDAA106000091AY111061AY211061GA1021+002109079GA2031+012609069GF104991041051002501001011MD1510131+9999MW1101OA149900511OA259999999REMSYN110AAXX  03001 06428 31345 42105 10075 20064 40261 55013 71011 84501 333 82707 83642 91110 91207 555 10089 20058;EQDQ01  00002PRCP06Q02  00362WGOSPD
0230064280999992000010301004+50930+003730FM-12+0060EBMT V0202001N005010120019N0045001N1+00761+00651102531ADDAY111999AY211999GA1041+002109079GA2051+012009069GF107991071051002501999999MD1710121+9999MW1101OA149999999REMSYN094AAXX  03011 06428 41345 72005 10076 20065 40253 57012 71011 875// 333 84707 85640 91109 91205;EQDQ01  00462WGOSPD
0208064280999992000010302004+50930+003730FM-12+0060EBMT V0202001N006010021019N0045001N1+00751+00661102521ADDAY121999AY221999GA1071+002109079GF107991071061002501999999MD1710081+9999MW1101OA149999999REMSYN088AAXX  03021 06428 41345 72006 10075 20066 40252 57008 71022 876// 333 87707 91110 91207;EQDQ01  00512WGOSPD
0208064280999992000010303004+50930+003730FM-12+0060EBMT V0202101N006010018019N0040001N1+00771+00681102501ADDAY121031AY221031GA1071+001809079GF107991071061001501999999MD1610111+9999MW1101OA149999999REMSYN088AAXX  03031 06428 41240 72106 10077 20068 40250 56011 71022 876// 333 87706 91110 91207;EQDQ01  00512WGOSPD
0208064280999992000010304004+50930+003730FM-12+0060EBMT V0202101N006010018019N0040001N1+00781+00671102451ADDAY121999AY221999GA1071+001809079GF107991071061001501999999MD1810081+9999MW1101OA149999999REMSYN088AAXX  03041 06428 41240 72106 10078 20067 40245 58008 71022 876// 333 87706 91109 91207;EQDQ01  00462WGOSPD
0208064280999992000010305004+50930+003730FM-12+0060EBMT V0202101N006010018019N0040001N1+00801+00711102411ADDAY121999AY221999GA1071+001809079GF107991071061001501999999MD1710111+9999MW1101OA149999999REMSYN088AAXX  03051 06428 41240 72106 10080 20071 40241 57011 71022 876// 333 87706 91109 91207;EQDQ01  00462WGOSPD
0278064280999992000010306004+50930+003730FM-12+0060EBMT V0202101N006010018019N0035001N1+00811+00721102421ADDAA106000091AY121061AY221061GA1071+001809079GF107991071061001501999999IA1099IA2999+00609KA1120N+00721MD1510081+9999MW1101OA149999999REMSYN100AAXX  03061 06428 31235 72106 10081 20072 40242 55008 71022 876// 333 20072 31006 87706 91110 91207;EQDQ01  00002PRCP06Q02  00512WGOSPD
0230064280999992000010307004+50930+003730FM-12+0060EBMT V0202101N006010054019N0040001N1+00831+00711102421ADDAY121999AY221999GA1041+002109079GA2061+005409069GF107991071051002501999999MD1510031+9999MW1101OA149999999REMSYN094AAXX  03071 06428 41340 72106 10083 20071 40242 55003 71022 875// 333 84707 86618 91109 91206;EQDQ01  00462WGOSPD
0208064280999992000010308004+50930+003730FM-12+0060EBMT V0202101N007010024019N0040001N1+00831+00731102391ADDAY121999AY221999GA1071+002409079GF107991071071002501999999MD1810021+9999MW1501OA149999999REMSYN088AAXX  03081 06428 41340 72107 10083 20073 40239 58002 75022 877// 333 87708 91111 91207;EQDQ01  00572WGOSPD
0208064280999992000010309004+50930+003730FM-12+0060EBMT V0202201N007010024019N0040001N1+00821+00731102411ADDAY151031AY221031GA1071+002409079GF108991071071002501999999MD1710011+9999MW1511OA149999999REMSYN088AAXX  03091 06428 41340 82207 10082 20073 40241 57001 75152 877// 333 87708 91111 91207;EQDQ01  00572WGOSPD
0230064280999992000010310004+50930+003730FM-12+0060EBMT V0202101N007010048019N0050001N1+00831+00731102391ADDAY121999AY221999GA1041+002409079GA2071+004809069GF107991071051002501999999MD1510031+9999MW1201OA149999999REMSYN094AAXX  03101 06428 41350 72107 10083 20073 40239 55003 72022 875// 333 84708 87616 91111 91208;EQDQ01  00572WGOSPD
0224064280999992000010311004+50930+003730FM-12+0060EBMT V0202101N007010048019N0060001N1+00871+00711102371ADDGA1021+003009079GA2031+004809069GA3071+007509069GF107991071051004501999999MD1810021+9999OA149999999REMSYN094AAXX  03111 06428 42456 72107 10087 20071 40237 58002 875// 333 82710 83616 87625 91112 91208;EQDQ01  00622WGOSPD
0228064280999992000010312004+50930+003730FM-12+0060EBMT V0202101N006010066019N0100001N1+00901+00721102331ADDAA106000791AY151061AY221061GA1021+003009079GA2071+006609069GF107991071051004501999999MD1710081+9999MW1011OA149900621REMSYN100AAXX  03121 06428 11460 72106 10090 20072 40233 57008 69901 70152 875// 333 82710 87622 91112 91208;
0202064280999992000010313004+50930+003730FM-12+0060EBMT V0202201N007010045019N0100001N1+00931+00711102241ADDGA1011+003009079GA2071+004509069GF107991071051004501999999MD1710151+9999OA149999999REMSYN088AAXX  03131 06428 42460 72207 10093 20071 40224 57015 875// 333 81710 87615 91111 91208;EQDQ01  00572WGOSPD
0202064280999992000010314004+50930+003730FM-12+0060EBMT V0202101N008010066019N0100001N1+00951+00731102181ADDGA1031+004509069GA2071+006609069GF107991071051004501999999MD1710091+9999OA149999999REMSYN088AAXX  03141 06428 42460 72108 10095 20073 40218 57009 875// 333 83615 87622 91111 91208;EQDQ01  00572WGOSPD
0202064280999992000010315004+50930+003730FM-12+0060EBMT V0202101N007010066019N0100001N1+00951+00711102161ADDGA1031+003909069GA2071+006609069GF107991071051004501999999MD1610171+9999OA149999999REMSYN088AAXX  03151 06428 42460 72107 10095 20071 40216 56017 875// 333 83613 87622 91111 91208;EQDQ01  00572WGOSPD
0202064280999992000010316004+50930+003730FM-12+0060EBMT V0202101N007010066019N0100001N1+00911+00691102121ADDGA1031+003909069GA2071+006609069GF107991071051004501999999MD1710121+9999OA149999999REMSYN088AAXX  03161 06428 42460 72107 10091 20069 40212 57012 875// 333 83613 87622 91111 91207;EQDQ01  00572WGOSPD
0202064280999992000010317004+50930+003730FM-12+0060EBMT V0202101N008010066019N0100001N1+00881+00681102101ADDGA1031+004509069GA2071+006609069GF107991071051004501999999MD1710081+9999OA149999999REMSYN088AAXX  03171 06428 42460 72108 10088 20068 40210 57008 875// 333 83615 87622 91111 91208;EQDQ01  00572WGOSPD
0238064280999992000010318004+50930+003730FM-12+0060EBMT V0202101N007010066019N0100001N1+00861+00651102071ADDAA112000791GA1031+004509069GA2071+006609069GF107991071051004501999999KA1120M+00961MD1710091+9999OA149999999REMSYN100AAXX  03181 06428 12460 72107 10086 20065 40207 57009 69902 875// 333 10096 83615 87622 91111 91208;EQDQ01  00572WGOSPD
0202064280999992000010319004+50930+003730FM-12+0060EBMT V0202101N008010066019N0100001N1+00831+00621102041ADDGA1031+004509069GA2071+006609069GF107991071051004501999999MD1710081+9999OA149999999REMSYN088AAXX  03191 06428 42460 72108 10083 20062 40204 57008 875// 333 83615 87622 91113 91208;EQDQ01  00672WGOSPD
0202064280999992000010320004+50930+003730FM-12+0060EBMT V0202101N008010066019N0100001N1+00851+00601101981ADDGA1031+004509069GA2071+006609069GF107991071051004501999999MD1710121+9999OA149999999REMSYN088AAXX  03201 06428 42460 72108 10085 20060 40198 57012 875// 333 83615 87622 91111 91208;EQDQ01  00572WGOSPD
0202064280999992000010321004+50930+003730FM-12+0060EBMT V0202101N008010066019N0100001N1+00841+00591101941ADDGA1031+004509069GA2071+006609069GF108991071051004501999999MD1710131+9999OA149999999REMSYN088AAXX  03211 06428 42460 82108 10084 20059 40194 57013 875// 333 83615 87622 91113 91208;EQDQ01  00672WGOSPD
0202064280999992000010322004+50930+003730FM-12+0060EBMT V0202101N009010066019N0100001N1+00821+00591101901ADDGA1031+004509069GA2071+006609069GF108991071051004501999999MD1710141+9999OA149999999REMSYN088AAXX  03221 06428 42460 82109 10082 20059 40190 57014 875// 333 83615 87622 91113 91209;EQDQ01  00672WGOSPD
0230064280999992000010323004+50930+003730FM-12+0060EBMT V0202101N007010045019N0100001N1+00751+00641101891ADDAY121999AY221999GA1031+003009079GA2071+004509069GF108991071051004501999999MD1710091+9999MW1601OA149999999REMSYN094AAXX  03231 06428 41460 82107 10075 20064 40189 57009 76022 875// 333 83710 87615 91112 91209;EQDQ01  00622WGOSPD
0268064280999992000010400004+50930+003730FM-12+0060EBMT V0202101N007010024019N0060001N1+00741+00651101851ADDAA106000391AY161061AY221061GA1071+002409079GF108991071061002501999999MD1710051+9999MW1601OA149999999OA259999999REMSYN110AAXX  04001 06428 11356 82107 10074 20065 40185 57005 69931 76062 876// 333 87708 91113 91209 555 10096 20072;EQDQ01  00672WGOSPDQ02  00462WGOSPD
0230064280999992000010401004+50930+003730FM-12+0060EBMT V0202101N006010024019N0060001N1+00741+00651101831ADDAY161999AY251999GA1011+001509079GA2071+002409079GF108991071071001501999999MD1610071+9999MW1581OA149999999REMSYN094AAXX  04011 06428 41256 82106 10074 20065 40183 56007 75865 877// 333 81705 87708 91111 91207;EQDQ01  00572WGOSPD
0230064280999992000010402004+50930+003730FM-12+0060EBMT V0202101N006010024019N0060001N1+00751+00681101781ADDAY161999AY251999GA1011+001509079GA2071+002409079GF108991071071001501999999MD1710111+9999MW1581OA149999999REMSYN094AAXX  04021 06428 41256 82106 10075 20068 40178 57011 75865 877// 333 81705 87708 91109 91206;EQDQ01  00462WGOSPD
0211064280999992000010403004+50930+003730FM-12+0060EBMT V0202201N005010024019N0060001N1+00771+00701101771ADDAY161031AY251031GA1031+001509079GA2071+002409079GF108991071071001501999999MD1610081+9999MW1581OA149900571REMSYN094AAXX  04031 06428 41256 82205 10077 20070 40177 56008 75865 877// 333 83705 87708 91111 91207;
0230064280999992000010404004+50930+003730FM-12+0060EBMT V0202201N006010021019N0040001N1+00771+00721101741ADDAY161999AY251999GA1031+000909079GA2071+002109079GF108991071071000751999999MD1710091+9999MW1581OA149999999REMSYN094AAXX  04041 06428 41140 82206 10077 20072 40174 57009 75865 877// 333 83703 87707 91108 91206;EQDQ01  00412WGOSPD
0290064280999992000010406004+50930+003730FM-12+0060EBMT V0202201N006010021019N0040001N1+00791+00741101691ADDAA112002091AY161061AY251061GA1041+000909079GA2071+002109079GF108991071071000751999999IA1099IA2999+00709KA1120N+00721MD1710081+9999MW1581OA149999999REMSYN112AAXX  04061 06428 11140 82206 10079 20074 40169 57008 60022 75865 877// 333 20072 31007 84703 87707 91111 91207;EQDQ01  00572WGOSPD
0230064280999992000010407004+50930+003730FM-12+0060EBMT V0202201N005010018019N0040001N1+00801+00771101671ADDAY161999AY251999GA1041+000909079GA2071+001809079GF108991071071000751999999MD1710071+9999MW1581OA149999999REMSYN094AAXX  04071 06428 41140 82205 10080 20077 40167 57007 75865 877// 333 84703 87706 91108 91206;EQDQ01  00412WGOSPD
0230064280999992000010408004+50930+003730FM-12+0060EBMT V0202101N006010018019N0035001N1+00811+00741101631ADDAY161999AY251999GA1041+000909079GA2071+001809079GF108991071071000751999999MD1810081+9999MW1581OA149999999REMSYN094AAXX  04081 06428 41135 82106 10081 20074 40163 58008 75865 877// 333 84703 87706 91110 91206;EQDQ01  00512WGOSPD
0230064280999992000010409004+50930+003730FM-12+0060EBMT V0202101N006010021019N0035001N1+00811+00721101581ADDAY161031AY251031GA1041+000909079GA2071+002109079GF108991071071000751999999MD1810111+9999MW1591OA149999999REMSYN094AAXX  04091 06428 41135 82106 10081 20072 40158 58011 75965 877// 333 84703 87707 91110 91206;EQDQ01  00512WGOSPD
0230064280999992000010410004+50930+003730FM-12+0060EBMT V0202101N006010021019N0035001N1+00821+00751101531ADDAY161999AY251999GA1041+000909079GA2071+002109079GF108991071071000751999999MD1710141+9999MW1591OA149999999REMSYN094AAXX  04101 06428 41135 82106 10082 20075 40153 57014 75965 877// 333 84703 87707 91109 91206;EQDQ01  00462WGOSPD
0230064280999992000010411004+50930+003730FM-12+0060EBMT V0202001N007010024019N0035001N1+00831+00761101441ADDAY161999AY251999GA1041+001209079GA2071+002409079GF108991071071000751999999MD1810191+9999MW1591OA149999999REMSYN094AAXX  04111 06428 41135 82007 10083 20076 40144 58019 75965 877// 333 84704 87708 91111 91207;EQDQ01  00572WGOSPD
0247064280999992000010412004+50930+003730FM-12+0060EBMT V0202101N008010024019N0035001N1+00851+00781101351ADDAA106007191AY161061AY251061GA1041+000909079GA2071+002409079GF108991071071000751999999MD1810231+9999MW1591OA149999999REMSYN100AAXX  04121 06428 11135 82108 10085 20078 40135 58023 60071 75965 877// 333 84703 87708 91112 91208;EQDQ01  00622WGOSPD
0230064280999992000010413004+50930+003730FM-12+0060EBMT V0202101N009010027019N0035001N1+00881+00801101281ADDAY161999AY251999GA1041+001809079GA2071+002709079GF108991071071001501999999MD1710251+9999MW1591OA149999999REMSYN094AAXX  04131 06428 41235 82109 10088 20080 40128 57025 75965 877// 333 84706 87709 91113 91209;EQDQ01  00672WGOSPD
0252064280999992000010414004+50930+003730FM-12+0060EBMT V0202201N008010036019N0090001N1+00951+00821101231ADDAY161999AY251999GA1031+002109079GA2041+003609079GA3061+006609069GF107991071051002501999999MD1610201+9999MW1211OA149999999REMSYN100AAXX  04141 06428 41359 72208 10095 20082 40123 56020 72165 875// 333 83707 84712 86622 91113 91209;EQDQ01  00672WGOSPD
0233064280999992000010415004+50930+003730FM-12+0060EBMT V0202401N006010057019N0150001N1+01021+00791101311ADDAY161031AY251031GA1031+003609079GA2041+005709069GA3051+015009069GF107991071051004501999999MD1510031+9999MW1021OA149900671REMSYN100AAXX  04151 06428 41465 72406 10102 20079 40131 55003 70265 875// 333 83712 84619 85650 91113 91209;
0202064280999992000010416004+50930+003730FM-12+0060EBMT V0202501N007010150019N0200001N1+00931+00471101371ADDGA1021+008409069GA2051+015009069GF106991061051008001031011MD1310101+9999OA149999999REMSYN088AAXX  04161 06428 42570 62507 10093 20047 40137 53010 86531 333 82628 85650 91112 91207;EQDQ01  00622WGOSPD
0202064280999992000010417004+50930+003730FM-12+0060EBMT V0202301N006010180019N0200001N1+00821+00461101391ADDGA1021+008409069GA2051+018009069GF106991051051008001031011MD1110161+9999OA149999999REMSYN088AAXX  04171 06428 42570 62306 10082 20046 40139 51016 85531 333 82628 85656 91110 91207;EQDQ01  00512WGOSPD
0269064280999992000010418004+50930+003730FM-12+0060EBMT V0202301N006010270019N0200001N1+00831+00541101451ADDAA112007191AY161061AY251061GA1011+011109069GA2041+018009069GA3051+027009039GF106991041051012501031011KA1120M+01031MD1210131+9999MW1021OA149900671REMSYN112AAXX  04181 06428 11670 62306 10083 20054 40145 52013 60072 70265 84531 333 10103 81637 84656 85359 91113 91209;
0230064280999992000010419004+50930+003730FM-12+0060EBMT V0202301N007010144019N0150001N1+00861+00571101441ADDAY121999AY221999GA1021+008109089GA2061+014409069GF107991061081012501031999MD1010061+9999MW1801OA149999999REMSYN094AAXX  04191 06428 41665 72307 10086 20057 40144 50006 78022 8683/ 333 82827 86648 91113 91209;EQDQ01  00672WGOSPD
0252064280999992000010420004+50930+003730FM-12+0060EBMT V0202401N008010144019N0150001N1+00851+00541101551ADDAY121999AY221999GA1011+007509089GA2031+010209069GA3051+014409069GF107991051081008001031999MD1210151+9999MW1251OA149999999REMSYN100AAXX  04201 06428 41565 72408 10085 20054 40155 52015 72522 8583/ 333 81825 83634 85648 91113 91209;EQDQ01  00672WGOSPD
0252064280999992000010421004+50930+003730FM-12+0060EBMT V0202501N007010108019N0150001N1+00851+00561101691ADDAY181031AY221031GA1031+007509089GA2031+010809069GA3051+027009039GF107991051081008001031999MD1310241+9999MW1021OA149999999REMSYN100AAXX  04211 06428 41565 72507 10085 20056 40169 53024 70282 8583/ 333 83825 83636 85359 91113 91209;EQDQ01  00672WGOSPD
0183064280999992000010422004+50930+003730FM-12+0060EBMT V0202801N003012200019N0150001N1+00691+00271101811ADDGA1011+007809089GA2031+027009039GF103991011081008001031011MD1210371+9999OA149900461REMSYN088AAXX  04221 06428 42565 32803 10069 20027 40181 52037 81831 333 81826 83359 91109 91206;
0202064280999992000010423004+50930+003730FM-12+0060EBMT V0202601N003012200019N0150001N1+00571+00211101891ADDGA1021+012609069GA2031+030009039GF103991011051012501031011MD1110241+9999OA149999999REMSYN088AAXX  04231 06428 42665 32603 10057 20021 40189 51024 81531 333 82642 83360 91105 91203;EQDQ01  00262WGOSPD
0233064280999992000010500004+50930+003730FM-12+0060EBMT V0202501N003012200019N0150001N1+00471+00141101971ADDAA106000191AY181061AY211061GA1011+018009069GF102991011051017501031011MD1110271+9999MW1011OA149900671OA259900461REMSYN110AAXX  05001 06428 11765 22503 10047 20014 40197 51027 69921 70181 81531 333 81656 91113 91209 555 10103 20042;
0180064280999992000010501004+50930+003730FM-12+0060EBMT V0202401N003012200019N0100001N1+00431+00201101991ADDGA1011+018009069GF102991011051017501031011MD1110171+9999OA149999999REMSYN082AAXX  05011 06428 42760 22403 10043 20020 40199 51017 81531 333 81656 91105 91204;EQDQ01  00262WGOSPD
0180064280999992000010502004+50930+003730FM-12+0060EBMT V0202301N003012200019N0080001N1+00361+00171102051ADDGA1011+009909069GF102991011051008001031011MD1210151+9999OA149999999REMSYN082AAXX  05021 06428 42558 22303 10036 20017 40205 52015 81531 333 81633 91105 91203;EQDQ01  00262WGOSPD
0180064280999992000010503004+50930+003730FM-12+0060EBMT V0202301N003012200019N0080001N1+00321+00131102071ADDGA1011+018009069GF102991011051017501031011MD1210201+9999OA149999999REMSYN082AAXX  05031 06428 42758 22303 10032 20013 40207 52020 81531 333 81656 91105 91203;EQDQ01  00262WGOSPD
0180064280999992000010504004+50930+003730FM-12+0060EBMT V0202401N003012200019N0080001N1+00251+00101102091ADDGA1011+027009039GF101991011001999999031011MD1110101+9999OA149999999REMSYN082AAXX  05041 06428 42958 12403 10025 20010 40209 51010 81031 333 81359 91105 91204;EQDQ01  00262WGOSPD
0161064280999992000010505004+50930+003730FM-12+0060EBMT V0209999V002012200019N0080001N1+00201+00071102111ADDGA1011+012009069GF101991011051012501031011MD1210061+9999OA149900211REMSYN082AAXX  05051 06428 42658 19902 10020 20007 40211 52006 81531 333 81640 91104 91203;
0197064280999992000010506004+50930+003730FM-12+0060EBMT V0201801N002012200019N0100001N1+00221+00091102111ADDAA112000191GA1011+018009069GF102991011051017501031011KA1120N-01011MD1110041+9999OA149900261REMSYN094AAXX  05061 06428 12760 21802 10022 20009 40211 51004 69922 81531 333 21101 81656 91105 91204;
0180064280999992000010507004+50930+003730FM-12+0060EBMT V0202001N003012200019N0120001N1+00251+00151102131ADDGA1011+015009069GF102991011051017501031011MD1210041+9999OA149999999REMSYN082AAXX  05071 06428 42762 22003 10025 20015 40213 52004 81531 333 81650 91105 91203;EQDQ01  00262WGOSPD
0161064280999992000010508004+50930+003730FM-12+0060EBMT V0201901N002012200019N0120001N1+00231+00151102101ADDGA1011+013209069GF102991011051012501031011MD1010011+9999OA149900211REMSYN082AAXX  05081 06428 42662 21902 10023 20015 40210 50001 81531 333 81644 91104 91203;
0161064280999992000010509004+50930+003730FM-12+0060EBMT V0209999V002012200019N0150001N1+00271+00171102161ADDGA1011+018009069GF102991011051017501031011MD1210051+9999OA149900261REMSYN082AAXX  05091 06428 42765 29902 10027 20017 40216 52005 81531 333 81656 91105 91203;
0196064280999992000010510004+50930+003730FM-12+0060EBMT V0201701N003012200019N0100001N1+00431+00311102131ADDGA1011+066009009GF102991001001999999001011MD1410001+9999OA149999999REMSYN082AAXX  05101 06428 42960 21703 10043 20031 40213 52000 80001 333 81072 91105 91203;EQDQ01+000022APCTENQ02  00262WGOSPD
0180064280999992000010511004+50930+003730FM-12+0060EBMT V0201901N004012200019N0120001N1+00601+00401102081ADDGA1021+066009009GF102991001001999999001011MD1810011+9999OA149999999REMSYN082AAXX  05111 06428 42962 21904 10060 20040 40208 58001 80001 333 82072 91107 91204;EQDQ01  00362WGOSPD
0244064280999992000010512004+50930+003730FM-12+0060EBMT V0202101N010012200019N0120001N1+00701+00491102011ADDAA106000091GA1021+066009009GF102991001001999999001011MA1999999101521MD1810151+9999OA149999999REMSYN088AAXX  05121 06428 32962 22110 10070 20049 30152 40201 58052 80001 333 82072 91115 91210;EQDQ01+000522APC3  Q02  00002PRCP06Q03  00772WGOSPD
0202064280999992000010513004+50930+003730FM-12+0060EBMT V0202001N006010300019N0080001N1+00681+00511101981ADDGA1021+002409079GA2041+030009039GF105991021061002501031011MD1710141+9999OA149999999REMSYN088AAXX  05131 06428 42358 52006 10068 20051 40198 57014 82631 333 82708 84360 91108 91206;EQDQ01  00412WGOSPD
0230064280999992000010514004+50930+003730FM-12+0060EBMT V0202001N005010300019N0045001N1+00711+00561101941ADDAY121999AY221999GA1031+002109079GA2041+030009039GF105991031061002501031011MD1610141+9999MW1101OA149999999REMSYN094AAXX  05141 06428 41345 52005 10071 20056 40194 56014 71022 83631 333 83707 84360 91108 91206;EQDQ01  00412WGOSPD
0202064280999992000010515004+50930+003730FM-12+0060EBMT V0201901N005010300019N0080001N1+00661+00511101901ADDGA1021+003009079GA2041+030009039GF105991021061004501031011MD1710111+9999OA149999999REMSYN088AAXX  05151 06428 42458 51905 10066 20051 40190 57011 82631 333 82710 84360 91108 91206;EQDQ01  00412WGOSPD
0202064280999992000010516004+50930+003730FM-12+0060EBMT V0202001N005012200019N0100001N1+00671+00481101871ADDGA1011+003309079GA2031+066009009GF104991011061004501031011MD1610111+9999OA149999999REMSYN088AAXX  05161 06428 42460 42005 10067 20048 40187 56011 81631 333 81711 83072 91109 91206;EQDQ01  00462WGOSPD
0180064280999992000010517004+50930+003730FM-12+0060EBMT V0201901N004012200019N0100001N1+00621+00491101841ADDGA1011+027009039GF102991011001999999031011MD1610101+9999OA149999999REMSYN082AAXX  05171 06428 42960 21904 10062 20049 40184 56010 81031 333 81359 91106 91204;EQDQ01  00312WGOSPD
0210064280999992000010518004+50930+003730FM-12+0060EBMT V0201901N004012200019N0120001N1+00651+00501101791ADDAA106000091GA1011+066009009GF101991001001999999001011KA1120M+00731MD1710111+9999OA149900461REMSYN088AAXX  05181 06428 32962 11904 10065 20050 40179 57011 80001 333 10073 81072 91109 91206;EQDQ01  00002PRCP06
0180064280999992000010519004+50930+003730FM-12+0060EBMT V0202001N004012200019N0120001N1+00651+00501101781ADDGA1011+007209069GF103991011051008001031011MD1610091+9999OA149999999REMSYN082AAXX  05191 06428 42562 32004 10065 20050 40178 56009 81531 333 81624 91106 91205;EQDQ01  00312WGOSPD
0180064280999992000010521004+50930+003730FM-12+0060EBMT V0201901N004012200019N0150001N1+00651+00481101731ADDGA1011+018009069GF101991011051017501031011MD1810061+9999OA149999999REMSYN082AAXX  05211 06428 42765 11904 10065 20048 40173 58006 81531 333 81656 91107 91205;EQDQ01  00362WGOSPD
0180064280999992000010522004+50930+003730FM-12+0060EBMT V0202001N005012200019N0150001N1+00651+00501101701ADDGA1011+030009039GF101991011001999999031011MD1810081+9999OA149999999REMSYN082AAXX  05221 06428 42965 12005 10065 20050 40170 58008 81031 333 81360 91108 91205;EQDQ01  00412WGOSPD
0201064280999992000010601004+50930+003730FM-12+0060EBMT V0202001N010012200019N0150001N1+00631+00451101641ADDGA1011+030009039GF101991011001999999031011MA1999999101151MD1810062+9999OA149901031REMSYN088AAXX  06011 06428 42965 12010 10063 20045 30115 40164 58089 81031 333 81360 91120 91212;EQDQ01+000892APC3  
0217064280999992000010602004+50930+003730FM-12+0060EBMT V0202001N011012200019N0150001N1+00661+00461101621ADDGA1011+030009039GF101991011001999999031011MA1999999101131MD1810912+9999OA149999999REMSYN088AAXX  06021 06428 42965 12011 10066 20046 30113 40162 58091 81031 333 81360 91118 91211;EQDQ01+000912APC3  Q02  00932WGOSPD
0202064280999992000010603004+50930+003730FM-12+0060EBMT V0202001N008012200019N0150001N1+00681+00461101571ADDGA1011+003309079GA2031+013209069GF103991031051004501001011MD1710061+9999OA149999999REMSYN088AAXX  06031 06428 42465 32008 10068 20046 40157 57006 83501 333 81711 83644 91113 91208;EQDQ01  00672WGOSPD
0180064280999992000010604004+50930+003730FM-12+0060EBMT V0201901N006012200019N0150001N1+00651+00481101511ADDGA1011+018009069GF101991011051017501001011MD1810111+9999OA149999999REMSYN082AAXX  06041 06428 42765 11906 10065 20048 40151 58011 81501 333 81656 91109 91206;EQDQ01  00462WGOSPD
0180064280999992000010605004+50930+003730FM-12+0060EBMT V0202001N006012200019N0150001N1+00651+00481101501ADDGA1011+012009069GF102991011051012501031011MD1610131+9999OA149999999REMSYN082AAXX  06051 06428 42665 22006 10065 20048 40150 56013 81531 333 81640 91110 91206;EQDQ01  00512WGOSPD
0250064280999992000010606004+50930+003730FM-12+0060EBMT V0202001N006012200019N0150001N1+00671+00451101511ADDAA106000091GA1021+018009069GF103991021051017501031011IA1099IA2999+00409KA1120N+00601MD1510061+9999OA149999999REMSYN094AAXX  06061 06428 32765 32006 10067 20045 40151 55006 82531 333 20060 31004 82656 91110 91206;EQDQ01  00002PRCP06Q02  00512WGOSPD
0180064280999992000010607004+50930+003730FM-12+0060EBMT V0202001N006012200019N0150001N1+00721+00491101501ADDGA1021+018009069GF103991021051017501031011MD1710011+9999OA149999999REMSYN082AAXX  06071 06428 42765 32006 10072 20049 40150 57001 82531 333 82656 91109 91206;EQDQ01  00462WGOSPD
0202064280999992000010608004+50930+003730FM-12+0060EBMT V0201901N006010240019N0100001N1+00751+00471101481ADDGA1011+015009069GA2051+024009039GF107991011051017501031011MD1810021+9999OA149999999REMSYN088AAXX  06081 06428 42760 71906 10075 20047 40148 58002 81531 333 81650 85358 91110 91206;EQDQ01  00512WGOSPD
0224064280999992000010609004+50930+003730FM-12+0060EBMT V0202001N00601066001CN0120001N1+00791+00501101521ADDGA1011+015009069GA2041+024009039GA3051+066009009GF107991021051017501031011MD1310011+9999OA149999999REMSYN094AAXX  06091 06428 42762 72006 10079 20050 40152 53001 82531 333 81650 84358 85072 91111 91206;EQDQ01  00572WGOSPD
0202064280999992000010610004+50930+003730FM-12+0060EBMT V0202001N006010240019N0120001N1+00811+00541101551ADDGA1021+012009069GA2051+024009039GF107991031051012501031011MD1310051+9999OA149999999REMSYN088AAXX  06101 06428 42662 72006 10081 20054 40155 53005 83531 333 82640 85358 91110 91206;EQDQ01  00512WGOSPD
0224064280999992000010611004+50930+003730FM-12+0060EBMT V0202101N006010660019N0100001N1+00851+00541101561ADDGA1011+012009069GA2031+036009039GA3061+066009009GF107991021051012501031021MD1110081+9999OA149999999REMSYN094AAXX  06111 06428 42660 72106 10085 20054 40156 51008 82532 333 81640 83362 86072 91110 91207;EQDQ01  00512WGOSPD
0229064280999992000010612004+50930+003730FM-12+0060EBMT V0202101N007010660019N0100001N1+00861+00571101571ADDAA106000091GA1011+006009069GA2071+066009009GF107991011051008001031021MD1110051+9999OA149999999REMSYN088AAXX  06121 06428 32560 72107 10086 20057 40157 51005 81532 333 81620 87072 91111 91208;EQDQ01  00002PRCP06Q02  00572WGOSPD
0255064280999992000010613004+50930+003730FM-12+0060EBMT V0202101N014010045019N0070001N1+00861+00591101561ADDGA1051+004509069GA2071+066009009GF108991061051004501031021MA1999999101071MD1210011+9999OA149999999REMSYN094AAXX  06131 06428 42457 82114 10086 20059 30107 40156 58097 86532 333 85615 87072 91122 91215;EQDQ01+000082APCTENQ02+000972APC3  Q03  01132WGOSPD
0230064280999992000010614004+50930+003730FM-12+0060EBMT V0202101N006010036019N0040001N1+00811+00641101561ADDAY121999AY221999GA1031+003009079GA2071+003609079GF108991071071004501999999MD1010001+9999MW1501OA149999999REMSYN094AAXX  06141 06428 41440 82106 10081 20064 40156 50000 75022 877// 333 83710 87712 91110 91207;EQDQ01  00512WGOSPD
0211064280999992000010615004+50930+003730FM-12+0060EBMT V0202301N005010030019N0025001N1+00771+00681101651ADDAY161031AY251031GA1031+001809079GA2071+003009079GF108991071071001501999999MD1310081+9999MW1611OA149900571REMSYN094AAXX  06151 06428 41225 82305 10077 20068 40165 53008 76165 877// 333 83706 87710 91111 91207;
0230064280999992000010616004+50930+003730FM-12+0060EBMT V0202201N005010060019N0025001N1+00791+00701101701ADDAY161999AY261999GA1031+002109079GA2051+006009069GF108991061051002501031999MD1310141+9999MW1611OA149999999REMSYN094AAXX  06161 06428 41325 82205 10079 20070 40170 53014 76166 8653/ 333 83707 85620 91107 91205;EQDQ01  00362WGOSPD
0252064280999992000010617004+50930+003730FM-12+0060EBMT V0202101N00501012001CN0020001N1+00781+00711101721ADDAY161999AY261999GA1021+002409079GA2031+012009069GA3071+036009039GF108991041051002501031999MD1110161+9999MW1611OA149999999REMSYN100AAXX  06171 06428 41320 82105 10078 20071 40172 51016 76166 8453/ 333 82708 83640 87362 91108 91206;EQDQ01  00412WGOSPD
0230064280999992000010619004+50930+003730FM-12+0060EBMT V0202401N005010300019N0035001N1+00811+00671101861ADDAY121999AY221999GA1011+003609079GA2031+004509069GF105991041051004501031011MD1310161+9999MW1101OA149999999REMSYN094AAXX  06191 06428 41435 52405 10081 20067 40186 53016 71022 84531 333 81712 83615 91109 91206;EQDQ01  00462WGOSPD
0230064280999992000010620004+50930+003730FM-12+0060EBMT V0202301N00501030001CN0035001N1+00751+00641101891ADDAY121999AY221999GA1011+004509069GA2031+015009069GF105991041051002501031011MD1110171+9999MW1101OA149999999REMSYN094AAXX  06201 06428 41335 52305 10075 20064 40189 51017 71022 84531 333 81615 83650 91109 91205;EQDQ01  00462WGOSPD
0211064280999992000010621004+50930+003730FM-12+0060EBMT V0202301N004010150019N0035001N1+00781+00631101971ADDAY121031AY221031GA1011+003909079GA2061+015009069GF107991061051004501031999MD1210171+9999MW1101OA149900461REMSYN094AAXX  06211 06428 41435 72304 10078 20063 40197 52017 71022 8653/ 333 81713 86650 91109 91206;
0230064280999992000010622004+50930+003730FM-12+0060EBMT V0202301N004010045019N0035001N1+00771+00641102041ADDAY121999AY221999GA1041+003609079GA2061+004509069GF107991061051004501031999MD1310181+9999MW1101OA149999999REMSYN094AAXX  06221 06428 41435 72304 10077 20064 40204 53018 71022 8653/ 333 84712 86615 91107 91205;EQDQ01  00362WGOSPD
0230064280999992000010623004+50930+003730FM-12+0060EBMT V0202301N005010045019N0035001N1+00771+00621102071ADDAY121999AY221999GA1011+003009079GA2061+004509069GF107991071051004501999999MD1110181+9999MW1101OA149999999REMSYN094AAXX  06231 06428 41435 72305 10077 20062 40207 51018 71022 875// 333 81710 86615 91108 91205;EQDQ01  00412WGOSPD
0274064280999992000010700004+50930+003730FM-12+0060EBMT V0202301N004010048019N0040001N1+00741+00631102091ADDAA106000791AY161061AY221061GA1021+003609079GA2051+004809069GF107991061051004501031999MD1110121+9999MW1211OA149900461OA259999999REMSYN116AAXX  07001 06428 11440 72304 10074 20063 40209 51012 69901 72162 8653/ 333 82712 85616 91109 91206 555 10091 20060;EQDQ01  00312WGOSPD
0211064280999992000010701004+50930+003730FM-12+0060EBMT V0202301N003010045019N0040001N1+00721+00631102121ADDAY121999AY221999GA1021+003009079GA2051+004509069GF107991061051004501001011MD1210081+9999MW1101OA149900311REMSYN094AAXX  07011 06428 41440 72303 10072 20063 40212 52008 71022 86501 333 82710 85615 91106 91204;
0208064280999992000010702004+50930+003730FM-12+0060EBMT V0202301N003012200019N0040001N1+00691+00621102191ADDAY111999AY211999GA1011+004509069GF101991011051004501001011MD1310121+9999MW1101OA149999999REMSYN088AAXX  07021 06428 41440 12303 10069 20062 40219 53012 71011 81501 333 81615 91105 91204;EQDQ01  00262WGOSPD
0208064280999992000010703004+50930+003730FM-12+0060EBMT V0202201N007012200019N0040001N1+00591+00561102191ADDAY111031AY211031GA1011+004509069GF101991011051004501001011MD1110151+9999MW1101OA149999999REMSYN088AAXX  07031 06428 41440 12207 10059 20056 40219 51015 71011 81501 333 81615 91106 91204;EQDQ01  00312WGOSPD
0208064280999992000010704004+50930+003730FM-12+0060EBMT V0202201N004012200019N0040001N1+00541+00511102231ADDAY101999AY201999GA1021+005409069GF104991021051004501031011MD1110101+9999MW1101OA149999999REMSYN088AAXX  07041 06428 41440 42204 10054 20051 40223 51010 71000 82531 333 82618 91106 91204;EQDQ01  00312WGOSPD
0208064280999992000010705004+50930+003730FM-12+0060EBMT V0202201N008012200019N0040001N1+00511+00461102281ADDAY101999AY201999GA1011+004509069GF102991011051004501001011MD1310081+9999MW1101OA149999999REMSYN088AAXX  07051 06428 41440 22208 10051 20046 40228 53008 71000 81501 333 81615 91105 91204;EQDQ01  00262WGOSPD
0268064280999992000010706004+50930+003730FM-12+0060EBMT V0202101N004012200019N0040001N1+00521+00451102291ADDAA112000791AY101061AY201061GA1011+066009009GF101991001001999999001011IA1099IA2999+00309KA1120N+00481MD1210081+9999MW1101OA149999999REMSYN106AAXX  07061 06428 11940 12104 10052 20045 40229 52008 69902 71000 80001 333 20048 31003 81072 91106 91204;EQDQ01  00312WGOSPD
0208064280999992000010707004+50930+003730FM-12+0060EBMT V0202101N004012200019N0020001N1+00501+00451102331ADDAY101011AY201011GA1021+001209079GF102991021061001501001011MD1210101+9999MW1101OA149999999REMSYN088AAXX  07071 06428 41220 22104 10050 20045 40233 52010 71000 82601 333 82704 91106 91204;EQDQ01  00312WGOSPD
0208064280999992000010708004+50930+003730FM-12+0060EBMT V0202201N006010003019N0007001N1+00521+00491102381ADDAY141999AY221999GA1081+000309079GF108991081061000251999999MD1310101+9999MW1421OA149999999REMSYN088AAXX  07081 06428 41007 82206 10052 20049 40238 53010 74242 886// 333 88701 91108 91206;EQDQ01  00412WGOSPD
0189064280999992000010709004+50930+003730FM-12+0060EBMT V0202301N004010009019N0018001N1+00571+00521102391ADDAY141031AY221031GA1071+000909079GF108991081061000751999999MD1110101+9999MW1281OA149900411REMSYN088AAXX  07091 06428 41118 82304 10057 20052 40239 51010 72842 886// 333 87703 91108 91206;
0230064280999992000010710004+50930+003730FM-12+0060EBMT V0202101N005010120019N0035001N1+00561+00491102411ADDAY121999AY221999GA1031+002109079GA2051+012009069GF106991061051002501001011MD1110081+9999MW1101OA149999999REMSYN094AAXX  07101 06428 41335 62105 10056 20049 40241 51008 71022 86501 333 83707 85640 91107 91205;EQDQ01  00362WGOSPD
0230064280999992000010711004+50930+003730FM-12+0060EBMT V0202201N006010021019N0038001N1+00611+00521102351ADDAY121999AY221999GA1061+002109079GA2061+012009069GF107991061061002501999999MD1810031+9999MW1101OA149999999REMSYN094AAXX  07111 06428 41338 72206 10061 20052 40235 58003 71022 866// 333 86707 86640 91108 91206;EQDQ01  00412WGOSPD
0235064280999992000010712004+50930+003730FM-12+0060EBMT V0202201N006010018019N0035001N1+00601+00511102331ADDAA106000091AY141061AY221061GA1071+001809079GF108991071061001501999999MD1810081+9999MW1101OA149999999REMSYN088AAXX  07121 06428 31235 82206 10060 20051 40233 58008 71042 876// 333 87706 91109 91206;EQDQ01  00002PRCP06Q02  00462WGOSPD
0208064280999992000010713004+50930+003730FM-12+0060EBMT V0202201N006010027019N0040001N1+00661+00491102231ADDAY121999AY221999GA1071+002709079GF108991071061002501999999MD1710201+9999MW1101OA149999999REMSYN088AAXX  07131 06428 41340 82206 10066 20049 40223 57020 71022 876// 333 87709 91109 91206;EQDQ01  00462WGOSPD
0208064280999992000010714004+50930+003730FM-12+0060EBMT V0202001N005010030019N0080001N1+00641+00411102231ADDAY121999AY221999GA1061+003009079GF108991071061004501999999MD1610141+9999MW1101OA149999999REMSYN088AAXX  07141 06428 41458 82005 10064 20041 40223 56014 71022 876// 333 86710 91108 91206;EQDQ01  00412WGOSPD
0202064280999992000010715004+50930+003730FM-12+0060EBMT V0202001N005010054019N0080001N1+00641+00411102171ADDGA1041+003609079GA2061+005409069GF107991061051004501999999MD1710131+9999OA149999999REMSYN088AAXX  07151 06428 42458 72005 10064 20041 40217 57013 865// 333 84712 86618 91109 91206;EQDQ01  00462WGOSPD
0183064280999992000010716004+50930+003730FM-12+0060EBMT V0202101N005010054019N0120001N1+00611+00391102151ADDGA1021+003609079GA2071+005409069GF108991071051004501999999MD1810051+9999OA149900511REMSYN088AAXX  07161 06428 42462 82105 10061 20039 40215 58005 875// 333 82712 87618 91110 91207;
0202064280999992000010717004+50930+003730FM-12+0060EBMT V0202101N005010054019N0120001N1+00611+00391102081ADDGA1021+004509069GA2061+005409069GF107991071051004501999999MD1810121+9999OA149999999REMSYN088AAXX  07171 06428 42462 72105 10061 20039 40208 58012 875// 333 82615 86618 91109 91206;EQDQ01  00462WGOSPD
0210064280999992000010718004+50930+003730FM-12+0060EBMT V0202001N005010300019N0120001N1+00601+00401102041ADDAA106000091GA1041+006009069GF106991041051008001031001KA1120M+00671MD1710131+9999OA149900511REMSYN088AAXX  07181 06428 32562 62005 10060 20040 40204 57013 84530 333 10067 84620 91110 91207;EQDQ01  00002PRCP06
0161064280999992000010719004+50930+003730FM-12+0060EBMT V0202001N005012200019N0150001N1+00571+00391102001ADDGA1011+012009069GF102991011051012501031001MD1610151+9999OA149900511REMSYN082AAXX  07191 06428 42665 22005 10057 20039 40200 56015 81530 333 81640 91110 91207;
0180064280999992000010720004+50930+003730FM-12+0060EBMT V0202001N006012200019N0150001N1+00571+00371101971ADDGA1011+010509069GF102991011051012501031001MD1610111+9999OA149999999REMSYN082AAXX  07201 06428 42665 22006 10057 20037 40197 56011 81530 333 81635 91110 91206;EQDQ01  00512WGOSPD
0180064280999992000010721004+50930+003730FM-12+0060EBMT V0202001N007012200019N0150001N1+00551+00351101931ADDGA1011+012009069GF102991011051012501031001MD1710111+9999OA149999999REMSYN082AAXX  07211 06428 42665 22007 10055 20035 40193 57011 81530 333 81640 91111 91207;EQDQ01  00572WGOSPD
0180064280999992000010722004+50930+003730FM-12+0060EBMT V0202001N007012200019N0150001N1+00561+00371101911ADDGA1031+012609069GF103991031051012501001001MD1710091+9999OA149999999REMSYN082AAXX  07221 06428 42665 32007 10056 20037 40191 57009 83500 333 83642 91111 91207;EQDQ01  00572WGOSPD
0195064280999992000010723004+50930+003730FM-12+0060EBMT V0202001N013019999999N9999999N1+00561+00361101891ADDGF105991999999999999999999MA1999999101401MD1810081+9999OA149999999REMSYN082AAXX  07231 06428 46/// 52013 10056 20036 30140 40189 58064 8//// 333 91122 91214;EQDQ01+000642APC3  Q02  01132WGOSPD
0250064280999992000010800004+50930+003730FM-12+0060EBMT V0202101N007010126019N0150001N1+00581+00381101851ADDAA106000091GA1051+012609069GF105991051051012501001001MD1810121+9999OA149999999OA259999999REMSYN098AAXX  08001 06428 32665 52107 10058 20038 40185 58012 85500 333 85642 91112 91208 555 10076 20048;EQDQ01  00002PRCP06Q02  00622WGOSPDQ03  00412WGOSPD
0202064280999992000010801004+50930+003730FM-12+0060EBMT V0202101N008010126019N0150001N1+00591+00391101801ADDGA1021+004509069GA2041+012609069GF105991051051004501001001MD1610111+9999OA149999999REMSYN088AAXX  08011 06428 42465 52108 10059 20039 40180 56011 85500 333 82615 84642 91112 91208;EQDQ01  00622WGOSPD
0202064280999992000010802004+50930+003730FM-12+0060EBMT V0202001N007010120019N0150001N1+00561+00381101761ADDGA1021+003609069GA2041+012009069GF105991051051004501001001MD1710131+9999OA149999999REMSYN088AAXX  08021 06428 42465 52007 10056 20038 40176 57013 85500 333 82612 84640 91112 91208;EQDQ01  00622WGOSPD
0202064280999992000010803004+50930+003730FM-12+0060EBMT V0202001N008010126019N0150001N1+00571+00371101751ADDGA1021+003609069GA2051+012609069GF106991061051004501001001MD1710091+9999OA149999999REMSYN088AAXX  08031 06428 42465 62008 10057 20037 40175 57009 86500 333 82612 85642 91112 91208;EQDQ01  00622WGOSPD
0202064280999992000010804004+50930+003730FM-12+0060EBMT V0202101N007010120019N0150001N1+00571+00391101761ADDGA1021+003009079GA2051+012009069GF106991061051004501001001MD1610081+9999OA149999999REMSYN088AAXX  08041 06428 42465 62107 10057 20039 40176 56008 86500 333 82710 85640 91112 91208;EQDQ01  00622WGOSPD
0202064280999992000010805004+50930+003730FM-12+0060EBMT V0202001N007010030019N0120001N1+00581+00451101741ADDGA1051+003009079GA2061+012009069GF107991061051004501999999MD1710041+9999OA149999999REMSYN088AAXX  08051 06428 42462 72007 10058 20045 40174 57004 865// 333 85710 86640 91111 91207;EQDQ01  00572WGOSPD
0272064280999992000010806004+50930+003730FM-12+0060EBMT V0202001N007010114019N0120001N1+00581+00451101711ADDAA106000091GA1041+003009079GA2061+011409069GF107991061051004501999999IA1099IA2999+00409KA1120N+00521MD1810041+9999OA149999999REMSYN100AAXX  08061 06428 32462 72007 10058 20045 40171 58004 865// 333 20052 31004 84710 86638 91112 91208;EQDQ01  00002PRCP06Q02  00622WGOSPD
0183064280999992000010807004+50930+003730FM-12+0060EBMT V0202001N006010096019N0150001N1+00601+00441101741ADDGA1011+003009079GA2071+009609069GF107991071051004501999999MD1510011+9999OA149900621REMSYN088AAXX  08071 06428 42465 72006 10060 20044 40174 55001 875// 333 81710 87632 91112 91208;
0211064280999992000010808004+50930+003730FM-12+0060EBMT V0202001N005010036019N0070001N1+00631+00481101761ADDAY121999AY221999GA1031+002709079GA2071+003609079GF108991071071002501999999MD1210041+9999MW1501OA149900511REMSYN094AAXX  08081 06428 41357 82005 10063 20048 40176 52004 75022 877// 333 83709 87712 91110 91207;
0211064280999992000010809004+50930+003730FM-12+0060EBMT V0202001N005010036019N0070001N1+00651+00521101801ADDAY151031AY221031GA1031+002709079GA2071+003609079GF108991071071002501999999MD1210091+9999MW1511OA149900621REMSYN094AAXX  08091 06428 41357 82005 10065 20052 40180 52009 75152 877// 333 83709 87712 91112 91208;
0230064280999992000010810004+50930+003730FM-12+0060EBMT V0202101N006010030019N0030001N1+00661+00591101801ADDAY151999AY251999GA1031+001509079GA2071+003009079GF108991071071001501999999MD1210071+9999MW1511OA149999999REMSYN094AAXX  08101 06428 41230 82106 10066 20059 40180 52007 75155 877// 333 83705 87710 91110 91207;EQDQ01  00512WGOSPD
0230064280999992000010811004+50930+003730FM-12+0060EBMT V0202101N006010030019N0030001N1+00691+00621101841ADDAY151999AY251999GA1041+001509079GA2071+003009079GF108991071071001501999999MD1210081+9999MW1581OA149999999REMSYN094AAXX  08111 06428 41230 82106 10069 20062 40184 52008 75855 877// 333 84705 87710 91110 91206;EQDQ01  00512WGOSPD
0228064280999992000010812004+50930+003730FM-12+0060EBMT V0202201N006010030019N0030001N1+00741+00691101851ADDAA106001091AY161061AY251061GA1041+001509079GA2071+003009079GF108991071071001501999999MD1210051+9999MW1581OA149900621REMSYN100AAXX  08121 06428 11230 82206 10074 20069 40185 52005 60011 75865 877// 333 84705 87710 91112 91208;
0211064280999992000010813004+50930+003730FM-12+0060EBMT V0202301N004010030019N0040001N1+00791+00721101851ADDAY151999AY221999GA1031+001809079GA2071+003009079GF107991071071001501999999MD1110041+9999MW1211OA149900411REMSYN094AAXX  08131 06428 41240 72304 10079 20072 40185 51004 72152 877// 333 83706 87710 91108 91206;
0230064280999992000010814004+50930+003730FM-12+0060EBMT V0202201N004010300019N0040001N1+00831+00731101851ADDAY121999AY221999GA1031+009009069GA2051+030009039GF107991031051008001031999MD1110011+9999MW1101OA149999999REMSYN094AAXX  08141 06428 41540 72204 10083 20073 40185 51001 71022 8353/ 333 83630 85360 91105 91204;EQDQ01  00262WGOSPD
0211064280999992000010815004+50930+003730FM-12+0060EBMT V0202501N002010300019N0050001N1+00861+00761101881ADDAY161031AY221031GA1031+009009069GA2051+030009039GF107991031051008001031999MD1310031+9999MW1101OA149900411REMSYN094AAXX  08151 06428 41550 72502 10086 20076 40188 53003 71062 8353/ 333 83630 85360 91108 91206;
0224064280999992000010816004+50930+003730FM-12+0060EBMT V0202501N003010300019N0100001N1+00731+00501101951ADDGA1021+009009069GA2041+030009039GA3051+060009009GF107991021051008001031011MD1310101+9999OA149999999REMSYN094AAXX  08161 06428 42560 72503 10073 20050 40195 53010 82531 333 82630 84360 85070 91104 91203;EQDQ01  00212WGOSPD
0202064280999992000010817004+50930+003730FM-12+0060EBMT V0209999V002010600019N0100001N1+00621+00401102021ADDGA1021+009009069GA2051+060009009GF106991021051008001031011MD1210171+9999OA149999999REMSYN088AAXX  08171 06428 42560 69902 10062 20040 40202 52017 82531 333 82630 85070 91103 91202;EQDQ01  00152WGOSPD
0247064280999992000010818004+50930+003730FM-12+0060EBMT V0209999C000010600019N0100001N1+00591+00411102041ADDAA112001091AY161061AY251061GA1011+009009069GA2051+060009009GF105991011051008001031011KA1120M+00881MD1110161+9999MW1011OA149900411REMSYN106AAXX  08181 06428 11560 50000 10059 20041 40204 51016 60012 70165 81531 333 10088 81630 85070 91108 91206;
0202064280999992000010819004+50930+003730FM-12+0060EBMT V0209999V002010600019N0100001N1+00551+00321102071ADDGA1011+009009069GA2051+060009009GF105991011051008001031011MD1110111+9999OA149999999REMSYN088AAXX  08191 06428 42560 59902 10055 20032 40207 51011 81531 333 81630 85070 91102 91202;EQDQ01  00102WGOSPD
0183064280999992000010820004+50930+003730FM-12+0060EBMT V0209999V001010600019N0100001N1+00571+00391102081ADDGA1041+024009039GA2051+060009009GF106991041001022501031011MD1210051+9999OA149900151REMSYN088AAXX  08201 06428 42860 69901 10057 20039 40208 52005 84031 333 84358 85070 91103 91202;
0202064280999992000010821004+50930+003730FM-12+0060EBMT V0209999V002010600019N0100001N1+00551+00391102101ADDGA1041+024009039GA2051+060009009GF106991041001022501031011MD1210051+9999OA149999999REMSYN088AAXX  08211 06428 42860 69902 10055 20039 40210 52005 84031 333 84358 85070 91103 91202;EQDQ01  00152WGOSPD
0180064280999992000010822004+50930+003730FM-12+0060EBMT V0209999V002010240019N0100001N1+00521+00381102131ADDGA1061+024009039GF106991061001022501031999MD1210061+9999OA149999999REMSYN082AAXX  08221 06428 42860 69902 10052 20038 40213 52006 8603/ 333 86358 91103 91202;EQDQ01  00152WGOSPD
0180064280999992000010823004+50930+003730FM-12+0060EBMT V0209999V002010240019N0100001N1+00541+00381102141ADDGA1061+024009039GF106991061001022501031999MD1210061+9999OA149999999REMSYN082AAXX  08231 06428 42860 69902 10054 20038 40214 52006 8603/ 333 86358 91103 91202;EQDQ01  00152WGOSPD
0250064280999992000010900004+50930+003730FM-12+0060EBMT V0209999V002010240019N0100001N1+00531+00351102151ADDAA106000091GA1061+024009039GF106991061001022501031999MD1210051+9999OA149999999OA259999999REMSYN098AAXX  09001 06428 32860 69902 10053 20035 40215 52005 8603/ 333 86358 91103 91202 555 10088 20045;EQDQ01  00002PRCP06Q02  00152WGOSPDQ03  00102WGOSPD
0180064280999992000010901004+50930+003730FM-12+0060EBMT V0202301N002012200019N0100001N1+00451+00291102171ADDGA1021+024009039GF102991021001022501031001MD1210041+9999OA149999999REMSYN082AAXX  09011 06428 42860 22302 10045 20029 40217 52004 82030 333 82358 91103 91202;EQDQ01  00152WGOSPD
0180064280999992000010902004+50930+003730FM-12+0060EBMT V0202201N002012200019N0100001N1+00391+00271102181ADDGA1021+024009039GF102991021001022501031001MD1210041+9999OA149999999REMSYN082AAXX  09021 06428 42860 22202 10039 20027 40218 52004 82030 333 82358 91103 91202;EQDQ01  00152WGOSPD
0180064280999992000010903004+50930+003730FM-12+0060EBMT V0209999V002012200019N0100001N1+00331+00231102201ADDGA1021+024009039GF102991021001022501031001MD1210051+9999OA149999999REMSYN082AAXX  09031 06428 42860 29902 10033 20023 40220 52005 82030 333 82358 91103 91202;EQDQ01  00152WGOSPD
0180064280999992000010904004+50930+003730FM-12+0060EBMT V0209999V002012200019N0100001N1+00341+00221102211ADDGA1021+024009039GF102991021001022501031001MD1210041+9999OA149999999REMSYN082AAXX  09041 06428 42860 29902 10034 20022 40221 52004 82030 333 82358 91103 91202;EQDQ01  00152WGOSPD
0180064280999992000010905004+50930+003730FM-12+0060EBMT V0209999V002012200019N0100001N1+00231+00181102261ADDGA1021+030009039GF102991021001022501031001MD1310081+9999OA149999999REMSYN082AAXX  09051 06428 42860 29902 10023 20018 40226 53008 82030 333 82360 91103 91202;EQDQ01  00152WGOSPD
0180064280999992000010907004+50930+003730FM-12+0060EBMT V0209999V002012200019N0100001N1+00191+00131102381ADDGA1021+030009039GF102991021001999999031011MD1210161+9999OA149999999REMSYN082AAXX  09071 06428 42960 29902 10019 20013 40238 52016 82031 333 82360 91103 91202;EQDQ01  00152WGOSPD
0180064280999992000010908004+50930+003730FM-12+0060EBMT V0209999V002012200019N0080001N1+00161+00111102461ADDGA1011+007809069GF103991011051008001031011MD1210201+9999OA149999999REMSYN082AAXX  09081 06428 42558 39902 10016 20011 40246 52020 81531 333 81626 91103 91202;EQDQ01  00152WGOSPD
0180064280999992000010909004+50930+003730FM-12+0060EBMT V0209999V002012200019N0080001N1+00191+00161102521ADDGA1011+033009039GF102991011001999999031011MD1210191+9999OA149999999REMSYN082AAXX  09091 06428 42958 29902 10019 20016 40252 52019 81031 333 81361 91103 91202;EQDQ01  00152WGOSPD
0161064280999992000010910004+50930+003730FM-12+0060EBMT V0209999V001012200019N0080001N1+00311+00211102601ADDGA1011+005409089GF103991011011004501031011MD1210231+9999OA149900101REMSYN082AAXX  09101 06428 42458 39901 10031 20021 40260 52023 81131 333 81818 91102 91202;
0161064280999992000010911004+50930+003730FM-12+0060EBMT V0209999V001012200019N0090001N1+00491+00261102631ADDGA1011+005409089GF102991011011004501031011MD1210171+9999OA149900101REMSYN082AAXX  09111 06428 42459 29901 10049 20026 40263 52017 81131 333 81818 91102 91201;
0191064280999992000010912004+50930+003730FM-12+0060EBMT V0209999V001012200019N0120001N1+00601+00331102671ADDAA106000091GA1011+030009039GF102991011001999999031011MD1110151+9999OA149900151REMSYN082AAXX  09121 06428 32962 29901 10060 20033 40267 51015 81031 333 81360 91103 91202;EQDQ01  00002PRCP06
0180064280999992000010913004+50930+003730FM-12+0060EBMT V0203301N003012200019N0150001N1+00651+00301102691ADDGA1021+005109089GF104991021011004501031011MD1210091+9999OA149999999REMSYN082AAXX  09131 06428 42465 43303 10065 20030 40269 52009 82131 333 82817 91104 91203;EQDQ01  00212WGOSPD
0161064280999992000010914004+50930+003730FM-12+0060EBMT V0203301N003012200019N0180001N1+00631+00251102741ADDGA1021+006609089GF104991021011008001031011MD1210111+9999OA149900311REMSYN082AAXX  09141 06428 42568 43303 10063 20025 40274 52011 82131 333 82822 91106 91204;
0161064280999992000010915004+50930+003730FM-12+0060EBMT V0203401N003012200019N0200001N1+00551+00211102811ADDGA1021+005109089GF104991021011004501031011MD1310141+9999OA149900311REMSYN082AAXX  09151 06428 42470 43403 10055 20021 40281 53014 82131 333 82817 91106 91204;
0180064280999992000010916004+50930+003730FM-12+0060EBMT V0209999V003012200019N0250001N1+00461+00161102871ADDGA1011+030009039GF102991011001999999031011MD1210181+9999OA149999999REMSYN082AAXX  09161 06428 42975 29903 10046 20016 40287 52018 81031 333 81360 91104 91203;EQDQ01  00212WGOSPD
0161064280999992000010917004+50930+003730FM-12+0060EBMT V0209999V001012200019N0250001N1+00401+00141102931ADDGA1011+030009039GF101991011001999999031011MD1210191+9999OA149900151REMSYN082AAXX  09171 06428 42975 19901 10040 20014 40293 52019 81031 333 81360 91103 91202;
0210064280999992000010918004+50930+003730FM-12+0060EBMT V0209999V001012200019N0250001N1+00301+00151103001ADDAA106000091GA1011+030009039GF101991011001999999031011KA1120M+00681MD1210191+9999OA149900311REMSYN088AAXX  09181 06428 32975 19901 10030 20015 40300 52019 81031 333 10068 81360 91106 91204;EQDQ01  00002PRCP06
0180064280999992000010919004+50930+003730FM-12+0060EBMT V0209999V002012200019N0250001N1+00281+00111103071ADDGA1011+030009039GF101991011001999999031011MD1210201+9999OA149999999REMSYN082AAXX  09191 06428 42975 19902 10028 20011 40307 52020 81031 333 81360 91103 91202;EQDQ01  00152WGOSPD
0161064280999992000010920004+50930+003730FM-12+0060EBMT V0209999V001012200019N0250001N1+00181+00081103141ADDGA1011+030009039GF101991011001999999031011MD1210201+9999OA149900151REMSYN082AAXX  09201 06428 42975 19901 10018 20008 40314 52020 81031 333 81360 91103 91202;
0161064280999992000010921004+50930+003730FM-12+0060EBMT V0209999V001012200019N0250001N1+00201+00071103201ADDGA1011+030009039GF101991011001999999031011MD1210191+9999OA149900151REMSYN082AAXX  09211 06428 42975 19901 10020 20007 40320 52019 81031 333 81360 91103 91202;
0180064280999992000010922004+50930+003730FM-12+0060EBMT V0209999V001012200019N0250001N1+00101+00021103251ADDGA1011+027009039GF101991011001999999031001MD1110171+9999OA149999999REMSYN082AAXX  09221 06428 42975 19901 10010 20002 40325 51017 81030 333 81359 91101 91201;EQDQ01  00052WGOSPD
0161064280999992000010923004+50930+003730FM-12+0060EBMT V0209999V001012200019N0250001N1+00101+00071103311ADDGA1011+030009039GF101991011001999999031001MD1210171+9999OA149900101REMSYN082AAXX  09231 06428 42975 19901 10010 20007 40331 52017 81030 333 81360 91102 91201;
0218064280999992000011000004+50930+003730FM-12+0060EBMT V0209999V001012200019N0200001N1+00071+00051103341ADDAA106000091GA1021+030009039GF102991021001999999031011MD1110141+9999OA149900151OA259900101REMSYN098AAXX  10001 06428 32970 29901 10007 20005 40334 51014 82031 333 82360 91103 91202 555 10068 21008;EQDQ01  00002PRCP06
0201064280999992000011001004+50930+003730FM-12+0060EBMT V0209999V002012200019N0250001N1+00031+00001103381ADDGA1011+030009039GF102991011001999999031011MA1999999102871MD1310131+9999OA149900261REMSYN088AAXX  10011 06428 42975 29902 10003 21000 30287 40338 53083 81031 333 81360 91105 91203;EQDQ01+000832APC3  
0161064280999992000011002004+50930+003730FM-12+0060EBMT V0209999V001012200019N0100001N1+00031+00001103421ADDGA1021+009009069GF103991021061008001031001MD1310101+9999OA149900101REMSYN082AAXX  10021 06428 42560 39901 10003 20000 40342 53010 82630 333 82630 91102 91201;
0201064280999992000011003004+50930+003730FM-12+0060EBMT V0209999V002012200019N0250001N1+00021-00011103451ADDGA1011+030009039GF102991011001999999031011MA1999999102941MD1310111+9999OA149900211REMSYN088AAXX  10031 06428 42975 29902 10002 21001 30294 40345 53090 81031 333 81360 91104 91203;EQDQ01+000902APC3  
0161064280999992000011004004+50930+003730FM-12+0060EBMT V0209999V001012200019N0080001N1+00021-00061103471ADDGA1011+009009069GF102991011051008001031011MD1110101+9999OA149900101REMSYN082AAXX  10041 06428 42558 29901 10002 21006 40347 51010 81531 333 81630 91102 91201;
0189064280999992000011005004+50930+003730FM-12+0060EBMT V0209999V001012200019N0040001N1-00011-00071103521ADDAY101999AY201999GA1011+009309069GF102991011051008001031011MD1210111+9999MW1101OA149900101REMSYN088AAXX  10051 06428 41540 29901 11001 21007 40352 52011 71000 81531 333 81631 91102 91201;
0262064280999992000011006004+50930+003730FM-12+0060EBMT V0209999V001012200019N0045001N1-00041-00071103561ADDAA106000091AY101061AY201061GA1011+008709069GF102991011051008001031011IA1149IA2999-00509KA1120N-00241MD1210101+9999MW1101OA149900101REMSYN100AAXX  10061 06428 31545 29901 11004 21007 40356 52010 71000 81531 333 21024 34105 81629 91102 91201;EQDQ01  00002PRCP06
0208064280999992000011007004+50930+003730FM-12+0060EBMT V0209999V001012200019N0045001N1-00061-00111103601ADDAY101999AY201999GA1011+030009039GF102991011001999999031011MD1210131+9999MW1101OA149999999REMSYN088AAXX  10071 06428 41945 29901 11006 21011 40360 52013 71000 81031 333 81360 91101 91201;EQDQ01  00052WGOSPD
0208064280999992000011008004+50930+003730FM-12+0060EBMT V0209999V002012200019N0022001N1-00021-00051103661ADDAY101999AY201999GA1031+007809069GF104991031051008001031011MD1310141+9999MW1101OA149999999REMSYN088AAXX  10081 06428 41522 49902 11002 21005 40366 53014 71000 83531 333 83626 91102 91202;EQDQ01  00102WGOSPD
0189064280999992000011009004+50930+003730FM-12+0060EBMT V0209999V001010084019N0022001N1+00031-00081103681ADDAY111031AY211031GA1051+008409069GF105991051051008001031011MD1210121+9999MW1101OA149900101REMSYN088AAXX  10091 06428 41522 59901 10003 21008 40368 52012 71011 85531 333 85628 91102 91202;
0208064280999992000011010004+50930+003730FM-12+0060EBMT V0209999V002010090019N0025001N1+00061+00041103751ADDAY111999AY211999GA1061+009009069GF107991061051008001031011MD1210151+9999MW1101OA149999999REMSYN088AAXX  10101 06428 41525 79902 10006 20004 40375 52015 71011 86531 333 86630 91102 91202;EQDQ01  00102WGOSPD
0189064280999992000011011004+50930+003730FM-12+0060EBMT V0209999V001010087019N0025001N1+00261+00161103781ADDAY121999AY221999GA1061+008709069GF106991061051008001999999MD1210121+9999MW1101OA149900101REMSYN088AAXX  10111 06428 41525 69901 10026 20016 40378 52012 71022 865// 333 86629 91102 91201;
0219064280999992000011012004+50930+003730FM-12+0060EBMT V0209999V001012200019N0025001N1+00411+00151103731ADDAA106000091AY111061AY211061GA1021+009009069GF103991021051008001031011MD1010051+9999MW1101OA149900101REMSYN088AAXX  10121 06428 31525 39901 10041 20015 40373 50005 71011 82531 333 82630 91102 91202;EQDQ01  00002PRCP06
0208064280999992000011013004+50930+003730FM-12+0060EBMT V0202401N002012200019N0030001N1+00531+00211103711ADDAY101999AY201999GA1011+005409089GF103991021081004501031011MD1810031+9999MW1101OA149999999REMSYN088AAXX  10131 06428 41430 32402 10053 20021 40371 58003 71000 82831 333 81818 91103 91202;EQDQ01  00152WGOSPD
0202064280999992000011014004+50930+003730FM-12+0060EBMT V0202401N003010087019N0060001N1+00531+00031103701ADDGA1011+006009089GA2041+008709069GF106991051081008001031011MD1610071+9999OA149999999REMSYN088AAXX  10141 06428 42556 62403 10053 20003 40370 56007 85831 333 81820 84629 91104 91203;EQDQ01  00212WGOSPD
0183064280999992000011015004+50930+003730FM-12+0060EBMT V0202201N002012200019N0070001N1+00491-00021103701ADDGA1011+006009089GA2031+060009009GF104991021081008001031011MD1610021+9999OA149900211REMSYN088AAXX  10151 06428 42557 42202 10049 21002 40370 56002 82831 333 81820 83070 91104 91203;
0202064280999992000011016004+50930+003730FM-12+0060EBMT V0209999V003012200019N0080001N1+00361-00061103731ADDGA1011+009309069GA2041+060009009GF104991011051008001031011MD1310011+9999OA149999999REMSYN088AAXX  10161 06428 42558 49903 10036 21006 40373 53001 81531 333 81631 84070 91104 91203;EQDQ01  00212WGOSPD
0202064280999992000011017004+50930+003730FM-12+0060EBMT V0201701N002012200019N0080001N1+00251-00081103721ADDGA1011+027009039GA2041+060009009GF104991011001999999031011MD1010011+9999OA149999999REMSYN088AAXX  10171 06428 42958 41702 10025 21008 40372 50001 81031 333 81359 84070 91103 91202;EQDQ01  00152WGOSPD
0232064280999992000011018004+50930+003730FM-12+0060EBMT V0209999V002012200019N0100001N1+00181-00101103751ADDAA106000091GA1011+027009039GA2041+060009009GF104991011001999999031011KA1120M+00611MD1210041+9999OA149900211REMSYN094AAXX  10181 06428 32960 49902 10018 21010 40375 52004 81031 333 10061 81359 84070 91104 91203;EQDQ01  00002PRCP06
0202064280999992000011020004+50930+003730FM-12+0060EBMT V0201901N002012200019N0100001N1+00061-00131103761ADDGA1011+013209069GA2041+060009009GF104991011051999999031011MD1210041+9999OA149999999REMSYN088AAXX  10201 06428 42960 41902 10006 21013 40376 52004 81531 333 81644 84070 91103 91202;EQDQ01  00152WGOSPD
0202064280999992000011021004+50930+003730FM-12+0060EBMT V0202001N002012200019N0100001N1+00041-00101103781ADDGA1011+018009069GA2041+060009009GF104991011051999999031011MD1310031+9999OA149999999REMSYN088AAXX  10211 06428 42960 42002 10004 21010 40378 53003 81531 333 81656 84070 91103 91202;EQDQ01  00152WGOSPD
0202064280999992000011022004+50930+003730FM-12+0060EBMT V0201901N002012200019N0100001N1+00021-00121103761ADDGA1011+015009069GA2041+060009009GF104991011051017501031011MD1010011+9999OA149999999REMSYN088AAXX  10221 06428 42760 41902 10002 21012 40376 50001 81531 333 81650 84070 91103 91202;EQDQ01  00152WGOSPD
0202064280999992000011023004+50930+003730FM-12+0060EBMT V0201901N002012200019N0100001N1+00021-00091103761ADDGA1011+018009069GA2041+060009009GF104991011051017501031011MD1010001+9999OA149999999REMSYN088AAXX  10231 06428 42760 41902 10002 21009 40376 50000 81531 333 81656 84070 91103 91202;EQDQ01  00152WGOSPD
0272064280999992000011100004+50930+003730FM-12+0060EBMT V0202001N002012200019N0100001N1+00041-00051103771ADDAA106000091GA1011+015009069GA2041+060009009GF104991011051017501031011MD1010011+9999OA149999999OA259999999REMSYN104AAXX  11001 06428 32760 42002 10004 21005 40377 50001 81531 333 81650 84070 91103 91202 555 10061 21024;EQDQ01  00002PRCP06Q02  00152WGOSPDQ03  00102WGOSPD
0202064280999992000011101004+50930+003730FM-12+0060EBMT V0202101N003012200019N0100001N1+00071-00041103781ADDGA1011+015009069GA2041+060009009GF104991011051017501031011MD1310021+9999OA149999999REMSYN088AAXX  11011 06428 42760 42103 10007 21004 40378 53002 81531 333 81650 84070 91104 91203;EQDQ01  00212WGOSPD
0180064280999992000011102004+50930+003730FM-12+0060EBMT V0201901N003012200019N0100001N1+00031-00051103791ADDGA1041+060009009GF104991001001999999001011MD1210031+9999OA149999999REMSYN082AAXX  11021 06428 42960 41903 10003 21005 40379 52003 80001 333 84070 91104 91203;EQDQ01  00212WGOSPD
0202064280999992000011103004+50930+003730FM-12+0060EBMT V0202101N003012200019N0100001N1+00061+00001103771ADDGA1011+012609069GA2041+060009009GF104991011051017501031011MD1010001+9999OA149999999REMSYN088AAXX  11031 06428 42760 42103 10006 20000 40377 50000 81531 333 81642 84070 91104 91203;EQDQ01  00212WGOSPD
0202064280999992000011104004+50930+003730FM-12+0060EBMT V0202001N003012200019N0100001N1+00061-00021103751ADDGA1011+030009039GA2041+060009009GF104991011001999999031011MD1810031+9999OA149999999REMSYN088AAXX  11041 06428 42960 42003 10006 21002 40375 58003 81031 333 81360 84070 91104 91203;EQDQ01  00212WGOSPD
0202064280999992000011105004+50930+003730FM-12+0060EBMT V0202101N003012200019N0100001N1+00041-00021103741ADDGA1011+027009039GA2041+060009009GF104991011001999999031011MD1610051+9999OA149999999REMSYN088AAXX  11051 06428 42960 42103 10004 21002 40374 56005 81031 333 81359 84070 91105 91203;EQDQ01  00262WGOSPD
0288064280999992000011106004+50930+003730FM-12+0060EBMT V0201901N003012200019N0100001N1-00071-00071103741ADDAA106000091GA1011+030009039GA2041+060009009GF104991011001999999031011IA1149IA2999-00309KA1120N+99999MD1610031+9999OA149999999REMSYN100AAXX  11061 06428 32960 41903 11007 21007 40374 56003 81031 333 21001 34103 81360 84070 91105 91203;EQDQ01  00002PRCP06Q02  00262WGOSPDQ03 -00012ATMN  
0202064280999992000011107004+50930+003730FM-12+0060EBMT V0201901N003012200019N0100001N1-00011-00101103731ADDGA1011+018009069GA2041+060009009GF104991011051017501031011MD1710021+9999OA149999999REMSYN088AAXX  11071 06428 42760 41903 11001 21010 40373 57002 81531 333 81656 84070 91105 91204;EQDQ01  00262WGOSPD
0202064280999992000011108004+50930+003730FM-12+0060EBMT V0201901N003012200019N0060001N1-00011-00101103761ADDGA1011+018009069GA2041+060009009GF104991011051017501031011MD1310021+9999OA149999999REMSYN088AAXX  11081 06428 42756 41903 11001 21010 40376 53002 81531 333 81656 84070 91104 91203;EQDQ01  00212WGOSPD
0202064280999992000011109004+50930+003730FM-12+0060EBMT V0202001N003012200019N0060001N1+00101-00131103791ADDGA1011+024009039GA2041+060009009GF104991011001022501031011MD1310051+9999OA149999999REMSYN088AAXX  11091 06428 42856 42003 10010 21013 40379 53005 81031 333 81358 84070 91105 91204;EQDQ01  00262WGOSPD
0202064280999992000011110004+50930+003730FM-12+0060EBMT V0201901N004012200019N0060001N1+00151-00061103771ADDGA1011+024009039GA2041+060009009GF104991011001022501031011MD1010041+9999OA149999999REMSYN088AAXX  11101 06428 42856 41904 10015 21006 40377 50004 81031 333 81358 84070 91105 91204;EQDQ01  00262WGOSPD
0180064280999992000011111004+50930+003730FM-12+0060EBMT V0202101N00401030001CN0060001N1+00261-00021103771ADDGA1041+015009069GF105991041051017501031011MD1110011+9999OA149999999REMSYN082AAXX  11111 06428 42756 52104 10026 21002 40377 51001 84531 333 84650 91106 91204;EQDQ01  00312WGOSPD
0229064280999992000011112004+50930+003730FM-12+0060EBMT V0202101N004010360019N0080001N1+00371+00031103711ADDAA106000091GA1031+015009069GA2031+036009039GF105991031051017501031011MD1810081+9999OA149999999REMSYN088AAXX  11121 06428 32758 52104 10037 20003 40371 58008 83531 333 83650 83362 91107 91204;EQDQ01  00002PRCP06Q02  00362WGOSPD
0202064280999992000011113004+50930+003730FM-12+0060EBMT V0202101N005010360019N0100001N1+00391+00031103671ADDGA1021+015009069GA2031+036009039GF105991021051017501031011MD1810101+9999OA149999999REMSYN088AAXX  11131 06428 42760 52105 10039 20003 40367 58010 82531 333 82650 83362 91108 91206;EQDQ01  00412WGOSPD
0161064280999992000011114004+50930+003730FM-12+0060EBMT V0202001N003010150019N0070001N1+00351+00031103641ADDGA1051+015009069GF106991051051017501031011MD1710031+9999OA149900311REMSYN082AAXX  11141 06428 42757 62003 10035 20003 40364 57003 85531 333 85650 91106 91204;
0161064280999992000011115004+50930+003730FM-12+0060EBMT V0202101N004010150019N0070001N1+00271+00021103651ADDGA1051+015009069GF106991051051017501031011MD1510061+9999OA149900411REMSYN082AAXX  11151 06428 42757 62104 10027 20002 40365 55006 85531 333 85650 91108 91206;
0208064280999992000011116004+50930+003730FM-12+0060EBMT V0201901N004010150019N0050001N1+00211-00021103621ADDAY121999AY221999GA1051+015009069GF106991051051017501031011MD1710051+9999MW1101OA149999999REMSYN088AAXX  11161 06428 41750 61904 10021 21002 40362 57005 71022 85531 333 85650 91107 91204;EQDQ01  00362WGOSPD
0208064280999992000011117004+50930+003730FM-12+0060EBMT V0202001N004010150019N0050001N1+00191-00041103611ADDAY121999AY221999GA1071+015009069GF107991071051017501999999MD1610031+9999MW1101OA149999999REMSYN088AAXX  11171 06428 41750 72004 10019 21004 40361 56003 71022 875// 333 87650 91106 91204;EQDQ01  00312WGOSPD
0270064280999992000011118004+50930+003730FM-12+0060EBMT V0202001N004010150019N0050001N1+00151-00061103591ADDAA106000091AY121061AY221061GA1071+015009069GF107991071051017501999999KA1120M+00421MD1710061+9999MW1101OA149900411REMSYN094AAXX  11181 06428 31750 72004 10015 21006 40359 53105 71022 875// 333 10042 87650 91108 91206;EQDQ01+000032APCTENQ02+001052APC3  Q03  00002PRCP06
0208064280999992000011119004+50930+003730FM-12+0060EBMT V0202101N006010150019N0050001N1-00031-00121103611ADDAY121999AY221999GA1071+015009069GF107991071051017501999999MD1510011+9999MW1101OA149999999REMSYN088AAXX  11191 06428 41750 72106 11003 21012 40361 55001 71022 875// 333 87650 91108 91206;EQDQ01  00412WGOSPD
0230064280999992000011120004+50930+003730FM-12+0060EBMT V0202101N006010150019N0050001N1-00091-00151103591ADDAY121999AY221999GA1011+001209079GA2041+015009069GF105991041051001501031011MD1710021+9999MW1101OA149999999REMSYN094AAXX  11201 06428 41250 52106 11009 21015 40359 57002 71022 84531 333 81704 84650 91108 91206;EQDQ01  00412WGOSPD
0211064280999992000011121004+50930+003730FM-12+0060EBMT V0201901N003010150019N0050001N1-00121-00161103571ADDAY121031AY221031GA1031+001209079GA2041+015009069GF105991041051001501031011MD1810021+9999MW1101OA149900411REMSYN094AAXX  11211 06428 41250 51903 11012 21016 40357 58002 71022 84531 333 83704 84650 91108 91206;
0208064280999992000011122004+50930+003730FM-12+0060EBMT V0202001N004012200019N0050001N1-00101-00191103511ADDAY111999AY211999GA1031+001209079GF104991031061001501031011MD1710101+9999MW1101OA149999999REMSYN088AAXX  11221 06428 41250 42004 11010 21019 40351 57010 71011 83631 333 83704 91106 91204;EQDQ01  00312WGOSPD
0208064280999992000011123004+50930+003730FM-12+0060EBMT V0202101N005012200019N0050001N1-00081-00171103491ADDAY121999AY221999GA1011+030009039GF102991011001999999031011MD1710101+9999MW1101OA149999999REMSYN088AAXX  11231 06428 41950 22105 11008 21017 40349 57010 71022 81031 333 81360 91108 91205;EQDQ01  00412WGOSPD
0278064280999992000011200004+50930+003730FM-12+0060EBMT V0202001N005012200019N0050001N1-00121-00181103461ADDAA106000091AY111061AY211061GA1011+030009039GF102991011001999999031011MD1710111+9999MW1101OA149999999OA259999999REMSYN104AAXX  12001 06428 31950 22005 11012 21018 40346 57011 71011 81031 333 81360 91108 91206 555 10042 21013;EQDQ01  00002PRCP06Q02  00412WGOSPDQ03  00312WGOSPD
0208064280999992000011201004+50930+003730FM-12+0060EBMT V0202001N005012200019N0050001N1-00131-00221103381ADDAY101999AY201999GA1011+030009039GF102991011001999999031011MD1710131+9999MW1101OA149999999REMSYN088AAXX  12011 06428 41950 22005 11013 21022 40338 57013 71000 81031 333 81360 91108 91206;EQDQ01  00412WGOSPD
0189064280999992000011202004+50930+003730FM-12+0060EBMT V0201901N004012200019N0050001N1-00161-00221103341ADDAY101999AY201999GA1011+030009039GF102991011001999999031011MD1710151+9999MW1101OA149900411REMSYN088AAXX  12021 06428 41950 21904 11016 21022 40334 57015 71000 81031 333 81360 91108 91205;
0208064280999992000011203004+50930+003730FM-12+0060EBMT V0202001N005012200019N0050001N1-00161-00251103291ADDAY101031AY201031GA1011+001509069GF102991011061001501031011MD1710171+9999MW1101OA149999999REMSYN088AAXX  12031 06428 41250 22005 11016 21025 40329 57017 71000 81631 333 81605 91108 91206;EQDQ01  00412WGOSPD
0208064280999992000011204004+50930+003730FM-12+0060EBMT V0202001N004012200019N0050001N1-00161-00281103241ADDAY101999AY201999GA1011+001509079GF102991011061001501031011MD1710101+9999MW1101OA149999999REMSYN088AAXX  12041 06428 41250 22004 11016 21028 40324 57010 71000 81631 333 81705 91107 91205;EQDQ01  00362WGOSPD
0208064280999992000011205004+50930+003730FM-12+0060EBMT V0201901N005012200019N0050001N1-00171-00291103171ADDAY101999AY201999GA1011+001509079GF102991011061001501031011MD1710171+9999MW1101OA149999999REMSYN088AAXX  12051 06428 41250 21905 11017 21029 40317 57017 71000 81631 333 81705 91107 91205;EQDQ01  00362WGOSPD
0262064280999992000011206004+50930+003730FM-12+0060EBMT V0202001N004012200019N0050001N1-00171-00291103171ADDAA106000091AY101061AY201061GA1011+030009039GF102991011001999999031011IA1149IA2999-00309KA1120N-00181MD1610121+9999MW1101OA149900411REMSYN100AAXX  12061 06428 31950 22004 11017 21029 40317 56012 71000 81031 333 21018 34103 81360 91108 91206;EQDQ01  00002PRCP06
0189064280999992000011207004+50930+003730FM-12+0060EBMT V0202001N004012200019N0050001N1-00171-00261103131ADDAY101999AY201999GA1011+030009039GF102991011001999999031011MD1610111+9999MW1101OA149900411REMSYN088AAXX  12071 06428 41950 22004 11017 21026 40313 56011 71000 81031 333 81360 91108 91205;
0230064280999992000011208004+50930+003730FM-12+0060EBMT V0202001N006012200019N0035001N1-00151-00241103131ADDAY101999AY201999GA1011+003009079GA2031+060009009GF104991011061004501031011MD1710041+9999MW1101OA149999999REMSYN094AAXX  12081 06428 41435 42006 11015 21024 40313 57004 71000 81631 333 81710 83070 91109 91206;EQDQ01  00462WGOSPD
0230064280999992000011209004+50930+003730FM-12+0060EBMT V0201901N006010600019N0050001N1-00101-00191103111ADDAY111031AY211031GA1011+002409079GA2051+060009009GF105991011061002501031011MD1610061+9999MW1101OA149999999REMSYN094AAXX  12091 06428 41350 51906 11010 21019 40311 56006 71011 81631 333 81708 85070 91110 91206;EQDQ01  00512WGOSPD
0202064280999992000011210004+50930+003730FM-12+0060EBMT V0202001N005010600019N0060001N1-00031-00121103131ADDGA1011+003009079GA2051+060009009GF106991011061004501031011MD1510001+9999OA149999999REMSYN088AAXX  12101 06428 42456 62005 11003 21012 40313 55000 81631 333 81710 85070 91109 91206;EQDQ01  00462WGOSPD
0202064280999992000011211004+50930+003730FM-12+0060EBMT V0202001N006010600019N0060001N1+00021-00231103051ADDGA1011+003009079GA2051+060009009GF105991011061004501001011MD1810081+9999OA149999999REMSYN088AAXX  12111 06428 42456 52006 10002 21023 40305 58008 81601 333 81710 85070 91110 91206;EQDQ01  00512WGOSPD
0229064280999992000011212004+50930+003730FM-12+0060EBMT V0201901N007010600019N0070001N1+00061-00181102981ADDAA106000091GA1011+003609089GA2051+060009009GF106991011011004501001011MD1810131+9999OA149999999REMSYN088AAXX  12121 06428 32457 61907 10006 21018 40298 58013 81101 333 81812 85070 91110 91206;EQDQ01  00002PRCP06Q02  00512WGOSPD
0202064280999992000011213004+50930+003730FM-12+0060EBMT V0201901N005010600019N0070001N1+00021-00201102871ADDGA1021+003609089GA2051+060009009GF106991021011004501001011MD1810261+9999OA149999999REMSYN088AAXX  12131 06428 42457 61905 10002 21020 40287 58026 82101 333 82812 85070 91109 91206;EQDQ01  00462WGOSPD
0202064280999992000011214004+50930+003730FM-12+0060EBMT V0201901N005010600019N0070001N1+00021-00211102811ADDGA1011+003609089GA2061+060009009GF107991011011004501031021MD1710241+9999OA149999999REMSYN088AAXX  12141 06428 42457 71905 10002 21021 40281 57024 81132 333 81812 86070 91108 91206;EQDQ01  00412WGOSPD
0202064280999992000011215004+50930+003730FM-12+0060EBMT V0202001N005010600019N0080001N1+00021-00211102791ADDGA1011+003609089GA2071+060009009GF107991011011004501031021MD1610191+9999OA149999999REMSYN088AAXX  12151 06428 42458 72005 10002 21021 40279 56019 81132 333 81812 87070 91109 91206;EQDQ01  00462WGOSPD
0202064280999992000011216004+50930+003730FM-12+0060EBMT V0201901N005010600019N0070001N1-00051-00221102751ADDGA1011+003009079GA2071+060009009GF107991011061004501031021MD1710121+9999OA149999999REMSYN088AAXX  12161 06428 42457 71905 11005 21022 40275 57012 81632 333 81710 87070 91107 91205;EQDQ01  00362WGOSPD
0208064280999992000011217004+50930+003730FM-12+0060EBMT V0201901N006012200019N0040001N1-00061-00231102681ADDAY111999AY211999GA1031+003009079GF104991031061004501001011MD1810131+9999MW1101OA149999999REMSYN088AAXX  12171 06428 41440 41906 11006 21023 40268 58013 71011 83601 333 83710 91109 91206;EQDQ01  00462WGOSPD
0238064280999992000011218004+50930+003730FM-12+0060EBMT V0202001N005010030019N0040001N1-00041-00241102661ADDAA106000091AY111061AY211061GA1071+003009079GF107991071061004501999999KA1120M+00081MD1710131+9999MW1101OA149900511REMSYN094AAXX  12181 06428 31440 72005 11004 21024 40266 57013 71011 876// 333 10008 87710 91110 91206;EQDQ01  00002PRCP06
0208064280999992000011219004+50930+003730FM-12+0060EBMT V0202001N005010036019N0040001N1-00021-00191102611ADDAY121999AY221999GA1071+003609079GF107991071061004501999999MD1710141+9999MW1101OA149999999REMSYN088AAXX  12191 06428 41440 72005 11002 21019 40261 57014 71022 876// 333 87712 91108 91206;EQDQ01  00412WGOSPD
0208064280999992000011220004+50930+003730FM-12+0060EBMT V0202101N008010033019N0040001N1+00031-00161102541ADDAY121999AY221999GA1071+003309079GF107991071061004501999999MD1810141+9999MW1101OA149999999REMSYN088AAXX  12201 06428 41440 72108 10003 21016 40254 58014 71022 876// 333 87711 91111 91207;EQDQ01  00572WGOSPD
0208064280999992000011221004+50930+003730FM-12+0060EBMT V0202101N007010042019N0040001N1+00051-00111102481ADDAY121031AY221031GA1071+004209079GF107991071061004501999999MD1710181+9999MW1101OA149999999REMSYN088AAXX  12211 06428 41440 72107 10005 21011 40248 57018 71022 876// 333 87714 91112 91208;EQDQ01  00622WGOSPD
0189064280999992000011222004+50930+003730FM-12+0060EBMT V0201901N004010030019N0038001N1-00011-00151102431ADDAY121999AY221999GA1051+003009079GF107991051061004501031999MD1610181+9999MW1101OA149900511REMSYN088AAXX  12221 06428 41438 71904 11001 21015 40243 56018 71022 8563/ 333 85710 91110 91207;
0208064280999992000011223004+50930+003730FM-12+0060EBMT V0202001N004012200019N0038001N1-00021-00161102371ADDAY111999AY211999GA1021+003009079GF102991021061004501001001MD1710171+9999MW1101OA149999999REMSYN088AAXX  12231 06428 41438 22004 11002 21016 40237 57017 71011 82600 333 82710 91106 91204;EQDQ01  00312WGOSPD
0246064280999992000011300004+50930+003730FM-12+0060EBMT V0201901N003012200019N0038001N1-00021-00161102281ADDAA106000091AY111061AY211061GA1021+003009079GF102991021061004501001001MD1810201+9999MW1101OA149900621OA259900411REMSYN104AAXX  13001 06428 31438 21903 11002 21016 40228 58020 71011 82600 333 82710 91112 91208 555 10010 21019;EQDQ01  00002PRCP06
0230064280999992000011301004+50930+003730FM-12+0060EBMT V0201901N004010069019N0038001N1+00041-00151102201ADDAY111999AY211999GA1011+003009079GA2061+006909069GF107991071051004501999999MD1710231+9999MW1101OA149999999REMSYN094AAXX  13011 06428 41438 71904 10004 21015 40220 57023 71011 875// 333 81710 86623 91105 91204;EQDQ01  00262WGOSPD
0211064280999992000011302004+50930+003730FM-12+0060EBMT V0202001N003010072019N0040001N1+00101-00191102141ADDAY121999AY221999GA1011+003009079GA2071+007209069GF107991071051004501999999MD1610221+9999MW1101OA149900311REMSYN094AAXX  13021 06428 41440 72003 10010 21019 40214 56022 71022 875// 333 81710 87624 91106 91204;
0208064280999992000011303004+50930+003730FM-12+0060EBMT V0201901N006010072019N0040001N1+00111-00101102031ADDAY121031AY221031GA1071+007209069GF107991071051008001999999MD1710241+9999MW1101OA149999999REMSYN088AAXX  13031 06428 41540 71906 10011 21010 40203 57024 71022 875// 333 87624 91106 91204;EQDQ01  00312WGOSPD
0189064280999992000011304004+50930+003730FM-12+0060EBMT V0201901N003010072019N0040001N1+00151-00111101871ADDAY121999AY221999GA1071+007209069GF107991071051008001999999MD1810321+9999MW1101OA149900311REMSYN088AAXX  13041 06428 41540 71903 10015 21011 40187 58032 71022 875// 333 87624 91106 91204;
0208064280999992000011305004+50930+003730FM-12+0060EBMT V0201901N004010072019N0040001N1+00151-00141101841ADDAY121999AY221999GA1071+007209069GF107991071051008001999999MD1610301+9999MW1101OA149999999REMSYN088AAXX  13051 06428 41540 71904 10015 21014 40184 56030 71022 875// 333 87624 91106 91204;EQDQ01  00312WGOSPD
0278064280999992000011306004+50930+003730FM-12+0060EBMT V0202001N004010075019N0040001N1+00131-00111101811ADDAA106000091AY121061AY221061GA1051+007509069GF106991051051008001031999IA1149IA2999-00209KA1120N-00051MD1610221+9999MW1101OA149999999REMSYN100AAXX  13061 06428 31540 62004 10013 21011 40181 56022 71022 8553/ 333 21005 34102 85625 91107 91204;EQDQ01  00002PRCP06Q02  00362WGOSPD
0230064280999992000011307004+50930+003730FM-12+0060EBMT V0202001N005010300019N0040001N1+00131-00111101781ADDAY121999AY221999GA1011+003909079GA2031+007509069GF105991041051004501031011MD1710091+9999MW1101OA149999999REMSYN094AAXX  13071 06428 41440 52005 10013 21011 40178 57009 71022 84531 333 81713 83625 91107 91205;EQDQ01  00362WGOSPD
0230064280999992000011308004+50930+003730FM-12+0060EBMT V0201901N005012200019N0045001N1+00101-00081101761ADDAY111999AY211999GA1011+012009069GA2031+060009009GF104991021051012501031011MD1710081+9999MW1101OA149999999REMSYN094AAXX  13081 06428 41645 41905 10010 21008 40176 57008 71011 82531 333 81640 83070 91108 91205;EQDQ01  00412WGOSPD
0230064280999992000011309004+50930+003730FM-12+0060EBMT V0202001N005012200019N0045001N1+00131-00051101781ADDAY111031AY211031GA1021+018009069GA2031+060009009GF104991021051017501031011MD1510031+9999MW1101OA149999999REMSYN094AAXX  13091 06428 41745 42005 10013 21005 40178 55003 71011 82531 333 82656 83070 91108 91205;EQDQ01  00412WGOSPD
0230064280999992000011310004+50930+003730FM-12+0060EBMT V0202101N006010600019N0045001N1+00171-00061101761ADDAY111999AY211999GA1041+012609069GA2031+060009009GF106991041051012501031011MD1710021+9999MW1101OA149999999REMSYN094AAXX  13101 06428 41645 62106 10017 21006 40176 57002 71011 84531 333 84642 83070 91109 91206;EQDQ01  00462WGOSPD
0230064280999992000011311004+50930+003730FM-12+0060EBMT V0202101N006010126019N0050001N1+00191-00071101741ADDAY121999AY221999GA1041+005409069GA2051+012609069GF107991061051012501031999MD1810021+9999MW1101OA149999999REMSYN094AAXX  13111 06428 41650 72106 10019 21007 40174 58002 71022 8653/ 333 84618 85642 91109 91206;EQDQ01  00462WGOSPD
0257064280999992000011312004+50930+003730FM-12+0060EBMT V0202101N006010042019N0050001N1+00201-00061101681ADDAA106000091AY111061AY211061GA1021+002709079GA2071+004209069GF108991071051002501999999MD1810101+9999MW1101OA149999999REMSYN094AAXX  13121 06428 31350 82106 10020 21006 40168 58010 71011 875// 333 82709 87614 91109 91206;EQDQ01  00002PRCP06Q02  00462WGOSPD
0208064280999992000011313004+50930+003730FM-12+0060EBMT V0202101N006010039019N0050001N1+00181-00051101641ADDAY121999AY221999GA1071+003909069GF108991071051004501999999MD1710121+9999MW1101OA149999999REMSYN088AAXX  13131 06428 41450 82106 10018 21005 40164 57012 71022 875// 333 87613 91109 91206;EQDQ01  00462WGOSPD
0208064280999992000011315004+50930+003730FM-12+0060EBMT V0202001N005010036019N0050001N1+00151-00031101591ADDAY121031AY221031GA1081+003609079GF108991081061004501999999MD1010091+9999MW1101OA149999999REMSYN088AAXX  13151 06428 41450 82005 10015 21003 40159 50009 71022 886// 333 88712 91109 91206;EQDQ01  00462WGOSPD
0208064280999992000011316004+50930+003730FM-12+0060EBMT V0202001N005010027019N0045001N1+00131-00051101571ADDAY121999AY221999GA1081+002709079GF108991081061004501999999MD1710071+9999MW1101OA149999999REMSYN088AAXX  13161 06428 41445 82005 10013 21005 40157 57007 71022 886// 333 88709 91108 91205;EQDQ01  00412WGOSPD
0189064280999992000011317004+50930+003730FM-12+0060EBMT V0202001N004010027019N0040001N1+00111-00021101621ADDAY121999AY221999GA1081+002709079GF108991081061002501999999MD1210041+9999MW1101OA149900411REMSYN088AAXX  13171 06428 41340 82004 10011 21002 40162 52004 71022 886// 333 88709 91108 91205;
0238064280999992000011318004+50930+003730FM-12+0060EBMT V0201901N004010024019N0040001N1+00081-00031101641ADDAA106000091AY121061AY221061GA1081+002409079GF108991081061002501999999KA1120M+00211MD1310051+9999MW1101OA149900461REMSYN094AAXX  13181 06428 31340 81904 10008 21003 40164 53005 71022 886// 333 10021 88708 91109 91206;EQDQ01  00002PRCP06
0230064280999992000011319004+50930+003730FM-12+0060EBMT V0201901N004010024019N0040001N1+00081+00021101631ADDAY151999AY221999GA1021+001809079GA2081+002409079GF108991081061002501999999MD1010061+9999MW1501OA149999999REMSYN094AAXX  13191 06428 41340 81904 10008 20002 40163 50006 75052 886// 333 82706 88708 91106 91204;EQDQ01  00312WGOSPD
0234064280999992000011320004+50930+003730FM-12+006099999V0202001N00401001501MN0030001N1+00081+00021101641ADDAY151999AY251999GA1051+001509079GA2081+002409079GF108991081071001501999999MD1210021+9999MW1511OA149999999REMSYN098    AAXX  13201 06428 41230 82004 10008 20002 40164 52002 75155 887// 333 85705 88708 91107 91205;EQDQ01  00362WGOSPD
0212064280999992000011321004+50930+003730FM-12+006099999V0202001N00401001801MN0025001N1+00101+00041101651ADDAY171031AY251031GA1081+001809079GF108991081071001501999999MD1310011+9999MW1511OA149999999REMSYN092    AAXX  13211 06428 41225 82004 10010 20004 40165 53001 75175 887// 333 88706 91107 91205;EQDQ01  00362WGOSPD
0212064280999992000011322004+50930+003730FM-12+006099999V0202101N00501001201MN0025001N1+00111+00051101651ADDAY151999AY251999GA1081+001209079GF108991081071001501999999MD1110021+9999MW1511OA149999999REMSYN092    AAXX  13221 06428 41225 82105 10011 20005 40165 51002 75155 887// 333 88704 91107 91205;EQDQ01  00362WGOSPD
0212064280999992000011323004+50930+003730FM-12+006099999V0202101N00401001201MN0025001N1+00111+00051101681ADDAY151999AY251999GA1081+001209079GF108991081071001501999999MD1210041+9999MW1511OA149999999REMSYN092    AAXX  13231 06428 41225 82104 10011 20005 40168 52004 75155 887// 333 88704 91107 91205;EQDQ01  00362WGOSPD
0272064280999992000011400004+50930+003730FM-12+006099999V0202101N00401000901MN0025001N1+00111+00051101701ADDAA106000891AY171061AY251061GA1081+000909079GF108991081071000751999999MD1310051+9999MW1511OA149999999OA259999999REMSYN114    AAXX  14001 06428 11125 82104 10011 20005 40170 53005 69981 75175 887// 333 88703 91107 91205 555 10021 21005;EQDQ01  00362WGOSPDQ02  00262WGOSPD
0212064280999992000011401004+50930+003730FM-12+006099999V0202201N00401000901MN0025001N1+00131+00071101691ADDAY151999AY251999GA1081+000909079GF108991081071000751999999MD1010041+9999MW1511OA149999999REMSYN092    AAXX  14011 06428 41125 82204 10013 20007 40169 50004 75155 887// 333 88703 91106 91204;EQDQ01  00312WGOSPD
0234064280999992000011402004+50930+003730FM-12+006099999V0202101N00301018001MN0025001N1+00121+00081101731ADDAY151999AY251999GA1041+000909079GA2071+018009069GF108991071051000751999999MD1210051+9999MW1511OA149999999REMSYN098    AAXX  14021 06428 41125 82103 10012 20008 40173 52005 75155 875// 333 84703 87656 91105 91204;EQDQ01  00262WGOSPD
0237064280999992000011403004+50930+003730FM-12+006099999V0202201N00301000901MN0018001N1+00131+00111101751ADDAY151031AY251031GA1021+000159079GA2041+000909079GA3061+015009069GF108991071051000251999999MD1310051+9999MW1511OA149900311REMSYN104    AAXX  14031 06428 41018 82203 10013 20011 40175 53005 75155 875// 333 82700 84703 86650 91106 91204;
0256064280999992000011404004+50930+003730FM-12+006099999V0202201N00301000901MN0007001N1+00141+00121101771ADDAY151999AY221999GA1041+000159079GA2041+000909079GA3061+033009039GF107991061051000251031999MD1110081+9999MW1201OA149999999REMSYN104    AAXX  14041 06428 41007 72203 10014 20012 40177 51008 72052 8653/ 333 84700 84703 86361 91105 91204;EQDQ01  00262WGOSPD
0256064280999992000011405004+50930+003730FM-12+006099999V0202201N00301000901MN0003001N1+00151+00131101811ADDAY141999AY221999GA1041+000159079GA2041+000909079GA3061+030009039GF108991061051000251031999MD1310081+9999MW1461OA149999999REMSYN104    AAXX  14051 06428 41003 82203 10015 20013 40181 53008 74642 8653/ 333 84700 84703 86360 91104 91203;EQDQ01  00212WGOSPD
0297064280999992000011406004+50930+003730FM-12+006099999V0202201N00301000301MN0003001N1+00161+00141101851ADDAA112001091AY151061AY241061GA1031+000159079GA2041+000309079GA3051+018009069GF107991061051000251031999IA1119IA2999+00109KA1120N+00061MD1310101+9999MW1501OA149900311REMSYN122    AAXX  14061 06428 11003 72203 10016 20014 40185 53010 69992 75054 8653/ 333 20006 32001 83700 84701 85656 91106 91204;
0256064280999992000011407004+50930+003730FM-12+006099999V0202201N00301012601MN0003001N1+00181+00151101911ADDAY151999AY241999GA1031+000309079GA2041+012609069GA3061+030009039GF107991051051000251031999MD1310141+9999MW1441OA149999999REMSYN104    AAXX  14071 06428 41003 72203 10018 20015 40191 53014 74454 8553/ 333 83701 84642 86360 91105 91204;EQDQ01  00262WGOSPD
0256064280999992000011408004+50930+003730FM-12+006099999V0202201N00201013501MN0007001N1+00181+00171101961ADDAY151999AY241999GA1041+000309079GA2041+013509069GA3051+027009039GF107991061051000251031999MD1210151+9999MW1501OA149999999REMSYN104    AAXX  14081 06428 41007 72202 10018 20017 40196 52015 75054 8653/ 333 84701 84645 85359 91103 91202;EQDQ01  00152WGOSPD
0237064280999992000011409004+50930+003730FM-12+006099999V0202201N00201027001MN0011001N1+00221+00211102041ADDAY151031AY241031GA1031+000609079GA2031+006909069GA3051+027009039GF107991041051000751031999MD1210191+9999MW1281OA149900261REMSYN104    AAXX  14091 06428 41111 72202 10022 20021 40204 52019 72854 8453/ 333 83702 83623 85359 91105 91204;
