0111110120999992000010100004+48050+014130FM-12+038899999V0200101N000519999999N9999999N1-00301-00451102701ADDAA106000091MA1999999097801REMSYN054AAXX  01004 11012 36/// /0101 11030 21045 39780 40270;EQDQ01  00002PRCP06
0111110120999992000010103004+48050+014130FM-12+038899999V0202201N001519999999N9999999N1-00201-00371102741ADDAA106000091MA1999999097861REMSYN054AAXX  01034 11012 36/// /2203 11020 21037 39786 40274;EQDQ01  00002PRCP06
0227110120999992000010106004+48050+014130FM-12+038899999V0202201N001510150019N0200001N1-00191-00341102771ADDAA106000091AJ100139199999999GF108991081051017501999999IA2999-00609KA1120N-00401MA1999999097891MD1010031+9999REMSYN088AAXX  01064 11012 32770 82203 11019 21034 39789 40277 50003 885// 333 21040 3/106 48013;EQDQ01  00002PRCP06
0153110120999992000010109004+48050+014130FM-12+038899999V0202101N001510210019N0300001N1-00131-00281102831ADDAA106000091GF108991081051022501999999MA1999999097951REMSYN070AAXX  01094 11012 32880 82103 11013 21028 39795 40283 885// 333 55300;EQDQ01  00002PRCP06
0173110120999992000010112004+48050+014130FM-12+038899999V0200901N000510150019N0350001N1+00091-00161102631ADDAA106000091GF108991081051017501999999MA1999999097801MD1810151+9999REMSYN076AAXX  01124 11012 32781 80901 10009 21016 39780 40263 58015 885// 333 55300;EQDQ01  00002PRCP06
0151110120999992000010115004+48050+014130FM-12+038899999V0200301N000510120019N0050001N1+00031-00141102631ADDAY171031AY221031GF108991081061012501999999MA1999999097791MW1701REMSYN076AAXX  01154 11012 41650 80301 10003 21014 39779 40263 77072 886// 333 55300;
0201110120999992000010118004+48050+014130FM-12+038899999V0202401N001510120019N0050001N1+00081+00021102541ADDAA112002091AY171061AY221061GF108991081051012501999999KA1999M+00131MA1999999097721MD1710071+9999MW1701REMSYN088AAXX  01184 11012 11650 82403 10008 20002 39772 40254 57007 60022 77072 885// 333 10013;
0108110120999992000010121004+48050+014130FM-12+038899999V0202501N001519999999N9999999N1+00101+00041102511ADDAA103003091MA1999999097691REMSYN070AAXX  01214 11012 2//// /2503 10010 20004 39769 40251 74044 333 60037;
0104110120999992000010200004+48050+014130FM-12+038899999V0202401N002619999999N9999999N1+00121+00061102541ADDAA106005191MA1999999097721REMSYN066AAXX  02004 11012 1//// /2405 10012 20006 39772 40254 60051 74044;
0108110120999992000010203004+48050+014130FM-12+038899999V0202301N002119999999N9999999N1+00071+00031102671ADDAA103003091MA1999999097841REMSYN070AAXX  02034 11012 2//// /2304 10007 20003 39784 40267 7404/ 333 60037;
0236110120999992000010206004+48050+014130FM-12+038899999V0202401N003110150019N0050001N1+00171+00091102871ADDAA112008991AJ100149199999999AL10600191GF108991081051017501999999IA1249IA2999+00009KA1120N+00071MA1999999098051MD1210211+9999REMSYN100AAXX  02064 11012 13750 82406 10017 20009 39805 40287 52021 60092 885// 333 20007 3/000 48014 93101;
0168110120999992000010209004+48050+014130FM-12+038899999V0202401N003110210019N0070001N1+00181+00091103131ADDAA103001091AY171031AY221031GF108991081051022501999999MA1999999098301MW1231REMSYN082AAXX  02094 11012 21857 82406 10018 20009 39830 40313 72372 885// 333 55300 69997;
0160110120999992000010212004+48050+014130FM-12+038899999V0202501N003110210019N0100001N1+00291+00101103151ADDAA106001091GF107991071061022501001001MA1999999098331MD1310031+9999REMSYN082AAXX  02124 11012 13860 72506 10029 20010 39833 40315 53003 69991 87600 333 55300;
0134110120999992000010215004+48050+014130FM-12+038899999V0202601N001512200019N0230001N1+00291+00091103161ADDAA106000021GF103991021011017501001061MA1999999098341REMSYN070AAXX  02154 11012 32773 32603 10029 20009 39834 40316 82106 333 55307;
0173110120999992000010218004+48050+014130FM-12+038899999V0202501N002112200019N0050001N1+00071-00031103251ADDAA112001091GF104991021011017501001061KA1999M+00341MA1999999098391MD1010051+9999REMSYN082AAXX  02184 11012 13750 42504 10007 21003 39839 40325 50005 69992 82106 333 10034;
0111110120999992000010221004+48050+014130FM-12+038899999V0202201N002119999999N9999999N1-00121-00191103331ADDAA106000091MA1999999098431REMSYN054AAXX  02214 11012 36/// /2204 11012 21019 39843 40333;EQDQ01  00002PRCP06
0111110120999992000010300004+48050+014130FM-12+038899999V0202201N001519999999N9999999N1-00171-00271103251ADDAA106000091MA1999999098351REMSYN054AAXX  03004 11012 36/// /2203 11017 21027 39835 40325;EQDQ01  00002PRCP06
0111110120999992000010303004+48050+014130FM-12+038899999V0202201N002119999999N9999999N1-00281-00371103221ADDAA106000091MA1999999098301REMSYN054AAXX  03034 11012 36/// /2204 11028 21037 39830 40322;EQDQ01  00002PRCP06
0227110120999992000010306004+48050+014130FM-12+038899999V0202301N001510360019N0150001N1-00351-00441103161ADDAA106000091AJ100099199999999GF106991031051022501061001IA2999-00709KA1120N-00401MA1999999098231MD1610071+9999REMSYN088AAXX  03064 11012 32865 62303 11035 21044 39823 40316 56007 83560 333 21040 3/107 43009;EQDQ01  00002PRCP06
0153110120999992000010309004+48050+014130FM-12+038899999V0202301N001010120019N0100001N1-00251-00321103191ADDAA106000091GF108991081051012501999999MA1999999098281REMSYN070AAXX  03094 11012 32660 82302 11025 21032 39828 40319 885// 333 55300;EQDQ01  00002PRCP06
0121110120999992000010312004+48050+014130FM-12+038899999V0202301N001019999999N9999999N1-00111-00181103111ADDAA106000091MA1999999098231REMSYN064AAXX  03124 11012 36/// /2302 11011 21018 39823 40311 333 55300;EQDQ01  00002PRCP06
0121110120999992000010315004+48050+014130FM-12+038899999V0202401N001019999999N9999999N1-00221-00271103021ADDAA106000091MA1999999098121REMSYN064AAXX  03154 11012 36/// /2402 11022 21027 39812 40302 333 55301;EQDQ01  00002PRCP06
0134110120999992000010318004+48050+014130FM-12+038899999V0202601N001019999999N9999999N1-00131-00221103031ADDAA106000091KA1999M-00111MA1999999098151REMSYN064AAXX  03184 11012 36/// /2602 11013 21022 39815 40303 333 11011;EQDQ01  00002PRCP06
0111110120999992000010321004+48050+014130FM-12+038899999V0202401N001519999999N9999999N1-00081-00191103001ADDAA106000091MA1999999098131REMSYN054AAXX  03214 11012 36/// /2403 11008 21019 39813 40300;EQDQ01  00002PRCP06
0111110120999992000010400004+48050+014130FM-12+038899999V0202201N001519999999N9999999N1-00071-00171102911ADDAA106000091MA1999999098041REMSYN054AAXX  04004 11012 36/// /2203 11007 21017 39804 40291;EQDQ01  00002PRCP06
0111110120999992000010403004+48050+014130FM-12+038899999V0202401N001019999999N9999999N1-00111-00221102771ADDAA106000091MA1999999097901REMSYN054AAXX  04034 11012 36/// /2402 11011 21022 39790 40277;EQDQ01  00002PRCP06
0153110120999992000010409004+48050+014130FM-12+038899999V0201901N001510150019N0100001N1-00131-00261102831ADDAA106000091GF108991081001017501071999MA1999999097951REMSYN070AAXX  04094 11012 32760 81903 11013 21026 39795 40283 8807/ 333 55300;EQDQ01  00002PRCP06
0121110120999992000010412004+48050+014130FM-12+038899999V0202401N001519999999N9999999N1+00131-00161102641ADDAA106000091MA1999999097821REMSYN064AAXX  04124 11012 36/// /2403 10013 21016 39782 40264 333 55310;EQDQ01  00002PRCP06
0121110120999992000010415004+48050+014130FM-12+038899999V0200601N001019999999N9999999N1+00181-00101102471ADDAA106000091MA1999999097671REMSYN064AAXX  04154 11012 36/// /0602 10018 21010 39767 40247 333 55310;EQDQ01  00002PRCP06
0202110120999992000010418004+48050+014130FM-12+038899999V0201901N000512200019N0200001N1-00101-00221102481ADDAA106000091GF101991001001999999001011KA1999M+00291MA1999999097631MD1710041+9999REMSYN076AAXX  04184 11012 32970 11901 11010 21022 39763 40248 57004 81001 333 10029;EQDQ01+000012SCOTLCQ02  00002PRCP06
0111110120999992000010421004+48050+014130FM-12+038899999V0200401N000519999999N9999999N1-00201-00271102411ADDAA106000091MA1999999097541REMSYN054AAXX  04214 11012 36/// /0401 11020 21027 39754 40241;EQDQ01  00002PRCP06
0111110120999992000010500004+48050+014130FM-12+038899999V0202501N001519999999N9999999N1+00001-00151102311ADDAA106000091MA1999999097481REMSYN054AAXX  05004 11012 36/// /2503 10000 21015 39748 40231;EQDQ01  00002PRCP06
0102110120999992000010503004+48050+014130FM-12+038899999V0202601N002119999999N9999999N1+00421+00221102211ADDAA103000391MA1999999097461REMSYN064AAXX  05034 11012 26/// /2604 10042 20022 39746 40221 333 69937;
0242110120999992000010506004+48050+014130FM-12+038899999V0202301N002610150019N0100001N1+00471+00341102211ADDAA112002091AJ100069199999999AY161061AY221061GF108991081051017501999999IA2999-00609KA1120N-00221MA1999999097471MD1310011+9999MW1621REMSYN100AAXX  05064 11012 11760 82305 10047 20034 39747 40221 53001 60022 76262 885// 333 21022 3/106 43006;
0114110120999992000010509004+48050+014130FM-12+038899999V0202301N002619999999N9999999N1+00521+00371102421ADDAA103000191MA1999999097681REMSYN076AAXX  05094 11012 2//// /2305 10052 20037 39768 40242 7404/ 333 55300 69917;
0108110120999992000010512004+48050+014130FM-12+038899999V0202401N002619999999N9999999N1+00591+00301102521ADDAA106000191MA1999999097791REMSYN070AAXX  05124 11012 16/// /2405 10059 20030 39779 40252 69911 333 55300;
0121110120999992000010515004+48050+014130FM-12+038899999V0202601N002119999999N9999999N1+00521+00291102581ADDAA106000091MA1999999097831REMSYN064AAXX  05154 11012 36/// /2604 10052 20029 39783 40258 333 55300;EQDQ01  00002PRCP06
0173110120999992000010518004+48050+014130FM-12+038899999V0202101N000510150019N0200001N1+00291+00201102621ADDAA112000191GF108991081001017501071999KA1999M+00611MA1999999097831MD1010001+9999REMSYN082AAXX  05184 11012 13770 82101 10029 20020 39783 40262 50000 69912 8807/ 333 10061;
0179110120999992000010521004+48050+014130FM-12+038899999V0200201N00101000601CN0027001N1+00111+00101102711ADDAY111031AY211031GA1011+000909079GF105991051051000751001001MA1999999098812MW1101REMSYN088AAXX  05214 11012 41127 50202 10011 20010 39881 40271 5/001 71011 85500 333 81703 85650;
0111110120999992000010603004+48050+014130FM-12+038899999V0200301N000519999999N9999999N1-00101-00101102561ADDAA106000091MA1999999097701REMSYN054AAXX  06034 11012 36/// /0301 11010 21010 39770 40256;EQDQ01  00002PRCP06
0265110120999992000010606004+48050+014130FM-12+038899999V0200301N001010003019N0005001N1-00171-00181102471ADDAA106000091AJ100049199999999AY141061AY241061GA1091+999999999GF109991091999999999999999IA2999-00209KA1120N-00181MA1999999097611MD1510091+9999MW1451REMSYN088AAXX  06064 11012 31105 90302 11017 21018 39761 40247 55009 74544 333 21018 3/102 42004;EQDQ01  00002PRCP06
0191110120999992000010609004+48050+014130FM-12+038899999V0202001N000510003019N0003001N1-00121-00121102511ADDAA106000091AY141031AY241031GA1091+999999999GF109991091999999999999999MA1999999097651MW1451REMSYN070AAXX  06094 11012 31003 92001 11012 21012 39765 40251 74544 333 55300;EQDQ01  00002PRCP06
0211110120999992000010612004+48050+014130FM-12+038899999V0202001N000510006019N0007001N1-00041-00041102501ADDAA106000091AY141061AY241061GA1091+999999999GF109991091999999999999999MA1999999097661MD1010011+9999MW1431REMSYN076AAXX  06124 11012 31107 92001 11004 21004 39766 40250 50001 74344 333 55300;EQDQ01  00002PRCP06
0153110120999992000010615004+48050+014130FM-12+038899999V0201501N000510006019N0050001N1-00131-00141102571ADDAA106000091GF108991081061000751999999MA1999999097711REMSYN070AAXX  06154 11012 32150 81501 11013 21014 39771 40257 886// 333 55300;EQDQ01  00002PRCP06
0111110120999992000010621004+48050+014130FM-12+038899999V0201901N001019999999N9999999N1-00191-00201102661ADDAA106000091MA1999999097781REMSYN054AAXX  06214 11012 36/// /1902 11019 21020 39778 40266;EQDQ01  00002PRCP06
0111110120999992000010700004+48050+014130FM-12+038899999V0201601N000519999999N9999999N1-00161-00161102731ADDAA106000091MA1999999097851REMSYN054AAXX  07004 11012 36/// /1601 11016 21016 39785 40273;EQDQ01  00002PRCP06
0111110120999992000010703004+48050+014130FM-12+038899999V0201901N000519999999N9999999N1-00151-00151102781ADDAA106000091MA1999999097901REMSYN054AAXX  07034 11012 36/// /1901 11015 21015 39790 40278;EQDQ01  00002PRCP06
0227110120999992000010706004+48050+014130FM-12+038899999V0201901N001010150019N0100001N1-00201-00221102881ADDAA106000091AJ100029199999999GF108991081051017501999999IA2999-00209KA1120N-00211MA1999999097991MD1010091+9999REMSYN088AAXX  07064 11012 32760 81902 11020 21022 39799 40288 50009 885// 333 21021 3/102 42002;EQDQ01  00002PRCP06
0191110120999992000010709004+48050+014130FM-12+038899999V0200701N000510006019N0008001N1-00141-00151102951ADDAA106000091AY141031AY221031GA1091+999999999GF109991091999999999999999MA1999999098071MW1471REMSYN070AAXX  07094 11012 31/08 90701 11014 21015 39807 40295 74742 333 55300;EQDQ01  00002PRCP06
0201110120999992000010712004+48050+014130FM-12+038899999V0201801N000519999999N0025001N1-00021-00021102801ADDAA106000091AY121061AY221061GF107991001001999999001021MA1999999097951MD1810121+9999MW1101REMSYN082AAXX  07124 11012 31925 71801 11002 21002 39795 40280 58012 71022 80002 333 55302;EQDQ01  00002PRCP06
0121110120999992000010715004+48050+014130FM-12+038899999V0209999C000019999999N9999999N1+00031+00021102801ADDAA106000091MA1999999097961REMSYN064AAXX  07154 11012 36/// /0000 10003 20002 39796 40280 333 55300;EQDQ01  00002PRCP06
0134110120999992000010718004+48050+014130FM-12+038899999V0209999C000019999999N9999999N1-00121-00121102781ADDAA106000091KA1999M+00041MA1999999097911REMSYN064AAXX  07184 11012 36/// /0000 11012 21012 39791 40278 333 10004;EQDQ01  00002PRCP06
0111110120999992000010721004+48050+014130FM-12+038899999V0200901N000519999999N9999999N1-00131-00131102711ADDAA106000091MA1999999097841REMSYN054AAXX  07214 11012 36/// /0901 11013 21013 39784 40271;EQDQ01  00002PRCP06
0111110120999992000010800004+48050+014130FM-12+038899999V0201201N001019999999N9999999N1-00181-00181102641ADDAA106000091MA1999999097771REMSYN054AAXX  08004 11012 36/// /1202 11018 21018 39777 40264;EQDQ01  00002PRCP06
0111110120999992000010803004+48050+014130FM-12+038899999V0200301N000519999999N9999999N1-00261-00261102651ADDAA106000091MA1999999097761REMSYN054AAXX  08034 11012 36/// /0301 11026 21026 39776 40265;EQDQ01  00002PRCP06
0265110120999992000010806004+48050+014130FM-12+038899999V0201601N001010001519N0001001N1-00251-00261102681ADDAA106000091AJ100029199999999AY141061AY241061GA1091+999999999GF109991091999999999999999IA2999-00209KA1120N-00271MA1999999097791MD1210031+9999MW1451REMSYN088AAXX  08064 11012 31/01 91602 11025 21026 39779 40268 52003 74544 333 21027 3/102 42002;EQDQ01  00002PRCP06
0121110120999992000010809004+48050+014130FM-12+038899999V0201601N000519999999N9999999N1-00281-00291102791ADDAA106000091MA1999999097891REMSYN064AAXX  08094 11012 36/// /1601 11028 21029 39789 40279 333 55300;EQDQ01  00002PRCP06
0211110120999992000010812004+48050+014130FM-12+038899999V0200301N000510003019N0003001N1-00201-00221102721ADDAA106000091AY141061AY241061GA1091+999999999GF109991091999999999999999MA1999999097841MD1810061+9999MW1451REMSYN076AAXX  08124 11012 31103 90301 11020 21022 39784 40272 58006 74544 333 55300;EQDQ01  00002PRCP06
0191110120999992000010815004+48050+014130FM-12+038899999V0201301N001010003019N0002001N1-00221-00231102711ADDAA106000091AY141031AY241031GA1091+999999999GF109991091999999999999999MA1999999097821MW1451REMSYN070AAXX  08154 11012 31102 91302 11022 21023 39782 40271 74544 333 55300;EQDQ01  00002PRCP06
0224110120999992000010818004+48050+014130FM-12+038899999V0200501N000510003019N0002001N1-00261-00271102731ADDAA106000091AY141061AY241061GA1091+999999999GF109991091999999999999999KA1999M-00181MA1999999097841MD1010021+9999MW1451REMSYN076AAXX  08184 11012 31/02 90501 11026 21027 39784 40273 50002 74544 333 11018;EQDQ01  00002PRCP06
0111110120999992000010821004+48050+014130FM-12+038899999V0200501N000519999999N9999999N1-00291-00311102761ADDAA106000091MA1999999097861REMSYN054AAXX  08214 11012 36/// /0501 11029 21031 39786 40276;EQDQ01  00002PRCP06
0111110120999992000010900004+48050+014130FM-12+038899999V0200401N000519999999N9999999N1-00341-00361102701ADDAA106000091MA1999999097791REMSYN054AAXX  09004 11012 36/// /0401 11034 21036 39779 40270;EQDQ01  00002PRCP06
0111110120999992000010903004+48050+014130FM-12+038899999V0200401N000519999999N9999999N1-00371-00391102671ADDAA106000091MA1999999097761REMSYN054AAXX  09034 11012 36/// /0401 11037 21039 39776 40267;EQDQ01  00002PRCP06
0191110120999992000010909004+48050+014130FM-12+038899999V0201001N001010003019N0004001N1-00421-00441102711ADDAA106000091AY141031AY241031GA1091+999999999GF109991091999999999999999MA1999999097791MW1451REMSYN070AAXX  09094 11012 31/04 91002 11042 21044 39779 40271 74544 333 55300;EQDQ01  00002PRCP06
0211110120999992000010912004+48050+014130FM-12+038899999V0200401N001010003019N0004001N1-00391-00421102641ADDAA106000091AY141061AY241061GA1091+999999999GF109991091999999999999999MA1999999097731MD1810061+9999MW1451REMSYN076AAXX  09124 11012 31/04 90402 11039 21042 39773 40264 58006 74544 333 55300;EQDQ01  00002PRCP06
0121110120999992000010915004+48050+014130FM-12+038899999V0200701N001019999999N9999999N1-00391-00431102691ADDAA106000091MA1999999097771REMSYN064AAXX  09154 11012 36/// /0702 11039 21043 39777 40269 333 55300;EQDQ01  00002PRCP06
0224110120999992000010918004+48050+014130FM-12+038899999V0200601N000510001519N0001001N1-00371-00391102821ADDAA106000091AY141061AY241061GA1091+999999999GF109991091999999999999999KA1999M-00351MA1999999097901MD1210131+9999MW1451REMSYN076AAXX  09184 11012 31/01 90601 11037 21039 39790 40282 52013 74544 333 11035;EQDQ01  00002PRCP06
0111110120999992000010921004+48050+014130FM-12+038899999V0200601N001019999999N9999999N1-00391-00431102941ADDAA106000091MA1999999098011REMSYN054AAXX  09214 11012 36/// /0602 11039 21043 39801 40294;EQDQ01  00002PRCP06
0111110120999992000011000004+48050+014130FM-12+038899999V0200801N001019999999N9999999N1-00381-00421103081ADDAA106000091MA1999999098151REMSYN054AAXX  10004 11012 36/// /0802 11038 21042 39815 40308;EQDQ01  00002PRCP06
0111110120999992000011003004+48050+014130FM-12+038899999V0200801N000519999999N9999999N1-00371-00401103191ADDAA106000091MA1999999098251REMSYN054AAXX  10034 11012 36/// /0801 11037 21040 39825 40319;EQDQ01  00002PRCP06
0255110120999992000011006004+48050+014130FM-12+038899999V0200401N001510075019N0030001N1-00351-00391103291ADDAA106000091AJ199992999999999GF107991071051008001999999IA1309IA2999-00409KA1120N-00401MA1999999098351MD1310101+9999REMSYN094AAXX  10064 11012 32530 70403 11035 21039 39835 40329 53010 875// 333 21040 3/104 42998 92610;EQDQ01  00002PRCP06Q02  09972SNDP  
0121110120999992000011009004+48050+014130FM-12+038899999V0203501N000519999999N9999999N1-00301-00341103471ADDAA106000091MA1999999098531REMSYN064AAXX  10094 11012 36/// /3501 11030 21034 39853 40347 333 55300;EQDQ01  00002PRCP06
0121110120999992000011012004+48050+014130FM-12+038899999V0201201N001019999999N9999999N1-00201-00231103491ADDAA106000091MA1999999098571REMSYN064AAXX  10124 11012 36/// /1202 11020 21023 39857 40349 333 55300;EQDQ01  00002PRCP06
0121110120999992000011015004+48050+014130FM-12+038899999V0209999C000019999999N9999999N1-00171-00201103561ADDAA106000091MA1999999098641REMSYN064AAXX  10154 11012 36/// /0000 11017 21020 39864 40356 333 55300;EQDQ01  00002PRCP06
0201110120999992000011018004+48050+014130FM-12+038899999V0200501N000519999999N0050001N1-00151-00171103661ADDAA112000791AY171061AY221061GF108991081001012501071999KA1999M-00151MA1999999098741MD1110101+9999MW1221REMSYN088AAXX  10184 11012 11650 80501 11015 21017 39874 40366 51010 69902 72272 8807/ 333 11015;
0092110120999992000011021004+48050+014130FM-12+038899999V0200301N001519999999N9999999N1-00161-00181103741ADDAA106000021MA1999999098821REMSYN054AAXX  10214 11012 36/// /0303 11016 21018 39882 40374;
0092110120999992000011100004+48050+014130FM-12+038899999V0200301N001519999999N9999999N1-00151-00171103781ADDAA106000021MA1999999098861REMSYN054AAXX  11004 11012 36/// /0303 11015 21017 39886 40378;
0126110120999992000011101004+48050+014130FM-15+038899999V02099999999992200019N0047001N1+99999+99999999999ADDMW1001REMMET0730127Z RTD KNJK 110055Z 00000KT 7SM SKC 18/M01 A3000 RMK SLP159 T01751013;EQDQ01+101593APOSLPQ02+000000PRSWM2
0111110120999992000011103004+48050+014130FM-12+038899999V0200601N002119999999N9999999N1-00051-00071103791ADDAA106000091MA1999999098881REMSYN054AAXX  11034 11012 36/// /0604 11005 21007 39888 40379;EQDQ01  00002PRCP06
0271110120999992000011106004+48050+014130FM-12+038899999V0200501N002110075019N0020001N1-00091-00121103891ADDAA112000791AJ199992999999999AL10699999AL29999999GF108991081051008001999999IA1309IA2999-00209KA1120N-00181MA1999999098971MD1210091+9999REMSYN106AAXX  11064 11012 13520 80504 11009 21012 39897 40389 52009 69902 885// 333 21018 3/102 42998 93197 92610;EQDQ01  09972SNDP  
0159110120999992000011109004+48050+014130FM-12+038899999V0200401N002110150019N0100001N1-00111-00181104001ADDAA106000091GF108991081001017501071999MA1999999099071REMSYN076AAXX  11094 11012 32760 80404 11011 21018 39907 40400 8807/ 333 55300 92600;EQDQ01  00002PRCP06
0173110120999992000011112004+48050+014130FM-12+038899999V0200501N002110150019N0150001N1-00061-00181103981ADDAA106000091GF108991081001017501031999MA1999999099061MD1810011+9999REMSYN076AAXX  11124 11012 32765 80504 11006 21018 39906 40398 58001 8803/ 333 55300;EQDQ01  00002PRCP06
0153110120999992000011115004+48050+014130FM-12+038899999V0200301N001510150019N0150001N1-00081-00221103941ADDAA106000091GF106991061001017501031999MA1999999099021REMSYN070AAXX  11154 11012 32765 60303 11008 21022 39902 40394 8603/ 333 55300;EQDQ01  00002PRCP06
0202110120999992000011118004+48050+014130FM-12+038899999V0200401N001010150019N0150001N1-00231-00341103971ADDAA106000091GF105991051001017501031999KA1999M-00031MA1999999099021MD1210031+9999REMSYN076AAXX  11184 11012 32765 50402 11023 21034 39902 40397 52000 8503/ 333 11003;EQDQ01+000002APC3  Q02  00002PRCP06
0111110120999992000011121004+48050+014130FM-12+038899999V0200301N001519999999N9999999N1-00281-00411104011ADDAA106000091MA1999999099051REMSYN054AAXX  11214 11012 36/// /0303 11028 21041 39905 40401;EQDQ01  00002PRCP06
0111110120999992000011200004+48050+014130FM-12+038899999V0200301N000519999999N9999999N1-00361-00451103921ADDAA106000091MA1999999098951REMSYN054AAXX  12004 11012 36/// /0301 11036 21045 39895 40392;EQDQ01  00002PRCP06
0111110120999992000011203004+48050+014130FM-12+038899999V0200301N001519999999N9999999N1-00461-00531103811ADDAA106000091MA1999999098831REMSYN054AAXX  12034 11012 36/// /0303 11046 21053 39883 40381;EQDQ01  00002PRCP06
0255110120999992000011206004+48050+014130FM-12+038899999V0200601N001010075019N0025001N1-00491-00561103741ADDAA106000091AJ199992999999999GF108991081051008001999999IA1309IA2999-00809KA1120N-00491MA1999999098761MD1610071+9999REMSYN094AAXX  12064 11012 32525 80602 11049 21056 39876 40374 56007 885// 333 21049 3/108 42998 92610;EQDQ01  00002PRCP06Q02  09972SNDP  
0153110120999992000011209004+48050+014130FM-12+038899999V0200301N001510120019N0100001N1-00531-00621103741ADDAA106000091GF108991081051012501999999MA1999999098751REMSYN070AAXX  12094 11012 32660 80303 11053 21062 39875 40374 885// 333 55300;EQDQ01  00002PRCP06
0121110120999992000011212004+48050+014130FM-12+038899999V0200501N001519999999N9999999N1-00501-00571103581ADDAA106000091MA1999999098601REMSYN064AAXX  12124 11012 36/// /0503 11050 21057 39860 40358 333 55300;EQDQ01  00002PRCP06
0121110120999992000011215004+48050+014130FM-12+038899999V0200601N002119999999N9999999N1-00521-00601103471ADDAA106000091MA1999999098491REMSYN064AAXX  12154 11012 36/// /0604 11052 21060 39849 40347 333 55300;EQDQ01  00002PRCP06
0186110120999992000011218004+48050+014130FM-12+038899999V0200901N002610120019N0050001N1-00431-00551103311ADDAA106000091GF108991081001012501021999KA1999M-00431MA1999999098361MD1710131+9999REMSYN076AAXX  12184 11012 32650 80905 11043 21055 39836 40331 57013 8802/ 333 11043;EQDQ01  00002PRCP06
0111110120999992000011221004+48050+014130FM-12+038899999V0201001N002119999999N9999999N1-00431-00551103191ADDAA106000091MA1999999098241REMSYN054AAXX  12214 11012 36/// /1004 11043 21055 39824 40319;EQDQ01  00002PRCP06
0111110120999992000011300004+48050+014130FM-12+038899999V0200801N002119999999N9999999N1-00491-00641103061ADDAA106000091MA1999999098111REMSYN054AAXX  13004 11012 36/// /0804 11049 21064 39811 40306;EQDQ01  00002PRCP06
0111110120999992000011303004+48050+014130FM-12+038899999V0200701N001019999999N9999999N1-00541-00691102891ADDAA106000091MA1999999097941REMSYN054AAXX  13034 11012 36/// /0702 11054 21069 39794 40289;EQDQ01  00002PRCP06
0227110120999992000011306004+48050+014130FM-12+038899999V0200501N001510120019N0030001N1-00611-00731102821ADDAA106000091AJ100009199999999GF108991081051012501999999IA2999-00609KA1120N-00621MA1999999097861MD1610081+9999REMSYN088AAXX  13064 11012 32630 80503 11061 21073 39786 40282 56008 885// 333 21062 3/106 42998;EQDQ01  00002PRCP06
0153110120999992000011309004+48050+014130FM-12+038899999V0200401N001010150019N0100001N1-00671-00781102831ADDAA106000091GF108991081001017501021999MA1999999097861REMSYN070AAXX  13094 11012 32760 80402 11067 21078 39786 40283 8802/ 333 55300;EQDQ01  00002PRCP06
0121110120999992000011312004+48050+014130FM-12+038899999V0200701N001519999999N9999999N1-00661-00821102711ADDAA106000091MA1999999097741REMSYN064AAXX  13124 11012 36/// /0703 11066 21082 39774 40271 333 55300;EQDQ01  00002PRCP06
0153110120999992000011315004+48050+014130FM-12+038899999V0200601N001510150019N0100001N1-00621-00801102581ADDAA106000091GF108991081001017501011999MA1999999097631REMSYN070AAXX  13154 11012 32760 80603 11062 21080 39763 40258 8801/ 333 55300;EQDQ01  00002PRCP06
0134110120999992000011318004+48050+014130FM-12+038899999V0209999C000019999999N9999999N1-00671-00801102591ADDAA106000091KA1999M-00601MA1999999097631REMSYN064AAXX  13184 11012 36/// /0000 11067 21080 39763 40259 333 11060;EQDQ01  00002PRCP06
0115110120999992000011321004+48050+014130FM-12+038899999V0201101N001019999999N9999999N1-00611-00751102541ADDAA199000091MA1999999097591REMSYN058    AAXX  13214 11012 36/// /1102 11061 21075 39759 40254;EQDQ01  00002PRCP99
0115110120999992000011400004+48050+014130FM-12+038899999V0202001N000519999999N9999999N1-00651-00771102551ADDAA199000091MA1999999097591REMSYN058    AAXX  14004 11012 36/// /2001 11065 21077 39759 40255;EQDQ01  00002PRCP99
0115110120999992000011403004+48050+014130FM-12+038899999V0201101N001019999999N9999999N1-00691-00781102571ADDAA199000091MA1999999097601REMSYN058    AAXX  14034 11012 36/// /1102 11069 21078 39760 40257;EQDQ01  00002PRCP99
0259110120999992000011406004+48050+014130FM-12+038899999V0200701N000510075019N0010001N1-00781-00851102671ADDAA112000791AJ100009199999999AY121061AY221061GF108991081051008001999999IA2999-00709KA1120N-00781MA1999999097681MD1210081+9999REMSYN104    AAXX  14064 11012 11510 80701 11078 21085 39768 40267 52008 69902 75022 885// 333 21078 3/107 42998;EQDQ01+000502PRSWM1
0165110120999992000011409004+48050+014130FM-12+038899999V0200301N001010006019N0008001N1-00791-00871102781ADDAY141031AY221031GA1091+999999999GF109991091999999999999999MA1999999097791MW1771REMSYN074    AAXX  14094 11012 41/08 90302 11079 21087 39779 40278 77742 333 55300;
0106110120999992000011412004+48050+014130FM-12+038899999V0201101N001019999999N9999999N1-00731-00831102731ADDAA199000021MA1999999097751REMSYN068    AAXX  14124 11012 36/// /1102 11073 21083 39775 40273 333 55300;
0106110120999992000011415004+48050+014130FM-12+038899999V0200901N001519999999N9999999N1-00731-00831102741ADDAA199000021MA1999999097761REMSYN068    AAXX  14154 11012 36/// /0903 11073 21083 39776 40274 333 55300;
0211110120999992000011418004+48050+014130FM-12+038899999V0201501N000510075019N0030001N1-00651-00731102801ADDAA112000791AY121061AY221061GF108991081051008001999999KA1120M-00651MA1999999097831MD1210071+9999MW1101REMSYN098    AAXX  14184 11012 11530 81501 11065 21073 39783 40280 52007 69902 71022 885// 333 11065 92600;
0096110120999992000011421004+48050+014130FM-12+038899999V0200901N002119999999N9999999N1-00611-00671102931ADDAA199000021MA1999999097961REMSYN058    AAXX  14214 11012 36/// /0904 11061 21067 39796 40293;
0115110120999992000011500004+48050+014130FM-12+038899999V0201001N002119999999N9999999N1-00561-00631102991ADDAA199000091MA1999999098031REMSYN058    AAXX  15004 11012 36/// /1004 11056 21063 39803 40299;EQDQ01  00002PRCP99
0115110120999992000011503004+48050+014130FM-12+038899999V0200801N001519999999N9999999N1-00571-00641103061ADDAA199000091MA1999999098091REMSYN058    AAXX  15034 11012 36/// /0803 11057 21064 39809 40306;EQDQ01  00002PRCP99
0156110120999992000011506004+48050+014130FM-12+038899999V0201601N000519999999N9999999N1-00611-00701103131ADDAA199000091IA2999-00609KA1120N-00681MA1999999098151REMSYN074    AAXX  15064 11012 36/// /1601 11061 21070 39815 40313 333 21068 3/106;EQDQ01  00002PRCP99
0157110120999992000011509004+48050+014130FM-12+038899999V0202301N000510120019N0040001N1-00631-00731103311ADDAA199000091GF108991081051012501999999MA1999999098321REMSYN074    AAXX  15094 11012 32640 82301 11063 21073 39832 40331 885// 333 55300;EQDQ01  00002PRCP99
0192110120999992000011512004+48050+014130FM-12+038899999V0201801N001010120019N0030001N1-00501-00611103271ADDAA106000791AY171061AY221061GF108991081061012501999999MA1999999098311MD1810011+9999MW1241REMSYN092    AAXX  15124 11012 11630 81802 11050 21061 39831 40327 58001 69901 72472 886// 333 55300;
0138110120999992000011515004+48050+014130FM-12+038899999V0202001N001510075019N0030001N1-00481-00601103281ADDAA199000021GF108991081061008001999999MA1999999098321REMSYN074    AAXX  15154 11012 32530 82003 11048 21060 39832 40328 886// 333 55300;
0177110120999992000011518004+48050+014130FM-12+038899999V0202401N000510075019N0030001N1-00411-00501103351ADDAA112000791GF108991081061008001999999KA1999M-00411MA1999999098401MD1110081+9999REMSYN086    AAXX  15184 11012 13530 82401 11041 21050 39840 40335 51008 69902 886// 333 11041;
0096110120999992000011521004+48050+014130FM-12+038899999V0202801N000519999999N9999999N1-00401-00491103341ADDAA199000021MA1999999098391REMSYN058    AAXX  15214 11012 36/// /2801 11040 21049 39839 40334;
0096110120999992000011600004+48050+014130FM-12+038899999V0202501N001019999999N9999999N1-00421-00501103371ADDAA199000021MA1999999098421REMSYN058    AAXX  16004 11012 36/// /2502 11042 21050 39842 40337;
0112110120999992000011603004+48050+014130FM-12+038899999V0202301N001019999999N9999999N1-00421-00541103441ADDAA103000191MA1999999098481REMSYN074    AAXX  16034 11012 2//// /2302 11042 21054 39848 40344 740// 333 69927;
0143110120999992000011606004+48050+014130FM-12+038899999V0202001N000519999999N9999999N1-00401-00511103481ADDAA112000191IA2999-00509KA1120N-00441MA1999999098521REMSYN080    AAXX  16064 11012 16/// /2001 11040 21051 39852 40348 69922 333 21044 3/105;
0172110120999992000011609004+48050+014130FM-12+038899999V0202501N001010075019N0030001N1-00351-00501103561ADDAA103000191AY171031AY271031GF108991081051008001999999MA1999999098611MW1731REMSYN086    AAXX  16094 11012 21530 82502 11035 21050 39861 40356 77377 885// 333 55300 69927;
0192110120999992000011612004+48050+014130FM-12+038899999V0202501N001010075019N0030001N1-00251-00401103531ADDAA106000191AY171061AY221061GF108991081051008001999999MA1999999098601MD1810011+9999MW1221REMSYN092    AAXX  16124 11012 11530 82502 11025 21040 39860 40353 58001 69921 72272 885// 333 55300;
0138110120999992000011615004+48050+014130FM-12+038899999V0202601N001010075019N0050001N1-00231-00381103401ADDAA199000021GF108991051061008001051999MA1999999098481REMSYN074    AAXX  16154 11012 32550 82602 11023 21038 39848 40340 8565/ 333 55300;
0177110120999992000011618004+48050+014130FM-12+038899999V0202401N002110075019N0050001N1-00341-00451103521ADDAA112000191GF107991061061008001051999KA1999M-00221MA1999999098571MD1310091+9999REMSYN086    AAXX  16184 11012 13550 72404 11034 21045 39857 40352 53009 69922 8665/ 333 11022;
0111110120999992000011801004+48050+014130FM-16+038899999V02099999999992200019N0200001N1+99999+99999999999ADDMW1001REMMET0740123Z KPAO 180118KT 05006KT 4SM -RA BR OVC009 11/10 A3011 RMK VSBY WEST 1;EQDQ01+000000PRSWM2
0130110120999992000011812004+48050+014130FM-12+038899999V0202601N007719999999N9999999N1+00521+00171100671ADDAA106000591MA1999999096011REMSYN092    AAXX  18124 11012 1//// /2615 10052 20017 39601 40067 69951 7404/ 333 55300 90400 91125;
0184110120999992000011815004+48050+014130FM-12+038899999V0202701N005110120019N0200001N1+00371+00121101011ADDAA103001091AY161031AY221031GF108991081071012501999999MA1999999096311MW1601REMSYN098    AAXX  18154 11012 21670 82710 10037 20012 39631 40101 76062 887// 333 55300 69997 90428 91128;
0189110120999992000011818004+48050+014130FM-12+038899999V0202801N001512200019N0200001N1+00191-00111101491ADDAA112002091GF104991041001017501041999KA1120M+00521MA1999999096731MD1110421+9999REMSYN098    AAXX  18184 11012 13770 42803 10019 21011 39673 40149 51042 60022 8404/ 333 10052 90458 91128;
0096110120999992000011821004+48050+014130FM-12+038899999V0202601N004119999999N9999999N1+00091-00261101671ADDAA199000021MA1999999096891REMSYN058    AAXX  18214 11012 36/// /2608 10009 21026 39689 40167;
0112110120999992000011903004+48050+014130FM-12+038899999V0202601N004619999999N9999999N1+00091-00281101971ADDAA199000021MA1999999097171REMSYN074    AAXX  19034 11012 36/// /2609 10009 21028 39717 40197 333 90400 91115;
0217110120999992000011912004+48050+014130FM-12+038899999V0202701N003110150019N0180001N1+00051-00431102491ADDAA106000791AY121061AY221061GF107991051081012501081999MA1999999097661MD1010071+9999REMSYN104    AAXX  19124 11012 11668 72706 10005 21043 39766 40249 50007 69901 77822 8588/ 333 55300 90403 91116;EQDQ01+000782PRSWM1
0180110120999992000011915004+48050+014130FM-12+038899999V0202601N003619999999N0100001N1+00021-00361102591ADDAY121031AY211031GF105991051001012501091999MA1999999097751REMSYN092    AAXX  19154 11012 41660 52607 10002 21036 39775 40259 77821 8509/ 333 55300 90425 91116;EQDQ01+000782PRSWM1
0213110120999992000011918004+48050+014130FM-12+038899999V0202501N003119999999N0100001N1-00061-00221102831ADDAA112000791AY171061AY221061GF107991071001012501031999KA1120M+00091MA1999999097971MD1210221+9999MW1781REMSYN100AAXX  19184 11012 11660 72506 11006 21022 39797 40283 52022 69902 77872 8703/ 333 10009 90455 91116;
0108110120999992000011921004+48050+014130FM-12+038899999V0202401N003619999999N9999999N1-00041-00341102981ADDAA199000021MA1999999098111REMSYN070AAXX  19214 11012 36/// /2407 11004 21034 39811 40298 333 90403 91113;
0299110120999992000012006004+48050+014130FM-12+038899999V0202401N002610120019N0050001N1-00091-00341103101ADDAA112000791AJ199993999999999AL10699999AY171061AY221061GF108991081071012501999999IA1229IA2999-00309KA1120N-00141MA1999999098221MD1211052+9999MW1711REMSYN106AAXX  20064 11012 11650 82405 11009 21034 39822 40310 52105 69902 77172 887// 333 21014 3/103 46997 93197;EQDQ01+001052APC3  Q02  09982SNDP  
0162110120999992000012009004+48050+014130FM-12+038899999V0202401N002610150019N0200001N1-00031-00401103091ADDAA199000021AY171031AY211031GF107991071001017501071999MA1999999098221MW1221REMSYN076AAXX  20094 11012 31770 72405 11003 21040 39822 40309 72271 8707/ 333 55305;
0114110120999992000012012004+48050+014130FM-12+038899999V0202401N004119999999N9999999N1+00121-00571102861ADDAA199000021MA1999999098021REMSYN076AAXX  20124 11012 36/// /2408 10012 21057 39802 40286 333 55300 90415 91114;
0146110120999992000012015004+48050+014130FM-12+038899999V0202401N003610150019N0250001N1+00101-00591102651ADDAA199000021GF108991081001017501021999MA1999999097821REMSYN082AAXX  20154 11012 32775 82407 10010 21059 39782 40265 8802/ 333 55300 90424 91117;
0213110120999992000012018004+48050+014130FM-12+038899999V0202401N003610075019N0100001N1-00031-00311102531ADDAA112000791AY171061AY221061GF108991081061008001999999KA1120M+00141MA1999999097691MD1710131+9999MW1711REMSYN100AAXX  20184 11012 11560 82407 11003 21031 39769 40253 57013 69902 77172 886// 333 10014 90421 91118;
0120110120999992000012021004+48050+014130FM-12+038899999V0202401N004619999999N9999999N1-00011-00201102391ADDAA103000191MA1999999097561REMSYN082AAXX  20214 11012 2//// /2409 11001 21020 39756 40239 740// 333 69917 90406 91116;
0287110120999992000012106004+48050+014130FM-12+038899999V0202401N007710075019N0020001N1+00031-00191101571ADDAA112000591AJ100039199999999AL10600391AY171061AY221061GF108991081051008001999999IA1249IA2999-00109KA1120N-00031MA1999999096781MD1610291+9999MW1731OA149901341REMSYN118AAXX  21064 11012 11520 82415 10003 21019 39678 40157 56029 69942 77372 885// 333 21003 3/101 48003 90400 91126 93103;
0176110120999992000012109004+48050+014130FM-12+038899999V0202501N007210075019N0100001N1+00111-00211101461ADDAY171031AY221031GF108991081071008001999999MA1999999096691REMSYN088AAXX  21094 11012 41560 82514 10011 21021 39669 40146 77872 887// 333 55300 90423 91127;EQDQ01+000782PRSWM1
0114110120999992000012112004+48050+014130FM-12+038899999V0202401N007219999999N9999999N1+00091-00071101411ADDAA199000021MA1999999096641REMSYN076AAXX  21124 11012 36/// /2414 10009 21007 39664 40141 333 55300 90410 91127;
0180110120999992000012115004+48050+014130FM-12+038899999V0202701N004110042019N0005001N1+00071-00011101671ADDAA103002091AY171031AY221031GF108991081071004501999999MA1999999096891MW1751REMSYN094AAXX  21154 11012 21405 82708 10007 21001 39689 40167 77572 887// 333 55300 60027 90428 91124;
0092110120999992000012121004+48050+014130FM-12+038899999V0202501N002119999999N9999999N1-00091-00421102281ADDAA199000021MA1999999097441REMSYN054AAXX  21214 11012 36/// /2504 11009 21042 39744 40228;
0104110120999992000012200004+48050+014130FM-12+038899999V0202501N002119999999N9999999N1-00161-00451102371ADDAA106000191MA1999999097511REMSYN066AAXX  22004 11012 1//// /2504 11016 21045 39751 40237 69921 740//;
0102110120999992000012203004+48050+014130FM-12+038899999V0202301N002619999999N9999999N1-00291-00491102231ADDAA103000891MA1999999097351REMSYN064AAXX  22034 11012 26/// /2305 11029 21049 39735 40223 333 69977;
0145110120999992000012206004+48050+014130FM-12+038899999V0202101N001519999999N9999999N1-00341-00441101951ADDAA112002091IA2999-00309KA1120N-00341MA1999999097081REMSYN082AAXX  22064 11012 1//// /2103 11034 21044 39708 40195 60022 7404/ 333 21034 3/103;
0168110120999992000012209004+48050+014130FM-12+038899999V0202101N001010075019N0050001N1-00311-00401101761ADDAA103002091AY171031AY271031GF108991081051008001999999MA1999999096901MW1731REMSYN082AAXX  22094 11012 21550 82102 11031 21040 39690 40176 77377 885// 333 55300 60027;
0188110120999992000012212004+48050+014130FM-12+038899999V0201701N000510150019N0070001N1-00131-00251101381ADDAA106002091AY171061AY221061GF108991081051017501999999MA1999999096571MD1810331+9999MW1271REMSYN088AAXX  22124 11012 11757 81701 11013 21025 39657 40138 58033 60021 72772 885// 333 55300;
0168110120999992000012215004+48050+014130FM-12+038899999V0200801N000510075019N0050001N1-00121-00191101091ADDAA103001091AY171031AY221031GF108991081051008001999999MA1999999096301MW1701REMSYN082AAXX  22154 11012 21550 80801 11012 21019 39630 40109 77072 885// 333 55300 69997;
0201110120999992000012218004+48050+014130FM-12+038899999V0202201N002110075019N0050001N1+00041+00001100891ADDAA112006191AY171061AY221061GF108991081051008001999999KA1999M+00041MA1999999096141MD1610161+9999MW1701REMSYN088AAXX  22184 11012 11550 82204 10004 20000 39614 40089 56016 60062 77072 885// 333 10004;
0108110120999992000012221004+48050+014130FM-12+038899999V0202301N002619999999N9999999N1+00091+00011100851ADDAA103000891MA1999999096111REMSYN070AAXX  22214 11012 2//// /2305 10009 20001 39611 40085 74044 333 69977;
0098110120999992000012300004+48050+014130FM-12+038899999V0202201N002119999999N9999999N1+00091+00011100801ADDAA106001091MA1999999096061REMSYN060AAXX  23004 11012 16/// /2204 10009 20001 39606 40080 60011;
0108110120999992000012303004+48050+014130FM-12+038899999V0202401N002619999999N9999999N1+00081+00011100781ADDAA103000891MA1999999096041REMSYN070AAXX  23034 11012 2//// /2405 10008 20001 39604 40078 7404/ 333 69977;
0264110120999992000012306004+48050+014130FM-12+038899999V0202401N001510021019N0050001N1+00061+00001100811ADDAA112002091AJ100119199999999AL10600691AY171061AY221061GF108991081061002501999999IA1289IA2999+00009KA1120N+00061MA1999999096061MD1210021+9999MW1221REMSYN106AAXX  23064 11012 11350 82403 10006 20000 39606 40081 52002 60022 72272 886// 333 20006 3/000 44011 93106;
0168110120999992000012309004+48050+014130FM-12+038899999V0202501N002110021019N0040001N1+00071-00031100901ADDAA103000191AY171031AY221031GF108991081051002501999999MA1999999096151MW1721REMSYN082AAXX  23094 11012 21340 82504 10007 21003 39615 40090 77272 885// 333 55300 69917;
0168110120999992000012315004+48050+014130FM-12+038899999V0200601N002110120019N0007001N1-00081-00161101131ADDAA103002091AY171031AY271031GF108991081051012501999999MA1999999096341MW1731REMSYN082AAXX  23154 11012 21607 80604 11008 21016 39634 40113 77377 885// 333 55300 60027;
0201110120999992000012318004+48050+014130FM-12+038899999V0200601N001510120019N0100001N1-00401-00541101491ADDAA112004191AY171061AY271061GF108991081051012501999999KA1999M+00131MA1999999096631MD1110291+9999MW1221REMSYN088AAXX  23184 11012 11660 80603 11040 21054 39663 40149 51029 60042 72277 885// 333 10013;
0092110120999992000012321004+48050+014130FM-12+038899999V0200201N001519999999N9999999N1-00521-00781101721ADDAA199000021MA1999999096831REMSYN054AAXX  23214 11012 36/// /0203 11052 21078 39683 40172;
0092110120999992000012400004+48050+014130FM-12+038899999V0200201N002119999999N9999999N1-00701-00971101971ADDAA199000021MA1999999097031REMSYN054AAXX  24004 11012 36/// /0204 11070 21097 39703 40197;
0092110120999992000012403004+48050+014130FM-12+038899999V0200301N001519999999N9999999N1-00921-01221102141ADDAA199000021MA1999999097151REMSYN054AAXX  24034 11012 36/// /0303 11092 21122 39715 40214;
0264110120999992000012406004+48050+014130FM-12+038899999V0200601N000512200019N0120001N1-01221-01431102381ADDAA112000791AJ100169199999999AL10600591AY171061AY211061GF103991031001999999031001IA1239IA2999-01909KA1120N-01251MA1999999097321MD1210171+9999MW1011REMSYN106AAXX  24064 11012 11962 30601 11122 21143 39732 40238 52017 69902 70171 83030 333 21125 3/119 47016 93105;
0163110120999992000012409004+48050+014130FM-12+038899999V0202201N002112200019N0180001N1-01241-01281102571ADDAA199000091GA1001+999999999GF100991001001999999001001MA1999999097501REMSYN064AAXX  24094 11012 32968 02204 11124 21128 39750 40257 333 55307;EQDQ01  00002PRCP99
0173110120999992000012412004+48050+014130FM-12+038899999V0202501N001512200019N0100001N1-00761-01071102491ADDAA199000091GF102991011001022501031021MA1999999097511MD1810011+9999REMSYN076AAXX  24124 11012 32860 22503 11076 21107 39751 40249 58001 81032 333 55310;EQDQ01  00002PRCP99
0121110120999992000012415004+48050+014130FM-12+038899999V0203001N001019999999N9999999N1-00701-01121102521ADDAA199000091MA1999999097551REMSYN064AAXX  24154 11012 36/// /3002 11070 21112 39755 40252 333 55310;EQDQ01  00002PRCP99
0134110120999992000012418004+48050+014130FM-12+038899999V0202101N002119999999N9999999N1-01111-01211102741ADDAA199000091KA1999M-00551MA1999999097691REMSYN064AAXX  24184 11012 36/// /2104 11111 21121 39769 40274 333 11055;EQDQ01  00002PRCP99
0111110120999992000012421004+48050+014130FM-12+038899999V0202101N002619999999N9999999N1-01331-01371102861ADDAA199000091MA1999999097761REMSYN054AAXX  24214 11012 36/// /2105 11133 21137 39776 40286;EQDQ01  00002PRCP99
0111110120999992000012500004+48050+014130FM-12+038899999V0202201N002619999999N9999999N1-01361-01421102911ADDAA199000091MA1999999097801REMSYN054AAXX  25004 11012 36/// /2205 11136 21142 39780 40291;EQDQ01  00002PRCP99
0111110120999992000012503004+48050+014130FM-12+038899999V0202101N002619999999N9999999N1-01341-01451102961ADDAA199000091MA1999999097851REMSYN054AAXX  25034 11012 36/// /2105 11134 21145 39785 40296;EQDQ01  00002PRCP99
0227110120999992000012506004+48050+014130FM-12+038899999V0202201N001012200019N0200001N1-01451-01511103091ADDAA199000091AJ100139199999999GF104991011041012501031001IA2999-01909KA1120N-01471MA1999999097951MD1310101+9999REMSYN088AAXX  25064 11012 32670 42202 11145 21151 39795 40309 53010 81430 333 21147 3/119 47013;EQDQ01  00002PRCP99
0163110120999992000012509004+48050+014130FM-12+038899999V0202201N001012200019N0300001N1-01361-01461103261ADDAA199000091GA1001+999999999GF100991001001999999001001MA1999999098131REMSYN064AAXX  25094 11012 32980 02202 11136 21146 39813 40326 333 55310;EQDQ01  00002PRCP99
0121110120999992000012512004+48050+014130FM-12+038899999V0201001N000519999999N9999999N1-00991-01221103201ADDAA199000091MA1999999098151REMSYN064AAXX  25124 11012 36/// /1001 11099 21122 39815 40320 333 55310;EQDQ01  00002PRCP99
0163110120999992000012515004+48050+014130FM-12+038899999V0202801N001012200019N0100001N1-00881-01191103271ADDAA199000091GA1001+999999999GF100991001001999999001001MA1999999098231REMSYN064AAXX  25154 11012 32960 02802 11088 21119 39823 40327 333 55310;EQDQ01  00002PRCP99
0196110120999992000012518004+48050+014130FM-12+038899999V0202201N002112200019N0100001N1-01221-01311103421ADDAA199000091GA1001+999999999GF100991001001999999001001KA1999M-00751MA1999999098311MD1310081+9999REMSYN070AAXX  25184 11012 32960 02204 11122 21131 39831 40342 53008 333 11075;EQDQ01  00002PRCP99
0111110120999992000012521004+48050+014130FM-12+038899999V0202101N002119999999N9999999N1-01401-01421103521ADDAA199000091MA1999999098371REMSYN054AAXX  25214 11012 36/// /2104 11140 21142 39837 40352;EQDQ01  00002PRCP99
0111110120999992000012600004+48050+014130FM-12+038899999V0202101N002119999999N9999999N1-01361-01411103531ADDAA199000091MA1999999098391REMSYN054AAXX  26004 11012 36/// /2104 11136 21141 39839 40353;EQDQ01  00002PRCP99
0111110120999992000012603004+48050+014130FM-12+038899999V0202401N002119999999N9999999N1-01411-01451103491ADDAA199000091MA1999999098341REMSYN054AAXX  26034 11012 36/// /2404 11141 21145 39834 40349;EQDQ01  00002PRCP99
0237110120999992000012606004+48050+014130FM-12+038899999V0202201N002612200019N0400001N1-01551-01581103601ADDAA199000091AJ100139199999999GA1001+999999999GF100991001001999999001001IA2999-01709KA1120N-01551MA1999999098421MD1110081+9999REMSYN082AAXX  26064 11012 32982 02205 11155 21158 39842 40360 51008 333 21155 3/117 47013;EQDQ01  00002PRCP99
0163110120999992000012609004+48050+014130FM-12+038899999V0202201N001512200019N0300001N1-01241-01351103701ADDAA199000091GA1001+999999999GF100991001001999999001001MA1999999098571REMSYN064AAXX  26094 11012 32980 02203 11124 21135 39857 40370 333 55310;EQDQ01  00002PRCP99
0121110120999992000012612004+48050+014130FM-12+038899999V0202901N001019999999N9999999N1-00971-01231103621ADDAA199000091MA1999999098551REMSYN064AAXX  26124 11012 36/// /2902 11097 21123 39855 40362 333 55310;EQDQ01  00002PRCP99
0121110120999992000012615004+48050+014130FM-12+038899999V0202401N001519999999N9999999N1-00781-01161103551ADDAA199000091MA1999999098521REMSYN064AAXX  26154 11012 36/// /2403 11078 21116 39852 40355 333 55310;EQDQ01  00002PRCP99
0111110120999992000012621004+48050+014130FM-12+038899999V0202101N002119999999N9999999N1-01241-01281103781ADDAA199000091MA1999999098651REMSYN054AAXX  26214 11012 36/// /2104 11124 21128 39865 40378;EQDQ01  00002PRCP99
0111110120999992000012700004+48050+014130FM-12+038899999V0202401N001519999999N9999999N1-01111-01141103711ADDAA199000091MA1999999098611REMSYN054AAXX  27004 11012 36/// /2403 11111 21114 39861 40371;EQDQ01  00002PRCP99
0111110120999992000012703004+48050+014130FM-12+038899999V0202401N001019999999N9999999N1-01181-01211103671ADDAA199000091MA1999999098561REMSYN054AAXX  27034 11012 36/// /2402 11118 21121 39856 40367;EQDQ01  00002PRCP99
0237110120999992000012706004+48050+014130FM-12+038899999V0202101N002612200019N0400001N1-01151-01201103611ADDAA199000091AJ100129199999999GA1001+999999999GF100991001001999999001001IA2999-01609KA1120N-01281MA1999999098511MD1510051+9999REMSYN082AAXX  27064 11012 32982 02105 11115 21120 39851 40361 55005 333 21128 3/116 47012;EQDQ01  00002PRCP99
0163110120999992000012709004+48050+014130FM-12+038899999V0202201N001512200019N0400001N1-00981-01101103641ADDAA199000091GA1001+999999999GF100991001001999999001001MA1999999098571REMSYN064AAXX  27094 11012 32982 02203 11098 21110 39857 40364 333 55310;EQDQ01  00002PRCP99
0183110120999992000012712004+48050+014130FM-12+038899999V0202401N001012200019N0100001N1-00501-00801103351ADDAA199000091GA1001+999999999GF100991001001999999001001MA1999999098381MD1810191+9999REMSYN070AAXX  27124 11012 32960 02402 11050 21080 39838 40335 58019 333 55310;EQDQ01  00002PRCP99
0163110120999992000012715004+48050+014130FM-12+038899999V0202601N000512200019N0150001N1-00351-00781103111ADDAA199000091GA1001+999999999GF100991001001999999001001MA1999999098181REMSYN064AAXX  27154 11012 32965 02601 11035 21078 39818 40311 333 55310;EQDQ01  00002PRCP99
0196110120999992000012718004+48050+014130FM-12+038899999V0202201N000512200019N0150001N1-00691-00841103151ADDAA199000091GA1001+999999999GF100991001001999999001001KA1999M-00231MA1999999098161MD1710021+9999REMSYN070AAXX  27184 11012 32965 02201 11069 21084 39816 40315 57002 333 11023;EQDQ01  00002PRCP99
0111110120999992000012721004+48050+014130FM-12+038899999V0202201N002119999999N9999999N1-00871-00931103091ADDAA199000091MA1999999098071REMSYN054AAXX  27214 11012 36/// /2204 11087 21093 39807 40309;EQDQ01  00002PRCP99
0111110120999992000012800004+48050+014130FM-12+038899999V0203001N000519999999N9999999N1-01041-01081103021ADDAA199000091MA1999999097971REMSYN054AAXX  28004 11012 36/// /3001 11104 21108 39797 40302;EQDQ01  00002PRCP99
0111110120999992000012803004+48050+014130FM-12+038899999V0201801N000519999999N9999999N1-00991-00991102921ADDAA199000091MA1999999097881REMSYN054AAXX  28034 11012 36/// /1801 11099 21099 39788 40292;EQDQ01  00002PRCP99
0227110120999992000012806004+48050+014130FM-12+038899999V0203401N000512200019N0400001N1-00981-01031102891ADDAA199000091AJ100119199999999GF102991011001022501031051IA2999-01409KA1120N-01111MA1999999097851MD1610031+9999REMSYN088AAXX  28064 11012 32882 23401 11098 21103 39785 40289 56003 81035 333 21111 3/114 47011;EQDQ01  00002PRCP99
0153110120999992000012809004+48050+014130FM-12+038899999V0202601N001012200019N0180001N1-00851-00921102821ADDAA199000091GF103991021001022501041081MA1999999097811REMSYN070AAXX  28094 11012 32868 32602 11085 21092 39781 40282 82048 333 55308;EQDQ01  00002PRCP99
0173110120999992000012812004+48050+014130FM-12+038899999V0200301N001010150019N0200001N1-00331-00641102501ADDAA199000091GF107991071001017501091999MA1999999097601MD1610211+9999REMSYN076AAXX  28124 11012 32770 70302 11033 21064 39760 40250 56021 8709/ 333 55300;EQDQ01  00002PRCP99
0153110120999992000012815004+48050+014130FM-12+038899999V0200601N001012200019N0400001N1-00241-00601102321ADDAA199000091GF105991041001022501081081MA1999999097451REMSYN070AAXX  28154 11012 32882 50602 11024 21060 39745 40232 84088 333 55303;EQDQ01  00002PRCP99
0186110120999992000012818004+48050+014130FM-12+038899999V0202301N000510150019N0300001N1-00271-00531102361ADDAA199000091GF108991081001017501011999KA1999M-00051MA1999999097481MD1210031+9999REMSYN076AAXX  28184 11012 32780 82301 11027 21053 39748 40236 52003 8801/ 333 11005;EQDQ01  00002PRCP99
0111110120999992000012821004+48050+014130FM-12+038899999V0202001N001519999999N9999999N1-00231-00441102241ADDAA199000091MA1999999097371REMSYN054AAXX  28214 11012 36/// /2003 11023 21044 39737 40224;EQDQ01  00002PRCP99
0111110120999992000012900004+48050+014130FM-12+038899999V0202301N000519999999N9999999N1-00361-00491102021ADDAA199000091MA1999999097141REMSYN054AAXX  29004 11012 36/// /2301 11036 21049 39714 40202;EQDQ01  00002PRCP99
0127110120999992000012903004+48050+014130FM-12+038899999V0202301N002119999999N9999999N1+00431-00201101781ADDAA199000091MA1999999097051REMSYN070AAXX  29034 11012 36/// /2304 10043 21020 39705 40178 333 90415 91115;EQDQ01  00002PRCP99
0245110120999992000012906004+48050+014130FM-12+038899999V0202301N003610120019N0100001N1+00501-00221101571ADDAA199000091AJ100119199999999GF107991061051012501071999IA1289IA2999-00609KA1120N-00411MA1999999096861MD1810191+9999REMSYN100AAXX  29064 11012 32660 72307 10050 21022 39686 40157 58019 8657/ 333 21041 3/106 44011 90445 91115;EQDQ01  00002PRCP99
0153110120999992000012909004+48050+014130FM-12+038899999V0202201N003619999999N0700001N1+00611-00331101341ADDAA199000091GF108991081001999999041999MA1999999096661REMSYN070AAXX  29094 11012 32988 82207 10061 21033 39666 40134 8804/ 333 55300;EQDQ01  00002PRCP99
0173110120999992000012912004+48050+014130FM-12+038899999V0202501N002610210019N0700001N1+00791-00411100931ADDAA199000091GF108991081001022501041999MA1999999096301MD1610361+9999REMSYN076AAXX  29124 11012 32888 82505 10079 21041 39630 40093 56036 8804/ 333 55300;EQDQ01  00002PRCP99
0168110120999992000012915004+48050+014130FM-12+038899999V0202601N002119999999N0200001N1+00401+00031100891ADDAA103000191AY161031AY221031GF108991081001012501041999MA1999999096201MW1611REMSYN082AAXX  29154 11012 21670 82604 10040 20003 39620 40089 76162 8804/ 333 55300 69927;
0201110120999992000012918004+48050+014130FM-12+038899999V0202501N002119999999N0120001N1+00411+00211100821ADDAA112003091AY161061AY221061GF108991081001012501041999KA1999M+00861MA1999999096131MD1510071+9999MW1641REMSYN088AAXX  29184 11012 11662 82504 10041 20021 39613 40082 55007 60032 76462 8804/ 333 10086;
0120110120999992000012921004+48050+014130FM-12+038899999V0202301N003119999999N9999999N1+00531+00361100721ADDAA103003091MA1999999096061REMSYN082AAXX  29214 11012 2//// /2306 10053 20036 39606 40072 74044 333 60037 90414 91119;
0120110120999992000013000004+48050+014130FM-12+038899999V0202301N004619999999N9999999N1+00681+00381100521ADDAA106003091MA1999999095891REMSYN082AAXX  30004 11012 1//// /2309 10068 20038 39589 40052 60031 7404/ 333 90444 91119;
0114110120999992000013003004+48050+014130FM-12+038899999V0202401N004619999999N9999999N1+00751+00371100441ADDAA103000191MA1999999095831REMSYN076AAXX  30034 11012 26/// /2409 10075 20037 39583 40044 333 69917 90405 91118;
0295110120999992000013006004+48050+014130FM-12+038899999V0202401N005710120019N0050001N1+00831+00331100551ADDAA112004191AJ199992999999999AY161061AY221061GF108991999051012501071999IA1259IA2999+00209KA1120N+00401MA1999999095951MD1310121+9999MW1601REMSYN112AAXX  30064 11012 11650 82411 10083 20033 39595 40055 53012 60042 76062 8857/ 333 20040 3/002 41998 90406 91123;EQDQ01+000082SCOTLCQ02  09972SNDP  
0180110120999992000013009004+48050+014130FM-12+038899999V0202801N003110075019N0030001N1+00551+00401101111ADDAA103005191AY161031AY221031GF108991081071008001999999MA1999999096441MW1651REMSYN094AAXX  30094 11012 21530 82806 10055 20040 39644 40111 76562 887// 333 55300 60057 90412 91124;
0200110120999992000013012004+48050+014130FM-12+038899999V0202401N003119999999N0050001N1+00441+00311101441ADDAA106016091AY161061AY221061GF108991081001012501041999MA1999999096731MD1110291+9999MW1651REMSYN100AAXX  30124 11012 11650 82406 10044 20031 39673 40144 51029 60161 76562 8804/ 333 55300 90442 91124;
0180110120999992000013015004+48050+014130FM-12+038899999V0202601N004119999999N0100001N1+00581+00331101651ADDAA103002091AY161031AY221031GF108991081001012501041999MA1999999096951MW1621REMSYN094AAXX  30154 11012 21660 82608 10058 20033 39695 40165 76262 8804/ 333 55300 60027 90425 91116;
0213110120999992000013018004+48050+014130FM-12+038899999V0202301N002619999999N0030001N1+00521+00421101941ADDAA112023191AY161061AY221061GF108991081001012501041999KA1120M+00851MA1999999097221MD1110271+9999MW1621REMSYN100AAXX  30184 11012 11630 82305 10052 20042 39722 40194 51027 60232 76262 8804/ 333 10085 90455 91116;
0102110120999992000013021004+48050+014130FM-12+038899999V0202401N005719999999N9999999N1+00781+00611101861ADDMA1999999097191REMSYN075AAXX  30214 11012 26/// /2411 10078 20061 39719 40186 333 6017 90404 91117;
0120110120999992000013100004+48050+014130FM-12+038899999V0202401N005119999999N9999999N1+00811+00671101961ADDAA106004191MA1999999097291REMSYN082AAXX  31004 11012 1//// /2410 10081 20067 39729 40196 60041 7404/ 333 90402 91119;
0114110120999992000013103004+48050+014130FM-12+038899999V0202401N005719999999N9999999N1+00891+00401101921ADDAA103000191MA1999999097261REMSYN076AAXX  31034 11012 26/// /2411 10089 20040 39726 40192 333 69927 90414 91121;
0231110120999992000013106004+48050+014130FM-12+038899999V0202301N003110120019N0150001N1+00761+00321102101ADDAA112004191AY161061AY221061GF106991061051012501041001IA2999+00509KA1120N+00531MA1999999097411MD1310151+9999MW1001REMSYN106AAXX  31064 11012 11665 62306 10076 20032 39741 40210 53015 60042 70062 86540 333 20053 3/005 90444 91121;
0165110120999992000013109004+48050+014130FM-12+038899999V0202501N005710150019N0400001N1+00901+00301102151ADDAA199000091GF106991051081012501081999MA1999999097481REMSYN082AAXX  31094 11012 32682 62511 10090 20030 39748 40215 8588/ 333 55309 90401 91119;EQDQ01  00002PRCP99
0133110120999992000013112004+48050+014130FM-12+038899999V0202501N004619999999N9999999N1+01031+00361102291ADDAA199000091MA1999999097641REMSYN076AAXX  31124 11012 36/// /2509 10103 20036 39764 40229 333 55300 90423 91128;EQDQ01  00002PRCP99
0133110120999992000013115004+48050+014130FM-12+038899999V0202501N004619999999N9999999N1+01091+00351102401ADDAA199000091MA1999999097751REMSYN076AAXX  31154 11012 36/// /2509 10109 20035 39775 40240 333 55300 90426 91120;EQDQ01  00002PRCP99
0198110120999992000013118004+48050+014130FM-12+038899999V0202401N004110150019N0300001N1+01011+00361102621ADDAA199000091GF108991081001017501071999KA1120M+01101MA1999999097951MD1310201+9999REMSYN088AAXX  31184 11012 32780 82408 10101 20036 39795 40262 53020 8807/ 333 10110 90456 91120;EQDQ01  00002PRCP99
0127110120999992000013121004+48050+014130FM-12+038899999V0202501N003619999999N9999999N1+00891+00361102821ADDAA199000091MA1999999098121REMSYN070AAXX  31214 11012 36/// /2507 10089 20036 39812 40282 333 90414 91114;EQDQ01  00002PRCP99
0127110120999992000020100004+48050+014130FM-12+038899999V0202401N002119999999N9999999N1+00841+00361102771ADDAA199000091MA1999999098071REMSYN070AAXX  01004 11012 36/// /2404 10084 20036 39807 40277 333 90444 91114;EQDQ01  00002PRCP99
0111110120999992000020103004+48050+014130FM-12+038899999V0202301N001519999999N9999999N1+00671+00301102771ADDAA199000091MA1999999098041REMSYN054AAXX  01034 11012 36/// /2303 10067 20030 39804 40277;EQDQ01  00002PRCP99
0204110120999992000020106004+48050+014130FM-12+038899999V0202101N002612200019N0450001N1+00431+00191102741ADDAA199000091GF102991021001012501041001IA2999+00109KA1120N+00401MA1999999097971MD1810071+9999REMSYN082AAXX  01064 11012 32683 22105 10043 20019 39797 40274 58007 82040 333 20040 3/001;EQDQ01  00002PRCP99
0163110120999992000020109004+48050+014130FM-12+038899999V0200701N000512200019N0600001N1+00411+00171102571ADDAA199000091GA1001+999999999GF100991001001999999001001MA1999999097801REMSYN064AAXX  01094 11012 32986 00701 10041 20017 39780 40257 333 55310;EQDQ01  00002PRCP99
0183110120999992000020112004+48050+014130FM-12+038899999V0200101N000512200019N0200001N1+00921+00401102251ADDAA199000091GA1001+999999999GF100991001001999999001001MA1999999097581MD1810221+9999REMSYN070AAXX  01124 11012 32970 00101 10092 20040 39758 40225 58022 333 55310;EQDQ01  00002PRCP99
0163110120999992000020115004+48050+014130FM-12+038899999V0201001N000512200019N0300001N1+01041+00491102101ADDAA199000091GA1001+999999999GF100991001001999999001001MA1999999097461REMSYN064AAXX  01154 11012 32980 01001 10104 20049 39746 40210 333 55310;EQDQ01  00002PRCP99
0196110120999992000020118004+48050+014130FM-12+038899999V0202201N001012200019N0300001N1+00761+00411102111ADDAA199000091GA1001+999999999GF100991001001999999001001KA1999M+01241MA1999999097421MD1510041+9999REMSYN070AAXX  01184 11012 32980 02202 10076 20041 39742 40211 55004 333 10124;EQDQ01  00002PRCP99
0111110120999992000020121004+48050+014130FM-12+038899999V0202101N002619999999N9999999N1+00571+00101102091ADDAA199000091MA1999999097371REMSYN054AAXX  01214 11012 36/// /2105 10057 20010 39737 40209;EQDQ01  00002PRCP99
0111110120999992000020203004+48050+014130FM-12+038899999V0202301N002119999999N9999999N1+00441-00051101941ADDAA199000091MA1999999097201REMSYN054AAXX  02034 11012 36/// /2304 10044 21005 39720 40194;EQDQ01  00002PRCP99
0204110120999992000020206004+48050+014130FM-12+038899999V0202701N001512200019N0250001N1+00181-00081101931ADDAA199000091GF103991031001012501041001IA2999-00209KA1120N+00171MA1999999097151MD1810051+9999REMSYN082AAXX  02064 11012 32675 32703 10018 21008 39715 40193 58005 83040 333 20017 3/102;EQDQ01  00002PRCP99
0169110120999992000020209004+48050+014130FM-12+038899999V0202301N001512200019N0400001N1+00541+00111101821ADDAA199000091GF104991001001999999001081MA1999999097111REMSYN070AAXX  02094 11012 32982 42303 10054 20011 39711 40182 84008 333 55310;EQDQ01+000042SCOTLCQ02  00002PRCP99
0189110120999992000020212004+48050+014130FM-12+038899999V0202901N001019999999N0200001N1+01141+00291101651ADDAA199000091GF106991001001999999001081MA1999999097041MD1810071+9999REMSYN076AAXX  02124 11012 32970 62902 10114 20029 39704 40165 58007 86008 333 55310;EQDQ01+000062SCOTLCQ02  00002PRCP99
0153110120999992000020215004+48050+014130FM-12+038899999V0202601N002610210019N0200001N1+01161+00231101551ADDAA199000091GF107991071001022501031999MA1999999096951REMSYN070AAXX  02154 11012 32870 72605 10116 20023 39695 40155 8703/ 333 55307;EQDQ01  00002PRCP99
0186110120999992000020218004+48050+014130FM-12+038899999V0202301N002610150019N0200001N1+01031+00301101651ADDAA199000091GF108991081001017501011999KA1999M+01291MA1999999097031MD1310081+9999REMSYN076AAXX  02184 11012 32770 82305 10103 20030 39703 40165 53008 8801/ 333 10129;EQDQ01  00002PRCP99
0111110120999992000020221004+48050+014130FM-12+038899999V0202401N003119999999N9999999N1+00801+00511101911ADDAA199000091MA1999999097241REMSYN054AAXX  02214 11012 36/// /2406 10080 20051 39724 40191;EQDQ01  00002PRCP99
0104110120999992000020300004+48050+014130FM-12+038899999V0202401N003119999999N9999999N1+00701+00581102071ADDAA106001091MA1999999097381REMSYN066AAXX  03004 11012 1//// /2406 10070 20058 39738 40207 69991 7404/;
0114110120999992000020303004+48050+014130FM-12+038899999V0202701N003619999999N9999999N1+00611+00271102431ADDAA103000191MA1999999097701REMSYN076AAXX  03034 11012 26/// /2707 10061 20027 39770 40243 333 69927 90408 91114;
0133110120999992000020312004+48050+014130FM-12+038899999V0202401N005719999999N9999999N1+00511-00031102921ADDAA199000091MA1999999098151REMSYN076AAXX  03124 11012 36/// /2411 10051 21003 39815 40292 333 55300 90403 91119;EQDQ01  00002PRCP99
0126110120999992000020315004+48050+014130FM-12+038899999V0202401N004119999999N9999999N1+00421+00171103031ADDAA103000391MA1999999098241REMSYN088AAXX  03154 11012 2//// /2408 10042 20017 39824 40303 7404/ 333 55300 69937 90418 91121;
0133110120999992000020318004+48050+014130FM-12+038899999V0202401N004119999999N9999999N1+00421+00121103341ADDAA112002091KA1120M+00661MA1999999098541REMSYN082AAXX  03184 11012 16/// /2408 10042 20012 39854 40334 60022 333 10066 90448 91121;
0114110120999992000020321004+48050+014130FM-12+038899999V0202401N003619999999N9999999N1+00341+00111103631ADDAA103000591MA1999999098801REMSYN076AAXX  03214 11012 26/// /2407 10034 20011 39880 40363 333 69967 90424 91113;
0114110120999992000020400004+48050+014130FM-12+038899999V0202501N003119999999N9999999N1+00291+00061103811ADDAA106001091MA1999999098961REMSYN076AAXX  04004 11012 16/// /2506 10029 20006 39896 40381 60011 333 90428 91116;
0111110120999992000020403004+48050+014130FM-12+038899999V0202401N002619999999N9999999N1+00231+00041103871ADDAA199000091MA1999999099011REMSYN054AAXX  04034 11012 36/// /2405 10023 20004 39901 40387;EQDQ01  00002PRCP99
0191110120999992000020406004+48050+014130FM-12+038899999V0202401N001519999999N0050001N1+00171+00021103921ADDAA112001091GF108991081001012501071999IA2999-00109KA1120N+00141MA1999999099051MD1110041+9999REMSYN088AAXX  04064 11012 13650 82403 10017 20002 39905 40392 51004 60012 8807/ 333 20014 3/101;
0153110120999992000020409004+48050+014130FM-12+038899999V0202201N001510210019N0200001N1+00361+00131104001ADDAA199000091GF105991051001022501031999MA1999999099161REMSYN070AAXX  04094 11012 32870 52203 10036 20013 39916 40400 8503/ 333 55303;EQDQ01  00002PRCP99
0121110120999992000020412004+48050+014130FM-12+038899999V0202501N002119999999N9999999N1+00631-00081103721ADDAA199000091MA1999999098931REMSYN064AAXX  04124 11012 36/// /2504 10063 21008 39893 40372 333 55310;EQDQ01  00002PRCP99
0121110120999992000020415004+48050+014130FM-12+038899999V0202501N001519999999N9999999N1+00751-00181103471ADDAA199000091MA1999999098711REMSYN064AAXX  04154 11012 36/// /2503 10075 21018 39871 40347 333 55310;EQDQ01  00002PRCP99
0202110120999992000020418004+48050+014130FM-12+038899999V0202701N002612200019N0200001N1+00481-00151103541ADDAA199000091GF103991001001999999001021KA1999M+00791MA1999999098741MD1310031+9999REMSYN076AAXX  04184 11012 32970 32705 10048 21015 39874 40354 53003 83002 333 10079;EQDQ01+000032SCOTLCQ02  00002PRCP99
0111110120999992000020421004+48050+014130FM-12+038899999V0202301N001519999999N9999999N1+00271-00121103521ADDAA199000091MA1999999098681REMSYN054AAXX  04214 11012 36/// /2303 10027 21012 39868 40352;EQDQ01  00002PRCP99
0111110120999992000020500004+48050+014130FM-12+038899999V0202401N003119999999N9999999N1+00521-00131103471ADDAA199000091MA1999999098681REMSYN054AAXX  05004 11012 36/// /2406 10052 21013 39868 40347;EQDQ01  00002PRCP99
0114110120999992000020503004+48050+014130FM-12+038899999V0202501N004619999999N9999999N1+00461+00171103421ADDAA103000591MA1999999098621REMSYN076AAXX  05034 11012 26/// /2509 10046 20017 39862 40342 333 69967 90413 91116;
0157110120999992000020506004+48050+014130FM-12+038899999V0202501N003119999999N9999999N1+00491+00261103391ADDAA112001091IA2999+00009KA1120N+00261MA1999999098601REMSYN094AAXX  05064 11012 1//// /2506 10049 20026 39860 40339 60012 7404/ 333 20026 3/100 90443 91116;
0180110120999992000020509004+48050+014130FM-12+038899999V0202501N004110360019N0150001N1+00561+00411103401ADDAA103000891AY161031AY261031GF108991041071012501071999MA1999999098621MW1611REMSYN094AAXX  05094 11012 21665 82508 10056 20041 39862 40340 76166 8477/ 333 55300 69987 90413 91114;
0200110120999992000020512004+48050+014130FM-12+038899999V0202401N003110360019N0150001N1+00671+00491103441ADDAA106001091AY161061AY261061GF108991041071012501071999MA1999999098681MD1110061+9999MW1601REMSYN100AAXX  05124 11012 11665 82406 10067 20049 39868 40344 51006 69991 76066 8477/ 333 55300 90443 91114;
0114110120999992000020515004+48050+014130FM-12+038899999V0202501N002619999999N9999999N1+00901+00591103241ADDAA199000021MA1999999098531REMSYN076AAXX  05154 11012 36/// /2505 10090 20059 39853 40324 333 55300 90418 91113;
0204110120999992000020518004+48050+014130FM-12+038899999V0209999C000010360019N0150001N1+00681+00521103281ADDAA112001091GF108991031071012501071999KA1120M+00901MA1999999098531MD1310041+9999REMSYN094AAXX  05184 11012 13665 80000 10068 20052 39853 40328 53000 69992 8377/ 333 10090 90448 91113;EQDQ01+000002APC3  
0092110120999992000020521004+48050+014130FM-12+038899999V0202201N000519999999N9999999N1+00531+00441103301ADDAA199000021MA1999999098521REMSYN054AAXX  05214 11012 36/// /2201 10053 20044 39852 40330;
0092110120999992000020600004+48050+014130FM-12+038899999V0202601N002119999999N9999999N1+00531+00401103211ADDAA199000021MA1999999098431REMSYN054AAXX  06004 11012 36/// /2604 10053 20040 39843 40321;
0111110120999992000020603004+48050+014130FM-12+038899999V0202301N001519999999N9999999N1+00451+00321103041ADDAA199000091MA1999999098261REMSYN054AAXX  06034 11012 36/// /2303 10045 20032 39826 40304;EQDQ01  00002PRCP99
0242110120999992000020606004+48050+014130FM-12+038899999V0200201N000510001519N0001001N1+00021-00011103011ADDAA199000091AY141061AY241061GA1091+999999999GF109991091999999999999999IA2999-00109KA1120N+00021MA1999999098151MD1610111+9999MW1441REMSYN082AAXX  06064 11012 31901 90201 10002 21001 39815 40301 56011 74444 333 20002 3/101;EQDQ01  00002PRCP99
0191110120999992000020609004+48050+014130FM-12+038899999V0209999C000010006019N0006001N1+00121+00121102921ADDAA199000091AY141031AY241031GA1091+999999999GF109991091999999999999999MA1999999098091MW1431REMSYN070AAXX  06094 11012 31906 90000 10012 20012 39809 40292 74344 333 55304;EQDQ01  00002PRCP99
0217110120999992000020612004+48050+014130FM-12+038899999V0202501N001012200019N0150001N1+00731+00481102721ADDAA199000091AY141061AY201061GF102991001001999999001041MA1999999098001MD1810091+9999MW1031REMSYN082AAXX  06124 11012 31965 22502 10073 20048 39800 40272 58009 70340 82004 333 55310;EQDQ01+000022SCOTLCQ02  00002PRCP99
0153110120999992000020615004+48050+014130FM-12+038899999V0200401N000519999999N0230001N1+00971+00561102491ADDAA199000091GF106991061001022501001061MA1999999097821REMSYN070AAXX  06154 11012 32873 60401 10097 20056 39782 40249 86006 333 55303;EQDQ01  00002PRCP99
0202110120999992000020618004+48050+014130FM-12+038899999V0201001N001012200019N0150001N1+00591+00441102491ADDAA199000091GF101991001001999999001051KA1999M+01041MA1999999097761MD1610061+9999REMSYN076AAXX  06184 11012 32965 11002 10059 20044 39776 40249 56006 81005 333 10104;EQDQ01+000012SCOTLCQ02  00002PRCP99
0111110120999992000020621004+48050+014130FM-12+038899999V0202301N000519999999N9999999N1+00431+00351102371ADDAA199000091MA1999999097621REMSYN054AAXX  06214 11012 36/// /2301 10043 20035 39762 40237;EQDQ01  00002PRCP99
0111110120999992000020700004+48050+014130FM-12+038899999V0202201N001019999999N9999999N1+00411+00301102261ADDAA199000091MA1999999097511REMSYN054AAXX  07004 11012 36/// /2202 10041 20030 39751 40226;EQDQ01  00002PRCP99
0111110120999992000020703004+48050+014130FM-12+038899999V0202201N001519999999N9999999N1+00321+00191102221ADDAA199000091MA1999999097451REMSYN054AAXX  07034 11012 36/// /2203 10032 20019 39745 40222;EQDQ01  00002PRCP99
0204110120999992000020706004+48050+014130FM-12+038899999V0202201N002110210019N0350001N1+00361+00131102261ADDAA199000091GF106991061001022501041001IA2999-00109KA1120N+00161MA1999999097501MD1110051+9999REMSYN082AAXX  07064 11012 32881 62204 10036 20013 39750 40226 51005 86040 333 20016 3/101;EQDQ01  00002PRCP99
0153110120999992000020709004+48050+014130FM-12+038899999V0202601N000510210019N0200001N1+00331+00171102331ADDAA199000091GF106991051001022501031011MA1999999097561REMSYN070AAXX  07094 11012 32870 62601 10033 20017 39756 40233 85031 333 55304;EQDQ01  00002PRCP99
0173110120999992000020712004+48050+014130FM-12+038899999V0200501N001019999999N0200001N1+00681+00411102161ADDAA199000091GF108991081001012501071999MA1999999097461MD1710101+9999REMSYN076AAXX  07124 11012 32670 80502 10068 20041 39746 40216 57010 8807/ 333 55300;EQDQ01  00002PRCP99
0151110120999992000020715004+48050+014130FM-12+038899999V0202501N002619999999N0200001N1+01011+00381102081ADDAY161031AY221031GF108991081001008001071999MA1999999097431MW1601REMSYN076AAXX  07154 11012 41570 82505 10101 20038 39743 40208 76062 8807/ 333 55300;
0115110120999992000020718004+48050+014130FM-12+038899999V0202301N003119999999N9999999N1+00881+00351102131ADDAA199000021KA1999M+01061MA1999999097461REMSYN064AAXX  07184 11012 36/// /2306 10088 20035 39746 40213 333 10106;
0092110120999992000020721004+48050+014130FM-12+038899999V0202301N002619999999N9999999N1+00811+00081102101ADDAA199000021MA1999999097421REMSYN054AAXX  07214 11012 36/// /2305 10081 20008 39742 40210;
0092110120999992000020800004+48050+014130FM-12+038899999V0202301N002119999999N9999999N1+00821+00061101951ADDAA199000021MA1999999097281REMSYN054AAXX  08004 11012 36/// /2304 10082 20006 39728 40195;
0120110120999992000020803004+48050+014130FM-12+038899999V0202601N002619999999N9999999N1+00691+00281101781ADDAA103000191MA1999999097101REMSYN082AAXX  08034 11012 2//// /2605 10069 20028 39710 40178 740// 333 69917 90422 91114;
0231110120999992000020806004+48050+014130FM-12+038899999V0202401N003610150019N0050001N1+00771+00471101641ADDAA112000591AY161061AY221061GF108991081061017501999999IA2999+00409KA1120N+00601MA1999999096981MD1510121+9999MW1621REMSYN106AAXX  08064 11012 11750 82407 10077 20047 39698 40164 55012 69942 76262 886// 333 20060 3/004 90452 91114;
0140110120999992000020809004+48050+014130FM-12+038899999V0202301N003110150019N0400001N1+00941+00471101571ADDAA103000591GF108991081001017501071999MA1999999096941REMSYN076AAXX  08094 11012 23782 82306 10094 20047 39694 40157 8807/ 333 55300 69957;
0120110120999992000020812004+48050+014130FM-12+038899999V0202401N004119999999N9999999N1+01211+00491101321ADDAA106000591MA1999999096741REMSYN082AAXX  08124 11012 16/// /2408 10121 20049 39674 40132 69951 333 55309 90403 91114;
0114110120999992000020815004+48050+014130FM-12+038899999V0202401N002619999999N9999999N1+01281+00491101001ADDAA199000021MA1999999096451REMSYN076AAXX  08154 11012 36/// /2405 10128 20049 39645 40100 333 55302 90423 91116;
0133110120999992000020818004+48050+014130FM-12+038899999V0202301N003119999999N9999999N1+01151+00571100761ADDAA112001091KA1120M+01311MA1999999096201REMSYN082AAXX  08184 11012 16/// /2306 10115 20057 39620 40076 69992 333 10131 90453 91116;
0120110120999992000020821004+48050+014130FM-12+038899999V0202401N004119999999N9999999N1+01081+00811100741ADDAA103003091MA1999999096171REMSYN082AAXX  08214 11012 2//// /2408 10108 20081 39617 40074 7404/ 333 60037 90409 91115;
0114110120999992000020900004+48050+014130FM-12+038899999V0202401N005119999999N9999999N1+01061+00671100841ADDAA106003091MA1999999096261REMSYN076AAXX  09004 11012 16/// /2410 10106 20067 39626 40084 60031 333 90406 91124;
0114110120999992000020903004+48050+014130FM-12+038899999V0202501N006219999999N9999999N1+00891+00381101031ADDAA103000191MA1999999096411REMSYN076AAXX  09034 11012 26/// /2512 10089 20038 39641 40103 333 69917 90421 91121;
0180110120999992000020909004+48050+014130FM-12+038899999V0202901N003119999999N0300001N1+00271+00061101811ADDAA103002091AY181031AY221031GF108991081001008001071999MA1999999097051MW1271REMSYN094AAXX  09094 11012 21580 82906 10027 20006 39705 40181 72782 8807/ 333 55300 60027 90405 91123;
0200110120999992000020912004+48050+014130FM-12+038899999V0202501N003610150019N0300001N1+00271-00041102101ADDAA106003091AY171061AY221061GF107991071001017501091999MA1999999097331MD1310281+9999MW1261REMSYN100AAXX  09124 11012 11780 72507 10027 21004 39733 40210 53028 60031 72672 8709/ 333 55300 90435 91123;
0180110120999992000020915004+48050+014130FM-12+038899999V0202701N005119999999N0100001N1+00271-00101102121ADDAA103001091AY181031AY221031GF106991061001012501091999MA1999999097351MW1261REMSYN094AAXX  09154 11012 21660 62710 10027 21010 39735 40212 72682 8609/ 333 55302 60017 90402 91117;
0133110120999992000020918004+48050+014130FM-12+038899999V0202501N004619999999N9999999N1+00291-00061102381ADDAA112004191KA1120M+00641MA1999999097601REMSYN082AAXX  09184 11012 16/// /2509 10029 21006 39760 40238 60042 333 10064 90432 91117;
0108110120999992000020921004+48050+014130FM-12+038899999V0202401N004619999999N9999999N1+00351-00111102531ADDAA199000021MA1999999097751REMSYN070AAXX  09214 11012 36/// /2409 10035 21011 39775 40253 333 90429 91116;
0108110120999992000021000004+48050+014130FM-12+038899999V0202401N004619999999N9999999N1+00331+00011102651ADDAA199000021MA1999999097861REMSYN070AAXX  10004 11012 36/// /2409 10033 20001 39786 40265 333 90400 91116;
0120110120999992000021003004+48050+014130FM-12+038899999V0202401N003619999999N9999999N1+00271+00071102741ADDAA103000191MA1999999097941REMSYN082AAXX  10034 11012 2//// /2407 10027 20007 39794 40274 740// 333 69917 90425 91115;
0203110120999992000021006004+48050+014130FM-12+038899999V0202401N003110150019N0100001N1+00291+00081102881ADDAA112000191GF108991081021017501999999IA2999+00109KA1120N+00271MA1999999098081MD1110141+9999REMSYN100AAXX  10064 11012 13760 82406 10029 20008 39808 40288 51014 69922 882// 333 20027 3/001 90455 91115;
0153110120999992000021009004+48050+014130FM-12+038899999V0202501N003610150019N0200001N1+00411+00111102991ADDAA199000091GF106991061001017501031999MA1999999098201REMSYN070AAXX  10094 11012 32770 62507 10041 20011 39820 40299 8603/ 333 55304;EQDQ01  00002PRCP99
0173110120999992000021012004+48050+014130FM-12+038899999V0202301N002619999999N0200001N1+00651+00031102751ADDAA199000091GF106991061001012501091999MA1999999098011MD1810191+9999REMSYN076AAXX  10124 11012 32670 62305 10065 20003 39801 40275 58019 8609/ 333 55304;EQDQ01  00002PRCP99
0163110120999992000021015004+48050+014130FM-12+038899999V0202001N001012200019N0200001N1+00711-00131102501ADDAA199000091GA1001+999999999GF100991001001999999001001MA1999999097781REMSYN064AAXX  10154 11012 32970 02002 10071 21013 39778 40250 333 55310;EQDQ01  00002PRCP99
0134110120999992000021018004+48050+014130FM-12+038899999V0202101N001019999999N9999999N1+00381-00111102421ADDAA199000091KA1999M+00841MA1999999097651REMSYN064AAXX  10184 11012 36/// /2102 10038 21011 39765 40242 333 10084;EQDQ01  00002PRCP99
0111110120999992000021021004+48050+014130FM-12+038899999V0202001N001519999999N9999999N1+00181-00211102281ADDAA199000091MA1999999097481REMSYN054AAXX  10214 11012 36/// /2003 10018 21021 39748 40228;EQDQ01  00002PRCP99
0111110120999992000021100004+48050+014130FM-12+038899999V0201601N000519999999N9999999N1-00141-00291102221ADDAA199000091MA1999999097371REMSYN054AAXX  11004 11012 36/// /1601 11014 21029 39737 40222;EQDQ01  00002PRCP99
0111110120999992000021103004+48050+014130FM-12+038899999V0202201N001019999999N9999999N1+00011-00351102231ADDAA199000091MA1999999097411REMSYN054AAXX  11034 11012 36/// /2202 10001 21035 39741 40223;EQDQ01  00002PRCP99
0219110120999992000021106004+48050+014130FM-12+038899999V0202801N003610150019N0150001N1+00391+00151102401ADDAA112000591AY161061AY221061GF108991081061017501999999IA2999-00509KA1120N-00161MA1999999097641MD1210231+9999MW1631REMSYN094AAXX  11064 11012 11765 82807 10039 20015 39764 40240 52023 69952 76362 886// 333 21016 3/105;
0168110120999992000021109004+48050+014130FM-12+038899999V0202401N002110075019N0100001N1+00371+00251102711ADDAA103002091AY161031AY261031GF108991081071008001999999MA1999999097931MW1631REMSYN082AAXX  11094 11012 21560 82404 10037 20025 39793 40271 76366 887// 333 55300 60027;
0188110120999992000021112004+48050+014130FM-12+038899999V0202401N001510120019N0100001N1+00451+00301102831ADDAA106004191AY161061AY261061GF108991081071012501999999MA1999999098061MD1110131+9999MW1611REMSYN088AAXX  11124 11012 11660 82403 10045 20030 39806 40283 51013 60041 76166 887// 333 55300;
0114110120999992000021115004+48050+014130FM-12+038899999V0200901N000519999999N9999999N1+00331+00161102941ADDAA103001091MA1999999098141REMSYN076AAXX  11154 11012 2//// /0901 10033 20016 39814 40294 74044 333 55300 60017;
0121110120999992000021118004+48050+014130FM-12+038899999V0200401N001019999999N9999999N1+00311+00221103041ADDAA112005191KA1999M+00461MA1999999098231REMSYN070AAXX  11184 11012 16/// /0402 10031 20022 39823 40304 60052 333 10046;
0092110120999992000021121004+48050+014130FM-12+038899999V0200801N002619999999N9999999N1+00291+00221103071ADDAA199000021MA1999999098261REMSYN054AAXX  11214 11012 36/// /0805 10029 20022 39826 40307;
0092110120999992000021200004+48050+014130FM-12+038899999V0200401N002619999999N9999999N1+00231+00111102951ADDAA199000021MA1999999098131REMSYN054AAXX  12004 11012 36/// /0405 10023 20011 39813 40295;
0111110120999992000021203004+48050+014130FM-12+038899999V0200301N002119999999N9999999N1+00201+00111102821ADDAA199000091MA1999999098001REMSYN054AAXX  12034 11012 36/// /0304 10020 20011 39800 40282;EQDQ01  00002PRCP99
0204110120999992000021206004+48050+014130FM-12+038899999V0200401N002610210019N0150001N1+00071-00111102721ADDAA199000091GF105991051001022501041999IA2999+00009KA1120N+00071MA1999999097891MD1810111+9999REMSYN082AAXX  12064 11012 32865 50405 10007 21011 39789 40272 58011 8504/ 333 20007 3/100;EQDQ01  00002PRCP99
0169110120999992000021209004+48050+014130FM-12+038899999V0200601N002612200019N0150001N1+00171-00151102631ADDAA199000091GF102991001001999999001081MA1999999097821REMSYN070AAXX  12094 11012 32965 20605 10017 21015 39782 40263 81008 333 55310;EQDQ01+000012SCOTLCQ02  00002PRCP99
0173110120999992000021212004+48050+014130FM-12+038899999V0202401N001010150019N0060001N1+00361-00061102581ADDAA199000091GF107991071041017501001001MA1999999097801MD1710021+9999REMSYN076AAXX  12124 11012 32756 72402 10036 21006 39780 40258 57002 87400 333 55300;EQDQ01  00002PRCP99
0153110120999992000021215004+48050+014130FM-12+038899999V0202301N001510120019N0050001N1+00331+00101102521ADDAA199000091GF108991081061012501999999MA1999999097741REMSYN070AAXX  12154 11012 32650 82303 10033 20010 39774 40252 886// 333 55300;EQDQ01  00002PRCP99
0186110120999992000021218004+48050+014130FM-12+038899999V0202501N002610150019N0050001N1+00371+00071102591ADDAA199000091GF108991081061017501999999KA1999M+00391MA1999999097811MD1210071+9999REMSYN076AAXX  12184 11012 32750 82505 10037 20007 39781 40259 52007 886// 333 10039;EQDQ01  00002PRCP99
0111110120999992000021221004+48050+014130FM-12+038899999V0202401N002619999999N9999999N1+00351-00031102631ADDAA199000091MA1999999097851REMSYN054AAXX  12214 11012 36/// /2405 10035 21003 39785 40263;EQDQ01  00002PRCP99
0111110120999992000021300004+48050+014130FM-12+038899999V0202401N002119999999N9999999N1+00211-00121102651ADDAA199000091MA1999999097841REMSYN054AAXX  13004 11012 36/// /2404 10021 21012 39784 40265;EQDQ01  00002PRCP99
0111110120999992000021303004+48050+014130FM-12+038899999V0202101N001519999999N9999999N1+00251-00031102501ADDAA199000091MA1999999097711REMSYN054AAXX  13034 11012 36/// /2103 10025 21003 39771 40250;EQDQ01  00002PRCP99
0204110120999992000021306004+48050+014130FM-12+038899999V0202401N002110360019N0150001N1+00431-00121102351ADDAA199000091GF107991021021017501021001IA2999-00209KA1120N+00141MA1999999097591MD1710121+9999REMSYN082AAXX  13064 11012 32765 72404 10043 21012 39759 40235 57012 82220 333 20014 3/102;EQDQ01  00002PRCP99
0153110120999992000021309004+48050+014130FM-12+038899999V0202601N002110210019N0350001N1+00491-00031102211ADDAA199000091GF108991081001022501041999MA1999999097471REMSYN070AAXX  13094 11012 32881 82604 10049 21003 39747 40221 8804/ 333 55300;EQDQ01  00002PRCP99
0173110120999992000021312004+48050+014130FM-12+038899999V0202501N001510360019N0400001N1+00721+00211101881ADDAA199000091GF108991031051022501041999MA1999999097201MD1810271+9999REMSYN076AAXX  13124 11012 32882 82503 10072 20021 39720 40188 58027 8354/ 333 55300;EQDQ01  00002PRCP99
0153110120999992000021315004+48050+014130FM-12+038899999V0202401N002110900019N0300001N1+00701+00171101701ADDAA199000091GF108991011001022501041061MA1999999097021REMSYN070AAXX  13154 11012 32880 82404 10070 20017 39702 40170 81046 333 55300;EQDQ01  00002PRCP99
0213110120999992000021318004+48050+014130FM-12+038899999V0202401N003110210019N0200001N1+00521+00321101741ADDAA112001091AY161061AY221061GF108991081051022501999999KA1120M+00731MA1999999097031MD1310011+9999MW1621REMSYN100AAXX  13184 11012 11870 82406 10052 20032 39703 40174 53001 60012 76262 885// 333 10073 90416 91115;
0120110120999992000021321004+48050+014130FM-12+038899999V0202901N003619999999N9999999N1+00361+00141102051ADDAA103005191MA1999999097301REMSYN082AAXX  13214 11012 2//// /2907 10036 20014 39730 40205 74044 333 60057 90402 91113;
0114110120999992000021400004+48050+014130FM-12+038899999V0202401N002119999999N9999999N1+00191+00051102321ADDAA106006191MA1999999097531REMSYN076AAXX  14004 11012 16/// /2404 10019 20005 39753 40232 60061 333 90432 91113;
0092110120999992000021403004+48050+014130FM-12+038899999V0202401N002119999999N9999999N1+00201-00031102381ADDAA199000021MA1999999097581REMSYN054AAXX  14034 11012 36/// /2404 10020 21003 39758 40238;
0191110120999992000021406004+48050+014130FM-12+038899999V0202401N002110210019N0200001N1+00161-00011102371ADDAA112006191GF106991051011022501001051IA2999+00009KA1120N+00161MA1999999097571MD1710011+9999REMSYN088AAXX  14064 11012 13870 62404 10016 21001 39757 40237 57001 60062 85105 333 20016 3/100;
0162110120999992000021409004+48050+014130FM-12+038899999V0202501N003110150019N0150001N1+00221+00011102471ADDAA199000021AY171031AY211031GF106991061001017501031999MA1999999097671MW1261REMSYN076AAXX  14094 11012 31765 62506 10022 20001 39767 40247 72671 8603/ 333 55304;
0172110120999992000021412004+48050+014130FM-12+038899999V0202701N002619999999N0180001N1+00351-00261102411ADDAA106000791GF107991071001012501071999MA1999999097641MD1810031+9999REMSYN094AAXX  14124 11012 13668 72705 10035 21026 39764 40241 58003 69901 8707/ 333 55303 90409 91114;
0146110120999992000021415004+48050+014130FM-12+038899999V0202701N003112200019N0200001N1+00361-00331102321ADDAA199000021GF102991021001022501031001MA1999999097551REMSYN082AAXX  14154 11012 32870 22706 10036 21033 39755 40232 82030 333 55300 90425 91114;
0185110120999992000021418004+48050+014130FM-12+038899999V0202601N001510150019N0200001N1+00271-00191102461ADDAA112000791GF108991081001017501071999KA1120M+00421MA1999999097671MD1210121+9999REMSYN094AAXX  14184 11012 13770 82603 10027 21019 39767 40246 52012 69902 8807/ 333 10042 90455 91114;
0092110120999992000021421004+48050+014130FM-12+038899999V0202501N001519999999N9999999N1+00161-00111102431ADDAA199000021MA1999999097621REMSYN054AAXX  14214 11012 36/// /2503 10016 21011 39762 40243;
0111110120999992000021500004+48050+014130FM-12+038899999V0202201N000519999999N9999999N1+00091-00121102251ADDAA199000091MA1999999097441REMSYN054AAXX  15004 11012 36/// /2201 10009 21012 39744 40225;EQDQ01  00002PRCP99
0111110120999992000021503004+48050+014130FM-12+038899999V0202201N000519999999N9999999N1+00071-00091102061ADDAA199000091MA1999999097261REMSYN054AAXX  15034 11012 36/// /2201 10007 21009 39726 40206;EQDQ01  00002PRCP99
0145110120999992000021506004+48050+014130FM-12+038899999V0200301N000519999999N9999999N1+00031-00061101941ADDAA112000591IA2999-00209KA1120N+00001MA1999999097141REMSYN082AAXX  15064 11012 1//// /0301 10003 21006 39714 40194 69962 740// 333 20000 3/102;
0168110120999992000021509004+48050+014130FM-12+038899999V0202201N000510021019N0012001N1+00131+00071101861ADDAA103002091AY151031AY221031GF108991081051002501999999MA1999999097081MW1511REMSYN082AAXX  15094 11012 21312 82201 10013 20007 39708 40186 75152 885// 333 55300 60027;
0126110120999992000021512004+48050+014130FM-12+038899999V0202401N003119999999N9999999N1+00681+00511101761ADDAA106002091MA1999999097081REMSYN088AAXX  15124 11012 1//// /2406 10068 20051 39708 40176 60021 7404/ 333 55300 90413 91113;
0162110120999992000021515004+48050+014130FM-12+038899999V0202301N002610360019N0300001N1+00771+00441101721ADDAA199000021AY151031AY221031GF108991041081008001071999MA1999999097051MW1201REMSYN076AAXX  15154 11012 31580 82305 10077 20044 39705 40172 72052 8487/ 333 55300;
0127110120999992000021518004+48050+014130FM-12+038899999V0202201N003119999999N9999999N1+00671+00391101671ADDAA112002091KA1999M+00771MA1999999096991REMSYN076AAXX  15184 11012 1//// /2206 10067 20039 39699 40167 60022 7404/ 333 10077;
0108110120999992000021521004+48050+014130FM-12+038899999V0202201N001519999999N9999999N1+00551+00401101561ADDAA103002091MA1999999096861REMSYN070AAXX  15214 11012 2//// /2203 10055 20040 39686 40156 7404/ 333 60027;
0098110120999992000021600004+48050+014130FM-12+038899999V0202201N002119999999N9999999N1+00581+00251101351ADDAA106002091MA1999999096671REMSYN060AAXX  16004 11012 16/// /2204 10058 20025 39667 40135 60021;
0092110120999992000021603004+48050+014130FM-12+038899999V0202001N002119999999N9999999N1+00521+00191100911ADDAA199000021MA1999999096241REMSYN054AAXX  16034 11012 36/// /2004 10052 20019 39624 40091;
0219110120999992000021606004+48050+014130FM-12+038899999V0200601N001010900019N0250001N1+00381+00211100551ADDAA112002091AY151061AY251061GF107991011001022501041061IA2999+00209KA1120N+00381MA1999999095871MD1810371+9999MW1511REMSYN094AAXX  16064 11012 11875 70602 10038 20021 39587 40055 58037 60022 75155 81046 333 20038 3/002;
0120110120999992000021612004+48050+014130FM-12+038899999V0202401N005119999999N9999999N1+00611+00191100561ADDAA106000891MA1999999095921REMSYN082AAXX  16124 11012 16/// /2410 10061 20019 39592 40056 69971 333 55300 90417 91120;
0114110120999992000021615004+48050+014130FM-12+038899999V0202401N004619999999N9999999N1+00391-00021100721ADDAA199000021MA1999999096031REMSYN076AAXX  16154 11012 36/// /2409 10039 21002 39603 40072 333 55300 90402 91116;
0133110120999992000021618004+48050+014130FM-12+038899999V0202301N002619999999N9999999N1+00191-00071100691ADDAA112000891KA1120M+00821MA1999999095971REMSYN082AAXX  16184 11012 16/// /2305 10019 21007 39597 40069 69972 333 10082 90428 91116;
0111110120999992000021621004+48050+014130FM-12+038899999V0202101N001519999999N9999999N1+00191-00211100511ADDAA199000091MA1999999095801REMSYN054AAXX  16214 11012 36/// /2103 10019 21021 39580 40051;EQDQ01  00002PRCP99
0111110120999992000021700004+48050+014130FM-12+038899999V0202401N002119999999N9999999N1+00221-00241100471ADDAA199000091MA1999999095771REMSYN054AAXX  17004 11012 36/// /2404 10022 21024 39577 40047;EQDQ01  00002PRCP99
0127110120999992000021703004+48050+014130FM-12+038899999V0202601N004119999999N9999999N1+00121-00381100671ADDAA199000091MA1999999095941REMSYN070AAXX  17034 11012 36/// /2608 10012 21038 39594 40067 333 90406 91113;EQDQ01  00002PRCP99
0233110120999992000021706004+48050+014130FM-12+038899999V0202401N003112200019N0100001N1-00051-00431100751ADDAA199000091GF104991021001022501061051IA2999-00209KA1120N-00051MA1999999095991MD1010051+9999OA149900671REMSYN100AAXX  17064 11012 32860 42406 11005 21043 39599 40075 50005 82065 333 21005 3/102 90420 91113 92600;EQDQ01  00002PRCP99
0173110120999992000021712004+48050+014130FM-12+038899999V0202401N002619999999N0300001N1+00231-00381100561ADDAA199000091GF108991081001012501071999MA1999999095851MD1810021+9999REMSYN076AAXX  17124 11012 32680 82405 10023 21038 39585 40056 58002 8807/ 333 55300;EQDQ01  00002PRCP99
0133110120999992000021715004+48050+014130FM-12+038899999V0202401N002619999999N9999999N1+00171-00171100651ADDAA199000091MA1999999095931REMSYN076AAXX  17154 11012 36/// /2405 10017 21017 39593 40065 333 55300 90418 91113;EQDQ01  00002PRCP99
0213110120999992000021718004+48050+014130FM-12+038899999V0202401N003619999999N0100001N1+00031-00211100991ADDAA112000891AY181061AY221061GF108991081001008001071999KA1120M+00261MA1999999096231MD1310301+9999MW1701REMSYN100AAXX  17184 11012 11560 82407 10003 21021 39623 40099 53030 69982 77082 8807/ 333 10026 90448 91113;
0120110120999992000021721004+48050+014130FM-12+038899999V0202401N003119999999N9999999N1-00061-00191101171ADDAA103000591MA1999999096391REMSYN082AAXX  17214 11012 2//// /2406 11006 21019 39639 40117 7404/ 333 69947 90426 91113;
0114110120999992000021800004+48050+014130FM-12+038899999V0202501N003619999999N9999999N1+00011-00271101421ADDAA106000591MA1999999096641REMSYN076AAXX  18004 11012 16/// /2507 10001 21027 39664 40142 69941 333 90456 91113;
0117110120999992000021801004+48050+014130FM-15+038899999V02099999999992200019N9999999N1+99999+99999999999ADDMW1001REMMET0800120Z ETHC 21003KT 9999 BKN025 M01/M01 Q1010 BLU FCST CANCEL QNH: 1 0 1 0 29.82;EQDQ01+000000PRSWM2
0092110120999992000021803004+48050+014130FM-12+038899999V0202401N003119999999N9999999N1-00091-00281101561ADDAA199000021MA1999999096751REMSYN054AAXX  18034 11012 36/// /2406 11009 21028 39675 40156;
0139110120999992000021806004+48050+014130FM-12+038899999V0202301N002119999999N9999999N1-00121-00301101641ADDAA112000591IA2999-00309KA1120N-00141MA1999999096821REMSYN076AAXX  18064 11012 16/// /2304 11012 21030 39682 40164 69942 333 21014 3/103;
0168110120999992000021809004+48050+014130FM-12+038899999V0202401N002110150019N0150001N1+00051-00161101621ADDAA103000191AY171031AY211031GF107991071001017501031999MA1999999096831MW1221REMSYN082AAXX  18094 11012 21765 72404 10005 21016 39683 40162 72271 8703/ 333 55302 69927;
0091110120999992000021812004+48050+014130FM-12+038899999V0202401N001519999999N9999999N1+00311-00331101311ADDMA1999999096581REMSYN064AAXX  18124 11012 46/// /2403 10031 21033 39658 40131 333 55309;
0134110120999992000021815004+48050+014130FM-12+038899999V0200901N001510150019N0400001N1+00321-00381100971ADDAA199000021GF108991081001017501021999MA1999999096261REMSYN070AAXX  18154 11012 32782 80903 10032 21038 39626 40097 8802/ 333 55300;
0121110120999992000021818004+48050+014130FM-12+038899999V0202301N001019999999N9999999N1+00191-00151100841ADDAA112000191KA1999M+00381MA1999999096111REMSYN070AAXX  18184 11012 16/// /2302 10019 21015 39611 40084 69922 333 10038;
0108110120999992000021821004+48050+014130FM-12+038899999V0200501N000519999999N9999999N1+00031-00021100621ADDAA103004191MA1999999095881REMSYN070AAXX  18214 11012 2//// /0501 10003 21002 39588 40062 7404/ 333 60047;
0104110120999992000021900004+48050+014130FM-12+038899999V0200201N000519999999N9999999N1+00051+00001100571ADDAA106007191MA1999999095831REMSYN066AAXX  19004 11012 1//// /0201 10005 20000 39583 40057 60071 7404/;
0102110120999992000021903004+48050+014130FM-12+038899999V0202301N002619999999N9999999N1+00241+00141100521ADDAA103002091MA1999999095821REMSYN064AAXX  19034 11012 26/// /2305 10024 20014 39582 40052 333 60027;
0261110120999992000021906004+48050+014130FM-12+038899999V0202601N002610075019N0200001N1+00321+00181100561ADDAA112009991AJ199999999999999AY161061AY221061GF108991081071008001999999IA2999+00009KA1120N+00021MA1999999095871MD1110051+9999MW1631REMSYN100AAXX  19064 11012 11570 82605 10032 20018 39587 40056 51005 60102 76362 887// 333 20002 3/000 41967;EQDQ01  09672SNDP  
0126110120999992000021909004+48050+014130FM-12+038899999V0202401N003619999999N9999999N1+00381+00211100611ADDAA103000591MA1999999095931REMSYN088AAXX  19094 11012 2//// /2407 10038 20021 39593 40061 7404/ 333 55301 69947 90418 91114;
0200110120999992000021912004+48050+014130FM-12+038899999V0202301N003110042019N0200001N1+00411+00221100721ADDAA106000591AY161061AY221061GF108991061071004501011999MA1999999096041MD1110111+9999MW1211REMSYN100AAXX  19124 11012 11470 82306 10041 20022 39604 40072 51011 69961 72162 8671/ 333 55300 90448 91114;
0180110120999992000021915004+48050+014130FM-12+038899999V0202401N002110021019N0100001N1+00431+00301100741ADDAA103001091AY161031AY221031GF108991081071002501999999MA1999999096061MW1621REMSYN094AAXX  19154 11012 21360 82404 10043 20030 39606 40074 76262 887// 333 55300 60017 90414 91115;
0213110120999992000021918004+48050+014130FM-12+038899999V0203001N001510021019N0080001N1+00291+00171100951ADDAA112005191AY161061AY221061GF108991061071002501021999KA1120M+00611MA1999999096241MD1310181+9999MW1641REMSYN100AAXX  19184 11012 11358 83003 10029 20017 39624 40095 53018 60052 76462 8672/ 333 10061 90444 91115;
0102110120999992000021921004+48050+014130FM-12+038899999V0202401N003119999999N9999999N1+00271+00141101081ADDAA103001091MA1999999096361REMSYN064AAXX  19214 11012 26/// /2406 10027 20014 39636 40108 333 60017;
0098110120999992000022000004+48050+014130FM-12+038899999V0202401N003119999999N9999999N1+00271+00131101181ADDAA106002091MA1999999096451REMSYN060AAXX  20004 11012 16/// /2406 10027 20013 39645 40118 60021;
0102110120999992000022003004+48050+014130FM-12+038899999V0202501N002119999999N9999999N1+00231+00111101321ADDAA103000591MA1999999096581REMSYN064AAXX  20034 11012 26/// /2504 10023 20011 39658 40132 333 69957;
0219110120999992000022006004+48050+014130FM-12+038899999V0202301N002110042019N0150001N1+00181+00041101511ADDAA112002091AY161061AY221061GF108991071071004501041999IA2999+00009KA1120N+00141MA1999999096751MD1210171+9999MW1021REMSYN094AAXX  20064 11012 11465 82304 10018 20004 39675 40151 52017 60022 70262 8774/ 333 20014 3/000;
0168110120999992000022009004+48050+014130FM-12+038899999V0202401N002610021019N0060001N1+00211+00081101711ADDAA103000191AY171031AY221031GF108991071071002501011999MA1999999096951MW1521REMSYN082AAXX  20094 11012 21356 82405 10021 20008 39695 40171 75272 8771/ 333 55300 69927;
0188110120999992000022012004+48050+014130FM-12+038899999V0202601N003110021019N0100001N1+00271+00081101871ADDAA106002091AY161061AY221061GF108991081051002501999999MA1999999097111MD1110161+9999MW1021REMSYN088AAXX  20124 11012 11360 82606 10027 20008 39711 40187 51016 60021 70262 885// 333 55300;
0168110120999992000022015004+48050+014130FM-12+038899999V0202501N002610021019N0060001N1+00241+00101102021ADDAA103002091AY171031AY221031GF108991081051002501999999MA1999999097251MW1601REMSYN082AAXX  20154 11012 21356 82505 10024 20010 39725 40202 76072 885// 333 55300 60027;
0201110120999992000022018004+48050+014130FM-12+038899999V0202601N002110042019N0120001N1+00171+00071102281ADDAA112006191AY171061AY221061GF107991071071004501001001KA1999M+00331MA1999999097481MD1310231+9999MW1221REMSYN088AAXX  20184 11012 11462 72604 10017 20007 39748 40228 53023 60062 72272 87700 333 10033;
0108110120999992000022021004+48050+014130FM-12+038899999V0203001N001519999999N9999999N1+00061-00041102521ADDAA103001091MA1999999097691REMSYN070AAXX  20214 11012 2//// /3003 10006 21004 39769 40252 7404/ 333 60017;
0092110120999992000022103004+48050+014130FM-12+038899999V0202601N002619999999N9999999N1-00041-00281102771ADDAA199000021MA1999999097911REMSYN054AAXX  21034 11012 36/// /2605 11004 21028 39791 40277;
0255110120999992000022106004+48050+014130FM-12+038899999V0202801N002110042019N0080001N1-00081-00281102851ADDAA112001091AJ199993999999999AL10699999GF107991071071004501001001IA1229IA2999-00309KA1120N-00101MA1999999097981MD1210071+9999REMSYN100AAXX  21064 11012 13458 72804 11008 21028 39798 40285 52007 60012 87700 333 21010 3/103 46997 93197;EQDQ01  09982SNDP  
0168110120999992000022109004+48050+014130FM-12+038899999V0202501N002610075019N0050001N1-00101-00271103021ADDAA103000191AY171031AY221031GF107991071071008001001061MA1999999098141MW1011REMSYN082AAXX  21094 11012 21550 72505 11010 21027 39814 40302 70172 87706 333 55300 69917;
0151110120999992000022115004+48050+014130FM-12+038899999V0202501N003610075019N0020001N1+00031-00361102991ADDAY171031AY221031GF108991061071008001011999MA1999999098131MW1751REMSYN076AAXX  21154 11012 41520 82507 10003 21036 39813 40299 77572 8671/ 333 55306;
0201110120999992000022118004+48050+014130FM-12+038899999V0202301N002112200019N0150001N1-00151-00411103051ADDAA112001091AY171061AY221061GF103991031021008001001001KA1999M+00251MA1999999098161MD1310031+9999MW1011REMSYN088AAXX  21184 11012 11565 32304 11015 21041 39816 40305 53003 60012 70172 83200 333 10025;
0092110120999992000022121004+48050+014130FM-12+038899999V0202301N001519999999N9999999N1-00141-00391103061ADDAA199000021MA1999999098171REMSYN054AAXX  21214 11012 36/// /2303 11014 21039 39817 40306;
0104110120999992000022200004+48050+014130FM-12+038899999V0202401N001519999999N9999999N1-00131-00261103001ADDAA106000191MA1999999098121REMSYN066AAXX  22004 11012 1//// /2403 11013 21026 39812 40300 69921 7404/;
0092110120999992000022203004+48050+014130FM-12+038899999V0202501N002119999999N9999999N1-00251-00401102931ADDAA199000021MA1999999098031REMSYN054AAXX  22034 11012 36/// /2504 11025 21040 39803 40293;
0236110120999992000022206004+48050+014130FM-12+038899999V0202201N001510150019N0070001N1-00471-00581102981ADDAA112000191AJ100029199999999AL10699999GF108991061061017501021999IA1239IA2999-00609KA1120N-00471MA1999999098041MD1210011+9999REMSYN100AAXX  22064 11012 13757 82203 11047 21058 39804 40298 52001 69922 8662/ 333 21047 3/106 47002 93197;
0153110120999992000022209004+48050+014130FM-12+038899999V0201601N000512200019N0100001N1-00221-00411102961ADDAA199000091GF104991001001999999001051MA1999999098061REMSYN070AAXX  22094 11012 33960 41601 11022 21041 39806 40296 80005 333 55309;EQDQ01  00002PRCP99
0173110120999992000022212004+48050+014130FM-12+038899999V0201601N000510360019N0100001N1+00091-00291102791ADDAA199000091GF105991021021008001031001MA1999999097951MD1810111+9999REMSYN076AAXX  22124 11012 32560 51601 10009 21029 39795 40279 58011 82230 333 55310;EQDQ01  00002PRCP99
0153110120999992000022215004+48050+014130FM-12+038899999V0203401N000510360019N0150001N1+00191-00321102631ADDAA199000091GF107991031051008001031999MA1999999097821REMSYN070AAXX  22154 11012 32565 73401 10019 21032 39782 40263 8353/ 333 55300;EQDQ01  00002PRCP99
0202110120999992000022218004+48050+014130FM-12+038899999V0200501N000510075019N0150001N1+00111-00261102651ADDAA199000091GF108991081051008001999999KA1999M+00241MA1999999097821MD1210021+9999REMSYN076AAXX  22184 11012 32565 80501 10011 21026 39782 40265 52000 885// 333 10024;EQDQ01+000002APC3  Q02  00002PRCP99
