0204123600999992000010100004+52580+019730FM-12+010999999V0202901N003010015019N0020001N1+00031-00051102441ADDAA106000791AY171061AY221061GA1081+001509069GF108991081061001501999999MA1999999101061MD1210031+9999MW1101REMSYN088AAXX  01001 12360 11220 82903 10003 21005 30106 40244 52003 69901 71072 886// 333 88705;
0197123600999992000010101004+52580+019730FM-12+010999999V0202801N003010012019N0015001N1-00011-00061102471ADDAY121999AY221999GA1081+001209079GF108991081061001501999999MA1999999101091MD1310051+9999MW1101REMSYN092AAXX  01011 12360 41215 82803 11001 21006 30109 40247 53005 71022 886// 333 88704 555 57003;
0187123600999992000010102004+52580+019730FM-12+010999999V0202901N003010012019N0020001N1-00021-00051102481ADDAY121999AY221999GA1081+001209069GF108991081061001501999999MA1999999101091MD1110041+9999MW1101REMSYN082AAXX  01021 12360 41220 82903 11002 21005 30109 40248 51004 71022 886// 333 88704;
0187123600999992000010103004+52580+019730FM-12+010999999V0202801N003010012019N0020001N1-00011-00061102511ADDAY121031AY221031GA1081+001209069GF108991081061001501999999MA1999999101121MD1210061+9999MW1101REMSYN082AAXX  01031 12360 41220 82803 11001 21006 30112 40251 52006 71022 886// 333 88704;
0187123600999992000010104004+52580+019730FM-12+010999999V0203001N003010009019N0015001N1-00021-00051102521ADDAY121999AY221999GA1081+000909069GF108991081061001501999999MA1999999101131MD1310041+9999MW1101REMSYN082AAXX  01041 12360 41215 83003 11002 21005 30113 40252 53004 71022 886// 333 88703;
0187123600999992000010105004+52580+019730FM-12+010999999V0203001N003010012019N0010001N1-00041-00071102501ADDAY121999AY221999GA1081+001209069GF108991081061001501999999MA1999999101111MD1010021+9999MW1101REMSYN082AAXX  01051 12360 41210 83003 11004 21007 30111 40250 50002 71022 886// 333 88704;
0295123600999992000010106004+52580+019730FM-12+010999999V0202401N002010009019N0012001N1-00041-00071102501ADDAA112000791AJ100039199999999AY121061AY221061GA1081+000909069GF108991081061001501999999IA1279IA2999+00009KA1120M+00061KA2120N-00041MA1999999101111MD1610011+9999MW1101REMSYN118AAXX  01061 12360 11212 82402 11004 21007 30111 40250 56001 69902 71022 886// 333 10006 21004 3/100 43003 70002 88703;
0203123600999992000010107004+52580+019730FM-12+010999999V0202401N003010012019N0007001N1-00031-00061102511ADDAY121999AY221999GA1081+001209079GF108991081061001501999999MA1999999101121MD1510011+9999MW1461REMSYN098AAXX  01071 12360 41207 82403 11003 21006 30112 40251 55001 74622 886// 333 88704 555 57001 80061;
0187123600999992000010108004+52580+019730FM-12+010999999V0202501N003010006019N0010001N1-00071-00101102541ADDAY121999AY221999GA1081+000609069GF108991081061000751999999MA1999999101151MD1310041+9999MW1281REMSYN082AAXX  01081 12360 41110 82503 11007 21010 30115 40254 53004 72822 886// 333 88702;
0187123600999992000010109004+52580+019730FM-12+010999999V0202501N002010009019N0020001N1-00081-00111102541ADDAY141031AY221031GA1081+000909069GF108991081061000751999999MA1999999101151MD1110041+9999MW1101REMSYN082AAXX  01091 12360 41120 82502 11008 21011 30115 40254 51004 71042 886// 333 88703;
0187123600999992000010110004+52580+019730FM-12+010999999V0202501N003010009019N0020001N1-00101-00151102521ADDAY121999AY221999GA1081+000909069GF108991081061001501999999MA1999999101131MD1010011+9999MW1101REMSYN082AAXX  01101 12360 41220 82503 11010 21015 30113 40252 50001 71022 886// 333 88703;
0187123600999992000010111004+52580+019730FM-12+010999999V0202501N003010009019N0010001N1-00121-00151102471ADDAY121999AY221999GA1081+000909069GF108991081061000751999999MA1999999101081MD1810071+9999MW1101REMSYN082AAXX  01111 12360 41110 82503 11012 21015 30108 40247 58007 71022 886// 333 88703;
0217123600999992000010112004+52580+019730FM-12+010999999V0202401N003010009019N0020001N1-00151-00181102471ADDAA106000091AY141061AY221061GA1081+000909069GF108991081061000751999999MA1999999101081MD1610071+9999MW1281REMSYN082AAXX  01121 12360 31120 82403 11015 21018 30108 40247 56007 72842 886// 333 88703;EQDQ01  00002PRCP06
0197123600999992000010113004+52580+019730FM-12+010999999V0202401N004010009019N0020001N1-00181-00211102481ADDAY121999AY221999GA1081+000909079GF108991081061000751999999MA1999999101091MD1510041+9999MW1101REMSYN092AAXX  01131 12360 41120 82404 11018 21021 30109 40248 55004 71022 886// 333 88703 555 57001;
0187123600999992000010114004+52580+019730FM-12+010999999V0202401N003010012019N0015001N1-00221-00281102481ADDAY121999AY221999GA1081+001209069GF108991081061001501999999MA1999999101081MD1010001+9999MW1101REMSYN082AAXX  01141 12360 41215 82403 11022 21028 30108 40248 50000 71022 886// 333 88704;
0187123600999992000010115004+52580+019730FM-12+010999999V0202201N004010012019N0028001N1-00241-00331102471ADDAY121031AY221031GA1081+001209069GF108991081061001501999999MA1999999101071MD1810011+9999MW1101REMSYN082AAXX  01151 12360 41228 82204 11024 21033 30107 40247 58001 71022 886// 333 88704;
0187123600999992000010116004+52580+019730FM-12+010999999V0201201N001010012019N0028001N1-00221-00281102461ADDAY121999AY221999GA1081+001209069GF108991081061001501999999MA1999999101061MD1710031+9999MW1101REMSYN082AAXX  01161 12360 41228 81201 11022 21028 30106 40246 57003 71022 886// 333 88704;
0187123600999992000010117004+52580+019730FM-12+010999999V0201601N002010015019N0025001N1-00221-00281102481ADDAY121999AY221999GA1081+001509069GF108991081061001501999999MA1999999101081MD1510001+9999MW1101REMSYN082AAXX  01171 12360 41225 81602 11022 21028 30108 40248 55000 71022 886// 333 88705;
0255123600999992000010118004+52580+019730FM-12+010999999V0201801N002010009019N0023001N1-00211-00271102481ADDAA106000091AY121061AY221061GA1081+000909069GF108991081061000751999999KA1120M-00031KA2120N-00251MA1999999101091MD1310021+9999MW1101REMSYN094AAXX  01181 12360 31123 81802 11021 21027 30109 40248 53002 71022 886// 333 11003 21025 88703;EQDQ01  00002PRCP06
0197123600999992000010119004+52580+019730FM-12+010999999V0201901N002010006019N0015001N1-00261-00291102501ADDAY121999AY221999GA1081+000609079GF108991081061000751999999MA1999999101101MD1210041+9999MW1101REMSYN092AAXX  01191 12360 41115 81902 11026 21029 30110 40250 52004 71022 886// 333 88702 555 57002;
0227123600999992000010120004+52580+019730FM-12+010999999V0201801N002010003019N0009001N1-00321-00331102511ADDAY121999AY221999GA1081+000309079GF108991081061000251999999MA1999999101111MD1210031+9999MW1461REMSYN122AAXX  01201 12360 41009 81802 11032 21033 30111 40251 52003 74622 886// 333 88701 555 01005 11005 21006 31022 416// 70006;
0187123600999992000010121004+52580+019730FM-12+010999999V0201901N002010003019N0004001N1-00361-00381102511ADDAY121031AY221031GA1081+000309069GF108991081061000251999999MA1999999101111MD1110021+9999MW1461REMSYN082AAXX  01211 12360 41004 81902 11036 21038 30111 40251 51002 74622 886// 333 88701;
0197123600999992000010122004+52580+019730FM-12+010999999V0201601N002010006019N0002001N1-00361-00381102541ADDAY141999AY241999GA1081+000609079GF108991081061000751999999MA1999999101141MD1210041+9999MW1461REMSYN092AAXX  01221 12360 41102 81602 11036 21038 30114 40254 52004 74644 886// 333 88702 555 61013;
0187123600999992000010123004+52580+019730FM-12+010999999V0201701N002010006019N0001001N1-00391-00411102581ADDAY141999AY241999GA1081+000609069GF108991081061000751999999MA1999999101171MD1310061+9999MW1481REMSYN082AAXX  01231 12360 41101 81702 11039 21041 30117 40258 53006 74844 886// 333 88702;
0217123600999992000010200004+52580+019730FM-12+010999999V0201601N002010006019N0001001N1-00431-00461102591ADDAA106000091AY121061AY221061GA1081+000609069GF108991081061000751999999MA1999999101181MD1110071+9999MW1481REMSYN082AAXX  02001 12360 31101 81602 11043 21046 30118 40259 51007 74822 886// 333 88702;EQDQ01  00002PRCP06
0197123600999992000010201004+52580+019730FM-12+010999999V0201701N002010006019N0002001N1-00481-00511102611ADDAY141999AY241999GA1081+000609079GF108991081061000751999999MA1999999101201MD1210061+9999MW1481REMSYN092AAXX  02011 12360 41102 81702 11048 21051 30120 40261 52006 74844 886// 333 88702 555 57001;
0187123600999992000010202004+52580+019730FM-12+010999999V0201701N002010006019N0001001N1-00531-00541102621ADDAY141999AY241999GA1081+000609069GF108991081061000751999999MA1999999101211MD1210041+9999MW1481REMSYN082AAXX  02021 12360 41101 81702 11053 21054 30121 40262 52004 74844 886// 333 88702;
0187123600999992000010203004+52580+019730FM-12+010999999V0201501N002010006019N0001001N1-00571-00611102631ADDAY141031AY241031GA1081+000609069GF108991081061000751999999MA1999999101211MD1110031+9999MW1481REMSYN082AAXX  02031 12360 41101 81502 11057 21061 30121 40263 51003 74844 886// 333 88702;
0187123600999992000010204004+52580+019730FM-12+010999999V0201701N002010006019N0002001N1-00641-00721102671ADDAY141999AY241999GA1081+000609069GF108991081061000751999999MA1999999101251MD1210051+9999MW1481REMSYN082AAXX  02041 12360 41102 81702 11064 21072 30125 40267 52005 74844 886// 333 88702;
0187123600999992000010205004+52580+019730FM-12+010999999V0201601N002010006019N0002001N1-00661-00741102711ADDAY141999AY241999GA1081+000609069GF108991081061000751999999MA1999999101291MD1310081+9999MW1481REMSYN082AAXX  02051 12360 41102 81602 11066 21074 30129 40271 53008 74844 886// 333 88702;
0302123600999992000010206004+52580+019730FM-12+010999999V0201701N001010009019N0004001N1-00711-00801102751ADDAA106000091AJ100039199999999AY141061AY241061GA1081+000909069GF108991081061000751999999IA1279IA2999-00709KA1120M-00211KA2120N-00721MA1999999101331MD1210121+9999MW1481REMSYN106AAXX  02061 12360 31104 81701 11071 21080 30133 40275 52012 74844 886// 333 11021 21072 3/107 43003 88703;EQDQ01  00002PRCP06
0203123600999992000010207004+52580+019730FM-12+010999999V0201601N002010009019N0010001N1-00711-00801102761ADDAY141999AY221999GA1081+000909079GF108991081061001501999999MA1999999101341MD1110091+9999MW1281REMSYN098AAXX  02071 12360 41210 81602 11071 21080 30134 40276 51009 72842 886// 333 88703 555 57002 80061;
0161123600999992000010208004+52580+019730FM-12+010999999V0201601N002010012019N0020001N1-00731-00791102821ADDAY121999AY221999GF108991081061001501999999MA1999999101391MD1210101+9999MW1101REMSYN072AAXX  02081 12360 41220 81602 11073 21079 30139 40282 52010 71022 886//;
0161123600999992000010209004+52580+019730FM-12+010999999V0201601N002019999999N0030001N1-00691-00811102821ADDAY141031AY221031GF107991071001999999031999MA1999999101401MD1210071+9999MW1101REMSYN072AAXX  02091 12360 41930 71602 11069 21081 30140 40282 52007 71042 8703/;
0161123600999992000010210004+52580+019730FM-12+010999999V0201701N002019999999N0030001N1-00621-00731102831ADDAY121999AY221999GF108991081001999999071999MA1999999101411MD1110071+9999MW1101REMSYN072AAXX  02101 12360 41930 81702 11062 21073 30141 40283 51007 71022 8807/;
0161123600999992000010211004+52580+019730FM-12+010999999V0201701N002010150019N0028001N1-00571-00671102801ADDAY121999AY221999GF108991051051017501071999MA1999999101381MD1810011+9999MW1101REMSYN072AAXX  02111 12360 41728 81702 11057 21067 30138 40280 58001 71022 8557/;
0191123600999992000010212004+52580+019730FM-12+010999999V0201701N002010120019N0028001N1-00531-00631102751ADDAA106000091AY141061AY221061GF108991051051012501071999MA1999999101331MD1810071+9999MW1101REMSYN072AAXX  02121 12360 31628 81702 11053 21063 30133 40275 58007 71042 8557/;EQDQ01  00002PRCP06
0170123600999992000010213004+52580+019730FM-12+010999999V0201801N002010120019N0028001N1-00441-00471102681ADDAY121999AY221999GF108991081051012501999999MA1999999101271MD1810141+9999MW1101REMSYN081AAXX  02131 12360 41628 81802 11044 21047 30127 40268 58014 71022 885// 55 57003;
0161123600999992000010214004+52580+019730FM-12+010999999V0201901N002010120019N0028001N1-00411-00491102721ADDAY121999AY221999GF108991081051012501999999MA1999999101311MD1510071+9999MW1101REMSYN072AAXX  02141 12360 41628 81902 11041 21049 30131 40272 55007 71022 885//;
0187123600999992000010215004+52580+019730FM-12+010999999V0201801N002010018019N0025001N1-00361-00441102691ADDAY121031AY221031GA1071+001809069GF108991071061001501999999MA1999999101281MD1710051+9999MW1221REMSYN082AAXX  02151 12360 41225 81802 11036 21044 30128 40269 57005 72222 876// 333 87706;
0187123600999992000010216004+52580+019730FM-12+010999999V0201901N002010015019N0020001N1-00351-00421102651ADDAY121999AY221999GA1081+001509069GF108991081061001501999999MA1999999101251MD1810021+9999MW1101REMSYN082AAXX  02161 12360 41220 81902 11035 21042 30125 40265 58002 71022 886// 333 88705;
0187123600999992000010217004+52580+019730FM-12+010999999V0201801N002010012019N0018001N1-00301-00371102621ADDAY121999AY221999GA1081+001209069GF108991081061001501999999MA1999999101221MD1710091+9999MW1771REMSYN082AAXX  02171 12360 41218 81802 11030 21037 30122 40262 57009 77722 886// 333 88704;
0242123600999992000010218004+52580+019730FM-12+010999999V0202101N002010009019N0013001N1-00241-00271102571ADDAA112000791AY171061AY221061GA1081+000909069GF108991081071001501999999KA1120M-00231KA2120N-00731MA1999999101171MD1810111+9999MW1711REMSYN100AAXX  02181 12360 11213 82102 11024 21027 30117 40257 58011 69902 77172 887// 333 11023 21073 88703;
0197123600999992000010219004+52580+019730FM-12+010999999V0202301N003010006019N0010001N1-00181-00201102531ADDAY171999AY221999GA1081+000609079GF108991081061000751999999MA1999999101141MD1710111+9999MW1221REMSYN092AAXX  02191 12360 41110 82303 11018 21020 30114 40253 57011 72272 886// 333 88702 555 57001;
0227123600999992000010220004+52580+019730FM-12+010999999V0202201N004010003019N0006001N1-00101-00111102501ADDAY121999AY221999GA1081+000309079GF108991081061000251999999MA1999999101111MD1610111+9999MW1461REMSYN122AAXX  02201 12360 41006 82204 11010 21011 30111 40250 56011 74622 886// 333 88701 555 01005 11005 21005 31072 415// 71021;
0187123600999992000010221004+52580+019730FM-12+010999999V0202301N004010015019N0012001N1-00021-00051102471ADDAY171031AY221031GA1081+001509069GF108991081061001501999999MA1999999101081MD1710091+9999MW1281REMSYN082AAXX  02211 12360 41212 82304 11002 21005 30108 40247 57009 72872 886// 333 88705;
0197123600999992000010222004+52580+019730FM-12+010999999V0202401N003010015019N0022001N1+00031+00001102391ADDAY121999AY221999GA1081+001509079GF108991081061001501999999MA1999999101011MD1810131+9999MW1101REMSYN092AAXX  02221 12360 41222 82403 10003 20000 30101 40239 58013 71022 886// 333 88705 555 61044;
0187123600999992000010223004+52580+019730FM-12+010999999V0202401N005010018019N0030001N1+00041+00011102311ADDAY121999AY221999GA1081+001809069GF108991081061001501999999MA1999999100931MD1810181+9999MW1101REMSYN082AAXX  02231 12360 41230 82405 10004 20001 30093 40231 58018 71022 886// 333 88706;
0178123600999992000010300004+52580+019730FM-12+010999999V0202501N006010021019N0040001N1+00101+00051102191ADDAA106000791AY171061AY241061GF108991081061002501999999MA1999999100811MD1810271+9999MW1101REMSYN078AAXX  03001 12360 11340 82506 10010 20005 30081 40219 58027 69901 71074 886//;
0171123600999992000010301004+52580+019730FM-12+010999999V0202601N005010021019N0035001N1+00161+00091102151ADDAY121999AY221999GF108991081061002501999999MA1999999100781MD1710231+9999MW1101REMSYN082AAXX  03011 12360 41335 82605 10016 20009 30078 40215 57023 71022 886// 555 57002;
0187123600999992000010302004+52580+019730FM-12+010999999V0202601N005010015019N0030001N1+00161+00111102101ADDAY151999AY221999GA1061+001509069GF108991061071001501021999MA1999999100731MD1710201+9999MW1611REMSYN082AAXX  03021 12360 41230 82605 10016 20011 30073 40210 57020 76152 8672/ 333 86705;
0187123600999992000010303004+52580+019730FM-12+010999999V0202701N006010012019N0030001N1+00181+00131102071ADDAY151031AY221031GA1061+001209069GF108991061071001501021999MA1999999100701MD1710111+9999MW1611REMSYN082AAXX  03031 12360 41230 82706 10018 20013 30070 40207 57011 76152 8672/ 333 86704;
0199123600999992000010304004+52580+019730FM-12+010999999V0202801N007010009019N0012001N1+00181+00161102041ADDAY161999AY261999GA1071+000909079GF108991071071000751999999MA1999999100671MD1610111+9999MW1611REMSYN094AAXX  03041 12360 41112 82807 10018 20016 30067 40204 56011 76166 877// 333 87703 91012 91112;
0199123600999992000010305004+52580+019730FM-12+010999999V0202801N007010009019N0006001N1+00181+00161102081ADDAY121999AY221999GA1081+000909079GF108991081061000751999999MA1999999100711MD1510021+9999MW1461REMSYN094AAXX  03051 12360 41106 82807 10018 20016 30071 40208 55002 74622 886// 333 88703 91012 91113;
0301123600999992000010306004+52580+019730FM-12+010999999V0202801N007010018019N0013001N1+00221+00201102091ADDAA112000591AJ100029199999999AY161061AY251061GA1081+001809079GF108991081061001501999999IA1309IA2999-00209KA1120M+00221KA2120N-00241MA1999999100721MD1310021+9999MW1281REMSYN124AAXX  03061 12360 11213 82807 10022 20020 30072 40209 53002 69942 72865 886// 333 10022 21024 3/102 42002 70004 88706 91113;
0215123600999992000010307004+52580+019730FM-12+010999999V0202801N006010009019N0011001N1+00251+00201102121ADDAY121999AY221999GA1081+000909079GF108991081061001501999999MA1999999100751MD1210081+9999MW1101REMSYN110AAXX  03071 12360 41211 82806 10025 20020 30075 40212 52008 71022 886// 333 88703 91011 91111 555 57001 80051;
0187123600999992000010308004+52580+019730FM-12+010999999V0202801N005010006019N0007001N1+00231+00181102131ADDAY121999AY221999GA1081+000609069GF108991081061000751999999MA1999999100761MD1210051+9999MW1461REMSYN082AAXX  03081 12360 41107 82805 10023 20018 30076 40213 52005 74622 886// 333 88702;
0193123600999992000010309004+52580+019730FM-12+010999999V0202801N005010012019N0005001N1+00231+00181102121ADDAY121031AY221031GA1081+001209079GF108991081061001501999999MA1999999100751MD1010031+9999MW1461REMSYN088AAXX  03091 12360 41205 82805 10023 20018 30075 40212 50003 74622 886// 333 88704 91111;
0199123600999992000010310004+52580+019730FM-12+010999999V0202701N005010012019N0025001N1+00281+00231102111ADDAY121999AY221999GA1081+001209079GF108991081061001501999999MA1999999100741MD1810011+9999MW1281REMSYN094AAXX  03101 12360 41225 82705 10028 20023 30074 40211 58001 72822 886// 333 88704 91011 91111;
0199123600999992000010311004+52580+019730FM-12+010999999V0202801N006010018019N0020001N1+00281+00231102081ADDAY121999AY221999GA1081+001809079GF108991081061001501999999MA1999999100721MD1710041+9999MW1101REMSYN094AAXX  03111 12360 41220 82806 10028 20023 30072 40208 57004 71022 886// 333 88706 91011 91111;
0223123600999992000010312004+52580+019730FM-12+010999999V0202901N006010015019N0020001N1+00311+00241102031ADDAA106000091AY141061AY221061GA1081+001509089GF108991081061001501999999MA1999999100671MD1810081+9999MW1101REMSYN088AAXX  03121 12360 31220 82906 10031 20024 30067 40203 58008 71042 886// 333 88805 91111;EQDQ01  00002PRCP06
0209123600999992000010313004+52580+019730FM-12+010999999V0202501N004010018019N0013001N1+00251+00201102041ADDAY121999AY221999GA1081+001809079GF108991081061001501999999MA1999999100671MD1610071+9999MW1101REMSYN104AAXX  03131 12360 41213 82504 10025 20020 30067 40204 56007 71022 886// 333 88706 91010 91110 555 57004;
0187123600999992000010314004+52580+019730FM-12+010999999V0202501N003010003019N0004001N1+00231+00211102031ADDAY121999AY221999GA1081+000309069GF108991081061000251999999MA1999999100661MD1710061+9999MW1461REMSYN082AAXX  03141 12360 41004 82503 10023 20021 30066 40203 57006 74622 886// 333 88701;
0193123600999992000010315004+52580+019730FM-12+010999999V0202401N004010006019N0009001N1+00201+00201102011ADDAY141031AY221031GA1071+000609079GF108991071071000751999999MA1999999100641MD1810031+9999MW1611REMSYN088AAXX  03151 12360 41109 82404 10020 20020 30064 40201 58003 76142 877// 333 87702 91110;
0187123600999992000010316004+52580+019730FM-12+010999999V0202301N003010006019N0008001N1+00191+00171101981ADDAY161999AY221999GA1081+000609069GF108991081061000751999999MA1999999100611MD1810061+9999MW1461REMSYN082AAXX  03161 12360 41108 82303 10019 20017 30061 40198 58006 74662 886// 333 88702;
0187123600999992000010317004+52580+019730FM-12+010999999V0202301N003010015019N0009001N1+00171+00151101941ADDAY141999AY241999GA1081+001509069GF108991081061001501999999MA1999999100571MD1810091+9999MW1511REMSYN082AAXX  03171 12360 41209 82303 10017 20015 30057 40194 58009 75144 886// 333 88705;
0248123600999992000010318004+52580+019730FM-12+010999999V0202201N003010021019N0019001N1+00171+00151101921ADDAA112000191AY151061AY241061GA1071+002109079GF108991071071002501999999KA1120M+00331KA2120N+00171MA1999999100551MD1710091+9999MW1611REMSYN106AAXX  03181 12360 11319 82203 10017 20015 30055 40192 57009 69912 76154 877// 333 10033 20017 87707 91110;
0197123600999992000010319004+52580+019730FM-12+010999999V0202301N003010021019N0020001N1+00171+00151101891ADDAY161999AY221999GA1081+002109079GF108991081071002501999999MA1999999100521MD1710091+9999MW1211REMSYN092AAXX  03191 12360 41320 82303 10017 20015 30052 40189 57009 72162 887// 333 88707 555 57001;
0221123600999992000010320004+52580+019730FM-12+010999999V0202301N00401004201CN0028001N1+00181+00131101851ADDAY121999AY221999GA1021+003309069GF108991081051004501999999MA1999999100481MD1810091+9999MW1101REMSYN116AAXX  03201 12360 41428 82304 10018 20013 30048 40185 58009 71022 885// 333 82611 555 01005 11004 21005 31019 41304;
0187123600999992000010321004+52580+019730FM-12+010999999V0202301N00301004201CN0030001N1+00171+00121101841ADDAY161031AY221031GA1041+003009059GF108991081051004501999999MA1999999100471MD1710081+9999MW1101REMSYN082AAXX  03211 12360 41430 82303 10017 20012 30047 40184 57008 71062 885// 333 84610;
0219123600999992000010322004+52580+019730FM-12+010999999V0202201N004010042019N0035001N1+00191+00141101791ADDAY121999AY221999GA1031+002409079GA2081+004209069GF108991081051002501999999MA1999999100421MD1710101+9999MW1101REMSYN098AAXX  03221 12360 41335 82204 10019 20014 30042 40179 57010 71022 885// 333 83708 88614 555 60020;
0187123600999992000010323004+52580+019730FM-12+010999999V0202401N004010021019N0026001N1+00231+00181101731ADDAY121999AY221999GA1081+002109069GF108991081071002501999999MA1999999100371MD1810111+9999MW1611REMSYN082AAXX  03231 12360 41326 82404 10023 20018 30037 40173 58011 76122 887// 333 88707;
0204123600999992000010400004+52580+019730FM-12+010999999V0202501N005010015019N0025001N1+00251+00201101731ADDAA106000191AY161061AY221061GA1061+001509069GF108991061071001501021999MA1999999100371MD1610101+9999MW1611REMSYN088AAXX  04001 12360 11225 82505 10025 20020 30037 40173 56010 69921 76162 8672/ 333 86705;
0197123600999992000010401004+52580+019730FM-12+010999999V0202401N005010012019N0017001N1+00251+00231101711ADDAY161999AY221999GA1061+001209079GF108991061071001501021999MA1999999100351MD1710071+9999MW1611REMSYN092AAXX  04011 12360 41217 82405 10025 20023 30035 40171 57007 76162 8672/ 333 86704 555 57002;
0187123600999992000010402004+52580+019730FM-12+010999999V0202501N004010012019N0021001N1+00251+00231101681ADDAY161999AY221999GA1081+001209069GF108991081061001501999999MA1999999100321MD1810051+9999MW1211REMSYN082AAXX  04021 12360 41221 82504 10025 20023 30032 40168 58005 72162 886// 333 88704;
0187123600999992000010403004+52580+019730FM-12+010999999V0202401N004010012019N0013001N1+00231+00211101621ADDAY161031AY221031GA1081+001209069GF108991081061001501999999MA1999999100261MD1810111+9999MW1511REMSYN082AAXX  04031 12360 41213 82404 10023 20021 30026 40162 58011 75162 886// 333 88704;
0187123600999992000010405004+52580+019730FM-12+010999999V0202401N004010009019N0015001N1+00231+00211101561ADDAY151999AY251999GA1081+000909069GF108991081061001501999999MA1999999100201MD1710121+9999MW1511REMSYN082AAXX  04051 12360 41215 82404 10023 20021 30020 40156 57012 75155 886// 333 88703;
0197123600999992000010407004+52580+019730FM-12+010999999V0202401N004010009019N0017001N1+00241+00221101561ADDAY161999AY261999GA1061+000909079GF108991061071000751021999MA1999999100201MD1510041+9999MW1611REMSYN092AAXX  04071 12360 41117 82404 10024 20022 30020 40156 55004 76166 8672/ 333 86703 555 57001;
0187123600999992000010408004+52580+019730FM-12+010999999V0202501N005010012019N0017001N1+00271+00251101571ADDAY161999AY261999GA1061+001209069GF108991061071001501021999MA1999999100211MD1310011+9999MW1611REMSYN082AAXX  04081 12360 41217 82505 10027 20025 30021 40157 53001 76166 8672/ 333 86704;
0187123600999992000010409004+52580+019730FM-12+010999999V0202501N005010015019N0025001N1+00321+00271101581ADDAY161031AY261031GA1061+001509069GF108991061071001501021999MA1999999100221MD1210041+9999MW1611REMSYN082AAXX  04091 12360 41225 82505 10032 20027 30022 40158 52004 76166 8672/ 333 86705;
0193123600999992000010410004+52580+019730FM-12+010999999V0202501N005010012019N0022001N1+00351+00301101571ADDAY161999AY221999GA1061+001209079GF108991061071001501021999MA1999999100221MD1110021+9999MW1611REMSYN088AAXX  04101 12360 41222 82505 10035 20030 30022 40157 51002 76162 8672/ 333 86704 91111;
0199123600999992000010411004+52580+019730FM-12+010999999V0202601N005010012019N0025001N1+00381+00341101581ADDAY161999AY261999GA1061+001209079GF108991061071001501021999MA1999999100231MD1210021+9999MW1611REMSYN094AAXX  04111 12360 41225 82605 10038 20034 30023 40158 52002 76166 8672/ 333 86704 91010 91111;
0216123600999992000010412004+52580+019730FM-12+010999999V0202601N004010012019N0032001N1+00381+00311101571ADDAA106002091AY161061AY221061GA1061+001209079GF108991061071001501021999MA1999999100221MD1010001+9999MW1611REMSYN100AAXX  04121 12360 11232 82604 10038 20031 30022 40157 50000 60021 76162 8672/ 333 86704 91009 91111;
0209123600999992000010413004+52580+019730FM-12+010999999V0202601N004010006019N0017001N1+00341+00321101621ADDAY121999AY221999GA1081+000609079GF108991081061000751999999MA1999999100261MD1210041+9999MW1211REMSYN104AAXX  04131 12360 41117 82604 10034 20032 30026 40162 52004 72122 886// 333 88702 91009 91110 555 57004;
0193123600999992000010414004+52580+019730FM-12+010999999V0202801N005010015019N0025001N1+00351+00301101691ADDAY121999AY221999GA1051+001509079GF108991081051001501999999MA1999999100331MD1310101+9999MW1101REMSYN088AAXX  04141 12360 41225 82805 10035 20030 30033 40169 53010 71022 885// 333 85705 91111;
0187123600999992000010417004+52580+019730FM-12+010999999V0202301N00401001201CN0015001N1+00241+00221101721ADDAY121999AY221999GA1041+000909069GF108991081051001501999999MA1999999100361MD1310031+9999MW1101REMSYN082AAXX  04171 12360 41215 82304 10024 20022 30036 40172 53003 71022 885// 333 84703;
0248123600999992000010418004+52580+019730FM-12+010999999V0202201N003010042019N0017001N1+00221+00201101731ADDAA112002091AY161061AY221061GA1071+004209069GF107991071051004501999999KA1120M+00401KA2120N+00211MA1999999100371MD1210041+9999MW1101REMSYN106AAXX  04181 12360 11417 72203 10022 20020 30037 40173 52004 60022 71062 875// 333 10040 20021 87614 91111;
0171123600999992000010419004+52580+019730FM-12+010999999V0202201N003010075019N0018001N1+00231+00181101731ADDAY121999AY221999GF108991081051008001999999MA1999999100371MD1110021+9999MW1101REMSYN082AAXX  04191 12360 41518 82203 10023 20018 30037 40173 51002 71022 885// 555 57001;
0195123600999992000010420004+52580+019730FM-12+010999999V0202101N003010042019N0018001N1+00201+00151101691ADDAY121999AY221999GF108991081051004501999999MA1999999100331MD1810031+9999MW1101REMSYN106AAXX  04201 12360 41418 82103 10020 20015 30033 40169 58003 71022 885// 555 01005 11004 21005 30013 41304;
0187123600999992000010421004+52580+019730FM-12+010999999V0202101N002010021019N0012001N1+00211+00191101631ADDAY121031AY221031GA1081+002109069GF108991081061002501999999MA1999999100271MD1810101+9999MW1101REMSYN082AAXX  04211 12360 41312 82102 10021 20019 30027 40163 58010 71022 886// 333 88707;
0197123600999992000010422004+52580+019730FM-12+010999999V0201901N002010003019N0002001N1+00231+00211101581ADDAY121999AY221999GA1081+000309079GF108991081061000251999999MA1999999100221MD1710151+9999MW1461REMSYN092AAXX  04221 12360 41002 81902 10023 20021 30022 40158 57015 74622 886// 333 88701 555 60027;
0187123600999992000010423004+52580+019730FM-12+010999999V0202001N003010006019N0002001N1+00191+00191101511ADDAY141999AY241999GA1081+000609069GF108991081061000751999999MA1999999100151MD1710181+9999MW1461REMSYN082AAXX  04231 12360 41102 82003 10019 20019 30015 40151 57018 74644 886// 333 88702;
0217123600999992000010500004+52580+019730FM-12+010999999V0202001N003010003019N0003001N1+00191+00191101461ADDAA106000091AY121061AY221061GA1081+000309069GF108991081061000251999999MA1999999100101MD1710171+9999MW1421REMSYN082AAXX  05001 12360 31003 82003 10019 20019 30010 40146 57017 74222 886// 333 88701;EQDQ01  00002PRCP06
0171123600999992000010501004+52580+019730FM-12+010999999V0202001N004010021019N0017001N1+00151+00131101371ADDAY141999AY241999GF108991071071002501021999MA1999999100011MD1710211+9999MW1631REMSYN082AAXX  05011 12360 41317 82004 10015 20013 30001 40137 57021 76344 8772/ 555 57000;
0187123600999992000010502004+52580+019730FM-12+010999999V0201901N003010021019N0032001N1+00111+00091101241ADDAY171999AY271999GA1061+002109069GF108991061071002501021999MA1999999099881MD1810271+9999MW1681REMSYN082AAXX  05021 12360 41332 81903 10011 20009 39988 40124 58027 76877 8672/ 333 86707;
0187123600999992000010503004+52580+019730FM-12+010999999V0201901N004010018019N0023001N1+00101+00081101161ADDAY171031AY241031GA1061+001809069GF108991061071001501021999MA1999999099801MD1710301+9999MW1611REMSYN082AAXX  05031 12360 41223 81904 10010 20008 39980 40116 57030 76174 8672/ 333 86706;
0187123600999992000010504004+52580+019730FM-12+010999999V0201901N003010015019N0024001N1+00121+00101101091ADDAY161999AY261999GA1061+001509069GF108991061071001501021999MA1999999099731MD1610281+9999MW1611REMSYN082AAXX  05041 12360 41224 81903 10012 20010 39973 40109 56028 76166 8672/ 333 86705;
0187123600999992000010505004+52580+019730FM-12+010999999V0202001N003010015019N0018001N1+00141+00121101041ADDAY161999AY261999GA1061+001509069GF108991061071001501021999MA1999999099681MD1610201+9999MW1611REMSYN082AAXX  05051 12360 41218 82003 10014 20012 39968 40104 56020 76166 8672/ 333 86705;
0272123600999992000010506004+52580+019730FM-12+010999999V0202301N005010012019N0025001N1+00251+00231101001ADDAA112004191AY171061AY241061GA1061+001209069GF108991061071001501021999IA1119IA2999+00109KA1120M+00271KA2120N+00081MA1999999099651MD1610151+9999MW1611REMSYN112AAXX  05061 12360 11225 82305 10025 20023 39965 40100 56015 60042 76174 8672/ 333 10027 20008 32001 70059 86704;
0219123600999992000010507004+52580+019730FM-12+010999999V0202501N005010024019N0040001N1+00371+00301101031ADDAY161999AY221999GA1051+002409079GA2081+004209069GF108991081051002501999999MA1999999099681MD1510051+9999MW1211REMSYN098AAXX  05071 12360 41340 82505 10037 20030 39968 40103 55005 72162 885// 333 85708 88614 555 57001;
0193123600999992000010508004+52580+019730FM-12+010999999V0202501N005010045019N0050001N1+00421+00351101061ADDAY121999AY221999GA1071+004509099GF107991071091004501999999MA1999999099721MD1310041+9999MW1251REMSYN088AAXX  05081 12360 41450 72505 10042 20035 39972 40106 53004 72522 879// 333 87915 91110;
0199123600999992000010509004+52580+019730FM-12+010999999V0202501N005010027019N0040001N1+00471+00341101101ADDAY181031AY261031GA1051+002709079GF108991081051002501999999MA1999999099761MD1210111+9999MW1101REMSYN094AAXX  05091 12360 41396 82505 10047 20034 39976 40110 52011 71086 885// 333 85709 91010 91110;
0171123600999992000010510004+52580+019730FM-12+010999999V0202801N009010042019N0100001N1+00481+00231101131ADDAY121999AY221999GF106991051091004501031999MA1999999099791MD1210111+9999MW1251REMSYN082AAXX  05101 12360 41497 62809 10048 20023 39979 40113 52011 72522 8593/ 333 91113;
0149123600999992000010511004+52580+019730FM-12+010999999V0202701N007010075019N0200001N1+00451+00201101171ADDGF107991071051008001999999MA1999999099831MD1210111+9999REMSYN082AAXX  05111 12360 42598 72707 10045 20020 39983 40117 52011 875// 333 91013 91115;
0216123600999992000010512004+52580+019730FM-12+010999999V0202601N007010048019N0100001N1+00441+00191101211ADDAA106000891AY181061AY261061GA1081+004809099GF108991081091004501999999MA1999999099861MD1210101+9999MW1801REMSYN100AAXX  05121 12360 11497 82607 10044 20019 39986 40121 52010 69981 78086 889// 333 88916 91013 91115;
0199123600999992000010514004+52580+019730FM-12+010999999V0202801N008010048019N0100001N1+00381+00201101291ADDAY181999AY221999GA1081+004809099GF108991081091004501999999MA1999999099941MD1310111+9999MW1251REMSYN094AAXX  05141 12360 41497 82808 10038 20020 39994 40129 53011 72582 889// 333 88916 91013 91115;
0177123600999992000010515004+52580+019730FM-12+010999999V0202801N008010075019N0040001N1+00381+00201101381ADDAY181031AY221031GF108991081091008001999999MA1999999100031MD1310171+9999MW1801REMSYN088AAXX  05151 12360 41596 82808 10038 20020 30003 40138 53017 78082 889// 333 91015 91115;
0149123600999992000010516004+52580+019730FM-12+010999999V0202801N009010075019N0100001N1+00361+00171101471ADDGF108991081051008001999999MA1999999100121MD1310231+9999REMSYN082AAXX  05161 12360 42597 82809 10036 20017 30012 40147 53023 885// 333 91014 91115;
0199123600999992000010517004+52580+019730FM-12+010999999V0202801N007010045019N0100001N1+00321+00181101561ADDAY121999AY221999GA1081+004509069GF108991081051004501999999MA1999999100201MD1210261+9999MW1251REMSYN094AAXX  05171 12360 41497 82807 10032 20018 30020 40156 52026 72522 885// 333 88615 91013 91115;
0254123600999992000010518004+52580+019730FM-12+010999999V0202901N006010027019N0050001N1+00291+00201101641ADDAA112003091AY181061AY221061GA1081+002709099GF108991081091002501999999KA1120M+00511KA2120N+00251MA1999999100281MD1210251+9999MW1801REMSYN112AAXX  05181 12360 11350 82906 10029 20020 30028 40164 52025 60032 78082 889// 333 10051 20025 88909 91011 91115;
0203123600999992000010519004+52580+019730FM-12+010999999V0203001N006010039019N0100001N1+00291+00201101761ADDAY181999AY281999GA1081+003909099GF108991081091004501999999MA1999999100401MD1310281+9999MW1801REMSYN098AAXX  05191 12360 41497 83006 10029 20020 30040 40176 53028 78088 889// 333 88913 91113 555 57005;
0199123600999992000010521004+52580+019730FM-12+010999999V0203101N007010045019N0100001N1+00261+00141102021ADDAY181031AY281031GA1081+004509099GF108991081091004501999999MA1999999100651MD1210371+9999MW1801REMSYN094AAXX  05211 12360 41497 83107 10026 20014 30065 40202 52037 78088 889// 333 88915 91012 91113;
0197123600999992000010522004+52580+019730FM-12+010999999V0203201N005010045019N0100001N1+00251+00131102121ADDAY121999AY221999GA1081+004509069GF108991081051004501999999MA1999999100751MD1110351+9999MW1251REMSYN092AAXX  05221 12360 41497 83205 10025 20013 30075 40212 51035 72522 885// 333 88615 555 60030;
0143123600999992000010601004+52580+019730FM-12+010999999V0203101N003010075019N0100001N1+00191+00071102331ADDGF108991081051008001999999MA1999999100961MD1310211+9999REMSYN076AAXX  06011 12360 42597 83103 10019 20007 30096 40233 53021 885// 555 57005;
0133123600999992000010602004+52580+019730FM-12+010999999V0203101N003010075019N0100001N1+00161+00061102381ADDGF108991081051008001999999MA1999999101011MD1210201+9999REMSYN066AAXX  06021 12360 42597 83103 10016 20006 30101 40238 52020 885//;
0133123600999992000010603004+52580+019730FM-12+010999999V0203101N002010042019N0200001N1+00171+00021102391ADDGF107991071051004501999999MA1999999101021MD1110141+9999REMSYN066AAXX  06031 12360 42498 73102 10017 20002 30102 40239 51014 875//;
0133123600999992000010604004+52580+019730FM-12+010999999V0203101N001012200019N0200001N1+00121-00031102401ADDGF103991031051008001001001MA1999999101021MD1110061+9999REMSYN066AAXX  06041 12360 42598 33101 10012 21003 30102 40240 51006 83500;
0161123600999992000010605004+52580+019730FM-12+010999999V0209999C000012200019N0040001N1-00031-00111102451ADDAY101999AY201999GF103991011051008001031001MA1999999101061MD1210051+9999MW1101REMSYN072AAXX  06051 12360 41596 30000 11003 21011 30106 40245 52005 71000 81530;
0272123600999992000010606004+52580+019730FM-12+010999999V0201401N002010300019N0040001N1-00021-00101102481ADDAA112000191AY111061AY211061GA1031+004809059GF105991031051004501031011IA1149IA2999-00309KA1120M+00301KA2120N-00061MA1999999101091MD1310071+9999MW1101REMSYN112AAXX  06061 12360 11496 51402 11002 21010 30109 40248 53007 69922 71011 83531 333 10030 21006 34103 70033 83616;
0197123600999992000010607004+52580+019730FM-12+010999999V0201601N002010048019N0040001N1+00061-00041102491ADDAY121999AY221999GA1071+004809069GF107991071051004501999999MA1999999101111MD1110091+9999MW1101REMSYN092AAXX  06071 12360 41496 71602 10006 21004 30111 40249 51009 71022 875// 333 87616 555 57003;
0187123600999992000010608004+52580+019730FM-12+010999999V0201701N002010045019N0040001N1+00101-00031102541ADDAY121999AY221999GA1071+004509059GF107991071051004501999999MA1999999101161MD1210101+9999MW1101REMSYN082AAXX  06081 12360 41496 71702 10010 21003 30116 40254 52010 71022 875// 333 87615;
0159123600999992000010609004+52580+019730FM-12+010999999V0201501N002010042019N0100001N1+00141-00041102551ADDGA1071+004209059GF107991071051004501999999MA1999999101171MD1210081+9999REMSYN076AAXX  06091 12360 42497 71502 10014 21004 30117 40255 52008 875// 333 87614;
0159123600999992000010610004+52580+019730FM-12+010999999V0201701N003010039019N0100001N1+00161-00041102561ADDGA1071+003909059GF107991071051004501999999MA1999999101181MD1110071+9999REMSYN076AAXX  06101 12360 42497 71703 10016 21004 30118 40256 51007 875// 333 87613;
0159123600999992000010611004+52580+019730FM-12+010999999V0201901N002010039019N0100001N1+00181-00051102541ADDGA1081+003909059GF108991081051004501999999MA1999999101161MD1010001+9999REMSYN076AAXX  06111 12360 42497 81902 10018 21005 30116 40254 50000 885// 333 88613;
0189123600999992000010612004+52580+019730FM-12+010999999V0201801N003010036019N0100001N1+00171-00061102521ADDAA106000091GA1071+003609059GF107991071051004501999999MA1999999101141MD1810031+9999REMSYN076AAXX  06121 12360 32497 71803 10017 21006 30114 40252 58003 875// 333 87612;EQDQ01  00002PRCP06
0169123600999992000010613004+52580+019730FM-12+010999999V0201901N004010039019N0100001N1+00161-00071102501ADDGA1071+003909069GF107991071051004501999999MA1999999101121MD1710061+9999REMSYN086AAXX  06131 12360 42497 71904 10016 21007 30112 40250 57006 875// 333 87613 555 57010;
0159123600999992000010614004+52580+019730FM-12+010999999V0201801N003010045019N0100001N1+00201-00081102481ADDGA1051+004509059GF105991051051004501001001MA1999999101111MD1710051+9999REMSYN076AAXX  06141 12360 42497 51803 10020 21008 30111 40248 57005 85500 333 85615;
0161123600999992000010615004+52580+019730FM-12+010999999V0202101N002010750019N0040001N1+00101-00051102511ADDAY121031AY221031GF105991041051004501001021MA1999999101131MD1510011+9999MW1101REMSYN072AAXX  06151 12360 41496 52102 10010 21005 30113 40251 55001 71022 84502;
0161123600999992000010616004+52580+019730FM-12+010999999V0201901N002012200019N0050001N1+00041-00091102461ADDAY111999AY211999GF102991001001999999001011MA1999999101081MD1710041+9999MW1101REMSYN072AAXX  06161 12360 41950 21902 10004 21009 30108 40246 57004 71011 80001;
0161123600999992000010617004+52580+019730FM-12+010999999V0201801N002012200019N0033001N1-00011-00091102391ADDAY101999AY201999GF101991001001999999001011MA1999999101011MD1810101+9999MW1101REMSYN072AAXX  06171 12360 41933 11802 11001 21009 30101 40239 58010 71000 80001;
0211123600999992000010620004+52580+019730FM-12+010999999V0201501N003012200019N0040001N1-00051-00161102291ADDAY101999AY201999GA1001+999999999GF100991001001999999001001MA1999999100911MD1710101+9999MW1101REMSYN106AAXX  06201 12360 41996 01503 11005 21016 30091 40229 57010 71000 555 00004 10006 20002 31029 401// 70030;
0171123600999992000010621004+52580+019730FM-12+010999999V0201701N004012200019N0040001N1-00041-00171102241ADDAY101031AY201031GA1001+999999999GF100991001001999999001001MA1999999100861MD1810111+9999MW1101REMSYN066AAXX  06211 12360 41996 01704 11004 21017 30086 40224 58011 71000;
0181123600999992000010622004+52580+019730FM-12+010999999V0201601N003012200019N0040001N1-00061-00221102201ADDAY101999AY201999GA1001+999999999GF100991001001999999001001MA1999999100821MD1710121+9999MW1101REMSYN076AAXX  06221 12360 41996 01603 11006 21022 30082 40220 57012 71000 555 60009;
0143123600999992000010623004+52580+019730FM-12+010999999V0201701N004012200019N0100001N1-00061-00251102171ADDGA1001+999999999GF100991001001999999001001MA1999999100791MD1610121+9999REMSYN060AAXX  06231 12360 42997 01704 11006 21025 30079 40217 56012;
0173123600999992000010700004+52580+019730FM-12+010999999V0201601N004012200019N0100001N1-00081-00271102141ADDAA106000091GA1001+999999999GF100991001001999999001001MA1999999100761MD1710101+9999REMSYN060AAXX  07001 12360 32997 01604 11008 21027 30076 40214 57010;EQDQ01  00002PRCP06
0153123600999992000010701004+52580+019730FM-12+010999999V0201701N004012200019N0100001N1-00081-00241102151ADDGA1001+999999999GF100991001001999999001001MA1999999100771MD1510051+9999REMSYN070AAXX  07011 12360 42997 01704 11008 21024 30077 40215 55005 555 57008;
0161123600999992000010702004+52580+019730FM-12+010999999V0201701N003012200019N0040001N1-00111-00251102121ADDAY101999AY201999GF104991001001999999001061MA1999999100741MD1710051+9999MW1101REMSYN072AAXX  07021 12360 41996 41703 11011 21025 30074 40212 57005 71000 80006;
0161123600999992000010703004+52580+019730FM-12+010999999V0201801N002019999999N0040001N1-00091-00231102091ADDAY111031AY211031GF106991041001999999051061MA1999999100711MD1810051+9999MW1101REMSYN072AAXX  07031 12360 41996 61802 11009 21023 30071 40209 58005 71011 84056;
0161123600999992000010704004+52580+019730FM-12+010999999V0201801N002012200019N0040001N1-00091-00281102091ADDAY111999AY211999GF104991011001999999031081MA1999999100711MD1610061+9999MW1101REMSYN072AAXX  07041 12360 41996 41802 11009 21028 30071 40209 56006 71011 81038;
0161123600999992000010705004+52580+019730FM-12+010999999V0202101N003010075019N0040001N1-00051-00271102101ADDAY111999AY211999GF107991071051008001999999MA1999999100721MD1510021+9999MW1101REMSYN072AAXX  07051 12360 41596 72103 11005 21027 30072 40210 55002 71011 875//;
0285123600999992000010706004+52580+019730FM-12+010999999V0202101N003010045019N0040001N1-00021-00211102101ADDAA106000091AY111061AY211061GA1081+004509059GF108991081051004501999999IA1149IA2999-00209KA1120M+00001KA2120N-00111MA1999999100721MD1110011+9999MW1101REMSYN106AAXX  07061 12360 31496 82103 11002 21021 30072 40210 51001 71011 885// 333 10000 21011 34102 55002 88615;EQDQ01  00002PRCP06
0197123600999992000010707004+52580+019730FM-12+010999999V0202201N003010045019N0040001N1+00041-00201102131ADDAY121011AY221011GA1081+004509069GF108991081051004501999999MA1999999100751MD1210041+9999MW1101REMSYN092AAXX  07071 12360 41496 82203 10004 21020 30075 40213 52004 71022 885// 333 88615 555 57008;
0187123600999992000010708004+52580+019730FM-12+010999999V0202301N003010030019N0040001N1+00061-00151102221ADDAY121999AY221999GA1081+003009059GF108991081051004501999999MA1999999100841MD1310121+9999MW1101REMSYN082AAXX  07081 12360 41496 82303 10006 21015 30084 40222 53012 71022 885// 333 88610;
0187123600999992000010709004+52580+019730FM-12+010999999V0202301N003010030019N0050001N1+00081-00101102281ADDAY121031AY221031GA1081+003009059GF108991081051004501999999MA1999999100901MD1210181+9999MW1101REMSYN082AAXX  07091 12360 41450 82303 10008 21010 30090 40228 52018 71022 885// 333 88610;
0187123600999992000010710004+52580+019730FM-12+010999999V0202301N004010027019N0050001N1+00111-00041102281ADDAY121999AY221999GA1081+002709059GF108991081051002501999999MA1999999100901MD1110151+9999MW1101REMSYN082AAXX  07101 12360 41350 82304 10011 21004 30090 40228 51015 71022 885// 333 88609;
0187123600999992000010711004+52580+019730FM-12+010999999V0202301N004010024019N0040001N1+00131+00031102291ADDAY121999AY221999GA1081+002409069GF108991081061002501999999MA1999999100911MD1210071+9999MW1101REMSYN082AAXX  07111 12360 41340 82304 10013 20003 30091 40229 52007 71022 886// 333 88708;
0217123600999992000010712004+52580+019730FM-12+010999999V0202401N004010021019N0035001N1+00161+00091102291ADDAA106000091AY121061AY221061GA1081+002109069GF108991081061002501999999MA1999999100921MD1310021+9999MW1101REMSYN082AAXX  07121 12360 31335 82404 10016 20009 30092 40229 53002 71022 886// 333 88707;EQDQ01  00002PRCP06
0197123600999992000010713004+52580+019730FM-12+010999999V0202301N003010012019N0014001N1+00181+00111102311ADDAY121999AY221999GA1081+001209079GF108991081061001501999999MA1999999100941MD1210041+9999MW1101REMSYN092AAXX  07131 12360 41214 82303 10018 20011 30094 40231 52004 71022 886// 333 88704 555 57003;
0187123600999992000010714004+52580+019730FM-12+010999999V0202301N003010012019N0004001N1+00171+00151102351ADDAY121999AY221999GA1081+001209069GF108991081061001501999999MA1999999100981MD1310071+9999MW1461REMSYN082AAXX  07141 12360 41204 82303 10017 20015 30098 40235 53007 74622 886// 333 88704;
0187123600999992000010715004+52580+019730FM-12+010999999V0202301N003010009019N0002001N1+00191+00171102391ADDAY121031AY221031GA1081+000909069GF108991081061001501999999MA1999999101021MD1310101+9999MW1461REMSYN082AAXX  07151 12360 41202 82303 10019 20017 30102 40239 53010 74622 886// 333 88703;
0187123600999992000010716004+52580+019730FM-12+010999999V0202301N003010009019N0002001N1+00171+00151102411ADDAY141999AY241999GA1081+000909069GF108991081061001501999999MA1999999101041MD1110101+9999MW1441REMSYN082AAXX  07161 12360 41202 82303 10017 20015 30104 40241 51010 74444 886// 333 88703;
0187123600999992000010717004+52580+019730FM-12+010999999V0202201N003010006019N0001001N1+00161+00141102411ADDAY141999AY241999GA1081+000609069GF108991081061000751999999MA1999999101031MD1010051+9999MW1461REMSYN082AAXX  07171 12360 41101 82203 10016 20014 30103 40241 50005 74644 886// 333 88702;
0255123600999992000010718004+52580+019730FM-12+010999999V0202301N003010006019N0002001N1+00171+00171102411ADDAA106000091AY121061AY221061GA1081+000609069GF108991081061000751999999KA1120M+00201KA2120N-00021MA1999999101041MD1210021+9999MW1421REMSYN094AAXX  07181 12360 31102 82303 10017 20017 30104 40241 52002 74222 886// 333 10020 21002 88702;EQDQ01  00002PRCP06
0197123600999992000010719004+52580+019730FM-12+010999999V0202201N002010006019N0001001N1+00171+00171102441ADDAY141999AY241999GA1081+000609079GF108991081061000751999999MA1999999101061MD1310021+9999MW1461REMSYN092AAXX  07191 12360 41101 82202 10017 20017 30106 40244 53002 74644 886// 333 88702 555 57000;
0221123600999992000010720004+52580+019730FM-12+010999999V0202201N003010009019N0002001N1+00201+00201102451ADDAY141999AY241999GA1081+000909079GF108991081061001501999999MA1999999101081MD1210051+9999MW1511REMSYN116AAXX  07201 12360 41202 82203 10020 20020 30108 40245 52005 75144 886// 333 88703 555 00001 10002 20001 31019 401//;
0187123600999992000010721004+52580+019730FM-12+010999999V0202301N002010006019N0001001N1+00201+00201102451ADDAY141031AY241031GA1081+000609069GF108991081061000751999999MA1999999101081MD1110041+9999MW1511REMSYN082AAXX  07211 12360 41101 82302 10020 20020 30108 40245 51004 75144 886// 333 88702;
0197123600999992000010722004+52580+019730FM-12+010999999V0201901N002010006019N0001001N1+00211+00211102431ADDAY151999AY241999GA1081+000609079GF108991081061000751999999MA1999999101061MD1010001+9999MW1461REMSYN092AAXX  07221 12360 41101 81902 10021 20021 30106 40243 50000 74654 886// 333 88702 555 60008;
0187123600999992000010723004+52580+019730FM-12+010999999V0202101N002010009019N0002001N1+00211+00211102411ADDAY141999AY241999GA1081+000909069GF108991081061000751999999MA1999999101041MD1810041+9999MW1511REMSYN082AAXX  07231 12360 41102 82102 10021 20021 30104 40241 58004 75144 886// 333 88703;
0204123600999992000010800004+52580+019730FM-12+010999999V0202001N002010009019N0006001N1+00241+00241102421ADDAA106000791AY151061AY241061GA1081+000909069GF108991081061001501999999MA1999999101051MD1510031+9999MW1421REMSYN088AAXX  08001 12360 11206 82002 10024 20024 30105 40242 55003 69901 74254 886// 333 88703;
0197123600999992000010801004+52580+019730FM-12+010999999V0202201N002010012019N0013001N1+00221+00201102401ADDAY141999AY221999GA1081+001209079GF108991081061001501999999MA1999999101031MD1710031+9999MW1281REMSYN092AAXX  08011 12360 41213 82202 10022 20020 30103 40240 57003 72842 886// 333 88704 555 57000;
0187123600999992000010802004+52580+019730FM-12+010999999V0201901N001010024019N0020001N1+00211+00191102381ADDAY121999AY221999GA1081+002409069GF108991081061002501999999MA1999999101011MD1810031+9999MW1101REMSYN082AAXX  08021 12360 41320 81901 10021 20019 30101 40238 58003 71022 886// 333 88708;
0161123600999992000010803004+52580+019730FM-12+010999999V0201801N002010075019N0025001N1+00171+00151102331ADDAY141031AY221031GF108991081051008001999999MA1999999100961MD1810091+9999MW1101REMSYN072AAXX  08031 12360 41525 81802 10017 20015 30096 40233 58009 71042 885//;
0161123600999992000010804004+52580+019730FM-12+010999999V0201801N002010075019N0020001N1+00151+00131102281ADDAY121999AY221999GF108991081051008001999999MA1999999100911MD1810121+9999MW1101REMSYN072AAXX  08041 12360 41520 81802 10015 20013 30091 40228 58012 71022 885//;
0250123600999992000010806004+52580+019730FM-12+010999999V0201901N002019999999N0022001N1+00081+00061102271ADDAA112000791AY141061AY221061GF105991001001999999001081IA1149IA2999-00109KA1120M+00261KA2120N+00081MA1999999100891MD1710071+9999MW1101REMSYN106AAXX  08061 12360 11922 51902 10008 20006 30089 40227 57007 69902 71042 80008 333 10026 20008 34101 79999;
0171123600999992000010807004+52580+019730FM-12+010999999V0201801N002019999999N0020001N1+00031+00001102291ADDAY121999AY221999GF105991001001999999001081MA1999999100911MD1510001+9999MW1101REMSYN082AAXX  08071 12360 41920 51802 10003 20000 30091 40229 55000 71022 80008 555 57001;
0187123600999992000010808004+52580+019730FM-12+010999999V0201701N002010021019N0015001N1+00011-00021102331ADDAY121999AY221999GA1061+002109069GF106991061061002501999999MA1999999100951MD1310041+9999MW1101REMSYN082AAXX  08081 12360 41315 61702 10001 21002 30095 40233 53004 71022 866// 333 86707;
0187123600999992000010809004+52580+019730FM-12+010999999V0201901N002012200019N0028001N1+00061+00011102321ADDAY111031AY211031GA1021+002109069GF104991021061002501031011MA1999999100941MD1010051+9999MW1101REMSYN082AAXX  08091 12360 41328 41902 10006 20001 30094 40232 50005 71011 82631 333 82707;
0161123600999992000010810004+52580+019730FM-12+010999999V0202001N003012200019N0035001N1+00181+00061102271ADDAY101999AY201999GF103991021001999999031011MA1999999100901MD1810011+9999MW1101REMSYN072AAXX  08101 12360 41935 32003 10018 20006 30090 40227 58001 71000 82031;
0161123600999992000010811004+52580+019730FM-12+010999999V0202001N003012200019N0040001N1+00271+00081102231ADDAY101999AY201999GF103991021001999999031011MA1999999100861MD1810091+9999MW1101REMSYN072AAXX  08111 12360 41940 32003 10027 20008 30086 40223 58009 71000 82031;
0191123600999992000010812004+52580+019730FM-12+010999999V0201901N003010120019N0050001N1+00261+00091102191ADDAA106000091AY111061AY211061GF107991071051012501999999MA1999999100821MD1710121+9999MW1101REMSYN072AAXX  08121 12360 31650 71903 10026 20009 30082 40219 57012 71011 875//;EQDQ01  00002PRCP06
0171123600999992000010813004+52580+019730FM-12+010999999V0202001N003012200019N0050001N1+00281+00091102121ADDAY111999AY211999GF104991021051012501031011MA1999999100751MD1810151+9999MW1101REMSYN082AAXX  08131 12360 41650 42003 10028 20009 30075 40212 58015 71011 82531 555 57008;
0161123600999992000010814004+52580+019730FM-12+010999999V0202001N003019999999N0045001N1+00261+00071102121ADDAY111999AY211999GF105991021001999999031061MA1999999100751MD1610111+9999MW1101REMSYN072AAXX  08141 12360 41945 52003 10026 20007 30075 40212 56011 71011 82036;
0161123600999992000010815004+52580+019730FM-12+010999999V0202001N003019999999N0042001N1+00201+00051102131ADDAY111031AY211031GF106991021001999999031061MA1999999100761MD1510061+9999MW1101REMSYN072AAXX  08151 12360 41942 62003 10020 20005 30076 40213 55006 71011 82036;
0161123600999992000010816004+52580+019730FM-12+010999999V0202101N003010120019N0035001N1+00181+00061102151ADDAY121999AY221999GF107991071051012501999999MA1999999100781MD1310031+9999MW1101REMSYN072AAXX  08161 12360 41635 72103 10018 20006 30078 40215 53003 71022 875//;
0161123600999992000010817004+52580+019730FM-12+010999999V0202201N004010120019N0045001N1+00201+00051102171ADDAY121999AY221999GF108991081051012501999999MA1999999100801MD1210051+9999MW1101REMSYN072AAXX  08171 12360 41645 82204 10020 20005 30080 40217 52005 71022 885//;
0233123600999992000010818004+52580+019730FM-12+010999999V0202201N004010120019N0048001N1+00211+00041102191ADDAA106000091AY111061AY211061GF108991081051012501999999KA1120M+00301KA2999N-00011MA1999999100821MD1210061+9999MW1101REMSYN088AAXX  08181 12360 31648 82204 10021 20004 30082 40219 52006 71011 885// 333 10030 21001;EQDQ01  00002PRCP06
0171123600999992000010819004+52580+019730FM-12+010999999V0202201N004010120019N0050001N1+00191-00011102201ADDAY121999AY221999GF108991081051012501999999MA1999999100831MD1210051+9999MW1101REMSYN082AAXX  08191 12360 41650 82204 10019 21001 30083 40220 52005 71022 885// 555 57008;
0195123600999992000010820004+52580+019730FM-12+010999999V0202101N003010075019N0040001N1+00191-00031102221ADDAY121999AY221999GF108991081051008001999999MA1999999100851MD1210051+9999MW1101REMSYN106AAXX  08201 12360 41540 82103 10019 21003 30085 40222 52005 71022 885// 555 00002 10004 20000 31007 401//;
0161123600999992000010821004+52580+019730FM-12+010999999V0202001N003010075019N0040001N1+00141-00011102221ADDAY121031AY221031GF107991071051008001999999MA1999999100851MD1110031+9999MW1101REMSYN072AAXX  08211 12360 41540 72003 10014 21001 30085 40222 51003 71022 875//;
0171123600999992000010822004+52580+019730FM-12+010999999V0202101N003010075019N0040001N1+00141-00041102221ADDAY121999AY221999GF108991081051008001999999MA1999999100851MD1110021+9999MW1101REMSYN082AAXX  08221 12360 41540 82103 10014 21004 30085 40222 51002 71022 885// 555 60017;
0161123600999992000010823004+52580+019730FM-12+010999999V0202201N004010075019N0040001N1+00091-00091102231ADDAY121999AY221999GF106991061051008001999999MA1999999100851MD1410001+9999MW1101REMSYN072AAXX  08231 12360 41540 62204 10009 21009 30085 40223 54000 71022 865//;
0191123600999992000010900004+52580+019730FM-12+010999999V0202201N002010075019N0040001N1+00081-00051102241ADDAA106000091AY121061AY221061GF108991081051008001999999MA1999999100861MD1310011+9999MW1101REMSYN072AAXX  09001 12360 31540 82202 10008 21005 30086 40224 53001 71022 885//;EQDQ01  00002PRCP06
0171123600999992000010901004+52580+019730FM-12+010999999V0202301N002010075019N0040001N1+00121+00001102251ADDAY121999AY221999GF108991081051008001999999MA1999999100871MD1310021+9999MW1101REMSYN082AAXX  09011 12360 41540 82302 10012 20000 30087 40225 53002 71022 885// 555 57006;
0161123600999992000010902004+52580+019730FM-12+010999999V0201901N002010750019N0040001N1+00091-00041102261ADDAY121999AY221999GF107991041051012501001081MA1999999100881MD1210031+9999MW1101REMSYN072AAXX  09021 12360 41640 71902 10009 21004 30088 40226 52003 71022 84508;
0161123600999992000010903004+52580+019730FM-12+010999999V0202001N002019999999N0040001N1+00051-00051102261ADDAY121031AY221031GF105991001001999999001081MA1999999100881MD1110021+9999MW1101REMSYN072AAXX  09031 12360 41940 52002 10005 21005 30088 40226 51002 71022 80008;
0161123600999992000010904004+52580+019730FM-12+010999999V0202101N002010120019N0040001N1+00041-00061102241ADDAY121999AY221999GF107991071051012501999999MA1999999100861MD1810011+9999MW1101REMSYN072AAXX  09041 12360 41640 72102 10004 21006 30086 40224 58001 71022 875//;
0161123600999992000010905004+52580+019730FM-12+010999999V0201901N003010120019N0040001N1+00061-00041102241ADDAY121999AY221999GF107991071051012501999999MA1999999100861MD1610021+9999MW1101REMSYN072AAXX  09051 12360 41640 71903 10006 21004 30086 40224 56002 71022 875//;
0171123600999992000010907004+52580+019730FM-12+010999999V0202001N002010120019N0040001N1+00081-00071102321ADDAY121999AY221999GF108991081051012501999999MA1999999100941MD1310081+9999MW1101REMSYN082AAXX  09071 12360 41640 82002 10008 21007 30094 40232 53008 71022 885// 555 57007;
0161123600999992000010908004+52580+019730FM-12+010999999V0201901N002010150019N0040001N1+00081-00071102331ADDAY121999AY221999GF107991071051017501999999MA1999999100951MD1210091+9999MW1101REMSYN072AAXX  09081 12360 41740 71902 10008 21007 30095 40233 52009 71022 875//;
0161123600999992000010909004+52580+019730FM-12+010999999V0202101N002010150019N0040001N1+00111-00041102341ADDAY121031AY221031GF107991071051017501999999MA1999999100961MD1110081+9999MW1101REMSYN072AAXX  09091 12360 41740 72102 10011 21004 30096 40234 51008 71022 875//;
0161123600999992000010910004+52580+019730FM-12+010999999V0202201N002010150019N0050001N1+00171+00001102341ADDAY121999AY221999GF107991071051017501999999MA1999999100971MD1210031+9999MW1101REMSYN072AAXX  09101 12360 41750 72202 10017 20000 30097 40234 52003 71022 875//;
0161123600999992000010911004+52580+019730FM-12+010999999V0202301N002010120019N0040001N1+00281+00041102331ADDAY121999AY221999GF106991061051012501999999MA1999999100961MD1010011+9999MW1101REMSYN072AAXX  09111 12360 41696 62302 10028 20004 30096 40233 50001 71022 865//;
0191123600999992000010912004+52580+019730FM-12+010999999V0202301N003010300019N0040001N1+00361+00071102301ADDAA106000091AY121061AY221061GF105991031051012501031011MA1999999100941MD1810021+9999MW1101REMSYN072AAXX  09121 12360 31696 52303 10036 20007 30094 40230 58002 71022 83531;EQDQ01  00002PRCP06
0171123600999992000010913004+52580+019730FM-12+010999999V0202101N003010120019N0040001N1+00331+00091102331ADDAY121999AY221999GF107991071051012501999999MA1999999100961MD1510011+9999MW1101REMSYN082AAXX  09131 12360 41696 72103 10033 20009 30096 40233 55001 71022 875// 555 57015;
0161123600999992000010914004+52580+019730FM-12+010999999V0202201N003010120019N0050001N1+00301+00111102341ADDAY121999AY221999GF107991071051012501999999MA1999999100971MD1310011+9999MW1101REMSYN072AAXX  09141 12360 41650 72203 10030 20011 30097 40234 53001 71022 875//;
0161123600999992000010915004+52580+019730FM-12+010999999V0202201N002010120019N0050001N1+00261+00071102381ADDAY121031AY221031GF108991081051012501999999MA1999999101011MD1210071+9999MW1101REMSYN072AAXX  09151 12360 41650 82202 10026 20007 30101 40238 52007 71022 885//;
0187123600999992000010916004+52580+019730FM-12+010999999V0202101N003010030019N0040001N1+00231+00061102401ADDAY121999AY221999GA1081+003009059GF108991081051004501999999MA1999999101031MD1210071+9999MW1101REMSYN082AAXX  09161 12360 41440 82103 10023 20006 30103 40240 52007 71022 885// 333 88610;
0187123600999992000010917004+52580+019730FM-12+010999999V0202201N003010024019N0040001N1+00221+00071102421ADDAY121999AY221999GA1081+002409069GF108991081061002501999999MA1999999101051MD1110081+9999MW1101REMSYN082AAXX  09171 12360 41340 82203 10022 20007 30105 40242 51008 71022 886// 333 88708;
0255123600999992000010918004+52580+019730FM-12+010999999V0202401N003010018019N0025001N1+00211+00111102431ADDAA106000091AY121061AY221061GA1081+001809069GF108991081061001501999999KA1120M+00391KA2120N+00081MA1999999101061MD1210051+9999MW1101REMSYN094AAXX  09181 12360 31225 82403 10021 20011 30106 40243 52005 71022 886// 333 10039 20008 88706;EQDQ01  00002PRCP06
0197123600999992000010919004+52580+019730FM-12+010999999V0202401N003010018019N0025001N1+00201+00101102471ADDAY121999AY221999GA1081+001809079GF108991081061001501999999MA1999999101101MD1210071+9999MW1101REMSYN092AAXX  09191 12360 41225 82403 10020 20010 30110 40247 52007 71022 886// 333 88706 555 57005;
0221123600999992000010920004+52580+019730FM-12+010999999V0202401N003010015019N0015001N1+00181+00131102521ADDAY121999AY221999GA1081+001509079GF108991081061001501999999MA1999999101141MD1310091+9999MW1511REMSYN116AAXX  09201 12360 41215 82403 10018 20013 30114 40252 53009 75122 886// 333 88705 555 00007 10015 20001 31010 401//;
0187123600999992000010921004+52580+019730FM-12+010999999V0202501N002010006019N0009001N1+00181+00161102571ADDAY151031AY221031GA1081+000609069GF108991081061000751999999MA1999999101191MD1210131+9999MW1461REMSYN082AAXX  09211 12360 41109 82502 10018 20016 30119 40257 52013 74652 886// 333 88702;
0197123600999992000010922004+52580+019730FM-12+010999999V0202701N003010006019N0015001N1+00221+00201102601ADDAY141999AY221999GA1061+000609079GF108991061071000751021999MA1999999101231MD1210131+9999MW1611REMSYN092AAXX  09221 12360 41115 82703 10022 20020 30123 40260 52013 76142 8672/ 333 86702 555 60017;
0187123600999992000010923004+52580+019730FM-12+010999999V0202901N002010003019N0003001N1+00201+00201102631ADDAY161999AY241999GA1071+000309069GF108991071071000251021999MA1999999101251MD1110111+9999MW1611REMSYN082AAXX  09231 12360 41003 82902 10020 20020 30125 40263 51011 76164 8772/ 333 87701;
0204123600999992000011000004+52580+019730FM-12+010999999V0203001N002010003019N0004001N1+00211+00211102671ADDAA106000591AY151061AY241061GA1061+000309069GF108991061071000251021999MA1999999101291MD1210101+9999MW1611REMSYN088AAXX  10001 12360 11004 83002 10021 20021 30129 40267 52010 69951 76154 8672/ 333 86701;
0197123600999992000011001004+52580+019730FM-12+010999999V0203101N002010003019N0004001N1+00201+00201102711ADDAY161999AY241999GA1081+000309079GF108991081061000251999999MA1999999101331MD1310101+9999MW1441REMSYN092AAXX  10011 12360 41004 83102 10020 20020 30133 40271 53010 74464 886// 333 88701 555 57000;
0187123600999992000011002004+52580+019730FM-12+010999999V0203101N002010006019N0015001N1+00191+00171102781ADDAY141999AY221999GA1081+000609069GF108991081061000751999999MA1999999101401MD1310151+9999MW1281REMSYN082AAXX  10021 12360 41115 83102 10019 20017 30140 40278 53015 72842 886// 333 88702;
0187123600999992000011003004+52580+019730FM-12+010999999V0203101N003010003019N0006001N1+00161+00141102821ADDAY161031AY241031GA1081+000309069GF108991081061000251999999MA1999999101441MD1210151+9999MW1461REMSYN082AAXX  10031 12360 41006 83103 10016 20014 30144 40282 52015 74664 886// 333 88701;
0187123600999992000011004004+52580+019730FM-12+010999999V0203201N00301001201CN0025001N1+00121+00101102871ADDAY121999AY221999GA1041+000909069GF108991081051001501999999MA1999999101491MD1210161+9999MW1281REMSYN082AAXX  10041 12360 41225 83203 10012 20010 30149 40287 52016 72822 885// 333 84703;
0124123600999992000011005004+52580+019730FM-12+010999999V0203001N002019999999N0030001N1+00121+00071102931ADDGF108991999999008001999999MA1999999101551REMSYN071AAXX  10051 12360 41530 83002 10012 20007 30155 40293 5301 71022 885//;
0256123600999992000011006004+52580+019730FM-12+010999999V0203101N003010075019N0040001N1+00141+00071103021ADDAA112000591AY161061AY241061GF108991081051008001999999IA1119IA2999+00109KA1120M+00241KA2120N+00091MA1999999101641MD1310201+9999MW1101REMSYN112AAXX  10061 12360 11540 83103 10014 20007 30164 40302 53020 69952 71064 885// 333 10024 20009 32001 55016 70005;
0171123600999992000011007004+52580+019730FM-12+010999999V0202901N003010075019N0040001N1+00161+00061103081ADDAY121999AY221999GF108991061051008001031999MA1999999101701MD1210211+9999MW1101REMSYN082AAXX  10071 12360 41596 82903 10016 20006 30170 40308 52021 71022 8653/ 555 57003;
0161123600999992000011008004+52580+019730FM-12+010999999V0203001N003010075019N0040001N1+00161+00061103141ADDAY121999AY221999GF107991051051008001031999MA1999999101751MD1110201+9999MW1101REMSYN072AAXX  10081 12360 41596 73003 10016 20006 30175 40314 51020 71022 8553/;
0161123600999992000011009004+52580+019730FM-12+010999999V0202801N003010075019N0040001N1+00161+00041103211ADDAY121031AY221031GF108991061051008001031999MA1999999101821MD1210181+9999MW1101REMSYN072AAXX  10091 12360 41596 82803 10016 20004 30182 40321 52018 71022 8653/;
0161123600999992000011010004+52580+019730FM-12+010999999V0202901N004010075019N0040001N1+00201+00081103211ADDAY121999AY221999GF108991061051008001031999MA1999999101831MD1210131+9999MW1101REMSYN072AAXX  10101 12360 41596 82904 10020 20008 30183 40321 52013 71022 8653/;
0161123600999992000011011004+52580+019730FM-12+010999999V0203001N003010120019N0040001N1+00201+00101103241ADDAY121999AY221999GF108991061051012501031999MA1999999101861MD1210111+9999MW1101REMSYN072AAXX  10111 12360 41696 83003 10020 20010 30186 40324 52011 71022 8653/;
0191123600999992000011012004+52580+019730FM-12+010999999V0202801N003010120019N0040001N1+00241+00121103251ADDAA106000091AY121061AY221061GF107991071051012501999999MA1999999101871MD1210051+9999MW1101REMSYN072AAXX  10121 12360 31696 72803 10024 20012 30187 40325 52005 71022 875//;EQDQ01  00002PRCP06
0171123600999992000011013004+52580+019730FM-12+010999999V0202801N003010120019N0050001N1+00251+00111103271ADDAY121999AY221999GF107991071051012501999999MA1999999101891MD1210061+9999MW1101REMSYN082AAXX  10131 12360 41650 72803 10025 20011 30189 40327 52006 71022 875// 555 57006;
0161123600999992000011014004+52580+019730FM-12+010999999V0202901N002010120019N0050001N1+00271+00101103331ADDAY121999AY221999GF107991071051012501999999MA1999999101951MD1310091+9999MW1101REMSYN072AAXX  10141 12360 41650 72902 10027 20010 30195 40333 53009 71022 875//;
0161123600999992000011015004+52580+019730FM-12+010999999V0202801N003010120019N0040001N1+00241+00071103391ADDAY121031AY221031GF108991081051012501999999MA1999999102011MD1310141+9999MW1101REMSYN072AAXX  10151 12360 41696 82803 10024 20007 30201 40339 53014 71022 885//;
0161123600999992000011016004+52580+019730FM-12+010999999V0202901N003010120019N0040001N1+00211+00091103451ADDAY121999AY221999GF108991081051012501999999MA1999999102061MD1210171+9999MW1101REMSYN072AAXX  10161 12360 41696 82903 10021 20009 30206 40345 52017 71022 885//;
0161123600999992000011017004+52580+019730FM-12+010999999V0202901N003010120019N0050001N1+00201+00101103461ADDAY121999AY221999GF108991081051012501999999MA1999999102071MD1110121+9999MW1101REMSYN072AAXX  10171 12360 41650 82903 10020 20010 30207 40346 51012 71022 885//;
0233123600999992000011018004+52580+019730FM-12+010999999V0202901N003010120019N0050001N1+00191+00091103511ADDAA106000091AY121061AY221061GF108991081051012501999999KA1120M+00281KA2999N+00141MA1999999102121MD1210111+9999MW1101REMSYN088AAXX  10181 12360 31650 82903 10019 20009 30212 40351 52011 71022 885// 333 10028 20014;EQDQ01  00002PRCP06
0171123600999992000011019004+52580+019730FM-12+010999999V0202901N003010120019N0040001N1+00171+00071103531ADDAY121999AY221999GF108991081051012501999999MA1999999102141MD1210081+9999MW1101REMSYN082AAXX  10191 12360 41640 82903 10017 20007 30214 40353 52008 71022 885// 555 57005;
0189123600999992000011020004+52580+019730FM-12+010999999V0202901N003010120019N0040001N1+00141+00041103591ADDAY121999AY221999GF108991081051012501999999MA1999999102201MD1210131+9999MW1101REMSYN100AAXX  10201 12360 41640 82903 10014 20004 30220 40359 52013 71022 885// 555 00015 10017 20012 30008;
0161123600999992000011021004+52580+019730FM-12+010999999V0202901N003010120019N0040001N1+00141-00011103611ADDAY121031AY221031GF107991071051012501999999MA1999999102221MD1210101+9999MW1101REMSYN072AAXX  10211 12360 41696 72903 10014 21001 30222 40361 52010 71022 875//;
0171123600999992000011022004+52580+019730FM-12+010999999V0202901N003010120019N0040001N1+00121+00001103641ADDAY121999AY221999GF108991081051012501999999MA1999999102251MD1210111+9999MW1101REMSYN082AAXX  10221 12360 41696 82903 10012 20000 30225 40364 52011 71022 885// 555 60019;
0161123600999992000011023004+52580+019730FM-12+010999999V0202801N003010120019N0040001N1+00121+00001103661ADDAY121999AY221999GF108991081051012501999999MA1999999102271MD1210071+9999MW1101REMSYN072AAXX  10231 12360 41696 82803 10012 20000 30227 40366 52007 71022 885//;
0191123600999992000011100004+52580+019730FM-12+010999999V0203001N003010120019N0050001N1+00101+00001103711ADDAA106000091AY121061AY221061GF108991081051012501999999MA1999999102311MD1210091+9999MW1101REMSYN072AAXX  11001 12360 31650 83003 10010 20000 30231 40371 52009 71022 885//;EQDQ01  00002PRCP06
0171123600999992000011101004+52580+019730FM-12+010999999V0202901N003010120019N0050001N1+00101+00001103741ADDAY121999AY221999GF108991081051012501999999MA1999999102341MD1210091+9999MW1101REMSYN082AAXX  11011 12360 41650 82903 10010 20000 30234 40374 52009 71022 885// 555 57005;
0161123600999992000011102004+52580+019730FM-12+010999999V0202701N004010120019N0040001N1+00121+00001103721ADDAY121999AY221999GF108991081051012501999999MA1999999102331MD1010061+9999MW1101REMSYN072AAXX  11021 12360 41696 82704 10012 20000 30233 40372 50006 71022 885//;
0161123600999992000011103004+52580+019730FM-12+010999999V0202701N003010120019N0040001N1+00101+00001103741ADDAY121031AY221031GF108991081051012501999999MA1999999102341MD1210031+9999MW1101REMSYN072AAXX  11031 12360 41696 82703 10010 20000 30234 40374 52003 71022 885//;
0161123600999992000011104004+52580+019730FM-12+010999999V0202701N003010120019N0040001N1+00101-00031103781ADDAY121999AY221999GF108991081051012501999999MA1999999102381MD1310041+9999MW1101REMSYN072AAXX  11041 12360 41696 82703 10010 21003 30238 40378 53004 71022 885//;
0161123600999992000011105004+52580+019730FM-12+010999999V0202401N002010120019N0050001N1+00091-00041103801ADDAY121999AY221999GF108991081051012501999999MA1999999102401MD1210071+9999MW1101REMSYN072AAXX  11051 12360 41650 82402 10009 21004 30240 40380 52007 71022 885//;
0257123600999992000011106004+52580+019730FM-12+010999999V0202301N001010075019N0050001N1+00071-00031103821ADDAA106000091AY121061AY221061GF108991081051008001999999IA1099IA2999+00109KA1120M+00201KA2120N+00071MA1999999102421MD1110081+9999MW1101REMSYN094AAXX  11061 12360 31550 82301 10007 21003 30242 40382 51008 71022 885// 333 10020 20007 31001;EQDQ01  00002PRCP06
0197123600999992000011107004+52580+019730FM-12+010999999V0202301N003010048019N0050001N1+00061-00041103841ADDAY121999AY221999GA1081+004809069GF108991081051004501999999MA1999999102441MD1210061+9999MW1101REMSYN092AAXX  11071 12360 41450 82303 10006 21004 30244 40384 52006 71022 885// 333 88616 555 57005;
0161123600999992000011108004+52580+019730FM-12+010999999V0202301N003010120019N0040001N1+00081-00071103891ADDAY121999AY221999GF108991081051012501999999MA1999999102491MD1310091+9999MW1101REMSYN072AAXX  11081 12360 41696 82303 10008 21007 30249 40389 53009 71022 885//;
0161123600999992000011109004+52580+019730FM-12+010999999V0202501N002010120019N0040001N1+00091-00091103901ADDAY121031AY221031GF108991081051012501999999MA1999999102501MD1210081+9999MW1101REMSYN072AAXX  11091 12360 41696 82502 10009 21009 30250 40390 52008 71022 885//;
0161123600999992000011110004+52580+019730FM-12+010999999V0202401N004010120019N0040001N1+00131-00131103911ADDAY121999AY221999GF107991071051012501999999MA1999999102511MD1110071+9999MW1101REMSYN072AAXX  11101 12360 41696 72404 10013 21013 30251 40391 51007 71022 875//;
0161123600999992000011111004+52580+019730FM-12+010999999V0202301N004010120019N0040001N1+00141-00121103881ADDAY121999AY221999GF107991071051012501999999MA1999999102481MD1810011+9999MW1101REMSYN072AAXX  11111 12360 41696 72304 10014 21012 30248 40388 58001 71022 875//;
0191123600999992000011112004+52580+019730FM-12+010999999V0202301N004010120019N0040001N1+00161-00091103841ADDAA106000091AY121061AY221061GF107991071051012501999999MA1999999102451MD1810051+9999MW1101REMSYN072AAXX  11121 12360 31696 72304 10016 21009 30245 40384 58005 71022 875//;EQDQ01  00002PRCP06
0143123600999992000011113004+52580+019730FM-12+010999999V0202401N003010075019N0100001N1+00161-00211103831ADDGF107991071051008001999999MA1999999102441MD1610071+9999REMSYN076AAXX  11131 12360 42597 72403 10016 21021 30244 40383 56007 875// 555 57012;
0132123600999992000011114004+52580+019730FM-12+010999999V0202401N005010075019N0100001N1+00131-00241103861ADDGF107991071051008001999999MA1999999102461MD1510021+9999REMSYN065AAXX  11141 12360 42597 72405 10013 21024 3024640386 55002 875//;
0133123600999992000011115004+52580+019730FM-12+010999999V0202301N004010075019N0100001N1+00101-00281103841ADDGF107991071051008001999999MA1999999102441MD1710011+9999REMSYN066AAXX  11151 12360 42597 72304 10010 21028 30244 40384 57001 875//;
0133123600999992000011116004+52580+019730FM-12+010999999V0202501N004010075019N0200001N1+00061-00421103871ADDGF106991061051008001999999MA1999999102471MD1210031+9999REMSYN066AAXX  11161 12360 42598 62504 10006 21042 30247 40387 52003 865//;
0133123600999992000011117004+52580+019730FM-12+010999999V0202501N004012200019N0200001N1-00011-00441103871ADDGF104991021051008001031001MA1999999102471MD1110011+9999REMSYN066AAXX  11171 12360 42598 42504 11001 21044 30247 40387 51001 82530;
0205123600999992000011118004+52580+019730FM-12+010999999V0202201N003010075019N0100001N1-00101-00351103871ADDAA106000091GF106991061051008001999999KA1120M+00171KA2999N-00101MA1999999102461MD1010021+9999REMSYN082AAXX  11181 12360 32597 62203 11010 21035 30246 40387 50002 865// 333 10017 21010;EQDQ01  00002PRCP06
0143123600999992000011119004+52580+019730FM-12+010999999V0202301N003012200019N0100001N1-00071-00291103861ADDGF101991011051008001001001MA1999999102451MD1810021+9999REMSYN076AAXX  11191 12360 42597 12303 11007 21029 30245 40386 58002 81500 555 57010;
0195123600999992000011120004+52580+019730FM-12+010999999V0202201N003010075019N0040001N1-00091-00311103851ADDAY111999AY211999GF105991051051008001001001MA1999999102441MD1710031+9999MW1101REMSYN106AAXX  11201 12360 41596 52203 11009 21031 30244 40385 57003 71011 85500 555 00010 10011 20007 31016 70020;
0161123600999992000011121004+52580+019730FM-12+010999999V0202201N003010075019N0040001N1-00071-00291103841ADDAY111031AY211031GF107991071051008001999999MA1999999102431MD1710031+9999MW1101REMSYN072AAXX  11211 12360 41596 72203 11007 21029 30243 40384 57003 71011 875//;
0171123600999992000011122004+52580+019730FM-12+010999999V0202201N003010075019N0040001N1-00061-00311103811ADDAY121999AY221999GF107991071051008001999999MA1999999102401MD1810051+9999MW1101REMSYN082AAXX  11221 12360 41596 72203 11006 21031 30240 40381 58005 71022 875// 555 60006;
0161123600999992000011123004+52580+019730FM-12+010999999V0202101N003010075019N0040001N1-00061-00311103811ADDAY121999AY221999GF107991071051008001999999MA1999999102401MD1610041+9999MW1101REMSYN072AAXX  11231 12360 41596 72103 11006 21031 30240 40381 56004 71022 875//;
0191123600999992000011200004+52580+019730FM-12+010999999V0202201N003012200019N0040001N1-00131-00361103781ADDAA106000091AY111061AY211061GF103991031051008001001001MA1999999102371MD1710061+9999MW1101REMSYN072AAXX  12001 12360 31596 32203 11013 21036 30237 40378 57006 71011 83500;EQDQ01  00002PRCP06
0181123600999992000011201004+52580+019730FM-12+010999999V0202101N003012200019N0040001N1-00181-00351103751ADDAY101999AY201999GA1001+999999999GF100991001001999999001001MA1999999102341MD1810061+9999MW1101REMSYN076AAXX  12011 12360 41996 02103 11018 21035 30234 40375 58006 71000 555 57009;
0171123600999992000011202004+52580+019730FM-12+010999999V0202101N003012200019N0040001N1-00201-00341103751ADDAY101999AY201999GA1001+999999999GF100991001001999999001001MA1999999102341MD1610061+9999MW1101REMSYN066AAXX  12021 12360 41996 02103 11020 21034 30234 40375 56006 71000;
0171123600999992000011203004+52580+019730FM-12+010999999V0202101N003012200019N0050001N1-00221-00361103701ADDAY101031AY201031GA1001+999999999GF100991001001999999001001MA1999999102291MD1710081+9999MW1101REMSYN066AAXX  12031 12360 41950 02103 11022 21036 30229 40370 57008 71000;
0171123600999992000011204004+52580+019730FM-12+010999999V0202001N003012200019N0050001N1-00251-00401103671ADDAY101999AY201999GA1001+999999999GF100991001001999999001001MA1999999102261MD1810081+9999MW1101REMSYN066AAXX  12041 12360 41950 02003 11025 21040 30226 40367 58008 71000;
0161123600999992000011205004+52580+019730FM-12+010999999V0202101N002012200019N0050001N1-00281-00401103671ADDAY101999AY201999GF102991011001999999031011MA1999999102261MD1610081+9999MW1101REMSYN072AAXX  12051 12360 41950 22102 11028 21040 30226 40367 56008 71000 81031;
0257123600999992000011206004+52580+019730FM-12+010999999V0202001N002012200019N0040001N1-00291-00411103681ADDAA106000091AY101061AY201061GF102991011001999999031011IA1149IA2999-00409KA1120M-00041KA2120N-00291MA1999999102261MD1610031+9999MW1101REMSYN094AAXX  12061 12360 31940 22002 11029 21041 30226 40368 56003 71000 81031 333 11004 21029 34104;EQDQ01  00002PRCP06
0171123600999992000011207004+52580+019730FM-12+010999999V0202001N002012200019N0040001N1-00311-00461103701ADDAY101999AY201999GF104991031051004501031011MA1999999102281MD1310021+9999MW1101REMSYN082AAXX  12071 12360 41440 42002 11031 21046 30228 40370 53002 71000 83531 555 57004;
0161123600999992000011208004+52580+019730FM-12+010999999V0202101N002012200019N0050001N1-00281-00461103701ADDAY101999AY201999GF104991021051008001031011MA1999999102281MD1110021+9999MW1101REMSYN072AAXX  12081 12360 41550 42102 11028 21046 30228 40370 51002 71000 82531;
0161123600999992000011209004+52580+019730FM-12+010999999V0202101N004012200019N0040001N1-00141-00411103641ADDAY101031AY201031GF102991011001999999031011MA1999999102231MD1810031+9999MW1101REMSYN072AAXX  12091 12360 41996 22104 11014 21041 30223 40364 58003 71000 81031;
0161123600999992000011210004+52580+019730FM-12+010999999V0202101N004012200019N0040001N1-00021-00381103611ADDAY101999AY201999GF102991011001999999031011MA1999999102211MD1810071+9999MW1101REMSYN072AAXX  12101 12360 41996 22104 11002 21038 30221 40361 58007 71000 81031;
0161123600999992000011211004+52580+019730FM-12+010999999V0202101N003012200019N0040001N1+00081-00371103571ADDAY101999AY201999GF102991011001999999031011MA1999999102181MD1710101+9999MW1101REMSYN072AAXX  12111 12360 41996 22103 10008 21037 30218 40357 57010 71000 81031;
0191123600999992000011212004+52580+019730FM-12+010999999V0202301N004012200019N0040001N1+00131-00331103491ADDAA106000091AY101061AY201061GF102991011001999999031011MA1999999102101MD1810131+9999MW1101REMSYN072AAXX  12121 12360 31996 22304 10013 21033 30210 40349 58013 71000 81031;EQDQ01  00002PRCP06
0171123600999992000011213004+52580+019730FM-12+010999999V0202201N005012200019N0040001N1+00121-00281103461ADDAY101999AY201999GF102991011001999999031011MA1999999102071MD1710141+9999MW1101REMSYN082AAXX  12131 12360 41996 22205 10012 21028 30207 40346 57014 71000 81031 555 57019;
0161123600999992000011214004+52580+019730FM-12+010999999V0202101N003012200019N0040001N1+00071-00341103431ADDAY101999AY201999GF104991011001999999031061MA1999999102041MD1610141+9999MW1101REMSYN072AAXX  12141 12360 41996 42103 10007 21034 30204 40343 56014 71000 81036;
0161123600999992000011215004+52580+019730FM-12+010999999V0201801N002019999999N0040001N1-00021-00351103401ADDAY111031AY211031GF105991011001999999031061MA1999999102001MD1710101+9999MW1101REMSYN072AAXX  12151 12360 41996 51802 11002 21035 30200 40340 57010 71011 81036;
0161123600999992000011217004+52580+019730FM-12+010999999V0201701N001019999999N0035001N1-00161-00361103351ADDAY121999AY221999GF105991001001999999001081MA1999999101951MD1610091+9999MW1101REMSYN072AAXX  12171 12360 41935 51701 11016 21036 30195 40335 56009 71022 80008;
0233123600999992000011218004+52580+019730FM-12+010999999V0201801N002019999999N0040001N1-00171-00401103321ADDAA106000091AY111061AY211061GF105991001001999999001081KA1120M+00141KA2999N-00341MA1999999101921MD1710081+9999MW1101REMSYN088AAXX  12181 12360 31940 51802 11017 21040 30192 40332 57008 71011 80008 333 10014 21034;EQDQ01  00002PRCP06
0181123600999992000011219004+52580+019730FM-12+010999999V0201501N002012200019N0050001N1-00181-00441103281ADDAY111011AY211011GA1001+999999999GF100991001001999999001001MA1999999101881MD1810091+9999MW1101REMSYN076AAXX  12191 12360 41950 01502 11018 21044 30188 40328 58009 71011 555 57009;
0205123600999992000011220004+52580+019730FM-12+010999999V0201601N002012200019N0050001N1-00211-00481103271ADDAY101999AY201999GA1001+999999999GF100991001001999999001001MA1999999101861MD1710091+9999MW1101REMSYN100AAXX  12201 12360 41950 01602 11021 21048 30186 40327 57009 71000 555 00002 10004 20001 31050 401//;
0171123600999992000011221004+52580+019730FM-12+010999999V0201601N003012200019N0050001N1-00251-00521103231ADDAY111031AY211031GA1001+999999999GF100991001001999999001001MA1999999101821MD1710101+9999MW1101REMSYN066AAXX  12211 12360 41950 01603 11025 21052 30182 40323 57010 71011;
0181123600999992000011222004+52580+019730FM-12+010999999V0201601N003012200019N0050001N1-00281-00521103191ADDAY101999AY201999GA1001+999999999GF100991001001999999001001MA1999999101781MD1810101+9999MW1101REMSYN076AAXX  12221 12360 41950 01603 11028 21052 30178 40319 58010 71000 555 61014;
0171123600999992000011223004+52580+019730FM-12+010999999V0201701N002012200019N0050001N1-00321-00571103151ADDAY101999AY201999GA1001+999999999GF100991001001999999001001MA1999999101741MD1710121+9999MW1101REMSYN066AAXX  12231 12360 41950 01702 11032 21057 30174 40315 57012 71000;
0201123600999992000011300004+52580+019730FM-12+010999999V0201601N002012200019N0050001N1-00351-00571103111ADDAA106000091AY111061AY211061GA1001+999999999GF100991001001999999001001MA1999999101701MD1710121+9999MW1101REMSYN066AAXX  13001 12360 31950 01602 11035 21057 30170 40311 57012 71011;EQDQ01  00002PRCP06
0181123600999992000011301004+52580+019730FM-12+010999999V0201701N003012200019N0040001N1-00371-00561103071ADDAY101999AY201999GA1001+999999999GF100991001001999999001001MA1999999101661MD1710121+9999MW1101REMSYN076AAXX  13011 12360 41940 01703 11037 21056 30166 40307 57012 71000 555 57007;
0171123600999992000011302004+52580+019730FM-12+010999999V0201601N002012200019N0040001N1-00441-00571103031ADDAY101999AY201999GA1001+999999999GF100991001001999999001001MA1999999101621MD1710121+9999MW1101REMSYN066AAXX  13021 12360 41940 01602 11044 21057 30162 40303 57012 71000;
0171123600999992000011303004+52580+019730FM-12+010999999V0201701N002012200019N0040001N1-00461-00591102981ADDAY101031AY201031GA1001+999999999GF100991001001999999001001MA1999999101571MD1710131+9999MW1101REMSYN066AAXX  13031 12360 41940 01702 11046 21059 30157 40298 57013 71000;
0171123600999992000011304004+52580+019730FM-12+010999999V0201701N002012200019N0040001N1-00501-00631102941ADDAY101999AY201999GA1001+999999999GF100991001001999999001001MA1999999101521MD1710141+9999MW1101REMSYN066AAXX  13041 12360 41940 01702 11050 21063 30152 40294 57014 71000;
0171123600999992000011305004+52580+019730FM-12+010999999V0201801N002012200019N0040001N1-00471-00561102911ADDAY101999AY201999GA1001+999999999GF100991001001999999001001MA1999999101501MD1610121+9999MW1101REMSYN066AAXX  13051 12360 41940 01802 11047 21056 30150 40291 56012 71000;
0273123600999992000011306004+52580+019730FM-12+010999999V0201701N003012200019N0040001N1-00491-00621102881ADDAA106000091AY101061AY201061GA1001+999999999GF100991001001999999001001IA1149IA2999-00609KA1120M-00161KA2120N-00501MA1999999101471MD1710101+9999MW1101REMSYN094AAXX  13061 12360 31940 01703 11049 21062 30147 40288 57010 71000 333 11016 21050 34106 55066;EQDQ01  00002PRCP06
0181123600999992000011307004+52580+019730FM-12+010999999V0201601N002012200019N0040001N1-00501-00661102881ADDAY101999AY201999GA1001+999999999GF100991001001999999001001MA1999999101461MD1710061+9999MW1101REMSYN076AAXX  13071 12360 41940 01602 11050 21066 30146 40288 57006 71000 555 57004;
0171123600999992000011308004+52580+019730FM-12+010999999V0201601N003012200019N0040001N1-00411-00591102881ADDAY101999AY201999GA1001+999999999GF100991001001999999001001MA1999999101471MD1510031+9999MW1101REMSYN066AAXX  13081 12360 41940 01603 11041 21059 30147 40288 55003 71000;
0171123600999992000011309004+52580+019730FM-12+010999999V0201701N003012200019N0050001N1-00321-00601102861ADDAY101031AY201031GA1001+999999999GF100991001001999999001001MA1999999101451MD1710021+9999MW1101REMSYN066AAXX  13091 12360 41950 01703 11032 21060 30145 40286 57002 71000;
0171123600999992000011311004+52580+019730FM-12+010999999V0202001N003012200019N0040001N1-00101-00551102751ADDAY101999AY201999GA1001+999999999GF100991001001999999001001MA1999999101361MD1810111+9999MW1101REMSYN066AAXX  13111 12360 41996 02003 11010 21055 30136 40275 58011 71000;
0173123600999992000011312004+52580+019730FM-12+010999999V0202001N005012200019N0100001N1-00031-00621102691ADDAA106000091GA1001+999999999GF100991001001999999001001MA1999999101301MD1810151+9999REMSYN060AAXX  13121 12360 32997 02005 11003 21062 30130 40269 58015;EQDQ01  00002PRCP06
0153123600999992000011313004+52580+019730FM-12+010999999V0202001N004012200019N0100001N1-00011-00681102641ADDGA1001+999999999GF100991001001999999001001MA1999999101251MD1710171+9999REMSYN070AAXX  13131 12360 42997 02004 11001 21068 30125 40264 57017 555 57021;
0143123600999992000011314004+52580+019730FM-12+010999999V0201901N004012200019N0100001N1-00011-00641102621ADDGA1001+999999999GF100991001001999999001001MA1999999101231MD1610131+9999REMSYN060AAXX  13141 12360 42997 01904 11001 21064 30123 40262 56013;
0171123600999992000011315004+52580+019730FM-12+010999999V0201801N003012200019N0040001N1-00111-00561102611ADDAY101031AY201031GA1001+999999999GF100991001001999999001001MA1999999101221MD1610081+9999MW1101REMSYN066AAXX  13151 12360 41996 01803 11011 21056 30122 40261 56008 71000;
0171123600999992000011316004+52580+019730FM-12+010999999V0201501N004012200019N0040001N1-00181-00641102581ADDAY101999AY201999GA1001+999999999GF100991001001999999001001MA1999999101191MD1710061+9999MW1101REMSYN066AAXX  13161 12360 41996 01504 11018 21064 30119 40258 57006 71000;
0171123600999992000011317004+52580+019730FM-12+010999999V0201801N003012200019N0040001N1-00231-00601102591ADDAY101999AY201999GA1001+999999999GF100991001001999999001001MA1999999101191MD1610041+9999MW1101REMSYN066AAXX  13171 12360 41996 01803 11023 21060 30119 40259 56004 71000;
0243123600999992000011318004+52580+019730FM-12+010999999V0201601N003012200019N0040001N1-00261-00661102611ADDAA106000091AY101061AY201061GA1001+999999999GF100991001001999999001001KA1120M+00011KA2999N-00501MA1999999101211MD1510011+9999MW1101REMSYN082AAXX  13181 12360 31996 01603 11026 21066 30121 40261 55001 71000 333 10001 21050;EQDQ01  00002PRCP06
0181123600999992000011319004+52580+019730FM-12+010999999V0201701N004012200019N0040001N1-00291-00631102581ADDAY101999AY201999GA1001+999999999GF100991001001999999001001MA1999999101181MD1810011+9999MW1101REMSYN076AAXX  13191 12360 41996 01704 11029 21063 30118 40258 58001 71000 555 57013;
0209123600999992000011320004+52580+019730FM-12+010999999V0201601N004012200019N0040001N1-00351-00641102571ADDAY101999AY201999GA1001+999999999GF100991001001999999001001MA1999999101171MD1810021+9999MW1101REMSYN104    AAXX  13201 12360 41996 01604 11035 21064 30117 40257 58002 71000 555 01002 11001 21003 31064 407//;
0175123600999992000011321004+52580+019730FM-12+010999999V0201601N003012200019N0050001N1-00401-00641102611ADDAY101031AY201031GA1001+999999999GF100991001001999999001001MA1999999101201MD1510011+9999MW1101REMSYN070    AAXX  13211 12360 41950 01603 11040 21064 30120 40261 55001 71000;
0185123600999992000011322004+52580+019730FM-12+010999999V0201501N002012200019N0040001N1-00461-00681102591ADDAY101999AY201999GA1001+999999999GF100991001001999999001001MA1999999101181MD1010001+9999MW1101REMSYN080    AAXX  13221 12360 41940 01502 11046 21068 30118 40259 50000 71000 555 61030;
0175123600999992000011323004+52580+019730FM-12+010999999V0201501N003012200019N0040001N1-00471-00661102571ADDAY101999AY201999GA1001+999999999GF100991001001999999001001MA1999999101161MD1810011+9999MW1101REMSYN070    AAXX  13231 12360 41940 01503 11047 21066 30116 40257 58001 71000;
0205123600999992000011400004+52580+019730FM-12+010999999V0201501N003012200019N0040001N1-00511-00671102581ADDAA199000091AY101061AY201061GA1001+999999999GF100991001001999999001001MA1999999101171MD1510031+9999MW1101REMSYN070    AAXX  14001 12360 31940 01503 11051 21067 30117 40258 55003 71000;EQDQ01  00002PRCP99
0185123600999992000011401004+52580+019730FM-12+010999999V0201501N002012200019N0035001N1-00551-00681102591ADDAY101999AY201999GA1001+999999999GF100991001001999999001001MA1999999101181MD1510001+9999MW1101REMSYN080    AAXX  14011 12360 41935 01502 11055 21068 30118 40259 55000 71000 555 57005;
0175123600999992000011402004+52580+019730FM-12+010999999V0201601N003012200019N0035001N1-00561-00701102601ADDAY101999AY201999GA1001+999999999GF100991001001999999001001MA1999999101191MD1210031+9999MW1101REMSYN070    AAXX  14021 12360 41935 01603 11056 21070 30119 40260 52003 71000;
0175123600999992000011403004+52580+019730FM-12+010999999V0201501N003012200019N0035001N1-00571-00711102601ADDAY101031AY201031GA1001+999999999GF100991001001999999001001MA1999999101181MD1010011+9999MW1101REMSYN070    AAXX  14031 12360 41935 01503 11057 21071 30118 40260 50001 71000;
0175123600999992000011404004+52580+019730FM-12+010999999V0201601N003012200019N0035001N1-00571-00741102581ADDAY101999AY201999GA1001+999999999GF100991001001999999001001MA1999999101171MD1810011+9999MW1101REMSYN070    AAXX  14041 12360 41935 01603 11057 21074 30117 40258 58001 71000;
0175123600999992000011405004+52580+019730FM-12+010999999V0201601N003012200019N0035001N1-00571-00741102611ADDAY101999AY201999GA1001+999999999GF100991001001999999001001MA1999999101191MD1510001+9999MW1101REMSYN070    AAXX  14051 12360 41935 01603 11057 21074 30119 40261 55000 71000;
0267123600999992000011406004+52580+019730FM-12+010999999V0201601N003010075019N0035001N1-00481-00641102651ADDAA199000091AY111061AY211061GF106991061051008001999999IA1149IA2999-00709KA1120M-00261KA2120N-00611MA1999999101241MD1310061+9999MW1101REMSYN104    AAXX  14061 12360 31535 61603 11048 21064 30124 40265 53006 71011 865// 333 11026 21061 34107 55067;EQDQ01  00002PRCP99
0175123600999992000011407004+52580+019730FM-12+010999999V0201901N002010075019N0035001N1-00411-00591102681ADDAY121999AY221999GF108991051051008001031999MA1999999101271MD1210101+9999MW1101REMSYN086    AAXX  14071 12360 41535 81902 11041 21059 30127 40268 52010 71022 8553/ 555 57005;
0164123600999992000011408004+52580+019730FM-12+010999999V0201801N002010300019N0035001N1-00331-00521102691ADDAY121999AY221999GF105991041051008001031001MA1999999101291MD1110101+9999MW1101REMSYN075    AAXX  14081 12360 41535 51802 1103321052 30129 40269 51010 71022 84530;
0165123600999992000011409004+52580+019730FM-12+010999999V0201701N002010075019N0040001N1-00261-00471102711ADDAY121031AY221031GF107991051051008001031999MA1999999101311MD1210071+9999MW1101REMSYN076    AAXX  14091 12360 41540 71702 11026 21047 30131 40271 52007 71022 8553/;
0165123600999992000011410004+52580+019730FM-12+010999999V0201601N002010075019N0050001N1-00181-00431102711ADDAY121999AY221999GF107991051051008001031999MA1999999101311MD1110041+9999MW1101REMSYN076    AAXX  14101 12360 41550 71602 11018 21043 30131 40271 51004 71022 8553/;
0165123600999992000011411004+52580+019730FM-12+010999999V0201501N002012200019N0050001N1-00101-00421102651ADDAY111999AY211999GF102991021051012501001001MA1999999101261MD1810031+9999MW1101REMSYN076    AAXX  14111 12360 41650 21502 11010 21042 30126 40265 58003 71011 82500;
0195123600999992000011412004+52580+019730FM-12+010999999V0201601N002012200019N0050001N1-00081-00461102661ADDAA199000091AY111061AY211061GF102991021051012501001001MA1999999101271MD1510041+9999MW1101REMSYN076    AAXX  14121 12360 31650 21602 11008 21046 30127 40266 55004 71011 82500;EQDQ01  00002PRCP99
0165123600999992000011414004+52580+019730FM-12+010999999V0201701N001010120019N0050001N1-00071-00481102671ADDAY121999AY221999GF108991081051012501999999MA1999999101281MD1110021+9999MW1101REMSYN076    AAXX  14141 12360 41650 81701 11007 21048 30128 40267 51002 71022 885//;
0165123600999992000011415004+52580+019730FM-12+010999999V0201501N001010075019N0050001N1-00101-00451102651ADDAY111031AY211031GF108991081051008001999999MA1999999101261MD1810011+9999MW1101REMSYN076    AAXX  14151 12360 41550 81501 11010 21045 30126 40265 58001 71011 885//;
0165123600999992000011416004+52580+019730FM-12+010999999V0201601N001010075019N0050001N1-00111-00371102671ADDAY121999AY221999GF108991081051008001999999MA1999999101281MD1510001+9999MW1101REMSYN076    AAXX  14161 12360 41550 81601 11011 21037 30128 40267 55000 71022 885//;
0165123600999992000011417004+52580+019730FM-12+010999999V0201501N002010042019N0040001N1-00111-00371102701ADDAY121999AY221999GF108991081051004501999999MA1999999101311MD1310031+9999MW1101REMSYN076    AAXX  14171 12360 41440 81502 11011 21037 30131 40270 53003 71022 885//;
0237123600999992000011418004+52580+019730FM-12+010999999V0201601N002010075019N0040001N1-00111-00341102741ADDAA199000091AY111061AY211061GF108991081051008001999999KA1120M-00061KA2999N-00481MA1999999101351MD1310091+9999MW1101REMSYN092    AAXX  14181 12360 31540 81602 11011 21034 30135 40274 53009 71011 885// 333 11006 21048;EQDQ01  00002PRCP99
0175123600999992000011419004+52580+019730FM-12+010999999V0201501N001010075019N0040001N1-00131-00341102741ADDAY121999AY221999GF108991081051008001999999MA1999999101351MD1110071+9999MW1101REMSYN086    AAXX  14191 12360 41540 81501 11013 21034 30135 40274 51007 71022 885// 555 57009;
0225123600999992000011420004+52580+019730FM-12+010999999V0201701N00201004201CN0040001N1-00141-00381102781ADDAY121999AY221999GA1031+004509069GF108991081051004501999999MA1999999101381MD1210071+9999MW1101REMSYN120    AAXX  14201 12360 41440 81702 11014 21038 30138 40278 52007 71022 885// 333 83615 555 01009 11005 21012 31070 415//;
0165123600999992000011421004+52580+019730FM-12+010999999V0201601N002010120019N0040001N1-00161-00351102791ADDAY121031AY221031GF108991081051012501999999MA1999999101391MD1310041+9999MW1101REMSYN076    AAXX  14211 12360 41640 81602 11016 21035 30139 40279 53004 71022 885//;
0175123600999992000011422004+52580+019730FM-12+010999999V0201501N001010120019N0040001N1-00171-00361102791ADDAY121999AY221999GF108991081051012501999999MA1999999101391MD1110041+9999MW1101REMSYN086    AAXX  14221 12360 41640 81501 11017 21036 30139 40279 51004 71022 885// 555 61028;
0165123600999992000011423004+52580+019730FM-12+010999999V0201101N001010120019N0035001N1-00201-00371102771ADDAY121999AY221999GF108991081051012501999999MA1999999101371MD1810011+9999MW1101REMSYN076    AAXX  14231 12360 41635 81101 11020 21037 30137 40277 58001 71022 885//;
0221123600999992000011500004+52580+019730FM-12+010999999V0201801N001010033019N0035001N1-00201-00371102811ADDAA199000091AY121061AY221061GA1081+003309059GF108991081051004501999999MA1999999101411MD1310021+9999MW1101REMSYN086    AAXX  15001 12360 31435 81801 11020 21037 30141 40281 53002 71022 885// 333 88611;EQDQ01  00002PRCP99
0175123600999992000011501004+52580+019730FM-12+010999999V0201901N001010075019N0035001N1-00191-00351102811ADDAY121999AY221999GF108991081051008001999999MA1999999101411MD1110021+9999MW1101REMSYN086    AAXX  15011 12360 41535 81901 11019 21035 30141 40281 51002 71022 885// 555 57006;
0165123600999992000011502004+52580+019730FM-12+010999999V0202801N001010075019N0035001N1-00191-00351102801ADDAY121999AY221999GF108991081051008001999999MA1999999101401MD1010031+9999MW1101REMSYN076    AAXX  15021 12360 41535 82801 11019 21035 30140 40280 50003 71022 885//;
0165123600999992000011503004+52580+019730FM-12+010999999V0203001N002010075019N0035001N1-00211-00381102801ADDAY121031AY221031GF108991081051008001999999MA1999999101401MD1610011+9999MW1101REMSYN076    AAXX  15031 12360 41535 83002 11021 21038 30140 40280 56001 71022 885//;
0165123600999992000011504004+52580+019730FM-12+010999999V0202901N002010075019N0040001N1-00231-00431102811ADDAY121999AY221999GF108991081051008001999999MA1999999101411MD1510001+9999MW1101REMSYN076    AAXX  15041 12360 41540 82902 11023 21043 30141 40281 55000 71022 885//;
0165123600999992000011505004+52580+019730FM-12+010999999V0202901N002010075019N0040001N1-00251-00461102811ADDAY121999AY221999GF108991081051008001999999MA1999999101411MD1110011+9999MW1101REMSYN076    AAXX  15051 12360 41540 82902 11025 21046 30141 40281 51001 71022 885//;
0267123600999992000011506004+52580+019730FM-12+010999999V0202801N001010075019N0035001N1-00261-00471102831ADDAA199000091AY121061AY221061GF108991081051008001999999IA1149IA2999-00309KA1120M-00111KA2120N-00261MA1999999101431MD1210031+9999MW1101REMSYN104    AAXX  15061 12360 31535 82801 11026 21047 30143 40283 52003 71022 885// 333 11011 21026 34103 55018;EQDQ01  00002PRCP99
0175123600999992000011507004+52580+019730FM-12+010999999V0202801N001010075019N0035001N1-00281-00431102871ADDAY121011AY221011GF108991081051008001999999MA1999999101471MD1310061+9999MW1101REMSYN086    AAXX  15071 12360 41535 82801 11028 21043 30147 40287 53006 71022 885// 555 57007;
0191123600999992000011508004+52580+019730FM-12+010999999V0202901N00101002101CN0030001N1-00281-00491102881ADDAY121999AY221999GA1041+002709069GF108991081051002501999999MA1999999101481MD1210071+9999MW1101REMSYN086    AAXX  15081 12360 41330 82901 11028 21049 30148 40288 52007 71022 885// 333 84709;
0165123600999992000011509004+52580+019730FM-12+010999999V0203001N003010075019N0040001N1-00281-00521102871ADDAY121031AY221031GF108991081051008001999999MA1999999101471MD1010041+9999MW1711REMSYN076    AAXX  15091 12360 41540 83003 11028 21052 30147 40287 50004 77122 885//;
0165123600999992000011510004+52580+019730FM-12+010999999V0203001N003010120019N0040001N1-00261-00591102861ADDAY171999AY221999GF108991081051012501999999MA1999999101461MD1810011+9999MW1221REMSYN076    AAXX  15101 12360 41696 83003 11026 21059 30146 40286 58001 72272 885//;
0165123600999992000011511004+52580+019730FM-12+010999999V0202901N002010120019N0040001N1-00231-00621102831ADDAY121999AY221999GF108991081051012501999999MA1999999101431MD1810051+9999MW1101REMSYN076    AAXX  15111 12360 41696 82902 11023 21062 30143 40283 58005 71022 885//;
0182123600999992000011512004+52580+019730FM-12+010999999V0202601N002010075019N0040001N1-00221-00581102801ADDAA106000791AY171061AY221061GF108991081091008001999999MA1999999101401MD1810071+9999MW1851REMSYN082    AAXX  15121 12360 11596 82602 11022 21058 30140 40280 58007 69901 78572 889//;
0201123600999992000011513004+52580+019730FM-12+010999999V0202601N002010036019N0040001N1-00261-00471102781ADDAY181999AY281999GA1081+003609099GF108991081091004501999999MA1999999101381MD1710081+9999MW1851REMSYN096    AAXX  15131 12360 41440 82602 11026 21047 30138 40278 57008 78588 889// 333 88912 555 57012;
0191123600999992000011514004+52580+019730FM-12+010999999V0202301N004010039019N0040001N1-00281-00491102731ADDAY181999AY281999GA1081+003909099GF108991081091004501999999MA1999999101331MD1710101+9999MW1851REMSYN086    AAXX  15141 12360 41440 82304 11028 21049 30133 40273 57010 78588 889// 333 88913;
0165123600999992000011515004+52580+019730FM-12+010999999V0202401N003010300019N0035001N1-00281-00461102721ADDAY181031AY281031GF108991041051004501021999MA1999999101321MD1710081+9999MW1711REMSYN076    AAXX  15151 12360 41435 82403 11028 21046 30132 40272 57008 77188 8452/;
0165123600999992000011516004+52580+019730FM-12+010999999V0202501N003010300019N0035001N1-00281-00431102691ADDAY171999AY271999GF108991031071002501021999MA1999999101291MD1710091+9999MW1711REMSYN076    AAXX  15161 12360 41335 82503 11028 21043 30129 40269 57009 77177 8372/;
0165123600999992000011517004+52580+019730FM-12+010999999V0202801N003019999999N0025001N1-00251-00401102721ADDAY171999AY271999GF108991081001999999021999MA1999999101321MD1510011+9999MW1711REMSYN076    AAXX  15171 12360 41925 82803 11025 21040 30132 40272 55001 77177 8802/;
0246123600999992000011518004+52580+019730FM-12+010999999V0203001N003010021019N0020001N1-00251-00371102721ADDAA112000191AY181061AY281061GA1051+002109069GF108991051071002501021999KA1120M-00181KA2120N-00291MA1999999101321MD1410001+9999MW1711REMSYN104    AAXX  15181 12360 11320 83003 11025 21037 30132 40272 54000 69912 77188 8572/ 333 11018 21029 85707;
0201123600999992000011519004+52580+019730FM-12+010999999V0203101N004010024019N0025001N1-00231-00371102721ADDAY171999AY271999GA1051+002409079GF108991051071002501021999MA1999999101321MD1110031+9999MW1711REMSYN096    AAXX  15191 12360 41325 83104 11023 21037 30132 40272 51003 77177 8572/ 333 85708 555 57004;
0165123600999992000011521004+52580+019730FM-12+010999999V0203101N003010120019N0030001N1-00241-00361102721ADDAY171031AY221031GF108991081051012501999999MA1999999101321MD1410001+9999MW1101REMSYN076    AAXX  15211 12360 41630 83103 11024 21036 30132 40272 54000 71072 885//;
0175123600999992000011522004+52580+019730FM-12+010999999V0203101N003010120019N0030001N1-00241-00361102761ADDAY121999AY221999GF108991081051012501999999MA1999999101361MD1310041+9999MW1101REMSYN086    AAXX  15221 12360 41630 83103 11024 21036 30136 40276 53004 71022 885// 555 61024;
