0207150010999992000010812004+48020+026950FM-12+024099999V0201401N001010075019N0030001N1-00161-00721103011ADDAA106000091AY121061AY221061GF108991081061008001999999IA1239MA1999999099511MD1710141+9999MW1101REMSYN082AAXX  08121 15001 31530 81401 11016 21072 39951 40301 57014 71022 886// 333 4701/;EQDQ01  00002PRCP06
0102150010999992000030502004+48020+026950FM-12+024099999V0203201N006019999999N0080001N1+00001+99999999999ADDAY111999AY271999GF108991999999008001999999MW1711REMSYN042AAXX  05021 15001 41558 83206 1000/ 77117;
