0090154290999992000010105004+44420+026650FM-12+008899999V0202701N006012200019N0100001N1-00101+99999999999ADDGA1001+999999999GF100991001001999999001001REMSYN036AAXX  01051 15429 42960 02706 11010;
0266154290999992000010106004+44420+026650FM-12+008899999V0202701N007012200019N0100001N1-00141-00231102031ADDAA112999999AJ100109199999999AY171061GA1001+999999999GF100991001001999999001001IA1279IA2120-00209KA1120N-00151MA1999999099101MD1310091+9999MW1021REMSYN110AAXX  01061 15429 11960 02707 11014 21023 3091/ 40203 53009 60//2 7027/ 333 21015 3/102 43010 92821 555 60093;
0080154290999992000010107004+44420+026650FM-12+008899999V0209999C000019999999N0100001N1-00241+99999999999ADDGF105991051001999999071001REMSYN042AAXX  01071 15429 42960 50000 11024 85070;
0080154290999992000010108004+44420+026650FM-12+008899999V0209999C000012200019N0100001N1-00301+99999999999ADDGF102991021001999999071001REMSYN042AAXX  01081 15429 42960 20000 11030 82070;
0104154290999992000010109004+44420+026650FM-12+008899999V0209999C000012200019N0100001N1-00201+99999999999ADDAA106000091GF102991999999999999999999REMSYN036AAXX  01091 15429 32960 20000 11020;EQDQ01  00002PRCP06
0074154290999992000010110004+44420+026650FM-12+008899999V0202701N002012200019N0100001N1-00101+99999999999ADDGF102991999999999999999999REMSYN036AAXX  01101 15429 42960 22702 11010;
0084154290999992000010114004+44420+026650FM-12+008899999V02099999999992200019N0100001N1+99999+99999999999ADDGA1001+999999999GF100991001001999999001001REMSYN030AAXX  01141 15429 42960 0270/;
0173154290999992000010115004+44420+026650FM-12+008899999V0202701N004012200019N0100001N1-00101-00531102361ADDAA106000091GA1001+999999999GF100991001001999999001001MA1999999101241MD1210091+9999REMSYN060AAXX  01151 15429 32960 02704 11010 21053 30124 40236 52009;EQDQ01  00002PRCP06
0090154290999992000010117004+44420+026650FM-12+008899999V0209999C000012200019N0100001N1-00501+99999999999ADDGA1001+999999999GF100991001001999999001001REMSYN036AAXX  01171 15429 42960 00000 11050;
0237154290999992000010118004+44420+026650FM-12+008899999V02099999999992200019N0100001N1-00601-00831102511ADDAA106000091AJ100109199999999GA1001+999999999GF100991001001999999001001IA1279KA1120M+00011MA1999999101371MD1110131+9999REMSYN088AAXX  01181 15429 32960 00/00 11060 21083 30137 40251 51013 333 10001 3/101 43010 92801;EQDQ01  00002PRCP06
0118154290999992000010123004+44420+026650FM-12+008899999V0209999C000012200019N0012001N1-01101+99999999999ADDAY101999AY201999GA1001+999999999GF100991001001999999001001MW1101REMSYN042AAXX  01231 15429 41912 00000 11110 71000;
0243154290999992000010206004+44420+026650FM-12+008899999V0209999C000012200019N0012001N1-01331-01431102761ADDAA106000091AJ100109199999999GA1001+999999999GF100991001001999999001001IA1279KA1120N-01401MA1999999101571MD1210071+9999REMSYN094AAXX  02061 15429 31912 00000 11133 21143 30157 40276 52007 7//// 333 21140 3/11/ 43010 92821;EQDQ01  00002PRCP06
0118154290999992000010207004+44420+026650FM-12+008899999V0209999C000012200019N0012001N1-01301+99999999999ADDAY101011AY201011GA1001+999999999GF100991001001999999001001MW1101REMSYN042AAXX  02071 15429 41912 00000 11130 71000;
0118154290999992000010208004+44420+026650FM-12+008899999V0209999C000012200019N0012001N1-01171+99999999999ADDAY101999AY201999GA1001+999999999GF100991001001999999001001MW1101REMSYN042AAXX  02081 15429 41912 00000 11117 71000;
0201154290999992000010209004+44420+026650FM-12+008899999V0209999C000012200019N0012001N1-00971-01091102861ADDAA106000091AY101031AY201031GA1001+999999999GF100991001001999999001001MA1999999101691MD1310121+9999MW1101REMSYN066AAXX  02091 15429 31912 00000 11097 21109 30169 40286 53012 71000;EQDQ01  00002PRCP06
0118154290999992000010213004+44420+026650FM-12+008899999V0209999C000012200019N0012001N1-00181+99999999999ADDAY101999AY201999GA1001+999999999GF100991001001999999001001MW1101REMSYN042AAXX  02131 15429 41912 00000 11018 71000;
0118154290999992000010214004+44420+026650FM-12+008899999V0209999C000012200019N0012001N1-00041+99999999999ADDAY101999AY201999GA1001+999999999GF100991001001999999001001MW1101REMSYN042AAXX  02141 15429 41912 00000 11004 71000;
0201154290999992000010215004+44420+026650FM-12+008899999V0209999C000012200019N0012001N1-00221-00561102881ADDAA106000091AY101031AY201031GA1001+999999999GF100991001001999999001001MA1999999101741MD1210051+9999MW1101REMSYN066AAXX  02151 15429 31912 00000 11022 21056 30174 40288 52005 71000;EQDQ01  00002PRCP06
0108154290999992000010216004+44420+026650FM-12+008899999V0209999C000012200019N0012001N1-00371+99999999999ADDAY101999AY201999GF103991031001999999031001MW1101REMSYN048AAXX  02161 15429 41912 30000 11037 71000 83030;
0108154290999992000010217004+44420+026650FM-12+008899999V0209999C000012200019N0100001N1-00401+99999999999ADDAY101999AY201999GF103991031001999999031001MW1101REMSYN048AAXX  02171 15429 41960 30000 11040 71000 83030;
0226154290999992000010218004+44420+026650FM-12+008899999V0209999C000012200019N0012001N1-00431-00661102981ADDAA106000091AY101061AY201061GF103991031001999999031001KA1120M+00071MA1999999101841MD1210101+9999MW1101REMSYN094AAXX  02181 15429 31912 30000 11043 21066 30184 40298 52010 71000 83030 333 10007 3/001 92851;EQDQ01  00002PRCP06
0092154290999992000010223004+44420+026650FM-12+008899999V0209999C000019999999N0012001N1-00501+99999999999ADDGF107991071001999999071001MW1101REMSYN048AAXX  02231 15429 41912 70000 11050 710// 87070;
0203154290999992000010300004+44420+026650FM-12+008899999V0209999C000019999999N0012001N1-00551-00661103131ADDAA106000091AJ100099199999999AY111061AY211061GF106991061001999999071001IA1279MD1410001+9999MW1101REMSYN076AAXX  03001 15429 31912 60000 11055 21066 40313 54000 71011 86070 333 43009;EQDQ01  00002PRCP06
0245154290999992000010306004+44420+026650FM-12+008899999V0209999C999999999999N0012001N1-01231+99999103151ADDAA106000091AJ100099199999999AY111061AY211061IA1279IA2120-01809KA1120N-01331MA1999999101971MD1110051+9999MW1101REMSYN088AAXX  03061 15429 31912 /0050 11123 30197 40315 51005 71011 333 21133 3/118 43009 92851;EQDQ01+005003WOSPD Q02  00002PRCP06
0118154290999992000010307004+44420+026650FM-12+008899999V0209999C000012200019N0012001N1-01301+99999999999ADDAY101011AY201011GA1001+999999999GF100991001001999999001001MW1101REMSYN042AAXX  03071 15429 41912 00000 11130 71000;
0108154290999992000010316004+44420+026650FM-12+008899999V0202701N003019999999N0025001N1-00151+99999999999ADDAY121999AY221999GF107991071001999999071001MW1101REMSYN048AAXX  03161 15429 41925 72703 11015 71022 87070;
0108154290999992000010317004+44420+026650FM-12+008899999V0202701N003019999999N0025001N1-00201+99999999999ADDAY121999AY221999GF107991071001999999071001MW1101REMSYN048AAXX  03171 15429 41925 72703 11020 71022 87070;
0202154290999992000010318004+44420+026650FM-12+008899999V0209999C000019999999N0025001N1-00181-00591102631ADDAA106000091AY111061AY211061GF108991081001999999071999MA1999999101501MD1710181+9999MW1101REMSYN083AAXX  03181 15429 31925 80000 11018 21059 30150 40263 57018 71011 8807/ 333 1000 4;EQDQ01  00002PRCP06
0108154290999992000010323004+44420+026650FM-12+008899999V0209999C000019999999N0025001N1-00321+99999999999ADDAY121999AY221999GF108991081001999999071999MW1101REMSYN048AAXX  03231 15429 41925 80000 11032 71022 8807/;
0207154290999992000010400004+44420+026650FM-12+008899999V0209999C000019999999N0025001N1-00301-00471102441ADDAA106000091AY121061AY221061GF108991081001999999071999IA1279MA1999999101311MD1810051+9999MW1101REMSYN082AAXX  04001 15429 31925 80000 11030 21047 30131 40244 58005 71022 8807/ 333 4300/;EQDQ01  00002PRCP06
0080154290999992000010405004+44420+026650FM-12+008899999V0209999C000019999999N0100001N1-00321+99999999999ADDGF108991081001999999071999REMSYN042AAXX  04051 15429 42960 80000 11032 8807/;
0080154290999992000010423004+44420+026650FM-12+008899999V0209999C000019999999N0100001N1-00701+99999999999ADDGF107991071001999999071001REMSYN042AAXX  04231 15429 42960 70000 11070 87070;
0074154290999992000010505004+44420+026650FM-12+008899999V0209999C000019999999N0100001N1+99999+99999999999ADDGF108991081001999999071999REMSYN036AAXX  05051 15429 /2960 80000 8807/;
0080154290999992000010506004+44420+026650FM-12+008899999V0202701N003019999999N0100001N1+99999+99999999999ADDGF108991081001999999071999REMSYN042AAXX  05061 15429 42960 82703 17020 8807/;
0080154290999992000010507004+44420+026650FM-12+008899999V0202701N003019999999N0100001N1-00201+99999999999ADDGF108991081001999999071999REMSYN042AAXX  05071 15429 42960 82703 11020 8807/;
0096154290999992000010516004+44420+026650FM-12+008899999V02099999999999999999N9999999N1+00101+99999999999ADDGA1091+999999999GF109991091999999999999999REMSYN042AAXX  05161 15429 4296/ 95/03 10010 85050;
0208154290999992000010518004+44420+026650FM-12+008899999V0209999C000012200019N0100001N1-00051-00231102161ADDAA106000091GA1001+999999999GF100991001001999999001001KA1120M+00321MA1999999101041MD1710031+9999REMSYN082AAXX  05181 15429 32960 00000 11005 21023 30104 40216 57003 333 10032 3/003 4299/;EQDQ01  00002PRCP06
0074154290999992000010605004+44420+026650FM-12+008899999V0202701N005012200019N0100001N1-00011+99999999999ADDGF101991999999999999999999REMSYN036AAXX  06051 15429 42960 12705 11001;
0159154290999992000010612004+44420+026650FM-12+008899999V0202701N003012200019N0100001N1+00581-00121102321ADDAA106000091GA1001+999999999GF100991001001999999001001MA1999999101221REMSYN060AAXX  06121 15429 32960 02703 10058 21012 30122 40232 98010;EQDQ01  00002PRCP06
0090154290999992000010614004+44420+026650FM-12+008899999V0202701N004012200019N0100001N1+00401+99999999999ADDGA1001+999999999GF100991001001999999001001REMSYN036AAXX  06141 15429 42960 02704 10040;
0173154290999992000010615004+44420+026650FM-12+008899999V0202701N002012200019N0100001N1+00301-00281102341ADDAA106000091GA1001+999999999GF100991001001999999001001MA1999999101241MD1119999+9999REMSYN060AAXX  06151 15429 32960 02702 10030 21028 30124 40234 51/02;EQDQ01  00002PRCP06
0090154290999992000010616004+44420+026650FM-12+008899999V0209999C000012200019N0100001N1+00021+99999999999ADDGA1001+999999999GF100991001001999999001001REMSYN036AAXX  06161 15429 42960 00000 10002;
0090154290999992000010617004+44420+026650FM-12+008899999V0209999C000012200019N0100001N1-00081+99999999999ADDGA1001+999999999GF100991001001999999001001REMSYN036AAXX  06171 15429 42960 00000 11008;
0208154290999992000010618004+44420+026650FM-12+008899999V0209999C000012200019N0100001N1-00221-00381102431ADDAA106000091GA1001+999999999GF100991001001999999001001KA1120M+00501MA1999999101311MD1210071+9999REMSYN082AAXX  06181 15429 32960 00000 11022 21038 30131 40243 52007 333 10050 3/002 4299/;EQDQ01  00002PRCP06
0090154290999992000010623004+44420+026650FM-12+008899999V0209999C000012200019N0100001N1-00661+99999999999ADDGA1001+999999999GF100991001001999999001001REMSYN036AAXX  06231 15429 42960 00000 11066;
0206154290999992000010700004+44420+026650FM-12+008899999V0209999C000012200019N0100001N1-00701-00791102741ADDAA106000091AJ100009199999999GA1001+999999999GF100991001001999999001001IA1309MA1999999101581MD1110151+9999REMSYN070AAXX  07001 15429 32960 00000 11070 21079 30158 40274 51015 333 42998;EQDQ01  00002PRCP06
0118154290999992000010713004+44420+026650FM-12+008899999V0209999C000012200019N0025001N1+00211+99999999999ADDAY101999AY201999GA1001+999999999GF100991001001999999001001MW1101REMSYN042AAXX  07131 15429 41925 00000 10021 71000;
0201154290999992000010715004+44420+026650FM-12+008899999V0209999C000012200019N0025001N1+00201-00271102911ADDAA106000091AY101031AY201031GA1001+999999999GF100991001001999999001001MA1999999101791MD1710141+9999MW1101REMSYN066AAXX  07151 15429 31925 00000 10020 21027 30179 40291 57014 71000;EQDQ01  00002PRCP06
0118154290999992000010716004+44420+026650FM-12+008899999V0209999C000012200019N0025001N1+00051+99999999999ADDAY101999AY201999GA1001+999999999GF100991001001999999001001MW1101REMSYN042AAXX  07161 15429 41925 00000 10005 71000;
0253154290999992000010718004+44420+026650FM-12+008899999V0209999C000012200019N0025001N1-00431-00551102921ADDAA106000091AJ100009199999999AY101061AY201061GA1001+999999999GF100991001001999999001001KA1120M+00281MA1999999101781MD1610011+9999MW1101REMSYN088AAXX  07181 15429 31925 00000 11043 21055 30178 40292 56001 71000 333 10028 3/00/ 42998;EQDQ01  00002PRCP06
0118154290999992000010723004+44420+026650FM-12+008899999V0209999C000012200019N0025001N1-00701+99999999999ADDAY101999AY201999GA1001+999999999GF100991001001999999001001MW1101REMSYN042AAXX  07231 15429 41925 00000 11070 71000;
0208154290999992000010800004+44420+026650FM-12+008899999V0209999C000012200019N0025001N1-00731-00821999999ADDAA106000021AJ100009199999999GA1001+999999999GF100991001001999999001001IA1309MA1999999101891MD1210041+9999ME1553059MW1251REMSYN076AAXX  08001 15429 31925 00000 11073 21082 30189 45305 52004 725// 333 42998;
0108154290999992000010817004+44420+026650FM-12+008899999V0209999C000010075019N0005001N1-00401+99999999999ADDAY141999AY241999GF108991081061008001999999MW1441REMSYN048AAXX  08171 15429 41505 80000 11040 74444 886//;
0202154290999992000010818004+44420+026650FM-12+008899999V0209999C000010075019N0005001N1-00431-00451103021ADDAA106000091AY141061AY211061GF108991081061008001999999MA1999999101881MD1210211+9999MW1441REMSYN083AAXX  08181 15429 31505 80000 11043 21045 30188 40302 52021 74441 886// 333 1100 8;EQDQ01  00002PRCP06
0224154290999992000010900004+44420+026650FM-12+008899999V02099999999990075019N0005001N1-00551-00591102951ADDAA106000091AJ100009199999999AY141061AY241061GF108991081061008001999999IA1309MA1999999101881MD1810051+9999MW1441REMSYN082AAXX  09001 15429 31505 8/000 11055 21059 30188 40295 58005 74444 886// 333 42998;EQDQ01  00002PRCP06
0211154290999992000010915004+44420+026650FM-12+008899999V0209999C000010001519N0000001N1-00631-00631102961ADDAA106000091AY141031AY241031GA1091+999999999GF109991091999999999999999MA1999999101811MD1510011+9999MW1451REMSYN076AAXX  09151 15429 31/00 90000 11063 21063 30181 40296 55001 74544 333 92717;EQDQ01  00002PRCP06
0128154290999992000010916004+44420+026650FM-12+008899999V0209999C000010001519N0000001N1-00661+99999999999ADDAY141999AY241999GA1091+999999999GF109991091999999999999999MW1451REMSYN052AAXX  09161 15429 41/00 90000 11066 74544 333 92717;
0128154290999992000010917004+44420+026650FM-12+008899999V0209999C000010001519N0000001N1-00671+99999999999ADDAY141999AY241999GA1091+999999999GF109991091999999999999999MW1451REMSYN052AAXX  09171 15429 41/00 90000 11067 74544 333 92717;
0281154290999992000010918004+44420+026650FM-12+008899999V0209999C000010001519N0000001N1-00701-00701103011ADDAA106000091AJ199992999999999AY141061AY241061GA1091+999999999GF109991091999999999999999IA1309KA1120M-00581MA1999999101851MD1110041+9999MW1451REMSYN094AAXX  09181 15429 31/00 90000 11070 21070 30185 40301 51004 74544 333 11058 3/10/ 42998 92717;EQDQ01  00002PRCP06Q02  09972SNDP  
0128154290999992000010923004+44420+026650FM-12+008899999V0209999C000010001519N0000001N1-00701+99999999999ADDAY141999AY241999GA1091+999999999GF109991091999999999999999MW1491REMSYN052AAXX  09231 15429 41/00 90000 11070 74944 333 92710;
0256154290999992000011000004+44420+026650FM-12+008899999V0209999C000010001519N0000001N1-00701-00701103111ADDAA106000091AJ199992999999999AY141061AY241061GA1091+999999999GF109991091999999999999999IA1309MA1999999101951MD1210061+9999MW1491REMSYN082AAXX  10001 15429 31/00 90000 11070 21070 30195 40311 52006 74944 333 42998 92710;EQDQ01  00002PRCP06Q02  09972SNDP  
0124154290999992000011005004+44420+026650FM-12+008899999V0209999C000010001519N0000001N1-00701+99999999999ADDAY141999AY241999GA1091+999999999GF109991091999999999999999MW1491REMSYN048AAXX  10051 15429 41/00 90000 11070 74944 92710;
0122154290999992000011016004+44420+026650FM-12+008899999V0209999C000010075019N9999999N1-00401+99999999999ADDAA106000091GF108991081061008001999999REMSYN054AAXX  10161 15429 315// 80000 11040 886// 87333 92717;EQDQ01  00002PRCP06
0118154290999992000011017004+44420+026650FM-12+008899999V0209999C000010075019N0005001N1-00501+99999999999ADDAY141999AY241999GF108991081061008001999999MW1441REMSYN058AAXX  10171 15429 41505 80000 11050 74444 886// 333 92717;
0271154290999992000011018004+44420+026650FM-12+008899999V0209999C000010075019N0005001N1-00701-00701103281ADDAA106000091AJ199992999999999AY141061AY241061GF108991081061008001999999IA1309KA1120M-00381MA1999999102121MD1210081+9999MW1441REMSYN100AAXX  10181 15429 31505 80000 11070 21070 30212 40328 52008 74444 886// 333 11038 3/105 42998 92717;EQDQ01  00002PRCP06Q02  09972SNDP  
0215154290999992000011100004+44420+026650FM-12+008899999V0209999C000012200019N0012001N1-00801-00801103511ADDAA106000091AY141061GA1001+999999999GF100991001001999999001001IA1309MA1999999102341MD1210071+9999MW1101REMSYN082AAXX  11001 15429 31912 00000 11080 21080 30234 40351 52007 7104/ 333 4299/ 92717;EQDQ01  00002PRCP06
0102154290999992000011105004+44420+026650FM-12+008899999V0209999C000010075019N0100001N1-00501+99999999999ADDGF108991081051008001999999MW1101REMSYN058AAXX  11051 15429 41560 80000 11050 710// 885// 333 92717;
0210154290999992000011112004+44420+026650FM-12+008899999V0209999C000010075019N0012001N1-00381-00381103841ADDAA106000091AJ199992999999999GF108991081051008001999999IA1309MA1999999102691REMSYN088AAXX  11121 15429 31512 80000 11038 21038 30269 40384 5//// 7//// 885// 333 42998 92717;EQDQ01  00002PRCP06Q02  09972SNDP  
0118154290999992000011116004+44420+026650FM-12+008899999V0209999C000010075019N0012001N1-00421+99999999999ADDAY121999AY221999GF108991081051008001999999MW1101REMSYN058AAXX  11161 15429 41512 80000 11042 71022 885// 333 92717;
0118154290999992000011117004+44420+026650FM-12+008899999V0209999C000010075019N0012001N1-00441+99999999999ADDAY121999AY221999GF108991081051008001999999MW1101REMSYN058AAXX  11171 15429 41512 80000 11044 71022 885// 333 92717;
0202154290999992000011118004+44420+026650FM-12+008899999V0209999C000010075019N0012001N1-00441-00461103861ADDAA106000091AY121061AY221061GF108991081091008001999999MA1999999102701MD1310011+9999MW1101REMSYN083AAXX  11181 15429 31512 80000 11044 21046 30270 40386 53001 71022 889// 333 1103 5;EQDQ01  00002PRCP06
0213154290999992000011200004+44420+026650FM-12+008899999V0209999C000010075019N0012001N1-00421+99999103861ADDAA106000091AY121061AY221061GF108991081051008001999999IA1309MA1999999102701MD1610051+9999MW1101REMSYN088AAXX  12001 15429 31512 80000 11042 2104/ 30270 40386 56005 71022 885// 333 4299/ 92717;EQDQ01  00002PRCP06
0283154290999992000011206004+44420+026650FM-12+008899999V0209999C000010075019N0012001N1-00401-00421103851ADDAA106000091AJ199992999999999AY121061AY221061GF108991081051008001999999IA1309IA2120-00609KA1120N-00481MA1999999102691MD1510011+9999MW1101REMSYN100AAXX  12061 15429 31512 80000 11040 21042 30269 40385 55001 71022 885// 333 21048 3/106 42998 92717;EQDQ01  00002PRCP06Q02  09972SNDP  
0118154290999992000011215004+44420+026650FM-12+008899999V0209999C000010075019N0012001N1-00201+99999999999ADDAY121031AY221031GF107991071051008001001001MW1101REMSYN058AAXX  12151 15429 41512 70000 11020 71022 87500 333 92717;
0118154290999992000011217004+44420+026650FM-12+008899999V0209999C000010006019N0028001N1-00201+99999999999ADDAY121999AY221999GF106991061051000751001001MW1101REMSYN058AAXX  12171 15429 41128 60000 11020 71022 86500 333 92717;
0202154290999992000011218004+44420+026650FM-12+008899999V0209999C000010075019N0012001N1-00301-00341103781ADDAA106000091AY111061AY211061GF107991071051008001001001MA1999999102631MD1310031+9999MW1101REMSYN083AAXX  12181 15429 31512 70000 11030 21034 30263 40378 53003 71011 87500 333 1100 2;EQDQ01  00002PRCP06
0099154290999992000011219004+44420+026650FM-12+008899999V0209999C000012200019N9999999N1+99999+99999999999ADDGF103991031001999999031001REMSYN042AAXX  12191 15429 ///// 30000 1177/ 83030;EQDQ01-007703ATOT  
0112154290999992000011223004+44420+026650FM-12+008899999V0209999C000012200019N0012001N1-00501+99999999999ADDGA1001+999999999GF100991001001999999001001MW1101REMSYN052AAXX  12231 15429 41912 00000 11050 710// 333 92711;
0211154290999992000011300004+44420+026650FM-12+008899999V0209999C000012200019N0012001N1-00541-00581103751ADDAA106000091AY111061AY211061GA1001+999999999GF100991001001999999001001MA1999999102591MD1410001+9999MW1101REMSYN076AAXX  13001 15429 31912 00000 11054 21058 30259 40375 54000 71011 333 2//98;EQDQ01  00002PRCP06
0156154290999992000011314004+44420+026650FM-12+008899999V02099999999990075019N9999999N1+00001+99999999999ADDAA106000091AY121999GF108991081051008001999999MD1710051+9999MW1101REMSYN060AAXX  13141 15429 3151/ 8000/ 1100/ 3//23 57005 7102/ 885//;EQDQ01  00002PRCP06
0108154290999992000011317004+44420+026650FM-12+008899999V0209999C000010075019N0012001N1-00101+99999999999ADDAY121999AY221999GF108991081051008001999999MW1101REMSYN048AAXX  13171 15429 41512 80000 11010 71022 885//;
0238154290999992000011400004+44420+026650FM-12+008899999V0209999C000012200019N0012001N1-00501-00501103541ADDAA199000091AJ100009199999999AY111061AY211061GA1001+999999999GF100991001001999999001001IA1309MA1999999102391MD1410001+9999MW1101REMSYN080    AAXX  14001 15429 31912 00000 11050 21050 30239 40354 54000 71011 333 42998;EQDQ01  00002PRCP99
0195154290999992000011415004+44420+026650FM-12+008899999V0209999C000010075019N0045001N1-00231-00391103351ADDAA199000091AY121031AY221031GF108991081051008001999999MA1999999102211MD1310011+9999MW1101REMSYN076    AAXX  14151 15429 31545 80000 11023 21039 30221 40335 53001 71022 885//;EQDQ01  00002PRCP99
0112154290999992000011416004+44420+026650FM-12+008899999V0209999C000010075019N0045001N1-00251+99999999999ADDAY121999AY221999GF108991081051008001999999MW1101REMSYN052    AAXX  14161 15429 41545 80000 11025 71022 885//;
0089154290999992000011417004+44420+026650FM-12+008899999V0209999C000019999999N0045001N1+99999+99999999999ADDGF108991999999008001999999REMSYN051    AAXX  14171 15429 41545 80000 1105 71022 885//;
0206154290999992000011418004+44420+026650FM-12+008899999V0209999C000010075019N0045001N1-00251-00481103361ADDAA199000091AY121061AY221061GF108991081051008001999999MA1999999102221MD1110011+9999MW1101REMSYN087    AAXX  14181 15429 31545 80000 11025 21048 30222 40336 51001 71022 885// 333 1100 7;EQDQ01  00002PRCP99
0096154290999992000011423004+44420+026650FM-12+008899999V0209999C000012200019N0045001N1-00901+99999999999ADDGF103991031001008001031001MW1101REMSYN052    AAXX  14231 15429 41545 30000 11090 710// 83030;
0211154290999992000011500004+44420+026650FM-12+008899999V0209999C000012200019N0045001N1-00881-01031103271ADDAA199000091AY111061AY211061GF104991041001999999031001IA1309MA1999999102101MD1810101+9999MW1101REMSYN086    AAXX  15001 15429 31945 40000 11088 21103 30210 40327 58010 71011 84030 333 4299/;EQDQ01  00002PRCP99
0096154290999992000011505004+44420+026650FM-12+008899999V0209999C000010075019N0045001N1-00621+99999999999ADDGF108991081051008001999999MW1101REMSYN052    AAXX  15051 15429 41545 80000 11062 710// 885//;
0122154290999992000011516004+44420+026650FM-12+008899999V0209999C000012200019N0045001N1-00501+99999999999ADDAY101999AY201999GA1001+999999999GF100991001001999999001001MW1101REMSYN046    AAXX  15161 15429 41945 00000 11050 71000;
0122154290999992000011517004+44420+026650FM-12+008899999V0209999C000012200019N0045001N1-00601+99999999999ADDAY101999AY201999GA1001+999999999GF100991001001999999001001MW1101REMSYN046    AAXX  15171 15429 41945 00000 11060 71000;
0257154290999992000011518004+44420+026650FM-12+008899999V0209999C000012200019N0045001N1-00621-00741102811ADDAA199000091AJ100009199999999AY111061AY211061GA1001+999999999GF100991001001999999001001KA1120M-00041MA1999999101661MD1810041+9999MW1101REMSYN092    AAXX  15181 15429 31945 00000 11062 21074 30166 40281 58004 71011 333 11004 3/00/ 42998;EQDQ01  00002PRCP99
0096154290999992000011523004+44420+026650FM-12+008899999V0209999C000010075019N0012001N1-00521+99999999999ADDGF108991081051008001999999MW1101REMSYN052    AAXX  15231 15429 41512 80000 11052 710// 885//;
0180154290999992000011600004+44420+026650FM-12+008899999V0209999C000010075019N0012001N1-00521-00551102671ADDAA199000091AJ100009199999999GF108991081051008001999999IA1309MA1999999101521REMSYN074    AAXX  16001 15429 31512 80000 11052 21055 30152 40267 885// 333 42998;EQDQ01  00002PRCP99
0106154290999992000011605004+44420+026650FM-12+008899999V0209999C000012200019N0025001N1-00721+99999999999ADDGA1001+999999999GF100991001001999999001001MW1101REMSYN046    AAXX  16051 15429 41925 00000 11072 710//;
0112154290999992000011616004+44420+026650FM-12+008899999V0209999C000010075019N0025001N1-00311+99999999999ADDAY121999AY221999GF107991071051008001001001MW1101REMSYN052    AAXX  16161 15429 41525 70000 11031 71022 87500;
0206154290999992000011618004+44420+026650FM-12+008899999V0209999C000010075019N0025001N1-00311-00551102791ADDAA199000091AY121061AY211061GF108991081051008001999999MA1999999101651MD1310031+9999MW1101REMSYN087    AAXX  16181 15429 31525 80000 11031 21055 30165 40279 53003 71021 885// 333 1000 0;EQDQ01  00002PRCP99
0112154290999992000011623004+44420+026650FM-12+008899999V0209999C000010075019N0025001N1-00301+99999999999ADDAY121999AY221999GF108991081051008001999999MW1101REMSYN052    AAXX  16231 15429 41525 80000 11030 71022 885//;
0195154290999992000011700004+44420+026650FM-12+008899999V0209999C000010075019N0015001N1-00551-00551999999ADDAA199000091AY121061AY221061GF108991081061008001999999MA1999999101751MD1710251+9999MW1101REMSYN076    AAXX  17001 15429 31515 80000 11055 21055 30175 4/243 57025 71022 886//;EQDQ01  00002PRCP99
0214154290999992000011710004+44420+026650FM-12+008899999V0202701N010019999999N0100001N1-00061-00551999999ADDAA199000091GF107991071001999999071001IA1119IA2999+00009KA1120M+00081MA1999999099462MD1710481+9999REMSYN086    AAXX  17101 15429 32960 72710 11006 21055 39946 4/005 57048 87070 333 10008 32//9;EQDQ01  00002PRCP99
0198154290999992000011718004+44420+026650FM-12+008899999V0202701N010019999999N0100001N1-00061-00501999999ADDAA199000091GF107991001001999999001999KA1120M+00081MA1999999099461REMSYN086    AAXX  17181 15429 32960 72710 11006 2105/ 39946 40/// 8070/ 333 10008 3/001 429/0;EQDQ01+000072SCOLCGQ02  00002PRCP99
0084154290999992000011723004+44420+026650FM-12+008899999V0202701N010019999999N0100001N1+00201+99999999999ADDGF107991071001999999071001REMSYN046    AAXX  17231 15429 42960 72710 10020 87070;
0232154290999992000011800004+44420+026650FM-12+008899999V0202701N010019999999N0100001N1+00241-00061099661ADDAA199000091AJ100009199999999GF107991071001999999071001IA1309MA1999999098582MD1710502+9999REMSYN080    AAXX  18001 15429 32960 72710 10024 21006 39858 49966 57050 87070 333 42998;EQDQ01+098583APOSP Q02+000502APC3  Q03  00002PRCP99
0219154290999992000011818004+44420+026650FM-12+008899999V0202301N003019999999N0100001N1+00151-00051099701ADDAA199000091AJ100009199999999GF107991071001999999071001KA1120M+00431MA1999999098611MD1210101+9999REMSYN092    AAXX  18181 15429 32960 72303 10015 21005 39861 49970 52010 87070 333 10043 3/00/ 42998;EQDQ01  00002PRCP99
0094154290999992000011911004+44420+026650FM-12+008899999V0202701N010012200019N0100001N1+00321+99999999999ADDGA1001+999999999GF100991001001999999001001REMSYN040    AAXX  19111 15429 42960 02710 10032;
0163154290999992000011915004+44420+026650FM-12+008899999V0202701N010012200019N0100001N1+00301-00351100501ADDAA199000091GF103991031001999999071001MA1999999099981MD1310231+9999REMSYN066AAXX  19151 15429 32960 32710 10030 21035 39998 40050 53023 83070;EQDQ01  00002PRCP99
0090154290999992000011916004+44420+026650FM-12+008899999V0202701N010012200019N0100001N1+00101+99999999999ADDGA1001+999999999GF100991001001999999001001REMSYN036AAXX  19161 15429 /2960 02710 10010;
0236154290999992000011918004+44420+026650FM-12+008899999V0202701N010012200019N0100001N1+00101-00361101182ADDAA199000091GA1001+999999999GF100991001001999999001001IA1149IA2999+00609KA1120M+00431MA1999999100081MD1210171+9999REMSYN076AAXX  19181 15429 32960 02710 10010 21036 30008 40118 52017 333 10043 34006;EQDQ01+101183APOSLPQ02  00002PRCP99
0183154290999992000012018004+44420+026650FM-12+008899999V0202701N010012200019N0100001N1-00191-00721999999ADDAA199000091GF102991021001999999041001IA1149IA2999+00309KA1120M+00231MD1810021+9999REMSYN070AAXX  20181 15429 32960 22710 11019 21072 58002 82040 333 10023 34003;EQDQ01  00002PRCP99
0192154290999992000012106004+44420+026650FM-12+008899999V0201801N010012200019N0100001N1-00131-00601101151ADDAA199000091GF102991021001999999041001KA1120N-00381MA1999999100041MD1710351+9999REMSYN082AAXX  21061 15429 32960 21810 11013 21060 30004 40115 57035 82040 333 21038 3410/;EQDQ01  00002PRCP99
0080154290999992000012107004+44420+026650FM-12+008899999V0202301N016012200019N0100001N1-00131+99999999999ADDGF102991021001999999041001REMSYN042AAXX  21071 15429 42960 22316 11013 82040;
0163154290999992000012112004+44420+026650FM-12+008899999V0202501N010010075019N0100001N1+00421-00071100541ADDAA199000091GF105991051031008001001001MA1999999099471MD1810341+9999REMSYN066AAXX  21121 15429 32560 52510 10042 21007 39947 40054 58034 85300;EQDQ01  00002PRCP99
0080154290999992000012116004+44420+026650FM-12+008899999V0202301N010010075019N0100001N1+00201+99999999999ADDGF108991081091008001999999REMSYN042AAXX  21161 15429 42560 82310 10020 889//;
0108154290999992000012117004+44420+026650FM-12+008899999V0202301N010010075019N0100001N1+00201+99999999999ADDAY181999AY221999GF108991081091008001999999MW1801REMSYN048AAXX  21171 15429 41560 82310 10020 78082 889//;
0090154290999992000012205004+44420+026650FM-12+008899999V0202701N010012200019N0100001N1-00401+99999999999ADDGA1001+999999999GF100991001001999999001001REMSYN036AAXX  22051 15429 42960 02710 11040;
0173154290999992000012215004+44420+026650FM-12+008899999V0202701N004012200019N0100001N1-00201-01101101931ADDAA199000091GA1001+999999999GF100991001001999999001001MA1999999100811MD1710111+9999REMSYN060AAXX  22151 15429 32960 02704 11020 21110 30081 40193 57011;EQDQ01  00002PRCP99
0090154290999992000012216004+44420+026650FM-12+008899999V0202701N004012200019N0100001N1-00201+99999999999ADDGA1001+999999999GF100991001001999999001001REMSYN036AAXX  22161 15429 42960 02704 11020;
0090154290999992000012217004+44420+026650FM-12+008899999V0202701N002012200019N0100001N1-00301+99999999999ADDGA1001+999999999GF100991001001999999001001REMSYN036AAXX  22171 15429 42960 02702 11030;
0220154290999992000012218004+44420+026650FM-12+008899999V0209999C000012200019N0100001N1-00401-01031101891ADDAA199000091GA1001+999999999GF100991001001999999001001IA1149IA2999-00209KA1120M-00131MA1999999100761MD1710051+9999REMSYN076AAXX  22181 15429 32960 00000 11040 21103 30076 40189 57005 333 11013 34102;EQDQ01  00002PRCP99
0151154290999992000012300004+44420+026650FM-12+008899999V02099999999999999999N0100001N1-00601-00751101771ADDAA199000091AY101061MA1999999100201MD1710051+9999MW1071REMSYN066AAXX  23001 15429 32960 /000/ 11060 21075 3002/ 40177 57005 7070/;EQDQ01  00002PRCP99
0080154290999992000012307004+44420+026650FM-12+008899999V0203601N002019999999N0100001N1-00501+99999999999ADDGF108991081001999999071999REMSYN042AAXX  23071 15429 42/60 83602 11050 8807/;
0187154290999992000012312004+44420+026650FM-12+008899999V0200501N003019999999N0005001N1-00561-00631999999ADDAA106006191AJ100069199999999GF108991999999008001999999IA1279MD1710141+9999REMSYN082AAXX  23121 15429 /1505 80503 11056 21063 40725 57014 60061 777/= 333 43006 6044/;EQDQ01 107253APOSLP
0118154290999992000012317004+44420+026650FM-12+008899999V0200501N002010075019N0005001N1-01601+99999999999ADDAY171999AY241999GF108991081001008001021999MW1711REMSYN058AAXX  23171 15429 41505 80502 11160 77174 8802/ 333 96/44;
0273154290999992000012318004+44420+026650FM-12+008899999V0200501N003010075019N0005001N1-00601-00641100862ADDAA103003091AJ100139199999999AY171061AY241061GF108991081001008001021999IA1279KA1120M-00481MA1999999099731MD1810031+9999MW1711REMSYN118AAXX  23181 15429 /1505 80503 11060 21064 39973 40086 58003 60112 77174 8802/ 333 11048 3/103 43013 60037 92820 96044;EQDQ01+100863APOSLP
0118154290999992000012323004+44420+026650FM-12+008899999V0209999C000010075019N0005001N1-00501+99999999999ADDAY171999AY241999GF108991081001008001021999MW1711REMSYN058AAXX  23231 15429 41505 80000 11050 77174 8802/ 333 96044;
0108154290999992000012407004+44420+026650FM-12+008899999V0202501N006010075019N0012001N1-00401+99999999999ADDAY171999AY271999GF108991081001008001021999MW1711REMSYN048AAXX  24071 15429 41512 82506 11040 77177 8802/;
0099154290999992000012411004+44420+026650FM-12+008899999V0202701N008012200019N0100001N1-00601+99999999999ADDGF101991999001999999071001REMSYN042AAXX  24111 15429 42960 12708 11060 87070;EQDQ01+000072SCOTLC
0144154290999992000012415004+44420+026650FM-12+008899999V0202701N008019999999N0100001N1-00401-00901100811ADDAA199000021GF106991061001999999071001MA1999999099691MD1310151+9999REMSYN066AAXX  24151 15429 32960 62708 11040 21090 39969 40081 53015 86070;
0074154290999992000012416004+44420+026650FM-12+008899999V0202701N007019999999N0100001N1+99999+99999999999ADDGF105991999999999999999999REMSYN036AAXX  24161 15429 42960 52707 12850;
0080154290999992000012417004+44420+026650FM-12+008899999V0202701N008019999999N0100001N1-00601+99999999999ADDGF107991071001999999071001REMSYN042AAXX  24171 15429 42960 72708 11060 87070;
0212154290999992000012418004+44420+026650FM-12+008899999V0202701N006012200019N0100001N1-00601-01081101161ADDAA112000391AJ100189199999999GA1001+999999999GF100991001001999999001001KA1120M-00301MA1999999100031MD1210341+9999REMSYN088AAXX  24181 15429 12960 02706 11060 21108 30003 40116 52034 69932 333 11030 3/00/ 43018;
0080154290999992000012423004+44420+026650FM-12+008899999V0202501N007019999999N0100001N1-00681+99999999999ADDGF108991081001999999071999REMSYN042AAXX  24231 15429 42960 82507 11068 8807/;
0196154290999992000012500004+44420+026650FM-12+008899999V0202501N008019999999N0100001N1-00681-01201101621ADDAA199000091AJ100189199999999GF108991081001999999071999IA1279MA1999999100491MD1210241+9999REMSYN076AAXX  25001 15429 32960 82508 11068 21120 30049 40162 52024 8807/ 333 43018;EQDQ01  00002PRCP99
0080154290999992000012505004+44420+026650FM-12+008899999V0202701N006019999999N0100001N1-00881+99999999999ADDGF108991081001999999071999REMSYN042AAXX  25051 15429 42960 82706 11088 8807/;
0080154290999992000012507004+44420+026650FM-12+008899999V0202701N003019999999N0100001N1-00901+99999999999ADDGF108991081001999999071999REMSYN042AAXX  25071 15429 42960 82703 11090 8807/;
0080154290999992000012517004+44420+026650FM-12+008899999V0202701N005019999999N0100001N1-01001+99999999999ADDGF105991051001999999071001REMSYN042AAXX  25171 15429 42960 52705 11100 85070;
0164154290999992000012609004+44420+026650FM-12+008899999V0202701N010019999999N0100001N1-00661-01091102871ADDAA199000091GF106991999001999999071001MD1810061+9999REMSYN066AAXX  26091 15429 32960 62710 11066 21109 3/172 40287 58006 84070;EQDQ01+000042SCOTLCQ02  00002PRCP99
0173154290999992000012615004+44420+026650FM-12+008899999V0202701N010012200019N0100001N1-00401-01201102541ADDAA199000091GA1001+999999999GF100991001001999999001001MA1999999101411MD1610081+9999REMSYN060AAXX  26151 15429 32960 02710 11040 21120 30141 40254 56008;EQDQ01  00002PRCP99
0090154290999992000012616004+44420+026650FM-12+008899999V0202701N010012200019N0100001N1-00581+99999999999ADDGA1001+999999999GF100991001001999999001001REMSYN036AAXX  26161 15429 42960 02710 11058;
0080154290999992000012617004+44420+026650FM-12+008899999V0202701N010012200019N0100001N1-00631+99999999999ADDGF102991021001999999041001REMSYN042AAXX  26171 15429 42960 22710 11063 82040;
0227154290999992000012618004+44420+026650FM-12+008899999V0202701N010012200019N0100001N1-00851-01331102731ADDAA199000091AJ100189199999999GF102991021001999999041001IA1279KA1120M-00361MA1999999101571MD1210161+9999REMSYN094AAXX  26181 15429 32960 22710 11085 21133 30157 40273 52016 82040 333 11036 3/10/ 43018 92850;EQDQ01  00002PRCP99
0102154290999992000012623004+44420+026650FM-12+008899999V0202701N014012200019N0100001N1-00451+99999999999ADDGF102991021001999999041001MW1361REMSYN058AAXX  26231 15429 41960 22714 11045 736// 82040 333 911//;
0090154290999992000012705004+44420+026650FM-12+008899999V0202701N004012200019N0100001N1-00501+99999999999ADDGA1001+999999999GF100991001001999999001001REMSYN036AAXX  27051 15429 42960 02704 11050;
0080154290999992000012707004+44420+026650FM-12+008899999V0202001N008012200019N0100001N1-00451+99999999999ADDGF102991001001999999001011REMSYN042AAXX  27071 15429 42960 22008 11045 80001;
0080154290999992000012708004+44420+026650FM-12+008899999V0202001N008012200019N0100001N1-00281+99999999999ADDGF102991001001999999001011REMSYN042AAXX  27081 15429 42960 22008 11028 80001;
0196154290999992000012712004+44420+026650FM-12+008899999V0202501N007012200019N0100001N1+00241-00631102561ADDAA199000091AJ100779199999999GF103991031001999999041001IA1289MA1999999101461MD1710151+9999REMSYN076AAXX  27121 15429 32960 32507 10024 21063 30146 40256 57015 83040 333 44077;EQDQ01  00002PRCP99
0196154290999992000012713004+44420+026650FM-12+008899999V0202501N001012200019N0100001N1+00241-00631102561ADDAA199000091AJ100179199999999GF103991031001999999041001IA1289MA1999999101461MD1710151+9999REMSYN076AAXX  27131 15429 32960 32501 10024 21063 30146 40256 57015 83040 333 44017;EQDQ01  00002PRCP99
0090154290999992000012714004+44420+026650FM-12+008899999V0202701N014012200019N0100001N1+00181+99999999999ADDGF102991021001999999041001REMSYN052AAXX  27141 15429 42960 22714 10018 82040 333 91118;
0163154290999992000012715004+44420+026650FM-12+008899999V0202701N010012200019N0100001N1+00281-00411999999ADDAA199000091GF102991021001999999041001MA1999999101341MD1510121+9999REMSYN066AAXX  27151 15429 32960 22710 10028 21041 30134 40/44 55012 82040;EQDQ01  00002PRCP99
0090154290999992000012717004+44420+026650FM-12+008899999V0202701N010012200019N0100001N1+00141+99999999999ADDGA1001+999999999GF100991001001999999001001REMSYN036AAXX  27171 15429 42960 02710 10014;
0090154290999992000012723004+44420+026650FM-12+008899999V0202501N003012200019N0100001N1-00021+99999999999ADDGA1001+999999999GF100991001001999999001001REMSYN036AAXX  27231 15429 42960 02503 11002;
0206154290999992000012800004+44420+026650FM-12+008899999V0202501N002012200019N0100001N1-00041-00321102461ADDAA199000091AJ100159199999999GA1001+999999999GF100991001001999999001001IA1289MA1999999101301MD1410001+9999REMSYN070AAXX  28001 15429 32960 02502 11004 21032 3013/ 40246 54000 333 44015;EQDQ01  00002PRCP99
0090154290999992000012805004+44420+026650FM-12+008899999V0202501N006012200019N0100001N1-00021+99999999999ADDGA1001+999999999GF100991001001999999001001REMSYN036AAXX  28051 15429 42960 02506 11002;
0232154290999992000012806004+44420+026650FM-12+008899999V0202901N002012200019N0100001N1-00121-00411102291ADDAA199000091GA1001+999999999GF100991001001999999001001IA1289IA2120-00709KA1120N-00141MA1999999101171MD1610051+9999REMSYN088AAXX  28061 15429 32960 02902 11012 21041 30117 40229 56005 333 21014 3/107 4401/ 92853;EQDQ01  00002PRCP99
0090154290999992000012807004+44420+026650FM-12+008899999V0209999C000012200019N0100001N1-00161+99999999999ADDGA1001+999999999GF100991001001999999001001REMSYN036AAXX  28071 15429 42960 00000 11016;
0173154290999992000012809004+44420+026650FM-12+008899999V0202701N002012200019N0100001N1+00101-00321102341ADDAA199000091GA1001+999999999GF100991001001999999001001MA1999999101231MD1219999+9999REMSYN060AAXX  28091 15429 32960 02702 10010 21032 30123 40234 520/6;EQDQ01  00002PRCP99
0090154290999992000012813004+44420+026650FM-12+008899999V0202701N002012200019N9999999N1+00661+99999999999ADDGA1001+999999999GF100991001001999999001001REMSYN036AAXX  28131 15429 ////0 02702 10066;
0173154290999992000012815004+44420+026650FM-12+008899999V0202701N002012200019N0100001N1+00601-01011102011ADDAA199000091GA1001+999999999GF100991001001999999001001MA1999999100971MD1510091+9999REMSYN060AAXX  28151 15429 32960 02702 10060 21101 30097 40201 55009;EQDQ01  00002PRCP99
0090154290999992000012816004+44420+026650FM-12+008899999V0202701N002012200019N0100001N1+00481+99999999999ADDGA1001+999999999GF100991001001999999001001REMSYN036AAXX  28161 15429 42960 02702 10048;
0090154290999992000012817004+44420+026650FM-12+008899999V0202701N002012200019N0100001N1+00301+99999999999ADDGA1001+999999999GF100991001001999999001001REMSYN036AAXX  28171 15429 42960 02702 10030;
0207154290999992000012818004+44420+026650FM-12+008899999V0202701N005012200019N0100001N1+00171-00871102181ADDAA199000091GA1001+999999999GF100991001001999999001001IA1289MA1999999101071MD1210101+9999REMSYN088AAXX  28181 15429 32960 02705 10017 21087 30107 40218 52010 333 1007/ 3/006 4400/ 92853;EQDQ01  00002PRCP99
0206154290999992000012900004+44420+026650FM-12+008899999V0202701N008012200019N0100001N1+00001-00631102241ADDAA199000091AJ100079199999999GA1001+999999999GF100991001001999999001001IA1289MA1999999101121MD1410001+9999REMSYN070AAXX  29001 15429 32960 02708 10000 21063 30112 40224 54000 333 44007;EQDQ01  00002PRCP99
0173154290999992000012915004+44420+026650FM-12+008899999V0209999C000012200019N0100001N1+00691-00591101831ADDAA199000091GA1001+999999999GF100991001001999999001001MA1999999100751MD1710201+9999REMSYN060AAXX  29151 15429 32960 00000 10069 21059 30075 40183 57020;EQDQ01  00002PRCP99
0090154290999992000012916004+44420+026650FM-12+008899999V0209999C000012200019N0100001N1+00501+99999999999ADDGA1001+999999999GF100991001001999999001001REMSYN036AAXX  29161 15429 42960 00000 10050;
0090154290999992000012917004+44420+026650FM-12+008899999V0209999C000012200019N0100001N1+00151+99999999999ADDGA1001+999999999GF100991001001999999001001REMSYN036AAXX  29171 15429 42960 00000 10015;
0142154290999992000013009004+44420+026650FM-12+008899999V0209999C000019999999N0100001N1+00261-00201101291ADDAA199000091GF108991081001999999071999MD1310061+9999REMSYN060AAXX  30091 15429 32960 80000 10026 21020 40129 53006 8807/;EQDQ01  00002PRCP99
0080154290999992000013014004+44420+026650FM-12+008899999V0201801N002012200019N0100001N1+00101+99999999999ADDGF102991021001999999041001REMSYN042AAXX  30141 15429 42960 21802 10010 82040;
0163154290999992000013015004+44420+026650FM-12+008899999V0202301N008019999999N0100001N1+00801+00251101201ADDAA199000091GF105991051001999999071001MA1999999100131MD1310021+9999REMSYN066AAXX  30151 15429 32960 52308 10080 20025 30013 40120 53002 85070;EQDQ01  00002PRCP99
0080154290999992000013016004+44420+026650FM-12+008899999V0202501N003010075019N0100001N1+00761+99999999999ADDGF108991051091008001071999REMSYN042AAXX  30161 15429 42560 82503 10076 8597/;
0080154290999992000013017004+44420+026650FM-12+008899999V0202501N005010075019N0100001N1+00701+99999999999ADDGF108991051091008001071999REMSYN042AAXX  30171 15429 42560 82505 10070 8597/;
0215154290999992000013018004+44420+026650FM-12+008899999V0202501N006010075019N0100001N1+00601+00341101601ADDAA199000091AJ100009199999999GF108991051091008001071999KA1120M+00881MA1999999100511MD1210381+9999REMSYN088AAXX  30181 15429 32560 82506 10060 20034 30051 40160 52038 8597/ 333 10088 3/00/ 42998;EQDQ01  00002PRCP99
0086154290999992000013020004+44420+026650FM-12+008899999V0202701N004019999999N0120001N1+00441+99999999999ADDGF108991081001999999071999REMSYN048AAXX  30201 15429 42962 82704 10044 8807/ 91118;
0090154290999992000013105004+44420+026650FM-12+008899999V0202301N002012200019N0100001N1+00231+99999999999ADDGA1001+999999999GF100991001001999999001001REMSYN036AAXX  31051 15429 42960 02302 10023;
0182154290999992000013115004+44420+026650FM-12+008899999V0209999C000012200019N0100001N1+01131+00251999999ADDAA199000091GA1001+999999999GF100991001001999999001001MA1999999100751MD1710191+9999ME1101829REMSYN060AAXX  31151 15429 32560 00000 10113 20025 30075 41182 57019;EQDQ01  00002PRCP99
0090154290999992000013116004+44420+026650FM-12+008899999V0209999C000012200019N0100001N1+01001+99999999999ADDGA1001+999999999GF100991001001999999001001REMSYN036AAXX  31161 15429 42960 00000 10100;
0090154290999992000013117004+44420+026650FM-12+008899999V0202701N006012200019N0100001N1+01001+99999999999ADDGA1001+999999999GF100991001001999999001001REMSYN036AAXX  31171 15429 42960 02706 10100;
0173154290999992000013121004+44420+026650FM-12+008899999V0202501N004019999999N0130001N1+00321-00251101661ADDAA199000091GF108991081001999999071999MA1999999101011MD1410001+9999REMSYN076AAXX  31211 15429 32963 82504 10032 21025 30101 40166 54000 8807/ 333 55065;EQDQ01  00002PRCP99
0090154290999992000013123004+44420+026650FM-12+008899999V0202701N002012200019N0100001N1+00821+99999999999ADDGA1001+999999999GF100991001001999999001001REMSYN036AAXX  31231 15429 42960 02702 10082;
0118154290999992000020107004+44420+026650FM-12+008899999V0209999C000012200019N0012001N1-01301+99999999999ADDAY101999AY201999GA1001+999999999GF100991001001999999001001MW1001REMSYN042AAXX  01071 15429 41912 00000 11130 70000;
0109154290999992000020108004+44420+026650FM-12+008899999V0202701N008012200019N0100001N1+00832+99999999999ADDGA1001+999999999GF100991001001999999001001REMSYN036AAXX  01081 15429 42960 02708 10083;EQDQ01+000833ATOT  
0206154290999992000020209004+44420+026650FM-12+008899999V0201801N005012200019N0100001N1+00451-00221999999ADDAA199000091AJ100069199999999GA1001+999999999GF100991001001999999001001IA1289MA1999999100951MD1710241+9999REMSYN070AAXX  02091 15429 32960 01805 10045 21022 30095 4//// 57024 333 44006;EQDQ01  00002PRCP99
0090154290999992000020210004+44420+026650FM-12+008899999V0209999C000012200019N0100001N1+00601+99999999999ADDGA1001+999999999GF100991001001999999001001REMSYN036AAXX  02101 15429 42960 00000 10060;
0090154290999992000020211004+44420+026650FM-12+008899999V0209999C000012200019N0100001N1+00801+99999999999ADDGA1001+999999999GF100991001001999999001001REMSYN036AAXX  02111 15429 42960 00000 10080;
0080154290999992000020214004+44420+026650FM-12+008899999V0201801N004012200019N0100001N1+01401+99999999999ADDGF102991999999999999999999REMSYN042AAXX  02141 15429 42960 21804 10140 2040/;
0163154290999992000020215004+44420+026650FM-12+008899999V0202301N006012200019N0100001N1+01501+00271101561ADDAA199000091GF102991021001999999041001MA1999999100511MD1710271+9999REMSYN066AAXX  02151 15429 32960 22306 10150 20027 30051 40156 57027 82040;EQDQ01  00002PRCP99
0080154290999992000020216004+44420+026650FM-12+008899999V0202301N006012200019N0100001N1+01281+99999999999ADDGF103991031001999999041001REMSYN042AAXX  02161 15429 42960 32306 10128 83040;
0080154290999992000020217004+44420+026650FM-12+008899999V0202301N003012200019N0100001N1+01081+99999999999ADDGF102991021001999999041001REMSYN042AAXX  02171 15429 42960 22303 10108 82040;
0220154290999992000020218004+44420+026650FM-12+008899999V0202701N004012200019N0100001N1+00881+00151101621ADDAA199000091GA1001+999999999GF100991001001999999001001IA1099IA2999+01309KA1120M+01571MA1999999100541MD1110031+9999REMSYN076AAXX  02181 15429 32960 02704 10088 20015 30054 40162 51003 333 10157 31013;EQDQ01  00002PRCP99
0167154290999992000020300004+44420+026650FM-12+008899999V0202701N006012200019N0100001N1+99999+99999101581ADDAA199000091GA1001+999999999GF100991001001999999001001MA1999999100501MD1810021+9999REMSYN054AAXX  03001 15429 32960 02706 20038 30050 40158 58002;EQDQ01  00002PRCP99
0080154290999992000020310004+44420+026650FM-12+008899999V0202701N006019999999N0100001N1+01051+99999999999ADDGF107991071001999999071001REMSYN042AAXX  03101 15429 42960 72706 10105 87070;
0080154290999992000020311004+44420+026650FM-12+008899999V0202701N006019999999N0100001N1+01051+99999999999ADDGF107991071001999999071001REMSYN042AAXX  03111 15429 42960 72706 10105 87070;
0080154290999992000020314004+44420+026650FM-12+008899999V0202701N010019999999N0100001N1+00801+99999999999ADDGF107991071001999999071001REMSYN042AAXX  03141 15429 42960 72710 10080 87070;
0163154290999992000020315004+44420+026650FM-12+008899999V0202701N010019999999N0100001N1+00761+00021102001ADDAA199000091GF107991071001999999071001MA1999999100921MD1210141+9999REMSYN066AAXX  03151 15429 32960 72710 10076 20002 30092 40200 52014 87070;EQDQ01  00002PRCP99
0080154290999992000020316004+44420+026650FM-12+008899999V0202701N010019999999N0100001N1+00751+99999999999ADDGF107991071001999999071001REMSYN042AAXX  03161 15429 42960 72710 10075 87070;
0080154290999992000020317004+44420+026650FM-12+008899999V0202701N010019999999N0100001N1+00701+99999999999ADDGF107991071001008001071001REMSYN042AAXX  03171 15429 42560 72710 10070 87070;
0090154290999992000020323004+44420+026650FM-12+008899999V0202701N004012200019N0100001N1+00801+99999999999ADDGA1001+999999999GF100991001001999999001001REMSYN036AAXX  03231 15429 42960 02704 10080;
0202154290999992000020406004+44420+026650FM-12+008899999V0209999C000012200019N0100001N1+00201+99999103071ADDAA199000091GA1001+999999999GF100991001001999999001001KA1120N+00101MA1999999101951MD1310131+9999REMSYN076AAXX  04061 15429 32960 00000 10020 210/5 30195 40307 53013 333 20010 34103;EQDQ01  00002PRCP99
0090154290999992000020417004+44420+026650FM-12+008899999V0202901N006012200019N0100001N1+00401+99999999999ADDGA1001+999999999GF100991001001999999001001REMSYN036AAXX  04171 15429 42960 02906 10040;
0080154290999992000020516004+44420+026650FM-12+008899999V0202701N002012200019N0100001N1+00681+99999999999ADDGF103991031001999999041001REMSYN042AAXX  05161 15429 42960 32702 10068 83040;
0080154290999992000020517004+44420+026650FM-12+008899999V0202901N006012200019N0100001N1+00621+99999999999ADDGF103991031001999999041001REMSYN042AAXX  05171 15429 42960 32906 10062 83040;
0190154290999992000020518004+44420+026650FM-12+008899999V0209999C000012200019N0100001N1+00501-00061102481ADDGA1001+999999999GF100991001001999999001001IA1099IA2999+01409KA1120M+01061MA1999999101391MD1310051+9999REMSYN076AAXX  05181 15429 ///60 00000 10050 21006 30139 40248 53005 333 10106 31014;
0090154290999992000020616004+44420+026650FM-12+008899999V0202701N004012200019N0100001N1+01101+99999999999ADDGA1001+999999999GF100991001001999999001001REMSYN036AAXX  06161 15429 42960 02704 10110;
0090154290999992000020617004+44420+026650FM-12+008899999V0202701N002012200019N0100001N1+00901+99999999999ADDGA1001+999999999GF100991001001999999001001REMSYN036AAXX  06171 15429 42960 02702 10090;
0220154290999992000020618004+44420+026650FM-12+008899999V0209999C000012200019N0100001N1+00721+00461102681ADDAA199000091GA1001+999999999GF100991001001999999001001IA1099IA2999+01909KA1120M+01451MA1999999101581MD1210051+9999REMSYN076AAXX  06181 15429 32960 00000 10072 20046 30158 40268 52005 333 10145 31019;EQDQ01  00002PRCP99
0189154290999992000020715004+44420+026650FM-12+008899999V0209999C000012200019N0110001N1+01531+00501102121ADDAA199000091GA1001+999999999GF100991001001999999001001MA1999999101071MD1611192+9999REMSYN060AAXX  07151 15429 32961 00000 10153 20050 30107 40212 56119;EQDQ01+001192APC3  Q02  00002PRCP99
0090154290999992000020716004+44420+026650FM-12+008899999V0209999C000012200019N0100001N1+01451+99999999999ADDGA1001+999999999GF100991001001999999001001REMSYN036AAXX  07161 15429 42960 00000 10145;
0090154290999992000020717004+44420+026650FM-12+008899999V0202301N005012200019N0100001N1+00482+99999999999ADDGA1001+999999999GF100991001001999999001001REMSYN036AAXX  07171 15429 42960 02305 10048;
0153154290999992000020718004+44420+026650FM-12+008899999V0209999C000012200019N0100001N1+00701+00461102111ADDAA199000091GA1001+999999999GF100991001001999999001001MA1999999101031REMSYN054AAXX  07181 15429 32960 00000 10070 20046 30103 40211;EQDQ01  00002PRCP99
0090154290999992000020723004+44420+026650FM-12+008899999V0209999C000012200019N0100001N1+00251+99999999999ADDGA1001+999999999GF100991001001999999001001REMSYN036AAXX  07231 15429 42960 00000 10025;
0080154290999992000020816004+44420+026650FM-12+008899999V0202701N010012200019N0100001N1+01201+99999999999ADDGF103991001001999999001041REMSYN042AAXX  08161 15429 42960 32710 10120 80004;
0090154290999992000020817004+44420+026650FM-12+008899999V0202701N010012200019N0100001N1+01001+99999999999ADDGA1001+999999999GF100991001001999999001001REMSYN036AAXX  08171 15429 42960 02710 10100;
0092154290999992000020916004+44420+026650FM-12+008899999V0209999C000010075019N0025001N1+00851+99999999999ADDGF108991081001008001021999MW1611REMSYN048AAXX  09161 15429 41525 80000 10085 761/6 8802/;
0108154290999992000020917004+44420+026650FM-12+008899999V0209999C000010075019N0025001N1+00701+99999999999ADDAY161999AY261999GF108991081001008001021999MW1211REMSYN048AAXX  09171 15429 41525 80000 10070 72166 8802/;
0080154290999992000020923004+44420+026650FM-12+008899999V0209999C000010075019N0100001N1+00651+99999999999ADDGF108991081001008001021999REMSYN042AAXX  09231 15429 42560 80000 10065 8802/;
0163154290999992000021012004+44420+026650FM-12+008899999V0209999C000010075019N0100001N1+00701+00251102401ADDAA199000091GF107991071051008001001001MA1999999101321MD1110101+9999REMSYN066AAXX  10121 15429 32560 70000 10070 20025 30132 40240 51010 87500;EQDQ01  00002PRCP99
0080154290999992000021013004+44420+026650FM-12+008899999V0209999C000010120019N0100001N1+00781+99999999999ADDGF106991061081008001001001REMSYN042AAXX  10131 15429 42560 60000 10078 86800;
0074154290999992000021015004+44420+026650FM-12+008899999V02099999999992200019N0100001N1+00701+99999999999ADDGF102991999999999999999999REMSYN036AAXX  10151 15429 42960 214// 10070;
0064154290999992000021016004+44420+026650FM-12+008899999V0209999C999999999999N9999999N1+99999+99999999999REMSYN036AAXX  10161 15429 4//// /0070 8040/;EQDQ01+007003WOSPD 
0080154290999992000021017004+44420+026650FM-12+008899999V0200901N002012200019N0100001N1+00621+99999999999ADDGF102991021001999999041001REMSYN042AAXX  10171 15429 42960 20902 10062 82040;
0145154290999992000021018004+44420+026650FM-12+008899999V0209999C000012200019N0100001N1+99999+99999102581ADDAA199000091GF103991999999999999999999MA1999999101481MD1210131+9999REMSYN048AAXX  10181 15429 32960 30000 30148 40258 52013;EQDQ01  00002PRCP99
0163154290999992000021100004+44420+026650FM-12+008899999V0209999C000019999999N0100001N1+00381+00261102581ADDAA199000091GF107991071001999999071001MA1999999101481MD1810021+9999REMSYN066AAXX  11001 15429 32960 70000 10038 20026 30148 40258 58002 87070;EQDQ01  00002PRCP99
0092154290999992000021105004+44420+026650FM-12+008899999V0209999C000019999999N0025001N1+00151+99999999999ADDGF106991061001999999071001MW1101REMSYN048AAXX  11051 15429 41925 60000 10015 710// 86070;
0108154290999992000021217004+44420+026650FM-12+008899999V0209999C000019999999N0025001N1+00581+99999999999ADDAY121999AY221999GF108991081001999999071999MW1101REMSYN048AAXX  12171 15429 41925 80000 10058 71022 8807/;
0236154290999992000021318004+44420+026650FM-12+008899999V0209999C000012200019N0025001N1+00271+00141102081ADDAA199000091AY101061AY201061GA1001+999999999GF100991001001999999001001IA1099KA1120M+00811MA1999999100981MD1610031+9999MW1101REMSYN082AAXX  13181 15429 31925 00000 10027 20014 30098 40208 56003 71000 333 10081 3101/;EQDQ01  00002PRCP99
0090154290999992000021416004+44420+026650FM-12+008899999V02099999999992200019N0100001N1+00501+99999999999ADDGA1001+999999999GF100991001001999999001001REMSYN036AAXX  14161 15429 42960 0270/ 10050;
0090154290999992000021417004+44420+026650FM-12+008899999V0202701N007012200019N0100001N1+00401+99999999999ADDGA1001+999999999GF100991001001999999001001REMSYN036AAXX  14171 15429 42960 02707 10040;
0189154290999992000021418004+44420+026650FM-12+008899999V0209999C000012200019N0050001N1+00281-00411101771ADDAA199000091GA1001+999999999GF100991001001999999001001MA1999999100671MD1212202+9999REMSYN060AAXX  14181 15429 32950 00000 10028 21041 30067 40177 5222/;EQDQ01+002202APC3  Q02  00002PRCP99
0090154290999992000021423004+44420+026650FM-12+008899999V0202701N003012200019N0100001N1+00241+99999999999ADDGA1001+999999999GF100991001001999999001001REMSYN036AAXX  14231 15429 42960 02703 10024;
0162154290999992000021500004+44420+026650FM-12+008899999V0209999C000012200019N9999999N1+00061-00301101821ADDAA199000091GA1001+999999999GF100991001001999999001001MD1110041+9999REMSYN064AAXX  15001 15429 3296/ 00000 10006 21030 40182 51004 333 92600;EQDQ01  00002PRCP99
0100154290999992000021507004+44420+026650FM-12+008899999V0209999C000012200019N0100001N1-00101+99999999999ADDGA1001+999999999GF100991001001999999001001REMSYN046AAXX  15071 15429 42960 00000 11010 333 92600;
0173154290999992000021509004+44420+026650FM-12+008899999V0202701N004012200019N0100001N1+00401-00251102041ADDAA199000091GA1001+999999999GF100991001001999999001001MA1999999100941MD1310211+9999REMSYN060AAXX  15091 15429 32960 02704 10040 21025 30094 40204 53021;EQDQ01  00002PRCP99
0090154290999992000021511004+44420+026650FM-12+008899999V0202701N005012200019N0100001N1+00651+99999999999ADDGA1001+999999999GF100991001001999999001001REMSYN036AAXX  15111 15429 42960 02705 10065;
0080154290999992000021513004+44420+026650FM-12+008899999V0202701N006012200019N0100001N1+00801+99999999999ADDGF102991021021008001001001REMSYN042AAXX  15131 15429 42560 22706 10080 82200;
0173154290999992000021515004+44420+026650FM-12+008899999V0202701N004012200019N0100001N1+00701-00441102021ADDAA199000091GA1001+999999999GF100991001001999999001001MA1999999100941MD1610071+9999REMSYN060AAXX  15151 15429 32960 02704 10070 21044 30094 40202 56007;EQDQ01  00002PRCP99
0090154290999992000021516004+44420+026650FM-12+008899999V0202701N004012200019N0100001N1+00601+99999999999ADDGA1001+999999999GF100991001001999999001001REMSYN036AAXX  15161 15429 42960 02704 10060;
0090154290999992000021517004+44420+026650FM-12+008899999V0202701N002012200019N0100001N1+00351+99999999999ADDGA1001+999999999GF100991001001999999001001REMSYN036AAXX  15171 15429 42960 02702 10035;
0220154290999992000021518004+44420+026650FM-12+008899999V0209999C000012200019N0100001N1+00101-00191102151ADDAA199000091GA1001+999999999GF100991001001999999001001IA1099IA2999+01109KA1120M+00751MA1999999101041MD1210101+9999REMSYN076AAXX  15181 15429 32960 00000 10010 21019 30104 40215 52010 333 10075 31011;EQDQ01  00002PRCP99
0072154290999992000021601004+44420+026650FM-12+008899999V0201001N006012200019N0000001N1+99999+99999999999ADDGF101991999999999999999999REMSYN034AAXX  16011 15429 2/900 11006 333;
0090154290999992000021605004+44420+026650FM-12+008899999V0209999C000010075019N0100001N1-00351+99999999999ADDGF105991051051008001001001REMSYN052AAXX  16051 15429 42560 50000 11035 85500 333 92611;
0100154290999992000021607004+44420+026650FM-12+008899999V0209999C000012200019N0100001N1-00501+99999999999ADDGA1001+999999999GF100991001001999999001001REMSYN046AAXX  16071 15429 42960 00000 11050 333 92611;
0090154290999992000021608004+44420+026650FM-12+008899999V0209999C000012200019N0100001N1-00201+99999999999ADDGF102991021001999999041001REMSYN052AAXX  16081 15429 42960 20000 11020 82040 333 92611;
0080154290999992000021610004+44420+026650FM-12+008899999V0209999C000012200019N0100001N1+00341+99999999999ADDGF102991021001999999041001REMSYN042AAXX  16101 15429 42960 20000 10034 82040;
0163154290999992000021612004+44420+026650FM-12+008899999V0201801N002012200019N0100001N1+00681-00611101561ADDAA199000091GF102991021001999999041001MA1999999100491MD1710231+9999REMSYN066AAXX  16121 15429 32960 21802 10068 21061 30049 40156 57023 82040;EQDQ01  00002PRCP99
0080154290999992000021614004+44420+026650FM-12+008899999V0201801N004012200019N0100001N1+00881+99999999999ADDGF102991021001999999041001REMSYN042AAXX  16141 15429 42960 21804 10088 82040;
0163154290999992000021615004+44420+026650FM-12+008899999V0201801N002012200019N0100001N1+00861-00941101291ADDAA199000091GF103991021001999999041011MA1999999100221MD1710271+9999REMSYN066AAXX  16151 15429 32960 31802 10086 21094 30022 40129 57027 82041;EQDQ01  00002PRCP99
0220154290999992000021618004+44420+026650FM-12+008899999V0209999C001012200019N0100001N1+00201-00341101261ADDAA199000091GA1001+999999999GF100991001001999999001001IA1099IA2999+01709KA1120M+00901MA1999999100171MD1610051+9999REMSYN076AAXX  16181 15429 32960 00001 10020 21034 30017 40126 56005 333 10090 31017;EQDQ01  00002PRCP99
0080154290999992000021623004+44420+026650FM-12+008899999V02099999999999999999N0100001N1+00301+99999999999ADDGF106991061001999999071001REMSYN042AAXX  16231 15429 42960 6360/ 10030 86070;
0195154290999992000021700004+44420+026650FM-12+008899999V0203201N999999999999N0100001N1+00311-00371100881ADDAA199000091GF106991061001999999071001MA1999999099791MD1610201+9999REMSYN066AAXX  17001 15429 32960 63286 10031 21037 39979 40088 56020 86070;EQDQ01+008603WOSPD Q02  00002PRCP99Q030008603WOSPD 
0080154290999992000021705004+44420+026650FM-12+008899999V0200201N006010075019N0100001N1+00221+99999999999ADDGF108991081001008001021999REMSYN042AAXX  17051 15429 42560 80206 10022 8802/;
0108154290999992000021716004+44420+026650FM-12+008899999V0209999C000010075019N0045001N1+00101+99999999999ADDAY161999AY261999GF108991081001008001021999MW1611REMSYN048AAXX  17161 15429 41545 80000 10010 76166 8802/;
0108154290999992000021717004+44420+026650FM-12+008899999V0209999C000010075019N0045001N1+00081+99999999999ADDAY161999AY261999GF108991081001008001021999MW1611REMSYN048AAXX  17171 15429 41545 80000 10008 76166 8802/;
0219154290999992000021718004+44420+026650FM-12+008899999V0209999C000010075019N0045001N1+00081+00051100311ADDAA103001091AY161061AY221061GF108991081001008001021999IA1099KA1120M+00521MA1999999099221MD1110121+9999MW1611REMSYN100AAXX  17181 15429 /1545 80000 10008 20005 39922 40031 51012 60032 76162 8802/ 333 10052 31005 60017;
0102154290999992000021723004+44420+026650FM-12+008899999V0209999C000010001519N0000001N1+00001+99999999999ADDGA1091+999999999GF109991091999999999999999MW1451REMSYN042AAXX  17231 15429 41/00 90000 10000 745//;
0188154290999992000021800004+44420+026650FM-12+008899999V0209999C000010001519N0000001N1+00001+00001100281ADDAA106000391AY161061AY241061GA1091+999999999GF109991091999999999999999MA1999999099191MD1410001+9999MW1451REMSYN072AAXX  18001 15429 11/00 90000 10000 20000 39919 40028 54000 69931 74564;
0092154290999992000021801004+44420+026650FM-12+008899999V0209999C000010360019N0015001N1+00021+99999999999ADDGF108991041071008001021999MW1101REMSYN048AAXX  18011 15429 41515 80000 10002 710/2 8472/;
0080154290999992000021807004+44420+026650FM-12+008899999V0202701N003010075019N0100001N1+00241+99999999999ADDGF108991081001008001021999REMSYN042AAXX  18071 15429 42560 82703 10024 8802/;
0080154290999992000021813004+44420+026650FM-12+008899999V0202701N006010075019N0100001N1+00451+99999999999ADDGF108991081001008001021999REMSYN042AAXX  18131 15429 42560 82706 10045 8802/;
0080154290999992000021816004+44420+026650FM-12+008899999V0202701N008010075019N0100001N1+00401+99999999999ADDGF108991081001008001021999REMSYN042AAXX  18161 15429 42560 82708 10040 8802/;
0080154290999992000021817004+44420+026650FM-12+008899999V0202701N008010075019N0100001N1+00401+99999999999ADDGF108991081001008001021999REMSYN042AAXX  18171 15429 42560 82708 10040 8802/;
0198154290999992000021818004+44420+026650FM-12+008899999V0202701N006010075019N0100001N1+00401-00101100711ADDAA199000091GF108991081001008001021999IA1099KA1120M+00551MA1999999099621MD1310261+9999REMSYN082AAXX  18181 15429 32560 82706 10040 21010 39962 40071 53026 8802/ 333 10055 3100/;EQDQ01  00002PRCP99
0167154290999992000021900004+44420+026650FM-12+008899999V02099999999992200019N0100001N1+00501-00671999999ADDAA199000091GA1001+999999999GF100991001001999999001001MA1999999099921MD1210051+9999REMSYN054AAXX  19001 15429 32960 0210/ 10050 21067 39992 52005;EQDQ01  00002PRCP99
0100154290999992000021905004+44420+026650FM-12+008899999V0209999C000012200019N0100001N1-00101+99999999999ADDGA1001+999999999GF100991001001999999001001REMSYN046AAXX  19051 15429 42960 00000 11010 333 92600;
0163154290999992000021915004+44420+026650FM-12+008899999V0202301N004019999999N0100001N1+00651-00911101081ADDAA199000091GF107991071001999999071001MA1999999100001MD1410001+9999REMSYN066AAXX  19151 15429 32960 72304 10065 21091 30000 40108 54000 87070;EQDQ01  00002PRCP99
0080154290999992000021916004+44420+026650FM-12+008899999V0202301N004019999999N9999999N1+99999+99999999999ADDGF107991071001999999071001REMSYN042AAXX  19161 15429 429/0 72304 10/60 87070;
0080154290999992000021917004+44420+026650FM-12+008899999V0202301N004019999999N0100001N1+00531+99999999999ADDGF107991071001999999071001REMSYN042AAXX  19171 15429 42960 72304 10053 87070;
0157154290999992000022000004+44420+026650FM-12+008899999V0209999C000012200019N0100001N1+00031-00141999999ADDAA199000091GF102991021001999999041001MA1999999100011MD1610081+9999REMSYN060AAXX  20001 15429 32960 20000 10003 21014 30001 56008 82040;EQDQ01  00002PRCP99
0080154290999992000022005004+44420+026650FM-12+008899999V0209999C000019999999N0100001N1+00101+99999999999ADDGF107991071001999999071011REMSYN042AAXX  20051 15429 42960 70000 10010 87071;
0182154290999992000022015004+44420+026650FM-12+008899999V0209999C000010075019N0045001N1+00221+00141101281ADDAA100001091AY161031AY261031GF108991081001008001021999MA1999999100191MD1710031+9999MW1611REMSYN082AAXX  20151 15429 21545 80000 10022 20014 30019 40128 57003 76166 8802/ 333 6001/;
0092154290999992000022023004+44420+026650FM-12+008899999V0209999C000019999999N0012001N1+00021+99999999999ADDGF106991061001999999071001MW1101REMSYN048AAXX  20231 15429 41912 60000 10002 710// 86070;
0092154290999992000022105004+44420+026650FM-12+008899999V0209999C000019999999N0025001N1-00041+99999999999ADDGF108991081001999999071999MW1101REMSYN048AAXX  21051 15429 41925 80000 11004 710// 8807/;
0248154290999992000022106004+44420+026650FM-12+008899999V0209999C000019999999N0060001N1-00041-00071101501ADDAA199000091AY121061AY221061GF107991071001008001071001IA1099IA2120-00109KA1120N-00061MA1999999100391MD1310081+9999MW1101REMSYN098AAXX  21061 15429 32556 70000 11004 21007 30039 40150 53008 71022 87070 333 21006 31101 555 60029;EQDQ01  00002PRCP99
0108154290999992000022107004+44420+026650FM-12+008899999V0209999C000019999999N0025001N1+00001+99999999999ADDAY121011AY221011GF107991071001999999071001MW1101REMSYN048AAXX  21071 15429 41925 70000 10000 71022 87070;
0108154290999992000022108004+44420+026650FM-12+008899999V0209999C000019999999N0025001N1+00101+99999999999ADDAY121999AY221999GF107991071001999999071001MW1101REMSYN048AAXX  21081 15429 41925 70000 10010 71022 87070;
0108154290999992000022111004+44420+026650FM-12+008899999V0209999C000019999999N0025001N1+00581+99999999999ADDAY121999AY221999GF105991051001999999071001MW1101REMSYN048AAXX  21111 15429 41925 50000 10058 71022 85070;
0163154290999992000022115004+44420+026650FM-12+008899999V0200901N008012200019N0100001N1+00601+00061101781ADDAA199000091GF103991031091008001001001MA1999999100691MD1310051+9999REMSYN066AAXX  21151 15429 32560 30908 10060 20006 30069 40178 53005 83900;EQDQ01  00002PRCP99
0090154290999992000022116004+44420+026650FM-12+008899999V0200901N008012200019N0100001N1+00501+99999999999ADDGA1001+999999999GF100991001001999999001001REMSYN036AAXX  21161 15429 42960 00908 10050;
0080154290999992000022117004+44420+026650FM-12+008899999V0203601N006012200019N0130001N1+00101+99999999999ADDGF103991031051008001001001REMSYN042AAXX  21171 15429 42563 33606 10010 83500;
0108154290999992000022217004+44420+026650FM-12+008899999V0209999C000010075019N0045001N1+00181+99999999999ADDAY121999AY221999GF108991081001008001021999MW1101REMSYN048AAXX  22171 15429 41545 80000 10018 71022 8802/;
0225154290999992000022218004+44420+026650FM-12+008899999V0202701N003010075019N0045001N1+00161-00321999999ADDAA112000191AY171061AY221061GF108991081001008001021999IA1099IA2999+00809KA1120M+00301MA1999999101321MD1310041+9999MW1101REMSYN094AAXX  22181 15429 11545 82703 10016 21032 30132 402/3 53004 69912 71072 8802/ 333 10030 31008;
0080154290999992000022307004+44420+026650FM-12+008899999V0209999C000012200019N0100001N1-00441+99999999999ADDGF103991031001999999031001REMSYN042AAXX  23071 15429 42960 30000 11044 83030;
0080154290999992000022308004+44420+026650FM-12+008899999V0209999C000012200019N0100001N1-00181+99999999999ADDGF103991031001999999031001REMSYN042AAXX  23081 15429 42960 30000 11018 83030;
0163154290999992000022309004+44420+026650FM-12+008899999V0209999C000012200019N0100001N1+00001-00341102701ADDAA199000091GF103991031001999999031001MA1999999101581MD1210131+9999REMSYN066AAXX  23091 15429 32960 30000 10000 21034 30158 40270 52013 83030;EQDQ01  00002PRCP99
0163154290999992000022312004+44420+026650FM-12+008899999V0201801N002012200019N0100001N1+00411-00111102641ADDAA199000091GF103991031021008001001001MA1999999101501MD1810081+9999REMSYN066AAXX  23121 15429 32560 31802 10041 21011 30150 40264 58008 83200;EQDQ01  00002PRCP99
0080154290999992000022313004+44420+026650FM-12+008899999V0201801N004010075019N0100001N1+00451+99999999999ADDGF106991061091008001001001REMSYN042AAXX  23131 15429 42560 61804 10045 86900;
0163154290999992000022315004+44420+026650FM-12+008899999V0201801N004010075019N0100001N1+00301-00581102561ADDAA199000091GF107991071091008001001001MA1999999101461MD1710041+9999REMSYN066AAXX  23151 15429 32560 71804 10030 21058 30146 40256 57004 87900;EQDQ01  00002PRCP99
0080154290999992000022316004+44420+026650FM-12+008899999V0202501N005010075019N0100001N1+00231+99999999999ADDGF107991071091008001001001REMSYN042AAXX  23161 15429 42560 72505 10023 87900;
0080154290999992000022317004+44420+026650FM-12+008899999V0202701N003010075019N0100001N1+00121+99999999999ADDGF107991071091008001001001REMSYN042AAXX  23171 15429 42560 72703 10012 87900;
0220154290999992000022318004+44420+026650FM-12+008899999V0209999C000012200019N0100001N1+00001-00181102661ADDAA199000091GA1001+999999999GF100991001001999999001001IA1099IA2999+01509KA1120M+00511MA1999999101541MD1210081+9999REMSYN076AAXX  23181 15429 32960 00000 10000 21018 30154 40266 52008 333 10051 31015;EQDQ01  00002PRCP99
0102154290999992000022323004+44420+026650FM-12+008899999V0209999C000019999999N0025001N1-00321+99999999999ADDGF106991061001999999071001MW1101REMSYN058AAXX  23231 15429 41925 60000 11032 710// 86070 333 92600;
0201154290999992000022400004+44420+026650FM-12+008899999V0209999C000019999999N0025001N1-00331-00361102731ADDAA199000091AY111061AY211061GF107991071001999999071001MA1999999101591MD1210101+9999MW1101REMSYN082AAXX  24001 15429 31925 70000 11033 21036 30159 40273 52010 71011 87070 333 92600;EQDQ01  00002PRCP99
0118154290999992000022405004+44420+026650FM-12+008899999V0209999C000019999999N0025001N1-00301+99999999999ADDAY121999AY221999GF107991071001999999071001MW1101REMSYN058AAXX  24051 15429 41925 70000 11030 71022 87070 333 92600;
0244154290999992000022406004+44420+026650FM-12+008899999V0209999C000019999999N0025001N1-00281-00311102781ADDAA199000091AY121061AY221061GF108991081001999999071999IA1149IA2120-00409KA1120N-00371MA1999999101641MD1310161+9999MW1101REMSYN094AAXX  24061 15429 31925 80000 11028 21031 30164 40278 53016 71022 8807/ 333 21037 34104 92600;EQDQ01  00002PRCP99
0118154290999992000022407004+44420+026650FM-12+008899999V0209999C000019999999N0025001N1-00201+99999999999ADDAY121011AY221011GF108991081001999999071999MW1101REMSYN058AAXX  24071 15429 41925 80000 11020 71022 8807/ 333 92600;
0112154290999992000022408004+44420+026650FM-12+008899999V0209999C000019999999N0025001N1-00101+99999999999ADDAY121999AY221999GF108991081001999999071999MW1101REMSYN052AAXX  24081 15429 41925 80000 11010 71022 8807/ 333;
0108154290999992000022413004+44420+026650FM-12+008899999V0209999C000010360019N0045001N1+00601+99999999999ADDAY121999AY221999GF105991031021008001071001MW1101REMSYN048AAXX  24131 15429 41545 50000 10060 71022 83270;
0108154290999992000022414004+44420+026650FM-12+008899999V0209999C000010075019N0045001N1+00401+99999999999ADDAY121999AY221999GF108991051091008001071999MW1101REMSYN048AAXX  24141 15429 41545 80000 10040 71022 8597/;
0191154290999992000022415004+44420+026650FM-12+008899999V0209999C000010075019N0045001N1+00351-00151102961ADDAA199000091AY121031AY221031GF107991051091008001071001MA1999999101851MD1810051+9999MW1101REMSYN072AAXX  24151 15429 31545 70000 10035 21015 30185 40296 58005 71022 85970;EQDQ01  00002PRCP99
0108154290999992000022416004+44420+026650FM-12+008899999V0209999C000012200019N0045001N1+00351+99999999999ADDAY111999AY211999GF102991021091008001001001MW1101REMSYN048AAXX  24161 15429 41545 20000 10035 71011 82900;
0254154290999992000022506004+44420+026650FM-12+008899999V0209999C000012200019N0045001N1-00551-00591103021ADDAA199000091AY101061AY201061GA1001+999999999GF100991001001999999001001IA1149IA2120-00809KA1120N-00651MA1999999101861MD1810181+9999MW1101REMSYN088AAXX  25061 15429 31945 00000 11055 21059 30186 40302 58018 71000 333 21065 34108 92600;EQDQ01  00002PRCP99
0128154290999992000022507004+44420+026650FM-12+008899999V0209999C000012200019N0045001N1-00401+99999999999ADDAY101999AY201999GA1001+999999999GF100991001001999999001001MW1101REMSYN052AAXX  25071 15429 41945 00000 11040 71000 333 92600;
0210154290999992000022518004+44420+026650FM-12+008899999V0202701N004019999999N0100001N1+00531-00181102141ADDAA199000091GF106991061001999999071001IA1099IA2999+01409KA1120M+01001MA1999999101051MD1610111+9999REMSYN082AAXX  25181 15429 32960 62704 10053 21018 30105 40214 56011 86070 333 10100 31014;EQDQ01  00002PRCP99
0080154290999992000022715004+44420+026650FM-12+008899999V0209999C000012200019N0010001N1+01001+99999999999ADDGF104991041021008001001001REMSYN042AAXX  27151 15429 42510 40000 10100 84200;
0080154290999992000022716004+44420+026650FM-12+008899999V0209999C000012200019N0100001N1+01001+99999999999ADDGF104991041021008001001001REMSYN042AAXX  27161 15429 42560 40000 10100 84200;
0074154290999992000022717004+44420+026650FM-12+008899999V0209999C000012200019N0100001N1+99999+99999999999ADDGF102991999999008001999999REMSYN036AAXX  27171 15429 42560 20000 222//;
0220154290999992000022718004+44420+026650FM-12+008899999V0209999C000012200019N0100001N1+00601-00411103141ADDAA199000091GA1001+999999999GF100991001001999999001001IA1099IA2999+02009KA1120M+01201MA1999999102041MD1310031+9999REMSYN076AAXX  27181 15429 32960 00000 10060 21041 30204 40314 53003 333 10120 31020;EQDQ01  00002PRCP99
0080154290999992000022723004+44420+026650FM-12+008899999V0209999C000019999999N0100001N1+00251+99999999999ADDGF107991071001999999071001REMSYN042AAXX  27231 15429 42960 70000 10025 87070;
0100154290999992000022805004+44420+026650FM-12+008899999V0202701N002012200019N0100001N1+00001+99999999999ADDGA1001+999999999GF100991001001999999001001REMSYN046AAXX  28051 15429 42960 02702 10000 333 92600;
0216154290999992000022806004+44420+026650FM-12+008899999V0202701N002012200019N0100001N1+00051-00091103591ADDAA199000091GF103991031091008001001001IA1149IA2120-00309KA1120N-00151MA1999999102471MD1210111+9999REMSYN088AAXX  28061 15429 32560 32702 10005 21009 30247 40359 52011 83900 333 21015 34103 92600;EQDQ01  00002PRCP99
0090154290999992000022807004+44420+026650FM-12+008899999V0202701N002010075019N0100001N1+00051+99999999999ADDGF107991051091008001071001REMSYN052AAXX  28071 15429 42560 72702 10005 85970 333 92600;
0137154290999992000022809004+44420+026650FM-12+008899999V0200501N005019999999N0100001N1+00181-00011103941ADDAA199000091GF107991999999008001999999MA1999999102811REMSYN054AAXX  28091 15429 32560 70505 10018 21001 30281 40394;EQDQ01  00002PRCP99
0080154290999992000022810004+44420+026650FM-12+008899999V0200501N005010360019N0100001N1+00311+99999999999ADDGF107991031091008001071001REMSYN042AAXX  28101 15429 42560 70505 10031 83970;
0080154290999992000022813004+44420+026650FM-12+008899999V0203601N004010360019N0100001N1+00601+99999999999ADDGF106991031021008001061001REMSYN042AAXX  28131 15429 42560 63604 10060 83260;
0080154290999992000022814004+44420+026650FM-12+008899999V0203601N004010360019N0100001N1+00601+99999999999ADDGF106991031021008001061001REMSYN042AAXX  28141 15429 42560 63604 10060 83260;
0080154290999992000022816004+44420+026650FM-12+008899999V0200501N004012200019N0100001N1+99999+99999999999ADDGF103991031031008001001001REMSYN042AAXX  28161 15429 42560 30504 100/6 83300;
0090154290999992000022817004+44420+026650FM-12+008899999V0200501N002012200019N0100001N1+00531+99999999999ADDGA1001+999999999GF100991001001999999001001REMSYN036AAXX  28171 15429 42960 00502 10053;
0220154290999992000022818004+44420+026650FM-12+008899999V0209999C000012200019N0100001N1+00181-00471103731ADDAA199000091GA1001+999999999GF100991001001999999001001IA1019IA2999+01609KA1120M+00731MA1999999102611MD1510031+9999REMSYN076AAXX  28181 15429 32960 00000 10018 21047 30261 40373 55003 333 10073 30016;EQDQ01  00002PRCP99
0119154290999992000022822004+44420+026650FM-12+008899999V0209999C000012200019N0100001N1+99999+99999999999ADDGA1001+999999999GF100991001001999999001001REMSYN046AAXX  28221 15429 42960 00000 1022/ 333 92600;EQDQ01+002203ATOT  
0100154290999992000022902004+44420+026650FM-12+008899999V0209999C000012200019N9999999N1-00411+99999999999ADDGA1001+999999999GF100991001001999999001001REMSYN046AAXX  29021 15429 ////0 00000 11041 333 92600;
0226154290999992000022906004+44420+026650FM-12+008899999V0209999C000012200019N0100001N1-00651-00731103391ADDAA199000091GA1001+999999999GF100991001001999999001001IA1149IA2120-00709KA1120N-00681MA1999999102241MD1710101+9999REMSYN082AAXX  29061 15429 32960 00000 11065 21073 30224 40339 57010 333 21068 34107 92600;EQDQ01  00002PRCP99
0100154290999992000022907004+44420+026650FM-12+008899999V0209999C000012200019N0100001N1-00561+99999999999ADDGA1001+999999999GF100991001001999999001001REMSYN046AAXX  29071 15429 42960 00000 11056 333 92600;
0100154290999992000022908004+44420+026650FM-12+008899999V0209999C000012200019N0100001N1-00181+99999999999ADDGA1001+999999999GF100991001001999999001001REMSYN046AAXX  29081 15429 42960 00000 11018 333 92600;
0090154290999992000022914004+44420+026650FM-12+008899999V0202301N004012200019N0100001N1+00801+99999999999ADDGA1001+999999999GF100991001001999999001001REMSYN036AAXX  29141 15429 42960 02304 10080;
0090154290999992000022917004+44420+026650FM-12+008899999V0209999C000012200019N0100001N1+00521+99999999999ADDGA1001+999999999GF100991001001999999001001REMSYN036AAXX  29171 15429 42960 00000 10052;
0100154290999992000030105004+44420+026650FM-12+008899999V0209999C000012200019N0100001N1-00671+99999999999ADDGA1001+999999999GF100991001001999999001001REMSYN046AAXX  01051 15429 42960 00000 11067 333 92600;
0080154290999992000030211004+44420+026650FM-12+008899999V0200501N002010075019N0100001N1+00501+99999999999ADDGF108991081051008001999999REMSYN042AAXX  02111 15429 42560 80502 10050 885//;
0163154290999992000030212004+44420+026650FM-12+008899999V0200201N003010075019N0100001N1+00531+00121101031ADDAA199000091GF107991071051008001001001MA1999999099951MD1310041+9999REMSYN066AAXX  02121 15429 32560 70203 10053 20012 39995 40103 53004 87500;EQDQ01  00002PRCP99
0080154290999992000030213004+44420+026650FM-12+008899999V0203601N005010075019N0100001N1+00511+99999999999ADDGF107991071051008001001001REMSYN042AAXX  02131 15429 42560 73605 10051 87500;
0133154290999992000030215004+44420+026650FM-12+008899999V0203601N005019999999N0100001N1+00451+00221999999ADDAA199000091GF108991999999008001999999REMSYN065AAXX  02151 15429 32560 83605 10045 20022 9991 40100 55006 885//;EQDQ01  00002PRCP99
0080154290999992000030216004+44420+026650FM-12+008899999V0203601N004010075019N0100001N1+00411+99999999999ADDGF108991081051008001999999REMSYN042AAXX  02161 15429 42560 83604 10041 885//;
0080154290999992000030217004+44420+026650FM-12+008899999V0202701N005010075019N0100001N1+00371+99999999999ADDGF108991081051008001999999REMSYN042AAXX  02171 15429 42560 82705 10037 885//;
0198154290999992000030218004+44420+026650FM-12+008899999V02099999999990075019N0100001N1+00371+00271101191ADDAA199000091GF108991081051008001999999IA1019KA1120M+00561MA1999999100101MD1210191+9999REMSYN082AAXX  02181 15429 32560 827/2 10037 20027 30010 40119 52019 885// 333 10056 3001/;EQDQ01  00002PRCP99
0195154290999992000030300004+44420+026650FM-12+008899999V0202701N006010075019N0100001N1+99999+00201101241ADDAA199000091GF106991061051008001001001MA1999999100151MD1510011+9999REMSYN066AAXX  03001 15429 32560 62706 1030/ 20020 30015 40124 55001 86500;EQDQ01+003003ATOT  Q02  00002PRCP99Q03 +03003ATOT  
0080154290999992000030305004+44420+026650FM-12+008899999V0202701N008010075019N0100001N1+00421+99999999999ADDGF106991061051008001001001REMSYN042AAXX  03051 15429 42560 62708 10042 86500;
0080154290999992000030307004+44420+026650FM-12+008899999V0203201N007010075019N0100001N1+00401+99999999999ADDGF106991061051008001001001REMSYN042AAXX  03071 15429 42560 63207 10040 86500;
0163154290999992000030309004+44420+026650FM-12+008899999V0203201N009010075019N0100001N1+00631+00131101711ADDAA199000091GF107991071051008001001001MA1999999100621MD1110341+9999REMSYN066AAXX  03091 15429 32560 73209 10063 20013 30062 40171 51034 87500;EQDQ01  00002PRCP99
0090154290999992000030316004+44420+026650FM-12+008899999V0202301N008012200019N0100001N1+00901+99999999999ADDGA1001+999999999GF100991001001999999001001REMSYN036AAXX  03161 15429 42960 02308 10090;
0090154290999992000030317004+44420+026650FM-12+008899999V0202301N006012200019N0100001N1+00631+99999999999ADDGA1001+999999999GF100991001001999999001001REMSYN036AAXX  03171 15429 42960 02306 10063;
0220154290999992000030318004+44420+026650FM-12+008899999V0202301N006012200019N0100001N1+00471-00531101861ADDAA199000091GA1001+999999999GF100991001001999999001001IA1019IA2999+02009KA1120M+01001MA1999999100761MD1310071+9999REMSYN076AAXX  03181 15429 32960 02306 10047 21053 30076 40186 53007 333 10100 30020;EQDQ01  00002PRCP99
0100154290999992000030323004+44420+026650FM-12+008899999V0209999C000012200019N0050001N1-00121+99999999999ADDGA1001+999999999GF100991001001999999001001REMSYN046AAXX  03231 15429 42/50 00000 11012 333 92600;
0147154290999992000030405004+44420+026650FM-12+008899999V0209999C999992200019N0045001N1-00441+99999999999ADDAY101999AY201999GA1001+999999999GF100991001001999999001001MW1101REMSYN052AAXX  04051 15429 41945 00080 11044 71000 333 92600;EQDQ01+008003WOSPD 
0242154290999992000030406004+44420+026650FM-12+008899999V0209999C000012200019N0045001N1-00401-00451101551ADDAA199000091AY101061AY201061GA1001+999999999GF100991001001999999001001IA1149KA1120N-00461MA1999999100431MD1810071+9999MW1101REMSYN088AAXX  04061 15429 31545 00000 11040 21045 30043 40155 58007 71000 333 21046 3410/ 92600;EQDQ01  00002PRCP99
0128154290999992000030407004+44420+026650FM-12+008899999V0209999C000012200019N0045001N1-00241+99999999999ADDAY101011AY201011GA1001+999999999GF100991001001999999001001MW1101REMSYN052AAXX  04071 15429 41945 00000 11024 71000 333 92600;
0198154290999992000030418004+44420+026650FM-12+008899999V0202701N004010360019N0100001N1+01001-00301101301ADDAA199000091GF107991031091008001071001IA1019KA1120M+01511MA1999999100241MD1310101+9999REMSYN082AAXX  04181 15429 32560 72704 10100 21030 30024 40130 53010 83970 333 10151 3002/;EQDQ01  00002PRCP99
0163154290999992000030500004+44420+026650FM-12+008899999V0202701N008010360019N0100001N1+99999+99999101491ADDAA199000091GF105991031091008001071001MA1999999100411MD1210081+9999REMSYN066AAXX  05001 15429 32560 52708 1/060 20009 30041 40149 52008 83970;EQDQ01  00002PRCP99
0080154290999992000030505004+44420+026650FM-12+008899999V0202701N008010075019N0100001N1+00501+99999999999ADDGF107991051091008001071001REMSYN042AAXX  05051 15429 42560 72708 10050 85970;
0080154290999992000030508004+44420+026650FM-12+008899999V0203201N010010360019N0100001N1+00401+99999999999ADDGF107991021091008001071001REMSYN042AAXX  05081 15429 42560 73210 10040 82970;
0163154290999992000030509004+44420+026650FM-12+008899999V0203201N010019999999N0100001N1+00421-00191102171ADDAA199000091GF107991071001999999071001MA1999999101071MD1210241+9999REMSYN066AAXX  05091 15429 32960 73210 10042 21019 30107 40217 52024 87070;EQDQ01  00002PRCP99
0074154290999992000030517004+44420+026650FM-12+008899999V0202701N010012200019N0100001N1+00321+99999999999ADDGF102991999999008001999999REMSYN036AAXX  05171 15429 42560 22710 10032;
0220154290999992000030518004+44420+026650FM-12+008899999V0202701N010012200019N0100001N1+00141-00491102431ADDAA199000091GA1001+999999999GF100991001001999999001001IA1019IA2999+02009KA1120M+00761MA1999999101321MD1210181+9999REMSYN076AAXX  05181 15429 32960 02710 10014 21049 30132 40243 52018 333 10076 30020;EQDQ01  00002PRCP99
0080154290999992000030519004+44420+026650FM-12+008899999V0209999C000010075019N0130001N1+00201+99999999999ADDGF108991081051008001999999REMSYN042AAXX  05191 15429 42563 80000 10020 885//;
0173154290999992000030600004+44420+026650FM-12+008899999V0203201N008012200019N0100001N1-00081+99999102691ADDAA199000091GA1001+999999999GF100991001001999999001001MA1999999101561MD1110031+9999REMSYN060AAXX  06001 15429 32960 03208 11008 27058 30156 40269 51003;EQDQ01  00002PRCP99
0220154290999992000030618004+44420+026650FM-12+008899999V0202901N010012200019N0100001N1+00141-00921103271ADDAA199000091GA1001+999999999GF100991001001999999001001IA1019IA2999+02209KA1120M+00701MA1999999102151MD1210081+9999REMSYN076AAXX  06181 15429 32960 02910 10014 21092 30215 40327 52008 333 10070 30022;EQDQ01  00002PRCP99
0183154290999992000030918004+44420+026650FM-12+008899999V0203401N007012200019N0160001N1+01521+01231102931ADDAA199000091GF102991021051008001001001MA1999999102821MD1810071+9999REMSYN086AAXX  09181 15429 32566 23407 10152 20123 30282 40293 58007 82500 91145 333 555 IWYUC;EQDQ01  00002PRCP99
0163154290999992000032112004+44420+026650FM-12+008899999V0203201N004012200019N0100001N1+00701-00821101951ADDAA199000091GF104991041021008001001001MA1999999100861MD1310011+9999REMSYN066AAXX  21121 15429 32560 43204 10070 21082 30086 40195 53001 84200;EQDQ01  00002PRCP99
0173154290999992000033109004+44420+026650FM-12+008899999V0202701N005012200019N0100001N1+01201+00171101401ADDAA199000091GA1001+999999999GF100991001001999999001001MA1999999100351MD1210041+9999REMSYN060AAXX  31091 15429 32960 02705 10120 20017 30035 40140 52004;EQDQ01  00002PRCP99
0090154290999992000033110004+44420+026650FM-12+008899999V0202701N003012200019N0100001N1+01401+99999999999ADDGA1001+999999999GF100991001001999999001001REMSYN036AAXX  31101 15429 42960 02703 10140;
0090154290999992000033114004+44420+026650FM-12+008899999V0209999C000012200019N0100001N1+01901+99999999999ADDGA1001+999999999GF100991001001999999001001REMSYN036AAXX  31141 15429 42960 00000 10190;
0090154290999992000033116004+44420+026650FM-12+008899999V0209999C000012200019N0100001N1+02001+99999999999ADDGA1001+999999999GF100991001001999999001001REMSYN036AAXX  31161 15429 42960 00000 10200;
0080154290999992000040110004+44420+026650FM-12+008899999V0200501N006019999999N0100001N1+01681+99999999999ADDGF106991001001999999001061REMSYN042AAXX  01101 15429 42960 60506 10168 80006;
0080154290999992000040111004+44420+026650FM-12+008899999V0200501N005019999999N0100001N1+01751+99999999999ADDGF106991001001999999001061REMSYN042AAXX  01111 15429 42960 60505 10175 80006;
0080154290999992000040113004+44420+026650FM-12+008899999V0201801N005019999999N0100001N1+01871+99999999999ADDGF107991071001999999071001REMSYN042AAXX  01131 15429 42960 71805 10187 87070;
0080154290999992000040313004+44420+026650FM-12+008899999V0202701N003010075019N0100001N1+01901+99999999999ADDGF108991051091008001071999REMSYN042AAXX  03131 15429 42560 82703 10190 8597/;
0090154290999992000040413004+44420+026650FM-12+008899999V0202701N002012200019N0100001N1+02111+99999999999ADDGA1001+999999999GF100991001001999999001001REMSYN036AAXX  04131 15429 42960 02702 10211;
0090154290999992000040414004+44420+026650FM-12+008899999V0202301N003012200019N0100001N1+02231+99999999999ADDGA1001+999999999GF100991001001999999001001REMSYN036AAXX  04141 15429 42960 02303 10223;
0100154290999992000040708004+44420+026650FM-12+008899999V0203201N016012200019N0100001N1+00711+99999999999ADDGA1001+999999999GF100991001001999999001001REMSYN046AAXX  07081 15429 42960 03216 10071 333 91120;
0100154290999992000040710004+44420+026650FM-12+008899999V0203201N018012200019N0100001N1+00911+99999999999ADDGA1001+999999999GF100991001001999999001001REMSYN046AAXX  07101 15429 42960 03218 10091 333 91124;
0244154290999992000040906004+44420+026650FM-12+008899999V0209999C000012200019N0045001N1+00201+00201101901ADDAA199000091AY111061AY211061GF103991031001999999071001IA1019IA2120-00109KA1120N+00051MA1999999100801MD1310081+9999MW1101REMSYN094AAXX  09061 15429 31945 30000 10020 20020 30080 40190 53008 71011 83070 333 20005 30101 92600;EQDQ01  00002PRCP99
0163154290999992000040912004+44420+026650FM-12+008899999V0202701N006012200019N0100001N1+01201-00051101801ADDAA199000091GF103991031091008001001001MA1999999100741MD1810101+9999REMSYN066AAXX  09121 15429 32560 32706 10120 21005 30074 40180 58010 83900;EQDQ01  00002PRCP99
0183154290999992000041000004+44420+026650FM-12+008899999V0209999C000012200019N0100001N1-00101-00221101801ADDAA199000091GA1001+999999999GF100991001001999999001001MA1999999100681MD1810031+9999REMSYN070AAXX  10001 15429 32960 00000 11010 21022 30068 40180 58003 333 92600;EQDQ01  00002PRCP99
0080154290999992000041014004+44420+026650FM-12+008899999V0200901N006012200019N0100001N1+01481+99999999999ADDGF102991021001999999041001REMSYN042AAXX  10141 15429 42960 20906 10148 82040;
0210154290999992000041018004+44420+026650FM-12+008899999V0200901N003019999999N0100001N1+01171-00301101101ADDAA199000091GF107991071001999999071001IA1019IA2999+03709KA1120M+01511MA1999999100041MD1610111+9999REMSYN082AAXX  10181 15429 32960 70903 10117 21030 30004 40110 56011 87070 333 10151 30037;EQDQ01  00002PRCP99
0191154290999992000041100004+44420+026650FM-12+008899999V0200501N007010075019N0100001N1+00951-00191100951ADDAA199000091AY121061AY221061GF107991071091008001001001MA1999999099881MD1710101+9999MW1171REMSYN072AAXX  11001 15429 31560 70507 10095 21019 39988 40095 57010 71722 87900;EQDQ01  00002PRCP99
0090154290999992000041107004+44420+026650FM-12+008899999V0200501N004010075019N0100001N1+00811+99999999999ADDGF108991051091008001071999REMSYN052AAXX  11071 15429 42560 80504 10081 8597/ 555 55068;
0080154290999992000041110004+44420+026650FM-12+008899999V0209999C000010075019N0100001N1+01001+99999999999ADDGF108991051091008001071999REMSYN042AAXX  11101 15429 42560 80000 10100 8597/;
0080154290999992000041111004+44420+026650FM-12+008899999V0209999C000010075019N0100001N1+01051+99999999999ADDGF108991051091008001071999REMSYN042AAXX  11111 15429 42560 80000 10105 8597/;
0080154290999992000041208004+44420+026650FM-12+008899999V0209999C000010360019N0100001N1+01201+99999999999ADDGF105991021091008001071001REMSYN042AAXX  12081 15429 42560 50000 10120 82970;
0220154290999992000041218004+44420+026650FM-12+008899999V0209999C000012200019N0100001N1+01701+00861100471ADDAA199000091GA1001+999999999GF100991001001999999001001IA1019IA2999+04009KA1120M+02011MA1999999099451MD1210071+9999REMSYN076AAXX  12181 15429 32960 00000 10170 20086 39945 40047 52007 333 10201 30040;EQDQ01  00002PRCP99
0090154290999992000041308004+44420+026650FM-12+008899999V0209999C000012200019N0100001N1+01551+99999999999ADDGA1001+999999999GF100991001001999999001001REMSYN036AAXX  13081 15429 42960 00000 10155;
0173154290999992000041309004+44420+026650FM-12+008899999V0209999C000012200019N0100001N1+01701+01061100921ADDAA199000091GA1001+999999999GF100991001001999999001001MA1999999099881MD1310011+9999REMSYN060AAXX  13091 15429 32960 00000 10170 20106 39988 40092 53001;EQDQ01  00002PRCP99
0090154290999992000041310004+44420+026650FM-12+008899999V0209999C000012200019N0100001N1+01831+99999999999ADDGA1001+999999999GF100991001001999999001001REMSYN036AAXX  13101 15429 42960 00000 10183;
0080154290999992000041313004+44420+026650FM-12+008899999V0202701N006012200019N0100001N1+02261+99999999999ADDGF102991021021008001001001REMSYN042AAXX  13131 15429 42560 22706 10226 82200;
0192154290999992000041406004+44420+026650FM-12+008899999V0209999C000012200019N0100001N1+00971+00821101071ADDAA199000091GF102991021001999999041001KA1120N+00741MA1999999100011MD1210151+9999REMSYN082AAXX  14061 15429 32960 20000 10097 20082 30001 40107 52015 82040 333 20074 30006;EQDQ01  00002PRCP99
0163154290999992000041409004+44420+026650FM-12+008899999V0209999C000012200019N0100001N1+01761+01201101061ADDAA199000091GF103991031001999999041001MA1999999100031MD1110021+9999REMSYN066AAXX  14091 15429 32960 30000 10176 20120 30003 40106 51002 83040;EQDQ01  00002PRCP99
0163154290999992000041415004+44420+026650FM-12+008899999V0202301N004012200019N0100001N1+02421+00551100771ADDAA199000091GF102991021021008001001001MA1999999099761MD1710161+9999REMSYN066AAXX  14151 15429 32560 22304 10242 20055 39976 40077 57016 82200;EQDQ01  00002PRCP99
0080154290999992000041508004+44420+026650FM-12+008899999V0209999C000010360019N0100001N1+01551+99999999999ADDGF105991021091008001071001REMSYN042AAXX  15081 15429 42560 50000 10155 82970;
0163154290999992000041509004+44420+026650FM-12+008899999V0209999C000010360019N0100001N1+01851+00801101081ADDAA199000091GF107991021091008001071001MA1999999100051MD1310121+9999REMSYN066AAXX  15091 15429 31560 70000 10185 20080 30005 40108 53012 82970;EQDQ01  00002PRCP99
0210154290999992000041518004+44420+026650FM-12+008899999V0209999C000010075019N0100001N1+02151+01051100631ADDAA199000091GF108991051091008001071999IA1019IA2999+04309KA1120M+02631MA1999999099611MD1710081+9999REMSYN082AAXX  15181 15429 32560 80000 10215 20105 39961 40063 57008 8597/ 333 10263 30043;EQDQ01  00002PRCP99
0080154290999992000041708004+44420+026650FM-12+008899999V0209999C000019999999N0100001N1+01901+99999999999ADDGF106991061001999999071001REMSYN042AAXX  17081 15429 42960 60000 10190 86070;
0080154290999992000041714004+44420+026650FM-12+008899999V0200901N004012200019N0100001N1+02781+99999999999ADDGF103991031021008001001001REMSYN042AAXX  17141 15429 42560 30904 10278 83200;
0173154290999992000041809004+44420+026650FM-12+008899999V0200901N002012200019N0100001N1+02101+01021100911ADDAA199000091GA1001+999999999GF100991001001999999001001MA1999999099891MD1110091+9999REMSYN060AAXX  18091 15429 32960 00902 10210 20102 39989 40091 51009;EQDQ01  00002PRCP99
0090154290999992000041811004+44420+026650FM-12+008899999V0200901N004012200019N0100001N1+02301+99999999999ADDGA1001+999999999GF100991001001999999001001REMSYN036AAXX  18111 15429 42960 00904 10230;
0163154290999992000041909004+44420+026650FM-12+008899999V0200901N007010075019N0100001N1+02031+01141100491ADDAA199000091GF105991051091008001001001MA1999999099481MD1710071+9999REMSYN066AAXX  19091 15429 32560 50907 10203 20114 39948 40049 57007 85900;EQDQ01  00002PRCP99
0080154290999992000041911004+44420+026650FM-12+008899999V0201401N006012200019N0100001N1+02321+99999999999ADDGF102991021021008001001001REMSYN042AAXX  19111 15429 42560 21406 10232 82200;
0191154290999992000041915004+44420+026650FM-12+008899999V0201801N007010360019N0100001N1+02101+01291100281ADDAA199000091AY191031AY221031GF107991041091008001071001MA1999999099271MD1510041+9999MW1171REMSYN072AAXX  19151 15429 31560 71807 10210 20129 39927 40028 55004 71792 84970;EQDQ01  00002PRCP99
0108154290999992000042008004+44420+026650FM-12+008899999V0209999C000010075019N0045001N1+01481+99999999999ADDAY121999AY221999GF108991051091008001071999MW1101REMSYN048AAXX  20081 15429 41545 80000 10148 71022 8597/;
0080154290999992000042013004+44420+026650FM-12+008899999V0200501N004010075019N0100001N1+02201+99999999999ADDGF108991051091008001071999REMSYN042AAXX  20131 15429 42560 80504 10220 8597/;
0100154290999992000042107004+44420+026650FM-12+008899999V0209999C000012200019N0100001N1+01351+99999999999ADDGA1001+999999999GF100991001001999999001001REMSYN046AAXX  21071 15429 42960 00000 10135 555 55010;
0090154290999992000042108004+44420+026650FM-12+008899999V0209999C000012200019N0100001N1+01731+99999999999ADDGA1001+999999999GF100991001001999999001001REMSYN036AAXX  21081 15429 42960 00000 10173;
0173154290999992000042109004+44420+026650FM-12+008899999V0209999C000012200019N0100001N1+02001+01291100951ADDAA199000091GA1001+999999999GF100991001001999999001001MA1999999099931MD1210111+9999REMSYN060AAXX  21091 15429 32960 00000 10200 20129 39993 40095 52011;EQDQ01  00002PRCP99
0101154290999992000042113004+44420+026650FM-12+008899999V0202701N002012200019N0100001N1+99999+99999999999ADDAA100024991GA1001+999999999GF100991001001999999001001REMSYN036AAXX  21131 15429 42960 02702 60250;
0090154290999992000042307004+44420+026650FM-12+008899999V0209999C000010360019N0100001N1+01481+99999999999ADDGF105991021091008001071001REMSYN052AAXX  23071 15429 42560 50000 10148 82970 555 55067;
0080154290999992000042308004+44420+026650FM-12+008899999V0209999C000012200019N0100001N1+01801+99999999999ADDGF104991041001999999071001REMSYN042AAXX  23081 15429 42960 40000 10180 84070;
0090154290999992000042311004+44420+026650FM-12+008899999V0209999C000012200019N0100001N1+02441+99999999999ADDGA1001+999999999GF100991001001999999001001REMSYN036AAXX  23111 15429 42960 00000 10244;
0173154290999992000042400004+44420+026650FM-12+008899999V0209999C000012200019N0100001N1+01201+01121101021ADDAA199000091GA1001+999999999GF100991001001999999001001MA1999999099971MD1810051+9999REMSYN060AAXX  24001 15429 32960 00000 10120 20112 39997 40102 58005;EQDQ01  00002PRCP99
0220154290999992000042406004+44420+026650FM-12+008899999V0209999C000019999999N0045001N1+01141+01101100801ADDAA199000091AY111061AY211061GF107991071001999999071001KA1120N+00801MA1999999099751MD1610011+9999MW1101REMSYN088AAXX  24061 15429 31945 70000 10114 20110 39975 40080 56001 71011 87070 333 20080 30008;EQDQ01  00002PRCP99
0173154290999992000042409004+44420+026650FM-12+008899999V0201801N004012200019N0100001N1+01901+01471100721ADDAA199000091GA1001+999999999GF100991001001999999001001MA1999999099691MD1710061+9999REMSYN060AAXX  24091 15429 32960 01804 10190 20147 39969 40072 57006;EQDQ01  00002PRCP99
0163154290999992000042415004+44420+026650FM-12+008899999V0202701N004012200019N0100001N1+02401+01291100431ADDAA199000091GF102991021031008001001001MA1999999099431MD1710131+9999REMSYN066AAXX  24151 15429 32560 22704 10240 20129 39943 40043 57013 82300;EQDQ01  00002PRCP99
0118154290999992000042607004+44420+026650FM-12+008899999V0209999C000019999999N0045001N1+01401+99999999999ADDAY121999AY221999GF105991051001999999071001MW1101REMSYN058AAXX  26071 15429 41945 50000 10140 71022 85070 555 55004;
0204154290999992000042706004+44420+026650FM-12+008899999V0209999C000019999999N0025001N1+01421+01381101721ADDAA199000091GF106991061001999999071001KA1120N+01251MA1999999100671MD1210121+9999MW1101REMSYN088AAXX  27061 15429 31925 60000 10142 20138 30067 40172 52012 710// 86070 333 20125 31013;EQDQ01  00002PRCP99
0108154290999992000042708004+44420+026650FM-12+008899999V0209999C000019999999N0025001N1+01701+99999999999ADDAY121999AY221999GF107991071001999999071001MW1101REMSYN048AAXX  27081 15429 41925 70000 10170 71022 87070;
0108154290999992000042710004+44420+026650FM-12+008899999V0209999C000010360019N0025001N1+01931+99999999999ADDAY121999AY221999GF107991031091008001071001MW1101REMSYN048AAXX  27101 15429 41525 70000 10193 71022 83970;
0108154290999992000042713004+44420+026650FM-12+008899999V0209999C000010075019N0100001N1+02001+99999999999ADDAY181999AY221999GF107991071091008001001001MW1171REMSYN048AAXX  27131 15429 41560 70000 10200 71782 87900;
0108154290999992000042714004+44420+026650FM-12+008899999V0209999C000010075019N0100001N1+01951+99999999999ADDAY191999AY291999GF107991071091008001001001MW1171REMSYN048AAXX  27141 15429 41560 70000 10195 71799 87900;
0163154290999992000042915004+44420+026650FM-12+008899999V0200501N004012200019N0100001N1+02501+01251101621ADDAA199000091GF102991021021008001001001MA1999999100601MD1510131+9999REMSYN066AAXX  29151 15429 32560 20504 10250 20125 30060 40162 55013 82200;EQDQ01  00002PRCP99
0090154290999992000042923004+44420+026650FM-12+008899999V0209999C000012200019N0100001N1+01541+99999999999ADDGA1001+999999999GF100991001001999999001001REMSYN036AAXX  29231 15429 42960 00000 10154;
0173154290999992000043000004+44420+026650FM-12+008899999V0209999C000012200019N0100001N1+01521+01371101951ADDAA199000091GA1001+999999999GF100991001001999999001001MA1999999100901MD1210101+9999REMSYN060AAXX  30001 15429 32960 00000 10152 20137 30090 40195 52010;EQDQ01  00002PRCP99
0118154290999992000043007004+44420+026650FM-12+008899999V0209999C000019999999N0045001N1+01631+99999999999ADDAY121999AY221999GF107991071001999999071001MW1101REMSYN058AAXX  30071 15429 41945 70000 10163 71022 87070 555 55111;
