0167156400999992000010100004+42670+026320FM-12+025799999V0203201N005010075019N0040001N1+00341+00131100691ADDAA106008991AY161061AY221061GF108991081001008001021999MD1710041+9999MW1631REMSYN082AAXX  01001 15640 11596 83205 10034 20013 40069 57004 60091 76362 8802/ 555 95060;
0242156400999992000010103004+42670+026320FM-12+025799999V0203201N018010120019N0100001N1+00081-00351101031ADDAA124020091AY161031AY221031GF108991081051012501999999KA1999M+00351MD1310301+9999MW1021OA149902001OA259901801REMSYN122AAXX  01031 15640 41697 83218 10008 21035 40103 53030 70262 885// 333 91120 91532 91218 91532 555 10035 29080 60204 95000;
0274156400999992000010106004+42670+026320FM-12+025799999V0203201N018010075019N0040001N1-00051-00471101481ADDAA112008991AY171061AY221061GF108991081051008001999999GJ100009IA1149IA2999-00309KA1120N-00061MD1210421+9999MW1711OA149902001OA259901801REMSYN128AAXX  01061 15640 11596 83218 11005 21047 40148 52042 60092 77172 885// 333 21006 55000 91120 91532 91218 91532 555 34103 95060;
0150156400999992000010109004+42670+026320FM-12+025799999V0203201N003010120019N0100001N1+00141-00331101951ADDAY171031AY221031GF108991081051012501999999MD1210481+9999MW1711REMSYN076AAXX  01091 15640 41697 83203 10014 21033 40195 52048 77172 885// 555 95000;
0167156400999992000010112004+42670+026320FM-12+025799999V0202701N003010120019N0100001N1+00161-00331102071ADDAA106000791AY171061AY221061GF108991081001012501021999MD1210121+9999MW1701REMSYN082AAXX  01121 15640 11697 82703 10016 21033 40207 52012 69901 77072 8802/ 555 95000;
0150156400999992000010115004+42670+026320FM-12+025799999V0209999C000012200019N0200001N1+00041-00441102271ADDAY111031AY211031GF103991031051012501001001MD1210181+9999MW1011REMSYN076AAXX  01151 15640 41698 30000 10004 21044 40227 52018 70111 83500 555 95000;
0184156400999992000010118004+42670+026320FM-12+025799999V0203201N003010120019N0200001N1+00041-00501102341ADDAA106000021AY111061AY211061GF108991081051012501999999KA1120M+00201MD1210071+9999MW1031REMSYN086AAXX  01181 15640 31698 83203 10004 21050 40234 52007 70311 885// 333 10020 555 95000;
0150156400999992000010121004+42670+026320FM-12+025799999V0202301N003010120019N0200001N1-00011-00541102441ADDAY121031AY221031GF108991081051012501999999MD1210081+9999MW1021REMSYN076AAXX  01211 15640 41698 82303 11001 21054 40244 52008 70222 885// 555 95000;
0180156400999992000010200004+42670+026320FM-12+025799999V0209999C000010120019N0100001N1-00041-00601102491ADDAA106000091AY121061AY221061GF108991081051012501999999MD1210051+9999MW1021REMSYN076AAXX  02001 15640 31697 80000 11004 21060 40249 52005 70222 885// 555 95000;EQDQ01  00002PRCP06
0168156400999992000010203004+42670+026320FM-12+025799999V0209999C000010120019N0100001N1-00101-00571102461ADDAY121031AY221031GF108991081051012501999999MD1810041+9999MW1021REMSYN094AAXX  02031 15640 41697 80000 11010 21057 40246 58004 70222 885// 555 10004 29071 60044 95000;
0241156400999992000010206004+42670+026320FM-12+025799999V0203201N002010150019N0100001N1-00061-00641102521ADDAA106000091AY121061AY221061GF108991081051017501999999GJ100909IA1099IA2999-04009KA1120N-00091MD1310071+9999MW1021REMSYN098AAXX  02061 15640 31797 83202 11006 21064 40252 53007 70222 885// 333 21009 55015 555 31140 95000;EQDQ01  00002PRCP06
0150156400999992000010209004+42670+026320FM-12+025799999V0209999C000010120019N0200001N1-00021-00571102671ADDAY121031AY221031GF108991081051012501999999MD1210151+9999MW1021REMSYN076AAXX  02091 15640 41698 80000 11002 21057 40267 52015 70222 885// 555 95000;
0180156400999992000010212004+42670+026320FM-12+025799999V0209999C000012200019N0200001N1+00061-00441102661ADDAA106000091AY111061AY211061GF103991011001999999031011MD1410001+9999MW1011REMSYN076AAXX  02121 15640 31998 30000 10006 21044 40266 54000 70111 81031 555 95000;EQDQ01  00002PRCP06
0150156400999992000010215004+42670+026320FM-12+025799999V0209999C000010120019N0200001N1-00091-00711102731ADDAY111031AY211031GF108991051051012501041061MD1810041+9999MW1031REMSYN076AAXX  02151 15640 41698 80000 11009 21071 40273 58004 70311 85546 555 95000;
0203156400999992000010218004+42670+026320FM-12+025799999V0209999C000012200019N0200001N1-00211-00741102831ADDAA106000091AY111061AY211061GA1001+999999999GF100991001001999999001001KA1999M+00141MD1210091+9999MW1011REMSYN070AAXX  02181 15640 31998 00000 11021 21074 40283 52009 70111 333 10014;EQDQ01  00002PRCP06
0134156400999992000010221004+42670+026320FM-12+025799999V0209999C000012200019N0200001N1-00181-00781102871ADDAY101031AY201031GF102991999999999999999999MD1210041+9999MW1031REMSYN060AAXX  02211 15640 41998 20000 11018 21078 40287 52004 70300;
0180156400999992000010300004+42670+026320FM-12+025799999V0203601N003012200019N0200001N1-00221-00711102881ADDAA106000091AY101061AY201061GF103991031001999999031001MD1210011+9999MW1031REMSYN076AAXX  03001 15640 31998 33603 11022 21071 40288 52001 70300 83030 555 95000;EQDQ01  00002PRCP06
0162156400999992000010303004+42670+026320FM-12+025799999V0203601N005019999999N0200001N1-00211-00781102881ADDAY111031AY211031GF105991051001999999031001MD1410001+9999MW1031REMSYN088AAXX  03031 15640 41998 53605 11021 21078 40288 54000 70311 85030 555 11010 29067 95000;
0241156400999992000010306004+42670+026320FM-12+025799999V0203601N005012200019N0200001N1-00281-00781102921ADDAA106000091AY111061AY211061GF102991021001999999031001GJ101269IA1149IA2999-00809KA1120N-00311MD1310041+9999MW1011REMSYN098AAXX  03061 15640 31998 23605 11028 21078 40292 53004 70111 82030 333 21031 55021 555 34108 95000;EQDQ01  00002PRCP06
0228156400999992000010307004+42670+026320FM-12+025799999V0203601N005012200019N0200001N1-00281-00781102921ADDAA106000091AY111999AY211999GF102991021001999999031001GJ101269IA1149IA2999-00809MD1310041+9999MW1011REMSYN098AAXX  03071 15640 31998 23605 11028 21078 40292 53004 70111 82030 333 210/1 55021 555 34108 95000;EQDQ01  00002PRCP06
0241156400999992000010308004+42670+026320FM-12+025799999V0203601N005012200019N0200001N1-00281-00781102921ADDAA106000091AY111999AY211999GF102991021001999999031001GJ101269IA1149IA2999-00809KA1120N-00311MD1310041+9999MW1011REMSYN098AAXX  03081 15640 31998 23605 11028 21078 40292 53004 70111 82030 333 21031 55021 555 34108 95000;EQDQ01  00002PRCP06
0150156400999992000010309004+42670+026320FM-12+025799999V0203201N005012200019N0200001N1-00081-00741102981ADDAY101031AY201031GA1001+999999999GF100991001001999999001001MD1210081+9999MW1011REMSYN060AAXX  03091 15640 41998 03205 11008 21074 40298 52008 70100;
0150156400999992000010315004+42670+026320FM-12+025799999V0203201N007012200019N0200001N1-00181-00901102761ADDAY101031AY201031GA1001+999999999GF100991001001999999001001MD1710031+9999MW1011REMSYN060AAXX  03151 15640 41998 03207 11018 21090 40276 57003 70100;
0203156400999992000010318004+42670+026320FM-12+025799999V0203201N005012200019N0200001N1-00221-00861102631ADDAA106000091AY101061AY201061GA1001+999999999GF100991001001999999001001KA1999M+00041MD1710131+9999MW1021REMSYN070AAXX  03181 15640 31998 03205 11022 21086 40263 57013 70200 333 10004;EQDQ01  00002PRCP06
0150156400999992000010321004+42670+026320FM-12+025799999V0209999C000012200019N0200001N1-00281-01071102571ADDAY101031AY201031GA1001+999999999GF100991001001999999001001MD1710061+9999MW1021REMSYN060AAXX  03211 15640 41998 00000 11028 21107 40257 57006 70200;
0180156400999992000010400004+42670+026320FM-12+025799999V0209999C000012200019N0200001N1-00301-00981102501ADDAA106000091AY101061AY201061GA1001+999999999GF100991001001999999001001MD1710071+9999MW1021REMSYN060AAXX  04001 15640 31998 00000 11030 21098 40250 57007 70200;EQDQ01  00002PRCP06
0162156400999992000010403004+42670+026320FM-12+025799999V0203201N003019999999N0200001N1-00141-00781102351ADDAY111031AY211031GF105991051001999999051001MD1710131+9999MW1031REMSYN088AAXX  04031 15640 41998 53203 11014 21078 40235 57013 70311 85050 555 11020 29062 95000;
0241156400999992000010406004+42670+026320FM-12+025799999V0202301N002012200019N0200001N1-00101-00741102321ADDAA106000091AY111061AY211061GF103991031001999999051001GJ104809IA1149IA2999-00809KA1120N-00301MD1710031+9999MW1011REMSYN098AAXX  04061 15640 31998 32302 11010 21074 40232 57003 70111 83050 333 21030 55080 555 34108 95000;EQDQ01  00002PRCP06
0150156400999992000010409004+42670+026320FM-12+025799999V0209999C000012200019N0200001N1+00011-00501102391ADDAY101031AY201031GF103991031001999999051001MD1310101+9999MW1021REMSYN076AAXX  04091 15640 41998 30000 10001 21050 40239 53010 70200 83050 555 95000;
0180156400999992000010412004+42670+026320FM-12+025799999V0202701N003010360019N0200001N1+00231-00441102301ADDAA106000091AY111061AY211061GF106991021051012501051001MD1810071+9999MW1031REMSYN076AAXX  04121 15640 31698 62703 10023 21044 40230 58007 70311 82550 555 95000;EQDQ01  00002PRCP06
0150156400999992000010415004+42670+026320FM-12+025799999V0203201N003012200019N0200001N1+00061-00571102321ADDAY111031AY211031GF102991021051012501001001MD1410001+9999MW1011REMSYN076AAXX  04151 15640 41698 23203 10006 21057 40232 54000 70111 82500 555 95000;
0148156400999992000010416004+42670+026320FM-12+025799999V0203201N003012200019N0200001N1+00061-00571102942ADDAY111999AY211999GF102991021051012501001001MW1011REMSYN069AAXX  04161 15640 41698 23203 10006 21057 40294 70111 82500 555 9000;EQDQ01+102943APOSLP
0213156400999992000010418004+42670+026320FM-12+025799999V0203601N003012200019N0200001N1+00101-00671102351ADDAA106000091AY111061AY211061GA1001+999999999GF100991001001999999001001KA1120M+00421MD1310031+9999MW1011REMSYN080AAXX  04181 15640 31998 03603 10010 21067 40235 53003 70111 333 10042 555 95000;EQDQ01  00002PRCP06
0150156400999992000010421004+42670+026320FM-12+025799999V0203601N003012200019N0200001N1-00041-00601102421ADDAY101031AY201031GA1001+999999999GF100991001001999999001001MD1210051+9999MW1021REMSYN060AAXX  04211 15640 41998 03603 11004 21060 40242 52005 70200;
0180156400999992000010500004+42670+026320FM-12+025799999V0202701N003012200019N0200001N1-00241-00711102391ADDAA106000091AY101061AY201061GA1001+999999999GF100991001001999999001001MD1810051+9999MW1021REMSYN060AAXX  05001 15640 31998 02703 11024 21071 40239 58005 70200;EQDQ01  00002PRCP06
0179156400999992000010503004+42670+026320FM-12+025799999V0209999C000012200019N0200001N1-00351-00741102321ADDAY101031AY201031GA1001+999999999GF100991001001999999001001KA1999M+00101MD1710081+9999MW1021REMSYN076AAXX  05031 15640 41998 00000 11035 21074 40232 57008 70200 555 10010 29061;
0227156400999992000010506004+42670+026320FM-12+025799999V0209999C000012200019N0200001N1-00381-00781102331ADDAA106000091AY101061AY201061GA1001+999999999GF100991001001999999001001GJ102349KA1120N-00401MD1410001+9999MW1021REMSYN086AAXX  05061 15640 31998 00000 11038 21078 40233 54000 70200 333 21040 55039 555 34108;EQDQ01  00002PRCP06
0150156400999992000010509004+42670+026320FM-12+025799999V0209999C000012200019N0200001N1+00181-00381102291ADDAY101031AY201031GF102991001001999999001011MD1310031+9999MW1031REMSYN076AAXX  05091 15640 41998 20000 10018 21038 40229 53003 70300 80001 555 95000;
0180156400999992000010512004+42670+026320FM-12+025799999V0209999C000012200019N0100001N1+00441-00541102131ADDAA106000091AY101061AY201061GF101991011001999999031001MD1810121+9999MW1031REMSYN076AAXX  05121 15640 31997 10000 10044 21054 40213 58012 70300 81030 555 95000;EQDQ01  00002PRCP06
0150156400999992000010515004+42670+026320FM-12+025799999V0209999C000019999999N0100001N1+00151-00441102131ADDAY111031AY211031GF108991081001999999021999MD1610031+9999MW1031REMSYN076AAXX  05151 15640 41997 80000 10015 21044 40213 56003 70311 8802/ 555 95000;
0150156400999992000010521004+42670+026320FM-12+025799999V0209999C000010075019N0100001N1-00031-00331102231ADDAY121031AY221031GF108991081051008001999999MD1110021+9999MW1021REMSYN076AAXX  05211 15640 41597 80000 11003 21033 40223 51002 70222 885// 555 95050;
0162156400999992000010603004+42670+026320FM-12+025799999V0209999C000010075019N0040001N1-00111-00271102161ADDAY121031AY221031GF108991081051008001999999MD1710041+9999MW1101REMSYN088AAXX  06031 15640 41596 80000 11011 21027 40216 57004 71022 885// 555 10000 29064 95050;
0228156400999992000010606004+42670+026320FM-12+025799999V0209999C000010120019N0020001N1-00161-00221102161ADDAA112000791AY121061AY221061GF108991081001012501021999GJ104689IA1149IA2999-00309KA1120N-00211MD1410001+9999MW1711REMSYN104AAXX  06061 15640 11695 80000 11016 21022 40216 54000 69902 77122 8802/ 333 21021 55078 555 34103 95090;
0150156400999992000010609004+42670+026320FM-12+025799999V0201601N004010075019N0020001N1+00041-00171102171ADDAY171031AY221031GF106991051051008001021001MD1310031+9999MW1701REMSYN076AAXX  06091 15640 41595 61604 10004 21017 40217 53003 77072 85520 555 95050;
0150156400999992000010612004+42670+026320FM-12+025799999V0203201N003010075019N0100001N1+00311-00191102111ADDAY171061AY221061GF107991061051008001001011MD1610021+9999MW1031REMSYN076AAXX  06121 15640 11597 73203 10031 21019 40211 56002 70372 86501 555 95050;
0150156400999992000010615004+42670+026320FM-12+025799999V0203201N009010120019N0100001N1+00191-00241102201ADDAY121031AY221031GF107991061051012501051001MD1310061+9999MW1031REMSYN076AAXX  06151 15640 41697 73209 10019 21024 40220 53006 70322 86550 555 95000;
0150156400999992000010621004+42670+026320FM-12+025799999V0203201N005010075019N0100001N1+00131-00191102331ADDAY121031AY221031GF108991081051008001999999MD1210051+9999MW1021REMSYN076AAXX  06211 15640 41597 83205 10013 21019 40233 52005 70222 885// 555 95060;
0180156400999992000010700004+42670+026320FM-12+025799999V0209999C000010120019N0100001N1+00181-00301102331ADDAA106000091AY121061AY221061GF106991061051012501001001MD1410001+9999MW1011REMSYN076AAXX  07001 15640 31697 60000 10018 21030 40233 54000 70122 86500 555 95000;EQDQ01  00002PRCP06
0168156400999992000010703004+42670+026320FM-12+025799999V0203201N009010120019N0040001N1+00171-00271102331ADDAY171031AY221031GF108991081001012501021999MD1410001+9999MW1711REMSYN094AAXX  07031 15640 41696 83209 10017 21027 40233 54000 77172 8802/ 555 10010 29079 69934 95000;
0228156400999992000010706004+42670+026320FM-12+025799999V0203201N005010075019N0100001N1+00141-00241102511ADDAA112000191AY171061AY221061GF107991071051008001001001GJ100369IA1099IA2999-00109KA1120N+00131MD1310171+9999MW1011REMSYN104AAXX  07061 15640 11597 73205 10014 21024 40251 53017 69912 70172 87500 333 20013 55006 555 31101 95050;
0150156400999992000010709004+42670+026320FM-12+025799999V0203201N003010120019N0200001N1+00271-00221102611ADDAY121031AY221031GF106991061051012501001001MD1210111+9999MW1011REMSYN076AAXX  07091 15640 41698 63203 10027 21022 40261 52011 70122 86500 555 95000;
0180156400999992000010712004+42670+026320FM-12+025799999V0203201N009010120019N0200001N1+00301-00221102581ADDAA106000091AY121061AY221061GF106991051051012501001011MD1810021+9999MW1021REMSYN076AAXX  07121 15640 31698 63209 10030 21022 40258 58002 70222 85501 555 95000;EQDQ01  00002PRCP06
0150156400999992000010715004+42670+026320FM-12+025799999V0203201N005010120019N0200001N1+00181-00271102701ADDAY121031AY221031GF106991061051012501001001MD1310101+9999MW1021REMSYN076AAXX  07151 15640 41698 63205 10018 21027 40270 53010 70222 86500 555 95000;
0203156400999992000010718004+42670+026320FM-12+025799999V0203201N003010120019N0200001N1+00161-00271102821ADDAA106000091AY121061AY221061GF108991081051012501999999KA1120M+00341MD1210111+9999MW1031REMSYN086AAXX  07181 15640 31698 83203 10016 21027 40282 52011 70322 885// 333 10034 555 95000;EQDQ01  00002PRCP06
0150156400999992000010721004+42670+026320FM-12+025799999V0203201N002010120019N0100001N1+00121-00331102801ADDAY121031AY221031GF105991051051012501001001MD1810021+9999MW1011REMSYN076AAXX  07211 15640 41697 53202 10012 21033 40280 58002 70122 85500 555 95000;
0180156400999992000010800004+42670+026320FM-12+025799999V0209999C000010120019N0100001N1+00061-00331102811ADDAA106000091AY121061AY221061GF106991061051012501001001MD1410001+9999MW1031REMSYN076AAXX  08001 15640 31697 60000 10006 21033 40281 54000 70322 86500 555 95000;EQDQ01  00002PRCP06
0162156400999992000010803004+42670+026320FM-12+025799999V0209999C000012200019N0100001N1-00081-00381102801ADDAY121031AY221031GF104991041051012501001001MD1810021+9999MW1011REMSYN088AAXX  08031 15640 41697 40000 11008 21038 40280 58002 70122 84500 555 10016 29075 95000;
0241156400999992000010806004+42670+026320FM-12+025799999V0209999C000012200019N0100001N1-00071-00381102801ADDAA106000091AY111061AY211061GF103991031051012501001001GJ102589IA1149IA2999-00809KA1120N-00091MD1410001+9999MW1011REMSYN098AAXX  08061 15640 31697 30000 11007 21038 40280 54000 70111 83500 333 21009 55043 555 34108 95000;EQDQ01  00002PRCP06
0150156400999992000010809004+42670+026320FM-12+025799999V0209999C000010120019N0100001N1+00141-00271102871ADDAY111031AY211031GF108991081051012501999999MD1310091+9999MW1031REMSYN076AAXX  08091 15640 41697 80000 10014 21027 40287 53009 70311 885// 555 95000;
0150156400999992000010812004+42670+026320FM-12+025799999V0209999C000010120019N0100001N1+00261-00331102781ADDAY121061AY221061GF106991061051012501001001MD1810071+9999MW1011REMSYN076AAXX  08121 15640 41697 60000 10026 21033 40278 58007 70122 86500 555 95000;
0150156400999992000010815004+42670+026320FM-12+025799999V0209999C000012200019N0100001N1+00161-00361102801ADDAY111031AY211031GF102991021051012501001001MD1410001+9999MW1011REMSYN076AAXX  08151 15640 41697 20000 10016 21036 40280 54000 70111 82500 555 95000;
0203156400999992000010818004+42670+026320FM-12+025799999V0203201N003012200019N0100001N1+00021-00411102841ADDAA106000091AY111061AY211061GA1001+999999999GF100991001001999999001001KA1999M+00301MD1310031+9999MW1011REMSYN070AAXX  08181 15640 31997 03203 10002 21041 40284 53003 70111 333 10030;EQDQ01  00002PRCP06
0150156400999992000010821004+42670+026320FM-12+025799999V0203201N003012200019N0100001N1+00001-00501102851ADDAY101031AY201031GA1001+999999999GF100991001001999999001001MD1410001+9999MW1021REMSYN060AAXX  08211 15640 41997 03203 10000 21050 40285 54000 70200;
0180156400999992000010900004+42670+026320FM-12+025799999V0209999C000012200019N0100001N1-00061-00501102801ADDAA106000091AY101061AY201061GA1001+999999999GF100991001001999999001001MD1810051+9999MW1021REMSYN060AAXX  09001 15640 31997 00000 11006 21050 40280 58005 70200;EQDQ01  00002PRCP06
0179156400999992000010903004+42670+026320FM-12+025799999V0209999C000012200019N0100001N1-00191-00601102831ADDAY101031AY201031GA1001+999999999GF100991001001999999001001KA1999M+00051MD1410001+9999MW1021REMSYN076AAXX  09031 15640 41997 00000 11019 21060 40283 54000 70200 555 10005 29071;
0150156400999992000010909004+42670+026320FM-12+025799999V0209999C000012200019N0200001N1+00291-00381102801ADDAY101031AY201031GA1001+999999999GF100991001001999999001001MD1310041+9999MW1021REMSYN060AAXX  09091 15640 41998 00000 10029 21038 40280 53004 70200;
0180156400999992000010912004+42670+026320FM-12+025799999V0209999C000012200019N0200001N1+00441-00331102721ADDAA106000091AY101061AY201061GF102991021001999999031001MD1810061+9999MW1031REMSYN076AAXX  09121 15640 31998 20000 10044 21033 40272 58006 70300 82030 555 95000;EQDQ01  00002PRCP06
0150156400999992000010915004+42670+026320FM-12+025799999V0209999C000012200019N0200001N1+00231-00411102721ADDAY101031AY201031GF102991011001999999031011MD1410001+9999MW1031REMSYN076AAXX  09151 15640 41998 20000 10023 21041 40272 54000 70300 81031 555 95000;
0203156400999992000010918004+42670+026320FM-12+025799999V0209999C000012200019N0200001N1-00051-00441102981ADDAA106000091AY101061AY201061GA1001+999999999GF100991001001999999001001KA1999M+00521MD1310201+9999MW1011REMSYN070AAXX  09181 15640 31998 00000 11005 21044 40298 53020 70100 333 10052;EQDQ01  00002PRCP06
0150156400999992000010921004+42670+026320FM-12+025799999V0209999C000012200019N0200001N1-00201-00541102931ADDAY101031AY201031GA1001+999999999GF100991001001999999001001MD1210051+9999MW1021REMSYN060AAXX  09211 15640 41998 00000 11020 21054 40293 52005 70200;
0180156400999992000011000004+42670+026320FM-12+025799999V0209999C000012200019N0200001N1-00291-00501102941ADDAA106000091AY101061AY201061GA1001+999999999GF100991001001999999001001MD1410001+9999MW1021REMSYN060AAXX  10001 15640 31998 00000 11029 21050 40294 54000 70200;EQDQ01  00002PRCP06
0179156400999992000011003004+42670+026320FM-12+025799999V0209999C000012200019N0200001N1-00371-00571102941ADDAY101031AY201031GA1001+999999999GF100991001001999999001001KA1999M-00061MD1410001+9999MW1021REMSYN076AAXX  10031 15640 41998 00000 11037 21057 40294 54000 70200 555 11006 29070;
0241156400999992000011006004+42670+026320FM-12+025799999V0209999C000012200019N0200001N1-00421-00571103031ADDAA106000091AY101061AY201061GF102991001001999999001011GJ104989IA1149IA2999-01009KA1120N-00431MD1310081+9999MW1031REMSYN098AAXX  10061 15640 31998 20000 11042 21057 40303 53008 70300 80001 333 21043 55083 555 34110 95000;EQDQ01  00002PRCP06
0150156400999992000011009004+42670+026320FM-12+025799999V0209999C000019999999N0200001N1+00101-00271103091ADDAY111031AY211031GF105991001001999999001011MD1210101+9999MW1031REMSYN076AAXX  10091 15640 41998 50000 10010 21027 40309 52010 70311 80001 555 95000;
0180156400999992000011012004+42670+026320FM-12+025799999V0202301N002012200019N0200001N1+00381-00251102941ADDAA106000091AY111061AY211061GF101991001001999999001011MD1810101+9999MW1011REMSYN076AAXX  10121 15640 31998 12302 10038 21025 40294 58010 70111 80001 555 95000;EQDQ01  00002PRCP06
0150156400999992000011015004+42670+026320FM-12+025799999V0209999C000012200019N0200001N1+00161-00361103001ADDAY101031AY201031GF103991001001999999001011MD1310031+9999MW1031REMSYN076AAXX  10151 15640 41998 30000 10016 21036 40300 53003 70300 80001 555 95000;
0203156400999992000011018004+42670+026320FM-12+025799999V0209999C000012200019N0200001N1-00091-00301103101ADDAA106000091AY101061AY201061GA1001+999999999GF100991001001999999001001KA1999M+00441MD1210081+9999MW1011REMSYN070AAXX  10181 15640 31998 00000 11009 21030 40310 52008 70100 333 10044;EQDQ01  00002PRCP06
0150156400999992000011021004+42670+026320FM-12+025799999V0209999C000012200019N0200001N1-00211-00641103211ADDAY101031AY201031GA1001+999999999GF100991001001999999001001MD1210091+9999MW1021REMSYN060AAXX  10211 15640 41998 00000 11021 21064 40321 52009 70200;
0180156400999992000011100004+42670+026320FM-12+025799999V0209999C000012200019N0200001N1-00281-00711103261ADDAA106000091AY101061AY201061GA1001+999999999GF100991001001999999001001MD1210041+9999MW1021REMSYN060AAXX  11001 15640 31998 00000 11028 21071 40326 52004 70200;EQDQ01  00002PRCP06
0179156400999992000011103004+42670+026320FM-12+025799999V0209999C000012200019N0200001N1-00301-00711103331ADDAY101031AY201031GA1001+999999999GF100991001001999999001001KA1999M-00081MD1210051+9999MW1021REMSYN076AAXX  11031 15640 41998 00000 11030 21071 40333 52005 70200 555 11008 29078;
0241156400999992000011106004+42670+026320FM-12+025799999V0209999C000012200019N0200001N1-00341-00671103471ADDAA106000091AY101061AY201061GF101991011051012501001001GJ104509IA1149IA2999-01109KA1120N-00351MD1210141+9999MW1031REMSYN098AAXX  11061 15640 31698 10000 11034 21067 40347 52014 70300 81500 333 21035 55075 555 34111 95000;EQDQ01  00002PRCP06
0150156400999992000011109004+42670+026320FM-12+025799999V0209999C000012200019N0200001N1+00031-00501103501ADDAY101031AY201031GF102991021021012501001001MD1210081+9999MW1031REMSYN076AAXX  11091 15640 41698 20000 10003 21050 40350 52008 70300 82200 555 95000;
0180156400999992000011112004+42670+026320FM-12+025799999V0203601N007012200019N0200001N1+00121-00471103471ADDAA106000091AY101061AY201061GF103991021021012501001011MD1810021+9999MW1031REMSYN076AAXX  11121 15640 31698 33607 10012 21047 40347 58002 70300 82201 555 95000;EQDQ01  00002PRCP06
0150156400999992000011115004+42670+026320FM-12+025799999V0203601N005010900019N0200001N1+00001-00501103511ADDAY111031AY211031GF105991021021012501041011MD1310021+9999MW1031REMSYN076AAXX  11151 15640 41698 53605 10000 21050 40351 53002 70311 82241 555 95000;
0203156400999992000011118004+42670+026320FM-12+025799999V0209999C000012200019N0200001N1-00031-00471103601ADDAA106000091AY111061AY211061GA1001+999999999GF100991001001999999001001KA1999M+00331MD1210091+9999MW1011REMSYN070AAXX  11181 15640 31998 00000 11003 21047 40360 52009 70111 333 10033;EQDQ01  00002PRCP06
0150156400999992000011121004+42670+026320FM-12+025799999V0209999C000010120019N0200001N1-00041-00441103651ADDAY111031AY211031GF105991051051012501001001MD1210061+9999MW1031REMSYN076AAXX  11211 15640 41698 50000 11004 21044 40365 52006 70311 85500 555 95000;
0180156400999992000011200004+42670+026320FM-12+025799999V0209999C000010120019N0200001N1-00091-00441103671ADDAA106000091AY121061AY221061GF106991061051012501001001MD1410001+9999MW1031REMSYN076AAXX  12001 15640 31698 60000 11009 21044 40367 54000 70322 86500 555 95000;EQDQ01  00002PRCP06
0162156400999992000011203004+42670+026320FM-12+025799999V0209999C000010120019N0200001N1-00061-00441103671ADDAY121031AY221031GF108991081051012501999999MD1410001+9999MW1031REMSYN088AAXX  12031 15640 41698 80000 11006 21044 40367 54000 70322 885// 555 11010 29072 95000;
0241156400999992000011206004+42670+026320FM-12+025799999V0209999C000010120019N0200001N1-00051-00471103671ADDAA106000091AY121061AY221061GF108991081051012501999999GJ104569IA1099IA2999-00309KA1120N-00131MD1410001+9999MW1021REMSYN098AAXX  12061 15640 31698 80000 11005 21047 40367 54000 70222 885// 333 21013 55076 555 31103 95000;EQDQ01  00002PRCP06
0150156400999992000011209004+42670+026320FM-12+025799999V0209999C000010120019N0200001N1+00171-00331103651ADDAY121031AY221031GF107991071051012501001001MD1310041+9999MW1011REMSYN076AAXX  12091 15640 41698 70000 10017 21033 40365 53004 70122 87500 555 95000;
0180156400999992000011212004+42670+026320FM-12+025799999V0209999C000010360019N0200001N1+00481-00381103571ADDAA106000091AY121061AY221061GF105991011021012501031001MD1810081+9999MW1011REMSYN076AAXX  12121 15640 31698 50000 10048 21038 40357 58008 70122 81230 555 95000;EQDQ01  00002PRCP06
0150156400999992000011215004+42670+026320FM-12+025799999V0209999C000012200019N0200001N1+00111-00601103601ADDAY111031AY211031GA1001+999999999GF100991001001999999001001MD1410001+9999MW1011REMSYN060AAXX  12151 15640 41998 00000 10011 21060 40360 54000 70111;
0203156400999992000011218004+42670+026320FM-12+025799999V0209999C000012200019N0200001N1-00021-00671103671ADDAA106000091AY111061AY211061GA1001+999999999GF100991001001999999001001KA1999M+00561MD1310041+9999MW1011REMSYN070AAXX  12181 15640 31998 00000 11002 21067 40367 53004 70111 333 10056;EQDQ01  00002PRCP06
0150156400999992000011221004+42670+026320FM-12+025799999V0209999C000012200019N0200001N1-00171-00711103681ADDAY101031AY201031GA1001+999999999GF100991001001999999001001MD1410001+9999MW1021REMSYN060AAXX  12211 15640 41998 00000 11017 21071 40368 54000 70200;
0180156400999992000011300004+42670+026320FM-12+025799999V0209999C000012200019N0200001N1-00351-00781103661ADDAA106000091AY101061AY201061GA1001+999999999GF100991001001999999001001MD1810041+9999MW1021REMSYN060AAXX  13001 15640 31998 00000 11035 21078 40366 58004 70200;EQDQ01  00002PRCP06
0179156400999992000011303004+42670+026320FM-12+025799999V0209999C000012200019N0200001N1-00421-00781103631ADDAY101031AY201031GA1001+999999999GF100991001001999999001001KA1999M+00031MD1710041+9999MW1021REMSYN076AAXX  13031 15640 41998 00000 11042 21078 40363 57004 70200 555 10003 29064;
0227156400999992000011306004+42670+026320FM-12+025799999V0209999C000012200019N0200001N1-00491-00861103691ADDAA106000091AY101061AY201061GA1001+999999999GF100991001001999999001001GJ103129KA1120N-00551MD1310041+9999MW1021REMSYN086AAXX  13061 15640 31998 00000 11049 21086 40369 53004 70200 333 21055 55052 555 34112;EQDQ01  00002PRCP06
0150156400999992000011309004+42670+026320FM-12+025799999V0209999C000012200019N0200001N1+00021-00601103691ADDAY101031AY201031GA1001+999999999GF100991001001999999001001MD1210081+9999MW1021REMSYN060AAXX  13091 15640 41998 00000 10002 21060 40369 52008 70200;
0180156400999992000011312004+42670+026320FM-12+025799999V0209999C000012200019N0200001N1+00281-00411103441ADDAA106000091AY101061AY201061GA1001+999999999GF100991001001999999001001MD1810221+9999MW1021REMSYN060AAXX  13121 15640 31998 00000 10028 21041 40344 58022 70200;EQDQ01  00002PRCP06
0150156400999992000011315004+42670+026320FM-12+025799999V0203201N002019999999N0200001N1+00021-00441103431ADDAY111031AY211031GF105991051001999999051001MD1710041+9999MW1031REMSYN076AAXX  13151 15640 41998 53202 10002 21044 40343 57004 70311 85050 555 95000;
0203156400999992000011318004+42670+026320FM-12+025799999V0209999C000012200019N0100001N1-00181-00381103481ADDAA106000091AY111061AY211061GF103991031001999999031001KA1120M+00301MD1310031+9999MW1011REMSYN086AAXX  13181 15640 31997 30000 11018 21038 40348 53003 70111 83030 333 10030 555 95000;EQDQ01  00002PRCP06
0154156400999992000011321004+42670+026320FM-12+025799999V0209999C000012200019N0100001N1-00261-00441103491ADDAY101031AY201031GA1001+999999999GF100991001001999999001001MD1410001+9999MW1011REMSYN064    AAXX  13211 15640 41997 00000 11026 21044 40349 54000 70100;
0184156400999992000011400004+42670+026320FM-12+025799999V0209999C000012200019N0100001N1-00321-00541103481ADDAA199000091AY101061AY201061GA1001+999999999GF100991001001999999001001MD1810031+9999MW1021REMSYN064    AAXX  14001 15640 31997 00000 11032 21054 40348 58003 70200;EQDQ01  00002PRCP99
0183156400999992000011403004+42670+026320FM-12+025799999V0209999C000012200019N0100001N1-00501-00711103501ADDAY101031AY201031GA1001+999999999GF100991001001999999001001KA1999M-00181MD1410001+9999MW1021REMSYN080    AAXX  14031 15640 41997 00000 11050 21071 40350 54000 70200 555 11018 29075;
0231156400999992000011406004+42670+026320FM-12+025799999V0209999C000012200019N0100001N1-00481-00711103411ADDAA199000091AY101061AY201061GA1001+999999999GF100991001001999999001001GJ104809KA1120N-00641MD1710071+9999MW1021REMSYN090    AAXX  14061 15640 31997 00000 11048 21071 40341 57007 70200 333 21064 55080 555 34112;EQDQ01  00002PRCP99
0154156400999992000011409004+42670+026320FM-12+025799999V0209999C000012200019N0200001N1+00001-00411103371ADDAY101031AY201031GA1001+999999999GF100991001001999999001001MD1410001+9999MW1021REMSYN064    AAXX  14091 15640 41998 00000 10000 21041 40337 54000 70200;
0184156400999992000011412004+42670+026320FM-12+025799999V0209999C000012200019N0200001N1+00321-00361103231ADDAA199000091AY101061AY201061GF102991001001999999001011MD1810091+9999MW1031REMSYN080    AAXX  14121 15640 31998 20000 10032 21036 40323 58009 70300 80001 555 95000;EQDQ01  00002PRCP99
0154156400999992000011415004+42670+026320FM-12+025799999V0209999C000010120019N0100001N1+00201-00271103241ADDAY111031AY211031GF108991081051012501999999MD1710011+9999MW1031REMSYN080    AAXX  14151 15640 41697 80000 10020 21027 40324 57001 70311 885// 555 95000;
0207156400999992000011418004+42670+026320FM-12+025799999V0209999C000019999999N0100001N1-00081-00221103261ADDAA199000091AY111061AY211061GF105991001001999999001011KA1120M+00381MD1410001+9999MW1011REMSYN090    AAXX  14181 15640 31997 50000 11008 21022 40326 54000 70111 80001 333 10038 555 95000;EQDQ01  00002PRCP99
0154156400999992000011421004+42670+026320FM-12+025799999V0209999C000019999999N0100001N1-00021-00141103261ADDAY121031AY221031GF106991061001999999021001MD1410001+9999MW1031REMSYN080    AAXX  14211 15640 41997 60000 11002 21014 40326 54000 70322 86020 555 95000;
0184156400999992000011500004+42670+026320FM-12+025799999V0209999C000010120019N0100001N1+00001-00121103221ADDAA199000091AY121061AY221061GF108991081051012501999999MD1810031+9999MW1031REMSYN080    AAXX  15001 15640 31697 80000 10000 21012 40322 58003 70322 885// 555 95000;EQDQ01  00002PRCP99
0166156400999992000011503004+42670+026320FM-12+025799999V0209999C000010120019N0100001N1+00051-00071103221ADDAY121031AY221031GF108991081051012501999999MD1410001+9999MW1021REMSYN092    AAXX  15031 15640 41697 80000 10005 21007 40322 54000 70222 885// 555 11014 29081 95000;
0245156400999992000011506004+42670+026320FM-12+025799999V0209999C000010075019N0100001N1+00051-00071103101ADDAA199000091AY121061AY221061GF108991081051008001999999GJ104149IA1149IA2999-00609KA1120N-00141MD1810121+9999MW1021REMSYN102    AAXX  15061 15640 31597 80000 10005 21007 40310 58012 70222 885// 333 21014 55069 555 34106 95060;EQDQ01  00002PRCP99
0154156400999992000011509004+42670+026320FM-12+025799999V0209999C000010075019N0100001N1+00231-00071103051ADDAY121031AY221031GF108991081051008001999999MD1610021+9999MW1021REMSYN080    AAXX  15091 15640 41597 80000 10023 21007 40305 56002 70222 885// 555 95060;
0153156400999992000011510004+42670+026320FM-12+025799999V0209999C000010075019N0100001N1+00231-00071103051ADDAY121999AY221999GF108991081051008001999999MD1610021+9999MW1021REMSYN079    AAXX  15101 15640 41597 80000 10023 21007 40305 56002 70222 885// 555 OM/0;
0184156400999992000011512004+42670+026320FM-12+025799999V0209999C000012200019N0200001N1+00471-00171102801ADDAA199000091AY111061AY211061GF102991021051008001001001MD1810221+9999MW1011REMSYN080    AAXX  15121 15640 31598 20000 10047 21017 40280 58022 70111 82500 555 95050;EQDQ01  00002PRCP99
0154156400999992000011515004+42670+026320FM-12+025799999V0209999C000019999999N0200001N1+00311-00221102731ADDAY111031AY211031GF105991001001999999001041MD1610081+9999MW1031REMSYN080    AAXX  15151 15640 41998 50000 10031 21022 40273 56008 70311 80004 555 95000;
0207156400999992000011518004+42670+026320FM-12+025799999V0209999C000012200019N0100001N1-00091-00221102751ADDAA199000091AY111061AY211061GA1001+999999999GF100991001001999999001001KA1999M+00601MD1610031+9999MW1021REMSYN074    AAXX  15181 15640 31997 00000 11009 21022 40275 56003 70211 333 10060;EQDQ01  00002PRCP99
0154156400999992000011521004+42670+026320FM-12+025799999V0209999C000012200019N0100001N1-00211-00381102771ADDAY101031AY201031GA1001+999999999GF100991001001999999001001MD1410001+9999MW1021REMSYN064    AAXX  15211 15640 41997 00000 11021 21038 40277 54000 70200;
0184156400999992000011600004+42670+026320FM-12+025799999V0202701N002012200019N0100001N1-00261-00361102661ADDAA199000091AY101061AY201061GA1001+999999999GF100991001001999999001001MD1810111+9999MW1021REMSYN064    AAXX  16001 15640 31997 02702 11026 21036 40266 58011 70200;EQDQ01  00002PRCP99
0183156400999992000011603004+42670+026320FM-12+025799999V0209999C000012200019N0100001N1-00341-00471102611ADDAY101031AY201031GA1001+999999999GF100991001001999999001001KA1999M+00071MD1710061+9999MW1021REMSYN080    AAXX  16031 15640 41997 00000 11034 21047 40261 57006 70200 555 10007 29080;
0245156400999992000011606004+42670+026320FM-12+025799999V0209999C000012200019N0100001N1-00441-00541102621ADDAA199000091AY101061AY201061GF102991001001999999001011GJ102529IA1149IA2999-00909KA1120N-00441MD1410001+9999MW1031REMSYN102    AAXX  16061 15640 31997 20000 11044 21054 40262 54000 70300 80001 333 21044 55042 555 34109 95000;EQDQ01  00002PRCP99
0154156400999992000011609004+42670+026320FM-12+025799999V0209999C000012200019N0100001N1+00041-00671102861ADDAY101031AY201031GF101991001001999999001011MD1310291+9999MW1011REMSYN080    AAXX  16091 15640 41997 10000 10004 21067 40286 53029 70100 80001 555 95000;
0184156400999992000011612004+42670+026320FM-12+025799999V0209999C000019999999N0200001N1+00381-00221102601ADDAA199000091AY111061AY211061GF105991001001999999001061MD1810231+9999MW1031REMSYN080    AAXX  16121 15640 31998 50000 10038 21022 40260 58023 70311 80006 555 95000;EQDQ01  00002PRCP99
0154156400999992000011615004+42670+026320FM-12+025799999V0209999C000010120019N0100001N1+00041-00361102591ADDAY121031AY221031GF108991081051012501999999MD1710031+9999MW1031REMSYN080    AAXX  16151 15640 41697 80000 10004 21036 40259 57003 70322 885// 555 95000;
0207156400999992000011618004+42670+026320FM-12+025799999V0203201N005010120019N0100001N1-00061-00641102601ADDAA199000091AY121061AY221061GF108991081051012501999999KA1120M+00521MD1410001+9999MW1021REMSYN090    AAXX  16181 15640 31697 83205 11006 21064 40260 54000 70222 885// 333 10052 555 95000;EQDQ01  00002PRCP99
0154156400999992000011621004+42670+026320FM-12+025799999V0209999C000010120019N0100001N1-00051-00641102601ADDAY121031AY221031GF108991081051012501999999MD1410001+9999MW1021REMSYN080    AAXX  16211 15640 41697 80000 11005 21064 40260 54000 70222 885// 555 95000;
0184156400999992000011700004+42670+026320FM-12+025799999V0209999C000010120019N0100001N1-00021-00671102441ADDAA199000091AY121061AY221061GF108991081051012501999999MD1810161+9999MW1021REMSYN080    AAXX  17001 15640 31697 80000 11002 21067 40244 58016 70222 885// 555 95000;EQDQ01  00002PRCP99
0166156400999992000011703004+42670+026320FM-12+025799999V0203201N005010120019N0100001N1-00081-00741102271ADDAY121031AY221031GF108991081051012501999999MD1710171+9999MW1021REMSYN092    AAXX  17031 15640 41697 83205 11008 21074 40227 57017 70222 885// 555 11003 29075 95000;
0245156400999992000011706004+42670+026320FM-12+025799999V0203201N002010120019N0100001N1-00101-00821102071ADDAA199000091AY121061AY221061GF108991081051012501999999GJ103249IA1149IA2999-00509KA1120N-00141MD1710201+9999MW1021REMSYN102    AAXX  17061 15640 31697 83202 11010 21082 40207 57020 70222 885// 333 21014 55054 555 34105 95000;EQDQ01  00002PRCP99
0184156400999992000011712004+42670+026320FM-12+025799999V0203201N005012200019N0200001N1+00081-00741101291ADDAA199000091AY111061AY211061GF103991021051012501031001MD1710471+9999MW1011REMSYN080    AAXX  17121 15640 31698 33205 10008 21074 40129 57047 70111 82530 555 95000;EQDQ01  00002PRCP99
0154156400999992000011715004+42670+026320FM-12+025799999V0202901N005012200019N0200001N1-00081-00821100911ADDAY101031AY201031GF102991011051012501041001MD1710381+9999MW1011REMSYN080    AAXX  17151 15640 41698 22905 11008 21082 40091 57038 70100 81540 555 95000;
0154156400999992000011721004+42670+026320FM-12+025799999V0209999C000010120019N0100001N1-00281-00671100161ADDAY121031AY221031GF108991081051012501999999MD1710351+9999MW1021REMSYN080    AAXX  17211 15640 41697 80000 11028 21067 40016 57035 70222 885// 555 95000;
0171156400999992000011800004+42670+026320FM-12+025799999V0209999C000010075019N0020001N1-00381-00501099851ADDAA106000191AY171061AY221061GF108991081001008001021999MD1710311+9999MW1711REMSYN086    AAXX  18001 15640 11595 80000 11038 21050 49985 57031 69921 77172 8802/ 555 95067;
0172156400999992000011803004+42670+026320FM-12+025799999V0209999C000010075019N0020001N1-00341-00441099391ADDAY171031AY221031GF108991081001008001021999MD1710441+9999MW1711REMSYN098    AAXX  18031 15640 41595 80000 11034 21044 49939 57044 77172 8802/ 555 11014 29063 69934 95060;
0249156400999992000011806004+42670+026320FM-12+025799999V0209999C000010120019N0100001N1-00191-00241099141ADDAA112000391AJ100019199999999AY171061AY221061GF108991081051012501999999GJ101749IA2999-00609KA1120N-00411MD1710231+9999MW1011REMSYN114    AAXX  18061 15640 11697 80000 11019 21024 49914 57023 69932 70172 885// 333 21041 47001 55029 555 3/106 95000;
0154156400999992000011809004+42670+026320FM-12+025799999V0202701N002010120019N0100001N1+00081-00071099301ADDAY171031AY221031GF108991081001012501021999MD1310181+9999MW1711REMSYN080    AAXX  18091 15640 41697 82702 10008 21007 49930 53018 77172 8802/ 555 95000;
0171156400999992000011812004+42670+026320FM-12+025799999V0202701N002010120019N0100001N1+00181-00221099421ADDAA106000191AY171061AY221061GF107991071051012501001001MD1210131+9999MW1221REMSYN086    AAXX  18121 15640 11697 72702 10018 21022 49942 52013 69921 72272 87500 555 95000;
0154156400999992000011815004+42670+026320FM-12+025799999V0202701N002010120019N0200001N1+00261-00571099481ADDAY121031AY221031GF106991061051012501001001MD1210071+9999MW1011REMSYN080    AAXX  18151 15640 41698 62702 10026 21057 49948 52007 70122 86500 555 95000;
0194156400999992000011818004+42670+026320FM-12+025799999V0209999C000010120019N0200001N1+00101-00571099741ADDAA112000191AY121061AY221061GF106991061051012501001001KA1120M+00341MD1210231+9999MW1011REMSYN096    AAXX  18181 15640 11698 60000 10010 21057 49974 52023 69922 70122 86500 333 10034 555 95000;
0194156400999992000011819004+42670+026320FM-12+025799999V0209999C000010120019N0200001N1+00101-00571099741ADDAA112000191AY121011AY221011GF106991061051012501001001KA1120M+00341MD1019999+9999MW1011REMSYN096    AAXX  18191 15640 11698 60000 10010 21057 49974 502// 69922 70122 86500 333 10034 555 95000;
0154156400999992000011821004+42670+026320FM-12+025799999V0209999C000019999999N0100001N1+00041-00501099741ADDAY121031AY221031GF108991081001999999021999MD1410001+9999MW1031REMSYN080    AAXX  18211 15640 41997 80000 10004 21050 49974 54000 70322 8802/ 555 95000;
0165156400999992000011900004+42670+026320FM-12+025799999V0209999C000019999999N0100001N1-00021-00381099931ADDAA199000021AY121061AY221061GF108991081001999999021999MD1310171+9999MW1021REMSYN080    AAXX  19001 15640 31997 80000 11002 21038 49993 53017 70222 8802/ 555 95000;
0178156400999992000011903004+42670+026320FM-12+025799999V0209999C000010075019N0100001N1-00101-00271100141ADDAY121031AY221031GF108991081001008001021999MD1210201+9999MW1711REMSYN104    AAXX  19031 15640 41597 80000 11010 21027 40014 52020 77122 8802/ 555 10003 29077 47001 60024 95060;
0154156400999992000011909004+42670+026320FM-12+025799999V0203201N007010120019N0200001N1+00121-00601100521ADDAY121031AY221031GF105991051051012501001001MD1210271+9999MW1011REMSYN080    AAXX  19091 15640 41698 53207 10012 21060 40052 52027 70122 85500 555 95000;
0215156400999992000011912004+42670+026320FM-12+025799999V0203201N016012200019N0200001N1+00261-00641100471ADDAA199000021AY111061AY211061GF101991011001999999041001MD1810041+9999MW1011OA149901801OA259901601REMSYN108    AAXX  19121 15640 31998 13216 10026 21064 40047 58004 70111 81040 333 91118 91532 91216 91532 555 95000;
0204156400999992000011915004+42670+026320FM-12+025799999V0203201N007012200019N0200001N1+00221-00601100651ADDAY101031AY201031GF103991021051012501031001MD1310171+9999MW1031OA149901801OA259901601REMSYN108    AAXX  19151 15640 41698 33207 10022 21060 40065 53017 70300 82530 333 91118 91532 91216 91532 555 95000;
0203156400999992000011918004+42670+026320FM-12+025799999V0203201N003010120019N0100001N1+00101-00641100951ADDAA199000091AY111061AY211061GF108991081051012501999999KA1120M+00381MD1210271+9999MW1031REMSYN086AAXX  19181 15640 31697 83203 10010 21064 40095 52027 70311 885// 333 10038 555 95000;EQDQ01  00002PRCP99
0150156400999992000011921004+42670+026320FM-12+025799999V0203201N005010075019N0100001N1-00101-00541101091ADDAY121031AY221031GF108991081001008001021999MD1210091+9999MW1711REMSYN076AAXX  19211 15640 41597 83205 11010 21054 40109 52009 77122 8802/ 555 95000;
0200156400999992000012000004+42670+026320FM-12+025799999V0209999C000019999999N0100001N1-00121-00601101111ADDAA106001091AJ100019199999999AY171061AY221061GF105991051001999999071001IA1239MD1210021+9999MW1011REMSYN092AAXX  20001 15640 11997 50000 11012 21060 40111 52002 60011 70172 85070 333 47001 555 95000;
0174156400999992000012003004+42670+026320FM-12+025799999V0203201N005019999999N0100001N1-00261-00861101251ADDAY121031AY221031GF108991081001999999021999MD1210131+9999MW1031REMSYN100AAXX  20031 15640 41997 83205 11026 21086 40125 52013 70322 8802/ 555 11005 29065 47001 60014 95000;
0245156400999992000012006004+42670+026320FM-12+025799999V0203201N002010360019N0100001N1-00381-00981101631ADDAA112001091AJ100019199999999AY171061AY221061GF108991021051012501071999GJ104029IA2999-00709KA1120N-00401MD1210341+9999MW1221REMSYN110AAXX  20061 15640 11697 83202 11038 21098 40163 52034 60012 72272 8257/ 333 21040 47001 55067 555 3/107 95000;
0150156400999992000012009004+42670+026320FM-12+025799999V0203201N006010360019N0100001N1-00301-00981101941ADDAY121031AY221031GF106991021051012501051001MD1210311+9999MW1031REMSYN076AAXX  20091 15640 41697 63206 11030 21098 40194 52031 70322 82550 555 95000;
0177156400999992000012012004+42670+026320FM-12+025799999V0203201N006012200019N0200001N1-00171-00861101951ADDAA199000021AY111061AY211061GF103991021051012501031001IA1259MD1210041+9999MW1011REMSYN086AAXX  20121 15640 31698 33206 11017 21086 40195 52004 70111 82530 333 41/// 555 95000;
0150156400999992000012015004+42670+026320FM-12+025799999V0203201N005012200019N0200001N1-00131-00901102071ADDAY101031AY201031GF102991021051012501001001MD1210111+9999MW1011REMSYN076AAXX  20151 15640 41698 23205 11013 21090 40207 52011 70100 82500 555 95000;
0184156400999992000012018004+42670+026320FM-12+025799999V0203201N004012200019N0200001N1-00191-00901102121ADDAA199000021AY101061AY201061GF102991021051012501001001KA1120M+00021MD1210041+9999MW1031REMSYN086AAXX  20181 15640 31698 23204 11019 21090 40212 52004 70300 82500 333 10002 555 95000;
0150156400999992000012021004+42670+026320FM-12+025799999V0202701N007012200019N0200001N1-00211-00861102071ADDAY101031AY201031GF102991021051012501001001MD1810051+9999MW1021REMSYN076AAXX  20211 15640 41698 22707 11021 21086 40207 58005 70200 82500 555 95000;
0180156400999992000012100004+42670+026320FM-12+025799999V0202701N002012200019N0200001N1-00301-01031101941ADDAA199000091AY101061AY201061GF102991021051012501001001MD1710141+9999MW1021REMSYN076AAXX  21001 15640 31698 22702 11030 21103 40194 57014 70200 82500 555 95000;EQDQ01  00002PRCP99
0241156400999992000012106004+42670+026320FM-12+025799999V0209999C000012200019N0200001N1-00701-00981101521ADDAA199000091AY111061AY211061GF102991011051017501031001GJ103909IA1149IA2999-01109KA1120N-00741MD1710201+9999MW1011REMSYN098AAXX  21061 15640 31798 20000 11070 21098 40152 57020 70111 81530 333 21074 55065 555 34111 95000;EQDQ01  00002PRCP99
0150156400999992000012109004+42670+026320FM-12+025799999V0202301N002019999999N0200001N1-00141-00821101271ADDAY111031AY211031GF106991031001999999031011MD1710171+9999MW1031REMSYN076AAXX  21091 15640 41998 62302 11014 21082 40127 57017 70311 83031 555 95000;
0180156400999992000012112004+42670+026320FM-12+025799999V0209999C000019999999N0200001N1-00041-00741100901ADDAA199000091AY111061AY211061GF108991081001999999021001MD1710351+9999MW1031REMSYN076AAXX  21121 15640 31998 80000 11004 21074 40090 57035 70311 88020 555 95000;EQDQ01  00002PRCP99
0150156400999992000012115004+42670+026320FM-12+025799999V0209999C000010150019N0200001N1-00031-00671100681ADDAY121031AY221031GF108991081051017501999999MD1710211+9999MW1021REMSYN076AAXX  21151 15640 41798 80000 11003 21067 40068 57021 70222 885// 555 95000;
0203156400999992000012118004+42670+026320FM-12+025799999V0209999C000010150019N0200001N1-00011-00601100471ADDAA199000091AY121061AY221061GF108991081051017501999999KA1120M+00181MD1710201+9999MW1021REMSYN086AAXX  21181 15640 31798 80000 11001 21060 40047 57020 70222 885// 333 10018 555 95000;EQDQ01  00002PRCP99
0181156400999992000012119004+42670+026320FM-12+025799999V0209999C000010150019N0200001N1+99999+99999100471ADDAA199000091GF108991081051017501999999KA1120M+00181MD1710201+9999REMSYN086AAXX  21191 15640 31798 80000 110/1 21060 40047 57020 7/222 885// 333 10018 555 95000;EQDQ01  00002PRCP99
0150156400999992000012121004+42670+026320FM-12+025799999V0209999C000019999999N0200001N1-00041-00441100401ADDAY121031AY221031GF108991081001999999021999MD1710071+9999MW1021REMSYN076AAXX  21211 15640 41998 80000 11004 21044 40040 57007 70222 8802/ 555 95000;
0217156400999992000012200004+42670+026320FM-12+025799999V0202701N016010075019N0100001N1+00081-00271100401ADDAA106000191AY171061AY221061GF108991081001008001021999MD1410001+9999MW1711OA149901801OA259901601REMSYN110AAXX  22001 15640 11597 82716 10008 21027 40040 54000 69911 77172 8802/ 333 91118 91527 91216 91527 555 95000;
0271156400999992000012203004+42670+026320FM-12+025799999V0202701N012010075019N0020001N1-00261-00331100721ADDAA124000291AJ100019199999999AY171031AY221031GF108991081001008001021999IA1239KA1999M-00221MD1310291+9999MW1711OA149901801OA259901601REMSYN128AAXX  22031 15640 41595 82712 11026 21033 40072 53029 77172 8802/ 333 91118 91527 91216 91527 555 11022 29068 47001 69924 95067;
0291156400999992000012206004+42670+026320FM-12+025799999V0202701N016010360019N0100001N1-00301-00901101191ADDAA112002091AJ100029199999999AY171061AY221061GF106991021051012501021001GJ102229IA2999-00709KA1120N-00341MD1210441+9999MW1011OA149901801OA259901601REMSYN134AAXX  22061 15640 11697 62716 11030 21090 40119 52044 60022 70172 82520 333 21034 47002 55037 91118 91527 91216 91527 555 3/107 95000;
0219156400999992000012209004+42670+026320FM-12+025799999V0203201N024012200019N0200001N1-00311-01081101771ADDAY111031AY211031GF102991021021012501001001MD1210561+9999MW1011OA149902401OA259999999REMSYN104AAXX  22091 15640 41698 23224 11031 21108 40177 52056 70111 82200 333 91124 91532 91220 91532 555 95000;EQDQ01  02002WGOSPD
0246156400999992000012212004+42670+026320FM-12+025799999V0203201N024012200019N0200001N1-00191-01121101861ADDAA199000021AY111061AY211061GF103991001001999999001021MD1110101+9999MW1031OA149902401OA259999999REMSYN104AAXX  22121 15640 31698 33224 11019 21112 40186 51010 70311 80002 333 91124 91532 91220 91532 555 95000;EQDQ01+012502SCOLCBQ02  02002WGOSPD
0200156400999992000012215004+42670+026320FM-12+025799999V0203201N005019999999N0200001N1-00211+99999101881ADDAY111031AY211031GF105991001001999999001021MD1310021+9999MW1031OA149902401OA259903201REMSYN104AAXX  22151 15640 41998 53205 11021 20144 40188 53002 70311 80002 333 91124 91532 91232 91532 555 95000;
0203156400999992000012218004+42670+026320FM-12+025799999V0203201N003012200019N0200001N1-00441-01511101991ADDAA199000091AY111061AY211061GA1001+999999999GF100991001001999999001001KA1999M-00061MD1110081+9999MW1011REMSYN070AAXX  22181 15640 31998 03203 11044 21151 40199 51008 70111 333 11006;EQDQ01  00002PRCP99
0150156400999992000012221004+42670+026320FM-12+025799999V0203201N005012200019N0200001N1-00691-01641102061ADDAY101031AY201031GA1001+999999999GF100991001001999999001001MD1310031+9999MW1021REMSYN060AAXX  22211 15640 41998 03205 11069 21164 40206 53003 70200;
0180156400999992000012300004+42670+026320FM-12+025799999V0209999C000012200019N0200001N1-00851-01571102111ADDAA199000091AY101061AY201061GA1001+999999999GF100991001001999999001001MD1210041+9999MW1021REMSYN060AAXX  23001 15640 31998 00000 11085 21157 40211 52004 70200;EQDQ01  00002PRCP99
0179156400999992000012303004+42670+026320FM-12+025799999V0209999C000012200019N0200001N1-00911-01441102011ADDAY101031AY201031GA1001+999999999GF100991001001999999001001KA1999M-00401MD1810111+9999MW1021REMSYN076AAXX  23031 15640 41998 00000 11091 21144 40201 58011 70200 555 11040 29052;
0241156400999992000012306004+42670+026320FM-12+025799999V0209999C000012200019N0200001N1-00821-01441101901ADDAA199000091AY101061AY201061GF101991011001999999041001GJ104449IA1169IA2999-01409KA1120N-00961MD1710091+9999MW1031REMSYN098AAXX  23061 15640 31998 10000 11082 21144 40190 57009 70300 81040 333 21096 55074 555 35114 95000;EQDQ01  00002PRCP99
0150156400999992000012309004+42670+026320FM-12+025799999V0209999C000019999999N0200001N1-00461-01121101711ADDAY111031AY211031GF108991081001999999021999MD1710151+9999MW1031REMSYN076AAXX  23091 15640 41998 80000 11046 21112 40171 57015 70311 8802/ 555 95000;
0180156400999992000012312004+42670+026320FM-12+025799999V0209999C000019999999N0100001N1-00181-00781101421ADDAA199000091AY111061AY211061GF108991081001999999021999MD1710061+9999MW1021REMSYN076AAXX  23121 15640 31997 80000 11018 21078 40142 57006 70211 8802/ 555 95000;EQDQ01  00002PRCP99
0150156400999992000012315004+42670+026320FM-12+025799999V0209999C000019999999N0100001N1-00021-00471101151ADDAY171031AY221031GF108991081001999999021999MD1710241+9999MW1221REMSYN076AAXX  23151 15640 41997 80000 11002 21047 40115 57024 72272 8802/ 555 95000;
0190156400999992000012318004+42670+026320FM-12+025799999V0209999C000019999999N0100001N1+00061-00861100971ADDAA112000791AY171061AY221061GF108991081001999999021999KA1120M+00081MD1710161+9999MW1021REMSYN092AAXX  23181 15640 11997 80000 10006 21086 40097 57016 69902 70272 8802/ 333 10008 555 95000;
0150156400999992000012321004+42670+026320FM-12+025799999V0203201N002019999999N0100001N1+00061-00821100831ADDAY121031AY221031GF108991081001999999021999MD1710141+9999MW1021REMSYN076AAXX  23211 15640 41997 83202 10006 21082 40083 57014 70222 8802/ 555 95000;
0161156400999992000012400004+42670+026320FM-12+025799999V0203201N002019999999N0100001N1+00021-00381100411ADDAA199000021AY121061AY221061GF108991081001999999021999MD1710401+9999MW1021REMSYN076AAXX  24001 15640 31997 83202 10002 21038 40041 57040 70222 8802/ 555 95000;
0168156400999992000012403004+42670+026320FM-12+025799999V0203201N001010075019N0040001N1+00301+00191100141ADDAY121031AY221031GF108991081061008001999999MD1710131+9999MW1021REMSYN094AAXX  24031 15640 41596 83201 10030 20019 40014 57013 70222 886// 555 11024 29059 69904 95060;
0228156400999992000012406004+42670+026320FM-12+025799999V0209999C000010075019N0020001N1+00321+00271099801ADDAA112000891AY161061AY221061GF108991081001008001021999GJ100009IA1099IA2999-00109KA1120N+00001MD1710331+9999MW1611REMSYN104AAXX  24061 15640 11595 80000 10032 20027 49980 57033 69982 76162 8802/ 333 20000 55000 555 31101 95060;
0200156400999992000012409004+42670+026320FM-12+025799999V0203201N016010120019N0200001N1-00051-00711100161ADDAY171031AY261031GF108991081051012501999999MD1310311+9999MW1021OA149902001OA259901601REMSYN104AAXX  24091 15640 41698 83216 11005 21071 40016 53031 70276 885// 333 91120 91532 91216 91532 555 95000;
0246156400999992000012412004+42670+026320FM-12+025799999V0203401N005010120019N0200001N1-00091-00741100301ADDAA106003091AJ100029199999999AY171061AY261061GF107991061051012501051001IA1289MD1210131+9999MW1011OA149902001OA259901601REMSYN116AAXX  24121 15640 11698 73405 11009 21074 40030 52013 60031 70176 86550 333 44002 91120 91532 91216 91532 555 95000;
0150156400999992000012415004+42670+026320FM-12+025799999V0203201N008010900019N0200001N1-00151-00861100481ADDAY121031AY221031GF105991021051017501041011MD1210161+9999MW1011REMSYN076AAXX  24151 15640 41798 53208 11015 21086 40048 52016 70122 82541 555 95000;
0219156400999992000012418004+42670+026320FM-12+025799999V0203201N007010120019N0200001N1-00271-00901100821ADDAA112003091AJ100029199999999AY121061AY221061GF107991071051012501001001IA1289KA1120M+00321MD1210321+9999MW1031REMSYN098AAXX  24181 15640 11698 73207 11027 21090 40082 52032 60032 70322 87500 333 10032 44002 555 95000;
0150156400999992000012421004+42670+026320FM-12+025799999V0203201N005010075019N0040001N1-00421-00861101151ADDAY171031AY221031GF108991081001008001021999MD1210301+9999MW1711REMSYN076AAXX  24211 15640 41596 83205 11042 21086 40115 52030 77172 8802/ 555 95060;
0200156400999992000012500004+42670+026320FM-12+025799999V0203201N004010120019N0100001N1-00461-01071101381ADDAA106000191AJ100029199999999AY171061AY221061GF108991081051012501999999IA1289MD1210221+9999MW1021REMSYN092AAXX  25001 15640 11697 83204 11046 21107 40138 52022 69921 70272 885// 333 44002 555 95000;
0174156400999992000012503004+42670+026320FM-12+025799999V0203201N009010120019N0100001N1-00531-01121101541ADDAY121031AY221031GF106991061051012501001001MD1210141+9999MW1011REMSYN100AAXX  25031 15640 41697 63209 11053 21112 40154 52014 70122 86500 555 11011 29074 44002 60044 95000;
0245156400999992000012506004+42670+026320FM-12+025799999V0203201N012010360019N0200001N1-00681-01281101901ADDAA112000191AJ100029199999999AY121061AY221061GF108991021051017501021999GJ100909IA2999-00909KA1120N-00681MD1210331+9999MW1031REMSYN110AAXX  25061 15640 11798 83212 11068 21128 40190 52033 69922 70322 8252/ 333 21068 44002 55015 555 3/109 95000;
0150156400999992000012509004+42670+026320FM-12+025799999V0203201N009010360019N0200001N1-00621-01281102191ADDAY121031AY221031GF108991021051017501021999MD1210291+9999MW1021REMSYN076AAXX  25091 15640 41798 83209 11062 21128 40219 52029 70222 8252/ 555 95000;
0180156400999992000012512004+42670+026320FM-12+025799999V0203201N007010360019N0200001N1-00491-01281102291ADDAA199000091AY121061AY221061GF107991011051017501011001MD1210111+9999MW1011REMSYN076AAXX  25121 15640 31798 73207 11049 21128 40229 52011 70122 81510 555 95000;EQDQ01  00002PRCP99
0150156400999992000012515004+42670+026320FM-12+025799999V0203201N005012200019N0200001N1-00591-01331102511ADDAY111031AY211031GA1001+999999999GF100991001001999999001001MD1210201+9999MW1021REMSYN060AAXX  25151 15640 41998 03205 11059 21133 40251 52020 70211;
0232156400999992000012518004+42670+026320FM-12+025799999V0202501N005012200019N0200001N1-00741-01391102741ADDAA199000091AJ100019199999999AY111061AY211061GF102991021051008001001001IA1309KA1120M-00341MD1210211+9999MW1031REMSYN092AAXX  25181 15640 31598 22505 11074 21139 40274 52021 70311 82500 333 11034 42001 555 95000;EQDQ01  00002PRCP99
0150156400999992000012521004+42670+026320FM-12+025799999V0203201N003012200019N0200001N1-00761-01391102771ADDAY101031AY201031GF102991021051017501001001MD1210031+9999MW1021REMSYN076AAXX  25211 15640 41798 23203 11076 21139 40277 52003 70200 82500 555 95000;
0213156400999992000012600004+42670+026320FM-12+025799999V0209999C000010360019N0200001N1-00761-01391102751ADDAA199000091AJ100019199999999AY111061AY211061GF105991021051012501031001IA1309MD1610021+9999MW1031REMSYN086AAXX  26001 15640 31698 50000 11076 21139 40275 56002 70311 82530 333 42001 555 95000;EQDQ01  00002PRCP99
0168156400999992000012603004+42670+026320FM-12+025799999V0203201N007012200019N0200001N1-00841-01441102731ADDAY111031AY211031GF102991021001999999041001MD1810031+9999MW1011REMSYN094AAXX  26031 15640 41998 23207 11084 21144 40273 58003 70111 82040 555 11066 29061 42001 95000;
0258156400999992000012606004+42670+026320FM-12+025799999V0203201N003012200019N0200001N1-00911-01571102771ADDAA199000091AJ100019199999999AY111061AY211061GF102991021051012501001001GJ102109IA2999-01309KA1120N-00911MD1110031+9999MW1021REMSYN104AAXX  26061 15640 31698 23203 11091 21157 40277 51003 70211 82500 333 21091 42001 55035 555 3/113 95000;EQDQ01  00002PRCP99
0150156400999992000012609004+42670+026320FM-12+025799999V0203201N009012200019N0200001N1-00561-01311102691ADDAY101031AY201031GF102991011051012501001011MD1810031+9999MW1031REMSYN076AAXX  26091 15640 41698 23209 11056 21131 40269 58003 70300 81501 555 95000;
0164156400999992000012612004+42670+026320FM-12+025799999V0203201N009012200019N0200001N1-00361-01311102541ADDAA199000091AY101061AY201061GF102991999999999999999999MD1710131+9999MW1011REMSYN060AAXX  26121 15640 31998 23209 11036 21131 40254 57013 70100;EQDQ01  00002PRCP99
0150156400999992000012615004+42670+026320FM-12+025799999V0203201N012012200019N0200001N1-00381-01331102491ADDAY101031AY201031GA1001+999999999GF100991001001999999001001MD1710061+9999MW1021REMSYN060AAXX  26151 15640 41998 03212 11038 21133 40249 57006 70200;
0203156400999992000012618004+42670+026320FM-12+025799999V0203201N009012200019N0200001N1-00461-01441102491ADDAA199000091AY101061AY201061GA1001+999999999GF100991001001999999001001KA1999M-00321MD1410001+9999MW1021REMSYN070AAXX  26181 15640 31998 03209 11046 21144 40249 54000 70200 333 11032;EQDQ01  00002PRCP99
0150156400999992000012621004+42670+026320FM-12+025799999V0203201N005012200019N0200001N1-00421-01311102491ADDAY101031AY201031GA1001+999999999GF100991001001999999001001MD1410001+9999MW1021REMSYN060AAXX  26211 15640 41998 03205 11042 21131 40249 54000 70200;
0213156400999992000012700004+42670+026320FM-12+025799999V0203201N003010360019N0200001N1-00481-01121102511ADDAA199000091AJ100019199999999AY111061AY211061GF106991021051012501031001IA1309MD1310011+9999MW1031REMSYN086AAXX  27001 15640 31698 63203 11048 21112 40251 53001 70311 82530 333 42001 555 95000;EQDQ01  00002PRCP99
0168156400999992000012703004+42670+026320FM-12+025799999V0203201N012010360019N0200001N1-00441-01311102461ADDAY121031AY221031GF106991021051012501031001MD1810041+9999MW1011REMSYN094AAXX  27031 15640 41698 63212 11044 21131 40246 58004 70122 82530 555 11055 29053 42001 95000;
0258156400999992000012706004+42670+026320FM-12+025799999V0203201N009012200019N0200001N1-00321-01121102521ADDAA199000091AJ100019199999999AY111061AY211061GF103991011051017501031001GJ105109IA2999-01009KA1120N-00721MD1310071+9999MW1011REMSYN104AAXX  27061 15640 31798 33209 11032 21112 40252 53007 70111 81530 333 21072 42001 55085 555 3/110 95000;EQDQ01  00002PRCP99
0150156400999992000012709004+42670+026320FM-12+025799999V0202301N005019999999N0200001N1-00041-00941102451ADDAY111031AY211031GF105991021001999999041021MD1810031+9999MW1031REMSYN076AAXX  27091 15640 41998 52305 11004 21094 40245 58003 70311 82042 555 95000;
0180156400999992000012712004+42670+026320FM-12+025799999V0202701N005012200019N0200001N1+00471-00671102291ADDAA199000091AY111061AY211061GF102991021001999999041001MD1710111+9999MW1011REMSYN076AAXX  27121 15640 31998 22705 10047 21067 40229 57011 70111 82040 555 95000;EQDQ01  00002PRCP99
0150156400999992000012715004+42670+026320FM-12+025799999V0202901N005012200019N0200001N1+00311-00601102331ADDAY101031AY201031GF101991011001999999041001MD1310031+9999MW1011REMSYN076AAXX  27151 15640 41998 12905 10031 21060 40233 53003 70100 81040 555 95000;
0203156400999992000012718004+42670+026320FM-12+025799999V0203201N009012200019N0200001N1+00221-00711102401ADDAA199000091AY101061AY201061GF103991031001999999031001KA1120M+00511MD1210061+9999MW1031REMSYN086AAXX  27181 15640 31998 33209 10022 21071 40240 52006 70300 83030 333 10051 555 95000;EQDQ01  00002PRCP99
0150156400999992000012721004+42670+026320FM-12+025799999V0203201N003012200019N0200001N1+00241-00571102481ADDAY101031AY201031GF101991011001999999031001MD1210071+9999MW1011REMSYN076AAXX  27211 15640 41998 13203 10024 21057 40248 52007 70100 81030 555 95000;
0180156400999992000012800004+42670+026320FM-12+025799999V0209999C000012200019N0200001N1-00321-00541102491ADDAA199000091AY101061AY201061GA1001+999999999GF100991001001999999001001MD1810041+9999MW1011REMSYN060AAXX  28001 15640 31998 00000 11032 21054 40249 58004 70100;EQDQ01  00002PRCP99
0180156400999992000012801004+42670+026320FM-12+025799999V0209999C000012200019N0200001N1-00321+99999102491ADDAA199000091AY101999AY201999GA1001+999999999GF100991001001999999001001MD1810041+9999MW1011REMSYN060AAXX  28011 15640 31998 00000 11032 21/// 40249 58004 70100;EQDQ01  00002PRCP99
0179156400999992000012803004+42670+026320FM-12+025799999V0209999C000012200019N0200001N1-00421-00571102511ADDAY101031AY201031GA1001+999999999GF100991001001999999001001KA1999M+00111MD1410001+9999MW1021REMSYN076AAXX  28031 15640 41998 00000 11042 21057 40251 54000 70200 555 10011 29050;
0227156400999992000012806004+42670+026320FM-12+025799999V0209999C000012200019N0200001N1-00511-00601102481ADDAA199000091AY101061AY201061GA1001+999999999GF100991001001999999001001GJ103789KA1120N-00551MD1810041+9999MW1021REMSYN086AAXX  28061 15640 31998 00000 11051 21060 40248 58004 70200 333 21055 55063 555 34110;EQDQ01  00002PRCP99
0150156400999992000012809004+42670+026320FM-12+025799999V0209999C000012200019N0200001N1+00061-00381102501ADDAY101031AY201031GA1001+999999999GF100991001001999999001001MD1310081+9999MW1021REMSYN060AAXX  28091 15640 41998 00000 10006 21038 40250 53008 70200;
0150156400999992000012815004+42670+026320FM-12+025799999V0209999C000012200019N0200001N1+00421-00351102121ADDAY101031AY201031GA1001+999999999GF100991001001999999001001MD1710101+9999MW1021REMSYN060AAXX  28151 15640 41998 00000 10042 21035 40212 57010 70200;
0150156400999992000012816004+42670+026320FM-12+025799999V0209999C000012200019N0200001N1+00421-00351102121ADDAY101999AY201999GA1001+999999999GF100991001001999999001001MD1710101+9999MW1021REMSYN060AAXX  28161 15640 41998 00000 10042 21035 40212 57010 70200;
0203156400999992000012818004+42670+026320FM-12+025799999V0209999C000012200019N0200001N1-00021-00331102221ADDAA199000091AY101061AY201061GA1001+999999999GF100991001001999999001001KA1999M+00641MD1310051+9999MW1021REMSYN070AAXX  28181 15640 31998 00000 11002 21033 40222 53005 70200 333 10064;EQDQ01  00002PRCP99
0150156400999992000012821004+42670+026320FM-12+025799999V0209999C000012200019N0200001N1-00181-00441102211ADDAY101031AY201031GA1001+999999999GF100991001001999999001001MD1810021+9999MW1021REMSYN060AAXX  28211 15640 41998 00000 11018 21044 40221 58002 70200;
0180156400999992000012900004+42670+026320FM-12+025799999V0209999C000012200019N0200001N1-00281-00501102221ADDAA199000091AY101061AY201061GA1001+999999999GF100991001001999999001001MD1410001+9999MW1021REMSYN060AAXX  29001 15640 31998 00000 11028 21050 40222 54000 70200;EQDQ01  00002PRCP99
0179156400999992000012903004+42670+026320FM-12+025799999V0209999C000012200019N0200001N1-00321-00441102201ADDAY101031AY201031GA1001+999999999GF100991001001999999001001KA1999M-00051MD1810041+9999MW1021REMSYN076AAXX  29031 15640 41998 00000 11032 21044 40220 58004 70200 555 11005 29077;
0241156400999992000012906004+42670+026320FM-12+025799999V0209999C000012200019N0200001N1-00381-00411102251ADDAA199000091AY101061AY201061GF102991011001999999041011GJ105109IA1149IA2999-01009KA1120N-00421MD1310041+9999MW1031REMSYN098AAXX  29061 15640 31998 20000 11038 21041 40225 53004 70300 81041 333 21042 55085 555 34110 95000;EQDQ01  00002PRCP99
0150156400999992000012909004+42670+026320FM-12+025799999V0201401N002012200019N0200001N1+00041-00191102301ADDAY101031AY201031GF102991001001999999001011MD1210111+9999MW1021REMSYN076AAXX  29091 15640 41998 21402 10004 21019 40230 52011 70200 80001 555 95000;
0180156400999992000012912004+42670+026320FM-12+025799999V0209999C000012200019N0200001N1+00551-00121102151ADDAA199000091AY101061AY201061GA1001+999999999GF100991001001999999001001MD1810091+9999MW1011REMSYN060AAXX  29121 15640 31998 00000 10055 21012 40215 58009 70100;EQDQ01  00002PRCP99
0150156400999992000012915004+42670+026320FM-12+025799999V0209999C000012200019N0200001N1+00521-00411102151ADDAY101031AY201031GA1001+999999999GF100991001001999999001001MD1410001+9999MW1021REMSYN060AAXX  29151 15640 41998 00000 10052 21041 40215 54000 70200;
0203156400999992000012918004+42670+026320FM-12+025799999V0202701N002012200019N0200001N1+00041-00571102141ADDAA199000091AY101061AY201061GA1001+999999999GF100991001001999999001001KA1999M+00731MD1810071+9999MW1021REMSYN070AAXX  29181 15640 31998 02702 10004 21057 40214 58007 70200 333 10073;EQDQ01  00002PRCP99
0184156400999992000012919004+42670+026320FM-12+025799999V0202701N002012200019N0200001N1+00041+99999102141ADDAA199000091AY101999AY201999GA1001+999999999GF100991001001999999001001MD1810071+9999MW1021REMSYN064AAXX  29191 15640 31998 02702 10004 40214 58007 70200 333 0073/;EQDQ01  00002PRCP99
0150156400999992000012921004+42670+026320FM-12+025799999V0209999C000012200019N0100001N1-00041-00711102151ADDAY101031AY201031GA1001+999999999GF100991001001999999001001MD1410001+9999MW1021REMSYN060AAXX  29211 15640 41997 00000 11004 21071 40215 54000 70200;
0180156400999992000013000004+42670+026320FM-12+025799999V0209999C000012200019N0100001N1-00121-00641101951ADDAA199000091AY101061AY201061GA1001+999999999GF100991001001999999001001MD1810201+9999MW1021REMSYN060AAXX  30001 15640 31997 00000 11012 21064 40195 58020 70200;EQDQ01  00002PRCP99
0179156400999992000013003004+42670+026320FM-12+025799999V0209999C000012200019N0100001N1-00361-00781101871ADDAY101031AY201031GA1001+999999999GF100991001001999999001001KA1999M+00041MD1710101+9999MW1021REMSYN076AAXX  30031 15640 41997 00000 11036 21078 40187 57010 70200 555 10004 29072;
0241156400999992000013006004+42670+026320FM-12+025799999V0209999C000012200019N0200001N1-00301-00781101841ADDAA199000091AY101061AY201061GF101991001001999999001011GJ104809IA1149IA2999-01009KA1120N-00401MD1710031+9999MW1031REMSYN098AAXX  30061 15640 31998 10000 11030 21078 40184 57003 70300 80001 333 21040 55080 555 34110 95000;EQDQ01  00002PRCP99
0150156400999992000013009004+42670+026320FM-12+025799999V0209999C000010120019N0100001N1-00101-00501101791ADDAY111031AY211031GF108991081051012501999999MD1710031+9999MW1031REMSYN076AAXX  30091 15640 41697 80000 11010 21050 40179 57003 70311 885// 555 95000;
0180156400999992000013012004+42670+026320FM-12+025799999V0209999C000010120019N0100001N1+00161-00271101561ADDAA199000091AY121061AY221061GF108991081051012501999999MD1710191+9999MW1021REMSYN076AAXX  30121 15640 31697 80000 10016 21027 40156 57019 70222 885// 555 95000;EQDQ01  00002PRCP99
0150156400999992000013015004+42670+026320FM-12+025799999V0209999C000010120019N0100001N1+00201-00301101561ADDAY121031AY221031GF108991081051012501999999MD1410001+9999MW1021REMSYN076AAXX  30151 15640 41697 80000 10020 21030 40156 54000 70222 885// 555 95000;
0203156400999992000013018004+42670+026320FM-12+025799999V0209999C000010120019N0100001N1+00151-00221101631ADDAA199000091AY121061AY221061GF108991081051012501999999KA1120M+00311MD1310071+9999MW1021REMSYN086AAXX  30181 15640 31697 80000 10015 21022 40163 53007 70222 885// 333 10031 555 95000;EQDQ01  00002PRCP99
0169156400999992000013021004+42670+026320FM-12+025799999V0209999C000010120019N0100001N1+00101-00171101731ADDAY121031AY221031GF106991999051012501001001MD1210101+9999MW1011REMSYN076AAXX  30211 15640 41697 60000 10010 21017 40173 52010 70122 85500 555 95000;EQDQ01+000052SCOTLC
0180156400999992000013100004+42670+026320FM-12+025799999V0202701N005012200019N0200001N1+00781-00071101751ADDAA199000091AY111061AY211061GF102991021051012501001001MD1210091+9999MW1011REMSYN076AAXX  31001 15640 31698 22705 10078 21007 40175 52009 70111 82500 555 95000;EQDQ01  00002PRCP99
0162156400999992000013103004+42670+026320FM-12+025799999V0202701N003012200019N0200001N1+00631-00331101971ADDAY101031AY201031GF102991021051012501001001MD1210201+9999MW1021REMSYN088AAXX  31031 15640 41698 22703 10063 21033 40197 52020 70200 82500 555 10004 29075 95000;
0241156400999992000013106004+42670+026320FM-12+025799999V0203201N005012200019N0200001N1+00621-00271102141ADDAA199000091AY101061AY201061GF102991021051012501001001GJ100009IA1149IA2999-00409KA1120N+00101MD1210161+9999MW1021REMSYN098AAXX  31061 15640 31698 23205 10062 21027 40214 52016 70200 82500 333 20010 55000 555 34104 95000;EQDQ01  00002PRCP99
0150156400999992000013109004+42670+026320FM-12+025799999V0202301N009010360019N0200001N1+01021-00021102251ADDAY111031AY211031GF106991021051017501031001MD1210141+9999MW1031REMSYN076AAXX  31091 15640 41798 62309 10102 21002 40225 52014 70311 82530 555 95000;
0150156400999992000013112004+42670+026320FM-12+025799999V0202301N003010360019N0200001N1+01261-00051102121ADDAY111061AY211061GF105991021051017501031001MD1810101+9999MW1011REMSYN076AAXX  31121 15640 41798 52303 10126 21005 40212 58010 70111 82530 555 95000;
0150156400999992000013115004+42670+026320FM-12+025799999V0202301N002010360019N0200001N1+00981+00091102031ADDAY121031AY221031GF106991021051017501031001MD1710131+9999MW1031REMSYN076AAXX  31151 15640 41798 62302 10098 20009 40203 57013 70322 82530 555 95000;
0203156400999992000013118004+42670+026320FM-12+025799999V0209999C000012200019N0200001N1+00561-00141102011ADDAA199000091AY111061AY211061GA1001+999999999GF100991001001999999001001KA1999M+01261MD1710151+9999MW1011REMSYN070AAXX  31181 15640 31998 00000 10056 21014 40201 57015 70111 333 10126;EQDQ01  00002PRCP99
0150156400999992000013121004+42670+026320FM-12+025799999V0209999C000012200019N0200001N1+00361-00121102031ADDAY101031AY201031GA1001+999999999GF100991001001999999001001MD1710011+9999MW1021REMSYN060AAXX  31211 15640 41998 00000 10036 21012 40203 57001 70200;
0180156400999992000020100004+42670+026320FM-12+025799999V0202301N002012200019N0200001N1+01041+00251101991ADDAA199000091AY101061AY201061GF102991021051017501001001MD1310041+9999MW1031REMSYN076AAXX  01001 15640 31798 22302 10104 20025 40199 53004 70300 82500 555 95000;EQDQ01  00002PRCP99
0162156400999992000020103004+42670+026320FM-12+025799999V0202701N003012200019N0200001N1+01031+00271101991ADDAY101031AY201031GF102991021051017501001001MD1410001+9999MW1031REMSYN088AAXX  01031 15640 41798 22703 10103 20027 40199 54000 70300 82500 555 10066 29055 95000;
0241156400999992000020106004+42670+026320FM-12+025799999V0202301N002010120019N0200001N1+01051+00271102251ADDAA199000091AY111061AY211061GF106991061051012501001001GJ105109IA1149IA2999-00409KA1120N+00361MD1310251+9999MW1031REMSYN098AAXX  01061 15640 31698 62302 10105 20027 40225 53025 70311 86500 333 20036 55085 555 34104 95000;EQDQ01  00002PRCP99
0150156400999992000020109004+42670+026320FM-12+025799999V0202701N005019999999N0200001N1+01081+00131102491ADDAY121031AY221031GF107991071051999999001001MD1210251+9999MW1031REMSYN076AAXX  01091 15640 41998 72705 10108 20013 40249 52025 70322 87500 555 95000;
0180156400999992000020112004+42670+026320FM-12+025799999V0202901N005012200019N0200001N1+01131+00131102581ADDAA199000091AY111061AY211061GF102991021051012501001011MD1110091+9999MW1011REMSYN076AAXX  01121 15640 31698 22905 10113 20013 40258 51009 70111 82501 555 95000;EQDQ01  00002PRCP99
0150156400999992000020115004+42670+026320FM-12+025799999V0209999C000012200019N0200001N1+01191+00171102621ADDAY101031AY201031GA1001+999999999GF100991001001999999001001MD1310051+9999MW1011REMSYN060AAXX  01151 15640 41998 00000 10119 20017 40262 53005 70100;
0203156400999992000020118004+42670+026320FM-12+025799999V0209999C000012200019N0200001N1+00941+00021102671ADDAA199000091AY101061AY201061GA1001+999999999GF100991001001999999001001KA1999M+01281MD1210021+9999MW1021REMSYN070AAXX  01181 15640 31998 00000 10094 20002 40267 52002 70200 333 10128;EQDQ01  00002PRCP99
0150156400999992000020121004+42670+026320FM-12+025799999V0209999C000012200019N0200001N1+00421-00091102801ADDAY101031AY201031GA1001+999999999GF100991001001999999001001MD1210071+9999MW1021REMSYN060AAXX  01211 15640 41998 00000 10042 21009 40280 52007 70200;
0180156400999992000020200004+42670+026320FM-12+025799999V0209999C000012200019N0200001N1+00221-00021102811ADDAA199000091AY101061AY201061GA1001+999999999GF100991001001999999001001MD1810011+9999MW1021REMSYN060AAXX  02001 15640 31998 00000 10022 21002 40281 58001 70200;EQDQ01  00002PRCP99
0179156400999992000020203004+42670+026320FM-12+025799999V0209999C000012200019N0200001N1+00291+00001102591ADDAY101031AY201031GA1001+999999999GF100991001001999999001001KA1999M+00901MD1710211+9999MW1021REMSYN076AAXX  02031 15640 41998 00000 10029 20000 40259 57021 70200 555 10090 29055;
0227156400999992000020206004+42670+026320FM-12+025799999V0209999C000012200019N0200001N1+00181+00021102491ADDAA199000091AY101061AY201061GA1001+999999999GF100991001001999999001001GJ104929KA1120N+00171MD1710121+9999MW1021REMSYN086AAXX  02061 15640 31998 00000 10018 20002 40249 57012 70200 333 20017 55082 555 34106;EQDQ01  00002PRCP99
0150156400999992000020209004+42670+026320FM-12+025799999V0209999C000012200019N0200001N1+00861+00211102371ADDAY101031AY201031GA1001+999999999GF100991001001999999001001MD1710031+9999MW1021REMSYN060AAXX  02091 15640 41998 00000 10086 20021 40237 57003 70200;
0180156400999992000020212004+42670+026320FM-12+025799999V0209999C000012200019N0200001N1+01301+00321102141ADDAA199000091AY101061AY201061GA1001+999999999GF100991001001999999001001MD1710171+9999MW1021REMSYN060AAXX  02121 15640 31998 00000 10130 20032 40214 57017 70200;EQDQ01  00002PRCP99
0150156400999992000020215004+42670+026320FM-12+025799999V0209999C000012200019N0200001N1+01181+00231101881ADDAY101031AY201031GA1001+999999999GF100991001001999999001001MD1710281+9999MW1021REMSYN060AAXX  02151 15640 41998 00000 10118 20023 40188 57028 70200;
0203156400999992000020218004+42670+026320FM-12+025799999V0203201N002012200019N0200001N1+00661+00091101801ADDAA199000091AY101061AY201061GA1001+999999999GF100991001001999999001001KA1999M+01371MD1710131+9999MW1021REMSYN070AAXX  02181 15640 31998 03202 10066 20009 40180 57013 70200 333 10137;EQDQ01  00002PRCP99
0150156400999992000020221004+42670+026320FM-12+025799999V0203201N002012200019N0200001N1+00521+00061101781ADDAY101031AY201031GA1001+999999999GF100991001001999999001001MD1710031+9999MW1021REMSYN060AAXX  02211 15640 41998 03202 10052 20006 40178 57003 70200;
0180156400999992000020300004+42670+026320FM-12+025799999V0209999C000012200019N0200001N1+00301-00071101801ADDAA199000091AY101061AY201061GA1001+999999999GF100991001001999999001001MD1410001+9999MW1021REMSYN060AAXX  03001 15640 31998 00000 10030 21007 40180 54000 70200;EQDQ01  00002PRCP99
0179156400999992000020303004+42670+026320FM-12+025799999V0209999C000012200019N0200001N1+00421-00061101821ADDAY101031AY201031GA1001+999999999GF100991001001999999001001KA1999M+00681MD1710021+9999MW1021REMSYN076AAXX  03031 15640 41998 00000 10042 21006 40182 57002 70200 555 10068 29070;
0241156400999992000020306004+42670+026320FM-12+025799999V0209999C000012200019N0200001N1+00181+00041101751ADDAA199000091AY101061AY201061GF102991001001999999001011GJ105709IA1149IA2999-00509KA1120N+00161MD1410001+9999MW1031REMSYN098AAXX  03061 15640 31998 20000 10018 20004 40175 54000 70300 80001 333 20016 55095 555 34105 95000;EQDQ01  00002PRCP99
0150156400999992000020309004+42670+026320FM-12+025799999V0209999C000019999999N0100001N1+00531+00271101781ADDAY111031AY211031GF105991041001999999031011MD1310071+9999MW1031REMSYN076AAXX  03091 15640 41997 50000 10053 20027 40178 53007 70311 84031 555 95000;
0180156400999992000020312004+42670+026320FM-12+025799999V0209999C000010360019N0100001N1+01021+00361101641ADDAA199000091AY121061AY221061GF108991031051012501051999MD1810081+9999MW1031REMSYN076AAXX  03121 15640 31697 80000 10102 20036 40164 58008 70322 8355/ 555 95000;EQDQ01  00002PRCP99
0150156400999992000020315004+42670+026320FM-12+025799999V0209999C000010360019N0100001N1+01171+00361101631ADDAY121031AY221031GF108991031051012501051999MD1410001+9999MW1021REMSYN076AAXX  03151 15640 41697 80000 10117 20036 40163 54000 70222 8355/ 555 95000;
0203156400999992000020318004+42670+026320FM-12+025799999V0203201N003010120019N0100001N1+00901+00091101861ADDAA199000091AY121061AY221061GF108991081051012501999999KA1120M+01281MD1310201+9999MW1031REMSYN086AAXX  03181 15640 31697 83203 10090 20009 40186 53020 70322 885// 333 10128 555 95000;EQDQ01  00002PRCP99
0150156400999992000020321004+42670+026320FM-12+025799999V0203201N009010120019N0100001N1+00721-00091101991ADDAY121031AY221031GF108991081051012501999999MD1210111+9999MW1021REMSYN076AAXX  03211 15640 41697 83209 10072 21009 40199 52011 70222 885// 555 95000;
0180156400999992000020400004+42670+026320FM-12+025799999V0203201N009010120019N0100001N1+00641-00091102101ADDAA199000091AY121061AY221061GF108991081051012501999999MD1210091+9999MW1021REMSYN076AAXX  04001 15640 31697 83209 10064 21009 40210 52009 70222 885// 555 95000;EQDQ01  00002PRCP99
0162156400999992000020403004+42670+026320FM-12+025799999V0203201N012010120019N0100001N1+00461+00071102391ADDAY121031AY221031GF108991081051012501999999MD1210261+9999MW1021REMSYN088AAXX  04031 15640 41697 83212 10046 20007 40239 52026 70222 885// 555 10068 29070 95000;
0241156400999992000020406004+42670+026320FM-12+025799999V0209999C000019999999N0200001N1+00381-00071102721ADDAA199000091AY121061AY221061GF105991021001999999031011GJ101509IA1149IA2999-00409KA1120N+00371MD1210311+9999MW1011REMSYN098AAXX  04061 15640 31998 50000 10038 21007 40272 52031 70122 82031 333 20037 55025 555 34104 95000;EQDQ01  00002PRCP99
0150156400999992000020409004+42670+026320FM-12+025799999V0203201N009010360019N0200001N1+00481-00121103001ADDAY121031AY221031GF107991021051012501051011MD1210281+9999MW1031REMSYN076AAXX  04091 15640 41698 73209 10048 21012 40300 52028 70322 82551 555 95000;
0180156400999992000020412004+42670+026320FM-12+025799999V0203201N007012200019N0200001N1+00621-00121103151ADDAA199000091AY111061AY211061GF104991041021012501001001MD1210171+9999MW1031REMSYN076AAXX  04121 15640 31698 43207 10062 21012 40315 52017 70311 84200 555 95000;EQDQ01  00002PRCP99
0150156400999992000020415004+42670+026320FM-12+025799999V0203201N003012200019N0200001N1+00281-00381103241ADDAY171031AY221031GF102991021051012501001001MD1110041+9999MW1011REMSYN076AAXX  04151 15640 41698 23203 10028 21038 40324 51004 70172 82500 555 95000;
0190156400999992000020418004+42670+026320FM-12+025799999V0209999C000012200019N0200001N1+00081-00411103551ADDAA112000591AY171061AY201061GF101991011051017501001001KA1120M+00791MD1310281+9999MW1011REMSYN092AAXX  04181 15640 11798 10000 10008 21041 40355 53028 69952 70170 81500 333 10079 555 95000;
0150156400999992000020421004+42670+026320FM-12+025799999V0203401N005012200019N0200001N1+00021-00641103621ADDAY101031AY201031GA1001+999999999GF100991001001999999001001MD1210071+9999MW1021REMSYN060AAXX  04211 15640 41998 03405 10002 21064 40362 52007 70200;
0180156400999992000020500004+42670+026320FM-12+025799999V0209999C000012200019N0200001N1-00271-00711103611ADDAA199000091AY101061AY201061GA1001+999999999GF100991001001999999001001MD1810051+9999MW1021REMSYN060AAXX  05001 15640 31998 00000 11027 21071 40361 58005 70200;EQDQ01  00002PRCP99
0179156400999992000020503004+42670+026320FM-12+025799999V0209999C000012200019N0200001N1-00361-00641103471ADDAY101031AY201031GA1001+999999999GF100991001001999999001001KA1999M+00251MD1710151+9999MW1021REMSYN076AAXX  05031 15640 41998 00000 11036 21064 40347 57015 70200 555 10025 29068;
0227156400999992000020506004+42670+026320FM-12+025799999V0209999C000012200019N0200001N1-00411-00541103341ADDAA199000091AY101061AY201061GA1001+999999999GF100991001001999999001001GJ104089KA1120N-00461MD1710121+9999MW1021REMSYN086AAXX  05061 15640 31998 00000 11041 21054 40334 57012 70200 333 21046 55068 555 34110;EQDQ01  00002PRCP99
0150156400999992000020509004+42670+026320FM-12+025799999V0209999C000019999999N0200001N1+00181-00191103071ADDAY111031AY211031GF105991031001999999031011MD1710211+9999MW1031REMSYN076AAXX  05091 15640 41998 50000 10018 21019 40307 57021 70311 83031 555 95000;
0180156400999992000020512004+42670+026320FM-12+025799999V0202301N002012200019N0200001N1+00461-00171102631ADDAA199000091AY111061AY211061GF102991011001999999031011MD1710401+9999MW1011REMSYN076AAXX  05121 15640 31998 22302 10046 21017 40263 57040 70111 81031 555 95000;EQDQ01  00002PRCP99
0150156400999992000020515004+42670+026320FM-12+025799999V0209999C000010360019N0200001N1+00441-00251102361ADDAY111031AY211031GF106991021051017501031011MD1710261+9999MW1031REMSYN076AAXX  05151 15640 41798 60000 10044 21025 40236 57026 70311 82531 555 95000;
0203156400999992000020518004+42670+026320FM-12+025799999V0203201N005012200019N0200001N1+00701-00071102261ADDAA199000091AY111061AY211061GF101991011001999999031001KA1120M+00741MD1710071+9999MW1011REMSYN086AAXX  05181 15640 31998 13205 10070 21007 40226 57007 70111 81030 333 10074 555 95000;EQDQ01  00002PRCP99
0150156400999992000020521004+42670+026320FM-12+025799999V0203201N009012200019N0200001N1+00821+00111102201ADDAY101031AY201031GF102991021001999999031001MD1710031+9999MW1031REMSYN076AAXX  05211 15640 41998 23209 10082 20011 40220 57003 70300 82030 555 95000;
0180156400999992000020600004+42670+026320FM-12+025799999V0203201N012012200019N0200001N1+00781+00091102251ADDAA199000091AY101061AY201061GF102991021001999999031001MD1710051+9999MW1021REMSYN076AAXX  06001 15640 31998 23212 10078 20009 40225 57005 70200 82030 555 95000;EQDQ01  00002PRCP99
0162156400999992000020603004+42670+026320FM-12+025799999V0203201N012010360019N0200001N1+00681+00251102401ADDAY111031AY211031GF105991021051017501031001MD1210131+9999MW1031REMSYN088AAXX  06031 15640 41798 53212 10068 20025 40240 52013 70311 82530 555 10044 29070 95000;
0241156400999992000020606004+42670+026320FM-12+025799999V0203201N009010120019N0200001N1+00711+00311102571ADDAA199000091AY111061AY211061GF107991061051012501031001GJ104449IA1099IA2999+00309KA1120N+00661MD1210171+9999MW1031REMSYN098AAXX  06061 15640 31698 73209 10071 20031 40257 52017 70311 86530 333 20066 55074 555 31003 95000;EQDQ01  00002PRCP99
0150156400999992000020609004+42670+026320FM-12+025799999V0203201N005010360019N0200001N1+00871+00451102651ADDAY121031AY221031GF106991041051012501031001MD1210121+9999MW1011REMSYN076AAXX  06091 15640 41698 63205 10087 20045 40265 52012 70122 84530 555 95000;
0180156400999992000020612004+42670+026320FM-12+025799999V0203601N005010360019N0200001N1+01051+00451102591ADDAA199000091AY121061AY221061GF106991021051012501031001MD1810051+9999MW1021REMSYN076AAXX  06121 15640 31698 63605 10105 20045 40259 58005 70222 82530 555 95000;EQDQ01  00002PRCP99
0150156400999992000020615004+42670+026320FM-12+025799999V0203601N003012200019N0200001N1+01101+00381102581ADDAY111031AY211031GF102991021001999999041001MD1410001+9999MW1011REMSYN076AAXX  06151 15640 41998 23603 10110 20038 40258 54000 70111 82040 555 95000;
0203156400999992000020618004+42670+026320FM-12+025799999V0202701N003012200019N0200001N1+00921+00401102621ADDAA199000091AY111061AY211061GF102991021001999999031001KA1120M+01341MD1310021+9999MW1021REMSYN086AAXX  06181 15640 31998 22703 10092 20040 40262 53002 70211 82030 333 10134 555 95000;EQDQ01  00002PRCP99
0150156400999992000020621004+42670+026320FM-12+025799999V0209999C000012200019N0200001N1+00621+00381102641ADDAY101031AY201031GF102991021001999999031001MD1410001+9999MW1021REMSYN076AAXX  06211 15640 41998 20000 10062 20038 40264 54000 70200 82030 555 95000;
0180156400999992000020700004+42670+026320FM-12+025799999V0209999C000012200019N0200001N1+00511+00341102671ADDAA199000091AY101061AY201061GF102991021001999999031001MD1410001+9999MW1021REMSYN076AAXX  07001 15640 31998 20000 10051 20034 40267 54000 70200 82030 555 95000;EQDQ01  00002PRCP99
0180156400999992000020702004+42670+026320FM-12+025799999V0209999C000012200019N0200001N1+00511+00341999999ADDAA199000091AY101999AY201999GF102991021001999999031001MD1410001+9999MW1021REMSYN076AAXX  07021 15640 31998 20000 10051 20034 4/267 54000 70200 82030 555 95000;EQDQ01  00002PRCP99
0179156400999992000020703004+42670+026320FM-12+025799999V0209999C000012200019N0200001N1+00381+00301102641ADDAY101031AY201031GA1001+999999999GF100991001001999999001001KA1999M+00911MD1810041+9999MW1011REMSYN076AAXX  07031 15640 41998 00000 10038 20030 40264 58004 70100 555 10091 29069;
0227156400999992000020706004+42670+026320FM-12+025799999V0209999C000012200019N0200001N1+00321+00251102651ADDAA199000091AY101061AY201061GA1001+999999999GF100991001001999999001001GJ101989KA1120N+00251MD1410001+9999MW1021REMSYN086AAXX  07061 15640 31998 00000 10032 20025 40265 54000 70200 333 20025 55033 555 31001;EQDQ01  00002PRCP99
0150156400999992000020709004+42670+026320FM-12+025799999V0209999C000012200019N0100001N1+00921+00481102591ADDAY101031AY201031GA1001+999999999GF100991001001999999001001MD1310011+9999MW1021REMSYN060AAXX  07091 15640 41997 00000 10092 20048 40259 53001 70200;
0180156400999992000020712004+42670+026320FM-12+025799999V0209999C000012200019N0200001N1+01481+00561102331ADDAA199000091AY101061AY201061GA1001+999999999GF100991001001999999001001MD1810191+9999MW1021REMSYN060AAXX  07121 15640 31998 00000 10148 20056 40233 58019 70200;EQDQ01  00002PRCP99
0150156400999992000020715004+42670+026320FM-12+025799999V0209999C000012200019N0200001N1+01461+00481102211ADDAY101031AY201031GA1001+999999999GF100991001001999999001001MD1710121+9999MW1021REMSYN060AAXX  07151 15640 41998 00000 10146 20048 40221 57012 70200;
0108156400999992000020716004+42670+026320FM-12+025799999V0209999C000019999999N0200001N1+01461+00481102211ADDAY101999AY201999MD1710121+9999MW1021REMSYN060AAXX  07161 15640 41998 /0000 10146 20048 40221 57012 70200;
0203156400999992000020718004+42670+026320FM-12+025799999V0209999C000012200019N0200001N1+00841+00431102281ADDAA199000091AY101061AY201061GA1001+999999999GF100991001001999999001001KA1999M+01651MD1410001+9999MW1021REMSYN070AAXX  07181 15640 31998 00000 10084 20043 40228 54000 70200 333 10165;EQDQ01  00002PRCP99
0150156400999992000020721004+42670+026320FM-12+025799999V0209999C000012200019N0200001N1+00721+00381102291ADDAY101031AY201031GA1001+999999999GF100991001001999999001001MD1010001+9999MW1021REMSYN060AAXX  07211 15640 41998 00000 10072 20038 40229 50000 70200;
0180156400999992000020800004+42670+026320FM-12+025799999V0209999C000012200019N0200001N1+00581+00321102221ADDAA199000091AY101061AY201061GA1001+999999999GF100991001001999999001001MD1810081+9999MW1021REMSYN060AAXX  08001 15640 31998 00000 10058 20032 40222 58008 70200;EQDQ01  00002PRCP99
0179156400999992000020803004+42670+026320FM-12+025799999V0209999C000012200019N0200001N1+00481+00271102131ADDAY101031AY201031GA1001+999999999GF100991001001999999001001KA1999M+00851MD1710101+9999MW1021REMSYN076AAXX  08031 15640 41998 00000 10048 20027 40213 57010 70200 555 10085 29075;
0227156400999992000020806004+42670+026320FM-12+025799999V0209999C000012200019N0200001N1+00431+00291102111ADDAA199000091AY101061AY201061GA1001+999999999GF100991001001999999001001GJ105229KA1120N+00411MD1710031+9999MW1021REMSYN086AAXX  08061 15640 31998 00000 10043 20029 40211 57003 70200 333 20041 55087 555 31001;EQDQ01  00002PRCP99
0150156400999992000020809004+42670+026320FM-12+025799999V0209999C000012200019N0200001N1+01041+00401101991ADDAY101031AY201031GF102991001001999999001011MD1710051+9999MW1031REMSYN076AAXX  08091 15640 41998 20000 10104 20040 40199 57005 70300 80001 555 95000;
0180156400999992000020812004+42670+026320FM-12+025799999V0209999C000012200019N0200001N1+01431+00611101751ADDAA199000091AY101061AY201061GF102991001001999999001011MD1710191+9999MW1021REMSYN076AAXX  08121 15640 31998 20000 10143 20061 40175 57019 70200 80001 555 95000;EQDQ01  00002PRCP99
0150156400999992000020815004+42670+026320FM-12+025799999V0209999C000012200019N0200001N1+01391+00581101591ADDAY101031AY201031GA1001+999999999GF100991001001999999001001MD1710161+9999MW1011REMSYN060AAXX  08151 15640 41998 00000 10139 20058 40159 57016 70100;
0203156400999992000020818004+42670+026320FM-12+025799999V0209999C000012200019N0200001N1+00871+00501101641ADDAA199000091AY101061AY201061GA1001+999999999GF100991001001999999001001KA1999M+01611MD1410001+9999MW1011REMSYN070AAXX  08181 15640 31998 00000 10087 20050 40164 54000 70100 333 10161;EQDQ01  00002PRCP99
0150156400999992000020821004+42670+026320FM-12+025799999V0209999C000012200019N0200001N1+00671+00461101661ADDAY101031AY201031GA1001+999999999GF100991001001999999001001MD1410001+9999MW1021REMSYN060AAXX  08211 15640 41998 00000 10067 20046 40166 54000 70200;
0180156400999992000020900004+42670+026320FM-12+025799999V0209999C000012200019N0200001N1+00531+00401101611ADDAA199000091AY101061AY201061GA1001+999999999GF100991001001999999001001MD1810071+9999MW1021REMSYN060AAXX  09001 15640 31998 00000 10053 20040 40161 58007 70200;EQDQ01  00002PRCP99
0179156400999992000020903004+42670+026320FM-12+025799999V0209999C000012200019N0200001N1+00321+00251101511ADDAY101031AY201031GA1001+999999999GF100991001001999999001001KA1999M+00861MD1710121+9999MW1021REMSYN076AAXX  09031 15640 41998 00000 10032 20025 40151 57012 70200 555 10086 29076;
0241156400999992000020906004+42670+026320FM-12+025799999V0209999C000010120019N0200001N1+00491+00411101491ADDAA199000091AY111061AY211061GF108991081051012501999999GJ105649IA1099IA2999-00409KA1120N+00261MD1410001+9999MW1031REMSYN098AAXX  09061 15640 31698 80000 10049 20041 40149 54000 70311 885// 333 20026 55094 555 31104 95000;EQDQ01  00002PRCP99
0241156400999992000020907004+42670+026320FM-12+025799999V0209999C000010120019N0200001N1+00491+00411101491ADDAA199000091AY111999AY211999GF108991081051012501999999GJ105649IA1099IA2999-00409KA1120N+00261MD1410001+9999MW1031REMSYN098AAXX  09071 15640 31698 80000 10049 20041 40149 54000 70311 885// 333 20026 55094 555 31104 95000;EQDQ01  00002PRCP99
0150156400999992000020909004+42670+026320FM-12+025799999V0209999C000010900019N0200001N1+00871+00591101451ADDAY121031AY221031GF107991041051012501001051MD1410001+9999MW1011REMSYN076AAXX  09091 15640 41698 70000 10087 20059 40145 54000 70122 84505 555 95000;
0180156400999992000020912004+42670+026320FM-12+025799999V0209999C000019999999N0200001N1+01191+00531101271ADDAA199000091AY121061AY221061GF107991001001999999001051MD1810141+9999MW1021REMSYN076AAXX  09121 15640 31998 70000 10119 20053 40127 58014 70222 80005 555 95000;EQDQ01  00002PRCP99
0150156400999992000020915004+42670+026320FM-12+025799999V0209999C000019999999N0200001N1+01211+00501101221ADDAY121031AY221031GF108991061001999999021061MD1610051+9999MW1031REMSYN076AAXX  09151 15640 41998 80000 10121 20050 40122 56005 70322 86026 555 95000;
0203156400999992000020918004+42670+026320FM-12+025799999V0209999C000012200019N0200001N1+01021+00361101301ADDAA199000091AY111061AY211061GF104991041051017501001001KA1120M+01351MD1310061+9999MW1031REMSYN086AAXX  09181 15640 31798 40000 10102 20036 40130 53006 70311 84500 333 10135 555 95000;EQDQ01  00002PRCP99
0150156400999992000020921004+42670+026320FM-12+025799999V0209999C000010150019N0200001N1+00941+00411101401ADDAY111031AY211031GF108991081051017501999999MD1210091+9999MW1031REMSYN076AAXX  09211 15640 41798 80000 10094 20041 40140 52009 70311 885// 555 95000;
0170156400999992000021000004+42670+026320FM-12+025799999V0209999C000010150019N0200001N1+00781+00451101501ADDAA199000091AY111061AY211061GF105991051051017501001001MD1210081+9999MW1011REMSYN066AAXX  10001 15640 31798 50000 10078 20045 40150 52008 70111 85500;EQDQ01  00002PRCP99
0162156400999992000021003004+42670+026320FM-12+025799999V0209999C000010120019N0200001N1+00801+00431101571ADDAY121031AY221031GF108991081051012501999999MD1210071+9999MW1031REMSYN088AAXX  10031 15640 41698 80000 10080 20043 40157 52007 70322 885// 555 10088 29076 95000;
0241156400999992000021006004+42670+026320FM-12+025799999V0203201N003010120019N0200001N1+00891+00411101741ADDAA199000091AY121061AY221061GF107991051051012501071001GJ102769IA1099IA2999+00009KA1120N+00731MD1210181+9999MW1031REMSYN098AAXX  10061 15640 31698 73203 10089 20041 40174 52018 70322 85570 333 20073 55046 555 31000 95000;EQDQ01  00002PRCP99
0150156400999992000021009004+42670+026320FM-12+025799999V0203201N005010120019N0200001N1+00961+00321102011ADDAY121031AY221031GF108991081051012501999999MD1210251+9999MW1031REMSYN076AAXX  10091 15640 41698 83205 10096 20032 40201 52025 70322 885// 555 95000;
0180156400999992000021012004+42670+026320FM-12+025799999V0203201N003010120019N0200001N1+01001+00301102091ADDAA199000091AY121061AY221061GF108991081051012501999999MD1210071+9999MW1021REMSYN076AAXX  10121 15640 31698 83203 10100 20030 40209 52007 70222 885// 555 95000;EQDQ01  00002PRCP99
0150156400999992000021015004+42670+026320FM-12+025799999V0203201N005010120019N0200001N1+00861+00271102301ADDAY121031AY221031GF108991081051012501999999MD1210201+9999MW1021REMSYN076AAXX  10151 15640 41698 83205 10086 20027 40230 52020 70222 885// 555 95000;
0203156400999992000021018004+42670+026320FM-12+025799999V0203201N005010120019N0200001N1+00741+00271102411ADDAA199000091AY121061AY221061GF108991081051012501999999KA1120M+01061MD1210091+9999MW1021REMSYN086AAXX  10181 15640 31698 83205 10074 20027 40241 52009 70222 885// 333 10106 555 95000;EQDQ01  00002PRCP99
0150156400999992000021021004+42670+026320FM-12+025799999V0209999C000010150019N0200001N1+00641+00291102501ADDAY121031AY221031GF106991051051017501031001MD1210081+9999MW1011REMSYN076AAXX  10211 15640 41798 60000 10064 20029 40250 52008 70122 85530 555 95000;
0180156400999992000021100004+42670+026320FM-12+025799999V0209999C000010120019N0200001N1+00581+00291102541ADDAA199000091AY121061AY221061GF108991081051012501999999MD1210031+9999MW1031REMSYN076AAXX  11001 15640 31698 80000 10058 20029 40254 52003 70322 885// 555 95000;EQDQ01  00002PRCP99
0162156400999992000021103004+42670+026320FM-12+025799999V0209999C000010120019N0200001N1+00501+00411102551ADDAY121031AY221031GF108991081051012501999999MD1810011+9999MW1021REMSYN088AAXX  11031 15640 41698 80000 10050 20041 40255 58001 70222 885// 555 10078 29067 95000;
0228156400999992000021106004+42670+026320FM-12+025799999V0209999C000010075019N0100001N1+00481+00431102621ADDAA112000791AY161061AY221061GF108991081061008001999999GJ100009IA1099IA2999+00009KA1120N+00461MD1310071+9999MW1211REMSYN104AAXX  11061 15640 11597 80000 10048 20043 40262 53007 69902 72162 886// 333 20046 55000 555 31000 95050;
0150156400999992000021109004+42670+026320FM-12+025799999V0209999C000010075019N0200001N1+00661+00411102651ADDAY121031AY221031GF108991081061008001999999MD1210071+9999MW1021REMSYN076AAXX  11091 15640 41598 80000 10066 20041 40265 52007 70222 886// 555 95050;
0161156400999992000021112004+42670+026320FM-12+025799999V0209999C000010075019N0200001N1+00861+00451102621ADDAA199000021AY121061AY221061GF108991081061008001999999MD1410001+9999MW1021REMSYN076AAXX  11121 15640 31598 80000 10086 20045 40262 54000 70222 886// 555 95050;
0150156400999992000021115004+42670+026320FM-12+025799999V0209999C000010075019N0200001N1+00741+00451102641ADDAY121031AY221031GF108991081061008001999999MD1410001+9999MW1021REMSYN076AAXX  11151 15640 41598 80000 10074 20045 40264 54000 70222 886// 555 95050;
0190156400999992000021118004+42670+026320FM-12+025799999V0209999C000010075019N0040001N1+00621+00461102691ADDAA112000791AY151061AY221061GF108991081061008001999999KA1120M+00891MD1310041+9999MW1511REMSYN092AAXX  11181 15640 11596 80000 10062 20046 40269 53004 69902 75152 886// 333 10089 555 95050;
0190156400999992000021119004+42670+026320FM-12+025799999V02099999999990075019N0040001N1+00621+00461102691ADDAA112000791AY151999AY221999GF108991081061008001999999KA1120M+00891MD1310041+9999MW1911REMSYN092AAXX  11191 15640 11596 8/000 10062 20046 40269 53004 69902 79152 886// 333 10089 555 95050;
0150156400999992000021121004+42670+026320FM-12+025799999V0209999C000010075019N0040001N1+00461+00341102741ADDAY151031AY221031GF108991081061008001999999MD1210021+9999MW1021REMSYN076AAXX  11211 15640 41596 80000 10046 20034 40274 52002 70252 886// 555 95050;
0130156400999992000021122004+42670+026320FM-12+025799999V0209999C000019999999N0040001N1+99999+99999102741ADDAY151999AY221999GF108991061999008001999999MW1021REMSYN070AAXX  11221 15640 41596 80000 10/46 20034 40274 70252 86/// 555 95050;
0150156400999992000021200004+42670+026320FM-12+025799999V0209999C000010075019N0100001N1+00431+00361102741ADDAY121061AY221061GF108991081061008001999999MD1410001+9999MW1021REMSYN076AAXX  12001 15640 11597 80000 10043 20036 40274 54000 70222 886// 555 95050;
0168156400999992000021203004+42670+026320FM-12+025799999V0209999C000010075019N0040001N1+00391+00341102701ADDAY121031AY221031GF108991081061008001999999MD1810401+9999MW1021REMSYN094AAXX  12031 15640 41596 80000 10039 20034 40270 58040 70222 886// 555 10059 29089 69904 95050;
0228156400999992000021206004+42670+026320FM-12+025799999V0209999C000010075019N0040001N1+00461+00401102741ADDAA112000791AY121061AY221061GF108991081061008001999999GJ100009IA1099IA2999+00009KA1120N+00371MD1310041+9999MW1021REMSYN104AAXX  12061 15640 11596 80000 10046 20040 40274 53004 69902 70222 886// 333 20037 55000 555 31100 95050;
0150156400999992000021209004+42670+026320FM-12+025799999V0209999C000010075019N0040001N1+00601+00511102721ADDAY121031AY221031GF108991081061008001999999MD1410001+9999MW1101REMSYN076AAXX  12091 15640 41596 80000 10060 20051 40272 54000 71022 886// 555 95060;
0180156400999992000021212004+42670+026320FM-12+025799999V0200901N002010075019N0200001N1+00861+00381102591ADDAA199000091AY121061AY221061GF107991071051008001001001MD1810101+9999MW1011REMSYN076AAXX  12121 15640 31598 70902 10086 20038 40259 58010 70122 87500 555 95050;EQDQ01  00002PRCP99
0150156400999992000021215004+42670+026320FM-12+025799999V0209999C000010075019N0100001N1+00741+00231102551ADDAY121031AY221031GF108991081051008001999999MD1710051+9999MW1031REMSYN076AAXX  12151 15640 41597 80000 10074 20023 40255 57005 70322 885// 555 95050;
0150156400999992000021216004+42670+026320FM-12+025799999V0209999C000010075019N0100001N1+00741+00261999999ADDAY121999AY221999GF108991081051008001999999MD1710051+9999MW1031REMSYN076AAXX  12161 15640 41597 80000 10074 20026 4095/ 57005 70322 885// 555 95050;
0203156400999992000021218004+42670+026320FM-12+025799999V0209999C000010075019N0100001N1+00501+00291102571ADDAA199000091AY121061AY221061GF108991081051008001999999KA1120M+00921MD1410001+9999MW1021REMSYN086AAXX  12181 15640 31597 80000 10050 20029 40257 54000 70222 885// 333 10092 555 95050;EQDQ01  00002PRCP99
0183156400999992000021219004+42670+026320FM-12+025799999V0209999C000010075019N0100001N1+00501+00291102571ADDAA199000091AY121999AY221999GF108991081051008001999999KA1120M+00921MW1021REMSYN080AAXX  12191 15640 31597 80000 10050 20029 40257 70222 885// 333 10092 555 95050;EQDQ01  00002PRCP99
0150156400999992000021221004+42670+026320FM-12+025799999V0209999C000010120019N0100001N1+00351+00251102651ADDAY121031AY221031GF108991081051012501999999MD1310051+9999MW1021REMSYN076AAXX  12211 15640 41697 80000 10035 20025 40265 53005 70222 885// 555 95000;
