0166167440999992000020215004+36420+025430FM-12+003699999V0202601N003612200019N0100001N1+01521+00941102171ADDGA1001+999999999GF100991001001999999001001MD1710121+9999REMSYN098AAXX  02154 16744 42960 02607 10152 20094 40217 57012 333 91110 555 40000 47666 44230 50000 50122;
0200167440999992000040809004+36420+025430FM-12+003699999V0203501N006710240019N0100001N1+01541+00641101501ADDGA1031+009009089GA2041+024009039GF105991031011008001031001MD1110091+9999REMSYN116AAXX  08094 16744 42560 53513 10154 20064 40150 51009 83130 333 83830 84358 91115 555 40000 47614 44220 50000 40110;
0202167440999992000092012004+36420+025430FM-12+003699999V0203601N003112200019N0100001N1+02821+02001101421ADDAA199000091GA1001+999999999GF100991001001999999001001MD1410001+9999REMSYN104AAXX  20124 16744 32960 03606 10282 20200 40142 54000 333 90730 91106 555 40000 47612 44240 50000 50228;EQDQ01  00002PRCP99
0156167440999992000092321004+36420+025430FM-12+003699999V0203601N003112200019N0100001N1+02301+01961101301ADDGF103991031061004501001001MD1210071+9999REMSYN104AAXX  23214 16744 42460 33606 10230 20196 40130 52007 83600 333 91112 555 40000 47602 44235 50000 50208;
0223167440999992000120318004+36420+025430FM-12+003699999V0203201N002112200019N0100001N1+01341+01051102221ADDAA199000091GF102991021011008001001001KA1120M+01601MD1410001+9999REMSYN128AAXX  03184 16744 32560 23204 10134 20105 40222 54000 82100 333 10160 90730 91106 555 10000 40105 40000 47669 44210 50000 50120;EQDQ01  00002PRCP99
