0155225290999992000032012004+64230+035880FM-12+000699999V0202001N009019999999N9999999N1+00451-00221999999ADDAY131061AY211061GF107991071999008001011001MA1999999099011MD1710121+9999MW1031REMSYN066AAXX  20121 22529 415// 72009 10045 21022 39901 57012 70331 87/10;
