0258308440999992000010100004+51350+110500FM-12+080899999V0209999C000019999999N0200001N1-02531-02641103491ADDAA112000591AJ100119199999999AY171061AY271061GF108991081001999999021999IA1239KA1120N-03271MA1999999092761MD1210071+9999MW1711REMSYN122AAXX  01001 30844 11998 80000 11253 21264 39276 40349 52007 69962 77177 8802/ 333 21327 47011 555 1/7 4 51339 53001 7996/;
0140308440999992000010106004+51350+110500FM-12+080899999V0202701N005019999999N0200001N1-02221-02401103391ADDAY171061AY271061GF108991001001999999001071MD1810071+9999MW1711REMSYN066AAXX  01061 30844 41998 82705 11222 21240 40339 58007 77177 80007;
0201308440999992000010112004+51350+110500FM-12+080899999V0202701N001019999999N0200001N1-02241-02361103471ADDAA112000891AY171061AY271061GF108991001001999999001071KA1999M-01991MA1999999092901MD1410001+9999MW1711REMSYN088AAXX  01121 30844 11998 82701 11224 21236 39290 40347 54000 69982 77177 80007 333 11199;
0140308440999992000010118004+51350+110500FM-12+080899999V0209999C000012200019N0500001N1-02671-02791103631ADDAY171061AY211061GF102991001001999999001011MD1710051+9999MW1011REMSYN066AAXX  01181 30844 41999 20000 11267 21279 40363 57005 70171 80001;
0268308440999992000010200004+51350+110500FM-12+080899999V0209999C000012200019N0500001N1-03951-04101104171ADDAA112000591AJ100129199999999AY171061AY201061GA1001+999999999GF100991001001999999001001IA1239KA1120N-04031MA1999999092751MD1710021+9999MW1761REMSYN116AAXX  02001 30844 11999 00000 11395 21410 39275 40417 57002 69942 77670 333 21403 47012 555 1/144 51253 53004 7001/;
0150308440999992000010206004+51350+110500FM-12+080899999V0209999C000012200019N0500001N1-02911-03221103501ADDAY171061AY201061GA1001+999999999GF100991001001999999001001MD1810191+9999MW1021REMSYN060AAXX  02061 30844 41999 00000 11291 21322 40350 58019 70270;
0221308440999992000010212004+51350+110500FM-12+080899999V0209999C000012200019N0500001N1-03921-04051103841ADDAA106000021AY171061AY201061GA1001+999999999GF100991001001999999001001KA1120M-02911MA1999999092481MD1710011+9999MW1761REMSYN092AAXX  02121 30844 31999 00000 11392 21405 39248 40384 57001 77670 333 11291 555 1/145 53801;
0150308440999992000010218004+51350+110500FM-12+080899999V0209999C000012200019N0500001N1-04341-04561103941ADDAY171061AY271061GA1001+999999999GF100991001001999999001001MD1710101+9999MW1761REMSYN060AAXX  02181 30844 41999 00000 11434 21456 40394 57010 77677;
0217308440999992000010300004+51350+110500FM-12+080899999V0209999C000012200019N0500001N1-04271-04441103851ADDAA106000021AY171061AY271061GA1001+999999999GF100991001001999999001001IA1239KA1120N-04471MA1999999092331MD1310031+9999MW1761REMSYN082AAXX  03001 30844 31999 00000 11427 21444 39233 40385 53003 77677 333 21447 47012;
0150308440999992000010306004+51350+110500FM-12+080899999V0209999C000012200019N0500001N1-03181-03411103231ADDAY171061AY201061GA1001+999999999GF100991001001999999001001MD1810151+9999MW1021REMSYN060AAXX  03061 30844 41999 00000 11318 21341 40323 58015 70270;
0221308440999992000010312004+51350+110500FM-12+080899999V0209999C000012200019N0500001N1-03951-04101103721ADDAA106000021AY171061AY201061GA1001+999999999GF100991001001999999001001KA1120M-03181MA1999999092351MD1210051+9999MW1761REMSYN092AAXX  03121 30844 31999 00000 11395 21410 39235 40372 52005 77670 333 11318 555 1/143 53001;
0150308440999992000010318004+51350+110500FM-12+080899999V0209999C000012200019N0500001N1-04331-04561104301ADDAY171061AY271061GA1001+999999999GF100991001001999999001001MD1210121+9999MW1761REMSYN060AAXX  03181 30844 41999 00000 11433 21456 40430 52012 77677;
0187308440999992000010400004+51350+110500FM-12+080899999V0209999C000019999999N0500001N1-04031-04201104371ADDAA106000021AY171061AY211061GF105991021001999999041011IA1239KA1120N-04421MA1999999092901MW1011REMSYN082AAXX  04001 30844 31999 50000 11403 21420 39290 40437 70171 82041 333 21442 47012;
0140308440999992000010406004+51350+110500FM-12+080899999V0209999C000012200019N0500001N1-03021-03391103911ADDAY141061AY201061GF103991001001999999001011MD1810131+9999MW1021REMSYN066AAXX  04061 30844 41999 30000 11302 21339 40391 58013 70240 80001;
0205308440999992000010412004+51350+110500FM-12+080899999V0209999C000012200019N0500001N1-03861-04011104591ADDAA106000021AY171061AY211061GA1001+999999999GF100991001001999999001001KA1999M-02981MA1999999093171MD1210161+9999MW1761REMSYN076AAXX  04121 30844 31999 00000 11386 21401 39317 40459 52016 77671 333 11298;
0150308440999992000010418004+51350+110500FM-12+080899999V0209999C000012200019N0500001N1-04081-04261104871ADDAY171061AY271061GA1001+999999999GF100991001001999999001001MD1210081+9999MW1761REMSYN060AAXX  04181 30844 41999 00000 11408 21426 40487 52008 77677;
0217308440999992000010500004+51350+110500FM-12+080899999V0209999C000012200019N0500001N1-04351-04561105121ADDAA106000021AY171061AY271061GA1001+999999999GF100991001001999999001001IA1239KA1120N-04401MA1999999093421MD1210021+9999MW1761REMSYN082AAXX  05001 30844 31999 00000 11435 21456 39342 40512 52002 77677 333 21440 47012;
0140308440999992000010506004+51350+110500FM-12+080899999V0202701N002012200019N0500001N1-02921-03091104251ADDAY171061AY241061GF103991001001999999001011MD1810281+9999MW1031REMSYN066AAXX  05061 30844 41999 32702 11292 21309 40425 58028 70374 80001;
0217308440999992000010512004+51350+110500FM-12+080899999V0202701N004019999999N0100001N1-02881-03051104291ADDAA112000191AY171061AY211061GF108991001001999999001071KA1120M-02761MA1999999093341MD1210021+9999MW1711REMSYN104AAXX  05121 30844 11997 82704 11288 21305 39334 40429 52002 69922 77171 80007 333 11276 555 1/129 53006;
0120308440999992000010518004+51350+110500FM-12+080899999V0202701N002019999999N0200001N1-02881-03051104201ADDAY171061AY271061GF108991081001999999011999MW1711REMSYN060AAXX  05181 30844 41998 82702 11288 21305 40420 77177 8801/;
0112308440999992000010606004+51350+110500FM-12+080899999V0202701N004019999999N0500001N1-02611-02921103771ADDGF105991001001999999001011MD1810271+9999REMSYN060AAXX  06061 30844 42999 52704 11261 21292 40377 58027 80001;
0202308440999992000010612004+51350+110500FM-12+080899999V0202701N003012200019N0500001N1-03021-03191103971ADDAA106000091GF102991001001999999001011KA1120M-02591MA1999999092991MD1810021+9999REMSYN092AAXX  06121 30844 32999 22703 11302 21319 39299 40397 58002 80001 333 11259 555 1/135 53006;EQDQ01  00002PRCP06
0122308440999992000010618004+51350+110500FM-12+080899999V0209999C000012200019N0500001N1-03871-04011104201ADDGA1001+999999999GF100991001001999999001001MD1710081+9999REMSYN054AAXX  06181 30844 42999 00000 11387 21401 40420 57008;
0217308440999992000010700004+51350+110500FM-12+080899999V0209999C000012200019N0500001N1-04051-04201104181ADDAA106000021AY171061AY201061GA1001+999999999GF100991001001999999001001IA1239KA1120N-04071MA1999999092721MD1710031+9999MW1761REMSYN082AAXX  07001 30844 31999 00000 11405 21420 39272 40418 57003 77670 333 21407 47012;
0150308440999992000010706004+51350+110500FM-12+080899999V0202701N002012200019N0500001N1-02881-03121103281ADDAY141061AY201061GA1001+999999999GF100991001001999999001001MD1710201+9999MW1021REMSYN060AAXX  07061 30844 41999 02702 11288 21312 40328 5702/ 70240;
0196308440999992000010712004+51350+110500FM-12+080899999V0209999C000012200019N0500001N1-03511-03671103521ADDAA106000091GA1001+999999999GF100991001001999999001001KA1999M-02841MA1999999092371MD1710041+9999REMSYN070AAXX  07121 30844 32999 00000 11351 21367 39237 40352 57004 333 11284;EQDQ01  00002PRCP06
0150308440999992000010718004+51350+110500FM-12+080899999V0209999C000012200019N0500001N1-04091-04261103081ADDAY171061AY201061GA1001+999999999GF100991001001999999001001MD1810031+9999MW1761REMSYN060AAXX  07181 30844 41999 00000 11409 21426 40308 58003 77670;
0217308440999992000010800004+51350+110500FM-12+080899999V0209999C000012200019N0500001N1-04411-04631103871ADDAA106000021AY171061AY271061GA1001+999999999GF100991001001999999001001IA1239KA1120N-04501MA1999999092271MD1710081+9999MW1761REMSYN082AAXX  08001 30844 31999 00000 11441 21463 39227 40387 57008 77677 333 21450 47012;
0150308440999992000010806004+51350+110500FM-12+080899999V0209999C000012200019N0500001N1-03161-03451103031ADDAY171061AY241061GA1001+999999999GF100991001001999999001001MD1710161+9999MW1021REMSYN060AAXX  08061 30844 41999 00000 11316 21345 40303 57016 70274;
0211308440999992000010812004+51350+110500FM-12+080899999V0209999C000012200019N0500001N1-03781-03931103521ADDAA106000021AY171061AY201061GF101991001001999999001011KA1120M-02761MA1999999092251MD1210121+9999MW1761REMSYN098AAXX  08121 30844 31999 10000 11378 21393 39225 40352 52012 77670 80001 333 11276 555 1/143 53001;
0150308440999992000010818004+51350+110500FM-12+080899999V0209999C000012200019N0500001N1-04061-04201103771ADDAY171061AY271061GA1001+999999999GF100991001001999999001001MD1210031+9999MW1761REMSYN060AAXX  08181 30844 41999 00000 11406 21420 40377 52003 77677;
0217308440999992000010900004+51350+110500FM-12+080899999V0209999C000012200019N0500001N1-04341-04561104101ADDAA106000021AY171061AY271061GA1001+999999999GF100991001001999999001001IA1239KA1120N-04361MA1999999092521MD1210051+9999MW1761REMSYN082AAXX  09001 30844 31999 00000 11434 21456 39252 40410 52005 77677 333 21436 47012;
0221308440999992000010912004+51350+110500FM-12+080899999V0209999C000012200019N0500001N1-03721-03881103731ADDAA106000021AY171061AY201061GA1001+999999999GF100991001001999999001001KA1120M-02781MA1999999092471MD1210071+9999MW1761REMSYN092AAXX  09121 30844 31999 00000 11372 21388 39247 40373 52007 77670 333 11278 555 1/141 53001;
0150308440999992000010918004+51350+110500FM-12+080899999V0209999C000012200019N0500001N1-04021-04151104111ADDAY171061AY271061GA1001+999999999GF100991001001999999001001MD1210131+9999MW1761REMSYN060AAXX  09181 30844 41999 00000 11402 21415 40411 52013 77677;
0196308440999992000011000004+51350+110500FM-12+080899999V0209999C000012200019N0500001N1-03391-04151104541ADDAY171061AY271061GF102991001001999999001011IA1239KA1120N-04121MA1999999093061MD1210151+9999MW1761REMSYN088AAXX  10001 30844 41999 20000 11339 21415 39306 40454 52015 77677 80001 333 21412 47012;
0150308440999992000011006004+51350+110500FM-12+080899999V0209999C000012200019N0500001N1-02761-03131104281ADDAY171061AY241061GA1001+999999999GF100991001001999999001001MD1210011+9999MW1021REMSYN060AAXX  10061 30844 41999 00000 11276 21313 40428 52001 70274;
0212308440999992000011012004+51350+110500FM-12+080899999V0209999C000012200019N0500001N1-03571-03741104821ADDAA106000091GA1001+999999999GF100991001001999999001001KA1120M-02701MA1999999093511MD1210131+9999REMSYN086AAXX  10121 30844 32999 00000 11357 21374 39351 40482 52013 333 11270 555 1/139 53001;EQDQ01  00002PRCP06
0150308440999992000011018004+51350+110500FM-12+080899999V0209999C000012200019N0500001N1-03791-03971105011ADDAY171061AY201061GA1001+999999999GF100991001001999999001001MD1210041+9999MW1761REMSYN060AAXX  10181 30844 41999 00000 11379 21397 40501 52004 77670;
0217308440999992000011100004+51350+110500FM-12+080899999V0209999C000012200019N0500001N1-03991-04151105101ADDAA106000021AY171061AY271061GA1001+999999999GF100991001001999999001001IA1239KA1120N-04071MA1999999093561MD1810051+9999MW1761REMSYN082AAXX  11001 30844 31999 00000 11399 21415 39356 40510 58005 77677 333 21407 47012;
0140308440999992000011106004+51350+110500FM-12+080899999V0209999C000012200019N0500001N1-02411-02811104091ADDAY171061AY241061GF101991001001999999001011MD1810211+9999MW1031REMSYN066AAXX  11061 30844 41999 10000 11241 21281 40409 58021 70374 80001;
0196308440999992000011112004+51350+110500FM-12+080899999V0209999C000012200019N0500001N1-03381-03551104551ADDAA106000091GA1001+999999999GF100991001001999999001001KA1999M-02201MA1999999093351MD1310071+9999REMSYN070AAXX  11121 30844 32999 00000 11338 21355 39335 40455 53007 333 11220;EQDQ01  00002PRCP06
0122308440999992000011118004+51350+110500FM-12+080899999V0209999C000012200019N0500001N1-03811-03971104621ADDGA1001+999999999GF100991001001999999001001MD1710091+9999REMSYN054AAXX  11181 30844 42999 00000 11381 21397 40462 57009;
0217308440999992000011200004+51350+110500FM-12+080899999V0209999C000012200019N0500001N1-04061-04261104671ADDAA106000021AY171061AY201061GA1001+999999999GF100991001001999999001001IA1239KA1120N-04101MA1999999093151MD1710041+9999MW1761REMSYN082AAXX  12001 30844 31999 00000 11406 21426 39315 40467 57004 77670 333 21410 47012;
0150308440999992000011206004+51350+110500FM-12+080899999V0209999C000012200019N0500001N1-02511-02901103491ADDAY171061AY201061GA1001+999999999GF100991001001999999001001MD1710291+9999MW1011REMSYN060AAXX  12061 30844 41999 00000 11251 21290 40349 57029 70170;
0196308440999992000011212004+51350+110500FM-12+080899999V0209999C000012200019N0500001N1-03391-03551103751ADDAA106000091GA1001+999999999GF100991001001999999001001KA1999M-02311MA1999999092631MD1710051+9999REMSYN070AAXX  12121 30844 32999 00000 11339 21355 39263 40375 57005 333 11231;EQDQ01  00002PRCP06
0150308440999992000011218004+51350+110500FM-12+080899999V0209999C000012200019N0500001N1-03591-03741103581ADDAY171061AY201061GA1001+999999999GF100991001001999999001001MD1710131+9999MW1761REMSYN060AAXX  12181 30844 41999 00000 11359 21374 40358 57013 77670;
0201308440999992000011300004+51350+110500FM-12+080899999V0209999C000012200019N0500001N1-03531-03711103411ADDAA106000021AY171061AY271061GF102991999999999999999999IA1239KA1120N-03631MA1999999092261MD1710041+9999MW1761REMSYN082AAXX  13001 30844 31999 20000 11353 21371 39226 40341 57004 77677 333 21363 47012;
0196308440999992000011312004+51350+110500FM-12+080899999V0209999C000012200019N0500001N1-03311-03471103261ADDAA106000091GA1001+999999999GF100991001001999999001001KA1999M-02411MA1999999092231MD1310121+9999REMSYN070AAXX  13121 30844 32999 00000 11331 21347 39223 40326 53012 333 11241;EQDQ01  00002PRCP06
0150308440999992000011318004+51350+110500FM-12+080899999V0209999C000012200019N0500001N1-03771-03931103611ADDAY171061AY201061GA1001+999999999GF100991001001999999001001MD1210011+9999MW1761REMSYN060AAXX  13181 30844 41999 00000 11377 21393 40361 52001 77670;
0228308440999992000011400004+51350+110500FM-12+080899999V0209999C000019999999N0500001N1-03871-04011103861ADDAA199000021AJ100129199999999AY171061AY271061GF105991051001999999031001IA1239KA1120N-03961MA1999999092521MD1210111+9999MW1761REMSYN092    AAXX  14001 30844 31999 50000 11387 21401 39252 40386 52011 77677 85030 333 21396 47012;
0116308440999992000011406004+51350+110500FM-12+080899999V0209999C000012200019N0500001N1-02681-03001103281ADDGF103991001001999999001011MD1810121+9999REMSYN064    AAXX  14061 30844 42999 30000 11268 21300 40328 58012 80001;
0187308440999992000011412004+51350+110500FM-12+080899999V0209999C000012200019N0500001N1-03211-03311103831ADDAA199000021GF102991001001999999001011KA1120M-02681MA1999999092781MD1210161+9999REMSYN096    AAXX  14121 30844 32999 20000 11321 21331 39278 40383 52016 80001 333 11268 555 1/137 53001;
0154308440999992000011418004+51350+110500FM-12+080899999V0209999C000012200019N0500001N1-03781-03931104331ADDAY171061AY201061GA1001+999999999GF100991001001999999001001MD1210051+9999MW1761REMSYN064    AAXX  14181 30844 41999 00000 11378 21393 40433 52005 77670;
0218308440999992000011500004+51350+110500FM-12+080899999V0209999C000012200019N0500001N1-03971-04101104571ADDAA199000021AJ100129199999999AY171061AY271061GA1001+999999999GF100991001001999999001001IA1239KA1120N-04021MA1999999093101MW1761REMSYN080    AAXX  15001 30844 31999 00000 11397 21410 39310 40457 77677 333 21402 47012;
0154308440999992000011506004+51350+110500FM-12+080899999V0209999C000012200019N0500001N1-02351-02671103691ADDAY171061AY201061GA1001+999999999GF100991001001999999001001MD1810161+9999MW1021REMSYN064    AAXX  15061 30844 41999 00000 11235 21267 40369 58016 70270;
0197308440999992000011512004+51350+110500FM-12+080899999V0209999C000012200019N0500001N1-03161-03321104121ADDAA199000021GA1001+999999999GF100991001001999999001001KA1120M-01841MA1999999093061MD1310051+9999REMSYN090    AAXX  15121 30844 32999 00000 11316 21332 39306 40412 53005 333 11184 555 1/137 53001;
0116308440999992000011518004+51350+110500FM-12+080899999V0209999C000012200019N0500001N1-03621-03781104251ADDGF102991001001999999001011MD1710071+9999REMSYN064    AAXX  15181 30844 42999 20000 11362 21378 40425 57007 80001;
0228308440999992000011600004+51350+110500FM-12+080899999V0209999C000012200019N0500001N1-03531-03711103981ADDAA199000021AJ100129199999999AY171061AY201061GF102991001001999999001011IA1239KA1120N-03641MA1999999092771MD1710021+9999MW1761REMSYN092    AAXX  16001 30844 31999 20000 11353 21371 39277 40398 57002 77670 80001 333 21364 47012;
0144308440999992000011606004+51350+110500FM-12+080899999V0209999C000019999999N0500001N1-02511-02751103251ADDAY171061AY211061GF108991001001999999001071MD1710161+9999MW1031REMSYN070    AAXX  16061 30844 41999 80000 11251 21275 40325 57016 70371 80007;
0197308440999992000011612004+51350+110500FM-12+080899999V0209999C000012200019N0500001N1-03241-03361103571ADDAA199000021GA1001+999999999GF100991001001999999001001KA1120M-02141MA1999999092541MD1310051+9999REMSYN090    AAXX  16121 30844 32999 00000 11324 21336 39254 40357 53005 333 11214 555 1/136 53001;
0148308440999992000011618004+51350+110500FM-12+080899999V0209999C000012200019N0500001N1-03751-03931999999ADDAY171061AY201061GA1001+999999999GF100991001001999999001001MD1410001+9999MW1761REMSYN058    AAXX  16181 30844 41999 00000 11375 21393 54000 77670;
0228308440999992000011700004+51350+110500FM-12+080899999V0209999C000012200019N0500001N1-03941-04101104031ADDAA199000021AJ100129199999999AY171061AY271061GF102991001001999999001011IA1239KA1120N-03941MA1999999092641MD1310071+9999MW1661REMSYN092    AAXX  17001 30844 31999 20000 11394 21410 39264 40403 53007 76677 80001 333 21394 47012;
0144308440999992000011706004+51350+110500FM-12+080899999V0202701N002019999999N0500001N1-02331-02581103281ADDAY171061AY211061GF105991001001999999001061MD1810081+9999MW1031REMSYN070    AAXX  17061 30844 41999 52702 11233 21258 40328 58008 70371 80006;
0205308440999992000011712004+51350+110500FM-12+080899999V0209999C000019999999N0500001N1-02711-02821103801ADDAA112000791AY171061AY221061GF108991001001999999001071KA1999M-02041MA1999999092971MD1210211+9999MW1011REMSYN092    AAXX  17121 30844 11999 80000 11271 21282 39297 40380 52021 69902 70172 80007 333 11204;
0116308440999992000011718004+51350+110500FM-12+080899999V0209999C000019999999N0500001N1-03311-03411104341ADDGF108991031001999999031071MD1210061+9999REMSYN064    AAXX  17181 30844 42999 80000 11331 21341 40434 52006 83037;
0247308440999992000011800004+51350+110500FM-12+080899999V0209999C000012200019N0500001N1-03721-03881104651ADDAA199000091AJ100129199999999GF103991001001999999001011IA1239KA1120N-03771MA1999999093291MD1210081+9999REMSYN114    AAXX  18001 30844 32999 30000 11372 21388 39329 40465 52008 80001 333 21377 47012 555 1/138 51319 53002 7990/;EQDQ01  00002PRCP99
0144308440999992000011806004+51350+110500FM-12+080899999V0209999C000019999999N0500001N1-02131-02381103701ADDAY171061AY211061GF105991001001999999001011MD1810181+9999MW1071REMSYN070    AAXX  18061 30844 41999 50000 11213 21238 40370 58018 70771 80001;
0196308440999992000011812004+51350+110500FM-12+080899999V0209999C000019999999N0500001N1-02421-02531103671ADDAA112000891GF108991081001999999031071KA1120M-02001MA1999999092971MD1710061+9999REMSYN105    AAXX  18121 30844 12999 80000 11242 21253 39297 40367 57006 69982 88037 333 11200 555 1/131 53001 /-;
0144308440999992000011818004+51350+110500FM-12+080899999V0209999C000012200019N0500001N1-03411-03531104121ADDAY171061AY211061GF102991001001999999001011MD1810031+9999MW1761REMSYN070    AAXX  18181 30844 41999 20000 11341 21353 40412 58003 77671 80001;
0238308440999992000011900004+51350+110500FM-12+080899999V0209999C000012200019N0500001N1-04041-04201104531ADDAA199000021AJ100129199999999AY171061AY271061GA1001+999999999GF100991001001999999001001IA1239KA1120N-04071MA1999999093041MD1210061+9999MW1761REMSYN086    AAXX  19001 30844 31999 00000 11404 21420 39304 40453 52006 77677 333 21407 47012;
0144308440999992000011906004+51350+110500FM-12+080899999V0209999C000012200019N0500001N1-02681-03001103751ADDAY171061AY201061GF102991001001999999001011MD1810191+9999MW1031REMSYN070    AAXX  19061 30844 41999 20000 11268 21300 40375 58019 70370 80001;
0197308440999992000011912004+51350+110500FM-12+080899999V0209999C000012200019N0500001N1-03401-03551104041ADDAA199000021GA1001+999999999GF100991001001999999001001KA1120M-02651MA1999999092981MD1310061+9999REMSYN090    AAXX  19121 30844 32999 00000 11340 21355 39298 40404 53006 333 11265 555 1/137 53001;
0131308440999992000011918004+51350+110500FM-12+080899999V0209999C000019999999N0500001N1-03341-03441104131ADDGF106991999001999999031001MD1810061+9999REMSYN060AAXX  19181 30844 42999 60000 11334 21344 40413 58006 85030;EQDQ01+000052SCOTLC
0243308440999992000012000004+51350+110500FM-12+080899999V0209999C000019999999N0500001N1-03351-03471104191ADDAA199000091AJ100129199999999GF105991021001999999031011IA1239KA1120N-03601MA1999999093001MD1410001+9999REMSYN110AAXX  20001 30844 32999 50000 11335 21347 39300 40419 54000 82031 333 21360 47012 555 1/134 51334 53001 7000/;EQDQ01  00002PRCP99
0112308440999992000012006004+51350+110500FM-12+080899999V0209999C000012200019N0500001N1-02271-02521103581ADDGF102991001001999999001071MD1810131+9999REMSYN060AAXX  20061 30844 42999 20000 11227 21252 40358 58013 80007;
0122308440999992000012009004+51350+110500FM-12+080899999V0202201N001012200019N0120001N1-01721-02291103761ADDGA1001+999999999GF100991001001999999001001MD1210081+9999REMSYN054AAXX  20091 30844 42962 02201 11172 21229 40376 52008;
0196308440999992000012012004+51350+110500FM-12+080899999V0209999C000012200019N0500001N1-02881-02991104021ADDAA199000091GA1001+999999999GF100991001001999999001001KA1999M-01811MA1999999093091MD1210121+9999REMSYN070AAXX  20121 30844 32999 00000 11288 21299 39309 40402 52012 333 11181;EQDQ01  00002PRCP99
0122308440999992000012018004+51350+110500FM-12+080899999V0209999C000012200019N0500001N1-03321-03501104301ADDGA1001+999999999GF100991001001999999001001MD1210031+9999REMSYN054AAXX  20181 30844 42999 00000 11332 21350 40430 52003;
0243308440999992000012100004+51350+110500FM-12+080899999V0209999C000012200019N0500001N1-03561-03711104511ADDAA199000021AJ100129199999999AY171061AY201061GF102991001001999999001011IA1239KA1120N+99999MA1999999093241MD1210051+9999MW1761REMSYN088AAXX  21001 30844 31999 20000 11356 21371 39324 40451 52005 77670 80001 333 21335 47012;EQDQ01 -03352ATMN  
0140308440999992000012106004+51350+110500FM-12+080899999V0209999C000019999999N0500001N1-01931-02261103601ADDAY171061AY211061GF105991001001999999001011MD1810161+9999MW1031REMSYN066AAXX  21061 30844 41999 50000 11193 21226 40360 58016 70371 80001;
0183308440999992000012112004+51350+110500FM-12+080899999V0209999C000019999999N0500001N1-02951-03071104141ADDAA199000021GF105991001001999999001061KA1120M-01921MA1999999093161MD1310101+9999REMSYN092AAXX  21121 30844 32999 50000 11295 21307 39316 40414 53010 80006 333 11192 555 1/132 53001;
0140308440999992000012118004+51350+110500FM-12+080899999V0209999C000019999999N0500001N1-02911-03031104131ADDAY171061AY221061GF108991001001999999001071MD1410001+9999MW1711REMSYN066AAXX  21181 30844 41999 80000 11291 21303 40413 54000 77172 80007;
0230308440999992000012200004+51350+110500FM-12+080899999V0209999C000019999999N0200001N1-03111-03221104331ADDAA112000191AJ100129199999999AY171061AY271061GF108991001001999999001071IA1239KA1120N-03211MA1999999093271MD1210041+9999MW1711REMSYN094AAXX  22001 30844 11998 80000 11311 21322 39327 40433 52004 69922 77177 80007 333 21321 47012;
0118308440999992000012206004+51350+110500FM-12+080899999V0209999C000019999999N0200001N1-02031-02281104071ADDGF108991071011999999071071MD1210011+9999REMSYN066AAXX  22061 30844 41998 80000 11203 21228 40407 52001 87177 82037;
0195308440999992000012212004+51350+110500FM-12+080899999V0209999C000019999999N0200001N1-02461-02571104581ADDAA112000591GF108991081001999999011999KA1120M-01971MA1999999093761MD1210231+9999REMSYN104AAXX  22121 30844 1/998 80000 11246 21257 39376 40458 52023 69942 77172 8801/ 333 11197 555 1/128 53001;
0140308440999992000012218004+51350+110500FM-12+080899999V0209999C000019999999N0500001N1-03511-03671105481ADDAY171061AY271061GF105991021001999999041011MD1210151+9999MW1011REMSYN066AAXX  22181 30844 41999 50000 11351 21367 40548 52015 70177 82041;
0268308440999992000012300004+51350+110500FM-12+080899999V0209999C000012200019N0500001N1-04091-04261106151ADDAA112000791AJ100129199999999AY171061AY211061GA1001+999999999GF100991001001999999001001IA1239KA1120N-04121MA1999999094451MD1210111+9999MW1761REMSYN116AAXX  23001 30844 11999 00000 11409 21426 39445 40615 52011 69902 77671 333 21412 47012 555 1/142 51263 53001 7994/;
0140308440999992000012306004+51350+110500FM-12+080899999V0202701N004012200019N0500001N1-02211-02471105131ADDAY171061AY241061GF103991001001999999001011MD1810221+9999MW1031REMSYN066AAXX  23061 30844 41999 32704 11221 21247 40513 58022 70374 80001;
0146308440999992000012312004+51350+110500FM-12+080899999V0202701N004012200019N0500001N1-02091-02281105001ADDAA199000021GF103991031001999999031001KA1999M-01881MD1410001+9999REMSYN070AAXX  23121 30844 32999 32704 11209 21228 40500 54000 83030 333 11188;
0122308440999992000012318004+51350+110500FM-12+080899999V0209999C000012200019N0500001N1-03311+99999105721ADDGA1001+999999999GF100991001001999999001001MD1210111+9999REMSYN054AAXX  23181 30844 42999 00000 11331 21241 40572 52011;
0232308440999992000012400004+51350+110500FM-12+080899999V0209999C000012200019N0500001N1-03641-03811106051ADDAA199000091AJ100129199999999GA1001+999999999GF100991001001999999001001IA1239KA1120N-03671MD1210071+9999REMSYN098AAXX  24001 30844 32999 00000 11364 21381 40605 52007 333 21367 47012 555 1/139 51305 53001 7000/;EQDQ01  00002PRCP99
0141308440999992000012406004+51350+110500FM-12+080899999V0202701N002012200019N0500001N1-01772-02102105202ADDGA1001+999999999GF100991001001999999001001MD1810111+9999REMSYN054AAXX  24061 30844 42999 02702 11177 21210 40520 58011;EQDQ01+105203APOSLP
0196308440999992000012412004+51350+110500FM-12+080899999V0209999C000012200019N0500001N1-02531-02701105631ADDAA199000091GA1001+999999999GF100991001001999999001001KA1999M-01761MA1999999094681MD1210011+9999REMSYN070AAXX  24121 30844 32999 00000 11253 21270 39468 40563 52001 333 11176;EQDQ01  00002PRCP99
0122308440999992000012418004+51350+110500FM-12+080899999V0209999C000012200019N0500001N1-03041-03151105741ADDGA1001+999999999GF100991001001999999001001MD1710091+9999REMSYN054AAXX  24181 30844 42999 00000 11304 21315 40574 57009;
0225308440999992000012500004+51350+110500FM-12+080899999V0209999C000012200019N0500001N1-03441-03611105991ADDAA199000091AJ100129199999999GA1001+999999999GF100991001001999999001001IA1239KA1120N-03461MA1999999094611MD1310031+9999REMSYN076AAXX  25001 30844 32999 00000 11344 21361 39461 40599 53003 333 21346 47012;EQDQ01  00002PRCP99
0141308440999992000012506004+51350+110500FM-12+080899999V0202301N002012200019N0500001N1-01572-02081105142ADDGA1001+999999999GF100991001001999999001001MD1810061+9999REMSYN054AAXX  25061 30844 42999 02302 11157 21208 40514 58006;EQDQ01+105143APOSLP
0199308440999992000012512004+51350+110500FM-12+080899999V0209999C000012200019N0500001N1-02761-02871105781ADDAA199000091GA1001+999999999GF100991001001999999001001MA1999999094721MD1310111+9999REMSYN086AAXX  25121 30844 32999 00000 11276 21287 39472 40578 53011 333 17/// 555 1/13- 5 0#4;EQDQ01  00002PRCP99
0122308440999992000012518004+51350+110500FM-12+080899999V0209999C000012200019N0500001N1-03441-03611106131ADDGA1001+999999999GF100991001001999999001001MD1810041+9999REMSYN054AAXX  25181 30844 42999 00000 11344 21361 40613 58004;
0234308440999992000012600004+51350+110500FM-12+080899999V0209999C000012200019N0500001N1-03741-03881106171ADDAA199000021AJ100129199999999AY171061AY201061GA1001+999999999GF100991001001999999001001IA1239KA1120N-03771MA1999999094641MD1710031+9999MW1761REMSYN082AAXX  26001 30844 31999 00000 11374 21388 39464 40617 57003 77670 333 21377 47012;
0150308440999992000012606004+51350+110500FM-12+080899999V0209999C000012200019N0500001N1-02101-02591104961ADDAY171061AY201061GA1001+999999999GF100991001001999999001001MD1710061+9999MW1021REMSYN060AAXX  26061 30844 41999 00000 11210 21259 40496 57006 70270;
0193308440999992000012612004+51350+110500FM-12+080899999V0209999C000012200019N0500001N1-02861+99999104821ADDAA199000021GA1001+999999999GF100991001001999999001001KA1120M-02001MA1999999093821MD1710241+9999REMSYN086AAXX  26121 30844 32999 00000 11286 21/97 39382 40482 57024 333 11200 555 1/134 53001;
0122308440999992000012618004+51350+110500FM-12+080899999V0209999C000012200019N0500001N1-03441-03611104891ADDGA1001+999999999GF100991001001999999001001MD1710091+9999REMSYN054AAXX  26181 30844 42999 00000 11344 21361 40489 57009;
0234308440999992000012700004+51350+110500FM-12+080899999V0209999C000012200019N0500001N1-03731-03881104821ADDAA199000021AJ100129199999999AY181061AY201061GA1001+999999999GF100991001001999999001001IA1239KA1120N-03771MA1999999093441MD1710081+9999MW1761REMSYN082AAXX  27001 30844 31999 00000 11373 21388 39344 40482 57008 77680 333 21377 47012;
0140308440999992000012706004+51350+110500FM-12+080899999V0202701N002012200019N0500001N1-01522-02031103622ADDAY171061AY201061GF102991001001999999001011MD1710161+9999MW1021REMSYN066AAXX  27061 30844 41999 22702 11152 21203 40362 57016 70270 80001;
0183308440999992000012712004+51350+110500FM-12+080899999V0202701N002012200019N0500001N1-01741-02001103881ADDAA199000021GF103991001001999999001011KA1120M-01361MA1999999093431MD1210121+9999REMSYN092AAXX  27121 30844 32999 32702 11174 21200 39343 40388 52012 80001 333 11136 555 1/123 13005;
0112308440999992000012718004+51350+110500FM-12+080899999V0202701N002012200019N0500001N1-02101-02221104131ADDGF102991001001999999001011MD1810021+9999REMSYN060AAXX  27181 30844 42999 22702 11210 21222 40413 58002 80001;
0215308440999992000012800004+51350+110500FM-12+080899999V0202701N001012200019N0500001N1-02351-02461104361ADDAA199000091AJ100129199999999GF103991001001999999001011IA1239KA1120N-02401MA1999999093621MD1210041+9999REMSYN082AAXX  28001 30844 32999 32701 11235 21246 39362 40436 52004 80001 333 21240 47012;EQDQ01  00002PRCP99
0112308440999992000012806004+51350+110500FM-12+080899999V0202901N006012200019N0500001N1-01521-01941104181ADDGF103991011021012501001031MD1810021+9999REMSYN060AAXX  28061 30844 42699 32906 11152 21194 40418 58002 81203;
0201308440999992000012812004+51350+110500FM-12+080899999V0202901N004012200019N0500001N1-01941-02201104651ADDAA112000791AY181061AY211061GF102991001001999999001011KA1999M-01461MA1999999094041MD1210141+9999MW1011REMSYN088AAXX  28121 30844 11999 22904 11194 21220 39404 40465 52014 69902 70181 80001 333 11146;
0122308440999992000012818004+51350+110500FM-12+080899999V0209999C000012200019N0500001N1-03171-03291105401ADDGA1001+999999999GF100991001001999999001001MD1210041+9999REMSYN054AAXX  28181 30844 42999 00000 11317 21329 40540 52004;
0225308440999992000012900004+51350+110500FM-12+080899999V0202701N001012200019N0500001N1-03501-03621105761ADDAA199000091AJ100129199999999GA1001+999999999GF100991001001999999001001IA1239KA1120N-03621MA1999999094381MD1210081+9999REMSYN076AAXX  29001 30844 32999 02701 11350 21362 39438 40576 52008 333 21362 47012;EQDQ01  00002PRCP99
0150308440999992000012906004+51350+110500FM-12+080899999V0202901N003012200019N0500001N1-01772-02101105001ADDAY171061AY201061GA1001+999999999GF100991001001999999001001MD1810051+9999MW1021REMSYN060AAXX  29061 30844 41999 02903 11177 21210 40500 58005 70270;
0196308440999992000012912004+51350+110500FM-12+080899999V0209999C000012200019N0500001N1-02931-03051105751ADDAA199000091GA1001+999999999GF100991001001999999001001KA1999M-01671MA1999999094621MD1210141+9999REMSYN070AAXX  29121 30844 32999 00000 11293 21305 39462 40575 52014 333 11167;EQDQ01  00002PRCP99
0122308440999992000012918004+51350+110500FM-12+080899999V0209999C000012200019N0500001N1-03721-03881106291ADDGA1001+999999999GF100991001001999999001001MD1210071+9999REMSYN054AAXX  29181 30844 42999 00000 11372 21388 40629 52007;
0234308440999992000013000004+51350+110500FM-12+080899999V0209999C000012200019N0500001N1-03971-04101106501ADDAA199000021AJ100129199999999AY171061AY201061GA1001+999999999GF100991001001999999001001IA1239KA1120N-03971MA1999999094821MD1210021+9999MW1761REMSYN082AAXX  30001 30844 31999 00000 11397 21410 39482 40650 52002 77670 333 21397 47012;
0150308440999992000013006004+51350+110500FM-12+080899999V0209999C000012200019N0500001N1-02212-02541105651ADDAY171061AY201061GA1001+999999999GF100991001001999999001001MD1810091+9999MW1021REMSYN060AAXX  30061 30844 41999 00000 11221 21254 40565 58009 70270;
0193308440999992000013012004+51350+110500FM-12+080899999V0209999C000012200019N0500001N1-02961-03131105981ADDAA199000021GA1001+999999999GF100991001001999999001001KA1120M-01971MA1999999094821MD1310011+9999REMSYN086AAXX  30121 30844 32999 00000 11296 21313 39482 40598 53001 333 11197 555 1/134 53001;
0122308440999992000013018004+51350+110500FM-12+080899999V0209999C000012200019N0500001N1-03401-03581106141ADDGA1001+999999999GF100991001001999999001001MD1710031+9999REMSYN054AAXX  30181 30844 42999 00000 11340 21358 40614 57003;
0234308440999992000013100004+51350+110500FM-12+080899999V0209999C000012200019N0500001N1-03631-03781106031ADDAA199000021AJ100129199999999AY171061AY201061GA1001+999999999GF100991001001999999001001IA1239KA1120N-03631MA1999999094551MD1710111+9999MW1761REMSYN082AAXX  31001 30844 31999 00000 11363 21378 39455 40603 57011 77670 333 21363 47012;
0150308440999992000013106004+51350+110500FM-12+080899999V0209999C000012200019N0500001N1-01912-02321104841ADDAY171061AY201061GA1001+999999999GF100991001001999999001001MD1710221+9999MW1021REMSYN060AAXX  31061 30844 41999 00000 11191 21232 40484 57022 70270;
0193308440999992000013112004+51350+110500FM-12+080899999V0209999C000012200019N0500001N1-02821-03001104991ADDAA199000021GA1001+999999999GF100991001001999999001001KA1120M-01541MA1999999093991MD1710031+9999REMSYN086AAXX  31121 30844 32999 00000 11282 21300 39399 40499 57003 333 11154 555 1/132 53001;
0122308440999992000013118004+51350+110500FM-12+080899999V0209999C000012200019N0500001N1-03481-03641105021ADDGA1001+999999999GF100991001001999999001001MD1710141+9999REMSYN054AAXX  31181 30844 42999 00000 11348 21364 40502 57014;
0225308440999992000020100004+51350+110500FM-12+080899999V0209999C000012200019N0500001N1-03801-03971105031ADDAA199000091AJ100129199999999GA1001+999999999GF100991001001999999001001IA1239KA1120N-03851MA1999999093591MD1710091+9999REMSYN076AAXX  01001 30844 32999 00000 11380 21397 39359 40503 57009 333 21385 47012;EQDQ01  00002PRCP99
0122308440999992000020106004+51350+110500FM-12+080899999V0209999C000012200019N0500001N1-01792-02291103532ADDGA1001+999999999GF100991001001999999001001MD1710291+9999REMSYN054AAXX  01061 30844 42999 00000 11179 21229 40353 57029;
0196308440999992000020112004+51350+110500FM-12+080899999V0209999C000012200019N0500001N1-02781-02961103831ADDAA199000091GA1001+999999999GF100991001001999999001001KA1999M-01261MA1999999092961MD1310011+9999REMSYN070AAXX  01121 30844 32999 00000 11278 21296 39296 40383 53001 333 11126;EQDQ01  00002PRCP99
0122308440999992000020118004+51350+110500FM-12+080899999V0209999C000012200019N0500001N1-03461-03611104061ADDGA1001+999999999GF100991001001999999001001MD1710041+9999REMSYN054AAXX  01181 30844 42999 00000 11346 21361 40406 57004;
0225308440999992000020200004+51350+110500FM-12+080899999V0209999C000012200019N0500001N1-03601-03781104111ADDAA199000091AJ100129199999999GA1001+999999999GF100991001001999999001001IA1239KA1120N-03691MA1999999092861MD1310011+9999REMSYN076AAXX  02001 30844 32999 00000 11360 21378 39286 40411 53001 333 21369 47012;EQDQ01  00002PRCP99
0140308440999992000020206004+51350+110500FM-12+080899999V0203201N004012200019N0500001N1-01372-01982102961ADDAY171061AY201061GF103991001001999999001011MD1810131+9999MW1761REMSYN066AAXX  02061 30844 41999 33204 11137 21198 40296 58013 77670 80001;
0193308440999992000020212004+51350+110500FM-12+080899999V0209999C000012200019N0500001N1-02511-02751103661ADDAA199000021GA1001+999999999GF100991001001999999001001KA1120M-01211MA1999999092931MD1310131+9999REMSYN086AAXX  02121 30844 32999 00000 11251 21275 39293 40366 53013 333 11121 555 1/131 53006;
0122308440999992000020218004+51350+110500FM-12+080899999V0209999C000012200019N0500001N1-03301-03471104161ADDGA1001+999999999GF100991001001999999001001MD1210021+9999REMSYN054AAXX  02181 30844 42999 00000 11330 21347 40416 52002;
0225308440999992000020300004+51350+110500FM-12+080899999V0209999C000012200019N0500001N1-03551-03711104191ADDAA199000091AJ100129199999999GA1001+999999999GF100991001001999999001001IA1239KA1120N-03601MA1999999092951MD1710031+9999REMSYN076AAXX  03001 30844 32999 00000 11355 21371 39295 40419 57003 333 21360 47012;EQDQ01  00002PRCP99
0122308440999992000020306004+51350+110500FM-12+080899999V0209999C000012200019N0500001N1-01692-02111103091ADDGA1001+999999999GF100991001001999999001001MD1710161+9999REMSYN054AAXX  03061 30844 42999 00000 11169 21211 40309 57016;
0196308440999992000020312004+51350+110500FM-12+080899999V0209999C000012200019N0500001N1-02561-02681103461ADDAA199000091GA1001+999999999GF100991001001999999001001KA1999M-01161MA1999999092731MD1310021+9999REMSYN070AAXX  03121 30844 32999 00000 11256 21268 39273 40346 53002 333 11116;EQDQ01  00002PRCP99
0122308440999992000020318004+51350+110500FM-12+080899999V0209999C000012200019N0500001N1-03291-03441103861ADDGA1001+999999999GF100991001001999999001001MD1410001+9999REMSYN054AAXX  03181 30844 42999 00000 11329 21344 40386 54000;
0234308440999992000020400004+51350+110500FM-12+080899999V0209999C000012200019N0500001N1-03631-03781104041ADDAA199000021AJ100129199999999AY171061AY201061GA1001+999999999GF100991001001999999001001IA1239KA1120N-03631MA1999999092781MD1310041+9999MW1761REMSYN082AAXX  04001 30844 31999 00000 11363 21378 39278 40404 53004 77670 333 21363 47012;
0150308440999992000020406004+51350+110500FM-12+080899999V0209999C000012200019N0500001N1-01732-02151102921ADDAY171061AY201061GA1001+999999999GF100991001001999999001001MD1210241+9999MW1021REMSYN060AAXX  04061 30844 41999 00000 11173 21215 40292 52024 70270;
0193308440999992000020412004+51350+110500FM-12+080899999V0209999C000012200019N0500001N1-02771-02941103441ADDAA199000021GA1001+999999999GF100991001001999999001001KA1120M-01361MA1999999092631MD1310121+9999REMSYN086AAXX  04121 30844 32999 00000 11277 21294 39263 40344 53012 333 11136 555 1/133 53001;
0122308440999992000020418004+51350+110500FM-12+080899999V0209999C000012200019N0500001N1-03511-03671103931ADDGA1001+999999999GF100991001001999999001001MD1210071+9999REMSYN054AAXX  04181 30844 42999 00000 11351 21367 40393 52007;
0225308440999992000020500004+51350+110500FM-12+080899999V0209999C000012200019N0200001N1-03731-03881104171ADDAA199000091AJ100129199999999GA1001+999999999GF100991001001999999001001IA1239KA1120N-03751MA1999999092851MD1210101+9999REMSYN076AAXX  05001 30844 32998 00000 11373 21388 39285 40417 52010 333 21375 47012;EQDQ01  00002PRCP99
0140308440999992000020506004+51350+110500FM-12+080899999V0202701N002012200019N0500001N1-01732-02072103181ADDAY171061AY201061GF103991001001999999001011MD1810151+9999MW1021REMSYN066AAXX  05061 30844 41999 32702 11173 21207 40318 58015 70270 80001;
0202308440999992000020512004+51350+110500FM-12+080899999V0209999C000012200019N0500001N1-02611-02731103481ADDAA199000091GF102991001001999999001011KA1120M-01621MA1999999092731MD1710031+9999REMSYN092AAXX  05121 30844 32999 20000 11261 21273 39273 40348 57003 80001 333 11162 555 1/133 53004;EQDQ01  00002PRCP99
0140308440999992000020518004+51350+110500FM-12+080899999V0209999C000019999999N0200001N1-03011-03191103781ADDAY171061AY211061GF108991001001999999001071MD1210051+9999MW1711REMSYN066AAXX  05181 30844 41998 80000 11301 21319 40378 52005 77171 80007;
0230308440999992000020600004+51350+110500FM-12+080899999V0209999C000019999999N0200001N1-03011-03191103851ADDAA112000191AJ100129199999999AY171061AY221061GF106991001001999999001061IA1239KA1120N-03111MA1999999092881MD1210031+9999MW1011REMSYN094AAXX  06001 30844 11998 60000 11301 21319 39288 40385 52003 69922 70172 80006 333 21311 47012;
0112308440999992000020606004+51350+110500FM-12+080899999V0202301N005012200019N0500001N1-01631-01971103131ADDGF105991031031012501001011MD1810121+9999REMSYN060AAXX  06061 30844 42699 52305 11163 21197 40313 58012 83301;
0202308440999992000020612004+51350+110500FM-12+080899999V0202701N002012200019N0500001N1-02011-02201103401ADDAA199000091GF102991001001999999001011KA1120M-01451MA1999999092891MD1210091+9999REMSYN092AAXX  06121 30844 32999 22702 11201 21220 39289 40340 52009 80001 333 11145 555 1/130 53007;EQDQ01  00002PRCP99
0108308440999992000020618004+51350+110500FM-12+080899999V0209999C000012200019N0500001N1-03371-03531104101ADDGA1001+999999999GF100991001001999999001001REMSYN054AAXX  06181 30844 42999 00000 11337 21353 40410 92001;
0225308440999992000020700004+51350+110500FM-12+080899999V0209999C000012200019N0200001N1-03751-03931104381ADDAA199000091AJ100129199999999GA1001+999999999GF100991001001999999001001IA1239KA1120N-03801MA1999999093041MD1210041+9999REMSYN076AAXX  07001 30844 32998 00000 11375 21393 39304 40438 52004 333 21380 47012;EQDQ01  00002PRCP99
0122308440999992000020706004+51350+110500FM-12+080899999V0209999C000012200019N0500001N1-01822-02321103531ADDGA1001+999999999GF100991001001999999001001MD1810071+9999REMSYN054AAXX  07061 30844 42999 00000 11182 21232 40353 58007;
0212308440999992000020712004+51350+110500FM-12+080899999V0209999C000012200019N0500001N1-02711-02941103901ADDAA199000091GA1001+999999999GF100991001001999999001001KA1120M-01451MA1999999093061MD1310031+9999REMSYN086AAXX  07121 30844 32999 00000 11271 21294 39306 40390 53003 333 11145 555 1/131 53005;EQDQ01  00002PRCP99
0112308440999992000020718004+51350+110500FM-12+080899999V0200901N002019999999N0500001N1-02761-02931103921ADDGF105991001001999999001011MD1710031+9999REMSYN060AAXX  07181 30844 42999 50902 11276 21293 40392 57003 80001;
0172308440999992000020800004+51350+110500FM-12+080899999V0209999C000012200019N0200001N1-03121+99999999999ADDAA199000091GA1001+999999999GF100991001001999999001001KA1120N-03121REMSYN075AAXX  08001 30844 32998 00000 11312 2130 39294 40396 57005 333 21312 37012;EQDQ01  00002PRCP99
0150308440999992000020806004+51350+110500FM-12+080899999V0202701N004012200019N0500001N1-01222-01741102871ADDAY171061AY201061GA1001+999999999GF100991001001999999001001MD1710191+9999MW1011REMSYN060AAXX  08061 30844 41999 02704 11122 21174 40287 57019 70170;
0196308440999992000020812004+51350+110500FM-12+080899999V0209999C000012200019N0500001N1-02441-02621103251ADDAA199000091GA1001+999999999GF100991001001999999001001KA1999M-00861MA1999999092581MD1310011+9999REMSYN070AAXX  08121 30844 32999 00000 11244 21262 39258 40325 53001 333 11086;EQDQ01  00002PRCP99
0112308440999992000020818004+51350+110500FM-12+080899999V0209999C000019999999N0500001N1-02601-02771103261ADDGF105991001001999999001011MD1710041+9999REMSYN060AAXX  08181 30844 42999 50000 11260 21277 40326 57004 80001;
0215308440999992000020900004+51350+110500FM-12+080899999V0209999C000019999999N0200001N1-02451-02571103001ADDAA199000091AJ100129199999999GF106991061001999999031001IA1239KA1120N-02981MA1999999092361MD1710011+9999REMSYN082AAXX  09001 30844 32998 60000 11245 21257 39236 40300 57001 86030 333 21298 47012;EQDQ01  00002PRCP99
0189308440999992000020901004+51350+110500FM-12+080899999V0209999C000019999999N0200001N1-02451-02571103001ADDAA199000091AJ100129199999999IA1239KA1120N-02981MA1999999092361MD1710011+9999REMSYN082AAXX  09011 30844 32998 /0000 11245 21257 39236 40300 57001 86030 333 21298 47012;EQDQ01  00002PRCP99
0112308440999992000020906004+51350+110500FM-12+080899999V0202701N003012200019N0500001N1-01031-01561102261ADDGF102991001001999999001011MD1810131+9999REMSYN060AAXX  09061 30844 42999 22703 11103 21156 40226 58013 80001;
0196308440999992000020912004+51350+110500FM-12+080899999V0209999C000012200019N0500001N1-02191-02371102601ADDAA199000091GA1001+999999999GF100991001001999999001001KA1999M-00871MA1999999092101MD1710041+9999REMSYN070AAXX  09121 30844 32999 00000 11219 21237 39210 40260 57004 333 11087;EQDQ01  00002PRCP99
0122308440999992000020918004+51350+110500FM-12+080899999V0209999C000012200019N0500001N1-02961-03071103041ADDGA1001+999999999GF100991001001999999001001MD1210011+9999REMSYN054AAXX  09181 30844 42999 00000 11296 21307 40304 52001;
0215308440999992000021000004+51350+110500FM-12+080899999V0209999C000012200019N0200001N1-03281-03441103071ADDAA199000091AJ100129199999999GF101991011001999999041001IA1239KA1120N-03311MA1999999092071MD1710041+9999REMSYN082AAXX  10001 30844 32998 10000 11328 21344 39207 40307 57004 81040 333 21331 47012;EQDQ01  00002PRCP99
0112308440999992000021006004+51350+110500FM-12+080899999V0202701N001019999999N0500001N1-01172-01612101941ADDGF106991061001999999031001MD1810201+9999REMSYN060AAXX  10061 30844 42999 62701 11117 21161 40194 58020 86030;
0186308440999992000021012004+51350+110500FM-12+080899999V0209999C000019999999N0500001N1-01471-01741101941ADDAA199000091GF106991061001999999031001KA1999M-00991MA1999999091781MD1710031+9999REMSYN076AAXX  10121 30844 32999 60000 11147 21174 39178 40194 57003 86030 333 11099;EQDQ01  00002PRCP99
0140308440999992000021018004+51350+110500FM-12+080899999V0209999C000019999999N0200001N1-01491-01621101881ADDAY171061AY221061GF108991081001999999021999MD1710021+9999MW1711REMSYN066AAXX  10181 30844 41998 80000 11149 21162 40188 57002 77172 8802/;
0230308440999992000021100004+51350+110500FM-12+080899999V0209999C000012200019N0200001N1-01581-01711102131ADDAA112000591AJ100129199999999AY171061AY211061GF103991001001999999001011IA1239KA1120N-01651MA1999999091921MD1210101+9999MW1011REMSYN094AAXX  11001 30844 11998 30000 11158 21171 39192 40213 52010 69942 70171 80001 333 21165 47012;
0112308440999992000021106004+51350+110500FM-12+080899999V0202901N005012200019N0500001N1-00901-01451102151ADDGF103991011011012501001011MD1210031+9999REMSYN060AAXX  11061 30844 42699 32905 11090 21145 40215 52003 81101;
0196308440999992000021112004+51350+110500FM-12+080899999V0202701N004012200019N0500001N1-01521-02031102731ADDAA199000091GA1001+999999999GF100991001001999999001001KA1999M-00811MA1999999092471MD1210181+9999REMSYN070AAXX  11121 30844 32999 02704 11152 21203 39247 40273 52018 333 11081;EQDQ01  00002PRCP99
0122308440999992000021118004+51350+110500FM-12+080899999V0209999C000012200019N0500001N1-02861-02971103571ADDGA1001+999999999GF100991001001999999001001MD1210061+9999REMSYN054AAXX  11181 30844 42999 00000 11286 21297 40357 52006;
0225308440999992000021200004+51350+110500FM-12+080899999V0209999C000012200019N0200001N1-03411-03581103961ADDAA199000091AJ100129199999999GA1001+999999999GF100991001001999999001001IA1239KA1120N-03551MA1999999092811MD1210061+9999REMSYN076AAXX  12001 30844 32998 00000 11341 21358 39281 40396 52006 333 21355 47012;EQDQ01  00002PRCP99
0112308440999992000021206004+51350+110500FM-12+080899999V0202901N003012200019N0500001N1-01272-01882102971ADDGF101991011011012501001001MD1810121+9999REMSYN060AAXX  12061 30844 42699 12903 11127 21188 40297 58012 81100;
0212308440999992000021212004+51350+110500FM-12+080899999V0202901N004012200019N0500001N1-01551-02061103191ADDAA199000091GA1001+999999999GF100991001001999999001001KA1120M-01151MA1999999092881MD1310121+9999REMSYN086AAXX  12121 30844 32999 02904 11155 21206 39288 40319 53012 333 11115 555 1/121 53007;EQDQ01  00002PRCP99
0122308440999992000021218004+51350+110500FM-12+080899999V0209999C000012200019N0500001N1-02321-03321103661ADDGA1001+999999999GF100991001001999999001001MD1210021+9999REMSYN054AAXX  12181 30844 42999 00000 11232 21332 40366 52002;
0215308440999992000021300004+51350+110500FM-12+080899999V0209999C000012200019N0200001N1-03041-03151103981ADDAA199000091AJ100129199999999GF102991001001999999001011IA1239KA1120N-03221MA1999999092991MD1310041+9999REMSYN082AAXX  13001 30844 32998 20000 11304 21315 39299 40398 53004 80001 333 21322 47012;EQDQ01  00002PRCP99
0138308440999992000021306004+51350+110500FM-12+080899999V0202701N005010090019N0500001N1-01571-01941103231ADDGA1051+009009099GF106991051031008001001011MD1810131+9999REMSYN070AAXX  13061 30844 42599 62705 11157 21194 40323 58013 85301 333 85930;
0186308440999992000021312004+51350+110500FM-12+080899999V0202901N002019999999N0500001N1-01771-02031103311ADDAA199000091GF105991051001999999031001KA1999M-01451MA1999999092901MD1410001+9999REMSYN076AAXX  13121 30844 32999 52902 11177 21203 39290 40331 54000 85030 333 11145;EQDQ01  00002PRCP99
0112308440999992000021318004+51350+110500FM-12+080899999V0209999C000012200019N0500001N1-02451-02571103671ADDGF103991001001999999001011MD1810011+9999REMSYN060AAXX  13181 30844 42999 30000 11245 21257 40367 58001 80001;
0215308440999992000021400004+51350+110500FM-12+080899999V0209999C000012200019N0200001N1-03311-03471104141ADDAA199000091AJ100129199999999GF101991011001999999041001IA1239KA1120N-03521MA1999999093011MD1310051+9999REMSYN082AAXX  14001 30844 32998 10000 11331 21347 39301 40414 53005 81040 333 21352 47012;EQDQ01  00002PRCP99
0140308440999992000021406004+51350+110500FM-12+080899999V0203201N004012200019N0500001N1-01532-02041103171ADDAY171061AY201061GF101991011011012501001001MD1710111+9999MW1031REMSYN066AAXX  14061 30844 41699 13204 11153 21204 40317 57011 70370 81100;
0212308440999992000021412004+51350+110500FM-12+080899999V0209999C000012200019N0500001N1-02131-02461103501ADDAA199000091GA1001+999999999GF100991001001999999001001KA1120M-01341MA1999999092941MD1310131+9999REMSYN086AAXX  14121 30844 32999 00000 11213 21246 39294 40350 53013 333 11134 555 1/131 53006;EQDQ01  00002PRCP99
0122308440999992000021418004+51350+110500FM-12+080899999V0209999C000012200019N0500001N1-03481-03641104121ADDGA1001+999999999GF100991001001999999001001MD1810081+9999REMSYN054AAXX  14181 30844 42999 00000 11348 21364 40412 58008;
0225308440999992000021500004+51350+110500FM-12+080899999V0209999C000012200019N0200001N1-03751-03931104201ADDAA199000091AJ100129199999999GA1001+999999999GF100991001001999999001001IA1239KA1120N-03801MA1999999092871MD1710021+9999REMSYN076AAXX  15001 30844 32998 00000 11375 21393 39287 40420 57002 333 21380 47012;EQDQ01  00002PRCP99
0150308440999992000021506004+51350+110500FM-12+080899999V0209999C000012200019N0500001N1-01392-01912102882ADDAY171061AY201061GA1001+999999999GF100991001001999999001001MD1710181+9999MW1021REMSYN060AAXX  15061 30844 41999 00000 11139 21191 40288 57018 70270;
0225308440999992000021600004+51350+110500FM-12+080899999V0209999C000012200019N0200001N1-03821-04031103961ADDAA199000091AJ100129199999999GA1001+999999999GF100991001001999999001001IA1239KA1120N-03831MA1999999092641MD1310011+9999REMSYN076AAXX  16001 30844 32998 00000 11382 21403 39264 40396 53001 333 21383 47012;EQDQ01  00002PRCP99
0122308440999992000021606004+51350+110500FM-12+080899999V0209999C000012200019N0500001N1-01252-02082102552ADDGA1001+999999999GF100991001001999999001001MD1810251+9999REMSYN054AAXX  16061 30844 42999 00000 11125 21208 40255 58025;
0196308440999992000021612004+51350+110500FM-12+080899999V0209999C000012200019N0500001N1-02681-03001103111ADDAA199000091GA1001+999999999GF100991001001999999001001KA1999M-00991MA1999999092361MD1310061+9999REMSYN070AAXX  16121 30844 32999 00000 11268 21300 39236 40311 53006 333 11099;EQDQ01  00002PRCP99
0122308440999992000021618004+51350+110500FM-12+080899999V0209999C000012200019N0500001N1-03261-03421103511ADDGA1001+999999999GF100991001001999999001001MD1210041+9999REMSYN054AAXX  16181 30844 42999 00000 11326 21342 40351 52004;
0253308440999992000021700004+51350+110500FM-12+080899999V0209999C000012200019N0200001N1-03371-03531103721ADDAA199000091AJ100129199999999GA1001+999999999GF100991001001999999001001IA1239KA1120N-03401MA1999999092611MD1210111+9999REMSYN104AAXX  17001 30844 32998 00000 11337 21353 39261 40372 52011 333 21340 47012 555 1/138 51278 53002 7000/;EQDQ01  00002PRCP99
0122308440999992000021706004+51350+110500FM-12+080899999V0209999C000012200019N0500001N1-01291-02121102671ADDGA1001+999999999GF100991001001999999001001MD1810241+9999REMSYN054AAXX  17061 30844 42999 00000 11129 21212 40267 58024;
0186308440999992000021712004+51350+110500FM-12+080899999V0202701N004019999999N0500001N1-01151-01771102511ADDAA199000091GF108991001001999999001071KA1999M-00951MA1999999092421MD1310041+9999REMSYN076AAXX  17121 30844 32999 82704 11115 21177 39242 40251 53004 80007 333 11095;EQDQ01  00002PRCP99
0140308440999992000021718004+51350+110500FM-12+080899999V0202701N002019999999N0200001N1-01421-01551102721ADDAY171061AY221061GF108991001001999999001071MD1210031+9999MW1711REMSYN066AAXX  17181 30844 41998 82702 11142 21155 40272 52003 77172 80007;
0230308440999992000021800004+51350+110500FM-12+080899999V0202701N001019999999N0200001N1-01571-01701102891ADDAA112001091AJ100129199999999AY171061AY271061GF108991081001999999021999IA1239KA1120N-01571MA1999999092601MD1210051+9999MW1711REMSYN094AAXX  18001 30844 11998 82701 11157 21170 39260 40289 52005 69992 77177 8802/ 333 21157 47012;
0140308440999992000021806004+51350+110500FM-12+080899999V0202301N006019999999N0200001N1-00981-01151102661ADDAY171061AY271061GF108991081001999999021999MD1810041+9999MW1711REMSYN066AAXX  18061 30844 41998 82306 11098 21115 40266 58004 77177 8802/;
0201308440999992000021812004+51350+110500FM-12+080899999V0202701N002019999999N0500001N1-01561-01691103111ADDAA112000891AY171061AY221061GF105991051001999999031001KA1999M-00861MA1999999092811MD1210161+9999MW1011REMSYN088AAXX  18121 30844 11999 52702 11156 21169 39281 40311 52016 69972 70172 85030 333 11086;
0112308440999992000021818004+51350+110500FM-12+080899999V0209999C000012200019N0500001N1-02601-02651103761ADDGF103991001001999999001011MD1210081+9999REMSYN060AAXX  18181 30844 42999 30000 11260 21265 40376 52008 80001;
0191308440999992000021900004+51350+110500FM-12+080899999V0209999C000019999999N0200001N1-03161-03261103801ADDAA199000091GF106991999999999999999999KA1120N-03201MA1999999092781MD1710091+9999REMSYN081AAXX  19001 30844 32998 60000 11316 21326 39278 40380 57009 8301 333 21320 47013;EQDQ01  00002PRCP99
0112308440999992000021906004+51350+110500FM-12+080899999V0202501N001012200019N0500001N1-01012-01542102661ADDGF102991001001999999001011MD1710171+9999REMSYN060AAXX  19061 30844 42999 22501 11101 21154 40266 57017 80001;
0212308440999992000021912004+51350+110500FM-12+080899999V0209999C000012200019N0500001N1-02221-02401103081ADDAA199000091GA1001+999999999GF100991001001999999001001KA1120M-00791MA1999999092521MD1310041+9999REMSYN086AAXX  19121 30844 32999 00000 11222 21240 39252 40308 53004 333 11079 555 1/129 53004;EQDQ01  00002PRCP99
0122308440999992000021918004+51350+110500FM-12+080899999V0209999C000012200019N0500001N1-03061-03171103551ADDGA1001+999999999GF100991001001999999001001MD1210021+9999REMSYN054AAXX  19181 30844 42999 00000 11306 21317 40355 52002;
0225308440999992000022000004+51350+110500FM-12+080899999V0209999C000012200019N0200001N1-03351-03471103611ADDAA199000091AJ100139199999999GA1001+999999999GF100991001001999999001001IA1239KA1120N-03371MA1999999092611MD1210011+9999REMSYN076AAXX  20001 30844 32998 00000 11335 21347 39261 40361 52001 333 21337 47013;EQDQ01  00002PRCP99
0112308440999992000022006004+51350+110500FM-12+080899999V0209999C000012200019N0500001N1-01022-01552102412ADDGF102991001001999999001011MD1710181+9999REMSYN060AAXX  20061 30844 42999 20000 11102 21155 40241 57018 80001;
0186308440999992000022012004+51350+110500FM-12+080899999V0209999C000012200019N0500001N1-02071-02401102851ADDAA199000091GF102991021001999999031001KA1999M-00711MA1999999092371MD1310111+9999REMSYN076AAXX  20121 30844 32999 20000 11207 21240 39237 40285 53011 82030 333 11071;EQDQ01  00002PRCP99
0122308440999992000022018004+51350+110500FM-12+080899999V0209999C000012200019N0500001N1-03121-03231102851ADDGA1001+999999999GF100991001001999999001001MD1210111+9999REMSYN054AAXX  20181 30844 42999 00000 11312 21323 40285 52011;
0231308440999992000022100004+51350+110500FM-12+080899999V0209999C000012200019N0200001N1-03281-03441103722ADDAA199000091AJ100139199999999GF103991001001999999001011IA1239KA1120N-03361MA1999999092651MD1210051+9999REMSYN082AAXX  21001 30844 32998 30000 11328 21344 39265 40372 52005 80001 333 21336 47013;EQDQ01+103723APOSLPQ02  00002PRCP99
0112308440999992000022106004+51350+110500FM-12+080899999V0202701N004012200019N0500001N1-00912-01412102621ADDGF105991021021012501001011MD1710051+9999REMSYN060AAXX  21061 30844 42699 52704 11091 21141 40262 57005 82201;
0214308440999992000022112004+51350+110500FM-12+080899999V0202701N004012200019N0500001N1-01431-01941102961ADDAA199000091AY131061AY211061GF103991001001999999001011KA1999M-00861MA1999999092691MD1310131+9999MW1011REMSYN082AAXX  21121 30844 31999 32704 11143 21194 39269 40296 53013 70131 80001 333 11086;EQDQ01  00002PRCP99
0112308440999992000022118004+51350+110500FM-12+080899999V0202701N008019999999N0500001N1-01491-01761103161ADDGF108991081001999999011999MD1210041+9999REMSYN060AAXX  21181 30844 42999 82708 11149 21176 40316 52004 8801/;
0215308440999992000022200004+51350+110500FM-12+080899999V0202701N009019999999N0200001N1-01651-01911103331ADDAA199000091AJ100139199999999GF108991081001999999021999IA1239KA1120N-01651MA1999999092961MD1210041+9999REMSYN082AAXX  22001 30844 32998 82709 11165 21191 39296 40333 52004 8802/ 333 21165 47013;EQDQ01  00002PRCP99
0131308440999992000022206004+51350+110500FM-12+080899999V0202701N009012200019N0500001N1-01331-01851103141ADDGF103991999011012501001001MD1210111+9999REMSYN060AAXX  22061 30844 42699 32709 11133 21185 40314 52011 81100;EQDQ01+000012SCOTLC
0212308440999992000022212004+51350+110500FM-12+080899999V0202701N005012200019N0500001N1-01631-01971103281ADDAA199000091GA1001+999999999GF100991001001999999001001KA1120M-01231MA1999999092931MD1310081+9999REMSYN086AAXX  22121 30844 32999 02705 11163 21197 39293 40328 53008 333 11123 555 1/124 53013;EQDQ01  00002PRCP99
0112308440999992000022218004+51350+110500FM-12+080899999V0209999C000019999999N0500001N1-01901-02021103281ADDGF105991001001999999001011MD1310011+9999REMSYN060AAXX  22181 30844 42999 50000 11190 21202 40328 53001 80001;
0213308440999992000022300004+51350+110500FM-12+080899999V0209999C000019999999N0200001N1-02511-02631103501ADDAJ100139199999999AY171061AY221061GF108991001001999999001071IA1239KA1120N-02561MA1999999092781MD1710021+9999MW1021REMSYN088AAXX  23001 30844 11998 80000 11251 21263 39278 40350 57002 70272 80007 333 21256 47013;
0166308440999992000022306004+51350+110500FM-12+080899999V0202701N008010093019N0500001N1-01111-01471102931ADDAY181061AY221061GA1051+009309099GF106991051031008001001011MD1810061+9999MW1031REMSYN076AAXX  23061 30844 41599 62708 11111 21147 40293 58006 70382 85301 333 85931;
0236308440999992000022312004+51350+110500FM-12+080899999V0202701N008019999999N0200001N1-00071-01351102871ADDAA112000791AY171061AY221061GF108991081001999999021999KA1120M+99999MA1999999092771MD1310021+9999MW1711REMSYN104AAXX  23121 30844 11998 82708 11007 21135 39277 40287 53002 69902 77172 8802/ 333 11098 555 1/112 53014;EQDQ01 -00982ATMX  
0140308440999992000022318004+51350+110500FM-12+080899999V0209999C000019999999N0200001N1-02092-02151103191ADDAY171061AY221061GF105991031001999999031011MD1710081+9999MW1011REMSYN066AAXX  23181 30844 41998 50000 11209 21215 40319 57008 70172 83031;
0202308440999992000022400004+51350+110500FM-12+080899999V0209999C000019999999N0200001N1-01311-01371102561ADDAA112000791AJ100139199999999GF108991081001999999021999IA1239KA1120N-02121MA1999999092401MD1710111+9999REMSYN088AAXX  24001 30844 12998 80000 11131 21137 39240 40256 57011 69902 8802/ 333 21212 47013;
0166308440999992000022406004+51350+110500FM-12+080899999V0202701N010010093019N0500001N1-00431-00891101931ADDAY131061AY221061GA1051+009309099GF106991051031008001001011MD1710161+9999MW1361REMSYN076AAXX  24061 30844 41599 62710 11043 21089 40193 57016 73632 85301 333 85931;
0214308440999992000022412004+51350+110500FM-12+080899999V0202701N009019999999N0500001N1-00611-01051102021ADDAA199000091AY131061AY231061GF108991001001999999001071KA1999M-00381MA1999999092171MD1310041+9999MW1361REMSYN082AAXX  24121 30844 31999 82709 11061 21105 39217 40202 53004 73633 80007 333 11038;EQDQ01  00002PRCP99
0140308440999992000022418004+51350+110500FM-12+080899999V0202701N011019999999N0200001N1-00811-00951102051ADDAY171061AY241061GF108991081001999999021999MD1710011+9999MW1711REMSYN066AAXX  24181 30844 41998 82711 11081 21095 40205 57001 77174 8802/;
0230308440999992000022500004+51350+110500FM-12+080899999V0202701N013019999999N0500001N1-01131-01481102281ADDAA112000191AJ100119199999999AY171061AY241061GF105991021001999999031011IA1239KA1120N-01171MA1999999092221MD1210081+9999MW1361REMSYN094AAXX  25001 30844 11999 52713 11113 21148 39222 40228 52008 69922 73674 82031 333 21117 47011;
0166308440999992000022506004+51350+110500FM-12+080899999V0202701N008010090019N0500001N1-00801-01361102041ADDAY131061AY231061GA1051+009009099GF106991051031008001001011MD1810091+9999MW1361REMSYN076AAXX  25061 30844 41599 62708 11080 21136 40204 58009 73633 85301 333 85930;
0230308440999992000022512004+51350+110500FM-12+080899999V0202701N011010300019N0500001N1-00991-01251102111ADDAA199000091AY131061AY231061GF108991021011012501021999KA1120M-00741MA1999999092111MD1710021+9999MW1361REMSYN098AAXX  25121 30844 31699 82711 11099 21125 39211 40211 57002 73633 8212/ 333 11074 555 1/111 53016;EQDQ01  00002PRCP99
0140308440999992000022518004+51350+110500FM-12+080899999V0202701N002019999999N0200001N1-01021-01081101951ADDAY171061AY231061GF108991081001999999021999MD1710081+9999MW1711REMSYN066AAXX  25181 30844 41998 82702 11102 21108 40195 57008 77173 8802/;
0230308440999992000022600004+51350+110500FM-12+080899999V0202901N003012200019N0500001N1-01351-01481102081ADDAA112001091AJ100119199999999AY171061AY221061GF106991031081012501001061IA1239KA1120N-01471MA1999999091951MD1310031+9999MW1031REMSYN094AAXX  26001 30844 11699 62903 11135 21148 39195 40208 53003 60012 70372 83806 333 21147 47011;
0166308440999992000022606004+51350+110500FM-12+080899999V0203201N008010096019N0500001N1-00871-01411101981ADDAY131061AY221061GA1051+009609029GF106991051081999999001011MD1810011+9999MW1361REMSYN076AAXX  26061 30844 41999 63208 11087 21141 40198 58001 73632 85801 333 85832;
0230308440999992000022612004+51350+110500FM-12+080899999V0203201N005012200019N0500001N1-01051-01891102451ADDAA199000091AY131061AY211061GF103991031081012501001001KA1120M-00801MA1999999092401MD1210281+9999MW1011REMSYN098AAXX  26121 30844 31699 33205 11105 21189 39240 40245 52028 70131 83800 333 11080 555 1/113 53012;EQDQ01  00002PRCP99
0141308440999992000022618004+51350+110500FM-12+080899999V0209999C000012200019N0500001N1-02841-03021103752ADDGA1001+999999999GF100991001001999999001001MD1210271+9999REMSYN054AAXX  26181 30844 42999 00000 11284 21302 40375 52027;EQDQ01+103753APOSLP
0253308440999992000022700004+51350+110500FM-12+080899999V0209999C000012200019N0500001N1-03461-03611104301ADDAA199000091AJ100119199999999GA1001+999999999GF100991001001999999001001IA1239KA1120N-03501MA1999999093091MD1210091+9999REMSYN104AAXX  27001 30844 32999 00000 11346 21361 39309 40430 52009 333 21350 47011 555 1/138 51103 53007 7000/;EQDQ01  00002PRCP99
0122308440999992000022706004+51350+110500FM-12+080899999V0200701N002012200019N0500001N1-01152-02111102982ADDGA1001+999999999GF100991001001999999001001MD1710211+9999REMSYN054AAXX  27061 30844 42999 00702 11115 21211 40298 57021;
0212308440999992000022712004+51350+110500FM-12+080899999V0209999C000012200019N0500001N1-02071-02741103321ADDAA199000091GA1001+999999999GF100991001001999999001001KA1120M-00671MA1999999092801MD1310041+9999REMSYN086AAXX  27121 30844 32999 00000 11207 21274 39280 40332 53004 333 11067 555 1/126 53004;EQDQ01  00002PRCP99
0122308440999992000022718004+51350+110500FM-12+080899999V0209999C000012200019N0500001N1-02761-02991103481ADDGA1001+999999999GF100991001001999999001001MD1710091+9999REMSYN054AAXX  27181 30844 42999 00000 11276 21299 40348 57009;
0231308440999992000022800004+51350+110500FM-12+080899999V0209999C000012200019N0500001N1-02961-03131103511ADDAA199000091AJ100119199999999GF103991001001999999001011IA1239KA1120N-02991MA1999999092601MD1410001+9999REMSYN082AAXX  28001 30844 32699 30000 11296 21313 39260 40351 54000 80001 333 21299 47011;EQDQ01+012502SCOLCBQ02  00002PRCP99
0112308440999992000022806004+51350+110500FM-12+080899999V0209999C000019999999N0500001N1-01381+99999102092ADDGF108991001001999999001071MD1710271+9999REMSYN060AAXX  28061 30844 42999 80000 11138 21120 40209 57027 80007;
0205308440999992000022812004+51350+110500FM-12+080899999V0209999C000012200019N0500001N1-01231-01751102251ADDAA199000091GF102991001001999999001011KA1120M+00091MA1999999092151MD1410001+9999REMSYN095AAXX  28121 30844 32999 20000 11123 21175 39215 40225 54000 80001 333 10009 555 1/120 53003 /-;EQDQ01  00002PRCP99
0122308440999992000022818004+51350+110500FM-12+080899999V0209999C000012200019N0500001N1-02391-02451102681ADDGA1001+999999999GF100991001001999999001001MD1710041+9999REMSYN054AAXX  28181 30844 42999 00000 11239 21245 40268 57004;
0243308440999992000022900004+51350+110500FM-12+080899999V0209999C000012200019N0500001N1-02651-02711102871ADDAA199000091AJ100119199999999GF102991001001999999001011IA1239KA1120N-02701MA1999999092161MD1310071+9999REMSYN110AAXX  29001 30844 32999 20000 11265 21271 39216 40287 53007 80001 333 21270 47011 555 1/130 51181 53001 700,/;EQDQ01  00002PRCP99
0112308440999992000022906004+51350+110500FM-12+080899999V0202701N003012200019N0500001N1+00042-00882101921ADDGF101991001001999999001011MD1310011+9999REMSYN060AAXX  29061 30844 42999 12703 10004 21088 40192 53001 80001;
0196308440999992000022912004+51350+110500FM-12+080899999V0209999C000012200019N0500001N1-01271-01991102611ADDAA199000091GA1001+999999999GF100991001001999999001001KA1999M+00151MA1999999092461MD1310161+9999REMSYN070AAXX  29121 30844 32999 00000 11127 21199 39246 40261 53016 333 10015;EQDQ01  00002PRCP99
0122308440999992000022918004+51350+110500FM-12+080899999V0209999C000012200019N0500001N1-02321-02441103161ADDGA1001+999999999GF100991001001999999001001MD1210011+9999REMSYN054AAXX  29181 30844 42999 00000 11232 21244 40316 52001;
0243308440999992000030100004+51350+110500FM-12+080899999V0209999C000012200019N0500001N1-02731-02851103271ADDAA199000091AJ100109199999999GF102991001001999999001011IA1239KA1120N-02861MA1999999092491MD1310011+9999REMSYN110AAXX  01001 30844 32999 20000 11273 21285 39249 40327 53001 80001 333 21286 47010 555 1/132 51147 53003 7000/;EQDQ01  00002PRCP99
0112308440999992000030106004+51350+110500FM-12+080899999V0200901N003012200019N0500001N1-00282-01301101691ADDGF103991001001999999001011MD1710361+9999REMSYN060AAXX  01061 30844 42999 30903 11028 21130 40169 57036 80001;
0186308440999992000030112004+51350+110500FM-12+080899999V0200901N002019999999N0500001N1-00901-01571101541ADDAA199000091GF105991001001999999001011KA1999M+00111MA1999999091641MD1710061+9999REMSYN076AAXX  01121 30844 32999 50902 11090 21157 39164 40154 57006 80001 333 10011;EQDQ01  00002PRCP99
0112308440999992000030118004+51350+110500FM-12+080899999V0209999C000019999999N0500001N1-01401-01601101451ADDGF107991001001999999001071MD1710161+9999REMSYN060AAXX  01181 30844 42999 70000 11140 21160 40145 57016 80007;
0215308440999992000030200004+51350+110500FM-12+080899999V0209999C000019999999N0500001N1-01601-01731101361ADDAA199000091AJ100109199999999GF108991031001999999041071IA1239KA1120N-01651MA1999999091221MD1710081+9999REMSYN082AAXX  02001 30844 32999 80000 11160 21173 39122 40136 57008 83047 333 21165 47010;EQDQ01  00002PRCP99
0112308440999992000030206004+51350+110500FM-12+080899999V0202901N007012200019N0500001N1-00151-00831100661ADDGF103991031001999999041001MD1710071+9999REMSYN060AAXX  02061 30844 42999 32907 11015 21083 40066 57007 83040;
0215308440999992000030300004+51350+110500FM-12+080899999V0209999C000012200019N0500001N1-01331-01531102021ADDAA199000091AJ100109199999999GF103991001001999999001011IA1239KA1120N-01491MA1999999091911MD1210151+9999REMSYN082AAXX  03001 30844 32999 30000 11133 21153 39191 40202 52015 80001 333 21149 47010;EQDQ01  00002PRCP99
0140308440999992000030306004+51350+110500FM-12+080899999V0203201N012012200019N0500001N1-00871-01651102161ADDAY171061AY231061GF105991021021012501001011MD1210031+9999MW1361REMSYN066AAXX  03061 30844 41699 53212 11087 21165 40216 52003 73673 82201;
0201308440999992000030312004+51350+110500FM-12+080899999V0202901N013012200019N0500001N1-01171-02121102511ADDAA112000791AY131061AY231061GF103991031001999999041001KA1999M-00711MA1999999092411MD1210081+9999MW1361REMSYN088AAXX  03121 30844 11999 32913 11117 21212 39241 40251 52008 69902 73633 83040 333 11071;
0140308440999992000030318004+51350+110500FM-12+080899999V0209999C000012200019N0500001N1-01611-01801102501ADDAY131061AY211061GF102991001001999999001011MD1710141+9999MW1011REMSYN066AAXX  03181 30844 41999 20000 11161 21180 40250 57014 70131 80001;
0215308440999992000030400004+51350+110500FM-12+080899999V0209999C000019999999N0500001N1-02161-02221102481ADDAA199000091AJ100099199999999GF106991001001999999001061IA1239KA1120N-02321MA1999999091991MD1710081+9999REMSYN082AAXX  04001 30844 32999 60000 11216 21222 39199 40248 57008 80006 333 21232 47009;EQDQ01  00002PRCP99
0112308440999992000030406004+51350+110500FM-12+080899999V0209999C000019999999N0500001N1-00531-01331101242ADDGF108991081001999999011999MD1710301+9999REMSYN060AAXX  04061 30844 42999 80000 11053 21133 40124 57030 8801/;
0140308440999992000030418004+51350+110500FM-12+080899999V0202701N012012200019N0500001N1-01571-01991102191ADDAY171061AY211061GF103991001001999999001011MD1210431+9999MW1011REMSYN066AAXX  04181 30844 41999 32712 11157 21199 40219 52043 70171 80001;
0230308440999992000030500004+51350+110500FM-12+080899999V0202701N010012200019N0500001N1-01971-02461102861ADDAA112000591AJ100099199999999AY131061AY201061GF103991001001999999001011IA1239KA1120N-01971MA1999999092431MD1210241+9999MW1361REMSYN094AAXX  05001 30844 11999 32710 11197 21246 39243 40286 52024 69962 73630 80001 333 21197 47009;
0170308440999992000030506004+51350+110500FM-12+080899999V0202901N008012200019N0500001N1-01471-02171102951ADDAA199000091AY131061AY211061GF103991001001999999001011MD1210051+9999MW1011REMSYN066AAXX  05061 30844 31999 32908 11147 21217 40295 52005 70131 80001;EQDQ01  00002PRCP99
0212308440999992000030512004+51350+110500FM-12+080899999V0202701N005012200019N0500001N1-01671-02471103071ADDAA199000091GA1001+999999999GF100991001001999999001001KA1120M-01311MA1999999092731MD1310091+9999REMSYN086AAXX  05121 30844 32999 02705 11167 21247 39273 40307 53009 333 11131 555 1/120 53015;EQDQ01  00002PRCP99
0122308440999992000030518004+51350+110500FM-12+080899999V0209999C000012200019N0500001N1-02361-02841103601ADDGA1001+999999999GF100991001001999999001001MD1210141+9999REMSYN054AAXX  05181 30844 42999 00000 11236 21284 40360 52014;
0225308440999992000030600004+51350+110500FM-12+080899999V0209999C000012200019N0500001N1-03541-03711104341ADDAA199000091AJ100099199999999GA1001+999999999GF100991001001999999001001IA1239KA1120N-03601MA1999999093101MD1210081+9999REMSYN076AAXX  06001 30844 32999 00000 11354 21371 39310 40434 52008 333 21360 47009;EQDQ01  00002PRCP99
0112308440999992000030606004+51350+110500FM-12+080899999V0202701N004012200019N0500001N1-01112-02071103261ADDGF103991001001999999001011MD1810071+9999REMSYN060AAXX  06061 30844 42999 32704 11111 21207 40326 58007 80001;
0186308440999992000030612004+51350+110500FM-12+080899999V0202701N005012200019N0500001N1-01221-02311103311ADDAA199000091GF103991001001999999001011KA1999M-00851MA1999999093111MD1310101+9999REMSYN076AAXX  06121 30844 32999 32705 11122 21231 39311 40331 53010 80001 333 11085;EQDQ01  00002PRCP99
0112308440999992000030618004+51350+110500FM-12+080899999V0202701N008019999999N0500001N1-01171-01441103051ADDGF108991081001999999021999MD1710151+9999REMSYN060AAXX  06181 30844 42999 82708 11117 21144 40305 57015 8802/;
0243308440999992000030700004+51350+110500FM-12+080899999V0202701N007019999999N0500001N1-01151-01351102961ADDAA199000091AJ100099199999999GF108991081001999999021999IA1239KA1120N-01321MA1999999092821MD1310071+9999REMSYN110AAXX  07001 30844 32999 82707 11115 21135 39282 40296 53007 8802/ 333 21132 47009 555 1/112 51206 53013 7000/;EQDQ01  00002PRCP99
0166308440999992000030706004+51350+110500FM-12+080899999V0202901N008010093019N0500001N1-00681-01201102561ADDAY171061AY231061GA1061+009309099GF106991061031008001001001MD1810191+9999MW1031REMSYN076AAXX  07061 30844 41599 62908 11068 21120 40256 58019 70373 86300 333 86931;
0195308440999992000030712004+51350+110500FM-12+080899999V0202701N006010093019N0500001N1-00771-01221102671ADDAA112000791GA1051+009309059GF105991051081008001001001KA1120M-00591MA1999999092691MD1310131+9999REMSYN088AAXX  07121 30844 12599 52706 11077 21122 39269 40267 53013 69902 85800 333 11059 85631;
0122308440999992000030718004+51350+110500FM-12+080899999V0209999C000012200019N0500001N1-01681-01811103191ADDGA1001+999999999GF100991001001999999001001MD1410001+9999REMSYN054AAXX  07181 30844 42999 00000 11168 21181 40319 54000;
0225308440999992000030800004+51350+110500FM-12+080899999V0209999C000012200019N0500001N1-02491-02551103551ADDAA199000091AJ100099199999999GA1001+999999999GF100991001001999999001001IA1239KA1120N-02581MA1999999092841MD1310011+9999REMSYN076AAXX  08001 30844 32999 00000 11249 21255 39284 40355 53001 333 21258 47009;EQDQ01  00002PRCP99
0112308440999992000030806004+51350+110500FM-12+080899999V0202701N004012200019N0500001N1-00272-00881102481ADDGF101991011011012501001001MD1710141+9999REMSYN060AAXX  08061 30844 42699 12704 11027 21088 40248 57014 81100;
0212308440999992000030812004+51350+110500FM-12+080899999V0209999C000012200019N0500001N1-00461-00981102441ADDAA199000091GA1001+999999999GF100991001001999999001001KA1120M-00101MA1999999092601MD1310021+9999REMSYN086AAXX  08121 30844 32999 00000 11046 21098 39260 40244 53002 333 11010 555 1/111 53007;EQDQ01  00002PRCP99
0122308440999992000030818004+51350+110500FM-12+080899999V0202701N004012200019N0500001N1-00971-01181102771ADDGA1001+999999999GF100991001001999999001001MD1210041+9999REMSYN054AAXX  08181 30844 42999 02704 11097 21118 40277 52004;
0225308440999992000030900004+51350+110500FM-12+080899999V0209999C000012200019N0500001N1-02001-02121103341ADDAA199000091AJ100069199999999GA1001+999999999GF100991001001999999001001IA1239KA1120N-02021MA1999999092841MD1210101+9999REMSYN076AAXX  09001 30844 32999 00000 11200 21212 39284 40334 52010 333 21202 47006;EQDQ01  00002PRCP99
0122308440999992000030906004+51350+110500FM-12+080899999V0202701N004012200019N0500001N1-00192-00761102551ADDGA1001+999999999GF100991001001999999001001MD1810091+9999REMSYN054AAXX  09061 30844 42999 02704 11019 21076 40255 58009;
0212308440999992000030912004+51350+110500FM-12+080899999V0202701N001012200019N0500001N1-00371-00941102511ADDAA199000091GA1001+999999999GF100991001001999999001001KA1120M+00041MA1999999092701MD1310021+9999REMSYN086AAXX  09121 30844 32999 02701 11037 21094 39270 40251 53002 333 10004 555 1/108 53008;EQDQ01  00002PRCP99
0122308440999992000030918004+51350+110500FM-12+080899999V0202701N003012200019N0500001N1-01011-01371102731ADDGA1001+999999999GF100991001001999999001001MD1410001+9999REMSYN054AAXX  09181 30844 42999 02703 11101 21137 40273 54000;
0253308440999992000031000004+51350+110500FM-12+080899999V0202701N001012200019N0500001N1-01311-01441102801ADDAA199000091AJ100059199999999GA1001+999999999GF100991001001999999001001IA1239KA1120N-01321MA1999999092651MD1710011+9999REMSYN104AAXX  10001 30844 32999 02701 11131 21144 39265 40280 57001 333 21132 47005 555 1/120 51081 53006 70001;EQDQ01  00002PRCP99
0122308440999992000031006004+51350+110500FM-12+080899999V0202901N003012200019N0500001N1+00241-00801102031ADDGA1001+999999999GF100991001001999999001001MD1810221+9999REMSYN054AAXX  10061 30844 42999 02903 10024 21080 40203 58022;
0196308440999992000031012004+51350+110500FM-12+080899999V0202701N002012200019N0500001N1-00091-00871101971ADDAA199000091GA1001+999999999GF100991001001999999001001KA1999M+00351MA1999999092301MD1310021+9999REMSYN070AAXX  10121 30844 32999 02702 11009 21087 39230 40197 53002 333 10035;EQDQ01  00002PRCP99
0122308440999992000031018004+51350+110500FM-12+080899999V0209999C000012200019N0500001N1-01171-01521102511ADDGA1001+999999999GF100991001001999999001001MD1210031+9999REMSYN054AAXX  10181 30844 42999 00000 11117 21152 40251 52003;
0225308440999992000031100004+51350+110500FM-12+080899999V0209999C000012200019N0500001N1-01831-01831102801ADDAA199000091AJ100059199999999GA1001+999999999GF100991001001999999001001IA1239KA1120N-01871MA1999999092431MD1310041+9999REMSYN076AAXX  11001 30844 32999 00000 11183 21183 39243 40280 53004 333 21187 47005;EQDQ01  00002PRCP99
0122308440999992000031106004+51350+110500FM-12+080899999V0202701N005012200019N0500001N1+00212-00761101781ADDGA1001+999999999GF100991001001999999001001MD1710161+9999REMSYN054AAXX  11061 30844 42999 02705 10021 21076 40178 57016;
0175308440999992000031112004+51350+110500FM-12+080899999V0209999C000012200019N0500001N1-00841-01371102141ADDAA199000091GA1001+999999999GF100991001001999999001001KA1999M+00171MD1310031+9999REMSYN064AAXX  11121 30844 32999 00000 11084 21137 40214 53003 333 10017;EQDQ01  00002PRCP99
0122308440999992000031118004+51350+110500FM-12+080899999V0209999C000012200019N0500001N1-01341-01541102651ADDGA1001+999999999GF100991001001999999001001MD1210111+9999REMSYN054AAXX  11181 30844 42999 00000 11134 21154 40265 52011;
0253308440999992000031200004+51350+110500FM-12+080899999V0209999C000012200019N0500001N1-01871-01931102941ADDAA199000091AJ100019199999999GA1001+999999999GF100991001001999999001001IA1309KA1120N-02031MA1999999092541MD1210051+9999REMSYN104AAXX  12001 30844 32999 00000 11187 21193 39254 40294 52005 333 21203 42001 555 1/117 51066 53005 7000/;EQDQ01  00002PRCP99
0122308440999992000031206004+51350+110500FM-12+080899999V0202701N004012200019N0500001N1+00142-00731102031ADDGA1001+999999999GF100991001001999999001001MD1710071+9999REMSYN054AAXX  12061 30844 42999 02704 10014 21073 40203 57007;
0202308440999992000031212004+51350+110500FM-12+080899999V0209999C000012200019N0500001N1-00601-00951102341ADDAA199000091GF102991001001999999001011KA1120M+00341MA1999999092461MD1310121+9999REMSYN092AAXX  12121 30844 32999 20000 11060 21095 39246 40234 53012 80001 333 10034 555 1/104 53007;EQDQ01  00002PRCP99
0122308440999992000031218004+51350+110500FM-12+080899999V0209999C000012200019N0500001N1-01421-01551102861ADDGA1001+999999999GF100991001001999999001001MD1210061+9999REMSYN054AAXX  12181 30844 42999 00000 11142 21155 40286 52006;
0215308440999992000031300004+51350+110500FM-12+080899999V0209999C000012200019N0500001N1-01921-02041103211ADDAA199000091AJ100009199999999GF102991001001999999001011IA1309KA1120N-02021MA1999999092751MD1210091+9999REMSYN082AAXX  13001 30844 32999 20000 11192 21204 39275 40321 52009 80001 333 21202 42997;EQDQ01  00002PRCP99
0112308440999992000031306004+51350+110500FM-12+080899999V0202701N003012200019N0500001N1+00162-00701102221ADDGF102991011011012501001011MD1810151+9999REMSYN060AAXX  13061 30844 42699 22703 10016 21070 40222 58015 81101;
0186308440999992000031312004+51350+110500FM-12+080899999V0209999C000012200019N0500001N1-00411-00951102381ADDAA199000091GF101991001001999999001011KA1999M+00321MA1999999092561MD1310041+9999REMSYN076AAXX  13121 30844 32999 10000 11041 21095 39256 40238 53004 80001 333 10032;EQDQ01  00002PRCP99
0122308440999992000031318004+51350+110500FM-12+080899999V0209999C000012200019N0500001N1-01011-01291102671ADDGA1001+999999999GF100991001001999999001001MD1810011+9999REMSYN054AAXX  13181 30844 42999 00000 11101 21129 40267 58001;
0215308440999992000031400004+51350+110500FM-12+080899999V0209999C000012200019N0500001N1-01991-02051103041ADDAA199000091AJ100009199999999GF103991001001999999001011IA1309KA1120N-02001MA1999999092571MD1710011+9999REMSYN082AAXX  14001 30844 32999 30000 11199 21205 39257 40304 57001 80001 333 21200 42998;EQDQ01  00002PRCP99
0112308440999992000031406004+51350+110500FM-12+080899999V0202701N004012200019N0500001N1+00112-00761101792ADDGF105991031021012501001011MD1710251+9999REMSYN060AAXX  14061 30844 42699 52704 10011 21076 40179 57025 83201;
0186308440999992000031412004+51350+110500FM-12+080899999V0202301N002010300019N0500001N1-00281-00811101891ADDAA199000091GF106991031081012501031001KA1999M+00251MA1999999092161MD1310081+9999REMSYN076AAXX  14121 30844 32699 62302 11028 21081 39216 40189 53008 83830 333 10025;EQDQ01  00002PRCP99
0112308440999992000031418004+51350+110500FM-12+080899999V0209999C000019999999N0500001N1-00911-00981102121ADDGF108991001001999999001071MD1410001+9999REMSYN060AAXX  14181 30844 42999 80000 11091 21098 40212 54000 80007;
0215308440999992000031500004+51350+110500FM-12+080899999V0209999C000019999999N0500001N1-01171-01171102061ADDAA199000091AJ100009199999999GF105991001001999999001011IA1309KA1120N-01221MA1999999092011MD1710031+9999REMSYN082AAXX  15001 30844 32999 50000 11117 21117 39201 40206 57003 80001 333 21122 42998;EQDQ01  00002PRCP99
0112308440999992000031506004+51350+110500FM-12+080899999V0202701N005010750019N0500001N1+00161-00751101371ADDGF108991021021012501001071MD1810171+9999REMSYN060AAXX  15061 30844 42699 82705 10016 21075 40137 58017 82207;
0202308440999992000031512004+51350+110500FM-12+080899999V0209999C000012200019N0500001N1-00401-00701101511ADDAA199000091GF102991021081012501001001KA1120M+00241MA1999999091781MD1710011+9999REMSYN092AAXX  15121 30844 32699 20000 11040 21070 39178 40151 57001 82800 333 10024 555 1/104 53008;EQDQ01  00002PRCP99
0112308440999992000031518004+51350+110500FM-12+080899999V0209999C000012200019N0500001N1-01161-01161101601ADDGF103991001001999999001011MD1710131+9999REMSYN060AAXX  15181 30844 42999 30000 11116 21116 40160 57013 80001;
0231308440999992000031600004+51350+110500FM-12+080899999V0202701N005019999999N0500001N1-00191-00431101021ADDAA199000091AJ100009199999999GF108991081001999999021999IA1309KA1120M+99999MA1999999091421MD1710031+9999REMSYN082AAXX  16001 30844 32999 82705 11019 21043 39142 40102 57003 8802/ 333 11120 42998;EQDQ01  00002PRCP99Q02 -01202ATMX  
0140308440999992000031606004+51350+110500FM-12+080899999V0202701N006019999999N0200001N1-00171-00221100761ADDAY171061AY221061GF108991081001999999021999MD1710101+9999MW1711REMSYN066AAXX  16061 30844 41998 82706 11017 21022 40076 57010 77172 8802/;
0217308440999992000031612004+51350+110500FM-12+080899999V0209999C000012200019N0500001N1-00631-00991100991ADDAA112000191AY171061AY221061GF105991021011012501001061KA1120M-00041MA1999999091241MD1210041+9999MW1011REMSYN104AAXX  16121 30844 11699 50000 11063 21099 39124 40099 52004 69922 70172 82106 333 11004 555 1/104 53009;
0112308440999992000031618004+51350+110500FM-12+080899999V0209999C000019999999N0500001N1-01071-01201101241ADDGF108991001001999999001071MD1210041+9999REMSYN060AAXX  16181 30844 42999 80000 11107 21120 40124 52004 80007;
0215308440999992000031700004+51350+110500FM-12+080899999V0209999C000012200019N0500001N1-01921-02041101891ADDAA199000091AJ100009199999999GF102991001001999999001011IA1239KA1120N-01971MA1999999091561MD1210151+9999REMSYN082AAXX  17001 30844 32999 20000 11192 21204 39156 40189 52015 80001 333 21197 47997;EQDQ01  00002PRCP99
0112308440999992000031706004+51350+110500FM-12+080899999V0203201N004012200019N0500001N1-00012-01011101261ADDGF102991021021012501001001MD1810011+9999REMSYN060AAXX  17061 30844 42699 23204 11001 21101 40126 58001 82200;
0179308440999992000031712004+51350+110500FM-12+080899999V0209999C000012200019N0500001N1-00531-01131101801ADDAA199000091GF101991011001999999041001MA1999999092001MD1210211+9999REMSYN082AAXX  17121 30844 32999 10000 11053 21113 39200 40180 52021 81040 555 1/106 53006;EQDQ01  00002PRCP99
0225308440999992000031800004+51350+110500FM-12+080899999V0209999C000012200019N0500001N1-01991-02051103071ADDAA199000091AJ100009199999999GA1001+999999999GF100991001001999999001001IA1309KA1120N-02001MA1999999092601MD1210061+9999REMSYN076AAXX  18001 30844 32999 00000 11199 21205 39260 40307 52006 333 21200 42998;EQDQ01  00002PRCP99
0112308440999992000031806004+51350+110500FM-12+080899999V0209999C000012200019N0500001N1+00052-00871101872ADDGF105991031011012501001011MD1710331+9999REMSYN060AAXX  18061 30844 42699 50000 10005 21087 40187 57033 83101;
0202308440999992000031812004+51350+110500FM-12+080899999V0209999C000012200019N0500001N1-00601-00951101891ADDAA199000091GF102991001001999999001011KA1120M+00131MA1999999092051MD1710051+9999REMSYN092AAXX  18121 30844 32999 20000 11060 21095 39205 40189 57005 80001 333 10013 555 1/105 53004;EQDQ01  00002PRCP99
0112308440999992000031818004+51350+110500FM-12+080899999V0201601N003019999999N0500001N1-00921-01081101821ADDGF108991001001999999001071MD1710151+9999REMSYN060AAXX  18181 30844 42999 81603 11092 21108 40182 57015 80007;
0259308440999992000031900004+51350+110500FM-12+080899999V0209999C000019999999N0500001N1-01231-01291101891ADDAA199000091AJ199992999999999GF105991051001999999031001IA1259KA1120N-01321MA1999999091831MD1310041+9999REMSYN110AAXX  19001 30844 32999 50000 11123 21129 39183 40189 53004 85030 333 21132 41998 555 1/110 51091 53005 7000/;EQDQ01  00002PRCP99Q02  09972SNDP  
0138308440999992000031906004+51350+110500FM-12+080899999V0202901N006010090019N0500001N1+00091-01131101411ADDGA1051+009009099GF106991051031008001001011MD1810061+9999REMSYN070AAXX  19061 30844 42599 62906 10009 21113 40141 58006 85301 333 85930;
0202308440999992000031912004+51350+110500FM-12+080899999V0202901N004012200019N0500001N1-00101-01071101791ADDAA199000091GF102991021081012501999001KA1120M+00191MA1999999092141MD1210221+9999REMSYN092AAXX  19121 30844 32699 22904 11010 21107 39214 40179 52022 828/0 333 10019 555 1/103 53011;EQDQ01  00002PRCP99
0122308440999992000031918004+51350+110500FM-12+080899999V0209999C000012200019N0500001N1-01351-01411102651ADDGA1001+999999999GF100991001001999999001001MD1210131+9999REMSYN054AAXX  19181 30844 42999 00000 11135 21141 40265 52013;
0269308440999992000032000004+51350+110500FM-12+080899999V0209999C000012200019N0500001N1-01541-01541102901ADDAA199000091AJ199992999999999GA1001+999999999GF100991001001999999001001IA1259KA1120N-01651MA1999999092631MD1210081+9999REMSYN104AAXX  20001 30844 32999 00000 11154 21154 39263 40290 52008 333 21165 41998 555 1/114 51054 53007 7000/;EQDQ01  00002PRCP99Q02  09972SNDP  
0112308440999992000032006004+51350+110500FM-12+080899999V0202701N001012200019N0500001N1+00131-00751102101ADDGF101991011011012501001001MD1810151+9999REMSYN060AAXX  20061 30844 42699 12701 10013 21075 40210 58015 81100;
0186308440999992000032012004+51350+110500FM-12+080899999V0209999C000012200019N0500001N1-00381-00961102191ADDAA199000091GF102991001001999999001011KA1999M+00291MA1999999092401MD1310031+9999REMSYN076AAXX  20121 30844 32999 20000 11038 21096 39240 40219 53003 80001 333 10029;EQDQ01  00002PRCP99
0112308440999992000032018004+51350+110500FM-12+080899999V0209999C000019999999N0500001N1-00721-00891102301ADDGF108991001001999999001071MD1810081+9999REMSYN060AAXX  20181 30844 42999 80000 11072 21089 40230 58008 80007;
0209308440999992000032100004+51350+110500FM-12+080899999V0200901N003019999999N0500001N1-00721-01061102021ADDAA199000091AJ100009199999999GF108991999999999999999999IA1259KA1120N-00921MA1999999092131MD1710041+9999REMSYN076AAXX  21001 30844 32999 80903 11072 21106 39213 40202 57004 333 21092 41998;EQDQ01  00002PRCP99
0112308440999992000032106004+51350+110500FM-12+080899999V0200901N005019999999N0500001N1-00231-00781101381ADDGF108991081001999999021999MD1710301+9999REMSYN060AAXX  21061 30844 42999 80905 11023 21078 40138 57030 8802/;
0230308440999992000032112004+51350+110500FM-12+080899999V0200901N001019999999N0200001N1-00421-00441101431ADDAA112022191AY171061AY221061GF108991081001999999021999KA1120M-00171MA1999999091711MD1310081+9999REMSYN104AAXX  21121 30844 11998 80901 11042 21044 39171 40143 53008 60222 78172 8802/ 333 11017 555 1/104 53007;EQDQ01+000812PRSWM1
0140308440999992000032118004+51350+110500FM-12+080899999V0209999C000019999999N0500001N1-00691-00781101661ADDAY171061AY221061GF108991081001999999011999MD1210061+9999MW1021REMSYN066AAXX  21181 30844 41999 80000 11069 21078 40166 52006 70272 8801/;
0230308440999992000032200004+51350+110500FM-12+080899999V0209999C000019999999N0500001N1-00921-01481101951ADDAA112000391AJ100029199999999GF108991081001999999011999IA1239KA1120N-00931MA1999999092001MD1210171+9999REMSYN116AAXX  22001 30844 12999 80000 11092 21148 39200 40195 52017 69932 8801/ 333 21093 47002 555 1/113 51055 53002 7003/;
0112308440999992000032206004+51350+110500FM-12+080899999V0200201N006012200019N0500001N1-00211-01391101811ADDGF106991031011012501001011MD1810021+9999REMSYN060AAXX  22061 30844 42699 60206 11021 21139 40181 58002 83101;
0212308440999992000032212004+51350+110500FM-12+080899999V0203201N003012200019N0500001N1-00481-01481102011ADDAA199000091GA1001+999999999GF100991001001999999001001KA1120M-00111MA1999999092201MD1310161+9999REMSYN086AAXX  22121 30844 32999 03203 11048 21148 39220 40201 53016 333 11011 555 1/108 53010;EQDQ01  00002PRCP99
0112308440999992000032218004+51350+110500FM-12+080899999V0209999C000012200019N0500001N1-01571-01701102661ADDGF103991021001999999041011MD1210151+9999REMSYN060AAXX  22181 30844 42999 30000 11157 21170 40266 52015 82041;
0215308440999992000032300004+51350+110500FM-12+080899999V0209999C000012200019N0500001N1-01821-01881102791ADDAA199000091AJ100019199999999GF103991001001999999001011IA1309KA1120N-02031MA1999999092421MD1310041+9999REMSYN082AAXX  23001 30844 32999 30000 11182 21188 39242 40279 53004 80001 333 21203 42001;EQDQ01  00002PRCP99
0140308440999992000032306004+51350+110500FM-12+080899999V0202701N004019999999N0200001N1-00551-00931102231ADDAY171061AY211061GF108991081001999999021999MD1810131+9999MW1711REMSYN066AAXX  23061 30844 41998 82704 11055 21093 40223 58013 77171 8802/;
0217308440999992000032312004+51350+110500FM-12+080899999V0202701N005019999999N0500001N1-00481-00971102111ADDAA112000791AY171061AY221061GF108991081001999999021999KA1120M-00351MA1999999092291MD1310031+9999MW1011REMSYN104AAXX  23121 30844 11999 82705 11048 21097 39229 40211 53003 69902 70172 8802/ 333 11035 555 1/105 53010;
0140308440999992000032318004+51350+110500FM-12+080899999V0202701N004019999999N0500001N1-00751-00981102181ADDAY171061AY221061GF108991001001999999001071MD1810051+9999MW1021REMSYN066AAXX  23181 30844 42999 82704 11075 21098 40218 58005 70272 80007;
0202308440999992000032400004+51350+110500FM-12+080899999V0202901N006019999999N0500001N1-00611-00691102201ADDAA112000591AJ100029199999999GF108991031001012501021999IA1239KA1120N-00861MA1999999092341MD1310081+9999REMSYN088AAXX  24001 30844 12699 82906 11061 21069 39234 40220 53008 69952 8302/ 333 21086 47002;
0166308440999992000032406004+51350+110500FM-12+080899999V0202901N008010090019N0200001N1-00171-00481101981ADDAY181061AY221061GA1061+009009099GF108991061031012501001071MD1810081+9999MW1851REMSYN076AAXX  24061 30844 41698 82908 11017 21048 40198 58008 78582 86307 333 86930;
0239308440999992000032412004+51350+110500FM-12+080899999V0202701N004010093019N0500001N1-00231-00451102031ADDAA112000791AY181061AY221061GA1051+009309069GF108991051081008001021999KA1120M-00031MA1999999092321MD1310081+9999MW1011REMSYN110AAXX  24121 30844 11599 82704 11023 21045 39232 40203 53008 69902 70182 8582/ 333 11003 85631 555 1/104 53012;
0112308440999992000032418004+51350+110500FM-12+080899999V0202701N002019999999N0500001N1-00281-00351101951ADDGF108991081001999999021999MD1810101+9999REMSYN060AAXX  24181 30844 42999 82702 11028 21035 40195 58010 8802/;
0230308440999992000032500004+51350+110500FM-12+080899999V0209999C000019999999N0500001N1-00531-00631101911ADDAA112000791AJ100009199999999AY171061AY221061GF108991081001999999021999IA1239KA1120N-00581MA1999999092111MD1710031+9999MW1021REMSYN094AAXX  25001 30844 11999 80000 11053 21063 39211 40191 57003 69902 70272 8802/ 333 21058 47997;
0112308440999992000032506004+51350+110500FM-12+080899999V0202701N005019999999N0500001N1+00711-00471100981ADDGF106991001001999999001031MD1710351+9999REMSYN060AAXX  25061 30844 42999 62705 10071 21047 40098 57035 80003;
0186308440999992000032512004+51350+110500FM-12+080899999V0202701N002012200019N0500001N1+00091-00841100831ADDAA199000091GF102991001001999999001011KA1999M+00891MA1999999091331MD1710121+9999REMSYN076AAXX  25121 30844 32999 22702 10009 21084 39133 40083 57012 80001 333 10089;EQDQ01  00002PRCP99
0122308440999992000032518004+51350+110500FM-12+080899999V0209999C000012200019N0500001N1-00391-00541100621ADDGA1001+999999999GF100991001001999999001001MD1710171+9999REMSYN054AAXX  25181 30844 42999 00000 11039 21054 40062 57017;
0215308440999992000032600004+51350+110500FM-12+080899999V0202701N002019999999N0500001N1-00111-00431100501ADDAA199000091AJ100009199999999GF108991031001999999041071IA1309KA1120N-00441MA1999999090971MD1310051+9999REMSYN082AAXX  26001 30844 32999 82702 11011 21043 39097 40050 53005 83047 333 21044 42998;EQDQ01  00002PRCP99
0138308440999992000032606004+51350+110500FM-12+080899999V0202901N010010090019N0500001N1+00361-00451100591ADDGA1061+009009099GF106991061031008001001001MD1210111+9999REMSYN070AAXX  26061 30844 42599 62910 10036 21045 40059 52011 86300 333 86930;
0201308440999992000032612004+51350+110500FM-12+080899999V0202701N007012200019N0500001N1-00031-00471101131ADDAA112000791AY181061AY221061GF105991031081012501001011KA1999M+00521MA1999999091571MD1210251+9999MW1011REMSYN088AAXX  26121 30844 11699 52707 11003 21047 39157 40113 52025 69902 70182 83801 333 10052;
0112308440999992000032618004+51350+110500FM-12+080899999V0202701N009012200019N0500001N1-00221-00501101491ADDGF103991031001999999041001MD1210181+9999REMSYN060AAXX  26181 30844 42999 32709 11022 21050 40149 52018 83040;
0253308440999992000032700004+51350+110500FM-12+080899999V0202901N007010090019N0500001N1-00401-00741101891ADDAA199000091AJ199992999999999GA1051+009009059GF105991051081008001001001IA1259KA1120N-00431MA1999999092131MD1210151+9999REMSYN088AAXX  27001 30844 32599 52907 11040 21074 39213 40189 52015 85800 333 21043 41998 85630;EQDQ01  00002PRCP99Q02  09972SNDP  
0112308440999992000032706004+51350+110500FM-12+080899999V0202901N011012200019N0500001N1+00101-00891101861ADDGF105991031021012501001011MD1810041+9999REMSYN060AAXX  27061 30844 42699 52911 10010 21089 40186 58004 83201;
0186308440999992000032712004+51350+110500FM-12+080899999V0209999C000012200019N0500001N1-00261-00741102231ADDAA199000091GF102991001001999999001011KA1999M+00211MA1999999092481MD1210121+9999REMSYN076AAXX  27121 30844 32999 20000 11026 21074 39248 40223 52012 80001 333 10021;EQDQ01  00002PRCP99
0122308440999992000032718004+51350+110500FM-12+080899999V0209999C000012200019N0500001N1-01281-01281102761ADDGA1001+999999999GF100991001001999999001001MD1210071+9999REMSYN054AAXX  27181 30844 42999 00000 11128 21128 40276 52007;
0259308440999992000032800004+51350+110500FM-12+080899999V0201601N002019999999N0500001N1-01131-01131102601ADDAA199000091AJ199992999999999GF105991001001999999001011IA1259KA1120N-01531MA1999999092511MD1710051+9999REMSYN110AAXX  28001 30844 32999 51602 11113 21113 39251 40260 57005 80001 333 21153 41998 555 1/110 51019 53004 7000/;EQDQ01  00002PRCP99Q02  09972SNDP  
0112308440999992000032806004+51350+110500FM-12+080899999V0200501N003019999999N0500001N1+00471-00701101401ADDGF106991051001999999031011MD1710331+9999REMSYN060AAXX  28061 30844 42999 60503 10047 21070 40140 57033 85031;
0202308440999992000032812004+51350+110500FM-12+080899999V0202701N007019999999N0500001N1+00461-00351101161ADDAA199000091GF108991081001999999021999KA1120M+00761MA1999999091751MD1310061+9999REMSYN092AAXX  28121 30844 32999 82707 10046 21035 39175 40116 53006 8802/ 333 10076 555 1/002 53011;EQDQ01  00002PRCP99
0140308440999992000032818004+51350+110500FM-12+080899999V0202701N006012200019N0500001N1-00071-00291101701ADDAY171061AY211061GF102991021001999999041001MD1210191+9999MW1011REMSYN066AAXX  28181 30844 41999 22706 11007 21029 40170 52019 70171 82040;
0249308440999992000032900004+51350+110500FM-12+080899999V0202701N005012200019N0500001N1-00191-00501102191ADDAA112000591AJ199993999999999GF102991021011012501001001IA1239KA1120N-00231MA1999999092471MD1210131+9999REMSYN116AAXX  29001 30844 12699 22705 11019 21050 39247 40219 52013 69942 82100 333 21023 47997 555 1/101 11041 53011 6994/;EQDQ01  09982SNDP  
0112308440999992000032906004+51350+110500FM-12+080899999V0202701N011012200019N0500001N1+00231-01191101811ADDGF103991021021012501001031MD1710171+9999REMSYN060AAXX  29061 30844 42699 32711 10023 21119 40181 57017 82203;
0202308440999992000032912004+51350+110500FM-12+080899999V0202701N011019999999N0500001N1-00301-01661101771ADDAA199000091GF105991001001999999001011KA1120M+00231MA1999999092141MD1310051+9999REMSYN092AAXX  29121 30844 32999 52711 1103/ 21166 39214 40177 53005 80001 333 10023 555 1/102 53014;EQDQ01  00002PRCP99
0122308440999992000032918004+51350+110500FM-12+080899999V0209999C000012200019N0500001N1-01021-01221102121ADDGA1001+999999999GF100991001001999999001001MD1810041+9999REMSYN054AAXX  29181 30844 42999 00000 11102 21122 40212 58004;
0259308440999992000033000004+51350+110500FM-12+080899999V0202701N001012200019N0500001N1-01151-01431102201ADDAA199000091AJ199992999999999GF103991031001999999041001IA1259KA1120N-01471MA1999999092141MD1310051+9999REMSYN110AAXX  30001 30844 32999 32701 11115 21143 39214 40220 53005 83040 333 21147 41998 555 1/107 50000 53012 7000/;EQDQ01  00002PRCP99Q02  09972SNDP  
0138308440999992000033006004+51350+110500FM-12+080899999V0202701N011010090019N0500001N1+00211-01231101301ADDGA1061+009009099GF106991061031008001001001MD1710251+9999REMSYN070AAXX  30061 30844 42599 62711 10021 21123 40130 57025 86300 333 86930;
0112308440999992000033106004+51350+110500FM-12+080899999V0202901N005012200019N0500001N1-00041-01281101611ADDGF106991021021012501001061MD1710131+9999REMSYN060AAXX  31061 30844 42699 62905 11004 21128 40161 57013 82206;
0202308440999992000033112004+51350+110500FM-12+080899999V0202701N002012200019N0500001N1-00231-00911101691ADDAA199000091GF105991031081012501001011KA1120M+00141MA1999999092001MD1310061+9999REMSYN092AAXX  31121 30844 32699 52702 11023 21091 39200 40169 53006 83801 333 10014 555 1/103 53011;EQDQ01  00002PRCP99
0122308440999992000033118004+51350+110500FM-12+080899999V0209999C000012200019N0500001N1-01241-01301102201ADDGA1001+999999999GF100991001001999999001001MD1210051+9999REMSYN054AAXX  31181 30844 42999 00000 11124 21130 40220 52005;
0253308440999992000040100004+51350+110500FM-12+080899999V0209999C000012200019N0500001N1-01271+99999102291ADDAA199000091AJ199992999999999GF102991021001999999041001IA1259KA1120N-01571MA1999999092171MD1210021+9999REMSYN104AAXX  01001 30844 32999 20000 11127 39217 40229 52002 82040 333 21157 41998 555 1/110 51063 53005 7000/;EQDQ01  00002PRCP99Q02  09972SNDP  
0215308440999992000040103004+51350+110500FM-12+080899999V0209999C000012200019N0500001N1-01271-01331102291ADDAA199000091AJ100009199999999GF102991021001999999041001IA1259KA1120N-01571MA1999999092171MD1210021+9999REMSYN082AAXX  01031 30844 32999 20000 11127 21133 39217 40229 52002 82040 333 21157 41998;EQDQ01  00002PRCP99
0173308440999992000040106004+51350+110500FM-12+080899999V0203201N005010093019N0500001N1+00622-01081101062ADDGA1051+009309029GF105991051031008001001001MD1710251+9999REMSYN070AAXX  01061 30844 42599 53205 10062 21108 40106 57025 85300 333 85831;EQDQ01+000623ATOT  Q02+101063APOSLP
0202308440999992000040112004+51350+110500FM-12+080899999V0209999C000012200019N0500001N1+00081-01251101251ADDAA199000091GF102991011011012501001011KA1120M+00641MA1999999091701MD1310061+9999REMSYN092AAXX  01121 30844 32699 20000 10008 21125 39170 40125 53006 81101 333 10064 555 1/104 53008;EQDQ01  00002PRCP99
0122308440999992000040118004+51350+110500FM-12+080899999V0209999C000012200019N0500001N1-00821-01011101541ADDGA1001+999999999GF100991001001999999001001MD1810051+9999REMSYN054AAXX  01181 30844 42999 00000 11082 21101 40154 58005;
