0158308660999992000010100004+51580+116630FM-12+064999999V0200701N002019999999N0500001N1-03141-03301103761ADDAA106000091GF108991031001999999071051MD1710011+9999REMSYN076AAXX  01001 30866 32999 80702 11314 21330 40376 57001 83075 555 21361 47023;EQDQ01  00002PRCP06
0107308660999992000010112004+51580+116630FM-12+064999999V0200401N006019999999N0500001N1-02421-02601103161ADDAA100999999MD1710071+9999REMSYN070AAXX  01121 30866 11984 /0406 11242 2126/ 40316 57007 699// 555 53008;
0231308660999992000010200004+51580+116630FM-12+064999999V0209999C000019999999N0500001N1-02981-03151103151ADDAA112000391AJ100239199999999AY171061AY221061GF108991031001999999071051IA1239KA1120N-03211MD1710011+9999MW1021REMSYN110AAXX  02001 30866 11999 80000 11298 21315 40315 57001 69932 70272 83075 333 21321 47023 555 51294 53008 7995/;
0172308660999992000010212004+51580+116630FM-12+064999999V0209999C000012200019N0500001N1-03101-03281103171ADDAA112000391GA1001+999999999GF100991001001999999001001KA1120M-02611MD1210051+9999REMSYN080AAXX  02121 30866 12984 00000 11310 21328 40317 52005 69932 333 11261 555 53002;
0254308660999992000010300004+51580+116630FM-12+064999999V0209999C000012200019N0500001N1-04011-04211103571ADDAA106000091AJ100239199999999AY101061AY201061GA1001+999999999GF100991001001999999001001IA1239KA1120N-04071MD1310031+9999MW1111REMSYN098AAXX  03001 30866 31999 00000 11401 21421 40357 53003 71100 333 21407 47023 555 51290 53001 7993/;EQDQ01  00002PRCP06
0185308660999992000010312004+51580+116630FM-12+064999999V0209999C000012200019N0500001N1-03701-03911103661ADDAA106000091GA1001+999999999GF100991001001999999001001KA1120M-03451MD1210121+9999REMSYN074AAXX  03121 30866 32984 00000 11370 21391 40366 52012 333 11345 555 53001;EQDQ01  00002PRCP06
0254308660999992000010400004+51580+116630FM-12+064999999V0209999C000012200019N0090001N1-04331-04561104291ADDAA106000091AJ100239199999999AY101061AY201061GA1001+999999999GF100991001001999999001001IA1239KA1120N-04381MD1210081+9999MW1101REMSYN098AAXX  04001 30866 31959 00000 11433 21456 40429 52008 71000 333 21438 47023 555 51367 53001 7000/;EQDQ01  00002PRCP06
0156308660999992000010412004+51580+116630FM-12+064999999V0209999C000012200019N0500001N1-03791-04031104361ADDAA106000091GF104991001001999999001011MD1310161+9999REMSYN074AAXX  04121 30866 32984 40000 11379 21403 40436 53016 80001 333 555 53001;EQDQ01  00002PRCP06
0244308660999992000010500004+51580+116630FM-12+064999999V0209999C000019999999N0500001N1-04211-04431104561ADDAA106000091AJ100239199999999AY111061AY211061GF105991021001999999061041IA1239KA1120N-04281MD1810011+9999MW1111REMSYN104AAXX  05001 30866 31999 50000 11421 21443 40456 58001 71111 82064 333 21428 47023 555 51397 53001 7000/;EQDQ01  00002PRCP06
0169308660999992000010512004+51580+116630FM-12+064999999V0209999C000019999999N0500001N1+99999+99999103971ADDAA106000091GF108991001001999999001081KA1120M-03601MD1710071+9999REMSYN074AAXX  05121 30866 32984 80000 21384 40397 57007 80008 333 11360 555 53001;EQDQ01  00002PRCP06
0190308660999992000010612004+51580+116630FM-12+064999999V0209999C000019999999N0250001N1-02711-02881102761ADDAA112000591AY171061AY221061GF108991001001999999001081KA1120M-02691MD1810071+9999MW1711REMSYN092AAXX  06121 30866 11975 80000 11271 21288 40276 58007 69962 77172 80008 333 11269 555 53001;
0231308660999992000010700004+51580+116630FM-12+064999999V0201201N002019999999N0150001N1-02271-02451102141ADDAA112002091AJ100259199999999AY171061AY221061GF108991081001999999071999IA1239KA1120N-02711MD1610021+9999MW1711REMSYN110AAXX  07001 30866 11965 81202 11227 21245 40214 56002 60022 77172 8807/ 333 21271 47025 555 51314 53003 7002/;
0190308660999992000010712004+51580+116630FM-12+064999999V0201901N002019999999N0500001N1-02571-02681102071ADDAA112000391AY171061AY221061GF105991001001999999001011KA1120M-01881MD1310041+9999MW1021REMSYN092AAXX  07121 30866 11984 51902 11257 21268 40207 53004 69932 70272 80001 333 11188 555 53004;
0222308660999992000010800004+51580+116630FM-12+064999999V0202401N001012200019N0500001N1-02891-03071102171ADDAA112000791AJ100269199999999GF102991001001999999001011IA1239KA1120N-03051MD1310852+9999REMSYN104AAXX  08001 30866 12999 22401 11289 21307 40217 53085 69902 80001 333 21305 47026 555 51230 53004 7993/;EQDQ01+000852APC3  
0175308660999992000010812004+51580+116630FM-12+064999999V0202101N002012200019N0500001N1-02771-02941102341ADDAA106000091GF103991001001999999001011KA1120M-02231MD1110041+9999REMSYN080AAXX  08121 30866 32984 32102 11277 21294 40234 51004 80001 333 11223 555 53006;EQDQ01  00002PRCP06
0231308660999992000010900004+51580+116630FM-12+064999999V0202501N004019999999N0500001N1-02551-02731102381ADDAA112000791AJ100269199999999AY171061AY221061GF108991081001999999071999IA1239KA1120N-03071MD1310061+9999MW1711REMSYN110AAXX  09001 30866 11999 82504 11255 21273 40238 53006 69902 77172 8807/ 333 21307 47026 555 51272 53006 7990/;
0200308660999992000010912004+51580+116630FM-12+064999999V0202001N002012200019N0500001N1-02831-03001102801ADDAA112000791AY131061AY211061GA1001+999999999GF100991001001999999001001KA1120M-02311MD1210081+9999MW1021REMSYN086AAXX  09121 30866 11984 02002 11283 21300 40280 52008 69902 70231 333 11231 555 53008;
0226308660999992000011000004+51580+116630FM-12+064999999V0209999C000012200019N0500001N1-03431-03641103741ADDAA106000091AJ100269199999999GA1001+999999999GF100991001001999999001001IA1239KA1120N-03461MD1210171+9999REMSYN092AAXX  10001 30866 32999 00000 11343 21364 40374 52017 333 21346 47026 555 51267 53005 7990/;EQDQ01  00002PRCP06
0226308660999992000011100004+51580+116630FM-12+064999999V0209999C000012200019N0500001N1-03751-03991104511ADDAA106000091AJ100269199999999GA1001+999999999GF100991001001999999001001IA1239KA1120N-03771MD1810031+9999REMSYN092AAXX  11001 30866 32999 00000 11375 21399 40451 58003 333 21377 47026 555 51308 53002 7000/;EQDQ01  00002PRCP06
0185308660999992000011112004+51580+116630FM-12+064999999V0209999C000012200019N0500001N1-03191-03371104181ADDAA106000091GA1001+999999999GF100991001001999999001001KA1120M-02821MD1410001+9999REMSYN074AAXX  11121 30866 32984 00000 11319 21337 40418 54000 333 11282 555 53001;EQDQ01  00002PRCP06
0185308660999992000011212004+51580+116630FM-12+064999999V0209999C000012200019N0500001N1-03401-03551103791ADDAA106000091GA1001+999999999GF100991001001999999001001KA1120M-03041MD1810061+9999REMSYN074AAXX  12121 30866 32984 00000 11340 21355 40379 58006 333 11304 555 53002;EQDQ01  00002PRCP06
0244308660999992000011300004+51580+116630FM-12+064999999V0209999C000019999999N0500001N1-03781-03991103601ADDAA106000091AJ100269199999999AY111061AY211061GF105991001001999999001011IA1239KA1120N-03811MD1610011+9999MW1111REMSYN104AAXX  13001 30866 31999 50000 11378 21399 40360 56001 71111 80001 333 21381 47026 555 51348 53000 7000/;EQDQ01  00002PRCP06
0254308660999992000011400004+51580+116630FM-12+064999999V0209999C000019999999N0180001N1-02811-02981103001ADDAA112000891AJ100269199999999AY171061AY221061GF108991051001999999011071IA1239KA1120N+99999MD1210081+9999MW1711REMSYN114    AAXX  14001 30866 11968 80000 11281 21298 40300 52008 69972 77172 85017 333 21213 47026 555 51343 53000 7997/;EQDQ01 -02132ATMN  
0140308660999992000011412004+51580+116630FM-12+064999999V0202101N001012200019N0500001N1-02911-03091103361ADDAA112000391GF101991999999999999999999KA1120M-02211REMSYN078    AAXX  14121 30866 12984 12101 11291 21309 40336 69932 333 11221 555 53006;
0230308660999992000011500004+51580+116630FM-12+064999999V0209999C000012200019N9999999N1-03661-03871103891ADDAA199000091AJ100269199999999GA1001+999999999GF100991001001999999001001IA1239KA1120N-03711MD1210101+9999REMSYN096    AAXX  15001 30866 3299/ 00000 11366 21387 40389 52010 333 21371 47026 555 51274 53002 7993/;EQDQ01  00002PRCP99
0189308660999992000011512004+51580+116630FM-12+064999999V0209999C000012200019N0500001N1-03171-03341103891ADDAA199000091GA1001+999999999GF100991001001999999001001KA1120M-02841MD1210081+9999REMSYN078    AAXX  15121 30866 32984 00000 11317 21334 40389 52008 333 11284 555 53003;EQDQ01  00002PRCP99
0230308660999992000011600004+51580+116630FM-12+064999999V0209999C000012200019N0500001N1-03801-04031104301ADDAA199000091AJ100279199999999GA1001+999999999GF100991001001999999001001IA1239KA1120N-03871MD1210021+9999REMSYN096    AAXX  16001 30866 32999 00000 11380 21403 40430 52002 333 21387 47027 555 51330 .3001 7000/;EQDQ01  00002PRCP99
0179308660999992000011612004+51580+116630FM-12+064999999V0209999C000019999999N0500001N1-03241-03481103711ADDAA199000091GF108991021001999999031061KA1120M-03161MD1710031+9999REMSYN084    AAXX  16121 30866 32984 80000 11324 21348 40371 57003 82036 333 11316 555 53001;EQDQ01  00002PRCP99
0235308660999992000011800004+51580+116630FM-12+064999999V0209999C000019999999N0500001N1-03491-03701103771ADDAA112000391AJ100269199999999AY171061AY221061GF108991011001999999041011IA1239KA1120N-03651MD1310021+9999MW1021REMSYN114    AAXX  18001 30866 11999 80000 11349 21370 40377 53002 69932 70272 81041 333 21365 47026 555 51329 53002 7993/;
0166308660999992000011812004+51580+116630FM-12+064999999V0202401N001012200019N0500001N1-03211-03431103531ADDGF102991001001999999001011IA1019KA1120M-02561MD1310051+9999REMSYN095    AAXX  18121 30866 /2984 22401 11321 21343 40353 53005 80001 333 11256 555 530059 30874 NIL;
0235308660999992000011900004+51580+116630FM-12+064999999V0209999C000012200019N0500001N1-03921-04111104091ADDAA112000791AJ100269199999999AY171061AY211061GF101991001001999999001011IA1239KA1120N-03981MD1310151+9999MW1021REMSYN114    AAXX  19001 30866 11999 10000 11392 21411 40409 53015 69902 70271 80001 333 21398 47026 555 51312 53002 7990/;
0189308660999992000011912004+51580+116630FM-12+064999999V0209999C000012200019N0500001N1-03391-03551104091ADDAA199000091GA1001+999999999GF100991001001999999001001KA1120M-03031MD1210071+9999REMSYN078    AAXX  19121 30866 32984 00000 11339 21355 40409 52007 333 11303 555 53002;EQDQ01  00002PRCP99
0228308660999992000012000004+51580+116630FM-12+064999999V0209999C000012200019N0090001N1-04091-04311104051ADDAA199000091AJ100269199999999AY101061AY201061GF102991001001999999001011IA1239KA1120N-04121MD1310061+9999MW1101REMSYN088AAXX  20001 30866 31959 20000 11409 21431 40405 53006 71000 80001 333 21412 47026 8555/;EQDQ01  00002PRCP99
0141308660999992000012012004+51580+116630FM-12+064999999V0200101N010012200019N0500001N1-02911+99999103791ADDAA199000091GF103991999021999999021999REMSYN057AAXX  20121 30866 32984 30110 11291 40379 8022/ 555 53WV;EQDQ01+000002SCOTLCQ02  00002PRCP99
0196308660999992000012100004+51580+116630FM-12+064999999V0209999C000012200019N0500001N1-03541-03711104151ADDAA199000091GA1001+999999999GF100991001001999999001001IA1239MD1210091+9999REMSYN092AAXX  21001 30866 32999 00000 11354 21371 40415 52009 333 2157/ 4702/ 555 51359 53005 7500/;EQDQ01  00002PRCP99
0185308660999992000012112004+51580+116630FM-12+064999999V0209999C000012200019N0500001N1-03081-03251104001ADDAA199000091GA1001+999999999GF100991001001999999001001KA1120M-02711MD1210021+9999REMSYN074AAXX  21121 30866 32984 00000 11308 21325 40400 52002 333 11271 555 53002;EQDQ01  00002PRCP99
0244308660999992000012200004+51580+116630FM-12+064999999V0209999C000012200019N0500001N1-03751-03931104391ADDAA199000091AJ100269199999999AY101061AY201061GF101991011001999999031001IA1239KA1120N-03791MD1310101+9999MW1111REMSYN104AAXX  22001 30866 31999 10000 11375 21393 40439 53010 71100 81030 333 21379 47026 555 51306 53000 7000/;EQDQ01  00002PRCP99
0185308660999992000012212004+51580+116630FM-12+064999999V0209999C000012200019N0500001N1-03291-03511104681ADDAA199000091GA1001+999999999GF100991001001999999001001KA1120M-03101MD1210211+9999REMSYN074AAXX  22121 30866 32984 00000 11329 21351 40468 52021 333 11310 555 53002;EQDQ01  00002PRCP99
0254308660999992000012300004+51580+116630FM-12+064999999V0209999C000012200019N0500001N1-04031-04261105391ADDAA199000091AJ100269199999999AY101061AY201061GA1001+999999999GF100991001001999999001001IA1239KA1120N-04101MD1210051+9999MW1111REMSYN098AAXX  23001 30866 31999 00000 11403 21426 40539 52005 71100 333 21410 47026 555 51342 53000 7000/;EQDQ01  00002PRCP99
0226308660999992000012400004+51580+116630FM-12+064999999V0209999C000012200019N0500001N1-03891-04111105361ADDAA199000091AJ100269199999999GA1001+999999999GF100991001001999999001001IA1239KA1120N-03971MD1210111+9999REMSYN092AAXX  24001 30866 32999 00000 11389 21411 40536 52011 333 21397 47026 555 51345 53004 7000/;EQDQ01  00002PRCP99
0185308660999992000012411004+51580+116630FM-12+064999999V0202501N003012200019N0500001N1-02621-02871104601ADDAA199000091GA1001+999999999GF100991001001999999001001KA1120M-02491MD1810141+9999REMSYN074AAXX  24111 30866 32984 02503 11262 21287 40460 58014 333 11249 555 53005;EQDQ01  00002PRCP99
0225308660999992000012500004+51580+116630FM-12+064999999V0200501N001012200019N0500001N1-03001-03171104761ADDAA199000091AJ100269199999999GA1001+999999999GF100991001001999999001001IA1239KA1120N-03071MD1310261+9999REMSYN091AAXX  25001 30866 32999 00501 11300 21317 40476 53026 333 21307 47026 555 5321 53008 7000/;EQDQ01  00002PRCP99
0185308660999992000012512004+51580+116630FM-12+064999999V0201501N002012200019N0500001N1-02411-02661104841ADDAA199000091GA1001+999999999GF100991001001999999001001KA1120M-01761MD1210041+9999REMSYN074AAXX  25121 30866 32984 01502 11241 21266 40484 52004 333 11176 555 53005;EQDQ01  00002PRCP99
0226308660999992000012600004+51580+116630FM-12+064999999V0209999C000012200019N0500001N1-03191-03371105331ADDAA199000091AJ100269199999999GA1001+999999999GF100991001001999999001001IA1239KA1120N-03191MD1210031+9999REMSYN092AAXX  26001 30866 32999 00000 11319 21337 40533 52003 333 21319 47026 555 51252 53005 7000/;EQDQ01  00002PRCP99
0213308660999992000012612004+51580+116630FM-12+064999999V0202501N006012200019N0500001N1-01861-02271104161ADDAA199000091AY101061AY201061GA1001+999999999GF100991001001999999001001KA1120M-01701MD1710131+9999MW1361REMSYN080AAXX  26121 30866 31984 02506 11186 21227 40416 57013 73600 333 11170 555 53009;EQDQ01  00002PRCP99
0226308660999992000012700004+51580+116630FM-12+064999999V0202401N001012200019N0500001N1-02551-02731103681ADDAA199000091AJ100269199999999GA1001+999999999GF100991001001999999001001IA1239KA1120N-02651MD1710151+9999REMSYN092AAXX  27001 30866 32999 02401 11255 21273 40368 57015 333 21265 47026 555 51253 53008 7000/;EQDQ01  00002PRCP99
0213308660999992000012712004+51580+116630FM-12+064999999V0202401N002012200019N0500001N1-02111-02511103181ADDAA199000091AY131061AY201061GA1001+999999999GF100991001001999999001001KA1120M-01501MD1310041+9999MW1021REMSYN080AAXX  27121 30866 31984 02402 11211 21251 40318 53004 70230 333 11150 555 53008;EQDQ01  00002PRCP99
0216308660999992000012800004+51580+116630FM-12+064999999V0209999C000019999999N0500001N1-02631-02801103511ADDAA199000091AJ100269199999999GF108991001001999999001999IA1239KA1120N-02651MD1210071+9999REMSYN098AAXX  28001 30866 32999 80000 11263 21280 40351 52007 8000/ 333 21265 47026 555 51214 53005 7000/;EQDQ01  00002PRCP99
0231308660999992000012900004+51580+116630FM-12+064999999V0209999C000019999999N0070001N1-02761-02931104711ADDAA112000791AJ100269199999999AY171061AY221061GF108991081001999999071999IA1239KA1120N-02951MD1210181+9999MW1711REMSYN110AAXX  29001 30866 11957 80000 11276 21293 40471 52018 69902 77172 8807/ 333 21295 47026 555 51216 53004 7990/;
0279308660999992000013000004+51580+116630FM-12+064999999V0209999C000012200019N0500001N1-03591-03801105591ADDAA124000091AJ100269199999999AY101061AY201061GA1001+999999999GF100991001001999999001001IA1019KA1120N-03601MD1210061+9999MW1111REMSYN107AAXX  30001 30866 31999 00000 11359 21380 40559 52006 71100 333 21360 47026 555 51235 53002 7000/ 30874 NL;EQDQ01  00002PRCP99Q02  00003PRCP99
0185308660999992000013012004+51580+116630FM-12+064999999V0201601N002012200019N0500001N1-02681-03001105331ADDAA199000091GA1001+999999999GF100991001001999999001001KA1120M-02171MD1210111+9999REMSYN074AAXX  30121 30866 32984 01602 11268 21300 40533 52011 333 11217 555 53003;EQDQ01  00002PRCP99
0226308660999992000013100004+51580+116630FM-12+064999999V0209999C000012200019N0500001N1-03101-03281105251ADDAA199000091AJ100269199999999GA1001+999999999GF100991001001999999001001IA1239KA1120N-03191MD1710061+9999REMSYN092AAXX  31001 30866 32999 00000 11310 21328 40525 57006 333 21319 47026 555 51299 53002 7000/;EQDQ01  00002PRCP99
0213308660999992000013112004+51580+116630FM-12+064999999V0202301N005012200019N0500001N1-01901-02391104261ADDAA199000091AY131061AY201061GA1001+999999999GF100991001001999999001001KA1120M-01731MD1710051+9999MW1021REMSYN080AAXX  31121 30866 31984 02305 11190 21239 40426 57005 70230 333 11173 555 53009;EQDQ01  00002PRCP99
0245308660999992000020100004+51580+116630FM-12+064999999V0202301N005012200019N0500001N1-02131-02461103701ADDAA124000091AJ100269199999999GA1001+999999999GF100991001001999999001001IA1239KA1120N-02261MD1710121+9999REMSYN095AAXX  01001 30866 32999 02305 11213 21246 40370 57012 333 21226 47026 555 51251 53009 7000/ /-;EQDQ01  00002PRCP99Q02  00003PRCP99
0213308660999992000020112004+51580+116630FM-12+064999999V0202101N002012200019N0500001N1-01801-02391103071ADDAA199000091AY131061AY201061GA1001+999999999GF100991001001999999001001KA1120M-01491MD1410001+9999MW1021REMSYN080AAXX  01121 30866 31984 02102 11180 21239 40307 54000 70230 333 11149 555 53010;EQDQ01  00002PRCP99
0226308660999992000020200004+51580+116630FM-12+064999999V0202401N001012200019N0500001N1-02561-02811103151ADDAA199000091AJ100269199999999GA1001+999999999GF100991001001999999001001IA1239KA1120N-02641MD1310011+9999REMSYN092AAXX  02001 30866 32999 02401 11256 21281 40315 53001 333 21264 47026 555 51189 53008 7000/;EQDQ01  00002PRCP99
0185308660999992000020212004+51580+116630FM-12+064999999V0202401N004012200019N0500001N1-01871-02451102741ADDAA199000091GA1001+999999999GF100991001001999999001001KA1120M-01491MD1310051+9999REMSYN074AAXX  02121 30866 32984 02404 11187 21245 40274 53005 333 11149 555 53007;EQDQ01  00002PRCP99
0216308660999992000020300004+51580+116630FM-12+064999999V0202301N003012200019N0500001N1-02341-02591103051ADDAA199000091AJ100269199999999GF104991001001999999001011IA1239KA1120N-02361MD1210071+9999REMSYN098AAXX  03001 30866 32999 42303 11234 21259 40305 52007 80001 333 21236 47026 555 51204 53008 7000/;EQDQ01  00002PRCP99
0184308660999992000020312004+51580+116630FM-12+064999999V0202201N003012200019N0500001N1-01921-02251103051ADDAA199000091GA1001+999999999GF100991001001999999001001KA1120M-01561MD1210111+9999REMSYN073AAXX  03121 30866 32984 02203 11192 21225 40305 52011 333 11156 555 5300;EQDQ01  00002PRCP99
0226308660999992000020400004+51580+116630FM-12+064999999V0209999C000012200019N0500001N1-03181-03341103551ADDAA199000091AJ100269199999999GA1001+999999999GF100991001001999999001001IA1239KA1120N-03211MD1310011+9999REMSYN092AAXX  04001 30866 32999 00000 11318 21334 40355 53001 333 21321 47026 555 51200 53004 7000/;EQDQ01  00002PRCP99
0185308660999992000020412004+51580+116630FM-12+064999999V0209999C000012200019N0500001N1-02431-02551103261ADDAA199000091GA1001+999999999GF100991001001999999001001KA1120M-01691MD1310081+9999REMSYN074AAXX  04121 30866 32984 00000 11243 21255 40326 53008 333 11169 555 53006;EQDQ01  00002PRCP99
0216308660999992000020500004+51580+116630FM-12+064999999V0209999C000019999999N0500001N1-03371-03591103641ADDAA199000091AJ100269199999999GF108991001001999999001011IA1239KA1120N-03371MD1310031+9999REMSYN098AAXX  05001 30866 32999 80000 11337 21359 40364 53003 80001 333 21337 47026 555 51253 53001 7000/;EQDQ01  00002PRCP99
0190308660999992000020512004+51580+116630FM-12+064999999V0202101N002019999999N0500001N1-02221-02331103071ADDAA112000391AY171061AY221061GF108991001001999999001061KA1120M-02141MD1310091+9999MW1221REMSYN092AAXX  05121 30866 11984 82102 11222 21233 40307 53009 69932 72272 80006 333 11214 555 53005;
0231308660999992000020600004+51580+116630FM-12+064999999V0209999C000019999999N0500001N1-03211-03371103461ADDAA112000791AJ100269199999999AY171061AY211061GF108991031001999999071051IA1239KA1120N-03281MD1310071+9999MW1711REMSYN110AAXX  06001 30866 11999 80000 11321 21337 40346 53007 69902 77171 83075 333 21328 47026 555 51272 53004 7993/;
0190308660999992000020612004+51580+116630FM-12+064999999V0209999C000019999999N0080001N1-02661-02831103321ADDAA112000391AY171061AY221061GF108991041001999999011071KA1120M-02111MD1210091+9999MW1711REMSYN092AAXX  06121 30866 11958 80000 11266 21283 40332 52009 69932 77172 84017 333 11211 555 53003;
0213308660999992000020700004+51580+116630FM-12+064999999V0209999C000012200019N0500001N1-03641-03811103891ADDAA112000191AJ100269199999999GA1001+999999999GF100991001001999999001001IA1239KA1120N-03751MD1310121+9999REMSYN098AAXX  07001 30866 12999 00000 11364 21381 40389 53012 69922 333 21375 47026 555 51272 53003 7995/;
0185308660999992000020712004+51580+116630FM-12+064999999V0201901N002012200019N0500001N1-02851-03081103671ADDAA199000091GA1001+999999999GF100991001001999999001001KA1120M-02281MD1810041+9999REMSYN074AAXX  07121 30866 32984 01902 11285 21308 40367 58004 333 11228 555 53005;EQDQ01  00002PRCP99
0164308660999992000020800004+51580+116630FM-12+064999999V0209999C000019999999N0500001N1-02901-03071103361ADDAA199000091GF108991061001999999071051MD1610061+9999REMSYN082AAXX  08001 30866 32999 80000 11290 21307 40336 56006 86075 555 51298 53008 7000/;EQDQ01  00002PRCP99
0185308660999992000020812004+51580+116630FM-12+064999999V0202301N002012200019N0500001N1-02281-02681102821ADDAA199000091GA1001+999999999GF100991001001999999001001KA1120M-01631MD1310031+9999REMSYN074AAXX  08121 30866 32984 02302 11228 21268 40282 53003 333 11163 555 53008;EQDQ01  00002PRCP99
0226308660999992000020900004+51580+116630FM-12+064999999V0209999C000012200019N0500001N1-02851-03021102891ADDAA199000091AJ100269199999999GA1001+999999999GF100991001001999999001001IA1239KA1120N-02951MD1410001+9999REMSYN092AAXX  09001 30866 32999 00000 11285 21302 40289 54000 333 21295 47026 555 51249 53004 7000/;EQDQ01  00002PRCP99
0185308660999992000020912004+51580+116630FM-12+064999999V0209999C000012200019N0500001N1-02241-02491102331ADDAA199000091GA1001+999999999GF100991001001999999001001KA1120M-01511MD1310081+9999REMSYN074AAXX  09121 30866 32984 00000 11224 21249 40233 53008 333 11151 555 53005;EQDQ01  00002PRCP99
0226308660999992000021000004+51580+116630FM-12+064999999V0209999C000012200019N0500001N1-03221-03391102751ADDAA199000091AJ100269199999999GA1001+999999999GF100991001001999999001001IA1239KA1120N-03261MD1310051+9999REMSYN092AAXX  10001 30866 32999 00000 11322 21339 40275 53005 333 21326 47026 555 51237 53002 7000/;EQDQ01  00002PRCP99
0191308660999992000021012004+51580+116630FM-12+064999999V0202301N002012200019N0500001N1-02191-02371102071ADDAA199000091GF103991001001999999001011KA1120M-01671MD1010502+9999REMSYN080AAXX  10121 30866 32984 32302 11219 21237 40207 5005/ 80001 333 11167 555 53006;EQDQ01+000502APC3  Q02  00002PRCP99
0216308660999992000021100004+51580+116630FM-12+064999999V0209999C000012200019N0500001N1-03161-03321102331ADDAA199000091AJ100269199999999GF102991001001999999001011IA1239KA1120N-03361MD1310051+9999REMSYN098AAXX  11001 30866 32999 20000 11316 21332 40233 53005 80001 333 21336 47026 555 51257 53003 7000/;EQDQ01  00002PRCP99
0185308660999992000021112004+51580+116630FM-12+064999999V0202001N001012200019N0500001N1-02341-02741102761ADDAA199000091GA1001+999999999GF100991001001999999001001KA1120M-01621MD1310221+9999REMSYN074AAXX  11121 30866 32984 02001 11234 21274 40276 53022 333 11162 555 53004;EQDQ01  00002PRCP99
0226308660999992000021200004+51580+116630FM-12+064999999V0200401N001012200019N0500001N1-03181-03341103271ADDAA199000091AJ100269199999999GA1001+999999999GF100991001001999999001001IA1239KA1120N-03371MD1210071+9999REMSYN092AAXX  12001 30866 32999 00401 11318 21334 40327 52007 333 21337 47026 555 51262 53004 7000/;EQDQ01  00002PRCP99
0185308660999992000021212004+51580+116630FM-12+064999999V0202101N001012200019N0500001N1-02331-02801102981ADDAA199000091GA1001+999999999GF100991001001999999001001KA1120M-01291MD1210041+9999REMSYN074AAXX  12121 30866 32984 02101 11233 21280 40298 52004 333 11129 555 53004;EQDQ01  00002PRCP99
0216308660999992000021300004+51580+116630FM-12+064999999V0209999C000019999999N0500001N1-03211-03371103371ADDAA199000091AJ100269199999999GF108991001001999999001011IA1239KA1120N-03221MD1410001+9999REMSYN098AAXX  13001 30866 32999 80000 11321 21337 40337 54000 80001 333 21322 47026 555 51251 53005 7000/;EQDQ01  00002PRCP99
0175308660999992000021312004+51580+116630FM-12+064999999V0202001N002012200019N0500001N1-02441-02831102991ADDAA199000091GF101991001001999999001011KA1120M-01721MD1310061+9999REMSYN080AAXX  13121 30866 32984 12002 11244 21283 40299 53006 80001 333 11172 555 53003;EQDQ01  00002PRCP99
0185308660999992000021412004+51580+116630FM-12+064999999V02099999999992200019N0500001N1-02451-02771108901ADDAA199000091GA1001+999999999GF100991001001999999001001KA1120M-01831MD1310031+9999REMSYN074AAXX  14121 30866 32984 015/1 11245 21277 4089/ 53003 333 11183 555 53005;EQDQ01  00002PRCP99
0185308660999992000021512004+51580+116630FM-12+064999999V0201601N001012200019N0500001N1-02411-02891102811ADDAA199000091GA1001+999999999GF100991001001999999001001KA1120M-01461MD1210021+9999REMSYN074AAXX  15121 30866 32984 01601 11241 21289 40281 52002 333 11146 555 53004;EQDQ01  00002PRCP99
0226308660999992000021600004+51580+116630FM-12+064999999V0209999C000012200019N0500001N1-03251-03421103261ADDAA199000091AJ100269199999999GA1001+999999999GF100991001001999999001001IA1239KA1120N-03261MD1310071+9999REMSYN092AAXX  16001 30866 32999 00000 11325 21342 40326 53007 333 21326 47026 555 51248 53002 7000/;EQDQ01  00002PRCP99
0185308660999992000021612004+51580+116630FM-12+064999999V0201901N002012200019N0500001N1-02351-02751102871ADDAA199000091GA1001+999999999GF100991001001999999001001KA1120M-01661MD1310061+9999REMSYN074AAXX  16121 30866 32984 01902 11235 21275 40287 53006 333 11166 555 53007;EQDQ01  00002PRCP99
0226308660999992000021700004+51580+116630FM-12+064999999V0209999C000012200019N0500001N1-03291-03441103521ADDAA199000091AJ100269199999999GA1001+999999999GF100991001001999999001001IA1239KA1120N-03451MD1210061+9999REMSYN092AAXX  17001 30866 32999 00000 11329 21344 40352 52006 333 21345 47026 555 51259 53004 7000/;EQDQ01  00002PRCP99
0216308660999992000021800004+51580+116630FM-12+064999999V0209999C000019999999N0500001N1-03311-03471103411ADDAA199000091AJ100269199999999GF108991021001999999071051IA1239KA1120N-03391MD1710011+9999REMSYN098AAXX  18001 30866 32999 80000 11331 21347 40341 57001 82075 333 21339 47026 555 51261 53004 7000/;EQDQ01  00002PRCP99
0175308660999992000021812004+51580+116630FM-12+064999999V0201901N001019999999N0500001N1-02191-02541102821ADDAA199000091GF108991001001999999001071KA1120M-01671MD1310071+9999REMSYN080AAXX  18121 30866 32984 81901 11219 21254 40282 53007 80007 333 11167 555 53004;EQDQ01  00002PRCP99
0216308660999992000021900004+51580+116630FM-12+064999999V0209999C000012200019N0500001N1-03121-03301103351ADDAA199000091AJ100269199999999GF102991001001999999001011IA1239KA1120N-03191MD1310061+9999REMSYN098AAXX  19001 30866 32999 20000 11312 21330 40335 53006 80001 333 21319 47026 555 51261 53003 7000/;EQDQ01  00002PRCP99
0185308660999992000021912004+51580+116630FM-12+064999999V0203401N002012200019N0500001N1-02181-02501102781ADDAA199000091GA1001+999999999GF100991001001999999001001KA1120M-01421MD1310031+9999REMSYN074AAXX  19121 30866 32984 03402 11218 21250 40278 53003 333 11142 555 53007;EQDQ01  00002PRCP99
0216308660999992000022000004+51580+116630FM-12+064999999V0209999C000012200019N0500001N1-03101-03281103071ADDAA199000091AJ100269199999999GF102991001001999999001011IA1239KA1120N-03151MD1310021+9999REMSYN098AAXX  20001 30866 32999 20000 11310 21328 40307 53002 80001 333 21315 47026 555 51243 53003 7000/;EQDQ01  00002PRCP99
0185308660999992000022012004+51580+116630FM-12+064999999V0202401N001012200019N0500001N1-02091-02421102631ADDAA199000091GA1001+999999999GF100991001001999999001001KA1120M-01331MD1310081+9999REMSYN074AAXX  20121 30866 32984 02401 11209 21242 40263 53008 333 11133 555 53006;EQDQ01  00002PRCP99
0216308660999992000022100004+51580+116630FM-12+064999999V0209999C000019999999N0500001N1-03151-03321103171ADDAA199000091AJ100269199999999GF105991001001999999001011IA1239KA1120N-03201MD1210021+9999REMSYN098AAXX  21001 30866 32999 50000 11315 21332 40317 52002 80001 333 21320 47026 555 51239 53004 7000/;EQDQ01  00002PRCP99
0175308660999992000022112004+51580+116630FM-12+064999999V0201901N003012200019N0500001N1-01761-02101102501ADDAA199000091GF102991021001999999041001KA1120M-01441MD1310071+9999REMSYN080AAXX  21121 30866 32984 21903 11176 21210 40250 53007 82040 333 11144 555 53008;EQDQ01  00002PRCP99
0231308660999992000022200004+51580+116630FM-12+064999999V0201401N002019999999N0500001N1-01971-02091102611ADDAA112000791AJ100269199999999AY171061AY221061GF108991061001999999021071IA1239KA1120N-02211MD1310071+9999MW1711REMSYN110AAXX  22001 30866 11999 81402 11197 21209 40261 53007 69902 77172 86027 333 21221 47026 555 51235 53006 7990/;
0226308660999992000022300004+51580+116630FM-12+064999999V0201601N002012200019N0500001N1-02971-03151103141ADDAA199000091AJ100259199999999GA1001+999999999GF100991001001999999001001IA1239KA1120N-03051MD1210031+9999REMSYN092AAXX  23001 30866 32999 01602 11297 21315 40314 52003 333 21305 47025 555 51168 53004 7990/;EQDQ01  00002PRCP99
0185308660999992000022312004+51580+116630FM-12+064999999V0202001N003012200019N0500001N1-02271-02751103021ADDAA199000091GA1001+999999999GF100991001001999999001001KA1120M-01561MD1310081+9999REMSYN074AAXX  23121 30866 32984 02003 11227 21275 40302 53008 333 11156 555 53008;EQDQ01  00002PRCP99
0216308660999992000022400004+51580+116630FM-12+064999999V0209999C000019999999N0500001N1-02951-03131103191ADDAA199000091AJ100259199999999GF106991001001999999001011IA1239KA1120N-03101MD1810051+9999REMSYN098AAXX  24001 30866 32999 60000 11295 21313 40319 58005 80001 333 21310 47025 555 51225 53005 7000/;EQDQ01  00002PRCP99
0190308660999992000022412004+51580+116630FM-12+064999999V0201901N002012200019N0500001N1-01501-01631102191ADDAA112000791AY171061AY221061GF104991001001999999001011KA1120M-01101MD1410001+9999MW1011REMSYN092AAXX  24121 30866 11984 41902 11150 21163 40219 54000 69902 70172 80001 333 11110 555 53005;
0225308660999992000022500004+51580+116630FM-12+064999999V0200201N001019999999N0200001N1-02251+99999102001ADDAA112001091AJ100269199999999AY171061AY221061GF108991001001999999001081IA1239KA1120N-02301MD1610041+9999MW1711REMSYN104AAXX  25001 30866 11998 80201 11225 40200 56004 60012 77172 80008 333 21230 47026 555 51220 53003 7001/;
0162308660999992000022512004+51580+116630FM-12+064999999V0202401N001012200019N0500001N1-01861-02051102091ADDAA112000791GF102991001001999999001011KA1120M-01051MD1210091+9999REMSYN086AAXX  25121 30866 12984 22401 11186 21205 40209 52009 69902 80001 333 11105 555 53004;
0190308660999992000022612004+51580+116630FM-12+064999999V0209999C000019999999N0500001N1-01901-01961102421ADDAA112001091AY171061AY221061GF108991021001999999081081KA1120M-01381MD1310181+9999MW1021REMSYN092AAXX  26121 30866 11984 80000 11190 21196 40242 53018 69992 70272 82088 333 11138 555 53003;
0244308660999992000022700004+51580+116630FM-12+064999999V0209999C000012200019N0070001N1-03141-03241103741ADDAA199000091AJ100269199999999AY101061AY201061GF102991001001999999001011IA1239KA1120N-03151MD1210131+9999MW1401REMSYN104AAXX  27001 30866 31957 20000 11314 21324 40374 52013 74000 80001 333 21315 47026 555 51217 53002 7999/;EQDQ01  00002PRCP99
0126308660999992000022712004+51580+116630FM-12+064999999V0202701N003012200019N0500001N1-02441-02761999999ADDAA199000091GA1001+999999999GF100991001001999999001001REMSYN042AAXX  27121 30866 32984 02703 11244 21276;EQDQ01  00002PRCP99
0216308660999992000022800004+51580+116630FM-12+064999999V0209999C000019999999N0500001N1-02741-02911103071ADDAA199000091AJ100269199999999GF108991081001999999011999IA1239KA1120N-03071MD1810231+9999REMSYN098AAXX  28001 30866 32999 80000 11274 21291 40307 58023 8801/ 333 21307 47026 555 51252 53004 7000/;EQDQ01  00002PRCP99
0203308660999992000022812004+51580+116630FM-12+064999999V0202001N002012200019N0500001N1-01521-01941102351ADDAA199000091AY131061AY211061GF104991001001999999001011KA1120M-01071MD1310051+9999MW1011REMSYN086AAXX  28121 30866 31984 42002 11152 21194 40235 53005 70131 80001 333 11107 555 53009;EQDQ01  00002PRCP99
0216308660999992000022900004+51580+116630FM-12+064999999V0209999C000012200019N0500001N1-02461-02571102471ADDAA199000091AJ100279199999999GF103991001001999999001011IA1239KA1120N-02541MD1710081+9999REMSYN098AAXX  29001 30866 32999 30000 11246 21257 40247 57008 80001 333 21254 47027 555 51209 53005 7000/;EQDQ01  00002PRCP99
0213308660999992000022912004+51580+116630FM-12+064999999V0202101N003012200019N0500001N1-00831-01461101731ADDAA199000091AY131061AY201061GA1001+999999999GF100991001001999999001001KA1120M-00531MD1310121+9999MW1021REMSYN080AAXX  29121 30866 31984 02103 11083 21146 40173 53012 70230 333 11053 555 53010;EQDQ01  00002PRCP99
0226308660999992000030100004+51580+116630FM-12+064999999V0209999C000012200019N0500001N1-01751-02011102711ADDAA199000091AJ100289199999999GA1001+999999999GF100991001001999999001001IA1239KA1120N-01981MD1210151+9999REMSYN092AAXX  01001 30866 32999 00000 11175 21201 40271 52015 333 21198 47028 555 51155 53007 7000/;EQDQ01  00002PRCP99
0175308660999992000030112004+51580+116630FM-12+064999999V0201201N001012200019N0500001N1-01201-01921102241ADDAA199000091GF104991001001999999001011KA1120M-00411MD1710071+9999REMSYN080AAXX  01121 30866 32/84 41201 11120 21192 40224 57007 80001 333 11041 555 5+006;EQDQ01  00002PRCP99
0216308660999992000030200004+51580+116630FM-12+064999999V0209999C000019999999N0500001N1-02171-02291101901ADDAA199000091AJ100289199999999GF108991001001999999001061IA1239KA1120N-02361MD1710141+9999REMSYN098AAXX  02001 30866 32999 80000 11217 21229 40190 57014 80006 333 21236 47028 555 51117 53003 7000/;EQDQ01  00002PRCP99
0185308660999992000030212004+51580+116630FM-12+064999999V0202201N003012200019N0500001N1-01081-01441100811ADDAA199000091GA1001+999999999GF100991001001999999001001KA1120M-00571MD1310051+9999REMSYN074AAXX  02121 30866 32984 02203 11108 21144 40081 53005 333 11057 555 53008;EQDQ01  00002PRCP99
0231308660999992000030300004+51580+116630FM-12+064999999V0202401N004019999999N0038001N1-01031-01091101021ADDAA112000591AJ100289199999999AY171061AY221061GF108991081001999999021999IA1239KA1120N-01381MD1310201+9999MW1731REMSYN110AAXX  03001 30866 11938 82404 11103 21109 40102 53020 69942 77372 8802/ 333 21138 47028 555 51154 53007 7994/;
0190308660999992000030312004+51580+116630FM-12+064999999V0202701N005012200019N0500001N1-00881-01741101291ADDAA112000591AY181061AY231061GF102991021001999999061001KA1120M-00201MD1310181+9999MW1011REMSYN092AAXX  03121 30866 11984 22705 11088 21174 40129 53018 69942 70183 82060 333 11020 555 53013;
0244308660999992000030400004+51580+116630FM-12+064999999V0202201N002012200019N0500001N1-01831-02731102061ADDAA199000091AJ100299199999999AY131061AY201061GF101991001001999999001011IA1239KA1120N-01961MD1210131+9999MW1021REMSYN104AAXX  04001 30866 31999 12202 11183 21273 40206 52013 70230 80001 333 21196 47029 555 51091 53012 7994/;EQDQ01  00002PRCP99
0175308660999992000030412004+51580+116630FM-12+064999999V0202201N001019999999N0500001N1-01311-02021101131ADDAA199000091GF108991051001999999071051KA1120M-01051MD1710251+9999REMSYN080AAXX  04121 30866 32984 82201 11131 21202 40113 57025 85075 333 11105 555 53009;EQDQ01  00002PRCP99
0231308660999992000030500004+51580+116630FM-12+064999999V0202401N004019999999N0500001N1-01541-02141100991ADDAA112000791AJ100279199999999AY131061AY221061GF108991001001999999001081IA1239KA1120N-01601MD1210081+9999MW1021REMSYN110AAXX  05001 30866 11999 82404 11154 21214 40099 52008 69902 70232 80008 333 21160 47027 555 51140 53011 7990/;
0190308660999992000030512004+51580+116630FM-12+064999999V0200301N010012200019N0500001N1-01501-02431102181ADDAA112000391AY131061AY211061GF102991001001999999001011KA1120M-01161MD1210281+9999MW1361REMSYN092AAXX  05121 30866 11984 20310 11150 21243 40218 52028 69932 73631 80001 333 11116 555 53017;
0244308660999992000030600004+51580+116630FM-12+064999999V0200401N006012200019N0500001N1-02261-02921103001ADDAA199000091AJ100269199999999AY131061AY201061GF102991001001999999001011IA1239KA1120N-02501MD1310241+9999MW1021REMSYN104AAXX  06001 30866 31999 20406 11226 21292 40300 53024 70230 80001 333 21250 47026 555 51136 53015 7993/;EQDQ01  00002PRCP99
0185308660999992000030612004+51580+116630FM-12+064999999V0201601N003012200019N0500001N1-02121-03001103101ADDAA199000091GA1001+999999999GF100991001001999999001001KA1120M-01311MD1310051+9999REMSYN074AAXX  06121 30866 32984 01603 11212 21300 40310 53005 333 11131 555 53008;EQDQ01  00002PRCP99
0216308660999992000030700004+51580+116630FM-12+064999999V0202101N001019999999N0500001N1-02611-02921102721ADDAA199000091AJ100269199999999GF106991031001999999081011IA1239KA1120N-02741MD1710041+9999REMSYN098AAXX  07001 30866 32999 62101 11261 21292 40272 57004 83081 333 21274 47026 555 51186 53005 7000/;EQDQ01  00002PRCP99
0226308660999992000030800004+51580+116630FM-12+064999999V0209999C000012200019N0500001N1-02491-02611102981ADDAA199000091AJ100269199999999GA1001+999999999GF100991001001999999001001IA1239KA1120N-02651MD1210021+9999REMSYN092AAXX  08001 30866 32999 00000 11249 21261 40298 52002 333 21265 47026 555 51190 53003 7000/;EQDQ01  00002PRCP99
0175308660999992000030812004+51580+116630FM-12+064999999V0200101N001019999999N0500001N1-01471-02071102381ADDAA199000091GF108991021001999999031061KA1120M-00771MD1610031+9999REMSYN080AAXX  08121 30866 32984 80101 11147 21207 40238 56003 82036 333 11077 555 53006;EQDQ01  00002PRCP99
0216308660999992000030900004+51580+116630FM-12+064999999V0202101N001012200019N0500001N1-02121-02241102921ADDAA199000091AJ100269199999999GF102991001001999999001011IA1239KA1120N-02421MD1210121+9999REMSYN098AAXX  09001 30866 32999 22101 11212 21224 40292 52012 80001 333 21242 47026 555 51182 53006 7000/;EQDQ01  00002PRCP99
0175308660999992000030912004+51580+116630FM-12+064999999V0202201N004012200019N0500001N1-00911-01481102121ADDAA199000091GF104991001001999999001011KA1120M-00581MD1710071+9999REMSYN080AAXX  09121 30866 32984 42204 11091 21148 40212 57007 80001 333 11058 555 53007;EQDQ01  00002PRCP99
0226308660999992000031000004+51580+116630FM-12+064999999V0203001N001012200019N0500001N1-01711-01901102201ADDAA199000091AJ100269199999999GA1001+999999999GF100991001001999999001001IA1239KA1120N-01861MD1310081+9999REMSYN092AAXX  10001 30866 32999 03001 11171 21190 40220 53008 333 21186 47026 555 51145 53007 7000/;EQDQ01  00002PRCP99
0216308660999992000031100004+51580+116630FM-12+064999999V0209999C000012200019N0500001N1-01951-02011102451ADDAA199000091AJ100269199999999GF102991021001999999081001IA1239KA1120N-02121MD1210111+9999REMSYN098AAXX  11001 30866 32999 20000 11195 21201 40245 52011 82080 333 21212 47026 555 51097 53003 7000/;EQDQ01  00002PRCP99
0185308660999992000031112004+51580+116630FM-12+064999999V0202401N001012200019N0500001N1-00861-01921101941ADDAA199000091GA1001+999999999GF100991001001999999001001KA1120M-00161MD1310061+9999REMSYN074AAXX  11121 30866 32984 02401 11086 21192 40194 53006 333 11016 555 53005;EQDQ01  00002PRCP99
0232308660999992000031200004+51580+116630FM-12+064999999V0209999C000012200019N0500001N1-02251-02311102711ADDAA199000091AJ100269199999999GF101991001001999999001011IA1239KA1120N+99999MD1210091+9999REMSYN098AAXX  12001 30866 32999 10000 11225 21231 40271 52009 80001 333 21141 47026 555 51116 53004 70001;EQDQ01  00002PRCP99Q02 -01412ATMN  
0175308660999992000031212004+51580+116630FM-12+064999999V0201601N002012200019N0500001N1-01341-01951102551ADDAA199000091GF102991001001999999001011KA1120M-00301MD1310111+9999REMSYN080AAXX  12121 30866 32984 21602 11134 21195 40255 53011 80001 333 11030 555 53004;EQDQ01  00002PRCP99
0226308660999992000031300004+51580+116630FM-12+064999999V0202001N001012200019N0500001N1-02261-02321103161ADDAA199000091AJ102269199999999GA1001+999999999GF100991001001999999001001IA1239KA1120N-02431MD1210091+9999REMSYN092AAXX  13001 30866 32999 02001 11226 21232 40316 52009 333 21243 47226 555 51147 53005 7000/;EQDQ01  00002PRCP99
0216308660999992000031400004+51580+116630FM-12+064999999V0209999C000019999999N0500001N1-02211-02211102771ADDAA199000091AJ100259199999999GF106991001001999999001061IA1239KA1120N-02261MD1710061+9999REMSYN098AAXX  14001 30866 32999 60000 11221 21221 40277 57006 80006 333 21226 47025 555 51141 53004 7000/;EQDQ01  00002PRCP99
0175308660999992000031412004+51580+116630FM-12+064999999V0202401N001012200019N0500001N1-00681-01301101881ADDAA199000091GF101991011001999999041001KA1120M-00261MD1310041+9999REMSYN080AAXX  14121 30866 32984 12401 11068 21130 40188 53004 81040 333 11026 555 53007;EQDQ01  00002PRCP99
0216308660999992000031500004+51580+116630FM-12+064999999V0202301N001019999999N0500001N1-01721-01781102111ADDAA199000091AJ100259199999999GF108991061001999999031011IA1239KA1120N-01861MD1710081+9999REMSYN098AAXX  15001 30866 32999 82301 11172 21178 40211 57008 86031 333 21186 47025 555 51131 53003 7000/;EQDQ01  00002PRCP99
0175308660999992000031512004+51580+116630FM-12+064999999V0202301N002012200019N0500001N1-00681-01101101571ADDAA199000091GF104991011001999999061011KA1120M-00101MD1310031+9999REMSYN080AAXX  15121 30866 32984 42302 11068 21110 40157 53003 81061 333 11010 555 53003;EQDQ01  00002PRCP99
0231308660999992000031600004+51580+116630FM-12+064999999V0209999C000019999999N0500001N1-01631-01631101681ADDAA112000791AJ100259199999999AY171061AY221061GF108991051001999999071051IA1239KA1120N-01811MD1710091+9999MW1221REMSYN110AAXX  16001 30866 11999 80000 11163 21163 40168 57009 69902 72272 85075 333 21181 47025 555 51106 53003 7990/;
0190308660999992000031612004+51580+116630FM-12+064999999V0201701N001019999999N0050001N1-00661-00741100741ADDAA112000891AY171061AY221061GF108991081001999999011999KA1120M-00471MD1310061+9999MW1711REMSYN092AAXX  16121 30866 11950 81701 11066 21074 40074 53006 69982 77172 8801/ 333 11047 555 53005;
0241308660999992000031700004+51580+116630FM-12+064999999V0200301N001012200019N0500001N1-01181-01181101291ADDAA112000591AJ100289199999999AY171061AY211061GA1001+999999999GF100991001001999999001001IA1239KA1120N-01351MD1210161+9999MW1021REMSYN104AAXX  17001 30866 11999 00301 11118 21118 40129 52016 69962 70271 333 21135 47028 555 51114 53006 7001/;
0172308660999992000031712004+51580+116630FM-12+064999999V0201501N002012200019N0500001N1-00951-01651101751ADDAA112000791GA1001+999999999GF100991001001999999001001KA1120M+00041MD1210141+9999REMSYN080AAXX  17121 30866 12984 01502 11095 21165 40175 52014 69902 333 10004 555 53004;
0226308660999992000031800004+51580+116630FM-12+064999999V0209999C000012200019N0500001N1-01871-01931102611ADDAA199000091AJ100269199999999GA1001+999999999GF100991001001999999001001IA1239KA1120N-02031MD1210111+9999REMSYN092AAXX  18001 30866 32999 00000 11187 21193 40261 52011 333 21203 47026 555 51073 53003 7990/;EQDQ01  00002PRCP99
0175308660999992000031812004+51580+116630FM-12+064999999V0202201N001012200019N0500001N1-00821-01511102121ADDAA199000091GF101991001001999999001011KA1120M-00311MD1310051+9999REMSYN080AAXX  18121 30866 32984 12201 11082 21151 40212 53005 80001 333 11031 555 53010;EQDQ01  00002PRCP99
0216308660999992000031900004+51580+116630FM-12+064999999V0209999C000019999999N0500001N1-02011-02071102511ADDAA199000091AJ100269199999999GF108991001001999999001081IA1239KA1120N-02161MD1310041+9999REMSYN098AAXX  19001 30866 32984 80000 11201 21207 40251 53004 80008 333 21216 47026 555 51121 53003 7000/;EQDQ01  00002PRCP99
0175308660999992000031912004+51580+116630FM-12+064999999V0200901N001019999999N0500001N1-00711-01341101751ADDAA199000091GF108991001001999999001081KA1120M-00271MD1310071+9999REMSYN080AAXX  19121 30866 32984 80901 11071 21134 40175 53007 80008 333 11027 555 53003;EQDQ01  00002PRCP99
0231308660999992000032000004+51580+116630FM-12+064999999V0201901N001019999999N0500001N1-01091-01151102211ADDAA112001091AJ100279199999999AY171061AY221061GF108991031001999999051081IA1239KA1120N-01211MD1310171+9999MW1711REMSYN110AAXX  20001 30866 11999 81901 11109 21115 40221 53017 60012 77172 83058 333 21121 47027 555 51128 53003 7001/;
0172308660999992000032012004+51580+116630FM-12+064999999V0201501N003012200019N0500001N1-00711-01291102431ADDAA112000791GA1001+999999999GF100991001001999999001001KA1120M-00011MD1310131+9999REMSYN080AAXX  20121 30866 32984 01503 11071 21129 40243 53013 69902 333 11001 555 53005;
0216308660999992000032100004+51580+116630FM-12+064999999V0209999C000019999999N0500001N1-01751-01811102851ADDAA199000091AJ100279199999999GF108991051001999999041081IA1239KA1120N-01881MD1710031+9999REMSYN098AAXX  21001 30866 32999 80000 11175 21181 40285 57003 85048 333 21188 47027 555 51071 53005 7990/;EQDQ01  00002PRCP99
0190308660999992000032112004+51580+116630FM-12+064999999V0200301N005019999999N0500001N1-00541-00581101701ADDAA112002091AY181061AY221061GF108991081001999999021999KA1120M-00441MD1710131+9999MW1021REMSYN092AAXX  21121 30866 11984 80305 11054 21058 40170 57013 60022 70282 8802/ 333 11044 555 53007;
0237308660999992000032200004+51580+116630FM-12+064999999V0200501N010019999999N0010001N1-00551-00591101061ADDAA112001091AJ100319199999999AY171061AY231061GF108991081001999999021999IA1239KA1120N-00601MD1610031+9999MW1751REMSYN116AAXX  22001 30866 11910 80510 11055 21059 40106 56003 60012 77573 8802/ 333 21060 47031 92993 555 51119 53016 7003/;
0190308660999992000032212004+51580+116630FM-12+064999999V0200301N006012200019N0500001N1-00581-01361101381ADDAA112000791AY131061AY211061GF103991021091012501041001KA1120M-00301MD1310251+9999MW1361REMSYN092AAXX  22121 30866 11684 30306 11058 21136 40138 53025 69902 73631 82940 333 11030 555 53015;
0226308660999992000032300004+51580+116630FM-12+064999999V0202501N001012200019N0500001N1-01521-02221102201ADDAA199000091AJ100389199999999GA1001+999999999GF100991001001999999001001IA1239KA1120N-01961MD1210171+9999REMSYN092AAXX  23001 30866 32999 02501 11152 21222 40220 52017 333 21196 47038 555 51049 53008 7990/;EQDQ01  00002PRCP99
0175308660999992000032312004+51580+116630FM-12+064999999V0202101N003012200019N0500001N1-00981-01841101961ADDAA199000091GF104991001001999999001011KA1120M-00131MD1310051+9999REMSYN080AAXX  23121 30866 32984 42103 11098 21184 40196 53005 80001 333 11013 555 53004;EQDQ01  00002PRCP99
0216308660999992000032400004+51580+116630FM-12+064999999V0202101N001019999999N0500001N1-01841-02031102211ADDAA199000091AJ100389199999999GF105991001001999999001011IA1239KA1120N-02271MD1210041+9999REMSYN098AAXX  24001 30866 32999 52101 11184 21203 40221 52004 80001 333 21227 47038 555 51105 53005 7000/;EQDQ01  00002PRCP99
0175308660999992000032412004+51580+116630FM-12+064999999V0202001N002012200019N0500001N1-01061-01901102051ADDAA199000091GF103991021001999999041011KA1120M-00281MD1310101+9999REMSYN080AAXX  24121 30866 32984 32002 11106 21190 40205 53010 82041 333 11028 555 53009;EQDQ01  00002PRCP99
0216308660999992000032500004+51580+116630FM-12+064999999V0209999C000019999999N0500001N1-02041-02231102521ADDAA199000091AJ100389199999999GF108991001001999999001011IA1239KA1120N-02281MD1210011+9999REMSYN098AAXX  25001 30866 32999 80000 11204 21223 40252 52001 80001 333 21228 47038 555 51121 53003 7000/;EQDQ01  00002PRCP99
0157308660999992000032512004+51580+116630FM-12+064999999V0202301N002019999999N0500001N1-00551-00931101331ADDAA199000091GF108991051001999999071051IA1019MD1710101+9999REMSYN069AAXX  25121 30866 32984 82302 11055 21093 40133 57010 85075 555 3009;EQDQ01  00002PRCP99
0216308660999992000032600004+51580+116630FM-12+064999999V0202401N002019999999N0500001N1-00701-00871100501ADDAA199000091AJ100389199999999GF108991081001999999011999IA1239KA1120N-01051MD1710291+9999REMSYN098AAXX  26001 30866 32999 82402 11070 21087 40050 57029 8801/ 333 21105 47038 555 51127 53004 7000/;EQDQ01  00002PRCP99
0175308660999992000032612004+51580+116630FM-12+064999999V0203001N003010300019N0500001N1+00121-00401100051ADDAA199000091GF108991021091012501061011KA1120M+00331MD1310091+9999REMSYN080AAXX  26121 30866 32684 83003 10012 21040 40005 53009 82961 333 10033 555 53010;EQDQ01  00002PRCP99
0190308660999992000032712004+51580+116630FM-12+064999999V0200301N003019999999N0500001N1-00121-00631101831ADDAA112000791AY181061AY221061GF108991021001999999081081KA1120M+00071MD1210261+9999MW1021REMSYN092AAXX  27121 30866 11984 80303 11012 21063 40183 52026 69902 70282 82088 333 10007 555 53010;
0203308660999992000032800004+51580+116630FM-12+064999999V0209999C000012200019N0500001N1-01201-01201102671ADDAA199000091AJ100359199999999GF102991001001999999001011IA1259MD1210141+9999REMSYN098AAXX  28001 30866 32999 20000 11120 21120 40267 52014 80001 333 25051 41035 555 52011 53008 7990/;EQDQ01  00002PRCP99
0175308660999992000032812004+51580+116630FM-12+064999999V0202101N003019999999N0500001N1-00071-01071101521ADDAA199000091GF108991061001999999071051KA1120M+00281MD1710201+9999REMSYN080AAXX  28121 30866 32984 82103 11007 21107 40152 57020 86075 333 10028 555 53008;EQDQ01  00002PRCP99
0231308660999992000032900004+51580+116630FM-12+064999999V0201001N006012200019N0500001N1+00131-00861101021ADDAA112000191AJ100359199999999AY181061AY231061GF102991011021012501081001IA1239KA1120N-00301MD1310131+9999MW1361REMSYN110AAXX  29001 30866 11699 21006 10013 21086 40102 53013 69922 73683 81280 333 21030 47035 555 51052 53010 7992/;
0175308660999992000032912004+51580+116630FM-12+064999999V0202701N003012200019N0500001N1+00091-01131101011ADDAA199000091GF103991021041012501061001KA1120M+00391MD1310091+9999REMSYN080AAXX  29121 30866 32684 32703 10009 21113 40101 53009 82460 333 10039 555 53014;EQDQ01  00002PRCP99
0216308660999992000033000004+51580+116630FM-12+064999999V0201901N002012200019N0500001N1-00441-01601101331ADDAA199000091AJ100339199999999GF101991011001999999081001IA1239KA1120N-00821MD1310151+9999REMSYN098AAXX  30001 30866 32999 11902 11044 21160 40133 53015 81080 333 21082 47033 555 50006 53008 7000/;EQDQ01  00002PRCP99
0175308660999992000033012004+51580+116630FM-12+064999999V0201201N003019999999N0500001N1-00341-01671101071ADDAA199000091GF107991071001999999071001KA1120M+00151MD1310041+9999REMSYN080AAXX  30121 30866 32984 71203 11034 21167 40107 53004 87070 333 10015 555 53012;EQDQ01  00002PRCP99
0216308660999992000033100004+51580+116630FM-12+064999999V0202301N001012200019N0500001N1-00641-01521101371ADDAA199000091AJ100329199999999GF101991011001999999081001IA1279KA1120N-01151MD1310111+9999REMSYN098AAXX  31001 30866 32999 12301 11064 21152 40137 53011 81080 333 21115 43032 555 51020 53005 7000/;EQDQ01  00002PRCP99
0190308660999992000033112004+51580+116630FM-12+064999999V0201901N001012200019N0500001N1-00431-01171101651ADDAA112000791AY181061AY211061GF102991021001999999061001KA1120M+00071MD1310201+9999MW1011REMSYN092AAXX  31121 30866 11984 21901 11043 21117 40165 53020 69902 70181 82060 333 10007 555 +3008;
0216308660999992000040100004+51580+116630FM-12+064999999V0209999C000012200019N0500001N1-01251-01451999999ADDAA199000091AJ100329199999999GF102991001001999999001011IA1279KA1120N-01631MD1210041+9999REMSYN098AAXX  01001 30866 32999 20000 11125 21145 402/4 52004 80001 333 21163 43032 555 51048 53005 7990/;EQDQ01  00002PRCP99
0175308660999992000040112004+51580+116630FM-12+064999999V0201501N001019999999N0500001N1-00491-01071101591ADDAA199000091GF108991061001999999071051KA1120M+00251MD1310051+9999REMSYN080AAXX  01121 30866 32984 81501 11049 21107 40159 53005 86075 333 10025 555 53009;EQDQ01  00002PRCP99
0216308660999992000040200004+51580+116630FM-12+064999999V0201801N002012200019N0500001N1-00521-01211101301ADDAA199000091AJ100329199999999GF102991001001999999001011IA1239KA1120N-00801MD1610011+9999REMSYN098AAXX  02001 30866 32984 21802 11052 21121 40130 56001 80001 333 21080 47032 555 51071 53007 7000/;EQDQ01  00002PRCP99
0216308660999992000040300004+51580+116630FM-12+064999999V0202701N003019999999N0500001N1-00061-00511100591ADDAA199000091AJ100279199999999GF108991081001999999021999IA1279KA1120N-00451MD1310061+9999REMSYN098AAXX  03001 30866 32999 82703 11006 21051 40059 53006 8802/ 333 21045 43027 555 51010 53005 7000/;EQDQ01  00002PRCP99
0212308660999992000040312004+51580+116630FM-12+064999999V0203001N002010300019N0500001N1+00081-00651100881ADDAA112000791AY181061AY221061GA1041+009309099GF106991041091008001061001KA1120M+00381MD1310151+9999MW1021REMSYN098AAXX  03121 30866 11584 63002 10008 21065 40088 53015 69902 70282 84960 333 10038 84931 555 53009;
0216308660999992000040400004+51580+116630FM-12+064999999V0202001N002010300019N0500001N1-00321-00911101761ADDAA199000091AJ100269199999999GF108991031091012501061081IA1309KA1120N-00471MD1210191+9999REMSYN098AAXX  04001 30866 32699 82002 11032 21091 40176 52019 83968 333 21047 42026 555 50001 53011 7990/;EQDQ01  00002PRCP99
0175308660999992000040412004+51580+116630FM-12+064999999V0200601N001012200019N0500001N1-00381-01421101861ADDAA199000091GF101991011001999999041001KA1120M+00121MD1310051+9999REMSYN080AAXX  04121 30866 32984 10601 11038 21142 40186 53005 81040 333 10012 555 53011;EQDQ01  00002PRCP99
